{"hash": "1e446d6a9c0072576f3e56bf20f51fe27a41dfafe781898593a17437cf0eac16", "blockhash": "00000000000000000017f5eb5941039fbcee6240d03bc1f2f8e35350df66a1d8", "vout": [{"scriptPubKey": {"reqSigs": 1, "hex": "76a9142e0a69e2832a155246ece282af6f6d50885e3cb288ac", "addresses": ["15CSZNjSQ3p9nPAdqR2x3uG1tvRJW1uFWX"], "asm": "OP_DUP OP_HASH160 2e0a69e2832a155246ece282af6f6d50885e3cb2 OP_EQUALVERIFY OP_CHECKSIG", "type": "pubkeyhash"}, "value": 0.00058631, "n": 0}, {"scriptPubKey": {"reqSigs": 1, "hex": "a91406a70abe943199cf52fd3de103addb5adeebc1f187", "addresses": ["32JC5yTruszNmHPhZJgaCjiwtFakK4cvuX"], "asm": "OP_HASH160 06a70abe943199cf52fd3de103addb5adeebc1f1 OP_EQUAL", "type": "scripthash"}, "value": 0.35378774, "n": 1}], "hex": "010000000001011489974b14e084b264616de30328436f2447cda28193a7a1a00028be7d47afca01000000232200208154504cc3583cbc165929f0354bfaac22b66efd51749be4149c6ca6fd18d102ffffffff0207e50000000000001976a9142e0a69e2832a155246ece282af6f6d50885e3cb288ac56d61b020000000017a91406a70abe943199cf52fd3de103addb5adeebc1f1870400483045022100d6b8f5652341e713e2d0747d61610e3d0b7665f4d5dfc182594514730630a68502205132a2ec307a6844243dce4a17ef29e9fa4326a00176655de82014a4506106fc0147304402206157360c7f1d97b9d9f17aef7e197e03cba657d2236a3c553715ffe0b13a471d02205237a14b92eff634e7199806af8486e90e1fef07a2fb47012e6265920d6647270147522103718b64e8ba47600d017f06d890ee819ad3580106752c30d969fb973442b1206021030580d373ab00643a581abb399b43fa66d7b6fc29624eb75b2d5ec8d99faa163f52ae00000000", "vin": [{"txinwitness": ["", "3045022100d6b8f5652341e713e2d0747d61610e3d0b7665f4d5dfc182594514730630a68502205132a2ec307a6844243dce4a17ef29e9fa4326a00176655de82014a4506106fc01", "304402206157360c7f1d97b9d9f17aef7e197e03cba657d2236a3c553715ffe0b13a471d02205237a14b92eff634e7199806af8486e90e1fef07a2fb47012e6265920d66472701", "522103718b64e8ba47600d017f06d890ee819ad3580106752c30d969fb973442b1206021030580d373ab00643a581abb399b43fa66d7b6fc29624eb75b2d5ec8d99faa163f52ae"], "sequence": 4294967295, "scriptSig": {"hex": "2200208154504cc3583cbc165929f0354bfaac22b66efd51749be4149c6ca6fd18d102", "asm": "00208154504cc3583cbc165929f0354bfaac22b66efd51749be4149c6ca6fd18d102"}, "vout": 1, "txid": "caaf477dbe2800a0a1a79381a2cd47246f432803e36d6164b284e0144b978914"}], "txid": "39474944e8c0ad5c566976b147ddcd70c0bd04144ea018cdb7d6376bb13ac7ad", "blocktime": 1537874412, "version": 1, "confirmations": 11468, "time": 1537874412, "locktime": 0, "vsize": 208, "size": 373}