{"hash": "a1e62cca34785563a1f61ec02cda4f1fa0dc3f50daba8f55e9424b2ab68d9bec", "blockhash": "00000000000000000004ffacab907a6b429b9a5745fa0b75af4234bf69dd7176", "vout": [{"scriptPubKey": {"reqSigs": 1, "hex": "a914e166bbd9a4df40650771598d95ec6ff72f55f59487", "addresses": ["3NEq2msVhfi6D39o8MSpXE1RRamcQ2TZ32"], "asm": "OP_HASH160 e166bbd9a4df40650771598d95ec6ff72f55f594 OP_EQUAL", "type": "scripthash"}, "value": 0.26702205, "n": 0}, {"scriptPubKey": {"reqSigs": 1, "hex": "a9148ff52588e8e17c90f5597f85f2b631c15d27a2d487", "addresses": ["3EpCE4WSsqKhkCEr7TbRWzT5joiZ9LfCwz"], "asm": "OP_HASH160 8ff52588e8e17c90f5597f85f2b631c15d27a2d4 OP_EQUAL", "type": "scripthash"}, "value": 16.36694112, "n": 1}], "hex": "02000000000101f15b296bd59ae02293c72c0fb5593edf44e9eeccfbc4444c7ba77f41a6c782210000000017160014b498bbb52315f49a729f0db010b6117f8544de38feffffff027d7197010000000017a914e166bbd9a4df40650771598d95ec6ff72f55f5948760f88d610000000017a9148ff52588e8e17c90f5597f85f2b631c15d27a2d48702473044022007f9e95ddd715f464d061e99a17960058568028e87d451ccf6760f5e7befd40b022025fbeffcb140fd6afafb8bd5271270abd5e4d91c222f7e0a5fcb5869fedc42df012103c4215db28a99214d2828aaa1a40f67f04a4cddbce36b10355a2e54819548a73e16490800", "vin": [{"txinwitness": ["3044022007f9e95ddd715f464d061e99a17960058568028e87d451ccf6760f5e7befd40b022025fbeffcb140fd6afafb8bd5271270abd5e4d91c222f7e0a5fcb5869fedc42df01", "03c4215db28a99214d2828aaa1a40f67f04a4cddbce36b10355a2e54819548a73e"], "sequence": 4294967294, "scriptSig": {"hex": "160014b498bbb52315f49a729f0db010b6117f8544de38", "asm": "0014b498bbb52315f49a729f0db010b6117f8544de38"}, "vout": 0, "txid": "2182c7a6417fa77b4c44c4fbcceee944df3e59b50f2cc79322e09ad56b295bf1"}], "txid": "39508fab93977fc3f18a1315635fb37819c73685940f61fd5a152207162a55b9", "blocktime": 1537875543, "version": 2, "confirmations": 11464, "time": 1537875543, "locktime": 542998, "vsize": 166, "size": 247}