{"hash": "c3dcbc70d7ebb59a2e1f90e7bb91c96acd4c5fcb3cb4e167e9a77733c842b438", "blockhash": "0000000000000000001cda96e906b7601b7a6fb1a3b62bca570a9e5d8f4b3de1", "vout": [{"scriptPubKey": {"reqSigs": 1, "hex": "76a91424d75114aae76190bce61015d0e6363879be487e88ac", "addresses": ["14MoGNh6RVvcVh19kC8cLHpuYwRmTShozj"], "asm": "OP_DUP OP_HASH160 24d75114aae76190bce61015d0e6363879be487e OP_EQUALVERIFY OP_CHECKSIG", "type": "pubkeyhash"}, "value": 0.020698, "n": 0}, {"scriptPubKey": {"reqSigs": 1, "hex": "a914dee0a1cc9f055700143e0f4ecee53180ab3530dc87", "addresses": ["3N1V2qWA5hpScEmS72pMooYRmXUiLmwPQQ"], "asm": "OP_HASH160 dee0a1cc9f055700143e0f4ecee53180ab3530dc OP_EQUAL", "type": "scripthash"}, "value": 0.44087383, "n": 1}], "hex": "02000000000101fd0f3224d6e65cae92d6f93686c93007f5024540897c1f50c441b149bb2bc36e0100000017160014cb5dbe423de4d42b6425c6921084c6197a5d2937ffffffff0228951f00000000001976a91424d75114aae76190bce61015d0e6363879be487e88ac57b8a0020000000017a914dee0a1cc9f055700143e0f4ecee53180ab3530dc8702483045022100ef922a6230beac0ccc2736aa98ce3bb3fb8f3425c29adcd3efd6c159b8f629270220200e23ee100bb08550abe432f8d3821059be4c4bdf27dd37fdf1c481780689f1012102acecad485eda786cbe0422823b7594aea6854abb5ec85e267f1c4b87f3f758f700000000", "vin": [{"txinwitness": ["3045022100ef922a6230beac0ccc2736aa98ce3bb3fb8f3425c29adcd3efd6c159b8f629270220200e23ee100bb08550abe432f8d3821059be4c4bdf27dd37fdf1c481780689f101", "02acecad485eda786cbe0422823b7594aea6854abb5ec85e267f1c4b87f3f758f7"], "sequence": 4294967295, "scriptSig": {"hex": "160014cb5dbe423de4d42b6425c6921084c6197a5d2937", "asm": "0014cb5dbe423de4d42b6425c6921084c6197a5d2937"}, "vout": 1, "txid": "6ec32bbb49b141c4501f7c89404502f50730c98636f9d692ae5ce6d624320ffd"}], "txid": "39501c8e4a7e22772b00a4c70adc1dfd6570391dfeac3cd23b7ac3d064689885", "blocktime": 1537873282, "version": 2, "confirmations": 11481, "time": 1537873282, "locktime": 0, "vsize": 168, "size": 250}