{"hash": "39552d963e6913d344adf41c81a2cd685fd9371052f3ebddeff5d63846504964", "blockhash": "0000000000000000000e13cef7c366c0283d82e591d1acd082e914b08063cdf1", "vout": [{"scriptPubKey": {"reqSigs": 1, "hex": "a914360f91d0e06758c6f015ad42dd37da22b45a74d987", "addresses": ["36cs4hNg69JiH9cE4fXdtm7xr1CtoFFmcy"], "asm": "OP_HASH160 360f91d0e06758c6f015ad42dd37da22b45a74d9 OP_EQUAL", "type": "scripthash"}, "value": 0.00427201, "n": 0}, {"scriptPubKey": {"reqSigs": 1, "hex": "76a914f14a5e0da3ec3ab4e185b48d86098b6dd81c7d8788ac", "addresses": ["1NzpwNNBbZAzQPMbXK37tqPCMeL2oX1y13"], "asm": "OP_DUP OP_HASH160 f14a5e0da3ec3ab4e185b48d86098b6dd81c7d87 OP_EQUALVERIFY OP_CHECKSIG", "type": "pubkeyhash"}, "value": 0.11259539, "n": 1}], "hex": "01000000012e0dfdaef067089df41223173057dfd7544af74d36da417097f9c67457318d8b010000006b483045022100c43b2a89b3cb1bfc1422aa733603ddf8fb19000abfc52d2b5cd1cc3c794d16f6022004ce491d936904ccc6f2e0d3aa18bdb58418086ae6d8a9151a100a9c5508f3e30121023173fd51d9e6d62aedbd085c5034b3213960277a8dce283e7ada1c044bcbcc92ffffffff02c18406000000000017a914360f91d0e06758c6f015ad42dd37da22b45a74d98793ceab00000000001976a914f14a5e0da3ec3ab4e185b48d86098b6dd81c7d8788ac00000000", "vin": [{"sequence": 4294967295, "scriptSig": {"hex": "483045022100c43b2a89b3cb1bfc1422aa733603ddf8fb19000abfc52d2b5cd1cc3c794d16f6022004ce491d936904ccc6f2e0d3aa18bdb58418086ae6d8a9151a100a9c5508f3e30121023173fd51d9e6d62aedbd085c5034b3213960277a8dce283e7ada1c044bcbcc92", "asm": "3045022100c43b2a89b3cb1bfc1422aa733603ddf8fb19000abfc52d2b5cd1cc3c794d16f6022004ce491d936904ccc6f2e0d3aa18bdb58418086ae6d8a9151a100a9c5508f3e3[ALL] 023173fd51d9e6d62aedbd085c5034b3213960277a8dce283e7ada1c044bcbcc92"}, "vout": 1, "txid": "8b8d315774c6f9977041da364df74a54d7df5730172312f49d0867f0aefd0d2e"}], "txid": "39552d963e6913d344adf41c81a2cd685fd9371052f3ebddeff5d63846504964", "blocktime": 1537871767, "version": 1, "confirmations": 11493, "time": 1537871767, "locktime": 0, "vsize": 224, "size": 224}