{"hash": "3519b16def29a469afb3b452d86e22e5b829349f07cdd6b59fd2652e8ae5422a", "blockhash": "0000000000000000000e13cef7c366c0283d82e591d1acd082e914b08063cdf1", "vout": [{"scriptPubKey": {"reqSigs": 1, "hex": "a91461b44882d3d0fd1c0fed5024e7a63ae2974e0d4e87", "addresses": ["3AbdST6w53Fo5uFHegsWYFwQngyK1ww6T3"], "asm": "OP_HASH160 61b44882d3d0fd1c0fed5024e7a63ae2974e0d4e OP_EQUAL", "type": "scripthash"}, "value": 0.00272106, "n": 0}, {"scriptPubKey": {"reqSigs": 1, "hex": "a914b2a3af4b52356047a0bdf5adc927c6314cd773ec87", "addresses": ["3HyaHhqXqP9A5hJGGKpeBfCgXXqYDgSxwD"], "asm": "OP_HASH160 b2a3af4b52356047a0bdf5adc927c6314cd773ec OP_EQUAL", "type": "scripthash"}, "value": 0.00224542, "n": 1}, {"scriptPubKey": {"reqSigs": 1, "hex": "a9141e639c6cc727fa40b50067a3ff83c695e006a2f887", "addresses": ["34ThXPr2VNZHZeqAjTq2hpdMayvfR5SC7J"], "asm": "OP_HASH160 1e639c6cc727fa40b50067a3ff83c695e006a2f8 OP_EQUAL", "type": "scripthash"}, "value": 0.00279071, "n": 2}, {"scriptPubKey": {"reqSigs": 1, "hex": "a914b4b5334d3bb06301e340216873b8cc8475de8def87", "addresses": ["3JAWd6cQH2Gh8zUc9Ry22ztU7qQL1jYA39"], "asm": "OP_HASH160 b4b5334d3bb06301e340216873b8cc8475de8def OP_EQUAL", "type": "scripthash"}, "value": 0.00106115, "n": 3}, {"scriptPubKey": {"reqSigs": 1, "hex": "a914eb6eeae0963a4376190eb0a3318f1b8689b8a47a87", "addresses": ["3P9sbJiE2S8foNTS79aK9TLYaZkM1NMbx4"], "asm": "OP_HASH160 eb6eeae0963a4376190eb0a3318f1b8689b8a47a OP_EQUAL", "type": "scripthash"}, "value": 0.0101, "n": 4}, {"scriptPubKey": {"reqSigs": 1, "hex": "a914da3107614a81e2b56acf4bb4e354018ef91d03f887", "addresses": ["3MahxwnuNoRry9mKU2YGncuHmSfwcrV4kh"], "asm": "OP_HASH160 da3107614a81e2b56acf4bb4e354018ef91d03f8 OP_EQUAL", "type": "scripthash"}, "value": 0.00371948, "n": 5}, {"scriptPubKey": {"reqSigs": 1, "hex": "a91456432c6038e0e93b32ca174a7396b9a87c73bc2687", "addresses": ["39Z8WKut2U7oXt1M7PU4ijT6dd5vZJFVAj"], "asm": "OP_HASH160 56432c6038e0e93b32ca174a7396b9a87c73bc26 OP_EQUAL", "type": "scripthash"}, "value": 3.28169058, "n": 6}, {"scriptPubKey": {"reqSigs": 1, "hex": "a9146d03ffc879b0b47675b13780fec701982717945987", "addresses": ["3BdSNKUHz5QWeVn9fjDWTSfSeSRSTQMyLW"], "asm": "OP_HASH160 6d03ffc879b0b47675b13780fec7019827179459 OP_EQUAL", "type": "scripthash"}, "value": 0.0022, "n": 7}, {"scriptPubKey": {"reqSigs": 1, "hex": "a914b101186843a76f63db5ae115488f964a38efe89987", "addresses": ["3HpvqbwxgXSh4EAsXGEvqJ8c9Qjm6ArDVD"], "asm": "OP_HASH160 b101186843a76f63db5ae115488f964a38efe899 OP_EQUAL", "type": "scripthash"}, "value": 0.00511654, "n": 8}, {"scriptPubKey": {"reqSigs": 1, "hex": "a914efab77b5760c3f642530b5307aefe5a38ea943c487", "addresses": ["3PYGqAoW1sYJDuZpTSFqbXWwrkUE7pEKky"], "asm": "OP_HASH160 efab77b5760c3f642530b5307aefe5a38ea943c4 OP_EQUAL", "type": "scripthash"}, "value": 0.0047576, "n": 9}, {"scriptPubKey": {"reqSigs": 1, "hex": "a914443216c9928b7106fb39802bd0ea50e0a5250dd287", "addresses": ["37ubsqKQqr8FzarwzNQeFqtBr2HaaExG6Q"], "asm": "OP_HASH160 443216c9928b7106fb39802bd0ea50e0a5250dd2 OP_EQUAL", "type": "scripthash"}, "value": 0.00685624, "n": 10}, {"scriptPubKey": {"reqSigs": 1, "hex": "a91430958e8705ae4c110df79b639f9acb88e29559d287", "addresses": ["367uX8srN2GQR8gRbWAjFcP4goVbAnzMgV"], "asm": "OP_HASH160 30958e8705ae4c110df79b639f9acb88e29559d2 OP_EQUAL", "type": "scripthash"}, "value": 0.0018275, "n": 11}, {"scriptPubKey": {"reqSigs": 1, "hex": "a9140d5c296fdd70290d19d3ef42ff6488b845f368b687", "addresses": ["32uf7ZCrPHZ9DGcNkKJcku52qSHKnRyhNs"], "asm": "OP_HASH160 0d5c296fdd70290d19d3ef42ff6488b845f368b6 OP_EQUAL", "type": "scripthash"}, "value": 0.00296998, "n": 12}, {"scriptPubKey": {"reqSigs": 1, "hex": "76a914fbf22d7d691fd6cb49b7710ffc1573392276408588ac", "addresses": ["1PyAix93mQWpKK8sWybH3ki2Zh9oGVwYjz"], "asm": "OP_DUP OP_HASH160 fbf22d7d691fd6cb49b7710ffc15733922764085 OP_EQUALVERIFY OP_CHECKSIG", "type": "pubkeyhash"}, "value": 0.01587471, "n": 13}, {"scriptPubKey": {"reqSigs": 1, "hex": "a914c4ced67039d52bcb3c8df90e6870aedbfbb907a287", "addresses": ["3Kde9UU4piQTTrHmqpj7cyvEHtJdkChm41"], "asm": "OP_HASH160 c4ced67039d52bcb3c8df90e6870aedbfbb907a2 OP_EQUAL", "type": "scripthash"}, "value": 0.0022489, "n": 14}, {"scriptPubKey": {"reqSigs": 1, "hex": "a91486918977ebb667bdf8c59cdeae01ba0512ebe40487", "addresses": ["3DxYpLStwrxUfZi5skcjXpmcfnsD3oX2de"], "asm": "OP_HASH160 86918977ebb667bdf8c59cdeae01ba0512ebe404 OP_EQUAL", "type": "scripthash"}, "value": 0.00371108, "n": 15}, {"scriptPubKey": {"reqSigs": 1, "hex": "a914692dffcd420499f32b8d5f2362287c065d1de23d87", "addresses": ["3BH9ymWRQaeVZVjw5vDWK2HaHpTCsUM2wb"], "asm": "OP_HASH160 692dffcd420499f32b8d5f2362287c065d1de23d OP_EQUAL", "type": "scripthash"}, "value": 0.00411776, "n": 16}, {"scriptPubKey": {"reqSigs": 1, "hex": "a914a3751729a611cb5cd37467a5bc44f82c64540d0d87", "addresses": ["3GbJLQE1vVkvGZXaotLKKcVFSkmAvqAuYY"], "asm": "OP_HASH160 a3751729a611cb5cd37467a5bc44f82c64540d0d OP_EQUAL", "type": "scripthash"}, "value": 0.00293609, "n": 17}, {"scriptPubKey": {"reqSigs": 1, "hex": "a914d9cb2a5ac48d34595e82c8fe546249f1309c37ae87", "addresses": ["3MYbwMUArW5XDj9Ua2cuCFZjgkPpoMGDg7"], "asm": "OP_HASH160 d9cb2a5ac48d34595e82c8fe546249f1309c37ae OP_EQUAL", "type": "scripthash"}, "value": 0.00317581, "n": 18}, {"scriptPubKey": {"reqSigs": 1, "hex": "76a9149622d9730bd7f485061ac6c2b1a7e6f80e4fd28988ac", "addresses": ["1Egr79wXJUen18w8tZmfwZS1XgfVYyoJVv"], "asm": "OP_DUP OP_HASH160 9622d9730bd7f485061ac6c2b1a7e6f80e4fd289 OP_EQUALVERIFY OP_CHECKSIG", "type": "pubkeyhash"}, "value": 0.381, "n": 19}, {"scriptPubKey": {"reqSigs": 1, "hex": "a9145422c968535bf087212b1b6e971064257af8dd4287", "addresses": ["39MtMgaLyqRxXWnYfY3DhF2G4ZEvL6RpFD"], "asm": "OP_HASH160 5422c968535bf087212b1b6e971064257af8dd42 OP_EQUAL", "type": "scripthash"}, "value": 0.00128021, "n": 20}, {"scriptPubKey": {"reqSigs": 1, "hex": "a9140021c9d784bf906e8255e654975edecc1514bf0e87", "addresses": ["31hiQCuReLGKJEPRk21ACxoi5Kg1NA3Uuh"], "asm": "OP_HASH160 0021c9d784bf906e8255e654975edecc1514bf0e OP_EQUAL", "type": "scripthash"}, "value": 0.00247874, "n": 21}, {"scriptPubKey": {"reqSigs": 1, "hex": "76a914cef50e0f5e2620483b6404df67518b8c81b6347188ac", "addresses": ["1KsHmERvC5f1bqxJxnhc33ycfLU2Sxg4dD"], "asm": "OP_DUP OP_HASH160 cef50e0f5e2620483b6404df67518b8c81b63471 OP_EQUALVERIFY OP_CHECKSIG", "type": "pubkeyhash"}, "value": 0.00139253, "n": 22}, {"scriptPubKey": {"reqSigs": 1, "hex": "a9145616af7e1eb6ce55c8f99219fae2017d067b747a87", "addresses": ["39YDDFxCuACfbHqbHrgwgEFjJS7kUXqSBe"], "asm": "OP_HASH160 5616af7e1eb6ce55c8f99219fae2017d067b747a OP_EQUAL", "type": "scripthash"}, "value": 0.00215722, "n": 23}, {"scriptPubKey": {"reqSigs": 1, "hex": "76a91418e3a5690eb8affd7e2bdd1f55b50d5bb423793688ac", "addresses": ["13GbvjcJwpazt1zSr9HzKPbdckZSosJMK4"], "asm": "OP_DUP OP_HASH160 18e3a5690eb8affd7e2bdd1f55b50d5bb4237936 OP_EQUALVERIFY OP_CHECKSIG", "type": "pubkeyhash"}, "value": 3.4369962, "n": 24}, {"scriptPubKey": {"reqSigs": 1, "hex": "76a914c135ddee457f5c01b80c39cbc42ae566a427acff88ac", "addresses": ["1JcbwmDJXEGXatsp1n7DqT7EpsNWgHujfu"], "asm": "OP_DUP OP_HASH160 c135ddee457f5c01b80c39cbc42ae566a427acff OP_EQUALVERIFY OP_CHECKSIG", "type": "pubkeyhash"}, "value": 0.002374, "n": 25}, {"scriptPubKey": {"reqSigs": 1, "hex": "a914e0175f25a5fbb1725d873af02d15f3eaa685002f87", "addresses": ["3N7uHQVBFfEMLWRG72fmMQ68aQno24Dabq"], "asm": "OP_HASH160 e0175f25a5fbb1725d873af02d15f3eaa685002f OP_EQUAL", "type": "scripthash"}, "value": 0.00681738, "n": 26}, {"scriptPubKey": {"reqSigs": 1, "hex": "76a914105506a67f7871bb263e0bca32c9c227b0aae72788ac", "addresses": ["12VMfn7ZJDPxpXctXHuqQWjZ9rPQLqZR8S"], "asm": "OP_DUP OP_HASH160 105506a67f7871bb263e0bca32c9c227b0aae727 OP_EQUALVERIFY OP_CHECKSIG", "type": "pubkeyhash"}, "value": 4.0, "n": 27}, {"scriptPubKey": {"reqSigs": 1, "hex": "a91412ce76453bd396c256441d371b909c0aacdc785887", "addresses": ["33QTRE9f5SHg6fZRA35kCpjAkfP6KXiHrC"], "asm": "OP_HASH160 12ce76453bd396c256441d371b909c0aacdc7858 OP_EQUAL", "type": "scripthash"}, "value": 0.00095466, "n": 28}], "hex": "020000000001010cc2da1b491cdea1a64d0bd560ae5ba0a9c43a3f285e87e07e8242f3922503921000000017160014e37aa9c564847f432f20b44beeae51fdfa91216ffeffffff1dea2604000000000017a91461b44882d3d0fd1c0fed5024e7a63ae2974e0d4e871e6d03000000000017a914b2a3af4b52356047a0bdf5adc927c6314cd773ec871f4204000000000017a9141e639c6cc727fa40b50067a3ff83c695e006a2f887839e01000000000017a914b4b5334d3bb06301e340216873b8cc8475de8def8750690f000000000017a914eb6eeae0963a4376190eb0a3318f1b8689b8a47a87ecac05000000000017a914da3107614a81e2b56acf4bb4e354018ef91d03f88762768f130000000017a91456432c6038e0e93b32ca174a7396b9a87c73bc2687605b03000000000017a9146d03ffc879b0b47675b13780fec701982717945987a6ce07000000000017a914b101186843a76f63db5ae115488f964a38efe89987704207000000000017a914efab77b5760c3f642530b5307aefe5a38ea943c48738760a000000000017a914443216c9928b7106fb39802bd0ea50e0a5250dd287dec902000000000017a91430958e8705ae4c110df79b639f9acb88e29559d287268804000000000017a9140d5c296fdd70290d19d3ef42ff6488b845f368b6870f391800000000001976a914fbf22d7d691fd6cb49b7710ffc1573392276408588ac7a6e03000000000017a914c4ced67039d52bcb3c8df90e6870aedbfbb907a287a4a905000000000017a91486918977ebb667bdf8c59cdeae01ba0512ebe40487804806000000000017a914692dffcd420499f32b8d5f2362287c065d1de23d87e97a04000000000017a914a3751729a611cb5cd37467a5bc44f82c64540d0d878dd804000000000017a914d9cb2a5ac48d34595e82c8fe546249f1309c37ae87205c4502000000001976a9149622d9730bd7f485061ac6c2b1a7e6f80e4fd28988ac15f401000000000017a9145422c968535bf087212b1b6e971064257af8dd428742c803000000000017a9140021c9d784bf906e8255e654975edecc1514bf0e87f51f0200000000001976a914cef50e0f5e2620483b6404df67518b8c81b6347188acaa4a03000000000017a9145616af7e1eb6ce55c8f99219fae2017d067b747a87a4707c14000000001976a91418e3a5690eb8affd7e2bdd1f55b50d5bb423793688ac589f0300000000001976a914c135ddee457f5c01b80c39cbc42ae566a427acff88ac0a670a000000000017a914e0175f25a5fbb1725d873af02d15f3eaa685002f870084d717000000001976a914105506a67f7871bb263e0bca32c9c227b0aae72788acea7401000000000017a91412ce76453bd396c256441d371b909c0aacdc78588702483045022100c55cfe21266c46f422419fc7d8afbac51c84aa47644a88a60d5cff063fdcd01c02201d41553533b413d51108717f18d1c0baa198b64fc3b5f13745abb46ca4276f73012102714ee98771bb6d29afb9335b664c8276958e607166a3439fb8542ae6d1dd715db8480800", "vin": [{"txinwitness": ["3045022100c55cfe21266c46f422419fc7d8afbac51c84aa47644a88a60d5cff063fdcd01c02201d41553533b413d51108717f18d1c0baa198b64fc3b5f13745abb46ca4276f7301", "02714ee98771bb6d29afb9335b664c8276958e607166a3439fb8542ae6d1dd715d"], "sequence": 4294967294, "scriptSig": {"hex": "160014e37aa9c564847f432f20b44beeae51fdfa91216f", "asm": "0014e37aa9c564847f432f20b44beeae51fdfa91216f"}, "vout": 16, "txid": "92032592f342827ee0875e283f3ac4a9a05bae60d50b4da6a1de1c491bdac20c"}], "txid": "395878369a2438352b60318321ab858692d0e8868dbf2b3bc1b6db534c3f14fb", "blocktime": 1537871767, "version": 2, "confirmations": 11490, "time": 1537871767, "locktime": 542904, "vsize": 1042, "size": 1124}