{"hash": "3960e50b7c89b6719912390cb069ca6541eb39def5518dcf96dff575b4d70768", "blockhash": "00000000000000000024a2167bbff67b0be802c0b01cdd79e6331c2be6459f87", "vout": [{"scriptPubKey": {"reqSigs": 1, "hex": "a91472c8fb85767c0ccb9c95bedd5793873813dea7fb87", "addresses": ["3C9wivQrGhSacbD8p3GMHkshHQeV3oogDZ"], "asm": "OP_HASH160 72c8fb85767c0ccb9c95bedd5793873813dea7fb OP_EQUAL", "type": "scripthash"}, "value": 0.1, "n": 0}, {"scriptPubKey": {"reqSigs": 1, "hex": "76a9145df2de7d4f3d6e887f50aa670731090d98554d5588ac", "addresses": ["19ZkngWEPX3abpEBoYasqV5tGqe8SHVR1T"], "asm": "OP_DUP OP_HASH160 5df2de7d4f3d6e887f50aa670731090d98554d55 OP_EQUALVERIFY OP_CHECKSIG", "type": "pubkeyhash"}, "value": 0.31287578, "n": 1}], "hex": "0100000001fd80e93b471521e135ce17f6fe85dbbd305e7c3e0a167577d30bbe8826d01196010000006a47304402204325e6470a3b756ecb68a03f366411ab049590e0dfc0e96ef840990c737c77f5022017d6d771f05807ba1286e4c191eb89b448ee52843faba45d50771e745e639292012102f467963133c5f28e8786f74f8a7dcfc9e5277b951105c0da68b77a1b42b62da9ffffffff02809698000000000017a91472c8fb85767c0ccb9c95bedd5793873813dea7fb871a69dd01000000001976a9145df2de7d4f3d6e887f50aa670731090d98554d5588ac00000000", "vin": [{"sequence": 4294967295, "scriptSig": {"hex": "47304402204325e6470a3b756ecb68a03f366411ab049590e0dfc0e96ef840990c737c77f5022017d6d771f05807ba1286e4c191eb89b448ee52843faba45d50771e745e639292012102f467963133c5f28e8786f74f8a7dcfc9e5277b951105c0da68b77a1b42b62da9", "asm": "304402204325e6470a3b756ecb68a03f366411ab049590e0dfc0e96ef840990c737c77f5022017d6d771f05807ba1286e4c191eb89b448ee52843faba45d50771e745e639292[ALL] 02f467963133c5f28e8786f74f8a7dcfc9e5277b951105c0da68b77a1b42b62da9"}, "vout": 1, "txid": "9611d02688be0bd37775160a3e7c5e30bddb85fef617ce35e12115473be980fd"}], "txid": "3960e50b7c89b6719912390cb069ca6541eb39def5518dcf96dff575b4d70768", "blocktime": 1537870564, "version": 1, "confirmations": 11515, "time": 1537870564, "locktime": 0, "vsize": 223, "size": 223}