{"hash": "39608598a68e1f0825bdb315a1193c8f8f3cded31606d133e8e9eb941d66ee1f", "blockhash": "000000000000000000022b45ed06c6f4ccd3cf7fb5ba4856ebd2e58215665228", "vout": [{"scriptPubKey": {"reqSigs": 1, "hex": "76a914567e773762ba39035debf057c3834d2fe63e6a3688ac", "addresses": ["18tLcVH2xqYGY9ShcYEv9PzYxJX1bj1NWG"], "asm": "OP_DUP OP_HASH160 567e773762ba39035debf057c3834d2fe63e6a36 OP_EQUALVERIFY OP_CHECKSIG", "type": "pubkeyhash"}, "value": 0.00499387, "n": 0}, {"scriptPubKey": {"type": "nulldata", "hex": "6a146f6d6e69000000000000001f000000172f524a90", "asm": "OP_RETURN 6f6d6e69000000000000001f000000172f524a90"}, "value": 0.0, "n": 1}, {"scriptPubKey": {"reqSigs": 1, "hex": "76a914a25dec4d0011064ef106a983c39c7a540699f22088ac", "addresses": ["1FoWyxwPXuj4C6abqwhjDWdz6D4PZgYRjA"], "asm": "OP_DUP OP_HASH160 a25dec4d0011064ef106a983c39c7a540699f220 OP_EQUALVERIFY OP_CHECKSIG", "type": "pubkeyhash"}, "value": 5.46e-06, "n": 2}], "hex": "0100000002042f0dda04c24ec12f3f7ac5e8898bb3a5d2adc36a7bd1737173c5ba7aef644e010000006a473044022033a3b04cb60e761cb6254c222442c1dd565886963496cb9eb75ed8547932a61602200ff8c9224d92bb3e1a46643b88b643b86daa14aa27ad08729d61fb9034a72016012102b6395a3d59ef5d93cb699a6b6293c6b08b00b915cf3730a47f28adf57eb4128efeffffff912557e17582ceb1e81d6f8ffb4f018df417ac78d3254cd8c0dfa44a279b8e73000000006a473044022023d9acc61ec971a12241c133992d4a44c3bc5ec0fcb600de47b74a8d3f9e8c6b0220478e445899e98d38c03176f66e1923497a15ae9ef70a006da974497c1bf48eeb012102b6395a3d59ef5d93cb699a6b6293c6b08b00b915cf3730a47f28adf57eb4128efeffffff03bb9e0700000000001976a914567e773762ba39035debf057c3834d2fe63e6a3688ac0000000000000000166a146f6d6e69000000000000001f000000172f524a9022020000000000001976a914a25dec4d0011064ef106a983c39c7a540699f22088ac0b490800", "vin": [{"sequence": 4294967294, "scriptSig": {"hex": "473044022033a3b04cb60e761cb6254c222442c1dd565886963496cb9eb75ed8547932a61602200ff8c9224d92bb3e1a46643b88b643b86daa14aa27ad08729d61fb9034a72016012102b6395a3d59ef5d93cb699a6b6293c6b08b00b915cf3730a47f28adf57eb4128e", "asm": "3044022033a3b04cb60e761cb6254c222442c1dd565886963496cb9eb75ed8547932a61602200ff8c9224d92bb3e1a46643b88b643b86daa14aa27ad08729d61fb9034a72016[ALL] 02b6395a3d59ef5d93cb699a6b6293c6b08b00b915cf3730a47f28adf57eb4128e"}, "vout": 1, "txid": "4e64ef7abac5737173d17b6ac3add2a5b38b89e8c57a3f2fc14ec204da0d2f04"}, {"sequence": 4294967294, "scriptSig": {"hex": "473044022023d9acc61ec971a12241c133992d4a44c3bc5ec0fcb600de47b74a8d3f9e8c6b0220478e445899e98d38c03176f66e1923497a15ae9ef70a006da974497c1bf48eeb012102b6395a3d59ef5d93cb699a6b6293c6b08b00b915cf3730a47f28adf57eb4128e", "asm": "3044022023d9acc61ec971a12241c133992d4a44c3bc5ec0fcb600de47b74a8d3f9e8c6b0220478e445899e98d38c03176f66e1923497a15ae9ef70a006da974497c1bf48eeb[ALL] 02b6395a3d59ef5d93cb699a6b6293c6b08b00b915cf3730a47f28adf57eb4128e"}, "vout": 0, "txid": "738e9b274aa4dfc0d84c25d378ac17f48d014ffb8f6f1de8b1ce8275e1572591"}], "txid": "39608598a68e1f0825bdb315a1193c8f8f3cded31606d133e8e9eb941d66ee1f", "blocktime": 1537869901, "version": 1, "confirmations": 11524, "time": 1537869901, "locktime": 542987, "vsize": 403, "size": 403}