{"hash": "81cf2616a26f1c9cf072ada54751a2226e84368b78b9e81878024a36ab6d2ac1", "blockhash": "0000000000000000000dcc0f55137456b1a82d3642486a52398922ac4d620174", "vout": [{"scriptPubKey": {"reqSigs": 1, "hex": "a914266df26dc98a35a4f060f715c146a405eb69e0be87", "addresses": ["35CDK5pdgTCGbaSD5DX7pn6awn9v1uKUBM"], "asm": "OP_HASH160 266df26dc98a35a4f060f715c146a405eb69e0be OP_EQUAL", "type": "scripthash"}, "value": 0.0091, "n": 0}, {"scriptPubKey": {"reqSigs": 1, "hex": "a914627aa52932456d89054bd84f86246af3b71b93a887", "addresses": ["3Afj4stdiLG9EktGrMbm252ySonnhYaz8v"], "asm": "OP_HASH160 627aa52932456d89054bd84f86246af3b71b93a8 OP_EQUAL", "type": "scripthash"}, "value": 0.61096668, "n": 1}], "hex": "01000000000101d51f614122cc43ad9bd928551b0099d6703452162de7743a58fc7ee1c17d12ec01000000232200205fdd641234b13964b223bd85ad2a4a667ca2099df3d42a1d3b45706a8d81abf0ffffffff02b0e20d000000000017a914266df26dc98a35a4f060f715c146a405eb69e0be87dc42a4030000000017a914627aa52932456d89054bd84f86246af3b71b93a8870400483045022100bf6f67e0ecec69546c7a0d4c3ba647d45ee7c5f8ba5703901d530bfd05d83109022017f51ee740115dc01e828354a6670ccb19c2ed0e27bf8f4ad74c4e28f1c4191b01483045022100f40644fa4be44042879b1d3591cd0f8ec29f4fa64e95ff4a48b162e4cf8781b002205cafb63d61571f37e63ecc68974e260c4a11f957fc02e52386924916d4855c5c0147522103dcde3832fa56def7b4e783faad1b8af85c3cdd74a5ff4f3c7c216b1075c18da12103c70ae8ded79be1afda73b9ce5ea14a3878908ee160d66a9a717e792bb6db276952ae00000000", "vin": [{"txinwitness": ["", "3045022100bf6f67e0ecec69546c7a0d4c3ba647d45ee7c5f8ba5703901d530bfd05d83109022017f51ee740115dc01e828354a6670ccb19c2ed0e27bf8f4ad74c4e28f1c4191b01", "3045022100f40644fa4be44042879b1d3591cd0f8ec29f4fa64e95ff4a48b162e4cf8781b002205cafb63d61571f37e63ecc68974e260c4a11f957fc02e52386924916d4855c5c01", "522103dcde3832fa56def7b4e783faad1b8af85c3cdd74a5ff4f3c7c216b1075c18da12103c70ae8ded79be1afda73b9ce5ea14a3878908ee160d66a9a717e792bb6db276952ae"], "sequence": 4294967295, "scriptSig": {"hex": "2200205fdd641234b13964b223bd85ad2a4a667ca2099df3d42a1d3b45706a8d81abf0", "asm": "00205fdd641234b13964b223bd85ad2a4a667ca2099df3d42a1d3b45706a8d81abf0"}, "vout": 1, "txid": "ec127dc1e17efc583a74e72d16523470d699001b5528d99bad43cc2241611fd5"}], "txid": "39615b7e38b021972711f017f3a65c3178c8c84ec417539e69881442e7aaf9fb", "blocktime": 1537870268, "version": 1, "confirmations": 11518, "time": 1537870268, "locktime": 0, "vsize": 206, "size": 372}