{"hash": "c4902420318f64ee950bb4c22553e81609a4eabfc3a21391f52fce40f79ba1e7", "blockhash": "0000000000000000001e0dab787dd257d1dbfcb92a98c2207d5e1078be1f4165", "vout": [{"scriptPubKey": {"reqSigs": 1, "hex": "0014b9ccea9d078dbd8714fb363402e7ac23d3cf09f7", "addresses": ["bc1qh8xw48g83k7cw98mxc6q9eavy0fu7z0he3r95q"], "asm": "0 b9ccea9d078dbd8714fb363402e7ac23d3cf09f7", "type": "witness_v0_keyhash"}, "value": 0.0001207, "n": 0}, {"scriptPubKey": {"reqSigs": 1, "hex": "76a914a2266cc547641d329ff27ed7ac3a7f17b5207eef88ac", "addresses": ["1FnNVtHz5EQSWC1aYYgxiRiLiuTQH1v3d7"], "asm": "OP_DUP OP_HASH160 a2266cc547641d329ff27ed7ac3a7f17b5207eef OP_EQUALVERIFY OP_CHECKSIG", "type": "pubkeyhash"}, "value": 0.00979139, "n": 1}], "hex": "010000000001013d76dc444ed17ea558fb65e9d98b6b983455a932e867605eb79c6684049928a30000000000ffffffff02262f000000000000160014b9ccea9d078dbd8714fb363402e7ac23d3cf09f7c3f00e00000000001976a914a2266cc547641d329ff27ed7ac3a7f17b5207eef88ac024730440220157858d4b5b38425f53b447e53e7ff6264cb5b292f0d12f3a7337e583fe044ec02202059751bd33e8f927a32f034dfe5ca8b5a008a18800e6c131af2d0fe6299026601210292bdee508d978acd9430778dab9d0a7b060be048fa903ac6ada2437c7334df3400000000", "vin": [{"txinwitness": ["30440220157858d4b5b38425f53b447e53e7ff6264cb5b292f0d12f3a7337e583fe044ec02202059751bd33e8f927a32f034dfe5ca8b5a008a18800e6c131af2d0fe6299026601", "0292bdee508d978acd9430778dab9d0a7b060be048fa903ac6ada2437c7334df34"], "sequence": 4294967295, "scriptSig": {"hex": "", "asm": ""}, "vout": 0, "txid": "a328990484669cb75e6067e832a95534986b8bd9e965fb58a57ed14e44dc763d"}], "txid": "3961b013fa0318e8eedfae7ebd76f292d40103c47c4731c005d871dc14f66b3a", "blocktime": 1537872475, "version": 1, "confirmations": 11487, "time": 1537872475, "locktime": 0, "vsize": 144, "size": 225}