{"hash": "39796e6a0e2d74023b1814ae6dd761438ad03b089e19f5ad10bf00c6103a9653", "blockhash": "0000000000000000001f0ddff1eddb255c1121bcd4da4f1bc9a0da00cae72433", "vout": [{"scriptPubKey": {"reqSigs": 1, "hex": "a914a1a664b9ffa56e01297c9e79a6b5bf92fe4827dd87", "addresses": ["3GRk3ebKenc34pkfCYUrLpGCJY1NNzce1d"], "asm": "OP_HASH160 a1a664b9ffa56e01297c9e79a6b5bf92fe4827dd OP_EQUAL", "type": "scripthash"}, "value": 0.02500711, "n": 0}, {"scriptPubKey": {"reqSigs": 1, "hex": "76a914d7181929d9689185760a7a61b504ce2d0c9d2c0288ac", "addresses": ["1LcK9d6pEdd75avxLJTvmmoVMTqmzp6Vnt"], "asm": "OP_DUP OP_HASH160 d7181929d9689185760a7a61b504ce2d0c9d2c02 OP_EQUALVERIFY OP_CHECKSIG", "type": "pubkeyhash"}, "value": 2.42436155, "n": 1}], "hex": "01000000012403e028108017c60b7ea9f6f7421109c00ac8c1d349e3a0d0acf1f5d4346ccd010000006b483045022100b6de48f02b2ecb57017ce6ff24d25e845f7a55317beb472e08cffcc27223b66702202ab40b61f012514b49c3f32de85e5613b3b6be89667dccbf66b9802b2ff446bb012103aa2548b09495591c84e94f0a8bc8ae39de81a41bb5ba7373dbf9f8e53f301ee6ffffffff02672826000000000017a914a1a664b9ffa56e01297c9e79a6b5bf92fe4827dd873b48730e000000001976a914d7181929d9689185760a7a61b504ce2d0c9d2c0288ac00000000", "vin": [{"sequence": 4294967295, "scriptSig": {"hex": "483045022100b6de48f02b2ecb57017ce6ff24d25e845f7a55317beb472e08cffcc27223b66702202ab40b61f012514b49c3f32de85e5613b3b6be89667dccbf66b9802b2ff446bb012103aa2548b09495591c84e94f0a8bc8ae39de81a41bb5ba7373dbf9f8e53f301ee6", "asm": "3045022100b6de48f02b2ecb57017ce6ff24d25e845f7a55317beb472e08cffcc27223b66702202ab40b61f012514b49c3f32de85e5613b3b6be89667dccbf66b9802b2ff446bb[ALL] 03aa2548b09495591c84e94f0a8bc8ae39de81a41bb5ba7373dbf9f8e53f301ee6"}, "vout": 1, "txid": "cd6c34d4f5f1acd0a0e349d3c1c80ac0091142f7f6a97e0bc617801028e00324"}], "txid": "39796e6a0e2d74023b1814ae6dd761438ad03b089e19f5ad10bf00c6103a9653", "blocktime": 1537872018, "version": 1, "confirmations": 11489, "time": 1537872018, "locktime": 0, "vsize": 224, "size": 224}