{"hash": "397caed23717296497fd25f794020a9e7e877d13c6788d6a2695f71683fa8ff1", "blockhash": "000000000000000000022b45ed06c6f4ccd3cf7fb5ba4856ebd2e58215665228", "vout": [{"scriptPubKey": {"reqSigs": 1, "hex": "a9149d9ca8b8019150df32033582cfab1edc45bc700887", "addresses": ["3G4PgXJad1d5PXxgc3vQ9HYkEqNJTEMK7j"], "asm": "OP_HASH160 9d9ca8b8019150df32033582cfab1edc45bc7008 OP_EQUAL", "type": "scripthash"}, "value": 0.00452841, "n": 0}], "hex": "0100000004d8fe863e077e9f240b328e3fcd21466d1dcd8c0e6e90bd06f0aa0d0048656304010000006a473044022016da26129ecb1ca4d821a53f8cd1109c5efcef0de92f3ce79d6ef60e54c4d0b2022053302c17074a447f65b9ef33379383791dfdb00c1af8f83f8dd22f110c736b03012102ccd58d26f93cc53141af89db495e3ab2b2d7a19c0557e4b134d280e226337d0bffffffffb042c1a6c464cf124d647c7118df9f01507bafbf5e74e21e993b18d641fd6001010000006b483045022100a163e43dee2b50b3c37f08bcb5a45e291de790c9919a2cfb195683c4864af045022038de8ff36fd667a28af7ec09f67efdbca46aae68c9a86d8e401869a6bb1939f9012103a624df3aeba4d46f7890056d7952fd4d8032abdb07f7390e60b03d3f3e4a2164ffffffff1dac784a3c3be857788e5c9824013292ee95b391327269153ef78b7cecd74b2c000000006a473044022054bbfeba7f884fc66d866526657dae4663517defb523d2ee3e82b3fc4d6bd6d702207baa4214f0f2e65712fee87f8143424d16fb8974c37d05e43964e0a725ee7229012103e20e0aacce227837615619bcb632568dd9af0fee19b4e9182182f034d0f58717ffffffffb4605218af7da0fd189badfbb100b7eb68697ad8a1098f95919ca36797f4e604000000006b483045022100e0778bb6d63a0ef19052e8ce457182ae0aa15b6dc61ab6d6e8dbdade81c5911f02204c58d34950683f887fea649d033f20e8bd8eef82d49f452cb551db5cdc83689d012103180b1f85bb5e5951cb591114421d1aa024f3faf556be91d06ce863b3ac6b865cffffffff01e9e806000000000017a9149d9ca8b8019150df32033582cfab1edc45bc70088700000000", "vin": [{"sequence": 4294967295, "scriptSig": {"hex": "473044022016da26129ecb1ca4d821a53f8cd1109c5efcef0de92f3ce79d6ef60e54c4d0b2022053302c17074a447f65b9ef33379383791dfdb00c1af8f83f8dd22f110c736b03012102ccd58d26f93cc53141af89db495e3ab2b2d7a19c0557e4b134d280e226337d0b", "asm": "3044022016da26129ecb1ca4d821a53f8cd1109c5efcef0de92f3ce79d6ef60e54c4d0b2022053302c17074a447f65b9ef33379383791dfdb00c1af8f83f8dd22f110c736b03[ALL] 02ccd58d26f93cc53141af89db495e3ab2b2d7a19c0557e4b134d280e226337d0b"}, "vout": 1, "txid": "04636548000daaf006bd906e0e8ccd1d6d4621cd3f8e320b249f7e073e86fed8"}, {"sequence": 4294967295, "scriptSig": {"hex": "483045022100a163e43dee2b50b3c37f08bcb5a45e291de790c9919a2cfb195683c4864af045022038de8ff36fd667a28af7ec09f67efdbca46aae68c9a86d8e401869a6bb1939f9012103a624df3aeba4d46f7890056d7952fd4d8032abdb07f7390e60b03d3f3e4a2164", "asm": "3045022100a163e43dee2b50b3c37f08bcb5a45e291de790c9919a2cfb195683c4864af045022038de8ff36fd667a28af7ec09f67efdbca46aae68c9a86d8e401869a6bb1939f9[ALL] 03a624df3aeba4d46f7890056d7952fd4d8032abdb07f7390e60b03d3f3e4a2164"}, "vout": 1, "txid": "0160fd41d6183b991ee2745ebfaf7b50019fdf18717c644d12cf64c4a6c142b0"}, {"sequence": 4294967295, "scriptSig": {"hex": "473044022054bbfeba7f884fc66d866526657dae4663517defb523d2ee3e82b3fc4d6bd6d702207baa4214f0f2e65712fee87f8143424d16fb8974c37d05e43964e0a725ee7229012103e20e0aacce227837615619bcb632568dd9af0fee19b4e9182182f034d0f58717", "asm": "3044022054bbfeba7f884fc66d866526657dae4663517defb523d2ee3e82b3fc4d6bd6d702207baa4214f0f2e65712fee87f8143424d16fb8974c37d05e43964e0a725ee7229[ALL] 03e20e0aacce227837615619bcb632568dd9af0fee19b4e9182182f034d0f58717"}, "vout": 0, "txid": "2c4bd7ec7c8bf73e1569723291b395ee92320124985c8e7857e83b3c4a78ac1d"}, {"sequence": 4294967295, "scriptSig": {"hex": "483045022100e0778bb6d63a0ef19052e8ce457182ae0aa15b6dc61ab6d6e8dbdade81c5911f02204c58d34950683f887fea649d033f20e8bd8eef82d49f452cb551db5cdc83689d012103180b1f85bb5e5951cb591114421d1aa024f3faf556be91d06ce863b3ac6b865c", "asm": "3045022100e0778bb6d63a0ef19052e8ce457182ae0aa15b6dc61ab6d6e8dbdade81c5911f02204c58d34950683f887fea649d033f20e8bd8eef82d49f452cb551db5cdc83689d[ALL] 03180b1f85bb5e5951cb591114421d1aa024f3faf556be91d06ce863b3ac6b865c"}, "vout": 0, "txid": "04e6f49767a39c91958f09a1d87a6968ebb700b1fbad9b18fda07daf185260b4"}], "txid": "397caed23717296497fd25f794020a9e7e877d13c6788d6a2695f71683fa8ff1", "blocktime": 1537869901, "version": 1, "confirmations": 11522, "time": 1537869901, "locktime": 0, "vsize": 632, "size": 632}