{"hash": "397fd2b09302511e9067e4ecaaa248323e6363d0b6d6b2b7fc78833127ef21a2", "blockhash": "0000000000000000001f0ddff1eddb255c1121bcd4da4f1bc9a0da00cae72433", "vout": [{"scriptPubKey": {"reqSigs": 1, "hex": "76a91457e648f2981e26e92939b45d5a18f9ce0e7b3bd488ac", "addresses": ["191mfAkpLdfiAec3bX6BFcVH1Ji21wFr37"], "asm": "OP_DUP OP_HASH160 57e648f2981e26e92939b45d5a18f9ce0e7b3bd4 OP_EQUALVERIFY OP_CHECKSIG", "type": "pubkeyhash"}, "value": 0.06330955, "n": 0}, {"scriptPubKey": {"reqSigs": 1, "hex": "76a914908aded8632229ddf0b97a88bbfe57a73e4f48ce88ac", "addresses": ["1EBGfWqDifvxq8JbL83Hs5zEdrNWBPWimf"], "asm": "OP_DUP OP_HASH160 908aded8632229ddf0b97a88bbfe57a73e4f48ce OP_EQUALVERIFY OP_CHECKSIG", "type": "pubkeyhash"}, "value": 0.09460805, "n": 1}], "hex": "0100000001d598ec54e1c1eb018bf6c168d35af4572bded4571381c6995d93ac72e9311a33010000006a47304402200a1e456b80ed1a84ace2b24b726c520b7d10ef8c2ac65c7d24a563bc213f06ec02203dcc5e8dc29e2a9f0fdeaeb82e23f9c00dd61a28c1f75a34a4dd8901ea8232a2012103aa31a7b51063a167f480cde9d6b88805463f7a18c3401090034f993937ec4046fdffffff024b9a6000000000001976a91457e648f2981e26e92939b45d5a18f9ce0e7b3bd488ac455c9000000000001976a914908aded8632229ddf0b97a88bbfe57a73e4f48ce88ac11490800", "vin": [{"sequence": 4294967293, "scriptSig": {"hex": "47304402200a1e456b80ed1a84ace2b24b726c520b7d10ef8c2ac65c7d24a563bc213f06ec02203dcc5e8dc29e2a9f0fdeaeb82e23f9c00dd61a28c1f75a34a4dd8901ea8232a2012103aa31a7b51063a167f480cde9d6b88805463f7a18c3401090034f993937ec4046", "asm": "304402200a1e456b80ed1a84ace2b24b726c520b7d10ef8c2ac65c7d24a563bc213f06ec02203dcc5e8dc29e2a9f0fdeaeb82e23f9c00dd61a28c1f75a34a4dd8901ea8232a2[ALL] 03aa31a7b51063a167f480cde9d6b88805463f7a18c3401090034f993937ec4046"}, "vout": 1, "txid": "331a31e972ac935d99c6811357d4de2b57f45ad368c1f68b01ebc1e154ec98d5"}], "txid": "397fd2b09302511e9067e4ecaaa248323e6363d0b6d6b2b7fc78833127ef21a2", "blocktime": 1537872018, "version": 1, "confirmations": 11489, "time": 1537872018, "locktime": 542993, "vsize": 225, "size": 225}