{"hash": "398a5f55907de334ab82d21469d8ad1229ea00deb948c19b5aebcbafe7165c4f", "blockhash": "0000000000000000001cda96e906b7601b7a6fb1a3b62bca570a9e5d8f4b3de1", "vout": [{"scriptPubKey": {"reqSigs": 1, "hex": "a914cd6a942ca04d31f9945783ecfdd0fcb5480c0fa287", "addresses": ["3LRA86RJm8WvAjVKgGJaa1mzN64dUzJTnJ"], "asm": "OP_HASH160 cd6a942ca04d31f9945783ecfdd0fcb5480c0fa2 OP_EQUAL", "type": "scripthash"}, "value": 0.05572037, "n": 0}, {"scriptPubKey": {"reqSigs": 1, "hex": "a9149271e66d0c78c8c58890eae9b3f27836b27ab0f687", "addresses": ["3F3M2U9F5ozehPzDxuhn5jBidJVq7V9Xys"], "asm": "OP_HASH160 9271e66d0c78c8c58890eae9b3f27836b27ab0f6 OP_EQUAL", "type": "scripthash"}, "value": 0.03078301, "n": 1}, {"scriptPubKey": {"reqSigs": 1, "hex": "76a9141b9a19288fc46d04ec02b72fc3718bc7da717b6588ac", "addresses": ["13Wwr7gpZeSxq1ToVFNaLuWN99pR7HPWeT"], "asm": "OP_DUP OP_HASH160 1b9a19288fc46d04ec02b72fc3718bc7da717b65 OP_EQUALVERIFY OP_CHECKSIG", "type": "pubkeyhash"}, "value": 0.00025141, "n": 2}], "hex": "010000000390f80b10f39b329819923d6950f2ef3b1d2d29cf4a03ac5678627320e860a3b600000000da0047304402200dea3d61d95f7ad48e66d48c7c3a6a36db2c2b31ab81b63415f2d967685e45c402207787ae4ef21dd06eb168e8527856b6f27453373970e57c5df63de661814ebe2b01483045022100b20413d7ff7fc83194d8a53bcca724afcc122b8e114d1f0a8a5ead56474b53c002203986ad4eed657acba44b10d01af3c7cb6227ef465af77160def96292c59617930147522102907a54bed8ad74b3f35638c60114ca240a308cb986f3f2f306178869a8880b6121032f88b5a28cf1035e142c8ce66a7033d064ebb1c9b84987cac672d008f047351f52aeffffffff119c6366215e4d431fc7ba9883cd3b717c600876756f5bb4591caf7bd7f20f2700000000da00483045022100eb1ef67da39129dd897da224f90c29054de0725d99a64da24ff11746b6d0b4ec0220494d9319258cd614b1ec689a67086735d05d4672252c25e37fc7e0e959f4c48501473044022024533e3cf760ca747a92647a43d61b9d2b545e19ff04d365f44f351d6d6d4f6a022013aba0d634873b13dce3a53423b31dc1b4525b352db8b4c1c4284fd3d3d9b5e10147522102907a54bed8ad74b3f35638c60114ca240a308cb986f3f2f306178869a8880b612103ba7b0b5b63dd42ccdec8e8a2d579c20f646eb729d3eb87daa8c083092fa4f72952aeffffffff3660fb692a00fdecc0a44b8e73f4d123d7ba3a132cc5b084eeed35775a303ec3010000006a47304402201b7fb89aa0320c8532b50bb83fc9549957ceea1e87b2907c449fb51abba855d7022015f50e1c78300c9cc7e349380ad108dc276fa95f3a764aa200b78b8a4c40d69a0121034e765f5e1f21b7630e753ec7bf1e1be30564b2f7c941b1f9c74a72db59f55b41ffffffff03c50555000000000017a914cd6a942ca04d31f9945783ecfdd0fcb5480c0fa2879df82e000000000017a9149271e66d0c78c8c58890eae9b3f27836b27ab0f68735620000000000001976a9141b9a19288fc46d04ec02b72fc3718bc7da717b6588ac00000000", "vin": [{"sequence": 4294967295, "scriptSig": {"hex": "0047304402200dea3d61d95f7ad48e66d48c7c3a6a36db2c2b31ab81b63415f2d967685e45c402207787ae4ef21dd06eb168e8527856b6f27453373970e57c5df63de661814ebe2b01483045022100b20413d7ff7fc83194d8a53bcca724afcc122b8e114d1f0a8a5ead56474b53c002203986ad4eed657acba44b10d01af3c7cb6227ef465af77160def96292c59617930147522102907a54bed8ad74b3f35638c60114ca240a308cb986f3f2f306178869a8880b6121032f88b5a28cf1035e142c8ce66a7033d064ebb1c9b84987cac672d008f047351f52ae", "asm": "0 304402200dea3d61d95f7ad48e66d48c7c3a6a36db2c2b31ab81b63415f2d967685e45c402207787ae4ef21dd06eb168e8527856b6f27453373970e57c5df63de661814ebe2b[ALL] 3045022100b20413d7ff7fc83194d8a53bcca724afcc122b8e114d1f0a8a5ead56474b53c002203986ad4eed657acba44b10d01af3c7cb6227ef465af77160def96292c5961793[ALL] 522102907a54bed8ad74b3f35638c60114ca240a308cb986f3f2f306178869a8880b6121032f88b5a28cf1035e142c8ce66a7033d064ebb1c9b84987cac672d008f047351f52ae"}, "vout": 0, "txid": "b6a360e82073627856ac034acf292d1d3beff250693d921998329bf3100bf890"}, {"sequence": 4294967295, "scriptSig": {"hex": "00483045022100eb1ef67da39129dd897da224f90c29054de0725d99a64da24ff11746b6d0b4ec0220494d9319258cd614b1ec689a67086735d05d4672252c25e37fc7e0e959f4c48501473044022024533e3cf760ca747a92647a43d61b9d2b545e19ff04d365f44f351d6d6d4f6a022013aba0d634873b13dce3a53423b31dc1b4525b352db8b4c1c4284fd3d3d9b5e10147522102907a54bed8ad74b3f35638c60114ca240a308cb986f3f2f306178869a8880b612103ba7b0b5b63dd42ccdec8e8a2d579c20f646eb729d3eb87daa8c083092fa4f72952ae", "asm": "0 3045022100eb1ef67da39129dd897da224f90c29054de0725d99a64da24ff11746b6d0b4ec0220494d9319258cd614b1ec689a67086735d05d4672252c25e37fc7e0e959f4c485[ALL] 3044022024533e3cf760ca747a92647a43d61b9d2b545e19ff04d365f44f351d6d6d4f6a022013aba0d634873b13dce3a53423b31dc1b4525b352db8b4c1c4284fd3d3d9b5e1[ALL] 522102907a54bed8ad74b3f35638c60114ca240a308cb986f3f2f306178869a8880b612103ba7b0b5b63dd42ccdec8e8a2d579c20f646eb729d3eb87daa8c083092fa4f72952ae"}, "vout": 0, "txid": "270ff2d77baf1c59b45b6f757608607c713bcd8398bac71f434d5e2166639c11"}, {"sequence": 4294967295, "scriptSig": {"hex": "47304402201b7fb89aa0320c8532b50bb83fc9549957ceea1e87b2907c449fb51abba855d7022015f50e1c78300c9cc7e349380ad108dc276fa95f3a764aa200b78b8a4c40d69a0121034e765f5e1f21b7630e753ec7bf1e1be30564b2f7c941b1f9c74a72db59f55b41", "asm": "304402201b7fb89aa0320c8532b50bb83fc9549957ceea1e87b2907c449fb51abba855d7022015f50e1c78300c9cc7e349380ad108dc276fa95f3a764aa200b78b8a4c40d69a[ALL] 034e765f5e1f21b7630e753ec7bf1e1be30564b2f7c941b1f9c74a72db59f55b41"}, "vout": 1, "txid": "c33e305a7735edee84b0c52c133abad723d1f4738e4ba4c0ecfd002a69fb6036"}], "txid": "398a5f55907de334ab82d21469d8ad1229ea00deb948c19b5aebcbafe7165c4f", "blocktime": 1537873282, "version": 1, "confirmations": 11484, "time": 1537873282, "locktime": 0, "vsize": 773, "size": 773}