{"hash": "398b4cfcc982ccb1a7b59ffdabc5f3a86b501efb8d7dba76ca5ec0c7572bbe35", "blockhash": "0000000000000000001cda96e906b7601b7a6fb1a3b62bca570a9e5d8f4b3de1", "vout": [{"scriptPubKey": {"reqSigs": 1, "hex": "76a914fb60236e2dfdb52156c770b3800adda2058163b988ac", "addresses": ["1Pv9mxq5qqYVMv7RUynns4U2u6HBtP8VvU"], "asm": "OP_DUP OP_HASH160 fb60236e2dfdb52156c770b3800adda2058163b9 OP_EQUALVERIFY OP_CHECKSIG", "type": "pubkeyhash"}, "value": 0.00355413, "n": 0}, {"scriptPubKey": {"reqSigs": 1, "hex": "76a914618abefd250064424571b531f2f9d1efbd76b45288ac", "addresses": ["19tkkrRYE5AyyiuvTbkgV1oiZSCdCJ2k7F"], "asm": "OP_DUP OP_HASH160 618abefd250064424571b531f2f9d1efbd76b452 OP_EQUALVERIFY OP_CHECKSIG", "type": "pubkeyhash"}, "value": 0.01561219, "n": 1}], "hex": "01000000023e7677f049caaca71a7a109d4ec9975a87e289fffc4b9f5b8b62383054bf8163000000006a473044022015fe4dd4155df115014ae240bc9d537733754f074306d2a054d538b7689aa2b9022050d895bec0a0dace94f8cff2ccb46e2d627354e14c1ea9ae997a9f14d7af3a43012102338f71c95ac7f69f380e226ce06eaf0cd243b0b797c25e48f3f582da76e83909ffffffff87d26723566cadbe8b3b347b4c01b68e5e0e4b9110cec71a28b804690731827c000000006a4730440220057b6250d336858c149bffd63b6b7d74b99acce85953ab1e49b85d7b1b5745e2022064dddcdbf702598d3603123d6175258e0e97f499d436eb36b766eaa138790b08012102c424280fd4f299f5a69b6d4ce09e0ccd171677b5cacca71010cac283d3ee7b12ffffffff02556c0500000000001976a914fb60236e2dfdb52156c770b3800adda2058163b988ac83d21700000000001976a914618abefd250064424571b531f2f9d1efbd76b45288ac00000000", "vin": [{"sequence": 4294967295, "scriptSig": {"hex": "473044022015fe4dd4155df115014ae240bc9d537733754f074306d2a054d538b7689aa2b9022050d895bec0a0dace94f8cff2ccb46e2d627354e14c1ea9ae997a9f14d7af3a43012102338f71c95ac7f69f380e226ce06eaf0cd243b0b797c25e48f3f582da76e83909", "asm": "3044022015fe4dd4155df115014ae240bc9d537733754f074306d2a054d538b7689aa2b9022050d895bec0a0dace94f8cff2ccb46e2d627354e14c1ea9ae997a9f14d7af3a43[ALL] 02338f71c95ac7f69f380e226ce06eaf0cd243b0b797c25e48f3f582da76e83909"}, "vout": 0, "txid": "6381bf543038628b5b9f4bfcff89e2875a97c94e9d107a1aa7acca49f077763e"}, {"sequence": 4294967295, "scriptSig": {"hex": "4730440220057b6250d336858c149bffd63b6b7d74b99acce85953ab1e49b85d7b1b5745e2022064dddcdbf702598d3603123d6175258e0e97f499d436eb36b766eaa138790b08012102c424280fd4f299f5a69b6d4ce09e0ccd171677b5cacca71010cac283d3ee7b12", "asm": "30440220057b6250d336858c149bffd63b6b7d74b99acce85953ab1e49b85d7b1b5745e2022064dddcdbf702598d3603123d6175258e0e97f499d436eb36b766eaa138790b08[ALL] 02c424280fd4f299f5a69b6d4ce09e0ccd171677b5cacca71010cac283d3ee7b12"}, "vout": 0, "txid": "7c8231076904b8281ac7ce10914b0e5e8eb6014c7b343b8bbead6c562367d287"}], "txid": "398b4cfcc982ccb1a7b59ffdabc5f3a86b501efb8d7dba76ca5ec0c7572bbe35", "blocktime": 1537873282, "version": 1, "confirmations": 11485, "time": 1537873282, "locktime": 0, "vsize": 372, "size": 372}