{"hash": "3991d951037fa7cc0bfa5e7f2cd7657d2bc757a3ce2dcf4925d6807eff038d8d", "blockhash": "000000000000000000022b45ed06c6f4ccd3cf7fb5ba4856ebd2e58215665228", "vout": [{"scriptPubKey": {"type": "nulldata", "hex": "6a146f6d6e69000000000000001f00000045d964b800", "asm": "OP_RETURN 6f6d6e69000000000000001f00000045d964b800"}, "value": 0.0, "n": 0}, {"scriptPubKey": {"reqSigs": 1, "hex": "76a9145fdc2cfdfe18264c653987aade23523b9ab4b78388ac", "addresses": ["19jrxJb62LpABPgzmude52cK5nkX3TgKzY"], "asm": "OP_DUP OP_HASH160 5fdc2cfdfe18264c653987aade23523b9ab4b783 OP_EQUALVERIFY OP_CHECKSIG", "type": "pubkeyhash"}, "value": 0.00716347, "n": 1}, {"scriptPubKey": {"reqSigs": 1, "hex": "76a914a25dec4d0011064ef106a983c39c7a540699f22088ac", "addresses": ["1FoWyxwPXuj4C6abqwhjDWdz6D4PZgYRjA"], "asm": "OP_DUP OP_HASH160 a25dec4d0011064ef106a983c39c7a540699f220 OP_EQUALVERIFY OP_CHECKSIG", "type": "pubkeyhash"}, "value": 5.46e-06, "n": 2}], "hex": "010000000111e1bb346cb331cf9498bb62a5a1a9d53d5d8c51094e1226a4a73b029f811e35020000006b483045022100ef5641ef554be667cac707832ef59608d6c24e292312ecd1562c818f7457195602204b02e0e76346ac62671190c580888b2482d4dcae95562c684a1533c871ee863c01210395ab3e8e1bf45ae01dac1abbfc68781f949d00bdeaf8d2062f4cb00c663a0051feffffff030000000000000000166a146f6d6e69000000000000001f00000045d964b8003bee0a00000000001976a9145fdc2cfdfe18264c653987aade23523b9ab4b78388ac22020000000000001976a914a25dec4d0011064ef106a983c39c7a540699f22088ac0b490800", "vin": [{"sequence": 4294967294, "scriptSig": {"hex": "483045022100ef5641ef554be667cac707832ef59608d6c24e292312ecd1562c818f7457195602204b02e0e76346ac62671190c580888b2482d4dcae95562c684a1533c871ee863c01210395ab3e8e1bf45ae01dac1abbfc68781f949d00bdeaf8d2062f4cb00c663a0051", "asm": "3045022100ef5641ef554be667cac707832ef59608d6c24e292312ecd1562c818f7457195602204b02e0e76346ac62671190c580888b2482d4dcae95562c684a1533c871ee863c[ALL] 0395ab3e8e1bf45ae01dac1abbfc68781f949d00bdeaf8d2062f4cb00c663a0051"}, "vout": 2, "txid": "351e819f023ba7a426124e09518c5d3dd5a9a1a562bb9894cf31b36c34bbe111"}], "txid": "3991d951037fa7cc0bfa5e7f2cd7657d2bc757a3ce2dcf4925d6807eff038d8d", "blocktime": 1537869901, "version": 1, "confirmations": 11524, "time": 1537869901, "locktime": 542987, "vsize": 257, "size": 257}