{"hash": "3992b57996a0ed77739af31aa58354271017ca7c2ff69066626bea35c282524c", "blockhash": "0000000000000000001f76057863aec43deb6fa401d9628bb513d65a8098bfab", "vout": [{"scriptPubKey": {"reqSigs": 1, "hex": "76a91437a2c3d26918c92b932efcb0979a318f5ce9154888ac", "addresses": ["165B9f4YkdypxPiTApertSyqfoTJ393fm7"], "asm": "OP_DUP OP_HASH160 37a2c3d26918c92b932efcb0979a318f5ce91548 OP_EQUALVERIFY OP_CHECKSIG", "type": "pubkeyhash"}, "value": 0.01741529, "n": 0}, {"scriptPubKey": {"reqSigs": 1, "hex": "76a91404804e0773fa686554b392f4e01180294d07601f88ac", "addresses": ["1QoQYPb5JiKyeK2jj47Rv9YTRGn6FVFCX"], "asm": "OP_DUP OP_HASH160 04804e0773fa686554b392f4e01180294d07601f OP_EQUALVERIFY OP_CHECKSIG", "type": "pubkeyhash"}, "value": 1.88157701, "n": 1}], "hex": "010000000146cc4f4560d3262820b66ec9f15c53b054624dffcfd84bc1a3c256150b9d41b7010000006a47304402206def14d33db1d4a83b42c633193c2bcf5b3e5bde1344179c63b02c0876fba6a9022065ce3a0a0fc1ee238822fc5f224898d736308a52c8c5432afed65b45ecc81ccd012102355ec030075ff36cd91b814894ce05a2ca712f97366a0713ffb58ca01059bb88ffffffff02d9921a00000000001976a91437a2c3d26918c92b932efcb0979a318f5ce9154888ac050f370b000000001976a91404804e0773fa686554b392f4e01180294d07601f88ac00000000", "vin": [{"sequence": 4294967295, "scriptSig": {"hex": "47304402206def14d33db1d4a83b42c633193c2bcf5b3e5bde1344179c63b02c0876fba6a9022065ce3a0a0fc1ee238822fc5f224898d736308a52c8c5432afed65b45ecc81ccd012102355ec030075ff36cd91b814894ce05a2ca712f97366a0713ffb58ca01059bb88", "asm": "304402206def14d33db1d4a83b42c633193c2bcf5b3e5bde1344179c63b02c0876fba6a9022065ce3a0a0fc1ee238822fc5f224898d736308a52c8c5432afed65b45ecc81ccd[ALL] 02355ec030075ff36cd91b814894ce05a2ca712f97366a0713ffb58ca01059bb88"}, "vout": 1, "txid": "b7419d0b1556c2a3c14bd8cfff4d6254b0535cf1c96eb6202826d360454fcc46"}], "txid": "3992b57996a0ed77739af31aa58354271017ca7c2ff69066626bea35c282524c", "blocktime": 1537873891, "version": 1, "confirmations": 11474, "time": 1537873891, "locktime": 0, "vsize": 225, "size": 225}