{"hash": "399432dd78eed1da1261520168aaf889b362faef019ec5c87e88c010a5fe9c23", "blockhash": "0000000000000000001e0dab787dd257d1dbfcb92a98c2207d5e1078be1f4165", "vout": [{"scriptPubKey": {"reqSigs": 1, "hex": "76a91438799150389120172781c2ded79750a71639598688ac", "addresses": ["169cUQkgsdW8XNpzcMWh4APGAzwiZRX7HF"], "asm": "OP_DUP OP_HASH160 38799150389120172781c2ded79750a716395986 OP_EQUALVERIFY OP_CHECKSIG", "type": "pubkeyhash"}, "value": 0.05916051, "n": 0}, {"scriptPubKey": {"reqSigs": 1, "hex": "76a914d690a6133ee5f9d88d6ac24944d5c83d5265a2a088ac", "addresses": ["1LZWtRTkiNgUUH1GDgmJdPb1cGZx6avZtA"], "asm": "OP_DUP OP_HASH160 d690a6133ee5f9d88d6ac24944d5c83d5265a2a0 OP_EQUALVERIFY OP_CHECKSIG", "type": "pubkeyhash"}, "value": 0.38422154, "n": 1}], "hex": "0100000001fbb8509e5a32d047dbd82ee0a964c3cf9f46dd097c257ef2e27bd6f66bc25353010000006b483045022100fd7ff1a23b9eb46b5afcebeca8196a5398f451c68541d3b997a30d9195e65e34022023047508c6e8accae042a059f16a298713f0e38203f06cc6d025268dac64d501012103ade4f8aba1277bdba1e0a70b344b12cc27daec13841b025afa9321f7c8847928ffffffff0293455a00000000001976a91438799150389120172781c2ded79750a71639598688ac8a464a02000000001976a914d690a6133ee5f9d88d6ac24944d5c83d5265a2a088ac00000000", "vin": [{"sequence": 4294967295, "scriptSig": {"hex": "483045022100fd7ff1a23b9eb46b5afcebeca8196a5398f451c68541d3b997a30d9195e65e34022023047508c6e8accae042a059f16a298713f0e38203f06cc6d025268dac64d501012103ade4f8aba1277bdba1e0a70b344b12cc27daec13841b025afa9321f7c8847928", "asm": "3045022100fd7ff1a23b9eb46b5afcebeca8196a5398f451c68541d3b997a30d9195e65e34022023047508c6e8accae042a059f16a298713f0e38203f06cc6d025268dac64d501[ALL] 03ade4f8aba1277bdba1e0a70b344b12cc27daec13841b025afa9321f7c8847928"}, "vout": 1, "txid": "5353c26bf6d67be2f27e257c09dd469fcfc364a9e02ed8db47d0325a9e50b8fb"}], "txid": "399432dd78eed1da1261520168aaf889b362faef019ec5c87e88c010a5fe9c23", "blocktime": 1537872475, "version": 1, "confirmations": 11487, "time": 1537872475, "locktime": 0, "vsize": 226, "size": 226}