{"hash": "39942ba3dc298871946f337e6f19f87dd4bd13962bf7bb1c9b207f777a4bcf80", "blockhash": "00000000000000000017f5eb5941039fbcee6240d03bc1f2f8e35350df66a1d8", "vout": [{"scriptPubKey": {"reqSigs": 1, "hex": "76a914194ba3df03678ce76cfdb38b263e993e5fa9d4d388ac", "addresses": ["13JkWN5yxDu9j2W3yjb9A2ezHWucshgVsR"], "asm": "OP_DUP OP_HASH160 194ba3df03678ce76cfdb38b263e993e5fa9d4d3 OP_EQUALVERIFY OP_CHECKSIG", "type": "pubkeyhash"}, "value": 0.00097804, "n": 0}, {"scriptPubKey": {"reqSigs": 1, "hex": "a914151c7a93b72b26a34ad798c8a1e75987f190607887", "addresses": ["33ceEKE5gQV7GXTANU5NCMX3V1R2AVQ4ZA"], "asm": "OP_HASH160 151c7a93b72b26a34ad798c8a1e75987f1906078 OP_EQUAL", "type": "scripthash"}, "value": 0.02, "n": 1}, {"scriptPubKey": {"reqSigs": 1, "hex": "a91418ef3b7ceb5323583f0a255a6d7c671508caf58587", "addresses": ["33xrjJcaQ3VK4v6XyoKQcYce8rdQ3UFprr"], "asm": "OP_HASH160 18ef3b7ceb5323583f0a255a6d7c671508caf585 OP_EQUAL", "type": "scripthash"}, "value": 0.0001266, "n": 2}, {"scriptPubKey": {"reqSigs": 1, "hex": "76a9144b85bb375b3f92c9bbab39c44d0a5c1bc75aa6fe88ac", "addresses": ["17tKtChyLKEqRF48t8bPARje3bnCg3yoyX"], "asm": "OP_DUP OP_HASH160 4b85bb375b3f92c9bbab39c44d0a5c1bc75aa6fe OP_EQUALVERIFY OP_CHECKSIG", "type": "pubkeyhash"}, "value": 0.00997326, "n": 3}, {"scriptPubKey": {"reqSigs": 1, "hex": "76a914d339252804b163d7de28477ad5893751e4fda30c88ac", "addresses": ["1LFr2zSKLfXTRbwdJoz22EBihV2WPBDCrC"], "asm": "OP_DUP OP_HASH160 d339252804b163d7de28477ad5893751e4fda30c OP_EQUALVERIFY OP_CHECKSIG", "type": "pubkeyhash"}, "value": 0.00170248, "n": 4}, {"scriptPubKey": {"reqSigs": 1, "hex": "76a914235176ee123e9ef22fef548360e0f2610e90b7b488ac", "addresses": ["14DkEyMa1WVa3oqzzHm6w3uo8gY64pW1Ey"], "asm": "OP_DUP OP_HASH160 235176ee123e9ef22fef548360e0f2610e90b7b4 OP_EQUALVERIFY OP_CHECKSIG", "type": "pubkeyhash"}, "value": 0.0004, "n": 5}], "hex": "0200000004525dfabfe2af18a9bf302fd1f0018e2e130f3a38198da1c6e4efb2654eb25405230500006b48304502210090ffca1a28ccc0ec90d8b3281aeb513cff165b33adf6a72d6d950b08eeaa2a8a022075f49f3c009b5ec5d3e61c509ab19cf5623bbd88ca32ed8ffc41f10443caacfc0121027a5f0018745435295d823f63b49dd4d6e01aff137ad80cb3e99560fa8bec45b8feffffff5f960c2786ede04dc18b0b6061b3d3f7e92b199c94966fd2c1cb56894c73000b040000006a473044022022deba16f9d422e50ff99dfa5fbdf9f903e7b9c9b50d8ae20e6a6bde814ffaa6022024a37c8200b184a225b9e17e742a67dbb8b1fec6de06d0726e6135430bee3d540121034f9c7f6876bbdaac97ace721040ab7d2589e8b23be35c448bdef04fa360b5d25feffffff67336b79dafc5d84c8f9d4f5aa747a3ead9fc090d7cfd230b286941a350e655d010000006a4730440220620fe0a9c2be4bd40f720a3be9690f32b61a7333871f8180db3f55401b19c90a02204b733283a1105822055dc3ab195198562cc60e4716634eb5396ff05ef95056a8012102e9ced8c1e134a7b1c9c4743d62fc4c9e0c45c161331d6016ca04f8d03ccd7f34feffffffd48500f3f822ce5c26ed43cd83b54fd86e1bf6b8659c51c1cab3435515c37249000000006b48304502210086193e234d09d1b5b6c03461f3065291be8df2eda25cca59aa4026bbb27fdbf70220423231de0e4de2f293ced601959d8ef6a3dab608d6facce77ea2ccecf82177160121036b5a766ae116f3232a7f44c6aeec49c04642b6939cf7f11b013a0d825ba6528efeffffff060c7e0100000000001976a914194ba3df03678ce76cfdb38b263e993e5fa9d4d388ac80841e000000000017a914151c7a93b72b26a34ad798c8a1e75987f190607887743100000000000017a91418ef3b7ceb5323583f0a255a6d7c671508caf58587ce370f00000000001976a9144b85bb375b3f92c9bbab39c44d0a5c1bc75aa6fe88ac08990200000000001976a914d339252804b163d7de28477ad5893751e4fda30c88ac409c0000000000001976a914235176ee123e9ef22fef548360e0f2610e90b7b488ac15490800", "vin": [{"sequence": 4294967294, "scriptSig": {"hex": "48304502210090ffca1a28ccc0ec90d8b3281aeb513cff165b33adf6a72d6d950b08eeaa2a8a022075f49f3c009b5ec5d3e61c509ab19cf5623bbd88ca32ed8ffc41f10443caacfc0121027a5f0018745435295d823f63b49dd4d6e01aff137ad80cb3e99560fa8bec45b8", "asm": "304502210090ffca1a28ccc0ec90d8b3281aeb513cff165b33adf6a72d6d950b08eeaa2a8a022075f49f3c009b5ec5d3e61c509ab19cf5623bbd88ca32ed8ffc41f10443caacfc[ALL] 027a5f0018745435295d823f63b49dd4d6e01aff137ad80cb3e99560fa8bec45b8"}, "vout": 1315, "txid": "0554b24e65b2efe4c6a18d19383a0f132e8e01f0d12f30bfa918afe2bffa5d52"}, {"sequence": 4294967294, "scriptSig": {"hex": "473044022022deba16f9d422e50ff99dfa5fbdf9f903e7b9c9b50d8ae20e6a6bde814ffaa6022024a37c8200b184a225b9e17e742a67dbb8b1fec6de06d0726e6135430bee3d540121034f9c7f6876bbdaac97ace721040ab7d2589e8b23be35c448bdef04fa360b5d25", "asm": "3044022022deba16f9d422e50ff99dfa5fbdf9f903e7b9c9b50d8ae20e6a6bde814ffaa6022024a37c8200b184a225b9e17e742a67dbb8b1fec6de06d0726e6135430bee3d54[ALL] 034f9c7f6876bbdaac97ace721040ab7d2589e8b23be35c448bdef04fa360b5d25"}, "vout": 4, "txid": "0b00734c8956cbc1d26f96949c192be9f7d3b361600b8bc14de0ed86270c965f"}, {"sequence": 4294967294, "scriptSig": {"hex": "4730440220620fe0a9c2be4bd40f720a3be9690f32b61a7333871f8180db3f55401b19c90a02204b733283a1105822055dc3ab195198562cc60e4716634eb5396ff05ef95056a8012102e9ced8c1e134a7b1c9c4743d62fc4c9e0c45c161331d6016ca04f8d03ccd7f34", "asm": "30440220620fe0a9c2be4bd40f720a3be9690f32b61a7333871f8180db3f55401b19c90a02204b733283a1105822055dc3ab195198562cc60e4716634eb5396ff05ef95056a8[ALL] 02e9ced8c1e134a7b1c9c4743d62fc4c9e0c45c161331d6016ca04f8d03ccd7f34"}, "vout": 1, "txid": "5d650e351a9486b230d2cfd790c09fad3e7a74aaf5d4f9c8845dfcda796b3367"}, {"sequence": 4294967294, "scriptSig": {"hex": "48304502210086193e234d09d1b5b6c03461f3065291be8df2eda25cca59aa4026bbb27fdbf70220423231de0e4de2f293ced601959d8ef6a3dab608d6facce77ea2ccecf82177160121036b5a766ae116f3232a7f44c6aeec49c04642b6939cf7f11b013a0d825ba6528e", "asm": "304502210086193e234d09d1b5b6c03461f3065291be8df2eda25cca59aa4026bbb27fdbf70220423231de0e4de2f293ced601959d8ef6a3dab608d6facce77ea2ccecf8217716[ALL] 036b5a766ae116f3232a7f44c6aeec49c04642b6939cf7f11b013a0d825ba6528e"}, "vout": 0, "txid": "4972c3155543b3cac1519c65b8f61b6ed84fb583cd43ed265cce22f8f30085d4"}], "txid": "39942ba3dc298871946f337e6f19f87dd4bd13962bf7bb1c9b207f777a4bcf80", "blocktime": 1537874412, "version": 2, "confirmations": 11467, "time": 1537874412, "locktime": 542997, "vsize": 800, "size": 800}