{"hash": "3997561657c698a0ba9e16d04cd8b59bc48ce47fa0c6e74da4abde74b69d382d", "blockhash": "00000000000000000024a2167bbff67b0be802c0b01cdd79e6331c2be6459f87", "vout": [{"scriptPubKey": {"reqSigs": 1, "hex": "a914ea1e2d5f17b8c7891fe905382454f4c0a5f05cc887", "addresses": ["3P2vCBZcwfeXf14wZamXsS3S93Fy2QbyDt"], "asm": "OP_HASH160 ea1e2d5f17b8c7891fe905382454f4c0a5f05cc8 OP_EQUAL", "type": "scripthash"}, "value": 0.00252794, "n": 0}, {"scriptPubKey": {"reqSigs": 1, "hex": "76a914f2c4717623f5dc216030c61ffc993b21d9c26b6d88ac", "addresses": ["1P8drY7TgGa3mqWA6yE8LLGvj4TrL3baxa"], "asm": "OP_DUP OP_HASH160 f2c4717623f5dc216030c61ffc993b21d9c26b6d OP_EQUALVERIFY OP_CHECKSIG", "type": "pubkeyhash"}, "value": 0.00749069, "n": 1}], "hex": "01000000015b1147d618c601424d7d21edccf8fa37daa6f89aae8134cd0bf3e27359f358c00b0000008b483045022100a40788bf6bd3a179279d13f96144f48d84eafb7e8306714da38d934ab1705abb02204d2f4946e6f5b7ddd8a1085daa46b028d94cdbf1dc9513b2239771ed18072f0e014104459edb75fe39427dcec11bf2ff989f30796eecbcff162ca937a9e473e1adfe6cbb3a68c567d81341b3eeff022bf02291b1f229df04301fa8448946bf09a480b6ffffffff027adb03000000000017a914ea1e2d5f17b8c7891fe905382454f4c0a5f05cc8870d6e0b00000000001976a914f2c4717623f5dc216030c61ffc993b21d9c26b6d88ac00000000", "vin": [{"sequence": 4294967295, "scriptSig": {"hex": "483045022100a40788bf6bd3a179279d13f96144f48d84eafb7e8306714da38d934ab1705abb02204d2f4946e6f5b7ddd8a1085daa46b028d94cdbf1dc9513b2239771ed18072f0e014104459edb75fe39427dcec11bf2ff989f30796eecbcff162ca937a9e473e1adfe6cbb3a68c567d81341b3eeff022bf02291b1f229df04301fa8448946bf09a480b6", "asm": "3045022100a40788bf6bd3a179279d13f96144f48d84eafb7e8306714da38d934ab1705abb02204d2f4946e6f5b7ddd8a1085daa46b028d94cdbf1dc9513b2239771ed18072f0e[ALL] 04459edb75fe39427dcec11bf2ff989f30796eecbcff162ca937a9e473e1adfe6cbb3a68c567d81341b3eeff022bf02291b1f229df04301fa8448946bf09a480b6"}, "vout": 11, "txid": "c058f35973e2f30bcd3481ae9af8a6da37faf8cced217d4d4201c618d647115b"}], "txid": "3997561657c698a0ba9e16d04cd8b59bc48ce47fa0c6e74da4abde74b69d382d", "blocktime": 1537870564, "version": 1, "confirmations": 11515, "time": 1537870564, "locktime": 0, "vsize": 256, "size": 256}