{"hash": "399a93258ffad0ccb5fdf0130b6bc94f38b343eece647d69cbbd3cbb776b589d", "blockhash": "0000000000000000001cda96e906b7601b7a6fb1a3b62bca570a9e5d8f4b3de1", "vout": [{"scriptPubKey": {"reqSigs": 1, "hex": "a914a78735e35cf6f630f3927c2e8cbc03911b5a3edc87", "addresses": ["3GxpkAo9zb6mQrBfFESB3dVfBP7TvaZXmJ"], "asm": "OP_HASH160 a78735e35cf6f630f3927c2e8cbc03911b5a3edc OP_EQUAL", "type": "scripthash"}, "value": 0.00141484, "n": 0}, {"scriptPubKey": {"reqSigs": 1, "hex": "76a914bc37a7e7a3cb5aafcb2854ce59d97c63cd878b9988ac", "addresses": ["1JACi6wG4rzwCqnbqDhwFM4XoQVco492F1"], "asm": "OP_DUP OP_HASH160 bc37a7e7a3cb5aafcb2854ce59d97c63cd878b99 OP_EQUALVERIFY OP_CHECKSIG", "type": "pubkeyhash"}, "value": 8.452e-05, "n": 1}], "hex": "0100000002ed44af936a6007b12bc7b45ab8b57f147ba07101517ebe7dea9454db679e4a8e01000000da0047304402207ac3648b4385d0468955b14279badbc415f0e2b27b9f19b4333a2326b2dfe2c80220710b043b4b3864e98a2393d0bb69147df90c3179c77fdc5d296c3f00c638969e014830450221008328b801eed98790fcbffe6f2f92359267c841e9c245815c15a65a136158712802203af56cc47363e3cfe11218ed31d8237307c5a2d0556419bab11ff0057ba7d83b0147522102907a54bed8ad74b3f35638c60114ca240a308cb986f3f2f306178869a8880b612103327469bd574326839cef2250363255c129498a4b86d2ce1d64dc54162ba7f89452aeffffffff2db8ca914a4312720ef6f1ee617c2ce9b11440f37dfaad78196fcc38da6fb0ab020000006a4730440220113d2ce650bb0f8b627e21ed3b6989b8fb24db5ec930e0a46fa156a28455dcad022002b13e2574b546eee91dc1dd98a3f73ffae001ba894ecf198f507be6b69e411401210278a8c228c9a5cdb8227582780f7223993059d07a1f56b100c288fb293a3371abffffffff02ac2802000000000017a914a78735e35cf6f630f3927c2e8cbc03911b5a3edc8704210000000000001976a914bc37a7e7a3cb5aafcb2854ce59d97c63cd878b9988ac00000000", "vin": [{"sequence": 4294967295, "scriptSig": {"hex": "0047304402207ac3648b4385d0468955b14279badbc415f0e2b27b9f19b4333a2326b2dfe2c80220710b043b4b3864e98a2393d0bb69147df90c3179c77fdc5d296c3f00c638969e014830450221008328b801eed98790fcbffe6f2f92359267c841e9c245815c15a65a136158712802203af56cc47363e3cfe11218ed31d8237307c5a2d0556419bab11ff0057ba7d83b0147522102907a54bed8ad74b3f35638c60114ca240a308cb986f3f2f306178869a8880b612103327469bd574326839cef2250363255c129498a4b86d2ce1d64dc54162ba7f89452ae", "asm": "0 304402207ac3648b4385d0468955b14279badbc415f0e2b27b9f19b4333a2326b2dfe2c80220710b043b4b3864e98a2393d0bb69147df90c3179c77fdc5d296c3f00c638969e[ALL] 30450221008328b801eed98790fcbffe6f2f92359267c841e9c245815c15a65a136158712802203af56cc47363e3cfe11218ed31d8237307c5a2d0556419bab11ff0057ba7d83b[ALL] 522102907a54bed8ad74b3f35638c60114ca240a308cb986f3f2f306178869a8880b612103327469bd574326839cef2250363255c129498a4b86d2ce1d64dc54162ba7f89452ae"}, "vout": 1, "txid": "8e4a9e67db5494ea7dbe7e510171a07b147fb5b85ab4c72bb107606a93af44ed"}, {"sequence": 4294967295, "scriptSig": {"hex": "4730440220113d2ce650bb0f8b627e21ed3b6989b8fb24db5ec930e0a46fa156a28455dcad022002b13e2574b546eee91dc1dd98a3f73ffae001ba894ecf198f507be6b69e411401210278a8c228c9a5cdb8227582780f7223993059d07a1f56b100c288fb293a3371ab", "asm": "30440220113d2ce650bb0f8b627e21ed3b6989b8fb24db5ec930e0a46fa156a28455dcad022002b13e2574b546eee91dc1dd98a3f73ffae001ba894ecf198f507be6b69e4114[ALL] 0278a8c228c9a5cdb8227582780f7223993059d07a1f56b100c288fb293a3371ab"}, "vout": 2, "txid": "abb06fda38cc6f1978adfa7df34014b1e92c7c61eef1f60e7212434a91cab82d"}], "txid": "399a93258ffad0ccb5fdf0130b6bc94f38b343eece647d69cbbd3cbb776b589d", "blocktime": 1537873282, "version": 1, "confirmations": 11484, "time": 1537873282, "locktime": 0, "vsize": 482, "size": 482}