{"hash": "8187558bd2e9a3199451cfd3c5a2e531b37e60e7e750824ed8bd55b0c5445574", "blockhash": "0000000000000000000dcc0f55137456b1a82d3642486a52398922ac4d620174", "vout": [{"scriptPubKey": {"type": "nulldata", "hex": "6a146f6d6e69000000000000001f0000000af16b1600", "asm": "OP_RETURN 6f6d6e69000000000000001f0000000af16b1600"}, "value": 0.0, "n": 0}, {"scriptPubKey": {"reqSigs": 1, "hex": "a914e818e90b8e6b38dba66f74b35cb708bbc73e2ea787", "addresses": ["3NrEXrB9qAxXYfRt6jKtBD8QzoU2qtNWDR"], "asm": "OP_HASH160 e818e90b8e6b38dba66f74b35cb708bbc73e2ea7 OP_EQUAL", "type": "scripthash"}, "value": 2.73e-05, "n": 1}, {"scriptPubKey": {"reqSigs": 1, "hex": "a914e818e90b8e6b38dba66f74b35cb708bbc73e2ea787", "addresses": ["3NrEXrB9qAxXYfRt6jKtBD8QzoU2qtNWDR"], "asm": "OP_HASH160 e818e90b8e6b38dba66f74b35cb708bbc73e2ea7 OP_EQUAL", "type": "scripthash"}, "value": 0.14915666, "n": 2}], "hex": "01000000000102593ee2a975c955fa84fa3ed6a663d30a6314321d8c05867d0390db0bede99de1020000001716001499cc9db0d3cc015b70e66cf8c6459fb56e6d6504ffffffffb3ae1b1b3765eb994bd924e6131a7a5e1316880444ca8feca0ac56e1e864aa1d000000001716001496d89040c2986f6f5f112c6d143816d0ec12dd2cffffffff030000000000000000166a146f6d6e69000000000000001f0000000af16b1600aa0a00000000000017a914e818e90b8e6b38dba66f74b35cb708bbc73e2ea7875298e3000000000017a914e818e90b8e6b38dba66f74b35cb708bbc73e2ea7870247304402200fdbdd0926f0c9f586ceb642fc2dbaa0f5a50e62f7f9a3f4c2caa2007a33454602201c8a9e0522fce801aa200d770e4a1c8ec8e345d19c39c53ab2272bd6806b5913012103f12d74fa072bc242fbd13835b8612e58d8b74fbce6d3b9251b1c532f03deaca902473044022075ef495398ebbf16a380c3cea62385268f3ad78d76c9b3635ad3237f47e418a002201099b26b2ce4c301e626cd124d8993f522dfb7237c7d5ca076a4cf6010e814ca0121024785be9361d11a5a7453b2176141b42b2352c2010b5d47cf866c37c8a8c72e2500000000", "vin": [{"txinwitness": ["304402200fdbdd0926f0c9f586ceb642fc2dbaa0f5a50e62f7f9a3f4c2caa2007a33454602201c8a9e0522fce801aa200d770e4a1c8ec8e345d19c39c53ab2272bd6806b591301", "03f12d74fa072bc242fbd13835b8612e58d8b74fbce6d3b9251b1c532f03deaca9"], "sequence": 4294967295, "scriptSig": {"hex": "16001499cc9db0d3cc015b70e66cf8c6459fb56e6d6504", "asm": "001499cc9db0d3cc015b70e66cf8c6459fb56e6d6504"}, "vout": 2, "txid": "e19de9ed0bdb90037d86058c1d3214630ad363a6d63efa84fa55c975a9e23e59"}, {"txinwitness": ["3044022075ef495398ebbf16a380c3cea62385268f3ad78d76c9b3635ad3237f47e418a002201099b26b2ce4c301e626cd124d8993f522dfb7237c7d5ca076a4cf6010e814ca01", "024785be9361d11a5a7453b2176141b42b2352c2010b5d47cf866c37c8a8c72e25"], "sequence": 4294967295, "scriptSig": {"hex": "16001496d89040c2986f6f5f112c6d143816d0ec12dd2c", "asm": "001496d89040c2986f6f5f112c6d143816d0ec12dd2c"}, "vout": 0, "txid": "1daa64e8e156aca0ec8fca44048816135e7a1a13e624d94b99eb65371b1baeb3"}], "txid": "399e5e155f876a57e80edb31d134d70b32ef36108acfca876088dbeac6702245", "blocktime": 1537870268, "version": 1, "confirmations": 11517, "time": 1537870268, "locktime": 0, "vsize": 287, "size": 449}