{"hash": "39a2d310f7b26f0f433a8d0124df8aa5a6157f1f4647801a13afa154aafa243b", "blockhash": "0000000000000000000dcc0f55137456b1a82d3642486a52398922ac4d620174", "vout": [{"scriptPubKey": {"reqSigs": 1, "hex": "a91432117733b676accec56aacac9ce9d44cc5be5ee687", "addresses": ["36FkdfjpaRpxnsScq4j8VAbDC4JDukszoE"], "asm": "OP_HASH160 32117733b676accec56aacac9ce9d44cc5be5ee6 OP_EQUAL", "type": "scripthash"}, "value": 0.01433101, "n": 0}, {"scriptPubKey": {"reqSigs": 1, "hex": "76a9144ac6fd587eb287a5e313f27909b1bfbd26c1552f88ac", "addresses": ["17pPPEmkLN3GViPU2boTytt4q2znxqt14d"], "asm": "OP_DUP OP_HASH160 4ac6fd587eb287a5e313f27909b1bfbd26c1552f OP_EQUALVERIFY OP_CHECKSIG", "type": "pubkeyhash"}, "value": 4.27000363, "n": 1}], "hex": "010000000145d99c38b4c0109f916aa8bb2fe2d08ee9164f6cb14ca9fbb5a1aa9e7d3a97ca010000006b4830450221008f817f67870d4086a4d37c920282e9f090a5c1b1afe6157cbb48d528b2e341c4022036eb664179e33a50a3fb57f50758d64b872b0ca4cd6f84288aa2810524f06e4d0121039be08d7499edb03e4f50c48eb969103614f31acd05194a783417af420cc9b2ceffffffff020dde15000000000017a91432117733b676accec56aacac9ce9d44cc5be5ee6872b827319000000001976a9144ac6fd587eb287a5e313f27909b1bfbd26c1552f88ac00000000", "vin": [{"sequence": 4294967295, "scriptSig": {"hex": "4830450221008f817f67870d4086a4d37c920282e9f090a5c1b1afe6157cbb48d528b2e341c4022036eb664179e33a50a3fb57f50758d64b872b0ca4cd6f84288aa2810524f06e4d0121039be08d7499edb03e4f50c48eb969103614f31acd05194a783417af420cc9b2ce", "asm": "30450221008f817f67870d4086a4d37c920282e9f090a5c1b1afe6157cbb48d528b2e341c4022036eb664179e33a50a3fb57f50758d64b872b0ca4cd6f84288aa2810524f06e4d[ALL] 039be08d7499edb03e4f50c48eb969103614f31acd05194a783417af420cc9b2ce"}, "vout": 1, "txid": "ca973a7d9eaaa1b5fba94cb16c4f16e98ed0e22fbba86a919f10c0b4389cd945"}], "txid": "39a2d310f7b26f0f433a8d0124df8aa5a6157f1f4647801a13afa154aafa243b", "blocktime": 1537870268, "version": 1, "confirmations": 11518, "time": 1537870268, "locktime": 0, "vsize": 224, "size": 224}