{"hash": "4d1cf99a627077793674200debe75bffba9ce563b1897e391a35a6a62991a279", "blockhash": "0000000000000000001f0ddff1eddb255c1121bcd4da4f1bc9a0da00cae72433", "vout": [{"scriptPubKey": {"reqSigs": 1, "hex": "a914a40a4783b06aa3aa3db1af2298dc636d0e565ac087", "addresses": ["3GeP4E4FiDnNPEfWmYUqxssvLYiuT2gJaW"], "asm": "OP_HASH160 a40a4783b06aa3aa3db1af2298dc636d0e565ac0 OP_EQUAL", "type": "scripthash"}, "value": 0.00609188, "n": 0}, {"scriptPubKey": {"reqSigs": 1, "hex": "a914f6ef7496ac49cbb70dc11419b32bf5556b88e04e87", "addresses": ["3QCh1PVSLiu6vcpVyDFKRBmT8dpU4qCXcR"], "asm": "OP_HASH160 f6ef7496ac49cbb70dc11419b32bf5556b88e04e OP_EQUAL", "type": "scripthash"}, "value": 0.13273704, "n": 1}], "hex": "010000000001018d019d09bef8785ee93bcc2d4083e73b1bf12fa73849e3d62db4baf1ba808ebf00000000232200204b84b6fb916b9e180448e91ce59145710e4ba0c97a6a95a857c9abd913ae5d81ffffffff02a44b09000000000017a914a40a4783b06aa3aa3db1af2298dc636d0e565ac087688aca000000000017a914f6ef7496ac49cbb70dc11419b32bf5556b88e04e870400483045022100be4d6a2ed193e6cbce79ef76c54d9a001f5cdc9fc0d7dcecce22ce51ba7593c6022061cf6dca84c673a0d4d20d570b7fb6d584a94cc66165339aa30d838368e1d5dc0147304402201f2905001544dfebd0e38f16d4da40d47cb0d38d860f063966067e60f3b92cc302202643d16d2bda90b5fdc37aa07b611748f057e0f0b2e76dace79cbe2ec8e779e70169522102048a264d9d5a32ccaaee29a2d3b12718480ca5ffa46e5e1478d782139339a0e221035e09d872bbde6a13d84301720f3f7c78066bdaa5174bc9d75ab24384118a32652103a1cd3d47c66dd5a78c6d271ed6bbb702394df58ed886742a4c2248fb5b5599e353ae00000000", "vin": [{"txinwitness": ["", "3045022100be4d6a2ed193e6cbce79ef76c54d9a001f5cdc9fc0d7dcecce22ce51ba7593c6022061cf6dca84c673a0d4d20d570b7fb6d584a94cc66165339aa30d838368e1d5dc01", "304402201f2905001544dfebd0e38f16d4da40d47cb0d38d860f063966067e60f3b92cc302202643d16d2bda90b5fdc37aa07b611748f057e0f0b2e76dace79cbe2ec8e779e701", "522102048a264d9d5a32ccaaee29a2d3b12718480ca5ffa46e5e1478d782139339a0e221035e09d872bbde6a13d84301720f3f7c78066bdaa5174bc9d75ab24384118a32652103a1cd3d47c66dd5a78c6d271ed6bbb702394df58ed886742a4c2248fb5b5599e353ae"], "sequence": 4294967295, "scriptSig": {"hex": "2200204b84b6fb916b9e180448e91ce59145710e4ba0c97a6a95a857c9abd913ae5d81", "asm": "00204b84b6fb916b9e180448e91ce59145710e4ba0c97a6a95a857c9abd913ae5d81"}, "vout": 0, "txid": "bf8e80baf1bab42dd6e34938a72ff11b3be783402dcc3be95e78f8be099d018d"}], "txid": "39a465f7cd7be31baa2b9efc7b08dea20f44f21fbbcd8b010298e1d07be76ec1", "blocktime": 1537872018, "version": 1, "confirmations": 11489, "time": 1537872018, "locktime": 0, "vsize": 214, "size": 405}