{"hash": "39a932bc4cc6da8ed923b366f73411305fe14bdb1cd72a194eaeb8f56b98aa7f", "blockhash": "0000000000000000000baef3f32e3676a92c3b2e5da21b426e4f302fc371ce76", "vout": [{"scriptPubKey": {"type": "nulldata", "hex": "6a4c5000007819000197fd862dc4bf3f27685f40b7019d6ddc0f1b8ff117702940d64fa54d8eb25f00d07763ba5ec78371f0f691f762325baa1c94061498864af1cf561d100759d4ba30d2c37bb011d97e02cf", "asm": "OP_RETURN 00007819000197fd862dc4bf3f27685f40b7019d6ddc0f1b8ff117702940d64fa54d8eb25f00d07763ba5ec78371f0f691f762325baa1c94061498864af1cf561d100759d4ba30d2c37bb011d97e02cf"}, "value": 0.0, "n": 0}, {"scriptPubKey": {"reqSigs": 1, "hex": "76a91489d949cf51442688b28de0fd0bb1285cd1ad36e588ac", "addresses": ["1DZssjoGxG8wX4SehdEKVxsJHJMHxZProF"], "asm": "OP_DUP OP_HASH160 89d949cf51442688b28de0fd0bb1285cd1ad36e5 OP_EQUALVERIFY OP_CHECKSIG", "type": "pubkeyhash"}, "value": 0.00631622, "n": 1}], "hex": "0100000001421f0597f3dde5fb11b6d2d85ac94a997c5c7b2978355b0022a25f530761cd22010000006b483045022100ff95a28b6ac50d9619a63a53dfcb4776a1b38ca4f204d05699ccbf07ca155b31022017ca7f02dcbaeabc62aeb19c8b6097b85fbb05d36924e90982602f2f55bfe7c10121035cb6e19bd7293f2d89b66489b8c8f62369c04f213ebd9df647cbea21f6a8de6bffffffff020000000000000000536a4c5000007819000197fd862dc4bf3f27685f40b7019d6ddc0f1b8ff117702940d64fa54d8eb25f00d07763ba5ec78371f0f691f762325baa1c94061498864af1cf561d100759d4ba30d2c37bb011d97e02cf46a30900000000001976a91489d949cf51442688b28de0fd0bb1285cd1ad36e588ac00000000", "vin": [{"sequence": 4294967295, "scriptSig": {"hex": "483045022100ff95a28b6ac50d9619a63a53dfcb4776a1b38ca4f204d05699ccbf07ca155b31022017ca7f02dcbaeabc62aeb19c8b6097b85fbb05d36924e90982602f2f55bfe7c10121035cb6e19bd7293f2d89b66489b8c8f62369c04f213ebd9df647cbea21f6a8de6b", "asm": "3045022100ff95a28b6ac50d9619a63a53dfcb4776a1b38ca4f204d05699ccbf07ca155b31022017ca7f02dcbaeabc62aeb19c8b6097b85fbb05d36924e90982602f2f55bfe7c1[ALL] 035cb6e19bd7293f2d89b66489b8c8f62369c04f213ebd9df647cbea21f6a8de6b"}, "vout": 1, "txid": "22cd6107535fa222005b3578297b5c7c994ac95ad8d2b611fbe5ddf397051f42"}], "txid": "39a932bc4cc6da8ed923b366f73411305fe14bdb1cd72a194eaeb8f56b98aa7f", "blocktime": 1537876114, "version": 1, "confirmations": 11460, "time": 1537876114, "locktime": 0, "vsize": 284, "size": 284}