{"hash": "7d6865512eb91a98920d7b5ea889e5e61074bdc9c61a357d5b9f86ff817027a4", "blockhash": "000000000000000000022b45ed06c6f4ccd3cf7fb5ba4856ebd2e58215665228", "vout": [{"scriptPubKey": {"reqSigs": 1, "hex": "76a914fee9198da0f37531592bf01f5f0a34812c900a1888ac", "addresses": ["1QEqsnUx9LLvZLy7veWmQSxuHvmEHZSSgM"], "asm": "OP_DUP OP_HASH160 fee9198da0f37531592bf01f5f0a34812c900a18 OP_EQUALVERIFY OP_CHECKSIG", "type": "pubkeyhash"}, "value": 0.04858965, "n": 0}, {"scriptPubKey": {"reqSigs": 1, "hex": "a91416cac1112b20f9f1876d1aac483cda89530acbaa87", "addresses": ["33mXgNSxow3gTWg1hocgbhbnRHZRwi2i3W"], "asm": "OP_HASH160 16cac1112b20f9f1876d1aac483cda89530acbaa OP_EQUAL", "type": "scripthash"}, "value": 0.01014581, "n": 1}], "hex": "02000000000103594ec34c8e2c0726b4b131b8b2a32c12e8b2cc82ec767ad9b8fdec3fc6f76dc3000000001716001427718a75c022cb23ca95ff81e2b8a5579668dcd5fdffffff932095eba655d02c2fac9ddbf1c8c8d3d20d748621a7e62f82a71902659b8b260100000017160014cffc69bbcbc9a50b192e0349f69fc40bf33737a4fdffffffddec00bb35421890493a9f323f78d4548902120f33d703c5de82ef703d67e95f000000001716001427718a75c022cb23ca95ff81e2b8a5579668dcd5fdffffff0255244a00000000001976a914fee9198da0f37531592bf01f5f0a34812c900a1888ac357b0f000000000017a91416cac1112b20f9f1876d1aac483cda89530acbaa870247304402206d2228ae3f75ae758f28541da32aca61f09cc933375821c44f3ee206b34c0dde022055816aa9a758dc8844372135a5042638fe36eb8a5e2e468cbec6157cf7559325012103c485ac05e4bd166650e8d37c5fdef9c7bedbe9cb49a95bcfaba80df9a0e93d5a02483045022100ea1241554f99023389b7c100cafe523b0ff05fafa3f676ac02ce542b8337bd82022010ed0a4af88a0b768b364a86d474401dbacbb7db02953638d3f634403cb9b632012103e5a2ee1d375df19c581c6aa41ac380e3c8250b54ae20e73c530d99e2b6b5b2c702483045022100e87dbdf55f68d26850cb2369377e41e216cc78feebbb3edfe6500c6cfb7f480502201d2ff608683f074ab4b500d38ef4497490f081feb26d977f4339a8afe374c023012103c485ac05e4bd166650e8d37c5fdef9c7bedbe9cb49a95bcfaba80df9a0e93d5a0b490800", "vin": [{"txinwitness": ["304402206d2228ae3f75ae758f28541da32aca61f09cc933375821c44f3ee206b34c0dde022055816aa9a758dc8844372135a5042638fe36eb8a5e2e468cbec6157cf755932501", "03c485ac05e4bd166650e8d37c5fdef9c7bedbe9cb49a95bcfaba80df9a0e93d5a"], "sequence": 4294967293, "scriptSig": {"hex": "16001427718a75c022cb23ca95ff81e2b8a5579668dcd5", "asm": "001427718a75c022cb23ca95ff81e2b8a5579668dcd5"}, "vout": 0, "txid": "c36df7c63fecfdb8d97a76ec82ccb2e8122ca3b2b831b1b426072c8e4cc34e59"}, {"txinwitness": ["3045022100ea1241554f99023389b7c100cafe523b0ff05fafa3f676ac02ce542b8337bd82022010ed0a4af88a0b768b364a86d474401dbacbb7db02953638d3f634403cb9b63201", "03e5a2ee1d375df19c581c6aa41ac380e3c8250b54ae20e73c530d99e2b6b5b2c7"], "sequence": 4294967293, "scriptSig": {"hex": "160014cffc69bbcbc9a50b192e0349f69fc40bf33737a4", "asm": "0014cffc69bbcbc9a50b192e0349f69fc40bf33737a4"}, "vout": 1, "txid": "268b9b650219a7822fe6a72186740dd2d3c8c8f1db9dac2f2cd055a6eb952093"}, {"txinwitness": ["3045022100e87dbdf55f68d26850cb2369377e41e216cc78feebbb3edfe6500c6cfb7f480502201d2ff608683f074ab4b500d38ef4497490f081feb26d977f4339a8afe374c02301", "03c485ac05e4bd166650e8d37c5fdef9c7bedbe9cb49a95bcfaba80df9a0e93d5a"], "sequence": 4294967293, "scriptSig": {"hex": "16001427718a75c022cb23ca95ff81e2b8a5579668dcd5", "asm": "001427718a75c022cb23ca95ff81e2b8a5579668dcd5"}, "vout": 0, "txid": "5fe9673d70ef82dec503d7330f12028954d4783f329f3a4990184235bb00ecdd"}], "txid": "39ad7da149ac373aa66b52074f3f97d3683424e56ba51296434b5771ade1ad51", "blocktime": 1537869901, "version": 2, "confirmations": 11524, "time": 1537869901, "locktime": 542987, "vsize": 350, "size": 593}