{"hash": "39b1e291f8767e26826ec47b5020f422f82bf5c8be798e54c92d88bac48cb510", "blockhash": "0000000000000000000dcc0f55137456b1a82d3642486a52398922ac4d620174", "vout": [{"scriptPubKey": {"reqSigs": 1, "hex": "76a914b861c63352f7d6e6ad868f330514c0138dcb435188ac", "addresses": ["1HovTmb4Pisqj7eFjNedY5JB9k8YoLDXBD"], "asm": "OP_DUP OP_HASH160 b861c63352f7d6e6ad868f330514c0138dcb4351 OP_EQUALVERIFY OP_CHECKSIG", "type": "pubkeyhash"}, "value": 0.01852164, "n": 0}, {"scriptPubKey": {"reqSigs": 1, "hex": "76a914f7e59dda7a45cb648309aedfe657b49f87eeb9f788ac", "addresses": ["1PbkyRc4CoDBWAgm18e2BKKQo6pJgyf5j4"], "asm": "OP_DUP OP_HASH160 f7e59dda7a45cb648309aedfe657b49f87eeb9f7 OP_EQUALVERIFY OP_CHECKSIG", "type": "pubkeyhash"}, "value": 0.3104738, "n": 1}], "hex": "010000000141036bd2d797be9b9fc032f02b80b3c19fcf22705cd2cd65c224d4941f12f6a5010000006a473044022047043b1093295cc348b9ad2ad08f1a33177701425fed8a8c00393ab3fa948bce022002cac41e567a55a2990c6f0aeda5c52ce9fa563ee4d088f713483dc0c7ee93d80121021bb7548dd37f456eb7e285cf78bea248ddb667a03313476e927064ec61d95726ffffffff0204431c00000000001976a914b861c63352f7d6e6ad868f330514c0138dcb435188acd4bed901000000001976a914f7e59dda7a45cb648309aedfe657b49f87eeb9f788ac00000000", "vin": [{"sequence": 4294967295, "scriptSig": {"hex": "473044022047043b1093295cc348b9ad2ad08f1a33177701425fed8a8c00393ab3fa948bce022002cac41e567a55a2990c6f0aeda5c52ce9fa563ee4d088f713483dc0c7ee93d80121021bb7548dd37f456eb7e285cf78bea248ddb667a03313476e927064ec61d95726", "asm": "3044022047043b1093295cc348b9ad2ad08f1a33177701425fed8a8c00393ab3fa948bce022002cac41e567a55a2990c6f0aeda5c52ce9fa563ee4d088f713483dc0c7ee93d8[ALL] 021bb7548dd37f456eb7e285cf78bea248ddb667a03313476e927064ec61d95726"}, "vout": 1, "txid": "a5f6121f94d424c265cdd25c7022cf9fc1b3802bf032c09f9bbe97d7d26b0341"}], "txid": "39b1e291f8767e26826ec47b5020f422f82bf5c8be798e54c92d88bac48cb510", "blocktime": 1537870268, "version": 1, "confirmations": 11516, "time": 1537870268, "locktime": 0, "vsize": 225, "size": 225}