{"hash": "14f0a701b114f65952a0d84ebc6afbe631fe1ae3d9fa2771f95e0644239e01d7", "blockhash": "000000000000000000022b45ed06c6f4ccd3cf7fb5ba4856ebd2e58215665228", "vout": [{"scriptPubKey": {"reqSigs": 1, "hex": "a914cfaabfe8c271f99a4364b5197ba50c6cddb7adb987", "addresses": ["3Ld4M9RPwEG3VeQbHcC1PsKUndQL7VYLZP"], "asm": "OP_HASH160 cfaabfe8c271f99a4364b5197ba50c6cddb7adb9 OP_EQUAL", "type": "scripthash"}, "value": 0.02591031, "n": 0}, {"scriptPubKey": {"reqSigs": 1, "hex": "a9144737db4608dab147f113e29092bd635bb0a0e1e987", "addresses": ["38Bap9JZu1wUCLNz5neqqSeAxPnPK3o53R"], "asm": "OP_HASH160 4737db4608dab147f113e29092bd635bb0a0e1e9 OP_EQUAL", "type": "scripthash"}, "value": 0.01550853, "n": 1}], "hex": "010000000001019f51f737efcb3fc61471cc62e84d561d4735705520cd5a743cb2812127a802f000000000232200204a1848bd914b90210a804474b2d83371e9c416800d5f669219079c7484788f94ffffffff02378927000000000017a914cfaabfe8c271f99a4364b5197ba50c6cddb7adb98705aa17000000000017a9144737db4608dab147f113e29092bd635bb0a0e1e9870400483045022100b0670719c52dfa2ace1951c7b40b0727d8dc3a4ee97ac8c4234de80b36ef204202204fc1cbdee994a8df4a5c64a52c68be305d3930c5b829869e85a7f99a4620f68601483045022100b879e77fdf5cf8d43a730bab2ffaffcb6dff48d1aa49a27b9d7e127a07a9466902203fff91aaec28f9f7e35dd1c6bfebc4847840652b349148e5f7a9e363501c8cf70147522103f4a49ca5b9eeaa3ed9cb51e551ddb5dd364dbabf20a027f57c7b69798a95d82421033e4af03ed09dbd8a417ba042650d5bd1db7f14f271a8f660974e3abf1fdfa4da52ae00000000", "vin": [{"txinwitness": ["", "3045022100b0670719c52dfa2ace1951c7b40b0727d8dc3a4ee97ac8c4234de80b36ef204202204fc1cbdee994a8df4a5c64a52c68be305d3930c5b829869e85a7f99a4620f68601", "3045022100b879e77fdf5cf8d43a730bab2ffaffcb6dff48d1aa49a27b9d7e127a07a9466902203fff91aaec28f9f7e35dd1c6bfebc4847840652b349148e5f7a9e363501c8cf701", "522103f4a49ca5b9eeaa3ed9cb51e551ddb5dd364dbabf20a027f57c7b69798a95d82421033e4af03ed09dbd8a417ba042650d5bd1db7f14f271a8f660974e3abf1fdfa4da52ae"], "sequence": 4294967295, "scriptSig": {"hex": "2200204a1848bd914b90210a804474b2d83371e9c416800d5f669219079c7484788f94", "asm": "00204a1848bd914b90210a804474b2d83371e9c416800d5f669219079c7484788f94"}, "vout": 0, "txid": "f002a8272181b23c745acd20557035471d564de862cc7114c63fcbef37f7519f"}], "txid": "39b20308165f8bc86d060cf22f3994d1943a47e9a29a7f0e62db0e8e6eaa62a6", "blocktime": 1537869901, "version": 1, "confirmations": 11524, "time": 1537869901, "locktime": 0, "vsize": 206, "size": 372}