{"hash": "4c682b398c1e239e8dcf8e0c9da8acf5b11251aa41169e1e532543ad54c1e073", "blockhash": "0000000000000000001f0ddff1eddb255c1121bcd4da4f1bc9a0da00cae72433", "vout": [{"scriptPubKey": {"reqSigs": 1, "hex": "a914f6e920d41812a16827ffe458687ac4ac87cfc1e987", "addresses": ["3QCZRmVMTZdk8Jua54oyuox4KGE8ZqRj5F"], "asm": "OP_HASH160 f6e920d41812a16827ffe458687ac4ac87cfc1e9 OP_EQUAL", "type": "scripthash"}, "value": 0.0083001, "n": 0}], "hex": "01000000000102103662e2121e4c5631ee43cb0a101826f37cc18691f29792ee017ac7564845ae0100000017160014f1b15b6a880e90191b1160bfef4a56bdd97e506dffffff006a10354e70fedab9ff5733fe49ad2d04ea3ef90a798072fc557f401e84b41d714800000017160014b386a410f742b64b36950e9267d2777a96b5767affffff00013aaa0c000000000017a914f6e920d41812a16827ffe458687ac4ac87cfc1e9870248304502210092605b9295458ac33e82634363616ef56c4d62e443c8ff8353d2a959359ecb34022031c916bc06731ad1113c456462db6984f7827e1927079f6499417b7e235930e1012103c0dbc9e45b27ec2a12fa83c91f3d0eb4197a08ea030f50fdfd661cb128a98fb002483045022100f66d3bce61eb986925d6f15ef65412f0e7946e452950626daebbf4d178861df10220765b7e6b1c804ef01499b27093f7488d8aa94b399ba6cf14f97aadc242b5f6e6012103c2cccd6a6201718fadd11ba118ef37928577a74fda09a8b8e90ea53f2ec9f42e00000000", "vin": [{"txinwitness": ["304502210092605b9295458ac33e82634363616ef56c4d62e443c8ff8353d2a959359ecb34022031c916bc06731ad1113c456462db6984f7827e1927079f6499417b7e235930e101", "03c0dbc9e45b27ec2a12fa83c91f3d0eb4197a08ea030f50fdfd661cb128a98fb0"], "sequence": 16777215, "scriptSig": {"hex": "160014f1b15b6a880e90191b1160bfef4a56bdd97e506d", "asm": "0014f1b15b6a880e90191b1160bfef4a56bdd97e506d"}, "vout": 1, "txid": "ae454856c77a01ee9297f29186c17cf32618100acb43ee31564c1e12e2623610"}, {"txinwitness": ["3045022100f66d3bce61eb986925d6f15ef65412f0e7946e452950626daebbf4d178861df10220765b7e6b1c804ef01499b27093f7488d8aa94b399ba6cf14f97aadc242b5f6e601", "03c2cccd6a6201718fadd11ba118ef37928577a74fda09a8b8e90ea53f2ec9f42e"], "sequence": 16777215, "scriptSig": {"hex": "160014b386a410f742b64b36950e9267d2777a96b5767a", "asm": "0014b386a410f742b64b36950e9267d2777a96b5767a"}, "vout": 72, "txid": "711db4841e407f55fc7280790af93eea042dad49fe3357ffb9dafe704e35106a"}], "txid": "39b6dfdf2399d218339c2e07f165337e9968bb826eb74c817026d9104afa2204", "blocktime": 1537872018, "version": 1, "confirmations": 11489, "time": 1537872018, "locktime": 0, "vsize": 225, "size": 388}