{"hash": "39b6642a7e00b931e50ea842722c9dcea4c0f5b637166f5764281c5b4fa1b0a3", "blockhash": "0000000000000000001cda96e906b7601b7a6fb1a3b62bca570a9e5d8f4b3de1", "vout": [{"scriptPubKey": {"reqSigs": 1, "hex": "76a91429a23f1d60fbf9b418a148a95864abe7c842536e88ac", "addresses": ["14o94xEwFHUtTNRXx5AmbHMPzjEred5j42"], "asm": "OP_DUP OP_HASH160 29a23f1d60fbf9b418a148a95864abe7c842536e OP_EQUALVERIFY OP_CHECKSIG", "type": "pubkeyhash"}, "value": 0.01398604, "n": 0}, {"scriptPubKey": {"type": "nulldata", "hex": "6a4c50000077c500011ac8685b23cc0f42c2fc38c5e5bf9ae76da98a211aaf6c953dd567cf27e7dd8adcd0cd4bfb78da54f1f70f6253cd5baa134c06136d4758d12efcbc9a9526289ac0f6612cd74e33776ee4", "asm": "OP_RETURN 000077c500011ac8685b23cc0f42c2fc38c5e5bf9ae76da98a211aaf6c953dd567cf27e7dd8adcd0cd4bfb78da54f1f70f6253cd5baa134c06136d4758d12efcbc9a9526289ac0f6612cd74e33776ee4"}, "value": 0.0, "n": 1}], "hex": "0100000001cd8f0ac8439bb076a64db74c0007e97031f8ebd8f5673c9dfee563ebadf1ed5f000000006b483045022100e2fbea533b91bffa43ea16c2f65f29fe8493a36a90f21b21e4d536c23c144b230220133fa917e883122f9ee3b96e8c40d10783c39d28611e28280a5148e06fb4b833012102247a3d2881471385ca2e67b0b7966349b3324302b8b860c2a229b20a9c5e78e1ffffffff024c571500000000001976a91429a23f1d60fbf9b418a148a95864abe7c842536e88ac0000000000000000536a4c50000077c500011ac8685b23cc0f42c2fc38c5e5bf9ae76da98a211aaf6c953dd567cf27e7dd8adcd0cd4bfb78da54f1f70f6253cd5baa134c06136d4758d12efcbc9a9526289ac0f6612cd74e33776ee400000000", "vin": [{"sequence": 4294967295, "scriptSig": {"hex": "483045022100e2fbea533b91bffa43ea16c2f65f29fe8493a36a90f21b21e4d536c23c144b230220133fa917e883122f9ee3b96e8c40d10783c39d28611e28280a5148e06fb4b833012102247a3d2881471385ca2e67b0b7966349b3324302b8b860c2a229b20a9c5e78e1", "asm": "3045022100e2fbea533b91bffa43ea16c2f65f29fe8493a36a90f21b21e4d536c23c144b230220133fa917e883122f9ee3b96e8c40d10783c39d28611e28280a5148e06fb4b833[ALL] 02247a3d2881471385ca2e67b0b7966349b3324302b8b860c2a229b20a9c5e78e1"}, "vout": 0, "txid": "5fedf1adeb63e5fe9d3c67f5d8ebf83170e907004cb74da676b09b43c80a8fcd"}], "txid": "39b6642a7e00b931e50ea842722c9dcea4c0f5b637166f5764281c5b4fa1b0a3", "blocktime": 1537873282, "version": 1, "confirmations": 11484, "time": 1537873282, "locktime": 0, "vsize": 284, "size": 284}