{"hash": "39b99313fd1ff18b9af3489b66a216740f660cbc4f34a42e69151811d3de9415", "blockhash": "0000000000000000001cda96e906b7601b7a6fb1a3b62bca570a9e5d8f4b3de1", "vout": [{"scriptPubKey": {"reqSigs": 1, "hex": "76a9144ccd47cf97663d0b58170d0c63d065c125394cc988ac", "addresses": ["1816Gii22S9GLDiourBwsMpR6UG9rViQVq"], "asm": "OP_DUP OP_HASH160 4ccd47cf97663d0b58170d0c63d065c125394cc9 OP_EQUALVERIFY OP_CHECKSIG", "type": "pubkeyhash"}, "value": 0.01425824, "n": 0}, {"scriptPubKey": {"reqSigs": 1, "hex": "76a914eff4b50e90d5e00f55a869e431ccc4c6270cf69b88ac", "addresses": ["1NsmeQXAaJZVm7eQLEfMk1hsU8iGx6RJES"], "asm": "OP_DUP OP_HASH160 eff4b50e90d5e00f55a869e431ccc4c6270cf69b OP_EQUALVERIFY OP_CHECKSIG", "type": "pubkeyhash"}, "value": 0.5, "n": 1}], "hex": "0100000005195206b828a7b4a6e1186a413fd170e45b4f40d5c6a1bd91dd73365dea81f2b38a0000006b483045022100a16f9b2d84adce7951c0d4ca1bf4e17f3253f7a0cea14f6df9d14db3fa02a70f02207d2538b313497555509453242541db72fb8344d26e477964968fbb99f69b4bb7012103912a712ede1a84ddcbdb492c7fc3d041756a687bf3170d82b6490a61ec1917a3ffffffff8e32ce95911e095770bb33fe2f863005ee75d5ce4d2db966a04bca431f56f618ac0000006b4830450221009147f3477019d0f7ec60c526d8485f5918013791d00fa464d6acbb562a9e2d0b0220061d19cef463358fe69aae6813103d0667649b289f5fdce4faa1f1921402d012012103912a712ede1a84ddcbdb492c7fc3d041756a687bf3170d82b6490a61ec1917a3ffffffff94ebf13c06ea148e6299682850b9de89018bf7ee15ca5f9933d5b5d6a7fecbae130000006b483045022100962aeb73991ed0606708eacde246f510cdf770e03ea0a9f5f651ec147f49b70602204a02405a3d7f7928bb62ff93703b0913c79d7c4742a14a0f25736324682564c8012103912a712ede1a84ddcbdb492c7fc3d041756a687bf3170d82b6490a61ec1917a3ffffffffb5b1ba262c939b21e7b81b91c578bedf262b08f9d6ea514749b3d4bcb415c588110000006b483045022100b60540dc1e2a88fb6f07838a6cc9dedb7808a207b77d6a8a84d35d79bb0263cd02203921d757709c6ff4d9eab276912366b7c326d3bac2face34c8939ab19e76cf37012103912a712ede1a84ddcbdb492c7fc3d041756a687bf3170d82b6490a61ec1917a3fffffffff97c7d35da91c8119e6f740d27efaf5dfc00fcab81bce1e9e751b0c769afac34e10000006a47304402203ee40bc0c17b6f2cdf859f331dbe1274e2cbd36e43955e31fe4e8ad1fdd6e6fe02200e23a114c1f7f80734f15b58e5781e93ffad5d6ee4493a3a3d9093ef95e8367e012103912a712ede1a84ddcbdb492c7fc3d041756a687bf3170d82b6490a61ec1917a3ffffffff02a0c11500000000001976a9144ccd47cf97663d0b58170d0c63d065c125394cc988ac80f0fa02000000001976a914eff4b50e90d5e00f55a869e431ccc4c6270cf69b88ac00000000", "vin": [{"sequence": 4294967295, "scriptSig": {"hex": "483045022100a16f9b2d84adce7951c0d4ca1bf4e17f3253f7a0cea14f6df9d14db3fa02a70f02207d2538b313497555509453242541db72fb8344d26e477964968fbb99f69b4bb7012103912a712ede1a84ddcbdb492c7fc3d041756a687bf3170d82b6490a61ec1917a3", "asm": "3045022100a16f9b2d84adce7951c0d4ca1bf4e17f3253f7a0cea14f6df9d14db3fa02a70f02207d2538b313497555509453242541db72fb8344d26e477964968fbb99f69b4bb7[ALL] 03912a712ede1a84ddcbdb492c7fc3d041756a687bf3170d82b6490a61ec1917a3"}, "vout": 138, "txid": "b3f281ea5d3673dd91bda1c6d5404f5be470d13f416a18e1a6b4a728b8065219"}, {"sequence": 4294967295, "scriptSig": {"hex": "4830450221009147f3477019d0f7ec60c526d8485f5918013791d00fa464d6acbb562a9e2d0b0220061d19cef463358fe69aae6813103d0667649b289f5fdce4faa1f1921402d012012103912a712ede1a84ddcbdb492c7fc3d041756a687bf3170d82b6490a61ec1917a3", "asm": "30450221009147f3477019d0f7ec60c526d8485f5918013791d00fa464d6acbb562a9e2d0b0220061d19cef463358fe69aae6813103d0667649b289f5fdce4faa1f1921402d012[ALL] 03912a712ede1a84ddcbdb492c7fc3d041756a687bf3170d82b6490a61ec1917a3"}, "vout": 172, "txid": "18f6561f43ca4ba066b92d4dced575ee0530862ffe33bb7057091e9195ce328e"}, {"sequence": 4294967295, "scriptSig": {"hex": "483045022100962aeb73991ed0606708eacde246f510cdf770e03ea0a9f5f651ec147f49b70602204a02405a3d7f7928bb62ff93703b0913c79d7c4742a14a0f25736324682564c8012103912a712ede1a84ddcbdb492c7fc3d041756a687bf3170d82b6490a61ec1917a3", "asm": "3045022100962aeb73991ed0606708eacde246f510cdf770e03ea0a9f5f651ec147f49b70602204a02405a3d7f7928bb62ff93703b0913c79d7c4742a14a0f25736324682564c8[ALL] 03912a712ede1a84ddcbdb492c7fc3d041756a687bf3170d82b6490a61ec1917a3"}, "vout": 19, "txid": "aecbfea7d6b5d533995fca15eef78b0189deb950286899628e14ea063cf1eb94"}, {"sequence": 4294967295, "scriptSig": {"hex": "483045022100b60540dc1e2a88fb6f07838a6cc9dedb7808a207b77d6a8a84d35d79bb0263cd02203921d757709c6ff4d9eab276912366b7c326d3bac2face34c8939ab19e76cf37012103912a712ede1a84ddcbdb492c7fc3d041756a687bf3170d82b6490a61ec1917a3", "asm": "3045022100b60540dc1e2a88fb6f07838a6cc9dedb7808a207b77d6a8a84d35d79bb0263cd02203921d757709c6ff4d9eab276912366b7c326d3bac2face34c8939ab19e76cf37[ALL] 03912a712ede1a84ddcbdb492c7fc3d041756a687bf3170d82b6490a61ec1917a3"}, "vout": 17, "txid": "88c515b4bcd4b3494751ead6f9082b26dfbe78c5911bb8e7219b932c26bab1b5"}, {"sequence": 4294967295, "scriptSig": {"hex": "47304402203ee40bc0c17b6f2cdf859f331dbe1274e2cbd36e43955e31fe4e8ad1fdd6e6fe02200e23a114c1f7f80734f15b58e5781e93ffad5d6ee4493a3a3d9093ef95e8367e012103912a712ede1a84ddcbdb492c7fc3d041756a687bf3170d82b6490a61ec1917a3", "asm": "304402203ee40bc0c17b6f2cdf859f331dbe1274e2cbd36e43955e31fe4e8ad1fdd6e6fe02200e23a114c1f7f80734f15b58e5781e93ffad5d6ee4493a3a3d9093ef95e8367e[ALL] 03912a712ede1a84ddcbdb492c7fc3d041756a687bf3170d82b6490a61ec1917a3"}, "vout": 225, "txid": "34acaf69c7b051e7e9e1bc81abfc00fc5dafef270d746f9e11c891da357d7cf9"}], "txid": "39b99313fd1ff18b9af3489b66a216740f660cbc4f34a42e69151811d3de9415", "blocktime": 1537873282, "version": 1, "confirmations": 11484, "time": 1537873282, "locktime": 0, "vsize": 817, "size": 817}