{"hash": "7e9563659ea8c10d7d7775c739d4945079a45acb1a8abe60db4e591cdcc1c352", "blockhash": "0000000000000000000dcc0f55137456b1a82d3642486a52398922ac4d620174", "vout": [{"scriptPubKey": {"reqSigs": 1, "hex": "76a9145ea1f8309f6148107c8ac106c3c02dea1b0ffff188ac", "addresses": ["19dNYsSWPCcHyy2bxrZQ9nFJJZPK5hvzm3"], "asm": "OP_DUP OP_HASH160 5ea1f8309f6148107c8ac106c3c02dea1b0ffff1 OP_EQUALVERIFY OP_CHECKSIG", "type": "pubkeyhash"}, "value": 0.01683936, "n": 0}, {"scriptPubKey": {"reqSigs": 1, "hex": "76a9140c8ac798fc53c8ec536d849e6fe0dc108a07266b88ac", "addresses": ["129KMtDa54TxdCwFXD7mUACZwMMucL9B6P"], "asm": "OP_DUP OP_HASH160 0c8ac798fc53c8ec536d849e6fe0dc108a07266b OP_EQUALVERIFY OP_CHECKSIG", "type": "pubkeyhash"}, "value": 0.00288577, "n": 1}, {"scriptPubKey": {"reqSigs": 1, "hex": "a914bbf4dbee8a1281ea46896f1b10e451db8325c17287", "addresses": ["3JpqcXQunJamGNQ8hJTfppqjk23Ez6yWnr"], "asm": "OP_HASH160 bbf4dbee8a1281ea46896f1b10e451db8325c172 OP_EQUAL", "type": "scripthash"}, "value": 0.98186406, "n": 2}, {"scriptPubKey": {"reqSigs": 1, "hex": "76a914f47008b4be93734cd125eacd880e0b406b5479fb88ac", "addresses": ["1PHU64ptriXgmYgsXz7nwc8CSyxJwySpGu"], "asm": "OP_DUP OP_HASH160 f47008b4be93734cd125eacd880e0b406b5479fb OP_EQUALVERIFY OP_CHECKSIG", "type": "pubkeyhash"}, "value": 0.01009022, "n": 3}], "hex": "02000000000101d84afb683de7c460566e049ce8c770530ab2eba733aee43e6558628bc9d00c590100000017160014e65d840edb32fc9cad0c9d53be5d5270b7369744feffffff04e0b11900000000001976a9145ea1f8309f6148107c8ac106c3c02dea1b0ffff188ac41670400000000001976a9140c8ac798fc53c8ec536d849e6fe0dc108a07266b88aca634da050000000017a914bbf4dbee8a1281ea46896f1b10e451db8325c172877e650f00000000001976a914f47008b4be93734cd125eacd880e0b406b5479fb88ac02473044022071a891873bf3326f9d9df4ae550523a0d32c34f7cf94791fd2bc8372e0cd4ed8022024f50313762821540f113beec7cc71d1e1a74298521f363312423ad63ec99a60012103dc7da00ae1194b69fb479a991e22c9903d6b1763164f9bee58c2b2f7b96538cbfb480800", "vin": [{"txinwitness": ["3044022071a891873bf3326f9d9df4ae550523a0d32c34f7cf94791fd2bc8372e0cd4ed8022024f50313762821540f113beec7cc71d1e1a74298521f363312423ad63ec99a6001", "03dc7da00ae1194b69fb479a991e22c9903d6b1763164f9bee58c2b2f7b96538cb"], "sequence": 4294967294, "scriptSig": {"hex": "160014e65d840edb32fc9cad0c9d53be5d5270b7369744", "asm": "0014e65d840edb32fc9cad0c9d53be5d5270b7369744"}, "vout": 1, "txid": "590cd0c98b6258653ee4ae33a7ebb20a5370c7e89c046e5660c4e73d68fb4ad8"}], "txid": "39bab1eb85642691032322229f6f774572f9ebb791e452408edc60b026c35391", "blocktime": 1537870268, "version": 2, "confirmations": 11516, "time": 1537870268, "locktime": 542971, "vsize": 236, "size": 317}