{"hash": "39be588e47a677c408c1e1669e991c77d8258d54b6c875c736d083da3802f087", "blockhash": "0000000000000000000baef3f32e3676a92c3b2e5da21b426e4f302fc371ce76", "vout": [{"scriptPubKey": {"reqSigs": 1, "hex": "76a914fa7d61f29fdd0334b3db15917f915fcd6287723288ac", "addresses": ["1PqU8hFVgyPVAGRHik9acLGu5FCiB6MyNN"], "asm": "OP_DUP OP_HASH160 fa7d61f29fdd0334b3db15917f915fcd62877232 OP_EQUALVERIFY OP_CHECKSIG", "type": "pubkeyhash"}, "value": 2.0, "n": 0}, {"scriptPubKey": {"reqSigs": 1, "hex": "76a9145548e79b4cb5c8041384bad51a0ec22c37546d8d88ac", "addresses": ["18mwmpCteJtpX1zvfk9YWuEF5DHZrrHdGq"], "asm": "OP_DUP OP_HASH160 5548e79b4cb5c8041384bad51a0ec22c37546d8d OP_EQUALVERIFY OP_CHECKSIG", "type": "pubkeyhash"}, "value": 0.91951169, "n": 1}], "hex": "0100000002aa8347cf92cbc7af18d8c393d5b46d84a966e553e4ae6d405f44c7701c7b4b2e5f0000006b483045022100d4013aa7848fe6d2e54ca332be2376a8a691ca6d8eda3931f858a5965fbd69fe022026c90cac81eb0f1fba84173d4c5f8abaec663bec4e74e37f530db101cf8f503e012102207054074b36a333c558035d841d82dc6a893f1fcd6437232001c36e4c46ada3ffffffff523eaf3364e3d69837573fff333cc926bece435bc556dab060cbf304c955ad48260000006a473044022006d660f160b001c23e41aa2e102f6d67de9a20522967cf8980385fa87368ea3b0220127ece236042588a143590a655a879a6a225c5bc060684ea03b8c149570b4312012103f87abc9e0391c1e1bbce05df94a1975c281177c0f935328187e0b248adbc9b7fffffffff0200c2eb0b000000001976a914fa7d61f29fdd0334b3db15917f915fcd6287723288ac41107b05000000001976a9145548e79b4cb5c8041384bad51a0ec22c37546d8d88ac00000000", "vin": [{"sequence": 4294967295, "scriptSig": {"hex": "483045022100d4013aa7848fe6d2e54ca332be2376a8a691ca6d8eda3931f858a5965fbd69fe022026c90cac81eb0f1fba84173d4c5f8abaec663bec4e74e37f530db101cf8f503e012102207054074b36a333c558035d841d82dc6a893f1fcd6437232001c36e4c46ada3", "asm": "3045022100d4013aa7848fe6d2e54ca332be2376a8a691ca6d8eda3931f858a5965fbd69fe022026c90cac81eb0f1fba84173d4c5f8abaec663bec4e74e37f530db101cf8f503e[ALL] 02207054074b36a333c558035d841d82dc6a893f1fcd6437232001c36e4c46ada3"}, "vout": 95, "txid": "2e4b7b1c70c7445f406daee453e566a9846db4d593c3d818afc7cb92cf4783aa"}, {"sequence": 4294967295, "scriptSig": {"hex": "473044022006d660f160b001c23e41aa2e102f6d67de9a20522967cf8980385fa87368ea3b0220127ece236042588a143590a655a879a6a225c5bc060684ea03b8c149570b4312012103f87abc9e0391c1e1bbce05df94a1975c281177c0f935328187e0b248adbc9b7f", "asm": "3044022006d660f160b001c23e41aa2e102f6d67de9a20522967cf8980385fa87368ea3b0220127ece236042588a143590a655a879a6a225c5bc060684ea03b8c149570b4312[ALL] 03f87abc9e0391c1e1bbce05df94a1975c281177c0f935328187e0b248adbc9b7f"}, "vout": 38, "txid": "48ad55c904f3cb60b0da56c55b43cebe26c93c33ff3f573798d6e36433af3e52"}], "txid": "39be588e47a677c408c1e1669e991c77d8258d54b6c875c736d083da3802f087", "blocktime": 1537876114, "version": 1, "confirmations": 11459, "time": 1537876114, "locktime": 0, "vsize": 373, "size": 373}