{"hash": "39c019e8c99f9f4458c2fbe9b43b380ac7b354ab29c537c9327838631c87adb4", "blockhash": "00000000000000000017f5eb5941039fbcee6240d03bc1f2f8e35350df66a1d8", "vout": [{"scriptPubKey": {"reqSigs": 1, "hex": "a914925391abac58d6e7df4a7d4ecbeb265657f4efd187", "addresses": ["3F2ih2coSaYuRGfBrbajrjoVFcTLJDRncw"], "asm": "OP_HASH160 925391abac58d6e7df4a7d4ecbeb265657f4efd1 OP_EQUAL", "type": "scripthash"}, "value": 0.05, "n": 0}, {"scriptPubKey": {"reqSigs": 1, "hex": "76a914dde0be2f27ec609c1439e5e5b627ba4237dfb02088ac", "addresses": ["1MEBZoia2mR3SCHkdhmgvS33DUYTp6c1bq"], "asm": "OP_DUP OP_HASH160 dde0be2f27ec609c1439e5e5b627ba4237dfb020 OP_EQUALVERIFY OP_CHECKSIG", "type": "pubkeyhash"}, "value": 0.05016177, "n": 1}], "hex": "0100000001ec8a07b3e2458566eee477aea8a0c611402d60962c7ff88ed646232f38c71dd7010000006a47304402205f2056073442353e75d73f219b832dd9f5becfe443485c7d6b7d546ec56c449502204ec0e98af12fb4c442058cbc8079fdc01beadd8dff59281948c3f36d6f5da8ea0121038db69751b8430943a519b0fb5b7ec86a4a21d439f43637729e74d0e5cec31b54feffffff02404b4c000000000017a914925391abac58d6e7df4a7d4ecbeb265657f4efd187718a4c00000000001976a914dde0be2f27ec609c1439e5e5b627ba4237dfb02088ac15490800", "vin": [{"sequence": 4294967294, "scriptSig": {"hex": "47304402205f2056073442353e75d73f219b832dd9f5becfe443485c7d6b7d546ec56c449502204ec0e98af12fb4c442058cbc8079fdc01beadd8dff59281948c3f36d6f5da8ea0121038db69751b8430943a519b0fb5b7ec86a4a21d439f43637729e74d0e5cec31b54", "asm": "304402205f2056073442353e75d73f219b832dd9f5becfe443485c7d6b7d546ec56c449502204ec0e98af12fb4c442058cbc8079fdc01beadd8dff59281948c3f36d6f5da8ea[ALL] 038db69751b8430943a519b0fb5b7ec86a4a21d439f43637729e74d0e5cec31b54"}, "vout": 1, "txid": "d71dc7382f2346d68ef87f2c96602d4011c6a0a8ae77e4ee668545e2b3078aec"}], "txid": "39c019e8c99f9f4458c2fbe9b43b380ac7b354ab29c537c9327838631c87adb4", "blocktime": 1537874412, "version": 1, "confirmations": 11467, "time": 1537874412, "locktime": 542997, "vsize": 223, "size": 223}