{"hash": "39c065f4d57a1afddaf82a58535094ec54f6ce0584242a1f39eb7700530ef138", "blockhash": "0000000000000000001cda96e906b7601b7a6fb1a3b62bca570a9e5d8f4b3de1", "vout": [{"scriptPubKey": {"reqSigs": 1, "hex": "76a914f49e2191c22fe1c791a79cb9b95e010dfa26f39788ac", "addresses": ["1PJRJx7PreGRrweASdFavojwZ1qVWf1vLp"], "asm": "OP_DUP OP_HASH160 f49e2191c22fe1c791a79cb9b95e010dfa26f397 OP_EQUALVERIFY OP_CHECKSIG", "type": "pubkeyhash"}, "value": 0.00753584, "n": 0}, {"scriptPubKey": {"reqSigs": 1, "hex": "76a9144318866201cb1b7dee5b028e37866b7c312c571e88ac", "addresses": ["177mesk1Zn6SLBByR7wUsXMKHypBWeiN4f"], "asm": "OP_DUP OP_HASH160 4318866201cb1b7dee5b028e37866b7c312c571e OP_EQUALVERIFY OP_CHECKSIG", "type": "pubkeyhash"}, "value": 0.0013851, "n": 1}], "hex": "01000000014d026d00fb4e6934a23f3730efb86e9950e2d610772a84bc370cecee530abc10000000006b483045022100aedd04344b063374b3afb0fc87a23ed0f4736aed14dacfcb8877d0b8d21efb50022011e06b3e48153a4a3fa9139afd83ae46789488d919474cdd1937be478eeee66401210359ad297e9ca83a0427a7bb8cc1b73e16103cc73784c3e0d92dfdfd612786156affffffff02b07f0b00000000001976a914f49e2191c22fe1c791a79cb9b95e010dfa26f39788ac0e1d0200000000001976a9144318866201cb1b7dee5b028e37866b7c312c571e88ac00000000", "vin": [{"sequence": 4294967295, "scriptSig": {"hex": "483045022100aedd04344b063374b3afb0fc87a23ed0f4736aed14dacfcb8877d0b8d21efb50022011e06b3e48153a4a3fa9139afd83ae46789488d919474cdd1937be478eeee66401210359ad297e9ca83a0427a7bb8cc1b73e16103cc73784c3e0d92dfdfd612786156a", "asm": "3045022100aedd04344b063374b3afb0fc87a23ed0f4736aed14dacfcb8877d0b8d21efb50022011e06b3e48153a4a3fa9139afd83ae46789488d919474cdd1937be478eeee664[ALL] 0359ad297e9ca83a0427a7bb8cc1b73e16103cc73784c3e0d92dfdfd612786156a"}, "vout": 0, "txid": "10bc0a53eeec0c37bc842a7710d6e250996eb8ef30373fa234694efb006d024d"}], "txid": "39c065f4d57a1afddaf82a58535094ec54f6ce0584242a1f39eb7700530ef138", "blocktime": 1537873282, "version": 1, "confirmations": 11485, "time": 1537873282, "locktime": 0, "vsize": 226, "size": 226}