{"hash": "39c5734b6527d0df7a8c93173c73a5cb8e49fe16157d791afac95a47ff4a623c", "blockhash": "0000000000000000000baef3f32e3676a92c3b2e5da21b426e4f302fc371ce76", "vout": [{"scriptPubKey": {"reqSigs": 1, "hex": "a914e5d4857165755e468d31ed29b688e5707b0801fe87", "addresses": ["3NeFFi5U7bJapEMVngMa9gfNJChTYD4UkE"], "asm": "OP_HASH160 e5d4857165755e468d31ed29b688e5707b0801fe OP_EQUAL", "type": "scripthash"}, "value": 0.00286314, "n": 0}, {"scriptPubKey": {"reqSigs": 1, "hex": "76a914100d1dce0bbb495108a621b58432e5221af47fda88ac", "addresses": ["12TsXR3M7aMU2ogRWH5CWF9nGCE5mhwN6C"], "asm": "OP_DUP OP_HASH160 100d1dce0bbb495108a621b58432e5221af47fda OP_EQUALVERIFY OP_CHECKSIG", "type": "pubkeyhash"}, "value": 0.0872186, "n": 1}], "hex": "0100000001b46ab9c39f1fc7b26cacc1895d427136bebc49a91864d5dab8615649132a21d3010000006a4730440220645dd2564237bfe1c1815f96bbaf6d546f6951f54debf5ddaa5e32e63af0c5fb022039068df6821520a3b932f7155aec39f2628c2ce83f046fb2190651230efa011d012103e4f4654a4ddb60fdf03be19b126277b6865f7532ede61faf89b86fee4013ce16ffffffff026a5e04000000000017a914e5d4857165755e468d31ed29b688e5707b0801fe87c4158500000000001976a914100d1dce0bbb495108a621b58432e5221af47fda88ac00000000", "vin": [{"sequence": 4294967295, "scriptSig": {"hex": "4730440220645dd2564237bfe1c1815f96bbaf6d546f6951f54debf5ddaa5e32e63af0c5fb022039068df6821520a3b932f7155aec39f2628c2ce83f046fb2190651230efa011d012103e4f4654a4ddb60fdf03be19b126277b6865f7532ede61faf89b86fee4013ce16", "asm": "30440220645dd2564237bfe1c1815f96bbaf6d546f6951f54debf5ddaa5e32e63af0c5fb022039068df6821520a3b932f7155aec39f2628c2ce83f046fb2190651230efa011d[ALL] 03e4f4654a4ddb60fdf03be19b126277b6865f7532ede61faf89b86fee4013ce16"}, "vout": 1, "txid": "d3212a13495661b8dad56418a949bcbe3671425d89c1ac6cb2c71f9fc3b96ab4"}], "txid": "39c5734b6527d0df7a8c93173c73a5cb8e49fe16157d791afac95a47ff4a623c", "blocktime": 1537876114, "version": 1, "confirmations": 11460, "time": 1537876114, "locktime": 0, "vsize": 223, "size": 223}