{"hash": "39c6d9f0ee94355c4434d5491db8acf58fddb06434cc5f8d6603924e590ecd10", "blockhash": "00000000000000000018f53835495a110e01622372bf6ae95dc86f2b0ab887b0", "vout": [{"scriptPubKey": {"type": "nulldata", "hex": "6a2e9b31466af53a2557d33674f54844628aec6b160a314daed05f5e6251b55759974a188d1095fb787245fbe3d8fda2", "asm": "OP_RETURN 9b31466af53a2557d33674f54844628aec6b160a314daed05f5e6251b55759974a188d1095fb787245fbe3d8fda2"}, "value": 0.0, "n": 0}, {"scriptPubKey": {"reqSigs": 1, "hex": "76a9141748a441423da5e15e6b7ba4e9513bbb35e28a7c88ac", "addresses": ["1387Ze9HfexTm8zxZzt1xacSu6GtRkvNkS"], "asm": "OP_DUP OP_HASH160 1748a441423da5e15e6b7ba4e9513bbb35e28a7c OP_EQUALVERIFY OP_CHECKSIG", "type": "pubkeyhash"}, "value": 0.00825134, "n": 1}], "hex": "0100000001421b5ce58194a0fc50f46a0bbc49be095654333bb5bf10d837043799d4069308010000006a47304402202fd007f22b4f4a3555d261d2c09689b9c5facfb69adb2fefe19a835bbda46289022044d88d956126d62afea16af50d9bb8111e017e72f8e5aa767abf713794aae0e5012103d5cfd14d18dda8561f00522c123a72b830be632f450ec569f88be5de194f2d90ffffffff020000000000000000306a2e9b31466af53a2557d33674f54844628aec6b160a314daed05f5e6251b55759974a188d1095fb787245fbe3d8fda22e970c00000000001976a9141748a441423da5e15e6b7ba4e9513bbb35e28a7c88ac00000000", "vin": [{"sequence": 4294967295, "scriptSig": {"hex": "47304402202fd007f22b4f4a3555d261d2c09689b9c5facfb69adb2fefe19a835bbda46289022044d88d956126d62afea16af50d9bb8111e017e72f8e5aa767abf713794aae0e5012103d5cfd14d18dda8561f00522c123a72b830be632f450ec569f88be5de194f2d90", "asm": "304402202fd007f22b4f4a3555d261d2c09689b9c5facfb69adb2fefe19a835bbda46289022044d88d956126d62afea16af50d9bb8111e017e72f8e5aa767abf713794aae0e5[ALL] 03d5cfd14d18dda8561f00522c123a72b830be632f450ec569f88be5de194f2d90"}, "vout": 1, "txid": "089306d499370437d810bfb53b33545609be49bc0b6af450fca09481e55c1b42"}], "txid": "39c6d9f0ee94355c4434d5491db8acf58fddb06434cc5f8d6603924e590ecd10", "blocktime": 1537870928, "version": 1, "confirmations": 11512, "time": 1537870928, "locktime": 0, "vsize": 248, "size": 248}