{"hash": "a0390dc008b85f4f453d97cb095518dd2ce136cc94113d6de0fb7e0fc4ba8c4b", "blockhash": "00000000000000000017f5eb5941039fbcee6240d03bc1f2f8e35350df66a1d8", "vout": [{"scriptPubKey": {"reqSigs": 1, "hex": "76a9148603a0c071ba014478d2ef7440d8207daaea60da88ac", "addresses": ["1DDbtnAcpZa86j212qeLHxYSkC8cJT2FqG"], "asm": "OP_DUP OP_HASH160 8603a0c071ba014478d2ef7440d8207daaea60da OP_EQUALVERIFY OP_CHECKSIG", "type": "pubkeyhash"}, "value": 0.5, "n": 0}, {"scriptPubKey": {"reqSigs": 1, "hex": "a91468f0fc7f1178bc32431d122415a04c436e634bdc87", "addresses": ["3BFttWvbpWpn38Ro6yWAsaLxJqjemAzkwE"], "asm": "OP_HASH160 68f0fc7f1178bc32431d122415a04c436e634bdc OP_EQUAL", "type": "scripthash"}, "value": 0.28830945, "n": 1}], "hex": "0100000000010195aff8f2f3d94af91b2fe26915163959da8d72fb142120b677f8acf00911a69301000000171600145bee3910d3a3ef1ae5f5d4ba10c833289d0f4df2ffffffff0280f0fa02000000001976a9148603a0c071ba014478d2ef7440d8207daaea60da88ace1ecb7010000000017a91468f0fc7f1178bc32431d122415a04c436e634bdc8702473044022021fba4af0c216379fc1b7aca395ccd632ab60918f061f016aeb3f4c01676c12f02201ba815f76deaba37aaf6bfdb293df95a24ec5724094aa64f1cc7451e3c7d86660121028bfe00f14a0040aa8983901c4026c6b37db2db7bda2d2552c8cd6cf3a19b2de100000000", "vin": [{"txinwitness": ["3044022021fba4af0c216379fc1b7aca395ccd632ab60918f061f016aeb3f4c01676c12f02201ba815f76deaba37aaf6bfdb293df95a24ec5724094aa64f1cc7451e3c7d866601", "028bfe00f14a0040aa8983901c4026c6b37db2db7bda2d2552c8cd6cf3a19b2de1"], "sequence": 4294967295, "scriptSig": {"hex": "1600145bee3910d3a3ef1ae5f5d4ba10c833289d0f4df2", "asm": "00145bee3910d3a3ef1ae5f5d4ba10c833289d0f4df2"}, "vout": 1, "txid": "93a61109f0acf877b6202114fb728dda5939161569e22f1bf94ad9f3f2f8af95"}], "txid": "39ccdd0b58c59010b4c0d4de1070a9b2f1941d66e6e74e182282c75e43f9da00", "blocktime": 1537874412, "version": 1, "confirmations": 11466, "time": 1537874412, "locktime": 0, "vsize": 168, "size": 249}