{"hash": "c6b07751351f1cb830afa2fb33087c3a7d7f6d566fadb80e39d184f4875da193", "blockhash": "00000000000000000017f5eb5941039fbcee6240d03bc1f2f8e35350df66a1d8", "vout": [{"scriptPubKey": {"reqSigs": 1, "hex": "76a914d44e21539bf030fb374fe7b412e82245aa28333488ac", "addresses": ["1LMZrFQAZT4qWj8gWyen6LvkbUokPc6M2F"], "asm": "OP_DUP OP_HASH160 d44e21539bf030fb374fe7b412e82245aa283334 OP_EQUALVERIFY OP_CHECKSIG", "type": "pubkeyhash"}, "value": 4.0, "n": 0}, {"scriptPubKey": {"reqSigs": 1, "hex": "a9146e634f68bd03c86f42ae1c73f04fc9a5420ff77887", "addresses": ["3BkhDqZyGxKKGXxBL763bjper5eJnDtc5s"], "asm": "OP_HASH160 6e634f68bd03c86f42ae1c73f04fc9a5420ff778 OP_EQUAL", "type": "scripthash"}, "value": 3.87894017, "n": 1}], "hex": "01000000000102d2cc184eebfbf1505ec23748b151aea8b8b4bdfbfa0d1938d38ebf600f12927b01000000171600146f4d0dac06749bff9548ec42da683aa59acba560ffffffff19f5904d95d5fa3b5b74da12d7f58a443155e2055fcd4ef322c3b39ed720c96a00000000171600142c77444aa93590d7159b521aa3d0af043a4d1e2effffffff020084d717000000001976a914d44e21539bf030fb374fe7b412e82245aa28333488ac01cb1e170000000017a9146e634f68bd03c86f42ae1c73f04fc9a5420ff7788702483045022100b8f478c7fe31dcea0990be32b10770650bef45543c04c5fbcaae71c07d1f3f34022043194a16af228af1f7bfa534c97b7ae61ac11d2b1c0650d737bd297fc98954de0121032ffb98578c2b04f4388be8f4a202106eaba8a93dbc41b200353b349bdff4074502483045022100a8d6ee6f2730269c64e34a698c07ffdb99c325efcf02f6112af3dc053bd6c58802207c0c66641919ba966bc804680cc1749774cbbb1e2fd4b87ec01e071a030c36ed012102d7b0f03b6b018e79bbbfbbaed2adcdd8a640fa5f7c3a7998437bdf336c247e9000000000", "vin": [{"txinwitness": ["3045022100b8f478c7fe31dcea0990be32b10770650bef45543c04c5fbcaae71c07d1f3f34022043194a16af228af1f7bfa534c97b7ae61ac11d2b1c0650d737bd297fc98954de01", "032ffb98578c2b04f4388be8f4a202106eaba8a93dbc41b200353b349bdff40745"], "sequence": 4294967295, "scriptSig": {"hex": "1600146f4d0dac06749bff9548ec42da683aa59acba560", "asm": "00146f4d0dac06749bff9548ec42da683aa59acba560"}, "vout": 1, "txid": "7b92120f60bf8ed338190dfafbbdb4b8a8ae51b14837c25e50f1fbeb4e18ccd2"}, {"txinwitness": ["3045022100a8d6ee6f2730269c64e34a698c07ffdb99c325efcf02f6112af3dc053bd6c58802207c0c66641919ba966bc804680cc1749774cbbb1e2fd4b87ec01e071a030c36ed01", "02d7b0f03b6b018e79bbbfbbaed2adcdd8a640fa5f7c3a7998437bdf336c247e90"], "sequence": 4294967295, "scriptSig": {"hex": "1600142c77444aa93590d7159b521aa3d0af043a4d1e2e", "asm": "00142c77444aa93590d7159b521aa3d0af043a4d1e2e"}, "vout": 0, "txid": "6ac920d79eb3c322f34ecd5f05e25531448af5d712da745b3bfad5954d90f519"}], "txid": "39db8eeed9c08286785ebd2c616df15762e5d106c28766dc558b5a4099fff46f", "blocktime": 1537874412, "version": 1, "confirmations": 11468, "time": 1537874412, "locktime": 0, "vsize": 259, "size": 422}