{"hash": "39e1a1489ef85d3afcf3311bd0ec872033b877039f847eba052b83b18eb34e82", "blockhash": "000000000000000000022b45ed06c6f4ccd3cf7fb5ba4856ebd2e58215665228", "vout": [{"scriptPubKey": {"reqSigs": 1, "hex": "76a914d0cf24ec4dd75730514db1fdef515ced2a62639988ac", "addresses": ["1L35hXz3GMhLVQDc7mpJrpMfpr3qaP55Xm"], "asm": "OP_DUP OP_HASH160 d0cf24ec4dd75730514db1fdef515ced2a626399 OP_EQUALVERIFY OP_CHECKSIG", "type": "pubkeyhash"}, "value": 0.00011081, "n": 0}], "hex": "0100000007cff1f9de75a7676189976a2a148cef14fc5b6896c589498959ecc4ef4e4f29112d0000006b483045022100df94aedb66498828ac070a4818e112fd676a4991bfc026836b08ed77638f39940220172c796e6a71ec8063d7a3264ad865f2fcc43a4dfa7349611e2a290216f0dbdd01210261cdc65a380ed42f4b03ac2816e4d75c01c7d9dbdf2a26223e083104384af9b0ffffffffea9e436c46fc1d7c310e9ad244f4042c970f94e083072477b28dc2284e813738040100006b4830450221008cd897adf15c0ab058bd83205ea4b813b8bbee4a29f9c24f2415f1717f695b5b0220171f4a44a0a57d0350ee6c4f57d738b04b88bd8f91a04604b13f970ddf5abf41012102798f8d64cb75bb20ec3750435ef02262d2606070c349b0da253fa2345e310e69ffffffff81493f678ffc84ccd0053a86f136718a133be5662255a54b28220eaa71f3623ea00000006a4730440220743cc65fd8620f96a3060d62c1b8c16758a27f87e2fb6cf0ba49cf2c0247c99802206759a7e2b07a7d6912c9a12b59eba22cc1189930014c784b8cdfd13ee68cb5d501210367a91042c3f0a65fccb1fb1126c324ed89d133378888913c4fcf549df2da2c8cffffffffcef273cb6ac92d72f4f8f37844cc7665c90d9b6a49da45b1f751cca055c61c40590100006b48304502210088f0f53255f7af3294f04fade5150fe295789606b0684d04b139499bc23140a402207d80420dcaae990089135c9d329cc482a26d3f21520f7dfe92966c9de57a25eb012102222cf5240d48b6b5972bacdb5bb75a06f471c73a3aa8808cb6dd710cb1b13d82ffffffff454371c55ddf4f7f25956f48f3513e5f5acd89991eff5fbd3ceb08ee24c06492d00600006a473044022051bec9eac969a91ebfe3df0d1c974f74c22feac4c04a8ce73b0544c3621fbb1c0220409e8c46ae9cf19f5e0f3f585b5258b2e12b3566759f99022fb34873bb002ed00121029296ee20650b7fd16528b49979105520e959f90f3318910678d82b6b05e70230ffffffff83c361ca8b1a25b6ad08cdcaa7c3830b2538d174c1120702b10a8057b843f0a7eb0200006a473044022051e1e36837260bbb31b30296faf3530f65ec7bc2e113027cf5a4806642f4d19b022011e7b2f54ad8f1564a53587cf2e1b57f5fd60d649987331a90f912059cdaf440012102f1c79b2b2393b093356ead16010317ca9cb5fb53b44d3f8ea464fc25a1570d78ffffffffb216cde6c502cb622f9c7490447b13e366aeebbb09283eefaf5f5d1ba21730b8740100006b483045022100f00d87b476d29701147df7edd83108a5037c2de3f1eef807f2208a0246503ed8022074b810b80e84402bc9e58b761f04c1c3173b1399b67c2a821ef9c242e401dadf0121027f79b5917907ff42c5314cc3011b2ee9734052606427543937f647c0921ccbe0ffffffff01492b0000000000001976a914d0cf24ec4dd75730514db1fdef515ced2a62639988ac00000000", "vin": [{"sequence": 4294967295, "scriptSig": {"hex": "483045022100df94aedb66498828ac070a4818e112fd676a4991bfc026836b08ed77638f39940220172c796e6a71ec8063d7a3264ad865f2fcc43a4dfa7349611e2a290216f0dbdd01210261cdc65a380ed42f4b03ac2816e4d75c01c7d9dbdf2a26223e083104384af9b0", "asm": "3045022100df94aedb66498828ac070a4818e112fd676a4991bfc026836b08ed77638f39940220172c796e6a71ec8063d7a3264ad865f2fcc43a4dfa7349611e2a290216f0dbdd[ALL] 0261cdc65a380ed42f4b03ac2816e4d75c01c7d9dbdf2a26223e083104384af9b0"}, "vout": 45, "txid": "11294f4eefc4ec59894989c596685bfc14ef8c142a6a97896167a775def9f1cf"}, {"sequence": 4294967295, "scriptSig": {"hex": "4830450221008cd897adf15c0ab058bd83205ea4b813b8bbee4a29f9c24f2415f1717f695b5b0220171f4a44a0a57d0350ee6c4f57d738b04b88bd8f91a04604b13f970ddf5abf41012102798f8d64cb75bb20ec3750435ef02262d2606070c349b0da253fa2345e310e69", "asm": "30450221008cd897adf15c0ab058bd83205ea4b813b8bbee4a29f9c24f2415f1717f695b5b0220171f4a44a0a57d0350ee6c4f57d738b04b88bd8f91a04604b13f970ddf5abf41[ALL] 02798f8d64cb75bb20ec3750435ef02262d2606070c349b0da253fa2345e310e69"}, "vout": 260, "txid": "3837814e28c28db277240783e0940f972c04f444d29a0e317c1dfc466c439eea"}, {"sequence": 4294967295, "scriptSig": {"hex": "4730440220743cc65fd8620f96a3060d62c1b8c16758a27f87e2fb6cf0ba49cf2c0247c99802206759a7e2b07a7d6912c9a12b59eba22cc1189930014c784b8cdfd13ee68cb5d501210367a91042c3f0a65fccb1fb1126c324ed89d133378888913c4fcf549df2da2c8c", "asm": "30440220743cc65fd8620f96a3060d62c1b8c16758a27f87e2fb6cf0ba49cf2c0247c99802206759a7e2b07a7d6912c9a12b59eba22cc1189930014c784b8cdfd13ee68cb5d5[ALL] 0367a91042c3f0a65fccb1fb1126c324ed89d133378888913c4fcf549df2da2c8c"}, "vout": 160, "txid": "3e62f371aa0e22284ba5552266e53b138a7136f1863a05d0cc84fc8f673f4981"}, {"sequence": 4294967295, "scriptSig": {"hex": "48304502210088f0f53255f7af3294f04fade5150fe295789606b0684d04b139499bc23140a402207d80420dcaae990089135c9d329cc482a26d3f21520f7dfe92966c9de57a25eb012102222cf5240d48b6b5972bacdb5bb75a06f471c73a3aa8808cb6dd710cb1b13d82", "asm": "304502210088f0f53255f7af3294f04fade5150fe295789606b0684d04b139499bc23140a402207d80420dcaae990089135c9d329cc482a26d3f21520f7dfe92966c9de57a25eb[ALL] 02222cf5240d48b6b5972bacdb5bb75a06f471c73a3aa8808cb6dd710cb1b13d82"}, "vout": 345, "txid": "401cc655a0cc51f7b145da496a9b0dc96576cc4478f3f8f4722dc96acb73f2ce"}, {"sequence": 4294967295, "scriptSig": {"hex": "473044022051bec9eac969a91ebfe3df0d1c974f74c22feac4c04a8ce73b0544c3621fbb1c0220409e8c46ae9cf19f5e0f3f585b5258b2e12b3566759f99022fb34873bb002ed00121029296ee20650b7fd16528b49979105520e959f90f3318910678d82b6b05e70230", "asm": "3044022051bec9eac969a91ebfe3df0d1c974f74c22feac4c04a8ce73b0544c3621fbb1c0220409e8c46ae9cf19f5e0f3f585b5258b2e12b3566759f99022fb34873bb002ed0[ALL] 029296ee20650b7fd16528b49979105520e959f90f3318910678d82b6b05e70230"}, "vout": 1744, "txid": "9264c024ee08eb3cbd5fff1e9989cd5a5f3e51f3486f95257f4fdf5dc5714345"}, {"sequence": 4294967295, "scriptSig": {"hex": "473044022051e1e36837260bbb31b30296faf3530f65ec7bc2e113027cf5a4806642f4d19b022011e7b2f54ad8f1564a53587cf2e1b57f5fd60d649987331a90f912059cdaf440012102f1c79b2b2393b093356ead16010317ca9cb5fb53b44d3f8ea464fc25a1570d78", "asm": "3044022051e1e36837260bbb31b30296faf3530f65ec7bc2e113027cf5a4806642f4d19b022011e7b2f54ad8f1564a53587cf2e1b57f5fd60d649987331a90f912059cdaf440[ALL] 02f1c79b2b2393b093356ead16010317ca9cb5fb53b44d3f8ea464fc25a1570d78"}, "vout": 747, "txid": "a7f043b857800ab1020712c174d138250b83c3a7cacd08adb6251a8bca61c383"}, {"sequence": 4294967295, "scriptSig": {"hex": "483045022100f00d87b476d29701147df7edd83108a5037c2de3f1eef807f2208a0246503ed8022074b810b80e84402bc9e58b761f04c1c3173b1399b67c2a821ef9c242e401dadf0121027f79b5917907ff42c5314cc3011b2ee9734052606427543937f647c0921ccbe0", "asm": "3045022100f00d87b476d29701147df7edd83108a5037c2de3f1eef807f2208a0246503ed8022074b810b80e84402bc9e58b761f04c1c3173b1399b67c2a821ef9c242e401dadf[ALL] 027f79b5917907ff42c5314cc3011b2ee9734052606427543937f647c0921ccbe0"}, "vout": 372, "txid": "b83017a21b5d5fafef3e2809bbebae66e3137b4490749c2f62cb02c5e6cd16b2"}], "txid": "39e1a1489ef85d3afcf3311bd0ec872033b877039f847eba052b83b18eb34e82", "blocktime": 1537869901, "version": 1, "confirmations": 11524, "time": 1537869901, "locktime": 0, "vsize": 1077, "size": 1077}