{"hash": "2c66cbb0baaf431fc9bf2366d3c1032905876580368e2a56c0743064576ecc77", "blockhash": "000000000000000000022b45ed06c6f4ccd3cf7fb5ba4856ebd2e58215665228", "vout": [{"scriptPubKey": {"reqSigs": 1, "hex": "a914351578cc6e823f7f284be36881057fa90291f33c87", "addresses": ["36XhTbtk8rwgUwWHBqAnNxNWtEL6CRi5gb"], "asm": "OP_HASH160 351578cc6e823f7f284be36881057fa90291f33c OP_EQUAL", "type": "scripthash"}, "value": 0.00139608, "n": 0}, {"scriptPubKey": {"reqSigs": 1, "hex": "001498f410bc5f54679f1635d872fffa7fc34e83c442", "addresses": ["bc1qnr6pp0zl23ne7934mpe0l7nlcd8g83zzx3fut0"], "asm": "0 98f410bc5f54679f1635d872fffa7fc34e83c442", "type": "witness_v0_keyhash"}, "value": 1.15e-05, "n": 1}], "hex": "01000000000101f29cf6ea19a93949f3cb5eba667069a2e67fdf74a90e58bb41d50d10f6c9f6ca0000000000ffffffff02582102000000000017a914351578cc6e823f7f284be36881057fa90291f33c877e0400000000000016001498f410bc5f54679f1635d872fffa7fc34e83c44202483045022100dcdeb5ad51dca5ff067280df2c48f2563a3218f680be3e8bc624f4bc4222916702202e0db627887213c03ed6eb42b2aee81950a5560591a147ec6cf78e29f2fdb260012102fb2c157e144bdac5b534863fdb2522765f31d3c1d13fc0299e25e3eb5c53a21a00000000", "vin": [{"txinwitness": ["3045022100dcdeb5ad51dca5ff067280df2c48f2563a3218f680be3e8bc624f4bc4222916702202e0db627887213c03ed6eb42b2aee81950a5560591a147ec6cf78e29f2fdb26001", "02fb2c157e144bdac5b534863fdb2522765f31d3c1d13fc0299e25e3eb5c53a21a"], "sequence": 4294967295, "scriptSig": {"hex": "", "asm": ""}, "vout": 0, "txid": "caf6c9f6100dd541bb580ea974df7fe6a2697066ba5ecbf34939a919eaf69cf2"}], "txid": "39e39a890b17b89833c39ef076b7f50016abf03893c58164795b6ca27951052a", "blocktime": 1537869901, "version": 1, "confirmations": 11523, "time": 1537869901, "locktime": 0, "vsize": 142, "size": 224}