{"hash": "39e308908eda7c6dc8f6dab9d8aac5bbc4c4f8b74cd9903cc648df810069061f", "blockhash": "0000000000000000000e13cef7c366c0283d82e591d1acd082e914b08063cdf1", "vout": [{"scriptPubKey": {"reqSigs": 1, "hex": "a9143e6f15908582f42917ec31e39bf8722fc9d5db3f87", "addresses": ["37P8thrtDXb6Di5E7f4FL3bpzum3fhUvT7"], "asm": "OP_HASH160 3e6f15908582f42917ec31e39bf8722fc9d5db3f OP_EQUAL", "type": "scripthash"}, "value": 0.0002, "n": 0}, {"scriptPubKey": {"reqSigs": 1, "hex": "76a914a52dc1cff692810dfe9a918f6d2dbd3504fb3ffb88ac", "addresses": ["1G4PJum2iB4giFQFpQj8RqzfbKegvWEJXV"], "asm": "OP_DUP OP_HASH160 a52dc1cff692810dfe9a918f6d2dbd3504fb3ffb OP_EQUALVERIFY OP_CHECKSIG", "type": "pubkeyhash"}, "value": 0.17803984, "n": 1}], "hex": "01000000010bad862195a797e591653126f3dd6365b5eb89546cece46021c416f9617bf7851a0000006b483045022100e38bfbec1c2025ea8a9faeaf15833612f8eaf2b55e11af6d800abadb8100e32f02207b54ac4db0fa2bc1e539d8cac2e7e34f9eb38f4330d733a77a68e8b69632bac1012103a3a245e8d9ece403052f0a612b108368ecd9508670183c14fadd19c7f24ce731ffffffff02204e00000000000017a9143e6f15908582f42917ec31e39bf8722fc9d5db3f87d0aa0f01000000001976a914a52dc1cff692810dfe9a918f6d2dbd3504fb3ffb88ac00000000", "vin": [{"sequence": 4294967295, "scriptSig": {"hex": "483045022100e38bfbec1c2025ea8a9faeaf15833612f8eaf2b55e11af6d800abadb8100e32f02207b54ac4db0fa2bc1e539d8cac2e7e34f9eb38f4330d733a77a68e8b69632bac1012103a3a245e8d9ece403052f0a612b108368ecd9508670183c14fadd19c7f24ce731", "asm": "3045022100e38bfbec1c2025ea8a9faeaf15833612f8eaf2b55e11af6d800abadb8100e32f02207b54ac4db0fa2bc1e539d8cac2e7e34f9eb38f4330d733a77a68e8b69632bac1[ALL] 03a3a245e8d9ece403052f0a612b108368ecd9508670183c14fadd19c7f24ce731"}, "vout": 26, "txid": "85f77b61f916c42160e4ec6c5489ebb56563ddf326316591e597a7952186ad0b"}], "txid": "39e308908eda7c6dc8f6dab9d8aac5bbc4c4f8b74cd9903cc648df810069061f", "blocktime": 1537871767, "version": 1, "confirmations": 11490, "time": 1537871767, "locktime": 0, "vsize": 224, "size": 224}