{"hash": "39e74b116e8941a51e53003adb889c7050d081db88fba84c5b2137c193ad5706", "blockhash": "0000000000000000001e0dab787dd257d1dbfcb92a98c2207d5e1078be1f4165", "vout": [{"scriptPubKey": {"reqSigs": 1, "hex": "76a91488d924f51033b74a895863a5fb57fd545529df7d88ac", "addresses": ["1DUb2YYbQA1jjaNYzVXLZ7ZioEhLXtbUru"], "asm": "OP_DUP OP_HASH160 88d924f51033b74a895863a5fb57fd545529df7d OP_EQUALVERIFY OP_CHECKSIG", "type": "pubkeyhash"}, "value": 1.05352279, "n": 0}, {"scriptPubKey": {"type": "nulldata", "hex": "6a146f6d6e69000000000000001f00000000caa7e200", "asm": "OP_RETURN 6f6d6e69000000000000001f00000000caa7e200"}, "value": 0.0, "n": 1}, {"scriptPubKey": {"reqSigs": 1, "hex": "76a91464992fbb5c47a6a95bbd4eabf0610b26b8a51b4d88ac", "addresses": ["1AAv5mLL1keNKNSMnqgqABMVEkxUCqUwRx"], "asm": "OP_DUP OP_HASH160 64992fbb5c47a6a95bbd4eabf0610b26b8a51b4d OP_EQUALVERIFY OP_CHECKSIG", "type": "pubkeyhash"}, "value": 5.46e-06, "n": 2}], "hex": "010000000154225757b568ad52a2a9b1ff78664653f9467da4663824e7f0524fabb5e21852020000006a47304402202df2418668659b3d2a4a658d07bcacd1058dc8e25674ad9c35dc285c2be320a10220404f5aef3821c8d22d34eead4152cf53d3647101bc0d51b41ee28bcec62f31730121030888863fcb4cdf5b7d33b40e613af35df8f39d576e7972238b0d396cd3fcc3f2feffffff03578c4706000000001976a91488d924f51033b74a895863a5fb57fd545529df7d88ac0000000000000000166a146f6d6e69000000000000001f00000000caa7e20022020000000000001976a91464992fbb5c47a6a95bbd4eabf0610b26b8a51b4d88ac12490800", "vin": [{"sequence": 4294967294, "scriptSig": {"hex": "47304402202df2418668659b3d2a4a658d07bcacd1058dc8e25674ad9c35dc285c2be320a10220404f5aef3821c8d22d34eead4152cf53d3647101bc0d51b41ee28bcec62f31730121030888863fcb4cdf5b7d33b40e613af35df8f39d576e7972238b0d396cd3fcc3f2", "asm": "304402202df2418668659b3d2a4a658d07bcacd1058dc8e25674ad9c35dc285c2be320a10220404f5aef3821c8d22d34eead4152cf53d3647101bc0d51b41ee28bcec62f3173[ALL] 030888863fcb4cdf5b7d33b40e613af35df8f39d576e7972238b0d396cd3fcc3f2"}, "vout": 2, "txid": "5218e2b5ab4f52f0e7243866a47d46f953466678ffb1a9a252ad68b557572254"}], "txid": "39e74b116e8941a51e53003adb889c7050d081db88fba84c5b2137c193ad5706", "blocktime": 1537872475, "version": 1, "confirmations": 11486, "time": 1537872475, "locktime": 542994, "vsize": 256, "size": 256}