{"hash": "d6982d40ed21aba0abba12672c59089cf511e9f608fd7145e8704324b926bb83", "blockhash": "00000000000000000017f5eb5941039fbcee6240d03bc1f2f8e35350df66a1d8", "vout": [{"scriptPubKey": {"reqSigs": 1, "hex": "76a914d7677aebc2fe8a1838f2a88be91df9f65c4dce8288ac", "addresses": ["1LdxFAvanNwe7jLtqwhkGvkL8Md7pCWb1H"], "asm": "OP_DUP OP_HASH160 d7677aebc2fe8a1838f2a88be91df9f65c4dce82 OP_EQUALVERIFY OP_CHECKSIG", "type": "pubkeyhash"}, "value": 0.00095, "n": 0}, {"scriptPubKey": {"reqSigs": 1, "hex": "0014a6a70ae391a90f4bc20caf1e1b53221199c7cf28", "addresses": ["bc1q56ns4cu34y85hssv4u0pk5ezzxvu0negek84rj"], "asm": "0 a6a70ae391a90f4bc20caf1e1b53221199c7cf28", "type": "witness_v0_keyhash"}, "value": 0.00103552, "n": 1}], "hex": "01000000000101ee0acc0a48083e06ef4208e5693b095cb64220ed40da58d64d90e2ae68603c6770000000171600143cc75018674035c63eb1eb15b657e35bd74d2f07ffffffff0218730100000000001976a914d7677aebc2fe8a1838f2a88be91df9f65c4dce8288ac8094010000000000160014a6a70ae391a90f4bc20caf1e1b53221199c7cf2802483045022100fa35ca392a5506819a091ca1dff369dd651f043ce4aef0b27be382861d5bc7640220717034f39d76589737db202422adf0e2a062ef8ab081a40a553f0e84293ce331012102a91c2c03925b007f108a36a46e160d8965df77583dfeb32c7b02900deda5442d00000000", "vin": [{"txinwitness": ["3045022100fa35ca392a5506819a091ca1dff369dd651f043ce4aef0b27be382861d5bc7640220717034f39d76589737db202422adf0e2a062ef8ab081a40a553f0e84293ce33101", "02a91c2c03925b007f108a36a46e160d8965df77583dfeb32c7b02900deda5442d"], "sequence": 4294967295, "scriptSig": {"hex": "1600143cc75018674035c63eb1eb15b657e35bd74d2f07", "asm": "00143cc75018674035c63eb1eb15b657e35bd74d2f07"}, "vout": 112, "txid": "673c6068aee2904dd658da40ed2042b65c093b69e50842ef063e08480acc0aee"}], "txid": "39e8ee938eabab9a15f3e19da2a0490f697caadc21d6e993cf6e9e76e4052aad", "blocktime": 1537874412, "version": 1, "confirmations": 11467, "time": 1537874412, "locktime": 0, "vsize": 167, "size": 249}