{"hash": "3bf9ab689ff4d3264d22c4b1a68f526f2e2dcccc662debc8815dcbb524a8fdb1", "blockhash": "0000000000000000001cda96e906b7601b7a6fb1a3b62bca570a9e5d8f4b3de1", "vout": [{"scriptPubKey": {"reqSigs": 1, "hex": "a91456ced3fcf82bf0e2e8fac928d23a5da70c34cc7287", "addresses": ["39c1oi22CgAD6eQ4ynnGX7ZGUCkPqp3dKL"], "asm": "OP_HASH160 56ced3fcf82bf0e2e8fac928d23a5da70c34cc72 OP_EQUAL", "type": "scripthash"}, "value": 0.0543, "n": 0}], "hex": "0100000000010a8994926417a0c58acde84490240005074b6405ba6ad0aee4f62a4122a4f07c9201000000171600143ca0217e25ca83bb9adb3b1e331e49cfcaea2513fdffffffef4a02e9f602ab3967c591ab1de15a526e42474f6421f5d40b781c8e800add0e0000000017160014bb7bd9acc522d050ce65bd351aa21a3482fd6d37fdffffffe5caf470e927cc670071879287184ff68ae39f200605ffa581a7435a0d10717c0000000017160014edf11c7ae7f05c60e5d5811040cf9fbdb7f98100fdffffffa0799e309ae22a5b456aadad9585bae81f3764316428f9e0e98585cdbf2bd0740000000017160014a64101bab71f1b3dae60dccec41ed3671443cd6dfdffffff68b419c43f94793d1430b8109b6b6c5aa6d8b5c5ef66981762319c51677e73cb01000000171600143b31af8b59f6db2f362414a382654adb43a475f5fdffffff3265510e250efdaa30508f67c8015e4c34ac8ddd6a74d1f20c98f420e8f79650000000001716001411b90b71496517a7d72b24fc4559fa3e68f99a68fdffffffe0a27791b4ebe763aa47f88f95e8d72cd28e716a510c386367d0edd43018d9a600000000171600149af1c28364c04c0f8c127a0d7f873959125e186efdffffffe3111b949ae21ca70a371045348301ac10337b3b74e9a46df5d9cea20194173400000000171600145b75d561ec35ad5ed4349113b6a8c65de152cf0bfdffffff430db41b8d4c5a72f2feaca68858e6116085cbce2c755ebb4971befb7b5492b801000000171600147d123fb9889d8355acf75bf0ec8a17a10c451701fdffffffc4a2fa4d03e60b50aa13e20a599e74da67aa1abc5325046fe8c812b33c827207010000001716001446d53d04f6a71dcb77e522869111cac190f8bd57fdffffff01f0da52000000000017a91456ced3fcf82bf0e2e8fac928d23a5da70c34cc72870247304402202cf7b88f39c5854e310de6cccea1b7fdb25b9c41c18a65ef4a3e86556c297f130220372d8cbbf5c1b6fdec4d6c346adf19b9a64b45c5f78953bd62a9d89028421428012102aeb15f18c5c4685fe8b2473c0fb78ba3f34b7765cd0ded0a17e3579699523bc902483045022100e1c9af3469d7142854ebfcc0b7e0eb45f90191f2bffb185f7cefa88d2ea6b041022046a4f62d2adc5390f04838ecbe553b384392bf6586d7f8d04b78db899fdbfa51012102815dc9873beb89273f0d3c8a4f0c567e0c8caa3c871ba74e61e723075088706d02483045022100c7aac71b86cb42502d8f67330394516f6c5ac440b6575cb07e63723d4f02c9b502207761b1930fe58357dd77cdcb7c84b3552393de7c7d8b1aa4e369037f9e19a8210121028de0f81bbc260a2185f4b955aa68a9d0fd327212e2cc506cc95cb9abe366c21802483045022100888d3ce8fc1a9676e3a566df58165e72ea7df0a5ab3415099056d64f2bcffaeb02205e013f722369dc22a0eabf2b3cd5afcd214df7917b45404d38fdbf93510e200401210308856efeb17a1e91df0305176f810bcd985e411e88d9549bebe50fd8a986ac310248304502210091d45d9ae0e3a5dafd8b37c251a9fec43b91a81e50c6a48249b955d12c47989e02203d9cf94bb59eb77888e1d2b84bc2bda9fccd68ea0e256fe84062abb1af36d14d012103d6de0b2a3256404e869124ba270ca696b35c9ee5aa2a0faf1a67183645a9a9b3024730440220206ef0c1534702c2bdd0640fb9a4a7b1cd32be051577f3a800febce72101af9502205bbaade4a229bb16675ed456f9887b8dc1bd7c0f4a882b2fedecb074637e77de01210361342720480dd4c8a57ad24b1086a60a6c021c4c6fec14c10fb3c959cc7041a102483045022100f5b3e848d640d612aa486a3f32ee1f9fe7ee8d6be027d9bc173c42fa0efe2a44022044dbb4142e0ce5342149ce3ef4932ee74bdb97ef25de7fc54eb1838e38e1bf4f012103644745e82e5084aa4f67f9589a615900e1bbafc2386bacf8a3e5d596cdb60a05024830450221009d3a931f47007670329e5ed66de741ab462c0d4bdddd2a6da1e6d95ae982df66022057f5fa5ff363f7a342303cb14d66d78c15945b3f018a100659fda0850f2bf6e3012103dcaaed1c5f69fa9f0b6bcef9153aa88599dc6142d86832ea29e3e35c4f74675002483045022100b9faaeafd36926cd3c29cd4fe56bbe0ed9f4550460b7d9121635d6a5d471619b02202da4189f13f44ba01b7eefa269732171fff650c25002e74a8b1a68aa243dade80121035959cbf12838da52fd450cb67c04ceb18904cd04e6b65ffd036c1b497094d91502483045022100d77f83e683a71f83915fec2fd8ee77adf5e3d1c0f382c9458e6f73faac0f1c250220382e1d74b58a3764ff4b6f24434c3afb77d41363a0715b9c068018e96bf856ea012103afa10b83928a7c2f4837ab83283bfccc9f8f420ab49b4b01dd4d0661d3947edb13490800", "vin": [{"txinwitness": ["304402202cf7b88f39c5854e310de6cccea1b7fdb25b9c41c18a65ef4a3e86556c297f130220372d8cbbf5c1b6fdec4d6c346adf19b9a64b45c5f78953bd62a9d8902842142801", "02aeb15f18c5c4685fe8b2473c0fb78ba3f34b7765cd0ded0a17e3579699523bc9"], "sequence": 4294967293, "scriptSig": {"hex": "1600143ca0217e25ca83bb9adb3b1e331e49cfcaea2513", "asm": "00143ca0217e25ca83bb9adb3b1e331e49cfcaea2513"}, "vout": 1, "txid": "927cf0a422412af6e4aed06aba05644b070500249044e8cd8ac5a01764929489"}, {"txinwitness": ["3045022100e1c9af3469d7142854ebfcc0b7e0eb45f90191f2bffb185f7cefa88d2ea6b041022046a4f62d2adc5390f04838ecbe553b384392bf6586d7f8d04b78db899fdbfa5101", "02815dc9873beb89273f0d3c8a4f0c567e0c8caa3c871ba74e61e723075088706d"], "sequence": 4294967293, "scriptSig": {"hex": "160014bb7bd9acc522d050ce65bd351aa21a3482fd6d37", "asm": "0014bb7bd9acc522d050ce65bd351aa21a3482fd6d37"}, "vout": 0, "txid": "0edd0a808e1c780bd4f521644f47426e525ae11dab91c56739ab02f6e9024aef"}, {"txinwitness": ["3045022100c7aac71b86cb42502d8f67330394516f6c5ac440b6575cb07e63723d4f02c9b502207761b1930fe58357dd77cdcb7c84b3552393de7c7d8b1aa4e369037f9e19a82101", "028de0f81bbc260a2185f4b955aa68a9d0fd327212e2cc506cc95cb9abe366c218"], "sequence": 4294967293, "scriptSig": {"hex": "160014edf11c7ae7f05c60e5d5811040cf9fbdb7f98100", "asm": "0014edf11c7ae7f05c60e5d5811040cf9fbdb7f98100"}, "vout": 0, "txid": "7c71100d5a43a781a5ff0506209fe38af64f18879287710067cc27e970f4cae5"}, {"txinwitness": ["3045022100888d3ce8fc1a9676e3a566df58165e72ea7df0a5ab3415099056d64f2bcffaeb02205e013f722369dc22a0eabf2b3cd5afcd214df7917b45404d38fdbf93510e200401", "0308856efeb17a1e91df0305176f810bcd985e411e88d9549bebe50fd8a986ac31"], "sequence": 4294967293, "scriptSig": {"hex": "160014a64101bab71f1b3dae60dccec41ed3671443cd6d", "asm": "0014a64101bab71f1b3dae60dccec41ed3671443cd6d"}, "vout": 0, "txid": "74d02bbfcd8585e9e0f928643164371fe8ba8595adad6a455b2ae29a309e79a0"}, {"txinwitness": ["304502210091d45d9ae0e3a5dafd8b37c251a9fec43b91a81e50c6a48249b955d12c47989e02203d9cf94bb59eb77888e1d2b84bc2bda9fccd68ea0e256fe84062abb1af36d14d01", "03d6de0b2a3256404e869124ba270ca696b35c9ee5aa2a0faf1a67183645a9a9b3"], "sequence": 4294967293, "scriptSig": {"hex": "1600143b31af8b59f6db2f362414a382654adb43a475f5", "asm": "00143b31af8b59f6db2f362414a382654adb43a475f5"}, "vout": 1, "txid": "cb737e67519c3162179866efc5b5d8a65a6c6b9b10b830143d79943fc419b468"}, {"txinwitness": ["30440220206ef0c1534702c2bdd0640fb9a4a7b1cd32be051577f3a800febce72101af9502205bbaade4a229bb16675ed456f9887b8dc1bd7c0f4a882b2fedecb074637e77de01", "0361342720480dd4c8a57ad24b1086a60a6c021c4c6fec14c10fb3c959cc7041a1"], "sequence": 4294967293, "scriptSig": {"hex": "16001411b90b71496517a7d72b24fc4559fa3e68f99a68", "asm": "001411b90b71496517a7d72b24fc4559fa3e68f99a68"}, "vout": 0, "txid": "5096f7e820f4980cf2d1746add8dac344c5e01c8678f5030aafd0e250e516532"}, {"txinwitness": ["3045022100f5b3e848d640d612aa486a3f32ee1f9fe7ee8d6be027d9bc173c42fa0efe2a44022044dbb4142e0ce5342149ce3ef4932ee74bdb97ef25de7fc54eb1838e38e1bf4f01", "03644745e82e5084aa4f67f9589a615900e1bbafc2386bacf8a3e5d596cdb60a05"], "sequence": 4294967293, "scriptSig": {"hex": "1600149af1c28364c04c0f8c127a0d7f873959125e186e", "asm": "00149af1c28364c04c0f8c127a0d7f873959125e186e"}, "vout": 0, "txid": "a6d91830d4edd06763380c516a718ed22cd7e8958ff847aa63e7ebb49177a2e0"}, {"txinwitness": ["30450221009d3a931f47007670329e5ed66de741ab462c0d4bdddd2a6da1e6d95ae982df66022057f5fa5ff363f7a342303cb14d66d78c15945b3f018a100659fda0850f2bf6e301", "03dcaaed1c5f69fa9f0b6bcef9153aa88599dc6142d86832ea29e3e35c4f746750"], "sequence": 4294967293, "scriptSig": {"hex": "1600145b75d561ec35ad5ed4349113b6a8c65de152cf0b", "asm": "00145b75d561ec35ad5ed4349113b6a8c65de152cf0b"}, "vout": 0, "txid": "34179401a2ced9f56da4e9743b7b3310ac0183344510370aa71ce29a941b11e3"}, {"txinwitness": ["3045022100b9faaeafd36926cd3c29cd4fe56bbe0ed9f4550460b7d9121635d6a5d471619b02202da4189f13f44ba01b7eefa269732171fff650c25002e74a8b1a68aa243dade801", "035959cbf12838da52fd450cb67c04ceb18904cd04e6b65ffd036c1b497094d915"], "sequence": 4294967293, "scriptSig": {"hex": "1600147d123fb9889d8355acf75bf0ec8a17a10c451701", "asm": "00147d123fb9889d8355acf75bf0ec8a17a10c451701"}, "vout": 1, "txid": "b892547bfbbe7149bb5e752ccecb856011e65888a6acfef2725a4c8d1bb40d43"}, {"txinwitness": ["3045022100d77f83e683a71f83915fec2fd8ee77adf5e3d1c0f382c9458e6f73faac0f1c250220382e1d74b58a3764ff4b6f24434c3afb77d41363a0715b9c068018e96bf856ea01", "03afa10b83928a7c2f4837ab83283bfccc9f8f420ab49b4b01dd4d0661d3947edb"], "sequence": 4294967293, "scriptSig": {"hex": "16001446d53d04f6a71dcb77e522869111cac190f8bd57", "asm": "001446d53d04f6a71dcb77e522869111cac190f8bd57"}, "vout": 1, "txid": "0772823cb312c8e86f042553bc1aaa67da749e590ae213aa500be6034dfaa2c4"}], "txid": "39eb9d85e8c43b484a2dae4583dc8fd0b0a9aacaa5395d927c4ccae33b87ef33", "blocktime": 1537873282, "version": 1, "confirmations": 11485, "time": 1537873282, "locktime": 542995, "vsize": 952, "size": 1762}