{"hash": "78208ffd4e721c2df3fa3d892b073e04ac27ed7b33208ffe8e409b1e5b77f6c7", "blockhash": "000000000000000000205f8b0775d31398ef75b89a5e8ec8d2c57b4dc0ac4c20", "vout": [{"scriptPubKey": {"reqSigs": 1, "hex": "001468407ad1d5783d109f1f2f5e070af41be1333fc7", "addresses": ["bc1qdpq845w40q73p8cl9a0qwzh5r0snx078eu5dqy"], "asm": "0 68407ad1d5783d109f1f2f5e070af41be1333fc7", "type": "witness_v0_keyhash"}, "value": 0.13036988, "n": 0}, {"scriptPubKey": {"reqSigs": 1, "hex": "a914eb10cdf0e1a2e5617fabc629d5e677b6453b95c487", "addresses": ["3P7vrDbi5QVUyUZbFHLB158PPm2FfdWkR7"], "asm": "OP_HASH160 eb10cdf0e1a2e5617fabc629d5e677b6453b95c4 OP_EQUAL", "type": "scripthash"}, "value": 0.15, "n": 1}], "hex": "010000000001025379409262ec9b46077efbc6a20f58f744b9b016b858e2e0154284475eef6dc40100000017160014fefc921f495c619ccd25099e1f729b574a8d67dbffffffffcc38c7451b4ad9ceb05d9b631632ac393777ecb25c351d58627c99da6c32c6440100000000ffffffff02bcedc6000000000016001468407ad1d5783d109f1f2f5e070af41be1333fc7c0e1e4000000000017a914eb10cdf0e1a2e5617fabc629d5e677b6453b95c4870247304402201f5ad0d7855ec1b05d596f76f89f293a0cbc727b1908c1433167a382b3d270c202205e2dce4472ef955d5f6ccaadb4ecc8401432fa1e47d9bddc6c6329bb29ff08d9012102cec414ef81d6ff7c8d40faa0c4e3971c8300d88f54f3e2b2aba0ae0d39fa99e102483045022100d92e8439dd34b2f0469e4983f60b916067f6bc88b70dfdeb6c5943b8b16fc16602206dc908ebef93d945bcb0cce88d30ac74ae1c840226b6e9d94a1df8daffc89d08012102f49bc6679af407d7f01cead8a4ee095fdbb632f82b172e00ecc07d41dc68e92100000000", "vin": [{"txinwitness": ["304402201f5ad0d7855ec1b05d596f76f89f293a0cbc727b1908c1433167a382b3d270c202205e2dce4472ef955d5f6ccaadb4ecc8401432fa1e47d9bddc6c6329bb29ff08d901", "02cec414ef81d6ff7c8d40faa0c4e3971c8300d88f54f3e2b2aba0ae0d39fa99e1"], "sequence": 4294967295, "scriptSig": {"hex": "160014fefc921f495c619ccd25099e1f729b574a8d67db", "asm": "0014fefc921f495c619ccd25099e1f729b574a8d67db"}, "vout": 1, "txid": "c46def5e47844215e0e258b816b0b944f7580fa2c6fb7e07469bec6292407953"}, {"txinwitness": ["3045022100d92e8439dd34b2f0469e4983f60b916067f6bc88b70dfdeb6c5943b8b16fc16602206dc908ebef93d945bcb0cce88d30ac74ae1c840226b6e9d94a1df8daffc89d0801", "02f49bc6679af407d7f01cead8a4ee095fdbb632f82b172e00ecc07d41dc68e921"], "sequence": 4294967295, "scriptSig": {"hex": "", "asm": ""}, "vout": 1, "txid": "44c6326cda997c62581d355cb2ec773739ac3216639b5db0ced94a1b45c738cc"}], "txid": "39f4ecf6e4197abad55c920b360aac3d12c4b038938a7670d4b6a9e5c617bc40", "blocktime": 1537871175, "version": 1, "confirmations": 11510, "time": 1537871175, "locktime": 0, "vsize": 233, "size": 395}