{"hash": "39f5ffe93ef284fb26e840b1cfd2e2452ae1ed29e9e650b5754ab5ca0e350506", "blockhash": "0000000000000000001cda96e906b7601b7a6fb1a3b62bca570a9e5d8f4b3de1", "vout": [{"scriptPubKey": {"reqSigs": 1, "hex": "76a9143039c5f9076a4203afac00314e939de156986b7188ac", "addresses": ["15PzeNRFyMfPgcfkmFsgc2hmeWBDskVddc"], "asm": "OP_DUP OP_HASH160 3039c5f9076a4203afac00314e939de156986b71 OP_EQUALVERIFY OP_CHECKSIG", "type": "pubkeyhash"}, "value": 0.01981539, "n": 0}, {"scriptPubKey": {"reqSigs": 1, "hex": "76a914e1f49c706727bebba25a02f80f9f0e9955cfd7ec88ac", "addresses": ["1Mbk53DzVKCz6MHiBd8ZHkPhsZETo7PtZR"], "asm": "OP_DUP OP_HASH160 e1f49c706727bebba25a02f80f9f0e9955cfd7ec OP_EQUALVERIFY OP_CHECKSIG", "type": "pubkeyhash"}, "value": 2.91271841, "n": 1}], "hex": "02000000015873e21b8b39a1f7e4349ad542d6ca2839ca3442903c3f756c468948755343d8000000006a4730440220609b037179bb539913c2de0879173a0cbb760b06274ce9dcdb023b51c6eb83fd022016f8d255dff81bb57547b7b1c4bc61258b97ca98cbc216e32fed60a9a761362f012102841aaf6106ac43e1d02fb6c0363b1af4e214eb6f96281813775be283f8abd4daffffffff02633c1e00000000001976a9143039c5f9076a4203afac00314e939de156986b7188aca1745c11000000001976a914e1f49c706727bebba25a02f80f9f0e9955cfd7ec88ac00000000", "vin": [{"sequence": 4294967295, "scriptSig": {"hex": "4730440220609b037179bb539913c2de0879173a0cbb760b06274ce9dcdb023b51c6eb83fd022016f8d255dff81bb57547b7b1c4bc61258b97ca98cbc216e32fed60a9a761362f012102841aaf6106ac43e1d02fb6c0363b1af4e214eb6f96281813775be283f8abd4da", "asm": "30440220609b037179bb539913c2de0879173a0cbb760b06274ce9dcdb023b51c6eb83fd022016f8d255dff81bb57547b7b1c4bc61258b97ca98cbc216e32fed60a9a761362f[ALL] 02841aaf6106ac43e1d02fb6c0363b1af4e214eb6f96281813775be283f8abd4da"}, "vout": 0, "txid": "d84353754889466c753f3c904234ca3928cad642d59a34e4f7a1398b1be27358"}], "txid": "39f5ffe93ef284fb26e840b1cfd2e2452ae1ed29e9e650b5754ab5ca0e350506", "blocktime": 1537873282, "version": 2, "confirmations": 11481, "time": 1537873282, "locktime": 0, "vsize": 225, "size": 225}