{"hash": "d651bad68a8d83b195b512bd1194e66d68e93a75effbf8cbbb054579757985cf", "blockhash": "000000000000000000022b45ed06c6f4ccd3cf7fb5ba4856ebd2e58215665228", "vout": [{"scriptPubKey": {"reqSigs": 1, "hex": "a914096ae4b3e0cb3164577f65ac3e4f7b1a02eb7d3487", "addresses": ["32Yp4MMaX51YEZpXTUrV1BjzsxCF7BSkPM"], "asm": "OP_HASH160 096ae4b3e0cb3164577f65ac3e4f7b1a02eb7d34 OP_EQUAL", "type": "scripthash"}, "value": 0.00831262, "n": 0}, {"scriptPubKey": {"reqSigs": 1, "hex": "a914bd3f53587b3c8abb9ca25f130e2995eaa6cb212787", "addresses": ["3JwfVjikGMBiSVmP8kosqMpVwh3ySwiiYV"], "asm": "OP_HASH160 bd3f53587b3c8abb9ca25f130e2995eaa6cb2127 OP_EQUAL", "type": "scripthash"}, "value": 0.6284608, "n": 1}], "hex": "02000000000101a90d67ed737e7ddd1f30a040b5cdc38056e97dca0be2c1fa4957ee3c28b3acb901000000171600147dbd0db94fc3620f25229fbd8e25ea19098eb6b7ffffffff021eaf0c000000000017a914096ae4b3e0cb3164577f65ac3e4f7b1a02eb7d348780f4be030000000017a914bd3f53587b3c8abb9ca25f130e2995eaa6cb21278702473044022001e543050319b7adcc274001e4bf9fd1f7aeb090633c96a05806949b0fcc1185022039f6e44f224c823220bb31bc4a065f96b2aae11d1086075dea0c352c2b9eb374012103c4379b5efdead0f29e745f00caf4d831ffddcf8eb662fc66a168e42ffd636dc400000000", "vin": [{"txinwitness": ["3044022001e543050319b7adcc274001e4bf9fd1f7aeb090633c96a05806949b0fcc1185022039f6e44f224c823220bb31bc4a065f96b2aae11d1086075dea0c352c2b9eb37401", "03c4379b5efdead0f29e745f00caf4d831ffddcf8eb662fc66a168e42ffd636dc4"], "sequence": 4294967295, "scriptSig": {"hex": "1600147dbd0db94fc3620f25229fbd8e25ea19098eb6b7", "asm": "00147dbd0db94fc3620f25229fbd8e25ea19098eb6b7"}, "vout": 1, "txid": "b9acb3283cee5749fac1e20bca7de95680c3cdb540a0301fdd7d7e73ed670da9"}], "txid": "39f94e84d155ce39a47b4c8b7549fe0144329c9123ad77a623e4a2a08bad1b46", "blocktime": 1537869901, "version": 2, "confirmations": 11522, "time": 1537869901, "locktime": 0, "vsize": 166, "size": 247}