{"hash": "39fb7b8358abaa78a86151ffbd3bcae5f855cb033d81797de0289d26593cd2c9", "blockhash": "0000000000000000001cda96e906b7601b7a6fb1a3b62bca570a9e5d8f4b3de1", "vout": [{"scriptPubKey": {"reqSigs": 1, "hex": "a91457f9a7b38940d5ffd637d79c54df09ca75d6b7b587", "addresses": ["39iBna9RdotYSXFATGVLAPVupnXgmdHkaC"], "asm": "OP_HASH160 57f9a7b38940d5ffd637d79c54df09ca75d6b7b5 OP_EQUAL", "type": "scripthash"}, "value": 0.01416152, "n": 0}, {"scriptPubKey": {"reqSigs": 1, "hex": "76a914fbd8f682dc10d2bea3697bdd1b70b0db0e6974b488ac", "addresses": ["1PxeWzuaPYSYuWMpvnms83XVzzjnd6kNLC"], "asm": "OP_DUP OP_HASH160 fbd8f682dc10d2bea3697bdd1b70b0db0e6974b4 OP_EQUALVERIFY OP_CHECKSIG", "type": "pubkeyhash"}, "value": 9.313e-05, "n": 1}], "hex": "0100000003def83a4d3d9ead21b56eb3f39a513a7194162b23c5d9534b96889e27a44c528a00000000db00483045022100c430d4773e351723ebb19612103e7e1918dfbcec996fc2b4147178bcc74023b7022002505765f4ee8764ba9865cd3dd7e8f2a942c072607a51931e6115544b7e40d901483045022100e91ff8834c7fdcb5265294567a12bcc489d1137a0fdfd34d3b66a3152f612ee4022045e0fa7fb383e94add34d7da26442a1b8548652f759e75dbdb952ab28a30c8350147522102847dffdac6aa5a0139bb40f46e06b9eb2e31267605e662ecd135295cfa8c4aac2102907a54bed8ad74b3f35638c60114ca240a308cb986f3f2f306178869a8880b6152aeffffffffa9c33f60189d5e4771b6c864cfbab8d90dd31a0550c420b1a470ba510d1f799200000000d900473044022060da22b9318d029df3b2d265b967359b378b04850f56bed74e6e8a4716008e6202204a3604b2dee4f91834755052ba71de5bd9abdec8af15cf6b0b7602348d6988b10147304402202d01a43e6a931b64903c4716f425b8fe5fab97c336ad3b67a14375c3034a7bb602207325a8bc387168e032d3bf2264c23b0b3df64982c21e9f584821e6afbfc3db200147522102013a813e600b7077e935cbf55d93238affd872716a850667a8a7fc71b2599bd92102907a54bed8ad74b3f35638c60114ca240a308cb986f3f2f306178869a8880b6152aeffffffff7087ba2ff146dd0b3e1da0036c8f154be43f3337f21bf15fed09ac3c0b1672dc010000006a47304402203f4a40540d393c84a721f9ad75bd1d2c067a4c6f1d7cd1e03c731b68043ec9f50220585b889121b8f7e1c109a7e95627869b373df9117fb50c8edd2889b4d29700040121035a649d454930713e96ee4ee1cffdd2001884b25dd26d51cf2391bce05bbd727dffffffff02d89b15000000000017a91457f9a7b38940d5ffd637d79c54df09ca75d6b7b58761240000000000001976a914fbd8f682dc10d2bea3697bdd1b70b0db0e6974b488ac00000000", "vin": [{"sequence": 4294967295, "scriptSig": {"hex": "00483045022100c430d4773e351723ebb19612103e7e1918dfbcec996fc2b4147178bcc74023b7022002505765f4ee8764ba9865cd3dd7e8f2a942c072607a51931e6115544b7e40d901483045022100e91ff8834c7fdcb5265294567a12bcc489d1137a0fdfd34d3b66a3152f612ee4022045e0fa7fb383e94add34d7da26442a1b8548652f759e75dbdb952ab28a30c8350147522102847dffdac6aa5a0139bb40f46e06b9eb2e31267605e662ecd135295cfa8c4aac2102907a54bed8ad74b3f35638c60114ca240a308cb986f3f2f306178869a8880b6152ae", "asm": "0 3045022100c430d4773e351723ebb19612103e7e1918dfbcec996fc2b4147178bcc74023b7022002505765f4ee8764ba9865cd3dd7e8f2a942c072607a51931e6115544b7e40d9[ALL] 3045022100e91ff8834c7fdcb5265294567a12bcc489d1137a0fdfd34d3b66a3152f612ee4022045e0fa7fb383e94add34d7da26442a1b8548652f759e75dbdb952ab28a30c835[ALL] 522102847dffdac6aa5a0139bb40f46e06b9eb2e31267605e662ecd135295cfa8c4aac2102907a54bed8ad74b3f35638c60114ca240a308cb986f3f2f306178869a8880b6152ae"}, "vout": 0, "txid": "8a524ca4279e88964b53d9c5232b1694713a519af3b36eb521ad9e3d4d3af8de"}, {"sequence": 4294967295, "scriptSig": {"hex": "00473044022060da22b9318d029df3b2d265b967359b378b04850f56bed74e6e8a4716008e6202204a3604b2dee4f91834755052ba71de5bd9abdec8af15cf6b0b7602348d6988b10147304402202d01a43e6a931b64903c4716f425b8fe5fab97c336ad3b67a14375c3034a7bb602207325a8bc387168e032d3bf2264c23b0b3df64982c21e9f584821e6afbfc3db200147522102013a813e600b7077e935cbf55d93238affd872716a850667a8a7fc71b2599bd92102907a54bed8ad74b3f35638c60114ca240a308cb986f3f2f306178869a8880b6152ae", "asm": "0 3044022060da22b9318d029df3b2d265b967359b378b04850f56bed74e6e8a4716008e6202204a3604b2dee4f91834755052ba71de5bd9abdec8af15cf6b0b7602348d6988b1[ALL] 304402202d01a43e6a931b64903c4716f425b8fe5fab97c336ad3b67a14375c3034a7bb602207325a8bc387168e032d3bf2264c23b0b3df64982c21e9f584821e6afbfc3db20[ALL] 522102013a813e600b7077e935cbf55d93238affd872716a850667a8a7fc71b2599bd92102907a54bed8ad74b3f35638c60114ca240a308cb986f3f2f306178869a8880b6152ae"}, "vout": 0, "txid": "92791f0d51ba70a4b120c450051ad30dd9b8bacf64c8b671475e9d18603fc3a9"}, {"sequence": 4294967295, "scriptSig": {"hex": "47304402203f4a40540d393c84a721f9ad75bd1d2c067a4c6f1d7cd1e03c731b68043ec9f50220585b889121b8f7e1c109a7e95627869b373df9117fb50c8edd2889b4d29700040121035a649d454930713e96ee4ee1cffdd2001884b25dd26d51cf2391bce05bbd727d", "asm": "304402203f4a40540d393c84a721f9ad75bd1d2c067a4c6f1d7cd1e03c731b68043ec9f50220585b889121b8f7e1c109a7e95627869b373df9117fb50c8edd2889b4d2970004[ALL] 035a649d454930713e96ee4ee1cffdd2001884b25dd26d51cf2391bce05bbd727d"}, "vout": 1, "txid": "dc72160b3cac09ed5ff11bf237333fe44b158f6c03a01d3e0bdd46f12fba8770"}], "txid": "39fb7b8358abaa78a86151ffbd3bcae5f855cb033d81797de0289d26593cd2c9", "blocktime": 1537873282, "version": 1, "confirmations": 11484, "time": 1537873282, "locktime": 0, "vsize": 741, "size": 741}