{"hash": "39fdba97266d56280c2774764848220f237a1d37dd8f4a170a3b0c04cce6a742", "blockhash": "0000000000000000001cda96e906b7601b7a6fb1a3b62bca570a9e5d8f4b3de1", "vout": [{"scriptPubKey": {"reqSigs": 1, "hex": "a9140e54c9d4ef1432382bb94e79a83b2fb9346c747787", "addresses": ["32znxRxMRcVieSoN1p81JgQBvx1mXuBsvy"], "asm": "OP_HASH160 0e54c9d4ef1432382bb94e79a83b2fb9346c7477 OP_EQUAL", "type": "scripthash"}, "value": 0.00051405, "n": 0}, {"scriptPubKey": {"reqSigs": 1, "hex": "76a91487a8e8e3d1a22eead1d30982de7027569ee16b2188ac", "addresses": ["1DNJZx8vqitCPGSJ6xqEGxfwDg8tQ3G3rF"], "asm": "OP_DUP OP_HASH160 87a8e8e3d1a22eead1d30982de7027569ee16b21 OP_EQUALVERIFY OP_CHECKSIG", "type": "pubkeyhash"}, "value": 0.0005291, "n": 1}, {"scriptPubKey": {"reqSigs": 1, "hex": "76a914726c9b9d9c695765d940557d19bb4b7e5574af7d88ac", "addresses": ["1BS295QkhnUovB85JHpmZ6rSCtvnTkJMRt"], "asm": "OP_DUP OP_HASH160 726c9b9d9c695765d940557d19bb4b7e5574af7d OP_EQUALVERIFY OP_CHECKSIG", "type": "pubkeyhash"}, "value": 0.00074343, "n": 2}, {"scriptPubKey": {"reqSigs": 1, "hex": "a914683edaad32c0688ec94ba37359a2f62b62229ed087", "addresses": ["3BCDVgSgG3QYLqNwpAMrPTEgxoTiy9ctMz"], "asm": "OP_HASH160 683edaad32c0688ec94ba37359a2f62b62229ed0 OP_EQUAL", "type": "scripthash"}, "value": 0.00136735, "n": 3}, {"scriptPubKey": {"reqSigs": 1, "hex": "a914cedf9b25b255288abf4d487a039eb85021f33cba87", "addresses": ["3LYrzUrm7BWD8X4LzGJbiGF3BGTcBiev16"], "asm": "OP_HASH160 cedf9b25b255288abf4d487a039eb85021f33cba OP_EQUAL", "type": "scripthash"}, "value": 0.00165028, "n": 4}, {"scriptPubKey": {"reqSigs": 1, "hex": "76a914863da5ae9f4bd158cf04e2855fa3e053bf8113bf88ac", "addresses": ["1DEoQ2bcVWWTwdxBvjKAxYQKMzTZeVxoXY"], "asm": "OP_DUP OP_HASH160 863da5ae9f4bd158cf04e2855fa3e053bf8113bf OP_EQUALVERIFY OP_CHECKSIG", "type": "pubkeyhash"}, "value": 0.23122353, "n": 5}], "hex": "0100000001649c2b622a8ae0a5158cd8a5982e5641fc4740c86d7c5aa333e151fc921da6c0050000006b483045022100c99647201702806c0ffbfd937f0ecda122433fbd84998f3b9ac821d2dba97b1102204c97961324e9278a0dcf64479e4b093e6413365f452c56e40b7d5735c5446d05012102eb0a5a172544925777db2a338b548373204d32c0354979a77567d84ccd02d278fdffffff06cdc800000000000017a9140e54c9d4ef1432382bb94e79a83b2fb9346c747787aece0000000000001976a91487a8e8e3d1a22eead1d30982de7027569ee16b2188ac67220100000000001976a914726c9b9d9c695765d940557d19bb4b7e5574af7d88ac1f1602000000000017a914683edaad32c0688ec94ba37359a2f62b62229ed087a48402000000000017a914cedf9b25b255288abf4d487a039eb85021f33cba87b1d16001000000001976a914863da5ae9f4bd158cf04e2855fa3e053bf8113bf88ac13490800", "vin": [{"sequence": 4294967293, "scriptSig": {"hex": "483045022100c99647201702806c0ffbfd937f0ecda122433fbd84998f3b9ac821d2dba97b1102204c97961324e9278a0dcf64479e4b093e6413365f452c56e40b7d5735c5446d05012102eb0a5a172544925777db2a338b548373204d32c0354979a77567d84ccd02d278", "asm": "3045022100c99647201702806c0ffbfd937f0ecda122433fbd84998f3b9ac821d2dba97b1102204c97961324e9278a0dcf64479e4b093e6413365f452c56e40b7d5735c5446d05[ALL] 02eb0a5a172544925777db2a338b548373204d32c0354979a77567d84ccd02d278"}, "vout": 5, "txid": "c0a61d92fc51e133a35a7c6dc84047fc41562e98a5d88c15a5e08a2a622b9c64"}], "txid": "39fdba97266d56280c2774764848220f237a1d37dd8f4a170a3b0c04cce6a742", "blocktime": 1537873282, "version": 1, "confirmations": 11484, "time": 1537873282, "locktime": 542995, "vsize": 356, "size": 356}