{"hash": "51cac0d1bb568a48f78cf693e8a229c3bf4fab7d18ad23a8bde3d436d2483e7a", "blockhash": "0000000000000000001cda96e906b7601b7a6fb1a3b62bca570a9e5d8f4b3de1", "vout": [{"scriptPubKey": {"reqSigs": 1, "hex": "76a914fab9a6eeb3ea53ea6cedb73a4247181dd6d4509e88ac", "addresses": ["1PriLHqQT9LwTz5QNggTY8iw1L2BCH1Aqe"], "asm": "OP_DUP OP_HASH160 fab9a6eeb3ea53ea6cedb73a4247181dd6d4509e OP_EQUALVERIFY OP_CHECKSIG", "type": "pubkeyhash"}, "value": 0.0056026, "n": 0}, {"scriptPubKey": {"reqSigs": 1, "hex": "a914945c7e8bb9dd661dda171569bacecae429a131fe87", "addresses": ["3FDUjZ1MDeza7otBnSUcbJoMky7zU2SqwN"], "asm": "OP_HASH160 945c7e8bb9dd661dda171569bacecae429a131fe OP_EQUAL", "type": "scripthash"}, "value": 0.01002026, "n": 1}], "hex": "02000000000102216ebce6c6eee17bafbd3e5dc08ac954a1b2632b9e03c5524c3333155afd104f0700000017160014511e5915af75fb2c2cd33f40f15cf42323f36230feffffffeba1aa92043e00b0816fc120c86e71546c2232a80df02c11437ad0ff3a349e8300000000171600146c622ab9b95604a8e07ac82ae98453a7013135b8feffffff02848c0800000000001976a914fab9a6eeb3ea53ea6cedb73a4247181dd6d4509e88ac2a4a0f000000000017a914945c7e8bb9dd661dda171569bacecae429a131fe870247304402204313f38cad3a4b9a4729372b359b7fb32c3216b86561e8bbf88f393ddefa40fe022013c608e605dd14ef63bfba9c7629c7bb7978c915295f08d94905875f1a756fdd012102e674b6c009f9f7e5324d2dc34095d22fbfd03a7c816921cdcfabda2e8ed6a9e2024730440220297ae7b4780750b5fc84a1dc347b73e0d910b5ed8618d6aa43bc83e2bb6d261002202679d970eeee78b29c66839f43c003af496c57d6a932c1e7ec6319a245b44f630121036a86d808358a69b338524b433370f67850cee25bcc2d64d38699e58909d7049f13490800", "vin": [{"txinwitness": ["304402204313f38cad3a4b9a4729372b359b7fb32c3216b86561e8bbf88f393ddefa40fe022013c608e605dd14ef63bfba9c7629c7bb7978c915295f08d94905875f1a756fdd01", "02e674b6c009f9f7e5324d2dc34095d22fbfd03a7c816921cdcfabda2e8ed6a9e2"], "sequence": 4294967294, "scriptSig": {"hex": "160014511e5915af75fb2c2cd33f40f15cf42323f36230", "asm": "0014511e5915af75fb2c2cd33f40f15cf42323f36230"}, "vout": 7, "txid": "4f10fd5a1533334c52c5039e2b63b2a154c98ac05d3ebdaf7be1eec6e6bc6e21"}, {"txinwitness": ["30440220297ae7b4780750b5fc84a1dc347b73e0d910b5ed8618d6aa43bc83e2bb6d261002202679d970eeee78b29c66839f43c003af496c57d6a932c1e7ec6319a245b44f6301", "036a86d808358a69b338524b433370f67850cee25bcc2d64d38699e58909d7049f"], "sequence": 4294967294, "scriptSig": {"hex": "1600146c622ab9b95604a8e07ac82ae98453a7013135b8", "asm": "00146c622ab9b95604a8e07ac82ae98453a7013135b8"}, "vout": 0, "txid": "839e343affd07a43112cf00da832226c54716ec820c16f81b0003e0492aaa1eb"}], "txid": "3a00ccda51a3f09f064b3927b1aaaefd0c9c681b839c8aaca9e686ee4a304def", "blocktime": 1537873282, "version": 2, "confirmations": 11484, "time": 1537873282, "locktime": 542995, "vsize": 258, "size": 420}