{"hash": "24b7d728828af991ddd93d2602ea5b90f526187196e774530c29ec460d0bb7a5", "blockhash": "0000000000000000001e0dab787dd257d1dbfcb92a98c2207d5e1078be1f4165", "vout": [{"scriptPubKey": {"reqSigs": 1, "hex": "76a914dc70d0e1a0493d476eaf706c784729041ac854ba88ac", "addresses": ["1M6aonvfts3PL4uKpGMm3xTBRC5f4HzrR6"], "asm": "OP_DUP OP_HASH160 dc70d0e1a0493d476eaf706c784729041ac854ba OP_EQUALVERIFY OP_CHECKSIG", "type": "pubkeyhash"}, "value": 2.079e-05, "n": 0}, {"scriptPubKey": {"reqSigs": 1, "hex": "a9141d7370ccde4590204155e4074f69743a8e4fac0287", "addresses": ["34Njp4ZKtmCDfqqps26wHBYQQGUo2pGkLi"], "asm": "OP_HASH160 1d7370ccde4590204155e4074f69743a8e4fac02 OP_EQUAL", "type": "scripthash"}, "value": 0.00029542, "n": 1}], "hex": "0100000000010113e435b023ff423e7ecd62c2d9b9f5506d09448168b1d2ec48990daaf9cccfec0100000023220020f63dfc12340f6360d0251c22746d6b56093e3243e96ca012a65484a5d9cf0ec0ffffffff021f080000000000001976a914dc70d0e1a0493d476eaf706c784729041ac854ba88ac667300000000000017a9141d7370ccde4590204155e4074f69743a8e4fac0287040047304402205a9be90b0cdd46405964e40c25952eaba5b71de3366ca8034669693f9ac3bd0002200ff90291b6f831217b9718438201642d7324b9696e31183fabf33d5b58a1697a0147304402203f25f03e89a9429aa41c5ea3331569a2bf06f21ac40d1c93b98ecba49d843bb90220050dce8c196cbb1a42b6c4765a2a6ce84396ca067ffea6e3c084593d61b0119d0147522102097067a6a0cc130a9a6f6577b47bf369b840a79de31cd7457187994266b1bb7c2103338f346cab6ba87fe940591a03ac234be06520c5ab386d4b6632e8eef0d0db7652ae00000000", "vin": [{"txinwitness": ["", "304402205a9be90b0cdd46405964e40c25952eaba5b71de3366ca8034669693f9ac3bd0002200ff90291b6f831217b9718438201642d7324b9696e31183fabf33d5b58a1697a01", "304402203f25f03e89a9429aa41c5ea3331569a2bf06f21ac40d1c93b98ecba49d843bb90220050dce8c196cbb1a42b6c4765a2a6ce84396ca067ffea6e3c084593d61b0119d01", "522102097067a6a0cc130a9a6f6577b47bf369b840a79de31cd7457187994266b1bb7c2103338f346cab6ba87fe940591a03ac234be06520c5ab386d4b6632e8eef0d0db7652ae"], "sequence": 4294967295, "scriptSig": {"hex": "220020f63dfc12340f6360d0251c22746d6b56093e3243e96ca012a65484a5d9cf0ec0", "asm": "0020f63dfc12340f6360d0251c22746d6b56093e3243e96ca012a65484a5d9cf0ec0"}, "vout": 1, "txid": "eccfccf9aa0d9948ecd2b1688144096d50f5b9d9c262cd7e3e42ff23b035e413"}], "txid": "3a003541397c14e1752b08a76f68de4ff205d5d8b977e2893e928631d3d33da1", "blocktime": 1537872475, "version": 1, "confirmations": 11487, "time": 1537872475, "locktime": 0, "vsize": 207, "size": 372}