{"hash": "3a0280e34f3bebafc47d0354770df0e8ef1ef1274544f0010840d2391ab5bbab", "blockhash": "0000000000000000000baef3f32e3676a92c3b2e5da21b426e4f302fc371ce76", "vout": [{"scriptPubKey": {"type": "nulldata", "hex": "6a4c5000007819000197fd862dc4bf3f27685f40b7019d6ddc0f1b8ff117702940d64fa54d8eb25f00d07763ba5ec78371f0f691f762325baa1c94061498864af1cf56bc9a9526289ac0f6612cd74e33776ee4", "asm": "OP_RETURN 00007819000197fd862dc4bf3f27685f40b7019d6ddc0f1b8ff117702940d64fa54d8eb25f00d07763ba5ec78371f0f691f762325baa1c94061498864af1cf56bc9a9526289ac0f6612cd74e33776ee4"}, "value": 0.0, "n": 0}, {"scriptPubKey": {"reqSigs": 1, "hex": "76a914c641c4402bc3cbe1760430b55f5a82309a98905188ac", "addresses": ["1K5HaXX74KC59JGUTBYNn6keHwQdsGJupJ"], "asm": "OP_DUP OP_HASH160 c641c4402bc3cbe1760430b55f5a82309a989051 OP_EQUALVERIFY OP_CHECKSIG", "type": "pubkeyhash"}, "value": 0.0006988, "n": 1}], "hex": "0100000001304f848c9d81e8dd27bc6eb8744b3c4a662f36bc1f3b9492123bb21884967a49010000006a473044022045d0adeec6abd98dabfda326cf02f44651db5f1b893cddf5524c5087a3fcbf8202207f1f73357d51899c8f83746bb90eeaf477666b9ae409e20b0f09567af516782901210261512dabf25328b7b13988033ef340ca13ace64ef13ee40cf976a924a082397affffffff020000000000000000536a4c5000007819000197fd862dc4bf3f27685f40b7019d6ddc0f1b8ff117702940d64fa54d8eb25f00d07763ba5ec78371f0f691f762325baa1c94061498864af1cf56bc9a9526289ac0f6612cd74e33776ee4f8100100000000001976a914c641c4402bc3cbe1760430b55f5a82309a98905188ac00000000", "vin": [{"sequence": 4294967295, "scriptSig": {"hex": "473044022045d0adeec6abd98dabfda326cf02f44651db5f1b893cddf5524c5087a3fcbf8202207f1f73357d51899c8f83746bb90eeaf477666b9ae409e20b0f09567af516782901210261512dabf25328b7b13988033ef340ca13ace64ef13ee40cf976a924a082397a", "asm": "3044022045d0adeec6abd98dabfda326cf02f44651db5f1b893cddf5524c5087a3fcbf8202207f1f73357d51899c8f83746bb90eeaf477666b9ae409e20b0f09567af5167829[ALL] 0261512dabf25328b7b13988033ef340ca13ace64ef13ee40cf976a924a082397a"}, "vout": 1, "txid": "497a968418b23b1292943b1fbc362f664a3c4b74b86ebc27dde8819d8c844f30"}], "txid": "3a0280e34f3bebafc47d0354770df0e8ef1ef1274544f0010840d2391ab5bbab", "blocktime": 1537876114, "version": 1, "confirmations": 11460, "time": 1537876114, "locktime": 0, "vsize": 283, "size": 283}