{"hash": "3a024a8b1643466ac9d02c2e4876d8b8bb05ae3355f4a06438b14c3bc457acf8", "blockhash": "0000000000000000000e13cef7c366c0283d82e591d1acd082e914b08063cdf1", "vout": [{"scriptPubKey": {"reqSigs": 1, "hex": "76a91432007b6b186d1e9ac0ef63a04d9359b32b5a0dc788ac", "addresses": ["15ZPN697LAyMemzy2CEyUqrSSYCrJ3f9Sh"], "asm": "OP_DUP OP_HASH160 32007b6b186d1e9ac0ef63a04d9359b32b5a0dc7 OP_EQUALVERIFY OP_CHECKSIG", "type": "pubkeyhash"}, "value": 0.01562383, "n": 0}, {"scriptPubKey": {"reqSigs": 1, "hex": "76a9140d7dc5adebe41c0b813bb06efb0c630e87cf8f7088ac", "addresses": ["12ELTJJsczGRbiAUikEJMtUDCHAFfZHvhm"], "asm": "OP_DUP OP_HASH160 0d7dc5adebe41c0b813bb06efb0c630e87cf8f70 OP_EQUALVERIFY OP_CHECKSIG", "type": "pubkeyhash"}, "value": 0.563377, "n": 1}], "hex": "0100000001ca6cb7240b7c43a9d0efb05d6c5e79f6e0aca9efe1e1e8564c04009d7d7ed7b6000000006b48304502210087811d351106225a7a714b14aec19cd8c9e38b3972ef160a3dd2b92b288302e902207f246d4d113e97d1dea23f25e20f19ec346d63ccd550b7ebd2dc21462753b63e012102f03c2bd7de9110c1e5a43f2f5fc694d7ee546d5a2daa3a3602186cec51c1ca2effffffff020fd71700000000001976a91432007b6b186d1e9ac0ef63a04d9359b32b5a0dc788ac24a55b03000000001976a9140d7dc5adebe41c0b813bb06efb0c630e87cf8f7088ac00000000", "vin": [{"sequence": 4294967295, "scriptSig": {"hex": "48304502210087811d351106225a7a714b14aec19cd8c9e38b3972ef160a3dd2b92b288302e902207f246d4d113e97d1dea23f25e20f19ec346d63ccd550b7ebd2dc21462753b63e012102f03c2bd7de9110c1e5a43f2f5fc694d7ee546d5a2daa3a3602186cec51c1ca2e", "asm": "304502210087811d351106225a7a714b14aec19cd8c9e38b3972ef160a3dd2b92b288302e902207f246d4d113e97d1dea23f25e20f19ec346d63ccd550b7ebd2dc21462753b63e[ALL] 02f03c2bd7de9110c1e5a43f2f5fc694d7ee546d5a2daa3a3602186cec51c1ca2e"}, "vout": 0, "txid": "b6d77e7d9d00044c56e8e1e1efa9ace0f6795e6c5db0efd0a9437c0b24b76cca"}], "txid": "3a024a8b1643466ac9d02c2e4876d8b8bb05ae3355f4a06438b14c3bc457acf8", "blocktime": 1537871767, "version": 1, "confirmations": 11495, "time": 1537871767, "locktime": 0, "vsize": 226, "size": 226}