{"hash": "3a0b2a024f110e719e58b167ecc6dd875005d9ab986f3e54d9126d0ad1233de2", "blockhash": "0000000000000000001f0ddff1eddb255c1121bcd4da4f1bc9a0da00cae72433", "vout": [{"scriptPubKey": {"reqSigs": 1, "hex": "76a914228b2aceb41a59e276dd9ee3f8bc30602ab090fa88ac", "addresses": ["149eh2jn7HFutTMrNSe7t4j7B7TBTk7x5r"], "asm": "OP_DUP OP_HASH160 228b2aceb41a59e276dd9ee3f8bc30602ab090fa OP_EQUALVERIFY OP_CHECKSIG", "type": "pubkeyhash"}, "value": 0.00256469, "n": 0}, {"scriptPubKey": {"reqSigs": 1, "hex": "76a914b7888cc82fdecaf88856880550ac43fe948b8cae88ac", "addresses": ["1HjSEm71Kqt31Va9JhJk2SvztwotZkQJFN"], "asm": "OP_DUP OP_HASH160 b7888cc82fdecaf88856880550ac43fe948b8cae OP_EQUALVERIFY OP_CHECKSIG", "type": "pubkeyhash"}, "value": 0.00419196, "n": 1}], "hex": "0200000001d23ce57233f3b29ebc47928354472d4c223ba5b0e41f7072f052369b533fad89010000006b483045022100f91ae65a52d01fdc397093d74f53f776f53b7f60577dab88804faa0f52aaa1d202201bd45149a2e92d95ecd0b41fdf198f19378849757ec7fd037ebf97bfd5b208dd012103f64d18070174a7d64ec0b63a2cf11fcf39cd553907cc09a47a94df2f3b817aecffffffff02d5e90300000000001976a914228b2aceb41a59e276dd9ee3f8bc30602ab090fa88ac7c650600000000001976a914b7888cc82fdecaf88856880550ac43fe948b8cae88ac00000000", "vin": [{"sequence": 4294967295, "scriptSig": {"hex": "483045022100f91ae65a52d01fdc397093d74f53f776f53b7f60577dab88804faa0f52aaa1d202201bd45149a2e92d95ecd0b41fdf198f19378849757ec7fd037ebf97bfd5b208dd012103f64d18070174a7d64ec0b63a2cf11fcf39cd553907cc09a47a94df2f3b817aec", "asm": "3045022100f91ae65a52d01fdc397093d74f53f776f53b7f60577dab88804faa0f52aaa1d202201bd45149a2e92d95ecd0b41fdf198f19378849757ec7fd037ebf97bfd5b208dd[ALL] 03f64d18070174a7d64ec0b63a2cf11fcf39cd553907cc09a47a94df2f3b817aec"}, "vout": 1, "txid": "89ad3f539b3652f072701fe4b0a53b224c2d4754839247bc9eb2f33372e53cd2"}], "txid": "3a0b2a024f110e719e58b167ecc6dd875005d9ab986f3e54d9126d0ad1233de2", "blocktime": 1537872018, "version": 2, "confirmations": 11489, "time": 1537872018, "locktime": 0, "vsize": 226, "size": 226}