{"hash": "79bb19ac5e7fd13bacbe10075e9898cf1c3d1ba57de6f848e3953ac1775f36b1", "blockhash": "0000000000000000001cda96e906b7601b7a6fb1a3b62bca570a9e5d8f4b3de1", "vout": [{"scriptPubKey": {"reqSigs": 1, "hex": "a91401f6bd4029ae922d9869788fe83de9249115f43787", "addresses": ["31sQBUnmeei492qQ8tdxxTWv2hZMRFXrsQ"], "asm": "OP_HASH160 01f6bd4029ae922d9869788fe83de9249115f437 OP_EQUAL", "type": "scripthash"}, "value": 0.02058722, "n": 0}, {"scriptPubKey": {"reqSigs": 1, "hex": "76a914d415e9e4047645101c68d5db798cb61df19a449188ac", "addresses": ["1LLQWFjvJFHyBtzeamqbLFD8E24RE8JTD8"], "asm": "OP_DUP OP_HASH160 d415e9e4047645101c68d5db798cb61df19a4491 OP_EQUALVERIFY OP_CHECKSIG", "type": "pubkeyhash"}, "value": 0.005, "n": 1}], "hex": "0200000000010192379ffd19c756896ed0a80a18c5ed78c5cade1ecfea6b68522d8e1e11101b7c00000000171600146b742d1fd74c5eb36d6911e56cf4715e37665132feffffff02e2691f000000000017a91401f6bd4029ae922d9869788fe83de9249115f4378720a10700000000001976a914d415e9e4047645101c68d5db798cb61df19a449188ac02483045022100e5a97bdacb462371e99d2ebf65cf7120365fca1dacad867a42fdc15b4c2c8f600220013d6a640f867141d8fb41b27f7044c7dc8b1b716948dc08e78ea72b6458bf3c012103a279238375aa10b3c44daa56200c934ea78da17dea637732c20986508815192213490800", "vin": [{"txinwitness": ["3045022100e5a97bdacb462371e99d2ebf65cf7120365fca1dacad867a42fdc15b4c2c8f600220013d6a640f867141d8fb41b27f7044c7dc8b1b716948dc08e78ea72b6458bf3c01", "03a279238375aa10b3c44daa56200c934ea78da17dea637732c209865088151922"], "sequence": 4294967294, "scriptSig": {"hex": "1600146b742d1fd74c5eb36d6911e56cf4715e37665132", "asm": "00146b742d1fd74c5eb36d6911e56cf4715e37665132"}, "vout": 0, "txid": "7c1b10111e8e2d52686beacf1edecac578edc5180aa8d06e8956c719fd9f3792"}], "txid": "3a0e6ea98e680cc015c4592a614c0e2bf8766fcc46b81719bc96e18ccfec51b3", "blocktime": 1537873282, "version": 2, "confirmations": 11485, "time": 1537873282, "locktime": 542995, "vsize": 168, "size": 250}