{"hash": "3a15219b67dbd2c2a7fe0175e974baea269e8585cfe82cc708564ef9de87f7f5", "blockhash": "0000000000000000001cda96e906b7601b7a6fb1a3b62bca570a9e5d8f4b3de1", "vout": [{"scriptPubKey": {"reqSigs": 1, "hex": "a91439941958f4518f4fe95ab5f1c79ed313218f522487", "addresses": ["36wTraUUVU23vZUuetHa9sbLUaVqxLMqxZ"], "asm": "OP_HASH160 39941958f4518f4fe95ab5f1c79ed313218f5224 OP_EQUAL", "type": "scripthash"}, "value": 0.000938, "n": 0}, {"scriptPubKey": {"reqSigs": 1, "hex": "76a91493448678de744c7ca0d12552b1197b9c47bd328288ac", "addresses": ["1ERgRRJviW6w1YCCSGmf9QLtD35tbWDAEE"], "asm": "OP_DUP OP_HASH160 93448678de744c7ca0d12552b1197b9c47bd3282 OP_EQUALVERIFY OP_CHECKSIG", "type": "pubkeyhash"}, "value": 0.13349977, "n": 1}], "hex": "010000000156d94e823ea14029f3b1a8db243c535d9418aa68ef4f2c44c5ef056d5b099add010000006b483045022100c7d0420d5b1ee025f1557db3173feae818c84e6e4862fe6a1703a3e275589e6402206a758afde20daf23bbdf2dc25e470a4edb497c95428dc24569ae209f20fca22b012102ef3edcefb106ab4d2cab5e177ea76d240b57ec77662a02d98fd3213ad2881dc9ffffffff02686e01000000000017a91439941958f4518f4fe95ab5f1c79ed313218f52248759b4cb00000000001976a91493448678de744c7ca0d12552b1197b9c47bd328288ac00000000", "vin": [{"sequence": 4294967295, "scriptSig": {"hex": "483045022100c7d0420d5b1ee025f1557db3173feae818c84e6e4862fe6a1703a3e275589e6402206a758afde20daf23bbdf2dc25e470a4edb497c95428dc24569ae209f20fca22b012102ef3edcefb106ab4d2cab5e177ea76d240b57ec77662a02d98fd3213ad2881dc9", "asm": "3045022100c7d0420d5b1ee025f1557db3173feae818c84e6e4862fe6a1703a3e275589e6402206a758afde20daf23bbdf2dc25e470a4edb497c95428dc24569ae209f20fca22b[ALL] 02ef3edcefb106ab4d2cab5e177ea76d240b57ec77662a02d98fd3213ad2881dc9"}, "vout": 1, "txid": "dd9a095b6d05efc5442c4fef68aa18945d533c24dba8b1f32940a13e824ed956"}], "txid": "3a15219b67dbd2c2a7fe0175e974baea269e8585cfe82cc708564ef9de87f7f5", "blocktime": 1537873282, "version": 1, "confirmations": 11484, "time": 1537873282, "locktime": 0, "vsize": 224, "size": 224}