{"hash": "236880ae4c6671bcbfd39d744eadab5ce71c34e17c6d8c2ce04c8852d1d1eb7b", "blockhash": "0000000000000000000dcc0f55137456b1a82d3642486a52398922ac4d620174", "vout": [{"scriptPubKey": {"reqSigs": 1, "hex": "76a91450aae8882049c5aaf8bf8412e9e17f6616148a0a88ac", "addresses": ["18MXoGP5RFYbtcdR5BtdQaKmC16ciWwa9Q"], "asm": "OP_DUP OP_HASH160 50aae8882049c5aaf8bf8412e9e17f6616148a0a OP_EQUALVERIFY OP_CHECKSIG", "type": "pubkeyhash"}, "value": 1.0, "n": 0}, {"scriptPubKey": {"reqSigs": 1, "hex": "a9143fa41abcf1091d19e3d66fc272643cfd783b659687", "addresses": ["37VX5oh6RKb4fYNfEpG7dJJkev4wrtdcFN"], "asm": "OP_HASH160 3fa41abcf1091d19e3d66fc272643cfd783b6596 OP_EQUAL", "type": "scripthash"}, "value": 24.87145068, "n": 1}], "hex": "01000000000101627afb22447bc5715762a36561b5b587be36ccf0e2c6e2ed023e49f1d759bff40100000017160014b85be38f1bf1590b38816cdb3dd4bd2adcf2d453ffffffff0200e1f505000000001976a91450aae8882049c5aaf8bf8412e9e17f6616148a0a88ac6cd23e940000000017a9143fa41abcf1091d19e3d66fc272643cfd783b65968702483045022100a14e1ad290cc10875e369ac07ef905019d0204545a02ea7b249e746961f25bf502205003167e2497f84996917dc0afff2aa93ce71bc21570f9383c553c79c64bfadf0121025f505572f8b9d5f045e8219da18ecb811d83a544c957b87479fa7822c509f09e00000000", "vin": [{"txinwitness": ["3045022100a14e1ad290cc10875e369ac07ef905019d0204545a02ea7b249e746961f25bf502205003167e2497f84996917dc0afff2aa93ce71bc21570f9383c553c79c64bfadf01", "025f505572f8b9d5f045e8219da18ecb811d83a544c957b87479fa7822c509f09e"], "sequence": 4294967295, "scriptSig": {"hex": "160014b85be38f1bf1590b38816cdb3dd4bd2adcf2d453", "asm": "0014b85be38f1bf1590b38816cdb3dd4bd2adcf2d453"}, "vout": 1, "txid": "f4bf59d7f1493e02ede2c6e2f0cc36be87b5b56165a3625771c57b4422fb7a62"}], "txid": "3a155a8cba23dd061e26fafeee79f88079668f7585617a227ee8c16562b2f653", "blocktime": 1537870268, "version": 1, "confirmations": 11516, "time": 1537870268, "locktime": 0, "vsize": 168, "size": 250}