{"hash": "3b321058c361d783e270a3a3295608df460633257281e5fe9ac02a2e020d9109", "blockhash": "00000000000000000024a2167bbff67b0be802c0b01cdd79e6331c2be6459f87", "vout": [{"scriptPubKey": {"reqSigs": 1, "hex": "76a914658bc2e4001cfacc64a3e041943e921b3086737588ac", "addresses": ["1AFvgAG4FN8fhtp3ZtSF8hsmKvPTDiB4RV"], "asm": "OP_DUP OP_HASH160 658bc2e4001cfacc64a3e041943e921b30867375 OP_EQUALVERIFY OP_CHECKSIG", "type": "pubkeyhash"}, "value": 3.31e-05, "n": 0}], "hex": "010000000001015b23b115599c4aa81287423484561c00b1bc064e0407cf35f8180e33aa1bf75d0100000023220020fdd23d707f55451c4e006c77b5e8df35a185a8e99f9bda70bf0ded7913bb1eb3ffffffff01ee0c0000000000001976a914658bc2e4001cfacc64a3e041943e921b3086737588ac0400483045022100cac21c887590a5691c16a0f56552a8c97fab2823b2f5674043f0e4d9988360fe022022a716b4b5651b17542d38007fbdf9a918d116c3c1e469d6e50ebf16d53eb6f70147304402205aaf5b48b7db341feb92e162a060c7a8be18afa9fb94d8aed6cce83dceefd93e022008bb55f902ddefb33be1ad2210df8a4281611645e6a36b596ee075cf7936cb58014752210286c104577b978160849865bc23f9a6df9b53d41c8ffb486754b97b2a474a181c2103148c80a5bdfddb05ff5bcffc397c8ca748d8b435ec6a175bc9d7bfc7fc6f853752ae00000000", "vin": [{"txinwitness": ["", "3045022100cac21c887590a5691c16a0f56552a8c97fab2823b2f5674043f0e4d9988360fe022022a716b4b5651b17542d38007fbdf9a918d116c3c1e469d6e50ebf16d53eb6f701", "304402205aaf5b48b7db341feb92e162a060c7a8be18afa9fb94d8aed6cce83dceefd93e022008bb55f902ddefb33be1ad2210df8a4281611645e6a36b596ee075cf7936cb5801", "52210286c104577b978160849865bc23f9a6df9b53d41c8ffb486754b97b2a474a181c2103148c80a5bdfddb05ff5bcffc397c8ca748d8b435ec6a175bc9d7bfc7fc6f853752ae"], "sequence": 4294967295, "scriptSig": {"hex": "220020fdd23d707f55451c4e006c77b5e8df35a185a8e99f9bda70bf0ded7913bb1eb3", "asm": "0020fdd23d707f55451c4e006c77b5e8df35a185a8e99f9bda70bf0ded7913bb1eb3"}, "vout": 1, "txid": "5df71baa330e18f835cf07044e06bcb1001c568434428712a84a9c5915b1235b"}], "txid": "3a19c8324cc131e08253dae1e24d6c0074a83ab5731b645efa0d7858ba00afe6", "blocktime": 1537870564, "version": 1, "confirmations": 11515, "time": 1537870564, "locktime": 0, "vsize": 176, "size": 341}