{"hash": "3a1a525b075a419accbe64e65aec79844b8f383cc735b2cea6b911ed25190496", "blockhash": "0000000000000000000dcc0f55137456b1a82d3642486a52398922ac4d620174", "vout": [{"scriptPubKey": {"reqSigs": 1, "hex": "76a914e2619b5953b3528d6cde795252242b90cc08bbe788ac", "addresses": ["1MdzeCKnfJw9UUo9q8U6NvzjRhHSdXNfMy"], "asm": "OP_DUP OP_HASH160 e2619b5953b3528d6cde795252242b90cc08bbe7 OP_EQUALVERIFY OP_CHECKSIG", "type": "pubkeyhash"}, "value": 0.00111254, "n": 0}, {"scriptPubKey": {"reqSigs": 1, "hex": "76a91481fc19ec355db1f18a66d3eb431763f7bc313ad788ac", "addresses": ["1CrJB3q7dENQAVGJbTHpTTnY5ev2f2p9cW"], "asm": "OP_DUP OP_HASH160 81fc19ec355db1f18a66d3eb431763f7bc313ad7 OP_EQUALVERIFY OP_CHECKSIG", "type": "pubkeyhash"}, "value": 0.0414, "n": 1}], "hex": "0100000002f629ce65ee2bcec87faa148ab162091103e5ee38c48d2c88063b74cbc06c3f9a000000006a47304402207dbc5d6ecda8447d3e2c1a0ac62ba844f2657478f2ab90e268930987f49645050220145edc158f54de14665dbc1849f326d0695ab52d164d84b51e414c991256568201210223055508b7a812f97317dc21decbed0b93096bc494bc0c58fc743d3a6d0ca2a6ffffffffaa3606a123aaebc8cc7950355eaff89af0ce20985f77559b98c2ab72e28fc5fa000000006b483045022100c612d0c4ae0c1471c207592a8badf73820f5247a78f9ca1495294439e76183ea02200853c8c3fbaf71bac4edb1336ede94a9fa3630b1a4feebbf298a63d9693615a401210223055508b7a812f97317dc21decbed0b93096bc494bc0c58fc743d3a6d0ca2a6ffffffff0296b20100000000001976a914e2619b5953b3528d6cde795252242b90cc08bbe788ace02b3f00000000001976a91481fc19ec355db1f18a66d3eb431763f7bc313ad788ac00000000", "vin": [{"sequence": 4294967295, "scriptSig": {"hex": "47304402207dbc5d6ecda8447d3e2c1a0ac62ba844f2657478f2ab90e268930987f49645050220145edc158f54de14665dbc1849f326d0695ab52d164d84b51e414c991256568201210223055508b7a812f97317dc21decbed0b93096bc494bc0c58fc743d3a6d0ca2a6", "asm": "304402207dbc5d6ecda8447d3e2c1a0ac62ba844f2657478f2ab90e268930987f49645050220145edc158f54de14665dbc1849f326d0695ab52d164d84b51e414c9912565682[ALL] 0223055508b7a812f97317dc21decbed0b93096bc494bc0c58fc743d3a6d0ca2a6"}, "vout": 0, "txid": "9a3f6cc0cb743b06882c8dc438eee503110962b18a14aa7fc8ce2bee65ce29f6"}, {"sequence": 4294967295, "scriptSig": {"hex": "483045022100c612d0c4ae0c1471c207592a8badf73820f5247a78f9ca1495294439e76183ea02200853c8c3fbaf71bac4edb1336ede94a9fa3630b1a4feebbf298a63d9693615a401210223055508b7a812f97317dc21decbed0b93096bc494bc0c58fc743d3a6d0ca2a6", "asm": "3045022100c612d0c4ae0c1471c207592a8badf73820f5247a78f9ca1495294439e76183ea02200853c8c3fbaf71bac4edb1336ede94a9fa3630b1a4feebbf298a63d9693615a4[ALL] 0223055508b7a812f97317dc21decbed0b93096bc494bc0c58fc743d3a6d0ca2a6"}, "vout": 0, "txid": "fac58fe272abc2989b55775f9820cef09af8af5e355079ccc8ebaa23a10636aa"}], "txid": "3a1a525b075a419accbe64e65aec79844b8f383cc735b2cea6b911ed25190496", "blocktime": 1537870268, "version": 1, "confirmations": 11518, "time": 1537870268, "locktime": 0, "vsize": 373, "size": 373}