{"hash": "3a1c83dd9c1baff5a22c87a7d8c9fb256790bf217019a1d5c217f8b048801492", "blockhash": "0000000000000000001f0ddff1eddb255c1121bcd4da4f1bc9a0da00cae72433", "vout": [{"scriptPubKey": {"type": "nulldata", "hex": "6a4c50000077ab0001de4825a21dd09bb4255e0444af6c953dd567cf27e7e3ef3236678a625097ab00a67cb3161ad038029740894688805baa103a0612e31d5a47cc75bc9a9526289ac0f6612cd74e33776ee4", "asm": "OP_RETURN 000077ab0001de4825a21dd09bb4255e0444af6c953dd567cf27e7e3ef3236678a625097ab00a67cb3161ad038029740894688805baa103a0612e31d5a47cc75bc9a9526289ac0f6612cd74e33776ee4"}, "value": 0.0, "n": 0}, {"scriptPubKey": {"reqSigs": 1, "hex": "76a914984426de64a81c31b4e1881aa58bc1de5d32bb3988ac", "addresses": ["1Et7MRy3aGtWViY3LrEUQAsAxsGgQHfPpL"], "asm": "OP_DUP OP_HASH160 984426de64a81c31b4e1881aa58bc1de5d32bb39 OP_EQUALVERIFY OP_CHECKSIG", "type": "pubkeyhash"}, "value": 0.0013666, "n": 1}], "hex": "01000000011cde38976d3138e5f6966646de5ab8b819cb169222d1e6b55b4284e72e7892e4010000006b4830450221008cf4a28fe3e2191efe149fc201f3a55085b7dfd99fd0ca3ce9dea8c9023a6fe502207e062f89c448564e2696aa4b97a0cbc4d36e349ee0f6a8642539b6bc2b773b9f01210265bff759502734166599892b4a1f3692aaa82ba703e0b7fa8ac91c7f7724ea0bffffffff020000000000000000536a4c50000077ab0001de4825a21dd09bb4255e0444af6c953dd567cf27e7e3ef3236678a625097ab00a67cb3161ad038029740894688805baa103a0612e31d5a47cc75bc9a9526289ac0f6612cd74e33776ee4d4150200000000001976a914984426de64a81c31b4e1881aa58bc1de5d32bb3988ac00000000", "vin": [{"sequence": 4294967295, "scriptSig": {"hex": "4830450221008cf4a28fe3e2191efe149fc201f3a55085b7dfd99fd0ca3ce9dea8c9023a6fe502207e062f89c448564e2696aa4b97a0cbc4d36e349ee0f6a8642539b6bc2b773b9f01210265bff759502734166599892b4a1f3692aaa82ba703e0b7fa8ac91c7f7724ea0b", "asm": "30450221008cf4a28fe3e2191efe149fc201f3a55085b7dfd99fd0ca3ce9dea8c9023a6fe502207e062f89c448564e2696aa4b97a0cbc4d36e349ee0f6a8642539b6bc2b773b9f[ALL] 0265bff759502734166599892b4a1f3692aaa82ba703e0b7fa8ac91c7f7724ea0b"}, "vout": 1, "txid": "e492782ee784425bb5e6d1229216cb19b8b85ade466696f6e538316d9738de1c"}], "txid": "3a1c83dd9c1baff5a22c87a7d8c9fb256790bf217019a1d5c217f8b048801492", "blocktime": 1537872018, "version": 1, "confirmations": 11489, "time": 1537872018, "locktime": 0, "vsize": 284, "size": 284}