{"hash": "3a1e29f511b93a69fcfb7d75f6f24679077f6b585ba3fabc174e178febac8711", "blockhash": "00000000000000000017f5eb5941039fbcee6240d03bc1f2f8e35350df66a1d8", "vout": [{"scriptPubKey": {"reqSigs": 1, "hex": "a9149bc47d535397011fad4eeed900fbdf50b9bf211087", "addresses": ["3Fte3cPRyAYsoLdRt83ns6mzDUhFqT1woS"], "asm": "OP_HASH160 9bc47d535397011fad4eeed900fbdf50b9bf2110 OP_EQUAL", "type": "scripthash"}, "value": 0.00312521, "n": 0}, {"scriptPubKey": {"reqSigs": 1, "hex": "76a91450c35bc5b3c8b7f9a866836e9dff12f3dd3b024088ac", "addresses": ["18N366LNi9UyZsSGi2DYRT82nAZ3JhfSqR"], "asm": "OP_DUP OP_HASH160 50c35bc5b3c8b7f9a866836e9dff12f3dd3b0240 OP_EQUALVERIFY OP_CHECKSIG", "type": "pubkeyhash"}, "value": 0.0036965, "n": 1}], "hex": "0100000001b1d589a71e13c5e46816d4714fd079a29a8b7162e317c2c0147fb35c9979a315000000006b48304502210092b05980e43f0c4eba957e4a4e3bfe646534c8746a61bbd208ffa24b483c9ad602207793a01b00a7200ada978e8ddde30008c2adee802589223020c67c26c8ff9899012103a7a864d2c779663fa45e267ff700cbc957159628f1875e045db7e8fa380c2bdcffffffff02c9c404000000000017a9149bc47d535397011fad4eeed900fbdf50b9bf211087f2a30500000000001976a91450c35bc5b3c8b7f9a866836e9dff12f3dd3b024088ac00000000", "vin": [{"sequence": 4294967295, "scriptSig": {"hex": "48304502210092b05980e43f0c4eba957e4a4e3bfe646534c8746a61bbd208ffa24b483c9ad602207793a01b00a7200ada978e8ddde30008c2adee802589223020c67c26c8ff9899012103a7a864d2c779663fa45e267ff700cbc957159628f1875e045db7e8fa380c2bdc", "asm": "304502210092b05980e43f0c4eba957e4a4e3bfe646534c8746a61bbd208ffa24b483c9ad602207793a01b00a7200ada978e8ddde30008c2adee802589223020c67c26c8ff9899[ALL] 03a7a864d2c779663fa45e267ff700cbc957159628f1875e045db7e8fa380c2bdc"}, "vout": 0, "txid": "15a379995cb37f14c0c217e362718b9aa279d04f71d41668e4c5131ea789d5b1"}], "txid": "3a1e29f511b93a69fcfb7d75f6f24679077f6b585ba3fabc174e178febac8711", "blocktime": 1537874412, "version": 1, "confirmations": 11467, "time": 1537874412, "locktime": 0, "vsize": 224, "size": 224}