{"hash": "3a238dd2837f9c174aba7308b710ea5cc85ca7273bc3272def6bfdb5a948da71", "blockhash": "00000000000000000018f53835495a110e01622372bf6ae95dc86f2b0ab887b0", "vout": [{"scriptPubKey": {"reqSigs": 1, "hex": "76a9144f33d20c92c60bc6dd995d7911867ac14037d22288ac", "addresses": ["18DnThyDnnAkmQugyDpuwbw92HQkN3zuX8"], "asm": "OP_DUP OP_HASH160 4f33d20c92c60bc6dd995d7911867ac14037d222 OP_EQUALVERIFY OP_CHECKSIG", "type": "pubkeyhash"}, "value": 0.00202747, "n": 0}, {"scriptPubKey": {"reqSigs": 1, "hex": "76a914fe9b289c26bf5446526f2b3326045de40c83d81988ac", "addresses": ["1QDEWLUNQ7uKWfy5sgzrKmvRbK5DveQTLA"], "asm": "OP_DUP OP_HASH160 fe9b289c26bf5446526f2b3326045de40c83d819 OP_EQUALVERIFY OP_CHECKSIG", "type": "pubkeyhash"}, "value": 0.09711218, "n": 1}], "hex": "01000000019668c36ff2eba1c16b41325451769b6b0d482cf6332bb77e42f147d4cccfa7c30c0000006a47304402206cecc62c1aaefff56c2b690ba42986b56dc770c7d92cabb64e8b62b3d761de38022059a58e0502d7f03fe003a23d7b5c1b8134b265e1df7a08fb230e3c09656bf83e012102f9160d76f70190dc52614bac3aa2c5758875649869c1109dbdff73fb9754bb7effffffff02fb170300000000001976a9144f33d20c92c60bc6dd995d7911867ac14037d22288ac722e9400000000001976a914fe9b289c26bf5446526f2b3326045de40c83d81988ac00000000", "vin": [{"sequence": 4294967295, "scriptSig": {"hex": "47304402206cecc62c1aaefff56c2b690ba42986b56dc770c7d92cabb64e8b62b3d761de38022059a58e0502d7f03fe003a23d7b5c1b8134b265e1df7a08fb230e3c09656bf83e012102f9160d76f70190dc52614bac3aa2c5758875649869c1109dbdff73fb9754bb7e", "asm": "304402206cecc62c1aaefff56c2b690ba42986b56dc770c7d92cabb64e8b62b3d761de38022059a58e0502d7f03fe003a23d7b5c1b8134b265e1df7a08fb230e3c09656bf83e[ALL] 02f9160d76f70190dc52614bac3aa2c5758875649869c1109dbdff73fb9754bb7e"}, "vout": 12, "txid": "c3a7cfccd447f1427eb72b33f62c480d6b9b76515432416bc1a1ebf26fc36896"}], "txid": "3a238dd2837f9c174aba7308b710ea5cc85ca7273bc3272def6bfdb5a948da71", "blocktime": 1537870928, "version": 1, "confirmations": 11514, "time": 1537870928, "locktime": 0, "vsize": 225, "size": 225}