{"hash": "fb4fee60176c210b682b68a7ca21518b352ef521a77b386991436e08a16f64c5", "blockhash": "0000000000000000000baef3f32e3676a92c3b2e5da21b426e4f302fc371ce76", "vout": [{"scriptPubKey": {"reqSigs": 1, "hex": "a914c8c1a2b10d9a28be06a3d5d47cafa6c94c3b3f2a87", "addresses": ["3KzX2wYXfjnuNdHcKB5Rh8hzRj18nTxbZf"], "asm": "OP_HASH160 c8c1a2b10d9a28be06a3d5d47cafa6c94c3b3f2a OP_EQUAL", "type": "scripthash"}, "value": 0.212316, "n": 0}, {"scriptPubKey": {"reqSigs": 1, "hex": "a9146e152811906012c182efd7237c6ff8449fb92b6187", "addresses": ["3Bj5bdFFKaMbKAUG7x7Ft5EiC2cDQHGyxi"], "asm": "OP_HASH160 6e152811906012c182efd7237c6ff8449fb92b61 OP_EQUAL", "type": "scripthash"}, "value": 0.00994799, "n": 1}], "hex": "020000000001047329f5b0736730aeff9245c7fab0d1d78802280d9c56fdeab158d4cc8ae7e76d0000000017160014745154bb45019b55bc59eeac5cb2a40e70dc1c17feffffff93b5c4d9e1d485001a6e1ca919176b377481423818894cf6452a7f27303af95b000000001716001431d2ebcd06ec9e6a1de79a82dea614e21c6c9f87feffffffb26542c8498766bcf174036feead2b281ce24407441c03d6193c185868efa30000000000171600143ee573b73e9fafa7ee91028e0c30405a0b75e22afeffffffdaa38b268141de277e4949b2485c5a5468a952b86245483f12d75aaa741b77fa01000000171600145f4ebde45a731431e00633636b872f0d31e3d413feffffff02f0f743010000000017a914c8c1a2b10d9a28be06a3d5d47cafa6c94c3b3f2a87ef2d0f000000000017a9146e152811906012c182efd7237c6ff8449fb92b61870247304402201ef09a4d54065d1567e0a885b95fae8026ed5821718907435f65f360c56f9389022031d114bd96c1e8ead6e00645672bec3d5b3a9abc32584da48b7c04c4b3bb1148012102ee7591ba3c3e6df6e7b17ac3bfeae77ff8809dd7e5e663c24214ffa8edd865740247304402205a4efaa2b617c1bf76152bcf000c13b23d615c2371c45165bbad3f2a412b1f9d022014e44940e88762b5834e5f911fb3b9d41adb9ca0cbe29c2eb3e36b192321c7d10121034ed78cec4d8b8605d877c3169924a06c6814522680a795e188cd47782f2cac570247304402202bbf8414cd466b346ffe5a142e019b5ccc6575f62730be00a3e2290e12853d1c02205b8c66c8e7c4580d0ce48c027cac08c28be7247624f6106e800dcd046808db720121034c4860cf8c733678db66de3cf2ecf9412915ce2d59cefc3e1af45c9dd8b3cd9702483045022100da3d7ea76ab90909e7a87f750ee698f2ba782b165becf8206397fadf4108401402201d19c63b7355accb2ef588b73e1b554c5dbef9065c4a93c7604e35faa442eb77012102ef99c21964b88def0bf779a48d63a266ee8ade86db3407058ef26156b507cb2017490800", "vin": [{"txinwitness": ["304402201ef09a4d54065d1567e0a885b95fae8026ed5821718907435f65f360c56f9389022031d114bd96c1e8ead6e00645672bec3d5b3a9abc32584da48b7c04c4b3bb114801", "02ee7591ba3c3e6df6e7b17ac3bfeae77ff8809dd7e5e663c24214ffa8edd86574"], "sequence": 4294967294, "scriptSig": {"hex": "160014745154bb45019b55bc59eeac5cb2a40e70dc1c17", "asm": "0014745154bb45019b55bc59eeac5cb2a40e70dc1c17"}, "vout": 0, "txid": "6de7e78accd458b1eafd569c0d280288d7d1b0fac74592ffae306773b0f52973"}, {"txinwitness": ["304402205a4efaa2b617c1bf76152bcf000c13b23d615c2371c45165bbad3f2a412b1f9d022014e44940e88762b5834e5f911fb3b9d41adb9ca0cbe29c2eb3e36b192321c7d101", "034ed78cec4d8b8605d877c3169924a06c6814522680a795e188cd47782f2cac57"], "sequence": 4294967294, "scriptSig": {"hex": "16001431d2ebcd06ec9e6a1de79a82dea614e21c6c9f87", "asm": "001431d2ebcd06ec9e6a1de79a82dea614e21c6c9f87"}, "vout": 0, "txid": "5bf93a30277f2a45f64c891838428174376b1719a91c6e1a0085d4e1d9c4b593"}, {"txinwitness": ["304402202bbf8414cd466b346ffe5a142e019b5ccc6575f62730be00a3e2290e12853d1c02205b8c66c8e7c4580d0ce48c027cac08c28be7247624f6106e800dcd046808db7201", "034c4860cf8c733678db66de3cf2ecf9412915ce2d59cefc3e1af45c9dd8b3cd97"], "sequence": 4294967294, "scriptSig": {"hex": "1600143ee573b73e9fafa7ee91028e0c30405a0b75e22a", "asm": "00143ee573b73e9fafa7ee91028e0c30405a0b75e22a"}, "vout": 0, "txid": "00a3ef6858183c19d6031c440744e21c282badee6f0374f1bc668749c84265b2"}, {"txinwitness": ["3045022100da3d7ea76ab90909e7a87f750ee698f2ba782b165becf8206397fadf4108401402201d19c63b7355accb2ef588b73e1b554c5dbef9065c4a93c7604e35faa442eb7701", "02ef99c21964b88def0bf779a48d63a266ee8ade86db3407058ef26156b507cb20"], "sequence": 4294967294, "scriptSig": {"hex": "1600145f4ebde45a731431e00633636b872f0d31e3d413", "asm": "00145f4ebde45a731431e00633636b872f0d31e3d413"}, "vout": 1, "txid": "fa771b74aa5ad7123f484562b852a968545a5c48b249497e27de4181268ba3da"}], "txid": "3a24e7e20ab4f008135f1d51a0f3e238329ebe9e53d3f1d7f5cbb02c34ae40a9", "blocktime": 1537876114, "version": 2, "confirmations": 11459, "time": 1537876114, "locktime": 542999, "vsize": 438, "size": 761}