{"hash": "3a27b95fdd13df324183be4a97ab60e13199c6cc9d4d9ef1eafb5f6f2690da7b", "blockhash": "00000000000000000024a2167bbff67b0be802c0b01cdd79e6331c2be6459f87", "vout": [{"scriptPubKey": {"reqSigs": 1, "hex": "76a914954bbf740a006bbc54e23c5aa79bd8124dffb86188ac", "addresses": ["1EcQRdvaTWv57sPhtcoBAQFiM5joNJKp9V"], "asm": "OP_DUP OP_HASH160 954bbf740a006bbc54e23c5aa79bd8124dffb861 OP_EQUALVERIFY OP_CHECKSIG", "type": "pubkeyhash"}, "value": 7.799e-05, "n": 0}, {"scriptPubKey": {"reqSigs": 1, "hex": "76a914e150d95d03bc2a341fdd0b465cb9513ae2d7e06c88ac", "addresses": ["1MYMtewNdJzTh5eyRqctg89mH6ehqL7ae1"], "asm": "OP_DUP OP_HASH160 e150d95d03bc2a341fdd0b465cb9513ae2d7e06c OP_EQUALVERIFY OP_CHECKSIG", "type": "pubkeyhash"}, "value": 0.00099543, "n": 1}], "hex": "0100000001c90dd9de66407c2f04e05e3f942b4e31942ff175817839f1c11f777f599f7fbb010000006b483045022100d2045b10cbf4acb01f196073514bbb9dc5217e85e564dd3163972a5bbf9258a602203d4029247e9056451680a972d3d9bf27447b868ceb7e181cea1af8d8c312f91a012103656e5f3f54b2f68e0dde0c7b259dcb27d68ca724ab30b6b245ec570878e4f47effffffff02771e0000000000001976a914954bbf740a006bbc54e23c5aa79bd8124dffb86188acd7840100000000001976a914e150d95d03bc2a341fdd0b465cb9513ae2d7e06c88ac00000000", "vin": [{"sequence": 4294967295, "scriptSig": {"hex": "483045022100d2045b10cbf4acb01f196073514bbb9dc5217e85e564dd3163972a5bbf9258a602203d4029247e9056451680a972d3d9bf27447b868ceb7e181cea1af8d8c312f91a012103656e5f3f54b2f68e0dde0c7b259dcb27d68ca724ab30b6b245ec570878e4f47e", "asm": "3045022100d2045b10cbf4acb01f196073514bbb9dc5217e85e564dd3163972a5bbf9258a602203d4029247e9056451680a972d3d9bf27447b868ceb7e181cea1af8d8c312f91a[ALL] 03656e5f3f54b2f68e0dde0c7b259dcb27d68ca724ab30b6b245ec570878e4f47e"}, "vout": 1, "txid": "bb7f9f597f771fc1f139788175f12f94314e2b943f5ee0042f7c4066ded90dc9"}], "txid": "3a27b95fdd13df324183be4a97ab60e13199c6cc9d4d9ef1eafb5f6f2690da7b", "blocktime": 1537870564, "version": 1, "confirmations": 11515, "time": 1537870564, "locktime": 0, "vsize": 226, "size": 226}