{"hash": "3a2e5514923559afcf72abe716eb24bbef914bb4faaff7714edca534ee7bbac7", "blockhash": "00000000000000000017f5eb5941039fbcee6240d03bc1f2f8e35350df66a1d8", "vout": [{"scriptPubKey": {"reqSigs": 1, "hex": "76a914bb24dbffa84508bace8cbfe2f54ccb2bb0822db388ac", "addresses": ["1J4XWuZT85oNNCSmiKMiZ9j73geQfkvbgH"], "asm": "OP_DUP OP_HASH160 bb24dbffa84508bace8cbfe2f54ccb2bb0822db3 OP_EQUALVERIFY OP_CHECKSIG", "type": "pubkeyhash"}, "value": 0.01212986, "n": 0}, {"scriptPubKey": {"reqSigs": 1, "hex": "76a9144a5b990f75e780a527c1734973659a13baac9f0788ac", "addresses": ["17nAjXf7r8QWEzoxo2GZ11PnT7QJd4qpx8"], "asm": "OP_DUP OP_HASH160 4a5b990f75e780a527c1734973659a13baac9f07 OP_EQUALVERIFY OP_CHECKSIG", "type": "pubkeyhash"}, "value": 0.2731, "n": 1}], "hex": "010000000272a2dc1aae5aba23ab7bb042e79ef385668a52f9533065dee4d8c4da70e8a3c61c0000006a4730440220344a60f9652d116fceb2f71f1197615b724cfa67c1cef41801ae526c918cbf820220687ec2991dd123c1dcfc682b9b961bb7e471a0dfb5a2e9513238b3027eaa03a90121029ea51b77e4170c134506f9328c4381a9daf007633f4e0e9e4e9c504f566ca807ffffffff8f931930e72b971c9a219eec8d6ddd69a3fa54fcd8763624c7616117bf69ebf6050000006a47304402204f9114529df3cae4fe3ae92288bdbeba709c43396b9f69b2149ed49ecec179b002204b33c69f6a4c1327e7fa180413f0609302c6c3625491e09b5daa89c39403b3ed0121029ea51b77e4170c134506f9328c4381a9daf007633f4e0e9e4e9c504f566ca807ffffffff023a821200000000001976a914bb24dbffa84508bace8cbfe2f54ccb2bb0822db388acb0b7a001000000001976a9144a5b990f75e780a527c1734973659a13baac9f0788ac00000000", "vin": [{"sequence": 4294967295, "scriptSig": {"hex": "4730440220344a60f9652d116fceb2f71f1197615b724cfa67c1cef41801ae526c918cbf820220687ec2991dd123c1dcfc682b9b961bb7e471a0dfb5a2e9513238b3027eaa03a90121029ea51b77e4170c134506f9328c4381a9daf007633f4e0e9e4e9c504f566ca807", "asm": "30440220344a60f9652d116fceb2f71f1197615b724cfa67c1cef41801ae526c918cbf820220687ec2991dd123c1dcfc682b9b961bb7e471a0dfb5a2e9513238b3027eaa03a9[ALL] 029ea51b77e4170c134506f9328c4381a9daf007633f4e0e9e4e9c504f566ca807"}, "vout": 28, "txid": "c6a3e870dac4d8e4de653053f9528a6685f39ee742b07bab23ba5aae1adca272"}, {"sequence": 4294967295, "scriptSig": {"hex": "47304402204f9114529df3cae4fe3ae92288bdbeba709c43396b9f69b2149ed49ecec179b002204b33c69f6a4c1327e7fa180413f0609302c6c3625491e09b5daa89c39403b3ed0121029ea51b77e4170c134506f9328c4381a9daf007633f4e0e9e4e9c504f566ca807", "asm": "304402204f9114529df3cae4fe3ae92288bdbeba709c43396b9f69b2149ed49ecec179b002204b33c69f6a4c1327e7fa180413f0609302c6c3625491e09b5daa89c39403b3ed[ALL] 029ea51b77e4170c134506f9328c4381a9daf007633f4e0e9e4e9c504f566ca807"}, "vout": 5, "txid": "f6eb69bf176161c7243676d8fc54faa369dd6d8dec9e219a1c972be73019938f"}], "txid": "3a2e5514923559afcf72abe716eb24bbef914bb4faaff7714edca534ee7bbac7", "blocktime": 1537874412, "version": 1, "confirmations": 11468, "time": 1537874412, "locktime": 0, "vsize": 372, "size": 372}