{"hash": "3a2f3570eb891ed49ec85313024d94cbe7130631975a510ea2a40a97e587d508", "blockhash": "00000000000000000017f5eb5941039fbcee6240d03bc1f2f8e35350df66a1d8", "vout": [{"scriptPubKey": {"reqSigs": 1, "hex": "76a914531c7fe4d082187e81d7e21b892820b53646926288ac", "addresses": ["18aTE7Fhdwkbgn5BqG2ur4jzhEKi5jyq6N"], "asm": "OP_DUP OP_HASH160 531c7fe4d082187e81d7e21b892820b536469262 OP_EQUALVERIFY OP_CHECKSIG", "type": "pubkeyhash"}, "value": 0.00497196, "n": 0}, {"scriptPubKey": {"type": "nulldata", "hex": "6a146f6d6e69000000000000001f00000915fa66bc00", "asm": "OP_RETURN 6f6d6e69000000000000001f00000915fa66bc00"}, "value": 0.0, "n": 1}, {"scriptPubKey": {"reqSigs": 1, "hex": "76a914a25dec4d0011064ef106a983c39c7a540699f22088ac", "addresses": ["1FoWyxwPXuj4C6abqwhjDWdz6D4PZgYRjA"], "asm": "OP_DUP OP_HASH160 a25dec4d0011064ef106a983c39c7a540699f220 OP_EQUALVERIFY OP_CHECKSIG", "type": "pubkeyhash"}, "value": 5.46e-06, "n": 2}], "hex": "01000000014ff09924f088e4a58b4a16a332c98a28bae160bc59c3a9d5a6bad2aba37567c6010000006a47304402200ee066f40a410da530d3d6fc3da4ebbbe310908f22c6de406737688bb5836f0102203c389e814c26943e94b215bd26507004cb3ddf850b7fac2d0a82cba02fa857850121027d61d20f37702c63e6b532d3636e6ea695fabb8825c0768fd96ca2136bd32058feffffff032c960700000000001976a914531c7fe4d082187e81d7e21b892820b53646926288ac0000000000000000166a146f6d6e69000000000000001f00000915fa66bc0022020000000000001976a914a25dec4d0011064ef106a983c39c7a540699f22088ac15490800", "vin": [{"sequence": 4294967294, "scriptSig": {"hex": "47304402200ee066f40a410da530d3d6fc3da4ebbbe310908f22c6de406737688bb5836f0102203c389e814c26943e94b215bd26507004cb3ddf850b7fac2d0a82cba02fa857850121027d61d20f37702c63e6b532d3636e6ea695fabb8825c0768fd96ca2136bd32058", "asm": "304402200ee066f40a410da530d3d6fc3da4ebbbe310908f22c6de406737688bb5836f0102203c389e814c26943e94b215bd26507004cb3ddf850b7fac2d0a82cba02fa85785[ALL] 027d61d20f37702c63e6b532d3636e6ea695fabb8825c0768fd96ca2136bd32058"}, "vout": 1, "txid": "c66775a3abd2baa6d5a9c359bc60e1ba288ac932a3164a8ba5e488f02499f04f"}], "txid": "3a2f3570eb891ed49ec85313024d94cbe7130631975a510ea2a40a97e587d508", "blocktime": 1537874412, "version": 1, "confirmations": 11468, "time": 1537874412, "locktime": 542997, "vsize": 256, "size": 256}