{"hash": "3a33539930251695a1ba26dd11cb04670a10d3865cb74f4ad99000f07361cade", "blockhash": "0000000000000000001f76057863aec43deb6fa401d9628bb513d65a8098bfab", "vout": [{"scriptPubKey": {"reqSigs": 1, "hex": "a9149b91f627095109b6ead0b137700b2ec2f73a77d387", "addresses": ["3FsbWryzX7hNHetmoiZNi6mngHM4bwmxoA"], "asm": "OP_HASH160 9b91f627095109b6ead0b137700b2ec2f73a77d3 OP_EQUAL", "type": "scripthash"}, "value": 0.03819491, "n": 0}, {"scriptPubKey": {"reqSigs": 1, "hex": "76a914fd3871ed882ec0260b40428dced7a595474c384788ac", "addresses": ["1Q5uaQMJ1XRhor2WMQYQkLBD9qMwneh9Xj"], "asm": "OP_DUP OP_HASH160 fd3871ed882ec0260b40428dced7a595474c3847 OP_EQUALVERIFY OP_CHECKSIG", "type": "pubkeyhash"}, "value": 11.03906092, "n": 1}, {"scriptPubKey": {"reqSigs": 1, "hex": "a9149a4ed84080a872b28875d7ee96deb3952e5d270f87", "addresses": ["3FkvSK9vG9rJxo2hWtyKFhDahuwPGA3MaT"], "asm": "OP_HASH160 9a4ed84080a872b28875d7ee96deb3952e5d270f OP_EQUAL", "type": "scripthash"}, "value": 0.04807576, "n": 2}], "hex": "02000000014941eef2076c2c1edb2e5901bc083f524a405598c90ee64b7bd6abd01c43fe15030000006a473044022029545f0dbfe0e49ccc5ead1e9c01990e01b773d3f4ef315b75ba19723131a27002204cb43a2340a55d390a0429be383cff9c154343e7dad9eb97341bcfa570d98a3301210242d1fd492ee88dab3707b6f7f6150f3b8ff44ddab62500a00c93c54a22242696feffffff03e3473a000000000017a9149b91f627095109b6ead0b137700b2ec2f73a77d3872c45cc41000000001976a914fd3871ed882ec0260b40428dced7a595474c384788ac985b49000000000017a9149a4ed84080a872b28875d7ee96deb3952e5d270f8714490800", "vin": [{"sequence": 4294967294, "scriptSig": {"hex": "473044022029545f0dbfe0e49ccc5ead1e9c01990e01b773d3f4ef315b75ba19723131a27002204cb43a2340a55d390a0429be383cff9c154343e7dad9eb97341bcfa570d98a3301210242d1fd492ee88dab3707b6f7f6150f3b8ff44ddab62500a00c93c54a22242696", "asm": "3044022029545f0dbfe0e49ccc5ead1e9c01990e01b773d3f4ef315b75ba19723131a27002204cb43a2340a55d390a0429be383cff9c154343e7dad9eb97341bcfa570d98a33[ALL] 0242d1fd492ee88dab3707b6f7f6150f3b8ff44ddab62500a00c93c54a22242696"}, "vout": 3, "txid": "15fe431cd0abd67b4be60ec99855404a523f08bc01592edb1e2c6c07f2ee4149"}], "txid": "3a33539930251695a1ba26dd11cb04670a10d3865cb74f4ad99000f07361cade", "blocktime": 1537873891, "version": 2, "confirmations": 11474, "time": 1537873891, "locktime": 542996, "vsize": 255, "size": 255}