{"hash": "3a345ddd83662ecf1307746fe5ab34981872f1d2168be0fd75ecb7a8527b0498", "blockhash": "0000000000000000001cda96e906b7601b7a6fb1a3b62bca570a9e5d8f4b3de1", "vout": [{"scriptPubKey": {"reqSigs": 1, "hex": "76a91474a7d72dbc96fbb5e6444d35d49287e06c01744288ac", "addresses": ["1BdpT22E9nMbFoXeFu8FPTSXz2FF3ZqQeq"], "asm": "OP_DUP OP_HASH160 74a7d72dbc96fbb5e6444d35d49287e06c017442 OP_EQUALVERIFY OP_CHECKSIG", "type": "pubkeyhash"}, "value": 0.01394044, "n": 0}, {"scriptPubKey": {"type": "nulldata", "hex": "6a4c50000077d500017b7451d3863b8d420c7093555b23cc0f42c2fc38c5e5bf9ae76da98a211a5bd994bab65537662fb9fa51cd26c93f5baa151f0612d711973bc782bc9a9526289ac0f6612cd74e33776ee4", "asm": "OP_RETURN 000077d500017b7451d3863b8d420c7093555b23cc0f42c2fc38c5e5bf9ae76da98a211a5bd994bab65537662fb9fa51cd26c93f5baa151f0612d711973bc782bc9a9526289ac0f6612cd74e33776ee4"}, "value": 0.0, "n": 1}], "hex": "0100000001bbd35b09cf21d28f320578e34f8db00543682d2072378b8306e718869b532773000000006a473044022013fd5f68c6dbd98e8fa6ae320a89b9fa3a360511cab0de89a7bc8a3cb8e755ff0220548a6b7d75cbbaa2958e0781f62917f4ba952ac9d1c33aae0c9fb4699d387e50012103c3a0ec1b114a761cd476c101604b56c65e82d65ecf94584a842836c7ff2bb5afffffffff027c451500000000001976a91474a7d72dbc96fbb5e6444d35d49287e06c01744288ac0000000000000000536a4c50000077d500017b7451d3863b8d420c7093555b23cc0f42c2fc38c5e5bf9ae76da98a211a5bd994bab65537662fb9fa51cd26c93f5baa151f0612d711973bc782bc9a9526289ac0f6612cd74e33776ee400000000", "vin": [{"sequence": 4294967295, "scriptSig": {"hex": "473044022013fd5f68c6dbd98e8fa6ae320a89b9fa3a360511cab0de89a7bc8a3cb8e755ff0220548a6b7d75cbbaa2958e0781f62917f4ba952ac9d1c33aae0c9fb4699d387e50012103c3a0ec1b114a761cd476c101604b56c65e82d65ecf94584a842836c7ff2bb5af", "asm": "3044022013fd5f68c6dbd98e8fa6ae320a89b9fa3a360511cab0de89a7bc8a3cb8e755ff0220548a6b7d75cbbaa2958e0781f62917f4ba952ac9d1c33aae0c9fb4699d387e50[ALL] 03c3a0ec1b114a761cd476c101604b56c65e82d65ecf94584a842836c7ff2bb5af"}, "vout": 0, "txid": "7327539b8618e706838b3772202d684305b08d4fe37805328fd221cf095bd3bb"}], "txid": "3a345ddd83662ecf1307746fe5ab34981872f1d2168be0fd75ecb7a8527b0498", "blocktime": 1537873282, "version": 1, "confirmations": 11484, "time": 1537873282, "locktime": 0, "vsize": 283, "size": 283}