{"hash": "3a39247aa81d507aefa44cbbffa14b5a13568d4c94e7dd798b5a787b8b151e60", "blockhash": "000000000000000000022b45ed06c6f4ccd3cf7fb5ba4856ebd2e58215665228", "vout": [{"scriptPubKey": {"reqSigs": 1, "hex": "76a914fc5e29e6e911e409daaced2d83d0d05ba288c03788ac", "addresses": ["1Q1Q5x1WkxP6zFsvYhoF6DCgdRPrtgEoXH"], "asm": "OP_DUP OP_HASH160 fc5e29e6e911e409daaced2d83d0d05ba288c037 OP_EQUALVERIFY OP_CHECKSIG", "type": "pubkeyhash"}, "value": 0.00067993, "n": 0}, {"scriptPubKey": {"type": "nulldata", "hex": "6a4c5000007760000172dac894e56a771115d2ceea3a016b46dc7dc7d0968d120d670c1906f999943905847529ed097dd8ea8c866b9ee15baa07ad06126b00aec6aa3120599f7cb8fbacf7bab7719c405f2d9a", "asm": "OP_RETURN 00007760000172dac894e56a771115d2ceea3a016b46dc7dc7d0968d120d670c1906f999943905847529ed097dd8ea8c866b9ee15baa07ad06126b00aec6aa3120599f7cb8fbacf7bab7719c405f2d9a"}, "value": 0.0, "n": 1}], "hex": "01000000011cd6194fcc3f5c89ca94b566f4841b45a9371e574ad118b6bd53c713b9ead243010000006b483045022100b21639524b920287e9742ade34742773fd331c609d15c3883d536b0bd88f19030220298710f62898db7d3fe03802c8d1f6db43a13df445bbbde39a60c85e89b990ec012102fb267ee144e5749063c72145c06c6e7dfb79df6d1c843fcc07c86a82487f4424ffffffff0299090100000000001976a914fc5e29e6e911e409daaced2d83d0d05ba288c03788ac0000000000000000536a4c5000007760000172dac894e56a771115d2ceea3a016b46dc7dc7d0968d120d670c1906f999943905847529ed097dd8ea8c866b9ee15baa07ad06126b00aec6aa3120599f7cb8fbacf7bab7719c405f2d9a00000000", "vin": [{"sequence": 4294967295, "scriptSig": {"hex": "483045022100b21639524b920287e9742ade34742773fd331c609d15c3883d536b0bd88f19030220298710f62898db7d3fe03802c8d1f6db43a13df445bbbde39a60c85e89b990ec012102fb267ee144e5749063c72145c06c6e7dfb79df6d1c843fcc07c86a82487f4424", "asm": "3045022100b21639524b920287e9742ade34742773fd331c609d15c3883d536b0bd88f19030220298710f62898db7d3fe03802c8d1f6db43a13df445bbbde39a60c85e89b990ec[ALL] 02fb267ee144e5749063c72145c06c6e7dfb79df6d1c843fcc07c86a82487f4424"}, "vout": 1, "txid": "43d2eab913c753bdb618d14a571e37a9451b84f466b594ca895c3fcc4f19d61c"}], "txid": "3a39247aa81d507aefa44cbbffa14b5a13568d4c94e7dd798b5a787b8b151e60", "blocktime": 1537869901, "version": 1, "confirmations": 11522, "time": 1537869901, "locktime": 0, "vsize": 284, "size": 284}