{"hash": "3679d9769cb9a2020d5dc7a4746fd2ec4237d1c42eb1446bc028bfbb32822fce", "blockhash": "0000000000000000001cda96e906b7601b7a6fb1a3b62bca570a9e5d8f4b3de1", "vout": [{"scriptPubKey": {"reqSigs": 1, "hex": "a914df97ed1dc761cdd7d0eca050b8873e69792c0fb687", "addresses": ["3N5GcLnEWSU5FoARYUUsNWu8F7TpRZE4zF"], "asm": "OP_HASH160 df97ed1dc761cdd7d0eca050b8873e69792c0fb6 OP_EQUAL", "type": "scripthash"}, "value": 0.01, "n": 0}, {"scriptPubKey": {"reqSigs": 1, "hex": "a9149e5efa75f68d9e3136f7151c964cbb0a76a410c287", "addresses": ["3G8QU4jqwQzVMsuSVZYcFgL8f1wHciRDvV"], "asm": "OP_HASH160 9e5efa75f68d9e3136f7151c964cbb0a76a410c2 OP_EQUAL", "type": "scripthash"}, "value": 0.85150224, "n": 1}], "hex": "0100000000010195cd15c4c316d77189de400cf8f1cfd670beb1e7f6acc44ae500841dca6773870100000017160014461c6663b46cc71eed12eec94a26c69a25b4a2b6ffffffff0240420f000000000017a914df97ed1dc761cdd7d0eca050b8873e69792c0fb687104a13050000000017a9149e5efa75f68d9e3136f7151c964cbb0a76a410c28702473044022053534ac144b05704afc73dc0cd46d031ac9c14f90315b41f5bba8ed0438bfeab02200385045d6b94602649f579763165ae50406b2eeb011315fbcfea802da57db36501210219071de62073b68689156f4a2a01e99e20e2959f74afc3ba320a0ba59dda14dd00000000", "vin": [{"txinwitness": ["3044022053534ac144b05704afc73dc0cd46d031ac9c14f90315b41f5bba8ed0438bfeab02200385045d6b94602649f579763165ae50406b2eeb011315fbcfea802da57db36501", "0219071de62073b68689156f4a2a01e99e20e2959f74afc3ba320a0ba59dda14dd"], "sequence": 4294967295, "scriptSig": {"hex": "160014461c6663b46cc71eed12eec94a26c69a25b4a2b6", "asm": "0014461c6663b46cc71eed12eec94a26c69a25b4a2b6"}, "vout": 1, "txid": "877367ca1d8400e54ac4acf6e7b1be70d6cff1f80c40de8971d716c3c415cd95"}], "txid": "3a3d665df1d403fc7aa1c418728dee56eb677893fc2af2e8d438bec998db9f97", "blocktime": 1537873282, "version": 1, "confirmations": 11484, "time": 1537873282, "locktime": 0, "vsize": 166, "size": 247}