{"hash": "43cee623154459d08ebcca38313b4cc782fc9b6bb4cda1da9a6cab032aa415d5", "blockhash": "0000000000000000001f76057863aec43deb6fa401d9628bb513d65a8098bfab", "vout": [{"scriptPubKey": {"reqSigs": 1, "hex": "76a91430272c2e8356ad7bbdb7563d3deb77882e11401d88ac", "addresses": ["15PcMy5C4icC3uCmiLrCJoSZz68YELoHW8"], "asm": "OP_DUP OP_HASH160 30272c2e8356ad7bbdb7563d3deb77882e11401d OP_EQUALVERIFY OP_CHECKSIG", "type": "pubkeyhash"}, "value": 0.2077, "n": 0}, {"scriptPubKey": {"reqSigs": 1, "hex": "76a914fcaa4b120cd7858af64dd493c654b98745d19d1788ac", "addresses": ["1Q2yHXMPhWRLaQf5XrH3kF7hDNtpr2bJ3d"], "asm": "OP_DUP OP_HASH160 fcaa4b120cd7858af64dd493c654b98745d19d17 OP_EQUALVERIFY OP_CHECKSIG", "type": "pubkeyhash"}, "value": 1.248, "n": 1}, {"scriptPubKey": {"reqSigs": 1, "hex": "a9140da88c91311aab064c080a421991ba5eab6e267e87", "addresses": ["32wEd2uVPrszBB52UVgLEuqMTsuzC4G3ha"], "asm": "OP_HASH160 0da88c91311aab064c080a421991ba5eab6e267e OP_EQUAL", "type": "scripthash"}, "value": 0.00557, "n": 2}, {"scriptPubKey": {"reqSigs": 1, "hex": "a9147b759b19f063925ef1feb1ca74b24f60c81a9ae487", "addresses": ["3CwovY8oUHmv1crr8uWhM4TzL4yoeSsqAz"], "asm": "OP_HASH160 7b759b19f063925ef1feb1ca74b24f60c81a9ae4 OP_EQUAL", "type": "scripthash"}, "value": 198.97519712, "n": 3}], "hex": "01000000000107da0963d80290fad178a5e4ae6312e4381c9be6fe6b8e75ef96bbba15a15daf0801000000171600148fbae47aedac71fd206b12ac4d049a220226ce8fffffffffdc34f4d0072c3674b416b738ecc38ff45e03d2e27d2cac7b302db093b63fae5c00000000171600147891f56ff9e528b63e25277a3e720e92b7439565ffffffff75f788d58e35add2899ca58f43777d501a977c51114b508400725e0ce49361dc060000001716001482da15517dce1cbff65542ecb3d895ca8791c0bcffffffff75f788d58e35add2899ca58f43777d501a977c51114b508400725e0ce49361dc08000000171600149e450c5272604ddce30d36b9b542a6fccecac950ffffffff72c8de3efecbdf1247fb133817cc9783b69722dfc02897513839ab759ae3c9b6010000001716001437c939a4755f6ed7ded2f701a0224492e1beaad0ffffffffda87cb15f4748fe92525345a5e76523f1ba11c553eafc36cb8cb5b9d33f2909d0200000017160014000b814f2c1a19852357ed615a08ec572a781ed1ffffffff2f99f43d35eedfd3264d1c7078a59698097b53ce1809ea98dadd91aeecc41b650200000017160014000b814f2c1a19852357ed615a08ec572a781ed1ffffffff04d0ec3c01000000001976a91430272c2e8356ad7bbdb7563d3deb77882e11401d88ac004c7007000000001976a914fcaa4b120cd7858af64dd493c654b98745d19d1788acc87f08000000000017a9140da88c91311aab064c080a421991ba5eab6e267e87600efca10400000017a9147b759b19f063925ef1feb1ca74b24f60c81a9ae48702483045022100ca3583759a4c112bb8d15193bc25eb89b6f5c3ece63785492419e9b64e67da6b022033ee7d5e3fc172a242a62202cb80e3f1e41022dbab9262a2a7787b0cb1cc6c9a0121023b9242784c08d2f4262403eb503117a9abb7bb21edb4d4adad86331c549580b402473044022062e4e730b77c71b5787dca563e985dce711a42323b825c70f030173b3f19ba420220248cc56e07fc364cb43a7c131b36dac55134d77a63b880604c40583f8a93a637012103cb6825703c7bd46b01bf53f36a9773b79b7fe6803010d4aca875519460f178c402483045022100e1eb6d6d7a58c000dbe76b365ee2c7c26654d433e9d7fb9b786837a11dadeb8a022078e489aebb184a30cb586ef6ce67d962f838afd6e51210972073267051f1036f012103f97a7429d76ac3e7102509a7a3fe59749f53e53d376826b6947cc18168a91fbf02473044022017ac2ba90ab6749767a6ba6114b916526011c9618fee95ad64fa30918d6cb06e02207d77d935ac62ec2abffff947de57a628fbfd9144526e5a326c576ec7ab88b0e70121030faec9296d7c73dc612eb02c7747a833efab90bbcd09ce1a0f103706eb22e6e402483045022100e5db966a7f49e009370ce4b42fb63700f723cb7081667dab43170b71f98aee0002202c6b8e0fc7846a310a8b7069c5753e38573c4bd248ec458e2211e7785a94ddf90121028a6b9e1d101ea09b1f295ac90c644d48f16b00109a46deca692e1277280e7dd80247304402202c0a9a9edf0e24f8d226b49d0ede1c526de24027b825e1c4932ff9998bc6303002200c0f3b44e9e288b9ae5ddc1dbe5fc6d6c5612aa94b8abcda92b90ef9ccf09a8b012102aad79950b2c2af3689e8644c89e9d10dff06c2d8926200496b92e9f7ccb0304c0248304502210089f0ec68c1c6184dce3d80319c30316b452c7fb465420b581bdef6f4553e7b070220480dc1a32b95b8c7f675bb853dca6a1ed20bcf8adfc34d94e00b358be97022b6012102aad79950b2c2af3689e8644c89e9d10dff06c2d8926200496b92e9f7ccb0304c00000000", "vin": [{"txinwitness": ["3045022100ca3583759a4c112bb8d15193bc25eb89b6f5c3ece63785492419e9b64e67da6b022033ee7d5e3fc172a242a62202cb80e3f1e41022dbab9262a2a7787b0cb1cc6c9a01", "023b9242784c08d2f4262403eb503117a9abb7bb21edb4d4adad86331c549580b4"], "sequence": 4294967295, "scriptSig": {"hex": "1600148fbae47aedac71fd206b12ac4d049a220226ce8f", "asm": "00148fbae47aedac71fd206b12ac4d049a220226ce8f"}, "vout": 1, "txid": "08af5da115babb96ef758e6bfee69b1c38e41263aee4a578d1fa9002d86309da"}, {"txinwitness": ["3044022062e4e730b77c71b5787dca563e985dce711a42323b825c70f030173b3f19ba420220248cc56e07fc364cb43a7c131b36dac55134d77a63b880604c40583f8a93a63701", "03cb6825703c7bd46b01bf53f36a9773b79b7fe6803010d4aca875519460f178c4"], "sequence": 4294967295, "scriptSig": {"hex": "1600147891f56ff9e528b63e25277a3e720e92b7439565", "asm": "00147891f56ff9e528b63e25277a3e720e92b7439565"}, "vout": 0, "txid": "5cae3fb693b02d307bac2c7de2d2035ef48fc3ec38b716b474362c07d0f434dc"}, {"txinwitness": ["3045022100e1eb6d6d7a58c000dbe76b365ee2c7c26654d433e9d7fb9b786837a11dadeb8a022078e489aebb184a30cb586ef6ce67d962f838afd6e51210972073267051f1036f01", "03f97a7429d76ac3e7102509a7a3fe59749f53e53d376826b6947cc18168a91fbf"], "sequence": 4294967295, "scriptSig": {"hex": "16001482da15517dce1cbff65542ecb3d895ca8791c0bc", "asm": "001482da15517dce1cbff65542ecb3d895ca8791c0bc"}, "vout": 6, "txid": "dc6193e40c5e720084504b11517c971a507d77438fa59c89d2ad358ed588f775"}, {"txinwitness": ["3044022017ac2ba90ab6749767a6ba6114b916526011c9618fee95ad64fa30918d6cb06e02207d77d935ac62ec2abffff947de57a628fbfd9144526e5a326c576ec7ab88b0e701", "030faec9296d7c73dc612eb02c7747a833efab90bbcd09ce1a0f103706eb22e6e4"], "sequence": 4294967295, "scriptSig": {"hex": "1600149e450c5272604ddce30d36b9b542a6fccecac950", "asm": "00149e450c5272604ddce30d36b9b542a6fccecac950"}, "vout": 8, "txid": "dc6193e40c5e720084504b11517c971a507d77438fa59c89d2ad358ed588f775"}, {"txinwitness": ["3045022100e5db966a7f49e009370ce4b42fb63700f723cb7081667dab43170b71f98aee0002202c6b8e0fc7846a310a8b7069c5753e38573c4bd248ec458e2211e7785a94ddf901", "028a6b9e1d101ea09b1f295ac90c644d48f16b00109a46deca692e1277280e7dd8"], "sequence": 4294967295, "scriptSig": {"hex": "16001437c939a4755f6ed7ded2f701a0224492e1beaad0", "asm": "001437c939a4755f6ed7ded2f701a0224492e1beaad0"}, "vout": 1, "txid": "b6c9e39a75ab3938519728c0df2297b68397cc173813fb4712dfcbfe3edec872"}, {"txinwitness": ["304402202c0a9a9edf0e24f8d226b49d0ede1c526de24027b825e1c4932ff9998bc6303002200c0f3b44e9e288b9ae5ddc1dbe5fc6d6c5612aa94b8abcda92b90ef9ccf09a8b01", "02aad79950b2c2af3689e8644c89e9d10dff06c2d8926200496b92e9f7ccb0304c"], "sequence": 4294967295, "scriptSig": {"hex": "160014000b814f2c1a19852357ed615a08ec572a781ed1", "asm": "0014000b814f2c1a19852357ed615a08ec572a781ed1"}, "vout": 2, "txid": "9d90f2339d5bcbb86cc3af3e551ca11b3f52765e5a342525e98f74f415cb87da"}, {"txinwitness": ["304502210089f0ec68c1c6184dce3d80319c30316b452c7fb465420b581bdef6f4553e7b070220480dc1a32b95b8c7f675bb853dca6a1ed20bcf8adfc34d94e00b358be97022b601", "02aad79950b2c2af3689e8644c89e9d10dff06c2d8926200496b92e9f7ccb0304c"], "sequence": 4294967295, "scriptSig": {"hex": "160014000b814f2c1a19852357ed615a08ec572a781ed1", "asm": "0014000b814f2c1a19852357ed615a08ec572a781ed1"}, "vout": 2, "txid": "651bc4ecae91ddda98ea0918ce537b099896a578701c4d26d3dfee353df4992f"}], "txid": "3a47996fb11ceabd5a888b1bd207f463db9ec3568f2ca97c3f55711eca701548", "blocktime": 1537873891, "version": 1, "confirmations": 11474, "time": 1537873891, "locktime": 0, "vsize": 779, "size": 1345}