{"hash": "3a4c74f755e9fe0ce2dbabd0959cc230e0fb2489a58b593ccc6b9c38ad8b18f7", "blockhash": "00000000000000000004ffacab907a6b429b9a5745fa0b75af4234bf69dd7176", "vout": [{"scriptPubKey": {"reqSigs": 1, "hex": "76a9141508276fd4193e83f5fce7a810a40e8f983c161988ac", "addresses": ["12vCxak5xc1t6T275xbm6AJ4xsZCxkTSc5"], "asm": "OP_DUP OP_HASH160 1508276fd4193e83f5fce7a810a40e8f983c1619 OP_EQUALVERIFY OP_CHECKSIG", "type": "pubkeyhash"}, "value": 2.69541638, "n": 0}, {"scriptPubKey": {"type": "nulldata", "hex": "6a146f6d6e69000000000000001f000000ae3b7309d1", "asm": "OP_RETURN 6f6d6e69000000000000001f000000ae3b7309d1"}, "value": 0.0, "n": 1}, {"scriptPubKey": {"reqSigs": 1, "hex": "76a91418a30aaf04302eaddf3c7233c21ef1468d59010d88ac", "addresses": ["13FGXweMwocWpvx7TSwtAnkbDDUeWPa66L"], "asm": "OP_DUP OP_HASH160 18a30aaf04302eaddf3c7233c21ef1468d59010d OP_EQUALVERIFY OP_CHECKSIG", "type": "pubkeyhash"}, "value": 5.46e-06, "n": 2}], "hex": "01000000019dc444b806322c16d53ee96edccd0753df99d77ecced9df466fb0df546af06fc000000006b483045022100b207de3b939e70850e1e4b639eb0e9dd02505b7ff92aabda15919c1f99cfcd7202204dab979ed01ccf2461750bdca42a23647078bb4a5862f232e7952fad7b6e9ed90121035bb5ec1330953265719fecb2345ebd0cd02272efa8a3a940a8a28021b37703eeffffffff0306e11010000000001976a9141508276fd4193e83f5fce7a810a40e8f983c161988ac0000000000000000166a146f6d6e69000000000000001f000000ae3b7309d122020000000000001976a91418a30aaf04302eaddf3c7233c21ef1468d59010d88ac00000000", "vin": [{"sequence": 4294967295, "scriptSig": {"hex": "483045022100b207de3b939e70850e1e4b639eb0e9dd02505b7ff92aabda15919c1f99cfcd7202204dab979ed01ccf2461750bdca42a23647078bb4a5862f232e7952fad7b6e9ed90121035bb5ec1330953265719fecb2345ebd0cd02272efa8a3a940a8a28021b37703ee", "asm": "3045022100b207de3b939e70850e1e4b639eb0e9dd02505b7ff92aabda15919c1f99cfcd7202204dab979ed01ccf2461750bdca42a23647078bb4a5862f232e7952fad7b6e9ed9[ALL] 035bb5ec1330953265719fecb2345ebd0cd02272efa8a3a940a8a28021b37703ee"}, "vout": 0, "txid": "fc06af46f50dfb66f49dedcc7ed799df5307cddc6ee93ed5162c3206b844c49d"}], "txid": "3a4c74f755e9fe0ce2dbabd0959cc230e0fb2489a58b593ccc6b9c38ad8b18f7", "blocktime": 1537875543, "version": 1, "confirmations": 11464, "time": 1537875543, "locktime": 0, "vsize": 257, "size": 257}