{"hash": "3a51a2b8cadc3a505e734f41f353564820dc7f8b42ed7a8678e260e602d196f6", "blockhash": "000000000000000000022b45ed06c6f4ccd3cf7fb5ba4856ebd2e58215665228", "vout": [{"scriptPubKey": {"reqSigs": 1, "hex": "76a9146b1de5957722ab0a63bfa03f285f51407aa130b988ac", "addresses": ["1AmP7nyrefiwGQgURyUKCi4nwwwqBKgcX7"], "asm": "OP_DUP OP_HASH160 6b1de5957722ab0a63bfa03f285f51407aa130b9 OP_EQUALVERIFY OP_CHECKSIG", "type": "pubkeyhash"}, "value": 0.00046773, "n": 0}, {"scriptPubKey": {"reqSigs": 1, "hex": "76a91486b5fe45f7a919465d50a91c03b958b830d06e0588ac", "addresses": ["1DHHZpTr8yZzUbY6q1wpdWSZUCDwyuVkNg"], "asm": "OP_DUP OP_HASH160 86b5fe45f7a919465d50a91c03b958b830d06e05 OP_EQUALVERIFY OP_CHECKSIG", "type": "pubkeyhash"}, "value": 0.00399757, "n": 1}], "hex": "0100000001ace9edf754f2687d9fa2984b2fd8f224b8c710089b107862f322ca1ef2062901000000006b483045022100935eb0d912067c9ad9187d420f03409ca849576436bc68b027b343005010ccc802200a864a4bbd65133991e677edbf8ce7dadf659301f56625ab3b271f88026f700f01210214bed5b2f8c10544e3fcd6982d5b65027cdc50ca79a0a58677b7332aa0f76fd2ffffffff02b5b60000000000001976a9146b1de5957722ab0a63bfa03f285f51407aa130b988ac8d190600000000001976a91486b5fe45f7a919465d50a91c03b958b830d06e0588ac00000000", "vin": [{"sequence": 4294967295, "scriptSig": {"hex": "483045022100935eb0d912067c9ad9187d420f03409ca849576436bc68b027b343005010ccc802200a864a4bbd65133991e677edbf8ce7dadf659301f56625ab3b271f88026f700f01210214bed5b2f8c10544e3fcd6982d5b65027cdc50ca79a0a58677b7332aa0f76fd2", "asm": "3045022100935eb0d912067c9ad9187d420f03409ca849576436bc68b027b343005010ccc802200a864a4bbd65133991e677edbf8ce7dadf659301f56625ab3b271f88026f700f[ALL] 0214bed5b2f8c10544e3fcd6982d5b65027cdc50ca79a0a58677b7332aa0f76fd2"}, "vout": 0, "txid": "012906f21eca22f36278109b0810c7b824f2d82f4b98a29f7d68f254f7ede9ac"}], "txid": "3a51a2b8cadc3a505e734f41f353564820dc7f8b42ed7a8678e260e602d196f6", "blocktime": 1537869901, "version": 1, "confirmations": 11522, "time": 1537869901, "locktime": 0, "vsize": 226, "size": 226}