{"hash": "3a5348bd323b198365dc6265ac33b070a2880250effc4b423b28e63efcb03732", "blockhash": "00000000000000000004ffacab907a6b429b9a5745fa0b75af4234bf69dd7176", "vout": [{"scriptPubKey": {"reqSigs": 1, "hex": "76a914780b28330318992db933288df4c7e14ed34a07c188ac", "addresses": ["1BwjTDy6hmfsNb1oDLrubokgzysqKQrufW"], "asm": "OP_DUP OP_HASH160 780b28330318992db933288df4c7e14ed34a07c1 OP_EQUALVERIFY OP_CHECKSIG", "type": "pubkeyhash"}, "value": 0.01511378, "n": 0}, {"scriptPubKey": {"reqSigs": 1, "hex": "76a914ecffb3f49c8ba67aed3d2928998bd066ed3bdb2688ac", "addresses": ["1Nc8nppcbvzS7BXNJaKgdqw8jCEN5DE17C"], "asm": "OP_DUP OP_HASH160 ecffb3f49c8ba67aed3d2928998bd066ed3bdb26 OP_EQUALVERIFY OP_CHECKSIG", "type": "pubkeyhash"}, "value": 0.021433, "n": 1}], "hex": "01000000029861a063dc4e01207585951dd549ea5ec9045660d3a525c98b691ea868d52daa000000006a4730440220263be1e391d287b739c6c0079a8e73ed98131f667c5c4a0ae517ea9bfa415d060220314b73772245eedf84ebe5b2c44d602243c0d41de8d36b11c3e7a76a112a3a9e01210312287794be29d088403f6143b703f2787a04a5685a3a79952577ea72090e670dffffffffa57152a2b1f5472b959301bece414ef3e18b1c831639bbd965d62565e60623ed000000006a47304402200ce0361ac1f784e836789f01cdbab66b35abeaa67e203bdf443978d5eb57155a02203af61f6740a35eec9b429f265af35f35c8ea75348488aeb31454dde90867d3a8012102d3a3fe736a28842a2537290c3504d70a40f9f05e12f424a6f85a69c1299ccd12ffffffff02d20f1700000000001976a914780b28330318992db933288df4c7e14ed34a07c188ac44b42000000000001976a914ecffb3f49c8ba67aed3d2928998bd066ed3bdb2688ac00000000", "vin": [{"sequence": 4294967295, "scriptSig": {"hex": "4730440220263be1e391d287b739c6c0079a8e73ed98131f667c5c4a0ae517ea9bfa415d060220314b73772245eedf84ebe5b2c44d602243c0d41de8d36b11c3e7a76a112a3a9e01210312287794be29d088403f6143b703f2787a04a5685a3a79952577ea72090e670d", "asm": "30440220263be1e391d287b739c6c0079a8e73ed98131f667c5c4a0ae517ea9bfa415d060220314b73772245eedf84ebe5b2c44d602243c0d41de8d36b11c3e7a76a112a3a9e[ALL] 0312287794be29d088403f6143b703f2787a04a5685a3a79952577ea72090e670d"}, "vout": 0, "txid": "aa2dd568a81e698bc925a5d3605604c95eea49d51d95857520014edc63a06198"}, {"sequence": 4294967295, "scriptSig": {"hex": "47304402200ce0361ac1f784e836789f01cdbab66b35abeaa67e203bdf443978d5eb57155a02203af61f6740a35eec9b429f265af35f35c8ea75348488aeb31454dde90867d3a8012102d3a3fe736a28842a2537290c3504d70a40f9f05e12f424a6f85a69c1299ccd12", "asm": "304402200ce0361ac1f784e836789f01cdbab66b35abeaa67e203bdf443978d5eb57155a02203af61f6740a35eec9b429f265af35f35c8ea75348488aeb31454dde90867d3a8[ALL] 02d3a3fe736a28842a2537290c3504d70a40f9f05e12f424a6f85a69c1299ccd12"}, "vout": 0, "txid": "ed2306e66525d665d9bb3916831c8be1f34e41cebe0193952b47f5b1a25271a5"}], "txid": "3a5348bd323b198365dc6265ac33b070a2880250effc4b423b28e63efcb03732", "blocktime": 1537875543, "version": 1, "confirmations": 11464, "time": 1537875543, "locktime": 0, "vsize": 372, "size": 372}