{"hash": "3a535484966cfb33721a6f02fbf6e4af9a900d4c374a298a0f41f23aa69be967", "blockhash": "000000000000000000022b45ed06c6f4ccd3cf7fb5ba4856ebd2e58215665228", "vout": [{"scriptPubKey": {"reqSigs": 1, "hex": "a91441477cee7b6605b4ea1701648d16aa143ab7e8db87", "addresses": ["37eBV5zz4mHc8wieG3PPrMz3JVuAYY2j5Q"], "asm": "OP_HASH160 41477cee7b6605b4ea1701648d16aa143ab7e8db OP_EQUAL", "type": "scripthash"}, "value": 0.04665781, "n": 0}, {"scriptPubKey": {"reqSigs": 1, "hex": "76a914a414d40321185d8b41552c5cc5c72152c7a12a4f88ac", "addresses": ["1FxamdNEcACtYLESAPeNZLu1fMy8gYbaRs"], "asm": "OP_DUP OP_HASH160 a414d40321185d8b41552c5cc5c72152c7a12a4f OP_EQUALVERIFY OP_CHECKSIG", "type": "pubkeyhash"}, "value": 0.31651979, "n": 1}], "hex": "010000000134cf8f13da8b4a1ce14640601eed538d62eb07009c567fb29e25cfa0f180994c010000006b48304502210091353b8c76ca8c797fbfe08693776cde95b615796738fe6137978a51b35d5bf5022051eb9aa91817a24ab187d3cc0bd0422a8aa7a15d9bf7dfacf009d3a354d76009012102603608fe9cc0d617de73a3a2c9154b879da6d9b33b6a806b29055e9a6bedd540ffffffff02b53147000000000017a91441477cee7b6605b4ea1701648d16aa143ab7e8db878bf8e201000000001976a914a414d40321185d8b41552c5cc5c72152c7a12a4f88ac00000000", "vin": [{"sequence": 4294967295, "scriptSig": {"hex": "48304502210091353b8c76ca8c797fbfe08693776cde95b615796738fe6137978a51b35d5bf5022051eb9aa91817a24ab187d3cc0bd0422a8aa7a15d9bf7dfacf009d3a354d76009012102603608fe9cc0d617de73a3a2c9154b879da6d9b33b6a806b29055e9a6bedd540", "asm": "304502210091353b8c76ca8c797fbfe08693776cde95b615796738fe6137978a51b35d5bf5022051eb9aa91817a24ab187d3cc0bd0422a8aa7a15d9bf7dfacf009d3a354d76009[ALL] 02603608fe9cc0d617de73a3a2c9154b879da6d9b33b6a806b29055e9a6bedd540"}, "vout": 1, "txid": "4c9980f1a0cf259eb27f569c0007eb628d53ed1e604046e11c4a8bda138fcf34"}], "txid": "3a535484966cfb33721a6f02fbf6e4af9a900d4c374a298a0f41f23aa69be967", "blocktime": 1537869901, "version": 1, "confirmations": 11522, "time": 1537869901, "locktime": 0, "vsize": 224, "size": 224}