{"hash": "3a586933f77f25c709121b8f108288be404062660318d5ca037ff6580ad05e3c", "blockhash": "0000000000000000001f76057863aec43deb6fa401d9628bb513d65a8098bfab", "vout": [{"scriptPubKey": {"reqSigs": 1, "hex": "76a91433f9246f9841c6948bc52b8df3158894a5bfa7c188ac", "addresses": ["15jovVkkYK7J1oBxYduXG3z81hZxTaXecG"], "asm": "OP_DUP OP_HASH160 33f9246f9841c6948bc52b8df3158894a5bfa7c1 OP_EQUALVERIFY OP_CHECKSIG", "type": "pubkeyhash"}, "value": 7.668e-05, "n": 0}, {"scriptPubKey": {"reqSigs": 1, "hex": "76a9141cd43420e2bdf202b484ac76d53de819c7a79e2488ac", "addresses": ["13dS8YBuS9bkv6C8wms5YXg5uTb61zULrW"], "asm": "OP_DUP OP_HASH160 1cd43420e2bdf202b484ac76d53de819c7a79e24 OP_EQUALVERIFY OP_CHECKSIG", "type": "pubkeyhash"}, "value": 0.00749241, "n": 1}], "hex": "0100000001ef9b4ac102aa28ccd7dc0577c514b51e24bb2ae86e8edc9f2fa3d073da1c4a66000000006b483045022100fd92f0148dae45aee3b3af0329fe449446d425c4e6bf2bcfd774fdd8f79abeea02200b8365fce01fb48f7806608938d478e25e443604330681e966557145115e25620121039ec7bd516cb69f9a58fad4c7767aeb124d7c66533df82ebad20ac23f71e85279ffffffff02f41d0000000000001976a91433f9246f9841c6948bc52b8df3158894a5bfa7c188acb96e0b00000000001976a9141cd43420e2bdf202b484ac76d53de819c7a79e2488ac00000000", "vin": [{"sequence": 4294967295, "scriptSig": {"hex": "483045022100fd92f0148dae45aee3b3af0329fe449446d425c4e6bf2bcfd774fdd8f79abeea02200b8365fce01fb48f7806608938d478e25e443604330681e966557145115e25620121039ec7bd516cb69f9a58fad4c7767aeb124d7c66533df82ebad20ac23f71e85279", "asm": "3045022100fd92f0148dae45aee3b3af0329fe449446d425c4e6bf2bcfd774fdd8f79abeea02200b8365fce01fb48f7806608938d478e25e443604330681e966557145115e2562[ALL] 039ec7bd516cb69f9a58fad4c7767aeb124d7c66533df82ebad20ac23f71e85279"}, "vout": 0, "txid": "664a1cda73d0a32f9fdc8e6ee82abb241eb514c57705dcd7cc28aa02c14a9bef"}], "txid": "3a586933f77f25c709121b8f108288be404062660318d5ca037ff6580ad05e3c", "blocktime": 1537873891, "version": 1, "confirmations": 11478, "time": 1537873891, "locktime": 0, "vsize": 226, "size": 226}