{"hash": "677f621a9946648f9ce17b37cd7fe27c2374804746005c2785243738d9b1796a", "blockhash": "0000000000000000001cda96e906b7601b7a6fb1a3b62bca570a9e5d8f4b3de1", "vout": [{"scriptPubKey": {"reqSigs": 1, "hex": "76a91442a83d28ab75ae5b56e8da958517d71d21d1550588ac", "addresses": ["175T974zjRYcwuKJr6zGwZQdRBc5bTjTq9"], "asm": "OP_DUP OP_HASH160 42a83d28ab75ae5b56e8da958517d71d21d15505 OP_EQUALVERIFY OP_CHECKSIG", "type": "pubkeyhash"}, "value": 0.0005, "n": 0}, {"scriptPubKey": {"reqSigs": 1, "hex": "a914a8646258f23758a476aed60c1dade73ceec4366987", "addresses": ["3H3PhavPVRg8GufqxqRMKP29pQYwobnRon"], "asm": "OP_HASH160 a8646258f23758a476aed60c1dade73ceec43669 OP_EQUAL", "type": "scripthash"}, "value": 0.00048289, "n": 1}], "hex": "0200000000010122a87de767cfccfe0633e06bd52d9762fd8c07c5097d44bcc9c25d7cbf20bdbd000000001716001431c0f020c663f5b9e8786c70bd5560a86a1f0569ffffffff0250c30000000000001976a91442a83d28ab75ae5b56e8da958517d71d21d1550588aca1bc00000000000017a914a8646258f23758a476aed60c1dade73ceec43669870247304402204430e81c9593bd03576d50d840eec30354ed454a5336f1e42f66174b14a7760b02207b85bf3e9587eb23bc884d599f1cdfdd805b0dfee863a5336cea8cfb5235e58a012102be66a6ee8d12cd8b3f2a5c63ac095aa14f52591389f67de7cb46183130675dac00000000", "vin": [{"txinwitness": ["304402204430e81c9593bd03576d50d840eec30354ed454a5336f1e42f66174b14a7760b02207b85bf3e9587eb23bc884d599f1cdfdd805b0dfee863a5336cea8cfb5235e58a01", "02be66a6ee8d12cd8b3f2a5c63ac095aa14f52591389f67de7cb46183130675dac"], "sequence": 4294967295, "scriptSig": {"hex": "16001431c0f020c663f5b9e8786c70bd5560a86a1f0569", "asm": "001431c0f020c663f5b9e8786c70bd5560a86a1f0569"}, "vout": 0, "txid": "bdbd20bf7c5dc2c9bc447d09c5078cfd62972dd56be03306fecccf67e77da822"}], "txid": "3a596506da72f1d35bd871ecd04a0d43f94cab3f2313a68223b36b33383fcafe", "blocktime": 1537873282, "version": 2, "confirmations": 11485, "time": 1537873282, "locktime": 0, "vsize": 168, "size": 249}