{"hash": "8924c56792b041866fdaf1ef918077e43834518c4e06e8fa712a0615e6fd8c2d", "blockhash": "00000000000000000018f53835495a110e01622372bf6ae95dc86f2b0ab887b0", "vout": [{"scriptPubKey": {"reqSigs": 1, "hex": "76a914222ab54932c9ba32dd7182d0e4bab46ecfe48f9a88ac", "addresses": ["147f8wK2BQhyBKgCnKwVufeLvXC7p1S1db"], "asm": "OP_DUP OP_HASH160 222ab54932c9ba32dd7182d0e4bab46ecfe48f9a OP_EQUALVERIFY OP_CHECKSIG", "type": "pubkeyhash"}, "value": 0.00417127, "n": 0}, {"scriptPubKey": {"reqSigs": 1, "hex": "a914a4dda222839826310bf003e11e7782776b0ae24f87", "addresses": ["3GikFMjdE6JZDXxmLC53j9b5dTekfGxv7z"], "asm": "OP_HASH160 a4dda222839826310bf003e11e7782776b0ae24f OP_EQUAL", "type": "scripthash"}, "value": 0.65804764, "n": 1}, {"scriptPubKey": {"reqSigs": 1, "hex": "76a9143d1bc970edc31a36c87113d04c2a7207a29725ae88ac", "addresses": ["16a7WNLZW8ibo2NA3t7s3hX4RS3hV2Db5Q"], "asm": "OP_DUP OP_HASH160 3d1bc970edc31a36c87113d04c2a7207a29725ae OP_EQUALVERIFY OP_CHECKSIG", "type": "pubkeyhash"}, "value": 0.00588172, "n": 2}], "hex": "02000000000101dd48411b8e4f408f4e41ee788641384ad11acc331bea23194928bde11bb6dca00100000017160014cdd717363ae6d38d00b6f3268fe7452ef7d47bd7feffffff03675d0600000000001976a914222ab54932c9ba32dd7182d0e4bab46ecfe48f9a88acdc19ec030000000017a914a4dda222839826310bf003e11e7782776b0ae24f878cf90800000000001976a9143d1bc970edc31a36c87113d04c2a7207a29725ae88ac024730440220699a5f628f849f749f4af9f58796024157468e78de4b30ef5932445730a4305e02200320ca2d52dbb740827e95a5b6090fd3ffef258728e6d5c7ec2e2a0c26dfb7400121023c8d0db021de6cd365f8b566d0653bcd0c0cd56bdf892fe6d42978606e98179b0e490800", "vin": [{"txinwitness": ["30440220699a5f628f849f749f4af9f58796024157468e78de4b30ef5932445730a4305e02200320ca2d52dbb740827e95a5b6090fd3ffef258728e6d5c7ec2e2a0c26dfb74001", "023c8d0db021de6cd365f8b566d0653bcd0c0cd56bdf892fe6d42978606e98179b"], "sequence": 4294967294, "scriptSig": {"hex": "160014cdd717363ae6d38d00b6f3268fe7452ef7d47bd7", "asm": "0014cdd717363ae6d38d00b6f3268fe7452ef7d47bd7"}, "vout": 1, "txid": "a0dcb61be1bd28491923ea1b33cc1ad14a38418678ee414e8f404f8e1b4148dd"}], "txid": "3a5ba092d5cd884580d0f33a24cd24f88eb4512e20ff4a9d3cee01eedcff26db", "blocktime": 1537870928, "version": 2, "confirmations": 11512, "time": 1537870928, "locktime": 542990, "vsize": 202, "size": 283}