{"hash": "5bd03d23155787ae98b67b91af2f9ed93e7417cf25935d94541cead0fceb0ef9", "blockhash": "0000000000000000000e13cef7c366c0283d82e591d1acd082e914b08063cdf1", "vout": [{"scriptPubKey": {"reqSigs": 1, "hex": "a914962b6a8a7dfb677a0786f55322b067e236ceb0cb87", "addresses": ["3FP3HvizAS16WQBq89xAtfm7g9fnujqJCd"], "asm": "OP_HASH160 962b6a8a7dfb677a0786f55322b067e236ceb0cb OP_EQUAL", "type": "scripthash"}, "value": 0.53083021, "n": 0}, {"scriptPubKey": {"reqSigs": 1, "hex": "a914dafeaa46995d9dd783ae0dc2347af44318bf2d0687", "addresses": ["3MexJokfXuxX3Sr8Yb9ej7M8n2DanVVrg6"], "asm": "OP_HASH160 dafeaa46995d9dd783ae0dc2347af44318bf2d06 OP_EQUAL", "type": "scripthash"}, "value": 1.214, "n": 1}], "hex": "010000000001018b4b9bdc66aa763132e7a2bd575604ad688ff787f3ab3d45444ba83cbb9ca0e401000000171600145cef00183a242174d7ac3ba9286dc6e769162570ffffffff028dfb29030000000017a914962b6a8a7dfb677a0786f55322b067e236ceb0cb87c06a3c070000000017a914dafeaa46995d9dd783ae0dc2347af44318bf2d068702483045022100b7e20e71f22f5fd1584bb0aa5b22e8085961fb1b15c47ad31a9923dcaee9a0ff02203b372e2617a41cf50dd76c38d8f1c1f802e31c027c21b9ed809930dc4a5096d4012102d2d25289529bfa49f18678124f1274f6bf5699b93bdc31bb08ba81b4f958612b00000000", "vin": [{"txinwitness": ["3045022100b7e20e71f22f5fd1584bb0aa5b22e8085961fb1b15c47ad31a9923dcaee9a0ff02203b372e2617a41cf50dd76c38d8f1c1f802e31c027c21b9ed809930dc4a5096d401", "02d2d25289529bfa49f18678124f1274f6bf5699b93bdc31bb08ba81b4f958612b"], "sequence": 4294967295, "scriptSig": {"hex": "1600145cef00183a242174d7ac3ba9286dc6e769162570", "asm": "00145cef00183a242174d7ac3ba9286dc6e769162570"}, "vout": 1, "txid": "e4a09cbb3ca84b44453dabf387f78f68ad045657bda2e7323176aa66dc9b4b8b"}], "txid": "3a5d83dbce446bbb4c4221d5ad6279e8f511c7f8388bbec8644b61df129f2ed5", "blocktime": 1537871767, "version": 1, "confirmations": 11493, "time": 1537871767, "locktime": 0, "vsize": 166, "size": 248}