{"hash": "3a5ec841fc664c48e4bcaf226319a3bfe3e8e2517012fc08757194fe184096be", "blockhash": "000000000000000000205f8b0775d31398ef75b89a5e8ec8d2c57b4dc0ac4c20", "vout": [{"scriptPubKey": {"reqSigs": 1, "hex": "76a914a25dec4d0011064ef106a983c39c7a540699f22088ac", "addresses": ["1FoWyxwPXuj4C6abqwhjDWdz6D4PZgYRjA"], "asm": "OP_DUP OP_HASH160 a25dec4d0011064ef106a983c39c7a540699f220 OP_EQUALVERIFY OP_CHECKSIG", "type": "pubkeyhash"}, "value": 0.01995227, "n": 0}, {"scriptPubKey": {"type": "nulldata", "hex": "6a146f6d6e69000000000000001f00000074935db6a9", "asm": "OP_RETURN 6f6d6e69000000000000001f00000074935db6a9"}, "value": 0.0, "n": 1}, {"scriptPubKey": {"reqSigs": 1, "hex": "a91425cc119adbb30f3570302f137cfebf99b532561d87", "addresses": ["358sPb4kDqtC2pnuXbTbBq8UwU7qkoQ1Xx"], "asm": "OP_HASH160 25cc119adbb30f3570302f137cfebf99b532561d OP_EQUAL", "type": "scripthash"}, "value": 5.4e-06, "n": 2}], "hex": "0100000001a44813c76173a4fe9689194c29809e35be05f1741d9b5e1e9e8bd44070ac1fea6e0000006b483045022100953123f1d0fab21b4f4f3284314f9f1070a3f6fb2b35b6eec04946d4cb22db920220692d3112414bcef1b4fa1944456c3d8e80f81029a3fbaad5f5644793ba63f344012103da5bac7b36d5aa38f531c6b9601e21bb598a4b6716ebed38b009a55dabde9440feffffff03db711e00000000001976a914a25dec4d0011064ef106a983c39c7a540699f22088ac0000000000000000166a146f6d6e69000000000000001f00000074935db6a91c0200000000000017a91425cc119adbb30f3570302f137cfebf99b532561d870f490800", "vin": [{"sequence": 4294967294, "scriptSig": {"hex": "483045022100953123f1d0fab21b4f4f3284314f9f1070a3f6fb2b35b6eec04946d4cb22db920220692d3112414bcef1b4fa1944456c3d8e80f81029a3fbaad5f5644793ba63f344012103da5bac7b36d5aa38f531c6b9601e21bb598a4b6716ebed38b009a55dabde9440", "asm": "3045022100953123f1d0fab21b4f4f3284314f9f1070a3f6fb2b35b6eec04946d4cb22db920220692d3112414bcef1b4fa1944456c3d8e80f81029a3fbaad5f5644793ba63f344[ALL] 03da5bac7b36d5aa38f531c6b9601e21bb598a4b6716ebed38b009a55dabde9440"}, "vout": 110, "txid": "ea1fac7040d48b9e1e5e9b1d74f105be359e80294c198996fea47361c71348a4"}], "txid": "3a5ec841fc664c48e4bcaf226319a3bfe3e8e2517012fc08757194fe184096be", "blocktime": 1537871175, "version": 1, "confirmations": 11511, "time": 1537871175, "locktime": 542991, "vsize": 255, "size": 255}