{"hash": "3a60808dd65b0e8ed751bc4be672a595a9a2a9b00d976d04e401eb26c8085f7d", "blockhash": "0000000000000000000dcc0f55137456b1a82d3642486a52398922ac4d620174", "vout": [{"scriptPubKey": {"reqSigs": 1, "hex": "76a9145f58c2089439dd96358fbbe679c9067f5e290c9088ac", "addresses": ["19h9XEZtA8yF3uosJck9HTAaTszzipgaB6"], "asm": "OP_DUP OP_HASH160 5f58c2089439dd96358fbbe679c9067f5e290c90 OP_EQUALVERIFY OP_CHECKSIG", "type": "pubkeyhash"}, "value": 0.04675577, "n": 0}, {"scriptPubKey": {"reqSigs": 1, "hex": "76a914106d24cc43e2e83c2477d3a937102eaad88ad09288ac", "addresses": ["12VrZWYgF36naMM2vJ7ifD2GmNazieKmhx"], "asm": "OP_DUP OP_HASH160 106d24cc43e2e83c2477d3a937102eaad88ad092 OP_EQUALVERIFY OP_CHECKSIG", "type": "pubkeyhash"}, "value": 0.09647777, "n": 1}], "hex": "01000000018523e44a97468499e304e6d9c075333730310cd17adcb5114decfc084bb4f64a010000006a47304402204a6fdab4ced8b6e1dc38683642d98e32e08a43a137403a1df10e5f924696279802203cf5b917a80fc0a2bd84cadf44689a56de4c18551df939b56d654b1ba5ba23ee0121032a927696e7bf156a5125d4ee6b306842dd538783e885426dec7515bed84f5769ffffffff02f9574700000000001976a9145f58c2089439dd96358fbbe679c9067f5e290c9088aca1369300000000001976a914106d24cc43e2e83c2477d3a937102eaad88ad09288ac00000000", "vin": [{"sequence": 4294967295, "scriptSig": {"hex": "47304402204a6fdab4ced8b6e1dc38683642d98e32e08a43a137403a1df10e5f924696279802203cf5b917a80fc0a2bd84cadf44689a56de4c18551df939b56d654b1ba5ba23ee0121032a927696e7bf156a5125d4ee6b306842dd538783e885426dec7515bed84f5769", "asm": "304402204a6fdab4ced8b6e1dc38683642d98e32e08a43a137403a1df10e5f924696279802203cf5b917a80fc0a2bd84cadf44689a56de4c18551df939b56d654b1ba5ba23ee[ALL] 032a927696e7bf156a5125d4ee6b306842dd538783e885426dec7515bed84f5769"}, "vout": 1, "txid": "4af6b44b08fcec4d11b5dc7ad10c3130373375c0d9e604e3998446974ae42385"}], "txid": "3a60808dd65b0e8ed751bc4be672a595a9a2a9b00d976d04e401eb26c8085f7d", "blocktime": 1537870268, "version": 1, "confirmations": 11518, "time": 1537870268, "locktime": 0, "vsize": 225, "size": 225}