{"hash": "d1d7b09ef754e86169eeb90d7bea969168ee06801f0d4270ec0008b9edac61df", "blockhash": "000000000000000000022b45ed06c6f4ccd3cf7fb5ba4856ebd2e58215665228", "vout": [{"scriptPubKey": {"reqSigs": 1, "hex": "a9140136c10502ae5684e49b302f1af10f145f74b6b787", "addresses": ["31oSC7GvQMTZoouyNLBEHVRDhXEFbVhSmh"], "asm": "OP_HASH160 0136c10502ae5684e49b302f1af10f145f74b6b7 OP_EQUAL", "type": "scripthash"}, "value": 0.1111, "n": 0}, {"scriptPubKey": {"reqSigs": 1, "hex": "0014b4ca191da560c582f55de0858259423d66992892", "addresses": ["bc1qkn9pj8d9vrzc9a2auzzcyk2z84nfj2yjflyr4m"], "asm": "0 b4ca191da560c582f55de0858259423d66992892", "type": "witness_v0_keyhash"}, "value": 0.02366093, "n": 1}], "hex": "0100000000010109aa1a416021730404167d8e4f944058591e3eeaedd11a7cf521d0dd584032f80100000000ffffffff027086a9000000000017a9140136c10502ae5684e49b302f1af10f145f74b6b7878d1a240000000000160014b4ca191da560c582f55de0858259423d6699289202483045022100881dec3ed17f52096ca23feefe7c37549ae2f2aa743ab99c58ad927f46ea1d1e02207fb49554eb2bed571ea30da8884a221a105c688017e99d17aab6011fe682d15501210297ca4189da131c4d7de04d1c452c123b1e89561b4fa27010ede3ac03580d8a3400000000", "vin": [{"txinwitness": ["3045022100881dec3ed17f52096ca23feefe7c37549ae2f2aa743ab99c58ad927f46ea1d1e02207fb49554eb2bed571ea30da8884a221a105c688017e99d17aab6011fe682d15501", "0297ca4189da131c4d7de04d1c452c123b1e89561b4fa27010ede3ac03580d8a34"], "sequence": 4294967295, "scriptSig": {"hex": "", "asm": ""}, "vout": 1, "txid": "f8324058ddd021f57c1ad1edea3e1e595840944f8e7d160404732160411aaa09"}], "txid": "3a73b24ddc821c979102f36e768a502139306015acbd178a28ea1f7554e943df", "blocktime": 1537869901, "version": 1, "confirmations": 11523, "time": 1537869901, "locktime": 0, "vsize": 142, "size": 224}