{"hash": "3a798a149255e775ba26e4f28fd401529d18058c806c0eba3d11b304ef1a20fc", "blockhash": "00000000000000000017f5eb5941039fbcee6240d03bc1f2f8e35350df66a1d8", "vout": [{"scriptPubKey": {"reqSigs": 1, "hex": "76a9140457ec6b91e4b3104dd1bfc13333f3b387895eab88ac", "addresses": ["1Py2oRLhD8ySdyF5WpSTyUpMbj5jFSwCL"], "asm": "OP_DUP OP_HASH160 0457ec6b91e4b3104dd1bfc13333f3b387895eab OP_EQUALVERIFY OP_CHECKSIG", "type": "pubkeyhash"}, "value": 0.00512999, "n": 0}, {"scriptPubKey": {"reqSigs": 1, "hex": "76a9146586ced214191eaee684bf8787713d2671eff5aa88ac", "addresses": ["1AFpjzWNNtmMamjbbSSNLiVdktzrYMspCQ"], "asm": "OP_DUP OP_HASH160 6586ced214191eaee684bf8787713d2671eff5aa OP_EQUALVERIFY OP_CHECKSIG", "type": "pubkeyhash"}, "value": 0.26590068, "n": 1}], "hex": "0200000001571b95b6d160ccea9987ffd556d3570069f1684997c52de8c6f5bc053542cbdf010000006a47304402202ae16136836c5b24ef8e7e318b6a39ab4c5ae66bdf09f869c5397b809c021d8a02206d1a9b61bbcc888c219bd854c67a1dd73fccbf9f905f3aa5ce8f54153732153c01210210dac65f236a05432a1dbd2f909aa1c6e1870304203e734e8d07db9b57443d46ffffffff02e7d30700000000001976a9140457ec6b91e4b3104dd1bfc13333f3b387895eab88ac74bb9501000000001976a9146586ced214191eaee684bf8787713d2671eff5aa88ac00000000", "vin": [{"sequence": 4294967295, "scriptSig": {"hex": "47304402202ae16136836c5b24ef8e7e318b6a39ab4c5ae66bdf09f869c5397b809c021d8a02206d1a9b61bbcc888c219bd854c67a1dd73fccbf9f905f3aa5ce8f54153732153c01210210dac65f236a05432a1dbd2f909aa1c6e1870304203e734e8d07db9b57443d46", "asm": "304402202ae16136836c5b24ef8e7e318b6a39ab4c5ae66bdf09f869c5397b809c021d8a02206d1a9b61bbcc888c219bd854c67a1dd73fccbf9f905f3aa5ce8f54153732153c[ALL] 0210dac65f236a05432a1dbd2f909aa1c6e1870304203e734e8d07db9b57443d46"}, "vout": 1, "txid": "dfcb423505bcf5c6e82dc5974968f1690057d356d5ff8799eacc60d1b6951b57"}], "txid": "3a798a149255e775ba26e4f28fd401529d18058c806c0eba3d11b304ef1a20fc", "blocktime": 1537874412, "version": 2, "confirmations": 11467, "time": 1537874412, "locktime": 0, "vsize": 225, "size": 225}