{"hash": "3a7d220957c475e843e0e6800c5bd24b1a772026c45245dfe6c37ef3305e4558", "blockhash": "0000000000000000000e13cef7c366c0283d82e591d1acd082e914b08063cdf1", "vout": [{"scriptPubKey": {"reqSigs": 1, "hex": "76a9147699b666207f687268a2df84fa9a1a15bc1b09c288ac", "addresses": ["1Bp6smWeqci24TYLfujZzWWnYpHR2ojSYi"], "asm": "OP_DUP OP_HASH160 7699b666207f687268a2df84fa9a1a15bc1b09c2 OP_EQUALVERIFY OP_CHECKSIG", "type": "pubkeyhash"}, "value": 0.00580653, "n": 0}, {"scriptPubKey": {"reqSigs": 1, "hex": "76a91472691ac631cce0bddefb951b14c84004bba4544e88ac", "addresses": ["1BRwwfUcC8Yt6PHKTNYF681fmcpKY2pWmg"], "asm": "OP_DUP OP_HASH160 72691ac631cce0bddefb951b14c84004bba4544e OP_EQUALVERIFY OP_CHECKSIG", "type": "pubkeyhash"}, "value": 0.00781652, "n": 1}], "hex": "0100000001fa81ab2de4906066a73fb97e560dc8faafca57d87e4063a16204863f24e956b3000000006a473044022041b60285b6751f5c5824eda299c92d29496f1e1bd5d777b6b7fe964204f7390c02204ca1c313335029fd11acd9b91abd3a2a58de172d09adafc389bd8a02ae042e0a0121028b54e0aa76d4d2113744237812e50194af324c62a8946929831aeffee7e9f99fffffffff022ddc0800000000001976a9147699b666207f687268a2df84fa9a1a15bc1b09c288ac54ed0b00000000001976a91472691ac631cce0bddefb951b14c84004bba4544e88ac00000000", "vin": [{"sequence": 4294967295, "scriptSig": {"hex": "473044022041b60285b6751f5c5824eda299c92d29496f1e1bd5d777b6b7fe964204f7390c02204ca1c313335029fd11acd9b91abd3a2a58de172d09adafc389bd8a02ae042e0a0121028b54e0aa76d4d2113744237812e50194af324c62a8946929831aeffee7e9f99f", "asm": "3044022041b60285b6751f5c5824eda299c92d29496f1e1bd5d777b6b7fe964204f7390c02204ca1c313335029fd11acd9b91abd3a2a58de172d09adafc389bd8a02ae042e0a[ALL] 028b54e0aa76d4d2113744237812e50194af324c62a8946929831aeffee7e9f99f"}, "vout": 0, "txid": "b356e9243f860462a163407ed857caaffac80d567eb93fa7666090e42dab81fa"}], "txid": "3a7d220957c475e843e0e6800c5bd24b1a772026c45245dfe6c37ef3305e4558", "blocktime": 1537871767, "version": 1, "confirmations": 11495, "time": 1537871767, "locktime": 0, "vsize": 225, "size": 225}