{"hash": "3a8bbc106b2f80e24d82e6cf89a9490e6236c91bec65e521781e59a9f21328dd", "blockhash": "00000000000000000017f5eb5941039fbcee6240d03bc1f2f8e35350df66a1d8", "vout": [{"scriptPubKey": {"reqSigs": 1, "hex": "a91475e1d9c26510dd769ab6e228f26a6e6dfe035b5a87", "addresses": ["3CSKYN5eq8z8TbqVcWQCzxGow82TzqQHa5"], "asm": "OP_HASH160 75e1d9c26510dd769ab6e228f26a6e6dfe035b5a OP_EQUAL", "type": "scripthash"}, "value": 0.05948356, "n": 0}, {"scriptPubKey": {"reqSigs": 1, "hex": "76a914bae025140c454518b8cba0c25d45a6dc87f4b9ce88ac", "addresses": ["1J37CY8hcdUXQ1KfBhMCsUVafa8XjDsdCn"], "asm": "OP_DUP OP_HASH160 bae025140c454518b8cba0c25d45a6dc87f4b9ce OP_EQUALVERIFY OP_CHECKSIG", "type": "pubkeyhash"}, "value": 0.03875548, "n": 1}], "hex": "010000000879651baa0c0194bafacae6ad3ff1b75b9f11531470d4670e847f04fa37d4af81010000008b483045022100dbdaea33ebd85a0416ecca8ded0c7e212137d0d4dfba11cb4aad0b55ae2a55550220329b97d4a3dd8152ebc29fc333345d1f406fa21ff9809d6915b4d56bb5580f64014104025a1cffe502a80dfa1f543ae14c082aff24d5ecadab160ca904d288eed8e3d8cacef0985f690868df4f416c3890909b4c0c843da153d41382ac20c80170240affffffffa866892ae9af254fb3841f503f1f1953ce56cfd7f5de886097e991e3beef0108010000008b48304502210099d409fb0e7e14081dcdc955bc7ae4685aef2e93157ff255f3f906b8bc39529202204460bd2f63a9d68aeba18f4de1a6359b033ed22d438dba1c3eb026cf85befad3014104025a1cffe502a80dfa1f543ae14c082aff24d5ecadab160ca904d288eed8e3d8cacef0985f690868df4f416c3890909b4c0c843da153d41382ac20c80170240affffffff1c723dd5d5844d51acc9dbaabcaeb5d5b0cd895335bdbfc812f8e204852d56f5010000008b483045022100c8ac4312325508a78aa453c7847353ebb7d0d7325a8ab75f14e580cec0d675c9022004a14b6bccb9b2f6bec39c705309daf6a4c937eb8f7a71628c3b3064e4a8653c014104025a1cffe502a80dfa1f543ae14c082aff24d5ecadab160ca904d288eed8e3d8cacef0985f690868df4f416c3890909b4c0c843da153d41382ac20c80170240affffffff687e4dfd12696863d4f6562d0343b00ab943351c6c61d1ed0516a057525bdc07010000008a47304402201bfa2c8bc4cc1bb99f3a91adf59056122b4ee21584786a62917dbce7024a4c9f022032c1759f143ca39e159b6aa9a263f08a7734c0a396856bdeb743f042ddf4f7b5014104025a1cffe502a80dfa1f543ae14c082aff24d5ecadab160ca904d288eed8e3d8cacef0985f690868df4f416c3890909b4c0c843da153d41382ac20c80170240affffffff01a5b51d3d6188a8dde666625ddf5857f5016f8f8a9263fcc50aeddf81fcebd9010000008a47304402200cdc7ddabf7b93276deab71c8efec8de03a14b6689bf42922d16604794e2b44402201d1a0d51d134789036dab7143bbc9bea0f3e871f3cadff2023bfae19254420e0014104025a1cffe502a80dfa1f543ae14c082aff24d5ecadab160ca904d288eed8e3d8cacef0985f690868df4f416c3890909b4c0c843da153d41382ac20c80170240affffffff19f91149b1cddfc39f0e0934a5bc617317b7cba46775bf43fdc7739456d15c94010000008b483045022100d3ec5e8a1b7573108d4639d660f1d374d20004d531c6cc4466e5a388aedb351b022045ededb8f7c1b6b8b714905007cce045868e6f72957340fbd57ab165cd0d499e014104025a1cffe502a80dfa1f543ae14c082aff24d5ecadab160ca904d288eed8e3d8cacef0985f690868df4f416c3890909b4c0c843da153d41382ac20c80170240affffffff2ac152b43d7d30e570284c7c8abbd896a03b13695b8fe18e66bd02785012bfc4010000008a473044022020b8c0cd5854cf54c5f219ce7a1d088cbe841f5a357a0bf3da3a7ef6ac57249c02202c55b2dd5f7aaa24024fd6c6f2b29b9b461d6140d63e2a50fd98d8f9d29ed5ef014104025a1cffe502a80dfa1f543ae14c082aff24d5ecadab160ca904d288eed8e3d8cacef0985f690868df4f416c3890909b4c0c843da153d41382ac20c80170240affffffff2eee1b6f85be6ca637996f0712efa9d4bb8ac873c2031ed8ff3728f6a342ceb3010000008a4730440220346e0fcfda86cc6c2db06c22d1db830d9f743895b71c02389055084a5ff5810802203ed87c89a9ab4d88c8a825c5d4d1738fb1b797b0e31900a45c6d3e2e43ac763e014104c6307029b197580d9d7bd5d1082d53ab2c733c6f1cd8823589919b2f14c376a6d92c2b7890d8f5decf449e9209545896eee1da4f99fdf4d427e1ff53c407f559ffffffff02c4c35a000000000017a91475e1d9c26510dd769ab6e228f26a6e6dfe035b5a87dc223b00000000001976a914bae025140c454518b8cba0c25d45a6dc87f4b9ce88ac00000000", "vin": [{"sequence": 4294967295, "scriptSig": {"hex": "483045022100dbdaea33ebd85a0416ecca8ded0c7e212137d0d4dfba11cb4aad0b55ae2a55550220329b97d4a3dd8152ebc29fc333345d1f406fa21ff9809d6915b4d56bb5580f64014104025a1cffe502a80dfa1f543ae14c082aff24d5ecadab160ca904d288eed8e3d8cacef0985f690868df4f416c3890909b4c0c843da153d41382ac20c80170240a", "asm": "3045022100dbdaea33ebd85a0416ecca8ded0c7e212137d0d4dfba11cb4aad0b55ae2a55550220329b97d4a3dd8152ebc29fc333345d1f406fa21ff9809d6915b4d56bb5580f64[ALL] 04025a1cffe502a80dfa1f543ae14c082aff24d5ecadab160ca904d288eed8e3d8cacef0985f690868df4f416c3890909b4c0c843da153d41382ac20c80170240a"}, "vout": 1, "txid": "81afd437fa047f840e67d4701453119f5bb7f13fade6cafaba94010caa1b6579"}, {"sequence": 4294967295, "scriptSig": {"hex": "48304502210099d409fb0e7e14081dcdc955bc7ae4685aef2e93157ff255f3f906b8bc39529202204460bd2f63a9d68aeba18f4de1a6359b033ed22d438dba1c3eb026cf85befad3014104025a1cffe502a80dfa1f543ae14c082aff24d5ecadab160ca904d288eed8e3d8cacef0985f690868df4f416c3890909b4c0c843da153d41382ac20c80170240a", "asm": "304502210099d409fb0e7e14081dcdc955bc7ae4685aef2e93157ff255f3f906b8bc39529202204460bd2f63a9d68aeba18f4de1a6359b033ed22d438dba1c3eb026cf85befad3[ALL] 04025a1cffe502a80dfa1f543ae14c082aff24d5ecadab160ca904d288eed8e3d8cacef0985f690868df4f416c3890909b4c0c843da153d41382ac20c80170240a"}, "vout": 1, "txid": "0801efbee391e9976088def5d7cf56ce53191f3f501f84b34f25afe92a8966a8"}, {"sequence": 4294967295, "scriptSig": {"hex": "483045022100c8ac4312325508a78aa453c7847353ebb7d0d7325a8ab75f14e580cec0d675c9022004a14b6bccb9b2f6bec39c705309daf6a4c937eb8f7a71628c3b3064e4a8653c014104025a1cffe502a80dfa1f543ae14c082aff24d5ecadab160ca904d288eed8e3d8cacef0985f690868df4f416c3890909b4c0c843da153d41382ac20c80170240a", "asm": "3045022100c8ac4312325508a78aa453c7847353ebb7d0d7325a8ab75f14e580cec0d675c9022004a14b6bccb9b2f6bec39c705309daf6a4c937eb8f7a71628c3b3064e4a8653c[ALL] 04025a1cffe502a80dfa1f543ae14c082aff24d5ecadab160ca904d288eed8e3d8cacef0985f690868df4f416c3890909b4c0c843da153d41382ac20c80170240a"}, "vout": 1, "txid": "f5562d8504e2f812c8bfbd355389cdb0d5b5aebcaadbc9ac514d84d5d53d721c"}, {"sequence": 4294967295, "scriptSig": {"hex": "47304402201bfa2c8bc4cc1bb99f3a91adf59056122b4ee21584786a62917dbce7024a4c9f022032c1759f143ca39e159b6aa9a263f08a7734c0a396856bdeb743f042ddf4f7b5014104025a1cffe502a80dfa1f543ae14c082aff24d5ecadab160ca904d288eed8e3d8cacef0985f690868df4f416c3890909b4c0c843da153d41382ac20c80170240a", "asm": "304402201bfa2c8bc4cc1bb99f3a91adf59056122b4ee21584786a62917dbce7024a4c9f022032c1759f143ca39e159b6aa9a263f08a7734c0a396856bdeb743f042ddf4f7b5[ALL] 04025a1cffe502a80dfa1f543ae14c082aff24d5ecadab160ca904d288eed8e3d8cacef0985f690868df4f416c3890909b4c0c843da153d41382ac20c80170240a"}, "vout": 1, "txid": "07dc5b5257a01605edd1616c1c3543b90ab043032d56f6d463686912fd4d7e68"}, {"sequence": 4294967295, "scriptSig": {"hex": "47304402200cdc7ddabf7b93276deab71c8efec8de03a14b6689bf42922d16604794e2b44402201d1a0d51d134789036dab7143bbc9bea0f3e871f3cadff2023bfae19254420e0014104025a1cffe502a80dfa1f543ae14c082aff24d5ecadab160ca904d288eed8e3d8cacef0985f690868df4f416c3890909b4c0c843da153d41382ac20c80170240a", "asm": "304402200cdc7ddabf7b93276deab71c8efec8de03a14b6689bf42922d16604794e2b44402201d1a0d51d134789036dab7143bbc9bea0f3e871f3cadff2023bfae19254420e0[ALL] 04025a1cffe502a80dfa1f543ae14c082aff24d5ecadab160ca904d288eed8e3d8cacef0985f690868df4f416c3890909b4c0c843da153d41382ac20c80170240a"}, "vout": 1, "txid": "d9ebfc81dfed0ac5fc63928a8f6f01f55758df5d6266e6dda888613d1db5a501"}, {"sequence": 4294967295, "scriptSig": {"hex": "483045022100d3ec5e8a1b7573108d4639d660f1d374d20004d531c6cc4466e5a388aedb351b022045ededb8f7c1b6b8b714905007cce045868e6f72957340fbd57ab165cd0d499e014104025a1cffe502a80dfa1f543ae14c082aff24d5ecadab160ca904d288eed8e3d8cacef0985f690868df4f416c3890909b4c0c843da153d41382ac20c80170240a", "asm": "3045022100d3ec5e8a1b7573108d4639d660f1d374d20004d531c6cc4466e5a388aedb351b022045ededb8f7c1b6b8b714905007cce045868e6f72957340fbd57ab165cd0d499e[ALL] 04025a1cffe502a80dfa1f543ae14c082aff24d5ecadab160ca904d288eed8e3d8cacef0985f690868df4f416c3890909b4c0c843da153d41382ac20c80170240a"}, "vout": 1, "txid": "945cd1569473c7fd43bf7567a4cbb7177361bca534090e9fc3dfcdb14911f919"}, {"sequence": 4294967295, "scriptSig": {"hex": "473044022020b8c0cd5854cf54c5f219ce7a1d088cbe841f5a357a0bf3da3a7ef6ac57249c02202c55b2dd5f7aaa24024fd6c6f2b29b9b461d6140d63e2a50fd98d8f9d29ed5ef014104025a1cffe502a80dfa1f543ae14c082aff24d5ecadab160ca904d288eed8e3d8cacef0985f690868df4f416c3890909b4c0c843da153d41382ac20c80170240a", "asm": "3044022020b8c0cd5854cf54c5f219ce7a1d088cbe841f5a357a0bf3da3a7ef6ac57249c02202c55b2dd5f7aaa24024fd6c6f2b29b9b461d6140d63e2a50fd98d8f9d29ed5ef[ALL] 04025a1cffe502a80dfa1f543ae14c082aff24d5ecadab160ca904d288eed8e3d8cacef0985f690868df4f416c3890909b4c0c843da153d41382ac20c80170240a"}, "vout": 1, "txid": "c4bf12507802bd668ee18f5b69133ba096d8bb8a7c4c2870e5307d3db452c12a"}, {"sequence": 4294967295, "scriptSig": {"hex": "4730440220346e0fcfda86cc6c2db06c22d1db830d9f743895b71c02389055084a5ff5810802203ed87c89a9ab4d88c8a825c5d4d1738fb1b797b0e31900a45c6d3e2e43ac763e014104c6307029b197580d9d7bd5d1082d53ab2c733c6f1cd8823589919b2f14c376a6d92c2b7890d8f5decf449e9209545896eee1da4f99fdf4d427e1ff53c407f559", "asm": "30440220346e0fcfda86cc6c2db06c22d1db830d9f743895b71c02389055084a5ff5810802203ed87c89a9ab4d88c8a825c5d4d1738fb1b797b0e31900a45c6d3e2e43ac763e[ALL] 04c6307029b197580d9d7bd5d1082d53ab2c733c6f1cd8823589919b2f14c376a6d92c2b7890d8f5decf449e9209545896eee1da4f99fdf4d427e1ff53c407f559"}, "vout": 1, "txid": "b3ce42a3f62837ffd81e03c273c88abbd4a9ef12076f9937a66cbe856f1bee2e"}], "txid": "3a8bbc106b2f80e24d82e6cf89a9490e6236c91bec65e521781e59a9f21328dd", "blocktime": 1537874412, "version": 1, "confirmations": 11467, "time": 1537874412, "locktime": 0, "vsize": 1512, "size": 1512}