{"hash": "d0a4c6ead60743b1db45c40cd4358b59e20bdb5eac81cd28f322785bf045ca7e", "blockhash": "0000000000000000001cda96e906b7601b7a6fb1a3b62bca570a9e5d8f4b3de1", "vout": [{"scriptPubKey": {"reqSigs": 1, "hex": "76a914bc443bbd8771a8be90f3f3b05a386bbab346857888ac", "addresses": ["1JATn14pptSbLEptwYZs16BNN5HT8grYLR"], "asm": "OP_DUP OP_HASH160 bc443bbd8771a8be90f3f3b05a386bbab3468578 OP_EQUALVERIFY OP_CHECKSIG", "type": "pubkeyhash"}, "value": 10.0, "n": 0}, {"scriptPubKey": {"reqSigs": 1, "hex": "a914eb3aac02cba71a02de0cf866d89df36b40bf51a087", "addresses": ["3P8o1Dj327CJ4WNMegVA1JYji6bJTQhqxN"], "asm": "OP_HASH160 eb3aac02cba71a02de0cf866d89df36b40bf51a0 OP_EQUAL", "type": "scripthash"}, "value": 24.4534794, "n": 1}], "hex": "01000000000101618732f1e3ce55bb9ea5b65f25b7af7131004d678b6d94dd218064b6c12a2e7f0100000017160014e2bab6059e32936dd8af2a30886854d8be452b48ffffffff0200ca9a3b000000001976a914bc443bbd8771a8be90f3f3b05a386bbab346857888ac640cc1910000000017a914eb3aac02cba71a02de0cf866d89df36b40bf51a087024730440220335d3229cc0445378e7857673fdcc6d85e6992acbd5bb9cac8e11e47f7389936022004741700d316a6741eaf8c2967e5975652fb51e586f47dc6bd547564313c9aae012102d44a8ff5c3d38ecf34e07998aa28b0639450012afd74a1b314675d653d727f7a00000000", "vin": [{"txinwitness": ["30440220335d3229cc0445378e7857673fdcc6d85e6992acbd5bb9cac8e11e47f7389936022004741700d316a6741eaf8c2967e5975652fb51e586f47dc6bd547564313c9aae01", "02d44a8ff5c3d38ecf34e07998aa28b0639450012afd74a1b314675d653d727f7a"], "sequence": 4294967295, "scriptSig": {"hex": "160014e2bab6059e32936dd8af2a30886854d8be452b48", "asm": "0014e2bab6059e32936dd8af2a30886854d8be452b48"}, "vout": 1, "txid": "7f2e2ac1b6648021dd946d8b674d003171afb7255fb6a59ebb55cee3f1328761"}], "txid": "3a90cb27bccaf5fce1f4b4949196cceec67e4dd24c2d7c574345723b74905825", "blocktime": 1537873282, "version": 1, "confirmations": 11480, "time": 1537873282, "locktime": 0, "vsize": 168, "size": 249}