{"hash": "3a9378e2b4d03325b20d168d400deb15421e3cdb9f78340ddf3c7e4a2b03376a", "blockhash": "0000000000000000001f76057863aec43deb6fa401d9628bb513d65a8098bfab", "vout": [{"scriptPubKey": {"reqSigs": 1, "hex": "a914748074b5fadf73c609bb009254f37e03a3b0f66887", "addresses": ["3CK2C4w4EBapwDoKAV88sELa37W2tsnHA1"], "asm": "OP_HASH160 748074b5fadf73c609bb009254f37e03a3b0f668 OP_EQUAL", "type": "scripthash"}, "value": 0.000777, "n": 0}, {"scriptPubKey": {"reqSigs": 1, "hex": "a914062b5509e2eca513bf4761665571b9bc56aa676187", "addresses": ["32FdtU52duxkwGGSRJ5NuLqYUi2qJfqot1"], "asm": "OP_HASH160 062b5509e2eca513bf4761665571b9bc56aa6761 OP_EQUAL", "type": "scripthash"}, "value": 0.4741462, "n": 1}], "hex": "0100000001feaf871f263d8941d0ed060658cee2615468b647385bb07b45eca9213eb017eb01000000d90047304402205e6566343348af13214cef5c3b028d51db02cb352ebc0490b986b433d7985243022067ca79551abb8adc4c38f9756be6cf63189cb8b9a570ca5f558e0f4622b0b67f014730440220474caf94fcfcc7128929f54304ae916621a3699a311ae043dfe1134d87f5eb8d02205500088d87296650f27794e2ce1ab809410556c37c95bddac3634c75e86e25890147522103abc8a801f5fbb4fd5f6510ba530d534b0efb584b4298cea1e6e2d45cd1000aef2102a29577404fa42d6d12e0d867249d4ee805afecc9e10879ed668da9958dc7b65052aeffffffff02842f01000000000017a914748074b5fadf73c609bb009254f37e03a3b0f668875c7dd3020000000017a914062b5509e2eca513bf4761665571b9bc56aa67618700000000", "vin": [{"sequence": 4294967295, "scriptSig": {"hex": "0047304402205e6566343348af13214cef5c3b028d51db02cb352ebc0490b986b433d7985243022067ca79551abb8adc4c38f9756be6cf63189cb8b9a570ca5f558e0f4622b0b67f014730440220474caf94fcfcc7128929f54304ae916621a3699a311ae043dfe1134d87f5eb8d02205500088d87296650f27794e2ce1ab809410556c37c95bddac3634c75e86e25890147522103abc8a801f5fbb4fd5f6510ba530d534b0efb584b4298cea1e6e2d45cd1000aef2102a29577404fa42d6d12e0d867249d4ee805afecc9e10879ed668da9958dc7b65052ae", "asm": "0 304402205e6566343348af13214cef5c3b028d51db02cb352ebc0490b986b433d7985243022067ca79551abb8adc4c38f9756be6cf63189cb8b9a570ca5f558e0f4622b0b67f[ALL] 30440220474caf94fcfcc7128929f54304ae916621a3699a311ae043dfe1134d87f5eb8d02205500088d87296650f27794e2ce1ab809410556c37c95bddac3634c75e86e2589[ALL] 522103abc8a801f5fbb4fd5f6510ba530d534b0efb584b4298cea1e6e2d45cd1000aef2102a29577404fa42d6d12e0d867249d4ee805afecc9e10879ed668da9958dc7b65052ae"}, "vout": 1, "txid": "eb17b03e21a9ec457bb05b3847b6685461e2ce580606edd041893d261f87affe"}], "txid": "3a9378e2b4d03325b20d168d400deb15421e3cdb9f78340ddf3c7e4a2b03376a", "blocktime": 1537873891, "version": 1, "confirmations": 11478, "time": 1537873891, "locktime": 0, "vsize": 332, "size": 332}