{"hash": "3a96ac920986607352e2159883022f777e24e525fe5b360e95bcb879d04426d7", "blockhash": "0000000000000000001f76057863aec43deb6fa401d9628bb513d65a8098bfab", "vout": [{"scriptPubKey": {"reqSigs": 1, "hex": "a914ed5df6bb8cf1b9fce9cbeb514a6342b1188a7e2187", "addresses": ["3PL6dj7Bxo1iaPcJM17hn3uK55xHp2nEfb"], "asm": "OP_HASH160 ed5df6bb8cf1b9fce9cbeb514a6342b1188a7e21 OP_EQUAL", "type": "scripthash"}, "value": 0.0014534, "n": 0}, {"scriptPubKey": {"reqSigs": 1, "hex": "0014f5656ceb0d8fc4c46822f3367c824ea5107e48c9", "addresses": ["bc1q74jke6cd3lzvg6pz7vm8eqjw55g8ujxfuyzy2e"], "asm": "0 f5656ceb0d8fc4c46822f3367c824ea5107e48c9", "type": "witness_v0_keyhash"}, "value": 1.143e-05, "n": 1}], "hex": "0100000001555cc3e005adbe808f343ddaaadfcd5ed75b89ff4d89389d99fcee7ac36ea5d75b0000006b483045022100ddc1764c5b96a3cb0d612862febf710689070634d7b145258c2fb0bf37a658f102205c7380c55b4802d5c996fed69e736013f44f01210b9c82403c99df3ca8482a2e012103af5e88eb0dfb6ba8c6b9703b5f53a3823f7ebf760848ef5f46bd2efa6176f329ffffffff02bc3702000000000017a914ed5df6bb8cf1b9fce9cbeb514a6342b1188a7e21877704000000000000160014f5656ceb0d8fc4c46822f3367c824ea5107e48c900000000", "vin": [{"sequence": 4294967295, "scriptSig": {"hex": "483045022100ddc1764c5b96a3cb0d612862febf710689070634d7b145258c2fb0bf37a658f102205c7380c55b4802d5c996fed69e736013f44f01210b9c82403c99df3ca8482a2e012103af5e88eb0dfb6ba8c6b9703b5f53a3823f7ebf760848ef5f46bd2efa6176f329", "asm": "3045022100ddc1764c5b96a3cb0d612862febf710689070634d7b145258c2fb0bf37a658f102205c7380c55b4802d5c996fed69e736013f44f01210b9c82403c99df3ca8482a2e[ALL] 03af5e88eb0dfb6ba8c6b9703b5f53a3823f7ebf760848ef5f46bd2efa6176f329"}, "vout": 91, "txid": "d7a56ec37aeefc999d38894dff895bd75ecddfaada3d348f80bead05e0c35c55"}], "txid": "3a96ac920986607352e2159883022f777e24e525fe5b360e95bcb879d04426d7", "blocktime": 1537873891, "version": 1, "confirmations": 11478, "time": 1537873891, "locktime": 0, "vsize": 221, "size": 221}