{"hash": "b3c018999e1fdc5bdd5274dc3af8c56033771b945b5eea2593273af80b24d696", "blockhash": "0000000000000000001cda96e906b7601b7a6fb1a3b62bca570a9e5d8f4b3de1", "vout": [{"scriptPubKey": {"reqSigs": 1, "hex": "a9143af60ddc2214a3f39fec4be5c33f7439e01effe287", "addresses": ["374msp1TCV6m8E8yxu4qaV2HAX7RgcaR7R"], "asm": "OP_HASH160 3af60ddc2214a3f39fec4be5c33f7439e01effe2 OP_EQUAL", "type": "scripthash"}, "value": 0.00063412, "n": 0}, {"scriptPubKey": {"reqSigs": 1, "hex": "a9140ee3a026d3c839e1c7ed05b5e25b2ee93d83e55487", "addresses": ["333k4w4ENszPYtuUdgSmrFTtUMDkanEZXS"], "asm": "OP_HASH160 0ee3a026d3c839e1c7ed05b5e25b2ee93d83e554 OP_EQUAL", "type": "scripthash"}, "value": 0.00131593, "n": 1}], "hex": "0100000000010171a1b491df8000d1bdbbbd000c7b6abf9fa2621291d80fac24b2dec978a7d6a60100000023220020b2981efa48a39f8dd1f33b326f4bc3bad5b814b82962b97492d237271eec00dfffffffff02b4f700000000000017a9143af60ddc2214a3f39fec4be5c33f7439e01effe287090202000000000017a9140ee3a026d3c839e1c7ed05b5e25b2ee93d83e554870400483045022100c1adfc2be8143ff1324fc67cb6389474f37e4bcd006a35e712e6506f3ba32e1b022060135b687ab791eaa733fe920d79b1394aa4f0232f6305166b805f3037dfaee101473044022055e087904e3526ca1e439af09ea1e696e8599d00abf2550d1ca4a4ac047de9af0220197d0ec1ccb8dcf139ec9b21f9302c9b6594bbd569a4fc2a65332783fc3f6b3601695221033fd84626ca0d42ed3b6db1c59b1b6f48eaaadda639f6e7ef65e27402837112ce21026497a7fb4c79e760acf7cd2c2286c9325a42a9414d9f910e4ce97e148f4c42ee2103f9b9c19ac0924b809b97bc7877a96eb85e41a92eda09d164c46f33f41961feb353ae14490800", "vin": [{"txinwitness": ["", "3045022100c1adfc2be8143ff1324fc67cb6389474f37e4bcd006a35e712e6506f3ba32e1b022060135b687ab791eaa733fe920d79b1394aa4f0232f6305166b805f3037dfaee101", "3044022055e087904e3526ca1e439af09ea1e696e8599d00abf2550d1ca4a4ac047de9af0220197d0ec1ccb8dcf139ec9b21f9302c9b6594bbd569a4fc2a65332783fc3f6b3601", "5221033fd84626ca0d42ed3b6db1c59b1b6f48eaaadda639f6e7ef65e27402837112ce21026497a7fb4c79e760acf7cd2c2286c9325a42a9414d9f910e4ce97e148f4c42ee2103f9b9c19ac0924b809b97bc7877a96eb85e41a92eda09d164c46f33f41961feb353ae"], "sequence": 4294967295, "scriptSig": {"hex": "220020b2981efa48a39f8dd1f33b326f4bc3bad5b814b82962b97492d237271eec00df", "asm": "0020b2981efa48a39f8dd1f33b326f4bc3bad5b814b82962b97492d237271eec00df"}, "vout": 1, "txid": "a6d6a778c9deb224ac0fd8911262a29fbf6a7b0c00bdbbbdd10080df91b4a171"}], "txid": "3a98315fd4e3840b5da9a41064e4b583b983c93397f660712fef6dd5d072f8df", "blocktime": 1537873282, "version": 1, "confirmations": 11480, "time": 1537873282, "locktime": 542996, "vsize": 214, "size": 405}