{"hash": "3a9b72ac50036cb643f64535ea94915f7553cec0b2d5518cf8ef92c35a4a7bc3", "blockhash": "0000000000000000000dcc0f55137456b1a82d3642486a52398922ac4d620174", "vout": [{"scriptPubKey": {"reqSigs": 1, "hex": "a914303b1e0a560087a48a841e6a803571e5b1c290fd87", "addresses": ["3663BJAaxEtMMnHTRBbrPKXjdo3Nyqvv5q"], "asm": "OP_HASH160 303b1e0a560087a48a841e6a803571e5b1c290fd OP_EQUAL", "type": "scripthash"}, "value": 0.00313, "n": 0}, {"scriptPubKey": {"reqSigs": 1, "hex": "76a9142a5337258131bcc3dc3658e390a47162185fb86988ac", "addresses": ["14ro4xzRjkPP9XF9kJEz5pKfGPSoqA81UC"], "asm": "OP_DUP OP_HASH160 2a5337258131bcc3dc3658e390a47162185fb869 OP_EQUALVERIFY OP_CHECKSIG", "type": "pubkeyhash"}, "value": 0.31336739, "n": 1}], "hex": "010000000167e99ba63af2410f8a294a374c0d909aafe4f6fb026f1a7233fb6c968454533a010000006b483045022100dc39632a227a643e8cffda019bab3cefd393d789565ce7a2bccaef7ea6c9b7d2022013d970a9af7a99cf93debd7d2e99162e540f386ecd206de850366701b59a2529012103a3909ca3e2c95965bdf0f9c3aeea7e74905b5797dbe86d24ed4efae29595e7cfffffffff02a8c604000000000017a914303b1e0a560087a48a841e6a803571e5b1c290fd872329de01000000001976a9142a5337258131bcc3dc3658e390a47162185fb86988ac00000000", "vin": [{"sequence": 4294967295, "scriptSig": {"hex": "483045022100dc39632a227a643e8cffda019bab3cefd393d789565ce7a2bccaef7ea6c9b7d2022013d970a9af7a99cf93debd7d2e99162e540f386ecd206de850366701b59a2529012103a3909ca3e2c95965bdf0f9c3aeea7e74905b5797dbe86d24ed4efae29595e7cf", "asm": "3045022100dc39632a227a643e8cffda019bab3cefd393d789565ce7a2bccaef7ea6c9b7d2022013d970a9af7a99cf93debd7d2e99162e540f386ecd206de850366701b59a2529[ALL] 03a3909ca3e2c95965bdf0f9c3aeea7e74905b5797dbe86d24ed4efae29595e7cf"}, "vout": 1, "txid": "3a535484966cfb33721a6f02fbf6e4af9a900d4c374a298a0f41f23aa69be967"}], "txid": "3a9b72ac50036cb643f64535ea94915f7553cec0b2d5518cf8ef92c35a4a7bc3", "blocktime": 1537870268, "version": 1, "confirmations": 11516, "time": 1537870268, "locktime": 0, "vsize": 224, "size": 224}