{"hash": "3aa01cbc33646372aadc6463539d492adf811df0ee2ea81927d46a3a9c3a841b", "blockhash": "00000000000000000024a2167bbff67b0be802c0b01cdd79e6331c2be6459f87", "vout": [{"scriptPubKey": {"reqSigs": 1, "hex": "a914f3b921515f2468358b6eac0bf2710f26611df93887", "addresses": ["3PuhuE6xWKrsKEt5PyM8UzUhnTZgQntJht"], "asm": "OP_HASH160 f3b921515f2468358b6eac0bf2710f26611df938 OP_EQUAL", "type": "scripthash"}, "value": 0.00218514, "n": 0}, {"scriptPubKey": {"reqSigs": 1, "hex": "76a91473db74abda190259bc74551c956a65aa0fc4ec1e88ac", "addresses": ["1BZbc7ZajuJEpixAPMjHg2f7Nd5KTMyTdM"], "asm": "OP_DUP OP_HASH160 73db74abda190259bc74551c956a65aa0fc4ec1e OP_EQUALVERIFY OP_CHECKSIG", "type": "pubkeyhash"}, "value": 0.03251615, "n": 1}], "hex": "010000000142887c8a3c6fe70e7bc4047f1db6e412b8baf4d3f5952591ca0cc2ab7bea115a010000006a47304402207ff86335224b90a6c126b523b2c8fd50443063a5c1026981e17fc70e4d13b489022062a1acdf75ca79249f9763e9138b62eb73b32a101bc4bf6b8dffa487f082a2fb012102a92aadf9cf46d1533179586bba37a2f947a0471e2203616116156cff6780bf49fdffffff02925503000000000017a914f3b921515f2468358b6eac0bf2710f26611df938879f9d3100000000001976a91473db74abda190259bc74551c956a65aa0fc4ec1e88ac0d490800", "vin": [{"sequence": 4294967293, "scriptSig": {"hex": "47304402207ff86335224b90a6c126b523b2c8fd50443063a5c1026981e17fc70e4d13b489022062a1acdf75ca79249f9763e9138b62eb73b32a101bc4bf6b8dffa487f082a2fb012102a92aadf9cf46d1533179586bba37a2f947a0471e2203616116156cff6780bf49", "asm": "304402207ff86335224b90a6c126b523b2c8fd50443063a5c1026981e17fc70e4d13b489022062a1acdf75ca79249f9763e9138b62eb73b32a101bc4bf6b8dffa487f082a2fb[ALL] 02a92aadf9cf46d1533179586bba37a2f947a0471e2203616116156cff6780bf49"}, "vout": 1, "txid": "5a11ea7babc20cca912595f5d3f4bab812e4b61d7f04c47b0ee76f3c8a7c8842"}], "txid": "3aa01cbc33646372aadc6463539d492adf811df0ee2ea81927d46a3a9c3a841b", "blocktime": 1537870564, "version": 1, "confirmations": 11515, "time": 1537870564, "locktime": 542989, "vsize": 223, "size": 223}