{"hash": "3aa561962fda6e6f6bb5c4c1a7982d2f52d23a7c8466f877e3ce40433341db89", "blockhash": "0000000000000000000e13cef7c366c0283d82e591d1acd082e914b08063cdf1", "vout": [{"scriptPubKey": {"reqSigs": 1, "hex": "76a9145c47be25f9ca05cb72fc2eb1912b8581d44e9c5288ac", "addresses": ["19Qw7RYmU2tRJSBjJfSMhP5pfRXtGzKYWp"], "asm": "OP_DUP OP_HASH160 5c47be25f9ca05cb72fc2eb1912b8581d44e9c52 OP_EQUALVERIFY OP_CHECKSIG", "type": "pubkeyhash"}, "value": 0.00024475, "n": 0}, {"scriptPubKey": {"type": "nulldata", "hex": "6a4c500000779c000114a898f23fe1bc665f662dbfe3ef3236678a625097bcbefa6b8351586b4eba21a813ee8def98f42073a9709d8c795baa0d99061567b421566cf60117e706f8a4c9d02528a348b20ac714", "asm": "OP_RETURN 0000779c000114a898f23fe1bc665f662dbfe3ef3236678a625097bcbefa6b8351586b4eba21a813ee8def98f42073a9709d8c795baa0d99061567b421566cf60117e706f8a4c9d02528a348b20ac714"}, "value": 0.0, "n": 1}], "hex": "010000000171b1325609ce479347a1275ff010a395e7b54dba174ea1cb145951e88fe3cf10010000006b483045022100a054c329cfde4a3244e6614dbd07b8e40715ed70cd7236b107ae9c410dc4faad02202b48f0e86c384bef839e63c152690fcbcc533bbc4a9808e51336b2de95160617012103712350ae003c8595ac5fd29eb311145786519ea9eb6dbe14c4772b7a2dfa2e35ffffffff029b5f0000000000001976a9145c47be25f9ca05cb72fc2eb1912b8581d44e9c5288ac0000000000000000536a4c500000779c000114a898f23fe1bc665f662dbfe3ef3236678a625097bcbefa6b8351586b4eba21a813ee8def98f42073a9709d8c795baa0d99061567b421566cf60117e706f8a4c9d02528a348b20ac71400000000", "vin": [{"sequence": 4294967295, "scriptSig": {"hex": "483045022100a054c329cfde4a3244e6614dbd07b8e40715ed70cd7236b107ae9c410dc4faad02202b48f0e86c384bef839e63c152690fcbcc533bbc4a9808e51336b2de95160617012103712350ae003c8595ac5fd29eb311145786519ea9eb6dbe14c4772b7a2dfa2e35", "asm": "3045022100a054c329cfde4a3244e6614dbd07b8e40715ed70cd7236b107ae9c410dc4faad02202b48f0e86c384bef839e63c152690fcbcc533bbc4a9808e51336b2de95160617[ALL] 03712350ae003c8595ac5fd29eb311145786519ea9eb6dbe14c4772b7a2dfa2e35"}, "vout": 1, "txid": "10cfe38fe8515914cba14e17ba4db5e795a310f05f27a1479347ce095632b171"}], "txid": "3aa561962fda6e6f6bb5c4c1a7982d2f52d23a7c8466f877e3ce40433341db89", "blocktime": 1537871767, "version": 1, "confirmations": 11493, "time": 1537871767, "locktime": 0, "vsize": 284, "size": 284}