{"hash": "3aa801ae104ed7321a46606f73041de88412ee35ad1ec76ffa44b57e33d2594d", "blockhash": "00000000000000000017f5eb5941039fbcee6240d03bc1f2f8e35350df66a1d8", "vout": [{"scriptPubKey": {"reqSigs": 1, "hex": "a9149a7cbd7e3f0944fe8bd227a11600d7667f817d0b87", "addresses": ["3FmsRBp2BetHi5N2pW2jSxueC4H5CcqESa"], "asm": "OP_HASH160 9a7cbd7e3f0944fe8bd227a11600d7667f817d0b OP_EQUAL", "type": "scripthash"}, "value": 0.07350496, "n": 0}, {"scriptPubKey": {"reqSigs": 1, "hex": "76a914bb25455bf305dbe8fd54739ead2a18cfffb3051a88ac", "addresses": ["1J4Y1W8QcNLoXJk8q9oXPwJzkHV1nB9qip"], "asm": "OP_DUP OP_HASH160 bb25455bf305dbe8fd54739ead2a18cfffb3051a OP_EQUALVERIFY OP_CHECKSIG", "type": "pubkeyhash"}, "value": 0.31715145, "n": 1}], "hex": "01000000011da2b293328ad78b6273bcbbc98c6fdd7896cc0652957bf8287328a36dab7cd6010000006a47304402207a406921a4b1b9d40f2102f6f764dbeb3b2c652cadf091ff40b2878484de5b1502202ab3143ed06f98113356fe4cfa8275a6eada66d30eb61ea93fdeebb893538d800121034a45bebf10b49e47d53dbfa6f030710a6f1821443f11d7d362608ffde5f125cdffffffff02e02870000000000017a9149a7cbd7e3f0944fe8bd227a11600d7667f817d0b8749efe301000000001976a914bb25455bf305dbe8fd54739ead2a18cfffb3051a88ac00000000", "vin": [{"sequence": 4294967295, "scriptSig": {"hex": "47304402207a406921a4b1b9d40f2102f6f764dbeb3b2c652cadf091ff40b2878484de5b1502202ab3143ed06f98113356fe4cfa8275a6eada66d30eb61ea93fdeebb893538d800121034a45bebf10b49e47d53dbfa6f030710a6f1821443f11d7d362608ffde5f125cd", "asm": "304402207a406921a4b1b9d40f2102f6f764dbeb3b2c652cadf091ff40b2878484de5b1502202ab3143ed06f98113356fe4cfa8275a6eada66d30eb61ea93fdeebb893538d80[ALL] 034a45bebf10b49e47d53dbfa6f030710a6f1821443f11d7d362608ffde5f125cd"}, "vout": 1, "txid": "d67cab6da3287328f87b955206cc9678dd6f8cc9bbbc73628bd78a3293b2a21d"}], "txid": "3aa801ae104ed7321a46606f73041de88412ee35ad1ec76ffa44b57e33d2594d", "blocktime": 1537874412, "version": 1, "confirmations": 11467, "time": 1537874412, "locktime": 0, "vsize": 223, "size": 223}