{"hash": "b584367a358dcb712a406f1cace325c825cb262a21d35cd1ad71f8cada62155c", "blockhash": "00000000000000000017f5eb5941039fbcee6240d03bc1f2f8e35350df66a1d8", "vout": [{"scriptPubKey": {"reqSigs": 1, "hex": "00149ef340853e11026696316d9db13cff57981f34eb", "addresses": ["bc1qnme5ppf7zypxd933dkwmz08l27vp7d8tgde0yq"], "asm": "0 9ef340853e11026696316d9db13cff57981f34eb", "type": "witness_v0_keyhash"}, "value": 0.00208978, "n": 0}, {"scriptPubKey": {"reqSigs": 1, "hex": "76a9149310deaf3bf1cd25cd04e6552950f48bf3de1a3d88ac", "addresses": ["1EQcYLaeUVcadjzFRdwc1ktbdC3zu1WqM3"], "asm": "OP_DUP OP_HASH160 9310deaf3bf1cd25cd04e6552950f48bf3de1a3d OP_EQUALVERIFY OP_CHECKSIG", "type": "pubkeyhash"}, "value": 0.0183, "n": 1}], "hex": "01000000000101fc590c4332ff6772649d900d8833dba1f967d59e245a24eb620d1303e84737020100000000ffffffff0252300300000000001600149ef340853e11026696316d9db13cff57981f34eb70ec1b00000000001976a9149310deaf3bf1cd25cd04e6552950f48bf3de1a3d88ac02483045022100eb98121d00989dc80042afae21e6d172ea718d75449df484bb8dd487a2378e70022008e2c435f76b7f314a6f5f1f4fe0c2d0b45123a4da526c768cc32973721c42570121030d445185a42b0d4d3dd0ef062982423f67864f39ffafb2158dc9c27e1671bf3200000000", "vin": [{"txinwitness": ["3045022100eb98121d00989dc80042afae21e6d172ea718d75449df484bb8dd487a2378e70022008e2c435f76b7f314a6f5f1f4fe0c2d0b45123a4da526c768cc32973721c425701", "030d445185a42b0d4d3dd0ef062982423f67864f39ffafb2158dc9c27e1671bf32"], "sequence": 4294967295, "scriptSig": {"hex": "", "asm": ""}, "vout": 1, "txid": "023747e803130d62eb245a249ed567f9a1db33880d909d647267ff32430c59fc"}], "txid": "3ab006d70f947392aac72119e3392096b0373cbfa2c09578495ec4f3b592cb93", "blocktime": 1537874412, "version": 1, "confirmations": 11467, "time": 1537874412, "locktime": 0, "vsize": 144, "size": 226}