{"hash": "6e05deeb26d4289d46fe994b62be5e866e82b230e8f2a75252ae72bd9cc323ff", "blockhash": "00000000000000000017f5eb5941039fbcee6240d03bc1f2f8e35350df66a1d8", "vout": [{"scriptPubKey": {"reqSigs": 1, "hex": "a9142b4a29b2378cc2f592b98a98c66a6eded646fa6187", "addresses": ["35dupigJgWj41VkbZAnEQjvCFuqW92nKhg"], "asm": "OP_HASH160 2b4a29b2378cc2f592b98a98c66a6eded646fa61 OP_EQUAL", "type": "scripthash"}, "value": 0.05657645, "n": 0}], "hex": "0100000000010371eb7e453c4db63b5b3823f34f72908672109e7c4c48f2cddbefe830b98d9103010000001716001400b2e0133f5a6909e343430ce61da688d2fe2122fdffffffbe6591c4d1a7f22db016b8de7981718443a213500e9fa9106a750a791e8297a700000000171600149e557e2cd38feddb6c94ccdb33e203c724de143efdffffff42998cbb67e39170a04b9a5ea797f120cdfa4e523db870f796d9090cf6f96cd10000000017160014606391913af03e1f2f0ba300cbaff239c7779e02fdffffff012d5456000000000017a9142b4a29b2378cc2f592b98a98c66a6eded646fa618702483045022100b4d9dd17a5b9b87eb42e0075da6bb9c4112d1607a6783f79a16385e1e27f6ae002207020db7b11cf5e7dcbc19c7366d54cad0ad0550ddc9c173b353b9de5aaf42b9e01210284d0fec3cad3513a98d019f2e4fda61484ad13a005f6e9d1b0a7d4143a9d712d02473044022019e665d21b6ed8581cd14ed943f0881f83b3218dfecbba7319874475331fc1e902203c6fdebe6a5a1632b59f3325728d408cabb791631811e5aea707f816240bb36f0121023596155df2a6d19b5fe05553fcd580187e1a3f10ee40d8c0f577d8eca4b14e0e02473044022057996a9cf81c9636ac8d352bfd72f8064ed4f625a437517ac1af72a7feb61f69022009e34eaabb539e47bb4b5e10124ebcaf9f16189b893c1b395ad96f2a5c8afa8801210321ec7704771c391e2833fd334604b9219dac21b09112a76fd3676cf21d18d08915490800", "vin": [{"txinwitness": ["3045022100b4d9dd17a5b9b87eb42e0075da6bb9c4112d1607a6783f79a16385e1e27f6ae002207020db7b11cf5e7dcbc19c7366d54cad0ad0550ddc9c173b353b9de5aaf42b9e01", "0284d0fec3cad3513a98d019f2e4fda61484ad13a005f6e9d1b0a7d4143a9d712d"], "sequence": 4294967293, "scriptSig": {"hex": "16001400b2e0133f5a6909e343430ce61da688d2fe2122", "asm": "001400b2e0133f5a6909e343430ce61da688d2fe2122"}, "vout": 1, "txid": "03918db930e8efdbcdf2484c7c9e10728690724ff323385b3bb64d3c457eeb71"}, {"txinwitness": ["3044022019e665d21b6ed8581cd14ed943f0881f83b3218dfecbba7319874475331fc1e902203c6fdebe6a5a1632b59f3325728d408cabb791631811e5aea707f816240bb36f01", "023596155df2a6d19b5fe05553fcd580187e1a3f10ee40d8c0f577d8eca4b14e0e"], "sequence": 4294967293, "scriptSig": {"hex": "1600149e557e2cd38feddb6c94ccdb33e203c724de143e", "asm": "00149e557e2cd38feddb6c94ccdb33e203c724de143e"}, "vout": 0, "txid": "a797821e790a756a10a99f0e5013a24384718179deb816b02df2a7d1c49165be"}, {"txinwitness": ["3044022057996a9cf81c9636ac8d352bfd72f8064ed4f625a437517ac1af72a7feb61f69022009e34eaabb539e47bb4b5e10124ebcaf9f16189b893c1b395ad96f2a5c8afa8801", "0321ec7704771c391e2833fd334604b9219dac21b09112a76fd3676cf21d18d089"], "sequence": 4294967293, "scriptSig": {"hex": "160014606391913af03e1f2f0ba300cbaff239c7779e02", "asm": "0014606391913af03e1f2f0ba300cbaff239c7779e02"}, "vout": 0, "txid": "d16cf9f60c09d996f770b83d524efacd20f197a75e9a4ba07091e367bb8c9942"}], "txid": "3ab7e33bf1e44bfc1d132c21c2e2ff23eba1957628ba3af46b8bd30f8eda5383", "blocktime": 1537874412, "version": 1, "confirmations": 11468, "time": 1537874412, "locktime": 542997, "vsize": 315, "size": 558}