{"hash": "3aba5d9274a67d0ee1304a554f6d6b8e1ac7b584686f586d18e903276695dbb8", "blockhash": "0000000000000000001f0ddff1eddb255c1121bcd4da4f1bc9a0da00cae72433", "vout": [{"scriptPubKey": {"reqSigs": 1, "hex": "76a9141eb824db9efe133876592a85bde9b619c12cea0088ac", "addresses": ["13oRsJZDKeivdyhjBrPfg3SSQDzJhkDfnZ"], "asm": "OP_DUP OP_HASH160 1eb824db9efe133876592a85bde9b619c12cea00 OP_EQUALVERIFY OP_CHECKSIG", "type": "pubkeyhash"}, "value": 0.00418867, "n": 0}, {"scriptPubKey": {"reqSigs": 1, "hex": "a914aa83e58810524a9a393204e4afa3a3601bef1bed87", "addresses": ["3HEcoVUuS1VqSstgsod1dUKgRa4yFowf7L"], "asm": "OP_HASH160 aa83e58810524a9a393204e4afa3a3601bef1bed OP_EQUAL", "type": "scripthash"}, "value": 0.00499808, "n": 1}], "hex": "0100000001412b8bb002a50be8dd9f94fabfb8a7f2295dfa86b6fb86ae0c31e650447c184c140000006b483045022100e379216453602411a2bc971add4dcf08d5939944d99901a72c4ad302e66b868c02200ee0b29238af43dd4e3297e82f30a23c4cc61dd66d50d76448af844e20f27100012103df1fa9af811c9c29e2cf035caecff30096a288e4756318799b45448c9fd375c7ffffffff0233640600000000001976a9141eb824db9efe133876592a85bde9b619c12cea0088ac60a007000000000017a914aa83e58810524a9a393204e4afa3a3601bef1bed8700000000", "vin": [{"sequence": 4294967295, "scriptSig": {"hex": "483045022100e379216453602411a2bc971add4dcf08d5939944d99901a72c4ad302e66b868c02200ee0b29238af43dd4e3297e82f30a23c4cc61dd66d50d76448af844e20f27100012103df1fa9af811c9c29e2cf035caecff30096a288e4756318799b45448c9fd375c7", "asm": "3045022100e379216453602411a2bc971add4dcf08d5939944d99901a72c4ad302e66b868c02200ee0b29238af43dd4e3297e82f30a23c4cc61dd66d50d76448af844e20f27100[ALL] 03df1fa9af811c9c29e2cf035caecff30096a288e4756318799b45448c9fd375c7"}, "vout": 20, "txid": "4c187c4450e6310cae86fbb686fa5d29f2a7b8bffa949fdde80ba502b08b2b41"}], "txid": "3aba5d9274a67d0ee1304a554f6d6b8e1ac7b584686f586d18e903276695dbb8", "blocktime": 1537872018, "version": 1, "confirmations": 11489, "time": 1537872018, "locktime": 0, "vsize": 224, "size": 224}