{"hash": "8015a2603207ba0fcb4c0d9d7fed223a4ee330baffec2d7c3e7e0ae990d7b6fb", "blockhash": "00000000000000000017f5eb5941039fbcee6240d03bc1f2f8e35350df66a1d8", "vout": [{"scriptPubKey": {"reqSigs": 1, "hex": "76a914bfa0ff3913a013d8a58d4e6ab6691eea0cdcd19988ac", "addresses": ["1JUEvuUpzmfLJWiQaS8JkfynyhiWvKtDxo"], "asm": "OP_DUP OP_HASH160 bfa0ff3913a013d8a58d4e6ab6691eea0cdcd199 OP_EQUALVERIFY OP_CHECKSIG", "type": "pubkeyhash"}, "value": 0.10976225, "n": 0}, {"scriptPubKey": {"reqSigs": 1, "hex": "00146c3cc7aa4781748db5c5abcfb43ef34cb6b2d87f", "addresses": ["bc1qds7v02j8s96gmdw9408mg0hnfjmt9krlusu4a8"], "asm": "0 6c3cc7aa4781748db5c5abcfb43ef34cb6b2d87f", "type": "witness_v0_keyhash"}, "value": 0.04844071, "n": 1}], "hex": "010000000001011a761c4529143ea6b1d55214befd90d9a594d78671d827e00b245bd095a1d77016000000171600146811a931210698255b25a51de41fca1896dd047affffffff02e17ba700000000001976a914bfa0ff3913a013d8a58d4e6ab6691eea0cdcd19988ac27ea4900000000001600146c3cc7aa4781748db5c5abcfb43ef34cb6b2d87f02473044022076e83e69fba990c9bd1c78be2af1f982f5e9205cc7642595ccfffb3f7aa895f5022076b4a326317f308505ea34881d65410c24e69b2e6e8a7c5345adc2049c5285db012102a659e23389b2318e0ffb1d5cbc14c351b721d961f604f68eba7891ec937e984000000000", "vin": [{"txinwitness": ["3044022076e83e69fba990c9bd1c78be2af1f982f5e9205cc7642595ccfffb3f7aa895f5022076b4a326317f308505ea34881d65410c24e69b2e6e8a7c5345adc2049c5285db01", "02a659e23389b2318e0ffb1d5cbc14c351b721d961f604f68eba7891ec937e9840"], "sequence": 4294967295, "scriptSig": {"hex": "1600146811a931210698255b25a51de41fca1896dd047a", "asm": "00146811a931210698255b25a51de41fca1896dd047a"}, "vout": 22, "txid": "70d7a195d05b240be027d87186d794a5d990fdbe1452d5b1a63e1429451c761a"}], "txid": "3ac2b09f3927930549ca37a26649fcbcc58c26850f2bffb5c860951e84da87a2", "blocktime": 1537874412, "version": 1, "confirmations": 11468, "time": 1537874412, "locktime": 0, "vsize": 167, "size": 248}