{"hash": "3acb192c27345557555b4412dbb89eab86e29f11bacc0cd808fd41d2ca2069b4", "blockhash": "00000000000000000024a2167bbff67b0be802c0b01cdd79e6331c2be6459f87", "vout": [{"scriptPubKey": {"type": "nulldata", "hex": "6a146f6d6e69000000000000001f000000071fe6f200", "asm": "OP_RETURN 6f6d6e69000000000000001f000000071fe6f200"}, "value": 0.0, "n": 0}, {"scriptPubKey": {"reqSigs": 1, "hex": "76a914ca177a5fd95aca8a1fb28e752d6905322d02e7ee88ac", "addresses": ["1KRZd2q3VHxDvKwhG528PjU8xFxg4MNu6S"], "asm": "OP_DUP OP_HASH160 ca177a5fd95aca8a1fb28e752d6905322d02e7ee OP_EQUALVERIFY OP_CHECKSIG", "type": "pubkeyhash"}, "value": 5.46e-06, "n": 1}, {"scriptPubKey": {"reqSigs": 1, "hex": "76a914a25dec4d0011064ef106a983c39c7a540699f22088ac", "addresses": ["1FoWyxwPXuj4C6abqwhjDWdz6D4PZgYRjA"], "asm": "OP_DUP OP_HASH160 a25dec4d0011064ef106a983c39c7a540699f220 OP_EQUALVERIFY OP_CHECKSIG", "type": "pubkeyhash"}, "value": 0.01995188, "n": 2}], "hex": "0100000001a44813c76173a4fe9689194c29809e35be05f1741d9b5e1e9e8bd44070ac1fea650000006a473044022058a64ee584b02979632d68c8b8ffe56bd9f7a842c40d864bcf165d64cf17d88b022011b76766282b25a42e3c9f45fb9c95ee0ca2efa4b0aa9271d4f15b4d14a6f2a4012103da5bac7b36d5aa38f531c6b9601e21bb598a4b6716ebed38b009a55dabde9440feffffff030000000000000000166a146f6d6e69000000000000001f000000071fe6f20022020000000000001976a914ca177a5fd95aca8a1fb28e752d6905322d02e7ee88acb4711e00000000001976a914a25dec4d0011064ef106a983c39c7a540699f22088ac0d490800", "vin": [{"sequence": 4294967294, "scriptSig": {"hex": "473044022058a64ee584b02979632d68c8b8ffe56bd9f7a842c40d864bcf165d64cf17d88b022011b76766282b25a42e3c9f45fb9c95ee0ca2efa4b0aa9271d4f15b4d14a6f2a4012103da5bac7b36d5aa38f531c6b9601e21bb598a4b6716ebed38b009a55dabde9440", "asm": "3044022058a64ee584b02979632d68c8b8ffe56bd9f7a842c40d864bcf165d64cf17d88b022011b76766282b25a42e3c9f45fb9c95ee0ca2efa4b0aa9271d4f15b4d14a6f2a4[ALL] 03da5bac7b36d5aa38f531c6b9601e21bb598a4b6716ebed38b009a55dabde9440"}, "vout": 101, "txid": "ea1fac7040d48b9e1e5e9b1d74f105be359e80294c198996fea47361c71348a4"}], "txid": "3acb192c27345557555b4412dbb89eab86e29f11bacc0cd808fd41d2ca2069b4", "blocktime": 1537870564, "version": 1, "confirmations": 11515, "time": 1537870564, "locktime": 542989, "vsize": 256, "size": 256}