{"hash": "9c12fb3c3e2f397abe75879f1646e25b1927501463aa6def89b0637c92bf8007", "blockhash": "00000000000000000017f5eb5941039fbcee6240d03bc1f2f8e35350df66a1d8", "vout": [{"scriptPubKey": {"reqSigs": 1, "hex": "a914c2cc14b2f2ed3ab260d636955d7cc08aaada8a5f87", "addresses": ["3KT1VYabefKKoZnrnG94oEbcYEXVbRPhDd"], "asm": "OP_HASH160 c2cc14b2f2ed3ab260d636955d7cc08aaada8a5f OP_EQUAL", "type": "scripthash"}, "value": 0.1, "n": 0}, {"scriptPubKey": {"reqSigs": 1, "hex": "a91454b899a855c2b6da61eafaf08ee50d2cb24110b787", "addresses": ["39QypuW1C2ajBMx4AszmobsHS2CGqZxBXL"], "asm": "OP_HASH160 54b899a855c2b6da61eafaf08ee50d2cb24110b7 OP_EQUAL", "type": "scripthash"}, "value": 3.69926572, "n": 1}], "hex": "020000000001013e986d0bae04c423369daeef1203142787340eecda9a112edb0af528ad1a5c740100000017160014e908ed6c3a4f7bbb67bf38bba8d098390f639ad2feffffff02809698000000000017a914c2cc14b2f2ed3ab260d636955d7cc08aaada8a5f87aca10c160000000017a91454b899a855c2b6da61eafaf08ee50d2cb24110b78702483045022100cec3ba94a2ea07a17a226a891387ca7db885b4a114e4b63d5cdb3fcb497cc973022003adabf0a75c33b554c9506d9f68c48636313d21bf7e4badf7181a19a55294e5012102991b2430b0f5504ccf7fc94cdd0b2153fa2dfffbffe527218fe96fedb04fa2ee15490800", "vin": [{"txinwitness": ["3045022100cec3ba94a2ea07a17a226a891387ca7db885b4a114e4b63d5cdb3fcb497cc973022003adabf0a75c33b554c9506d9f68c48636313d21bf7e4badf7181a19a55294e501", "02991b2430b0f5504ccf7fc94cdd0b2153fa2dfffbffe527218fe96fedb04fa2ee"], "sequence": 4294967294, "scriptSig": {"hex": "160014e908ed6c3a4f7bbb67bf38bba8d098390f639ad2", "asm": "0014e908ed6c3a4f7bbb67bf38bba8d098390f639ad2"}, "vout": 1, "txid": "745c1aad28f50adb2e119adaec0e348727140312efae9d3623c404ae0b6d983e"}], "txid": "3ad7e9a1031d33490a7995f808bb99df6ea78b13c1bb84aaacc48ad96bf28675", "blocktime": 1537874412, "version": 2, "confirmations": 11468, "time": 1537874412, "locktime": 542997, "vsize": 166, "size": 248}