{"hash": "3ad9e65590d698d709147e50062f0b65157291199e9254c4eaca06ba8baf51b8", "blockhash": "000000000000000000022b45ed06c6f4ccd3cf7fb5ba4856ebd2e58215665228", "vout": [{"scriptPubKey": {"reqSigs": 1, "hex": "76a9140d4b10e2a9b455ad49acdd3d5caa442227cc480788ac", "addresses": ["12DHiAkGqiJ65WHSWcBGd9BnkQ7SpY7R3j"], "asm": "OP_DUP OP_HASH160 0d4b10e2a9b455ad49acdd3d5caa442227cc4807 OP_EQUALVERIFY OP_CHECKSIG", "type": "pubkeyhash"}, "value": 0.56302313, "n": 0}], "hex": "01000000086cd2f7a642821584d50bb1d29f2f296a2d982d1f2a4fff7ee54819aca0ea6216000000006b483045022100cc9c99f07f22fa5e4f1eb1826e9eeea2b25dc09683f926bd82ea012fa5f303d102200953655bce9b5552894a815e8137968c9e417e225b5b61f4e47f9e676e091b81012103740439c812eb99a5e2237c57899accece6e5cca6074c900573fe6eead4cb18c1ffffffff43859e3139d6e7ffb374594bc093c6899a80804c87055db51be8188f8c114320000000006b4830450221009ca56d8d93e8ff92897409ca81b8c60b7ea26286360f665c1a3c4ee4b00ed88202207076fa606002ca5ddb20d84accbd60e1bf54e477d1a861fff14faab6962dc072012103cdc456b7747085ea35108150e46a3dc54ac738277df8a316a7e27b19ba03305fffffffffcabec8b1742402c7b8a1e29576b2e453e0657fd3ba1825a472efc89374b77050010000006a473044022067ce63c8a6a968712f6199ff97c576c9a7aaf2f80955983963f02b33b0fdd4d70220532763362eee1c9550f4895459b1109912002c42f475e8aa40e7090be0b964fa0121023bc21c2ea5922828d6dd1be9d5baf0739288c9af4bca34dbebd4feeee6ab8599ffffffff0460d1898533aedc492a48bae4345b795ada2f80f969c0dfb3b81e3ca72bff82000000006b483045022100c6ac4aaed034d08b2d399a3bda79517e2477020231ea4100ee5e60ba20cc6b5d02203c84107062edaa21f61de4114c84d06fc1c12c8cf32eb7681f8b0279024086b30121024bd3b6f82f2f594bf9459a04f84e0c47280b50e9cf6a222925704cae69196067ffffffff32854fa9351870f988cb830677eafdd3a7f2dd32873000188045e1200a2de0a3000000006a4730440220673be407222a1d89a37c40d7d61c1e877b6e7f686dcad59a188690549d5b1b87022048b495b8b3948bb740c4153e4dd8652e174eea4026c72fcda715494e1ec18429012103b897fc45c53c7eff5f8a99454c0912e95779a7608e3086eed71732a7c8cb199bffffffff956495e992170d4b2b661f424e64aa0fadd96804257f11be6cf6b1125f8222c7010000006b483045022100fb8bac65cfb70b1e372cb250092a14e1eb1c846e2cb59784aa3df85c9f98050b02206d9d22558b7dc6997e01ee3658cd91c2ba8b8ace5b261d86de224a035cd59a3b012103239804532e430fc85386f67db656fb130a0788690904301608ce69908278f4ecffffffff02d873703ae08d7330d536e9b2d3aeff52f9aa16b55c0c67a6f09d1a29b598c8010000006a4730440220495d129d754947e304fc4fe2b34b8e86b587024240f097b3b7c15487ec401a4902206e4d1bc83210e44fb74ec01d9166e135b7de02987792b7bc5fb3b055066f276a012103740439c812eb99a5e2237c57899accece6e5cca6074c900573fe6eead4cb18c1ffffffff01b56f29b413a8ba02b58b305d5ed65a5928f85158ae2c98f7313497b1d5bef0010000006b483045022100fee76fc1a1035eb2bd9338c9a91712aadd91e95971d4779ab3bf5720a6f1deb102207091c7ab9d39194246aee909ea8f374af90d6b0d82821be33d071110523dc5610121024bd3b6f82f2f594bf9459a04f84e0c47280b50e9cf6a222925704cae69196067ffffffff01e91a5b03000000001976a9140d4b10e2a9b455ad49acdd3d5caa442227cc480788ac00000000", "vin": [{"sequence": 4294967295, "scriptSig": {"hex": "483045022100cc9c99f07f22fa5e4f1eb1826e9eeea2b25dc09683f926bd82ea012fa5f303d102200953655bce9b5552894a815e8137968c9e417e225b5b61f4e47f9e676e091b81012103740439c812eb99a5e2237c57899accece6e5cca6074c900573fe6eead4cb18c1", "asm": "3045022100cc9c99f07f22fa5e4f1eb1826e9eeea2b25dc09683f926bd82ea012fa5f303d102200953655bce9b5552894a815e8137968c9e417e225b5b61f4e47f9e676e091b81[ALL] 03740439c812eb99a5e2237c57899accece6e5cca6074c900573fe6eead4cb18c1"}, "vout": 0, "txid": "1662eaa0ac1948e57eff4f2a1f2d982d6a292f9fd2b10bd584158242a6f7d26c"}, {"sequence": 4294967295, "scriptSig": {"hex": "4830450221009ca56d8d93e8ff92897409ca81b8c60b7ea26286360f665c1a3c4ee4b00ed88202207076fa606002ca5ddb20d84accbd60e1bf54e477d1a861fff14faab6962dc072012103cdc456b7747085ea35108150e46a3dc54ac738277df8a316a7e27b19ba03305f", "asm": "30450221009ca56d8d93e8ff92897409ca81b8c60b7ea26286360f665c1a3c4ee4b00ed88202207076fa606002ca5ddb20d84accbd60e1bf54e477d1a861fff14faab6962dc072[ALL] 03cdc456b7747085ea35108150e46a3dc54ac738277df8a316a7e27b19ba03305f"}, "vout": 0, "txid": "2043118c8f18e81bb55d05874c80809a89c693c04b5974b3ffe7d639319e8543"}, {"sequence": 4294967295, "scriptSig": {"hex": "473044022067ce63c8a6a968712f6199ff97c576c9a7aaf2f80955983963f02b33b0fdd4d70220532763362eee1c9550f4895459b1109912002c42f475e8aa40e7090be0b964fa0121023bc21c2ea5922828d6dd1be9d5baf0739288c9af4bca34dbebd4feeee6ab8599", "asm": "3044022067ce63c8a6a968712f6199ff97c576c9a7aaf2f80955983963f02b33b0fdd4d70220532763362eee1c9550f4895459b1109912002c42f475e8aa40e7090be0b964fa[ALL] 023bc21c2ea5922828d6dd1be9d5baf0739288c9af4bca34dbebd4feeee6ab8599"}, "vout": 1, "txid": "5070b77493c8ef72a42518bad37f65e053e4b27695e2a1b8c7022474b1c8beca"}, {"sequence": 4294967295, "scriptSig": {"hex": "483045022100c6ac4aaed034d08b2d399a3bda79517e2477020231ea4100ee5e60ba20cc6b5d02203c84107062edaa21f61de4114c84d06fc1c12c8cf32eb7681f8b0279024086b30121024bd3b6f82f2f594bf9459a04f84e0c47280b50e9cf6a222925704cae69196067", "asm": "3045022100c6ac4aaed034d08b2d399a3bda79517e2477020231ea4100ee5e60ba20cc6b5d02203c84107062edaa21f61de4114c84d06fc1c12c8cf32eb7681f8b0279024086b3[ALL] 024bd3b6f82f2f594bf9459a04f84e0c47280b50e9cf6a222925704cae69196067"}, "vout": 0, "txid": "82ff2ba73c1eb8b3dfc069f9802fda5a795b34e4ba482a49dcae338589d16004"}, {"sequence": 4294967295, "scriptSig": {"hex": "4730440220673be407222a1d89a37c40d7d61c1e877b6e7f686dcad59a188690549d5b1b87022048b495b8b3948bb740c4153e4dd8652e174eea4026c72fcda715494e1ec18429012103b897fc45c53c7eff5f8a99454c0912e95779a7608e3086eed71732a7c8cb199b", "asm": "30440220673be407222a1d89a37c40d7d61c1e877b6e7f686dcad59a188690549d5b1b87022048b495b8b3948bb740c4153e4dd8652e174eea4026c72fcda715494e1ec18429[ALL] 03b897fc45c53c7eff5f8a99454c0912e95779a7608e3086eed71732a7c8cb199b"}, "vout": 0, "txid": "a3e02d0a20e145801800308732ddf2a7d3fdea770683cb88f9701835a94f8532"}, {"sequence": 4294967295, "scriptSig": {"hex": "483045022100fb8bac65cfb70b1e372cb250092a14e1eb1c846e2cb59784aa3df85c9f98050b02206d9d22558b7dc6997e01ee3658cd91c2ba8b8ace5b261d86de224a035cd59a3b012103239804532e430fc85386f67db656fb130a0788690904301608ce69908278f4ec", "asm": "3045022100fb8bac65cfb70b1e372cb250092a14e1eb1c846e2cb59784aa3df85c9f98050b02206d9d22558b7dc6997e01ee3658cd91c2ba8b8ace5b261d86de224a035cd59a3b[ALL] 03239804532e430fc85386f67db656fb130a0788690904301608ce69908278f4ec"}, "vout": 1, "txid": "c722825f12b1f66cbe117f250468d9ad0faa644e421f662b4b0d1792e9956495"}, {"sequence": 4294967295, "scriptSig": {"hex": "4730440220495d129d754947e304fc4fe2b34b8e86b587024240f097b3b7c15487ec401a4902206e4d1bc83210e44fb74ec01d9166e135b7de02987792b7bc5fb3b055066f276a012103740439c812eb99a5e2237c57899accece6e5cca6074c900573fe6eead4cb18c1", "asm": "30440220495d129d754947e304fc4fe2b34b8e86b587024240f097b3b7c15487ec401a4902206e4d1bc83210e44fb74ec01d9166e135b7de02987792b7bc5fb3b055066f276a[ALL] 03740439c812eb99a5e2237c57899accece6e5cca6074c900573fe6eead4cb18c1"}, "vout": 1, "txid": "c898b5291a9df0a6670c5cb516aaf952ffaed3b2e936d530738de03a7073d802"}, {"sequence": 4294967295, "scriptSig": {"hex": "483045022100fee76fc1a1035eb2bd9338c9a91712aadd91e95971d4779ab3bf5720a6f1deb102207091c7ab9d39194246aee909ea8f374af90d6b0d82821be33d071110523dc5610121024bd3b6f82f2f594bf9459a04f84e0c47280b50e9cf6a222925704cae69196067", "asm": "3045022100fee76fc1a1035eb2bd9338c9a91712aadd91e95971d4779ab3bf5720a6f1deb102207091c7ab9d39194246aee909ea8f374af90d6b0d82821be33d071110523dc561[ALL] 024bd3b6f82f2f594bf9459a04f84e0c47280b50e9cf6a222925704cae69196067"}, "vout": 1, "txid": "f0bed5b1973431f7982cae5851f828595ad65e5d308bb502baa813b4296fb501"}], "txid": "3ad9e65590d698d709147e50062f0b65157291199e9254c4eaca06ba8baf51b8", "blocktime": 1537869901, "version": 1, "confirmations": 11523, "time": 1537869901, "locktime": 0, "vsize": 1225, "size": 1225}