{"hash": "f27a3a8d4cbee78bbd880c4c98ba502d14aa925158e75b4ad5311c7aa981a746", "blockhash": "0000000000000000000e13cef7c366c0283d82e591d1acd082e914b08063cdf1", "vout": [{"scriptPubKey": {"reqSigs": 1, "hex": "a914a3902f64caeeaf4e01848f6fc34282d78decd24a87", "addresses": ["3GbrnyFfp8fvmmNNDqfcaHhrQ3ZcUuqK31"], "asm": "OP_HASH160 a3902f64caeeaf4e01848f6fc34282d78decd24a OP_EQUAL", "type": "scripthash"}, "value": 0.0022688, "n": 0}, {"scriptPubKey": {"reqSigs": 1, "hex": "a9149649ad6d2730bb28020a268d9d80df10a9f74ad487", "addresses": ["3FPfYWwfMfKMGY7fuPHvz2b73RhTNGzsm3"], "asm": "OP_HASH160 9649ad6d2730bb28020a268d9d80df10a9f74ad4 OP_EQUAL", "type": "scripthash"}, "value": 13.89454423, "n": 1}], "hex": "01000000000101ee8cc4d7f2c758ffc4266528df314607abcd45e0a0e1d3bd147489a16fa85b2001000000232200207768efcc1e5eb3d28410fac3f45831004c860cc24cddd940a616b34324823fceffffffff02407603000000000017a914a3902f64caeeaf4e01848f6fc34282d78decd24a875764d1520000000017a9149649ad6d2730bb28020a268d9d80df10a9f74ad487040047304402206a4b58e72d60578b48db568c7fe2147a8136af9ebf03f2440392954d8140abc8022035435f8911c4abac31dd00679a56b38c44a1bb164b5779c5d4f3d0d0688356330148304502210087e96cf3502da5aad6b7a88f41d031e1497ed8126a649b672ce6067de4ac380102200d5a18c8244279f3ec4b8a6ccf8696954c0af4e292f4b125c91a6e3de98bf39e0147522102529d5d1f6733ab45d9d50e07db42c7f6b967ae321c38b726c2247f149959b8262103d0c936a5988dd8421c63240496b723b0ec42400c38b9350e32c2eb4f47d8796952ae00000000", "vin": [{"txinwitness": ["", "304402206a4b58e72d60578b48db568c7fe2147a8136af9ebf03f2440392954d8140abc8022035435f8911c4abac31dd00679a56b38c44a1bb164b5779c5d4f3d0d06883563301", "304502210087e96cf3502da5aad6b7a88f41d031e1497ed8126a649b672ce6067de4ac380102200d5a18c8244279f3ec4b8a6ccf8696954c0af4e292f4b125c91a6e3de98bf39e01", "522102529d5d1f6733ab45d9d50e07db42c7f6b967ae321c38b726c2247f149959b8262103d0c936a5988dd8421c63240496b723b0ec42400c38b9350e32c2eb4f47d8796952ae"], "sequence": 4294967295, "scriptSig": {"hex": "2200207768efcc1e5eb3d28410fac3f45831004c860cc24cddd940a616b34324823fce", "asm": "00207768efcc1e5eb3d28410fac3f45831004c860cc24cddd940a616b34324823fce"}, "vout": 1, "txid": "205ba86fa1897414bdd3e1a0e045cdab074631df286526c4ff58c7f2d7c48cee"}], "txid": "3ada46637eae297d306b17fe5193a8f874190913be2bf0bb597447ec90c8bd52", "blocktime": 1537871767, "version": 1, "confirmations": 11495, "time": 1537871767, "locktime": 0, "vsize": 206, "size": 371}