{"hash": "3af51d742114e12b89a27d20e4c991aec86eef36475f24096de62b3762164d7c", "blockhash": "00000000000000000024a2167bbff67b0be802c0b01cdd79e6331c2be6459f87", "vout": [{"scriptPubKey": {"reqSigs": 1, "hex": "76a91440f872e81bb277fee2ba9117b32906933dc0394f88ac", "addresses": ["16vXsokx8tTLtYwPDSdD241AS4K4tGQU4t"], "asm": "OP_DUP OP_HASH160 40f872e81bb277fee2ba9117b32906933dc0394f OP_EQUALVERIFY OP_CHECKSIG", "type": "pubkeyhash"}, "value": 0.01244708, "n": 0}, {"scriptPubKey": {"reqSigs": 1, "hex": "a9140335c9f0df86cdabb1a91afe9abe67f4ed72b4b187", "addresses": ["31yzPS4AA55yYLuGG9E2LAfcN1jxz6sJf8"], "asm": "OP_HASH160 0335c9f0df86cdabb1a91afe9abe67f4ed72b4b1 OP_EQUAL", "type": "scripthash"}, "value": 0.04753133, "n": 1}], "hex": "0100000002ecb21cfac0d2202b9d9099ffddfc8d41b8cdf7a05cb4953741f7bfa0b8a34b49000000006b483045022100e87dab3db473d121739f8a0cddb78c925b37e748d9651e1cd0e52c0091e44e4f022039f33d8b8d605d7b651ea6ea2751a0e56889862bf1f9f504c859431552304e1d012103381c469b856a4d4244226aabb061109886b5608743b98293f4db0630f19af2fdffffffff2c3f2155c6756c20139cc56ccd39c545197557cf8cab0ef6636e980b09e172c0000000006b483045022100e42ccb2fa9528bd05c15e353296c3eadacc85ce1124b629a9157b2c2b1e38bfe02202eda0fb8f5f3258a8a99a90815f493f4ed0cfad21c246fc5a097798df18254d5012102d885ed8d41a995ad7c18fdb7638db87bb087a826b362b7695043f3a97caa40b1ffffffff0224fe1200000000001976a91440f872e81bb277fee2ba9117b32906933dc0394f88aced8648000000000017a9140335c9f0df86cdabb1a91afe9abe67f4ed72b4b18700000000", "vin": [{"sequence": 4294967295, "scriptSig": {"hex": "483045022100e87dab3db473d121739f8a0cddb78c925b37e748d9651e1cd0e52c0091e44e4f022039f33d8b8d605d7b651ea6ea2751a0e56889862bf1f9f504c859431552304e1d012103381c469b856a4d4244226aabb061109886b5608743b98293f4db0630f19af2fd", "asm": "3045022100e87dab3db473d121739f8a0cddb78c925b37e748d9651e1cd0e52c0091e44e4f022039f33d8b8d605d7b651ea6ea2751a0e56889862bf1f9f504c859431552304e1d[ALL] 03381c469b856a4d4244226aabb061109886b5608743b98293f4db0630f19af2fd"}, "vout": 0, "txid": "494ba3b8a0bff7413795b45ca0f7cdb8418dfcddff99909d2b20d2c0fa1cb2ec"}, {"sequence": 4294967295, "scriptSig": {"hex": "483045022100e42ccb2fa9528bd05c15e353296c3eadacc85ce1124b629a9157b2c2b1e38bfe02202eda0fb8f5f3258a8a99a90815f493f4ed0cfad21c246fc5a097798df18254d5012102d885ed8d41a995ad7c18fdb7638db87bb087a826b362b7695043f3a97caa40b1", "asm": "3045022100e42ccb2fa9528bd05c15e353296c3eadacc85ce1124b629a9157b2c2b1e38bfe02202eda0fb8f5f3258a8a99a90815f493f4ed0cfad21c246fc5a097798df18254d5[ALL] 02d885ed8d41a995ad7c18fdb7638db87bb087a826b362b7695043f3a97caa40b1"}, "vout": 0, "txid": "c072e1090b986e63f60eab8ccf57751945c539cd6cc59c13206c75c655213f2c"}], "txid": "3af51d742114e12b89a27d20e4c991aec86eef36475f24096de62b3762164d7c", "blocktime": 1537870564, "version": 1, "confirmations": 11515, "time": 1537870564, "locktime": 0, "vsize": 372, "size": 372}