{"hash": "15ac8f76c27d93dc2b0e52fe82cab077757c47188106a128d0445df93bc02756", "blockhash": "0000000000000000001e0dab787dd257d1dbfcb92a98c2207d5e1078be1f4165", "vout": [{"scriptPubKey": {"reqSigs": 1, "hex": "a914fe29881e54044fdc44f374bb8322ce65b512977587", "addresses": ["3QruJwdQUaCBCjp5PUC6GMcVrnbXEbUVna"], "asm": "OP_HASH160 fe29881e54044fdc44f374bb8322ce65b5129775 OP_EQUAL", "type": "scripthash"}, "value": 0.02672254, "n": 0}, {"scriptPubKey": {"reqSigs": 1, "hex": "a9142469a055c45e3b5f6210641ea79d6d8da329ee8c87", "addresses": ["351YnVcsjTqzQRPcM5ybSDFNR74F9SAkFx"], "asm": "OP_HASH160 2469a055c45e3b5f6210641ea79d6d8da329ee8c OP_EQUAL", "type": "scripthash"}, "value": 0.453, "n": 1}, {"scriptPubKey": {"reqSigs": 1, "hex": "76a914c1f9b16f06cadd57f59de1553e221c074eee74d588ac", "addresses": ["1JgeY1EZywJKXGub3TovW5WytmrHx6YAYx"], "asm": "OP_DUP OP_HASH160 c1f9b16f06cadd57f59de1553e221c074eee74d5 OP_EQUALVERIFY OP_CHECKSIG", "type": "pubkeyhash"}, "value": 0.082, "n": 2}], "hex": "020000000001032ac2940d2e66e9a2cd3eb57add995e05c774c7249a8a92eb1f44407a95fca11d010000001716001443e0670439a7df3495ce20f93f02958ac87bbd38feffffff852282a794ce7a16dfbb18355230472e3cbfd4b783d095c1ed2deecc7fcb0a9501000000171600144d13001fea36f46d484c4ec1a8f8f403abb70a5bfeffffffb7679255ca5e2c4e6061668b07f084af72c22e214027f09dfa0b42f65a573241010000001716001403800f184274787ca56dee4c2822ae5ef5f0ce61feffffff037ec628000000000017a914fe29881e54044fdc44f374bb8322ce65b5129775872039b3020000000017a9142469a055c45e3b5f6210641ea79d6d8da329ee8c87401f7d00000000001976a914c1f9b16f06cadd57f59de1553e221c074eee74d588ac024830450221008e7cb5fe4d9421ff1816a7d31ea06f7dee84219039b049946fc446830a4b01fb02203940e4117db61264a96c352f181b5f8c28fe21b7998e444a5e3a7db05ac07ac3012102abad9ae41a83e435856ab86f795d56c91ca031bb8cf8cd1e65f28aa097eed13802483045022100f4733698c1603e57fc3abf0c840e7927da6efb4dfc4b7895738ab42cade9028b022065fb71a94f69916e4077bd9554e70f524d5a1f087f528c28a5f202221396edf40121039e284bce5bf3c45dadc887cdaa3762f7842de2505de7edabbfe41cd947eedb0502463043021f787a12a57273bf025eb0b338f4474202d6d3ad0921cf70fa8bf7b8906253b702203fd8f18232500157d96a2df91e750bbfcd603181e1dfb3525ed6fd10bb50cc8d012102521ebd04ca9d0380fb0310e71991e888af3ab39f2be68e6f166b603de7124c2d12490800", "vin": [{"txinwitness": ["30450221008e7cb5fe4d9421ff1816a7d31ea06f7dee84219039b049946fc446830a4b01fb02203940e4117db61264a96c352f181b5f8c28fe21b7998e444a5e3a7db05ac07ac301", "02abad9ae41a83e435856ab86f795d56c91ca031bb8cf8cd1e65f28aa097eed138"], "sequence": 4294967294, "scriptSig": {"hex": "16001443e0670439a7df3495ce20f93f02958ac87bbd38", "asm": "001443e0670439a7df3495ce20f93f02958ac87bbd38"}, "vout": 1, "txid": "1da1fc957a40441feb928a9a24c774c7055e99dd7ab53ecda2e9662e0d94c22a"}, {"txinwitness": ["3045022100f4733698c1603e57fc3abf0c840e7927da6efb4dfc4b7895738ab42cade9028b022065fb71a94f69916e4077bd9554e70f524d5a1f087f528c28a5f202221396edf401", "039e284bce5bf3c45dadc887cdaa3762f7842de2505de7edabbfe41cd947eedb05"], "sequence": 4294967294, "scriptSig": {"hex": "1600144d13001fea36f46d484c4ec1a8f8f403abb70a5b", "asm": "00144d13001fea36f46d484c4ec1a8f8f403abb70a5b"}, "vout": 1, "txid": "950acb7fccee2dedc195d083b7d4bf3c2e4730523518bbdf167ace94a7822285"}, {"txinwitness": ["3043021f787a12a57273bf025eb0b338f4474202d6d3ad0921cf70fa8bf7b8906253b702203fd8f18232500157d96a2df91e750bbfcd603181e1dfb3525ed6fd10bb50cc8d01", "02521ebd04ca9d0380fb0310e71991e888af3ab39f2be68e6f166b603de7124c2d"], "sequence": 4294967294, "scriptSig": {"hex": "16001403800f184274787ca56dee4c2822ae5ef5f0ce61", "asm": "001403800f184274787ca56dee4c2822ae5ef5f0ce61"}, "vout": 1, "txid": "4132575af6420bfa9df02740212ec272af84f0078b6661604e2c5eca559267b7"}], "txid": "3afa5a80e9e4775a42bd6382f77c7d548dedb46e8cf9a462032b4b400af5a8cc", "blocktime": 1537872475, "version": 2, "confirmations": 11487, "time": 1537872475, "locktime": 542994, "vsize": 381, "size": 624}