{"hash": "3afbb9daa92291e04597825d9efe17d0c10a36bb8c247ed710f670981e2ff418", "blockhash": "00000000000000000004ffacab907a6b429b9a5745fa0b75af4234bf69dd7176", "vout": [{"scriptPubKey": {"reqSigs": 1, "hex": "76a9147f654d947ae367ef76861310e60538c1cfc3a82188ac", "addresses": ["1CccB2FWsVadsxpsEXQfH8H4UjUjWTvm4Z"], "asm": "OP_DUP OP_HASH160 7f654d947ae367ef76861310e60538c1cfc3a821 OP_EQUALVERIFY OP_CHECKSIG", "type": "pubkeyhash"}, "value": 0.00043131, "n": 0}, {"scriptPubKey": {"reqSigs": 1, "hex": "a9143c5761920f220644e8300220d7ffac092fad24d287", "addresses": ["37C59QE8ftGhcUUxyKXZuRz8GFmKWFWq4b"], "asm": "OP_HASH160 3c5761920f220644e8300220d7ffac092fad24d2 OP_EQUAL", "type": "scripthash"}, "value": 0.00736491, "n": 1}], "hex": "010000000197763d5e5f4741cf1d729920d87fdbebcfcb2a5dceca681936838a600728cf06000000006b483045022100ef54c68e557852b7a085dafad32dd3a0078bbe089ecf90b73b80bf9683f09c4f022048a737d3b63025a813a6613be0ae34af7dd9b2adf2230db685c27826b7c0ddf2012103e507c195020708bd7c4cecaff0566716675713b4d1122dd46829dd0fb7515889ffffffff027ba80000000000001976a9147f654d947ae367ef76861310e60538c1cfc3a82188aceb3c0b000000000017a9143c5761920f220644e8300220d7ffac092fad24d28700000000", "vin": [{"sequence": 4294967295, "scriptSig": {"hex": "483045022100ef54c68e557852b7a085dafad32dd3a0078bbe089ecf90b73b80bf9683f09c4f022048a737d3b63025a813a6613be0ae34af7dd9b2adf2230db685c27826b7c0ddf2012103e507c195020708bd7c4cecaff0566716675713b4d1122dd46829dd0fb7515889", "asm": "3045022100ef54c68e557852b7a085dafad32dd3a0078bbe089ecf90b73b80bf9683f09c4f022048a737d3b63025a813a6613be0ae34af7dd9b2adf2230db685c27826b7c0ddf2[ALL] 03e507c195020708bd7c4cecaff0566716675713b4d1122dd46829dd0fb7515889"}, "vout": 0, "txid": "06cf2807608a83361968cace5d2acbcfebdb7fd82099721dcf41475f5e3d7697"}], "txid": "3afbb9daa92291e04597825d9efe17d0c10a36bb8c247ed710f670981e2ff418", "blocktime": 1537875543, "version": 1, "confirmations": 11464, "time": 1537875543, "locktime": 0, "vsize": 224, "size": 224}