{"hash": "8589e6b04ed506518436eeca8d7d0074842efb3561a08182134408c39ca88556", "blockhash": "0000000000000000001f0ddff1eddb255c1121bcd4da4f1bc9a0da00cae72433", "vout": [{"scriptPubKey": {"reqSigs": 1, "hex": "a914e82b3596ae9f0d561e0ce2b34165d50e65e3182e87", "addresses": ["3NrcTHW659wRaUQJo93Xu3aK4f54zs31o7"], "asm": "OP_HASH160 e82b3596ae9f0d561e0ce2b34165d50e65e3182e OP_EQUAL", "type": "scripthash"}, "value": 0.00203214, "n": 0}, {"scriptPubKey": {"reqSigs": 1, "hex": "a91440d02c3e4f65b3a98e5e1c6287486b6b6785c04387", "addresses": ["37biYvTEcBVMoR1NGkPTGvHUuLTrzcLpiv"], "asm": "OP_HASH160 40d02c3e4f65b3a98e5e1c6287486b6b6785c043 OP_EQUAL", "type": "scripthash"}, "value": 0.33719287, "n": 1}], "hex": "010000000001014fdb29549a0e0923851b0f7cc5dd737468509028b47bcd54345b7d887a296dc101000000171600140f8f95e3da7660889ef3302dfb51f9ea36f5cfd7ffffffff02ce1903000000000017a914e82b3596ae9f0d561e0ce2b34165d50e65e3182e87f78302020000000017a91440d02c3e4f65b3a98e5e1c6287486b6b6785c0438702483045022100d9304a02c83b9093f992fb2caa2d48e98b64c81acf3bd3f2dae68f744227b7b602207a967d8a0ddc40da8ecb9ef583213a0e0d0c97cc23cd694d85c5a538a07759be01210337f2d24b1d287a6896c89056fd193876b31ebdf892b29f5fc86f33bc1f717bff00000000", "vin": [{"txinwitness": ["3045022100d9304a02c83b9093f992fb2caa2d48e98b64c81acf3bd3f2dae68f744227b7b602207a967d8a0ddc40da8ecb9ef583213a0e0d0c97cc23cd694d85c5a538a07759be01", "0337f2d24b1d287a6896c89056fd193876b31ebdf892b29f5fc86f33bc1f717bff"], "sequence": 4294967295, "scriptSig": {"hex": "1600140f8f95e3da7660889ef3302dfb51f9ea36f5cfd7", "asm": "00140f8f95e3da7660889ef3302dfb51f9ea36f5cfd7"}, "vout": 1, "txid": "c16d297a887d5b3454cd7bb4289050687473ddc57c0f1b8523090e9a5429db4f"}], "txid": "3b01428b9cea1e7c4630a1afc332f58cb7081e651119b921b18e62a76ba53e3e", "blocktime": 1537872018, "version": 1, "confirmations": 11489, "time": 1537872018, "locktime": 0, "vsize": 166, "size": 248}