{"hash": "975f853fe8e8074f103376c0d03b4855fae34fc2f72774bac74e03facf632997", "blockhash": "0000000000000000001f76057863aec43deb6fa401d9628bb513d65a8098bfab", "vout": [{"scriptPubKey": {"reqSigs": 1, "hex": "0014d427598da6d68e9e989bbf5ef5f8282048859a2a", "addresses": ["bc1q6sn4nrdx668faxymha00t7pgypygtx32x7tq57"], "asm": "0 d427598da6d68e9e989bbf5ef5f8282048859a2a", "type": "witness_v0_keyhash"}, "value": 0.00089781, "n": 0}, {"scriptPubKey": {"reqSigs": 1, "hex": "0020a01e3056bed31593da362fa9784411baf13af8cd331a790d7b1e8d836e889a05", "addresses": ["bc1q5q0rq4476v2e8k3k975hs3q3htcn47xdxvd8jrtmr6xcxm5gngzsh6p3x3"], "asm": "0 a01e3056bed31593da362fa9784411baf13af8cd331a790d7b1e8d836e889a05", "type": "witness_v0_scripthash"}, "value": 0.0013536, "n": 1}], "hex": "010000000001016c6903dcff7c592431d7adf2cb9f96c59c500b5b1e0e710e6324a067d259dccc0000000000ffffffff02b55e010000000000160014d427598da6d68e9e989bbf5ef5f8282048859a2ac010020000000000220020a01e3056bed31593da362fa9784411baf13af8cd331a790d7b1e8d836e889a0502483045022100da2e0eeeb0cb1ebead9b8fdda060e57d161feed2171f7f3f9b493a0e8c31ca8f022025b2376f9f0488f975764fd0c7b618bff1d407ebd80e3440c4b9ed319612c4b901210381f52799dd5beea9459c7fac2a33a6c9c317bd414955a59f8c460d7266c499f600000000", "vin": [{"txinwitness": ["3045022100da2e0eeeb0cb1ebead9b8fdda060e57d161feed2171f7f3f9b493a0e8c31ca8f022025b2376f9f0488f975764fd0c7b618bff1d407ebd80e3440c4b9ed319612c4b901", "0381f52799dd5beea9459c7fac2a33a6c9c317bd414955a59f8c460d7266c499f6"], "sequence": 4294967295, "scriptSig": {"hex": "", "asm": ""}, "vout": 0, "txid": "ccdc59d267a024630e710e1e5b0b509cc5969fcbf2add73124597cffdc03696c"}], "txid": "3b0b85a8f2bffdc01688dcfdccf0444ee66b979be17dae18919a3ae51f537556", "blocktime": 1537873891, "version": 1, "confirmations": 11478, "time": 1537873891, "locktime": 0, "vsize": 153, "size": 235}