{"hash": "2de984e21c2f1e47cd190ceef3d56ea8cc917cae89c471f1d435a8a404242ff7", "blockhash": "0000000000000000001cda96e906b7601b7a6fb1a3b62bca570a9e5d8f4b3de1", "vout": [{"scriptPubKey": {"reqSigs": 1, "hex": "a914872504b271e112a114a7eb959ea6de62846e7eda87", "addresses": ["3E1bVXA6Lpk5fXFVSpM2b5VJNsqkh6SmCv"], "asm": "OP_HASH160 872504b271e112a114a7eb959ea6de62846e7eda OP_EQUAL", "type": "scripthash"}, "value": 0.55529049, "n": 0}, {"scriptPubKey": {"reqSigs": 1, "hex": "a91444168a9ee82ce96f8a8d00ec25352fbeba139a6b87", "addresses": ["37u2soFSUeEy4aFXKDY3UFgzSgm1zVxDQk"], "asm": "OP_HASH160 44168a9ee82ce96f8a8d00ec25352fbeba139a6b OP_EQUAL", "type": "scripthash"}, "value": 0.51406736, "n": 1}, {"scriptPubKey": {"reqSigs": 1, "hex": "a91428eb606bd986a0637c895b30850bc5da3c97834b87", "addresses": ["35RNvUPVZcxveeWcYww6ULPA1MmXoL8JHJ"], "asm": "OP_HASH160 28eb606bd986a0637c895b30850bc5da3c97834b OP_EQUAL", "type": "scripthash"}, "value": 0.066666, "n": 2}, {"scriptPubKey": {"reqSigs": 1, "hex": "a914e4a5f3030a82382de9b7eef1d6b28ca2cc67594287", "addresses": ["3NXzndy4si2WrbQPV15Vg7L71db7a4ZexC"], "asm": "OP_HASH160 e4a5f3030a82382de9b7eef1d6b28ca2cc675942 OP_EQUAL", "type": "scripthash"}, "value": 0.25208829, "n": 3}], "hex": "01000000000101ab85c72c331f7b70b995db1e2fb2f93d4fcb2f1e494361856356f1be1c4e29560000000023220020120dd34075b40511ab4551a72c16eb40c8aed62bf205bb4ced4625133e6997ccffffffff04594e4f030000000017a914872504b271e112a114a7eb959ea6de62846e7eda87906710030000000017a91444168a9ee82ce96f8a8d00ec25352fbeba139a6b8768b965000000000017a91428eb606bd986a0637c895b30850bc5da3c97834b87fda780010000000017a914e4a5f3030a82382de9b7eef1d6b28ca2cc675942870400483045022100c2a75cc53de2924d75e8d3528e3c25b34838c3688a723a58d6be6178ddc4c8af02203cc7f0a99092ecd97a6735efee3107c0b37f075a2aa939919316c416aea79ab401483045022100dfa2c8b730c4b8e7c45b467a8533ee8ddfaef21cfd7d03e30b645c6feded5d6a022020ae3467a9102dd1999237395fbde2e9cd637c68f3451ea4afd86c541a7adb890169522102680b6ff50e4ec0048eb71e327434f9eb1606478f2a2fc9903f1b96a5d77d4717210391feb28a472aacb33f8c2fb5db908259fc1fee2b5becaef95b744d6d053e6c24210288d612ae1768f4b022090232fa2425936c059e5c4e99eee8eeb2ba20719d048153ae14490800", "vin": [{"txinwitness": ["", "3045022100c2a75cc53de2924d75e8d3528e3c25b34838c3688a723a58d6be6178ddc4c8af02203cc7f0a99092ecd97a6735efee3107c0b37f075a2aa939919316c416aea79ab401", "3045022100dfa2c8b730c4b8e7c45b467a8533ee8ddfaef21cfd7d03e30b645c6feded5d6a022020ae3467a9102dd1999237395fbde2e9cd637c68f3451ea4afd86c541a7adb8901", "522102680b6ff50e4ec0048eb71e327434f9eb1606478f2a2fc9903f1b96a5d77d4717210391feb28a472aacb33f8c2fb5db908259fc1fee2b5becaef95b744d6d053e6c24210288d612ae1768f4b022090232fa2425936c059e5c4e99eee8eeb2ba20719d048153ae"], "sequence": 4294967295, "scriptSig": {"hex": "220020120dd34075b40511ab4551a72c16eb40c8aed62bf205bb4ced4625133e6997cc", "asm": "0020120dd34075b40511ab4551a72c16eb40c8aed62bf205bb4ced4625133e6997cc"}, "vout": 0, "txid": "56294e1cbef15663856143491e2fcb4f3df9b22f1edb95b9707b1f332cc785ab"}], "txid": "3b0ee65e40c12298f604b165ead4404434e1c66ae8acae534a02f80ddcb4a31b", "blocktime": 1537873282, "version": 1, "confirmations": 11484, "time": 1537873282, "locktime": 542996, "vsize": 278, "size": 470}