{"hash": "3b11e934d3c4b2b3ae3c6ea7a74227f4cdc21c9b4143d3411e786dfc569a1bb4", "blockhash": "0000000000000000000baef3f32e3676a92c3b2e5da21b426e4f302fc371ce76", "vout": [{"scriptPubKey": {"reqSigs": 1, "hex": "76a914e52b87135fcbcaf748f6d2dff818f58733b2e71588ac", "addresses": ["1MtjtHPZthRyEHBxZT68hR8PnJKogL4TwD"], "asm": "OP_DUP OP_HASH160 e52b87135fcbcaf748f6d2dff818f58733b2e715 OP_EQUALVERIFY OP_CHECKSIG", "type": "pubkeyhash"}, "value": 0.0006874, "n": 0}, {"scriptPubKey": {"type": "nulldata", "hex": "6a4c500000781d0001ad42223ae4f35bb39ba81a5c019d6ddc0f1b8ff117702940d64fa54d8eb2e23c00c15bb4cc6028b3d7279f80780a5baa1cff0614a1619937fb38bc9a9526289ac0f6612cd74e33776ee4", "asm": "OP_RETURN 0000781d0001ad42223ae4f35bb39ba81a5c019d6ddc0f1b8ff117702940d64fa54d8eb2e23c00c15bb4cc6028b3d7279f80780a5baa1cff0614a1619937fb38bc9a9526289ac0f6612cd74e33776ee4"}, "value": 0.0, "n": 1}], "hex": "0100000001abbbb51a39d2400801f0444527f11eefe8f00d7754037dc4afeb3b4fe380023a010000006a4730440220361fd47705ee6fac0b55ccb74f1334aebab032047fc682cc7d2160740bdd47f702206e21531130d16cf4b8c6620adce6e99b16e504792baa3cfbeabe1d617c1b969f012102d711adac5814ec2d456bf7a062544252959e1ba496b27577f4c4ca0383cd4dc7ffffffff02840c0100000000001976a914e52b87135fcbcaf748f6d2dff818f58733b2e71588ac0000000000000000536a4c500000781d0001ad42223ae4f35bb39ba81a5c019d6ddc0f1b8ff117702940d64fa54d8eb2e23c00c15bb4cc6028b3d7279f80780a5baa1cff0614a1619937fb38bc9a9526289ac0f6612cd74e33776ee400000000", "vin": [{"sequence": 4294967295, "scriptSig": {"hex": "4730440220361fd47705ee6fac0b55ccb74f1334aebab032047fc682cc7d2160740bdd47f702206e21531130d16cf4b8c6620adce6e99b16e504792baa3cfbeabe1d617c1b969f012102d711adac5814ec2d456bf7a062544252959e1ba496b27577f4c4ca0383cd4dc7", "asm": "30440220361fd47705ee6fac0b55ccb74f1334aebab032047fc682cc7d2160740bdd47f702206e21531130d16cf4b8c6620adce6e99b16e504792baa3cfbeabe1d617c1b969f[ALL] 02d711adac5814ec2d456bf7a062544252959e1ba496b27577f4c4ca0383cd4dc7"}, "vout": 1, "txid": "3a0280e34f3bebafc47d0354770df0e8ef1ef1274544f0010840d2391ab5bbab"}], "txid": "3b11e934d3c4b2b3ae3c6ea7a74227f4cdc21c9b4143d3411e786dfc569a1bb4", "blocktime": 1537876114, "version": 1, "confirmations": 11460, "time": 1537876114, "locktime": 0, "vsize": 283, "size": 283}