{"hash": "3b1e4ec52ab0ff1774fa8b1426c7c95f8649d0f3138ebe64ccdefc617a93e632", "blockhash": "0000000000000000000baef3f32e3676a92c3b2e5da21b426e4f302fc371ce76", "vout": [{"scriptPubKey": {"reqSigs": 1, "hex": "a9146d54f4a9e81d613f49ed654b4271af44663459e387", "addresses": ["3Bf7MHCCwSbJ7McQvK3QocAwYRgxACzVyw"], "asm": "OP_HASH160 6d54f4a9e81d613f49ed654b4271af44663459e3 OP_EQUAL", "type": "scripthash"}, "value": 0.58318767, "n": 0}], "hex": "0100000007c5bbc8c22ca878a69f140c27c7a98887a47f33d04274f12067a3c67a66bbc8c8000000006a47304402204c5fa64d4ff3d7884c766e0b2319cbd3b41052ed46ee808ceb9f900af50f32e6022051b2985dafeda18c5d9839b1353db605bd579e182e29a42950d05fe7459416eb0121029c268b91a00f2e56950c0973b3e388fba70b16c293546a9dd9450067f8d40ddeffffffffb7719131d07bdd00f106e6a39f7fdc857f0e4f2686fc9bfb1442f0983d6a1877010000006b483045022100c83387b30da59912e62215429c05591329a1616122049850b7a122340ea869d602201df84c06bbc13d9b9725ea2892b6acf82bc4656aa8e15712ac0f7d19884343b1012102b42b98653362d587340849dee71b1845e5bc0f3778d2627251e755e4eac2025cffffffffa61eda9e98831ed1057fc4b628131c3cd32d136e4442fc25842a10af6b2c0987000000006a47304402202d0ad96162fcc2ee6b7ec6dd5f20923049394bde50e205781eeb8ec68cad637602202a9f48620c8212b67bac9edb860f03ccc56f6b935d82563bd044d52f923be73501210273a159eaa5ab700ba373146cf9f3d068a36aae25d3639b185f6edf70e6744fa6ffffffff85eae834120208f7a8c31a9af20df1521810068002aa3d8702919cdbac15ecba000000006a473044022053b105978508a1be4412cc3f16e1bbc861a0d8db2ff7a185c924d9a858eb1b2b02205646645d4c69f5a38d9d523e89a22f3c8f3085cc949ec709ac54494bcc45f2a001210377426cfbeb98fa50ef639199c791222ed43a4c005709f1fde34bdd60756aa5afffffffffa4ff2e490e06680048b998a045f394b50776a35364ebe2e4c2b4c151e8754930180000006a473044022020f7f02d8a7b897b8c0712d19158b12250a5ecc78fc744bec7430d40bdd67e9d0220509f63c52abfb3b5a501cb35004a52b162a6ca572f143faa0aacab348223f80c0121029c268b91a00f2e56950c0973b3e388fba70b16c293546a9dd9450067f8d40ddeffffffff571aba84b22a3ca074b84ef00ebcacd27f31f559b6b225b3588e1736d109f45e000000006b483045022100c238818e34f366b7f0fdfe5fe77313ac8095affbbe958c6f816bba13e2a13cdd0220657653fb94d6c7b0b8493c1c4270dfa1de703be26a579f1165249f57a1e8cc1801210273a159eaa5ab700ba373146cf9f3d068a36aae25d3639b185f6edf70e6744fa6ffffffff489ee6948927447378edd2b31859a76ac98509c92acc3a0a3eb1380e7278d727000000006b483045022100d3e897476deb8b32098d7c8b1fe2ccef3817f563d45c881290b2ca83551a69b202203fe9807cb7e922ddce135e99d65abe2bb68aff3aaf31bae9116005b9fbabd16001210273a159eaa5ab700ba373146cf9f3d068a36aae25d3639b185f6edf70e6744fa6ffffffff01afdf79030000000017a9146d54f4a9e81d613f49ed654b4271af44663459e38700000000", "vin": [{"sequence": 4294967295, "scriptSig": {"hex": "47304402204c5fa64d4ff3d7884c766e0b2319cbd3b41052ed46ee808ceb9f900af50f32e6022051b2985dafeda18c5d9839b1353db605bd579e182e29a42950d05fe7459416eb0121029c268b91a00f2e56950c0973b3e388fba70b16c293546a9dd9450067f8d40dde", "asm": "304402204c5fa64d4ff3d7884c766e0b2319cbd3b41052ed46ee808ceb9f900af50f32e6022051b2985dafeda18c5d9839b1353db605bd579e182e29a42950d05fe7459416eb[ALL] 029c268b91a00f2e56950c0973b3e388fba70b16c293546a9dd9450067f8d40dde"}, "vout": 0, "txid": "c8c8bb667ac6a36720f17442d0337fa48788a9c7270c149fa678a82cc2c8bbc5"}, {"sequence": 4294967295, "scriptSig": {"hex": "483045022100c83387b30da59912e62215429c05591329a1616122049850b7a122340ea869d602201df84c06bbc13d9b9725ea2892b6acf82bc4656aa8e15712ac0f7d19884343b1012102b42b98653362d587340849dee71b1845e5bc0f3778d2627251e755e4eac2025c", "asm": "3045022100c83387b30da59912e62215429c05591329a1616122049850b7a122340ea869d602201df84c06bbc13d9b9725ea2892b6acf82bc4656aa8e15712ac0f7d19884343b1[ALL] 02b42b98653362d587340849dee71b1845e5bc0f3778d2627251e755e4eac2025c"}, "vout": 1, "txid": "77186a3d98f04214fb9bfc86264f0e7f85dc7f9fa3e606f100dd7bd0319171b7"}, {"sequence": 4294967295, "scriptSig": {"hex": "47304402202d0ad96162fcc2ee6b7ec6dd5f20923049394bde50e205781eeb8ec68cad637602202a9f48620c8212b67bac9edb860f03ccc56f6b935d82563bd044d52f923be73501210273a159eaa5ab700ba373146cf9f3d068a36aae25d3639b185f6edf70e6744fa6", "asm": "304402202d0ad96162fcc2ee6b7ec6dd5f20923049394bde50e205781eeb8ec68cad637602202a9f48620c8212b67bac9edb860f03ccc56f6b935d82563bd044d52f923be735[ALL] 0273a159eaa5ab700ba373146cf9f3d068a36aae25d3639b185f6edf70e6744fa6"}, "vout": 0, "txid": "87092c6baf102a8425fc42446e132dd33c1c1328b6c47f05d11e83989eda1ea6"}, {"sequence": 4294967295, "scriptSig": {"hex": "473044022053b105978508a1be4412cc3f16e1bbc861a0d8db2ff7a185c924d9a858eb1b2b02205646645d4c69f5a38d9d523e89a22f3c8f3085cc949ec709ac54494bcc45f2a001210377426cfbeb98fa50ef639199c791222ed43a4c005709f1fde34bdd60756aa5af", "asm": "3044022053b105978508a1be4412cc3f16e1bbc861a0d8db2ff7a185c924d9a858eb1b2b02205646645d4c69f5a38d9d523e89a22f3c8f3085cc949ec709ac54494bcc45f2a0[ALL] 0377426cfbeb98fa50ef639199c791222ed43a4c005709f1fde34bdd60756aa5af"}, "vout": 0, "txid": "baec15acdb9c9102873daa028006101852f10df29a1ac3a8f708021234e8ea85"}, {"sequence": 4294967295, "scriptSig": {"hex": "473044022020f7f02d8a7b897b8c0712d19158b12250a5ecc78fc744bec7430d40bdd67e9d0220509f63c52abfb3b5a501cb35004a52b162a6ca572f143faa0aacab348223f80c0121029c268b91a00f2e56950c0973b3e388fba70b16c293546a9dd9450067f8d40dde", "asm": "3044022020f7f02d8a7b897b8c0712d19158b12250a5ecc78fc744bec7430d40bdd67e9d0220509f63c52abfb3b5a501cb35004a52b162a6ca572f143faa0aacab348223f80c[ALL] 029c268b91a00f2e56950c0973b3e388fba70b16c293546a9dd9450067f8d40dde"}, "vout": 24, "txid": "304975e851c1b4c2e4e2eb6453a37607b594f345a098b9480068060e492effa4"}, {"sequence": 4294967295, "scriptSig": {"hex": "483045022100c238818e34f366b7f0fdfe5fe77313ac8095affbbe958c6f816bba13e2a13cdd0220657653fb94d6c7b0b8493c1c4270dfa1de703be26a579f1165249f57a1e8cc1801210273a159eaa5ab700ba373146cf9f3d068a36aae25d3639b185f6edf70e6744fa6", "asm": "3045022100c238818e34f366b7f0fdfe5fe77313ac8095affbbe958c6f816bba13e2a13cdd0220657653fb94d6c7b0b8493c1c4270dfa1de703be26a579f1165249f57a1e8cc18[ALL] 0273a159eaa5ab700ba373146cf9f3d068a36aae25d3639b185f6edf70e6744fa6"}, "vout": 0, "txid": "5ef409d136178e58b325b2b659f5317fd2acbc0ef04eb874a03c2ab284ba1a57"}, {"sequence": 4294967295, "scriptSig": {"hex": "483045022100d3e897476deb8b32098d7c8b1fe2ccef3817f563d45c881290b2ca83551a69b202203fe9807cb7e922ddce135e99d65abe2bb68aff3aaf31bae9116005b9fbabd16001210273a159eaa5ab700ba373146cf9f3d068a36aae25d3639b185f6edf70e6744fa6", "asm": "3045022100d3e897476deb8b32098d7c8b1fe2ccef3817f563d45c881290b2ca83551a69b202203fe9807cb7e922ddce135e99d65abe2bb68aff3aaf31bae9116005b9fbabd160[ALL] 0273a159eaa5ab700ba373146cf9f3d068a36aae25d3639b185f6edf70e6744fa6"}, "vout": 0, "txid": "27d778720e38b13e0a3acc2ac90985c96aa75918b3d2ed787344278994e69e48"}], "txid": "3b1e4ec52ab0ff1774fa8b1426c7c95f8649d0f3138ebe64ccdefc617a93e632", "blocktime": 1537876114, "version": 1, "confirmations": 11462, "time": 1537876114, "locktime": 0, "vsize": 1074, "size": 1074}