{"hash": "3b21bc8c3f3cb1a68bde8c1b65985bff339caf8f470a0b0ed5ebcbe928bbd80b", "blockhash": "0000000000000000000dcc0f55137456b1a82d3642486a52398922ac4d620174", "vout": [{"scriptPubKey": {"reqSigs": 1, "hex": "76a9141d7425c374f72486c5ec86a520b20490bb0d3b1c88ac", "addresses": ["13gjjdm97LtKtUT7RZECEL7ncsrWXePbpf"], "asm": "OP_DUP OP_HASH160 1d7425c374f72486c5ec86a520b20490bb0d3b1c OP_EQUALVERIFY OP_CHECKSIG", "type": "pubkeyhash"}, "value": 3.69, "n": 0}, {"scriptPubKey": {"reqSigs": 1, "hex": "76a9148e6a8e1d0244924e8fb2e3cd31ef0e04d4adfcf188ac", "addresses": ["1Dz2bpa183A673374Vqqjkhqq3JQCwyDD2"], "asm": "OP_DUP OP_HASH160 8e6a8e1d0244924e8fb2e3cd31ef0e04d4adfcf1 OP_EQUALVERIFY OP_CHECKSIG", "type": "pubkeyhash"}, "value": 1.20988, "n": 1}], "hex": "01000000020e7d1183d16f0cd9e2b7382b7483cc19aa156f20f9cb656563646ae8117f2675010000006a47304402200471431bcb77eeccba57eb0108832b1ae3aa6d562783eed5cdbb3ec41e8765900220242ce3c997f98317fb5544ea86e8b024a24ae1db192a17148a3a5e77aa251523012102ba3acbb2e060f910353b829a4d91b0d1f3e00c3dbf37a7fc8b3a0b2f38e5b75effffffff0e7d1183d16f0cd9e2b7382b7483cc19aa156f20f9cb656563646ae8117f2675000000006b483045022100f9b31b9234755816c09d8cd04aae0ccb795e2940f651b5a91f2fabad14fcc94402205b0b12f090fa5b2dad5fbe78be936df6cfc46146073a3367ed3f354c75e43ce401210213266c430d77ea2b3c3b71d6180bad75b6c04808637c7c2258cd22116e606c5fffffffff02407efe15000000001976a9141d7425c374f72486c5ec86a520b20490bb0d3b1c88ac60213607000000001976a9148e6a8e1d0244924e8fb2e3cd31ef0e04d4adfcf188ac00000000", "vin": [{"sequence": 4294967295, "scriptSig": {"hex": "47304402200471431bcb77eeccba57eb0108832b1ae3aa6d562783eed5cdbb3ec41e8765900220242ce3c997f98317fb5544ea86e8b024a24ae1db192a17148a3a5e77aa251523012102ba3acbb2e060f910353b829a4d91b0d1f3e00c3dbf37a7fc8b3a0b2f38e5b75e", "asm": "304402200471431bcb77eeccba57eb0108832b1ae3aa6d562783eed5cdbb3ec41e8765900220242ce3c997f98317fb5544ea86e8b024a24ae1db192a17148a3a5e77aa251523[ALL] 02ba3acbb2e060f910353b829a4d91b0d1f3e00c3dbf37a7fc8b3a0b2f38e5b75e"}, "vout": 1, "txid": "75267f11e86a64636565cbf9206f15aa19cc83742b38b7e2d90c6fd183117d0e"}, {"sequence": 4294967295, "scriptSig": {"hex": "483045022100f9b31b9234755816c09d8cd04aae0ccb795e2940f651b5a91f2fabad14fcc94402205b0b12f090fa5b2dad5fbe78be936df6cfc46146073a3367ed3f354c75e43ce401210213266c430d77ea2b3c3b71d6180bad75b6c04808637c7c2258cd22116e606c5f", "asm": "3045022100f9b31b9234755816c09d8cd04aae0ccb795e2940f651b5a91f2fabad14fcc94402205b0b12f090fa5b2dad5fbe78be936df6cfc46146073a3367ed3f354c75e43ce4[ALL] 0213266c430d77ea2b3c3b71d6180bad75b6c04808637c7c2258cd22116e606c5f"}, "vout": 0, "txid": "75267f11e86a64636565cbf9206f15aa19cc83742b38b7e2d90c6fd183117d0e"}], "txid": "3b21bc8c3f3cb1a68bde8c1b65985bff339caf8f470a0b0ed5ebcbe928bbd80b", "blocktime": 1537870268, "version": 1, "confirmations": 11516, "time": 1537870268, "locktime": 0, "vsize": 373, "size": 373}