{"hash": "163bda53356ee2547a9d03618764d5c09a97dab473e0edbfc583139313058a57", "blockhash": "0000000000000000000e13cef7c366c0283d82e591d1acd082e914b08063cdf1", "vout": [{"scriptPubKey": {"reqSigs": 1, "hex": "00149c0147d7ffbabe81d0d1b1932ef04afea4638334", "addresses": ["bc1qnsq504llh2lgr5x3kxfjauz2l6jx8qe5llqm4u"], "asm": "0 9c0147d7ffbabe81d0d1b1932ef04afea4638334", "type": "witness_v0_keyhash"}, "value": 0.00155437, "n": 0}, {"scriptPubKey": {"reqSigs": 1, "hex": "a914d3f26f0da46d96981ee5d7cd4a58b19c650b3fb287", "addresses": ["3M1gvcfvTTaEdx3CKHTJEGFZFUhZQLvVd9"], "asm": "OP_HASH160 d3f26f0da46d96981ee5d7cd4a58b19c650b3fb2 OP_EQUAL", "type": "scripthash"}, "value": 0.02461791, "n": 1}], "hex": "01000000000101023d56885ca3cc39c9ee4d3d97100c714a8681882c41235a273ae550cd1b66670d0000001716001496edff346367678011bbbe0eed1d89cac4798563ffffffff022d5f0200000000001600149c0147d7ffbabe81d0d1b1932ef04afea46383345f9025000000000017a914d3f26f0da46d96981ee5d7cd4a58b19c650b3fb28702483045022100e820fefb376f9e2aa60109a2b5c25e9ebc879cf7776c8192179f8d40088a5232022072013a2f7c235100453e49a70944b36c8ac19668deeac210942aa44987d77c6301210240f4fd4acbbb78820e0c0ed8711dc20dbf4d4cd4fe7d56b520119c89c9aa963800000000", "vin": [{"txinwitness": ["3045022100e820fefb376f9e2aa60109a2b5c25e9ebc879cf7776c8192179f8d40088a5232022072013a2f7c235100453e49a70944b36c8ac19668deeac210942aa44987d77c6301", "0240f4fd4acbbb78820e0c0ed8711dc20dbf4d4cd4fe7d56b520119c89c9aa9638"], "sequence": 4294967295, "scriptSig": {"hex": "16001496edff346367678011bbbe0eed1d89cac4798563", "asm": "001496edff346367678011bbbe0eed1d89cac4798563"}, "vout": 13, "txid": "67661bcd50e53a275a23412c8881864a710c10973d4deec939cca35c88563d02"}], "txid": "3b312e441a51f6a107baec416f063b52ce67894f5733688fe3a8cdd9dce2abbe", "blocktime": 1537871767, "version": 1, "confirmations": 11495, "time": 1537871767, "locktime": 0, "vsize": 165, "size": 247}