{"hash": "4c4a6727a16524a3ef30a79e78c89e18577e47b24f4e2db9b53c505eb4293ebf", "blockhash": "00000000000000000018f53835495a110e01622372bf6ae95dc86f2b0ab887b0", "vout": [{"scriptPubKey": {"reqSigs": 1, "hex": "0014d458e5e3645650c493e1d8a3239605225175b777", "addresses": ["bc1q63vwtcmy2egvfylpmz3j89s9yfghtdmhccpp4e"], "asm": "0 d458e5e3645650c493e1d8a3239605225175b777", "type": "witness_v0_keyhash"}, "value": 1.77e-05, "n": 0}, {"scriptPubKey": {"reqSigs": 1, "hex": "76a91462f9a19bb360a0c3c690c954a73ac93b0defb7bb88ac", "addresses": ["1A2LGV8JrkBhHwfUaMMLy55eF2uQ2wYnWE"], "asm": "OP_DUP OP_HASH160 62f9a19bb360a0c3c690c954a73ac93b0defb7bb OP_EQUALVERIFY OP_CHECKSIG", "type": "pubkeyhash"}, "value": 0.010557, "n": 1}], "hex": "01000000000101c040d073c2d40ef15015717bd458fac4a1b81257b939fdfaee28f1fab18666ea0000000017160014070ee4d7dfc7bd78ed4eef067577ce4920c6d548ffffffff02ea06000000000000160014d458e5e3645650c493e1d8a3239605225175b777d41b1000000000001976a91462f9a19bb360a0c3c690c954a73ac93b0defb7bb88ac0247304402200adf022f017002c9a0e11a64be5850db04f215fdb5ba6da71eecc47c988465ee02202f2d72e6fa80e68c277bae77beac54a2e7b930ea6fabc7e7ed8db0379536f0860121031d02e155faf13c04d84c7d33ac5c62f30364853144573a845d147ac05110dcdc00000000", "vin": [{"txinwitness": ["304402200adf022f017002c9a0e11a64be5850db04f215fdb5ba6da71eecc47c988465ee02202f2d72e6fa80e68c277bae77beac54a2e7b930ea6fabc7e7ed8db0379536f08601", "031d02e155faf13c04d84c7d33ac5c62f30364853144573a845d147ac05110dcdc"], "sequence": 4294967295, "scriptSig": {"hex": "160014070ee4d7dfc7bd78ed4eef067577ce4920c6d548", "asm": "0014070ee4d7dfc7bd78ed4eef067577ce4920c6d548"}, "vout": 0, "txid": "ea6686b1faf128eefafd39b95712b8a1c4fa58d47b711550f10ed4c273d040c0"}], "txid": "3b3c6a44029c85fa87f411d60e3a7072371e5281a889ec5af795c31ff4910945", "blocktime": 1537870928, "version": 1, "confirmations": 11514, "time": 1537870928, "locktime": 0, "vsize": 167, "size": 248}