{"hash": "30489ac6680288d1a9ac83e72d184f6c3daf859ecf3fc2ac8b5bb2e0d25b0dff", "blockhash": "0000000000000000001e0dab787dd257d1dbfcb92a98c2207d5e1078be1f4165", "vout": [{"scriptPubKey": {"reqSigs": 1, "hex": "a914f52bb263cdcbcf4e80d862cece83ce5efcaef1cc87", "addresses": ["3Q3Mpek62EzqdwnJyPGKiKUnQM63m7vKAE"], "asm": "OP_HASH160 f52bb263cdcbcf4e80d862cece83ce5efcaef1cc OP_EQUAL", "type": "scripthash"}, "value": 5.13830846, "n": 0}, {"scriptPubKey": {"reqSigs": 1, "hex": "a914e79bf845455454d7661a8bdcbce7127db93963cf87", "addresses": ["3Noerq2Bk8PDkaR2JBMypXFJCYSmXbR8D6"], "asm": "OP_HASH160 e79bf845455454d7661a8bdcbce7127db93963cf OP_EQUAL", "type": "scripthash"}, "value": 24.25807, "n": 1}], "hex": "010000000001014465f39884bf62a74bcf5ba6f95ae12dd2917895d627452f8a4836ddc8e2c229040000001716001449c7157498cb26f82be1a875d79acb6b51f73226ffffffff02be6fa01e0000000017a914f52bb263cdcbcf4e80d862cece83ce5efcaef1cc8798e096900000000017a914e79bf845455454d7661a8bdcbce7127db93963cf8702483045022100cddf1565d03287cb10e28d4b079f4a4b30b6dcf33bde84aeda55e2b471cfa2db0220286562dcbd891a0c339769eb7791430a8760ffb34dd39bd4bfb322724b69884a012103349c57e13bd5c4654373020e89b32ab4c7e10569427167cc809f6185c4a2704e00000000", "vin": [{"txinwitness": ["3045022100cddf1565d03287cb10e28d4b079f4a4b30b6dcf33bde84aeda55e2b471cfa2db0220286562dcbd891a0c339769eb7791430a8760ffb34dd39bd4bfb322724b69884a01", "03349c57e13bd5c4654373020e89b32ab4c7e10569427167cc809f6185c4a2704e"], "sequence": 4294967295, "scriptSig": {"hex": "16001449c7157498cb26f82be1a875d79acb6b51f73226", "asm": "001449c7157498cb26f82be1a875d79acb6b51f73226"}, "vout": 4, "txid": "29c2e2c8dd36488a2f4527d6957891d22de15af9a65bcf4ba762bf8498f36544"}], "txid": "3b3d7f34beb6426d4ea4347b91076191779e2004f3b8999ab0ea0fdd283bee8f", "blocktime": 1537872475, "version": 1, "confirmations": 11486, "time": 1537872475, "locktime": 0, "vsize": 166, "size": 248}