{"hash": "3b3d5b0d6d01abbda58256dbefa0a1fe155c9bd9afe90c81c86e61c3b24c902a", "blockhash": "0000000000000000000dcc0f55137456b1a82d3642486a52398922ac4d620174", "vout": [{"scriptPubKey": {"reqSigs": 1, "hex": "76a9145abb4fd04821aa1e2253ee6eab29fe2af6b7a43088ac", "addresses": ["19GkCv4RQEPn9GBu134pzHsdrforCgcVSz"], "asm": "OP_DUP OP_HASH160 5abb4fd04821aa1e2253ee6eab29fe2af6b7a430 OP_EQUALVERIFY OP_CHECKSIG", "type": "pubkeyhash"}, "value": 0.00037982, "n": 0}, {"scriptPubKey": {"reqSigs": 1, "hex": "76a914b952e96224b6a4303c064bca91c8c6d6935525c388ac", "addresses": ["1HtuLHu2T4eAcgMDg95e9NxsP15BxMWVDD"], "asm": "OP_DUP OP_HASH160 b952e96224b6a4303c064bca91c8c6d6935525c3 OP_EQUALVERIFY OP_CHECKSIG", "type": "pubkeyhash"}, "value": 0.0003, "n": 1}], "hex": "0100000001fa6449af417081104196fad8b8bab4b186415eb4cd98e0e0c98ed118ee9f1437000000006b4830450221008eed0f7cfc1ba08ddf1584decf659d1fbe7463c5d147087570491af1e39583c00220375a59942a2c34dbfefc8d2793731030a8a923d6f8342f4a1e795c0b6e87d418012102186afb1e1d15f4b98c0fbac527e496b243195280d8c60efa2d14b0c25ebba093ffffffff025e940000000000001976a9145abb4fd04821aa1e2253ee6eab29fe2af6b7a43088ac30750000000000001976a914b952e96224b6a4303c064bca91c8c6d6935525c388ac00000000", "vin": [{"sequence": 4294967295, "scriptSig": {"hex": "4830450221008eed0f7cfc1ba08ddf1584decf659d1fbe7463c5d147087570491af1e39583c00220375a59942a2c34dbfefc8d2793731030a8a923d6f8342f4a1e795c0b6e87d418012102186afb1e1d15f4b98c0fbac527e496b243195280d8c60efa2d14b0c25ebba093", "asm": "30450221008eed0f7cfc1ba08ddf1584decf659d1fbe7463c5d147087570491af1e39583c00220375a59942a2c34dbfefc8d2793731030a8a923d6f8342f4a1e795c0b6e87d418[ALL] 02186afb1e1d15f4b98c0fbac527e496b243195280d8c60efa2d14b0c25ebba093"}, "vout": 0, "txid": "37149fee18d18ec9e0e098cdb45e4186b1b4bab8d8fa964110817041af4964fa"}], "txid": "3b3d5b0d6d01abbda58256dbefa0a1fe155c9bd9afe90c81c86e61c3b24c902a", "blocktime": 1537870268, "version": 1, "confirmations": 11518, "time": 1537870268, "locktime": 0, "vsize": 226, "size": 226}