{"hash": "3b3ff8769ad57a3fc7cb4bd912876f53396b51d9a272d177204f4ad8f81ce480", "blockhash": "0000000000000000000dcc0f55137456b1a82d3642486a52398922ac4d620174", "vout": [{"scriptPubKey": {"reqSigs": 1, "hex": "76a914c8b96c8527dcf93d586a4e4c0ae68adee053a7dc88ac", "addresses": ["1KJLGr1YojnZgkDbYck5LdhJ71ZUMDvEnD"], "asm": "OP_DUP OP_HASH160 c8b96c8527dcf93d586a4e4c0ae68adee053a7dc OP_EQUALVERIFY OP_CHECKSIG", "type": "pubkeyhash"}, "value": 0.0007792, "n": 0}, {"scriptPubKey": {"reqSigs": 1, "hex": "76a914d194a6602ad5cf17680014da01ec0beac80959b988ac", "addresses": ["1L7AJUCn9VACqmZ7oWXcRThqFuGup1SqHt"], "asm": "OP_DUP OP_HASH160 d194a6602ad5cf17680014da01ec0beac80959b9 OP_EQUALVERIFY OP_CHECKSIG", "type": "pubkeyhash"}, "value": 0.02190602, "n": 1}], "hex": "01000000010c0c17adafe830298acbb71bcd1d1ff0526be27e67b37119ab77f1a11a8c67a3010000006a47304402206efa9f801788e5de560061f37c83159406e9b5615cbe920d4daefd15f113408c0220432a5fc6f9e08c543c9368affd2a1aec0d16fdf9a39a3997d51060cb597cc84e0121034a3a53c7618610e04bfcef5af0821a054ac34a332cf9d9595db0974b5733cb69ffffffff0260300100000000001976a914c8b96c8527dcf93d586a4e4c0ae68adee053a7dc88ac0a6d2100000000001976a914d194a6602ad5cf17680014da01ec0beac80959b988ac00000000", "vin": [{"sequence": 4294967295, "scriptSig": {"hex": "47304402206efa9f801788e5de560061f37c83159406e9b5615cbe920d4daefd15f113408c0220432a5fc6f9e08c543c9368affd2a1aec0d16fdf9a39a3997d51060cb597cc84e0121034a3a53c7618610e04bfcef5af0821a054ac34a332cf9d9595db0974b5733cb69", "asm": "304402206efa9f801788e5de560061f37c83159406e9b5615cbe920d4daefd15f113408c0220432a5fc6f9e08c543c9368affd2a1aec0d16fdf9a39a3997d51060cb597cc84e[ALL] 034a3a53c7618610e04bfcef5af0821a054ac34a332cf9d9595db0974b5733cb69"}, "vout": 1, "txid": "a3678c1aa1f177ab1971b3677ee26b52f01f1dcd1bb7cb8a2930e8afad170c0c"}], "txid": "3b3ff8769ad57a3fc7cb4bd912876f53396b51d9a272d177204f4ad8f81ce480", "blocktime": 1537870268, "version": 1, "confirmations": 11518, "time": 1537870268, "locktime": 0, "vsize": 225, "size": 225}