{"hash": "3b45d0ad60eb71e82f24f4bd8e0d85739f76da2ca48507ea28378c8433ee8dc7", "blockhash": "0000000000000000001cda96e906b7601b7a6fb1a3b62bca570a9e5d8f4b3de1", "vout": [{"scriptPubKey": {"reqSigs": 1, "hex": "76a914b657adc36a87856d87c83239e2b7c447f13bcab888ac", "addresses": ["1Hd91wYVEuNh1dNNqAnMgVVLgjMPefQYGm"], "asm": "OP_DUP OP_HASH160 b657adc36a87856d87c83239e2b7c447f13bcab8 OP_EQUALVERIFY OP_CHECKSIG", "type": "pubkeyhash"}, "value": 0.00023439, "n": 0}, {"scriptPubKey": {"reqSigs": 1, "hex": "76a914b7ca5b348fa0a64b8211956af2709f2cd9a8b57188ac", "addresses": ["1Hko54nA3NAkZgtYGRFY6XRosVfmnP5QgM"], "asm": "OP_DUP OP_HASH160 b7ca5b348fa0a64b8211956af2709f2cd9a8b571 OP_EQUALVERIFY OP_CHECKSIG", "type": "pubkeyhash"}, "value": 0.007508, "n": 1}], "hex": "01000000036609f08ba1542f72b6b1ba6abcaf6326591cff0e8ebeb1965aae6adb348aa52d000000006a4730440220676cdb266518b5ebada3a24cff1e439bb5d07018e2eb194b51d718e006e93d8102200df1316402e8b350c22c098a0f7c40186a2729069e14276d8c18767ee970b931012103e712eab73e14002f6f242d0a14a5d565cf6986d530bf752b64cc0fb5d42cd7e4ffffffffe2dad6eba41e26c8687d9d84f8c0b4c08b4ff337d235c7e6de1ad258a730837d010000006a47304402204562fcde51e07836dda418fe79bee459ec0912f934de3f340d1ae73c75fe56370220776fe1a0ac14fab9ae81b0a937aa2bd0db2ce583a1b385146e3798278d671de3012102131abf4891401cb300d55a59f6423d04013dff5aeb7fcda8fd16a0b400cb9f19ffffffff8a2453a57997b1c94126679aa6bf0077f1da383dcd8d54f909beb0ed69b305f5000000006a47304402205b85fd260110e6dff939aa625a0b6259c1498564c390f4993667fcd36f79b9f102205126c065e2df983d6862e6a734a2c9e3ffab75ca7e617ea230d89a76eec459b30121033668869749c1fe11aa28d22b6818f6453dd3a730a158f86323aecb31b9f3622effffffff028f5b0000000000001976a914b657adc36a87856d87c83239e2b7c447f13bcab888acd0740b00000000001976a914b7ca5b348fa0a64b8211956af2709f2cd9a8b57188ac00000000", "vin": [{"sequence": 4294967295, "scriptSig": {"hex": "4730440220676cdb266518b5ebada3a24cff1e439bb5d07018e2eb194b51d718e006e93d8102200df1316402e8b350c22c098a0f7c40186a2729069e14276d8c18767ee970b931012103e712eab73e14002f6f242d0a14a5d565cf6986d530bf752b64cc0fb5d42cd7e4", "asm": "30440220676cdb266518b5ebada3a24cff1e439bb5d07018e2eb194b51d718e006e93d8102200df1316402e8b350c22c098a0f7c40186a2729069e14276d8c18767ee970b931[ALL] 03e712eab73e14002f6f242d0a14a5d565cf6986d530bf752b64cc0fb5d42cd7e4"}, "vout": 0, "txid": "2da58a34db6aae5a96b1be8e0eff1c592663afbc6abab1b6722f54a18bf00966"}, {"sequence": 4294967295, "scriptSig": {"hex": "47304402204562fcde51e07836dda418fe79bee459ec0912f934de3f340d1ae73c75fe56370220776fe1a0ac14fab9ae81b0a937aa2bd0db2ce583a1b385146e3798278d671de3012102131abf4891401cb300d55a59f6423d04013dff5aeb7fcda8fd16a0b400cb9f19", "asm": "304402204562fcde51e07836dda418fe79bee459ec0912f934de3f340d1ae73c75fe56370220776fe1a0ac14fab9ae81b0a937aa2bd0db2ce583a1b385146e3798278d671de3[ALL] 02131abf4891401cb300d55a59f6423d04013dff5aeb7fcda8fd16a0b400cb9f19"}, "vout": 1, "txid": "7d8330a758d21adee6c735d237f34f8bc0b4c0f8849d7d68c8261ea4ebd6dae2"}, {"sequence": 4294967295, "scriptSig": {"hex": "47304402205b85fd260110e6dff939aa625a0b6259c1498564c390f4993667fcd36f79b9f102205126c065e2df983d6862e6a734a2c9e3ffab75ca7e617ea230d89a76eec459b30121033668869749c1fe11aa28d22b6818f6453dd3a730a158f86323aecb31b9f3622e", "asm": "304402205b85fd260110e6dff939aa625a0b6259c1498564c390f4993667fcd36f79b9f102205126c065e2df983d6862e6a734a2c9e3ffab75ca7e617ea230d89a76eec459b3[ALL] 033668869749c1fe11aa28d22b6818f6453dd3a730a158f86323aecb31b9f3622e"}, "vout": 0, "txid": "f505b369edb0be09f9548dcd3d38daf17700bfa69a672641c9b19779a553248a"}], "txid": "3b45d0ad60eb71e82f24f4bd8e0d85739f76da2ca48507ea28378c8433ee8dc7", "blocktime": 1537873282, "version": 1, "confirmations": 11485, "time": 1537873282, "locktime": 0, "vsize": 519, "size": 519}