{"hash": "b2b0c81912b91a92c5e6f33ac2f438bab9bc16abfe94910e7d22a58ae4c67763", "blockhash": "00000000000000000017f5eb5941039fbcee6240d03bc1f2f8e35350df66a1d8", "vout": [{"scriptPubKey": {"reqSigs": 1, "hex": "76a91444398cd4dcdfc18956430e4fd55b6c39f32a470188ac", "addresses": ["17DjthS71y3eWFXLZnZXRM4Qkxx6W2Vzvt"], "asm": "OP_DUP OP_HASH160 44398cd4dcdfc18956430e4fd55b6c39f32a4701 OP_EQUALVERIFY OP_CHECKSIG", "type": "pubkeyhash"}, "value": 0.298428, "n": 0}, {"scriptPubKey": {"reqSigs": 1, "hex": "0014d5e4d13d67eea40795bb4ab0c9d30f09bbcad7b3", "addresses": ["bc1q6hjdz0t8a6jq09dmf2cvn5c0pxau44anvzukdk"], "asm": "0 d5e4d13d67eea40795bb4ab0c9d30f09bbcad7b3", "type": "witness_v0_keyhash"}, "value": 0.37137306, "n": 1}], "hex": "0100000000010138fa621616625df44b7be2b5290d3cde57cadbd20cc9c85be9469951a12348870000000000ffffffff02705dc701000000001976a91444398cd4dcdfc18956430e4fd55b6c39f32a470188ac9aab360200000000160014d5e4d13d67eea40795bb4ab0c9d30f09bbcad7b302473044022030604f47c07bf0b506e6b8120d233734730ec274227c145679a58969f2969d6802206895924c0e54b20a6a4c2f12c43995f3e4272f36435c5a169a9e3b69a3dd56e1012103e1ec6f777308195b1dcdf2c2a6928c88cccd964968fac1aacdab515e127c34b700000000", "vin": [{"txinwitness": ["3044022030604f47c07bf0b506e6b8120d233734730ec274227c145679a58969f2969d6802206895924c0e54b20a6a4c2f12c43995f3e4272f36435c5a169a9e3b69a3dd56e101", "03e1ec6f777308195b1dcdf2c2a6928c88cccd964968fac1aacdab515e127c34b7"], "sequence": 4294967295, "scriptSig": {"hex": "", "asm": ""}, "vout": 0, "txid": "874823a1519946e95bc8c90cd2dbca57de3c0d29b5e27b4bf45d62161662fa38"}], "txid": "3b457cedc8c042b4032f1b5d0b9537549010544ee578eb8db31984daa4d0749d", "blocktime": 1537874412, "version": 1, "confirmations": 11467, "time": 1537874412, "locktime": 0, "vsize": 144, "size": 225}