{"hash": "972a28a4883b73f2fd964acace5c63363faadd1bcac2862440ba0bf24bf12ab4", "blockhash": "0000000000000000001cda96e906b7601b7a6fb1a3b62bca570a9e5d8f4b3de1", "vout": [{"scriptPubKey": {"reqSigs": 1, "hex": "a9144b566b901c599b9b65fe02fa8aba66b825190b5d87", "addresses": ["38ZN8WWPuoeXJjz1eaju5HRSm53hbVXo5g"], "asm": "OP_HASH160 4b566b901c599b9b65fe02fa8aba66b825190b5d OP_EQUAL", "type": "scripthash"}, "value": 0.00251277, "n": 0}, {"scriptPubKey": {"reqSigs": 1, "hex": "a914f5342287aaa57f5c05756dbd5ef14091cc70030f87", "addresses": ["3Q3XvwKWsx3ocmCXheK6pAo5ieooFx75hh"], "asm": "OP_HASH160 f5342287aaa57f5c05756dbd5ef14091cc70030f OP_EQUAL", "type": "scripthash"}, "value": 0.08965225, "n": 1}], "hex": "01000000000101757e0bf5d35070c80c50ef459cbbb2d2b65046349fbf188ee8a0c97d1dccb44301000000232200204fd7968ffe15cb453352a1e9ee2915eff8b6d6252d5a351f9092b82ca10eb12cffffffff028dd503000000000017a9144b566b901c599b9b65fe02fa8aba66b825190b5d8769cc88000000000017a914f5342287aaa57f5c05756dbd5ef14091cc70030f870400473044022042e769c1212dc9669a4b087563da2c946e738c0c5316131d6282ebc733a986b802201eac4dc1b3b50cf8038c5c746c71df6b84d7eb9deddf80162da0dff6a5c23d8c01483045022100f743a0275aa1cc2267dc750360e4a1df4b55a0d662b1d7c002d70d6943f1faf802206499ebb611d094aab7a6c34c89940b19fb4bc7938bf49010639f6cfce06062f10147522103b70e79262cbb7310fe069dea7c473b53276b75c67fb841ff66279f152a3fe0172103871fc2ca08e6950b38867e8e6a0e94ee625223d3aa0df5c65f414c6d784467e252ae00000000", "vin": [{"txinwitness": ["", "3044022042e769c1212dc9669a4b087563da2c946e738c0c5316131d6282ebc733a986b802201eac4dc1b3b50cf8038c5c746c71df6b84d7eb9deddf80162da0dff6a5c23d8c01", "3045022100f743a0275aa1cc2267dc750360e4a1df4b55a0d662b1d7c002d70d6943f1faf802206499ebb611d094aab7a6c34c89940b19fb4bc7938bf49010639f6cfce06062f101", "522103b70e79262cbb7310fe069dea7c473b53276b75c67fb841ff66279f152a3fe0172103871fc2ca08e6950b38867e8e6a0e94ee625223d3aa0df5c65f414c6d784467e252ae"], "sequence": 4294967295, "scriptSig": {"hex": "2200204fd7968ffe15cb453352a1e9ee2915eff8b6d6252d5a351f9092b82ca10eb12c", "asm": "00204fd7968ffe15cb453352a1e9ee2915eff8b6d6252d5a351f9092b82ca10eb12c"}, "vout": 1, "txid": "43b4cc1d7dc9a0e88e18bf9f344650b6d2b2bb9c45ef500cc87050d3f50b7e75"}], "txid": "3b49874daf9804ed297ffdb3a68ad6e5fc5be642a1b3398a6d2a46f8150071d2", "blocktime": 1537873282, "version": 1, "confirmations": 11484, "time": 1537873282, "locktime": 0, "vsize": 206, "size": 371}