{"hash": "3b4efa7ac392e8f785f1e7c46b7d738afb05943da6f8df103b4a500ec52eba09", "blockhash": "0000000000000000000baef3f32e3676a92c3b2e5da21b426e4f302fc371ce76", "vout": [{"scriptPubKey": {"reqSigs": 1, "hex": "76a91429f76ae361a62019207af8e5d5b5ead68ad9973988ac", "addresses": ["14pu6jim1EJEoQRbZJHhYnSWj9DEAacMno"], "asm": "OP_DUP OP_HASH160 29f76ae361a62019207af8e5d5b5ead68ad99739 OP_EQUALVERIFY OP_CHECKSIG", "type": "pubkeyhash"}, "value": 0.00048043, "n": 0}, {"scriptPubKey": {"type": "nulldata", "hex": "6a4c50000078280001b7d718a1ed20d6560cda168f019d6ddc0f1b8ff117702940d64fa54d8eb2d5d1a0011579c7157c8eb53bf24801745baa1e860613b965dcc703ad20599f7cb8fbacf7bab7719c405f2d9a", "asm": "OP_RETURN 000078280001b7d718a1ed20d6560cda168f019d6ddc0f1b8ff117702940d64fa54d8eb2d5d1a0011579c7157c8eb53bf24801745baa1e860613b965dcc703ad20599f7cb8fbacf7bab7719c405f2d9a"}, "value": 0.0, "n": 1}], "hex": "01000000017fef7eaec0d60b6786b50a168649267780ea80bf62180418ce1e08c3f771f2510000000069463043022053fb1b59308fec91756db401ebc0fee8287958edeec1243d46b60dae18458478021f036efbb8cdd6444448eafb3fef913e8ba8fd3ad09386a5131ca4d85c862d57012103300320188e74dd458310f91f69af8eecc746c0e6f8eb9c62323f708114dfd9c2ffffffff02abbb0000000000001976a91429f76ae361a62019207af8e5d5b5ead68ad9973988ac0000000000000000536a4c50000078280001b7d718a1ed20d6560cda168f019d6ddc0f1b8ff117702940d64fa54d8eb2d5d1a0011579c7157c8eb53bf24801745baa1e860613b965dcc703ad20599f7cb8fbacf7bab7719c405f2d9a00000000", "vin": [{"sequence": 4294967295, "scriptSig": {"hex": "463043022053fb1b59308fec91756db401ebc0fee8287958edeec1243d46b60dae18458478021f036efbb8cdd6444448eafb3fef913e8ba8fd3ad09386a5131ca4d85c862d57012103300320188e74dd458310f91f69af8eecc746c0e6f8eb9c62323f708114dfd9c2", "asm": "3043022053fb1b59308fec91756db401ebc0fee8287958edeec1243d46b60dae18458478021f036efbb8cdd6444448eafb3fef913e8ba8fd3ad09386a5131ca4d85c862d57[ALL] 03300320188e74dd458310f91f69af8eecc746c0e6f8eb9c62323f708114dfd9c2"}, "vout": 0, "txid": "51f271f7c3081ece18041862bf80ea8077264986160ab586670bd6c0ae7eef7f"}], "txid": "3b4efa7ac392e8f785f1e7c46b7d738afb05943da6f8df103b4a500ec52eba09", "blocktime": 1537876114, "version": 1, "confirmations": 11460, "time": 1537876114, "locktime": 0, "vsize": 282, "size": 282}