{"hash": "3b50631d13c2d8198a1317bc3a0a8e7c0e32522794d9d04be54b483e69b3f2f2", "blockhash": "00000000000000000024a2167bbff67b0be802c0b01cdd79e6331c2be6459f87", "vout": [{"scriptPubKey": {"reqSigs": 1, "hex": "76a914c1258c8936612ca4eea7cd50686a7b9eeab1fdc988ac", "addresses": ["1JcGPyLdoGAo9WsqfKq8z8KSbpf979qXsS"], "asm": "OP_DUP OP_HASH160 c1258c8936612ca4eea7cd50686a7b9eeab1fdc9 OP_EQUALVERIFY OP_CHECKSIG", "type": "pubkeyhash"}, "value": 1.522e-05, "n": 0}, {"scriptPubKey": {"reqSigs": 1, "hex": "a914c7c8066cbb26772afb7ea493c34fa6ec9983e2aa87", "addresses": ["3KuN1hs7KBvn8EaFeL5gXpRBe4ZUaEiNeK"], "asm": "OP_HASH160 c7c8066cbb26772afb7ea493c34fa6ec9983e2aa OP_EQUAL", "type": "scripthash"}, "value": 0.005, "n": 1}], "hex": "01000000014c97a8d9890f74aecb2a86aa6bfafe82b4eb19435baf7afad362ff79e5012976030000006a47304402201616e5f28448e2448898031e35e2c997d4f3f96eb35601b46e436e0cdba1778002206287d46257f4c03a3e22bac4a6e2782944b44c16b6142f2ddbfece09254a36ec0121036a93785a96cb63626f71ccd4224a789d388f47570b94657598690c2637dd7a54ffffffff02f2050000000000001976a914c1258c8936612ca4eea7cd50686a7b9eeab1fdc988ac20a107000000000017a914c7c8066cbb26772afb7ea493c34fa6ec9983e2aa8700000000", "vin": [{"sequence": 4294967295, "scriptSig": {"hex": "47304402201616e5f28448e2448898031e35e2c997d4f3f96eb35601b46e436e0cdba1778002206287d46257f4c03a3e22bac4a6e2782944b44c16b6142f2ddbfece09254a36ec0121036a93785a96cb63626f71ccd4224a789d388f47570b94657598690c2637dd7a54", "asm": "304402201616e5f28448e2448898031e35e2c997d4f3f96eb35601b46e436e0cdba1778002206287d46257f4c03a3e22bac4a6e2782944b44c16b6142f2ddbfece09254a36ec[ALL] 036a93785a96cb63626f71ccd4224a789d388f47570b94657598690c2637dd7a54"}, "vout": 3, "txid": "762901e579ff62d3fa7aaf5b4319ebb482fefa6baa862acbae740f89d9a8974c"}], "txid": "3b50631d13c2d8198a1317bc3a0a8e7c0e32522794d9d04be54b483e69b3f2f2", "blocktime": 1537870564, "version": 1, "confirmations": 11515, "time": 1537870564, "locktime": 0, "vsize": 223, "size": 223}