{"hash": "3b52a36243cd93166c124824849edfc746e2fac8a788610181b93c96f465ee6a", "blockhash": "0000000000000000001e0dab787dd257d1dbfcb92a98c2207d5e1078be1f4165", "vout": [{"scriptPubKey": {"reqSigs": 1, "hex": "a91474b9e78a9399b79aaac50fb06d34095313fa025587", "addresses": ["3CLD1fUvg6P9oTbj8r6pXCx3DV7P5wZFPA"], "asm": "OP_HASH160 74b9e78a9399b79aaac50fb06d34095313fa0255 OP_EQUAL", "type": "scripthash"}, "value": 0.0003437, "n": 0}, {"scriptPubKey": {"reqSigs": 1, "hex": "76a914d00124d4d0ca519f03511d52dd6b01683791e4f688ac", "addresses": ["1KxpvNwqFekN5iyPDuawD9E54MrZarQyYJ"], "asm": "OP_DUP OP_HASH160 d00124d4d0ca519f03511d52dd6b01683791e4f6 OP_EQUALVERIFY OP_CHECKSIG", "type": "pubkeyhash"}, "value": 0.02734181, "n": 1}], "hex": "02000000018b7777585bb05727687626d9340a6140badb1ef82008fa8c704196345db20a1f010000006b483045022100b02347e737bf9b364be1fb9f65ae70e67037ce7c207f95a4edccb435957c90cf022072b0a1c831d255eefffb98e5d10d162350a22c7afb73dca2ffd578d30a35a4530121023ca5ac8f77fbf6dd7032bc7b8c8c1a275b5e986cc8148a11e7d745554154c097ffffffff02428600000000000017a91474b9e78a9399b79aaac50fb06d34095313fa02558765b82900000000001976a914d00124d4d0ca519f03511d52dd6b01683791e4f688ac00000000", "vin": [{"sequence": 4294967295, "scriptSig": {"hex": "483045022100b02347e737bf9b364be1fb9f65ae70e67037ce7c207f95a4edccb435957c90cf022072b0a1c831d255eefffb98e5d10d162350a22c7afb73dca2ffd578d30a35a4530121023ca5ac8f77fbf6dd7032bc7b8c8c1a275b5e986cc8148a11e7d745554154c097", "asm": "3045022100b02347e737bf9b364be1fb9f65ae70e67037ce7c207f95a4edccb435957c90cf022072b0a1c831d255eefffb98e5d10d162350a22c7afb73dca2ffd578d30a35a453[ALL] 023ca5ac8f77fbf6dd7032bc7b8c8c1a275b5e986cc8148a11e7d745554154c097"}, "vout": 1, "txid": "1f0ab25d349641708cfa0820f81edbba40610a34d92676682757b05b5877778b"}], "txid": "3b52a36243cd93166c124824849edfc746e2fac8a788610181b93c96f465ee6a", "blocktime": 1537872475, "version": 2, "confirmations": 11486, "time": 1537872475, "locktime": 0, "vsize": 224, "size": 224}