{"hash": "3b52c8a182fd252c0ef6e3937214d6fbef50daa8bb78029824673e33035f8123", "blockhash": "00000000000000000004ffacab907a6b429b9a5745fa0b75af4234bf69dd7176", "vout": [{"scriptPubKey": {"reqSigs": 1, "hex": "76a914f423dfee34e4833104508103d89e316b4a49314088ac", "addresses": ["1PFtrRjbq4aLfM7k4tyLZ3ZAuTsgLr6Q8Q"], "asm": "OP_DUP OP_HASH160 f423dfee34e4833104508103d89e316b4a493140 OP_EQUALVERIFY OP_CHECKSIG", "type": "pubkeyhash"}, "value": 0.00362094, "n": 0}, {"scriptPubKey": {"reqSigs": 1, "hex": "76a91462e39f5a921e349e219324a82ca473e65520f11688ac", "addresses": ["1A1suHbyqJDDGy6RdvefqYczEzcJcVCPXL"], "asm": "OP_DUP OP_HASH160 62e39f5a921e349e219324a82ca473e65520f116 OP_EQUALVERIFY OP_CHECKSIG", "type": "pubkeyhash"}, "value": 5.46e-06, "n": 1}, {"scriptPubKey": {"type": "nulldata", "hex": "6a146f6d6e69000000000000001f00000023a4853a50", "asm": "OP_RETURN 6f6d6e69000000000000001f00000023a4853a50"}, "value": 0.0, "n": 2}], "hex": "01000000019609beac4feba554d1b09fb468bbb45788b500227ba8aa160f2c0ace2648f607000000006b48304502210088587b0f5533202ea7ecdd27ac63d204150017bf077da77f57d1cd0f95cf97dd0220739bbcfc5a11e4898e0d5f9602071d580c565a2487cd51ebe5342ef0530c1c420121039a403b4eeaf8f7a9c5cc655cf2d17310fcd606a75b1392f7892f6b514a67d23cffffffff036e860500000000001976a914f423dfee34e4833104508103d89e316b4a49314088ac22020000000000001976a91462e39f5a921e349e219324a82ca473e65520f11688ac0000000000000000166a146f6d6e69000000000000001f00000023a4853a5000000000", "vin": [{"sequence": 4294967295, "scriptSig": {"hex": "48304502210088587b0f5533202ea7ecdd27ac63d204150017bf077da77f57d1cd0f95cf97dd0220739bbcfc5a11e4898e0d5f9602071d580c565a2487cd51ebe5342ef0530c1c420121039a403b4eeaf8f7a9c5cc655cf2d17310fcd606a75b1392f7892f6b514a67d23c", "asm": "304502210088587b0f5533202ea7ecdd27ac63d204150017bf077da77f57d1cd0f95cf97dd0220739bbcfc5a11e4898e0d5f9602071d580c565a2487cd51ebe5342ef0530c1c42[ALL] 039a403b4eeaf8f7a9c5cc655cf2d17310fcd606a75b1392f7892f6b514a67d23c"}, "vout": 0, "txid": "07f64826ce0a2c0f16aaa87b2200b58857b4bb68b49fb0d154a5eb4facbe0996"}], "txid": "3b52c8a182fd252c0ef6e3937214d6fbef50daa8bb78029824673e33035f8123", "blocktime": 1537875543, "version": 1, "confirmations": 11464, "time": 1537875543, "locktime": 0, "vsize": 257, "size": 257}