{"hash": "3b5529fbb874c8574ce3f46d344c4e07397e74ea0d057e28053539b7787c2a7b", "blockhash": "000000000000000000022b45ed06c6f4ccd3cf7fb5ba4856ebd2e58215665228", "vout": [{"scriptPubKey": {"reqSigs": 1, "hex": "76a9149b8723c3c4710ec79883ac7e14905040edad8d4588ac", "addresses": ["1FBMdQVjorNeeCmPZzyqsTs3HYay9cWsdy"], "asm": "OP_DUP OP_HASH160 9b8723c3c4710ec79883ac7e14905040edad8d45 OP_EQUALVERIFY OP_CHECKSIG", "type": "pubkeyhash"}, "value": 0.01636462, "n": 0}, {"scriptPubKey": {"reqSigs": 1, "hex": "a914b6f032159b60f9807a0b694c2197f248b890660d87", "addresses": ["3JNJeYRrrA7icmbYELTn6uqovDwVSNFepM"], "asm": "OP_HASH160 b6f032159b60f9807a0b694c2197f248b890660d OP_EQUAL", "type": "scripthash"}, "value": 0.02183413, "n": 1}], "hex": "0100000001817ad134a793e50e6510f93b3a1e77615a231685522d9232274379290dcaacfe010000006a4730440220357601d12283c3c9f7b03cd54d08dc296eaa6ab178ce6afd57bbaabb32f2689f0220394174a31afdbba0899711132e1e7dc27357c4e72ff3dc6cc87efe25acc14f57012103c0af25d8de949e3ef5cfd893b94fd1fb077685efe77e01782e032e12b954ae5effffffff026ef81800000000001976a9149b8723c3c4710ec79883ac7e14905040edad8d4588acf55021000000000017a914b6f032159b60f9807a0b694c2197f248b890660d8700000000", "vin": [{"sequence": 4294967295, "scriptSig": {"hex": "4730440220357601d12283c3c9f7b03cd54d08dc296eaa6ab178ce6afd57bbaabb32f2689f0220394174a31afdbba0899711132e1e7dc27357c4e72ff3dc6cc87efe25acc14f57012103c0af25d8de949e3ef5cfd893b94fd1fb077685efe77e01782e032e12b954ae5e", "asm": "30440220357601d12283c3c9f7b03cd54d08dc296eaa6ab178ce6afd57bbaabb32f2689f0220394174a31afdbba0899711132e1e7dc27357c4e72ff3dc6cc87efe25acc14f57[ALL] 03c0af25d8de949e3ef5cfd893b94fd1fb077685efe77e01782e032e12b954ae5e"}, "vout": 1, "txid": "feacca0d2979432732922d528516235a61771e3a3bf910650ee593a734d17a81"}], "txid": "3b5529fbb874c8574ce3f46d344c4e07397e74ea0d057e28053539b7787c2a7b", "blocktime": 1537869901, "version": 1, "confirmations": 11523, "time": 1537869901, "locktime": 0, "vsize": 223, "size": 223}