{"hash": "3b5b9752b53458662bc4ffce211bcd098e49de1b1d954f2859c9bf5daf4ef0d1", "blockhash": "0000000000000000000e13cef7c366c0283d82e591d1acd082e914b08063cdf1", "vout": [{"scriptPubKey": {"reqSigs": 1, "hex": "76a91485df122c4f9fad81a5a6a7855b0151db03611d4688ac", "addresses": ["1DCr6kw5ktxtkQBmNh9usvNrgyi8qZj9J3"], "asm": "OP_DUP OP_HASH160 85df122c4f9fad81a5a6a7855b0151db03611d46 OP_EQUALVERIFY OP_CHECKSIG", "type": "pubkeyhash"}, "value": 0.94630281, "n": 0}, {"scriptPubKey": {"reqSigs": 1, "hex": "76a914b88f5f6f1d729fbc777c00f989c33d009559629588ac", "addresses": ["1Hps61kAzC2hzudBkLLxvwbegfhtD7aaRg"], "asm": "OP_DUP OP_HASH160 b88f5f6f1d729fbc777c00f989c33d0095596295 OP_EQUALVERIFY OP_CHECKSIG", "type": "pubkeyhash"}, "value": 0.72499662, "n": 1}], "hex": "010000000657efd91ea49f83e88f0aebc92e86f48852472c8dd251e2f3553da003461fae99000000006b483045022100b999ed31cdb170365a9f3094594b591a61b342e71b80eb6561755cd325a5c28c02201c5d3ddea0309f174ef495c218969ade4fe56ba04518ff039737f329891ab0f5012102192f4b58aedad37106f9a078fa50c5e0d0edfe38c84d88d9147b1b41d142b23dfffffffffd29307024d693319d8b65511d4990ffab32cc108cf19cc63fbf3f0079e5a5c1000000006b483045022100ed0948ca9c47396337e58dba57124cd7420f286cb252275357345f67388f9d50022007e4cc519431281c5744af6b7a9f199155351783ba693d3cb12feb8ae14b1392012103d21f6fc6659cf966905af4ebad227f2e11df1e53dbcf23ad580bb8ddee42e592ffffffffb073341516e9d1864ef79d34919b827fa847120a7a43fcd5fc2f11f26852f09b000000006b4830450221009be85d90b1b4ff74b41f26fbf27d7131255f8a4d9bd9f2a530a2777c2c02d2d702203b38a444af7712ccd2b2b36fbafdb700931c5cc32929966cc13be573c6f9cbbe012103ae24141c698d6fa5ce7f58bfc0ff1e00574ec2d1da50ac82d1cb454b52fa6c2effffffff9a93c71c348316ef55efd862e53b8421fd7ae6fa9151f577af97a787d9f8c625000000006b483045022100cf8fb9bc2f20dc5faa06f27a1b267bd2464dc9eaaa4ad62bed8187adba2999db02203b312cf27d74ce08735e8e2574549847d59ef722adc2b7c7e94226701b24cbdf012103811de7eda89738450a23e9cbe8cb24d0ec2c6b7be7310a7c41cabf829714ef8bffffffff43976cd509dcb5c987bca90e7716eee6c1b42e0a82cdc706caab0733209d3648000000006a4730440220459d91228999a6077c5a3bf6aa7154bfa411cac12e019ea5e150335117c4ac9e022030c636fbdffdc88ccd76a0c8715fca86c13eab41c2785f67fe10a462a4f4f427012103feeb5649217e935261266d37ed9f0deedb316497b39dd10c8a7d770f01d605c1ffffffff0a85868daf6d653321c1c5416c86a12ec3bc7b8c38f681a270f0cbc52e86ee51000000006b483045022100a0889d7fff0f8ad479ccbb9a610084c37d84c79a60bde99ff133c00ec0c5e5270220443ca178bc15f4b7068a429191498d4edbc89f74cff1cb805ef918761b0690da012103dad0c1842158b34b0433de11de6c414f4a69d7b67d2e2a86074069b039099c63ffffffff0289f1a305000000001976a91485df122c4f9fad81a5a6a7855b0151db03611d4688acce415204000000001976a914b88f5f6f1d729fbc777c00f989c33d009559629588ac00000000", "vin": [{"sequence": 4294967295, "scriptSig": {"hex": "483045022100b999ed31cdb170365a9f3094594b591a61b342e71b80eb6561755cd325a5c28c02201c5d3ddea0309f174ef495c218969ade4fe56ba04518ff039737f329891ab0f5012102192f4b58aedad37106f9a078fa50c5e0d0edfe38c84d88d9147b1b41d142b23d", "asm": "3045022100b999ed31cdb170365a9f3094594b591a61b342e71b80eb6561755cd325a5c28c02201c5d3ddea0309f174ef495c218969ade4fe56ba04518ff039737f329891ab0f5[ALL] 02192f4b58aedad37106f9a078fa50c5e0d0edfe38c84d88d9147b1b41d142b23d"}, "vout": 0, "txid": "99ae1f4603a03d55f3e251d28d2c475288f4862ec9eb0a8fe8839fa41ed9ef57"}, {"sequence": 4294967295, "scriptSig": {"hex": "483045022100ed0948ca9c47396337e58dba57124cd7420f286cb252275357345f67388f9d50022007e4cc519431281c5744af6b7a9f199155351783ba693d3cb12feb8ae14b1392012103d21f6fc6659cf966905af4ebad227f2e11df1e53dbcf23ad580bb8ddee42e592", "asm": "3045022100ed0948ca9c47396337e58dba57124cd7420f286cb252275357345f67388f9d50022007e4cc519431281c5744af6b7a9f199155351783ba693d3cb12feb8ae14b1392[ALL] 03d21f6fc6659cf966905af4ebad227f2e11df1e53dbcf23ad580bb8ddee42e592"}, "vout": 0, "txid": "c1a5e579003fbf3fc69cf18c10cc32abff90491d51658b9d3193d624703029fd"}, {"sequence": 4294967295, "scriptSig": {"hex": "4830450221009be85d90b1b4ff74b41f26fbf27d7131255f8a4d9bd9f2a530a2777c2c02d2d702203b38a444af7712ccd2b2b36fbafdb700931c5cc32929966cc13be573c6f9cbbe012103ae24141c698d6fa5ce7f58bfc0ff1e00574ec2d1da50ac82d1cb454b52fa6c2e", "asm": "30450221009be85d90b1b4ff74b41f26fbf27d7131255f8a4d9bd9f2a530a2777c2c02d2d702203b38a444af7712ccd2b2b36fbafdb700931c5cc32929966cc13be573c6f9cbbe[ALL] 03ae24141c698d6fa5ce7f58bfc0ff1e00574ec2d1da50ac82d1cb454b52fa6c2e"}, "vout": 0, "txid": "9bf05268f2112ffcd5fc437a0a1247a87f829b91349df74e86d1e916153473b0"}, {"sequence": 4294967295, "scriptSig": {"hex": "483045022100cf8fb9bc2f20dc5faa06f27a1b267bd2464dc9eaaa4ad62bed8187adba2999db02203b312cf27d74ce08735e8e2574549847d59ef722adc2b7c7e94226701b24cbdf012103811de7eda89738450a23e9cbe8cb24d0ec2c6b7be7310a7c41cabf829714ef8b", "asm": "3045022100cf8fb9bc2f20dc5faa06f27a1b267bd2464dc9eaaa4ad62bed8187adba2999db02203b312cf27d74ce08735e8e2574549847d59ef722adc2b7c7e94226701b24cbdf[ALL] 03811de7eda89738450a23e9cbe8cb24d0ec2c6b7be7310a7c41cabf829714ef8b"}, "vout": 0, "txid": "25c6f8d987a797af77f55191fae67afd21843be562d8ef55ef1683341cc7939a"}, {"sequence": 4294967295, "scriptSig": {"hex": "4730440220459d91228999a6077c5a3bf6aa7154bfa411cac12e019ea5e150335117c4ac9e022030c636fbdffdc88ccd76a0c8715fca86c13eab41c2785f67fe10a462a4f4f427012103feeb5649217e935261266d37ed9f0deedb316497b39dd10c8a7d770f01d605c1", "asm": "30440220459d91228999a6077c5a3bf6aa7154bfa411cac12e019ea5e150335117c4ac9e022030c636fbdffdc88ccd76a0c8715fca86c13eab41c2785f67fe10a462a4f4f427[ALL] 03feeb5649217e935261266d37ed9f0deedb316497b39dd10c8a7d770f01d605c1"}, "vout": 0, "txid": "48369d203307abca06c7cd820a2eb4c1e6ee16770ea9bc87c9b5dc09d56c9743"}, {"sequence": 4294967295, "scriptSig": {"hex": "483045022100a0889d7fff0f8ad479ccbb9a610084c37d84c79a60bde99ff133c00ec0c5e5270220443ca178bc15f4b7068a429191498d4edbc89f74cff1cb805ef918761b0690da012103dad0c1842158b34b0433de11de6c414f4a69d7b67d2e2a86074069b039099c63", "asm": "3045022100a0889d7fff0f8ad479ccbb9a610084c37d84c79a60bde99ff133c00ec0c5e5270220443ca178bc15f4b7068a429191498d4edbc89f74cff1cb805ef918761b0690da[ALL] 03dad0c1842158b34b0433de11de6c414f4a69d7b67d2e2a86074069b039099c63"}, "vout": 0, "txid": "51ee862ec5cbf070a281f6388c7bbcc32ea1866c41c5c12133656daf8d86850a"}], "txid": "3b5b9752b53458662bc4ffce211bcd098e49de1b1d954f2859c9bf5daf4ef0d1", "blocktime": 1537871767, "version": 1, "confirmations": 11491, "time": 1537871767, "locktime": 0, "vsize": 965, "size": 965}