{"hash": "3b5ea445543a6ee33334c1a9b3197e760c2fc48b2e4a4777762d008b740277e1", "blockhash": "00000000000000000017f5eb5941039fbcee6240d03bc1f2f8e35350df66a1d8", "vout": [{"scriptPubKey": {"reqSigs": 1, "hex": "a91457219fa86b227e994364ef0a7dbf387b661aa04087", "addresses": ["39dizSpx2mZCuwBRc1zYdS7TVMZKDxvTwq"], "asm": "OP_HASH160 57219fa86b227e994364ef0a7dbf387b661aa040 OP_EQUAL", "type": "scripthash"}, "value": 0.00770624, "n": 0}, {"scriptPubKey": {"reqSigs": 1, "hex": "76a9143f4cb6d8d3e8ac55a7d6a542c9429e644baf9b3388ac", "addresses": ["16mhUHWK3HZKj2AATVcoeV42MgCBFxLPGY"], "asm": "OP_DUP OP_HASH160 3f4cb6d8d3e8ac55a7d6a542c9429e644baf9b33 OP_EQUALVERIFY OP_CHECKSIG", "type": "pubkeyhash"}, "value": 0.00014949, "n": 1}], "hex": "0100000002bb75bb9369c31dc0f4c58c3425293d8f56cbdc59d800c4f13263238751315d3a21000000db00483045022100b98d74542417374c17daf2bca0a88b6a50fcf9cb73408886ada9dee056df52510220700d8cf8ec055dc5d7390e8207bc66de98b713f1a1485ff310db12be42800f8001483045022100910e474b3550b78f8432cb3536418ab80134d39b7de0e12edc8ccb53681251a102200baee54fa218ff02de5587a5eb4e037fa012578b37136966b1a7a1c44849594d01475221026b5a8389fd0c3c63e8705c8e7256e52c28689a8d0d22e870de84cdc4a2ecff8d2102907a54bed8ad74b3f35638c60114ca240a308cb986f3f2f306178869a8880b6152aeffffffff9159252e907534327ead1cffd3fd7751856fbb2cfdd4d5998992eaa92866bb70020000006a47304402205e0fbce6a99553e86d9c0efe9b8328e4f7d851ca03a33cd978ae01494118fb8c022028197174ab9da514032c9182c2114767dfee8f8c4389802fda8a180a839ede8a012103b71dc9801811fa0188dd184257988a2d6b7cd06b7e2525a2c859e14dd9b39aa0ffffffff0240c20b000000000017a91457219fa86b227e994364ef0a7dbf387b661aa04087653a0000000000001976a9143f4cb6d8d3e8ac55a7d6a542c9429e644baf9b3388ac00000000", "vin": [{"sequence": 4294967295, "scriptSig": {"hex": "00483045022100b98d74542417374c17daf2bca0a88b6a50fcf9cb73408886ada9dee056df52510220700d8cf8ec055dc5d7390e8207bc66de98b713f1a1485ff310db12be42800f8001483045022100910e474b3550b78f8432cb3536418ab80134d39b7de0e12edc8ccb53681251a102200baee54fa218ff02de5587a5eb4e037fa012578b37136966b1a7a1c44849594d01475221026b5a8389fd0c3c63e8705c8e7256e52c28689a8d0d22e870de84cdc4a2ecff8d2102907a54bed8ad74b3f35638c60114ca240a308cb986f3f2f306178869a8880b6152ae", "asm": "0 3045022100b98d74542417374c17daf2bca0a88b6a50fcf9cb73408886ada9dee056df52510220700d8cf8ec055dc5d7390e8207bc66de98b713f1a1485ff310db12be42800f80[ALL] 3045022100910e474b3550b78f8432cb3536418ab80134d39b7de0e12edc8ccb53681251a102200baee54fa218ff02de5587a5eb4e037fa012578b37136966b1a7a1c44849594d[ALL] 5221026b5a8389fd0c3c63e8705c8e7256e52c28689a8d0d22e870de84cdc4a2ecff8d2102907a54bed8ad74b3f35638c60114ca240a308cb986f3f2f306178869a8880b6152ae"}, "vout": 33, "txid": "3a5d315187236332f1c400d859dccb568f3d2925348cc5f4c01dc36993bb75bb"}, {"sequence": 4294967295, "scriptSig": {"hex": "47304402205e0fbce6a99553e86d9c0efe9b8328e4f7d851ca03a33cd978ae01494118fb8c022028197174ab9da514032c9182c2114767dfee8f8c4389802fda8a180a839ede8a012103b71dc9801811fa0188dd184257988a2d6b7cd06b7e2525a2c859e14dd9b39aa0", "asm": "304402205e0fbce6a99553e86d9c0efe9b8328e4f7d851ca03a33cd978ae01494118fb8c022028197174ab9da514032c9182c2114767dfee8f8c4389802fda8a180a839ede8a[ALL] 03b71dc9801811fa0188dd184257988a2d6b7cd06b7e2525a2c859e14dd9b39aa0"}, "vout": 2, "txid": "70bb6628a9ea928999d5d4fd2cbb6f855177fdd3ff1cad7e323475902e255991"}], "txid": "3b5ea445543a6ee33334c1a9b3197e760c2fc48b2e4a4777762d008b740277e1", "blocktime": 1537874412, "version": 1, "confirmations": 11467, "time": 1537874412, "locktime": 0, "vsize": 483, "size": 483}