{"hash": "3b610b687621b81d7418847bc830402a73baf28798f9a54e3579c16d747aba62", "blockhash": "0000000000000000000dcc0f55137456b1a82d3642486a52398922ac4d620174", "vout": [{"scriptPubKey": {"reqSigs": 1, "hex": "76a914af2109184416341813256f252a24cb939a439bd388ac", "addresses": ["1GxzpvJLRW7yTeLMuxQaro3g1P5d65KdzH"], "asm": "OP_DUP OP_HASH160 af2109184416341813256f252a24cb939a439bd3 OP_EQUALVERIFY OP_CHECKSIG", "type": "pubkeyhash"}, "value": 0.00116871, "n": 0}, {"scriptPubKey": {"reqSigs": 1, "hex": "a914a18a070d9c024a8a80e102897896723f659ab99f87", "addresses": ["3GRA4kW88KmDTmZX3caxLpSxWt4x9XmECX"], "asm": "OP_HASH160 a18a070d9c024a8a80e102897896723f659ab99f OP_EQUAL", "type": "scripthash"}, "value": 0.0077, "n": 1}], "hex": "0100000001b87fcfc7d83f9daac930e608431eb178a3a15bc36e3ef24de0c5996e71bae0ec010000006a47304402200bc372a87dcdd61ecf1d8d5cffc8440166d4c7ea08c21715a3ae48dfdbdfef2b0220103ca0b49916de28f231e087c1f5b1a4442852f9e4e3de5d80ec27c96891a11d012102216fb62e2d40e52c8d42735c80b347859ebe69142d0c7c95f4b73d4035299fffffffffff0287c80100000000001976a914af2109184416341813256f252a24cb939a439bd388acd0bf0b000000000017a914a18a070d9c024a8a80e102897896723f659ab99f8700000000", "vin": [{"sequence": 4294967295, "scriptSig": {"hex": "47304402200bc372a87dcdd61ecf1d8d5cffc8440166d4c7ea08c21715a3ae48dfdbdfef2b0220103ca0b49916de28f231e087c1f5b1a4442852f9e4e3de5d80ec27c96891a11d012102216fb62e2d40e52c8d42735c80b347859ebe69142d0c7c95f4b73d4035299fff", "asm": "304402200bc372a87dcdd61ecf1d8d5cffc8440166d4c7ea08c21715a3ae48dfdbdfef2b0220103ca0b49916de28f231e087c1f5b1a4442852f9e4e3de5d80ec27c96891a11d[ALL] 02216fb62e2d40e52c8d42735c80b347859ebe69142d0c7c95f4b73d4035299fff"}, "vout": 1, "txid": "ece0ba716e99c5e04df23e6ec35ba1a378b11e4308e630c9aa9d3fd8c7cf7fb8"}], "txid": "3b610b687621b81d7418847bc830402a73baf28798f9a54e3579c16d747aba62", "blocktime": 1537870268, "version": 1, "confirmations": 11516, "time": 1537870268, "locktime": 0, "vsize": 223, "size": 223}