{"hash": "d2e6b106f316dd5dd3f59c08a8ddd0f4bef5122e3780f65e8a8dbdbf76539400", "blockhash": "0000000000000000001cda96e906b7601b7a6fb1a3b62bca570a9e5d8f4b3de1", "vout": [{"scriptPubKey": {"reqSigs": 1, "hex": "0014d37390e47710ee2a214532e4db342fa85e4e36ef", "addresses": ["bc1q6deeperhzrhz5g29xtjdkdp04p0yudh0a2g02y"], "asm": "0 d37390e47710ee2a214532e4db342fa85e4e36ef", "type": "witness_v0_keyhash"}, "value": 0.00335245, "n": 0}, {"scriptPubKey": {"reqSigs": 1, "hex": "a91420d5b4f4b7a9d5949fdf9315e027cd37a7fb061787", "addresses": ["34gdZJ5LngEZSSCaAm6KVfA5hVdRyaAYtg"], "asm": "OP_HASH160 20d5b4f4b7a9d5949fdf9315e027cd37a7fb0617 OP_EQUAL", "type": "scripthash"}, "value": 2.5, "n": 1}], "hex": "01000000000101be44d3481310f5e6ec7e386ace98acc05e1c53937dd13239bef3d88e37887ebc0000000000ffffffff028d1d050000000000160014d37390e47710ee2a214532e4db342fa85e4e36ef80b2e60e0000000017a91420d5b4f4b7a9d5949fdf9315e027cd37a7fb06178702473044022009416bf8220eb9b3e4a1cde283c9c4d19d288dbf01904130cadcfb1a1763dcb102200f7c4a09f2b541308d4677a914682c57e797cf245237886d12170b86db2405b201210366331f7ba91db5790f6d41448ea0b7eaca5f8cacf70f6fb8ca379939a63ce45d00000000", "vin": [{"txinwitness": ["3044022009416bf8220eb9b3e4a1cde283c9c4d19d288dbf01904130cadcfb1a1763dcb102200f7c4a09f2b541308d4677a914682c57e797cf245237886d12170b86db2405b201", "0366331f7ba91db5790f6d41448ea0b7eaca5f8cacf70f6fb8ca379939a63ce45d"], "sequence": 4294967295, "scriptSig": {"hex": "", "asm": ""}, "vout": 0, "txid": "bc7e88378ed8f3be3932d17d93531c5ec0ac98ce6a387eece6f5101348d344be"}], "txid": "3b62e8fa660047f070db06cca7e22e633e8bbf6cb6d78a78639807e211396162", "blocktime": 1537873282, "version": 1, "confirmations": 11484, "time": 1537873282, "locktime": 0, "vsize": 142, "size": 223}