{"hash": "3b69ad55f6d1e82fdaa7fda9dbf594f42a31cc8318460bd7d039efa8cdc41133", "blockhash": "00000000000000000004ffacab907a6b429b9a5745fa0b75af4234bf69dd7176", "vout": [{"scriptPubKey": {"reqSigs": 1, "hex": "76a914cf7544daa00d385780d31e86fc72e7872525433188ac", "addresses": ["1KuwMhYw9serhEY7sZyUSzEPmsQoYMgFVY"], "asm": "OP_DUP OP_HASH160 cf7544daa00d385780d31e86fc72e78725254331 OP_EQUALVERIFY OP_CHECKSIG", "type": "pubkeyhash"}, "value": 0.001, "n": 0}, {"scriptPubKey": {"reqSigs": 1, "hex": "76a914e163d073e054266d0f5e025eebd6100b0c946b5b88ac", "addresses": ["1MYkcNyCtPmxivKoMy5v5VBkv6LuBrgrAy"], "asm": "OP_DUP OP_HASH160 e163d073e054266d0f5e025eebd6100b0c946b5b OP_EQUALVERIFY OP_CHECKSIG", "type": "pubkeyhash"}, "value": 0.0828032, "n": 1}], "hex": "010000000136cd70a5b5654808ccaa1d86f9913fbdafc0b9f6c26efdd7d5eb64ddb04b63c2010000006a47304402202f8738794bbceaebfad42195dce465325d179bb0e7799f5070d4c9dd2ca1620802200cea15545e047a06dcb0581f7b2955128fcc159dcaef3a1ed80d47075e85aa630121033387315522fd785dc6a3184e4f2acbd937f90409a105c06583c94e6554220085ffffffff02a0860100000000001976a914cf7544daa00d385780d31e86fc72e7872525433188ac00597e00000000001976a914e163d073e054266d0f5e025eebd6100b0c946b5b88ac00000000", "vin": [{"sequence": 4294967295, "scriptSig": {"hex": "47304402202f8738794bbceaebfad42195dce465325d179bb0e7799f5070d4c9dd2ca1620802200cea15545e047a06dcb0581f7b2955128fcc159dcaef3a1ed80d47075e85aa630121033387315522fd785dc6a3184e4f2acbd937f90409a105c06583c94e6554220085", "asm": "304402202f8738794bbceaebfad42195dce465325d179bb0e7799f5070d4c9dd2ca1620802200cea15545e047a06dcb0581f7b2955128fcc159dcaef3a1ed80d47075e85aa63[ALL] 033387315522fd785dc6a3184e4f2acbd937f90409a105c06583c94e6554220085"}, "vout": 1, "txid": "c2634bb0dd64ebd5d7fd6ec2f6b9c0afbd3f91f9861daacc084865b5a570cd36"}], "txid": "3b69ad55f6d1e82fdaa7fda9dbf594f42a31cc8318460bd7d039efa8cdc41133", "blocktime": 1537875543, "version": 1, "confirmations": 11464, "time": 1537875543, "locktime": 0, "vsize": 225, "size": 225}