{"hash": "b3f544c9d3243226b6e05bbe08fd211a22650e2a7b18cc2ec2134724a6212449", "blockhash": "0000000000000000001cda96e906b7601b7a6fb1a3b62bca570a9e5d8f4b3de1", "vout": [{"scriptPubKey": {"reqSigs": 1, "hex": "a914452d0902bc9418d9816c456952a9d64fbce77b8e87", "addresses": ["37znVt29N9jDACahNUYLrEaz6GPbLycU4c"], "asm": "OP_HASH160 452d0902bc9418d9816c456952a9d64fbce77b8e OP_EQUAL", "type": "scripthash"}, "value": 0.00998169, "n": 0}, {"scriptPubKey": {"reqSigs": 1, "hex": "76a9143039161b8343e4918225e769b74dd1aaff4b629e88ac", "addresses": ["15PypdyZMQY5ohRY8zJjUpuiRhAr2pFZwW"], "asm": "OP_DUP OP_HASH160 3039161b8343e4918225e769b74dd1aaff4b629e OP_EQUALVERIFY OP_CHECKSIG", "type": "pubkeyhash"}, "value": 0.0057846, "n": 1}], "hex": "02000000000101b7ae34e360c69d2b95a076da9003ba9ddf350d37c5dea015c0979c696ac483370800000017160014292e74b0d68a2a744b0dd79bc249419a4d805a36feffffff02193b0f000000000017a914452d0902bc9418d9816c456952a9d64fbce77b8e879cd30800000000001976a9143039161b8343e4918225e769b74dd1aaff4b629e88ac024730440220710a9c582558882e659e8b000979af01ed46038945fbbdf25eb7bd3949e50b41022076675bc8a214e8a2844925b5b3d5375a61335aee54b36066becc729f6bb3505b01210273ac480d9e0304f209f9fd5adf938096a596c938be02c20c0492e636a0df437613490800", "vin": [{"txinwitness": ["30440220710a9c582558882e659e8b000979af01ed46038945fbbdf25eb7bd3949e50b41022076675bc8a214e8a2844925b5b3d5375a61335aee54b36066becc729f6bb3505b01", "0273ac480d9e0304f209f9fd5adf938096a596c938be02c20c0492e636a0df4376"], "sequence": 4294967294, "scriptSig": {"hex": "160014292e74b0d68a2a744b0dd79bc249419a4d805a36", "asm": "0014292e74b0d68a2a744b0dd79bc249419a4d805a36"}, "vout": 8, "txid": "3783c46a699c97c015a0dec5370d35df9dba0390da76a0952b9dc660e334aeb7"}], "txid": "3b7006c377b490bf4c39721bcfbf3eaca2a2d3b637727959c2be3ef08796d93b", "blocktime": 1537873282, "version": 2, "confirmations": 11481, "time": 1537873282, "locktime": 542995, "vsize": 168, "size": 249}