{"hash": "47ba07699953fefdfd7292e05bf3192bb4eafb54e8835aaac69e801139c4fc44", "blockhash": "000000000000000000022b45ed06c6f4ccd3cf7fb5ba4856ebd2e58215665228", "vout": [{"scriptPubKey": {"reqSigs": 1, "hex": "76a91477067b659bf90043799a4896128ab954e4bc7e1288ac", "addresses": ["1BrMBCyMnN1MN7EVMsNbhSYBFXyQK8zbAb"], "asm": "OP_DUP OP_HASH160 77067b659bf90043799a4896128ab954e4bc7e12 OP_EQUALVERIFY OP_CHECKSIG", "type": "pubkeyhash"}, "value": 0.77956719, "n": 0}, {"scriptPubKey": {"reqSigs": 1, "hex": "a9149afe192c145a63f5c7384379c569b80b2fd8182487", "addresses": ["3FpYP9Uu7Hte26AJ2nJsmQ82FYJmg4hoXe"], "asm": "OP_HASH160 9afe192c145a63f5c7384379c569b80b2fd81824 OP_EQUAL", "type": "scripthash"}, "value": 33.0803575, "n": 1}], "hex": "01000000000101cd397061cb054801321a40091aa8ca215df599b913a2357cadb1db80471b500f0100000017160014441bd76255dc0cf65256583bbf0a1c4df4c503fbffffffff026f86a504000000001976a91477067b659bf90043799a4896128ab954e4bc7e1288aca69e2cc50000000017a9149afe192c145a63f5c7384379c569b80b2fd818248702483045022100bf56123847ad045c54cdee6bf45cda01b9f681976ebad9e03825b440d66b8b30022026da8bcb4bb5af9d4f91e3d19a122085a6c4111b251f46ed488131218068dd980121039d62652506efd5d737776ecd2f6438a7c326def4885f6a7c35c066695897615000000000", "vin": [{"txinwitness": ["3045022100bf56123847ad045c54cdee6bf45cda01b9f681976ebad9e03825b440d66b8b30022026da8bcb4bb5af9d4f91e3d19a122085a6c4111b251f46ed488131218068dd9801", "039d62652506efd5d737776ecd2f6438a7c326def4885f6a7c35c0666958976150"], "sequence": 4294967295, "scriptSig": {"hex": "160014441bd76255dc0cf65256583bbf0a1c4df4c503fb", "asm": "0014441bd76255dc0cf65256583bbf0a1c4df4c503fb"}, "vout": 1, "txid": "0f501b4780dbb1ad7c35a213b999f55d21caa81a09401a32014805cb617039cd"}], "txid": "3b71892166fc88e5ddd28859ac517b6388ba88fadd2482099796ff2894ba288e", "blocktime": 1537869901, "version": 1, "confirmations": 11523, "time": 1537869901, "locktime": 0, "vsize": 168, "size": 250}