{"hash": "3b72ca7971642804ec0d4a4aa48c8ca153239ef0ad7f23f5e67b6ed3c7ad3a20", "blockhash": "0000000000000000001cda96e906b7601b7a6fb1a3b62bca570a9e5d8f4b3de1", "vout": [{"scriptPubKey": {"type": "nulldata", "hex": "6a146f6d6e69000000000000001f0000045a99913c80", "asm": "OP_RETURN 6f6d6e69000000000000001f0000045a99913c80"}, "value": 0.0, "n": 0}, {"scriptPubKey": {"reqSigs": 1, "hex": "76a914a25dec4d0011064ef106a983c39c7a540699f22088ac", "addresses": ["1FoWyxwPXuj4C6abqwhjDWdz6D4PZgYRjA"], "asm": "OP_DUP OP_HASH160 a25dec4d0011064ef106a983c39c7a540699f220 OP_EQUALVERIFY OP_CHECKSIG", "type": "pubkeyhash"}, "value": 0.01995188, "n": 1}, {"scriptPubKey": {"reqSigs": 1, "hex": "76a9143b3286859a5fe6882a9548f9be46b6a95e0c692f88ac", "addresses": ["16Q1PtbgYpxqGkL7bNL9H8pXDNMfNqoXFE"], "asm": "OP_DUP OP_HASH160 3b3286859a5fe6882a9548f9be46b6a95e0c692f OP_EQUALVERIFY OP_CHECKSIG", "type": "pubkeyhash"}, "value": 5.46e-06, "n": 2}], "hex": "0100000001a44813c76173a4fe9689194c29809e35be05f1741d9b5e1e9e8bd44070ac1fea7c0000006a473044022064e77d880bb026245ec90d3b5fcf12b551418990f15be096c9e6e8f3cc0e2d9c02202a44c8178f090d4b2fe3a34091f9b1dacb22107b5825b8152f43bd6905b46415012103da5bac7b36d5aa38f531c6b9601e21bb598a4b6716ebed38b009a55dabde9440feffffff030000000000000000166a146f6d6e69000000000000001f0000045a99913c80b4711e00000000001976a914a25dec4d0011064ef106a983c39c7a540699f22088ac22020000000000001976a9143b3286859a5fe6882a9548f9be46b6a95e0c692f88ac13490800", "vin": [{"sequence": 4294967294, "scriptSig": {"hex": "473044022064e77d880bb026245ec90d3b5fcf12b551418990f15be096c9e6e8f3cc0e2d9c02202a44c8178f090d4b2fe3a34091f9b1dacb22107b5825b8152f43bd6905b46415012103da5bac7b36d5aa38f531c6b9601e21bb598a4b6716ebed38b009a55dabde9440", "asm": "3044022064e77d880bb026245ec90d3b5fcf12b551418990f15be096c9e6e8f3cc0e2d9c02202a44c8178f090d4b2fe3a34091f9b1dacb22107b5825b8152f43bd6905b46415[ALL] 03da5bac7b36d5aa38f531c6b9601e21bb598a4b6716ebed38b009a55dabde9440"}, "vout": 124, "txid": "ea1fac7040d48b9e1e5e9b1d74f105be359e80294c198996fea47361c71348a4"}], "txid": "3b72ca7971642804ec0d4a4aa48c8ca153239ef0ad7f23f5e67b6ed3c7ad3a20", "blocktime": 1537873282, "version": 1, "confirmations": 11481, "time": 1537873282, "locktime": 542995, "vsize": 256, "size": 256}