{"hash": "b5b1e672b6fc78609d6e18d22c1f028067fd0e3b3b02ea5e33662270f8d662e1", "blockhash": "0000000000000000001e0dab787dd257d1dbfcb92a98c2207d5e1078be1f4165", "vout": [{"scriptPubKey": {"reqSigs": 1, "hex": "001466a7df0d0928d74d39434f8cd6b770362f215220", "addresses": ["bc1qv6na7rgf9rt56w2rf7xdddmsxchjz53qz5fukz"], "asm": "0 66a7df0d0928d74d39434f8cd6b770362f215220", "type": "witness_v0_keyhash"}, "value": 0.00048214, "n": 0}, {"scriptPubKey": {"reqSigs": 1, "hex": "76a91475e6b05d9249b8be5f86786da74bb9235e405f0d88ac", "addresses": ["1BkQQzXczXWxTW23LXPzg21uK4kB1w1fLw"], "asm": "OP_DUP OP_HASH160 75e6b05d9249b8be5f86786da74bb9235e405f0d OP_EQUALVERIFY OP_CHECKSIG", "type": "pubkeyhash"}, "value": 0.008802, "n": 1}], "hex": "01000000000101727430b31c6637e7744b8c0343abf787209a1bf89311974bc37d9c03cd6f366f3000000017160014b4f325a0e729ac08cc55765af31d137927dc6a56ffffffff0256bc00000000000016001466a7df0d0928d74d39434f8cd6b770362f215220486e0d00000000001976a91475e6b05d9249b8be5f86786da74bb9235e405f0d88ac02473044022030fb86f6ab2a0811deefe6453dda5f49f5695ad504d95885e184e81d7c06b727022070f0720a7e3d7ba99cbbdde222b72ecc49623d83ced0a0800a24c474e00504eb0121026c7a0a8383a311ee4b945c12f225c9004c0bbbe73b5c0a14eb2491d73f2df40900000000", "vin": [{"txinwitness": ["3044022030fb86f6ab2a0811deefe6453dda5f49f5695ad504d95885e184e81d7c06b727022070f0720a7e3d7ba99cbbdde222b72ecc49623d83ced0a0800a24c474e00504eb01", "026c7a0a8383a311ee4b945c12f225c9004c0bbbe73b5c0a14eb2491d73f2df409"], "sequence": 4294967295, "scriptSig": {"hex": "160014b4f325a0e729ac08cc55765af31d137927dc6a56", "asm": "0014b4f325a0e729ac08cc55765af31d137927dc6a56"}, "vout": 48, "txid": "6f366fcd039c7dc34b971193f81b9a2087f7ab43038c4b74e737661cb3307472"}], "txid": "3b7b86443adbc90d2d4b57273941f444c4c7c576b089d0095a9e7d4f9ac2a683", "blocktime": 1537872475, "version": 1, "confirmations": 11487, "time": 1537872475, "locktime": 0, "vsize": 167, "size": 248}