{"hash": "3b81afff070a3f7448189f6aec02f23eee43de3cf094822cbae2af178befdea6", "blockhash": "0000000000000000001e0dab787dd257d1dbfcb92a98c2207d5e1078be1f4165", "vout": [{"scriptPubKey": {"reqSigs": 1, "hex": "76a914034bf6da8a4e4b9520c02d083081cc032966648d88ac", "addresses": ["1JS2fcFhmDC56V62dyWLoY4cbksAQStBf"], "asm": "OP_DUP OP_HASH160 034bf6da8a4e4b9520c02d083081cc032966648d OP_EQUALVERIFY OP_CHECKSIG", "type": "pubkeyhash"}, "value": 0.00639794, "n": 0}, {"scriptPubKey": {"type": "nulldata", "hex": "6a4c50000077bc0001c3bd13c224aaea86eb8b9a95e5bf9ae76da98a211aaf6c953dd567cf27e717bec04e98f481516d0dd5eb94374f945baa121906130c1b5edcf4b41d100759d4ba30d2c37bb011d97e02cf", "asm": "OP_RETURN 000077bc0001c3bd13c224aaea86eb8b9a95e5bf9ae76da98a211aaf6c953dd567cf27e717bec04e98f481516d0dd5eb94374f945baa121906130c1b5edcf4b41d100759d4ba30d2c37bb011d97e02cf"}, "value": 0.0, "n": 1}], "hex": "010000000191b45e2657618cce7558c195c2e00986d2909d12170e0da16b3e8bfd97650a46010000006a4730440220596fa532d1ef142afa66482d28bf0d428299cef6662c3db2bfff3b4681e66b7802203a25d4e6e7a26f7447faa5505fe1ad66db86f7f8994157314e0905819e53420e01210241d581cd7041bcde799a14d9fac89daba1f6d1d313de08267df8aac2ea61e179ffffffff0232c30900000000001976a914034bf6da8a4e4b9520c02d083081cc032966648d88ac0000000000000000536a4c50000077bc0001c3bd13c224aaea86eb8b9a95e5bf9ae76da98a211aaf6c953dd567cf27e717bec04e98f481516d0dd5eb94374f945baa121906130c1b5edcf4b41d100759d4ba30d2c37bb011d97e02cf00000000", "vin": [{"sequence": 4294967295, "scriptSig": {"hex": "4730440220596fa532d1ef142afa66482d28bf0d428299cef6662c3db2bfff3b4681e66b7802203a25d4e6e7a26f7447faa5505fe1ad66db86f7f8994157314e0905819e53420e01210241d581cd7041bcde799a14d9fac89daba1f6d1d313de08267df8aac2ea61e179", "asm": "30440220596fa532d1ef142afa66482d28bf0d428299cef6662c3db2bfff3b4681e66b7802203a25d4e6e7a26f7447faa5505fe1ad66db86f7f8994157314e0905819e53420e[ALL] 0241d581cd7041bcde799a14d9fac89daba1f6d1d313de08267df8aac2ea61e179"}, "vout": 1, "txid": "460a6597fd8b3e6ba10d0e17129d90d28609e0c295c15875ce8c6157265eb491"}], "txid": "3b81afff070a3f7448189f6aec02f23eee43de3cf094822cbae2af178befdea6", "blocktime": 1537872475, "version": 1, "confirmations": 11486, "time": 1537872475, "locktime": 0, "vsize": 283, "size": 283}