{"hash": "3b8781f80a1e0cffe3c437767f9272cd5e16ff638f0c0af1147e897903af5c2d", "blockhash": "0000000000000000000e13cef7c366c0283d82e591d1acd082e914b08063cdf1", "vout": [{"scriptPubKey": {"type": "nulldata", "hex": "6a4c5000007798000158d0f16aa42697e1ba380a06e3ef3236678a625097bcbefa6b8351586b4ebdb19dcdfa57b04aa43cecf495a62b4d5baa0d3b0614f93116de9784bc9a9526289ac0f6612cd74e33776ee4", "asm": "OP_RETURN 00007798000158d0f16aa42697e1ba380a06e3ef3236678a625097bcbefa6b8351586b4ebdb19dcdfa57b04aa43cecf495a62b4d5baa0d3b0614f93116de9784bc9a9526289ac0f6612cd74e33776ee4"}, "value": 0.0, "n": 0}, {"scriptPubKey": {"reqSigs": 1, "hex": "76a9149777613b99e05386b69b16a2e4e8c78cb1907c1688ac", "addresses": ["1Eot3d3Q71Ghk37ZzFNVwW7B4P5Qy8xQ8b"], "asm": "OP_DUP OP_HASH160 9777613b99e05386b69b16a2e4e8c78cb1907c16 OP_EQUALVERIFY OP_CHECKSIG", "type": "pubkeyhash"}, "value": 0.00125004, "n": 1}], "hex": "0100000001a303519248221056efbfc0913037c9563712ff157004ba09b9a7f2630cb7e53b010000006a473044022043d1c6dae8fab73ec9da4c920300edc11f9c4009d01dd81ba6c20b568e3016fa02201b76760bda3b1a2af24ddf473db38d28c403ed2803eab9851cbf56647f5338cd01210279ec22f4ce1b5a417b71b3ec8288b6bf6c40f0f2cbc96ccf81ac2c58e5c6cd60ffffffff020000000000000000536a4c5000007798000158d0f16aa42697e1ba380a06e3ef3236678a625097bcbefa6b8351586b4ebdb19dcdfa57b04aa43cecf495a62b4d5baa0d3b0614f93116de9784bc9a9526289ac0f6612cd74e33776ee44ce80100000000001976a9149777613b99e05386b69b16a2e4e8c78cb1907c1688ac00000000", "vin": [{"sequence": 4294967295, "scriptSig": {"hex": "473044022043d1c6dae8fab73ec9da4c920300edc11f9c4009d01dd81ba6c20b568e3016fa02201b76760bda3b1a2af24ddf473db38d28c403ed2803eab9851cbf56647f5338cd01210279ec22f4ce1b5a417b71b3ec8288b6bf6c40f0f2cbc96ccf81ac2c58e5c6cd60", "asm": "3044022043d1c6dae8fab73ec9da4c920300edc11f9c4009d01dd81ba6c20b568e3016fa02201b76760bda3b1a2af24ddf473db38d28c403ed2803eab9851cbf56647f5338cd[ALL] 0279ec22f4ce1b5a417b71b3ec8288b6bf6c40f0f2cbc96ccf81ac2c58e5c6cd60"}, "vout": 1, "txid": "3be5b70c63f2a7b909ba047015ff123756c9373091c0bfef56102248925103a3"}], "txid": "3b8781f80a1e0cffe3c437767f9272cd5e16ff638f0c0af1147e897903af5c2d", "blocktime": 1537871767, "version": 1, "confirmations": 11493, "time": 1537871767, "locktime": 0, "vsize": 283, "size": 283}