{"hash": "afd1f0d53189100b83672580cf5fd585e3020ec5c850b406b8d63ce3edba80fb", "blockhash": "0000000000000000000baef3f32e3676a92c3b2e5da21b426e4f302fc371ce76", "vout": [{"scriptPubKey": {"reqSigs": 1, "hex": "a9143fad731b8346996cf12f76a65e91bf9fbb7ccdcc87", "addresses": ["37ViH7z5wUgjFVqxai2itvLckjWW8aHZi8"], "asm": "OP_HASH160 3fad731b8346996cf12f76a65e91bf9fbb7ccdcc OP_EQUAL", "type": "scripthash"}, "value": 0.01065114, "n": 0}, {"scriptPubKey": {"reqSigs": 1, "hex": "76a914ab3979182df32bcea9f66091722753f10d3c303d88ac", "addresses": ["1GcMQ6jN2iTgapCBfDddooXE8PQFuwPTw3"], "asm": "OP_DUP OP_HASH160 ab3979182df32bcea9f66091722753f10d3c303d OP_EQUALVERIFY OP_CHECKSIG", "type": "pubkeyhash"}, "value": 0.0020376, "n": 1}], "hex": "02000000000102b14ba10802f176f5a8b487d1157bba8bcc0931617b7096c582215a1a2b53771a0600000017160014ede065ad05c2bba8298129227264f0965eb696b1feffffffd5b737d3c01ebac9e7bd5b1f71837592aa917cb70f489215604d7029bad27ad701000000171600140e47337bc8b4aaca63c447cbfe03748e6ca6a99dfeffffff029a4010000000000017a9143fad731b8346996cf12f76a65e91bf9fbb7ccdcc87f01b0300000000001976a914ab3979182df32bcea9f66091722753f10d3c303d88ac0247304402202d01e020c718cfce01d25e2879fc8af38f7f42cac86b6439f10caf889e723ae7022037cec5d69766e0a53bd53710fc0e3dd2969226659919b5059e3e54d111a129c60121032d6042243947caf85434069d5d4cfacd504886d3fb0d847370a2c9a28515f4ef02483045022100f8de3e17cb399ac2fb41f13345a3da4af39c51322c30da350f3bc13e0900ebe602206f1754324e3717db64d1cccec330d81286b4b2926b2d548c3c03c2e8222edcb50121021b78d53f41d7ca6f91e4f6b9f2b1fdcda1b334d4723b93fae287416604151aac17490800", "vin": [{"txinwitness": ["304402202d01e020c718cfce01d25e2879fc8af38f7f42cac86b6439f10caf889e723ae7022037cec5d69766e0a53bd53710fc0e3dd2969226659919b5059e3e54d111a129c601", "032d6042243947caf85434069d5d4cfacd504886d3fb0d847370a2c9a28515f4ef"], "sequence": 4294967294, "scriptSig": {"hex": "160014ede065ad05c2bba8298129227264f0965eb696b1", "asm": "0014ede065ad05c2bba8298129227264f0965eb696b1"}, "vout": 6, "txid": "1a77532b1a5a2182c596707b613109cc8bba7b15d187b4a8f576f10208a14bb1"}, {"txinwitness": ["3045022100f8de3e17cb399ac2fb41f13345a3da4af39c51322c30da350f3bc13e0900ebe602206f1754324e3717db64d1cccec330d81286b4b2926b2d548c3c03c2e8222edcb501", "021b78d53f41d7ca6f91e4f6b9f2b1fdcda1b334d4723b93fae287416604151aac"], "sequence": 4294967294, "scriptSig": {"hex": "1600140e47337bc8b4aaca63c447cbfe03748e6ca6a99d", "asm": "00140e47337bc8b4aaca63c447cbfe03748e6ca6a99d"}, "vout": 1, "txid": "d77ad2ba29704d601592480fb77c91aa927583711f5bbde7c9ba1ec0d337b7d5"}], "txid": "3b88a25903e336326060a8e6d448e6bcc08db09042a2e159ce48ca0f10976ab9", "blocktime": 1537876114, "version": 2, "confirmations": 11462, "time": 1537876114, "locktime": 542999, "vsize": 259, "size": 421}