{"hash": "3b933c6768e9b360d279c560959cd91a284360a7373896f2fbc528657e267836", "blockhash": "000000000000000000022b45ed06c6f4ccd3cf7fb5ba4856ebd2e58215665228", "vout": [{"scriptPubKey": {"reqSigs": 1, "hex": "76a914082faaca0ed13bdd34c32d77cd3c4bbff091d28588ac", "addresses": ["1kHWWM92toVrawpXvF55HLpqfaW7QdkKo"], "asm": "OP_DUP OP_HASH160 082faaca0ed13bdd34c32d77cd3c4bbff091d285 OP_EQUALVERIFY OP_CHECKSIG", "type": "pubkeyhash"}, "value": 0.009216, "n": 0}, {"scriptPubKey": {"reqSigs": 1, "hex": "76a914463c8dc6fc83b3b6538739af2a2ad0f0c4ad549f88ac", "addresses": ["17QNqnJjE6TLQe8Ean6Vhkd7h1Bx5ST35q"], "asm": "OP_DUP OP_HASH160 463c8dc6fc83b3b6538739af2a2ad0f0c4ad549f OP_EQUALVERIFY OP_CHECKSIG", "type": "pubkeyhash"}, "value": 0.01075059, "n": 1}], "hex": "0100000001da4546a138f8d13b86067073cbeceebf3833c703aa5cb7bc1695b2e8af025840000000006b483045022100b6f08ff3397ca52aa28f9afed648faadd96d7320141937bee9e4ebdd2788e2ea02204cb8bdc85e841c1f81061342596168f0d4f37d4a9c2bbc867b38faa987202c4001210366b1d0780e110e83425e3fb246899650bc7a5dc944139746e296b851c443929cffffffff0200100e00000000001976a914082faaca0ed13bdd34c32d77cd3c4bbff091d28588ac73671000000000001976a914463c8dc6fc83b3b6538739af2a2ad0f0c4ad549f88ac00000000", "vin": [{"sequence": 4294967295, "scriptSig": {"hex": "483045022100b6f08ff3397ca52aa28f9afed648faadd96d7320141937bee9e4ebdd2788e2ea02204cb8bdc85e841c1f81061342596168f0d4f37d4a9c2bbc867b38faa987202c4001210366b1d0780e110e83425e3fb246899650bc7a5dc944139746e296b851c443929c", "asm": "3045022100b6f08ff3397ca52aa28f9afed648faadd96d7320141937bee9e4ebdd2788e2ea02204cb8bdc85e841c1f81061342596168f0d4f37d4a9c2bbc867b38faa987202c40[ALL] 0366b1d0780e110e83425e3fb246899650bc7a5dc944139746e296b851c443929c"}, "vout": 0, "txid": "405802afe8b29516bcb75caa03c73338bfeeeccb737006863bd1f838a14645da"}], "txid": "3b933c6768e9b360d279c560959cd91a284360a7373896f2fbc528657e267836", "blocktime": 1537869901, "version": 1, "confirmations": 11522, "time": 1537869901, "locktime": 0, "vsize": 226, "size": 226}