{"hash": "3b96bcd66548c30a161cc56103846c3caa21ce5b760fa246e6093f475042ef1a", "blockhash": "0000000000000000000baef3f32e3676a92c3b2e5da21b426e4f302fc371ce76", "vout": [{"scriptPubKey": {"reqSigs": 1, "hex": "76a914e2dfdaa912b26ea8bcf8f1edd6526fe7d084d98388ac", "addresses": ["1Mgbt1huR78fSAbMsT6LxBMgG4UFNW9jR2"], "asm": "OP_DUP OP_HASH160 e2dfdaa912b26ea8bcf8f1edd6526fe7d084d983 OP_EQUALVERIFY OP_CHECKSIG", "type": "pubkeyhash"}, "value": 0.00466522, "n": 0}, {"scriptPubKey": {"reqSigs": 1, "hex": "a9142b8073996f60accc3cb248498a75dbb7905f1dd987", "addresses": ["35f2rmE3XNJJhug48pktSw4doyXUWvfAC9"], "asm": "OP_HASH160 2b8073996f60accc3cb248498a75dbb7905f1dd9 OP_EQUAL", "type": "scripthash"}, "value": 0.014421, "n": 1}], "hex": "0100000003e763ff922b667c42935e9b6e4766a53c8e4d349a36482aa86b54b8d61a2d7611010000006b483045022100e7c26df0a952a4340fa847b8f6092c503d2c33c81966744060edc43fcd4202d8022046d44bf37ba51fa7c9c93eff73df3e5b7502fe958ce744c43332f7b696d35a05012103a23d13b3daa2cc410ab689a3f3eff1a680e1f76b55e5dbc0195c7397d8469299ffffffffbe07fa401bb65b5fa54e5e914a8a28aa410bfdc6ea18691007f80faab90edd75010000006a4730440220552a809514b114a4d272124990aa60b3cc7e9fba5672e4a28cbf7db94fecd2f402206a350df46e45d2ed217eaa8a528ffac153e97bce103e46503e36a3d8bdd06b38012102f8928fdce7ac679b0e60dbfb0180eac35d6ce23d48329ee53acbd5403bcedcd1ffffffffd89386e81962b01d471f82ca9c8c158eef4b08e2077d9fc727f5ba9b7b1f60b6000000006b483045022100e68973257c7ccc54fe48ef2e2efed95ccef4ad2bb8245bd1e2c7e6fd944f749c0220594f5f3088aa582f37e10edf6d49f5838e192371808e1ce3ad897894ec8ac386012103a0ecfa882024005e1c7ee0321195238e05e86ad2e63bde74bfe2239ff564bbafffffffff025a1e0700000000001976a914e2dfdaa912b26ea8bcf8f1edd6526fe7d084d98388ac340116000000000017a9142b8073996f60accc3cb248498a75dbb7905f1dd98700000000", "vin": [{"sequence": 4294967295, "scriptSig": {"hex": "483045022100e7c26df0a952a4340fa847b8f6092c503d2c33c81966744060edc43fcd4202d8022046d44bf37ba51fa7c9c93eff73df3e5b7502fe958ce744c43332f7b696d35a05012103a23d13b3daa2cc410ab689a3f3eff1a680e1f76b55e5dbc0195c7397d8469299", "asm": "3045022100e7c26df0a952a4340fa847b8f6092c503d2c33c81966744060edc43fcd4202d8022046d44bf37ba51fa7c9c93eff73df3e5b7502fe958ce744c43332f7b696d35a05[ALL] 03a23d13b3daa2cc410ab689a3f3eff1a680e1f76b55e5dbc0195c7397d8469299"}, "vout": 1, "txid": "11762d1ad6b8546ba82a48369a344d8e3ca566476e9b5e93427c662b92ff63e7"}, {"sequence": 4294967295, "scriptSig": {"hex": "4730440220552a809514b114a4d272124990aa60b3cc7e9fba5672e4a28cbf7db94fecd2f402206a350df46e45d2ed217eaa8a528ffac153e97bce103e46503e36a3d8bdd06b38012102f8928fdce7ac679b0e60dbfb0180eac35d6ce23d48329ee53acbd5403bcedcd1", "asm": "30440220552a809514b114a4d272124990aa60b3cc7e9fba5672e4a28cbf7db94fecd2f402206a350df46e45d2ed217eaa8a528ffac153e97bce103e46503e36a3d8bdd06b38[ALL] 02f8928fdce7ac679b0e60dbfb0180eac35d6ce23d48329ee53acbd5403bcedcd1"}, "vout": 1, "txid": "75dd0eb9aa0ff807106918eac6fd0b41aa288a4a915e4ea55f5bb61b40fa07be"}, {"sequence": 4294967295, "scriptSig": {"hex": "483045022100e68973257c7ccc54fe48ef2e2efed95ccef4ad2bb8245bd1e2c7e6fd944f749c0220594f5f3088aa582f37e10edf6d49f5838e192371808e1ce3ad897894ec8ac386012103a0ecfa882024005e1c7ee0321195238e05e86ad2e63bde74bfe2239ff564bbaf", "asm": "3045022100e68973257c7ccc54fe48ef2e2efed95ccef4ad2bb8245bd1e2c7e6fd944f749c0220594f5f3088aa582f37e10edf6d49f5838e192371808e1ce3ad897894ec8ac386[ALL] 03a0ecfa882024005e1c7ee0321195238e05e86ad2e63bde74bfe2239ff564bbaf"}, "vout": 0, "txid": "b6601f7b9bbaf527c79f7d07e2084bef8e158c9cca821f471db06219e88693d8"}], "txid": "3b96bcd66548c30a161cc56103846c3caa21ce5b760fa246e6093f475042ef1a", "blocktime": 1537876114, "version": 1, "confirmations": 11460, "time": 1537876114, "locktime": 0, "vsize": 519, "size": 519}