{"hash": "30bfbe94f77c6743cc3796a74761968b8cc4b2a4925dfd14053458bc20248645", "blockhash": "0000000000000000001e0dab787dd257d1dbfcb92a98c2207d5e1078be1f4165", "vout": [{"scriptPubKey": {"reqSigs": 1, "hex": "a91442982a8e671447b788ef34216c11679c8c7968d887", "addresses": ["37m8ou9gNwxGG3AYX4MFCV876S6eVEXr6T"], "asm": "OP_HASH160 42982a8e671447b788ef34216c11679c8c7968d8 OP_EQUAL", "type": "scripthash"}, "value": 0.01021119, "n": 0}, {"scriptPubKey": {"reqSigs": 1, "hex": "a91457abce0e21596b25fba7ebf39f130c3d6ec887c287", "addresses": ["39gaXSsmP3Jqw25JQgXFTZEHEsCx7XfuQJ"], "asm": "OP_HASH160 57abce0e21596b25fba7ebf39f130c3d6ec887c2 OP_EQUAL", "type": "scripthash"}, "value": 0.01184888, "n": 1}], "hex": "0200000000010274e5d0f165bb3ab822bcdd59ced4665f3ca04f8f3757c007dd64f1e2ec70cffb000000006b483045022100bb6edb5daa144c5b4db0fcdbaba491775a4f912e174aab2ea80adcb4057da004022013ef41809d748af32a93369a237361895e672e756ea94bec2d2667ef00ceaad5012103631c93ff1d6638b01db247a90b378847cd898ab539d288a8d316d09b5c8ea32dfeffffffd254f36567b8457361c6111e6089119634cf1f4a3cda431f8c0dd4e3e0cb284b0000000017160014e03f1c71127891f3ef10f45b3012d3819f061b62feffffff02bf940f000000000017a91442982a8e671447b788ef34216c11679c8c7968d887781412000000000017a91457abce0e21596b25fba7ebf39f130c3d6ec887c2870002483045022100c19e558afc97589a282e0987b27848d075d8c1e5ec3fb711957a333baa15c35002205e74ef38933f85148846557294632c8ee17c5b2e6498305d37f00eaa9073315601210310337ed5b93ffccd729b6c18dd7149973ae22d83b02af465566fdd1af62a067c12490800", "vin": [{"sequence": 4294967294, "scriptSig": {"hex": "483045022100bb6edb5daa144c5b4db0fcdbaba491775a4f912e174aab2ea80adcb4057da004022013ef41809d748af32a93369a237361895e672e756ea94bec2d2667ef00ceaad5012103631c93ff1d6638b01db247a90b378847cd898ab539d288a8d316d09b5c8ea32d", "asm": "3045022100bb6edb5daa144c5b4db0fcdbaba491775a4f912e174aab2ea80adcb4057da004022013ef41809d748af32a93369a237361895e672e756ea94bec2d2667ef00ceaad5[ALL] 03631c93ff1d6638b01db247a90b378847cd898ab539d288a8d316d09b5c8ea32d"}, "vout": 0, "txid": "fbcf70ece2f164dd07c057378f4fa03c5f66d4ce59ddbc22b83abb65f1d0e574"}, {"txinwitness": ["3045022100c19e558afc97589a282e0987b27848d075d8c1e5ec3fb711957a333baa15c35002205e74ef38933f85148846557294632c8ee17c5b2e6498305d37f00eaa9073315601", "0310337ed5b93ffccd729b6c18dd7149973ae22d83b02af465566fdd1af62a067c"], "sequence": 4294967294, "scriptSig": {"hex": "160014e03f1c71127891f3ef10f45b3012d3819f061b62", "asm": "0014e03f1c71127891f3ef10f45b3012d3819f061b62"}, "vout": 0, "txid": "4b28cbe0e3d40d8c1f43da3c4a1fcf34961189601e11c6617345b86765f354d2"}], "txid": "3b9d5ce7c6999a70d009b011c4ef396c54e2585aa663e7617c17368c0e468a0c", "blocktime": 1537872475, "version": 2, "confirmations": 11487, "time": 1537872475, "locktime": 542994, "vsize": 314, "size": 397}