{"hash": "e63ad48e829612133aeb9e275a9df821bea39b2fe349ce4c6697b79c0b9a81cc", "blockhash": "00000000000000000004ffacab907a6b429b9a5745fa0b75af4234bf69dd7176", "vout": [{"scriptPubKey": {"reqSigs": 1, "hex": "76a9146fcb608ded2979c7b3bfdb8e4a54ebb42b6961aa88ac", "addresses": ["1BC7eBoy5gEZKwpx7kzk83WHH3ocLVYq38"], "asm": "OP_DUP OP_HASH160 6fcb608ded2979c7b3bfdb8e4a54ebb42b6961aa OP_EQUALVERIFY OP_CHECKSIG", "type": "pubkeyhash"}, "value": 0.016583, "n": 0}, {"scriptPubKey": {"reqSigs": 1, "hex": "76a914cebb2851a9c7cfe2582c12ecaf7f3ff4383d1dc088ac", "addresses": ["1Kr6QSydW9bFQG1mXiPNNu6WpJGmUa9i1g"], "asm": "OP_DUP OP_HASH160 cebb2851a9c7cfe2582c12ecaf7f3ff4383d1dc0 OP_EQUALVERIFY OP_CHECKSIG", "type": "pubkeyhash"}, "value": 18.84707986, "n": 1}], "hex": "02000000000103a17c1dbf7a758570a9c591606ab7de3e14176e195d61667c5f0eb7f737e1a21f0000000017160014b9783cdcf112c87611a23215579f0845cf3b1f42ffffffff2ba1ebbcffae0a0938dbee5bd439178360bc2c2ada21e7b6262c84ebd3b7434c030000006a47304402206a7cc4a13d31fbba7f8a888c427f3a7751067261bfe9bcae6f9fe73e1314bdfe022019bc8a6c96bad3de123bcce60fe430376113e2f14ff3aafdddbb1992139f1692012103786af4b32017ec640dba2d2a7e1fd5aa4a231a658e4cbc114d51c031576e19bcffffffffc32f11917ca69a010d8109b435c58a2e7164ca26fe3e9fccaa51818babfca167000000006b4830450221008f881d64a52066d352f4cc1b2bf3bd650268e6d3a23bc000d3f471fa63b5654002202a527d29c119415ceb90ad198362eefefedbdd3c09ad687cfe4ed335fc8bbf5c012102c7f0380b096289fc8d2d97a323548d99b93cd907bc73bc03c4cb89ae70ed7b63ffffffff02bc4d1900000000001976a9146fcb608ded2979c7b3bfdb8e4a54ebb42b6961aa88ac925c5670000000001976a914cebb2851a9c7cfe2582c12ecaf7f3ff4383d1dc088ac0247304402204e6741c4292d33c1984dc8b641e1afedfc0dd2cedbefc86c553d42ff206394ae02206d7cc05f110340930acf2926e6451eb9a1c28da75246a58e7224f071c29770db012103483c9d39e4920f95267b533b5b5eabfc857c7bf2a55d3d5373c7d2fcff180699000000000000", "vin": [{"txinwitness": ["304402204e6741c4292d33c1984dc8b641e1afedfc0dd2cedbefc86c553d42ff206394ae02206d7cc05f110340930acf2926e6451eb9a1c28da75246a58e7224f071c29770db01", "03483c9d39e4920f95267b533b5b5eabfc857c7bf2a55d3d5373c7d2fcff180699"], "sequence": 4294967295, "scriptSig": {"hex": "160014b9783cdcf112c87611a23215579f0845cf3b1f42", "asm": "0014b9783cdcf112c87611a23215579f0845cf3b1f42"}, "vout": 0, "txid": "1fa2e137f7b70e5f7c66615d196e17143edeb76a6091c5a97085757abf1d7ca1"}, {"sequence": 4294967295, "scriptSig": {"hex": "47304402206a7cc4a13d31fbba7f8a888c427f3a7751067261bfe9bcae6f9fe73e1314bdfe022019bc8a6c96bad3de123bcce60fe430376113e2f14ff3aafdddbb1992139f1692012103786af4b32017ec640dba2d2a7e1fd5aa4a231a658e4cbc114d51c031576e19bc", "asm": "304402206a7cc4a13d31fbba7f8a888c427f3a7751067261bfe9bcae6f9fe73e1314bdfe022019bc8a6c96bad3de123bcce60fe430376113e2f14ff3aafdddbb1992139f1692[ALL] 03786af4b32017ec640dba2d2a7e1fd5aa4a231a658e4cbc114d51c031576e19bc"}, "vout": 3, "txid": "4c43b7d3eb842c26b6e721da2a2cbc60831739d45beedb38090aaeffbceba12b"}, {"sequence": 4294967295, "scriptSig": {"hex": "4830450221008f881d64a52066d352f4cc1b2bf3bd650268e6d3a23bc000d3f471fa63b5654002202a527d29c119415ceb90ad198362eefefedbdd3c09ad687cfe4ed335fc8bbf5c012102c7f0380b096289fc8d2d97a323548d99b93cd907bc73bc03c4cb89ae70ed7b63", "asm": "30450221008f881d64a52066d352f4cc1b2bf3bd650268e6d3a23bc000d3f471fa63b5654002202a527d29c119415ceb90ad198362eefefedbdd3c09ad687cfe4ed335fc8bbf5c[ALL] 02c7f0380b096289fc8d2d97a323548d99b93cd907bc73bc03c4cb89ae70ed7b63"}, "vout": 0, "txid": "67a1fcab8b8151aacc9f3efe26ca64712e8ac535b409810d019aa67c91112fc3"}], "txid": "3ba13ca6d4eec70473c4d85163415fd8aea53ac976495912c58c92297c52a9e6", "blocktime": 1537875543, "version": 2, "confirmations": 11464, "time": 1537875543, "locktime": 0, "vsize": 465, "size": 548}