{"hash": "a0f39836c6a14adcd25d7f4b8277627d31286ca520ea142271d0de6ce579f48b", "blockhash": "0000000000000000000e13cef7c366c0283d82e591d1acd082e914b08063cdf1", "vout": [{"scriptPubKey": {"reqSigs": 1, "hex": "76a914a8d14ccf350599411331bfc3c7a17d02dc078df988ac", "addresses": ["1GPdFeeGJHdEZWYKu2yStedN2EGhNbmSXs"], "asm": "OP_DUP OP_HASH160 a8d14ccf350599411331bfc3c7a17d02dc078df9 OP_EQUALVERIFY OP_CHECKSIG", "type": "pubkeyhash"}, "value": 0.00224781, "n": 0}, {"scriptPubKey": {"reqSigs": 1, "hex": "a91405d6e46811bced28d1cbbc54ec7a7f26d633662387", "addresses": ["32DtjUYExjbXnbyKG52eC1WVq95B7N59EE"], "asm": "OP_HASH160 05d6e46811bced28d1cbbc54ec7a7f26d6336623 OP_EQUAL", "type": "scripthash"}, "value": 0.01001671, "n": 1}], "hex": "020000000001027ac63152f99dbcf4b4ebd584c063bc340f453783f4690976c3d45cb4cc9039400000000017160014b408a9797d97c4d6cdb712cc95106e03115c98c8feffffffc97199abe959cfd4f4711061496b748cc679801c0c0102e0903f2813758b21c20000000017160014bac8fca12bec7b0a521589e1c7a65799b8c56678feffffff020d6e0300000000001976a914a8d14ccf350599411331bfc3c7a17d02dc078df988acc7480f000000000017a91405d6e46811bced28d1cbbc54ec7a7f26d6336623870247304402205b6df96382291b68ad838342e4c8f920f9b476f422d2d331932bf2af6d5377850220760b5b578d30094ae79305f26c306d31447cce86681a07107ac013786cb3fe9501210295a4e40aa8274b4fd2892405cd5fd7df1b7803cd217e0b4da953556e39ff08230247304402202fd5199108de034ed24bd1e11007e36c7fedb422daa9383420b3a8fdfeb5544a02203de94d01bad9e0e6c5cdbb6d432a9096795cc862688ca3df640122189ba15af8012102a439f205066f8d87c78ccb4b7efc5f5e25ff3c29549eed2e86e5947edd242c3410490800", "vin": [{"txinwitness": ["304402205b6df96382291b68ad838342e4c8f920f9b476f422d2d331932bf2af6d5377850220760b5b578d30094ae79305f26c306d31447cce86681a07107ac013786cb3fe9501", "0295a4e40aa8274b4fd2892405cd5fd7df1b7803cd217e0b4da953556e39ff0823"], "sequence": 4294967294, "scriptSig": {"hex": "160014b408a9797d97c4d6cdb712cc95106e03115c98c8", "asm": "0014b408a9797d97c4d6cdb712cc95106e03115c98c8"}, "vout": 0, "txid": "403990ccb45cd4c3760969f48337450f34bc63c084d5ebb4f4bc9df95231c67a"}, {"txinwitness": ["304402202fd5199108de034ed24bd1e11007e36c7fedb422daa9383420b3a8fdfeb5544a02203de94d01bad9e0e6c5cdbb6d432a9096795cc862688ca3df640122189ba15af801", "02a439f205066f8d87c78ccb4b7efc5f5e25ff3c29549eed2e86e5947edd242c34"], "sequence": 4294967294, "scriptSig": {"hex": "160014bac8fca12bec7b0a521589e1c7a65799b8c56678", "asm": "0014bac8fca12bec7b0a521589e1c7a65799b8c56678"}, "vout": 0, "txid": "c2218b7513283f90e002010c1c8079c68c746b49611071f4d4cf59e9ab9971c9"}], "txid": "3ba8dccd683e247811df9089108cbda4ba20d095b824bf86739773af90e18709", "blocktime": 1537871767, "version": 2, "confirmations": 11495, "time": 1537871767, "locktime": 542992, "vsize": 258, "size": 420}