{"hash": "3babfa2399d4dbb1d768b60434775bc333350d8eee661f8cae23876c2c66379f", "blockhash": "0000000000000000001cda96e906b7601b7a6fb1a3b62bca570a9e5d8f4b3de1", "vout": [{"scriptPubKey": {"reqSigs": 1, "hex": "76a9149690e88e5ae0409ff86495d49f90a5916d82e3f788ac", "addresses": ["1Ej7xBvG5C8wWBgazJ733JXedWgBUixnhe"], "asm": "OP_DUP OP_HASH160 9690e88e5ae0409ff86495d49f90a5916d82e3f7 OP_EQUALVERIFY OP_CHECKSIG", "type": "pubkeyhash"}, "value": 0.5405112, "n": 0}, {"scriptPubKey": {"reqSigs": 1, "hex": "a91448952c17f4434a00ba641b93e7bffd3b765f6e6987", "addresses": ["38JoH2Njj6qvDb7gVvBKwLVNHGUSoPwFhC"], "asm": "OP_HASH160 48952c17f4434a00ba641b93e7bffd3b765f6e69 OP_EQUAL", "type": "scripthash"}, "value": 0.55936, "n": 1}], "hex": "010000000245444bbf04bb803cb27d91659ae2a8687a2b5907a3a445fc6e43ee8f3492ed1f010000006b483045022100c9b18ab48977816007d984e4aaa5e036d34236b9fc9f3de3d3e0661520698abf02200ba38015b8e9c774988ab210fb9252c28e31883d39bd367ac71f9fdbcb77425a012102cb65961dcf1888b8cc1d30dc9b3feda28d01e4ebf8cbaea517b597575eba23f9fdffffff9645e8693953d05f5de9181ce84778f8b1201f8d324959edfbbe446d420417e9000000006b483045022100cd813b14cbeb42406ce3348e2ce4b2a280c1832c7a3e4f0fcafa6f903afde0a402202ff8a39f793e2022aa80b307408ab30bbbb48d9b2b856bf04f15921a01880d1b012102cb65961dcf1888b8cc1d30dc9b3feda28d01e4ebf8cbaea517b597575eba23f9fdffffff0230c13803000000001976a9149690e88e5ae0409ff86495d49f90a5916d82e3f788ac008455030000000017a91448952c17f4434a00ba641b93e7bffd3b765f6e698713490800", "vin": [{"sequence": 4294967293, "scriptSig": {"hex": "483045022100c9b18ab48977816007d984e4aaa5e036d34236b9fc9f3de3d3e0661520698abf02200ba38015b8e9c774988ab210fb9252c28e31883d39bd367ac71f9fdbcb77425a012102cb65961dcf1888b8cc1d30dc9b3feda28d01e4ebf8cbaea517b597575eba23f9", "asm": "3045022100c9b18ab48977816007d984e4aaa5e036d34236b9fc9f3de3d3e0661520698abf02200ba38015b8e9c774988ab210fb9252c28e31883d39bd367ac71f9fdbcb77425a[ALL] 02cb65961dcf1888b8cc1d30dc9b3feda28d01e4ebf8cbaea517b597575eba23f9"}, "vout": 1, "txid": "1fed92348fee436efc45a4a307592b7a68a8e29a65917db23c80bb04bf4b4445"}, {"sequence": 4294967293, "scriptSig": {"hex": "483045022100cd813b14cbeb42406ce3348e2ce4b2a280c1832c7a3e4f0fcafa6f903afde0a402202ff8a39f793e2022aa80b307408ab30bbbb48d9b2b856bf04f15921a01880d1b012102cb65961dcf1888b8cc1d30dc9b3feda28d01e4ebf8cbaea517b597575eba23f9", "asm": "3045022100cd813b14cbeb42406ce3348e2ce4b2a280c1832c7a3e4f0fcafa6f903afde0a402202ff8a39f793e2022aa80b307408ab30bbbb48d9b2b856bf04f15921a01880d1b[ALL] 02cb65961dcf1888b8cc1d30dc9b3feda28d01e4ebf8cbaea517b597575eba23f9"}, "vout": 0, "txid": "e91704426d44befbed5949328d1f20b1f87847e81c18e95d5fd0533969e84596"}], "txid": "3babfa2399d4dbb1d768b60434775bc333350d8eee661f8cae23876c2c66379f", "blocktime": 1537873282, "version": 1, "confirmations": 11480, "time": 1537873282, "locktime": 542995, "vsize": 372, "size": 372}