{"hash": "3babedcfb5229b11cbbd66d5fa4e06677ae5d0a316d60d21077beb0c4c5c8a96", "blockhash": "00000000000000000017f5eb5941039fbcee6240d03bc1f2f8e35350df66a1d8", "vout": [{"scriptPubKey": {"reqSigs": 1, "hex": "76a914a68b5b482e76580e17798091caf7bd4e6c274f3188ac", "addresses": ["1GBc7WUDuw2eUKLNGfV8JdhbU7A5mQNx9w"], "asm": "OP_DUP OP_HASH160 a68b5b482e76580e17798091caf7bd4e6c274f31 OP_EQUALVERIFY OP_CHECKSIG", "type": "pubkeyhash"}, "value": 0.259699, "n": 0}, {"scriptPubKey": {"reqSigs": 1, "hex": "76a9141f11bc33e1a11bfb17a1960b654af3f7adbdb29788ac", "addresses": ["13qHCD3nZmZRPPL3p3RAQR9pYjbkQYdzvD"], "asm": "OP_DUP OP_HASH160 1f11bc33e1a11bfb17a1960b654af3f7adbdb297 OP_EQUALVERIFY OP_CHECKSIG", "type": "pubkeyhash"}, "value": 0.01705695, "n": 1}], "hex": "02000000031ada2c6a914e48b0b333517ac64189c776c923c97ed33913f4c0db397103e005000000006a4730440220138ff05f5978fc374bb7402ef82d5bb658648b9039a87461f527cf7dd1a1508c02201dba04f2c89cd293bd7fc2292f16771a5c6f44cae29dc4fefeaf6f0a5815dfaa01210260db2d4b407e8b51d8c4b5c3f7ea0387d4459c1c8d89e546e41478bacd6f6287feffffff25247867a49b0eda879dca1a9308094e5c8358f491e116fa4520b6ae33a29673000000006b483045022100f6a57da76e6f15ba97442d7309924f4628ad0d05d84f0632db4702bc227350f402203b089f2b3b4a8706628ebcb172feda719b2162c1c785f0b764c1957764dfea8801210260db2d4b407e8b51d8c4b5c3f7ea0387d4459c1c8d89e546e41478bacd6f6287feffffff287870ce6931e2b995501a0af2ab5ba88649a3e589455cca73539ab8b6940a38010000006b4830450221008cf61f2f2d6d64f72236af9e8487052ee23e2cb086d4a3d85d95d58a1c0f783402206b0c793ddb17c34b656ce03c1744323d1616cde85ac88409a309c56f0188d47801210378175c04b0663c980683962017421c9a6ae04637f04a20b6c4d9858cc15dc6e2feffffff02ec448c01000000001976a914a68b5b482e76580e17798091caf7bd4e6c274f3188acdf061a00000000001976a9141f11bc33e1a11bfb17a1960b654af3f7adbdb29788ac15490800", "vin": [{"sequence": 4294967294, "scriptSig": {"hex": "4730440220138ff05f5978fc374bb7402ef82d5bb658648b9039a87461f527cf7dd1a1508c02201dba04f2c89cd293bd7fc2292f16771a5c6f44cae29dc4fefeaf6f0a5815dfaa01210260db2d4b407e8b51d8c4b5c3f7ea0387d4459c1c8d89e546e41478bacd6f6287", "asm": "30440220138ff05f5978fc374bb7402ef82d5bb658648b9039a87461f527cf7dd1a1508c02201dba04f2c89cd293bd7fc2292f16771a5c6f44cae29dc4fefeaf6f0a5815dfaa[ALL] 0260db2d4b407e8b51d8c4b5c3f7ea0387d4459c1c8d89e546e41478bacd6f6287"}, "vout": 0, "txid": "05e0037139dbc0f41339d37ec923c976c78941c67a5133b3b0484e916a2cda1a"}, {"sequence": 4294967294, "scriptSig": {"hex": "483045022100f6a57da76e6f15ba97442d7309924f4628ad0d05d84f0632db4702bc227350f402203b089f2b3b4a8706628ebcb172feda719b2162c1c785f0b764c1957764dfea8801210260db2d4b407e8b51d8c4b5c3f7ea0387d4459c1c8d89e546e41478bacd6f6287", "asm": "3045022100f6a57da76e6f15ba97442d7309924f4628ad0d05d84f0632db4702bc227350f402203b089f2b3b4a8706628ebcb172feda719b2162c1c785f0b764c1957764dfea88[ALL] 0260db2d4b407e8b51d8c4b5c3f7ea0387d4459c1c8d89e546e41478bacd6f6287"}, "vout": 0, "txid": "7396a233aeb62045fa16e191f458835c4e0908931aca9d87da0e9ba467782425"}, {"sequence": 4294967294, "scriptSig": {"hex": "4830450221008cf61f2f2d6d64f72236af9e8487052ee23e2cb086d4a3d85d95d58a1c0f783402206b0c793ddb17c34b656ce03c1744323d1616cde85ac88409a309c56f0188d47801210378175c04b0663c980683962017421c9a6ae04637f04a20b6c4d9858cc15dc6e2", "asm": "30450221008cf61f2f2d6d64f72236af9e8487052ee23e2cb086d4a3d85d95d58a1c0f783402206b0c793ddb17c34b656ce03c1744323d1616cde85ac88409a309c56f0188d478[ALL] 0378175c04b0663c980683962017421c9a6ae04637f04a20b6c4d9858cc15dc6e2"}, "vout": 1, "txid": "380a94b6b89a5373ca5c4589e5a34986a85babf20a1a5095b9e23169ce707828"}], "txid": "3babedcfb5229b11cbbd66d5fa4e06677ae5d0a316d60d21077beb0c4c5c8a96", "blocktime": 1537874412, "version": 2, "confirmations": 11468, "time": 1537874412, "locktime": 542997, "vsize": 521, "size": 521}