{"hash": "3bb4cc53e3f5c1263df270045c3167044d5f998fe4899bc90ae333c428d5c307", "blockhash": "00000000000000000004ffacab907a6b429b9a5745fa0b75af4234bf69dd7176", "vout": [{"scriptPubKey": {"reqSigs": 1, "hex": "76a9141508276fd4193e83f5fce7a810a40e8f983c161988ac", "addresses": ["12vCxak5xc1t6T275xbm6AJ4xsZCxkTSc5"], "asm": "OP_DUP OP_HASH160 1508276fd4193e83f5fce7a810a40e8f983c1619 OP_EQUALVERIFY OP_CHECKSIG", "type": "pubkeyhash"}, "value": 49.78719488, "n": 0}, {"scriptPubKey": {"type": "nulldata", "hex": "6a146f6d6e69000000000000001f0000000df8475800", "asm": "OP_RETURN 6f6d6e69000000000000001f0000000df8475800"}, "value": 0.0, "n": 1}, {"scriptPubKey": {"reqSigs": 1, "hex": "76a9143b1d142c7d0029de3c76643a57caf9e70d3d8ca488ac", "addresses": ["16PZhkReWPv4A4rrKEdbQc7bXQaie5RRr7"], "asm": "OP_DUP OP_HASH160 3b1d142c7d0029de3c76643a57caf9e70d3d8ca4 OP_EQUALVERIFY OP_CHECKSIG", "type": "pubkeyhash"}, "value": 5.46e-06, "n": 2}], "hex": "01000000017d3414dcf6c734a61544762d3cf627aff7d778e0c0ef5a6c2d7d5558e8553790000000006b483045022100b15ea8bc4851c82644ff95262b9a48548e010db0209b4d22ef07b1b31caad99c0220733c1f48e2be576cadcaa5e4c9f98e6a8dfb380b02534d968ee61f98f4a5704a0121035bb5ec1330953265719fecb2345ebd0cd02272efa8a3a940a8a28021b37703eeffffffff03003bc128010000001976a9141508276fd4193e83f5fce7a810a40e8f983c161988ac0000000000000000166a146f6d6e69000000000000001f0000000df847580022020000000000001976a9143b1d142c7d0029de3c76643a57caf9e70d3d8ca488ac00000000", "vin": [{"sequence": 4294967295, "scriptSig": {"hex": "483045022100b15ea8bc4851c82644ff95262b9a48548e010db0209b4d22ef07b1b31caad99c0220733c1f48e2be576cadcaa5e4c9f98e6a8dfb380b02534d968ee61f98f4a5704a0121035bb5ec1330953265719fecb2345ebd0cd02272efa8a3a940a8a28021b37703ee", "asm": "3045022100b15ea8bc4851c82644ff95262b9a48548e010db0209b4d22ef07b1b31caad99c0220733c1f48e2be576cadcaa5e4c9f98e6a8dfb380b02534d968ee61f98f4a5704a[ALL] 035bb5ec1330953265719fecb2345ebd0cd02272efa8a3a940a8a28021b37703ee"}, "vout": 0, "txid": "903755e858557d2d6c5aefc0e078d7f7af27f63c2d764415a634c7f6dc14347d"}], "txid": "3bb4cc53e3f5c1263df270045c3167044d5f998fe4899bc90ae333c428d5c307", "blocktime": 1537875543, "version": 1, "confirmations": 11464, "time": 1537875543, "locktime": 0, "vsize": 257, "size": 257}