{"hash": "3bb57a315b9f8e2369ba499447e1f1fafcc91c03156398cd7be7ea1d098a180f", "blockhash": "000000000000000000022b45ed06c6f4ccd3cf7fb5ba4856ebd2e58215665228", "vout": [{"scriptPubKey": {"reqSigs": 1, "hex": "a914627c2b9b6176c0b838fa7d3ab744031ef63f9f7387", "addresses": ["3AfktrEG1sZnJPU9Qd2ANQWooT9TiLZNiH"], "asm": "OP_HASH160 627c2b9b6176c0b838fa7d3ab744031ef63f9f73 OP_EQUAL", "type": "scripthash"}, "value": 0.01824439, "n": 0}, {"scriptPubKey": {"reqSigs": 1, "hex": "76a914cabffcfd6efea05b0221f749f750e344b3d512ca88ac", "addresses": ["1KV3VKwtzh2xqJiou5zWkJGzMzfXanet2z"], "asm": "OP_DUP OP_HASH160 cabffcfd6efea05b0221f749f750e344b3d512ca OP_EQUALVERIFY OP_CHECKSIG", "type": "pubkeyhash"}, "value": 0.18465616, "n": 1}], "hex": "0100000001a967445e310858814b25d27f57e2fa44780e29357e12d76b565614b1fedc7a85020000006b4830450221008525790bff7a89d34718ffaca47ce8a3fe6660b7f016443e87c8d88ce0fc780a022023828222bbff9597d4b9ab18f7647efd637fe66c6c15773d03d2458d42645780012102160dbc4da887a29b9867a4bf3ae831808ea3b9cbd66f9a81cef31b88da20b1c2ffffffff02b7d61b000000000017a914627c2b9b6176c0b838fa7d3ab744031ef63f9f738750c31901000000001976a914cabffcfd6efea05b0221f749f750e344b3d512ca88ac00000000", "vin": [{"sequence": 4294967295, "scriptSig": {"hex": "4830450221008525790bff7a89d34718ffaca47ce8a3fe6660b7f016443e87c8d88ce0fc780a022023828222bbff9597d4b9ab18f7647efd637fe66c6c15773d03d2458d42645780012102160dbc4da887a29b9867a4bf3ae831808ea3b9cbd66f9a81cef31b88da20b1c2", "asm": "30450221008525790bff7a89d34718ffaca47ce8a3fe6660b7f016443e87c8d88ce0fc780a022023828222bbff9597d4b9ab18f7647efd637fe66c6c15773d03d2458d42645780[ALL] 02160dbc4da887a29b9867a4bf3ae831808ea3b9cbd66f9a81cef31b88da20b1c2"}, "vout": 2, "txid": "857adcfeb11456566bd7127e35290e7844fae2577fd2254b815808315e4467a9"}], "txid": "3bb57a315b9f8e2369ba499447e1f1fafcc91c03156398cd7be7ea1d098a180f", "blocktime": 1537869901, "version": 1, "confirmations": 11522, "time": 1537869901, "locktime": 0, "vsize": 224, "size": 224}