{"hash": "3bbb79f663d649f5617b77571568f72aeb0c0d53e33c58aa38b85139e07a955d", "blockhash": "0000000000000000001f0ddff1eddb255c1121bcd4da4f1bc9a0da00cae72433", "vout": [{"scriptPubKey": {"reqSigs": 1, "hex": "a9143480592f8550d5d4a153122129dbed45ffc206d287", "addresses": ["36UcpKZTwKV9mS1cTw3bTwigaJCBjA5Dm9"], "asm": "OP_HASH160 3480592f8550d5d4a153122129dbed45ffc206d2 OP_EQUAL", "type": "scripthash"}, "value": 0.010074, "n": 0}, {"scriptPubKey": {"reqSigs": 1, "hex": "76a914e5d2007093fd984f124ed3a90a76ed66fe5e5ebd88ac", "addresses": ["1MxBK73w2PEa8m2riHAAh2WNKAX71UzpmC"], "asm": "OP_DUP OP_HASH160 e5d2007093fd984f124ed3a90a76ed66fe5e5ebd OP_EQUALVERIFY OP_CHECKSIG", "type": "pubkeyhash"}, "value": 0.83358528, "n": 1}], "hex": "01000000012d5a2ac016c21392263c657fbac9837d11a15c80f7ef1bad95599c0d5e13a332000000006b4830450221008f69e6deb2e1238abdf2d4bd09385ddb4c1ffc33b72f74ba77cde7f402def77f02206ee6679bb9b76ed2ffa8081d61db8746429ab70a89aef6485917126d7fc6adf701210238c27f84469cd5a91697ec6406d0e56319af8b6cd82f03379570ed398287cbe8ffffffff02285f0f000000000017a9143480592f8550d5d4a153122129dbed45ffc206d28740f3f704000000001976a914e5d2007093fd984f124ed3a90a76ed66fe5e5ebd88ac00000000", "vin": [{"sequence": 4294967295, "scriptSig": {"hex": "4830450221008f69e6deb2e1238abdf2d4bd09385ddb4c1ffc33b72f74ba77cde7f402def77f02206ee6679bb9b76ed2ffa8081d61db8746429ab70a89aef6485917126d7fc6adf701210238c27f84469cd5a91697ec6406d0e56319af8b6cd82f03379570ed398287cbe8", "asm": "30450221008f69e6deb2e1238abdf2d4bd09385ddb4c1ffc33b72f74ba77cde7f402def77f02206ee6679bb9b76ed2ffa8081d61db8746429ab70a89aef6485917126d7fc6adf7[ALL] 0238c27f84469cd5a91697ec6406d0e56319af8b6cd82f03379570ed398287cbe8"}, "vout": 0, "txid": "32a3135e0d9c5995ad1beff7805ca1117d83c9ba7f653c269213c216c02a5a2d"}], "txid": "3bbb79f663d649f5617b77571568f72aeb0c0d53e33c58aa38b85139e07a955d", "blocktime": 1537872018, "version": 1, "confirmations": 11489, "time": 1537872018, "locktime": 0, "vsize": 224, "size": 224}