{"hash": "3bbb62ef1629ec93975ea99ce0f38c8975609206700ccb0627cf07643c80635e", "blockhash": "00000000000000000017f5eb5941039fbcee6240d03bc1f2f8e35350df66a1d8", "vout": [{"scriptPubKey": {"reqSigs": 1, "hex": "a9142136afe058fca38dbd7509d7ecbcc0190e94fc3887", "addresses": ["34idjbSsVRiW3efFLd6nJjMsfqDw6ucXfG"], "asm": "OP_HASH160 2136afe058fca38dbd7509d7ecbcc0190e94fc38 OP_EQUAL", "type": "scripthash"}, "value": 0.0027913, "n": 0}, {"scriptPubKey": {"reqSigs": 1, "hex": "76a91452ae61f811a41ce8076d3fc61e2ba7bbc5fa059488ac", "addresses": ["18YBK41ddx3AaUc1Vt4CnJnDz6BWVADd5s"], "asm": "OP_DUP OP_HASH160 52ae61f811a41ce8076d3fc61e2ba7bbc5fa0594 OP_EQUALVERIFY OP_CHECKSIG", "type": "pubkeyhash"}, "value": 0.00010554, "n": 1}], "hex": "010000000426c72be9f08d8b48c577b1faae312d73a250345a42eb352f5a0644dc67cd8138000000006b483045022100de0c4e1e1c0f96af939081420313ea44773880e9e2e13af31de3c428da5659260220256a861a9c61449583d711b847e0ba259fc5694556491efeddccabf629b370f8012103728cad02a9c7ccdf9525ea703dfd7b49fe66ff8f30585bdeb99fec804dad4535ffffffff8f49d3ccb311adc1e4b34c8bdeb9c74bb8c2436335fae800e9f799908a73fd5e010000006b4830450221008f2d7ca521dd07ebdc68d831cb17b9c6b5d31f116a017ab69f4cfd43597288440220018ea55de741e55e4c60d2f278b8e08f16c8a8fe0996bccc123105f3eaaf2594012102d311e0e464ee7442bd3e5f12264c3ecd39c667c5903827392ff636521a5c66dbffffffffc69ab0fea0639df3ddfb990cf45804e154ba5207c5b2505d6e27dd08106d6519010000006b483045022100b8b682f925695347d6cb5d8b70050187f8e91e3cfb9f9fc75dced100f17f8197022051ae6fd0a7e7a30340acacaf4711af0236023dd24fc1b882eb84268db17181cb0121036a72a16c4bb9be0b5942689b17c26539edd457b47c8a858a54322ae2834c0cf3ffffffffba86e1c90db810146274d54c911fac84dfb3ea25afd809fe17c03e9320eefc28010000006a47304402205cf795a7c95a6ec0a12e86cb6d0bdc84046dcb36dac8d62bbd3d94fe04fa4826022076bd4ff4da770c7ae14a74c0780aa3d65ed39fe9bca2504bb43263501bce6cb001210392ba62c6213020edb76da52cf8e3ba2eb190582271589e7e94878b6a68bee184ffffffff025a4204000000000017a9142136afe058fca38dbd7509d7ecbcc0190e94fc38873a290000000000001976a91452ae61f811a41ce8076d3fc61e2ba7bbc5fa059488ac00000000", "vin": [{"sequence": 4294967295, "scriptSig": {"hex": "483045022100de0c4e1e1c0f96af939081420313ea44773880e9e2e13af31de3c428da5659260220256a861a9c61449583d711b847e0ba259fc5694556491efeddccabf629b370f8012103728cad02a9c7ccdf9525ea703dfd7b49fe66ff8f30585bdeb99fec804dad4535", "asm": "3045022100de0c4e1e1c0f96af939081420313ea44773880e9e2e13af31de3c428da5659260220256a861a9c61449583d711b847e0ba259fc5694556491efeddccabf629b370f8[ALL] 03728cad02a9c7ccdf9525ea703dfd7b49fe66ff8f30585bdeb99fec804dad4535"}, "vout": 0, "txid": "3881cd67dc44065a2f35eb425a3450a2732d31aefab177c5488b8df0e92bc726"}, {"sequence": 4294967295, "scriptSig": {"hex": "4830450221008f2d7ca521dd07ebdc68d831cb17b9c6b5d31f116a017ab69f4cfd43597288440220018ea55de741e55e4c60d2f278b8e08f16c8a8fe0996bccc123105f3eaaf2594012102d311e0e464ee7442bd3e5f12264c3ecd39c667c5903827392ff636521a5c66db", "asm": "30450221008f2d7ca521dd07ebdc68d831cb17b9c6b5d31f116a017ab69f4cfd43597288440220018ea55de741e55e4c60d2f278b8e08f16c8a8fe0996bccc123105f3eaaf2594[ALL] 02d311e0e464ee7442bd3e5f12264c3ecd39c667c5903827392ff636521a5c66db"}, "vout": 1, "txid": "5efd738a9099f7e900e8fa356343c2b84bc7b9de8b4cb3e4c1ad11b3ccd3498f"}, {"sequence": 4294967295, "scriptSig": {"hex": "483045022100b8b682f925695347d6cb5d8b70050187f8e91e3cfb9f9fc75dced100f17f8197022051ae6fd0a7e7a30340acacaf4711af0236023dd24fc1b882eb84268db17181cb0121036a72a16c4bb9be0b5942689b17c26539edd457b47c8a858a54322ae2834c0cf3", "asm": "3045022100b8b682f925695347d6cb5d8b70050187f8e91e3cfb9f9fc75dced100f17f8197022051ae6fd0a7e7a30340acacaf4711af0236023dd24fc1b882eb84268db17181cb[ALL] 036a72a16c4bb9be0b5942689b17c26539edd457b47c8a858a54322ae2834c0cf3"}, "vout": 1, "txid": "19656d1008dd276e5d50b2c50752ba54e10458f40c99fbddf39d63a0feb09ac6"}, {"sequence": 4294967295, "scriptSig": {"hex": "47304402205cf795a7c95a6ec0a12e86cb6d0bdc84046dcb36dac8d62bbd3d94fe04fa4826022076bd4ff4da770c7ae14a74c0780aa3d65ed39fe9bca2504bb43263501bce6cb001210392ba62c6213020edb76da52cf8e3ba2eb190582271589e7e94878b6a68bee184", "asm": "304402205cf795a7c95a6ec0a12e86cb6d0bdc84046dcb36dac8d62bbd3d94fe04fa4826022076bd4ff4da770c7ae14a74c0780aa3d65ed39fe9bca2504bb43263501bce6cb0[ALL] 0392ba62c6213020edb76da52cf8e3ba2eb190582271589e7e94878b6a68bee184"}, "vout": 1, "txid": "28fcee20933ec017fe09d8af25eab3df84ac1f914cd574621410b80dc9e186ba"}], "txid": "3bbb62ef1629ec93975ea99ce0f38c8975609206700ccb0627cf07643c80635e", "blocktime": 1537874412, "version": 1, "confirmations": 11467, "time": 1537874412, "locktime": 0, "vsize": 667, "size": 667}