{"hash": "5f10a5b32f3afe34a2b228f5707a2daa5f0842a63882d5f97bc4206ca2c41418", "blockhash": "0000000000000000000dcc0f55137456b1a82d3642486a52398922ac4d620174", "vout": [{"scriptPubKey": {"reqSigs": 1, "hex": "a914a95e273a6ab4efc0a0989140b75f809a3120648887", "addresses": ["3H8YuqwM1VrnLq54ZmgfpRDB9iL8DavV4Q"], "asm": "OP_HASH160 a95e273a6ab4efc0a0989140b75f809a31206488 OP_EQUAL", "type": "scripthash"}, "value": 0.00063424, "n": 0}, {"scriptPubKey": {"reqSigs": 1, "hex": "a914414cec0fc72a9410f6836edaf08de1aa3b2a321c87", "addresses": ["37eHzewnAFRR2SVZu8rZM3nBsmuE2XBU7D"], "asm": "OP_HASH160 414cec0fc72a9410f6836edaf08de1aa3b2a321c OP_EQUAL", "type": "scripthash"}, "value": 0.31082793, "n": 1}], "hex": "010000000001017e1407d1affe1f121d0fce5f07636f5f91dae47b40ffb57c14f92186f09985010100000023220020ce74cde37cfb8dd71d0179287e12fc721ee236ce3c89c2745bcd365b39807eb3ffffffff02c0f700000000000017a914a95e273a6ab4efc0a0989140b75f809a31206488872949da010000000017a914414cec0fc72a9410f6836edaf08de1aa3b2a321c870400473044022021dd31521090a992a64d7cf6f18454411194a3b45b574e0163a18c8ecf628407022053f383474b1db77a632e1d17a133391109c2c90eb45e164d55d8abbb58d1fdb601483045022100b7a717c6c6a7392b6e0753a313f241937c447f82cc6433dbcf1462566c665c7a02206efc9e523cef6a2376282faadd7ca0ed9a1550893ce9d8a495e7027d2023b8b90147522103ada901d90d5a76319a60f228e0b1bbc84b1d9a87238550bae5d5d190067b66712103871fc2ca08e6950b38867e8e6a0e94ee625223d3aa0df5c65f414c6d784467e252ae00000000", "vin": [{"txinwitness": ["", "3044022021dd31521090a992a64d7cf6f18454411194a3b45b574e0163a18c8ecf628407022053f383474b1db77a632e1d17a133391109c2c90eb45e164d55d8abbb58d1fdb601", "3045022100b7a717c6c6a7392b6e0753a313f241937c447f82cc6433dbcf1462566c665c7a02206efc9e523cef6a2376282faadd7ca0ed9a1550893ce9d8a495e7027d2023b8b901", "522103ada901d90d5a76319a60f228e0b1bbc84b1d9a87238550bae5d5d190067b66712103871fc2ca08e6950b38867e8e6a0e94ee625223d3aa0df5c65f414c6d784467e252ae"], "sequence": 4294967295, "scriptSig": {"hex": "220020ce74cde37cfb8dd71d0179287e12fc721ee236ce3c89c2745bcd365b39807eb3", "asm": "0020ce74cde37cfb8dd71d0179287e12fc721ee236ce3c89c2745bcd365b39807eb3"}, "vout": 1, "txid": "018599f08621f9147cb5ff407be4da915f6f63075fce0f1d121ffeafd107147e"}], "txid": "3bbb701e7214294dfa257b5564ea32c8ed9dceee04f3294716dc759d3c5c9c00", "blocktime": 1537870268, "version": 1, "confirmations": 11518, "time": 1537870268, "locktime": 0, "vsize": 206, "size": 371}