{"hash": "3bbd2bebb6f30ef63fe3503ddce0b15d5817d7b7ee99c23b6ea64cf08ac5768b", "blockhash": "0000000000000000001cda96e906b7601b7a6fb1a3b62bca570a9e5d8f4b3de1", "vout": [{"scriptPubKey": {"reqSigs": 1, "hex": "a914d30b093a1968cca9e5d2ce9d1a99e53a68ddf1af87", "addresses": ["3LvuipNtLRWPfLaGtX4YDoNVkRnHUuJTiC"], "asm": "OP_HASH160 d30b093a1968cca9e5d2ce9d1a99e53a68ddf1af OP_EQUAL", "type": "scripthash"}, "value": 0.0031, "n": 0}, {"scriptPubKey": {"reqSigs": 1, "hex": "76a914a87093dfea8dcfad4aae181b5ab7d7e495d7084788ac", "addresses": ["1GMdPG1SHykF7hGb4qwKXL5h5zHYzDaX99"], "asm": "OP_DUP OP_HASH160 a87093dfea8dcfad4aae181b5ab7d7e495d70847 OP_EQUALVERIFY OP_CHECKSIG", "type": "pubkeyhash"}, "value": 0.02013912, "n": 1}], "hex": "0100000001c641111781761cf7c5c1e400cc0494626ab22c2968db42d85fff391da2aa3ea4010000006a4730440220418d05517d2c436530ce1d5bd27b6878d19beb69eaed94d2cbaa8ab1ffd0283b022061d9ed1f8c9c9968e827da80914fca5b67582ea2afa6ea7295f3e1aa16b549570121029cd333fb1cc86c57cd2650029c2fa9cc7055b37d3dcd5f4a09ccb54b312cb13dffffffff02f0ba04000000000017a914d30b093a1968cca9e5d2ce9d1a99e53a68ddf1af87d8ba1e00000000001976a914a87093dfea8dcfad4aae181b5ab7d7e495d7084788ac00000000", "vin": [{"sequence": 4294967295, "scriptSig": {"hex": "4730440220418d05517d2c436530ce1d5bd27b6878d19beb69eaed94d2cbaa8ab1ffd0283b022061d9ed1f8c9c9968e827da80914fca5b67582ea2afa6ea7295f3e1aa16b549570121029cd333fb1cc86c57cd2650029c2fa9cc7055b37d3dcd5f4a09ccb54b312cb13d", "asm": "30440220418d05517d2c436530ce1d5bd27b6878d19beb69eaed94d2cbaa8ab1ffd0283b022061d9ed1f8c9c9968e827da80914fca5b67582ea2afa6ea7295f3e1aa16b54957[ALL] 029cd333fb1cc86c57cd2650029c2fa9cc7055b37d3dcd5f4a09ccb54b312cb13d"}, "vout": 1, "txid": "a43eaaa21d39ff5fd842db68292cb26a629404cc00e4c1c5f71c7681171141c6"}], "txid": "3bbd2bebb6f30ef63fe3503ddce0b15d5817d7b7ee99c23b6ea64cf08ac5768b", "blocktime": 1537873282, "version": 1, "confirmations": 11484, "time": 1537873282, "locktime": 0, "vsize": 223, "size": 223}