{"hash": "3bbe44ff6dbd46dc6505ceaad15626b6af1345cf4b4492704a0058ff9d89e866", "blockhash": "00000000000000000018f53835495a110e01622372bf6ae95dc86f2b0ab887b0", "vout": [{"scriptPubKey": {"reqSigs": 1, "hex": "76a9144e03962cd5fa5140dd4d89ecac6b5371bba75b3688ac", "addresses": ["187W1Ac87anXCMpEjibZYGmz5VUrCFbCuS"], "asm": "OP_DUP OP_HASH160 4e03962cd5fa5140dd4d89ecac6b5371bba75b36 OP_EQUALVERIFY OP_CHECKSIG", "type": "pubkeyhash"}, "value": 0.00151339, "n": 0}, {"scriptPubKey": {"reqSigs": 1, "hex": "76a9149e0da28e5a113f910d65b6ce85d79114da35776a88ac", "addresses": ["1FQi6ghp9m5hX1zbYVhZaVW4HkCNEPxL36"], "asm": "OP_DUP OP_HASH160 9e0da28e5a113f910d65b6ce85d79114da35776a OP_EQUALVERIFY OP_CHECKSIG", "type": "pubkeyhash"}, "value": 0.01546984, "n": 1}], "hex": "01000000019095babab9e6332ca7dd1a6063baf98995ea6d39f4b5e480afdab04e7434d2ae020000006b483045022100a95dd2f59f4cc80bdbf6faa6966292bf4d496d847677e0ac3792af358ebf5b63022029463c0df6326b7037df7c5403e4606d3073306a5b47b365c3c9cac4334109c9012102d83192e9ffd444a5c726abb87d5933a1c134ce4223bf1a517dada7b197acd73cffffffff022b4f0200000000001976a9144e03962cd5fa5140dd4d89ecac6b5371bba75b3688ace89a1700000000001976a9149e0da28e5a113f910d65b6ce85d79114da35776a88ac00000000", "vin": [{"sequence": 4294967295, "scriptSig": {"hex": "483045022100a95dd2f59f4cc80bdbf6faa6966292bf4d496d847677e0ac3792af358ebf5b63022029463c0df6326b7037df7c5403e4606d3073306a5b47b365c3c9cac4334109c9012102d83192e9ffd444a5c726abb87d5933a1c134ce4223bf1a517dada7b197acd73c", "asm": "3045022100a95dd2f59f4cc80bdbf6faa6966292bf4d496d847677e0ac3792af358ebf5b63022029463c0df6326b7037df7c5403e4606d3073306a5b47b365c3c9cac4334109c9[ALL] 02d83192e9ffd444a5c726abb87d5933a1c134ce4223bf1a517dada7b197acd73c"}, "vout": 2, "txid": "aed234744eb0daaf80e4b5f4396dea9589f9ba63601adda72c33e6b9baba9590"}], "txid": "3bbe44ff6dbd46dc6505ceaad15626b6af1345cf4b4492704a0058ff9d89e866", "blocktime": 1537870928, "version": 1, "confirmations": 11512, "time": 1537870928, "locktime": 0, "vsize": 226, "size": 226}