{"hash": "70268d495635c70a37fde44e314e4c3dac8b838ddfcf50105fab378486788e81", "blockhash": "00000000000000000018f53835495a110e01622372bf6ae95dc86f2b0ab887b0", "vout": [{"scriptPubKey": {"reqSigs": 1, "hex": "0014176dd3dfb4377ecbd242e8a736249f8f152308f2", "addresses": ["bc1qzaka8ha5xalvh5jzaznnvfyl3u2jxz8ja8gvsl"], "asm": "0 176dd3dfb4377ecbd242e8a736249f8f152308f2", "type": "witness_v0_keyhash"}, "value": 8.05517336, "n": 0}, {"scriptPubKey": {"reqSigs": 1, "hex": "a9141ff65241b035bc7d7b58b3bf4f6254636df8594f87", "addresses": ["34c1xCHtSZsamiUpppe8RzASvWmHXzMiLw"], "asm": "OP_HASH160 1ff65241b035bc7d7b58b3bf4f6254636df8594f OP_EQUAL", "type": "scripthash"}, "value": 0.143, "n": 1}], "hex": "020000000001014ad26316bd01d0fc428c1fac70250d080cc641a9d2b1f810205c7736fee38d0f0000000000ffffffff021838033000000000160014176dd3dfb4377ecbd242e8a736249f8f152308f26033da000000000017a9141ff65241b035bc7d7b58b3bf4f6254636df8594f8702473044022016562bfd57ad973f22769504a3a62d14a591d80bbfbaa9e484521978a810dff9022068493c4b6dc363f3e679788354f5895a30a07f41f79167a86f1a56e6be07d5b001210283a49f8f9f725d583e02516b523070b3872339a422948756c61da35ddce4344200000000", "vin": [{"txinwitness": ["3044022016562bfd57ad973f22769504a3a62d14a591d80bbfbaa9e484521978a810dff9022068493c4b6dc363f3e679788354f5895a30a07f41f79167a86f1a56e6be07d5b001", "0283a49f8f9f725d583e02516b523070b3872339a422948756c61da35ddce43442"], "sequence": 4294967295, "scriptSig": {"hex": "", "asm": ""}, "vout": 0, "txid": "0f8de3fe36775c2010f8b1d2a941c60c080d2570ac1f8c42fcd001bd1663d24a"}], "txid": "3bc0ef228d3d9599c9ce7007046877adac51103f75034d907d0c9f798a31277d", "blocktime": 1537870928, "version": 2, "confirmations": 11512, "time": 1537870928, "locktime": 0, "vsize": 142, "size": 223}