{"hash": "3bca2a57b59ea0218c2071e0336b7f86bdba3c66d921c72db0882a5aa816c4ac", "blockhash": "0000000000000000000e13cef7c366c0283d82e591d1acd082e914b08063cdf1", "vout": [{"scriptPubKey": {"reqSigs": 1, "hex": "76a91408057032b11fe9cd74aa2f754bec1bd6d528c5f688ac", "addresses": ["1jQvPmQTHSJQjkSFZHqA3aV6ky2uMmpp1"], "asm": "OP_DUP OP_HASH160 08057032b11fe9cd74aa2f754bec1bd6d528c5f6 OP_EQUALVERIFY OP_CHECKSIG", "type": "pubkeyhash"}, "value": 0.15635554, "n": 0}, {"scriptPubKey": {"reqSigs": 1, "hex": "76a91483ac7a4a8dcf0be871b77d371553e16f85707d3088ac", "addresses": ["1D1E96FNwaZP4gsb7Wc5HEhaSConJrjyQ1"], "asm": "OP_DUP OP_HASH160 83ac7a4a8dcf0be871b77d371553e16f85707d30 OP_EQUALVERIFY OP_CHECKSIG", "type": "pubkeyhash"}, "value": 0.30253623, "n": 1}], "hex": "0100000001eb879a0a8b5644635c5b74e8b4b5f15a3c4eddb2cf0b09c34d9367de3be6e6b6010000006a47304402207ed8e576c0e3fb9edd0209e4a14fde87af5fd093f9b10660feeabf9f9586baf70220799092c2850fa0f834e9ccce1eb88261039e25a52d98b374861b036957b4f87a012102c33e039e89be979a9e9298c73276187a4a8a48dd1ef6fef3880a3e447cb9a27fffffffff026294ee00000000001976a91408057032b11fe9cd74aa2f754bec1bd6d528c5f688ac37a2cd01000000001976a91483ac7a4a8dcf0be871b77d371553e16f85707d3088ac00000000", "vin": [{"sequence": 4294967295, "scriptSig": {"hex": "47304402207ed8e576c0e3fb9edd0209e4a14fde87af5fd093f9b10660feeabf9f9586baf70220799092c2850fa0f834e9ccce1eb88261039e25a52d98b374861b036957b4f87a012102c33e039e89be979a9e9298c73276187a4a8a48dd1ef6fef3880a3e447cb9a27f", "asm": "304402207ed8e576c0e3fb9edd0209e4a14fde87af5fd093f9b10660feeabf9f9586baf70220799092c2850fa0f834e9ccce1eb88261039e25a52d98b374861b036957b4f87a[ALL] 02c33e039e89be979a9e9298c73276187a4a8a48dd1ef6fef3880a3e447cb9a27f"}, "vout": 1, "txid": "b6e6e63bde67934dc3090bcfb2dd4e3c5af1b5b4e8745b5c6344568b0a9a87eb"}], "txid": "3bca2a57b59ea0218c2071e0336b7f86bdba3c66d921c72db0882a5aa816c4ac", "blocktime": 1537871767, "version": 1, "confirmations": 11492, "time": 1537871767, "locktime": 0, "vsize": 225, "size": 225}