{"hash": "3bd5a7e9c74b99140968956052b05804daecc7c693c4bc5a11b7927de5538516", "blockhash": "0000000000000000000e13cef7c366c0283d82e591d1acd082e914b08063cdf1", "vout": [{"scriptPubKey": {"reqSigs": 1, "hex": "76a9147d7490c319a1ebd5dd0fa4359c0ab343050eca1b88ac", "addresses": ["1CSM76ECbnyv7HHFnk6WhrEosW8Gz5uNnV"], "asm": "OP_DUP OP_HASH160 7d7490c319a1ebd5dd0fa4359c0ab343050eca1b OP_EQUALVERIFY OP_CHECKSIG", "type": "pubkeyhash"}, "value": 0.02594429, "n": 0}, {"scriptPubKey": {"reqSigs": 1, "hex": "76a914e091a6fe49c7159e09c6b20e7e3ccd238134435788ac", "addresses": ["1MUQr562dcQRkEryRSdipBNuPovGZZKuKs"], "asm": "OP_DUP OP_HASH160 e091a6fe49c7159e09c6b20e7e3ccd2381344357 OP_EQUALVERIFY OP_CHECKSIG", "type": "pubkeyhash"}, "value": 0.06035949, "n": 1}], "hex": "01000000020fe33b61d2450ca1154319fe35f173083905c12a8810d11f4c71e1fe65b8ab74000000006b48304502210097ff7e2fdb4355b3989eb31c517f9a1ba34535832de382845f6fcd8ed6f5952a022030a0a197bb5d6efc85c2adc8c4f05dcee20aff49353bee9b153bd2ee80b118d8012103bbcbb1778d0c72444c7b358b6f5190aeb6027158ba137ce24b9247fc7dd51afeffffffff8177971d382080e60225f880b8c006b77add42d05da6b2ac22811287710f6ff0000000006b483045022100952fc5dcf0013f62a4fa79e834208e7ad4631ddee007cf8b0c9b7b7273c3c1a802205f23c6cecbc1fe23e899c1beba8624d889dfb5a1431823553a87d72d54086a5e012103d543bdf50b205b708d78306793e3c2fb35095d0b0509eab498d3491b8275f0c3ffffffff027d962700000000001976a9147d7490c319a1ebd5dd0fa4359c0ab343050eca1b88aced195c00000000001976a914e091a6fe49c7159e09c6b20e7e3ccd238134435788ac00000000", "vin": [{"sequence": 4294967295, "scriptSig": {"hex": "48304502210097ff7e2fdb4355b3989eb31c517f9a1ba34535832de382845f6fcd8ed6f5952a022030a0a197bb5d6efc85c2adc8c4f05dcee20aff49353bee9b153bd2ee80b118d8012103bbcbb1778d0c72444c7b358b6f5190aeb6027158ba137ce24b9247fc7dd51afe", "asm": "304502210097ff7e2fdb4355b3989eb31c517f9a1ba34535832de382845f6fcd8ed6f5952a022030a0a197bb5d6efc85c2adc8c4f05dcee20aff49353bee9b153bd2ee80b118d8[ALL] 03bbcbb1778d0c72444c7b358b6f5190aeb6027158ba137ce24b9247fc7dd51afe"}, "vout": 0, "txid": "74abb865fee1714c1fd110882ac105390873f135fe194315a10c45d2613be30f"}, {"sequence": 4294967295, "scriptSig": {"hex": "483045022100952fc5dcf0013f62a4fa79e834208e7ad4631ddee007cf8b0c9b7b7273c3c1a802205f23c6cecbc1fe23e899c1beba8624d889dfb5a1431823553a87d72d54086a5e012103d543bdf50b205b708d78306793e3c2fb35095d0b0509eab498d3491b8275f0c3", "asm": "3045022100952fc5dcf0013f62a4fa79e834208e7ad4631ddee007cf8b0c9b7b7273c3c1a802205f23c6cecbc1fe23e899c1beba8624d889dfb5a1431823553a87d72d54086a5e[ALL] 03d543bdf50b205b708d78306793e3c2fb35095d0b0509eab498d3491b8275f0c3"}, "vout": 0, "txid": "f06f0f7187128122acb2a65dd042dd7ab706c0b880f82502e68020381d977781"}], "txid": "3bd5a7e9c74b99140968956052b05804daecc7c693c4bc5a11b7927de5538516", "blocktime": 1537871767, "version": 1, "confirmations": 11495, "time": 1537871767, "locktime": 0, "vsize": 374, "size": 374}