{"hash": "27ac9310af3c2fb383e8d92dfcdc3b4ac4e880e444bf0173b39e77594e6cb31a", "blockhash": "0000000000000000001f0ddff1eddb255c1121bcd4da4f1bc9a0da00cae72433", "vout": [{"scriptPubKey": {"reqSigs": 1, "hex": "a914d702059a2567eb4940c87de9fbb78e4acd48b8ee87", "addresses": ["3MHsdGdF3354DFm9LmT6nVeLL9vGNTmRgi"], "asm": "OP_HASH160 d702059a2567eb4940c87de9fbb78e4acd48b8ee OP_EQUAL", "type": "scripthash"}, "value": 0.02292918, "n": 0}, {"scriptPubKey": {"reqSigs": 1, "hex": "a914b0cf0c03c6fbf04725bfe978bb69e0ab6045924d87", "addresses": ["3HottBLNUSzwpi6z1W4oEEqHUxyTXQZnva"], "asm": "OP_HASH160 b0cf0c03c6fbf04725bfe978bb69e0ab6045924d OP_EQUAL", "type": "scripthash"}, "value": 0.01451476, "n": 1}], "hex": "0200000000010180547426e12449c0ab49f05801bf924ee1bd84966d797551bab9db6f3d403a4b010000001716001412c4a621e504d85f0250cb0d1d9582be24166e66ffffffff02b6fc22000000000017a914d702059a2567eb4940c87de9fbb78e4acd48b8ee87d42516000000000017a914b0cf0c03c6fbf04725bfe978bb69e0ab6045924d87024730440220046c6919153f19848451928fbe15c10f557579c76ef45b02fd009f3386360530022023c3c06b45838a16d85b8616b7ba059e40907ed099f17d754dce7d813455d2f70121035acfbe3136f7ab6b4dcf6d3c42cb3ee965375504881901a0c23f9638459015d900000000", "vin": [{"txinwitness": ["30440220046c6919153f19848451928fbe15c10f557579c76ef45b02fd009f3386360530022023c3c06b45838a16d85b8616b7ba059e40907ed099f17d754dce7d813455d2f701", "035acfbe3136f7ab6b4dcf6d3c42cb3ee965375504881901a0c23f9638459015d9"], "sequence": 4294967295, "scriptSig": {"hex": "16001412c4a621e504d85f0250cb0d1d9582be24166e66", "asm": "001412c4a621e504d85f0250cb0d1d9582be24166e66"}, "vout": 1, "txid": "4b3a403d6fdbb9ba5175796d9684bde14e92bf0158f049abc04924e126745480"}], "txid": "3bda9ac18276a9d8df569c71ebbf2b72611343883f454dae91aef3a136c943ec", "blocktime": 1537872018, "version": 2, "confirmations": 11489, "time": 1537872018, "locktime": 0, "vsize": 166, "size": 247}