{"hash": "3bdd4495acd4872e3bd09f4420f9147cd710ba0ba9f8fe4179292f47f977623b", "blockhash": "00000000000000000017f5eb5941039fbcee6240d03bc1f2f8e35350df66a1d8", "vout": [{"scriptPubKey": {"reqSigs": 1, "hex": "76a91489bdb9be102387ee69511f75380fcf6037015ff788ac", "addresses": ["1DZJreKptW1kwuwqXPaVXQwg5GS96mAi3u"], "asm": "OP_DUP OP_HASH160 89bdb9be102387ee69511f75380fcf6037015ff7 OP_EQUALVERIFY OP_CHECKSIG", "type": "pubkeyhash"}, "value": 0.033772, "n": 0}, {"scriptPubKey": {"reqSigs": 1, "hex": "76a9149879acfee85ef7b0df1e8b4c179f977a1bbc1d6d88ac", "addresses": ["1EuDULdusaShocSTwx4hTaHrnKjXPN5H7h"], "asm": "OP_DUP OP_HASH160 9879acfee85ef7b0df1e8b4c179f977a1bbc1d6d OP_EQUALVERIFY OP_CHECKSIG", "type": "pubkeyhash"}, "value": 1.9140591, "n": 1}], "hex": "01000000017addeeb6cf6fd83c5a67d7000157f84b62540887b0d086a939f19eedbbb5689c010000006a47304402205333ccdb864b914816af8533164ccbc1998505ba38f149bd2e4d4d9c82e1e18802201e86f4ee053d3b83c3f7ba84c8f0099d3cb97f8e54c50007922f06d7f1993dc00121033dbd423aceef40b73f87aa1f1ff3d5c355dd9f5b86cce2dbc04a7dd4d810c0d7ffffffff0230883300000000001976a91489bdb9be102387ee69511f75380fcf6037015ff788ac569f680b000000001976a9149879acfee85ef7b0df1e8b4c179f977a1bbc1d6d88ac00000000", "vin": [{"sequence": 4294967295, "scriptSig": {"hex": "47304402205333ccdb864b914816af8533164ccbc1998505ba38f149bd2e4d4d9c82e1e18802201e86f4ee053d3b83c3f7ba84c8f0099d3cb97f8e54c50007922f06d7f1993dc00121033dbd423aceef40b73f87aa1f1ff3d5c355dd9f5b86cce2dbc04a7dd4d810c0d7", "asm": "304402205333ccdb864b914816af8533164ccbc1998505ba38f149bd2e4d4d9c82e1e18802201e86f4ee053d3b83c3f7ba84c8f0099d3cb97f8e54c50007922f06d7f1993dc0[ALL] 033dbd423aceef40b73f87aa1f1ff3d5c355dd9f5b86cce2dbc04a7dd4d810c0d7"}, "vout": 1, "txid": "9c68b5bbed9ef139a986d0b0870854624bf8570100d7675a3cd86fcfb6eedd7a"}], "txid": "3bdd4495acd4872e3bd09f4420f9147cd710ba0ba9f8fe4179292f47f977623b", "blocktime": 1537874412, "version": 1, "confirmations": 11468, "time": 1537874412, "locktime": 0, "vsize": 225, "size": 225}