{"hash": "3be18231717a4a92d616a2e403c97326cc7437908d67878efb0f0ca55542eb32", "blockhash": "00000000000000000024a2167bbff67b0be802c0b01cdd79e6331c2be6459f87", "vout": [{"scriptPubKey": {"reqSigs": 1, "hex": "76a914ae6b53359df79f3975acc4d2f1dd93fedd3a4e5f88ac", "addresses": ["1GuF9TGB9Mk6WfuvHh2ziNPrww75579FuM"], "asm": "OP_DUP OP_HASH160 ae6b53359df79f3975acc4d2f1dd93fedd3a4e5f OP_EQUALVERIFY OP_CHECKSIG", "type": "pubkeyhash"}, "value": 0.3497699, "n": 0}, {"scriptPubKey": {"reqSigs": 1, "hex": "76a9144e961db40992bebca6b76199f8b4e2b3de459a8288ac", "addresses": ["18AXYD2HwGMkyxJAnzufZRR1qnQoB221kh"], "asm": "OP_DUP OP_HASH160 4e961db40992bebca6b76199f8b4e2b3de459a82 OP_EQUALVERIFY OP_CHECKSIG", "type": "pubkeyhash"}, "value": 0.47169812, "n": 1}], "hex": "01000000017300d6cdf0d17356a83d34d177ea1d50727ff01e38bea31deef45678e3eb2272010000006a473044022012a3c5bb6a30d77d28c75f66b02e3fc3c2baf2839fc2dd39491cc01afc7f052202207e7ceb79e54744d7c8506535f878370b5746c07f3e291cfc13541f791d04fd920121034b98d2b3dd8ad7d73297b219558a0dcabd84bbfb73e7cc969bcd28c44247f4d1fdffffff02deb41502000000001976a914ae6b53359df79f3975acc4d2f1dd93fedd3a4e5f88ac14c1cf02000000001976a9144e961db40992bebca6b76199f8b4e2b3de459a8288ac0d490800", "vin": [{"sequence": 4294967293, "scriptSig": {"hex": "473044022012a3c5bb6a30d77d28c75f66b02e3fc3c2baf2839fc2dd39491cc01afc7f052202207e7ceb79e54744d7c8506535f878370b5746c07f3e291cfc13541f791d04fd920121034b98d2b3dd8ad7d73297b219558a0dcabd84bbfb73e7cc969bcd28c44247f4d1", "asm": "3044022012a3c5bb6a30d77d28c75f66b02e3fc3c2baf2839fc2dd39491cc01afc7f052202207e7ceb79e54744d7c8506535f878370b5746c07f3e291cfc13541f791d04fd92[ALL] 034b98d2b3dd8ad7d73297b219558a0dcabd84bbfb73e7cc969bcd28c44247f4d1"}, "vout": 1, "txid": "7222ebe37856f4ee1da3be381ef07f72501dea77d1343da85673d1f0cdd60073"}], "txid": "3be18231717a4a92d616a2e403c97326cc7437908d67878efb0f0ca55542eb32", "blocktime": 1537870564, "version": 1, "confirmations": 11515, "time": 1537870564, "locktime": 542989, "vsize": 225, "size": 225}