{"hash": "3be57624caa2194fac366ed51b00dd523528705534c298d1264669a07a382c8b", "blockhash": "00000000000000000017f5eb5941039fbcee6240d03bc1f2f8e35350df66a1d8", "vout": [{"scriptPubKey": {"reqSigs": 1, "hex": "a91422a17af9fc3038e57cd8b225528e49d66b4f0d2c87", "addresses": ["34r8LvGhfqYDW769eCD4EaDfcqW1qDnhzV"], "asm": "OP_HASH160 22a17af9fc3038e57cd8b225528e49d66b4f0d2c OP_EQUAL", "type": "scripthash"}, "value": 0.18191811, "n": 0}, {"scriptPubKey": {"reqSigs": 1, "hex": "76a914c716008ccea549b43bcf01f1089c262eabfc216688ac", "addresses": ["1K9fpuoNJtE1Ke2WF12C53SQtcQkGUuPTo"], "asm": "OP_DUP OP_HASH160 c716008ccea549b43bcf01f1089c262eabfc2166 OP_EQUALVERIFY OP_CHECKSIG", "type": "pubkeyhash"}, "value": 0.24876464, "n": 1}], "hex": "010000000133d824b09c7cf39e55908433d258bc1f20d0361de07680e0b79617f995bbbec5010000006a47304402200d517a47ea5fd4738b297568259cd9ed75c7ae02e0a8beededb494243379dba0022026fcab3fca501cf5aa3b802d274534ba15a37ff77fbba046b0974512b16a939601210276aa281c3fd9d8ee28470fb21ba1c2e70370dd7e4167999ae1994fb4d00e2b42ffffffff02c39515010000000017a91422a17af9fc3038e57cd8b225528e49d66b4f0d2c87b0957b01000000001976a914c716008ccea549b43bcf01f1089c262eabfc216688ac00000000", "vin": [{"sequence": 4294967295, "scriptSig": {"hex": "47304402200d517a47ea5fd4738b297568259cd9ed75c7ae02e0a8beededb494243379dba0022026fcab3fca501cf5aa3b802d274534ba15a37ff77fbba046b0974512b16a939601210276aa281c3fd9d8ee28470fb21ba1c2e70370dd7e4167999ae1994fb4d00e2b42", "asm": "304402200d517a47ea5fd4738b297568259cd9ed75c7ae02e0a8beededb494243379dba0022026fcab3fca501cf5aa3b802d274534ba15a37ff77fbba046b0974512b16a9396[ALL] 0276aa281c3fd9d8ee28470fb21ba1c2e70370dd7e4167999ae1994fb4d00e2b42"}, "vout": 1, "txid": "c5bebb95f91796b7e08076e01d36d0201fbc58d2338490559ef37c9cb024d833"}], "txid": "3be57624caa2194fac366ed51b00dd523528705534c298d1264669a07a382c8b", "blocktime": 1537874412, "version": 1, "confirmations": 11468, "time": 1537874412, "locktime": 0, "vsize": 223, "size": 223}