{"hash": "3be5b70c63f2a7b909ba047015ff123756c9373091c0bfef56102248925103a3", "blockhash": "0000000000000000000e13cef7c366c0283d82e591d1acd082e914b08063cdf1", "vout": [{"scriptPubKey": {"type": "nulldata", "hex": "6a4c500000778c0001f70b36bf1d3054d80ba3060ce3ef3236678a625097bcbefa6b8351586b4e0397d38bd4ef329276b2018db169cec95baa0c4006144be3021c8cbfbc9a9526289ac0f6612cd74e33776ee4", "asm": "OP_RETURN 0000778c0001f70b36bf1d3054d80ba3060ce3ef3236678a625097bcbefa6b8351586b4e0397d38bd4ef329276b2018db169cec95baa0c4006144be3021c8cbfbc9a9526289ac0f6612cd74e33776ee4"}, "value": 0.0, "n": 0}, {"scriptPubKey": {"reqSigs": 1, "hex": "76a9141fa39e34725a2777b55ee55af9e39a61362b462588ac", "addresses": ["13tHxKnNzxQKxfZGAB773sjS8SENq8GQVq"], "asm": "OP_DUP OP_HASH160 1fa39e34725a2777b55ee55af9e39a61362b4625 OP_EQUALVERIFY OP_CHECKSIG", "type": "pubkeyhash"}, "value": 0.00126144, "n": 1}], "hex": "0100000001a3e2ec6757b3394089750a20a8d702b96600f809594d331b5aead393ffd0e804010000006a47304402202f6de8832dc079a027f2812a6fc1294953c522669229253bf0877d7f5df24281022065fc46660abd36f5ed2e889cb5e30bde70176d5f760a154c64212f75702cc92b0121032534586c713eae8ceac9acc18a70a29ab3609c8ac44f8a9120f260c014f658faffffffff020000000000000000536a4c500000778c0001f70b36bf1d3054d80ba3060ce3ef3236678a625097bcbefa6b8351586b4e0397d38bd4ef329276b2018db169cec95baa0c4006144be3021c8cbfbc9a9526289ac0f6612cd74e33776ee4c0ec0100000000001976a9141fa39e34725a2777b55ee55af9e39a61362b462588ac00000000", "vin": [{"sequence": 4294967295, "scriptSig": {"hex": "47304402202f6de8832dc079a027f2812a6fc1294953c522669229253bf0877d7f5df24281022065fc46660abd36f5ed2e889cb5e30bde70176d5f760a154c64212f75702cc92b0121032534586c713eae8ceac9acc18a70a29ab3609c8ac44f8a9120f260c014f658fa", "asm": "304402202f6de8832dc079a027f2812a6fc1294953c522669229253bf0877d7f5df24281022065fc46660abd36f5ed2e889cb5e30bde70176d5f760a154c64212f75702cc92b[ALL] 032534586c713eae8ceac9acc18a70a29ab3609c8ac44f8a9120f260c014f658fa"}, "vout": 1, "txid": "04e8d0ff93d3ea5a1b334d5909f80066b902d7a8200a75894039b35767ece2a3"}], "txid": "3be5b70c63f2a7b909ba047015ff123756c9373091c0bfef56102248925103a3", "blocktime": 1537871767, "version": 1, "confirmations": 11493, "time": 1537871767, "locktime": 0, "vsize": 283, "size": 283}