{"hash": "3bee6e0b4a12a320179864c33d6194312c79a5587da6c1863281e7dade50aee7", "blockhash": "0000000000000000001e0dab787dd257d1dbfcb92a98c2207d5e1078be1f4165", "vout": [{"scriptPubKey": {"reqSigs": 1, "hex": "76a91418baf6e116ee48507214e4617206e14fceb232c488ac", "addresses": ["13FmC7k3EyoX2AyCuKKxFE9YHC1wNXhYTN"], "asm": "OP_DUP OP_HASH160 18baf6e116ee48507214e4617206e14fceb232c4 OP_EQUALVERIFY OP_CHECKSIG", "type": "pubkeyhash"}, "value": 0.00639756, "n": 0}, {"scriptPubKey": {"type": "nulldata", "hex": "6a4c50000077b5000169c45d1b9ff72dde81139766e5bf9ae76da98a211aaf6c953dd567cf27e762a72429287098ad3e5c664ef7cc9cd85baa11ae0611f9ac11a4f2e71d100759d4ba30d2c37bb011d97e02cf", "asm": "OP_RETURN 000077b5000169c45d1b9ff72dde81139766e5bf9ae76da98a211aaf6c953dd567cf27e762a72429287098ad3e5c664ef7cc9cd85baa11ae0611f9ac11a4f2e71d100759d4ba30d2c37bb011d97e02cf"}, "value": 0.0, "n": 1}], "hex": "0100000001ed92e1b07423d27a78f06e2882e40d3200232d83cd680889bdc95ce82ab49301010000006b483045022100eedb869477d335de43db97f7f67aa706edf36b667c940ab39153d68e5ee3603c0220709df08ebea06193f870a1405fb48a15176fd5eae133db5af66161ef1afb588001210387bfb97c4ab9a82effee8bcf4b4b866d5c85dd9e2e9fe9e80e7f10c2fb6ff3c1ffffffff020cc30900000000001976a91418baf6e116ee48507214e4617206e14fceb232c488ac0000000000000000536a4c50000077b5000169c45d1b9ff72dde81139766e5bf9ae76da98a211aaf6c953dd567cf27e762a72429287098ad3e5c664ef7cc9cd85baa11ae0611f9ac11a4f2e71d100759d4ba30d2c37bb011d97e02cf00000000", "vin": [{"sequence": 4294967295, "scriptSig": {"hex": "483045022100eedb869477d335de43db97f7f67aa706edf36b667c940ab39153d68e5ee3603c0220709df08ebea06193f870a1405fb48a15176fd5eae133db5af66161ef1afb588001210387bfb97c4ab9a82effee8bcf4b4b866d5c85dd9e2e9fe9e80e7f10c2fb6ff3c1", "asm": "3045022100eedb869477d335de43db97f7f67aa706edf36b667c940ab39153d68e5ee3603c0220709df08ebea06193f870a1405fb48a15176fd5eae133db5af66161ef1afb5880[ALL] 0387bfb97c4ab9a82effee8bcf4b4b866d5c85dd9e2e9fe9e80e7f10c2fb6ff3c1"}, "vout": 1, "txid": "0193b42ae85cc9bd890868cd832d2300320de482286ef0787ad22374b0e192ed"}], "txid": "3bee6e0b4a12a320179864c33d6194312c79a5587da6c1863281e7dade50aee7", "blocktime": 1537872475, "version": 1, "confirmations": 11486, "time": 1537872475, "locktime": 0, "vsize": 284, "size": 284}