{"hash": "93b80a4f512fb8b262f761a3f501574a853c3737efe185ccfde4ac1c71ce43bd", "blockhash": "0000000000000000000e13cef7c366c0283d82e591d1acd082e914b08063cdf1", "vout": [{"scriptPubKey": {"reqSigs": 1, "hex": "0014c39d3710a5048709eacc3792fcb9a3cb7bfb8353", "addresses": ["bc1qcwwnwy99qjrsn6kvx7f0ewdredalhq6nu9532y"], "asm": "0 c39d3710a5048709eacc3792fcb9a3cb7bfb8353", "type": "witness_v0_keyhash"}, "value": 1.057e-05, "n": 0}, {"scriptPubKey": {"reqSigs": 1, "hex": "a914efa85b082d74c746e470a2d978728a1ab84065df87", "addresses": ["3PYD6weHUVyy6xE94fgCPKo1upBYwxJEWA"], "asm": "OP_HASH160 efa85b082d74c746e470a2d978728a1ab84065df OP_EQUAL", "type": "scripthash"}, "value": 0.00091029, "n": 1}], "hex": "01000000000101a589824e10c351385203f1af1b54fd5e1d8d5d3daa6c7f18ab075f581b9a00239d01000017160014bc4ffee3c37891eddd462a5c234e3bc37ca65741ffffffff022104000000000000160014c39d3710a5048709eacc3792fcb9a3cb7bfb8353956301000000000017a914efa85b082d74c746e470a2d978728a1ab84065df8702483045022100a3133569cc851413782369801d41490da259507338fb569685f2eaea86f88bf10220637764417f5aa4a272fa36839f772524655d3e02328101733bde610bb0cf2d5f01210278b8dc6a287cec65d09cd75afa9139c45ce6b45ae2d490e90ecbacc7dfdf1fd900000000", "vin": [{"txinwitness": ["3045022100a3133569cc851413782369801d41490da259507338fb569685f2eaea86f88bf10220637764417f5aa4a272fa36839f772524655d3e02328101733bde610bb0cf2d5f01", "0278b8dc6a287cec65d09cd75afa9139c45ce6b45ae2d490e90ecbacc7dfdf1fd9"], "sequence": 4294967295, "scriptSig": {"hex": "160014bc4ffee3c37891eddd462a5c234e3bc37ca65741", "asm": "0014bc4ffee3c37891eddd462a5c234e3bc37ca65741"}, "vout": 413, "txid": "23009a1b585f07ab187f6caa3d5d8d1d5efd541baff103523851c3104e8289a5"}], "txid": "3bf5548adb0dbceb3189e60572e0c06299971b1f5371fd5025163fea019b8d98", "blocktime": 1537871767, "version": 1, "confirmations": 11495, "time": 1537871767, "locktime": 0, "vsize": 165, "size": 247}