{"hash": "3bf975187b0eaa5311bd2b29d8242b55da49dfb4cb8e0013350e70b7da27d7ea", "blockhash": "0000000000000000000dcc0f55137456b1a82d3642486a52398922ac4d620174", "vout": [{"scriptPubKey": {"reqSigs": 1, "hex": "76a914b380dd3ff53d446c0f7f46e7c3029dec8e1c82fb88ac", "addresses": ["1HN8Kz2VNk6QTUDYCREPw75ZrLe7SeNBj9"], "asm": "OP_DUP OP_HASH160 b380dd3ff53d446c0f7f46e7c3029dec8e1c82fb OP_EQUALVERIFY OP_CHECKSIG", "type": "pubkeyhash"}, "value": 2.816e-05, "n": 0}, {"scriptPubKey": {"reqSigs": 1, "hex": "a9149f7694224420013f8b8659b004c012215331baa987", "addresses": ["3GEBR2uZcQMXmGgQxGoK6fj5osEbrPvjSw"], "asm": "OP_HASH160 9f7694224420013f8b8659b004c012215331baa9 OP_EQUAL", "type": "scripthash"}, "value": 0.01152447, "n": 1}], "hex": "0100000001afdd7ddf0a9e05939a61a29c8bf54200da8fca4ef4c9b045db1cfaec8b44fcea020000006b483045022100824222f617248aa15b346a84d13e3e92b0d861df62f01ccd403a6ecd0e94a81202207f6732bab903803a04c7da46381842117de84574fc70b08b4fef5305ca346e19012102be387b23864c8ad543e47e0cd184fddff01a11719894ec13944c7431d3f74627ffffffff02000b0000000000001976a914b380dd3ff53d446c0f7f46e7c3029dec8e1c82fb88acbf9511000000000017a9149f7694224420013f8b8659b004c012215331baa98700000000", "vin": [{"sequence": 4294967295, "scriptSig": {"hex": "483045022100824222f617248aa15b346a84d13e3e92b0d861df62f01ccd403a6ecd0e94a81202207f6732bab903803a04c7da46381842117de84574fc70b08b4fef5305ca346e19012102be387b23864c8ad543e47e0cd184fddff01a11719894ec13944c7431d3f74627", "asm": "3045022100824222f617248aa15b346a84d13e3e92b0d861df62f01ccd403a6ecd0e94a81202207f6732bab903803a04c7da46381842117de84574fc70b08b4fef5305ca346e19[ALL] 02be387b23864c8ad543e47e0cd184fddff01a11719894ec13944c7431d3f74627"}, "vout": 2, "txid": "eafc448becfa1cdb45b0c9f44eca8fda0042f58b9ca2619a93059e0adf7dddaf"}], "txid": "3bf975187b0eaa5311bd2b29d8242b55da49dfb4cb8e0013350e70b7da27d7ea", "blocktime": 1537870268, "version": 1, "confirmations": 11516, "time": 1537870268, "locktime": 0, "vsize": 224, "size": 224}