{"hash": "3bf9403eb54126dad6ef3f30dc2d9c59062df0f9275739de797d8f50f1d5a67b", "blockhash": "000000000000000000022b45ed06c6f4ccd3cf7fb5ba4856ebd2e58215665228", "vout": [{"scriptPubKey": {"reqSigs": 1, "hex": "76a9148dd5aa8f3a22b209772fc8689e5bdae3179bc70e88ac", "addresses": ["1DvxEqgHBKYqZoE18MG9LEYvdkiwFs2bwU"], "asm": "OP_DUP OP_HASH160 8dd5aa8f3a22b209772fc8689e5bdae3179bc70e OP_EQUALVERIFY OP_CHECKSIG", "type": "pubkeyhash"}, "value": 0.0008698, "n": 0}, {"scriptPubKey": {"type": "nulldata", "hex": "6a4c50000077620001ab72021cbf7a9755e6aa0aff86aeaeacb577c031fc3a016b46dc7dc7d0965ece4a7c5dd9de064fcf302c11a0c4e25baa07b906127d475b09230fbc9a9526289ac0f6612cd74e33776ee4", "asm": "OP_RETURN 000077620001ab72021cbf7a9755e6aa0aff86aeaeacb577c031fc3a016b46dc7dc7d0965ece4a7c5dd9de064fcf302c11a0c4e25baa07b906127d475b09230fbc9a9526289ac0f6612cd74e33776ee4"}, "value": 0.0, "n": 1}], "hex": "010000000113acd2432b3d9df4f946bd16d2d2e03085fcf7fe325f0fd4bc2a11659ade1969010000006a473044022037b7b81282ef50c92ae9e5187d1f647416d5cd508107b45d0e4a5ee7b7336d28022001d3003d82913ea865f2d2ed2cd2944fe1b430e6f8c31bc224d064350c68dba4012102bef014fdf8f7e3c6de7dd422a0e856fd0d3c4a1a668c4ca64bdc199dad1eb536ffffffff02c4530100000000001976a9148dd5aa8f3a22b209772fc8689e5bdae3179bc70e88ac0000000000000000536a4c50000077620001ab72021cbf7a9755e6aa0aff86aeaeacb577c031fc3a016b46dc7dc7d0965ece4a7c5dd9de064fcf302c11a0c4e25baa07b906127d475b09230fbc9a9526289ac0f6612cd74e33776ee400000000", "vin": [{"sequence": 4294967295, "scriptSig": {"hex": "473044022037b7b81282ef50c92ae9e5187d1f647416d5cd508107b45d0e4a5ee7b7336d28022001d3003d82913ea865f2d2ed2cd2944fe1b430e6f8c31bc224d064350c68dba4012102bef014fdf8f7e3c6de7dd422a0e856fd0d3c4a1a668c4ca64bdc199dad1eb536", "asm": "3044022037b7b81282ef50c92ae9e5187d1f647416d5cd508107b45d0e4a5ee7b7336d28022001d3003d82913ea865f2d2ed2cd2944fe1b430e6f8c31bc224d064350c68dba4[ALL] 02bef014fdf8f7e3c6de7dd422a0e856fd0d3c4a1a668c4ca64bdc199dad1eb536"}, "vout": 1, "txid": "6919de9a65112abcd40f5f32fef7fc8530e0d2d216bd46f9f49d3d2b43d2ac13"}], "txid": "3bf9403eb54126dad6ef3f30dc2d9c59062df0f9275739de797d8f50f1d5a67b", "blocktime": 1537869901, "version": 1, "confirmations": 11523, "time": 1537869901, "locktime": 0, "vsize": 283, "size": 283}