{"hash": "3bfb7d8a189d939819bb0ec179c020287f50facba02e6e82e3eb9ef3df7c2c0e", "blockhash": "0000000000000000000baef3f32e3676a92c3b2e5da21b426e4f302fc371ce76", "vout": [{"scriptPubKey": {"reqSigs": 1, "hex": "76a914222165c0d8b46ec90b341613650b83411082c7e388ac", "addresses": ["147Tz28FvJevMQnTSaBNwcaYV944hKvGuZ"], "asm": "OP_DUP OP_HASH160 222165c0d8b46ec90b341613650b83411082c7e3 OP_EQUALVERIFY OP_CHECKSIG", "type": "pubkeyhash"}, "value": 0.00121104, "n": 0}, {"scriptPubKey": {"type": "nulldata", "hex": "6a4c500000780d0001c78d17027948b65dd7fe9479702940d64fa54d8eb2d19ed074892d00f8e8f7d41f3189e6396d7460ecffa621c2e45baa1b3506145033477435ecbc9a9526289ac0f6612cd74e33776ee4", "asm": "OP_RETURN 0000780d0001c78d17027948b65dd7fe9479702940d64fa54d8eb2d19ed074892d00f8e8f7d41f3189e6396d7460ecffa621c2e45baa1b3506145033477435ecbc9a9526289ac0f6612cd74e33776ee4"}, "value": 0.0, "n": 1}], "hex": "01000000015987e5cd5cf693b684d56b3720cb91d26ed359fa70dfd392a4fd665fab054e38010000006b483045022100a040d0b22b079ede57f10bd982c494b873a05ecf86d93d7e4829655d5429eaa70220136d0b6b3e51af8eafe9553e0b58793ed37878bf798758b9961c8a8d192fccf80121025781a6ebef2f05e07d1870d8c9422d5960b3a551872ac255674ecdf791bb6f94ffffffff0210d90100000000001976a914222165c0d8b46ec90b341613650b83411082c7e388ac0000000000000000536a4c500000780d0001c78d17027948b65dd7fe9479702940d64fa54d8eb2d19ed074892d00f8e8f7d41f3189e6396d7460ecffa621c2e45baa1b3506145033477435ecbc9a9526289ac0f6612cd74e33776ee400000000", "vin": [{"sequence": 4294967295, "scriptSig": {"hex": "483045022100a040d0b22b079ede57f10bd982c494b873a05ecf86d93d7e4829655d5429eaa70220136d0b6b3e51af8eafe9553e0b58793ed37878bf798758b9961c8a8d192fccf80121025781a6ebef2f05e07d1870d8c9422d5960b3a551872ac255674ecdf791bb6f94", "asm": "3045022100a040d0b22b079ede57f10bd982c494b873a05ecf86d93d7e4829655d5429eaa70220136d0b6b3e51af8eafe9553e0b58793ed37878bf798758b9961c8a8d192fccf8[ALL] 025781a6ebef2f05e07d1870d8c9422d5960b3a551872ac255674ecdf791bb6f94"}, "vout": 1, "txid": "384e05ab5f66fda492d3df70fa59d36ed291cb20376bd584b693f65ccde58759"}], "txid": "3bfb7d8a189d939819bb0ec179c020287f50facba02e6e82e3eb9ef3df7c2c0e", "blocktime": 1537876114, "version": 1, "confirmations": 11460, "time": 1537876114, "locktime": 0, "vsize": 284, "size": 284}