{"hash": "3c0365919df515935613dadf9d23d0e5387e08e68eb78ec071bf99f7e5e63700", "blockhash": "00000000000000000017f5eb5941039fbcee6240d03bc1f2f8e35350df66a1d8", "vout": [{"scriptPubKey": {"reqSigs": 1, "hex": "76a914aacb59e4fd650a9880cde4be4711c99a3d3b34bc88ac", "addresses": ["1Ga5UhR2bAdXnzrxEpJW5K3THZNuiW4Y2a"], "asm": "OP_DUP OP_HASH160 aacb59e4fd650a9880cde4be4711c99a3d3b34bc OP_EQUALVERIFY OP_CHECKSIG", "type": "pubkeyhash"}, "value": 0.0015626, "n": 0}, {"scriptPubKey": {"reqSigs": 1, "hex": "76a914beca9f0c5109e3f41ff49dffbee5e47ff5c4b95d88ac", "addresses": ["1JPp7pdf7fkeWu35Ek23C6vbfjYohVxuZm"], "asm": "OP_DUP OP_HASH160 beca9f0c5109e3f41ff49dffbee5e47ff5c4b95d OP_EQUALVERIFY OP_CHECKSIG", "type": "pubkeyhash"}, "value": 0.00408122, "n": 1}], "hex": "0100000001ca50fe051d08c6451b6d85cbea26ad9ff9b9516156161dd93e3d845fdc68acdf010000006a47304402206b3c2b2bf0347cdca437b4cfa5c7d8388552148298e86d1cc903b25fc9bcac7f022004dc50c58d141b28c51f348b48cb725a6ea7d5da99e2c796da3d9e1f3a5fa444012102a405901f7e240bc7bb62bcfd1d2bedc42c100bf635ef70e44dcd12a63d38f93efeffffff0264620200000000001976a914aacb59e4fd650a9880cde4be4711c99a3d3b34bc88ac3a3a0600000000001976a914beca9f0c5109e3f41ff49dffbee5e47ff5c4b95d88ac15490800", "vin": [{"sequence": 4294967294, "scriptSig": {"hex": "47304402206b3c2b2bf0347cdca437b4cfa5c7d8388552148298e86d1cc903b25fc9bcac7f022004dc50c58d141b28c51f348b48cb725a6ea7d5da99e2c796da3d9e1f3a5fa444012102a405901f7e240bc7bb62bcfd1d2bedc42c100bf635ef70e44dcd12a63d38f93e", "asm": "304402206b3c2b2bf0347cdca437b4cfa5c7d8388552148298e86d1cc903b25fc9bcac7f022004dc50c58d141b28c51f348b48cb725a6ea7d5da99e2c796da3d9e1f3a5fa444[ALL] 02a405901f7e240bc7bb62bcfd1d2bedc42c100bf635ef70e44dcd12a63d38f93e"}, "vout": 1, "txid": "dfac68dc5f843d3ed91d16566151b9f99fad26eacb856d1b45c6081d05fe50ca"}], "txid": "3c0365919df515935613dadf9d23d0e5387e08e68eb78ec071bf99f7e5e63700", "blocktime": 1537874412, "version": 1, "confirmations": 11468, "time": 1537874412, "locktime": 542997, "vsize": 225, "size": 225}