{"hash": "3c048d5a64755044af9759389e4d3bc0f5fd2138dd0d34f278caca6e01d76814", "blockhash": "00000000000000000017f5eb5941039fbcee6240d03bc1f2f8e35350df66a1d8", "vout": [{"scriptPubKey": {"reqSigs": 1, "hex": "76a9143af88411a8b44d10343ec3abe0a68aab0ba20f4f88ac", "addresses": ["16NouKAgzf4jEU6KBuLJ877GneymZ9zq5R"], "asm": "OP_DUP OP_HASH160 3af88411a8b44d10343ec3abe0a68aab0ba20f4f OP_EQUALVERIFY OP_CHECKSIG", "type": "pubkeyhash"}, "value": 5.46e-06, "n": 0}, {"scriptPubKey": {"reqSigs": 1, "hex": "a9143f4eecba122ad73039d481c8d37f99cb4f887cd887", "addresses": ["37Tm3Qz8Zw2VJrheUUhArDAoq58S6YrS3g"], "asm": "OP_HASH160 3f4eecba122ad73039d481c8d37f99cb4f887cd8 OP_EQUAL", "type": "scripthash"}, "value": 0.99966902, "n": 1}, {"scriptPubKey": {"type": "nulldata", "hex": "6a146f6d6e69000000000000001f00000004b0ea1500", "asm": "OP_RETURN 6f6d6e69000000000000001f00000004b0ea1500"}, "value": 0.0, "n": 2}], "hex": "0100000001a0c3760b3ccbde63ce1674c3435ed5eeb0bed0aba2ca95f5b5f4e0d529c95f4901000000fdfd000047304402204b971d6e9f7a264df039b3f974457d66f4e0fc2274a53800eab4f8af0e94d6ea02203556e879bfcf8b39d545ac77973c33196f7e5378d4224eae53a64f2ef57f724101483045022100b73e239ddf4b8cfa021220621cea71f0ff0d6fd5c423b4ecea3b451620df0ee80220340532f3a34df609c95f5edd4c975ab371d7fca65090f697f2101ef507233b94014c6952210246ccf4de0c54cc7f3354cdd993c2c50cf965fd82238b89659fbd73a1b4bf05a121024fc59f72272a897fe43803374969f396058152fe4765a8d15216f94624257b1b21022593bc69ecbf3bbcc3c58082267cb49dadaf4ca8dbf1b2297338a9d628c4297653aeffffffff0322020000000000001976a9143af88411a8b44d10343ec3abe0a68aab0ba20f4f88acb65ff5050000000017a9143f4eecba122ad73039d481c8d37f99cb4f887cd8870000000000000000166a146f6d6e69000000000000001f00000004b0ea150000000000", "vin": [{"sequence": 4294967295, "scriptSig": {"hex": "0047304402204b971d6e9f7a264df039b3f974457d66f4e0fc2274a53800eab4f8af0e94d6ea02203556e879bfcf8b39d545ac77973c33196f7e5378d4224eae53a64f2ef57f724101483045022100b73e239ddf4b8cfa021220621cea71f0ff0d6fd5c423b4ecea3b451620df0ee80220340532f3a34df609c95f5edd4c975ab371d7fca65090f697f2101ef507233b94014c6952210246ccf4de0c54cc7f3354cdd993c2c50cf965fd82238b89659fbd73a1b4bf05a121024fc59f72272a897fe43803374969f396058152fe4765a8d15216f94624257b1b21022593bc69ecbf3bbcc3c58082267cb49dadaf4ca8dbf1b2297338a9d628c4297653ae", "asm": "0 304402204b971d6e9f7a264df039b3f974457d66f4e0fc2274a53800eab4f8af0e94d6ea02203556e879bfcf8b39d545ac77973c33196f7e5378d4224eae53a64f2ef57f7241[ALL] 3045022100b73e239ddf4b8cfa021220621cea71f0ff0d6fd5c423b4ecea3b451620df0ee80220340532f3a34df609c95f5edd4c975ab371d7fca65090f697f2101ef507233b94[ALL] 52210246ccf4de0c54cc7f3354cdd993c2c50cf965fd82238b89659fbd73a1b4bf05a121024fc59f72272a897fe43803374969f396058152fe4765a8d15216f94624257b1b21022593bc69ecbf3bbcc3c58082267cb49dadaf4ca8dbf1b2297338a9d628c4297653ae"}, "vout": 1, "txid": "495fc929d5e0f4b5f595caa2abd0beb0eed55e43c37416ce63decb3c0b76c3a0"}], "txid": "3c048d5a64755044af9759389e4d3bc0f5fd2138dd0d34f278caca6e01d76814", "blocktime": 1537874412, "version": 1, "confirmations": 11467, "time": 1537874412, "locktime": 0, "vsize": 403, "size": 403}