{"hash": "e79f3063176aa4ff9bde6fd8c4dbf3402c37e1602ee6ec818ed147057fab5749", "blockhash": "0000000000000000001f0ddff1eddb255c1121bcd4da4f1bc9a0da00cae72433", "vout": [{"scriptPubKey": {"reqSigs": 1, "hex": "76a9148d3ea1a917d300e0b527fa1e7ad4fc2222d9f33288ac", "addresses": ["1DsqJm5puCeVDWDfNDptpGHkVQrtG5a3aQ"], "asm": "OP_DUP OP_HASH160 8d3ea1a917d300e0b527fa1e7ad4fc2222d9f332 OP_EQUALVERIFY OP_CHECKSIG", "type": "pubkeyhash"}, "value": 0.0031866, "n": 0}, {"scriptPubKey": {"reqSigs": 1, "hex": "a9147a6921e77d8580b040cbbb977ffef73883915e9287", "addresses": ["3CrGJgDXNmEVhkpNKMDYvpyG6SoMf7omRT"], "asm": "OP_HASH160 7a6921e77d8580b040cbbb977ffef73883915e92 OP_EQUAL", "type": "scripthash"}, "value": 0.0100218, "n": 1}], "hex": "020000000001024df7869e96068a18435183fa4d142a0aba9694b1d2d8e444b50d39525ac56b4a000000001716001477ae8dce26fd0ae0b885dc5cdc78e53f6287c658feffffffbf34756785a2065b9e0699a6d8e5f414d86e0ca5aaa726de9ad19818c62581e80200000017160014d8bd98d3c8b217ddc119be00941e5a2f7a51b2b6feffffff02c4dc0400000000001976a9148d3ea1a917d300e0b527fa1e7ad4fc2222d9f33288acc44a0f000000000017a9147a6921e77d8580b040cbbb977ffef73883915e9287024730440220242cf5276002daaba2fed93106629795a20b076f421fd55fcef98d33b818c487022062f92a59aea186fd8a14cb7912e5eb0c86070c29925dd5412e3919d31c61a58f012103e2a10269219b978de7ae99457483c9c55f2a824e36d6dd1538cae374d5da927102473044022044ac76ceca14ccaf34a0c547dfae3b96d55442a5ed832030ccbef3d73b74483702203a3ecb5176d8edcfe751b6ee96834f13f01d7f00a44d351d02ac255bc5d3f5a90121030be56538898044b0bcc07875451e5b7826ca83cde633bea4fae3988193b5cc2611490800", "vin": [{"txinwitness": ["30440220242cf5276002daaba2fed93106629795a20b076f421fd55fcef98d33b818c487022062f92a59aea186fd8a14cb7912e5eb0c86070c29925dd5412e3919d31c61a58f01", "03e2a10269219b978de7ae99457483c9c55f2a824e36d6dd1538cae374d5da9271"], "sequence": 4294967294, "scriptSig": {"hex": "16001477ae8dce26fd0ae0b885dc5cdc78e53f6287c658", "asm": "001477ae8dce26fd0ae0b885dc5cdc78e53f6287c658"}, "vout": 0, "txid": "4a6bc55a52390db544e4d8d2b19496ba0a2a144dfa835143188a06969e86f74d"}, {"txinwitness": ["3044022044ac76ceca14ccaf34a0c547dfae3b96d55442a5ed832030ccbef3d73b74483702203a3ecb5176d8edcfe751b6ee96834f13f01d7f00a44d351d02ac255bc5d3f5a901", "030be56538898044b0bcc07875451e5b7826ca83cde633bea4fae3988193b5cc26"], "sequence": 4294967294, "scriptSig": {"hex": "160014d8bd98d3c8b217ddc119be00941e5a2f7a51b2b6", "asm": "0014d8bd98d3c8b217ddc119be00941e5a2f7a51b2b6"}, "vout": 2, "txid": "e88125c61898d19ade26a7aaa50c6ed814f4e5d8a699069e5b06a285677534bf"}], "txid": "3c06e070c4e5232fd733e6ecc9407f9a2b19c53ebe06f5075a4da643a6dff93c", "blocktime": 1537872018, "version": 2, "confirmations": 11489, "time": 1537872018, "locktime": 542993, "vsize": 258, "size": 420}