{"hash": "3c07a492595d8b3ba24dc5ab4c02d02500fb7972e67880eadac809adfdc02fe5", "blockhash": "0000000000000000001cda96e906b7601b7a6fb1a3b62bca570a9e5d8f4b3de1", "vout": [{"scriptPubKey": {"reqSigs": 1, "hex": "76a9144a466dbc4e9d67848d98f02a84fd896efb57339788ac", "addresses": ["17mjNfXEcCQrTbQbJy13y1qw1M1iwancqS"], "asm": "OP_DUP OP_HASH160 4a466dbc4e9d67848d98f02a84fd896efb573397 OP_EQUALVERIFY OP_CHECKSIG", "type": "pubkeyhash"}, "value": 0.00778248, "n": 0}, {"scriptPubKey": {"reqSigs": 1, "hex": "76a9147f9d997fd47e4f1eda49d8c11c04e8e3bb037dc588ac", "addresses": ["1CdmcaMgNdGtxMSyHZnUTVqLko1NHn1u8A"], "asm": "OP_DUP OP_HASH160 7f9d997fd47e4f1eda49d8c11c04e8e3bb037dc5 OP_EQUALVERIFY OP_CHECKSIG", "type": "pubkeyhash"}, "value": 0.00039335, "n": 1}], "hex": "010000000139cacc92723424de19eb1f19b068dca992479f61b267b0b674fae4becf3dde33110000006a4730440220351e023fc7ce9c13dfb46b6b4903b9163c57d53e4f6b0e443dcd45bc02abff8302204e4d6683c5735533924973067853888c917cae5d4e17abdc69a899d6144e31c901210236abf59931c9ebf8634e9b65e801fedf2ead188f7812e93438fe74a57c09c4eeffffffff0208e00b00000000001976a9144a466dbc4e9d67848d98f02a84fd896efb57339788aca7990000000000001976a9147f9d997fd47e4f1eda49d8c11c04e8e3bb037dc588ac00000000", "vin": [{"sequence": 4294967295, "scriptSig": {"hex": "4730440220351e023fc7ce9c13dfb46b6b4903b9163c57d53e4f6b0e443dcd45bc02abff8302204e4d6683c5735533924973067853888c917cae5d4e17abdc69a899d6144e31c901210236abf59931c9ebf8634e9b65e801fedf2ead188f7812e93438fe74a57c09c4ee", "asm": "30440220351e023fc7ce9c13dfb46b6b4903b9163c57d53e4f6b0e443dcd45bc02abff8302204e4d6683c5735533924973067853888c917cae5d4e17abdc69a899d6144e31c9[ALL] 0236abf59931c9ebf8634e9b65e801fedf2ead188f7812e93438fe74a57c09c4ee"}, "vout": 17, "txid": "33de3dcfbee4fa74b6b067b2619f4792a9dc68b0191feb19de24347292ccca39"}], "txid": "3c07a492595d8b3ba24dc5ab4c02d02500fb7972e67880eadac809adfdc02fe5", "blocktime": 1537873282, "version": 1, "confirmations": 11481, "time": 1537873282, "locktime": 0, "vsize": 225, "size": 225}