{"hash": "3a8fe71390aa2edf46d6addfb3dc352bcb10dd5b1f043fbf033580c56dec7968", "blockhash": "0000000000000000000dcc0f55137456b1a82d3642486a52398922ac4d620174", "vout": [{"scriptPubKey": {"reqSigs": 1, "hex": "a914579c6c7c852e140decccdf4c0be87f6579b277ef87", "addresses": ["39gG6kJbf6sTX45g1a3Z5L3puKiLLy8Lwf"], "asm": "OP_HASH160 579c6c7c852e140decccdf4c0be87f6579b277ef OP_EQUAL", "type": "scripthash"}, "value": 0.000915, "n": 0}, {"scriptPubKey": {"reqSigs": 1, "hex": "0014d21a09ff754d5b6a404075052dfa1485d196d5e2", "addresses": ["bc1q6gdqnlm4f4dk5szqw5zjm7s5shged40zv32sv9"], "asm": "0 d21a09ff754d5b6a404075052dfa1485d196d5e2", "type": "witness_v0_keyhash"}, "value": 1.494e-05, "n": 1}], "hex": "010000000001015696235f4fc55730d728acdf5f73125438b708ad452f540772d024d9817cb56a0000000000ffffffff026c6501000000000017a914579c6c7c852e140decccdf4c0be87f6579b277ef87d605000000000000160014d21a09ff754d5b6a404075052dfa1485d196d5e20247304402202e362acf55ce94e034be962145d475ed8019761a96a33052490eba480277b7ce02202699cd0ec60fb57f3f44c9ac43f9119908064cc14a21b21bd74a67e5b3cbfe060121034e171ad246c0c7b4605cd5c8cdf00b7aa83dddb5903f3da6d2e301db1211ec0800000000", "vin": [{"txinwitness": ["304402202e362acf55ce94e034be962145d475ed8019761a96a33052490eba480277b7ce02202699cd0ec60fb57f3f44c9ac43f9119908064cc14a21b21bd74a67e5b3cbfe0601", "034e171ad246c0c7b4605cd5c8cdf00b7aa83dddb5903f3da6d2e301db1211ec08"], "sequence": 4294967295, "scriptSig": {"hex": "", "asm": ""}, "vout": 0, "txid": "6ab57c81d924d07207542f45ad08b7385412735fdfac28d73057c54f5f239656"}], "txid": "3c0785dbe722596159c8ce6f07df3da75b826e010dc79a10f4fc2faee74cfd1f", "blocktime": 1537870268, "version": 1, "confirmations": 11518, "time": 1537870268, "locktime": 0, "vsize": 142, "size": 223}