{"hash": "3c0ee068da38d1eec48444358c572eb9c7a6088cd402f2e941e0a0718688b505", "blockhash": "00000000000000000017f5eb5941039fbcee6240d03bc1f2f8e35350df66a1d8", "vout": [{"scriptPubKey": {"reqSigs": 1, "hex": "76a914b5cdce2d5eb202efc8d38e7dbcc6e709cc625d2588ac", "addresses": ["1HaHrL8PZtaRRuLyHjYtBiBjg1Rx7QJ4pJ"], "asm": "OP_DUP OP_HASH160 b5cdce2d5eb202efc8d38e7dbcc6e709cc625d25 OP_EQUALVERIFY OP_CHECKSIG", "type": "pubkeyhash"}, "value": 5.46e-06, "n": 0}, {"scriptPubKey": {"reqSigs": 1, "hex": "a9143f4eecba122ad73039d481c8d37f99cb4f887cd887", "addresses": ["37Tm3Qz8Zw2VJrheUUhArDAoq58S6YrS3g"], "asm": "OP_HASH160 3f4eecba122ad73039d481c8d37f99cb4f887cd8 OP_EQUAL", "type": "scripthash"}, "value": 0.99989816, "n": 1}, {"scriptPubKey": {"type": "nulldata", "hex": "6a146f6d6e69000000000000001f0000005b61383ee0", "asm": "OP_RETURN 6f6d6e69000000000000001f0000005b61383ee0"}, "value": 0.0, "n": 2}], "hex": "0100000001552fb3dc7ee4bfc3b42475fe76941ca6b0b702ead70d449e585d1fbab5bf063001000000fdfd0000483045022100846fecfca626b7fa052c5b37f3818d0be1abb09208f7dc1edce40044e858598a02202da331b4161fe86202f6f4d02b61fc8545270bab0c80347cc0f6173580a0b42d014730440220077b823f9239ab9bf0ec404dfcdcaebebfc55e18998272d4a743e359de0fb860022048d3928eb797be328a267c2f8fd5dc316b9f741df03af2bd192ee012f1e3345e014c6952210246ccf4de0c54cc7f3354cdd993c2c50cf965fd82238b89659fbd73a1b4bf05a121024fc59f72272a897fe43803374969f396058152fe4765a8d15216f94624257b1b21022593bc69ecbf3bbcc3c58082267cb49dadaf4ca8dbf1b2297338a9d628c4297653aeffffffff0322020000000000001976a914b5cdce2d5eb202efc8d38e7dbcc6e709cc625d2588ac38b9f5050000000017a9143f4eecba122ad73039d481c8d37f99cb4f887cd8870000000000000000166a146f6d6e69000000000000001f0000005b61383ee000000000", "vin": [{"sequence": 4294967295, "scriptSig": {"hex": "00483045022100846fecfca626b7fa052c5b37f3818d0be1abb09208f7dc1edce40044e858598a02202da331b4161fe86202f6f4d02b61fc8545270bab0c80347cc0f6173580a0b42d014730440220077b823f9239ab9bf0ec404dfcdcaebebfc55e18998272d4a743e359de0fb860022048d3928eb797be328a267c2f8fd5dc316b9f741df03af2bd192ee012f1e3345e014c6952210246ccf4de0c54cc7f3354cdd993c2c50cf965fd82238b89659fbd73a1b4bf05a121024fc59f72272a897fe43803374969f396058152fe4765a8d15216f94624257b1b21022593bc69ecbf3bbcc3c58082267cb49dadaf4ca8dbf1b2297338a9d628c4297653ae", "asm": "0 3045022100846fecfca626b7fa052c5b37f3818d0be1abb09208f7dc1edce40044e858598a02202da331b4161fe86202f6f4d02b61fc8545270bab0c80347cc0f6173580a0b42d[ALL] 30440220077b823f9239ab9bf0ec404dfcdcaebebfc55e18998272d4a743e359de0fb860022048d3928eb797be328a267c2f8fd5dc316b9f741df03af2bd192ee012f1e3345e[ALL] 52210246ccf4de0c54cc7f3354cdd993c2c50cf965fd82238b89659fbd73a1b4bf05a121024fc59f72272a897fe43803374969f396058152fe4765a8d15216f94624257b1b21022593bc69ecbf3bbcc3c58082267cb49dadaf4ca8dbf1b2297338a9d628c4297653ae"}, "vout": 1, "txid": "3006bfb5ba1f5d589e440dd7ea02b7b0a61c9476fe7524b4c3bfe47edcb32f55"}], "txid": "3c0ee068da38d1eec48444358c572eb9c7a6088cd402f2e941e0a0718688b505", "blocktime": 1537874412, "version": 1, "confirmations": 11467, "time": 1537874412, "locktime": 0, "vsize": 403, "size": 403}