{"hash": "3c15ae3db93285a2f3c1cc0a11f2b093c6499b434cd4d2590df059f8bdf52dd0", "blockhash": "00000000000000000004ffacab907a6b429b9a5745fa0b75af4234bf69dd7176", "vout": [{"scriptPubKey": {"reqSigs": 1, "hex": "76a914e06dd33ad7602702a4f59a9f634ddf3a5f1a48a088ac", "addresses": ["1MTfvkfjDoUHdSf6Niw9JV4zaH9QEaQu8c"], "asm": "OP_DUP OP_HASH160 e06dd33ad7602702a4f59a9f634ddf3a5f1a48a0 OP_EQUALVERIFY OP_CHECKSIG", "type": "pubkeyhash"}, "value": 0.9, "n": 0}, {"scriptPubKey": {"reqSigs": 1, "hex": "76a914c94746abf695e3f56c0532961e535ef7ed31b4f788ac", "addresses": ["1KMGCuX3sniGaAWtj3KcTBjBXfrTLq3rQ1"], "asm": "OP_DUP OP_HASH160 c94746abf695e3f56c0532961e535ef7ed31b4f7 OP_EQUALVERIFY OP_CHECKSIG", "type": "pubkeyhash"}, "value": 3.31802, "n": 1}], "hex": "0100000001b78a703fadf0a92ca067a62940fba7e741b079c7007422b0c1a043e4c9bd14b4010000006a473044022007c18b009ed7730bd4bd5514f70521fa5f7d848899e1fbcfe36f0c612eb58660022039c98da52ca915f4d990b2837c809235d372fd3a2dd2fd5d444696290e09902a01210240d8241e091ed2f48142f291345d2219d08055616fb7176e73bb7dc2c624e27affffffff02804a5d05000000001976a914e06dd33ad7602702a4f59a9f634ddf3a5f1a48a088ac90e5c613000000001976a914c94746abf695e3f56c0532961e535ef7ed31b4f788ac00000000", "vin": [{"sequence": 4294967295, "scriptSig": {"hex": "473044022007c18b009ed7730bd4bd5514f70521fa5f7d848899e1fbcfe36f0c612eb58660022039c98da52ca915f4d990b2837c809235d372fd3a2dd2fd5d444696290e09902a01210240d8241e091ed2f48142f291345d2219d08055616fb7176e73bb7dc2c624e27a", "asm": "3044022007c18b009ed7730bd4bd5514f70521fa5f7d848899e1fbcfe36f0c612eb58660022039c98da52ca915f4d990b2837c809235d372fd3a2dd2fd5d444696290e09902a[ALL] 0240d8241e091ed2f48142f291345d2219d08055616fb7176e73bb7dc2c624e27a"}, "vout": 1, "txid": "b414bdc9e443a0c1b0227400c779b041e7a7fb4029a667a02ca9f0ad3f708ab7"}], "txid": "3c15ae3db93285a2f3c1cc0a11f2b093c6499b434cd4d2590df059f8bdf52dd0", "blocktime": 1537875543, "version": 1, "confirmations": 11464, "time": 1537875543, "locktime": 0, "vsize": 225, "size": 225}