{"hash": "6038fbe6be4f78ecaf12dfeb16837ca2f894a9416089a92d4a309b022eb0c3df", "blockhash": "0000000000000000001e0dab787dd257d1dbfcb92a98c2207d5e1078be1f4165", "vout": [{"scriptPubKey": {"reqSigs": 1, "hex": "a914dd3bc465cd4fa4ac7965381f79d455d088676ad187", "addresses": ["3Mrnrdm9vMUdH6rnbPwLzs3Z5ZqJyqvo7A"], "asm": "OP_HASH160 dd3bc465cd4fa4ac7965381f79d455d088676ad1 OP_EQUAL", "type": "scripthash"}, "value": 0.01393674, "n": 0}, {"scriptPubKey": {"reqSigs": 1, "hex": "a914e3c23f6c40ac707eb40cfce7c934159120d283b987", "addresses": ["3NTJ1fBuXGCTnDDxCFBcS6ck465kgcs5Tk"], "asm": "OP_HASH160 e3c23f6c40ac707eb40cfce7c934159120d283b9 OP_EQUAL", "type": "scripthash"}, "value": 0.05347371, "n": 1}], "hex": "01000000000102996e883a5f74cc304a5799b4d295169d340fad05fb4ab774d37d8e07cde46faa01000000232200209256c8b0635c23a50ef27921b0ffe42c3b15fcb261f433b51c4d74cb7c7fc939ffffffff3ece3945951cfe2590138b72934ed57a6d6e82f7e24811d40a25fd73581b76a80200000023220020d069e1eab55fc725be9c40d73634338d909f8504a5332068d4c2a590e00a7a12ffffffff020a4415000000000017a914dd3bc465cd4fa4ac7965381f79d455d088676ad1872b9851000000000017a914e3c23f6c40ac707eb40cfce7c934159120d283b9870400483045022100b0a13441adc9da637eb1b74d3b8a5dfe2ae028d3bdb93bc79f2f1335bf34a9b602200f12219ef4ddf014c31bcdf4fba395eed09f178aecae924a8d5f89525cf06d5001483045022100d9924eec6f123c501e342c5a04379edddd1a7889f901b36e0d28dfddcb6a91fb02207596aea69954e7c443bc810d19950ca3c4dd017587c54c20b955fcd55be2f4af01475221025c30ff3176a857138dcb1924eed403b509196dca286458004566b43301ed4e8d21038407424ead2b88063db2d589e50c34e1572f6b82eb9e266dec536939ee0db9eb52ae040047304402200e2838fe8648bb6feba933a2e5ec0e8191ae6143568c48b8f75cdaae35b2cea9022003a99046e6b2fc60388f9d6c2003f698ebe8f34f0f1bc316ba5a78b30d1cffb801483045022100f07443475b17f506f36c509d079aaa68041b6899f18bf2a994c484649fdc0f68022057624f18319b7b401d39ff35e34fb3886519db6903006ef61bc8eb08f827225d01475221039bb1e6425d299f239652e6fc5cb76c9241daea6b59b87860ad7e0cf569f50f8d21038407424ead2b88063db2d589e50c34e1572f6b82eb9e266dec536939ee0db9eb52ae00000000", "vin": [{"txinwitness": ["", "3045022100b0a13441adc9da637eb1b74d3b8a5dfe2ae028d3bdb93bc79f2f1335bf34a9b602200f12219ef4ddf014c31bcdf4fba395eed09f178aecae924a8d5f89525cf06d5001", "3045022100d9924eec6f123c501e342c5a04379edddd1a7889f901b36e0d28dfddcb6a91fb02207596aea69954e7c443bc810d19950ca3c4dd017587c54c20b955fcd55be2f4af01", "5221025c30ff3176a857138dcb1924eed403b509196dca286458004566b43301ed4e8d21038407424ead2b88063db2d589e50c34e1572f6b82eb9e266dec536939ee0db9eb52ae"], "sequence": 4294967295, "scriptSig": {"hex": "2200209256c8b0635c23a50ef27921b0ffe42c3b15fcb261f433b51c4d74cb7c7fc939", "asm": "00209256c8b0635c23a50ef27921b0ffe42c3b15fcb261f433b51c4d74cb7c7fc939"}, "vout": 1, "txid": "aa6fe4cd078e7dd374b74afb05ad0f349d1695d2b499574a30cc745f3a886e99"}, {"txinwitness": ["", "304402200e2838fe8648bb6feba933a2e5ec0e8191ae6143568c48b8f75cdaae35b2cea9022003a99046e6b2fc60388f9d6c2003f698ebe8f34f0f1bc316ba5a78b30d1cffb801", "3045022100f07443475b17f506f36c509d079aaa68041b6899f18bf2a994c484649fdc0f68022057624f18319b7b401d39ff35e34fb3886519db6903006ef61bc8eb08f827225d01", "5221039bb1e6425d299f239652e6fc5cb76c9241daea6b59b87860ad7e0cf569f50f8d21038407424ead2b88063db2d589e50c34e1572f6b82eb9e266dec536939ee0db9eb52ae"], "sequence": 4294967295, "scriptSig": {"hex": "220020d069e1eab55fc725be9c40d73634338d909f8504a5332068d4c2a590e00a7a12", "asm": "0020d069e1eab55fc725be9c40d73634338d909f8504a5332068d4c2a590e00a7a12"}, "vout": 2, "txid": "a8761b5873fd250ad41148e2f7826e6d7ad54e93728b139025fe1c954539ce3e"}], "txid": "3c179702357691a635e0f0a7af119ba7e12181c60c24c9d085f10d6df950bdca", "blocktime": 1537872475, "version": 1, "confirmations": 11486, "time": 1537872475, "locktime": 0, "vsize": 337, "size": 667}