{"hash": "3c1962039ee2b968084f805de2faf5313ffbac1032f5b8e24831cc2271b5feb5", "blockhash": "00000000000000000018f53835495a110e01622372bf6ae95dc86f2b0ab887b0", "vout": [{"scriptPubKey": {"reqSigs": 1, "hex": "76a914a22430ca8347165f7d9b2212b4db3ed77e7bef1a88ac", "addresses": ["1FnKpeHREBCfbvzDQzbhCGK7UEtS7VXU5S"], "asm": "OP_DUP OP_HASH160 a22430ca8347165f7d9b2212b4db3ed77e7bef1a OP_EQUALVERIFY OP_CHECKSIG", "type": "pubkeyhash"}, "value": 0.00343712, "n": 0}, {"scriptPubKey": {"reqSigs": 1, "hex": "76a9145a2f84751ebe49b1c38a219c2afce5a26f33df7488ac", "addresses": ["19DrjqHEVTW1LQoYTz3NsE6RG8fud2Qf34"], "asm": "OP_DUP OP_HASH160 5a2f84751ebe49b1c38a219c2afce5a26f33df74 OP_EQUALVERIFY OP_CHECKSIG", "type": "pubkeyhash"}, "value": 0.02427137, "n": 1}], "hex": "0100000001f4c3e44fa1f7a99d9f780826c2fbe1416784404d23f6b9ae069a3daf72e32bfa010000006a473044022032c6987801027a3d1e17356969235c1cec27a1d45ea530130dbeb5859bc34acc02201e55f503680de74fd3e7109bec1ae44bf6613454033233de09ee9837a043651a012103c7d0e942bfbc4e7e2fd290d094e627d61240c398d88b543fed24331b6b723455ffffffff02a03e0500000000001976a914a22430ca8347165f7d9b2212b4db3ed77e7bef1a88ac01092500000000001976a9145a2f84751ebe49b1c38a219c2afce5a26f33df7488ac00000000", "vin": [{"sequence": 4294967295, "scriptSig": {"hex": "473044022032c6987801027a3d1e17356969235c1cec27a1d45ea530130dbeb5859bc34acc02201e55f503680de74fd3e7109bec1ae44bf6613454033233de09ee9837a043651a012103c7d0e942bfbc4e7e2fd290d094e627d61240c398d88b543fed24331b6b723455", "asm": "3044022032c6987801027a3d1e17356969235c1cec27a1d45ea530130dbeb5859bc34acc02201e55f503680de74fd3e7109bec1ae44bf6613454033233de09ee9837a043651a[ALL] 03c7d0e942bfbc4e7e2fd290d094e627d61240c398d88b543fed24331b6b723455"}, "vout": 1, "txid": "fa2be372af3d9a06aeb9f6234d40846741e1fbc22608789f9da9f7a14fe4c3f4"}], "txid": "3c1962039ee2b968084f805de2faf5313ffbac1032f5b8e24831cc2271b5feb5", "blocktime": 1537870928, "version": 1, "confirmations": 11514, "time": 1537870928, "locktime": 0, "vsize": 225, "size": 225}