{"hash": "db52661413e3705bf9f8c5256178430502cc2e33a7ef0f9d4b783fec46f90ea0", "blockhash": "0000000000000000001f0ddff1eddb255c1121bcd4da4f1bc9a0da00cae72433", "vout": [{"scriptPubKey": {"reqSigs": 1, "hex": "76a91425a24a98583266e4df248c1f7cd3e819ad22fce288ac", "addresses": ["14RzRJTWxJpaUC7yfBkjSCY6JyQ2pVERQJ"], "asm": "OP_DUP OP_HASH160 25a24a98583266e4df248c1f7cd3e819ad22fce2 OP_EQUALVERIFY OP_CHECKSIG", "type": "pubkeyhash"}, "value": 0.0031886, "n": 0}, {"scriptPubKey": {"reqSigs": 1, "hex": "a9145f3b2be0b8d2a7e46bcbbcc7f48ac70bf674cf2287", "addresses": ["3ANZ14vU11yrDjcwJ6Nr8kXJGCwU5dKnmu"], "asm": "OP_HASH160 5f3b2be0b8d2a7e46bcbbcc7f48ac70bf674cf22 OP_EQUAL", "type": "scripthash"}, "value": 0.01000457, "n": 1}], "hex": "02000000000102903be3a2acd53788b9d1bea1318fa736662ace3bb63f7325d6249990a738c86e0100000017160014e5d37970f940f0e8c9fc6f65bbfa6eaf42828a6afeffffff9ef32be16b608b9d302d67db5ca6ba711ba3446420e038a8475255f925416bf510000000171600147f1ccb4c1c86118af8001d1e2071cbc8af5afe22feffffff028cdd0400000000001976a91425a24a98583266e4df248c1f7cd3e819ad22fce288ac09440f000000000017a9145f3b2be0b8d2a7e46bcbbcc7f48ac70bf674cf228702483045022100d67b6a85d03a57012fa441395e28d2022705016f475e9756c735b7e045bdc50e02206287408e9f164faf89ba3d9c680aac6f140c906cf2de167a65b34306e190d55c0121026c3906567385b6f676f0869ccd8c26485acc71dee20b236135dd7881e51a521702483045022100caaa2c8a2c7cdbc82a26ae0f430471f77c7a7636593bb742c208eb82bb1abcba02201fdcefb656991bf5dd99da3d06a048246997b01db7cde9005e4fb0d3ac7525e4012103155d4e186cd40704c7d5fe149858300ef819becf202163a71c4d5109008c58d111490800", "vin": [{"txinwitness": ["3045022100d67b6a85d03a57012fa441395e28d2022705016f475e9756c735b7e045bdc50e02206287408e9f164faf89ba3d9c680aac6f140c906cf2de167a65b34306e190d55c01", "026c3906567385b6f676f0869ccd8c26485acc71dee20b236135dd7881e51a5217"], "sequence": 4294967294, "scriptSig": {"hex": "160014e5d37970f940f0e8c9fc6f65bbfa6eaf42828a6a", "asm": "0014e5d37970f940f0e8c9fc6f65bbfa6eaf42828a6a"}, "vout": 1, "txid": "6ec838a7909924d625733fb63bce2a6636a78f31a1bed1b98837d5aca2e33b90"}, {"txinwitness": ["3045022100caaa2c8a2c7cdbc82a26ae0f430471f77c7a7636593bb742c208eb82bb1abcba02201fdcefb656991bf5dd99da3d06a048246997b01db7cde9005e4fb0d3ac7525e401", "03155d4e186cd40704c7d5fe149858300ef819becf202163a71c4d5109008c58d1"], "sequence": 4294967294, "scriptSig": {"hex": "1600147f1ccb4c1c86118af8001d1e2071cbc8af5afe22", "asm": "00147f1ccb4c1c86118af8001d1e2071cbc8af5afe22"}, "vout": 16, "txid": "f56b4125f9555247a838e0206444a31b71baa65cdb672d309d8b606be12bf39e"}], "txid": "3c1b02f07575ca17e8836b50625b0b0e6b0d3de318f906b671a7210bd21f46f8", "blocktime": 1537872018, "version": 2, "confirmations": 11489, "time": 1537872018, "locktime": 542993, "vsize": 259, "size": 422}