{"hash": "33f712af45a0e9ce50fd0067854a564a09d5118ae095a31d1d2af06ba133ac6b", "blockhash": "0000000000000000001f0ddff1eddb255c1121bcd4da4f1bc9a0da00cae72433", "vout": [{"scriptPubKey": {"type": "nulldata", "hex": "6a146f6d6e69000000000000001f0000000230489e00", "asm": "OP_RETURN 6f6d6e69000000000000001f0000000230489e00"}, "value": 0.0, "n": 0}, {"scriptPubKey": {"reqSigs": 1, "hex": "76a914ac09f1c6cfcc0b17353d469787e84648165a200488ac", "addresses": ["1Ggf8wuTUTF3UFzh61Q7W4hrWqKC8k2qtL"], "asm": "OP_DUP OP_HASH160 ac09f1c6cfcc0b17353d469787e84648165a2004 OP_EQUALVERIFY OP_CHECKSIG", "type": "pubkeyhash"}, "value": 2.73e-05, "n": 1}, {"scriptPubKey": {"reqSigs": 1, "hex": "a914e818e90b8e6b38dba66f74b35cb708bbc73e2ea787", "addresses": ["3NrEXrB9qAxXYfRt6jKtBD8QzoU2qtNWDR"], "asm": "OP_HASH160 e818e90b8e6b38dba66f74b35cb708bbc73e2ea7 OP_EQUAL", "type": "scripthash"}, "value": 0.01015517, "n": 2}], "hex": "010000000001029ccffdfd849869afa5e30dd772af40c0c0adc9f43af435e132ccd99852d63e1f0100000017160014000b814f2c1a19852357ed615a08ec572a781ed1ffffffff3b149d059fb66cca6aa96f551bce56a903993e0bfd0cb542ca30d03508a9204a08000000171600149f37f3619644fcd11ebf7bf83af1076ea1550c10ffffffff030000000000000000166a146f6d6e69000000000000001f0000000230489e00aa0a0000000000001976a914ac09f1c6cfcc0b17353d469787e84648165a200488acdd7e0f000000000017a914e818e90b8e6b38dba66f74b35cb708bbc73e2ea78702473044022078bf93e1ffa2cd86852440a0e666bc5623b4ce6c3b1727692f271d55cc94d31902207cd66c0405103349b0fadd4561b2255e2b878e09e1a113e1fdf277ec1cff7553012102aad79950b2c2af3689e8644c89e9d10dff06c2d8926200496b92e9f7ccb0304c02483045022100c8ce560d0b8e2bd4f9db58661de0930419d57e4bf23049359395bd8e94e6b6ca022071e732e32eac4bd5381ddfdfb360affd327ddb79120ac2e1e056717d3997fcbe01210355c2d91228913921564eed25cc9d7edb59297df61d2830f1202ad6831ac0c37d00000000", "vin": [{"txinwitness": ["3044022078bf93e1ffa2cd86852440a0e666bc5623b4ce6c3b1727692f271d55cc94d31902207cd66c0405103349b0fadd4561b2255e2b878e09e1a113e1fdf277ec1cff755301", "02aad79950b2c2af3689e8644c89e9d10dff06c2d8926200496b92e9f7ccb0304c"], "sequence": 4294967295, "scriptSig": {"hex": "160014000b814f2c1a19852357ed615a08ec572a781ed1", "asm": "0014000b814f2c1a19852357ed615a08ec572a781ed1"}, "vout": 1, "txid": "1f3ed65298d9cc32e135f43af4c9adc0c040af72d70de3a5af699884fdfdcf9c"}, {"txinwitness": ["3045022100c8ce560d0b8e2bd4f9db58661de0930419d57e4bf23049359395bd8e94e6b6ca022071e732e32eac4bd5381ddfdfb360affd327ddb79120ac2e1e056717d3997fcbe01", "0355c2d91228913921564eed25cc9d7edb59297df61d2830f1202ad6831ac0c37d"], "sequence": 4294967295, "scriptSig": {"hex": "1600149f37f3619644fcd11ebf7bf83af1076ea1550c10", "asm": "00149f37f3619644fcd11ebf7bf83af1076ea1550c10"}, "vout": 8, "txid": "4a20a90835d030ca42b50cfd0b3e9903a956ce1b556fa96aca6cb69f059d143b"}], "txid": "3c1be849013910efc3427694a7b5b2649f55525b48afb3c1d4792c36f8a94730", "blocktime": 1537872018, "version": 1, "confirmations": 11489, "time": 1537872018, "locktime": 0, "vsize": 290, "size": 452}