{"hash": "3c1d1b64d0313e5536acc1326737a9028d983c5e56d5dbf897b02cefc2d9843a", "blockhash": "0000000000000000000dcc0f55137456b1a82d3642486a52398922ac4d620174", "vout": [{"scriptPubKey": {"reqSigs": 1, "hex": "a91444c0cec7c53cecb2a1a5c248286d4e29a3fdf59687", "addresses": ["37xYr71zSMh2fvLkdFNe4NUEtCw6VF7q7q"], "asm": "OP_HASH160 44c0cec7c53cecb2a1a5c248286d4e29a3fdf596 OP_EQUAL", "type": "scripthash"}, "value": 0.00202325, "n": 0}, {"scriptPubKey": {"reqSigs": 1, "hex": "76a91471b78660849d236b652edaaf3a81abf3635d763288ac", "addresses": ["1BNHDDFK51sUVcjmnG9ySXoDz3QjB5qxwt"], "asm": "OP_DUP OP_HASH160 71b78660849d236b652edaaf3a81abf3635d7632 OP_EQUALVERIFY OP_CHECKSIG", "type": "pubkeyhash"}, "value": 0.00431863, "n": 1}], "hex": "010000000103dd47bbf0a87f746a9fe885702a787458842aa7756abbb3f9257edd98ab2a13010000006a47304402202feda4c8b1517f4d1efa4db2430498a782ca7e1a3494fb56dd957c30697479020220365d544e11b96acfe72b55cfd9256bc5705d09e5fdb62d3aac21560a6635506a0121037affde7c573882bed1f1e6af8f27e319e3395618846e4ef85e6ff5db51e7617dffffffff02551603000000000017a91444c0cec7c53cecb2a1a5c248286d4e29a3fdf59687f7960600000000001976a91471b78660849d236b652edaaf3a81abf3635d763288ac00000000", "vin": [{"sequence": 4294967295, "scriptSig": {"hex": "47304402202feda4c8b1517f4d1efa4db2430498a782ca7e1a3494fb56dd957c30697479020220365d544e11b96acfe72b55cfd9256bc5705d09e5fdb62d3aac21560a6635506a0121037affde7c573882bed1f1e6af8f27e319e3395618846e4ef85e6ff5db51e7617d", "asm": "304402202feda4c8b1517f4d1efa4db2430498a782ca7e1a3494fb56dd957c30697479020220365d544e11b96acfe72b55cfd9256bc5705d09e5fdb62d3aac21560a6635506a[ALL] 037affde7c573882bed1f1e6af8f27e319e3395618846e4ef85e6ff5db51e7617d"}, "vout": 1, "txid": "132aab98dd7e25f9b3bb6a75a72a845874782a7085e89f6a747fa8f0bb47dd03"}], "txid": "3c1d1b64d0313e5536acc1326737a9028d983c5e56d5dbf897b02cefc2d9843a", "blocktime": 1537870268, "version": 1, "confirmations": 11517, "time": 1537870268, "locktime": 0, "vsize": 223, "size": 223}