{"hash": "6c2c00a21f2a6af2b047fdf473aca85df4a13943afb43cfaa454709fb0e22b56", "blockhash": "000000000000000000022b45ed06c6f4ccd3cf7fb5ba4856ebd2e58215665228", "vout": [{"scriptPubKey": {"reqSigs": 1, "hex": "a9142f9257b273f5146f993b515f1a03c5efff22842687", "addresses": ["362YzctWhteeTu7ac69Q4g6BZax3qq8rHf"], "asm": "OP_HASH160 2f9257b273f5146f993b515f1a03c5efff228426 OP_EQUAL", "type": "scripthash"}, "value": 0.00563147, "n": 0}, {"scriptPubKey": {"reqSigs": 1, "hex": "a9144c0f8c110117c9066bc5c0b15f38641102c220cf87", "addresses": ["38dBuMeDHuvRw3bh7djLvN1Byad8jELt3i"], "asm": "OP_HASH160 4c0f8c110117c9066bc5c0b15f38641102c220cf OP_EQUAL", "type": "scripthash"}, "value": 0.01013516, "n": 1}], "hex": "02000000000103309f9cc977fc89dfa3ee0be7a9218415e406d058c3277f1a91adfba05a9357f4b600000017160014ded31809a5a6b9f1c8325cc6a7cf66f183a8fa95feffffffaf50ab82c8d7494f729c022f0979c2387aaa342d9ffb3a28ff198ce13151df8f010000001716001412f7cb75673b8100f29ed3f45a929773374c92d9feffffffbb962d4aa42174072a52232d4912720e0d8a6e928a6965f76340eabba613eefa0000000017160014eb00865c8e0efa1fe982ef475d31b3e0d3a349bffeffffff02cb9708000000000017a9142f9257b273f5146f993b515f1a03c5efff228426870c770f000000000017a9144c0f8c110117c9066bc5c0b15f38641102c220cf8702483045022100f19d875143f8bf7ab8f992055c08ee8b11ad2e3f4d763be669385de6767efb8602204d02cdd0f5e815ff9a9bf47f20fd75d97da5a23c015ef4fc4a0c8b27efb8d0b80121027587554da09f1cb70a26d4a2c76cb6676d0dde85ac74d3e0a5c2a46411dcec4f024830450221009e0075156319477605d98e91cee91d45ffbf68bf7e821d6a07599348b343fcc002205d8495f703dc7275daac5355c3b92d037acead782ba0bc963e7b24feb6c038790121033220c1272a35ecf965ffd59ea6b99b43f0d64595694ebd4920b5fe3b4d484d94024830450221008a334afddbd0c58deab1bdfcf98f38dbfca866bf0d75d96c7291c152423644190220758103c458563ac0a739eb5cd3ce0f1ae56cbfffb7a70353aeb5064e4f112144012102e24488b1424a83d0bc075cffe6c783c7dcad91c78a3d5b5687fe0073b3c8f2660b490800", "vin": [{"txinwitness": ["3045022100f19d875143f8bf7ab8f992055c08ee8b11ad2e3f4d763be669385de6767efb8602204d02cdd0f5e815ff9a9bf47f20fd75d97da5a23c015ef4fc4a0c8b27efb8d0b801", "027587554da09f1cb70a26d4a2c76cb6676d0dde85ac74d3e0a5c2a46411dcec4f"], "sequence": 4294967294, "scriptSig": {"hex": "160014ded31809a5a6b9f1c8325cc6a7cf66f183a8fa95", "asm": "0014ded31809a5a6b9f1c8325cc6a7cf66f183a8fa95"}, "vout": 182, "txid": "f457935aa0fbad911a7f27c358d006e4158421a9e70beea3df89fc77c99c9f30"}, {"txinwitness": ["30450221009e0075156319477605d98e91cee91d45ffbf68bf7e821d6a07599348b343fcc002205d8495f703dc7275daac5355c3b92d037acead782ba0bc963e7b24feb6c0387901", "033220c1272a35ecf965ffd59ea6b99b43f0d64595694ebd4920b5fe3b4d484d94"], "sequence": 4294967294, "scriptSig": {"hex": "16001412f7cb75673b8100f29ed3f45a929773374c92d9", "asm": "001412f7cb75673b8100f29ed3f45a929773374c92d9"}, "vout": 1, "txid": "8fdf5131e18c19ff283afb9f2d34aa7a38c279092f029c724f49d7c882ab50af"}, {"txinwitness": ["30450221008a334afddbd0c58deab1bdfcf98f38dbfca866bf0d75d96c7291c152423644190220758103c458563ac0a739eb5cd3ce0f1ae56cbfffb7a70353aeb5064e4f11214401", "02e24488b1424a83d0bc075cffe6c783c7dcad91c78a3d5b5687fe0073b3c8f266"], "sequence": 4294967294, "scriptSig": {"hex": "160014eb00865c8e0efa1fe982ef475d31b3e0d3a349bf", "asm": "0014eb00865c8e0efa1fe982ef475d31b3e0d3a349bf"}, "vout": 0, "txid": "faee13a6bbea4063f765698a926e8a0d0e7212492d23522a077421a44a2d96bb"}], "txid": "3c2643ea0b855d24696c0fe39ec93e7697869c704b0577c4b0107af879078bc9", "blocktime": 1537869901, "version": 2, "confirmations": 11524, "time": 1537869901, "locktime": 542987, "vsize": 348, "size": 592}