{"hash": "99e098c1a199614cf01797c2ed6247ec6c7142689c8e076af8ef9dd160a326d9", "blockhash": "0000000000000000001cda96e906b7601b7a6fb1a3b62bca570a9e5d8f4b3de1", "vout": [{"scriptPubKey": {"reqSigs": 1, "hex": "a9145c1a2b6a86942cca7b688b98e0f9aea467fcf79087", "addresses": ["3A61SVDyymUQht7zBFqGW6J4f9KBWSBMUs"], "asm": "OP_HASH160 5c1a2b6a86942cca7b688b98e0f9aea467fcf790 OP_EQUAL", "type": "scripthash"}, "value": 8.2977593, "n": 0}, {"scriptPubKey": {"reqSigs": 1, "hex": "a914fd90f468a343c403103a19e04de16264df62ee4587", "addresses": ["3QokXhzCzmgBXE8uo15NBYG1Yc6j1s66kP"], "asm": "OP_HASH160 fd90f468a343c403103a19e04de16264df62ee45 OP_EQUAL", "type": "scripthash"}, "value": 0.13543238, "n": 1}], "hex": "0200000000010128fcdc5d935c491ab634305d91157c96d6f1eeb071ef41a832e477dde2d9f7c20100000017160014855608e02ce3a81b269159b59b4fe3a57d24923bfeffffff023a6075310000000017a9145c1a2b6a86942cca7b688b98e0f9aea467fcf7908746a7ce000000000017a914fd90f468a343c403103a19e04de16264df62ee4587024730440220792e6f16efac97c67edfb44f4daf8b5d6c83397d61743fa55b193e2bc7687e0e02207f1aff011ff6c1dd25979ceeb97c2e19754f09bb97f32b7ca64ec0558808e3790121038b000c7b5fcd655ebd2471a14857df4e7a505fd24b8273ac57e10df1cbb5d21713490800", "vin": [{"txinwitness": ["30440220792e6f16efac97c67edfb44f4daf8b5d6c83397d61743fa55b193e2bc7687e0e02207f1aff011ff6c1dd25979ceeb97c2e19754f09bb97f32b7ca64ec0558808e37901", "038b000c7b5fcd655ebd2471a14857df4e7a505fd24b8273ac57e10df1cbb5d217"], "sequence": 4294967294, "scriptSig": {"hex": "160014855608e02ce3a81b269159b59b4fe3a57d24923b", "asm": "0014855608e02ce3a81b269159b59b4fe3a57d24923b"}, "vout": 1, "txid": "c2f7d9e2dd77e432a841ef71b0eef1d6967c15915d3034b61a495c935ddcfc28"}], "txid": "3c2fc0ed2b79436011c4378ca54ea180939515fe3bc8f1147cdf979ccd949c9d", "blocktime": 1537873282, "version": 2, "confirmations": 11480, "time": 1537873282, "locktime": 542995, "vsize": 166, "size": 247}