{"hash": "442f6dafcd0052cf3321e722f6729fd9047ef49c377e234e10ec5ffb5b01f855", "blockhash": "0000000000000000001f0ddff1eddb255c1121bcd4da4f1bc9a0da00cae72433", "vout": [{"scriptPubKey": {"reqSigs": 1, "hex": "76a914b1714545e7e250995495594872500fbf1ffcc01788ac", "addresses": ["1HBEJ8ikm5WW3Y7qMe4UVe643XX2nhJyGM"], "asm": "OP_DUP OP_HASH160 b1714545e7e250995495594872500fbf1ffcc017 OP_EQUALVERIFY OP_CHECKSIG", "type": "pubkeyhash"}, "value": 0.0009, "n": 0}, {"scriptPubKey": {"reqSigs": 1, "hex": "a914cb4e24a6272ac5f33b7400464bdb0fb0d2f83d9587", "addresses": ["3LDzhy4DpNuqHmWwoEPEiVcqSn4L6g5ccr"], "asm": "OP_HASH160 cb4e24a6272ac5f33b7400464bdb0fb0d2f83d95 OP_EQUAL", "type": "scripthash"}, "value": 0.01909496, "n": 1}], "hex": "020000000001012982c573cd2c505c8f917990c8d664ce66bb72e8406543feaa26c7e4a9da094e03000000171600143a3a1915d692d4609ab40b481a8dbc3ee938762dfeffffff02905f0100000000001976a914b1714545e7e250995495594872500fbf1ffcc01788acf8221d000000000017a914cb4e24a6272ac5f33b7400464bdb0fb0d2f83d958702483045022100e8ecc1227421e3862f9ac7d3cf8089d311bc54723bc358ece70ea74d3bc2c27f02207c2a0a455760ca43e630944cdb0f39d46fba8f47b88d1c82adbe894a8a3745100121030f066adbcaecde329ff86db37e24ed65c5bcda7fe556ef7784e5da780d02b0ff11490800", "vin": [{"txinwitness": ["3045022100e8ecc1227421e3862f9ac7d3cf8089d311bc54723bc358ece70ea74d3bc2c27f02207c2a0a455760ca43e630944cdb0f39d46fba8f47b88d1c82adbe894a8a37451001", "030f066adbcaecde329ff86db37e24ed65c5bcda7fe556ef7784e5da780d02b0ff"], "sequence": 4294967294, "scriptSig": {"hex": "1600143a3a1915d692d4609ab40b481a8dbc3ee938762d", "asm": "00143a3a1915d692d4609ab40b481a8dbc3ee938762d"}, "vout": 3, "txid": "4e09daa9e4c726aafe436540e872bb66ce64d6c89079918f5c502ccd73c58229"}], "txid": "3c30543edb65c1ac443e104d6bc900b7219780caa2d4824839d1fa40c2e9c291", "blocktime": 1537872018, "version": 2, "confirmations": 11489, "time": 1537872018, "locktime": 542993, "vsize": 168, "size": 250}