{"hash": "aba4857f772cf87e9afd073a25257cad7d74ae12ca08ff184c0949b67eadaf57", "blockhash": "0000000000000000001e0dab787dd257d1dbfcb92a98c2207d5e1078be1f4165", "vout": [{"scriptPubKey": {"reqSigs": 1, "hex": "76a914c768646415d55022dbae1c4955d3aa1332e9eb9f88ac", "addresses": ["1KBNXU9qrohMSeoVRv854Keq6qaqCJgjqQ"], "asm": "OP_DUP OP_HASH160 c768646415d55022dbae1c4955d3aa1332e9eb9f OP_EQUALVERIFY OP_CHECKSIG", "type": "pubkeyhash"}, "value": 0.00098, "n": 0}, {"scriptPubKey": {"reqSigs": 1, "hex": "0014ab2457e5735170ac2334adbc0f9a8ab7a25636ea", "addresses": ["bc1q4vj90etn29c2cge54k7qlx52k739vdh28w7cam"], "asm": "0 ab2457e5735170ac2334adbc0f9a8ab7a25636ea", "type": "witness_v0_keyhash"}, "value": 1.084e-05, "n": 1}], "hex": "01000000000101e4cba6ef6dda388cdc683df843bfe1ab38532aaafc60cf9d1d4b67a72088e3520100000000ffffffff02d07e0100000000001976a914c768646415d55022dbae1c4955d3aa1332e9eb9f88ac3c04000000000000160014ab2457e5735170ac2334adbc0f9a8ab7a25636ea0247304402200ceb4a1068da2822964c4230833c3daf46a356501fa401d868f579553947678f02207b5260ae535ee7652b2f19ea98130b45942c7a8e8719455c90060c86b1ff89f10121037df798227b0832309fcf54f6210e5e8f5ae72fad8d0669bcb4e71998679b360f00000000", "vin": [{"txinwitness": ["304402200ceb4a1068da2822964c4230833c3daf46a356501fa401d868f579553947678f02207b5260ae535ee7652b2f19ea98130b45942c7a8e8719455c90060c86b1ff89f101", "037df798227b0832309fcf54f6210e5e8f5ae72fad8d0669bcb4e71998679b360f"], "sequence": 4294967295, "scriptSig": {"hex": "", "asm": ""}, "vout": 1, "txid": "52e38820a7674b1d9dcf60fcaa2a5338abe1bf43f83d68dc8c38da6defa6cbe4"}], "txid": "3c38fec23d12f2b71f2a340e9e93ad3fdeeddf52fcdf54730acd76caf70d7bbe", "blocktime": 1537872475, "version": 1, "confirmations": 11487, "time": 1537872475, "locktime": 0, "vsize": 144, "size": 225}