{"hash": "3c42ae46401ca49385bbe2cd077870238611747b475a9bd7a0cc77e0bfdb36ab", "blockhash": "0000000000000000000baef3f32e3676a92c3b2e5da21b426e4f302fc371ce76", "vout": [{"scriptPubKey": {"type": "nulldata", "hex": "6a4c500000780b0001c62c37326542310d3c9be8c8702940d64fa54d8eb2d19ed074892d00f8e8be1f3df4655f94010073d44cbb5559c95baa1b140613da8f06ce6d2c1d100759d4ba30d2c37bb011d97e02cf", "asm": "OP_RETURN 0000780b0001c62c37326542310d3c9be8c8702940d64fa54d8eb2d19ed074892d00f8e8be1f3df4655f94010073d44cbb5559c95baa1b140613da8f06ce6d2c1d100759d4ba30d2c37bb011d97e02cf"}, "value": 0.0, "n": 0}, {"scriptPubKey": {"reqSigs": 1, "hex": "76a9145a4696fdd39dfd5a94f01c3b999806c8bd400dad88ac", "addresses": ["19ELNvz5paePi1A2skjy4ZbzVmzEkcvfXq"], "asm": "OP_DUP OP_HASH160 5a4696fdd39dfd5a94f01c3b999806c8bd400dad OP_EQUALVERIFY OP_CHECKSIG", "type": "pubkeyhash"}, "value": 0.00630616, "n": 1}], "hex": "010000000196c82208f548ae347adda814f1fffba80346831f9dc2b1612a20143d836d6c0f010000006a47304402201e00c8b06f908930141516401d2460ccf13a1bc8e6d994c6b3ef3e9caaf952f0022065e9887bbe285f359d3f99bdcb7a95e1241969a0c10b6a7ee5127ab49d230f03012102b2c9d12f1cbba314e37701700cf2754453f379e49263a696644d2609404087b4ffffffff020000000000000000536a4c500000780b0001c62c37326542310d3c9be8c8702940d64fa54d8eb2d19ed074892d00f8e8be1f3df4655f94010073d44cbb5559c95baa1b140613da8f06ce6d2c1d100759d4ba30d2c37bb011d97e02cf589f0900000000001976a9145a4696fdd39dfd5a94f01c3b999806c8bd400dad88ac00000000", "vin": [{"sequence": 4294967295, "scriptSig": {"hex": "47304402201e00c8b06f908930141516401d2460ccf13a1bc8e6d994c6b3ef3e9caaf952f0022065e9887bbe285f359d3f99bdcb7a95e1241969a0c10b6a7ee5127ab49d230f03012102b2c9d12f1cbba314e37701700cf2754453f379e49263a696644d2609404087b4", "asm": "304402201e00c8b06f908930141516401d2460ccf13a1bc8e6d994c6b3ef3e9caaf952f0022065e9887bbe285f359d3f99bdcb7a95e1241969a0c10b6a7ee5127ab49d230f03[ALL] 02b2c9d12f1cbba314e37701700cf2754453f379e49263a696644d2609404087b4"}, "vout": 1, "txid": "0f6c6d833d14202a61b1c29d1f834603a8fbfff114a8dd7a34ae48f50822c896"}], "txid": "3c42ae46401ca49385bbe2cd077870238611747b475a9bd7a0cc77e0bfdb36ab", "blocktime": 1537876114, "version": 1, "confirmations": 11463, "time": 1537876114, "locktime": 0, "vsize": 283, "size": 283}