{"hash": "3c43df418fc40ea433232c9f441ecc211849d66331781f1c454916599c172fcd", "blockhash": "000000000000000000022b45ed06c6f4ccd3cf7fb5ba4856ebd2e58215665228", "vout": [{"scriptPubKey": {"reqSigs": 1, "hex": "76a9140a1111c9fb3a4ce5137fc20980c125fe58ac737388ac", "addresses": ["1vECvmu1H3Hd4H7LA8eQgkMzLYZ7KrU1J"], "asm": "OP_DUP OP_HASH160 0a1111c9fb3a4ce5137fc20980c125fe58ac7373 OP_EQUALVERIFY OP_CHECKSIG", "type": "pubkeyhash"}, "value": 3.043e-05, "n": 0}, {"scriptPubKey": {"reqSigs": 1, "hex": "76a914db1ba6104dda832eaf1f492976b4a540b24c279188ac", "addresses": ["1LyY75NBm33nKgBZGNhxvM5oUXAJrCmWzL"], "asm": "OP_DUP OP_HASH160 db1ba6104dda832eaf1f492976b4a540b24c2791 OP_EQUALVERIFY OP_CHECKSIG", "type": "pubkeyhash"}, "value": 0.00015607, "n": 1}], "hex": "01000000012b4f44860c47760fc5012f342fa7bb6265f0cf5806671ef1a5e5f80c7376d890000000006b483045022100820684551ea05821633573864cd9fb12b96c8dc8ed568abdb07599bff9cce1c002200b09f67028ea97f0e38405bd35b8850e56446eae883d8429e905b5cbc36903190121038e898b335ce66850f0583b12b122e0eadc7091fc7dd59c1032fb50c185add07cffffffff02e30b0000000000001976a9140a1111c9fb3a4ce5137fc20980c125fe58ac737388acf73c0000000000001976a914db1ba6104dda832eaf1f492976b4a540b24c279188ac00000000", "vin": [{"sequence": 4294967295, "scriptSig": {"hex": "483045022100820684551ea05821633573864cd9fb12b96c8dc8ed568abdb07599bff9cce1c002200b09f67028ea97f0e38405bd35b8850e56446eae883d8429e905b5cbc36903190121038e898b335ce66850f0583b12b122e0eadc7091fc7dd59c1032fb50c185add07c", "asm": "3045022100820684551ea05821633573864cd9fb12b96c8dc8ed568abdb07599bff9cce1c002200b09f67028ea97f0e38405bd35b8850e56446eae883d8429e905b5cbc3690319[ALL] 038e898b335ce66850f0583b12b122e0eadc7091fc7dd59c1032fb50c185add07c"}, "vout": 0, "txid": "90d876730cf8e5a5f11e670658cff06562bba72f342f01c50f76470c86444f2b"}], "txid": "3c43df418fc40ea433232c9f441ecc211849d66331781f1c454916599c172fcd", "blocktime": 1537869901, "version": 1, "confirmations": 11524, "time": 1537869901, "locktime": 0, "vsize": 226, "size": 226}