{"hash": "5371317dcb72c86e4ab5cde5bcbd985011a9ff825a982ceb5df7c7ee22f6e8d5", "blockhash": "0000000000000000001f0ddff1eddb255c1121bcd4da4f1bc9a0da00cae72433", "vout": [{"scriptPubKey": {"reqSigs": 1, "hex": "a914aca36c09e9469f468b7b6f29b6c51b05de67af0287", "addresses": ["3HRqvJMZJzMtggaSq6skn9NqDbC4D5Ywg8"], "asm": "OP_HASH160 aca36c09e9469f468b7b6f29b6c51b05de67af02 OP_EQUAL", "type": "scripthash"}, "value": 0.00999544, "n": 0}, {"scriptPubKey": {"reqSigs": 1, "hex": "76a9142e1b944fe7ffbe969fc1df8d662fd7b5d6303c9b88ac", "addresses": ["15Co856cRnFRCKwSSzECoyT3ozVhuFoJZ6"], "asm": "OP_DUP OP_HASH160 2e1b944fe7ffbe969fc1df8d662fd7b5d6303c9b OP_EQUALVERIFY OP_CHECKSIG", "type": "pubkeyhash"}, "value": 0.0051356, "n": 1}], "hex": "020000000001023962b0f142077f2d1736bfc67a4b44a10f494c1f777086701cd46446a14f487301000000171600143dade01dac0a7e172eed18e200ae615ccf00bd50feffffff986a0f37f9ebb6489252a97ea7cc07e490a625d12850b0b13cb8788884f44fec0d000000171600144ab523e59205056b1cf18eb4f2c094db30744573feffffff0278400f000000000017a914aca36c09e9469f468b7b6f29b6c51b05de67af028718d60700000000001976a9142e1b944fe7ffbe969fc1df8d662fd7b5d6303c9b88ac02483045022100cc4e403c5976eddbc784340c536ad04aea4e204a5980a45eea9a7c5852c531e602202dfdc49971cc862930edc8208b312e50c7a88dd3054eb79088f0eed8c725caea012102bdd33d0bd4276ed1b73ff44c96a54544cfb72f5883855024b4e2929ad62c302902483045022100b07377aaffb7e9a81154b28b9b7009536170c0e4b7b74dda7f6a21b891783d4b02203f465eea51b87579263f859c685c033c2621ddf94733d3b27934a066c8ee22ce01210257871304b504bae28185f31957e2f444c44557311525587faf78ff0c44603bf711490800", "vin": [{"txinwitness": ["3045022100cc4e403c5976eddbc784340c536ad04aea4e204a5980a45eea9a7c5852c531e602202dfdc49971cc862930edc8208b312e50c7a88dd3054eb79088f0eed8c725caea01", "02bdd33d0bd4276ed1b73ff44c96a54544cfb72f5883855024b4e2929ad62c3029"], "sequence": 4294967294, "scriptSig": {"hex": "1600143dade01dac0a7e172eed18e200ae615ccf00bd50", "asm": "00143dade01dac0a7e172eed18e200ae615ccf00bd50"}, "vout": 1, "txid": "73484fa14664d41c708670771f4c490fa1444b7ac6bf36172d7f0742f1b06239"}, {"txinwitness": ["3045022100b07377aaffb7e9a81154b28b9b7009536170c0e4b7b74dda7f6a21b891783d4b02203f465eea51b87579263f859c685c033c2621ddf94733d3b27934a066c8ee22ce01", "0257871304b504bae28185f31957e2f444c44557311525587faf78ff0c44603bf7"], "sequence": 4294967294, "scriptSig": {"hex": "1600144ab523e59205056b1cf18eb4f2c094db30744573", "asm": "00144ab523e59205056b1cf18eb4f2c094db30744573"}, "vout": 13, "txid": "ec4ff4848878b83cb1b05028d125a690e407cca77ea9529248b6ebf9370f6a98"}], "txid": "3c477500503ecf74690d3ab6d66c123a58bd8c86b1348fe6f1838064af98bb6d", "blocktime": 1537872018, "version": 2, "confirmations": 11489, "time": 1537872018, "locktime": 542993, "vsize": 259, "size": 422}