{"hash": "3c484a033e2439665ec2e4476f2a30dea603d5cb7662c90a0922821511c3bc15", "blockhash": "0000000000000000001cda96e906b7601b7a6fb1a3b62bca570a9e5d8f4b3de1", "vout": [{"scriptPubKey": {"reqSigs": 1, "hex": "76a9143372edf92e2414586c3399aff6bf3c6c0bcaf3a388ac", "addresses": ["15h39EPRSSss9KUectopseaPhgViizFqwE"], "asm": "OP_DUP OP_HASH160 3372edf92e2414586c3399aff6bf3c6c0bcaf3a3 OP_EQUALVERIFY OP_CHECKSIG", "type": "pubkeyhash"}, "value": 0.01343487, "n": 0}, {"scriptPubKey": {"reqSigs": 1, "hex": "a9142484b3b954910a71be5de31160402c1d4ccae9db87", "addresses": ["3527DkRYwC7QKWvKRKkkRXaTSxRxHaNmLW"], "asm": "OP_HASH160 2484b3b954910a71be5de31160402c1d4ccae9db OP_EQUAL", "type": "scripthash"}, "value": 0.0101056, "n": 1}, {"scriptPubKey": {"reqSigs": 1, "hex": "a9149fd03fafdc128409f82623dffabd7ba3676889fd87", "addresses": ["3GG2qRWt8i6n3xDk7GoRCPhDcjpdU1TdHx"], "asm": "OP_HASH160 9fd03fafdc128409f82623dffabd7ba3676889fd OP_EQUAL", "type": "scripthash"}, "value": 0.0028856, "n": 2}, {"scriptPubKey": {"reqSigs": 1, "hex": "a9141d8cc7ca184dbbe4fd4cacf19e5617c54e15c98c87", "addresses": ["34PGAhhCBXGcEyHmqxBCRFYPaWKe5LqKYC"], "asm": "OP_HASH160 1d8cc7ca184dbbe4fd4cacf19e5617c54e15c98c OP_EQUAL", "type": "scripthash"}, "value": 0.0047, "n": 3}, {"scriptPubKey": {"reqSigs": 1, "hex": "76a914942cf94f4a7b7d25387d685b98156519e0e67e1388ac", "addresses": ["1EWUtELPsZGRL1cW8cb72v9wS8FNrJj6xN"], "asm": "OP_DUP OP_HASH160 942cf94f4a7b7d25387d685b98156519e0e67e13 OP_EQUALVERIFY OP_CHECKSIG", "type": "pubkeyhash"}, "value": 0.03091099, "n": 4}], "hex": "02000000032a8a9a8061c2fb20b9037c0e4d5dd7fb7ba38964cc513ff53936f09a2a99e7c6080000006b483045022100ba72b1d22d96b1fd26a2232e1ab7c41ced89d28d65f3c1e43ec192aeb65903fa0220021ff135248a4e42cdac6855141069fe8ee72a574936644f343a111dc7f703db01210223bc4fd8536c81c711ef353783bb16004e228e1ab32b8b73c67fac7ff79e6b51feffffff5d500b81072d828b3e8679e89099ca64f4286111edd7f47f90bb2e06f9fd459c740000006b483045022100946e4698d4eb83a725298cd6c877176a080fc640a0495bcedf11661cd6e79f2c02204fadbbeb0bb513d1faae5cd8a0be708cc1a45189d2d3b4b0c288f2f6ccf432f5012102108bcde763a42dea8b11e31b61942bca4fdae983fbe266b5b17edbb2f68debd2feffffffa3768a1cbc015245886312f68c81ee39f4ac8c5fec4cd2396c8e030c13459fb33b0000006a473044022056651c6c5d940cbdc32401654c6ed44a20be7381dcecb5b7adbcd7e59032951302200fa9bbc34654dafb3e89f06b88f3ab884336b21c6be1cf1efcb2e1e862d66919012103e269945a312f696be29e4cee6dd39e122d8b9f12b15ed74bfbefc64009103115feffffff05ff7f1400000000001976a9143372edf92e2414586c3399aff6bf3c6c0bcaf3a388ac806b0f000000000017a9142484b3b954910a71be5de31160402c1d4ccae9db87306704000000000017a9149fd03fafdc128409f82623dffabd7ba3676889fd87f02b07000000000017a9141d8cc7ca184dbbe4fd4cacf19e5617c54e15c98c879b2a2f00000000001976a914942cf94f4a7b7d25387d685b98156519e0e67e1388ac13490800", "vin": [{"sequence": 4294967294, "scriptSig": {"hex": "483045022100ba72b1d22d96b1fd26a2232e1ab7c41ced89d28d65f3c1e43ec192aeb65903fa0220021ff135248a4e42cdac6855141069fe8ee72a574936644f343a111dc7f703db01210223bc4fd8536c81c711ef353783bb16004e228e1ab32b8b73c67fac7ff79e6b51", "asm": "3045022100ba72b1d22d96b1fd26a2232e1ab7c41ced89d28d65f3c1e43ec192aeb65903fa0220021ff135248a4e42cdac6855141069fe8ee72a574936644f343a111dc7f703db[ALL] 0223bc4fd8536c81c711ef353783bb16004e228e1ab32b8b73c67fac7ff79e6b51"}, "vout": 8, "txid": "c6e7992a9af03639f53f51cc6489a37bfbd75d4d0e7c03b920fbc261809a8a2a"}, {"sequence": 4294967294, "scriptSig": {"hex": "483045022100946e4698d4eb83a725298cd6c877176a080fc640a0495bcedf11661cd6e79f2c02204fadbbeb0bb513d1faae5cd8a0be708cc1a45189d2d3b4b0c288f2f6ccf432f5012102108bcde763a42dea8b11e31b61942bca4fdae983fbe266b5b17edbb2f68debd2", "asm": "3045022100946e4698d4eb83a725298cd6c877176a080fc640a0495bcedf11661cd6e79f2c02204fadbbeb0bb513d1faae5cd8a0be708cc1a45189d2d3b4b0c288f2f6ccf432f5[ALL] 02108bcde763a42dea8b11e31b61942bca4fdae983fbe266b5b17edbb2f68debd2"}, "vout": 116, "txid": "9c45fdf9062ebb907ff4d7ed116128f464ca9990e879863e8b822d07810b505d"}, {"sequence": 4294967294, "scriptSig": {"hex": "473044022056651c6c5d940cbdc32401654c6ed44a20be7381dcecb5b7adbcd7e59032951302200fa9bbc34654dafb3e89f06b88f3ab884336b21c6be1cf1efcb2e1e862d66919012103e269945a312f696be29e4cee6dd39e122d8b9f12b15ed74bfbefc64009103115", "asm": "3044022056651c6c5d940cbdc32401654c6ed44a20be7381dcecb5b7adbcd7e59032951302200fa9bbc34654dafb3e89f06b88f3ab884336b21c6be1cf1efcb2e1e862d66919[ALL] 03e269945a312f696be29e4cee6dd39e122d8b9f12b15ed74bfbefc64009103115"}, "vout": 59, "txid": "b39f45130c038e6c39d24cec5f8cacf439ee818cf6126388455201bc1c8a76a3"}], "txid": "3c484a033e2439665ec2e4476f2a30dea603d5cb7662c90a0922821511c3bc15", "blocktime": 1537873282, "version": 2, "confirmations": 11484, "time": 1537873282, "locktime": 542995, "vsize": 617, "size": 617}