{"hash": "3dfdc7924f5d0e93ed17124fff76f5c948f77e53aad7ccbb4674ac1266f4fc1e", "blockhash": "000000000000000000022b45ed06c6f4ccd3cf7fb5ba4856ebd2e58215665228", "vout": [{"scriptPubKey": {"reqSigs": 1, "hex": "76a9141bc0024fa8ead9363040fa9356bcbaaf70394a5c88ac", "addresses": ["13XjGCdiu6G2azmfMpuEDpbpqf1hy9Shnh"], "asm": "OP_DUP OP_HASH160 1bc0024fa8ead9363040fa9356bcbaaf70394a5c OP_EQUALVERIFY OP_CHECKSIG", "type": "pubkeyhash"}, "value": 0.0025, "n": 0}, {"scriptPubKey": {"reqSigs": 1, "hex": "a914627aa52932456d89054bd84f86246af3b71b93a887", "addresses": ["3Afj4stdiLG9EktGrMbm252ySonnhYaz8v"], "asm": "OP_HASH160 627aa52932456d89054bd84f86246af3b71b93a8 OP_EQUAL", "type": "scripthash"}, "value": 0.81353882, "n": 1}], "hex": "010000000001019debdc631b5ba94f4d263d0ed8e118f2de5661f24c60e5bfaaa492c7fef6aaff01000000232200205fdd641234b13964b223bd85ad2a4a667ca2099df3d42a1d3b45706a8d81abf0ffffffff0290d00300000000001976a9141bc0024fa8ead9363040fa9356bcbaaf70394a5c88ac9a5cd9040000000017a914627aa52932456d89054bd84f86246af3b71b93a8870400483045022100b421d90c0eeee9d2ad22d54ccdb0e60609c87733142396c5e239134121919d0c022025bea66e3f8c1b9262ee3b541346566fa360085f26da3fc893de42fef099b7d30147304402205308bd437d5c0b535f4e095d15f848569331ad505fb17c85fea279efe0c655a90220138d89faa16960e8c7088bea2550f77ae22e2ad3794b5f19fa42e6092596f2e20147522103dcde3832fa56def7b4e783faad1b8af85c3cdd74a5ff4f3c7c216b1075c18da12103c70ae8ded79be1afda73b9ce5ea14a3878908ee160d66a9a717e792bb6db276952ae00000000", "vin": [{"txinwitness": ["", "3045022100b421d90c0eeee9d2ad22d54ccdb0e60609c87733142396c5e239134121919d0c022025bea66e3f8c1b9262ee3b541346566fa360085f26da3fc893de42fef099b7d301", "304402205308bd437d5c0b535f4e095d15f848569331ad505fb17c85fea279efe0c655a90220138d89faa16960e8c7088bea2550f77ae22e2ad3794b5f19fa42e6092596f2e201", "522103dcde3832fa56def7b4e783faad1b8af85c3cdd74a5ff4f3c7c216b1075c18da12103c70ae8ded79be1afda73b9ce5ea14a3878908ee160d66a9a717e792bb6db276952ae"], "sequence": 4294967295, "scriptSig": {"hex": "2200205fdd641234b13964b223bd85ad2a4a667ca2099df3d42a1d3b45706a8d81abf0", "asm": "00205fdd641234b13964b223bd85ad2a4a667ca2099df3d42a1d3b45706a8d81abf0"}, "vout": 1, "txid": "ffaaf6fec792a4aabfe5604cf26156def218e1d80e3d264d4fa95b1b63dceb9d"}], "txid": "3c4e852ce41aa535b0049f095d8250cd592be50f857b7243c7e4337a1e6d48e5", "blocktime": 1537869901, "version": 1, "confirmations": 11523, "time": 1537869901, "locktime": 0, "vsize": 208, "size": 373}