{"hash": "3c51b4b1d93dbeb96899735109e523e0ba819a05de863d4dca9d655e51b6dff4", "blockhash": "0000000000000000001f76057863aec43deb6fa401d9628bb513d65a8098bfab", "vout": [{"scriptPubKey": {"reqSigs": 1, "hex": "76a9141981b05778d8e21932a959a0fc35c4fe1529ad3888ac", "addresses": ["13KsFja5AepT216B9FJa2ftgKYA7427BNs"], "asm": "OP_DUP OP_HASH160 1981b05778d8e21932a959a0fc35c4fe1529ad38 OP_EQUALVERIFY OP_CHECKSIG", "type": "pubkeyhash"}, "value": 0.00413868, "n": 0}, {"scriptPubKey": {"reqSigs": 1, "hex": "001451143f13f7adf3762d444a7bfa21349d3cd3b771", "addresses": ["bc1q2y2r7ylh4hehvt2yffal5gf5n57d8dm3ylqg3h"], "asm": "0 51143f13f7adf3762d444a7bfa21349d3cd3b771", "type": "witness_v0_keyhash"}, "value": 1.605e-05, "n": 1}], "hex": "0100000001efdc1e10c966b73b32a57a0bc2ab33f8978488f8c4cc73ce72e6fc56ef846bbecf0100006a47304402207889101cd873b2c1bc0a89a52aec9e077e35a773e79636fe7faec7319878e673022070113ec2727ccb9a9433f60ee836d0cdeca3439b5fd2bd6bd801b26b4f0b40820121035267d65edbbcb611b5bcdbf6186e2a91edf7c65ad12a1a817e6c521a61739e55ffffffff02ac500600000000001976a9141981b05778d8e21932a959a0fc35c4fe1529ad3888ac450600000000000016001451143f13f7adf3762d444a7bfa21349d3cd3b77100000000", "vin": [{"sequence": 4294967295, "scriptSig": {"hex": "47304402207889101cd873b2c1bc0a89a52aec9e077e35a773e79636fe7faec7319878e673022070113ec2727ccb9a9433f60ee836d0cdeca3439b5fd2bd6bd801b26b4f0b40820121035267d65edbbcb611b5bcdbf6186e2a91edf7c65ad12a1a817e6c521a61739e55", "asm": "304402207889101cd873b2c1bc0a89a52aec9e077e35a773e79636fe7faec7319878e673022070113ec2727ccb9a9433f60ee836d0cdeca3439b5fd2bd6bd801b26b4f0b4082[ALL] 035267d65edbbcb611b5bcdbf6186e2a91edf7c65ad12a1a817e6c521a61739e55"}, "vout": 463, "txid": "be6b84ef56fce672ce73ccc4f8888497f833abc20b7aa5323bb766c9101edcef"}], "txid": "3c51b4b1d93dbeb96899735109e523e0ba819a05de863d4dca9d655e51b6dff4", "blocktime": 1537873891, "version": 1, "confirmations": 11478, "time": 1537873891, "locktime": 0, "vsize": 222, "size": 222}