{"hash": "3c5cb8899c82a14204364aba51485cb0c9346875bba22eec9372a7edbbbf1fca", "blockhash": "0000000000000000000dcc0f55137456b1a82d3642486a52398922ac4d620174", "vout": [{"scriptPubKey": {"reqSigs": 1, "hex": "a9147c632e065faa72c3d251c7e714d437d6771f054987", "addresses": ["3D2iXToifXmcC9omsbnP8i9VUrZjqFNbLs"], "asm": "OP_HASH160 7c632e065faa72c3d251c7e714d437d6771f0549 OP_EQUAL", "type": "scripthash"}, "value": 0.00469853, "n": 0}, {"scriptPubKey": {"reqSigs": 1, "hex": "76a914108aecf81136419dec8b80963026c8d1c4870b3188ac", "addresses": ["12WUEo1wEfc1M7yTy3j6cSbremwW4yAphM"], "asm": "OP_DUP OP_HASH160 108aecf81136419dec8b80963026c8d1c4870b31 OP_EQUALVERIFY OP_CHECKSIG", "type": "pubkeyhash"}, "value": 0.13025851, "n": 1}], "hex": "0100000001c03b3a07245ae0ad791ccbda06a39f61058d873ab3449831abaacb2cde4819af000000006a47304402200a79f6c3f859919da74dda88d0772f3473c5c206ccaad547292b7365e5f17e380220770fb9a921c9fb9f445489ccfc3dfa25b3da49838fea9f9d3841a818a05f530301210365f3e2082257701b4616cf5e8a973ca39d647713f88fade513e2f6e592f1737affffffff025d2b07000000000017a9147c632e065faa72c3d251c7e714d437d6771f0549873bc2c600000000001976a914108aecf81136419dec8b80963026c8d1c4870b3188ac00000000", "vin": [{"sequence": 4294967295, "scriptSig": {"hex": "47304402200a79f6c3f859919da74dda88d0772f3473c5c206ccaad547292b7365e5f17e380220770fb9a921c9fb9f445489ccfc3dfa25b3da49838fea9f9d3841a818a05f530301210365f3e2082257701b4616cf5e8a973ca39d647713f88fade513e2f6e592f1737a", "asm": "304402200a79f6c3f859919da74dda88d0772f3473c5c206ccaad547292b7365e5f17e380220770fb9a921c9fb9f445489ccfc3dfa25b3da49838fea9f9d3841a818a05f5303[ALL] 0365f3e2082257701b4616cf5e8a973ca39d647713f88fade513e2f6e592f1737a"}, "vout": 0, "txid": "af1948de2ccbaaab319844b33a878d05619fa306dacb1c79ade05a24073a3bc0"}], "txid": "3c5cb8899c82a14204364aba51485cb0c9346875bba22eec9372a7edbbbf1fca", "blocktime": 1537870268, "version": 1, "confirmations": 11516, "time": 1537870268, "locktime": 0, "vsize": 223, "size": 223}