{"hash": "d793855e4c3ee5eba64f0e23446e08625f05ef46690345dac84edeb4bad7421e", "blockhash": "00000000000000000004ffacab907a6b429b9a5745fa0b75af4234bf69dd7176", "vout": [{"scriptPubKey": {"reqSigs": 1, "hex": "a914f3f4e378fbbea1c5adb8f203f699ea3814bc560487", "addresses": ["3PvwVKBe8tj9nVwq5pbJ6wZFs6wa4XYCUz"], "asm": "OP_HASH160 f3f4e378fbbea1c5adb8f203f699ea3814bc5604 OP_EQUAL", "type": "scripthash"}, "value": 0.309, "n": 0}, {"scriptPubKey": {"reqSigs": 1, "hex": "a914ea645e5e20987adfaa9d5fa4a915d008965f102387", "addresses": ["3P4NHAbib3uvj6QNYmPWqEJMZnx4HzszTp"], "asm": "OP_HASH160 ea645e5e20987adfaa9d5fa4a915d008965f1023 OP_EQUAL", "type": "scripthash"}, "value": 0.01002144, "n": 1}], "hex": "0200000000011d1a761c4529143ea6b1d55214befd90d9a594d78671d827e00b245bd095a1d77000000000171600143c129502e7ac80178efb6cbf5ef45599347fe06bffffffff38e6e6b158be1d22090ddc691bb5bc0efde7e15a96d6568417d8ffe6aafd3fab07000000171600142767162ab05c0b31357c7723c3b984f16c313c8cffffffffa556e534228b187cb2403b5391d1c4dc4250d8b627aff51c18983e89f873f1790000000017160014b979b5bfdd99e4a62014ebbd50a6c8be01b6dc7affffffffe8eb496a33058bbf03429ed9710887e8340212d59774d00ecc840bf9910f43d810000000171600149051ea6a6031404587c2c7168bec9bafdd10f32affffffffa20efa73c1bf978f7474dd3adf69c23ae4800227c6b221475a86f18858d5247b000000001716001407d20138fb9d60678fca45ab955ec9192c30fc10ffffffff5e68d0c7d118935d980806e433f15b3d3191fe156c4547d6c1db8e03743402ff1b000000171600144da107b0326c04174e74d107201a36c16a2c02d0ffffffff0004a6a5d906bb21402ad97f15fb965fef317dee5f59dd073b1113f4d0e7f7751700000017160014cefd5e1cd9a911b32d3e7b53f378b84c5eaa15e1ffffffff958390e4c715086c7898cabe625e6a2500ea814410b027e4ec9d8d66d1eb87a00000000017160014ae9aa7d947e2af183d8e762bd645e479d075eb76ffffffff94caff22ec2f9aaba24490db86eed64a2a5e1da72c8689996d51f8e7ad73a0c9080000001716001438f59c5134c7a64dca9d63f1d77b70937cbaef92ffffffffef9780fab56990ce92bc424ca561350381f7ef85e32097051c47330ff911790f00000000171600146eeb2a8f3efef5070e866e0c8f37e4e2fd87aad1ffffffff21286a4376e5f8b82f9d5df54b0d895be1042e3584f5caf1fbf08f1ee8efc6740000000017160014c0602628a28d5f7115ca165715b5e4176c882072ffffffff13baf2fa5ee06683d87217ff84379083ad14adfa4b2757b9e1c26bc79ffaafeb1500000017160014bdd637fb6270f36cfee377af7ae06ee1b406dbafffffffffd1ed1f85eb99c6f98b159ee21776505c959f2868fd84c4dc76a94ffb0f2e393e1800000017160014af5e36a5b8ca766ace1cbfd4055bfed465fc3310ffffffff1a761c4529143ea6b1d55214befd90d9a594d78671d827e00b245bd095a1d770010000001716001418cf0d35c90e8e8f96015f2c3e2907c8d36eaaddffffffff38301c9f590a3156be7f0304e79f6d193fa0348522899bff15cc25e6079c91e4000000001716001402227addc7192251bf5510690a9b4a575f57dec8ffffffff94caff22ec2f9aaba24490db86eed64a2a5e1da72c8689996d51f8e7ad73a0c90d0000001716001470a49dd4363d4a90c9cc04009d22c0b63e18bd17ffffffff56e8770f26f931e2dc97b294d067020e3c397085e8a0f102eb91defb3e2d825f17000000171600142a65a94245255c3513a91fdca6c79a55db42a9feffffffffd1ed1f85eb99c6f98b159ee21776505c959f2868fd84c4dc76a94ffb0f2e393e2700000017160014ac43ca75195198438f25701a50c7416883eb3423ffffffff296ee7b0449638109ac6c724863b003bf47b871ca921a667e9a03f078f28fe3e000000001716001434d5fea7c9a28cf107c516d7f32b79eb0a923d5dffffffff01ba074a491893464e430f4da2c26524e672311b78adf33bb32549423599071c090000001716001476475338b71385a9168224328bb622a584e9b45cffffffff1a761c4529143ea6b1d55214befd90d9a594d78671d827e00b245bd095a1d7700d00000017160014e0e41d2febdaa9fb5af0e80ff93f19968f425441ffffffff55ca52edc8f161771bd4bd7130427607f486e648b337b681de1915f4f093ef9a00000000171600146c8d6422f5c1a6089dd2f573860f2579564cbe70ffffffff5387ab846208a9c132b9599a4fed5053e158ed61413e65e95cee505c8f5e335b00000000171600142a245a68ef281c35bf3048e26081ab5117217a8affffffff5134e6b126a160e35a88fcc9e704ee382d5a944c099c138ec97acc18c1791cc0230000001716001451610f2638c19ad52f1bc3bb00c9e662d19824d7ffffffff4c7ce0e5a0ddacc5724597309c21078ab32c73a5bd95ba2ee577f46034c983d70000000017160014aa1e335c8864a8e1aa6ffdd7b869170f74b04524ffffffff56e8770f26f931e2dc97b294d067020e3c397085e8a0f102eb91defb3e2d825f19000000171600146b339c8af3034409b0d03d90e9c8f4d8b0cd27ecffffffff01ba074a491893464e430f4da2c26524e672311b78adf33bb32549423599071c13000000171600145f81841f78777f20bef69894b66f54cfcd326ff9ffffffffe8eb496a33058bbf03429ed9710887e8340212d59774d00ecc840bf9910f43d80700000017160014e56c84e8306675ea916d4ce7a5bff6064aeef818ffffffff94caff22ec2f9aaba24490db86eed64a2a5e1da72c8689996d51f8e7ad73a0c907000000171600146a3d6b7096539c0b52127455676e6baf135a2926ffffffff02207fd7010000000017a914f3f4e378fbbea1c5adb8f203f699ea3814bc560487a04a0f000000000017a914ea645e5e20987adfaa9d5fa4a915d008965f10238702483045022100d48a8310b049d7b602ba36958530017425e95f970418af23c8046aa3e07882e302203c8b93e35728b1cb475d36a11834708cba4a2592a45c47b06c2d087d4b0a63e101210394abbef37a9c613d582792c43abe78543ec7ef879a782135712e91f3ba058bc602473044022010ddce95875867364e697931601282872d0291cc5234d5dcd06d8f286d9f749f02206feacc5ad2a228ccfc8cc1a5a4b4441b0e94436962c882c6e4720e46a87db9f901210292a5db6b22543b58a29942c318fcd206fb3492d3c303fc233b4908ab0a96811502473044022025b428e21a92ef4bf3c9df1f3344d012c4326a3125cfd81444a30860fb25d1cf0220606bac226e28916ac6514a962f00edc3cbc0d353cf288d92d23ce1ea22ca65fa012102284dda95215b3aeaf6ad9c37b73fbd0692ef1f8e13bf5aa2322d8128cb4cf2d40247304402207108563e1f2a08482af88fdf2161657152d5768a75670e1f0bc15a263beff15b02203a0d8e7a10b007a04f416471327103e95f6f76a8e08ce5812c1d75eb06fada020121032858249cfad201ae282224d85dbfad54d0a09251e8f8e1ef1dddac08bf2e1e8602483045022100d8444fb0bfec1c72d14d8e5ba6b4e6475a45eb6168241f18a207d39bf358de1002201b0bf25c2a56f2956c58ed338f3d735949dcdd96a55cb230bd82bb7527c82e560121034c963d1cf12b296977e3f82b53f9d99578821266df5f94ebd4370d48b4f8a766024730440220584a2b2a7a40aadae663e0a079ecdaa29774f008f03a0a8b0774bc424c468545022024e7c06002675376922e929bf53f316b9fa46b2f88d2a2c6067a695a0264e56c012102977ef74bb92f8e4c863e210faeaf3a688c0d39b6b60801724780bfe17e9949dd0247304402205bad5c74942844ab4fa8231cea50a5774ef6fda57a95665f2df58a636c805d98022045bc075e086e8591ff194968172cc56bfa651453e12058c79688abad54af14af0121021d50af5dbdc3e87d67d587d0e3173ccf705ba6c6bda0cf6cbc3ff0c2250d6a6602473044022072eeb63a182d22f680584a61481dd5905f91cab42b9807c2e374c88d3afa5115022008adb166f0c3e8e942244d7dac425dcbda9eaeadd4bb0f2a4f16e2c29c732ee10121020872cd9aacb7fc372c3bd88d9744546b81bedd9989bd8467f60bdcd85175ac4b0247304402203de4503efba16dff3741e3d37a5590ee7c3c84745591f959e97bd29bfddcae31022053246b8c21539adda625b1fdba4f40fec4f7a999485d4e7581896c3abf40f2b0012102fcdb085fdc118a8d7da17c0694097ad6e796f24a1d21e6ea301995fdecc8e81202463043021f4bd5314adf1e4f44fbc1b741647aa0c17bba6796a2e64fabb4629fa1d9a81b0220617509c41eaff08b01695348c3bcbe0c7b6b74e96520e54e30900285f907d610012102acbe581c01646a0e6f84ee9c8e1c2b762cf319e2dcdec26e432d20d9bbb1c76a02483045022100b63674e44d7de671cd17c0d4294f8d961189946e3ece3f39daf46d73c6ac585302200b8ac4a4ad18aad11697dfdf86a86b2997ee0a4e4fd8bc354c1ce7403bc1be7401210311254a35202296a71784c182b82666bd1fa6e1ce7cf876b0b46e32b431439c9e02483045022100cfed7501adb4944a05b6ddffb2f06acb4308a4459c58281d104c780bd38c20ad02204663c974ca2076e529427f456acb7999c493a79ea53dfd39450ca27ccfb058c3012102bafac3465cdbc019646f2991da9e21f68f7311cfba07056c22933d608114acd502483045022100bae7e032fb2dd71177bbef352a2bf1ed72647b69b9306cbae1998b7c44a093290220509a079c2cfa0498fc33720a182c9e89c6e3b6555b86b0a30155ba4f06031511012103b1e822dabe0ea152f37d769042a4d6deb01562368a3076e90ad209e74df50d5402483045022100e366e85fea77eeb353873fc00c19821fca585cb81e156d06e86c80fa3ac38e44022035821d56a23a2f2aed968fe8bbc7412467706de76755341284569fc895acffd00121030e3750ee81cdfa63c0b6196850f578ff016a2d83f6951c8a4629f2b64f856b0d0247304402203c364aa7158a0ef7d660c17ab6293b81bbbee75518e029eeb75e7804c7136d24022075e4487a246a6a4ca97bfb42de4853e1c11b3789fcc9a1b28cc1a6f3f5446382012103cad0aff7094a47c0d4446696d51b0462fbd3eace4bfc53f55da41202887485ea024730440220659e5772e3c95ce24478845d99bb674fa770d8bb1a0c5a8354a91db0c8c69ce00220014ed0a50733c0ca6b3f00748db0a52f2340b9aeab26ae2b1a9961e2e85abf190121022b322e3d81a1a6af168c233bccc5dad69b575e9cd20c6990a352bbd4576e047c02473044022100d509140a3ba9dc38a67deba22e7ba78aebd7b75f8920896f336a7e3fb98dba1b021f7546fe5b39506358f1749637a3dccd1ee64c7cadf9920994837862cea773290121020189930661e5693826e65128f598bf22753550c555237573f0c431762dc0d24c02473044022044e22bcf2e12ea67726697453cb1bd548b7c6e20c20cd339a3dc9b295927506602204fdcca498d896aa8dafb5744c836f3b7100f540a455e444b5949a658dbafbf110121033213c153578a7f6254f92fefcf7853699e994a80fc59191a738be72c748ec26502473044022011838aa34471e2da9ac081ee54e1d4f40eb77006500815da31a3d6b6890ebc2002204a85dbc4ef6c9291f552967b650b25fdd6cce9407660fbafc7aa54102ce84b16012102b31f8239a3f2d41fd542f96f45dd1156569159926d2a46b2098e3f9d7e5827b202483045022100cde9b311900234f6bd83146ab2dfd2169670c98667a11033f02abea5ee738d2702201e4e1e85b96b3117ff5f5fdf17fa6bcc8620f58faa679a1f7cfd1f02da5c200c012103920fc3d3be3bd00d78eb3ce728d20cc139a38df8516dd9858726ee983e4a564402483045022100cd124358f0ad0e6632ec29e6cc43b53e4755cc71422bbeacfd3d56e2b13b06f3022069b04159d0e2816665f0af7d6d2e41e983ac2ab8248adbdc4954a39636011e2401210288a5a4e5d92b3ab62b37160ac8bc6fbc1ae3efb832896f791300d7faef2d07ec024730440220417f5a349f4f56970a4da66cbf813880897518ae386d693c94af1f77616df47b0220318626a781cf58fbd10fefed4216c2e87a6394a9ea98e49446c6a860a882ae020121034e391e569e90e31bead2bc443342628d8f09f1d640a4bb7a645e2fa3a857b48602483045022100ab59ad85127709c447b629928d56713e1cc81af48d4591198a49197b329ef331022007b674400a94d447f1456cb4575e4857e6129231aef7b765db4940141dc280c501210321203446feec34237efc320608b24bdd08b0558241118abe2289f1d33cc90ca602483045022100dc9f7a546339e2c871a27ff8c19ade372deab5a450e3fb0cd8e38cecd4b86c8e02205bc302e0fe697ee473ba6c2a18e06259f0354f0ce738ee14b038fff5d58f1e45012103815eb80b64a74d5238d60752e281cd7087f85d90cd788360006081fbddd08a210247304402203b9cfd997f354c6276891b15daacc5e9ee7caa3b4ea7259aab27276267548554022073ef44793c8f2cade35b1601d5b4cab3ac2e074c323426918aec6645f3a5fb6c0121035b9fde1fd8d272333bf6fb79c932c81da10eb8e7ded2d95861d0821d49eb616302463043021f43a7aa99bae523873012ab65e8ff5ab45aa9d33108e98a2d99ed788f77e2540220047ad0949a71dff998d5391e1e0cea98e1ff3a7b833d642880aa57ba626c1764012102fa9e0d33eb654a09f9afca1b22b9a16bb9bcde032d0255b33acbf87f0b2bb5d10247304402205d74135cb4be9f8cb02c3ffc18a2d12299567cc4edac70e411e5a05bfd398b7202206aa99b588bbb894617f6d5783cf5768b12a46948cca48bfa4cde7391044342bb01210364a07f9ec4f10a944c391317f274f570d5bf12bd83750a05d0dfeb81aba6a3af0247304402200b3f90eb2eac573d2a928001a08f55fcfdf93c281cfee348d93391d4c57327ad02204e868c6ef661664c331f9a6ee81945de39f1b8fb27a2245d773feb8594918bb3012103984c374c9792c295c1c279ed575dc0e4b2563020ba29c664027f3edafd971b7802483045022100daad2dcd12d7aeee22efad842c1ba7e47606f842339c468b7dc04aa5246de2f302200ad7a684809441ad81b2d61d50654a79aa7e32ec39cc44f6c1e6bbe4d294cd58012103ad1bc90c6219d7ff367c9ee7bb866526082fb9ab95954c65b29e1f2ca74797ef00000000", "vin": [{"txinwitness": ["3045022100d48a8310b049d7b602ba36958530017425e95f970418af23c8046aa3e07882e302203c8b93e35728b1cb475d36a11834708cba4a2592a45c47b06c2d087d4b0a63e101", "0394abbef37a9c613d582792c43abe78543ec7ef879a782135712e91f3ba058bc6"], "sequence": 4294967295, "scriptSig": {"hex": "1600143c129502e7ac80178efb6cbf5ef45599347fe06b", "asm": "00143c129502e7ac80178efb6cbf5ef45599347fe06b"}, "vout": 0, "txid": "70d7a195d05b240be027d87186d794a5d990fdbe1452d5b1a63e1429451c761a"}, {"txinwitness": ["3044022010ddce95875867364e697931601282872d0291cc5234d5dcd06d8f286d9f749f02206feacc5ad2a228ccfc8cc1a5a4b4441b0e94436962c882c6e4720e46a87db9f901", "0292a5db6b22543b58a29942c318fcd206fb3492d3c303fc233b4908ab0a968115"], "sequence": 4294967295, "scriptSig": {"hex": "1600142767162ab05c0b31357c7723c3b984f16c313c8c", "asm": "00142767162ab05c0b31357c7723c3b984f16c313c8c"}, "vout": 7, "txid": "ab3ffdaae6ffd8178456d6965ae1e7fd0ebcb51b69dc0d09221dbe58b1e6e638"}, {"txinwitness": ["3044022025b428e21a92ef4bf3c9df1f3344d012c4326a3125cfd81444a30860fb25d1cf0220606bac226e28916ac6514a962f00edc3cbc0d353cf288d92d23ce1ea22ca65fa01", "02284dda95215b3aeaf6ad9c37b73fbd0692ef1f8e13bf5aa2322d8128cb4cf2d4"], "sequence": 4294967295, "scriptSig": {"hex": "160014b979b5bfdd99e4a62014ebbd50a6c8be01b6dc7a", "asm": "0014b979b5bfdd99e4a62014ebbd50a6c8be01b6dc7a"}, "vout": 0, "txid": "79f173f8893e98181cf5af27b6d85042dcc4d191533b40b27c188b2234e556a5"}, {"txinwitness": ["304402207108563e1f2a08482af88fdf2161657152d5768a75670e1f0bc15a263beff15b02203a0d8e7a10b007a04f416471327103e95f6f76a8e08ce5812c1d75eb06fada0201", "032858249cfad201ae282224d85dbfad54d0a09251e8f8e1ef1dddac08bf2e1e86"], "sequence": 4294967295, "scriptSig": {"hex": "1600149051ea6a6031404587c2c7168bec9bafdd10f32a", "asm": "00149051ea6a6031404587c2c7168bec9bafdd10f32a"}, "vout": 16, "txid": "d8430f91f90b84cc0ed07497d5120234e8870871d99e4203bf8b05336a49ebe8"}, {"txinwitness": ["3045022100d8444fb0bfec1c72d14d8e5ba6b4e6475a45eb6168241f18a207d39bf358de1002201b0bf25c2a56f2956c58ed338f3d735949dcdd96a55cb230bd82bb7527c82e5601", "034c963d1cf12b296977e3f82b53f9d99578821266df5f94ebd4370d48b4f8a766"], "sequence": 4294967295, "scriptSig": {"hex": "16001407d20138fb9d60678fca45ab955ec9192c30fc10", "asm": "001407d20138fb9d60678fca45ab955ec9192c30fc10"}, "vout": 0, "txid": "7b24d55888f1865a4721b2c6270280e43ac269df3add74748f97bfc173fa0ea2"}, {"txinwitness": ["30440220584a2b2a7a40aadae663e0a079ecdaa29774f008f03a0a8b0774bc424c468545022024e7c06002675376922e929bf53f316b9fa46b2f88d2a2c6067a695a0264e56c01", "02977ef74bb92f8e4c863e210faeaf3a688c0d39b6b60801724780bfe17e9949dd"], "sequence": 4294967295, "scriptSig": {"hex": "1600144da107b0326c04174e74d107201a36c16a2c02d0", "asm": "00144da107b0326c04174e74d107201a36c16a2c02d0"}, "vout": 27, "txid": "ff023474038edbc1d647456c15fe91313d5bf133e40608985d9318d1c7d0685e"}, {"txinwitness": ["304402205bad5c74942844ab4fa8231cea50a5774ef6fda57a95665f2df58a636c805d98022045bc075e086e8591ff194968172cc56bfa651453e12058c79688abad54af14af01", "021d50af5dbdc3e87d67d587d0e3173ccf705ba6c6bda0cf6cbc3ff0c2250d6a66"], "sequence": 4294967295, "scriptSig": {"hex": "160014cefd5e1cd9a911b32d3e7b53f378b84c5eaa15e1", "asm": "0014cefd5e1cd9a911b32d3e7b53f378b84c5eaa15e1"}, "vout": 23, "txid": "75f7e7d0f413113b07dd595fee7d31ef5f96fb157fd92a4021bb06d9a5a60400"}, {"txinwitness": ["3044022072eeb63a182d22f680584a61481dd5905f91cab42b9807c2e374c88d3afa5115022008adb166f0c3e8e942244d7dac425dcbda9eaeadd4bb0f2a4f16e2c29c732ee101", "020872cd9aacb7fc372c3bd88d9744546b81bedd9989bd8467f60bdcd85175ac4b"], "sequence": 4294967295, "scriptSig": {"hex": "160014ae9aa7d947e2af183d8e762bd645e479d075eb76", "asm": "0014ae9aa7d947e2af183d8e762bd645e479d075eb76"}, "vout": 0, "txid": "a087ebd1668d9dece427b0104481ea00256a5e62beca98786c0815c7e4908395"}, {"txinwitness": ["304402203de4503efba16dff3741e3d37a5590ee7c3c84745591f959e97bd29bfddcae31022053246b8c21539adda625b1fdba4f40fec4f7a999485d4e7581896c3abf40f2b001", "02fcdb085fdc118a8d7da17c0694097ad6e796f24a1d21e6ea301995fdecc8e812"], "sequence": 4294967295, "scriptSig": {"hex": "16001438f59c5134c7a64dca9d63f1d77b70937cbaef92", "asm": "001438f59c5134c7a64dca9d63f1d77b70937cbaef92"}, "vout": 8, "txid": "c9a073ade7f8516d9989862ca71d5e2a4ad6ee86db9044a2ab9a2fec22ffca94"}, {"txinwitness": ["3043021f4bd5314adf1e4f44fbc1b741647aa0c17bba6796a2e64fabb4629fa1d9a81b0220617509c41eaff08b01695348c3bcbe0c7b6b74e96520e54e30900285f907d61001", "02acbe581c01646a0e6f84ee9c8e1c2b762cf319e2dcdec26e432d20d9bbb1c76a"], "sequence": 4294967295, "scriptSig": {"hex": "1600146eeb2a8f3efef5070e866e0c8f37e4e2fd87aad1", "asm": "00146eeb2a8f3efef5070e866e0c8f37e4e2fd87aad1"}, "vout": 0, "txid": "0f7911f90f33471c059720e385eff781033561a54c42bc92ce9069b5fa8097ef"}, {"txinwitness": ["3045022100b63674e44d7de671cd17c0d4294f8d961189946e3ece3f39daf46d73c6ac585302200b8ac4a4ad18aad11697dfdf86a86b2997ee0a4e4fd8bc354c1ce7403bc1be7401", "0311254a35202296a71784c182b82666bd1fa6e1ce7cf876b0b46e32b431439c9e"], "sequence": 4294967295, "scriptSig": {"hex": "160014c0602628a28d5f7115ca165715b5e4176c882072", "asm": "0014c0602628a28d5f7115ca165715b5e4176c882072"}, "vout": 0, "txid": "74c6efe81e8ff0fbf1caf584352e04e15b890d4bf55d9d2fb8f8e576436a2821"}, {"txinwitness": ["3045022100cfed7501adb4944a05b6ddffb2f06acb4308a4459c58281d104c780bd38c20ad02204663c974ca2076e529427f456acb7999c493a79ea53dfd39450ca27ccfb058c301", "02bafac3465cdbc019646f2991da9e21f68f7311cfba07056c22933d608114acd5"], "sequence": 4294967295, "scriptSig": {"hex": "160014bdd637fb6270f36cfee377af7ae06ee1b406dbaf", "asm": "0014bdd637fb6270f36cfee377af7ae06ee1b406dbaf"}, "vout": 21, "txid": "ebaffa9fc76bc2e1b957274bfaad14ad83903784ff1772d88366e05efaf2ba13"}, {"txinwitness": ["3045022100bae7e032fb2dd71177bbef352a2bf1ed72647b69b9306cbae1998b7c44a093290220509a079c2cfa0498fc33720a182c9e89c6e3b6555b86b0a30155ba4f0603151101", "03b1e822dabe0ea152f37d769042a4d6deb01562368a3076e90ad209e74df50d54"], "sequence": 4294967295, "scriptSig": {"hex": "160014af5e36a5b8ca766ace1cbfd4055bfed465fc3310", "asm": "0014af5e36a5b8ca766ace1cbfd4055bfed465fc3310"}, "vout": 24, "txid": "3e392e0ffb4fa976dcc484fd68289f955c507617e29e158bf9c699eb851fedd1"}, {"txinwitness": ["3045022100e366e85fea77eeb353873fc00c19821fca585cb81e156d06e86c80fa3ac38e44022035821d56a23a2f2aed968fe8bbc7412467706de76755341284569fc895acffd001", "030e3750ee81cdfa63c0b6196850f578ff016a2d83f6951c8a4629f2b64f856b0d"], "sequence": 4294967295, "scriptSig": {"hex": "16001418cf0d35c90e8e8f96015f2c3e2907c8d36eaadd", "asm": "001418cf0d35c90e8e8f96015f2c3e2907c8d36eaadd"}, "vout": 1, "txid": "70d7a195d05b240be027d87186d794a5d990fdbe1452d5b1a63e1429451c761a"}, {"txinwitness": ["304402203c364aa7158a0ef7d660c17ab6293b81bbbee75518e029eeb75e7804c7136d24022075e4487a246a6a4ca97bfb42de4853e1c11b3789fcc9a1b28cc1a6f3f544638201", "03cad0aff7094a47c0d4446696d51b0462fbd3eace4bfc53f55da41202887485ea"], "sequence": 4294967295, "scriptSig": {"hex": "16001402227addc7192251bf5510690a9b4a575f57dec8", "asm": "001402227addc7192251bf5510690a9b4a575f57dec8"}, "vout": 0, "txid": "e4919c07e625cc15ff9b89228534a03f196d9fe704037fbe56310a599f1c3038"}, {"txinwitness": ["30440220659e5772e3c95ce24478845d99bb674fa770d8bb1a0c5a8354a91db0c8c69ce00220014ed0a50733c0ca6b3f00748db0a52f2340b9aeab26ae2b1a9961e2e85abf1901", "022b322e3d81a1a6af168c233bccc5dad69b575e9cd20c6990a352bbd4576e047c"], "sequence": 4294967295, "scriptSig": {"hex": "16001470a49dd4363d4a90c9cc04009d22c0b63e18bd17", "asm": "001470a49dd4363d4a90c9cc04009d22c0b63e18bd17"}, "vout": 13, "txid": "c9a073ade7f8516d9989862ca71d5e2a4ad6ee86db9044a2ab9a2fec22ffca94"}, {"txinwitness": ["3044022100d509140a3ba9dc38a67deba22e7ba78aebd7b75f8920896f336a7e3fb98dba1b021f7546fe5b39506358f1749637a3dccd1ee64c7cadf9920994837862cea7732901", "020189930661e5693826e65128f598bf22753550c555237573f0c431762dc0d24c"], "sequence": 4294967295, "scriptSig": {"hex": "1600142a65a94245255c3513a91fdca6c79a55db42a9fe", "asm": "00142a65a94245255c3513a91fdca6c79a55db42a9fe"}, "vout": 23, "txid": "5f822d3efbde91eb02f1a0e88570393c0e0267d094b297dce231f9260f77e856"}, {"txinwitness": ["3044022044e22bcf2e12ea67726697453cb1bd548b7c6e20c20cd339a3dc9b295927506602204fdcca498d896aa8dafb5744c836f3b7100f540a455e444b5949a658dbafbf1101", "033213c153578a7f6254f92fefcf7853699e994a80fc59191a738be72c748ec265"], "sequence": 4294967295, "scriptSig": {"hex": "160014ac43ca75195198438f25701a50c7416883eb3423", "asm": "0014ac43ca75195198438f25701a50c7416883eb3423"}, "vout": 39, "txid": "3e392e0ffb4fa976dcc484fd68289f955c507617e29e158bf9c699eb851fedd1"}, {"txinwitness": ["3044022011838aa34471e2da9ac081ee54e1d4f40eb77006500815da31a3d6b6890ebc2002204a85dbc4ef6c9291f552967b650b25fdd6cce9407660fbafc7aa54102ce84b1601", "02b31f8239a3f2d41fd542f96f45dd1156569159926d2a46b2098e3f9d7e5827b2"], "sequence": 4294967295, "scriptSig": {"hex": "16001434d5fea7c9a28cf107c516d7f32b79eb0a923d5d", "asm": "001434d5fea7c9a28cf107c516d7f32b79eb0a923d5d"}, "vout": 0, "txid": "3efe288f073fa0e967a621a91c877bf43b003b8624c7c69a10389644b0e76e29"}, {"txinwitness": ["3045022100cde9b311900234f6bd83146ab2dfd2169670c98667a11033f02abea5ee738d2702201e4e1e85b96b3117ff5f5fdf17fa6bcc8620f58faa679a1f7cfd1f02da5c200c01", "03920fc3d3be3bd00d78eb3ce728d20cc139a38df8516dd9858726ee983e4a5644"], "sequence": 4294967295, "scriptSig": {"hex": "16001476475338b71385a9168224328bb622a584e9b45c", "asm": "001476475338b71385a9168224328bb622a584e9b45c"}, "vout": 9, "txid": "1c079935424925b33bf3ad781b3172e62465c2a24d0f434e469318494a07ba01"}, {"txinwitness": ["3045022100cd124358f0ad0e6632ec29e6cc43b53e4755cc71422bbeacfd3d56e2b13b06f3022069b04159d0e2816665f0af7d6d2e41e983ac2ab8248adbdc4954a39636011e2401", "0288a5a4e5d92b3ab62b37160ac8bc6fbc1ae3efb832896f791300d7faef2d07ec"], "sequence": 4294967295, "scriptSig": {"hex": "160014e0e41d2febdaa9fb5af0e80ff93f19968f425441", "asm": "0014e0e41d2febdaa9fb5af0e80ff93f19968f425441"}, "vout": 13, "txid": "70d7a195d05b240be027d87186d794a5d990fdbe1452d5b1a63e1429451c761a"}, {"txinwitness": ["30440220417f5a349f4f56970a4da66cbf813880897518ae386d693c94af1f77616df47b0220318626a781cf58fbd10fefed4216c2e87a6394a9ea98e49446c6a860a882ae0201", "034e391e569e90e31bead2bc443342628d8f09f1d640a4bb7a645e2fa3a857b486"], "sequence": 4294967295, "scriptSig": {"hex": "1600146c8d6422f5c1a6089dd2f573860f2579564cbe70", "asm": "00146c8d6422f5c1a6089dd2f573860f2579564cbe70"}, "vout": 0, "txid": "9aef93f0f41519de81b637b348e686f40776423071bdd41b7761f1c8ed52ca55"}, {"txinwitness": ["3045022100ab59ad85127709c447b629928d56713e1cc81af48d4591198a49197b329ef331022007b674400a94d447f1456cb4575e4857e6129231aef7b765db4940141dc280c501", "0321203446feec34237efc320608b24bdd08b0558241118abe2289f1d33cc90ca6"], "sequence": 4294967295, "scriptSig": {"hex": "1600142a245a68ef281c35bf3048e26081ab5117217a8a", "asm": "00142a245a68ef281c35bf3048e26081ab5117217a8a"}, "vout": 0, "txid": "5b335e8f5c50ee5ce9653e4161ed58e15350ed4f9a59b932c1a9086284ab8753"}, {"txinwitness": ["3045022100dc9f7a546339e2c871a27ff8c19ade372deab5a450e3fb0cd8e38cecd4b86c8e02205bc302e0fe697ee473ba6c2a18e06259f0354f0ce738ee14b038fff5d58f1e4501", "03815eb80b64a74d5238d60752e281cd7087f85d90cd788360006081fbddd08a21"], "sequence": 4294967295, "scriptSig": {"hex": "16001451610f2638c19ad52f1bc3bb00c9e662d19824d7", "asm": "001451610f2638c19ad52f1bc3bb00c9e662d19824d7"}, "vout": 35, "txid": "c01c79c118cc7ac98e139c094c945a2d38ee04e7c9fc885ae360a126b1e63451"}, {"txinwitness": ["304402203b9cfd997f354c6276891b15daacc5e9ee7caa3b4ea7259aab27276267548554022073ef44793c8f2cade35b1601d5b4cab3ac2e074c323426918aec6645f3a5fb6c01", "035b9fde1fd8d272333bf6fb79c932c81da10eb8e7ded2d95861d0821d49eb6163"], "sequence": 4294967295, "scriptSig": {"hex": "160014aa1e335c8864a8e1aa6ffdd7b869170f74b04524", "asm": "0014aa1e335c8864a8e1aa6ffdd7b869170f74b04524"}, "vout": 0, "txid": "d783c93460f477e52eba95bda5732cb38a07219c30974572c5acdda0e5e07c4c"}, {"txinwitness": ["3043021f43a7aa99bae523873012ab65e8ff5ab45aa9d33108e98a2d99ed788f77e2540220047ad0949a71dff998d5391e1e0cea98e1ff3a7b833d642880aa57ba626c176401", "02fa9e0d33eb654a09f9afca1b22b9a16bb9bcde032d0255b33acbf87f0b2bb5d1"], "sequence": 4294967295, "scriptSig": {"hex": "1600146b339c8af3034409b0d03d90e9c8f4d8b0cd27ec", "asm": "00146b339c8af3034409b0d03d90e9c8f4d8b0cd27ec"}, "vout": 25, "txid": "5f822d3efbde91eb02f1a0e88570393c0e0267d094b297dce231f9260f77e856"}, {"txinwitness": ["304402205d74135cb4be9f8cb02c3ffc18a2d12299567cc4edac70e411e5a05bfd398b7202206aa99b588bbb894617f6d5783cf5768b12a46948cca48bfa4cde7391044342bb01", "0364a07f9ec4f10a944c391317f274f570d5bf12bd83750a05d0dfeb81aba6a3af"], "sequence": 4294967295, "scriptSig": {"hex": "1600145f81841f78777f20bef69894b66f54cfcd326ff9", "asm": "00145f81841f78777f20bef69894b66f54cfcd326ff9"}, "vout": 19, "txid": "1c079935424925b33bf3ad781b3172e62465c2a24d0f434e469318494a07ba01"}, {"txinwitness": ["304402200b3f90eb2eac573d2a928001a08f55fcfdf93c281cfee348d93391d4c57327ad02204e868c6ef661664c331f9a6ee81945de39f1b8fb27a2245d773feb8594918bb301", "03984c374c9792c295c1c279ed575dc0e4b2563020ba29c664027f3edafd971b78"], "sequence": 4294967295, "scriptSig": {"hex": "160014e56c84e8306675ea916d4ce7a5bff6064aeef818", "asm": "0014e56c84e8306675ea916d4ce7a5bff6064aeef818"}, "vout": 7, "txid": "d8430f91f90b84cc0ed07497d5120234e8870871d99e4203bf8b05336a49ebe8"}, {"txinwitness": ["3045022100daad2dcd12d7aeee22efad842c1ba7e47606f842339c468b7dc04aa5246de2f302200ad7a684809441ad81b2d61d50654a79aa7e32ec39cc44f6c1e6bbe4d294cd5801", "03ad1bc90c6219d7ff367c9ee7bb866526082fb9ab95954c65b29e1f2ca74797ef"], "sequence": 4294967295, "scriptSig": {"hex": "1600146a3d6b7096539c0b52127455676e6baf135a2926", "asm": "00146a3d6b7096539c0b52127455676e6baf135a2926"}, "vout": 7, "txid": "c9a073ade7f8516d9989862ca71d5e2a4ad6ee86db9044a2ab9a2fec22ffca94"}], "txid": "3c5cab49de4182f175f5b14d43a98897b6c6bbd2bf01da024004a03e34aa078f", "blocktime": 1537875543, "version": 2, "confirmations": 11464, "time": 1537875543, "locktime": 0, "vsize": 2709, "size": 5044}