{"hash": "3c60131b1ecdcc4a0118634da1d292d5dfa665cd5b86629017edd89fcfe87413", "blockhash": "0000000000000000001e0dab787dd257d1dbfcb92a98c2207d5e1078be1f4165", "vout": [{"scriptPubKey": {"reqSigs": 1, "hex": "a914196a505cdb9119653cecaddb36e6c401c0666f8687", "addresses": ["341QBAEMkTDkF8Lh3ntxZcQZjvghdru5Tq"], "asm": "OP_HASH160 196a505cdb9119653cecaddb36e6c401c0666f86 OP_EQUAL", "type": "scripthash"}, "value": 0.0016, "n": 0}], "hex": "0100000002ad921bd0136fef03b9dcdfc1fa969d48d30bfc015efb0eefa0ab839df03c5f12010000006a47304402200ed807d05a605208c50d071a83abbcf93f859a9e4ec9e5884032dba502bf0d6002205281cad15029bb76008ec703a0abcbe50bbf7114f43c39e2dd2b603c8d72005101210208a46300a927e25df944e06689c7c710f7b92263418fbd5f9a8cf01385878b16ffffffffad921bd0136fef03b9dcdfc1fa969d48d30bfc015efb0eefa0ab839df03c5f12000000006b483045022100eea02a866751c9e293640ff282475f6b87a82a1b6cc5363c8bd0d6b64dcc4dbe02201ac65eff01fb098dff0c71f2a31e1bd758d7fe5f43b33fbcfcf6a05f5005af2301210254b48e24202f999acab7813f8d61ae31e2fa8c9274cc6dbddc1ef7ccb59e7ec7ffffffff01007102000000000017a914196a505cdb9119653cecaddb36e6c401c0666f868700000000", "vin": [{"sequence": 4294967295, "scriptSig": {"hex": "47304402200ed807d05a605208c50d071a83abbcf93f859a9e4ec9e5884032dba502bf0d6002205281cad15029bb76008ec703a0abcbe50bbf7114f43c39e2dd2b603c8d72005101210208a46300a927e25df944e06689c7c710f7b92263418fbd5f9a8cf01385878b16", "asm": "304402200ed807d05a605208c50d071a83abbcf93f859a9e4ec9e5884032dba502bf0d6002205281cad15029bb76008ec703a0abcbe50bbf7114f43c39e2dd2b603c8d720051[ALL] 0208a46300a927e25df944e06689c7c710f7b92263418fbd5f9a8cf01385878b16"}, "vout": 1, "txid": "125f3cf09d83aba0ef0efb5e01fc0bd3489d96fac1dfdcb903ef6f13d01b92ad"}, {"sequence": 4294967295, "scriptSig": {"hex": "483045022100eea02a866751c9e293640ff282475f6b87a82a1b6cc5363c8bd0d6b64dcc4dbe02201ac65eff01fb098dff0c71f2a31e1bd758d7fe5f43b33fbcfcf6a05f5005af2301210254b48e24202f999acab7813f8d61ae31e2fa8c9274cc6dbddc1ef7ccb59e7ec7", "asm": "3045022100eea02a866751c9e293640ff282475f6b87a82a1b6cc5363c8bd0d6b64dcc4dbe02201ac65eff01fb098dff0c71f2a31e1bd758d7fe5f43b33fbcfcf6a05f5005af23[ALL] 0254b48e24202f999acab7813f8d61ae31e2fa8c9274cc6dbddc1ef7ccb59e7ec7"}, "vout": 0, "txid": "125f3cf09d83aba0ef0efb5e01fc0bd3489d96fac1dfdcb903ef6f13d01b92ad"}], "txid": "3c60131b1ecdcc4a0118634da1d292d5dfa665cd5b86629017edd89fcfe87413", "blocktime": 1537872475, "version": 1, "confirmations": 11486, "time": 1537872475, "locktime": 0, "vsize": 337, "size": 337}