{"hash": "3c6366307d578984a2b33d62c6242b4296a9bfa9e5ab5a799140433333537750", "blockhash": "00000000000000000017f5eb5941039fbcee6240d03bc1f2f8e35350df66a1d8", "vout": [{"scriptPubKey": {"type": "nulldata", "hex": "6a4c50000077ef00012cb2bc3ed45b681581ade26cd19ed074892d00f8e87af8e8e963c7cfd5b99529522677c7572b56c310f930b169925baa18000613e36e32f8169cbc9a9526289ac0f6612cd74e33776ee4", "asm": "OP_RETURN 000077ef00012cb2bc3ed45b681581ade26cd19ed074892d00f8e87af8e8e963c7cfd5b99529522677c7572b56c310f930b169925baa18000613e36e32f8169cbc9a9526289ac0f6612cd74e33776ee4"}, "value": 0.0, "n": 0}, {"scriptPubKey": {"reqSigs": 1, "hex": "76a91457fd0838c7f475fe8943304afe183806c8dc532d88ac", "addresses": ["192EufoDN9BWcrNcKBVJmGxT57ZWUzw1wY"], "asm": "OP_DUP OP_HASH160 57fd0838c7f475fe8943304afe183806c8dc532d OP_EQUALVERIFY OP_CHECKSIG", "type": "pubkeyhash"}, "value": 0.0147378, "n": 1}], "hex": "01000000015de6c7e7d60e28fa0171bfac9c5f1c88c93274f5cbfd8e10dc8ff62f54da2b0a010000006b483045022100fea12ade35ab1401f1dd5387007e792370913b147fe3b97fd854c6e60f12a05002202b62f7c2abb059a093cab252e32e06862f494e3e0143c000062717efcc72f39f0121031d4b7374e5dc4c92cd3582f8d469cd866b998396d37865d806512ed13ba676a7ffffffff020000000000000000536a4c50000077ef00012cb2bc3ed45b681581ade26cd19ed074892d00f8e87af8e8e963c7cfd5b99529522677c7572b56c310f930b169925baa18000613e36e32f8169cbc9a9526289ac0f6612cd74e33776ee4f47c1600000000001976a91457fd0838c7f475fe8943304afe183806c8dc532d88ac00000000", "vin": [{"sequence": 4294967295, "scriptSig": {"hex": "483045022100fea12ade35ab1401f1dd5387007e792370913b147fe3b97fd854c6e60f12a05002202b62f7c2abb059a093cab252e32e06862f494e3e0143c000062717efcc72f39f0121031d4b7374e5dc4c92cd3582f8d469cd866b998396d37865d806512ed13ba676a7", "asm": "3045022100fea12ade35ab1401f1dd5387007e792370913b147fe3b97fd854c6e60f12a05002202b62f7c2abb059a093cab252e32e06862f494e3e0143c000062717efcc72f39f[ALL] 031d4b7374e5dc4c92cd3582f8d469cd866b998396d37865d806512ed13ba676a7"}, "vout": 1, "txid": "0a2bda542ff68fdc108efdcbf57432c9881c5f9cacbf7101fa280ed6e7c7e65d"}], "txid": "3c6366307d578984a2b33d62c6242b4296a9bfa9e5ab5a799140433333537750", "blocktime": 1537874412, "version": 1, "confirmations": 11467, "time": 1537874412, "locktime": 0, "vsize": 284, "size": 284}