{"hash": "3c6ac8229940ea721b14964e1e823343be261e001c507fd76e66770f06b7f7d9", "blockhash": "0000000000000000001cda96e906b7601b7a6fb1a3b62bca570a9e5d8f4b3de1", "vout": [{"scriptPubKey": {"reqSigs": 1, "hex": "76a914ec1e93fb5822cf33c4c7dfc46991f5c6375834ff88ac", "addresses": ["1NXV6sbocV4GLF48LECv4D2cwZ13ef5D9L"], "asm": "OP_DUP OP_HASH160 ec1e93fb5822cf33c4c7dfc46991f5c6375834ff OP_EQUALVERIFY OP_CHECKSIG", "type": "pubkeyhash"}, "value": 0.05499802, "n": 0}, {"scriptPubKey": {"reqSigs": 1, "hex": "76a91461254c4ca26f4d4005f8651b8001bfae2ae670cf88ac", "addresses": ["19rfE82PvdtBNLudf6PB8cSitYuwm9jxYG"], "asm": "OP_DUP OP_HASH160 61254c4ca26f4d4005f8651b8001bfae2ae670cf OP_EQUALVERIFY OP_CHECKSIG", "type": "pubkeyhash"}, "value": 0.00065682, "n": 1}], "hex": "0100000002ea91fea4ce1d783cb9f09ab7b27df97d795fc565717422c98f7860800dfa0337000000006b483045022100883ba7a686938d19fae98651cdc88e2d72da4ca9b10c20b9ecf3ae0000ffb953022024ed7d43dc940c86011f8156393e0cdec1a04d926f6e1cef05508a166d59c669012102c9b32ac7079e56ffdc0463352b69909df89b753a46e558ec13ba0dc3a47747c5ffffffff01495399aceb34499626a194f95a4f27ae03499c3a74ccb0abb65d2cc0b0cbac000000006a473044022015b7416cde16a34c9a11922e50cb15f06360569ae341d67b6d25727152234fa3022070af4a9d25e3246e153793c37614bca2d597068b8ade4a0a453949d838734a93012103acb6b97dfa4f06cb32f9fc89c27d493c34dae752c4c3214b42db713cd78b269bffffffff029aeb5300000000001976a914ec1e93fb5822cf33c4c7dfc46991f5c6375834ff88ac92000100000000001976a91461254c4ca26f4d4005f8651b8001bfae2ae670cf88ac00000000", "vin": [{"sequence": 4294967295, "scriptSig": {"hex": "483045022100883ba7a686938d19fae98651cdc88e2d72da4ca9b10c20b9ecf3ae0000ffb953022024ed7d43dc940c86011f8156393e0cdec1a04d926f6e1cef05508a166d59c669012102c9b32ac7079e56ffdc0463352b69909df89b753a46e558ec13ba0dc3a47747c5", "asm": "3045022100883ba7a686938d19fae98651cdc88e2d72da4ca9b10c20b9ecf3ae0000ffb953022024ed7d43dc940c86011f8156393e0cdec1a04d926f6e1cef05508a166d59c669[ALL] 02c9b32ac7079e56ffdc0463352b69909df89b753a46e558ec13ba0dc3a47747c5"}, "vout": 0, "txid": "3703fa0d8060788fc922747165c55f797df97db2b79af0b93c781dcea4fe91ea"}, {"sequence": 4294967295, "scriptSig": {"hex": "473044022015b7416cde16a34c9a11922e50cb15f06360569ae341d67b6d25727152234fa3022070af4a9d25e3246e153793c37614bca2d597068b8ade4a0a453949d838734a93012103acb6b97dfa4f06cb32f9fc89c27d493c34dae752c4c3214b42db713cd78b269b", "asm": "3044022015b7416cde16a34c9a11922e50cb15f06360569ae341d67b6d25727152234fa3022070af4a9d25e3246e153793c37614bca2d597068b8ade4a0a453949d838734a93[ALL] 03acb6b97dfa4f06cb32f9fc89c27d493c34dae752c4c3214b42db713cd78b269b"}, "vout": 0, "txid": "accbb0c02c5db6abb0cc743a9c4903ae274f5af994a126964934ebac99534901"}], "txid": "3c6ac8229940ea721b14964e1e823343be261e001c507fd76e66770f06b7f7d9", "blocktime": 1537873282, "version": 1, "confirmations": 11481, "time": 1537873282, "locktime": 0, "vsize": 373, "size": 373}