{"hash": "3c6a6b71a610c59027192801b510be93f17c3b7209f66e1800dd3663710ef972", "blockhash": "00000000000000000024a2167bbff67b0be802c0b01cdd79e6331c2be6459f87", "vout": [{"scriptPubKey": {"reqSigs": 1, "hex": "76a9144ade8e7af8e9a14aa45dede2905dc17ca18c5d4a88ac", "addresses": ["17pschQNxY6kajFzT2a682iZ9RVzAF8BUG"], "asm": "OP_DUP OP_HASH160 4ade8e7af8e9a14aa45dede2905dc17ca18c5d4a OP_EQUALVERIFY OP_CHECKSIG", "type": "pubkeyhash"}, "value": 0.00889711, "n": 0}, {"scriptPubKey": {"reqSigs": 1, "hex": "76a914e8cea30989bd15530f819b766684b00dc7ba7cfa88ac", "addresses": ["1NDyJtNTjmwk5xPNhjgAMu4HDHigtobu1s"], "asm": "OP_DUP OP_HASH160 e8cea30989bd15530f819b766684b00dc7ba7cfa OP_EQUALVERIFY OP_CHECKSIG", "type": "pubkeyhash"}, "value": 1.19327737, "n": 1}], "hex": "02000000073a72cdfab639833adf156c0d1a5a51abf67ba4ddfa773d38e9edabf573aec107040000006b483045022100bb37cd4a146eeeb3dc0c4436d17c3624d9f143d83766f5e20a8035c330227cce02205662a0ecaed09e19ef79378b93cca54bcee8173e86ec37ab4836ff35d1966ed0012102610d2448f8f7d9f2eef1416a7d7ec84ddb869829f182a3fd44a2032c7019ac2afeffffff4f3b73166940548e7179c5e55172e51ff884ce97797fce8674358fbeb4b1eda7000000006b4830450221008f76ff0a05302066a3dc247616751eecf267748820c16fb0f6380fae53e1034d02205147a267e27e25dc956a540164c6c1acea3fc464e64b898eb3e2dbed6123ba910121036a5b6696cb1e3e38793d84e6c4c826316503a228914beca13641ff5b42adb8c2feffffff6796cf1327d6a14e8c03ec896e447203a016bb993411a259ac7ccae60972123a010000006b483045022100a1141e2d6d9feabc2986c35e3550ee258b6dcf2a2ebe4469b780183c82c1c618022077f3a5084e57ac98471da33416bbd3c9a4215b5618ce06ae1e94e6c0ec881152012102b55942c0e373881a04bd18cf9e36950bd593dee9650fcd0973df960e32fdbf4bfeffffff6e2eec92b2bead9cf41b20b1730884de244ab15b9d3e46e87294f5d1f0e94039000000006a473044022059ed251b0a1c4000bd37cb4183296e99e03b530e53b04a4992bd35917dbc56e5022018461463d476289f98e87f1683402ebe5c9548e01d5776c857d427633d2eb6a70121026b7d9286fa7e5d9f5e28165c95d2ad2cd9895fdda48ba11db1bd60a41d61f449feffffff94e94654d533c11671cd769475f23628d8456fbd4eea45641490b855fa83b393010000006b48304502210085e9bbb025e962350ab9e189ac08fb4ed8121bd94982ba99ba3ab5cfb4f1126a02206b33124d5dcf66077e2bd9defdc0e3cd9cd49d0b21a137d9a156ca98698895d701210213ef0093ce264779ab46447e49c8ad25d43b15ce96cd6236dd3dbc24cf74d401feffffffcdffb5762ade014df802c4dfd399f3075802f19ab6cf810eb6415ae50985b57e010000006a4730440220612a744ee9f5d72f36810835211afb664c8f1f1e025b9f2446b223c8ca185f6102201f515f4eb414fabbc8a9fa71e5094e159f1287a2637e29083da3da9e2e5f030701210316ca96a5d35a51cf9a50140a810e66435e170b0246af77e3315144c110aba9fbfeffffffd1b2600a17491f080f355b1fb8b51e5ad4106def4a8cb80e37679faa70a204702e0000006a4730440220651233871dfe0af01e3c9a3605fe556dd17d7fc414553c74933d39fd330b7e430220509a8834e77f565995184277884b571ac213638ae0f2c645d61e6843de305bc80121029535510cd8525162d5c1336d3cbb085d28324b58607c43636e13aa9a0906db22feffffff026f930d00000000001976a9144ade8e7af8e9a14aa45dede2905dc17ca18c5d4a88acf9cb1c07000000001976a914e8cea30989bd15530f819b766684b00dc7ba7cfa88ac0d490800", "vin": [{"sequence": 4294967294, "scriptSig": {"hex": "483045022100bb37cd4a146eeeb3dc0c4436d17c3624d9f143d83766f5e20a8035c330227cce02205662a0ecaed09e19ef79378b93cca54bcee8173e86ec37ab4836ff35d1966ed0012102610d2448f8f7d9f2eef1416a7d7ec84ddb869829f182a3fd44a2032c7019ac2a", "asm": "3045022100bb37cd4a146eeeb3dc0c4436d17c3624d9f143d83766f5e20a8035c330227cce02205662a0ecaed09e19ef79378b93cca54bcee8173e86ec37ab4836ff35d1966ed0[ALL] 02610d2448f8f7d9f2eef1416a7d7ec84ddb869829f182a3fd44a2032c7019ac2a"}, "vout": 4, "txid": "07c1ae73f5abede9383d77fadda47bf6ab515a1a0d6c15df3a8339b6facd723a"}, {"sequence": 4294967294, "scriptSig": {"hex": "4830450221008f76ff0a05302066a3dc247616751eecf267748820c16fb0f6380fae53e1034d02205147a267e27e25dc956a540164c6c1acea3fc464e64b898eb3e2dbed6123ba910121036a5b6696cb1e3e38793d84e6c4c826316503a228914beca13641ff5b42adb8c2", "asm": "30450221008f76ff0a05302066a3dc247616751eecf267748820c16fb0f6380fae53e1034d02205147a267e27e25dc956a540164c6c1acea3fc464e64b898eb3e2dbed6123ba91[ALL] 036a5b6696cb1e3e38793d84e6c4c826316503a228914beca13641ff5b42adb8c2"}, "vout": 0, "txid": "a7edb1b4be8f357486ce7f7997ce84f81fe57251e5c579718e54406916733b4f"}, {"sequence": 4294967294, "scriptSig": {"hex": "483045022100a1141e2d6d9feabc2986c35e3550ee258b6dcf2a2ebe4469b780183c82c1c618022077f3a5084e57ac98471da33416bbd3c9a4215b5618ce06ae1e94e6c0ec881152012102b55942c0e373881a04bd18cf9e36950bd593dee9650fcd0973df960e32fdbf4b", "asm": "3045022100a1141e2d6d9feabc2986c35e3550ee258b6dcf2a2ebe4469b780183c82c1c618022077f3a5084e57ac98471da33416bbd3c9a4215b5618ce06ae1e94e6c0ec881152[ALL] 02b55942c0e373881a04bd18cf9e36950bd593dee9650fcd0973df960e32fdbf4b"}, "vout": 1, "txid": "3a127209e6ca7cac59a2113499bb16a00372446e89ec038c4ea1d62713cf9667"}, {"sequence": 4294967294, "scriptSig": {"hex": "473044022059ed251b0a1c4000bd37cb4183296e99e03b530e53b04a4992bd35917dbc56e5022018461463d476289f98e87f1683402ebe5c9548e01d5776c857d427633d2eb6a70121026b7d9286fa7e5d9f5e28165c95d2ad2cd9895fdda48ba11db1bd60a41d61f449", "asm": "3044022059ed251b0a1c4000bd37cb4183296e99e03b530e53b04a4992bd35917dbc56e5022018461463d476289f98e87f1683402ebe5c9548e01d5776c857d427633d2eb6a7[ALL] 026b7d9286fa7e5d9f5e28165c95d2ad2cd9895fdda48ba11db1bd60a41d61f449"}, "vout": 0, "txid": "3940e9f0d1f59472e8463e9d5bb14a24de840873b1201bf49cadbeb292ec2e6e"}, {"sequence": 4294967294, "scriptSig": {"hex": "48304502210085e9bbb025e962350ab9e189ac08fb4ed8121bd94982ba99ba3ab5cfb4f1126a02206b33124d5dcf66077e2bd9defdc0e3cd9cd49d0b21a137d9a156ca98698895d701210213ef0093ce264779ab46447e49c8ad25d43b15ce96cd6236dd3dbc24cf74d401", "asm": "304502210085e9bbb025e962350ab9e189ac08fb4ed8121bd94982ba99ba3ab5cfb4f1126a02206b33124d5dcf66077e2bd9defdc0e3cd9cd49d0b21a137d9a156ca98698895d7[ALL] 0213ef0093ce264779ab46447e49c8ad25d43b15ce96cd6236dd3dbc24cf74d401"}, "vout": 1, "txid": "93b383fa55b890146445ea4ebd6f45d82836f2759476cd7116c133d55446e994"}, {"sequence": 4294967294, "scriptSig": {"hex": "4730440220612a744ee9f5d72f36810835211afb664c8f1f1e025b9f2446b223c8ca185f6102201f515f4eb414fabbc8a9fa71e5094e159f1287a2637e29083da3da9e2e5f030701210316ca96a5d35a51cf9a50140a810e66435e170b0246af77e3315144c110aba9fb", "asm": "30440220612a744ee9f5d72f36810835211afb664c8f1f1e025b9f2446b223c8ca185f6102201f515f4eb414fabbc8a9fa71e5094e159f1287a2637e29083da3da9e2e5f0307[ALL] 0316ca96a5d35a51cf9a50140a810e66435e170b0246af77e3315144c110aba9fb"}, "vout": 1, "txid": "7eb58509e55a41b60e81cfb69af1025807f399d3dfc402f84d01de2a76b5ffcd"}, {"sequence": 4294967294, "scriptSig": {"hex": "4730440220651233871dfe0af01e3c9a3605fe556dd17d7fc414553c74933d39fd330b7e430220509a8834e77f565995184277884b571ac213638ae0f2c645d61e6843de305bc80121029535510cd8525162d5c1336d3cbb085d28324b58607c43636e13aa9a0906db22", "asm": "30440220651233871dfe0af01e3c9a3605fe556dd17d7fc414553c74933d39fd330b7e430220509a8834e77f565995184277884b571ac213638ae0f2c645d61e6843de305bc8[ALL] 029535510cd8525162d5c1336d3cbb085d28324b58607c43636e13aa9a0906db22"}, "vout": 46, "txid": "7004a270aa9f67370eb88c4aef6d10d45a1eb5b81f5b350f081f49170a60b2d1"}], "txid": "3c6a6b71a610c59027192801b510be93f17c3b7209f66e1800dd3663710ef972", "blocktime": 1537870564, "version": 2, "confirmations": 11515, "time": 1537870564, "locktime": 542989, "vsize": 1111, "size": 1111}