{"hash": "3c6f3d47a14699fc42fa5d0690a8750ce563b9702935988df02f64fdd171aec4", "blockhash": "0000000000000000000baef3f32e3676a92c3b2e5da21b426e4f302fc371ce76", "vout": [{"scriptPubKey": {"reqSigs": 1, "hex": "76a9146929a3280ebba9ec390e891ffc529c82b18dbe6d88ac", "addresses": ["1Ab3q9y57bRmrYcKSKWcCqx27t5dUegEGa"], "asm": "OP_DUP OP_HASH160 6929a3280ebba9ec390e891ffc529c82b18dbe6d OP_EQUALVERIFY OP_CHECKSIG", "type": "pubkeyhash"}, "value": 0.00577375, "n": 0}, {"scriptPubKey": {"type": "nulldata", "hex": "6a4c500000783000010166cb4da3c53a17d0d06ce027b7256b4774d339f6019d6ddc0f1b8ff1172ded1b922fe774e5476d7618ccf947095baa1f730613e5d27e617af01d100759d4ba30d2c37bb011d97e02cf", "asm": "OP_RETURN 0000783000010166cb4da3c53a17d0d06ce027b7256b4774d339f6019d6ddc0f1b8ff1172ded1b922fe774e5476d7618ccf947095baa1f730613e5d27e617af01d100759d4ba30d2c37bb011d97e02cf"}, "value": 0.0, "n": 1}], "hex": "0100000001f92d57873de0b0a21e0fa23cac7ee8c235b8cfac4f8bab6e842b04ea89172e8a010000006b483045022100afedeb048a33ef3ad7a74f559c86abb861933c3386558ab028eceeffd3f2133902206868ff6e3a5be9d9f27915daa18fb070d1ea9ebaa0d9d231a46bfd896bf7d53f012102f27ed11b91dac1f82ae38ed2e46642d496412322a9c402dc82ed7fa27a051981ffffffff025fcf0800000000001976a9146929a3280ebba9ec390e891ffc529c82b18dbe6d88ac0000000000000000536a4c500000783000010166cb4da3c53a17d0d06ce027b7256b4774d339f6019d6ddc0f1b8ff1172ded1b922fe774e5476d7618ccf947095baa1f730613e5d27e617af01d100759d4ba30d2c37bb011d97e02cf00000000", "vin": [{"sequence": 4294967295, "scriptSig": {"hex": "483045022100afedeb048a33ef3ad7a74f559c86abb861933c3386558ab028eceeffd3f2133902206868ff6e3a5be9d9f27915daa18fb070d1ea9ebaa0d9d231a46bfd896bf7d53f012102f27ed11b91dac1f82ae38ed2e46642d496412322a9c402dc82ed7fa27a051981", "asm": "3045022100afedeb048a33ef3ad7a74f559c86abb861933c3386558ab028eceeffd3f2133902206868ff6e3a5be9d9f27915daa18fb070d1ea9ebaa0d9d231a46bfd896bf7d53f[ALL] 02f27ed11b91dac1f82ae38ed2e46642d496412322a9c402dc82ed7fa27a051981"}, "vout": 1, "txid": "8a2e1789ea042b846eab8b4faccfb835c2e87eac3ca20f1ea2b0e03d87572df9"}], "txid": "3c6f3d47a14699fc42fa5d0690a8750ce563b9702935988df02f64fdd171aec4", "blocktime": 1537876114, "version": 1, "confirmations": 11460, "time": 1537876114, "locktime": 0, "vsize": 284, "size": 284}