{"hash": "3c7082b011db6a662255008c08f93e4b6821d997e29698d38a7600f9ae1848d8", "blockhash": "000000000000000000022b45ed06c6f4ccd3cf7fb5ba4856ebd2e58215665228", "vout": [{"scriptPubKey": {"reqSigs": 1, "hex": "76a914b1ba68bf1d8a0618a8f4fd09aee8dd1f257e7f0188ac", "addresses": ["1HCjutcfrzj5hYv6uhBWyje79G7hum8KZq"], "asm": "OP_DUP OP_HASH160 b1ba68bf1d8a0618a8f4fd09aee8dd1f257e7f01 OP_EQUALVERIFY OP_CHECKSIG", "type": "pubkeyhash"}, "value": 0.00077955, "n": 0}, {"scriptPubKey": {"reqSigs": 1, "hex": "76a914ad1c98928cdeddbb536f1762a141a8e0cc7f74f188ac", "addresses": ["1GnLA56YntUQA6mukjqdnSvFBbA6C5Z3gM"], "asm": "OP_DUP OP_HASH160 ad1c98928cdeddbb536f1762a141a8e0cc7f74f1 OP_EQUALVERIFY OP_CHECKSIG", "type": "pubkeyhash"}, "value": 0.00185268, "n": 1}], "hex": "010000000196e6b1c28f9e96d7c1c8ceb10ede0f36de34dbb41da19bd742e15b98fddce665010000006b483045022100d82ccf08a40b8049e09077b6ae424cf78b564fceab68991b86ea445766b2c29a02205d815a89b5594043152bf5fccd9ebbb9fd546038a137d90877e37ecfc8f0cebe0121030dd28a0a6de84f7701a21c01d2a982a6bd980dfdf705830ec739d0c0c1fa2cdbffffffff0283300100000000001976a914b1ba68bf1d8a0618a8f4fd09aee8dd1f257e7f0188acb4d30200000000001976a914ad1c98928cdeddbb536f1762a141a8e0cc7f74f188ac00000000", "vin": [{"sequence": 4294967295, "scriptSig": {"hex": "483045022100d82ccf08a40b8049e09077b6ae424cf78b564fceab68991b86ea445766b2c29a02205d815a89b5594043152bf5fccd9ebbb9fd546038a137d90877e37ecfc8f0cebe0121030dd28a0a6de84f7701a21c01d2a982a6bd980dfdf705830ec739d0c0c1fa2cdb", "asm": "3045022100d82ccf08a40b8049e09077b6ae424cf78b564fceab68991b86ea445766b2c29a02205d815a89b5594043152bf5fccd9ebbb9fd546038a137d90877e37ecfc8f0cebe[ALL] 030dd28a0a6de84f7701a21c01d2a982a6bd980dfdf705830ec739d0c0c1fa2cdb"}, "vout": 1, "txid": "65e6dcfd985be142d79ba11db4db34de360fde0eb1cec8c1d7969e8fc2b1e696"}], "txid": "3c7082b011db6a662255008c08f93e4b6821d997e29698d38a7600f9ae1848d8", "blocktime": 1537869901, "version": 1, "confirmations": 11522, "time": 1537869901, "locktime": 0, "vsize": 226, "size": 226}