{"hash": "3ddc8eea03dad4ce542a6652910f3d3971c375e2c90bf3de4fe1f60828a1ad39", "blockhash": "00000000000000000024a2167bbff67b0be802c0b01cdd79e6331c2be6459f87", "vout": [{"scriptPubKey": {"reqSigs": 1, "hex": "76a91407749b56ee7674d23e692d0cefad7d2a637362be88ac", "addresses": ["1gRRKrEuFc5Hg9e9DYo2tZxQTjXAgn199"], "asm": "OP_DUP OP_HASH160 07749b56ee7674d23e692d0cefad7d2a637362be OP_EQUALVERIFY OP_CHECKSIG", "type": "pubkeyhash"}, "value": 0.01071, "n": 0}, {"scriptPubKey": {"reqSigs": 1, "hex": "a9140155874553c527f049c0ae3d5a778b0e04e347bb87", "addresses": ["31p54MS7MSBGATPf7L9k6okpqGURCLuP5X"], "asm": "OP_HASH160 0155874553c527f049c0ae3d5a778b0e04e347bb OP_EQUAL", "type": "scripthash"}, "value": 2.45928376, "n": 1}], "hex": "010000000001012386bccdb7d043cc7c0d9f7fe7e3b3a0b77afc508e88dcf0a36884a87e6d50730100000023220020ead9813ef71a14a1fc550cfb5c5dd853d1e6bbccfde25f8f3c1124c6b47fda22ffffffff0298571000000000001976a91407749b56ee7674d23e692d0cefad7d2a637362be88acb891a80e0000000017a9140155874553c527f049c0ae3d5a778b0e04e347bb870400483045022100d91736f6df57e4339a12f50928e0bf42f6990882119b7e40e881756a2d4794dc02200adb5f2aa173a4503e02567cf62b8b317df559034d141a45b20f6999baf870430147304402203539894e67661aff39e50cdb646629b144f1e027d32a18e4066754cc76d9c02202207622f46a3a55a026a6f7dc05b3126abbd9c6cfae29a9a91fe9d84fa6f3afc2830147522103baf82ab85653fe1a4c26c826d6e71ff0f794cef0ba8d4b9c350b7cd8a099295c210374d34c43195a03910cd16cba2c089b5a40de35ab5857ec656bdacade80fb67c052ae00000000", "vin": [{"txinwitness": ["", "3045022100d91736f6df57e4339a12f50928e0bf42f6990882119b7e40e881756a2d4794dc02200adb5f2aa173a4503e02567cf62b8b317df559034d141a45b20f6999baf8704301", "304402203539894e67661aff39e50cdb646629b144f1e027d32a18e4066754cc76d9c02202207622f46a3a55a026a6f7dc05b3126abbd9c6cfae29a9a91fe9d84fa6f3afc28301", "522103baf82ab85653fe1a4c26c826d6e71ff0f794cef0ba8d4b9c350b7cd8a099295c210374d34c43195a03910cd16cba2c089b5a40de35ab5857ec656bdacade80fb67c052ae"], "sequence": 4294967295, "scriptSig": {"hex": "220020ead9813ef71a14a1fc550cfb5c5dd853d1e6bbccfde25f8f3c1124c6b47fda22", "asm": "0020ead9813ef71a14a1fc550cfb5c5dd853d1e6bbccfde25f8f3c1124c6b47fda22"}, "vout": 1, "txid": "73506d7ea88468a3f0dc888e50fc7ab7a0b3e3e77f9f0d7ccc43d0b7cdbc8623"}], "txid": "3c724a6ac456983f8d18fce5fde1dea0a37989f546fddfa1d0df2f8901e287c4", "blocktime": 1537870564, "version": 1, "confirmations": 11515, "time": 1537870564, "locktime": 0, "vsize": 208, "size": 373}