{"hash": "7f6a5a76d2f68ac882921d26ee9b8025aec06840af5df7574e75b7fc3712be8e", "blockhash": "0000000000000000000e13cef7c366c0283d82e591d1acd082e914b08063cdf1", "vout": [{"scriptPubKey": {"reqSigs": 1, "hex": "76a9146730bf08fbe9c61c2adca085833214aeff21c8c688ac", "addresses": ["1AQczhx5hgGG2NdLw4A89eFqQopdUgFavX"], "asm": "OP_DUP OP_HASH160 6730bf08fbe9c61c2adca085833214aeff21c8c6 OP_EQUALVERIFY OP_CHECKSIG", "type": "pubkeyhash"}, "value": 9.9e-05, "n": 0}, {"scriptPubKey": {"reqSigs": 1, "hex": "a9141ea31ee0c58fc1e57f2ef8e550e150b03b4c5f3c87", "addresses": ["34V1c7nhAV6Grt6hexfHHt451X2fbhSDyw"], "asm": "OP_HASH160 1ea31ee0c58fc1e57f2ef8e550e150b03b4c5f3c OP_EQUAL", "type": "scripthash"}, "value": 0.00092145, "n": 1}], "hex": "010000000001019f52a843488757cb11e78faa7a54d01002c40d0abef2ad94c79a99fd8545cacd0100000023220020b5afc8940ff0cfaa9ea8bc432325ad3bebb7d9d80d862f4a9d71599834a1ebedffffffff02ac260000000000001976a9146730bf08fbe9c61c2adca085833214aeff21c8c688acf16701000000000017a9141ea31ee0c58fc1e57f2ef8e550e150b03b4c5f3c870400483045022100a098399bd93d536cf43be2165dd1a36664ee73f6dfb9fd9f6363c51d5250fafe0220723cd096116721ef8d98df6ab11c9bf36d7c9ec1ff121b8308be97b3f83eecc60147304402200b1a4e61adf225d0b8fc42a44cf947654c9878090191a992ac097af8a146e5f102207f7f34fd2fd48affb67b7d5e1de4d418e91412344dcd8fc8e6ed67269843b6db01475221033f1a1e9827ea969509a10cae1794b1ae9f7e2087f09823b9ee1bd9d63f8e7fe82103871fc2ca08e6950b38867e8e6a0e94ee625223d3aa0df5c65f414c6d784467e252ae00000000", "vin": [{"txinwitness": ["", "3045022100a098399bd93d536cf43be2165dd1a36664ee73f6dfb9fd9f6363c51d5250fafe0220723cd096116721ef8d98df6ab11c9bf36d7c9ec1ff121b8308be97b3f83eecc601", "304402200b1a4e61adf225d0b8fc42a44cf947654c9878090191a992ac097af8a146e5f102207f7f34fd2fd48affb67b7d5e1de4d418e91412344dcd8fc8e6ed67269843b6db01", "5221033f1a1e9827ea969509a10cae1794b1ae9f7e2087f09823b9ee1bd9d63f8e7fe82103871fc2ca08e6950b38867e8e6a0e94ee625223d3aa0df5c65f414c6d784467e252ae"], "sequence": 4294967295, "scriptSig": {"hex": "220020b5afc8940ff0cfaa9ea8bc432325ad3bebb7d9d80d862f4a9d71599834a1ebed", "asm": "0020b5afc8940ff0cfaa9ea8bc432325ad3bebb7d9d80d862f4a9d71599834a1ebed"}, "vout": 1, "txid": "cdca4585fd999ac794adf2be0a0dc40210d0547aaa8fe711cb57874843a8529f"}], "txid": "3c754acb871dbee27556b23a58ec406ad915ed00493e20fc9326eaf9aae43d9c", "blocktime": 1537871767, "version": 1, "confirmations": 11495, "time": 1537871767, "locktime": 0, "vsize": 208, "size": 373}