{"hash": "3c7cb2657e6a22d08c8211497e19d72010ac7bb8c07686e22256e030cb3b616c", "blockhash": "0000000000000000001f76057863aec43deb6fa401d9628bb513d65a8098bfab", "vout": [{"scriptPubKey": {"reqSigs": 1, "hex": "76a9145beb8805c127a5a5e6d176d1fb9d72a8e190046888ac", "addresses": ["19P2eTjBtXh56HUQ3XBt1Sim43JL3LXzSX"], "asm": "OP_DUP OP_HASH160 5beb8805c127a5a5e6d176d1fb9d72a8e1900468 OP_EQUALVERIFY OP_CHECKSIG", "type": "pubkeyhash"}, "value": 0.005, "n": 0}, {"scriptPubKey": {"reqSigs": 1, "hex": "76a91417a44adcd3ef791b5e7fc2c6ee2cd5a0ac12adc788ac", "addresses": ["13A1MeixGUZ1NnUC6BEgErgEKh45QLYJYe"], "asm": "OP_DUP OP_HASH160 17a44adcd3ef791b5e7fc2c6ee2cd5a0ac12adc7 OP_EQUALVERIFY OP_CHECKSIG", "type": "pubkeyhash"}, "value": 0.08501448, "n": 1}], "hex": "01000000010188b8031a9d8ef495b9b0abee30f4a392122978580894ab470265383aa00c75010000006b483045022100eb33f05ef3f82d2e5b41ea55780307aa3a9cbab0e11da781054b72d3ac14afcf02201e2c3ecb4f1f59638be3f9af2573d10991bcfd9fc68f7a76ff061fa9c1998a1c01210337de5bbf22a21cf5cd5e8b86bad2b01557b4b6fe3286cc17ed9184276239a37fffffffff0220a10700000000001976a9145beb8805c127a5a5e6d176d1fb9d72a8e190046888acc8b88100000000001976a91417a44adcd3ef791b5e7fc2c6ee2cd5a0ac12adc788ac00000000", "vin": [{"sequence": 4294967295, "scriptSig": {"hex": "483045022100eb33f05ef3f82d2e5b41ea55780307aa3a9cbab0e11da781054b72d3ac14afcf02201e2c3ecb4f1f59638be3f9af2573d10991bcfd9fc68f7a76ff061fa9c1998a1c01210337de5bbf22a21cf5cd5e8b86bad2b01557b4b6fe3286cc17ed9184276239a37f", "asm": "3045022100eb33f05ef3f82d2e5b41ea55780307aa3a9cbab0e11da781054b72d3ac14afcf02201e2c3ecb4f1f59638be3f9af2573d10991bcfd9fc68f7a76ff061fa9c1998a1c[ALL] 0337de5bbf22a21cf5cd5e8b86bad2b01557b4b6fe3286cc17ed9184276239a37f"}, "vout": 1, "txid": "750ca03a38650247ab94085878291292a3f430eeabb0b995f48e9d1a03b88801"}], "txid": "3c7cb2657e6a22d08c8211497e19d72010ac7bb8c07686e22256e030cb3b616c", "blocktime": 1537873891, "version": 1, "confirmations": 11478, "time": 1537873891, "locktime": 0, "vsize": 226, "size": 226}