{"hash": "f9f4483e3fecc43830b5325fd9dc5120ce90e4cb59fce9b0cdd81ea4ba0705ef", "blockhash": "0000000000000000000e13cef7c366c0283d82e591d1acd082e914b08063cdf1", "vout": [{"scriptPubKey": {"reqSigs": 1, "hex": "76a914bd87d2c3299839e75bc0acc207ebc7731b79d19d88ac", "addresses": ["1JH9RRa3AgzLPbWByJbF1MuiBpDdTiaHCT"], "asm": "OP_DUP OP_HASH160 bd87d2c3299839e75bc0acc207ebc7731b79d19d OP_EQUALVERIFY OP_CHECKSIG", "type": "pubkeyhash"}, "value": 0.0016137, "n": 0}, {"scriptPubKey": {"reqSigs": 1, "hex": "a91408c364340a91e77e4376b26fdad3b5aedc5661f787", "addresses": ["32VMQ7Th4qGhbDYY68FZrfSF9hTbsPivgt"], "asm": "OP_HASH160 08c364340a91e77e4376b26fdad3b5aedc5661f7 OP_EQUAL", "type": "scripthash"}, "value": 0.03361552, "n": 1}], "hex": "010000000001013afb96228cee1ec65be5b67199e80932de17cb5b9423cb4fb46adb68f5566fec010000002322002027561ef61439ff4994ea3793249bbb358319edb59fff63c1eeada48f299e81b5ffffffff025a760200000000001976a914bd87d2c3299839e75bc0acc207ebc7731b79d19d88ac104b33000000000017a91408c364340a91e77e4376b26fdad3b5aedc5661f78704004730440220527c86102d245a2dc2049fd9ff8a6c7a4fb8ad9b89d56bee00db476b9be9e20502204c03fb521aec78fc4f5cc33d7e97f4bb754e3cd045ef572f6b2ac719f293a20f01483045022100cc1b86866000db3b7d0ee32da70480599131ee241e2068bdb0cc4cdcd4c89d14022051a0bce5a085e99e89543fc61aba840d472ef4670a52be6d2ad9d85ae7ace1ab0147522102f484437eae67e7d1f9cf7235bd52510c99f379408a1f6fe737011d4bc259358a2103871fc2ca08e6950b38867e8e6a0e94ee625223d3aa0df5c65f414c6d784467e252ae00000000", "vin": [{"txinwitness": ["", "30440220527c86102d245a2dc2049fd9ff8a6c7a4fb8ad9b89d56bee00db476b9be9e20502204c03fb521aec78fc4f5cc33d7e97f4bb754e3cd045ef572f6b2ac719f293a20f01", "3045022100cc1b86866000db3b7d0ee32da70480599131ee241e2068bdb0cc4cdcd4c89d14022051a0bce5a085e99e89543fc61aba840d472ef4670a52be6d2ad9d85ae7ace1ab01", "522102f484437eae67e7d1f9cf7235bd52510c99f379408a1f6fe737011d4bc259358a2103871fc2ca08e6950b38867e8e6a0e94ee625223d3aa0df5c65f414c6d784467e252ae"], "sequence": 4294967295, "scriptSig": {"hex": "22002027561ef61439ff4994ea3793249bbb358319edb59fff63c1eeada48f299e81b5", "asm": "002027561ef61439ff4994ea3793249bbb358319edb59fff63c1eeada48f299e81b5"}, "vout": 1, "txid": "ec6f56f568db6ab44fcb23945bcb17de3209e89971b6e55bc61eee8c2296fb3a"}], "txid": "3c8711c8afeb1416dd823f2dd915e8ae7027b02994327961f41cfa7b2e09e88c", "blocktime": 1537871767, "version": 1, "confirmations": 11495, "time": 1537871767, "locktime": 0, "vsize": 208, "size": 373}