{"hash": "3c8b87287c82287fe868dec803e867a7ac8c0aaba1fd5395d8cc61bfa4e81a7f", "blockhash": "00000000000000000024a2167bbff67b0be802c0b01cdd79e6331c2be6459f87", "vout": [{"scriptPubKey": {"reqSigs": 1, "hex": "76a914d243e6abb9a60fbff430b421d2df4b7d59ec186088ac", "addresses": ["1LAnF8h3qMGx3TSwNUHVneBZUEpwE4gu3D"], "asm": "OP_DUP OP_HASH160 d243e6abb9a60fbff430b421d2df4b7d59ec1860 OP_EQUALVERIFY OP_CHECKSIG", "type": "pubkeyhash"}, "value": 0.00076972, "n": 0}, {"scriptPubKey": {"reqSigs": 1, "hex": "76a9143851f34d13937b673a7d24a1950bb5b21ce94af388ac", "addresses": ["168o1kqNquEJeR9vosUB5fw4eAwcVAgh8P"], "asm": "OP_DUP OP_HASH160 3851f34d13937b673a7d24a1950bb5b21ce94af3 OP_EQUALVERIFY OP_CHECKSIG", "type": "pubkeyhash"}, "value": 5.46e-06, "n": 1}, {"scriptPubKey": {"type": "nulldata", "hex": "6a146f6d6e69000000000000001f000000214ad4aeac", "asm": "OP_RETURN 6f6d6e69000000000000001f000000214ad4aeac"}, "value": 0.0, "n": 2}], "hex": "010000000230ed2a78f3fbb8040ea094cc6c7c50d996018afc76ce0bc3183070bbe21e2940020000006a4730440220191ff36475e8864faa3204d7d5757571e851d6a0c1251f5ee4d748a5f80632ba02206701bf3c33cbf44def97c98acdf54ffb0543459fce11f254d5f5036050d60bc40121021df88b163e99d47e2ca6356d305fde672e680b61be1e2a6d250fa2e718ca3387ffffffffea47dc373af52efcf97b635a323121b39d269a74b85925be8b3fe454dbdc7362000000006a4730440220265f4c98b4cd8bcad0652920e2ce307d24dd96f4b1cd646cf1e59cdf21518b6002203cee959ef60466d45f7052176cc822628649c298622a42cb386982fc6286116a01210271977291b74f1f5f5c42157e8aae804664eaaeccfd097918450d37f28fb94d77ffffffff03ac2c0100000000001976a914d243e6abb9a60fbff430b421d2df4b7d59ec186088ac22020000000000001976a9143851f34d13937b673a7d24a1950bb5b21ce94af388ac0000000000000000166a146f6d6e69000000000000001f000000214ad4aeac00000000", "vin": [{"sequence": 4294967295, "scriptSig": {"hex": "4730440220191ff36475e8864faa3204d7d5757571e851d6a0c1251f5ee4d748a5f80632ba02206701bf3c33cbf44def97c98acdf54ffb0543459fce11f254d5f5036050d60bc40121021df88b163e99d47e2ca6356d305fde672e680b61be1e2a6d250fa2e718ca3387", "asm": "30440220191ff36475e8864faa3204d7d5757571e851d6a0c1251f5ee4d748a5f80632ba02206701bf3c33cbf44def97c98acdf54ffb0543459fce11f254d5f5036050d60bc4[ALL] 021df88b163e99d47e2ca6356d305fde672e680b61be1e2a6d250fa2e718ca3387"}, "vout": 2, "txid": "40291ee2bb703018c30bce76fc8a0196d9507c6ccc94a00e04b8fbf3782aed30"}, {"sequence": 4294967295, "scriptSig": {"hex": "4730440220265f4c98b4cd8bcad0652920e2ce307d24dd96f4b1cd646cf1e59cdf21518b6002203cee959ef60466d45f7052176cc822628649c298622a42cb386982fc6286116a01210271977291b74f1f5f5c42157e8aae804664eaaeccfd097918450d37f28fb94d77", "asm": "30440220265f4c98b4cd8bcad0652920e2ce307d24dd96f4b1cd646cf1e59cdf21518b6002203cee959ef60466d45f7052176cc822628649c298622a42cb386982fc6286116a[ALL] 0271977291b74f1f5f5c42157e8aae804664eaaeccfd097918450d37f28fb94d77"}, "vout": 0, "txid": "6273dcdb54e43f8bbe2559b8749a269db32131325a637bf9fc2ef53a37dc47ea"}], "txid": "3c8b87287c82287fe868dec803e867a7ac8c0aaba1fd5395d8cc61bfa4e81a7f", "blocktime": 1537870564, "version": 1, "confirmations": 11515, "time": 1537870564, "locktime": 0, "vsize": 403, "size": 403}