{"hash": "fa97da56d10611e574f52e7bdc27f516e14886c4fdc1cd7fe56a2301929535c8", "blockhash": "0000000000000000001cda96e906b7601b7a6fb1a3b62bca570a9e5d8f4b3de1", "vout": [{"scriptPubKey": {"reqSigs": 1, "hex": "76a914a50d4ee8e951a72090568fc66b2ca43a4ee3c59388ac", "addresses": ["1G3iSKqnFu43K8VNtfDbAtfRNqZ5tWrsUg"], "asm": "OP_DUP OP_HASH160 a50d4ee8e951a72090568fc66b2ca43a4ee3c593 OP_EQUALVERIFY OP_CHECKSIG", "type": "pubkeyhash"}, "value": 0.00013073, "n": 0}, {"scriptPubKey": {"reqSigs": 1, "hex": "a9143909ec962f0c6842a199a5afb78937aadea81ef287", "addresses": ["36tcL2BpJuA6EhBc7kpwBkW1eZhtZ87SHf"], "asm": "OP_HASH160 3909ec962f0c6842a199a5afb78937aadea81ef2 OP_EQUAL", "type": "scripthash"}, "value": 0.00209431, "n": 1}], "hex": "01000000000101ea9fc330bae44267412392bc9f0100ecf494503a89de47d1efdac13f764ce3520100000023220020c39d86306dbd54dc85e666ec19b6eadac2eca3f3512ba18580492016e49d5f13ffffffff0211330000000000001976a914a50d4ee8e951a72090568fc66b2ca43a4ee3c59388ac173203000000000017a9143909ec962f0c6842a199a5afb78937aadea81ef287040047304402206abbf1ac7d8387477026edaa0131c4cb2de9b251708acc44c646717c22e509fc02204274dfec163f20b6d2c0578c34809039c90802ff9a4a8d060d86b4764119b08401483045022100d867c03cdf347969c463f0c60be30285b0881056d295cc59357eba80e04eef5002206b40e7362d9012129d21ad0b34762657f20289fb7c70b63c18d0f19f4dc63bb001475221020319b262fe02e14ab54771039bbbf0877a20b9b83bb305c8722accaff4e4767d2103871fc2ca08e6950b38867e8e6a0e94ee625223d3aa0df5c65f414c6d784467e252ae00000000", "vin": [{"txinwitness": ["", "304402206abbf1ac7d8387477026edaa0131c4cb2de9b251708acc44c646717c22e509fc02204274dfec163f20b6d2c0578c34809039c90802ff9a4a8d060d86b4764119b08401", "3045022100d867c03cdf347969c463f0c60be30285b0881056d295cc59357eba80e04eef5002206b40e7362d9012129d21ad0b34762657f20289fb7c70b63c18d0f19f4dc63bb001", "5221020319b262fe02e14ab54771039bbbf0877a20b9b83bb305c8722accaff4e4767d2103871fc2ca08e6950b38867e8e6a0e94ee625223d3aa0df5c65f414c6d784467e252ae"], "sequence": 4294967295, "scriptSig": {"hex": "220020c39d86306dbd54dc85e666ec19b6eadac2eca3f3512ba18580492016e49d5f13", "asm": "0020c39d86306dbd54dc85e666ec19b6eadac2eca3f3512ba18580492016e49d5f13"}, "vout": 1, "txid": "52e34c763fc1daefd147de893a5094f4ec00019fbc9223416742e4ba30c39fea"}], "txid": "3c8d805b771a3ceea146a550b1f260124a12016a424fe449d23dc3ddaae0d488", "blocktime": 1537873282, "version": 1, "confirmations": 11484, "time": 1537873282, "locktime": 0, "vsize": 208, "size": 373}