{"hash": "ee8c2e2938b8379ebfdec9c03286089c316da041fae5bb611eea22ccfa368698", "blockhash": "00000000000000000017f5eb5941039fbcee6240d03bc1f2f8e35350df66a1d8", "vout": [{"scriptPubKey": {"reqSigs": 1, "hex": "a914b15aa4d3698b07a36352c45ef5043d914622a36d87", "addresses": ["3Hrn7YSbzwmj7kACwsAQLQvxQnpfnUSRBh"], "asm": "OP_HASH160 b15aa4d3698b07a36352c45ef5043d914622a36d OP_EQUAL", "type": "scripthash"}, "value": 0.03608492, "n": 0}, {"scriptPubKey": {"reqSigs": 1, "hex": "0014d5b8d61d076591cbf5ed361b80d738f11938bf5a", "addresses": ["bc1q6kudv8g8vkguha0dxcdcp4ec7yvn30664c59k7"], "asm": "0 d5b8d61d076591cbf5ed361b80d738f11938bf5a", "type": "witness_v0_keyhash"}, "value": 0.50511115, "n": 1}], "hex": "01000000000101a6ddf87a02599e41c82e34e06bc277b7d7b6e6dbe7f766852e9d4b5b6b99ba890000000000ffffffff02ac0f37000000000017a914b15aa4d3698b07a36352c45ef5043d914622a36d870bbd020300000000160014d5b8d61d076591cbf5ed361b80d738f11938bf5a024830450221008b8552554c71564d5b496e2513510e0f9cac536a09905fb4799eced43811c49c02203984173c5fa0d374a79ae5c68b99c3d6030954eaa880766cde1bfcc39c63a369012103f3e19910dff32865289a594925fcca15654bd17df90c0e03ac962827e54a7f9500000000", "vin": [{"txinwitness": ["30450221008b8552554c71564d5b496e2513510e0f9cac536a09905fb4799eced43811c49c02203984173c5fa0d374a79ae5c68b99c3d6030954eaa880766cde1bfcc39c63a36901", "03f3e19910dff32865289a594925fcca15654bd17df90c0e03ac962827e54a7f95"], "sequence": 4294967295, "scriptSig": {"hex": "", "asm": ""}, "vout": 0, "txid": "89ba996b5b4b9d2e8566f7e7dbe6b6d7b777c26be0342ec8419e59027af8dda6"}], "txid": "3c97c50d76488f5e29c01844890229391795dc2d2e3f7032fb47d171b1878cce", "blocktime": 1537874412, "version": 1, "confirmations": 11467, "time": 1537874412, "locktime": 0, "vsize": 142, "size": 224}