{"hash": "a6571de8f16f187ba29d59dfe9f13d31bf1d1443a915e7221099965b5ce236d9", "blockhash": "000000000000000000022b45ed06c6f4ccd3cf7fb5ba4856ebd2e58215665228", "vout": [{"scriptPubKey": {"reqSigs": 1, "hex": "76a914730c19031d7f935f54abef0656510e304147412a88ac", "addresses": ["1BVKCdB73TKXp58Jp8Tz4mHESuok4seR9s"], "asm": "OP_DUP OP_HASH160 730c19031d7f935f54abef0656510e304147412a OP_EQUALVERIFY OP_CHECKSIG", "type": "pubkeyhash"}, "value": 0.068936, "n": 0}, {"scriptPubKey": {"reqSigs": 1, "hex": "a91448e0c041ca1c811e218c2638b4dd0f612b45a2e487", "addresses": ["38LMpL3D41X3oRYxZnHZVmwhrTGyWxfd6j"], "asm": "OP_HASH160 48e0c041ca1c811e218c2638b4dd0f612b45a2e4 OP_EQUAL", "type": "scripthash"}, "value": 0.13894102, "n": 1}], "hex": "02000000000101bb6cdab81efd749031fe4a41971be02c3a030f7793f79b65166c1f7bee010b7001000000171600143104ad8be616c63b5e7a73818f5f0b26f0b9fd12ffffffff0220306900000000001976a914730c19031d7f935f54abef0656510e304147412a88acd601d4000000000017a91448e0c041ca1c811e218c2638b4dd0f612b45a2e4870247304402206c2825fb6503ac8f41c96a3db533c4f8c0b13e170831f8fbad6edf3dc05a344402206e8847cdf641e941e75ee88d1f8cd267f21cb604129dc213f4662720fa19706b012102b055bea5d9038e64e6a0f7039da588fa3d1b777ca1303b778e4ad697bfe6416900000000", "vin": [{"txinwitness": ["304402206c2825fb6503ac8f41c96a3db533c4f8c0b13e170831f8fbad6edf3dc05a344402206e8847cdf641e941e75ee88d1f8cd267f21cb604129dc213f4662720fa19706b01", "02b055bea5d9038e64e6a0f7039da588fa3d1b777ca1303b778e4ad697bfe64169"], "sequence": 4294967295, "scriptSig": {"hex": "1600143104ad8be616c63b5e7a73818f5f0b26f0b9fd12", "asm": "00143104ad8be616c63b5e7a73818f5f0b26f0b9fd12"}, "vout": 1, "txid": "700b01ee7b1f6c16659bf793770f033a2ce01b97414afe319074fd1eb8da6cbb"}], "txid": "3c9934a4e068b196070eef4fc30a606b9b34ad8d96076095c3ad646bfe35da15", "blocktime": 1537869901, "version": 2, "confirmations": 11522, "time": 1537869901, "locktime": 0, "vsize": 168, "size": 249}