{"hash": "3c9a60974146005802959aff9f9c97746cbce108582b096b6c9e61feeb56521b", "blockhash": "0000000000000000001f0ddff1eddb255c1121bcd4da4f1bc9a0da00cae72433", "vout": [{"scriptPubKey": {"reqSigs": 1, "hex": "76a9145a2ac6dea2ce1a06d7ffced4054a0e81027688c388ac", "addresses": ["19Dm4TBE5T2pWurSJUF58eBs4HiBPoMLNw"], "asm": "OP_DUP OP_HASH160 5a2ac6dea2ce1a06d7ffced4054a0e81027688c3 OP_EQUALVERIFY OP_CHECKSIG", "type": "pubkeyhash"}, "value": 0.27502878, "n": 0}, {"scriptPubKey": {"reqSigs": 1, "hex": "76a914143782cdb1a35036cdaa7edd5704c329c81a0c1a88ac", "addresses": ["12qu1ohPmzZPmCtc3BYAChqkzKad1ZycsM"], "asm": "OP_DUP OP_HASH160 143782cdb1a35036cdaa7edd5704c329c81a0c1a OP_EQUALVERIFY OP_CHECKSIG", "type": "pubkeyhash"}, "value": 0.62496, "n": 1}], "hex": "0100000002e514e93516390179595ecb43b45a9ddadfc0b748b6a566ced2fd244c73ef19f1010000006a47304402206fd992d527def79c51eb630e2c94a81e3ea4a893973c0158fa05a64f0c577cce02205361c3db2e847190b14972310d1c643850d9fc0738f2399e35f11f3f2718883b012102b3fc8852768f962520c203a2020bf90766d348fee8bdd1de42bd8108d0353c2affffffffd3fedeba8b79cdf8c32c8956bb33e5fa09e542036c72d515c29e6734fa9035f6010000006a473044022063713e0a5d344e32a7e77fcc34b1491f457bfa5bcf2ebc73d4a053c044b0cdb3022075b649e6005109a64d27b8af79445af43bdc22d3abb12ea8a12638943438baa00121037cb22229c720fa096ebc7173d092bcfd3823bfb624a70f29200d97a55a0e9472ffffffff021ea9a301000000001976a9145a2ac6dea2ce1a06d7ffced4054a0e81027688c388ac009db903000000001976a914143782cdb1a35036cdaa7edd5704c329c81a0c1a88ac00000000", "vin": [{"sequence": 4294967295, "scriptSig": {"hex": "47304402206fd992d527def79c51eb630e2c94a81e3ea4a893973c0158fa05a64f0c577cce02205361c3db2e847190b14972310d1c643850d9fc0738f2399e35f11f3f2718883b012102b3fc8852768f962520c203a2020bf90766d348fee8bdd1de42bd8108d0353c2a", "asm": "304402206fd992d527def79c51eb630e2c94a81e3ea4a893973c0158fa05a64f0c577cce02205361c3db2e847190b14972310d1c643850d9fc0738f2399e35f11f3f2718883b[ALL] 02b3fc8852768f962520c203a2020bf90766d348fee8bdd1de42bd8108d0353c2a"}, "vout": 1, "txid": "f119ef734c24fdd2ce66a5b648b7c0dfda9d5ab443cb5e597901391635e914e5"}, {"sequence": 4294967295, "scriptSig": {"hex": "473044022063713e0a5d344e32a7e77fcc34b1491f457bfa5bcf2ebc73d4a053c044b0cdb3022075b649e6005109a64d27b8af79445af43bdc22d3abb12ea8a12638943438baa00121037cb22229c720fa096ebc7173d092bcfd3823bfb624a70f29200d97a55a0e9472", "asm": "3044022063713e0a5d344e32a7e77fcc34b1491f457bfa5bcf2ebc73d4a053c044b0cdb3022075b649e6005109a64d27b8af79445af43bdc22d3abb12ea8a12638943438baa0[ALL] 037cb22229c720fa096ebc7173d092bcfd3823bfb624a70f29200d97a55a0e9472"}, "vout": 1, "txid": "f63590fa34679ec215d5726c0342e509fae533bb56892cc3f8cd798bbadefed3"}], "txid": "3c9a60974146005802959aff9f9c97746cbce108582b096b6c9e61feeb56521b", "blocktime": 1537872018, "version": 1, "confirmations": 11489, "time": 1537872018, "locktime": 0, "vsize": 372, "size": 372}