{"hash": "25da8b9fa4ea2694c7316a7dcf9555adf3247240785fc06f67d3ccc41aad7226", "blockhash": "00000000000000000004ffacab907a6b429b9a5745fa0b75af4234bf69dd7176", "vout": [{"scriptPubKey": {"reqSigs": 1, "hex": "76a91418a8ca7766155e5a76989d4f4ca8cdceef03435b88ac", "addresses": ["13FPRQDCi3fC8BSLdZ4uD1bsMzYnpHdvaw"], "asm": "OP_DUP OP_HASH160 18a8ca7766155e5a76989d4f4ca8cdceef03435b OP_EQUALVERIFY OP_CHECKSIG", "type": "pubkeyhash"}, "value": 0.18845459, "n": 0}, {"scriptPubKey": {"reqSigs": 1, "hex": "76a91486569a7a5c641eab2ea1b70a799ba302cb7302b588ac", "addresses": ["1DFKJ1zNS2QV6DKDbAprhWT3Rx3MzdPa1W"], "asm": "OP_DUP OP_HASH160 86569a7a5c641eab2ea1b70a799ba302cb7302b5 OP_EQUALVERIFY OP_CHECKSIG", "type": "pubkeyhash"}, "value": 0.15071016, "n": 1}, {"scriptPubKey": {"reqSigs": 1, "hex": "a91464885a3b99edcee421ef8a06ce7492196013f74087", "addresses": ["3AraqfPMpqDVsjcZiHiDTJed6TuX9FDWaM"], "asm": "OP_HASH160 64885a3b99edcee421ef8a06ce7492196013f740 OP_EQUAL", "type": "scripthash"}, "value": 0.01711763, "n": 2}, {"scriptPubKey": {"reqSigs": 1, "hex": "76a91405d142813e554e3649d0f1e7de633d59e0b8030788ac", "addresses": ["1Xm4asBYG7JoPYbPghJ43k9dRD8kibUMa"], "asm": "OP_DUP OP_HASH160 05d142813e554e3649d0f1e7de633d59e0b80307 OP_EQUALVERIFY OP_CHECKSIG", "type": "pubkeyhash"}, "value": 0.012172, "n": 3}, {"scriptPubKey": {"reqSigs": 1, "hex": "76a91418482254185e23dce46830dbea8ab373cc375c6588ac", "addresses": ["13DPdZzKk1kzyHJv98JQ4dP4RJp3H91XkV"], "asm": "OP_DUP OP_HASH160 18482254185e23dce46830dbea8ab373cc375c65 OP_EQUALVERIFY OP_CHECKSIG", "type": "pubkeyhash"}, "value": 0.02459258, "n": 4}, {"scriptPubKey": {"reqSigs": 1, "hex": "a9147cc6538c40f28da419051cae47e42a75266f190d87", "addresses": ["3D4mJHe8qdm9DcZAFkjfwFfrEwWEU1sLcC"], "asm": "OP_HASH160 7cc6538c40f28da419051cae47e42a75266f190d OP_EQUAL", "type": "scripthash"}, "value": 0.01321962, "n": 5}], "hex": "02000000000101ec6571b5635da7c4f2a37fc05d8903beb7c57aef5561d6a0ebc65d496573d84203000000171600147ba61a301191d555408ef014b96335786e0cec0dffffffff06138f1f01000000001976a91418a8ca7766155e5a76989d4f4ca8cdceef03435b88ac28f7e500000000001976a91486569a7a5c641eab2ea1b70a799ba302cb7302b588ac931e1a000000000017a91464885a3b99edcee421ef8a06ce7492196013f74087b0921200000000001976a91405d142813e554e3649d0f1e7de633d59e0b8030788ac7a862500000000001976a91418482254185e23dce46830dbea8ab373cc375c6588acea2b14000000000017a9147cc6538c40f28da419051cae47e42a75266f190d8702483045022100ab8bff946cdfa1e8b18b090260ee280f82881584d731b1af7bd1efffafdba90e022040eb409912c1f66908051374fbab84ccceb082063efa89da52dd0f07a65be19b0121026d8589386439ea087ec09e2b3016c573144eed0037ea316ca8b0b4e347fb3efa00000000", "vin": [{"txinwitness": ["3045022100ab8bff946cdfa1e8b18b090260ee280f82881584d731b1af7bd1efffafdba90e022040eb409912c1f66908051374fbab84ccceb082063efa89da52dd0f07a65be19b01", "026d8589386439ea087ec09e2b3016c573144eed0037ea316ca8b0b4e347fb3efa"], "sequence": 4294967295, "scriptSig": {"hex": "1600147ba61a301191d555408ef014b96335786e0cec0d", "asm": "00147ba61a301191d555408ef014b96335786e0cec0d"}, "vout": 3, "txid": "42d87365495dc6eba0d66155ef7ac5b7be03895dc07fa3f2c4a75d63b57165ec"}], "txid": "3c9c0d28b0d71e61bb6139db960c0db0d5291e9383a721efdcca834152d16d93", "blocktime": 1537875543, "version": 2, "confirmations": 11464, "time": 1537875543, "locktime": 0, "vsize": 302, "size": 384}