{"hash": "07cf776d0c2e4c37dfccda83cfa1b451865eae512626e722bd893e0d09f83a4f", "blockhash": "0000000000000000001cda96e906b7601b7a6fb1a3b62bca570a9e5d8f4b3de1", "vout": [{"scriptPubKey": {"reqSigs": 1, "hex": "76a91401fbb711db3f2b20826843ead4eecd296ad3a75a88ac", "addresses": ["1BVDfZ781iwKnBEGX9yrVRq8hYscahW7J"], "asm": "OP_DUP OP_HASH160 01fbb711db3f2b20826843ead4eecd296ad3a75a OP_EQUALVERIFY OP_CHECKSIG", "type": "pubkeyhash"}, "value": 0.00041818, "n": 0}, {"scriptPubKey": {"reqSigs": 1, "hex": "a9143909ec962f0c6842a199a5afb78937aadea81ef287", "addresses": ["36tcL2BpJuA6EhBc7kpwBkW1eZhtZ87SHf"], "asm": "OP_HASH160 3909ec962f0c6842a199a5afb78937aadea81ef2 OP_EQUAL", "type": "scripthash"}, "value": 0.00166989, "n": 1}], "hex": "0100000000010188d4e0aaddc33dd249e44f426a01124a1260f2b150a546a1ee3c1a775b808d3c0100000023220020c39d86306dbd54dc85e666ec19b6eadac2eca3f3512ba18580492016e49d5f13ffffffff025aa30000000000001976a91401fbb711db3f2b20826843ead4eecd296ad3a75a88ac4d8c02000000000017a9143909ec962f0c6842a199a5afb78937aadea81ef287040047304402201b8fd7f79d098142e4fa256a7e0ceb06616d6056254cbea69570ea22d8ae0a7b02203f82b8ac05b34ec548d7282137ba14fd7c46daf1f208f6de9de4ae4b923f397c01473044022045c4f416a321c3d86a935bad6cb82ec491f4ee6d2b5a1a2fb3428d1fd3162e2102200a046218394f86aeb3ef3e2b9e71d5682b2aef493c5dfb4b936949f7df23bfa701475221020319b262fe02e14ab54771039bbbf0877a20b9b83bb305c8722accaff4e4767d2103871fc2ca08e6950b38867e8e6a0e94ee625223d3aa0df5c65f414c6d784467e252ae00000000", "vin": [{"txinwitness": ["", "304402201b8fd7f79d098142e4fa256a7e0ceb06616d6056254cbea69570ea22d8ae0a7b02203f82b8ac05b34ec548d7282137ba14fd7c46daf1f208f6de9de4ae4b923f397c01", "3044022045c4f416a321c3d86a935bad6cb82ec491f4ee6d2b5a1a2fb3428d1fd3162e2102200a046218394f86aeb3ef3e2b9e71d5682b2aef493c5dfb4b936949f7df23bfa701", "5221020319b262fe02e14ab54771039bbbf0877a20b9b83bb305c8722accaff4e4767d2103871fc2ca08e6950b38867e8e6a0e94ee625223d3aa0df5c65f414c6d784467e252ae"], "sequence": 4294967295, "scriptSig": {"hex": "220020c39d86306dbd54dc85e666ec19b6eadac2eca3f3512ba18580492016e49d5f13", "asm": "0020c39d86306dbd54dc85e666ec19b6eadac2eca3f3512ba18580492016e49d5f13"}, "vout": 1, "txid": "3c8d805b771a3ceea146a550b1f260124a12016a424fe449d23dc3ddaae0d488"}], "txid": "3c9f1d87bff22f38d8f43a9f70ed31f81ffea5af72f826b5964d37aeb671d833", "blocktime": 1537873282, "version": 1, "confirmations": 11484, "time": 1537873282, "locktime": 0, "vsize": 207, "size": 372}