{"hash": "3ca0d6bc6a31f4069cd63fe6819ef9c44505fedcc296859227e0f8766c5eaae5", "blockhash": "0000000000000000001cda96e906b7601b7a6fb1a3b62bca570a9e5d8f4b3de1", "vout": [{"scriptPubKey": {"reqSigs": 1, "hex": "76a9144f14d1eaa19b79666bb05a0db60f4c7313f09f6488ac", "addresses": ["18D9KkepVLfxyUHz1G32JXzyPqarS8G4yJ"], "asm": "OP_DUP OP_HASH160 4f14d1eaa19b79666bb05a0db60f4c7313f09f64 OP_EQUALVERIFY OP_CHECKSIG", "type": "pubkeyhash"}, "value": 0.001859, "n": 0}, {"scriptPubKey": {"reqSigs": 1, "hex": "76a914affb0538fcbc5c0c6f29b54706df81ea9774410a88ac", "addresses": ["1H3VxmsBDREEafpc8CQFv9riKqY3TUqugs"], "asm": "OP_DUP OP_HASH160 affb0538fcbc5c0c6f29b54706df81ea9774410a OP_EQUALVERIFY OP_CHECKSIG", "type": "pubkeyhash"}, "value": 0.0185053, "n": 1}], "hex": "01000000013743f4812ac6ed81a01a4c326c1bd07c257bd85189020c59d6c36fa305b19bb1010000006a47304402205a187882a235cc90876f8a25c1b3008cb3c6829814c252345c82b6dd854efaf6022027a97b5d30be1ff2d318f311b3ffec6dbeb480699dcaae28d93917a143d3602301210311a4ebbd2e28c0327ec126b097a01b311b56f49975236511701cde2ab5a29586ffffffff022cd60200000000001976a9144f14d1eaa19b79666bb05a0db60f4c7313f09f6488aca23c1c00000000001976a914affb0538fcbc5c0c6f29b54706df81ea9774410a88ac00000000", "vin": [{"sequence": 4294967295, "scriptSig": {"hex": "47304402205a187882a235cc90876f8a25c1b3008cb3c6829814c252345c82b6dd854efaf6022027a97b5d30be1ff2d318f311b3ffec6dbeb480699dcaae28d93917a143d3602301210311a4ebbd2e28c0327ec126b097a01b311b56f49975236511701cde2ab5a29586", "asm": "304402205a187882a235cc90876f8a25c1b3008cb3c6829814c252345c82b6dd854efaf6022027a97b5d30be1ff2d318f311b3ffec6dbeb480699dcaae28d93917a143d36023[ALL] 0311a4ebbd2e28c0327ec126b097a01b311b56f49975236511701cde2ab5a29586"}, "vout": 1, "txid": "b19bb105a36fc3d6590c028951d87b257cd01b6c324c1aa081edc62a81f44337"}], "txid": "3ca0d6bc6a31f4069cd63fe6819ef9c44505fedcc296859227e0f8766c5eaae5", "blocktime": 1537873282, "version": 1, "confirmations": 11485, "time": 1537873282, "locktime": 0, "vsize": 225, "size": 225}