{"hash": "8378b736d2829dc50aedb37c2d2b6e31f2532d334625abdfe582d5413d5f1d54", "blockhash": "00000000000000000024a2167bbff67b0be802c0b01cdd79e6331c2be6459f87", "vout": [{"scriptPubKey": {"reqSigs": 1, "hex": "a914788ed1208644e696ee3431a68d5a2e53ec30c4a187", "addresses": ["3CgU6ezDUMWHDK5TkPMMjvjpbw4ToTsMQz"], "asm": "OP_HASH160 788ed1208644e696ee3431a68d5a2e53ec30c4a1 OP_EQUAL", "type": "scripthash"}, "value": 0.007, "n": 0}, {"scriptPubKey": {"reqSigs": 1, "hex": "a914627aa52932456d89054bd84f86246af3b71b93a887", "addresses": ["3Afj4stdiLG9EktGrMbm252ySonnhYaz8v"], "asm": "OP_HASH160 627aa52932456d89054bd84f86246af3b71b93a8 OP_EQUAL", "type": "scripthash"}, "value": 0.51977775, "n": 1}], "hex": "01000000000101aaac66fdf77e0713309146d1a3f91db4e06052282da41274ff4f734334f815b401000000232200205fdd641234b13964b223bd85ad2a4a667ca2099df3d42a1d3b45706a8d81abf0ffffffff0260ae0a000000000017a914788ed1208644e696ee3431a68d5a2e53ec30c4a1872f1e19030000000017a914627aa52932456d89054bd84f86246af3b71b93a887040048304502210089269ecce21b868595c75b5333764a5dc6eb1326807e0342298e837f4791d9c9022006369cc6ba01592e5b776d3d4ff0230ee7553332c0b9131b01f82748b704abed0148304502210093c04cccbe65c871113f98518628e9d92e7ac081674940304403028527c1a11f02206ec0eb3adc0baeb9423d4f84e37fe6ecf7bc339658c6c49139f3156d8fb256190147522103dcde3832fa56def7b4e783faad1b8af85c3cdd74a5ff4f3c7c216b1075c18da12103c70ae8ded79be1afda73b9ce5ea14a3878908ee160d66a9a717e792bb6db276952ae00000000", "vin": [{"txinwitness": ["", "304502210089269ecce21b868595c75b5333764a5dc6eb1326807e0342298e837f4791d9c9022006369cc6ba01592e5b776d3d4ff0230ee7553332c0b9131b01f82748b704abed01", "304502210093c04cccbe65c871113f98518628e9d92e7ac081674940304403028527c1a11f02206ec0eb3adc0baeb9423d4f84e37fe6ecf7bc339658c6c49139f3156d8fb2561901", "522103dcde3832fa56def7b4e783faad1b8af85c3cdd74a5ff4f3c7c216b1075c18da12103c70ae8ded79be1afda73b9ce5ea14a3878908ee160d66a9a717e792bb6db276952ae"], "sequence": 4294967295, "scriptSig": {"hex": "2200205fdd641234b13964b223bd85ad2a4a667ca2099df3d42a1d3b45706a8d81abf0", "asm": "00205fdd641234b13964b223bd85ad2a4a667ca2099df3d42a1d3b45706a8d81abf0"}, "vout": 1, "txid": "b415f83443734fff7412a42d285260e0b41df9a3d146913013077ef7fd66acaa"}], "txid": "3ca8744c56adeb5673ef7dd5681c8824ba3c3f81a9a34967baf637699d80b356", "blocktime": 1537870564, "version": 1, "confirmations": 11515, "time": 1537870564, "locktime": 0, "vsize": 206, "size": 372}