{"hash": "3cad859ce9db4dbc712a22bc3d28aa96413f9136f1c02ebe1184d6a755a45ba8", "blockhash": "0000000000000000001cda96e906b7601b7a6fb1a3b62bca570a9e5d8f4b3de1", "vout": [{"scriptPubKey": {"reqSigs": 1, "hex": "76a914ee0be58c404563cb230d39c9288112be7fd6bbdb88ac", "addresses": ["1Nhg5FYsahhJwQ49sZaiLd5d9EVAhgUYKR"], "asm": "OP_DUP OP_HASH160 ee0be58c404563cb230d39c9288112be7fd6bbdb OP_EQUALVERIFY OP_CHECKSIG", "type": "pubkeyhash"}, "value": 7.57e-06, "n": 0}, {"scriptPubKey": {"reqSigs": 1, "hex": "a914e55af7ff4084862fe43a590dd608a0970156f09687", "addresses": ["3Nbje6GgTpTsAWtTnnajiJyxkToyCgsVut"], "asm": "OP_HASH160 e55af7ff4084862fe43a590dd608a0970156f096 OP_EQUAL", "type": "scripthash"}, "value": 0.0594, "n": 1}], "hex": "0100000005baea9a4fc824de4e11d4a1a7394a8c72c02fc83ac23358e0cc4cc4ed41031313000000006a473044022074906d29e310fba8f8e9ac2420ae33290c6063e8d571a80cf620a1eca20c22c2022070ae43af1171eb6c1f30accbdc07f60658ecdc3ae1579b5cb4f51598cf1ec523012102001ca3b0fd086768e72759ba785c47cf9c3c050a61e81f80fc653f0a9c103a22ffffffffce0578be6abae4c41eb371e722cad953038f167514cdff5c647bb6505b56ed21010000006b483045022100edb9d2ccd95ccf20f054c7638106876f94a9eb99f95dfb01c22028fe8db3ea5a02207f1d829474805d2e65059c5dd597dafe1d8aee9f3b4ef5b5960ad6b54dba3e24012103e51ab09a0ecd1e6e6161e150bf05d652ac78c75f98f3432201ddfe34a6ba0358ffffffffaa04a91658ba2eab653393e4b185059bd495de45f0b179a3bb71db6267c39f2b000000006b483045022100db2d13121694652c5d8a1cc50ed9def929063a3680af89095938ba957d5004110220149e48a9b16ae615775be38b7eb010b3cc0430427235a16f9a948602a2aae71c01210332d63f0ff20ed59718cece79e74c1d94b7501a036206824867c8a35c29e5c82affffffffab03abd1a3776e21a930525ed108c86aa05a2ef6a16b0ac6e8617bbd9f561f55000000006b483045022100b11872dbda8f31c6984e0500df411f00951ce6810810c8ce6ffcb3726305e46802206a2f0b476db2226382554638e85755de48233902d2c5bb9cf354d16ada423a9601210352f66531e5ab3b3b0b17a5a74d028907b9ad7b3579a8fb45fbb0faa290263ddfffffffff9c7a7e89eacc8f95d49991924296d436d48ef9c9b391b6f16399defa0820dce1010000006b483045022100d3f8234cc92bec5b8b1245b76bfb6fb05edf61f06d015fe492d4a599ba6b9765022006526ec9ba6edd21676277b0c229c8a512661ff7ab420b35a05879438a3055880121021736d20368f1bffd80b9cca421652c9b9aa51b363b265594b36d57ba006d61e6ffffffff02f5020000000000001976a914ee0be58c404563cb230d39c9288112be7fd6bbdb88ac20a35a000000000017a914e55af7ff4084862fe43a590dd608a0970156f0968700000000", "vin": [{"sequence": 4294967295, "scriptSig": {"hex": "473044022074906d29e310fba8f8e9ac2420ae33290c6063e8d571a80cf620a1eca20c22c2022070ae43af1171eb6c1f30accbdc07f60658ecdc3ae1579b5cb4f51598cf1ec523012102001ca3b0fd086768e72759ba785c47cf9c3c050a61e81f80fc653f0a9c103a22", "asm": "3044022074906d29e310fba8f8e9ac2420ae33290c6063e8d571a80cf620a1eca20c22c2022070ae43af1171eb6c1f30accbdc07f60658ecdc3ae1579b5cb4f51598cf1ec523[ALL] 02001ca3b0fd086768e72759ba785c47cf9c3c050a61e81f80fc653f0a9c103a22"}, "vout": 0, "txid": "13130341edc44ccce05833c23ac82fc0728c4a39a7a1d4114ede24c84f9aeaba"}, {"sequence": 4294967295, "scriptSig": {"hex": "483045022100edb9d2ccd95ccf20f054c7638106876f94a9eb99f95dfb01c22028fe8db3ea5a02207f1d829474805d2e65059c5dd597dafe1d8aee9f3b4ef5b5960ad6b54dba3e24012103e51ab09a0ecd1e6e6161e150bf05d652ac78c75f98f3432201ddfe34a6ba0358", "asm": "3045022100edb9d2ccd95ccf20f054c7638106876f94a9eb99f95dfb01c22028fe8db3ea5a02207f1d829474805d2e65059c5dd597dafe1d8aee9f3b4ef5b5960ad6b54dba3e24[ALL] 03e51ab09a0ecd1e6e6161e150bf05d652ac78c75f98f3432201ddfe34a6ba0358"}, "vout": 1, "txid": "21ed565b50b67b645cffcd1475168f0353d9ca22e771b31ec4e4ba6abe7805ce"}, {"sequence": 4294967295, "scriptSig": {"hex": "483045022100db2d13121694652c5d8a1cc50ed9def929063a3680af89095938ba957d5004110220149e48a9b16ae615775be38b7eb010b3cc0430427235a16f9a948602a2aae71c01210332d63f0ff20ed59718cece79e74c1d94b7501a036206824867c8a35c29e5c82a", "asm": "3045022100db2d13121694652c5d8a1cc50ed9def929063a3680af89095938ba957d5004110220149e48a9b16ae615775be38b7eb010b3cc0430427235a16f9a948602a2aae71c[ALL] 0332d63f0ff20ed59718cece79e74c1d94b7501a036206824867c8a35c29e5c82a"}, "vout": 0, "txid": "2b9fc36762db71bba379b1f045de95d49b0585b1e4933365ab2eba5816a904aa"}, {"sequence": 4294967295, "scriptSig": {"hex": "483045022100b11872dbda8f31c6984e0500df411f00951ce6810810c8ce6ffcb3726305e46802206a2f0b476db2226382554638e85755de48233902d2c5bb9cf354d16ada423a9601210352f66531e5ab3b3b0b17a5a74d028907b9ad7b3579a8fb45fbb0faa290263ddf", "asm": "3045022100b11872dbda8f31c6984e0500df411f00951ce6810810c8ce6ffcb3726305e46802206a2f0b476db2226382554638e85755de48233902d2c5bb9cf354d16ada423a96[ALL] 0352f66531e5ab3b3b0b17a5a74d028907b9ad7b3579a8fb45fbb0faa290263ddf"}, "vout": 0, "txid": "551f569fbd7b61e8c60a6ba1f62e5aa06ac808d15e5230a9216e77a3d1ab03ab"}, {"sequence": 4294967295, "scriptSig": {"hex": "483045022100d3f8234cc92bec5b8b1245b76bfb6fb05edf61f06d015fe492d4a599ba6b9765022006526ec9ba6edd21676277b0c229c8a512661ff7ab420b35a05879438a3055880121021736d20368f1bffd80b9cca421652c9b9aa51b363b265594b36d57ba006d61e6", "asm": "3045022100d3f8234cc92bec5b8b1245b76bfb6fb05edf61f06d015fe492d4a599ba6b9765022006526ec9ba6edd21676277b0c229c8a512661ff7ab420b35a05879438a305588[ALL] 021736d20368f1bffd80b9cca421652c9b9aa51b363b265594b36d57ba006d61e6"}, "vout": 1, "txid": "e1dc2008fade9963f1b691b3c9f98ed436d49642929199d4958fccea897e7a9c"}], "txid": "3cad859ce9db4dbc712a22bc3d28aa96413f9136f1c02ebe1184d6a755a45ba8", "blocktime": 1537873282, "version": 1, "confirmations": 11483, "time": 1537873282, "locktime": 0, "vsize": 815, "size": 815}