{"hash": "3cb028ae846d178be571781374eeb4d37fc20c08665e08a5e7034940a80c0103", "blockhash": "00000000000000000018f53835495a110e01622372bf6ae95dc86f2b0ab887b0", "vout": [{"scriptPubKey": {"reqSigs": 1, "hex": "76a914de8e05be4f05986599376c56758582d12a3e9c9f88ac", "addresses": ["1MHm9UjUCFpWa9MbnXTFMfcGk77ioJakME"], "asm": "OP_DUP OP_HASH160 de8e05be4f05986599376c56758582d12a3e9c9f OP_EQUALVERIFY OP_CHECKSIG", "type": "pubkeyhash"}, "value": 0.0037454, "n": 0}, {"scriptPubKey": {"reqSigs": 1, "hex": "a91408e57255564f6f75115ab4e4dd29dcdeffde50c487", "addresses": ["32W4CJrcbKEiRXzkTdBZE1T1ZMM3xVsVTt"], "asm": "OP_HASH160 08e57255564f6f75115ab4e4dd29dcdeffde50c4 OP_EQUAL", "type": "scripthash"}, "value": 0.0273, "n": 1}], "hex": "0100000001bb7e7b5691f9f6b128c5b61f0dc8ca3b5e0d2ff04aa416bb1b1fd89fa3da70a2000000006b483045022100dbb05c3b4a898269547c70a53b58bf290d8e592060b752e7515fbfd87bb0bcdf02201d46b474fe4dba9714d6bf422533ddb10c45170435b3da22d1417fdb4aff3a0b01210381e95b7a9edd85f2c7f5f4ac7b57f1f9d5a3f536d969b624dc632cac05d9b759ffffffff020cb70500000000001976a914de8e05be4f05986599376c56758582d12a3e9c9f88ac10a829000000000017a91408e57255564f6f75115ab4e4dd29dcdeffde50c48700000000", "vin": [{"sequence": 4294967295, "scriptSig": {"hex": "483045022100dbb05c3b4a898269547c70a53b58bf290d8e592060b752e7515fbfd87bb0bcdf02201d46b474fe4dba9714d6bf422533ddb10c45170435b3da22d1417fdb4aff3a0b01210381e95b7a9edd85f2c7f5f4ac7b57f1f9d5a3f536d969b624dc632cac05d9b759", "asm": "3045022100dbb05c3b4a898269547c70a53b58bf290d8e592060b752e7515fbfd87bb0bcdf02201d46b474fe4dba9714d6bf422533ddb10c45170435b3da22d1417fdb4aff3a0b[ALL] 0381e95b7a9edd85f2c7f5f4ac7b57f1f9d5a3f536d969b624dc632cac05d9b759"}, "vout": 0, "txid": "a270daa39fd81f1bbb16a44af02f0d5e3bcac80d1fb6c528b1f6f991567b7ebb"}], "txid": "3cb028ae846d178be571781374eeb4d37fc20c08665e08a5e7034940a80c0103", "blocktime": 1537870928, "version": 1, "confirmations": 11512, "time": 1537870928, "locktime": 0, "vsize": 224, "size": 224}