{"hash": "3cb74300f36e25bee94699f49c5cd06b3beaad9940ea22755b7d809d47e771b5", "blockhash": "00000000000000000004ffacab907a6b429b9a5745fa0b75af4234bf69dd7176", "vout": [{"scriptPubKey": {"reqSigs": 1, "hex": "76a914d29437cad4a8a638f3139e8c43814c0aaa28d5ed88ac", "addresses": ["1LCSTeYZEs1axMUjmKQVz11E9LmReJ6tAp"], "asm": "OP_DUP OP_HASH160 d29437cad4a8a638f3139e8c43814c0aaa28d5ed OP_EQUALVERIFY OP_CHECKSIG", "type": "pubkeyhash"}, "value": 0.04407289, "n": 0}, {"scriptPubKey": {"reqSigs": 1, "hex": "76a9140e792f65667a2bdbeab6a91eeb01c43e387dfc5c88ac", "addresses": ["12KXdn4H6mrmE3nTFdqMmZs6aPmp4YBWRH"], "asm": "OP_DUP OP_HASH160 0e792f65667a2bdbeab6a91eeb01c43e387dfc5c OP_EQUALVERIFY OP_CHECKSIG", "type": "pubkeyhash"}, "value": 0.01238995, "n": 1}], "hex": "02000000025050070e15e2aa8c90dc2cd41ee283ae44ead6b6a0610b9a9c06dc63f3d654c1180000006a4730440220064c4664ed4e8dd73b37ff26523bffeaf9a7fe01cf49dcf39812707da5efd9fc02202bf58e3c27c1df86c672c4f44b48d78bd8311965d21b970717241c25a9dd88ef012102f4d8781e901ebec77cf62218c6d080de7163e3fa1c71e15a5c44ea8d0a06622afeffffffb56d0f5e9e249be735791fece8ac0ab01bc0420b2e77ecc4975dd7c7df233e9d000000006a47304402200bc72917f4b46b5671ea51b335ee3fef25af17057b38df63e51a7cc08db25d8e022017143c7a00637c5df57a2fdd1eda8ea9240019c7f626a18aaba4b9d41404aa1c012103053dd8ca8c8ad26ca4a247fb5ee49a642a9f11f9e0e98109ed090e840fc5a3acfeffffff02f93f4300000000001976a914d29437cad4a8a638f3139e8c43814c0aaa28d5ed88acd3e71200000000001976a9140e792f65667a2bdbeab6a91eeb01c43e387dfc5c88ac16490800", "vin": [{"sequence": 4294967294, "scriptSig": {"hex": "4730440220064c4664ed4e8dd73b37ff26523bffeaf9a7fe01cf49dcf39812707da5efd9fc02202bf58e3c27c1df86c672c4f44b48d78bd8311965d21b970717241c25a9dd88ef012102f4d8781e901ebec77cf62218c6d080de7163e3fa1c71e15a5c44ea8d0a06622a", "asm": "30440220064c4664ed4e8dd73b37ff26523bffeaf9a7fe01cf49dcf39812707da5efd9fc02202bf58e3c27c1df86c672c4f44b48d78bd8311965d21b970717241c25a9dd88ef[ALL] 02f4d8781e901ebec77cf62218c6d080de7163e3fa1c71e15a5c44ea8d0a06622a"}, "vout": 24, "txid": "c154d6f363dc069c9a0b61a0b6d6ea44ae83e21ed42cdc908caae2150e075050"}, {"sequence": 4294967294, "scriptSig": {"hex": "47304402200bc72917f4b46b5671ea51b335ee3fef25af17057b38df63e51a7cc08db25d8e022017143c7a00637c5df57a2fdd1eda8ea9240019c7f626a18aaba4b9d41404aa1c012103053dd8ca8c8ad26ca4a247fb5ee49a642a9f11f9e0e98109ed090e840fc5a3ac", "asm": "304402200bc72917f4b46b5671ea51b335ee3fef25af17057b38df63e51a7cc08db25d8e022017143c7a00637c5df57a2fdd1eda8ea9240019c7f626a18aaba4b9d41404aa1c[ALL] 03053dd8ca8c8ad26ca4a247fb5ee49a642a9f11f9e0e98109ed090e840fc5a3ac"}, "vout": 0, "txid": "9d3e23dfc7d75d97c4ec772e0b42c01bb00aace8ec1f7935e79b249e5e0f6db5"}], "txid": "3cb74300f36e25bee94699f49c5cd06b3beaad9940ea22755b7d809d47e771b5", "blocktime": 1537875543, "version": 2, "confirmations": 11464, "time": 1537875543, "locktime": 542998, "vsize": 372, "size": 372}