{"hash": "3cb86c7a1f3ee5db1d1ab64d4d3ba994f2a81f56b9fb65f9fce652a20a794657", "blockhash": "000000000000000000022b45ed06c6f4ccd3cf7fb5ba4856ebd2e58215665228", "vout": [{"scriptPubKey": {"reqSigs": 1, "hex": "a9144a40014b371953ee8f1f185f9dbd8479b916f2b787", "addresses": ["38TcbtUYtR1izFu2sTebkfhZ4a59hoj4UM"], "asm": "OP_HASH160 4a40014b371953ee8f1f185f9dbd8479b916f2b7 OP_EQUAL", "type": "scripthash"}, "value": 0.44982934, "n": 0}, {"scriptPubKey": {"reqSigs": 1, "hex": "a91485cc28ecd4741ae0a318f2bae8c2af1756ded8a787", "addresses": ["3DtUNLHCETCasEWuXLbSyzaE7JCfdYZtZJ"], "asm": "OP_HASH160 85cc28ecd4741ae0a318f2bae8c2af1756ded8a7 OP_EQUAL", "type": "scripthash"}, "value": 0.05005701, "n": 1}], "hex": "020000000173912e949c643c0cf91950dd92c08bc6dd0279b87a1243855ad031c0ca8b918e070000006b48304502210083b6f8fae69dbea12353e2ed1a4aa5ead2129ab399588e7ddf53d663eff880d50220338825538f5786a7a5c45af3e677bd11ee65f1fe06428a0a009abd188b40de9a01210248a1afb8380cdfb9ca33fa38f19a44fc3aefc7a0fdd77097ce9d7452d8ec50b7fdffffff029662ae020000000017a9144a40014b371953ee8f1f185f9dbd8479b916f2b78785614c000000000017a91485cc28ecd4741ae0a318f2bae8c2af1756ded8a7870b490800", "vin": [{"sequence": 4294967293, "scriptSig": {"hex": "48304502210083b6f8fae69dbea12353e2ed1a4aa5ead2129ab399588e7ddf53d663eff880d50220338825538f5786a7a5c45af3e677bd11ee65f1fe06428a0a009abd188b40de9a01210248a1afb8380cdfb9ca33fa38f19a44fc3aefc7a0fdd77097ce9d7452d8ec50b7", "asm": "304502210083b6f8fae69dbea12353e2ed1a4aa5ead2129ab399588e7ddf53d663eff880d50220338825538f5786a7a5c45af3e677bd11ee65f1fe06428a0a009abd188b40de9a[ALL] 0248a1afb8380cdfb9ca33fa38f19a44fc3aefc7a0fdd77097ce9d7452d8ec50b7"}, "vout": 7, "txid": "8e918bcac031d05a8543127ab87902ddc68bc092dd5019f90c3c649c942e9173"}], "txid": "3cb86c7a1f3ee5db1d1ab64d4d3ba994f2a81f56b9fb65f9fce652a20a794657", "blocktime": 1537869901, "version": 2, "confirmations": 11522, "time": 1537869901, "locktime": 542987, "vsize": 222, "size": 222}