{"hash": "3a7c3f237343812c82305960592a84cc9d747205a479a5dbc668ede030ff3d45", "blockhash": "0000000000000000000baef3f32e3676a92c3b2e5da21b426e4f302fc371ce76", "vout": [{"scriptPubKey": {"reqSigs": 1, "hex": "76a914fea5f8bff8bd3bad5e8007002954c3a942f035d888ac", "addresses": ["1QDTTe5qcWxm8UARmtoTLRvCuZSaQHDH2R"], "asm": "OP_DUP OP_HASH160 fea5f8bff8bd3bad5e8007002954c3a942f035d8 OP_EQUALVERIFY OP_CHECKSIG", "type": "pubkeyhash"}, "value": 0.00231, "n": 0}, {"scriptPubKey": {"reqSigs": 1, "hex": "a9149649ad6d2730bb28020a268d9d80df10a9f74ad487", "addresses": ["3FPfYWwfMfKMGY7fuPHvz2b73RhTNGzsm3"], "asm": "OP_HASH160 9649ad6d2730bb28020a268d9d80df10a9f74ad4 OP_EQUAL", "type": "scripthash"}, "value": 13.73908018, "n": 1}], "hex": "01000000000101a9e169c69a200ea010fc039813240a2c4d018af5e81348191e2781e49414a95e01000000232200207768efcc1e5eb3d28410fac3f45831004c860cc24cddd940a616b34324823fceffffffff0258860300000000001976a914fea5f8bff8bd3bad5e8007002954c3a942f035d888ac322ce4510000000017a9149649ad6d2730bb28020a268d9d80df10a9f74ad4870400483045022100f563e2545d5244f838f41a10f257a55ed1676c37417e46062b9731b13f445a0d0220316a3fbb29a456aaf1ee86bc333689e04b8e65cfc45d5091dab714f6efd146ff01483045022100b0aaa6c59f3e3a20523d72d5f5352b30bd6e4989b4b3ff10c60e508993556e1c022012baeb6a27d811a20465112246fe56ff613e481d8c813dab70aacbac90ab44c10147522102529d5d1f6733ab45d9d50e07db42c7f6b967ae321c38b726c2247f149959b8262103d0c936a5988dd8421c63240496b723b0ec42400c38b9350e32c2eb4f47d8796952ae00000000", "vin": [{"txinwitness": ["", "3045022100f563e2545d5244f838f41a10f257a55ed1676c37417e46062b9731b13f445a0d0220316a3fbb29a456aaf1ee86bc333689e04b8e65cfc45d5091dab714f6efd146ff01", "3045022100b0aaa6c59f3e3a20523d72d5f5352b30bd6e4989b4b3ff10c60e508993556e1c022012baeb6a27d811a20465112246fe56ff613e481d8c813dab70aacbac90ab44c101", "522102529d5d1f6733ab45d9d50e07db42c7f6b967ae321c38b726c2247f149959b8262103d0c936a5988dd8421c63240496b723b0ec42400c38b9350e32c2eb4f47d8796952ae"], "sequence": 4294967295, "scriptSig": {"hex": "2200207768efcc1e5eb3d28410fac3f45831004c860cc24cddd940a616b34324823fce", "asm": "00207768efcc1e5eb3d28410fac3f45831004c860cc24cddd940a616b34324823fce"}, "vout": 1, "txid": "5ea91494e481271e194813e8f58a014d2c0a24139803fc10a00e209ac669e1a9"}], "txid": "3cbbcff186701aa01aac2f7eb4fe41521532e5781c6ce943329d70621381b5fd", "blocktime": 1537876114, "version": 1, "confirmations": 11462, "time": 1537876114, "locktime": 0, "vsize": 208, "size": 374}