{"hash": "a4b23d894292db0b17735c9d38bd9edbfb993acf7b239199dededc3ad14927fe", "blockhash": "0000000000000000000e13cef7c366c0283d82e591d1acd082e914b08063cdf1", "vout": [{"scriptPubKey": {"reqSigs": 1, "hex": "a914abb664d0dbd456a9f550ef71b17ab8d047dbfc4287", "addresses": ["3HLwyHq7P13sKYpmXr7YfTCT7vnWz4auFL"], "asm": "OP_HASH160 abb664d0dbd456a9f550ef71b17ab8d047dbfc42 OP_EQUAL", "type": "scripthash"}, "value": 0.0994336, "n": 0}, {"scriptPubKey": {"reqSigs": 1, "hex": "a91469f374ebc2f70031622e804351db978b10fdfd3a87", "addresses": ["3BMEXMaQUofAvWXYe8A1eox4TUBDHS7Ev1"], "asm": "OP_HASH160 69f374ebc2f70031622e804351db978b10fdfd3a OP_EQUAL", "type": "scripthash"}, "value": 0.04082392, "n": 1}], "hex": "0200000000010184478f0922e8c2280187791cf2c91f2fa2f2ff5cb96c1e4a2903c8b3d311a03f00000000171600149c9b3b6beeab34cf784dfa1ad32120dfff6b3f43feffffff0240b997000000000017a914abb664d0dbd456a9f550ef71b17ab8d047dbfc4287d84a3e000000000017a91469f374ebc2f70031622e804351db978b10fdfd3a870247304402202ec6870364f0984bd7916cce1b94d878bd003681233d34011292ddb3e6ed91a802201a301c7e8dcb8a0f4105780e94d5999ddb45916fb9a62f10730dc2c65428baa1012103cdd32037ff58772433c2bc2f40780e3efaad1b9689d0a3e26ee468b363f1d74710490800", "vin": [{"txinwitness": ["304402202ec6870364f0984bd7916cce1b94d878bd003681233d34011292ddb3e6ed91a802201a301c7e8dcb8a0f4105780e94d5999ddb45916fb9a62f10730dc2c65428baa101", "03cdd32037ff58772433c2bc2f40780e3efaad1b9689d0a3e26ee468b363f1d747"], "sequence": 4294967294, "scriptSig": {"hex": "1600149c9b3b6beeab34cf784dfa1ad32120dfff6b3f43", "asm": "00149c9b3b6beeab34cf784dfa1ad32120dfff6b3f43"}, "vout": 0, "txid": "3fa011d3b3c803294a1e6cb95cfff2a22f1fc9f21c79870128c2e822098f4784"}], "txid": "3cbd6cdbc7db3e9417538e47b6fae7eb4132635d0c74899e69c587d0a87d55f0", "blocktime": 1537871767, "version": 2, "confirmations": 11491, "time": 1537871767, "locktime": 542992, "vsize": 166, "size": 247}