{"hash": "e34b9921b984b94709a263462c6e15aa9ada2769c2c95c55cdb997663a582881", "blockhash": "00000000000000000004ffacab907a6b429b9a5745fa0b75af4234bf69dd7176", "vout": [{"scriptPubKey": {"reqSigs": 1, "hex": "76a9142c8eb558f19cb532e5c40b7d8bf65f3be388a27f88ac", "addresses": ["154bgzc7koKpo7APYW95oqFXgrjaXovwMa"], "asm": "OP_DUP OP_HASH160 2c8eb558f19cb532e5c40b7d8bf65f3be388a27f OP_EQUALVERIFY OP_CHECKSIG", "type": "pubkeyhash"}, "value": 0.118864, "n": 0}, {"scriptPubKey": {"reqSigs": 1, "hex": "a914a74d7b266fd918c297f1f22defc292f51a5d79f787", "addresses": ["3Gwdb4Hnj7ZSK2zPkhF8cb3S9Dy4R7va7a"], "asm": "OP_HASH160 a74d7b266fd918c297f1f22defc292f51a5d79f7 OP_EQUAL", "type": "scripthash"}, "value": 0.00996206, "n": 1}], "hex": "02000000000103132f93fed632e3389a8684ce132dff3c895cda4dc548fec37e0baa2fc96f3b71010000001716001477a549dc79e4e657ccd69e8cfa36b5e890b9976ffeffffffb546224cb93001d7b29cd801ccff84926aee638cddd72a49a043c90e59a8290a02000000171600144b3536e3e3f0397c4473a352145f1e817ed3665efeffffffed2b1969483bf2abd9a098d0e27a4f3c3b8fe4359b548f23c9f609748fea271e010000001716001469f3e50f06bbab1609be7b788177889ce8eb89c5feffffff02405fb500000000001976a9142c8eb558f19cb532e5c40b7d8bf65f3be388a27f88ac6e330f000000000017a914a74d7b266fd918c297f1f22defc292f51a5d79f78702483045022100aa07da9b38b4e74920667156e849b27be6fbff075323f789ea11855f86aee65002200b9b9edbb766d29b768abe1125e92fc7d79bb3989854597f1d5421d70eeecafa012103b488d197dfda516aa4c550fcc4350af6aacbb946f5d5b2320971edd2976502cc0248304502210081c5046572dab8d8ab061c8aa09a5665d847795e471f1b4ccb5e71ab86f82f3c022025ba5da7f0e50d4c8989d94477d65cd5a5816e82da6d60d286d0aaf63834e202012103e31d4887d6e11eeb13ec0f53db1b649b2e11eea6be7ba7c981ece27e7f20ea51024730440220242a16e85d82162be3b2e17210647f7b237e476d5f594a492402b6acc45271d702202e17173333dff673a264df79e1dd74ceb395ba58afafc4cdb6f7afda2688624f012103e00e1f2e84d769faf1c8b407a2a0b7615c70c8029f153c57d3737781854bd60616490800", "vin": [{"txinwitness": ["3045022100aa07da9b38b4e74920667156e849b27be6fbff075323f789ea11855f86aee65002200b9b9edbb766d29b768abe1125e92fc7d79bb3989854597f1d5421d70eeecafa01", "03b488d197dfda516aa4c550fcc4350af6aacbb946f5d5b2320971edd2976502cc"], "sequence": 4294967294, "scriptSig": {"hex": "16001477a549dc79e4e657ccd69e8cfa36b5e890b9976f", "asm": "001477a549dc79e4e657ccd69e8cfa36b5e890b9976f"}, "vout": 1, "txid": "713b6fc92faa0b7ec3fe48c54dda5c893cff2d13ce84869a38e332d6fe932f13"}, {"txinwitness": ["304502210081c5046572dab8d8ab061c8aa09a5665d847795e471f1b4ccb5e71ab86f82f3c022025ba5da7f0e50d4c8989d94477d65cd5a5816e82da6d60d286d0aaf63834e20201", "03e31d4887d6e11eeb13ec0f53db1b649b2e11eea6be7ba7c981ece27e7f20ea51"], "sequence": 4294967294, "scriptSig": {"hex": "1600144b3536e3e3f0397c4473a352145f1e817ed3665e", "asm": "00144b3536e3e3f0397c4473a352145f1e817ed3665e"}, "vout": 2, "txid": "0a29a8590ec943a0492ad7dd8c63ee6a9284ffcc01d89cb2d70130b94c2246b5"}, {"txinwitness": ["30440220242a16e85d82162be3b2e17210647f7b237e476d5f594a492402b6acc45271d702202e17173333dff673a264df79e1dd74ceb395ba58afafc4cdb6f7afda2688624f01", "03e00e1f2e84d769faf1c8b407a2a0b7615c70c8029f153c57d3737781854bd606"], "sequence": 4294967294, "scriptSig": {"hex": "16001469f3e50f06bbab1609be7b788177889ce8eb89c5", "asm": "001469f3e50f06bbab1609be7b788177889ce8eb89c5"}, "vout": 1, "txid": "1e27ea8f7409f6c9238f549b35e48f3b3c4f7ae2d098a0d9abf23b4869192bed"}], "txid": "3cc036c09425f9e8634e05a1f52b2c4ca6af749b43d03d428f58daff5e82c0c1", "blocktime": 1537875543, "version": 2, "confirmations": 11464, "time": 1537875543, "locktime": 542998, "vsize": 350, "size": 593}