{"hash": "3cc04551aa1dbcd65c934ff0a315c9d12140ade597d27fea8ed8cda98e67aa8b", "blockhash": "0000000000000000000baef3f32e3676a92c3b2e5da21b426e4f302fc371ce76", "vout": [{"scriptPubKey": {"reqSigs": 1, "hex": "a914f1efc9f9cdf3cf870fc4988512488a617ea10e0f87", "addresses": ["3PkG2c1ferjXKYNDz39p4BQT7wbN2DVYot"], "asm": "OP_HASH160 f1efc9f9cdf3cf870fc4988512488a617ea10e0f OP_EQUAL", "type": "scripthash"}, "value": 0.00015685, "n": 0}, {"scriptPubKey": {"reqSigs": 1, "hex": "76a9142781e4f041206e36bee3d5d816ea22e134d1095388ac", "addresses": ["14btxhJoWcCz4dZ78yE7qbek8bLxu5NKTL"], "asm": "OP_DUP OP_HASH160 2781e4f041206e36bee3d5d816ea22e134d10953 OP_EQUALVERIFY OP_CHECKSIG", "type": "pubkeyhash"}, "value": 0.00616877, "n": 1}], "hex": "0100000001eb1728b5cfd5909e9cf4a33a354bc8d210ac762788d8efb3bd7a91317f072902000000006b483045022100d48efba9907c9c6c6f90a0659ec5abdcb478a9d435ced533d355c4bb7e7c07f7022044af0883e74e3f5ec088656c3eaee531ac9982338fd0725847eb5a7535589985012102974ad1dfaf1754427f314319e69ca8463a720df4ead6eb5c252f13cdd9dcc5d5ffffffff02453d00000000000017a914f1efc9f9cdf3cf870fc4988512488a617ea10e0f87ad690900000000001976a9142781e4f041206e36bee3d5d816ea22e134d1095388ac00000000", "vin": [{"sequence": 4294967295, "scriptSig": {"hex": "483045022100d48efba9907c9c6c6f90a0659ec5abdcb478a9d435ced533d355c4bb7e7c07f7022044af0883e74e3f5ec088656c3eaee531ac9982338fd0725847eb5a7535589985012102974ad1dfaf1754427f314319e69ca8463a720df4ead6eb5c252f13cdd9dcc5d5", "asm": "3045022100d48efba9907c9c6c6f90a0659ec5abdcb478a9d435ced533d355c4bb7e7c07f7022044af0883e74e3f5ec088656c3eaee531ac9982338fd0725847eb5a7535589985[ALL] 02974ad1dfaf1754427f314319e69ca8463a720df4ead6eb5c252f13cdd9dcc5d5"}, "vout": 0, "txid": "0229077f31917abdb3efd8882776ac10d2c84b353aa3f49c9e90d5cfb52817eb"}], "txid": "3cc04551aa1dbcd65c934ff0a315c9d12140ade597d27fea8ed8cda98e67aa8b", "blocktime": 1537876114, "version": 1, "confirmations": 11460, "time": 1537876114, "locktime": 0, "vsize": 224, "size": 224}