{"hash": "6584eb31b4a1b08aec10acccc8d4952e52b36a0b147c06c8d0419eeae55a897a", "blockhash": "0000000000000000001cda96e906b7601b7a6fb1a3b62bca570a9e5d8f4b3de1", "vout": [{"scriptPubKey": {"reqSigs": 1, "hex": "a9141731fcaed0272cade47b43151bb03b7f8f40b07087", "addresses": ["33ofM7hzYxxPJofeqKQMjBFRfC4dFtiq28"], "asm": "OP_HASH160 1731fcaed0272cade47b43151bb03b7f8f40b070 OP_EQUAL", "type": "scripthash"}, "value": 0.00999784, "n": 0}, {"scriptPubKey": {"reqSigs": 1, "hex": "76a9142e1b944fe7ffbe969fc1df8d662fd7b5d6303c9b88ac", "addresses": ["15Co856cRnFRCKwSSzECoyT3ozVhuFoJZ6"], "asm": "OP_DUP OP_HASH160 2e1b944fe7ffbe969fc1df8d662fd7b5d6303c9b OP_EQUALVERIFY OP_CHECKSIG", "type": "pubkeyhash"}, "value": 0.0030946, "n": 1}], "hex": "020000000001020bfa6b4cf640c822838ea906d25d66d6adbd3dc72899491cd6acec5f65c240a11000000017160014d928136ca9408371678cecf87d5e31a302cc7dd2feffffff49f69ae5265b32bf5720d70198aa1caa01d201e9504abd858a0739df936a7da6000000001716001463acd83cae6075c4b29f3d317f2982c8ae8f26b3feffffff0268410f000000000017a9141731fcaed0272cade47b43151bb03b7f8f40b07087d4b80400000000001976a9142e1b944fe7ffbe969fc1df8d662fd7b5d6303c9b88ac024830450221009a155c9d13f7690f748fba32e81f0f4ac8a1557cc409abfec1f0cb1e032d9ff602202d3bf9d035c47f93dca44d5346ac8205c1e9bd60b1f8f45489f7140172118a13012102cc79ad2d39c385232775020a20b0f6ae249417638e940a6fd0eef775d3193238024830450221009b60902a21583dd2d3452fbf9c599f64bf13cd6b3c6104f64eb1340f1a7a3005022028e28c6acba66fbef89671285e48587eae85185a552c7ac2460b3aac4e082a21012103bc402797306688a99b53e0ab1e530f51d8890456e6197d5bffa4fa1fd2ac773613490800", "vin": [{"txinwitness": ["30450221009a155c9d13f7690f748fba32e81f0f4ac8a1557cc409abfec1f0cb1e032d9ff602202d3bf9d035c47f93dca44d5346ac8205c1e9bd60b1f8f45489f7140172118a1301", "02cc79ad2d39c385232775020a20b0f6ae249417638e940a6fd0eef775d3193238"], "sequence": 4294967294, "scriptSig": {"hex": "160014d928136ca9408371678cecf87d5e31a302cc7dd2", "asm": "0014d928136ca9408371678cecf87d5e31a302cc7dd2"}, "vout": 16, "txid": "a140c2655fecacd61c499928c73dbdadd6665dd206a98e8322c840f64c6bfa0b"}, {"txinwitness": ["30450221009b60902a21583dd2d3452fbf9c599f64bf13cd6b3c6104f64eb1340f1a7a3005022028e28c6acba66fbef89671285e48587eae85185a552c7ac2460b3aac4e082a2101", "03bc402797306688a99b53e0ab1e530f51d8890456e6197d5bffa4fa1fd2ac7736"], "sequence": 4294967294, "scriptSig": {"hex": "16001463acd83cae6075c4b29f3d317f2982c8ae8f26b3", "asm": "001463acd83cae6075c4b29f3d317f2982c8ae8f26b3"}, "vout": 0, "txid": "a67d6a93df39078a85bd4a50e901d201aa1caa9801d72057bf325b26e59af649"}], "txid": "3cc3f2fd8caa2284e5f9a502b67ea44e473739b1ce3395a73ecaed23d2270478", "blocktime": 1537873282, "version": 2, "confirmations": 11485, "time": 1537873282, "locktime": 542995, "vsize": 259, "size": 422}