{"hash": "3cc3fb693991bd546762573c6265b64e037f31693c0d19c557fc10d82ca1e004", "blockhash": "0000000000000000000baef3f32e3676a92c3b2e5da21b426e4f302fc371ce76", "vout": [{"scriptPubKey": {"reqSigs": 1, "hex": "a9144bd658c97b756ba30befec5e5a97e028a7d41cdf87", "addresses": ["38c1P1WAWJvotDtmjr3vqrcvDQzzGiv87k"], "asm": "OP_HASH160 4bd658c97b756ba30befec5e5a97e028a7d41cdf OP_EQUAL", "type": "scripthash"}, "value": 0.00470145, "n": 0}, {"scriptPubKey": {"reqSigs": 1, "hex": "76a914bc1cde31eefbc41da4af8db366d8ed60fab6634588ac", "addresses": ["1J9ecqybG3ZA6nLusyUrYmeb7cgDtCiK1C"], "asm": "OP_DUP OP_HASH160 bc1cde31eefbc41da4af8db366d8ed60fab66345 OP_EQUALVERIFY OP_CHECKSIG", "type": "pubkeyhash"}, "value": 0.0124379, "n": 1}], "hex": "01000000013f94edc631b73b8c8fc337c9cc52e3f7be02e24b821c4d420b0aedaff0c058b5000000006b483045022100f37e53ba2391282340ec81db7866e9f6aff03cdf47bf274342d1e167571f709202201484ce425f8869af585d40e0c54c0943e97aae5cdcb5fddc2fe935c3b212cd8d012103c5096bb7bb44cc1063565c8bff39fe99a849287f114c474e9ae1949bd862976cffffffff02812c07000000000017a9144bd658c97b756ba30befec5e5a97e028a7d41cdf878efa1200000000001976a914bc1cde31eefbc41da4af8db366d8ed60fab6634588ac00000000", "vin": [{"sequence": 4294967295, "scriptSig": {"hex": "483045022100f37e53ba2391282340ec81db7866e9f6aff03cdf47bf274342d1e167571f709202201484ce425f8869af585d40e0c54c0943e97aae5cdcb5fddc2fe935c3b212cd8d012103c5096bb7bb44cc1063565c8bff39fe99a849287f114c474e9ae1949bd862976c", "asm": "3045022100f37e53ba2391282340ec81db7866e9f6aff03cdf47bf274342d1e167571f709202201484ce425f8869af585d40e0c54c0943e97aae5cdcb5fddc2fe935c3b212cd8d[ALL] 03c5096bb7bb44cc1063565c8bff39fe99a849287f114c474e9ae1949bd862976c"}, "vout": 0, "txid": "b558c0f0afed0a0b424d1c824be202bef7e352ccc937c38f8c3bb731c6ed943f"}], "txid": "3cc3fb693991bd546762573c6265b64e037f31693c0d19c557fc10d82ca1e004", "blocktime": 1537876114, "version": 1, "confirmations": 11460, "time": 1537876114, "locktime": 0, "vsize": 224, "size": 224}