{"hash": "3cc744554f89f153c74a352dca31386e99899ae7a19b83b43fe6b445384fd5ac", "blockhash": "00000000000000000004ffacab907a6b429b9a5745fa0b75af4234bf69dd7176", "vout": [{"scriptPubKey": {"reqSigs": 1, "hex": "76a9144dad73423dff96f2106dea749b2269bb16a1353e88ac", "addresses": ["185ipJeDhASqcgQbyyHsQnZpzZdtpURPqR"], "asm": "OP_DUP OP_HASH160 4dad73423dff96f2106dea749b2269bb16a1353e OP_EQUALVERIFY OP_CHECKSIG", "type": "pubkeyhash"}, "value": 0.21641893, "n": 0}, {"scriptPubKey": {"reqSigs": 1, "hex": "a9145f7f528150acc811dc0f998078c898a898128a8787", "addresses": ["3APxeGuqQt4ZbSM2i2zsYBecisuCLXpTmi"], "asm": "OP_HASH160 5f7f528150acc811dc0f998078c898a898128a87 OP_EQUAL", "type": "scripthash"}, "value": 0.38, "n": 1}], "hex": "01000000014f2af567bbcad2e49bbe97ed38d43cb974766239802e6cc206f3d20a6f2314d3010000006b483045022100ae84e1062c97f5295e5b92a3efbb5c4a75af91a0753dc9aa3f167e874c2bcbd202205f7de35375f1915021375a2e68e818e5031f492c9bd02a6618dd4b58d33b98b9012102caed15ff2242fff390ef8e7ff9adaa06f337e69f2633f2a3d9ea7f4c312e9499ffffffff02a53a4a01000000001976a9144dad73423dff96f2106dea749b2269bb16a1353e88ac80d543020000000017a9145f7f528150acc811dc0f998078c898a898128a878700000000", "vin": [{"sequence": 4294967295, "scriptSig": {"hex": "483045022100ae84e1062c97f5295e5b92a3efbb5c4a75af91a0753dc9aa3f167e874c2bcbd202205f7de35375f1915021375a2e68e818e5031f492c9bd02a6618dd4b58d33b98b9012102caed15ff2242fff390ef8e7ff9adaa06f337e69f2633f2a3d9ea7f4c312e9499", "asm": "3045022100ae84e1062c97f5295e5b92a3efbb5c4a75af91a0753dc9aa3f167e874c2bcbd202205f7de35375f1915021375a2e68e818e5031f492c9bd02a6618dd4b58d33b98b9[ALL] 02caed15ff2242fff390ef8e7ff9adaa06f337e69f2633f2a3d9ea7f4c312e9499"}, "vout": 1, "txid": "d314236f0ad2f306c26c2e8039627674b93cd438ed97be9be4d2cabb67f52a4f"}], "txid": "3cc744554f89f153c74a352dca31386e99899ae7a19b83b43fe6b445384fd5ac", "blocktime": 1537875543, "version": 1, "confirmations": 11464, "time": 1537875543, "locktime": 0, "vsize": 224, "size": 224}