{"hash": "bccfb14c022ef9bd83ccfed01661f01027702e9ddc416c7320f90c842cdce52b", "blockhash": "0000000000000000001f76057863aec43deb6fa401d9628bb513d65a8098bfab", "vout": [{"scriptPubKey": {"reqSigs": 1, "hex": "76a91454ca460382f0086bf85104ca7464cce024ee937288ac", "addresses": ["18jL5KhE4XWvCiEsRrsTosLdJME68EmaD7"], "asm": "OP_DUP OP_HASH160 54ca460382f0086bf85104ca7464cce024ee9372 OP_EQUALVERIFY OP_CHECKSIG", "type": "pubkeyhash"}, "value": 0.00248974, "n": 0}, {"scriptPubKey": {"reqSigs": 1, "hex": "001477c19c00589786f28135f85fb0c243fd76f29771", "addresses": ["bc1qwlqecqzcj7r09qf4lp0mpsjrl4m099m3ul0ype"], "asm": "0 77c19c00589786f28135f85fb0c243fd76f29771", "type": "witness_v0_keyhash"}, "value": 1.077e-05, "n": 1}], "hex": "01000000000101efdc1e10c966b73b32a57a0bc2ab33f8978488f8c4cc73ce72e6fc56ef846bbe2e0100001716001473cd510776e4716700885f2c62c58f8ba352f096ffffffff028ecc0300000000001976a91454ca460382f0086bf85104ca7464cce024ee937288ac350400000000000016001477c19c00589786f28135f85fb0c243fd76f29771024830450221008a317205ec1798859e0bf5391137ea9dc8cd9fb1abc03cb093d6aa15b3b23afe02206f06beb443b7160752f131436d32f3a5ccc462965c0403ecac9b5153a379f9b50121027e9dc5b5fc6877ea62726c6e837faca39e1b9261e2a704f9c6a653cdcb6eef3a00000000", "vin": [{"txinwitness": ["30450221008a317205ec1798859e0bf5391137ea9dc8cd9fb1abc03cb093d6aa15b3b23afe02206f06beb443b7160752f131436d32f3a5ccc462965c0403ecac9b5153a379f9b501", "027e9dc5b5fc6877ea62726c6e837faca39e1b9261e2a704f9c6a653cdcb6eef3a"], "sequence": 4294967295, "scriptSig": {"hex": "16001473cd510776e4716700885f2c62c58f8ba352f096", "asm": "001473cd510776e4716700885f2c62c58f8ba352f096"}, "vout": 302, "txid": "be6b84ef56fce672ce73ccc4f8888497f833abc20b7aa5323bb766c9101edcef"}], "txid": "3cc839f005cc82df917e2cc409cad7c878401259fcf0aa0b300120ed93bbe548", "blocktime": 1537873891, "version": 1, "confirmations": 11478, "time": 1537873891, "locktime": 0, "vsize": 167, "size": 249}