{"hash": "3ccbe091e8b28d7b95d567e831e3f97a4f6a3e6aca1f2b55a4966d4c835b8038", "blockhash": "0000000000000000001f0ddff1eddb255c1121bcd4da4f1bc9a0da00cae72433", "vout": [{"scriptPubKey": {"reqSigs": 1, "hex": "76a914ec2328df7e4fd6e237a4ed2b92cbd59a73fecce588ac", "addresses": ["1NXabD4iHntAKa1k4JC3TdV6owmJ4viWSL"], "asm": "OP_DUP OP_HASH160 ec2328df7e4fd6e237a4ed2b92cbd59a73fecce5 OP_EQUALVERIFY OP_CHECKSIG", "type": "pubkeyhash"}, "value": 0.00263, "n": 0}, {"scriptPubKey": {"reqSigs": 1, "hex": "76a914ebef34c581ba32424e64199955c4466ad682aa2c88ac", "addresses": ["1NWWMR1qGNsxm9TpSL2Q2idVZiASSFbHao"], "asm": "OP_DUP OP_HASH160 ebef34c581ba32424e64199955c4466ad682aa2c OP_EQUALVERIFY OP_CHECKSIG", "type": "pubkeyhash"}, "value": 0.1656912, "n": 1}], "hex": "0100000001dbefe3abcd2bd331f43f60b41d75664b812ad63914adcca02129c3a89eb46d9d000000006a47304402203619fa89082b47268b7ddfc29438ec2c781ec2b27398268f7f5851dd5046e53c022051883688d95a90b76c10606319c915688c07a8cba4c3f8faba8904bfa8cd929501210241b2f8c03a718e556c7f6d8e8d1586be4b3a376b0b9420aaa805e6de35d56ce3feffffff0258030400000000001976a914ec2328df7e4fd6e237a4ed2b92cbd59a73fecce588ac20d3fc00000000001976a914ebef34c581ba32424e64199955c4466ad682aa2c88ac11490800", "vin": [{"sequence": 4294967294, "scriptSig": {"hex": "47304402203619fa89082b47268b7ddfc29438ec2c781ec2b27398268f7f5851dd5046e53c022051883688d95a90b76c10606319c915688c07a8cba4c3f8faba8904bfa8cd929501210241b2f8c03a718e556c7f6d8e8d1586be4b3a376b0b9420aaa805e6de35d56ce3", "asm": "304402203619fa89082b47268b7ddfc29438ec2c781ec2b27398268f7f5851dd5046e53c022051883688d95a90b76c10606319c915688c07a8cba4c3f8faba8904bfa8cd9295[ALL] 0241b2f8c03a718e556c7f6d8e8d1586be4b3a376b0b9420aaa805e6de35d56ce3"}, "vout": 0, "txid": "9d6db49ea8c32921a0ccad1439d62a814b66751db4603ff431d32bcdabe3efdb"}], "txid": "3ccbe091e8b28d7b95d567e831e3f97a4f6a3e6aca1f2b55a4966d4c835b8038", "blocktime": 1537872018, "version": 1, "confirmations": 11489, "time": 1537872018, "locktime": 542993, "vsize": 225, "size": 225}