{"hash": "3cce26a460f3d0a9a6191f81c0f9c193f55c4144f7d4f1a89c155004c56dbfa8", "blockhash": "0000000000000000001cda96e906b7601b7a6fb1a3b62bca570a9e5d8f4b3de1", "vout": [{"scriptPubKey": {"reqSigs": 1, "hex": "76a914291cbae6a1e5f772814456fff073eb47a28b0abb88ac", "addresses": ["14kP84qRKHbZHJnbY1cw4mxNaajR43pTaq"], "asm": "OP_DUP OP_HASH160 291cbae6a1e5f772814456fff073eb47a28b0abb OP_EQUALVERIFY OP_CHECKSIG", "type": "pubkeyhash"}, "value": 0.00945091, "n": 0}, {"scriptPubKey": {"reqSigs": 1, "hex": "76a9143f0cf429c80f662a06631a4a50133487005067a288ac", "addresses": ["16kP68TL3oQYxpiuNFTDt7uK7WsBbRNcEw"], "asm": "OP_DUP OP_HASH160 3f0cf429c80f662a06631a4a50133487005067a2 OP_EQUALVERIFY OP_CHECKSIG", "type": "pubkeyhash"}, "value": 0.015556, "n": 1}], "hex": "0100000001db628872d72563830813578b7ce18eaeaab1b095dba55fb87c315f3636e15dff010000006b483045022100e38e3cc951aa03e078ba74d51b2f1b9b1bc4580b60d787be4a47e52ffcc6c27e02202a2655fa3e3bdd9f4aaeae9559682dc0300af92513064c4626062edfe437f0c6012102778861c4b5264ffc2dda2c52b71d31b5f7751c9dd4b3827d21a8a3b51b8efaecffffffff02c36b0e00000000001976a914291cbae6a1e5f772814456fff073eb47a28b0abb88ac90bc1700000000001976a9143f0cf429c80f662a06631a4a50133487005067a288ac00000000", "vin": [{"sequence": 4294967295, "scriptSig": {"hex": "483045022100e38e3cc951aa03e078ba74d51b2f1b9b1bc4580b60d787be4a47e52ffcc6c27e02202a2655fa3e3bdd9f4aaeae9559682dc0300af92513064c4626062edfe437f0c6012102778861c4b5264ffc2dda2c52b71d31b5f7751c9dd4b3827d21a8a3b51b8efaec", "asm": "3045022100e38e3cc951aa03e078ba74d51b2f1b9b1bc4580b60d787be4a47e52ffcc6c27e02202a2655fa3e3bdd9f4aaeae9559682dc0300af92513064c4626062edfe437f0c6[ALL] 02778861c4b5264ffc2dda2c52b71d31b5f7751c9dd4b3827d21a8a3b51b8efaec"}, "vout": 1, "txid": "ff5de136365f317cb85fa5db95b0b1aaae8ee17c8b571308836325d7728862db"}], "txid": "3cce26a460f3d0a9a6191f81c0f9c193f55c4144f7d4f1a89c155004c56dbfa8", "blocktime": 1537873282, "version": 1, "confirmations": 11485, "time": 1537873282, "locktime": 0, "vsize": 226, "size": 226}