{"hash": "3cd6911b011efa9de5ac6ed72fce0a35553e40b4eb8b3850c1e4796593492757", "blockhash": "00000000000000000004ffacab907a6b429b9a5745fa0b75af4234bf69dd7176", "vout": [{"scriptPubKey": {"reqSigs": 1, "hex": "76a914d8965301b7c44b2c30571c9a6797d15f1572912b88ac", "addresses": ["1LkD39Xa7brS6CuGmw39ffDjDR4qifp333"], "asm": "OP_DUP OP_HASH160 d8965301b7c44b2c30571c9a6797d15f1572912b OP_EQUALVERIFY OP_CHECKSIG", "type": "pubkeyhash"}, "value": 0.05845, "n": 0}], "hex": "01000000015f412e5153df6201e30b5ac359d4d849f819193eee5f826a6ea93a6294477eb6010000006b483045022100cb5f89bdc7bcc46e74fb34fd47c482ccedfc2ddb769e3cf4271bec13e0c7b89202200a13a88341b14568912d612e01d672741112331cac4536a913c716a49a960463012103d41f33a15fce3de5a4c32bf168c04a7b125c99f82ee42dc0f95b3bf23ca4d2baffffffff0108305900000000001976a914d8965301b7c44b2c30571c9a6797d15f1572912b88ac00000000", "vin": [{"sequence": 4294967295, "scriptSig": {"hex": "483045022100cb5f89bdc7bcc46e74fb34fd47c482ccedfc2ddb769e3cf4271bec13e0c7b89202200a13a88341b14568912d612e01d672741112331cac4536a913c716a49a960463012103d41f33a15fce3de5a4c32bf168c04a7b125c99f82ee42dc0f95b3bf23ca4d2ba", "asm": "3045022100cb5f89bdc7bcc46e74fb34fd47c482ccedfc2ddb769e3cf4271bec13e0c7b89202200a13a88341b14568912d612e01d672741112331cac4536a913c716a49a960463[ALL] 03d41f33a15fce3de5a4c32bf168c04a7b125c99f82ee42dc0f95b3bf23ca4d2ba"}, "vout": 1, "txid": "b67e4794623aa96e6a825fee3e1919f849d8d459c35a0be30162df53512e415f"}], "txid": "3cd6911b011efa9de5ac6ed72fce0a35553e40b4eb8b3850c1e4796593492757", "blocktime": 1537875543, "version": 1, "confirmations": 11464, "time": 1537875543, "locktime": 0, "vsize": 192, "size": 192}