{"hash": "1902562c2e0e2825be21d03d9ff38dd3581bb2cefecd793c85d9c6044872a2ac", "blockhash": "0000000000000000001f76057863aec43deb6fa401d9628bb513d65a8098bfab", "vout": [{"scriptPubKey": {"reqSigs": 1, "hex": "0014f5e28b0e02183a6f7effe992f3f1d52963e7c4ac", "addresses": ["bc1q7h3gkrszrqax7lhlaxf08uw49937039vvwq9ea"], "asm": "0 f5e28b0e02183a6f7effe992f3f1d52963e7c4ac", "type": "witness_v0_keyhash"}, "value": 0.00012192, "n": 0}, {"scriptPubKey": {"reqSigs": 1, "hex": "76a914bb2b5aa5cdab0ef93d60583bbc2bd79578a2507588ac", "addresses": ["1J4fJAiGsEJkAYsJvFs7Kh6uT7ZjQsL4i4"], "asm": "OP_DUP OP_HASH160 bb2b5aa5cdab0ef93d60583bbc2bd79578a25075 OP_EQUALVERIFY OP_CHECKSIG", "type": "pubkeyhash"}, "value": 0.00156177, "n": 1}], "hex": "01000000000101d76ceefca0b418ff1ae2f8fb5cb05f9a366203b326615dd9ac8e6ca705c54fe20000000000ffffffff02a02f000000000000160014f5e28b0e02183a6f7effe992f3f1d52963e7c4ac11620200000000001976a914bb2b5aa5cdab0ef93d60583bbc2bd79578a2507588ac02483045022100d0b927d99a22dbcf7929269424102fc8c38190479550b4b5f9be73333f2a2473022017a3b44999991f1e9cc5efafc94ff97833d39c367575d2a17c05e44a77434a32012103208b8affaf8719a8bcf6b35ab1f83dc3f59254355d3a29572cdc22c8d14a6c0200000000", "vin": [{"txinwitness": ["3045022100d0b927d99a22dbcf7929269424102fc8c38190479550b4b5f9be73333f2a2473022017a3b44999991f1e9cc5efafc94ff97833d39c367575d2a17c05e44a77434a3201", "03208b8affaf8719a8bcf6b35ab1f83dc3f59254355d3a29572cdc22c8d14a6c02"], "sequence": 4294967295, "scriptSig": {"hex": "", "asm": ""}, "vout": 0, "txid": "e24fc505a76c8eacd95d6126b30362369a5fb05cfbf8e21aff18b4a0fcee6cd7"}], "txid": "3cd9be6c3a58113784a20501cde615a98990cb9d844cad10be13b027279414c4", "blocktime": 1537873891, "version": 1, "confirmations": 11478, "time": 1537873891, "locktime": 0, "vsize": 144, "size": 226}