{"hash": "3cdb6c148cee8a29f32251184f20c1821594bf2243b6b83a616a8d8b7976614c", "blockhash": "0000000000000000000dcc0f55137456b1a82d3642486a52398922ac4d620174", "vout": [{"scriptPubKey": {"reqSigs": 1, "hex": "76a914d98b5be4256e11baa53aaab1063223e42c801c0488ac", "addresses": ["1LqGaTVff9pqdoREhDx7n3mJjqdu4v5fQc"], "asm": "OP_DUP OP_HASH160 d98b5be4256e11baa53aaab1063223e42c801c04 OP_EQUALVERIFY OP_CHECKSIG", "type": "pubkeyhash"}, "value": 0.078, "n": 0}, {"scriptPubKey": {"reqSigs": 1, "hex": "76a91468b30834b030f0fb092ede4de6ef90ee66f8ede988ac", "addresses": ["1AYbkKJWUneXT5FntFtqSH96qyMBxMMPKE"], "asm": "OP_DUP OP_HASH160 68b30834b030f0fb092ede4de6ef90ee66f8ede9 OP_EQUALVERIFY OP_CHECKSIG", "type": "pubkeyhash"}, "value": 0.02445296, "n": 1}], "hex": "010000000335d8a062639e9ac89b79edd8ad53ca9e1ce5ba08a598f16c4b7ac71c6c4b019e060000006b483045022100e747a960f546be3eb4bd57e8f2549efebda2ad12a3b4fffc838e462a9d3ec7a402206697d8c874598f0f8bb0f8a1a3af261800bca17f874b222ee17f66675d3acd01012102d8aae51de893e538a70f02a9c64ee2d0d54d383552b266c487926284ceef413cffffffff1a9ec3d6530ad91532b920e3719ae7eb17f5a6e44ec2da42a7e7c054b14f529c010000006b483045022100a81f9b551e9deed3a7695281d33488ebf1286c2d1bfdbb269afb11c0fec873e2022029e48d016d7f4c6fbd07d8b9d88d2e2e3ae101b4dae69a65b2e6f01900eff940012102f85d846f74d21e8d917cdd9696a5ecf9349d083cde998fcc6ac6509ab93fc4b0ffffffff60a5fac8c9488ffe13889e07ff8f4121395a4382e6b0ca668c646b140ef32fb4000000006b483045022100ae94fb387ddbe2e0df2494144d5261173e1beb13fcfac02e0333dc9c9ae32eec02206af0694334c217393dcff3339d12c0feae0c99d8adee03fc2825e2efe3b69bc50121030aacf3ffff1bcf9cd041894b06237b0015ef8b2f7330210a0bb1352a8cfe6865ffffffff02c0047700000000001976a914d98b5be4256e11baa53aaab1063223e42c801c0488acf04f2500000000001976a91468b30834b030f0fb092ede4de6ef90ee66f8ede988ac00000000", "vin": [{"sequence": 4294967295, "scriptSig": {"hex": "483045022100e747a960f546be3eb4bd57e8f2549efebda2ad12a3b4fffc838e462a9d3ec7a402206697d8c874598f0f8bb0f8a1a3af261800bca17f874b222ee17f66675d3acd01012102d8aae51de893e538a70f02a9c64ee2d0d54d383552b266c487926284ceef413c", "asm": "3045022100e747a960f546be3eb4bd57e8f2549efebda2ad12a3b4fffc838e462a9d3ec7a402206697d8c874598f0f8bb0f8a1a3af261800bca17f874b222ee17f66675d3acd01[ALL] 02d8aae51de893e538a70f02a9c64ee2d0d54d383552b266c487926284ceef413c"}, "vout": 6, "txid": "9e014b6c1cc77a4b6cf198a508bae51c9eca53add8ed799bc89a9e6362a0d835"}, {"sequence": 4294967295, "scriptSig": {"hex": "483045022100a81f9b551e9deed3a7695281d33488ebf1286c2d1bfdbb269afb11c0fec873e2022029e48d016d7f4c6fbd07d8b9d88d2e2e3ae101b4dae69a65b2e6f01900eff940012102f85d846f74d21e8d917cdd9696a5ecf9349d083cde998fcc6ac6509ab93fc4b0", "asm": "3045022100a81f9b551e9deed3a7695281d33488ebf1286c2d1bfdbb269afb11c0fec873e2022029e48d016d7f4c6fbd07d8b9d88d2e2e3ae101b4dae69a65b2e6f01900eff940[ALL] 02f85d846f74d21e8d917cdd9696a5ecf9349d083cde998fcc6ac6509ab93fc4b0"}, "vout": 1, "txid": "9c524fb154c0e7a742dac24ee4a6f517ebe79a71e320b93215d90a53d6c39e1a"}, {"sequence": 4294967295, "scriptSig": {"hex": "483045022100ae94fb387ddbe2e0df2494144d5261173e1beb13fcfac02e0333dc9c9ae32eec02206af0694334c217393dcff3339d12c0feae0c99d8adee03fc2825e2efe3b69bc50121030aacf3ffff1bcf9cd041894b06237b0015ef8b2f7330210a0bb1352a8cfe6865", "asm": "3045022100ae94fb387ddbe2e0df2494144d5261173e1beb13fcfac02e0333dc9c9ae32eec02206af0694334c217393dcff3339d12c0feae0c99d8adee03fc2825e2efe3b69bc5[ALL] 030aacf3ffff1bcf9cd041894b06237b0015ef8b2f7330210a0bb1352a8cfe6865"}, "vout": 0, "txid": "b42ff30e146b648c66cab0e682435a3921418fff079e8813fe8f48c9c8faa560"}], "txid": "3cdb6c148cee8a29f32251184f20c1821594bf2243b6b83a616a8d8b7976614c", "blocktime": 1537870268, "version": 1, "confirmations": 11516, "time": 1537870268, "locktime": 0, "vsize": 522, "size": 522}