{"hash": "3cef4853fd7917db2e873ccdc309c0969a193ad3d53042e092ebfb3942b9340f", "blockhash": "0000000000000000000e13cef7c366c0283d82e591d1acd082e914b08063cdf1", "vout": [{"scriptPubKey": {"type": "nulldata", "hex": "6a146f6d6e69000000000000001f0000000218711a00", "asm": "OP_RETURN 6f6d6e69000000000000001f0000000218711a00"}, "value": 0.0, "n": 0}, {"scriptPubKey": {"reqSigs": 1, "hex": "76a914527d48e0da1e49260d0046c820a05166e086517a88ac", "addresses": ["18XAVfR6gUdkS2TgswuyGWMty6mkr8TVW4"], "asm": "OP_DUP OP_HASH160 527d48e0da1e49260d0046c820a05166e086517a OP_EQUALVERIFY OP_CHECKSIG", "type": "pubkeyhash"}, "value": 5.46e-06, "n": 1}, {"scriptPubKey": {"reqSigs": 1, "hex": "76a91458f32143a95cd11ee5f37e5d1dff6f9fbafa660b88ac", "addresses": ["197Kir2psnjrTFwx8R9cUnmVCUFeUgCNxS"], "asm": "OP_DUP OP_HASH160 58f32143a95cd11ee5f37e5d1dff6f9fbafa660b OP_EQUALVERIFY OP_CHECKSIG", "type": "pubkeyhash"}, "value": 0.91699922, "n": 2}], "hex": "01000000019ead03c5503b7d013c32fd887b64f8f4175012137ab9ff190c2329b8f5f7bdd9000000006a47304402200603c1141a6b57dfedc59e8d9f5483b642ff0e364953e15b743e51ebdce6eb840220178766df36777666bf85e51d6086903244a022a673b56c823c77d2ee4eec64b701210251e12972b557d5dbac73bfd2470adeac64ac46202389f0ef2db7231f645a0aeafeffffff030000000000000000166a146f6d6e69000000000000001f0000000218711a0022020000000000001976a914527d48e0da1e49260d0046c820a05166e086517a88acd23a7705000000001976a91458f32143a95cd11ee5f37e5d1dff6f9fbafa660b88ac10490800", "vin": [{"sequence": 4294967294, "scriptSig": {"hex": "47304402200603c1141a6b57dfedc59e8d9f5483b642ff0e364953e15b743e51ebdce6eb840220178766df36777666bf85e51d6086903244a022a673b56c823c77d2ee4eec64b701210251e12972b557d5dbac73bfd2470adeac64ac46202389f0ef2db7231f645a0aea", "asm": "304402200603c1141a6b57dfedc59e8d9f5483b642ff0e364953e15b743e51ebdce6eb840220178766df36777666bf85e51d6086903244a022a673b56c823c77d2ee4eec64b7[ALL] 0251e12972b557d5dbac73bfd2470adeac64ac46202389f0ef2db7231f645a0aea"}, "vout": 0, "txid": "d9bdf7f5b829230c19ffb97a13125017f4f8647b88fd323c017d3b50c503ad9e"}], "txid": "3cef4853fd7917db2e873ccdc309c0969a193ad3d53042e092ebfb3942b9340f", "blocktime": 1537871767, "version": 1, "confirmations": 11493, "time": 1537871767, "locktime": 542992, "vsize": 256, "size": 256}