{"hash": "3cf456203fc3303c9159072cf7bdaf790e8bfce5562bcb54a901db1a507ceb82", "blockhash": "0000000000000000001f76057863aec43deb6fa401d9628bb513d65a8098bfab", "vout": [{"scriptPubKey": {"reqSigs": 1, "hex": "76a9141f644e8d374855739817d8793666afa523cb827888ac", "addresses": ["13rz7PXLLy9jkkfTpMSLq1KbdFQChzdPzz"], "asm": "OP_DUP OP_HASH160 1f644e8d374855739817d8793666afa523cb8278 OP_EQUALVERIFY OP_CHECKSIG", "type": "pubkeyhash"}, "value": 0.00775271, "n": 0}], "hex": "01000000019e944111467d066b6990a55f9e49252d18eb3ce2494d79784d61196ca7334115000000008b483045022100d149e264caba7c190f62c55226a60fcdc88b2dc6088605b9e4b1726511c87bb502204a1097ab134374e6c9deb47c49ab7dd19caea246ccde48650cd1b759fcd6735701410414fad8bb65e0c2af5aa45077435c6629bbfd46e104153d205d569e2f4fdac7f291ec0c3978a9703722271915df7b6eee3eb3282c50a16c2410d00be043d3f5a1ffffffff0167d40b00000000001976a9141f644e8d374855739817d8793666afa523cb827888ac00000000", "vin": [{"sequence": 4294967295, "scriptSig": {"hex": "483045022100d149e264caba7c190f62c55226a60fcdc88b2dc6088605b9e4b1726511c87bb502204a1097ab134374e6c9deb47c49ab7dd19caea246ccde48650cd1b759fcd6735701410414fad8bb65e0c2af5aa45077435c6629bbfd46e104153d205d569e2f4fdac7f291ec0c3978a9703722271915df7b6eee3eb3282c50a16c2410d00be043d3f5a1", "asm": "3045022100d149e264caba7c190f62c55226a60fcdc88b2dc6088605b9e4b1726511c87bb502204a1097ab134374e6c9deb47c49ab7dd19caea246ccde48650cd1b759fcd67357[ALL] 0414fad8bb65e0c2af5aa45077435c6629bbfd46e104153d205d569e2f4fdac7f291ec0c3978a9703722271915df7b6eee3eb3282c50a16c2410d00be043d3f5a1"}, "vout": 0, "txid": "154133a76c19614d78794d49e23ceb182d25499e5fa590696b067d461141949e"}], "txid": "3cf456203fc3303c9159072cf7bdaf790e8bfce5562bcb54a901db1a507ceb82", "blocktime": 1537873891, "version": 1, "confirmations": 11475, "time": 1537873891, "locktime": 0, "vsize": 224, "size": 224}