{"hash": "3cf763710e0bea5a520f2a46a8c7ddafe7d9265196dd5a3fded97679c8ebc98f", "blockhash": "0000000000000000001f0ddff1eddb255c1121bcd4da4f1bc9a0da00cae72433", "vout": [{"scriptPubKey": {"reqSigs": 1, "hex": "76a9142ee034271cd4e73d6928dd400cbf5ca4ab125c5688ac", "addresses": ["15Grfmme6y8dXgrH5NDD5WYqupu1zvAyr9"], "asm": "OP_DUP OP_HASH160 2ee034271cd4e73d6928dd400cbf5ca4ab125c56 OP_EQUALVERIFY OP_CHECKSIG", "type": "pubkeyhash"}, "value": 0.00772061, "n": 0}, {"scriptPubKey": {"reqSigs": 1, "hex": "76a914dde3113c8a40496d8b7bf7eed38ffa3557dfe61088ac", "addresses": ["1MEEMJw9gajGGDKsLN9d3VPN5eFQpsBJXk"], "asm": "OP_DUP OP_HASH160 dde3113c8a40496d8b7bf7eed38ffa3557dfe610 OP_EQUALVERIFY OP_CHECKSIG", "type": "pubkeyhash"}, "value": 4.52626494, "n": 1}], "hex": "0100000001ac457c321944df8a9a91d5294aa0b75f0c225517a689024902ff28f706e5417a000000006b4830450221008a842e1b54a1835cc2ad7dcb037232b1e176d630f1533d0d691b65403adf4a9002200efff3678c7a4cbf11f83416c9d21d1e323a0c7cbe0926a5e6c1403c360bf8fe012103fc22f1b5e0ce3af19faf281c80d85cc231a375bf5fc9a9fdb1300ab71497c0aaffffffff02ddc70b00000000001976a9142ee034271cd4e73d6928dd400cbf5ca4ab125c5688ac3e88fa1a000000001976a914dde3113c8a40496d8b7bf7eed38ffa3557dfe61088ac00000000", "vin": [{"sequence": 4294967295, "scriptSig": {"hex": "4830450221008a842e1b54a1835cc2ad7dcb037232b1e176d630f1533d0d691b65403adf4a9002200efff3678c7a4cbf11f83416c9d21d1e323a0c7cbe0926a5e6c1403c360bf8fe012103fc22f1b5e0ce3af19faf281c80d85cc231a375bf5fc9a9fdb1300ab71497c0aa", "asm": "30450221008a842e1b54a1835cc2ad7dcb037232b1e176d630f1533d0d691b65403adf4a9002200efff3678c7a4cbf11f83416c9d21d1e323a0c7cbe0926a5e6c1403c360bf8fe[ALL] 03fc22f1b5e0ce3af19faf281c80d85cc231a375bf5fc9a9fdb1300ab71497c0aa"}, "vout": 0, "txid": "7a41e506f728ff02490289a61755220c5fb7a04a29d5919a8adf4419327c45ac"}], "txid": "3cf763710e0bea5a520f2a46a8c7ddafe7d9265196dd5a3fded97679c8ebc98f", "blocktime": 1537872018, "version": 1, "confirmations": 11489, "time": 1537872018, "locktime": 0, "vsize": 226, "size": 226}