{"hash": "3cf96fc097e7061f46100df4c1fd72e6fcfba6ee584a2ae5fc8007b52c13f929", "blockhash": "000000000000000000022b45ed06c6f4ccd3cf7fb5ba4856ebd2e58215665228", "vout": [{"scriptPubKey": {"type": "nulldata", "hex": "6a146f6d6e69000000000000001f0000574fbde60000", "asm": "OP_RETURN 6f6d6e69000000000000001f0000574fbde60000"}, "value": 0.0, "n": 0}, {"scriptPubKey": {"reqSigs": 1, "hex": "76a914a25dec4d0011064ef106a983c39c7a540699f22088ac", "addresses": ["1FoWyxwPXuj4C6abqwhjDWdz6D4PZgYRjA"], "asm": "OP_DUP OP_HASH160 a25dec4d0011064ef106a983c39c7a540699f220 OP_EQUALVERIFY OP_CHECKSIG", "type": "pubkeyhash"}, "value": 5.46e-06, "n": 1}, {"scriptPubKey": {"reqSigs": 1, "hex": "76a9146e60ba513b7ee0fdef8fe72e792a30562375dfc888ac", "addresses": ["1B4dCsH6MC9XoZ6ob2nngvJesYEfNNtMQS"], "asm": "OP_DUP OP_HASH160 6e60ba513b7ee0fdef8fe72e792a30562375dfc8 OP_EQUALVERIFY OP_CHECKSIG", "type": "pubkeyhash"}, "value": 0.00358954, "n": 2}], "hex": "0100000001470cf4c3bcd07a32a3bafbe8d1376c90147cddd876134f4c4f201685065b4571020000006b483045022100b25a858c4a3f0713ee29284460f553bdf8587c93fb138817afb29f246097f46b02204febe7aef92c67ba35a1b538fe9336aab4ee4710a9362f48a2625cc1c6678e27012103d3fd3652ca10a5d03b78c618d410fa7d86b6f47eecffdfa89d993a221f7d5541feffffff030000000000000000166a146f6d6e69000000000000001f0000574fbde6000022020000000000001976a914a25dec4d0011064ef106a983c39c7a540699f22088ac2a7a0500000000001976a9146e60ba513b7ee0fdef8fe72e792a30562375dfc888ac0b490800", "vin": [{"sequence": 4294967294, "scriptSig": {"hex": "483045022100b25a858c4a3f0713ee29284460f553bdf8587c93fb138817afb29f246097f46b02204febe7aef92c67ba35a1b538fe9336aab4ee4710a9362f48a2625cc1c6678e27012103d3fd3652ca10a5d03b78c618d410fa7d86b6f47eecffdfa89d993a221f7d5541", "asm": "3045022100b25a858c4a3f0713ee29284460f553bdf8587c93fb138817afb29f246097f46b02204febe7aef92c67ba35a1b538fe9336aab4ee4710a9362f48a2625cc1c6678e27[ALL] 03d3fd3652ca10a5d03b78c618d410fa7d86b6f47eecffdfa89d993a221f7d5541"}, "vout": 2, "txid": "71455b068516204f4c4f1376d8dd7c14906c37d1e8fbbaa3327ad0bcc3f40c47"}], "txid": "3cf96fc097e7061f46100df4c1fd72e6fcfba6ee584a2ae5fc8007b52c13f929", "blocktime": 1537869901, "version": 1, "confirmations": 11524, "time": 1537869901, "locktime": 542987, "vsize": 257, "size": 257}