{"hash": "3cfb280c29f8d1cb7b37912003031af9bff4a7b354a1253a397b7173abe6f26d", "blockhash": "0000000000000000000e13cef7c366c0283d82e591d1acd082e914b08063cdf1", "vout": [{"scriptPubKey": {"reqSigs": 1, "hex": "a914a07944292108d88d60b7a3629d69dae51509968f87", "addresses": ["3GKXJxqgNr4icjGbWifd4D1iK233unB4Sn"], "asm": "OP_HASH160 a07944292108d88d60b7a3629d69dae51509968f OP_EQUAL", "type": "scripthash"}, "value": 0.0009, "n": 0}, {"scriptPubKey": {"reqSigs": 1, "hex": "76a9149c8c3aa742473d7349983ee1066e7b225547642688ac", "addresses": ["1FGkQDV5gNqFHcNJQtFKdztQMYA1sz12Wv"], "asm": "OP_DUP OP_HASH160 9c8c3aa742473d7349983ee1066e7b2255476426 OP_EQUALVERIFY OP_CHECKSIG", "type": "pubkeyhash"}, "value": 0.00546085, "n": 1}], "hex": "0200000001d121c4a334ee0ca62fd4fac7e97584392043e325896bf0c248ac0faf7193deec010000006b483045022100b0f9d13931c1fd702254fe41d9a57524b2e103e9c8201dffad98aba1c8419b6102206174ff5c76ef32f1c607f24cd71e9b095810b6a74241cff376798db2b0590b77012103498fa49c202a024c25368995052d0c5eac24467c995d546950fa691e0359d0fdffffffff02905f01000000000017a914a07944292108d88d60b7a3629d69dae51509968f8725550800000000001976a9149c8c3aa742473d7349983ee1066e7b225547642688ac00000000", "vin": [{"sequence": 4294967295, "scriptSig": {"hex": "483045022100b0f9d13931c1fd702254fe41d9a57524b2e103e9c8201dffad98aba1c8419b6102206174ff5c76ef32f1c607f24cd71e9b095810b6a74241cff376798db2b0590b77012103498fa49c202a024c25368995052d0c5eac24467c995d546950fa691e0359d0fd", "asm": "3045022100b0f9d13931c1fd702254fe41d9a57524b2e103e9c8201dffad98aba1c8419b6102206174ff5c76ef32f1c607f24cd71e9b095810b6a74241cff376798db2b0590b77[ALL] 03498fa49c202a024c25368995052d0c5eac24467c995d546950fa691e0359d0fd"}, "vout": 1, "txid": "ecde9371af0fac48c2f06b8925e34320398475e9c7fad42fa60cee34a3c421d1"}], "txid": "3cfb280c29f8d1cb7b37912003031af9bff4a7b354a1253a397b7173abe6f26d", "blocktime": 1537871767, "version": 2, "confirmations": 11493, "time": 1537871767, "locktime": 0, "vsize": 224, "size": 224}