{"hash": "3cfe3069bcea6b680139626eb77ab4c15599977491d4475f89a02064503346ef", "blockhash": "00000000000000000004ffacab907a6b429b9a5745fa0b75af4234bf69dd7176", "vout": [{"scriptPubKey": {"reqSigs": 1, "hex": "76a914eaa1f72c3579636670b8ea2fa99570cbb38d156988ac", "addresses": ["1NPd9T6CBxUjmMU48nB2yJoFa1m9FTHmPM"], "asm": "OP_DUP OP_HASH160 eaa1f72c3579636670b8ea2fa99570cbb38d1569 OP_EQUALVERIFY OP_CHECKSIG", "type": "pubkeyhash"}, "value": 0.00712115, "n": 0}], "hex": "0100000002ed451a8b56ad6191c7cdc8030d5da7230b5657aca013f95415ad109fea9d23a8480000006b483045022100ca265a1f16f88832b9988e83024d9d20156e64f87e652de171dd043e6a512233022008f7c458a2e52790e7ad3cada4a2d30ac727251cb69d5170c4522fce9b38e532012103bdd8149d912efaf76e0a7f9817d9578533c9c3e9ea07e9110fb5a0323e1a5e91fffffffff834d67b1a24ff38a4eff791683e3387d61f649f2c52313679651825b23627bc3d0000006b483045022100a985c4e5f0f0b47e70b4027298294f6bceaf8470044129ca7a30a45d5df232fa02200ecfa690c9cef3a52a96da174ed6417e1065a086d8735e51586b902b41da8eb9012103bdd8149d912efaf76e0a7f9817d9578533c9c3e9ea07e9110fb5a0323e1a5e91ffffffff01b3dd0a00000000001976a914eaa1f72c3579636670b8ea2fa99570cbb38d156988ac00000000", "vin": [{"sequence": 4294967295, "scriptSig": {"hex": "483045022100ca265a1f16f88832b9988e83024d9d20156e64f87e652de171dd043e6a512233022008f7c458a2e52790e7ad3cada4a2d30ac727251cb69d5170c4522fce9b38e532012103bdd8149d912efaf76e0a7f9817d9578533c9c3e9ea07e9110fb5a0323e1a5e91", "asm": "3045022100ca265a1f16f88832b9988e83024d9d20156e64f87e652de171dd043e6a512233022008f7c458a2e52790e7ad3cada4a2d30ac727251cb69d5170c4522fce9b38e532[ALL] 03bdd8149d912efaf76e0a7f9817d9578533c9c3e9ea07e9110fb5a0323e1a5e91"}, "vout": 72, "txid": "a8239dea9f10ad1554f913a0ac57560b23a75d0d03c8cdc79161ad568b1a45ed"}, {"sequence": 4294967295, "scriptSig": {"hex": "483045022100a985c4e5f0f0b47e70b4027298294f6bceaf8470044129ca7a30a45d5df232fa02200ecfa690c9cef3a52a96da174ed6417e1065a086d8735e51586b902b41da8eb9012103bdd8149d912efaf76e0a7f9817d9578533c9c3e9ea07e9110fb5a0323e1a5e91", "asm": "3045022100a985c4e5f0f0b47e70b4027298294f6bceaf8470044129ca7a30a45d5df232fa02200ecfa690c9cef3a52a96da174ed6417e1065a086d8735e51586b902b41da8eb9[ALL] 03bdd8149d912efaf76e0a7f9817d9578533c9c3e9ea07e9110fb5a0323e1a5e91"}, "vout": 61, "txid": "bc2736b2251865793631522c9f641fd687333e6891f7efa438ff241a7bd634f8"}], "txid": "3cfe3069bcea6b680139626eb77ab4c15599977491d4475f89a02064503346ef", "blocktime": 1537875543, "version": 1, "confirmations": 11464, "time": 1537875543, "locktime": 0, "vsize": 340, "size": 340}