{"hash": "3d031609148ebf02f67c5ab3af417a9c29fefb4463632c9ab5f212aaaa850ffe", "blockhash": "00000000000000000018f53835495a110e01622372bf6ae95dc86f2b0ab887b0", "vout": [{"scriptPubKey": {"reqSigs": 1, "hex": "a9140156373f85af6b1a259a1898de51ba5773e115b187", "addresses": ["31p5t7e6PqFnPgQELiCSztwZzBGGmRhP2u"], "asm": "OP_HASH160 0156373f85af6b1a259a1898de51ba5773e115b1 OP_EQUAL", "type": "scripthash"}, "value": 0.01276123, "n": 0}], "hex": "01000000011a13aacdc62c51090ce2bfe5967351d1f130fc651bfa8749a1e3bced74f29b27000000006b483045022100946d33038ba7b1eaa79f80285ef2294fdb0d3236fcd90748309617e98b5f4f660220697e2a67046d38461a27bb3b8c8320e10ac04d9d18a9461052fb1d47c68d0f7d01210239111b41a39855c6665555f0660b3dbc4da0bee914de318eaaac1969ca1e1b61fdffffff01db7813000000000017a9140156373f85af6b1a259a1898de51ba5773e115b1870e490800", "vin": [{"sequence": 4294967293, "scriptSig": {"hex": "483045022100946d33038ba7b1eaa79f80285ef2294fdb0d3236fcd90748309617e98b5f4f660220697e2a67046d38461a27bb3b8c8320e10ac04d9d18a9461052fb1d47c68d0f7d01210239111b41a39855c6665555f0660b3dbc4da0bee914de318eaaac1969ca1e1b61", "asm": "3045022100946d33038ba7b1eaa79f80285ef2294fdb0d3236fcd90748309617e98b5f4f660220697e2a67046d38461a27bb3b8c8320e10ac04d9d18a9461052fb1d47c68d0f7d[ALL] 0239111b41a39855c6665555f0660b3dbc4da0bee914de318eaaac1969ca1e1b61"}, "vout": 0, "txid": "279bf274edbce3a14987fa1b65fc30f1d1517396e5bfe20c09512cc6cdaa131a"}], "txid": "3d031609148ebf02f67c5ab3af417a9c29fefb4463632c9ab5f212aaaa850ffe", "blocktime": 1537870928, "version": 1, "confirmations": 11512, "time": 1537870928, "locktime": 542990, "vsize": 190, "size": 190}