{"hash": "ae9b0fce640cc7afa10eb7ae1eb9261a8a80160ff6ec74d7b8a620d502842479", "blockhash": "00000000000000000017f5eb5941039fbcee6240d03bc1f2f8e35350df66a1d8", "vout": [{"scriptPubKey": {"reqSigs": 1, "hex": "a91475e102120877d16cc4e2c22fa4fdc395aa83fef987", "addresses": ["3CSJXpjvye7EGZHDkP3ZpGUgnk35JJj67w"], "asm": "OP_HASH160 75e102120877d16cc4e2c22fa4fdc395aa83fef9 OP_EQUAL", "type": "scripthash"}, "value": 0.015, "n": 0}, {"scriptPubKey": {"reqSigs": 1, "hex": "00145cb045279a2d0311df6bcfe4358fc226496decba", "addresses": ["bc1qtjcy2fu695p3rhmteljrtr7zyeykmm96ltd628"], "asm": "0 5cb045279a2d0311df6bcfe4358fc226496decba", "type": "witness_v0_keyhash"}, "value": 0.38498351, "n": 1}], "hex": "01000000000101f126112a003438c819174ab0b6d705dc0bcad27d0d52c3b2adc633332ab1863000000000171600148322b6325b2c318faf244fa9496991be3f622f87ffffffff0260e316000000000017a91475e102120877d16cc4e2c22fa4fdc395aa83fef9872f704b02000000001600145cb045279a2d0311df6bcfe4358fc226496decba02483045022100ee41c9a940594ae060aa6680a94bb32ec2f0532e56e82bfd1a2f5371fe94c6b20220317917f162a37ca2e5fc0e19a80664ae426f569bb815e563b3ba6f253a4624fb0121029fbbc5583063d87d47f2b9f5e32d2d345e715eced06dd4186676c966ec5bb46a00000000", "vin": [{"txinwitness": ["3045022100ee41c9a940594ae060aa6680a94bb32ec2f0532e56e82bfd1a2f5371fe94c6b20220317917f162a37ca2e5fc0e19a80664ae426f569bb815e563b3ba6f253a4624fb01", "029fbbc5583063d87d47f2b9f5e32d2d345e715eced06dd4186676c966ec5bb46a"], "sequence": 4294967295, "scriptSig": {"hex": "1600148322b6325b2c318faf244fa9496991be3f622f87", "asm": "00148322b6325b2c318faf244fa9496991be3f622f87"}, "vout": 0, "txid": "3086b12a3333c6adb2c3520d7dd2ca0bdc05d7b6b04a1719c83834002a1126f1"}], "txid": "3d0615e815b0f2b4fd0459b97e3180cf9482abc5148e4f3390aa275755a89580", "blocktime": 1537874412, "version": 1, "confirmations": 11468, "time": 1537874412, "locktime": 0, "vsize": 165, "size": 247}