{"hash": "3d0e3efa0b01d498f07e775c92ad6bf53e9dfa56042e3a15554998fc004aebe5", "blockhash": "0000000000000000000e13cef7c366c0283d82e591d1acd082e914b08063cdf1", "vout": [{"scriptPubKey": {"reqSigs": 1, "hex": "a9145508ae79e74e4e651754b3b4076854c6a1cf0fbd87", "addresses": ["39Sdm45Non3UQXJoLGJRZdMUH1sbqWL247"], "asm": "OP_HASH160 5508ae79e74e4e651754b3b4076854c6a1cf0fbd OP_EQUAL", "type": "scripthash"}, "value": 0.05460519, "n": 0}, {"scriptPubKey": {"reqSigs": 1, "hex": "76a9147e6e36a5caa9b7d71e11831003a202005a399ea088ac", "addresses": ["1CXWAwKgnBUZXVgsD3iSy3qjMGgHwfTQCg"], "asm": "OP_DUP OP_HASH160 7e6e36a5caa9b7d71e11831003a202005a399ea0 OP_EQUALVERIFY OP_CHECKSIG", "type": "pubkeyhash"}, "value": 0.00595771, "n": 1}], "hex": "0100000001fc8f0caaa756fd0da2e74e19df9eb916a39e5453bddcb0e4fb498eb86491175800000000d90047304402205443bca8440167ed915e9067684deab195052ef2e49ca26d281fbb7e41f806e502201d8392971361acb7c7a2f7e0beeab1287d528f8a4c11290d508f8edbf8e05f6a0147304402203d7f9ab33b5154e7e6931549f70be45e2c056f34523f5e4ed015199e7bdd3fa40220286a18f12d3e0e346e89a3cac591e8b5c4b49ca79927b252d0c179f0300723d00147522102907a54bed8ad74b3f35638c60114ca240a308cb986f3f2f306178869a8880b61210291011391f971d3884aa9874d25fee69dc70e77343172af429c23f8eb603c563752aeffffffff02275253000000000017a9145508ae79e74e4e651754b3b4076854c6a1cf0fbd873b170900000000001976a9147e6e36a5caa9b7d71e11831003a202005a399ea088ac00000000", "vin": [{"sequence": 4294967295, "scriptSig": {"hex": "0047304402205443bca8440167ed915e9067684deab195052ef2e49ca26d281fbb7e41f806e502201d8392971361acb7c7a2f7e0beeab1287d528f8a4c11290d508f8edbf8e05f6a0147304402203d7f9ab33b5154e7e6931549f70be45e2c056f34523f5e4ed015199e7bdd3fa40220286a18f12d3e0e346e89a3cac591e8b5c4b49ca79927b252d0c179f0300723d00147522102907a54bed8ad74b3f35638c60114ca240a308cb986f3f2f306178869a8880b61210291011391f971d3884aa9874d25fee69dc70e77343172af429c23f8eb603c563752ae", "asm": "0 304402205443bca8440167ed915e9067684deab195052ef2e49ca26d281fbb7e41f806e502201d8392971361acb7c7a2f7e0beeab1287d528f8a4c11290d508f8edbf8e05f6a[ALL] 304402203d7f9ab33b5154e7e6931549f70be45e2c056f34523f5e4ed015199e7bdd3fa40220286a18f12d3e0e346e89a3cac591e8b5c4b49ca79927b252d0c179f0300723d0[ALL] 522102907a54bed8ad74b3f35638c60114ca240a308cb986f3f2f306178869a8880b61210291011391f971d3884aa9874d25fee69dc70e77343172af429c23f8eb603c563752ae"}, "vout": 0, "txid": "58179164b88e49fbe4b0dcbd53549ea316b99edf194ee7a20dfd56a7aa0c8ffc"}], "txid": "3d0e3efa0b01d498f07e775c92ad6bf53e9dfa56042e3a15554998fc004aebe5", "blocktime": 1537871767, "version": 1, "confirmations": 11495, "time": 1537871767, "locktime": 0, "vsize": 334, "size": 334}