{"hash": "27b7294793ab59404ee381aca3aee4766e37810d828f8c2fc6ad45fb73f79f4c", "blockhash": "0000000000000000001e0dab787dd257d1dbfcb92a98c2207d5e1078be1f4165", "vout": [{"scriptPubKey": {"reqSigs": 1, "hex": "a91469f375dfea34f65b5498d7bebf6e8e6fa8e0006287", "addresses": ["3BMEXcbBSdXf4d4pR9pvTyJ9JQy16Kaoez"], "asm": "OP_HASH160 69f375dfea34f65b5498d7bebf6e8e6fa8e00062 OP_EQUAL", "type": "scripthash"}, "value": 0.011491, "n": 0}, {"scriptPubKey": {"reqSigs": 1, "hex": "a914be21abab298fb7c2d3e104ed471449af44af636987", "addresses": ["3K2LeTtm647qQZufkYY7UcJpPiAKrM2NYf"], "asm": "OP_HASH160 be21abab298fb7c2d3e104ed471449af44af6369 OP_EQUAL", "type": "scripthash"}, "value": 0.00077072, "n": 1}], "hex": "020000000001015c522e852d96bdc9c303b94b9c07817df3a1874a24636fc07f24fda92f7c36f600000000171600149b06af31078acbc4bff542dc30ba361e8e746cbbffffffff02ac8811000000000017a91469f375dfea34f65b5498d7bebf6e8e6fa8e0006287102d01000000000017a914be21abab298fb7c2d3e104ed471449af44af6369870248304502210089b5902687051b12470154b726a9cd1602abfe77630f91747f950afe0d0f5c7502207c2e20073710cbd67bb43acb4f9f3f727598c3c684d5ab753c21ff80a20310fa012102b76cc943bbf1b085dcbd12d57b5d250f1008e20983012f00099186cd6929177600000000", "vin": [{"txinwitness": ["304502210089b5902687051b12470154b726a9cd1602abfe77630f91747f950afe0d0f5c7502207c2e20073710cbd67bb43acb4f9f3f727598c3c684d5ab753c21ff80a20310fa01", "02b76cc943bbf1b085dcbd12d57b5d250f1008e20983012f00099186cd69291776"], "sequence": 4294967295, "scriptSig": {"hex": "1600149b06af31078acbc4bff542dc30ba361e8e746cbb", "asm": "00149b06af31078acbc4bff542dc30ba361e8e746cbb"}, "vout": 0, "txid": "f6367c2fa9fd247fc06f63244a87a1f37d81079c4bb903c3c9bd962d852e525c"}], "txid": "3d0f19dc38cab1cfc71a7136d0744233f7757eabac4282dd64832df1014244e5", "blocktime": 1537872475, "version": 2, "confirmations": 11486, "time": 1537872475, "locktime": 0, "vsize": 166, "size": 248}