{"hash": "3d11e92562d94fcc6702ce9830a5869653c5aaafc12236e89f3e0a9263af350b", "blockhash": "0000000000000000001f76057863aec43deb6fa401d9628bb513d65a8098bfab", "vout": [{"scriptPubKey": {"reqSigs": 1, "hex": "a914169e83bebfac05d2d2cc8eed8450e6a4dbae686d87", "addresses": ["33kcgZ4QoTTiuEnBY1MYvWwfBt58k4ZuzM"], "asm": "OP_HASH160 169e83bebfac05d2d2cc8eed8450e6a4dbae686d OP_EQUAL", "type": "scripthash"}, "value": 0.00234135, "n": 0}, {"scriptPubKey": {"reqSigs": 1, "hex": "76a9142663bab58aa559c18bfb6c26593c43b9631b5b7d88ac", "addresses": ["14Vz9c6SKhoR2vwZjmWRQYS1JXF9tGLU9K"], "asm": "OP_DUP OP_HASH160 2663bab58aa559c18bfb6c26593c43b9631b5b7d OP_EQUALVERIFY OP_CHECKSIG", "type": "pubkeyhash"}, "value": 0.00740101, "n": 1}], "hex": "0100000001ab4aad27d878eaa8d7008e45f6b068b067080b23188893e5fa17ffbabab044d6010000006a47304402207672a550c766beb2f1264549a6c3a6460acc975a74e6a42a660dec89eac9f7c1022038643b72d81aa10cbf0d22d609230c912d835550dc816e6c7a860458c8ea1d33012103c589d9e1251a2eaa70a336a4ead02c8239f6146924fabb1371399ed7307e267bffffffff02979203000000000017a914169e83bebfac05d2d2cc8eed8450e6a4dbae686d87054b0b00000000001976a9142663bab58aa559c18bfb6c26593c43b9631b5b7d88ac00000000", "vin": [{"sequence": 4294967295, "scriptSig": {"hex": "47304402207672a550c766beb2f1264549a6c3a6460acc975a74e6a42a660dec89eac9f7c1022038643b72d81aa10cbf0d22d609230c912d835550dc816e6c7a860458c8ea1d33012103c589d9e1251a2eaa70a336a4ead02c8239f6146924fabb1371399ed7307e267b", "asm": "304402207672a550c766beb2f1264549a6c3a6460acc975a74e6a42a660dec89eac9f7c1022038643b72d81aa10cbf0d22d609230c912d835550dc816e6c7a860458c8ea1d33[ALL] 03c589d9e1251a2eaa70a336a4ead02c8239f6146924fabb1371399ed7307e267b"}, "vout": 1, "txid": "d644b0babaff17fae5938818230b0867b068b0f6458e00d7a8ea78d827ad4aab"}], "txid": "3d11e92562d94fcc6702ce9830a5869653c5aaafc12236e89f3e0a9263af350b", "blocktime": 1537873891, "version": 1, "confirmations": 11478, "time": 1537873891, "locktime": 0, "vsize": 223, "size": 223}