{"hash": "e971e3de601c77bfe07ab5ac8dcb59c6b065b923f851718a8dfacc52bd649623", "blockhash": "0000000000000000000e13cef7c366c0283d82e591d1acd082e914b08063cdf1", "vout": [{"scriptPubKey": {"reqSigs": 1, "hex": "002058c8797f181e000075cb9a18a9662013b795012e86acc04d56a2d229e7b8d7c4", "addresses": ["bc1qtry8jlccrcqqqawtngv2je3qzwme2qfws6kvqn2k5tfzneac6lzqpgummp"], "asm": "0 58c8797f181e000075cb9a18a9662013b795012e86acc04d56a2d229e7b8d7c4", "type": "witness_v0_scripthash"}, "value": 0.00149574, "n": 0}], "hex": "0100000000010161a38a8b827d2d2516c42d6e9496676cb724d1212f6b47e73c40cb631f59d6ca0000000017160014c2ca20b23e29569c5c83c586d57896061d85d7c2ffffffff01464802000000000022002058c8797f181e000075cb9a18a9662013b795012e86acc04d56a2d229e7b8d7c40247304402205a445def4fdf10c53706a748521a064def172d945847430fca244ef86c40a55402204985dba8ef1715e487583d5a4778e51617d2acdfd68812a5941ddabda7a070e6012103d398987c7facab62958cfb33fec84aefaa0cc963c59d6ba1900cb40d3ca427c800000000", "vin": [{"txinwitness": ["304402205a445def4fdf10c53706a748521a064def172d945847430fca244ef86c40a55402204985dba8ef1715e487583d5a4778e51617d2acdfd68812a5941ddabda7a070e601", "03d398987c7facab62958cfb33fec84aefaa0cc963c59d6ba1900cb40d3ca427c8"], "sequence": 4294967295, "scriptSig": {"hex": "160014c2ca20b23e29569c5c83c586d57896061d85d7c2", "asm": "0014c2ca20b23e29569c5c83c586d57896061d85d7c2"}, "vout": 0, "txid": "cad6591f63cb403ce7476b2f21d124b76c6796946e2dc416252d7d828b8aa361"}], "txid": "3d1261389cb4ec353a4aa895f2a4a6c39e32a4ae1badb973409c64edaf49abeb", "blocktime": 1537871767, "version": 1, "confirmations": 11495, "time": 1537871767, "locktime": 0, "vsize": 145, "size": 226}