{"hash": "3d20333ffd17b50e3a4a8df584acc2e594d2856d3c1cc7d98256385182cf454a", "blockhash": "000000000000000000022b45ed06c6f4ccd3cf7fb5ba4856ebd2e58215665228", "vout": [{"scriptPubKey": {"reqSigs": 1, "hex": "a914fb04a08d4a42bf4547c330625393a4dd162e51e387", "addresses": ["3QaH5CBawHybH4tk4qdzzW7NgLURbykC3w"], "asm": "OP_HASH160 fb04a08d4a42bf4547c330625393a4dd162e51e3 OP_EQUAL", "type": "scripthash"}, "value": 0.00368999, "n": 0}], "hex": "0100000001ef9b4ac102aa28ccd7dc0577c514b51e24bb2ae86e8edc9f2fa3d073da1c4a660a0000006a47304402206bbe5e99794937d4850eb8ddd2c706148fb84ad01775db3a54ad623c7c5911e50220786ead015fad014bb717fff0429a1e789fb828e218d7692c9c847bc8d372a6d9012102e0a390f9b19c225c71a23d8989b7ef343df607d11579482bcac5910b4f42c3a4ffffffff0167a105000000000017a914fb04a08d4a42bf4547c330625393a4dd162e51e38700000000", "vin": [{"sequence": 4294967295, "scriptSig": {"hex": "47304402206bbe5e99794937d4850eb8ddd2c706148fb84ad01775db3a54ad623c7c5911e50220786ead015fad014bb717fff0429a1e789fb828e218d7692c9c847bc8d372a6d9012102e0a390f9b19c225c71a23d8989b7ef343df607d11579482bcac5910b4f42c3a4", "asm": "304402206bbe5e99794937d4850eb8ddd2c706148fb84ad01775db3a54ad623c7c5911e50220786ead015fad014bb717fff0429a1e789fb828e218d7692c9c847bc8d372a6d9[ALL] 02e0a390f9b19c225c71a23d8989b7ef343df607d11579482bcac5910b4f42c3a4"}, "vout": 10, "txid": "664a1cda73d0a32f9fdc8e6ee82abb241eb514c57705dcd7cc28aa02c14a9bef"}], "txid": "3d20333ffd17b50e3a4a8df584acc2e594d2856d3c1cc7d98256385182cf454a", "blocktime": 1537869901, "version": 1, "confirmations": 11523, "time": 1537869901, "locktime": 0, "vsize": 189, "size": 189}