{"hash": "3d23c3e606874c129b2f68a4ebf72bb3d97dd47c3931c94e24a1d3dc025a40d2", "blockhash": "0000000000000000001e0dab787dd257d1dbfcb92a98c2207d5e1078be1f4165", "vout": [{"scriptPubKey": {"reqSigs": 1, "hex": "76a9147225fd0a614b0cc986c482662d14235f3709536088ac", "addresses": ["1BQZYMQDAvNzMjJ1LK6PPDT3gGzE3EN4nN"], "asm": "OP_DUP OP_HASH160 7225fd0a614b0cc986c482662d14235f37095360 OP_EQUALVERIFY OP_CHECKSIG", "type": "pubkeyhash"}, "value": 0.00187691, "n": 0}, {"scriptPubKey": {"reqSigs": 1, "hex": "a9145c04f907ef7614b87701ab7bb81e50af901cc75087", "addresses": ["3A5a3hwrhexyoDfCphQHHvXiTd9vAEBhaB"], "asm": "OP_HASH160 5c04f907ef7614b87701ab7bb81e50af901cc750 OP_EQUAL", "type": "scripthash"}, "value": 0.01562263, "n": 1}], "hex": "01000000047eacb3c49e8e15d625dca4f735be8d47d8ded8f15ecf75df7820b3ba859d8b6f000000006a473044022042c3b3a87a1f4de8d69dd940a95dd5cb5bb07db06585334cdf6ed994c55b1c3b0220571f11ba7dc2646b662eee6cd9eed2b17d81ec8881e9f3aa1d886d6cec61b3590121022854ea39fce7c64a6ffc51882697edcde7cadf69871e4ebbf88d9d97ceb5e87affffffffe38e859015363a4bb30b502f4948f0ed06bdd50e99929e5ff0fea43777b1c39e000000006a473044022055ac2aaf34929ec2a2b9cf24eddf5e7626fd82b2c8b9a274bb11a5573005fbb2022022c99b2360f3315dd830f5cb3dd8fd250c56178caff02addae20d34806a94fff0121032a50b1aff5b08b3bf4b61866811280445905851114c10520b44fcd3d005b19dfffffffff47d7cb1e5832a749ab36c671168f4c6285f402eda0a73765061710aa42c3fbb6000000006b483045022100a56095fbfaf6a7e3675aff72c31bec1b57a165a9c54707fc7a2d1dddfcbf12e5022003b3857206bee5d3959b4fb6239289031ec7b844dd6bfecddffe258addcc4be1012103bb18d399535ab9fb4dda06db04a3594602ccfdfb5a7bd703921017b3d8b953dcffffffff54839a5bbd1b1ec65e891392d485511aa9a4a95b1749e786d818120d047e2acf000000006b48304502210089f2f825affd72b43da6cef179b8fd3f096e93efb9d5f00bc1907d595e8a5db102204c66bd23685f375ac9789bed9195ad0743583f5ada81585ba5e4710b9ea3f1150121032f794a711284853230b940faa68e4e1f5311ca844aa61d6af633234bd215780fffffffff022bdd0200000000001976a9147225fd0a614b0cc986c482662d14235f3709536088ac97d617000000000017a9145c04f907ef7614b87701ab7bb81e50af901cc7508700000000", "vin": [{"sequence": 4294967295, "scriptSig": {"hex": "473044022042c3b3a87a1f4de8d69dd940a95dd5cb5bb07db06585334cdf6ed994c55b1c3b0220571f11ba7dc2646b662eee6cd9eed2b17d81ec8881e9f3aa1d886d6cec61b3590121022854ea39fce7c64a6ffc51882697edcde7cadf69871e4ebbf88d9d97ceb5e87a", "asm": "3044022042c3b3a87a1f4de8d69dd940a95dd5cb5bb07db06585334cdf6ed994c55b1c3b0220571f11ba7dc2646b662eee6cd9eed2b17d81ec8881e9f3aa1d886d6cec61b359[ALL] 022854ea39fce7c64a6ffc51882697edcde7cadf69871e4ebbf88d9d97ceb5e87a"}, "vout": 0, "txid": "6f8b9d85bab32078df75cf5ef1d8ded8478dbe35f7a4dc25d6158e9ec4b3ac7e"}, {"sequence": 4294967295, "scriptSig": {"hex": "473044022055ac2aaf34929ec2a2b9cf24eddf5e7626fd82b2c8b9a274bb11a5573005fbb2022022c99b2360f3315dd830f5cb3dd8fd250c56178caff02addae20d34806a94fff0121032a50b1aff5b08b3bf4b61866811280445905851114c10520b44fcd3d005b19df", "asm": "3044022055ac2aaf34929ec2a2b9cf24eddf5e7626fd82b2c8b9a274bb11a5573005fbb2022022c99b2360f3315dd830f5cb3dd8fd250c56178caff02addae20d34806a94fff[ALL] 032a50b1aff5b08b3bf4b61866811280445905851114c10520b44fcd3d005b19df"}, "vout": 0, "txid": "9ec3b17737a4fef05f9e92990ed5bd06edf048492f500bb34b3a361590858ee3"}, {"sequence": 4294967295, "scriptSig": {"hex": "483045022100a56095fbfaf6a7e3675aff72c31bec1b57a165a9c54707fc7a2d1dddfcbf12e5022003b3857206bee5d3959b4fb6239289031ec7b844dd6bfecddffe258addcc4be1012103bb18d399535ab9fb4dda06db04a3594602ccfdfb5a7bd703921017b3d8b953dc", "asm": "3045022100a56095fbfaf6a7e3675aff72c31bec1b57a165a9c54707fc7a2d1dddfcbf12e5022003b3857206bee5d3959b4fb6239289031ec7b844dd6bfecddffe258addcc4be1[ALL] 03bb18d399535ab9fb4dda06db04a3594602ccfdfb5a7bd703921017b3d8b953dc"}, "vout": 0, "txid": "b6fbc342aa1017066537a7a0ed02f485624c8f1671c636ab49a732581ecbd747"}, {"sequence": 4294967295, "scriptSig": {"hex": "48304502210089f2f825affd72b43da6cef179b8fd3f096e93efb9d5f00bc1907d595e8a5db102204c66bd23685f375ac9789bed9195ad0743583f5ada81585ba5e4710b9ea3f1150121032f794a711284853230b940faa68e4e1f5311ca844aa61d6af633234bd215780f", "asm": "304502210089f2f825affd72b43da6cef179b8fd3f096e93efb9d5f00bc1907d595e8a5db102204c66bd23685f375ac9789bed9195ad0743583f5ada81585ba5e4710b9ea3f115[ALL] 032f794a711284853230b940faa68e4e1f5311ca844aa61d6af633234bd215780f"}, "vout": 0, "txid": "cf2a7e040d1218d886e749175ba9a4a91a5185d49213895ec61e1bbd5b9a8354"}], "txid": "3d23c3e606874c129b2f68a4ebf72bb3d97dd47c3931c94e24a1d3dc025a40d2", "blocktime": 1537872475, "version": 1, "confirmations": 11487, "time": 1537872475, "locktime": 0, "vsize": 666, "size": 666}