{"hash": "3d24d9f1c5da468bf01eb0b6ede84bf64de0c25bafedceac092322d83fe68c62", "blockhash": "0000000000000000000dcc0f55137456b1a82d3642486a52398922ac4d620174", "vout": [{"scriptPubKey": {"reqSigs": 1, "hex": "76a9147b33f82473096d3e598412db5723272a068011b788ac", "addresses": ["1CESNVBMmHYD9jNkh1sEfTa9haTQpANWYa"], "asm": "OP_DUP OP_HASH160 7b33f82473096d3e598412db5723272a068011b7 OP_EQUALVERIFY OP_CHECKSIG", "type": "pubkeyhash"}, "value": 0.00114701, "n": 0}, {"scriptPubKey": {"reqSigs": 1, "hex": "76a91488c3ea5b948ab0574e71db6d6098a6d779e9ca9688ac", "addresses": ["1DU9bXxUnRd5sMEqmb6MFfHc5mUHciQVyQ"], "asm": "OP_DUP OP_HASH160 88c3ea5b948ab0574e71db6d6098a6d779e9ca96 OP_EQUALVERIFY OP_CHECKSIG", "type": "pubkeyhash"}, "value": 0.03617668, "n": 1}], "hex": "0100000005c646a7a4a4a0578df014483f1b40d46286799d487b898e801b74e3019b792f24000000006b483045022100b879dd3b61c46b0912faf0e216ad39c1451f754c93f5b57755bf5fde7bd252ea022016e05ef8e2c5d6f234f0d2bd3889076597e0989a655eb492dc94961dac4b3664012102408378532e61036c2a6222916ae63772dfe4af5f7438eeb0f120751a5f84fab2ffffffff3f6c392892f4b780f68d295aca42514c6f2aa4c189218e77f3b756ab96cf0228000000006a473044022012087902da862a1a8e04cbdfa816bbc30e03519f4cc7046396e2c06bce7bf538022062a4b89259c8f9114414b50c05557ce4a6b7ae3ed56d33b1730a9eea7b95f440012103ad0572a0c8a26c8f98194866cb7fd9ca16b0437e9bd92b5b304425dc992c153dffffffff4e2c4180a9c9d78eda7a1a385b637b9a8648c17085122f9e5f1d229adab69a50010000006b483045022100b3bdccf435ef54cd61ac9a00ef2a40503498146ad917043ff66202cf99ff70f402203b0da2514a7f57fa88d9b7b147344f96bf9b960e13a3688af41b95d0bea29bc9012103ad0572a0c8a26c8f98194866cb7fd9ca16b0437e9bd92b5b304425dc992c153dffffffff41024869d057be1d88bb22b93015493c3169b9b5f8b9c1d9981c2cee1df623d6020000006b483045022100ba874f2c5815cb90f68df67bb55fee5c60d71e074d97c5de6f7bae89c3b144a10220373f0f1508af28870542af33e115f18c703a978afb4e3abfc7c96a3dc5f8523f012103ad0572a0c8a26c8f98194866cb7fd9ca16b0437e9bd92b5b304425dc992c153dffffffff728f0d14df88e0035e78da335757fe6dbb748b66339f7e36078dbff3d1c90bd7000000006a47304402206c8fe65d51919180ff0dc2638952816413563092952bd0b0126d4abe6a29b790022042b02b5c6205fa0d2a548e4ccc4e00352a3a6a9bbfd569fc485d7f9ebe811ad9012103b8f6f945db8846c73e99ca31b25fe8bd883d6e7dd155c6158bb0b6058cecb11dffffffff020dc00100000000001976a9147b33f82473096d3e598412db5723272a068011b788ac84333700000000001976a91488c3ea5b948ab0574e71db6d6098a6d779e9ca9688ac00000000", "vin": [{"sequence": 4294967295, "scriptSig": {"hex": "483045022100b879dd3b61c46b0912faf0e216ad39c1451f754c93f5b57755bf5fde7bd252ea022016e05ef8e2c5d6f234f0d2bd3889076597e0989a655eb492dc94961dac4b3664012102408378532e61036c2a6222916ae63772dfe4af5f7438eeb0f120751a5f84fab2", "asm": "3045022100b879dd3b61c46b0912faf0e216ad39c1451f754c93f5b57755bf5fde7bd252ea022016e05ef8e2c5d6f234f0d2bd3889076597e0989a655eb492dc94961dac4b3664[ALL] 02408378532e61036c2a6222916ae63772dfe4af5f7438eeb0f120751a5f84fab2"}, "vout": 0, "txid": "242f799b01e3741b808e897b489d798662d4401b3f4814f08d57a0a4a4a746c6"}, {"sequence": 4294967295, "scriptSig": {"hex": "473044022012087902da862a1a8e04cbdfa816bbc30e03519f4cc7046396e2c06bce7bf538022062a4b89259c8f9114414b50c05557ce4a6b7ae3ed56d33b1730a9eea7b95f440012103ad0572a0c8a26c8f98194866cb7fd9ca16b0437e9bd92b5b304425dc992c153d", "asm": "3044022012087902da862a1a8e04cbdfa816bbc30e03519f4cc7046396e2c06bce7bf538022062a4b89259c8f9114414b50c05557ce4a6b7ae3ed56d33b1730a9eea7b95f440[ALL] 03ad0572a0c8a26c8f98194866cb7fd9ca16b0437e9bd92b5b304425dc992c153d"}, "vout": 0, "txid": "2802cf96ab56b7f3778e2189c1a42a6f4c5142ca5a298df680b7f49228396c3f"}, {"sequence": 4294967295, "scriptSig": {"hex": "483045022100b3bdccf435ef54cd61ac9a00ef2a40503498146ad917043ff66202cf99ff70f402203b0da2514a7f57fa88d9b7b147344f96bf9b960e13a3688af41b95d0bea29bc9012103ad0572a0c8a26c8f98194866cb7fd9ca16b0437e9bd92b5b304425dc992c153d", "asm": "3045022100b3bdccf435ef54cd61ac9a00ef2a40503498146ad917043ff66202cf99ff70f402203b0da2514a7f57fa88d9b7b147344f96bf9b960e13a3688af41b95d0bea29bc9[ALL] 03ad0572a0c8a26c8f98194866cb7fd9ca16b0437e9bd92b5b304425dc992c153d"}, "vout": 1, "txid": "509ab6da9a221d5f9e2f128570c148869a7b635b381a7ada8ed7c9a980412c4e"}, {"sequence": 4294967295, "scriptSig": {"hex": "483045022100ba874f2c5815cb90f68df67bb55fee5c60d71e074d97c5de6f7bae89c3b144a10220373f0f1508af28870542af33e115f18c703a978afb4e3abfc7c96a3dc5f8523f012103ad0572a0c8a26c8f98194866cb7fd9ca16b0437e9bd92b5b304425dc992c153d", "asm": "3045022100ba874f2c5815cb90f68df67bb55fee5c60d71e074d97c5de6f7bae89c3b144a10220373f0f1508af28870542af33e115f18c703a978afb4e3abfc7c96a3dc5f8523f[ALL] 03ad0572a0c8a26c8f98194866cb7fd9ca16b0437e9bd92b5b304425dc992c153d"}, "vout": 2, "txid": "d623f61dee2c1c98d9c1b9f8b5b969313c491530b922bb881dbe57d069480241"}, {"sequence": 4294967295, "scriptSig": {"hex": "47304402206c8fe65d51919180ff0dc2638952816413563092952bd0b0126d4abe6a29b790022042b02b5c6205fa0d2a548e4ccc4e00352a3a6a9bbfd569fc485d7f9ebe811ad9012103b8f6f945db8846c73e99ca31b25fe8bd883d6e7dd155c6158bb0b6058cecb11d", "asm": "304402206c8fe65d51919180ff0dc2638952816413563092952bd0b0126d4abe6a29b790022042b02b5c6205fa0d2a548e4ccc4e00352a3a6a9bbfd569fc485d7f9ebe811ad9[ALL] 03b8f6f945db8846c73e99ca31b25fe8bd883d6e7dd155c6158bb0b6058cecb11d"}, "vout": 0, "txid": "d70bc9d1f3bf8d07367e9f33668b74bb6dfe575733da785e03e088df140d8f72"}], "txid": "3d24d9f1c5da468bf01eb0b6ede84bf64de0c25bafedceac092322d83fe68c62", "blocktime": 1537870268, "version": 1, "confirmations": 11518, "time": 1537870268, "locktime": 0, "vsize": 816, "size": 816}