{"hash": "3d24657e3b3d40bbeb06d4df394342f82aeb6f4a5b6b80fcf3f6e1aeac0aa198", "blockhash": "0000000000000000001f76057863aec43deb6fa401d9628bb513d65a8098bfab", "vout": [{"scriptPubKey": {"reqSigs": 1, "hex": "76a914a25dec4d0011064ef106a983c39c7a540699f22088ac", "addresses": ["1FoWyxwPXuj4C6abqwhjDWdz6D4PZgYRjA"], "asm": "OP_DUP OP_HASH160 a25dec4d0011064ef106a983c39c7a540699f220 OP_EQUALVERIFY OP_CHECKSIG", "type": "pubkeyhash"}, "value": 0.01995188, "n": 0}, {"scriptPubKey": {"type": "nulldata", "hex": "6a146f6d6e69000000000000001f000000145d9e4780", "asm": "OP_RETURN 6f6d6e69000000000000001f000000145d9e4780"}, "value": 0.0, "n": 1}, {"scriptPubKey": {"reqSigs": 1, "hex": "76a914236554c7193d0b2ed5be3e3da44f63f99d26c4aa88ac", "addresses": ["14EA3Kx2AfiXw1s5j62vB48jtYVTVXHMM1"], "asm": "OP_DUP OP_HASH160 236554c7193d0b2ed5be3e3da44f63f99d26c4aa OP_EQUALVERIFY OP_CHECKSIG", "type": "pubkeyhash"}, "value": 5.46e-06, "n": 2}], "hex": "0100000001a44813c76173a4fe9689194c29809e35be05f1741d9b5e1e9e8bd44070ac1fea800000006a4730440220558e1689b853b83a0f916b474de071e5acddbfc2d295cb7437e27bee3bf137bc022077586db434996a846f4c431452f73664e42b42ec2deb20213e270a149fbf1fae012103da5bac7b36d5aa38f531c6b9601e21bb598a4b6716ebed38b009a55dabde9440feffffff03b4711e00000000001976a914a25dec4d0011064ef106a983c39c7a540699f22088ac0000000000000000166a146f6d6e69000000000000001f000000145d9e478022020000000000001976a914236554c7193d0b2ed5be3e3da44f63f99d26c4aa88ac14490800", "vin": [{"sequence": 4294967294, "scriptSig": {"hex": "4730440220558e1689b853b83a0f916b474de071e5acddbfc2d295cb7437e27bee3bf137bc022077586db434996a846f4c431452f73664e42b42ec2deb20213e270a149fbf1fae012103da5bac7b36d5aa38f531c6b9601e21bb598a4b6716ebed38b009a55dabde9440", "asm": "30440220558e1689b853b83a0f916b474de071e5acddbfc2d295cb7437e27bee3bf137bc022077586db434996a846f4c431452f73664e42b42ec2deb20213e270a149fbf1fae[ALL] 03da5bac7b36d5aa38f531c6b9601e21bb598a4b6716ebed38b009a55dabde9440"}, "vout": 128, "txid": "ea1fac7040d48b9e1e5e9b1d74f105be359e80294c198996fea47361c71348a4"}], "txid": "3d24657e3b3d40bbeb06d4df394342f82aeb6f4a5b6b80fcf3f6e1aeac0aa198", "blocktime": 1537873891, "version": 1, "confirmations": 11475, "time": 1537873891, "locktime": 542996, "vsize": 256, "size": 256}