{"hash": "3c022898d22d465c5c05e668b639bb30da99f0546f98a0727dd738e28c81f1bb", "blockhash": "0000000000000000001e0dab787dd257d1dbfcb92a98c2207d5e1078be1f4165", "vout": [{"scriptPubKey": {"reqSigs": 1, "hex": "a914d401b3347929ac101b58d0995b048e02f34445d587", "addresses": ["3M21DLAVL6yKZTysnAYCcnPvN2pmuPgH1t"], "asm": "OP_HASH160 d401b3347929ac101b58d0995b048e02f34445d5 OP_EQUAL", "type": "scripthash"}, "value": 0.112013, "n": 0}, {"scriptPubKey": {"reqSigs": 1, "hex": "a91458894523dbfa175af80448d36c83c1aa8786adc387", "addresses": ["39m9q7k8bZwvSyi9ki8XED8ATaEWcQ47w6"], "asm": "OP_HASH160 58894523dbfa175af80448d36c83c1aa8786adc3 OP_EQUAL", "type": "scripthash"}, "value": 0.0005, "n": 1}], "hex": "01000000000101089d84e7f1ffaacd992d7ac9c83b17dc1fed717cfe610690c1f51d763f3df024010000002322002065a98a8ef9ae260944d2b23f77b67d9206f03b12dc949fb013290e7555915797ffffffff0214ebaa000000000017a914d401b3347929ac101b58d0995b048e02f34445d58750c300000000000017a91458894523dbfa175af80448d36c83c1aa8786adc387040047304402201249944ff4cfa5985af5a4e7cc0b9b797128817a2e45e1e426efcfc2888b177602205ffdf3b1e5055edb05b93ec9f5a996a1603613fd2b3c0dfec61e59c804ffd97401473044022051f963ffee378fb1d971f9aa29c13c555d6277eec3c3d8b79f6a26daad574241022005a7eedf8c872f5f59031f1fc9ee2a21162e225b83599138881ea2dd67ba69cd0169522102baef7f289e7e9a1f0986376430ae74ea659c4d31c0f95bd0d0a99960e50c98612103f06c6a1a4678ae8d6e323eab6f9a762f491d455a87506cc8175d5c45a66514932102336744bd5bac9c8381441299e214aaf01e18e9a6028f245f1fee02bf024f4b6253ae00000000", "vin": [{"txinwitness": ["", "304402201249944ff4cfa5985af5a4e7cc0b9b797128817a2e45e1e426efcfc2888b177602205ffdf3b1e5055edb05b93ec9f5a996a1603613fd2b3c0dfec61e59c804ffd97401", "3044022051f963ffee378fb1d971f9aa29c13c555d6277eec3c3d8b79f6a26daad574241022005a7eedf8c872f5f59031f1fc9ee2a21162e225b83599138881ea2dd67ba69cd01", "522102baef7f289e7e9a1f0986376430ae74ea659c4d31c0f95bd0d0a99960e50c98612103f06c6a1a4678ae8d6e323eab6f9a762f491d455a87506cc8175d5c45a66514932102336744bd5bac9c8381441299e214aaf01e18e9a6028f245f1fee02bf024f4b6253ae"], "sequence": 4294967295, "scriptSig": {"hex": "22002065a98a8ef9ae260944d2b23f77b67d9206f03b12dc949fb013290e7555915797", "asm": "002065a98a8ef9ae260944d2b23f77b67d9206f03b12dc949fb013290e7555915797"}, "vout": 1, "txid": "24f03d3f761df5c1900661fe7c71ed1fdc173bc8c97a2d99cdaafff1e7849d08"}], "txid": "3d29c97f75e05f116eedc41a56a525136234fe9a795d094c5e9c7d53218dc5ab", "blocktime": 1537872475, "version": 1, "confirmations": 11487, "time": 1537872475, "locktime": 0, "vsize": 214, "size": 404}