{"hash": "e2a18285e43d14d31903fae9f647196899e153e1db0b52b19dd1adc2310541b9", "blockhash": "0000000000000000000e13cef7c366c0283d82e591d1acd082e914b08063cdf1", "vout": [{"scriptPubKey": {"reqSigs": 1, "hex": "76a9142d58f47282c830af084cea0606ad787545e8f3e288ac", "addresses": ["158myKs9MgmfwZRW6z2ToUG7mBZffBMzht"], "asm": "OP_DUP OP_HASH160 2d58f47282c830af084cea0606ad787545e8f3e2 OP_EQUALVERIFY OP_CHECKSIG", "type": "pubkeyhash"}, "value": 0.45, "n": 0}, {"scriptPubKey": {"reqSigs": 1, "hex": "a914b8a9a8ba8cf965b7df6b05afd948e53c351b2c0d87", "addresses": ["3JXRVxhrk2o9f4w3cQchBLwUeegJBj6BEp"], "asm": "OP_HASH160 b8a9a8ba8cf965b7df6b05afd948e53c351b2c0d OP_EQUAL", "type": "scripthash"}, "value": 2.5967165, "n": 1}], "hex": "010000000001017370f1d0598cd1d7eb39587d8584eb48bf8f0cae525ae077df1dfead724cf44500000000232200202035e78a6b34d583ad0a874b80ee41a0507b92cf0b671656108f594c7f75ca90ffffffff0240a5ae02000000001976a9142d58f47282c830af084cea0606ad787545e8f3e288ac62467a0f0000000017a914b8a9a8ba8cf965b7df6b05afd948e53c351b2c0d870400483045022100a817c323d8b385d7fe25bc4a4053caeb22db645b9ada051aba275ceef37280390220278874136ad93e84762a3aae3f4bf8845364c5b18405acac258349e884d62c4e01483045022100a5167ff6e6a8622b19b9b77dfc80f593ade5ebca37627cf0faa78d616b6f93ed0220614f94638b6d901df2ef5d042373c7d1504c0e46dfe1d82bc6c2f16e0f5c003201695221029103d1dfbbee9ea5249ee0b03ca59e08291ce34a7467513edf8ea767b5aa26382103dce07bea5905a1c3e70f86c1f74f0e98e7cf3b6f5d02226a4c531c9e930c613b210268d8878afaf4b55118519d8520fe0db27f9596a812d4378f4bf4a96a5333694653ae00000000", "vin": [{"txinwitness": ["", "3045022100a817c323d8b385d7fe25bc4a4053caeb22db645b9ada051aba275ceef37280390220278874136ad93e84762a3aae3f4bf8845364c5b18405acac258349e884d62c4e01", "3045022100a5167ff6e6a8622b19b9b77dfc80f593ade5ebca37627cf0faa78d616b6f93ed0220614f94638b6d901df2ef5d042373c7d1504c0e46dfe1d82bc6c2f16e0f5c003201", "5221029103d1dfbbee9ea5249ee0b03ca59e08291ce34a7467513edf8ea767b5aa26382103dce07bea5905a1c3e70f86c1f74f0e98e7cf3b6f5d02226a4c531c9e930c613b210268d8878afaf4b55118519d8520fe0db27f9596a812d4378f4bf4a96a5333694653ae"], "sequence": 4294967295, "scriptSig": {"hex": "2200202035e78a6b34d583ad0a874b80ee41a0507b92cf0b671656108f594c7f75ca90", "asm": "00202035e78a6b34d583ad0a874b80ee41a0507b92cf0b671656108f594c7f75ca90"}, "vout": 0, "txid": "45f44c72adfe1ddf77e05a52ae0c8fbf48eb84857d5839ebd7d18c59d0f17073"}], "txid": "3d2bb6122c9b44445399abc8770a3a4f1ce994ce8698e992d1fa1f30ec0d9c54", "blocktime": 1537871767, "version": 1, "confirmations": 11491, "time": 1537871767, "locktime": 0, "vsize": 216, "size": 408}