{"hash": "3d33a32da2d974c650cf84e6388330ebe6aa46b61a0eaeacd635087100965d6d", "blockhash": "0000000000000000001cda96e906b7601b7a6fb1a3b62bca570a9e5d8f4b3de1", "vout": [{"scriptPubKey": {"reqSigs": 1, "hex": "76a9141deb8131945f0be34b8dbe789972bff4cf6cd38888ac", "addresses": ["13jCiiQcnDk69aLtmCJsyYi4aibaCkpPqc"], "asm": "OP_DUP OP_HASH160 1deb8131945f0be34b8dbe789972bff4cf6cd388 OP_EQUALVERIFY OP_CHECKSIG", "type": "pubkeyhash"}, "value": 0.01561219, "n": 0}, {"scriptPubKey": {"reqSigs": 1, "hex": "76a914731c59b7012e427c7c4120a1aaea8bdd2c64807288ac", "addresses": ["1BVeftHUAGgJ8uGuMPk3oukbUUH9cyGjAM"], "asm": "OP_DUP OP_HASH160 731c59b7012e427c7c4120a1aaea8bdd2c648072 OP_EQUALVERIFY OP_CHECKSIG", "type": "pubkeyhash"}, "value": 0.0336186, "n": 1}], "hex": "01000000020bbce2c521ccc4ef39c847777368c2ea1e7c42f98d9956c864ce9543d46d9301010000006b483045022100d4c9148a5f268f3efe2ed6c432aa12b985db9ffc16e408819977fa80eb4ae8d30220617269126e8880ea066e9176470c3687ee32214bfa68e32afeee3d8afc104d61012102c424280fd4f299f5a69b6d4ce09e0ccd171677b5cacca71010cac283d3ee7b12ffffffffeddeeaa05258eabe421b0d01b083d07164156619d6498fb3ffc4de26363b2bda010000006a47304402207d5f5daa2bc2a82c3399cf1abd233c75f0dd7f545debf95f6f13cf9f65c478ca02203054222aa4e2454776749b6f05d851c04344e3ddda27957dc35e5c1e084651b9012102c424280fd4f299f5a69b6d4ce09e0ccd171677b5cacca71010cac283d3ee7b12ffffffff0283d21700000000001976a9141deb8131945f0be34b8dbe789972bff4cf6cd38888ac444c3300000000001976a914731c59b7012e427c7c4120a1aaea8bdd2c64807288ac00000000", "vin": [{"sequence": 4294967295, "scriptSig": {"hex": "483045022100d4c9148a5f268f3efe2ed6c432aa12b985db9ffc16e408819977fa80eb4ae8d30220617269126e8880ea066e9176470c3687ee32214bfa68e32afeee3d8afc104d61012102c424280fd4f299f5a69b6d4ce09e0ccd171677b5cacca71010cac283d3ee7b12", "asm": "3045022100d4c9148a5f268f3efe2ed6c432aa12b985db9ffc16e408819977fa80eb4ae8d30220617269126e8880ea066e9176470c3687ee32214bfa68e32afeee3d8afc104d61[ALL] 02c424280fd4f299f5a69b6d4ce09e0ccd171677b5cacca71010cac283d3ee7b12"}, "vout": 1, "txid": "01936dd44395ce64c856998df9427c1eeac268737747c839efc4cc21c5e2bc0b"}, {"sequence": 4294967295, "scriptSig": {"hex": "47304402207d5f5daa2bc2a82c3399cf1abd233c75f0dd7f545debf95f6f13cf9f65c478ca02203054222aa4e2454776749b6f05d851c04344e3ddda27957dc35e5c1e084651b9012102c424280fd4f299f5a69b6d4ce09e0ccd171677b5cacca71010cac283d3ee7b12", "asm": "304402207d5f5daa2bc2a82c3399cf1abd233c75f0dd7f545debf95f6f13cf9f65c478ca02203054222aa4e2454776749b6f05d851c04344e3ddda27957dc35e5c1e084651b9[ALL] 02c424280fd4f299f5a69b6d4ce09e0ccd171677b5cacca71010cac283d3ee7b12"}, "vout": 1, "txid": "da2b3b3626dec4ffb38f49d61966156471d083b0010d1b42beea5852a0eadeed"}], "txid": "3d33a32da2d974c650cf84e6388330ebe6aa46b61a0eaeacd635087100965d6d", "blocktime": 1537873282, "version": 1, "confirmations": 11485, "time": 1537873282, "locktime": 0, "vsize": 373, "size": 373}