{"hash": "3db3116031f3a34d5fe727c86697f2dcf999560b759a72093f52d1e9098c38fc", "blockhash": "0000000000000000001f76057863aec43deb6fa401d9628bb513d65a8098bfab", "vout": [{"scriptPubKey": {"reqSigs": 1, "hex": "a91490e99e8d26d05ead3c05430c292a887bbff695f587", "addresses": ["3EuF6KjJawxTiUsea3Sc8hsLUGmVEf7Xg5"], "asm": "OP_HASH160 90e99e8d26d05ead3c05430c292a887bbff695f5 OP_EQUAL", "type": "scripthash"}, "value": 0.00134962, "n": 0}, {"scriptPubKey": {"type": "nulldata", "hex": "6a146f6d6e69000000000000001f0000000005f5e100", "asm": "OP_RETURN 6f6d6e69000000000000001f0000000005f5e100"}, "value": 0.0, "n": 1}, {"scriptPubKey": {"reqSigs": 1, "hex": "a91490e99e8d26d05ead3c05430c292a887bbff695f587", "addresses": ["3EuF6KjJawxTiUsea3Sc8hsLUGmVEf7Xg5"], "asm": "OP_HASH160 90e99e8d26d05ead3c05430c292a887bbff695f5 OP_EQUAL", "type": "scripthash"}, "value": 5.4e-06, "n": 2}], "hex": "01000000000102d9cf3acad5c449fd89cab804481bdee78773d9ac6d43674e0d0ec424c3ff91e50000000017160014f6e1792e7852ebd5ae795c2a25d579acdfadec2dffffffffd9cf3acad5c449fd89cab804481bdee78773d9ac6d43674e0d0ec424c3ff91e50200000017160014f6e1792e7852ebd5ae795c2a25d579acdfadec2dffffffff03320f02000000000017a91490e99e8d26d05ead3c05430c292a887bbff695f5870000000000000000166a146f6d6e69000000000000001f0000000005f5e1001c0200000000000017a91490e99e8d26d05ead3c05430c292a887bbff695f58702473044022075c45fd6c5c9b3e845621f9d239b75f651b756e0abbc20886fd1328e5c781b2802206a7f044beb206a97ca57b0e3229b2265fb111718ba15c753d6d663f785b9c087012103f1cf988013a33e053d1e9bd54c4798c1a6dc362a5b2798b5344049fca40e2db0024730440220668aea80b5f78cce5a50cefd33ae7855ddccefe01540fca46718ba23031ebe53022046a1e566a265da72069420afad2db621ae7d252ccce9fbfd39605b3b01379d1a012103f1cf988013a33e053d1e9bd54c4798c1a6dc362a5b2798b5344049fca40e2db000000000", "vin": [{"txinwitness": ["3044022075c45fd6c5c9b3e845621f9d239b75f651b756e0abbc20886fd1328e5c781b2802206a7f044beb206a97ca57b0e3229b2265fb111718ba15c753d6d663f785b9c08701", "03f1cf988013a33e053d1e9bd54c4798c1a6dc362a5b2798b5344049fca40e2db0"], "sequence": 4294967295, "scriptSig": {"hex": "160014f6e1792e7852ebd5ae795c2a25d579acdfadec2d", "asm": "0014f6e1792e7852ebd5ae795c2a25d579acdfadec2d"}, "vout": 0, "txid": "e591ffc324c40e0d4e67436dacd97387e7de1b4804b8ca89fd49c4d5ca3acfd9"}, {"txinwitness": ["30440220668aea80b5f78cce5a50cefd33ae7855ddccefe01540fca46718ba23031ebe53022046a1e566a265da72069420afad2db621ae7d252ccce9fbfd39605b3b01379d1a01", "03f1cf988013a33e053d1e9bd54c4798c1a6dc362a5b2798b5344049fca40e2db0"], "sequence": 4294967295, "scriptSig": {"hex": "160014f6e1792e7852ebd5ae795c2a25d579acdfadec2d", "asm": "0014f6e1792e7852ebd5ae795c2a25d579acdfadec2d"}, "vout": 2, "txid": "e591ffc324c40e0d4e67436dacd97387e7de1b4804b8ca89fd49c4d5ca3acfd9"}], "txid": "3d36640cfe1a3b61647f9be3ef1ff919135f3debdab79adc460a4f429ab5ddd9", "blocktime": 1537873891, "version": 1, "confirmations": 11478, "time": 1537873891, "locktime": 0, "vsize": 287, "size": 449}