{"hash": "55ca62d73ac13ae88a331aa459380476635da9ee2603055ded74cbc935cd48de", "blockhash": "00000000000000000018f53835495a110e01622372bf6ae95dc86f2b0ab887b0", "vout": [{"scriptPubKey": {"reqSigs": 1, "hex": "76a914658bc2e4001cfacc64a3e041943e921b3086737588ac", "addresses": ["1AFvgAG4FN8fhtp3ZtSF8hsmKvPTDiB4RV"], "asm": "OP_DUP OP_HASH160 658bc2e4001cfacc64a3e041943e921b30867375 OP_EQUALVERIFY OP_CHECKSIG", "type": "pubkeyhash"}, "value": 3.307e-05, "n": 0}], "hex": "01000000000101720b3e6b29c8fd1fa552c34f8085ce1bef3115e71b948d3a1cac2e4fa5bb611d0100000023220020941cfaff8837763dc1f69ff82b6d6553fdea17a41cfc29a04403293eedd8ccc7ffffffff01eb0c0000000000001976a914658bc2e4001cfacc64a3e041943e921b3086737588ac040047304402200d6ad89e60cb0850bf70ec82073037bf0ed25fd911ae0914e9cfd417bb4fb0b502206e30ee712d4100eba0c5a8e5a40cbb18621926aefa2a6f3a3485a0184fe814650147304402203c88a1e4673870d81a00a934f2458b7271f89f9a3ad4cbc44823f420a5f9980d0220014481ea053692774dd97fc8c73d531aa21bcd596b9b1ccf85f9861183b108a60147522102531db3a5883f29bab4241dd0cd726936667bcda445d89bdd22244e828b6993342103148c80a5bdfddb05ff5bcffc397c8ca748d8b435ec6a175bc9d7bfc7fc6f853752ae00000000", "vin": [{"txinwitness": ["", "304402200d6ad89e60cb0850bf70ec82073037bf0ed25fd911ae0914e9cfd417bb4fb0b502206e30ee712d4100eba0c5a8e5a40cbb18621926aefa2a6f3a3485a0184fe8146501", "304402203c88a1e4673870d81a00a934f2458b7271f89f9a3ad4cbc44823f420a5f9980d0220014481ea053692774dd97fc8c73d531aa21bcd596b9b1ccf85f9861183b108a601", "522102531db3a5883f29bab4241dd0cd726936667bcda445d89bdd22244e828b6993342103148c80a5bdfddb05ff5bcffc397c8ca748d8b435ec6a175bc9d7bfc7fc6f853752ae"], "sequence": 4294967295, "scriptSig": {"hex": "220020941cfaff8837763dc1f69ff82b6d6553fdea17a41cfc29a04403293eedd8ccc7", "asm": "0020941cfaff8837763dc1f69ff82b6d6553fdea17a41cfc29a04403293eedd8ccc7"}, "vout": 1, "txid": "1d61bba54f2eac1c3a8d941be71531ef1bce85804fc352a51ffdc8296b3e0b72"}], "txid": "3d3c0a5e7578cce8a2b6ab816d7a0a9d0fdb239b1dd9ddf70ba261a0653d90cc", "blocktime": 1537870928, "version": 1, "confirmations": 11512, "time": 1537870928, "locktime": 0, "vsize": 175, "size": 340}