{"hash": "3d4c57e46eee93a58460f78c3a4f7e5afde219b9733c050eee14d5fbae7a0132", "blockhash": "0000000000000000000e13cef7c366c0283d82e591d1acd082e914b08063cdf1", "vout": [{"scriptPubKey": {"reqSigs": 1, "hex": "76a9144ce542459da077151376fc2be362e52a403cb23988ac", "addresses": ["181azmNR9fdxwqYqdbVP1vnd1qmbo66o3F"], "asm": "OP_DUP OP_HASH160 4ce542459da077151376fc2be362e52a403cb239 OP_EQUALVERIFY OP_CHECKSIG", "type": "pubkeyhash"}, "value": 11.46478095, "n": 0}, {"scriptPubKey": {"reqSigs": 1, "hex": "76a91414dfbd079556281a55a490e0d3a46b663569cf7488ac", "addresses": ["12uNYTGmPJ9nZLusPUnVfJkVW5i96B4QAJ"], "asm": "OP_DUP OP_HASH160 14dfbd079556281a55a490e0d3a46b663569cf74 OP_EQUALVERIFY OP_CHECKSIG", "type": "pubkeyhash"}, "value": 0.0734969, "n": 1}], "hex": "02000000012d0f3228930bf0dbc6d2543b2f8e71043c7e2a498007a0773aabc2df3f502f2e000000006a47304402205c719cc995cb834e40cfeede1ac7d22a1a335c34c7aef39a249c9886b559e4c60220404d536f52c1345b97b5695b7ab86541b7c5184caab0d9e320f3ff7e6402f61b01210239ac50d8d043ed2e5536620705832dc84f2ed493140c2ce77b00e1de349355c2feffffff020fde5544000000001976a9144ce542459da077151376fc2be362e52a403cb23988acba257000000000001976a91414dfbd079556281a55a490e0d3a46b663569cf7488ac10490800", "vin": [{"sequence": 4294967294, "scriptSig": {"hex": "47304402205c719cc995cb834e40cfeede1ac7d22a1a335c34c7aef39a249c9886b559e4c60220404d536f52c1345b97b5695b7ab86541b7c5184caab0d9e320f3ff7e6402f61b01210239ac50d8d043ed2e5536620705832dc84f2ed493140c2ce77b00e1de349355c2", "asm": "304402205c719cc995cb834e40cfeede1ac7d22a1a335c34c7aef39a249c9886b559e4c60220404d536f52c1345b97b5695b7ab86541b7c5184caab0d9e320f3ff7e6402f61b[ALL] 0239ac50d8d043ed2e5536620705832dc84f2ed493140c2ce77b00e1de349355c2"}, "vout": 0, "txid": "2e2f503fdfc2ab3a77a00780492a7e3c04718e2f3b54d2c6dbf00b9328320f2d"}], "txid": "3d4c57e46eee93a58460f78c3a4f7e5afde219b9733c050eee14d5fbae7a0132", "blocktime": 1537871767, "version": 2, "confirmations": 11490, "time": 1537871767, "locktime": 542992, "vsize": 225, "size": 225}