{"hash": "cbabda1540bbb0adec747b86f76d10cbcdc413dba07b0cf8a9ffb41be2fdb163", "blockhash": "00000000000000000018f53835495a110e01622372bf6ae95dc86f2b0ab887b0", "vout": [{"scriptPubKey": {"reqSigs": 1, "hex": "76a914cf4bc450d957787294bef3649ec73f833ffc71e488ac", "addresses": ["1Ku5e5nd2GSG6F92XRZ9WbhFs7D4W8K9wC"], "asm": "OP_DUP OP_HASH160 cf4bc450d957787294bef3649ec73f833ffc71e4 OP_EQUALVERIFY OP_CHECKSIG", "type": "pubkeyhash"}, "value": 0.33399566, "n": 0}], "hex": "01000000000102f5046b200a4e8085525a08bf47ba00c7426d22cf15671defa79a8f961eafb9680a0000001716001486832533413f2a9337394b2d1354f520683781eeffffffff5299918bd439c06398d88354c58ad5c3bead6a5619c6a1c79c2dacc02be7d6a80100000017160014b41d1383350b96bd26b0111cf2a5c525e0f806d0ffffffff010ea3fd01000000001976a914cf4bc450d957787294bef3649ec73f833ffc71e488ac02483045022100f5fd726caa8fb1c78a6d38d04158e2a16a9fbaef47ad24f63f34e238c3fd8dc0022025907b4a1483043a2fa46ba048dcc75576a5c551d00181acdb48238d270ea4610121036f0a7bfa987f7b5f3aab2484be08e6710a7b03ac80a51a0cd9c2f917c19237900247304402204eaa7f0bfd7b20640b6d6a7d773bf1b298f410a9fd732a08ddc39be8f79bc4fb0220654d5225ef3bdca29fbb4b96ae6c55da3972e0a76e4629bff9e015c3418b705201210362e37799d12e1db96aded3f8b8b8efbbdb99a12a913ccfadf9543eb3c00d781500000000", "vin": [{"txinwitness": ["3045022100f5fd726caa8fb1c78a6d38d04158e2a16a9fbaef47ad24f63f34e238c3fd8dc0022025907b4a1483043a2fa46ba048dcc75576a5c551d00181acdb48238d270ea46101", "036f0a7bfa987f7b5f3aab2484be08e6710a7b03ac80a51a0cd9c2f917c1923790"], "sequence": 4294967295, "scriptSig": {"hex": "16001486832533413f2a9337394b2d1354f520683781ee", "asm": "001486832533413f2a9337394b2d1354f520683781ee"}, "vout": 10, "txid": "68b9af1e968f9aa7ef1d6715cf226d42c700ba47bf085a5285804e0a206b04f5"}, {"txinwitness": ["304402204eaa7f0bfd7b20640b6d6a7d773bf1b298f410a9fd732a08ddc39be8f79bc4fb0220654d5225ef3bdca29fbb4b96ae6c55da3972e0a76e4629bff9e015c3418b705201", "0362e37799d12e1db96aded3f8b8b8efbbdb99a12a913ccfadf9543eb3c00d7815"], "sequence": 4294967295, "scriptSig": {"hex": "160014b41d1383350b96bd26b0111cf2a5c525e0f806d0", "asm": "0014b41d1383350b96bd26b0111cf2a5c525e0f806d0"}, "vout": 1, "txid": "a8d6e72bc0ac2d9cc7a1c619566aadbec3d58ac55483d89863c039d48b919952"}], "txid": "3d507a843391c9706122d6d0825bd36bf19dda3a94d151762f76ce1b86262a84", "blocktime": 1537870928, "version": 1, "confirmations": 11514, "time": 1537870928, "locktime": 0, "vsize": 227, "size": 389}