{"hash": "3d55b962f2fe13049e860cfac9cd57611e6215d04c705c6cdc8bacd0cfa0e270", "blockhash": "00000000000000000004ffacab907a6b429b9a5745fa0b75af4234bf69dd7176", "vout": [{"scriptPubKey": {"reqSigs": 1, "hex": "76a914f3b7bf862ffc54d7c8594f1a1cb2517f1945c42e88ac", "addresses": ["1PDfKfFTWRj2zQMo63HpgmXs1GYbqLWCHJ"], "asm": "OP_DUP OP_HASH160 f3b7bf862ffc54d7c8594f1a1cb2517f1945c42e OP_EQUALVERIFY OP_CHECKSIG", "type": "pubkeyhash"}, "value": 0.00790931, "n": 0}, {"scriptPubKey": {"reqSigs": 1, "hex": "a914f5a5fce2abad8a67a885167091a5996d9953b8eb87", "addresses": ["3Q5tKaYHLY1zJTSSnP59GvXL3Q1Zf37HAT"], "asm": "OP_HASH160 f5a5fce2abad8a67a885167091a5996d9953b8eb OP_EQUAL", "type": "scripthash"}, "value": 0.03125659, "n": 1}], "hex": "010000000300d73aa073e22c348c5ffde616f10114780e2baf176a07104482e6b058885632000000008b48304502210086ae7802f7d36e108527d04b60ac058a3cf87cb69f4f06821bed8849c778725802206179d9506122da1604f2b3c3cc12293495da7580151541559669fbc6071258c10141046f0fb4b25f930b366803e547120cf8503d91d7b18599820fe790940ed7451eba31e981117d5430266553cf0c2591e25e0e6f2977bab6f3fa1f49438eca92a004ffffffff3624827485d823c08713a8bd47518fba686ab4d04f355d32aeefd6abababca35000000008a473044022065f50242aa33257ef31be77e41b99ba9e13603c9dd881558402e098add876e5002202bca0c92f12128016228f57a1c8861387d20fc7805ae5dbf85d4674cb15f38d50141046f0fb4b25f930b366803e547120cf8503d91d7b18599820fe790940ed7451eba31e981117d5430266553cf0c2591e25e0e6f2977bab6f3fa1f49438eca92a004ffffffff4dcaaa48c875d10137afd76fae364b344d88e3d00f791e1d990a736d4ea3a5cf010000008a473044022031f1918c04c2c5047e0de51461cd48683bcc8bd9744cb915c497ed65bde1a23202205415452f32e262573935df5f0faf6fc98d391321710c591ca180ed372b0364400141046f0fb4b25f930b366803e547120cf8503d91d7b18599820fe790940ed7451eba31e981117d5430266553cf0c2591e25e0e6f2977bab6f3fa1f49438eca92a004ffffffff0293110c00000000001976a914f3b7bf862ffc54d7c8594f1a1cb2517f1945c42e88ac9bb12f000000000017a914f5a5fce2abad8a67a885167091a5996d9953b8eb8700000000", "vin": [{"sequence": 4294967295, "scriptSig": {"hex": "48304502210086ae7802f7d36e108527d04b60ac058a3cf87cb69f4f06821bed8849c778725802206179d9506122da1604f2b3c3cc12293495da7580151541559669fbc6071258c10141046f0fb4b25f930b366803e547120cf8503d91d7b18599820fe790940ed7451eba31e981117d5430266553cf0c2591e25e0e6f2977bab6f3fa1f49438eca92a004", "asm": "304502210086ae7802f7d36e108527d04b60ac058a3cf87cb69f4f06821bed8849c778725802206179d9506122da1604f2b3c3cc12293495da7580151541559669fbc6071258c1[ALL] 046f0fb4b25f930b366803e547120cf8503d91d7b18599820fe790940ed7451eba31e981117d5430266553cf0c2591e25e0e6f2977bab6f3fa1f49438eca92a004"}, "vout": 0, "txid": "32568858b0e6824410076a17af2b0e781401f116e6fd5f8c342ce273a03ad700"}, {"sequence": 4294967295, "scriptSig": {"hex": "473044022065f50242aa33257ef31be77e41b99ba9e13603c9dd881558402e098add876e5002202bca0c92f12128016228f57a1c8861387d20fc7805ae5dbf85d4674cb15f38d50141046f0fb4b25f930b366803e547120cf8503d91d7b18599820fe790940ed7451eba31e981117d5430266553cf0c2591e25e0e6f2977bab6f3fa1f49438eca92a004", "asm": "3044022065f50242aa33257ef31be77e41b99ba9e13603c9dd881558402e098add876e5002202bca0c92f12128016228f57a1c8861387d20fc7805ae5dbf85d4674cb15f38d5[ALL] 046f0fb4b25f930b366803e547120cf8503d91d7b18599820fe790940ed7451eba31e981117d5430266553cf0c2591e25e0e6f2977bab6f3fa1f49438eca92a004"}, "vout": 0, "txid": "35caabababd6efae325d354fd0b46a68ba8f5147bda81387c023d88574822436"}, {"sequence": 4294967295, "scriptSig": {"hex": "473044022031f1918c04c2c5047e0de51461cd48683bcc8bd9744cb915c497ed65bde1a23202205415452f32e262573935df5f0faf6fc98d391321710c591ca180ed372b0364400141046f0fb4b25f930b366803e547120cf8503d91d7b18599820fe790940ed7451eba31e981117d5430266553cf0c2591e25e0e6f2977bab6f3fa1f49438eca92a004", "asm": "3044022031f1918c04c2c5047e0de51461cd48683bcc8bd9744cb915c497ed65bde1a23202205415452f32e262573935df5f0faf6fc98d391321710c591ca180ed372b036440[ALL] 046f0fb4b25f930b366803e547120cf8503d91d7b18599820fe790940ed7451eba31e981117d5430266553cf0c2591e25e0e6f2977bab6f3fa1f49438eca92a004"}, "vout": 1, "txid": "cfa5a34e6d730a991d1e790fd0e3884d344b36ae6fd7af3701d175c848aaca4d"}], "txid": "3d55b962f2fe13049e860cfac9cd57611e6215d04c705c6cdc8bacd0cfa0e270", "blocktime": 1537875543, "version": 1, "confirmations": 11464, "time": 1537875543, "locktime": 0, "vsize": 614, "size": 614}