{"hash": "352986463d62e9c139d6dae19689e7cbfacb961259998861a298cd2f24450656", "blockhash": "0000000000000000000e13cef7c366c0283d82e591d1acd082e914b08063cdf1", "vout": [{"scriptPubKey": {"reqSigs": 1, "hex": "76a91489f4842733dcd62fb9137cac60e362fa700ef2fd88ac", "addresses": ["1DaSVZpLgibZJwsSsRxDL4DTCmasa6nFJv"], "asm": "OP_DUP OP_HASH160 89f4842733dcd62fb9137cac60e362fa700ef2fd OP_EQUALVERIFY OP_CHECKSIG", "type": "pubkeyhash"}, "value": 0.01337285, "n": 0}, {"scriptPubKey": {"reqSigs": 1, "hex": "00149a22839e7fe408ca42b3f532f201c17ab85a3d6a", "addresses": ["bc1qng3g88nlusyv5s4n75e0yqwp02u950t2uj8vmu"], "asm": "0 9a22839e7fe408ca42b3f532f201c17ab85a3d6a", "type": "witness_v0_keyhash"}, "value": 6.83996349, "n": 1}], "hex": "02000000000101e010fcd7f275035db803fd27b0531efd78dc04978389c95c996ae30c3b363cb10000000000ffffffff02c5671400000000001976a91489f4842733dcd62fb9137cac60e362fa700ef2fd88acbdf4c428000000001600149a22839e7fe408ca42b3f532f201c17ab85a3d6a0247304402200db11874b234fd772e284b620544d09c787a205fd6185bfaa9c0105326e5bb9602203f6c20c7fc8f774ed0cb14f3a818941fb1e7f04e2a9c7eda408e67262638371c0121039334e35be3eb4fd99720cfe0e999ba5adc22dbb641382acda403fbce2b14774d00000000", "vin": [{"txinwitness": ["304402200db11874b234fd772e284b620544d09c787a205fd6185bfaa9c0105326e5bb9602203f6c20c7fc8f774ed0cb14f3a818941fb1e7f04e2a9c7eda408e67262638371c01", "039334e35be3eb4fd99720cfe0e999ba5adc22dbb641382acda403fbce2b14774d"], "sequence": 4294967295, "scriptSig": {"hex": "", "asm": ""}, "vout": 0, "txid": "b13c363b0ce36a995cc989839704dc78fd1e53b027fd03b85d0375f2d7fc10e0"}], "txid": "3d5b54f6d410c2b6853873686b6af54e28d7122720b083e68ec25080710a41e3", "blocktime": 1537871767, "version": 2, "confirmations": 11491, "time": 1537871767, "locktime": 0, "vsize": 144, "size": 225}