{"hash": "172529301a10c5d236a108509095555fc29039c3d1464487140a9ba3196c6754", "blockhash": "0000000000000000000baef3f32e3676a92c3b2e5da21b426e4f302fc371ce76", "vout": [{"scriptPubKey": {"reqSigs": 1, "hex": "a914f02c11091f3ca99c5105a4ba779dad73d523f08b87", "addresses": ["3PavtP1cSfFTs8N5e6fdm2xVHXC2QeHh9p"], "asm": "OP_HASH160 f02c11091f3ca99c5105a4ba779dad73d523f08b OP_EQUAL", "type": "scripthash"}, "value": 0.007748, "n": 0}, {"scriptPubKey": {"reqSigs": 1, "hex": "a91469790c419cae69d28edf5d0eca26fcca11493c2f87", "addresses": ["3BJhtEs3SpzRP6i51VHMqivFManrZpkekN"], "asm": "OP_HASH160 69790c419cae69d28edf5d0eca26fcca11493c2f OP_EQUAL", "type": "scripthash"}, "value": 8.54102803, "n": 1}], "hex": "01000000000101ec371fd801a72b5046c4345700b749e2db361be50f165efd97da268af82b06590100000017160014aec375da2adb3d541088520352c76878f5746aedffffffff0290d20b000000000017a914f02c11091f3ca99c5105a4ba779dad73d523f08b871393e8320000000017a91469790c419cae69d28edf5d0eca26fcca11493c2f870247304402206b5341ad430128c4ef70098d3404762fd50085a5e90a66be112eda9907d6129c02200d3c79263fae712f8af82700460c1e4e368ed6330ff80529d3ea6e547ea917560121032e076135de8aaddc17b61a9fc67e4dd59b8018ae9f9c021adb560263718b1a7f00000000", "vin": [{"txinwitness": ["304402206b5341ad430128c4ef70098d3404762fd50085a5e90a66be112eda9907d6129c02200d3c79263fae712f8af82700460c1e4e368ed6330ff80529d3ea6e547ea9175601", "032e076135de8aaddc17b61a9fc67e4dd59b8018ae9f9c021adb560263718b1a7f"], "sequence": 4294967295, "scriptSig": {"hex": "160014aec375da2adb3d541088520352c76878f5746aed", "asm": "0014aec375da2adb3d541088520352c76878f5746aed"}, "vout": 1, "txid": "59062bf88a26da97fd5e160fe51b36dbe249b7005734c446502ba701d81f37ec"}], "txid": "3d6365371edba79195356a658187f93679a9818b3f65ae163ebe160d8e8f1ee1", "blocktime": 1537876114, "version": 1, "confirmations": 11460, "time": 1537876114, "locktime": 0, "vsize": 166, "size": 247}