{"hash": "3d63bb0595c894f8a81800b8fdf7eae146b09c5b7f4c32a0e92399c1fc8e6076", "blockhash": "0000000000000000001e0dab787dd257d1dbfcb92a98c2207d5e1078be1f4165", "vout": [{"scriptPubKey": {"reqSigs": 1, "hex": "76a914a3c2b64ce5f68b6dd27ec8ae3ee1749afa1b5b5188ac", "addresses": ["1FvtQ6yVDqikpZKGzqwfRcj9sqjWekqRSG"], "asm": "OP_DUP OP_HASH160 a3c2b64ce5f68b6dd27ec8ae3ee1749afa1b5b51 OP_EQUALVERIFY OP_CHECKSIG", "type": "pubkeyhash"}, "value": 0.02, "n": 0}, {"scriptPubKey": {"reqSigs": 1, "hex": "76a914b7888cc82fdecaf88856880550ac43fe948b8cae88ac", "addresses": ["1HjSEm71Kqt31Va9JhJk2SvztwotZkQJFN"], "asm": "OP_DUP OP_HASH160 b7888cc82fdecaf88856880550ac43fe948b8cae OP_EQUALVERIFY OP_CHECKSIG", "type": "pubkeyhash"}, "value": 0.01340364, "n": 1}], "hex": "020000000115d22a1ce8ef1437c97250b61fec8160b7c87fee05b3d56392b0b2af81d523ea010000006a47304402202be3deaa794875109f9bba177e3e49b875af5cece7f4288ad87b20854f110a450220537a3a93b35e05aa7489ad3d192a796a2a38717dcd5e4986dff50cdb800d09aa012103f64d18070174a7d64ec0b63a2cf11fcf39cd553907cc09a47a94df2f3b817aecffffffff0280841e00000000001976a914a3c2b64ce5f68b6dd27ec8ae3ee1749afa1b5b5188accc731400000000001976a914b7888cc82fdecaf88856880550ac43fe948b8cae88ac00000000", "vin": [{"sequence": 4294967295, "scriptSig": {"hex": "47304402202be3deaa794875109f9bba177e3e49b875af5cece7f4288ad87b20854f110a450220537a3a93b35e05aa7489ad3d192a796a2a38717dcd5e4986dff50cdb800d09aa012103f64d18070174a7d64ec0b63a2cf11fcf39cd553907cc09a47a94df2f3b817aec", "asm": "304402202be3deaa794875109f9bba177e3e49b875af5cece7f4288ad87b20854f110a450220537a3a93b35e05aa7489ad3d192a796a2a38717dcd5e4986dff50cdb800d09aa[ALL] 03f64d18070174a7d64ec0b63a2cf11fcf39cd553907cc09a47a94df2f3b817aec"}, "vout": 1, "txid": "ea23d581afb2b09263d5b305ee7fc8b76081ec1fb65072c93714efe81c2ad215"}], "txid": "3d63bb0595c894f8a81800b8fdf7eae146b09c5b7f4c32a0e92399c1fc8e6076", "blocktime": 1537872475, "version": 2, "confirmations": 11486, "time": 1537872475, "locktime": 0, "vsize": 225, "size": 225}