{"hash": "3d672f39f7f076f69d293e311fc945e07579ab7d489c9b8737ccac1633d734c9", "blockhash": "00000000000000000004ffacab907a6b429b9a5745fa0b75af4234bf69dd7176", "vout": [{"scriptPubKey": {"reqSigs": 1, "hex": "76a914a29b23bef314f2ff5175519dc71f52d53ade94eb88ac", "addresses": ["1FpnKNJ8bVjLh7FuLVpw46G4Uw4GM8C2MZ"], "asm": "OP_DUP OP_HASH160 a29b23bef314f2ff5175519dc71f52d53ade94eb OP_EQUALVERIFY OP_CHECKSIG", "type": "pubkeyhash"}, "value": 0.01246958, "n": 0}, {"scriptPubKey": {"reqSigs": 1, "hex": "76a9147bde0895bad5e2883480b9f4fdc3ea2c2dcaaec588ac", "addresses": ["1CHx6kpoQ3zjx8EEjt82uYJXsdrZdoWMcq"], "asm": "OP_DUP OP_HASH160 7bde0895bad5e2883480b9f4fdc3ea2c2dcaaec5 OP_EQUALVERIFY OP_CHECKSIG", "type": "pubkeyhash"}, "value": 0.1435, "n": 1}], "hex": "0100000002b25f3c79eb5e65badb5514baae6229e0e64623ff6f579826500db0a5911a7239010000006b483045022100eb6fe6d1dc1c0c050f4cb68ccfe6cc495246d4d67cae02c61a8be0abe1b19a8a02207a6c538e2ec9cae05a66ff2859aa88f160d8584c9ce590a80b67d8e145c3333a012103de6579a2d53d453c496ac893eaf597699bc28f47330be0e89d164561fb7a9952ffffffffc636902a374118bcbe47dc055cb959d65af932212319fd49d807040b3cb389db010000006a4730440220774e55b0f43f3d02bdb0058bd167cef0fc6e824d6546f47d184d2672c8d30af802207d455f65f7789b84cf11e93a5cfe0ad6bb48834908352c2a441d38a3b140b090012103c1e2b1b4db62c534897de3c1eb0d60ca10d2f6d76eb5ac63c9aa342b5a17088dffffffff02ee061300000000001976a914a29b23bef314f2ff5175519dc71f52d53ade94eb88acb0f6da00000000001976a9147bde0895bad5e2883480b9f4fdc3ea2c2dcaaec588ac00000000", "vin": [{"sequence": 4294967295, "scriptSig": {"hex": "483045022100eb6fe6d1dc1c0c050f4cb68ccfe6cc495246d4d67cae02c61a8be0abe1b19a8a02207a6c538e2ec9cae05a66ff2859aa88f160d8584c9ce590a80b67d8e145c3333a012103de6579a2d53d453c496ac893eaf597699bc28f47330be0e89d164561fb7a9952", "asm": "3045022100eb6fe6d1dc1c0c050f4cb68ccfe6cc495246d4d67cae02c61a8be0abe1b19a8a02207a6c538e2ec9cae05a66ff2859aa88f160d8584c9ce590a80b67d8e145c3333a[ALL] 03de6579a2d53d453c496ac893eaf597699bc28f47330be0e89d164561fb7a9952"}, "vout": 1, "txid": "39721a91a5b00d502698576fff2346e6e02962aeba1455dbba655eeb793c5fb2"}, {"sequence": 4294967295, "scriptSig": {"hex": "4730440220774e55b0f43f3d02bdb0058bd167cef0fc6e824d6546f47d184d2672c8d30af802207d455f65f7789b84cf11e93a5cfe0ad6bb48834908352c2a441d38a3b140b090012103c1e2b1b4db62c534897de3c1eb0d60ca10d2f6d76eb5ac63c9aa342b5a17088d", "asm": "30440220774e55b0f43f3d02bdb0058bd167cef0fc6e824d6546f47d184d2672c8d30af802207d455f65f7789b84cf11e93a5cfe0ad6bb48834908352c2a441d38a3b140b090[ALL] 03c1e2b1b4db62c534897de3c1eb0d60ca10d2f6d76eb5ac63c9aa342b5a17088d"}, "vout": 1, "txid": "db89b33c0b0407d849fd19232132f95ad659b95c05dc47bebc1841372a9036c6"}], "txid": "3d672f39f7f076f69d293e311fc945e07579ab7d489c9b8737ccac1633d734c9", "blocktime": 1537875543, "version": 1, "confirmations": 11464, "time": 1537875543, "locktime": 0, "vsize": 373, "size": 373}