{"hash": "3d6c9ebf3f945de010108da465f6b7c9b919b2a57bc689811ad5eb06c71d0c67", "blockhash": "0000000000000000001f76057863aec43deb6fa401d9628bb513d65a8098bfab", "vout": [{"scriptPubKey": {"reqSigs": 1, "hex": "76a914d5848c77fa7a6e355cb374a97ae651e629a8c94788ac", "addresses": ["1LTyiWKCPMk2zQ8nAKSUrwK8R2NHKD5RwA"], "asm": "OP_DUP OP_HASH160 d5848c77fa7a6e355cb374a97ae651e629a8c947 OP_EQUALVERIFY OP_CHECKSIG", "type": "pubkeyhash"}, "value": 0.01563, "n": 0}, {"scriptPubKey": {"reqSigs": 1, "hex": "76a9144e9c50d72695acfc8f6044ef902b30ff9ccc2c1f88ac", "addresses": ["18AexyUniDTTNZucJvwnmfQ3zJ7btvqGfS"], "asm": "OP_DUP OP_HASH160 4e9c50d72695acfc8f6044ef902b30ff9ccc2c1f OP_EQUALVERIFY OP_CHECKSIG", "type": "pubkeyhash"}, "value": 0.03432774, "n": 1}], "hex": "0100000001a00063072b1ddf9bc97774f38e648f6d83911334e3b1888de984c657de7a4e1b000000006a4730440220198a3f9e3396706b257f42edbb8cab23137597eac2a58046b22d77f4363e208e022073c13b14e1401de60abe04a9b1862546e457bc7cd5eaed53f0d674d6723722220121038b978af0905c6aa3064822c6d3fc49c0fdc7fe616035f5a0c5ea0125e151f7aefdffffff0278d91700000000001976a914d5848c77fa7a6e355cb374a97ae651e629a8c94788ac46613400000000001976a9144e9c50d72695acfc8f6044ef902b30ff9ccc2c1f88ac14490800", "vin": [{"sequence": 4294967293, "scriptSig": {"hex": "4730440220198a3f9e3396706b257f42edbb8cab23137597eac2a58046b22d77f4363e208e022073c13b14e1401de60abe04a9b1862546e457bc7cd5eaed53f0d674d6723722220121038b978af0905c6aa3064822c6d3fc49c0fdc7fe616035f5a0c5ea0125e151f7ae", "asm": "30440220198a3f9e3396706b257f42edbb8cab23137597eac2a58046b22d77f4363e208e022073c13b14e1401de60abe04a9b1862546e457bc7cd5eaed53f0d674d672372222[ALL] 038b978af0905c6aa3064822c6d3fc49c0fdc7fe616035f5a0c5ea0125e151f7ae"}, "vout": 0, "txid": "1b4e7ade57c684e98d88b1e3341391836d8f648ef37477c99bdf1d2b076300a0"}], "txid": "3d6c9ebf3f945de010108da465f6b7c9b919b2a57bc689811ad5eb06c71d0c67", "blocktime": 1537873891, "version": 1, "confirmations": 11479, "time": 1537873891, "locktime": 542996, "vsize": 225, "size": 225}