{"hash": "3d728c0f0d629f0820434934b52da1db873ab132c3d7682f346ad3f052425649", "blockhash": "00000000000000000024a2167bbff67b0be802c0b01cdd79e6331c2be6459f87", "vout": [{"scriptPubKey": {"reqSigs": 1, "hex": "76a914d243e6abb9a60fbff430b421d2df4b7d59ec186088ac", "addresses": ["1LAnF8h3qMGx3TSwNUHVneBZUEpwE4gu3D"], "asm": "OP_DUP OP_HASH160 d243e6abb9a60fbff430b421d2df4b7d59ec1860 OP_EQUALVERIFY OP_CHECKSIG", "type": "pubkeyhash"}, "value": 0.00076972, "n": 0}, {"scriptPubKey": {"reqSigs": 1, "hex": "76a9143851f34d13937b673a7d24a1950bb5b21ce94af388ac", "addresses": ["168o1kqNquEJeR9vosUB5fw4eAwcVAgh8P"], "asm": "OP_DUP OP_HASH160 3851f34d13937b673a7d24a1950bb5b21ce94af3 OP_EQUALVERIFY OP_CHECKSIG", "type": "pubkeyhash"}, "value": 5.46e-06, "n": 1}, {"scriptPubKey": {"type": "nulldata", "hex": "6a146f6d6e69000000000000001f00000136eafb6660", "asm": "OP_RETURN 6f6d6e69000000000000001f00000136eafb6660"}, "value": 0.0, "n": 2}], "hex": "0100000002210e34927bf4d62f70739bbe075c57780cac7804ec96deccad3d3b278288cb66020000006b483045022100aecd1da361213dbe52be96ba12b7cbbd75a82e4ec4212f466f103dce8a4dc1a402207bb633912dbef83365710e59db49c98d0c28852d49f85365ccaf38d6bd16c8df0121033114fa0d08998c3e4a3e093c100cd739bc6ed6fadcdb82c6db28698a5931c0ebffffffff445b2e1e4f235ada8a6ce28b21047bab53f7177f64d3282df0f811ea3b08ec54000000006b483045022100d7a66d8c21d8a26721e6f947794276f7f1d6fb0c2c3e16fa0708f4b4ff5244aa022011dc409eeba52bff59cb39a979a1f880d35e411747d89c6da47f9ce57c4473c801210271977291b74f1f5f5c42157e8aae804664eaaeccfd097918450d37f28fb94d77ffffffff03ac2c0100000000001976a914d243e6abb9a60fbff430b421d2df4b7d59ec186088ac22020000000000001976a9143851f34d13937b673a7d24a1950bb5b21ce94af388ac0000000000000000166a146f6d6e69000000000000001f00000136eafb666000000000", "vin": [{"sequence": 4294967295, "scriptSig": {"hex": "483045022100aecd1da361213dbe52be96ba12b7cbbd75a82e4ec4212f466f103dce8a4dc1a402207bb633912dbef83365710e59db49c98d0c28852d49f85365ccaf38d6bd16c8df0121033114fa0d08998c3e4a3e093c100cd739bc6ed6fadcdb82c6db28698a5931c0eb", "asm": "3045022100aecd1da361213dbe52be96ba12b7cbbd75a82e4ec4212f466f103dce8a4dc1a402207bb633912dbef83365710e59db49c98d0c28852d49f85365ccaf38d6bd16c8df[ALL] 033114fa0d08998c3e4a3e093c100cd739bc6ed6fadcdb82c6db28698a5931c0eb"}, "vout": 2, "txid": "66cb8882273b3dadccde96ec0478ac0c78575c07be9b73702fd6f47b92340e21"}, {"sequence": 4294967295, "scriptSig": {"hex": "483045022100d7a66d8c21d8a26721e6f947794276f7f1d6fb0c2c3e16fa0708f4b4ff5244aa022011dc409eeba52bff59cb39a979a1f880d35e411747d89c6da47f9ce57c4473c801210271977291b74f1f5f5c42157e8aae804664eaaeccfd097918450d37f28fb94d77", "asm": "3045022100d7a66d8c21d8a26721e6f947794276f7f1d6fb0c2c3e16fa0708f4b4ff5244aa022011dc409eeba52bff59cb39a979a1f880d35e411747d89c6da47f9ce57c4473c8[ALL] 0271977291b74f1f5f5c42157e8aae804664eaaeccfd097918450d37f28fb94d77"}, "vout": 0, "txid": "54ec083bea11f8f02d28d3647f17f753ab7b04218be26c8ada5a234f1e2e5b44"}], "txid": "3d728c0f0d629f0820434934b52da1db873ab132c3d7682f346ad3f052425649", "blocktime": 1537870564, "version": 1, "confirmations": 11515, "time": 1537870564, "locktime": 0, "vsize": 405, "size": 405}