{"hash": "3d753832842137a0f07c2e6e866e63479351fa3550906de2e7ea8f705e71f300", "blockhash": "000000000000000000022b45ed06c6f4ccd3cf7fb5ba4856ebd2e58215665228", "vout": [{"scriptPubKey": {"reqSigs": 1, "hex": "76a914a950fcde32be461b2de674a93d28f1f14ed23fed88ac", "addresses": ["1GSGDYnFxeH5NRoKGdQppbavRjtUk5P4nw"], "asm": "OP_DUP OP_HASH160 a950fcde32be461b2de674a93d28f1f14ed23fed OP_EQUALVERIFY OP_CHECKSIG", "type": "pubkeyhash"}, "value": 0.00053463, "n": 0}, {"scriptPubKey": {"reqSigs": 1, "hex": "a9145b7272658440e7fc59aa4cde9c135e37e226a69887", "addresses": ["3A2YWubeLEJc2gtsZV8sKyWdFrNshWUeyE"], "asm": "OP_HASH160 5b7272658440e7fc59aa4cde9c135e37e226a698 OP_EQUAL", "type": "scripthash"}, "value": 0.01638, "n": 1}], "hex": "0100000001a9d774ef4aba9e5fc75389701626c5daf9cb1e577e06a49519dac673d2fd86cb010000008b4830450221009c68a84a5354be2b8090bce23bf40f7097347d0bdd8382d72bc66dcfb09672f30220774b2113fc47788ba9ba6dcc6b547da509b038cf9756af769d8f2569120eb24b014104148ebcade208652fcef35c7c4f6232d2a78c7fdb8aba0e1546d3eab284cd46db3da99ff5e4f4477f045cec9f2193134c058d2a224dbdc9b2a9be23508917b3c1ffffffff02d7d00000000000001976a914a950fcde32be461b2de674a93d28f1f14ed23fed88ac70fe18000000000017a9145b7272658440e7fc59aa4cde9c135e37e226a6988700000000", "vin": [{"sequence": 4294967295, "scriptSig": {"hex": "4830450221009c68a84a5354be2b8090bce23bf40f7097347d0bdd8382d72bc66dcfb09672f30220774b2113fc47788ba9ba6dcc6b547da509b038cf9756af769d8f2569120eb24b014104148ebcade208652fcef35c7c4f6232d2a78c7fdb8aba0e1546d3eab284cd46db3da99ff5e4f4477f045cec9f2193134c058d2a224dbdc9b2a9be23508917b3c1", "asm": "30450221009c68a84a5354be2b8090bce23bf40f7097347d0bdd8382d72bc66dcfb09672f30220774b2113fc47788ba9ba6dcc6b547da509b038cf9756af769d8f2569120eb24b[ALL] 04148ebcade208652fcef35c7c4f6232d2a78c7fdb8aba0e1546d3eab284cd46db3da99ff5e4f4477f045cec9f2193134c058d2a224dbdc9b2a9be23508917b3c1"}, "vout": 1, "txid": "cb86fdd273c6da1995a4067e571ecbf9dac52616708953c75f9eba4aef74d7a9"}], "txid": "3d753832842137a0f07c2e6e866e63479351fa3550906de2e7ea8f705e71f300", "blocktime": 1537869901, "version": 1, "confirmations": 11522, "time": 1537869901, "locktime": 0, "vsize": 256, "size": 256}