{"hash": "3d79a2ccb407d196da09e2ae8774fada4980d1e294fe408ad90912170ec24860", "blockhash": "00000000000000000017f5eb5941039fbcee6240d03bc1f2f8e35350df66a1d8", "vout": [{"scriptPubKey": {"reqSigs": 1, "hex": "76a9140bd42bcd3cc74a0b856480a48845ecfd5683cd6988ac", "addresses": ["125Yc1xxhuEVHCTY4BDscpN3eHnXc9KYCh"], "asm": "OP_DUP OP_HASH160 0bd42bcd3cc74a0b856480a48845ecfd5683cd69 OP_EQUALVERIFY OP_CHECKSIG", "type": "pubkeyhash"}, "value": 0.896, "n": 0}, {"scriptPubKey": {"reqSigs": 1, "hex": "76a91413f943324c761ccb9e1ec55ae9ff97cb8a21beb088ac", "addresses": ["12pcShwoXUUfHoMzGtYrR4cwjet4tkzv2o"], "asm": "OP_DUP OP_HASH160 13f943324c761ccb9e1ec55ae9ff97cb8a21beb0 OP_EQUALVERIFY OP_CHECKSIG", "type": "pubkeyhash"}, "value": 2.96396, "n": 1}], "hex": "0100000001802186c3250da1d7f4605b591c32939cfc13c9659b8c38b5f02d9716bc4832c0000000006a47304402202d1b2db96b62284463c417838fdf738d9e3263ae9bfa74b5fe9c3df33e9289e7022054199e94b2adeb13dfbdd0263155e2d6c9adb67355ff2d4bba46657dfedf68ce012102805124e2af5ebf9e7fbbd4fa6c3471aed44f3a33cf74996823a00d2b6cfe2cf1ffffffff0200305705000000001976a9140bd42bcd3cc74a0b856480a48845ecfd5683cd6988ace0a4aa11000000001976a91413f943324c761ccb9e1ec55ae9ff97cb8a21beb088ac00000000", "vin": [{"sequence": 4294967295, "scriptSig": {"hex": "47304402202d1b2db96b62284463c417838fdf738d9e3263ae9bfa74b5fe9c3df33e9289e7022054199e94b2adeb13dfbdd0263155e2d6c9adb67355ff2d4bba46657dfedf68ce012102805124e2af5ebf9e7fbbd4fa6c3471aed44f3a33cf74996823a00d2b6cfe2cf1", "asm": "304402202d1b2db96b62284463c417838fdf738d9e3263ae9bfa74b5fe9c3df33e9289e7022054199e94b2adeb13dfbdd0263155e2d6c9adb67355ff2d4bba46657dfedf68ce[ALL] 02805124e2af5ebf9e7fbbd4fa6c3471aed44f3a33cf74996823a00d2b6cfe2cf1"}, "vout": 0, "txid": "c03248bc16972df0b5388c9b65c913fc9c93321c595b60f4d7a10d25c3862180"}], "txid": "3d79a2ccb407d196da09e2ae8774fada4980d1e294fe408ad90912170ec24860", "blocktime": 1537874412, "version": 1, "confirmations": 11466, "time": 1537874412, "locktime": 0, "vsize": 225, "size": 225}