{"hash": "3d7a3ca2b11afe770b30ee7ed19e0b08592136b3b8b0ebe84305be9b4de08a05", "blockhash": "0000000000000000001f0ddff1eddb255c1121bcd4da4f1bc9a0da00cae72433", "vout": [{"scriptPubKey": {"reqSigs": 1, "hex": "76a91451fdad8eac8a83a9360b9ce96b82b088eb52b46788ac", "addresses": ["18UXdPj3L2s6JseY9HRAXVQan4mD6s6FQx"], "asm": "OP_DUP OP_HASH160 51fdad8eac8a83a9360b9ce96b82b088eb52b467 OP_EQUALVERIFY OP_CHECKSIG", "type": "pubkeyhash"}, "value": 0.33437691, "n": 0}, {"scriptPubKey": {"reqSigs": 1, "hex": "76a914cbc55a701184abde4e9ae8d2c510079ec516864188ac", "addresses": ["1KaSbHfdGfbLNYMDE7Xo6SttgmPPfYnKsd"], "asm": "OP_DUP OP_HASH160 cbc55a701184abde4e9ae8d2c510079ec5168641 OP_EQUALVERIFY OP_CHECKSIG", "type": "pubkeyhash"}, "value": 0.022254, "n": 1}], "hex": "02000000012d10cc6b71bfdb7f3938c1d2dfa96f5124f56cc0ea9a9971ae4c452379d81275000000006b483045022100cfe1ed0b5c2ec8a84c95fd0c874ec4c395e4754925a606d9c61e5acf9a3d0e1b0220220599a85f264ee4955d003b9955c107990a983050654574d68cfbb5d6a4cb35012102452994d9e7d6f968452f64492bc758c3c1cebdb581bb835d911ac7a7490dbce5feffffff02fb37fe01000000001976a91451fdad8eac8a83a9360b9ce96b82b088eb52b46788acf8f42100000000001976a914cbc55a701184abde4e9ae8d2c510079ec516864188ac10490800", "vin": [{"sequence": 4294967294, "scriptSig": {"hex": "483045022100cfe1ed0b5c2ec8a84c95fd0c874ec4c395e4754925a606d9c61e5acf9a3d0e1b0220220599a85f264ee4955d003b9955c107990a983050654574d68cfbb5d6a4cb35012102452994d9e7d6f968452f64492bc758c3c1cebdb581bb835d911ac7a7490dbce5", "asm": "3045022100cfe1ed0b5c2ec8a84c95fd0c874ec4c395e4754925a606d9c61e5acf9a3d0e1b0220220599a85f264ee4955d003b9955c107990a983050654574d68cfbb5d6a4cb35[ALL] 02452994d9e7d6f968452f64492bc758c3c1cebdb581bb835d911ac7a7490dbce5"}, "vout": 0, "txid": "7512d87923454cae71999aeac06cf524516fa9dfd2c138397fdbbf716bcc102d"}], "txid": "3d7a3ca2b11afe770b30ee7ed19e0b08592136b3b8b0ebe84305be9b4de08a05", "blocktime": 1537872018, "version": 2, "confirmations": 11489, "time": 1537872018, "locktime": 542992, "vsize": 226, "size": 226}