{"hash": "3d7b149c2d7e58b1e6f10bc01df2db435109c50d17784ccb766976940246f63e", "blockhash": "0000000000000000000e13cef7c366c0283d82e591d1acd082e914b08063cdf1", "vout": [{"scriptPubKey": {"reqSigs": 1, "hex": "a9142b34fedc36739a2da54b0f25cb12c8786932cbde87", "addresses": ["35dUTzEmW2cXtnmNHCLY2j29H8s2f1rg4L"], "asm": "OP_HASH160 2b34fedc36739a2da54b0f25cb12c8786932cbde OP_EQUAL", "type": "scripthash"}, "value": 0.022, "n": 0}, {"scriptPubKey": {"reqSigs": 1, "hex": "76a914f560f407fec6e80a3583f61d082dd8914685f16488ac", "addresses": ["1PNShRqJYRByF2Mfv2gXoh1VWsaubcekNh"], "asm": "OP_DUP OP_HASH160 f560f407fec6e80a3583f61d082dd8914685f164 OP_EQUALVERIFY OP_CHECKSIG", "type": "pubkeyhash"}, "value": 0.00268979, "n": 1}], "hex": "0100000003184c93a9bc443bd87169d40fd3eb67770dc266e09c327d3e53b4ea60c8653ca4110000006a47304402206967b8e0e3ef5f8ecd27da31817f0c144df766eba6ce4443811cc943d15adf650220500d5f30f05702cca6574564b5f4391b3c9292e91dbc0f33b850df4556f17950012102290188b97bc678f76287afd63b69bab12d68a158fda9dfb574f2207c72a94370ffffffff1fc189aea2d45c3b47f48303895107f4c76288ac928c00db0f3a47a1fa4ca9b9d90000006b483045022100f0d5eda3ab7b933fed9b55ab59dd7d14951fbfd7d0bc238cd3545b9bc762bcbe0220344539c0d9226e48ef36e389dd2fd839d076157669df2dc74c351ab8e2ca45e5012102290188b97bc678f76287afd63b69bab12d68a158fda9dfb574f2207c72a94370ffffffff267945ec717e0df91855bf3f3e635fee24a933a943df75c85a7085731fc3ade1010000006a4730440220615aae5065c77c888d778f5cc933514f5710967cb63934de98963b8aedf6469502201aba72e5db16461597d82c553c74c8dbb5afff68493f7373ca04ed1f188f9214012103a2f1481e6af118de58e7e89ba61b73e9236ef8dd1b1a565058a17d0604b6b15bffffffff02c09121000000000017a9142b34fedc36739a2da54b0f25cb12c8786932cbde87b31a0400000000001976a914f560f407fec6e80a3583f61d082dd8914685f16488ac00000000", "vin": [{"sequence": 4294967295, "scriptSig": {"hex": "47304402206967b8e0e3ef5f8ecd27da31817f0c144df766eba6ce4443811cc943d15adf650220500d5f30f05702cca6574564b5f4391b3c9292e91dbc0f33b850df4556f17950012102290188b97bc678f76287afd63b69bab12d68a158fda9dfb574f2207c72a94370", "asm": "304402206967b8e0e3ef5f8ecd27da31817f0c144df766eba6ce4443811cc943d15adf650220500d5f30f05702cca6574564b5f4391b3c9292e91dbc0f33b850df4556f17950[ALL] 02290188b97bc678f76287afd63b69bab12d68a158fda9dfb574f2207c72a94370"}, "vout": 17, "txid": "a43c65c860eab4533e7d329ce066c20d7767ebd30fd46971d83b44bca9934c18"}, {"sequence": 4294967295, "scriptSig": {"hex": "483045022100f0d5eda3ab7b933fed9b55ab59dd7d14951fbfd7d0bc238cd3545b9bc762bcbe0220344539c0d9226e48ef36e389dd2fd839d076157669df2dc74c351ab8e2ca45e5012102290188b97bc678f76287afd63b69bab12d68a158fda9dfb574f2207c72a94370", "asm": "3045022100f0d5eda3ab7b933fed9b55ab59dd7d14951fbfd7d0bc238cd3545b9bc762bcbe0220344539c0d9226e48ef36e389dd2fd839d076157669df2dc74c351ab8e2ca45e5[ALL] 02290188b97bc678f76287afd63b69bab12d68a158fda9dfb574f2207c72a94370"}, "vout": 217, "txid": "b9a94cfaa1473a0fdb008c92ac8862c7f40751890383f4473b5cd4a2ae89c11f"}, {"sequence": 4294967295, "scriptSig": {"hex": "4730440220615aae5065c77c888d778f5cc933514f5710967cb63934de98963b8aedf6469502201aba72e5db16461597d82c553c74c8dbb5afff68493f7373ca04ed1f188f9214012103a2f1481e6af118de58e7e89ba61b73e9236ef8dd1b1a565058a17d0604b6b15b", "asm": "30440220615aae5065c77c888d778f5cc933514f5710967cb63934de98963b8aedf6469502201aba72e5db16461597d82c553c74c8dbb5afff68493f7373ca04ed1f188f9214[ALL] 03a2f1481e6af118de58e7e89ba61b73e9236ef8dd1b1a565058a17d0604b6b15b"}, "vout": 1, "txid": "e1adc31f7385705ac875df43a933a924ee5f633e3fbf5518f90d7e71ec457926"}], "txid": "3d7b149c2d7e58b1e6f10bc01df2db435109c50d17784ccb766976940246f63e", "blocktime": 1537871767, "version": 1, "confirmations": 11491, "time": 1537871767, "locktime": 0, "vsize": 518, "size": 518}