{"hash": "3d7c2061a8f21663ba61ab12de34944136b441269520e46bd0fb1b94e8ee3958", "blockhash": "00000000000000000018f53835495a110e01622372bf6ae95dc86f2b0ab887b0", "vout": [{"scriptPubKey": {"reqSigs": 1, "hex": "76a914d9e8c61cb7826c5545e7c7fcfe0daa0248c46f6488ac", "addresses": ["1LsCV3JHqXpZDKXk8D2nznNBGmQoTZB1Sz"], "asm": "OP_DUP OP_HASH160 d9e8c61cb7826c5545e7c7fcfe0daa0248c46f64 OP_EQUALVERIFY OP_CHECKSIG", "type": "pubkeyhash"}, "value": 0.01365322, "n": 0}], "hex": "01000000013db9a9c3641ccd82e8fc0d90987bf875544731f6dc0d2f216dc9ca7122f9e3e0000000006a47304402206a8a686c69bda7aaff04204ec101c69ab59b423e37427b46ffea6470b092ea03022033f946c0caf3db7ab412ec7979f01f56a25787fa88e2073dd1bb57175efbe34d01210354977df8faaf4bc81e2cb860be0be81dbe34bb3b87878769f9886e7113e5b4c3ffffffff014ad51400000000001976a914d9e8c61cb7826c5545e7c7fcfe0daa0248c46f6488ac00000000", "vin": [{"sequence": 4294967295, "scriptSig": {"hex": "47304402206a8a686c69bda7aaff04204ec101c69ab59b423e37427b46ffea6470b092ea03022033f946c0caf3db7ab412ec7979f01f56a25787fa88e2073dd1bb57175efbe34d01210354977df8faaf4bc81e2cb860be0be81dbe34bb3b87878769f9886e7113e5b4c3", "asm": "304402206a8a686c69bda7aaff04204ec101c69ab59b423e37427b46ffea6470b092ea03022033f946c0caf3db7ab412ec7979f01f56a25787fa88e2073dd1bb57175efbe34d[ALL] 0354977df8faaf4bc81e2cb860be0be81dbe34bb3b87878769f9886e7113e5b4c3"}, "vout": 0, "txid": "e0e3f92271cac96d212f0ddcf631475475f87b98900dfce882cd1c64c3a9b93d"}], "txid": "3d7c2061a8f21663ba61ab12de34944136b441269520e46bd0fb1b94e8ee3958", "blocktime": 1537870928, "version": 1, "confirmations": 11512, "time": 1537870928, "locktime": 0, "vsize": 191, "size": 191}