{"hash": "3d7e90e27556a45ee60e5a34fbf786eeb746e4f24290d08c3aa13f827ed7f62f", "blockhash": "00000000000000000017f5eb5941039fbcee6240d03bc1f2f8e35350df66a1d8", "vout": [{"scriptPubKey": {"reqSigs": 1, "hex": "76a9144a0f1e2f2b0d7daeec5265f10bbbbe08ed725e8988ac", "addresses": ["17kb7c9ndg7ioSuzMWEHWECdEVUegNkcGc"], "asm": "OP_DUP OP_HASH160 4a0f1e2f2b0d7daeec5265f10bbbbe08ed725e89 OP_EQUALVERIFY OP_CHECKSIG", "type": "pubkeyhash"}, "value": 0.00998208, "n": 0}], "hex": "010000000102577bc6580d055d19eb6bf26d0afb6cd22c04e8c7b20993e2b2d91d673878e0010000006a473044022076519ee39288936fc4bb86f37a092ffc30d6d78468704b7b7d19e0c081bd628002203dd0526381726efd8671f023b52a722b09a274114355ddaae46ea7a83ff14a200121039b149a28c0f6b45dee14180ccd1a576ecb6a7a09c190eed9acaa7469c8d77ed1ffffffff01403b0f00000000001976a9144a0f1e2f2b0d7daeec5265f10bbbbe08ed725e8988ac00000000", "vin": [{"sequence": 4294967295, "scriptSig": {"hex": "473044022076519ee39288936fc4bb86f37a092ffc30d6d78468704b7b7d19e0c081bd628002203dd0526381726efd8671f023b52a722b09a274114355ddaae46ea7a83ff14a200121039b149a28c0f6b45dee14180ccd1a576ecb6a7a09c190eed9acaa7469c8d77ed1", "asm": "3044022076519ee39288936fc4bb86f37a092ffc30d6d78468704b7b7d19e0c081bd628002203dd0526381726efd8671f023b52a722b09a274114355ddaae46ea7a83ff14a20[ALL] 039b149a28c0f6b45dee14180ccd1a576ecb6a7a09c190eed9acaa7469c8d77ed1"}, "vout": 1, "txid": "e07838671dd9b2e29309b2c7e8042cd26cfb0a6df26beb195d050d58c67b5702"}], "txid": "3d7e90e27556a45ee60e5a34fbf786eeb746e4f24290d08c3aa13f827ed7f62f", "blocktime": 1537874412, "version": 1, "confirmations": 11467, "time": 1537874412, "locktime": 0, "vsize": 191, "size": 191}