{"hash": "1c1f64025bba67b4fb0e83db447a18faa833be02e898dfd3bfdbf38c6065ae7f", "blockhash": "000000000000000000022b45ed06c6f4ccd3cf7fb5ba4856ebd2e58215665228", "vout": [{"scriptPubKey": {"reqSigs": 1, "hex": "a914cfaabfe8c271f99a4364b5197ba50c6cddb7adb987", "addresses": ["3Ld4M9RPwEG3VeQbHcC1PsKUndQL7VYLZP"], "asm": "OP_HASH160 cfaabfe8c271f99a4364b5197ba50c6cddb7adb9 OP_EQUAL", "type": "scripthash"}, "value": 0.10917106, "n": 0}, {"scriptPubKey": {"reqSigs": 1, "hex": "a9146f89c4b571f9424f3bc9fbe94bf453a0c44d98ba87", "addresses": ["3Brmy9p3uUkCELbh6h7mdbDCj9Hp4CcNVx"], "asm": "OP_HASH160 6f89c4b571f9424f3bc9fbe94bf453a0c44d98ba OP_EQUAL", "type": "scripthash"}, "value": 0.00069303, "n": 1}], "hex": "01000000000101ea849d24a404fb0bcf42c384d64b63dd4e2d755988151a9cee461789633910ac0100000023220020319ade260dadc502c09774ea2f715c40d183c077f06a90e686bd81243129dfbeffffffff02f294a6000000000017a914cfaabfe8c271f99a4364b5197ba50c6cddb7adb987b70e01000000000017a9146f89c4b571f9424f3bc9fbe94bf453a0c44d98ba870400483045022100d26a0dcfa16851b580cc02c6341b555b32040f2e773215ce31a88e36c92a6113022078e1f90cfeabe3096c4d5a9e2e8ec41b8386f2ac9c4c26c732a9281a4d23e0c40147304402205943038c7215b8ce8341c173b01651af4915b13ba7f817751080bdd9dd555f78022039c0db45698c2470876c37c30a0454ce7418a1349e7ceb5d2293489d870cbb500147522102f29a1de4092d9ebb17a4f14248aea8a532fabf8b5eff39dc6ba228bd2beb0f1a21033e4af03ed09dbd8a417ba042650d5bd1db7f14f271a8f660974e3abf1fdfa4da52ae00000000", "vin": [{"txinwitness": ["", "3045022100d26a0dcfa16851b580cc02c6341b555b32040f2e773215ce31a88e36c92a6113022078e1f90cfeabe3096c4d5a9e2e8ec41b8386f2ac9c4c26c732a9281a4d23e0c401", "304402205943038c7215b8ce8341c173b01651af4915b13ba7f817751080bdd9dd555f78022039c0db45698c2470876c37c30a0454ce7418a1349e7ceb5d2293489d870cbb5001", "522102f29a1de4092d9ebb17a4f14248aea8a532fabf8b5eff39dc6ba228bd2beb0f1a21033e4af03ed09dbd8a417ba042650d5bd1db7f14f271a8f660974e3abf1fdfa4da52ae"], "sequence": 4294967295, "scriptSig": {"hex": "220020319ade260dadc502c09774ea2f715c40d183c077f06a90e686bd81243129dfbe", "asm": "0020319ade260dadc502c09774ea2f715c40d183c077f06a90e686bd81243129dfbe"}, "vout": 1, "txid": "ac103963891746ee9c1a158859752d4edd634bd684c342cf0bfb04a4249d84ea"}], "txid": "3d80e2cbf96083f5f49c000baad9b8be9495243d7667959bfe2902bf9a3632cb", "blocktime": 1537869901, "version": 1, "confirmations": 11524, "time": 1537869901, "locktime": 0, "vsize": 206, "size": 371}