{"hash": "3d82dca5ab28bf05adccd675f73086c38cfeaf40ec7299f7f3b3b92c974833f1", "blockhash": "0000000000000000000baef3f32e3676a92c3b2e5da21b426e4f302fc371ce76", "vout": [{"scriptPubKey": {"reqSigs": 1, "hex": "76a9141f6e40d4ea7068c58a2fd3399469ba6e28bbb88688ac", "addresses": ["13sC2UercL5juw8qPxcXteTn1vpJxH21GL"], "asm": "OP_DUP OP_HASH160 1f6e40d4ea7068c58a2fd3399469ba6e28bbb886 OP_EQUALVERIFY OP_CHECKSIG", "type": "pubkeyhash"}, "value": 0.00629621, "n": 0}, {"scriptPubKey": {"type": "nulldata", "hex": "6a4c50000078280001b7d718a1ed20d6560cda168f019d6ddc0f1b8ff117702940d64fa54d8eb2d5d1a0011579c7157c8eb53bf24801745baa1e860613b965dcc703ad1d100759d4ba30d2c37bb011d97e02cf", "asm": "OP_RETURN 000078280001b7d718a1ed20d6560cda168f019d6ddc0f1b8ff117702940d64fa54d8eb2d5d1a0011579c7157c8eb53bf24801745baa1e860613b965dcc703ad1d100759d4ba30d2c37bb011d97e02cf"}, "value": 0.0, "n": 1}], "hex": "0100000001542625c4d4334eba692cb371151472aef7db08854f41368ad55e4610a4eaae57000000006a47304402207d901c5097aa6820db98afbc9844fae4c5f068db71de4bbca799458b84774f0602200835eb10dc3bb74e1056e9c4c3e425908073b799f004c1bc13aeb7e2d4dd8f730121035f73d1560c803822ac1d8e47cb77bec56cd325d2526407c898b4e893bd0e4f9fffffffff02759b0900000000001976a9141f6e40d4ea7068c58a2fd3399469ba6e28bbb88688ac0000000000000000536a4c50000078280001b7d718a1ed20d6560cda168f019d6ddc0f1b8ff117702940d64fa54d8eb2d5d1a0011579c7157c8eb53bf24801745baa1e860613b965dcc703ad1d100759d4ba30d2c37bb011d97e02cf00000000", "vin": [{"sequence": 4294967295, "scriptSig": {"hex": "47304402207d901c5097aa6820db98afbc9844fae4c5f068db71de4bbca799458b84774f0602200835eb10dc3bb74e1056e9c4c3e425908073b799f004c1bc13aeb7e2d4dd8f730121035f73d1560c803822ac1d8e47cb77bec56cd325d2526407c898b4e893bd0e4f9f", "asm": "304402207d901c5097aa6820db98afbc9844fae4c5f068db71de4bbca799458b84774f0602200835eb10dc3bb74e1056e9c4c3e425908073b799f004c1bc13aeb7e2d4dd8f73[ALL] 035f73d1560c803822ac1d8e47cb77bec56cd325d2526407c898b4e893bd0e4f9f"}, "vout": 0, "txid": "57aeeaa410465ed58a36414f8508dbf7ae72141571b32c69ba4e33d4c4252654"}], "txid": "3d82dca5ab28bf05adccd675f73086c38cfeaf40ec7299f7f3b3b92c974833f1", "blocktime": 1537876114, "version": 1, "confirmations": 11463, "time": 1537876114, "locktime": 0, "vsize": 283, "size": 283}