{"hash": "3d87f75e9e8508cd9656bb2f3aada968ea965424a2ddbbcacfefefa21d280d7c", "blockhash": "0000000000000000001cda96e906b7601b7a6fb1a3b62bca570a9e5d8f4b3de1", "vout": [{"scriptPubKey": {"type": "nulldata", "hex": "6a4c50000077be00015178dc35fb7d49156a5a78dae5bf9ae76da98a211aaf6c953dd567cf27e7cd374cd13bfb09eabf2080a35ffc7ab95baa127e0612e274507375e11d100759d4ba30d2c37bb011d97e02cf", "asm": "OP_RETURN 000077be00015178dc35fb7d49156a5a78dae5bf9ae76da98a211aaf6c953dd567cf27e7cd374cd13bfb09eabf2080a35ffc7ab95baa127e0612e274507375e11d100759d4ba30d2c37bb011d97e02cf"}, "value": 0.0, "n": 0}, {"scriptPubKey": {"reqSigs": 1, "hex": "76a91414b21e0b0d83f20f5803febc5085785d384d6d9688ac", "addresses": ["12tRteZ7Qz3nc5QH8WfrsRgWdXh2SxG7Xj"], "asm": "OP_DUP OP_HASH160 14b21e0b0d83f20f5803febc5085785d384d6d96 OP_EQUALVERIFY OP_CHECKSIG", "type": "pubkeyhash"}, "value": 0.00594475, "n": 1}], "hex": "010000000160f44eeec4bed574caad448c51164cf7c0cace485191dc423819b7ed42ef0771010000006b48304502210083bdaa5a7e0aab8f79ef62d859a958c62c77aaffc0daeba9378a2d525ce22aec02201dc4e1829942d0ae080eccfdd7ae4e20251900ac30b750b4f7d13ddeeab642c1012102a9c0a9f9de504c6e81f07aedac80e5dcfd36cfa6979742ddd3b93db9f372941fffffffff020000000000000000536a4c50000077be00015178dc35fb7d49156a5a78dae5bf9ae76da98a211aaf6c953dd567cf27e7cd374cd13bfb09eabf2080a35ffc7ab95baa127e0612e274507375e11d100759d4ba30d2c37bb011d97e02cf2b120900000000001976a91414b21e0b0d83f20f5803febc5085785d384d6d9688ac00000000", "vin": [{"sequence": 4294967295, "scriptSig": {"hex": "48304502210083bdaa5a7e0aab8f79ef62d859a958c62c77aaffc0daeba9378a2d525ce22aec02201dc4e1829942d0ae080eccfdd7ae4e20251900ac30b750b4f7d13ddeeab642c1012102a9c0a9f9de504c6e81f07aedac80e5dcfd36cfa6979742ddd3b93db9f372941f", "asm": "304502210083bdaa5a7e0aab8f79ef62d859a958c62c77aaffc0daeba9378a2d525ce22aec02201dc4e1829942d0ae080eccfdd7ae4e20251900ac30b750b4f7d13ddeeab642c1[ALL] 02a9c0a9f9de504c6e81f07aedac80e5dcfd36cfa6979742ddd3b93db9f372941f"}, "vout": 1, "txid": "7107ef42edb7193842dc915148cecac0f74c16518c44adca74d5bec4ee4ef460"}], "txid": "3d87f75e9e8508cd9656bb2f3aada968ea965424a2ddbbcacfefefa21d280d7c", "blocktime": 1537873282, "version": 1, "confirmations": 11484, "time": 1537873282, "locktime": 0, "vsize": 284, "size": 284}