{"hash": "3d8d355d145b43b70458c7173479653595366e1fc6c876c69cecebdef1195507", "blockhash": "00000000000000000017f5eb5941039fbcee6240d03bc1f2f8e35350df66a1d8", "vout": [{"scriptPubKey": {"reqSigs": 1, "hex": "76a91456f5ea3b38b6e8cb839acca40f005d5356ad853288ac", "addresses": ["18vohyC5UUBY8mTCXDHAco6NTi8bWRvRLR"], "asm": "OP_DUP OP_HASH160 56f5ea3b38b6e8cb839acca40f005d5356ad8532 OP_EQUALVERIFY OP_CHECKSIG", "type": "pubkeyhash"}, "value": 0.00496394, "n": 0}, {"scriptPubKey": {"reqSigs": 1, "hex": "76a914f8690dc6b620f5de8beb393e45524a7e13fdb61888ac", "addresses": ["1PeURqmetryGk9x12aGjQvFHSv73XtXonh"], "asm": "OP_DUP OP_HASH160 f8690dc6b620f5de8beb393e45524a7e13fdb618 OP_EQUALVERIFY OP_CHECKSIG", "type": "pubkeyhash"}, "value": 0.0050065, "n": 1}], "hex": "0100000001ad44e260ff6e283d447e804f52f335d2c8023799db2cfc722d2eb6bfc36684ac010000006b4830450221009120208551c1d4eb1401a899721b7db9e48d0f60424e3822c038f2a6d09e972102201a7180982c90806a68e23a4caf73b60bb4e508bff4d83dcc9cbabbac49c55c2d012102b6245c09142187bc25c3b278c7e267443e5193c2f1244452f4092436c626f819ffffffff020a930700000000001976a91456f5ea3b38b6e8cb839acca40f005d5356ad853288acaaa30700000000001976a914f8690dc6b620f5de8beb393e45524a7e13fdb61888ac00000000", "vin": [{"sequence": 4294967295, "scriptSig": {"hex": "4830450221009120208551c1d4eb1401a899721b7db9e48d0f60424e3822c038f2a6d09e972102201a7180982c90806a68e23a4caf73b60bb4e508bff4d83dcc9cbabbac49c55c2d012102b6245c09142187bc25c3b278c7e267443e5193c2f1244452f4092436c626f819", "asm": "30450221009120208551c1d4eb1401a899721b7db9e48d0f60424e3822c038f2a6d09e972102201a7180982c90806a68e23a4caf73b60bb4e508bff4d83dcc9cbabbac49c55c2d[ALL] 02b6245c09142187bc25c3b278c7e267443e5193c2f1244452f4092436c626f819"}, "vout": 1, "txid": "ac8466c3bfb62e2d72fc2cdb993702c8d235f3524f807e443d286eff60e244ad"}], "txid": "3d8d355d145b43b70458c7173479653595366e1fc6c876c69cecebdef1195507", "blocktime": 1537874412, "version": 1, "confirmations": 11468, "time": 1537874412, "locktime": 0, "vsize": 226, "size": 226}