{"hash": "08287e268142ca96089c8f4f75fca5e4b10704338ce4d98d38043bd345b9e403", "blockhash": "0000000000000000000baef3f32e3676a92c3b2e5da21b426e4f302fc371ce76", "vout": [{"scriptPubKey": {"reqSigs": 1, "hex": "76a9145ab02ab956d9fd2531bca565bf9b643f102b2d8088ac", "addresses": ["19GWrZBcm7WoE6EeBaoExKoP3cFQTLU4mN"], "asm": "OP_DUP OP_HASH160 5ab02ab956d9fd2531bca565bf9b643f102b2d80 OP_EQUALVERIFY OP_CHECKSIG", "type": "pubkeyhash"}, "value": 0.0034646, "n": 0}, {"scriptPubKey": {"reqSigs": 1, "hex": "a91427d9e11929b312af3dff90675e913348e14dea5a87", "addresses": ["35KjHYUzP93VMBKaZXBGTtqCmyn4XkTjiX"], "asm": "OP_HASH160 27d9e11929b312af3dff90675e913348e14dea5a OP_EQUAL", "type": "scripthash"}, "value": 0.01006122, "n": 1}], "hex": "02000000000102c4eafca73f4b15bd409894f96b1739e1f99b761f51fc93b06faa9e91f922f5760100000017160014412e4dbc1f3754a02d4da9d9291e14f3a77ae4f6fefffffffb23f136eafa89d27c18323214d1dfb8741b58a22a3ba3d377966099b2274fb818000000171600143aed9ab4d9399ab755f8f7d480ea2a5174b11592feffffff025c490500000000001976a9145ab02ab956d9fd2531bca565bf9b643f102b2d8088ac2a5a0f000000000017a91427d9e11929b312af3dff90675e913348e14dea5a8702473044022058d3bae0dc22b87a933887cbc6e03d69881e156001b41e321ebb78394d1321e9022077d111e2af38a3af0d1bfd7a848c6cbe52956e1ef7e575a9518f3147893e32a101210244a61cc5b6e2f66e14e7ecc66854b5efcfe5778325a56a590fedde5ae495982c0247304402203cf94a6a05ec9165d5a61208a2bccbec9bf653ff2517a51583bc950da19a2ab5022021be7c76b44c9be0d23845267304f845c072826e7be5d030e3b7240e179965960121034385e445fc687f8df4fde49274ca0b0818da174750190747447bfae90798884517490800", "vin": [{"txinwitness": ["3044022058d3bae0dc22b87a933887cbc6e03d69881e156001b41e321ebb78394d1321e9022077d111e2af38a3af0d1bfd7a848c6cbe52956e1ef7e575a9518f3147893e32a101", "0244a61cc5b6e2f66e14e7ecc66854b5efcfe5778325a56a590fedde5ae495982c"], "sequence": 4294967294, "scriptSig": {"hex": "160014412e4dbc1f3754a02d4da9d9291e14f3a77ae4f6", "asm": "0014412e4dbc1f3754a02d4da9d9291e14f3a77ae4f6"}, "vout": 1, "txid": "76f522f9919eaa6fb093fc511f769bf9e139176bf9949840bd154b3fa7fceac4"}, {"txinwitness": ["304402203cf94a6a05ec9165d5a61208a2bccbec9bf653ff2517a51583bc950da19a2ab5022021be7c76b44c9be0d23845267304f845c072826e7be5d030e3b7240e1799659601", "034385e445fc687f8df4fde49274ca0b0818da174750190747447bfae907988845"], "sequence": 4294967294, "scriptSig": {"hex": "1600143aed9ab4d9399ab755f8f7d480ea2a5174b11592", "asm": "00143aed9ab4d9399ab755f8f7d480ea2a5174b11592"}, "vout": 24, "txid": "b84f27b299609677d3a33b2aa2581b74b8dfd1143232187cd289faea36f123fb"}], "txid": "3d921272be344a38071a158c0c099eac78142843a8fa7b9ec3a1ba6003115c06", "blocktime": 1537876114, "version": 2, "confirmations": 11461, "time": 1537876114, "locktime": 542999, "vsize": 258, "size": 420}