{"hash": "fa17febd02ad82de26d8480be3cd6abd50cb36206ad87cccd6999c232ef265dc", "blockhash": "0000000000000000000e13cef7c366c0283d82e591d1acd082e914b08063cdf1", "vout": [{"scriptPubKey": {"reqSigs": 1, "hex": "a914abb76ad1f32513aa1b5c4eaf3735af58a8257a7e87", "addresses": ["3HLyCQFymY75Epk3wa44er6C23nYYqfdG7"], "asm": "OP_HASH160 abb76ad1f32513aa1b5c4eaf3735af58a8257a7e OP_EQUAL", "type": "scripthash"}, "value": 0.019802, "n": 0}, {"scriptPubKey": {"reqSigs": 1, "hex": "76a914ea3f0b59113263be62015a0f4e328c408594687488ac", "addresses": ["1NMaeHXmS7MLzW6PThmsfCccXoCpJb2vwx"], "asm": "OP_DUP OP_HASH160 ea3f0b59113263be62015a0f4e328c4085946874 OP_EQUALVERIFY OP_CHECKSIG", "type": "pubkeyhash"}, "value": 0.1, "n": 1}, {"scriptPubKey": {"reqSigs": 1, "hex": "a914b5070a4b35d518a32b9750aaf219224ad3defd1e87", "addresses": ["3JCCfRk9E8fByUqx8guusxYmtU43pPYzfR"], "asm": "OP_HASH160 b5070a4b35d518a32b9750aaf219224ad3defd1e OP_EQUAL", "type": "scripthash"}, "value": 0.39363095, "n": 2}], "hex": "02000000000101e7ef60d2f533119c3af1499ace249969f018673770309e1f41f379ae75fc809200000000171600148245a068b14bcab936834d5f6d3b6b7f9bcf740ffeffffff0328371e000000000017a914abb76ad1f32513aa1b5c4eaf3735af58a8257a7e8780969800000000001976a914ea3f0b59113263be62015a0f4e328c408594687488ac17a258020000000017a914b5070a4b35d518a32b9750aaf219224ad3defd1e87024730440220126fa741627cf53ac50cf1df9e3dffb27daa11a1c6cdf229375c72ac6549e504022067ca1a7b36a863764fea3f3ebed3c75282a2eb5de4e33308d04f24e08e1998c501210366638fe984a29d90a75fdc96599f90f00e21b39727b08e3a00f25657e3ab4bb510490800", "vin": [{"txinwitness": ["30440220126fa741627cf53ac50cf1df9e3dffb27daa11a1c6cdf229375c72ac6549e504022067ca1a7b36a863764fea3f3ebed3c75282a2eb5de4e33308d04f24e08e1998c501", "0366638fe984a29d90a75fdc96599f90f00e21b39727b08e3a00f25657e3ab4bb5"], "sequence": 4294967294, "scriptSig": {"hex": "1600148245a068b14bcab936834d5f6d3b6b7f9bcf740f", "asm": "00148245a068b14bcab936834d5f6d3b6b7f9bcf740f"}, "vout": 0, "txid": "9280fc75ae79f3411f9e3070376718f0699924ce9a49f13a9c1133f5d260efe7"}], "txid": "3d98a1d72fd6da0e4bf5c790afcfa83ebc14fcf4ab3ab69c68677f6ae4dd3403", "blocktime": 1537871767, "version": 2, "confirmations": 11490, "time": 1537871767, "locktime": 542992, "vsize": 200, "size": 281}