{"hash": "3d9848c6b2b2e36735917832facb60da26428e02dee927335b2db33432848699", "blockhash": "0000000000000000000dcc0f55137456b1a82d3642486a52398922ac4d620174", "vout": [{"scriptPubKey": {"type": "nulldata", "hex": "6a146f6d6e69000000000000001f000000055ae82600", "asm": "OP_RETURN 6f6d6e69000000000000001f000000055ae82600"}, "value": 0.0, "n": 0}, {"scriptPubKey": {"reqSigs": 1, "hex": "76a914371b84854dfd8b1cd3911baae3da6362810cbdb388ac", "addresses": ["162P8WeVLA37MQGyToqNvgDPm1ZrAdqTJ2"], "asm": "OP_DUP OP_HASH160 371b84854dfd8b1cd3911baae3da6362810cbdb3 OP_EQUALVERIFY OP_CHECKSIG", "type": "pubkeyhash"}, "value": 5.46e-06, "n": 1}, {"scriptPubKey": {"reqSigs": 1, "hex": "76a914284b1f894ca72430de8f19952125b6016a9dc7c688ac", "addresses": ["14g42KnXkRFfR8cUtS5tReprjeNvGQKW9v"], "asm": "OP_DUP OP_HASH160 284b1f894ca72430de8f19952125b6016a9dc7c6 OP_EQUALVERIFY OP_CHECKSIG", "type": "pubkeyhash"}, "value": 0.14476797, "n": 2}], "hex": "0100000001c962d35ff4f50d2ca108d184bfff07177b04a11ab0ab63a1b18f0b4806e4e65b000000006a473044022029dc5d3d91abb55a7343477a985051ee1eb7b37add129ea6def11555027d909a0220799bd77d908cfb9c4b4ba00f4c28bc092c7d92a80f2e16fb90ef709e5a85da2901210392260b2475e9dec1855e89404d00787579055270f3f1619ec29bd64ed6a6dd7dfeffffff030000000000000000166a146f6d6e69000000000000001f000000055ae8260022020000000000001976a914371b84854dfd8b1cd3911baae3da6362810cbdb388acfde5dc00000000001976a914284b1f894ca72430de8f19952125b6016a9dc7c688acae480800", "vin": [{"sequence": 4294967294, "scriptSig": {"hex": "473044022029dc5d3d91abb55a7343477a985051ee1eb7b37add129ea6def11555027d909a0220799bd77d908cfb9c4b4ba00f4c28bc092c7d92a80f2e16fb90ef709e5a85da2901210392260b2475e9dec1855e89404d00787579055270f3f1619ec29bd64ed6a6dd7d", "asm": "3044022029dc5d3d91abb55a7343477a985051ee1eb7b37add129ea6def11555027d909a0220799bd77d908cfb9c4b4ba00f4c28bc092c7d92a80f2e16fb90ef709e5a85da29[ALL] 0392260b2475e9dec1855e89404d00787579055270f3f1619ec29bd64ed6a6dd7d"}, "vout": 0, "txid": "5be6e406480b8fb1a163abb01aa1047b1707ffbf84d108a12c0df5f45fd362c9"}], "txid": "3d9848c6b2b2e36735917832facb60da26428e02dee927335b2db33432848699", "blocktime": 1537870268, "version": 1, "confirmations": 11516, "time": 1537870268, "locktime": 542894, "vsize": 256, "size": 256}