{"hash": "3d999a701b4c996dfb2be53cf8fa6148f8117aba7fe131742d072159b591244c", "blockhash": "00000000000000000018f53835495a110e01622372bf6ae95dc86f2b0ab887b0", "vout": [{"scriptPubKey": {"reqSigs": 1, "hex": "76a914cd741ebc715d44a1ab63c414d6b1aefec19466f588ac", "addresses": ["1KjLdVLpkLRUWeVcRJM6c6vD7UDbMeLSvM"], "asm": "OP_DUP OP_HASH160 cd741ebc715d44a1ab63c414d6b1aefec19466f5 OP_EQUALVERIFY OP_CHECKSIG", "type": "pubkeyhash"}, "value": 0.00593484, "n": 0}, {"scriptPubKey": {"reqSigs": 1, "hex": "76a914ad02cc7533de618360e4dbcbfb5967f60ce16c9088ac", "addresses": ["1GmoFeC1KB1X7dRTV39ne8GE5LgWrMHb2K"], "asm": "OP_DUP OP_HASH160 ad02cc7533de618360e4dbcbfb5967f60ce16c90 OP_EQUALVERIFY OP_CHECKSIG", "type": "pubkeyhash"}, "value": 0.02484397, "n": 1}], "hex": "0100000001ccfc11419ec4599284ddfd122175425b6a92f95a14efd85568473955c419a31b010000006b483045022100da21b918a0e234d914e8e44b702c0ede36aa3c817af589e5541bd80636e8faaf022055de5d85d035fcc07fc67ee778ebfffb98d225405e14e13a0f8c11153f88f0f2012102c019fe4f22eb6971c69036b40fd3b09af988a9e19143ca394e1260bc0a6dbc78ffffffff024c0e0900000000001976a914cd741ebc715d44a1ab63c414d6b1aefec19466f588acade82500000000001976a914ad02cc7533de618360e4dbcbfb5967f60ce16c9088ac00000000", "vin": [{"sequence": 4294967295, "scriptSig": {"hex": "483045022100da21b918a0e234d914e8e44b702c0ede36aa3c817af589e5541bd80636e8faaf022055de5d85d035fcc07fc67ee778ebfffb98d225405e14e13a0f8c11153f88f0f2012102c019fe4f22eb6971c69036b40fd3b09af988a9e19143ca394e1260bc0a6dbc78", "asm": "3045022100da21b918a0e234d914e8e44b702c0ede36aa3c817af589e5541bd80636e8faaf022055de5d85d035fcc07fc67ee778ebfffb98d225405e14e13a0f8c11153f88f0f2[ALL] 02c019fe4f22eb6971c69036b40fd3b09af988a9e19143ca394e1260bc0a6dbc78"}, "vout": 1, "txid": "1ba319c45539476855d8ef145af9926a5b42752112fddd849259c49e4111fccc"}], "txid": "3d999a701b4c996dfb2be53cf8fa6148f8117aba7fe131742d072159b591244c", "blocktime": 1537870928, "version": 1, "confirmations": 11514, "time": 1537870928, "locktime": 0, "vsize": 226, "size": 226}