{"hash": "7cfab9ab018bb628472404250a74033ab5ee59ba848287829da7979b1f174f9a", "blockhash": "0000000000000000000dcc0f55137456b1a82d3642486a52398922ac4d620174", "vout": [{"scriptPubKey": {"reqSigs": 1, "hex": "a91492c42399f3275cd9e020cb9292bb5fcefc4c8e9e87", "addresses": ["3F53YXq4AdmVeShcMWkL5qLYsdJHx7qwqu"], "asm": "OP_HASH160 92c42399f3275cd9e020cb9292bb5fcefc4c8e9e OP_EQUAL", "type": "scripthash"}, "value": 0.00129828, "n": 0}, {"scriptPubKey": {"reqSigs": 1, "hex": "00140a2f58cf829c3a45aeb0d5c6ac3ccff8d3ad620a", "addresses": ["bc1qpgh43nuznsaytt4s6hr2c0x0lrf66cs2hee4qg"], "asm": "0 0a2f58cf829c3a45aeb0d5c6ac3ccff8d3ad620a", "type": "witness_v0_keyhash"}, "value": 1.136e-05, "n": 1}], "hex": "01000000000101cc9b67ba9803e511a1173db3d224908bd4a7c20e6eb4512170b69e9dbcd7e3bc0000000000ffffffff0224fb01000000000017a91492c42399f3275cd9e020cb9292bb5fcefc4c8e9e8770040000000000001600140a2f58cf829c3a45aeb0d5c6ac3ccff8d3ad620a0247304402207c96467b169e03478c5bfc4a77508a140478caedbc069d15d39c628b2f8fa59c0220460aeadbef32c555d96200ee76337cd58bdf1d59435418f23b0d08394f7afd23012103939cf3f777ab7f5d4d239a074d4c3150d1598125fc0582d15c39236fcfd4e1f500000000", "vin": [{"txinwitness": ["304402207c96467b169e03478c5bfc4a77508a140478caedbc069d15d39c628b2f8fa59c0220460aeadbef32c555d96200ee76337cd58bdf1d59435418f23b0d08394f7afd2301", "03939cf3f777ab7f5d4d239a074d4c3150d1598125fc0582d15c39236fcfd4e1f5"], "sequence": 4294967295, "scriptSig": {"hex": "", "asm": ""}, "vout": 0, "txid": "bce3d7bc9d9eb6702151b46e0ec2a7d48b9024d2b33d17a111e50398ba679bcc"}], "txid": "3d9ceae9dc00039dcd804da7c7ec6703b2f6816d2a032db43d6b26f1f7869a5b", "blocktime": 1537870268, "version": 1, "confirmations": 11518, "time": 1537870268, "locktime": 0, "vsize": 142, "size": 223}