{"hash": "9583ab09d29d8a95a9e64456611a920d4ade90481533f274c590ae6514f11be5", "blockhash": "0000000000000000001f76057863aec43deb6fa401d9628bb513d65a8098bfab", "vout": [{"scriptPubKey": {"reqSigs": 1, "hex": "a9145ccf5e0c45d0ba8f9fa6698eba0cb0ef46348e9087", "addresses": ["3A9kWL6BTsQHCxRL7Kbgss7AwQqQKTZmJa"], "asm": "OP_HASH160 5ccf5e0c45d0ba8f9fa6698eba0cb0ef46348e90 OP_EQUAL", "type": "scripthash"}, "value": 9.6, "n": 0}, {"scriptPubKey": {"reqSigs": 1, "hex": "a9144a01d22e0fdd1365bb2af084d61e9128d76ea90a87", "addresses": ["38SL7GMdTZpRsEBRz53yoZbgXQLNtFLwNS"], "asm": "OP_HASH160 4a01d22e0fdd1365bb2af084d61e9128d76ea90a OP_EQUAL", "type": "scripthash"}, "value": 0.69105595, "n": 1}, {"scriptPubKey": {"reqSigs": 1, "hex": "76a914e01f55498be2af11dfbf244cd23794421cdf79ba88ac", "addresses": ["1MS3u353RwhaHaHGzJhSdxioG3kmxrGQZ4"], "asm": "OP_DUP OP_HASH160 e01f55498be2af11dfbf244cd23794421cdf79ba OP_EQUALVERIFY OP_CHECKSIG", "type": "pubkeyhash"}, "value": 0.02, "n": 2}, {"scriptPubKey": {"reqSigs": 1, "hex": "0020701a8d401c84fb13e6baf169d59684e17abd9fa216c8cc5b9fc63d622ff8c58d", "addresses": ["bc1qwqdg6squsna38e46795at95yu9atm8azzmyvckulcc7kytlcckxswvvzej"], "asm": "0 701a8d401c84fb13e6baf169d59684e17abd9fa216c8cc5b9fc63d622ff8c58d", "type": "witness_v0_scripthash"}, "value": 4.69854405, "n": 3}], "hex": "010000000001015530ed7937ea0b7fbcb5fa970faae8d233f6b2634925a314354f6c9a9654ebaa0900000000ffffffff04007038390000000017a9145ccf5e0c45d0ba8f9fa6698eba0cb0ef46348e9087bb771e040000000017a9144a01d22e0fdd1365bb2af084d61e9128d76ea90a8780841e00000000001976a914e01f55498be2af11dfbf244cd23794421cdf79ba88acc568011c00000000220020701a8d401c84fb13e6baf169d59684e17abd9fa216c8cc5b9fc63d622ff8c58d0400483045022100bca3cc13370d079635fb349a1f0630c5999e0346472fc8673d843a8042f5a9b302207593cc07d4fd1c5e3d6fbd12075ad73327ce926358e40d5336394c6e77aeab5501483045022100ad9176f35d57ae8dcf32c64d03713d6444f67b2286c5bf4f9e1b4da4ca5d4e180220164a80d286d638816bea7d005cdcbe2146fbf7255626c11eaed2e293303578fe016952210279d1f38c1c80d47cb00ddbbe2915a60d5706e1ef66056a169150f083b288eb952102cb7d02b654f8616bfc5ab017b7a3ec9092e466381af0f552b7efcd8d920453672103c96d495bfdd5ba4145e3e046fee45e84a8a48ad05bd8dbb395c011a32cf9f88053ae00000000", "vin": [{"txinwitness": ["", "3045022100bca3cc13370d079635fb349a1f0630c5999e0346472fc8673d843a8042f5a9b302207593cc07d4fd1c5e3d6fbd12075ad73327ce926358e40d5336394c6e77aeab5501", "3045022100ad9176f35d57ae8dcf32c64d03713d6444f67b2286c5bf4f9e1b4da4ca5d4e180220164a80d286d638816bea7d005cdcbe2146fbf7255626c11eaed2e293303578fe01", "52210279d1f38c1c80d47cb00ddbbe2915a60d5706e1ef66056a169150f083b288eb952102cb7d02b654f8616bfc5ab017b7a3ec9092e466381af0f552b7efcd8d920453672103c96d495bfdd5ba4145e3e046fee45e84a8a48ad05bd8dbb395c011a32cf9f88053ae"], "sequence": 4294967295, "scriptSig": {"hex": "", "asm": ""}, "vout": 9, "txid": "aaeb54969a6c4f3514a3254963b2f633d2e8aa0f97fab5bc7f0bea3779ed3055"}], "txid": "3da1c80cddb716757cdff229aebae4d8f6211a6aaaef0ffe1843c5a8f94f8996", "blocktime": 1537873891, "version": 1, "confirmations": 11474, "time": 1537873891, "locktime": 0, "vsize": 256, "size": 448}