{"hash": "b1c3960640428caf9e3152da3dd1ddeb7dd78417759adc4f1c990e5816db4efa", "blockhash": "00000000000000000017f5eb5941039fbcee6240d03bc1f2f8e35350df66a1d8", "vout": [{"scriptPubKey": {"reqSigs": 1, "hex": "76a914a5457de9fa217f26a921016bcec6ebddf76a907988ac", "addresses": ["1G4sk2md1jEDMus4vZ3t6J4fE7yu6nAdvu"], "asm": "OP_DUP OP_HASH160 a5457de9fa217f26a921016bcec6ebddf76a9079 OP_EQUALVERIFY OP_CHECKSIG", "type": "pubkeyhash"}, "value": 0.04054162, "n": 0}, {"scriptPubKey": {"reqSigs": 1, "hex": "76a914394c424a91339007449921792ccafa20445910a488ac", "addresses": ["16DxsVwwgWyhYbdL2cGQTxiQoQDDnSs9AC"], "asm": "OP_DUP OP_HASH160 394c424a91339007449921792ccafa20445910a4 OP_EQUALVERIFY OP_CHECKSIG", "type": "pubkeyhash"}, "value": 0.00765899, "n": 1}, {"scriptPubKey": {"reqSigs": 1, "hex": "76a91413a56482366330d1543f990852e511cecc28c9e588ac", "addresses": ["12nsyKr1hJStGJMSm6oonMQPvBK1FWZXAn"], "asm": "OP_DUP OP_HASH160 13a56482366330d1543f990852e511cecc28c9e5 OP_EQUALVERIFY OP_CHECKSIG", "type": "pubkeyhash"}, "value": 0.01584525, "n": 2}, {"scriptPubKey": {"reqSigs": 1, "hex": "76a9143c26502ca484cefdac0caaf83d7780edd7ca1bae88ac", "addresses": ["16V3SZGULzafK8xYpJFrvtzv6RNoywepgr"], "asm": "OP_DUP OP_HASH160 3c26502ca484cefdac0caaf83d7780edd7ca1bae OP_EQUALVERIFY OP_CHECKSIG", "type": "pubkeyhash"}, "value": 0.00766503, "n": 3}, {"scriptPubKey": {"reqSigs": 1, "hex": "76a914716abf153c011897638e94befdc70257eb0a3fc488ac", "addresses": ["1BLhEYnNWhWkirkbRWPu8kmd2U1qGJFL4g"], "asm": "OP_DUP OP_HASH160 716abf153c011897638e94befdc70257eb0a3fc4 OP_EQUALVERIFY OP_CHECKSIG", "type": "pubkeyhash"}, "value": 0.01582448, "n": 4}, {"scriptPubKey": {"reqSigs": 1, "hex": "a91457f7592e52b74e14b6c2b9981aedc5669a982a3787", "addresses": ["39i92JGcBMpo3ejf2JUdBBVULabA2xp57z"], "asm": "OP_HASH160 57f7592e52b74e14b6c2b9981aedc5669a982a37 OP_EQUAL", "type": "scripthash"}, "value": 0.01582458, "n": 5}, {"scriptPubKey": {"reqSigs": 1, "hex": "76a914370fe6538e88219eda1d2fdb853e96aeca954e6188ac", "addresses": ["1629DHMrtp8iMBUWxTeXvbLCNLhbS8AaTG"], "asm": "OP_DUP OP_HASH160 370fe6538e88219eda1d2fdb853e96aeca954e61 OP_EQUALVERIFY OP_CHECKSIG", "type": "pubkeyhash"}, "value": 0.01582096, "n": 6}, {"scriptPubKey": {"reqSigs": 1, "hex": "76a9143ec6ea9c37437df38e4a63818f2d488ca971393a88ac", "addresses": ["16iwBrKxac15PTsAhL3SUsWgj2Rm9YB5A5"], "asm": "OP_DUP OP_HASH160 3ec6ea9c37437df38e4a63818f2d488ca971393a OP_EQUALVERIFY OP_CHECKSIG", "type": "pubkeyhash"}, "value": 0.04029701, "n": 7}, {"scriptPubKey": {"reqSigs": 1, "hex": "76a9148fb4ca5b6857bf3dc2a47cd132c557db0fb960cb88ac", "addresses": ["1E6rCyRyCxLSUZzih1U349NPPBFAjVi1hp"], "asm": "OP_DUP OP_HASH160 8fb4ca5b6857bf3dc2a47cd132c557db0fb960cb OP_EQUALVERIFY OP_CHECKSIG", "type": "pubkeyhash"}, "value": 0.01583713, "n": 8}, {"scriptPubKey": {"reqSigs": 1, "hex": "76a9140bd64ebe7a646fd2b6b4ec9aaa4faff959bd08f388ac", "addresses": ["125bATqtY7KBvoeKYYR7dQz13jCYxzojhH"], "asm": "OP_DUP OP_HASH160 0bd64ebe7a646fd2b6b4ec9aaa4faff959bd08f3 OP_EQUALVERIFY OP_CHECKSIG", "type": "pubkeyhash"}, "value": 0.01314291, "n": 9}, {"scriptPubKey": {"reqSigs": 1, "hex": "a914799ae168302cf7a22161e8b7aa807590e4ea874c87", "addresses": ["3Cn1E3KMs9Zjd5ttujcLPuYF5b8T2JaLdk"], "asm": "OP_HASH160 799ae168302cf7a22161e8b7aa807590e4ea874c OP_EQUAL", "type": "scripthash"}, "value": 0.19213805, "n": 10}, {"scriptPubKey": {"reqSigs": 1, "hex": "76a914f743a61bebce377d059b2a6d7eb2153718160e2c88ac", "addresses": ["1PYQwi3DSFp8MrLzS6BJktPyjHJ95ekesG"], "asm": "OP_DUP OP_HASH160 f743a61bebce377d059b2a6d7eb2153718160e2c OP_EQUALVERIFY OP_CHECKSIG", "type": "pubkeyhash"}, "value": 0.01779034, "n": 11}, {"scriptPubKey": {"reqSigs": 1, "hex": "76a914ca4f5df7c9bc174e78d3e21303cf40bf385d55de88ac", "addresses": ["1KSiaGex9JDcStVrrzDebKDcrnYUcDGgdR"], "asm": "OP_DUP OP_HASH160 ca4f5df7c9bc174e78d3e21303cf40bf385d55de OP_EQUALVERIFY OP_CHECKSIG", "type": "pubkeyhash"}, "value": 0.0092938, "n": 12}], "hex": "01000000000102a958af3e898290496640a08b7d4364d1f24a6e1c2f86c4e1b3be6c65486ba81505000000232200208c5f5f4a62d74f17905025c0e7570fbcf0ceb5f17155862548117ab523d754d2ffffffffa958af3e898290496640a08b7d4364d1f24a6e1c2f86c4e1b3be6c65486ba81504000000232200204b32de1ad87c91f6dba226f1ad6afb83a5f4290c384deea999fdc95e3ba1cd2affffffff0d92dc3d00000000001976a914a5457de9fa217f26a921016bcec6ebddf76a907988accbaf0b00000000001976a914394c424a91339007449921792ccafa20445910a488ac8d2d1800000000001976a91413a56482366330d1543f990852e511cecc28c9e588ac27b20b00000000001976a9143c26502ca484cefdac0caaf83d7780edd7ca1bae88ac70251800000000001976a914716abf153c011897638e94befdc70257eb0a3fc488ac7a2518000000000017a91457f7592e52b74e14b6c2b9981aedc5669a982a378710241800000000001976a914370fe6538e88219eda1d2fdb853e96aeca954e6188ac057d3d00000000001976a9143ec6ea9c37437df38e4a63818f2d488ca971393a88ac612a1800000000001976a9148fb4ca5b6857bf3dc2a47cd132c557db0fb960cb88acf30d1400000000001976a9140bd64ebe7a646fd2b6b4ec9aaa4faff959bd08f388aced2d25010000000017a914799ae168302cf7a22161e8b7aa807590e4ea874c875a251b00000000001976a914f743a61bebce377d059b2a6d7eb2153718160e2c88ac642e0e00000000001976a914ca4f5df7c9bc174e78d3e21303cf40bf385d55de88ac0400473044022079741fff3544e363ca3e0edbc616da2cc79f5711c3f002d0a31746c461b0501b02204d5e83443587d5265e488c3fadb8ffc6af32989c6f89d3d06b9fba966b764b9401483045022100ea94a61fe2d0c91521fb8e1c3952a20e583f628052fbe8b235782a59507f603e022074c9e6d1a122d701a680fd4ac84ae0bd75754134b599ac66e5c153c71fe3650a0169522102a0612c222ad4746b66aff7b88b934821dd91e88ee5c7f06200bf5a5684cad1d62102f0858e9720afebab860a7084924d5863b267300ca554396d4b03068772d6bbc821034996a1084ef0b1e30a2ac89252cb564ef2849c485f853daae7341e12d126915f53ae0400483045022100db5fa27a060a5b12c552647e882e166c5ae18590ca84be620e75204792d3eb67022004ba753a51517738bfd30b47e8c722bb1bef7442d1a3e7f759f74f9dd1f6532901483045022100cd538599f6c1eb6f572f8878724c09483329ebca69215aff5e5b5ce28d70e53a02202535375ce05762f3e1e245e6dafeb9f185afaaa56352ce668475f60e48afb59e0169522103a40a30cfcff65e8ef69ef10b61819e75b17d646531db698d03c1effa8dc00b9f2102a5101e65cd84dac6ad4997fff13920dcef569ddc4768a5b65eed9d85031cab9d2103dce2568d43f42008d4d5dc1ba10d3f928017cbb6488c27aab8bc7feb86c2455353ae00000000", "vin": [{"txinwitness": ["", "3044022079741fff3544e363ca3e0edbc616da2cc79f5711c3f002d0a31746c461b0501b02204d5e83443587d5265e488c3fadb8ffc6af32989c6f89d3d06b9fba966b764b9401", "3045022100ea94a61fe2d0c91521fb8e1c3952a20e583f628052fbe8b235782a59507f603e022074c9e6d1a122d701a680fd4ac84ae0bd75754134b599ac66e5c153c71fe3650a01", "522102a0612c222ad4746b66aff7b88b934821dd91e88ee5c7f06200bf5a5684cad1d62102f0858e9720afebab860a7084924d5863b267300ca554396d4b03068772d6bbc821034996a1084ef0b1e30a2ac89252cb564ef2849c485f853daae7341e12d126915f53ae"], "sequence": 4294967295, "scriptSig": {"hex": "2200208c5f5f4a62d74f17905025c0e7570fbcf0ceb5f17155862548117ab523d754d2", "asm": "00208c5f5f4a62d74f17905025c0e7570fbcf0ceb5f17155862548117ab523d754d2"}, "vout": 5, "txid": "15a86b48656cbeb3e1c4862f1c6e4af2d164437d8ba04066499082893eaf58a9"}, {"txinwitness": ["", "3045022100db5fa27a060a5b12c552647e882e166c5ae18590ca84be620e75204792d3eb67022004ba753a51517738bfd30b47e8c722bb1bef7442d1a3e7f759f74f9dd1f6532901", "3045022100cd538599f6c1eb6f572f8878724c09483329ebca69215aff5e5b5ce28d70e53a02202535375ce05762f3e1e245e6dafeb9f185afaaa56352ce668475f60e48afb59e01", "522103a40a30cfcff65e8ef69ef10b61819e75b17d646531db698d03c1effa8dc00b9f2102a5101e65cd84dac6ad4997fff13920dcef569ddc4768a5b65eed9d85031cab9d2103dce2568d43f42008d4d5dc1ba10d3f928017cbb6488c27aab8bc7feb86c2455353ae"], "sequence": 4294967295, "scriptSig": {"hex": "2200204b32de1ad87c91f6dba226f1ad6afb83a5f4290c384deea999fdc95e3ba1cd2a", "asm": "00204b32de1ad87c91f6dba226f1ad6afb83a5f4290c384deea999fdc95e3ba1cd2a"}, "vout": 4, "txid": "15a86b48656cbeb3e1c4862f1c6e4af2d164437d8ba04066499082893eaf58a9"}], "txid": "3da11801acd699af1c830bab46a413d51b05814c801fed7a3723f192f0dc1361", "blocktime": 1537874412, "version": 1, "confirmations": 11468, "time": 1537874412, "locktime": 0, "vsize": 728, "size": 1109}