{"hash": "3da40c90cc41b876993090a531f603bd62b9c645d03c72ce5fc19c5ab013f559", "blockhash": "0000000000000000001cda96e906b7601b7a6fb1a3b62bca570a9e5d8f4b3de1", "vout": [{"scriptPubKey": {"reqSigs": 1, "hex": "76a914387a4073b6093d269cd2cf8b5d35ef76c222e80488ac", "addresses": ["169dHwkvajccgKSTadGYk531D5U7kzxJ7d"], "asm": "OP_DUP OP_HASH160 387a4073b6093d269cd2cf8b5d35ef76c222e804 OP_EQUALVERIFY OP_CHECKSIG", "type": "pubkeyhash"}, "value": 0.06245296, "n": 0}, {"scriptPubKey": {"reqSigs": 1, "hex": "76a9140f78c63d8c1771ddd9772508854fcdf3811fca8288ac", "addresses": ["12QopRqfRQxEsb9vWdKPQd2iSvxuB4ViqT"], "asm": "OP_DUP OP_HASH160 0f78c63d8c1771ddd9772508854fcdf3811fca82 OP_EQUALVERIFY OP_CHECKSIG", "type": "pubkeyhash"}, "value": 0.12611989, "n": 1}], "hex": "01000000010835f7c6b4ca08c94fabf86263c716951f7465a5f9706b434dd8232baaf12213000000006a473044022059d24fbe0c3e51e722075274ba87199e0017e9c213b38530642915a3bf62676702205bbf2d7e4e52897e70d53dab89cb2af812a2a0e99ed599d38bc1c01e068f8d32012102e4180337bdfe482d6e494ed06f086e04c499462f96ccf1f2f6c21efb765bd26cffffffff02b04b5f00000000001976a914387a4073b6093d269cd2cf8b5d35ef76c222e80488ac9571c000000000001976a9140f78c63d8c1771ddd9772508854fcdf3811fca8288ac00000000", "vin": [{"sequence": 4294967295, "scriptSig": {"hex": "473044022059d24fbe0c3e51e722075274ba87199e0017e9c213b38530642915a3bf62676702205bbf2d7e4e52897e70d53dab89cb2af812a2a0e99ed599d38bc1c01e068f8d32012102e4180337bdfe482d6e494ed06f086e04c499462f96ccf1f2f6c21efb765bd26c", "asm": "3044022059d24fbe0c3e51e722075274ba87199e0017e9c213b38530642915a3bf62676702205bbf2d7e4e52897e70d53dab89cb2af812a2a0e99ed599d38bc1c01e068f8d32[ALL] 02e4180337bdfe482d6e494ed06f086e04c499462f96ccf1f2f6c21efb765bd26c"}, "vout": 0, "txid": "1322f1aa2b23d84d436b70f9a565741f9516c76362f8ab4fc908cab4c6f73508"}], "txid": "3da40c90cc41b876993090a531f603bd62b9c645d03c72ce5fc19c5ab013f559", "blocktime": 1537873282, "version": 1, "confirmations": 11485, "time": 1537873282, "locktime": 0, "vsize": 225, "size": 225}