{"hash": "3da77ea8edb117203816aa33b02ae0dbc97491640e4467c2681a125dad421f51", "blockhash": "0000000000000000000e13cef7c366c0283d82e591d1acd082e914b08063cdf1", "vout": [{"scriptPubKey": {"type": "nulldata", "hex": "6a4c50000077a50001cbb205e5d82553f51ee4a0c3af6c953dd567cf27e7e3ef3236678a6250971726b13df038a3ece4a19bad472bfa265baa0efa0614574a5cb5650dbc9a9526289ac0f6612cd74e33776ee4", "asm": "OP_RETURN 000077a50001cbb205e5d82553f51ee4a0c3af6c953dd567cf27e7e3ef3236678a6250971726b13df038a3ece4a19bad472bfa265baa0efa0614574a5cb5650dbc9a9526289ac0f6612cd74e33776ee4"}, "value": 0.0, "n": 0}, {"scriptPubKey": {"reqSigs": 1, "hex": "76a9140703e9b4ca1ba31ee9b24a511c2852900c64d12488ac", "addresses": ["1e6RDafmHvxD9Voxnhpqmxjr85PjNyu51"], "asm": "OP_DUP OP_HASH160 0703e9b4ca1ba31ee9b24a511c2852900c64d124 OP_EQUALVERIFY OP_CHECKSIG", "type": "pubkeyhash"}, "value": 0.00120444, "n": 1}], "hex": "0100000001a611da1093fc9d248017331bc9f6a69cfa346be1040b69c8182abeb7541c7d36000000006a4730440220696681c46836a8fdd841e33a9fedafe92ceb47732e458ab2cccdc40193c52bdc0220055051c527dd829598661fd2b43a34844887c75dd6c9e3e0c94d088c93c013c30121033397a5cbbdbe7f9178a7b405971e8f4d09810bee28bebd3be0a835669cfab0aaffffffff020000000000000000536a4c50000077a50001cbb205e5d82553f51ee4a0c3af6c953dd567cf27e7e3ef3236678a6250971726b13df038a3ece4a19bad472bfa265baa0efa0614574a5cb5650dbc9a9526289ac0f6612cd74e33776ee47cd60100000000001976a9140703e9b4ca1ba31ee9b24a511c2852900c64d12488ac00000000", "vin": [{"sequence": 4294967295, "scriptSig": {"hex": "4730440220696681c46836a8fdd841e33a9fedafe92ceb47732e458ab2cccdc40193c52bdc0220055051c527dd829598661fd2b43a34844887c75dd6c9e3e0c94d088c93c013c30121033397a5cbbdbe7f9178a7b405971e8f4d09810bee28bebd3be0a835669cfab0aa", "asm": "30440220696681c46836a8fdd841e33a9fedafe92ceb47732e458ab2cccdc40193c52bdc0220055051c527dd829598661fd2b43a34844887c75dd6c9e3e0c94d088c93c013c3[ALL] 033397a5cbbdbe7f9178a7b405971e8f4d09810bee28bebd3be0a835669cfab0aa"}, "vout": 0, "txid": "367d1c54b7be2a18c8690b04e16b34fa9ca6f6c91b331780249dfc9310da11a6"}], "txid": "3da77ea8edb117203816aa33b02ae0dbc97491640e4467c2681a125dad421f51", "blocktime": 1537871767, "version": 1, "confirmations": 11493, "time": 1537871767, "locktime": 0, "vsize": 283, "size": 283}