{"hash": "3da81c408044aadbae03eb371d1d690dd328672bc897992b08ad209b2095ae68", "blockhash": "0000000000000000000e13cef7c366c0283d82e591d1acd082e914b08063cdf1", "vout": [{"scriptPubKey": {"reqSigs": 1, "hex": "76a914c22993ab54dedfaa7a3b72ed8dc2b510b2fb676088ac", "addresses": ["1Jhdu2Q6Wz6yEbFYHCsSdP1X5jHwVsCmLb"], "asm": "OP_DUP OP_HASH160 c22993ab54dedfaa7a3b72ed8dc2b510b2fb6760 OP_EQUALVERIFY OP_CHECKSIG", "type": "pubkeyhash"}, "value": 0.019, "n": 0}, {"scriptPubKey": {"reqSigs": 1, "hex": "76a91481514159684011e1205da4f0818981aede1783b588ac", "addresses": ["1CnmWTko3LYM2LpVNrtJ9vGmyAnNhCLkKL"], "asm": "OP_DUP OP_HASH160 81514159684011e1205da4f0818981aede1783b5 OP_EQUALVERIFY OP_CHECKSIG", "type": "pubkeyhash"}, "value": 0.31029076, "n": 1}], "hex": "01000000012189a3f9b8af00fb2a3b208bae5f2bf5132d0cb096195ed9dc181ee638fec685010000006a47304402207c748f38ed5aba451719b1f786357753bd9320f13ee950c253d99a70ee1426fa02204991787f813806636984c5b8eb396c70b63cae1736ee0a7ad50823e0a21180cd01210398420b6395609a2e13ab6cea2316d4d3efcd62c0eb47931078fceb2bd49c6c3fffffffff02e0fd1c00000000001976a914c22993ab54dedfaa7a3b72ed8dc2b510b2fb676088ac5477d901000000001976a91481514159684011e1205da4f0818981aede1783b588ac00000000", "vin": [{"sequence": 4294967295, "scriptSig": {"hex": "47304402207c748f38ed5aba451719b1f786357753bd9320f13ee950c253d99a70ee1426fa02204991787f813806636984c5b8eb396c70b63cae1736ee0a7ad50823e0a21180cd01210398420b6395609a2e13ab6cea2316d4d3efcd62c0eb47931078fceb2bd49c6c3f", "asm": "304402207c748f38ed5aba451719b1f786357753bd9320f13ee950c253d99a70ee1426fa02204991787f813806636984c5b8eb396c70b63cae1736ee0a7ad50823e0a21180cd[ALL] 0398420b6395609a2e13ab6cea2316d4d3efcd62c0eb47931078fceb2bd49c6c3f"}, "vout": 1, "txid": "85c6fe38e61e18dcd95e1996b00c2d13f52b5fae8b203b2afb00afb8f9a38921"}], "txid": "3da81c408044aadbae03eb371d1d690dd328672bc897992b08ad209b2095ae68", "blocktime": 1537871767, "version": 1, "confirmations": 11495, "time": 1537871767, "locktime": 0, "vsize": 225, "size": 225}