{"hash": "3daa984b62a14aee59c0fe7f77c566b376d5f8d349fa5c1141d46f3f38d4428e", "blockhash": "0000000000000000001cda96e906b7601b7a6fb1a3b62bca570a9e5d8f4b3de1", "vout": [{"scriptPubKey": {"reqSigs": 1, "hex": "76a914aa1d7f6f2f66952b1a1f53ceb6a82ebd27f7f3e788ac", "addresses": ["1GWVD9ucoivos3gedbTXqWYRRejVt3hYRQ"], "asm": "OP_DUP OP_HASH160 aa1d7f6f2f66952b1a1f53ceb6a82ebd27f7f3e7 OP_EQUALVERIFY OP_CHECKSIG", "type": "pubkeyhash"}, "value": 0.01760203, "n": 0}, {"scriptPubKey": {"reqSigs": 1, "hex": "76a9140ad8ac4c55937cefcfc3d7aff2f13dfa08d0833588ac", "addresses": ["1zMKdFceV1iqcvYzsrbVkKqiQRdVqSrUB"], "asm": "OP_DUP OP_HASH160 0ad8ac4c55937cefcfc3d7aff2f13dfa08d08335 OP_EQUALVERIFY OP_CHECKSIG", "type": "pubkeyhash"}, "value": 0.7485514, "n": 1}], "hex": "0100000001597382eb6b04e3acdcd8122545e3759da00af5da960e7c7b11ee10b8120e6d96010000006a473044022036cf1876e280a99b478ba91830de9a21d28131d0b9890b8c1c0ab1ed520b0e0f0220334df028444ac2abe1ff11031357f5f955978217b2790b98bcb7646a17205879012102641e9955483fe2160d4e0e4b8a32ddee4c135ab16c4b0717ea944048da4963dcffffffff02cbdb1a00000000001976a914aa1d7f6f2f66952b1a1f53ceb6a82ebd27f7f3e788ace4327604000000001976a9140ad8ac4c55937cefcfc3d7aff2f13dfa08d0833588ac00000000", "vin": [{"sequence": 4294967295, "scriptSig": {"hex": "473044022036cf1876e280a99b478ba91830de9a21d28131d0b9890b8c1c0ab1ed520b0e0f0220334df028444ac2abe1ff11031357f5f955978217b2790b98bcb7646a17205879012102641e9955483fe2160d4e0e4b8a32ddee4c135ab16c4b0717ea944048da4963dc", "asm": "3044022036cf1876e280a99b478ba91830de9a21d28131d0b9890b8c1c0ab1ed520b0e0f0220334df028444ac2abe1ff11031357f5f955978217b2790b98bcb7646a17205879[ALL] 02641e9955483fe2160d4e0e4b8a32ddee4c135ab16c4b0717ea944048da4963dc"}, "vout": 1, "txid": "966d0e12b810ee117b7c0e96daf50aa09d75e3452512d8dcace3046beb827359"}], "txid": "3daa984b62a14aee59c0fe7f77c566b376d5f8d349fa5c1141d46f3f38d4428e", "blocktime": 1537873282, "version": 1, "confirmations": 11485, "time": 1537873282, "locktime": 0, "vsize": 225, "size": 225}