{"hash": "3db0c0d8f0cedd666f1fdd5dd4412be54c3bfa515940cc1a8423ea704c5ef19f", "blockhash": "0000000000000000000e13cef7c366c0283d82e591d1acd082e914b08063cdf1", "vout": [{"scriptPubKey": {"type": "nulldata", "hex": "6a4c50000077a50001cbb205e5d82553f51ee4a0c3af6c953dd567cf27e7e3ef3236678a6250971726b13df038a3ece4a19bad472bfa265baa0efa0614574a5cb5650dbc9a9526289ac0f6612cd74e33776ee4", "asm": "OP_RETURN 000077a50001cbb205e5d82553f51ee4a0c3af6c953dd567cf27e7e3ef3236678a6250971726b13df038a3ece4a19bad472bfa265baa0efa0614574a5cb5650dbc9a9526289ac0f6612cd74e33776ee4"}, "value": 0.0, "n": 0}, {"scriptPubKey": {"reqSigs": 1, "hex": "76a914975af76bfbdfe5ab35c13cbbe33137b6361d8ec788ac", "addresses": ["1EoJ1RtEsFLA3cV8TmF1MaUZxy9TLV7gTV"], "asm": "OP_DUP OP_HASH160 975af76bfbdfe5ab35c13cbbe33137b6361d8ec7 OP_EQUALVERIFY OP_CHECKSIG", "type": "pubkeyhash"}, "value": 0.0009838, "n": 1}], "hex": "0100000001bd4d722865cdd5e201bfef2449924a738b9066a97b848b497bca49d8e8e380f2010000006b483045022100b476f0aa975ad13ec6cb786a27aef21a7db8887c4bd5c465a6e56e3ae70f16a502205017e6c72492d6f3104e197d71ad92604315250f80cff5b0b833f3242824e849012103b31db30dbe5560c4bb68707ee45546be1ec95606d3359915513bf9f3576faf56ffffffff020000000000000000536a4c50000077a50001cbb205e5d82553f51ee4a0c3af6c953dd567cf27e7e3ef3236678a6250971726b13df038a3ece4a19bad472bfa265baa0efa0614574a5cb5650dbc9a9526289ac0f6612cd74e33776ee44c800100000000001976a914975af76bfbdfe5ab35c13cbbe33137b6361d8ec788ac00000000", "vin": [{"sequence": 4294967295, "scriptSig": {"hex": "483045022100b476f0aa975ad13ec6cb786a27aef21a7db8887c4bd5c465a6e56e3ae70f16a502205017e6c72492d6f3104e197d71ad92604315250f80cff5b0b833f3242824e849012103b31db30dbe5560c4bb68707ee45546be1ec95606d3359915513bf9f3576faf56", "asm": "3045022100b476f0aa975ad13ec6cb786a27aef21a7db8887c4bd5c465a6e56e3ae70f16a502205017e6c72492d6f3104e197d71ad92604315250f80cff5b0b833f3242824e849[ALL] 03b31db30dbe5560c4bb68707ee45546be1ec95606d3359915513bf9f3576faf56"}, "vout": 1, "txid": "f280e3e8d849ca7b498b847ba966908b734a924924efbf01e2d5cd6528724dbd"}], "txid": "3db0c0d8f0cedd666f1fdd5dd4412be54c3bfa515940cc1a8423ea704c5ef19f", "blocktime": 1537871767, "version": 1, "confirmations": 11493, "time": 1537871767, "locktime": 0, "vsize": 284, "size": 284}