{"hash": "ff76918c9be239fa76713fad703a8550440edeb8e9cba978db4d618bfd91eca6", "blockhash": "0000000000000000001e0dab787dd257d1dbfcb92a98c2207d5e1078be1f4165", "vout": [{"scriptPubKey": {"reqSigs": 1, "hex": "a914e25d89f8e4cc4fc60b38955e93eac744f2a3208087", "addresses": ["3NKvh6daKJ47JfxgBTS3M99xQJixdcfJr6"], "asm": "OP_HASH160 e25d89f8e4cc4fc60b38955e93eac744f2a32080 OP_EQUAL", "type": "scripthash"}, "value": 0.02766197, "n": 0}, {"scriptPubKey": {"reqSigs": 1, "hex": "a9140a3fb49378030e8585ac5b6c9ea80af4f5a1797b87", "addresses": ["32dCznisUNvxDytUmB3EWhb6CEY7fc57fH"], "asm": "OP_HASH160 0a3fb49378030e8585ac5b6c9ea80af4f5a1797b OP_EQUAL", "type": "scripthash"}, "value": 0.01051769, "n": 1}], "hex": "01000000000101520fa635f67e38f2bfa46ff4c963a79a9bea1c120e9bb5b2c47503a21f1239a60000000023220020be8fef2c9c375912c0b5736de69dabf3119f8d3ef59dacf9ad010e689c43453dffffffff0275352a000000000017a914e25d89f8e4cc4fc60b38955e93eac744f2a3208087790c10000000000017a9140a3fb49378030e8585ac5b6c9ea80af4f5a1797b8704004730440220036930dfa0df7ab824d09183ecee756f652f44ddcbf02fa528a5397455c2600302205904342b6f719488cf2675253cd5895bcf78daaa12fe7fe9935da084d33308100147304402205068e3ca9f4c8805f32b3fd0356d704a67a6de0e92fc0f9f11856ad5a332e12f02204aaba04b3460cb710f7a06d575126367c996ab3aa507ef1e151e6e93ebb3fbf101695221038dbdd9d8ef6bc44d4deb8ed84881a6be969cf975e8102495a84970c2be5b0149210375981bba1ae11bf4caa2ab7fd3e0802880d0759ee19bf8d26f5603abe54233ef210323b03a6ddcd09b77c5ca5875cdfedadbd8b98f61677f5a053296926f1ba2c1f253ae13490800", "vin": [{"txinwitness": ["", "30440220036930dfa0df7ab824d09183ecee756f652f44ddcbf02fa528a5397455c2600302205904342b6f719488cf2675253cd5895bcf78daaa12fe7fe9935da084d333081001", "304402205068e3ca9f4c8805f32b3fd0356d704a67a6de0e92fc0f9f11856ad5a332e12f02204aaba04b3460cb710f7a06d575126367c996ab3aa507ef1e151e6e93ebb3fbf101", "5221038dbdd9d8ef6bc44d4deb8ed84881a6be969cf975e8102495a84970c2be5b0149210375981bba1ae11bf4caa2ab7fd3e0802880d0759ee19bf8d26f5603abe54233ef210323b03a6ddcd09b77c5ca5875cdfedadbd8b98f61677f5a053296926f1ba2c1f253ae"], "sequence": 4294967295, "scriptSig": {"hex": "220020be8fef2c9c375912c0b5736de69dabf3119f8d3ef59dacf9ad010e689c43453d", "asm": "0020be8fef2c9c375912c0b5736de69dabf3119f8d3ef59dacf9ad010e689c43453d"}, "vout": 0, "txid": "a639121fa20375c4b2b59b0e121cea9b9aa763c9f46fa4bff2387ef635a60f52"}], "txid": "3db5aa836b40d8cbf5739c3241f693d657e922a71e15e2af731a4fe30b60b63d", "blocktime": 1537872475, "version": 1, "confirmations": 11486, "time": 1537872475, "locktime": 542995, "vsize": 214, "size": 404}