{"hash": "3db8ad859b5379e72d19f4a2d4488c12fbaecdef4cd3650c6003a8b7f697004a", "blockhash": "00000000000000000018f53835495a110e01622372bf6ae95dc86f2b0ab887b0", "vout": [{"scriptPubKey": {"reqSigs": 1, "hex": "76a914a520c86a08366941cd90d22e11ac1c7eefa2db3788ac", "addresses": ["1G47mSr3oANXMafVrR8UC4pzV7FEAzo3r9"], "asm": "OP_DUP OP_HASH160 a520c86a08366941cd90d22e11ac1c7eefa2db37 OP_EQUALVERIFY OP_CHECKSIG", "type": "pubkeyhash"}, "value": 1.07951437, "n": 0}, {"scriptPubKey": {"reqSigs": 1, "hex": "a914e75f51373d8e43d50c9239f9e5c17a6fa168607b87", "addresses": ["3NnQCcde6RgAU8MWKuxspEaS97w2T4vtZt"], "asm": "OP_HASH160 e75f51373d8e43d50c9239f9e5c17a6fa168607b OP_EQUAL", "type": "scripthash"}, "value": 5.46e-06, "n": 1}, {"scriptPubKey": {"type": "nulldata", "hex": "6a146f6d6e69000000000000001f00000022b1179200", "asm": "OP_RETURN 6f6d6e69000000000000001f00000022b1179200"}, "value": 0.0, "n": 2}], "hex": "01000000018d30f35d51c773895602a3f25446661c208ad9ae53f70c42b2741a6d3a24bfa6010000006a473044022007a15da8513276fc89fe9c9d41a52bed823a889b7c07ced66a51c6819ecf64df02203fec4b58a00c53ef99d2615a2df04503f554993ae27301e3ed79d10f7fe56890012103f3f44c9e80e2cedc1a2909631a3adea8866ee32187f74d0912387359b0ff36a2ffffffff034d356f06000000001976a914a520c86a08366941cd90d22e11ac1c7eefa2db3788ac220200000000000017a914e75f51373d8e43d50c9239f9e5c17a6fa168607b870000000000000000166a146f6d6e69000000000000001f00000022b117920000000000", "vin": [{"sequence": 4294967295, "scriptSig": {"hex": "473044022007a15da8513276fc89fe9c9d41a52bed823a889b7c07ced66a51c6819ecf64df02203fec4b58a00c53ef99d2615a2df04503f554993ae27301e3ed79d10f7fe56890012103f3f44c9e80e2cedc1a2909631a3adea8866ee32187f74d0912387359b0ff36a2", "asm": "3044022007a15da8513276fc89fe9c9d41a52bed823a889b7c07ced66a51c6819ecf64df02203fec4b58a00c53ef99d2615a2df04503f554993ae27301e3ed79d10f7fe56890[ALL] 03f3f44c9e80e2cedc1a2909631a3adea8866ee32187f74d0912387359b0ff36a2"}, "vout": 1, "txid": "a6bf243a6d1a74b2420cf753aed98a201c664654f2a302568973c7515df3308d"}], "txid": "3db8ad859b5379e72d19f4a2d4488c12fbaecdef4cd3650c6003a8b7f697004a", "blocktime": 1537870928, "version": 1, "confirmations": 11512, "time": 1537870928, "locktime": 0, "vsize": 254, "size": 254}