{"hash": "1645e3ea803614ef79e9f3d0481d368eb80f61043ca7fb4f31f4484a579b70af", "blockhash": "0000000000000000001e0dab787dd257d1dbfcb92a98c2207d5e1078be1f4165", "vout": [{"scriptPubKey": {"reqSigs": 1, "hex": "a914e989d10f1358cd7bd16e95837ebc7133fe5b6a3f87", "addresses": ["3NyrTucn1vbfzbKtoVwaoXQxoUMuKPgdE3"], "asm": "OP_HASH160 e989d10f1358cd7bd16e95837ebc7133fe5b6a3f OP_EQUAL", "type": "scripthash"}, "value": 0.0001817, "n": 0}, {"scriptPubKey": {"reqSigs": 1, "hex": "a9140be7846be16b05bea00dbec2fcd7e045a793cb1787", "addresses": ["32mxhko5mJHfkbkDPpz7SfdJwEJi21P1WK"], "asm": "OP_HASH160 0be7846be16b05bea00dbec2fcd7e045a793cb17 OP_EQUAL", "type": "scripthash"}, "value": 0.19299221, "n": 1}], "hex": "01000000000101f4ee6acf1e2e459d5c1e4aaa8585972cbb1a5687125416ba2c3511572069900901000000232200202c66ece6da72bcbfeadf83a91236f4891c13e14d8ecebdcaa81666fc1aa73a31ffffffff02fa4600000000000017a914e989d10f1358cd7bd16e95837ebc7133fe5b6a3f87957b26010000000017a9140be7846be16b05bea00dbec2fcd7e045a793cb1787040047304402203b0bf91dc685f2d3666821beb2a071b71751fae1840bf30fae9a7a766a4bf7630220108b866c5c846b3642d8daaa2061337326927f92e407492d9424bc8859c4062d01483045022100af10b1a9688ac2990b947a4eddbba62d68eaf98f9496946e6bb3eaffb11a0b3f02202bd5608d87b85d3b901f4d3ed921a5e3dc35b77ddb3db57bead6f01963be089a01475221029e6fbb942d34a473faaa5557c1bfe08d72102f0b9754ad140fd369d7a3ba3cdc2103871fc2ca08e6950b38867e8e6a0e94ee625223d3aa0df5c65f414c6d784467e252ae00000000", "vin": [{"txinwitness": ["", "304402203b0bf91dc685f2d3666821beb2a071b71751fae1840bf30fae9a7a766a4bf7630220108b866c5c846b3642d8daaa2061337326927f92e407492d9424bc8859c4062d01", "3045022100af10b1a9688ac2990b947a4eddbba62d68eaf98f9496946e6bb3eaffb11a0b3f02202bd5608d87b85d3b901f4d3ed921a5e3dc35b77ddb3db57bead6f01963be089a01", "5221029e6fbb942d34a473faaa5557c1bfe08d72102f0b9754ad140fd369d7a3ba3cdc2103871fc2ca08e6950b38867e8e6a0e94ee625223d3aa0df5c65f414c6d784467e252ae"], "sequence": 4294967295, "scriptSig": {"hex": "2200202c66ece6da72bcbfeadf83a91236f4891c13e14d8ecebdcaa81666fc1aa73a31", "asm": "00202c66ece6da72bcbfeadf83a91236f4891c13e14d8ecebdcaa81666fc1aa73a31"}, "vout": 1, "txid": "099069205711352cba16541287561abb2c978585aa4a1e5c9d452e1ecf6aeef4"}], "txid": "3dbe9073b21d51c291afe8e056cff87a0aec34e52264b97fe14b5abcfe49eccb", "blocktime": 1537872475, "version": 1, "confirmations": 11487, "time": 1537872475, "locktime": 0, "vsize": 206, "size": 371}