{"hash": "3dc1144dfe10120601bba6ffdea58da9e4ac1dc617441368dbf79db6e9d2aaac", "blockhash": "0000000000000000001f0ddff1eddb255c1121bcd4da4f1bc9a0da00cae72433", "vout": [{"scriptPubKey": {"reqSigs": 1, "hex": "a9141132b79c627de22c63338aebf35179ab21f4dd2f87", "addresses": ["33FxAhYLr9oqUQTmpLJH63tTBv289EiFVh"], "asm": "OP_HASH160 1132b79c627de22c63338aebf35179ab21f4dd2f OP_EQUAL", "type": "scripthash"}, "value": 0.0425429, "n": 0}], "hex": "010000000119496009684a69efec9e8c6701b0499085518145833293c8d3866705a81626be000000006a473044022013af81bc76a562e5706a01b4219ac2b805d56284ed3bd4093ed54e76d1b250d8022079a2517f5b9c5f4633012d501ede91fc0de405bc5de01e2b6e307b292777492701210246d990a6a2ee32845bbf668f48fc545fee74a149c4e84709e532f2e8f0dea41effffffff0152ea40000000000017a9141132b79c627de22c63338aebf35179ab21f4dd2f8700000000", "vin": [{"sequence": 4294967295, "scriptSig": {"hex": "473044022013af81bc76a562e5706a01b4219ac2b805d56284ed3bd4093ed54e76d1b250d8022079a2517f5b9c5f4633012d501ede91fc0de405bc5de01e2b6e307b292777492701210246d990a6a2ee32845bbf668f48fc545fee74a149c4e84709e532f2e8f0dea41e", "asm": "3044022013af81bc76a562e5706a01b4219ac2b805d56284ed3bd4093ed54e76d1b250d8022079a2517f5b9c5f4633012d501ede91fc0de405bc5de01e2b6e307b2927774927[ALL] 0246d990a6a2ee32845bbf668f48fc545fee74a149c4e84709e532f2e8f0dea41e"}, "vout": 0, "txid": "be2616a8056786d3c8933283458151859049b001678c9eecef694a6809604919"}], "txid": "3dc1144dfe10120601bba6ffdea58da9e4ac1dc617441368dbf79db6e9d2aaac", "blocktime": 1537872018, "version": 1, "confirmations": 11489, "time": 1537872018, "locktime": 0, "vsize": 189, "size": 189}