{"hash": "9d117cd78a0b6547d23115f4b720c1696a5d641b19a09264f50aaf43e46a00ca", "blockhash": "0000000000000000001e0dab787dd257d1dbfcb92a98c2207d5e1078be1f4165", "vout": [{"scriptPubKey": {"reqSigs": 1, "hex": "a9141c0fb5e542d0a277741dfd43df18345780a76dec87", "addresses": ["34FPfW45XhZSjz2PvqdGn7WFeWqFhhdApz"], "asm": "OP_HASH160 1c0fb5e542d0a277741dfd43df18345780a76dec OP_EQUAL", "type": "scripthash"}, "value": 0.0088, "n": 0}, {"scriptPubKey": {"reqSigs": 1, "hex": "a914d783a532a1ab697b51cd072ed600ea77c4bb4a9b87", "addresses": ["3MLYufRo2XmhJR7ZknbWj2AQrdzQc8pVjp"], "asm": "OP_HASH160 d783a532a1ab697b51cd072ed600ea77c4bb4a9b OP_EQUAL", "type": "scripthash"}, "value": 0.01399165, "n": 1}], "hex": "01000000000101a5c22248e03695c6d21ec9d3b1f7ec697e7e659fa849e750fcf7721b5b4bd4320800000017160014a3af02f470677244497aeb64d87a32c4167d6c46ffffffff02806d0d000000000017a9141c0fb5e542d0a277741dfd43df18345780a76dec877d5915000000000017a914d783a532a1ab697b51cd072ed600ea77c4bb4a9b8702483045022100de769affc063041dc6dc80a1e9fed2b720cb6cb32e031e2c94341404b61f3dfa02203c4103d1bb787105ec78033b63059e8c33ec2ee086851bc37b4942b388306167012103be366c05da2fb4ddb5e2913894707adc78656807b4032fa5c83b82718d0d188e00000000", "vin": [{"txinwitness": ["3045022100de769affc063041dc6dc80a1e9fed2b720cb6cb32e031e2c94341404b61f3dfa02203c4103d1bb787105ec78033b63059e8c33ec2ee086851bc37b4942b38830616701", "03be366c05da2fb4ddb5e2913894707adc78656807b4032fa5c83b82718d0d188e"], "sequence": 4294967295, "scriptSig": {"hex": "160014a3af02f470677244497aeb64d87a32c4167d6c46", "asm": "0014a3af02f470677244497aeb64d87a32c4167d6c46"}, "vout": 8, "txid": "32d44b5b1b72f7fc50e749a89f657e7e69ecf7b1d3c91ed2c69536e04822c2a5"}], "txid": "3dcee38e2d722522c1c469528e9632466fc5edb1eea33241e2cb9352940b84d4", "blocktime": 1537872475, "version": 1, "confirmations": 11486, "time": 1537872475, "locktime": 0, "vsize": 166, "size": 248}