{"hash": "32bf1ea53924aa1a7ee886832a6970eb7727ada853878f66e68b10f54a93afe6", "blockhash": "00000000000000000017f5eb5941039fbcee6240d03bc1f2f8e35350df66a1d8", "vout": [{"scriptPubKey": {"reqSigs": 1, "hex": "a9143f8c2fa6c511ec96c9c92835b5f2961884d33cf387", "addresses": ["37V2Rw3xJN5N5jXMgVami28fVeBVyrDVG8"], "asm": "OP_HASH160 3f8c2fa6c511ec96c9c92835b5f2961884d33cf3 OP_EQUAL", "type": "scripthash"}, "value": 0.01379916, "n": 0}, {"scriptPubKey": {"reqSigs": 1, "hex": "a91460276a1fd8f17c496722679fe55b451b89cd7cfe87", "addresses": ["3ATS1XiDhQuXMhFaSygxgfHHQFpKKinLb6"], "asm": "OP_HASH160 60276a1fd8f17c496722679fe55b451b89cd7cfe OP_EQUAL", "type": "scripthash"}, "value": 0.06820337, "n": 1}], "hex": "01000000000101fdff0cd859c0eb9eb92571943c7f6cbf2db2728bc7b029890727d8d4fb354280010000002322002097710aa3e1ae7eeaf4298ac48bf39d87bfb7f16644a083863c0f54c309033284ffffffff024c0e15000000000017a9143f8c2fa6c511ec96c9c92835b5f2961884d33cf387f11168000000000017a91460276a1fd8f17c496722679fe55b451b89cd7cfe870400483045022100e81c00a60adecc4d25834b09bc053cf19c673b66e17c071bf1772f7a0a0d42770220760e5871e78cc5f8a3242570fe16a403cbdd3e4705148546982905a3b04c79400147304402200bd1310b61b19997ffd429a8b42731214516d80c8793cb24174b731381381943022028d9aa87d5e1260a059251c6f3888952e73fc91b015d6eafc157ae3cc018167d014752210374533077badfad561ae4ad0bf67b95646dec264fbb3a96e4818f787acc90b45621038407424ead2b88063db2d589e50c34e1572f6b82eb9e266dec536939ee0db9eb52ae00000000", "vin": [{"txinwitness": ["", "3045022100e81c00a60adecc4d25834b09bc053cf19c673b66e17c071bf1772f7a0a0d42770220760e5871e78cc5f8a3242570fe16a403cbdd3e4705148546982905a3b04c794001", "304402200bd1310b61b19997ffd429a8b42731214516d80c8793cb24174b731381381943022028d9aa87d5e1260a059251c6f3888952e73fc91b015d6eafc157ae3cc018167d01", "52210374533077badfad561ae4ad0bf67b95646dec264fbb3a96e4818f787acc90b45621038407424ead2b88063db2d589e50c34e1572f6b82eb9e266dec536939ee0db9eb52ae"], "sequence": 4294967295, "scriptSig": {"hex": "22002097710aa3e1ae7eeaf4298ac48bf39d87bfb7f16644a083863c0f54c309033284", "asm": "002097710aa3e1ae7eeaf4298ac48bf39d87bfb7f16644a083863c0f54c309033284"}, "vout": 1, "txid": "804235fbd4d827078929b0c78b72b22dbf6c7f3c947125b99eebc059d80cfffd"}], "txid": "3dd144c3fe45c217531119888759d3160e67450820bbc5ad1be3aed49e6ffddb", "blocktime": 1537874412, "version": 1, "confirmations": 11467, "time": 1537874412, "locktime": 0, "vsize": 206, "size": 371}