{"hash": "3dd1c8ff844705c18c6a8ba5412303c2ddecbaf166ad92ba663f2d239cc82f0f", "blockhash": "0000000000000000001cda96e906b7601b7a6fb1a3b62bca570a9e5d8f4b3de1", "vout": [{"scriptPubKey": {"reqSigs": 1, "hex": "76a91473b345531f86a554940ba484dff8e61e5fcd712388ac", "addresses": ["1BYmU1pAyf8dw3UqFEmvAXK15MrWNtSdh9"], "asm": "OP_DUP OP_HASH160 73b345531f86a554940ba484dff8e61e5fcd7123 OP_EQUALVERIFY OP_CHECKSIG", "type": "pubkeyhash"}, "value": 0.002029, "n": 0}, {"scriptPubKey": {"reqSigs": 1, "hex": "76a91483ab59cc9b7add37be2a58977e6a875ed9c8110e88ac", "addresses": ["1D1CnnrX5bduPSbDE4CzUAg7dHfpZdshH5"], "asm": "OP_DUP OP_HASH160 83ab59cc9b7add37be2a58977e6a875ed9c8110e OP_EQUALVERIFY OP_CHECKSIG", "type": "pubkeyhash"}, "value": 0.01891422, "n": 1}], "hex": "0100000001f28cc620b51baeda52cf9da534df30edbf96b529b63c98b36290af3dd96ec761150000006a47304402207f425aed4b33523f92d106e25b45f1224bf3333b15c3160425ad6ea7bd5936fa02207379c9407cb5c7282570808f53902fa2cfd8391a154f5e0661c5f4325a29916f01210232f37a2a4c46f5717b36c1d23f55c0580a3e1d2ea48ebc0d0c30766a927d543bffffffff0294180300000000001976a91473b345531f86a554940ba484dff8e61e5fcd712388ac5edc1c00000000001976a91483ab59cc9b7add37be2a58977e6a875ed9c8110e88ac00000000", "vin": [{"sequence": 4294967295, "scriptSig": {"hex": "47304402207f425aed4b33523f92d106e25b45f1224bf3333b15c3160425ad6ea7bd5936fa02207379c9407cb5c7282570808f53902fa2cfd8391a154f5e0661c5f4325a29916f01210232f37a2a4c46f5717b36c1d23f55c0580a3e1d2ea48ebc0d0c30766a927d543b", "asm": "304402207f425aed4b33523f92d106e25b45f1224bf3333b15c3160425ad6ea7bd5936fa02207379c9407cb5c7282570808f53902fa2cfd8391a154f5e0661c5f4325a29916f[ALL] 0232f37a2a4c46f5717b36c1d23f55c0580a3e1d2ea48ebc0d0c30766a927d543b"}, "vout": 21, "txid": "61c76ed93daf9062b3983cb629b596bfed30df34a59dcf52daae1bb520c68cf2"}], "txid": "3dd1c8ff844705c18c6a8ba5412303c2ddecbaf166ad92ba663f2d239cc82f0f", "blocktime": 1537873282, "version": 1, "confirmations": 11484, "time": 1537873282, "locktime": 0, "vsize": 225, "size": 225}