{"hash": "3dd7254d1a38ece6d5e5e9181f55af2cfdfd5f5f99371045168bcadea91da7b1", "blockhash": "0000000000000000001e0dab787dd257d1dbfcb92a98c2207d5e1078be1f4165", "vout": [{"scriptPubKey": {"type": "nulldata", "hex": "6a4c50000077b40001a3e117a7232cec5e973e64b5e5bf9ae76da98a211aaf6c953dd567cf27e7a4fafc486f64692741b78334a1540cc85baa11ab0611ce530feb721b1d100759d4ba30d2c37bb011d97e02cf", "asm": "OP_RETURN 000077b40001a3e117a7232cec5e973e64b5e5bf9ae76da98a211aaf6c953dd567cf27e7a4fafc486f64692741b78334a1540cc85baa11ab0611ce530feb721b1d100759d4ba30d2c37bb011d97e02cf"}, "value": 0.0, "n": 0}, {"scriptPubKey": {"reqSigs": 1, "hex": "76a91422cf73a521010b6d09bbf4ed99cff8cef304c32288ac", "addresses": ["14B4VXG3eBr5YWJ8YqYAgVup8yeYqFAHrr"], "asm": "OP_DUP OP_HASH160 22cf73a521010b6d09bbf4ed99cff8cef304c322 OP_EQUALVERIFY OP_CHECKSIG", "type": "pubkeyhash"}, "value": 0.00639309, "n": 1}], "hex": "0100000001f4277f9504286bb4139bf5afebdf05e297448b536e24de8dbeab5a0277e8aaf6000000006a47304402206b73f5f9f3a00208883981a9ce23ecfdb0ad492211dc948757a6560277d44b87022012bf78db9110567fffeafd2f50af2f7a14d2bd21599918bebc87e8f6464ef2be0121030b3a6839f4997547170f92df2efe737b39d003e2aaaf100b176fa88c2ca057edffffffff020000000000000000536a4c50000077b40001a3e117a7232cec5e973e64b5e5bf9ae76da98a211aaf6c953dd567cf27e7a4fafc486f64692741b78334a1540cc85baa11ab0611ce530feb721b1d100759d4ba30d2c37bb011d97e02cf4dc10900000000001976a91422cf73a521010b6d09bbf4ed99cff8cef304c32288ac00000000", "vin": [{"sequence": 4294967295, "scriptSig": {"hex": "47304402206b73f5f9f3a00208883981a9ce23ecfdb0ad492211dc948757a6560277d44b87022012bf78db9110567fffeafd2f50af2f7a14d2bd21599918bebc87e8f6464ef2be0121030b3a6839f4997547170f92df2efe737b39d003e2aaaf100b176fa88c2ca057ed", "asm": "304402206b73f5f9f3a00208883981a9ce23ecfdb0ad492211dc948757a6560277d44b87022012bf78db9110567fffeafd2f50af2f7a14d2bd21599918bebc87e8f6464ef2be[ALL] 030b3a6839f4997547170f92df2efe737b39d003e2aaaf100b176fa88c2ca057ed"}, "vout": 0, "txid": "f6aae877025aabbe8dde246e538b4497e205dfebaff59b13b46b2804957f27f4"}], "txid": "3dd7254d1a38ece6d5e5e9181f55af2cfdfd5f5f99371045168bcadea91da7b1", "blocktime": 1537872475, "version": 1, "confirmations": 11486, "time": 1537872475, "locktime": 0, "vsize": 283, "size": 283}