{"hash": "3ddc350677e1f61253f1095c356e5294f2378b0065ade93c3c155f84ea9eeadd", "blockhash": "0000000000000000001f76057863aec43deb6fa401d9628bb513d65a8098bfab", "vout": [{"scriptPubKey": {"type": "nulldata", "hex": "6a4c50000077dd0001df7f9b25c367783ad17e05127af8e8e963c7cfd5b95b23cc0f42c2fc38c574de08ad8eb88e5b1ec203ef39f6eff25baa161e06130a5f4f340673bc9a9526289ac0f6612cd74e33776ee4", "asm": "OP_RETURN 000077dd0001df7f9b25c367783ad17e05127af8e8e963c7cfd5b95b23cc0f42c2fc38c574de08ad8eb88e5b1ec203ef39f6eff25baa161e06130a5f4f340673bc9a9526289ac0f6612cd74e33776ee4"}, "value": 0.0, "n": 0}, {"scriptPubKey": {"reqSigs": 1, "hex": "76a91480378af1c728da52f9e5c770257d4b5697799f4f88ac", "addresses": ["1Cgx2jUbR4EG8TSFZRopdD2WcPLN4dFZ1b"], "asm": "OP_DUP OP_HASH160 80378af1c728da52f9e5c770257d4b5697799f4f OP_EQUALVERIFY OP_CHECKSIG", "type": "pubkeyhash"}, "value": 0.00107904, "n": 1}], "hex": "0100000001673f7c1bf3715fcbc2c7ca5f2dcef405e5d9e7d449cd2b8aa97355c17169fff0010000006b483045022100d36acc17820b3b6db504d5a3a54c3e9e346c123db048a0eda2cc9f2706caf68202203bb77ff1f1c9b539793f6e3ea52c731cae7a60e2808630afcd03e97cca70a0a8012102af4ed6148234ceddb2ebfab5db5a0bff9e29dc2322b574a37249bdcab289af06ffffffff020000000000000000536a4c50000077dd0001df7f9b25c367783ad17e05127af8e8e963c7cfd5b95b23cc0f42c2fc38c574de08ad8eb88e5b1ec203ef39f6eff25baa161e06130a5f4f340673bc9a9526289ac0f6612cd74e33776ee480a50100000000001976a91480378af1c728da52f9e5c770257d4b5697799f4f88ac00000000", "vin": [{"sequence": 4294967295, "scriptSig": {"hex": "483045022100d36acc17820b3b6db504d5a3a54c3e9e346c123db048a0eda2cc9f2706caf68202203bb77ff1f1c9b539793f6e3ea52c731cae7a60e2808630afcd03e97cca70a0a8012102af4ed6148234ceddb2ebfab5db5a0bff9e29dc2322b574a37249bdcab289af06", "asm": "3045022100d36acc17820b3b6db504d5a3a54c3e9e346c123db048a0eda2cc9f2706caf68202203bb77ff1f1c9b539793f6e3ea52c731cae7a60e2808630afcd03e97cca70a0a8[ALL] 02af4ed6148234ceddb2ebfab5db5a0bff9e29dc2322b574a37249bdcab289af06"}, "vout": 1, "txid": "f0ff6971c15573a98a2bcd49d4e7d9e505f4ce2d5fcac7c2cb5f71f31b7c3f67"}], "txid": "3ddc350677e1f61253f1095c356e5294f2378b0065ade93c3c155f84ea9eeadd", "blocktime": 1537873891, "version": 1, "confirmations": 11478, "time": 1537873891, "locktime": 0, "vsize": 284, "size": 284}