{"hash": "3de9cb928ed727cd418f0ea97297327e53a224d184aa038bbd82c8638ac573db", "blockhash": "0000000000000000000e13cef7c366c0283d82e591d1acd082e914b08063cdf1", "vout": [{"scriptPubKey": {"reqSigs": 1, "hex": "a914c51b03ad0cf4cfd0bfbfb5314664b9afcd4a3bf387", "addresses": ["3KfDQKoLZyQBNYNGFSaD6nMnB8i2hNiQ9G"], "asm": "OP_HASH160 c51b03ad0cf4cfd0bfbfb5314664b9afcd4a3bf3 OP_EQUAL", "type": "scripthash"}, "value": 0.00285074, "n": 0}, {"scriptPubKey": {"reqSigs": 1, "hex": "76a914d8d672837979320fe9b9f76358c85592280a594a88ac", "addresses": ["1LmXrVnWFhgcsg9UVjnXEhUC7t2RzCEGq6"], "asm": "OP_DUP OP_HASH160 d8d672837979320fe9b9f76358c85592280a594a OP_EQUALVERIFY OP_CHECKSIG", "type": "pubkeyhash"}, "value": 0.01376738, "n": 1}], "hex": "0100000001b3cc9c164d8b8fbe1ee9ce48435ddf03f1f27884d18f493914798d37ddcfdc9600000000fdfd0000483045022100de02d3ba7f289af95f5449cebe30f17c1dcafbe9558319e5e1fab6f9bf5fc30902200cf2921f14b54d68440ff282e5e3eb102b9aabbf9dcd3cf923b4afab47c141a201473044022024762e1360b975f59a2adbfde44617393acd72ef28cbf936aa3dd2802b780a7e0220035e55028533ec1f6c98b8c2c4b22c3544c997a4f0b7d9e1ae329003147d443e014c695221022efde4e876e6b542b6dd712249f2bedf41579cbaaf1dd79b6098ad22063f836821025ae2ba7eb23447b40c51baf864dde814b5bf090635ae5e8a4361dae5d61a53ae2103c136dfd37b39243e071516310f90accd33526be5684b2fec73b78830085b1e8d53aeffffffff02925904000000000017a914c51b03ad0cf4cfd0bfbfb5314664b9afcd4a3bf387e2011500000000001976a914d8d672837979320fe9b9f76358c85592280a594a88ac00000000", "vin": [{"sequence": 4294967295, "scriptSig": {"hex": "00483045022100de02d3ba7f289af95f5449cebe30f17c1dcafbe9558319e5e1fab6f9bf5fc30902200cf2921f14b54d68440ff282e5e3eb102b9aabbf9dcd3cf923b4afab47c141a201473044022024762e1360b975f59a2adbfde44617393acd72ef28cbf936aa3dd2802b780a7e0220035e55028533ec1f6c98b8c2c4b22c3544c997a4f0b7d9e1ae329003147d443e014c695221022efde4e876e6b542b6dd712249f2bedf41579cbaaf1dd79b6098ad22063f836821025ae2ba7eb23447b40c51baf864dde814b5bf090635ae5e8a4361dae5d61a53ae2103c136dfd37b39243e071516310f90accd33526be5684b2fec73b78830085b1e8d53ae", "asm": "0 3045022100de02d3ba7f289af95f5449cebe30f17c1dcafbe9558319e5e1fab6f9bf5fc30902200cf2921f14b54d68440ff282e5e3eb102b9aabbf9dcd3cf923b4afab47c141a2[ALL] 3044022024762e1360b975f59a2adbfde44617393acd72ef28cbf936aa3dd2802b780a7e0220035e55028533ec1f6c98b8c2c4b22c3544c997a4f0b7d9e1ae329003147d443e[ALL] 5221022efde4e876e6b542b6dd712249f2bedf41579cbaaf1dd79b6098ad22063f836821025ae2ba7eb23447b40c51baf864dde814b5bf090635ae5e8a4361dae5d61a53ae2103c136dfd37b39243e071516310f90accd33526be5684b2fec73b78830085b1e8d53ae"}, "vout": 0, "txid": "96dccfdd378d791439498fd18478f2f103df5d4348cee91ebe8f8b4d169cccb3"}], "txid": "3de9cb928ed727cd418f0ea97297327e53a224d184aa038bbd82c8638ac573db", "blocktime": 1537871767, "version": 1, "confirmations": 11493, "time": 1537871767, "locktime": 0, "vsize": 372, "size": 372}