{"hash": "389d8bd0223df54a06e2afb01c5f7abe9cf8dc8918929fa387ad7a5fd41ef816", "blockhash": "00000000000000000018f53835495a110e01622372bf6ae95dc86f2b0ab887b0", "vout": [{"scriptPubKey": {"reqSigs": 1, "hex": "a914d186399f349c5a356c2e40284725b70a6ca4638887", "addresses": ["3LnswkxhLCLTtHAzEfcir7JGjYRKtGDo26"], "asm": "OP_HASH160 d186399f349c5a356c2e40284725b70a6ca46388 OP_EQUAL", "type": "scripthash"}, "value": 0.00538043, "n": 0}, {"scriptPubKey": {"reqSigs": 1, "hex": "a914005aad6a910c8d6dccb6c712beffaf5bf81e247f87", "addresses": ["31itYvLhzjRVtteGCXDVfA8wEj263n6yNx"], "asm": "OP_HASH160 005aad6a910c8d6dccb6c712beffaf5bf81e247f OP_EQUAL", "type": "scripthash"}, "value": 0.01138217, "n": 1}], "hex": "02000000000101eb81c98c74582770065ca3d9a602949a13000a735d3a318500e92119f0cfb4d801000000171600143bc50ddb1d6fce59fb4e7c978a08c1b728861badfeffffff02bb3508000000000017a914d186399f349c5a356c2e40284725b70a6ca4638887295e11000000000017a914005aad6a910c8d6dccb6c712beffaf5bf81e247f87024830450221008e82ad1103655e11fb6ec1a82e34f381804748996626f0c4c086ba99271dd7fe02205727f6dda47d12666a955fa91bf96f44579816ddd3bb93a19310cd0832f15164012102214e7b5d06eb0d009661b792ee77a71ef5f3fdfe02dfc26e31d4c944eafcef0b0e490800", "vin": [{"txinwitness": ["30450221008e82ad1103655e11fb6ec1a82e34f381804748996626f0c4c086ba99271dd7fe02205727f6dda47d12666a955fa91bf96f44579816ddd3bb93a19310cd0832f1516401", "02214e7b5d06eb0d009661b792ee77a71ef5f3fdfe02dfc26e31d4c944eafcef0b"], "sequence": 4294967294, "scriptSig": {"hex": "1600143bc50ddb1d6fce59fb4e7c978a08c1b728861bad", "asm": "00143bc50ddb1d6fce59fb4e7c978a08c1b728861bad"}, "vout": 1, "txid": "d8b4cff01921e90085313a5d730a00139a9402a6d9a35c06702758748cc981eb"}], "txid": "3deb688be3b6ebf818f9723bd7977623835f437630844a8a4a732c00905e226f", "blocktime": 1537870928, "version": 2, "confirmations": 11514, "time": 1537870928, "locktime": 542990, "vsize": 166, "size": 248}