{"hash": "0ec947ebb07c61758ab9ad98da5aac129c9826b15b5dbadff74bbc248986224b", "blockhash": "0000000000000000000baef3f32e3676a92c3b2e5da21b426e4f302fc371ce76", "vout": [{"scriptPubKey": {"reqSigs": 1, "hex": "a91472ded2a0f667f988474901051d34edfe002fbf7187", "addresses": ["3CAPtQipnAYQV68mthjx8ukz7FXHUJfbNo"], "asm": "OP_HASH160 72ded2a0f667f988474901051d34edfe002fbf71 OP_EQUAL", "type": "scripthash"}, "value": 0.3, "n": 0}, {"scriptPubKey": {"reqSigs": 1, "hex": "a914fff3136abe478fee18e15dc1aade265699b51dba87", "addresses": ["3R2MRfcJm7SGfVXonpyxHKJdcKLhcqWT2Y"], "asm": "OP_HASH160 fff3136abe478fee18e15dc1aade265699b51dba OP_EQUAL", "type": "scripthash"}, "value": 16.26264471, "n": 1}], "hex": "010000000001013c5483c129fc4518dad526ccf15c579ad8fd6ad78161d376145385e16f6e36f20100000017160014edf00376b337acca734ed2f4363349e9200b4369ffffffff0280c3c9010000000017a91472ded2a0f667f988474901051d34edfe002fbf718797d3ee600000000017a914fff3136abe478fee18e15dc1aade265699b51dba87024830450221008366c52d336d9e9c89f89f3caa588ffa359d11708f1d10567c4cc0f8bba597b302204617f98491ba3526985bb608f80d05c3a4b86622bac8ce19c3ce49d04697593101210329ef2b40ec9c3709886948d6343497ff790aba8119f6bbea0397b9417e8c778300000000", "vin": [{"txinwitness": ["30450221008366c52d336d9e9c89f89f3caa588ffa359d11708f1d10567c4cc0f8bba597b302204617f98491ba3526985bb608f80d05c3a4b86622bac8ce19c3ce49d04697593101", "0329ef2b40ec9c3709886948d6343497ff790aba8119f6bbea0397b9417e8c7783"], "sequence": 4294967295, "scriptSig": {"hex": "160014edf00376b337acca734ed2f4363349e9200b4369", "asm": "0014edf00376b337acca734ed2f4363349e9200b4369"}, "vout": 1, "txid": "f2366e6fe185531476d36181d76afdd89a575cf1cc26d5da1845fc29c183543c"}], "txid": "3def0c276a338e3f7dca99244d887dace27778b1122a1d94721797e30963e939", "blocktime": 1537876114, "version": 1, "confirmations": 11460, "time": 1537876114, "locktime": 0, "vsize": 166, "size": 248}