{"hash": "3df1a448568222b98136b6b51982b04313819555de98e72a5274583e09fc8f88", "blockhash": "0000000000000000000e13cef7c366c0283d82e591d1acd082e914b08063cdf1", "vout": [{"scriptPubKey": {"reqSigs": 1, "hex": "76a914cd91a06e3e3309eb357b70561fa9be843fce389888ac", "addresses": ["1KjwyeP6bTM4SUGmNpixeCq5WDpZE2nZ5n"], "asm": "OP_DUP OP_HASH160 cd91a06e3e3309eb357b70561fa9be843fce3898 OP_EQUALVERIFY OP_CHECKSIG", "type": "pubkeyhash"}, "value": 0.08191692, "n": 0}, {"scriptPubKey": {"reqSigs": 1, "hex": "76a91423b75d4d76578f79aec7975248a9967356680c9888ac", "addresses": ["14FrK6pVQCcvpiJ43bHSvdDxBA8V1GMr3D"], "asm": "OP_DUP OP_HASH160 23b75d4d76578f79aec7975248a9967356680c98 OP_EQUALVERIFY OP_CHECKSIG", "type": "pubkeyhash"}, "value": 0.1233763, "n": 1}], "hex": "010000000162427f0ba53ec60b32f2fdfb2d8fcff9ea05486d9e0a8d9399ed51ad6faa8e71090000006a473044022000d99f9b4dc55fae8daef72af54c44c53319a63276be6a059da0f6f96c57b19a02200832c6a8fdc520f859769a9c1bfd50379cbface4d8d6a96a1abe6df87747ffd80121030e2a6460ba026ed1ada85e5c59883f187043650ae0aa57aa1a0be6738832d805ffffffff02ccfe7c00000000001976a914cd91a06e3e3309eb357b70561fa9be843fce389888acde41bc00000000001976a91423b75d4d76578f79aec7975248a9967356680c9888ac00000000", "vin": [{"sequence": 4294967295, "scriptSig": {"hex": "473044022000d99f9b4dc55fae8daef72af54c44c53319a63276be6a059da0f6f96c57b19a02200832c6a8fdc520f859769a9c1bfd50379cbface4d8d6a96a1abe6df87747ffd80121030e2a6460ba026ed1ada85e5c59883f187043650ae0aa57aa1a0be6738832d805", "asm": "3044022000d99f9b4dc55fae8daef72af54c44c53319a63276be6a059da0f6f96c57b19a02200832c6a8fdc520f859769a9c1bfd50379cbface4d8d6a96a1abe6df87747ffd8[ALL] 030e2a6460ba026ed1ada85e5c59883f187043650ae0aa57aa1a0be6738832d805"}, "vout": 9, "txid": "718eaa6fad51ed99938d0a9e6d4805eaf9cf8f2dfbfdf2320bc63ea50b7f4262"}], "txid": "3df1a448568222b98136b6b51982b04313819555de98e72a5274583e09fc8f88", "blocktime": 1537871767, "version": 1, "confirmations": 11493, "time": 1537871767, "locktime": 0, "vsize": 225, "size": 225}