{"hash": "3df57692677fcdcb91c3860043298428399da1979bccce2b8287307abe65dc5a", "blockhash": "00000000000000000017f5eb5941039fbcee6240d03bc1f2f8e35350df66a1d8", "vout": [{"scriptPubKey": {"type": "nulldata", "hex": "6a4c50000077fd000111e85041433989018c4eec9bd19ed074892d00f8e87af8e8e963c7cfd5b9c612cb83320704831df896aeb96185b45baa19830613cebbf6251a09bc9a9526289ac0f6612cd74e33776ee4", "asm": "OP_RETURN 000077fd000111e85041433989018c4eec9bd19ed074892d00f8e87af8e8e963c7cfd5b9c612cb83320704831df896aeb96185b45baa19830613cebbf6251a09bc9a9526289ac0f6612cd74e33776ee4"}, "value": 0.0, "n": 0}, {"scriptPubKey": {"reqSigs": 1, "hex": "76a914c1e701a67d2d9f2210488f9ade163f2d90ddbb1188ac", "addresses": ["1JgG9dgyLJn3yiaziZfTBn1RkCCoekLCS3"], "asm": "OP_DUP OP_HASH160 c1e701a67d2d9f2210488f9ade163f2d90ddbb11 OP_EQUALVERIFY OP_CHECKSIG", "type": "pubkeyhash"}, "value": 0.022076, "n": 1}], "hex": "01000000010e04bdd3f4b852b26acf892d36eeff7da5493aec678746b49cc79057d3025597000000006a47304402204a6986e1b921b930f4161b0f31f878bf4402e966a0c43ed99d3e5315b49352970220275e88e816ad5a89591c7ff509c4d835c70f41f71237f3c6f95e2fac9c57e452012103859c9f0d81ab274b217300d9e270178c40e5fc5ae80ebd543c27e7d1365a4685ffffffff020000000000000000536a4c50000077fd000111e85041433989018c4eec9bd19ed074892d00f8e87af8e8e963c7cfd5b9c612cb83320704831df896aeb96185b45baa19830613cebbf6251a09bc9a9526289ac0f6612cd74e33776ee470af2100000000001976a914c1e701a67d2d9f2210488f9ade163f2d90ddbb1188ac00000000", "vin": [{"sequence": 4294967295, "scriptSig": {"hex": "47304402204a6986e1b921b930f4161b0f31f878bf4402e966a0c43ed99d3e5315b49352970220275e88e816ad5a89591c7ff509c4d835c70f41f71237f3c6f95e2fac9c57e452012103859c9f0d81ab274b217300d9e270178c40e5fc5ae80ebd543c27e7d1365a4685", "asm": "304402204a6986e1b921b930f4161b0f31f878bf4402e966a0c43ed99d3e5315b49352970220275e88e816ad5a89591c7ff509c4d835c70f41f71237f3c6f95e2fac9c57e452[ALL] 03859c9f0d81ab274b217300d9e270178c40e5fc5ae80ebd543c27e7d1365a4685"}, "vout": 0, "txid": "975502d35790c79cb4468767ec3a49a57dffee362d89cf6ab252b8f4d3bd040e"}], "txid": "3df57692677fcdcb91c3860043298428399da1979bccce2b8287307abe65dc5a", "blocktime": 1537874412, "version": 1, "confirmations": 11467, "time": 1537874412, "locktime": 0, "vsize": 283, "size": 283}