{"hash": "3df7cbc451764bbb5ab24d562c272ad34828a04bf1e1157b013af0e7fbf6318b", "blockhash": "0000000000000000001f0ddff1eddb255c1121bcd4da4f1bc9a0da00cae72433", "vout": [{"scriptPubKey": {"reqSigs": 1, "hex": "a914a0e73d6d75846a923e176a65c2a0a3219181b8b487", "addresses": ["3GMo4528jRMfAj4x3AcMYMW9rzJx42xYCy"], "asm": "OP_HASH160 a0e73d6d75846a923e176a65c2a0a3219181b8b4 OP_EQUAL", "type": "scripthash"}, "value": 0.66973815, "n": 0}, {"scriptPubKey": {"reqSigs": 1, "hex": "a9145157024486347b062043630b65479d1693164e9987", "addresses": ["3976tZdk1QX3QGnDFCfYayif3j5Gi96gwg"], "asm": "OP_HASH160 5157024486347b062043630b65479d1693164e99 OP_EQUAL", "type": "scripthash"}, "value": 0.63, "n": 1}], "hex": "010000000197512fe6925571122dce299ab4b3b3f3ff17c7be0638716be7ed3339aa5cc26701000000fdfe0000483045022100cc0dae67db374de4d7f0dc5fdc1c6b1cfcfe1baf4cd0adc538eaa58ae2ee0b800220327907ca6dfe35974201b5c9487739182732ede94e102cb7864608fc3bf1a1fc01483045022100b14194bfefa04bfe1b73b4a10d13e73905d2160de84f8f859b99a96bc9ee618b0220228bddd9434ffc8b95c323ef8ed96ffe5aacdb8003562f835bd61e47ebbc7828014c69522102f73321d083524ba2f7d3aff8e5c6cb3107060c513c31dbd2910d79d0316b48f321023faf4b183c50a762c121ed97bcab3687ef871b5fe79225285a37f0abf1e59e38210378c05c779a8b1e980570fec1a6e966a4eecdea69024e7773ecbd824f01a7f65e53aeffffffff0277f0fd030000000017a914a0e73d6d75846a923e176a65c2a0a3219181b8b487c04dc1030000000017a9145157024486347b062043630b65479d1693164e998700000000", "vin": [{"sequence": 4294967295, "scriptSig": {"hex": "00483045022100cc0dae67db374de4d7f0dc5fdc1c6b1cfcfe1baf4cd0adc538eaa58ae2ee0b800220327907ca6dfe35974201b5c9487739182732ede94e102cb7864608fc3bf1a1fc01483045022100b14194bfefa04bfe1b73b4a10d13e73905d2160de84f8f859b99a96bc9ee618b0220228bddd9434ffc8b95c323ef8ed96ffe5aacdb8003562f835bd61e47ebbc7828014c69522102f73321d083524ba2f7d3aff8e5c6cb3107060c513c31dbd2910d79d0316b48f321023faf4b183c50a762c121ed97bcab3687ef871b5fe79225285a37f0abf1e59e38210378c05c779a8b1e980570fec1a6e966a4eecdea69024e7773ecbd824f01a7f65e53ae", "asm": "0 3045022100cc0dae67db374de4d7f0dc5fdc1c6b1cfcfe1baf4cd0adc538eaa58ae2ee0b800220327907ca6dfe35974201b5c9487739182732ede94e102cb7864608fc3bf1a1fc[ALL] 3045022100b14194bfefa04bfe1b73b4a10d13e73905d2160de84f8f859b99a96bc9ee618b0220228bddd9434ffc8b95c323ef8ed96ffe5aacdb8003562f835bd61e47ebbc7828[ALL] 522102f73321d083524ba2f7d3aff8e5c6cb3107060c513c31dbd2910d79d0316b48f321023faf4b183c50a762c121ed97bcab3687ef871b5fe79225285a37f0abf1e59e38210378c05c779a8b1e980570fec1a6e966a4eecdea69024e7773ecbd824f01a7f65e53ae"}, "vout": 1, "txid": "67c25caa3933ede76b713806bec717fff3b3b3b49a29ce2d12715592e62f5197"}], "txid": "3df7cbc451764bbb5ab24d562c272ad34828a04bf1e1157b013af0e7fbf6318b", "blocktime": 1537872018, "version": 1, "confirmations": 11489, "time": 1537872018, "locktime": 0, "vsize": 371, "size": 371}