{"hash": "3e03a96faccd59f4de998c31d61af6cef2c6f880628c6c28d283f141e89044ca", "blockhash": "00000000000000000018f53835495a110e01622372bf6ae95dc86f2b0ab887b0", "vout": [{"scriptPubKey": {"reqSigs": 1, "hex": "76a914d9d9069ef3f520a5c2977957103fb2e59079a4fc88ac", "addresses": ["1LrscrDQFQYJwWvqdqjnuk2dsSP3mA6dPP"], "asm": "OP_DUP OP_HASH160 d9d9069ef3f520a5c2977957103fb2e59079a4fc OP_EQUALVERIFY OP_CHECKSIG", "type": "pubkeyhash"}, "value": 0.01615282, "n": 0}], "hex": "0100000001cb6a8545e4b46718282a4ee384d2cf4b51ad0b612497416bd0cb457364b5bcef000000006a47304402200f41b19204f202e4316e35830d076e27e6a8698316333c231a472588a7e7b0670220632b0ffa6fa100cb492a89c4e8535dc297e45909503ca95588bfcbf1b9a07a02012103fc6181796bae588133bf4cec7ec9f76abdf555e5d4ac93fdc487dabb42122043ffffffff01b2a51800000000001976a914d9d9069ef3f520a5c2977957103fb2e59079a4fc88ac00000000", "vin": [{"sequence": 4294967295, "scriptSig": {"hex": "47304402200f41b19204f202e4316e35830d076e27e6a8698316333c231a472588a7e7b0670220632b0ffa6fa100cb492a89c4e8535dc297e45909503ca95588bfcbf1b9a07a02012103fc6181796bae588133bf4cec7ec9f76abdf555e5d4ac93fdc487dabb42122043", "asm": "304402200f41b19204f202e4316e35830d076e27e6a8698316333c231a472588a7e7b0670220632b0ffa6fa100cb492a89c4e8535dc297e45909503ca95588bfcbf1b9a07a02[ALL] 03fc6181796bae588133bf4cec7ec9f76abdf555e5d4ac93fdc487dabb42122043"}, "vout": 0, "txid": "efbcb5647345cbd06b419724610bad514bcfd284e34e2a281867b4e445856acb"}], "txid": "3e03a96faccd59f4de998c31d61af6cef2c6f880628c6c28d283f141e89044ca", "blocktime": 1537870928, "version": 1, "confirmations": 11512, "time": 1537870928, "locktime": 0, "vsize": 191, "size": 191}