{"hash": "3e05988ad7614e87e2243f173f0768886c05f99b7e1fec53f5fe9b92c7831f4f", "blockhash": "0000000000000000000e13cef7c366c0283d82e591d1acd082e914b08063cdf1", "vout": [{"scriptPubKey": {"reqSigs": 1, "hex": "a9144041c761426b7a7ce696ac063932d35a9f7131f787", "addresses": ["37YmyDN5zXNNc5eAWtnSmpvZHuBqB1Hagt"], "asm": "OP_HASH160 4041c761426b7a7ce696ac063932d35a9f7131f7 OP_EQUAL", "type": "scripthash"}, "value": 0.14281301, "n": 0}], "hex": "0100000002cf841838acb9f4d9528b728f124084c6613aff3ff35011cec1969883055a597a0c0000006b483045022100eef762f8875ff80df51636fb86e86336fc1d9f4ddc45090f9ebec6f5089fb6d202203eb06fd56a5d16de9605219a122a6364eeb8455ae84b695678431d1cd52b03540121032c0336a2af272d98e4eee20d7ce5caef30c6f6af33d57f6146bb4499661d681fffffffff8f367305b508c646d79daba127d10b62650ed16307806b0fdb43d6dcc19adeb4000000006b483045022100f29f3f7f390ddd61800edae984a0a1dfdffa12e9c71304d4394789574a66d0700220170d4989ce13c3830acd58a2165dbdf161f207c4e0e2f074f2ac8d4604ca1e850121032c0336a2af272d98e4eee20d7ce5caef30c6f6af33d57f6146bb4499661d681fffffffff0155ead9000000000017a9144041c761426b7a7ce696ac063932d35a9f7131f78700000000", "vin": [{"sequence": 4294967295, "scriptSig": {"hex": "483045022100eef762f8875ff80df51636fb86e86336fc1d9f4ddc45090f9ebec6f5089fb6d202203eb06fd56a5d16de9605219a122a6364eeb8455ae84b695678431d1cd52b03540121032c0336a2af272d98e4eee20d7ce5caef30c6f6af33d57f6146bb4499661d681f", "asm": "3045022100eef762f8875ff80df51636fb86e86336fc1d9f4ddc45090f9ebec6f5089fb6d202203eb06fd56a5d16de9605219a122a6364eeb8455ae84b695678431d1cd52b0354[ALL] 032c0336a2af272d98e4eee20d7ce5caef30c6f6af33d57f6146bb4499661d681f"}, "vout": 12, "txid": "7a595a05839896c1ce1150f33fff3a61c68440128f728b52d9f4b9ac381884cf"}, {"sequence": 4294967295, "scriptSig": {"hex": "483045022100f29f3f7f390ddd61800edae984a0a1dfdffa12e9c71304d4394789574a66d0700220170d4989ce13c3830acd58a2165dbdf161f207c4e0e2f074f2ac8d4604ca1e850121032c0336a2af272d98e4eee20d7ce5caef30c6f6af33d57f6146bb4499661d681f", "asm": "3045022100f29f3f7f390ddd61800edae984a0a1dfdffa12e9c71304d4394789574a66d0700220170d4989ce13c3830acd58a2165dbdf161f207c4e0e2f074f2ac8d4604ca1e85[ALL] 032c0336a2af272d98e4eee20d7ce5caef30c6f6af33d57f6146bb4499661d681f"}, "vout": 0, "txid": "b4de9ac1dcd643db0f6b800763d10e65620bd127a1ab9dd746c608b50573368f"}], "txid": "3e05988ad7614e87e2243f173f0768886c05f99b7e1fec53f5fe9b92c7831f4f", "blocktime": 1537871767, "version": 1, "confirmations": 11495, "time": 1537871767, "locktime": 0, "vsize": 338, "size": 338}