{"hash": "3e0d889a93bcca83eff0e165ef59d88d3aefe099aded2b2abb5a4075f6e9c088", "blockhash": "00000000000000000017f5eb5941039fbcee6240d03bc1f2f8e35350df66a1d8", "vout": [{"scriptPubKey": {"reqSigs": 1, "hex": "76a91449bdad80f6bb371aa736f474fd7835001f1eb49a88ac", "addresses": ["17iuZ3bGqDoEGF6rdPPkMmHEPixqucasfa"], "asm": "OP_DUP OP_HASH160 49bdad80f6bb371aa736f474fd7835001f1eb49a OP_EQUALVERIFY OP_CHECKSIG", "type": "pubkeyhash"}, "value": 0.00049129, "n": 0}, {"scriptPubKey": {"reqSigs": 1, "hex": "76a9141b4b70b8543cfa3c5632c8231f25fb56048e4e9188ac", "addresses": ["13VKcs8Ht4iQ71muU6BBSG1TgNc1fZ7fLG"], "asm": "OP_DUP OP_HASH160 1b4b70b8543cfa3c5632c8231f25fb56048e4e91 OP_EQUALVERIFY OP_CHECKSIG", "type": "pubkeyhash"}, "value": 0.02058837, "n": 1}], "hex": "020000000142cccc9a30fa3335c6aaab42000939bde352d373568a29e7260a611c3e76ca06000000006a473044022070af6b07d955dd37e5fb2e48277ca37b40c9262adb39483ba9bb2ea92ff56bd1022057ed5fddbd609ff6368f050d69c4dc37e085499857012745beb24ca7978e9bca01210333a13753b65cb3e8e33864bbd3b47e08dfedaa2db9204352975d94a52bc8c630feffffff02e9bf0000000000001976a91449bdad80f6bb371aa736f474fd7835001f1eb49a88ac556a1f00000000001976a9141b4b70b8543cfa3c5632c8231f25fb56048e4e9188ac15490800", "vin": [{"sequence": 4294967294, "scriptSig": {"hex": "473044022070af6b07d955dd37e5fb2e48277ca37b40c9262adb39483ba9bb2ea92ff56bd1022057ed5fddbd609ff6368f050d69c4dc37e085499857012745beb24ca7978e9bca01210333a13753b65cb3e8e33864bbd3b47e08dfedaa2db9204352975d94a52bc8c630", "asm": "3044022070af6b07d955dd37e5fb2e48277ca37b40c9262adb39483ba9bb2ea92ff56bd1022057ed5fddbd609ff6368f050d69c4dc37e085499857012745beb24ca7978e9bca[ALL] 0333a13753b65cb3e8e33864bbd3b47e08dfedaa2db9204352975d94a52bc8c630"}, "vout": 0, "txid": "06ca763e1c610a26e7298a5673d352e3bd39090042abaac63533fa309acccc42"}], "txid": "3e0d889a93bcca83eff0e165ef59d88d3aefe099aded2b2abb5a4075f6e9c088", "blocktime": 1537874412, "version": 2, "confirmations": 11466, "time": 1537874412, "locktime": 542997, "vsize": 225, "size": 225}