{"hash": "55583d7237d5fd56f0d0ac917f1ddc4e30e6443dd76aa57732bdc84f3e9aee18", "blockhash": "0000000000000000000e13cef7c366c0283d82e591d1acd082e914b08063cdf1", "vout": [{"scriptPubKey": {"reqSigs": 1, "hex": "76a914a88163141e95224df4e501474ab8f6181419636288ac", "addresses": ["1GMyXCMDSdHUchRaqyrvdSxBdAA2NhnFYK"], "asm": "OP_DUP OP_HASH160 a88163141e95224df4e501474ab8f61814196362 OP_EQUALVERIFY OP_CHECKSIG", "type": "pubkeyhash"}, "value": 0.0011, "n": 0}, {"scriptPubKey": {"reqSigs": 1, "hex": "a91456e5e53bf9c6f36de72782a905eed658eedc204387", "addresses": ["39cVSTSzXXapr7WHWKwNx4sbT1ZeBmZfPh"], "asm": "OP_HASH160 56e5e53bf9c6f36de72782a905eed658eedc2043 OP_EQUAL", "type": "scripthash"}, "value": 0.01065581, "n": 1}], "hex": "02000000000101a61d54765a263c1573b329e6662543576e2f36c9d86d42eb6f053d109923711e0a00000017160014afb83ca83b2b117e1e7451177ecb4de0d989c858feffffff02b0ad0100000000001976a914a88163141e95224df4e501474ab8f6181419636288ac6d4210000000000017a91456e5e53bf9c6f36de72782a905eed658eedc20438702473044022051762176ef9647269b7d3bb8668e9861d342ff38d797bd42b04e0446505707ba02204160727de3eaffd587eb898c11de9cd2db29f7c1a46e75eef706838277a18b190121038b24e9e5566bb0d03fa9a77a655569153f0a7f40838801dbefc64a3d5568c18f0f490800", "vin": [{"txinwitness": ["3044022051762176ef9647269b7d3bb8668e9861d342ff38d797bd42b04e0446505707ba02204160727de3eaffd587eb898c11de9cd2db29f7c1a46e75eef706838277a18b1901", "038b24e9e5566bb0d03fa9a77a655569153f0a7f40838801dbefc64a3d5568c18f"], "sequence": 4294967294, "scriptSig": {"hex": "160014afb83ca83b2b117e1e7451177ecb4de0d989c858", "asm": "0014afb83ca83b2b117e1e7451177ecb4de0d989c858"}, "vout": 10, "txid": "1e712399103d056feb426dd8c9362f6e57432566e629b373153c265a76541da6"}], "txid": "3e171ad5bfdfee5e59fdaa3cee7aa9c6a1501145dfb95b2d788c4cfa2026c57b", "blocktime": 1537871767, "version": 2, "confirmations": 11491, "time": 1537871767, "locktime": 542991, "vsize": 168, "size": 249}