{"hash": "cf9083b7bbe60a677853505bc66b7cf66f180c4fb1925e9e78351c9eca1c2949", "blockhash": "00000000000000000017f5eb5941039fbcee6240d03bc1f2f8e35350df66a1d8", "vout": [{"scriptPubKey": {"reqSigs": 1, "hex": "0014e4e45ddbf1b764aec7bdc6936bcf351bba78986f", "addresses": ["bc1qunj9mkl3kaj2a3aac6fkhne4rwa83xr0q89uda"], "asm": "0 e4e45ddbf1b764aec7bdc6936bcf351bba78986f", "type": "witness_v0_keyhash"}, "value": 0.39893759, "n": 0}, {"scriptPubKey": {"reqSigs": 1, "hex": "76a91430a6df27012f8a64ba8791d2b10c9ff8adb9bb6d88ac", "addresses": ["15SFLf42AZuxMqzMJLwkFV4WUCzqLkixLL"], "asm": "OP_DUP OP_HASH160 30a6df27012f8a64ba8791d2b10c9ff8adb9bb6d OP_EQUALVERIFY OP_CHECKSIG", "type": "pubkeyhash"}, "value": 0.08311354, "n": 1}], "hex": "0200000000010193fffae6c4f947c50db1e336d767c36b05aafb4dc0d82257ca25629648cc72760100000000ffffffff02ffba600200000000160014e4e45ddbf1b764aec7bdc6936bcf351bba78986f3ad27e00000000001976a91430a6df27012f8a64ba8791d2b10c9ff8adb9bb6d88ac02473044022049b9d123d79552b02abdcf1f44ff38080248dd67f170f58e029ff451a69f64900220410f44428a5b329124951d620360a6c63ea8046940b4abd16e7fd03ae5f598c9012103fcee73de3c4939401b04a7eed31f2481f63600500fac4331dc3cb5c6781e3a0500000000", "vin": [{"txinwitness": ["3044022049b9d123d79552b02abdcf1f44ff38080248dd67f170f58e029ff451a69f64900220410f44428a5b329124951d620360a6c63ea8046940b4abd16e7fd03ae5f598c901", "03fcee73de3c4939401b04a7eed31f2481f63600500fac4331dc3cb5c6781e3a05"], "sequence": 4294967295, "scriptSig": {"hex": "", "asm": ""}, "vout": 1, "txid": "7672cc48966225ca5722d8c04dfbaa056bc367d736e3b10dc547f9c4e6faff93"}], "txid": "3e1c4dc52ed4edbfc1f66f814f1bc4854c5d99f7c42482018527d6d6e3e2ab18", "blocktime": 1537874412, "version": 2, "confirmations": 11467, "time": 1537874412, "locktime": 0, "vsize": 144, "size": 225}