{"hash": "ac26dcdfb3b0551557ab2edd8fa940060c64b778296e11fb07c381b16aa29ab4", "blockhash": "0000000000000000001cda96e906b7601b7a6fb1a3b62bca570a9e5d8f4b3de1", "vout": [{"scriptPubKey": {"reqSigs": 1, "hex": "a914ecbfd33913c11ee7a75c7f363bf5f0f383994ae187", "addresses": ["3PGqC4EjaF9j88ckepXFZUCt9pxbt7We9q"], "asm": "OP_HASH160 ecbfd33913c11ee7a75c7f363bf5f0f383994ae1 OP_EQUAL", "type": "scripthash"}, "value": 0.01000135, "n": 0}, {"scriptPubKey": {"reqSigs": 1, "hex": "76a914e2e935237afbbfe00bd99aaa81246024105058c788ac", "addresses": ["1Mgo5uCE8xnPyzaSukNvFp2KYQNQKmaVky"], "asm": "OP_DUP OP_HASH160 e2e935237afbbfe00bd99aaa81246024105058c7 OP_EQUALVERIFY OP_CHECKSIG", "type": "pubkeyhash"}, "value": 0.0051406, "n": 1}], "hex": "020000000001020d04476074272fcd10df1c2d2b6e5cc2673287f62952f6e843ce0752d3dc71eb0100000017160014d188673b338074f460078552305d5f6eafb08409feffffff3621e5b98a1a095de89327855647b3e1f41f366a04f7a7571cd4a14d38cfcdd90d00000017160014f880e4bedfca88a05a9909c001dc8a17313615d1feffffff02c7420f000000000017a914ecbfd33913c11ee7a75c7f363bf5f0f383994ae1870cd80700000000001976a914e2e935237afbbfe00bd99aaa81246024105058c788ac024830450221009bc4275dfa19ccb63fc1dc5936c55f1f5304a499d6d4ca73e90c81f0df0990710220349db8943ce773bf106d7eba758819dff1f907e13bba406f8e0b391da9efe385012103cf197aa9f924718f7e679ed2d6e4ab4a14da2b5b879b8b41250fbf7a3db09be20247304402202e4189aa114c348d804c3807a8aa3c10ff27685efdc8829fd26fa797bb673f9b022038fbbb69cc8d4607daad1e38fe3f07f011d14714cb60496a987e8448c3c457de012103474fd48925c1dcee20a7883a3e2f2832950508247c7a7da6a233a4110ecf227b13490800", "vin": [{"txinwitness": ["30450221009bc4275dfa19ccb63fc1dc5936c55f1f5304a499d6d4ca73e90c81f0df0990710220349db8943ce773bf106d7eba758819dff1f907e13bba406f8e0b391da9efe38501", "03cf197aa9f924718f7e679ed2d6e4ab4a14da2b5b879b8b41250fbf7a3db09be2"], "sequence": 4294967294, "scriptSig": {"hex": "160014d188673b338074f460078552305d5f6eafb08409", "asm": "0014d188673b338074f460078552305d5f6eafb08409"}, "vout": 1, "txid": "eb71dcd35207ce43e8f65229f6873267c25c6e2b2d1cdf10cd2f27746047040d"}, {"txinwitness": ["304402202e4189aa114c348d804c3807a8aa3c10ff27685efdc8829fd26fa797bb673f9b022038fbbb69cc8d4607daad1e38fe3f07f011d14714cb60496a987e8448c3c457de01", "03474fd48925c1dcee20a7883a3e2f2832950508247c7a7da6a233a4110ecf227b"], "sequence": 4294967294, "scriptSig": {"hex": "160014f880e4bedfca88a05a9909c001dc8a17313615d1", "asm": "0014f880e4bedfca88a05a9909c001dc8a17313615d1"}, "vout": 13, "txid": "d9cdcf384da1d41c57a7f7046a361ff4e1b34756852793e85d091a8ab9e52136"}], "txid": "3e1e6b8ae83dc25123f2b1bed54f34914f1a6f66ce12261717b948abec4287fe", "blocktime": 1537873282, "version": 2, "confirmations": 11485, "time": 1537873282, "locktime": 542995, "vsize": 259, "size": 421}