{"hash": "3e27ad7a204c9ce8a0305793b77db65f6294f9d9edac089fffa81f2852e3ef59", "blockhash": "0000000000000000001e0dab787dd257d1dbfcb92a98c2207d5e1078be1f4165", "vout": [{"scriptPubKey": {"reqSigs": 1, "hex": "a91423e81cd158d9ec00df44dc9591dc442df1c4015f87", "addresses": ["34xsdipdg7ASQXjgDYEfHqGPqGSwR2rDYj"], "asm": "OP_HASH160 23e81cd158d9ec00df44dc9591dc442df1c4015f OP_EQUAL", "type": "scripthash"}, "value": 0.00781223, "n": 0}, {"scriptPubKey": {"reqSigs": 1, "hex": "76a914ec00a9f397285c97e5f54750f0bbfe2bcbd8434b88ac", "addresses": ["1NWsGQ8CxBu2UDV9jCYkf2CVLMn6iAKypT"], "asm": "OP_DUP OP_HASH160 ec00a9f397285c97e5f54750f0bbfe2bcbd8434b OP_EQUALVERIFY OP_CHECKSIG", "type": "pubkeyhash"}, "value": 0.02777958, "n": 1}], "hex": "01000000016c473c61688cd6dbfd22ae16ff96ea4f15b9c5431c3c052f51c83f5927eab91d010000006b483045022100982ba5850e810a7c06d5cbe184d30b2a3cfc43744a0b043d3ea7c5780225013a02206ccc5908107ccb38aed4201fb6cc61774b960f26e4bda9da789c619f8d2140b80121032ca329857b03bf7efc82951e4136e93f565306c3c3d8b0141fcc2725089d4d11ffffffff02a7eb0b000000000017a91423e81cd158d9ec00df44dc9591dc442df1c4015f8766632a00000000001976a914ec00a9f397285c97e5f54750f0bbfe2bcbd8434b88ac00000000", "vin": [{"sequence": 4294967295, "scriptSig": {"hex": "483045022100982ba5850e810a7c06d5cbe184d30b2a3cfc43744a0b043d3ea7c5780225013a02206ccc5908107ccb38aed4201fb6cc61774b960f26e4bda9da789c619f8d2140b80121032ca329857b03bf7efc82951e4136e93f565306c3c3d8b0141fcc2725089d4d11", "asm": "3045022100982ba5850e810a7c06d5cbe184d30b2a3cfc43744a0b043d3ea7c5780225013a02206ccc5908107ccb38aed4201fb6cc61774b960f26e4bda9da789c619f8d2140b8[ALL] 032ca329857b03bf7efc82951e4136e93f565306c3c3d8b0141fcc2725089d4d11"}, "vout": 1, "txid": "1db9ea27593fc8512f053c1c43c5b9154fea96ff16ae22fddbd68c68613c476c"}], "txid": "3e27ad7a204c9ce8a0305793b77db65f6294f9d9edac089fffa81f2852e3ef59", "blocktime": 1537872475, "version": 1, "confirmations": 11487, "time": 1537872475, "locktime": 0, "vsize": 224, "size": 224}