{"hash": "837fc2efb0816aa11aa68dea59adbfc1347e36895c4a1e560ef7c5756d71b77a", "blockhash": "0000000000000000000dcc0f55137456b1a82d3642486a52398922ac4d620174", "vout": [{"scriptPubKey": {"reqSigs": 1, "hex": "a914d2439e311b452145d8fe86c95c787586e7aefbdd87", "addresses": ["3Lrnq1EFZxM1ASeqV4FfJJJjA4Q4bdkVox"], "asm": "OP_HASH160 d2439e311b452145d8fe86c95c787586e7aefbdd OP_EQUAL", "type": "scripthash"}, "value": 0.075455, "n": 0}], "hex": "01000000000101f393e517db70ccd71f71b53f038f563282acb7e569ae4a16e215c8e4f38af606010000001716001489cdb5ae5898a92cf4d15e0887a2acc02d9e3b23ffffff00019c2273000000000017a914d2439e311b452145d8fe86c95c787586e7aefbdd870247304402206377cd13f359cda0ba8aee81dca6f71bdc9081eac18da2f5786d932e39e34a130220690c561040b566fa43948376fdac24a6d6e6939d2af86fc5945cb6c3554f9e04012103637b35c0604074d328cc4a5ad48625b9b143c1aac90852ec0246b2fae8d2a4a500000000", "vin": [{"txinwitness": ["304402206377cd13f359cda0ba8aee81dca6f71bdc9081eac18da2f5786d932e39e34a130220690c561040b566fa43948376fdac24a6d6e6939d2af86fc5945cb6c3554f9e0401", "03637b35c0604074d328cc4a5ad48625b9b143c1aac90852ec0246b2fae8d2a4a5"], "sequence": 16777215, "scriptSig": {"hex": "16001489cdb5ae5898a92cf4d15e0887a2acc02d9e3b23", "asm": "001489cdb5ae5898a92cf4d15e0887a2acc02d9e3b23"}, "vout": 1, "txid": "06f68af3e4c815e2164aae69e5b7ac8232568f033fb5711fd7cc70db17e593f3"}], "txid": "3e27f124b39d2338caa6f376568befaea46599b1de2c1a3f7bc6cb822fb1795d", "blocktime": 1537870268, "version": 1, "confirmations": 11518, "time": 1537870268, "locktime": 0, "vsize": 134, "size": 215}