{"hash": "6fb96bc6ed02f5e75c0026a7778c7082eef5927e3e896e4a1633e87e96e0cda2", "blockhash": "0000000000000000001f76057863aec43deb6fa401d9628bb513d65a8098bfab", "vout": [{"scriptPubKey": {"reqSigs": 1, "hex": "76a914ba9152547fd0f08571839c91766d060730a514ed88ac", "addresses": ["1J1UmoYAvBRDUm53qiaxcLgz6jmEZfqmKv"], "asm": "OP_DUP OP_HASH160 ba9152547fd0f08571839c91766d060730a514ed OP_EQUALVERIFY OP_CHECKSIG", "type": "pubkeyhash"}, "value": 0.01404718, "n": 0}, {"scriptPubKey": {"reqSigs": 1, "hex": "a91401a527ef6fc8be389ab964802b56d884d40c32c787", "addresses": ["31qiSyXfNqVDCYzEDe4mGnz9YsXPDACHWP"], "asm": "OP_HASH160 01a527ef6fc8be389ab964802b56d884d40c32c7 OP_EQUAL", "type": "scripthash"}, "value": 0.00028331, "n": 1}, {"scriptPubKey": {"reqSigs": 1, "hex": "a914697ecbe25a2783d07041cbba09cfed0bc071c1a987", "addresses": ["3BJpmezVuM9HWd9gBuPP3dW2Yi9nMp5Nns"], "asm": "OP_HASH160 697ecbe25a2783d07041cbba09cfed0bc071c1a9 OP_EQUAL", "type": "scripthash"}, "value": 0.0007, "n": 2}, {"scriptPubKey": {"reqSigs": 1, "hex": "a914db996615bebd73851abdc6649aa7c3cd79f336ed87", "addresses": ["3Mi9ftTMKX5vG3izp1pn1VHv9CkSBpkkSm"], "asm": "OP_HASH160 db996615bebd73851abdc6649aa7c3cd79f336ed OP_EQUAL", "type": "scripthash"}, "value": 0.00042, "n": 3}, {"scriptPubKey": {"reqSigs": 1, "hex": "a9144e30558b29e9e6de5fa27e7b32be8bc422e6de6987", "addresses": ["38pSXpf3ky5gWPu1rAMKXyDJdPQWi13yZo"], "asm": "OP_HASH160 4e30558b29e9e6de5fa27e7b32be8bc422e6de69 OP_EQUAL", "type": "scripthash"}, "value": 2.73e-05, "n": 4}, {"scriptPubKey": {"reqSigs": 1, "hex": "a914c6235463957dd7bf43a3db7a5446a9f2b1d3793187", "addresses": ["3Kkg3GnLMNrZf81JyHFj4Dbfh2Pk7hcLye"], "asm": "OP_HASH160 c6235463957dd7bf43a3db7a5446a9f2b1d37931 OP_EQUAL", "type": "scripthash"}, "value": 0.00049378, "n": 5}, {"scriptPubKey": {"reqSigs": 1, "hex": "76a914932a831029233f8b7af2978ec3b50709ee1417b288ac", "addresses": ["1ER9Fyy9NTc95j3SfUeQbmFqPVDLkr6osG"], "asm": "OP_DUP OP_HASH160 932a831029233f8b7af2978ec3b50709ee1417b2 OP_EQUALVERIFY OP_CHECKSIG", "type": "pubkeyhash"}, "value": 0.0001, "n": 6}, {"scriptPubKey": {"reqSigs": 1, "hex": "76a91415fcab9ed1f41712eab8aabc2f207c113c4904e688ac", "addresses": ["131FsskhkvtSXYJMzaWkXxWErFHz5mheAb"], "asm": "OP_DUP OP_HASH160 15fcab9ed1f41712eab8aabc2f207c113c4904e6 OP_EQUALVERIFY OP_CHECKSIG", "type": "pubkeyhash"}, "value": 0.0005, "n": 7}, {"scriptPubKey": {"reqSigs": 1, "hex": "76a914c3e1a804813fc069d0dd9e9120062ea5c653608b88ac", "addresses": ["1Jrj6HQRwJwYXUVvHBYh9uKAKUyENW9MLD"], "asm": "OP_DUP OP_HASH160 c3e1a804813fc069d0dd9e9120062ea5c653608b OP_EQUALVERIFY OP_CHECKSIG", "type": "pubkeyhash"}, "value": 0.00015, "n": 8}, {"scriptPubKey": {"reqSigs": 1, "hex": "a914e014d944ef62c9d115f4942cf676f6b1f6a488ea87", "addresses": ["3N7rG7BZKnWqpqfMrEWBRBUbzgBrAfc9ww"], "asm": "OP_HASH160 e014d944ef62c9d115f4942cf676f6b1f6a488ea OP_EQUAL", "type": "scripthash"}, "value": 0.0001594, "n": 9}, {"scriptPubKey": {"reqSigs": 1, "hex": "a914b7b372c44ce1387e954f734ffd41641813c597ba87", "addresses": ["3JSLYwE3wGkUGfSdEQtpPV6pd2dhE2Z1fR"], "asm": "OP_HASH160 b7b372c44ce1387e954f734ffd41641813c597ba OP_EQUAL", "type": "scripthash"}, "value": 0.0015, "n": 10}], "hex": "0100000000010a9b6e589337309b064944d44f2921a5d6c5486e335d64174fc05765029162cb1b00000000fdfd0000483045022100f9d847174d59061dfb8a43b033e8e5c92cf367c3de120e3f73a1f3a80a8fbd2402207ba633337d5c71ade8447f2e1561193f44dc307d2a889d1453d6d6488c1e28980147304402200dd7101990a058d717d386fce5b7015af4772c94e75d32f92b74fe262c918f4e02204888b308db88037976b5717f35e55813fcb3dc6ca1833a14e327a3c5a12a3ab8014c695221039083ca48c19be73e23a7b7e830ea4b59599a5575d1346dded247ff93268d810b2102a5047378d3f05ddc54b6cdf5038e49fc34b023184f6827500172460880480ec82102ab7662857ec5ef3763eb771ca6d030dd9df32218632ff7f05058a9b5cab7257a53aeffffffff1341e0131a50bb61a7443c9d7bbadd0811e15a11e3988a2c813f2d451a15b8b20800000023220020a1f99b8b4498240940a64d9eee2b277160dfb36ab358cc0425a44a828bcbde8fffffffffeb36d7c10953fc76bd70bf920357e06e34210dcb93226639325fbfe0464e236100000000232200204ec8e95c7340dcb3bc709eba3c3d16059bbb2fd2056640324ba4d5b254d98bdfffffffffb37784fcf43626b2aef417ac8d921c9da1e2796faa26350beab58157fe83dd710600000023220020cbcec52910d1c36cbf00c68a772d5a0cfd6e9dd65fcf9dba60681b5976e5c1e1ffffffff80176331b457cbe1787a4bfae58d5d399306727f6883d17f2fb9f2a3af5aeed10400000023220020e429b635a5e399c30cb5f004693419c3e9a006126b7b61d8a9d1e603a684ee22ffffffffe16f1f327a34cbe8e6977274ea94eee19b281c1973cc69df212ad8efac803bed00000000232200208005b56425477937a337ab7d0a52bff67a13d029d35d8f4176ace819179740bdffffffff7a90c3e979a15b554249ec8fc8b55f29b4045450f2d12ce221e7fb311e67779201000000fc0047304402205ace5cd7065af0d1b1e9550e31d24a9960b788211ef0d22f210290515ce9aeba02204f5764ec81c8d6d5f0374ca2227b9202b23a0d7d0ffc335f69b68cf801eb1c760147304402204c62043632f59eb303dc5da0a9593fc2fbdb79d34ba8b9dcd4024aee8bdecfde0220010e4a4e8c579676d3d38489b868c1b965212142a4daddacfafcd7d5e091c1ba014c69522102d0f8909456e4eb07fcb323c93c31690376cfa06e830dd24a33ce4897953474922103cef1b7bee1937df1b161a18565e21dd8d8806fc32f99f6428e75e79945d4823d2103fc532f80563d3f8a2e60adcdd245a4900cee32a6b3bc1b9c57d7debaa372622753aeffffffffa0193cb27b598fc0029e683ada4d6ef61745fcac8c74710b9c7a7f8b9c3510d20000000023220020d430ac2462d2c700d6176d0fd885a6773fd395602da1f666c9442d2a97d6ea10ffffffffc150623aedc36831050f1b260607a6a645ace9b7b0aad3d7f3b1ded7d0789b580000000023220020b0ea64deab3f875014ba213e69298b185fd8e7e0c9f3743bb6157db99a594cb0ffffffffe87f7704d6ff742fb17d73276f194d2ea5c5f8dba4d1d850336a44ad2c803cab010000002322002034186dffee520f20cbdd2e0586c814edebc71df63035226b6701a44a1efdd8aaffffffff0b2e6f1500000000001976a914ba9152547fd0f08571839c91766d060730a514ed88acab6e00000000000017a91401a527ef6fc8be389ab964802b56d884d40c32c787701101000000000017a914697ecbe25a2783d07041cbba09cfed0bc071c1a98710a400000000000017a914db996615bebd73851abdc6649aa7c3cd79f336ed87aa0a00000000000017a9144e30558b29e9e6de5fa27e7b32be8bc422e6de6987e2c000000000000017a914c6235463957dd7bf43a3db7a5446a9f2b1d379318710270000000000001976a914932a831029233f8b7af2978ec3b50709ee1417b288ac50c30000000000001976a91415fcab9ed1f41712eab8aabc2f207c113c4904e688ac983a0000000000001976a914c3e1a804813fc069d0dd9e9120062ea5c653608b88ac443e00000000000017a914e014d944ef62c9d115f4942cf676f6b1f6a488ea87f04902000000000017a914b7b372c44ce1387e954f734ffd41641813c597ba870004004830450221009711884313ec7f14a1143b5dda26903f27016aa384ee485a3d02999f18edd6d302201a6ff5accd4599d8742fefe3fff864af272a66343e73ece2f32a44791ae23a62014730440220429398880f59bba99d953287a4be584a06256cdf8c1f6314183cebdf0633ede80220785e0883dc7fd384956ca3cc40b1d22fa8cbaffd8720daedf1c8c3c807b968510169522103cbcaa67a3c286c01638a9d8dc885ad6dadcbee0478b703197e45232b8b2ab0a12103f831c37fcf1ca3c69539aee58458803c6e2b45c197d8a24a0957d73f120833af2103273236484550ec1bea14366f871515277d57c4b5368b603162f897b8aed93d0453ae040047304402200da42dc2d061d5f03d003a07123362283dc379170330a60b199b0c6a6c3a61e102204d4241f143e25abbe63e4226fa3fdc2dbbe6d4b4364d644716727234c250cd3b01473044022071baf0b3bab616432da3c8008d73a6e0dbf66d86463bb2df530de0271656797602204f40308aef59b3c6b6fcbf92c891bf52d3f103ee488e80399bbc77a5eb94651a016952210352823d9f98e15bfa5c8d46f87b39c29bbe6f76ae62735616083dfe3f539121c521031b81fb46ca89beb288a39c408a62612c32b3f8822fa068967cd6a11139811201210222c76345965a6eb212c9e4513add3bbbdec0ed448aa94890aec5c5324e58a19f53ae0400483045022100a7cc6168f56f482e961355605b2ea38d477de973cc243a10d3cb054a9b12eaaf022007b25597f94c0cca17a0f5b2fc05f92656c3ad8b049a819af6424a37522695fd0147304402204f9ff90c0d7158d82e2ff997d4ad748197b59d9039a1a6641d3df8c53a0262e602202569bb7b772b1e4d079cc9531fc7db7bae914aa3152f05fc8dc4b0a47e3a2cc80169522103b3457bc20383d30f2a7df346950b479505d0dc40342e7b1a06e38a36bf5fba5c2103f9d9c2eda859c8250410ad06961f524e0ba0161bde7b45fd2a34c420cec1d3272102d53e6f75af02420b63b009c858bd8de4bc772cd0d61fc1c08bf6258fad9690d153ae0400483045022100a39a16e5e209fd16b122973378ff47cadae464a963fda50b03f9ff79b1cfdb730220490eaebfa6b140e535a1def3413c655e0c1f38b03a0e1fcf34073b1c0210f74201473044022015a63725031d565f7c4d5db10794f9d7c06cd46950d9fcb73b3ed2348e11be620220776b7c0fe7d7f1244e6deed9c7afb03ee1d98ef7ff6eed7723fae60eff1fc9790169522103e2b836f7dae6d0ab58d3bee11f31db009661ef78c29e851059b884d2d50c2e9d2103fa4d193b260805563be0fc1a190e971f41dff8888ca1578ba82e70272b24a7642102b5a20763a25c45a5a22e6e711f7c052af741d0a74e75f276dbc32f78ffe900b253ae0400473044022079f1ce1d9de71d9b9f8c0c5f9da222b5712cfaa54639e8d73d0501e88a7cc3bf02203e20ac7f7e1cb81342fe806cebc1294108e6d73463e7c5ed393ec517da3eadb20147304402205ae04c7544e81c777ad32693c273ffdf16164723577b2944cea175cb060adee00220613ba43ce5a2bd4019b2e4e1ff179b9fb0afbf59dc566216d4eb63a5d2517714016952210374e02590ed510483ba5f6365484317dc7e216980d375a1919e1505986d0beb4721033b7000d32bf90b4d190edc12501a818ae640c94a16e6e93a559fa5cb8946e2cc2102a571e11b0b6bbaa8fd6c64361eeac57bb500e2572c21825b546387963363b07d53ae000400473044022060c5555fd6b2214cf2f9b09faef38e236daccb67393c2507a60b7fc65cf7084a02204979f63305e042e1f4d4b1af7c344176871332b618c14ef6d3bb172bbed647020147304402205af7dc87246cb79823ab4e88ea4d602c605506a1ad68ba93378310b5884d8c9a02207e7e1db9bfadfbdc0c20941b3e23ec5a8583725b5d997814754f75c3ef97e9a40169522103a9b69d7af633791050bb7f36601ee5e1540d018091d24d37c912f748b666acf721024704ec149c5ce002582faace3858baa5c6045ed5979b1c96ada4115a61e648d6210329e40f01df78b5053e9a672790643c473d63e4b7dcb99cb3048d91493c03746253ae040047304402201740259cd653334aa1a4c7b4843ca7714b9f96faf305f73c2c3b0b8c7b901e960220433af24367783f5d39cbb8de9f8109007298eac8d1f8e618d9fbd0c66d517c780147304402207209c8af909215bc79dea399a3fb981d8a07d2aa3881e4797b9520b521de47b602203d55b0162302c71870a51c8c830cdfe8c87d9d1366047124729e3a3b36096cfa0169522102f0b3ff8cee5d16ea7492ebf28187c2c8fe8a35acf6da7a622ade8b9739deb5e521034fe26b07a46e117b99e80831794460391680de8aeb3e68a4855cd98764e55b32210239a1b9579dd180053e3a8f8a966150339b91ac97da2e33957328c75100b4151d53ae0400483045022100bc795153d6aa5aaf549fdf4830dc77b7efef219a42d618c9c124ff59bedfd377022048261b0d695de0b3429a5ef11e9d9b936885f93262f38b7eaf61a50e4fc7cab801483045022100f0fc85f0a2b929621233d4f6de926dbd66e6c0249282afe6d9cb8c59896acc64022064532ea412f4f7ccf03bcc462848951276d986a7c2a80cdf1757d182c99d8acb0169522103395d8f25d62e7a9acf2e80e656aeb73e20fbc8c616414568bcbae9f45cb03276210221c9799f657d09fcc44d91815b046b5b6f8666e096e5f0cbcdae2a0bdc1caabf2102c9ee2b49bebaa3af6591f8e2051d77daf9ddd03c00f08282895bde1cd717675753ae00000000", "vin": [{"sequence": 4294967295, "scriptSig": {"hex": "00483045022100f9d847174d59061dfb8a43b033e8e5c92cf367c3de120e3f73a1f3a80a8fbd2402207ba633337d5c71ade8447f2e1561193f44dc307d2a889d1453d6d6488c1e28980147304402200dd7101990a058d717d386fce5b7015af4772c94e75d32f92b74fe262c918f4e02204888b308db88037976b5717f35e55813fcb3dc6ca1833a14e327a3c5a12a3ab8014c695221039083ca48c19be73e23a7b7e830ea4b59599a5575d1346dded247ff93268d810b2102a5047378d3f05ddc54b6cdf5038e49fc34b023184f6827500172460880480ec82102ab7662857ec5ef3763eb771ca6d030dd9df32218632ff7f05058a9b5cab7257a53ae", "asm": "0 3045022100f9d847174d59061dfb8a43b033e8e5c92cf367c3de120e3f73a1f3a80a8fbd2402207ba633337d5c71ade8447f2e1561193f44dc307d2a889d1453d6d6488c1e2898[ALL] 304402200dd7101990a058d717d386fce5b7015af4772c94e75d32f92b74fe262c918f4e02204888b308db88037976b5717f35e55813fcb3dc6ca1833a14e327a3c5a12a3ab8[ALL] 5221039083ca48c19be73e23a7b7e830ea4b59599a5575d1346dded247ff93268d810b2102a5047378d3f05ddc54b6cdf5038e49fc34b023184f6827500172460880480ec82102ab7662857ec5ef3763eb771ca6d030dd9df32218632ff7f05058a9b5cab7257a53ae"}, "vout": 0, "txid": "1bcb6291026557c04f17645d336e48c5d6a521294fd44449069b303793586e9b"}, {"txinwitness": ["", "30450221009711884313ec7f14a1143b5dda26903f27016aa384ee485a3d02999f18edd6d302201a6ff5accd4599d8742fefe3fff864af272a66343e73ece2f32a44791ae23a6201", "30440220429398880f59bba99d953287a4be584a06256cdf8c1f6314183cebdf0633ede80220785e0883dc7fd384956ca3cc40b1d22fa8cbaffd8720daedf1c8c3c807b9685101", "522103cbcaa67a3c286c01638a9d8dc885ad6dadcbee0478b703197e45232b8b2ab0a12103f831c37fcf1ca3c69539aee58458803c6e2b45c197d8a24a0957d73f120833af2103273236484550ec1bea14366f871515277d57c4b5368b603162f897b8aed93d0453ae"], "sequence": 4294967295, "scriptSig": {"hex": "220020a1f99b8b4498240940a64d9eee2b277160dfb36ab358cc0425a44a828bcbde8f", "asm": "0020a1f99b8b4498240940a64d9eee2b277160dfb36ab358cc0425a44a828bcbde8f"}, "vout": 8, "txid": "b2b8151a452d3f812c8a98e3115ae11108ddba7b9d3c44a761bb501a13e04113"}, {"txinwitness": ["", "304402200da42dc2d061d5f03d003a07123362283dc379170330a60b199b0c6a6c3a61e102204d4241f143e25abbe63e4226fa3fdc2dbbe6d4b4364d644716727234c250cd3b01", "3044022071baf0b3bab616432da3c8008d73a6e0dbf66d86463bb2df530de0271656797602204f40308aef59b3c6b6fcbf92c891bf52d3f103ee488e80399bbc77a5eb94651a01", "52210352823d9f98e15bfa5c8d46f87b39c29bbe6f76ae62735616083dfe3f539121c521031b81fb46ca89beb288a39c408a62612c32b3f8822fa068967cd6a11139811201210222c76345965a6eb212c9e4513add3bbbdec0ed448aa94890aec5c5324e58a19f53ae"], "sequence": 4294967295, "scriptSig": {"hex": "2200204ec8e95c7340dcb3bc709eba3c3d16059bbb2fd2056640324ba4d5b254d98bdf", "asm": "00204ec8e95c7340dcb3bc709eba3c3d16059bbb2fd2056640324ba4d5b254d98bdf"}, "vout": 0, "txid": "61234e46e0bf5f3239662293cb0d21346ee0570392bf70bd76fc5309c1d736eb"}, {"txinwitness": ["", "3045022100a7cc6168f56f482e961355605b2ea38d477de973cc243a10d3cb054a9b12eaaf022007b25597f94c0cca17a0f5b2fc05f92656c3ad8b049a819af6424a37522695fd01", "304402204f9ff90c0d7158d82e2ff997d4ad748197b59d9039a1a6641d3df8c53a0262e602202569bb7b772b1e4d079cc9531fc7db7bae914aa3152f05fc8dc4b0a47e3a2cc801", "522103b3457bc20383d30f2a7df346950b479505d0dc40342e7b1a06e38a36bf5fba5c2103f9d9c2eda859c8250410ad06961f524e0ba0161bde7b45fd2a34c420cec1d3272102d53e6f75af02420b63b009c858bd8de4bc772cd0d61fc1c08bf6258fad9690d153ae"], "sequence": 4294967295, "scriptSig": {"hex": "220020cbcec52910d1c36cbf00c68a772d5a0cfd6e9dd65fcf9dba60681b5976e5c1e1", "asm": "0020cbcec52910d1c36cbf00c68a772d5a0cfd6e9dd65fcf9dba60681b5976e5c1e1"}, "vout": 6, "txid": "71dd83fe5781b5ea0b3526aa6f79e2a19d1c928dac17f4aeb22636f4fc8477b3"}, {"txinwitness": ["", "3045022100a39a16e5e209fd16b122973378ff47cadae464a963fda50b03f9ff79b1cfdb730220490eaebfa6b140e535a1def3413c655e0c1f38b03a0e1fcf34073b1c0210f74201", "3044022015a63725031d565f7c4d5db10794f9d7c06cd46950d9fcb73b3ed2348e11be620220776b7c0fe7d7f1244e6deed9c7afb03ee1d98ef7ff6eed7723fae60eff1fc97901", "522103e2b836f7dae6d0ab58d3bee11f31db009661ef78c29e851059b884d2d50c2e9d2103fa4d193b260805563be0fc1a190e971f41dff8888ca1578ba82e70272b24a7642102b5a20763a25c45a5a22e6e711f7c052af741d0a74e75f276dbc32f78ffe900b253ae"], "sequence": 4294967295, "scriptSig": {"hex": "220020e429b635a5e399c30cb5f004693419c3e9a006126b7b61d8a9d1e603a684ee22", "asm": "0020e429b635a5e399c30cb5f004693419c3e9a006126b7b61d8a9d1e603a684ee22"}, "vout": 4, "txid": "d1ee5aafa3f2b92f7fd183687f720693395d8de5fa4b7a78e1cb57b431631780"}, {"txinwitness": ["", "3044022079f1ce1d9de71d9b9f8c0c5f9da222b5712cfaa54639e8d73d0501e88a7cc3bf02203e20ac7f7e1cb81342fe806cebc1294108e6d73463e7c5ed393ec517da3eadb201", "304402205ae04c7544e81c777ad32693c273ffdf16164723577b2944cea175cb060adee00220613ba43ce5a2bd4019b2e4e1ff179b9fb0afbf59dc566216d4eb63a5d251771401", "52210374e02590ed510483ba5f6365484317dc7e216980d375a1919e1505986d0beb4721033b7000d32bf90b4d190edc12501a818ae640c94a16e6e93a559fa5cb8946e2cc2102a571e11b0b6bbaa8fd6c64361eeac57bb500e2572c21825b546387963363b07d53ae"], "sequence": 4294967295, "scriptSig": {"hex": "2200208005b56425477937a337ab7d0a52bff67a13d029d35d8f4176ace819179740bd", "asm": "00208005b56425477937a337ab7d0a52bff67a13d029d35d8f4176ace819179740bd"}, "vout": 0, "txid": "ed3b80acefd82a21df69cc73191c289be1ee94ea747297e6e8cb347a321f6fe1"}, {"sequence": 4294967295, "scriptSig": {"hex": "0047304402205ace5cd7065af0d1b1e9550e31d24a9960b788211ef0d22f210290515ce9aeba02204f5764ec81c8d6d5f0374ca2227b9202b23a0d7d0ffc335f69b68cf801eb1c760147304402204c62043632f59eb303dc5da0a9593fc2fbdb79d34ba8b9dcd4024aee8bdecfde0220010e4a4e8c579676d3d38489b868c1b965212142a4daddacfafcd7d5e091c1ba014c69522102d0f8909456e4eb07fcb323c93c31690376cfa06e830dd24a33ce4897953474922103cef1b7bee1937df1b161a18565e21dd8d8806fc32f99f6428e75e79945d4823d2103fc532f80563d3f8a2e60adcdd245a4900cee32a6b3bc1b9c57d7debaa372622753ae", "asm": "0 304402205ace5cd7065af0d1b1e9550e31d24a9960b788211ef0d22f210290515ce9aeba02204f5764ec81c8d6d5f0374ca2227b9202b23a0d7d0ffc335f69b68cf801eb1c76[ALL] 304402204c62043632f59eb303dc5da0a9593fc2fbdb79d34ba8b9dcd4024aee8bdecfde0220010e4a4e8c579676d3d38489b868c1b965212142a4daddacfafcd7d5e091c1ba[ALL] 522102d0f8909456e4eb07fcb323c93c31690376cfa06e830dd24a33ce4897953474922103cef1b7bee1937df1b161a18565e21dd8d8806fc32f99f6428e75e79945d4823d2103fc532f80563d3f8a2e60adcdd245a4900cee32a6b3bc1b9c57d7debaa372622753ae"}, "vout": 1, "txid": "9277671e31fbe721e22cd1f2505404b4295fb5c88fec4942555ba179e9c3907a"}, {"txinwitness": ["", "3044022060c5555fd6b2214cf2f9b09faef38e236daccb67393c2507a60b7fc65cf7084a02204979f63305e042e1f4d4b1af7c344176871332b618c14ef6d3bb172bbed6470201", "304402205af7dc87246cb79823ab4e88ea4d602c605506a1ad68ba93378310b5884d8c9a02207e7e1db9bfadfbdc0c20941b3e23ec5a8583725b5d997814754f75c3ef97e9a401", "522103a9b69d7af633791050bb7f36601ee5e1540d018091d24d37c912f748b666acf721024704ec149c5ce002582faace3858baa5c6045ed5979b1c96ada4115a61e648d6210329e40f01df78b5053e9a672790643c473d63e4b7dcb99cb3048d91493c03746253ae"], "sequence": 4294967295, "scriptSig": {"hex": "220020d430ac2462d2c700d6176d0fd885a6773fd395602da1f666c9442d2a97d6ea10", "asm": "0020d430ac2462d2c700d6176d0fd885a6773fd395602da1f666c9442d2a97d6ea10"}, "vout": 0, "txid": "d210359c8b7f7a9c0b71748cacfc4517f66e4dda3a689e02c08f597bb23c19a0"}, {"txinwitness": ["", "304402201740259cd653334aa1a4c7b4843ca7714b9f96faf305f73c2c3b0b8c7b901e960220433af24367783f5d39cbb8de9f8109007298eac8d1f8e618d9fbd0c66d517c7801", "304402207209c8af909215bc79dea399a3fb981d8a07d2aa3881e4797b9520b521de47b602203d55b0162302c71870a51c8c830cdfe8c87d9d1366047124729e3a3b36096cfa01", "522102f0b3ff8cee5d16ea7492ebf28187c2c8fe8a35acf6da7a622ade8b9739deb5e521034fe26b07a46e117b99e80831794460391680de8aeb3e68a4855cd98764e55b32210239a1b9579dd180053e3a8f8a966150339b91ac97da2e33957328c75100b4151d53ae"], "sequence": 4294967295, "scriptSig": {"hex": "220020b0ea64deab3f875014ba213e69298b185fd8e7e0c9f3743bb6157db99a594cb0", "asm": "0020b0ea64deab3f875014ba213e69298b185fd8e7e0c9f3743bb6157db99a594cb0"}, "vout": 0, "txid": "589b78d0d7deb1f3d7d3aab0b7e9ac45a6a60706261b0f053168c3ed3a6250c1"}, {"txinwitness": ["", "3045022100bc795153d6aa5aaf549fdf4830dc77b7efef219a42d618c9c124ff59bedfd377022048261b0d695de0b3429a5ef11e9d9b936885f93262f38b7eaf61a50e4fc7cab801", "3045022100f0fc85f0a2b929621233d4f6de926dbd66e6c0249282afe6d9cb8c59896acc64022064532ea412f4f7ccf03bcc462848951276d986a7c2a80cdf1757d182c99d8acb01", "522103395d8f25d62e7a9acf2e80e656aeb73e20fbc8c616414568bcbae9f45cb03276210221c9799f657d09fcc44d91815b046b5b6f8666e096e5f0cbcdae2a0bdc1caabf2102c9ee2b49bebaa3af6591f8e2051d77daf9ddd03c00f08282895bde1cd717675753ae"], "sequence": 4294967295, "scriptSig": {"hex": "22002034186dffee520f20cbdd2e0586c814edebc71df63035226b6701a44a1efdd8aa", "asm": "002034186dffee520f20cbdd2e0586c814edebc71df63035226b6701a44a1efdd8aa"}, "vout": 1, "txid": "ab3c802cad446a3350d8d1a4dbf8c5a52e4d196f27737db12f74ffd604777fe8"}], "txid": "3e2bf474895abf1e3ec699e87733835b771eb5ae6324515411dc62a430969939", "blocktime": 1537873891, "version": 1, "confirmations": 11478, "time": 1537873891, "locktime": 0, "vsize": 2074, "size": 3592}