{"hash": "5f5237b7f8804ebc00696f2b5b0e2565a00142df1c45ebecb8f0486642c3dfa3", "blockhash": "0000000000000000001f0ddff1eddb255c1121bcd4da4f1bc9a0da00cae72433", "vout": [{"scriptPubKey": {"reqSigs": 1, "hex": "a914daeca1fb78dda7c63b241aa52db4582aae58cb6087", "addresses": ["3MeahtonyPFQ5RZkbJySUJ3kpG2Jtuz9hJ"], "asm": "OP_HASH160 daeca1fb78dda7c63b241aa52db4582aae58cb60 OP_EQUAL", "type": "scripthash"}, "value": 0.029, "n": 0}, {"scriptPubKey": {"reqSigs": 1, "hex": "00147a201b7185abeb09249860ae00c09cd6bf34f6d4", "addresses": ["bc1q0gspkuv9404sjfycvzhqpsyu66lnfak59mv5nv"], "asm": "0 7a201b7185abeb09249860ae00c09cd6bf34f6d4", "type": "witness_v0_keyhash"}, "value": 0.00178523, "n": 1}], "hex": "01000000000101c18affd9d1ff50cbf49773ccf884c8d2d089554a4d4ab1e52c27019df8d595ec0100000000ffffffff0220402c000000000017a914daeca1fb78dda7c63b241aa52db4582aae58cb60875bb90200000000001600147a201b7185abeb09249860ae00c09cd6bf34f6d40247304402206d3e7e3aa096680c350ab103603460748d7ce0ab58ec8310f31fa538874aeb5b022030e6b012969793d8fdc6b2765d64e3cdb40facc792caef5f40c7ce92e41c3d020121022a3a9f819184480a31b520191273384ccf4dc9a3970854b6e825d853a0498b9700000000", "vin": [{"txinwitness": ["304402206d3e7e3aa096680c350ab103603460748d7ce0ab58ec8310f31fa538874aeb5b022030e6b012969793d8fdc6b2765d64e3cdb40facc792caef5f40c7ce92e41c3d0201", "022a3a9f819184480a31b520191273384ccf4dc9a3970854b6e825d853a0498b97"], "sequence": 4294967295, "scriptSig": {"hex": "", "asm": ""}, "vout": 1, "txid": "ec95d5f89d01272ce5b14a4d4a5589d0d2c884f8cc7397f4cb50ffd1d9ff8ac1"}], "txid": "3e2cc24e9035b985f322cd826ad808aacdec2e7cd7e276b12c7830fa26efbf5d", "blocktime": 1537872018, "version": 1, "confirmations": 11489, "time": 1537872018, "locktime": 0, "vsize": 142, "size": 223}