{"hash": "3e2e0c07d3e3ec6209c5bc911928805281fd178c7b67a7c36976ec67de4c9a86", "blockhash": "0000000000000000000dcc0f55137456b1a82d3642486a52398922ac4d620174", "vout": [{"scriptPubKey": {"reqSigs": 1, "hex": "76a91453c2f11202bbd1b18e5f422818d8e5a580233c0d88ac", "addresses": ["18dtci2df6XFofXqnrpZMPt6TsTokJHurY"], "asm": "OP_DUP OP_HASH160 53c2f11202bbd1b18e5f422818d8e5a580233c0d OP_EQUALVERIFY OP_CHECKSIG", "type": "pubkeyhash"}, "value": 0.0008356, "n": 0}, {"scriptPubKey": {"type": "nulldata", "hex": "6a4c50000077780001218fe0c131c9cb554ebcc0f7bcbefa6b8351586b4e86aeaeacb577c031fc46b318260ec39ad45be181608e5683a85baa099c06143e7c6f71c449bc9a9526289ac0f6612cd74e33776ee4", "asm": "OP_RETURN 000077780001218fe0c131c9cb554ebcc0f7bcbefa6b8351586b4e86aeaeacb577c031fc46b318260ec39ad45be181608e5683a85baa099c06143e7c6f71c449bc9a9526289ac0f6612cd74e33776ee4"}, "value": 0.0, "n": 1}], "hex": "01000000011b2bd226f4deb2b8341252b0c157528a7f709139d2bad15e51a8b45c8310bd9e010000006a4730440220793d9922b49af309cea057584bf04a4d8ad70b067ee160cad467cdc3616754f102203c19b1a96639bcf823dbcdeaa074ff51c249604f4f49fa4bb865045971245b6001210372ea8e3b310eeca980ea40f9a3f5e94bcc6a67e1b766365763efa2af1b16dd3effffffff0268460100000000001976a91453c2f11202bbd1b18e5f422818d8e5a580233c0d88ac0000000000000000536a4c50000077780001218fe0c131c9cb554ebcc0f7bcbefa6b8351586b4e86aeaeacb577c031fc46b318260ec39ad45be181608e5683a85baa099c06143e7c6f71c449bc9a9526289ac0f6612cd74e33776ee400000000", "vin": [{"sequence": 4294967295, "scriptSig": {"hex": "4730440220793d9922b49af309cea057584bf04a4d8ad70b067ee160cad467cdc3616754f102203c19b1a96639bcf823dbcdeaa074ff51c249604f4f49fa4bb865045971245b6001210372ea8e3b310eeca980ea40f9a3f5e94bcc6a67e1b766365763efa2af1b16dd3e", "asm": "30440220793d9922b49af309cea057584bf04a4d8ad70b067ee160cad467cdc3616754f102203c19b1a96639bcf823dbcdeaa074ff51c249604f4f49fa4bb865045971245b60[ALL] 0372ea8e3b310eeca980ea40f9a3f5e94bcc6a67e1b766365763efa2af1b16dd3e"}, "vout": 1, "txid": "9ebd10835cb4a8515ed1bad23991707f8a5257c1b0521234b8b2def426d22b1b"}], "txid": "3e2e0c07d3e3ec6209c5bc911928805281fd178c7b67a7c36976ec67de4c9a86", "blocktime": 1537870268, "version": 1, "confirmations": 11518, "time": 1537870268, "locktime": 0, "vsize": 283, "size": 283}