{"hash": "3e31c75f27c863c14306d46723cd85f4c9d2a9a3183ea6baa02f34dc544aedd8", "blockhash": "00000000000000000004ffacab907a6b429b9a5745fa0b75af4234bf69dd7176", "vout": [{"scriptPubKey": {"reqSigs": 1, "hex": "a914b97da6e11bd733aab6a47709993bfceaa8686cb387", "addresses": ["3JboTUefTzjwAymmbspxr7UE7GsurR9RVH"], "asm": "OP_HASH160 b97da6e11bd733aab6a47709993bfceaa8686cb3 OP_EQUAL", "type": "scripthash"}, "value": 0.0013, "n": 0}, {"scriptPubKey": {"reqSigs": 1, "hex": "76a914e163d073e054266d0f5e025eebd6100b0c946b5b88ac", "addresses": ["1MYkcNyCtPmxivKoMy5v5VBkv6LuBrgrAy"], "asm": "OP_DUP OP_HASH160 e163d073e054266d0f5e025eebd6100b0c946b5b OP_EQUALVERIFY OP_CHECKSIG", "type": "pubkeyhash"}, "value": 0.0675491, "n": 1}], "hex": "0100000001ed585fc7554ae04900019337e36e5802cb792abdc8bc79e9606ea1ec596d13e2010000006b483045022100fc22ec62a84087e57f5d5208a694bac1b9b5105752fe27ef8c01e19878e55944022079a025c4971392946d139913af345a0bb507e01096c4eadd60f5572f193cd2160121033387315522fd785dc6a3184e4f2acbd937f90409a105c06583c94e6554220085ffffffff02d0fb01000000000017a914b97da6e11bd733aab6a47709993bfceaa8686cb3875e126700000000001976a914e163d073e054266d0f5e025eebd6100b0c946b5b88ac00000000", "vin": [{"sequence": 4294967295, "scriptSig": {"hex": "483045022100fc22ec62a84087e57f5d5208a694bac1b9b5105752fe27ef8c01e19878e55944022079a025c4971392946d139913af345a0bb507e01096c4eadd60f5572f193cd2160121033387315522fd785dc6a3184e4f2acbd937f90409a105c06583c94e6554220085", "asm": "3045022100fc22ec62a84087e57f5d5208a694bac1b9b5105752fe27ef8c01e19878e55944022079a025c4971392946d139913af345a0bb507e01096c4eadd60f5572f193cd216[ALL] 033387315522fd785dc6a3184e4f2acbd937f90409a105c06583c94e6554220085"}, "vout": 1, "txid": "e2136d59eca16e60e979bcc8bd2a79cb02586ee33793010049e04a55c75f58ed"}], "txid": "3e31c75f27c863c14306d46723cd85f4c9d2a9a3183ea6baa02f34dc544aedd8", "blocktime": 1537875543, "version": 1, "confirmations": 11464, "time": 1537875543, "locktime": 0, "vsize": 224, "size": 224}