{"hash": "3e3807577405cb85470274ecfc49bd762475a9b14f3e4d9eb9504301c94feb20", "blockhash": "0000000000000000000e13cef7c366c0283d82e591d1acd082e914b08063cdf1", "vout": [{"scriptPubKey": {"reqSigs": 1, "hex": "76a914239e9bd4a72956c54d5b02d6911a458919108fca88ac", "addresses": ["14FLf3MroYYspgD6cPkLG3VuBUiCcQbTu8"], "asm": "OP_DUP OP_HASH160 239e9bd4a72956c54d5b02d6911a458919108fca OP_EQUALVERIFY OP_CHECKSIG", "type": "pubkeyhash"}, "value": 0.00095915, "n": 0}, {"scriptPubKey": {"type": "nulldata", "hex": "6a146f6d6e69000000000000001f0000001f86780a00", "asm": "OP_RETURN 6f6d6e69000000000000001f0000001f86780a00"}, "value": 0.0, "n": 1}, {"scriptPubKey": {"reqSigs": 1, "hex": "76a914e2b8f9eaa0b53fe433f280f346e62676fc3135da88ac", "addresses": ["1MfoJjDeH2NkzvwgVJwpLXiHgnHrFcPfAj"], "asm": "OP_DUP OP_HASH160 e2b8f9eaa0b53fe433f280f346e62676fc3135da OP_EQUALVERIFY OP_CHECKSIG", "type": "pubkeyhash"}, "value": 5.46e-06, "n": 2}], "hex": "010000000133ff54ab7160fb1094dd8e705826fc72c0678a93528fa60e5109ce182dfa7a51020000006b483045022100a193279fbd9a5681895251008fc880b90dde9b43652ec42d0f097ea52f1c030102207d2a91c069794cd16b324ff98d959c0a5d58b0188b90f122af07b6116289f6a10121036ae9f7a211432d2666ec2a3038de3b374bc92215529a4cc73e9f07e323f73747feffffff03ab760100000000001976a914239e9bd4a72956c54d5b02d6911a458919108fca88ac0000000000000000166a146f6d6e69000000000000001f0000001f86780a0022020000000000001976a914e2b8f9eaa0b53fe433f280f346e62676fc3135da88ac10490800", "vin": [{"sequence": 4294967294, "scriptSig": {"hex": "483045022100a193279fbd9a5681895251008fc880b90dde9b43652ec42d0f097ea52f1c030102207d2a91c069794cd16b324ff98d959c0a5d58b0188b90f122af07b6116289f6a10121036ae9f7a211432d2666ec2a3038de3b374bc92215529a4cc73e9f07e323f73747", "asm": "3045022100a193279fbd9a5681895251008fc880b90dde9b43652ec42d0f097ea52f1c030102207d2a91c069794cd16b324ff98d959c0a5d58b0188b90f122af07b6116289f6a1[ALL] 036ae9f7a211432d2666ec2a3038de3b374bc92215529a4cc73e9f07e323f73747"}, "vout": 2, "txid": "517afa2d18ce09510ea68f52938a67c072fc2658708edd9410fb6071ab54ff33"}], "txid": "3e3807577405cb85470274ecfc49bd762475a9b14f3e4d9eb9504301c94feb20", "blocktime": 1537871767, "version": 1, "confirmations": 11490, "time": 1537871767, "locktime": 542992, "vsize": 257, "size": 257}