{"hash": "53f6d93fb60cfca24002a674b1618ef1d625a50cb48bd9deaf001267ec70fe4f", "blockhash": "0000000000000000001f76057863aec43deb6fa401d9628bb513d65a8098bfab", "vout": [{"scriptPubKey": {"reqSigs": 1, "hex": "76a914b42a26e1f9ce2b0f587249297e6cc3d3bbe48a4988ac", "addresses": ["1HRd8J3TKpewxq67PyR8aDv5TsXvZBEmzc"], "asm": "OP_DUP OP_HASH160 b42a26e1f9ce2b0f587249297e6cc3d3bbe48a49 OP_EQUALVERIFY OP_CHECKSIG", "type": "pubkeyhash"}, "value": 0.00083111, "n": 0}, {"scriptPubKey": {"reqSigs": 1, "hex": "a914999f41de30b6dc5349ebe9c40b1113bd2a21ad4587", "addresses": ["3FhJ6HUCp9Djc4aoXXUuoi67ftintvksW1"], "asm": "OP_HASH160 999f41de30b6dc5349ebe9c40b1113bd2a21ad45 OP_EQUAL", "type": "scripthash"}, "value": 0.02960764, "n": 1}, {"scriptPubKey": {"reqSigs": 1, "hex": "a91426722322d662890ce1208af9275e92f2a431f89587", "addresses": ["35CJLECu7yevB5sZ4DEbkUcJUriK7uwJrw"], "asm": "OP_HASH160 26722322d662890ce1208af9275e92f2a431f895 OP_EQUAL", "type": "scripthash"}, "value": 0.00241425, "n": 2}, {"scriptPubKey": {"reqSigs": 1, "hex": "a9143f8d6674b2c9c413a6b4d3a72b9525b9cf78411887", "addresses": ["37V3tHgf2SkW12BV2HMKWijD8sdqo5Zbq3"], "asm": "OP_HASH160 3f8d6674b2c9c413a6b4d3a72b9525b9cf784118 OP_EQUAL", "type": "scripthash"}, "value": 0.00155435, "n": 3}, {"scriptPubKey": {"reqSigs": 1, "hex": "a914932acaa3a3b144ff1563fa646adde34b872279ea87", "addresses": ["3F7AWxCTgf6RUJSjow8i4RBypanZayTdCm"], "asm": "OP_HASH160 932acaa3a3b144ff1563fa646adde34b872279ea OP_EQUAL", "type": "scripthash"}, "value": 0.0085938, "n": 4}, {"scriptPubKey": {"reqSigs": 1, "hex": "76a914f80d2e108157acc0aa78c22bcb097dfda92f2fef88ac", "addresses": ["1PcaNLGUAnHQQSYAGCsfFCDYptcFsZKffv"], "asm": "OP_DUP OP_HASH160 f80d2e108157acc0aa78c22bcb097dfda92f2fef OP_EQUALVERIFY OP_CHECKSIG", "type": "pubkeyhash"}, "value": 0.00800895, "n": 5}, {"scriptPubKey": {"reqSigs": 1, "hex": "a9141fcaf8cfbdb062402cedf86a31e16c17c387460e87", "addresses": ["34b82E6xtHzFAh3BncWD7DTasCRRdfZB7B"], "asm": "OP_HASH160 1fcaf8cfbdb062402cedf86a31e16c17c387460e OP_EQUAL", "type": "scripthash"}, "value": 0.00120599, "n": 6}, {"scriptPubKey": {"reqSigs": 1, "hex": "a9149f45bc34acebf7295db3fb0f5d22bbf015b3a15887", "addresses": ["3GDAuL6Dm5rTc8Tz96iHWe6u4igZdxkafC"], "asm": "OP_HASH160 9f45bc34acebf7295db3fb0f5d22bbf015b3a158 OP_EQUAL", "type": "scripthash"}, "value": 0.0118726, "n": 7}, {"scriptPubKey": {"reqSigs": 1, "hex": "76a91449bd1afa74be973cd9f2a814fa92f8bafc1671f788ac", "addresses": ["17itsH1fN8ZWAMH9D9uohv68Y8Fjge86cY"], "asm": "OP_DUP OP_HASH160 49bd1afa74be973cd9f2a814fa92f8bafc1671f7 OP_EQUALVERIFY OP_CHECKSIG", "type": "pubkeyhash"}, "value": 0.01, "n": 8}, {"scriptPubKey": {"reqSigs": 1, "hex": "76a914c610296ea74c5dfad36f39481e31a2c2acf2bc6688ac", "addresses": ["1K4G9vmhAAXSJHgauRxyR21VgoaJzySdAs"], "asm": "OP_DUP OP_HASH160 c610296ea74c5dfad36f39481e31a2c2acf2bc66 OP_EQUALVERIFY OP_CHECKSIG", "type": "pubkeyhash"}, "value": 2.77, "n": 9}, {"scriptPubKey": {"reqSigs": 1, "hex": "a9145bd04a64fce4043a7275f1cfe6474a92b308a40e87", "addresses": ["3A4UwHVYyhspaviMYPHmcfZe5xj4kyA7Bd"], "asm": "OP_HASH160 5bd04a64fce4043a7275f1cfe6474a92b308a40e OP_EQUAL", "type": "scripthash"}, "value": 0.0697825, "n": 10}, {"scriptPubKey": {"reqSigs": 1, "hex": "a914e02e3de99599255f8db00dcbcf9aecacf8e7eb9d87", "addresses": ["3N8NgTFtKsRRQuD7yX2xS9UMtxkGt4pdVb"], "asm": "OP_HASH160 e02e3de99599255f8db00dcbcf9aecacf8e7eb9d OP_EQUAL", "type": "scripthash"}, "value": 0.00457003, "n": 11}, {"scriptPubKey": {"reqSigs": 1, "hex": "76a914c7a3d8780651c395cc7224d8a1fc29d4c53acc1988ac", "addresses": ["1KCbkNAHdzch9p7bZwXcJghX2PKY8mKKfv"], "asm": "OP_DUP OP_HASH160 c7a3d8780651c395cc7224d8a1fc29d4c53acc19 OP_EQUALVERIFY OP_CHECKSIG", "type": "pubkeyhash"}, "value": 0.00468604, "n": 12}, {"scriptPubKey": {"reqSigs": 1, "hex": "76a9144b554673f1b0f7664129e1906c7833d6a2a0014a88ac", "addresses": ["17sKqQvhJbAiYWNrUsk5qfRYNSGPKjnLEW"], "asm": "OP_DUP OP_HASH160 4b554673f1b0f7664129e1906c7833d6a2a0014a OP_EQUALVERIFY OP_CHECKSIG", "type": "pubkeyhash"}, "value": 0.27559581, "n": 13}, {"scriptPubKey": {"reqSigs": 1, "hex": "a914e9bc2cef8c51e87fd4076bb48d5de47f37f0e34387", "addresses": ["3NztnuTfc3EpisQ26YeHZBvH86Mi4gEiHg"], "asm": "OP_HASH160 e9bc2cef8c51e87fd4076bb48d5de47f37f0e343 OP_EQUAL", "type": "scripthash"}, "value": 0.00438162, "n": 14}, {"scriptPubKey": {"reqSigs": 1, "hex": "a91479d3d0565c4bf4335975c1153a4a4948cb78ea8587", "addresses": ["3CoBRqWvxhtzyw4ZoBwxwrohhcKjEBRTNu"], "asm": "OP_HASH160 79d3d0565c4bf4335975c1153a4a4948cb78ea85 OP_EQUAL", "type": "scripthash"}, "value": 0.00511484, "n": 15}, {"scriptPubKey": {"reqSigs": 1, "hex": "76a9143ed48b5ed25fb2a30f90f2708d354021b5065f8f88ac", "addresses": ["16jDWjpuw7x9dKyXJsWj31a7tzArn1vS5c"], "asm": "OP_DUP OP_HASH160 3ed48b5ed25fb2a30f90f2708d354021b5065f8f OP_EQUALVERIFY OP_CHECKSIG", "type": "pubkeyhash"}, "value": 0.01127241, "n": 16}, {"scriptPubKey": {"reqSigs": 1, "hex": "76a9141dfc90c2d2ff829a48d061b9c7cc7af8541c69ae88ac", "addresses": ["13jZA7ww75aZrYYUrBz7GVsuTKUE9t7HLg"], "asm": "OP_DUP OP_HASH160 1dfc90c2d2ff829a48d061b9c7cc7af8541c69ae OP_EQUALVERIFY OP_CHECKSIG", "type": "pubkeyhash"}, "value": 0.002256, "n": 17}, {"scriptPubKey": {"reqSigs": 1, "hex": "a9147cbbeb7a286bf73df5d83ae98cd375d8592c269e87", "addresses": ["3D4YqEGei5XFxANjjU924NM7Qm7dXXfzGt"], "asm": "OP_HASH160 7cbbeb7a286bf73df5d83ae98cd375d8592c269e OP_EQUAL", "type": "scripthash"}, "value": 0.00387267, "n": 18}, {"scriptPubKey": {"reqSigs": 1, "hex": "a914e4b14e242a29d0ff68bf41ee0498127ce7f97b6787", "addresses": ["3NYEPfXcyPwhvL81J2vfvRaqto7z38EfJb"], "asm": "OP_HASH160 e4b14e242a29d0ff68bf41ee0498127ce7f97b67 OP_EQUAL", "type": "scripthash"}, "value": 0.0010497, "n": 19}, {"scriptPubKey": {"reqSigs": 1, "hex": "a9143728697c2a344c7e43c249757763ad6d8b211ce087", "addresses": ["36ifVyPF3gDnLTqUPe1dJm7X1DHtedVDUy"], "asm": "OP_HASH160 3728697c2a344c7e43c249757763ad6d8b211ce0 OP_EQUAL", "type": "scripthash"}, "value": 0.01610226, "n": 20}, {"scriptPubKey": {"reqSigs": 1, "hex": "76a9143ccc77a9fbdee3adc401f204eb5aef7043d974e588ac", "addresses": ["16YUVA5GfqjYLC76EjKxYrqfsPxmqh6bHP"], "asm": "OP_DUP OP_HASH160 3ccc77a9fbdee3adc401f204eb5aef7043d974e5 OP_EQUALVERIFY OP_CHECKSIG", "type": "pubkeyhash"}, "value": 0.00596705, "n": 21}, {"scriptPubKey": {"reqSigs": 1, "hex": "a9144b2e15b300e0f37c6b4bd1315550143f7ad31e3787", "addresses": ["38YXoxRqx9DZgcbwHiGGBqMwNdRWFqr9Wn"], "asm": "OP_HASH160 4b2e15b300e0f37c6b4bd1315550143f7ad31e37 OP_EQUAL", "type": "scripthash"}, "value": 0.03180558, "n": 22}, {"scriptPubKey": {"reqSigs": 1, "hex": "76a914882f21dc2b3769e4ee4f914a847c674eafe5be6d88ac", "addresses": ["1DR5MtyjACUusGBib41viuGQvhMsKZR4En"], "asm": "OP_DUP OP_HASH160 882f21dc2b3769e4ee4f914a847c674eafe5be6d OP_EQUALVERIFY OP_CHECKSIG", "type": "pubkeyhash"}, "value": 0.00615402, "n": 23}, {"scriptPubKey": {"reqSigs": 1, "hex": "a9149495e0c10e75e3a86952fff21daf0ad8bfd8e00a87", "addresses": ["3FEfUdtmYKa5CAjNdR2E8u7gC9y6uHadji"], "asm": "OP_HASH160 9495e0c10e75e3a86952fff21daf0ad8bfd8e00a OP_EQUAL", "type": "scripthash"}, "value": 0.00563095, "n": 24}, {"scriptPubKey": {"reqSigs": 1, "hex": "a91459cd15bff258e26fc1b1edfbce5bcf32e1652af487", "addresses": ["39sqkAnTXkYm7Tixg4xMA96quGgWK5ZZ3R"], "asm": "OP_HASH160 59cd15bff258e26fc1b1edfbce5bcf32e1652af4 OP_EQUAL", "type": "scripthash"}, "value": 0.01675936, "n": 25}, {"scriptPubKey": {"reqSigs": 1, "hex": "76a91417748bcf4a169cb3bc813fd0ba7deaaa8ebf3de488ac", "addresses": ["1392ABQ9ogEuAyzgc3HNpKdAiLYfR386TR"], "asm": "OP_DUP OP_HASH160 17748bcf4a169cb3bc813fd0ba7deaaa8ebf3de4 OP_EQUALVERIFY OP_CHECKSIG", "type": "pubkeyhash"}, "value": 0.00645303, "n": 26}, {"scriptPubKey": {"reqSigs": 1, "hex": "76a9145876752ba20325cd606b9677540afd2fbd8071da88ac", "addresses": ["194kNU3AAYMMdUpxpvB45HZava5BFj17DS"], "asm": "OP_DUP OP_HASH160 5876752ba20325cd606b9677540afd2fbd8071da OP_EQUALVERIFY OP_CHECKSIG", "type": "pubkeyhash"}, "value": 0.00771549, "n": 27}, {"scriptPubKey": {"reqSigs": 1, "hex": "a9143cd8469a4510864f5aba7d96538a9add31f1baa287", "addresses": ["37EjZABB39hfHiDWH4i4xMmkRgxecX61HP"], "asm": "OP_HASH160 3cd8469a4510864f5aba7d96538a9add31f1baa2 OP_EQUAL", "type": "scripthash"}, "value": 0.0109, "n": 28}, {"scriptPubKey": {"reqSigs": 1, "hex": "a914ade8719ad4036f72adce60bb296033fb086693e787", "addresses": ["3HYZHCwGqruj15HYS7VjG4eNV4CspFXudT"], "asm": "OP_HASH160 ade8719ad4036f72adce60bb296033fb086693e7 OP_EQUAL", "type": "scripthash"}, "value": 0.00074584, "n": 29}, {"scriptPubKey": {"reqSigs": 1, "hex": "76a9143b79b9bbe285ce0c0629713f23dfd4508ff2cf9088ac", "addresses": ["16RUgxRh16zkKD1xwpxEqws7hN8167Up1V"], "asm": "OP_DUP OP_HASH160 3b79b9bbe285ce0c0629713f23dfd4508ff2cf90 OP_EQUALVERIFY OP_CHECKSIG", "type": "pubkeyhash"}, "value": 0.02342835, "n": 30}, {"scriptPubKey": {"reqSigs": 1, "hex": "a9149a4bb3d83f3d224f49c088c95080bcc051dabe2a87", "addresses": ["3FkrfzJgLKhrbFsAxpH7JhxpgZwTNZg8Gk"], "asm": "OP_HASH160 9a4bb3d83f3d224f49c088c95080bcc051dabe2a OP_EQUAL", "type": "scripthash"}, "value": 0.00109181, "n": 31}, {"scriptPubKey": {"reqSigs": 1, "hex": "a9143f5010d3afa44964be2f8e6f275df4599cb5a7e887", "addresses": ["37TnQhBGHQUM9qtZLiLod1DzwAh4Pv2chj"], "asm": "OP_HASH160 3f5010d3afa44964be2f8e6f275df4599cb5a7e8 OP_EQUAL", "type": "scripthash"}, "value": 0.00221328, "n": 32}, {"scriptPubKey": {"reqSigs": 1, "hex": "a914cabaa1b757095a1767711491e391ca9f787150ba87", "addresses": ["3LAwzh4qUbFwEovnkTyX59paPKnQiju6iR"], "asm": "OP_HASH160 cabaa1b757095a1767711491e391ca9f787150ba OP_EQUAL", "type": "scripthash"}, "value": 0.0034142, "n": 33}, {"scriptPubKey": {"reqSigs": 1, "hex": "76a914d27ada0d4645936733d5c58418e89cd42ca87c5688ac", "addresses": ["1LBv5B8aryxw1za3Y3Xq35WMDkosyyduYe"], "asm": "OP_DUP OP_HASH160 d27ada0d4645936733d5c58418e89cd42ca87c56 OP_EQUALVERIFY OP_CHECKSIG", "type": "pubkeyhash"}, "value": 0.005461, "n": 34}, {"scriptPubKey": {"reqSigs": 1, "hex": "76a9142d7447196e15e9b9a6d86c3f69653decf758025788ac", "addresses": ["159LhkYiwqRSZoGN9P8HvQsA2dMFTzNSdj"], "asm": "OP_DUP OP_HASH160 2d7447196e15e9b9a6d86c3f69653decf7580257 OP_EQUALVERIFY OP_CHECKSIG", "type": "pubkeyhash"}, "value": 0.00954029, "n": 35}, {"scriptPubKey": {"reqSigs": 1, "hex": "a914ca7ee2f492f5f536c4e8d9c45cc9e83ee10c8b8287", "addresses": ["3L9iRXQuCdANZRMQaqcQcgLu5t94y4rX3h"], "asm": "OP_HASH160 ca7ee2f492f5f536c4e8d9c45cc9e83ee10c8b82 OP_EQUAL", "type": "scripthash"}, "value": 0.00017808, "n": 36}, {"scriptPubKey": {"reqSigs": 1, "hex": "76a914c7b7554e7d5fc45d1e2c899cd8fe2b6db82e1d9f88ac", "addresses": ["1KD16Pe1wkDaaP9eKgEyhk4rjR7gQxdTwe"], "asm": "OP_DUP OP_HASH160 c7b7554e7d5fc45d1e2c899cd8fe2b6db82e1d9f OP_EQUALVERIFY OP_CHECKSIG", "type": "pubkeyhash"}, "value": 0.37111, "n": 37}, {"scriptPubKey": {"reqSigs": 1, "hex": "76a9144f2d56d902fc34965b3777017907a8824402e9e188ac", "addresses": ["18DehP69LUZQEEAGiC1ydk3GRtiA5TeZVK"], "asm": "OP_DUP OP_HASH160 4f2d56d902fc34965b3777017907a8824402e9e1 OP_EQUALVERIFY OP_CHECKSIG", "type": "pubkeyhash"}, "value": 0.0046, "n": 38}, {"scriptPubKey": {"reqSigs": 1, "hex": "a91417cd6c11f5086f5ee5587d80a8ac8bb334f192b787", "addresses": ["33rsYwJHMHGrs7jrKQfAgFCMtN9eMmHLDC"], "asm": "OP_HASH160 17cd6c11f5086f5ee5587d80a8ac8bb334f192b7 OP_EQUAL", "type": "scripthash"}, "value": 0.00551917, "n": 39}, {"scriptPubKey": {"reqSigs": 1, "hex": "76a9145b135843dbb736e22fa062442305671676786d5e88ac", "addresses": ["19JZfZEnuNQXW8hTBh8t8W8Vo7FLrC1oAr"], "asm": "OP_DUP OP_HASH160 5b135843dbb736e22fa062442305671676786d5e OP_EQUALVERIFY OP_CHECKSIG", "type": "pubkeyhash"}, "value": 0.1583, "n": 40}, {"scriptPubKey": {"reqSigs": 1, "hex": "a9146511d1e368d5dc7dcb998a49cca252dcbd7a83fd87", "addresses": ["3AuRX4k34ZuSCZdYJgqQetTTtQ7DTkG2QC"], "asm": "OP_HASH160 6511d1e368d5dc7dcb998a49cca252dcbd7a83fd OP_EQUAL", "type": "scripthash"}, "value": 0.02283859, "n": 41}, {"scriptPubKey": {"reqSigs": 1, "hex": "a91438baa6a1c7f4efd1044de6f074b8575add38c0fe87", "addresses": ["36ryN22iicVUW1wGKHU7FiUYof1s84D47i"], "asm": "OP_HASH160 38baa6a1c7f4efd1044de6f074b8575add38c0fe OP_EQUAL", "type": "scripthash"}, "value": 0.00886862, "n": 42}, {"scriptPubKey": {"reqSigs": 1, "hex": "76a914ca2b51e8fc5c31e800d51f6a621f41a58fa4532988ac", "addresses": ["1KRyPg4QQUYCeeVEiGqbaUHCcjMzH3dzSR"], "asm": "OP_DUP OP_HASH160 ca2b51e8fc5c31e800d51f6a621f41a58fa45329 OP_EQUALVERIFY OP_CHECKSIG", "type": "pubkeyhash"}, "value": 0.02654, "n": 43}, {"scriptPubKey": {"reqSigs": 1, "hex": "a914d9f8945ef5cf0eedae9a79bbeadf1b87a906897d87", "addresses": ["3MZYLnLjsebaYdY3A48mi8mVr9CDAnnUW5"], "asm": "OP_HASH160 d9f8945ef5cf0eedae9a79bbeadf1b87a906897d OP_EQUAL", "type": "scripthash"}, "value": 0.00797936, "n": 44}, {"scriptPubKey": {"reqSigs": 1, "hex": "a9145139c76105d5824908a6885f24cf127f81fccee987", "addresses": ["396VsdD6jbPFEdXiKR4WtwVN3ErCzn87gJ"], "asm": "OP_HASH160 5139c76105d5824908a6885f24cf127f81fccee9 OP_EQUAL", "type": "scripthash"}, "value": 6.95159843, "n": 45}, {"scriptPubKey": {"reqSigs": 1, "hex": "a914629182059f4fa6822c9aa051152b5693c4cb1af887", "addresses": ["3AgCTQgddKoiyNYZyvrL9A1aNGDEaRqpx4"], "asm": "OP_HASH160 629182059f4fa6822c9aa051152b5693c4cb1af8 OP_EQUAL", "type": "scripthash"}, "value": 0.00337065, "n": 46}], "hex": "020000000001015e68d0c7d118935d980806e433f15b3d3191fe156c4547d6c1db8e03743402ff0b000000171600148d6304a2a0e6dd74b01626c431c831de0fca93d1feffffff2fa7440100000000001976a914b42a26e1f9ce2b0f587249297e6cc3d3bbe48a4988ac7c2d2d000000000017a914999f41de30b6dc5349ebe9c40b1113bd2a21ad458711af03000000000017a91426722322d662890ce1208af9275e92f2a431f895872b5f02000000000017a9143f8d6674b2c9c413a6b4d3a72b9525b9cf78411887f41c0d000000000017a914932acaa3a3b144ff1563fa646adde34b872279ea877f380c00000000001976a914f80d2e108157acc0aa78c22bcb097dfda92f2fef88ac17d701000000000017a9141fcaf8cfbdb062402cedf86a31e16c17c387460e87bc1d12000000000017a9149f45bc34acebf7295db3fb0f5d22bbf015b3a1588740420f00000000001976a91449bd1afa74be973cd9f2a814fa92f8bafc1671f788ac40af8210000000001976a914c610296ea74c5dfad36f39481e31a2c2acf2bc6688acca7a6a000000000017a9145bd04a64fce4043a7275f1cfe6474a92b308a40e872bf906000000000017a914e02e3de99599255f8db00dcbcf9aecacf8e7eb9d877c260700000000001976a914c7a3d8780651c395cc7224d8a1fc29d4c53acc1988ac9d86a401000000001976a9144b554673f1b0f7664129e1906c7833d6a2a0014a88ac92af06000000000017a914e9bc2cef8c51e87fd4076bb48d5de47f37f0e34387fccd07000000000017a91479d3d0565c4bf4335975c1153a4a4948cb78ea858749331100000000001976a9143ed48b5ed25fb2a30f90f2708d354021b5065f8f88ac40710300000000001976a9141dfc90c2d2ff829a48d061b9c7cc7af8541c69ae88acc3e805000000000017a9147cbbeb7a286bf73df5d83ae98cd375d8592c269e870a9a01000000000017a914e4b14e242a29d0ff68bf41ee0498127ce7f97b6787f29118000000000017a9143728697c2a344c7e43c249757763ad6d8b211ce087e11a0900000000001976a9143ccc77a9fbdee3adc401f204eb5aef7043d974e588ac0e8830000000000017a9144b2e15b300e0f37c6b4bd1315550143f7ad31e3787ea630900000000001976a914882f21dc2b3769e4ee4f914a847c674eafe5be6d88ac979708000000000017a9149495e0c10e75e3a86952fff21daf0ad8bfd8e00a87a09219000000000017a91459cd15bff258e26fc1b1edfbce5bcf32e1652af487b7d80900000000001976a91417748bcf4a169cb3bc813fd0ba7deaaa8ebf3de488acddc50b00000000001976a9145876752ba20325cd606b9677540afd2fbd8071da88acd0a110000000000017a9143cd8469a4510864f5aba7d96538a9add31f1baa287582301000000000017a914ade8719ad4036f72adce60bb296033fb086693e787b3bf2300000000001976a9143b79b9bbe285ce0c0629713f23dfd4508ff2cf9088ac7daa01000000000017a9149a4bb3d83f3d224f49c088c95080bcc051dabe2a87906003000000000017a9143f5010d3afa44964be2f8e6f275df4599cb5a7e887ac3505000000000017a914cabaa1b757095a1767711491e391ca9f787150ba8734550800000000001976a914d27ada0d4645936733d5c58418e89cd42ca87c5688acad8e0e00000000001976a9142d7447196e15e9b9a6d86c3f69653decf758025788ac904500000000000017a914ca7ee2f492f5f536c4e8d9c45cc9e83ee10c8b8287d8443602000000001976a914c7b7554e7d5fc45d1e2c899cd8fe2b6db82e1d9f88ace0040700000000001976a9144f2d56d902fc34965b3777017907a8824402e9e188aced6b08000000000017a91417cd6c11f5086f5ee5587d80a8ac8bb334f192b787f08bf100000000001976a9145b135843dbb736e22fa062442305671676786d5e88ac53d922000000000017a9146511d1e368d5dc7dcb998a49cca252dcbd7a83fd874e880d000000000017a91438baa6a1c7f4efd1044de6f074b8575add38c0fe87307f2800000000001976a914ca2b51e8fc5c31e800d51f6a621f41a58fa4532988acf02c0c000000000017a914d9f8945ef5cf0eedae9a79bbeadf1b87a906897d87234c6f290000000017a9145139c76105d5824908a6885f24cf127f81fccee987a92405000000000017a914629182059f4fa6822c9aa051152b5693c4cb1af88702483045022100ca06bde3eed411a3873ae9128b119f89b32da078afb9ef7f010fdaddfdb3bd10022068b708bc18631f560b06ef43730a56f3d9dd0f4efc2d5a65615653f232f0bdf3012103181604675f92ed8b202eb1208f8a924be9909971ae801ed857e91a5f546c575d14490800", "vin": [{"txinwitness": ["3045022100ca06bde3eed411a3873ae9128b119f89b32da078afb9ef7f010fdaddfdb3bd10022068b708bc18631f560b06ef43730a56f3d9dd0f4efc2d5a65615653f232f0bdf301", "03181604675f92ed8b202eb1208f8a924be9909971ae801ed857e91a5f546c575d"], "sequence": 4294967294, "scriptSig": {"hex": "1600148d6304a2a0e6dd74b01626c431c831de0fca93d1", "asm": "00148d6304a2a0e6dd74b01626c431c831de0fca93d1"}, "vout": 11, "txid": "ff023474038edbc1d647456c15fe91313d5bf133e40608985d9318d1c7d0685e"}], "txid": "3e392e0ffb4fa976dcc484fd68289f955c507617e29e158bf9c699eb851fedd1", "blocktime": 1537873891, "version": 2, "confirmations": 11475, "time": 1537873891, "locktime": 542996, "vsize": 1644, "size": 1726}