{"hash": "3e3ce45d1fc56bddbe780799d56deeef8c9e8ced4c831418504bf5f5bb66d019", "blockhash": "0000000000000000001cda96e906b7601b7a6fb1a3b62bca570a9e5d8f4b3de1", "vout": [{"scriptPubKey": {"reqSigs": 1, "hex": "a9147daf78a6e94ce9ba9b758b9128cb487dddac2ee187", "addresses": ["3D9abUuhzw6AhWkniHgpqmSfgi98MXPN3J"], "asm": "OP_HASH160 7daf78a6e94ce9ba9b758b9128cb487dddac2ee1 OP_EQUAL", "type": "scripthash"}, "value": 0.00484154, "n": 0}, {"scriptPubKey": {"reqSigs": 1, "hex": "76a9148d5788508571c6d60d38499aced46c8ea18aa5cc88ac", "addresses": ["1DtM8uri89Rz64PBHSAX5KV6tFN2xDoaya"], "asm": "OP_DUP OP_HASH160 8d5788508571c6d60d38499aced46c8ea18aa5cc OP_EQUALVERIFY OP_CHECKSIG", "type": "pubkeyhash"}, "value": 16.25638152, "n": 1}], "hex": "0200000001d6c1e2920a7e5aa14d2a7ce551aff1cf65dbb349503a3c8973207d691945dd94010000006b483045022100d3200addb7c64455e7912bd464766402c2cd7977001d46c0ab6192d94d98608c0220593fa2b5477a5af9b17a295a4cf2739a2677fc7dfc546f062fe54c403d4bf477012102d8605828bd2a2362a872e28ba7e6deca4a7b1fb901ca47d7d56259e87c867ed2ffffffff023a6307000000000017a9147daf78a6e94ce9ba9b758b9128cb487dddac2ee1870845e560000000001976a9148d5788508571c6d60d38499aced46c8ea18aa5cc88ac00000000", "vin": [{"sequence": 4294967295, "scriptSig": {"hex": "483045022100d3200addb7c64455e7912bd464766402c2cd7977001d46c0ab6192d94d98608c0220593fa2b5477a5af9b17a295a4cf2739a2677fc7dfc546f062fe54c403d4bf477012102d8605828bd2a2362a872e28ba7e6deca4a7b1fb901ca47d7d56259e87c867ed2", "asm": "3045022100d3200addb7c64455e7912bd464766402c2cd7977001d46c0ab6192d94d98608c0220593fa2b5477a5af9b17a295a4cf2739a2677fc7dfc546f062fe54c403d4bf477[ALL] 02d8605828bd2a2362a872e28ba7e6deca4a7b1fb901ca47d7d56259e87c867ed2"}, "vout": 1, "txid": "94dd4519697d2073893c3a5049b3db65cff1af51e57c2a4da15a7e0a92e2c1d6"}], "txid": "3e3ce45d1fc56bddbe780799d56deeef8c9e8ced4c831418504bf5f5bb66d019", "blocktime": 1537873282, "version": 2, "confirmations": 11484, "time": 1537873282, "locktime": 0, "vsize": 224, "size": 224}