{"hash": "d6528a773645c93953b1f70b8dabad14a1abd003d33e42e9871833242d11c8ff", "blockhash": "0000000000000000000dcc0f55137456b1a82d3642486a52398922ac4d620174", "vout": [{"scriptPubKey": {"reqSigs": 1, "hex": "a91411f89d87b83f08885e7a96fb0f999913493c74a587", "addresses": ["33L3EuHqpofYxr3yaJgqmhMcD2XKC6w8no"], "asm": "OP_HASH160 11f89d87b83f08885e7a96fb0f999913493c74a5 OP_EQUAL", "type": "scripthash"}, "value": 0.00998022, "n": 0}, {"scriptPubKey": {"reqSigs": 1, "hex": "76a9147f4be14b64e162c38f5d7763516f4fc5d6bb2cbc88ac", "addresses": ["1Cc5ibsY5QZfrnNjaaUcYKnbCcZdv8gaq7"], "asm": "OP_DUP OP_HASH160 7f4be14b64e162c38f5d7763516f4fc5d6bb2cbc OP_EQUALVERIFY OP_CHECKSIG", "type": "pubkeyhash"}, "value": 0.0063396, "n": 1}], "hex": "0200000000010168dd1ddbdff31bd28162dd8152168a0558a4e273b962f35f1e0557932410a22000000000171600146a260177a5d1a2d292c27df73f449c2e28e25352feffffff02863a0f000000000017a91411f89d87b83f08885e7a96fb0f999913493c74a58768ac0900000000001976a9147f4be14b64e162c38f5d7763516f4fc5d6bb2cbc88ac02473044022056f6c237729915f9214ba6a5820dc5e6197032a7813eee947f177c87dba3a8bb0220780cb2a5cfa2d5f461289656aee6ce98a50b31fd84cbf7b30c00c341734864310121026d9e0b3b917b6f9d2c6975c72995d7e3c17e0030858e0d7db9e050dab85d0ced0c490800", "vin": [{"txinwitness": ["3044022056f6c237729915f9214ba6a5820dc5e6197032a7813eee947f177c87dba3a8bb0220780cb2a5cfa2d5f461289656aee6ce98a50b31fd84cbf7b30c00c3417348643101", "026d9e0b3b917b6f9d2c6975c72995d7e3c17e0030858e0d7db9e050dab85d0ced"], "sequence": 4294967294, "scriptSig": {"hex": "1600146a260177a5d1a2d292c27df73f449c2e28e25352", "asm": "00146a260177a5d1a2d292c27df73f449c2e28e25352"}, "vout": 0, "txid": "20a210249357051e5ff362b973e2a458058a165281dd6281d21bf3dfdb1ddd68"}], "txid": "3e40675de834ea5b774ac2ef43a08494b965637e42424dfaba6c0106d3491916", "blocktime": 1537870268, "version": 2, "confirmations": 11516, "time": 1537870268, "locktime": 542988, "vsize": 168, "size": 249}