{"hash": "3e40e09fd986a798bc676c71d7f128187c96412fd2f3782c685cffab477f08a8", "blockhash": "0000000000000000001cda96e906b7601b7a6fb1a3b62bca570a9e5d8f4b3de1", "vout": [{"scriptPubKey": {"reqSigs": 1, "hex": "a914ead148ed1be2c70d9b56b1801111f70cc45ec01287", "addresses": ["3P6ckoLCbg178R6tJy3FSfrJhoerKExd6F"], "asm": "OP_HASH160 ead148ed1be2c70d9b56b1801111f70cc45ec012 OP_EQUAL", "type": "scripthash"}, "value": 0.00702603, "n": 0}, {"scriptPubKey": {"reqSigs": 1, "hex": "76a9147e32d56096bb32c161b93e899a4c3e272e21c02f88ac", "addresses": ["1CWH39P3pxov4YEQEhgXgDK1imVMdX32Wy"], "asm": "OP_DUP OP_HASH160 7e32d56096bb32c161b93e899a4c3e272e21c02f OP_EQUALVERIFY OP_CHECKSIG", "type": "pubkeyhash"}, "value": 0.06326074, "n": 1}], "hex": "01000000015346530f96cb4308a60092f0b56c62fc75ce57ba1664665f5057e9a359aa7fa7000000006b483045022100f211fcf6fdc1f4d5c94f738a49e01e55f4402540bd0c887efface3e42c08785702201c602e2d570bc5c23e112604eda9fe822f86073e7ab40caac2d6e7819a91aa5d01210236bffc52f7003fb74880c0ff49d94c5216ee177cf50eb4f1d98beff5b4f3bd8fffffffff028bb80a000000000017a914ead148ed1be2c70d9b56b1801111f70cc45ec012873a876000000000001976a9147e32d56096bb32c161b93e899a4c3e272e21c02f88ac00000000", "vin": [{"sequence": 4294967295, "scriptSig": {"hex": "483045022100f211fcf6fdc1f4d5c94f738a49e01e55f4402540bd0c887efface3e42c08785702201c602e2d570bc5c23e112604eda9fe822f86073e7ab40caac2d6e7819a91aa5d01210236bffc52f7003fb74880c0ff49d94c5216ee177cf50eb4f1d98beff5b4f3bd8f", "asm": "3045022100f211fcf6fdc1f4d5c94f738a49e01e55f4402540bd0c887efface3e42c08785702201c602e2d570bc5c23e112604eda9fe822f86073e7ab40caac2d6e7819a91aa5d[ALL] 0236bffc52f7003fb74880c0ff49d94c5216ee177cf50eb4f1d98beff5b4f3bd8f"}, "vout": 0, "txid": "a77faa59a3e957505f666416ba57ce75fc626cb5f09200a60843cb960f534653"}], "txid": "3e40e09fd986a798bc676c71d7f128187c96412fd2f3782c685cffab477f08a8", "blocktime": 1537873282, "version": 1, "confirmations": 11484, "time": 1537873282, "locktime": 0, "vsize": 224, "size": 224}