{"hash": "3e425af5130f7571f144812842c77567527261025bdc017e4187edc661d0e82a", "blockhash": "0000000000000000000baef3f32e3676a92c3b2e5da21b426e4f302fc371ce76", "vout": [{"scriptPubKey": {"reqSigs": 1, "hex": "76a914069680eab3e6ba74d341ff5ad65190854a6db4c988ac", "addresses": ["1bqMKk2nQ9nmwVxXTv8nEwYBZxJM4aTAg"], "asm": "OP_DUP OP_HASH160 069680eab3e6ba74d341ff5ad65190854a6db4c9 OP_EQUALVERIFY OP_CHECKSIG", "type": "pubkeyhash"}, "value": 0.00016546, "n": 0}, {"scriptPubKey": {"reqSigs": 1, "hex": "76a914a76388e546e566cda2c488ff76b3a5ae201aa31c88ac", "addresses": ["1GG55qDKHSMKh5PasvuyuDGdmyh5yRaFG4"], "asm": "OP_DUP OP_HASH160 a76388e546e566cda2c488ff76b3a5ae201aa31c OP_EQUALVERIFY OP_CHECKSIG", "type": "pubkeyhash"}, "value": 0.00501356, "n": 1}], "hex": "0100000002124603aebd38c4fb88087833cbd47880c4e9e9a018548a07477257602e111ae0000000006a47304402200298a7af9203cfbb078679351776d9d4c38e1b766186a567eae70be019d615a10220152eaee30c2fd93010eba331a7aa2ef40f1bfbcf1c59d8b03681ab6b69403040012103e8c861a34a4db16d73b90fd965b454e4a67a5e24eaafc0c3dd0f04dd96e98f4cffffffff3fdfbc215571597c8dd05fa8c71d341f64bcc9107fae24200ac2cad996e699fb000000006a473044022008e20660b6e95d3ed5be4df8fda9773db4cf9bdf40790babf4e324aec81e317b0220412b379bea2ced6f2ad64eb3535d1f0c0b777d3779f46b045cdfb0481d7ceae9012103e8c861a34a4db16d73b90fd965b454e4a67a5e24eaafc0c3dd0f04dd96e98f4cffffffff02a2400000000000001976a914069680eab3e6ba74d341ff5ad65190854a6db4c988ac6ca60700000000001976a914a76388e546e566cda2c488ff76b3a5ae201aa31c88ac00000000", "vin": [{"sequence": 4294967295, "scriptSig": {"hex": "47304402200298a7af9203cfbb078679351776d9d4c38e1b766186a567eae70be019d615a10220152eaee30c2fd93010eba331a7aa2ef40f1bfbcf1c59d8b03681ab6b69403040012103e8c861a34a4db16d73b90fd965b454e4a67a5e24eaafc0c3dd0f04dd96e98f4c", "asm": "304402200298a7af9203cfbb078679351776d9d4c38e1b766186a567eae70be019d615a10220152eaee30c2fd93010eba331a7aa2ef40f1bfbcf1c59d8b03681ab6b69403040[ALL] 03e8c861a34a4db16d73b90fd965b454e4a67a5e24eaafc0c3dd0f04dd96e98f4c"}, "vout": 0, "txid": "e01a112e60577247078a5418a0e9e9c48078d4cb33780888fbc438bdae034612"}, {"sequence": 4294967295, "scriptSig": {"hex": "473044022008e20660b6e95d3ed5be4df8fda9773db4cf9bdf40790babf4e324aec81e317b0220412b379bea2ced6f2ad64eb3535d1f0c0b777d3779f46b045cdfb0481d7ceae9012103e8c861a34a4db16d73b90fd965b454e4a67a5e24eaafc0c3dd0f04dd96e98f4c", "asm": "3044022008e20660b6e95d3ed5be4df8fda9773db4cf9bdf40790babf4e324aec81e317b0220412b379bea2ced6f2ad64eb3535d1f0c0b777d3779f46b045cdfb0481d7ceae9[ALL] 03e8c861a34a4db16d73b90fd965b454e4a67a5e24eaafc0c3dd0f04dd96e98f4c"}, "vout": 0, "txid": "fb99e696d9cac20a2024ae7f10c9bc641f341dc7a85fd08d7c59715521bcdf3f"}], "txid": "3e425af5130f7571f144812842c77567527261025bdc017e4187edc661d0e82a", "blocktime": 1537876114, "version": 1, "confirmations": 11460, "time": 1537876114, "locktime": 0, "vsize": 372, "size": 372}