{"hash": "3e4cbbc3845f5553a414ed8488e6db90fce23be0723bd4c8659e3bd7342ce929", "blockhash": "0000000000000000001f76057863aec43deb6fa401d9628bb513d65a8098bfab", "vout": [{"scriptPubKey": {"reqSigs": 1, "hex": "76a914e21a0302af57672daad37244007885c5dbbf0e6288ac", "addresses": ["1McWsgagFMdkqUrvTwoh9Bp5P8u784HM18"], "asm": "OP_DUP OP_HASH160 e21a0302af57672daad37244007885c5dbbf0e62 OP_EQUALVERIFY OP_CHECKSIG", "type": "pubkeyhash"}, "value": 0.00937185, "n": 0}, {"scriptPubKey": {"reqSigs": 1, "hex": "a91461c1cfa1e0aa964685ddeb72ca8935fc56aea0cc87", "addresses": ["3AbueNzu4wvFp6Ro1SS4nqY6xHDqLgotCJ"], "asm": "OP_HASH160 61c1cfa1e0aa964685ddeb72ca8935fc56aea0cc OP_EQUAL", "type": "scripthash"}, "value": 0.0001, "n": 1}], "hex": "02000000027503acac32f3cac67fc48146db782cb88376cef369810f7b3a3bfadc295885d1010000006a47304402201ffeceeecaa5bdfb1353d5cd3ee5049334a467cb941422e462fca1ccc47e8b0002203960551ad28c9e4476cb47aa7101e4d83b7f9c90a9fb822dbd78b7da8a55adb50121024c72e2dc0f104bdf770950e493a93894c75bbb5c335215cf4d2f20deb574f92efeffffff0d41ec6f456b0657640a5409779d3cd5753f6b96e50c98f786312be198235d88000000006a473044022009925d4adb573892e1f74d9cd765905e779a1d65b7d517ff014af2fc0b7249500220220805c78edc8c3865d86e6430e4cbc8d439aa1b72e55d42467ac64080dfc5e301210279e1080f642a60dba5033e98134fe145a6412118d5e26ea49fb4b4426b878543feffffff02e14c0e00000000001976a914e21a0302af57672daad37244007885c5dbbf0e6288ac102700000000000017a91461c1cfa1e0aa964685ddeb72ca8935fc56aea0cc8714490800", "vin": [{"sequence": 4294967294, "scriptSig": {"hex": "47304402201ffeceeecaa5bdfb1353d5cd3ee5049334a467cb941422e462fca1ccc47e8b0002203960551ad28c9e4476cb47aa7101e4d83b7f9c90a9fb822dbd78b7da8a55adb50121024c72e2dc0f104bdf770950e493a93894c75bbb5c335215cf4d2f20deb574f92e", "asm": "304402201ffeceeecaa5bdfb1353d5cd3ee5049334a467cb941422e462fca1ccc47e8b0002203960551ad28c9e4476cb47aa7101e4d83b7f9c90a9fb822dbd78b7da8a55adb5[ALL] 024c72e2dc0f104bdf770950e493a93894c75bbb5c335215cf4d2f20deb574f92e"}, "vout": 1, "txid": "d1855829dcfa3b3a7b0f8169f3ce7683b82c78db4681c47fc6caf332acac0375"}, {"sequence": 4294967294, "scriptSig": {"hex": "473044022009925d4adb573892e1f74d9cd765905e779a1d65b7d517ff014af2fc0b7249500220220805c78edc8c3865d86e6430e4cbc8d439aa1b72e55d42467ac64080dfc5e301210279e1080f642a60dba5033e98134fe145a6412118d5e26ea49fb4b4426b878543", "asm": "3044022009925d4adb573892e1f74d9cd765905e779a1d65b7d517ff014af2fc0b7249500220220805c78edc8c3865d86e6430e4cbc8d439aa1b72e55d42467ac64080dfc5e3[ALL] 0279e1080f642a60dba5033e98134fe145a6412118d5e26ea49fb4b4426b878543"}, "vout": 0, "txid": "885d2398e12b3186f7980ce5966b3f75d53c9d7709540a6457066b456fec410d"}], "txid": "3e4cbbc3845f5553a414ed8488e6db90fce23be0723bd4c8659e3bd7342ce929", "blocktime": 1537873891, "version": 2, "confirmations": 11474, "time": 1537873891, "locktime": 542996, "vsize": 370, "size": 370}