{"hash": "3e57a9f604c25065d46844c58d4055abe266022fc12e78ca803bcda30f116b44", "blockhash": "0000000000000000000dcc0f55137456b1a82d3642486a52398922ac4d620174", "vout": [{"scriptPubKey": {"reqSigs": 1, "hex": "a914abf50db63f14de3d0e22e05cd020d60f7138637b87", "addresses": ["3HNF2y2PitDCbMs6kSSoztV8AvcyeWCP2x"], "asm": "OP_HASH160 abf50db63f14de3d0e22e05cd020d60f7138637b OP_EQUAL", "type": "scripthash"}, "value": 0.0078, "n": 0}, {"scriptPubKey": {"reqSigs": 1, "hex": "76a914ea42aa75da1ddb5043260795ab17871c3b3127ea88ac", "addresses": ["1NMeyuz7fPgo6rWe5tDRQfrinc9JPRRGbK"], "asm": "OP_DUP OP_HASH160 ea42aa75da1ddb5043260795ab17871c3b3127ea OP_EQUALVERIFY OP_CHECKSIG", "type": "pubkeyhash"}, "value": 0.03271197, "n": 1}], "hex": "0100000001eeda8accd6e1dd1cf786fd27612994aae8fd0b068a1cef0822b10e795f1270f3000000006b4830450221008616e42ca3831880f37360cc0f8debde9735167b4476c4edb08db3a3a7ad114002201139cf9b79714854ca0dc74e27a3f3e03c184c7346ee3cbaf95d43881d24bd320121024508d98af91bafbf6ae4cd916956d857379413682bf6f04fa1f4c2c458e1c4a7ffffffff02e0e60b000000000017a914abf50db63f14de3d0e22e05cd020d60f7138637b871dea3100000000001976a914ea42aa75da1ddb5043260795ab17871c3b3127ea88ac00000000", "vin": [{"sequence": 4294967295, "scriptSig": {"hex": "4830450221008616e42ca3831880f37360cc0f8debde9735167b4476c4edb08db3a3a7ad114002201139cf9b79714854ca0dc74e27a3f3e03c184c7346ee3cbaf95d43881d24bd320121024508d98af91bafbf6ae4cd916956d857379413682bf6f04fa1f4c2c458e1c4a7", "asm": "30450221008616e42ca3831880f37360cc0f8debde9735167b4476c4edb08db3a3a7ad114002201139cf9b79714854ca0dc74e27a3f3e03c184c7346ee3cbaf95d43881d24bd32[ALL] 024508d98af91bafbf6ae4cd916956d857379413682bf6f04fa1f4c2c458e1c4a7"}, "vout": 0, "txid": "f370125f790eb12208ef1c8a060bfde8aa94296127fd86f71cdde1d6cc8adaee"}], "txid": "3e57a9f604c25065d46844c58d4055abe266022fc12e78ca803bcda30f116b44", "blocktime": 1537870268, "version": 1, "confirmations": 11518, "time": 1537870268, "locktime": 0, "vsize": 224, "size": 224}