{"hash": "3e5b143293e1849f4ab3684fce6165ecc8c3376d7fadc457e24ebf28419e57ae", "blockhash": "0000000000000000000e13cef7c366c0283d82e591d1acd082e914b08063cdf1", "vout": [{"scriptPubKey": {"reqSigs": 1, "hex": "a9147a3249e18ce17e3b374a0bba608ccb90444fc11687", "addresses": ["3Cq8c4SS8hke8n9g5kpnyn6FmxMbaX5oeQ"], "asm": "OP_HASH160 7a3249e18ce17e3b374a0bba608ccb90444fc116 OP_EQUAL", "type": "scripthash"}, "value": 0.00856015, "n": 0}, {"scriptPubKey": {"reqSigs": 1, "hex": "76a9141006234c4184e4567417e1fa99fa8f3829c0cbd388ac", "addresses": ["12TjAY8tPhhTAfSLZLei2smdGyyfW4Z67g"], "asm": "OP_DUP OP_HASH160 1006234c4184e4567417e1fa99fa8f3829c0cbd3 OP_EQUALVERIFY OP_CHECKSIG", "type": "pubkeyhash"}, "value": 0.07098624, "n": 1}], "hex": "0100000001455d8c88eda0692a62881855b8cb0796e7d22c94beaf4a2c5872b2a1de734588010000006a47304402200a88f1b77f9c2b1181c222816464b186b15f01bb9eec393c29bdd6bc5948dbb40220708d034d26f9d63b640a67878ec1459941ad968a7a2164b48130820f4bad1d14012103869763bf314d6eb832f3909ccfedbc36bfdc02abca9184ca5518675ae8643f91ffffffff02cf0f0d000000000017a9147a3249e18ce17e3b374a0bba608ccb90444fc1168700516c00000000001976a9141006234c4184e4567417e1fa99fa8f3829c0cbd388ac00000000", "vin": [{"sequence": 4294967295, "scriptSig": {"hex": "47304402200a88f1b77f9c2b1181c222816464b186b15f01bb9eec393c29bdd6bc5948dbb40220708d034d26f9d63b640a67878ec1459941ad968a7a2164b48130820f4bad1d14012103869763bf314d6eb832f3909ccfedbc36bfdc02abca9184ca5518675ae8643f91", "asm": "304402200a88f1b77f9c2b1181c222816464b186b15f01bb9eec393c29bdd6bc5948dbb40220708d034d26f9d63b640a67878ec1459941ad968a7a2164b48130820f4bad1d14[ALL] 03869763bf314d6eb832f3909ccfedbc36bfdc02abca9184ca5518675ae8643f91"}, "vout": 1, "txid": "884573dea1b272582c4aafbe942cd2e79607cbb8551888622a69a0ed888c5d45"}], "txid": "3e5b143293e1849f4ab3684fce6165ecc8c3376d7fadc457e24ebf28419e57ae", "blocktime": 1537871767, "version": 1, "confirmations": 11490, "time": 1537871767, "locktime": 0, "vsize": 223, "size": 223}