{"hash": "3e5ca313bfe9305fccdc735706928b917c2ffb0f8bb07a161b3add9aa773a5b3", "blockhash": "00000000000000000004ffacab907a6b429b9a5745fa0b75af4234bf69dd7176", "vout": [{"scriptPubKey": {"reqSigs": 1, "hex": "a91475b37350bd6a3f7f300f665195a96393a80c05cc87", "addresses": ["3CRMxRXyRQJPJfGQVajZYrmeaW6nFnPZi6"], "asm": "OP_HASH160 75b37350bd6a3f7f300f665195a96393a80c05cc OP_EQUAL", "type": "scripthash"}, "value": 0.03518325, "n": 0}, {"scriptPubKey": {"reqSigs": 1, "hex": "76a914136181de28a25626cef4f3c93456ce37fd2a562b88ac", "addresses": ["12mUea67UdMooe8doqK6BAjUuqGpPjw3V7"], "asm": "OP_DUP OP_HASH160 136181de28a25626cef4f3c93456ce37fd2a562b OP_EQUALVERIFY OP_CHECKSIG", "type": "pubkeyhash"}, "value": 0.13479867, "n": 1}], "hex": "0100000001d94422fa36a84b249cbbea7ad7c59e6514304273b9f942f9b7ac4539e54362e3010000006b483045022100e6c4e435bb649eb60904f62fb53e0992dfa6b4190ee89441dca50c07e9b483030220378665f504753bcfa345a5c88abcce7a35182f5e6b490c9ff3c165cc2a4b7e9801210220532799f75b50558cef101fb62e2c40fa0ba94284f29b8d519685bf10e9737effffffff0275af35000000000017a91475b37350bd6a3f7f300f665195a96393a80c05cc87bbafcd00000000001976a914136181de28a25626cef4f3c93456ce37fd2a562b88ac00000000", "vin": [{"sequence": 4294967295, "scriptSig": {"hex": "483045022100e6c4e435bb649eb60904f62fb53e0992dfa6b4190ee89441dca50c07e9b483030220378665f504753bcfa345a5c88abcce7a35182f5e6b490c9ff3c165cc2a4b7e9801210220532799f75b50558cef101fb62e2c40fa0ba94284f29b8d519685bf10e9737e", "asm": "3045022100e6c4e435bb649eb60904f62fb53e0992dfa6b4190ee89441dca50c07e9b483030220378665f504753bcfa345a5c88abcce7a35182f5e6b490c9ff3c165cc2a4b7e98[ALL] 0220532799f75b50558cef101fb62e2c40fa0ba94284f29b8d519685bf10e9737e"}, "vout": 1, "txid": "e36243e53945acb7f942f9b973423014659ec5d77aeabb9c244ba836fa2244d9"}], "txid": "3e5ca313bfe9305fccdc735706928b917c2ffb0f8bb07a161b3add9aa773a5b3", "blocktime": 1537875543, "version": 1, "confirmations": 11464, "time": 1537875543, "locktime": 0, "vsize": 224, "size": 224}