{"hash": "3e6154c486ca8a01d47cd3517544f313cce61222599822384f930e80b931d6e2", "blockhash": "000000000000000000022b45ed06c6f4ccd3cf7fb5ba4856ebd2e58215665228", "vout": [{"scriptPubKey": {"reqSigs": 1, "hex": "76a914f423dfee34e4833104508103d89e316b4a49314088ac", "addresses": ["1PFtrRjbq4aLfM7k4tyLZ3ZAuTsgLr6Q8Q"], "asm": "OP_DUP OP_HASH160 f423dfee34e4833104508103d89e316b4a493140 OP_EQUALVERIFY OP_CHECKSIG", "type": "pubkeyhash"}, "value": 0.00180161, "n": 0}, {"scriptPubKey": {"reqSigs": 1, "hex": "a914e97c99a5ca9be8267cc79bd4b94a7bebbca0a3c587", "addresses": ["3NyadcWBjYovnGE6AqqXAFGDkQjVPqjUfi"], "asm": "OP_HASH160 e97c99a5ca9be8267cc79bd4b94a7bebbca0a3c5 OP_EQUAL", "type": "scripthash"}, "value": 5.46e-06, "n": 1}, {"scriptPubKey": {"type": "nulldata", "hex": "6a146f6d6e69000000000000001f0000001de92b9880", "asm": "OP_RETURN 6f6d6e69000000000000001f0000001de92b9880"}, "value": 0.0, "n": 2}], "hex": "01000000018e285cd4625ac34b3a9177c582f26d08b048021c05f7a30b108bc0e9b7e81c68000000006b4830450221008aeae622f5813b9a25ec525704b28592cc0b386813b458d3a29691a21c71d65602202dd850134e045fca4f9aab6a37514d3e2c085ea81ee1023a28e457b6fe447b420121039a403b4eeaf8f7a9c5cc655cf2d17310fcd606a75b1392f7892f6b514a67d23cffffffff03c1bf0200000000001976a914f423dfee34e4833104508103d89e316b4a49314088ac220200000000000017a914e97c99a5ca9be8267cc79bd4b94a7bebbca0a3c5870000000000000000166a146f6d6e69000000000000001f0000001de92b988000000000", "vin": [{"sequence": 4294967295, "scriptSig": {"hex": "4830450221008aeae622f5813b9a25ec525704b28592cc0b386813b458d3a29691a21c71d65602202dd850134e045fca4f9aab6a37514d3e2c085ea81ee1023a28e457b6fe447b420121039a403b4eeaf8f7a9c5cc655cf2d17310fcd606a75b1392f7892f6b514a67d23c", "asm": "30450221008aeae622f5813b9a25ec525704b28592cc0b386813b458d3a29691a21c71d65602202dd850134e045fca4f9aab6a37514d3e2c085ea81ee1023a28e457b6fe447b42[ALL] 039a403b4eeaf8f7a9c5cc655cf2d17310fcd606a75b1392f7892f6b514a67d23c"}, "vout": 0, "txid": "681ce8b7e9c08b100ba3f7051c0248b0086df282c577913a4bc35a62d45c288e"}], "txid": "3e6154c486ca8a01d47cd3517544f313cce61222599822384f930e80b931d6e2", "blocktime": 1537869901, "version": 1, "confirmations": 11522, "time": 1537869901, "locktime": 0, "vsize": 255, "size": 255}