{"hash": "3e62c4cb35605f18ece8c700e48feed863a5ef71654d4c051ee924f9dd32cc4b", "blockhash": "00000000000000000004ffacab907a6b429b9a5745fa0b75af4234bf69dd7176", "vout": [{"scriptPubKey": {"reqSigs": 1, "hex": "76a9145cf251bca52a7655ce57a3d9e94b5a89b7e93b9e88ac", "addresses": ["19UTTHg3e69jQYtCE1Vo4vpNvQiQwY7UrU"], "asm": "OP_DUP OP_HASH160 5cf251bca52a7655ce57a3d9e94b5a89b7e93b9e OP_EQUALVERIFY OP_CHECKSIG", "type": "pubkeyhash"}, "value": 0.00917104, "n": 0}], "hex": "01000000017577777f7b9f9ec804ab1ca2d150002f25261b2852338da89a8def65cf6a5704000000006b483045022100fc9b97350a93e2084903f6af57c0a9200c57b27157a11541ba0c0de150c206e502206c9a81697d5cea623048c2104759786d4a826d46634b468a6c0dd317002f25c3012103f5257484459badc4b4613d7028fced60b72211e30433691b4c812153878bcd08ffffffff0170fe0d00000000001976a9145cf251bca52a7655ce57a3d9e94b5a89b7e93b9e88ac00000000", "vin": [{"sequence": 4294967295, "scriptSig": {"hex": "483045022100fc9b97350a93e2084903f6af57c0a9200c57b27157a11541ba0c0de150c206e502206c9a81697d5cea623048c2104759786d4a826d46634b468a6c0dd317002f25c3012103f5257484459badc4b4613d7028fced60b72211e30433691b4c812153878bcd08", "asm": "3045022100fc9b97350a93e2084903f6af57c0a9200c57b27157a11541ba0c0de150c206e502206c9a81697d5cea623048c2104759786d4a826d46634b468a6c0dd317002f25c3[ALL] 03f5257484459badc4b4613d7028fced60b72211e30433691b4c812153878bcd08"}, "vout": 0, "txid": "04576acf65ef8d9aa88d3352281b26252f0050d1a21cab04c89e9f7b7f777775"}], "txid": "3e62c4cb35605f18ece8c700e48feed863a5ef71654d4c051ee924f9dd32cc4b", "blocktime": 1537875543, "version": 1, "confirmations": 11464, "time": 1537875543, "locktime": 0, "vsize": 192, "size": 192}