{"hash": "3e63851af9e2329f263f3abe9867ee71d277e99dbbc6c580d41c3db6d6686213", "blockhash": "00000000000000000004ffacab907a6b429b9a5745fa0b75af4234bf69dd7176", "vout": [{"scriptPubKey": {"reqSigs": 1, "hex": "76a914d243e6abb9a60fbff430b421d2df4b7d59ec186088ac", "addresses": ["1LAnF8h3qMGx3TSwNUHVneBZUEpwE4gu3D"], "asm": "OP_DUP OP_HASH160 d243e6abb9a60fbff430b421d2df4b7d59ec1860 OP_EQUALVERIFY OP_CHECKSIG", "type": "pubkeyhash"}, "value": 0.00077314, "n": 0}, {"scriptPubKey": {"reqSigs": 1, "hex": "76a914a85913ac88cf5971c507a5cccc1603a0a5cb127288ac", "addresses": ["1GM9EPwy863bfE5PpkG6Z9oBDMaX7wwSTQ"], "asm": "OP_DUP OP_HASH160 a85913ac88cf5971c507a5cccc1603a0a5cb1272 OP_EQUALVERIFY OP_CHECKSIG", "type": "pubkeyhash"}, "value": 5.46e-06, "n": 1}, {"scriptPubKey": {"type": "nulldata", "hex": "6a146f6d6e69000000000000001f0000006848eb9f00", "asm": "OP_RETURN 6f6d6e69000000000000001f0000006848eb9f00"}, "value": 0.0, "n": 2}], "hex": "010000000123a4dcc5117926070140e6766541f48f65ab8f29bd18dd5571141678feaf60e9000000006b483045022100c997f43550be28895af05f0126889bde9fceb6b1f42bd189b1bc0e9ac7c9a72402206b3fdfce6f823f48a1b8e2dc9ccd0d544bcd0e6f363965c0bbc93303911f33e001210271977291b74f1f5f5c42157e8aae804664eaaeccfd097918450d37f28fb94d77ffffffff03022e0100000000001976a914d243e6abb9a60fbff430b421d2df4b7d59ec186088ac22020000000000001976a914a85913ac88cf5971c507a5cccc1603a0a5cb127288ac0000000000000000166a146f6d6e69000000000000001f0000006848eb9f0000000000", "vin": [{"sequence": 4294967295, "scriptSig": {"hex": "483045022100c997f43550be28895af05f0126889bde9fceb6b1f42bd189b1bc0e9ac7c9a72402206b3fdfce6f823f48a1b8e2dc9ccd0d544bcd0e6f363965c0bbc93303911f33e001210271977291b74f1f5f5c42157e8aae804664eaaeccfd097918450d37f28fb94d77", "asm": "3045022100c997f43550be28895af05f0126889bde9fceb6b1f42bd189b1bc0e9ac7c9a72402206b3fdfce6f823f48a1b8e2dc9ccd0d544bcd0e6f363965c0bbc93303911f33e0[ALL] 0271977291b74f1f5f5c42157e8aae804664eaaeccfd097918450d37f28fb94d77"}, "vout": 0, "txid": "e960affe7816147155dd18bd298fab658ff4416576e6400107267911c5dca423"}], "txid": "3e63851af9e2329f263f3abe9867ee71d277e99dbbc6c580d41c3db6d6686213", "blocktime": 1537875543, "version": 1, "confirmations": 11464, "time": 1537875543, "locktime": 0, "vsize": 257, "size": 257}