{"hash": "3a7e34c15faca1d36ebb995938eb3458f3161caa4272b09a29302b576dde5e87", "blockhash": "0000000000000000000e13cef7c366c0283d82e591d1acd082e914b08063cdf1", "vout": [{"scriptPubKey": {"reqSigs": 1, "hex": "a914c787abd4bb3c593c977b89acc63854fd8bffa93c87", "addresses": ["3Kt2vKUGuehxuDjvgDjW7PDAFnxQiBxJra"], "asm": "OP_HASH160 c787abd4bb3c593c977b89acc63854fd8bffa93c OP_EQUAL", "type": "scripthash"}, "value": 0.03958292, "n": 0}, {"scriptPubKey": {"reqSigs": 1, "hex": "a9141921223faa41ed717dab776c0cecc6334bd7819d87", "addresses": ["33ytWWqL4sYwEff1WLvjp9KzsEQZ4YZLWr"], "asm": "OP_HASH160 1921223faa41ed717dab776c0cecc6334bd7819d OP_EQUAL", "type": "scripthash"}, "value": 12.65751588, "n": 1}], "hex": "02000000000101b83d7df4aa9ee38898c721fe2815ee34fd7518938695f2b21af1ad2b05736b5300000000171600141f40d30363def48bb264d58bdbc7798de452e5e7feffffff0214663c000000000017a914c787abd4bb3c593c977b89acc63854fd8bffa93c8724d6714b0000000017a9141921223faa41ed717dab776c0cecc6334bd7819d870247304402200245d85cf31f7cc4fff2f98a113de012e390e9418061de8a640839f4e4a6d868022046e3977a8c8a6bb32682fb9b1b47dabe286d5b820581687a1154d2cd361eb45e0121037c22968e2b3dc36969906eb7f17ace165aed912524c591d6bd1e668be9a153e310490800", "vin": [{"txinwitness": ["304402200245d85cf31f7cc4fff2f98a113de012e390e9418061de8a640839f4e4a6d868022046e3977a8c8a6bb32682fb9b1b47dabe286d5b820581687a1154d2cd361eb45e01", "037c22968e2b3dc36969906eb7f17ace165aed912524c591d6bd1e668be9a153e3"], "sequence": 4294967294, "scriptSig": {"hex": "1600141f40d30363def48bb264d58bdbc7798de452e5e7", "asm": "00141f40d30363def48bb264d58bdbc7798de452e5e7"}, "vout": 0, "txid": "536b73052badf11ab2f29586931875fd34ee1528fe21c79888e39eaaf47d3db8"}], "txid": "3e6567af80fa2d44accf2d8660e4f4e3f0bbcc827fd33e6b78d76514d9f55657", "blocktime": 1537871767, "version": 2, "confirmations": 11490, "time": 1537871767, "locktime": 542992, "vsize": 166, "size": 247}