{"hash": "3e65ee75b8f80bd6288fb92d4627f0024ed863b0f8d09dfdc45232c8a5173c4b", "blockhash": "0000000000000000001e0dab787dd257d1dbfcb92a98c2207d5e1078be1f4165", "vout": [{"scriptPubKey": {"reqSigs": 1, "hex": "76a9143a542716c12ac498e60ccf4e2b376e810cad136c88ac", "addresses": ["16KR1A9HwmyLLegqDGZb9EaM6VjqWMMG3s"], "asm": "OP_DUP OP_HASH160 3a542716c12ac498e60ccf4e2b376e810cad136c OP_EQUALVERIFY OP_CHECKSIG", "type": "pubkeyhash"}, "value": 0.00499322, "n": 0}, {"scriptPubKey": {"reqSigs": 1, "hex": "76a9146846bc59d9887926847e6f1bb0d45e30eac9ddfd88ac", "addresses": ["1AWN1kriVCndYitnXkBtNqBvRbm8LK7wqq"], "asm": "OP_DUP OP_HASH160 6846bc59d9887926847e6f1bb0d45e30eac9ddfd OP_EQUALVERIFY OP_CHECKSIG", "type": "pubkeyhash"}, "value": 0.315, "n": 1}], "hex": "0100000001727430b31c6637e7744b8c0343abf787209a1bf89311974bc37d9c03cd6f366f440000006a473044022075197c1fcbb1eead79e68e25f759d27f6c0017ec51b8bb2d51346db98e181bf4022016346a15d9373c2ef68d38f4b104c8689966890a7b18341190334d27b5067b3b012103fbc824871dbf707264314b26e2016559a8d33787c02a777cc4391eeb5a67659cffffffff027a9e0700000000001976a9143a542716c12ac498e60ccf4e2b376e810cad136c88ace0a6e001000000001976a9146846bc59d9887926847e6f1bb0d45e30eac9ddfd88ac00000000", "vin": [{"sequence": 4294967295, "scriptSig": {"hex": "473044022075197c1fcbb1eead79e68e25f759d27f6c0017ec51b8bb2d51346db98e181bf4022016346a15d9373c2ef68d38f4b104c8689966890a7b18341190334d27b5067b3b012103fbc824871dbf707264314b26e2016559a8d33787c02a777cc4391eeb5a67659c", "asm": "3044022075197c1fcbb1eead79e68e25f759d27f6c0017ec51b8bb2d51346db98e181bf4022016346a15d9373c2ef68d38f4b104c8689966890a7b18341190334d27b5067b3b[ALL] 03fbc824871dbf707264314b26e2016559a8d33787c02a777cc4391eeb5a67659c"}, "vout": 68, "txid": "6f366fcd039c7dc34b971193f81b9a2087f7ab43038c4b74e737661cb3307472"}], "txid": "3e65ee75b8f80bd6288fb92d4627f0024ed863b0f8d09dfdc45232c8a5173c4b", "blocktime": 1537872475, "version": 1, "confirmations": 11487, "time": 1537872475, "locktime": 0, "vsize": 225, "size": 225}