{"hash": "2e1e616ed07471177bb451f974ed0bef8ce43b45a7706b1fb4b407058e267546", "blockhash": "00000000000000000017f5eb5941039fbcee6240d03bc1f2f8e35350df66a1d8", "vout": [{"scriptPubKey": {"reqSigs": 1, "hex": "76a9149e8e444bfe99dd5d9115d4edc0eddd708c18d8e388ac", "addresses": ["1FTNCBN85a7EDbeZSg1CWLiC61KjhEqKZR"], "asm": "OP_DUP OP_HASH160 9e8e444bfe99dd5d9115d4edc0eddd708c18d8e3 OP_EQUALVERIFY OP_CHECKSIG", "type": "pubkeyhash"}, "value": 0.00434851, "n": 0}, {"scriptPubKey": {"reqSigs": 1, "hex": "a91451c59798654d7ef412ca60b8456b8b41457f379487", "addresses": ["399PN2VnCCD547eAM6igg9Qx669pKuFHGW"], "asm": "OP_HASH160 51c59798654d7ef412ca60b8456b8b41457f3794 OP_EQUAL", "type": "scripthash"}, "value": 0.0100023, "n": 1}], "hex": "0200000000010416f32cfb5cdedf5a821a3e8b694bb59b8ecba55dc165255bb41d08d6fd78f172000000001716001492803d6e9c96382a93e8116db2bf55a1117ebaa6fdffffff30a5b70e9379460c604f5c55cc7a2f916eb818b2efd359182c705d7523ed0aa6000000001716001427f5a2807f11c976f51395fd521b9d9dc24a00c6fdffffffb615a12dba17df43a7090b12535057231228eaf56ed0f55e1493e74033db09e600000000171600145a6a2ea0ce4f65d29f666216f9ac3704bb4cb53afdffffffb94772a45fbfbf212467c57b2b9e2ff642e0894df1d4a8752c216074f3be3a460100000017160014d277b71cc13f9ec3acc8bfa6e326072215fc3fc1fdffffff02a3a20600000000001976a9149e8e444bfe99dd5d9115d4edc0eddd708c18d8e388ac26430f000000000017a91451c59798654d7ef412ca60b8456b8b41457f37948702483045022100c3f75bfc682f16ab96c694aa2ce1d7042f11a80fae3b8af6c378620e7ea7e0c702201251bff5154017769ff40225ec1eccbe5baa1fa5ee5fd86c438ab1cf9bae9da201210290b5c0b69e40af5af170057b7c382c70873372b04f8c6665863e5606be2990970248304502210083e7b7468fb074dbeda7d24202b8387744aedc824cd4c3db2aa321d4c8eba7f7022051769dc568117658c9c2a260843d2855b2b629326af00f2588f4c9251e77f8930121030e0a31580a07bc71442e98884e82e21c0137826ca80a2ba2c5f1c4b2588e3f9e02473044022071ed3eff34939113a0f79517487b7ce8014e236dd454d9a4dce4614c8e000abb022073316542fa39159b39185f631659883446237daea5d01fb77a6d36a33cf4fd03012102751193335d90af1299ead07f0bc8d34c5cdfe3a8e508d9f2d326f67fe60ee7fc024830450221009b7363b5bf9416da0a1dbe54bb49ed75b15646322bdfcec977bbe7a5c7ffa1e1022040c7e41ac9e8d11fdc56ad6fd75d632923ddca5b42259995dcbf391299398350012103c40bd28a7c0471549aa9a976a08acfe7b5396a88026a4f9bc1f1388f118f952b15490800", "vin": [{"txinwitness": ["3045022100c3f75bfc682f16ab96c694aa2ce1d7042f11a80fae3b8af6c378620e7ea7e0c702201251bff5154017769ff40225ec1eccbe5baa1fa5ee5fd86c438ab1cf9bae9da201", "0290b5c0b69e40af5af170057b7c382c70873372b04f8c6665863e5606be299097"], "sequence": 4294967293, "scriptSig": {"hex": "16001492803d6e9c96382a93e8116db2bf55a1117ebaa6", "asm": "001492803d6e9c96382a93e8116db2bf55a1117ebaa6"}, "vout": 0, "txid": "72f178fdd6081db45b2565c15da5cb8e9bb54b698b3e1a825adfde5cfb2cf316"}, {"txinwitness": ["304502210083e7b7468fb074dbeda7d24202b8387744aedc824cd4c3db2aa321d4c8eba7f7022051769dc568117658c9c2a260843d2855b2b629326af00f2588f4c9251e77f89301", "030e0a31580a07bc71442e98884e82e21c0137826ca80a2ba2c5f1c4b2588e3f9e"], "sequence": 4294967293, "scriptSig": {"hex": "16001427f5a2807f11c976f51395fd521b9d9dc24a00c6", "asm": "001427f5a2807f11c976f51395fd521b9d9dc24a00c6"}, "vout": 0, "txid": "a60aed23755d702c1859d3efb218b86e912f7acc555c4f600c4679930eb7a530"}, {"txinwitness": ["3044022071ed3eff34939113a0f79517487b7ce8014e236dd454d9a4dce4614c8e000abb022073316542fa39159b39185f631659883446237daea5d01fb77a6d36a33cf4fd0301", "02751193335d90af1299ead07f0bc8d34c5cdfe3a8e508d9f2d326f67fe60ee7fc"], "sequence": 4294967293, "scriptSig": {"hex": "1600145a6a2ea0ce4f65d29f666216f9ac3704bb4cb53a", "asm": "00145a6a2ea0ce4f65d29f666216f9ac3704bb4cb53a"}, "vout": 0, "txid": "e609db3340e793145ef5d06ef5ea281223575053120b09a743df17ba2da115b6"}, {"txinwitness": ["30450221009b7363b5bf9416da0a1dbe54bb49ed75b15646322bdfcec977bbe7a5c7ffa1e1022040c7e41ac9e8d11fdc56ad6fd75d632923ddca5b42259995dcbf39129939835001", "03c40bd28a7c0471549aa9a976a08acfe7b5396a88026a4f9bc1f1388f118f952b"], "sequence": 4294967293, "scriptSig": {"hex": "160014d277b71cc13f9ec3acc8bfa6e326072215fc3fc1", "asm": "0014d277b71cc13f9ec3acc8bfa6e326072215fc3fc1"}, "vout": 1, "txid": "463abef37460212c75a8d4f14d89e042f62f9e2b7bc5672421bfbf5fa47247b9"}], "txid": "3e6e528ab29b5f457ba72cf8ba68ac24552a7d40f19543f6fee635e6c93ebb2d", "blocktime": 1537874412, "version": 2, "confirmations": 11468, "time": 1537874412, "locktime": 542997, "vsize": 441, "size": 765}