{"hash": "9c8c8b4a0600dcc52a1d691fa021f8aedd898468365e6a3e08f7e346365cb0d0", "blockhash": "00000000000000000018f53835495a110e01622372bf6ae95dc86f2b0ab887b0", "vout": [{"scriptPubKey": {"reqSigs": 1, "hex": "a9149fe5c6ea1a04c2349dcf7be34f4ff3e06a523e8987", "addresses": ["3GGUdENNM5B78QsSpb1U8SwGXtb6wbAm3w"], "asm": "OP_HASH160 9fe5c6ea1a04c2349dcf7be34f4ff3e06a523e89 OP_EQUAL", "type": "scripthash"}, "value": 0.02131817, "n": 0}, {"scriptPubKey": {"reqSigs": 1, "hex": "a914c0db4b5751b76fef728752d8687a447dffbbe4d187", "addresses": ["3KGkND9tpQhWSXdwsE2JueAF6vRNhz2iNP"], "asm": "OP_HASH160 c0db4b5751b76fef728752d8687a447dffbbe4d1 OP_EQUAL", "type": "scripthash"}, "value": 0.74942004, "n": 1}], "hex": "01000000000101b2a947ac6d10f4748cdbc9b5a1b4c2ed8334b9c93b329637b4404d877259c63101000000232200209e1b44ca0a86cd52b4ff5de4dfd4b4a2fa210028485bd1db62020e32d2cc7969ffffffff02698720000000000017a9149fe5c6ea1a04c2349dcf7be34f4ff3e06a523e8987348677040000000017a914c0db4b5751b76fef728752d8687a447dffbbe4d1870400473044022060a171b689c492aba0d283606bb27e12c6cd2f3c726f78f3cb907cfe1aa9d9fa022015e8ca255b33546c38ee8fae6ba2de5b487af95dc4497fdda9fd8c78ba25ef6f0147304402206c3fd469effc0116148192f45909603a76172cd8406e1ad99d92be0c09710e1b02200d06b9b416439f5fd1296207093f149bb07dff81d179fffe27fd989252498f3401475221026014a6bee2e74cf4622fd4e89ca3cbb673183c1856a81e9670172c348288446f21038f2c7ecee34c843be9d886e50ce79e5dc40a1694c0417d60b35340f292ff73fc52ae00000000", "vin": [{"txinwitness": ["", "3044022060a171b689c492aba0d283606bb27e12c6cd2f3c726f78f3cb907cfe1aa9d9fa022015e8ca255b33546c38ee8fae6ba2de5b487af95dc4497fdda9fd8c78ba25ef6f01", "304402206c3fd469effc0116148192f45909603a76172cd8406e1ad99d92be0c09710e1b02200d06b9b416439f5fd1296207093f149bb07dff81d179fffe27fd989252498f3401", "5221026014a6bee2e74cf4622fd4e89ca3cbb673183c1856a81e9670172c348288446f21038f2c7ecee34c843be9d886e50ce79e5dc40a1694c0417d60b35340f292ff73fc52ae"], "sequence": 4294967295, "scriptSig": {"hex": "2200209e1b44ca0a86cd52b4ff5de4dfd4b4a2fa210028485bd1db62020e32d2cc7969", "asm": "00209e1b44ca0a86cd52b4ff5de4dfd4b4a2fa210028485bd1db62020e32d2cc7969"}, "vout": 1, "txid": "31c65972874d40b43796323bc9b93483edc2b4a1b5c9db8c74f4106dac47a9b2"}], "txid": "3e75565d27887b1cd4e99f796b829ca3c189d6d0b94e114c6189c1dc6e921b4c", "blocktime": 1537870928, "version": 1, "confirmations": 11514, "time": 1537870928, "locktime": 0, "vsize": 205, "size": 370}