{"hash": "3e76c43f78057f4d92416ad49347752bb55a1e4e1fba179dc468ab832b4ecb5b", "blockhash": "0000000000000000001e0dab787dd257d1dbfcb92a98c2207d5e1078be1f4165", "vout": [{"scriptPubKey": {"reqSigs": 1, "hex": "76a914e8cea30989bd15530f819b766684b00dc7ba7cfa88ac", "addresses": ["1NDyJtNTjmwk5xPNhjgAMu4HDHigtobu1s"], "asm": "OP_DUP OP_HASH160 e8cea30989bd15530f819b766684b00dc7ba7cfa OP_EQUALVERIFY OP_CHECKSIG", "type": "pubkeyhash"}, "value": 5.8632646, "n": 0}, {"scriptPubKey": {"reqSigs": 1, "hex": "76a914ac5ae5a2f95b5e6f6f16c7462068e31227db0f8088ac", "addresses": ["1GiL7dZYx73YHm4Qz7dJV4qMj3rptGt2te"], "asm": "OP_DUP OP_HASH160 ac5ae5a2f95b5e6f6f16c7462068e31227db0f80 OP_EQUALVERIFY OP_CHECKSIG", "type": "pubkeyhash"}, "value": 0.01778468, "n": 1}], "hex": "02000000033c99c6a31424c08016b366ea74fe7ff836109e296d68a76cf92c9e001d1f031c010000006b483045022100dcb9e2ed67aa54d30a529c412e0d811847ae4d07d1e899b650cbdf4525ba2f42022005fd97795e9210a6faf8d13de82aa159a026f8ad2d08963f7c522cd090a5fc0b0121039b0311db071ff75c78d1bcecb2cd250c268b415ee981ad548890ddcbf5feaaddfeffffff5ffbcb3fa5eab027b00d6e4e8729dbe29044309da97145c84344a0080d97cbbe010000006b483045022100af89913d0ef91a07f39781a5a215a13671efc4a74c888ae36f288dcbd0ed18f30220439ed7009ac4a6a49286775209b7da6483f4356f3c33ec93164ad4b8ff7381e60121028d3063a5605ade001a94bed325c3dbb1e477f0e4166c0bc9cd4bdb4d58659597feffffff8ced96d589d6cf7a737f197b9d6405904072aab47dbcd5d293e33151e8b79f29020000006b483045022100a6c54406a664813570f9de40e049b3bda1bca854f141ac5868f9e97613eccd25022031e3a5e278326d33ccf25f3b35b900f171e66480bf7215d521799f4d6f76c302012102f100a65200006f2b0c0443e0157fd320fd6bd64abf0796c5965266b6a4c88458feffffff02bca1f222000000001976a914e8cea30989bd15530f819b766684b00dc7ba7cfa88ac24231b00000000001976a914ac5ae5a2f95b5e6f6f16c7462068e31227db0f8088ac12490800", "vin": [{"sequence": 4294967294, "scriptSig": {"hex": "483045022100dcb9e2ed67aa54d30a529c412e0d811847ae4d07d1e899b650cbdf4525ba2f42022005fd97795e9210a6faf8d13de82aa159a026f8ad2d08963f7c522cd090a5fc0b0121039b0311db071ff75c78d1bcecb2cd250c268b415ee981ad548890ddcbf5feaadd", "asm": "3045022100dcb9e2ed67aa54d30a529c412e0d811847ae4d07d1e899b650cbdf4525ba2f42022005fd97795e9210a6faf8d13de82aa159a026f8ad2d08963f7c522cd090a5fc0b[ALL] 039b0311db071ff75c78d1bcecb2cd250c268b415ee981ad548890ddcbf5feaadd"}, "vout": 1, "txid": "1c031f1d009e2cf96ca7686d299e1036f87ffe74ea66b31680c02414a3c6993c"}, {"sequence": 4294967294, "scriptSig": {"hex": "483045022100af89913d0ef91a07f39781a5a215a13671efc4a74c888ae36f288dcbd0ed18f30220439ed7009ac4a6a49286775209b7da6483f4356f3c33ec93164ad4b8ff7381e60121028d3063a5605ade001a94bed325c3dbb1e477f0e4166c0bc9cd4bdb4d58659597", "asm": "3045022100af89913d0ef91a07f39781a5a215a13671efc4a74c888ae36f288dcbd0ed18f30220439ed7009ac4a6a49286775209b7da6483f4356f3c33ec93164ad4b8ff7381e6[ALL] 028d3063a5605ade001a94bed325c3dbb1e477f0e4166c0bc9cd4bdb4d58659597"}, "vout": 1, "txid": "becb970d08a04443c84571a99d304490e2db29874e6e0db027b0eaa53fcbfb5f"}, {"sequence": 4294967294, "scriptSig": {"hex": "483045022100a6c54406a664813570f9de40e049b3bda1bca854f141ac5868f9e97613eccd25022031e3a5e278326d33ccf25f3b35b900f171e66480bf7215d521799f4d6f76c302012102f100a65200006f2b0c0443e0157fd320fd6bd64abf0796c5965266b6a4c88458", "asm": "3045022100a6c54406a664813570f9de40e049b3bda1bca854f141ac5868f9e97613eccd25022031e3a5e278326d33ccf25f3b35b900f171e66480bf7215d521799f4d6f76c302[ALL] 02f100a65200006f2b0c0443e0157fd320fd6bd64abf0796c5965266b6a4c88458"}, "vout": 2, "txid": "299fb7e85131e393d2d5bc7db4aa72409005649d7b197f737acfd689d596ed8c"}], "txid": "3e76c43f78057f4d92416ad49347752bb55a1e4e1fba179dc468ab832b4ecb5b", "blocktime": 1537872475, "version": 2, "confirmations": 11486, "time": 1537872475, "locktime": 542994, "vsize": 522, "size": 522}