{"hash": "3e7cca712997cb2c1da5e0beb9e07b6b4203d49684484e56785df13ce58e28b2", "blockhash": "00000000000000000024a2167bbff67b0be802c0b01cdd79e6331c2be6459f87", "vout": [{"scriptPubKey": {"reqSigs": 1, "hex": "a91466f57739d11d59e6d4d2c6377d6c723903de4c0d87", "addresses": ["3B5QuNJXVVRbZiBT4mhcdS3D5T3AowgzL3"], "asm": "OP_HASH160 66f57739d11d59e6d4d2c6377d6c723903de4c0d OP_EQUAL", "type": "scripthash"}, "value": 0.00281298, "n": 0}], "hex": "0100000001c43db4a6996606df7788530628ddee44fdee5fe485d13f8143f3321e1b8fcd7b010000006b483045022100ccfd4e118e70cf241a3cefb5c96574bb9d17cd04a4e0ad9867c4c49466b43e7202206eca924a7b32bdbf8b3e99b687029fe4caf39c6703c959f025324956df9c9dd801210392cfe999acc195fa991a56fa6485721f4ce16942fddebf461742ea2ed75c0d4dffffffff01d24a04000000000017a91466f57739d11d59e6d4d2c6377d6c723903de4c0d8700000000", "vin": [{"sequence": 4294967295, "scriptSig": {"hex": "483045022100ccfd4e118e70cf241a3cefb5c96574bb9d17cd04a4e0ad9867c4c49466b43e7202206eca924a7b32bdbf8b3e99b687029fe4caf39c6703c959f025324956df9c9dd801210392cfe999acc195fa991a56fa6485721f4ce16942fddebf461742ea2ed75c0d4d", "asm": "3045022100ccfd4e118e70cf241a3cefb5c96574bb9d17cd04a4e0ad9867c4c49466b43e7202206eca924a7b32bdbf8b3e99b687029fe4caf39c6703c959f025324956df9c9dd8[ALL] 0392cfe999acc195fa991a56fa6485721f4ce16942fddebf461742ea2ed75c0d4d"}, "vout": 1, "txid": "7bcd8f1b1e32f343813fd185e45feefd44eedd2806538877df066699a6b43dc4"}], "txid": "3e7cca712997cb2c1da5e0beb9e07b6b4203d49684484e56785df13ce58e28b2", "blocktime": 1537870564, "version": 1, "confirmations": 11515, "time": 1537870564, "locktime": 0, "vsize": 190, "size": 190}