{"hash": "3e87c94661d7d6f293e0bd8003a3ac11c94feef866e108024b7b69af45ab1b3b", "blockhash": "00000000000000000017f5eb5941039fbcee6240d03bc1f2f8e35350df66a1d8", "vout": [{"scriptPubKey": {"reqSigs": 1, "hex": "a91466033ab54363eab47a2c5f1b8ad3828d159160ea87", "addresses": ["3AzQiVGJc5NeFkix1ybwfj7q4i1dK5sv1R"], "asm": "OP_HASH160 66033ab54363eab47a2c5f1b8ad3828d159160ea OP_EQUAL", "type": "scripthash"}, "value": 0.01561918, "n": 0}, {"scriptPubKey": {"reqSigs": 1, "hex": "76a91494d405a8eaad188eb26686103243450879bd331b88ac", "addresses": ["1EZvzwpuuFMpBbxwoe8yibEdxKtTZZKhxW"], "asm": "OP_DUP OP_HASH160 94d405a8eaad188eb26686103243450879bd331b OP_EQUALVERIFY OP_CHECKSIG", "type": "pubkeyhash"}, "value": 0.00903329, "n": 1}], "hex": "01000000020f6b07bd628d7c1069a77440de4445145985784691b226b1b88385d4236faff4000000006a47304402205f81904e6c5ffb056a74da343509e11329076926c2bc26379171e0b74328c9fe0220298d4fad7c9b3fb94b581e834abd2cc06e6d8d0352b7ef4a4dfaffb6db75ed5b0121022c3b8dc8b716bed8c14ed289b625fe75d3990ea4653bf8098acaa3d734c2e4d2ffffffff9769df820523786a341fddece920bb63f979ef36494fdf40a36960e8c861995d100000006b483045022100b8e612e85967e6d3baa36d3fcfe55c93da51321dfffde06692e13380a7952114022060d21c7d190b5408f3b66d3a5aea394c0c1941ef24cb0d8a71412241af71e2730121035e547f1c397e08d5c633709ec5316ebd694830a50e0e615e473de0378630a071ffffffff023ed517000000000017a91466033ab54363eab47a2c5f1b8ad3828d159160ea87a1c80d00000000001976a91494d405a8eaad188eb26686103243450879bd331b88ac00000000", "vin": [{"sequence": 4294967295, "scriptSig": {"hex": "47304402205f81904e6c5ffb056a74da343509e11329076926c2bc26379171e0b74328c9fe0220298d4fad7c9b3fb94b581e834abd2cc06e6d8d0352b7ef4a4dfaffb6db75ed5b0121022c3b8dc8b716bed8c14ed289b625fe75d3990ea4653bf8098acaa3d734c2e4d2", "asm": "304402205f81904e6c5ffb056a74da343509e11329076926c2bc26379171e0b74328c9fe0220298d4fad7c9b3fb94b581e834abd2cc06e6d8d0352b7ef4a4dfaffb6db75ed5b[ALL] 022c3b8dc8b716bed8c14ed289b625fe75d3990ea4653bf8098acaa3d734c2e4d2"}, "vout": 0, "txid": "f4af6f23d48583b8b126b29146788559144544de4074a769107c8d62bd076b0f"}, {"sequence": 4294967295, "scriptSig": {"hex": "483045022100b8e612e85967e6d3baa36d3fcfe55c93da51321dfffde06692e13380a7952114022060d21c7d190b5408f3b66d3a5aea394c0c1941ef24cb0d8a71412241af71e2730121035e547f1c397e08d5c633709ec5316ebd694830a50e0e615e473de0378630a071", "asm": "3045022100b8e612e85967e6d3baa36d3fcfe55c93da51321dfffde06692e13380a7952114022060d21c7d190b5408f3b66d3a5aea394c0c1941ef24cb0d8a71412241af71e273[ALL] 035e547f1c397e08d5c633709ec5316ebd694830a50e0e615e473de0378630a071"}, "vout": 16, "txid": "5d9961c8e86069a340df4f4936ef79f963bb20e9ecdd1f346a78230582df6997"}], "txid": "3e87c94661d7d6f293e0bd8003a3ac11c94feef866e108024b7b69af45ab1b3b", "blocktime": 1537874412, "version": 1, "confirmations": 11467, "time": 1537874412, "locktime": 0, "vsize": 371, "size": 371}