{"hash": "3e8a873fe3f7b098397576637eb952b730eafc531946b954d5284b4db1cfb6e3", "blockhash": "0000000000000000001f76057863aec43deb6fa401d9628bb513d65a8098bfab", "vout": [{"scriptPubKey": {"reqSigs": 1, "hex": "a91461cfe3728bcf53f392b7a27923a7f9c7612e5e0687", "addresses": ["3AcCWVg51tXo78Fa6hKwmFmuiNV4FspVGi"], "asm": "OP_HASH160 61cfe3728bcf53f392b7a27923a7f9c7612e5e06 OP_EQUAL", "type": "scripthash"}, "value": 0.00015604, "n": 0}, {"scriptPubKey": {"reqSigs": 1, "hex": "76a914a87c8c0d4663a918de783089a12524ca786d868188ac", "addresses": ["1GMsiunopL5sZuTMaPbCjfwXdJEvC62KSG"], "asm": "OP_DUP OP_HASH160 a87c8c0d4663a918de783089a12524ca786d8681 OP_EQUALVERIFY OP_CHECKSIG", "type": "pubkeyhash"}, "value": 0.10041559, "n": 1}], "hex": "01000000018a5001fce916b138a3ebbf26a74e9c4bb2a992cd47e0f51cdad0de56dc1de6a1010000006b4830450221008895f744b50eac4d467011fec3098d68e02401c66cbb1fbccb4508079b66afcc02204df85a5272cda06e426337d4a5253a956522c956d85dc54b45ac0a2d78706e110121028a529b882ca97682e7f83cc2e44a1f6deb15c78dea47747c1d1b17aece1e91a8ffffffff02f43c00000000000017a91461cfe3728bcf53f392b7a27923a7f9c7612e5e0687d7389900000000001976a914a87c8c0d4663a918de783089a12524ca786d868188ac00000000", "vin": [{"sequence": 4294967295, "scriptSig": {"hex": "4830450221008895f744b50eac4d467011fec3098d68e02401c66cbb1fbccb4508079b66afcc02204df85a5272cda06e426337d4a5253a956522c956d85dc54b45ac0a2d78706e110121028a529b882ca97682e7f83cc2e44a1f6deb15c78dea47747c1d1b17aece1e91a8", "asm": "30450221008895f744b50eac4d467011fec3098d68e02401c66cbb1fbccb4508079b66afcc02204df85a5272cda06e426337d4a5253a956522c956d85dc54b45ac0a2d78706e11[ALL] 028a529b882ca97682e7f83cc2e44a1f6deb15c78dea47747c1d1b17aece1e91a8"}, "vout": 1, "txid": "a1e61ddc56ded0da1cf5e047cd92a9b24b9c4ea726bfeba338b116e9fc01508a"}], "txid": "3e8a873fe3f7b098397576637eb952b730eafc531946b954d5284b4db1cfb6e3", "blocktime": 1537873891, "version": 1, "confirmations": 11474, "time": 1537873891, "locktime": 0, "vsize": 224, "size": 224}