{"hash": "0e61a2dc7daffe653cc5b34ea7e3bed2564a65b6a4e15c3371b724d1faa1ea93", "blockhash": "00000000000000000018f53835495a110e01622372bf6ae95dc86f2b0ab887b0", "vout": [{"scriptPubKey": {"reqSigs": 1, "hex": "a91430897cc6c9d69f6a2c2f1c651d51f22219f1a4f687", "addresses": ["367f4YWz1VCFaqBqwbTrzwi2b1h2U3w1AF"], "asm": "OP_HASH160 30897cc6c9d69f6a2c2f1c651d51f22219f1a4f6 OP_EQUAL", "type": "scripthash"}, "value": 0.00912267, "n": 0}, {"scriptPubKey": {"reqSigs": 1, "hex": "a91469f376f86ed3993341ab0fa0574c8deff7bfdad987", "addresses": ["3BMEXuqejNNaZaddmtAwYjA5S45jeMmYa2"], "asm": "OP_HASH160 69f376f86ed3993341ab0fa0574c8deff7bfdad9 OP_EQUAL", "type": "scripthash"}, "value": 0.02961667, "n": 1}], "hex": "010000000001016172fe32b9ee165e58c4031907d0a45bc2bc516bd8bfaf1948091a9036dd32650000000023220020bcf9f822194145acea0f3235f4107b5bf1a91b6b9f8489f63bf79ec29b360913ffffffff028beb0d000000000017a91430897cc6c9d69f6a2c2f1c651d51f22219f1a4f68703312d000000000017a91469f376f86ed3993341ab0fa0574c8deff7bfdad987040047304402206408ef49ee68dc5a79e62c9372e84989f7e3ac9eb39ef1c4c88da8ef68a4aec50220548ae0ec77f87d49c8f34f5a3b6a9be636aa3fe106f174aa75e994ba5744d54a014830450221009ec5a1b97ca9ff330254d3988f44472465e0420a2f3cf6e6bbd102180cc97ba8022021873b172d03adda7a10c0f54b9410f3a9d5b885a7c0ab4cc083ffac62f4cff801695221026c8f72b9e63db63907115e65d4da86eaae595b22fdc85ec75301bb4adbf203582103806535be3e3920e5eedee92de5714188fd6a784f2bf7b04f87de0b9c3ae1ecdb21024b23bfdce2afcae7e28c42f7f79aa100f22931712c52d7414a526ba494d44a2553ae00000000", "vin": [{"txinwitness": ["", "304402206408ef49ee68dc5a79e62c9372e84989f7e3ac9eb39ef1c4c88da8ef68a4aec50220548ae0ec77f87d49c8f34f5a3b6a9be636aa3fe106f174aa75e994ba5744d54a01", "30450221009ec5a1b97ca9ff330254d3988f44472465e0420a2f3cf6e6bbd102180cc97ba8022021873b172d03adda7a10c0f54b9410f3a9d5b885a7c0ab4cc083ffac62f4cff801", "5221026c8f72b9e63db63907115e65d4da86eaae595b22fdc85ec75301bb4adbf203582103806535be3e3920e5eedee92de5714188fd6a784f2bf7b04f87de0b9c3ae1ecdb21024b23bfdce2afcae7e28c42f7f79aa100f22931712c52d7414a526ba494d44a2553ae"], "sequence": 4294967295, "scriptSig": {"hex": "220020bcf9f822194145acea0f3235f4107b5bf1a91b6b9f8489f63bf79ec29b360913", "asm": "0020bcf9f822194145acea0f3235f4107b5bf1a91b6b9f8489f63bf79ec29b360913"}, "vout": 0, "txid": "6532dd36901a094819afbfd86b51bcc25ba4d0071903c4585e16eeb932fe7261"}], "txid": "3e9409a0fbf07eff2b49acd58c9b9c890d3c51756b4813f77659bc809329bcb8", "blocktime": 1537870928, "version": 1, "confirmations": 11512, "time": 1537870928, "locktime": 0, "vsize": 214, "size": 405}