{"hash": "06f0e23256242efaa6072328132379e655aeb78204acaa63ff94b1600823095f", "blockhash": "0000000000000000001cda96e906b7601b7a6fb1a3b62bca570a9e5d8f4b3de1", "vout": [{"scriptPubKey": {"reqSigs": 1, "hex": "a914f859cf6e4ae02491f7e5b9581f69dfbc3f63c7ea87", "addresses": ["3QLB6FAqC8jskx4YqfHjtRPBs2AQRwqQ7r"], "asm": "OP_HASH160 f859cf6e4ae02491f7e5b9581f69dfbc3f63c7ea OP_EQUAL", "type": "scripthash"}, "value": 0.00046385, "n": 0}, {"scriptPubKey": {"reqSigs": 1, "hex": "001409c85fea34872628d14bfa704e8b5b5524b65d07", "addresses": ["bc1qp8y9l635sunz352tlfcyaz6m25jtvhg8n4xyvw"], "asm": "0 09c85fea34872628d14bfa704e8b5b5524b65d07", "type": "witness_v0_keyhash"}, "value": 1.329e-05, "n": 1}], "hex": "0100000000010183a6c29a4f7d9e5a09d089b076c5c7c444f4413927574b2d0dc9db3a44867b3b0000000000ffffffff0231b500000000000017a914f859cf6e4ae02491f7e5b9581f69dfbc3f63c7ea87310500000000000016001409c85fea34872628d14bfa704e8b5b5524b65d0702483045022100f596a69b7d3fc290f12cc261eafb4710d2681fc0720bb483ddab41a7a273116d022063bdf564084d984c1c8bb328cdccff6a92c0643fe6c721bd22aaab1107488a2201210238b225930299716b320c8c063a1f2c8d1c2f1c118f6f97b6e7a3d9a6ec3ea90900000000", "vin": [{"txinwitness": ["3045022100f596a69b7d3fc290f12cc261eafb4710d2681fc0720bb483ddab41a7a273116d022063bdf564084d984c1c8bb328cdccff6a92c0643fe6c721bd22aaab1107488a2201", "0238b225930299716b320c8c063a1f2c8d1c2f1c118f6f97b6e7a3d9a6ec3ea909"], "sequence": 4294967295, "scriptSig": {"hex": "", "asm": ""}, "vout": 0, "txid": "3b7b86443adbc90d2d4b57273941f444c4c7c576b089d0095a9e7d4f9ac2a683"}], "txid": "3ea7c99b955e2f3ba6f09f0a3f4f01918c0dc9b697a52b14470d67e06dfe567f", "blocktime": 1537873282, "version": 1, "confirmations": 11484, "time": 1537873282, "locktime": 0, "vsize": 142, "size": 224}