{"hash": "9b4f02b38a29240236b20b24470cd2b42ae8a524bf06eed45fe6c00fbc238776", "blockhash": "0000000000000000001cda96e906b7601b7a6fb1a3b62bca570a9e5d8f4b3de1", "vout": [{"scriptPubKey": {"reqSigs": 1, "hex": "76a9142ae000bbb87b53f6f053725be58475b803d071f888ac", "addresses": ["14uhj3pzp1WpELcWuu8FFdocZBy5Wnrip6"], "asm": "OP_DUP OP_HASH160 2ae000bbb87b53f6f053725be58475b803d071f8 OP_EQUALVERIFY OP_CHECKSIG", "type": "pubkeyhash"}, "value": 0.007305, "n": 0}, {"scriptPubKey": {"reqSigs": 1, "hex": "a914e4711ce2e3576880ea52fe9d929441c4ce0495d587", "addresses": ["3NWuVVtBDF7PZHBcPAq9Y6v61YV3Hfswgy"], "asm": "OP_HASH160 e4711ce2e3576880ea52fe9d929441c4ce0495d5 OP_EQUAL", "type": "scripthash"}, "value": 0.88297568, "n": 1}], "hex": "0100000000010143065e3476f4c68f3c02340bebaab2e6662dc83a9644137c496e28b11319c0440100000023220020e8dae95cf3b3cdd2e701728c2734e350e9461e02df803e924d81b6a98fa3d938ffffffff0284250b00000000001976a9142ae000bbb87b53f6f053725be58475b803d071f888ac605043050000000017a914e4711ce2e3576880ea52fe9d929441c4ce0495d5870400483045022100ddf4a6fbd6aaf64dce71278f756ae2d5e857d6f7a66005e9cf9b1745e96dd77c02207c3e9f7ff405fee2f040486f7621036c9a7e481595a3117956076ba6661aa0490147304402205c701a2758b6bf776c85ef0dae134f75a1e53d36060c0cabd7c5b96aea4a44ee02206cd29282f77f0bdec1f002556a16ec792ba2a769ac0e04fea1fa2086d7aa5a900147522103df5fb5c0fb2d31dcbdd5273aceb3bd6184ee0e95339cf50c776065a18c68a6e42102323233173db696435aec5b35a509b03c6f719b7a38acef262648cf9518535adb52ae00000000", "vin": [{"txinwitness": ["", "3045022100ddf4a6fbd6aaf64dce71278f756ae2d5e857d6f7a66005e9cf9b1745e96dd77c02207c3e9f7ff405fee2f040486f7621036c9a7e481595a3117956076ba6661aa04901", "304402205c701a2758b6bf776c85ef0dae134f75a1e53d36060c0cabd7c5b96aea4a44ee02206cd29282f77f0bdec1f002556a16ec792ba2a769ac0e04fea1fa2086d7aa5a9001", "522103df5fb5c0fb2d31dcbdd5273aceb3bd6184ee0e95339cf50c776065a18c68a6e42102323233173db696435aec5b35a509b03c6f719b7a38acef262648cf9518535adb52ae"], "sequence": 4294967295, "scriptSig": {"hex": "220020e8dae95cf3b3cdd2e701728c2734e350e9461e02df803e924d81b6a98fa3d938", "asm": "0020e8dae95cf3b3cdd2e701728c2734e350e9461e02df803e924d81b6a98fa3d938"}, "vout": 1, "txid": "44c01913b1286e497c1344963ac82d66e6b2aaeb0b34023c8fc6f476345e0643"}], "txid": "3eaf57f94570b1e1341a6365c7f6c93dcb19054143147005ef5040c067df998a", "blocktime": 1537873282, "version": 1, "confirmations": 11485, "time": 1537873282, "locktime": 0, "vsize": 208, "size": 373}