{"hash": "3ec06975778a4d918c82093fa0bf0af864cb407dd4b133bedfe7942fbe57c9a0", "blockhash": "0000000000000000001cda96e906b7601b7a6fb1a3b62bca570a9e5d8f4b3de1", "vout": [{"scriptPubKey": {"reqSigs": 1, "hex": "a9144bdce6897f38b367859ce2b7bd728beddc638c3087", "addresses": ["38c9ENNeYA1o34dpdCevdeim7Zu1ESMrLw"], "asm": "OP_HASH160 4bdce6897f38b367859ce2b7bd728beddc638c30 OP_EQUAL", "type": "scripthash"}, "value": 0.0238438, "n": 0}, {"scriptPubKey": {"reqSigs": 1, "hex": "76a9148531de153a7191acbd6011149adb3ebb91430d2f88ac", "addresses": ["1D9GcNPvLDaaEu4rXakNAEQC6Sz2kcS32d"], "asm": "OP_DUP OP_HASH160 8531de153a7191acbd6011149adb3ebb91430d2f OP_EQUALVERIFY OP_CHECKSIG", "type": "pubkeyhash"}, "value": 8.675e-05, "n": 1}], "hex": "0100000003cb00a45870695a3a0ec2f64ac170ffdc8d8a804517690499ff9de44af6004b0f01000000db00483045022100c97ad1ec412d8355ef19742ce2fec0e5c792bdbe22319090bd60789e8ebfe483022019afc274b6974739d0a640d24c96dcb089e2c75c4b4dd7081a99e412cefa291101483045022100e55497ab2815a0888b9d74231209a704754a11b3360d24de92a2e0eaf31bfec00220094b96113ca197c06223d6c43b0bdd5407cd1bbd96e72f24dea2231793391d1d0147522102907a54bed8ad74b3f35638c60114ca240a308cb986f3f2f306178869a8880b612102eb349752527415220df632ed20b9bfc6a9300d3f23823f3b71ed3dcb941e926452aeffffffff49115a74a3ed9bd13716479cca23200fa049293f6169a2e5d6b606d605e5c45d00000000d90047304402206b72fafba5bd05336d44fdd4dd4e1cc67949e6fe68d224ea1fd786f07589989a02202ac27dd37ec8c0f4e77e6a4f03ec3606efa8f32ceefed86c0f6f36ab64c5486601473044022001197018075ee4c81d4eb310170bcd134e0a8502950f44c5e8354a035e7557a202202acb8de080c5cd883dcfca2cc80f9d1fead7ee9b8db961e0a4f52679a434e2300147522102513872066a278e86650486dd17c17a047e2a4485c72e2a59981f6f895e8fe5f02102907a54bed8ad74b3f35638c60114ca240a308cb986f3f2f306178869a8880b6152aeffffffff2d69002f292f2826d5d3df426dfc3c3a01d8535956c6b17fbfc6795a702c5188010000006a47304402202004e58ebae89a79eb1d6d069aa578d79a8c4346d7099a4910543b4cf01c09110220286f59311414deccb9cf8e55d336079615b0d4d67becde276744123b43b72da3012102063e7cf17b70255ae8fa33d9798d534f0ea1f4233102cfbbc3dbea43b85800b7ffffffff02fc6124000000000017a9144bdce6897f38b367859ce2b7bd728beddc638c3087e3210000000000001976a9148531de153a7191acbd6011149adb3ebb91430d2f88ac00000000", "vin": [{"sequence": 4294967295, "scriptSig": {"hex": "00483045022100c97ad1ec412d8355ef19742ce2fec0e5c792bdbe22319090bd60789e8ebfe483022019afc274b6974739d0a640d24c96dcb089e2c75c4b4dd7081a99e412cefa291101483045022100e55497ab2815a0888b9d74231209a704754a11b3360d24de92a2e0eaf31bfec00220094b96113ca197c06223d6c43b0bdd5407cd1bbd96e72f24dea2231793391d1d0147522102907a54bed8ad74b3f35638c60114ca240a308cb986f3f2f306178869a8880b612102eb349752527415220df632ed20b9bfc6a9300d3f23823f3b71ed3dcb941e926452ae", "asm": "0 3045022100c97ad1ec412d8355ef19742ce2fec0e5c792bdbe22319090bd60789e8ebfe483022019afc274b6974739d0a640d24c96dcb089e2c75c4b4dd7081a99e412cefa2911[ALL] 3045022100e55497ab2815a0888b9d74231209a704754a11b3360d24de92a2e0eaf31bfec00220094b96113ca197c06223d6c43b0bdd5407cd1bbd96e72f24dea2231793391d1d[ALL] 522102907a54bed8ad74b3f35638c60114ca240a308cb986f3f2f306178869a8880b612102eb349752527415220df632ed20b9bfc6a9300d3f23823f3b71ed3dcb941e926452ae"}, "vout": 1, "txid": "0f4b00f64ae49dff9904691745808a8ddcff70c14af6c20e3a5a697058a400cb"}, {"sequence": 4294967295, "scriptSig": {"hex": "0047304402206b72fafba5bd05336d44fdd4dd4e1cc67949e6fe68d224ea1fd786f07589989a02202ac27dd37ec8c0f4e77e6a4f03ec3606efa8f32ceefed86c0f6f36ab64c5486601473044022001197018075ee4c81d4eb310170bcd134e0a8502950f44c5e8354a035e7557a202202acb8de080c5cd883dcfca2cc80f9d1fead7ee9b8db961e0a4f52679a434e2300147522102513872066a278e86650486dd17c17a047e2a4485c72e2a59981f6f895e8fe5f02102907a54bed8ad74b3f35638c60114ca240a308cb986f3f2f306178869a8880b6152ae", "asm": "0 304402206b72fafba5bd05336d44fdd4dd4e1cc67949e6fe68d224ea1fd786f07589989a02202ac27dd37ec8c0f4e77e6a4f03ec3606efa8f32ceefed86c0f6f36ab64c54866[ALL] 3044022001197018075ee4c81d4eb310170bcd134e0a8502950f44c5e8354a035e7557a202202acb8de080c5cd883dcfca2cc80f9d1fead7ee9b8db961e0a4f52679a434e230[ALL] 522102513872066a278e86650486dd17c17a047e2a4485c72e2a59981f6f895e8fe5f02102907a54bed8ad74b3f35638c60114ca240a308cb986f3f2f306178869a8880b6152ae"}, "vout": 0, "txid": "5dc4e505d606b6d6e5a269613f2949a00f2023ca9c471637d19beda3745a1149"}, {"sequence": 4294967295, "scriptSig": {"hex": "47304402202004e58ebae89a79eb1d6d069aa578d79a8c4346d7099a4910543b4cf01c09110220286f59311414deccb9cf8e55d336079615b0d4d67becde276744123b43b72da3012102063e7cf17b70255ae8fa33d9798d534f0ea1f4233102cfbbc3dbea43b85800b7", "asm": "304402202004e58ebae89a79eb1d6d069aa578d79a8c4346d7099a4910543b4cf01c09110220286f59311414deccb9cf8e55d336079615b0d4d67becde276744123b43b72da3[ALL] 02063e7cf17b70255ae8fa33d9798d534f0ea1f4233102cfbbc3dbea43b85800b7"}, "vout": 1, "txid": "88512c705a79c6bf7fb1c6565953d8013a3cfc6d42dfd3d526282f292f00692d"}], "txid": "3ec06975778a4d918c82093fa0bf0af864cb407dd4b133bedfe7942fbe57c9a0", "blocktime": 1537873282, "version": 1, "confirmations": 11484, "time": 1537873282, "locktime": 0, "vsize": 741, "size": 741}