{"hash": "78e706437b73b7010a2705b1071aeed2a11f7aa248e557fb59399824e88e2ffd", "blockhash": "0000000000000000000baef3f32e3676a92c3b2e5da21b426e4f302fc371ce76", "vout": [{"scriptPubKey": {"reqSigs": 1, "hex": "76a9140f86108d68ae34c07c6dfd591c60311fc56df14b88ac", "addresses": ["12R5jrV6DvQ46ojUCxKSDWZhjoYwb2ohns"], "asm": "OP_DUP OP_HASH160 0f86108d68ae34c07c6dfd591c60311fc56df14b OP_EQUALVERIFY OP_CHECKSIG", "type": "pubkeyhash"}, "value": 0.0011, "n": 0}, {"scriptPubKey": {"reqSigs": 1, "hex": "a9149649ad6d2730bb28020a268d9d80df10a9f74ad487", "addresses": ["3FPfYWwfMfKMGY7fuPHvz2b73RhTNGzsm3"], "asm": "OP_HASH160 9649ad6d2730bb28020a268d9d80df10a9f74ad4 OP_EQUAL", "type": "scripthash"}, "value": 13.73797394, "n": 1}], "hex": "01000000000101fdb5811362709d3243e96c1c78e532155241feb47e2fac1aa01a7086f1cfbb3c01000000232200207768efcc1e5eb3d28410fac3f45831004c860cc24cddd940a616b34324823fceffffffff02b0ad0100000000001976a9140f86108d68ae34c07c6dfd591c60311fc56df14b88ac127ce2510000000017a9149649ad6d2730bb28020a268d9d80df10a9f74ad487040047304402202f146b67f4f9bc5787fb1f5dd05e3402a7a950557220a31e42efcc75d8f62ea90220435aaef5eb1dda498c907a978a1fafbf91eb6aa8356037094d0ac0b4cf4024d7014730440220551aaba0488463ffc5a73600be4cb45c67d6da1d4f5d4338b4f384cc78dffcc8022032bb7fa2ea0d0f4e6368e414328a61044c5226790e790887f17587447edcf89f0147522102529d5d1f6733ab45d9d50e07db42c7f6b967ae321c38b726c2247f149959b8262103d0c936a5988dd8421c63240496b723b0ec42400c38b9350e32c2eb4f47d8796952ae00000000", "vin": [{"txinwitness": ["", "304402202f146b67f4f9bc5787fb1f5dd05e3402a7a950557220a31e42efcc75d8f62ea90220435aaef5eb1dda498c907a978a1fafbf91eb6aa8356037094d0ac0b4cf4024d701", "30440220551aaba0488463ffc5a73600be4cb45c67d6da1d4f5d4338b4f384cc78dffcc8022032bb7fa2ea0d0f4e6368e414328a61044c5226790e790887f17587447edcf89f01", "522102529d5d1f6733ab45d9d50e07db42c7f6b967ae321c38b726c2247f149959b8262103d0c936a5988dd8421c63240496b723b0ec42400c38b9350e32c2eb4f47d8796952ae"], "sequence": 4294967295, "scriptSig": {"hex": "2200207768efcc1e5eb3d28410fac3f45831004c860cc24cddd940a616b34324823fce", "asm": "00207768efcc1e5eb3d28410fac3f45831004c860cc24cddd940a616b34324823fce"}, "vout": 1, "txid": "3cbbcff186701aa01aac2f7eb4fe41521532e5781c6ce943329d70621381b5fd"}], "txid": "3ec7c121b743cd7316c9deed187a60ea97f19a44f34853f88121eee76d27570e", "blocktime": 1537876114, "version": 1, "confirmations": 11462, "time": 1537876114, "locktime": 0, "vsize": 207, "size": 372}