{"hash": "3ed33c2b1bf7dda53147fe3a0d1d486caf3b2c5cdbfa81e4a46e424ac14d3e5e", "blockhash": "0000000000000000000e13cef7c366c0283d82e591d1acd082e914b08063cdf1", "vout": [{"scriptPubKey": {"reqSigs": 1, "hex": "76a914fbee14e024fe6d27e301f8dc8f197d080b03354688ac", "addresses": ["1Py5pM2FJkVG8MuBGPdrUwotdeVPbiwLUh"], "asm": "OP_DUP OP_HASH160 fbee14e024fe6d27e301f8dc8f197d080b033546 OP_EQUALVERIFY OP_CHECKSIG", "type": "pubkeyhash"}, "value": 0.00234312, "n": 0}, {"scriptPubKey": {"reqSigs": 1, "hex": "76a9147ac89b8d1ffc282da1f6a88369ca50f8293e70e888ac", "addresses": ["1CCDksBijmS7798rLzbsDBwi1ruWeRPDeV"], "asm": "OP_DUP OP_HASH160 7ac89b8d1ffc282da1f6a88369ca50f8293e70e8 OP_EQUALVERIFY OP_CHECKSIG", "type": "pubkeyhash"}, "value": 0.00479228, "n": 1}], "hex": "0100000001274491e2dc3bed8f89a2b668a1cb61258c1873f544b0ab17471926bbb4d9a04c010000006a47304402200e0cf9d7d506dec5e8921bcb15015580ca205a4c28ada332c7efbc84caf77a7702202b1940318cfbf0908561cc54bdfbeea7095e1b4c187e8c5ef3806dd77aa2662b012103e81ea070a7a3b75c288e72ba91a6ac1eae13f5d6d478e94fcf6a9fbcb4291c5affffffff0248930300000000001976a914fbee14e024fe6d27e301f8dc8f197d080b03354688acfc4f0700000000001976a9147ac89b8d1ffc282da1f6a88369ca50f8293e70e888ac00000000", "vin": [{"sequence": 4294967295, "scriptSig": {"hex": "47304402200e0cf9d7d506dec5e8921bcb15015580ca205a4c28ada332c7efbc84caf77a7702202b1940318cfbf0908561cc54bdfbeea7095e1b4c187e8c5ef3806dd77aa2662b012103e81ea070a7a3b75c288e72ba91a6ac1eae13f5d6d478e94fcf6a9fbcb4291c5a", "asm": "304402200e0cf9d7d506dec5e8921bcb15015580ca205a4c28ada332c7efbc84caf77a7702202b1940318cfbf0908561cc54bdfbeea7095e1b4c187e8c5ef3806dd77aa2662b[ALL] 03e81ea070a7a3b75c288e72ba91a6ac1eae13f5d6d478e94fcf6a9fbcb4291c5a"}, "vout": 1, "txid": "4ca0d9b4bb26194717abb044f573188c2561cba168b6a2898fed3bdce2914427"}], "txid": "3ed33c2b1bf7dda53147fe3a0d1d486caf3b2c5cdbfa81e4a46e424ac14d3e5e", "blocktime": 1537871767, "version": 1, "confirmations": 11493, "time": 1537871767, "locktime": 0, "vsize": 225, "size": 225}