{"hash": "db4f1012d2ee8772f10e1b6312f78c1bc10c23ec34f4e703d74afdb8a3ae2191", "blockhash": "000000000000000000022b45ed06c6f4ccd3cf7fb5ba4856ebd2e58215665228", "vout": [{"scriptPubKey": {"reqSigs": 1, "hex": "a91427eb03693dbc7576c1f9feb6744234507532264587", "addresses": ["35L5p37PtzrzFGweRSvVx5zAj6nJPppkYp"], "asm": "OP_HASH160 27eb03693dbc7576c1f9feb67442345075322645 OP_EQUAL", "type": "scripthash"}, "value": 0.01144589, "n": 0}, {"scriptPubKey": {"reqSigs": 1, "hex": "76a9140949addcba2d8b7a811cb96ff5abb3089639259d88ac", "addresses": ["1r7M3XNzpiGm7t4T7QHM1QYZ8ewGxJRfL"], "asm": "OP_DUP OP_HASH160 0949addcba2d8b7a811cb96ff5abb3089639259d OP_EQUALVERIFY OP_CHECKSIG", "type": "pubkeyhash"}, "value": 0.00101688, "n": 1}], "hex": "0200000000010228fff50c830393f1e9d0a6b3400acbd0529ce2f0958e9e124008d3c77d70c48e0100000017160014ed54c433b1a98b4c4d1e8832b0aef77fc6200fdcfeffffff4674b3dc7a562dd3dcdc147ff1c0c3d594c624f7599f03eea2fe14a10d7dd43101000000171600145340fa18ae256517629d79ba3a1c7119e90e47b6feffffff020d7711000000000017a91427eb03693dbc7576c1f9feb6744234507532264587388d0100000000001976a9140949addcba2d8b7a811cb96ff5abb3089639259d88ac02483045022100b0fbcdabd07ed6fa2ec555c9f2c5ad51e7c4cafdb71de4c2f56150f21d32fa7202201cb80e7f577e2abcc52d84f67164752db8102ccde9ebff7e253a008947dcdc1201210270f7a0535d3768b3ecef6243b0c254d949d9c60e3877afe6189574058892538802483045022100e439a4575865f2e80e933100b12b2f63ec7cc297828d0c944780068582d01a0402204562b3fbdf82f6ce65f8a770de2f7af8756ce5a3cf0e3c53330e30e9cdac9ba601210217fcd1d8adad2be12c108f6df86d0d30ef67b2f822d66de8bf63cbd9b3c555eb0b490800", "vin": [{"txinwitness": ["3045022100b0fbcdabd07ed6fa2ec555c9f2c5ad51e7c4cafdb71de4c2f56150f21d32fa7202201cb80e7f577e2abcc52d84f67164752db8102ccde9ebff7e253a008947dcdc1201", "0270f7a0535d3768b3ecef6243b0c254d949d9c60e3877afe61895740588925388"], "sequence": 4294967294, "scriptSig": {"hex": "160014ed54c433b1a98b4c4d1e8832b0aef77fc6200fdc", "asm": "0014ed54c433b1a98b4c4d1e8832b0aef77fc6200fdc"}, "vout": 1, "txid": "8ec4707dc7d30840129e8e95f0e29c52d0cb0a40b3a6d0e9f19303830cf5ff28"}, {"txinwitness": ["3045022100e439a4575865f2e80e933100b12b2f63ec7cc297828d0c944780068582d01a0402204562b3fbdf82f6ce65f8a770de2f7af8756ce5a3cf0e3c53330e30e9cdac9ba601", "0217fcd1d8adad2be12c108f6df86d0d30ef67b2f822d66de8bf63cbd9b3c555eb"], "sequence": 4294967294, "scriptSig": {"hex": "1600145340fa18ae256517629d79ba3a1c7119e90e47b6", "asm": "00145340fa18ae256517629d79ba3a1c7119e90e47b6"}, "vout": 1, "txid": "31d47d0da114fea2ee039f59f724c694d5c3c0f17f14dcdcd32d567adcb37446"}], "txid": "3edb6b5cecfd4546f3acfef498de69458f44c7df38ce7a9f08261ddbfb58845a", "blocktime": 1537869901, "version": 2, "confirmations": 11524, "time": 1537869901, "locktime": 542987, "vsize": 259, "size": 422}