{"hash": "3edb2796aeb1365363768dd97102e99ebbaced2d664abbdf090f2b27d81a61fa", "blockhash": "0000000000000000001cda96e906b7601b7a6fb1a3b62bca570a9e5d8f4b3de1", "vout": [{"scriptPubKey": {"reqSigs": 1, "hex": "a914050d471745366161bee44616fd7b064ff6c3cfd587", "addresses": ["329jD44YTcsWyVzrodG8gwdxrR5BheWszU"], "asm": "OP_HASH160 050d471745366161bee44616fd7b064ff6c3cfd5 OP_EQUAL", "type": "scripthash"}, "value": 0.2544, "n": 0}, {"scriptPubKey": {"reqSigs": 1, "hex": "76a9147c45023433aea27b48251d4c5a52b1d73caba74e88ac", "addresses": ["1CL5TbB2MaR4mrFjtYQ5GyA3cP2bSmPxAn"], "asm": "OP_DUP OP_HASH160 7c45023433aea27b48251d4c5a52b1d73caba74e OP_EQUALVERIFY OP_CHECKSIG", "type": "pubkeyhash"}, "value": 1.33808634, "n": 1}], "hex": "0100000001967edcc641a357005381ba39df6499aaa0b9a01f6c26789f87c72d4250892e13010000006b483045022100cd6769924aa27ac6f6121d7b754802fdfb8e2df59fdc8af299d0bac6c65c84cb02201b2279b47ef5142d8bcc9c947b2617418ec98e518bcc7e2fdc39a24ab798aa850121021fc349da71680b2482e4c307adbd7aa2fc16d2cd564843ab873a8efff748d87bffffffff02002f84010000000017a914050d471745366161bee44616fd7b064ff6c3cfd587fac1f907000000001976a9147c45023433aea27b48251d4c5a52b1d73caba74e88ac00000000", "vin": [{"sequence": 4294967295, "scriptSig": {"hex": "483045022100cd6769924aa27ac6f6121d7b754802fdfb8e2df59fdc8af299d0bac6c65c84cb02201b2279b47ef5142d8bcc9c947b2617418ec98e518bcc7e2fdc39a24ab798aa850121021fc349da71680b2482e4c307adbd7aa2fc16d2cd564843ab873a8efff748d87b", "asm": "3045022100cd6769924aa27ac6f6121d7b754802fdfb8e2df59fdc8af299d0bac6c65c84cb02201b2279b47ef5142d8bcc9c947b2617418ec98e518bcc7e2fdc39a24ab798aa85[ALL] 021fc349da71680b2482e4c307adbd7aa2fc16d2cd564843ab873a8efff748d87b"}, "vout": 1, "txid": "132e8950422dc7879f78266c1fa0b9a0aa9964df39ba81530057a341c6dc7e96"}], "txid": "3edb2796aeb1365363768dd97102e99ebbaced2d664abbdf090f2b27d81a61fa", "blocktime": 1537873282, "version": 1, "confirmations": 11480, "time": 1537873282, "locktime": 0, "vsize": 224, "size": 224}