{"hash": "3ee27e786e8cac46d77812d89520b99672e77e2f212b9373cdb65ac8a5d3a36f", "blockhash": "0000000000000000000baef3f32e3676a92c3b2e5da21b426e4f302fc371ce76", "vout": [{"scriptPubKey": {"reqSigs": 1, "hex": "76a914811c776f8f914a82d788d38c2517aa5d7e63c4ff88ac", "addresses": ["1CmgGduueC2MtPHZEVeSnoxM4QKoFe2Cpu"], "asm": "OP_DUP OP_HASH160 811c776f8f914a82d788d38c2517aa5d7e63c4ff OP_EQUALVERIFY OP_CHECKSIG", "type": "pubkeyhash"}, "value": 0.05265604, "n": 0}], "hex": "0100000001e6a82bb54429f31b34ecbec253b2826e84faf0ea008bdd994a20efed4f3f2da2010000006b483045022100c36c0870142e7b2450e6154fc3b1e5e9e88b419c3719c88ad1cb35eeb2146e9402204044c53ad652549c107abd2f9a5fe78c60ebf26e2d7c1839e95485b6407e872e01210266eb179bd9ff1a9b385e34a410a3731eb78d39ef6bd377fa08fdda329e5f3012ffffffff01c4585000000000001976a914811c776f8f914a82d788d38c2517aa5d7e63c4ff88ac00000000", "vin": [{"sequence": 4294967295, "scriptSig": {"hex": "483045022100c36c0870142e7b2450e6154fc3b1e5e9e88b419c3719c88ad1cb35eeb2146e9402204044c53ad652549c107abd2f9a5fe78c60ebf26e2d7c1839e95485b6407e872e01210266eb179bd9ff1a9b385e34a410a3731eb78d39ef6bd377fa08fdda329e5f3012", "asm": "3045022100c36c0870142e7b2450e6154fc3b1e5e9e88b419c3719c88ad1cb35eeb2146e9402204044c53ad652549c107abd2f9a5fe78c60ebf26e2d7c1839e95485b6407e872e[ALL] 0266eb179bd9ff1a9b385e34a410a3731eb78d39ef6bd377fa08fdda329e5f3012"}, "vout": 1, "txid": "a22d3f4fedef204a99dd8b00eaf0fa846e82b253c2beec341bf32944b52ba8e6"}], "txid": "3ee27e786e8cac46d77812d89520b99672e77e2f212b9373cdb65ac8a5d3a36f", "blocktime": 1537876114, "version": 1, "confirmations": 11459, "time": 1537876114, "locktime": 0, "vsize": 192, "size": 192}