{"hash": "ff4503afcbf22f575417fd714036acaa4e5caff1b9e4cabd0498498241df5e07", "blockhash": "00000000000000000004ffacab907a6b429b9a5745fa0b75af4234bf69dd7176", "vout": [{"scriptPubKey": {"reqSigs": 1, "hex": "a914698607c9860579d61fafd94042448652aa385b1687", "addresses": ["3BJySHMGYwiy7geXsxYovgjAvRW5pHixSw"], "asm": "OP_HASH160 698607c9860579d61fafd94042448652aa385b16 OP_EQUAL", "type": "scripthash"}, "value": 0.00302893, "n": 0}, {"scriptPubKey": {"reqSigs": 1, "hex": "a9149cf1bcbbbd1b0ecacee471991f612c5898b29f7387", "addresses": ["3FzrvfecCt6SXC3BdfHVJDMyXneh5qweTV"], "asm": "OP_HASH160 9cf1bcbbbd1b0ecacee471991f612c5898b29f73 OP_EQUAL", "type": "scripthash"}, "value": 0.00336184, "n": 1}, {"scriptPubKey": {"reqSigs": 1, "hex": "76a91408f6a4059cfb544b82873950927bf8064f33ffee88ac", "addresses": ["1pPsS34yFPtBigxkTqj1tnfMVsZehAY3p"], "asm": "OP_DUP OP_HASH160 08f6a4059cfb544b82873950927bf8064f33ffee OP_EQUALVERIFY OP_CHECKSIG", "type": "pubkeyhash"}, "value": 0.0021, "n": 2}, {"scriptPubKey": {"reqSigs": 1, "hex": "a9141a3b1ed0a2dd758611c688ec656bca853770e59987", "addresses": ["345iKHaqhGSgDwLiywJBfe4c1japnmYmUa"], "asm": "OP_HASH160 1a3b1ed0a2dd758611c688ec656bca853770e599 OP_EQUAL", "type": "scripthash"}, "value": 0.0047496, "n": 3}, {"scriptPubKey": {"reqSigs": 1, "hex": "a914cfab74b9041f62c6cf8c343335861471fcef633887", "addresses": ["3Ld5CDkwRBXf2CwtfnrWGuNaKmSv39grgg"], "asm": "OP_HASH160 cfab74b9041f62c6cf8c343335861471fcef6338 OP_EQUAL", "type": "scripthash"}, "value": 0.01635016, "n": 4}, {"scriptPubKey": {"reqSigs": 1, "hex": "76a9140c78aa0cf448569786de66ea55a3459e7b7b378b88ac", "addresses": ["128wfChf6AJa3iVgZhf9aPXZVWmpS77DBW"], "asm": "OP_DUP OP_HASH160 0c78aa0cf448569786de66ea55a3459e7b7b378b OP_EQUALVERIFY OP_CHECKSIG", "type": "pubkeyhash"}, "value": 0.00569, "n": 5}, {"scriptPubKey": {"reqSigs": 1, "hex": "a91462ecce5f065331d3a3c6e2ba2922651b0285690287", "addresses": ["3Ai5pvRv83rVdLGUrJi1KcfoHPyUv8dFNX"], "asm": "OP_HASH160 62ecce5f065331d3a3c6e2ba2922651b02856902 OP_EQUAL", "type": "scripthash"}, "value": 0.00385823, "n": 6}, {"scriptPubKey": {"reqSigs": 1, "hex": "76a9143d6ec322351bd2572ee88ee791265a80e242671688ac", "addresses": ["16bpubdWHaqxsjm5nDHKzuXzgEKaRrDznX"], "asm": "OP_DUP OP_HASH160 3d6ec322351bd2572ee88ee791265a80e2426716 OP_EQUALVERIFY OP_CHECKSIG", "type": "pubkeyhash"}, "value": 0.01984523, "n": 7}, {"scriptPubKey": {"reqSigs": 1, "hex": "76a914dbdcac0580a1778ff9d7977c95d13fcd7451136188ac", "addresses": ["1M3XLZudMr14txh5whUkVkXnnc3uuYfmJN"], "asm": "OP_DUP OP_HASH160 dbdcac0580a1778ff9d7977c95d13fcd74511361 OP_EQUALVERIFY OP_CHECKSIG", "type": "pubkeyhash"}, "value": 0.05971095, "n": 8}, {"scriptPubKey": {"reqSigs": 1, "hex": "a9145422b9664f8b9cff2d7ba3b449c7d5b6aa2ae4da87", "addresses": ["39MtHLajUCz5yX3A5rkTCd9AZg3dFvpm8E"], "asm": "OP_HASH160 5422b9664f8b9cff2d7ba3b449c7d5b6aa2ae4da OP_EQUAL", "type": "scripthash"}, "value": 0.00438162, "n": 9}, {"scriptPubKey": {"reqSigs": 1, "hex": "a9143bf0293e3ca0b3eeba7d93b0ad55c1f70e2368e087", "addresses": ["379wVYjUGuD4Gi86ZMxdVb9cjuKViVxybh"], "asm": "OP_HASH160 3bf0293e3ca0b3eeba7d93b0ad55c1f70e2368e0 OP_EQUAL", "type": "scripthash"}, "value": 0.00468441, "n": 10}, {"scriptPubKey": {"reqSigs": 1, "hex": "a914bfc6bb9812d3392166d4e9a1c71390be2ce9592887", "addresses": ["3KB34NyLRw48FcW9YbxAqiAHrX55G5KJdw"], "asm": "OP_HASH160 bfc6bb9812d3392166d4e9a1c71390be2ce95928 OP_EQUAL", "type": "scripthash"}, "value": 0.00470553, "n": 11}, {"scriptPubKey": {"reqSigs": 1, "hex": "a914179777df947d1243322dee478c62d5bbcbc3a3cb87", "addresses": ["33qkv9vn8EPjkjq8SV22f1HuRfJEk8yYRb"], "asm": "OP_HASH160 179777df947d1243322dee478c62d5bbcbc3a3cb OP_EQUAL", "type": "scripthash"}, "value": 0.00482805, "n": 12}, {"scriptPubKey": {"reqSigs": 1, "hex": "a9142ff72d32ac728e3030b51c7ac53062e782c47cb087", "addresses": ["364dngrFUkhiKoheyhQt2jmHNyVeuciZ1K"], "asm": "OP_HASH160 2ff72d32ac728e3030b51c7ac53062e782c47cb0 OP_EQUAL", "type": "scripthash"}, "value": 0.00707854, "n": 13}, {"scriptPubKey": {"reqSigs": 1, "hex": "76a914fd169f789f9597987365e52a40a205479d2c22fc88ac", "addresses": ["1Q5D4QKmEXrvahiTPPHcyd4pfgTGsGt93A"], "asm": "OP_DUP OP_HASH160 fd169f789f9597987365e52a40a205479d2c22fc OP_EQUALVERIFY OP_CHECKSIG", "type": "pubkeyhash"}, "value": 0.00234522, "n": 14}, {"scriptPubKey": {"reqSigs": 1, "hex": "a9147701e2bfa14b3d13964403410b14eccf19d8482e87", "addresses": ["3CYGbPrWo4kX3veJdG4DYaptREU7KDJaUd"], "asm": "OP_HASH160 7701e2bfa14b3d13964403410b14eccf19d8482e OP_EQUAL", "type": "scripthash"}, "value": 0.00191078, "n": 15}, {"scriptPubKey": {"reqSigs": 1, "hex": "a914958581c24370b81e24dea05298ea63115e70a4b487", "addresses": ["3FKcYM3n7KCvcKothrCupe2wGDJGc4oB6G"], "asm": "OP_HASH160 958581c24370b81e24dea05298ea63115e70a4b4 OP_EQUAL", "type": "scripthash"}, "value": 0.00456361, "n": 16}, {"scriptPubKey": {"reqSigs": 1, "hex": "a914fa5cf342c1aa9b8496d6525f822bbb721447462287", "addresses": ["3QWpCoBcA3AriZCdk2dAccDGErgNtujyGj"], "asm": "OP_HASH160 fa5cf342c1aa9b8496d6525f822bbb7214474622 OP_EQUAL", "type": "scripthash"}, "value": 0.0030337, "n": 17}, {"scriptPubKey": {"reqSigs": 1, "hex": "a914def126b7969e2f8b7db882d90a480ece4977285387", "addresses": ["3N1ppcSmVa7qV8vSDecbNd2AURgEBLfnnS"], "asm": "OP_HASH160 def126b7969e2f8b7db882d90a480ece49772853 OP_EQUAL", "type": "scripthash"}, "value": 0.01841722, "n": 18}, {"scriptPubKey": {"reqSigs": 1, "hex": "a914b842dbe3113509730169d7b925112bd5f8e7205587", "addresses": ["3JVJMHEW3tqyuKh5JWhVapFuLYHNfcqMY2"], "asm": "OP_HASH160 b842dbe3113509730169d7b925112bd5f8e72055 OP_EQUAL", "type": "scripthash"}, "value": 0.00445035, "n": 19}, {"scriptPubKey": {"reqSigs": 1, "hex": "a914100b90954c1dcdd97a488607ccb372511694b62987", "addresses": ["339rb9XpbFB8JEbKAsehzWuDoMHhUd4Jz1"], "asm": "OP_HASH160 100b90954c1dcdd97a488607ccb372511694b629 OP_EQUAL", "type": "scripthash"}, "value": 1.3011631, "n": 20}, {"scriptPubKey": {"reqSigs": 1, "hex": "a914396dec09697ec309030e41e5778e63871cfd379f87", "addresses": ["36vg7zbWxyF7ADk8AFrjJKfJwzQhU6uBnw"], "asm": "OP_HASH160 396dec09697ec309030e41e5778e63871cfd379f OP_EQUAL", "type": "scripthash"}, "value": 0.0026236, "n": 21}, {"scriptPubKey": {"reqSigs": 1, "hex": "76a914b162348f7c7385ef81213b640a4c9a3b1dc3643488ac", "addresses": ["1HAvFNyToUKUGBKQNef3isfhGymvzmweY2"], "asm": "OP_DUP OP_HASH160 b162348f7c7385ef81213b640a4c9a3b1dc36434 OP_EQUALVERIFY OP_CHECKSIG", "type": "pubkeyhash"}, "value": 0.2231903, "n": 22}, {"scriptPubKey": {"reqSigs": 1, "hex": "a9141efd0b29d1da5a908059d692a2c8d26b74ea45b787", "addresses": ["34WsL5QGvXEwMXXu8HjDniCHh6rGcuPRrd"], "asm": "OP_HASH160 1efd0b29d1da5a908059d692a2c8d26b74ea45b7 OP_EQUAL", "type": "scripthash"}, "value": 0.08012848, "n": 23}, {"scriptPubKey": {"reqSigs": 1, "hex": "76a9149b8d5c9736090a76795845e42a0da69ebeb198d188ac", "addresses": ["1FBV5iWFb8WtpMaLmFRJSGzHz4h2oLwVV1"], "asm": "OP_DUP OP_HASH160 9b8d5c9736090a76795845e42a0da69ebeb198d1 OP_EQUALVERIFY OP_CHECKSIG", "type": "pubkeyhash"}, "value": 0.02673914, "n": 24}, {"scriptPubKey": {"reqSigs": 1, "hex": "a914f3afd200fdc4b77aa2e033f8731c709b79e46e5487", "addresses": ["3PuWkNMpP1bdJNaDCjgca4t47bvJ7jwZFL"], "asm": "OP_HASH160 f3afd200fdc4b77aa2e033f8731c709b79e46e54 OP_EQUAL", "type": "scripthash"}, "value": 0.0028236, "n": 25}, {"scriptPubKey": {"reqSigs": 1, "hex": "a914418aca5cc4a52a50bc6d8c2f35e4f9731a6c940087", "addresses": ["37fa7Lv9u3CKaUWJC4cmAgZV8d6QWvUf5U"], "asm": "OP_HASH160 418aca5cc4a52a50bc6d8c2f35e4f9731a6c9400 OP_EQUAL", "type": "scripthash"}, "value": 0.00377516, "n": 26}, {"scriptPubKey": {"reqSigs": 1, "hex": "a91491aaed6829441427115ea1fe12042e0d3863dfa687", "addresses": ["3EyEfbpHbcx41MC1Wp3UgeKz6LwdS11gp3"], "asm": "OP_HASH160 91aaed6829441427115ea1fe12042e0d3863dfa6 OP_EQUAL", "type": "scripthash"}, "value": 0.00234453, "n": 27}, {"scriptPubKey": {"reqSigs": 1, "hex": "a914720c7d054f7e0ad8b99f3d72c56b288322d8067287", "addresses": ["3C63v7rikW8UJc1r63LjMbDzuHKYz9kzVS"], "asm": "OP_HASH160 720c7d054f7e0ad8b99f3d72c56b288322d80672 OP_EQUAL", "type": "scripthash"}, "value": 0.0035626, "n": 28}, {"scriptPubKey": {"reqSigs": 1, "hex": "a914ddbb6dc0b72e0367465c58f757ec011de9690af687", "addresses": ["3MuRniNjuTJWUo7QNeMaX9U12mLQEsNJ2S"], "asm": "OP_HASH160 ddbb6dc0b72e0367465c58f757ec011de9690af6 OP_EQUAL", "type": "scripthash"}, "value": 0.01149201, "n": 29}, {"scriptPubKey": {"reqSigs": 1, "hex": "76a914d1d3160b7b369917231ca6b9e46aed248c7e60c988ac", "addresses": ["1L8T6cYRTLeCxhceP1xqP1y4t73Ydiwfrc"], "asm": "OP_DUP OP_HASH160 d1d3160b7b369917231ca6b9e46aed248c7e60c9 OP_EQUALVERIFY OP_CHECKSIG", "type": "pubkeyhash"}, "value": 0.00197395, "n": 30}, {"scriptPubKey": {"reqSigs": 1, "hex": "a9149f5e15d93c5152c185afae3b03abd605ee0d13b987", "addresses": ["3GDg5D67upSV6u9puH9LnQXoYwoUufJNbz"], "asm": "OP_HASH160 9f5e15d93c5152c185afae3b03abd605ee0d13b9 OP_EQUAL", "type": "scripthash"}, "value": 0.00645, "n": 31}, {"scriptPubKey": {"reqSigs": 1, "hex": "76a9142629173738881615e1325c179f884c7a64c013e688ac", "addresses": ["14UmuKb9aUaK6gfWWDXrB2xzGV1UYQ6Y1q"], "asm": "OP_DUP OP_HASH160 2629173738881615e1325c179f884c7a64c013e6 OP_EQUALVERIFY OP_CHECKSIG", "type": "pubkeyhash"}, "value": 0.0298, "n": 32}, {"scriptPubKey": {"reqSigs": 1, "hex": "76a914a520279b13a619ad455bc7dd3b3c368d444456d388ac", "addresses": ["1G471oRgNjchomuXB5GWEca2a4oqWEdngt"], "asm": "OP_DUP OP_HASH160 a520279b13a619ad455bc7dd3b3c368d444456d3 OP_EQUALVERIFY OP_CHECKSIG", "type": "pubkeyhash"}, "value": 0.004938, "n": 33}, {"scriptPubKey": {"reqSigs": 1, "hex": "a914fd5869fa45d5d32e606dc25db34ecdf7b37ba53f87", "addresses": ["3QnaoBq8HvawmkPBhgnn76Hm9arBePYJ2E"], "asm": "OP_HASH160 fd5869fa45d5d32e606dc25db34ecdf7b37ba53f OP_EQUAL", "type": "scripthash"}, "value": 0.0947475, "n": 34}], "hex": "020000000001012947a1eea9d439a4092d4cb5ed3d7dfd2e913f084e27ad73d5f787d8de28d2e614000000171600148b687f8bb0a708c70155479642cf374b3c71e81bfeffffff232d9f04000000000017a914698607c9860579d61fafd94042448652aa385b1687382105000000000017a9149cf1bcbbbd1b0ecacee471991f612c5898b29f738750340300000000001976a91408f6a4059cfb544b82873950927bf8064f33ffee88ac503f07000000000017a9141a3b1ed0a2dd758611c688ec656bca853770e59987c8f218000000000017a914cfab74b9041f62c6cf8c343335861471fcef633887a8ae0800000000001976a9140c78aa0cf448569786de66ea55a3459e7b7b378b88ac1fe305000000000017a91462ecce5f065331d3a3c6e2ba2922651b02856902870b481e00000000001976a9143d6ec322351bd2572ee88ee791265a80e242671688ac971c5b00000000001976a914dbdcac0580a1778ff9d7977c95d13fcd7451136188ac92af06000000000017a9145422b9664f8b9cff2d7ba3b449c7d5b6aa2ae4da87d92507000000000017a9143bf0293e3ca0b3eeba7d93b0ad55c1f70e2368e087192e07000000000017a914bfc6bb9812d3392166d4e9a1c71390be2ce9592887f55d07000000000017a914179777df947d1243322dee478c62d5bbcbc3a3cb870ecd0a000000000017a9142ff72d32ac728e3030b51c7ac53062e782c47cb0871a940300000000001976a914fd169f789f9597987365e52a40a205479d2c22fc88ac66ea02000000000017a9147701e2bfa14b3d13964403410b14eccf19d8482e87a9f606000000000017a914958581c24370b81e24dea05298ea63115e70a4b4870aa104000000000017a914fa5cf342c1aa9b8496d6525f822bbb7214474622873a1a1c000000000017a914def126b7969e2f8b7db882d90a480ece49772853876bca06000000000017a914b842dbe3113509730169d7b925112bd5f8e7205587d66ac1070000000017a914100b90954c1dcdd97a488607ccb372511694b62987d80004000000000017a914396dec09697ec309030e41e5778e63871cfd379f87b68f5401000000001976a914b162348f7c7385ef81213b640a4c9a3b1dc3643488ac30447a000000000017a9141efd0b29d1da5a908059d692a2c8d26b74ea45b787facc2800000000001976a9149b8d5c9736090a76795845e42a0da69ebeb198d188acf84e04000000000017a914f3afd200fdc4b77aa2e033f8731c709b79e46e5487acc205000000000017a914418aca5cc4a52a50bc6d8c2f35e4f9731a6c940087d59303000000000017a91491aaed6829441427115ea1fe12042e0d3863dfa687a46f05000000000017a914720c7d054f7e0ad8b99f3d72c56b288322d8067287118911000000000017a914ddbb6dc0b72e0367465c58f757ec011de9690af68713030300000000001976a914d1d3160b7b369917231ca6b9e46aed248c7e60c988ac88d709000000000017a9149f5e15d93c5152c185afae3b03abd605ee0d13b987a0782d00000000001976a9142629173738881615e1325c179f884c7a64c013e688ace8880700000000001976a914a520279b13a619ad455bc7dd3b3c368d444456d388acbe9290000000000017a914fd5869fa45d5d32e606dc25db34ecdf7b37ba53f8702483045022100f928b1967e357a4e733c689c629d2172d2211e053a92623839fc53ae1337ba16022040acf1b782381ac9d236cfc6948822f53c6e55a216134195753856d71e2d9bc10121022159c86c905505dee92149e6cd45dbc89acf75f4eab7e24bbc52e2931af5748816490800", "vin": [{"txinwitness": ["3045022100f928b1967e357a4e733c689c629d2172d2211e053a92623839fc53ae1337ba16022040acf1b782381ac9d236cfc6948822f53c6e55a216134195753856d71e2d9bc101", "022159c86c905505dee92149e6cd45dbc89acf75f4eab7e24bbc52e2931af57488"], "sequence": 4294967294, "scriptSig": {"hex": "1600148b687f8bb0a708c70155479642cf374b3c71e81b", "asm": "00148b687f8bb0a708c70155479642cf374b3c71e81b"}, "vout": 20, "txid": "e6d228ded887f7d573ad274e083f912efd7d3dedb54c2d09a439d4a9eea14729"}], "txid": "3eeafebd6f8f8380d80e2722fbc60147a07611f68c34d581830be92b2dc88800", "blocktime": 1537875543, "version": 2, "confirmations": 11464, "time": 1537875543, "locktime": 542998, "vsize": 1242, "size": 1324}