{"hash": "dc03769589398f245bfffca62d66adc3c9cdd2773708ecabb9c75578f19f9d04", "blockhash": "0000000000000000001f76057863aec43deb6fa401d9628bb513d65a8098bfab", "vout": [{"scriptPubKey": {"reqSigs": 1, "hex": "a914fe4d5147cd472d1545d3a4b4413a5594a231e03b87", "addresses": ["3QseBPAHuurNVZpvsWwsy6JaDftqCLEAk4"], "asm": "OP_HASH160 fe4d5147cd472d1545d3a4b4413a5594a231e03b OP_EQUAL", "type": "scripthash"}, "value": 0.01002309, "n": 0}, {"scriptPubKey": {"reqSigs": 1, "hex": "76a9143ed1564f112eae3e770d563340c574b017338a6f88ac", "addresses": ["16j9ftorq1J6F3fzXk4ZXeWqGTxD5Bv7C5"], "asm": "OP_DUP OP_HASH160 3ed1564f112eae3e770d563340c574b017338a6f OP_EQUALVERIFY OP_CHECKSIG", "type": "pubkeyhash"}, "value": 0.3, "n": 1}], "hex": "020000000001051df63140b00c8cf639afe6604ae6334c5c8d696a86d06c7f3498173b29540f330000000017160014fbbdb6ea2d26eeefbbc37abeb5286672558ae68dfeffffff36c0bb8e3fe104dfa1a1875bcf4de9f09d40d66b056e51f92de6b2b4a8e1f9160100000017160014270436b48ff044c878267c007f177fa2fe38b5e2feffffff73323f1cd40c97fc1c6c53c6745ed5ef2fb637808454a358f7c54235d24ad20f01000000171600145021d921126069b27c37f6fd11be75ce1813580bfeffffff76f722025c585a90a8732fde9630f447f586a5b737ae8ff028979cab1890602d0000000017160014b6d81417f2a8e7eb2b1c30bc1e75c9f1ed4e673ffeffffff7f803f7e022f5381cb54a48f56fb174bb943e9639b68b1fe02838007b741ee9ed30000001716001450eb5c8765d78c27c16661763874b0e29161b1f2feffffff02454b0f000000000017a914fe4d5147cd472d1545d3a4b4413a5594a231e03b8780c3c901000000001976a9143ed1564f112eae3e770d563340c574b017338a6f88ac0247304402206ef147c3cf2a0fea43dfbdc121ad888a75f798e6506e712d89b9d2b3824284f102203ec75c074ad4a2c0597aca21e5b327db5decefebaa1bfffb4bac99ea5c27aa1601210245dac6865f456d22231b35598e2c196fb490870478d0ce19aa39c10209c0f0e60247304402201779faff56888475ceccd960eaa887aec625877f8625777c0e660d94c4c29fc602207e604f707d2f57464b32d11fc99c6fad02987e928fb471ff9cd778bad7b497ce012102dff7ed6a29ec9df30763c3852b001706fea94351b58fcaa7c4a6b747da074e3c0247304402204b403f4a33859d98790da428793aca45d2d59364b50c99d394c31d0bad3cedf2022040b4b40a27851641423156b0df0fb8a0e299c1f825391727439d243933e79890012102fdd2d2b3153de5d40109e765ed0036bb107c40a005b0bb1f54e821ccea2b0fa70247304402204273bd051dacc49354ea7463ad83b0762848c56f8ecc07b6ecc14f239c3431a50220659a1dd254a943683ff264a6d1330d5edb3f1a77865e84540995ec5581c1f3bd0121023fdfbfcd06bc8b7ddc56b3e69bf2ef9fdb008606e329bca8b932ede45efd705902483045022100cec33ad9eae40feec4efe430afc3b60928afecd4bf791275d5995850496c5f310220699fcb070af026b77b87724a451948df1c77f8c0e8d34e9568a2c4bc174b2a8801210276595687c821ccb14f1630e461af941cf61a080505d35c239d78ffd897a77e2814490800", "vin": [{"txinwitness": ["304402206ef147c3cf2a0fea43dfbdc121ad888a75f798e6506e712d89b9d2b3824284f102203ec75c074ad4a2c0597aca21e5b327db5decefebaa1bfffb4bac99ea5c27aa1601", "0245dac6865f456d22231b35598e2c196fb490870478d0ce19aa39c10209c0f0e6"], "sequence": 4294967294, "scriptSig": {"hex": "160014fbbdb6ea2d26eeefbbc37abeb5286672558ae68d", "asm": "0014fbbdb6ea2d26eeefbbc37abeb5286672558ae68d"}, "vout": 0, "txid": "330f54293b1798347f6cd0866a698d5c4c33e64a60e6af39f68c0cb04031f61d"}, {"txinwitness": ["304402201779faff56888475ceccd960eaa887aec625877f8625777c0e660d94c4c29fc602207e604f707d2f57464b32d11fc99c6fad02987e928fb471ff9cd778bad7b497ce01", "02dff7ed6a29ec9df30763c3852b001706fea94351b58fcaa7c4a6b747da074e3c"], "sequence": 4294967294, "scriptSig": {"hex": "160014270436b48ff044c878267c007f177fa2fe38b5e2", "asm": "0014270436b48ff044c878267c007f177fa2fe38b5e2"}, "vout": 1, "txid": "16f9e1a8b4b2e62df9516e056bd6409df0e94dcf5b87a1a1df04e13f8ebbc036"}, {"txinwitness": ["304402204b403f4a33859d98790da428793aca45d2d59364b50c99d394c31d0bad3cedf2022040b4b40a27851641423156b0df0fb8a0e299c1f825391727439d243933e7989001", "02fdd2d2b3153de5d40109e765ed0036bb107c40a005b0bb1f54e821ccea2b0fa7"], "sequence": 4294967294, "scriptSig": {"hex": "1600145021d921126069b27c37f6fd11be75ce1813580b", "asm": "00145021d921126069b27c37f6fd11be75ce1813580b"}, "vout": 1, "txid": "0fd24ad23542c5f758a354848037b62fefd55e74c6536c1cfc970cd41c3f3273"}, {"txinwitness": ["304402204273bd051dacc49354ea7463ad83b0762848c56f8ecc07b6ecc14f239c3431a50220659a1dd254a943683ff264a6d1330d5edb3f1a77865e84540995ec5581c1f3bd01", "023fdfbfcd06bc8b7ddc56b3e69bf2ef9fdb008606e329bca8b932ede45efd7059"], "sequence": 4294967294, "scriptSig": {"hex": "160014b6d81417f2a8e7eb2b1c30bc1e75c9f1ed4e673f", "asm": "0014b6d81417f2a8e7eb2b1c30bc1e75c9f1ed4e673f"}, "vout": 0, "txid": "2d609018ab9c9728f08fae37b7a586f547f43096de2f73a8905a585c0222f776"}, {"txinwitness": ["3045022100cec33ad9eae40feec4efe430afc3b60928afecd4bf791275d5995850496c5f310220699fcb070af026b77b87724a451948df1c77f8c0e8d34e9568a2c4bc174b2a8801", "0276595687c821ccb14f1630e461af941cf61a080505d35c239d78ffd897a77e28"], "sequence": 4294967294, "scriptSig": {"hex": "16001450eb5c8765d78c27c16661763874b0e29161b1f2", "asm": "001450eb5c8765d78c27c16661763874b0e29161b1f2"}, "vout": 211, "txid": "9eee41b707808302feb1689b63e943b94b17fb568fa454cb81532f027e3f807f"}], "txid": "3eeb116889e7bc2dc06470dd0546b669e85c6f8c98353ae916a94e8a527c4db8", "blocktime": 1537873891, "version": 2, "confirmations": 11479, "time": 1537873891, "locktime": 542996, "vsize": 531, "size": 934}