{"hash": "3eef9042bd9d64b7550476815d88175315eb0995313d147594e6c48b49c719a0", "blockhash": "00000000000000000004ffacab907a6b429b9a5745fa0b75af4234bf69dd7176", "vout": [{"scriptPubKey": {"reqSigs": 1, "hex": "a9146db7545a9ecfff77466c05fc701609e08784d29687", "addresses": ["3Bh9CQn7kC9TK9dSGx2RRBPABuFkseNBZQ"], "asm": "OP_HASH160 6db7545a9ecfff77466c05fc701609e08784d296 OP_EQUAL", "type": "scripthash"}, "value": 0.00390875, "n": 0}, {"scriptPubKey": {"reqSigs": 1, "hex": "76a9147045d7c2abf2035d20ecdce7f148d62cbe1f30ee88ac", "addresses": ["1BEeMFS1KAqmzujzkZUdFBxuu8uMXYuRNc"], "asm": "OP_DUP OP_HASH160 7045d7c2abf2035d20ecdce7f148d62cbe1f30ee OP_EQUALVERIFY OP_CHECKSIG", "type": "pubkeyhash"}, "value": 0.01437867, "n": 1}], "hex": "010000000158e3fcc783ebfb8f33ae97068ec6938e05d69c6235bccfd00831b3152c293ecf010000006b483045022100ffdc64fc382494891282ffaa8199d01d3be5b7d698082f7b5692b2f4bd84975002202cc9ec1b126dc807c80597844fbdce84fcf7be3df5289db229965eaba4671be2012102107672422d3ee4e865f4b523cf03c5ac34d7515262c1801d81a92321a595f7d9ffffffff02dbf605000000000017a9146db7545a9ecfff77466c05fc701609e08784d29687abf01500000000001976a9147045d7c2abf2035d20ecdce7f148d62cbe1f30ee88ac00000000", "vin": [{"sequence": 4294967295, "scriptSig": {"hex": "483045022100ffdc64fc382494891282ffaa8199d01d3be5b7d698082f7b5692b2f4bd84975002202cc9ec1b126dc807c80597844fbdce84fcf7be3df5289db229965eaba4671be2012102107672422d3ee4e865f4b523cf03c5ac34d7515262c1801d81a92321a595f7d9", "asm": "3045022100ffdc64fc382494891282ffaa8199d01d3be5b7d698082f7b5692b2f4bd84975002202cc9ec1b126dc807c80597844fbdce84fcf7be3df5289db229965eaba4671be2[ALL] 02107672422d3ee4e865f4b523cf03c5ac34d7515262c1801d81a92321a595f7d9"}, "vout": 1, "txid": "cf3e292c15b33108d0cfbc35629cd6058e93c68e0697ae338ffbeb83c7fce358"}], "txid": "3eef9042bd9d64b7550476815d88175315eb0995313d147594e6c48b49c719a0", "blocktime": 1537875543, "version": 1, "confirmations": 11464, "time": 1537875543, "locktime": 0, "vsize": 224, "size": 224}