{"hash": "3ef25c3dbfd2b960ceaa19081939bea634775a40111e1ab56ce9cbf574f41ffe", "blockhash": "000000000000000000022b45ed06c6f4ccd3cf7fb5ba4856ebd2e58215665228", "vout": [{"scriptPubKey": {"reqSigs": 1, "hex": "76a914d0a211b9b1aa4149dade74af88757317d791ba4288ac", "addresses": ["1L29hfoEnS6hfbwdGG26GSRojTAfrkzRuC"], "asm": "OP_DUP OP_HASH160 d0a211b9b1aa4149dade74af88757317d791ba42 OP_EQUALVERIFY OP_CHECKSIG", "type": "pubkeyhash"}, "value": 0.0028853, "n": 0}, {"scriptPubKey": {"reqSigs": 1, "hex": "76a914ba48d3090f0bcc93b34873ba6450d4ac90d408dd88ac", "addresses": ["1Hyyvc7rpHsg1tgDw9ojbGkvVLTDU6sDkU"], "asm": "OP_DUP OP_HASH160 ba48d3090f0bcc93b34873ba6450d4ac90d408dd OP_EQUALVERIFY OP_CHECKSIG", "type": "pubkeyhash"}, "value": 5.46e-06, "n": 1}, {"scriptPubKey": {"type": "nulldata", "hex": "6a146f6d6e69000000000000001f0000003f0f190725", "asm": "OP_RETURN 6f6d6e69000000000000001f0000003f0f190725"}, "value": 0.0, "n": 2}], "hex": "010000000286026b8ba635bf640f97400b6c724fb2f8d549c80ca958a240f536e38f03c240020000008a47304402205ad7315053edc54062e51466ec5e0b2d2d9889cc2dbb67e70cbb260a803648c402200556a1828230cb6979550a17d6e5a20aec6c6e6c89addf6c7e5c3d54ce6e23ed0141043d3550c72843e640bce1d932523502708d8403aaadb1126af60189b35f73c867399a7951e4fbd042a25e9c6777a09ec55e241668d32d3d88d8bdb8851ec6fe6effffffff38ddbc1cfbb003606a3c2c3b347139ae635813a94d36617ef1f957be1b72dcb5000000008a47304402203eb2954c668d25966dd8c23919738ed1854487e1a5bf80d514640cbf641080d402207d741ebd2ec5ac031f99772c94d36d7899bd31b1f0da1dd1cd2887fa3e2b20510141043d3550c72843e640bce1d932523502708d8403aaadb1126af60189b35f73c867399a7951e4fbd042a25e9c6777a09ec55e241668d32d3d88d8bdb8851ec6fe6effffffff0312670400000000001976a914d0a211b9b1aa4149dade74af88757317d791ba4288ac22020000000000001976a914ba48d3090f0bcc93b34873ba6450d4ac90d408dd88ac0000000000000000166a146f6d6e69000000000000001f0000003f0f19072500000000", "vin": [{"sequence": 4294967295, "scriptSig": {"hex": "47304402205ad7315053edc54062e51466ec5e0b2d2d9889cc2dbb67e70cbb260a803648c402200556a1828230cb6979550a17d6e5a20aec6c6e6c89addf6c7e5c3d54ce6e23ed0141043d3550c72843e640bce1d932523502708d8403aaadb1126af60189b35f73c867399a7951e4fbd042a25e9c6777a09ec55e241668d32d3d88d8bdb8851ec6fe6e", "asm": "304402205ad7315053edc54062e51466ec5e0b2d2d9889cc2dbb67e70cbb260a803648c402200556a1828230cb6979550a17d6e5a20aec6c6e6c89addf6c7e5c3d54ce6e23ed[ALL] 043d3550c72843e640bce1d932523502708d8403aaadb1126af60189b35f73c867399a7951e4fbd042a25e9c6777a09ec55e241668d32d3d88d8bdb8851ec6fe6e"}, "vout": 2, "txid": "40c2038fe336f540a258a90cc849d5f8b24f726c0b40970f64bf35a68b6b0286"}, {"sequence": 4294967295, "scriptSig": {"hex": "47304402203eb2954c668d25966dd8c23919738ed1854487e1a5bf80d514640cbf641080d402207d741ebd2ec5ac031f99772c94d36d7899bd31b1f0da1dd1cd2887fa3e2b20510141043d3550c72843e640bce1d932523502708d8403aaadb1126af60189b35f73c867399a7951e4fbd042a25e9c6777a09ec55e241668d32d3d88d8bdb8851ec6fe6e", "asm": "304402203eb2954c668d25966dd8c23919738ed1854487e1a5bf80d514640cbf641080d402207d741ebd2ec5ac031f99772c94d36d7899bd31b1f0da1dd1cd2887fa3e2b2051[ALL] 043d3550c72843e640bce1d932523502708d8403aaadb1126af60189b35f73c867399a7951e4fbd042a25e9c6777a09ec55e241668d32d3d88d8bdb8851ec6fe6e"}, "vout": 0, "txid": "b5dc721bbe57f9f17e61364da9135863ae3971343b2c3c6a6003b0fb1cbcdd38"}], "txid": "3ef25c3dbfd2b960ceaa19081939bea634775a40111e1ab56ce9cbf574f41ffe", "blocktime": 1537869901, "version": 1, "confirmations": 11522, "time": 1537869901, "locktime": 0, "vsize": 467, "size": 467}