{"hash": "ccfe75aed35fd6be2339ba9d007cea053cd5d2a2c93472172a1629e3b0809b71", "blockhash": "0000000000000000000e13cef7c366c0283d82e591d1acd082e914b08063cdf1", "vout": [{"scriptPubKey": {"reqSigs": 1, "hex": "76a914047056dbc334ab449bfe70981e40bb52650f168e88ac", "addresses": ["1QUHEovV6ZNcxQ3Gk1EHimAz1MekJuV4t"], "asm": "OP_DUP OP_HASH160 047056dbc334ab449bfe70981e40bb52650f168e OP_EQUALVERIFY OP_CHECKSIG", "type": "pubkeyhash"}, "value": 0.00697755, "n": 0}, {"scriptPubKey": {"reqSigs": 1, "hex": "a9149d5b651c20d8de81cb79a9f24ac2f4fb3d667b9f87", "addresses": ["3G33Vtpi6RHN2gxtgYgJ5qXHbmZV6kBBDt"], "asm": "OP_HASH160 9d5b651c20d8de81cb79a9f24ac2f4fb3d667b9f OP_EQUAL", "type": "scripthash"}, "value": 16.94137753, "n": 1}], "hex": "0200000000010132444c1235d7c1ddc9cd96a84e80b0fd21d967e1657a3c31732bd902c757d2110100000017160014a5704b3d298e6a678f931f9426e1bca10573ff10ffffffff029ba50a00000000001976a914047056dbc334ab449bfe70981e40bb52650f168e88ac997dfa640000000017a9149d5b651c20d8de81cb79a9f24ac2f4fb3d667b9f8702483045022100cbe92fc57c2c490aba25fa035f8184b3866a824be88180ae961c57f3ca4d9e220220389a33f46fb40c620c4e6ec0685aa79eaf9aab752e3bc160869121f756e60fab01210234bb48716c9bb5b289b1d2b637f83d3464d0c1db198db50e2fdc6fa899c781bf00000000", "vin": [{"txinwitness": ["3045022100cbe92fc57c2c490aba25fa035f8184b3866a824be88180ae961c57f3ca4d9e220220389a33f46fb40c620c4e6ec0685aa79eaf9aab752e3bc160869121f756e60fab01", "0234bb48716c9bb5b289b1d2b637f83d3464d0c1db198db50e2fdc6fa899c781bf"], "sequence": 4294967295, "scriptSig": {"hex": "160014a5704b3d298e6a678f931f9426e1bca10573ff10", "asm": "0014a5704b3d298e6a678f931f9426e1bca10573ff10"}, "vout": 1, "txid": "11d257c702d92b73313c7a65e167d921fdb0804ea896cdc9ddc1d735124c4432"}], "txid": "3ef65dc5202c5826beecbcd6144aa609c4263ca57ec942ce46dcef00d8b166bc", "blocktime": 1537871767, "version": 2, "confirmations": 11493, "time": 1537871767, "locktime": 0, "vsize": 168, "size": 250}