{"hash": "3efb3e67eb9b92619e8692a65d29eed5a3ee2d7c13658cb0e5202ab2bf11ad38", "blockhash": "00000000000000000004ffacab907a6b429b9a5745fa0b75af4234bf69dd7176", "vout": [{"scriptPubKey": {"reqSigs": 1, "hex": "a914926d569478bfa7fd2c7c512d514ede65e89b0a6687", "addresses": ["3F3FZW6juGe8zsx2u89H5Wycwi5eXJMZ53"], "asm": "OP_HASH160 926d569478bfa7fd2c7c512d514ede65e89b0a66 OP_EQUAL", "type": "scripthash"}, "value": 4.999, "n": 0}, {"scriptPubKey": {"reqSigs": 1, "hex": "76a914f4bb9706c78d294edc550a63e66d060b44940d0788ac", "addresses": ["1PK2bnWaXqruNSLZkoUb4Qo8rHjy9bYsrQ"], "asm": "OP_DUP OP_HASH160 f4bb9706c78d294edc550a63e66d060b44940d07 OP_EQUALVERIFY OP_CHECKSIG", "type": "pubkeyhash"}, "value": 100.26569798, "n": 1}], "hex": "02000000011775efe2feca8be9ec8dc9ade800810cd85db93d82d015fb631d56f15d2d26bb010000006b483045022100a5dff76de3126d824e44d5f5ec987e32ac8f2e8d03b61b36e1f9a0e352e1ad77022016e151ff331bef9b7daf946d8bfb7f91d76f28fd99ea864b06a106d5fe6080e1012103c718c8602283336ba52680d82f5500668b3c7770697f62b165c69d2cc912bf65feffffff0260decb1d0000000017a914926d569478bfa7fd2c7c512d514ede65e89b0a66874650a155020000001976a914f4bb9706c78d294edc550a63e66d060b44940d0788ac16490800", "vin": [{"sequence": 4294967294, "scriptSig": {"hex": "483045022100a5dff76de3126d824e44d5f5ec987e32ac8f2e8d03b61b36e1f9a0e352e1ad77022016e151ff331bef9b7daf946d8bfb7f91d76f28fd99ea864b06a106d5fe6080e1012103c718c8602283336ba52680d82f5500668b3c7770697f62b165c69d2cc912bf65", "asm": "3045022100a5dff76de3126d824e44d5f5ec987e32ac8f2e8d03b61b36e1f9a0e352e1ad77022016e151ff331bef9b7daf946d8bfb7f91d76f28fd99ea864b06a106d5fe6080e1[ALL] 03c718c8602283336ba52680d82f5500668b3c7770697f62b165c69d2cc912bf65"}, "vout": 1, "txid": "bb262d5df1561d63fb15d0823db95dd80c8100e8adc98dece98bcafee2ef7517"}], "txid": "3efb3e67eb9b92619e8692a65d29eed5a3ee2d7c13658cb0e5202ab2bf11ad38", "blocktime": 1537875543, "version": 2, "confirmations": 11464, "time": 1537875543, "locktime": 542998, "vsize": 224, "size": 224}