{"hash": "3efc9b6767cfddb65f1d61c6597d1d12fc39ad63270eae939a47dff27cb4efb7", "blockhash": "00000000000000000004ffacab907a6b429b9a5745fa0b75af4234bf69dd7176", "vout": [{"scriptPubKey": {"reqSigs": 1, "hex": "76a9148b427e2348c0b685d16027b3f25c766d9c7d72d488ac", "addresses": ["1DhLafHJKNbU1yRzU3fiVKcLk6U86d2VLk"], "asm": "OP_DUP OP_HASH160 8b427e2348c0b685d16027b3f25c766d9c7d72d4 OP_EQUALVERIFY OP_CHECKSIG", "type": "pubkeyhash"}, "value": 0.005, "n": 0}, {"scriptPubKey": {"reqSigs": 1, "hex": "76a91488d924f51033b74a895863a5fb57fd545529df7d88ac", "addresses": ["1DUb2YYbQA1jjaNYzVXLZ7ZioEhLXtbUru"], "asm": "OP_DUP OP_HASH160 88d924f51033b74a895863a5fb57fd545529df7d OP_EQUALVERIFY OP_CHECKSIG", "type": "pubkeyhash"}, "value": 0.43787124, "n": 1}], "hex": "0100000001bf96820897bf946a4ee1759665ae8713f812b2946e3d690a16fa56aa4d3ffd8d010000006b483045022100cc7c1f8e0f53b54585a156f272eff0a1f404a3a1e8135d0f52d68c9f24b1be5402207bf77fcf0142ec473ad9d3ea65d35b7b5da124b99dce75a79e9c78ba9657eef20121030888863fcb4cdf5b7d33b40e613af35df8f39d576e7972238b0d396cd3fcc3f2ffffffff0220a10700000000001976a9148b427e2348c0b685d16027b3f25c766d9c7d72d488ac74239c02000000001976a91488d924f51033b74a895863a5fb57fd545529df7d88ac00000000", "vin": [{"sequence": 4294967295, "scriptSig": {"hex": "483045022100cc7c1f8e0f53b54585a156f272eff0a1f404a3a1e8135d0f52d68c9f24b1be5402207bf77fcf0142ec473ad9d3ea65d35b7b5da124b99dce75a79e9c78ba9657eef20121030888863fcb4cdf5b7d33b40e613af35df8f39d576e7972238b0d396cd3fcc3f2", "asm": "3045022100cc7c1f8e0f53b54585a156f272eff0a1f404a3a1e8135d0f52d68c9f24b1be5402207bf77fcf0142ec473ad9d3ea65d35b7b5da124b99dce75a79e9c78ba9657eef2[ALL] 030888863fcb4cdf5b7d33b40e613af35df8f39d576e7972238b0d396cd3fcc3f2"}, "vout": 1, "txid": "8dfd3f4daa56fa160a693d6e94b212f81387ae659675e14e6a94bf97088296bf"}], "txid": "3efc9b6767cfddb65f1d61c6597d1d12fc39ad63270eae939a47dff27cb4efb7", "blocktime": 1537875543, "version": 1, "confirmations": 11464, "time": 1537875543, "locktime": 0, "vsize": 226, "size": 226}