{"hash": "3efcc67b925c92b7a38dc9d23a38dc0759475063183d70782a615d1f5abd07d3", "blockhash": "0000000000000000001e0dab787dd257d1dbfcb92a98c2207d5e1078be1f4165", "vout": [{"scriptPubKey": {"reqSigs": 1, "hex": "00140b4359b3e6ad9f4759ae32dc05c526aced7c38c0", "addresses": ["bc1qpdp4nvlx4k05wkdwxtwqt3fx4nkhcwxql0ahvn"], "asm": "0 0b4359b3e6ad9f4759ae32dc05c526aced7c38c0", "type": "witness_v0_keyhash"}, "value": 0.00050246, "n": 0}, {"scriptPubKey": {"reqSigs": 1, "hex": "a9147f0c7b498d6607cff70374497e360361b98b497687", "addresses": ["3DGnh9DBRHcuQrgJ8F3jasNcQmVVCVmB28"], "asm": "OP_HASH160 7f0c7b498d6607cff70374497e360361b98b4976 OP_EQUAL", "type": "scripthash"}, "value": 0.02303713, "n": 1}], "hex": "010000000160d16859fae80b64735bdf325e59f9bb7f4591cae8c99eb6532275973abf662f3e0000006a4730440220072d6e0114f0bcfeb13e5a80457ea1180e2a30068c2703d45b34ef186fe78109022029b971b4164b9f6ed7155f35d0ef1d4f2d1b0c382c76b1fecd3820ac693142660121039abc1e4041c1df4f7fb44d1ccda3dab012ece3d2e736b47042c47a7772518a24ffffffff0246c40000000000001600140b4359b3e6ad9f4759ae32dc05c526aced7c38c0e12623000000000017a9147f0c7b498d6607cff70374497e360361b98b49768700000000", "vin": [{"sequence": 4294967295, "scriptSig": {"hex": "4730440220072d6e0114f0bcfeb13e5a80457ea1180e2a30068c2703d45b34ef186fe78109022029b971b4164b9f6ed7155f35d0ef1d4f2d1b0c382c76b1fecd3820ac693142660121039abc1e4041c1df4f7fb44d1ccda3dab012ece3d2e736b47042c47a7772518a24", "asm": "30440220072d6e0114f0bcfeb13e5a80457ea1180e2a30068c2703d45b34ef186fe78109022029b971b4164b9f6ed7155f35d0ef1d4f2d1b0c382c76b1fecd3820ac69314266[ALL] 039abc1e4041c1df4f7fb44d1ccda3dab012ece3d2e736b47042c47a7772518a24"}, "vout": 62, "txid": "2f66bf3a97752253b69ec9e8ca91457fbbf9595e32df5b73640be8fa5968d160"}], "txid": "3efcc67b925c92b7a38dc9d23a38dc0759475063183d70782a615d1f5abd07d3", "blocktime": 1537872475, "version": 1, "confirmations": 11486, "time": 1537872475, "locktime": 0, "vsize": 220, "size": 220}