{"hash": "3efe288f073fa0e967a621a91c877bf43b003b8624c7c69a10389644b0e76e29", "blockhash": "0000000000000000001f76057863aec43deb6fa401d9628bb513d65a8098bfab", "vout": [{"scriptPubKey": {"reqSigs": 1, "hex": "a914e2750a3cb08e652b6dcb6db95ef3a0db6d2eb03a87", "addresses": ["3NLQqyhasWhwpoRpp3Nzxs3zhyc8bp5hXK"], "asm": "OP_HASH160 e2750a3cb08e652b6dcb6db95ef3a0db6d2eb03a OP_EQUAL", "type": "scripthash"}, "value": 0.007333, "n": 0}, {"scriptPubKey": {"reqSigs": 1, "hex": "76a91440d25f240b29090d7161b80d94d2ee3b6370f29e88ac", "addresses": ["16ukGA17F94pBVUbEwsC9HWzuA3YkAHAP5"], "asm": "OP_DUP OP_HASH160 40d25f240b29090d7161b80d94d2ee3b6370f29e OP_EQUALVERIFY OP_CHECKSIG", "type": "pubkeyhash"}, "value": 0.20736934, "n": 1}], "hex": "010000000156e0d231d0daf7ae20dad98c696c9802f053e975e7e84f76e69817734c31e207010000006b483045022100cd94debf9e8257be90ab721d89be9e63f43718592ac6f5115e927d612f8c6e5d022041084dc34a37d4ac7cb21c1dbd4f65c7834b771391ceaab4d8f5a0a61c2875ff01210387f64bc38a87b1103373393d757661faedc590f3962cb77e790402c63a4eff16ffffffff0274300b000000000017a914e2750a3cb08e652b6dcb6db95ef3a0db6d2eb03a87a66b3c01000000001976a91440d25f240b29090d7161b80d94d2ee3b6370f29e88ac00000000", "vin": [{"sequence": 4294967295, "scriptSig": {"hex": "483045022100cd94debf9e8257be90ab721d89be9e63f43718592ac6f5115e927d612f8c6e5d022041084dc34a37d4ac7cb21c1dbd4f65c7834b771391ceaab4d8f5a0a61c2875ff01210387f64bc38a87b1103373393d757661faedc590f3962cb77e790402c63a4eff16", "asm": "3045022100cd94debf9e8257be90ab721d89be9e63f43718592ac6f5115e927d612f8c6e5d022041084dc34a37d4ac7cb21c1dbd4f65c7834b771391ceaab4d8f5a0a61c2875ff[ALL] 0387f64bc38a87b1103373393d757661faedc590f3962cb77e790402c63a4eff16"}, "vout": 1, "txid": "07e2314c731798e6764fe8e775e953f002986c698cd9da20aef7dad031d2e056"}], "txid": "3efe288f073fa0e967a621a91c877bf43b003b8624c7c69a10389644b0e76e29", "blocktime": 1537873891, "version": 1, "confirmations": 11478, "time": 1537873891, "locktime": 0, "vsize": 224, "size": 224}