{"hash": "3f0995eb29203c0cce8bf81697f69127b454043d562002323882a19abcc39ec9", "blockhash": "0000000000000000000baef3f32e3676a92c3b2e5da21b426e4f302fc371ce76", "vout": [{"scriptPubKey": {"type": "nulldata", "hex": "6a4c500000780d0001c78d17027948b65dd7fe9479702940d64fa54d8eb2d19ed074892d00f8e8f7d41f3189e6396d7460ecffa621c2e45baa1b3506145033477435ecbc9a9526289ac0f6612cd74e33776ee4", "asm": "OP_RETURN 0000780d0001c78d17027948b65dd7fe9479702940d64fa54d8eb2d19ed074892d00f8e8f7d41f3189e6396d7460ecffa621c2e45baa1b3506145033477435ecbc9a9526289ac0f6612cd74e33776ee4"}, "value": 0.0, "n": 0}, {"scriptPubKey": {"reqSigs": 1, "hex": "76a9147bd6a58a120d73a4f3aa6f1a90b8ba0b3965b07888ac", "addresses": ["1CHoFWHrhXYUDmXv7kvE9wbUvi9ngd3UQc"], "asm": "OP_DUP OP_HASH160 7bd6a58a120d73a4f3aa6f1a90b8ba0b3965b078 OP_EQUALVERIFY OP_CHECKSIG", "type": "pubkeyhash"}, "value": 0.0011956, "n": 1}], "hex": "0100000001ce266dffb59db8acfa1bc96b042efff82fbd1aa3ce103a566183423784c0b4c3000000006b4830450221009726f4db1fbd8def467d96a3611a86afbf9f844b4f2199521f61668b41beca0e02202fd44d05e3cd567bc918e28aa980f26a9c932b53cccd2397ead5d4b2d9ae3e7a012103183c45b8ccf6e7b33fca565614e92efbfcf76cb3a4c6107df6ee7fd5c3513d55ffffffff020000000000000000536a4c500000780d0001c78d17027948b65dd7fe9479702940d64fa54d8eb2d19ed074892d00f8e8f7d41f3189e6396d7460ecffa621c2e45baa1b3506145033477435ecbc9a9526289ac0f6612cd74e33776ee408d30100000000001976a9147bd6a58a120d73a4f3aa6f1a90b8ba0b3965b07888ac00000000", "vin": [{"sequence": 4294967295, "scriptSig": {"hex": "4830450221009726f4db1fbd8def467d96a3611a86afbf9f844b4f2199521f61668b41beca0e02202fd44d05e3cd567bc918e28aa980f26a9c932b53cccd2397ead5d4b2d9ae3e7a012103183c45b8ccf6e7b33fca565614e92efbfcf76cb3a4c6107df6ee7fd5c3513d55", "asm": "30450221009726f4db1fbd8def467d96a3611a86afbf9f844b4f2199521f61668b41beca0e02202fd44d05e3cd567bc918e28aa980f26a9c932b53cccd2397ead5d4b2d9ae3e7a[ALL] 03183c45b8ccf6e7b33fca565614e92efbfcf76cb3a4c6107df6ee7fd5c3513d55"}, "vout": 0, "txid": "c3b4c08437428361563a10cea31abd2ff8ff2e046bc91bfaacb89db5ff6d26ce"}], "txid": "3f0995eb29203c0cce8bf81697f69127b454043d562002323882a19abcc39ec9", "blocktime": 1537876114, "version": 1, "confirmations": 11460, "time": 1537876114, "locktime": 0, "vsize": 284, "size": 284}