{"hash": "3f129514205d4192008e6179caac66a0142f59c19ec287848c9dacf63ec9e652", "blockhash": "0000000000000000001f76057863aec43deb6fa401d9628bb513d65a8098bfab", "vout": [{"scriptPubKey": {"reqSigs": 1, "hex": "76a914cfe41b1ccae6148a80a3fd3362ac7c0a22a4b4ad88ac", "addresses": ["1KxE8nYZWeM1yJxSLTWRfWxYzSVZg1wi28"], "asm": "OP_DUP OP_HASH160 cfe41b1ccae6148a80a3fd3362ac7c0a22a4b4ad OP_EQUALVERIFY OP_CHECKSIG", "type": "pubkeyhash"}, "value": 0.000338, "n": 0}, {"scriptPubKey": {"reqSigs": 1, "hex": "a9140b1e45b3fbcc37463d1b85d63798d3947be0da7c87", "addresses": ["32hod1TDPgRwL1QNy7oihedWWgLDcLj5kf"], "asm": "OP_HASH160 0b1e45b3fbcc37463d1b85d63798d3947be0da7c OP_EQUAL", "type": "scripthash"}, "value": 0.0004, "n": 1}], "hex": "0100000001a4f76eddc0cf3ef165cef438e11e6afc00fe1dc7e9fe5e9c1eaacc2f8ff83206010000006b483045022100b6457b2e7cc76f6d4a41020a534ee45c9834a76631bd807c5c7a8bae9efd45fa02202771a1f416ba3b5cad2b024968015d987bc31e0e0b744354185a4fcf7a2aa4b60121030d1533be9e67d415ac3bfa39a3a5ecfbf72a30c368b0c2c2626711f4cbadf0bbffffffff0208840000000000001976a914cfe41b1ccae6148a80a3fd3362ac7c0a22a4b4ad88ac409c00000000000017a9140b1e45b3fbcc37463d1b85d63798d3947be0da7c8700000000", "vin": [{"sequence": 4294967295, "scriptSig": {"hex": "483045022100b6457b2e7cc76f6d4a41020a534ee45c9834a76631bd807c5c7a8bae9efd45fa02202771a1f416ba3b5cad2b024968015d987bc31e0e0b744354185a4fcf7a2aa4b60121030d1533be9e67d415ac3bfa39a3a5ecfbf72a30c368b0c2c2626711f4cbadf0bb", "asm": "3045022100b6457b2e7cc76f6d4a41020a534ee45c9834a76631bd807c5c7a8bae9efd45fa02202771a1f416ba3b5cad2b024968015d987bc31e0e0b744354185a4fcf7a2aa4b6[ALL] 030d1533be9e67d415ac3bfa39a3a5ecfbf72a30c368b0c2c2626711f4cbadf0bb"}, "vout": 1, "txid": "0632f88f2fccaa1e9c5efee9c71dfe00fc6a1ee138f4ce65f13ecfc0dd6ef7a4"}], "txid": "3f129514205d4192008e6179caac66a0142f59c19ec287848c9dacf63ec9e652", "blocktime": 1537873891, "version": 1, "confirmations": 11478, "time": 1537873891, "locktime": 0, "vsize": 224, "size": 224}