{"hash": "3f14bb1b343c89d90cdbe0de0093d6b0c1d30c2f5a6dd60b46ceae69cdc78488", "blockhash": "0000000000000000000e13cef7c366c0283d82e591d1acd082e914b08063cdf1", "vout": [{"scriptPubKey": {"reqSigs": 1, "hex": "a914f405966314c6d1a5b35ffc689fdc2e2c14b08a8687", "addresses": ["3PwHVaCNm3KEbWkBHZ3VusmZ4ih6j8rsG5"], "asm": "OP_HASH160 f405966314c6d1a5b35ffc689fdc2e2c14b08a86 OP_EQUAL", "type": "scripthash"}, "value": 1.47282325, "n": 0}], "hex": "010000000d33f3ef711f6ca8ddcfbe0352443c1c0732eccd0e7d7c4d1e6275998cc6a41b07000000006b483045022100c7b34323df84c73b17e3e8cb1331e0f1c4164a2e3f7fcb29c5bfaead3a96eefc022075cd712d1b74576b62f2adc38640eefa650df5e103d99f67ab306d580affdcf80121034841b18e5f3c169d1e277f8300da046a43ed91c98b7e6a8156024e5b1ae5848fffffffff757233dcf78a8403ef7a2c4c1ef6a4a49d3b11e62a311e986cfc4aafe63a7c58010000006b483045022100d805083e836726c3844704f059cae03092dd2b87c12983079105bf574207ee7d02203c9905fc22658dfb254ea70be5d6b269629a0518a99e5192dec74d2f0a1eefb10121034841b18e5f3c169d1e277f8300da046a43ed91c98b7e6a8156024e5b1ae5848fffffffff6880f50deae71e1b87a0db465f7e17ee4c5da684c16ff25fbcde738e2750aa60000000006b4830450221008e18a96a3a8aa582817b96c5fda42719c8ce0dddc49e43da7175e0377bc5daf6022072fdcab485011900fe8a37ad5cce68e6723bb42a7d6d84c5caf258cadd3c98f201210286fdff747eddf4dcacd5d25180d1c3b8d11c565e01d855956de24f119871711effffffffea8dfb0a22cdc734b8ee74a235fbf327e2f35b9ea85b5cdca01ae37cf65dfd60000000006a473044022012f1acdad7aa6830fdd1c9798cceed941e28ec379dcff991ca86f81fcf8d9402022030c1a64e49cbd833eefbd24a522a338aec150266a9951d2f665fed9ae627cb55012102208117ac4b338c824d07974532cd148c0b981582d0715f71142568a3e0968d09ffffffffc8b23083dd214e5f13ebecb20b401a223d822e496e5e463ac7d19649d6cb6062000000006a47304402207ed6a9cf705541786b9840fa1412c8ad07a2865674a68e1730f1e251a6eb5844022079241e9995d5631865c70130c9424adb8d8b66c7e3941ef6c3b54d1f1e5a8502012103526619141965aa0138cf4a1f721cf3fe668a8e0cc4a640658f9573a632079096ffffffff1b947deccd64a10e507ff4d4b0c98b7b2f53fa458860ec51c448f03f5be38b6b000000006b483045022100d1ecef89015a7b53b15cc0ff1d3d62a829f3ed7e1dbfe0dc04c7ceb8797bb69702203a591658bf6273ba72998ed612afafb05ed60e7693f787fd67ae5cbddb0318c20121034841b18e5f3c169d1e277f8300da046a43ed91c98b7e6a8156024e5b1ae5848fffffffffe869762007adc1a27fd499c26629d7a4f85ffa22bdfaecbdbd097e8365bbec83000000006a473044022006638112f8994c9920f2ddbff5b281258cf99faf96964a985bbde514ddd3596a022027d6d7a201cd5e73bb950abfc8a8ead61d554a902d6d6705e26417b96d4a618f012102208117ac4b338c824d07974532cd148c0b981582d0715f71142568a3e0968d09ffffffff5ee8e6c411dc3cc9f07e61476d103f80e92d9028061d07203bdc3d20a166c48d020000006b483045022100c2e344820552eb5eefc3bec58f9f7a176645968ec7d64bb3ccef11fa6e7ad7a6022072937f6459d3edaa62aefbf1a0cb2642b4632b9cf034157343d6a89273c4a34f012102208117ac4b338c824d07974532cd148c0b981582d0715f71142568a3e0968d09ffffffff158fc66702228ba1a9f7576ffe4c25e455065ce7def1e5335fa61e4003040ea4020000006a47304402201d192831183a26431f4123b03985a28dca3333f84b6ec366c2ec4eb309939b3e02201f316c2090002d5cb91f71c87509f950312738a8701af41797f137a1aacbf39e01210286fdff747eddf4dcacd5d25180d1c3b8d11c565e01d855956de24f119871711efffffffff79fda5c1c42e25643f467d73a2890a5bdcbe08766ca75597019831e4077baad000000006a4730440220358d09315b08d2028ebc9664bb1a1ebd5f85282262fd462aaa95f781617f7f420220272d1857e7a471580f6b9850d2f5ff8e69849f7c7f0c34c42837fff105a008c60121029bf18b5068205bf4ae1984b23ce72714d7da522a09d0a5520ec9a30894fc4a75ffffffffb4a29f58ae137f929dc17b30098658717c58b93c1e8d12287a1d33266c052ab1010000006a47304402201f58fb9b3ae175167eb120833389978bee4c89b9199b5a5490c16619c471e8b50220723c50be57c90c41d7f407b3c2305eeb49419bc00c62b650b5abfbd02385cc0e012103526619141965aa0138cf4a1f721cf3fe668a8e0cc4a640658f9573a632079096ffffffffb7d4acf0576073d9524374414733eeab96c64a0daf3f8a882c7028c999d1fbd2020000006b483045022100910187eb430ae9f1f7e1e89b8e0489ec1728157cdcf059f6538e645d60a9933302207f5abcac1884d8222768455fed02f938d19c01a1ba76062b15e1f30f6d2316fc01210286fdff747eddf4dcacd5d25180d1c3b8d11c565e01d855956de24f119871711effffffff9b8e1d9b1c7a3245a1686ec280f10bfcc08662b17ed1751115fd401bce3344ef000000006a47304402204183568dc09d70da2a64d1a8f12b71209571d4ce5478c143b8a81c96a12673de02200921bb3ca3a2988c8c11cd418c59fa24e1a9b73a2ee54f6f6d9744d89bd88b9b012103526619141965aa0138cf4a1f721cf3fe668a8e0cc4a640658f9573a632079096ffffffff019559c7080000000017a914f405966314c6d1a5b35ffc689fdc2e2c14b08a868700000000", "vin": [{"sequence": 4294967295, "scriptSig": {"hex": "483045022100c7b34323df84c73b17e3e8cb1331e0f1c4164a2e3f7fcb29c5bfaead3a96eefc022075cd712d1b74576b62f2adc38640eefa650df5e103d99f67ab306d580affdcf80121034841b18e5f3c169d1e277f8300da046a43ed91c98b7e6a8156024e5b1ae5848f", "asm": "3045022100c7b34323df84c73b17e3e8cb1331e0f1c4164a2e3f7fcb29c5bfaead3a96eefc022075cd712d1b74576b62f2adc38640eefa650df5e103d99f67ab306d580affdcf8[ALL] 034841b18e5f3c169d1e277f8300da046a43ed91c98b7e6a8156024e5b1ae5848f"}, "vout": 0, "txid": "071ba4c68c9975621e4d7c7d0ecdec32071c3c445203becfdda86c1f71eff333"}, {"sequence": 4294967295, "scriptSig": {"hex": "483045022100d805083e836726c3844704f059cae03092dd2b87c12983079105bf574207ee7d02203c9905fc22658dfb254ea70be5d6b269629a0518a99e5192dec74d2f0a1eefb10121034841b18e5f3c169d1e277f8300da046a43ed91c98b7e6a8156024e5b1ae5848f", "asm": "3045022100d805083e836726c3844704f059cae03092dd2b87c12983079105bf574207ee7d02203c9905fc22658dfb254ea70be5d6b269629a0518a99e5192dec74d2f0a1eefb1[ALL] 034841b18e5f3c169d1e277f8300da046a43ed91c98b7e6a8156024e5b1ae5848f"}, "vout": 1, "txid": "587c3ae6af4afc6c981e312ae6113b9da4a4f61e4c2c7aef03848af7dc337275"}, {"sequence": 4294967295, "scriptSig": {"hex": "4830450221008e18a96a3a8aa582817b96c5fda42719c8ce0dddc49e43da7175e0377bc5daf6022072fdcab485011900fe8a37ad5cce68e6723bb42a7d6d84c5caf258cadd3c98f201210286fdff747eddf4dcacd5d25180d1c3b8d11c565e01d855956de24f119871711e", "asm": "30450221008e18a96a3a8aa582817b96c5fda42719c8ce0dddc49e43da7175e0377bc5daf6022072fdcab485011900fe8a37ad5cce68e6723bb42a7d6d84c5caf258cadd3c98f2[ALL] 0286fdff747eddf4dcacd5d25180d1c3b8d11c565e01d855956de24f119871711e"}, "vout": 0, "txid": "60aa50278e73debc5ff26fc184a65d4cee177e5f46dba0871b1ee7ea0df58068"}, {"sequence": 4294967295, "scriptSig": {"hex": "473044022012f1acdad7aa6830fdd1c9798cceed941e28ec379dcff991ca86f81fcf8d9402022030c1a64e49cbd833eefbd24a522a338aec150266a9951d2f665fed9ae627cb55012102208117ac4b338c824d07974532cd148c0b981582d0715f71142568a3e0968d09", "asm": "3044022012f1acdad7aa6830fdd1c9798cceed941e28ec379dcff991ca86f81fcf8d9402022030c1a64e49cbd833eefbd24a522a338aec150266a9951d2f665fed9ae627cb55[ALL] 02208117ac4b338c824d07974532cd148c0b981582d0715f71142568a3e0968d09"}, "vout": 0, "txid": "60fd5df67ce31aa0dc5c5ba89e5bf3e227f3fb35a274eeb834c7cd220afb8dea"}, {"sequence": 4294967295, "scriptSig": {"hex": "47304402207ed6a9cf705541786b9840fa1412c8ad07a2865674a68e1730f1e251a6eb5844022079241e9995d5631865c70130c9424adb8d8b66c7e3941ef6c3b54d1f1e5a8502012103526619141965aa0138cf4a1f721cf3fe668a8e0cc4a640658f9573a632079096", "asm": "304402207ed6a9cf705541786b9840fa1412c8ad07a2865674a68e1730f1e251a6eb5844022079241e9995d5631865c70130c9424adb8d8b66c7e3941ef6c3b54d1f1e5a8502[ALL] 03526619141965aa0138cf4a1f721cf3fe668a8e0cc4a640658f9573a632079096"}, "vout": 0, "txid": "6260cbd64996d1c73a465e6e492e823d221a400bb2eceb135f4e21dd8330b2c8"}, {"sequence": 4294967295, "scriptSig": {"hex": "483045022100d1ecef89015a7b53b15cc0ff1d3d62a829f3ed7e1dbfe0dc04c7ceb8797bb69702203a591658bf6273ba72998ed612afafb05ed60e7693f787fd67ae5cbddb0318c20121034841b18e5f3c169d1e277f8300da046a43ed91c98b7e6a8156024e5b1ae5848f", "asm": "3045022100d1ecef89015a7b53b15cc0ff1d3d62a829f3ed7e1dbfe0dc04c7ceb8797bb69702203a591658bf6273ba72998ed612afafb05ed60e7693f787fd67ae5cbddb0318c2[ALL] 034841b18e5f3c169d1e277f8300da046a43ed91c98b7e6a8156024e5b1ae5848f"}, "vout": 0, "txid": "6b8be35b3ff048c451ec608845fa532f7b8bc9b0d4f47f500ea164cdec7d941b"}, {"sequence": 4294967295, "scriptSig": {"hex": "473044022006638112f8994c9920f2ddbff5b281258cf99faf96964a985bbde514ddd3596a022027d6d7a201cd5e73bb950abfc8a8ead61d554a902d6d6705e26417b96d4a618f012102208117ac4b338c824d07974532cd148c0b981582d0715f71142568a3e0968d09", "asm": "3044022006638112f8994c9920f2ddbff5b281258cf99faf96964a985bbde514ddd3596a022027d6d7a201cd5e73bb950abfc8a8ead61d554a902d6d6705e26417b96d4a618f[ALL] 02208117ac4b338c824d07974532cd148c0b981582d0715f71142568a3e0968d09"}, "vout": 0, "txid": "83ecbb65837e09bdbdecfabd22fa5ff8a4d72966c299d47fa2c1ad07207669e8"}, {"sequence": 4294967295, "scriptSig": {"hex": "483045022100c2e344820552eb5eefc3bec58f9f7a176645968ec7d64bb3ccef11fa6e7ad7a6022072937f6459d3edaa62aefbf1a0cb2642b4632b9cf034157343d6a89273c4a34f012102208117ac4b338c824d07974532cd148c0b981582d0715f71142568a3e0968d09", "asm": "3045022100c2e344820552eb5eefc3bec58f9f7a176645968ec7d64bb3ccef11fa6e7ad7a6022072937f6459d3edaa62aefbf1a0cb2642b4632b9cf034157343d6a89273c4a34f[ALL] 02208117ac4b338c824d07974532cd148c0b981582d0715f71142568a3e0968d09"}, "vout": 2, "txid": "8dc466a1203ddc3b20071d0628902de9803f106d47617ef0c93cdc11c4e6e85e"}, {"sequence": 4294967295, "scriptSig": {"hex": "47304402201d192831183a26431f4123b03985a28dca3333f84b6ec366c2ec4eb309939b3e02201f316c2090002d5cb91f71c87509f950312738a8701af41797f137a1aacbf39e01210286fdff747eddf4dcacd5d25180d1c3b8d11c565e01d855956de24f119871711e", "asm": "304402201d192831183a26431f4123b03985a28dca3333f84b6ec366c2ec4eb309939b3e02201f316c2090002d5cb91f71c87509f950312738a8701af41797f137a1aacbf39e[ALL] 0286fdff747eddf4dcacd5d25180d1c3b8d11c565e01d855956de24f119871711e"}, "vout": 2, "txid": "a40e0403401ea65f33e5f1dee75c0655e4254cfe6f57f7a9a18b220267c68f15"}, {"sequence": 4294967295, "scriptSig": {"hex": "4730440220358d09315b08d2028ebc9664bb1a1ebd5f85282262fd462aaa95f781617f7f420220272d1857e7a471580f6b9850d2f5ff8e69849f7c7f0c34c42837fff105a008c60121029bf18b5068205bf4ae1984b23ce72714d7da522a09d0a5520ec9a30894fc4a75", "asm": "30440220358d09315b08d2028ebc9664bb1a1ebd5f85282262fd462aaa95f781617f7f420220272d1857e7a471580f6b9850d2f5ff8e69849f7c7f0c34c42837fff105a008c6[ALL] 029bf18b5068205bf4ae1984b23ce72714d7da522a09d0a5520ec9a30894fc4a75"}, "vout": 0, "txid": "adba77401e8319705975ca6687e0cbbda590283ad767f44356e2421c5cda9ff7"}, {"sequence": 4294967295, "scriptSig": {"hex": "47304402201f58fb9b3ae175167eb120833389978bee4c89b9199b5a5490c16619c471e8b50220723c50be57c90c41d7f407b3c2305eeb49419bc00c62b650b5abfbd02385cc0e012103526619141965aa0138cf4a1f721cf3fe668a8e0cc4a640658f9573a632079096", "asm": "304402201f58fb9b3ae175167eb120833389978bee4c89b9199b5a5490c16619c471e8b50220723c50be57c90c41d7f407b3c2305eeb49419bc00c62b650b5abfbd02385cc0e[ALL] 03526619141965aa0138cf4a1f721cf3fe668a8e0cc4a640658f9573a632079096"}, "vout": 1, "txid": "b12a056c26331d7a28128d1e3cb9587c71588609307bc19d927f13ae589fa2b4"}, {"sequence": 4294967295, "scriptSig": {"hex": "483045022100910187eb430ae9f1f7e1e89b8e0489ec1728157cdcf059f6538e645d60a9933302207f5abcac1884d8222768455fed02f938d19c01a1ba76062b15e1f30f6d2316fc01210286fdff747eddf4dcacd5d25180d1c3b8d11c565e01d855956de24f119871711e", "asm": "3045022100910187eb430ae9f1f7e1e89b8e0489ec1728157cdcf059f6538e645d60a9933302207f5abcac1884d8222768455fed02f938d19c01a1ba76062b15e1f30f6d2316fc[ALL] 0286fdff747eddf4dcacd5d25180d1c3b8d11c565e01d855956de24f119871711e"}, "vout": 2, "txid": "d2fbd199c928702c888a3faf0d4ac696abee334741744352d9736057f0acd4b7"}, {"sequence": 4294967295, "scriptSig": {"hex": "47304402204183568dc09d70da2a64d1a8f12b71209571d4ce5478c143b8a81c96a12673de02200921bb3ca3a2988c8c11cd418c59fa24e1a9b73a2ee54f6f6d9744d89bd88b9b012103526619141965aa0138cf4a1f721cf3fe668a8e0cc4a640658f9573a632079096", "asm": "304402204183568dc09d70da2a64d1a8f12b71209571d4ce5478c143b8a81c96a12673de02200921bb3ca3a2988c8c11cd418c59fa24e1a9b73a2ee54f6f6d9744d89bd88b9b[ALL] 03526619141965aa0138cf4a1f721cf3fe668a8e0cc4a640658f9573a632079096"}, "vout": 0, "txid": "ef4433ce1b40fd151175d17eb16286c0fc0bf180c26e68a145327a1c9b1d8e9b"}], "txid": "3f14bb1b343c89d90cdbe0de0093d6b0c1d30c2f5a6dd60b46ceae69cdc78488", "blocktime": 1537871767, "version": 1, "confirmations": 11495, "time": 1537871767, "locktime": 0, "vsize": 1959, "size": 1959}