{"hash": "3f15ff8dea1c19cf55bb671e9c623daf88a740047f631ddfc52c0e743a99a603", "blockhash": "0000000000000000000e13cef7c366c0283d82e591d1acd082e914b08063cdf1", "vout": [{"scriptPubKey": {"reqSigs": 1, "hex": "76a91442e8202316b81ef786ad2b558c6e703c3156e01a88ac", "addresses": ["176mg2VeZp5a7zpWRym4qC9H9wuFern5oU"], "asm": "OP_DUP OP_HASH160 42e8202316b81ef786ad2b558c6e703c3156e01a OP_EQUALVERIFY OP_CHECKSIG", "type": "pubkeyhash"}, "value": 0.03620293, "n": 0}, {"scriptPubKey": {"reqSigs": 1, "hex": "a914246aa4e0e96af9d8854a05339ac11a34fdc4e23587", "addresses": ["351a1D44UhdYYCTk3djVJU84xLdpBZxZ4Q"], "asm": "OP_HASH160 246aa4e0e96af9d8854a05339ac11a34fdc4e235 OP_EQUAL", "type": "scripthash"}, "value": 0.032, "n": 1}], "hex": "0100000001e5f7b063465d925a7bea8a6cc69df8829c59dffd710e91d764194f28ad191661110000006b483045022100f19d04bc189f872e999976623d60017128bd9eab1a41f36365a9c2843d7457a402203f67daa851f89c6bea9741f9f41d8573cfd119fd2af90363d8bc2d0174790b510121035f03345725df964874605d30ff97c2179bd41ed89f38ac0b0f6e91d4539e93ceffffffff02c53d3700000000001976a91442e8202316b81ef786ad2b558c6e703c3156e01a88ac00d430000000000017a914246aa4e0e96af9d8854a05339ac11a34fdc4e2358700000000", "vin": [{"sequence": 4294967295, "scriptSig": {"hex": "483045022100f19d04bc189f872e999976623d60017128bd9eab1a41f36365a9c2843d7457a402203f67daa851f89c6bea9741f9f41d8573cfd119fd2af90363d8bc2d0174790b510121035f03345725df964874605d30ff97c2179bd41ed89f38ac0b0f6e91d4539e93ce", "asm": "3045022100f19d04bc189f872e999976623d60017128bd9eab1a41f36365a9c2843d7457a402203f67daa851f89c6bea9741f9f41d8573cfd119fd2af90363d8bc2d0174790b51[ALL] 035f03345725df964874605d30ff97c2179bd41ed89f38ac0b0f6e91d4539e93ce"}, "vout": 17, "txid": "611619ad284f1964d7910e71fddf599c82f89dc66c8aea7b5a925d4663b0f7e5"}], "txid": "3f15ff8dea1c19cf55bb671e9c623daf88a740047f631ddfc52c0e743a99a603", "blocktime": 1537871767, "version": 1, "confirmations": 11494, "time": 1537871767, "locktime": 0, "vsize": 224, "size": 224}