{"hash": "630c499d7bb7c20fa3b3fe82e4740097a7b35560241f4fd70623af6091c5eb48", "blockhash": "0000000000000000000e13cef7c366c0283d82e591d1acd082e914b08063cdf1", "vout": [{"scriptPubKey": {"reqSigs": 1, "hex": "a914e94c78e6f5e0d53f616d7102e4a835b497c1294687", "addresses": ["3NxaydKV97HH5bo1Yd7BEQiQpbdCepvTfe"], "asm": "OP_HASH160 e94c78e6f5e0d53f616d7102e4a835b497c12946 OP_EQUAL", "type": "scripthash"}, "value": 0.0114904, "n": 0}, {"scriptPubKey": {"reqSigs": 1, "hex": "a9147f52195d9f40bd1074fb043f519e906c9b0133cd87", "addresses": ["3DJE6FVPGeahcSgSJkrz7Vbxg6sA6mERac"], "asm": "OP_HASH160 7f52195d9f40bd1074fb043f519e906c9b0133cd OP_EQUAL", "type": "scripthash"}, "value": 0.01149, "n": 1}, {"scriptPubKey": {"reqSigs": 1, "hex": "a91424411aac2dba3f73a5a16261bab18c727cdcb8fa87", "addresses": ["34ziEy6nhcHTdJoykmqLhWzqLRuvyEe8xq"], "asm": "OP_HASH160 24411aac2dba3f73a5a16261bab18c727cdcb8fa OP_EQUAL", "type": "scripthash"}, "value": 0.01609313, "n": 2}], "hex": "01000000000101fcd2f55718dd2bf9b120331fd0108823ebcf61d13923608d6057e888ef84eb73020000002322002035fb700e07aab661c4ea087166dede7a3527cfc4f4466f853df607c03a97a743ffffffff03708811000000000017a914e94c78e6f5e0d53f616d7102e4a835b497c1294687488811000000000017a9147f52195d9f40bd1074fb043f519e906c9b0133cd87618e18000000000017a91424411aac2dba3f73a5a16261bab18c727cdcb8fa87040047304402200c70687d7c199eb883ac488a08273ef1e896d50fbdd66e364459788fc6a7b244022076dd21d058de80c6b583f1bcbe3615e94b9afe56bed658f2208133c9e2cd533501483045022100e839c31ba5c2eed350a9a38a1c1ae3783c1c8261966c7c0cf8c70e959ffb9550022026d7ae060b3ec0ddf8e8fc4782c90f6512bb4834651ddc21f97e303a12599ff40147522102fb325f6c038974a5b5f710bab95b547f01b72bb95206a6ba3543c612c105f4a721038407424ead2b88063db2d589e50c34e1572f6b82eb9e266dec536939ee0db9eb52ae00000000", "vin": [{"txinwitness": ["", "304402200c70687d7c199eb883ac488a08273ef1e896d50fbdd66e364459788fc6a7b244022076dd21d058de80c6b583f1bcbe3615e94b9afe56bed658f2208133c9e2cd533501", "3045022100e839c31ba5c2eed350a9a38a1c1ae3783c1c8261966c7c0cf8c70e959ffb9550022026d7ae060b3ec0ddf8e8fc4782c90f6512bb4834651ddc21f97e303a12599ff401", "522102fb325f6c038974a5b5f710bab95b547f01b72bb95206a6ba3543c612c105f4a721038407424ead2b88063db2d589e50c34e1572f6b82eb9e266dec536939ee0db9eb52ae"], "sequence": 4294967295, "scriptSig": {"hex": "22002035fb700e07aab661c4ea087166dede7a3527cfc4f4466f853df607c03a97a743", "asm": "002035fb700e07aab661c4ea087166dede7a3527cfc4f4466f853df607c03a97a743"}, "vout": 2, "txid": "73eb84ef88e857608d602339d161cfeb238810d01f3320b1f92bdd1857f5d2fc"}], "txid": "3f16d60e39c00c19cee31c4007ba2748e47c254e28078caf26e41bc1a69d296f", "blocktime": 1537871767, "version": 1, "confirmations": 11491, "time": 1537871767, "locktime": 0, "vsize": 238, "size": 403}