{"hash": "d305e5c0c74190da9238a2d2c3c84e7891aee8136cf5baf1bf6eb467e18fbe01", "blockhash": "00000000000000000018f53835495a110e01622372bf6ae95dc86f2b0ab887b0", "vout": [{"scriptPubKey": {"reqSigs": 1, "hex": "a914616ed794be3fb663e3cd328ffab2f2a10f63598387", "addresses": ["3AaCFbYQKGKg3Enj5LFzDbcRsfTVTrgvke"], "asm": "OP_HASH160 616ed794be3fb663e3cd328ffab2f2a10f635983 OP_EQUAL", "type": "scripthash"}, "value": 2.32509279, "n": 0}, {"scriptPubKey": {"reqSigs": 1, "hex": "a914a71d5bee9728b0f0b78a895fff025bc034aa69ee87", "addresses": ["3GvdwV9YFjCWhEQKK1duQvuU3osyWi9FDf"], "asm": "OP_HASH160 a71d5bee9728b0f0b78a895fff025bc034aa69ee OP_EQUAL", "type": "scripthash"}, "value": 0.70373097, "n": 1}], "hex": "02000000000101556a8c8fa33e3eb294207cea896be65e18b925d49fb1387ef914bd4e95a173ff000000001716001427ae1ac74c674fe4fe9830f5beaa7763504ae593fdffffff025fcfdb0d0000000017a914616ed794be3fb663e3cd328ffab2f2a10f63598387e9ce31040000000017a914a71d5bee9728b0f0b78a895fff025bc034aa69ee8702483045022100bf234e818b690a4e519a74ef2895e74686eac286a4f5591f6dbf582bb5a8d8ac02201093569061d474f67505370f76ecae421f9f09c0fde4fcf4750944223bead4180121024d19b1ab4c101ce0f072814b19141c90865f7281bb393a1d955be806b381619c0e490800", "vin": [{"txinwitness": ["3045022100bf234e818b690a4e519a74ef2895e74686eac286a4f5591f6dbf582bb5a8d8ac02201093569061d474f67505370f76ecae421f9f09c0fde4fcf4750944223bead41801", "024d19b1ab4c101ce0f072814b19141c90865f7281bb393a1d955be806b381619c"], "sequence": 4294967293, "scriptSig": {"hex": "16001427ae1ac74c674fe4fe9830f5beaa7763504ae593", "asm": "001427ae1ac74c674fe4fe9830f5beaa7763504ae593"}, "vout": 0, "txid": "ff73a1954ebd14f97e38b19fd425b9185ee66b89ea7c2094b23e3ea38f8c6a55"}], "txid": "3f1981828c70b61f9fc02f0edfcacd3fcc25922fed4273a0eedf334bbe50d43c", "blocktime": 1537870928, "version": 2, "confirmations": 11512, "time": 1537870928, "locktime": 542990, "vsize": 166, "size": 248}