{"hash": "19da272c6b4a568b513da897f1787c8b108c430cbc100a738dc7363d195b15aa", "blockhash": "0000000000000000000dcc0f55137456b1a82d3642486a52398922ac4d620174", "vout": [{"scriptPubKey": {"reqSigs": 1, "hex": "a914edacaa4eae83fc72cac7fdd866331233449c8a7387", "addresses": ["3PMiuzyUgDxWNZZFGDJ3V89XXoV5wW6pHN"], "asm": "OP_HASH160 edacaa4eae83fc72cac7fdd866331233449c8a73 OP_EQUAL", "type": "scripthash"}, "value": 0.0001, "n": 0}, {"scriptPubKey": {"reqSigs": 1, "hex": "0014620d9b4b49446f1edbc96c105a080db93a834359", "addresses": ["bc1qvgxekj6fg3h3ak7fdsg95zqdhyagxs6ezxq4s8"], "asm": "0 620d9b4b49446f1edbc96c105a080db93a834359", "type": "witness_v0_keyhash"}, "value": 12.52389406, "n": 1}], "hex": "01000000000101b2c5630aeba550bf73ae466ce5fc34374297bcd4c63ebdb61615c9c27798edc70100000000ffffffff02102700000000000017a914edacaa4eae83fc72cac7fdd866331233449c8a73871ef2a54a00000000160014620d9b4b49446f1edbc96c105a080db93a8343590248304502210092437e77e7c8c27ba9f7b25afb9a51d630744a06dbca2a6536a48b007f84916f02202413d03397d730ea7aa9d94048434ab872741a9ba62dbca1d22878778733d124012102e3a8c16784b884af9082b2dd303b40a1375f2973d8e57a12d0ef1ed8733675b600000000", "vin": [{"txinwitness": ["304502210092437e77e7c8c27ba9f7b25afb9a51d630744a06dbca2a6536a48b007f84916f02202413d03397d730ea7aa9d94048434ab872741a9ba62dbca1d22878778733d12401", "02e3a8c16784b884af9082b2dd303b40a1375f2973d8e57a12d0ef1ed8733675b6"], "sequence": 4294967295, "scriptSig": {"hex": "", "asm": ""}, "vout": 1, "txid": "c7ed9877c2c91516b6bd3ec6d4bc97423734fce56c46ae73bf50a5eb0a63c5b2"}], "txid": "3f1999879184bede3788e415ccd6db4e6b72e52a96c7e92600c757a2f8af8a1c", "blocktime": 1537870268, "version": 1, "confirmations": 11518, "time": 1537870268, "locktime": 0, "vsize": 142, "size": 224}