{"hash": "3f1c9bf8fa7ead61b8b4c9abf0356d5092a582b9edd3ddc3fe7fe1c87a034b2e", "blockhash": "0000000000000000001cda96e906b7601b7a6fb1a3b62bca570a9e5d8f4b3de1", "vout": [{"scriptPubKey": {"reqSigs": 1, "hex": "76a914add8e31f03eb4250077b0c5d67593f5d5d33905e88ac", "addresses": ["1GrDimqCyKCT3ASMR3fCLzT1U9rvxnFZhR"], "asm": "OP_DUP OP_HASH160 add8e31f03eb4250077b0c5d67593f5d5d33905e OP_EQUALVERIFY OP_CHECKSIG", "type": "pubkeyhash"}, "value": 0.0020438, "n": 0}, {"scriptPubKey": {"reqSigs": 1, "hex": "a914a283fc96fe2b78f041481a430d069787e8d145fa87", "addresses": ["3GWKWDTDpY1vmeGcDHXRpKWjE5Z3tkKtmK"], "asm": "OP_HASH160 a283fc96fe2b78f041481a430d069787e8d145fa OP_EQUAL", "type": "scripthash"}, "value": 0.01732008, "n": 1}], "hex": "0100000001044cb316ab70d4e401699cc04589fab36e3132aad69b56fea0e74fe6688a36e0000000006a47304402204fa5da28b4d084dce978bdfa59d0147575936cda2a65f8042185bab188925f1502204f304dddd1123cdfe1a6a7ac4287d2b80a283508efde322982e849b9421d3aaa0121037da7a6794e8bd85d9efe367a60af5effde023d529366bd4ab4acf5cfb79cd54dffffffff025c1e0300000000001976a914add8e31f03eb4250077b0c5d67593f5d5d33905e88aca86d1a000000000017a914a283fc96fe2b78f041481a430d069787e8d145fa8700000000", "vin": [{"sequence": 4294967295, "scriptSig": {"hex": "47304402204fa5da28b4d084dce978bdfa59d0147575936cda2a65f8042185bab188925f1502204f304dddd1123cdfe1a6a7ac4287d2b80a283508efde322982e849b9421d3aaa0121037da7a6794e8bd85d9efe367a60af5effde023d529366bd4ab4acf5cfb79cd54d", "asm": "304402204fa5da28b4d084dce978bdfa59d0147575936cda2a65f8042185bab188925f1502204f304dddd1123cdfe1a6a7ac4287d2b80a283508efde322982e849b9421d3aaa[ALL] 037da7a6794e8bd85d9efe367a60af5effde023d529366bd4ab4acf5cfb79cd54d"}, "vout": 0, "txid": "e0368a68e64fe7a0fe569bd6aa32316eb3fa8945c09c6901e4d470ab16b34c04"}], "txid": "3f1c9bf8fa7ead61b8b4c9abf0356d5092a582b9edd3ddc3fe7fe1c87a034b2e", "blocktime": 1537873282, "version": 1, "confirmations": 11484, "time": 1537873282, "locktime": 0, "vsize": 223, "size": 223}