{"hash": "3f1c78c74f36019f42d190316bd76921d1baec58adbae360046f9cb7d76961fb", "blockhash": "0000000000000000001e0dab787dd257d1dbfcb92a98c2207d5e1078be1f4165", "vout": [{"scriptPubKey": {"reqSigs": 1, "hex": "a91488d6cadc412ad08189a2d56625c3c884cdf25b2787", "addresses": ["3EAZ8fvXDJEVssFR4JhpC8McduPpR6gxat"], "asm": "OP_HASH160 88d6cadc412ad08189a2d56625c3c884cdf25b27 OP_EQUAL", "type": "scripthash"}, "value": 3.07043215, "n": 0}], "hex": "01000000043337ce742e93b6cc2ed9f3f1a1ac4fa6e6d215b2f9c49153517f25609254af00000000006b483045022100bcad34e61863d291bf26f78546cbdf8146438c4984adb40c6413106e32b17869022004deca0984a6eeeb4c6464090af75c493c5277c172b2d9895b370c30e992f52b01210219aebf01ff89a5f7e4f28b0375fa83eb2d40c1de1cdd9ed8af5e8cede276b068fdffffffaf548c531b14ed15452882d2d5c1430d25468a1ccd198bbae77f7b2695bb4c55000000006a473044022054e0d79e1747bcfb263ca589bc6372dd8ea0b59f7093b7343e10747111de0708022067b045e41cfbc86eede799210bd55a1316c96b882fde874e42892c4be1a2fd5e012103942cfa8c09a1232a90210e55bcf5885493b54e41c48a1bfe139328651c047268fdffffff5ffbcb3fa5eab027b00d6e4e8729dbe29044309da97145c84344a0080d97cbbe020000006b483045022100e6bfd2c7db636f6f76870535ed64ead6c98a5a50791f1721e98d66ffb43ed246022009506ad88e879caa254fb40956baec9b66e661e8cb044b6342dbc342e418eece012102f0678cdeb6f6bbf123029a891138b166acad1709d0ed782d95a01b3ca2103e79fdffffff06a523176379b4055479cd425049fa77271f03822c004671d2cf0e1d4f5da0d7000000006b483045022100e33ac1d9aa0de97d9269b3f2639f1d8015bf9b884aec75e86925fbb17e80a93402202ae3ef85818bf8d033b8e128927cbb91a6b93f400d33f2214e3cf5ec4d79b23a012103b3703115a6106d2434f4e5510c70a0e080bc3342326280c27f977c85490ea2dbfdffffff018f1b4d120000000017a91488d6cadc412ad08189a2d56625c3c884cdf25b278712490800", "vin": [{"sequence": 4294967293, "scriptSig": {"hex": "483045022100bcad34e61863d291bf26f78546cbdf8146438c4984adb40c6413106e32b17869022004deca0984a6eeeb4c6464090af75c493c5277c172b2d9895b370c30e992f52b01210219aebf01ff89a5f7e4f28b0375fa83eb2d40c1de1cdd9ed8af5e8cede276b068", "asm": "3045022100bcad34e61863d291bf26f78546cbdf8146438c4984adb40c6413106e32b17869022004deca0984a6eeeb4c6464090af75c493c5277c172b2d9895b370c30e992f52b[ALL] 0219aebf01ff89a5f7e4f28b0375fa83eb2d40c1de1cdd9ed8af5e8cede276b068"}, "vout": 0, "txid": "00af549260257f515391c4f9b215d2e6a64faca1f1f3d92eccb6932e74ce3733"}, {"sequence": 4294967293, "scriptSig": {"hex": "473044022054e0d79e1747bcfb263ca589bc6372dd8ea0b59f7093b7343e10747111de0708022067b045e41cfbc86eede799210bd55a1316c96b882fde874e42892c4be1a2fd5e012103942cfa8c09a1232a90210e55bcf5885493b54e41c48a1bfe139328651c047268", "asm": "3044022054e0d79e1747bcfb263ca589bc6372dd8ea0b59f7093b7343e10747111de0708022067b045e41cfbc86eede799210bd55a1316c96b882fde874e42892c4be1a2fd5e[ALL] 03942cfa8c09a1232a90210e55bcf5885493b54e41c48a1bfe139328651c047268"}, "vout": 0, "txid": "554cbb95267b7fe7ba8b19cd1c8a46250d43c1d5d282284515ed141b538c54af"}, {"sequence": 4294967293, "scriptSig": {"hex": "483045022100e6bfd2c7db636f6f76870535ed64ead6c98a5a50791f1721e98d66ffb43ed246022009506ad88e879caa254fb40956baec9b66e661e8cb044b6342dbc342e418eece012102f0678cdeb6f6bbf123029a891138b166acad1709d0ed782d95a01b3ca2103e79", "asm": "3045022100e6bfd2c7db636f6f76870535ed64ead6c98a5a50791f1721e98d66ffb43ed246022009506ad88e879caa254fb40956baec9b66e661e8cb044b6342dbc342e418eece[ALL] 02f0678cdeb6f6bbf123029a891138b166acad1709d0ed782d95a01b3ca2103e79"}, "vout": 2, "txid": "becb970d08a04443c84571a99d304490e2db29874e6e0db027b0eaa53fcbfb5f"}, {"sequence": 4294967293, "scriptSig": {"hex": "483045022100e33ac1d9aa0de97d9269b3f2639f1d8015bf9b884aec75e86925fbb17e80a93402202ae3ef85818bf8d033b8e128927cbb91a6b93f400d33f2214e3cf5ec4d79b23a012103b3703115a6106d2434f4e5510c70a0e080bc3342326280c27f977c85490ea2db", "asm": "3045022100e33ac1d9aa0de97d9269b3f2639f1d8015bf9b884aec75e86925fbb17e80a93402202ae3ef85818bf8d033b8e128927cbb91a6b93f400d33f2214e3cf5ec4d79b23a[ALL] 03b3703115a6106d2434f4e5510c70a0e080bc3342326280c27f977c85490ea2db"}, "vout": 0, "txid": "d7a05d4f1d0ecfd27146002c82031f2777fa495042cd795405b479631723a506"}], "txid": "3f1c78c74f36019f42d190316bd76921d1baec58adbae360046f9cb7d76961fb", "blocktime": 1537872475, "version": 1, "confirmations": 11488, "time": 1537872475, "locktime": 542994, "vsize": 633, "size": 633}