{"hash": "eba934e7716e76369f523b3ed85abb5bcb876bcb427dfa69d29d4f6ddff5c183", "blockhash": "0000000000000000001e0dab787dd257d1dbfcb92a98c2207d5e1078be1f4165", "vout": [{"scriptPubKey": {"reqSigs": 1, "hex": "0014d9a97c823f818b7d5e3714de9f804c6bb0493a7d", "addresses": ["bc1qmx5heq3lsx9h6h3hzn0flqzvdwcyjwnax87k2d"], "asm": "0 d9a97c823f818b7d5e3714de9f804c6bb0493a7d", "type": "witness_v0_keyhash"}, "value": 0.00065136, "n": 0}, {"scriptPubKey": {"reqSigs": 1, "hex": "76a914327624ad2ba931c4de20381500b0058e39c68a9b88ac", "addresses": ["15bpKL7w4o3Gzqvni6KfE712FELyRSU2vN"], "asm": "OP_DUP OP_HASH160 327624ad2ba931c4de20381500b0058e39c68a9b OP_EQUALVERIFY OP_CHECKSIG", "type": "pubkeyhash"}, "value": 0.00884577, "n": 1}], "hex": "0100000000010129b05cf3333e48ba39689aa444f0efe01f96cffd910328c304ea2bcbba692f201000000017160014707bd6fc151b86975705048b58becca1facc07e0ffffffff0270fe000000000000160014d9a97c823f818b7d5e3714de9f804c6bb0493a7d617f0d00000000001976a914327624ad2ba931c4de20381500b0058e39c68a9b88ac02483045022100e33c0b99203d00d0e88ad0315c6c9853886ea4552904e6eb2557df7ede42e40c022072949f36ca9422c211419e30cdd3097794b62d07097f1e00766c634925c7d76d0121027363dde56311a0605fb4cda6bccd3aa06bba8e7dfc50444dcdbb645b12cd83f800000000", "vin": [{"txinwitness": ["3045022100e33c0b99203d00d0e88ad0315c6c9853886ea4552904e6eb2557df7ede42e40c022072949f36ca9422c211419e30cdd3097794b62d07097f1e00766c634925c7d76d01", "027363dde56311a0605fb4cda6bccd3aa06bba8e7dfc50444dcdbb645b12cd83f8"], "sequence": 4294967295, "scriptSig": {"hex": "160014707bd6fc151b86975705048b58becca1facc07e0", "asm": "0014707bd6fc151b86975705048b58becca1facc07e0"}, "vout": 16, "txid": "202f69bacb2bea04c3280391fdcf961fe0eff044a49a6839ba483e33f35cb029"}], "txid": "3f2167ec9fe47780e43559d34950df4a5e4dabc27b44e3aaded2c83f11c117e4", "blocktime": 1537872475, "version": 1, "confirmations": 11487, "time": 1537872475, "locktime": 0, "vsize": 167, "size": 249}