{"hash": "3f23c238d78324e2d7ecb20901446d1dd140a4afac34b1d6df22d263f7b7c674", "blockhash": "0000000000000000001f76057863aec43deb6fa401d9628bb513d65a8098bfab", "vout": [{"scriptPubKey": {"type": "nulldata", "hex": "6a146f6d6e69000000000000001f000000266bf1a0af", "asm": "OP_RETURN 6f6d6e69000000000000001f000000266bf1a0af"}, "value": 0.0, "n": 0}, {"scriptPubKey": {"reqSigs": 1, "hex": "76a9149d00616481ae3886f0fe83f2fa881c20cdc0a33388ac", "addresses": ["1FK9YYwtpSup7Nfu7czSU3WmYfNoqkHdPP"], "asm": "OP_DUP OP_HASH160 9d00616481ae3886f0fe83f2fa881c20cdc0a333 OP_EQUALVERIFY OP_CHECKSIG", "type": "pubkeyhash"}, "value": 5.46e-06, "n": 1}, {"scriptPubKey": {"reqSigs": 1, "hex": "76a914076e75ce09c30b31c2f829ded16f4da240d0bdb188ac", "addresses": ["1gJ4FX7n4Udk1LVUSnutAgznyG9JZdQEU"], "asm": "OP_DUP OP_HASH160 076e75ce09c30b31c2f829ded16f4da240d0bdb1 OP_EQUALVERIFY OP_CHECKSIG", "type": "pubkeyhash"}, "value": 0.06649114, "n": 2}], "hex": "0100000001f2652e1f9fb2860f67ed770d6135057a9983e2aa48e0f4f892bb6c00bb584556010000006a47304402202048b67d9d2f6f688ff3ea3f6118e926a9b4af7c078b3847b35fddcd75ae3b66022061ca049cd46e8895c96b4bae56f469c2194e9a97f3dcb7492619b38c9d5c6de10121035852ad92d5267f74e1084756b977f255fdcda3a19d87347ddd760c2de4aecb9afeffffff030000000000000000166a146f6d6e69000000000000001f000000266bf1a0af22020000000000001976a9149d00616481ae3886f0fe83f2fa881c20cdc0a33388ac1a756500000000001976a914076e75ce09c30b31c2f829ded16f4da240d0bdb188ac14490800", "vin": [{"sequence": 4294967294, "scriptSig": {"hex": "47304402202048b67d9d2f6f688ff3ea3f6118e926a9b4af7c078b3847b35fddcd75ae3b66022061ca049cd46e8895c96b4bae56f469c2194e9a97f3dcb7492619b38c9d5c6de10121035852ad92d5267f74e1084756b977f255fdcda3a19d87347ddd760c2de4aecb9a", "asm": "304402202048b67d9d2f6f688ff3ea3f6118e926a9b4af7c078b3847b35fddcd75ae3b66022061ca049cd46e8895c96b4bae56f469c2194e9a97f3dcb7492619b38c9d5c6de1[ALL] 035852ad92d5267f74e1084756b977f255fdcda3a19d87347ddd760c2de4aecb9a"}, "vout": 1, "txid": "564558bb006cbb92f8f4e048aae283997a0535610d77ed670f86b29f1f2e65f2"}], "txid": "3f23c238d78324e2d7ecb20901446d1dd140a4afac34b1d6df22d263f7b7c674", "blocktime": 1537873891, "version": 1, "confirmations": 11474, "time": 1537873891, "locktime": 542996, "vsize": 256, "size": 256}