{"hash": "3f25fcdfcec63b7290ec40e5ba9a3c18a3dedb169a79ce2b57ab4bc806223664", "blockhash": "0000000000000000001f0ddff1eddb255c1121bcd4da4f1bc9a0da00cae72433", "vout": [{"scriptPubKey": {"reqSigs": 1, "hex": "a914ba8a453f72c97fb3caefb55a8dd1502da126d51287", "addresses": ["3JhMFRiTtKVrkm5fX85w6AJY4aD8dagHTD"], "asm": "OP_HASH160 ba8a453f72c97fb3caefb55a8dd1502da126d512 OP_EQUAL", "type": "scripthash"}, "value": 0.00949, "n": 0}], "hex": "0100000001446b30e2f781cdcb5073563d08e1bd8b2748db1e05a3dd759a737b35911a6222000000006b483045022100bac0978556d0d4b9b8b6b69bfeaee9719e9e63c439c6713b918ca5b5bf7d839702207eb7ba0c5cc03095fcdc9dd10a613c7a1b43213e5d8a2575fa2b2e6c909d6b14012102d677a31bd87e25c942ecfca58695362b4166b9517a6aba83b5ffdd7e274fa32affffffff01087b0e000000000017a914ba8a453f72c97fb3caefb55a8dd1502da126d5128700000000", "vin": [{"sequence": 4294967295, "scriptSig": {"hex": "483045022100bac0978556d0d4b9b8b6b69bfeaee9719e9e63c439c6713b918ca5b5bf7d839702207eb7ba0c5cc03095fcdc9dd10a613c7a1b43213e5d8a2575fa2b2e6c909d6b14012102d677a31bd87e25c942ecfca58695362b4166b9517a6aba83b5ffdd7e274fa32a", "asm": "3045022100bac0978556d0d4b9b8b6b69bfeaee9719e9e63c439c6713b918ca5b5bf7d839702207eb7ba0c5cc03095fcdc9dd10a613c7a1b43213e5d8a2575fa2b2e6c909d6b14[ALL] 02d677a31bd87e25c942ecfca58695362b4166b9517a6aba83b5ffdd7e274fa32a"}, "vout": 0, "txid": "22621a91357b739a75dda3051edb48278bbde1083d567350cbcd81f7e2306b44"}], "txid": "3f25fcdfcec63b7290ec40e5ba9a3c18a3dedb169a79ce2b57ab4bc806223664", "blocktime": 1537872018, "version": 1, "confirmations": 11489, "time": 1537872018, "locktime": 0, "vsize": 190, "size": 190}