{"hash": "3f2b33c7946d89f695d9e9b78a8f20ba905b314168ea240158009cc75178cc7d", "blockhash": "0000000000000000001cda96e906b7601b7a6fb1a3b62bca570a9e5d8f4b3de1", "vout": [{"scriptPubKey": {"reqSigs": 1, "hex": "76a9146e68928cce2e4347cd1d7c0fa162d0300d136f2088ac", "addresses": ["1B4nbvZ35SFyJYBeL9k72cVdJNUFveKhTH"], "asm": "OP_DUP OP_HASH160 6e68928cce2e4347cd1d7c0fa162d0300d136f20 OP_EQUALVERIFY OP_CHECKSIG", "type": "pubkeyhash"}, "value": 8.78e-06, "n": 0}, {"scriptPubKey": {"reqSigs": 1, "hex": "a914424917bb61011c4c5e1f85b709826c12cf7637d587", "addresses": ["37jW5mszFuEEMrbWxEAJJL99oKc5VtNnpg"], "asm": "OP_HASH160 424917bb61011c4c5e1f85b709826c12cf7637d5 OP_EQUAL", "type": "scripthash"}, "value": 0.00296864, "n": 1}], "hex": "01000000040688a428f66a5b900498ad0d665343c041674d3c6a284cc22511e54bf1d99d2f000000006b483045022100f45ba85208d4611c60baef8088df539fdf9319e2e3b5ef9dcc721a24c4af14a1022040dc0145ad97fa1ead1a04b55ee953d17633b75851c380aa52ad28aa665ea4be012102db00080a58b8fccaeecc85ba71945ed0fc7506ba517039ab982d8435d10f8065ffffffff148768df96170f50845fc6da4190461d33f568b15be4f1e1488b602d86e7a153000000006b483045022100ed442a22ccdde1da3820b0db84962c32e792cda09fb35d9d3eb3512621d1988f0220583bd0a82018af2b375829a327e887b9d0387cbf8846a1cee7f3fd5dd4176206012103dacffde07bd59308f0e83f4df42e3fc85c743d4512ca1f617e2efc8375081b34ffffffff67ebae5b4a8ea9145e1680d21cc5252c702982b90857ebd24ad4c964432c6de9000000006b483045022100f26d86b0c9678f272fb4799be18ccb5262b3bf25bf1804fc274fdf510d8fdff902202d5175c437a0014726b74dfa57758fec37afe4669bd714df8b27ccb0b06c9301012102b1137729302f4814e4b75dd88de6dbdd732cd66d32b613ccdd5b328a9e16e9caffffffff35f9934b3576bbeab0eb992d4382b4e815deb79ec186cdf6b51ebb789e3b73f5000000006b483045022100b90d7d3d02dd4ba4e92b12f00862a184293bd8735aa989775bae44a104b99f110220554ef56aa5a305bdf7cc4808b5bf8093369c0b5af74adb00c2b85eee9c7f2038012103366acd9d570ee5c77a9e9eff96ebc7638adcc1045de7416e453d8f3edc8e256affffffff026e030000000000001976a9146e68928cce2e4347cd1d7c0fa162d0300d136f2088aca08704000000000017a914424917bb61011c4c5e1f85b709826c12cf7637d58700000000", "vin": [{"sequence": 4294967295, "scriptSig": {"hex": "483045022100f45ba85208d4611c60baef8088df539fdf9319e2e3b5ef9dcc721a24c4af14a1022040dc0145ad97fa1ead1a04b55ee953d17633b75851c380aa52ad28aa665ea4be012102db00080a58b8fccaeecc85ba71945ed0fc7506ba517039ab982d8435d10f8065", "asm": "3045022100f45ba85208d4611c60baef8088df539fdf9319e2e3b5ef9dcc721a24c4af14a1022040dc0145ad97fa1ead1a04b55ee953d17633b75851c380aa52ad28aa665ea4be[ALL] 02db00080a58b8fccaeecc85ba71945ed0fc7506ba517039ab982d8435d10f8065"}, "vout": 0, "txid": "2f9dd9f14be51125c24c286a3c4d6741c04353660dad9804905b6af628a48806"}, {"sequence": 4294967295, "scriptSig": {"hex": "483045022100ed442a22ccdde1da3820b0db84962c32e792cda09fb35d9d3eb3512621d1988f0220583bd0a82018af2b375829a327e887b9d0387cbf8846a1cee7f3fd5dd4176206012103dacffde07bd59308f0e83f4df42e3fc85c743d4512ca1f617e2efc8375081b34", "asm": "3045022100ed442a22ccdde1da3820b0db84962c32e792cda09fb35d9d3eb3512621d1988f0220583bd0a82018af2b375829a327e887b9d0387cbf8846a1cee7f3fd5dd4176206[ALL] 03dacffde07bd59308f0e83f4df42e3fc85c743d4512ca1f617e2efc8375081b34"}, "vout": 0, "txid": "53a1e7862d608b48e1f1e45bb168f5331d469041dac65f84500f1796df688714"}, {"sequence": 4294967295, "scriptSig": {"hex": "483045022100f26d86b0c9678f272fb4799be18ccb5262b3bf25bf1804fc274fdf510d8fdff902202d5175c437a0014726b74dfa57758fec37afe4669bd714df8b27ccb0b06c9301012102b1137729302f4814e4b75dd88de6dbdd732cd66d32b613ccdd5b328a9e16e9ca", "asm": "3045022100f26d86b0c9678f272fb4799be18ccb5262b3bf25bf1804fc274fdf510d8fdff902202d5175c437a0014726b74dfa57758fec37afe4669bd714df8b27ccb0b06c9301[ALL] 02b1137729302f4814e4b75dd88de6dbdd732cd66d32b613ccdd5b328a9e16e9ca"}, "vout": 0, "txid": "e96d2c4364c9d44ad2eb5708b98229702c25c51cd280165e14a98e4a5baeeb67"}, {"sequence": 4294967295, "scriptSig": {"hex": "483045022100b90d7d3d02dd4ba4e92b12f00862a184293bd8735aa989775bae44a104b99f110220554ef56aa5a305bdf7cc4808b5bf8093369c0b5af74adb00c2b85eee9c7f2038012103366acd9d570ee5c77a9e9eff96ebc7638adcc1045de7416e453d8f3edc8e256a", "asm": "3045022100b90d7d3d02dd4ba4e92b12f00862a184293bd8735aa989775bae44a104b99f110220554ef56aa5a305bdf7cc4808b5bf8093369c0b5af74adb00c2b85eee9c7f2038[ALL] 03366acd9d570ee5c77a9e9eff96ebc7638adcc1045de7416e453d8f3edc8e256a"}, "vout": 0, "txid": "f5733b9e78bb1eb5f6cd86c19eb7de15e8b482432d99ebb0eabb76354b93f935"}], "txid": "3f2b33c7946d89f695d9e9b78a8f20ba905b314168ea240158009cc75178cc7d", "blocktime": 1537873282, "version": 1, "confirmations": 11485, "time": 1537873282, "locktime": 0, "vsize": 668, "size": 668}