{"hash": "28b0bc48c2f4ecce7f79f72cc727abf8ce1be52467b2ba50147f262223274317", "blockhash": "0000000000000000000e13cef7c366c0283d82e591d1acd082e914b08063cdf1", "vout": [{"scriptPubKey": {"reqSigs": 1, "hex": "a914ac4f3d0933285f4221a1549e04091205dc1b4a6f87", "addresses": ["3HQ757x5yrhwGLYKvjkjhtLViPkFyadH5Z"], "asm": "OP_HASH160 ac4f3d0933285f4221a1549e04091205dc1b4a6f OP_EQUAL", "type": "scripthash"}, "value": 0.05377885, "n": 0}, {"scriptPubKey": {"reqSigs": 1, "hex": "a914112b6a8b302a70571030dc61582fbf2be886cd9187", "addresses": ["33FoRQzEhkPcnd3nW2JW3WZjR1dgU3zacA"], "asm": "OP_HASH160 112b6a8b302a70571030dc61582fbf2be886cd91 OP_EQUAL", "type": "scripthash"}, "value": 0.02337595, "n": 1}], "hex": "0200000000010237c56f7070e795e11bf01e1c9b594867aa7aed30653d430b17903323e2c1fc0400000000171600140a758afb713d7098793fc8a9a83ba6d193ef9f1efdffffff716ef420997f98354a540ae09c9260df9d5595b006f4d306b00c42e2f7b7e0d9020000001716001468432c15541c8e20368ec5e98b69d5e7baa7eab6fdffffff025d0f52000000000017a914ac4f3d0933285f4221a1549e04091205dc1b4a6f873bab23000000000017a914112b6a8b302a70571030dc61582fbf2be886cd918702483045022100dd6179d6b43aa7a1a7f6e0ef34361dd6af4d42a8aee3bda0299a56a06d220d3b02200b31d6a6bc1235b5031b164240636228b3da00377eaaa341f94cd55b46411c17012102a4437bb6e37bfe8c2ec9dc656b95d8f01a3c3ab647234367dba9f6a86061790f0247304402205916b1dc2bb110e72b843591eff38d90ce9a6df9e1c3875578a531d4e85188b9022012667f3afe21358f54cc6993a2ef2777af59f40cd2c67df25332421d58ab17f401210234674f27c21ed620496d449b48a661751ec5e46e3c533f6bf902123990d7475210490800", "vin": [{"txinwitness": ["3045022100dd6179d6b43aa7a1a7f6e0ef34361dd6af4d42a8aee3bda0299a56a06d220d3b02200b31d6a6bc1235b5031b164240636228b3da00377eaaa341f94cd55b46411c1701", "02a4437bb6e37bfe8c2ec9dc656b95d8f01a3c3ab647234367dba9f6a86061790f"], "sequence": 4294967293, "scriptSig": {"hex": "1600140a758afb713d7098793fc8a9a83ba6d193ef9f1e", "asm": "00140a758afb713d7098793fc8a9a83ba6d193ef9f1e"}, "vout": 0, "txid": "04fcc1e2233390170b433d6530ed7aaa6748599b1c1ef01be195e770706fc537"}, {"txinwitness": ["304402205916b1dc2bb110e72b843591eff38d90ce9a6df9e1c3875578a531d4e85188b9022012667f3afe21358f54cc6993a2ef2777af59f40cd2c67df25332421d58ab17f401", "0234674f27c21ed620496d449b48a661751ec5e46e3c533f6bf902123990d74752"], "sequence": 4294967293, "scriptSig": {"hex": "16001468432c15541c8e20368ec5e98b69d5e7baa7eab6", "asm": "001468432c15541c8e20368ec5e98b69d5e7baa7eab6"}, "vout": 2, "txid": "d9e0b7f7e2420cb006d3f406b095559ddf60929ce00a544a35987f9920f46e71"}], "txid": "3f2c4ead4cf31f3e0b284fe7bdb8eb95d38a7dfb4b5c9113727ac48d282b6820", "blocktime": 1537871767, "version": 2, "confirmations": 11495, "time": 1537871767, "locktime": 542992, "vsize": 257, "size": 419}