{"hash": "3f317ba9cd8e0c85ea22e32fb81b5d348ab3419350803f4c6a9729dbfff4ba57", "blockhash": "0000000000000000001f76057863aec43deb6fa401d9628bb513d65a8098bfab", "vout": [{"scriptPubKey": {"reqSigs": 1, "hex": "76a914090b4e8b9df1091355608384a03f918020349cd488ac", "addresses": ["1ppdLbsiiSkY21h7T2GWGE82AaSkb8taE"], "asm": "OP_DUP OP_HASH160 090b4e8b9df1091355608384a03f918020349cd4 OP_EQUALVERIFY OP_CHECKSIG", "type": "pubkeyhash"}, "value": 0.00047786, "n": 0}, {"scriptPubKey": {"reqSigs": 1, "hex": "76a9148e5bc32e3ea0042c27e797b425c4829e8a4607a588ac", "addresses": ["1Dyit1Hcz4auKZfr1imJV1CqGJabtfi8mJ"], "asm": "OP_DUP OP_HASH160 8e5bc32e3ea0042c27e797b425c4829e8a4607a5 OP_EQUALVERIFY OP_CHECKSIG", "type": "pubkeyhash"}, "value": 1.62133826, "n": 1}], "hex": "0100000001b9655aa80b3f615e2e82c2f80ffcb9a2e76a62fdb95a4dc2faf93093f04131db010000006a4730440220337ca018b2649752cf31c3f0270ad928224d3513da940a372c4e5c34edf4dbca02203a0a4ed271dc268022ed9389a932c2ef29eea569ff25453fb40feaa56bc73f1c0121022b79a7537c45bdf7b55d3d6e78e0b18c972dddafa05d7f9e0b005889008cd6f0ffffffff02aaba0000000000001976a914090b4e8b9df1091355608384a03f918020349cd488ac42f7a909000000001976a9148e5bc32e3ea0042c27e797b425c4829e8a4607a588ac00000000", "vin": [{"sequence": 4294967295, "scriptSig": {"hex": "4730440220337ca018b2649752cf31c3f0270ad928224d3513da940a372c4e5c34edf4dbca02203a0a4ed271dc268022ed9389a932c2ef29eea569ff25453fb40feaa56bc73f1c0121022b79a7537c45bdf7b55d3d6e78e0b18c972dddafa05d7f9e0b005889008cd6f0", "asm": "30440220337ca018b2649752cf31c3f0270ad928224d3513da940a372c4e5c34edf4dbca02203a0a4ed271dc268022ed9389a932c2ef29eea569ff25453fb40feaa56bc73f1c[ALL] 022b79a7537c45bdf7b55d3d6e78e0b18c972dddafa05d7f9e0b005889008cd6f0"}, "vout": 1, "txid": "db3141f09330f9fac24d5ab9fd626ae7a2b9fc0ff8c2822e5e613f0ba85a65b9"}], "txid": "3f317ba9cd8e0c85ea22e32fb81b5d348ab3419350803f4c6a9729dbfff4ba57", "blocktime": 1537873891, "version": 1, "confirmations": 11478, "time": 1537873891, "locktime": 0, "vsize": 225, "size": 225}