{"hash": "586b727d3ca4c829e3dc1d3e16e75c13c1442d06e3652b90cbe538466a772afc", "blockhash": "00000000000000000018f53835495a110e01622372bf6ae95dc86f2b0ab887b0", "vout": [{"scriptPubKey": {"reqSigs": 1, "hex": "a91491822e009e56a199b563ab9d8acabd0c3171fbd787", "addresses": ["3ExPrQLD3UeJY4gxtQx8G5mwCCsRkzA8a6"], "asm": "OP_HASH160 91822e009e56a199b563ab9d8acabd0c3171fbd7 OP_EQUAL", "type": "scripthash"}, "value": 0.020046, "n": 0}, {"scriptPubKey": {"reqSigs": 1, "hex": "a9148e22ad3c50d3795817122cba4261de6caeadf70087", "addresses": ["3EeZRAR48JZ6uNyrbKKrX43dzt1Qp6a7B9"], "asm": "OP_HASH160 8e22ad3c50d3795817122cba4261de6caeadf700 OP_EQUAL", "type": "scripthash"}, "value": 0.00841644, "n": 1}], "hex": "020000000001018c2e25d913cc6df345389b25903048f038c9c917de520ab9d385d12b3e9db4200100000017160014940d0a8e4d8decf9b5138fe96f97a60906ef724dffffffff0278961e000000000017a91491822e009e56a199b563ab9d8acabd0c3171fbd787acd70c000000000017a9148e22ad3c50d3795817122cba4261de6caeadf700870247304402205990587cca00aa536105112dfa7ef6515841fece9f1b4f5e6a72e49a0df6260902202d2bc9c271817b1bcde38e2bc5da1e8dc7697abe37d5461816f121bad8b0cfe5012103c2c984c5c2c952d7f32d18ded800dc7d1587ea40e50f65d1bf490358135d9e0d00000000", "vin": [{"txinwitness": ["304402205990587cca00aa536105112dfa7ef6515841fece9f1b4f5e6a72e49a0df6260902202d2bc9c271817b1bcde38e2bc5da1e8dc7697abe37d5461816f121bad8b0cfe501", "03c2c984c5c2c952d7f32d18ded800dc7d1587ea40e50f65d1bf490358135d9e0d"], "sequence": 4294967295, "scriptSig": {"hex": "160014940d0a8e4d8decf9b5138fe96f97a60906ef724d", "asm": "0014940d0a8e4d8decf9b5138fe96f97a60906ef724d"}, "vout": 1, "txid": "20b49d3e2bd185d3b90a52de17c9c938f0483090259b3845f36dcc13d9252e8c"}], "txid": "3f313fbf5f36b9149074e53bbd874dd804123e296cdcdd7d06489d3a43409171", "blocktime": 1537870928, "version": 2, "confirmations": 11512, "time": 1537870928, "locktime": 0, "vsize": 166, "size": 247}