{"hash": "a10f8cf0da60755c3f503d072f4885a87dfd0e1f4ff5aadfb1b4c502227269df", "blockhash": "0000000000000000000e13cef7c366c0283d82e591d1acd082e914b08063cdf1", "vout": [{"scriptPubKey": {"reqSigs": 1, "hex": "a914e772127174292bb14bf8426950fbc54a851b691c87", "addresses": ["3Nnnfin7hAE9WCAZ1h4Fq1aV46XSnyP91V"], "asm": "OP_HASH160 e772127174292bb14bf8426950fbc54a851b691c OP_EQUAL", "type": "scripthash"}, "value": 0.01999507, "n": 0}, {"scriptPubKey": {"reqSigs": 1, "hex": "00149245cb45d9158a6f8fe670df6324d1909ca95cd9", "addresses": ["bc1qjfzuk3wezk9xlrlxwr0kxfx3jzw2jhxecjr4p3"], "asm": "0 9245cb45d9158a6f8fe670df6324d1909ca95cd9", "type": "witness_v0_keyhash"}, "value": 1.31668552, "n": 1}], "hex": "01000000000101c670aa60226ad4d9cc65ff67f5db7c01b0ef1f576afb6e37e7d2ea50197291610000000000ffffffff0293821e000000000017a914e772127174292bb14bf8426950fbc54a851b691c87481ad907000000001600149245cb45d9158a6f8fe670df6324d1909ca95cd902483045022100d558b8b377fd7f684772f1b44542e040a1913fbb2cad2cd418cfdd6e45a0e15d022023b77425cc16afaccee1734dbc425a30d397eac60a8137b182c6ba83d38da7910121022148d9961f48bdf78bee635f1d8ba1f135e581f4bdeb2e0b1f833e27b9acb1d400000000", "vin": [{"txinwitness": ["3045022100d558b8b377fd7f684772f1b44542e040a1913fbb2cad2cd418cfdd6e45a0e15d022023b77425cc16afaccee1734dbc425a30d397eac60a8137b182c6ba83d38da79101", "022148d9961f48bdf78bee635f1d8ba1f135e581f4bdeb2e0b1f833e27b9acb1d4"], "sequence": 4294967295, "scriptSig": {"hex": "", "asm": ""}, "vout": 0, "txid": "6191721950ead2e7376efb6a571fefb0017cdbf567ff65ccd9d46a2260aa70c6"}], "txid": "3f3ea6ce897b8f6db3f338e7e8c99b2219ea9ecb266bcc6e5297d2e8002d23c1", "blocktime": 1537871767, "version": 1, "confirmations": 11495, "time": 1537871767, "locktime": 0, "vsize": 142, "size": 224}