{"hash": "3f3fc5444a23484dc5c0cd6ff89d98b220a4307b66c8f0a6e0d81167461872af", "blockhash": "0000000000000000001cda96e906b7601b7a6fb1a3b62bca570a9e5d8f4b3de1", "vout": [{"scriptPubKey": {"reqSigs": 1, "hex": "76a9141facc36a18a3c1f8ee15dd62021bec2e366ea50f88ac", "addresses": ["13tUukj4nJ8DVZ9XNJKcUwpYqSg4iMYz3W"], "asm": "OP_DUP OP_HASH160 1facc36a18a3c1f8ee15dd62021bec2e366ea50f OP_EQUALVERIFY OP_CHECKSIG", "type": "pubkeyhash"}, "value": 5.46e-06, "n": 0}, {"scriptPubKey": {"reqSigs": 1, "hex": "a9143f4eecba122ad73039d481c8d37f99cb4f887cd887", "addresses": ["37Tm3Qz8Zw2VJrheUUhArDAoq58S6YrS3g"], "asm": "OP_HASH160 3f4eecba122ad73039d481c8d37f99cb4f887cd8 OP_EQUAL", "type": "scripthash"}, "value": 0.99966902, "n": 1}, {"scriptPubKey": {"type": "nulldata", "hex": "6a146f6d6e69000000000000001f0000008ba6ddae00", "asm": "OP_RETURN 6f6d6e69000000000000001f0000008ba6ddae00"}, "value": 0.0, "n": 2}], "hex": "01000000013aa41b3b14b8a08468faa2a4bbe6a2809e663be3a1552bad8ec8c4efcabf44fc01000000fdfd00004730440220598b4ee1b6710fa025c5fd3ab61d8a02d61fd6ef875a52bcb09617ee98e267db022035362d1382d7b1334e36a5440672cd9c5d512cd85498ef4a382165419137eff001483045022100c1530b26bc365f9ff9960419e2ea07bdb806dc7e8a300dadb2da62af0650808e02203252d14fa3a32d44aa03b0a47000865782201d618f5b239b8eb390ce092859a0014c6952210246ccf4de0c54cc7f3354cdd993c2c50cf965fd82238b89659fbd73a1b4bf05a121024fc59f72272a897fe43803374969f396058152fe4765a8d15216f94624257b1b21022593bc69ecbf3bbcc3c58082267cb49dadaf4ca8dbf1b2297338a9d628c4297653aeffffffff0322020000000000001976a9141facc36a18a3c1f8ee15dd62021bec2e366ea50f88acb65ff5050000000017a9143f4eecba122ad73039d481c8d37f99cb4f887cd8870000000000000000166a146f6d6e69000000000000001f0000008ba6ddae0000000000", "vin": [{"sequence": 4294967295, "scriptSig": {"hex": "004730440220598b4ee1b6710fa025c5fd3ab61d8a02d61fd6ef875a52bcb09617ee98e267db022035362d1382d7b1334e36a5440672cd9c5d512cd85498ef4a382165419137eff001483045022100c1530b26bc365f9ff9960419e2ea07bdb806dc7e8a300dadb2da62af0650808e02203252d14fa3a32d44aa03b0a47000865782201d618f5b239b8eb390ce092859a0014c6952210246ccf4de0c54cc7f3354cdd993c2c50cf965fd82238b89659fbd73a1b4bf05a121024fc59f72272a897fe43803374969f396058152fe4765a8d15216f94624257b1b21022593bc69ecbf3bbcc3c58082267cb49dadaf4ca8dbf1b2297338a9d628c4297653ae", "asm": "0 30440220598b4ee1b6710fa025c5fd3ab61d8a02d61fd6ef875a52bcb09617ee98e267db022035362d1382d7b1334e36a5440672cd9c5d512cd85498ef4a382165419137eff0[ALL] 3045022100c1530b26bc365f9ff9960419e2ea07bdb806dc7e8a300dadb2da62af0650808e02203252d14fa3a32d44aa03b0a47000865782201d618f5b239b8eb390ce092859a0[ALL] 52210246ccf4de0c54cc7f3354cdd993c2c50cf965fd82238b89659fbd73a1b4bf05a121024fc59f72272a897fe43803374969f396058152fe4765a8d15216f94624257b1b21022593bc69ecbf3bbcc3c58082267cb49dadaf4ca8dbf1b2297338a9d628c4297653ae"}, "vout": 1, "txid": "fc44bfcaefc4c88ead2b55a1e33b669e80a2e6bba4a2fa6884a0b8143b1ba43a"}], "txid": "3f3fc5444a23484dc5c0cd6ff89d98b220a4307b66c8f0a6e0d81167461872af", "blocktime": 1537873282, "version": 1, "confirmations": 11484, "time": 1537873282, "locktime": 0, "vsize": 403, "size": 403}