{"hash": "03956950112aa1b2b0b89bbff77a7151475ece9428f491409a373cd1cf93669f", "blockhash": "0000000000000000001f76057863aec43deb6fa401d9628bb513d65a8098bfab", "vout": [{"scriptPubKey": {"reqSigs": 1, "hex": "76a9147a68e219f281647786a3e097986aef5919064b6588ac", "addresses": ["1CAF5pMLNqeFgwU1rEHdGvJzX2douMaSwJ"], "asm": "OP_DUP OP_HASH160 7a68e219f281647786a3e097986aef5919064b65 OP_EQUALVERIFY OP_CHECKSIG", "type": "pubkeyhash"}, "value": 0.0401, "n": 0}, {"scriptPubKey": {"reqSigs": 1, "hex": "a9144ebac26fbe6b3fce08edd15dd22c427bbd8be52787", "addresses": ["38sJMnVzYw25pGv9ePFxpcuuoqxEeqoxnd"], "asm": "OP_HASH160 4ebac26fbe6b3fce08edd15dd22c427bbd8be527 OP_EQUAL", "type": "scripthash"}, "value": 0.0013, "n": 1}], "hex": "01000000000101eb36fd41311f3ad2a6b090b0735ef26b7ea701775d58f744ca69fc15821c06380000000023220020d9702210c22335368dd1e53551a9764d980a4be8d47e1472a255c3ecdabbe103ffffffff0210303d00000000001976a9147a68e219f281647786a3e097986aef5919064b6588acd0fb01000000000017a9144ebac26fbe6b3fce08edd15dd22c427bbd8be5278704004830450221009c4ca9749e88616ede6128d5f755a480f1da6ab07ccc53168ac071e41acc4f4f02207799f25ac14881e7985dc4ff1653ae43dec3b9c5f098b319134f2319d9a776a4014830450221009186c026dd32a60e01d739c4f9e264e1c0af92b1ede1140644690a14bd467e3102205c34ecdfbe69a28df26439874f2efb889a07779c2c590402eacfe0404a427b4b0169522102ba84664b0a2edf8cf9bf10ab41312f2635fb1ff6b2945d0ea2e3b40fe10318ad210363386abca09af058c9d9f3044bc027b31b8352cc2ed6fd63dcaafaf7a67c8e032103de5884536404a684e116956a94dcb7e5f5567de8173f86a33fc1f60f15e5753553ae00000000", "vin": [{"txinwitness": ["", "30450221009c4ca9749e88616ede6128d5f755a480f1da6ab07ccc53168ac071e41acc4f4f02207799f25ac14881e7985dc4ff1653ae43dec3b9c5f098b319134f2319d9a776a401", "30450221009186c026dd32a60e01d739c4f9e264e1c0af92b1ede1140644690a14bd467e3102205c34ecdfbe69a28df26439874f2efb889a07779c2c590402eacfe0404a427b4b01", "522102ba84664b0a2edf8cf9bf10ab41312f2635fb1ff6b2945d0ea2e3b40fe10318ad210363386abca09af058c9d9f3044bc027b31b8352cc2ed6fd63dcaafaf7a67c8e032103de5884536404a684e116956a94dcb7e5f5567de8173f86a33fc1f60f15e5753553ae"], "sequence": 4294967295, "scriptSig": {"hex": "220020d9702210c22335368dd1e53551a9764d980a4be8d47e1472a255c3ecdabbe103", "asm": "0020d9702210c22335368dd1e53551a9764d980a4be8d47e1472a255c3ecdabbe103"}, "vout": 0, "txid": "38061c8215fc69ca44f7585d7701a77e6bf25e73b090b0a6d23a1f3141fd36eb"}], "txid": "3f3f8d10917b57a4a170b6a5a3b29165e1e548a2f60187bffc302ed37882498f", "blocktime": 1537873891, "version": 1, "confirmations": 11474, "time": 1537873891, "locktime": 0, "vsize": 216, "size": 408}