{"hash": "3f43894701d5c05110a81b8971ba15c9401bbe91ae11903f5ddd85c4fad4b240", "blockhash": "0000000000000000000e13cef7c366c0283d82e591d1acd082e914b08063cdf1", "vout": [{"scriptPubKey": {"reqSigs": 1, "hex": "76a9141596a176851d374236b4ba15bf9905baedb2367d88ac", "addresses": ["12y9e2yJip98pjA9CA6pR72J57M9xgNt2n"], "asm": "OP_DUP OP_HASH160 1596a176851d374236b4ba15bf9905baedb2367d OP_EQUALVERIFY OP_CHECKSIG", "type": "pubkeyhash"}, "value": 0.00674796, "n": 0}, {"scriptPubKey": {"reqSigs": 1, "hex": "76a9144a0f1e2f2b0d7daeec5265f10bbbbe08ed725e8988ac", "addresses": ["17kb7c9ndg7ioSuzMWEHWECdEVUegNkcGc"], "asm": "OP_DUP OP_HASH160 4a0f1e2f2b0d7daeec5265f10bbbbe08ed725e89 OP_EQUALVERIFY OP_CHECKSIG", "type": "pubkeyhash"}, "value": 0.00050703, "n": 1}], "hex": "01000000011f75c4f4ab8334b916322944b4b79ab349462597c1ed2b35bf54bb4d9a6fedc3010000006a47304402205555d7640a91c55790332b671f2d804c437c5953a2f64a7e6e1e203925a3229d02206fc55e57bbe114ffba02d5132102571965e6aca69b8750a4d5024e5472623a8301210363e1776495149c5a4e92acf453a3caa19000fc804e4ba2024b600ba25e09c943ffffffff02ec4b0a00000000001976a9141596a176851d374236b4ba15bf9905baedb2367d88ac0fc60000000000001976a9144a0f1e2f2b0d7daeec5265f10bbbbe08ed725e8988ac00000000", "vin": [{"sequence": 4294967295, "scriptSig": {"hex": "47304402205555d7640a91c55790332b671f2d804c437c5953a2f64a7e6e1e203925a3229d02206fc55e57bbe114ffba02d5132102571965e6aca69b8750a4d5024e5472623a8301210363e1776495149c5a4e92acf453a3caa19000fc804e4ba2024b600ba25e09c943", "asm": "304402205555d7640a91c55790332b671f2d804c437c5953a2f64a7e6e1e203925a3229d02206fc55e57bbe114ffba02d5132102571965e6aca69b8750a4d5024e5472623a83[ALL] 0363e1776495149c5a4e92acf453a3caa19000fc804e4ba2024b600ba25e09c943"}, "vout": 1, "txid": "c3ed6f9a4dbb54bf352bedc197254649b39ab7b444293216b93483abf4c4751f"}], "txid": "3f43894701d5c05110a81b8971ba15c9401bbe91ae11903f5ddd85c4fad4b240", "blocktime": 1537871767, "version": 1, "confirmations": 11490, "time": 1537871767, "locktime": 0, "vsize": 225, "size": 225}