{"hash": "441916073fa7c77e72326ea551e94fe3be723bf1373f199e417972623c8b23f4", "blockhash": "0000000000000000000baef3f32e3676a92c3b2e5da21b426e4f302fc371ce76", "vout": [{"scriptPubKey": {"reqSigs": 1, "hex": "a91430897cc6c9d69f6a2c2f1c651d51f22219f1a4f687", "addresses": ["367f4YWz1VCFaqBqwbTrzwi2b1h2U3w1AF"], "asm": "OP_HASH160 30897cc6c9d69f6a2c2f1c651d51f22219f1a4f6 OP_EQUAL", "type": "scripthash"}, "value": 11.31341982, "n": 0}, {"scriptPubKey": {"reqSigs": 1, "hex": "a914bc0395a31e29e23168eb815fd060d5dd5ab41b2d87", "addresses": ["3Jq9FfWKVmhRJMa6Hf1Nj4gkWkGTSxPnbn"], "asm": "OP_HASH160 bc0395a31e29e23168eb815fd060d5dd5ab41b2d OP_EQUAL", "type": "scripthash"}, "value": 0.13657856, "n": 1}], "hex": "010000000001015b98a9cbe074f1a22593b194661b4604340e07903042bc9e7ce714273e9f83940000000023220020bcf9f822194145acea0f3235f4107b5bf1a91b6b9f8489f63bf79ec29b360913ffffffff029ee86e430000000017a91430897cc6c9d69f6a2c2f1c651d51f22219f1a4f6870067d0000000000017a914bc0395a31e29e23168eb815fd060d5dd5ab41b2d87040047304402203228a04947572ebd59e440e4f2eb8e013ce4c3cd14d97faa5440d724f29bf0d802204eeea6b30baceccd8711e3e04917257f6cabd848619e30995f4888c29a0630000147304402206ba3c961d7d387de4c786b80791844afa304d3ff4759758d0c4fcf1d9142d39202205e44cfd3ce589942ed585b5297199c36e60a1c4f59665a50098bdb9841f8ebaf01695221026c8f72b9e63db63907115e65d4da86eaae595b22fdc85ec75301bb4adbf203582103806535be3e3920e5eedee92de5714188fd6a784f2bf7b04f87de0b9c3ae1ecdb21024b23bfdce2afcae7e28c42f7f79aa100f22931712c52d7414a526ba494d44a2553ae00000000", "vin": [{"txinwitness": ["", "304402203228a04947572ebd59e440e4f2eb8e013ce4c3cd14d97faa5440d724f29bf0d802204eeea6b30baceccd8711e3e04917257f6cabd848619e30995f4888c29a06300001", "304402206ba3c961d7d387de4c786b80791844afa304d3ff4759758d0c4fcf1d9142d39202205e44cfd3ce589942ed585b5297199c36e60a1c4f59665a50098bdb9841f8ebaf01", "5221026c8f72b9e63db63907115e65d4da86eaae595b22fdc85ec75301bb4adbf203582103806535be3e3920e5eedee92de5714188fd6a784f2bf7b04f87de0b9c3ae1ecdb21024b23bfdce2afcae7e28c42f7f79aa100f22931712c52d7414a526ba494d44a2553ae"], "sequence": 4294967295, "scriptSig": {"hex": "220020bcf9f822194145acea0f3235f4107b5bf1a91b6b9f8489f63bf79ec29b360913", "asm": "0020bcf9f822194145acea0f3235f4107b5bf1a91b6b9f8489f63bf79ec29b360913"}, "vout": 0, "txid": "94839f3e2714e77c9ebc423090070e3404461b6694b19325a2f174e0cba9985b"}], "txid": "3f4a5b2d1d7c7a8ced557cd2695d09ff5890d82c19191b6f905c5d2f5d5b44f4", "blocktime": 1537876114, "version": 1, "confirmations": 11460, "time": 1537876114, "locktime": 0, "vsize": 214, "size": 404}