{"hash": "3f4ac58c9edf29ed50549d07819991f48300a2134f14f743c09710bf2fcd3310", "blockhash": "000000000000000000022b45ed06c6f4ccd3cf7fb5ba4856ebd2e58215665228", "vout": [{"scriptPubKey": {"reqSigs": 1, "hex": "a914fd06c3bdd09e4261948154e9616c55fe3ec7755087", "addresses": ["3Qktz6CrQj4Ve5iDyjraLNrgzKUVwg9mfh"], "asm": "OP_HASH160 fd06c3bdd09e4261948154e9616c55fe3ec77550 OP_EQUAL", "type": "scripthash"}, "value": 0.01033, "n": 0}], "hex": "0100000001ca134d957d1d4fbe9f2169c9ba7e1b902b77930c6f24e1bec8f28b93629cd349000000006b48304502210089c6d3deff3ffbe745ed67508a908f74e19d00c46bdf5dcf84880e0c8c8e45de022076508468bfaa3a849ed9c61265ebdee89cce8a892a14e0c98a65629a8f62d618012102b9b0bf68957b1e76c14dfd636dbd9594bff16e9fed278eeffd89805213d71004ffffffff0128c30f000000000017a914fd06c3bdd09e4261948154e9616c55fe3ec775508700000000", "vin": [{"sequence": 4294967295, "scriptSig": {"hex": "48304502210089c6d3deff3ffbe745ed67508a908f74e19d00c46bdf5dcf84880e0c8c8e45de022076508468bfaa3a849ed9c61265ebdee89cce8a892a14e0c98a65629a8f62d618012102b9b0bf68957b1e76c14dfd636dbd9594bff16e9fed278eeffd89805213d71004", "asm": "304502210089c6d3deff3ffbe745ed67508a908f74e19d00c46bdf5dcf84880e0c8c8e45de022076508468bfaa3a849ed9c61265ebdee89cce8a892a14e0c98a65629a8f62d618[ALL] 02b9b0bf68957b1e76c14dfd636dbd9594bff16e9fed278eeffd89805213d71004"}, "vout": 0, "txid": "49d39c62938bf2c8bee1246f0c93772b901b7ebac969219fbe4f1d7d954d13ca"}], "txid": "3f4ac58c9edf29ed50549d07819991f48300a2134f14f743c09710bf2fcd3310", "blocktime": 1537869901, "version": 1, "confirmations": 11522, "time": 1537869901, "locktime": 0, "vsize": 190, "size": 190}