{"hash": "3f4a20c002fa6d1f14d3d01673d4fbd2aa48345a619d17b18f41be20b43756f6", "blockhash": "0000000000000000000dcc0f55137456b1a82d3642486a52398922ac4d620174", "vout": [{"scriptPubKey": {"reqSigs": 1, "hex": "a9146dbd94bf66817e11561dea40852f78811716929287", "addresses": ["3BhGgmvAG8hUj3JoqeJ9wMzVZXw41bkoYx"], "asm": "OP_HASH160 6dbd94bf66817e11561dea40852f788117169292 OP_EQUAL", "type": "scripthash"}, "value": 0.008096, "n": 0}, {"scriptPubKey": {"reqSigs": 1, "hex": "76a91452235599c81654a37d1f5fa9feb71f3c565c254688ac", "addresses": ["18VJjojPBonSevNANEZMbDopZK8AcVFQhr"], "asm": "OP_DUP OP_HASH160 52235599c81654a37d1f5fa9feb71f3c565c2546 OP_EQUALVERIFY OP_CHECKSIG", "type": "pubkeyhash"}, "value": 0.2883481, "n": 1}], "hex": "01000000013c1db42edcbef3728c973bfe81acb991d00924e681e374e27a6f0b502231a123010000006b483045022100a33357aa2a9dde4dbeb40a77f4df9da653065dda074725abfcb944830d43098d02202c828d2683bedebe5c60fcf9f64692758cba3986ae300dea0a19eb2a843f552a0121036c5b8bff6c77b20f5463513f96c9762240b135cd3e391664214b172d41c75380ffffffff02805a0c000000000017a9146dbd94bf66817e11561dea40852f78811716929287fafbb701000000001976a91452235599c81654a37d1f5fa9feb71f3c565c254688ac00000000", "vin": [{"sequence": 4294967295, "scriptSig": {"hex": "483045022100a33357aa2a9dde4dbeb40a77f4df9da653065dda074725abfcb944830d43098d02202c828d2683bedebe5c60fcf9f64692758cba3986ae300dea0a19eb2a843f552a0121036c5b8bff6c77b20f5463513f96c9762240b135cd3e391664214b172d41c75380", "asm": "3045022100a33357aa2a9dde4dbeb40a77f4df9da653065dda074725abfcb944830d43098d02202c828d2683bedebe5c60fcf9f64692758cba3986ae300dea0a19eb2a843f552a[ALL] 036c5b8bff6c77b20f5463513f96c9762240b135cd3e391664214b172d41c75380"}, "vout": 1, "txid": "23a13122500b6f7ae274e381e62409d091b9ac81fe3b978c72f3bedc2eb41d3c"}], "txid": "3f4a20c002fa6d1f14d3d01673d4fbd2aa48345a619d17b18f41be20b43756f6", "blocktime": 1537870268, "version": 1, "confirmations": 11518, "time": 1537870268, "locktime": 0, "vsize": 224, "size": 224}