{"hash": "3f5aae8b4f7712d03e5907f9bb69534b368ae2d026dfb459a55da223ba2c3d6a", "blockhash": "0000000000000000000dcc0f55137456b1a82d3642486a52398922ac4d620174", "vout": [{"scriptPubKey": {"reqSigs": 1, "hex": "76a914f2ae974f4405e2f3fb3f2d1bd6d89440a417990e88ac", "addresses": ["1P8BgDsqWzoJABWyu2d6bmpsqTr9kSTrQk"], "asm": "OP_DUP OP_HASH160 f2ae974f4405e2f3fb3f2d1bd6d89440a417990e OP_EQUALVERIFY OP_CHECKSIG", "type": "pubkeyhash"}, "value": 0.003192, "n": 0}, {"scriptPubKey": {"reqSigs": 1, "hex": "76a914a8b9e2f713e3a17c3c4c067e786c8d952133551488ac", "addresses": ["1GP9CrWqMp59mdD1EqQ8QoPcXqxh7xfcMu"], "asm": "OP_DUP OP_HASH160 a8b9e2f713e3a17c3c4c067e786c8d9521335514 OP_EQUALVERIFY OP_CHECKSIG", "type": "pubkeyhash"}, "value": 0.01359927, "n": 1}], "hex": "01000000012d09d939ec4375e16eb71d87dc164eac515761f9a8e0941756030cbb57ff0fef000000006b483045022100baa16bb62d440cafa5ec1eed938d3df816b6d38fd26e1e8bddd38629cffdd7ba02204a7618000f0c752708096691c57f418d1c6e443ec57362a1c2dae4ccedcc333a012102c0737df90549c15f38de8a67297adefb2da9fdac9f4d483ea66f6b4ba023f0a6ffffffff02e0de0400000000001976a914f2ae974f4405e2f3fb3f2d1bd6d89440a417990e88ac37c01400000000001976a914a8b9e2f713e3a17c3c4c067e786c8d952133551488ac00000000", "vin": [{"sequence": 4294967295, "scriptSig": {"hex": "483045022100baa16bb62d440cafa5ec1eed938d3df816b6d38fd26e1e8bddd38629cffdd7ba02204a7618000f0c752708096691c57f418d1c6e443ec57362a1c2dae4ccedcc333a012102c0737df90549c15f38de8a67297adefb2da9fdac9f4d483ea66f6b4ba023f0a6", "asm": "3045022100baa16bb62d440cafa5ec1eed938d3df816b6d38fd26e1e8bddd38629cffdd7ba02204a7618000f0c752708096691c57f418d1c6e443ec57362a1c2dae4ccedcc333a[ALL] 02c0737df90549c15f38de8a67297adefb2da9fdac9f4d483ea66f6b4ba023f0a6"}, "vout": 0, "txid": "ef0fff57bb0c03561794e0a8f9615751ac4e16dc871db76ee17543ec39d9092d"}], "txid": "3f5aae8b4f7712d03e5907f9bb69534b368ae2d026dfb459a55da223ba2c3d6a", "blocktime": 1537870268, "version": 1, "confirmations": 11518, "time": 1537870268, "locktime": 0, "vsize": 226, "size": 226}