{"hash": "e94e7afac6ca1915b9ddde7656742970a0cb8f42d19feb358c299f220bd98d24", "blockhash": "0000000000000000001cda96e906b7601b7a6fb1a3b62bca570a9e5d8f4b3de1", "vout": [{"scriptPubKey": {"reqSigs": 1, "hex": "a9146aab5f23db7106080fa7730d862aa0c4283fd85787", "addresses": ["3BR2qzGLE6KU3j85qeEWaDk4T26mde2sXV"], "asm": "OP_HASH160 6aab5f23db7106080fa7730d862aa0c4283fd857 OP_EQUAL", "type": "scripthash"}, "value": 0.33922832, "n": 0}, {"scriptPubKey": {"reqSigs": 1, "hex": "a9146bc6cc820dc5387a9b1c544ec0dbe0b770e5066487", "addresses": ["3BWtNrdaivGZeLx3EEJdTp8zUHwgLAevaS"], "asm": "OP_HASH160 6bc6cc820dc5387a9b1c544ec0dbe0b770e50664 OP_EQUAL", "type": "scripthash"}, "value": 0.05352131, "n": 1}], "hex": "02000000000101b3a70079a1013809b42ac571d60914bc5e3c37fe6336cd45c2131f7eac3a34350100000017160014505e8426f340dd5f25af3d56e4fc7acb80ba8c9fffffffff02109f05020000000017a9146aab5f23db7106080fa7730d862aa0c4283fd85787c3aa51000000000017a9146bc6cc820dc5387a9b1c544ec0dbe0b770e5066487024830450221008f12d0ab457e5a03a24e88c94495909807f6e1c0aa8172a2516c0edb0f75221802201bd6c7429d3c00d0cab6d24449eb8a3d5e3e5038e88ca52a91b01c790edbe86d012102de782714bd8d27d664cab3285a79380fd89d5329efa3c384df432932fb5c3c1300000000", "vin": [{"txinwitness": ["30450221008f12d0ab457e5a03a24e88c94495909807f6e1c0aa8172a2516c0edb0f75221802201bd6c7429d3c00d0cab6d24449eb8a3d5e3e5038e88ca52a91b01c790edbe86d01", "02de782714bd8d27d664cab3285a79380fd89d5329efa3c384df432932fb5c3c13"], "sequence": 4294967295, "scriptSig": {"hex": "160014505e8426f340dd5f25af3d56e4fc7acb80ba8c9f", "asm": "0014505e8426f340dd5f25af3d56e4fc7acb80ba8c9f"}, "vout": 1, "txid": "35343aac7e1f13c245cd3663fe373c5ebc1409d671c52ab4093801a17900a7b3"}], "txid": "3f611b7937a009cedb948bfa3f2f43a65daa1713942df2c06d76d35dcfce66f1", "blocktime": 1537873282, "version": 2, "confirmations": 11480, "time": 1537873282, "locktime": 0, "vsize": 166, "size": 248}