{"hash": "5243f52b6194e2992140e377b79f4e147cb08c4ff009eb8624ce787d161f00e2", "blockhash": "000000000000000000022b45ed06c6f4ccd3cf7fb5ba4856ebd2e58215665228", "vout": [{"scriptPubKey": {"reqSigs": 1, "hex": "a9148bde37e6511ad9abc4c23a38739d3420da5dbea487", "addresses": ["3ESa4D9zFDdvjPcdPiVRkKQ2BWnSoAntC3"], "asm": "OP_HASH160 8bde37e6511ad9abc4c23a38739d3420da5dbea4 OP_EQUAL", "type": "scripthash"}, "value": 0.01191999, "n": 0}, {"scriptPubKey": {"reqSigs": 1, "hex": "a914936e92f0e4acc60133dc7a332843f10bd72adfb987", "addresses": ["3F8ZiZL6XXCnBy5yqCiahzMyKQvKTTPy7w"], "asm": "OP_HASH160 936e92f0e4acc60133dc7a332843f10bd72adfb9 OP_EQUAL", "type": "scripthash"}, "value": 0.05666304, "n": 1}], "hex": "0200000000010109d96ac28427d0d96180c4b74486eb147cbdd68c39ff35b3f4e36565d28e31de010000001716001424b06fdd92c90ce92127c7ee96f189502e52b7c1ffffffff023f3012000000000017a9148bde37e6511ad9abc4c23a38739d3420da5dbea487007656000000000017a914936e92f0e4acc60133dc7a332843f10bd72adfb98702473044022050f8c83f29dc009c8112698a8de624b62cc4c7d6ef483abd916d38c2633ddcfc02205b53cf19f2c92ea013b33045879cc1d2f3779b62715a8ca29548ef6a554eea39012103da2cfcb76099055ac539ea13e247c613eb5251a91bb581afd885c207a3d50a5700000000", "vin": [{"txinwitness": ["3044022050f8c83f29dc009c8112698a8de624b62cc4c7d6ef483abd916d38c2633ddcfc02205b53cf19f2c92ea013b33045879cc1d2f3779b62715a8ca29548ef6a554eea3901", "03da2cfcb76099055ac539ea13e247c613eb5251a91bb581afd885c207a3d50a57"], "sequence": 4294967295, "scriptSig": {"hex": "16001424b06fdd92c90ce92127c7ee96f189502e52b7c1", "asm": "001424b06fdd92c90ce92127c7ee96f189502e52b7c1"}, "vout": 1, "txid": "de318ed26565e3f4b335ff398cd6bd7c14eb8644b7c48061d9d02784c26ad909"}], "txid": "3f69893a5603b8e398845ab487d3420bc1e2f63beb4c85d76efb4798dcc4e62c", "blocktime": 1537869901, "version": 2, "confirmations": 11522, "time": 1537869901, "locktime": 0, "vsize": 166, "size": 247}