{"hash": "0dc12ef3a49ee2d0d007cf21aeaeee5be3adfa36766e602b7c63495181fc238e", "blockhash": "0000000000000000001f76057863aec43deb6fa401d9628bb513d65a8098bfab", "vout": [{"scriptPubKey": {"reqSigs": 1, "hex": "a9148321bac2202c2b1e12fe11bf27bf5f01f34f5b0587", "addresses": ["3DeNrEzKoUdDa6m3FJvp4jPBk1JrUfuUHz"], "asm": "OP_HASH160 8321bac2202c2b1e12fe11bf27bf5f01f34f5b05 OP_EQUAL", "type": "scripthash"}, "value": 0.0022766, "n": 0}, {"scriptPubKey": {"reqSigs": 1, "hex": "a914127fbdac2aa22caf8a747dec945f8636a5af5ba287", "addresses": ["33Nq7bD4jDBmGkVy2NPjjV9p8ThcJCaHTi"], "asm": "OP_HASH160 127fbdac2aa22caf8a747dec945f8636a5af5ba2 OP_EQUAL", "type": "scripthash"}, "value": 0.01090539, "n": 1}], "hex": "0200000000010216720d1abc9eac995da79ea660e111ba31961650944195b39a5c72288617b1280000000017160014d8986ed8f31aade379d0e171d6b97b981acf09e2feffffffb538621df0fb8cc69b7193d360794abb95e583c0edebbf289a3baab4b4db4ab700000000171600149ed85c52c2dd564557efd786e57a0c932db84c02feffffff024c7903000000000017a9148321bac2202c2b1e12fe11bf27bf5f01f34f5b0587eba310000000000017a914127fbdac2aa22caf8a747dec945f8636a5af5ba28702483045022100902eb89d3a7420508c8df7a3e1c1bf37d9249e2c66a981738092d2b39a56cc87022071ffe074c4e14d5cde08b93b84124d1b1d1f092a5cc518860097b137188513d2012103df82e8be31436e468d67ab03f3ab74564adbbbcb8d0d800e4416cde44383f80d02473044022030101a2baa9e2162891e262d57ccb1d5923f75ecaf175739bf1803d8d70f1395022013d7894020f0e94d961728b1b63ea3c995d300abaf364f8e5318d3d186db8762012102204c7ffcd2d3aee9ec7845bf2db55744f798f61d422b964e379b8fb0d3a1c1e514490800", "vin": [{"txinwitness": ["3045022100902eb89d3a7420508c8df7a3e1c1bf37d9249e2c66a981738092d2b39a56cc87022071ffe074c4e14d5cde08b93b84124d1b1d1f092a5cc518860097b137188513d201", "03df82e8be31436e468d67ab03f3ab74564adbbbcb8d0d800e4416cde44383f80d"], "sequence": 4294967294, "scriptSig": {"hex": "160014d8986ed8f31aade379d0e171d6b97b981acf09e2", "asm": "0014d8986ed8f31aade379d0e171d6b97b981acf09e2"}, "vout": 0, "txid": "28b1178628725c9ab395419450169631ba11e160a69ea75d99ac9ebc1a0d7216"}, {"txinwitness": ["3044022030101a2baa9e2162891e262d57ccb1d5923f75ecaf175739bf1803d8d70f1395022013d7894020f0e94d961728b1b63ea3c995d300abaf364f8e5318d3d186db876201", "02204c7ffcd2d3aee9ec7845bf2db55744f798f61d422b964e379b8fb0d3a1c1e5"], "sequence": 4294967294, "scriptSig": {"hex": "1600149ed85c52c2dd564557efd786e57a0c932db84c02", "asm": "00149ed85c52c2dd564557efd786e57a0c932db84c02"}, "vout": 0, "txid": "b74adbb4b4aa3b9a28bfebedc083e595bb4a7960d393719bc68cfbf01d6238b5"}], "txid": "3f6b6cdb5de72a8ce8a7d307231125e1cb448423ea1872063b1d1fb69e0a0f25", "blocktime": 1537873891, "version": 2, "confirmations": 11478, "time": 1537873891, "locktime": 542996, "vsize": 257, "size": 419}