{"hash": "3f6fd51901c12bf6ccd8eb9cb7dd5ebdb8f501f8845d6f1bf129f75bdf285375", "blockhash": "00000000000000000004ffacab907a6b429b9a5745fa0b75af4234bf69dd7176", "vout": [{"scriptPubKey": {"reqSigs": 1, "hex": "a914414e9a41532957c781d6bc09188f0817b0a3ce4787", "addresses": ["37eL1QywVUWXSUgALSffRLYp22Ed8fiPrJ"], "asm": "OP_HASH160 414e9a41532957c781d6bc09188f0817b0a3ce47 OP_EQUAL", "type": "scripthash"}, "value": 0.0008, "n": 0}, {"scriptPubKey": {"reqSigs": 1, "hex": "76a914b7888cc82fdecaf88856880550ac43fe948b8cae88ac", "addresses": ["1HjSEm71Kqt31Va9JhJk2SvztwotZkQJFN"], "asm": "OP_DUP OP_HASH160 b7888cc82fdecaf88856880550ac43fe948b8cae OP_EQUALVERIFY OP_CHECKSIG", "type": "pubkeyhash"}, "value": 0.00383958, "n": 1}], "hex": "0200000001ef17128ac3e621483dfedf668e64722ef062df8043a22856eb9a931f9eb21c98010000006b483045022100dee1da66034e3d1daa45699714d73e06aeceedfa49db0c16529edcb60d7f2e0a02206c2e85a0a292605f2111332a2be47c2048954bad16cae5c6f6df6e3386be06a701210285dba1615afced425e9bf10865df3ca5be64805d442bfb96fc768dcec29d27feffffffff02803801000000000017a914414e9a41532957c781d6bc09188f0817b0a3ce4787d6db0500000000001976a914b7888cc82fdecaf88856880550ac43fe948b8cae88ac00000000", "vin": [{"sequence": 4294967295, "scriptSig": {"hex": "483045022100dee1da66034e3d1daa45699714d73e06aeceedfa49db0c16529edcb60d7f2e0a02206c2e85a0a292605f2111332a2be47c2048954bad16cae5c6f6df6e3386be06a701210285dba1615afced425e9bf10865df3ca5be64805d442bfb96fc768dcec29d27fe", "asm": "3045022100dee1da66034e3d1daa45699714d73e06aeceedfa49db0c16529edcb60d7f2e0a02206c2e85a0a292605f2111332a2be47c2048954bad16cae5c6f6df6e3386be06a7[ALL] 0285dba1615afced425e9bf10865df3ca5be64805d442bfb96fc768dcec29d27fe"}, "vout": 1, "txid": "981cb29e1f939aeb5628a24380df62f02e72648e66dffe3d4821e6c38a1217ef"}], "txid": "3f6fd51901c12bf6ccd8eb9cb7dd5ebdb8f501f8845d6f1bf129f75bdf285375", "blocktime": 1537875543, "version": 2, "confirmations": 11464, "time": 1537875543, "locktime": 0, "vsize": 224, "size": 224}