{"hash": "3f73fa78731f23a66f0e7f5ea476767b8350edb72933cfb53df61d4f168c2be5", "blockhash": "00000000000000000017f5eb5941039fbcee6240d03bc1f2f8e35350df66a1d8", "vout": [{"scriptPubKey": {"reqSigs": 1, "hex": "76a9143bd1369339f18f290a243ecc5647a58cc6acd7a488ac", "addresses": ["16THVht9QLcYkxrt3FVEpUsHaYDNWiByaz"], "asm": "OP_DUP OP_HASH160 3bd1369339f18f290a243ecc5647a58cc6acd7a4 OP_EQUALVERIFY OP_CHECKSIG", "type": "pubkeyhash"}, "value": 0.01000447, "n": 0}, {"scriptPubKey": {"reqSigs": 1, "hex": "76a914f31e14c52bc07eee386663658f366531d776687a88ac", "addresses": ["1PAVEgwSBvch1dNFk3Qmk8PMFHhxY2YmPY"], "asm": "OP_DUP OP_HASH160 f31e14c52bc07eee386663658f366531d776687a OP_EQUALVERIFY OP_CHECKSIG", "type": "pubkeyhash"}, "value": 0.06381376, "n": 1}], "hex": "0200000003c4b22f29f875407e3183478c8d1f506215c4fff8c79fbe25232d09fc96d36636010000006b483045022100d9b7f9e3e2097bc2bf37c00dabcf2072f5a69168e07bb604e8501a524a7bd3d5022052f89b176fa5584d218842567487369213c5fa3a2037e07d4357343c2093d87f0121037341ac1c17dc87bd766258177a596662b4da7e22dda3bddaab89e7e697c72c53feffffffad15ca8e6cd7afa511b0f8d9866ff7b79dd718999a86ed928a15a1b6b3ba63c00000000069463043021f094e31cd5a67f656aa60f563fd2a4a9042e6cf350a84d8f2707d9ef56349a1022029bb91ade8f8fa4eef0f9c721d38f16a481c803b03cd294a71f2284a39cfb3c10121037341ac1c17dc87bd766258177a596662b4da7e22dda3bddaab89e7e697c72c53feffffff333800daa6c2a71a2afdf5c4c0009935a8dea10205d08b1c6d7754020313b28c010000006b483045022100e17f496a9733852e304cb5539e61f84ca4642ccf8f7eedffb4b261163fc0dbcd022040d6655d9b7a6f78789557880e3ca2b7d5d2009d34c772ff0a061e4267e0e1d10121037341ac1c17dc87bd766258177a596662b4da7e22dda3bddaab89e7e697c72c53feffffff02ff430f00000000001976a9143bd1369339f18f290a243ecc5647a58cc6acd7a488ac405f6100000000001976a914f31e14c52bc07eee386663658f366531d776687a88ac15490800", "vin": [{"sequence": 4294967294, "scriptSig": {"hex": "483045022100d9b7f9e3e2097bc2bf37c00dabcf2072f5a69168e07bb604e8501a524a7bd3d5022052f89b176fa5584d218842567487369213c5fa3a2037e07d4357343c2093d87f0121037341ac1c17dc87bd766258177a596662b4da7e22dda3bddaab89e7e697c72c53", "asm": "3045022100d9b7f9e3e2097bc2bf37c00dabcf2072f5a69168e07bb604e8501a524a7bd3d5022052f89b176fa5584d218842567487369213c5fa3a2037e07d4357343c2093d87f[ALL] 037341ac1c17dc87bd766258177a596662b4da7e22dda3bddaab89e7e697c72c53"}, "vout": 1, "txid": "3666d396fc092d2325be9fc7f8ffc41562501f8d8c4783317e4075f8292fb2c4"}, {"sequence": 4294967294, "scriptSig": {"hex": "463043021f094e31cd5a67f656aa60f563fd2a4a9042e6cf350a84d8f2707d9ef56349a1022029bb91ade8f8fa4eef0f9c721d38f16a481c803b03cd294a71f2284a39cfb3c10121037341ac1c17dc87bd766258177a596662b4da7e22dda3bddaab89e7e697c72c53", "asm": "3043021f094e31cd5a67f656aa60f563fd2a4a9042e6cf350a84d8f2707d9ef56349a1022029bb91ade8f8fa4eef0f9c721d38f16a481c803b03cd294a71f2284a39cfb3c1[ALL] 037341ac1c17dc87bd766258177a596662b4da7e22dda3bddaab89e7e697c72c53"}, "vout": 0, "txid": "c063bab3b6a1158a92ed869a9918d79db7f76f86d9f8b011a5afd76c8eca15ad"}, {"sequence": 4294967294, "scriptSig": {"hex": "483045022100e17f496a9733852e304cb5539e61f84ca4642ccf8f7eedffb4b261163fc0dbcd022040d6655d9b7a6f78789557880e3ca2b7d5d2009d34c772ff0a061e4267e0e1d10121037341ac1c17dc87bd766258177a596662b4da7e22dda3bddaab89e7e697c72c53", "asm": "3045022100e17f496a9733852e304cb5539e61f84ca4642ccf8f7eedffb4b261163fc0dbcd022040d6655d9b7a6f78789557880e3ca2b7d5d2009d34c772ff0a061e4267e0e1d1[ALL] 037341ac1c17dc87bd766258177a596662b4da7e22dda3bddaab89e7e697c72c53"}, "vout": 1, "txid": "8cb213030254776d1c8bd00502a1dea8359900c0c4f5fd2a1aa7c2a6da003833"}], "txid": "3f73fa78731f23a66f0e7f5ea476767b8350edb72933cfb53df61d4f168c2be5", "blocktime": 1537874412, "version": 2, "confirmations": 11467, "time": 1537874412, "locktime": 542997, "vsize": 520, "size": 520}