{"hash": "a6e733828e3ad5cca31dd08ac790707956a77a9263ac057892a70f98e1894bba", "blockhash": "0000000000000000000e13cef7c366c0283d82e591d1acd082e914b08063cdf1", "vout": [{"scriptPubKey": {"reqSigs": 1, "hex": "00148579f9e664ee19bdca601533b716c79ccdc5d0d0", "addresses": ["bc1qs4ulnenyacvmmjnqz5emw9k8nnxut5xsgn32mj"], "asm": "0 8579f9e664ee19bdca601533b716c79ccdc5d0d0", "type": "witness_v0_keyhash"}, "value": 1.229e-05, "n": 0}, {"scriptPubKey": {"reqSigs": 1, "hex": "a914906ab53dfc158b28103ea5b5c0a93c1d882b95f787", "addresses": ["3Erd4NGj3s1DeWrUn81JtBkaqbTvMKJbqJ"], "asm": "OP_HASH160 906ab53dfc158b28103ea5b5c0a93c1d882b95f7 OP_EQUAL", "type": "scripthash"}, "value": 0.0021043, "n": 1}], "hex": "01000000000101b324d042082f4ae8285f215b9f6d20c15d475bade402d7f8d1916c0c4373d6120000000000ffffffff02cd040000000000001600148579f9e664ee19bdca601533b716c79ccdc5d0d0fe3503000000000017a914906ab53dfc158b28103ea5b5c0a93c1d882b95f78702483045022100f9469dc8a578c37a856b486775ef4dfbdbd277216b9853479ca49b3ff36c9ac2022063c11b714c767a11662ac9d4a606f0623a266ba9fbf626b6a4b16b5fbf0ecd0f01210362878655b37e74c1f3e757799ca150e122725d2120b544e8db4d812591f1e62f00000000", "vin": [{"txinwitness": ["3045022100f9469dc8a578c37a856b486775ef4dfbdbd277216b9853479ca49b3ff36c9ac2022063c11b714c767a11662ac9d4a606f0623a266ba9fbf626b6a4b16b5fbf0ecd0f01", "0362878655b37e74c1f3e757799ca150e122725d2120b544e8db4d812591f1e62f"], "sequence": 4294967295, "scriptSig": {"hex": "", "asm": ""}, "vout": 0, "txid": "12d673430c6c91d1f8d702e4ad5b475dc1206d9f5b215f28e84a2f0842d024b3"}], "txid": "3f76c08d8aa805bd180a1eb3bcb367e4944ded0d0903c0f3257af382bb169026", "blocktime": 1537871767, "version": 1, "confirmations": 11495, "time": 1537871767, "locktime": 0, "vsize": 142, "size": 224}