{"hash": "3f7d89112ab7ffee223635d20ebcc5fa3f3e253ccd99bfaacca6d23fcf0e50c8", "blockhash": "0000000000000000000dcc0f55137456b1a82d3642486a52398922ac4d620174", "vout": [{"scriptPubKey": {"reqSigs": 1, "hex": "76a914af877ac4c36a38aa184daf58e02defbf82026d6d88ac", "addresses": ["1H17YrcxZAxwUrGjneiWZJiEUmAMshw362"], "asm": "OP_DUP OP_HASH160 af877ac4c36a38aa184daf58e02defbf82026d6d OP_EQUALVERIFY OP_CHECKSIG", "type": "pubkeyhash"}, "value": 0.01837222, "n": 0}, {"scriptPubKey": {"reqSigs": 1, "hex": "76a914b95bc101586b097d886048bc3d49ee3b6060b2a988ac", "addresses": ["1Hu5vfU64yFv5jZLAwxaqG34sRf6YxThLH"], "asm": "OP_DUP OP_HASH160 b95bc101586b097d886048bc3d49ee3b6060b2a9 OP_EQUALVERIFY OP_CHECKSIG", "type": "pubkeyhash"}, "value": 0.06512986, "n": 1}], "hex": "0100000001db4368f1d3b721813536976a9102eb58cdcc0ac70378081a188c765be7dabaaf010000006a47304402206b44bd507b7e2e846a748e9be967534baeae6b31607386f86e35bbc40b4bd69702205c92982d824777e670073bfb66dc11889313b1deccfb519bc56afb21286c13bf012103082cc23b3e13cf3ebfaa19a0739c5763643ac0a19db03fa875406bc1c2dd9170ffffffff02a6081c00000000001976a914af877ac4c36a38aa184daf58e02defbf82026d6d88ac5a616300000000001976a914b95bc101586b097d886048bc3d49ee3b6060b2a988ac00000000", "vin": [{"sequence": 4294967295, "scriptSig": {"hex": "47304402206b44bd507b7e2e846a748e9be967534baeae6b31607386f86e35bbc40b4bd69702205c92982d824777e670073bfb66dc11889313b1deccfb519bc56afb21286c13bf012103082cc23b3e13cf3ebfaa19a0739c5763643ac0a19db03fa875406bc1c2dd9170", "asm": "304402206b44bd507b7e2e846a748e9be967534baeae6b31607386f86e35bbc40b4bd69702205c92982d824777e670073bfb66dc11889313b1deccfb519bc56afb21286c13bf[ALL] 03082cc23b3e13cf3ebfaa19a0739c5763643ac0a19db03fa875406bc1c2dd9170"}, "vout": 1, "txid": "afbadae75b768c181a087803c70acccd58eb02916a9736358121b7d3f16843db"}], "txid": "3f7d89112ab7ffee223635d20ebcc5fa3f3e253ccd99bfaacca6d23fcf0e50c8", "blocktime": 1537870268, "version": 1, "confirmations": 11516, "time": 1537870268, "locktime": 0, "vsize": 225, "size": 225}