{"hash": "516cca501f39d0b219267a65363d71c4365bc46ca029911d878a5807c3b0756a", "blockhash": "0000000000000000001e0dab787dd257d1dbfcb92a98c2207d5e1078be1f4165", "vout": [{"scriptPubKey": {"reqSigs": 1, "hex": "a914d9feb7a7a58c4cf7cf6351d8acc500e4f47fc8b487", "addresses": ["3MZfhFEpEAE94kzxWe78E9qeUp1Rsjs7Uv"], "asm": "OP_HASH160 d9feb7a7a58c4cf7cf6351d8acc500e4f47fc8b4 OP_EQUAL", "type": "scripthash"}, "value": 1.14528425, "n": 0}, {"scriptPubKey": {"reqSigs": 1, "hex": "a9145d4aa0b4659782328f083f0fd330d6daf9c2840487", "addresses": ["3ACJAcQ8FcqFYwJFwfXSp95JMaBTDhM8W6"], "asm": "OP_HASH160 5d4aa0b4659782328f083f0fd330d6daf9c28404 OP_EQUAL", "type": "scripthash"}, "value": 0.01139, "n": 1}], "hex": "02000000000101ae6cc40c14dd3afa962dbf1a77c8940213f68b51e2536b727970b079af00c30100000000171600144218af01d1f1e5b546c05ceb348a0cf5d2dd6f2ffeffffff02a990d3060000000017a914d9feb7a7a58c4cf7cf6351d8acc500e4f47fc8b487386111000000000017a9145d4aa0b4659782328f083f0fd330d6daf9c284048702483045022100d31881602d82f4c24ddf1790950103272ee412c4a9f25e5acbf32a52e886493402202679ce6225059d6fb26b0a225fe6537ab6f84095c6cb1f9e37739e940e2045830121023d397615295783a542f6d3cd3c9ae0d9cb5612f47215f976cb458652902ebab9c0480800", "vin": [{"txinwitness": ["3045022100d31881602d82f4c24ddf1790950103272ee412c4a9f25e5acbf32a52e886493402202679ce6225059d6fb26b0a225fe6537ab6f84095c6cb1f9e37739e940e20458301", "023d397615295783a542f6d3cd3c9ae0d9cb5612f47215f976cb458652902ebab9"], "sequence": 4294967294, "scriptSig": {"hex": "1600144218af01d1f1e5b546c05ceb348a0cf5d2dd6f2f", "asm": "00144218af01d1f1e5b546c05ceb348a0cf5d2dd6f2f"}, "vout": 0, "txid": "01c300af79b07079726b53e2518bf6130294c8771abf2d96fa3add140cc46cae"}], "txid": "3f8506998267f739dd8767954f2c5690eb014e7a68a3185d42d95b42727a161d", "blocktime": 1537872475, "version": 2, "confirmations": 11487, "time": 1537872475, "locktime": 542912, "vsize": 166, "size": 248}