{"hash": "dcfe6ccd8d3d7846587e6fb5ab65e4adb96d39d6dae6352ba53ce0de2e5c6834", "blockhash": "0000000000000000000e13cef7c366c0283d82e591d1acd082e914b08063cdf1", "vout": [{"scriptPubKey": {"reqSigs": 1, "hex": "a91400be7fb5796657c518e6682d20716ca9338d2cc887", "addresses": ["31kx8dtQWByifWfZE6jvgJrnMoLa8iM4gJ"], "asm": "OP_HASH160 00be7fb5796657c518e6682d20716ca9338d2cc8 OP_EQUAL", "type": "scripthash"}, "value": 0.00011046, "n": 0}, {"scriptPubKey": {"reqSigs": 1, "hex": "a914e8db75c900cf08f06518e96d167331f2a4abfb3387", "addresses": ["3NvFbQMAkkqEFj4i1sYPPLkSWzxTFUchjA"], "asm": "OP_HASH160 e8db75c900cf08f06518e96d167331f2a4abfb33 OP_EQUAL", "type": "scripthash"}, "value": 0.04879577, "n": 1}], "hex": "010000000001011177e5565cf9b17a79a0a0e25a40fbd271858e38b4e73c028ec9336e59da3a160100000023220020941cfaff8837763dc1f69ff82b6d6553fdea17a41cfc29a04403293eedd8ccc7ffffffff02262b00000000000017a91400be7fb5796657c518e6682d20716ca9338d2cc887d9744a000000000017a914e8db75c900cf08f06518e96d167331f2a4abfb33870400473044022043950e000505fe9c3691238f6460a73fbf7c90ddcf4acd27ff43a207009816ec02200903f15ac330c7870ffbf8aeb02172ffe29f61b3f919423eb13f3b4427dee66301483045022100d17aa02341dbefd08620d8b395a33c1c610d844c75a75827a931ea6d2e4f8a0602206cf7472078e0e960070fbf88b6656d019cbf4a61fffc059ba777af12a6ab3d620147522102531db3a5883f29bab4241dd0cd726936667bcda445d89bdd22244e828b6993342103148c80a5bdfddb05ff5bcffc397c8ca748d8b435ec6a175bc9d7bfc7fc6f853752ae00000000", "vin": [{"txinwitness": ["", "3044022043950e000505fe9c3691238f6460a73fbf7c90ddcf4acd27ff43a207009816ec02200903f15ac330c7870ffbf8aeb02172ffe29f61b3f919423eb13f3b4427dee66301", "3045022100d17aa02341dbefd08620d8b395a33c1c610d844c75a75827a931ea6d2e4f8a0602206cf7472078e0e960070fbf88b6656d019cbf4a61fffc059ba777af12a6ab3d6201", "522102531db3a5883f29bab4241dd0cd726936667bcda445d89bdd22244e828b6993342103148c80a5bdfddb05ff5bcffc397c8ca748d8b435ec6a175bc9d7bfc7fc6f853752ae"], "sequence": 4294967295, "scriptSig": {"hex": "220020941cfaff8837763dc1f69ff82b6d6553fdea17a41cfc29a04403293eedd8ccc7", "asm": "0020941cfaff8837763dc1f69ff82b6d6553fdea17a41cfc29a04403293eedd8ccc7"}, "vout": 1, "txid": "163ada596e33c98e023ce7b4388e8571d2fb405ae2a0a0797ab1f95c56e57711"}], "txid": "3f89c6f0ecc670b0269d189e8df8d26fdb68aca25ff7ea17c2e046f3c1a8b4ab", "blocktime": 1537871767, "version": 1, "confirmations": 11495, "time": 1537871767, "locktime": 0, "vsize": 206, "size": 371}