{"hash": "3f8a0d1feacf4b1ac36b5be0e83391c0c8ed690f1b457fbd0af275f5ac4d69ff", "blockhash": "0000000000000000000e13cef7c366c0283d82e591d1acd082e914b08063cdf1", "vout": [{"scriptPubKey": {"reqSigs": 1, "hex": "a914dffe2c949df076e939cd5848c331fcccd4eaf3a987", "addresses": ["3N7P6ei9aocHfAnWFM2chfoWhCj328guHQ"], "asm": "OP_HASH160 dffe2c949df076e939cd5848c331fcccd4eaf3a9 OP_EQUAL", "type": "scripthash"}, "value": 0.00188279, "n": 0}, {"scriptPubKey": {"reqSigs": 1, "hex": "76a9141957f8680c27b5a369364a6420cfc3c8f973e44f88ac", "addresses": ["13K1H5kmLxCM5fP5aEEsiDCVEsrWRY5r26"], "asm": "OP_DUP OP_HASH160 1957f8680c27b5a369364a6420cfc3c8f973e44f OP_EQUALVERIFY OP_CHECKSIG", "type": "pubkeyhash"}, "value": 0.00011908, "n": 1}], "hex": "010000000260c02c25d315a3ba378ccae9d54d1a1ef2b09b08eb8ab526fb8f0c2d4e7edaef010000006a473044022030e1ffc50b3958ffcf865d15f887d7facb1f04beb2c0627bf797e6f32621417702202e6de2d208df0d64b1c87912b1b0aeacea55d1a99770d502f505ec94a8eed637012102946b02f4ed660b1538c0b56736f6cc0d2bd737e8564f1d8c81310d606bbf6ee4ffffffff7d9b0665fbac2d856cb53a506b8ecf0ce00829bdd6def45edc62b1ca2c713cc0010000006a473044022065de6e6115adee638479a149ef5b45eb6e6dd05faa5b22db7b0b2531b19465a102205c8b5195ffd8ed7a11286c8bdab43d7763d7a04bd2c4fc76dab30da14fa85db9012102946b02f4ed660b1538c0b56736f6cc0d2bd737e8564f1d8c81310d606bbf6ee4ffffffff0277df02000000000017a914dffe2c949df076e939cd5848c331fcccd4eaf3a987842e0000000000001976a9141957f8680c27b5a369364a6420cfc3c8f973e44f88ac00000000", "vin": [{"sequence": 4294967295, "scriptSig": {"hex": "473044022030e1ffc50b3958ffcf865d15f887d7facb1f04beb2c0627bf797e6f32621417702202e6de2d208df0d64b1c87912b1b0aeacea55d1a99770d502f505ec94a8eed637012102946b02f4ed660b1538c0b56736f6cc0d2bd737e8564f1d8c81310d606bbf6ee4", "asm": "3044022030e1ffc50b3958ffcf865d15f887d7facb1f04beb2c0627bf797e6f32621417702202e6de2d208df0d64b1c87912b1b0aeacea55d1a99770d502f505ec94a8eed637[ALL] 02946b02f4ed660b1538c0b56736f6cc0d2bd737e8564f1d8c81310d606bbf6ee4"}, "vout": 1, "txid": "efda7e4e2d0c8ffb26b58aeb089bb0f21e1a4dd5e9ca8c37baa315d3252cc060"}, {"sequence": 4294967295, "scriptSig": {"hex": "473044022065de6e6115adee638479a149ef5b45eb6e6dd05faa5b22db7b0b2531b19465a102205c8b5195ffd8ed7a11286c8bdab43d7763d7a04bd2c4fc76dab30da14fa85db9012102946b02f4ed660b1538c0b56736f6cc0d2bd737e8564f1d8c81310d606bbf6ee4", "asm": "3044022065de6e6115adee638479a149ef5b45eb6e6dd05faa5b22db7b0b2531b19465a102205c8b5195ffd8ed7a11286c8bdab43d7763d7a04bd2c4fc76dab30da14fa85db9[ALL] 02946b02f4ed660b1538c0b56736f6cc0d2bd737e8564f1d8c81310d606bbf6ee4"}, "vout": 1, "txid": "c03c712ccab162dc5ef4ded6bd2908e00ccf8e6b503ab56c852dacfb65069b7d"}], "txid": "3f8a0d1feacf4b1ac36b5be0e83391c0c8ed690f1b457fbd0af275f5ac4d69ff", "blocktime": 1537871767, "version": 1, "confirmations": 11495, "time": 1537871767, "locktime": 0, "vsize": 370, "size": 370}