{"hash": "3f8cfb529d53fb669b58d3b660928462b48b4d1865e2f054f84b08714ad0c5c5", "blockhash": "0000000000000000001e0dab787dd257d1dbfcb92a98c2207d5e1078be1f4165", "vout": [{"scriptPubKey": {"reqSigs": 1, "hex": "76a914620f69304664f151a2680bd05cbb54b80393cc0988ac", "addresses": ["19wVgZtMSA8wmF7bYpyAeXgCtZfbRWMXGA"], "asm": "OP_DUP OP_HASH160 620f69304664f151a2680bd05cbb54b80393cc09 OP_EQUALVERIFY OP_CHECKSIG", "type": "pubkeyhash"}, "value": 0.00109337, "n": 0}, {"scriptPubKey": {"reqSigs": 1, "hex": "76a9145cf22f8b6a8640e8487c0e16bfe47f54e28ced5388ac", "addresses": ["19UTJ1RZiWDsAooh8123GG6boQrmT6d3Mr"], "asm": "OP_DUP OP_HASH160 5cf22f8b6a8640e8487c0e16bfe47f54e28ced53 OP_EQUALVERIFY OP_CHECKSIG", "type": "pubkeyhash"}, "value": 0.01568344, "n": 1}], "hex": "010000000187990820d15632cf464095e212eaa55e2030898a4c54a8930015268568e79abf010000006a4730440220624211507ec6993945667f319e422665cd57333491f91e34fc3c03f64951f84b022067e8a289ac9a5b4b6d116b5d9fd9d8dccd7a919008caa31e4351c52b9381604f012102efb93cc66e7f7f512a644c67f12aa9b467400344e08eb7e2e989bec1bad8b670ffffffff0219ab0100000000001976a914620f69304664f151a2680bd05cbb54b80393cc0988ac58ee1700000000001976a9145cf22f8b6a8640e8487c0e16bfe47f54e28ced5388ac00000000", "vin": [{"sequence": 4294967295, "scriptSig": {"hex": "4730440220624211507ec6993945667f319e422665cd57333491f91e34fc3c03f64951f84b022067e8a289ac9a5b4b6d116b5d9fd9d8dccd7a919008caa31e4351c52b9381604f012102efb93cc66e7f7f512a644c67f12aa9b467400344e08eb7e2e989bec1bad8b670", "asm": "30440220624211507ec6993945667f319e422665cd57333491f91e34fc3c03f64951f84b022067e8a289ac9a5b4b6d116b5d9fd9d8dccd7a919008caa31e4351c52b9381604f[ALL] 02efb93cc66e7f7f512a644c67f12aa9b467400344e08eb7e2e989bec1bad8b670"}, "vout": 1, "txid": "bf9ae7688526150093a8544c8a8930205ea5ea12e2954046cf3256d120089987"}], "txid": "3f8cfb529d53fb669b58d3b660928462b48b4d1865e2f054f84b08714ad0c5c5", "blocktime": 1537872475, "version": 1, "confirmations": 11486, "time": 1537872475, "locktime": 0, "vsize": 225, "size": 225}