{"hash": "3f944af6e07679a3e0c7cb4ab048428cd3342366ad8b25344c943b58421ad8f3", "blockhash": "0000000000000000000dcc0f55137456b1a82d3642486a52398922ac4d620174", "vout": [{"scriptPubKey": {"reqSigs": 1, "hex": "a914ecf89c25e7a51529b8bbb18ecb79623b378fd8be87", "addresses": ["3PJ1DYAVpgbG2TAzKfhGjfkkJB82uurPbq"], "asm": "OP_HASH160 ecf89c25e7a51529b8bbb18ecb79623b378fd8be OP_EQUAL", "type": "scripthash"}, "value": 0.001, "n": 0}, {"scriptPubKey": {"reqSigs": 1, "hex": "76a914b216fc73507de135dd76097226f2786e58acbf0888ac", "addresses": ["1HEepFXVRXCfbtRwMow9rPmSRGfmUWHhjB"], "asm": "OP_DUP OP_HASH160 b216fc73507de135dd76097226f2786e58acbf08 OP_EQUALVERIFY OP_CHECKSIG", "type": "pubkeyhash"}, "value": 0.02588411, "n": 1}], "hex": "0100000001c67b77ed3d2b9f46334501dc8831ffd94453947b3cbd8d61675aa11eeb532f99010000006a47304402202a11728a49ae91512768ca3e73c2647195258c5999b055c1382e7a032cf2b7e102204ad698a78b23701a5377a22c106190f26e5650276e161c1bdbcf274912d646d3012103ba3b416645c9e2331905d539f4eeebf05156d4d813267f7d4d6a59577bd20309fdffffff02a08601000000000017a914ecf89c25e7a51529b8bbb18ecb79623b378fd8be87fb7e2700000000001976a914b216fc73507de135dd76097226f2786e58acbf0888ac0b490800", "vin": [{"sequence": 4294967293, "scriptSig": {"hex": "47304402202a11728a49ae91512768ca3e73c2647195258c5999b055c1382e7a032cf2b7e102204ad698a78b23701a5377a22c106190f26e5650276e161c1bdbcf274912d646d3012103ba3b416645c9e2331905d539f4eeebf05156d4d813267f7d4d6a59577bd20309", "asm": "304402202a11728a49ae91512768ca3e73c2647195258c5999b055c1382e7a032cf2b7e102204ad698a78b23701a5377a22c106190f26e5650276e161c1bdbcf274912d646d3[ALL] 03ba3b416645c9e2331905d539f4eeebf05156d4d813267f7d4d6a59577bd20309"}, "vout": 1, "txid": "992f53eb1ea15a67618dbd3c7b945344d9ff3188dc014533469f2b3ded777bc6"}], "txid": "3f944af6e07679a3e0c7cb4ab048428cd3342366ad8b25344c943b58421ad8f3", "blocktime": 1537870268, "version": 1, "confirmations": 11516, "time": 1537870268, "locktime": 542987, "vsize": 223, "size": 223}