{"hash": "3f988806446409cde139e802502b60c771444a88f2c209f865000372a72b50b5", "blockhash": "0000000000000000000dcc0f55137456b1a82d3642486a52398922ac4d620174", "vout": [{"scriptPubKey": {"reqSigs": 1, "hex": "76a914666da0569d39e121df31ddfd775766585dc1e80888ac", "addresses": ["1ALbFY9gcmT1XbfUBV7LohCyygeGG55cJ3"], "asm": "OP_DUP OP_HASH160 666da0569d39e121df31ddfd775766585dc1e808 OP_EQUALVERIFY OP_CHECKSIG", "type": "pubkeyhash"}, "value": 0.00441503, "n": 0}, {"scriptPubKey": {"reqSigs": 1, "hex": "76a914ce8b6cbe95186a0aa2c11a0204c8c4b9d99c43ef88ac", "addresses": ["1Kq7DvQeyQ4tBegNenEMgeHEZ3mSMBprBY"], "asm": "OP_DUP OP_HASH160 ce8b6cbe95186a0aa2c11a0204c8c4b9d99c43ef OP_EQUALVERIFY OP_CHECKSIG", "type": "pubkeyhash"}, "value": 0.023258, "n": 1}], "hex": "0100000002a697316412ed838f56e3c4a6eb464ac271b7019cfb4a63d2b7d30ae24097f4b3010000006a4730440220352e772ace2ea15882cd20546f498d2f33fc26d3daf62739008f63676e0caf7802207f26dfbc757c29d26a6a0daa7fe6419e5dd0d1b50b5181ff50c6f1cdcaa99c78012103e3950501794513455eb11a9d02bb2b544c6a720cfafccceb53580519db617816ffffffff243529c9b86583badb85f831b205c9c410dabcaa40aee69140bfc37c5aa0055c000000006a473044022006212570e66936f250511b2d2caed4526ef9211be0a46e9d6da09994fc3957b102206dd6b9b42682b8d0d27d3d794221d3ea32182a6d753c558a89e3f50baa820f270121034605080def7d53655b7000c9d65367618d23aef0ffe8f63405f192e03710f726ffffffff029fbc0600000000001976a914666da0569d39e121df31ddfd775766585dc1e80888ac287d2300000000001976a914ce8b6cbe95186a0aa2c11a0204c8c4b9d99c43ef88ac00000000", "vin": [{"sequence": 4294967295, "scriptSig": {"hex": "4730440220352e772ace2ea15882cd20546f498d2f33fc26d3daf62739008f63676e0caf7802207f26dfbc757c29d26a6a0daa7fe6419e5dd0d1b50b5181ff50c6f1cdcaa99c78012103e3950501794513455eb11a9d02bb2b544c6a720cfafccceb53580519db617816", "asm": "30440220352e772ace2ea15882cd20546f498d2f33fc26d3daf62739008f63676e0caf7802207f26dfbc757c29d26a6a0daa7fe6419e5dd0d1b50b5181ff50c6f1cdcaa99c78[ALL] 03e3950501794513455eb11a9d02bb2b544c6a720cfafccceb53580519db617816"}, "vout": 1, "txid": "b3f49740e20ad3b7d2634afb9c01b771c24a46eba6c4e3568f83ed12643197a6"}, {"sequence": 4294967295, "scriptSig": {"hex": "473044022006212570e66936f250511b2d2caed4526ef9211be0a46e9d6da09994fc3957b102206dd6b9b42682b8d0d27d3d794221d3ea32182a6d753c558a89e3f50baa820f270121034605080def7d53655b7000c9d65367618d23aef0ffe8f63405f192e03710f726", "asm": "3044022006212570e66936f250511b2d2caed4526ef9211be0a46e9d6da09994fc3957b102206dd6b9b42682b8d0d27d3d794221d3ea32182a6d753c558a89e3f50baa820f27[ALL] 034605080def7d53655b7000c9d65367618d23aef0ffe8f63405f192e03710f726"}, "vout": 0, "txid": "5c05a05a7cc3bf4091e6ae40aabcda10c4c905b231f885dbba8365b8c9293524"}], "txid": "3f988806446409cde139e802502b60c771444a88f2c209f865000372a72b50b5", "blocktime": 1537870268, "version": 1, "confirmations": 11518, "time": 1537870268, "locktime": 0, "vsize": 372, "size": 372}