{"hash": "a1d428f434013bda7d19c71ca05a3ee6ccb4c598d2d6c246e905bd82a1be0b92", "blockhash": "0000000000000000001f76057863aec43deb6fa401d9628bb513d65a8098bfab", "vout": [{"scriptPubKey": {"reqSigs": 1, "hex": "76a914cdd57b0c76ffb203269be96d579f2eec073e0a8e88ac", "addresses": ["1KmMGDqz6PNiFiY46UzRw19PjE9X6Nks8U"], "asm": "OP_DUP OP_HASH160 cdd57b0c76ffb203269be96d579f2eec073e0a8e OP_EQUALVERIFY OP_CHECKSIG", "type": "pubkeyhash"}, "value": 0.6400005, "n": 0}], "hex": "0100000000010566b351564dcb7854a00b523c9d7c3fabdb6bd177a3e196d6c34c8729ba01e9f00000000017160014cf35f950206e2ace56a48467183bd24aa8a67deefdffffffc174ef1973c17822bf2dbb456f9688b98a0cca0bbfee5499a021a77b660d19410000000017160014eae9e9fcf4ecea0e58c1c520101460c396f21be7fdffffff77a7dad98317ad132925c234f3c9398707ad2fc71130bfc5fedb3d3e595c470404000000171600146f131d9e8bde433dc2a5370c8be9e6623123bb6ffdffffff50097b676f7be946420eca823456a57dcceb4035dc481efd5cfcd1af53f3346400000000171600144c02c0bb201bff09b4e58cf122ebea6e101bf0f0fdffffff5ff678b1cb89fa9591d217e67cfa0da2637dde6fd42ab764d014c0a1ad17b4fb000000001716001493da0fcf64cee0c3f4568173916a1e68c03018b6fdffffff013290d003000000001976a914cdd57b0c76ffb203269be96d579f2eec073e0a8e88ac0247304402201980732f018513eb026ac8a8718509d5d622275c80b87400339f7020cc6a00cd02207ef12f0e82f02017be32d636155dce6f7678db406572f03dba75f7e306480374012103557c0381182dbb27b80df3afa5914eb33962cf5c6cdc9987c6c684736fa148d902483045022100d162dad810e64f0a8d38da6e05d1bf30d013df2f06505e1e005d217893453af20220134f3a6b1a19a0fb18d54e38832f5069c95244e78e6881160b7f0105c6ba12a4012103119cecc66aae6e7a31bb639881890c974d70ba856fb8e9f90be710ac49644af4024730440220094156d17ca419165ade05198989ac0764a0001e830e3e4c6bf4c5cbd40c986002202b9c78cc4bcbd5621675570e9192f20db0db9daa1f341bafaff58b26afb4495f012103b051eb1cdf609dfe64c7f6f181ff51baf2f6d0d9f9b765ffcba66c6c1c8a01c20247304402202e652b5697f94d3cb075b9a0fed71a5cb45d56c485764f08dc2ac467624bda7b02206ea6390dfe92f2bfbc47afc66c47c35200ac298ef96b9ccfa11da26fa9dbf568012102f91024e65e9e662289afb04a5827e11c9950bbfb3c8da11db6e93087e69dc79d0247304402207dc4c05c90dbbf728c28da884b347978fbd5c2a58fe200c2a5878716d47da9bb02201c14846a7ada2d3d664af66ed80ce5a03483a0b88c01bccf11eaef4f12c54fe9012102d6d61095c455ff4525acd54e196907d3798e923e545a45679f3aa8ce1ce2052f14490800", "vin": [{"txinwitness": ["304402201980732f018513eb026ac8a8718509d5d622275c80b87400339f7020cc6a00cd02207ef12f0e82f02017be32d636155dce6f7678db406572f03dba75f7e30648037401", "03557c0381182dbb27b80df3afa5914eb33962cf5c6cdc9987c6c684736fa148d9"], "sequence": 4294967293, "scriptSig": {"hex": "160014cf35f950206e2ace56a48467183bd24aa8a67dee", "asm": "0014cf35f950206e2ace56a48467183bd24aa8a67dee"}, "vout": 0, "txid": "f0e901ba29874cc3d696e1a377d16bdbab3f7c9d3c520ba05478cb4d5651b366"}, {"txinwitness": ["3045022100d162dad810e64f0a8d38da6e05d1bf30d013df2f06505e1e005d217893453af20220134f3a6b1a19a0fb18d54e38832f5069c95244e78e6881160b7f0105c6ba12a401", "03119cecc66aae6e7a31bb639881890c974d70ba856fb8e9f90be710ac49644af4"], "sequence": 4294967293, "scriptSig": {"hex": "160014eae9e9fcf4ecea0e58c1c520101460c396f21be7", "asm": "0014eae9e9fcf4ecea0e58c1c520101460c396f21be7"}, "vout": 0, "txid": "41190d667ba721a09954eebf0bca0c8ab988966f45bb2dbf2278c17319ef74c1"}, {"txinwitness": ["30440220094156d17ca419165ade05198989ac0764a0001e830e3e4c6bf4c5cbd40c986002202b9c78cc4bcbd5621675570e9192f20db0db9daa1f341bafaff58b26afb4495f01", "03b051eb1cdf609dfe64c7f6f181ff51baf2f6d0d9f9b765ffcba66c6c1c8a01c2"], "sequence": 4294967293, "scriptSig": {"hex": "1600146f131d9e8bde433dc2a5370c8be9e6623123bb6f", "asm": "00146f131d9e8bde433dc2a5370c8be9e6623123bb6f"}, "vout": 4, "txid": "04475c593e3ddbfec5bf3011c72fad078739c9f334c2252913ad1783d9daa777"}, {"txinwitness": ["304402202e652b5697f94d3cb075b9a0fed71a5cb45d56c485764f08dc2ac467624bda7b02206ea6390dfe92f2bfbc47afc66c47c35200ac298ef96b9ccfa11da26fa9dbf56801", "02f91024e65e9e662289afb04a5827e11c9950bbfb3c8da11db6e93087e69dc79d"], "sequence": 4294967293, "scriptSig": {"hex": "1600144c02c0bb201bff09b4e58cf122ebea6e101bf0f0", "asm": "00144c02c0bb201bff09b4e58cf122ebea6e101bf0f0"}, "vout": 0, "txid": "6434f353afd1fc5cfd1e48dc3540ebcc7da5563482ca0e4246e97b6f677b0950"}, {"txinwitness": ["304402207dc4c05c90dbbf728c28da884b347978fbd5c2a58fe200c2a5878716d47da9bb02201c14846a7ada2d3d664af66ed80ce5a03483a0b88c01bccf11eaef4f12c54fe901", "02d6d61095c455ff4525acd54e196907d3798e923e545a45679f3aa8ce1ce2052f"], "sequence": 4294967293, "scriptSig": {"hex": "16001493da0fcf64cee0c3f4568173916a1e68c03018b6", "asm": "001493da0fcf64cee0c3f4568173916a1e68c03018b6"}, "vout": 0, "txid": "fbb417ada1c014d064b72ad46fde7d63a20dfa7ce617d29195fa89cbb178f65f"}], "txid": "3fa589c08b707fb006c9478d455abef09166f819df711a0a19a6a22bf76cb128", "blocktime": 1537873891, "version": 1, "confirmations": 11479, "time": 1537873891, "locktime": 542996, "vsize": 499, "size": 902}