{"hash": "96d7346bc3dcdc8722de2eeabb02cbce4cc9f30220e8854c707aa4a3d6da030d", "blockhash": "0000000000000000000e13cef7c366c0283d82e591d1acd082e914b08063cdf1", "vout": [{"scriptPubKey": {"reqSigs": 1, "hex": "a914c10cf73b743a85b3dcbed800aeedc0b0f9aed0b887", "addresses": ["3KHmsSfA7spConnvPCMkxsduNTMrovWta2"], "asm": "OP_HASH160 c10cf73b743a85b3dcbed800aeedc0b0f9aed0b8 OP_EQUAL", "type": "scripthash"}, "value": 0.0116884, "n": 0}, {"scriptPubKey": {"reqSigs": 1, "hex": "a914d0d6d123443b77147b6ac70d02ab30b3ab08c21587", "addresses": ["3LjFpBporm8JpnqXDcDSmLrmmHiF9EobJT"], "asm": "OP_HASH160 d0d6d123443b77147b6ac70d02ab30b3ab08c215 OP_EQUAL", "type": "scripthash"}, "value": 0.007063, "n": 1}], "hex": "010000000001013a225c087058aa41851534c8f300dd319170059dc37c3f7fa00da08b849c919c0100000023220020653fc5ba61513b7dcf6dff3c287927db2540a5f8bb51e9fef96db1ce5d4092ccffffffff02c8d511000000000017a914c10cf73b743a85b3dcbed800aeedc0b0f9aed0b887fcc60a000000000017a914d0d6d123443b77147b6ac70d02ab30b3ab08c215870400483045022100ed0900610f8a51f58648d6a07392541f283dbe412365ffe0a38d347551922123022014d43edb8add9b18da5890455aff0609ece5526e1d5a4326c5ee5604c7acedf70148304502210090d327e4ece08727934461db0a9103fda27cf6dbe007b4836d7d50cffc5759c5022044008a446d7969a40306dd31d383d62108c890bb42ef19687dda54e50c775763016952210319e8f15b8a47f23edfec585b6d1fdcdecd6dbf2cdb074fdfd67a2469a6e5172c21034867066ebcfd1726e6172dd84c77a58345243756f274df282d68bdbb58deaf442103ae21c5f61826a4e147772572e000ede9487a7259f27b4debc457bafe91e3089b53ae10490800", "vin": [{"txinwitness": ["", "3045022100ed0900610f8a51f58648d6a07392541f283dbe412365ffe0a38d347551922123022014d43edb8add9b18da5890455aff0609ece5526e1d5a4326c5ee5604c7acedf701", "304502210090d327e4ece08727934461db0a9103fda27cf6dbe007b4836d7d50cffc5759c5022044008a446d7969a40306dd31d383d62108c890bb42ef19687dda54e50c77576301", "52210319e8f15b8a47f23edfec585b6d1fdcdecd6dbf2cdb074fdfd67a2469a6e5172c21034867066ebcfd1726e6172dd84c77a58345243756f274df282d68bdbb58deaf442103ae21c5f61826a4e147772572e000ede9487a7259f27b4debc457bafe91e3089b53ae"], "sequence": 4294967295, "scriptSig": {"hex": "220020653fc5ba61513b7dcf6dff3c287927db2540a5f8bb51e9fef96db1ce5d4092cc", "asm": "0020653fc5ba61513b7dcf6dff3c287927db2540a5f8bb51e9fef96db1ce5d4092cc"}, "vout": 1, "txid": "9c919c848ba00da07f3f7cc39d05709131dd00f3c834158541aa5870085c223a"}], "txid": "3fab1b0314b0d0ab054b49a046bed5d329a51b735677ef8d1400962b7521d7d0", "blocktime": 1537871767, "version": 1, "confirmations": 11491, "time": 1537871767, "locktime": 542992, "vsize": 214, "size": 406}