{"hash": "806ce3245be061a38a13384487327365bfcf9fb1d9c1c52cc7b0e7815505306a", "blockhash": "0000000000000000001f76057863aec43deb6fa401d9628bb513d65a8098bfab", "vout": [{"scriptPubKey": {"reqSigs": 1, "hex": "0014b466eaef1199a2b2a04392bcdb03e4ab67ff4d6c", "addresses": ["bc1qk3nw4mc3nx3t9gzrj27dkqly4dnl7ntvqh846j"], "asm": "0 b466eaef1199a2b2a04392bcdb03e4ab67ff4d6c", "type": "witness_v0_keyhash"}, "value": 0.00097005, "n": 0}, {"scriptPubKey": {"reqSigs": 1, "hex": "76a91405046d522563b915f88aa914238c78b82e0f3e4788ac", "addresses": ["1TXgZBjgGvFct9Mrc3Su3MPzCRLDKv5c9"], "asm": "OP_DUP OP_HASH160 05046d522563b915f88aa914238c78b82e0f3e47 OP_EQUALVERIFY OP_CHECKSIG", "type": "pubkeyhash"}, "value": 0.03300705, "n": 1}], "hex": "01000000000101dfd478be557d6c6f080559f8e984066c97642f62e2c65dbc6353e051b7cfe0870100000000ffffffff02ed7a010000000000160014b466eaef1199a2b2a04392bcdb03e4ab67ff4d6c615d3200000000001976a91405046d522563b915f88aa914238c78b82e0f3e4788ac02473044022048d280359746e3d84d1240a467c51f8d308bdbce86733d68c3c3073e52a66df7022045d608fa89d6f387f33326143edf64452800dd6077cd98890d45b476def8acdb012103573aa7346ecba8ef38d3a950d40405b74acada787f018c0723174f775e83b01900000000", "vin": [{"txinwitness": ["3044022048d280359746e3d84d1240a467c51f8d308bdbce86733d68c3c3073e52a66df7022045d608fa89d6f387f33326143edf64452800dd6077cd98890d45b476def8acdb01", "03573aa7346ecba8ef38d3a950d40405b74acada787f018c0723174f775e83b019"], "sequence": 4294967295, "scriptSig": {"hex": "", "asm": ""}, "vout": 1, "txid": "87e0cfb751e05363bc5dc6e2622f64976c0684e9f85905086f6c7d55be78d4df"}], "txid": "3fb2687c6a98a6c15264c2b7bf5df77f591fbd6a6b68feb4c0445e5196f6ca52", "blocktime": 1537873891, "version": 1, "confirmations": 11478, "time": 1537873891, "locktime": 0, "vsize": 144, "size": 225}