{"hash": "3fb8300ab39ee654adce9763a1a7b2fd751f328e7bdfb4b8e111ee5fca6e146e", "blockhash": "0000000000000000001f76057863aec43deb6fa401d9628bb513d65a8098bfab", "vout": [{"scriptPubKey": {"reqSigs": 1, "hex": "76a9147554f5aaa407c250ae3d14b5763aec27e3cf814088ac", "addresses": ["1BhPqYVx7RU2zbwr2rBRGjNifGSFVHn3NL"], "asm": "OP_DUP OP_HASH160 7554f5aaa407c250ae3d14b5763aec27e3cf8140 OP_EQUALVERIFY OP_CHECKSIG", "type": "pubkeyhash"}, "value": 0.0011, "n": 0}, {"scriptPubKey": {"reqSigs": 1, "hex": "76a914e349bc52d6b8100b58d3fce45135a91c5c128a1d88ac", "addresses": ["1MiningDkXkhKaXBTMKXfLemnk1YY5rbkT"], "asm": "OP_DUP OP_HASH160 e349bc52d6b8100b58d3fce45135a91c5c128a1d OP_EQUALVERIFY OP_CHECKSIG", "type": "pubkeyhash"}, "value": 0.06217024, "n": 1}], "hex": "02000000015f811ebd95e83f97b05de64b39a840cc14ede27c729767ca3ad11ec38fbd297a010000008b4830450221008489c1508d60ae52ab8d83a1c31023ea36f494fa3ccae7abff70736cac6653ed02203a44782b22afb4c661c6b933d8a24b697534750d82ab70eb4641c525bb460e78014104ae414abde7876c34e01694b38b2341d10b9b4c8db18a66262bd8df26bcb57893885c9fe8b79aa25330d5f05bb5aa9ab636a908a72e27956572b44190b22809beffffffff02b0ad0100000000001976a9147554f5aaa407c250ae3d14b5763aec27e3cf814088ac40dd5e00000000001976a914e349bc52d6b8100b58d3fce45135a91c5c128a1d88ac00000000", "vin": [{"sequence": 4294967295, "scriptSig": {"hex": "4830450221008489c1508d60ae52ab8d83a1c31023ea36f494fa3ccae7abff70736cac6653ed02203a44782b22afb4c661c6b933d8a24b697534750d82ab70eb4641c525bb460e78014104ae414abde7876c34e01694b38b2341d10b9b4c8db18a66262bd8df26bcb57893885c9fe8b79aa25330d5f05bb5aa9ab636a908a72e27956572b44190b22809be", "asm": "30450221008489c1508d60ae52ab8d83a1c31023ea36f494fa3ccae7abff70736cac6653ed02203a44782b22afb4c661c6b933d8a24b697534750d82ab70eb4641c525bb460e78[ALL] 04ae414abde7876c34e01694b38b2341d10b9b4c8db18a66262bd8df26bcb57893885c9fe8b79aa25330d5f05bb5aa9ab636a908a72e27956572b44190b22809be"}, "vout": 1, "txid": "7a29bd8fc31ed13aca6797727ce2ed14cc40a8394be65db0973fe895bd1e815f"}], "txid": "3fb8300ab39ee654adce9763a1a7b2fd751f328e7bdfb4b8e111ee5fca6e146e", "blocktime": 1537873891, "version": 2, "confirmations": 11478, "time": 1537873891, "locktime": 0, "vsize": 258, "size": 258}