{"hash": "3fb9fda15a9156738c751d02bd9518193791dfc688a5812fd1e32f327a992642", "blockhash": "000000000000000000022b45ed06c6f4ccd3cf7fb5ba4856ebd2e58215665228", "vout": [{"scriptPubKey": {"reqSigs": 1, "hex": "76a914883ac6b1af3a2223f9069a7f8705475451c731cd88ac", "addresses": ["1DRKJvnbURaPsuppGGznbphAbRzwiR6vm8"], "asm": "OP_DUP OP_HASH160 883ac6b1af3a2223f9069a7f8705475451c731cd OP_EQUALVERIFY OP_CHECKSIG", "type": "pubkeyhash"}, "value": 0.00799966, "n": 0}, {"scriptPubKey": {"reqSigs": 1, "hex": "a914ee7435f269c4c29b658e8c595988b8d5470acd8787", "addresses": ["3PRqxfNqkbb46yEHBdk3MRx2qeqQUCrQrF"], "asm": "OP_HASH160 ee7435f269c4c29b658e8c595988b8d5470acd87 OP_EQUAL", "type": "scripthash"}, "value": 0.01098658, "n": 1}], "hex": "01000000012353e1c21d1e8ad725cb4b65a60eda74e0d7506f5518c2b3ebd4f9d82b8ed99e000000006b483045022100b8785360d0131854ad11805f4db2bf4ef37cd8eaa1b9e6788b6c5c7fca8c38e8022027c85fe39bd01b175e380814ed4262febb66144fc6e06f298ee5b0858566e4e60121028797ae56e3a3df18220f0dd166322aef15e75e3aee8188f4479eaa26915e4918fdffffff02de340c00000000001976a914883ac6b1af3a2223f9069a7f8705475451c731cd88aca2c310000000000017a914ee7435f269c4c29b658e8c595988b8d5470acd87870a490800", "vin": [{"sequence": 4294967293, "scriptSig": {"hex": "483045022100b8785360d0131854ad11805f4db2bf4ef37cd8eaa1b9e6788b6c5c7fca8c38e8022027c85fe39bd01b175e380814ed4262febb66144fc6e06f298ee5b0858566e4e60121028797ae56e3a3df18220f0dd166322aef15e75e3aee8188f4479eaa26915e4918", "asm": "3045022100b8785360d0131854ad11805f4db2bf4ef37cd8eaa1b9e6788b6c5c7fca8c38e8022027c85fe39bd01b175e380814ed4262febb66144fc6e06f298ee5b0858566e4e6[ALL] 028797ae56e3a3df18220f0dd166322aef15e75e3aee8188f4479eaa26915e4918"}, "vout": 0, "txid": "9ed98e2bd8f9d4ebb3c218556f50d7e074da0ea6654bcb25d78a1e1dc2e15323"}], "txid": "3fb9fda15a9156738c751d02bd9518193791dfc688a5812fd1e32f327a992642", "blocktime": 1537869901, "version": 1, "confirmations": 11524, "time": 1537869901, "locktime": 542986, "vsize": 224, "size": 224}