{"hash": "3fbe6985b90cbe34b6679fdb687e4cfab281fe95bd8d4acd61312a23aff2a9b9", "blockhash": "000000000000000000022b45ed06c6f4ccd3cf7fb5ba4856ebd2e58215665228", "vout": [{"scriptPubKey": {"reqSigs": 1, "hex": "76a9146190638023eb4f54607111f9e74d5a9c984e632388ac", "addresses": ["19tsWuhC8dh43wRbNrWG497s6B5XLNirYu"], "asm": "OP_DUP OP_HASH160 6190638023eb4f54607111f9e74d5a9c984e6323 OP_EQUALVERIFY OP_CHECKSIG", "type": "pubkeyhash"}, "value": 0.263612, "n": 0}, {"scriptPubKey": {"reqSigs": 1, "hex": "76a9143cbeee5356a86ca2250b009db0fcebaa55cf3e8b88ac", "addresses": ["16YCGdGyJN96UrriHPwpR79FjmzosmowjF"], "asm": "OP_DUP OP_HASH160 3cbeee5356a86ca2250b009db0fcebaa55cf3e8b OP_EQUALVERIFY OP_CHECKSIG", "type": "pubkeyhash"}, "value": 0.64085515, "n": 1}], "hex": "0100000001a60b7587cc945bde1a57cc9f9fe39712f98f6b3959eb82e6b06745cb33774772010000006b483045022100ecae7fbd280a13985d08c5499165b1f9e151b88ac7e4230282604be7ee2a84f7022033c7f8f716097582a2259443a7e0dd3cd379349d723fa7c8ad21a0b61d084d4a012103ad0fa799fccf23762c556c0b4c60b86c3eb197f019ab54436cb4cb10c6f4ff9effffffff02703d9201000000001976a9146190638023eb4f54607111f9e74d5a9c984e632388ac0bded103000000001976a9143cbeee5356a86ca2250b009db0fcebaa55cf3e8b88ac00000000", "vin": [{"sequence": 4294967295, "scriptSig": {"hex": "483045022100ecae7fbd280a13985d08c5499165b1f9e151b88ac7e4230282604be7ee2a84f7022033c7f8f716097582a2259443a7e0dd3cd379349d723fa7c8ad21a0b61d084d4a012103ad0fa799fccf23762c556c0b4c60b86c3eb197f019ab54436cb4cb10c6f4ff9e", "asm": "3045022100ecae7fbd280a13985d08c5499165b1f9e151b88ac7e4230282604be7ee2a84f7022033c7f8f716097582a2259443a7e0dd3cd379349d723fa7c8ad21a0b61d084d4a[ALL] 03ad0fa799fccf23762c556c0b4c60b86c3eb197f019ab54436cb4cb10c6f4ff9e"}, "vout": 1, "txid": "72477733cb4567b0e682eb59396b8ff91297e39f9fcc571ade5b94cc87750ba6"}], "txid": "3fbe6985b90cbe34b6679fdb687e4cfab281fe95bd8d4acd61312a23aff2a9b9", "blocktime": 1537869901, "version": 1, "confirmations": 11522, "time": 1537869901, "locktime": 0, "vsize": 226, "size": 226}