{"hash": "3fc8af276d74a2d6e09f8d6439cae4cb35718295a2cb0b79d2a684c783e8c3e3", "blockhash": "0000000000000000001e0dab787dd257d1dbfcb92a98c2207d5e1078be1f4165", "vout": [{"scriptPubKey": {"reqSigs": 1, "hex": "a914b7e3c0c60e6255de6e590877b7ccc32fb4ef2ced87", "addresses": ["3JTLRCudxjGNTC7rNW5ouLqsYkYQZyap3x"], "asm": "OP_HASH160 b7e3c0c60e6255de6e590877b7ccc32fb4ef2ced OP_EQUAL", "type": "scripthash"}, "value": 0.03443, "n": 0}, {"scriptPubKey": {"reqSigs": 1, "hex": "a914e370231feecbfc25e2e2423a5a79bf79bfdca59887", "addresses": ["3NRbeX3vD5VaVE4TDU9ivCDsEf7NPPte6J"], "asm": "OP_HASH160 e370231feecbfc25e2e2423a5a79bf79bfdca598 OP_EQUAL", "type": "scripthash"}, "value": 11.5785468, "n": 1}], "hex": "010000000129909d1065df1eb31f7e4d75f00e5f55f3d0b12f782aeb25d1f2444097cdb91401000000da0047304402204afc203580d8758b061f6d2e8226d32f9580617f86ff5addf92278671095e1cf022064af18716658adca7f1075ce3011ddf151289e1e01d50e1022b44707739a861c01483045022100a9d28f0ad18bb1c2a937bb2f8289027ef6b231c0a2066a3bc8babda92150133102203a79157a55693a8130a624351fbb48344cbe3e6ffe2916734b4680c893fa5616014752210327881b6abce6535553a3ce21fad12a7d74fd237ce7c4cd270a267162344e3082210256141f8eb687f5a68c5cc65054652dc25116fa285e44d72b44368827ffe77d9a52aeffffffff02388934000000000017a914b7e3c0c60e6255de6e590877b7ccc32fb4ef2ced87d87503450000000017a914e370231feecbfc25e2e2423a5a79bf79bfdca5988700000000", "vin": [{"sequence": 4294967295, "scriptSig": {"hex": "0047304402204afc203580d8758b061f6d2e8226d32f9580617f86ff5addf92278671095e1cf022064af18716658adca7f1075ce3011ddf151289e1e01d50e1022b44707739a861c01483045022100a9d28f0ad18bb1c2a937bb2f8289027ef6b231c0a2066a3bc8babda92150133102203a79157a55693a8130a624351fbb48344cbe3e6ffe2916734b4680c893fa5616014752210327881b6abce6535553a3ce21fad12a7d74fd237ce7c4cd270a267162344e3082210256141f8eb687f5a68c5cc65054652dc25116fa285e44d72b44368827ffe77d9a52ae", "asm": "0 304402204afc203580d8758b061f6d2e8226d32f9580617f86ff5addf92278671095e1cf022064af18716658adca7f1075ce3011ddf151289e1e01d50e1022b44707739a861c[ALL] 3045022100a9d28f0ad18bb1c2a937bb2f8289027ef6b231c0a2066a3bc8babda92150133102203a79157a55693a8130a624351fbb48344cbe3e6ffe2916734b4680c893fa5616[ALL] 52210327881b6abce6535553a3ce21fad12a7d74fd237ce7c4cd270a267162344e3082210256141f8eb687f5a68c5cc65054652dc25116fa285e44d72b44368827ffe77d9a52ae"}, "vout": 1, "txid": "14b9cd974044f2d125eb2a782fb1d0f3555f0ef0754d7e1fb31edf65109d9029"}], "txid": "3fc8af276d74a2d6e09f8d6439cae4cb35718295a2cb0b79d2a684c783e8c3e3", "blocktime": 1537872475, "version": 1, "confirmations": 11487, "time": 1537872475, "locktime": 0, "vsize": 333, "size": 333}