{"hash": "3fce01ffbaabac2847e4e789faf30efb50502c737713c820b534f543e520edce", "blockhash": "0000000000000000001cda96e906b7601b7a6fb1a3b62bca570a9e5d8f4b3de1", "vout": [{"scriptPubKey": {"reqSigs": 1, "hex": "a9141548471b9c015ab1fde98e7dccd0a0ea3dd64c4887", "addresses": ["33dYhX5LgHNmwgVPjcRVfZiLAamiCdtNxu"], "asm": "OP_HASH160 1548471b9c015ab1fde98e7dccd0a0ea3dd64c48 OP_EQUAL", "type": "scripthash"}, "value": 0.17325434, "n": 0}], "hex": "01000000014219fe87e54116c8bb27032746ca7abf56b61eda4b903854a068b3669b8a4536000000006b4830450221008379be2f3bbed9d5bb1ededb2b7c7737f4d2963c6e2b01e4fcff7a64382b52860220076600830709d7e389de1b1fcd81dc78ab9515184cc2e1db40412342f83a8c060121022f03d6d58578a43fd6e78f3c52e227dbda84ed3b01ee3b3d58eb54c46d816ef0ffffffff017a5d08010000000017a9141548471b9c015ab1fde98e7dccd0a0ea3dd64c488700000000", "vin": [{"sequence": 4294967295, "scriptSig": {"hex": "4830450221008379be2f3bbed9d5bb1ededb2b7c7737f4d2963c6e2b01e4fcff7a64382b52860220076600830709d7e389de1b1fcd81dc78ab9515184cc2e1db40412342f83a8c060121022f03d6d58578a43fd6e78f3c52e227dbda84ed3b01ee3b3d58eb54c46d816ef0", "asm": "30450221008379be2f3bbed9d5bb1ededb2b7c7737f4d2963c6e2b01e4fcff7a64382b52860220076600830709d7e389de1b1fcd81dc78ab9515184cc2e1db40412342f83a8c06[ALL] 022f03d6d58578a43fd6e78f3c52e227dbda84ed3b01ee3b3d58eb54c46d816ef0"}, "vout": 0, "txid": "36458a9b66b368a05438904bda1eb656bf7aca46270327bbc81641e587fe1942"}], "txid": "3fce01ffbaabac2847e4e789faf30efb50502c737713c820b534f543e520edce", "blocktime": 1537873282, "version": 1, "confirmations": 11480, "time": 1537873282, "locktime": 0, "vsize": 190, "size": 190}