{"hash": "0c6bf169e49dec04f00c9497afa65e0c6ef6cbb984084f9d90fdb14348c86f0d", "blockhash": "00000000000000000004ffacab907a6b429b9a5745fa0b75af4234bf69dd7176", "vout": [{"scriptPubKey": {"reqSigs": 1, "hex": "76a9144ca03f3b0a48ef32233c66aafe95f81395a94f1288ac", "addresses": ["17zAKjfCfHUBpPD4kzuoNbHQxyUZD9K2To"], "asm": "OP_DUP OP_HASH160 4ca03f3b0a48ef32233c66aafe95f81395a94f12 OP_EQUALVERIFY OP_CHECKSIG", "type": "pubkeyhash"}, "value": 0.24, "n": 0}, {"scriptPubKey": {"reqSigs": 1, "hex": "76a914cf563929b21b2bfdea641f4b8a30af3d1b20eb1c88ac", "addresses": ["1KuJAcHGq1THKaAY8GK2WirgEaWgepdZCX"], "asm": "OP_DUP OP_HASH160 cf563929b21b2bfdea641f4b8a30af3d1b20eb1c OP_EQUALVERIFY OP_CHECKSIG", "type": "pubkeyhash"}, "value": 0.23887678, "n": 1}, {"scriptPubKey": {"reqSigs": 1, "hex": "a91457f935792c25752fe56bf6c7faebcb31282de62987", "addresses": ["39iBFZzEaEyDSf5D1pzRc7tD1iFBXFWwsg"], "asm": "OP_HASH160 57f935792c25752fe56bf6c7faebcb31282de629 OP_EQUAL", "type": "scripthash"}, "value": 3.75527704, "n": 2}], "hex": "020000000001016a384b3fd717216bc316a1476b1687fe2530f199e08c12fa3eb8d9a343b9c4db000000001716001456a4c75e0a58531ea30ec0debc1dd7a447f139a1fdffffff0300366e01000000001976a9144ca03f3b0a48ef32233c66aafe95f81395a94f1288ac3e7f6c01000000001976a914cf563929b21b2bfdea641f4b8a30af3d1b20eb1c88ac181962160000000017a91457f935792c25752fe56bf6c7faebcb31282de6298702473044022039f8597459825f49ef59564c777ae01ad4b20aa760b52748d4fbf4d08175e114022026d89167ff62a1073eb159bdeaa28be6fc23b7e325583cb9c322c5973805b443012102ed1fbadf590a54e12e52bf666687224cd7757aa34b804e2e2afa30ceb25fa7e416490800", "vin": [{"txinwitness": ["3044022039f8597459825f49ef59564c777ae01ad4b20aa760b52748d4fbf4d08175e114022026d89167ff62a1073eb159bdeaa28be6fc23b7e325583cb9c322c5973805b44301", "02ed1fbadf590a54e12e52bf666687224cd7757aa34b804e2e2afa30ceb25fa7e4"], "sequence": 4294967293, "scriptSig": {"hex": "16001456a4c75e0a58531ea30ec0debc1dd7a447f139a1", "asm": "001456a4c75e0a58531ea30ec0debc1dd7a447f139a1"}, "vout": 0, "txid": "dbc4b943a3d9b83efa128ce099f13025fe87166b47a116c36b2117d73f4b386a"}], "txid": "3fd3fed22eb8116a39bcff5cc8cc926520ac2e426b78cca07b0b45ecaf176100", "blocktime": 1537875543, "version": 2, "confirmations": 11464, "time": 1537875543, "locktime": 542998, "vsize": 202, "size": 283}