{"hash": "3fdcbc5d85f578f310f9bc27b12323c5545a0ec1ec9410c4e65652bf934a2d79", "blockhash": "000000000000000000022b45ed06c6f4ccd3cf7fb5ba4856ebd2e58215665228", "vout": [{"scriptPubKey": {"reqSigs": 1, "hex": "76a9147f52ce2e6a8faaa00d4a11cff74920b4e5000ac688ac", "addresses": ["1CcE1nNQQwALNtCeJaE9GfZ67nDqobPzxh"], "asm": "OP_DUP OP_HASH160 7f52ce2e6a8faaa00d4a11cff74920b4e5000ac6 OP_EQUALVERIFY OP_CHECKSIG", "type": "pubkeyhash"}, "value": 0.01559134, "n": 0}, {"scriptPubKey": {"reqSigs": 1, "hex": "76a9140cc56ead30abdcb8d6db31cda58166c83155fee188ac", "addresses": ["12AXd9AW2vQHAQuRYCbBfWkLUT8x1i9PSj"], "asm": "OP_DUP OP_HASH160 0cc56ead30abdcb8d6db31cda58166c83155fee1 OP_EQUALVERIFY OP_CHECKSIG", "type": "pubkeyhash"}, "value": 0.04682081, "n": 1}], "hex": "0100000001a035279c3450a3d6bd1979b619ed9be8309868a3d233be9d0dad8030a08d09bf010000006a47304402202f1fddc8f8bc33271d65eb7dc440ef68c27cc3d791069e9dc5d50a9aac2b29b50220106ceb5e102216030a23661e56aeafa151959c632a2bdbcd6142b6d48fe6095e0121035e8653187a4e48b3dec38d011ffd3ff713d1bdcc1ef9ccf3aa62f858f40bae0effffffff025eca1700000000001976a9147f52ce2e6a8faaa00d4a11cff74920b4e5000ac688ac61714700000000001976a9140cc56ead30abdcb8d6db31cda58166c83155fee188ac00000000", "vin": [{"sequence": 4294967295, "scriptSig": {"hex": "47304402202f1fddc8f8bc33271d65eb7dc440ef68c27cc3d791069e9dc5d50a9aac2b29b50220106ceb5e102216030a23661e56aeafa151959c632a2bdbcd6142b6d48fe6095e0121035e8653187a4e48b3dec38d011ffd3ff713d1bdcc1ef9ccf3aa62f858f40bae0e", "asm": "304402202f1fddc8f8bc33271d65eb7dc440ef68c27cc3d791069e9dc5d50a9aac2b29b50220106ceb5e102216030a23661e56aeafa151959c632a2bdbcd6142b6d48fe6095e[ALL] 035e8653187a4e48b3dec38d011ffd3ff713d1bdcc1ef9ccf3aa62f858f40bae0e"}, "vout": 1, "txid": "bf098da03080ad0d9dbe33d2a3689830e89bed19b67919bdd6a350349c2735a0"}], "txid": "3fdcbc5d85f578f310f9bc27b12323c5545a0ec1ec9410c4e65652bf934a2d79", "blocktime": 1537869901, "version": 1, "confirmations": 11524, "time": 1537869901, "locktime": 0, "vsize": 225, "size": 225}