{"hash": "3fdc66e783c45e443338c6f2c19ee7f123c4cdc44971b2b8b782a7bdfcf22921", "blockhash": "0000000000000000000e13cef7c366c0283d82e591d1acd082e914b08063cdf1", "vout": [{"scriptPubKey": {"reqSigs": 1, "hex": "76a914d243e6abb9a60fbff430b421d2df4b7d59ec186088ac", "addresses": ["1LAnF8h3qMGx3TSwNUHVneBZUEpwE4gu3D"], "asm": "OP_DUP OP_HASH160 d243e6abb9a60fbff430b421d2df4b7d59ec1860 OP_EQUALVERIFY OP_CHECKSIG", "type": "pubkeyhash"}, "value": 0.00077314, "n": 0}, {"scriptPubKey": {"reqSigs": 1, "hex": "76a914924a77637b3c879cc5fa8ad217009f7f5568bd4988ac", "addresses": ["1ELWs2CqVNRDNaaSdmwYuFXPy4i85peZv6"], "asm": "OP_DUP OP_HASH160 924a77637b3c879cc5fa8ad217009f7f5568bd49 OP_EQUALVERIFY OP_CHECKSIG", "type": "pubkeyhash"}, "value": 5.46e-06, "n": 1}, {"scriptPubKey": {"type": "nulldata", "hex": "6a146f6d6e69000000000000001f000001d1deef0900", "asm": "OP_RETURN 6f6d6e69000000000000001f000001d1deef0900"}, "value": 0.0, "n": 2}], "hex": "01000000017464f8b9a4a944532a85bac4f9e739bcdfb0bc8492b11c50d7bf69d0389dd052000000006a47304402206a5ca1063939c88a037f37aab3192c6d7a72fdafe3cdeea8d14178fe2e258ca30220397d80d89fe869361677f5683d13eb6512dcc7cd1d327305fc4fe64c5e4b3aaa01210271977291b74f1f5f5c42157e8aae804664eaaeccfd097918450d37f28fb94d77ffffffff03022e0100000000001976a914d243e6abb9a60fbff430b421d2df4b7d59ec186088ac22020000000000001976a914924a77637b3c879cc5fa8ad217009f7f5568bd4988ac0000000000000000166a146f6d6e69000000000000001f000001d1deef090000000000", "vin": [{"sequence": 4294967295, "scriptSig": {"hex": "47304402206a5ca1063939c88a037f37aab3192c6d7a72fdafe3cdeea8d14178fe2e258ca30220397d80d89fe869361677f5683d13eb6512dcc7cd1d327305fc4fe64c5e4b3aaa01210271977291b74f1f5f5c42157e8aae804664eaaeccfd097918450d37f28fb94d77", "asm": "304402206a5ca1063939c88a037f37aab3192c6d7a72fdafe3cdeea8d14178fe2e258ca30220397d80d89fe869361677f5683d13eb6512dcc7cd1d327305fc4fe64c5e4b3aaa[ALL] 0271977291b74f1f5f5c42157e8aae804664eaaeccfd097918450d37f28fb94d77"}, "vout": 0, "txid": "52d09d38d069bfd7501cb19284bcb0dfbc39e7f9c4ba852a5344a9a4b9f86474"}], "txid": "3fdc66e783c45e443338c6f2c19ee7f123c4cdc44971b2b8b782a7bdfcf22921", "blocktime": 1537871767, "version": 1, "confirmations": 11491, "time": 1537871767, "locktime": 0, "vsize": 256, "size": 256}