{"hash": "3fdef41b7ecd070a8e1406c8460cd26581d470a81df59b72bd405b77e54afc0c", "blockhash": "0000000000000000000baef3f32e3676a92c3b2e5da21b426e4f302fc371ce76", "vout": [{"scriptPubKey": {"reqSigs": 1, "hex": "76a914c318201866ba79d0e203174692f2a5b6aeb32c9488ac", "addresses": ["1JnZffhRU1nzZN2mAtEgJG1YkHWLkB4uVe"], "asm": "OP_DUP OP_HASH160 c318201866ba79d0e203174692f2a5b6aeb32c94 OP_EQUALVERIFY OP_CHECKSIG", "type": "pubkeyhash"}, "value": 0.0061472, "n": 0}, {"scriptPubKey": {"reqSigs": 1, "hex": "76a914b1a41a466fc1b43859906533dfe9efcafecd785288ac", "addresses": ["1HCHC1JCjLiyfdEQAsx6u1BEFu5MQWgvQb"], "asm": "OP_DUP OP_HASH160 b1a41a466fc1b43859906533dfe9efcafecd7852 OP_EQUALVERIFY OP_CHECKSIG", "type": "pubkeyhash"}, "value": 0.0033283, "n": 1}, {"scriptPubKey": {"reqSigs": 1, "hex": "76a914713dcd4677cbaee8aff6ab6570a56d31105602e988ac", "addresses": ["1BKmPkDYR52M5EMh7WZgCC9ozfVVGU9oXV"], "asm": "OP_DUP OP_HASH160 713dcd4677cbaee8aff6ab6570a56d31105602e9 OP_EQUALVERIFY OP_CHECKSIG", "type": "pubkeyhash"}, "value": 0.0019188, "n": 2}, {"scriptPubKey": {"reqSigs": 1, "hex": "76a914d5727f30c2e05e6301d381ff0a8b09421b7a07b988ac", "addresses": ["1LTc6Eu8s9fy2zpsJRUjRHBF12th43N9je"], "asm": "OP_DUP OP_HASH160 d5727f30c2e05e6301d381ff0a8b09421b7a07b9 OP_EQUALVERIFY OP_CHECKSIG", "type": "pubkeyhash"}, "value": 0.18804411, "n": 3}], "hex": "01000000010a53a3e1e214b55b022e199c1f1bb04e217127ac41140b7d8102e4911451ad92050000006b483045022100b1e03a6f4ea64be6325f8de9fec21f185197f0f3eca85dbd21f745bdf161761e022039e547eaf86735383bb36c464230f3bb25886cdc907742c45bb56d44cb7f1e1a012102a54b6c425a974cba19782ff7ae9d2f63c388b8d4e48e0f78cadae72bc48cb5f1ffffffff0440610900000000001976a914c318201866ba79d0e203174692f2a5b6aeb32c9488ac1e140500000000001976a914b1a41a466fc1b43859906533dfe9efcafecd785288ac88ed0200000000001976a914713dcd4677cbaee8aff6ab6570a56d31105602e988acbbee1e01000000001976a914d5727f30c2e05e6301d381ff0a8b09421b7a07b988ac00000000", "vin": [{"sequence": 4294967295, "scriptSig": {"hex": "483045022100b1e03a6f4ea64be6325f8de9fec21f185197f0f3eca85dbd21f745bdf161761e022039e547eaf86735383bb36c464230f3bb25886cdc907742c45bb56d44cb7f1e1a012102a54b6c425a974cba19782ff7ae9d2f63c388b8d4e48e0f78cadae72bc48cb5f1", "asm": "3045022100b1e03a6f4ea64be6325f8de9fec21f185197f0f3eca85dbd21f745bdf161761e022039e547eaf86735383bb36c464230f3bb25886cdc907742c45bb56d44cb7f1e1a[ALL] 02a54b6c425a974cba19782ff7ae9d2f63c388b8d4e48e0f78cadae72bc48cb5f1"}, "vout": 5, "txid": "92ad511491e402817d0b1441ac2771214eb01b1f9c192e025bb514e2e1a3530a"}], "txid": "3fdef41b7ecd070a8e1406c8460cd26581d470a81df59b72bd405b77e54afc0c", "blocktime": 1537876114, "version": 1, "confirmations": 11459, "time": 1537876114, "locktime": 0, "vsize": 294, "size": 294}