{"hash": "3fe01c7000250609dbfe5e661ebcb891429507026164004be2eca31ca881019a", "blockhash": "0000000000000000000baef3f32e3676a92c3b2e5da21b426e4f302fc371ce76", "vout": [{"scriptPubKey": {"reqSigs": 1, "hex": "76a91401986df3d670940def934268e069b80fce971e5e88ac", "addresses": ["19SHBQ9ppZN5MQbYDCJCqyheAxxSZ3Xzr"], "asm": "OP_DUP OP_HASH160 01986df3d670940def934268e069b80fce971e5e OP_EQUALVERIFY OP_CHECKSIG", "type": "pubkeyhash"}, "value": 0.03272, "n": 0}, {"scriptPubKey": {"reqSigs": 1, "hex": "76a914e55c00a540fc74ae6fba0fddf3eb8e54d9c86ca188ac", "addresses": ["1MujxNqKS5Stmyjexgw3MWEfeNnZVmUyFw"], "asm": "OP_DUP OP_HASH160 e55c00a540fc74ae6fba0fddf3eb8e54d9c86ca1 OP_EQUALVERIFY OP_CHECKSIG", "type": "pubkeyhash"}, "value": 0.08236472, "n": 1}], "hex": "0100000001fb9f29058d4a68ecdd666834e420b42bdd3f8a7c322245f6872d0944c5f3ec52020000006a47304402201aee107d10c9daf2029c460af6107eef4317461ea9540bd0e5013d383520d8d302204a5a5086f05731f029805bd1c2a129a8d21cb4244b7ab6b6b3f0d0eb8728cb2c012102c2a3f9505dc98eba9db4a07cda4f5cb96e21a15052eaf18f87b57b8099c847dfffffffff0240ed3100000000001976a91401986df3d670940def934268e069b80fce971e5e88acb8ad7d00000000001976a914e55c00a540fc74ae6fba0fddf3eb8e54d9c86ca188ac00000000", "vin": [{"sequence": 4294967295, "scriptSig": {"hex": "47304402201aee107d10c9daf2029c460af6107eef4317461ea9540bd0e5013d383520d8d302204a5a5086f05731f029805bd1c2a129a8d21cb4244b7ab6b6b3f0d0eb8728cb2c012102c2a3f9505dc98eba9db4a07cda4f5cb96e21a15052eaf18f87b57b8099c847df", "asm": "304402201aee107d10c9daf2029c460af6107eef4317461ea9540bd0e5013d383520d8d302204a5a5086f05731f029805bd1c2a129a8d21cb4244b7ab6b6b3f0d0eb8728cb2c[ALL] 02c2a3f9505dc98eba9db4a07cda4f5cb96e21a15052eaf18f87b57b8099c847df"}, "vout": 2, "txid": "52ecf3c544092d87f64522327c8a3fdd2bb420e4346866ddec684a8d05299ffb"}], "txid": "3fe01c7000250609dbfe5e661ebcb891429507026164004be2eca31ca881019a", "blocktime": 1537876114, "version": 1, "confirmations": 11460, "time": 1537876114, "locktime": 0, "vsize": 225, "size": 225}