{"hash": "3fef640f3304c4a319e60a4723d03d608f9b3546bd05fe2c12ca41d18225a65a", "blockhash": "0000000000000000000e13cef7c366c0283d82e591d1acd082e914b08063cdf1", "vout": [{"scriptPubKey": {"reqSigs": 1, "hex": "76a91491a02ebe6b00e541ae1d4b4c647b5cdc960321ac88ac", "addresses": ["1EGzsVqDfJxYQS8BSRb4u2mrKtFpiSXcy6"], "asm": "OP_DUP OP_HASH160 91a02ebe6b00e541ae1d4b4c647b5cdc960321ac OP_EQUALVERIFY OP_CHECKSIG", "type": "pubkeyhash"}, "value": 0.01408864, "n": 0}, {"scriptPubKey": {"type": "nulldata", "hex": "6a4c500000779f00011bbada52bea64deb80d417c6af6c953dd567cf27e7e3ef3236678a6250976338b0447b36ee276d347b71a7e1b8ac5baa0e0e061705ecdd3a27bcbc9a9526289ac0f6612cd74e33776ee4", "asm": "OP_RETURN 0000779f00011bbada52bea64deb80d417c6af6c953dd567cf27e7e3ef3236678a6250976338b0447b36ee276d347b71a7e1b8ac5baa0e0e061705ecdd3a27bcbc9a9526289ac0f6612cd74e33776ee4"}, "value": 0.0, "n": 1}], "hex": "010000000163229bc202012d3bf2df692b1a509df71f0074aecae34fbf205fd95863c224ec010000006b483045022100ea779630fde6c6faf82a9f2c0887de3d2c3615ff62abcff23c6a93b09a976bfd022032779ef161aef0fd07d6d8ff2f5ba92b1d198fbd9684be643b04c5629e62c13c012102d17c4e09ae1672f6ea8e379696a7812e23ca0b87c6d3083ba9c5739fb047213effffffff02607f1500000000001976a91491a02ebe6b00e541ae1d4b4c647b5cdc960321ac88ac0000000000000000536a4c500000779f00011bbada52bea64deb80d417c6af6c953dd567cf27e7e3ef3236678a6250976338b0447b36ee276d347b71a7e1b8ac5baa0e0e061705ecdd3a27bcbc9a9526289ac0f6612cd74e33776ee400000000", "vin": [{"sequence": 4294967295, "scriptSig": {"hex": "483045022100ea779630fde6c6faf82a9f2c0887de3d2c3615ff62abcff23c6a93b09a976bfd022032779ef161aef0fd07d6d8ff2f5ba92b1d198fbd9684be643b04c5629e62c13c012102d17c4e09ae1672f6ea8e379696a7812e23ca0b87c6d3083ba9c5739fb047213e", "asm": "3045022100ea779630fde6c6faf82a9f2c0887de3d2c3615ff62abcff23c6a93b09a976bfd022032779ef161aef0fd07d6d8ff2f5ba92b1d198fbd9684be643b04c5629e62c13c[ALL] 02d17c4e09ae1672f6ea8e379696a7812e23ca0b87c6d3083ba9c5739fb047213e"}, "vout": 1, "txid": "ec24c26358d95f20bf4fe3caae74001ff79d501a2b69dff23b2d0102c29b2263"}], "txid": "3fef640f3304c4a319e60a4723d03d608f9b3546bd05fe2c12ca41d18225a65a", "blocktime": 1537871767, "version": 1, "confirmations": 11493, "time": 1537871767, "locktime": 0, "vsize": 284, "size": 284}