{"hash": "3ff212c96acb8c3ae9e4436510cadcd0f7f5c8cd77f5c5ee7f83dd4ffe8f91cd", "blockhash": "0000000000000000001cda96e906b7601b7a6fb1a3b62bca570a9e5d8f4b3de1", "vout": [{"scriptPubKey": {"reqSigs": 1, "hex": "a914d991d6e2fbac3b6f934a8db0ab859bd9807d01c787", "addresses": ["3MXRGGd9931DJwaFH6WEpoV6F9Qi4LBBap"], "asm": "OP_HASH160 d991d6e2fbac3b6f934a8db0ab859bd9807d01c7 OP_EQUAL", "type": "scripthash"}, "value": 0.28435, "n": 0}, {"scriptPubKey": {"reqSigs": 1, "hex": "76a914d5ba2eb2d52670fbe9522748bf642da754eb0d6f88ac", "addresses": ["1LV5y3NkVkmdWnF6xRCEXrAnUkRgge4KSq"], "asm": "OP_DUP OP_HASH160 d5ba2eb2d52670fbe9522748bf642da754eb0d6f OP_EQUALVERIFY OP_CHECKSIG", "type": "pubkeyhash"}, "value": 15.47817822, "n": 1}], "hex": "01000000011228a03ba736c79f307d485a88ea5fb3ef9be08cff3f902d66a920aae2ca9b63010000006b483045022100ab2ca9df06c346a82ef31cbd6aef53b5caeea542e289533deb0ab91611b7088302204612ef6da94e4caab81485835a97295c16676df272461f8f2319b6585fb1ed06012102c19ebc0e7fe714e24c55adaeebc7dbab2dc9a208b511bd1b6e83db85506d4d19ffffffff0238e2b1010000000017a914d991d6e2fbac3b6f934a8db0ab859bd9807d01c7875ed3415c000000001976a914d5ba2eb2d52670fbe9522748bf642da754eb0d6f88ac00000000", "vin": [{"sequence": 4294967295, "scriptSig": {"hex": "483045022100ab2ca9df06c346a82ef31cbd6aef53b5caeea542e289533deb0ab91611b7088302204612ef6da94e4caab81485835a97295c16676df272461f8f2319b6585fb1ed06012102c19ebc0e7fe714e24c55adaeebc7dbab2dc9a208b511bd1b6e83db85506d4d19", "asm": "3045022100ab2ca9df06c346a82ef31cbd6aef53b5caeea542e289533deb0ab91611b7088302204612ef6da94e4caab81485835a97295c16676df272461f8f2319b6585fb1ed06[ALL] 02c19ebc0e7fe714e24c55adaeebc7dbab2dc9a208b511bd1b6e83db85506d4d19"}, "vout": 1, "txid": "639bcae2aa20a9662d903fff8ce09befb35fea885a487d309fc736a73ba02812"}], "txid": "3ff212c96acb8c3ae9e4436510cadcd0f7f5c8cd77f5c5ee7f83dd4ffe8f91cd", "blocktime": 1537873282, "version": 1, "confirmations": 11484, "time": 1537873282, "locktime": 0, "vsize": 224, "size": 224}