{"hash": "3ff2682aa296e3361dc8f11feee96ba1f24f79aee40d6ecbb06e73dc269428c2", "blockhash": "0000000000000000001cda96e906b7601b7a6fb1a3b62bca570a9e5d8f4b3de1", "vout": [{"scriptPubKey": {"reqSigs": 1, "hex": "76a914be20f39d97b27f80a6f3bf728407982960d2f15088ac", "addresses": ["1JLJry52KDLhx6ngWW57a9JZLEgBxbfEtC"], "asm": "OP_DUP OP_HASH160 be20f39d97b27f80a6f3bf728407982960d2f150 OP_EQUALVERIFY OP_CHECKSIG", "type": "pubkeyhash"}, "value": 0.00638746, "n": 0}, {"scriptPubKey": {"type": "nulldata", "hex": "6a4c50000077ca000156ad56564651153b13e171da5b23cc0f42c2fc38c5e5bf9ae76da98a211af20c93f69a8b1c3b9601b103f5867b205baa13d90612c0ea5619812e1d100759d4ba30d2c37bb011d97e02cf", "asm": "OP_RETURN 000077ca000156ad56564651153b13e171da5b23cc0f42c2fc38c5e5bf9ae76da98a211af20c93f69a8b1c3b9601b103f5867b205baa13d90612c0ea5619812e1d100759d4ba30d2c37bb011d97e02cf"}, "value": 0.0, "n": 1}], "hex": "0100000001bcfc35b3af3b658b13740f57f27ba9f7033c3e3bd4fee1122de06db03f3cf7c2010000006b48304502210096cd1c64ce19baf77886087144b590cdfda3b2054bce16467f77d7ca85bf120902201f01f75122ca93abe55db2f7f2100f94cec591751d8c51369ef25c4c6bc39632012102fd68a5e1e49df18fa273780672d9e9d8d3a880e46596cc9b48ec1622a5d5682cffffffff021abf0900000000001976a914be20f39d97b27f80a6f3bf728407982960d2f15088ac0000000000000000536a4c50000077ca000156ad56564651153b13e171da5b23cc0f42c2fc38c5e5bf9ae76da98a211af20c93f69a8b1c3b9601b103f5867b205baa13d90612c0ea5619812e1d100759d4ba30d2c37bb011d97e02cf00000000", "vin": [{"sequence": 4294967295, "scriptSig": {"hex": "48304502210096cd1c64ce19baf77886087144b590cdfda3b2054bce16467f77d7ca85bf120902201f01f75122ca93abe55db2f7f2100f94cec591751d8c51369ef25c4c6bc39632012102fd68a5e1e49df18fa273780672d9e9d8d3a880e46596cc9b48ec1622a5d5682c", "asm": "304502210096cd1c64ce19baf77886087144b590cdfda3b2054bce16467f77d7ca85bf120902201f01f75122ca93abe55db2f7f2100f94cec591751d8c51369ef25c4c6bc39632[ALL] 02fd68a5e1e49df18fa273780672d9e9d8d3a880e46596cc9b48ec1622a5d5682c"}, "vout": 1, "txid": "c2f73c3fb06de02d12e1fed43b3e3c03f7a97bf2570f74138b653bafb335fcbc"}], "txid": "3ff2682aa296e3361dc8f11feee96ba1f24f79aee40d6ecbb06e73dc269428c2", "blocktime": 1537873282, "version": 1, "confirmations": 11484, "time": 1537873282, "locktime": 0, "vsize": 284, "size": 284}