{"hash": "3ff873f95915c62e68cffaf1e3cb33a01fafb01e0d4a121742718d8750576c07", "blockhash": "000000000000000000022b45ed06c6f4ccd3cf7fb5ba4856ebd2e58215665228", "vout": [{"scriptPubKey": {"reqSigs": 1, "hex": "a914632a77172b8929d3f6b88d5b71007c1d0671c35387", "addresses": ["3AjMh4w2KQYMXdY5TRK7BQ8RXVU2bmRUNS"], "asm": "OP_HASH160 632a77172b8929d3f6b88d5b71007c1d0671c353 OP_EQUAL", "type": "scripthash"}, "value": 3.206e-05, "n": 0}, {"scriptPubKey": {"reqSigs": 1, "hex": "76a914c5081d848c8c8efa3270d04fb71485c4fcdc21c288ac", "addresses": ["1Jxoqeoc55mTW28FaYs1CDaSmcutDto926"], "asm": "OP_DUP OP_HASH160 c5081d848c8c8efa3270d04fb71485c4fcdc21c2 OP_EQUALVERIFY OP_CHECKSIG", "type": "pubkeyhash"}, "value": 0.00015262, "n": 1}], "hex": "0100000002176c67b7a2c067706e8dac7c2e9f0f63a33256f2ab0f85f80f0c0c7f423ff4e0000000006b483045022100b67b84a0591b2931445dad0867946329b3c4d72a70c3ee0ba40f0ca9f9edffbf0220605a177651d2013aaf1938ed4ceee2165606051abf525ff3e21d1922588affc2012103d901bb55d9b7f0e05c785bc5127d1fe61792687efe3e9fbcda380379fd988428ffffffff4e9bc193e7f15a9e77b5e3d2c2a549bc5587b364de34fc871b4e9b2246ca17c2010000006a47304402201f8ff5e7f53c691b5577b8895b54f86b52e8801fd4b4d0d6515f5f63adbb8924022013bbf1d38dccba39de62847da94f1bed794f3cf1d1aec4afd668e3d436aaa9b1012103837406e57d85590fa638370c7f293207c8c7335d08e9228686b7efe4a8b54d5cffffffff02860c00000000000017a914632a77172b8929d3f6b88d5b71007c1d0671c353879e3b0000000000001976a914c5081d848c8c8efa3270d04fb71485c4fcdc21c288ac00000000", "vin": [{"sequence": 4294967295, "scriptSig": {"hex": "483045022100b67b84a0591b2931445dad0867946329b3c4d72a70c3ee0ba40f0ca9f9edffbf0220605a177651d2013aaf1938ed4ceee2165606051abf525ff3e21d1922588affc2012103d901bb55d9b7f0e05c785bc5127d1fe61792687efe3e9fbcda380379fd988428", "asm": "3045022100b67b84a0591b2931445dad0867946329b3c4d72a70c3ee0ba40f0ca9f9edffbf0220605a177651d2013aaf1938ed4ceee2165606051abf525ff3e21d1922588affc2[ALL] 03d901bb55d9b7f0e05c785bc5127d1fe61792687efe3e9fbcda380379fd988428"}, "vout": 0, "txid": "e0f43f427f0c0c0ff8850fabf25632a3630f9f2e7cac8d6e7067c0a2b7676c17"}, {"sequence": 4294967295, "scriptSig": {"hex": "47304402201f8ff5e7f53c691b5577b8895b54f86b52e8801fd4b4d0d6515f5f63adbb8924022013bbf1d38dccba39de62847da94f1bed794f3cf1d1aec4afd668e3d436aaa9b1012103837406e57d85590fa638370c7f293207c8c7335d08e9228686b7efe4a8b54d5c", "asm": "304402201f8ff5e7f53c691b5577b8895b54f86b52e8801fd4b4d0d6515f5f63adbb8924022013bbf1d38dccba39de62847da94f1bed794f3cf1d1aec4afd668e3d436aaa9b1[ALL] 03837406e57d85590fa638370c7f293207c8c7335d08e9228686b7efe4a8b54d5c"}, "vout": 1, "txid": "c217ca46229b4e1b87fc34de64b38755bc49a5c2d2e3b5779e5af1e793c19b4e"}], "txid": "3ff873f95915c62e68cffaf1e3cb33a01fafb01e0d4a121742718d8750576c07", "blocktime": 1537869901, "version": 1, "confirmations": 11522, "time": 1537869901, "locktime": 0, "vsize": 371, "size": 371}