{"hash": "40033879f38239fae47cf3ab3e4865676882fd8921fccca260f2998255265d4a", "blockhash": "0000000000000000001f76057863aec43deb6fa401d9628bb513d65a8098bfab", "vout": [{"scriptPubKey": {"reqSigs": 1, "hex": "76a9143472825132f5ccbacc0871b4c234527bd74d661988ac", "addresses": ["15nKKConQ8in4w6bxX57GykGie3uPeJnvH"], "asm": "OP_DUP OP_HASH160 3472825132f5ccbacc0871b4c234527bd74d6619 OP_EQUALVERIFY OP_CHECKSIG", "type": "pubkeyhash"}, "value": 0.00197729, "n": 0}, {"scriptPubKey": {"reqSigs": 1, "hex": "76a914ef7ea2fe0a84944b1110208ef63bfaeb59d025f988ac", "addresses": ["1NqLCihGYThqR2htgHiW9AcuGP1wXHB6ip"], "asm": "OP_DUP OP_HASH160 ef7ea2fe0a84944b1110208ef63bfaeb59d025f9 OP_EQUALVERIFY OP_CHECKSIG", "type": "pubkeyhash"}, "value": 0.04752475, "n": 1}], "hex": "01000000156ad3d30011a136818df2314a04056afc3cb662b9e246daca7f553e3cdbc07207010000006b483045022100c28afcbb83b1a920a027183b33e3fe1849fb5315c6a30eac53a92424c8a5825702204f1b6018cfaf04c4875bf50b4cd55e29007567dbc83cd1131a183db62807cff001210252f4ec16fedf29199666caf51fb232352074ba162d6a577ca2420b23afdb42bbffffffff12e38c64ad960ab6d690981c925ba9736e2f0e0f3d66cc74eac3e74828c8ed0f010000006b483045022100e46841896d540be61cbbe27512433b44b278666de24426ec0bcbd097ac7959b802201d48650e6125ba8858314ced54d6271ce99346845b3669b820c268214233af6101210252f4ec16fedf29199666caf51fb232352074ba162d6a577ca2420b23afdb42bbffffffffa27b511fdc132a2628cf061e0e570cb8bdcd8254d887b320534d3025e10dc210010000006a47304402203ae73e02af3094e59912c6eb5c8d86154e47f5f7b1347560aaf94f6f9f58152002207d3c7afe6241472b8636f004384490db6bef737203afdfd27c9c1bb85ddad31f01210252f4ec16fedf29199666caf51fb232352074ba162d6a577ca2420b23afdb42bbffffffffa38fd3fbdcc9cf324990acc4ff915b2cedc3df252fcb802fcfe051f1aa9bba30010000006b483045022100de04fee5145b8cf0bdf1df60cbfca690c7998a404785552f60a188d092c2908402202990e5aef3e0937f2225a399da8c9716196ebfdbb6d772af301077b8c139d42301210252f4ec16fedf29199666caf51fb232352074ba162d6a577ca2420b23afdb42bbffffffffffb5fab3ee2e7e65d5397f5cde27675b9856a36783442a22442d8c2923fd5532010000006a47304402201888dfa90e3d921930afa0e5ea3f37093d26d72f5af8cdef6a69bb698b91f2ac02200c7b274b08cb0c4aefcf0c4e1c8065f89256f7d1b46757354f938dd8c66a32e701210252f4ec16fedf29199666caf51fb232352074ba162d6a577ca2420b23afdb42bbfffffffff6122d26fb1b363d7a465e1fda9224823cc3570a6e625930e3949b71fd31a937000000006b483045022100d20d3267919a668f828f7730422b99bb6f33bf5b8a8dfdee19600704d23a54e802206e81eb7369d4a6be9ab791333b6154b24ba23034edd80441a0eea5a1046c911401210252f4ec16fedf29199666caf51fb232352074ba162d6a577ca2420b23afdb42bbffffffff4b3932785f54c057bca55b64b8c34ff89f76c06687bc03525a4da7d7772c9940000000006a47304402207cccd8183ee1dac89e4d809754760bd13d4dc7647449eae7bcf9dde615bfc5bb022024cc37bb05cfc677ed4f10c807131e1668f49c5386726dc607c4d41263f9518001210252f4ec16fedf29199666caf51fb232352074ba162d6a577ca2420b23afdb42bbffffffffcf4bd804358722ab192a29d16af2e4e3c28da5aa3b9418a15bcd9b1227769247000000006b483045022100df260d90293d5868c7b2a27024ed7ee50f550a1e1ed928871ed8c0e081c264ee02201f12d3de530d1e5711857b6a1e5d06cd601f4ed10c9c892243bb98b6de863ace01210252f4ec16fedf29199666caf51fb232352074ba162d6a577ca2420b23afdb42bbffffffff0eb69ec7f489d6599d21de01fe73426b721c73be1f133de0e91140dc33297d64010000006a4730440220282215ea5e318cea740f6d7f7094e39c35dae8a1a74684afa06d648a0b8a3a8c02207e9e29918995f9195824dbd0d862ed7fecfc911101d44402c5bcedb7f4de9aa301210252f4ec16fedf29199666caf51fb232352074ba162d6a577ca2420b23afdb42bbffffffff3ca1830e075c9fd9b8e86104bdf07e1d76c9beb34f57b39ea2d9c1f753f5996c010000006b48304502210082dc50909c4e6a69fba608311829e8b2b142ddb22310856bb19c10065963da840220250bcb41bb008c82594bce1fe1b70bba24f66401dbae0a67ce8f3117fa16af5301210252f4ec16fedf29199666caf51fb232352074ba162d6a577ca2420b23afdb42bbffffffffea62893345a96c8f779dad16828ddfa8855c3c01e5694d456cd111e1a70d207b010000006b483045022100e7155b34b61aa1878ed0303d81e6e2f4ebe53d26170286ee2a854bb9690b742902203a388126ab0ef01453a5436b4e1dbd91cae23c73eae6a8e778b34f8b32e6b32801210252f4ec16fedf29199666caf51fb232352074ba162d6a577ca2420b23afdb42bbffffffff90388600f8546225d158fc6926a7fe5720394d6ce26fce8b60a05ba94f8f008b000000006b483045022100e8f54554973d3eb1845020b1f585208d02d391d0302a2d2baae6350716a7170e022009e6f41477a93d9ed3528cc7a463cf77197d469fbbd126501acf8c72593979f801210252f4ec16fedf29199666caf51fb232352074ba162d6a577ca2420b23afdb42bbffffffff412e24d09fa33c84c808718fae7dcffef76b52c3074bd2f96667fb57a2d41b95000000006a473044022010488def9cd94b06bf4bd22a56b7959a94ad87a6fb5c2dddf8d8911809522f63022038678c3a63d5df78c640ed499f732652ce7edc90ab741416449c294406f1bb0d01210252f4ec16fedf29199666caf51fb232352074ba162d6a577ca2420b23afdb42bbffffffff59bfaac33ff45f6248842c9828848014a21e8d0ea50ea4456a843c4123a25495010000006a4730440220373f16a625609a41f16d808211e1a0989391cc5f257949d2ef5fad62011be28a02205ecfd00441fbf10673fcf107d1fbeaf78b8b2fa7073234b786f3db70109363cb01210252f4ec16fedf29199666caf51fb232352074ba162d6a577ca2420b23afdb42bbffffffffef3f35796a726fb212e58ca406bb55642c4cf26b7eae4f75e8f9fa9d6c2fae9a000000006b483045022100f7fb5cd5b0dee74dd64b5ac62711ff51a3e8afba4b32d88ce3369e8d512066c802206167aa0ee47b71b3dcb894fa5162df7b05ae9757a8344160d40a396eaacf1d7601210252f4ec16fedf29199666caf51fb232352074ba162d6a577ca2420b23afdb42bbffffffff7c50da25406be3bb710907889fa6ac418965104e37b3573473cdb7ba54d0fbc3000000006b483045022100ea4e52fe2d82117b38ec79e5379538cfbacc905632afc86930c13152619550930220333ba37b132479c7cd69fcf654ce9f6427874056401c13f9dcccf1bc98c9953801210252f4ec16fedf29199666caf51fb232352074ba162d6a577ca2420b23afdb42bbffffffff0dfe4608fc82c2feee8d7c6d2c6253fc5d6f6b9ae2f6b3481e54f44ba28b53d5000000006b483045022100c208162679321009afd0168c342919c37b6cff844a1577e1b29be1b16a833a0b02207d421903910fdf97ebd9f903c9c3f408c1eb5d8601172ca74d539da2acf34f8401210252f4ec16fedf29199666caf51fb232352074ba162d6a577ca2420b23afdb42bbffffffffa7d80a1a51b871e25f64eeaac06db643e76e01039968eb357bb684d3e97518d8010000006b483045022100d0e72dde409db7c74778cf93551035c1f6b0f1a134bc9ba6fd01a0528bac395d0220169ede231b943c38b075d9db1f15cf95d4edcb873a2ac0574a2dc5f7ea4663eb01210252f4ec16fedf29199666caf51fb232352074ba162d6a577ca2420b23afdb42bbffffffff1fe42ff093b54905f97c5c18851aaa8ae3029cfca94fa386234ae0e89a58cbde000000006b483045022100d6ef080a8d9e3e16d30ea4df4df2c3112bc39f79b110d82a3d27ce40792cf1d002205b2f44b43fe76b291268b98f64d9630ed2f6ff8726df28a0af97eaa0e9feb32b01210252f4ec16fedf29199666caf51fb232352074ba162d6a577ca2420b23afdb42bbffffffffc23e9ad2a9e12319b115b3f7a8bcf959a7fde1c86cbf65731139626528eb78e5000000006a47304402206a9ef19c047e08942357d14b37d31ef629bf68ee6527e49d856e7fe234dd5e7302201cf7ffc4f3f5f4b10794ddba0cc3f8ada5faa14baa6781978ec3d05384e0b88401210252f4ec16fedf29199666caf51fb232352074ba162d6a577ca2420b23afdb42bbffffffff9bc898e7132fbef50ba49ea2506da519f6c0d739137845de3147886988b9edfd010000006b483045022100b580aef567fb1efbaaab7093066576d32c4646e8ec273fc2421283635e968cca02207ed34abb14371e620b601eb7d9a1d1b588a88c75999bc9090b6cc8b9ae2d647b01210252f4ec16fedf29199666caf51fb232352074ba162d6a577ca2420b23afdb42bbffffffff0261040300000000001976a9143472825132f5ccbacc0871b4c234527bd74d661988ac5b844800000000001976a914ef7ea2fe0a84944b1110208ef63bfaeb59d025f988ac00000000", "vin": [{"sequence": 4294967295, "scriptSig": {"hex": "483045022100c28afcbb83b1a920a027183b33e3fe1849fb5315c6a30eac53a92424c8a5825702204f1b6018cfaf04c4875bf50b4cd55e29007567dbc83cd1131a183db62807cff001210252f4ec16fedf29199666caf51fb232352074ba162d6a577ca2420b23afdb42bb", "asm": "3045022100c28afcbb83b1a920a027183b33e3fe1849fb5315c6a30eac53a92424c8a5825702204f1b6018cfaf04c4875bf50b4cd55e29007567dbc83cd1131a183db62807cff0[ALL] 0252f4ec16fedf29199666caf51fb232352074ba162d6a577ca2420b23afdb42bb"}, "vout": 1, "txid": "0772c0db3c3e557fcada46e2b962b63cfc6a05044a31f28d8136a11100d3d36a"}, {"sequence": 4294967295, "scriptSig": {"hex": "483045022100e46841896d540be61cbbe27512433b44b278666de24426ec0bcbd097ac7959b802201d48650e6125ba8858314ced54d6271ce99346845b3669b820c268214233af6101210252f4ec16fedf29199666caf51fb232352074ba162d6a577ca2420b23afdb42bb", "asm": "3045022100e46841896d540be61cbbe27512433b44b278666de24426ec0bcbd097ac7959b802201d48650e6125ba8858314ced54d6271ce99346845b3669b820c268214233af61[ALL] 0252f4ec16fedf29199666caf51fb232352074ba162d6a577ca2420b23afdb42bb"}, "vout": 1, "txid": "0fedc82848e7c3ea74cc663d0f0e2f6e73a95b921c9890d6b60a96ad648ce312"}, {"sequence": 4294967295, "scriptSig": {"hex": "47304402203ae73e02af3094e59912c6eb5c8d86154e47f5f7b1347560aaf94f6f9f58152002207d3c7afe6241472b8636f004384490db6bef737203afdfd27c9c1bb85ddad31f01210252f4ec16fedf29199666caf51fb232352074ba162d6a577ca2420b23afdb42bb", "asm": "304402203ae73e02af3094e59912c6eb5c8d86154e47f5f7b1347560aaf94f6f9f58152002207d3c7afe6241472b8636f004384490db6bef737203afdfd27c9c1bb85ddad31f[ALL] 0252f4ec16fedf29199666caf51fb232352074ba162d6a577ca2420b23afdb42bb"}, "vout": 1, "txid": "10c20de125304d5320b387d85482cdbdb80c570e1e06cf28262a13dc1f517ba2"}, {"sequence": 4294967295, "scriptSig": {"hex": "483045022100de04fee5145b8cf0bdf1df60cbfca690c7998a404785552f60a188d092c2908402202990e5aef3e0937f2225a399da8c9716196ebfdbb6d772af301077b8c139d42301210252f4ec16fedf29199666caf51fb232352074ba162d6a577ca2420b23afdb42bb", "asm": "3045022100de04fee5145b8cf0bdf1df60cbfca690c7998a404785552f60a188d092c2908402202990e5aef3e0937f2225a399da8c9716196ebfdbb6d772af301077b8c139d423[ALL] 0252f4ec16fedf29199666caf51fb232352074ba162d6a577ca2420b23afdb42bb"}, "vout": 1, "txid": "30ba9baaf151e0cf2f80cb2f25dfc3ed2c5b91ffc4ac904932cfc9dcfbd38fa3"}, {"sequence": 4294967295, "scriptSig": {"hex": "47304402201888dfa90e3d921930afa0e5ea3f37093d26d72f5af8cdef6a69bb698b91f2ac02200c7b274b08cb0c4aefcf0c4e1c8065f89256f7d1b46757354f938dd8c66a32e701210252f4ec16fedf29199666caf51fb232352074ba162d6a577ca2420b23afdb42bb", "asm": "304402201888dfa90e3d921930afa0e5ea3f37093d26d72f5af8cdef6a69bb698b91f2ac02200c7b274b08cb0c4aefcf0c4e1c8065f89256f7d1b46757354f938dd8c66a32e7[ALL] 0252f4ec16fedf29199666caf51fb232352074ba162d6a577ca2420b23afdb42bb"}, "vout": 1, "txid": "3255fd23298c2d44222a448367a356985b6727de5c7f39d5657e2eeeb3fab5ff"}, {"sequence": 4294967295, "scriptSig": {"hex": "483045022100d20d3267919a668f828f7730422b99bb6f33bf5b8a8dfdee19600704d23a54e802206e81eb7369d4a6be9ab791333b6154b24ba23034edd80441a0eea5a1046c911401210252f4ec16fedf29199666caf51fb232352074ba162d6a577ca2420b23afdb42bb", "asm": "3045022100d20d3267919a668f828f7730422b99bb6f33bf5b8a8dfdee19600704d23a54e802206e81eb7369d4a6be9ab791333b6154b24ba23034edd80441a0eea5a1046c9114[ALL] 0252f4ec16fedf29199666caf51fb232352074ba162d6a577ca2420b23afdb42bb"}, "vout": 0, "txid": "37a931fd719b94e33059626e0a57c33c822492da1f5e467a3d361bfb262d12f6"}, {"sequence": 4294967295, "scriptSig": {"hex": "47304402207cccd8183ee1dac89e4d809754760bd13d4dc7647449eae7bcf9dde615bfc5bb022024cc37bb05cfc677ed4f10c807131e1668f49c5386726dc607c4d41263f9518001210252f4ec16fedf29199666caf51fb232352074ba162d6a577ca2420b23afdb42bb", "asm": "304402207cccd8183ee1dac89e4d809754760bd13d4dc7647449eae7bcf9dde615bfc5bb022024cc37bb05cfc677ed4f10c807131e1668f49c5386726dc607c4d41263f95180[ALL] 0252f4ec16fedf29199666caf51fb232352074ba162d6a577ca2420b23afdb42bb"}, "vout": 0, "txid": "40992c77d7a74d5a5203bc8766c0769ff84fc3b8645ba5bc57c0545f7832394b"}, {"sequence": 4294967295, "scriptSig": {"hex": "483045022100df260d90293d5868c7b2a27024ed7ee50f550a1e1ed928871ed8c0e081c264ee02201f12d3de530d1e5711857b6a1e5d06cd601f4ed10c9c892243bb98b6de863ace01210252f4ec16fedf29199666caf51fb232352074ba162d6a577ca2420b23afdb42bb", "asm": "3045022100df260d90293d5868c7b2a27024ed7ee50f550a1e1ed928871ed8c0e081c264ee02201f12d3de530d1e5711857b6a1e5d06cd601f4ed10c9c892243bb98b6de863ace[ALL] 0252f4ec16fedf29199666caf51fb232352074ba162d6a577ca2420b23afdb42bb"}, "vout": 0, "txid": "47927627129bcd5ba118943baaa58dc2e3e4f26ad1292a19ab22873504d84bcf"}, {"sequence": 4294967295, "scriptSig": {"hex": "4730440220282215ea5e318cea740f6d7f7094e39c35dae8a1a74684afa06d648a0b8a3a8c02207e9e29918995f9195824dbd0d862ed7fecfc911101d44402c5bcedb7f4de9aa301210252f4ec16fedf29199666caf51fb232352074ba162d6a577ca2420b23afdb42bb", "asm": "30440220282215ea5e318cea740f6d7f7094e39c35dae8a1a74684afa06d648a0b8a3a8c02207e9e29918995f9195824dbd0d862ed7fecfc911101d44402c5bcedb7f4de9aa3[ALL] 0252f4ec16fedf29199666caf51fb232352074ba162d6a577ca2420b23afdb42bb"}, "vout": 1, "txid": "647d2933dc4011e9e03d131fbe731c726b4273fe01de219d59d689f4c79eb60e"}, {"sequence": 4294967295, "scriptSig": {"hex": "48304502210082dc50909c4e6a69fba608311829e8b2b142ddb22310856bb19c10065963da840220250bcb41bb008c82594bce1fe1b70bba24f66401dbae0a67ce8f3117fa16af5301210252f4ec16fedf29199666caf51fb232352074ba162d6a577ca2420b23afdb42bb", "asm": "304502210082dc50909c4e6a69fba608311829e8b2b142ddb22310856bb19c10065963da840220250bcb41bb008c82594bce1fe1b70bba24f66401dbae0a67ce8f3117fa16af53[ALL] 0252f4ec16fedf29199666caf51fb232352074ba162d6a577ca2420b23afdb42bb"}, "vout": 1, "txid": "6c99f553f7c1d9a29eb3574fb3bec9761d7ef0bd0461e8b8d99f5c070e83a13c"}, {"sequence": 4294967295, "scriptSig": {"hex": "483045022100e7155b34b61aa1878ed0303d81e6e2f4ebe53d26170286ee2a854bb9690b742902203a388126ab0ef01453a5436b4e1dbd91cae23c73eae6a8e778b34f8b32e6b32801210252f4ec16fedf29199666caf51fb232352074ba162d6a577ca2420b23afdb42bb", "asm": "3045022100e7155b34b61aa1878ed0303d81e6e2f4ebe53d26170286ee2a854bb9690b742902203a388126ab0ef01453a5436b4e1dbd91cae23c73eae6a8e778b34f8b32e6b328[ALL] 0252f4ec16fedf29199666caf51fb232352074ba162d6a577ca2420b23afdb42bb"}, "vout": 1, "txid": "7b200da7e111d16c454d69e5013c5c85a8df8d8216ad9d778f6ca945338962ea"}, {"sequence": 4294967295, "scriptSig": {"hex": "483045022100e8f54554973d3eb1845020b1f585208d02d391d0302a2d2baae6350716a7170e022009e6f41477a93d9ed3528cc7a463cf77197d469fbbd126501acf8c72593979f801210252f4ec16fedf29199666caf51fb232352074ba162d6a577ca2420b23afdb42bb", "asm": "3045022100e8f54554973d3eb1845020b1f585208d02d391d0302a2d2baae6350716a7170e022009e6f41477a93d9ed3528cc7a463cf77197d469fbbd126501acf8c72593979f8[ALL] 0252f4ec16fedf29199666caf51fb232352074ba162d6a577ca2420b23afdb42bb"}, "vout": 0, "txid": "8b008f4fa95ba0608bce6fe26c4d392057fea72669fc58d1256254f800863890"}, {"sequence": 4294967295, "scriptSig": {"hex": "473044022010488def9cd94b06bf4bd22a56b7959a94ad87a6fb5c2dddf8d8911809522f63022038678c3a63d5df78c640ed499f732652ce7edc90ab741416449c294406f1bb0d01210252f4ec16fedf29199666caf51fb232352074ba162d6a577ca2420b23afdb42bb", "asm": "3044022010488def9cd94b06bf4bd22a56b7959a94ad87a6fb5c2dddf8d8911809522f63022038678c3a63d5df78c640ed499f732652ce7edc90ab741416449c294406f1bb0d[ALL] 0252f4ec16fedf29199666caf51fb232352074ba162d6a577ca2420b23afdb42bb"}, "vout": 0, "txid": "951bd4a257fb6766f9d24b07c3526bf7fecf7dae8f7108c8843ca39fd0242e41"}, {"sequence": 4294967295, "scriptSig": {"hex": "4730440220373f16a625609a41f16d808211e1a0989391cc5f257949d2ef5fad62011be28a02205ecfd00441fbf10673fcf107d1fbeaf78b8b2fa7073234b786f3db70109363cb01210252f4ec16fedf29199666caf51fb232352074ba162d6a577ca2420b23afdb42bb", "asm": "30440220373f16a625609a41f16d808211e1a0989391cc5f257949d2ef5fad62011be28a02205ecfd00441fbf10673fcf107d1fbeaf78b8b2fa7073234b786f3db70109363cb[ALL] 0252f4ec16fedf29199666caf51fb232352074ba162d6a577ca2420b23afdb42bb"}, "vout": 1, "txid": "9554a223413c846a45a40ea50e8d1ea214808428982c8448625ff43fc3aabf59"}, {"sequence": 4294967295, "scriptSig": {"hex": "483045022100f7fb5cd5b0dee74dd64b5ac62711ff51a3e8afba4b32d88ce3369e8d512066c802206167aa0ee47b71b3dcb894fa5162df7b05ae9757a8344160d40a396eaacf1d7601210252f4ec16fedf29199666caf51fb232352074ba162d6a577ca2420b23afdb42bb", "asm": "3045022100f7fb5cd5b0dee74dd64b5ac62711ff51a3e8afba4b32d88ce3369e8d512066c802206167aa0ee47b71b3dcb894fa5162df7b05ae9757a8344160d40a396eaacf1d76[ALL] 0252f4ec16fedf29199666caf51fb232352074ba162d6a577ca2420b23afdb42bb"}, "vout": 0, "txid": "9aae2f6c9dfaf9e8754fae7e6bf24c2c6455bb06a48ce512b26f726a79353fef"}, {"sequence": 4294967295, "scriptSig": {"hex": "483045022100ea4e52fe2d82117b38ec79e5379538cfbacc905632afc86930c13152619550930220333ba37b132479c7cd69fcf654ce9f6427874056401c13f9dcccf1bc98c9953801210252f4ec16fedf29199666caf51fb232352074ba162d6a577ca2420b23afdb42bb", "asm": "3045022100ea4e52fe2d82117b38ec79e5379538cfbacc905632afc86930c13152619550930220333ba37b132479c7cd69fcf654ce9f6427874056401c13f9dcccf1bc98c99538[ALL] 0252f4ec16fedf29199666caf51fb232352074ba162d6a577ca2420b23afdb42bb"}, "vout": 0, "txid": "c3fbd054bab7cd733457b3374e10658941aca69f88070971bbe36b4025da507c"}, {"sequence": 4294967295, "scriptSig": {"hex": "483045022100c208162679321009afd0168c342919c37b6cff844a1577e1b29be1b16a833a0b02207d421903910fdf97ebd9f903c9c3f408c1eb5d8601172ca74d539da2acf34f8401210252f4ec16fedf29199666caf51fb232352074ba162d6a577ca2420b23afdb42bb", "asm": "3045022100c208162679321009afd0168c342919c37b6cff844a1577e1b29be1b16a833a0b02207d421903910fdf97ebd9f903c9c3f408c1eb5d8601172ca74d539da2acf34f84[ALL] 0252f4ec16fedf29199666caf51fb232352074ba162d6a577ca2420b23afdb42bb"}, "vout": 0, "txid": "d5538ba24bf4541e48b3f6e29a6b6f5dfc53622c6d7c8deefec282fc0846fe0d"}, {"sequence": 4294967295, "scriptSig": {"hex": "483045022100d0e72dde409db7c74778cf93551035c1f6b0f1a134bc9ba6fd01a0528bac395d0220169ede231b943c38b075d9db1f15cf95d4edcb873a2ac0574a2dc5f7ea4663eb01210252f4ec16fedf29199666caf51fb232352074ba162d6a577ca2420b23afdb42bb", "asm": "3045022100d0e72dde409db7c74778cf93551035c1f6b0f1a134bc9ba6fd01a0528bac395d0220169ede231b943c38b075d9db1f15cf95d4edcb873a2ac0574a2dc5f7ea4663eb[ALL] 0252f4ec16fedf29199666caf51fb232352074ba162d6a577ca2420b23afdb42bb"}, "vout": 1, "txid": "d81875e9d384b67b35eb689903016ee743b66dc0aaee645fe271b8511a0ad8a7"}, {"sequence": 4294967295, "scriptSig": {"hex": "483045022100d6ef080a8d9e3e16d30ea4df4df2c3112bc39f79b110d82a3d27ce40792cf1d002205b2f44b43fe76b291268b98f64d9630ed2f6ff8726df28a0af97eaa0e9feb32b01210252f4ec16fedf29199666caf51fb232352074ba162d6a577ca2420b23afdb42bb", "asm": "3045022100d6ef080a8d9e3e16d30ea4df4df2c3112bc39f79b110d82a3d27ce40792cf1d002205b2f44b43fe76b291268b98f64d9630ed2f6ff8726df28a0af97eaa0e9feb32b[ALL] 0252f4ec16fedf29199666caf51fb232352074ba162d6a577ca2420b23afdb42bb"}, "vout": 0, "txid": "decb589ae8e04a2386a34fa9fc9c02e38aaa1a85185c7cf90549b593f02fe41f"}, {"sequence": 4294967295, "scriptSig": {"hex": "47304402206a9ef19c047e08942357d14b37d31ef629bf68ee6527e49d856e7fe234dd5e7302201cf7ffc4f3f5f4b10794ddba0cc3f8ada5faa14baa6781978ec3d05384e0b88401210252f4ec16fedf29199666caf51fb232352074ba162d6a577ca2420b23afdb42bb", "asm": "304402206a9ef19c047e08942357d14b37d31ef629bf68ee6527e49d856e7fe234dd5e7302201cf7ffc4f3f5f4b10794ddba0cc3f8ada5faa14baa6781978ec3d05384e0b884[ALL] 0252f4ec16fedf29199666caf51fb232352074ba162d6a577ca2420b23afdb42bb"}, "vout": 0, "txid": "e578eb28656239117365bf6cc8e1fda759f9bca8f7b315b11923e1a9d29a3ec2"}, {"sequence": 4294967295, "scriptSig": {"hex": "483045022100b580aef567fb1efbaaab7093066576d32c4646e8ec273fc2421283635e968cca02207ed34abb14371e620b601eb7d9a1d1b588a88c75999bc9090b6cc8b9ae2d647b01210252f4ec16fedf29199666caf51fb232352074ba162d6a577ca2420b23afdb42bb", "asm": "3045022100b580aef567fb1efbaaab7093066576d32c4646e8ec273fc2421283635e968cca02207ed34abb14371e620b601eb7d9a1d1b588a88c75999bc9090b6cc8b9ae2d647b[ALL] 0252f4ec16fedf29199666caf51fb232352074ba162d6a577ca2420b23afdb42bb"}, "vout": 1, "txid": "fdedb98869884731de45781339d7c0f619a56d50a29ea40bf5be2f13e798c89b"}], "txid": "40033879f38239fae47cf3ab3e4865676882fd8921fccca260f2998255265d4a", "blocktime": 1537873891, "version": 1, "confirmations": 11478, "time": 1537873891, "locktime": 0, "vsize": 3179, "size": 3179}