{"hash": "fa375bb67ba1f1bc08bdb63c8342a3a35e0c0b049e3dfcd4d4ef3f5e8cd8d2d1", "blockhash": "00000000000000000018f53835495a110e01622372bf6ae95dc86f2b0ab887b0", "vout": [{"scriptPubKey": {"reqSigs": 1, "hex": "a9146a31f43613706a9e80a46b086e50a99a668b9f9e87", "addresses": ["3BNXPjpXPjvhNXE99wN5ZpYtBFJgyAEiin"], "asm": "OP_HASH160 6a31f43613706a9e80a46b086e50a99a668b9f9e OP_EQUAL", "type": "scripthash"}, "value": 0.0004, "n": 0}, {"scriptPubKey": {"reqSigs": 1, "hex": "00147b2ddaf0beb3aa3ad8b239ea991964f442470c01", "addresses": ["bc1q0vka4u97kw4r4k9j884fjxty73pywrqphdhe7z"], "asm": "0 7b2ddaf0beb3aa3ad8b239ea991964f442470c01", "type": "witness_v0_keyhash"}, "value": 1.511e-05, "n": 1}], "hex": "0100000000010108063ccc0a5c0a3f9c365267b6c77bcbe97153443e1c27b87e30a6779c039d800000000000ffffffff02409c00000000000017a9146a31f43613706a9e80a46b086e50a99a668b9f9e87e7050000000000001600147b2ddaf0beb3aa3ad8b239ea991964f442470c0102483045022100dd1470b9f5df57310e2795feea817318e5c9fbf956cc7d36df8535e2f03ccf5002203eff7c76416b07d216057a3fb5714eb571187acb3da649f66cee798a283f6ab50121034b70088ff0d39ce08dedcd4485a4b4001ed66e4bf9af753f4c4d51ea71df44c100000000", "vin": [{"txinwitness": ["3045022100dd1470b9f5df57310e2795feea817318e5c9fbf956cc7d36df8535e2f03ccf5002203eff7c76416b07d216057a3fb5714eb571187acb3da649f66cee798a283f6ab501", "034b70088ff0d39ce08dedcd4485a4b4001ed66e4bf9af753f4c4d51ea71df44c1"], "sequence": 4294967295, "scriptSig": {"hex": "", "asm": ""}, "vout": 0, "txid": "809d039c77a6307eb8271c3e445371e9cb7bc7b66752369c3f0a5c0acc3c0608"}], "txid": "400301a62b62ba13ad6d3b2c69a05a8e111ed20c41704db0dbced9cf5f6cadee", "blocktime": 1537870928, "version": 1, "confirmations": 11513, "time": 1537870928, "locktime": 0, "vsize": 142, "size": 224}