{"hash": "6c019a6c065d5b1861a1e55a83552019edc8961132440d0858677bc0c7eab300", "blockhash": "00000000000000000017f5eb5941039fbcee6240d03bc1f2f8e35350df66a1d8", "vout": [{"scriptPubKey": {"reqSigs": 1, "hex": "76a9144f3d3c9536332541cfe45ffe5961a7d57a79aaba88ac", "addresses": ["18DyjxCj24x1yhQVkCWNSoxpx8uw8nk4MF"], "asm": "OP_DUP OP_HASH160 4f3d3c9536332541cfe45ffe5961a7d57a79aaba OP_EQUALVERIFY OP_CHECKSIG", "type": "pubkeyhash"}, "value": 0.00126192, "n": 0}, {"scriptPubKey": {"reqSigs": 1, "hex": "001466b10c022fceff75eb25ee4af6a37899c775566f", "addresses": ["bc1qv6cscq30emlht6e9ae90dgmcn8rh24n0wt6xwj"], "asm": "0 66b10c022fceff75eb25ee4af6a37899c775566f", "type": "witness_v0_keyhash"}, "value": 1.105e-05, "n": 1}], "hex": "01000000000101d8f5dc3a27e6d376201b385706e62ada311acab77b3929357f89b20352be00a3000000001716001421ce3a4376eda14c9c5b1885f646dfb6ed71a414ffffffff02f0ec0100000000001976a9144f3d3c9536332541cfe45ffe5961a7d57a79aaba88ac510400000000000016001466b10c022fceff75eb25ee4af6a37899c775566f02483045022100f1cf5d77db645f114379062657fb8fb2c4b23a20288303b5c553eb2595e90f3f02205e3e227af14377c6d497a8e7009aee094ae08fc79d9a84cdedc11953c233b9ba012102a626e07ff5921aa690879812ae80e8ab9f4c85fe5f671f0f37e178eb0c53ea3700000000", "vin": [{"txinwitness": ["3045022100f1cf5d77db645f114379062657fb8fb2c4b23a20288303b5c553eb2595e90f3f02205e3e227af14377c6d497a8e7009aee094ae08fc79d9a84cdedc11953c233b9ba01", "02a626e07ff5921aa690879812ae80e8ab9f4c85fe5f671f0f37e178eb0c53ea37"], "sequence": 4294967295, "scriptSig": {"hex": "16001421ce3a4376eda14c9c5b1885f646dfb6ed71a414", "asm": "001421ce3a4376eda14c9c5b1885f646dfb6ed71a414"}, "vout": 0, "txid": "a300be5203b2897f3529397bb7ca1a31da2ae60657381b2076d3e6273adcf5d8"}], "txid": "400a1de8e2358a47e6e5ee50f3a4efaae7de47684700df883c6c32ad5754aea4", "blocktime": 1537874412, "version": 1, "confirmations": 11468, "time": 1537874412, "locktime": 0, "vsize": 167, "size": 249}