{"hash": "400ba3ca6e9ab0f5cb5c1cb4c2e87b058bdab4c202e2cc1e14e51e6e2d1425a7", "blockhash": "0000000000000000000dcc0f55137456b1a82d3642486a52398922ac4d620174", "vout": [{"scriptPubKey": {"reqSigs": 1, "hex": "a914f0459d472e7d7e722e7262b417224282e268336587", "addresses": ["3PbTVUT7mrdXjgPTK4nWzoVWAqSzzbPM9j"], "asm": "OP_HASH160 f0459d472e7d7e722e7262b417224282e2683365 OP_EQUAL", "type": "scripthash"}, "value": 0.005, "n": 0}, {"scriptPubKey": {"reqSigs": 1, "hex": "76a914e055127a4a42f0a301abbe9ab4b8fb626e7dede588ac", "addresses": ["1MTAGtYFohBAu6w3jH5ibYWuPsY6xd6K92"], "asm": "OP_DUP OP_HASH160 e055127a4a42f0a301abbe9ab4b8fb626e7dede5 OP_EQUALVERIFY OP_CHECKSIG", "type": "pubkeyhash"}, "value": 0.04036187, "n": 1}], "hex": "0100000001e899ff408736ff923bb56dceab63cec40dda0eda211a73e0b1cd89235b0788d9010000006a47304402200f856ead01bf4969a9edee8ab2f10a47105e2b24b010ed250ba6eb7cb1c4fe9e02203379755235a55351ab5ea552678cdc4d7def424a4740e675e0002f8c700a9551012103cf0773e823b3457a285e80817b8c7651f4aa1508fa6138dd96f98868669fa3a4ffffffff0220a107000000000017a914f0459d472e7d7e722e7262b417224282e2683365875b963d00000000001976a914e055127a4a42f0a301abbe9ab4b8fb626e7dede588ac00000000", "vin": [{"sequence": 4294967295, "scriptSig": {"hex": "47304402200f856ead01bf4969a9edee8ab2f10a47105e2b24b010ed250ba6eb7cb1c4fe9e02203379755235a55351ab5ea552678cdc4d7def424a4740e675e0002f8c700a9551012103cf0773e823b3457a285e80817b8c7651f4aa1508fa6138dd96f98868669fa3a4", "asm": "304402200f856ead01bf4969a9edee8ab2f10a47105e2b24b010ed250ba6eb7cb1c4fe9e02203379755235a55351ab5ea552678cdc4d7def424a4740e675e0002f8c700a9551[ALL] 03cf0773e823b3457a285e80817b8c7651f4aa1508fa6138dd96f98868669fa3a4"}, "vout": 1, "txid": "d988075b2389cdb1e0731a21da0eda0dc4ce63abce6db53b92ff368740ff99e8"}], "txid": "400ba3ca6e9ab0f5cb5c1cb4c2e87b058bdab4c202e2cc1e14e51e6e2d1425a7", "blocktime": 1537870268, "version": 1, "confirmations": 11518, "time": 1537870268, "locktime": 0, "vsize": 223, "size": 223}