{"hash": "40164b38a3a58edd342f46a6936cc9bff4a0e071752f410b83b6a59baf0321ed", "blockhash": "000000000000000000022b45ed06c6f4ccd3cf7fb5ba4856ebd2e58215665228", "vout": [{"scriptPubKey": {"reqSigs": 1, "hex": "76a91474fbef2d00cf412f9e7d0972132d6fc1c1f59ffb88ac", "addresses": ["1BfZBxGw4fdod2LwzFNFtd4cR9zQid7Rqa"], "asm": "OP_DUP OP_HASH160 74fbef2d00cf412f9e7d0972132d6fc1c1f59ffb OP_EQUALVERIFY OP_CHECKSIG", "type": "pubkeyhash"}, "value": 0.01320882, "n": 0}, {"scriptPubKey": {"reqSigs": 1, "hex": "76a9141b6f18a06570e0fc6aadda419dacb737c9ac9f3e88ac", "addresses": ["13W4LHA2X34HeKMUVHQBfLvryUvPqjEMVp"], "asm": "OP_DUP OP_HASH160 1b6f18a06570e0fc6aadda419dacb737c9ac9f3e OP_EQUALVERIFY OP_CHECKSIG", "type": "pubkeyhash"}, "value": 0.03791311, "n": 1}], "hex": "01000000014e8f748ab4bd37bc89f3d4bfdb074955aa087787a6717abd27f73832306ade4f010000006b483045022100af876c471be6aaa7eeed74044471f0bd5e639c42a57331b9a72363ce42ac443702206db2a0bb8605a7f4abf4f865d5d54da821ba2ad33c1aa3071502d52f8e57f7f3012102b69785b3693fd2a4d7a35057bbb4010f9f50fbbcc90db1aa100fd8205aa3415bffffffff02b2271400000000001976a91474fbef2d00cf412f9e7d0972132d6fc1c1f59ffb88accfd93900000000001976a9141b6f18a06570e0fc6aadda419dacb737c9ac9f3e88ac00000000", "vin": [{"sequence": 4294967295, "scriptSig": {"hex": "483045022100af876c471be6aaa7eeed74044471f0bd5e639c42a57331b9a72363ce42ac443702206db2a0bb8605a7f4abf4f865d5d54da821ba2ad33c1aa3071502d52f8e57f7f3012102b69785b3693fd2a4d7a35057bbb4010f9f50fbbcc90db1aa100fd8205aa3415b", "asm": "3045022100af876c471be6aaa7eeed74044471f0bd5e639c42a57331b9a72363ce42ac443702206db2a0bb8605a7f4abf4f865d5d54da821ba2ad33c1aa3071502d52f8e57f7f3[ALL] 02b69785b3693fd2a4d7a35057bbb4010f9f50fbbcc90db1aa100fd8205aa3415b"}, "vout": 1, "txid": "4fde6a303238f727bd7a71a6877708aa554907dbbfd4f389bc37bdb48a748f4e"}], "txid": "40164b38a3a58edd342f46a6936cc9bff4a0e071752f410b83b6a59baf0321ed", "blocktime": 1537869901, "version": 1, "confirmations": 11522, "time": 1537869901, "locktime": 0, "vsize": 226, "size": 226}