{"hash": "40196e67b9e7bb06bf9d6e438fa7ecefecdbbc1db3cbf7a307a63b27907ec59a", "blockhash": "00000000000000000004ffacab907a6b429b9a5745fa0b75af4234bf69dd7176", "vout": [{"scriptPubKey": {"reqSigs": 1, "hex": "76a91412aed4a2fed565f0f473b3688e60246576710f2a88ac", "addresses": ["12hnbu1xVuYF4VhaXYFyw6Pq2eudj3CG4g"], "asm": "OP_DUP OP_HASH160 12aed4a2fed565f0f473b3688e60246576710f2a OP_EQUALVERIFY OP_CHECKSIG", "type": "pubkeyhash"}, "value": 0.77337067, "n": 0}, {"scriptPubKey": {"type": "nulldata", "hex": "6a146f6d6e69000000000000001f00000129ed89ffd6", "asm": "OP_RETURN 6f6d6e69000000000000001f00000129ed89ffd6"}, "value": 0.0, "n": 1}, {"scriptPubKey": {"reqSigs": 1, "hex": "76a914497b7c02d9b0181d04506c6f187c5644490b69ac88ac", "addresses": ["17hYFrPDfmHQjVHcmEaoxioHDBtEiopAxK"], "asm": "OP_DUP OP_HASH160 497b7c02d9b0181d04506c6f187c5644490b69ac OP_EQUALVERIFY OP_CHECKSIG", "type": "pubkeyhash"}, "value": 5.46e-06, "n": 2}], "hex": "0100000001fe6389f7e959ce526bd682ca9e2420e30b9d83dda7e05f3efb35b9cfa122b9dc020000006a473044022061bd0bf8c4bb59ed971a8641e425d38eb668159e1b997085ea89a37d52d2b44302201aa4431b32c0d04d167790ed6b061194a3e479d47b9daeb1ce83b90e1b2f6a8f0121034eac30c603f2c1df608b63739b5386726f6cd1cda40a969a15fb2f61da507d31feffffff03eb119c04000000001976a91412aed4a2fed565f0f473b3688e60246576710f2a88ac0000000000000000166a146f6d6e69000000000000001f00000129ed89ffd622020000000000001976a914497b7c02d9b0181d04506c6f187c5644490b69ac88ac16490800", "vin": [{"sequence": 4294967294, "scriptSig": {"hex": "473044022061bd0bf8c4bb59ed971a8641e425d38eb668159e1b997085ea89a37d52d2b44302201aa4431b32c0d04d167790ed6b061194a3e479d47b9daeb1ce83b90e1b2f6a8f0121034eac30c603f2c1df608b63739b5386726f6cd1cda40a969a15fb2f61da507d31", "asm": "3044022061bd0bf8c4bb59ed971a8641e425d38eb668159e1b997085ea89a37d52d2b44302201aa4431b32c0d04d167790ed6b061194a3e479d47b9daeb1ce83b90e1b2f6a8f[ALL] 034eac30c603f2c1df608b63739b5386726f6cd1cda40a969a15fb2f61da507d31"}, "vout": 2, "txid": "dcb922a1cfb935fb3e5fe0a7dd839d0be320249eca82d66b52ce59e9f78963fe"}], "txid": "40196e67b9e7bb06bf9d6e438fa7ecefecdbbc1db3cbf7a307a63b27907ec59a", "blocktime": 1537875543, "version": 1, "confirmations": 11464, "time": 1537875543, "locktime": 542998, "vsize": 256, "size": 256}