{"hash": "401cc4df26d009e165f6b53dfde2ddcb29b7260c11c20732bc5c90f97be9d674", "blockhash": "00000000000000000017f5eb5941039fbcee6240d03bc1f2f8e35350df66a1d8", "vout": [{"scriptPubKey": {"reqSigs": 1, "hex": "76a9144af70fd81da82cd528eb991b2c16ca32d0482ceb88ac", "addresses": ["17qNyMgdprzCmEyba8LxeeH8eNfvQ5Xz8s"], "asm": "OP_DUP OP_HASH160 4af70fd81da82cd528eb991b2c16ca32d0482ceb OP_EQUALVERIFY OP_CHECKSIG", "type": "pubkeyhash"}, "value": 0.00782745, "n": 0}, {"scriptPubKey": {"reqSigs": 1, "hex": "76a91482f589c6108dcb9044ca111a9601559825b43f1388ac", "addresses": ["1CwSzEKejxBM8BWz1WKBjczKVshSyYChdA"], "asm": "OP_DUP OP_HASH160 82f589c6108dcb9044ca111a9601559825b43f13 OP_EQUALVERIFY OP_CHECKSIG", "type": "pubkeyhash"}, "value": 0.00373489, "n": 1}], "hex": "01000000014a579ae56151448d65226cbaf35ad368cf278184b6ddf45ec1bd94fceacebcd8000000006a4730440220133408924226dcd6a432f485fc69e10fc198abf617a98758ceb548a7bfb66ed6022016ea7f13c95f71e2d79374bb5a84e607174a32819fe7ed95a36c4bc1d5e413dc012103d698adf4549e66bfe46f4470b73f6ac3043632c73660f8da691da43c83e32c9effffffff0299f10b00000000001976a9144af70fd81da82cd528eb991b2c16ca32d0482ceb88acf1b20500000000001976a91482f589c6108dcb9044ca111a9601559825b43f1388ac00000000", "vin": [{"sequence": 4294967295, "scriptSig": {"hex": "4730440220133408924226dcd6a432f485fc69e10fc198abf617a98758ceb548a7bfb66ed6022016ea7f13c95f71e2d79374bb5a84e607174a32819fe7ed95a36c4bc1d5e413dc012103d698adf4549e66bfe46f4470b73f6ac3043632c73660f8da691da43c83e32c9e", "asm": "30440220133408924226dcd6a432f485fc69e10fc198abf617a98758ceb548a7bfb66ed6022016ea7f13c95f71e2d79374bb5a84e607174a32819fe7ed95a36c4bc1d5e413dc[ALL] 03d698adf4549e66bfe46f4470b73f6ac3043632c73660f8da691da43c83e32c9e"}, "vout": 0, "txid": "d8bcceeafc94bdc15ef4ddb6848127cf68d35af3ba6c22658d445161e59a574a"}], "txid": "401cc4df26d009e165f6b53dfde2ddcb29b7260c11c20732bc5c90f97be9d674", "blocktime": 1537874412, "version": 1, "confirmations": 11467, "time": 1537874412, "locktime": 0, "vsize": 225, "size": 225}