{"hash": "4020d5b6cc6baf0ce38ca86c52598e32e56c75f8a5a763714976260d0490e730", "blockhash": "0000000000000000001cda96e906b7601b7a6fb1a3b62bca570a9e5d8f4b3de1", "vout": [{"scriptPubKey": {"reqSigs": 1, "hex": "76a914efe5d561e90f0969bffd6d00dabb3312aeb2e76c88ac", "addresses": ["1NsTpxj17qDUF5qgwQmTJv5YUjdomGMrT3"], "asm": "OP_DUP OP_HASH160 efe5d561e90f0969bffd6d00dabb3312aeb2e76c OP_EQUALVERIFY OP_CHECKSIG", "type": "pubkeyhash"}, "value": 0.04840105, "n": 0}, {"scriptPubKey": {"reqSigs": 1, "hex": "76a9141a74037c3b33b411bb2486db1e4a2f26f1eb3a4888ac", "addresses": ["13QsYknFn5u3jDcZCaQo69HbP97iAFZbvs"], "asm": "OP_DUP OP_HASH160 1a74037c3b33b411bb2486db1e4a2f26f1eb3a48 OP_EQUALVERIFY OP_CHECKSIG", "type": "pubkeyhash"}, "value": 0.46021056, "n": 1}], "hex": "010000000155540789099c14c7a8a0caaea8a85550214ea6933e65d48337f260e17c4227fb010000006a47304402204cdc4280bdf2361753b1b2d12c58c6f701daf94dfdf82a3f2c1d1836e3321a4502201b4807df6cb06e904fe03047f3eb37c918663dba933fdbe4697a8d6fc13e63a501210282e6823a580645ddfd151109459e1c5ae14c1d1919c0671e99340020173a6127ffffffff02a9da4900000000001976a914efe5d561e90f0969bffd6d00dabb3312aeb2e76c88acc039be02000000001976a9141a74037c3b33b411bb2486db1e4a2f26f1eb3a4888ac00000000", "vin": [{"sequence": 4294967295, "scriptSig": {"hex": "47304402204cdc4280bdf2361753b1b2d12c58c6f701daf94dfdf82a3f2c1d1836e3321a4502201b4807df6cb06e904fe03047f3eb37c918663dba933fdbe4697a8d6fc13e63a501210282e6823a580645ddfd151109459e1c5ae14c1d1919c0671e99340020173a6127", "asm": "304402204cdc4280bdf2361753b1b2d12c58c6f701daf94dfdf82a3f2c1d1836e3321a4502201b4807df6cb06e904fe03047f3eb37c918663dba933fdbe4697a8d6fc13e63a5[ALL] 0282e6823a580645ddfd151109459e1c5ae14c1d1919c0671e99340020173a6127"}, "vout": 1, "txid": "fb27427ce160f23783d4653e93a64e215055a8a8aecaa0a8c7149c0989075455"}], "txid": "4020d5b6cc6baf0ce38ca86c52598e32e56c75f8a5a763714976260d0490e730", "blocktime": 1537873282, "version": 1, "confirmations": 11484, "time": 1537873282, "locktime": 0, "vsize": 225, "size": 225}