{"hash": "059c0ca2ac6c3ec957a5bedfdead6f327399b4e8a814193f207d948a84168f7d", "blockhash": "0000000000000000001e0dab787dd257d1dbfcb92a98c2207d5e1078be1f4165", "vout": [{"scriptPubKey": {"reqSigs": 1, "hex": "a914a7ab6133ea15ee7008f240c247c4c83bf261742a87", "addresses": ["3Gya5FS2JCYwwUGaFUY7xPP4pLkQWUsWZQ"], "asm": "OP_HASH160 a7ab6133ea15ee7008f240c247c4c83bf261742a OP_EQUAL", "type": "scripthash"}, "value": 0.01025174, "n": 0}, {"scriptPubKey": {"reqSigs": 1, "hex": "a914a5c679defd49547b8133a1367eeadbdeaecec3da87", "addresses": ["3GoZBZ6F8g4UiCt7moPNLDX7KKwgtGgLUT"], "asm": "OP_HASH160 a5c679defd49547b8133a1367eeadbdeaecec3da OP_EQUAL", "type": "scripthash"}, "value": 0.56754408, "n": 1}], "hex": "010000000001014331a57218eb685ac8b76c9f625414e0f93cc4b2651333fb51a871e6ec523a8101000000232200202d90cd274cea8141a030c0b79acc5b5c0b80b73d028692a1104913808bff6c09ffffffff0296a40f000000000017a914a7ab6133ea15ee7008f240c247c4c83bf261742a87e80062030000000017a914a5c679defd49547b8133a1367eeadbdeaecec3da870400483045022100c226e6fbc71ee697c1e0425a29bdfd2b18987ffe74b53b0aa55b5b6dae2700590220426119fbbf250247c17872c4808a92e4df266ee55965d701d0c193547516baf701483045022100f4dfba39afa436e521dc26810155259e8bf066345edca1feec509e91ea53eaba022053a69b425273f844302ca2b0d244b8bc653d6b4ede74411ffd02338ba26b93a7014752210295d70c0f10033e6e119fdc61ddd495bfe23995150af6df4688db5bf235f2853b21023e4b58fb2a91970de56515d11487aabd364f0404f1099bef70493cc56002342352ae00000000", "vin": [{"txinwitness": ["", "3045022100c226e6fbc71ee697c1e0425a29bdfd2b18987ffe74b53b0aa55b5b6dae2700590220426119fbbf250247c17872c4808a92e4df266ee55965d701d0c193547516baf701", "3045022100f4dfba39afa436e521dc26810155259e8bf066345edca1feec509e91ea53eaba022053a69b425273f844302ca2b0d244b8bc653d6b4ede74411ffd02338ba26b93a701", "52210295d70c0f10033e6e119fdc61ddd495bfe23995150af6df4688db5bf235f2853b21023e4b58fb2a91970de56515d11487aabd364f0404f1099bef70493cc56002342352ae"], "sequence": 4294967295, "scriptSig": {"hex": "2200202d90cd274cea8141a030c0b79acc5b5c0b80b73d028692a1104913808bff6c09", "asm": "00202d90cd274cea8141a030c0b79acc5b5c0b80b73d028692a1104913808bff6c09"}, "vout": 1, "txid": "813a52ece671a851fb331365b2c43cf9e01454629f6cb7c85a68eb1872a53143"}], "txid": "40276d16b00fe20ce8c75bebdc46ebc29b4fa3aec8194b7bc08dd793ba85f589", "blocktime": 1537872475, "version": 1, "confirmations": 11487, "time": 1537872475, "locktime": 0, "vsize": 206, "size": 372}