{"hash": "4029d61db74c00ff073e6b59e3312372ac29da247264ed42e5dbaddfb29ffa5d", "blockhash": "0000000000000000001cda96e906b7601b7a6fb1a3b62bca570a9e5d8f4b3de1", "vout": [{"scriptPubKey": {"reqSigs": 1, "hex": "76a91466662a32513e00291038623eb22d6c849567fd2c88ac", "addresses": ["1ALSK71N7gv9dZQ4KoqNDyrA2cXuMeGJA2"], "asm": "OP_DUP OP_HASH160 66662a32513e00291038623eb22d6c849567fd2c OP_EQUALVERIFY OP_CHECKSIG", "type": "pubkeyhash"}, "value": 0.00046905, "n": 0}, {"scriptPubKey": {"reqSigs": 1, "hex": "a914f96c2f3684eab73dc395433f90767e257446b58d87", "addresses": ["3QRqn6UWPcNRt8hrugqaBKC5kLky2dN8Vb"], "asm": "OP_HASH160 f96c2f3684eab73dc395433f90767e257446b58d OP_EQUAL", "type": "scripthash"}, "value": 0.00157431, "n": 1}], "hex": "0100000001b7e2127f1d03623f4a1abf056d2ef94fa2c2f961f1bcd5facc5556326c7f677e000000006a4730440220010b435c5c073f761672d8c6641c1b67b0035f0ae466177d04f9f4b7102f17420220751c1d1f6e66806e96771c0f67d0c1f81e6e015f9d3209eeeb3a83e504c8b274012103f4a9494ccd467eae58a764beba9c992b9fad9ad76807a013f70d67209e063484ffffffff0239b70000000000001976a91466662a32513e00291038623eb22d6c849567fd2c88acf76602000000000017a914f96c2f3684eab73dc395433f90767e257446b58d8700000000", "vin": [{"sequence": 4294967295, "scriptSig": {"hex": "4730440220010b435c5c073f761672d8c6641c1b67b0035f0ae466177d04f9f4b7102f17420220751c1d1f6e66806e96771c0f67d0c1f81e6e015f9d3209eeeb3a83e504c8b274012103f4a9494ccd467eae58a764beba9c992b9fad9ad76807a013f70d67209e063484", "asm": "30440220010b435c5c073f761672d8c6641c1b67b0035f0ae466177d04f9f4b7102f17420220751c1d1f6e66806e96771c0f67d0c1f81e6e015f9d3209eeeb3a83e504c8b274[ALL] 03f4a9494ccd467eae58a764beba9c992b9fad9ad76807a013f70d67209e063484"}, "vout": 0, "txid": "7e677f6c325655ccfad5bcf161f9c2a24ff92e6d05bf1a4a3f62031d7f12e2b7"}], "txid": "4029d61db74c00ff073e6b59e3312372ac29da247264ed42e5dbaddfb29ffa5d", "blocktime": 1537873282, "version": 1, "confirmations": 11480, "time": 1537873282, "locktime": 0, "vsize": 223, "size": 223}