{"hash": "402dcd5b597b719b05fb57375549cd1f7da84cef242c4e46494a4b763a3a4677", "blockhash": "00000000000000000017f5eb5941039fbcee6240d03bc1f2f8e35350df66a1d8", "vout": [{"scriptPubKey": {"reqSigs": 1, "hex": "76a91427d51d1aecba602dea991d6cff202e50703ee88188ac", "addresses": ["14dcet4Lqh3XUBWSU5GhVQREgfmMG9mAA5"], "asm": "OP_DUP OP_HASH160 27d51d1aecba602dea991d6cff202e50703ee881 OP_EQUALVERIFY OP_CHECKSIG", "type": "pubkeyhash"}, "value": 0.14515924, "n": 0}, {"scriptPubKey": {"type": "nulldata", "hex": "6a146f6d6e69000000000000001f00000009d141f9ea", "asm": "OP_RETURN 6f6d6e69000000000000001f00000009d141f9ea"}, "value": 0.0, "n": 1}, {"scriptPubKey": {"reqSigs": 1, "hex": "76a9140b6057be731eaab0d5da1514ff4eb8e5ca79a77988ac", "addresses": ["1239r84Yb7MsULwWvGj2GtmHcbXjT9jDDS"], "asm": "OP_DUP OP_HASH160 0b6057be731eaab0d5da1514ff4eb8e5ca79a779 OP_EQUALVERIFY OP_CHECKSIG", "type": "pubkeyhash"}, "value": 5.46e-06, "n": 2}], "hex": "0100000002b9d3b7ad9d91f4f7d0105a03f2afd2ad8fcd1b3fcee23c4ce9b40f946f643b37020000006b483045022100d4306b7c8c8f7513b28307b4182475ad6dc21774abf0ad911eb05265be77681e022017f259f5d77bd8037df26388039b66e7edf81fbe30ecf6b8145b2c294ba7a9800121022c4f4f2d5f060d29da982d68270aeacaffcf3754a7d1f21359ee4fe13640f377ffffffff6ebc075abb2114b9a3f5fd2b994611e44cd12baa4a23e598547a86058f6c3a6e000000006a47304402201bdff265f3783a7d5481d7e893bf3c1a9e8e66b9b16943e0bac58c3359aa91ef022017bc8bf5e76b232fb805cd29dfe4289e02657923124e24cffb6c08de0d6dcad80121039d6badaa44b1756460faa2d4bf0daa40e46c5206ec9ef5963decb350076e7f6affffffff03d47edd00000000001976a91427d51d1aecba602dea991d6cff202e50703ee88188ac0000000000000000166a146f6d6e69000000000000001f00000009d141f9ea22020000000000001976a9140b6057be731eaab0d5da1514ff4eb8e5ca79a77988ac00000000", "vin": [{"sequence": 4294967295, "scriptSig": {"hex": "483045022100d4306b7c8c8f7513b28307b4182475ad6dc21774abf0ad911eb05265be77681e022017f259f5d77bd8037df26388039b66e7edf81fbe30ecf6b8145b2c294ba7a9800121022c4f4f2d5f060d29da982d68270aeacaffcf3754a7d1f21359ee4fe13640f377", "asm": "3045022100d4306b7c8c8f7513b28307b4182475ad6dc21774abf0ad911eb05265be77681e022017f259f5d77bd8037df26388039b66e7edf81fbe30ecf6b8145b2c294ba7a980[ALL] 022c4f4f2d5f060d29da982d68270aeacaffcf3754a7d1f21359ee4fe13640f377"}, "vout": 2, "txid": "373b646f940fb4e94c3ce2ce3f1bcd8fadd2aff2035a10d0f7f4919dadb7d3b9"}, {"sequence": 4294967295, "scriptSig": {"hex": "47304402201bdff265f3783a7d5481d7e893bf3c1a9e8e66b9b16943e0bac58c3359aa91ef022017bc8bf5e76b232fb805cd29dfe4289e02657923124e24cffb6c08de0d6dcad80121039d6badaa44b1756460faa2d4bf0daa40e46c5206ec9ef5963decb350076e7f6a", "asm": "304402201bdff265f3783a7d5481d7e893bf3c1a9e8e66b9b16943e0bac58c3359aa91ef022017bc8bf5e76b232fb805cd29dfe4289e02657923124e24cffb6c08de0d6dcad8[ALL] 039d6badaa44b1756460faa2d4bf0daa40e46c5206ec9ef5963decb350076e7f6a"}, "vout": 0, "txid": "6e3a6c8f05867a5498e5234aaa2bd14ce41146992bfdf5a3b91421bb5a07bc6e"}], "txid": "402dcd5b597b719b05fb57375549cd1f7da84cef242c4e46494a4b763a3a4677", "blocktime": 1537874412, "version": 1, "confirmations": 11466, "time": 1537874412, "locktime": 0, "vsize": 404, "size": 404}