{"hash": "402d0751589669b19afaba3bc765089ba20a54ccb00e82f675033085348d825e", "blockhash": "0000000000000000001cda96e906b7601b7a6fb1a3b62bca570a9e5d8f4b3de1", "vout": [{"scriptPubKey": {"reqSigs": 1, "hex": "a914a2072b00b6f2c53d3522adf1e83e98711ec1592187", "addresses": ["3GTjyfFJHp9bJtrQrpgcaHLPfCMxj3r3c8"], "asm": "OP_HASH160 a2072b00b6f2c53d3522adf1e83e98711ec15921 OP_EQUAL", "type": "scripthash"}, "value": 0.00027168, "n": 0}, {"scriptPubKey": {"reqSigs": 1, "hex": "76a914655e4569cdc45ab59b1fba578593f05dbe6f8c9188ac", "addresses": ["1AEzBT37ocwNADTtbmNb6KxxTLnmPd4CY8"], "asm": "OP_DUP OP_HASH160 655e4569cdc45ab59b1fba578593f05dbe6f8c91 OP_EQUALVERIFY OP_CHECKSIG", "type": "pubkeyhash"}, "value": 0.06393846, "n": 1}], "hex": "0200000001ec2c79e333dae32d8995136728ae90c97b8c873c19d8a80140c27293b44930c1010000006a4730440220616bf6e9b6e9197fbd2f7b40078282478e71c512fe1aa765da48ee36bbcf0b3102204fcf4f08172467ef1642bd215ce2b5e80fa7ef6fa04db7e24cf7b6306ec1487e012103d662ccef07b70424d49d1e1281e3bb83de4882a11e9f57591e20311691b52ab9ffffffff02206a00000000000017a914a2072b00b6f2c53d3522adf1e83e98711ec1592187f68f6100000000001976a914655e4569cdc45ab59b1fba578593f05dbe6f8c9188ac00000000", "vin": [{"sequence": 4294967295, "scriptSig": {"hex": "4730440220616bf6e9b6e9197fbd2f7b40078282478e71c512fe1aa765da48ee36bbcf0b3102204fcf4f08172467ef1642bd215ce2b5e80fa7ef6fa04db7e24cf7b6306ec1487e012103d662ccef07b70424d49d1e1281e3bb83de4882a11e9f57591e20311691b52ab9", "asm": "30440220616bf6e9b6e9197fbd2f7b40078282478e71c512fe1aa765da48ee36bbcf0b3102204fcf4f08172467ef1642bd215ce2b5e80fa7ef6fa04db7e24cf7b6306ec1487e[ALL] 03d662ccef07b70424d49d1e1281e3bb83de4882a11e9f57591e20311691b52ab9"}, "vout": 1, "txid": "c13049b49372c24001a8d8193c878c7bc990ae28671395892de3da33e3792cec"}], "txid": "402d0751589669b19afaba3bc765089ba20a54ccb00e82f675033085348d825e", "blocktime": 1537873282, "version": 2, "confirmations": 11484, "time": 1537873282, "locktime": 0, "vsize": 223, "size": 223}