{"hash": "322ed22f02cc1604dacd196cf730d8e18f6b780c4c4e883d120c2f0018667918", "blockhash": "0000000000000000001cda96e906b7601b7a6fb1a3b62bca570a9e5d8f4b3de1", "vout": [{"scriptPubKey": {"reqSigs": 1, "hex": "a9149e615500ec4b956ac0149c1c1806e7f8247645b187", "addresses": ["3G8THbsUifQP9d1Bb5tgU1RSCwM7Y2yPfJ"], "asm": "OP_HASH160 9e615500ec4b956ac0149c1c1806e7f8247645b1 OP_EQUAL", "type": "scripthash"}, "value": 0.00998666, "n": 0}, {"scriptPubKey": {"reqSigs": 1, "hex": "76a9144f1769a61ee92f9b151f26ac332296f49ad999f988ac", "addresses": ["18DCRu2ACG9AJd2Tiso1KwffpT6nm1RZcA"], "asm": "OP_DUP OP_HASH160 4f1769a61ee92f9b151f26ac332296f49ad999f9 OP_EQUALVERIFY OP_CHECKSIG", "type": "pubkeyhash"}, "value": 0.0166188, "n": 1}], "hex": "0200000000010173763b8694ce3c5430c20d2cdcbbab15d61a7b32084e3da07d2eb12b392e3bec0000000017160014eed6b16cd78c0812a58dc05b859b49b5788f2f2ffeffffff020a3d0f000000000017a9149e615500ec4b956ac0149c1c1806e7f8247645b187b85b1900000000001976a9144f1769a61ee92f9b151f26ac332296f49ad999f988ac02483045022100ca30bb296f95e1c0d70271aeb41e2496e932bf7b0c06afb4f109ee5968148b2202205e163ff6b4958d8a05f152d0261f5b5b3102c22eed2c63fc68eb72e4a094562001210343a89078d5494c36d384cb5e19db4643064357a3c040f1a48c3bfcaf9374545613490800", "vin": [{"txinwitness": ["3045022100ca30bb296f95e1c0d70271aeb41e2496e932bf7b0c06afb4f109ee5968148b2202205e163ff6b4958d8a05f152d0261f5b5b3102c22eed2c63fc68eb72e4a094562001", "0343a89078d5494c36d384cb5e19db4643064357a3c040f1a48c3bfcaf93745456"], "sequence": 4294967294, "scriptSig": {"hex": "160014eed6b16cd78c0812a58dc05b859b49b5788f2f2f", "asm": "0014eed6b16cd78c0812a58dc05b859b49b5788f2f2f"}, "vout": 0, "txid": "ec3b2e392bb12e7da03d4e08327b1ad615abbbdc2c0dc230543cce94863b7673"}], "txid": "4032fab94ac60828f686b1fe0e9a79f3a535ecae13e618ce23eed84126813500", "blocktime": 1537873282, "version": 2, "confirmations": 11481, "time": 1537873282, "locktime": 542995, "vsize": 168, "size": 250}