{"hash": "08a93a1e429dc22c8857bd6b041c5f72a0467fbbfd73f257327ec5f9d6555cc8", "blockhash": "0000000000000000000baef3f32e3676a92c3b2e5da21b426e4f302fc371ce76", "vout": [{"scriptPubKey": {"reqSigs": 1, "hex": "76a9143312a6d65a0b77859918f4feaa07b6f51c29901888ac", "addresses": ["15f3oj9paJrLe6z5MBAXwymzoewpK2Tp7B"], "asm": "OP_DUP OP_HASH160 3312a6d65a0b77859918f4feaa07b6f51c299018 OP_EQUALVERIFY OP_CHECKSIG", "type": "pubkeyhash"}, "value": 0.00156177, "n": 0}, {"scriptPubKey": {"reqSigs": 1, "hex": "a914cfaabfe8c271f99a4364b5197ba50c6cddb7adb987", "addresses": ["3Ld4M9RPwEG3VeQbHcC1PsKUndQL7VYLZP"], "asm": "OP_HASH160 cfaabfe8c271f99a4364b5197ba50c6cddb7adb9 OP_EQUAL", "type": "scripthash"}, "value": 0.27550009, "n": 1}], "hex": "0100000000010102e8397afc1ca849f28dc013094812bb2f5ae91686e8c6beebac58c75c2bd2c501000000232200202f7b4024602241b47d3306a6733d9889e4b6761d9f1cb82a18aa8b9ac4506e51ffffffff0211620200000000001976a9143312a6d65a0b77859918f4feaa07b6f51c29901888ac3961a4010000000017a914cfaabfe8c271f99a4364b5197ba50c6cddb7adb98704004730440220160447b4e9c972fb1a3bb1bee0cdf993a528c5ffe141f4a9c8957e01641bf4a7022059b33c823990ea41f59fa0545536f2050da6a19f15ff55de173770b4ab39e3400147304402204b171d172164ff55315fef42cbf21113bd04f70679a6da017c65116dd84ef2390220792c36c66710d32358282b3c2a362c979cb55c327fa7833f4a42c152ae3bcb960147522102973cd851fecff3a20f08377b072729f303801eee1b7678668338adcaec770ec221033e4af03ed09dbd8a417ba042650d5bd1db7f14f271a8f660974e3abf1fdfa4da52ae00000000", "vin": [{"txinwitness": ["", "30440220160447b4e9c972fb1a3bb1bee0cdf993a528c5ffe141f4a9c8957e01641bf4a7022059b33c823990ea41f59fa0545536f2050da6a19f15ff55de173770b4ab39e34001", "304402204b171d172164ff55315fef42cbf21113bd04f70679a6da017c65116dd84ef2390220792c36c66710d32358282b3c2a362c979cb55c327fa7833f4a42c152ae3bcb9601", "522102973cd851fecff3a20f08377b072729f303801eee1b7678668338adcaec770ec221033e4af03ed09dbd8a417ba042650d5bd1db7f14f271a8f660974e3abf1fdfa4da52ae"], "sequence": 4294967295, "scriptSig": {"hex": "2200202f7b4024602241b47d3306a6733d9889e4b6761d9f1cb82a18aa8b9ac4506e51", "asm": "00202f7b4024602241b47d3306a6733d9889e4b6761d9f1cb82a18aa8b9ac4506e51"}, "vout": 1, "txid": "c5d22b5cc758acebbec6e88616e95a2fbb12480913c08df249a81cfc7a39e802"}], "txid": "403414c8f5795a06abda6ed8f4e51aac89db6c4c7e57bfca1672b347855209db", "blocktime": 1537876114, "version": 1, "confirmations": 11460, "time": 1537876114, "locktime": 0, "vsize": 207, "size": 372}