{"hash": "8c491dabc94acafa3fcf92a9213febaa4dce28396419179b97a04915f9874c53", "blockhash": "0000000000000000000e13cef7c366c0283d82e591d1acd082e914b08063cdf1", "vout": [{"scriptPubKey": {"reqSigs": 1, "hex": "76a914e3e76f148eef6558bb39d3d3a9f73769ea3d28e588ac", "addresses": ["1Mn3drcEZ5UEnN2tsqNgDewAGW8q1dzBie"], "asm": "OP_DUP OP_HASH160 e3e76f148eef6558bb39d3d3a9f73769ea3d28e5 OP_EQUALVERIFY OP_CHECKSIG", "type": "pubkeyhash"}, "value": 0.01967289, "n": 0}, {"scriptPubKey": {"reqSigs": 1, "hex": "0014acf5a2df438bddd9cd8639b4d65b8e2a387879c8", "addresses": ["bc1q4n669h6r30wannvx8x6dvkuw9gu8s7wgszafrp"], "asm": "0 acf5a2df438bddd9cd8639b4d65b8e2a387879c8", "type": "witness_v0_keyhash"}, "value": 0.61461462, "n": 1}], "hex": "01000000000101fff3b6202b664d9c50d33d576c087c4d346f22dc0e676ef1833ffa7525354d420000000000ffffffff02b9041e00000000001976a914e3e76f148eef6558bb39d3d3a9f73769ea3d28e588acd6d3a90300000000160014acf5a2df438bddd9cd8639b4d65b8e2a387879c8024730440220622e02b94a0afa2b4f04714c76c508f58d6057b7cc735c52d701baec21aca07c02207850685b45842983ce286bed803b36de9553c2342a4b495145b494116d17b86b01210276d467af26b2ab66579801072af6dff623881db093b7d92cb7f8a06e730e23a400000000", "vin": [{"txinwitness": ["30440220622e02b94a0afa2b4f04714c76c508f58d6057b7cc735c52d701baec21aca07c02207850685b45842983ce286bed803b36de9553c2342a4b495145b494116d17b86b01", "0276d467af26b2ab66579801072af6dff623881db093b7d92cb7f8a06e730e23a4"], "sequence": 4294967295, "scriptSig": {"hex": "", "asm": ""}, "vout": 0, "txid": "424d352575fa3f83f16e670edc226f344d7c086c573dd3509c4d662b20b6f3ff"}], "txid": "4035ae6fd59a40857908e26ea3282cfd00250f480d8f34cc20862d8ff4780707", "blocktime": 1537871767, "version": 1, "confirmations": 11495, "time": 1537871767, "locktime": 0, "vsize": 144, "size": 225}