{"hash": "70e59d8b3c4290388efd5426b0185b7837108f533bb131fb6446d16741653073", "blockhash": "00000000000000000017f5eb5941039fbcee6240d03bc1f2f8e35350df66a1d8", "vout": [{"scriptPubKey": {"reqSigs": 1, "hex": "a914c14f1255a8de01ac3ffe994191c36cec030b722087", "addresses": ["3KK94ZQJc9o7UYxEsSJgRS2nf7wKg9kFN2"], "asm": "OP_HASH160 c14f1255a8de01ac3ffe994191c36cec030b7220 OP_EQUAL", "type": "scripthash"}, "value": 0.00498893, "n": 0}, {"scriptPubKey": {"reqSigs": 1, "hex": "a914a5c679defd49547b8133a1367eeadbdeaecec3da87", "addresses": ["3GoZBZ6F8g4UiCt7moPNLDX7KKwgtGgLUT"], "asm": "OP_HASH160 a5c679defd49547b8133a1367eeadbdeaecec3da OP_EQUAL", "type": "scripthash"}, "value": 0.30231886, "n": 1}], "hex": "01000000000101e1f2b2b7bd9fa358714e36d0389e7810ba58f3cbbab5623df42cb4f8eedae06201000000232200202d90cd274cea8141a030c0b79acc5b5c0b80b73d028692a1104913808bff6c09ffffffff02cd9c07000000000017a914c14f1255a8de01ac3ffe994191c36cec030b7220874e4dcd010000000017a914a5c679defd49547b8133a1367eeadbdeaecec3da870400483045022100856f8c8528964265854707e8112478b7efb26b287a59bf73040503b2db4c5f780220686b2fa2fe2c6699f53dfc0e6d69da76825521a001d64e84a8b1f437e72a446e01473044022077b2798f234b9d75f7319288443cdd78091af64522f586ea314d282f57a48a2d022079c52ec966c081560de3b3025dde130fc3c739170849c4bb80a554134035906f014752210295d70c0f10033e6e119fdc61ddd495bfe23995150af6df4688db5bf235f2853b21023e4b58fb2a91970de56515d11487aabd364f0404f1099bef70493cc56002342352ae00000000", "vin": [{"txinwitness": ["", "3045022100856f8c8528964265854707e8112478b7efb26b287a59bf73040503b2db4c5f780220686b2fa2fe2c6699f53dfc0e6d69da76825521a001d64e84a8b1f437e72a446e01", "3044022077b2798f234b9d75f7319288443cdd78091af64522f586ea314d282f57a48a2d022079c52ec966c081560de3b3025dde130fc3c739170849c4bb80a554134035906f01", "52210295d70c0f10033e6e119fdc61ddd495bfe23995150af6df4688db5bf235f2853b21023e4b58fb2a91970de56515d11487aabd364f0404f1099bef70493cc56002342352ae"], "sequence": 4294967295, "scriptSig": {"hex": "2200202d90cd274cea8141a030c0b79acc5b5c0b80b73d028692a1104913808bff6c09", "asm": "00202d90cd274cea8141a030c0b79acc5b5c0b80b73d028692a1104913808bff6c09"}, "vout": 1, "txid": "62e0daeef8b42cf43d62b5bacbf358ba10789e38d0364e7158a39fbdb7b2f2e1"}], "txid": "403bef5ffc3432457b9716658b5df759edf1fbef219d7c44f37d1778b1b0d00a", "blocktime": 1537874412, "version": 1, "confirmations": 11468, "time": 1537874412, "locktime": 0, "vsize": 206, "size": 371}