{"hash": "403c2ff6803cbff8bf62eee86c5ce2fe3d6a4f5c600ade250c8c1fed08057d4a", "blockhash": "00000000000000000017f5eb5941039fbcee6240d03bc1f2f8e35350df66a1d8", "vout": [{"scriptPubKey": {"reqSigs": 1, "hex": "76a9145a8334fb24e1d39ffe727e656bee549bfe2d6da588ac", "addresses": ["19FazgfnNexoPPRnrQkUxCJWunedvXj4yZ"], "asm": "OP_DUP OP_HASH160 5a8334fb24e1d39ffe727e656bee549bfe2d6da5 OP_EQUALVERIFY OP_CHECKSIG", "type": "pubkeyhash"}, "value": 0.0095, "n": 0}, {"scriptPubKey": {"reqSigs": 1, "hex": "76a914b3c614c264a539b8136cd3f0bd016a88c0dbadb188ac", "addresses": ["1HPZFFga4QNMQjMKFvfy9xiaJiY7LuF3o1"], "asm": "OP_DUP OP_HASH160 b3c614c264a539b8136cd3f0bd016a88c0dbadb1 OP_EQUALVERIFY OP_CHECKSIG", "type": "pubkeyhash"}, "value": 0.2912772, "n": 1}], "hex": "010000000171213f7359ef599ae5b32e050eab36927c165f799558b6b36173e365fc6e91ce010000006a473044022071b299548cbd8707db157a5df6963b8b402fb561651cfac6241a00f4420a4a84022074ac9c93bc77feb75dd99199bd8b6985f201349acb00be3fb399aa39b5306a3301210328f49df6715f6db44982c0c8c74a60e7289c44bf4634f087db1c16e0eab8a3a6ffffffff02f07e0e00000000001976a9145a8334fb24e1d39ffe727e656bee549bfe2d6da588ac2874bc01000000001976a914b3c614c264a539b8136cd3f0bd016a88c0dbadb188ac00000000", "vin": [{"sequence": 4294967295, "scriptSig": {"hex": "473044022071b299548cbd8707db157a5df6963b8b402fb561651cfac6241a00f4420a4a84022074ac9c93bc77feb75dd99199bd8b6985f201349acb00be3fb399aa39b5306a3301210328f49df6715f6db44982c0c8c74a60e7289c44bf4634f087db1c16e0eab8a3a6", "asm": "3044022071b299548cbd8707db157a5df6963b8b402fb561651cfac6241a00f4420a4a84022074ac9c93bc77feb75dd99199bd8b6985f201349acb00be3fb399aa39b5306a33[ALL] 0328f49df6715f6db44982c0c8c74a60e7289c44bf4634f087db1c16e0eab8a3a6"}, "vout": 1, "txid": "ce916efc65e37361b3b65895795f167c9236ab0e052eb3e59a59ef59733f2171"}], "txid": "403c2ff6803cbff8bf62eee86c5ce2fe3d6a4f5c600ade250c8c1fed08057d4a", "blocktime": 1537874412, "version": 1, "confirmations": 11468, "time": 1537874412, "locktime": 0, "vsize": 225, "size": 225}