{"hash": "404149885577556052de233bc7dc9aecb235eac5576a4fb4e4fb148f11137fa3", "blockhash": "0000000000000000001cda96e906b7601b7a6fb1a3b62bca570a9e5d8f4b3de1", "vout": [{"scriptPubKey": {"reqSigs": 1, "hex": "76a91418db0667f8105cf3c36ad7f1c891937df49d928c88ac", "addresses": ["13GRbjJeoBz1hSHobUDJLxcZtUcyqUavzv"], "asm": "OP_DUP OP_HASH160 18db0667f8105cf3c36ad7f1c891937df49d928c OP_EQUALVERIFY OP_CHECKSIG", "type": "pubkeyhash"}, "value": 5.541e-05, "n": 0}, {"scriptPubKey": {"reqSigs": 1, "hex": "a914e9e392bc75443992ec09c6ef5cf0b62c6bd2df3b87", "addresses": ["3P1hzJW4JoCKAeXpUQzWX6UYLRnJoZE368"], "asm": "OP_HASH160 e9e392bc75443992ec09c6ef5cf0b62c6bd2df3b OP_EQUAL", "type": "scripthash"}, "value": 0.0133, "n": 1}], "hex": "0100000007fc690b4d67fa53b73249b653900b8dda2f1c4a462024146ba515e829d809bc06010000006b483045022100db002fd0bb5cb3d237de51e3140b6174ff083de659a28bb77bd09c5f34339cbe022061d07840f1a5834b9b58fd71ae64f5d2104b0d9d2ac243d72ad80e5b2d0d500c012103ccb4e9e546b6e02383a0e1613543cf59fe9e21eff4d3e8635e6a93c5b8c36a97ffffffff42d619ade2557e2d75a8a2c88c1435fd3d318466085b2465029e16d1347b0c0e010000006b483045022100de3f1098cec4ca5835a2ddf55281ecd85314ad99c88dbded5e5f912eb5770df202202333a71dd7ce5aa5a3c62732ce8277852d80172b71300a236759f5dcd9d19010012103ccb4e9e546b6e02383a0e1613543cf59fe9e21eff4d3e8635e6a93c5b8c36a97ffffffff0e11af359f6ac60e8ee1591c07932d1ad1c85560309b07199d3c55318c37116e000000006b483045022100e46ddd047de79b76aadca3c9eedf7ae7ee918b75ec367ce61c62d0b336e6b49a0220212a240062a28a85eeffc5b8440065e3a16223cb70dd4ade5ea9c2b85c468652012103ccb4e9e546b6e02383a0e1613543cf59fe9e21eff4d3e8635e6a93c5b8c36a97ffffffff5cff351edd95f266df16f88479fc14af4bcd8c338f398734fb1164430285c58b000000006a47304402207bf603bbe271bf6aef3050bd637dcb1c8a6ff7a4e77da72977a889735df4196c0220115a1fb0ac5518d14c9201b08e398bd467b75b56f99dcfd96a5b1c7f6b0d9f37012103ccb4e9e546b6e02383a0e1613543cf59fe9e21eff4d3e8635e6a93c5b8c36a97ffffffff451171d9276796567ebed3c678847bf01a2acc176df11bb57597777464707394000000006b483045022100a8d6e80fdb2bc24f40af899670484ad3921692ea15f5ae7f2098a2f41affb8e40220070ed6171169b964c82fc7d17b990569ca3356cbb851bc5abd3297df4e749889012103ccb4e9e546b6e02383a0e1613543cf59fe9e21eff4d3e8635e6a93c5b8c36a97ffffffff1b64cf57b33caa4b53a73c827b275639741676f6e16e5a3e97607c84702e7694010000006a47304402207c8501a1040e580db11ff1b342f130f85f5d3dfe636696d17de54c573eba73fd022039128612a8ae79ada110d3026921e38619d7099bedc746ca4bac5b683b0362f4012103ccb4e9e546b6e02383a0e1613543cf59fe9e21eff4d3e8635e6a93c5b8c36a97ffffffff3d2e0654cbadc8a90b3c98da42e88bc1ab6c622dc16dd8e21b632346304c5dab000000006a47304402204354041dcf500d54de34e824170d3f8fa4ad8b6d7e981761bdaf7573b7ebf359022046f2da9e8ce1288a29312a0713017e47b513e24ecb822d572a72688027d647190121034b5c99fc5fbe79c47ab01af2c03efaccd989cd2bd35131b79b46eb678d5f3e60ffffffff02a5150000000000001976a91418db0667f8105cf3c36ad7f1c891937df49d928c88ac504b14000000000017a914e9e392bc75443992ec09c6ef5cf0b62c6bd2df3b8700000000", "vin": [{"sequence": 4294967295, "scriptSig": {"hex": "483045022100db002fd0bb5cb3d237de51e3140b6174ff083de659a28bb77bd09c5f34339cbe022061d07840f1a5834b9b58fd71ae64f5d2104b0d9d2ac243d72ad80e5b2d0d500c012103ccb4e9e546b6e02383a0e1613543cf59fe9e21eff4d3e8635e6a93c5b8c36a97", "asm": "3045022100db002fd0bb5cb3d237de51e3140b6174ff083de659a28bb77bd09c5f34339cbe022061d07840f1a5834b9b58fd71ae64f5d2104b0d9d2ac243d72ad80e5b2d0d500c[ALL] 03ccb4e9e546b6e02383a0e1613543cf59fe9e21eff4d3e8635e6a93c5b8c36a97"}, "vout": 1, "txid": "06bc09d829e815a56b142420464a1c2fda8d0b9053b64932b753fa674d0b69fc"}, {"sequence": 4294967295, "scriptSig": {"hex": "483045022100de3f1098cec4ca5835a2ddf55281ecd85314ad99c88dbded5e5f912eb5770df202202333a71dd7ce5aa5a3c62732ce8277852d80172b71300a236759f5dcd9d19010012103ccb4e9e546b6e02383a0e1613543cf59fe9e21eff4d3e8635e6a93c5b8c36a97", "asm": "3045022100de3f1098cec4ca5835a2ddf55281ecd85314ad99c88dbded5e5f912eb5770df202202333a71dd7ce5aa5a3c62732ce8277852d80172b71300a236759f5dcd9d19010[ALL] 03ccb4e9e546b6e02383a0e1613543cf59fe9e21eff4d3e8635e6a93c5b8c36a97"}, "vout": 1, "txid": "0e0c7b34d1169e0265245b086684313dfd35148cc8a2a8752d7e55e2ad19d642"}, {"sequence": 4294967295, "scriptSig": {"hex": "483045022100e46ddd047de79b76aadca3c9eedf7ae7ee918b75ec367ce61c62d0b336e6b49a0220212a240062a28a85eeffc5b8440065e3a16223cb70dd4ade5ea9c2b85c468652012103ccb4e9e546b6e02383a0e1613543cf59fe9e21eff4d3e8635e6a93c5b8c36a97", "asm": "3045022100e46ddd047de79b76aadca3c9eedf7ae7ee918b75ec367ce61c62d0b336e6b49a0220212a240062a28a85eeffc5b8440065e3a16223cb70dd4ade5ea9c2b85c468652[ALL] 03ccb4e9e546b6e02383a0e1613543cf59fe9e21eff4d3e8635e6a93c5b8c36a97"}, "vout": 0, "txid": "6e11378c31553c9d19079b306055c8d11a2d93071c59e18e0ec66a9f35af110e"}, {"sequence": 4294967295, "scriptSig": {"hex": "47304402207bf603bbe271bf6aef3050bd637dcb1c8a6ff7a4e77da72977a889735df4196c0220115a1fb0ac5518d14c9201b08e398bd467b75b56f99dcfd96a5b1c7f6b0d9f37012103ccb4e9e546b6e02383a0e1613543cf59fe9e21eff4d3e8635e6a93c5b8c36a97", "asm": "304402207bf603bbe271bf6aef3050bd637dcb1c8a6ff7a4e77da72977a889735df4196c0220115a1fb0ac5518d14c9201b08e398bd467b75b56f99dcfd96a5b1c7f6b0d9f37[ALL] 03ccb4e9e546b6e02383a0e1613543cf59fe9e21eff4d3e8635e6a93c5b8c36a97"}, "vout": 0, "txid": "8bc58502436411fb3487398f338ccd4baf14fc7984f816df66f295dd1e35ff5c"}, {"sequence": 4294967295, "scriptSig": {"hex": "483045022100a8d6e80fdb2bc24f40af899670484ad3921692ea15f5ae7f2098a2f41affb8e40220070ed6171169b964c82fc7d17b990569ca3356cbb851bc5abd3297df4e749889012103ccb4e9e546b6e02383a0e1613543cf59fe9e21eff4d3e8635e6a93c5b8c36a97", "asm": "3045022100a8d6e80fdb2bc24f40af899670484ad3921692ea15f5ae7f2098a2f41affb8e40220070ed6171169b964c82fc7d17b990569ca3356cbb851bc5abd3297df4e749889[ALL] 03ccb4e9e546b6e02383a0e1613543cf59fe9e21eff4d3e8635e6a93c5b8c36a97"}, "vout": 0, "txid": "9473706474779775b51bf16d17cc2a1af07b8478c6d3be7e56966727d9711145"}, {"sequence": 4294967295, "scriptSig": {"hex": "47304402207c8501a1040e580db11ff1b342f130f85f5d3dfe636696d17de54c573eba73fd022039128612a8ae79ada110d3026921e38619d7099bedc746ca4bac5b683b0362f4012103ccb4e9e546b6e02383a0e1613543cf59fe9e21eff4d3e8635e6a93c5b8c36a97", "asm": "304402207c8501a1040e580db11ff1b342f130f85f5d3dfe636696d17de54c573eba73fd022039128612a8ae79ada110d3026921e38619d7099bedc746ca4bac5b683b0362f4[ALL] 03ccb4e9e546b6e02383a0e1613543cf59fe9e21eff4d3e8635e6a93c5b8c36a97"}, "vout": 1, "txid": "94762e70847c60973e5a6ee1f67616743956277b823ca7534baa3cb357cf641b"}, {"sequence": 4294967295, "scriptSig": {"hex": "47304402204354041dcf500d54de34e824170d3f8fa4ad8b6d7e981761bdaf7573b7ebf359022046f2da9e8ce1288a29312a0713017e47b513e24ecb822d572a72688027d647190121034b5c99fc5fbe79c47ab01af2c03efaccd989cd2bd35131b79b46eb678d5f3e60", "asm": "304402204354041dcf500d54de34e824170d3f8fa4ad8b6d7e981761bdaf7573b7ebf359022046f2da9e8ce1288a29312a0713017e47b513e24ecb822d572a72688027d64719[ALL] 034b5c99fc5fbe79c47ab01af2c03efaccd989cd2bd35131b79b46eb678d5f3e60"}, "vout": 0, "txid": "ab5d4c304623631be2d86dc12d626cabc18be842da983c0ba9c8adcb54062e3d"}], "txid": "404149885577556052de233bc7dc9aecb235eac5576a4fb4e4fb148f11137fa3", "blocktime": 1537873282, "version": 1, "confirmations": 11482, "time": 1537873282, "locktime": 0, "vsize": 1109, "size": 1109}