{"hash": "b13f1a3db2ae3a35c0c6841adaae31e02a7d4389bd999b7a77a5c6a760661f30", "blockhash": "00000000000000000004ffacab907a6b429b9a5745fa0b75af4234bf69dd7176", "vout": [{"scriptPubKey": {"reqSigs": 1, "hex": "a914e7f6008f3f326e93da7121860fd7c9fb06a1b1c687", "addresses": ["3NqWiPTpivKDN1AwKpV9EhjzZZwTDwSwLv"], "asm": "OP_HASH160 e7f6008f3f326e93da7121860fd7c9fb06a1b1c6 OP_EQUAL", "type": "scripthash"}, "value": 1.023e-05, "n": 0}, {"scriptPubKey": {"reqSigs": 1, "hex": "a91449d7e96499e76d96ef877a2fcb98823c8bccba2187", "addresses": ["38RTuMXR3rjgmqC2TwiJHrCLzc9nbGoNw7"], "asm": "OP_HASH160 49d7e96499e76d96ef877a2fcb98823c8bccba21 OP_EQUAL", "type": "scripthash"}, "value": 0.00040143, "n": 1}], "hex": "01000000000101f4db7c2bca131b2844247956e60154c73d42f211e09f8dce835558e4b389c3c801000000232200202a9a1aa43dd52fca361d638a9bb1c7c7a7b32bed598a04104268b8ecbdbfe96fffffffff02ff0300000000000017a914e7f6008f3f326e93da7121860fd7c9fb06a1b1c687cf9c00000000000017a91449d7e96499e76d96ef877a2fcb98823c8bccba218704004830450221008525a6f62d8e309b8ff0666876664837182473a70687f2d0bd32931550da549b022049b72c8ea7418b2389e6b62fd96f98e13bc940aff05ac99f934f6bcaf1dda19e01483045022100e8596e101673651dbf4af328e4c40a91f18973b1be5bddec33e5c74c2da3b046022072258d627973ba654da0512dd96b04129f603d8c8391f4abe4eadad85e7b9e750147522103ea39afa13bfc0b16775c1ffdd58dbb69a77441d8211cfd208f16ac7437c451312103338f346cab6ba87fe940591a03ac234be06520c5ab386d4b6632e8eef0d0db7652ae00000000", "vin": [{"txinwitness": ["", "30450221008525a6f62d8e309b8ff0666876664837182473a70687f2d0bd32931550da549b022049b72c8ea7418b2389e6b62fd96f98e13bc940aff05ac99f934f6bcaf1dda19e01", "3045022100e8596e101673651dbf4af328e4c40a91f18973b1be5bddec33e5c74c2da3b046022072258d627973ba654da0512dd96b04129f603d8c8391f4abe4eadad85e7b9e7501", "522103ea39afa13bfc0b16775c1ffdd58dbb69a77441d8211cfd208f16ac7437c451312103338f346cab6ba87fe940591a03ac234be06520c5ab386d4b6632e8eef0d0db7652ae"], "sequence": 4294967295, "scriptSig": {"hex": "2200202a9a1aa43dd52fca361d638a9bb1c7c7a7b32bed598a04104268b8ecbdbfe96f", "asm": "00202a9a1aa43dd52fca361d638a9bb1c7c7a7b32bed598a04104268b8ecbdbfe96f"}, "vout": 1, "txid": "c8c389b3e4585583ce8d9fe011f2423dc75401e656792444281b13ca2b7cdbf4"}], "txid": "40421d97d5ebdd74268136894b642f0193467e39beda0262f14d28a5afabfa0e", "blocktime": 1537875543, "version": 1, "confirmations": 11464, "time": 1537875543, "locktime": 0, "vsize": 206, "size": 372}