{"hash": "404d2aa45dbb3911174790ff838e8baf9e87706c6895dd088dbee08ee6f4f95e", "blockhash": "0000000000000000001f0ddff1eddb255c1121bcd4da4f1bc9a0da00cae72433", "vout": [{"scriptPubKey": {"reqSigs": 1, "hex": "a9144f0f03459c3c8e0d25e8313eb6df1ad16bd3566187", "addresses": ["38u3Hod8tNCs3YRzNBfvwVVumz7MeBYHNe"], "asm": "OP_HASH160 4f0f03459c3c8e0d25e8313eb6df1ad16bd35661 OP_EQUAL", "type": "scripthash"}, "value": 0.00046884, "n": 0}, {"scriptPubKey": {"reqSigs": 1, "hex": "76a914c5c98480b16a2d477320be97f4fa3aaead9b6cd188ac", "addresses": ["1K2oXUjQG9a1AkcJHbvUipCjW9FWfWrv1T"], "asm": "OP_DUP OP_HASH160 c5c98480b16a2d477320be97f4fa3aaead9b6cd1 OP_EQUALVERIFY OP_CHECKSIG", "type": "pubkeyhash"}, "value": 0.01661793, "n": 1}], "hex": "0100000001cea385253959b5d2f6d59586198fc562bea7a08533087f0bcecabf6a3da202e6010000006b4830450221009df2d35718511bd548f1675f02bfa00ba4468f38538688ff04c9d7e42272085802205101464f58823180f767d8d3640bfed8537193a7f2d9969441cd22e8059d0a2b0121030336e1dc828da732395728da4fd660aedc562468823bebc906d34c9f439b7f02ffffffff0224b700000000000017a9144f0f03459c3c8e0d25e8313eb6df1ad16bd3566187615b1900000000001976a914c5c98480b16a2d477320be97f4fa3aaead9b6cd188ac00000000", "vin": [{"sequence": 4294967295, "scriptSig": {"hex": "4830450221009df2d35718511bd548f1675f02bfa00ba4468f38538688ff04c9d7e42272085802205101464f58823180f767d8d3640bfed8537193a7f2d9969441cd22e8059d0a2b0121030336e1dc828da732395728da4fd660aedc562468823bebc906d34c9f439b7f02", "asm": "30450221009df2d35718511bd548f1675f02bfa00ba4468f38538688ff04c9d7e42272085802205101464f58823180f767d8d3640bfed8537193a7f2d9969441cd22e8059d0a2b[ALL] 030336e1dc828da732395728da4fd660aedc562468823bebc906d34c9f439b7f02"}, "vout": 1, "txid": "e602a23d6abfcace0b7f083385a0a7be62c58f198695d5f6d2b559392585a3ce"}], "txid": "404d2aa45dbb3911174790ff838e8baf9e87706c6895dd088dbee08ee6f4f95e", "blocktime": 1537872018, "version": 1, "confirmations": 11489, "time": 1537872018, "locktime": 0, "vsize": 224, "size": 224}