{"hash": "40524f63b418eda37696435a480cffe1ea3396f5084575fc7ed0f8e725db04c9", "blockhash": "0000000000000000001e0dab787dd257d1dbfcb92a98c2207d5e1078be1f4165", "vout": [{"scriptPubKey": {"reqSigs": 1, "hex": "76a914088d1da6a15707092701cbe0bc08c4a7ec7dc48588ac", "addresses": ["1nDTSAtaCbQ61sWbw4npu8yDxfR3mUwbp"], "asm": "OP_DUP OP_HASH160 088d1da6a15707092701cbe0bc08c4a7ec7dc485 OP_EQUALVERIFY OP_CHECKSIG", "type": "pubkeyhash"}, "value": 0.00155, "n": 0}, {"scriptPubKey": {"reqSigs": 1, "hex": "76a914063f3ade4316bc6263533dfd8cfb381bc251d09088ac", "addresses": ["1a2oSpfNFrxX5v5s8az1Jn49dUWxnGDhd"], "asm": "OP_DUP OP_HASH160 063f3ade4316bc6263533dfd8cfb381bc251d090 OP_EQUALVERIFY OP_CHECKSIG", "type": "pubkeyhash"}, "value": 0.02330927, "n": 1}], "hex": "0100000001b2e7608141445eb8993989c0ec2dc9609aba79f44897f5ac6acd8dcb0bd6eece010000006b483045022100b851379ef449e4d80a6ef0d92cc8a467e29df1664bb31b7a77757058300fc71302203842629edf3d037c27de6235c8715b81d0f6ca9ef45411578720ba0f4065731c01210313041675d1938f6257d6864fa3b76d7587d0af32af838961cac854610f6d969effffffff02785d0200000000001976a914088d1da6a15707092701cbe0bc08c4a7ec7dc48588ac2f912300000000001976a914063f3ade4316bc6263533dfd8cfb381bc251d09088ac00000000", "vin": [{"sequence": 4294967295, "scriptSig": {"hex": "483045022100b851379ef449e4d80a6ef0d92cc8a467e29df1664bb31b7a77757058300fc71302203842629edf3d037c27de6235c8715b81d0f6ca9ef45411578720ba0f4065731c01210313041675d1938f6257d6864fa3b76d7587d0af32af838961cac854610f6d969e", "asm": "3045022100b851379ef449e4d80a6ef0d92cc8a467e29df1664bb31b7a77757058300fc71302203842629edf3d037c27de6235c8715b81d0f6ca9ef45411578720ba0f4065731c[ALL] 0313041675d1938f6257d6864fa3b76d7587d0af32af838961cac854610f6d969e"}, "vout": 1, "txid": "ceeed60bcb8dcd6aacf59748f479ba9a60c92decc0893999b85e44418160e7b2"}], "txid": "40524f63b418eda37696435a480cffe1ea3396f5084575fc7ed0f8e725db04c9", "blocktime": 1537872475, "version": 1, "confirmations": 11487, "time": 1537872475, "locktime": 0, "vsize": 226, "size": 226}