{"hash": "f1a3301e9adb738c5d178216031bc8e55a06e1f477b40f5d3ac17652c20836e2", "blockhash": "00000000000000000017f5eb5941039fbcee6240d03bc1f2f8e35350df66a1d8", "vout": [{"scriptPubKey": {"reqSigs": 1, "hex": "a91490e99e8d26d05ead3c05430c292a887bbff695f587", "addresses": ["3EuF6KjJawxTiUsea3Sc8hsLUGmVEf7Xg5"], "asm": "OP_HASH160 90e99e8d26d05ead3c05430c292a887bbff695f5 OP_EQUAL", "type": "scripthash"}, "value": 0.00131239, "n": 0}, {"scriptPubKey": {"type": "nulldata", "hex": "6a146f6d6e69000000000000001f0000000005f5e100", "asm": "OP_RETURN 6f6d6e69000000000000001f0000000005f5e100"}, "value": 0.0, "n": 1}, {"scriptPubKey": {"reqSigs": 1, "hex": "a91490e99e8d26d05ead3c05430c292a887bbff695f587", "addresses": ["3EuF6KjJawxTiUsea3Sc8hsLUGmVEf7Xg5"], "asm": "OP_HASH160 90e99e8d26d05ead3c05430c292a887bbff695f5 OP_EQUAL", "type": "scripthash"}, "value": 5.4e-06, "n": 2}], "hex": "01000000000102d05bbc5cb600ce9c987f0aa64827c5407abd20dd14c98904989f3e225a26295e0000000017160014f6e1792e7852ebd5ae795c2a25d579acdfadec2dffffffffd05bbc5cb600ce9c987f0aa64827c5407abd20dd14c98904989f3e225a26295e0200000017160014f6e1792e7852ebd5ae795c2a25d579acdfadec2dffffffff03a70002000000000017a91490e99e8d26d05ead3c05430c292a887bbff695f5870000000000000000166a146f6d6e69000000000000001f0000000005f5e1001c0200000000000017a91490e99e8d26d05ead3c05430c292a887bbff695f58702473044022033983dde655e4a333d66d22d507bf4c44e05df9dede781ed70aafd7357697f0d022069fde114f2f712779e58715a2a928cca14cb044a0c5d9ed2725a9186c3bccc67012103f1cf988013a33e053d1e9bd54c4798c1a6dc362a5b2798b5344049fca40e2db002473044022002d6b81b7d4216a9a77a28a331a3c6c5fa6b3bf07e3c9b067c97e675009a171802204b4b5cb8c59eae015b94db0dd8d36dcb589d38581211b4e6d9999d7a174d5508012103f1cf988013a33e053d1e9bd54c4798c1a6dc362a5b2798b5344049fca40e2db000000000", "vin": [{"txinwitness": ["3044022033983dde655e4a333d66d22d507bf4c44e05df9dede781ed70aafd7357697f0d022069fde114f2f712779e58715a2a928cca14cb044a0c5d9ed2725a9186c3bccc6701", "03f1cf988013a33e053d1e9bd54c4798c1a6dc362a5b2798b5344049fca40e2db0"], "sequence": 4294967295, "scriptSig": {"hex": "160014f6e1792e7852ebd5ae795c2a25d579acdfadec2d", "asm": "0014f6e1792e7852ebd5ae795c2a25d579acdfadec2d"}, "vout": 0, "txid": "5e29265a223e9f980489c914dd20bd7a40c52748a60a7f989cce00b65cbc5bd0"}, {"txinwitness": ["3044022002d6b81b7d4216a9a77a28a331a3c6c5fa6b3bf07e3c9b067c97e675009a171802204b4b5cb8c59eae015b94db0dd8d36dcb589d38581211b4e6d9999d7a174d550801", "03f1cf988013a33e053d1e9bd54c4798c1a6dc362a5b2798b5344049fca40e2db0"], "sequence": 4294967295, "scriptSig": {"hex": "160014f6e1792e7852ebd5ae795c2a25d579acdfadec2d", "asm": "0014f6e1792e7852ebd5ae795c2a25d579acdfadec2d"}, "vout": 2, "txid": "5e29265a223e9f980489c914dd20bd7a40c52748a60a7f989cce00b65cbc5bd0"}], "txid": "405d28236392626b481869ebe0d25abadb7fd2852d896d74bf371866d8e666c7", "blocktime": 1537874412, "version": 1, "confirmations": 11467, "time": 1537874412, "locktime": 0, "vsize": 287, "size": 449}