{"hash": "4062342c914163d2184b15e532388a4bdd534eb9221cf0490c5de37bb9827e87", "blockhash": "0000000000000000001e0dab787dd257d1dbfcb92a98c2207d5e1078be1f4165", "vout": [{"scriptPubKey": {"reqSigs": 1, "hex": "76a914d243e6abb9a60fbff430b421d2df4b7d59ec186088ac", "addresses": ["1LAnF8h3qMGx3TSwNUHVneBZUEpwE4gu3D"], "asm": "OP_DUP OP_HASH160 d243e6abb9a60fbff430b421d2df4b7d59ec1860 OP_EQUALVERIFY OP_CHECKSIG", "type": "pubkeyhash"}, "value": 0.00077314, "n": 0}, {"scriptPubKey": {"reqSigs": 1, "hex": "a914c50a95e679d2a0f8743d35045defe8dbe456802a87", "addresses": ["3KesiqA8jdnp2sp3jwisBUEcdVkP8AgqVT"], "asm": "OP_HASH160 c50a95e679d2a0f8743d35045defe8dbe456802a OP_EQUAL", "type": "scripthash"}, "value": 5.46e-06, "n": 1}, {"scriptPubKey": {"type": "nulldata", "hex": "6a146f6d6e69000000000000001f0000001741f62c20", "asm": "OP_RETURN 6f6d6e69000000000000001f0000001741f62c20"}, "value": 0.0, "n": 2}], "hex": "0100000001a73f555c588ec732e113e9ccedcc65a5a5f4d85fce2d250245cba233b9ff7137000000006b483045022100d6112604af4c1beabd4da7d13c485f7df09d3564775f92c3ac1aabe385e2e0db022019eeef0e2b5d50452391a50c0eec4fd0da68937c82e7dfa0b9c582232f2d105f01210271977291b74f1f5f5c42157e8aae804664eaaeccfd097918450d37f28fb94d77ffffffff03022e0100000000001976a914d243e6abb9a60fbff430b421d2df4b7d59ec186088ac220200000000000017a914c50a95e679d2a0f8743d35045defe8dbe456802a870000000000000000166a146f6d6e69000000000000001f0000001741f62c2000000000", "vin": [{"sequence": 4294967295, "scriptSig": {"hex": "483045022100d6112604af4c1beabd4da7d13c485f7df09d3564775f92c3ac1aabe385e2e0db022019eeef0e2b5d50452391a50c0eec4fd0da68937c82e7dfa0b9c582232f2d105f01210271977291b74f1f5f5c42157e8aae804664eaaeccfd097918450d37f28fb94d77", "asm": "3045022100d6112604af4c1beabd4da7d13c485f7df09d3564775f92c3ac1aabe385e2e0db022019eeef0e2b5d50452391a50c0eec4fd0da68937c82e7dfa0b9c582232f2d105f[ALL] 0271977291b74f1f5f5c42157e8aae804664eaaeccfd097918450d37f28fb94d77"}, "vout": 0, "txid": "3771ffb933a2cb4502252dce5fd8f4a5a565ccedcce913e132c78e585c553fa7"}], "txid": "4062342c914163d2184b15e532388a4bdd534eb9221cf0490c5de37bb9827e87", "blocktime": 1537872475, "version": 1, "confirmations": 11486, "time": 1537872475, "locktime": 0, "vsize": 255, "size": 255}