{"hash": "406c5582ac933d72d3e3eb638d6cd6d762611be7e39aef858269d7a8204f89c7", "blockhash": "00000000000000000017f5eb5941039fbcee6240d03bc1f2f8e35350df66a1d8", "vout": [{"scriptPubKey": {"reqSigs": 1, "hex": "76a91416534f100c818a9b16c58dca6643a5b9b397503f88ac", "addresses": ["1333fcxCB3qVGqHLAofWikfQTMuvrUJ8uT"], "asm": "OP_DUP OP_HASH160 16534f100c818a9b16c58dca6643a5b9b397503f OP_EQUALVERIFY OP_CHECKSIG", "type": "pubkeyhash"}, "value": 6.015e-05, "n": 0}, {"scriptPubKey": {"reqSigs": 1, "hex": "76a9148f36ad566c840b23ec1da1089dbb542ae28eb84a88ac", "addresses": ["1E4F8TsQ8oq7yZe3aWdSHFQJmACbpmLCco"], "asm": "OP_DUP OP_HASH160 8f36ad566c840b23ec1da1089dbb542ae28eb84a OP_EQUALVERIFY OP_CHECKSIG", "type": "pubkeyhash"}, "value": 0.027885, "n": 1}], "hex": "0100000002bddef2502eb87e2485a0febf1dbf2404d3eeabb1268a68d5adc45cd05003ff45000000006b483045022100ec73427ebbbed66ccfb23a1fe94284d5e37f4bed969114d71f5edfd9f7ca233102201ad550ff572368433aad07fad0456f291d31be232f115784dc86d25a6fca493a012103ea8e4b5c4bd068280c191887a67e044fcf5db905b8b7bd127a3f28507bddfedaffffffff727430b31c6637e7744b8c0343abf787209a1bf89311974bc37d9c03cd6f366f090000006b483045022100c1f90ca21799eaae7e941c2e04562f628fc9a15544e20f343fc719afa24d7a47022071c3bbae5eb712cc6b90483df57d1884fac78f104f41a301ebba8915c81671a001210346d350c702bc69a32f6eeae7727a4ed7ac26028aed6830159f437c36396e13ebffffffff027f170000000000001976a91416534f100c818a9b16c58dca6643a5b9b397503f88ac948c2a00000000001976a9148f36ad566c840b23ec1da1089dbb542ae28eb84a88ac00000000", "vin": [{"sequence": 4294967295, "scriptSig": {"hex": "483045022100ec73427ebbbed66ccfb23a1fe94284d5e37f4bed969114d71f5edfd9f7ca233102201ad550ff572368433aad07fad0456f291d31be232f115784dc86d25a6fca493a012103ea8e4b5c4bd068280c191887a67e044fcf5db905b8b7bd127a3f28507bddfeda", "asm": "3045022100ec73427ebbbed66ccfb23a1fe94284d5e37f4bed969114d71f5edfd9f7ca233102201ad550ff572368433aad07fad0456f291d31be232f115784dc86d25a6fca493a[ALL] 03ea8e4b5c4bd068280c191887a67e044fcf5db905b8b7bd127a3f28507bddfeda"}, "vout": 0, "txid": "45ff0350d05cc4add5688a26b1abeed30424bf1dbffea085247eb82e50f2debd"}, {"sequence": 4294967295, "scriptSig": {"hex": "483045022100c1f90ca21799eaae7e941c2e04562f628fc9a15544e20f343fc719afa24d7a47022071c3bbae5eb712cc6b90483df57d1884fac78f104f41a301ebba8915c81671a001210346d350c702bc69a32f6eeae7727a4ed7ac26028aed6830159f437c36396e13eb", "asm": "3045022100c1f90ca21799eaae7e941c2e04562f628fc9a15544e20f343fc719afa24d7a47022071c3bbae5eb712cc6b90483df57d1884fac78f104f41a301ebba8915c81671a0[ALL] 0346d350c702bc69a32f6eeae7727a4ed7ac26028aed6830159f437c36396e13eb"}, "vout": 9, "txid": "6f366fcd039c7dc34b971193f81b9a2087f7ab43038c4b74e737661cb3307472"}], "txid": "406c5582ac933d72d3e3eb638d6cd6d762611be7e39aef858269d7a8204f89c7", "blocktime": 1537874412, "version": 1, "confirmations": 11468, "time": 1537874412, "locktime": 0, "vsize": 374, "size": 374}