{"hash": "406e591c358c3deeed0a60168885dd1c98e1e690cd8da121b06ab2054a0b7a07", "blockhash": "00000000000000000004ffacab907a6b429b9a5745fa0b75af4234bf69dd7176", "vout": [{"scriptPubKey": {"type": "nulldata", "hex": "6a146f6d6e69000000000000001f00000003cb16d070", "asm": "OP_RETURN 6f6d6e69000000000000001f00000003cb16d070"}, "value": 0.0, "n": 0}, {"scriptPubKey": {"reqSigs": 1, "hex": "76a914bbf676c726d241beafc244296f7969827012eec788ac", "addresses": ["1J8rcVPwRjJdi1jhk95AsjMfsLBbP7x7pS"], "asm": "OP_DUP OP_HASH160 bbf676c726d241beafc244296f7969827012eec7 OP_EQUALVERIFY OP_CHECKSIG", "type": "pubkeyhash"}, "value": 0.02640792, "n": 1}], "hex": "0100000002666ec40e3571d8a09273dfae12463df22e2f66170a899be6523aaf25aa0a8b97020000006a473044022045eeceee0ffb95d281bc6313a3a8948e048546f90be94bb513390a52a27dc63302200dbcf336f4363089000e0220b7067e9815086f3f74d5903d2153edf5b7f6d55f012102ab1209c97e0cd1e00981bdc84c8ef72fde6e836195ac4da4afb7a0b16c9b9594ffffffff283ace560aee509fd1db8f2390dd27bb88830f090f25a9b36763d9a451011a5b010000006a4730440220166b958b70232b8ea48c4ae7bf78d1780ec53698453a5a498f3a9574006a9f4d022020e241ec0ecbf92b89711e0bd50cf0eb5afcd026a9e7ec255dbb393cd7f89219012102061af1d6ec220f4ce39a77205368245c29cd0d340edeb4ced8fd2bd0bc788d42ffffffff020000000000000000166a146f6d6e69000000000000001f00000003cb16d070984b2800000000001976a914bbf676c726d241beafc244296f7969827012eec788ac00000000", "vin": [{"sequence": 4294967295, "scriptSig": {"hex": "473044022045eeceee0ffb95d281bc6313a3a8948e048546f90be94bb513390a52a27dc63302200dbcf336f4363089000e0220b7067e9815086f3f74d5903d2153edf5b7f6d55f012102ab1209c97e0cd1e00981bdc84c8ef72fde6e836195ac4da4afb7a0b16c9b9594", "asm": "3044022045eeceee0ffb95d281bc6313a3a8948e048546f90be94bb513390a52a27dc63302200dbcf336f4363089000e0220b7067e9815086f3f74d5903d2153edf5b7f6d55f[ALL] 02ab1209c97e0cd1e00981bdc84c8ef72fde6e836195ac4da4afb7a0b16c9b9594"}, "vout": 2, "txid": "978b0aaa25af3a52e69b890a17662f2ef23d4612aedf7392a0d871350ec46e66"}, {"sequence": 4294967295, "scriptSig": {"hex": "4730440220166b958b70232b8ea48c4ae7bf78d1780ec53698453a5a498f3a9574006a9f4d022020e241ec0ecbf92b89711e0bd50cf0eb5afcd026a9e7ec255dbb393cd7f89219012102061af1d6ec220f4ce39a77205368245c29cd0d340edeb4ced8fd2bd0bc788d42", "asm": "30440220166b958b70232b8ea48c4ae7bf78d1780ec53698453a5a498f3a9574006a9f4d022020e241ec0ecbf92b89711e0bd50cf0eb5afcd026a9e7ec255dbb393cd7f89219[ALL] 02061af1d6ec220f4ce39a77205368245c29cd0d340edeb4ced8fd2bd0bc788d42"}, "vout": 1, "txid": "5b1a0151a4d96367b3a9250f090f8388bb27dd90238fdbd19f50ee0a56ce3a28"}], "txid": "406e591c358c3deeed0a60168885dd1c98e1e690cd8da121b06ab2054a0b7a07", "blocktime": 1537875543, "version": 1, "confirmations": 11464, "time": 1537875543, "locktime": 0, "vsize": 369, "size": 369}