{"hash": "b7a479baa462b40bf24f3495792cf8ec53feb15ee89b5a1fa30760ea327c0443", "blockhash": "0000000000000000001f76057863aec43deb6fa401d9628bb513d65a8098bfab", "vout": [{"scriptPubKey": {"reqSigs": 1, "hex": "a914d8b9f10f7d6a23bf7b068b9efd664d9bf4b16b8b87", "addresses": ["3MSxdRwxPmQkzb6sXvNsVrrufC55bLAQTg"], "asm": "OP_HASH160 d8b9f10f7d6a23bf7b068b9efd664d9bf4b16b8b OP_EQUAL", "type": "scripthash"}, "value": 0.00483378, "n": 0}, {"scriptPubKey": {"reqSigs": 1, "hex": "76a9140ce4bd470996335e0a2393038b3eb3cbff18668488ac", "addresses": ["12BB8Pid8ZJr1tZHv5WCvz9xVky1d8n3yn"], "asm": "OP_DUP OP_HASH160 0ce4bd470996335e0a2393038b3eb3cbff186684 OP_EQUALVERIFY OP_CHECKSIG", "type": "pubkeyhash"}, "value": 0.06819145, "n": 1}, {"scriptPubKey": {"reqSigs": 1, "hex": "76a914da13ce8e4eb5f7e62122e2a6e8b9cb216ad832ab88ac", "addresses": ["1Lt632NnVNL3wdYja8adH3G5bmcyhLDMjv"], "asm": "OP_DUP OP_HASH160 da13ce8e4eb5f7e62122e2a6e8b9cb216ad832ab OP_EQUALVERIFY OP_CHECKSIG", "type": "pubkeyhash"}, "value": 0.022, "n": 2}, {"scriptPubKey": {"reqSigs": 1, "hex": "a91469f37716502aa58a5f283034cb075c8617861ddc87", "addresses": ["3BMEXwgDgftP8khkyfx8FRzgFUnHhmn19Y"], "asm": "OP_HASH160 69f37716502aa58a5f283034cb075c8617861ddc OP_EQUAL", "type": "scripthash"}, "value": 0.1, "n": 3}, {"scriptPubKey": {"reqSigs": 1, "hex": "a9146bd53a3e216a2891d8669660f1e766d0f475d10587", "addresses": ["3BXBfNoi7nuZkwRKBDzugHzSPhczXga4Ej"], "asm": "OP_HASH160 6bd53a3e216a2891d8669660f1e766d0f475d105 OP_EQUAL", "type": "scripthash"}, "value": 0.03283, "n": 4}, {"scriptPubKey": {"reqSigs": 1, "hex": "a914e714e4a55119bb7a6b17d08d6339f19abd07ce1f87", "addresses": ["3Nks3Y9pX6ZN3d1aeqH8W8cfafCmd2Rze6"], "asm": "OP_HASH160 e714e4a55119bb7a6b17d08d6339f19abd07ce1f OP_EQUAL", "type": "scripthash"}, "value": 0.0879742, "n": 5}, {"scriptPubKey": {"reqSigs": 1, "hex": "a91481207e4676f0895411a597dc03225469269920f387", "addresses": ["3DTn1xiEdt4cErVeeyZbFsyQjLcQn111Va"], "asm": "OP_HASH160 81207e4676f0895411a597dc03225469269920f3 OP_EQUAL", "type": "scripthash"}, "value": 4.33706677, "n": 6}], "hex": "02000000000101dda149ae6ab06f87d5e0a21ef16964bc6a6745b4aa0cd91070ce7862a2d794160200000017160014c4f56849f5119f83a96b5851f4fb63a6b6fef77bfdffffff07326007000000000017a914d8b9f10f7d6a23bf7b068b9efd664d9bf4b16b8b87490d6800000000001976a9140ce4bd470996335e0a2393038b3eb3cbff18668488acc0912100000000001976a914da13ce8e4eb5f7e62122e2a6e8b9cb216ad832ab88ac809698000000000017a91469f37716502aa58a5f283034cb075c8617861ddc87381832000000000017a9146bd53a3e216a2891d8669660f1e766d0f475d10587ec3c86000000000017a914e714e4a55119bb7a6b17d08d6339f19abd07ce1f87b5d6d9190000000017a91481207e4676f0895411a597dc03225469269920f38702473044022058fa60c458e3d8d13d9dc12f933307c5d3c2f4bb07ce64e3b4ca176dbdbe8d9702203ee9588342a1d3edec9cb652796c51b37605e9f2d141133f4d86565e91f659210121033ffa13bd1c1a8419ee16fc551509553629b19a734cf52a1f85058b5374c2f45a14490800", "vin": [{"txinwitness": ["3044022058fa60c458e3d8d13d9dc12f933307c5d3c2f4bb07ce64e3b4ca176dbdbe8d9702203ee9588342a1d3edec9cb652796c51b37605e9f2d141133f4d86565e91f6592101", "033ffa13bd1c1a8419ee16fc551509553629b19a734cf52a1f85058b5374c2f45a"], "sequence": 4294967293, "scriptSig": {"hex": "160014c4f56849f5119f83a96b5851f4fb63a6b6fef77b", "asm": "0014c4f56849f5119f83a96b5851f4fb63a6b6fef77b"}, "vout": 2, "txid": "1694d7a26278ce7010d90caab445676abc6469f11ea2e0d5876fb06aae49a1dd"}], "txid": "4071d1a6e6f7cb54d1a885f92ad3f3f77c3bd01f193aa67c4ddad7b13e376624", "blocktime": 1537873891, "version": 2, "confirmations": 11478, "time": 1537873891, "locktime": 542996, "vsize": 330, "size": 411}