{"hash": "37749abd2ecd4d10c4e1703cc0320187a7e6ef266719df54a95d5d4f52c0117f", "blockhash": "0000000000000000000e13cef7c366c0283d82e591d1acd082e914b08063cdf1", "vout": [{"scriptPubKey": {"reqSigs": 1, "hex": "00149015bcead9968d1ac5238fa6aec8dd4f1e27a261", "addresses": ["bc1qjq2me6kej6x343fr37n2ajxafu0z0gnpnxeyfk"], "asm": "0 9015bcead9968d1ac5238fa6aec8dd4f1e27a261", "type": "witness_v0_keyhash"}, "value": 1.053e-05, "n": 0}, {"scriptPubKey": {"reqSigs": 1, "hex": "76a914825243f53b272fa857dffdc906ea29f58fbe677388ac", "addresses": ["1Ct5PqrjKFVMsFQNjmugC5TNfaWoeAqFRT"], "asm": "OP_DUP OP_HASH160 825243f53b272fa857dffdc906ea29f58fbe6773 OP_EQUALVERIFY OP_CHECKSIG", "type": "pubkeyhash"}, "value": 0.00035, "n": 1}], "hex": "01000000000101858d7655e0249eda4f5abcba5d30759dc3ec36abd9586abc59fd099cee3bfa860100000000ffffffff021d040000000000001600149015bcead9968d1ac5238fa6aec8dd4f1e27a261b8880000000000001976a914825243f53b272fa857dffdc906ea29f58fbe677388ac02473044022100b75058461c03d9d83aae57895523540b8cd3aa767b10ed9491aff87547b6243a021f0619c8e29127d3959a1117231415b3570cb76869cf8cb1d9579d7a0cbfab90012102e1d4790fc9bf4024b4c8f62f0cf8edfbe1f7db82c7d6b9b5c06d91299207ac0e00000000", "vin": [{"txinwitness": ["3044022100b75058461c03d9d83aae57895523540b8cd3aa767b10ed9491aff87547b6243a021f0619c8e29127d3959a1117231415b3570cb76869cf8cb1d9579d7a0cbfab9001", "02e1d4790fc9bf4024b4c8f62f0cf8edfbe1f7db82c7d6b9b5c06d91299207ac0e"], "sequence": 4294967295, "scriptSig": {"hex": "", "asm": ""}, "vout": 1, "txid": "86fa3bee9c09fd59bc6a58d9ab36ecc39d75305dbabc5a4fda9e24e055768d85"}], "txid": "407bda10840219ea2de960281722dc161c74e2e9071f3dd70afa78c0cd993a45", "blocktime": 1537871767, "version": 1, "confirmations": 11495, "time": 1537871767, "locktime": 0, "vsize": 144, "size": 225}