{"hash": "69be9bf485f8cc5c5015903cccc850cc2c7841ed52aafdbf9930b33dbd7dd040", "blockhash": "0000000000000000000dcc0f55137456b1a82d3642486a52398922ac4d620174", "vout": [{"scriptPubKey": {"reqSigs": 1, "hex": "76a914d61c05fd0d22f351b5144fea602b32a929019e5d88ac", "addresses": ["1LX7B9mVNWBK5xF2CXFKXw83YVZzxbbmRg"], "asm": "OP_DUP OP_HASH160 d61c05fd0d22f351b5144fea602b32a929019e5d OP_EQUALVERIFY OP_CHECKSIG", "type": "pubkeyhash"}, "value": 0.014, "n": 0}, {"scriptPubKey": {"reqSigs": 1, "hex": "a914627aa52932456d89054bd84f86246af3b71b93a887", "addresses": ["3Afj4stdiLG9EktGrMbm252ySonnhYaz8v"], "asm": "OP_HASH160 627aa52932456d89054bd84f86246af3b71b93a8 OP_EQUAL", "type": "scripthash"}, "value": 0.65768736, "n": 1}], "hex": "0100000000010120ca2b83d7fdf6f44ba5b438489a2a921b1091c4332b89013d80254fbf06991401000000232200205fdd641234b13964b223bd85ad2a4a667ca2099df3d42a1d3b45706a8d81abf0ffffffff02c05c1500000000001976a914d61c05fd0d22f351b5144fea602b32a929019e5d88ac208deb030000000017a914627aa52932456d89054bd84f86246af3b71b93a887040047304402202316a50737904d8212fa184954553264f358856fbc541595415958cee5c9a96b0220733fe5be76deb7df2804222c62ab46656d121b67d767284a6207e9cdbec5a02601483045022100e43cc0c624169e371ac4529c16ca40ad4f64fed52c503998e48f7adc0982605302202f37507e96563ab638b80f656ad27c689fbad173fb0c683190ab5040e0e5d4fa0147522103dcde3832fa56def7b4e783faad1b8af85c3cdd74a5ff4f3c7c216b1075c18da12103c70ae8ded79be1afda73b9ce5ea14a3878908ee160d66a9a717e792bb6db276952ae00000000", "vin": [{"txinwitness": ["", "304402202316a50737904d8212fa184954553264f358856fbc541595415958cee5c9a96b0220733fe5be76deb7df2804222c62ab46656d121b67d767284a6207e9cdbec5a02601", "3045022100e43cc0c624169e371ac4529c16ca40ad4f64fed52c503998e48f7adc0982605302202f37507e96563ab638b80f656ad27c689fbad173fb0c683190ab5040e0e5d4fa01", "522103dcde3832fa56def7b4e783faad1b8af85c3cdd74a5ff4f3c7c216b1075c18da12103c70ae8ded79be1afda73b9ce5ea14a3878908ee160d66a9a717e792bb6db276952ae"], "sequence": 4294967295, "scriptSig": {"hex": "2200205fdd641234b13964b223bd85ad2a4a667ca2099df3d42a1d3b45706a8d81abf0", "asm": "00205fdd641234b13964b223bd85ad2a4a667ca2099df3d42a1d3b45706a8d81abf0"}, "vout": 1, "txid": "149906bf4f25803d01892b33c491101b922a9a4838b4a54bf4f6fdd7832bca20"}], "txid": "407d48bdac979b67a6c7aa444ace705d8e8b228f762152b263ba3141a01b4c35", "blocktime": 1537870268, "version": 1, "confirmations": 11518, "time": 1537870268, "locktime": 0, "vsize": 208, "size": 373}