{"hash": "407fcf476bf8f7e6729695d59e912a00c5bf8488cc48f5fe4bbad254be4ade0c", "blockhash": "000000000000000000205f8b0775d31398ef75b89a5e8ec8d2c57b4dc0ac4c20", "vout": [{"scriptPubKey": {"reqSigs": 1, "hex": "a914cbf002a8ecffeca0e77bace78511b8bfc7024b2087", "addresses": ["3LHLchXfUkudvn6XcfDJoR8obpGvmQH16L"], "asm": "OP_HASH160 cbf002a8ecffeca0e77bace78511b8bfc7024b20 OP_EQUAL", "type": "scripthash"}, "value": 0.21382088, "n": 0}, {"scriptPubKey": {"reqSigs": 1, "hex": "76a914d9eea4443ffb98fcbade2b2e0454051ffbd2384e88ac", "addresses": ["1LsKWjyHanDd5u3N9UPX4y6WsAZy2VPBu6"], "asm": "OP_DUP OP_HASH160 d9eea4443ffb98fcbade2b2e0454051ffbd2384e OP_EQUALVERIFY OP_CHECKSIG", "type": "pubkeyhash"}, "value": 2.7995, "n": 1}, {"scriptPubKey": {"reqSigs": 1, "hex": "76a91462e1faf2e334429feccc5907690d072297f96a1788ac", "addresses": ["1A1qwBf1RTUgLFr8VjQt7fE23ed3Gr4rRA"], "asm": "OP_DUP OP_HASH160 62e1faf2e334429feccc5907690d072297f96a17 OP_EQUALVERIFY OP_CHECKSIG", "type": "pubkeyhash"}, "value": 0.01041576, "n": 2}, {"scriptPubKey": {"reqSigs": 1, "hex": "76a91483d50235f7c32e059c3d2ba5a53bf40ac6c2ee6388ac", "addresses": ["1D24hEJHZBbeD5JW8XToQJNygB48PebRPx"], "asm": "OP_DUP OP_HASH160 83d50235f7c32e059c3d2ba5a53bf40ac6c2ee63 OP_EQUALVERIFY OP_CHECKSIG", "type": "pubkeyhash"}, "value": 0.4085, "n": 3}, {"scriptPubKey": {"reqSigs": 1, "hex": "76a914aac4f0422b2e5dcf5d8add4910189415754449d188ac", "addresses": ["1GZwo93d59rsC9VbYfKD1aPuxqKKHAgRcu"], "asm": "OP_DUP OP_HASH160 aac4f0422b2e5dcf5d8add4910189415754449d1 OP_EQUALVERIFY OP_CHECKSIG", "type": "pubkeyhash"}, "value": 2.4695, "n": 4}, {"scriptPubKey": {"reqSigs": 1, "hex": "76a91458eae7e0c01dba51346ad6fa7fad333a6eabe1e188ac", "addresses": ["1979sRNzvpDvsdbMi3jjZuX19qx5AMWD4V"], "asm": "OP_DUP OP_HASH160 58eae7e0c01dba51346ad6fa7fad333a6eabe1e1 OP_EQUALVERIFY OP_CHECKSIG", "type": "pubkeyhash"}, "value": 0.06756047, "n": 5}, {"scriptPubKey": {"reqSigs": 1, "hex": "a9144c6d7880474e5a0ca28f922126797c0b68635bb487", "addresses": ["38f8RHFQ8v6avZqCmaYTga5bTYiuhoM6fh"], "asm": "OP_HASH160 4c6d7880474e5a0ca28f922126797c0b68635bb4 OP_EQUAL", "type": "scripthash"}, "value": 2.23902019, "n": 6}, {"scriptPubKey": {"reqSigs": 1, "hex": "76a9147a8859fc2aa22ede6ed21663868080917790ede788ac", "addresses": ["1CAtnGmfVAbWnZ7BFHhSvH1djnV6e5QAY6"], "asm": "OP_DUP OP_HASH160 7a8859fc2aa22ede6ed21663868080917790ede7 OP_EQUALVERIFY OP_CHECKSIG", "type": "pubkeyhash"}, "value": 0.6385, "n": 7}, {"scriptPubKey": {"reqSigs": 1, "hex": "a9149202b2dccd1849858cc4a967839235789eaa412987", "addresses": ["3F13p4MfbRYHttgXj51hemdJQ63nC4dHzp"], "asm": "OP_HASH160 9202b2dccd1849858cc4a967839235789eaa4129 OP_EQUAL", "type": "scripthash"}, "value": 0.340068, "n": 8}, {"scriptPubKey": {"reqSigs": 1, "hex": "a914996a9835467c1639b895dfdfc8ac62881bccc58587", "addresses": ["3FgD1DMkQbjfvKhkqPKHYMv9ZNhtWTRY63"], "asm": "OP_HASH160 996a9835467c1639b895dfdfc8ac62881bccc585 OP_EQUAL", "type": "scripthash"}, "value": 0.022208, "n": 9}, {"scriptPubKey": {"reqSigs": 1, "hex": "76a9146a8bd110461ea1b81f2133771e199802ee7f0d5888ac", "addresses": ["1AiN7xzvG13fduJ5ZDyk9uzKhJxQp3JYs3"], "asm": "OP_DUP OP_HASH160 6a8bd110461ea1b81f2133771e199802ee7f0d58 OP_EQUALVERIFY OP_CHECKSIG", "type": "pubkeyhash"}, "value": 20.0995, "n": 10}, {"scriptPubKey": {"reqSigs": 1, "hex": "76a914472dc41752de6166eb715fa7d9f35f98e995bbb488ac", "addresses": ["17VMoVmk5vMnDziyQdKuHc2m5uhDjLNccn"], "asm": "OP_DUP OP_HASH160 472dc41752de6166eb715fa7d9f35f98e995bbb4 OP_EQUALVERIFY OP_CHECKSIG", "type": "pubkeyhash"}, "value": 17.18319194, "n": 11}, {"scriptPubKey": {"reqSigs": 1, "hex": "a91469f376c7447b28caa150d8ee38ecc7ca3a50e73587", "addresses": ["3BMEXrpJVWbFgG1syxdsfzirEaaAtgeqBh"], "asm": "OP_HASH160 69f376c7447b28caa150d8ee38ecc7ca3a50e735 OP_EQUAL", "type": "scripthash"}, "value": 0.01447456, "n": 12}, {"scriptPubKey": {"reqSigs": 1, "hex": "a914bb9d8c5d5f05800a432fae163368bed49173005287", "addresses": ["3Jo324evmqGLbHrpGRXZ6vWKtgaCbD1sEn"], "asm": "OP_HASH160 bb9d8c5d5f05800a432fae163368bed491730052 OP_EQUAL", "type": "scripthash"}, "value": 0.9995, "n": 13}, {"scriptPubKey": {"reqSigs": 1, "hex": "a914a4b2f7f5699e0047b998c52f687572dd1624bc3287", "addresses": ["3Ghs8xbuGgNepwknVWhnkQRPUvzYfSJ52B"], "asm": "OP_HASH160 a4b2f7f5699e0047b998c52f687572dd1624bc32 OP_EQUAL", "type": "scripthash"}, "value": 5.9995, "n": 14}, {"scriptPubKey": {"reqSigs": 1, "hex": "a91433bfebbf73813768aa0330ffbb2fd2d343fc80aa87", "addresses": ["36QeJDxspQEedzVwCqoMvPxmB8Hrb4B86Z"], "asm": "OP_HASH160 33bfebbf73813768aa0330ffbb2fd2d343fc80aa OP_EQUAL", "type": "scripthash"}, "value": 2.188916, "n": 15}, {"scriptPubKey": {"reqSigs": 1, "hex": "a91454ea493d98f6bd7c8ca681e0eb8cc5f994ead5c087", "addresses": ["39S1M985LTDHDCUVCm4xPJq5GonDLjK4tk"], "asm": "OP_HASH160 54ea493d98f6bd7c8ca681e0eb8cc5f994ead5c0 OP_EQUAL", "type": "scripthash"}, "value": 0.2245, "n": 16}, {"scriptPubKey": {"reqSigs": 1, "hex": "a91492acf36752a59398f0df308e503d49c00f10fc0787", "addresses": ["3F4ZmPAQi5EsRp5BuaY6XHf8ayzfRMmjhx"], "asm": "OP_HASH160 92acf36752a59398f0df308e503d49c00f10fc07 OP_EQUAL", "type": "scripthash"}, "value": 0.112838, "n": 17}, {"scriptPubKey": {"reqSigs": 1, "hex": "76a914fc83422954ef3570ee34415da36488228c2a7c4f88ac", "addresses": ["1Q2AXLbJFz4mgfdwZ3pnwmU5cA1VDkSS4V"], "asm": "OP_DUP OP_HASH160 fc83422954ef3570ee34415da36488228c2a7c4f OP_EQUALVERIFY OP_CHECKSIG", "type": "pubkeyhash"}, "value": 0.160501, "n": 18}, {"scriptPubKey": {"reqSigs": 1, "hex": "76a9141ab15c56df5c15ea07943ff31aacc88a3cd1b9d588ac", "addresses": ["13S93E4G962LW7eKYVZA6WGoYjMrHDKtbX"], "asm": "OP_DUP OP_HASH160 1ab15c56df5c15ea07943ff31aacc88a3cd1b9d5 OP_EQUALVERIFY OP_CHECKSIG", "type": "pubkeyhash"}, "value": 0.0195, "n": 19}, {"scriptPubKey": {"reqSigs": 1, "hex": "76a91417134190df95cd4aa5237179d0b83ce22a2e20cb88ac", "addresses": ["1371cMLGCDNPoV87hbcFajG3YAzmksHRNJ"], "asm": "OP_DUP OP_HASH160 17134190df95cd4aa5237179d0b83ce22a2e20cb OP_EQUALVERIFY OP_CHECKSIG", "type": "pubkeyhash"}, "value": 15.94948112, "n": 20}], "hex": "0100000017e2de81e0cdda1c4d98cf906f93de521232f4794c9c67f3f3720c410d0bb80316100000006a47304402204e71a1e610d7233d3877b1f06c18c16492bddb5654e7c3f71e48a52a43faae4f022064458c00abf5248aab2c44436c4e9b70505219c23c935680cf3a8c54aa71d50e012103f852a58898862eb78361972d9a767fc7a189e5f37c8f218b2788d49a17ac7a45ffffffff51a098212ad9d2cc6dc7c93159c4b5352175f289a9e634e1918c5d2f2e86b3cc000000006a473044022031e009181f4b6ccab7e32708592e6eb4b50f68ff93d8076e929c3cfe3ba6bbdf02202794a385006057b876478f2dc213050af28bf3897308cf1b93d6c39e022627e20121038445144287844a0361ebba96acafd14eeb3a6b43d92fcd7f78b2bd55a02e0084ffffffff2a8a9a8061c2fb20b9037c0e4d5dd7fb7ba38964cc513ff53936f09a2a99e7c6000000006a4730440220509fbbbbc7fdba2293fa619f207b5a0129b53f8b67d99356b9b899872cefe9b602205ec0f765e91f6eaa60f0f9ecb61aa7f426a6ac36e78c6603cc6fa111d75f3c5b0121036ab4b075b4efd3e78b6daa6543cc7cfa2390f083aac811b030a1f43041ff4ad5ffffffff4d104b85e3a703fbff4058674204e128c877fbce45ae290ac094ded6709b9d83010000006b483045022100b3457fc0a9aaa38673c75d9b584d209de6cea507d628cb1143bb826f67171b0402202a2c9fce1cb874f494dde16dc8759230762befcacab62b302b4d56bfc117da39012102b163b61e5dbd22635289c3083748dfe3cc698cb423aecb7ff580b027d9471391ffffffff4d104b85e3a703fbff4058674204e128c877fbce45ae290ac094ded6709b9d83080000006a4730440220246c5db4a93f28643a2ab19c51bd1dd094b505c0e28bedb477411f87c3f43d3102204b7538f76fa42ae96f15bbaeb8fcc5707ae675adc1839a98ffd5c6fe2ae6671a0121031585a3ed5a6cbe6348f14400bbdc28346d8a2e1e7d3e64c985c041a89ad175caffffffff4d104b85e3a703fbff4058674204e128c877fbce45ae290ac094ded6709b9d83090000006b483045022100d671eda46b170d8f0ca0b724d2babf0ddb5f892eb6f59f9b8e4118e8bd075602022067c1480b91938fdbee48f67f56086e63ae48cd9423279785e5895a6ca4ace9ad0121026e8bd56764a923ed48000894ff0df2f71f6c710f65c4c3026cf0e81f33ecf339ffffffff4d104b85e3a703fbff4058674204e128c877fbce45ae290ac094ded6709b9d830a0000006b483045022100fd015edb10f7622ecdec8d7938e0f1208aacf1eb78196be6ef18b6f6bafc576502207d736d80c54af5e98b75795061c57edb32f0720ce6733a3c8b79d12df04f6fa5012102a8040843181c6e29deeabba545fb84cdd4601b1354cf748aa4d74832428a63c3ffffffff20dd37fc0dd5f77fd7f3231f46dc17653da910aab43055b06529fb6f9b799724000000006a47304402207eb0da3968f7bd8b64097787393aea3b159721a30383e752b1da54efc860ae1f02207ea90aed31e13d3ca6981dc68105cfbbc596114a958aacbc77317e82d3011e64012102d83fa4fd26512b6e759d2e8f8e5d7a9d804c67a9b68ee8a4b02ed3c7b94b3f62ffffffffb0210f080aa66a6ca1b59b115d1701cd8ff488b195343f2dc82cc1192cb79265000000006b4830450221008228936c792e56ff7697555d871ba1d234b89d88dd084faac6739ff5a98a48d8022057f0c5e594a37cc30f839087bae9bebe539cafa260c181f7e8c2e6da99047d3f012103d17cd8bccec82e99fcebbc6bce5b09b03271dd4344a72b0062bb131624c98231ffffffffcf841838acb9f4d9528b728f124084c6613aff3ff35011cec1969883055a597a360000006b483045022100dbb9ed3fe6810f48e99d5ddcdbcd1632d4569d94b1ad2bcc02ff91510905048002201731f3ed5099575c37ee53922af409aac9f7bbde378474e701c0f1870a0f70bf01210346d07cd38ea7e26814b6a39da3022760c79dca82eeef54164614903054f859bcffffffff380817e407db28a15ba17c6a675c7a97c5868762b770ac244b4bf0097ad6e566000000006a473044022049e6a7fe81cf91cbbd4c2fb3b578a4e20d0158f487a512d2c1652f841d608edc02205a35fa3048d9935b80e4ba07aca45f9edba8de237b31ac004eace1870ecb5b4501210281e5b4dccae92867b8331bab66e727edb500f805db3be449c22f46599d179d7bffffffff29642ded7c8f4e1f67737e15b39a745b64e1019577a19c01857d99334d731d37000000006a47304402200bedee15e5c1944a8214f11e828a666a3fe3d43197029592ef871d771c3d50c002204b990f5b6ad29516a0b2a61541ae9a1f8a82ae91fdac25d9394bd0b1452e1fa8012102922a40b3bf30defb3ea532b1f1c6dde16c3f4db5a31252bd7757fc52d8fcf400ffffffffccfbffe022879ed7db6da2aa7659a3116986a864065d6249b2d01dc2b8ce18a9000000006b483045022100a1034719458bb4ea88a220739787fcf0d847fa8b98858304f95789f869e1303102206b9d205fa68247cd72e4ad7b48a3e3d1ed3e5f5772ee06344ae43fcdc7b4089d0121033713e7e585d3afe6dc5a4070cd70b8db01314da7451df283c916945468697edeffffffff2350060516c9c775f78bd78a4f04eb8675a2630238fdd274970eb712a3c3aa4a260000006a473044022063f8b45a084178f8c9d49db108d2b201235eef6f28daca3d1bc047c0dee25f1702207db2ec3f3c638a94fd56d9e62929c076ebdc9f0b11bf52157cdecd9ad36d05be01210281b795614bba10950aefa855d371f914dc1e5cdb6794b0b4fd46c27017d48730ffffffff2350060516c9c775f78bd78a4f04eb8675a2630238fdd274970eb712a3c3aa4a280000006b483045022100d2a84466ac1fb48860d54a63ebe63368eb53f3d051c469ac2a2c059ebbcb579d0220408377b480b07024e8a4f7672c48f05354c002a9e518ea996b262a28690243be012102260aaa4b5f8bb197aee67a3a79b2820ed73ffc041f774e1c5e97cf0619238464ffffffff3c8c376cfa9784cf74c96309fd63f5855f11838c7d8224b64ae1d375bf8d6551000000006b483045022100ec203d11479a7614d5aac48e37ba60e9b12b2012e90909b0cfb9a5b77733aa2602200cd4b0953b14981548f6df080bdd27c1322a7ac5861f83b7357b802d27bcdf5301210218f830db143b3daf4a3cc951c31528b16bbaf876709666b81b169e6a0c4c5211ffffffff2090054837f020620e8e266e10e1404d8275b311a390e32d49330a3a086fc880010000006a473044022005569573841737975ba0382155f53ca5590109c82281cb5d65a78a31ff1ab057022025e5669643bcb22c473a1ff3c133ffe4cbc43bdef9b1d02e9d4b663ccb48ecca012102fb04df36af63d839f29f85ddaf23a1f8e41e83f5b0e12d6369d9058f222669c6ffffffff47d527ab0b3f839c7cad40db06932063db1eb11d0de92022075eb63a9559ad84010000006a47304402201f739683374bad97933c5a8eab5d48144f2492e7c7836431aca628eb24400bd70220736f2af9a3cda4269916b1031181cb447468c4ec98d6d32b87e6a8798f1b5c24012102260aaa4b5f8bb197aee67a3a79b2820ed73ffc041f774e1c5e97cf0619238464ffffffffee0949ea296f37fba5b3da05d8f6e00dfeb8fcf6aed52d4333bc3ef5bc403bad000000006a47304402201d75d4f6ae0ffc00f810fd63b0a690aed8a8952baadf3662a125ecf3cca6742a022032fb96def36c4f14a68930e50d0a4aa8b814e3fae75f3bdcef253ecd7c9b11f30121033547126278c6fd3651db1c63483aa3f6ea10d870ac69d1e9b7eacc97f94fda10ffffffff1905afafd18e2bf209b23c97f138624c0d461cd1f66c2cd06dcb48529a5644b6000000006b483045022100b3ca0ce2671dd75ff891b5f7ff49d893f4bb6994a5c16f65790282715d0203230220415d3341edd4f3716a6df3967c1fd1c2c7be44caef77bd122a00c59b4d77c371012103163613ed8d42a8c2cff20fa1351d3dc5af0c3cfa2b40b3b6687611ac34515bd8ffffffffa70ad9dd795a98f6ed853f87b09d9517f10b82b752edc0d44e1e817d6bca4ec9000000006a47304402205cf1ec9106d9c6a9ca78d76a2971f123ee4453afb10d1d5a26d56c2edd9787570220433e9945c34dc5698dc546bbe34955155ffb3226dc229215fa38474b2283c2a6012103163613ed8d42a8c2cff20fa1351d3dc5af0c3cfa2b40b3b6687611ac34515bd8ffffffff4eb015e8ae5553dac26ed62be44469d26a128a28ed306a6f18a81686ed020fbe000000006b483045022100c6bac1180ed05b9b73bf1f0f240133c07d1622b6eba0fa6f26f3a6699d66ff360220562ae3d2c588dd2aa84a78297eb76140f8f16ee266ecd86f05c04981a2361f6a012103163613ed8d42a8c2cff20fa1351d3dc5af0c3cfa2b40b3b6687611ac34515bd8ffffffff0d2fcd2014f9d90a9aee78d76b730def2193337933809d9a1692bab4c22e5d04000000006a47304402201d19a75e57282210551e657124515c0ba75cdacfce027b7c11b09022c56a9efa02206396db37a212c7c2be6884b3933910c443e90a6fab1d0e59301c87a04212985a012103d4546919eba3d74ca146e65335a597799ddb057c37669f7a9143f220d76d0ffcffffffff15c84346010000000017a914cbf002a8ecffeca0e77bace78511b8bfc7024b2087b0b2af10000000001976a914d9eea4443ffb98fcbade2b2e0454051ffbd2384e88aca8e40f00000000001976a91462e1faf2e334429feccc5907690d072297f96a1788ac50526f02000000001976a91483d50235f7c32e059c3d2ba5a53bf40ac6c2ee6388ac7028b80e000000001976a914aac4f0422b2e5dcf5d8add4910189415754449d188accf166700000000001976a91458eae7e0c01dba51346ad6fa7fad333a6eabe1e188ac4379580d0000000017a9144c6d7880474e5a0ca28f922126797c0b68635bb4871046ce03000000001976a9147a8859fc2aa22ede6ed21663868080917790ede788ac10e706020000000017a9149202b2dccd1849858cc4a967839235789eaa41298700e321000000000017a914996a9835467c1639b895dfdfc8ac62881bccc585873067cd77000000001976a9146a8bd110461ea1b81f2133771e199802ee7f0d5888ac5a786b66000000001976a914472dc41752de6166eb715fa7d9f35f98e995bbb488ac201616000000000017a91469f376c7447b28caa150d8ee38ecc7ca3a50e73587b01df5050000000017a914bb9d8c5d5f05800a432fae163368bed49173005287b082c2230000000017a914a4b2f7f5699e0047b998c52f687572dd1624bc328750050c0d0000000017a91433bfebbf73813768aa0330ffbb2fd2d343fc80aa87508f56010000000017a91454ea493d98f6bd7c8ca681e0eb8cc5f994ead5c087582dac000000000017a91492acf36752a59398f0df308e503d49c00f10fc0787b4e7f400000000001976a914fc83422954ef3570ee34415da36488228c2a7c4f88ac30c11d00000000001976a9141ab15c56df5c15ea07943ff31aacc88a3cd1b9d588ac10fa105f000000001976a91417134190df95cd4aa5237179d0b83ce22a2e20cb88ac00000000", "vin": [{"sequence": 4294967295, "scriptSig": {"hex": "47304402204e71a1e610d7233d3877b1f06c18c16492bddb5654e7c3f71e48a52a43faae4f022064458c00abf5248aab2c44436c4e9b70505219c23c935680cf3a8c54aa71d50e012103f852a58898862eb78361972d9a767fc7a189e5f37c8f218b2788d49a17ac7a45", "asm": "304402204e71a1e610d7233d3877b1f06c18c16492bddb5654e7c3f71e48a52a43faae4f022064458c00abf5248aab2c44436c4e9b70505219c23c935680cf3a8c54aa71d50e[ALL] 03f852a58898862eb78361972d9a767fc7a189e5f37c8f218b2788d49a17ac7a45"}, "vout": 16, "txid": "1603b80b0d410c72f3f3679c4c79f4321252de936f90cf984d1cdacde081dee2"}, {"sequence": 4294967295, "scriptSig": {"hex": "473044022031e009181f4b6ccab7e32708592e6eb4b50f68ff93d8076e929c3cfe3ba6bbdf02202794a385006057b876478f2dc213050af28bf3897308cf1b93d6c39e022627e20121038445144287844a0361ebba96acafd14eeb3a6b43d92fcd7f78b2bd55a02e0084", "asm": "3044022031e009181f4b6ccab7e32708592e6eb4b50f68ff93d8076e929c3cfe3ba6bbdf02202794a385006057b876478f2dc213050af28bf3897308cf1b93d6c39e022627e2[ALL] 038445144287844a0361ebba96acafd14eeb3a6b43d92fcd7f78b2bd55a02e0084"}, "vout": 0, "txid": "ccb3862e2f5d8c91e134e6a989f2752135b5c45931c9c76dccd2d92a2198a051"}, {"sequence": 4294967295, "scriptSig": {"hex": "4730440220509fbbbbc7fdba2293fa619f207b5a0129b53f8b67d99356b9b899872cefe9b602205ec0f765e91f6eaa60f0f9ecb61aa7f426a6ac36e78c6603cc6fa111d75f3c5b0121036ab4b075b4efd3e78b6daa6543cc7cfa2390f083aac811b030a1f43041ff4ad5", "asm": "30440220509fbbbbc7fdba2293fa619f207b5a0129b53f8b67d99356b9b899872cefe9b602205ec0f765e91f6eaa60f0f9ecb61aa7f426a6ac36e78c6603cc6fa111d75f3c5b[ALL] 036ab4b075b4efd3e78b6daa6543cc7cfa2390f083aac811b030a1f43041ff4ad5"}, "vout": 0, "txid": "c6e7992a9af03639f53f51cc6489a37bfbd75d4d0e7c03b920fbc261809a8a2a"}, {"sequence": 4294967295, "scriptSig": {"hex": "483045022100b3457fc0a9aaa38673c75d9b584d209de6cea507d628cb1143bb826f67171b0402202a2c9fce1cb874f494dde16dc8759230762befcacab62b302b4d56bfc117da39012102b163b61e5dbd22635289c3083748dfe3cc698cb423aecb7ff580b027d9471391", "asm": "3045022100b3457fc0a9aaa38673c75d9b584d209de6cea507d628cb1143bb826f67171b0402202a2c9fce1cb874f494dde16dc8759230762befcacab62b302b4d56bfc117da39[ALL] 02b163b61e5dbd22635289c3083748dfe3cc698cb423aecb7ff580b027d9471391"}, "vout": 1, "txid": "839d9b70d6de94c00a29ae45cefb77c828e10442675840fffb03a7e3854b104d"}, {"sequence": 4294967295, "scriptSig": {"hex": "4730440220246c5db4a93f28643a2ab19c51bd1dd094b505c0e28bedb477411f87c3f43d3102204b7538f76fa42ae96f15bbaeb8fcc5707ae675adc1839a98ffd5c6fe2ae6671a0121031585a3ed5a6cbe6348f14400bbdc28346d8a2e1e7d3e64c985c041a89ad175ca", "asm": "30440220246c5db4a93f28643a2ab19c51bd1dd094b505c0e28bedb477411f87c3f43d3102204b7538f76fa42ae96f15bbaeb8fcc5707ae675adc1839a98ffd5c6fe2ae6671a[ALL] 031585a3ed5a6cbe6348f14400bbdc28346d8a2e1e7d3e64c985c041a89ad175ca"}, "vout": 8, "txid": "839d9b70d6de94c00a29ae45cefb77c828e10442675840fffb03a7e3854b104d"}, {"sequence": 4294967295, "scriptSig": {"hex": "483045022100d671eda46b170d8f0ca0b724d2babf0ddb5f892eb6f59f9b8e4118e8bd075602022067c1480b91938fdbee48f67f56086e63ae48cd9423279785e5895a6ca4ace9ad0121026e8bd56764a923ed48000894ff0df2f71f6c710f65c4c3026cf0e81f33ecf339", "asm": "3045022100d671eda46b170d8f0ca0b724d2babf0ddb5f892eb6f59f9b8e4118e8bd075602022067c1480b91938fdbee48f67f56086e63ae48cd9423279785e5895a6ca4ace9ad[ALL] 026e8bd56764a923ed48000894ff0df2f71f6c710f65c4c3026cf0e81f33ecf339"}, "vout": 9, "txid": "839d9b70d6de94c00a29ae45cefb77c828e10442675840fffb03a7e3854b104d"}, {"sequence": 4294967295, "scriptSig": {"hex": "483045022100fd015edb10f7622ecdec8d7938e0f1208aacf1eb78196be6ef18b6f6bafc576502207d736d80c54af5e98b75795061c57edb32f0720ce6733a3c8b79d12df04f6fa5012102a8040843181c6e29deeabba545fb84cdd4601b1354cf748aa4d74832428a63c3", "asm": "3045022100fd015edb10f7622ecdec8d7938e0f1208aacf1eb78196be6ef18b6f6bafc576502207d736d80c54af5e98b75795061c57edb32f0720ce6733a3c8b79d12df04f6fa5[ALL] 02a8040843181c6e29deeabba545fb84cdd4601b1354cf748aa4d74832428a63c3"}, "vout": 10, "txid": "839d9b70d6de94c00a29ae45cefb77c828e10442675840fffb03a7e3854b104d"}, {"sequence": 4294967295, "scriptSig": {"hex": "47304402207eb0da3968f7bd8b64097787393aea3b159721a30383e752b1da54efc860ae1f02207ea90aed31e13d3ca6981dc68105cfbbc596114a958aacbc77317e82d3011e64012102d83fa4fd26512b6e759d2e8f8e5d7a9d804c67a9b68ee8a4b02ed3c7b94b3f62", "asm": "304402207eb0da3968f7bd8b64097787393aea3b159721a30383e752b1da54efc860ae1f02207ea90aed31e13d3ca6981dc68105cfbbc596114a958aacbc77317e82d3011e64[ALL] 02d83fa4fd26512b6e759d2e8f8e5d7a9d804c67a9b68ee8a4b02ed3c7b94b3f62"}, "vout": 0, "txid": "2497799b6ffb2965b05530b4aa10a93d6517dc461f23f3d77ff7d50dfc37dd20"}, {"sequence": 4294967295, "scriptSig": {"hex": "4830450221008228936c792e56ff7697555d871ba1d234b89d88dd084faac6739ff5a98a48d8022057f0c5e594a37cc30f839087bae9bebe539cafa260c181f7e8c2e6da99047d3f012103d17cd8bccec82e99fcebbc6bce5b09b03271dd4344a72b0062bb131624c98231", "asm": "30450221008228936c792e56ff7697555d871ba1d234b89d88dd084faac6739ff5a98a48d8022057f0c5e594a37cc30f839087bae9bebe539cafa260c181f7e8c2e6da99047d3f[ALL] 03d17cd8bccec82e99fcebbc6bce5b09b03271dd4344a72b0062bb131624c98231"}, "vout": 0, "txid": "6592b72c19c12cc82d3f3495b188f48fcd01175d119bb5a16c6aa60a080f21b0"}, {"sequence": 4294967295, "scriptSig": {"hex": "483045022100dbb9ed3fe6810f48e99d5ddcdbcd1632d4569d94b1ad2bcc02ff91510905048002201731f3ed5099575c37ee53922af409aac9f7bbde378474e701c0f1870a0f70bf01210346d07cd38ea7e26814b6a39da3022760c79dca82eeef54164614903054f859bc", "asm": "3045022100dbb9ed3fe6810f48e99d5ddcdbcd1632d4569d94b1ad2bcc02ff91510905048002201731f3ed5099575c37ee53922af409aac9f7bbde378474e701c0f1870a0f70bf[ALL] 0346d07cd38ea7e26814b6a39da3022760c79dca82eeef54164614903054f859bc"}, "vout": 54, "txid": "7a595a05839896c1ce1150f33fff3a61c68440128f728b52d9f4b9ac381884cf"}, {"sequence": 4294967295, "scriptSig": {"hex": "473044022049e6a7fe81cf91cbbd4c2fb3b578a4e20d0158f487a512d2c1652f841d608edc02205a35fa3048d9935b80e4ba07aca45f9edba8de237b31ac004eace1870ecb5b4501210281e5b4dccae92867b8331bab66e727edb500f805db3be449c22f46599d179d7b", "asm": "3044022049e6a7fe81cf91cbbd4c2fb3b578a4e20d0158f487a512d2c1652f841d608edc02205a35fa3048d9935b80e4ba07aca45f9edba8de237b31ac004eace1870ecb5b45[ALL] 0281e5b4dccae92867b8331bab66e727edb500f805db3be449c22f46599d179d7b"}, "vout": 0, "txid": "66e5d67a09f04b4b24ac70b7628786c5977a5c676a7ca15ba128db07e4170838"}, {"sequence": 4294967295, "scriptSig": {"hex": "47304402200bedee15e5c1944a8214f11e828a666a3fe3d43197029592ef871d771c3d50c002204b990f5b6ad29516a0b2a61541ae9a1f8a82ae91fdac25d9394bd0b1452e1fa8012102922a40b3bf30defb3ea532b1f1c6dde16c3f4db5a31252bd7757fc52d8fcf400", "asm": "304402200bedee15e5c1944a8214f11e828a666a3fe3d43197029592ef871d771c3d50c002204b990f5b6ad29516a0b2a61541ae9a1f8a82ae91fdac25d9394bd0b1452e1fa8[ALL] 02922a40b3bf30defb3ea532b1f1c6dde16c3f4db5a31252bd7757fc52d8fcf400"}, "vout": 0, "txid": "371d734d33997d85019ca1779501e1645b749ab3157e73671f4e8f7ced2d6429"}, {"sequence": 4294967295, "scriptSig": {"hex": "483045022100a1034719458bb4ea88a220739787fcf0d847fa8b98858304f95789f869e1303102206b9d205fa68247cd72e4ad7b48a3e3d1ed3e5f5772ee06344ae43fcdc7b4089d0121033713e7e585d3afe6dc5a4070cd70b8db01314da7451df283c916945468697ede", "asm": "3045022100a1034719458bb4ea88a220739787fcf0d847fa8b98858304f95789f869e1303102206b9d205fa68247cd72e4ad7b48a3e3d1ed3e5f5772ee06344ae43fcdc7b4089d[ALL] 033713e7e585d3afe6dc5a4070cd70b8db01314da7451df283c916945468697ede"}, "vout": 0, "txid": "a918ceb8c21dd0b249625d0664a8866911a35976aaa26ddbd79e8722e0fffbcc"}, {"sequence": 4294967295, "scriptSig": {"hex": "473044022063f8b45a084178f8c9d49db108d2b201235eef6f28daca3d1bc047c0dee25f1702207db2ec3f3c638a94fd56d9e62929c076ebdc9f0b11bf52157cdecd9ad36d05be01210281b795614bba10950aefa855d371f914dc1e5cdb6794b0b4fd46c27017d48730", "asm": "3044022063f8b45a084178f8c9d49db108d2b201235eef6f28daca3d1bc047c0dee25f1702207db2ec3f3c638a94fd56d9e62929c076ebdc9f0b11bf52157cdecd9ad36d05be[ALL] 0281b795614bba10950aefa855d371f914dc1e5cdb6794b0b4fd46c27017d48730"}, "vout": 38, "txid": "4aaac3a312b70e9774d2fd380263a27586eb044f8ad78bf775c7c91605065023"}, {"sequence": 4294967295, "scriptSig": {"hex": "483045022100d2a84466ac1fb48860d54a63ebe63368eb53f3d051c469ac2a2c059ebbcb579d0220408377b480b07024e8a4f7672c48f05354c002a9e518ea996b262a28690243be012102260aaa4b5f8bb197aee67a3a79b2820ed73ffc041f774e1c5e97cf0619238464", "asm": "3045022100d2a84466ac1fb48860d54a63ebe63368eb53f3d051c469ac2a2c059ebbcb579d0220408377b480b07024e8a4f7672c48f05354c002a9e518ea996b262a28690243be[ALL] 02260aaa4b5f8bb197aee67a3a79b2820ed73ffc041f774e1c5e97cf0619238464"}, "vout": 40, "txid": "4aaac3a312b70e9774d2fd380263a27586eb044f8ad78bf775c7c91605065023"}, {"sequence": 4294967295, "scriptSig": {"hex": "483045022100ec203d11479a7614d5aac48e37ba60e9b12b2012e90909b0cfb9a5b77733aa2602200cd4b0953b14981548f6df080bdd27c1322a7ac5861f83b7357b802d27bcdf5301210218f830db143b3daf4a3cc951c31528b16bbaf876709666b81b169e6a0c4c5211", "asm": "3045022100ec203d11479a7614d5aac48e37ba60e9b12b2012e90909b0cfb9a5b77733aa2602200cd4b0953b14981548f6df080bdd27c1322a7ac5861f83b7357b802d27bcdf53[ALL] 0218f830db143b3daf4a3cc951c31528b16bbaf876709666b81b169e6a0c4c5211"}, "vout": 0, "txid": "51658dbf75d3e14ab624827d8c83115f85f563fd0963c974cf8497fa6c378c3c"}, {"sequence": 4294967295, "scriptSig": {"hex": "473044022005569573841737975ba0382155f53ca5590109c82281cb5d65a78a31ff1ab057022025e5669643bcb22c473a1ff3c133ffe4cbc43bdef9b1d02e9d4b663ccb48ecca012102fb04df36af63d839f29f85ddaf23a1f8e41e83f5b0e12d6369d9058f222669c6", "asm": "3044022005569573841737975ba0382155f53ca5590109c82281cb5d65a78a31ff1ab057022025e5669643bcb22c473a1ff3c133ffe4cbc43bdef9b1d02e9d4b663ccb48ecca[ALL] 02fb04df36af63d839f29f85ddaf23a1f8e41e83f5b0e12d6369d9058f222669c6"}, "vout": 1, "txid": "80c86f083a0a33492de390a311b375824d40e1106e268e0e6220f03748059020"}, {"sequence": 4294967295, "scriptSig": {"hex": "47304402201f739683374bad97933c5a8eab5d48144f2492e7c7836431aca628eb24400bd70220736f2af9a3cda4269916b1031181cb447468c4ec98d6d32b87e6a8798f1b5c24012102260aaa4b5f8bb197aee67a3a79b2820ed73ffc041f774e1c5e97cf0619238464", "asm": "304402201f739683374bad97933c5a8eab5d48144f2492e7c7836431aca628eb24400bd70220736f2af9a3cda4269916b1031181cb447468c4ec98d6d32b87e6a8798f1b5c24[ALL] 02260aaa4b5f8bb197aee67a3a79b2820ed73ffc041f774e1c5e97cf0619238464"}, "vout": 1, "txid": "84ad59953ab65e072220e90d1db11edb63209306db40ad7c9c833f0bab27d547"}, {"sequence": 4294967295, "scriptSig": {"hex": "47304402201d75d4f6ae0ffc00f810fd63b0a690aed8a8952baadf3662a125ecf3cca6742a022032fb96def36c4f14a68930e50d0a4aa8b814e3fae75f3bdcef253ecd7c9b11f30121033547126278c6fd3651db1c63483aa3f6ea10d870ac69d1e9b7eacc97f94fda10", "asm": "304402201d75d4f6ae0ffc00f810fd63b0a690aed8a8952baadf3662a125ecf3cca6742a022032fb96def36c4f14a68930e50d0a4aa8b814e3fae75f3bdcef253ecd7c9b11f3[ALL] 033547126278c6fd3651db1c63483aa3f6ea10d870ac69d1e9b7eacc97f94fda10"}, "vout": 0, "txid": "ad3b40bcf53ebc33432dd5aef6fcb8fe0de0f6d805dab3a5fb376f29ea4909ee"}, {"sequence": 4294967295, "scriptSig": {"hex": "483045022100b3ca0ce2671dd75ff891b5f7ff49d893f4bb6994a5c16f65790282715d0203230220415d3341edd4f3716a6df3967c1fd1c2c7be44caef77bd122a00c59b4d77c371012103163613ed8d42a8c2cff20fa1351d3dc5af0c3cfa2b40b3b6687611ac34515bd8", "asm": "3045022100b3ca0ce2671dd75ff891b5f7ff49d893f4bb6994a5c16f65790282715d0203230220415d3341edd4f3716a6df3967c1fd1c2c7be44caef77bd122a00c59b4d77c371[ALL] 03163613ed8d42a8c2cff20fa1351d3dc5af0c3cfa2b40b3b6687611ac34515bd8"}, "vout": 0, "txid": "b644569a5248cb6dd02c6cf6d11c460d4c6238f1973cb209f22b8ed1afaf0519"}, {"sequence": 4294967295, "scriptSig": {"hex": "47304402205cf1ec9106d9c6a9ca78d76a2971f123ee4453afb10d1d5a26d56c2edd9787570220433e9945c34dc5698dc546bbe34955155ffb3226dc229215fa38474b2283c2a6012103163613ed8d42a8c2cff20fa1351d3dc5af0c3cfa2b40b3b6687611ac34515bd8", "asm": "304402205cf1ec9106d9c6a9ca78d76a2971f123ee4453afb10d1d5a26d56c2edd9787570220433e9945c34dc5698dc546bbe34955155ffb3226dc229215fa38474b2283c2a6[ALL] 03163613ed8d42a8c2cff20fa1351d3dc5af0c3cfa2b40b3b6687611ac34515bd8"}, "vout": 0, "txid": "c94eca6b7d811e4ed4c0ed52b7820bf117959db0873f85edf6985a79ddd90aa7"}, {"sequence": 4294967295, "scriptSig": {"hex": "483045022100c6bac1180ed05b9b73bf1f0f240133c07d1622b6eba0fa6f26f3a6699d66ff360220562ae3d2c588dd2aa84a78297eb76140f8f16ee266ecd86f05c04981a2361f6a012103163613ed8d42a8c2cff20fa1351d3dc5af0c3cfa2b40b3b6687611ac34515bd8", "asm": "3045022100c6bac1180ed05b9b73bf1f0f240133c07d1622b6eba0fa6f26f3a6699d66ff360220562ae3d2c588dd2aa84a78297eb76140f8f16ee266ecd86f05c04981a2361f6a[ALL] 03163613ed8d42a8c2cff20fa1351d3dc5af0c3cfa2b40b3b6687611ac34515bd8"}, "vout": 0, "txid": "be0f02ed8616a8186f6a30ed288a126ad26944e42bd66ec2da5355aee815b04e"}, {"sequence": 4294967295, "scriptSig": {"hex": "47304402201d19a75e57282210551e657124515c0ba75cdacfce027b7c11b09022c56a9efa02206396db37a212c7c2be6884b3933910c443e90a6fab1d0e59301c87a04212985a012103d4546919eba3d74ca146e65335a597799ddb057c37669f7a9143f220d76d0ffc", "asm": "304402201d19a75e57282210551e657124515c0ba75cdacfce027b7c11b09022c56a9efa02206396db37a212c7c2be6884b3933910c443e90a6fab1d0e59301c87a04212985a[ALL] 03d4546919eba3d74ca146e65335a597799ddb057c37669f7a9143f220d76d0ffc"}, "vout": 0, "txid": "045d2ec2b4ba92169a9d803379339321ef0d736bd778ee9a0ad9f91420cd2f0d"}], "txid": "407fcf476bf8f7e6729695d59e912a00c5bf8488cc48f5fe4bbad254be4ade0c", "blocktime": 1537871175, "version": 1, "confirmations": 11511, "time": 1537871175, "locktime": 0, "vsize": 4095, "size": 4095}