{"hash": "408463a219a507e888645dd60f67516bf62f5c48183db540518e09ede7dafb62", "blockhash": "0000000000000000000e13cef7c366c0283d82e591d1acd082e914b08063cdf1", "vout": [{"scriptPubKey": {"reqSigs": 1, "hex": "76a9141aa431de80a498a773cab05429107941457b1c2c88ac", "addresses": ["13RsGSfDKBZDy4dznRns37jr5WsLED2aaN"], "asm": "OP_DUP OP_HASH160 1aa431de80a498a773cab05429107941457b1c2c OP_EQUALVERIFY OP_CHECKSIG", "type": "pubkeyhash"}, "value": 0.00117167, "n": 0}, {"scriptPubKey": {"reqSigs": 1, "hex": "76a914e0ad4503287377410b7e85f18942d6c95b21d52388ac", "addresses": ["1MUyvxBgUZ68hvxrW1ogskeCj4SYc3MsGd"], "asm": "OP_DUP OP_HASH160 e0ad4503287377410b7e85f18942d6c95b21d523 OP_EQUALVERIFY OP_CHECKSIG", "type": "pubkeyhash"}, "value": 0.00478659, "n": 1}], "hex": "010000000134fc81bc0914feea944afd6e39f279e3c034085503a96b475646ff0ca6631595010000006b483045022100df6d20824459b8a785adfce705bb07ab4875818b456b4e8a21d11b6c073037630220794b2b0a427812eb17195743991c280b7e6a12ba790981fe6004f53f666f29d901210363dff8c1835dded3cfd6f4b33acd6250698d23b65864bd170a178518643bb0efffffffff02afc90100000000001976a9141aa431de80a498a773cab05429107941457b1c2c88acc34d0700000000001976a914e0ad4503287377410b7e85f18942d6c95b21d52388ac00000000", "vin": [{"sequence": 4294967295, "scriptSig": {"hex": "483045022100df6d20824459b8a785adfce705bb07ab4875818b456b4e8a21d11b6c073037630220794b2b0a427812eb17195743991c280b7e6a12ba790981fe6004f53f666f29d901210363dff8c1835dded3cfd6f4b33acd6250698d23b65864bd170a178518643bb0ef", "asm": "3045022100df6d20824459b8a785adfce705bb07ab4875818b456b4e8a21d11b6c073037630220794b2b0a427812eb17195743991c280b7e6a12ba790981fe6004f53f666f29d9[ALL] 0363dff8c1835dded3cfd6f4b33acd6250698d23b65864bd170a178518643bb0ef"}, "vout": 1, "txid": "951563a60cff4656476ba903550834c0e379f2396efd4a94eafe1409bc81fc34"}], "txid": "408463a219a507e888645dd60f67516bf62f5c48183db540518e09ede7dafb62", "blocktime": 1537871767, "version": 1, "confirmations": 11495, "time": 1537871767, "locktime": 0, "vsize": 226, "size": 226}