{"hash": "b3100cba8b16b7d30ae1afae5510f4813ce5538cdf5e89d38a99084b83cc407f", "blockhash": "000000000000000000022b45ed06c6f4ccd3cf7fb5ba4856ebd2e58215665228", "vout": [{"scriptPubKey": {"reqSigs": 1, "hex": "a914578ad85fc4f0f4e5e9134349b35abd61fe2e23f087", "addresses": ["39fu3NGDWFah9LifjXAiHNRn4ZGyUrLsdj"], "asm": "OP_HASH160 578ad85fc4f0f4e5e9134349b35abd61fe2e23f0 OP_EQUAL", "type": "scripthash"}, "value": 0.69598472, "n": 0}, {"scriptPubKey": {"reqSigs": 1, "hex": "0014b22ce6f943dc4c0c94173adccc9afe3b1d3370d7", "addresses": ["bc1qkgkwd72rm3xqe9qh8twvexh78vwnxuxhexljv8"], "asm": "0 b22ce6f943dc4c0c94173adccc9afe3b1d3370d7", "type": "witness_v0_keyhash"}, "value": 0.00400948, "n": 1}], "hex": "01000000000101718d0ad0f95e1921a36e096f66eb9db1ee130df3a4aa50cd84d168e56c44a5d40100000017160014c672f698acdbb38c5493fdd3d3a22cdfb185addaffffffff0208fd25040000000017a914578ad85fc4f0f4e5e9134349b35abd61fe2e23f087341e060000000000160014b22ce6f943dc4c0c94173adccc9afe3b1d3370d702483045022100958dc86af2d55c720bf6492946d8e334fcf9a44e71282caed1c4fe7d705a5ff8022001f6eca98ba256504d960611874a080e73a25a69c89d0a35812d3e2360b823780121035d671ce1c73f3bdcc5e875c67a850f7943109cbdc1edd7f8fdd136856722510d00000000", "vin": [{"txinwitness": ["3045022100958dc86af2d55c720bf6492946d8e334fcf9a44e71282caed1c4fe7d705a5ff8022001f6eca98ba256504d960611874a080e73a25a69c89d0a35812d3e2360b8237801", "035d671ce1c73f3bdcc5e875c67a850f7943109cbdc1edd7f8fdd136856722510d"], "sequence": 4294967295, "scriptSig": {"hex": "160014c672f698acdbb38c5493fdd3d3a22cdfb185adda", "asm": "0014c672f698acdbb38c5493fdd3d3a22cdfb185adda"}, "vout": 1, "txid": "d4a5446ce568d184cd50aaa4f30d13eeb19deb666f096ea321195ef9d00a8d71"}], "txid": "4087e0367f81639d83505fbd2b1b8249653b83e8449de7c8f04ec83c026395b2", "blocktime": 1537869901, "version": 1, "confirmations": 11523, "time": 1537869901, "locktime": 0, "vsize": 165, "size": 247}