{"hash": "408a4c3c4ddc44322c2cf58b38cd21671cf5ca87f6effc32ec07333e93b00952", "blockhash": "00000000000000000017f5eb5941039fbcee6240d03bc1f2f8e35350df66a1d8", "vout": [{"scriptPubKey": {"reqSigs": 1, "hex": "76a91457c81ece2ccf8ae263e22471441d3d1a81ad040888ac", "addresses": ["1919XJ3HBJXURdiHGS26f9h3YZwg3wULzM"], "asm": "OP_DUP OP_HASH160 57c81ece2ccf8ae263e22471441d3d1a81ad0408 OP_EQUALVERIFY OP_CHECKSIG", "type": "pubkeyhash"}, "value": 0.0326129, "n": 0}, {"scriptPubKey": {"reqSigs": 1, "hex": "76a914cb787f4b86a053b440525db56c9b6cb2530c400788ac", "addresses": ["1KYrXEkKi4kw9Bk411RsPLPkVeMxtvpAMj"], "asm": "OP_DUP OP_HASH160 cb787f4b86a053b440525db56c9b6cb2530c4007 OP_EQUALVERIFY OP_CHECKSIG", "type": "pubkeyhash"}, "value": 0.00692238, "n": 1}], "hex": "01000000012e0e0e8588279c07337b4467c3b4fef9e8686c2b70571fd26de8d0df1ff57211000000006a473044022070582f86af585648329ee2c318e9dabb13ab6b12ae7306321eddd5800a1f2233022054ababab6ebe84d80ed887628e107623df40b4d6f478bb9953ae6d65a288ca0d01210261f3a7f6200040d074de45dc7453c4475c157fcf587b1bb6a584e57c079b7b5bffffffff026ac33100000000001976a91457c81ece2ccf8ae263e22471441d3d1a81ad040888ac0e900a00000000001976a914cb787f4b86a053b440525db56c9b6cb2530c400788ac00000000", "vin": [{"sequence": 4294967295, "scriptSig": {"hex": "473044022070582f86af585648329ee2c318e9dabb13ab6b12ae7306321eddd5800a1f2233022054ababab6ebe84d80ed887628e107623df40b4d6f478bb9953ae6d65a288ca0d01210261f3a7f6200040d074de45dc7453c4475c157fcf587b1bb6a584e57c079b7b5b", "asm": "3044022070582f86af585648329ee2c318e9dabb13ab6b12ae7306321eddd5800a1f2233022054ababab6ebe84d80ed887628e107623df40b4d6f478bb9953ae6d65a288ca0d[ALL] 0261f3a7f6200040d074de45dc7453c4475c157fcf587b1bb6a584e57c079b7b5b"}, "vout": 0, "txid": "1172f51fdfd0e86dd21f57702b6c68e8f9feb4c367447b33079c2788850e0e2e"}], "txid": "408a4c3c4ddc44322c2cf58b38cd21671cf5ca87f6effc32ec07333e93b00952", "blocktime": 1537874412, "version": 1, "confirmations": 11467, "time": 1537874412, "locktime": 0, "vsize": 225, "size": 225}