{"hash": "40951b4df6ac8d46d7b8e7fcdd7f96c30c468d2bdbff14489414a1622448f124", "blockhash": "0000000000000000000e13cef7c366c0283d82e591d1acd082e914b08063cdf1", "vout": [{"scriptPubKey": {"reqSigs": 1, "hex": "76a914f48d69f8b51ce3f5c11219315fc46da2c4a0e4e088ac", "addresses": ["1PJ5HRNadxVV8wxpEU5NRTf8dtSqVM3cy6"], "asm": "OP_DUP OP_HASH160 f48d69f8b51ce3f5c11219315fc46da2c4a0e4e0 OP_EQUALVERIFY OP_CHECKSIG", "type": "pubkeyhash"}, "value": 0.001882, "n": 0}, {"scriptPubKey": {"reqSigs": 1, "hex": "76a914f19d3f4f41d3e9900989d7d99bc26643a8dddffb88ac", "addresses": ["1P2YDxzFCcJ9udELmdgUoR8XLaRYFGAqZ7"], "asm": "OP_DUP OP_HASH160 f19d3f4f41d3e9900989d7d99bc26643a8dddffb OP_EQUALVERIFY OP_CHECKSIG", "type": "pubkeyhash"}, "value": 0.00106722, "n": 1}], "hex": "0100000001cd2efc6b3a6750dd0c78e2a87fef6ad55ce73121ab19ecc874a5b7f0e9e920ad000000006b4830450221008f059e273e728b92e2021cde23c167a5398c5a0d5dfc7428093b9da5611b1da6022024f33fb65df117c34698aa6254ac9d71f19fbd9402d319ec8a20cad6771c8280012102a752f787a0716b927ed55ba904a11d5f770444b86f298d76c3f05e77115acaa4ffffffff0228df0200000000001976a914f48d69f8b51ce3f5c11219315fc46da2c4a0e4e088ace2a00100000000001976a914f19d3f4f41d3e9900989d7d99bc26643a8dddffb88ac00000000", "vin": [{"sequence": 4294967295, "scriptSig": {"hex": "4830450221008f059e273e728b92e2021cde23c167a5398c5a0d5dfc7428093b9da5611b1da6022024f33fb65df117c34698aa6254ac9d71f19fbd9402d319ec8a20cad6771c8280012102a752f787a0716b927ed55ba904a11d5f770444b86f298d76c3f05e77115acaa4", "asm": "30450221008f059e273e728b92e2021cde23c167a5398c5a0d5dfc7428093b9da5611b1da6022024f33fb65df117c34698aa6254ac9d71f19fbd9402d319ec8a20cad6771c8280[ALL] 02a752f787a0716b927ed55ba904a11d5f770444b86f298d76c3f05e77115acaa4"}, "vout": 0, "txid": "ad20e9e9f0b7a574c8ec19ab2131e75cd56aef7fa8e2780cdd50673a6bfc2ecd"}], "txid": "40951b4df6ac8d46d7b8e7fcdd7f96c30c468d2bdbff14489414a1622448f124", "blocktime": 1537871767, "version": 1, "confirmations": 11490, "time": 1537871767, "locktime": 0, "vsize": 226, "size": 226}