{"hash": "4095bf503644d567b19e957f8bbe833abe2b5d97e8ac492c0b9ebe28b1e29c14", "blockhash": "0000000000000000001cda96e906b7601b7a6fb1a3b62bca570a9e5d8f4b3de1", "vout": [{"scriptPubKey": {"reqSigs": 1, "hex": "76a91432be74f76ae9504bebfa34ff0bad2941ff55c9f888ac", "addresses": ["15dJwmbjhWGQUMBkCAZToH61EVNUyDe4pG"], "asm": "OP_DUP OP_HASH160 32be74f76ae9504bebfa34ff0bad2941ff55c9f8 OP_EQUALVERIFY OP_CHECKSIG", "type": "pubkeyhash"}, "value": 0.00779641, "n": 0}], "hex": "010000000148b7a690043c5fae821000f14b7a72b2991b27a3c011ea6728aef4db9e7123ea000000006a4730440220610e7fab690a029f27418f64985b60986298edb00461af9ec94ec4d0ff0f077e02203226f5e2b59fc14f6de43f9769cfb9af1c1df1f1e143bebe3ddcad6e38f5f4a40121037ba855f43d03f92be7f34b58636e53f3abf6e720feb5f9df1713b4d5c57c4088ffffffff0179e50b00000000001976a91432be74f76ae9504bebfa34ff0bad2941ff55c9f888ac00000000", "vin": [{"sequence": 4294967295, "scriptSig": {"hex": "4730440220610e7fab690a029f27418f64985b60986298edb00461af9ec94ec4d0ff0f077e02203226f5e2b59fc14f6de43f9769cfb9af1c1df1f1e143bebe3ddcad6e38f5f4a40121037ba855f43d03f92be7f34b58636e53f3abf6e720feb5f9df1713b4d5c57c4088", "asm": "30440220610e7fab690a029f27418f64985b60986298edb00461af9ec94ec4d0ff0f077e02203226f5e2b59fc14f6de43f9769cfb9af1c1df1f1e143bebe3ddcad6e38f5f4a4[ALL] 037ba855f43d03f92be7f34b58636e53f3abf6e720feb5f9df1713b4d5c57c4088"}, "vout": 0, "txid": "ea23719edbf4ae2867ea11c0a3271b99b2727a4bf1001082ae5f3c0490a6b748"}], "txid": "4095bf503644d567b19e957f8bbe833abe2b5d97e8ac492c0b9ebe28b1e29c14", "blocktime": 1537873282, "version": 1, "confirmations": 11482, "time": 1537873282, "locktime": 0, "vsize": 191, "size": 191}