{"hash": "40964c8ebc6bdb4b193662c2d66d842bf3e20c15a8bf932fd93051c7b0eccc4c", "blockhash": "0000000000000000000baef3f32e3676a92c3b2e5da21b426e4f302fc371ce76", "vout": [{"scriptPubKey": {"reqSigs": 1, "hex": "a9140ccdeb6379e454088b803875a79924a12e61f72587", "addresses": ["32riiP8ukcR7H3H4bRsvidNSoZThrBWnSJ"], "asm": "OP_HASH160 0ccdeb6379e454088b803875a79924a12e61f725 OP_EQUAL", "type": "scripthash"}, "value": 0.004537, "n": 0}, {"scriptPubKey": {"reqSigs": 1, "hex": "76a914325c860f5f8917d57d04921d25900ccd8904233a88ac", "addresses": ["15bHdFSVqwaye54JsktRRjPbpQQTPWKb4t"], "asm": "OP_DUP OP_HASH160 325c860f5f8917d57d04921d25900ccd8904233a OP_EQUALVERIFY OP_CHECKSIG", "type": "pubkeyhash"}, "value": 0.58607619, "n": 1}], "hex": "010000000178283a5f0c94b09d2db2dfc76aadae0b6e4046ff025f983ff7c79e335049466c010000006a473044022065c912487c023364704ea65f6d8829c169e7a593b272d20c9094f503181d825702201ee5bce295f810aadb3061973b8d6fd5e13f3c6dfbc887f6090cd289b1771b6e012102a752a23464af3e532ea135cd15b0bf7a977941cc52559a8f12ec6a425442f2f9ffffffff0244ec06000000000017a9140ccdeb6379e454088b803875a79924a12e61f7258703487e03000000001976a914325c860f5f8917d57d04921d25900ccd8904233a88ac00000000", "vin": [{"sequence": 4294967295, "scriptSig": {"hex": "473044022065c912487c023364704ea65f6d8829c169e7a593b272d20c9094f503181d825702201ee5bce295f810aadb3061973b8d6fd5e13f3c6dfbc887f6090cd289b1771b6e012102a752a23464af3e532ea135cd15b0bf7a977941cc52559a8f12ec6a425442f2f9", "asm": "3044022065c912487c023364704ea65f6d8829c169e7a593b272d20c9094f503181d825702201ee5bce295f810aadb3061973b8d6fd5e13f3c6dfbc887f6090cd289b1771b6e[ALL] 02a752a23464af3e532ea135cd15b0bf7a977941cc52559a8f12ec6a425442f2f9"}, "vout": 1, "txid": "6c464950339ec7f73f985f02ff46406e0baead6ac7dfb22d9db0940c5f3a2878"}], "txid": "40964c8ebc6bdb4b193662c2d66d842bf3e20c15a8bf932fd93051c7b0eccc4c", "blocktime": 1537876114, "version": 1, "confirmations": 11460, "time": 1537876114, "locktime": 0, "vsize": 223, "size": 223}