{"hash": "5cb27e8df6eb4d346b3328da11e8b079fe1eed9e143e44efdbd1c2b2b1f84df7", "blockhash": "00000000000000000018f53835495a110e01622372bf6ae95dc86f2b0ab887b0", "vout": [{"scriptPubKey": {"reqSigs": 1, "hex": "a9144d0fb72ae36090376c1eda19f53cf4257ea0a2af87", "addresses": ["38iUnFFzQyPWod82btGzvzsufGkLgiJ8h5"], "asm": "OP_HASH160 4d0fb72ae36090376c1eda19f53cf4257ea0a2af OP_EQUAL", "type": "scripthash"}, "value": 0.26966946, "n": 0}, {"scriptPubKey": {"reqSigs": 1, "hex": "a9141c9dff146c588039dc45f4b05b945f1f7fbca0ad87", "addresses": ["34JL7hRLHoPJiu8NVR8vcC6gdYzN8akMUx"], "asm": "OP_HASH160 1c9dff146c588039dc45f4b05b945f1f7fbca0ad OP_EQUAL", "type": "scripthash"}, "value": 1.69831888, "n": 1}], "hex": "020000000001011e608496132f2dec81b6c2a9056f65f8e43d173afa90c58fcaee7a4bafa012940100000017160014cba38a75cd2feaa8ae8efaf22b44286d37ba8c53feffffff02a27b9b010000000017a9144d0fb72ae36090376c1eda19f53cf4257ea0a2af87d06d1f0a0000000017a9141c9dff146c588039dc45f4b05b945f1f7fbca0ad87024730440220425917823a81c05a063138ee82ddc11e43785c71899805b7fad86dd7c4cc549702207530f4b2b85aa48b5ecabd70f1e00c09e0b9a56cc14352edc7178d591604e20f012103f6aa9bedf9c285f0f567e4e4a5ddde394361f9ade3fb524fbb4cd546c3d2ac750e490800", "vin": [{"txinwitness": ["30440220425917823a81c05a063138ee82ddc11e43785c71899805b7fad86dd7c4cc549702207530f4b2b85aa48b5ecabd70f1e00c09e0b9a56cc14352edc7178d591604e20f01", "03f6aa9bedf9c285f0f567e4e4a5ddde394361f9ade3fb524fbb4cd546c3d2ac75"], "sequence": 4294967294, "scriptSig": {"hex": "160014cba38a75cd2feaa8ae8efaf22b44286d37ba8c53", "asm": "0014cba38a75cd2feaa8ae8efaf22b44286d37ba8c53"}, "vout": 1, "txid": "9412a0af4b7aeeca8fc590fa3a173de4f8656f05a9c2b681ec2d2f139684601e"}], "txid": "4097c6c9625fa36926b96cb1199156ff9bf7e904ff819aff4d79a4d9d22819b0", "blocktime": 1537870928, "version": 2, "confirmations": 11514, "time": 1537870928, "locktime": 542990, "vsize": 166, "size": 247}