{"hash": "4a153223e699648ff5b16c289acd00200517374b04da8b680d98d1a1933b2cd9", "blockhash": "000000000000000000022b45ed06c6f4ccd3cf7fb5ba4856ebd2e58215665228", "vout": [{"scriptPubKey": {"reqSigs": 1, "hex": "76a91425b4ab5ac0dd985b6aca7181129395f1439a76de88ac", "addresses": ["14SNSE29p13UD32X64D4coT7hva5cisg4h"], "asm": "OP_DUP OP_HASH160 25b4ab5ac0dd985b6aca7181129395f1439a76de OP_EQUALVERIFY OP_CHECKSIG", "type": "pubkeyhash"}, "value": 0.0018266, "n": 0}, {"scriptPubKey": {"reqSigs": 1, "hex": "a9149df7ddde99a5e1b0b15d15f61fde7d455cfcb14a87", "addresses": ["3G6Gwjs3VzsDHKnckMWzgQvfgfZFRqfSGU"], "asm": "OP_HASH160 9df7ddde99a5e1b0b15d15f61fde7d455cfcb14a OP_EQUAL", "type": "scripthash"}, "value": 0.01126801, "n": 1}], "hex": "020000000001022cae9cb5938b2d9dab35c6ab13c7e30c6bdc6caaa966f9f1d70f0bb262c4a8960a000000171600149f49ef7066c0dea4edf88f30d864c1ac2dba58f3feffffff40907645d7f7d16018ed64088824c51b31dad98bc297b21f109831e5c51d748201000000171600147ea1c69d4f6f2b28084fe0182e8f716f8d5132f0feffffff0284c90200000000001976a91425b4ab5ac0dd985b6aca7181129395f1439a76de88ac913111000000000017a9149df7ddde99a5e1b0b15d15f61fde7d455cfcb14a870247304402200d8d4fe021ff9bf377607794af7c0abb5873ef0f90c25e35dea5c24f0bceb0920220064f9511023aeaadfd5dabb2d7c9f93c17fb0f8120f2806c2fd61b76b9ee2fd90121020a20094f9b0547def1e2182c0fa6230c3eb1a17129c8ad479e2c4cfd6f2a943602473044022001e16b4360db9241f1856523b92d8bed44cd0bb6727990d9b148a06fc17e75c302201b212fc5229c03f04dddd2ec7cd9e7259f7bf812e50a2500215fd3d9a982ef800121030c29a98f4256a10a52b08b94bbd11a125b6424ca400e09ec0a09f67bfecd889b0b490800", "vin": [{"txinwitness": ["304402200d8d4fe021ff9bf377607794af7c0abb5873ef0f90c25e35dea5c24f0bceb0920220064f9511023aeaadfd5dabb2d7c9f93c17fb0f8120f2806c2fd61b76b9ee2fd901", "020a20094f9b0547def1e2182c0fa6230c3eb1a17129c8ad479e2c4cfd6f2a9436"], "sequence": 4294967294, "scriptSig": {"hex": "1600149f49ef7066c0dea4edf88f30d864c1ac2dba58f3", "asm": "00149f49ef7066c0dea4edf88f30d864c1ac2dba58f3"}, "vout": 10, "txid": "96a8c462b20b0fd7f1f966a9aa6cdc6b0ce3c713abc635ab9d2d8b93b59cae2c"}, {"txinwitness": ["3044022001e16b4360db9241f1856523b92d8bed44cd0bb6727990d9b148a06fc17e75c302201b212fc5229c03f04dddd2ec7cd9e7259f7bf812e50a2500215fd3d9a982ef8001", "030c29a98f4256a10a52b08b94bbd11a125b6424ca400e09ec0a09f67bfecd889b"], "sequence": 4294967294, "scriptSig": {"hex": "1600147ea1c69d4f6f2b28084fe0182e8f716f8d5132f0", "asm": "00147ea1c69d4f6f2b28084fe0182e8f716f8d5132f0"}, "vout": 1, "txid": "82741dc5e53198101fb297c28bd9da311bc524880864ed1860d1f7d745769040"}], "txid": "40992c77d7a74d5a5203bc8766c0769ff84fc3b8645ba5bc57c0545f7832394b", "blocktime": 1537869901, "version": 2, "confirmations": 11524, "time": 1537869901, "locktime": 542987, "vsize": 258, "size": 420}