{"hash": "a3cf7bda604a61150ab11bf8f2eb96995f21802ce70b0d45bc332d098b0a5dda", "blockhash": "0000000000000000001cda96e906b7601b7a6fb1a3b62bca570a9e5d8f4b3de1", "vout": [{"scriptPubKey": {"reqSigs": 1, "hex": "76a91483ecdcf0ec453dd071b168414aea2ffbbcf76ce988ac", "addresses": ["1D2ZGfTg7FmjQ3VQzYjbUrQDisKFszHRZo"], "asm": "OP_DUP OP_HASH160 83ecdcf0ec453dd071b168414aea2ffbbcf76ce9 OP_EQUALVERIFY OP_CHECKSIG", "type": "pubkeyhash"}, "value": 0.3, "n": 0}], "hex": "01000000000104a522c849d450ab539920f7a0a2c0d5e93a3778e81907833599458bb3dad6f1700100000017160014b4290f1abafa3f72c4e9d2266851e1c327c4ffaffdffffff0ab3dd54eb36580bb6360ed20c1365039b7b6a1d7b2338c470955e562833db880100000017160014e20a67ad2710f6f30c505db027ce37770109fb9cfdffffffba89a5c7b55c58a35d1bf06cb5fc0ad4b17d17aaf2ce6568145ac5f744b7d3030100000017160014dd92f53c1835a71c9acde593af11d3363870de13fdffffffaf144d5505b1a4dbf3f3267bba54ad11fb9553646cb09ad9f9aef7b3703d567e0000000017160014100c50ab9685ad4030aaa24f4920fe490a926f6dfdffffff0180c3c901000000001976a91483ecdcf0ec453dd071b168414aea2ffbbcf76ce988ac02483045022100aa4fc09b0f1087136885885d5bd48d805dff11d673158dd91a74d6d614f9c31902204231e07731595057e26b77f421cf59c042370983ae42380bb722b6f434f1e44c0121033d561ba43bc4c823c0fb5a3ac251b57d448dd1460d930640cf18822ec737dd4b02483045022100d8e49c7222e1f218c8d369d602aff38e944b774a41bb80e90203da6669536d97022076adc0fa8b3f29b12dead70b71ccf807cfce014540f742e7ba3ef64129b85a03012102ebbfb756e10d06bf7bb2e1a1eb7518671633ececeaa0145f2f0fbda92969d2f502473044022035a65e8da8b1e705e11eee9a493cab1d6bde57a468dd73d737807bf8f752feba022058cdd04f5ef6488266a3accd1b2e7d5203095e6c8a062d997337c6365c9310640121030f6b2dffb756368a5e20260b09281b23b4ab9282c92dfeb5ed8c8507357d590c02483045022100961e98659e250623c3ef3fda5237c0a33b6dad680094553631eada33207766230220271729a032fb91cf7be9dac456222cc484295aae13ddcb2d02116e9eec360f6a0121038b0de420f1c8c7a2f1ff4096a525109d975704eaa648893cb47f596779a7bc4113490800", "vin": [{"txinwitness": ["3045022100aa4fc09b0f1087136885885d5bd48d805dff11d673158dd91a74d6d614f9c31902204231e07731595057e26b77f421cf59c042370983ae42380bb722b6f434f1e44c01", "033d561ba43bc4c823c0fb5a3ac251b57d448dd1460d930640cf18822ec737dd4b"], "sequence": 4294967293, "scriptSig": {"hex": "160014b4290f1abafa3f72c4e9d2266851e1c327c4ffaf", "asm": "0014b4290f1abafa3f72c4e9d2266851e1c327c4ffaf"}, "vout": 1, "txid": "70f1d6dab38b459935830719e878373ae9d5c0a2a0f7209953ab50d449c822a5"}, {"txinwitness": ["3045022100d8e49c7222e1f218c8d369d602aff38e944b774a41bb80e90203da6669536d97022076adc0fa8b3f29b12dead70b71ccf807cfce014540f742e7ba3ef64129b85a0301", "02ebbfb756e10d06bf7bb2e1a1eb7518671633ececeaa0145f2f0fbda92969d2f5"], "sequence": 4294967293, "scriptSig": {"hex": "160014e20a67ad2710f6f30c505db027ce37770109fb9c", "asm": "0014e20a67ad2710f6f30c505db027ce37770109fb9c"}, "vout": 1, "txid": "88db3328565e9570c438237b1d6a7b9b0365130cd20e36b60b5836eb54ddb30a"}, {"txinwitness": ["3044022035a65e8da8b1e705e11eee9a493cab1d6bde57a468dd73d737807bf8f752feba022058cdd04f5ef6488266a3accd1b2e7d5203095e6c8a062d997337c6365c93106401", "030f6b2dffb756368a5e20260b09281b23b4ab9282c92dfeb5ed8c8507357d590c"], "sequence": 4294967293, "scriptSig": {"hex": "160014dd92f53c1835a71c9acde593af11d3363870de13", "asm": "0014dd92f53c1835a71c9acde593af11d3363870de13"}, "vout": 1, "txid": "03d3b744f7c55a146865cef2aa177db1d40afcb56cf01b5da3585cb5c7a589ba"}, {"txinwitness": ["3045022100961e98659e250623c3ef3fda5237c0a33b6dad680094553631eada33207766230220271729a032fb91cf7be9dac456222cc484295aae13ddcb2d02116e9eec360f6a01", "038b0de420f1c8c7a2f1ff4096a525109d975704eaa648893cb47f596779a7bc41"], "sequence": 4294967293, "scriptSig": {"hex": "160014100c50ab9685ad4030aaa24f4920fe490a926f6d", "asm": "0014100c50ab9685ad4030aaa24f4920fe490a926f6d"}, "vout": 0, "txid": "7e563d70b3f7aef9d99ab06c645395fb11ad54ba7b26f3f3dba4b105554d14af"}], "txid": "409b5eb51607ae1cbad91add30757f1270ab20a072ec495184ce5c3c0dae01a3", "blocktime": 1537873282, "version": 1, "confirmations": 11485, "time": 1537873282, "locktime": 542995, "vsize": 409, "size": 733}