{"hash": "40a27f54f026db93dc3d7b1c6638b23172ea244eb6960383c7847ac9032a6bb6", "blockhash": "0000000000000000000e13cef7c366c0283d82e591d1acd082e914b08063cdf1", "vout": [{"scriptPubKey": {"reqSigs": 1, "hex": "76a9146ab2815026f52dc72f5fe7cab04ac69b7dfe427e88ac", "addresses": ["1AjAU66VusX2kanPfvUdePdR7wem6gVhYF"], "asm": "OP_DUP OP_HASH160 6ab2815026f52dc72f5fe7cab04ac69b7dfe427e OP_EQUALVERIFY OP_CHECKSIG", "type": "pubkeyhash"}, "value": 0.01, "n": 0}, {"scriptPubKey": {"reqSigs": 1, "hex": "76a914b410be3bfc84650cffe500d340a3401851c7915e88ac", "addresses": ["1HR6grvEvjUNstQqcTmcbDvhF1BUtudqTU"], "asm": "OP_DUP OP_HASH160 b410be3bfc84650cffe500d340a3401851c7915e OP_EQUALVERIFY OP_CHECKSIG", "type": "pubkeyhash"}, "value": 0.01023589, "n": 1}], "hex": "0100000001fb243538de41c147eab6a15ea58ab7c3146c92418603a971c2024ff20c2d501a010000006b483045022100b35af966c42aee7618a9eb3ff2c3ca8d978836e3dafff070d9c63245fbb2ffc2022055fd5ab3c7bfa568475f57a900166f03b4d51fd05c5140e2c20e5da1f554d19d012102d1e31953dd8e01a271d7f6986df1232a827b7621261160097dcd6c9330328b3fffffffff0240420f00000000001976a9146ab2815026f52dc72f5fe7cab04ac69b7dfe427e88ac659e0f00000000001976a914b410be3bfc84650cffe500d340a3401851c7915e88ac00000000", "vin": [{"sequence": 4294967295, "scriptSig": {"hex": "483045022100b35af966c42aee7618a9eb3ff2c3ca8d978836e3dafff070d9c63245fbb2ffc2022055fd5ab3c7bfa568475f57a900166f03b4d51fd05c5140e2c20e5da1f554d19d012102d1e31953dd8e01a271d7f6986df1232a827b7621261160097dcd6c9330328b3f", "asm": "3045022100b35af966c42aee7618a9eb3ff2c3ca8d978836e3dafff070d9c63245fbb2ffc2022055fd5ab3c7bfa568475f57a900166f03b4d51fd05c5140e2c20e5da1f554d19d[ALL] 02d1e31953dd8e01a271d7f6986df1232a827b7621261160097dcd6c9330328b3f"}, "vout": 1, "txid": "1a502d0cf24f02c271a9038641926c14c3b78aa55ea1b6ea47c141de383524fb"}], "txid": "40a27f54f026db93dc3d7b1c6638b23172ea244eb6960383c7847ac9032a6bb6", "blocktime": 1537871767, "version": 1, "confirmations": 11490, "time": 1537871767, "locktime": 0, "vsize": 226, "size": 226}