{"hash": "7dc7223928a0ef15b6f344d15743469d205c3d603cd07a11f8b286e3e7ca1109", "blockhash": "0000000000000000001f76057863aec43deb6fa401d9628bb513d65a8098bfab", "vout": [{"scriptPubKey": {"reqSigs": 1, "hex": "76a914db9282fa89677d407a591d270766e7677f1805b388ac", "addresses": ["1M1zVpRvM6EwERwubajdvaL89DuYQAAdPM"], "asm": "OP_DUP OP_HASH160 db9282fa89677d407a591d270766e7677f1805b3 OP_EQUALVERIFY OP_CHECKSIG", "type": "pubkeyhash"}, "value": 0.01171048, "n": 0}, {"scriptPubKey": {"reqSigs": 1, "hex": "76a91423775498a7867878fdcf32488288e01b2f139c3388ac", "addresses": ["14EXbwV6TSLP8EgpSycs5aETYfi9vaeWpV"], "asm": "OP_DUP OP_HASH160 23775498a7867878fdcf32488288e01b2f139c33 OP_EQUALVERIFY OP_CHECKSIG", "type": "pubkeyhash"}, "value": 0.01014879, "n": 1}], "hex": "02000000000103896e7c08e115c15356effb0318c41659ae600982811110349d310f2703ca50c8000000006b483045022100e23722402c0db9464a9042109e1cbeb4db251101897074a4484634dbac81c89802207fb97fc3f37ce0da211eb4b234df1f960d7514d6902ba656c680c5acb57f70010121025a6003c64100f2fc1a8363d3d8d6df57a4876e60c8d3d5a4e88fc55a9ed2b7b3feffffffac4a8b46c366c29b71401b8c832326a2406fcd72bf0a4a33bfc729444a62615a000000001716001457fd46c1a404da406ab9d61442046f08b67b9c4ffeffffffd215e5f0582b88f6598cac6e410242932d444ffb51c8a5243571669a558e363400000000171600143e304e2e6f545520ba1fb2ef4ba39da1c89a166efeffffff0268de1100000000001976a914db9282fa89677d407a591d270766e7677f1805b388ac5f7c0f00000000001976a91423775498a7867878fdcf32488288e01b2f139c3388ac0002473044022052543dfbf242c157a81adf21aa0858c8efb4ba5a6d287ae7fcf3c9b6cfc3053c022036f22456b9e5c7d4f9823c098208784189c8730cc6cba45434ce67ab1aed1c5a012103497043b67b3571b91ee6bc640e6866fc6768c72e9f66f93c94cff1b317f4623e0247304402201ff4c466d1d8c5156abca12e5981094b312b5fdebf1cfbb17dbeb0009867797a0220172a00e3ab1eddf4fd7199e7bb8cafd12b47a5284b77a86c236a2b583ee4915e0121036d2cd8ee3255783f298e80ead0d806cd94eeeb0dd74d0ed4ce734224ef991eb114490800", "vin": [{"sequence": 4294967294, "scriptSig": {"hex": "483045022100e23722402c0db9464a9042109e1cbeb4db251101897074a4484634dbac81c89802207fb97fc3f37ce0da211eb4b234df1f960d7514d6902ba656c680c5acb57f70010121025a6003c64100f2fc1a8363d3d8d6df57a4876e60c8d3d5a4e88fc55a9ed2b7b3", "asm": "3045022100e23722402c0db9464a9042109e1cbeb4db251101897074a4484634dbac81c89802207fb97fc3f37ce0da211eb4b234df1f960d7514d6902ba656c680c5acb57f7001[ALL] 025a6003c64100f2fc1a8363d3d8d6df57a4876e60c8d3d5a4e88fc55a9ed2b7b3"}, "vout": 0, "txid": "c850ca03270f319d34101181820960ae5916c41803fbef5653c115e1087c6e89"}, {"txinwitness": ["3044022052543dfbf242c157a81adf21aa0858c8efb4ba5a6d287ae7fcf3c9b6cfc3053c022036f22456b9e5c7d4f9823c098208784189c8730cc6cba45434ce67ab1aed1c5a01", "03497043b67b3571b91ee6bc640e6866fc6768c72e9f66f93c94cff1b317f4623e"], "sequence": 4294967294, "scriptSig": {"hex": "16001457fd46c1a404da406ab9d61442046f08b67b9c4f", "asm": "001457fd46c1a404da406ab9d61442046f08b67b9c4f"}, "vout": 0, "txid": "5a61624a4429c7bf334a0abf72cd6f40a22623838c1b40719bc266c3468b4aac"}, {"txinwitness": ["304402201ff4c466d1d8c5156abca12e5981094b312b5fdebf1cfbb17dbeb0009867797a0220172a00e3ab1eddf4fd7199e7bb8cafd12b47a5284b77a86c236a2b583ee4915e01", "036d2cd8ee3255783f298e80ead0d806cd94eeeb0dd74d0ed4ce734224ef991eb1"], "sequence": 4294967294, "scriptSig": {"hex": "1600143e304e2e6f545520ba1fb2ef4ba39da1c89a166e", "asm": "00143e304e2e6f545520ba1fb2ef4ba39da1c89a166e"}, "vout": 0, "txid": "34368e559a66713524a5c851fb4f442d934202416eac8c59f6882b58f0e515d2"}], "txid": "40a71ae4b2f4e03e981b912cf5333bd840283d323a754d7145a120728e985408", "blocktime": 1537873891, "version": 2, "confirmations": 11474, "time": 1537873891, "locktime": 542996, "vsize": 409, "size": 571}