{"hash": "40a763b6841a1bc3e843e0bd8c92ee8320cc5d3b3d4bef9801b22309878f2d3c", "blockhash": "0000000000000000001f76057863aec43deb6fa401d9628bb513d65a8098bfab", "vout": [{"scriptPubKey": {"reqSigs": 1, "hex": "a9143fb23bce81a513cb4ad9e5e3ed28c87395d4080f87", "addresses": ["37Vp1X14kV8WRnte8HQA5rfPjhmgQmGeqf"], "asm": "OP_HASH160 3fb23bce81a513cb4ad9e5e3ed28c87395d4080f OP_EQUAL", "type": "scripthash"}, "value": 1.786923, "n": 0}, {"scriptPubKey": {"reqSigs": 1, "hex": "76a9148eccb4e8d2470d0f87b8712aebd8717b98f1ee3188ac", "addresses": ["1E24BWY3VY1LaWMJqaHL43dYANFw71W6qP"], "asm": "OP_DUP OP_HASH160 8eccb4e8d2470d0f87b8712aebd8717b98f1ee31 OP_EQUALVERIFY OP_CHECKSIG", "type": "pubkeyhash"}, "value": 0.052, "n": 1}], "hex": "0200000001fdd6abee62587dbffeae4354255956add0530ac2ad73f75004e1622a6f4bf34701000000fdfd0000483045022100da22b6a1cf24c5faa79acb2654772f8648e26b7ee99a68a90d9c35d2162bb0c60220269bf4c96fa79007185cd57e36b004fd0f3ce69275347f04c3412c6b1905c51401473044022005d660aa857db07b2f0a48c56ad0580a1db2bf913800db3c5f0d219d8edd70a902205379f079e61a2273d79b0c5ba752945e031a092275fc3d7fffaf0f260a745056014c69522102834add8194f59beb4e30dac5fff32864b5e67bb2537ac20f5725ffd9d8bae7042103f90f1119c09b58d22cf7b71a1c435a3823b4acf05ed97e522923e96cf8c27a462102a6d17fdb902a82f9e0daf679f92658e3ee8f1f68ac743d8abcadd286c81c1ae753ae0000000002cca0a60a0000000017a9143fb23bce81a513cb4ad9e5e3ed28c87395d4080f8780584f00000000001976a9148eccb4e8d2470d0f87b8712aebd8717b98f1ee3188ac00000000", "vin": [{"sequence": 0, "scriptSig": {"hex": "00483045022100da22b6a1cf24c5faa79acb2654772f8648e26b7ee99a68a90d9c35d2162bb0c60220269bf4c96fa79007185cd57e36b004fd0f3ce69275347f04c3412c6b1905c51401473044022005d660aa857db07b2f0a48c56ad0580a1db2bf913800db3c5f0d219d8edd70a902205379f079e61a2273d79b0c5ba752945e031a092275fc3d7fffaf0f260a745056014c69522102834add8194f59beb4e30dac5fff32864b5e67bb2537ac20f5725ffd9d8bae7042103f90f1119c09b58d22cf7b71a1c435a3823b4acf05ed97e522923e96cf8c27a462102a6d17fdb902a82f9e0daf679f92658e3ee8f1f68ac743d8abcadd286c81c1ae753ae", "asm": "0 3045022100da22b6a1cf24c5faa79acb2654772f8648e26b7ee99a68a90d9c35d2162bb0c60220269bf4c96fa79007185cd57e36b004fd0f3ce69275347f04c3412c6b1905c514[ALL] 3044022005d660aa857db07b2f0a48c56ad0580a1db2bf913800db3c5f0d219d8edd70a902205379f079e61a2273d79b0c5ba752945e031a092275fc3d7fffaf0f260a745056[ALL] 522102834add8194f59beb4e30dac5fff32864b5e67bb2537ac20f5725ffd9d8bae7042103f90f1119c09b58d22cf7b71a1c435a3823b4acf05ed97e522923e96cf8c27a462102a6d17fdb902a82f9e0daf679f92658e3ee8f1f68ac743d8abcadd286c81c1ae753ae"}, "vout": 1, "txid": "47f34b6f2a62e10450f773adc20a53d0ad5659255443aefebf7d5862eeabd6fd"}], "txid": "40a763b6841a1bc3e843e0bd8c92ee8320cc5d3b3d4bef9801b22309878f2d3c", "blocktime": 1537873891, "version": 2, "confirmations": 11475, "time": 1537873891, "locktime": 0, "vsize": 372, "size": 372}