{"hash": "f4a6f4d18cea8ecac764ce0fa11aa080412808c82c2bd3b3b732fa1912b0bfa1", "blockhash": "00000000000000000017f5eb5941039fbcee6240d03bc1f2f8e35350df66a1d8", "vout": [{"scriptPubKey": {"reqSigs": 1, "hex": "a914a0716db066454d3b05aa5e04973ce0df65d92ff987", "addresses": ["3GKMvPHg3GRSgR5rjRVJZ6Dz8fLFny2GL9"], "asm": "OP_HASH160 a0716db066454d3b05aa5e04973ce0df65d92ff9 OP_EQUAL", "type": "scripthash"}, "value": 0.00021614, "n": 0}, {"scriptPubKey": {"reqSigs": 1, "hex": "0014e70a07f86577cb2cc518474974c692eda54010a2", "addresses": ["bc1quu9q07r9wl9je3gcgayhf35jakj5qy9z6efpkf"], "asm": "0 e70a07f86577cb2cc518474974c692eda54010a2", "type": "witness_v0_keyhash"}, "value": 9.6e-06, "n": 1}], "hex": "01000000000101e60cff4f81d64c68afcb0be694a5e9d4f7c9181638d34e3fc8807fb76f7cc1040100000000ffffffff026e5400000000000017a914a0716db066454d3b05aa5e04973ce0df65d92ff987c003000000000000160014e70a07f86577cb2cc518474974c692eda54010a202483045022100fd8cff3a129f6720528368c343e4197d22c7844eefec336afba85b3e432915d602205227c0f3f8e1d6c6453ddf2bff2bb86f4bbed13ae92967af63164cf49f2623af012102c27f6c2e9576a3912ee23272258c08612bf892986bdc6cb260b1c71ca4bfb9f200000000", "vin": [{"txinwitness": ["3045022100fd8cff3a129f6720528368c343e4197d22c7844eefec336afba85b3e432915d602205227c0f3f8e1d6c6453ddf2bff2bb86f4bbed13ae92967af63164cf49f2623af01", "02c27f6c2e9576a3912ee23272258c08612bf892986bdc6cb260b1c71ca4bfb9f2"], "sequence": 4294967295, "scriptSig": {"hex": "", "asm": ""}, "vout": 1, "txid": "04c17c6fb77f80c83f4ed3381618c9f7d4e9a594e60bcbaf684cd6814fff0ce6"}], "txid": "40aa9c21fb28896c114e7d5fa8de9a44805d277641765ffc77db144816c3fc28", "blocktime": 1537874412, "version": 1, "confirmations": 11467, "time": 1537874412, "locktime": 0, "vsize": 142, "size": 224}