{"hash": "af00ffaca102a5a61baea67d69b12a4823594acdcfa4d333c7560c7e53c46824", "blockhash": "0000000000000000001f0ddff1eddb255c1121bcd4da4f1bc9a0da00cae72433", "vout": [{"scriptPubKey": {"reqSigs": 1, "hex": "a91491b55bf7d9c8f19972e4d779d6c334ea2c7bb89b87", "addresses": ["3EyTARMs1cxXxAbnPmBfSBquyvAxsV7NM1"], "asm": "OP_HASH160 91b55bf7d9c8f19972e4d779d6c334ea2c7bb89b OP_EQUAL", "type": "scripthash"}, "value": 0.00234, "n": 0}, {"scriptPubKey": {"reqSigs": 1, "hex": "00145f9d5415aa86c213788ed0879061943a94875c4d", "addresses": ["bc1qt7w4g9d2smppx7yw6zreqcv5822gwhzdq0wqje"], "asm": "0 5f9d5415aa86c213788ed0879061943a94875c4d", "type": "witness_v0_keyhash"}, "value": 2.087e-05, "n": 1}], "hex": "01000000000101558afeb208c6ffe59ab893ee6b9eeae0b3252de19667b324746677787eb195ad0000000000ffffffff02109203000000000017a91491b55bf7d9c8f19972e4d779d6c334ea2c7bb89b8727080000000000001600145f9d5415aa86c213788ed0879061943a94875c4d0247304402205d3edbb17056954c936676f11b48bef406781c2d109105fbc72c1457765df63f02207019399f974aa851e8e9295600a00219339219fd9201c2406ec8e05ef91e76c70121021c47914008e153ef21038eba698610e801b0cf5713e0fabca91ca9cbbf58545200000000", "vin": [{"txinwitness": ["304402205d3edbb17056954c936676f11b48bef406781c2d109105fbc72c1457765df63f02207019399f974aa851e8e9295600a00219339219fd9201c2406ec8e05ef91e76c701", "021c47914008e153ef21038eba698610e801b0cf5713e0fabca91ca9cbbf585452"], "sequence": 4294967295, "scriptSig": {"hex": "", "asm": ""}, "vout": 0, "txid": "ad95b17e7877667424b36796e12d25b3e0ea9e6bee93b89ae5ffc608b2fe8a55"}], "txid": "40aaf2f754c38149537cc083f1f2b83ae6db73f89ba07bbc6f9bf4f10a35116e", "blocktime": 1537872018, "version": 1, "confirmations": 11489, "time": 1537872018, "locktime": 0, "vsize": 142, "size": 223}