{"hash": "f91e4d5b6e47e8ec3d335b9bc5c421e35a7e62970c5458be9cdd6dcb06db285a", "blockhash": "00000000000000000017f5eb5941039fbcee6240d03bc1f2f8e35350df66a1d8", "vout": [{"scriptPubKey": {"reqSigs": 1, "hex": "a91490e99e8d26d05ead3c05430c292a887bbff695f587", "addresses": ["3EuF6KjJawxTiUsea3Sc8hsLUGmVEf7Xg5"], "asm": "OP_HASH160 90e99e8d26d05ead3c05430c292a887bbff695f5 OP_EQUAL", "type": "scripthash"}, "value": 0.00125034, "n": 0}, {"scriptPubKey": {"type": "nulldata", "hex": "6a146f6d6e69000000000000001f0000000005f5e100", "asm": "OP_RETURN 6f6d6e69000000000000001f0000000005f5e100"}, "value": 0.0, "n": 1}, {"scriptPubKey": {"reqSigs": 1, "hex": "a91490e99e8d26d05ead3c05430c292a887bbff695f587", "addresses": ["3EuF6KjJawxTiUsea3Sc8hsLUGmVEf7Xg5"], "asm": "OP_HASH160 90e99e8d26d05ead3c05430c292a887bbff695f5 OP_EQUAL", "type": "scripthash"}, "value": 5.4e-06, "n": 2}], "hex": "010000000001025b614e72f04a2a85deb1a268c77d62ef8660bd628a8ef07445f99da93b41697f0000000017160014f6e1792e7852ebd5ae795c2a25d579acdfadec2dffffffff5b614e72f04a2a85deb1a268c77d62ef8660bd628a8ef07445f99da93b41697f0200000017160014f6e1792e7852ebd5ae795c2a25d579acdfadec2dffffffff036ae801000000000017a91490e99e8d26d05ead3c05430c292a887bbff695f5870000000000000000166a146f6d6e69000000000000001f0000000005f5e1001c0200000000000017a91490e99e8d26d05ead3c05430c292a887bbff695f58702473044022029b86726aa8ada4fc1dc2bd6cdb4c41fefba280037f2f310ac767efe58a41cb402201b067dd7e32bc85ada22a3d836b6ea3fab08cb0c35362b70ca9074fe39007182012103f1cf988013a33e053d1e9bd54c4798c1a6dc362a5b2798b5344049fca40e2db002483045022100f4dd126269c46300abd38cd653aed2c7abc17331b72371bbfb749198c99e186a02205cd7b03a7a8a645899a3206975784c1a2522c4d7d56afe77bf69f29c69dca212012103f1cf988013a33e053d1e9bd54c4798c1a6dc362a5b2798b5344049fca40e2db000000000", "vin": [{"txinwitness": ["3044022029b86726aa8ada4fc1dc2bd6cdb4c41fefba280037f2f310ac767efe58a41cb402201b067dd7e32bc85ada22a3d836b6ea3fab08cb0c35362b70ca9074fe3900718201", "03f1cf988013a33e053d1e9bd54c4798c1a6dc362a5b2798b5344049fca40e2db0"], "sequence": 4294967295, "scriptSig": {"hex": "160014f6e1792e7852ebd5ae795c2a25d579acdfadec2d", "asm": "0014f6e1792e7852ebd5ae795c2a25d579acdfadec2d"}, "vout": 0, "txid": "7f69413ba99df94574f08e8a62bd6086ef627dc768a2b1de852a4af0724e615b"}, {"txinwitness": ["3045022100f4dd126269c46300abd38cd653aed2c7abc17331b72371bbfb749198c99e186a02205cd7b03a7a8a645899a3206975784c1a2522c4d7d56afe77bf69f29c69dca21201", "03f1cf988013a33e053d1e9bd54c4798c1a6dc362a5b2798b5344049fca40e2db0"], "sequence": 4294967295, "scriptSig": {"hex": "160014f6e1792e7852ebd5ae795c2a25d579acdfadec2d", "asm": "0014f6e1792e7852ebd5ae795c2a25d579acdfadec2d"}, "vout": 2, "txid": "7f69413ba99df94574f08e8a62bd6086ef627dc768a2b1de852a4af0724e615b"}], "txid": "40ad40d729f968c02b67e542a6a8c4a78afa99c57b62c36008c9ff1afdbe11f4", "blocktime": 1537874412, "version": 1, "confirmations": 11467, "time": 1537874412, "locktime": 0, "vsize": 288, "size": 450}