{"hash": "e6a32480d36e1564688363b3b8af83361b820936f53526d067e737fe53ef67f5", "blockhash": "0000000000000000000e13cef7c366c0283d82e591d1acd082e914b08063cdf1", "vout": [{"scriptPubKey": {"reqSigs": 1, "hex": "a9145f63773a4f342c620d4964fe2b11199e24701f3c87", "addresses": ["3APPGmVgdM1iE44fsM56q7r3N7eMPac7uN"], "asm": "OP_HASH160 5f63773a4f342c620d4964fe2b11199e24701f3c OP_EQUAL", "type": "scripthash"}, "value": 0.01004966, "n": 0}, {"scriptPubKey": {"reqSigs": 1, "hex": "76a914bbaec083b5e6b2619a44122d11954d363152fd0488ac", "addresses": ["1J7NhraWXwxB5EzsPgHjvHxXqAAYgWV397"], "asm": "OP_DUP OP_HASH160 bbaec083b5e6b2619a44122d11954d363152fd04 OP_EQUALVERIFY OP_CHECKSIG", "type": "pubkeyhash"}, "value": 0.0031036, "n": 1}], "hex": "02000000000102298197ba9b9b1667b5495ce9e5f5a11e0264fbcab66a2671052496338ecf5ee9010000001716001449bd1e5a8fff63fa48b6e17fb7a86b9d11cd6e48fefffffff497663a2afe4c584e93e10a64cc3cf633de5c33f3f9032b940196d622aa14140d00000017160014f6f61dc6cf679804fc0661a7b7007c3c55d31ee4feffffff02a6550f000000000017a9145f63773a4f342c620d4964fe2b11199e24701f3c8758bc0400000000001976a914bbaec083b5e6b2619a44122d11954d363152fd0488ac02473044022046a0224d713f5cd5ea29b44c79ee60cc7f6c2826724c6d4e40113918228c7a6002207b162140b1a7c151f1f5d493801c8178127ee61a91bc43495c148a28ab866c1d012103b97aae7b739a4f46fb1033741140319e37c883bd903a7683b5ac5740c5a34fe00247304402204d2f97d0fcb02e0930c38c79d0e1c34d1c0e6d6aaf18776ddebb74d83e33fc3b02204ad573197fe4069856c41f4e64bc090e037e00b72d8063a857d0e6878fa4dea0012102240425e39331f5dbf4eb5b90917e1336d143bf3e3909f08525d3cdb8afe2189610490800", "vin": [{"txinwitness": ["3044022046a0224d713f5cd5ea29b44c79ee60cc7f6c2826724c6d4e40113918228c7a6002207b162140b1a7c151f1f5d493801c8178127ee61a91bc43495c148a28ab866c1d01", "03b97aae7b739a4f46fb1033741140319e37c883bd903a7683b5ac5740c5a34fe0"], "sequence": 4294967294, "scriptSig": {"hex": "16001449bd1e5a8fff63fa48b6e17fb7a86b9d11cd6e48", "asm": "001449bd1e5a8fff63fa48b6e17fb7a86b9d11cd6e48"}, "vout": 1, "txid": "e95ecf8e3396240571266ab6cafb64021ea1f5e5e95c49b567169b9bba978129"}, {"txinwitness": ["304402204d2f97d0fcb02e0930c38c79d0e1c34d1c0e6d6aaf18776ddebb74d83e33fc3b02204ad573197fe4069856c41f4e64bc090e037e00b72d8063a857d0e6878fa4dea001", "02240425e39331f5dbf4eb5b90917e1336d143bf3e3909f08525d3cdb8afe21896"], "sequence": 4294967294, "scriptSig": {"hex": "160014f6f61dc6cf679804fc0661a7b7007c3c55d31ee4", "asm": "0014f6f61dc6cf679804fc0661a7b7007c3c55d31ee4"}, "vout": 13, "txid": "1414aa22d69601942b03f9f3335cde33f63ccc640ae1934e584cfe2a3a6697f4"}], "txid": "40b3dea328397dd8f422faf8a6014273c789b0cafba654b8fb2a9b1d51577cc6", "blocktime": 1537871767, "version": 2, "confirmations": 11495, "time": 1537871767, "locktime": 542992, "vsize": 258, "size": 420}