{"hash": "40bbddb1ade1379daa08ffc1b8200d0a1a794508fb2d03b38751b698adb5d3e2", "blockhash": "0000000000000000000e13cef7c366c0283d82e591d1acd082e914b08063cdf1", "vout": [{"scriptPubKey": {"reqSigs": 1, "hex": "a914d5f55cb88bb044c3595691a154fb7cc15f89240287", "addresses": ["3MCKnU52sX3HDh8MEWjuJgLihzodtsrvWq"], "asm": "OP_HASH160 d5f55cb88bb044c3595691a154fb7cc15f892402 OP_EQUAL", "type": "scripthash"}, "value": 0.01724012, "n": 0}, {"scriptPubKey": {"reqSigs": 1, "hex": "76a9142f99ec3d9bc5a148a6d82c9470ab39d34024247c88ac", "addresses": ["15Lh9m836soRnFCrF6kSPRttYZXjFPED86"], "asm": "OP_DUP OP_HASH160 2f99ec3d9bc5a148a6d82c9470ab39d34024247c OP_EQUALVERIFY OP_CHECKSIG", "type": "pubkeyhash"}, "value": 0.175441, "n": 1}], "hex": "010000000142f5b639c03f790205dd84bfaa564bc42ec9bcdda08f8b5b0c933f941d521d21000000008b483045022100a802ea14e28911b33fe646767a10ef1ae606d2d83d343fc90e8bd0d993d410ac0220631b12aaa8170b1754579bf9f5286e9c8d6036929f927e81bfb130a6b0bcf266014104fa873bd8d31fa7026a12ab1ac78be4a8070a21ba5d3cc93d4f4c7e213ea26a3d54a32cb896effe88e5556a6c70dcafb4df9618cf4d648976a9d0fb1fb3a05b9effffffff026c4e1a000000000017a914d5f55cb88bb044c3595691a154fb7cc15f89240287a4b30b01000000001976a9142f99ec3d9bc5a148a6d82c9470ab39d34024247c88ac00000000", "vin": [{"sequence": 4294967295, "scriptSig": {"hex": "483045022100a802ea14e28911b33fe646767a10ef1ae606d2d83d343fc90e8bd0d993d410ac0220631b12aaa8170b1754579bf9f5286e9c8d6036929f927e81bfb130a6b0bcf266014104fa873bd8d31fa7026a12ab1ac78be4a8070a21ba5d3cc93d4f4c7e213ea26a3d54a32cb896effe88e5556a6c70dcafb4df9618cf4d648976a9d0fb1fb3a05b9e", "asm": "3045022100a802ea14e28911b33fe646767a10ef1ae606d2d83d343fc90e8bd0d993d410ac0220631b12aaa8170b1754579bf9f5286e9c8d6036929f927e81bfb130a6b0bcf266[ALL] 04fa873bd8d31fa7026a12ab1ac78be4a8070a21ba5d3cc93d4f4c7e213ea26a3d54a32cb896effe88e5556a6c70dcafb4df9618cf4d648976a9d0fb1fb3a05b9e"}, "vout": 0, "txid": "211d521d943f930c5b8b8fa0ddbcc92ec44b56aabf84dd0502793fc039b6f542"}], "txid": "40bbddb1ade1379daa08ffc1b8200d0a1a794508fb2d03b38751b698adb5d3e2", "blocktime": 1537871767, "version": 1, "confirmations": 11491, "time": 1537871767, "locktime": 0, "vsize": 256, "size": 256}