{"hash": "8d654297147a89989aa9dc4ac18f69debbc17ce4dde1d4633495f9eac9d5affc", "blockhash": "0000000000000000001e0dab787dd257d1dbfcb92a98c2207d5e1078be1f4165", "vout": [{"scriptPubKey": {"reqSigs": 1, "hex": "a914e757537fd17d93d9440936c11923f4efb8c9f1c487", "addresses": ["3NnEdPJ15ZHZ7mzS7ug4fww4jtdwVxrEoT"], "asm": "OP_HASH160 e757537fd17d93d9440936c11923f4efb8c9f1c4 OP_EQUAL", "type": "scripthash"}, "value": 6e-05, "n": 0}, {"scriptPubKey": {"reqSigs": 1, "hex": "a9141d7370ccde4590204155e4074f69743a8e4fac0287", "addresses": ["34Njp4ZKtmCDfqqps26wHBYQQGUo2pGkLi"], "asm": "OP_HASH160 1d7370ccde4590204155e4074f69743a8e4fac02 OP_EQUAL", "type": "scripthash"}, "value": 0.00032956, "n": 1}], "hex": "01000000000101d2ec8775e3baa74a76e38af8358a1a5794efb2c8e70ba3ac6437d7d11f21f9c10000000023220020f63dfc12340f6360d0251c22746d6b56093e3243e96ca012a65484a5d9cf0ec0ffffffff02701700000000000017a914e757537fd17d93d9440936c11923f4efb8c9f1c487bc8000000000000017a9141d7370ccde4590204155e4074f69743a8e4fac02870400483045022100b97fe936de08524cf9edb99d146cf70946103945698c210426e0d31924d592af02207eae90e6cf9c3bf39230230a4cadf76bddf73e6d0162ef2a5f1fb2e8fc7f4fca01473044022038c9b72e64caf2dc70a753c55944088b5f1828f988c6708571ae100a911bf45002202c2cec7aed885d8c6523e5c004b0abbab0aad474991d404ca9836167df4a43a10147522102097067a6a0cc130a9a6f6577b47bf369b840a79de31cd7457187994266b1bb7c2103338f346cab6ba87fe940591a03ac234be06520c5ab386d4b6632e8eef0d0db7652ae00000000", "vin": [{"txinwitness": ["", "3045022100b97fe936de08524cf9edb99d146cf70946103945698c210426e0d31924d592af02207eae90e6cf9c3bf39230230a4cadf76bddf73e6d0162ef2a5f1fb2e8fc7f4fca01", "3044022038c9b72e64caf2dc70a753c55944088b5f1828f988c6708571ae100a911bf45002202c2cec7aed885d8c6523e5c004b0abbab0aad474991d404ca9836167df4a43a101", "522102097067a6a0cc130a9a6f6577b47bf369b840a79de31cd7457187994266b1bb7c2103338f346cab6ba87fe940591a03ac234be06520c5ab386d4b6632e8eef0d0db7652ae"], "sequence": 4294967295, "scriptSig": {"hex": "220020f63dfc12340f6360d0251c22746d6b56093e3243e96ca012a65484a5d9cf0ec0", "asm": "0020f63dfc12340f6360d0251c22746d6b56093e3243e96ca012a65484a5d9cf0ec0"}, "vout": 0, "txid": "c1f9211fd1d73764aca30be7c8b2ef94571a8a35f88ae3764aa7bae37587ecd2"}], "txid": "40bfe5ed4481af7d946d430718ae7e85b1189ab386a850604ab29761d0762163", "blocktime": 1537872475, "version": 1, "confirmations": 11487, "time": 1537872475, "locktime": 0, "vsize": 206, "size": 371}