{"hash": "dfe059df7f1302605af4b408bee729e5c8230cf09dfc4b202c3904461fcff7d2", "blockhash": "0000000000000000001f76057863aec43deb6fa401d9628bb513d65a8098bfab", "vout": [{"scriptPubKey": {"reqSigs": 1, "hex": "0014a674c30b14de8167cc03c70be7bb11153ca41b58", "addresses": ["bc1q5e6vxzc5m6qk0nqrcu970wc3z572gx6cv7zpye"], "asm": "0 a674c30b14de8167cc03c70be7bb11153ca41b58", "type": "witness_v0_keyhash"}, "value": 0.00808764, "n": 0}, {"scriptPubKey": {"reqSigs": 1, "hex": "a914327967eec4424483b7188ee737b2e6de7cfca0db87", "addresses": ["36Hu9a5ZRcNnBJnkwdKFDqSEzHDeky4w5B"], "asm": "OP_HASH160 327967eec4424483b7188ee737b2e6de7cfca0db OP_EQUAL", "type": "scripthash"}, "value": 0.01657948, "n": 1}], "hex": "01000000000101511666c5dd58c0db3d9a8d7a0cdde5aa2ce4953fe6fe84b33b2c1dd9d62284c90100000000ffffffff023c570c0000000000160014a674c30b14de8167cc03c70be7bb11153ca41b585c4c19000000000017a914327967eec4424483b7188ee737b2e6de7cfca0db870247304402200bb11fc0f235064202893db407cd3f9607398aeb34215fd2e6bfbdb8e0d4672a022005c6379e01dbe9939381c078492e48ba7975ceae9c708b00225c6d10fd7c3c2101210373dfdc3879b08cce04d4eec87702bae0112d8e52900e7495bb335778614d096200000000", "vin": [{"txinwitness": ["304402200bb11fc0f235064202893db407cd3f9607398aeb34215fd2e6bfbdb8e0d4672a022005c6379e01dbe9939381c078492e48ba7975ceae9c708b00225c6d10fd7c3c2101", "0373dfdc3879b08cce04d4eec87702bae0112d8e52900e7495bb335778614d0962"], "sequence": 4294967295, "scriptSig": {"hex": "", "asm": ""}, "vout": 1, "txid": "c98422d6d91d2c3bb384fee63f95e42caae5dd0c7a8d9a3ddbc058ddc5661651"}], "txid": "40c880553611ac9f7d240701eefc2825f25a58f84c9f22d53a01f8f6de81b509", "blocktime": 1537873891, "version": 1, "confirmations": 11478, "time": 1537873891, "locktime": 0, "vsize": 142, "size": 223}