{"hash": "40cb18cf221ec43896784a5b41acb0e310297f93df001d20c8cde24643812833", "blockhash": "00000000000000000017f5eb5941039fbcee6240d03bc1f2f8e35350df66a1d8", "vout": [{"scriptPubKey": {"reqSigs": 1, "hex": "76a91465e84b34588a919614cce4160798a2f9d924e6c388ac", "addresses": ["1AHqXRsTLhQYXR7LFyhTWjAiN1qty8wcmd"], "asm": "OP_DUP OP_HASH160 65e84b34588a919614cce4160798a2f9d924e6c3 OP_EQUALVERIFY OP_CHECKSIG", "type": "pubkeyhash"}, "value": 2.264e-05, "n": 0}, {"scriptPubKey": {"reqSigs": 1, "hex": "a91411d6d2741bcf68af826dc76766b1532aea3739b087", "addresses": ["33KLkuSWbCVGix25czJdftZ2Ud8uXwcPiG"], "asm": "OP_HASH160 11d6d2741bcf68af826dc76766b1532aea3739b0 OP_EQUAL", "type": "scripthash"}, "value": 0.00484691, "n": 1}], "hex": "0100000005aadcefe51b67e92e9ca255a3b1bc3a1fa4ac78bf9ea2bf956ade4614b77d7123000000006b483045022100d7bc9f1fd37a7f5153c276803d7713220f13debf1fd16d2e0d050d6c92ea2d5802200b68eac59b0bbc0f5da3b25a3828c05b8f24156785bb6765d84b75ac3d77de82012102f4e5d880b5e3abb22a24bac6c909293d143676f072116149447f3174c1e21305ffffffff5bc023a8262c197d766b28d816f478c7e9e567df882fc6451f6c2ed49bd3b763000000006a47304402207a7bdfcf1d801aaf842cab166a021dfbe237eaf2d101600c56079bf49f5769d902201cbeac1d8fb26f233717ac327d6c0338d45e852fc1d676fd6282ce38317ab3600121032cf0055360cbc05b1f2c6961c19f3981697e3ccdc9cc053556ae57d45c499b7dffffffff33acebb035ea1b9216869e5e1c9879ad698ca82baada79f64e7ec72efaf2ca93000000006b48304502210087df3922763ecdb79d458e66992929f3cd3b8b279eb5fd7b2e34c134eaf5e7d102201640361d7646fa04e5e82094676fe66f76c37945dfbf473b4e78bd50a6f799610121025e446e2b265624506fd5468b6565c2fa15e463dec34f12693b7f8dea5b37002affffffff1d1ec61b6b24dba118325eede1218481ac1a0eff1633fa82e2ba986ba0fda8ba000000006b483045022100bb2a5f27761f6c256c771639480ef9ea764df48e766078b199fc011fff76ffbb02203d13965252b807d4cef75edcda254e45985e7d66bf51ff8fc31c155ce856cf85012102f4e5d880b5e3abb22a24bac6c909293d143676f072116149447f3174c1e21305ffffffffcaedcf1a98fc89b68ac241d83242a9d26a961fec6251b7226f3904664b0d8af7010000006b483045022100ae0d50e2b24afe2040541470a0236684cba3261aa4f3a66e5e56e044f67ae56f02201768f6b8df6ac7fb96a38b30978656629cfae61a8695593dbf2a3216037cd240012102216bebc0806ad6872e8b5a5ccfe886bacb30751fc5860a64e6eea015f1c393f9ffffffff02d8080000000000001976a91465e84b34588a919614cce4160798a2f9d924e6c388ac536507000000000017a91411d6d2741bcf68af826dc76766b1532aea3739b08700000000", "vin": [{"sequence": 4294967295, "scriptSig": {"hex": "483045022100d7bc9f1fd37a7f5153c276803d7713220f13debf1fd16d2e0d050d6c92ea2d5802200b68eac59b0bbc0f5da3b25a3828c05b8f24156785bb6765d84b75ac3d77de82012102f4e5d880b5e3abb22a24bac6c909293d143676f072116149447f3174c1e21305", "asm": "3045022100d7bc9f1fd37a7f5153c276803d7713220f13debf1fd16d2e0d050d6c92ea2d5802200b68eac59b0bbc0f5da3b25a3828c05b8f24156785bb6765d84b75ac3d77de82[ALL] 02f4e5d880b5e3abb22a24bac6c909293d143676f072116149447f3174c1e21305"}, "vout": 0, "txid": "23717db71446de6a95bfa29ebf78aca41f3abcb1a355a29c2ee9671be5efdcaa"}, {"sequence": 4294967295, "scriptSig": {"hex": "47304402207a7bdfcf1d801aaf842cab166a021dfbe237eaf2d101600c56079bf49f5769d902201cbeac1d8fb26f233717ac327d6c0338d45e852fc1d676fd6282ce38317ab3600121032cf0055360cbc05b1f2c6961c19f3981697e3ccdc9cc053556ae57d45c499b7d", "asm": "304402207a7bdfcf1d801aaf842cab166a021dfbe237eaf2d101600c56079bf49f5769d902201cbeac1d8fb26f233717ac327d6c0338d45e852fc1d676fd6282ce38317ab360[ALL] 032cf0055360cbc05b1f2c6961c19f3981697e3ccdc9cc053556ae57d45c499b7d"}, "vout": 0, "txid": "63b7d39bd42e6c1f45c62f88df67e5e9c778f416d8286b767d192c26a823c05b"}, {"sequence": 4294967295, "scriptSig": {"hex": "48304502210087df3922763ecdb79d458e66992929f3cd3b8b279eb5fd7b2e34c134eaf5e7d102201640361d7646fa04e5e82094676fe66f76c37945dfbf473b4e78bd50a6f799610121025e446e2b265624506fd5468b6565c2fa15e463dec34f12693b7f8dea5b37002a", "asm": "304502210087df3922763ecdb79d458e66992929f3cd3b8b279eb5fd7b2e34c134eaf5e7d102201640361d7646fa04e5e82094676fe66f76c37945dfbf473b4e78bd50a6f79961[ALL] 025e446e2b265624506fd5468b6565c2fa15e463dec34f12693b7f8dea5b37002a"}, "vout": 0, "txid": "93caf2fa2ec77e4ef679daaa2ba88c69ad79981c5e9e8616921bea35b0ebac33"}, {"sequence": 4294967295, "scriptSig": {"hex": "483045022100bb2a5f27761f6c256c771639480ef9ea764df48e766078b199fc011fff76ffbb02203d13965252b807d4cef75edcda254e45985e7d66bf51ff8fc31c155ce856cf85012102f4e5d880b5e3abb22a24bac6c909293d143676f072116149447f3174c1e21305", "asm": "3045022100bb2a5f27761f6c256c771639480ef9ea764df48e766078b199fc011fff76ffbb02203d13965252b807d4cef75edcda254e45985e7d66bf51ff8fc31c155ce856cf85[ALL] 02f4e5d880b5e3abb22a24bac6c909293d143676f072116149447f3174c1e21305"}, "vout": 0, "txid": "baa8fda06b98bae282fa3316ff0e1aac818421e1ed5e3218a1db246b1bc61e1d"}, {"sequence": 4294967295, "scriptSig": {"hex": "483045022100ae0d50e2b24afe2040541470a0236684cba3261aa4f3a66e5e56e044f67ae56f02201768f6b8df6ac7fb96a38b30978656629cfae61a8695593dbf2a3216037cd240012102216bebc0806ad6872e8b5a5ccfe886bacb30751fc5860a64e6eea015f1c393f9", "asm": "3045022100ae0d50e2b24afe2040541470a0236684cba3261aa4f3a66e5e56e044f67ae56f02201768f6b8df6ac7fb96a38b30978656629cfae61a8695593dbf2a3216037cd240[ALL] 02216bebc0806ad6872e8b5a5ccfe886bacb30751fc5860a64e6eea015f1c393f9"}, "vout": 1, "txid": "f78a0d4b6604396f22b75162ec1f966ad2a94232d841c28ab689fc981acfedca"}], "txid": "40cb18cf221ec43896784a5b41acb0e310297f93df001d20c8cde24643812833", "blocktime": 1537874412, "version": 1, "confirmations": 11468, "time": 1537874412, "locktime": 0, "vsize": 815, "size": 815}