{"hash": "40d2224c1518c000dd43634fd0e6d5c1c35f9954cddb6e412d1a2a92973d24fe", "blockhash": "0000000000000000001cda96e906b7601b7a6fb1a3b62bca570a9e5d8f4b3de1", "vout": [{"scriptPubKey": {"type": "nulldata", "hex": "6a4c50000077c2000127bf8044c92b98c2e7e936e2e5bf9ae76da98a211aaf6c953dd567cf27e798c5eb9fa6bbd974d69c74e697ce49a45baa12ca061327b08babefea1d100759d4ba30d2c37bb011d97e02cf", "asm": "OP_RETURN 000077c2000127bf8044c92b98c2e7e936e2e5bf9ae76da98a211aaf6c953dd567cf27e798c5eb9fa6bbd974d69c74e697ce49a45baa12ca061327b08babefea1d100759d4ba30d2c37bb011d97e02cf"}, "value": 0.0, "n": 0}, {"scriptPubKey": {"reqSigs": 1, "hex": "76a914212d0fec220bf62b4656bf29fd5ae8921cf06d4b88ac", "addresses": ["142RHJnqtQYYLXc1HQN1gt2P27AhjMmxPr"], "asm": "OP_DUP OP_HASH160 212d0fec220bf62b4656bf29fd5ae8921cf06d4b OP_EQUALVERIFY OP_CHECKSIG", "type": "pubkeyhash"}, "value": 0.00640916, "n": 1}], "hex": "010000000104a2e0459074b77ed8c14a55471a0b4cda0fe17ce7d17c89750758bd9e43b9b1000000006b48304502210080f567a14767d22c0ea9c8fdce2289e0f563581ae919c8c518e1ae85d87c7f880220081c05e29c8e4e7711775d89e78d803bc4541a67478b477dd2ed1a41d533fb5301210214a9f96be96c82e8a95c6c2beb34da6a4f0e06bcbeccc344dd08d6498d621251ffffffff020000000000000000536a4c50000077c2000127bf8044c92b98c2e7e936e2e5bf9ae76da98a211aaf6c953dd567cf27e798c5eb9fa6bbd974d69c74e697ce49a45baa12ca061327b08babefea1d100759d4ba30d2c37bb011d97e02cf94c70900000000001976a914212d0fec220bf62b4656bf29fd5ae8921cf06d4b88ac00000000", "vin": [{"sequence": 4294967295, "scriptSig": {"hex": "48304502210080f567a14767d22c0ea9c8fdce2289e0f563581ae919c8c518e1ae85d87c7f880220081c05e29c8e4e7711775d89e78d803bc4541a67478b477dd2ed1a41d533fb5301210214a9f96be96c82e8a95c6c2beb34da6a4f0e06bcbeccc344dd08d6498d621251", "asm": "304502210080f567a14767d22c0ea9c8fdce2289e0f563581ae919c8c518e1ae85d87c7f880220081c05e29c8e4e7711775d89e78d803bc4541a67478b477dd2ed1a41d533fb53[ALL] 0214a9f96be96c82e8a95c6c2beb34da6a4f0e06bcbeccc344dd08d6498d621251"}, "vout": 0, "txid": "b1b9439ebd580775897cd1e77ce10fda4c0b1a47554ac1d87eb7749045e0a204"}], "txid": "40d2224c1518c000dd43634fd0e6d5c1c35f9954cddb6e412d1a2a92973d24fe", "blocktime": 1537873282, "version": 1, "confirmations": 11484, "time": 1537873282, "locktime": 0, "vsize": 284, "size": 284}