{"hash": "40d7480923c86e4ffc1c091d2845b6124281e8c0a972c0ef42639910eb9f92b8", "blockhash": "0000000000000000001e0dab787dd257d1dbfcb92a98c2207d5e1078be1f4165", "vout": [{"scriptPubKey": {"reqSigs": 1, "hex": "a91469f373e47ec97a72bda71a5ebf1fc38adea6f30587", "addresses": ["3BMEX5PTqoKS5apDyZ4G6AdQdQCAjL6qq7"], "asm": "OP_HASH160 69f373e47ec97a72bda71a5ebf1fc38adea6f305 OP_EQUAL", "type": "scripthash"}, "value": 0.0069, "n": 0}, {"scriptPubKey": {"reqSigs": 1, "hex": "a914c359344b68f9d0c9de0676f2e8bf7bb5b865895687", "addresses": ["3KVvYyMTzPELneCGJkkvVS4uLaskpKQFEN"], "asm": "OP_HASH160 c359344b68f9d0c9de0676f2e8bf7bb5b8658956 OP_EQUAL", "type": "scripthash"}, "value": 0.7793499, "n": 1}], "hex": "02000000019d0a4c2a0e38e195c6e7999fc27640d39cee2e2c7ef48b565a2161024f85492e03000000fdfd000047304402203060a0d956d4cb3a56e470b262482ef0453318fd11a5a16eee8dd93909f10fa80220134f5a4bf98fa600d19018d55e78a59c0caa434dec98c5f6ce9eaea2b864e96701483045022100cd6f56e95e9ae3c90266a0fa406cbd8ec5eaac58d7694cbd3b54dfc7e0722aca02202141ff8e338b3650bd0529f033555295def25c2729854c9f11c759b936f698dd014c6952210235daf081871dda32c76f64230095ac605718a350b22d602a514f5c1a4d5b86842103cbef489a450bc01e04f9af9592a00566d562542503e0c780242029961cc7735e21025d0c981b64d10ecaee55d80ea1b5cbdae311362e9a59755d77ad646e78f54d0053ae000000000250870a000000000017a91469f373e47ec97a72bda71a5ebf1fc38adea6f305878e31a5040000000017a914c359344b68f9d0c9de0676f2e8bf7bb5b86589568700000000", "vin": [{"sequence": 0, "scriptSig": {"hex": "0047304402203060a0d956d4cb3a56e470b262482ef0453318fd11a5a16eee8dd93909f10fa80220134f5a4bf98fa600d19018d55e78a59c0caa434dec98c5f6ce9eaea2b864e96701483045022100cd6f56e95e9ae3c90266a0fa406cbd8ec5eaac58d7694cbd3b54dfc7e0722aca02202141ff8e338b3650bd0529f033555295def25c2729854c9f11c759b936f698dd014c6952210235daf081871dda32c76f64230095ac605718a350b22d602a514f5c1a4d5b86842103cbef489a450bc01e04f9af9592a00566d562542503e0c780242029961cc7735e21025d0c981b64d10ecaee55d80ea1b5cbdae311362e9a59755d77ad646e78f54d0053ae", "asm": "0 304402203060a0d956d4cb3a56e470b262482ef0453318fd11a5a16eee8dd93909f10fa80220134f5a4bf98fa600d19018d55e78a59c0caa434dec98c5f6ce9eaea2b864e967[ALL] 3045022100cd6f56e95e9ae3c90266a0fa406cbd8ec5eaac58d7694cbd3b54dfc7e0722aca02202141ff8e338b3650bd0529f033555295def25c2729854c9f11c759b936f698dd[ALL] 52210235daf081871dda32c76f64230095ac605718a350b22d602a514f5c1a4d5b86842103cbef489a450bc01e04f9af9592a00566d562542503e0c780242029961cc7735e21025d0c981b64d10ecaee55d80ea1b5cbdae311362e9a59755d77ad646e78f54d0053ae"}, "vout": 3, "txid": "2e49854f0261215a568bf47e2c2eee9cd34076c29f99e7c695e1380e2a4c0a9d"}], "txid": "40d7480923c86e4ffc1c091d2845b6124281e8c0a972c0ef42639910eb9f92b8", "blocktime": 1537872475, "version": 2, "confirmations": 11486, "time": 1537872475, "locktime": 0, "vsize": 370, "size": 370}