{"hash": "40dafedcd399faafe331bdff6d5ef4c6e394522a14689d1c97736d415510ed6b", "blockhash": "0000000000000000000e13cef7c366c0283d82e591d1acd082e914b08063cdf1", "vout": [{"scriptPubKey": {"reqSigs": 1, "hex": "76a914d243e6abb9a60fbff430b421d2df4b7d59ec186088ac", "addresses": ["1LAnF8h3qMGx3TSwNUHVneBZUEpwE4gu3D"], "asm": "OP_DUP OP_HASH160 d243e6abb9a60fbff430b421d2df4b7d59ec1860 OP_EQUALVERIFY OP_CHECKSIG", "type": "pubkeyhash"}, "value": 0.00077314, "n": 0}, {"scriptPubKey": {"reqSigs": 1, "hex": "76a9149581bb45343da37529cb06b42eb3817f48faad1788ac", "addresses": ["1EdX6VFayMaNmwXYLJEyXGKXo2zLyAvFbL"], "asm": "OP_DUP OP_HASH160 9581bb45343da37529cb06b42eb3817f48faad17 OP_EQUALVERIFY OP_CHECKSIG", "type": "pubkeyhash"}, "value": 5.46e-06, "n": 1}, {"scriptPubKey": {"type": "nulldata", "hex": "6a146f6d6e69000000000000001f0000002e905894e0", "asm": "OP_RETURN 6f6d6e69000000000000001f0000002e905894e0"}, "value": 0.0, "n": 2}], "hex": "0100000001f65deb231bf090baaed15d1c1a18292b3d3f2175ea6f578bc2b02e03b69b89e1000000006b483045022100abe8d27029a183705484b581c77d535edb5ae7f7bc14363840f95fe8b7039f21022014dfba304e9c7f7b1fb3281966e43bdf9034c0fbfbd81c5ef224bb1f1fe64bee01210271977291b74f1f5f5c42157e8aae804664eaaeccfd097918450d37f28fb94d77ffffffff03022e0100000000001976a914d243e6abb9a60fbff430b421d2df4b7d59ec186088ac22020000000000001976a9149581bb45343da37529cb06b42eb3817f48faad1788ac0000000000000000166a146f6d6e69000000000000001f0000002e905894e000000000", "vin": [{"sequence": 4294967295, "scriptSig": {"hex": "483045022100abe8d27029a183705484b581c77d535edb5ae7f7bc14363840f95fe8b7039f21022014dfba304e9c7f7b1fb3281966e43bdf9034c0fbfbd81c5ef224bb1f1fe64bee01210271977291b74f1f5f5c42157e8aae804664eaaeccfd097918450d37f28fb94d77", "asm": "3045022100abe8d27029a183705484b581c77d535edb5ae7f7bc14363840f95fe8b7039f21022014dfba304e9c7f7b1fb3281966e43bdf9034c0fbfbd81c5ef224bb1f1fe64bee[ALL] 0271977291b74f1f5f5c42157e8aae804664eaaeccfd097918450d37f28fb94d77"}, "vout": 0, "txid": "e1899bb6032eb0c28b576fea75213f3d2b29181a1c5dd1aeba90f01b23eb5df6"}], "txid": "40dafedcd399faafe331bdff6d5ef4c6e394522a14689d1c97736d415510ed6b", "blocktime": 1537871767, "version": 1, "confirmations": 11491, "time": 1537871767, "locktime": 0, "vsize": 257, "size": 257}