{"hash": "14ceb57d7c44b9e861e4935d124e1842e9cdb9998a71d932c7338e5512ae4f91", "blockhash": "0000000000000000001cda96e906b7601b7a6fb1a3b62bca570a9e5d8f4b3de1", "vout": [{"scriptPubKey": {"reqSigs": 1, "hex": "a9142f9770b159077cae5ad63b05cc17d7b9b0aa849587", "addresses": ["362f6ovKpeqmwHtQX6yp2TLCAtZzkp3Hcb"], "asm": "OP_HASH160 2f9770b159077cae5ad63b05cc17d7b9b0aa8495 OP_EQUAL", "type": "scripthash"}, "value": 0.01259209, "n": 0}, {"scriptPubKey": {"reqSigs": 1, "hex": "a9140f94f0a02c3fc80cdb3f0f29d9612d6a42d7414e87", "addresses": ["337QUx3sALSJJJ41pUYVPD1fhWBzJso8LF"], "asm": "OP_HASH160 0f94f0a02c3fc80cdb3f0f29d9612d6a42d7414e OP_EQUAL", "type": "scripthash"}, "value": 0.02160734, "n": 1}, {"scriptPubKey": {"reqSigs": 1, "hex": "a914dd9dc6a441b75c3a3cf7d52601fba93d55728ce687", "addresses": ["3MtpGQL5k6tYHku7eJBRa35C5DZGaJGvFy"], "asm": "OP_HASH160 dd9dc6a441b75c3a3cf7d52601fba93d55728ce6 OP_EQUAL", "type": "scripthash"}, "value": 0.69347924, "n": 2}, {"scriptPubKey": {"reqSigs": 1, "hex": "76a9148a77e7c715765823ab0efaaa6ec2343977b7daf588ac", "addresses": ["1Dd9tePJjTwpG26qvf6KW8GN7pBM4TbTPq"], "asm": "OP_DUP OP_HASH160 8a77e7c715765823ab0efaaa6ec2343977b7daf5 OP_EQUALVERIFY OP_CHECKSIG", "type": "pubkeyhash"}, "value": 0.01538066, "n": 3}, {"scriptPubKey": {"reqSigs": 1, "hex": "76a9143e20e12058a600bcbb40ea6f2aee0b5c12d72eb288ac", "addresses": ["16fWHPsD1cDrqpzHkJs7Ch7gxbmjS69TMn"], "asm": "OP_DUP OP_HASH160 3e20e12058a600bcbb40ea6f2aee0b5c12d72eb2 OP_EQUALVERIFY OP_CHECKSIG", "type": "pubkeyhash"}, "value": 0.02517588, "n": 4}, {"scriptPubKey": {"reqSigs": 1, "hex": "76a9143e8ad3e5fe06aecc0d7f8ecfd6d7b4b054a83dc288ac", "addresses": ["16hhCpAQraqhGNEoTsTYR8roQWEvorQZXY"], "asm": "OP_DUP OP_HASH160 3e8ad3e5fe06aecc0d7f8ecfd6d7b4b054a83dc2 OP_EQUALVERIFY OP_CHECKSIG", "type": "pubkeyhash"}, "value": 0.02507002, "n": 5}, {"scriptPubKey": {"reqSigs": 1, "hex": "a9143cf8bfb947b249c634ce452e2080b67c4ab2e12887", "addresses": ["37FQTRzACeC2Se7pgXN1WJH7YA75QsHNXJ"], "asm": "OP_HASH160 3cf8bfb947b249c634ce452e2080b67c4ab2e128 OP_EQUAL", "type": "scripthash"}, "value": 0.20662697, "n": 6}], "hex": "02000000000101d09fb74a06aa98110a9cc065689bf286bf03fd7ec30b4b26a37b6d8cf6c00a8a0000000017160014e7fec46beb57f03258743cf900f0ebebc2abd3b6fdffffff07c93613000000000017a9142f9770b159077cae5ad63b05cc17d7b9b0aa8495875ef820000000000017a9140f94f0a02c3fc80cdb3f0f29d9612d6a42d7414e87542a22040000000017a914dd9dc6a441b75c3a3cf7d52601fba93d55728ce68712781700000000001976a9148a77e7c715765823ab0efaaa6ec2343977b7daf588ac546a2600000000001976a9143e20e12058a600bcbb40ea6f2aee0b5c12d72eb288acfa402600000000001976a9143e8ad3e5fe06aecc0d7f8ecfd6d7b4b054a83dc288aca9493b010000000017a9143cf8bfb947b249c634ce452e2080b67c4ab2e128870247304402207192b446b9a5b4498d221bc51fff290e84dbda27439d158ba3d4ce7ac9ea631d02203c3c28c315ad94c85890da416641523f96a244270a51d97041fa883d9a2a5adc01210252a09071e28978c35f11efb90c6d80ae3196d68f1a2d737b50194f9d6ea8bb7e01000000", "vin": [{"txinwitness": ["304402207192b446b9a5b4498d221bc51fff290e84dbda27439d158ba3d4ce7ac9ea631d02203c3c28c315ad94c85890da416641523f96a244270a51d97041fa883d9a2a5adc01", "0252a09071e28978c35f11efb90c6d80ae3196d68f1a2d737b50194f9d6ea8bb7e"], "sequence": 4294967293, "scriptSig": {"hex": "160014e7fec46beb57f03258743cf900f0ebebc2abd3b6", "asm": "0014e7fec46beb57f03258743cf900f0ebebc2abd3b6"}, "vout": 0, "txid": "8a0ac0f68c6d7ba3264b0bc37efd03bf86f29b6865c09c0a1198aa064ab79fd0"}], "txid": "40def22298b0b7005ecba6a1bfe47c00f11f0c8bc5f3ce61fd4127ebe5913cbe", "blocktime": 1537873282, "version": 2, "confirmations": 11480, "time": 1537873282, "locktime": 1, "vsize": 332, "size": 413}