{"hash": "dd723c7f3901b30fde9a6405dedf7b09a39298d2e563c84018563d1f39efe94f", "blockhash": "0000000000000000000e13cef7c366c0283d82e591d1acd082e914b08063cdf1", "vout": [{"scriptPubKey": {"type": "nulldata", "hex": "6a146f6d6e69000000000000001f0000000372261400", "asm": "OP_RETURN 6f6d6e69000000000000001f0000000372261400"}, "value": 0.0, "n": 0}, {"scriptPubKey": {"reqSigs": 1, "hex": "a914e818e90b8e6b38dba66f74b35cb708bbc73e2ea787", "addresses": ["3NrEXrB9qAxXYfRt6jKtBD8QzoU2qtNWDR"], "asm": "OP_HASH160 e818e90b8e6b38dba66f74b35cb708bbc73e2ea7 OP_EQUAL", "type": "scripthash"}, "value": 2.73e-05, "n": 1}, {"scriptPubKey": {"reqSigs": 1, "hex": "a914e818e90b8e6b38dba66f74b35cb708bbc73e2ea787", "addresses": ["3NrEXrB9qAxXYfRt6jKtBD8QzoU2qtNWDR"], "asm": "OP_HASH160 e818e90b8e6b38dba66f74b35cb708bbc73e2ea7 OP_EQUAL", "type": "scripthash"}, "value": 36.84590136, "n": 2}], "hex": "01000000000102734eb40c4a6e6d3a31ecce1b45b7f6f6a05c7a51d1c6298ed92baab18da02f2202000000171600142ece6388bba28a2b08e71bace7fb74c427cdeba6ffffffffde5fb62c1686f2ac04ecd53cea435fe5a94a5d398828142d775905872a9029ef010000001716001431a2ce0c031351dd9c5dad168af8b76d65147419ffffffff030000000000000000166a146f6d6e69000000000000001f0000000372261400aa0a00000000000017a914e818e90b8e6b38dba66f74b35cb708bbc73e2ea78738629edb0000000017a914e818e90b8e6b38dba66f74b35cb708bbc73e2ea78702473044022072b8bb994df1345276b5a11bfb50c96b0df30b32f4277aa434a78f630ef31af10220180788b9e01ad1dfe41f38b8973876fc5b50c1e28806ecdfab8734c4614c1371012102c86c862e5e0a9238f69bb60aec0102aa19a674f4d34a0a00f8187b88feb46e0002483045022100c487b93fe89175f8bb7eb41ca1b595911b77679aa6d7d65e38a94cbcf3d190d602204ed3c930ccae464bc024d9f523e8fa760267247dd29ec771af1771192f417e7601210221a47cdb1df834e604d49ce29497c00a12d0daec0ae8a10a6ce689780b05085300000000", "vin": [{"txinwitness": ["3044022072b8bb994df1345276b5a11bfb50c96b0df30b32f4277aa434a78f630ef31af10220180788b9e01ad1dfe41f38b8973876fc5b50c1e28806ecdfab8734c4614c137101", "02c86c862e5e0a9238f69bb60aec0102aa19a674f4d34a0a00f8187b88feb46e00"], "sequence": 4294967295, "scriptSig": {"hex": "1600142ece6388bba28a2b08e71bace7fb74c427cdeba6", "asm": "00142ece6388bba28a2b08e71bace7fb74c427cdeba6"}, "vout": 2, "txid": "222fa08db1aa2bd98e29c6d1517a5ca0f6f6b7451bceec313a6d6e4a0cb44e73"}, {"txinwitness": ["3045022100c487b93fe89175f8bb7eb41ca1b595911b77679aa6d7d65e38a94cbcf3d190d602204ed3c930ccae464bc024d9f523e8fa760267247dd29ec771af1771192f417e7601", "0221a47cdb1df834e604d49ce29497c00a12d0daec0ae8a10a6ce689780b050853"], "sequence": 4294967295, "scriptSig": {"hex": "16001431a2ce0c031351dd9c5dad168af8b76d65147419", "asm": "001431a2ce0c031351dd9c5dad168af8b76d65147419"}, "vout": 1, "txid": "ef29902a870559772d142888395d4aa9e55f43ea3cd5ec04acf286162cb65fde"}], "txid": "40de9b02f8f6f429178f180cfc1185393b1778f8f52fd577747f8e4265cda9b1", "blocktime": 1537871767, "version": 1, "confirmations": 11493, "time": 1537871767, "locktime": 0, "vsize": 288, "size": 450}