{"hash": "3932623fad2e998ee3a8026347116bab67d45a684950dd6711626f5a3c8820a2", "blockhash": "0000000000000000000e13cef7c366c0283d82e591d1acd082e914b08063cdf1", "vout": [{"scriptPubKey": {"reqSigs": 1, "hex": "76a91462f9a19bb360a0c3c690c954a73ac93b0defb7bb88ac", "addresses": ["1A2LGV8JrkBhHwfUaMMLy55eF2uQ2wYnWE"], "asm": "OP_DUP OP_HASH160 62f9a19bb360a0c3c690c954a73ac93b0defb7bb OP_EQUALVERIFY OP_CHECKSIG", "type": "pubkeyhash"}, "value": 0.010552, "n": 0}, {"scriptPubKey": {"reqSigs": 1, "hex": "0014720622c32f1b3c74a81179dd57e15e1a3fe0850a", "addresses": ["bc1qwgrz9se0rv78f2q308w40c27rgl7ppg2xngjsx"], "asm": "0 720622c32f1b3c74a81179dd57e15e1a3fe0850a", "type": "witness_v0_keyhash"}, "value": 1.86587147, "n": 1}], "hex": "010000000001010fde63e73130686a533e9ee0e8e7d12a04e1cd07aafbb307ad9e387a73c008880000000000ffffffff02e0191000000000001976a91462f9a19bb360a0c3c690c954a73ac93b0defb7bb88ac0b181f0b00000000160014720622c32f1b3c74a81179dd57e15e1a3fe0850a024830450221008c9b513785d172c3ca0bf25f58b5f71b0bf387661f8f24e855580eb4afe1b80102205f1afe18876dee00a39e2370082a5ec8dad8b462602ccf69733b9bb86704868f012102ec0bbe1ee881b0e025289806a0a159c37cd11fbcf8aa6e9341cf60ab76951bb200000000", "vin": [{"txinwitness": ["30450221008c9b513785d172c3ca0bf25f58b5f71b0bf387661f8f24e855580eb4afe1b80102205f1afe18876dee00a39e2370082a5ec8dad8b462602ccf69733b9bb86704868f01", "02ec0bbe1ee881b0e025289806a0a159c37cd11fbcf8aa6e9341cf60ab76951bb2"], "sequence": 4294967295, "scriptSig": {"hex": "", "asm": ""}, "vout": 0, "txid": "8808c0737a389ead07b3fbaa07cde1042ad1e7e8e09e3e536a683031e763de0f"}], "txid": "40e4bdf80d26625bed8e522593902287e37f74f910ed68e3784d4fbc70c5987d", "blocktime": 1537871767, "version": 1, "confirmations": 11495, "time": 1537871767, "locktime": 0, "vsize": 144, "size": 226}