{"hash": "69417e2d0cbe140b3bc9dd36fa50a8d6c4ce10edcedad42552b97c9f24482007", "blockhash": "0000000000000000000e13cef7c366c0283d82e591d1acd082e914b08063cdf1", "vout": [{"scriptPubKey": {"reqSigs": 1, "hex": "a9141c4a5811d933f35b778ae502a8b9fadb4f87e98687", "addresses": ["34GbuRnqaLVLT735Yr58rMAUXU1eG6PRgr"], "asm": "OP_HASH160 1c4a5811d933f35b778ae502a8b9fadb4f87e986 OP_EQUAL", "type": "scripthash"}, "value": 1.47284967, "n": 0}, {"scriptPubKey": {"reqSigs": 1, "hex": "76a914d4dffd0add35ac570367a0bf525d26cb623ebc8488ac", "addresses": ["1LQaafB8vTkrMfvrCjrZPGYuEhT7qLSQqm"], "asm": "OP_DUP OP_HASH160 d4dffd0add35ac570367a0bf525d26cb623ebc84 OP_EQUALVERIFY OP_CHECKSIG", "type": "pubkeyhash"}, "value": 0.064, "n": 1}], "hex": "02000000000101e3dab423a51325a55d217764d2f6ab2ff067c21afc05556b828f4e6a0275cc770000000017160014c53bb0f7345cbdc3170cc74acdcf36f08699043bffffffff02e763c7080000000017a9141c4a5811d933f35b778ae502a8b9fadb4f87e9868700a86100000000001976a914d4dffd0add35ac570367a0bf525d26cb623ebc8488ac02483045022100e120d8bd4011a87fe949581ce845fd0eeeadab02bb08ca413c62c24cecd65a8702203541f7acea227ffe49037786cc09fd04cb8da43e98ea527a3510d03a04461d61012103f9b75c512bd2340fd6dba50d91decc5f77e2bc7aade703a37a7f99f08b30ce9400000000", "vin": [{"txinwitness": ["3045022100e120d8bd4011a87fe949581ce845fd0eeeadab02bb08ca413c62c24cecd65a8702203541f7acea227ffe49037786cc09fd04cb8da43e98ea527a3510d03a04461d6101", "03f9b75c512bd2340fd6dba50d91decc5f77e2bc7aade703a37a7f99f08b30ce94"], "sequence": 4294967295, "scriptSig": {"hex": "160014c53bb0f7345cbdc3170cc74acdcf36f08699043b", "asm": "0014c53bb0f7345cbdc3170cc74acdcf36f08699043b"}, "vout": 0, "txid": "77cc75026a4e8f826b5505fc1ac267f02fabf6d26477215da52513a523b4dae3"}], "txid": "40e4fd4a9b27a51254b359ce8af9a746a46c4c2f7598d6e2b190f7f8b7fe81c2", "blocktime": 1537871767, "version": 2, "confirmations": 11493, "time": 1537871767, "locktime": 0, "vsize": 168, "size": 250}