{"hash": "40e7951c32f9808a6f0b8b7e59a8112ceffc91f2a29dd9a27fb5ea2fc4ce5f2c", "blockhash": "0000000000000000000dcc0f55137456b1a82d3642486a52398922ac4d620174", "vout": [{"scriptPubKey": {"reqSigs": 1, "hex": "76a9147469629737f9da8ddde042e3c2dba984eb3984de88ac", "addresses": ["1BcXdYFcvTFj5CdeA6wB9XTRg4V8jq8EQx"], "asm": "OP_DUP OP_HASH160 7469629737f9da8ddde042e3c2dba984eb3984de OP_EQUALVERIFY OP_CHECKSIG", "type": "pubkeyhash"}, "value": 5.895e-05, "n": 0}, {"scriptPubKey": {"reqSigs": 1, "hex": "a914766e0654126fdadc9635434ae29bfabbaa55e5a887", "addresses": ["3CVDTqArXV5ghgX75DK53AbS6ZWuyRHWFa"], "asm": "OP_HASH160 766e0654126fdadc9635434ae29bfabbaa55e5a8 OP_EQUAL", "type": "scripthash"}, "value": 0.00192, "n": 1}], "hex": "01000000029884ee7529551daceaa59121564d8e432934cc912a2bd2ab4b50c12e16222d88000000006a47304402207e690fe5c8609ad8c124355233a96e53247ff497a448c71bf6eead3fc279507e02200e61d18e9242db56d07a74b33e9f8f9264bb4c75b084f6090840cae1395c02380121026ea646fb14c6ade85bbaaa7626ca2add10a7e7112bd4cc7f730acbf147bfb27dffffffff2dc4f6786c0fa2b9be5136d41181544c3bd86b945732ec6926ed2d3bfd5153a2010000006a4730440220285e584d19d91cc0429d7b378beb837cded0bd17d0b3cb383fbf16b78a8b4b4f02202f6afac727a38ca0854f662c81e7f45dd981b890a27c50262c83243f9c497026012102eff691d7e13371ae8de2406445624420baa2832fab40ebd700b11bdffa665195ffffffff0207170000000000001976a9147469629737f9da8ddde042e3c2dba984eb3984de88ac00ee02000000000017a914766e0654126fdadc9635434ae29bfabbaa55e5a88700000000", "vin": [{"sequence": 4294967295, "scriptSig": {"hex": "47304402207e690fe5c8609ad8c124355233a96e53247ff497a448c71bf6eead3fc279507e02200e61d18e9242db56d07a74b33e9f8f9264bb4c75b084f6090840cae1395c02380121026ea646fb14c6ade85bbaaa7626ca2add10a7e7112bd4cc7f730acbf147bfb27d", "asm": "304402207e690fe5c8609ad8c124355233a96e53247ff497a448c71bf6eead3fc279507e02200e61d18e9242db56d07a74b33e9f8f9264bb4c75b084f6090840cae1395c0238[ALL] 026ea646fb14c6ade85bbaaa7626ca2add10a7e7112bd4cc7f730acbf147bfb27d"}, "vout": 0, "txid": "882d22162ec1504babd22b2a91cc3429438e4d562191a5eaac1d552975ee8498"}, {"sequence": 4294967295, "scriptSig": {"hex": "4730440220285e584d19d91cc0429d7b378beb837cded0bd17d0b3cb383fbf16b78a8b4b4f02202f6afac727a38ca0854f662c81e7f45dd981b890a27c50262c83243f9c497026012102eff691d7e13371ae8de2406445624420baa2832fab40ebd700b11bdffa665195", "asm": "30440220285e584d19d91cc0429d7b378beb837cded0bd17d0b3cb383fbf16b78a8b4b4f02202f6afac727a38ca0854f662c81e7f45dd981b890a27c50262c83243f9c497026[ALL] 02eff691d7e13371ae8de2406445624420baa2832fab40ebd700b11bdffa665195"}, "vout": 1, "txid": "a25351fd3b2ded2669ec3257946bd83b4c548111d43651beb9a20f6c78f6c42d"}], "txid": "40e7951c32f9808a6f0b8b7e59a8112ceffc91f2a29dd9a27fb5ea2fc4ce5f2c", "blocktime": 1537870268, "version": 1, "confirmations": 11518, "time": 1537870268, "locktime": 0, "vsize": 370, "size": 370}