{"hash": "40e9f15a69cc27edfad1bb11e9f0c01ed6a04df51fa61a153e6a231cd1c18701", "blockhash": "00000000000000000004ffacab907a6b429b9a5745fa0b75af4234bf69dd7176", "vout": [{"scriptPubKey": {"reqSigs": 1, "hex": "a914b4ed57fbeccc0333c0ee19138417f89350fdd29987", "addresses": ["3JBft14BvxwPte6DcxytfCDXmfpV1Hzn2Y"], "asm": "OP_HASH160 b4ed57fbeccc0333c0ee19138417f89350fdd299 OP_EQUAL", "type": "scripthash"}, "value": 1.9, "n": 0}, {"scriptPubKey": {"reqSigs": 1, "hex": "76a91471b4bff28a7a710bcec7e6718f7e3ebd3cb98cc488ac", "addresses": ["1BNDtPnAnpVYDcpVCeVwHMNh9KnRBQS58s"], "asm": "OP_DUP OP_HASH160 71b4bff28a7a710bcec7e6718f7e3ebd3cb98cc4 OP_EQUALVERIFY OP_CHECKSIG", "type": "pubkeyhash"}, "value": 0.87105637, "n": 1}], "hex": "0100000002d3ab2c36ff4a6aaf9d3622e2c2af0f90023010ae1eeee33ab04739bbe0d92197010000006b4830450221009bd3c6ffd064fac207136819d569f772c78b94d2b5fa0975f6bcc3b6bdaaaf1a02200e08b910bd470760f90d5310b5989158f76c3babcf9b2136b745c5ec846410730121037de705e8b77bb4f2eb9dc65d77f079fd56ab0e2de5339cd4081a4499241fbcbeffffffff50097b676f7be946420eca823456a57dcceb4035dc481efd5cfcd1af53f33464010000006b483045022100dc8e3f1a82ed7754371cb586b884b9601ba0f607076bded81987c7271bc57178022029f3e64171eb67c07a2b8698383206bc4db43b9b3eb9603ebda4971a8b1fcbcd012103cbe6e0c785a7e9c81d7bd8fc769d7372c5562e44a23d39d2ef76dd04f3ef9c03ffffffff02802b530b0000000017a914b4ed57fbeccc0333c0ee19138417f89350fdd2998765203105000000001976a91471b4bff28a7a710bcec7e6718f7e3ebd3cb98cc488ac00000000", "vin": [{"sequence": 4294967295, "scriptSig": {"hex": "4830450221009bd3c6ffd064fac207136819d569f772c78b94d2b5fa0975f6bcc3b6bdaaaf1a02200e08b910bd470760f90d5310b5989158f76c3babcf9b2136b745c5ec846410730121037de705e8b77bb4f2eb9dc65d77f079fd56ab0e2de5339cd4081a4499241fbcbe", "asm": "30450221009bd3c6ffd064fac207136819d569f772c78b94d2b5fa0975f6bcc3b6bdaaaf1a02200e08b910bd470760f90d5310b5989158f76c3babcf9b2136b745c5ec84641073[ALL] 037de705e8b77bb4f2eb9dc65d77f079fd56ab0e2de5339cd4081a4499241fbcbe"}, "vout": 1, "txid": "9721d9e0bb3947b03ae3ee1eae103002900fafc2e222369daf6a4aff362cabd3"}, {"sequence": 4294967295, "scriptSig": {"hex": "483045022100dc8e3f1a82ed7754371cb586b884b9601ba0f607076bded81987c7271bc57178022029f3e64171eb67c07a2b8698383206bc4db43b9b3eb9603ebda4971a8b1fcbcd012103cbe6e0c785a7e9c81d7bd8fc769d7372c5562e44a23d39d2ef76dd04f3ef9c03", "asm": "3045022100dc8e3f1a82ed7754371cb586b884b9601ba0f607076bded81987c7271bc57178022029f3e64171eb67c07a2b8698383206bc4db43b9b3eb9603ebda4971a8b1fcbcd[ALL] 03cbe6e0c785a7e9c81d7bd8fc769d7372c5562e44a23d39d2ef76dd04f3ef9c03"}, "vout": 1, "txid": "6434f353afd1fc5cfd1e48dc3540ebcc7da5563482ca0e4246e97b6f677b0950"}], "txid": "40e9f15a69cc27edfad1bb11e9f0c01ed6a04df51fa61a153e6a231cd1c18701", "blocktime": 1537875543, "version": 1, "confirmations": 11464, "time": 1537875543, "locktime": 0, "vsize": 372, "size": 372}