{"hash": "40eee87bbfd8c8b1d4f18be6410af7ae73a4f5d0be34c0b850b40a69f484408e", "blockhash": "00000000000000000017f5eb5941039fbcee6240d03bc1f2f8e35350df66a1d8", "vout": [{"scriptPubKey": {"reqSigs": 1, "hex": "76a914913211c24f1332dee71f3bb51dc4e287ac4fea5088ac", "addresses": ["1EEixhPP9N4BQqkWStEGnVtejvRAA35wBT"], "asm": "OP_DUP OP_HASH160 913211c24f1332dee71f3bb51dc4e287ac4fea50 OP_EQUALVERIFY OP_CHECKSIG", "type": "pubkeyhash"}, "value": 0.00388316, "n": 0}, {"scriptPubKey": {"reqSigs": 1, "hex": "a914e867c623a01582767695ef9e33abd8e4c889447887", "addresses": ["3Nss1Pdf5ke1zdB7NvUfj2c7FFBJB1NtqM"], "asm": "OP_HASH160 e867c623a01582767695ef9e33abd8e4c8894478 OP_EQUAL", "type": "scripthash"}, "value": 0.00827206, "n": 1}], "hex": "0100000001d61df3ef6a6cee1ec23785434cab0c0d6edd58fd6ca09fb079b7a20423997d52010000006a47304402204b8629a74a0f6d31b2296b9837ac13438c467253d414934eb4ac92827ab382dd02203c4656264f88b055e96bb80f4b6368ec9e1057fe0efa358cb8d4ddec4f21b246012102e668369a90cc09b5c89316d6dc79391c586fe8aec58d8f5e90b0566616a60bacfdffffff02dcec0500000000001976a914913211c24f1332dee71f3bb51dc4e287ac4fea5088ac469f0c000000000017a914e867c623a01582767695ef9e33abd8e4c88944788715490800", "vin": [{"sequence": 4294967293, "scriptSig": {"hex": "47304402204b8629a74a0f6d31b2296b9837ac13438c467253d414934eb4ac92827ab382dd02203c4656264f88b055e96bb80f4b6368ec9e1057fe0efa358cb8d4ddec4f21b246012102e668369a90cc09b5c89316d6dc79391c586fe8aec58d8f5e90b0566616a60bac", "asm": "304402204b8629a74a0f6d31b2296b9837ac13438c467253d414934eb4ac92827ab382dd02203c4656264f88b055e96bb80f4b6368ec9e1057fe0efa358cb8d4ddec4f21b246[ALL] 02e668369a90cc09b5c89316d6dc79391c586fe8aec58d8f5e90b0566616a60bac"}, "vout": 1, "txid": "527d992304a2b779b09fa06cfd58dd6e0d0cab4c438537c21eee6c6aeff31dd6"}], "txid": "40eee87bbfd8c8b1d4f18be6410af7ae73a4f5d0be34c0b850b40a69f484408e", "blocktime": 1537874412, "version": 1, "confirmations": 11467, "time": 1537874412, "locktime": 542997, "vsize": 223, "size": 223}