{"hash": "40f9e5e0bd1d67e093249996c49705b4cd811399fd3b0c02d3d16422e1c29d57", "blockhash": "00000000000000000018f53835495a110e01622372bf6ae95dc86f2b0ab887b0", "vout": [{"scriptPubKey": {"reqSigs": 1, "hex": "76a9149cdafbbd11c24b8526863640ccd167d0673930da88ac", "addresses": ["1FJNkA2nVCEdC7qE2dMLqbR7TFAHbkSEc8"], "asm": "OP_DUP OP_HASH160 9cdafbbd11c24b8526863640ccd167d0673930da OP_EQUALVERIFY OP_CHECKSIG", "type": "pubkeyhash"}, "value": 0.00390086, "n": 0}, {"scriptPubKey": {"reqSigs": 1, "hex": "76a9142165d396196da12c0c786765fbd790341b1e105b88ac", "addresses": ["143bHMu1dcdZmMCnt8UkP7yXRa1P8AfFGK"], "asm": "OP_DUP OP_HASH160 2165d396196da12c0c786765fbd790341b1e105b OP_EQUALVERIFY OP_CHECKSIG", "type": "pubkeyhash"}, "value": 0.02345936, "n": 1}], "hex": "0100000001025e9ffa04d90b5f1a962c356018448639c97372a5de2e25b6e10989348241c1010000006a47304402201495c24b8d9426da630f88372fc55a580028b6045c91c5d5d006e19fe32cdc0902207134e5eb041704a92cbae58c97a0de105883da6babce97d3008d9552b1941937012102e45f1108064e0ba93b35912931608d40b90cd9cf098a811372454153c78cdc44ffffffff02c6f30500000000001976a9149cdafbbd11c24b8526863640ccd167d0673930da88acd0cb2300000000001976a9142165d396196da12c0c786765fbd790341b1e105b88ac00000000", "vin": [{"sequence": 4294967295, "scriptSig": {"hex": "47304402201495c24b8d9426da630f88372fc55a580028b6045c91c5d5d006e19fe32cdc0902207134e5eb041704a92cbae58c97a0de105883da6babce97d3008d9552b1941937012102e45f1108064e0ba93b35912931608d40b90cd9cf098a811372454153c78cdc44", "asm": "304402201495c24b8d9426da630f88372fc55a580028b6045c91c5d5d006e19fe32cdc0902207134e5eb041704a92cbae58c97a0de105883da6babce97d3008d9552b1941937[ALL] 02e45f1108064e0ba93b35912931608d40b90cd9cf098a811372454153c78cdc44"}, "vout": 1, "txid": "c14182348909e1b6252edea57273c93986441860352c961a5f0bd904fa9f5e02"}], "txid": "40f9e5e0bd1d67e093249996c49705b4cd811399fd3b0c02d3d16422e1c29d57", "blocktime": 1537870928, "version": 1, "confirmations": 11512, "time": 1537870928, "locktime": 0, "vsize": 225, "size": 225}