{"hash": "41050a4082b85b5584b695f1fe2174d6bb40674a250de40e3071b7ae2e76aee9", "blockhash": "0000000000000000001e0dab787dd257d1dbfcb92a98c2207d5e1078be1f4165", "vout": [{"scriptPubKey": {"reqSigs": 1, "hex": "76a9142387af67025e2d94adf308de70a3a86268bf7e6a88ac", "addresses": ["14EsCHWYKPKeCrGvSXrSjd5pjGpVmnmqXm"], "asm": "OP_DUP OP_HASH160 2387af67025e2d94adf308de70a3a86268bf7e6a OP_EQUALVERIFY OP_CHECKSIG", "type": "pubkeyhash"}, "value": 0.002973, "n": 0}, {"scriptPubKey": {"reqSigs": 1, "hex": "76a91427d596d18c19992955da677cb53f05ec0e158e3a88ac", "addresses": ["14ddDv3tbo5pTpZrGgNUdBSokrP8aKrd1N"], "asm": "OP_DUP OP_HASH160 27d596d18c19992955da677cb53f05ec0e158e3a OP_EQUALVERIFY OP_CHECKSIG", "type": "pubkeyhash"}, "value": 0.10412729, "n": 1}], "hex": "010000000136f469d932ba62b47931e71d02db01e32cb9af1fa1cd05404aadd8fe62315954010000006b483045022100a7a04742bcc5fbdfa22ae0921ee8ca096f47e01a34bafd244826e9226c5a6b70022007e876194ada3ea69f620882c113b691adc5a2d79ce37f21f138bcce2f75fc060121030c93de1766f52cdd5c8f9c77165192c36d3a1c394f98165f2e2451d7b1ae636dffffffff0254890400000000001976a9142387af67025e2d94adf308de70a3a86268bf7e6a88acb9e29e00000000001976a91427d596d18c19992955da677cb53f05ec0e158e3a88ac00000000", "vin": [{"sequence": 4294967295, "scriptSig": {"hex": "483045022100a7a04742bcc5fbdfa22ae0921ee8ca096f47e01a34bafd244826e9226c5a6b70022007e876194ada3ea69f620882c113b691adc5a2d79ce37f21f138bcce2f75fc060121030c93de1766f52cdd5c8f9c77165192c36d3a1c394f98165f2e2451d7b1ae636d", "asm": "3045022100a7a04742bcc5fbdfa22ae0921ee8ca096f47e01a34bafd244826e9226c5a6b70022007e876194ada3ea69f620882c113b691adc5a2d79ce37f21f138bcce2f75fc06[ALL] 030c93de1766f52cdd5c8f9c77165192c36d3a1c394f98165f2e2451d7b1ae636d"}, "vout": 1, "txid": "54593162fed8ad4a4005cda11fafb92ce301db021de73179b462ba32d969f436"}], "txid": "41050a4082b85b5584b695f1fe2174d6bb40674a250de40e3071b7ae2e76aee9", "blocktime": 1537872475, "version": 1, "confirmations": 11486, "time": 1537872475, "locktime": 0, "vsize": 226, "size": 226}