{"hash": "4109928c94a2b2018384bbd7d1700c3c4b9b24ce881de20bbbab812148283931", "blockhash": "0000000000000000000e13cef7c366c0283d82e591d1acd082e914b08063cdf1", "vout": [{"scriptPubKey": {"reqSigs": 1, "hex": "a914fcf5bf9c484629af26df8bc58596dfef2371944687", "addresses": ["3QkYbnhFZS3Jk8oiBPG9g9P4w8y4PyT33r"], "asm": "OP_HASH160 fcf5bf9c484629af26df8bc58596dfef23719446 OP_EQUAL", "type": "scripthash"}, "value": 0.01406144, "n": 0}, {"scriptPubKey": {"reqSigs": 1, "hex": "76a914cfb19ca537036b8e761abbeddbb3109f22d4ce7588ac", "addresses": ["1KwBeQBrARow2QVyHTvwzk9dnqHJfbfLuh"], "asm": "OP_DUP OP_HASH160 cfb19ca537036b8e761abbeddbb3109f22d4ce75 OP_EQUALVERIFY OP_CHECKSIG", "type": "pubkeyhash"}, "value": 0.04599186, "n": 1}], "hex": "0100000001a7cb5de0607d6a4febe52b7e0f3f5d45aef9bc5a6cbeb071cb550fc6c579666e010000006b48304502210086bbed63c3bd2bec70c7a37c36c059b37b9f39182e9efb55c75ebfc38c882535022016f1321a5b3c7ac029371295c0b50c399916c695d997650324e164c2f6fb19190121021f45a8f24ecbaf8a5b4d49768ab38d70b84edc1825c875f99ee5609ef0b6ef8effffffff02c07415000000000017a914fcf5bf9c484629af26df8bc58596dfef2371944687922d4600000000001976a914cfb19ca537036b8e761abbeddbb3109f22d4ce7588ac00000000", "vin": [{"sequence": 4294967295, "scriptSig": {"hex": "48304502210086bbed63c3bd2bec70c7a37c36c059b37b9f39182e9efb55c75ebfc38c882535022016f1321a5b3c7ac029371295c0b50c399916c695d997650324e164c2f6fb19190121021f45a8f24ecbaf8a5b4d49768ab38d70b84edc1825c875f99ee5609ef0b6ef8e", "asm": "304502210086bbed63c3bd2bec70c7a37c36c059b37b9f39182e9efb55c75ebfc38c882535022016f1321a5b3c7ac029371295c0b50c399916c695d997650324e164c2f6fb1919[ALL] 021f45a8f24ecbaf8a5b4d49768ab38d70b84edc1825c875f99ee5609ef0b6ef8e"}, "vout": 1, "txid": "6e6679c5c60f55cb71b0be6c5abcf9ae455d3f0f7e2be5eb4f6a7d60e05dcba7"}], "txid": "4109928c94a2b2018384bbd7d1700c3c4b9b24ce881de20bbbab812148283931", "blocktime": 1537871767, "version": 1, "confirmations": 11495, "time": 1537871767, "locktime": 0, "vsize": 224, "size": 224}