{"hash": "41106c4df29918e73fee81dde5d021fbb770178200718e64aaa075b575693682", "blockhash": "00000000000000000018f53835495a110e01622372bf6ae95dc86f2b0ab887b0", "vout": [{"scriptPubKey": {"reqSigs": 1, "hex": "76a9141f95654c2c7e369914859b601a90892350bb773e88ac", "addresses": ["13szv9D3AHoszRkoC4VeSeXuYE1ePoQBY2"], "asm": "OP_DUP OP_HASH160 1f95654c2c7e369914859b601a90892350bb773e OP_EQUALVERIFY OP_CHECKSIG", "type": "pubkeyhash"}, "value": 0.0095226, "n": 0}, {"scriptPubKey": {"reqSigs": 1, "hex": "76a914133fc25d43054526a99fe03ae4f684294ec8dc9a88ac", "addresses": ["12knDiRLAohRnAmRfzLwt5RiJJu8KbeUp7"], "asm": "OP_DUP OP_HASH160 133fc25d43054526a99fe03ae4f684294ec8dc9a OP_EQUALVERIFY OP_CHECKSIG", "type": "pubkeyhash"}, "value": 0.005, "n": 1}], "hex": "02000000042750163223eb145c8cb21a62de0f87d44c5f9c3def1f36a0f30c6178c2bca1fa090000006a4730440220109a90d2cb3b01b41ac188efbe59356ff0501945f4a629c1ed78b712b1b4957b0220333547e4e7a2f0c3c7001376afb2528d5435c1e18717207be9a0461304414a170121036ec8db67f0225165ade5eafe6528b08996dfa343780355bfe0a4936e6fddc94bfeffffffb228f03b110d77b50cc98014bee8e184fdd968b56d9397e5811d790045b06a47000000006b483045022100dc3edc1579d84f79e5d0eca0b65362b4c1071362572addc193e03337ae4d73d102206e6807c1fd9f44f134e261e920eaeb1eb32deccdc23a0d4de320c06ed505878c012103f16caf0d9f1683257fb1cfeec5c7524c6658b629c5ca1071a5685055f6ee3e0dfeffffffc0ffe871618f097d6ab6a25e524768eda604752123a3d4d5c350203265c05169770000006a47304402206c66df20ff0549c6b489cb057b7728be1f4dbdb573fcf6e48dd1ed4e8f82801202204cd670bc8d59bde6b930bd9893d15a7ee0bf3dfc4c055fbb3ddbd77106c8758c012103e6e330a7765ad054124dcec87579b63cb4297a63e4dec0342671045a509d99f4fefffffff13a691ff43360932e98d3dd2886e9bc48c11942443e8535d86f86156c5de634010000006a47304402200771b5026f43e0e5183c46c97a335ae3f3a1cd4058913b16f0f7165075880d16022061d777639a9feb62baa3c860ac9602f7e229b2a4be26e23b05ccf3db32c4c30e0121022ee180ba86001c42abd6dc044c4271e1308812bc78cb5f9922287c6b18e688fffeffffff02c4870e00000000001976a9141f95654c2c7e369914859b601a90892350bb773e88ac20a10700000000001976a914133fc25d43054526a99fe03ae4f684294ec8dc9a88ac0e490800", "vin": [{"sequence": 4294967294, "scriptSig": {"hex": "4730440220109a90d2cb3b01b41ac188efbe59356ff0501945f4a629c1ed78b712b1b4957b0220333547e4e7a2f0c3c7001376afb2528d5435c1e18717207be9a0461304414a170121036ec8db67f0225165ade5eafe6528b08996dfa343780355bfe0a4936e6fddc94b", "asm": "30440220109a90d2cb3b01b41ac188efbe59356ff0501945f4a629c1ed78b712b1b4957b0220333547e4e7a2f0c3c7001376afb2528d5435c1e18717207be9a0461304414a17[ALL] 036ec8db67f0225165ade5eafe6528b08996dfa343780355bfe0a4936e6fddc94b"}, "vout": 9, "txid": "faa1bcc278610cf3a0361fef3d9c5f4cd4870fde621ab28c5c14eb2332165027"}, {"sequence": 4294967294, "scriptSig": {"hex": "483045022100dc3edc1579d84f79e5d0eca0b65362b4c1071362572addc193e03337ae4d73d102206e6807c1fd9f44f134e261e920eaeb1eb32deccdc23a0d4de320c06ed505878c012103f16caf0d9f1683257fb1cfeec5c7524c6658b629c5ca1071a5685055f6ee3e0d", "asm": "3045022100dc3edc1579d84f79e5d0eca0b65362b4c1071362572addc193e03337ae4d73d102206e6807c1fd9f44f134e261e920eaeb1eb32deccdc23a0d4de320c06ed505878c[ALL] 03f16caf0d9f1683257fb1cfeec5c7524c6658b629c5ca1071a5685055f6ee3e0d"}, "vout": 0, "txid": "476ab04500791d81e597936db568d9fd84e1e8be1480c90cb5770d113bf028b2"}, {"sequence": 4294967294, "scriptSig": {"hex": "47304402206c66df20ff0549c6b489cb057b7728be1f4dbdb573fcf6e48dd1ed4e8f82801202204cd670bc8d59bde6b930bd9893d15a7ee0bf3dfc4c055fbb3ddbd77106c8758c012103e6e330a7765ad054124dcec87579b63cb4297a63e4dec0342671045a509d99f4", "asm": "304402206c66df20ff0549c6b489cb057b7728be1f4dbdb573fcf6e48dd1ed4e8f82801202204cd670bc8d59bde6b930bd9893d15a7ee0bf3dfc4c055fbb3ddbd77106c8758c[ALL] 03e6e330a7765ad054124dcec87579b63cb4297a63e4dec0342671045a509d99f4"}, "vout": 119, "txid": "6951c065322050c3d5d4a323217504a6ed6847525ea2b66a7d098f6171e8ffc0"}, {"sequence": 4294967294, "scriptSig": {"hex": "47304402200771b5026f43e0e5183c46c97a335ae3f3a1cd4058913b16f0f7165075880d16022061d777639a9feb62baa3c860ac9602f7e229b2a4be26e23b05ccf3db32c4c30e0121022ee180ba86001c42abd6dc044c4271e1308812bc78cb5f9922287c6b18e688ff", "asm": "304402200771b5026f43e0e5183c46c97a335ae3f3a1cd4058913b16f0f7165075880d16022061d777639a9feb62baa3c860ac9602f7e229b2a4be26e23b05ccf3db32c4c30e[ALL] 022ee180ba86001c42abd6dc044c4271e1308812bc78cb5f9922287c6b18e688ff"}, "vout": 1, "txid": "34e65d6c15866fd835853e444219c148bce98628ddd3982e936033f41f693af1"}], "txid": "41106c4df29918e73fee81dde5d021fbb770178200718e64aaa075b575693682", "blocktime": 1537870928, "version": 2, "confirmations": 11512, "time": 1537870928, "locktime": 542990, "vsize": 667, "size": 667}