{"hash": "973aa9463e8ce82dbd658e00437afec23ba19bb8a0a813dec3f9054334b17e01", "blockhash": "00000000000000000024a2167bbff67b0be802c0b01cdd79e6331c2be6459f87", "vout": [{"scriptPubKey": {"reqSigs": 1, "hex": "001466d79bd5ac0847fc9463d71107eedb55546228f0", "addresses": ["bc1qvmteh4dvpprle9rr6ugs0mkm242xy28sepjspe"], "asm": "0 66d79bd5ac0847fc9463d71107eedb55546228f0", "type": "witness_v0_keyhash"}, "value": 1.441e-05, "n": 0}, {"scriptPubKey": {"reqSigs": 1, "hex": "a9140e967fa24f7df68b3b322be064a40ea09d0f8b5f87", "addresses": ["3329g43oF1NRcc2zSZyTJ9vHmWNEijJvV2"], "asm": "OP_HASH160 0e967fa24f7df68b3b322be064a40ea09d0f8b5f OP_EQUAL", "type": "scripthash"}, "value": 0.0011298, "n": 1}], "hex": "01000000000101bc16b2f2aa9983ae9ffcd19a2603474e0d22de618508dd8cbb5cbb27e5e0afdf0100000000ffffffff02a10500000000000016001466d79bd5ac0847fc9463d71107eedb55546228f054b901000000000017a9140e967fa24f7df68b3b322be064a40ea09d0f8b5f8702473044022010d66c12a599c1abc4012033e623584dfa97cbd64163292173b093b08b6727f802201766a330a2067d695e808a52df5015c4d56521aab781c74e6b17c37104606a48012102b091e01475107a12711ac8f9ff03fb91bdbf8dba41781a33bcde146885074a5900000000", "vin": [{"txinwitness": ["3044022010d66c12a599c1abc4012033e623584dfa97cbd64163292173b093b08b6727f802201766a330a2067d695e808a52df5015c4d56521aab781c74e6b17c37104606a4801", "02b091e01475107a12711ac8f9ff03fb91bdbf8dba41781a33bcde146885074a59"], "sequence": 4294967295, "scriptSig": {"hex": "", "asm": ""}, "vout": 1, "txid": "dfafe0e527bb5cbb8cdd088561de220d4e4703269ad1fc9fae8399aaf2b216bc"}], "txid": "41182f96f77ec9c4cbec56e11df5e3cdafea1ce7237d42528f341d84767c8643", "blocktime": 1537870564, "version": 1, "confirmations": 11515, "time": 1537870564, "locktime": 0, "vsize": 142, "size": 223}