{"hash": "4119e87ee615479b39543d671286fd52d3cb53a841907bae69bccca61269bb73", "blockhash": "0000000000000000000e13cef7c366c0283d82e591d1acd082e914b08063cdf1", "vout": [{"scriptPubKey": {"reqSigs": 1, "hex": "a914e29ee209f4c3190e5f2a8c5049645426a76af25587", "addresses": ["3NMGyH9vFRKVSrfVxfGKJS1vZ3qvEywxFU"], "asm": "OP_HASH160 e29ee209f4c3190e5f2a8c5049645426a76af255 OP_EQUAL", "type": "scripthash"}, "value": 0.013279, "n": 0}, {"scriptPubKey": {"reqSigs": 1, "hex": "76a9142029a495f346666b8b913dd4674da7f4078d518088ac", "addresses": ["13w4WYFrNueBxpurNDEtr31xQQP4Jp2L6F"], "asm": "OP_DUP OP_HASH160 2029a495f346666b8b913dd4674da7f4078d5180 OP_EQUALVERIFY OP_CHECKSIG", "type": "pubkeyhash"}, "value": 0.21277286, "n": 1}], "hex": "0100000001ca1e063c75f0794419eef81bd94b2bd449df60190e031950926b43ed4cf5c927010000006b483045022100abebad8572c6b1aabbfc2e21dbac18b8be645136c428997d2281788d59bfba640220482eb7a14fe127dc7dd753e2d972292c4664bb215cae178573364e43e92107cb012103ce96ddd2a227b1c1249c7192247fac4390bd2f64c6aee246d2ab050f29286b7dffffffff021c4314000000000017a914e29ee209f4c3190e5f2a8c5049645426a76af2558766aa4401000000001976a9142029a495f346666b8b913dd4674da7f4078d518088ac00000000", "vin": [{"sequence": 4294967295, "scriptSig": {"hex": "483045022100abebad8572c6b1aabbfc2e21dbac18b8be645136c428997d2281788d59bfba640220482eb7a14fe127dc7dd753e2d972292c4664bb215cae178573364e43e92107cb012103ce96ddd2a227b1c1249c7192247fac4390bd2f64c6aee246d2ab050f29286b7d", "asm": "3045022100abebad8572c6b1aabbfc2e21dbac18b8be645136c428997d2281788d59bfba640220482eb7a14fe127dc7dd753e2d972292c4664bb215cae178573364e43e92107cb[ALL] 03ce96ddd2a227b1c1249c7192247fac4390bd2f64c6aee246d2ab050f29286b7d"}, "vout": 1, "txid": "27c9f54ced436b925019030e1960df49d42b4bd91bf8ee194479f0753c061eca"}], "txid": "4119e87ee615479b39543d671286fd52d3cb53a841907bae69bccca61269bb73", "blocktime": 1537871767, "version": 1, "confirmations": 11491, "time": 1537871767, "locktime": 0, "vsize": 224, "size": 224}