{"hash": "411b105c8b79ec86115e956d30f53b42d5dea86b9f805be4793bd91c8b63da71", "blockhash": "00000000000000000004ffacab907a6b429b9a5745fa0b75af4234bf69dd7176", "vout": [{"scriptPubKey": {"reqSigs": 1, "hex": "76a914382e0f9006a09524e1b14b686c28732d5ead642e88ac", "addresses": ["168426wTqrKfFhbmDD3R39mGqqt9QHH4LF"], "asm": "OP_DUP OP_HASH160 382e0f9006a09524e1b14b686c28732d5ead642e OP_EQUALVERIFY OP_CHECKSIG", "type": "pubkeyhash"}, "value": 0.0048347, "n": 0}, {"scriptPubKey": {"reqSigs": 1, "hex": "76a9146586ced214191eaee684bf8787713d2671eff5aa88ac", "addresses": ["1AFpjzWNNtmMamjbbSSNLiVdktzrYMspCQ"], "asm": "OP_DUP OP_HASH160 6586ced214191eaee684bf8787713d2671eff5aa OP_EQUALVERIFY OP_CHECKSIG", "type": "pubkeyhash"}, "value": 0.2610509, "n": 1}], "hex": "0200000001fc201aef04b3113dba0e6c808c05189d5201d48ff2e426ba75e75592148a793a010000006b483045022100bb569f967b84dd39e9c05a8612e9c349a9c5ef507465a0beb3f74cbb8ed090b70220590bf1c0599974af0a503655eed47cfe8e46bbfd1579d6a0c92a6aa50749cfab01210210dac65f236a05432a1dbd2f909aa1c6e1870304203e734e8d07db9b57443d46ffffffff028e600700000000001976a914382e0f9006a09524e1b14b686c28732d5ead642e88ac02558e01000000001976a9146586ced214191eaee684bf8787713d2671eff5aa88ac00000000", "vin": [{"sequence": 4294967295, "scriptSig": {"hex": "483045022100bb569f967b84dd39e9c05a8612e9c349a9c5ef507465a0beb3f74cbb8ed090b70220590bf1c0599974af0a503655eed47cfe8e46bbfd1579d6a0c92a6aa50749cfab01210210dac65f236a05432a1dbd2f909aa1c6e1870304203e734e8d07db9b57443d46", "asm": "3045022100bb569f967b84dd39e9c05a8612e9c349a9c5ef507465a0beb3f74cbb8ed090b70220590bf1c0599974af0a503655eed47cfe8e46bbfd1579d6a0c92a6aa50749cfab[ALL] 0210dac65f236a05432a1dbd2f909aa1c6e1870304203e734e8d07db9b57443d46"}, "vout": 1, "txid": "3a798a149255e775ba26e4f28fd401529d18058c806c0eba3d11b304ef1a20fc"}], "txid": "411b105c8b79ec86115e956d30f53b42d5dea86b9f805be4793bd91c8b63da71", "blocktime": 1537875543, "version": 2, "confirmations": 11464, "time": 1537875543, "locktime": 0, "vsize": 226, "size": 226}