{"hash": "c953e59c142285102540b9411fb7692234aa6cd38318fbacd11d34137f70a76c", "blockhash": "0000000000000000000e13cef7c366c0283d82e591d1acd082e914b08063cdf1", "vout": [{"scriptPubKey": {"reqSigs": 1, "hex": "a914f486a6c76cc2efdabcad23c158013b8ffce9e26587", "addresses": ["3Pyx76i9xfykdAi3ZhbrX5UYWhmZC4QZ7U"], "asm": "OP_HASH160 f486a6c76cc2efdabcad23c158013b8ffce9e265 OP_EQUAL", "type": "scripthash"}, "value": 0.00999486, "n": 0}, {"scriptPubKey": {"reqSigs": 1, "hex": "76a9148f0ef35d5a4bfb5a28d766193c19eefdcd22cd7088ac", "addresses": ["1E3RYDoGbnBubPaCkgYVVEtYccEffskKFm"], "asm": "OP_DUP OP_HASH160 8f0ef35d5a4bfb5a28d766193c19eefdcd22cd70 OP_EQUALVERIFY OP_CHECKSIG", "type": "pubkeyhash"}, "value": 0.0024, "n": 1}], "hex": "0200000000010218ceace4ec002b1c649267f4449aa2859ae2a0d42f7adff80d22fc36b248239d0000000017160014718754aec8cac6e57faab76f8fe2b34d42c495e0feffffff95219f80250e6ec5f3d8161b3434561c5d87f57a24b3f0e850c4074b9e77070f00000000171600143bedb2b33d002102f0fdbd618a7bc1bdd237dbf1feffffff023e400f000000000017a914f486a6c76cc2efdabcad23c158013b8ffce9e2658780a90300000000001976a9148f0ef35d5a4bfb5a28d766193c19eefdcd22cd7088ac02483045022100db22917f512cf03c8b0b2975cd8c44fb89b3a0809b4d8c26202a4faeba99d70702200d3afa30d0e9483eefd58071bd7933c1821a0fa4e27579f3d42addeb7de12f160121030f33a86eb6226fcc5261b3d087f82bc82ac3bc2c0fbeca8d1e4a18ca23ab270b02483045022100a253e9f8751a2bab99dad77e57b26d6a86db223cfe30fbca12817b66540a9ffa02205312cd480bb4826ea9bbd6d3c09114995d2a50faad444439ceb348727b76701f0121033674e268a67501b007d313f2c511f62abfdbebef0fbb08fb73c37edcde44fe2710490800", "vin": [{"txinwitness": ["3045022100db22917f512cf03c8b0b2975cd8c44fb89b3a0809b4d8c26202a4faeba99d70702200d3afa30d0e9483eefd58071bd7933c1821a0fa4e27579f3d42addeb7de12f1601", "030f33a86eb6226fcc5261b3d087f82bc82ac3bc2c0fbeca8d1e4a18ca23ab270b"], "sequence": 4294967294, "scriptSig": {"hex": "160014718754aec8cac6e57faab76f8fe2b34d42c495e0", "asm": "0014718754aec8cac6e57faab76f8fe2b34d42c495e0"}, "vout": 0, "txid": "9d2348b236fc220df8df7a2fd4a0e29a85a29a44f46792641c2b00ece4acce18"}, {"txinwitness": ["3045022100a253e9f8751a2bab99dad77e57b26d6a86db223cfe30fbca12817b66540a9ffa02205312cd480bb4826ea9bbd6d3c09114995d2a50faad444439ceb348727b76701f01", "033674e268a67501b007d313f2c511f62abfdbebef0fbb08fb73c37edcde44fe27"], "sequence": 4294967294, "scriptSig": {"hex": "1600143bedb2b33d002102f0fdbd618a7bc1bdd237dbf1", "asm": "00143bedb2b33d002102f0fdbd618a7bc1bdd237dbf1"}, "vout": 0, "txid": "0f07779e4b07c450e8f0b3247af5875d1c5634341b16d8f3c56e0e25809f2195"}], "txid": "41207e4837a654c5f2808da29fd2ff4e2bc4e23fae3cf61ed233f6a627fa9e49", "blocktime": 1537871767, "version": 2, "confirmations": 11495, "time": 1537871767, "locktime": 542992, "vsize": 259, "size": 422}