{"hash": "c9a9fa44c34c24c93410232014ea17f384e168548ee753d50165b4a1ae4bf21c", "blockhash": "00000000000000000017f5eb5941039fbcee6240d03bc1f2f8e35350df66a1d8", "vout": [{"scriptPubKey": {"reqSigs": 1, "hex": "a914b5a98210df5ca242b142a83c71c15a2d45737bde87", "addresses": ["3JFZHthjaSxRHuAy6WL6G2eNCWm8SNmQ4k"], "asm": "OP_HASH160 b5a98210df5ca242b142a83c71c15a2d45737bde OP_EQUAL", "type": "scripthash"}, "value": 15.29931303, "n": 0}, {"scriptPubKey": {"reqSigs": 1, "hex": "a9143d81b521fa77c12b140a2ccb3a71818a3aa76c6287", "addresses": ["37JEXV2HsgLRXitBWMfsmRLvF6YThYvJYi"], "asm": "OP_HASH160 3d81b521fa77c12b140a2ccb3a71818a3aa76c62 OP_EQUAL", "type": "scripthash"}, "value": 0.0738, "n": 1}], "hex": "0200000000010168b27d7e06c42a26226cd5f7a24b30534940f43f1c4b8b47560f2342d48941c00000000017160014b348dfb2186c7bd9ed01b51e7d0221f1732c4735feffffff0227e6305b0000000017a914b5a98210df5ca242b142a83c71c15a2d45737bde87209c70000000000017a9143d81b521fa77c12b140a2ccb3a71818a3aa76c628702483045022100c58f40caa2d915b30b0c0c986a448df236deac043ea3f03c1c3372755437b0c102204a29629b669c9c5607080f3e07592bf9c9045ebb5c747b9c7d6b6f2669af705301210367081f55f87748a4e9bcca3b875ebcfc36098f0c8a24b0b070ae633440486e2015490800", "vin": [{"txinwitness": ["3045022100c58f40caa2d915b30b0c0c986a448df236deac043ea3f03c1c3372755437b0c102204a29629b669c9c5607080f3e07592bf9c9045ebb5c747b9c7d6b6f2669af705301", "0367081f55f87748a4e9bcca3b875ebcfc36098f0c8a24b0b070ae633440486e20"], "sequence": 4294967294, "scriptSig": {"hex": "160014b348dfb2186c7bd9ed01b51e7d0221f1732c4735", "asm": "0014b348dfb2186c7bd9ed01b51e7d0221f1732c4735"}, "vout": 0, "txid": "c04189d442230f56478b4b1c3ff4404953304ba2f7d56c22262ac4067e7db268"}], "txid": "4123ce90c22ada2704154335afb1e9e413e37888e329d9634f10e46315dca946", "blocktime": 1537874412, "version": 2, "confirmations": 11468, "time": 1537874412, "locktime": 542997, "vsize": 166, "size": 248}