{"hash": "769dea4678e8eb3b72cb05a6989f847aceb39b41fb52da685f02220970bf375d", "blockhash": "0000000000000000000e13cef7c366c0283d82e591d1acd082e914b08063cdf1", "vout": [{"scriptPubKey": {"reqSigs": 1, "hex": "a91409c14e9a7d585a0941ff1491a0bfd712d39aec3a87", "addresses": ["32abaUkAsZFzNFsnPeewyzuGDi8k1TTD75"], "asm": "OP_HASH160 09c14e9a7d585a0941ff1491a0bfd712d39aec3a OP_EQUAL", "type": "scripthash"}, "value": 0.01149, "n": 0}, {"scriptPubKey": {"reqSigs": 1, "hex": "a914f7819f1a20d9bca758656a3ecae65e4d28d1286d87", "addresses": ["3QFi7BgmaVcMGbET3L54n9AhKBPRgvZJbx"], "asm": "OP_HASH160 f7819f1a20d9bca758656a3ecae65e4d28d1286d OP_EQUAL", "type": "scripthash"}, "value": 0.00448572, "n": 1}], "hex": "02000000000101d07c624405135cc130af4b7aa8e2cfb96f9b28f48f99fa6717df7e5a37c442c9010000001716001498256e3ed4ce697c05ab297fc201a235709bcc86ffffffff02488811000000000017a91409c14e9a7d585a0941ff1491a0bfd712d39aec3a873cd806000000000017a914f7819f1a20d9bca758656a3ecae65e4d28d1286d8702473044022031fdbda2f7a081df8a59c2b62eefb49b933bffc91c32d57cc23f4905a7b49a1b0220235ecfe7e91f7fc16781601ce2fc35eaf24913471d41c5a10d09f73af8228be50121031ab622d396812016694560fb78d407fde5fe5983be997af484295c3755280a9b00000000", "vin": [{"txinwitness": ["3044022031fdbda2f7a081df8a59c2b62eefb49b933bffc91c32d57cc23f4905a7b49a1b0220235ecfe7e91f7fc16781601ce2fc35eaf24913471d41c5a10d09f73af8228be501", "031ab622d396812016694560fb78d407fde5fe5983be997af484295c3755280a9b"], "sequence": 4294967295, "scriptSig": {"hex": "16001498256e3ed4ce697c05ab297fc201a235709bcc86", "asm": "001498256e3ed4ce697c05ab297fc201a235709bcc86"}, "vout": 1, "txid": "c942c4375a7edf1767fa998ff4289b6fb9cfe2a87a4baf30c15c130544627cd0"}], "txid": "4123ebd77a63dc79d33cf81fd221b04c8928da9c55fa5abe4c265de7f89631de", "blocktime": 1537871767, "version": 2, "confirmations": 11490, "time": 1537871767, "locktime": 0, "vsize": 166, "size": 247}