{"hash": "ef3095529b3ffbad3fe0214bb88bf02bf8b0290dadf0b8babf5092899ac10cf4", "blockhash": "0000000000000000001e0dab787dd257d1dbfcb92a98c2207d5e1078be1f4165", "vout": [{"scriptPubKey": {"reqSigs": 1, "hex": "76a914ccb070a6baa0da89434f14116c24c2bf6fcab6b688ac", "addresses": ["1KfJDQMJjVJThBeAyRP9XJpou2adBW4THz"], "asm": "OP_DUP OP_HASH160 ccb070a6baa0da89434f14116c24c2bf6fcab6b6 OP_EQUALVERIFY OP_CHECKSIG", "type": "pubkeyhash"}, "value": 0.00872751, "n": 0}, {"scriptPubKey": {"reqSigs": 1, "hex": "76a914985a7448e2485213797e9aec2ff0d20cfe86f51788ac", "addresses": ["1Eta52ftF47aWUqzQBSEeE8ejfqSB2EWSS"], "asm": "OP_DUP OP_HASH160 985a7448e2485213797e9aec2ff0d20cfe86f517 OP_EQUALVERIFY OP_CHECKSIG", "type": "pubkeyhash"}, "value": 0.00170542, "n": 1}, {"scriptPubKey": {"reqSigs": 1, "hex": "a9141988a27e3c2df4ddee7fad5a2303d086179b2a3087", "addresses": ["3422VtS7UtCvXYxoXMVp6eZupR252z85oC"], "asm": "OP_HASH160 1988a27e3c2df4ddee7fad5a2303d086179b2a30 OP_EQUAL", "type": "scripthash"}, "value": 1.1529091, "n": 2}], "hex": "01000000000101d505cb56ad2f146f89e1d4fbc71b0bd2a349e1ad8c20fd53d154760a64c40cbb020000002322002065d416c48a8072e0ac51c2d111eb194f009caef0332446c1bf2097316cf07fa9ffffffff032f510d00000000001976a914ccb070a6baa0da89434f14116c24c2bf6fcab6b688ac2e9a0200000000001976a914985a7448e2485213797e9aec2ff0d20cfe86f51788ac1e33df060000000017a9141988a27e3c2df4ddee7fad5a2303d086179b2a3087040047304402205649277146b9e52e210766df7fc9e511d91d486c967efa0d3986c84971d4970c022023068791420f5b1c6f4ac19a43ea7cd1f4f6ac3118ec74063f29f97bcb1fe67401473044022020cc1534752817c7513e7179f9712e806f8476c862f632847c9df445e6081f19022030c0bddfe88a812340dc6adbb1706189078c47e759ffc168aca552f21d53923f0169522102f44abcf9e23c9a460da309ccca56c619c04eed3bde2c2cff5e7d78fbcd980b9c2103c9443cf3047bb6c2c82f1b0c44c36109cdc3d0d601d16d1189a1602bf8d1a0a02103bfe867059274412412e088af5572b92168c2ef495cfe6c9b7a753a009eb37c4853ae00000000", "vin": [{"txinwitness": ["", "304402205649277146b9e52e210766df7fc9e511d91d486c967efa0d3986c84971d4970c022023068791420f5b1c6f4ac19a43ea7cd1f4f6ac3118ec74063f29f97bcb1fe67401", "3044022020cc1534752817c7513e7179f9712e806f8476c862f632847c9df445e6081f19022030c0bddfe88a812340dc6adbb1706189078c47e759ffc168aca552f21d53923f01", "522102f44abcf9e23c9a460da309ccca56c619c04eed3bde2c2cff5e7d78fbcd980b9c2103c9443cf3047bb6c2c82f1b0c44c36109cdc3d0d601d16d1189a1602bf8d1a0a02103bfe867059274412412e088af5572b92168c2ef495cfe6c9b7a753a009eb37c4853ae"], "sequence": 4294967295, "scriptSig": {"hex": "22002065d416c48a8072e0ac51c2d111eb194f009caef0332446c1bf2097316cf07fa9", "asm": "002065d416c48a8072e0ac51c2d111eb194f009caef0332446c1bf2097316cf07fa9"}, "vout": 2, "txid": "bb0cc4640a7654d153fd208cade149a3d20b1bc7fbd4e1896f142fad56cb05d5"}], "txid": "412b2d244be6c333b3050cf43f21e099b5f4d46a28e3402ef5880e8234e39eb7", "blocktime": 1537872475, "version": 1, "confirmations": 11486, "time": 1537872475, "locktime": 0, "vsize": 250, "size": 440}