{"hash": "412e825114ae9b323380dc6d0e6c1e376be96da51a805f0a64d8b1f69acbdc37", "blockhash": "0000000000000000000e13cef7c366c0283d82e591d1acd082e914b08063cdf1", "vout": [{"scriptPubKey": {"reqSigs": 1, "hex": "76a9140b454d5c79b36333b64b830387d243b41b1ca04688ac", "addresses": ["122bTK2mysQAUtdGfQwqfJ4TtgnSQ3aMAj"], "asm": "OP_DUP OP_HASH160 0b454d5c79b36333b64b830387d243b41b1ca046 OP_EQUALVERIFY OP_CHECKSIG", "type": "pubkeyhash"}, "value": 0.2384852, "n": 0}, {"scriptPubKey": {"reqSigs": 1, "hex": "76a914cebb2851a9c7cfe2582c12ecaf7f3ff4383d1dc088ac", "addresses": ["1Kr6QSydW9bFQG1mXiPNNu6WpJGmUa9i1g"], "asm": "OP_DUP OP_HASH160 cebb2851a9c7cfe2582c12ecaf7f3ff4383d1dc0 OP_EQUALVERIFY OP_CHECKSIG", "type": "pubkeyhash"}, "value": 12.18505169, "n": 1}], "hex": "0200000003c9e74c14694f318ca40fcc8ee4933765fc6284018a390afc5aff7bfa7de876e1030000006a473044022071c0f624d4789bc49d56055e57a76e4fa960c6db9d5951a4109ea2742d571f08022064d01c0ae82747e67cf65ed757a6f57ea72aa667b3d106474127cafb56bcacc7012103786af4b32017ec640dba2d2a7e1fd5aa4a231a658e4cbc114d51c031576e19bcffffffffeaea8fe875ab15e1ece1d6f74de6315258597f03b46b0389cbd99ffac9b8174b000000006b483045022100b85245cc7826bad64ca29f08d16797df68714864e28c36d21fbfd72d7db46b450220635c5941d75ced73eb249d0e0ce0a44f67b29397e0de9cd072c892e269884c2a0121022cc0f6cfb374b26beaa8d3b76ae88c855fa94bb93bad14b9166a604d18b9eeecffffffff91e478091f39779cc93ce0dfb7a9eed2a1bb4c66522d362e80cf07e48cf21fdc000000006b483045022100d6b1c2dbe5ba73e38968d4c8cf900736e8ab6f1bacdfca2d71a66f80ac4b3d54022009e0f477dcbf0f50bea56eed6484fa6e15c2edc778e2cce091abe84406eaaa13012103b6814e8f4e163f9e383bd8512ea613d91ec705dbb912ca6055a2dea7191b84c1ffffffff0248e66b01000000001976a9140b454d5c79b36333b64b830387d243b41b1ca04688acd1e9a048000000001976a914cebb2851a9c7cfe2582c12ecaf7f3ff4383d1dc088ac00000000", "vin": [{"sequence": 4294967295, "scriptSig": {"hex": "473044022071c0f624d4789bc49d56055e57a76e4fa960c6db9d5951a4109ea2742d571f08022064d01c0ae82747e67cf65ed757a6f57ea72aa667b3d106474127cafb56bcacc7012103786af4b32017ec640dba2d2a7e1fd5aa4a231a658e4cbc114d51c031576e19bc", "asm": "3044022071c0f624d4789bc49d56055e57a76e4fa960c6db9d5951a4109ea2742d571f08022064d01c0ae82747e67cf65ed757a6f57ea72aa667b3d106474127cafb56bcacc7[ALL] 03786af4b32017ec640dba2d2a7e1fd5aa4a231a658e4cbc114d51c031576e19bc"}, "vout": 3, "txid": "e176e87dfa7bff5afc0a398a018462fc653793e48ecc0fa48c314f69144ce7c9"}, {"sequence": 4294967295, "scriptSig": {"hex": "483045022100b85245cc7826bad64ca29f08d16797df68714864e28c36d21fbfd72d7db46b450220635c5941d75ced73eb249d0e0ce0a44f67b29397e0de9cd072c892e269884c2a0121022cc0f6cfb374b26beaa8d3b76ae88c855fa94bb93bad14b9166a604d18b9eeec", "asm": "3045022100b85245cc7826bad64ca29f08d16797df68714864e28c36d21fbfd72d7db46b450220635c5941d75ced73eb249d0e0ce0a44f67b29397e0de9cd072c892e269884c2a[ALL] 022cc0f6cfb374b26beaa8d3b76ae88c855fa94bb93bad14b9166a604d18b9eeec"}, "vout": 0, "txid": "4b17b8c9fa9fd9cb89036bb4037f59585231e64df7d6e1ece115ab75e88feaea"}, {"sequence": 4294967295, "scriptSig": {"hex": "483045022100d6b1c2dbe5ba73e38968d4c8cf900736e8ab6f1bacdfca2d71a66f80ac4b3d54022009e0f477dcbf0f50bea56eed6484fa6e15c2edc778e2cce091abe84406eaaa13012103b6814e8f4e163f9e383bd8512ea613d91ec705dbb912ca6055a2dea7191b84c1", "asm": "3045022100d6b1c2dbe5ba73e38968d4c8cf900736e8ab6f1bacdfca2d71a66f80ac4b3d54022009e0f477dcbf0f50bea56eed6484fa6e15c2edc778e2cce091abe84406eaaa13[ALL] 03b6814e8f4e163f9e383bd8512ea613d91ec705dbb912ca6055a2dea7191b84c1"}, "vout": 0, "txid": "dc1ff28ce407cf802e362d52664cbba1d2eea9b7dfe03cc99c77391f0978e491"}], "txid": "412e825114ae9b323380dc6d0e6c1e376be96da51a805f0a64d8b1f69acbdc37", "blocktime": 1537871767, "version": 2, "confirmations": 11491, "time": 1537871767, "locktime": 0, "vsize": 521, "size": 521}