{"hash": "f41036f3a68f6a4f5558f565c3970f758251a7316629770b8c72c01d1829f042", "blockhash": "0000000000000000000baef3f32e3676a92c3b2e5da21b426e4f302fc371ce76", "vout": [{"scriptPubKey": {"reqSigs": 1, "hex": "a914abd6a998b77aee98ceec360a0ef6565fdb91c3dc87", "addresses": ["3HMcdMht7akoGDDmRsZipGvaMMvowVZhez"], "asm": "OP_HASH160 abd6a998b77aee98ceec360a0ef6565fdb91c3dc OP_EQUAL", "type": "scripthash"}, "value": 0.17500834, "n": 0}, {"scriptPubKey": {"reqSigs": 1, "hex": "a91467d1ad0c212649c9be6940f7e7ae2474effdaf3887", "addresses": ["3B9xhqtuJ1r5RExr5mar62899KMbcxNhq8"], "asm": "OP_HASH160 67d1ad0c212649c9be6940f7e7ae2474effdaf38 OP_EQUAL", "type": "scripthash"}, "value": 0.012, "n": 1}], "hex": "02000000000101ace137035e403757bc85c6b328669520f03dca09bca74ae989502b88e0b6ff4d0100000017160014fcba954490dcc373ce6f3ce61d8bb1965688b45bfeffffff02a20a0b010000000017a914abd6a998b77aee98ceec360a0ef6565fdb91c3dc87804f12000000000017a91467d1ad0c212649c9be6940f7e7ae2474effdaf38870247304402200d8885fd8163dc694c77ba5c727c9e0a269df79fb541da98ca916c103cacd749022068538526d86be3d6c4e92943c4b31dba58d257ac9871d6c1c9ac94f62ae6cf2a0121027f0b492d68b5b1d5846882fd1123e52ab6fd3fffc0f4b11598a57ed7502ab90c17490800", "vin": [{"txinwitness": ["304402200d8885fd8163dc694c77ba5c727c9e0a269df79fb541da98ca916c103cacd749022068538526d86be3d6c4e92943c4b31dba58d257ac9871d6c1c9ac94f62ae6cf2a01", "027f0b492d68b5b1d5846882fd1123e52ab6fd3fffc0f4b11598a57ed7502ab90c"], "sequence": 4294967294, "scriptSig": {"hex": "160014fcba954490dcc373ce6f3ce61d8bb1965688b45b", "asm": "0014fcba954490dcc373ce6f3ce61d8bb1965688b45b"}, "vout": 1, "txid": "4dffb6e0882b5089e94aa7bc09ca3df020956628b3c685bc5737405e0337e1ac"}], "txid": "413555bad9e37eb1dfd1ac31f3dbb6216b8e4c333658a2bab5c794d622d842bf", "blocktime": 1537876114, "version": 2, "confirmations": 11459, "time": 1537876114, "locktime": 542999, "vsize": 166, "size": 247}