{"hash": "8b0017cd3618a03ef54e46cb375acf34224ec916667c63eced660989bdd2203a", "blockhash": "0000000000000000001f0ddff1eddb255c1121bcd4da4f1bc9a0da00cae72433", "vout": [{"scriptPubKey": {"reqSigs": 1, "hex": "00141f1f21e112aff3f23939cb94a3c3e78f3f028738", "addresses": ["bc1qru0jrcgj4lelywfeew228sl83uls9pecxugc9q"], "asm": "0 1f1f21e112aff3f23939cb94a3c3e78f3f028738", "type": "witness_v0_keyhash"}, "value": 0.01223172, "n": 0}, {"scriptPubKey": {"reqSigs": 1, "hex": "a914a7cf9369bd5eaf3c8d0f274e2e19ecc3b00c9f0987", "addresses": ["3GzKSCckxDNLrvmaf4m24ndnRJ2xf2QBLE"], "asm": "OP_HASH160 a7cf9369bd5eaf3c8d0f274e2e19ecc3b00c9f09 OP_EQUAL", "type": "scripthash"}, "value": 0.205, "n": 1}], "hex": "010000000001014b5eb19ee15cca21299c38b90d5392a4885c3ee7c64e10a7db09402ffa4a645a0100000000ffffffff0204aa1200000000001600141f1f21e112aff3f23939cb94a3c3e78f3f02873820ce38010000000017a914a7cf9369bd5eaf3c8d0f274e2e19ecc3b00c9f098702483045022100ab2f65e589d3088a5a9930bd4467795a3fcd858450bff3affaa28b2c3449f7b10220223936397aa9be8635b366bf97b6bb2d7b4168c57d3e659a338620bd69d2ec4801210350d0eabf9fff553a84a96d88389347f0bc1ef520fd10fb301c74cff633a356d700000000", "vin": [{"txinwitness": ["3045022100ab2f65e589d3088a5a9930bd4467795a3fcd858450bff3affaa28b2c3449f7b10220223936397aa9be8635b366bf97b6bb2d7b4168c57d3e659a338620bd69d2ec4801", "0350d0eabf9fff553a84a96d88389347f0bc1ef520fd10fb301c74cff633a356d7"], "sequence": 4294967295, "scriptSig": {"hex": "", "asm": ""}, "vout": 1, "txid": "5a644afa2f4009dba7104ec6e73e5c88a492530db9389c2921ca5ce19eb15e4b"}], "txid": "413a4ddb03aa8ef7e16ccc30c75c9d9b48bc2381ac42dd9fb0060490a152be62", "blocktime": 1537872018, "version": 1, "confirmations": 11489, "time": 1537872018, "locktime": 0, "vsize": 142, "size": 224}