{"hash": "413d9a8016ae9e17308974bc454502eceead3de5775fba3e7f94c57d0174b03a", "blockhash": "0000000000000000001f76057863aec43deb6fa401d9628bb513d65a8098bfab", "vout": [{"scriptPubKey": {"reqSigs": 1, "hex": "a91490ceb60233773f256f45e16a038fb1bd36806baa87", "addresses": ["3EtgrhQJErvHxPVJGQFG32Cb466rgAM3Ku"], "asm": "OP_HASH160 90ceb60233773f256f45e16a038fb1bd36806baa OP_EQUAL", "type": "scripthash"}, "value": 0.11549903, "n": 0}, {"scriptPubKey": {"reqSigs": 1, "hex": "76a9146e690dfc6289965642f0833d81f9eed1fde665a788ac", "addresses": ["1B4oBRfG8tou5aQsi1N32wzmUnwYCyidpE"], "asm": "OP_DUP OP_HASH160 6e690dfc6289965642f0833d81f9eed1fde665a7 OP_EQUALVERIFY OP_CHECKSIG", "type": "pubkeyhash"}, "value": 0.75612089, "n": 1}], "hex": "0100000001c63b65f2cc1987d56e2f238400981100a887a7cba4b05f6c75926f9c5364b858010000006b483045022100bb7ca75ad5d9f23214ec8b19a50f1c5bc22db61824392b443203412f987b1169022072c28993e50e257e12954f9658d68468984a426b51dc7154ecafd7c2cdf4f44301210287a91bbbea7d55dcdfeb01b130cf7bf0a1309588610126ade9583d645a4dc148ffffffff02cf3cb0000000000017a91490ceb60233773f256f45e16a038fb1bd36806baa87b9bf8104000000001976a9146e690dfc6289965642f0833d81f9eed1fde665a788ac00000000", "vin": [{"sequence": 4294967295, "scriptSig": {"hex": "483045022100bb7ca75ad5d9f23214ec8b19a50f1c5bc22db61824392b443203412f987b1169022072c28993e50e257e12954f9658d68468984a426b51dc7154ecafd7c2cdf4f44301210287a91bbbea7d55dcdfeb01b130cf7bf0a1309588610126ade9583d645a4dc148", "asm": "3045022100bb7ca75ad5d9f23214ec8b19a50f1c5bc22db61824392b443203412f987b1169022072c28993e50e257e12954f9658d68468984a426b51dc7154ecafd7c2cdf4f443[ALL] 0287a91bbbea7d55dcdfeb01b130cf7bf0a1309588610126ade9583d645a4dc148"}, "vout": 1, "txid": "58b864539c6f92756c5fb0a4cba787a80011980084232f6ed58719ccf2653bc6"}], "txid": "413d9a8016ae9e17308974bc454502eceead3de5775fba3e7f94c57d0174b03a", "blocktime": 1537873891, "version": 1, "confirmations": 11478, "time": 1537873891, "locktime": 0, "vsize": 224, "size": 224}