{"hash": "89f7f2d93adbc1dc9080741df2d0a0279794719f20f26d7b13f82bf44726baab", "blockhash": "00000000000000000017f5eb5941039fbcee6240d03bc1f2f8e35350df66a1d8", "vout": [{"scriptPubKey": {"reqSigs": 1, "hex": "a914cd3bde44fd6edcf85918dab74a1883e6cb46586187", "addresses": ["3LQCAb1jzg4rkQqaQeExbUZMXGaAdYTGmD"], "asm": "OP_HASH160 cd3bde44fd6edcf85918dab74a1883e6cb465861 OP_EQUAL", "type": "scripthash"}, "value": 0.01000361, "n": 0}, {"scriptPubKey": {"reqSigs": 1, "hex": "76a914a9fe6a270995b7a90c7b76306e07a17d2f93509588ac", "addresses": ["1GVqyTfPwJju6kphWzMCGxDkzACUPEAk1a"], "asm": "OP_DUP OP_HASH160 a9fe6a270995b7a90c7b76306e07a17d2f935095 OP_EQUALVERIFY OP_CHECKSIG", "type": "pubkeyhash"}, "value": 0.0037656, "n": 1}], "hex": "0200000000010255e9a9ec16f601d859b021a7988d29d06f22e00e980bbec18d2dd8aa44732c5b0000000017160014996d6a20297f8f5a7f20ff42244bdb089c1e524cfeffffff63a59247bf448697908e8e400ab2611c02668bc25d1853e0fbc8d12952864eca0100000017160014a45a696e3ab186480878a0c40da7af4851cf60fbfeffffff02a9430f000000000017a914cd3bde44fd6edcf85918dab74a1883e6cb46586187f0be0500000000001976a914a9fe6a270995b7a90c7b76306e07a17d2f93509588ac02473044022051028404799f8ad39b96800cf45f13d59d1c7b51af3f54b35f7737e4d811c2a6022045a9fb837030092a47024e4e35b7d936a6e57f1060f89350933d4193f2c89978012102749d58e4e6eb4292a7146eef4aeeeb668ce507db83d3c871de6ead5d0d4516ca0247304402204f6dc9b7d2d5ac161552d502cdabae33742e62f2d1e52a9cd85d901a71bc3b790220215af15b58198e5ad5999d077ab975f3abffb237bab9b8fa5d4cd4be10564650012102218d6816185c07894f4cf09c6548f3b81dc6b4320aa251aa032ecc3edd16bc2815490800", "vin": [{"txinwitness": ["3044022051028404799f8ad39b96800cf45f13d59d1c7b51af3f54b35f7737e4d811c2a6022045a9fb837030092a47024e4e35b7d936a6e57f1060f89350933d4193f2c8997801", "02749d58e4e6eb4292a7146eef4aeeeb668ce507db83d3c871de6ead5d0d4516ca"], "sequence": 4294967294, "scriptSig": {"hex": "160014996d6a20297f8f5a7f20ff42244bdb089c1e524c", "asm": "0014996d6a20297f8f5a7f20ff42244bdb089c1e524c"}, "vout": 0, "txid": "5b2c7344aad82d8dc1be0b980ee0226fd0298d98a721b059d801f616eca9e955"}, {"txinwitness": ["304402204f6dc9b7d2d5ac161552d502cdabae33742e62f2d1e52a9cd85d901a71bc3b790220215af15b58198e5ad5999d077ab975f3abffb237bab9b8fa5d4cd4be1056465001", "02218d6816185c07894f4cf09c6548f3b81dc6b4320aa251aa032ecc3edd16bc28"], "sequence": 4294967294, "scriptSig": {"hex": "160014a45a696e3ab186480878a0c40da7af4851cf60fb", "asm": "0014a45a696e3ab186480878a0c40da7af4851cf60fb"}, "vout": 1, "txid": "ca4e865229d1c8fbe053185dc28b66021c61b20a408e8e90978644bf4792a563"}], "txid": "4154eb5ebfaf63ccff5216cd4d49e787a171833d9c8361684cd379c943b3aa54", "blocktime": 1537874412, "version": 2, "confirmations": 11468, "time": 1537874412, "locktime": 542997, "vsize": 258, "size": 420}