{"hash": "4156b9dfa222ed3af4c6b85536119f06afe9da6ce3e60d6b224490a673eac9e2", "blockhash": "0000000000000000000baef3f32e3676a92c3b2e5da21b426e4f302fc371ce76", "vout": [{"scriptPubKey": {"reqSigs": 1, "hex": "a9142be30f75803969aecd790866b2578380ad911d2c87", "addresses": ["35h4zDzAjBmJKHidWdQgTbnddcfz7wrkL8"], "asm": "OP_HASH160 2be30f75803969aecd790866b2578380ad911d2c OP_EQUAL", "type": "scripthash"}, "value": 0.00184463, "n": 0}, {"scriptPubKey": {"reqSigs": 1, "hex": "76a9147674fafc2576ddf82d1b99b658ae9ce3f0ce1c5d88ac", "addresses": ["1BoLsaVFrdFgiFnBKm5PNNAM8Qo8sj8NT2"], "asm": "OP_DUP OP_HASH160 7674fafc2576ddf82d1b99b658ae9ce3f0ce1c5d OP_EQUALVERIFY OP_CHECKSIG", "type": "pubkeyhash"}, "value": 0.00476983, "n": 1}], "hex": "0200000001d8469435638096a31f100cc1b5b1fb2c866e48c3dfc61524fee9522795cbf98c010000008b483045022100850bac22be6bc45215a764f2f2e6b62babcbc2f1d2665d7bdc61b790d5cf7f950220783fea464d77898d447e134ed89d393f111ba10ae7bd8ccfc5ea4442580f6fa5014104f1df4aba1ea5309a92b411b1815f6abf2f044586957817c3d3c9c289d70e222d1f44ad7c0ac7758daaddbbd935320b93254ec08e1e32c17ab98f37238ba49a23ffffffff028fd002000000000017a9142be30f75803969aecd790866b2578380ad911d2c8737470700000000001976a9147674fafc2576ddf82d1b99b658ae9ce3f0ce1c5d88ac00000000", "vin": [{"sequence": 4294967295, "scriptSig": {"hex": "483045022100850bac22be6bc45215a764f2f2e6b62babcbc2f1d2665d7bdc61b790d5cf7f950220783fea464d77898d447e134ed89d393f111ba10ae7bd8ccfc5ea4442580f6fa5014104f1df4aba1ea5309a92b411b1815f6abf2f044586957817c3d3c9c289d70e222d1f44ad7c0ac7758daaddbbd935320b93254ec08e1e32c17ab98f37238ba49a23", "asm": "3045022100850bac22be6bc45215a764f2f2e6b62babcbc2f1d2665d7bdc61b790d5cf7f950220783fea464d77898d447e134ed89d393f111ba10ae7bd8ccfc5ea4442580f6fa5[ALL] 04f1df4aba1ea5309a92b411b1815f6abf2f044586957817c3d3c9c289d70e222d1f44ad7c0ac7758daaddbbd935320b93254ec08e1e32c17ab98f37238ba49a23"}, "vout": 1, "txid": "8cf9cb952752e9fe2415c6dfc3486e862cfbb1b5c10c101fa3968063359446d8"}], "txid": "4156b9dfa222ed3af4c6b85536119f06afe9da6ce3e60d6b224490a673eac9e2", "blocktime": 1537876114, "version": 2, "confirmations": 11462, "time": 1537876114, "locktime": 0, "vsize": 256, "size": 256}