{"hash": "bdc1b9d30c16e89843b997ee859acf390e29e94ee416a0f200bae26a91b8d68a", "blockhash": "00000000000000000017f5eb5941039fbcee6240d03bc1f2f8e35350df66a1d8", "vout": [{"scriptPubKey": {"reqSigs": 1, "hex": "76a914977d7f46ebd740f6fbc7a5a39339af6c14e755a988ac", "addresses": ["1Ep1NfTUeYJR5vV5qZHY2qKAhbwYKtVuuo"], "asm": "OP_DUP OP_HASH160 977d7f46ebd740f6fbc7a5a39339af6c14e755a9 OP_EQUALVERIFY OP_CHECKSIG", "type": "pubkeyhash"}, "value": 0.00499019, "n": 0}, {"scriptPubKey": {"reqSigs": 1, "hex": "0014236b6a7630e95f9a468051caab4f65bc6f39cfad", "addresses": ["bc1qyd4k5a3sa90e535q2892knm9h3hnnnadulf83l"], "asm": "0 236b6a7630e95f9a468051caab4f65bc6f39cfad", "type": "witness_v0_keyhash"}, "value": 1.658e-05, "n": 1}], "hex": "010000000001018b32c5a6456d46c3e1a2efcb33815dfda955bbf44ebe5f830067340a9801f2125000000017160014ac29b0fe0b5aee280529bb3512023cd0ecf6f023ffffffff024b9d0700000000001976a914977d7f46ebd740f6fbc7a5a39339af6c14e755a988ac7a06000000000000160014236b6a7630e95f9a468051caab4f65bc6f39cfad024730440220771169644d98ee921384c5603cef39a5e8153f7b25e3a4171d1f52e79951c96702205cfa82248948654e8d6d6eb8611e09b45077eca2fadd126f7a3fb0db848c8366012103fd41c596929c9062884676d5ae2e7c8acc8213717b3eb165221bb414ff07f98800000000", "vin": [{"txinwitness": ["30440220771169644d98ee921384c5603cef39a5e8153f7b25e3a4171d1f52e79951c96702205cfa82248948654e8d6d6eb8611e09b45077eca2fadd126f7a3fb0db848c836601", "03fd41c596929c9062884676d5ae2e7c8acc8213717b3eb165221bb414ff07f988"], "sequence": 4294967295, "scriptSig": {"hex": "160014ac29b0fe0b5aee280529bb3512023cd0ecf6f023", "asm": "0014ac29b0fe0b5aee280529bb3512023cd0ecf6f023"}, "vout": 80, "txid": "12f201980a346700835fbe4ef4bb55a9fd5d8133cbefa2e1c3466d45a6c5328b"}], "txid": "4156aeb5abc007125c5e1a9e64555f625fb3a86e30ebf74a9d6a386c29295a63", "blocktime": 1537874412, "version": 1, "confirmations": 11467, "time": 1537874412, "locktime": 0, "vsize": 167, "size": 248}