{"hash": "d8a16d4158bb72406bfd5c5dbf9f931f8e8dd4d1164c42773850ac0e7537ed8c", "blockhash": "0000000000000000001f0ddff1eddb255c1121bcd4da4f1bc9a0da00cae72433", "vout": [{"scriptPubKey": {"reqSigs": 1, "hex": "a91413f144fbc8bad72f0552d4900545b8a53e03bb6187", "addresses": ["33WTntHL2JYGhyQDqNMWLoqSjGxpx5PzcN"], "asm": "OP_HASH160 13f144fbc8bad72f0552d4900545b8a53e03bb61 OP_EQUAL", "type": "scripthash"}, "value": 0.17551833, "n": 0}, {"scriptPubKey": {"reqSigs": 1, "hex": "0014bd00f4607a7c5c4a9e1ae222095946c20f781cc5", "addresses": ["bc1qh5q0gcr603wy48s6ug3qjk2xcg8hs8x9674aqh"], "asm": "0 bd00f4607a7c5c4a9e1ae222095946c20f781cc5", "type": "witness_v0_keyhash"}, "value": 0.0152618, "n": 1}], "hex": "01000000000101d942866937b47f150acc5b09ba25a2eda4e5166ca11028e9b7d636e75a3d67e50100000000ffffffff02d9d10b010000000017a91413f144fbc8bad72f0552d4900545b8a53e03bb6187a449170000000000160014bd00f4607a7c5c4a9e1ae222095946c20f781cc50248304502210099d153caa4bd963051fe038bda8dfedc43c7c33bef03c7134292fd02581d5a710220526c2690f34ac2e1cac62d28deff2865e07c3342f0deca64cc94d6f5f43d8c0201210314f3a0aa431f77d3ed19f5c2eb633cc44f6f72d9fec97653c58597d0b55c388600000000", "vin": [{"txinwitness": ["304502210099d153caa4bd963051fe038bda8dfedc43c7c33bef03c7134292fd02581d5a710220526c2690f34ac2e1cac62d28deff2865e07c3342f0deca64cc94d6f5f43d8c0201", "0314f3a0aa431f77d3ed19f5c2eb633cc44f6f72d9fec97653c58597d0b55c3886"], "sequence": 4294967295, "scriptSig": {"hex": "", "asm": ""}, "vout": 1, "txid": "e5673d5ae736d6b7e92810a16c16e5a4eda225ba095bcc0a157fb437698642d9"}], "txid": "416239cdd135597c9255d35a39c6d677aa76671341050262abf72841b0b206e8", "blocktime": 1537872018, "version": 1, "confirmations": 11489, "time": 1537872018, "locktime": 0, "vsize": 142, "size": 224}