{"hash": "41627b19f294fe107a02c13210d546ceda645ce18b54bc5ba15b6436a366d432", "blockhash": "0000000000000000000baef3f32e3676a92c3b2e5da21b426e4f302fc371ce76", "vout": [{"scriptPubKey": {"reqSigs": 1, "hex": "76a91458f32143a95cd11ee5f37e5d1dff6f9fbafa660b88ac", "addresses": ["197Kir2psnjrTFwx8R9cUnmVCUFeUgCNxS"], "asm": "OP_DUP OP_HASH160 58f32143a95cd11ee5f37e5d1dff6f9fbafa660b OP_EQUALVERIFY OP_CHECKSIG", "type": "pubkeyhash"}, "value": 0.91685049, "n": 0}, {"scriptPubKey": {"type": "nulldata", "hex": "6a146f6d6e69000000000000001f00000000bb9368c0", "asm": "OP_RETURN 6f6d6e69000000000000001f00000000bb9368c0"}, "value": 0.0, "n": 1}, {"scriptPubKey": {"reqSigs": 1, "hex": "76a914f48dedd5833571f01f506f5e4710150cb9ea447288ac", "addresses": ["1PJ5uD8aBriVruy4ZigSQHFG5Q4vjrSp7G"], "asm": "OP_DUP OP_HASH160 f48dedd5833571f01f506f5e4710150cb9ea4472 OP_EQUALVERIFY OP_CHECKSIG", "type": "pubkeyhash"}, "value": 5.46e-06, "n": 2}], "hex": "0100000001d91ce206828de3e2a493d2d9f28809db322dfd17067d8deb6b8b469b334b93f9010000006a47304402201f27e5d8248a72f98a1cd3f8eae11ae2eab96ea4d08335f56ff5855efe927bb6022034fefb3fb4df5dc461ef74c7d8770557c35939d93e9c777c33426a2c984779b101210251e12972b557d5dbac73bfd2470adeac64ac46202389f0ef2db7231f645a0aeafeffffff03b9007705000000001976a91458f32143a95cd11ee5f37e5d1dff6f9fbafa660b88ac0000000000000000166a146f6d6e69000000000000001f00000000bb9368c022020000000000001976a914f48dedd5833571f01f506f5e4710150cb9ea447288acf5480800", "vin": [{"sequence": 4294967294, "scriptSig": {"hex": "47304402201f27e5d8248a72f98a1cd3f8eae11ae2eab96ea4d08335f56ff5855efe927bb6022034fefb3fb4df5dc461ef74c7d8770557c35939d93e9c777c33426a2c984779b101210251e12972b557d5dbac73bfd2470adeac64ac46202389f0ef2db7231f645a0aea", "asm": "304402201f27e5d8248a72f98a1cd3f8eae11ae2eab96ea4d08335f56ff5855efe927bb6022034fefb3fb4df5dc461ef74c7d8770557c35939d93e9c777c33426a2c984779b1[ALL] 0251e12972b557d5dbac73bfd2470adeac64ac46202389f0ef2db7231f645a0aea"}, "vout": 1, "txid": "f9934b339b468b6beb8d7d0617fd2d32db0988f2d9d293a4e2e38d8206e21cd9"}], "txid": "41627b19f294fe107a02c13210d546ceda645ce18b54bc5ba15b6436a366d432", "blocktime": 1537876114, "version": 1, "confirmations": 11460, "time": 1537876114, "locktime": 542965, "vsize": 256, "size": 256}