{"hash": "41698b401ff48cf260a62ccdc97f9b26b22a6f1e05e9d743f3accde3e4152a57", "blockhash": "0000000000000000001e0dab787dd257d1dbfcb92a98c2207d5e1078be1f4165", "vout": [{"scriptPubKey": {"reqSigs": 1, "hex": "a914a123d377466dcde88fb3be57d4b99bfad2ff5c4187", "addresses": ["3GP3dfYCMzJNskf413nBpaPSz5SmWjYBsY"], "asm": "OP_HASH160 a123d377466dcde88fb3be57d4b99bfad2ff5c41 OP_EQUAL", "type": "scripthash"}, "value": 0.00229389, "n": 0}, {"scriptPubKey": {"reqSigs": 1, "hex": "0014a0759a9071ddaf0055c11ff031707e4ce510fe46", "addresses": ["bc1q5p6e4yr3mkhsq4wprlcrzur7fnj3pljxel03d2"], "asm": "0 a0759a9071ddaf0055c11ff031707e4ce510fe46", "type": "witness_v0_keyhash"}, "value": 1.158e-05, "n": 1}], "hex": "0100000001e870bbea8bb93979f1564545ccde9aeccdb7d036581128f6581c976f01410a06620300006a47304402203e928508843257edb1f651ca5493bbb6ba0996d3df457d22795c736d29e050de02203a73c4c14b62991ad80159200e0c0a2554a3ed6a8361655b633b03972473efaa012103e09637423df05dd319e04b4002ef023c4698a6cdd82f4742443ff5575a628392ffffffff020d8003000000000017a914a123d377466dcde88fb3be57d4b99bfad2ff5c41878604000000000000160014a0759a9071ddaf0055c11ff031707e4ce510fe4600000000", "vin": [{"sequence": 4294967295, "scriptSig": {"hex": "47304402203e928508843257edb1f651ca5493bbb6ba0996d3df457d22795c736d29e050de02203a73c4c14b62991ad80159200e0c0a2554a3ed6a8361655b633b03972473efaa012103e09637423df05dd319e04b4002ef023c4698a6cdd82f4742443ff5575a628392", "asm": "304402203e928508843257edb1f651ca5493bbb6ba0996d3df457d22795c736d29e050de02203a73c4c14b62991ad80159200e0c0a2554a3ed6a8361655b633b03972473efaa[ALL] 03e09637423df05dd319e04b4002ef023c4698a6cdd82f4742443ff5575a628392"}, "vout": 866, "txid": "060a41016f971c58f628115836d0b7cdec9adecc454556f17939b98beabb70e8"}], "txid": "41698b401ff48cf260a62ccdc97f9b26b22a6f1e05e9d743f3accde3e4152a57", "blocktime": 1537872475, "version": 1, "confirmations": 11486, "time": 1537872475, "locktime": 0, "vsize": 220, "size": 220}