{"hash": "41703951f29c9ff1846f586c9727f76ccf40329ff98d58c2f4811c0aa474355c", "blockhash": "0000000000000000000baef3f32e3676a92c3b2e5da21b426e4f302fc371ce76", "vout": [{"scriptPubKey": {"reqSigs": 1, "hex": "a914c594e60b55102125114dc96e139baf0a8eb55daf87", "addresses": ["3KhjQzSYn21Xqk6P7hwKjiYNk5r9ijTPmF"], "asm": "OP_HASH160 c594e60b55102125114dc96e139baf0a8eb55daf OP_EQUAL", "type": "scripthash"}, "value": 0.01, "n": 0}, {"scriptPubKey": {"reqSigs": 1, "hex": "76a914f423dfee34e4833104508103d89e316b4a49314088ac", "addresses": ["1PFtrRjbq4aLfM7k4tyLZ3ZAuTsgLr6Q8Q"], "asm": "OP_DUP OP_HASH160 f423dfee34e4833104508103d89e316b4a493140 OP_EQUALVERIFY OP_CHECKSIG", "type": "pubkeyhash"}, "value": 0.0007804, "n": 1}], "hex": "01000000010ac247ad5a9c2b073d8c151913f127cef7100d6938a53be91aee68e443df8498640000006a4730440220764c4a130fb37c3c727a38e7d38bac54fd4589a370270006f6e63eab8e63a9c6022003ecd45d9626c2be012cb6529a73a0f6006439aa624ce385496d2e3f4120ecc40121030b9f2b5eef1c346b30cc67f0d5a518ec2e0b7e71c334507697b4d111b3bfe9faffffffff0240420f000000000017a914c594e60b55102125114dc96e139baf0a8eb55daf87d8300100000000001976a914f423dfee34e4833104508103d89e316b4a49314088ac00000000", "vin": [{"sequence": 4294967295, "scriptSig": {"hex": "4730440220764c4a130fb37c3c727a38e7d38bac54fd4589a370270006f6e63eab8e63a9c6022003ecd45d9626c2be012cb6529a73a0f6006439aa624ce385496d2e3f4120ecc40121030b9f2b5eef1c346b30cc67f0d5a518ec2e0b7e71c334507697b4d111b3bfe9fa", "asm": "30440220764c4a130fb37c3c727a38e7d38bac54fd4589a370270006f6e63eab8e63a9c6022003ecd45d9626c2be012cb6529a73a0f6006439aa624ce385496d2e3f4120ecc4[ALL] 030b9f2b5eef1c346b30cc67f0d5a518ec2e0b7e71c334507697b4d111b3bfe9fa"}, "vout": 100, "txid": "9884df43e468ee1ae93ba538690d10f7ce27f11319158c3d072b9c5aad47c20a"}], "txid": "41703951f29c9ff1846f586c9727f76ccf40329ff98d58c2f4811c0aa474355c", "blocktime": 1537876114, "version": 1, "confirmations": 11459, "time": 1537876114, "locktime": 0, "vsize": 223, "size": 223}