{"hash": "618589a345dde2a11a0f6b5b174678944ba40255182093aa1efa892cee0bfae1", "blockhash": "00000000000000000024a2167bbff67b0be802c0b01cdd79e6331c2be6459f87", "vout": [{"scriptPubKey": {"reqSigs": 1, "hex": "76a914403ff8d15354713c1c50e718aa7540a82aa6eb3b88ac", "addresses": ["16rit8HzzmTMoDkzNvpmLeJLFRGH47RdoK"], "asm": "OP_DUP OP_HASH160 403ff8d15354713c1c50e718aa7540a82aa6eb3b OP_EQUALVERIFY OP_CHECKSIG", "type": "pubkeyhash"}, "value": 0.0089, "n": 0}, {"scriptPubKey": {"reqSigs": 1, "hex": "76a9145f58c2089439dd96358fbbe679c9067f5e290c9088ac", "addresses": ["19h9XEZtA8yF3uosJck9HTAaTszzipgaB6"], "asm": "OP_DUP OP_HASH160 5f58c2089439dd96358fbbe679c9067f5e290c90 OP_EQUALVERIFY OP_CHECKSIG", "type": "pubkeyhash"}, "value": 0.03137, "n": 1}, {"scriptPubKey": {"reqSigs": 1, "hex": "a91492a08c6bbe44a37960fda650003f78bf187b8ba287", "addresses": ["3F4Juf6cvVxTv7Dhk7QdUL1wPqC2Ynr8ec"], "asm": "OP_HASH160 92a08c6bbe44a37960fda650003f78bf187b8ba2 OP_EQUAL", "type": "scripthash"}, "value": 0.01031971, "n": 2}], "hex": "02000000000102a5ab78f38de4b09d84a289d601542a31f6208e103270f94f3bf55fb04520d55e01000000171600146fa81cacfe7e23aa4be12a25237c0e4c8b0b315afeffffffce0b0ee88c82a4703d67a0b5bf138fcb213b59a9799d5ddcc79416b37bdb7159180000001716001459406f9ec08816377f334fc98600fa22d93cef74feffffff0390940d00000000001976a914403ff8d15354713c1c50e718aa7540a82aa6eb3b88ace8dd2f00000000001976a9145f58c2089439dd96358fbbe679c9067f5e290c9088ac23bf0f000000000017a91492a08c6bbe44a37960fda650003f78bf187b8ba28702483045022100c33d1993b0196751ae3975dd1fe0bb81d020c0653d7a491c602bb4d1a1dec8ff02201e97d3c1a926f857e90a7d1803bc171dde42fa77d826ff5044009bbc1466cd1801210334649b47d0fef0d7e3e0f34e3280e742136f11a6a2a315a001373cf75ccb1b0902473044022065960a69260c678dc621206c4401e41613196d4458fd093568ad6321c7b330640220430938548573bf99bc13d3310105801ce1855ba638acbc90fbbb661e1b238fa9012102a16a2fc99e38ffc5af3b2dbd5d16121910197d85402ffa3d0537540e76f95a5200000000", "vin": [{"txinwitness": ["3045022100c33d1993b0196751ae3975dd1fe0bb81d020c0653d7a491c602bb4d1a1dec8ff02201e97d3c1a926f857e90a7d1803bc171dde42fa77d826ff5044009bbc1466cd1801", "0334649b47d0fef0d7e3e0f34e3280e742136f11a6a2a315a001373cf75ccb1b09"], "sequence": 4294967294, "scriptSig": {"hex": "1600146fa81cacfe7e23aa4be12a25237c0e4c8b0b315a", "asm": "00146fa81cacfe7e23aa4be12a25237c0e4c8b0b315a"}, "vout": 1, "txid": "5ed52045b05ff53b4ff97032108e20f6312a5401d689a2849db0e48df378aba5"}, {"txinwitness": ["3044022065960a69260c678dc621206c4401e41613196d4458fd093568ad6321c7b330640220430938548573bf99bc13d3310105801ce1855ba638acbc90fbbb661e1b238fa901", "02a16a2fc99e38ffc5af3b2dbd5d16121910197d85402ffa3d0537540e76f95a52"], "sequence": 4294967294, "scriptSig": {"hex": "16001459406f9ec08816377f334fc98600fa22d93cef74", "asm": "001459406f9ec08816377f334fc98600fa22d93cef74"}, "vout": 24, "txid": "5971db7bb31694c7dc5d9d79a9593b21cb8f13bfb5a0673d70a4828ce80e0bce"}], "txid": "41741428ae077f06dc655d72549ae5e89bd8f4289d0649f7939a02edb63e2776", "blocktime": 1537870564, "version": 2, "confirmations": 11515, "time": 1537870564, "locktime": 0, "vsize": 293, "size": 455}