{"hash": "41748752dcc85795e7da904aa2484a2fa0d6cd59c55be320aae0fe5ca116657d", "blockhash": "000000000000000000022b45ed06c6f4ccd3cf7fb5ba4856ebd2e58215665228", "vout": [{"scriptPubKey": {"reqSigs": 1, "hex": "76a914f78607522d0dd64fed2e356da114b378316ae45588ac", "addresses": ["1PZnTrSGFR4XBx1frxYFAaXG5AjKChrmMG"], "asm": "OP_DUP OP_HASH160 f78607522d0dd64fed2e356da114b378316ae455 OP_EQUALVERIFY OP_CHECKSIG", "type": "pubkeyhash"}, "value": 0.00295601, "n": 0}, {"scriptPubKey": {"type": "nulldata", "hex": "6a146f6d6e69000000000000001f0000000d7dc486c0", "asm": "OP_RETURN 6f6d6e69000000000000001f0000000d7dc486c0"}, "value": 0.0, "n": 1}, {"scriptPubKey": {"reqSigs": 1, "hex": "76a914b15c308f0c545cfb4074ef69b18420f8aaaa760688ac", "addresses": ["1HAo3QWtV2MV3gZuy78PcntkWiwibyVaft"], "asm": "OP_DUP OP_HASH160 b15c308f0c545cfb4074ef69b18420f8aaaa7606 OP_EQUALVERIFY OP_CHECKSIG", "type": "pubkeyhash"}, "value": 5.46e-06, "n": 2}], "hex": "01000000019000fbed31e44f3f1d845d7126d0ab030cbd6be7c10439f25344435f83cc8e6c000000006a4730440220567f31cfcb523453275178f6ef7d686fb188d6858b4768aae84688a5c174e975022064785d2f133f85ee6c94db15bbbcef244419cf200d6414a8e612f6acc647642601210296b5a96ccb327053d44854547fe337151f449ed0e46f4c55820b935c102b8486ffffffff03b1820400000000001976a914f78607522d0dd64fed2e356da114b378316ae45588ac0000000000000000166a146f6d6e69000000000000001f0000000d7dc486c022020000000000001976a914b15c308f0c545cfb4074ef69b18420f8aaaa760688ac00000000", "vin": [{"sequence": 4294967295, "scriptSig": {"hex": "4730440220567f31cfcb523453275178f6ef7d686fb188d6858b4768aae84688a5c174e975022064785d2f133f85ee6c94db15bbbcef244419cf200d6414a8e612f6acc647642601210296b5a96ccb327053d44854547fe337151f449ed0e46f4c55820b935c102b8486", "asm": "30440220567f31cfcb523453275178f6ef7d686fb188d6858b4768aae84688a5c174e975022064785d2f133f85ee6c94db15bbbcef244419cf200d6414a8e612f6acc6476426[ALL] 0296b5a96ccb327053d44854547fe337151f449ed0e46f4c55820b935c102b8486"}, "vout": 0, "txid": "6c8ecc835f434453f23904c1e76bbd0c03abd026715d841d3f4fe431edfb0090"}], "txid": "41748752dcc85795e7da904aa2484a2fa0d6cd59c55be320aae0fe5ca116657d", "blocktime": 1537869901, "version": 1, "confirmations": 11522, "time": 1537869901, "locktime": 0, "vsize": 256, "size": 256}