{"hash": "4175b8b8e3d5cfc04b0392c3bb396f263db7d38f3fcff38540408da2315e74bb", "blockhash": "0000000000000000000e13cef7c366c0283d82e591d1acd082e914b08063cdf1", "vout": [{"scriptPubKey": {"reqSigs": 1, "hex": "a914590570b8790946ac79c343a96e8f5d48f8dfc5b187", "addresses": ["39oiachhN4xsCJMh4CydkGgFGxniMH68Mn"], "asm": "OP_HASH160 590570b8790946ac79c343a96e8f5d48f8dfc5b1 OP_EQUAL", "type": "scripthash"}, "value": 0.03123582, "n": 0}, {"scriptPubKey": {"reqSigs": 1, "hex": "76a914faf1260448f8cf12a45441dbd8ddb3c7cd79ab9588ac", "addresses": ["1PsrpFTjN5QKLFKxC5PueMgvbdnU1h8tX3"], "asm": "OP_DUP OP_HASH160 faf1260448f8cf12a45441dbd8ddb3c7cd79ab95 OP_EQUALVERIFY OP_CHECKSIG", "type": "pubkeyhash"}, "value": 0.01232903, "n": 1}], "hex": "01000000029e96bc8ffebff245082c0dfe4736bcfbc16f976cee3ec03408e1eb2bbf0e3ce8000000006a4730440220552fa5474ea748cd66762cc78e31d63c39a96aa2b9bd42177a8e6f4eaef1b685022038fee7192614df4b4db0304b7498934ba08a581593152a179862323300863c9f0121021acca02c04246f5d68e23916ccd6b8ae1ae66d46bd8c6e50b39c9ab3ce42c8c4ffffffff39ec558f02a57584f6839bb4090d2ebdc1709b4948a2dc74a0cb9cb50db09cf6010000006a473044022071cc512ad51c4a8d2870ab533a1dfb4d3638bf88efb0a27e55707de2f6ede89802203219acd750d28a492ae4abbc12387da3568a5703c16154c85a01929e0ce2110901210285f485f893996c0d5dbc3e4d49854bb8cf43cb1a9c50c6d083287407dc9d1874ffffffff027ea92f000000000017a914590570b8790946ac79c343a96e8f5d48f8dfc5b18707d01200000000001976a914faf1260448f8cf12a45441dbd8ddb3c7cd79ab9588ac00000000", "vin": [{"sequence": 4294967295, "scriptSig": {"hex": "4730440220552fa5474ea748cd66762cc78e31d63c39a96aa2b9bd42177a8e6f4eaef1b685022038fee7192614df4b4db0304b7498934ba08a581593152a179862323300863c9f0121021acca02c04246f5d68e23916ccd6b8ae1ae66d46bd8c6e50b39c9ab3ce42c8c4", "asm": "30440220552fa5474ea748cd66762cc78e31d63c39a96aa2b9bd42177a8e6f4eaef1b685022038fee7192614df4b4db0304b7498934ba08a581593152a179862323300863c9f[ALL] 021acca02c04246f5d68e23916ccd6b8ae1ae66d46bd8c6e50b39c9ab3ce42c8c4"}, "vout": 0, "txid": "e83c0ebf2bebe10834c03eee6c976fc1fbbc3647fe0d2c0845f2bffe8fbc969e"}, {"sequence": 4294967295, "scriptSig": {"hex": "473044022071cc512ad51c4a8d2870ab533a1dfb4d3638bf88efb0a27e55707de2f6ede89802203219acd750d28a492ae4abbc12387da3568a5703c16154c85a01929e0ce2110901210285f485f893996c0d5dbc3e4d49854bb8cf43cb1a9c50c6d083287407dc9d1874", "asm": "3044022071cc512ad51c4a8d2870ab533a1dfb4d3638bf88efb0a27e55707de2f6ede89802203219acd750d28a492ae4abbc12387da3568a5703c16154c85a01929e0ce21109[ALL] 0285f485f893996c0d5dbc3e4d49854bb8cf43cb1a9c50c6d083287407dc9d1874"}, "vout": 1, "txid": "f69cb00db59ccba074dca248499b70c1bd2e0d09b49b83f68475a5028f55ec39"}], "txid": "4175b8b8e3d5cfc04b0392c3bb396f263db7d38f3fcff38540408da2315e74bb", "blocktime": 1537871767, "version": 1, "confirmations": 11490, "time": 1537871767, "locktime": 0, "vsize": 370, "size": 370}