{"hash": "4178e16888e1a7e1eeae1e27b5d19f62d734cc3ea712bd5a032894e9cfc10c2d", "blockhash": "0000000000000000001e0dab787dd257d1dbfcb92a98c2207d5e1078be1f4165", "vout": [{"scriptPubKey": {"reqSigs": 1, "hex": "a91469f3774381b21f7dd22d5e6272bb73d73906f91687", "addresses": ["3BMEXzTQJEy6QzxTRNQPEsUWwTkB1BSLfn"], "asm": "OP_HASH160 69f3774381b21f7dd22d5e6272bb73d73906f916 OP_EQUAL", "type": "scripthash"}, "value": 0.01405789, "n": 0}, {"scriptPubKey": {"reqSigs": 1, "hex": "76a914c50c51c9aa85ca3f2650bd6dc21381b96f3912c888ac", "addresses": ["1JxtsmGmUmKX9iKBxevSBcQ3cJGW7stJmU"], "asm": "OP_DUP OP_HASH160 c50c51c9aa85ca3f2650bd6dc21381b96f3912c8 OP_EQUALVERIFY OP_CHECKSIG", "type": "pubkeyhash"}, "value": 0.00947007, "n": 1}], "hex": "01000000016074fb21fb3d4aa1415a76a737269cae105c9162c9546ad140d237e2eb7d59cb010000006a473044022076d4309a2e6be9b4256512637f981ba886f9b9bdbf494ef05e40cabd90ef361e02205f54a0d08437403c9cc59c7da52d9dc9ab45481dc2806c19c2072d4c1c3844d9012103a91f333158f6d0d58924c3b403c884a45dd71140693624e0cf72d4889d063feeffffffff025d7315000000000017a91469f3774381b21f7dd22d5e6272bb73d73906f916873f730e00000000001976a914c50c51c9aa85ca3f2650bd6dc21381b96f3912c888ac00000000", "vin": [{"sequence": 4294967295, "scriptSig": {"hex": "473044022076d4309a2e6be9b4256512637f981ba886f9b9bdbf494ef05e40cabd90ef361e02205f54a0d08437403c9cc59c7da52d9dc9ab45481dc2806c19c2072d4c1c3844d9012103a91f333158f6d0d58924c3b403c884a45dd71140693624e0cf72d4889d063fee", "asm": "3044022076d4309a2e6be9b4256512637f981ba886f9b9bdbf494ef05e40cabd90ef361e02205f54a0d08437403c9cc59c7da52d9dc9ab45481dc2806c19c2072d4c1c3844d9[ALL] 03a91f333158f6d0d58924c3b403c884a45dd71140693624e0cf72d4889d063fee"}, "vout": 1, "txid": "cb597debe237d240d16a54c962915c10ae9c2637a7765a41a14a3dfb21fb7460"}], "txid": "4178e16888e1a7e1eeae1e27b5d19f62d734cc3ea712bd5a032894e9cfc10c2d", "blocktime": 1537872475, "version": 1, "confirmations": 11486, "time": 1537872475, "locktime": 0, "vsize": 223, "size": 223}