{"hash": "448298c5cb21ccda9c0b7b4e01c9690c6fb8532f09272fa01128bdb6268b40b6", "blockhash": "00000000000000000018f53835495a110e01622372bf6ae95dc86f2b0ab887b0", "vout": [{"scriptPubKey": {"reqSigs": 1, "hex": "a914f25bd69fa3a631c9a5d307b9ae2f720c6bfec2f087", "addresses": ["3PnVU1Tk763py38FFT2HActW7cLKsicgt4"], "asm": "OP_HASH160 f25bd69fa3a631c9a5d307b9ae2f720c6bfec2f0 OP_EQUAL", "type": "scripthash"}, "value": 0.01000062, "n": 0}, {"scriptPubKey": {"reqSigs": 1, "hex": "76a9145765d151ed725076ca70edb9a867a436b6c7233a88ac", "addresses": ["18y7m72yCMavcJEG7DPQstZkUSUV5vt2hB"], "asm": "OP_DUP OP_HASH160 5765d151ed725076ca70edb9a867a436b6c7233a OP_EQUALVERIFY OP_CHECKSIG", "type": "pubkeyhash"}, "value": 0.0027766, "n": 1}], "hex": "020000000001021be7c78cbc809775dad694d899e49f3771af19a998f82846a7b9b89c863781860800000017160014a3e0c580ca30b7f3b0c495816f2c4d2f91fbfc17feffffff5f7e27f02ce83f5e3a7d0862a4c08b55ecbf4af3744f1439acdf334bc670f6200100000017160014a95837298fdce180f189e0f12e9963137a489542feffffff027e420f000000000017a914f25bd69fa3a631c9a5d307b9ae2f720c6bfec2f0879c3c0400000000001976a9145765d151ed725076ca70edb9a867a436b6c7233a88ac024730440220535707c720009b9495504958a88a1c510b240a33cae549c8d6caa41a22fee28002207c44a3b9ff48317298ab0624b38630cb2bfa2830f649ee8078e5cd6cdc6c0a83012102861e768ca7afc6fddcef4f0fcd39b6754f7e6ba6db63142acb274151b1cad13e02483045022100f34e352c082276a90faeffadf1814d9eb3dd514d3ffda9761db9c17cdb28a75d02203bc97db25b3b201171177c12b3055c1493ae6cbac11ec6ba214aebadb65f84c5012102757d6ff11cc1e7ddcd8e61a644060f88a4ede4a492083f47714e8f58b1fe5d1a0e490800", "vin": [{"txinwitness": ["30440220535707c720009b9495504958a88a1c510b240a33cae549c8d6caa41a22fee28002207c44a3b9ff48317298ab0624b38630cb2bfa2830f649ee8078e5cd6cdc6c0a8301", "02861e768ca7afc6fddcef4f0fcd39b6754f7e6ba6db63142acb274151b1cad13e"], "sequence": 4294967294, "scriptSig": {"hex": "160014a3e0c580ca30b7f3b0c495816f2c4d2f91fbfc17", "asm": "0014a3e0c580ca30b7f3b0c495816f2c4d2f91fbfc17"}, "vout": 8, "txid": "868137869cb8b9a74628f898a919af71379fe499d894d6da759780bc8cc7e71b"}, {"txinwitness": ["3045022100f34e352c082276a90faeffadf1814d9eb3dd514d3ffda9761db9c17cdb28a75d02203bc97db25b3b201171177c12b3055c1493ae6cbac11ec6ba214aebadb65f84c501", "02757d6ff11cc1e7ddcd8e61a644060f88a4ede4a492083f47714e8f58b1fe5d1a"], "sequence": 4294967294, "scriptSig": {"hex": "160014a95837298fdce180f189e0f12e9963137a489542", "asm": "0014a95837298fdce180f189e0f12e9963137a489542"}, "vout": 1, "txid": "20f670c64b33dfac39144f74f34abfec558bc0a462087d3a5e3fe82cf0277e5f"}], "txid": "417afdb9556cb24e3b590cc6dab791a3bdb98a613d47188a58cdec05fe1ff09f", "blocktime": 1537870928, "version": 2, "confirmations": 11514, "time": 1537870928, "locktime": 542990, "vsize": 259, "size": 421}