{"hash": "4187eccff51e8a461c3df123fc7f9fbd01d375421b4ab9c27b4bdb2ce1c53d84", "blockhash": "0000000000000000000e13cef7c366c0283d82e591d1acd082e914b08063cdf1", "vout": [{"scriptPubKey": {"reqSigs": 1, "hex": "76a9149d8616e8ba48ff118a27c4e7de48155d528c0c6d88ac", "addresses": ["1FMuipU2fQFUAbpVHrjUa3rFBJCuQLoZ9n"], "asm": "OP_DUP OP_HASH160 9d8616e8ba48ff118a27c4e7de48155d528c0c6d OP_EQUALVERIFY OP_CHECKSIG", "type": "pubkeyhash"}, "value": 9.03e-06, "n": 0}, {"scriptPubKey": {"reqSigs": 1, "hex": "a9143f63efc1270aa20878b0932029523afa5e5532e387", "addresses": ["37UCDLmdy11yYgJXmqeVMS16bnkKaAP69k"], "asm": "OP_HASH160 3f63efc1270aa20878b0932029523afa5e5532e3 OP_EQUAL", "type": "scripthash"}, "value": 0.00421794, "n": 1}], "hex": "0100000001e4a8c3f556aca9c36819d3bf8740b00815989ed07b0c3aa8ed185d3c833290ea010000006b483045022100c6ac2d84f1112a8c4b41b7fee96a1a567830bf5fbe460a636e416a3d01104a8902203fb14b291d1388b9e642ad1c9b412833ba6c9061d18b29105d7da6c1ab8e71d4012103c80b5aae25e8554a78b2bbacc1008a4f072b5d9ea49e4d582d9952bc435b86e5ffffffff0287030000000000001976a9149d8616e8ba48ff118a27c4e7de48155d528c0c6d88aca26f06000000000017a9143f63efc1270aa20878b0932029523afa5e5532e38700000000", "vin": [{"sequence": 4294967295, "scriptSig": {"hex": "483045022100c6ac2d84f1112a8c4b41b7fee96a1a567830bf5fbe460a636e416a3d01104a8902203fb14b291d1388b9e642ad1c9b412833ba6c9061d18b29105d7da6c1ab8e71d4012103c80b5aae25e8554a78b2bbacc1008a4f072b5d9ea49e4d582d9952bc435b86e5", "asm": "3045022100c6ac2d84f1112a8c4b41b7fee96a1a567830bf5fbe460a636e416a3d01104a8902203fb14b291d1388b9e642ad1c9b412833ba6c9061d18b29105d7da6c1ab8e71d4[ALL] 03c80b5aae25e8554a78b2bbacc1008a4f072b5d9ea49e4d582d9952bc435b86e5"}, "vout": 1, "txid": "ea9032833c5d18eda83a0c7bd09e981508b04087bfd31968c3a9ac56f5c3a8e4"}], "txid": "4187eccff51e8a461c3df123fc7f9fbd01d375421b4ab9c27b4bdb2ce1c53d84", "blocktime": 1537871767, "version": 1, "confirmations": 11491, "time": 1537871767, "locktime": 0, "vsize": 224, "size": 224}