{"hash": "418b77b22b9b99981e47741010eebd76881d0b95fce15c7ef09a08945dea914f", "blockhash": "0000000000000000001e0dab787dd257d1dbfcb92a98c2207d5e1078be1f4165", "vout": [{"scriptPubKey": {"reqSigs": 1, "hex": "a9142e5566480703f11af8e0cec0236bcf2b88de488087", "addresses": ["35v1K2o9gzJeTpnd7YsKknkAiS2rousRpc"], "asm": "OP_HASH160 2e5566480703f11af8e0cec0236bcf2b88de4880 OP_EQUAL", "type": "scripthash"}, "value": 0.00634934, "n": 0}, {"scriptPubKey": {"reqSigs": 1, "hex": "76a914f9e94e56953125da4e838e8baf046b707a6c13e288ac", "addresses": ["1PnQk9nTFnpwMUVAyDms4F3RKJdo1L9NRW"], "asm": "OP_DUP OP_HASH160 f9e94e56953125da4e838e8baf046b707a6c13e2 OP_EQUALVERIFY OP_CHECKSIG", "type": "pubkeyhash"}, "value": 0.0542458, "n": 1}], "hex": "01000000018fe2453b58850159463f30138c1d26f6aa6955626f7be953816661610eb37d11010000006a47304402200ed9fce8d3eee46fd3d935fb851d797e246bbcf94e3493ced449b145abf5105e02203ba58790a891b59366368e01b86d55cb490c35e083afe2e14adc542a808732370121038f54bf810ef09df77c5cd4508c931bf98abad7dae06cbdaabf0d5a792089af4affffffff0236b009000000000017a9142e5566480703f11af8e0cec0236bcf2b88de488087c4c55200000000001976a914f9e94e56953125da4e838e8baf046b707a6c13e288ac00000000", "vin": [{"sequence": 4294967295, "scriptSig": {"hex": "47304402200ed9fce8d3eee46fd3d935fb851d797e246bbcf94e3493ced449b145abf5105e02203ba58790a891b59366368e01b86d55cb490c35e083afe2e14adc542a808732370121038f54bf810ef09df77c5cd4508c931bf98abad7dae06cbdaabf0d5a792089af4a", "asm": "304402200ed9fce8d3eee46fd3d935fb851d797e246bbcf94e3493ced449b145abf5105e02203ba58790a891b59366368e01b86d55cb490c35e083afe2e14adc542a80873237[ALL] 038f54bf810ef09df77c5cd4508c931bf98abad7dae06cbdaabf0d5a792089af4a"}, "vout": 1, "txid": "117db30e6161668153e97b6f625569aaf6261d8c13303f46590185583b45e28f"}], "txid": "418b77b22b9b99981e47741010eebd76881d0b95fce15c7ef09a08945dea914f", "blocktime": 1537872475, "version": 1, "confirmations": 11486, "time": 1537872475, "locktime": 0, "vsize": 223, "size": 223}