{"hash": "418b8a4d429d2a7855d6ca90e78464ec5ea43cf89eafebd51ac70233fe643d1b", "blockhash": "0000000000000000000dcc0f55137456b1a82d3642486a52398922ac4d620174", "vout": [{"scriptPubKey": {"reqSigs": 1, "hex": "a9146e21160e6c6d2fc19951039432208ff1a40e107687", "addresses": ["3BjKtWdNyk8GyArSb6RxVNtr55YwUjRbZm"], "asm": "OP_HASH160 6e21160e6c6d2fc19951039432208ff1a40e1076 OP_EQUAL", "type": "scripthash"}, "value": 0.01056236, "n": 0}], "hex": "0100000001f3ead9943a1772714b010ab9a1b2de6b1add99cd97ecb481b9d36b4a9a1e4fb101000000fdfe00004830450221008b1a5897c942e0b8e117d4e8fe0acfdac0f35e90b20f4444c735bbf4ed7ea0f102204c91124694d7e5df386274964d9d5abcb8b026a67772675eedff7dd0243e3c7e01483045022100a21433edb5893e321b4475c4fec10f428efc808c013cd4843afa36eeed85c7da0220037601d947681275774e38a7ade1aa0233aa4b15cf8857f483de6d0e8c63c172014c69522103225ca610650cdb06984ed42ed14872144c8a5d18216d369bf47f1829319418f921030f0608d4899a36bf75cceec4b4aeecc79b45eaab474c457b049602c7fe63217c21029de0165987ca1628c6f03d92a76fdc036980e070c29aa57dcc01466af88bd9d153aeffffffff01ec1d10000000000017a9146e21160e6c6d2fc19951039432208ff1a40e10768700000000", "vin": [{"sequence": 4294967295, "scriptSig": {"hex": "004830450221008b1a5897c942e0b8e117d4e8fe0acfdac0f35e90b20f4444c735bbf4ed7ea0f102204c91124694d7e5df386274964d9d5abcb8b026a67772675eedff7dd0243e3c7e01483045022100a21433edb5893e321b4475c4fec10f428efc808c013cd4843afa36eeed85c7da0220037601d947681275774e38a7ade1aa0233aa4b15cf8857f483de6d0e8c63c172014c69522103225ca610650cdb06984ed42ed14872144c8a5d18216d369bf47f1829319418f921030f0608d4899a36bf75cceec4b4aeecc79b45eaab474c457b049602c7fe63217c21029de0165987ca1628c6f03d92a76fdc036980e070c29aa57dcc01466af88bd9d153ae", "asm": "0 30450221008b1a5897c942e0b8e117d4e8fe0acfdac0f35e90b20f4444c735bbf4ed7ea0f102204c91124694d7e5df386274964d9d5abcb8b026a67772675eedff7dd0243e3c7e[ALL] 3045022100a21433edb5893e321b4475c4fec10f428efc808c013cd4843afa36eeed85c7da0220037601d947681275774e38a7ade1aa0233aa4b15cf8857f483de6d0e8c63c172[ALL] 522103225ca610650cdb06984ed42ed14872144c8a5d18216d369bf47f1829319418f921030f0608d4899a36bf75cceec4b4aeecc79b45eaab474c457b049602c7fe63217c21029de0165987ca1628c6f03d92a76fdc036980e070c29aa57dcc01466af88bd9d153ae"}, "vout": 1, "txid": "b14f1e9a4a6bd3b981b4ec97cd99dd1a6bdeb2a1b90a014b7172173a94d9eaf3"}], "txid": "418b8a4d429d2a7855d6ca90e78464ec5ea43cf89eafebd51ac70233fe643d1b", "blocktime": 1537870268, "version": 1, "confirmations": 11516, "time": 1537870268, "locktime": 0, "vsize": 339, "size": 339}