{"hash": "418d965d5e0392e027b65897518c7f7b83a1e91994b9b0305463dcfacb021c09", "blockhash": "0000000000000000000baef3f32e3676a92c3b2e5da21b426e4f302fc371ce76", "vout": [{"scriptPubKey": {"reqSigs": 1, "hex": "a914ca6fa985343fd3c2efa1bfb694d149e21f41d87b87", "addresses": ["3L9QBicv5ghB4gf46y3qS5S1uWLzDKQdg6"], "asm": "OP_HASH160 ca6fa985343fd3c2efa1bfb694d149e21f41d87b OP_EQUAL", "type": "scripthash"}, "value": 0.02729, "n": 0}, {"scriptPubKey": {"reqSigs": 1, "hex": "76a9145da14735d8762572374693ed89a84c4c4c9a8cb788ac", "addresses": ["19Y53eL6ypSMz8UQNTi85kytdD6zVwcDCR"], "asm": "OP_DUP OP_HASH160 5da14735d8762572374693ed89a84c4c4c9a8cb7 OP_EQUALVERIFY OP_CHECKSIG", "type": "pubkeyhash"}, "value": 0.03533266, "n": 1}], "hex": "01000000017565801c9dbb9d4f3e03edae15e88b0e7d373733587b0e20593cae4daa3064db000000006a47304402204a7dfe2061979c462bf81f5efc8f2ff7cdaf351182f107a0a5e30c1e2092925f022055b75871844fcddac67ae7ce439d938057022c6d8c753645bad1784e2de225160121025c809b2b8663ea60f6230e8c93d7e56d8515a5f1c00089582a265e5a9bc80945ffffffff0228a429000000000017a914ca6fa985343fd3c2efa1bfb694d149e21f41d87b87d2e93500000000001976a9145da14735d8762572374693ed89a84c4c4c9a8cb788ac00000000", "vin": [{"sequence": 4294967295, "scriptSig": {"hex": "47304402204a7dfe2061979c462bf81f5efc8f2ff7cdaf351182f107a0a5e30c1e2092925f022055b75871844fcddac67ae7ce439d938057022c6d8c753645bad1784e2de225160121025c809b2b8663ea60f6230e8c93d7e56d8515a5f1c00089582a265e5a9bc80945", "asm": "304402204a7dfe2061979c462bf81f5efc8f2ff7cdaf351182f107a0a5e30c1e2092925f022055b75871844fcddac67ae7ce439d938057022c6d8c753645bad1784e2de22516[ALL] 025c809b2b8663ea60f6230e8c93d7e56d8515a5f1c00089582a265e5a9bc80945"}, "vout": 0, "txid": "db6430aa4dae3c59200e7b583337377d0e8be815aeed033e4f9dbb9d1c806575"}], "txid": "418d965d5e0392e027b65897518c7f7b83a1e91994b9b0305463dcfacb021c09", "blocktime": 1537876114, "version": 1, "confirmations": 11460, "time": 1537876114, "locktime": 0, "vsize": 223, "size": 223}