{"hash": "4190b9aa380535bfa3dc086397ca511827011d51e9c3b047a07c7145bdc1edcf", "blockhash": "0000000000000000001f0ddff1eddb255c1121bcd4da4f1bc9a0da00cae72433", "vout": [{"scriptPubKey": {"reqSigs": 1, "hex": "76a9147a68e219f281647786a3e097986aef5919064b6588ac", "addresses": ["1CAF5pMLNqeFgwU1rEHdGvJzX2douMaSwJ"], "asm": "OP_DUP OP_HASH160 7a68e219f281647786a3e097986aef5919064b65 OP_EQUALVERIFY OP_CHECKSIG", "type": "pubkeyhash"}, "value": 0.0218, "n": 0}, {"scriptPubKey": {"reqSigs": 1, "hex": "a914d07ad43d99681a275aab28cb51aae3f2711432dc87", "addresses": ["3LhMcktaemGyMRd1nJhyBgL54ZxchRJ6F6"], "asm": "OP_HASH160 d07ad43d99681a275aab28cb51aae3f2711432dc OP_EQUAL", "type": "scripthash"}, "value": 0.0001, "n": 1}], "hex": "01000000014e5bae0b89a184784ed9368b45cb5a5cd62a38a9d4fa8b80d8805d4dc40bf9ed00000000fdfe0000483045022100b88e5d1d8034d25ab95375745146d3e453aa0b1cefbe90688952dd2a2d3ffaca02207320c341be4e4498952102412718e4fe7002ab581c8b919f1c7f89f35c90a98001483045022100ae48bfe1aed8fd4ef3f90e217dca7981e59e6fb59eadff26b0d7ed73dcb9d68502204c8db97fe0d33ff46493fb81e6416e94cb3a92c16443d43fa72f47339fbf1921014c69522102249de3016a9f94c3d3d8e099ce159dfd57c48ab5d9abe48d3311206d30c9f71821034555273d859a6a383bedbe65d3736c69a37ecf2b9910344982e76e67cc78510821034d631cb1f35a1d231817db4d48ccc35fad5f991ba459b377990d576f21478a2b53aeffffffff02a0432100000000001976a9147a68e219f281647786a3e097986aef5919064b6588ac102700000000000017a914d07ad43d99681a275aab28cb51aae3f2711432dc8700000000", "vin": [{"sequence": 4294967295, "scriptSig": {"hex": "00483045022100b88e5d1d8034d25ab95375745146d3e453aa0b1cefbe90688952dd2a2d3ffaca02207320c341be4e4498952102412718e4fe7002ab581c8b919f1c7f89f35c90a98001483045022100ae48bfe1aed8fd4ef3f90e217dca7981e59e6fb59eadff26b0d7ed73dcb9d68502204c8db97fe0d33ff46493fb81e6416e94cb3a92c16443d43fa72f47339fbf1921014c69522102249de3016a9f94c3d3d8e099ce159dfd57c48ab5d9abe48d3311206d30c9f71821034555273d859a6a383bedbe65d3736c69a37ecf2b9910344982e76e67cc78510821034d631cb1f35a1d231817db4d48ccc35fad5f991ba459b377990d576f21478a2b53ae", "asm": "0 3045022100b88e5d1d8034d25ab95375745146d3e453aa0b1cefbe90688952dd2a2d3ffaca02207320c341be4e4498952102412718e4fe7002ab581c8b919f1c7f89f35c90a980[ALL] 3045022100ae48bfe1aed8fd4ef3f90e217dca7981e59e6fb59eadff26b0d7ed73dcb9d68502204c8db97fe0d33ff46493fb81e6416e94cb3a92c16443d43fa72f47339fbf1921[ALL] 522102249de3016a9f94c3d3d8e099ce159dfd57c48ab5d9abe48d3311206d30c9f71821034555273d859a6a383bedbe65d3736c69a37ecf2b9910344982e76e67cc78510821034d631cb1f35a1d231817db4d48ccc35fad5f991ba459b377990d576f21478a2b53ae"}, "vout": 0, "txid": "edf90bc44d5d80d8808bfad4a9382ad65c5acb458b36d94e7884a1890bae5b4e"}], "txid": "4190b9aa380535bfa3dc086397ca511827011d51e9c3b047a07c7145bdc1edcf", "blocktime": 1537872018, "version": 1, "confirmations": 11489, "time": 1537872018, "locktime": 0, "vsize": 373, "size": 373}