{"hash": "5503809961444a4293da081caf0641de2aedbb8a8781f38e5aee65c9aa05e97a", "blockhash": "00000000000000000017f5eb5941039fbcee6240d03bc1f2f8e35350df66a1d8", "vout": [{"scriptPubKey": {"reqSigs": 1, "hex": "a914af8116c0421894a75875d3bf11065aa96007eb3587", "addresses": ["3HgzpNBmBEhJaUSMW6FmFwzRh86PBmczAX"], "asm": "OP_HASH160 af8116c0421894a75875d3bf11065aa96007eb35 OP_EQUAL", "type": "scripthash"}, "value": 2.56805226, "n": 0}, {"scriptPubKey": {"reqSigs": 1, "hex": "76a914bab9b8c32a00dfb79add907ed653e3c722b14a1088ac", "addresses": ["1J2KArSHGBnDcWTBFL5WbdAmfFh8i4zJJh"], "asm": "OP_DUP OP_HASH160 bab9b8c32a00dfb79add907ed653e3c722b14a10 OP_EQUALVERIFY OP_CHECKSIG", "type": "pubkeyhash"}, "value": 0.13500278, "n": 1}], "hex": "02000000000101b8b0b1d0f4ea14d0ae3356236d3a51d19140f2ff58eb42d8ee6e283d0db9bbaa0000000017160014f061ceb36d8e66dbbd5a47ac4d6715e505e01250feffffff026a894e0f0000000017a914af8116c0421894a75875d3bf11065aa96007eb358776ffcd00000000001976a914bab9b8c32a00dfb79add907ed653e3c722b14a1088ac02483045022100f9062ac4a03f88ea0d98165c612c373e7ac1ea8366d371a1733b32813bec1559022034893b9519bc1fcb38f5c05e2abe438a3f37c47a82468b9e1df54866974e38f601210301a660ed76e25c443ef0c2801125f11746f5369a2cf000110385eb3171055f8a14490800", "vin": [{"txinwitness": ["3045022100f9062ac4a03f88ea0d98165c612c373e7ac1ea8366d371a1733b32813bec1559022034893b9519bc1fcb38f5c05e2abe438a3f37c47a82468b9e1df54866974e38f601", "0301a660ed76e25c443ef0c2801125f11746f5369a2cf000110385eb3171055f8a"], "sequence": 4294967294, "scriptSig": {"hex": "160014f061ceb36d8e66dbbd5a47ac4d6715e505e01250", "asm": "0014f061ceb36d8e66dbbd5a47ac4d6715e505e01250"}, "vout": 0, "txid": "aabbb90d3d286eeed842eb58fff24091d1513a6d235633aed014eaf4d0b1b0b8"}], "txid": "41972c9f2a58f567131ba4ce7fc34ca36445e09aaf4c691ef5f32d87fde6a96f", "blocktime": 1537874412, "version": 2, "confirmations": 11468, "time": 1537874412, "locktime": 542996, "vsize": 168, "size": 250}