{"hash": "464dc36fb829dec0e46e08d230f9d06836b5193f575921fef96bcdc11d8e21f4", "blockhash": "0000000000000000001f76057863aec43deb6fa401d9628bb513d65a8098bfab", "vout": [{"scriptPubKey": {"reqSigs": 1, "hex": "a9140f4aebd1efd0de568f3543ea5472743296172c8187", "addresses": ["335sp31i9UNdY2iYpnC5uZK9eGQu5YM6iN"], "asm": "OP_HASH160 0f4aebd1efd0de568f3543ea5472743296172c81 OP_EQUAL", "type": "scripthash"}, "value": 3.28555889, "n": 0}, {"scriptPubKey": {"reqSigs": 1, "hex": "76a91435b7b4c20bcf4c434b352cf4fdf81b162f34f53388ac", "addresses": ["15u2tHoKYS69tJA2gzin9vZE5LCz6ZbWAr"], "asm": "OP_DUP OP_HASH160 35b7b4c20bcf4c434b352cf4fdf81b162f34f533 OP_EQUALVERIFY OP_CHECKSIG", "type": "pubkeyhash"}, "value": 0.02392946, "n": 1}], "hex": "01000000000101189807f0a77ab218498712e370f18b12f322aa653ef3cf01c84723144651521b00000000232200202fd9fcb5e378bbb35f1c4ac39b19031603340d3142a60dd28355edb5e76f39fcffffffff02715d95130000000017a9140f4aebd1efd0de568f3543ea5472743296172c818772832400000000001976a91435b7b4c20bcf4c434b352cf4fdf81b162f34f53388ac0400483045022100caba7d5aa14dc0c8d9c3def2e9e9d185691018c2ea71e0c18e080d02e6cfed4302201d4003f6ce464b2f05b8e60d6bd8285a1d8033175f33e8f638c9ac979031eb8a014730440220632875406a08e6c7069c1501584abda9fba474dd23e656937bd4c53ba186040402205c3a890ea98802164a65c9791ba3710fa7be59ae7d9ffaf4552b51fbbeca99e10169522103a083fb0f3384ba8df5083d18cdfd779b8c6c3de7ee610243dca9fed16f6ccb4621032b5e632ccdb6eb1a1d891ac0ab91fe2b2859f106900a6858af82c4b645d5d5772103ad954522eb2a3a872853d0fa6f79a59c875ed6a94224d877f6c8699e470c78ec53ae00000000", "vin": [{"txinwitness": ["", "3045022100caba7d5aa14dc0c8d9c3def2e9e9d185691018c2ea71e0c18e080d02e6cfed4302201d4003f6ce464b2f05b8e60d6bd8285a1d8033175f33e8f638c9ac979031eb8a01", "30440220632875406a08e6c7069c1501584abda9fba474dd23e656937bd4c53ba186040402205c3a890ea98802164a65c9791ba3710fa7be59ae7d9ffaf4552b51fbbeca99e101", "522103a083fb0f3384ba8df5083d18cdfd779b8c6c3de7ee610243dca9fed16f6ccb4621032b5e632ccdb6eb1a1d891ac0ab91fe2b2859f106900a6858af82c4b645d5d5772103ad954522eb2a3a872853d0fa6f79a59c875ed6a94224d877f6c8699e470c78ec53ae"], "sequence": 4294967295, "scriptSig": {"hex": "2200202fd9fcb5e378bbb35f1c4ac39b19031603340d3142a60dd28355edb5e76f39fc", "asm": "00202fd9fcb5e378bbb35f1c4ac39b19031603340d3142a60dd28355edb5e76f39fc"}, "vout": 0, "txid": "1b525146142347c801cff33e65aa22f3128bf170e312874918b27aa7f0079818"}], "txid": "419b15f2acb346b459bab60be741614a21c9ad047a80ef2b3d833927b610d64e", "blocktime": 1537873891, "version": 1, "confirmations": 11478, "time": 1537873891, "locktime": 0, "vsize": 216, "size": 407}