{"hash": "30c8143bb1667778c0884020879faa36a739a01364dfe2e90817e258d65d78aa", "blockhash": "00000000000000000004ffacab907a6b429b9a5745fa0b75af4234bf69dd7176", "vout": [{"scriptPubKey": {"reqSigs": 1, "hex": "76a91467a998500a4ad5c7471b6c4329c84a8cf131af7988ac", "addresses": ["1AT7mRaQDN1AyFFnDE9fAy3dgnprJC4cpF"], "asm": "OP_DUP OP_HASH160 67a998500a4ad5c7471b6c4329c84a8cf131af79 OP_EQUALVERIFY OP_CHECKSIG", "type": "pubkeyhash"}, "value": 0.0297794, "n": 0}, {"scriptPubKey": {"reqSigs": 1, "hex": "a9140ca3941b9dde6174db1d58d99db72519ffde787c87", "addresses": ["32qqzUvxuZWTHu2koo4EUn9wvf72PCq5fX"], "asm": "OP_HASH160 0ca3941b9dde6174db1d58d99db72519ffde787c OP_EQUAL", "type": "scripthash"}, "value": 0.00998582, "n": 1}], "hex": "0200000000010167ea14adb04782be6b79946c5cfe1eb7e393c9c86ad859193475e328ed2a7ea80d000000171600148c55d19577553707d038c0597543d8697a1414e3feffffff0294702d00000000001976a91467a998500a4ad5c7471b6c4329c84a8cf131af7988acb63c0f000000000017a9140ca3941b9dde6174db1d58d99db72519ffde787c870247304402203fe40fabb5a594693a740ff17935a227e7afcf12fbe46aab49c65088f26fcb7502207841854a1b77aebfe6135421665e7d17761e2c0ba4f567b4a8ad95f74b26cf5a0121021f767874d1cea66b62de9d5e0363426e8b906c4064e38f8ff89cebaa27c9dc51b9480800", "vin": [{"txinwitness": ["304402203fe40fabb5a594693a740ff17935a227e7afcf12fbe46aab49c65088f26fcb7502207841854a1b77aebfe6135421665e7d17761e2c0ba4f567b4a8ad95f74b26cf5a01", "021f767874d1cea66b62de9d5e0363426e8b906c4064e38f8ff89cebaa27c9dc51"], "sequence": 4294967294, "scriptSig": {"hex": "1600148c55d19577553707d038c0597543d8697a1414e3", "asm": "00148c55d19577553707d038c0597543d8697a1414e3"}, "vout": 13, "txid": "a87e2aed28e375341959d86ac8c993e3b71efe5c6c94796bbe8247b0ad14ea67"}], "txid": "419de79adb583f17c4d5faac2a470e7fee886fe7079f039fd005f0811107a376", "blocktime": 1537875543, "version": 2, "confirmations": 11464, "time": 1537875543, "locktime": 542905, "vsize": 168, "size": 249}