{"hash": "cb755af15c5d24e4a2189d8340ebc8e1b2cd56cd4ea870068d87678952548cb6", "blockhash": "00000000000000000017f5eb5941039fbcee6240d03bc1f2f8e35350df66a1d8", "vout": [{"scriptPubKey": {"reqSigs": 1, "hex": "0014f354cac826d4fcad9cedaf43642d2108da8733b1", "addresses": ["bc1q7d2v4jpx6n72m88d4apkgtfpprdgwva3myjycd"], "asm": "0 f354cac826d4fcad9cedaf43642d2108da8733b1", "type": "witness_v0_keyhash"}, "value": 0.0013738, "n": 0}, {"scriptPubKey": {"reqSigs": 1, "hex": "a914e6ed6ac3c62cf106b42b0381741f2ed34755387f87", "addresses": ["3Nk3kh1JtTPn4HA1JzBfUScjnMndwMcMD9"], "asm": "OP_HASH160 e6ed6ac3c62cf106b42b0381741f2ed34755387f OP_EQUAL", "type": "scripthash"}, "value": 0.02748229, "n": 1}], "hex": "0100000000010102cfb5b70dd71d6a547dc9f5b3717d31fb1dd65117c3eb8c5d7738a2844082dd0100000000ffffffff02a418020000000000160014f354cac826d4fcad9cedaf43642d2108da8733b145ef29000000000017a914e6ed6ac3c62cf106b42b0381741f2ed34755387f870247304402202a6273394335154f59e493382cc0c170fbe8aec4ca7afaaedf5a90cf4c94b11c022063b2651c4efba8385668fafa4fb699353974b49d39a8254855d541dd712d8b5f0121036d0716fb49ce852ed7c15bbd05166e921982ebf99772e870f9db08d1af17299900000000", "vin": [{"txinwitness": ["304402202a6273394335154f59e493382cc0c170fbe8aec4ca7afaaedf5a90cf4c94b11c022063b2651c4efba8385668fafa4fb699353974b49d39a8254855d541dd712d8b5f01", "036d0716fb49ce852ed7c15bbd05166e921982ebf99772e870f9db08d1af172999"], "sequence": 4294967295, "scriptSig": {"hex": "", "asm": ""}, "vout": 1, "txid": "dd824084a238775d8cebc31751d61dfb317d71b3f5c97d546a1dd70db7b5cf02"}], "txid": "41a743888319d356e8e73db410d0a9a740c5eb4ec23eeb239b7ba4602da369c9", "blocktime": 1537874412, "version": 1, "confirmations": 11467, "time": 1537874412, "locktime": 0, "vsize": 142, "size": 223}