{"hash": "41af7cdcf3ffad0a9a29a5049df87b694a030a3312d7a6ccac6105df86e06404", "blockhash": "0000000000000000001f76057863aec43deb6fa401d9628bb513d65a8098bfab", "vout": [{"scriptPubKey": {"reqSigs": 1, "hex": "76a914da514a178c7364c548ed5d39e64818f0802376c588ac", "addresses": ["1LuMgucQh3AhWta6c7VhbGFgXZvf8U7s2V"], "asm": "OP_DUP OP_HASH160 da514a178c7364c548ed5d39e64818f0802376c5 OP_EQUALVERIFY OP_CHECKSIG", "type": "pubkeyhash"}, "value": 0.00284815, "n": 0}, {"scriptPubKey": {"reqSigs": 1, "hex": "76a914221f1d7970c19e39f3eae8f79fb7c9be77b2d64288ac", "addresses": ["147RFSW2yaoPG8ZkDobWTsega7wFpvewtN"], "asm": "OP_DUP OP_HASH160 221f1d7970c19e39f3eae8f79fb7c9be77b2d642 OP_EQUALVERIFY OP_CHECKSIG", "type": "pubkeyhash"}, "value": 0.12920996, "n": 1}], "hex": "0100000001c30eabe1575bba946ef8a2a165b5aef4ab4dba5e9d0e8f29e4e465a25aef2702010000006b48304502210080053e2dfb8ceb8df3ce778146e42f6ee2913b8b6ce8277a94593b738ee8fa2e0220270f8fe8b0d4e04fb4ca4cbefaa4b49c7bdb660af864cdbae5477825587cb7af0121032a77d8a9550f528479f4d74a1774a409e6abaafcb3463a9d2efa785b3d756f34ffffffff028f580400000000001976a914da514a178c7364c548ed5d39e64818f0802376c588aca428c500000000001976a914221f1d7970c19e39f3eae8f79fb7c9be77b2d64288ac00000000", "vin": [{"sequence": 4294967295, "scriptSig": {"hex": "48304502210080053e2dfb8ceb8df3ce778146e42f6ee2913b8b6ce8277a94593b738ee8fa2e0220270f8fe8b0d4e04fb4ca4cbefaa4b49c7bdb660af864cdbae5477825587cb7af0121032a77d8a9550f528479f4d74a1774a409e6abaafcb3463a9d2efa785b3d756f34", "asm": "304502210080053e2dfb8ceb8df3ce778146e42f6ee2913b8b6ce8277a94593b738ee8fa2e0220270f8fe8b0d4e04fb4ca4cbefaa4b49c7bdb660af864cdbae5477825587cb7af[ALL] 032a77d8a9550f528479f4d74a1774a409e6abaafcb3463a9d2efa785b3d756f34"}, "vout": 1, "txid": "0227ef5aa265e4e4298f0e9d5eba4dabf4aeb565a1a2f86e94ba5b57e1ab0ec3"}], "txid": "41af7cdcf3ffad0a9a29a5049df87b694a030a3312d7a6ccac6105df86e06404", "blocktime": 1537873891, "version": 1, "confirmations": 11475, "time": 1537873891, "locktime": 0, "vsize": 226, "size": 226}