{"hash": "41bd3a9ba62f13e2d0a3264028d24d9eb548d57c83b855984ba0a4d962153e21", "blockhash": "0000000000000000001f76057863aec43deb6fa401d9628bb513d65a8098bfab", "vout": [{"scriptPubKey": {"reqSigs": 1, "hex": "76a91461a277407a715a7c7a3260b46440f6fdf138f51f88ac", "addresses": ["19uFAw1PgAe44HkHG5JeopNqawe2w2VCuw"], "asm": "OP_DUP OP_HASH160 61a277407a715a7c7a3260b46440f6fdf138f51f OP_EQUALVERIFY OP_CHECKSIG", "type": "pubkeyhash"}, "value": 1.51966433, "n": 0}], "hex": "0100000002dee52e5b6696f7299f0c5651be6113f2d5223538bdcef3afd2100cb7946a0505000000006a473044022069f5ca68460c488b070cbb28969917cf7ac16bbc9fe64827e48becd1444ab5050220569e2fc98fc57a8c178481c511d1cc447c379debab9bb2e3a8cc78c2f006848d0121031589fba1082419fafb9e65092b3241b2bbc00661c970474f576292e8da06bec8ffffffff1184791b30c024a43c5fa17a4eb279df45efeb0f41b5d235d856dcb204813cd7000000006b483045022100a0a3a14390c1866d211403c2151e0c0060c777e79e4da20016dfdcaa6c7ea72802204b116f61e186ce0931e9bd7dca31d4e356fed81c96f2634aa8c576d48ffa153c0121024179299c8fb8391269240d9f07638b76c0d1f6e4df9e9f8b9aeca9f2df00821dffffffff01e1d20e09000000001976a91461a277407a715a7c7a3260b46440f6fdf138f51f88ac00000000", "vin": [{"sequence": 4294967295, "scriptSig": {"hex": "473044022069f5ca68460c488b070cbb28969917cf7ac16bbc9fe64827e48becd1444ab5050220569e2fc98fc57a8c178481c511d1cc447c379debab9bb2e3a8cc78c2f006848d0121031589fba1082419fafb9e65092b3241b2bbc00661c970474f576292e8da06bec8", "asm": "3044022069f5ca68460c488b070cbb28969917cf7ac16bbc9fe64827e48becd1444ab5050220569e2fc98fc57a8c178481c511d1cc447c379debab9bb2e3a8cc78c2f006848d[ALL] 031589fba1082419fafb9e65092b3241b2bbc00661c970474f576292e8da06bec8"}, "vout": 0, "txid": "05056a94b70c10d2aff3cebd383522d5f21361be51560c9f29f796665b2ee5de"}, {"sequence": 4294967295, "scriptSig": {"hex": "483045022100a0a3a14390c1866d211403c2151e0c0060c777e79e4da20016dfdcaa6c7ea72802204b116f61e186ce0931e9bd7dca31d4e356fed81c96f2634aa8c576d48ffa153c0121024179299c8fb8391269240d9f07638b76c0d1f6e4df9e9f8b9aeca9f2df00821d", "asm": "3045022100a0a3a14390c1866d211403c2151e0c0060c777e79e4da20016dfdcaa6c7ea72802204b116f61e186ce0931e9bd7dca31d4e356fed81c96f2634aa8c576d48ffa153c[ALL] 024179299c8fb8391269240d9f07638b76c0d1f6e4df9e9f8b9aeca9f2df00821d"}, "vout": 0, "txid": "d73c8104b2dc56d835d2b5410febef45df79b24e7aa15f3ca424c0301b798411"}], "txid": "41bd3a9ba62f13e2d0a3264028d24d9eb548d57c83b855984ba0a4d962153e21", "blocktime": 1537873891, "version": 1, "confirmations": 11478, "time": 1537873891, "locktime": 0, "vsize": 339, "size": 339}