{"hash": "292ad255afada243e12b0c3a15cc325358cdd53abe45ef3abd161244e1a5150c", "blockhash": "0000000000000000001cda96e906b7601b7a6fb1a3b62bca570a9e5d8f4b3de1", "vout": [{"scriptPubKey": {"reqSigs": 1, "hex": "76a914d08ed9016a40758982f0b357454f412c652a8b4588ac", "addresses": ["1L1kg8cyjfUo2QXFyzM6yaJ7fGpddTgJGT"], "asm": "OP_DUP OP_HASH160 d08ed9016a40758982f0b357454f412c652a8b45 OP_EQUALVERIFY OP_CHECKSIG", "type": "pubkeyhash"}, "value": 0.02240035, "n": 0}, {"scriptPubKey": {"reqSigs": 1, "hex": "a914a5c679defd49547b8133a1367eeadbdeaecec3da87", "addresses": ["3GoZBZ6F8g4UiCt7moPNLDX7KKwgtGgLUT"], "asm": "OP_HASH160 a5c679defd49547b8133a1367eeadbdeaecec3da OP_EQUAL", "type": "scripthash"}, "value": 0.31612632, "n": 1}], "hex": "0100000000010165395fcd012577ec08218caf758e1bc6ec0b704e239e7631ac3e83461ca1d7a701000000232200202d90cd274cea8141a030c0b79acc5b5c0b80b73d028692a1104913808bff6c09ffffffff02232e2200000000001976a914d08ed9016a40758982f0b357454f412c652a8b4588acd85ee2010000000017a914a5c679defd49547b8133a1367eeadbdeaecec3da870400473044022066bcc4eab38da49058142238e5b87b47a31897cfbcc8ae618871e4565359994002200edf64cde386dd468bc111ba1861a7aa559931476ffe7c8fef88af14a815d88801483045022100d9bda62e1c29db71364431d9be5f7804d2bd0f7d02f2639f1b78af3ab74df995022071ea016775015599e1c9d8a8e8f9ce369b780076649cf1755387ba77c8505ea0014752210295d70c0f10033e6e119fdc61ddd495bfe23995150af6df4688db5bf235f2853b21023e4b58fb2a91970de56515d11487aabd364f0404f1099bef70493cc56002342352ae00000000", "vin": [{"txinwitness": ["", "3044022066bcc4eab38da49058142238e5b87b47a31897cfbcc8ae618871e4565359994002200edf64cde386dd468bc111ba1861a7aa559931476ffe7c8fef88af14a815d88801", "3045022100d9bda62e1c29db71364431d9be5f7804d2bd0f7d02f2639f1b78af3ab74df995022071ea016775015599e1c9d8a8e8f9ce369b780076649cf1755387ba77c8505ea001", "52210295d70c0f10033e6e119fdc61ddd495bfe23995150af6df4688db5bf235f2853b21023e4b58fb2a91970de56515d11487aabd364f0404f1099bef70493cc56002342352ae"], "sequence": 4294967295, "scriptSig": {"hex": "2200202d90cd274cea8141a030c0b79acc5b5c0b80b73d028692a1104913808bff6c09", "asm": "00202d90cd274cea8141a030c0b79acc5b5c0b80b73d028692a1104913808bff6c09"}, "vout": 1, "txid": "a7d7a11c46833eac31769e234e700becc61b8e75af8c2108ec772501cd5f3965"}], "txid": "41bec690f7eae0ee847acea8f27fbdacf62fde2bab0f608a82dfc2db6e65a9d2", "blocktime": 1537873282, "version": 1, "confirmations": 11485, "time": 1537873282, "locktime": 0, "vsize": 208, "size": 373}