{"hash": "4db9f9adadcf396739ea4123d2a7e17188de1c7356caa485eda974babaf06f19", "blockhash": "00000000000000000017f5eb5941039fbcee6240d03bc1f2f8e35350df66a1d8", "vout": [{"scriptPubKey": {"reqSigs": 1, "hex": "a9145bd751df6d0163ce4c0e9698e827ffa1d55e3a6e87", "addresses": ["3A4dMgb8yWCyKAA5AiY7aLd1oXfunvWbav"], "asm": "OP_HASH160 5bd751df6d0163ce4c0e9698e827ffa1d55e3a6e OP_EQUAL", "type": "scripthash"}, "value": 0.01149978, "n": 0}, {"scriptPubKey": {"reqSigs": 1, "hex": "a914fc6973cb00a1c81fe9c9c3f47c797c87abbe06ec87", "addresses": ["3QheXqhPJ6vjmnXEuJksHuCjQeiQ1eEx5N"], "asm": "OP_HASH160 fc6973cb00a1c81fe9c9c3f47c797c87abbe06ec OP_EQUAL", "type": "scripthash"}, "value": 0.07079744, "n": 1}], "hex": "010000000001036c6b179f80a61106f75b83c649d5b812e5105db49662abe5233022ded3da78d302000000232200209286c50854c4666ec6f673f98a20b5be34f95d86c8e33dcc8a6c1d6c71a0373affffffffa4bee53c078ec7d290298621e3d6c77950323923f0886ad4ab695818fa5b60750200000023220020af9b78cb85e9ddf38f12a206341ef939bd59bf009c440ab3cf42aa9625b0126fffffffff1566953e4a4426822ad6f41ae586a03553d12198cfba3de325090000efb890bd010000002322002074ed12a50d5d08af4a5e9f08b64e98bcf998a677c7275a60307df3c03073df73ffffffff021a8c11000000000017a9145bd751df6d0163ce4c0e9698e827ffa1d55e3a6e8740076c000000000017a914fc6973cb00a1c81fe9c9c3f47c797c87abbe06ec87040047304402200c1859b12e627a6956d172be2861d3ae7b59ff7d3243fe28a530ab09beab01f802202482bf564c65d34339129e6c775e4edbc7abb9c644d66f66be9a0d9c53dc21fc014730440220256786a9d4213b3e655e990e1c4c879ada21e5bbea24084afc44cc52d5faae8f0220130f5738906fa251edf66a6bbf977c999665675369ccf18ac1ecb0f96180a1780147522102d02129da2bbab1c59242b3aedec1ce787da88b063395be9e926741b7c5b92ece21038407424ead2b88063db2d589e50c34e1572f6b82eb9e266dec536939ee0db9eb52ae0400483045022100cf8c3f3490a2b5e3dd9b3f09f0f0fa10f24a131674a345d7ce506a125ae2de15022057308bf735c33cf67ad1d2a264bb64d2099f5848417f4c33ef940ac0c4801ed401483045022100b3c37986c32cdff33951a8dc4ab4b12e3a3456dc9a239ccd93765222f7eb6b9a02205b139428a0bff933969880c92c8274005613971c2a66cca347f861a2261190c00147522103499421621770cc7cef11b352de3528ea8f7bd8ee7d120d4fea5617e1ebc817de21038407424ead2b88063db2d589e50c34e1572f6b82eb9e266dec536939ee0db9eb52ae0400473044022068fee707cd6d939d9818d0ba93226cd131c4508550462668758650b19e51f27a02206b77c467826ceaac9015d27375c6c0c89758f4f342b06024add2b1d53221bd9d01483045022100a208c9de53086e7650382999416e04ba7bd07a2e195936874f8ec1bcf534a9fe02207eb506d07c79d05c250966d425585e13c67bfc0e5a357f7dd31e10b633da53910147522103c2e891f75103d5ba6bc3cf1e33cb6fa92b62b166e608ae50337d8fe4a4819b2021038407424ead2b88063db2d589e50c34e1572f6b82eb9e266dec536939ee0db9eb52ae00000000", "vin": [{"txinwitness": ["", "304402200c1859b12e627a6956d172be2861d3ae7b59ff7d3243fe28a530ab09beab01f802202482bf564c65d34339129e6c775e4edbc7abb9c644d66f66be9a0d9c53dc21fc01", "30440220256786a9d4213b3e655e990e1c4c879ada21e5bbea24084afc44cc52d5faae8f0220130f5738906fa251edf66a6bbf977c999665675369ccf18ac1ecb0f96180a17801", "522102d02129da2bbab1c59242b3aedec1ce787da88b063395be9e926741b7c5b92ece21038407424ead2b88063db2d589e50c34e1572f6b82eb9e266dec536939ee0db9eb52ae"], "sequence": 4294967295, "scriptSig": {"hex": "2200209286c50854c4666ec6f673f98a20b5be34f95d86c8e33dcc8a6c1d6c71a0373a", "asm": "00209286c50854c4666ec6f673f98a20b5be34f95d86c8e33dcc8a6c1d6c71a0373a"}, "vout": 2, "txid": "d378dad3de223023e5ab6296b45d10e512b8d549c6835bf70611a6809f176b6c"}, {"txinwitness": ["", "3045022100cf8c3f3490a2b5e3dd9b3f09f0f0fa10f24a131674a345d7ce506a125ae2de15022057308bf735c33cf67ad1d2a264bb64d2099f5848417f4c33ef940ac0c4801ed401", "3045022100b3c37986c32cdff33951a8dc4ab4b12e3a3456dc9a239ccd93765222f7eb6b9a02205b139428a0bff933969880c92c8274005613971c2a66cca347f861a2261190c001", "522103499421621770cc7cef11b352de3528ea8f7bd8ee7d120d4fea5617e1ebc817de21038407424ead2b88063db2d589e50c34e1572f6b82eb9e266dec536939ee0db9eb52ae"], "sequence": 4294967295, "scriptSig": {"hex": "220020af9b78cb85e9ddf38f12a206341ef939bd59bf009c440ab3cf42aa9625b0126f", "asm": "0020af9b78cb85e9ddf38f12a206341ef939bd59bf009c440ab3cf42aa9625b0126f"}, "vout": 2, "txid": "75605bfa185869abd46a88f02339325079c7d6e321862990d2c78e073ce5bea4"}, {"txinwitness": ["", "3044022068fee707cd6d939d9818d0ba93226cd131c4508550462668758650b19e51f27a02206b77c467826ceaac9015d27375c6c0c89758f4f342b06024add2b1d53221bd9d01", "3045022100a208c9de53086e7650382999416e04ba7bd07a2e195936874f8ec1bcf534a9fe02207eb506d07c79d05c250966d425585e13c67bfc0e5a357f7dd31e10b633da539101", "522103c2e891f75103d5ba6bc3cf1e33cb6fa92b62b166e608ae50337d8fe4a4819b2021038407424ead2b88063db2d589e50c34e1572f6b82eb9e266dec536939ee0db9eb52ae"], "sequence": 4294967295, "scriptSig": {"hex": "22002074ed12a50d5d08af4a5e9f08b64e98bcf998a677c7275a60307df3c03073df73", "asm": "002074ed12a50d5d08af4a5e9f08b64e98bcf998a677c7275a60307df3c03073df73"}, "vout": 1, "txid": "bd90b8ef00000925e33dbacf9821d15335a086e51af4d62a8226444a3e956615"}], "txid": "41c64018c35cbec3997819b0446c66dcce9981221120db82609d68905d5b8826", "blocktime": 1537874412, "version": 1, "confirmations": 11467, "time": 1537874412, "locktime": 0, "vsize": 467, "size": 961}