{"hash": "42a36be7642db45393ce0c07f213e7c8cc7a353a6888d98fc5e75acf27d3666f", "blockhash": "0000000000000000001f0ddff1eddb255c1121bcd4da4f1bc9a0da00cae72433", "vout": [{"scriptPubKey": {"reqSigs": 1, "hex": "a9149e1b3a59b41c162c1ea661642d567143213b56cb87", "addresses": ["3G71JgZAJ533AEqQZPuJdBhPe4NuK8s6KP"], "asm": "OP_HASH160 9e1b3a59b41c162c1ea661642d567143213b56cb OP_EQUAL", "type": "scripthash"}, "value": 0.01001012, "n": 0}, {"scriptPubKey": {"reqSigs": 1, "hex": "76a914bbaec083b5e6b2619a44122d11954d363152fd0488ac", "addresses": ["1J7NhraWXwxB5EzsPgHjvHxXqAAYgWV397"], "asm": "OP_DUP OP_HASH160 bbaec083b5e6b2619a44122d11954d363152fd04 OP_EQUALVERIFY OP_CHECKSIG", "type": "pubkeyhash"}, "value": 0.00487092, "n": 1}], "hex": "020000000001023f2ad39f82fbbd734fced6412e82e92cf9741525c8fcbefaddd445541210c63f0900000017160014f4cd2313fcfb4f9590f6fb2e302654a668de95d7feffffffe460e7717b1191a28e7fc0e6b09cd9e0431637f5abcf54400e3459a75cf11a5a0000000017160014f5624fd65fbc6ed2c9ee059863cb271941712eddfeffffff0234460f000000000017a9149e1b3a59b41c162c1ea661642d567143213b56cb87b46e0700000000001976a914bbaec083b5e6b2619a44122d11954d363152fd0488ac02483045022100c2d1727b42c3291d650f0a94841a27a921a774c5342727a8f6520fdf35c3a8fc02204653aa0da585d36a0b9cba734846827c7e2c78bdd67b52fd6bd3a05ca7691c53012102391faf7e0a26bfe6ae587b9a86dd5bc627afc7029de0e2b097febe4ceab0813b02483045022100bf948748fa918e642ddec366d76d8f155de0774de848ed6b9a0184bb91afb5bb022029c48283618bc3f6239bd87e348136663d5a00313ecc25b37850944bf9fce04c0121020f49df1c6044dcc0fa85d320570c8e684a7385610fdef09db501c3b155ddf85f11490800", "vin": [{"txinwitness": ["3045022100c2d1727b42c3291d650f0a94841a27a921a774c5342727a8f6520fdf35c3a8fc02204653aa0da585d36a0b9cba734846827c7e2c78bdd67b52fd6bd3a05ca7691c5301", "02391faf7e0a26bfe6ae587b9a86dd5bc627afc7029de0e2b097febe4ceab0813b"], "sequence": 4294967294, "scriptSig": {"hex": "160014f4cd2313fcfb4f9590f6fb2e302654a668de95d7", "asm": "0014f4cd2313fcfb4f9590f6fb2e302654a668de95d7"}, "vout": 9, "txid": "3fc610125445d4ddfabefcc8251574f92ce9822e41d6ce4f73bdfb829fd32a3f"}, {"txinwitness": ["3045022100bf948748fa918e642ddec366d76d8f155de0774de848ed6b9a0184bb91afb5bb022029c48283618bc3f6239bd87e348136663d5a00313ecc25b37850944bf9fce04c01", "020f49df1c6044dcc0fa85d320570c8e684a7385610fdef09db501c3b155ddf85f"], "sequence": 4294967294, "scriptSig": {"hex": "160014f5624fd65fbc6ed2c9ee059863cb271941712edd", "asm": "0014f5624fd65fbc6ed2c9ee059863cb271941712edd"}, "vout": 0, "txid": "5a1af15ca759340e4054cfabf5371643e0d99cb0e6c07f8ea291117b71e760e4"}], "txid": "41c71fdbd258d348f8242025ae71405d4270fdfb7a8fd2e02a33ffce51833847", "blocktime": 1537872018, "version": 2, "confirmations": 11489, "time": 1537872018, "locktime": 542993, "vsize": 259, "size": 422}