{"hash": "41c97070ac75ce963abb1b1ce3fdb15281fd1603460ab75f0e275ea8058e09d3", "blockhash": "000000000000000000022b45ed06c6f4ccd3cf7fb5ba4856ebd2e58215665228", "vout": [{"scriptPubKey": {"reqSigs": 1, "hex": "76a9141508276fd4193e83f5fce7a810a40e8f983c161988ac", "addresses": ["12vCxak5xc1t6T275xbm6AJ4xsZCxkTSc5"], "asm": "OP_DUP OP_HASH160 1508276fd4193e83f5fce7a810a40e8f983c1619 OP_EQUALVERIFY OP_CHECKSIG", "type": "pubkeyhash"}, "value": 49.99890695, "n": 0}, {"scriptPubKey": {"reqSigs": 1, "hex": "76a9142914b2fac710f2db5fef1008ad37f2e786e9a4a788ac", "addresses": ["14kDW4rWkoegk9P1CHeMnnA5XwWz6zbdBG"], "asm": "OP_DUP OP_HASH160 2914b2fac710f2db5fef1008ad37f2e786e9a4a7 OP_EQUALVERIFY OP_CHECKSIG", "type": "pubkeyhash"}, "value": 5.46e-06, "n": 1}, {"scriptPubKey": {"reqSigs": 1, "hex": "76a91433987863c922d50bb41a541621975797dad69bab88ac", "addresses": ["15hp7c1ZQyg3RKFa2GhGktsgK7t8WxwYBR"], "asm": "OP_DUP OP_HASH160 33987863c922d50bb41a541621975797dad69bab OP_EQUALVERIFY OP_CHECKSIG", "type": "pubkeyhash"}, "value": 5.46e-06, "n": 2}, {"scriptPubKey": {"reqSigs": 1, "hex": "76a9143aa987ebf7c5d6f8f96cd92ee2986047bc6f089188ac", "addresses": ["16MBHLsn21nJ3LaQUAeC2c7ivaKNZouF27"], "asm": "OP_DUP OP_HASH160 3aa987ebf7c5d6f8f96cd92ee2986047bc6f0891 OP_EQUALVERIFY OP_CHECKSIG", "type": "pubkeyhash"}, "value": 5.46e-06, "n": 3}], "hex": "0200000001c63822b2bdb39487d20660097fa785303ff1d2a12e15010dc0f03eda346e8e0f040000006a473044022015fc55376c12f57c6747539b23b5e87627adec9a7584e2e1fd24cb93e7e010140220480f52c3f3c98c746eac31b9c33517952554ffb7a3051f5975b38a24531f1e0f01210225a57a1eb6c121eadf81766af42fbd5a78eb8daf0dd790ecb10dd49c4fdac4a6ffffffff040747042a010000001976a9141508276fd4193e83f5fce7a810a40e8f983c161988ac22020000000000001976a9142914b2fac710f2db5fef1008ad37f2e786e9a4a788ac22020000000000001976a91433987863c922d50bb41a541621975797dad69bab88ac22020000000000001976a9143aa987ebf7c5d6f8f96cd92ee2986047bc6f089188ac00000000", "vin": [{"sequence": 4294967295, "scriptSig": {"hex": "473044022015fc55376c12f57c6747539b23b5e87627adec9a7584e2e1fd24cb93e7e010140220480f52c3f3c98c746eac31b9c33517952554ffb7a3051f5975b38a24531f1e0f01210225a57a1eb6c121eadf81766af42fbd5a78eb8daf0dd790ecb10dd49c4fdac4a6", "asm": "3044022015fc55376c12f57c6747539b23b5e87627adec9a7584e2e1fd24cb93e7e010140220480f52c3f3c98c746eac31b9c33517952554ffb7a3051f5975b38a24531f1e0f[ALL] 0225a57a1eb6c121eadf81766af42fbd5a78eb8daf0dd790ecb10dd49c4fdac4a6"}, "vout": 4, "txid": "0f8e6e34da3ef0c00d01152ea1d2f13f3085a77f096006d28794b3bdb22238c6"}], "txid": "41c97070ac75ce963abb1b1ce3fdb15281fd1603460ab75f0e275ea8058e09d3", "blocktime": 1537869901, "version": 2, "confirmations": 11522, "time": 1537869901, "locktime": 0, "vsize": 293, "size": 293}