{"hash": "b8f33bb6a7e2ab74ac6e5899d33dadecda7c6892265304c6aed3b4148fb39178", "blockhash": "0000000000000000001f76057863aec43deb6fa401d9628bb513d65a8098bfab", "vout": [{"scriptPubKey": {"reqSigs": 1, "hex": "76a914503e65fbe9cbac8ae63b9f386bb8c614592140f588ac", "addresses": ["18KHoryEnRtZUCcfYGWJ4u6tLLPvJuAXGo"], "asm": "OP_DUP OP_HASH160 503e65fbe9cbac8ae63b9f386bb8c614592140f5 OP_EQUALVERIFY OP_CHECKSIG", "type": "pubkeyhash"}, "value": 0.00537748, "n": 0}, {"scriptPubKey": {"reqSigs": 1, "hex": "a91497690d1a3f23366ec17e542a32089ceb2b492ae287", "addresses": ["3FVbobRCMbwnsWZjrBxk8ZsAeNXFF9ep9y"], "asm": "OP_HASH160 97690d1a3f23366ec17e542a32089ceb2b492ae2 OP_EQUAL", "type": "scripthash"}, "value": 0.00999277, "n": 1}], "hex": "0200000000010237074e06f8c9e382fb1f2e64caed2a9cc51bef027ff01fae5cca40fec7e96c850000000017160014b90f4a2b07ae64f9c89ea76a9d5d2a852629689bfeffffff462ef8127ba0561f22c000f17fed2fbca54c4ee6dfb1fca4e564e958bcc55d9d0100000017160014f83f08686786132cee5019bbafa52c0059f19b8afeffffff0294340800000000001976a914503e65fbe9cbac8ae63b9f386bb8c614592140f588ac6d3f0f000000000017a91497690d1a3f23366ec17e542a32089ceb2b492ae2870247304402204d498d005872d1ec90adcbc613e0bc261cea6625a26914ab3b0a88e59f640e2e022037cf94986b77ec35f5a731dd6cbaae9b0d8d5ea52f74a60de1d27cca123adcb70121038293110338adb6a87e1d46abed17f4dc34c5ccfb7fa435150ab66ce96f58931e0247304402204f8342b8c0c24bb46504cd8dbc5ce5f9524cdc7cd22e0b8f88b95977161b813b02207a0999b7ee6417d7f24659061f4a67ea4d95c68f51d53e41719102325d04f11b012103051130ff9f1af0000afb98169a65b6093964b7239b8a0ec1f4844ee42b4a35b714490800", "vin": [{"txinwitness": ["304402204d498d005872d1ec90adcbc613e0bc261cea6625a26914ab3b0a88e59f640e2e022037cf94986b77ec35f5a731dd6cbaae9b0d8d5ea52f74a60de1d27cca123adcb701", "038293110338adb6a87e1d46abed17f4dc34c5ccfb7fa435150ab66ce96f58931e"], "sequence": 4294967294, "scriptSig": {"hex": "160014b90f4a2b07ae64f9c89ea76a9d5d2a852629689b", "asm": "0014b90f4a2b07ae64f9c89ea76a9d5d2a852629689b"}, "vout": 0, "txid": "856ce9c7fe40ca5cae1ff07f02ef1bc59c2aedca642e1ffb82e3c9f8064e0737"}, {"txinwitness": ["304402204f8342b8c0c24bb46504cd8dbc5ce5f9524cdc7cd22e0b8f88b95977161b813b02207a0999b7ee6417d7f24659061f4a67ea4d95c68f51d53e41719102325d04f11b01", "03051130ff9f1af0000afb98169a65b6093964b7239b8a0ec1f4844ee42b4a35b7"], "sequence": 4294967294, "scriptSig": {"hex": "160014f83f08686786132cee5019bbafa52c0059f19b8a", "asm": "0014f83f08686786132cee5019bbafa52c0059f19b8a"}, "vout": 1, "txid": "9d5dc5bc58e964e5a4fcb1dfe64e4ca5bc2fed7ff100c0221f56a07b12f82e46"}], "txid": "41cfbf817bd93ec61cc25cecfadba11fdaa00cade05248ae562db5d0bf13dc7c", "blocktime": 1537873891, "version": 2, "confirmations": 11478, "time": 1537873891, "locktime": 542996, "vsize": 258, "size": 420}