{"hash": "41d2bfec4f1ca061add90a0380814495fb994264888c2d9947cadc723af2cfbf", "blockhash": "0000000000000000000baef3f32e3676a92c3b2e5da21b426e4f302fc371ce76", "vout": [{"scriptPubKey": {"reqSigs": 1, "hex": "76a91461e1ab00b0748a155cc72cbbbfd78b3f230511bd88ac", "addresses": ["19vYtJ2nSC1n91uS2mSBD2EPiRNuwwxmpw"], "asm": "OP_DUP OP_HASH160 61e1ab00b0748a155cc72cbbbfd78b3f230511bd OP_EQUALVERIFY OP_CHECKSIG", "type": "pubkeyhash"}, "value": 5.46e-06, "n": 0}, {"scriptPubKey": {"reqSigs": 1, "hex": "a9143f4eecba122ad73039d481c8d37f99cb4f887cd887", "addresses": ["37Tm3Qz8Zw2VJrheUUhArDAoq58S6YrS3g"], "asm": "OP_HASH160 3f4eecba122ad73039d481c8d37f99cb4f887cd8 OP_EQUAL", "type": "scripthash"}, "value": 0.99989816, "n": 1}, {"scriptPubKey": {"type": "nulldata", "hex": "6a146f6d6e69000000000000001f000002d7e8be2680", "asm": "OP_RETURN 6f6d6e69000000000000001f000002d7e8be2680"}, "value": 0.0, "n": 2}], "hex": "01000000019da7ea09d625427910c7cb3574d909b384292c88f5cdc3ee55704dfcb0c3a96301000000fdfd00004830450221008915cac9fbd056ea20b881e8f8c01c4bfec6baf76f17798b4254564386c7323a022013db44587dad002030eab0d16e45f01ea711ec846682004fab2388cf0134e9720147304402200b129d7fe02724f5dc7ba4f09b0d23c2eb4b61d832ebe5068fd79228fac7894a02201d52feea0b83072cd469a769c70c7e413c4c2dead7a052cca8ced7b2ed926d29014c6952210246ccf4de0c54cc7f3354cdd993c2c50cf965fd82238b89659fbd73a1b4bf05a121024fc59f72272a897fe43803374969f396058152fe4765a8d15216f94624257b1b21022593bc69ecbf3bbcc3c58082267cb49dadaf4ca8dbf1b2297338a9d628c4297653aeffffffff0322020000000000001976a91461e1ab00b0748a155cc72cbbbfd78b3f230511bd88ac38b9f5050000000017a9143f4eecba122ad73039d481c8d37f99cb4f887cd8870000000000000000166a146f6d6e69000000000000001f000002d7e8be268000000000", "vin": [{"sequence": 4294967295, "scriptSig": {"hex": "004830450221008915cac9fbd056ea20b881e8f8c01c4bfec6baf76f17798b4254564386c7323a022013db44587dad002030eab0d16e45f01ea711ec846682004fab2388cf0134e9720147304402200b129d7fe02724f5dc7ba4f09b0d23c2eb4b61d832ebe5068fd79228fac7894a02201d52feea0b83072cd469a769c70c7e413c4c2dead7a052cca8ced7b2ed926d29014c6952210246ccf4de0c54cc7f3354cdd993c2c50cf965fd82238b89659fbd73a1b4bf05a121024fc59f72272a897fe43803374969f396058152fe4765a8d15216f94624257b1b21022593bc69ecbf3bbcc3c58082267cb49dadaf4ca8dbf1b2297338a9d628c4297653ae", "asm": "0 30450221008915cac9fbd056ea20b881e8f8c01c4bfec6baf76f17798b4254564386c7323a022013db44587dad002030eab0d16e45f01ea711ec846682004fab2388cf0134e972[ALL] 304402200b129d7fe02724f5dc7ba4f09b0d23c2eb4b61d832ebe5068fd79228fac7894a02201d52feea0b83072cd469a769c70c7e413c4c2dead7a052cca8ced7b2ed926d29[ALL] 52210246ccf4de0c54cc7f3354cdd993c2c50cf965fd82238b89659fbd73a1b4bf05a121024fc59f72272a897fe43803374969f396058152fe4765a8d15216f94624257b1b21022593bc69ecbf3bbcc3c58082267cb49dadaf4ca8dbf1b2297338a9d628c4297653ae"}, "vout": 1, "txid": "63a9c3b0fc4d7055eec3cdf5882c2984b309d97435cbc710794225d609eaa79d"}], "txid": "41d2bfec4f1ca061add90a0380814495fb994264888c2d9947cadc723af2cfbf", "blocktime": 1537876114, "version": 1, "confirmations": 11460, "time": 1537876114, "locktime": 0, "vsize": 403, "size": 403}