{"hash": "4444e91486b3c40d48d7c205a726217d57111d2d6e6f9c4955ceed566ccf697e", "blockhash": "0000000000000000000baef3f32e3676a92c3b2e5da21b426e4f302fc371ce76", "vout": [{"scriptPubKey": {"reqSigs": 1, "hex": "a914b0fea9c47ef08cd008d86e9db62c4604d6e40eba87", "addresses": ["3HpsvcTKBjoYubahjKrGi2XQmWHrBfktPA"], "asm": "OP_HASH160 b0fea9c47ef08cd008d86e9db62c4604d6e40eba OP_EQUAL", "type": "scripthash"}, "value": 0.001, "n": 0}, {"scriptPubKey": {"reqSigs": 1, "hex": "a914c327a3e7a0c25818cfc9c341c031742944a165d587", "addresses": ["3KUuBCmh8PVojt2ZNWhDVgLx9saiCgsuQn"], "asm": "OP_HASH160 c327a3e7a0c25818cfc9c341c031742944a165d5 OP_EQUAL", "type": "scripthash"}, "value": 0.99322053, "n": 1}], "hex": "01000000000101af96d591ba7241870df2a6dcc1f98c0a7079b1033ef23edd854cc0e4976de0d60f00000017160014eeaf4c0a544adef857ab2a8cf3e2e2cf443e3b88ffffffff02a08601000000000017a914b0fea9c47ef08cd008d86e9db62c4604d6e40eba87c588eb050000000017a914c327a3e7a0c25818cfc9c341c031742944a165d58702483045022100f54250f4850aa7e9db23577a483ba1191bc71d085414eee70308c0530ec5e2c10220678c3cfd9bae9cdfa5f7f3e27f2723f1d0a0d7a631595bf8a90fb846879979a3012102ff7ed78611cc27cb7155db9211e664542ace8ac35424baae14b92d8f5e79178e00000000", "vin": [{"txinwitness": ["3045022100f54250f4850aa7e9db23577a483ba1191bc71d085414eee70308c0530ec5e2c10220678c3cfd9bae9cdfa5f7f3e27f2723f1d0a0d7a631595bf8a90fb846879979a301", "02ff7ed78611cc27cb7155db9211e664542ace8ac35424baae14b92d8f5e79178e"], "sequence": 4294967295, "scriptSig": {"hex": "160014eeaf4c0a544adef857ab2a8cf3e2e2cf443e3b88", "asm": "0014eeaf4c0a544adef857ab2a8cf3e2e2cf443e3b88"}, "vout": 15, "txid": "d6e06d97e4c04c85dd3ef23e03b179700a8cf9c1dca6f20d874172ba91d596af"}], "txid": "41d323b0c057799a4b9e3b6daedcd71dba729110ea5994bb5643c1ccc839c552", "blocktime": 1537876114, "version": 1, "confirmations": 11460, "time": 1537876114, "locktime": 0, "vsize": 166, "size": 248}