{"hash": "143959356fc2b351fee593473590d0f288e91263861ef9bd81733af61cca90fc", "blockhash": "00000000000000000017f5eb5941039fbcee6240d03bc1f2f8e35350df66a1d8", "vout": [{"scriptPubKey": {"reqSigs": 1, "hex": "a91486d0b25972bf68fe0565d8654bdc8d9a3e0d796487", "addresses": ["3DyrUkMpV5e5voD99Ljx1gRpv2XPVmELjj"], "asm": "OP_HASH160 86d0b25972bf68fe0565d8654bdc8d9a3e0d7964 OP_EQUAL", "type": "scripthash"}, "value": 0.004539, "n": 0}, {"scriptPubKey": {"reqSigs": 1, "hex": "a9145fa1062990fc83613db5118447b522bfbc544a5987", "addresses": ["3AQf1v6evC617s3JddXWMwryur5Yi2sjg1"], "asm": "OP_HASH160 5fa1062990fc83613db5118447b522bfbc544a59 OP_EQUAL", "type": "scripthash"}, "value": 0.01235319, "n": 1}], "hex": "020000000001011c0512b807dbc89417fef5b34320bad0268759ae00ff83fd1a64d12bbd1accd00000000017160014bc00b5da174cbcd20ec7e4d30667cf103fb45111feffffff020ced06000000000017a91486d0b25972bf68fe0565d8654bdc8d9a3e0d79648777d912000000000017a9145fa1062990fc83613db5118447b522bfbc544a598702483045022100c654f94450f9b0fcc34aa65894c51837870ad6bbcbc8dd07b7e7f63623226f3e022017e30003c4935db3e7ff13568f220a54a4bc3be851ede1b68bc7fe2ac7c933dd012103667cbfef7ebd4a8fcc8dd8acd2a9f2c08d18dc9ea5b46ec88fb05d03a47d093e15490800", "vin": [{"txinwitness": ["3045022100c654f94450f9b0fcc34aa65894c51837870ad6bbcbc8dd07b7e7f63623226f3e022017e30003c4935db3e7ff13568f220a54a4bc3be851ede1b68bc7fe2ac7c933dd01", "03667cbfef7ebd4a8fcc8dd8acd2a9f2c08d18dc9ea5b46ec88fb05d03a47d093e"], "sequence": 4294967294, "scriptSig": {"hex": "160014bc00b5da174cbcd20ec7e4d30667cf103fb45111", "asm": "0014bc00b5da174cbcd20ec7e4d30667cf103fb45111"}, "vout": 0, "txid": "d0cc1abd2bd1641afd83ff00ae598726d0ba2043b3f5fe1794c8db07b812051c"}], "txid": "41db91901766948232fe43f5bb0013bb4412edf9678ae87f094b16ed20788510", "blocktime": 1537874412, "version": 2, "confirmations": 11468, "time": 1537874412, "locktime": 542997, "vsize": 166, "size": 248}