{"hash": "41e87126f66c2afd282c7861ff76784656d49b0bc79a445200d040b3f660a0a1", "blockhash": "0000000000000000000dcc0f55137456b1a82d3642486a52398922ac4d620174", "vout": [{"scriptPubKey": {"reqSigs": 1, "hex": "76a914bab39942e40d68543e8ddad1b4482b6862f00dc088ac", "addresses": ["1J2BqR64YSgPxcQp8KkLP4RCgpAfvjXMwo"], "asm": "OP_DUP OP_HASH160 bab39942e40d68543e8ddad1b4482b6862f00dc0 OP_EQUALVERIFY OP_CHECKSIG", "type": "pubkeyhash"}, "value": 0.00541364, "n": 0}, {"scriptPubKey": {"reqSigs": 1, "hex": "76a914de675eb6c64dd779791dd92b1bd99e9104c7f16a88ac", "addresses": ["1MGxqrn5g1gEQbrEsAMnvVhvaDD1oFS6BN"], "asm": "OP_DUP OP_HASH160 de675eb6c64dd779791dd92b1bd99e9104c7f16a OP_EQUALVERIFY OP_CHECKSIG", "type": "pubkeyhash"}, "value": 0.001567, "n": 1}], "hex": "01000000015bc590eda5a92918c8a551d33725fdfa0fdb1becd8df818c757805b6325a4745010000006a4730440220631ab62de881339800aec8a622ff2b3125d415d7809eba61e3847cf987f7fc6d022018cbfe7ca78c87d364eb00cd7225a8efc8c60da4abc267ce2a7c995f263855aa01210335b75fcbc98a185413d3024c8e4aa64d0e64e869499dcf44ba37ecd82c2c9f8bffffffff02b4420800000000001976a914bab39942e40d68543e8ddad1b4482b6862f00dc088ac1c640200000000001976a914de675eb6c64dd779791dd92b1bd99e9104c7f16a88ac00000000", "vin": [{"sequence": 4294967295, "scriptSig": {"hex": "4730440220631ab62de881339800aec8a622ff2b3125d415d7809eba61e3847cf987f7fc6d022018cbfe7ca78c87d364eb00cd7225a8efc8c60da4abc267ce2a7c995f263855aa01210335b75fcbc98a185413d3024c8e4aa64d0e64e869499dcf44ba37ecd82c2c9f8b", "asm": "30440220631ab62de881339800aec8a622ff2b3125d415d7809eba61e3847cf987f7fc6d022018cbfe7ca78c87d364eb00cd7225a8efc8c60da4abc267ce2a7c995f263855aa[ALL] 0335b75fcbc98a185413d3024c8e4aa64d0e64e869499dcf44ba37ecd82c2c9f8b"}, "vout": 1, "txid": "45475a32b60578758c81dfd8ec1bdb0ffafd2537d351a5c81829a9a5ed90c55b"}], "txid": "41e87126f66c2afd282c7861ff76784656d49b0bc79a445200d040b3f660a0a1", "blocktime": 1537870268, "version": 1, "confirmations": 11518, "time": 1537870268, "locktime": 0, "vsize": 225, "size": 225}