{"hash": "41eac1e5450fe93a788b539fc769c6b03a983d0b68f5b39e39570c09cc495fbc", "blockhash": "0000000000000000001e0dab787dd257d1dbfcb92a98c2207d5e1078be1f4165", "vout": [{"scriptPubKey": {"reqSigs": 1, "hex": "76a9142395694f7bf6470f547615eea043bc4b7841960188ac", "addresses": ["14F9dztDnyjFEJ6q5RisRic13HXHVQiiMn"], "asm": "OP_DUP OP_HASH160 2395694f7bf6470f547615eea043bc4b78419601 OP_EQUALVERIFY OP_CHECKSIG", "type": "pubkeyhash"}, "value": 0.00071453, "n": 0}, {"scriptPubKey": {"reqSigs": 1, "hex": "a9147af8a4ca063ec813d753108ad39734a93ffa8fe387", "addresses": ["3CuEE1or2r5isjmCWcH5EnyzWXD4K5ti6F"], "asm": "OP_HASH160 7af8a4ca063ec813d753108ad39734a93ffa8fe3 OP_EQUAL", "type": "scripthash"}, "value": 0.00156279, "n": 1}], "hex": "0100000001da010bfe5d27a69ac926d5af3f88de6ba727b5d1ad58b31816a432cddb373934000000006b483045022100b255fb8244ecd788b4c23b553aec55f2ccdf5df3958c966db4cf98225c200e03022051b0551cb3f8c94a50293f517941b3037521db671c189bdcb4d0cfb38c1a42fd0121031a1c9c00e86625869d3751baca00bfc55f18d65a0492f5f57f67dc547ddbac98ffffffff021d170100000000001976a9142395694f7bf6470f547615eea043bc4b7841960188ac776202000000000017a9147af8a4ca063ec813d753108ad39734a93ffa8fe38700000000", "vin": [{"sequence": 4294967295, "scriptSig": {"hex": "483045022100b255fb8244ecd788b4c23b553aec55f2ccdf5df3958c966db4cf98225c200e03022051b0551cb3f8c94a50293f517941b3037521db671c189bdcb4d0cfb38c1a42fd0121031a1c9c00e86625869d3751baca00bfc55f18d65a0492f5f57f67dc547ddbac98", "asm": "3045022100b255fb8244ecd788b4c23b553aec55f2ccdf5df3958c966db4cf98225c200e03022051b0551cb3f8c94a50293f517941b3037521db671c189bdcb4d0cfb38c1a42fd[ALL] 031a1c9c00e86625869d3751baca00bfc55f18d65a0492f5f57f67dc547ddbac98"}, "vout": 0, "txid": "343937dbcd32a41618b358add1b527a76bde883fafd526c99aa6275dfe0b01da"}], "txid": "41eac1e5450fe93a788b539fc769c6b03a983d0b68f5b39e39570c09cc495fbc", "blocktime": 1537872475, "version": 1, "confirmations": 11486, "time": 1537872475, "locktime": 0, "vsize": 224, "size": 224}