{"hash": "41ea17c28feb1beb5b7fd7a0d2d5e3647648b5c92043f5060ebd76d41982c8b4", "blockhash": "00000000000000000004ffacab907a6b429b9a5745fa0b75af4234bf69dd7176", "vout": [{"scriptPubKey": {"reqSigs": 1, "hex": "a914cd60dccf2a8215c6b836f4f4939123f8963a723287", "addresses": ["3LQxUzikM2rWBhUFrLFNiuWPbPLLJn84DB"], "asm": "OP_HASH160 cd60dccf2a8215c6b836f4f4939123f8963a7232 OP_EQUAL", "type": "scripthash"}, "value": 0.00962551, "n": 0}], "hex": "0100000001deb020f1ad9bbbbb08f7f04def586543946df8f8e8af64c12d8b1b0ca1a401d4000000008a4730440220789c0b79725bd7fc4b946fb547c8bc35c07c7e40b1aaae05c830da412bea47cd022013b514bec7baf20fa9b2ec0b8a6e0bdc0b8582ce041b843a2de09b948b85019d014104ce82eac2b883300888c0b3a87fa5e91014252d09f7e329f1c5d0a8c9c9609ecf97f372ca552cec1b33f01e19ebbe2c41ea49d48cf461e9d340fafcdcf39f24dcffffffff01f7af0e000000000017a914cd60dccf2a8215c6b836f4f4939123f8963a72328700000000", "vin": [{"sequence": 4294967295, "scriptSig": {"hex": "4730440220789c0b79725bd7fc4b946fb547c8bc35c07c7e40b1aaae05c830da412bea47cd022013b514bec7baf20fa9b2ec0b8a6e0bdc0b8582ce041b843a2de09b948b85019d014104ce82eac2b883300888c0b3a87fa5e91014252d09f7e329f1c5d0a8c9c9609ecf97f372ca552cec1b33f01e19ebbe2c41ea49d48cf461e9d340fafcdcf39f24dc", "asm": "30440220789c0b79725bd7fc4b946fb547c8bc35c07c7e40b1aaae05c830da412bea47cd022013b514bec7baf20fa9b2ec0b8a6e0bdc0b8582ce041b843a2de09b948b85019d[ALL] 04ce82eac2b883300888c0b3a87fa5e91014252d09f7e329f1c5d0a8c9c9609ecf97f372ca552cec1b33f01e19ebbe2c41ea49d48cf461e9d340fafcdcf39f24dc"}, "vout": 0, "txid": "d401a4a10c1b8b2dc164afe8f8f86d94436558ef4df0f708bbbb9badf120b0de"}], "txid": "41ea17c28feb1beb5b7fd7a0d2d5e3647648b5c92043f5060ebd76d41982c8b4", "blocktime": 1537875543, "version": 1, "confirmations": 11464, "time": 1537875543, "locktime": 0, "vsize": 221, "size": 221}