{"hash": "7343fc09438208ad7c5b29beed91de3d48ea79e7f951422040a9a7191565175d", "blockhash": "0000000000000000001e0dab787dd257d1dbfcb92a98c2207d5e1078be1f4165", "vout": [{"scriptPubKey": {"reqSigs": 1, "hex": "76a9149a1b8f9b1fa2d2297863adb1cb11c71df455684888ac", "addresses": ["1F3r5We2zwNiSzG6GQUTTWnnPMCz2HJbJu"], "asm": "OP_DUP OP_HASH160 9a1b8f9b1fa2d2297863adb1cb11c71df4556848 OP_EQUALVERIFY OP_CHECKSIG", "type": "pubkeyhash"}, "value": 2.733e-05, "n": 0}, {"scriptPubKey": {"reqSigs": 1, "hex": "a914e8db75c900cf08f06518e96d167331f2a4abfb3387", "addresses": ["3NvFbQMAkkqEFj4i1sYPPLkSWzxTFUchjA"], "asm": "OP_HASH160 e8db75c900cf08f06518e96d167331f2a4abfb33 OP_EQUAL", "type": "scripthash"}, "value": 0.00099587, "n": 1}], "hex": "010000000001013067f149aa1f4fefaa45615275194adab721af520748222d6e3e9ea8bfcf17aa0100000023220020941cfaff8837763dc1f69ff82b6d6553fdea17a41cfc29a04403293eedd8ccc7ffffffff02ad0a0000000000001976a9149a1b8f9b1fa2d2297863adb1cb11c71df455684888ac038501000000000017a914e8db75c900cf08f06518e96d167331f2a4abfb33870400483045022100a73ae61119da9c1d055e24c7b05eecab2da1668800d87f5118e8a9dd6d47fb6302204dd2904a89956c6a059add2eea1d03b29f752c11ae062391b0bdc759020fb3b001473044022069ec20fcd45f6b5a640d098d79e610753fad80326ed09fd1d2a5eedabe052ac502203f9742903eb9ed05ab4964de28ebeb3865cb95ace8a18080599229389ee994ab0147522102531db3a5883f29bab4241dd0cd726936667bcda445d89bdd22244e828b6993342103148c80a5bdfddb05ff5bcffc397c8ca748d8b435ec6a175bc9d7bfc7fc6f853752ae00000000", "vin": [{"txinwitness": ["", "3045022100a73ae61119da9c1d055e24c7b05eecab2da1668800d87f5118e8a9dd6d47fb6302204dd2904a89956c6a059add2eea1d03b29f752c11ae062391b0bdc759020fb3b001", "3044022069ec20fcd45f6b5a640d098d79e610753fad80326ed09fd1d2a5eedabe052ac502203f9742903eb9ed05ab4964de28ebeb3865cb95ace8a18080599229389ee994ab01", "522102531db3a5883f29bab4241dd0cd726936667bcda445d89bdd22244e828b6993342103148c80a5bdfddb05ff5bcffc397c8ca748d8b435ec6a175bc9d7bfc7fc6f853752ae"], "sequence": 4294967295, "scriptSig": {"hex": "220020941cfaff8837763dc1f69ff82b6d6553fdea17a41cfc29a04403293eedd8ccc7", "asm": "0020941cfaff8837763dc1f69ff82b6d6553fdea17a41cfc29a04403293eedd8ccc7"}, "vout": 1, "txid": "aa17cfbfa89e3e6e2d22480752af21b7da4a1975526145aaef4f1faa49f16730"}], "txid": "41ec526223e7155c7a3574c509d96a9d6ef33f8d47cfdb12a9b344dc48ef6f98", "blocktime": 1537872475, "version": 1, "confirmations": 11487, "time": 1537872475, "locktime": 0, "vsize": 208, "size": 373}