{"hash": "41f61274b1714a0d40c12f7ff345ea27b05b2fbe36e2ac31aa6c432cb3281a14", "blockhash": "0000000000000000000baef3f32e3676a92c3b2e5da21b426e4f302fc371ce76", "vout": [{"scriptPubKey": {"reqSigs": 1, "hex": "a914cc96c31f6dad05ee0f8cd79162e7bc9aed44b66087", "addresses": ["3LLnNpR9X7mw7Dg4zV3EQGN2yZPR97HZRK"], "asm": "OP_HASH160 cc96c31f6dad05ee0f8cd79162e7bc9aed44b660 OP_EQUAL", "type": "scripthash"}, "value": 0.0010238, "n": 0}, {"scriptPubKey": {"reqSigs": 1, "hex": "76a914e163d073e054266d0f5e025eebd6100b0c946b5b88ac", "addresses": ["1MYkcNyCtPmxivKoMy5v5VBkv6LuBrgrAy"], "asm": "OP_DUP OP_HASH160 e163d073e054266d0f5e025eebd6100b0c946b5b OP_EQUALVERIFY OP_CHECKSIG", "type": "pubkeyhash"}, "value": 0.05475114, "n": 1}], "hex": "0100000001f86753285997d79d69b98fe37a7d702ce47013cf652947da4f529a08953919e0010000006b483045022100faee6afe52793a40903320b5356af93a155149a24d89ce67bb8f724607b71e8e0220600c4ea8a18ccbd26bdb6eef093e63475bd4baf4cadce2a9c8263d3618e9c48f0121033387315522fd785dc6a3184e4f2acbd937f90409a105c06583c94e6554220085ffffffff02ec8f01000000000017a914cc96c31f6dad05ee0f8cd79162e7bc9aed44b660872a8b5300000000001976a914e163d073e054266d0f5e025eebd6100b0c946b5b88ac00000000", "vin": [{"sequence": 4294967295, "scriptSig": {"hex": "483045022100faee6afe52793a40903320b5356af93a155149a24d89ce67bb8f724607b71e8e0220600c4ea8a18ccbd26bdb6eef093e63475bd4baf4cadce2a9c8263d3618e9c48f0121033387315522fd785dc6a3184e4f2acbd937f90409a105c06583c94e6554220085", "asm": "3045022100faee6afe52793a40903320b5356af93a155149a24d89ce67bb8f724607b71e8e0220600c4ea8a18ccbd26bdb6eef093e63475bd4baf4cadce2a9c8263d3618e9c48f[ALL] 033387315522fd785dc6a3184e4f2acbd937f90409a105c06583c94e6554220085"}, "vout": 1, "txid": "e0193995089a524fda472965cf1370e42c707d7ae38fb9699dd79759285367f8"}], "txid": "41f61274b1714a0d40c12f7ff345ea27b05b2fbe36e2ac31aa6c432cb3281a14", "blocktime": 1537876114, "version": 1, "confirmations": 11459, "time": 1537876114, "locktime": 0, "vsize": 224, "size": 224}