{"hash": "41f6fa0c5c3bcff270ca1010973de1b442f685ab2bd6656e3f2c0983bc08887e", "blockhash": "0000000000000000001cda96e906b7601b7a6fb1a3b62bca570a9e5d8f4b3de1", "vout": [{"scriptPubKey": {"reqSigs": 1, "hex": "a914c0726803d8263523db0bb26ea4a5f03ff3ab18f587", "addresses": ["3KEaiTv6jU6qoXAEKexqQ1omaLadYEwieF"], "asm": "OP_HASH160 c0726803d8263523db0bb26ea4a5f03ff3ab18f5 OP_EQUAL", "type": "scripthash"}, "value": 0.00285111, "n": 0}, {"scriptPubKey": {"reqSigs": 1, "hex": "76a9141a1702985d4fe201eb67f48d7816c8083b4689aa88ac", "addresses": ["13Nx8m5XRTx5RfWT2ZWDWHtVcpmb1M4aAQ"], "asm": "OP_DUP OP_HASH160 1a1702985d4fe201eb67f48d7816c8083b4689aa OP_EQUALVERIFY OP_CHECKSIG", "type": "pubkeyhash"}, "value": 0.0953642, "n": 1}], "hex": "01000000012b07a3acadaca31f1662b338735c45d447765dc8a2df5228fe89c7354b92737f010000006b483045022100cce6a8d006d1355663fae8aa889121a8b313b622fbed6bfa6ec312e64ae16b6402203ee32bea9b9b1676ae7b9111b833e68b4c2aaf7e518438924a6f5301a064e19001210321b40f8bee18f1f92bb54e569a03ac72a315c8bae37fcbddd21baddd6b5f4cf0ffffffff02b75904000000000017a914c0726803d8263523db0bb26ea4a5f03ff3ab18f587a4839100000000001976a9141a1702985d4fe201eb67f48d7816c8083b4689aa88ac00000000", "vin": [{"sequence": 4294967295, "scriptSig": {"hex": "483045022100cce6a8d006d1355663fae8aa889121a8b313b622fbed6bfa6ec312e64ae16b6402203ee32bea9b9b1676ae7b9111b833e68b4c2aaf7e518438924a6f5301a064e19001210321b40f8bee18f1f92bb54e569a03ac72a315c8bae37fcbddd21baddd6b5f4cf0", "asm": "3045022100cce6a8d006d1355663fae8aa889121a8b313b622fbed6bfa6ec312e64ae16b6402203ee32bea9b9b1676ae7b9111b833e68b4c2aaf7e518438924a6f5301a064e190[ALL] 0321b40f8bee18f1f92bb54e569a03ac72a315c8bae37fcbddd21baddd6b5f4cf0"}, "vout": 1, "txid": "7f73924b35c789fe2852dfa2c85d7647d4455c7338b362161fa3acadaca3072b"}], "txid": "41f6fa0c5c3bcff270ca1010973de1b442f685ab2bd6656e3f2c0983bc08887e", "blocktime": 1537873282, "version": 1, "confirmations": 11482, "time": 1537873282, "locktime": 0, "vsize": 224, "size": 224}