{"hash": "41f82add7ac69f73145b2d1447e9e84efa566a5bbaa61cc54fc90e6998e3dbcf", "blockhash": "0000000000000000001f76057863aec43deb6fa401d9628bb513d65a8098bfab", "vout": [{"scriptPubKey": {"reqSigs": 1, "hex": "76a91429369ae003d15ad92f0374baa5d849b2a99456c988ac", "addresses": ["14kv7tNE2371HaBnLRdTTAzH4WaJ93BFYv"], "asm": "OP_DUP OP_HASH160 29369ae003d15ad92f0374baa5d849b2a99456c9 OP_EQUALVERIFY OP_CHECKSIG", "type": "pubkeyhash"}, "value": 0.35988726, "n": 0}, {"scriptPubKey": {"reqSigs": 1, "hex": "76a914d91f4815e0d95b892830deebb5baf3fc112e688288ac", "addresses": ["1Lo377NCVUDXoHRo1Fkgpp6GoXEY4Bha5c"], "asm": "OP_DUP OP_HASH160 d91f4815e0d95b892830deebb5baf3fc112e6882 OP_EQUALVERIFY OP_CHECKSIG", "type": "pubkeyhash"}, "value": 0.01035545, "n": 1}], "hex": "020000000446f64a36db5fc2825645f55253c8743c69b04d30fc489e75f8885c6a883912a2010000006a473044022018daeda5646cd9a3499035b4b58aa2ae4595199b8c5c20707bf564c351f659c4022061b99327f5ec15afa1866cccda27d6ea60f324b60642751645173632cffd85c601210306f11cd6d98c940bb2d8da8e8f38dc65fddb732b1c9c9973baa30cb948004e7afeffffff4a2a633f4bbba150cac451dc8e70c01c6fe0c6e2ff675c66c27ce35ef6ad8be8010000006a47304402202b91dd170d76d95169395e8cd35afaa6a77fa2a02170cd7790f2e34a910e23150220372a4beebca867a1b65643f777ea67cdf569b41b250028f9aecec36603c46e96012103190a9e724c82300abe3e79122985c64c5ba2a6e33c230687c35b0ee869ef0f77feffffff4dc9af7e97fc4d6f02a111f52b68e4f5d33bc3b2458abfad76dc9501861e60b7000000006a473044022045084c59c6339eec85c67c49b8c1b16c1f15084d0d2a3b5afd03041976be32380220212f7bb377b61d3cb7060fb725304f5f4b1469f9ee61b4aec116f91a6e90c339012102eb10a35e3cffd1d7620bed5ae7207d6623f489810b7837de21aa2d2a59dc4206feffffff81835971e8a3d70feeb21690e6e8245a9345eae0f840bb581828792b5228cf5f000000006a47304402203504a647688e971ee9421dc9d17f5be69d2f889b25a8cdd4c4cb6cad8732c844022013725b10f7b86b4269435cfa07e3eb4d50d1763a54791f9ce31983894d43875f012103dcf32bdc393fef4fe703f855b8f4bc16c683b177a801a62c544754afa5d1fa0cfeffffff02f6242502000000001976a91429369ae003d15ad92f0374baa5d849b2a99456c988ac19cd0f00000000001976a914d91f4815e0d95b892830deebb5baf3fc112e688288ac13490800", "vin": [{"sequence": 4294967294, "scriptSig": {"hex": "473044022018daeda5646cd9a3499035b4b58aa2ae4595199b8c5c20707bf564c351f659c4022061b99327f5ec15afa1866cccda27d6ea60f324b60642751645173632cffd85c601210306f11cd6d98c940bb2d8da8e8f38dc65fddb732b1c9c9973baa30cb948004e7a", "asm": "3044022018daeda5646cd9a3499035b4b58aa2ae4595199b8c5c20707bf564c351f659c4022061b99327f5ec15afa1866cccda27d6ea60f324b60642751645173632cffd85c6[ALL] 0306f11cd6d98c940bb2d8da8e8f38dc65fddb732b1c9c9973baa30cb948004e7a"}, "vout": 1, "txid": "a21239886a5c88f8759e48fc304db0693c74c85352f5455682c25fdb364af646"}, {"sequence": 4294967294, "scriptSig": {"hex": "47304402202b91dd170d76d95169395e8cd35afaa6a77fa2a02170cd7790f2e34a910e23150220372a4beebca867a1b65643f777ea67cdf569b41b250028f9aecec36603c46e96012103190a9e724c82300abe3e79122985c64c5ba2a6e33c230687c35b0ee869ef0f77", "asm": "304402202b91dd170d76d95169395e8cd35afaa6a77fa2a02170cd7790f2e34a910e23150220372a4beebca867a1b65643f777ea67cdf569b41b250028f9aecec36603c46e96[ALL] 03190a9e724c82300abe3e79122985c64c5ba2a6e33c230687c35b0ee869ef0f77"}, "vout": 1, "txid": "e88badf65ee37cc2665c67ffe2c6e06f1cc0708edc51c4ca50a1bb4b3f632a4a"}, {"sequence": 4294967294, "scriptSig": {"hex": "473044022045084c59c6339eec85c67c49b8c1b16c1f15084d0d2a3b5afd03041976be32380220212f7bb377b61d3cb7060fb725304f5f4b1469f9ee61b4aec116f91a6e90c339012102eb10a35e3cffd1d7620bed5ae7207d6623f489810b7837de21aa2d2a59dc4206", "asm": "3044022045084c59c6339eec85c67c49b8c1b16c1f15084d0d2a3b5afd03041976be32380220212f7bb377b61d3cb7060fb725304f5f4b1469f9ee61b4aec116f91a6e90c339[ALL] 02eb10a35e3cffd1d7620bed5ae7207d6623f489810b7837de21aa2d2a59dc4206"}, "vout": 0, "txid": "b7601e860195dc76adbf8a45b2c33bd3f5e4682bf511a1026f4dfc977eafc94d"}, {"sequence": 4294967294, "scriptSig": {"hex": "47304402203504a647688e971ee9421dc9d17f5be69d2f889b25a8cdd4c4cb6cad8732c844022013725b10f7b86b4269435cfa07e3eb4d50d1763a54791f9ce31983894d43875f012103dcf32bdc393fef4fe703f855b8f4bc16c683b177a801a62c544754afa5d1fa0c", "asm": "304402203504a647688e971ee9421dc9d17f5be69d2f889b25a8cdd4c4cb6cad8732c844022013725b10f7b86b4269435cfa07e3eb4d50d1763a54791f9ce31983894d43875f[ALL] 03dcf32bdc393fef4fe703f855b8f4bc16c683b177a801a62c544754afa5d1fa0c"}, "vout": 0, "txid": "5fcf28522b79281858bb40f8e0ea45935a24e8e69016b2ee0fd7a3e871598381"}], "txid": "41f82add7ac69f73145b2d1447e9e84efa566a5bbaa61cc54fc90e6998e3dbcf", "blocktime": 1537873891, "version": 2, "confirmations": 11478, "time": 1537873891, "locktime": 542995, "vsize": 666, "size": 666}