{"hash": "fb8e82288c1739c9b47f3831cab30578541eada60c4a37702a84682e5fa555f1", "blockhash": "0000000000000000001e0dab787dd257d1dbfcb92a98c2207d5e1078be1f4165", "vout": [{"scriptPubKey": {"reqSigs": 1, "hex": "a914df00a90ced01fa6dbb903731a67463f38385090387", "addresses": ["3N29QCnrMBnesdEuNfgjsiBwQddpLaMoUN"], "asm": "OP_HASH160 df00a90ced01fa6dbb903731a67463f383850903 OP_EQUAL", "type": "scripthash"}, "value": 0.0137, "n": 0}, {"scriptPubKey": {"reqSigs": 1, "hex": "76a91451f62d276eb4779448641a33fdce56df2dd3c61488ac", "addresses": ["18UNeB3hMWMhq4DAVXHXeA31p338tkHGC1"], "asm": "OP_DUP OP_HASH160 51f62d276eb4779448641a33fdce56df2dd3c614 OP_EQUALVERIFY OP_CHECKSIG", "type": "pubkeyhash"}, "value": 0.005373, "n": 1}, {"scriptPubKey": {"reqSigs": 1, "hex": "a914ec8d2b781bd4f248ec763246fcd98951ea35ce9887", "addresses": ["3PFnWTxBTVagPtCRfRtC4SXzLqozUdev5W"], "asm": "OP_HASH160 ec8d2b781bd4f248ec763246fcd98951ea35ce98 OP_EQUAL", "type": "scripthash"}, "value": 0.0582, "n": 2}, {"scriptPubKey": {"reqSigs": 1, "hex": "a914ea645e5e20987adfaa9d5fa4a915d008965f102387", "addresses": ["3P4NHAbib3uvj6QNYmPWqEJMZnx4HzszTp"], "asm": "OP_HASH160 ea645e5e20987adfaa9d5fa4a915d008965f1023 OP_EQUAL", "type": "scripthash"}, "value": 0.01001816, "n": 3}], "hex": "0200000000010890b3192188f877476175aa7f5225e761c8188f2d71b6df7613af4a3541ba990b1d0000001716001447c747d72aacdb8e34317da9979d796508d1c0f1ffffffff8d8e6a5f4a05cccbf8a9ae186db230743d6cff64133e8d84d746e2359f60643f0000000017160014ee3434e1f830c5ec579ea7aee96accaff039c807ffffffff583e7e2dc603090d6a6d9dd62d1a5fd2487b06b9fbc32f31c6ef36bda364667d15000000171600140d24a97dc3807fc59c73c0aef7bb5f1d770d631cffffffff8143e60620f2a5f665d16ce39a58a7b3ed1e5f0c917cedf8e1ec1fa254b7f5f50e00000017160014630ec4264420d71389c695858b960fd8efa0f884ffffffff71d7fa8e7f8bab28fc885df00ee1e955b86ddd1accdf66ca36583f00ade2bf8304000000171600142767162ab05c0b31357c7723c3b984f16c313c8cffffffffc04a1b37565f06e362f6bcabc30835f1246c19079541f89a0266c9c769eff99904000000171600142767162ab05c0b31357c7723c3b984f16c313c8cffffffff0cc2da1b491cdea1a64d0bd560ae5ba0a9c43a3f285e87e07e8242f392250392060000001716001482efff573b99d087eedc782df31065baaed18a4effffffff583e7e2dc603090d6a6d9dd62d1a5fd2487b06b9fbc32f31c6ef36bda364667d0b000000171600140bd493204aac81e80a289432102ac5112783bc5fffffffff0490e714000000000017a914df00a90ced01fa6dbb903731a67463f38385090387d4320800000000001976a91451f62d276eb4779448641a33fdce56df2dd3c61488ac60ce58000000000017a914ec8d2b781bd4f248ec763246fcd98951ea35ce988758490f000000000017a914ea645e5e20987adfaa9d5fa4a915d008965f1023870247304402207985fdf503466d7de5f36b8de70811ad12346b7d5b67756840c74e83eb9fcc7a0220553f28ac928aafffd1891a676870c9b55061b0fd1aed6478477200f66d80c55e012102ed60c1f5a63b7e68e4b78d34904ba18e39a5c0006badd34b58d84e304191c16302483045022100d46daae59d061d3ff3e10dc4f1be61fad468ced7f4b15624900b805a586e16e3022011fccce3558517f2134d5cba58e140b3fa9d1ec03e343da6fe6f61e6e3e10105012103d57d5956fb08dd8047638889ef4a0356cab301a710fb8422c84f0c6ea43b55b30247304402204f6fc6958ce239fa308080df9507e9908d630ddbdd8dfef14c89f2b2e9c5ee7a022030e56ec6723c115c2c658d47e4748fb45309cd805893cc0281fadd5c0ae6c6c601210293a27b7d4fba51958f06ad54061d532ca5249ee3a92b3f2935da64a6ffe6c8850247304402205686da0b185f9346113153d9c455a9debe40157c6cb9de48878db9279089643c0220797981608d6ed456858b0ed8cc5cb4b79b9ec42933d34ab77413f2a47a78cbcd0121032978a084a21554fdbca01e4a747c6c418c795eeb5ff70438f17bf0bcc3f361e402473044022077b50e654e388f53f2cba8c640ef375898bb4d976db98174625eb73c9f9fc36b0220070b43c8c3ea4bb74206bf3bec9fe23aa86cce982d2a35f68a1360fca52d0d5601210292a5db6b22543b58a29942c318fcd206fb3492d3c303fc233b4908ab0a968115024730440220139b5ef7c4bdffbc30a02d449c050f7dc0ab3567a480f7b2a7e222288616a5f702205a918f341c2e309f0482279aff97640b3c92c203bd7cd8a151b4ab522e2ddcf401210292a5db6b22543b58a29942c318fcd206fb3492d3c303fc233b4908ab0a96811502483045022100d56ae265be4c86f3a37c0eca41fa5e4f4358006249b65a8b8a591578f52743600220556def9c52b03f3cf85e9798c6b0035e9420fe4dd8af47b56f24684d6f5aa6f001210389e408a967d857e633b8027944deb58fae8e2589686321245c50114a91cc74900247304402206a6c70dbc8ec2ba66c39a6fe26f2ea664ad477e5231e1ead9b518b688cfce49702203e3ff310b213c58e889bfe0faa56c499be5d409ab8564b3ad40f58ac54a587d80121035d7e4963d36f9bc7e0e2bb0a36272dc528b6c28dc554a39f537bfba6a72fece800000000", "vin": [{"txinwitness": ["304402207985fdf503466d7de5f36b8de70811ad12346b7d5b67756840c74e83eb9fcc7a0220553f28ac928aafffd1891a676870c9b55061b0fd1aed6478477200f66d80c55e01", "02ed60c1f5a63b7e68e4b78d34904ba18e39a5c0006badd34b58d84e304191c163"], "sequence": 4294967295, "scriptSig": {"hex": "16001447c747d72aacdb8e34317da9979d796508d1c0f1", "asm": "001447c747d72aacdb8e34317da9979d796508d1c0f1"}, "vout": 29, "txid": "0b99ba41354aaf1376dfb6712d8f18c861e725527faa75614777f8882119b390"}, {"txinwitness": ["3045022100d46daae59d061d3ff3e10dc4f1be61fad468ced7f4b15624900b805a586e16e3022011fccce3558517f2134d5cba58e140b3fa9d1ec03e343da6fe6f61e6e3e1010501", "03d57d5956fb08dd8047638889ef4a0356cab301a710fb8422c84f0c6ea43b55b3"], "sequence": 4294967295, "scriptSig": {"hex": "160014ee3434e1f830c5ec579ea7aee96accaff039c807", "asm": "0014ee3434e1f830c5ec579ea7aee96accaff039c807"}, "vout": 0, "txid": "3f64609f35e246d7848d3e1364ff6c3d7430b26d18aea9f8cbcc054a5f6a8e8d"}, {"txinwitness": ["304402204f6fc6958ce239fa308080df9507e9908d630ddbdd8dfef14c89f2b2e9c5ee7a022030e56ec6723c115c2c658d47e4748fb45309cd805893cc0281fadd5c0ae6c6c601", "0293a27b7d4fba51958f06ad54061d532ca5249ee3a92b3f2935da64a6ffe6c885"], "sequence": 4294967295, "scriptSig": {"hex": "1600140d24a97dc3807fc59c73c0aef7bb5f1d770d631c", "asm": "00140d24a97dc3807fc59c73c0aef7bb5f1d770d631c"}, "vout": 21, "txid": "7d6664a3bd36efc6312fc3fbb9067b48d25f1a2dd69d6d6a0d0903c62d7e3e58"}, {"txinwitness": ["304402205686da0b185f9346113153d9c455a9debe40157c6cb9de48878db9279089643c0220797981608d6ed456858b0ed8cc5cb4b79b9ec42933d34ab77413f2a47a78cbcd01", "032978a084a21554fdbca01e4a747c6c418c795eeb5ff70438f17bf0bcc3f361e4"], "sequence": 4294967295, "scriptSig": {"hex": "160014630ec4264420d71389c695858b960fd8efa0f884", "asm": "0014630ec4264420d71389c695858b960fd8efa0f884"}, "vout": 14, "txid": "f5f5b754a21fece1f8ed7c910c5f1eedb3a7589ae36cd165f6a5f22006e64381"}, {"txinwitness": ["3044022077b50e654e388f53f2cba8c640ef375898bb4d976db98174625eb73c9f9fc36b0220070b43c8c3ea4bb74206bf3bec9fe23aa86cce982d2a35f68a1360fca52d0d5601", "0292a5db6b22543b58a29942c318fcd206fb3492d3c303fc233b4908ab0a968115"], "sequence": 4294967295, "scriptSig": {"hex": "1600142767162ab05c0b31357c7723c3b984f16c313c8c", "asm": "00142767162ab05c0b31357c7723c3b984f16c313c8c"}, "vout": 4, "txid": "83bfe2ad003f5836ca66dfcc1add6db855e9e10ef05d88fc28ab8b7f8efad771"}, {"txinwitness": ["30440220139b5ef7c4bdffbc30a02d449c050f7dc0ab3567a480f7b2a7e222288616a5f702205a918f341c2e309f0482279aff97640b3c92c203bd7cd8a151b4ab522e2ddcf401", "0292a5db6b22543b58a29942c318fcd206fb3492d3c303fc233b4908ab0a968115"], "sequence": 4294967295, "scriptSig": {"hex": "1600142767162ab05c0b31357c7723c3b984f16c313c8c", "asm": "00142767162ab05c0b31357c7723c3b984f16c313c8c"}, "vout": 4, "txid": "99f9ef69c7c966029af8419507196c24f13508c3abbcf662e3065f56371b4ac0"}, {"txinwitness": ["3045022100d56ae265be4c86f3a37c0eca41fa5e4f4358006249b65a8b8a591578f52743600220556def9c52b03f3cf85e9798c6b0035e9420fe4dd8af47b56f24684d6f5aa6f001", "0389e408a967d857e633b8027944deb58fae8e2589686321245c50114a91cc7490"], "sequence": 4294967295, "scriptSig": {"hex": "16001482efff573b99d087eedc782df31065baaed18a4e", "asm": "001482efff573b99d087eedc782df31065baaed18a4e"}, "vout": 6, "txid": "92032592f342827ee0875e283f3ac4a9a05bae60d50b4da6a1de1c491bdac20c"}, {"txinwitness": ["304402206a6c70dbc8ec2ba66c39a6fe26f2ea664ad477e5231e1ead9b518b688cfce49702203e3ff310b213c58e889bfe0faa56c499be5d409ab8564b3ad40f58ac54a587d801", "035d7e4963d36f9bc7e0e2bb0a36272dc528b6c28dc554a39f537bfba6a72fece8"], "sequence": 4294967295, "scriptSig": {"hex": "1600140bd493204aac81e80a289432102ac5112783bc5f", "asm": "00140bd493204aac81e80a289432102ac5112783bc5f"}, "vout": 11, "txid": "7d6664a3bd36efc6312fc3fbb9067b48d25f1a2dd69d6d6a0d0903c62d7e3e58"}], "txid": "4206d6791026dd277b129842d651363f41de7f75809872548a299fed27da8490", "blocktime": 1537872475, "version": 2, "confirmations": 11487, "time": 1537872475, "locktime": 0, "vsize": 867, "size": 1512}