{"hash": "c8948f4c9f59b9159149231af7c4f3a01961c5e77c31ca7bf8c53b5e20e56598", "blockhash": "0000000000000000001cda96e906b7601b7a6fb1a3b62bca570a9e5d8f4b3de1", "vout": [{"scriptPubKey": {"reqSigs": 1, "hex": "76a914fadab8dc86c804a3e93e2655bffa4e1358f4245e88ac", "addresses": ["1PsPx383Kj82GsoNaCx5pwVjxqeJyqKxGx"], "asm": "OP_DUP OP_HASH160 fadab8dc86c804a3e93e2655bffa4e1358f4245e OP_EQUALVERIFY OP_CHECKSIG", "type": "pubkeyhash"}, "value": 0.00350209, "n": 0}, {"scriptPubKey": {"reqSigs": 1, "hex": "a914f45b31a7b5339c8233a509a7ab4988c2e0a2ef9987", "addresses": ["3Py43com7wJZsHkvmsZLvcpvQ7C7hg2bDr"], "asm": "OP_HASH160 f45b31a7b5339c8233a509a7ab4988c2e0a2ef99 OP_EQUAL", "type": "scripthash"}, "value": 0.00827604, "n": 1}], "hex": "02000000000103c0b55cc35ca14966e729f8937b170593c78bf90a20bc343a5ab170e7348b53ae03000000171600141f712be98b1c9348d7e8f45b28cfec943f741e90feffffffc10998e3ffde82318858e7478d22a6a537de16e9f128ef33571c04d6b2ab8c020100000017160014f75f072b41761aa4a756da6cee164c0b3ae901e3fefffffffcf5fdb2feb57675a8afca2531a83d129d611ad70e66d1fa9138abb6425c372e030000001716001409e97c4e8593fa1e80f8ada32e4f676c07c6fddffeffffff0201580500000000001976a914fadab8dc86c804a3e93e2655bffa4e1358f4245e88acd4a00c000000000017a914f45b31a7b5339c8233a509a7ab4988c2e0a2ef99870247304402205a85213a2887c6dc62718289cc637b5cd4f63a527a52dd8aadb4195d85a6176102202a288b4d36476870c9490aac6391b6ca4e6399b9aea575c76797dd610c41a5070121028e2b14384ef14e62d3133c884eaaa99bf9e25fcba681a232f22a5e59740100c20247304402206da1875971cde9e6996da9581c9b82955b6ed34778d968507777e19cf38f096e02207ff1a4dcfa5f9f5250433b2a4db828b0814ff03ddc816988ce9ed1742bf1206901210215d10b77328a5d0221b1384ccd2aafe867bfe0f1cce715597d54ba129f8c0c0802483045022100af4f5a65d6c30e5ba7d6327f12e7280b00824a10ba69770196653c31648e730d0220596aab8dc07e46979464a3079f98ecd32b5a91a77cd4a05070d5e59c6e7436b90121036991ad18cd769bd0f06ccc1cbe16caeed7c784f996691b06466118d25055949613490800", "vin": [{"txinwitness": ["304402205a85213a2887c6dc62718289cc637b5cd4f63a527a52dd8aadb4195d85a6176102202a288b4d36476870c9490aac6391b6ca4e6399b9aea575c76797dd610c41a50701", "028e2b14384ef14e62d3133c884eaaa99bf9e25fcba681a232f22a5e59740100c2"], "sequence": 4294967294, "scriptSig": {"hex": "1600141f712be98b1c9348d7e8f45b28cfec943f741e90", "asm": "00141f712be98b1c9348d7e8f45b28cfec943f741e90"}, "vout": 3, "txid": "ae538b34e770b15a3a34bc200af98bc79305177b93f829e76649a15cc35cb5c0"}, {"txinwitness": ["304402206da1875971cde9e6996da9581c9b82955b6ed34778d968507777e19cf38f096e02207ff1a4dcfa5f9f5250433b2a4db828b0814ff03ddc816988ce9ed1742bf1206901", "0215d10b77328a5d0221b1384ccd2aafe867bfe0f1cce715597d54ba129f8c0c08"], "sequence": 4294967294, "scriptSig": {"hex": "160014f75f072b41761aa4a756da6cee164c0b3ae901e3", "asm": "0014f75f072b41761aa4a756da6cee164c0b3ae901e3"}, "vout": 1, "txid": "028cabb2d6041c5733ef28f1e916de37a5a6228d47e758883182deffe39809c1"}, {"txinwitness": ["3045022100af4f5a65d6c30e5ba7d6327f12e7280b00824a10ba69770196653c31648e730d0220596aab8dc07e46979464a3079f98ecd32b5a91a77cd4a05070d5e59c6e7436b901", "036991ad18cd769bd0f06ccc1cbe16caeed7c784f996691b06466118d250559496"], "sequence": 4294967294, "scriptSig": {"hex": "16001409e97c4e8593fa1e80f8ada32e4f676c07c6fddf", "asm": "001409e97c4e8593fa1e80f8ada32e4f676c07c6fddf"}, "vout": 3, "txid": "2e375c42b6ab3891fad1660ed71a619d123da83125caafa87576b5feb2fdf5fc"}], "txid": "4208b4b02c6818ddd45eea4886fd6fc87f159e6dc0e04a6832b4efc70f52dba5", "blocktime": 1537873282, "version": 2, "confirmations": 11480, "time": 1537873282, "locktime": 542995, "vsize": 349, "size": 592}