{"hash": "e73a293304476a8876809ed283fb09c14e452b2bc68a1d72c8bd5aa5611c4bfc", "blockhash": "0000000000000000000dcc0f55137456b1a82d3642486a52398922ac4d620174", "vout": [{"scriptPubKey": {"reqSigs": 1, "hex": "0014b66c820f16c078f7be0b9b35fcd72d080a7494cb", "addresses": ["bc1qkekgyrckcpu000stnv6le4edpq98f9xt462w7e"], "asm": "0 b66c820f16c078f7be0b9b35fcd72d080a7494cb", "type": "witness_v0_keyhash"}, "value": 0.01801399, "n": 0}, {"scriptPubKey": {"reqSigs": 1, "hex": "0020acec04b1fd8d338d14109b763be4219674420831de5fa1593ea38132124a67bc", "addresses": ["bc1q4nkqfv0a35ec69qsndmrheppje6yyzp3me06zkf75wqnyyj2v77qrzg5u9"], "asm": "0 acec04b1fd8d338d14109b763be4219674420831de5fa1593ea38132124a67bc", "type": "witness_v0_scripthash"}, "value": 0.02605541, "n": 1}], "hex": "01000000000104f2cd4e9e5053852ccbf9f83ab7cabf5c7f73abc37a131a505f8696b778bef30f0000000000ffffffffda7d00adc21a8483b5eb564ea84e0f9a6af1feffc582234a2dd5b6eb8e4f04150000000000ffffffffe3eb2493badccae17e16b56b045ba4097e4376f2ee8aa75a41ef47134f13e99d0100000000ffffffff3222cebc64c916c76d93659d74c42b59bde1a3faa79c5f10e76e36127cc408ad0000000000ffffffff02b77c1b0000000000160014b66c820f16c078f7be0b9b35fcd72d080a7494cbe5c1270000000000220020acec04b1fd8d338d14109b763be4219674420831de5fa1593ea38132124a67bc0247304402204313352abac225633c1cb801ae4ab3bfd81d831888d7d022d5976c0ec022ec450220631b647721ee964ff61a4f28c12967740d47874db9281956c688694dd925557a012103a460e2d4d411dfda0a52d4aac1aa859f6bf8dffb19d354aa33c18d240a68fc7b024830450221009250678429517fefacb94385ebf7b69bbd3fac2b006bc9516592737b4d0f3ba6022072dd2974fa4a856fda3e3aa66c0dc98685005060f73c1fdec51eba2c726cac41012102bdae6d7b633117fec64948ee4bdf551a057743f5d0f1ad946d881567da57116c0247304402203c176710ef014b636a13f06d3f859041db66677ad8824848cfd6ecc92a73d4b802206e5e843aa9c47d9f8f41fd9c71d7b57c93c91a0b3c2cb37b3765b58095f3e1810121034338adc371ffd203b37f58eadd4047a84ed37173586bce4d4cad8609302b129b02483045022100b6456f37c0ca1f348514975da9d12e3740dca81b853f1b8d4162ed1d024e537902206e8ed97086ad615fe76a96041c124345f0c056a9354c859d9c6a6bde757221100121035e9515c0ed6f788f6048d19210f5dfd1f414352c1590d8a0f0fbbe765400c2a400000000", "vin": [{"txinwitness": ["304402204313352abac225633c1cb801ae4ab3bfd81d831888d7d022d5976c0ec022ec450220631b647721ee964ff61a4f28c12967740d47874db9281956c688694dd925557a01", "03a460e2d4d411dfda0a52d4aac1aa859f6bf8dffb19d354aa33c18d240a68fc7b"], "sequence": 4294967295, "scriptSig": {"hex": "", "asm": ""}, "vout": 0, "txid": "0ff3be78b796865f501a137ac3ab737f5cbfcab73af8f9cb2c8553509e4ecdf2"}, {"txinwitness": ["30450221009250678429517fefacb94385ebf7b69bbd3fac2b006bc9516592737b4d0f3ba6022072dd2974fa4a856fda3e3aa66c0dc98685005060f73c1fdec51eba2c726cac4101", "02bdae6d7b633117fec64948ee4bdf551a057743f5d0f1ad946d881567da57116c"], "sequence": 4294967295, "scriptSig": {"hex": "", "asm": ""}, "vout": 0, "txid": "15044f8eebb6d52d4a2382c5fffef16a9a0f4ea84e56ebb583841ac2ad007dda"}, {"txinwitness": ["304402203c176710ef014b636a13f06d3f859041db66677ad8824848cfd6ecc92a73d4b802206e5e843aa9c47d9f8f41fd9c71d7b57c93c91a0b3c2cb37b3765b58095f3e18101", "034338adc371ffd203b37f58eadd4047a84ed37173586bce4d4cad8609302b129b"], "sequence": 4294967295, "scriptSig": {"hex": "", "asm": ""}, "vout": 1, "txid": "9de9134f1347ef415aa78aeef276437e09a45b046bb5167ee1cadcba9324ebe3"}, {"txinwitness": ["3045022100b6456f37c0ca1f348514975da9d12e3740dca81b853f1b8d4162ed1d024e537902206e8ed97086ad615fe76a96041c124345f0c056a9354c859d9c6a6bde7572211001", "035e9515c0ed6f788f6048d19210f5dfd1f414352c1590d8a0f0fbbe765400c2a4"], "sequence": 4294967295, "scriptSig": {"hex": "", "asm": ""}, "vout": 0, "txid": "ad08c47c12366ee7105f9ca7faa3e1bd592bc4749d65936dc716c964bcce2232"}], "txid": "4208e9f49eb6c4501ea870420e52199c1fe7b52779ee40c9399896d51cf93129", "blocktime": 1537870268, "version": 1, "confirmations": 11518, "time": 1537870268, "locktime": 0, "vsize": 356, "size": 680}