{"hash": "420c70552aadb9279b6f937cc2b2f53c2760ff277031bc29ca6e97fe5c851407", "blockhash": "0000000000000000000e13cef7c366c0283d82e591d1acd082e914b08063cdf1", "vout": [{"scriptPubKey": {"type": "nulldata", "hex": "6a4c5000007797000144fd5e8b98484afb498bd9f9e3ef3236678a625097bcbefa6b8351586b4e5cbc6b76b6c6463e17086ba364ac9d375baa0d1d0614b7d3d1638a7a4bbf23acfcfaac8058b692fe6808c31d", "asm": "OP_RETURN 00007797000144fd5e8b98484afb498bd9f9e3ef3236678a625097bcbefa6b8351586b4e5cbc6b76b6c6463e17086ba364ac9d375baa0d1d0614b7d3d1638a7a4bbf23acfcfaac8058b692fe6808c31d"}, "value": 0.0, "n": 0}, {"scriptPubKey": {"reqSigs": 1, "hex": "76a91402dc8285d5072f0ec68d9bf8c759e2f2fcce2dae88ac", "addresses": ["1G8WgGJ129JqZpZiKbz7XicGgU6JgRyq6"], "asm": "OP_DUP OP_HASH160 02dc8285d5072f0ec68d9bf8c759e2f2fcce2dae OP_EQUALVERIFY OP_CHECKSIG", "type": "pubkeyhash"}, "value": 0.00027169, "n": 1}], "hex": "01000000014e9e5fbf7b34813b9ac27a446661de185e22fd3a388dd48f26f2beea11de4221010000006b483045022100dd77667aa410034687ba212349fceb08c7ac7981deb063e0bb15be2cdb6ca1d202206111ae5827dd9bc12f7fe9c88f1c65902e500ff5b454e0310e28f2d408106bf70121032f7e50c31abd2c52b94208a79e7fd2e044e804c7eb1899965b6fb72a637ff0abffffffff020000000000000000536a4c5000007797000144fd5e8b98484afb498bd9f9e3ef3236678a625097bcbefa6b8351586b4e5cbc6b76b6c6463e17086ba364ac9d375baa0d1d0614b7d3d1638a7a4bbf23acfcfaac8058b692fe6808c31d216a0000000000001976a91402dc8285d5072f0ec68d9bf8c759e2f2fcce2dae88ac00000000", "vin": [{"sequence": 4294967295, "scriptSig": {"hex": "483045022100dd77667aa410034687ba212349fceb08c7ac7981deb063e0bb15be2cdb6ca1d202206111ae5827dd9bc12f7fe9c88f1c65902e500ff5b454e0310e28f2d408106bf70121032f7e50c31abd2c52b94208a79e7fd2e044e804c7eb1899965b6fb72a637ff0ab", "asm": "3045022100dd77667aa410034687ba212349fceb08c7ac7981deb063e0bb15be2cdb6ca1d202206111ae5827dd9bc12f7fe9c88f1c65902e500ff5b454e0310e28f2d408106bf7[ALL] 032f7e50c31abd2c52b94208a79e7fd2e044e804c7eb1899965b6fb72a637ff0ab"}, "vout": 1, "txid": "2142de11eabef2268fd48d383afd225e18de6166447ac29a3b81347bbf5f9e4e"}], "txid": "420c70552aadb9279b6f937cc2b2f53c2760ff277031bc29ca6e97fe5c851407", "blocktime": 1537871767, "version": 1, "confirmations": 11495, "time": 1537871767, "locktime": 0, "vsize": 284, "size": 284}