{"hash": "b1573ea54cbfab95f944ae912914ca69becb91a91c52b556852d821626d65136", "blockhash": "000000000000000000022b45ed06c6f4ccd3cf7fb5ba4856ebd2e58215665228", "vout": [{"scriptPubKey": {"reqSigs": 1, "hex": "a914c6db09e6cb80576a67b18626ce70d0edef1a9f8487", "addresses": ["3KpU7bmkR97vrwL3vwJ4tCJEGpDD1E9KTS"], "asm": "OP_HASH160 c6db09e6cb80576a67b18626ce70d0edef1a9f84 OP_EQUAL", "type": "scripthash"}, "value": 0.007, "n": 0}, {"scriptPubKey": {"reqSigs": 1, "hex": "a914627aa52932456d89054bd84f86246af3b71b93a887", "addresses": ["3Afj4stdiLG9EktGrMbm252ySonnhYaz8v"], "asm": "OP_HASH160 627aa52932456d89054bd84f86246af3b71b93a8 OP_EQUAL", "type": "scripthash"}, "value": 0.7663965, "n": 1}], "hex": "01000000000101a8a1fac447b4531ce2e2640a75b128579b1fb74bdd21909bd9d1cc36e59f6a9501000000232200205fdd641234b13964b223bd85ad2a4a667ca2099df3d42a1d3b45706a8d81abf0ffffffff0260ae0a000000000017a914c6db09e6cb80576a67b18626ce70d0edef1a9f8487a26d91040000000017a914627aa52932456d89054bd84f86246af3b71b93a887040047304402207e89300da6320a5c2bb35a3ccd08085bb8325a9ef85ffdc2071c85d9b8a98b97022033501b4da49dd6fc35f3dae187cc5857e97503b7a62755b0b1c7822b36d2094501483045022100cd37e6be0d991af02079f33bc2f68b41ce79785800d1445aec15f1ea0fb1e6c902201510e2388b2d21e7bc402b1cb07532dd13ee4e31147d5b114b016053123bc2710147522103dcde3832fa56def7b4e783faad1b8af85c3cdd74a5ff4f3c7c216b1075c18da12103c70ae8ded79be1afda73b9ce5ea14a3878908ee160d66a9a717e792bb6db276952ae00000000", "vin": [{"txinwitness": ["", "304402207e89300da6320a5c2bb35a3ccd08085bb8325a9ef85ffdc2071c85d9b8a98b97022033501b4da49dd6fc35f3dae187cc5857e97503b7a62755b0b1c7822b36d2094501", "3045022100cd37e6be0d991af02079f33bc2f68b41ce79785800d1445aec15f1ea0fb1e6c902201510e2388b2d21e7bc402b1cb07532dd13ee4e31147d5b114b016053123bc27101", "522103dcde3832fa56def7b4e783faad1b8af85c3cdd74a5ff4f3c7c216b1075c18da12103c70ae8ded79be1afda73b9ce5ea14a3878908ee160d66a9a717e792bb6db276952ae"], "sequence": 4294967295, "scriptSig": {"hex": "2200205fdd641234b13964b223bd85ad2a4a667ca2099df3d42a1d3b45706a8d81abf0", "asm": "00205fdd641234b13964b223bd85ad2a4a667ca2099df3d42a1d3b45706a8d81abf0"}, "vout": 1, "txid": "956a9fe536ccd1d99b9021dd4bb71f9b5728b1750a64e2e21c53b447c4faa1a8"}], "txid": "42133da3f94f833d62ba91764af4cbc14d4999b085c22c5273a55ffe43c4cf60", "blocktime": 1537869901, "version": 1, "confirmations": 11523, "time": 1537869901, "locktime": 0, "vsize": 206, "size": 371}