{"hash": "4217f09ba65d0ecb82a817cfb5fdd2b5cdc7199cdda2b774c40e8b23c4779a18", "blockhash": "00000000000000000017f5eb5941039fbcee6240d03bc1f2f8e35350df66a1d8", "vout": [{"scriptPubKey": {"reqSigs": 1, "hex": "a9147fe938dd471063c342f678eb4efb13f65e99f54c87", "addresses": ["3DMM8TqxceCHQS5iVkqSCdV3nzmWdnwq3V"], "asm": "OP_HASH160 7fe938dd471063c342f678eb4efb13f65e99f54c OP_EQUAL", "type": "scripthash"}, "value": 0.0034196, "n": 0}, {"scriptPubKey": {"reqSigs": 1, "hex": "76a9146cbde41ddda5b296d9cd9b0ef6aead52468d8aeb88ac", "addresses": ["1AuyTaiRCqPd93qyMYrSVKNppv2xJvzrPQ"], "asm": "OP_DUP OP_HASH160 6cbde41ddda5b296d9cd9b0ef6aead52468d8aeb OP_EQUALVERIFY OP_CHECKSIG", "type": "pubkeyhash"}, "value": 0.07138492, "n": 1}], "hex": "01000000015723da433fcbe1364b418d4bcfa3433ab25b0126a981596def2132ad31b22394010000006b48304502210088051caaf0701d5325db3114ea12788f5aeb68eb9d90b77600bcb058dd4b783102200e1f77e23b8490ce0e64468f3b4de8c6640d57171279aa77c86b1f89af0079b20121031cdecc25c40ddc91d3cebf56b82c6e0e47083d7dc42955cce9fbcb064f534e41ffffffff02c83705000000000017a9147fe938dd471063c342f678eb4efb13f65e99f54c87bcec6c00000000001976a9146cbde41ddda5b296d9cd9b0ef6aead52468d8aeb88ac00000000", "vin": [{"sequence": 4294967295, "scriptSig": {"hex": "48304502210088051caaf0701d5325db3114ea12788f5aeb68eb9d90b77600bcb058dd4b783102200e1f77e23b8490ce0e64468f3b4de8c6640d57171279aa77c86b1f89af0079b20121031cdecc25c40ddc91d3cebf56b82c6e0e47083d7dc42955cce9fbcb064f534e41", "asm": "304502210088051caaf0701d5325db3114ea12788f5aeb68eb9d90b77600bcb058dd4b783102200e1f77e23b8490ce0e64468f3b4de8c6640d57171279aa77c86b1f89af0079b2[ALL] 031cdecc25c40ddc91d3cebf56b82c6e0e47083d7dc42955cce9fbcb064f534e41"}, "vout": 1, "txid": "9423b231ad3221ef6d5981a926015bb23a43a3cf4b8d414b36e1cb3f43da2357"}], "txid": "4217f09ba65d0ecb82a817cfb5fdd2b5cdc7199cdda2b774c40e8b23c4779a18", "blocktime": 1537874412, "version": 1, "confirmations": 11467, "time": 1537874412, "locktime": 0, "vsize": 224, "size": 224}