{"hash": "4217d22fad5ce5ca925037325e6b1f6ca0fcb33883fb0463dabe0d848f7c4b2b", "blockhash": "0000000000000000001f76057863aec43deb6fa401d9628bb513d65a8098bfab", "vout": [{"scriptPubKey": {"reqSigs": 1, "hex": "76a914795df06e2100979c4f8ed391f1d3af9a43f4da7788ac", "addresses": ["1C4jJDmdY3LK2zz4GY4VsFqUDMgMLkUYaw"], "asm": "OP_DUP OP_HASH160 795df06e2100979c4f8ed391f1d3af9a43f4da77 OP_EQUALVERIFY OP_CHECKSIG", "type": "pubkeyhash"}, "value": 0.01679187, "n": 0}, {"scriptPubKey": {"reqSigs": 1, "hex": "76a9142ed755319fd2b0724d3888299c6068627fe592c488ac", "addresses": ["15Gg3Qhegn4TRyQgJcesnuWBUmBhfiszdK"], "asm": "OP_DUP OP_HASH160 2ed755319fd2b0724d3888299c6068627fe592c4 OP_EQUALVERIFY OP_CHECKSIG", "type": "pubkeyhash"}, "value": 0.01313578, "n": 1}], "hex": "0200000003bfb653482a4de0bdbbf4936f3e879c0ec6ca034102453dc6db7c6117e67e3d9d000000006b483045022100c36f87959616277beee7f6f1f670da51f9565265f351bef2d893f278300f1ff002201d1b38102b7d221f328b8db5b92fc5b80ad67d485601434aa73e4ff2c789e9010121021f2722c796eee8df03aee419004535d68591f787a9a104496d7860c71d6ede7bfeffffff3a90be07198760c9cc7432d55b46d3e580cbb7de0f318392318a0d11dd7280ba010000006b483045022100e9b9767190a6da58535ec924c472ae858f894b841e5ebbb8843dd8185358366c02200e31fbc89c2fd726009f9594ce587e5ca4b189b47f28d67c2280c3df711d7160012102870e9b553d32478788ee3f2f5ecb85549cf001636a307685d7d616f512f9453cfeffffff2e4af920e16480ea546ebc6dbae1338cb13c1c07c00b6975bfc0cab84300aee5000000006b483045022100e7a588329ec57bb38dd3738189836dc170b09cf98b45a9f718bc563198f96235022023ed61f4ad758819fd223c10d9885a7ad64bada3b36cab61a10513b0a4e80a75012103b99ee51cb14877ba602c25b6514ad168b7261aa568ac52eee9dbd9f14421bf4cfeffffff02539f1900000000001976a914795df06e2100979c4f8ed391f1d3af9a43f4da7788ac2a0b1400000000001976a9142ed755319fd2b0724d3888299c6068627fe592c488ac13490800", "vin": [{"sequence": 4294967294, "scriptSig": {"hex": "483045022100c36f87959616277beee7f6f1f670da51f9565265f351bef2d893f278300f1ff002201d1b38102b7d221f328b8db5b92fc5b80ad67d485601434aa73e4ff2c789e9010121021f2722c796eee8df03aee419004535d68591f787a9a104496d7860c71d6ede7b", "asm": "3045022100c36f87959616277beee7f6f1f670da51f9565265f351bef2d893f278300f1ff002201d1b38102b7d221f328b8db5b92fc5b80ad67d485601434aa73e4ff2c789e901[ALL] 021f2722c796eee8df03aee419004535d68591f787a9a104496d7860c71d6ede7b"}, "vout": 0, "txid": "9d3d7ee617617cdbc63d45024103cac60e9c873e6f93f4bbbde04d2a4853b6bf"}, {"sequence": 4294967294, "scriptSig": {"hex": "483045022100e9b9767190a6da58535ec924c472ae858f894b841e5ebbb8843dd8185358366c02200e31fbc89c2fd726009f9594ce587e5ca4b189b47f28d67c2280c3df711d7160012102870e9b553d32478788ee3f2f5ecb85549cf001636a307685d7d616f512f9453c", "asm": "3045022100e9b9767190a6da58535ec924c472ae858f894b841e5ebbb8843dd8185358366c02200e31fbc89c2fd726009f9594ce587e5ca4b189b47f28d67c2280c3df711d7160[ALL] 02870e9b553d32478788ee3f2f5ecb85549cf001636a307685d7d616f512f9453c"}, "vout": 1, "txid": "ba8072dd110d8a319283310fdeb7cb80e5d3465bd53274ccc960871907be903a"}, {"sequence": 4294967294, "scriptSig": {"hex": "483045022100e7a588329ec57bb38dd3738189836dc170b09cf98b45a9f718bc563198f96235022023ed61f4ad758819fd223c10d9885a7ad64bada3b36cab61a10513b0a4e80a75012103b99ee51cb14877ba602c25b6514ad168b7261aa568ac52eee9dbd9f14421bf4c", "asm": "3045022100e7a588329ec57bb38dd3738189836dc170b09cf98b45a9f718bc563198f96235022023ed61f4ad758819fd223c10d9885a7ad64bada3b36cab61a10513b0a4e80a75[ALL] 03b99ee51cb14877ba602c25b6514ad168b7261aa568ac52eee9dbd9f14421bf4c"}, "vout": 0, "txid": "e5ae0043b8cac0bf75690bc0071c3cb18c33e1ba6dbc6e54ea8064e120f94a2e"}], "txid": "4217d22fad5ce5ca925037325e6b1f6ca0fcb33883fb0463dabe0d848f7c4b2b", "blocktime": 1537873891, "version": 2, "confirmations": 11478, "time": 1537873891, "locktime": 542995, "vsize": 522, "size": 522}