{"hash": "4219bed890f4e81e28bde098bbee27e7aaff66e688eb0d606869e4ba5397fdba", "blockhash": "0000000000000000001f76057863aec43deb6fa401d9628bb513d65a8098bfab", "vout": [{"scriptPubKey": {"type": "nulldata", "hex": "6a146f6d6e69000000000000001f0000001734cb8180", "asm": "OP_RETURN 6f6d6e69000000000000001f0000001734cb8180"}, "value": 0.0, "n": 0}, {"scriptPubKey": {"reqSigs": 1, "hex": "76a9149f423df6117b23a757588befe3f946339dc542ec88ac", "addresses": ["1FX5o5YgYZQSMs55NwGjbZ5B8Vybkvb3iK"], "asm": "OP_DUP OP_HASH160 9f423df6117b23a757588befe3f946339dc542ec OP_EQUALVERIFY OP_CHECKSIG", "type": "pubkeyhash"}, "value": 5.46e-06, "n": 1}, {"scriptPubKey": {"reqSigs": 1, "hex": "76a914a25dec4d0011064ef106a983c39c7a540699f22088ac", "addresses": ["1FoWyxwPXuj4C6abqwhjDWdz6D4PZgYRjA"], "asm": "OP_DUP OP_HASH160 a25dec4d0011064ef106a983c39c7a540699f220 OP_EQUALVERIFY OP_CHECKSIG", "type": "pubkeyhash"}, "value": 0.01995188, "n": 2}], "hex": "0100000001a44813c76173a4fe9689194c29809e35be05f1741d9b5e1e9e8bd44070ac1fea830000006a47304402205b15198bd016efe75cdb75d13c19880656247c04868188835c5c8d4271797d86022008a7b4a900d97e333809a71655e37848b6ad89a1e867032fed2f8df1ebff276c012103da5bac7b36d5aa38f531c6b9601e21bb598a4b6716ebed38b009a55dabde9440feffffff030000000000000000166a146f6d6e69000000000000001f0000001734cb818022020000000000001976a9149f423df6117b23a757588befe3f946339dc542ec88acb4711e00000000001976a914a25dec4d0011064ef106a983c39c7a540699f22088ac14490800", "vin": [{"sequence": 4294967294, "scriptSig": {"hex": "47304402205b15198bd016efe75cdb75d13c19880656247c04868188835c5c8d4271797d86022008a7b4a900d97e333809a71655e37848b6ad89a1e867032fed2f8df1ebff276c012103da5bac7b36d5aa38f531c6b9601e21bb598a4b6716ebed38b009a55dabde9440", "asm": "304402205b15198bd016efe75cdb75d13c19880656247c04868188835c5c8d4271797d86022008a7b4a900d97e333809a71655e37848b6ad89a1e867032fed2f8df1ebff276c[ALL] 03da5bac7b36d5aa38f531c6b9601e21bb598a4b6716ebed38b009a55dabde9440"}, "vout": 131, "txid": "ea1fac7040d48b9e1e5e9b1d74f105be359e80294c198996fea47361c71348a4"}], "txid": "4219bed890f4e81e28bde098bbee27e7aaff66e688eb0d606869e4ba5397fdba", "blocktime": 1537873891, "version": 1, "confirmations": 11475, "time": 1537873891, "locktime": 542996, "vsize": 256, "size": 256}