{"hash": "422290be97af86392d673a479c379af3408384d6ada0068336ce2791226fb929", "blockhash": "00000000000000000018f53835495a110e01622372bf6ae95dc86f2b0ab887b0", "vout": [{"scriptPubKey": {"reqSigs": 1, "hex": "76a9147e413086e225683e49c72e9614f5152de4f52f7188ac", "addresses": ["1CWaEczVqv98212PbUiJjQF1RWvqyLvrGs"], "asm": "OP_DUP OP_HASH160 7e413086e225683e49c72e9614f5152de4f52f71 OP_EQUALVERIFY OP_CHECKSIG", "type": "pubkeyhash"}, "value": 0.00022552, "n": 0}, {"scriptPubKey": {"reqSigs": 1, "hex": "a914b5f2d408482040cb98f0bdbe633e2e9b474f607587", "addresses": ["3JH58GUy61yFxXxuGKHZZ3ihNWieYjdtCL"], "asm": "OP_HASH160 b5f2d408482040cb98f0bdbe633e2e9b474f6075 OP_EQUAL", "type": "scripthash"}, "value": 0.00164217, "n": 1}], "hex": "0100000001c3217674da2542d66f8004187225984f90dde16caf56178ef5af6e749abe4e4b000000006b483045022100c2be65eabe7df6b9406dfd1a5b9bba347103688facbde66fdc1a13cbf780e2b102205f7e94c0e768f0db1ea0f9ae4c74d8b443d4e6b6785927ecd421d93382a1779e0121038cdd84c535c717c8a28acf71ddf5eda697d5e924e1eef0239c26f5fc0f57d62bffffffff0218580000000000001976a9147e413086e225683e49c72e9614f5152de4f52f7188ac798102000000000017a914b5f2d408482040cb98f0bdbe633e2e9b474f60758700000000", "vin": [{"sequence": 4294967295, "scriptSig": {"hex": "483045022100c2be65eabe7df6b9406dfd1a5b9bba347103688facbde66fdc1a13cbf780e2b102205f7e94c0e768f0db1ea0f9ae4c74d8b443d4e6b6785927ecd421d93382a1779e0121038cdd84c535c717c8a28acf71ddf5eda697d5e924e1eef0239c26f5fc0f57d62b", "asm": "3045022100c2be65eabe7df6b9406dfd1a5b9bba347103688facbde66fdc1a13cbf780e2b102205f7e94c0e768f0db1ea0f9ae4c74d8b443d4e6b6785927ecd421d93382a1779e[ALL] 038cdd84c535c717c8a28acf71ddf5eda697d5e924e1eef0239c26f5fc0f57d62b"}, "vout": 0, "txid": "4b4ebe9a746eaff58e1756af6ce1dd904f9825721804806fd64225da747621c3"}], "txid": "422290be97af86392d673a479c379af3408384d6ada0068336ce2791226fb929", "blocktime": 1537870928, "version": 1, "confirmations": 11514, "time": 1537870928, "locktime": 0, "vsize": 224, "size": 224}