{"hash": "4224e914b8e149535db844a26e0e2e9c7809fca5f45f78430b7066dd6e012220", "blockhash": "00000000000000000024a2167bbff67b0be802c0b01cdd79e6331c2be6459f87", "vout": [{"scriptPubKey": {"reqSigs": 1, "hex": "76a91432aff6489f390a8b0b76255240adfa92176ec5a688ac", "addresses": ["15d1aedXLYurXd5WRioFKHAmPztsSEpKQb"], "asm": "OP_DUP OP_HASH160 32aff6489f390a8b0b76255240adfa92176ec5a6 OP_EQUALVERIFY OP_CHECKSIG", "type": "pubkeyhash"}, "value": 0.0319, "n": 0}, {"scriptPubKey": {"reqSigs": 1, "hex": "76a914d2efbdb39a1cd33cfa792290b839b72066522daf88ac", "addresses": ["1LEL6nPgj47naVbxw9V3VbnJyk5KaA2oZp"], "asm": "OP_DUP OP_HASH160 d2efbdb39a1cd33cfa792290b839b72066522daf OP_EQUALVERIFY OP_CHECKSIG", "type": "pubkeyhash"}, "value": 0.30967253, "n": 1}], "hex": "010000000140b78b68d0847be5b3e7f6148a8980a71814f936298ac5cbb3e118c4d04e5dff010000006a473044022067ca64f77b79b1f196067206528974a5c09791767e328485550f1f85d52c142b02201f9e39ac0863ae755c43fa66b752671fd5ee94d6fbda51bff53ed657712e39be012102ae720048cc32f672ad9ff370b62318442447881dc136a90af1b182b9e7242139ffffffff02f0ac3000000000001976a91432aff6489f390a8b0b76255240adfa92176ec5a688acd585d801000000001976a914d2efbdb39a1cd33cfa792290b839b72066522daf88ac00000000", "vin": [{"sequence": 4294967295, "scriptSig": {"hex": "473044022067ca64f77b79b1f196067206528974a5c09791767e328485550f1f85d52c142b02201f9e39ac0863ae755c43fa66b752671fd5ee94d6fbda51bff53ed657712e39be012102ae720048cc32f672ad9ff370b62318442447881dc136a90af1b182b9e7242139", "asm": "3044022067ca64f77b79b1f196067206528974a5c09791767e328485550f1f85d52c142b02201f9e39ac0863ae755c43fa66b752671fd5ee94d6fbda51bff53ed657712e39be[ALL] 02ae720048cc32f672ad9ff370b62318442447881dc136a90af1b182b9e7242139"}, "vout": 1, "txid": "ff5d4ed0c418e1b3cbc58a2936f91418a780898a14f6e7b3e57b84d0688bb740"}], "txid": "4224e914b8e149535db844a26e0e2e9c7809fca5f45f78430b7066dd6e012220", "blocktime": 1537870564, "version": 1, "confirmations": 11515, "time": 1537870564, "locktime": 0, "vsize": 225, "size": 225}