{"hash": "42243c268485cc7d99403e7fd1e1dbce8776efec08119b67bc3cf4eb997907ca", "blockhash": "0000000000000000000baef3f32e3676a92c3b2e5da21b426e4f302fc371ce76", "vout": [{"scriptPubKey": {"reqSigs": 1, "hex": "76a914070152851e95c800b1a196cb2595b7282ff21cbb88ac", "addresses": ["1e3KDozmvrzJu7o1fKJCScWWJt4tjFkpJ"], "asm": "OP_DUP OP_HASH160 070152851e95c800b1a196cb2595b7282ff21cbb OP_EQUALVERIFY OP_CHECKSIG", "type": "pubkeyhash"}, "value": 2e-05, "n": 0}, {"scriptPubKey": {"reqSigs": 1, "hex": "76a91420bf2b0287b9f32c96af778a2fffc393283c184d88ac", "addresses": ["13z9dj2W2xsf6x6tnPbhpJKZPKmenM4gPK"], "asm": "OP_DUP OP_HASH160 20bf2b0287b9f32c96af778a2fffc393283c184d OP_EQUALVERIFY OP_CHECKSIG", "type": "pubkeyhash"}, "value": 0.00069467, "n": 1}], "hex": "010000000148eb22c91d6e4fda7c6faf55f484a3f379f5a9df267b40a37d1525ce49333765000000006b483045022100a3f3e81a061e557bbd5c322f8b45f99e963d759f426ea6e6d3e2e7f54792f01b02203a04c99aaf601406b4854662584a76066d05aa8ff509611a98609722c591afba0121020cc76f5265d3029f8831c839f1307d3b8c6e09aa67cd2dc56ad28923c3b0365affffffff02d0070000000000001976a914070152851e95c800b1a196cb2595b7282ff21cbb88ac5b0f0100000000001976a91420bf2b0287b9f32c96af778a2fffc393283c184d88ac00000000", "vin": [{"sequence": 4294967295, "scriptSig": {"hex": "483045022100a3f3e81a061e557bbd5c322f8b45f99e963d759f426ea6e6d3e2e7f54792f01b02203a04c99aaf601406b4854662584a76066d05aa8ff509611a98609722c591afba0121020cc76f5265d3029f8831c839f1307d3b8c6e09aa67cd2dc56ad28923c3b0365a", "asm": "3045022100a3f3e81a061e557bbd5c322f8b45f99e963d759f426ea6e6d3e2e7f54792f01b02203a04c99aaf601406b4854662584a76066d05aa8ff509611a98609722c591afba[ALL] 020cc76f5265d3029f8831c839f1307d3b8c6e09aa67cd2dc56ad28923c3b0365a"}, "vout": 0, "txid": "65373349ce25157da3407b26dfa9f579f3a384f455af6f7cda4f6e1dc922eb48"}], "txid": "42243c268485cc7d99403e7fd1e1dbce8776efec08119b67bc3cf4eb997907ca", "blocktime": 1537876114, "version": 1, "confirmations": 11460, "time": 1537876114, "locktime": 0, "vsize": 226, "size": 226}