{"hash": "4228fc91b6ce6fa85f4f2feac59d7d095bb53bd17531f6b33dade566fd2a749a", "blockhash": "0000000000000000001f0ddff1eddb255c1121bcd4da4f1bc9a0da00cae72433", "vout": [{"scriptPubKey": {"reqSigs": 1, "hex": "76a91472eec4643012fcc1ec19dcf57d5d418f6085df1688ac", "addresses": ["1BUi4hgLfYXusrDokozPCbeVUd8UDgtfff"], "asm": "OP_DUP OP_HASH160 72eec4643012fcc1ec19dcf57d5d418f6085df16 OP_EQUALVERIFY OP_CHECKSIG", "type": "pubkeyhash"}, "value": 0.03493737, "n": 0}, {"scriptPubKey": {"reqSigs": 1, "hex": "a9149ff6ac19506b0f2ddc215995c024ec009ddc1d0187", "addresses": ["3GGps8iw75NXdkzn4KwRodMtmjrdJKi9zj"], "asm": "OP_HASH160 9ff6ac19506b0f2ddc215995c024ec009ddc1d01 OP_EQUAL", "type": "scripthash"}, "value": 0.5, "n": 1}], "hex": "01000000022ac1a55dc44df51fb13306fba6e4051200fcc5c3de2dd5c4407df55cc749e6bd000000006a473044022066514227118ef3880e1659e3e29b190d4ff8798f4f4f539225db18a22d92875f022004947098c71cc0e0efd1b919c872d20afc40ef7c0a57d223f1520163069a6cef012102d313744f35b1b92ab28485da27dd240ba3e5948e8d2a709675406f2f0307e3c9ffffffff4fa0c13d874db98290fd040c0b0e034e86dede13a66b9ae560b0555cc7ae3fff010000006a473044022076c7c9e731a7c27ec4df91cb2641e26eac2cc0ae55ce17a9777576ec6614f6e802205e7e4b1306d46977e00adf9bd0a9b071a949d5fd7837f9b10ff8c5032ba49ee701210235249f37542c58a7b4a31b2cf36696702507dd4a13ff5b233ed2b5eb70623f81ffffffff02694f3500000000001976a91472eec4643012fcc1ec19dcf57d5d418f6085df1688ac80f0fa020000000017a9149ff6ac19506b0f2ddc215995c024ec009ddc1d018700000000", "vin": [{"sequence": 4294967295, "scriptSig": {"hex": "473044022066514227118ef3880e1659e3e29b190d4ff8798f4f4f539225db18a22d92875f022004947098c71cc0e0efd1b919c872d20afc40ef7c0a57d223f1520163069a6cef012102d313744f35b1b92ab28485da27dd240ba3e5948e8d2a709675406f2f0307e3c9", "asm": "3044022066514227118ef3880e1659e3e29b190d4ff8798f4f4f539225db18a22d92875f022004947098c71cc0e0efd1b919c872d20afc40ef7c0a57d223f1520163069a6cef[ALL] 02d313744f35b1b92ab28485da27dd240ba3e5948e8d2a709675406f2f0307e3c9"}, "vout": 0, "txid": "bde649c75cf57d40c4d52ddec3c5fc001205e4a6fb0633b11ff54dc45da5c12a"}, {"sequence": 4294967295, "scriptSig": {"hex": "473044022076c7c9e731a7c27ec4df91cb2641e26eac2cc0ae55ce17a9777576ec6614f6e802205e7e4b1306d46977e00adf9bd0a9b071a949d5fd7837f9b10ff8c5032ba49ee701210235249f37542c58a7b4a31b2cf36696702507dd4a13ff5b233ed2b5eb70623f81", "asm": "3044022076c7c9e731a7c27ec4df91cb2641e26eac2cc0ae55ce17a9777576ec6614f6e802205e7e4b1306d46977e00adf9bd0a9b071a949d5fd7837f9b10ff8c5032ba49ee7[ALL] 0235249f37542c58a7b4a31b2cf36696702507dd4a13ff5b233ed2b5eb70623f81"}, "vout": 1, "txid": "ff3faec75c55b060e59a6ba613dede864e030e0b0c04fd9082b94d873dc1a04f"}], "txid": "4228fc91b6ce6fa85f4f2feac59d7d095bb53bd17531f6b33dade566fd2a749a", "blocktime": 1537872018, "version": 1, "confirmations": 11489, "time": 1537872018, "locktime": 0, "vsize": 370, "size": 370}