{"hash": "422eef457a1c5d1592c66d423d653a1392f01bf0c1dc6182df997a24a413e15b", "blockhash": "00000000000000000017f5eb5941039fbcee6240d03bc1f2f8e35350df66a1d8", "vout": [{"scriptPubKey": {"reqSigs": 1, "hex": "76a914ab52074adf50910d9f80c16a13d936a444fd9ae188ac", "addresses": ["1GcrpF3ZjBpuLPBTd7S5AZnA38Uih4MeVv"], "asm": "OP_DUP OP_HASH160 ab52074adf50910d9f80c16a13d936a444fd9ae1 OP_EQUALVERIFY OP_CHECKSIG", "type": "pubkeyhash"}, "value": 0.00050987, "n": 0}, {"scriptPubKey": {"reqSigs": 1, "hex": "76a914d467e53e8d9b2de3b3dff6bac12c8fc1509daf3a88ac", "addresses": ["1LN6iTGjJZcSGQvUZQFL8bZU7GMecWB3h1"], "asm": "OP_DUP OP_HASH160 d467e53e8d9b2de3b3dff6bac12c8fc1509daf3a OP_EQUALVERIFY OP_CHECKSIG", "type": "pubkeyhash"}, "value": 0.00968333, "n": 1}], "hex": "0100000002bdc7863ec2ade23046a86ec449472fa5695a1ff076ab9a40f80845640935d988000000006a473044022060a67ae259e8d26c13b7357184b804ab162213186d71f8a0c5968dc874616ec3022038f190caeb70365007207117ebdda2aeb78c8b804f7b53f467326a13ee125fe70121030a0824dcbf7eeb027391a653d883c214a565e46800432fc18b9f01d41f5604faffffffffce7c5e8b676599bfeae5265192940a1b0591c34c48f6de6be368650f2afa95de030000006b483045022100858fc28321689b7c6892df9534956e41961dbe17899dc8649c133c85038262ca022057e6a08d574f1d9511ca28edb8510a4e6b64896b669e958fb055cf1edb2023de01210368118a7f900819dd63207b4727958a01872574e969bfb235cc4439c903733131ffffffff022bc70000000000001976a914ab52074adf50910d9f80c16a13d936a444fd9ae188ac8dc60e00000000001976a914d467e53e8d9b2de3b3dff6bac12c8fc1509daf3a88ac00000000", "vin": [{"sequence": 4294967295, "scriptSig": {"hex": "473044022060a67ae259e8d26c13b7357184b804ab162213186d71f8a0c5968dc874616ec3022038f190caeb70365007207117ebdda2aeb78c8b804f7b53f467326a13ee125fe70121030a0824dcbf7eeb027391a653d883c214a565e46800432fc18b9f01d41f5604fa", "asm": "3044022060a67ae259e8d26c13b7357184b804ab162213186d71f8a0c5968dc874616ec3022038f190caeb70365007207117ebdda2aeb78c8b804f7b53f467326a13ee125fe7[ALL] 030a0824dcbf7eeb027391a653d883c214a565e46800432fc18b9f01d41f5604fa"}, "vout": 0, "txid": "88d93509644508f8409aab76f01f5a69a52f4749c46ea84630e2adc23e86c7bd"}, {"sequence": 4294967295, "scriptSig": {"hex": "483045022100858fc28321689b7c6892df9534956e41961dbe17899dc8649c133c85038262ca022057e6a08d574f1d9511ca28edb8510a4e6b64896b669e958fb055cf1edb2023de01210368118a7f900819dd63207b4727958a01872574e969bfb235cc4439c903733131", "asm": "3045022100858fc28321689b7c6892df9534956e41961dbe17899dc8649c133c85038262ca022057e6a08d574f1d9511ca28edb8510a4e6b64896b669e958fb055cf1edb2023de[ALL] 0368118a7f900819dd63207b4727958a01872574e969bfb235cc4439c903733131"}, "vout": 3, "txid": "de95fa2a0f6568e36bdef6484cc391051b0a94925126e5eabf9965678b5e7cce"}], "txid": "422eef457a1c5d1592c66d423d653a1392f01bf0c1dc6182df997a24a413e15b", "blocktime": 1537874412, "version": 1, "confirmations": 11468, "time": 1537874412, "locktime": 0, "vsize": 373, "size": 373}