{"hash": "4232d30ed17c306143cdca3d7122ddef05e1e838889fa3830bffd72936db2577", "blockhash": "0000000000000000001cda96e906b7601b7a6fb1a3b62bca570a9e5d8f4b3de1", "vout": [{"scriptPubKey": {"reqSigs": 1, "hex": "76a91425093db904da77876b886e5644c8c727acc1ac5f88ac", "addresses": ["14Nq5BVc2wd8BDjK6Kw2eeFqZhgNdEfzqo"], "asm": "OP_DUP OP_HASH160 25093db904da77876b886e5644c8c727acc1ac5f OP_EQUALVERIFY OP_CHECKSIG", "type": "pubkeyhash"}, "value": 0.001321, "n": 0}, {"scriptPubKey": {"type": "nulldata", "hex": "6a4c50000077c500011ac8685b23cc0f42c2fc38c5e5bf9ae76da98a211aaf6c953dd567cf27e7dd8adcd0cd4bfb78da54f1f70f6253cd5baa134c06136d4758d12efcbc9a9526289ac0f6612cd74e33776ee4", "asm": "OP_RETURN 000077c500011ac8685b23cc0f42c2fc38c5e5bf9ae76da98a211aaf6c953dd567cf27e7dd8adcd0cd4bfb78da54f1f70f6253cd5baa134c06136d4758d12efcbc9a9526289ac0f6612cd74e33776ee4"}, "value": 0.0, "n": 1}], "hex": "010000000114e11be3f520a3d8195aaaa95d3aaffb0d9ad7f3b2913d03fd65ab84908721ca010000006b483045022100d70ee17c8155e15f92052abac70ef62339138d8ebb5eab58dcd8b3108894937a0220411e991ec1428e296b63d5e16444d1582de94ccd662853abff901a6834d737fd012102dd1324351f3b4f70af5d6953735114ff7b56da2c8d615802c1903d38ed96877fffffffff0204040200000000001976a91425093db904da77876b886e5644c8c727acc1ac5f88ac0000000000000000536a4c50000077c500011ac8685b23cc0f42c2fc38c5e5bf9ae76da98a211aaf6c953dd567cf27e7dd8adcd0cd4bfb78da54f1f70f6253cd5baa134c06136d4758d12efcbc9a9526289ac0f6612cd74e33776ee400000000", "vin": [{"sequence": 4294967295, "scriptSig": {"hex": "483045022100d70ee17c8155e15f92052abac70ef62339138d8ebb5eab58dcd8b3108894937a0220411e991ec1428e296b63d5e16444d1582de94ccd662853abff901a6834d737fd012102dd1324351f3b4f70af5d6953735114ff7b56da2c8d615802c1903d38ed96877f", "asm": "3045022100d70ee17c8155e15f92052abac70ef62339138d8ebb5eab58dcd8b3108894937a0220411e991ec1428e296b63d5e16444d1582de94ccd662853abff901a6834d737fd[ALL] 02dd1324351f3b4f70af5d6953735114ff7b56da2c8d615802c1903d38ed96877f"}, "vout": 1, "txid": "ca21879084ab65fd033d91b2f3d79a0dfbaf3a5da9aa5a19d8a320f5e31be114"}], "txid": "4232d30ed17c306143cdca3d7122ddef05e1e838889fa3830bffd72936db2577", "blocktime": 1537873282, "version": 1, "confirmations": 11484, "time": 1537873282, "locktime": 0, "vsize": 284, "size": 284}