{"hash": "5dbfd743292efe0d087b3e9004dee5636733a280878b8d563a0235658792d4bd", "blockhash": "0000000000000000000dcc0f55137456b1a82d3642486a52398922ac4d620174", "vout": [{"scriptPubKey": {"reqSigs": 1, "hex": "76a9147cf8456c652791cec1e98f56bd00aa177cffaee288ac", "addresses": ["1CPnCyLaer7khvB3c26CbGnGULh61YVy2y"], "asm": "OP_DUP OP_HASH160 7cf8456c652791cec1e98f56bd00aa177cffaee2 OP_EQUALVERIFY OP_CHECKSIG", "type": "pubkeyhash"}, "value": 0.35, "n": 0}, {"scriptPubKey": {"reqSigs": 1, "hex": "0014be28b46d2dffc6d105571abc336cd43be59b6f34", "addresses": ["bc1qhc5tgmfdllrdzp2hr27rxmx580jekme5wwusav"], "asm": "0 be28b46d2dffc6d105571abc336cd43be59b6f34", "type": "witness_v0_keyhash"}, "value": 0.05612826, "n": 1}], "hex": "010000000001011fc1d87fc98cbc16dc4eaa8b07085477291f0d24b789a6c13eb8840391b2ad6f0000000000ffffffff02c00e1602000000001976a9147cf8456c652791cec1e98f56bd00aa177cffaee288ac1aa5550000000000160014be28b46d2dffc6d105571abc336cd43be59b6f340247304402201ac94836d9747da42cb943a972e961720a7841f07c7b1319e367f320137d563402207a931275260ec94d0ce2a3dff6c507fcf5296ab680b5d202c2ad8467652fd7db01210362c00c5e0f8b7ab8cf5118f6bac5e0540cb46ee27ee758a6ae4064d52f2e0e0700000000", "vin": [{"txinwitness": ["304402201ac94836d9747da42cb943a972e961720a7841f07c7b1319e367f320137d563402207a931275260ec94d0ce2a3dff6c507fcf5296ab680b5d202c2ad8467652fd7db01", "0362c00c5e0f8b7ab8cf5118f6bac5e0540cb46ee27ee758a6ae4064d52f2e0e07"], "sequence": 4294967295, "scriptSig": {"hex": "", "asm": ""}, "vout": 0, "txid": "6fadb2910384b83ec1a689b7240d1f29775408078baa4edc16bc8cc97fd8c11f"}], "txid": "423579e77fa274039195a1ebbf0fcb8e1ec1fb21a0ae973e12a04c0e528c26b4", "blocktime": 1537870268, "version": 1, "confirmations": 11518, "time": 1537870268, "locktime": 0, "vsize": 144, "size": 225}