{"hash": "4237c0c534710496e957b3620ba2f67fdcc03be99c8f8a224c1a1b91ceaa0f0c", "blockhash": "0000000000000000001cda96e906b7601b7a6fb1a3b62bca570a9e5d8f4b3de1", "vout": [{"scriptPubKey": {"reqSigs": 1, "hex": "76a914bfefe41d03798d88bee5515dcc35d602cc17d71c88ac", "addresses": ["1JVsSZfcgjbxoJ6cA3jQHrmfFLBz2p5wKy"], "asm": "OP_DUP OP_HASH160 bfefe41d03798d88bee5515dcc35d602cc17d71c OP_EQUALVERIFY OP_CHECKSIG", "type": "pubkeyhash"}, "value": 0.00046841, "n": 0}, {"scriptPubKey": {"reqSigs": 1, "hex": "76a91489cad14e8b6c49ae2678276b2393b0ceac0294f288ac", "addresses": ["1DZaYJ7N2rNe7oX71HCHTHEyzGfgNmoe3M"], "asm": "OP_DUP OP_HASH160 89cad14e8b6c49ae2678276b2393b0ceac0294f2 OP_EQUALVERIFY OP_CHECKSIG", "type": "pubkeyhash"}, "value": 0.00481171, "n": 1}], "hex": "0100000001d73169f51e5271f091947c18aba232fe3230193f072e51cf7de7e92d87754bae010000006b483045022100b7a4a73e353120b9d4af4a3d48421c8db18c84bf184d9e9400ced47980d970d90220617789f2d419356cb9ed76d6dc3ad0529010ccf2354f691678ea5f7784e8a7090121024bf916638b8433999cd3f1ea7e9f200b888693b623ac657c140be1d0c5b216f5ffffffff02f9b60000000000001976a914bfefe41d03798d88bee5515dcc35d602cc17d71c88ac93570700000000001976a91489cad14e8b6c49ae2678276b2393b0ceac0294f288ac00000000", "vin": [{"sequence": 4294967295, "scriptSig": {"hex": "483045022100b7a4a73e353120b9d4af4a3d48421c8db18c84bf184d9e9400ced47980d970d90220617789f2d419356cb9ed76d6dc3ad0529010ccf2354f691678ea5f7784e8a7090121024bf916638b8433999cd3f1ea7e9f200b888693b623ac657c140be1d0c5b216f5", "asm": "3045022100b7a4a73e353120b9d4af4a3d48421c8db18c84bf184d9e9400ced47980d970d90220617789f2d419356cb9ed76d6dc3ad0529010ccf2354f691678ea5f7784e8a709[ALL] 024bf916638b8433999cd3f1ea7e9f200b888693b623ac657c140be1d0c5b216f5"}, "vout": 1, "txid": "ae4b75872de9e77dcf512e073f193032fe32a2ab187c9491f071521ef56931d7"}], "txid": "4237c0c534710496e957b3620ba2f67fdcc03be99c8f8a224c1a1b91ceaa0f0c", "blocktime": 1537873282, "version": 1, "confirmations": 11484, "time": 1537873282, "locktime": 0, "vsize": 226, "size": 226}