{"hash": "423b3c2d1163699f1e573a75aaf5d7ff74bc6cf651156f80b4912f1cee88c1f2", "blockhash": "00000000000000000017f5eb5941039fbcee6240d03bc1f2f8e35350df66a1d8", "vout": [{"scriptPubKey": {"reqSigs": 1, "hex": "a91438ad2ff95e710b73c7d38f4e1008b5baa5f121fa87", "addresses": ["36rhEZJJcNzNR2ZVBESsmg5CQ3YpuQ8WZc"], "asm": "OP_HASH160 38ad2ff95e710b73c7d38f4e1008b5baa5f121fa OP_EQUAL", "type": "scripthash"}, "value": 0.03911971, "n": 0}, {"scriptPubKey": {"reqSigs": 1, "hex": "a914f3342a3478480b7fad2616dfcbd15f6d96d755a087", "addresses": ["3PrxcdtNXR8aJ86dw2MpQzB7sWVRLksx4p"], "asm": "OP_HASH160 f3342a3478480b7fad2616dfcbd15f6d96d755a0 OP_EQUAL", "type": "scripthash"}, "value": 0.01541322, "n": 1}, {"scriptPubKey": {"reqSigs": 1, "hex": "76a9147b4b5b9aaa0e7f8ed224cf7e57330817a49637ef88ac", "addresses": ["1CEvPYqR5RPH8cptY4gHCKmQAwEHdCmehM"], "asm": "OP_DUP OP_HASH160 7b4b5b9aaa0e7f8ed224cf7e57330817a49637ef OP_EQUALVERIFY OP_CHECKSIG", "type": "pubkeyhash"}, "value": 0.00015841, "n": 2}], "hex": "010000000293a2387f2b32210d910a0466b7eeb8048f76b712ce2977c203aa8b29e31e8a8d00000000da0047304402202a9c8bbce1f812464deb21c2cd70d71da8e1f4a0c2733a6787cad23e07bb3cb7022024015af303dc6c76f5d201fd8446c6a20e78c55c58a687b7305fa64cd06069c101483045022100f2727e578650f2a2907457f9f7205bee3e67093428aa6b1091467f0e5d08616d02200a346ba961d1c80d8b0a99a59ce52ece95e7f4e7982b1f3226e56ab19fe1ed220147522102907a54bed8ad74b3f35638c60114ca240a308cb986f3f2f306178869a8880b612103c349d1abcfe5a3353704e26a7b53bc8cc7dc3785e502c5ac8c591e35b9dd557152aeffffffff130cf13ef286243fe9b827adb545e13b73dadc72acaf0b78d71c2497120f6172010000006a473044022026723c70a6bdb636c83650cfccbb20bfffafc8c9a14d840b2bb810ac62cc57a4022041eaf309b15206759893ac1bb427c7e9341777248b4ba772418d0510ce59c1ce0121033351b2e67840612fee95d3cec07d877be398fcf77122f8f51adc90dec300edc6ffffffff0323b13b000000000017a91438ad2ff95e710b73c7d38f4e1008b5baa5f121fa87ca8417000000000017a914f3342a3478480b7fad2616dfcbd15f6d96d755a087e13d0000000000001976a9147b4b5b9aaa0e7f8ed224cf7e57330817a49637ef88ac00000000", "vin": [{"sequence": 4294967295, "scriptSig": {"hex": "0047304402202a9c8bbce1f812464deb21c2cd70d71da8e1f4a0c2733a6787cad23e07bb3cb7022024015af303dc6c76f5d201fd8446c6a20e78c55c58a687b7305fa64cd06069c101483045022100f2727e578650f2a2907457f9f7205bee3e67093428aa6b1091467f0e5d08616d02200a346ba961d1c80d8b0a99a59ce52ece95e7f4e7982b1f3226e56ab19fe1ed220147522102907a54bed8ad74b3f35638c60114ca240a308cb986f3f2f306178869a8880b612103c349d1abcfe5a3353704e26a7b53bc8cc7dc3785e502c5ac8c591e35b9dd557152ae", "asm": "0 304402202a9c8bbce1f812464deb21c2cd70d71da8e1f4a0c2733a6787cad23e07bb3cb7022024015af303dc6c76f5d201fd8446c6a20e78c55c58a687b7305fa64cd06069c1[ALL] 3045022100f2727e578650f2a2907457f9f7205bee3e67093428aa6b1091467f0e5d08616d02200a346ba961d1c80d8b0a99a59ce52ece95e7f4e7982b1f3226e56ab19fe1ed22[ALL] 522102907a54bed8ad74b3f35638c60114ca240a308cb986f3f2f306178869a8880b612103c349d1abcfe5a3353704e26a7b53bc8cc7dc3785e502c5ac8c591e35b9dd557152ae"}, "vout": 0, "txid": "8d8a1ee3298baa03c27729ce12b7768f04b8eeb766040a910d21322b7f38a293"}, {"sequence": 4294967295, "scriptSig": {"hex": "473044022026723c70a6bdb636c83650cfccbb20bfffafc8c9a14d840b2bb810ac62cc57a4022041eaf309b15206759893ac1bb427c7e9341777248b4ba772418d0510ce59c1ce0121033351b2e67840612fee95d3cec07d877be398fcf77122f8f51adc90dec300edc6", "asm": "3044022026723c70a6bdb636c83650cfccbb20bfffafc8c9a14d840b2bb810ac62cc57a4022041eaf309b15206759893ac1bb427c7e9341777248b4ba772418d0510ce59c1ce[ALL] 033351b2e67840612fee95d3cec07d877be398fcf77122f8f51adc90dec300edc6"}, "vout": 1, "txid": "72610f1297241cd7780bafac72dcda733be145b5ad27b8e93f2486f23ef10c13"}], "txid": "423b3c2d1163699f1e573a75aaf5d7ff74bc6cf651156f80b4912f1cee88c1f2", "blocktime": 1537874412, "version": 1, "confirmations": 11467, "time": 1537874412, "locktime": 0, "vsize": 514, "size": 514}