{"hash": "423b08e205a47364ec90231ea3b2c37cca4adc4cc0b363504903de2eeee81abd", "blockhash": "0000000000000000000baef3f32e3676a92c3b2e5da21b426e4f302fc371ce76", "vout": [{"scriptPubKey": {"reqSigs": 1, "hex": "76a9140f6fc818575317cf4c65a4e0850b861d4c146cc088ac", "addresses": ["12Qd3bqfL8eFArwrn4KFT9jYkTvUbJyWjp"], "asm": "OP_DUP OP_HASH160 0f6fc818575317cf4c65a4e0850b861d4c146cc0 OP_EQUALVERIFY OP_CHECKSIG", "type": "pubkeyhash"}, "value": 0.00378, "n": 0}, {"scriptPubKey": {"reqSigs": 1, "hex": "76a914bf3da1b1fdcf54f89a4b826088ce0168514e075188ac", "addresses": ["1JSBtt2d1wCTUL5PGSVrbUntsTXWC7DtCq"], "asm": "OP_DUP OP_HASH160 bf3da1b1fdcf54f89a4b826088ce0168514e0751 OP_EQUALVERIFY OP_CHECKSIG", "type": "pubkeyhash"}, "value": 0.07432835, "n": 1}], "hex": "0100000001a517230ad3af0437d06d0eac687cc6f9d9af87ec8ef5f4f3a225cf62f5975400010000006a47304402206d44f106a1b907db13bea580353dbd727db12cbc43123ac339c8593bcbadbd4c022036a6cce123c0af8ae4a9f82b13aad0540ff28cbeec37326e3f15b59e30b127a001210294def469a1d1f48a6581507e9b2aa8e327f9f68f5a3fa612ae7fb7e761600fe0ffffffff0290c40500000000001976a9140f6fc818575317cf4c65a4e0850b861d4c146cc088ac836a7100000000001976a914bf3da1b1fdcf54f89a4b826088ce0168514e075188ac00000000", "vin": [{"sequence": 4294967295, "scriptSig": {"hex": "47304402206d44f106a1b907db13bea580353dbd727db12cbc43123ac339c8593bcbadbd4c022036a6cce123c0af8ae4a9f82b13aad0540ff28cbeec37326e3f15b59e30b127a001210294def469a1d1f48a6581507e9b2aa8e327f9f68f5a3fa612ae7fb7e761600fe0", "asm": "304402206d44f106a1b907db13bea580353dbd727db12cbc43123ac339c8593bcbadbd4c022036a6cce123c0af8ae4a9f82b13aad0540ff28cbeec37326e3f15b59e30b127a0[ALL] 0294def469a1d1f48a6581507e9b2aa8e327f9f68f5a3fa612ae7fb7e761600fe0"}, "vout": 1, "txid": "005497f562cf25a2f3f4f58eec87afd9f9c67c68ac0e6dd03704afd30a2317a5"}], "txid": "423b08e205a47364ec90231ea3b2c37cca4adc4cc0b363504903de2eeee81abd", "blocktime": 1537876114, "version": 1, "confirmations": 11460, "time": 1537876114, "locktime": 0, "vsize": 225, "size": 225}