{"hash": "423e4a469e6bba9a78ad915e9a466ca698fe3b13c518ae552c0174f9a8b8dda8", "blockhash": "00000000000000000017f5eb5941039fbcee6240d03bc1f2f8e35350df66a1d8", "vout": [{"scriptPubKey": {"reqSigs": 1, "hex": "a914f82595430d3d19de0281af317ba236531e80f3ac87", "addresses": ["3QK6XS8YuCwbHCpsiMdVireUiUKgNzUDWe"], "asm": "OP_HASH160 f82595430d3d19de0281af317ba236531e80f3ac OP_EQUAL", "type": "scripthash"}, "value": 0.00200811, "n": 0}, {"scriptPubKey": {"reqSigs": 1, "hex": "0014e9fe4426fa5179623e75e214715156ad96d44378", "addresses": ["bc1qa8lygfh629uky0n4ug28z52k4ktdgsmc8768mk"], "asm": "0 e9fe4426fa5179623e75e214715156ad96d44378", "type": "witness_v0_keyhash"}, "value": 0.00010161, "n": 1}], "hex": "0100000001c13c83bcc3caff127d10030d95e98053a99ff81984d208715be68eca5949a15d250000006a47304402200219b7e8b75a24bcbde0ed0001c2439b8c31c2eb273cb1f4222fba3f4e7a5b7702203646a509dd5df314c207a5a639b9fef517029db2b9da40f6d0c77d9924bfc75d012103b4364943ed227b4a7807aa0ddc5d18d217f721f32dd1e4e127d36804ef0efa21ffffffff026b1003000000000017a914f82595430d3d19de0281af317ba236531e80f3ac87b127000000000000160014e9fe4426fa5179623e75e214715156ad96d4437800000000", "vin": [{"sequence": 4294967295, "scriptSig": {"hex": "47304402200219b7e8b75a24bcbde0ed0001c2439b8c31c2eb273cb1f4222fba3f4e7a5b7702203646a509dd5df314c207a5a639b9fef517029db2b9da40f6d0c77d9924bfc75d012103b4364943ed227b4a7807aa0ddc5d18d217f721f32dd1e4e127d36804ef0efa21", "asm": "304402200219b7e8b75a24bcbde0ed0001c2439b8c31c2eb273cb1f4222fba3f4e7a5b7702203646a509dd5df314c207a5a639b9fef517029db2b9da40f6d0c77d9924bfc75d[ALL] 03b4364943ed227b4a7807aa0ddc5d18d217f721f32dd1e4e127d36804ef0efa21"}, "vout": 37, "txid": "5da14959ca8ee65b7108d28419f89fa95380e9950d03107d12ffcac3bc833cc1"}], "txid": "423e4a469e6bba9a78ad915e9a466ca698fe3b13c518ae552c0174f9a8b8dda8", "blocktime": 1537874412, "version": 1, "confirmations": 11467, "time": 1537874412, "locktime": 0, "vsize": 220, "size": 220}