{"hash": "21de2a740e6f33b8c3852307c7614c0ac7e1210932ff6b0e3ad81f9740b2412e", "blockhash": "0000000000000000000baef3f32e3676a92c3b2e5da21b426e4f302fc371ce76", "vout": [{"scriptPubKey": {"reqSigs": 1, "hex": "a91480994529997505b249a8878835fb9b9d0393b68987", "addresses": ["3DQz2ViPSZ6jM5ayuEpQFqx8r1iW2gCWUF"], "asm": "OP_HASH160 80994529997505b249a8878835fb9b9d0393b689 OP_EQUAL", "type": "scripthash"}, "value": 0.04837524, "n": 0}, {"scriptPubKey": {"reqSigs": 1, "hex": "a91484d569c5a07ebc70e51d214c955c2ece021a28ff87", "addresses": ["3DoNn5A9bbYFgB7vBUcmfskLrxutS4H9RT"], "asm": "OP_HASH160 84d569c5a07ebc70e51d214c955c2ece021a28ff OP_EQUAL", "type": "scripthash"}, "value": 0.00325569, "n": 1}], "hex": "020000000001042ff522b60242a772e07f99c904a9ddb2ce46660b6e733aa0bd151bf5fbc992f300000000171600144c0b0b6cec434a38cef6711432cc491cfb234b41ffffffffec43c936a1f3ae91ae4d453f88431361722bbfeb719c56dfd8a97682c19ada3b01000000171600140f4c30a9092f076b3577e3ee7cfbcbec48f6d3f0ffffffffb9eb16d817ec45506ea01e2d033694a26a6784bd1eae37a0804f4041f2d8530b0100000017160014672e8ea12a45c78eec295aedf5b5500fe4225c29ffffffffca52c45d4f8ee629d4a645ae2246e2669dadd1a2027e04442ab903489c82c40a0100000017160014797c5e3458a29b2e249701fc0efdc2a9a4994aecffffffff0294d049000000000017a91480994529997505b249a8878835fb9b9d0393b68987c1f704000000000017a91484d569c5a07ebc70e51d214c955c2ece021a28ff8702483045022100ac382cf77e0e0ec89e520ee856fcc034a1dfa67a20ecaada29b6d2497a9a8fbe02204e52067cc407e5bde215ae9a4e9b078cc0dc4d5daa11f75fd478cc547757292501210297d946699daa8de210bd092037a9747b645bbe804a580c2440676bd7893f308002483045022100c441c014d5d5af8e89ee150e9269aeb09de976eb06cc77b91586118321816b0b022029f91dfb9c908e9cd6af03a2fb400e09b4e4a41ab2e03aaf65d7c6aec24162f4012103609e691ade49cedc93310b76d1b6bd9efef657debeb7a89cf7a3fc0cd6424d1502483045022100df773bf8d6df6d4e1e052be6b5a482453f7e504077f084b89b48190862cca847022065be79958c05eec6d05dd954b06906e2ecea130c245e7c88cdfa6868e664e86c01210273b1ac7a28cdb1d8ab5450820382cdf60522edd759795609d50444ace3a66c2802483045022100a4603a27bc69cde7875bc329798ad1a2c77e04bc24e5e9a5f013d9b942e2f499022012bc202c8669b5dc9563f610a0fb58e1b15bc21fc108cc0229cb9902ab075e46012103285f09928598241d2592ab04f64737051d2050557ed5a65d59255ec51cfb9ca200000000", "vin": [{"txinwitness": ["3045022100ac382cf77e0e0ec89e520ee856fcc034a1dfa67a20ecaada29b6d2497a9a8fbe02204e52067cc407e5bde215ae9a4e9b078cc0dc4d5daa11f75fd478cc547757292501", "0297d946699daa8de210bd092037a9747b645bbe804a580c2440676bd7893f3080"], "sequence": 4294967295, "scriptSig": {"hex": "1600144c0b0b6cec434a38cef6711432cc491cfb234b41", "asm": "00144c0b0b6cec434a38cef6711432cc491cfb234b41"}, "vout": 0, "txid": "f392c9fbf51b15bda03a736e0b6646ceb2dda904c9997fe072a74202b622f52f"}, {"txinwitness": ["3045022100c441c014d5d5af8e89ee150e9269aeb09de976eb06cc77b91586118321816b0b022029f91dfb9c908e9cd6af03a2fb400e09b4e4a41ab2e03aaf65d7c6aec24162f401", "03609e691ade49cedc93310b76d1b6bd9efef657debeb7a89cf7a3fc0cd6424d15"], "sequence": 4294967295, "scriptSig": {"hex": "1600140f4c30a9092f076b3577e3ee7cfbcbec48f6d3f0", "asm": "00140f4c30a9092f076b3577e3ee7cfbcbec48f6d3f0"}, "vout": 1, "txid": "3bda9ac18276a9d8df569c71ebbf2b72611343883f454dae91aef3a136c943ec"}, {"txinwitness": ["3045022100df773bf8d6df6d4e1e052be6b5a482453f7e504077f084b89b48190862cca847022065be79958c05eec6d05dd954b06906e2ecea130c245e7c88cdfa6868e664e86c01", "0273b1ac7a28cdb1d8ab5450820382cdf60522edd759795609d50444ace3a66c28"], "sequence": 4294967295, "scriptSig": {"hex": "160014672e8ea12a45c78eec295aedf5b5500fe4225c29", "asm": "0014672e8ea12a45c78eec295aedf5b5500fe4225c29"}, "vout": 1, "txid": "0b53d8f241404f80a037ae1ebd84676aa29436032d1ea06e5045ec17d816ebb9"}, {"txinwitness": ["3045022100a4603a27bc69cde7875bc329798ad1a2c77e04bc24e5e9a5f013d9b942e2f499022012bc202c8669b5dc9563f610a0fb58e1b15bc21fc108cc0229cb9902ab075e4601", "03285f09928598241d2592ab04f64737051d2050557ed5a65d59255ec51cfb9ca2"], "sequence": 4294967295, "scriptSig": {"hex": "160014797c5e3458a29b2e249701fc0efdc2a9a4994aec", "asm": "0014797c5e3458a29b2e249701fc0efdc2a9a4994aec"}, "vout": 1, "txid": "0ac4829c4803b92a44047e02a2d1ad9d66e24622ae45a6d429e68e4f5dc452ca"}], "txid": "423f7ca0babae822b1583178c4e3f41be913daa689298d557b0fedc61e3f828e", "blocktime": 1537876114, "version": 2, "confirmations": 11459, "time": 1537876114, "locktime": 0, "vsize": 439, "size": 764}