{"hash": "424357ef5a4376c416ab9edaac56f47540059166328655d6c2bb3635f6402038", "blockhash": "00000000000000000004ffacab907a6b429b9a5745fa0b75af4234bf69dd7176", "vout": [{"scriptPubKey": {"reqSigs": 1, "hex": "76a914c1d6decc6a3da455e8351b3f7253d5793c6e1f6288ac", "addresses": ["1JfvpUVDnL332Qpg41TwdKwq3FdmLmbxwT"], "asm": "OP_DUP OP_HASH160 c1d6decc6a3da455e8351b3f7253d5793c6e1f62 OP_EQUALVERIFY OP_CHECKSIG", "type": "pubkeyhash"}, "value": 4.09250535, "n": 0}, {"scriptPubKey": {"reqSigs": 1, "hex": "76a9142934d8f9f6a510c61c753593a49424ab7965977388ac", "addresses": ["14kt1n8nbG9L9yerZoEMdKV4GRjM99j7hX"], "asm": "OP_DUP OP_HASH160 2934d8f9f6a510c61c753593a49424ab79659773 OP_EQUALVERIFY OP_CHECKSIG", "type": "pubkeyhash"}, "value": 0.00339921, "n": 1}], "hex": "01000000014606d40c577eff96902b2e35a788b984815ea4734f5873459ca7edeafb40494d010000006a473044022014f0917115fa8bcff208bb9fb104d113b2e8fd8500a3523c58ea4965deea321002207ea3766906d3d100a093ddc5b8c9566f163d1fb5142d4945894de203fa0b721e012103c9cadd122ca544a2d438e47478d094411a9af43d72d9dc3ce94428d50ed82c65ffffffff02e7aa6418000000001976a914c1d6decc6a3da455e8351b3f7253d5793c6e1f6288acd12f0500000000001976a9142934d8f9f6a510c61c753593a49424ab7965977388ac00000000", "vin": [{"sequence": 4294967295, "scriptSig": {"hex": "473044022014f0917115fa8bcff208bb9fb104d113b2e8fd8500a3523c58ea4965deea321002207ea3766906d3d100a093ddc5b8c9566f163d1fb5142d4945894de203fa0b721e012103c9cadd122ca544a2d438e47478d094411a9af43d72d9dc3ce94428d50ed82c65", "asm": "3044022014f0917115fa8bcff208bb9fb104d113b2e8fd8500a3523c58ea4965deea321002207ea3766906d3d100a093ddc5b8c9566f163d1fb5142d4945894de203fa0b721e[ALL] 03c9cadd122ca544a2d438e47478d094411a9af43d72d9dc3ce94428d50ed82c65"}, "vout": 1, "txid": "4d4940fbeaeda79c4573584f73a45e8184b988a7352e2b9096ff7e570cd40646"}], "txid": "424357ef5a4376c416ab9edaac56f47540059166328655d6c2bb3635f6402038", "blocktime": 1537875543, "version": 1, "confirmations": 11464, "time": 1537875543, "locktime": 0, "vsize": 225, "size": 225}