{"hash": "a9fe7a9d5417d61b812ee1eb8c159e4624aafac1e99202e4bf2d4d86fb2f9742", "blockhash": "0000000000000000001e0dab787dd257d1dbfcb92a98c2207d5e1078be1f4165", "vout": [{"scriptPubKey": {"reqSigs": 1, "hex": "a914027b0cde89f44ff9ffbbd59cece7785cbec8958787", "addresses": ["31v8gcLesPNiv7NUPjSbL5jCK4E3McHVRm"], "asm": "OP_HASH160 027b0cde89f44ff9ffbbd59cece7785cbec89587 OP_EQUAL", "type": "scripthash"}, "value": 0.01486165, "n": 0}, {"scriptPubKey": {"reqSigs": 1, "hex": "a914872415b55c16bbdd7164dab5c8f57800fd141ada87", "addresses": ["3E1aNf389FPEsU44BYgUaE7FJ5RHVfJ8w5"], "asm": "OP_HASH160 872415b55c16bbdd7164dab5c8f57800fd141ada OP_EQUAL", "type": "scripthash"}, "value": 0.008, "n": 1}], "hex": "01000000000101aadb77e7f5e4b4aef445907f1e7db710fb27ffd5b12ac1417cc7835c2273d8fb01000000232200206ef9d1739b2e9b3c7f8c308efb0f7695236c8d64511d0f7014a326de03dcdfb3ffffffff0255ad16000000000017a914027b0cde89f44ff9ffbbd59cece7785cbec895878700350c000000000017a914872415b55c16bbdd7164dab5c8f57800fd141ada87040047304402200093842534e96ef11fe3becce9259b79294403ef17ccd44449e12ddf0d9dbeab02202260daf0902d91b5768dc3fdbe72d1375cbdc676a75ab3dfd2e38e78a746fe0001483045022100ed6af3bfdbb78ebe0ae6636c4bf0622b6a28e3b142643faef80df96ed31e7f8f022028ba6c79047e0555b5e24b96f436ea6134c17758f56deb296c49391cbf40a396016952210217a39d5ba11fd71d6bd53fc9e1ac4caf4aa362f2cf83e1377346042d1b7affce210316fdc0dc49fa9112894ac02a8a56a2fd9d59bece00dea7f944e024c9e16800aa2103a3d19417591c092e9f5e141d5547bfb3f4a34406248e69506d0eb884f830611653ae13490800", "vin": [{"txinwitness": ["", "304402200093842534e96ef11fe3becce9259b79294403ef17ccd44449e12ddf0d9dbeab02202260daf0902d91b5768dc3fdbe72d1375cbdc676a75ab3dfd2e38e78a746fe0001", "3045022100ed6af3bfdbb78ebe0ae6636c4bf0622b6a28e3b142643faef80df96ed31e7f8f022028ba6c79047e0555b5e24b96f436ea6134c17758f56deb296c49391cbf40a39601", "52210217a39d5ba11fd71d6bd53fc9e1ac4caf4aa362f2cf83e1377346042d1b7affce210316fdc0dc49fa9112894ac02a8a56a2fd9d59bece00dea7f944e024c9e16800aa2103a3d19417591c092e9f5e141d5547bfb3f4a34406248e69506d0eb884f830611653ae"], "sequence": 4294967295, "scriptSig": {"hex": "2200206ef9d1739b2e9b3c7f8c308efb0f7695236c8d64511d0f7014a326de03dcdfb3", "asm": "00206ef9d1739b2e9b3c7f8c308efb0f7695236c8d64511d0f7014a326de03dcdfb3"}, "vout": 1, "txid": "fbd873225c83c77c41c12ab1d5ff27fb10b77d1e7f9045f4aeb4e4f5e777dbaa"}], "txid": "42441bdf144a0bc364dee52bee08e469f81d03780c988984850634c103b67556", "blocktime": 1537872475, "version": 1, "confirmations": 11486, "time": 1537872475, "locktime": 542995, "vsize": 214, "size": 405}