{"hash": "f3708ef52b222a550e32ea13f2c12e12916cfa0042dd52add68b07d84215ae3b", "blockhash": "0000000000000000000e13cef7c366c0283d82e591d1acd082e914b08063cdf1", "vout": [{"scriptPubKey": {"reqSigs": 1, "hex": "76a91483c8291b07601dd08dd9990133211f7a1db9b4f088ac", "addresses": ["1D1oJXjckXWyycaWVtcPnf8WUsL3CTX3Z8"], "asm": "OP_DUP OP_HASH160 83c8291b07601dd08dd9990133211f7a1db9b4f0 OP_EQUALVERIFY OP_CHECKSIG", "type": "pubkeyhash"}, "value": 0.00013504, "n": 0}, {"scriptPubKey": {"reqSigs": 1, "hex": "a914414cec0fc72a9410f6836edaf08de1aa3b2a321c87", "addresses": ["37eHzewnAFRR2SVZu8rZM3nBsmuE2XBU7D"], "asm": "OP_HASH160 414cec0fc72a9410f6836edaf08de1aa3b2a321c OP_EQUAL", "type": "scripthash"}, "value": 0.26432996, "n": 1}], "hex": "01000000000101ac5755505b6078fc3e382b2eb5a69d97c96e625602e84cc09d4e592dbe2899f00100000023220020ce74cde37cfb8dd71d0179287e12fc721ee236ce3c89c2745bcd365b39807eb3ffffffff02c0340000000000001976a91483c8291b07601dd08dd9990133211f7a1db9b4f088ace45593010000000017a914414cec0fc72a9410f6836edaf08de1aa3b2a321c87040047304402204a85bf6a8ba0957eebcb72393007df4cfa5929274a811dc52d46979f35c182dc0220543ecac8b288fae7df0e47047fe8f20c1538b3621b7b30808d43548abb2951de01483045022100ad4fed8f337b17e8f56a427bd48ef64db46462920a9e5c0bd2f38101197952d2022030df6ba641df8a183f64114947a454e4c9e1993d146f992eb92b75b371237c990147522103ada901d90d5a76319a60f228e0b1bbc84b1d9a87238550bae5d5d190067b66712103871fc2ca08e6950b38867e8e6a0e94ee625223d3aa0df5c65f414c6d784467e252ae00000000", "vin": [{"txinwitness": ["", "304402204a85bf6a8ba0957eebcb72393007df4cfa5929274a811dc52d46979f35c182dc0220543ecac8b288fae7df0e47047fe8f20c1538b3621b7b30808d43548abb2951de01", "3045022100ad4fed8f337b17e8f56a427bd48ef64db46462920a9e5c0bd2f38101197952d2022030df6ba641df8a183f64114947a454e4c9e1993d146f992eb92b75b371237c9901", "522103ada901d90d5a76319a60f228e0b1bbc84b1d9a87238550bae5d5d190067b66712103871fc2ca08e6950b38867e8e6a0e94ee625223d3aa0df5c65f414c6d784467e252ae"], "sequence": 4294967295, "scriptSig": {"hex": "220020ce74cde37cfb8dd71d0179287e12fc721ee236ce3c89c2745bcd365b39807eb3", "asm": "0020ce74cde37cfb8dd71d0179287e12fc721ee236ce3c89c2745bcd365b39807eb3"}, "vout": 1, "txid": "f09928be2d594e9dc04ce80256626ec9979da6b52e2b383efc78605b505557ac"}], "txid": "4246e2e97886fb6249129eb7e39f8e55b5d2ea0fd6999a47bec6171fc6d84b4b", "blocktime": 1537871767, "version": 1, "confirmations": 11495, "time": 1537871767, "locktime": 0, "vsize": 208, "size": 373}