{"hash": "425686615c0457f76770c78baddf7929c69693f5e4247c9c16ffe425ea71ba30", "blockhash": "00000000000000000004ffacab907a6b429b9a5745fa0b75af4234bf69dd7176", "vout": [{"scriptPubKey": {"reqSigs": 1, "hex": "76a914013f2b3a42435f48ff157b28b55bf5b9fbf928d988ac", "addresses": ["17bMEykoQLGrToQ7zF9uSoDepjeamkXrs"], "asm": "OP_DUP OP_HASH160 013f2b3a42435f48ff157b28b55bf5b9fbf928d9 OP_EQUALVERIFY OP_CHECKSIG", "type": "pubkeyhash"}, "value": 0.00579342, "n": 0}], "hex": "0100000004b55c1f4204ca2e51908b0b3aba2d3dbf7cd22029bee243f7ba408e6211e9cd37010000006b4830450221008874eb7725f79ae31982ce0a9a4a8dd61164b00db517030bb3bf15db63de667d022054a2c10ad3c356f7841d34c93842e5637ce4e98950f3247fd296bfbb7ee4728901210220722491a98a3219c2c97ffee3cb04d3025831074ebd026f8ca15af8c67c72a3fffffffff372e7b9dc5ff52134d72c87b67bde03d14a8c2c0f72d6e2938eeba571306e7d000000006b483045022100cbd2a521c8bc98b86062703740a417cd760ffd26e46e0bb46d9cf0bcfe3a3580022061c12eaa0655a101f1811050d9e219196d6bba9bf085a4ed8253c65a41aa5e6201210396a2993c01062633bda97db4e3293ff405b3c91cfa479f6a597bf297d477386effffffffc35e6be4adab1bda09d25e2d10ffcd56f0083adb67a132d65e2ac49f85a49339010000006b483045022100f9a5ac43fb5f8ae4e0941bb755c2b1b0fbc5c6c055b3110825cb6fed43065f4d02203965c3119ea73a84f4c327a70c0fd616031bca135b64589750a1ab2f0b93f2a6012102d2691a6325b65b30d93752bbe4ca7d1dd063879721fbfec3669cc41d7e307f80ffffffffa2919a7c7840b0e83fa31171aa9657b012b6f1ebe7ab5f900010c67577141804010000006b48304502210083dbd97f7ac2ddfbdd691acc371802288ebdfff363919772ecdc8dcd9c7e2722022054e7568a8e7f24e99fcef74d9948183360f79f4e3929de8e9449e511164b1e7a0121035a23f8141a832641f4a4e590a68657d192542df629695808c5eb5a76658de668ffffffff010ed70800000000001976a914013f2b3a42435f48ff157b28b55bf5b9fbf928d988ac00000000", "vin": [{"sequence": 4294967295, "scriptSig": {"hex": "4830450221008874eb7725f79ae31982ce0a9a4a8dd61164b00db517030bb3bf15db63de667d022054a2c10ad3c356f7841d34c93842e5637ce4e98950f3247fd296bfbb7ee4728901210220722491a98a3219c2c97ffee3cb04d3025831074ebd026f8ca15af8c67c72a3", "asm": "30450221008874eb7725f79ae31982ce0a9a4a8dd61164b00db517030bb3bf15db63de667d022054a2c10ad3c356f7841d34c93842e5637ce4e98950f3247fd296bfbb7ee47289[ALL] 0220722491a98a3219c2c97ffee3cb04d3025831074ebd026f8ca15af8c67c72a3"}, "vout": 1, "txid": "37cde911628e40baf743e2be2920d27cbf3d2dba3a0b8b90512eca04421f5cb5"}, {"sequence": 4294967295, "scriptSig": {"hex": "483045022100cbd2a521c8bc98b86062703740a417cd760ffd26e46e0bb46d9cf0bcfe3a3580022061c12eaa0655a101f1811050d9e219196d6bba9bf085a4ed8253c65a41aa5e6201210396a2993c01062633bda97db4e3293ff405b3c91cfa479f6a597bf297d477386e", "asm": "3045022100cbd2a521c8bc98b86062703740a417cd760ffd26e46e0bb46d9cf0bcfe3a3580022061c12eaa0655a101f1811050d9e219196d6bba9bf085a4ed8253c65a41aa5e62[ALL] 0396a2993c01062633bda97db4e3293ff405b3c91cfa479f6a597bf297d477386e"}, "vout": 0, "txid": "7d6e3071a5eb8e93e2d6720f2c8c4ad103de7bb6872cd73421f55fdcb9e772f3"}, {"sequence": 4294967295, "scriptSig": {"hex": "483045022100f9a5ac43fb5f8ae4e0941bb755c2b1b0fbc5c6c055b3110825cb6fed43065f4d02203965c3119ea73a84f4c327a70c0fd616031bca135b64589750a1ab2f0b93f2a6012102d2691a6325b65b30d93752bbe4ca7d1dd063879721fbfec3669cc41d7e307f80", "asm": "3045022100f9a5ac43fb5f8ae4e0941bb755c2b1b0fbc5c6c055b3110825cb6fed43065f4d02203965c3119ea73a84f4c327a70c0fd616031bca135b64589750a1ab2f0b93f2a6[ALL] 02d2691a6325b65b30d93752bbe4ca7d1dd063879721fbfec3669cc41d7e307f80"}, "vout": 1, "txid": "3993a4859fc42a5ed632a167db3a08f056cdff102d5ed209da1babade46b5ec3"}, {"sequence": 4294967295, "scriptSig": {"hex": "48304502210083dbd97f7ac2ddfbdd691acc371802288ebdfff363919772ecdc8dcd9c7e2722022054e7568a8e7f24e99fcef74d9948183360f79f4e3929de8e9449e511164b1e7a0121035a23f8141a832641f4a4e590a68657d192542df629695808c5eb5a76658de668", "asm": "304502210083dbd97f7ac2ddfbdd691acc371802288ebdfff363919772ecdc8dcd9c7e2722022054e7568a8e7f24e99fcef74d9948183360f79f4e3929de8e9449e511164b1e7a[ALL] 035a23f8141a832641f4a4e590a68657d192542df629695808c5eb5a76658de668"}, "vout": 1, "txid": "0418147775c61000905fabe7ebf1b612b05796aa7111a33fe8b040787c9a91a2"}], "txid": "425686615c0457f76770c78baddf7929c69693f5e4247c9c16ffe425ea71ba30", "blocktime": 1537875543, "version": 1, "confirmations": 11464, "time": 1537875543, "locktime": 0, "vsize": 636, "size": 636}