{"hash": "4256d4d016b84e489d81b12386fb2bb7cde94481cf1185f41989dba17ab0e8a2", "blockhash": "0000000000000000000e13cef7c366c0283d82e591d1acd082e914b08063cdf1", "vout": [{"scriptPubKey": {"reqSigs": 1, "hex": "a914f3e1db92d3b5265804a5460d705c6a82128691fe87", "addresses": ["3PvYh2Y4gMnNvrjUYr7D2XLDPNcGhKscqv"], "asm": "OP_HASH160 f3e1db92d3b5265804a5460d705c6a82128691fe OP_EQUAL", "type": "scripthash"}, "value": 0.0028456, "n": 0}, {"scriptPubKey": {"reqSigs": 1, "hex": "76a914f63273e6b9b4aab0ead4cb4f628e9cc917c56b5288ac", "addresses": ["1PSmfi4werwJyyG36Q7LafGby5BAR5Zx5x"], "asm": "OP_DUP OP_HASH160 f63273e6b9b4aab0ead4cb4f628e9cc917c56b52 OP_EQUALVERIFY OP_CHECKSIG", "type": "pubkeyhash"}, "value": 0.03122094, "n": 1}], "hex": "0100000001eed9a76b3ec4bce9493d78441f6c2608f887c9398205deafa1f3ae0081563b69010000006a4730440220788ff8bd3f2e1e1279e42c006af28f2793857be7c2291f44395594041d13382a02204e6acf18226967e039303376f4a9201f5247ed96ed79d98b28beaaca9cf5d6880121027f1a65c38f867b0b6d1c8ea8b26692fb414a63434516ca3fd0187dfe1de275edffffffff02905704000000000017a914f3e1db92d3b5265804a5460d705c6a82128691fe87aea32f00000000001976a914f63273e6b9b4aab0ead4cb4f628e9cc917c56b5288ac00000000", "vin": [{"sequence": 4294967295, "scriptSig": {"hex": "4730440220788ff8bd3f2e1e1279e42c006af28f2793857be7c2291f44395594041d13382a02204e6acf18226967e039303376f4a9201f5247ed96ed79d98b28beaaca9cf5d6880121027f1a65c38f867b0b6d1c8ea8b26692fb414a63434516ca3fd0187dfe1de275ed", "asm": "30440220788ff8bd3f2e1e1279e42c006af28f2793857be7c2291f44395594041d13382a02204e6acf18226967e039303376f4a9201f5247ed96ed79d98b28beaaca9cf5d688[ALL] 027f1a65c38f867b0b6d1c8ea8b26692fb414a63434516ca3fd0187dfe1de275ed"}, "vout": 1, "txid": "693b568100aef3a1afde058239c987f808266c1f44783d49e9bcc43e6ba7d9ee"}], "txid": "4256d4d016b84e489d81b12386fb2bb7cde94481cf1185f41989dba17ab0e8a2", "blocktime": 1537871767, "version": 1, "confirmations": 11495, "time": 1537871767, "locktime": 0, "vsize": 223, "size": 223}