{"hash": "425745e174d06ac1e5929c05850103ecb15cda95b87a77a90017a2077dd1e3c9", "blockhash": "0000000000000000001f76057863aec43deb6fa401d9628bb513d65a8098bfab", "vout": [{"scriptPubKey": {"type": "nulldata", "hex": "6a146f6d6e69000000000000001f0000002e90edd000", "asm": "OP_RETURN 6f6d6e69000000000000001f0000002e90edd000"}, "value": 0.0, "n": 0}, {"scriptPubKey": {"reqSigs": 1, "hex": "76a914a25dec4d0011064ef106a983c39c7a540699f22088ac", "addresses": ["1FoWyxwPXuj4C6abqwhjDWdz6D4PZgYRjA"], "asm": "OP_DUP OP_HASH160 a25dec4d0011064ef106a983c39c7a540699f220 OP_EQUALVERIFY OP_CHECKSIG", "type": "pubkeyhash"}, "value": 0.01995204, "n": 1}, {"scriptPubKey": {"reqSigs": 1, "hex": "76a91476661856cab76eda27be02ac5d4c560f12e4471488ac", "addresses": ["1Bo33Kv41dCgxZ1vqiPbFCQ46RZJEJcg6B"], "asm": "OP_DUP OP_HASH160 76661856cab76eda27be02ac5d4c560f12e44714 OP_EQUALVERIFY OP_CHECKSIG", "type": "pubkeyhash"}, "value": 5.46e-06, "n": 2}], "hex": "0100000001a44813c76173a4fe9689194c29809e35be05f1741d9b5e1e9e8bd44070ac1fea820000006a47304402205d615eee545b379a115453078997eaa3d6892d0473cdfc1edbc826c7d4151940022074effa3c9aca9a0707445d5934e251173fc2907195437313bb4e0195e08ed0c5012103da5bac7b36d5aa38f531c6b9601e21bb598a4b6716ebed38b009a55dabde9440feffffff030000000000000000166a146f6d6e69000000000000001f0000002e90edd000c4711e00000000001976a914a25dec4d0011064ef106a983c39c7a540699f22088ac22020000000000001976a91476661856cab76eda27be02ac5d4c560f12e4471488ac14490800", "vin": [{"sequence": 4294967294, "scriptSig": {"hex": "47304402205d615eee545b379a115453078997eaa3d6892d0473cdfc1edbc826c7d4151940022074effa3c9aca9a0707445d5934e251173fc2907195437313bb4e0195e08ed0c5012103da5bac7b36d5aa38f531c6b9601e21bb598a4b6716ebed38b009a55dabde9440", "asm": "304402205d615eee545b379a115453078997eaa3d6892d0473cdfc1edbc826c7d4151940022074effa3c9aca9a0707445d5934e251173fc2907195437313bb4e0195e08ed0c5[ALL] 03da5bac7b36d5aa38f531c6b9601e21bb598a4b6716ebed38b009a55dabde9440"}, "vout": 130, "txid": "ea1fac7040d48b9e1e5e9b1d74f105be359e80294c198996fea47361c71348a4"}], "txid": "425745e174d06ac1e5929c05850103ecb15cda95b87a77a90017a2077dd1e3c9", "blocktime": 1537873891, "version": 1, "confirmations": 11475, "time": 1537873891, "locktime": 542996, "vsize": 256, "size": 256}