{"hash": "425eaab75155ff80d5b98ac35812672d1020b3b6aab13dc3c62776615ec5afd3", "blockhash": "0000000000000000000dcc0f55137456b1a82d3642486a52398922ac4d620174", "vout": [{"scriptPubKey": {"reqSigs": 1, "hex": "a9149a2c804fd1f85e03dca55abce5b9c26228e6aa2587", "addresses": ["3FkDJ5rQW9ZxLhkLt5obAZU4t5bxKB4M7N"], "asm": "OP_HASH160 9a2c804fd1f85e03dca55abce5b9c26228e6aa25 OP_EQUAL", "type": "scripthash"}, "value": 0.000917, "n": 0}, {"scriptPubKey": {"reqSigs": 1, "hex": "76a9142513a207c9397b1c212dab0fe1525f49cf16ab9c88ac", "addresses": ["14P3XDdNJKPLN4ZZyeJG3zop8hTWKxh2w6"], "asm": "OP_DUP OP_HASH160 2513a207c9397b1c212dab0fe1525f49cf16ab9c OP_EQUALVERIFY OP_CHECKSIG", "type": "pubkeyhash"}, "value": 0.00538912, "n": 1}], "hex": "0100000001d1e26e6c474eadddf3a72a711cce5ba93495ff36e61a9b148ed8b4ecea76ef36010000006b483045022100d23aa0243f1aff66edd43471b83ad9ba680d5b890b8683a1596820d2cd92839d022042df98947df2a67356e257d5574fb2d5f0a9c9ea6acb6dc314cf095d2ffaa13001210367099de0dcebe7ce4f8bb26dddac873b5e2bad9b7f05e53836c9682c22bc0fe6ffffffff02346601000000000017a9149a2c804fd1f85e03dca55abce5b9c26228e6aa258720390800000000001976a9142513a207c9397b1c212dab0fe1525f49cf16ab9c88ac00000000", "vin": [{"sequence": 4294967295, "scriptSig": {"hex": "483045022100d23aa0243f1aff66edd43471b83ad9ba680d5b890b8683a1596820d2cd92839d022042df98947df2a67356e257d5574fb2d5f0a9c9ea6acb6dc314cf095d2ffaa13001210367099de0dcebe7ce4f8bb26dddac873b5e2bad9b7f05e53836c9682c22bc0fe6", "asm": "3045022100d23aa0243f1aff66edd43471b83ad9ba680d5b890b8683a1596820d2cd92839d022042df98947df2a67356e257d5574fb2d5f0a9c9ea6acb6dc314cf095d2ffaa130[ALL] 0367099de0dcebe7ce4f8bb26dddac873b5e2bad9b7f05e53836c9682c22bc0fe6"}, "vout": 1, "txid": "36ef76eaecb4d88e149b1ae636ff9534a95bce1c712aa7f3ddad4e476c6ee2d1"}], "txid": "425eaab75155ff80d5b98ac35812672d1020b3b6aab13dc3c62776615ec5afd3", "blocktime": 1537870268, "version": 1, "confirmations": 11518, "time": 1537870268, "locktime": 0, "vsize": 224, "size": 224}