{"hash": "425fbdabf1b903463727ab893ac39532476052b33f30aaab213ae15e3e3bcd1a", "blockhash": "0000000000000000000dcc0f55137456b1a82d3642486a52398922ac4d620174", "vout": [{"scriptPubKey": {"reqSigs": 1, "hex": "76a91494d8a591cd9dce97c9801426dda826cdd7028b8388ac", "addresses": ["1Ea2YGk1Xekxsba1svMAm7jhzn91zBKFQU"], "asm": "OP_DUP OP_HASH160 94d8a591cd9dce97c9801426dda826cdd7028b83 OP_EQUALVERIFY OP_CHECKSIG", "type": "pubkeyhash"}, "value": 7.593, "n": 0}, {"scriptPubKey": {"reqSigs": 1, "hex": "76a914302af90e178271515013c8ca1ee7766b8dc3ace388ac", "addresses": ["15Pgv1tUQk2gT2jf6mYAQo2EAzvArqZvMS"], "asm": "OP_DUP OP_HASH160 302af90e178271515013c8ca1ee7766b8dc3ace3 OP_EQUALVERIFY OP_CHECKSIG", "type": "pubkeyhash"}, "value": 0.71891381, "n": 1}], "hex": "0100000002812538607e887ae53e72d15022835671771de5f75836db03952852f001bcc8e0010000006a4730440220268fb242b50a179fb316327bc4addde7b6c132ab2edc7306f07b9dca03bd956702202d3ca850d1b2ef2d0756ad08a28e1fad0f938fb2a3f7cd1e260bb9fbcf4ed681012102e052ae4840307485e374fcfe2cdb0a53f36c2a37d17015ce1f29682ada7a4e76ffffffff627afb22447bc5715762a36561b5b587be36ccf0e2c6e2ed023e49f1d759bff4000000006b483045022100ddbe83894865b77ce4fa7726075cf9ab348beb11c4f72286cde4acc203592f13022054c74af1d048f0e7d3f12f2a0f79b7973ffd478e8e6e068d18b54688a0de778b0121031f711ae6c0cb2765566c2d1b20cdb26254f7e90c668d2e86178b19af1cff1cfcffffffff02a0ff412d000000001976a91494d8a591cd9dce97c9801426dda826cdd7028b8388acb5f94804000000001976a914302af90e178271515013c8ca1ee7766b8dc3ace388ac00000000", "vin": [{"sequence": 4294967295, "scriptSig": {"hex": "4730440220268fb242b50a179fb316327bc4addde7b6c132ab2edc7306f07b9dca03bd956702202d3ca850d1b2ef2d0756ad08a28e1fad0f938fb2a3f7cd1e260bb9fbcf4ed681012102e052ae4840307485e374fcfe2cdb0a53f36c2a37d17015ce1f29682ada7a4e76", "asm": "30440220268fb242b50a179fb316327bc4addde7b6c132ab2edc7306f07b9dca03bd956702202d3ca850d1b2ef2d0756ad08a28e1fad0f938fb2a3f7cd1e260bb9fbcf4ed681[ALL] 02e052ae4840307485e374fcfe2cdb0a53f36c2a37d17015ce1f29682ada7a4e76"}, "vout": 1, "txid": "e0c8bc01f052289503db3658f7e51d777156832250d1723ee57a887e60382581"}, {"sequence": 4294967295, "scriptSig": {"hex": "483045022100ddbe83894865b77ce4fa7726075cf9ab348beb11c4f72286cde4acc203592f13022054c74af1d048f0e7d3f12f2a0f79b7973ffd478e8e6e068d18b54688a0de778b0121031f711ae6c0cb2765566c2d1b20cdb26254f7e90c668d2e86178b19af1cff1cfc", "asm": "3045022100ddbe83894865b77ce4fa7726075cf9ab348beb11c4f72286cde4acc203592f13022054c74af1d048f0e7d3f12f2a0f79b7973ffd478e8e6e068d18b54688a0de778b[ALL] 031f711ae6c0cb2765566c2d1b20cdb26254f7e90c668d2e86178b19af1cff1cfc"}, "vout": 0, "txid": "f4bf59d7f1493e02ede2c6e2f0cc36be87b5b56165a3625771c57b4422fb7a62"}], "txid": "425fbdabf1b903463727ab893ac39532476052b33f30aaab213ae15e3e3bcd1a", "blocktime": 1537870268, "version": 1, "confirmations": 11516, "time": 1537870268, "locktime": 0, "vsize": 373, "size": 373}