{"hash": "4262447335959e528f2376ed75ff6bb72b58c3b3d52a43bfec40565d848d6d23", "blockhash": "0000000000000000001f76057863aec43deb6fa401d9628bb513d65a8098bfab", "vout": [{"scriptPubKey": {"reqSigs": 1, "hex": "76a914a98420b06d112b3cd0a882ea8b48d00b603d0e9b88ac", "addresses": ["1GTKUp7fqtMkBiFQDU8mzswmmYQdHSLGDk"], "asm": "OP_DUP OP_HASH160 a98420b06d112b3cd0a882ea8b48d00b603d0e9b OP_EQUALVERIFY OP_CHECKSIG", "type": "pubkeyhash"}, "value": 0.05998859, "n": 0}, {"scriptPubKey": {"reqSigs": 1, "hex": "76a914aec7c41575106902817d659e47cf1c34cd6d618288ac", "addresses": ["1Gw9tMti9xWACuaWovitp4PHB9sdqEUwJb"], "asm": "OP_DUP OP_HASH160 aec7c41575106902817d659e47cf1c34cd6d6182 OP_EQUALVERIFY OP_CHECKSIG", "type": "pubkeyhash"}, "value": 0.02, "n": 1}], "hex": "010000000191fc7f3691b5062c5271930bf05a40c72da7b4233251d88ce8ea9a1fae083974000000006b4830450221008d04f267480982db5682978682519d93148ed443fe084478e6ab8e9c685197fb02200f160ce4f88140e7514ddb119384285d674c77418b7590e1cb4704515b132e630121038459d0488c91f44a5679c0d7e90a80a32f6b9ca345775fc38cb9464c71c5b4d6ffffffff020b895b00000000001976a914a98420b06d112b3cd0a882ea8b48d00b603d0e9b88ac80841e00000000001976a914aec7c41575106902817d659e47cf1c34cd6d618288ac00000000", "vin": [{"sequence": 4294967295, "scriptSig": {"hex": "4830450221008d04f267480982db5682978682519d93148ed443fe084478e6ab8e9c685197fb02200f160ce4f88140e7514ddb119384285d674c77418b7590e1cb4704515b132e630121038459d0488c91f44a5679c0d7e90a80a32f6b9ca345775fc38cb9464c71c5b4d6", "asm": "30450221008d04f267480982db5682978682519d93148ed443fe084478e6ab8e9c685197fb02200f160ce4f88140e7514ddb119384285d674c77418b7590e1cb4704515b132e63[ALL] 038459d0488c91f44a5679c0d7e90a80a32f6b9ca345775fc38cb9464c71c5b4d6"}, "vout": 0, "txid": "743908ae1f9aeae88cd8513223b4a72dc7405af00b9371522c06b591367ffc91"}], "txid": "4262447335959e528f2376ed75ff6bb72b58c3b3d52a43bfec40565d848d6d23", "blocktime": 1537873891, "version": 1, "confirmations": 11478, "time": 1537873891, "locktime": 0, "vsize": 226, "size": 226}