{"hash": "4267e5fd614ae35cdfc593fe7f3a2058365e6a0916d37964db71c9e572d7bf39", "blockhash": "00000000000000000004ffacab907a6b429b9a5745fa0b75af4234bf69dd7176", "vout": [{"scriptPubKey": {"reqSigs": 1, "hex": "a9141543c874f7f7af76af27eaafe1edf9e02a14652787", "addresses": ["33dTKDiPTAbv2ay2ufdRTVNwE9oTXnqbWh"], "asm": "OP_HASH160 1543c874f7f7af76af27eaafe1edf9e02a146527 OP_EQUAL", "type": "scripthash"}, "value": 0.00062965, "n": 0}], "hex": "0100000001d29516a183f964036b731a952392eabe107145d1bf88dc6c73a2d23d35868c31000000006a4730440220261dd26dd2c114ea8c8b2d84be31838aece7aa65a67397ffea8fe7cd57ffb594022033bfba964afce971ce482310500ee8ac6a5ff807a36c3aeb537feb120c2dd11701210382d44dab5120faefcda8f0cee1b6c2c6789b3421f8f14ca8d5900cce5a06e7e2ffffffff01f5f500000000000017a9141543c874f7f7af76af27eaafe1edf9e02a1465278700000000", "vin": [{"sequence": 4294967295, "scriptSig": {"hex": "4730440220261dd26dd2c114ea8c8b2d84be31838aece7aa65a67397ffea8fe7cd57ffb594022033bfba964afce971ce482310500ee8ac6a5ff807a36c3aeb537feb120c2dd11701210382d44dab5120faefcda8f0cee1b6c2c6789b3421f8f14ca8d5900cce5a06e7e2", "asm": "30440220261dd26dd2c114ea8c8b2d84be31838aece7aa65a67397ffea8fe7cd57ffb594022033bfba964afce971ce482310500ee8ac6a5ff807a36c3aeb537feb120c2dd117[ALL] 0382d44dab5120faefcda8f0cee1b6c2c6789b3421f8f14ca8d5900cce5a06e7e2"}, "vout": 0, "txid": "318c86353dd2a2736cdc88bfd1457110beea9223951a736b0364f983a11695d2"}], "txid": "4267e5fd614ae35cdfc593fe7f3a2058365e6a0916d37964db71c9e572d7bf39", "blocktime": 1537875543, "version": 1, "confirmations": 11464, "time": 1537875543, "locktime": 0, "vsize": 189, "size": 189}