{"hash": "54d635df5aba29f9a9bb3040b15daa36a350c796147d674d180f1f4e548ccd66", "blockhash": "00000000000000000018f53835495a110e01622372bf6ae95dc86f2b0ab887b0", "vout": [{"scriptPubKey": {"reqSigs": 1, "hex": "76a914f16c19978b095c9333b501c42d4e40721cff477a88ac", "addresses": ["1P1XM9cyf12SnVnyAnTpzdAWTnRo4SJxKJ"], "asm": "OP_DUP OP_HASH160 f16c19978b095c9333b501c42d4e40721cff477a OP_EQUALVERIFY OP_CHECKSIG", "type": "pubkeyhash"}, "value": 0.01449009, "n": 0}, {"scriptPubKey": {"reqSigs": 1, "hex": "76a914f853922ff82956a9337f7e83bae678e396754a4f88ac", "addresses": ["1Pe2hC8asZvJv3bsiZmNnP6WVToajHoqft"], "asm": "OP_DUP OP_HASH160 f853922ff82956a9337f7e83bae678e396754a4f OP_EQUALVERIFY OP_CHECKSIG", "type": "pubkeyhash"}, "value": 0.02593659, "n": 1}, {"scriptPubKey": {"reqSigs": 1, "hex": "76a914d1d0feaa07d2641fbb7bb94442ae69add729cd9088ac", "addresses": ["1L8QbJfcetrKxijgxgVknkKKc8CYMnkpMP"], "asm": "OP_DUP OP_HASH160 d1d0feaa07d2641fbb7bb94442ae69add729cd90 OP_EQUALVERIFY OP_CHECKSIG", "type": "pubkeyhash"}, "value": 0.02653953, "n": 2}, {"scriptPubKey": {"reqSigs": 1, "hex": "76a914c4964e8baa789132bb6676cc8cd91febfc91725088ac", "addresses": ["1JvTW6n5fCzZwEWCpuw91aD7TNeZkoH5Xa"], "asm": "OP_DUP OP_HASH160 c4964e8baa789132bb6676cc8cd91febfc917250 OP_EQUALVERIFY OP_CHECKSIG", "type": "pubkeyhash"}, "value": 0.00270171, "n": 3}, {"scriptPubKey": {"reqSigs": 1, "hex": "76a914dd51370ce2d780e4fa1eaa129cae47f6576a158c88ac", "addresses": ["1MBDdKEpy4iQhhpZqp8qSDieGKKD5uVPGc"], "asm": "OP_DUP OP_HASH160 dd51370ce2d780e4fa1eaa129cae47f6576a158c OP_EQUALVERIFY OP_CHECKSIG", "type": "pubkeyhash"}, "value": 0.00208168, "n": 4}, {"scriptPubKey": {"reqSigs": 1, "hex": "76a9145af22f3084fe82b967796d43ee881dbdb529bcbc88ac", "addresses": ["19HswXakEJ53zhP3in2km3UVwPfb4sLaR9"], "asm": "OP_DUP OP_HASH160 5af22f3084fe82b967796d43ee881dbdb529bcbc OP_EQUALVERIFY OP_CHECKSIG", "type": "pubkeyhash"}, "value": 0.01616774, "n": 5}, {"scriptPubKey": {"reqSigs": 1, "hex": "76a9145a0724f32d36263b788aaf4c5a340207c78e331988ac", "addresses": ["19D2NfPZ1rLY7EWEQbri3DNg5eqCW96Rs2"], "asm": "OP_DUP OP_HASH160 5a0724f32d36263b788aaf4c5a340207c78e3319 OP_EQUALVERIFY OP_CHECKSIG", "type": "pubkeyhash"}, "value": 0.00384232, "n": 6}, {"scriptPubKey": {"reqSigs": 1, "hex": "76a914dfbbff02154ca990471f52d35867347c9c4d91c888ac", "addresses": ["1MPztyivxMVWusgi5ovxcq3toacfhsuAVh"], "asm": "OP_DUP OP_HASH160 dfbbff02154ca990471f52d35867347c9c4d91c8 OP_EQUALVERIFY OP_CHECKSIG", "type": "pubkeyhash"}, "value": 0.00880439, "n": 7}, {"scriptPubKey": {"reqSigs": 1, "hex": "76a9146e298d959d4c6fc9fb5b04fba382ce47372f4b7088ac", "addresses": ["1B3V7G1otm7Ka7326n5e4rozxJDKWvuyC7"], "asm": "OP_DUP OP_HASH160 6e298d959d4c6fc9fb5b04fba382ce47372f4b70 OP_EQUALVERIFY OP_CHECKSIG", "type": "pubkeyhash"}, "value": 0.00890669, "n": 8}, {"scriptPubKey": {"reqSigs": 1, "hex": "a91408347fffd780ca6a3c9e3dc057d6976c96b0ab6287", "addresses": ["32SQDqoLtwsVpaxg2Uvkvc67uUz9GRedRz"], "asm": "OP_HASH160 08347fffd780ca6a3c9e3dc057d6976c96b0ab62 OP_EQUAL", "type": "scripthash"}, "value": 0.00996488, "n": 9}, {"scriptPubKey": {"reqSigs": 1, "hex": "76a914bc080f77d6f7944e596c629c4a8f09562d0f668788ac", "addresses": ["1J9Dh7W3gKf3RsTPmczBiHasr6xhaKhGvW"], "asm": "OP_DUP OP_HASH160 bc080f77d6f7944e596c629c4a8f09562d0f6687 OP_EQUALVERIFY OP_CHECKSIG", "type": "pubkeyhash"}, "value": 0.00626651, "n": 10}, {"scriptPubKey": {"reqSigs": 1, "hex": "76a91488c8f053611a54a3ac8c15741214f3c6684aab6388ac", "addresses": ["1DUFcZTUk6pFQ2UPtMxRXogfBFGPk9LPDs"], "asm": "OP_DUP OP_HASH160 88c8f053611a54a3ac8c15741214f3c6684aab63 OP_EQUALVERIFY OP_CHECKSIG", "type": "pubkeyhash"}, "value": 0.0035393, "n": 11}, {"scriptPubKey": {"reqSigs": 1, "hex": "76a91488fa72c039e2555ff33e5e984320970752467e0e88ac", "addresses": ["1DVGvYDD5r2Nb78Dn3qtwtqURkYVVp63xb"], "asm": "OP_DUP OP_HASH160 88fa72c039e2555ff33e5e984320970752467e0e OP_EQUALVERIFY OP_CHECKSIG", "type": "pubkeyhash"}, "value": 0.00906053, "n": 12}, {"scriptPubKey": {"reqSigs": 1, "hex": "76a9145edb6e8099bef40197466d27e52209e8173eaadf88ac", "addresses": ["19eZPQoVquCWLMMtxSb17ixXpKkdEYVuj6"], "asm": "OP_DUP OP_HASH160 5edb6e8099bef40197466d27e52209e8173eaadf OP_EQUALVERIFY OP_CHECKSIG", "type": "pubkeyhash"}, "value": 0.005028, "n": 13}, {"scriptPubKey": {"reqSigs": 1, "hex": "a914a131e67b5cdf65ae3bb21ec1b15d5463c8745da787", "addresses": ["3GPLVZdjCrw38K2PaBKKHaXmXy1CJa1vBm"], "asm": "OP_HASH160 a131e67b5cdf65ae3bb21ec1b15d5463c8745da7 OP_EQUAL", "type": "scripthash"}, "value": 0.02217599, "n": 14}, {"scriptPubKey": {"reqSigs": 1, "hex": "76a9141adb5cd11da1cbafbce2530eb753d129a9bd8d5f88ac", "addresses": ["13T1MZpasZEqzd8LReWaT976PkKMosni8M"], "asm": "OP_DUP OP_HASH160 1adb5cd11da1cbafbce2530eb753d129a9bd8d5f OP_EQUALVERIFY OP_CHECKSIG", "type": "pubkeyhash"}, "value": 0.02117524, "n": 15}], "hex": "02000000000105078074e926f02bc7cbe08d2292278c9ef91e97e6bb4a243dcffe9ea881664b3c22000000171600147ef24e59507b456e4a1fa32707f6f2420819f33efeffffff078074e926f02bc7cbe08d2292278c9ef91e97e6bb4a243dcffe9ea881664b3c29000000171600140f61a46d2843388ccbfbfc2c203fd3234f3583b6feffffff0f2a6e738a9b1c901c2fe9f7f3c3a81da9e7bc6a3ffd7a3d94c07c74ef374f3e000000001716001482aa13c6e167ca7d079638fb43a3fafd2b0e4278feffffff76fdd689a480b225f7343ed6f7d2895eabb3d217df58144ab40e072e1727783400000000171600147e996f977c17f9bd7710447b4ed8c84d57ea2de6feffffffacfde35c3a8008c17955f9c92d90188cd6cb3285089043e1efdd8ac13449e68a0000000017160014f5a8718357d10735d6c524bbd1ec71872402663ffeffffff10311c1600000000001976a914f16c19978b095c9333b501c42d4e40721cff477a88ac7b932700000000001976a914f853922ff82956a9337f7e83bae678e396754a4f88ac017f2800000000001976a914d1d0feaa07d2641fbb7bb94442ae69add729cd9088ac5b1f0400000000001976a914c4964e8baa789132bb6676cc8cd91febfc91725088ac282d0300000000001976a914dd51370ce2d780e4fa1eaa129cae47f6576a158c88ac86ab1800000000001976a9145af22f3084fe82b967796d43ee881dbdb529bcbc88ace8dc0500000000001976a9145a0724f32d36263b788aaf4c5a340207c78e331988ac376f0d00000000001976a914dfbbff02154ca990471f52d35867347c9c4d91c888ac2d970d00000000001976a9146e298d959d4c6fc9fb5b04fba382ce47372f4b7088ac88340f000000000017a91408347fffd780ca6a3c9e3dc057d6976c96b0ab6287db8f0900000000001976a914bc080f77d6f7944e596c629c4a8f09562d0f668788ac8a660500000000001976a91488c8f053611a54a3ac8c15741214f3c6684aab6388ac45d30d00000000001976a91488fa72c039e2555ff33e5e984320970752467e0e88ac10ac0700000000001976a9145edb6e8099bef40197466d27e52209e8173eaadf88ac7fd621000000000017a914a131e67b5cdf65ae3bb21ec1b15d5463c8745da787944f2000000000001976a9141adb5cd11da1cbafbce2530eb753d129a9bd8d5f88ac02473044022048b9116b9b40bff41c45ff94e2a17828b9d03abdb3240d29695bcd1d7cae1039022042e9cd2ef20778b6541582e3d85224d7f927b488f24ce076cf1163d12881d9a10121024fa1a4b7413392425b78b420ddbb82bfc5ae5e1134d976c1c7dfd2d4fd0e923402473044022045da81cc4b6bd4c681cb062efe0e179cf367b3cc37ca8e0393f65647034537ad022023f326476391a13d6d1fb1d6f8f58164b33814517e9bed78705815b632bde1c2012103429186c071fa2ff1f64eeff11613a789454fde7249a2aa796a0dca5a51ae7f5202483045022100cbc2a71ed5f754a38f1d7d4bd1e2b3c02d4a5438239f774038c8b7d46d1b3d9002201baf853d785d302290b4ac3a83fd3dbcb2ad5398701bf78e19cd1dec95bf3eb2012102b7189e84993766d5cc9cff68b176c10a3b11eaf7f8cfe5f787d7a20cd6ca5f2c0247304402205b7dbc70199183b0da5a0cf3afd18b29f3cf54129d3f4e24c2a09eb6786b7079022046eecc0695f59042b3e83b6fe87e4fc94a827ca90ff638ffc903a8adf362a1d7012103c49a0b17944d334ec0854b23581f73f06d090fc17e0e8d6de3e704a575890e6a02483045022100b2f01d58a79685d6bd07836e487f99aee041869f09b03f63d8ae2245f5b8da2e02205b11a36e255497b42cef161e32794be2dce9ea303296353b8866ab58c9998415012103f4bab93087fd3d3a5721d857970df6c9c7c9395d5439740a1f0317b1bae0fffd0e490800", "vin": [{"txinwitness": ["3044022048b9116b9b40bff41c45ff94e2a17828b9d03abdb3240d29695bcd1d7cae1039022042e9cd2ef20778b6541582e3d85224d7f927b488f24ce076cf1163d12881d9a101", "024fa1a4b7413392425b78b420ddbb82bfc5ae5e1134d976c1c7dfd2d4fd0e9234"], "sequence": 4294967294, "scriptSig": {"hex": "1600147ef24e59507b456e4a1fa32707f6f2420819f33e", "asm": "00147ef24e59507b456e4a1fa32707f6f2420819f33e"}, "vout": 34, "txid": "3c4b6681a89efecf3d244abbe6971ef99e8c2792228de0cbc72bf026e9748007"}, {"txinwitness": ["3044022045da81cc4b6bd4c681cb062efe0e179cf367b3cc37ca8e0393f65647034537ad022023f326476391a13d6d1fb1d6f8f58164b33814517e9bed78705815b632bde1c201", "03429186c071fa2ff1f64eeff11613a789454fde7249a2aa796a0dca5a51ae7f52"], "sequence": 4294967294, "scriptSig": {"hex": "1600140f61a46d2843388ccbfbfc2c203fd3234f3583b6", "asm": "00140f61a46d2843388ccbfbfc2c203fd3234f3583b6"}, "vout": 41, "txid": "3c4b6681a89efecf3d244abbe6971ef99e8c2792228de0cbc72bf026e9748007"}, {"txinwitness": ["3045022100cbc2a71ed5f754a38f1d7d4bd1e2b3c02d4a5438239f774038c8b7d46d1b3d9002201baf853d785d302290b4ac3a83fd3dbcb2ad5398701bf78e19cd1dec95bf3eb201", "02b7189e84993766d5cc9cff68b176c10a3b11eaf7f8cfe5f787d7a20cd6ca5f2c"], "sequence": 4294967294, "scriptSig": {"hex": "16001482aa13c6e167ca7d079638fb43a3fafd2b0e4278", "asm": "001482aa13c6e167ca7d079638fb43a3fafd2b0e4278"}, "vout": 0, "txid": "3e4f37ef747cc0943d7afd3f6abce7a91da8c3f3f7e92f1c901c9b8a736e2a0f"}, {"txinwitness": ["304402205b7dbc70199183b0da5a0cf3afd18b29f3cf54129d3f4e24c2a09eb6786b7079022046eecc0695f59042b3e83b6fe87e4fc94a827ca90ff638ffc903a8adf362a1d701", "03c49a0b17944d334ec0854b23581f73f06d090fc17e0e8d6de3e704a575890e6a"], "sequence": 4294967294, "scriptSig": {"hex": "1600147e996f977c17f9bd7710447b4ed8c84d57ea2de6", "asm": "00147e996f977c17f9bd7710447b4ed8c84d57ea2de6"}, "vout": 0, "txid": "347827172e070eb44a1458df17d2b3ab5e89d2f7d63e34f725b280a489d6fd76"}, {"txinwitness": ["3045022100b2f01d58a79685d6bd07836e487f99aee041869f09b03f63d8ae2245f5b8da2e02205b11a36e255497b42cef161e32794be2dce9ea303296353b8866ab58c999841501", "03f4bab93087fd3d3a5721d857970df6c9c7c9395d5439740a1f0317b1bae0fffd"], "sequence": 4294967294, "scriptSig": {"hex": "160014f5a8718357d10735d6c524bbd1ec71872402663f", "asm": "0014f5a8718357d10735d6c524bbd1ec71872402663f"}, "vout": 0, "txid": "8ae64934c18addefe14390088532cbd68c18902dc9f95579c108803a5ce3fdac"}], "txid": "426b743dfcc242a03939753e3a76ec36e987e0cb44a82e42291e8bb5794d8f0d", "blocktime": 1537870928, "version": 2, "confirmations": 11514, "time": 1537870928, "locktime": 542990, "vsize": 1005, "size": 1409}