{"hash": "dba27769ecb22b82c2d3a2e2e8faaa3c5190d5a91e5e337e0f2b7c33bcde7a77", "blockhash": "00000000000000000024a2167bbff67b0be802c0b01cdd79e6331c2be6459f87", "vout": [{"scriptPubKey": {"reqSigs": 1, "hex": "76a914522a86aa33359f7c06e3dabf28f604bb264d0f1188ac", "addresses": ["18VTMVTy7pvds8EuQk8fkDUv7eyRsdGTte"], "asm": "OP_DUP OP_HASH160 522a86aa33359f7c06e3dabf28f604bb264d0f11 OP_EQUALVERIFY OP_CHECKSIG", "type": "pubkeyhash"}, "value": 0.01145154, "n": 0}, {"scriptPubKey": {"reqSigs": 1, "hex": "a914b48d3d2c7c72897a02ba9440573cdd1c65279bd987", "addresses": ["3J9gkXbAov5BZZzAydCSoixBxA2NyXxL9L"], "asm": "OP_HASH160 b48d3d2c7c72897a02ba9440573cdd1c65279bd9 OP_EQUAL", "type": "scripthash"}, "value": 0.0451953, "n": 1}], "hex": "020000000001012ce6c4dc9847fb6ed7854ceb3bf6e2c10b42d387b45a8498e3b803563a89693f0100000017160014a01d31bf222b4861e04db6bf4f8f3f131b8370e2ffffffff0242791100000000001976a914522a86aa33359f7c06e3dabf28f604bb264d0f1188ac6af644000000000017a914b48d3d2c7c72897a02ba9440573cdd1c65279bd987024730440220230638d6f5c72de5fdc5ed97d4bcc027da2c4cfb166c0bd49fd298288881b6f602202d192d2b372cc7370c3e3668de0ae873c49872769561945c14ca2f727523c6360121026d687a6791b4472689dbe0af7bdc1d3b1d379fe7e2267ccb2e8b3b5c9f67f41b00000000", "vin": [{"txinwitness": ["30440220230638d6f5c72de5fdc5ed97d4bcc027da2c4cfb166c0bd49fd298288881b6f602202d192d2b372cc7370c3e3668de0ae873c49872769561945c14ca2f727523c63601", "026d687a6791b4472689dbe0af7bdc1d3b1d379fe7e2267ccb2e8b3b5c9f67f41b"], "sequence": 4294967295, "scriptSig": {"hex": "160014a01d31bf222b4861e04db6bf4f8f3f131b8370e2", "asm": "0014a01d31bf222b4861e04db6bf4f8f3f131b8370e2"}, "vout": 1, "txid": "3f69893a5603b8e398845ab487d3420bc1e2f63beb4c85d76efb4798dcc4e62c"}], "txid": "426d23ca73c37b2169a814931c5b4a610ce6cb44f9375973f726d86284125632", "blocktime": 1537870564, "version": 2, "confirmations": 11515, "time": 1537870564, "locktime": 0, "vsize": 168, "size": 249}