{"hash": "7d8c9aa242a2aceeb58a05b6b9e6d23c430169017adbbfb0e118938f0057834a", "blockhash": "0000000000000000000e13cef7c366c0283d82e591d1acd082e914b08063cdf1", "vout": [{"scriptPubKey": {"reqSigs": 1, "hex": "a9142f2cb0d3d21bc5b789f9004650ff5724b71f718887", "addresses": ["35zTDj5VMjUeTGE4dMYYv7sH7zbMwoCeTt"], "asm": "OP_HASH160 2f2cb0d3d21bc5b789f9004650ff5724b71f7188 OP_EQUAL", "type": "scripthash"}, "value": 0.00061725, "n": 0}, {"scriptPubKey": {"reqSigs": 1, "hex": "a91408c364340a91e77e4376b26fdad3b5aedc5661f787", "addresses": ["32VMQ7Th4qGhbDYY68FZrfSF9hTbsPivgt"], "asm": "OP_HASH160 08c364340a91e77e4376b26fdad3b5aedc5661f7 OP_EQUAL", "type": "scripthash"}, "value": 0.06569173, "n": 1}], "hex": "01000000000101cda24835a32df580155a7c166057d64b0a3ea678ad59fba2827f8b7cb8b37001010000002322002027561ef61439ff4994ea3793249bbb358319edb59fff63c1eeada48f299e81b5ffffffff021df100000000000017a9142f2cb0d3d21bc5b789f9004650ff5724b71f718887d53c64000000000017a91408c364340a91e77e4376b26fdad3b5aedc5661f787040047304402204b11937bfdb70a360585d291ad864a80aae1f57a9601b7ca9a3a3757ee14722b022058bc1ef38b652820849091f686bf32f3a1bb268783e663e2c2197a4ea103320b0147304402201d8275424304638c9569e6817c112bfb4cfbd8c26c17585827dd865beafcbda702206c84529ed419b303e684c9426c4a98c2cc83cbfdffbbb734d3a47bc42051f7d60147522102f484437eae67e7d1f9cf7235bd52510c99f379408a1f6fe737011d4bc259358a2103871fc2ca08e6950b38867e8e6a0e94ee625223d3aa0df5c65f414c6d784467e252ae00000000", "vin": [{"txinwitness": ["", "304402204b11937bfdb70a360585d291ad864a80aae1f57a9601b7ca9a3a3757ee14722b022058bc1ef38b652820849091f686bf32f3a1bb268783e663e2c2197a4ea103320b01", "304402201d8275424304638c9569e6817c112bfb4cfbd8c26c17585827dd865beafcbda702206c84529ed419b303e684c9426c4a98c2cc83cbfdffbbb734d3a47bc42051f7d601", "522102f484437eae67e7d1f9cf7235bd52510c99f379408a1f6fe737011d4bc259358a2103871fc2ca08e6950b38867e8e6a0e94ee625223d3aa0df5c65f414c6d784467e252ae"], "sequence": 4294967295, "scriptSig": {"hex": "22002027561ef61439ff4994ea3793249bbb358319edb59fff63c1eeada48f299e81b5", "asm": "002027561ef61439ff4994ea3793249bbb358319edb59fff63c1eeada48f299e81b5"}, "vout": 1, "txid": "0170b3b87c8b7f82a2fb59ad78a63e0a4bd65760167c5a1580f52da33548a2cd"}], "txid": "4271369d2c13dba236eb0ce8529ff3b665a3ba6419852c490fdbcab3ba08778f", "blocktime": 1537871767, "version": 1, "confirmations": 11495, "time": 1537871767, "locktime": 0, "vsize": 205, "size": 370}