{"hash": "42732901f73baedfeefebb7e90021d77dff9bb55074977f75d88eda77f03fce1", "blockhash": "00000000000000000018f53835495a110e01622372bf6ae95dc86f2b0ab887b0", "vout": [{"scriptPubKey": {"reqSigs": 1, "hex": "76a914a9b6fe88deac97e69076c296175b58ef2964c8a788ac", "addresses": ["1GUNR5uPRKYVDR4HDRdFpLGosYCgzvqiHx"], "asm": "OP_DUP OP_HASH160 a9b6fe88deac97e69076c296175b58ef2964c8a7 OP_EQUALVERIFY OP_CHECKSIG", "type": "pubkeyhash"}, "value": 0.0224294, "n": 0}, {"scriptPubKey": {"type": "nulldata", "hex": "6a4c500000778200015aa091b580448882568b364dbcbefa6b8351586b4e86aeaeacb577c031fc00b8ec07956fbef6f6fdb23a1c7eddd85baa0b03061403b1747f0a3abc9a9526289ac0f6612cd74e33776ee4", "asm": "OP_RETURN 0000778200015aa091b580448882568b364dbcbefa6b8351586b4e86aeaeacb577c031fc00b8ec07956fbef6f6fdb23a1c7eddd85baa0b03061403b1747f0a3abc9a9526289ac0f6612cd74e33776ee4"}, "value": 0.0, "n": 1}], "hex": "0100000001bc3d216f318d5cc4f921667c2556948bf4ef8e9ff44c07997e0efdc49f3d4a7a010000006a47304402207ca09cb6f3e850eff3f96ba5554b17a8b3497149b1bb3f38feaeb742813f760e02203e35fd68957e644230de9cc73d9e9997bcd9deed958d472a76a521485d0411e70121020e8bf34d9be90e5fffd5d8ac7188b6d495bc2baa24047e9f8655948b242d7584ffffffff027c392200000000001976a914a9b6fe88deac97e69076c296175b58ef2964c8a788ac0000000000000000536a4c500000778200015aa091b580448882568b364dbcbefa6b8351586b4e86aeaeacb577c031fc00b8ec07956fbef6f6fdb23a1c7eddd85baa0b03061403b1747f0a3abc9a9526289ac0f6612cd74e33776ee400000000", "vin": [{"sequence": 4294967295, "scriptSig": {"hex": "47304402207ca09cb6f3e850eff3f96ba5554b17a8b3497149b1bb3f38feaeb742813f760e02203e35fd68957e644230de9cc73d9e9997bcd9deed958d472a76a521485d0411e70121020e8bf34d9be90e5fffd5d8ac7188b6d495bc2baa24047e9f8655948b242d7584", "asm": "304402207ca09cb6f3e850eff3f96ba5554b17a8b3497149b1bb3f38feaeb742813f760e02203e35fd68957e644230de9cc73d9e9997bcd9deed958d472a76a521485d0411e7[ALL] 020e8bf34d9be90e5fffd5d8ac7188b6d495bc2baa24047e9f8655948b242d7584"}, "vout": 1, "txid": "7a4a3d9fc4fd0e7e99074cf49f8eeff48b9456257c6621f9c45c8d316f213dbc"}], "txid": "42732901f73baedfeefebb7e90021d77dff9bb55074977f75d88eda77f03fce1", "blocktime": 1537870928, "version": 1, "confirmations": 11512, "time": 1537870928, "locktime": 0, "vsize": 283, "size": 283}