{"hash": "42887326b950d9b609758e89d851bd288fa3a6df26e7cab40eaaf100b7b5b392", "blockhash": "0000000000000000001f0ddff1eddb255c1121bcd4da4f1bc9a0da00cae72433", "vout": [{"scriptPubKey": {"reqSigs": 1, "hex": "a91482af9086d1da74b210fa04dabf5bd1df75bf3e2a87", "addresses": ["3Dc25vNUmMeZ5FjkaPZmLbhNp5gUG5z9ja"], "asm": "OP_HASH160 82af9086d1da74b210fa04dabf5bd1df75bf3e2a OP_EQUAL", "type": "scripthash"}, "value": 0.00570408, "n": 0}, {"scriptPubKey": {"reqSigs": 1, "hex": "a914720c6da9ab6d731f6e2aa0cbdf9f2453e09a45b187", "addresses": ["3C63qx6UyCSji9GDTPFu3JFTSnLKtZo91r"], "asm": "OP_HASH160 720c6da9ab6d731f6e2aa0cbdf9f2453e09a45b1 OP_EQUAL", "type": "scripthash"}, "value": 0.06588583, "n": 1}], "hex": "0100000001d895cd5a0978a4d954fd81916d24f37262755a6755860dab415c4f564743be5901000000db00483045022100fd7c36eefa8e515a4fd4c1eb0b93ab13a9e9bca4a44ca92da82d4a1fc724927a022069ef3fd6b1951ca75aca696b27272accd944461c6a0e991c49506b76a41bed8f01483045022100ebe5aff1e2a2865cae14bafb5e33d6f1f0657c59ec1abc3957b7b104b99afa1702201ae5b207c81527c52e14567535743bf04130ad16a0c6ae2ee0832b6531ac8f6d0147522103f2d250ed5140d655fe49f9b9f857ff223c9290b9bbe8b68a50d522cf45e633702102045f2de7b3abee8ca375163a8879a6719ef3e6d7ffc88aa3008e11b5b89eb7ee52aeffffffff0228b408000000000017a91482af9086d1da74b210fa04dabf5bd1df75bf3e2a87a78864000000000017a914720c6da9ab6d731f6e2aa0cbdf9f2453e09a45b18700000000", "vin": [{"sequence": 4294967295, "scriptSig": {"hex": "00483045022100fd7c36eefa8e515a4fd4c1eb0b93ab13a9e9bca4a44ca92da82d4a1fc724927a022069ef3fd6b1951ca75aca696b27272accd944461c6a0e991c49506b76a41bed8f01483045022100ebe5aff1e2a2865cae14bafb5e33d6f1f0657c59ec1abc3957b7b104b99afa1702201ae5b207c81527c52e14567535743bf04130ad16a0c6ae2ee0832b6531ac8f6d0147522103f2d250ed5140d655fe49f9b9f857ff223c9290b9bbe8b68a50d522cf45e633702102045f2de7b3abee8ca375163a8879a6719ef3e6d7ffc88aa3008e11b5b89eb7ee52ae", "asm": "0 3045022100fd7c36eefa8e515a4fd4c1eb0b93ab13a9e9bca4a44ca92da82d4a1fc724927a022069ef3fd6b1951ca75aca696b27272accd944461c6a0e991c49506b76a41bed8f[ALL] 3045022100ebe5aff1e2a2865cae14bafb5e33d6f1f0657c59ec1abc3957b7b104b99afa1702201ae5b207c81527c52e14567535743bf04130ad16a0c6ae2ee0832b6531ac8f6d[ALL] 522103f2d250ed5140d655fe49f9b9f857ff223c9290b9bbe8b68a50d522cf45e633702102045f2de7b3abee8ca375163a8879a6719ef3e6d7ffc88aa3008e11b5b89eb7ee52ae"}, "vout": 1, "txid": "59be4347564f5c41ab0d8655675a756272f3246d9181fd54d9a478095acd95d8"}], "txid": "42887326b950d9b609758e89d851bd288fa3a6df26e7cab40eaaf100b7b5b392", "blocktime": 1537872018, "version": 1, "confirmations": 11489, "time": 1537872018, "locktime": 0, "vsize": 334, "size": 334}