{"hash": "4289eb2ce562761c5d48373822cd9cc1e8dc9ed66ce4a44aad117a9ef3494885", "blockhash": "0000000000000000000baef3f32e3676a92c3b2e5da21b426e4f302fc371ce76", "vout": [{"scriptPubKey": {"reqSigs": 1, "hex": "76a914bd1ff70a8d917887c7fb65cfebb3b2bb7147f7c188ac", "addresses": ["1JF11DxaQFePvUhtkBQpN217T7NyC5Jb9J"], "asm": "OP_DUP OP_HASH160 bd1ff70a8d917887c7fb65cfebb3b2bb7147f7c1 OP_EQUALVERIFY OP_CHECKSIG", "type": "pubkeyhash"}, "value": 0.01569, "n": 0}, {"scriptPubKey": {"reqSigs": 1, "hex": "a914e370231feecbfc25e2e2423a5a79bf79bfdca59887", "addresses": ["3NRbeX3vD5VaVE4TDU9ivCDsEf7NPPte6J"], "asm": "OP_HASH160 e370231feecbfc25e2e2423a5a79bf79bfdca598 OP_EQUAL", "type": "scripthash"}, "value": 2.79826579, "n": 1}], "hex": "01000000017147785b892eeb2cb28940b446e6e63c68770efb8f8ac0455f3219df7ea9a67701000000da004730440220105e513f80546338ff4e85d6ea1fee08bd8221feb0407695657988ca5e25dcf702204c1a1ee083c370d8591277ecfce064b8ee430ab84cf84f9e5b5e6021eeef46bb01483045022100f4be9cf554dd34003546f849443978dd9f08195ce4a0002933f13d372d62ce2f022009a0bd759de92ca00a77e2d32fa0c7c4dd6cac716a22ea566a225b9e38f77acd014752210327881b6abce6535553a3ce21fad12a7d74fd237ce7c4cd270a267162344e3082210256141f8eb687f5a68c5cc65054652dc25116fa285e44d72b44368827ffe77d9a52aeffffffff02e8f01700000000001976a914bd1ff70a8d917887c7fb65cfebb3b2bb7147f7c188ac93d0ad100000000017a914e370231feecbfc25e2e2423a5a79bf79bfdca5988700000000", "vin": [{"sequence": 4294967295, "scriptSig": {"hex": "004730440220105e513f80546338ff4e85d6ea1fee08bd8221feb0407695657988ca5e25dcf702204c1a1ee083c370d8591277ecfce064b8ee430ab84cf84f9e5b5e6021eeef46bb01483045022100f4be9cf554dd34003546f849443978dd9f08195ce4a0002933f13d372d62ce2f022009a0bd759de92ca00a77e2d32fa0c7c4dd6cac716a22ea566a225b9e38f77acd014752210327881b6abce6535553a3ce21fad12a7d74fd237ce7c4cd270a267162344e3082210256141f8eb687f5a68c5cc65054652dc25116fa285e44d72b44368827ffe77d9a52ae", "asm": "0 30440220105e513f80546338ff4e85d6ea1fee08bd8221feb0407695657988ca5e25dcf702204c1a1ee083c370d8591277ecfce064b8ee430ab84cf84f9e5b5e6021eeef46bb[ALL] 3045022100f4be9cf554dd34003546f849443978dd9f08195ce4a0002933f13d372d62ce2f022009a0bd759de92ca00a77e2d32fa0c7c4dd6cac716a22ea566a225b9e38f77acd[ALL] 52210327881b6abce6535553a3ce21fad12a7d74fd237ce7c4cd270a267162344e3082210256141f8eb687f5a68c5cc65054652dc25116fa285e44d72b44368827ffe77d9a52ae"}, "vout": 1, "txid": "77a6a97edf19325f45c08a8ffb0e77683ce6e646b44089b22ceb2e895b784771"}], "txid": "4289eb2ce562761c5d48373822cd9cc1e8dc9ed66ce4a44aad117a9ef3494885", "blocktime": 1537876114, "version": 1, "confirmations": 11460, "time": 1537876114, "locktime": 0, "vsize": 335, "size": 335}