{"hash": "9705c3579e3ef8b0c2bb9da4517cdc9959251eac4ac22910e2e4fda39a4f2da1", "blockhash": "0000000000000000001f76057863aec43deb6fa401d9628bb513d65a8098bfab", "vout": [{"scriptPubKey": {"reqSigs": 1, "hex": "a9142b8b68c429eb87298242736021c665a2376bde7487", "addresses": ["35fFz7i8wj5MPPwBvSkoqwGdLQuzpRBLX4"], "asm": "OP_HASH160 2b8b68c429eb87298242736021c665a2376bde74 OP_EQUAL", "type": "scripthash"}, "value": 0.000502, "n": 0}, {"scriptPubKey": {"reqSigs": 1, "hex": "a91459e22e680d7aef1bc9874effa07d68b6259724af87", "addresses": ["39tH1y3pVjNNHincX3R47xZiAbbKs915gu"], "asm": "OP_HASH160 59e22e680d7aef1bc9874effa07d68b6259724af OP_EQUAL", "type": "scripthash"}, "value": 0.125512, "n": 1}], "hex": "01000000000101c28c28f6934ba7e51adbbfd1071588c4f990d4b63289c642ca36016c96fb818b0000000023220020c8c4e84e21819ad2b0df6beedfeb20aae449cea5d658a423b6be8180fb5afa2dffffffff0218c400000000000017a9142b8b68c429eb87298242736021c665a2376bde74872084bf000000000017a91459e22e680d7aef1bc9874effa07d68b6259724af87040047304402200afef4e94c6801c717d2fd25b36476a6c2e5bbc6999dabb1b6b48674d374921402205e9285a9f4c35da683357f994e7f3b14f37620e588773b01bfdfe0931dff9efb014730440220291cc36520abbc0ed277b3129fba67a50e9a75900df06b7342fb06230b95edce0220789a755b73ed795830fa35174a4208d3419ece3dd8a2e0eadb9b6005b35e55b30169522102ab29ff1d3ab7a9edf4c4cf454ab4add07907b1943d2fc77841c23a08f43dc06c21025352685fcfd10a9afe7ef8a5808192a707274f9a32badbdefc0da6dc2c86258d2102d72442774f614dc66af57c22dc86c85ee782b607985d3186e0869c8e8777c68b53ae00000000", "vin": [{"txinwitness": ["", "304402200afef4e94c6801c717d2fd25b36476a6c2e5bbc6999dabb1b6b48674d374921402205e9285a9f4c35da683357f994e7f3b14f37620e588773b01bfdfe0931dff9efb01", "30440220291cc36520abbc0ed277b3129fba67a50e9a75900df06b7342fb06230b95edce0220789a755b73ed795830fa35174a4208d3419ece3dd8a2e0eadb9b6005b35e55b301", "522102ab29ff1d3ab7a9edf4c4cf454ab4add07907b1943d2fc77841c23a08f43dc06c21025352685fcfd10a9afe7ef8a5808192a707274f9a32badbdefc0da6dc2c86258d2102d72442774f614dc66af57c22dc86c85ee782b607985d3186e0869c8e8777c68b53ae"], "sequence": 4294967295, "scriptSig": {"hex": "220020c8c4e84e21819ad2b0df6beedfeb20aae449cea5d658a423b6be8180fb5afa2d", "asm": "0020c8c4e84e21819ad2b0df6beedfeb20aae449cea5d658a423b6be8180fb5afa2d"}, "vout": 0, "txid": "8b81fb966c0136ca42c68932b6d490f9c4881507d1bfdb1ae5a74b93f6288cc2"}], "txid": "428c9ea958ea8f6ca3657aa120e3076e1dcab4f8d2b8579c461fd461ab0c6dc3", "blocktime": 1537873891, "version": 1, "confirmations": 11478, "time": 1537873891, "locktime": 0, "vsize": 214, "size": 404}