{"hash": "428f584a4b7d536a6b6fe5f298ef81bcb1e2da8b9c6987363df914d0453087d8", "blockhash": "0000000000000000000e13cef7c366c0283d82e591d1acd082e914b08063cdf1", "vout": [{"scriptPubKey": {"reqSigs": 1, "hex": "a914cdd330b550217b06d3fdf78ef943df53423fe8d587", "addresses": ["3LTKSdFzUcZm7EELZ17DRW7o5rd8YQSdVV"], "asm": "OP_HASH160 cdd330b550217b06d3fdf78ef943df53423fe8d5 OP_EQUAL", "type": "scripthash"}, "value": 0.00424, "n": 0}, {"scriptPubKey": {"reqSigs": 1, "hex": "76a9145f792cf6abafbb01086b438add4a23c29f7f39e788ac", "addresses": ["19hpMez2WG3fZKKVFru38eM82zdEaSrYMr"], "asm": "OP_DUP OP_HASH160 5f792cf6abafbb01086b438add4a23c29f7f39e7 OP_EQUALVERIFY OP_CHECKSIG", "type": "pubkeyhash"}, "value": 0.04399317, "n": 1}], "hex": "01000000017fd146d462c7ba1c5393bc3487cb5658e4a0660a84aacce8260228576e2f1d27010000006b4830450221009a34db13b7d83f15dbe8e9e47b5b5c5dbc0e67577b658f495a65cbd113b3faa902205098e7bb4aeb4967dfff40ece54951665407ce4094aadf2c131bf09ff6504d950121038ed795e8e6fdcc0ec851ed112889bf30c5104864383ade3f5cfcef92aca92185ffffffff02407806000000000017a914cdd330b550217b06d3fdf78ef943df53423fe8d587d5204300000000001976a9145f792cf6abafbb01086b438add4a23c29f7f39e788ac00000000", "vin": [{"sequence": 4294967295, "scriptSig": {"hex": "4830450221009a34db13b7d83f15dbe8e9e47b5b5c5dbc0e67577b658f495a65cbd113b3faa902205098e7bb4aeb4967dfff40ece54951665407ce4094aadf2c131bf09ff6504d950121038ed795e8e6fdcc0ec851ed112889bf30c5104864383ade3f5cfcef92aca92185", "asm": "30450221009a34db13b7d83f15dbe8e9e47b5b5c5dbc0e67577b658f495a65cbd113b3faa902205098e7bb4aeb4967dfff40ece54951665407ce4094aadf2c131bf09ff6504d95[ALL] 038ed795e8e6fdcc0ec851ed112889bf30c5104864383ade3f5cfcef92aca92185"}, "vout": 1, "txid": "271d2f6e57280226e8ccaa840a66a0e45856cb8734bc93531cbac762d446d17f"}], "txid": "428f584a4b7d536a6b6fe5f298ef81bcb1e2da8b9c6987363df914d0453087d8", "blocktime": 1537871767, "version": 1, "confirmations": 11491, "time": 1537871767, "locktime": 0, "vsize": 224, "size": 224}