{"hash": "4297b0fe78b0e645b2ce78dee71c588c20249c4dc727a9c86727465f9cd84d60", "blockhash": "00000000000000000004ffacab907a6b429b9a5745fa0b75af4234bf69dd7176", "vout": [{"scriptPubKey": {"reqSigs": 1, "hex": "76a914fd8e15ad714c1141cc606cbd3976987d9e2873ba88ac", "addresses": ["1Q7gAkUawu6i5fxg3dgCjSTMfDyUXTbXyK"], "asm": "OP_DUP OP_HASH160 fd8e15ad714c1141cc606cbd3976987d9e2873ba OP_EQUALVERIFY OP_CHECKSIG", "type": "pubkeyhash"}, "value": 0.06082824, "n": 0}, {"scriptPubKey": {"reqSigs": 1, "hex": "a914c2d58bb9d692b49dc8e0437d34a8dee453ffbcdb87", "addresses": ["3KTCqBUhN5SdMRbQ2gKobaAvTJg3Ygduzo"], "asm": "OP_HASH160 c2d58bb9d692b49dc8e0437d34a8dee453ffbcdb OP_EQUAL", "type": "scripthash"}, "value": 0.01367692, "n": 1}], "hex": "0100000001b9f4ba391f60e988e6e9f376a2a95c187e91563ef2731c77a5bd0aa5bad4ae9901000000fdfe0000483045022100c53c40fb05bd17f0d854dc59959421dad95b16f4727682795274575fcd49daf402207d8897f759984688b4bec6bd9da43acecb003087ff2635f3ad05ee25bcf7ac33014830450221008c25dfe30b8bb645acbd716bbfa466ee11d3c155be3e022ef03027b11e0af7a20220551479dc965ddac00c74f4094dbd2bb986b7e47123b5020c4edeb9eb34cf8dfa014c69522102b5f861b6082061118c63e073517e5def4d25bbc9f5b556ec4c0076a2b13a5d86210233631ff726e148292c1fcd1515936cb3f12406eb277c76eeea39579edb7e80b9210263224f38ef9dd61f512f0831942081293ce568d52a323dbc3e67e4dfd2d3066853aeffffffff0208d15c00000000001976a914fd8e15ad714c1141cc606cbd3976987d9e2873ba88ac8cde14000000000017a914c2d58bb9d692b49dc8e0437d34a8dee453ffbcdb8700000000", "vin": [{"sequence": 4294967295, "scriptSig": {"hex": "00483045022100c53c40fb05bd17f0d854dc59959421dad95b16f4727682795274575fcd49daf402207d8897f759984688b4bec6bd9da43acecb003087ff2635f3ad05ee25bcf7ac33014830450221008c25dfe30b8bb645acbd716bbfa466ee11d3c155be3e022ef03027b11e0af7a20220551479dc965ddac00c74f4094dbd2bb986b7e47123b5020c4edeb9eb34cf8dfa014c69522102b5f861b6082061118c63e073517e5def4d25bbc9f5b556ec4c0076a2b13a5d86210233631ff726e148292c1fcd1515936cb3f12406eb277c76eeea39579edb7e80b9210263224f38ef9dd61f512f0831942081293ce568d52a323dbc3e67e4dfd2d3066853ae", "asm": "0 3045022100c53c40fb05bd17f0d854dc59959421dad95b16f4727682795274575fcd49daf402207d8897f759984688b4bec6bd9da43acecb003087ff2635f3ad05ee25bcf7ac33[ALL] 30450221008c25dfe30b8bb645acbd716bbfa466ee11d3c155be3e022ef03027b11e0af7a20220551479dc965ddac00c74f4094dbd2bb986b7e47123b5020c4edeb9eb34cf8dfa[ALL] 522102b5f861b6082061118c63e073517e5def4d25bbc9f5b556ec4c0076a2b13a5d86210233631ff726e148292c1fcd1515936cb3f12406eb277c76eeea39579edb7e80b9210263224f38ef9dd61f512f0831942081293ce568d52a323dbc3e67e4dfd2d3066853ae"}, "vout": 1, "txid": "99aed4baa50abda5771c73f23e56917e185ca9a276f3e9e688e9601f39baf4b9"}], "txid": "4297b0fe78b0e645b2ce78dee71c588c20249c4dc727a9c86727465f9cd84d60", "blocktime": 1537875543, "version": 1, "confirmations": 11464, "time": 1537875543, "locktime": 0, "vsize": 373, "size": 373}