{"hash": "f66843d4deb05c594184e09a48cf6483086300795ba5402cc6713ddba8c8c2a8", "blockhash": "0000000000000000000e13cef7c366c0283d82e591d1acd082e914b08063cdf1", "vout": [{"scriptPubKey": {"reqSigs": 1, "hex": "a914e16c0a7e004460233f8112a9ede763d31c159b4f87", "addresses": ["3NEwPXPqo9Zmmv1osS5bAnH3UGDf61GJig"], "asm": "OP_HASH160 e16c0a7e004460233f8112a9ede763d31c159b4f OP_EQUAL", "type": "scripthash"}, "value": 0.04611958, "n": 0}, {"scriptPubKey": {"reqSigs": 1, "hex": "76a9146b5b5dc6c3ce53698236f3cd8a06c4a8e67fde4688ac", "addresses": ["1Anekmakp9E62kgAudX14x9frNtsC5sN3p"], "asm": "OP_DUP OP_HASH160 6b5b5dc6c3ce53698236f3cd8a06c4a8e67fde46 OP_EQUALVERIFY OP_CHECKSIG", "type": "pubkeyhash"}, "value": 0.02499725, "n": 1}], "hex": "02000000000101d2e3643246d9400128a481c231b8e30924300410dae8d03701376dab110926ad0100000017160014b9e896f6dd47be0839a7159fea135a62d13911c4feffffff02765f46000000000017a914e16c0a7e004460233f8112a9ede763d31c159b4f878d242600000000001976a9146b5b5dc6c3ce53698236f3cd8a06c4a8e67fde4688ac02483045022100d7d989abab2770290eda39e2fb619d2f3d92e76717fc6009d96b1fd8b215b08e02201a6a9798ebe1d2888a1e33333da2773c8b271bc9b97409e8ad4c992f159cd60a012103d78987c21f95c5f802078ae866fd3168f9d48520cb69abbd7f6fcd7ddf4c9d790f490800", "vin": [{"txinwitness": ["3045022100d7d989abab2770290eda39e2fb619d2f3d92e76717fc6009d96b1fd8b215b08e02201a6a9798ebe1d2888a1e33333da2773c8b271bc9b97409e8ad4c992f159cd60a01", "03d78987c21f95c5f802078ae866fd3168f9d48520cb69abbd7f6fcd7ddf4c9d79"], "sequence": 4294967294, "scriptSig": {"hex": "160014b9e896f6dd47be0839a7159fea135a62d13911c4", "asm": "0014b9e896f6dd47be0839a7159fea135a62d13911c4"}, "vout": 1, "txid": "ad260911ab6d370137d0e8da1004302409e3b831c281a4280140d9463264e3d2"}], "txid": "42978f6a970624f9121ba9f801651fde05b5c3c7cf17563442f0773767ffd794", "blocktime": 1537871767, "version": 2, "confirmations": 11491, "time": 1537871767, "locktime": 542991, "vsize": 168, "size": 250}