{"hash": "e88e880eb8c8a10da065e1aa044dd48e79bb67f2d96aebbe62c04426e2f869e5", "blockhash": "0000000000000000001e0dab787dd257d1dbfcb92a98c2207d5e1078be1f4165", "vout": [{"scriptPubKey": {"reqSigs": 1, "hex": "a914d72d8384d28c29e06eb5617aef5bfbf8e7a7149887", "addresses": ["3MJmj8whuYqNgRC34pmQxL16bwJSuDiS75"], "asm": "OP_HASH160 d72d8384d28c29e06eb5617aef5bfbf8e7a71498 OP_EQUAL", "type": "scripthash"}, "value": 0.00602869, "n": 0}, {"scriptPubKey": {"reqSigs": 1, "hex": "a9147208fb07156c93409962383befe624b0135303dd87", "addresses": ["3C5yiPo8UQCy7Lebk3k7yrWLrgWKCed9iN"], "asm": "OP_HASH160 7208fb07156c93409962383befe624b0135303dd OP_EQUAL", "type": "scripthash"}, "value": 0.01110245, "n": 1}], "hex": "020000000001030cb2de108105a601caa7a04c3b01b57616a7103a4dc40d11a15d723f54a55a000000000017160014e86f806ba349d172bee7d3547b9fadf29ca81c22feffffff2fbba25b36cc7f704150c550e3e8e098035516b97bf7a5f0f9544460bb1784e400000000171600142316a5cff53e7e4e0a13e5870f74ccc50a87f31efeffffff52d04e141f0426322cf54ce59581a752754833e0d30baeae9d6167ceeb5207c80100000017160014b2433823e48c646d09ce1555455561ed7bf4fb98feffffff02f53209000000000017a914d72d8384d28c29e06eb5617aef5bfbf8e7a7149887e5f010000000000017a9147208fb07156c93409962383befe624b0135303dd870247304402200e8dbbae8370e71fd8ae3d1d5035fdd1c5bb1dced40f8bd99e714dd43965577c02203b15de83fa1beda4c4407612880f2e6be89d3667ef467f7003b8759315d83e230121038d6351439fdabd0b6b3bee77aaedd501308fdd6fe50c8c677cab2c79bc8b22ba024730440220720c741e4c1dffe5d0fd8e939075442cca9fc130df1d478f451722f777ea30e802203c48fa98f09fcacb8c7857175284bd0b38a13384a33ae7583435fb7ef849112501210286a4e309ea54faf1e7b9a31ebf7eb6aa1d4a03b1dde14980923a07d5bda5bcf0024730440220294ef291bf4e5860a4a98745868fe421dd54c77d5585cd392d507a518927582802206818555a2004bd2e2a1192afa20e7a5879f99dacf7201e09c93594beed5bf8a401210335fe9ed1e26d7d3622f771ae1e128379c77a8c912a519727436502a3691c439b12490800", "vin": [{"txinwitness": ["304402200e8dbbae8370e71fd8ae3d1d5035fdd1c5bb1dced40f8bd99e714dd43965577c02203b15de83fa1beda4c4407612880f2e6be89d3667ef467f7003b8759315d83e2301", "038d6351439fdabd0b6b3bee77aaedd501308fdd6fe50c8c677cab2c79bc8b22ba"], "sequence": 4294967294, "scriptSig": {"hex": "160014e86f806ba349d172bee7d3547b9fadf29ca81c22", "asm": "0014e86f806ba349d172bee7d3547b9fadf29ca81c22"}, "vout": 0, "txid": "005aa5543f725da1110dc44d3a10a71676b5013b4ca0a7ca01a6058110deb20c"}, {"txinwitness": ["30440220720c741e4c1dffe5d0fd8e939075442cca9fc130df1d478f451722f777ea30e802203c48fa98f09fcacb8c7857175284bd0b38a13384a33ae7583435fb7ef849112501", "0286a4e309ea54faf1e7b9a31ebf7eb6aa1d4a03b1dde14980923a07d5bda5bcf0"], "sequence": 4294967294, "scriptSig": {"hex": "1600142316a5cff53e7e4e0a13e5870f74ccc50a87f31e", "asm": "00142316a5cff53e7e4e0a13e5870f74ccc50a87f31e"}, "vout": 0, "txid": "e48417bb604454f9f0a5f77bb916550398e0e8e350c55041707fcc365ba2bb2f"}, {"txinwitness": ["30440220294ef291bf4e5860a4a98745868fe421dd54c77d5585cd392d507a518927582802206818555a2004bd2e2a1192afa20e7a5879f99dacf7201e09c93594beed5bf8a401", "0335fe9ed1e26d7d3622f771ae1e128379c77a8c912a519727436502a3691c439b"], "sequence": 4294967294, "scriptSig": {"hex": "160014b2433823e48c646d09ce1555455561ed7bf4fb98", "asm": "0014b2433823e48c646d09ce1555455561ed7bf4fb98"}, "vout": 1, "txid": "c80752ebce67619daeae0bd3e033487552a78195e54cf52c3226041f144ed052"}], "txid": "429b9c0f9eb06a0c88522081bd27347b1ce6df9621b5b240c5c7b323801a23e9", "blocktime": 1537872475, "version": 2, "confirmations": 11487, "time": 1537872475, "locktime": 542994, "vsize": 347, "size": 589}