{"hash": "42a001cbaeba509eb5bd6c38e0e294cfb0e2ba7f88f87c33c6b84f38321e56d6", "blockhash": "00000000000000000017f5eb5941039fbcee6240d03bc1f2f8e35350df66a1d8", "vout": [{"scriptPubKey": {"reqSigs": 1, "hex": "a91440973dce6052b6ef6b32e405ce7ad05e245ce6e787", "addresses": ["37aYMG1ttyEx84K56qfK3t6hgBfLr76tBN"], "asm": "OP_HASH160 40973dce6052b6ef6b32e405ce7ad05e245ce6e7 OP_EQUAL", "type": "scripthash"}, "value": 0.005, "n": 0}, {"scriptPubKey": {"reqSigs": 1, "hex": "76a914caa5b730fa43bb741e7333116e67aec11084fc2288ac", "addresses": ["1KUW1sWc8hQejA9HyNmxojSDSPc7syKG1m"], "asm": "OP_DUP OP_HASH160 caa5b730fa43bb741e7333116e67aec11084fc22 OP_EQUALVERIFY OP_CHECKSIG", "type": "pubkeyhash"}, "value": 0.69938353, "n": 1}], "hex": "010000000131b8958092f5db861601e604c069476e8778264637036b3cd198b51417715d6b010000006a473044022036516ef2d80a52e72dc63d27697028dc386f9c6a17aa4e0dcd2b5016d129921e02207bb8bf51b9faec56eb00dbdb7cdf645dd8559769abb8ca8e21081074cb8e675a0121023797cba2dfbd773685653468b7c1bbb0b445b6b08e4ad608cb764e90e9939141ffffffff0220a107000000000017a91440973dce6052b6ef6b32e405ce7ad05e245ce6e787b12c2b04000000001976a914caa5b730fa43bb741e7333116e67aec11084fc2288ac00000000", "vin": [{"sequence": 4294967295, "scriptSig": {"hex": "473044022036516ef2d80a52e72dc63d27697028dc386f9c6a17aa4e0dcd2b5016d129921e02207bb8bf51b9faec56eb00dbdb7cdf645dd8559769abb8ca8e21081074cb8e675a0121023797cba2dfbd773685653468b7c1bbb0b445b6b08e4ad608cb764e90e9939141", "asm": "3044022036516ef2d80a52e72dc63d27697028dc386f9c6a17aa4e0dcd2b5016d129921e02207bb8bf51b9faec56eb00dbdb7cdf645dd8559769abb8ca8e21081074cb8e675a[ALL] 023797cba2dfbd773685653468b7c1bbb0b445b6b08e4ad608cb764e90e9939141"}, "vout": 1, "txid": "6b5d711714b598d13c6b0337462678876e4769c004e6011686dbf5928095b831"}], "txid": "42a001cbaeba509eb5bd6c38e0e294cfb0e2ba7f88f87c33c6b84f38321e56d6", "blocktime": 1537874412, "version": 1, "confirmations": 11468, "time": 1537874412, "locktime": 0, "vsize": 223, "size": 223}