{"hash": "d9bb2b7eb501c94dd5741986c69cb14289fbe6ee82971902ae0c79ebe7b2d4d7", "blockhash": "000000000000000000022b45ed06c6f4ccd3cf7fb5ba4856ebd2e58215665228", "vout": [{"scriptPubKey": {"reqSigs": 1, "hex": "76a9143cf81723da5ab272a6c2bc68eda9286da403e63688ac", "addresses": ["16ZNk8gK28yZuU4fT5wdDQSbLiVu4JBQD5"], "asm": "OP_DUP OP_HASH160 3cf81723da5ab272a6c2bc68eda9286da403e636 OP_EQUALVERIFY OP_CHECKSIG", "type": "pubkeyhash"}, "value": 2.0, "n": 0}, {"scriptPubKey": {"reqSigs": 1, "hex": "001429b3b07dae83059a50b1aa3bc3b15c4d3f3bfe00", "addresses": ["bc1q9xemqldwsvze55934gau8v2uf5lnhlsqtdwqg9"], "asm": "0 29b3b07dae83059a50b1aa3bc3b15c4d3f3bfe00", "type": "witness_v0_keyhash"}, "value": 0.09949412, "n": 1}], "hex": "0100000000010118ca9cb034591e2c5b8124e084321d2bc045fcf845d54b74d76190e1e31be66f060000001716001454ddd6258f2b0319004e6ff0e192add0ea291272ffffffff0200c2eb0b000000001976a9143cf81723da5ab272a6c2bc68eda9286da403e63688ace4d097000000000016001429b3b07dae83059a50b1aa3bc3b15c4d3f3bfe0002483045022100bc557310b9841bc0d30b3ac84f9361adb1409c8631fc2705bc0279a945512ee102204b99ca6021622bd21c57c06352dfcc2d3ad1667d58de2bb6555b19228f2a026e0121025cf2f48eb39ce0ef52cc3c831609d0b7a32f3f185da8be0f9d7d411505af2cbf00000000", "vin": [{"txinwitness": ["3045022100bc557310b9841bc0d30b3ac84f9361adb1409c8631fc2705bc0279a945512ee102204b99ca6021622bd21c57c06352dfcc2d3ad1667d58de2bb6555b19228f2a026e01", "025cf2f48eb39ce0ef52cc3c831609d0b7a32f3f185da8be0f9d7d411505af2cbf"], "sequence": 4294967295, "scriptSig": {"hex": "16001454ddd6258f2b0319004e6ff0e192add0ea291272", "asm": "001454ddd6258f2b0319004e6ff0e192add0ea291272"}, "vout": 6, "txid": "6fe61be3e19061d7744bd545f8fc45c02b1d3284e024815b2c1e5934b09cca18"}], "txid": "42a10f8f583cf9713e2f691d23d46d558b56856363ea7a9187922916ed8e3955", "blocktime": 1537869901, "version": 1, "confirmations": 11523, "time": 1537869901, "locktime": 0, "vsize": 167, "size": 249}