{"hash": "5aa8e082e2657af2be028ed704da2fc03fbbc072526334f0f6597a1150f6c0b3", "blockhash": "0000000000000000000e13cef7c366c0283d82e591d1acd082e914b08063cdf1", "vout": [{"scriptPubKey": {"reqSigs": 1, "hex": "76a914f420f5161af42ad0c7d31d8c9b750fd3e80d8b7788ac", "addresses": ["1PFqMj31Lh7EbbkWx1jXXfJ3TvSRSmRRiD"], "asm": "OP_DUP OP_HASH160 f420f5161af42ad0c7d31d8c9b750fd3e80d8b77 OP_EQUALVERIFY OP_CHECKSIG", "type": "pubkeyhash"}, "value": 0.0013236, "n": 0}, {"scriptPubKey": {"reqSigs": 1, "hex": "a91423485f7736de11f7a576afcc0513a0e1562a817d87", "addresses": ["34uaGpH8m4Q76oKZfc4KQrQip1oQigzYDZ"], "asm": "OP_HASH160 23485f7736de11f7a576afcc0513a0e1562a817d OP_EQUAL", "type": "scripthash"}, "value": 0.01071824, "n": 1}], "hex": "020000000001025fac39f75d58594b9ffc98c2eb4d88dbeec4f507f192d646f80df4b53e62cb9d140000001716001460dd810065a9b48eca99de7e265c77428c75724afeffffff873f97bf3e2737c7a31651557aa9bcc4181fd9df0c651193935dd43864fbb276000000001716001405ec0fb3b30b4c70530f61d50f209b0531e44106feffffff0208050200000000001976a914f420f5161af42ad0c7d31d8c9b750fd3e80d8b7788acd05a10000000000017a91423485f7736de11f7a576afcc0513a0e1562a817d8702483045022100b29606892655e2ebc6102b47d0cc0ae0829db18b55fac793444d07ece776b68c02200987f5fa649ef4f488bbb0d9c788e842e0b3f9b572a14c6cd0260612b827d908012102ac49451470ae76af68d4c70798eab801e2e5f6fb876558777165b70d656870a302483045022100e519fb70166991e817ba0846bbc41a4e02b4aacd9c5f31aa67ab02d40b73a7c802201406ca8e7f69a5bf300dffef051b722894ad4ace15dbda8520648f0704aa1f9401210229d933fdb0bae832f882319ee0fc7f138ca629db4368912c5fa571c3e58da70610490800", "vin": [{"txinwitness": ["3045022100b29606892655e2ebc6102b47d0cc0ae0829db18b55fac793444d07ece776b68c02200987f5fa649ef4f488bbb0d9c788e842e0b3f9b572a14c6cd0260612b827d90801", "02ac49451470ae76af68d4c70798eab801e2e5f6fb876558777165b70d656870a3"], "sequence": 4294967294, "scriptSig": {"hex": "16001460dd810065a9b48eca99de7e265c77428c75724a", "asm": "001460dd810065a9b48eca99de7e265c77428c75724a"}, "vout": 20, "txid": "9dcb623eb5f40df846d692f107f5c4eedb884debc298fc9f4b59585df739ac5f"}, {"txinwitness": ["3045022100e519fb70166991e817ba0846bbc41a4e02b4aacd9c5f31aa67ab02d40b73a7c802201406ca8e7f69a5bf300dffef051b722894ad4ace15dbda8520648f0704aa1f9401", "0229d933fdb0bae832f882319ee0fc7f138ca629db4368912c5fa571c3e58da706"], "sequence": 4294967294, "scriptSig": {"hex": "16001405ec0fb3b30b4c70530f61d50f209b0531e44106", "asm": "001405ec0fb3b30b4c70530f61d50f209b0531e44106"}, "vout": 0, "txid": "76b2fb6438d45d939311650cdfd91f18c4bca97a555116a3c737273ebf973f87"}], "txid": "42a27f057c85135e77b31c1f07fef3dfbb1934ab29c5837bcf3fba1a4ac1ee41", "blocktime": 1537871767, "version": 2, "confirmations": 11495, "time": 1537871767, "locktime": 542992, "vsize": 259, "size": 422}