{"hash": "42a22e8eec149083c3d37076418e23c26460123ef6606bc463a3bf708932e8d1", "blockhash": "0000000000000000001f76057863aec43deb6fa401d9628bb513d65a8098bfab", "vout": [{"scriptPubKey": {"type": "nulldata", "hex": "6a146f6d6e69000000000000001f0000000000002710", "asm": "OP_RETURN 6f6d6e69000000000000001f0000000000002710"}, "value": 0.0, "n": 0}, {"scriptPubKey": {"reqSigs": 1, "hex": "76a9148b80b2920c044bdfb3ef56f0ded112c06d7ec9f288ac", "addresses": ["1Did6j8R1caPnxGHhLCsFgWZ6bQdWgx9Xm"], "asm": "OP_DUP OP_HASH160 8b80b2920c044bdfb3ef56f0ded112c06d7ec9f2 OP_EQUALVERIFY OP_CHECKSIG", "type": "pubkeyhash"}, "value": 5.46e-06, "n": 1}, {"scriptPubKey": {"reqSigs": 1, "hex": "76a914bbfc4c89ac947faad1b33988a99e9c8c8265c24388ac", "addresses": ["1J8ybuvU1FcztHdcxBAccaUPJruKKfX7xb"], "asm": "OP_DUP OP_HASH160 bbfc4c89ac947faad1b33988a99e9c8c8265c243 OP_EQUALVERIFY OP_CHECKSIG", "type": "pubkeyhash"}, "value": 0.00109921, "n": 2}], "hex": "0100000001f9cbe0e014df6013e2c5ae1c8e570051631eb9cf17c03b4a463a2a87d7b43784010000006a4730440220288a74fb6105b884cebc56136c33ac6d5e62de0ad60e2902695613931ef51076022071d70ff87b6503a75ceef596ae94c3e72bf57c44cd70a0038df5305300b75348012103ff140573bbd7eb60c2eba3819ea7c6b94094e9ceae01f4263b49069a2773c69efeffffff030000000000000000166a146f6d6e69000000000000001f000000000000271022020000000000001976a9148b80b2920c044bdfb3ef56f0ded112c06d7ec9f288ac61ad0100000000001976a914bbfc4c89ac947faad1b33988a99e9c8c8265c24388ac14490800", "vin": [{"sequence": 4294967294, "scriptSig": {"hex": "4730440220288a74fb6105b884cebc56136c33ac6d5e62de0ad60e2902695613931ef51076022071d70ff87b6503a75ceef596ae94c3e72bf57c44cd70a0038df5305300b75348012103ff140573bbd7eb60c2eba3819ea7c6b94094e9ceae01f4263b49069a2773c69e", "asm": "30440220288a74fb6105b884cebc56136c33ac6d5e62de0ad60e2902695613931ef51076022071d70ff87b6503a75ceef596ae94c3e72bf57c44cd70a0038df5305300b75348[ALL] 03ff140573bbd7eb60c2eba3819ea7c6b94094e9ceae01f4263b49069a2773c69e"}, "vout": 1, "txid": "8437b4d7872a3a464a3bc017cfb91e635100578e1caec5e21360df14e0e0cbf9"}], "txid": "42a22e8eec149083c3d37076418e23c26460123ef6606bc463a3bf708932e8d1", "blocktime": 1537873891, "version": 1, "confirmations": 11475, "time": 1537873891, "locktime": 542996, "vsize": 256, "size": 256}