{"hash": "42a5f0dbb4c03b69b15b8f13069994a2be8bf948cfb15b1696db1d08ebc76c53", "blockhash": "0000000000000000001f76057863aec43deb6fa401d9628bb513d65a8098bfab", "vout": [{"scriptPubKey": {"reqSigs": 1, "hex": "76a914b9de57addb5277177134024292ad0d9cc67269e388ac", "addresses": ["1HwnN7je6koHBvuYgQPd7vgWKAaJtqXvDy"], "asm": "OP_DUP OP_HASH160 b9de57addb5277177134024292ad0d9cc67269e3 OP_EQUALVERIFY OP_CHECKSIG", "type": "pubkeyhash"}, "value": 0.00199526, "n": 0}], "hex": "010000000175bc99d607e2b94977ca80df8863dbf1d43b684585a3d08e4d7d6a7e63ac2bad050000006b483045022100db26533126dca1851e907e7c19cb1326b5e4ebda66d6df3efd2047491ceb0a8c02201b56f3580a4e780910eb3f11e0d5a6d4aecf4d3eb2ff109148599fdaecfdbaa501210363449f28769680d30e69370621be08f14719fdfafab5e4f3ad07afa0e5fe1854ffffffff01660b0300000000001976a914b9de57addb5277177134024292ad0d9cc67269e388ac00000000", "vin": [{"sequence": 4294967295, "scriptSig": {"hex": "483045022100db26533126dca1851e907e7c19cb1326b5e4ebda66d6df3efd2047491ceb0a8c02201b56f3580a4e780910eb3f11e0d5a6d4aecf4d3eb2ff109148599fdaecfdbaa501210363449f28769680d30e69370621be08f14719fdfafab5e4f3ad07afa0e5fe1854", "asm": "3045022100db26533126dca1851e907e7c19cb1326b5e4ebda66d6df3efd2047491ceb0a8c02201b56f3580a4e780910eb3f11e0d5a6d4aecf4d3eb2ff109148599fdaecfdbaa5[ALL] 0363449f28769680d30e69370621be08f14719fdfafab5e4f3ad07afa0e5fe1854"}, "vout": 5, "txid": "ad2bac637e6a7d4d8ed0a38545683bd4f1db6388df80ca7749b9e207d699bc75"}], "txid": "42a5f0dbb4c03b69b15b8f13069994a2be8bf948cfb15b1696db1d08ebc76c53", "blocktime": 1537873891, "version": 1, "confirmations": 11478, "time": 1537873891, "locktime": 0, "vsize": 192, "size": 192}