{"hash": "3c53f6c79917c7b17c9e47cdb472a9e8b3e6578aa24d94e8de81c1bf9c4bc13a", "blockhash": "0000000000000000001f76057863aec43deb6fa401d9628bb513d65a8098bfab", "vout": [{"scriptPubKey": {"reqSigs": 1, "hex": "a914241f2d951d07adba733706d49675150ce70f081987", "addresses": ["34z1bjpES3zV9woVLYQXNJXBgc8jBVEpcy"], "asm": "OP_HASH160 241f2d951d07adba733706d49675150ce70f0819 OP_EQUAL", "type": "scripthash"}, "value": 0.0369, "n": 0}, {"scriptPubKey": {"reqSigs": 1, "hex": "a9148ead3d7e566ede38811dfa853e006e410346252387", "addresses": ["3EhRQiyC8NZgDCBQTZ1HGyXqGox3U3XNnv"], "asm": "OP_HASH160 8ead3d7e566ede38811dfa853e006e4103462523 OP_EQUAL", "type": "scripthash"}, "value": 0.88168573, "n": 1}, {"scriptPubKey": {"reqSigs": 1, "hex": "76a914e4254b11e5803fa2b51f4dd74622b126b6a48ca988ac", "addresses": ["1MoKjvCUacM6aGbG5UamseW4zcAvuoVAnK"], "asm": "OP_DUP OP_HASH160 e4254b11e5803fa2b51f4dd74622b126b6a48ca9 OP_EQUALVERIFY OP_CHECKSIG", "type": "pubkeyhash"}, "value": 0.00741811, "n": 2}], "hex": "01000000000101a698eeeeca937887befdabf6d738ecdba6a63de60cbee7fcad872df3254ff9050100000023220020e0327110777b6f3409a6b99bd76d4ca5b5c1e258c1098c5137e0ae58321f6869ffffffff03104e38000000000017a914241f2d951d07adba733706d49675150ce70f0819877d5841050000000017a9148ead3d7e566ede38811dfa853e006e410346252387b3510b00000000001976a914e4254b11e5803fa2b51f4dd74622b126b6a48ca988ac04004830450221009670a395ec65eb727d6315478efb987c60689ecd1d8799565a3d54311215664802200446abb47b6b6ecf3114518259bd28eee459fab80b23c7bd2add5602189b34f30147304402204cdfe22089c0f5cc7160bbc891359663930100db6e5872c6d4a057488a1c5ae702203975114518187d05b075e75b9d651cc2820a0def87ae61d73950c49e73ed8c5b0169522102d24ca9072ae75e9e6d32b7493215acd50f454cfe744bb50d2edc54e77bb20a5b21035af244fd4beb3b9b177d9fd5fe932dd28bb331bf44a4cea29cf27945a5b529aa2103df0c42863c743302d391d764d18ad33c7220d2804a20504824623c26618a0f9453ae00000000", "vin": [{"txinwitness": ["", "30450221009670a395ec65eb727d6315478efb987c60689ecd1d8799565a3d54311215664802200446abb47b6b6ecf3114518259bd28eee459fab80b23c7bd2add5602189b34f301", "304402204cdfe22089c0f5cc7160bbc891359663930100db6e5872c6d4a057488a1c5ae702203975114518187d05b075e75b9d651cc2820a0def87ae61d73950c49e73ed8c5b01", "522102d24ca9072ae75e9e6d32b7493215acd50f454cfe744bb50d2edc54e77bb20a5b21035af244fd4beb3b9b177d9fd5fe932dd28bb331bf44a4cea29cf27945a5b529aa2103df0c42863c743302d391d764d18ad33c7220d2804a20504824623c26618a0f9453ae"], "sequence": 4294967295, "scriptSig": {"hex": "220020e0327110777b6f3409a6b99bd76d4ca5b5c1e258c1098c5137e0ae58321f6869", "asm": "0020e0327110777b6f3409a6b99bd76d4ca5b5c1e258c1098c5137e0ae58321f6869"}, "vout": 1, "txid": "05f94f25f32d87adfce7be0ce63da6a6dbec38d7f6abfdbe877893caeeee98a6"}], "txid": "42a59928a64e3773ba867cd637a96733664a61483931b3ade4ea3f0820e093dc", "blocktime": 1537873891, "version": 1, "confirmations": 11478, "time": 1537873891, "locktime": 0, "vsize": 248, "size": 439}