{"hash": "42a8b8761f8e6a1354b1cdeac13b8b4e05f23b5000befb8bf5fdd033fc009ba7", "blockhash": "0000000000000000001cda96e906b7601b7a6fb1a3b62bca570a9e5d8f4b3de1", "vout": [{"scriptPubKey": {"reqSigs": 1, "hex": "76a914c7edc71b327fc5db986f793d9c4a7fdd0678302188ac", "addresses": ["1KE8KGEGfLF8AZnT5SZ7R7fg4hNqAjqLEX"], "asm": "OP_DUP OP_HASH160 c7edc71b327fc5db986f793d9c4a7fdd06783021 OP_EQUALVERIFY OP_CHECKSIG", "type": "pubkeyhash"}, "value": 0.00029051, "n": 0}, {"scriptPubKey": {"reqSigs": 1, "hex": "76a91421f1ab1580aa4038406aa175303a455b3be45e4f88ac", "addresses": ["146UojomviSzFeEZqQywoXpiJaxVzxJ538"], "asm": "OP_DUP OP_HASH160 21f1ab1580aa4038406aa175303a455b3be45e4f OP_EQUALVERIFY OP_CHECKSIG", "type": "pubkeyhash"}, "value": 0.00780671, "n": 1}], "hex": "01000000018dc414a72448194ae9b0475e290a98a7b9203947fb3be1d9ae0bf916d01ed162010000006a47304402200587c67c9f1e21a0054f6b0f50d339369a08aa20dd32fcfd35942def79476646022023568ed9c72985824126deb9fade540c59b1fa57319fc7f47653523d8466ca4c01210239aeeb4978407d1d6ff0a480219d04980e4fab878df8c3151243d8109b69051cffffffff027b710000000000001976a914c7edc71b327fc5db986f793d9c4a7fdd0678302188ac7fe90b00000000001976a91421f1ab1580aa4038406aa175303a455b3be45e4f88ac00000000", "vin": [{"sequence": 4294967295, "scriptSig": {"hex": "47304402200587c67c9f1e21a0054f6b0f50d339369a08aa20dd32fcfd35942def79476646022023568ed9c72985824126deb9fade540c59b1fa57319fc7f47653523d8466ca4c01210239aeeb4978407d1d6ff0a480219d04980e4fab878df8c3151243d8109b69051c", "asm": "304402200587c67c9f1e21a0054f6b0f50d339369a08aa20dd32fcfd35942def79476646022023568ed9c72985824126deb9fade540c59b1fa57319fc7f47653523d8466ca4c[ALL] 0239aeeb4978407d1d6ff0a480219d04980e4fab878df8c3151243d8109b69051c"}, "vout": 1, "txid": "62d11ed016f90baed9e13bfb473920b9a7980a295e47b0e94a194824a714c48d"}], "txid": "42a8b8761f8e6a1354b1cdeac13b8b4e05f23b5000befb8bf5fdd033fc009ba7", "blocktime": 1537873282, "version": 1, "confirmations": 11484, "time": 1537873282, "locktime": 0, "vsize": 225, "size": 225}