{"hash": "7b4d199c363a6667f19b3c6a6de068931b36f6be6bd71fc43fe1c6074b5da180", "blockhash": "00000000000000000024a2167bbff67b0be802c0b01cdd79e6331c2be6459f87", "vout": [{"scriptPubKey": {"reqSigs": 1, "hex": "002004d69e58c050b2f66fc642e6a9767948f608fe1cd26b9fa59cf1856fbded3801", "addresses": ["bc1qqntfukxq2ze0vm7xgtn2janefrmq3lsu6f4elfvu7xzkl00d8qqs3scktk"], "asm": "0 04d69e58c050b2f66fc642e6a9767948f608fe1cd26b9fa59cf1856fbded3801", "type": "witness_v0_scripthash"}, "value": 0.006, "n": 0}, {"scriptPubKey": {"reqSigs": 1, "hex": "0014cb6b5e30da9bdbad4db1ac482e7a0cdef47ccd4d", "addresses": ["bc1qed44uvx6n0d66nd343yzu7svmm68en2d23qthf"], "asm": "0 cb6b5e30da9bdbad4db1ac482e7a0cdef47ccd4d", "type": "witness_v0_keyhash"}, "value": 0.09813306, "n": 1}], "hex": "0100000000010117e00b17aa6961c207c2a9245ad7d5b2d566be91cbaa1fc5ed77c7abd15220b50100000000ffffffff02c02709000000000022002004d69e58c050b2f66fc642e6a9767948f608fe1cd26b9fa59cf1856fbded38013abd950000000000160014cb6b5e30da9bdbad4db1ac482e7a0cdef47ccd4d02483045022100fbaa1b57b0528d856dfb02905914065d72fb4241bf4ab75920f1c0df505c65a4022023daa00bb8cbd4a4a09d0bd887c6c72ad407d3f4b6c781ccf5b02fa4b09581f8012102cd5ad42d87e68f63d0c95e2afc7d2e2a9cc013ba15f4fd133676d155bbf0c5f200000000", "vin": [{"txinwitness": ["3045022100fbaa1b57b0528d856dfb02905914065d72fb4241bf4ab75920f1c0df505c65a4022023daa00bb8cbd4a4a09d0bd887c6c72ad407d3f4b6c781ccf5b02fa4b09581f801", "02cd5ad42d87e68f63d0c95e2afc7d2e2a9cc013ba15f4fd133676d155bbf0c5f2"], "sequence": 4294967295, "scriptSig": {"hex": "", "asm": ""}, "vout": 1, "txid": "b52052d1abc777edc51faacb91be66d5b2d5d75a24a9c207c26169aa170be017"}], "txid": "42aacce6028ace214437430b71318617065881d2389c9bc2fd68ad3c660fc257", "blocktime": 1537870564, "version": 1, "confirmations": 11515, "time": 1537870564, "locktime": 0, "vsize": 153, "size": 235}