{"hash": "42ab57e71e77d5a4760e7d48e822ad9859ca7e24ff92eef667132662bb6470c9", "blockhash": "0000000000000000001f76057863aec43deb6fa401d9628bb513d65a8098bfab", "vout": [{"scriptPubKey": {"reqSigs": 1, "hex": "76a914ee01e3b9347e3789e23193dacae4e81a95af330788ac", "addresses": ["1NhU5wiyLEGk8UQf5tYQMdkEEEhKxfEj5S"], "asm": "OP_DUP OP_HASH160 ee01e3b9347e3789e23193dacae4e81a95af3307 OP_EQUALVERIFY OP_CHECKSIG", "type": "pubkeyhash"}, "value": 0.00593071, "n": 0}, {"scriptPubKey": {"reqSigs": 1, "hex": "76a914935fd1988502e42708da9a1d41fd7ee93a3fc2c888ac", "addresses": ["1ESF7oUtAfbyzkhhKFft7V62ynhNhvFciN"], "asm": "OP_DUP OP_HASH160 935fd1988502e42708da9a1d41fd7ee93a3fc2c8 OP_EQUALVERIFY OP_CHECKSIG", "type": "pubkeyhash"}, "value": 0.06725551, "n": 1}], "hex": "01000000018aff229cec6324e7688b819109b18c6e55962b0c8c8895bb583c4d6aed9e0c61150000006a47304402206f6d743e2d97e6b9b45e50a55a81aed91319965f31f6dc6ab3436f2413804bd3022042f4f13651845d0e0ba8217d0a4bce8bc0981c09714afcd7fd33c5ba123a254c0121038c107cc226fb948f8c9966e7ebebb591adc4f6f1d87d665d6faf856cd217a26affffffff02af0c0900000000001976a914ee01e3b9347e3789e23193dacae4e81a95af330788acaf9f6600000000001976a914935fd1988502e42708da9a1d41fd7ee93a3fc2c888ac00000000", "vin": [{"sequence": 4294967295, "scriptSig": {"hex": "47304402206f6d743e2d97e6b9b45e50a55a81aed91319965f31f6dc6ab3436f2413804bd3022042f4f13651845d0e0ba8217d0a4bce8bc0981c09714afcd7fd33c5ba123a254c0121038c107cc226fb948f8c9966e7ebebb591adc4f6f1d87d665d6faf856cd217a26a", "asm": "304402206f6d743e2d97e6b9b45e50a55a81aed91319965f31f6dc6ab3436f2413804bd3022042f4f13651845d0e0ba8217d0a4bce8bc0981c09714afcd7fd33c5ba123a254c[ALL] 038c107cc226fb948f8c9966e7ebebb591adc4f6f1d87d665d6faf856cd217a26a"}, "vout": 21, "txid": "610c9eed6a4d3c58bb95888c0c2b96556e8cb10991818b68e72463ec9c22ff8a"}], "txid": "42ab57e71e77d5a4760e7d48e822ad9859ca7e24ff92eef667132662bb6470c9", "blocktime": 1537873891, "version": 1, "confirmations": 11478, "time": 1537873891, "locktime": 0, "vsize": 225, "size": 225}