{"hash": "42abe59a9ec8e78e0564bef96f30075ad6a05ad9d395758b49625ce3e69a28e1", "blockhash": "00000000000000000018f53835495a110e01622372bf6ae95dc86f2b0ab887b0", "vout": [{"scriptPubKey": {"reqSigs": 1, "hex": "a9142139cbc671b6efe0de8be6586f98cff0d9d6426787", "addresses": ["34ihTcMghDuNyg9bV5XBE2QQ5VKw65mHf2"], "asm": "OP_HASH160 2139cbc671b6efe0de8be6586f98cff0d9d64267 OP_EQUAL", "type": "scripthash"}, "value": 3.86e-05, "n": 0}], "hex": "0100000001baa0d640315403744532c79b5166655ea5d8eb83f2834f95c663e3d7f4cdb863000000006b4830450221008fc6a5bf4eeaa754ce074536fed8581a3585d13046235899b5053b46a133efdd02205476120c19032089c32b7610f3899fc649d90c8a32105c3e82dc013ed48cb965012103cc2b475e94e4f5e699cd1ddf52271c80bb68559c4380cacf9fad42b99315f2bcffffffff01140f00000000000017a9142139cbc671b6efe0de8be6586f98cff0d9d642678700000000", "vin": [{"sequence": 4294967295, "scriptSig": {"hex": "4830450221008fc6a5bf4eeaa754ce074536fed8581a3585d13046235899b5053b46a133efdd02205476120c19032089c32b7610f3899fc649d90c8a32105c3e82dc013ed48cb965012103cc2b475e94e4f5e699cd1ddf52271c80bb68559c4380cacf9fad42b99315f2bc", "asm": "30450221008fc6a5bf4eeaa754ce074536fed8581a3585d13046235899b5053b46a133efdd02205476120c19032089c32b7610f3899fc649d90c8a32105c3e82dc013ed48cb965[ALL] 03cc2b475e94e4f5e699cd1ddf52271c80bb68559c4380cacf9fad42b99315f2bc"}, "vout": 0, "txid": "63b8cdf4d7e363c6954f83f283ebd8a55e6566519bc732457403543140d6a0ba"}], "txid": "42abe59a9ec8e78e0564bef96f30075ad6a05ad9d395758b49625ce3e69a28e1", "blocktime": 1537870928, "version": 1, "confirmations": 11514, "time": 1537870928, "locktime": 0, "vsize": 190, "size": 190}