{"hash": "484f92008e0e5683a4996fb122aaeab20dad153a0ca2881d536a876768fae80c", "blockhash": "000000000000000000022b45ed06c6f4ccd3cf7fb5ba4856ebd2e58215665228", "vout": [{"scriptPubKey": {"reqSigs": 1, "hex": "a91430897cc6c9d69f6a2c2f1c651d51f22219f1a4f687", "addresses": ["367f4YWz1VCFaqBqwbTrzwi2b1h2U3w1AF"], "asm": "OP_HASH160 30897cc6c9d69f6a2c2f1c651d51f22219f1a4f6 OP_EQUAL", "type": "scripthash"}, "value": 0.34674552, "n": 0}, {"scriptPubKey": {"reqSigs": 1, "hex": "76a9143f58629d99bb45d5589fb70fe102bea48c05d1f188ac", "addresses": ["16mwTCUemPzhBpgfhKEx7SuBeZSHj4uEE7"], "asm": "OP_DUP OP_HASH160 3f58629d99bb45d5589fb70fe102bea48c05d1f1 OP_EQUALVERIFY OP_CHECKSIG", "type": "pubkeyhash"}, "value": 0.06836, "n": 1}], "hex": "01000000000101f1b55819cc81fd6f4e71c555281e0a88b1091655f7a34e81c8ff535eea43972b0000000023220020bcf9f822194145acea0f3235f4107b5bf1a91b6b9f8489f63bf79ec29b360913ffffffff02781711020000000017a91430897cc6c9d69f6a2c2f1c651d51f22219f1a4f687204f6800000000001976a9143f58629d99bb45d5589fb70fe102bea48c05d1f188ac0400483045022100b90f54d28a83f766840a0e25131cc4fee9f8360af87c13234f4bda28620fcc7d0220165a4bf0702cd3f6e9ea1d47a28c1ce1642c608b063f8436ef4f7ab19d147bcc0147304402205dbe704a0b9a5c5ada0b45df3477d99038d50ab22bcf8006e4eec4eef7c542cb02204a0df38083707e85c49ab79eb4a7a716e396fcef6b1a07d577b68452b176b7f801695221026c8f72b9e63db63907115e65d4da86eaae595b22fdc85ec75301bb4adbf203582103806535be3e3920e5eedee92de5714188fd6a784f2bf7b04f87de0b9c3ae1ecdb21024b23bfdce2afcae7e28c42f7f79aa100f22931712c52d7414a526ba494d44a2553ae00000000", "vin": [{"txinwitness": ["", "3045022100b90f54d28a83f766840a0e25131cc4fee9f8360af87c13234f4bda28620fcc7d0220165a4bf0702cd3f6e9ea1d47a28c1ce1642c608b063f8436ef4f7ab19d147bcc01", "304402205dbe704a0b9a5c5ada0b45df3477d99038d50ab22bcf8006e4eec4eef7c542cb02204a0df38083707e85c49ab79eb4a7a716e396fcef6b1a07d577b68452b176b7f801", "5221026c8f72b9e63db63907115e65d4da86eaae595b22fdc85ec75301bb4adbf203582103806535be3e3920e5eedee92de5714188fd6a784f2bf7b04f87de0b9c3ae1ecdb21024b23bfdce2afcae7e28c42f7f79aa100f22931712c52d7414a526ba494d44a2553ae"], "sequence": 4294967295, "scriptSig": {"hex": "220020bcf9f822194145acea0f3235f4107b5bf1a91b6b9f8489f63bf79ec29b360913", "asm": "0020bcf9f822194145acea0f3235f4107b5bf1a91b6b9f8489f63bf79ec29b360913"}, "vout": 0, "txid": "2b9743ea5e53ffc8814ea3f7551609b1880a1e2855c5714e6ffd81cc1958b5f1"}], "txid": "42b1fadf9dabca1a1e0aee27996ff70f9287e4c28f196154286b2d839e7e436d", "blocktime": 1537869901, "version": 1, "confirmations": 11522, "time": 1537869901, "locktime": 0, "vsize": 216, "size": 407}