{"hash": "42b72d886cd679530d85d35943c1351177bc3837f8246eb0f53cb48e45fc1988", "blockhash": "0000000000000000000e13cef7c366c0283d82e591d1acd082e914b08063cdf1", "vout": [{"scriptPubKey": {"reqSigs": 1, "hex": "76a9141bda98964b908b87bd4331a0af3bfce1fdd171c188ac", "addresses": ["13YH7Vvu4T3zniLMDUfshY4es2M299gTGc"], "asm": "OP_DUP OP_HASH160 1bda98964b908b87bd4331a0af3bfce1fdd171c1 OP_EQUALVERIFY OP_CHECKSIG", "type": "pubkeyhash"}, "value": 0.00997454, "n": 0}, {"scriptPubKey": {"reqSigs": 1, "hex": "76a9148578b0b002d392602ae7d472c345ac9fbe9c03d488ac", "addresses": ["1DAjTDSnLNiV1JP7yho47vQT24MSa63PQ1"], "asm": "OP_DUP OP_HASH160 8578b0b002d392602ae7d472c345ac9fbe9c03d4 OP_EQUALVERIFY OP_CHECKSIG", "type": "pubkeyhash"}, "value": 0.0099899, "n": 1}, {"scriptPubKey": {"reqSigs": 1, "hex": "76a914e08402c39ee4415afb1ae85b60918c632495652488ac", "addresses": ["1MU8WEynz77abgbGfP5X9bHHoN4xnzv21z"], "asm": "OP_DUP OP_HASH160 e08402c39ee4415afb1ae85b60918c6324956524 OP_EQUALVERIFY OP_CHECKSIG", "type": "pubkeyhash"}, "value": 0.06002715, "n": 2}, {"scriptPubKey": {"reqSigs": 1, "hex": "76a914af3c347e7bacca2c49135cc54cfa06dcb9b9f5f688ac", "addresses": ["1GyZNh57fkC5RpsEV9ncV4DxgQvKc518f6"], "asm": "OP_DUP OP_HASH160 af3c347e7bacca2c49135cc54cfa06dcb9b9f5f6 OP_EQUALVERIFY OP_CHECKSIG", "type": "pubkeyhash"}, "value": 0.00885184, "n": 3}], "hex": "0200000003afb472c3456b2299c362adabd922d2bf376f544ce34851b8486aa3dbd255d90b010000006a47304402206b158a2fb2da6f6c1ba00a8cb2d8c5bd399e4096a8d3884564986456cf85bda202206180d02551ed343acc870d06904469e4ed6cf735eb139086b52449fc6bcb9294012103d1971c5f5b63c607d64c43bab162d41ae49978d1b0ad617507a0a26fc822c5fffeffffff4a2c0d13baa324ea73cd88efc568e693224e29119362e4fa84f289e82f206f34070000006b483045022100f5172499bebcee8d1f36da9cf77d66c0489f370a6d01d5447cfc0c3b012f69e20220729b6dbc786102ea43bcc7ccc0e9a47a791f5c4572bed4f3e1853d76c7d3f261012103abf85ede60dd020f2baecc99c6307c956f57d409cc78f620b4c0b9d9380fb84afeffffff3ebece02f352845a45491a989eff26e1064010b9aed88cbcd7691b1a4da0b4f2010000006a47304402207d0d559a4fedbf3729b09d34e3127d2883da7e379865b22a720bb8f7150ad41a0220042bd5652e5e592137c57d50f2271b220ca96cc5264ae237e6a514dea5cb8ae7012102d4bbf1891e4a113ab5034affd2f9dcd077787f523d590323f69ef73dfbd43e13feffffff044e380f00000000001976a9141bda98964b908b87bd4331a0af3bfce1fdd171c188ac4e3e0f00000000001976a9148578b0b002d392602ae7d472c345ac9fbe9c03d488ac1b985b00000000001976a914e08402c39ee4415afb1ae85b60918c632495652488acc0810d00000000001976a914af3c347e7bacca2c49135cc54cfa06dcb9b9f5f688ac00000000", "vin": [{"sequence": 4294967294, "scriptSig": {"hex": "47304402206b158a2fb2da6f6c1ba00a8cb2d8c5bd399e4096a8d3884564986456cf85bda202206180d02551ed343acc870d06904469e4ed6cf735eb139086b52449fc6bcb9294012103d1971c5f5b63c607d64c43bab162d41ae49978d1b0ad617507a0a26fc822c5ff", "asm": "304402206b158a2fb2da6f6c1ba00a8cb2d8c5bd399e4096a8d3884564986456cf85bda202206180d02551ed343acc870d06904469e4ed6cf735eb139086b52449fc6bcb9294[ALL] 03d1971c5f5b63c607d64c43bab162d41ae49978d1b0ad617507a0a26fc822c5ff"}, "vout": 1, "txid": "0bd955d2dba36a48b85148e34c546f37bfd222d9abad62c399226b45c372b4af"}, {"sequence": 4294967294, "scriptSig": {"hex": "483045022100f5172499bebcee8d1f36da9cf77d66c0489f370a6d01d5447cfc0c3b012f69e20220729b6dbc786102ea43bcc7ccc0e9a47a791f5c4572bed4f3e1853d76c7d3f261012103abf85ede60dd020f2baecc99c6307c956f57d409cc78f620b4c0b9d9380fb84a", "asm": "3045022100f5172499bebcee8d1f36da9cf77d66c0489f370a6d01d5447cfc0c3b012f69e20220729b6dbc786102ea43bcc7ccc0e9a47a791f5c4572bed4f3e1853d76c7d3f261[ALL] 03abf85ede60dd020f2baecc99c6307c956f57d409cc78f620b4c0b9d9380fb84a"}, "vout": 7, "txid": "346f202fe889f284fae4629311294e2293e668c5ef88cd73ea24a3ba130d2c4a"}, {"sequence": 4294967294, "scriptSig": {"hex": "47304402207d0d559a4fedbf3729b09d34e3127d2883da7e379865b22a720bb8f7150ad41a0220042bd5652e5e592137c57d50f2271b220ca96cc5264ae237e6a514dea5cb8ae7012102d4bbf1891e4a113ab5034affd2f9dcd077787f523d590323f69ef73dfbd43e13", "asm": "304402207d0d559a4fedbf3729b09d34e3127d2883da7e379865b22a720bb8f7150ad41a0220042bd5652e5e592137c57d50f2271b220ca96cc5264ae237e6a514dea5cb8ae7[ALL] 02d4bbf1891e4a113ab5034affd2f9dcd077787f523d590323f69ef73dfbd43e13"}, "vout": 1, "txid": "f2b4a04d1a1b69d7bc8cd8aeb9104006e126ff9e981a49455a8452f302cebe3e"}], "txid": "42b72d886cd679530d85d35943c1351177bc3837f8246eb0f53cb48e45fc1988", "blocktime": 1537871767, "version": 2, "confirmations": 11493, "time": 1537871767, "locktime": 0, "vsize": 588, "size": 588}