{"hash": "8522e496b7324ca4aab9fce99e46bcd713cc911d2691e23f27ce35a2152015bc", "blockhash": "0000000000000000000e13cef7c366c0283d82e591d1acd082e914b08063cdf1", "vout": [{"scriptPubKey": {"reqSigs": 1, "hex": "0014d655904ed3c5144fb80fc0d4795448366b72fdfe", "addresses": ["bc1q6e2eqnknc52ylwq0cr28j4zgxe4h9l079f8p70"], "asm": "0 d655904ed3c5144fb80fc0d4795448366b72fdfe", "type": "witness_v0_keyhash"}, "value": 0.00628493, "n": 0}, {"scriptPubKey": {"reqSigs": 1, "hex": "76a91462f9a19bb360a0c3c690c954a73ac93b0defb7bb88ac", "addresses": ["1A2LGV8JrkBhHwfUaMMLy55eF2uQ2wYnWE"], "asm": "OP_DUP OP_HASH160 62f9a19bb360a0c3c690c954a73ac93b0defb7bb OP_EQUALVERIFY OP_CHECKSIG", "type": "pubkeyhash"}, "value": 0.010552, "n": 1}], "hex": "01000000000101078074e926f02bc7cbe08d2292278c9ef91e97e6bb4a243dcffe9ea881664b3c1f0000001716001459c8d1f91ed0b3bda2ef43d3ce5ff4aa305ed7deffffffff020d97090000000000160014d655904ed3c5144fb80fc0d4795448366b72fdfee0191000000000001976a91462f9a19bb360a0c3c690c954a73ac93b0defb7bb88ac0247304402203107ed777c00f9a62a9a309b5c5b1cb1c4fcd8113e4fca0327c90d0a6687f82c0220523baa39e7c829f87489f7ee5073579658d9210f675e8cf4338f06514675107901210353255a565a9e97cca1c41f4ac8786e01b0b8ee0b0f52179dc723c9b5cafca98b00000000", "vin": [{"txinwitness": ["304402203107ed777c00f9a62a9a309b5c5b1cb1c4fcd8113e4fca0327c90d0a6687f82c0220523baa39e7c829f87489f7ee5073579658d9210f675e8cf4338f06514675107901", "0353255a565a9e97cca1c41f4ac8786e01b0b8ee0b0f52179dc723c9b5cafca98b"], "sequence": 4294967295, "scriptSig": {"hex": "16001459c8d1f91ed0b3bda2ef43d3ce5ff4aa305ed7de", "asm": "001459c8d1f91ed0b3bda2ef43d3ce5ff4aa305ed7de"}, "vout": 31, "txid": "3c4b6681a89efecf3d244abbe6971ef99e8c2792228de0cbc72bf026e9748007"}], "txid": "42c2e127c39614986bf05f2e97930775120a9e1dcdf885c16998a7d60ecb933d", "blocktime": 1537871767, "version": 1, "confirmations": 11495, "time": 1537871767, "locktime": 0, "vsize": 167, "size": 248}