{"hash": "4567f7fa4f7dfaec0e243994a937dea5b2624dcb909261dbced7e23cb0a6f788", "blockhash": "0000000000000000001f76057863aec43deb6fa401d9628bb513d65a8098bfab", "vout": [{"scriptPubKey": {"reqSigs": 1, "hex": "a914215e061068fd232c27832039340a868df2027edf87", "addresses": ["34jSrkiTwU9u9jQTZWQ2z4yAHhMbzEv59K"], "asm": "OP_HASH160 215e061068fd232c27832039340a868df2027edf OP_EQUAL", "type": "scripthash"}, "value": 0.00500554, "n": 0}, {"scriptPubKey": {"reqSigs": 1, "hex": "a914d6b3d99aa786095e2a57bb34f8b6966f25d9b75687", "addresses": ["3MGFynz7BM25DeV1dUH64uC4jeFCDE6vyb"], "asm": "OP_HASH160 d6b3d99aa786095e2a57bb34f8b6966f25d9b756 OP_EQUAL", "type": "scripthash"}, "value": 3.14365129, "n": 1}], "hex": "020000000001012c18ba24404c15f6371c5ab1cf2c29538fe30388be82bdf77251e15ed85ace3601000000171600143d7fede37a221a47c5fad0f7492905c959df8aedffffffff024aa307000000000017a914215e061068fd232c27832039340a868df2027edf87c9d4bc120000000017a914d6b3d99aa786095e2a57bb34f8b6966f25d9b7568702483045022100f7b1bf455ba670f01b594a33b54bf7bf1d81d127aaddd76febe3d848018e516602205ca7250b482c1fb0076c3cfdc650e3f44da8eb8e5d79714f471ee800def9d2720121038dd69cdca2cea3040ffaec9b9cb77f2ec4385f242a935624a4e758ba003c193c00000000", "vin": [{"txinwitness": ["3045022100f7b1bf455ba670f01b594a33b54bf7bf1d81d127aaddd76febe3d848018e516602205ca7250b482c1fb0076c3cfdc650e3f44da8eb8e5d79714f471ee800def9d27201", "038dd69cdca2cea3040ffaec9b9cb77f2ec4385f242a935624a4e758ba003c193c"], "sequence": 4294967295, "scriptSig": {"hex": "1600143d7fede37a221a47c5fad0f7492905c959df8aed", "asm": "00143d7fede37a221a47c5fad0f7492905c959df8aed"}, "vout": 1, "txid": "36ce5ad85ee15172f7bd82be8803e38f53292ccfb15a1c37f6154c4024ba182c"}], "txid": "42c44b9ac39b632c11ab6721a3d979db9d412cfb45436dd34e1b5e367e3c7376", "blocktime": 1537873891, "version": 2, "confirmations": 11478, "time": 1537873891, "locktime": 0, "vsize": 166, "size": 248}