{"hash": "68692ff95fa7a911714be54e5082cf7c58ec971c23df6cf54b5c203c4c1a2f38", "blockhash": "0000000000000000001f76057863aec43deb6fa401d9628bb513d65a8098bfab", "vout": [{"scriptPubKey": {"reqSigs": 1, "hex": "0014939d872c2ad3736847a97eac759bd5aafd14d799", "addresses": ["bc1qjwwcwtp26deks3af06k8tx744t73f4ue5acazf"], "asm": "0 939d872c2ad3736847a97eac759bd5aafd14d799", "type": "witness_v0_keyhash"}, "value": 1.744e-05, "n": 0}, {"scriptPubKey": {"reqSigs": 1, "hex": "76a9148330463ae4baf7c797db1235b278c2b85be2999e88ac", "addresses": ["1CxfMHnkczYCw7zEfER2RXrbxqivhYM4cr"], "asm": "OP_DUP OP_HASH160 8330463ae4baf7c797db1235b278c2b85be2999e OP_EQUALVERIFY OP_CHECKSIG", "type": "pubkeyhash"}, "value": 0.00464093, "n": 1}], "hex": "01000000000101a036ce1f765b1289bb947507962517d24f4257f65b2bb31e92c45a1df2c824a05a00000017160014e328c98c3fc8757bd8d723661802965a6c5a2773ffffffff02d006000000000000160014939d872c2ad3736847a97eac759bd5aafd14d799dd140700000000001976a9148330463ae4baf7c797db1235b278c2b85be2999e88ac0247304402203af75d5dfd02b27b4163fd2eaadf737f9c15f0e61abccacb9e2b49aaa0605cf80220592daf0f8bff24d45e87c02f46f173fc9d3a5314ea00443445a026e9f91bee79012102e3bb680b8958102253df90ecb70d853eae7123e8286b7469b1c2681a529ee30300000000", "vin": [{"txinwitness": ["304402203af75d5dfd02b27b4163fd2eaadf737f9c15f0e61abccacb9e2b49aaa0605cf80220592daf0f8bff24d45e87c02f46f173fc9d3a5314ea00443445a026e9f91bee7901", "02e3bb680b8958102253df90ecb70d853eae7123e8286b7469b1c2681a529ee303"], "sequence": 4294967295, "scriptSig": {"hex": "160014e328c98c3fc8757bd8d723661802965a6c5a2773", "asm": "0014e328c98c3fc8757bd8d723661802965a6c5a2773"}, "vout": 90, "txid": "a024c8f21d5ac4921eb32b5bf657424fd2172596077594bb89125b761fce36a0"}], "txid": "42c70c95d7a816db2e64124861f56208149d0df4f4bef73cfcf0857cec07a4c6", "blocktime": 1537873891, "version": 1, "confirmations": 11478, "time": 1537873891, "locktime": 0, "vsize": 167, "size": 248}