{"hash": "dc263fb25466933d80412a4a9239183b68f3a233009535d31d444cbfe4e4140a", "blockhash": "0000000000000000000e13cef7c366c0283d82e591d1acd082e914b08063cdf1", "vout": [{"scriptPubKey": {"reqSigs": 1, "hex": "a914600261f3c8af48716167aa886c79965eac83e0ce87", "addresses": ["3ASfeWNboJhBy6CgmzNE63ZxCnqFPUuLU6"], "asm": "OP_HASH160 600261f3c8af48716167aa886c79965eac83e0ce OP_EQUAL", "type": "scripthash"}, "value": 0.01099369, "n": 0}, {"scriptPubKey": {"reqSigs": 1, "hex": "76a914368350fc3800143a4f2e6ba7f6ad7af004ed4dbd88ac", "addresses": ["15yEoNxvvWJ7ts7MYVc43kNmxh3UkWJeMi"], "asm": "OP_DUP OP_HASH160 368350fc3800143a4f2e6ba7f6ad7af004ed4dbd OP_EQUALVERIFY OP_CHECKSIG", "type": "pubkeyhash"}, "value": 0.0018266, "n": 1}], "hex": "0200000000010277c38033f33758db00ba08c26d061e389a653fcde6f9e5b04a682a751e3971b200000000171600145241b8e83ea089cbd37e800d691313845d3d9469feffffff7fa5d9cdf002cdc27172d579904c386f1ea50270220da4eed9c77aaf4cb38b0301000000171600141b091f6603aca18b8e8795c7e9ed489ae8a32c01feffffff0269c610000000000017a914600261f3c8af48716167aa886c79965eac83e0ce8784c90200000000001976a914368350fc3800143a4f2e6ba7f6ad7af004ed4dbd88ac0247304402204799281aae95572d44e717ddd86e9ba1871010bc879304924ccd6ac8f7be6ba602205a96610f988cac2e21f8f09b8a89378485b77c59482010be640a2cc153711090012103507c45e617dda05e68a705b9e6c1015c656c6815bb38d020bdf5d70fc5a564390247304402204577549eb2c808741a81c9cdaea27697e60c734916849bc9ad900f124f2ac3e20220380d2e5525d6edc7e61d364964a09e5b49134f72fa9e58199796019c5487d73a012102e781c2b42a0882fc161b985c1f7050f89ca02ee4a80dfa3ab4f4bcf644031e58f2480800", "vin": [{"txinwitness": ["304402204799281aae95572d44e717ddd86e9ba1871010bc879304924ccd6ac8f7be6ba602205a96610f988cac2e21f8f09b8a89378485b77c59482010be640a2cc15371109001", "03507c45e617dda05e68a705b9e6c1015c656c6815bb38d020bdf5d70fc5a56439"], "sequence": 4294967294, "scriptSig": {"hex": "1600145241b8e83ea089cbd37e800d691313845d3d9469", "asm": "00145241b8e83ea089cbd37e800d691313845d3d9469"}, "vout": 0, "txid": "b271391e752a684ab0e5f9e6cd3f659a381e066dc208ba00db5837f33380c377"}, {"txinwitness": ["304402204577549eb2c808741a81c9cdaea27697e60c734916849bc9ad900f124f2ac3e20220380d2e5525d6edc7e61d364964a09e5b49134f72fa9e58199796019c5487d73a01", "02e781c2b42a0882fc161b985c1f7050f89ca02ee4a80dfa3ab4f4bcf644031e58"], "sequence": 4294967294, "scriptSig": {"hex": "1600141b091f6603aca18b8e8795c7e9ed489ae8a32c01", "asm": "00141b091f6603aca18b8e8795c7e9ed489ae8a32c01"}, "vout": 1, "txid": "038bb34caf7ac7d9eea40d227002a51e6f384c9079d57271c2cd02f0cdd9a57f"}], "txid": "42cb2206d0d38ea8182253dc01a16e09d7d732aaad07c37e7cd09fe159d6930a", "blocktime": 1537871767, "version": 2, "confirmations": 11495, "time": 1537871767, "locktime": 542962, "vsize": 258, "size": 420}