{"hash": "42d0b793d922ba9347f91921d84c30de04f7f73634a6cf0643b6b9e8aa909a6a", "blockhash": "0000000000000000000baef3f32e3676a92c3b2e5da21b426e4f302fc371ce76", "vout": [{"scriptPubKey": {"reqSigs": 1, "hex": "76a914382ce655e1cdd01af2d9e46573e9fbd0bb749d3688ac", "addresses": ["1682dS3BbTDCgAgnRYMNhDwEGYjRpaS3h3"], "asm": "OP_DUP OP_HASH160 382ce655e1cdd01af2d9e46573e9fbd0bb749d36 OP_EQUALVERIFY OP_CHECKSIG", "type": "pubkeyhash"}, "value": 0.003243, "n": 0}, {"scriptPubKey": {"type": "nulldata", "hex": "6a146f6d6e69000000000000001f00000021c6463290", "asm": "OP_RETURN 6f6d6e69000000000000001f00000021c6463290"}, "value": 0.0, "n": 1}, {"scriptPubKey": {"reqSigs": 1, "hex": "76a91456ab215bd6ce1663729bd3020f094fc54f52f46988ac", "addresses": ["18uG7qhYrNi4AvdeJMExg6oX7dEXZDCkuX"], "asm": "OP_DUP OP_HASH160 56ab215bd6ce1663729bd3020f094fc54f52f469 OP_EQUALVERIFY OP_CHECKSIG", "type": "pubkeyhash"}, "value": 5.46e-06, "n": 2}], "hex": "0100000004e2fbbf265fd6f39468403754e0e892e69fab9bfbe06e952be946676a804159c0010000006b483045022100a55c73ba722e617b9ab971dcdc37681d6d134b9b08b41caa4331adcff09e2ed202206c377e92d6a9b79e83728b882cf279ed9196fa3b87bdc32c6adc1198857ba07d0121021c3150cfd5a34dfde761102917cd4535031b839891db5d44de0a25d0b053d388ffffffff76e9142d2d2dd518f5f3b3fcec3b75a59dd6d7340078583b1bf83621c9fa00e3020000006a47304402201f6af54a02d87356d0e448dae39801c9c807fd8b65a3dfdc4095056c479763540220081b20579373871a8224b27d0e8d5ac077921b76f385c35a22a54ced953f965a0121021c3150cfd5a34dfde761102917cd4535031b839891db5d44de0a25d0b053d388ffffffffb8f8ac225fe31ee05a55892b3ca752dfe058ac0aca7930fa2298db46a8be53a4010000006b48304502210095778851193b3d13ad10eeffd3a467c5678f9c41ad4019be7e65558635dca52102200af614742d874a0d217261b089c10e4f19115772646b271ebad4eb3609f7b1620121021c3150cfd5a34dfde761102917cd4535031b839891db5d44de0a25d0b053d388ffffffff61646b66236d141e83afdf0a80c600a1d3f4b9811ac8a55ca2e1e7b767d3d3e1000000006b48304502210088130a8a36fed7bff8546d78a0216904adffbd9b9804c33aa61110d3a2b2062702203a114b11e3921f5a9c7d9b2a76b11b1ae6f4d463f60b6552c9d07506e7f3f2a00121039000d0616967dd25f800d8a8f45648c89fb366c2caeefd348010ea3a8f9a69ffffffffff03ccf20400000000001976a914382ce655e1cdd01af2d9e46573e9fbd0bb749d3688ac0000000000000000166a146f6d6e69000000000000001f00000021c646329022020000000000001976a91456ab215bd6ce1663729bd3020f094fc54f52f46988ac00000000", "vin": [{"sequence": 4294967295, "scriptSig": {"hex": "483045022100a55c73ba722e617b9ab971dcdc37681d6d134b9b08b41caa4331adcff09e2ed202206c377e92d6a9b79e83728b882cf279ed9196fa3b87bdc32c6adc1198857ba07d0121021c3150cfd5a34dfde761102917cd4535031b839891db5d44de0a25d0b053d388", "asm": "3045022100a55c73ba722e617b9ab971dcdc37681d6d134b9b08b41caa4331adcff09e2ed202206c377e92d6a9b79e83728b882cf279ed9196fa3b87bdc32c6adc1198857ba07d[ALL] 021c3150cfd5a34dfde761102917cd4535031b839891db5d44de0a25d0b053d388"}, "vout": 1, "txid": "c05941806a6746e92b956ee0fb9bab9fe692e8e05437406894f3d65f26bffbe2"}, {"sequence": 4294967295, "scriptSig": {"hex": "47304402201f6af54a02d87356d0e448dae39801c9c807fd8b65a3dfdc4095056c479763540220081b20579373871a8224b27d0e8d5ac077921b76f385c35a22a54ced953f965a0121021c3150cfd5a34dfde761102917cd4535031b839891db5d44de0a25d0b053d388", "asm": "304402201f6af54a02d87356d0e448dae39801c9c807fd8b65a3dfdc4095056c479763540220081b20579373871a8224b27d0e8d5ac077921b76f385c35a22a54ced953f965a[ALL] 021c3150cfd5a34dfde761102917cd4535031b839891db5d44de0a25d0b053d388"}, "vout": 2, "txid": "e300fac92136f81b3b58780034d7d69da5753becfcb3f3f518d52d2d2d14e976"}, {"sequence": 4294967295, "scriptSig": {"hex": "48304502210095778851193b3d13ad10eeffd3a467c5678f9c41ad4019be7e65558635dca52102200af614742d874a0d217261b089c10e4f19115772646b271ebad4eb3609f7b1620121021c3150cfd5a34dfde761102917cd4535031b839891db5d44de0a25d0b053d388", "asm": "304502210095778851193b3d13ad10eeffd3a467c5678f9c41ad4019be7e65558635dca52102200af614742d874a0d217261b089c10e4f19115772646b271ebad4eb3609f7b162[ALL] 021c3150cfd5a34dfde761102917cd4535031b839891db5d44de0a25d0b053d388"}, "vout": 1, "txid": "a453bea846db9822fa3079ca0aac58e0df52a73c2b89555ae01ee35f22acf8b8"}, {"sequence": 4294967295, "scriptSig": {"hex": "48304502210088130a8a36fed7bff8546d78a0216904adffbd9b9804c33aa61110d3a2b2062702203a114b11e3921f5a9c7d9b2a76b11b1ae6f4d463f60b6552c9d07506e7f3f2a00121039000d0616967dd25f800d8a8f45648c89fb366c2caeefd348010ea3a8f9a69ff", "asm": "304502210088130a8a36fed7bff8546d78a0216904adffbd9b9804c33aa61110d3a2b2062702203a114b11e3921f5a9c7d9b2a76b11b1ae6f4d463f60b6552c9d07506e7f3f2a0[ALL] 039000d0616967dd25f800d8a8f45648c89fb366c2caeefd348010ea3a8f9a69ff"}, "vout": 0, "txid": "e1d3d367b7e7e1a25ca5c81a81b9f4d3a100c6800adfaf831e146d23666b6461"}], "txid": "42d0b793d922ba9347f91921d84c30de04f7f73634a6cf0643b6b9e8aa909a6a", "blocktime": 1537876114, "version": 1, "confirmations": 11460, "time": 1537876114, "locktime": 0, "vsize": 700, "size": 700}