{"hash": "42d4826eba66d7e2cffa382d5963e378139ac76fd0a84748264c7dec3ac9a7a5", "blockhash": "00000000000000000018f53835495a110e01622372bf6ae95dc86f2b0ab887b0", "vout": [{"scriptPubKey": {"type": "nulldata", "hex": "6a146f6d6e69000000000000001f0000000ba43b7400", "asm": "OP_RETURN 6f6d6e69000000000000001f0000000ba43b7400"}, "value": 0.0, "n": 0}, {"scriptPubKey": {"reqSigs": 1, "hex": "76a91469fc9ddc20c8d630dddd40912b0f2bcc3f5b484588ac", "addresses": ["1AfQaFjfACsDbhVeDs32bNngk9NmGSj8UY"], "asm": "OP_DUP OP_HASH160 69fc9ddc20c8d630dddd40912b0f2bcc3f5b4845 OP_EQUALVERIFY OP_CHECKSIG", "type": "pubkeyhash"}, "value": 6e-06, "n": 1}, {"scriptPubKey": {"reqSigs": 1, "hex": "76a9140e49b81f43f719255334d008a790ef674e2e72c288ac", "addresses": ["12JYmnfYU2ghzjwUAspzJsSnmJtK9bZPYR"], "asm": "OP_DUP OP_HASH160 0e49b81f43f719255334d008a790ef674e2e72c2 OP_EQUALVERIFY OP_CHECKSIG", "type": "pubkeyhash"}, "value": 0.05732752, "n": 2}, {"scriptPubKey": {"reqSigs": 1, "hex": "76a914b314d095b18e474e6a33db4f0db80115ae00466688ac", "addresses": ["1HKttaJcctpfnEfbcKYzcVFB218B1yXEeN"], "asm": "OP_DUP OP_HASH160 b314d095b18e474e6a33db4f0db80115ae004666 OP_EQUALVERIFY OP_CHECKSIG", "type": "pubkeyhash"}, "value": 6e-06, "n": 3}], "hex": "0100000002f610b91c04d17730c6e7ca828ca4009e5d591d0d37f0a8a7ebfadf955432bf01010000006b483045022100c09d07a0c763c57e60d33abdcfe2537e1b45b9c8ec7eec6e3f928debd0ec9a340220083a030af28890cb746f5dd6c10ec02e791d1f7e11d6e1f678dc84d9b65a80a40121039842767fee450dade8e8054e196137c5d961695cf46e4ae064236de51c20690cffffffff46c203efe12a09999a2ec9e89ea8a817cd8a151ba436cfd8dfbdaa0f22f5a090020000006a4730440220514dbec658bf34af81a58c2eda8654d72dcb907c4993778e774a95522102e7110220410ba81fcfd87dc3caea7cfd8fe9e0a4b2e4dd3d1c9ee88a1d4f1285e603d51a01210361f26bf6731f956d2e62ee98a7a9fc6f0d36efdc9e6916973e7986a5ba9d19c4ffffffff040000000000000000166a146f6d6e69000000000000001f0000000ba43b740058020000000000001976a91469fc9ddc20c8d630dddd40912b0f2bcc3f5b484588ac90795700000000001976a9140e49b81f43f719255334d008a790ef674e2e72c288ac58020000000000001976a914b314d095b18e474e6a33db4f0db80115ae00466688ac00000000", "vin": [{"sequence": 4294967295, "scriptSig": {"hex": "483045022100c09d07a0c763c57e60d33abdcfe2537e1b45b9c8ec7eec6e3f928debd0ec9a340220083a030af28890cb746f5dd6c10ec02e791d1f7e11d6e1f678dc84d9b65a80a40121039842767fee450dade8e8054e196137c5d961695cf46e4ae064236de51c20690c", "asm": "3045022100c09d07a0c763c57e60d33abdcfe2537e1b45b9c8ec7eec6e3f928debd0ec9a340220083a030af28890cb746f5dd6c10ec02e791d1f7e11d6e1f678dc84d9b65a80a4[ALL] 039842767fee450dade8e8054e196137c5d961695cf46e4ae064236de51c20690c"}, "vout": 1, "txid": "01bf325495dffaeba7a8f0370d1d595d9e00a48c82cae7c63077d1041cb910f6"}, {"sequence": 4294967295, "scriptSig": {"hex": "4730440220514dbec658bf34af81a58c2eda8654d72dcb907c4993778e774a95522102e7110220410ba81fcfd87dc3caea7cfd8fe9e0a4b2e4dd3d1c9ee88a1d4f1285e603d51a01210361f26bf6731f956d2e62ee98a7a9fc6f0d36efdc9e6916973e7986a5ba9d19c4", "asm": "30440220514dbec658bf34af81a58c2eda8654d72dcb907c4993778e774a95522102e7110220410ba81fcfd87dc3caea7cfd8fe9e0a4b2e4dd3d1c9ee88a1d4f1285e603d51a[ALL] 0361f26bf6731f956d2e62ee98a7a9fc6f0d36efdc9e6916973e7986a5ba9d19c4"}, "vout": 2, "txid": "90a0f5220faabddfd8cf36a41b158acd17a8a89ee8c92e9a99092ae1ef03c246"}], "txid": "42d4826eba66d7e2cffa382d5963e378139ac76fd0a84748264c7dec3ac9a7a5", "blocktime": 1537870928, "version": 1, "confirmations": 11512, "time": 1537870928, "locktime": 0, "vsize": 438, "size": 438}