{"hash": "42d425b3cdf5a1951a708a7a0dd61ac0c1cd757fa126d46457044447373f5114", "blockhash": "0000000000000000000e13cef7c366c0283d82e591d1acd082e914b08063cdf1", "vout": [{"scriptPubKey": {"reqSigs": 1, "hex": "76a914338d0fba3b64024f3f07b57ec974814c941ac12988ac", "addresses": ["15haSuR5ePokJNVt3Usbj2t8DraP3Z51Sy"], "asm": "OP_DUP OP_HASH160 338d0fba3b64024f3f07b57ec974814c941ac129 OP_EQUALVERIFY OP_CHECKSIG", "type": "pubkeyhash"}, "value": 0.0058428, "n": 0}, {"scriptPubKey": {"reqSigs": 1, "hex": "76a914d429d02636886d59b4a1c47487288e1a2a7bd39288ac", "addresses": ["1LLpLtjffjKTTkJuVo3E1KrfWyK4xUKdP3"], "asm": "OP_DUP OP_HASH160 d429d02636886d59b4a1c47487288e1a2a7bd392 OP_EQUALVERIFY OP_CHECKSIG", "type": "pubkeyhash"}, "value": 0.01386331, "n": 1}], "hex": "01000000013880e2d4e694cea0d4592580539c712ef8e64607312909261b06138323f2f36c010000006b483045022100d6a40b1bef673046b2f666326ae45dcd6d2c0f31b3f40333e73c06d0d1a1798802206ff228a0ab553b83e7888bf4a799923f67caf80c536c9e283c0edf0014e6a89c0121030f54f616c5ec828633d8d6dfeb9049cb9e375721667880a0ae2fef6390856183ffffffff0258ea0800000000001976a914338d0fba3b64024f3f07b57ec974814c941ac12988ac5b271500000000001976a914d429d02636886d59b4a1c47487288e1a2a7bd39288ac00000000", "vin": [{"sequence": 4294967295, "scriptSig": {"hex": "483045022100d6a40b1bef673046b2f666326ae45dcd6d2c0f31b3f40333e73c06d0d1a1798802206ff228a0ab553b83e7888bf4a799923f67caf80c536c9e283c0edf0014e6a89c0121030f54f616c5ec828633d8d6dfeb9049cb9e375721667880a0ae2fef6390856183", "asm": "3045022100d6a40b1bef673046b2f666326ae45dcd6d2c0f31b3f40333e73c06d0d1a1798802206ff228a0ab553b83e7888bf4a799923f67caf80c536c9e283c0edf0014e6a89c[ALL] 030f54f616c5ec828633d8d6dfeb9049cb9e375721667880a0ae2fef6390856183"}, "vout": 1, "txid": "6cf3f2238313061b260929310746e6f82e719c53802559d4a0ce94e6d4e28038"}], "txid": "42d425b3cdf5a1951a708a7a0dd61ac0c1cd757fa126d46457044447373f5114", "blocktime": 1537871767, "version": 1, "confirmations": 11493, "time": 1537871767, "locktime": 0, "vsize": 226, "size": 226}