{"hash": "42db3a92ba58073ffe8ac6533cec57276c1797c27a611498a55d63bcd6a79237", "blockhash": "00000000000000000017f5eb5941039fbcee6240d03bc1f2f8e35350df66a1d8", "vout": [{"scriptPubKey": {"reqSigs": 1, "hex": "76a9145b559cef11234c49ab18834646e01f839cfb3b7888ac", "addresses": ["19Kw3xKBhsESVUu12fQGRjuf3VngpPVsCp"], "asm": "OP_DUP OP_HASH160 5b559cef11234c49ab18834646e01f839cfb3b78 OP_EQUALVERIFY OP_CHECKSIG", "type": "pubkeyhash"}, "value": 0.00081322, "n": 0}, {"scriptPubKey": {"reqSigs": 1, "hex": "a914357e41ee71f26334f2ae1aa40f5e9141023c9b9d87", "addresses": ["36ZrzEoSaxTJR1ZAs7AihSJNUBYoiYf6dG"], "asm": "OP_HASH160 357e41ee71f26334f2ae1aa40f5e9141023c9b9d OP_EQUAL", "type": "scripthash"}, "value": 0.004596, "n": 1}], "hex": "0100000002a06c0cabec7be130b4cad6319d8397570b7cd390d3d7812c232eb0088851b20f010000006b483045022100ec3f2d66033b85e27410e37bca68638d388cee38cebb9367a91d56ae7d20682e02202acf0af30edba095b57425475f84db55a84ff37f951f0ad3e420981fe96a2a44012102c8b215bbc879266eca6cf12a432215badee49438e830de9ced5ba5b878a8e43efeffffff01b19755c65fabee42bd62f6dba22e4e0157a3dc9c56ca04d112964ed73d8d39000000006b483045022100df4e28eb6ace442c5eb7d59f8bdf963c89a2e94ac67813dab396fcabe18a05be0220581d84642fbabec84abdfa3226108c22760adfb423da6926e6143db173b8135d012102318ea97a7e09f468b7229316ec57cb56cc56310e11783d7ef4128de8d59ba2f2feffffff02aa3d0100000000001976a9145b559cef11234c49ab18834646e01f839cfb3b7888ac500307000000000017a914357e41ee71f26334f2ae1aa40f5e9141023c9b9d8715490800", "vin": [{"sequence": 4294967294, "scriptSig": {"hex": "483045022100ec3f2d66033b85e27410e37bca68638d388cee38cebb9367a91d56ae7d20682e02202acf0af30edba095b57425475f84db55a84ff37f951f0ad3e420981fe96a2a44012102c8b215bbc879266eca6cf12a432215badee49438e830de9ced5ba5b878a8e43e", "asm": "3045022100ec3f2d66033b85e27410e37bca68638d388cee38cebb9367a91d56ae7d20682e02202acf0af30edba095b57425475f84db55a84ff37f951f0ad3e420981fe96a2a44[ALL] 02c8b215bbc879266eca6cf12a432215badee49438e830de9ced5ba5b878a8e43e"}, "vout": 1, "txid": "0fb2518808b02e232c81d7d390d37c0b5797839d31d6cab430e17becab0c6ca0"}, {"sequence": 4294967294, "scriptSig": {"hex": "483045022100df4e28eb6ace442c5eb7d59f8bdf963c89a2e94ac67813dab396fcabe18a05be0220581d84642fbabec84abdfa3226108c22760adfb423da6926e6143db173b8135d012102318ea97a7e09f468b7229316ec57cb56cc56310e11783d7ef4128de8d59ba2f2", "asm": "3045022100df4e28eb6ace442c5eb7d59f8bdf963c89a2e94ac67813dab396fcabe18a05be0220581d84642fbabec84abdfa3226108c22760adfb423da6926e6143db173b8135d[ALL] 02318ea97a7e09f468b7229316ec57cb56cc56310e11783d7ef4128de8d59ba2f2"}, "vout": 0, "txid": "398d3dd74e9612d104ca569cdca357014e2ea2dbf662bd42eeab5fc65597b101"}], "txid": "42db3a92ba58073ffe8ac6533cec57276c1797c27a611498a55d63bcd6a79237", "blocktime": 1537874412, "version": 1, "confirmations": 11468, "time": 1537874412, "locktime": 542997, "vsize": 372, "size": 372}