{"hash": "e41345c8559da07ca5257234937e5b9df4e771c13bfd853a85c4b3f785256124", "blockhash": "00000000000000000024a2167bbff67b0be802c0b01cdd79e6331c2be6459f87", "vout": [{"scriptPubKey": {"reqSigs": 1, "hex": "76a914387fa245e5dff24015fedfb638b4c24725dcc8d988ac", "addresses": ["169jjuCEH92cLkkwydFnFTj7uG4VvgdeEp"], "asm": "OP_DUP OP_HASH160 387fa245e5dff24015fedfb638b4c24725dcc8d9 OP_EQUALVERIFY OP_CHECKSIG", "type": "pubkeyhash"}, "value": 0.00781166, "n": 0}, {"scriptPubKey": {"reqSigs": 1, "hex": "a914abe96308d788e9080ebcc892630a3acfffbabeec87", "addresses": ["3HN14MERSkHHZfEYWd9FFqim5RsTztAUnW"], "asm": "OP_HASH160 abe96308d788e9080ebcc892630a3acfffbabeec OP_EQUAL", "type": "scripthash"}, "value": 0.09077139, "n": 1}], "hex": "01000000000101cd8cc38e55b93c155569ddd1e6bec4867d50858ab4c471e7b1cdaae5f31f2a7a0100000023220020d6670edfc9e44d3ed67150446b50ab7408e046ffba3dc691b817d402ea5aa932ffffffff026eeb0b00000000001976a914387fa245e5dff24015fedfb638b4c24725dcc8d988ac93818a000000000017a914abe96308d788e9080ebcc892630a3acfffbabeec870400483045022100c5a100657b57200a242f60eca49821a01e075b20ff591962b8dc5358514b3d3602206950ab1f0fa9054efa268027134d91d9b0031637dadb43e31f26c8a282b72f0501483045022100e347ac6673d08dc4f2502858799d57dd9847d0cfe0af810ce47b0f07df93c5370220360aca596e3e6c991aec8ceacfa7d5a9d6fd40cbcfd8d0c4882ec2d9e37e35e9014752210318fb07d2c5d8e0f2c91c5fd47d7961b56f6cfa3d33cca6093cae95077e6490cc2103acc0991ca2f705af88eeaba7371492bb4ea001f16b7b9148cc451062163ca17952ae00000000", "vin": [{"txinwitness": ["", "3045022100c5a100657b57200a242f60eca49821a01e075b20ff591962b8dc5358514b3d3602206950ab1f0fa9054efa268027134d91d9b0031637dadb43e31f26c8a282b72f0501", "3045022100e347ac6673d08dc4f2502858799d57dd9847d0cfe0af810ce47b0f07df93c5370220360aca596e3e6c991aec8ceacfa7d5a9d6fd40cbcfd8d0c4882ec2d9e37e35e901", "52210318fb07d2c5d8e0f2c91c5fd47d7961b56f6cfa3d33cca6093cae95077e6490cc2103acc0991ca2f705af88eeaba7371492bb4ea001f16b7b9148cc451062163ca17952ae"], "sequence": 4294967295, "scriptSig": {"hex": "220020d6670edfc9e44d3ed67150446b50ab7408e046ffba3dc691b817d402ea5aa932", "asm": "0020d6670edfc9e44d3ed67150446b50ab7408e046ffba3dc691b817d402ea5aa932"}, "vout": 1, "txid": "7a2a1ff3e5aacdb1e771c4b48a85507d86c4bee6d1dd6955153cb9558ec38ccd"}], "txid": "42dd836e307fd6f14013c8bc25bd0d5e693f57d68e2dd9c664a7c6ab66262f0b", "blocktime": 1537870564, "version": 1, "confirmations": 11515, "time": 1537870564, "locktime": 0, "vsize": 208, "size": 374}