{"hash": "76b67ceda25306d394fcee46c87215492b3e12fd05e98ee75f33b0c6707d9faf", "blockhash": "0000000000000000000dcc0f55137456b1a82d3642486a52398922ac4d620174", "vout": [{"scriptPubKey": {"reqSigs": 1, "hex": "a914e4ac56434251f4cfba46ded5e64fe9fd0497341987", "addresses": ["3NY8STpeKNzwkhb7N8282uXvUpJnmxWud1"], "asm": "OP_HASH160 e4ac56434251f4cfba46ded5e64fe9fd04973419 OP_EQUAL", "type": "scripthash"}, "value": 0.01024965, "n": 0}, {"scriptPubKey": {"reqSigs": 1, "hex": "a914a872ffc406834d5c77483ca6f9986fe9f050407887", "addresses": ["3H3hD3iv67sF79TJQpy5TfiSvRg6NvFQXQ"], "asm": "OP_HASH160 a872ffc406834d5c77483ca6f9986fe9f0504078 OP_EQUAL", "type": "scripthash"}, "value": 0.03219867, "n": 1}], "hex": "0200000000010322aab1d67fe1f09f176586c93fa0421c87379a55a32f417671609b188bc43bed01000000171600142875b4487f42e0be161693588fb8321ab05fb248feffffff4b84b5a996ab50b396d6d8dd99875d50224a2b174f3810c0ffb675955f0f72b900000000171600140907a48971886c1f701f53809786ff185b67c1aafeffffff5d500b81072d828b3e8679e89099ca64f4286111edd7f47f90bb2e06f9fd459c680100001716001451d3a1abcd87858b99a70628764643b9f95bcd1efeffffff02c5a30f000000000017a914e4ac56434251f4cfba46ded5e64fe9fd04973419879b2131000000000017a914a872ffc406834d5c77483ca6f9986fe9f05040788702483045022100905445eb206023dc15e5994bf3139503ba58786a36bcecca13194f710e6950a8022024211a3777683645bc49f74ae50208f6455ee13de9e1ec6b7246b262258b7b57012102ae2d31f38fed299495e53b7e56a52164756c6c427e1834b07064d2c476c251a102483045022100bbdf39c3da8b00eb8540aa0a022b331ebc015e9ef27b9f7ba787c049b6388615022079db5c5ff6ba1bbe65f2ed0f09df0e657b02c377ca8d6149c8c74e4188786468012102602016d6228d21c76ecc111203b55b6d552dd4acdb8ada8760e8b6dbe6e5553d02483045022100f87df045ec44effb6d6e95b66f520b3d067ebe91848c73e3c1a3e6430a1cef1a022044471ca024d617aee5a094789041135b9429d24d55a3e161e4548548d20a9e0601210277994c8f738197195b56049a76062e5a45329fe019ee27a12fd699eceb659b170c490800", "vin": [{"txinwitness": ["3045022100905445eb206023dc15e5994bf3139503ba58786a36bcecca13194f710e6950a8022024211a3777683645bc49f74ae50208f6455ee13de9e1ec6b7246b262258b7b5701", "02ae2d31f38fed299495e53b7e56a52164756c6c427e1834b07064d2c476c251a1"], "sequence": 4294967294, "scriptSig": {"hex": "1600142875b4487f42e0be161693588fb8321ab05fb248", "asm": "00142875b4487f42e0be161693588fb8321ab05fb248"}, "vout": 1, "txid": "ed3bc48b189b607176412fa3559a37871c42a03fc98665179ff0e17fd6b1aa22"}, {"txinwitness": ["3045022100bbdf39c3da8b00eb8540aa0a022b331ebc015e9ef27b9f7ba787c049b6388615022079db5c5ff6ba1bbe65f2ed0f09df0e657b02c377ca8d6149c8c74e418878646801", "02602016d6228d21c76ecc111203b55b6d552dd4acdb8ada8760e8b6dbe6e5553d"], "sequence": 4294967294, "scriptSig": {"hex": "1600140907a48971886c1f701f53809786ff185b67c1aa", "asm": "00140907a48971886c1f701f53809786ff185b67c1aa"}, "vout": 0, "txid": "b9720f5f9575b6ffc010384f172b4a22505d8799ddd8d696b350ab96a9b5844b"}, {"txinwitness": ["3045022100f87df045ec44effb6d6e95b66f520b3d067ebe91848c73e3c1a3e6430a1cef1a022044471ca024d617aee5a094789041135b9429d24d55a3e161e4548548d20a9e0601", "0277994c8f738197195b56049a76062e5a45329fe019ee27a12fd699eceb659b17"], "sequence": 4294967294, "scriptSig": {"hex": "16001451d3a1abcd87858b99a70628764643b9f95bcd1e", "asm": "001451d3a1abcd87858b99a70628764643b9f95bcd1e"}, "vout": 360, "txid": "9c45fdf9062ebb907ff4d7ed116128f464ca9990e879863e8b822d07810b505d"}], "txid": "42ddc2c9a46d3dce9e1bb1ffa7280a03222a8cd21546bbb1a2a90e783fb6aba1", "blocktime": 1537870268, "version": 2, "confirmations": 11516, "time": 1537870268, "locktime": 542988, "vsize": 348, "size": 592}