{"hash": "42e51d1bf8c582bedb0b1e471ce95d85d32b4a61e2b281e4d40adaef99c30e3f", "blockhash": "0000000000000000000e13cef7c366c0283d82e591d1acd082e914b08063cdf1", "vout": [{"scriptPubKey": {"reqSigs": 1, "hex": "76a914c22993ab54dedfaa7a3b72ed8dc2b510b2fb676088ac", "addresses": ["1Jhdu2Q6Wz6yEbFYHCsSdP1X5jHwVsCmLb"], "asm": "OP_DUP OP_HASH160 c22993ab54dedfaa7a3b72ed8dc2b510b2fb6760 OP_EQUALVERIFY OP_CHECKSIG", "type": "pubkeyhash"}, "value": 0.019, "n": 0}, {"scriptPubKey": {"reqSigs": 1, "hex": "76a91416c2db00db8759e0517a8b179710080e886282d888ac", "addresses": ["135MJ1xVzR3Ui74uivtuMUmquzore2tYFv"], "asm": "OP_DUP OP_HASH160 16c2db00db8759e0517a8b179710080e886282d8 OP_EQUALVERIFY OP_CHECKSIG", "type": "pubkeyhash"}, "value": 0.3673111, "n": 1}], "hex": "010000000131d5f3e41bc57e47fe15e4f6852541309a451fb1fb064df99e3ad76aeef208a9010000006b48304502210097efbd0c39fc8e523465bead5b6da4744d7428acfc4cb1c31e4e3a6eb0136bb302206592c9c5c24c7ef8aab6bd0901147cc0ab256f2eed180aa9cee96ca9a048fc9601210225ea97d51ad9bb00948a5e2b47bcafb7a79e471804b0711cc1242188de199c38ffffffff02e0fd1c00000000001976a914c22993ab54dedfaa7a3b72ed8dc2b510b2fb676088ace6783002000000001976a91416c2db00db8759e0517a8b179710080e886282d888ac00000000", "vin": [{"sequence": 4294967295, "scriptSig": {"hex": "48304502210097efbd0c39fc8e523465bead5b6da4744d7428acfc4cb1c31e4e3a6eb0136bb302206592c9c5c24c7ef8aab6bd0901147cc0ab256f2eed180aa9cee96ca9a048fc9601210225ea97d51ad9bb00948a5e2b47bcafb7a79e471804b0711cc1242188de199c38", "asm": "304502210097efbd0c39fc8e523465bead5b6da4744d7428acfc4cb1c31e4e3a6eb0136bb302206592c9c5c24c7ef8aab6bd0901147cc0ab256f2eed180aa9cee96ca9a048fc96[ALL] 0225ea97d51ad9bb00948a5e2b47bcafb7a79e471804b0711cc1242188de199c38"}, "vout": 1, "txid": "a908f2ee6ad73a9ef94d06fbb11f459a30412585f6e415fe477ec51be4f3d531"}], "txid": "42e51d1bf8c582bedb0b1e471ce95d85d32b4a61e2b281e4d40adaef99c30e3f", "blocktime": 1537871767, "version": 1, "confirmations": 11495, "time": 1537871767, "locktime": 0, "vsize": 226, "size": 226}