{"hash": "d6df6d735cf770db0f620c1400efa1aee317c3c84108d615350119e3c4b2a536", "blockhash": "0000000000000000001cda96e906b7601b7a6fb1a3b62bca570a9e5d8f4b3de1", "vout": [{"scriptPubKey": {"reqSigs": 1, "hex": "001459b418ee91225548a06fb6091681761e838e52e4", "addresses": ["bc1qtx6p3m53yf253gr0kcy3dqtkr6pcu5hyehhn03"], "asm": "0 59b418ee91225548a06fb6091681761e838e52e4", "type": "witness_v0_keyhash"}, "value": 0.00071931, "n": 0}, {"scriptPubKey": {"reqSigs": 1, "hex": "a91488ccd7785c0eeeeeaec88d5e8f21f36a845323b287", "addresses": ["3EAMDHKR2Y4ovjQaKnhEFgkwwHrMQWFYQt"], "asm": "OP_HASH160 88ccd7785c0eeeeeaec88d5e8f21f36a845323b2 OP_EQUAL", "type": "scripthash"}, "value": 0.01717945, "n": 1}], "hex": "01000000000101e58f38affe97d140096c49f0f7fda879956cfef6e1a74dd319827b555be806dc0500000017160014b1cb17bb1b5318c253a6f221c04f5ebeec2d5cabffffffff02fb1801000000000016001459b418ee91225548a06fb6091681761e838e52e4b9361a000000000017a91488ccd7785c0eeeeeaec88d5e8f21f36a845323b28702483045022100bcd96f1d762977f650bfea2f7a01ac622fc5134887246056939ede9d0e60d2ee02203ebc66f25eed488ce0294e6094d126fe78941e127310ad0d2e46d991fcceeb2001210327eb871795ee27e22b98f2f7e0bb99d5908a54b63adcbcb288ef3989e98647b100000000", "vin": [{"txinwitness": ["3045022100bcd96f1d762977f650bfea2f7a01ac622fc5134887246056939ede9d0e60d2ee02203ebc66f25eed488ce0294e6094d126fe78941e127310ad0d2e46d991fcceeb2001", "0327eb871795ee27e22b98f2f7e0bb99d5908a54b63adcbcb288ef3989e98647b1"], "sequence": 4294967295, "scriptSig": {"hex": "160014b1cb17bb1b5318c253a6f221c04f5ebeec2d5cab", "asm": "0014b1cb17bb1b5318c253a6f221c04f5ebeec2d5cab"}, "vout": 5, "txid": "dc06e85b557b8219d34da7e1f6fe6c9579a8fdf7f0496c0940d197feaf388fe5"}], "txid": "42e90db6837c7eac4af170d8ae4d6bf13c774d40b6387e3e8305e65a76251fc1", "blocktime": 1537873282, "version": 1, "confirmations": 11484, "time": 1537873282, "locktime": 0, "vsize": 165, "size": 247}