{"hash": "42ec0bb5c9976227d19059aa10baf25f7cbca78a755111008098ed4b7d364366", "blockhash": "0000000000000000000baef3f32e3676a92c3b2e5da21b426e4f302fc371ce76", "vout": [{"scriptPubKey": {"reqSigs": 1, "hex": "76a914ce2d7629ef7f653ebf03bb9e6166be22d72b4ce588ac", "addresses": ["1KoAfF5usoVct3ewk3Hr8w26AjtuJNNdqt"], "asm": "OP_DUP OP_HASH160 ce2d7629ef7f653ebf03bb9e6166be22d72b4ce5 OP_EQUALVERIFY OP_CHECKSIG", "type": "pubkeyhash"}, "value": 3.896e-05, "n": 0}, {"scriptPubKey": {"reqSigs": 1, "hex": "76a9143a86bec71f4d2a0cd915bcb2e18cefcb253cbe4488ac", "addresses": ["16LTcPYDMoZXEvYiaQw76xwR4UjQp7VntX"], "asm": "OP_DUP OP_HASH160 3a86bec71f4d2a0cd915bcb2e18cefcb253cbe44 OP_EQUALVERIFY OP_CHECKSIG", "type": "pubkeyhash"}, "value": 0.0009, "n": 1}], "hex": "0100000001af7b16c9f05f1ee50087a34f7827ec0db60cd5bc844a9e4c0a0feb7530a7e779000000006a47304402207002b297a94f9109043116453efb351ddddaad6d13a029fa20e5e038b27b4b9c0220132c30c7df33dd73aca02a87c55566567ce0e9db2327c3bdf588ef2d2d4d0db1012103a635d9a60fbe3df99242317aeb915e4bac6a5666135a2a5aa76301677098320afdffffff02380f0000000000001976a914ce2d7629ef7f653ebf03bb9e6166be22d72b4ce588ac905f0100000000001976a9143a86bec71f4d2a0cd915bcb2e18cefcb253cbe4488ac16490800", "vin": [{"sequence": 4294967293, "scriptSig": {"hex": "47304402207002b297a94f9109043116453efb351ddddaad6d13a029fa20e5e038b27b4b9c0220132c30c7df33dd73aca02a87c55566567ce0e9db2327c3bdf588ef2d2d4d0db1012103a635d9a60fbe3df99242317aeb915e4bac6a5666135a2a5aa76301677098320a", "asm": "304402207002b297a94f9109043116453efb351ddddaad6d13a029fa20e5e038b27b4b9c0220132c30c7df33dd73aca02a87c55566567ce0e9db2327c3bdf588ef2d2d4d0db1[ALL] 03a635d9a60fbe3df99242317aeb915e4bac6a5666135a2a5aa76301677098320a"}, "vout": 0, "txid": "79e7a73075eb0f0a4c9e4a84bcd50cb60dec27784fa38700e51e5ff0c9167baf"}], "txid": "42ec0bb5c9976227d19059aa10baf25f7cbca78a755111008098ed4b7d364366", "blocktime": 1537876114, "version": 1, "confirmations": 11461, "time": 1537876114, "locktime": 542998, "vsize": 225, "size": 225}