{"hash": "42edee658f130146839b89d318f130c92126f9e1150d4d4fc0b489b1a082bab4", "blockhash": "000000000000000000205f8b0775d31398ef75b89a5e8ec8d2c57b4dc0ac4c20", "vout": [{"scriptPubKey": {"reqSigs": 1, "hex": "76a914837013f60900379419a1570b3fd1d26a251df87688ac", "addresses": ["1CyynSkAdPa6HJNQzLbivTjPaYz4qPccjF"], "asm": "OP_DUP OP_HASH160 837013f60900379419a1570b3fd1d26a251df876 OP_EQUALVERIFY OP_CHECKSIG", "type": "pubkeyhash"}, "value": 0.21927449, "n": 0}, {"scriptPubKey": {"reqSigs": 1, "hex": "76a914ffbdad1a5c82abd9b4840dbbf66af8ff07ded0c588ac", "addresses": ["1QKEXrF8c4TmkEpSrZ6phSNXc85oWVUzzR"], "asm": "OP_DUP OP_HASH160 ffbdad1a5c82abd9b4840dbbf66af8ff07ded0c5 OP_EQUALVERIFY OP_CHECKSIG", "type": "pubkeyhash"}, "value": 0.23787687, "n": 1}], "hex": "010000000108061e4b0b749bfde087b0aff22725fc169b6f32b4f9db7ed2abe1ee41197033010000006a47304402202532a26eab4e62150ee5eb9770fe6a8921efbc7816f8d9a160bb86007491db6a02204ae6a35f23bb42626395f4228bc9eb4fe75d6e5b46030554e89bfd94ac3712eb0121031afc3f7601c144e949de569ddf7221ec877189bdd56bd2f37b5c7c5100916775fdffffff0219964e01000000001976a914837013f60900379419a1570b3fd1d26a251df87688aca7f86a01000000001976a914ffbdad1a5c82abd9b4840dbbf66af8ff07ded0c588ac0f490800", "vin": [{"sequence": 4294967293, "scriptSig": {"hex": "47304402202532a26eab4e62150ee5eb9770fe6a8921efbc7816f8d9a160bb86007491db6a02204ae6a35f23bb42626395f4228bc9eb4fe75d6e5b46030554e89bfd94ac3712eb0121031afc3f7601c144e949de569ddf7221ec877189bdd56bd2f37b5c7c5100916775", "asm": "304402202532a26eab4e62150ee5eb9770fe6a8921efbc7816f8d9a160bb86007491db6a02204ae6a35f23bb42626395f4228bc9eb4fe75d6e5b46030554e89bfd94ac3712eb[ALL] 031afc3f7601c144e949de569ddf7221ec877189bdd56bd2f37b5c7c5100916775"}, "vout": 1, "txid": "33701941eee1abd27edbf9b4326f9b16fc2527f2afb087e0fd9b740b4b1e0608"}], "txid": "42edee658f130146839b89d318f130c92126f9e1150d4d4fc0b489b1a082bab4", "blocktime": 1537871175, "version": 1, "confirmations": 11511, "time": 1537871175, "locktime": 542991, "vsize": 225, "size": 225}