{"hash": "8a423f05c2b9e2dbe40cb6f0b0d9b4b7029f2eef9bbd28b0cd697f097c44c7c3", "blockhash": "0000000000000000000e13cef7c366c0283d82e591d1acd082e914b08063cdf1", "vout": [{"scriptPubKey": {"reqSigs": 1, "hex": "a914d9646fb9b407e78ce8459241208a853dc173943487", "addresses": ["3MWUschNwAhGybu67FLM3P4Zs4HUZVE8n7"], "asm": "OP_HASH160 d9646fb9b407e78ce8459241208a853dc1739434 OP_EQUAL", "type": "scripthash"}, "value": 0.01749507, "n": 0}, {"scriptPubKey": {"reqSigs": 1, "hex": "00148746c7740f74d4a8bc4afd1bc4b01e72e261b627", "addresses": ["bc1qsarvwaq0wn2230z2l5dufvq7wt3xrd385d64sp"], "asm": "0 8746c7740f74d4a8bc4afd1bc4b01e72e261b627", "type": "witness_v0_keyhash"}, "value": 0.00028446, "n": 1}], "hex": "01000000000101368015b8f5dfc5c9bd69819bf056f5979ae568733f70a1383c9dd487ace6ebd70000000000ffffffff0203b21a000000000017a914d9646fb9b407e78ce8459241208a853dc1739434871e6f0000000000001600148746c7740f74d4a8bc4afd1bc4b01e72e261b6270247304402201729427bdd9c754c2a3e97a6e129806183e53fe6fe417f88791fc47896d3855d0220033c05cc17fa243ae134820ccbbc2c5d2b8c2d6056e997dd81be9925e13c451d012102d926462d6fc7209c1331c03822e7413ec0a1336321b76ef4fd13ae9c529149a100000000", "vin": [{"txinwitness": ["304402201729427bdd9c754c2a3e97a6e129806183e53fe6fe417f88791fc47896d3855d0220033c05cc17fa243ae134820ccbbc2c5d2b8c2d6056e997dd81be9925e13c451d01", "02d926462d6fc7209c1331c03822e7413ec0a1336321b76ef4fd13ae9c529149a1"], "sequence": 4294967295, "scriptSig": {"hex": "", "asm": ""}, "vout": 0, "txid": "d7ebe6ac87d49d3c38a1703f7368e59a97f556f09b8169bdc9c5dff5b8158036"}], "txid": "42ef30e34ba9b54f9a6297e6aa9931647eb619baa39f37d9001dd5a387504e80", "blocktime": 1537871767, "version": 1, "confirmations": 11495, "time": 1537871767, "locktime": 0, "vsize": 142, "size": 223}