{"hash": "42f2cd7d690e07f596c1210d978d3fecc5d507322764477a91a2368c0a221819", "blockhash": "0000000000000000000e13cef7c366c0283d82e591d1acd082e914b08063cdf1", "vout": [{"scriptPubKey": {"reqSigs": 1, "hex": "76a9141cd57bfa39c2b5a6b923acbc34961e2e52ee984788ac", "addresses": ["13dTfX8kwQSU6xDM3XofbAocfLr6njyj4B"], "asm": "OP_DUP OP_HASH160 1cd57bfa39c2b5a6b923acbc34961e2e52ee9847 OP_EQUALVERIFY OP_CHECKSIG", "type": "pubkeyhash"}, "value": 0.0137, "n": 0}, {"scriptPubKey": {"reqSigs": 1, "hex": "76a914a4f0325b65a58af363143c08f2d79fa3223cdd5988ac", "addresses": ["1G37ZcxcQhWFaVSUJdJjjLTh3g2bEJXPrY"], "asm": "OP_DUP OP_HASH160 a4f0325b65a58af363143c08f2d79fa3223cdd59 OP_EQUALVERIFY OP_CHECKSIG", "type": "pubkeyhash"}, "value": 0.02641792, "n": 1}], "hex": "0100000001b490a6f4aa620f50371a72a6f9bbc2d9713dbeb15a50ec6efb98f7b0232b2181000000006b483045022100af2c50410f9413876564bbcd747f85627807acbfd61847a21148bb8e21291eac02203c4f5cad70c16592c7cb15effbffea8b16f0b3d72a6e046b9e5c2c92af7adbcb0121020b7313caa5ef9b4245fa4bd212c86d2baa252ca0f7533448fb721f2feb2bd0d5ffffffff0290e71400000000001976a9141cd57bfa39c2b5a6b923acbc34961e2e52ee984788ac804f2800000000001976a914a4f0325b65a58af363143c08f2d79fa3223cdd5988ac00000000", "vin": [{"sequence": 4294967295, "scriptSig": {"hex": "483045022100af2c50410f9413876564bbcd747f85627807acbfd61847a21148bb8e21291eac02203c4f5cad70c16592c7cb15effbffea8b16f0b3d72a6e046b9e5c2c92af7adbcb0121020b7313caa5ef9b4245fa4bd212c86d2baa252ca0f7533448fb721f2feb2bd0d5", "asm": "3045022100af2c50410f9413876564bbcd747f85627807acbfd61847a21148bb8e21291eac02203c4f5cad70c16592c7cb15effbffea8b16f0b3d72a6e046b9e5c2c92af7adbcb[ALL] 020b7313caa5ef9b4245fa4bd212c86d2baa252ca0f7533448fb721f2feb2bd0d5"}, "vout": 0, "txid": "81212b23b0f798fb6eec505ab1be3d71d9c2bbf9a6721a37500f62aaf4a690b4"}], "txid": "42f2cd7d690e07f596c1210d978d3fecc5d507322764477a91a2368c0a221819", "blocktime": 1537871767, "version": 1, "confirmations": 11495, "time": 1537871767, "locktime": 0, "vsize": 226, "size": 226}