{"hash": "42fc2b93a7c264dc68c7d8815b75e69dea7f75543effc8c5b9e4fc1b349eb19b", "blockhash": "00000000000000000004ffacab907a6b429b9a5745fa0b75af4234bf69dd7176", "vout": [{"scriptPubKey": {"reqSigs": 1, "hex": "a91480b1cd0b42f0a170d6a747e2d1469797b142992c87", "addresses": ["3DRVQvbS37TJKfB8Exwv671iFGoD9UhHR7"], "asm": "OP_HASH160 80b1cd0b42f0a170d6a747e2d1469797b142992c OP_EQUAL", "type": "scripthash"}, "value": 0.00764984, "n": 0}, {"scriptPubKey": {"reqSigs": 1, "hex": "76a9149926b552df489430aa68eb035dd831f1fb3a71f988ac", "addresses": ["1ExnkrH3C2cWBziKwayKFqbjwcDjGvgoUf"], "asm": "OP_DUP OP_HASH160 9926b552df489430aa68eb035dd831f1fb3a71f9 OP_EQUALVERIFY OP_CHECKSIG", "type": "pubkeyhash"}, "value": 0.0455937, "n": 1}], "hex": "0100000001dde562edbe0ed19955bb033d9858a6b877fb3bb32cf66af90ea3b1e6810c7a44010000006b4830450221008e4a785792b544f25a54d7ca723c4786f0e562337e6a825e8bb3e6e02c2a97b5022025fcd0f01494635fd9228e59462774fd9e88529643259757fb9e43c3a41cf168012102fcb88658148560d871e771cff5f6a1503fc7c759a411723de6bb36d2c368aa77ffffffff0238ac0b000000000017a91480b1cd0b42f0a170d6a747e2d1469797b142992c870a924500000000001976a9149926b552df489430aa68eb035dd831f1fb3a71f988ac00000000", "vin": [{"sequence": 4294967295, "scriptSig": {"hex": "4830450221008e4a785792b544f25a54d7ca723c4786f0e562337e6a825e8bb3e6e02c2a97b5022025fcd0f01494635fd9228e59462774fd9e88529643259757fb9e43c3a41cf168012102fcb88658148560d871e771cff5f6a1503fc7c759a411723de6bb36d2c368aa77", "asm": "30450221008e4a785792b544f25a54d7ca723c4786f0e562337e6a825e8bb3e6e02c2a97b5022025fcd0f01494635fd9228e59462774fd9e88529643259757fb9e43c3a41cf168[ALL] 02fcb88658148560d871e771cff5f6a1503fc7c759a411723de6bb36d2c368aa77"}, "vout": 1, "txid": "447a0c81e6b1a30ef96af62cb33bfb77b8a658983d03bb5599d10ebeed62e5dd"}], "txid": "42fc2b93a7c264dc68c7d8815b75e69dea7f75543effc8c5b9e4fc1b349eb19b", "blocktime": 1537875543, "version": 1, "confirmations": 11464, "time": 1537875543, "locktime": 0, "vsize": 224, "size": 224}