{"hash": "10673eaa63936c854e7a5cb68830094ee845afdac65f9bebc724fd201b98ac37", "blockhash": "0000000000000000001f76057863aec43deb6fa401d9628bb513d65a8098bfab", "vout": [{"scriptPubKey": {"reqSigs": 1, "hex": "a9148597e7ecdad75e1c9e71a53420f23a11475c5cb387", "addresses": ["3DsPmfi2yJkgkf3ThETuPfJKhToZKoX8GM"], "asm": "OP_HASH160 8597e7ecdad75e1c9e71a53420f23a11475c5cb3 OP_EQUAL", "type": "scripthash"}, "value": 0.00403362, "n": 0}, {"scriptPubKey": {"reqSigs": 1, "hex": "a9140be7846be16b05bea00dbec2fcd7e045a793cb1787", "addresses": ["32mxhko5mJHfkbkDPpz7SfdJwEJi21P1WK"], "asm": "OP_HASH160 0be7846be16b05bea00dbec2fcd7e045a793cb17 OP_EQUAL", "type": "scripthash"}, "value": 0.18300632, "n": 1}], "hex": "0100000000010135789fc37ca21232d581dc6debd515f9c7e18576f55983c5dd265f1eb8a39b5e01000000232200202c66ece6da72bcbfeadf83a91236f4891c13e14d8ecebdcaa81666fc1aa73a31ffffffff02a22706000000000017a9148597e7ecdad75e1c9e71a53420f23a11475c5cb387d83e17010000000017a9140be7846be16b05bea00dbec2fcd7e045a793cb17870400483045022100c958ba603c7b2cf4f950362913529fbfa7a5b97926ea776f0d7bae17709fdc7c02206cbf2fd412c1875cab2897e6d3c4857a23ee6e2317a301eadd718997cc27b90b014830450221008a3cf5813dde5fe301d61b8106b815accca5c4b83abbf660787dc1aa2f87108202205266d093bae896844495612898ddbfe6ad568ef8da2a9099ce956fcbe65134e901475221029e6fbb942d34a473faaa5557c1bfe08d72102f0b9754ad140fd369d7a3ba3cdc2103871fc2ca08e6950b38867e8e6a0e94ee625223d3aa0df5c65f414c6d784467e252ae00000000", "vin": [{"txinwitness": ["", "3045022100c958ba603c7b2cf4f950362913529fbfa7a5b97926ea776f0d7bae17709fdc7c02206cbf2fd412c1875cab2897e6d3c4857a23ee6e2317a301eadd718997cc27b90b01", "30450221008a3cf5813dde5fe301d61b8106b815accca5c4b83abbf660787dc1aa2f87108202205266d093bae896844495612898ddbfe6ad568ef8da2a9099ce956fcbe65134e901", "5221029e6fbb942d34a473faaa5557c1bfe08d72102f0b9754ad140fd369d7a3ba3cdc2103871fc2ca08e6950b38867e8e6a0e94ee625223d3aa0df5c65f414c6d784467e252ae"], "sequence": 4294967295, "scriptSig": {"hex": "2200202c66ece6da72bcbfeadf83a91236f4891c13e14d8ecebdcaa81666fc1aa73a31", "asm": "00202c66ece6da72bcbfeadf83a91236f4891c13e14d8ecebdcaa81666fc1aa73a31"}, "vout": 1, "txid": "5e9ba3b81e5f26ddc58359f57685e1c7f915d5eb6ddc81d53212a27cc39f7835"}], "txid": "42fce86ca277fcd2a9d0614710dfa81d8eaa576ca7f6255664b4905342297907", "blocktime": 1537873891, "version": 1, "confirmations": 11478, "time": 1537873891, "locktime": 0, "vsize": 206, "size": 372}