{"hash": "42febf63785e00b5e549156d9cd6105f412576747472e7409f679b56288eac59", "blockhash": "00000000000000000018f53835495a110e01622372bf6ae95dc86f2b0ab887b0", "vout": [{"scriptPubKey": {"reqSigs": 1, "hex": "76a9149dc74fdb48a84601337c6fd4b9316fea5593e20088ac", "addresses": ["1FPFrZ7kGbypSpLauABzjs299CK8BajxAm"], "asm": "OP_DUP OP_HASH160 9dc74fdb48a84601337c6fd4b9316fea5593e200 OP_EQUALVERIFY OP_CHECKSIG", "type": "pubkeyhash"}, "value": 0.017802, "n": 0}, {"scriptPubKey": {"reqSigs": 1, "hex": "a914e5a7b59c9c1b39c543b6883af6691a5d9352f3cb87", "addresses": ["3NdKa8N5ETi2yY6TRuW3U85aayALyw9GyR"], "asm": "OP_HASH160 e5a7b59c9c1b39c543b6883af6691a5d9352f3cb OP_EQUAL", "type": "scripthash"}, "value": 0.54843961, "n": 1}], "hex": "010000000113c4208683ddf33b11384376da29f4c318ceed79e2f6ae9003cc1a77aea9969801000000db00483045022100d94785907d7326f46c4723dd554f0342a1ad41f6e4300e8d6f936019e44aa4a10220339d4285f341ccb2f557bb5779c849a2e285c40ace49f60eaaf745caaaee631801483045022100b607d8ab9c69e65966ddc1cc955cc86787ac56f1afdbb19155ae98c13b792a94022004f509490a8a9ee8574fd719012622dde2eb5e73017061ceffbdb7596f123a850147522102e888effc48b3b48f8a3066039b6f722fb896d771f03696680b0c24d368c2a84c21028ad0cf15dbe3cb3391a8e497eea8da86397f1a87b6195983685263552562df9552aeffffffff02e8291b00000000001976a9149dc74fdb48a84601337c6fd4b9316fea5593e20088ac39da44030000000017a914e5a7b59c9c1b39c543b6883af6691a5d9352f3cb8700000000", "vin": [{"sequence": 4294967295, "scriptSig": {"hex": "00483045022100d94785907d7326f46c4723dd554f0342a1ad41f6e4300e8d6f936019e44aa4a10220339d4285f341ccb2f557bb5779c849a2e285c40ace49f60eaaf745caaaee631801483045022100b607d8ab9c69e65966ddc1cc955cc86787ac56f1afdbb19155ae98c13b792a94022004f509490a8a9ee8574fd719012622dde2eb5e73017061ceffbdb7596f123a850147522102e888effc48b3b48f8a3066039b6f722fb896d771f03696680b0c24d368c2a84c21028ad0cf15dbe3cb3391a8e497eea8da86397f1a87b6195983685263552562df9552ae", "asm": "0 3045022100d94785907d7326f46c4723dd554f0342a1ad41f6e4300e8d6f936019e44aa4a10220339d4285f341ccb2f557bb5779c849a2e285c40ace49f60eaaf745caaaee6318[ALL] 3045022100b607d8ab9c69e65966ddc1cc955cc86787ac56f1afdbb19155ae98c13b792a94022004f509490a8a9ee8574fd719012622dde2eb5e73017061ceffbdb7596f123a85[ALL] 522102e888effc48b3b48f8a3066039b6f722fb896d771f03696680b0c24d368c2a84c21028ad0cf15dbe3cb3391a8e497eea8da86397f1a87b6195983685263552562df9552ae"}, "vout": 1, "txid": "9896a9ae771acc0390aef6e279edce18c3f429da764338113bf3dd838620c413"}], "txid": "42febf63785e00b5e549156d9cd6105f412576747472e7409f679b56288eac59", "blocktime": 1537870928, "version": 1, "confirmations": 11514, "time": 1537870928, "locktime": 0, "vsize": 336, "size": 336}