{"hash": "4302ad95e866bfca00750d34399bcc654634418d660b545411e878f55e667ab8", "blockhash": "0000000000000000000dcc0f55137456b1a82d3642486a52398922ac4d620174", "vout": [{"scriptPubKey": {"reqSigs": 1, "hex": "76a91421f55deba08ef1191b5b0d37476b77bc35e83bfe88ac", "addresses": ["146ZEikeSJ5vBJqntaxS6F5cE3XawUbKSQ"], "asm": "OP_DUP OP_HASH160 21f55deba08ef1191b5b0d37476b77bc35e83bfe OP_EQUALVERIFY OP_CHECKSIG", "type": "pubkeyhash"}, "value": 0.01, "n": 0}, {"scriptPubKey": {"reqSigs": 1, "hex": "76a9147cbef71d3032330fd98606916e8a2a778fe7525188ac", "addresses": ["1CNbZHhQVQQ3H2aFmTsvhX48Jq2vusoq7m"], "asm": "OP_DUP OP_HASH160 7cbef71d3032330fd98606916e8a2a778fe75251 OP_EQUALVERIFY OP_CHECKSIG", "type": "pubkeyhash"}, "value": 4.64212, "n": 1}], "hex": "0100000001bd689b0b64b189caf2c37402f621f7f4472fc60985f48902e9b167f692ef09bb010000006a473044022050348251d798678a5d0049800d802b633ebd25ba0af7ad7a58f8bf39ec1e00cd02203de6d449e43c44c4c2c356d736139a778ca84d6ab7cb150197561737976531cc012102d0afe12ff965cd8e72560f93588c6c9b6649d29996f573ced1528a9cfffdbbe8ffffffff0240420f00000000001976a91421f55deba08ef1191b5b0d37476b77bc35e83bfe88ac2050ab1b000000001976a9147cbef71d3032330fd98606916e8a2a778fe7525188ac00000000", "vin": [{"sequence": 4294967295, "scriptSig": {"hex": "473044022050348251d798678a5d0049800d802b633ebd25ba0af7ad7a58f8bf39ec1e00cd02203de6d449e43c44c4c2c356d736139a778ca84d6ab7cb150197561737976531cc012102d0afe12ff965cd8e72560f93588c6c9b6649d29996f573ced1528a9cfffdbbe8", "asm": "3044022050348251d798678a5d0049800d802b633ebd25ba0af7ad7a58f8bf39ec1e00cd02203de6d449e43c44c4c2c356d736139a778ca84d6ab7cb150197561737976531cc[ALL] 02d0afe12ff965cd8e72560f93588c6c9b6649d29996f573ced1528a9cfffdbbe8"}, "vout": 1, "txid": "bb09ef92f667b1e90289f48509c62f47f4f721f60274c3f2ca89b1640b9b68bd"}], "txid": "4302ad95e866bfca00750d34399bcc654634418d660b545411e878f55e667ab8", "blocktime": 1537870268, "version": 1, "confirmations": 11516, "time": 1537870268, "locktime": 0, "vsize": 225, "size": 225}