{"hash": "4305a24a8f4439b881959b3d160ef8f4632a90decf6ab06708483fc6200c4aa7", "blockhash": "0000000000000000001e0dab787dd257d1dbfcb92a98c2207d5e1078be1f4165", "vout": [{"scriptPubKey": {"type": "nulldata", "hex": "6a4c50000077bb0001aad27cda75d3ca0bed78aa0ee5bf9ae76da98a211aaf6c953dd567cf27e7a35d044b07f77ea683b998d420c51cd65baa120c0612bc1373f1b35b1d100759d4ba30d2c37bb011d97e02cf", "asm": "OP_RETURN 000077bb0001aad27cda75d3ca0bed78aa0ee5bf9ae76da98a211aaf6c953dd567cf27e7a35d044b07f77ea683b998d420c51cd65baa120c0612bc1373f1b35b1d100759d4ba30d2c37bb011d97e02cf"}, "value": 0.0, "n": 0}, {"scriptPubKey": {"reqSigs": 1, "hex": "76a91415bf78c2f3a3b29a77f2c1bdc3524041f5874c2088ac", "addresses": ["12yzZibLEyRKGQ6dp9LaYr3hFYrvXdJi5L"], "asm": "OP_DUP OP_HASH160 15bf78c2f3a3b29a77f2c1bdc3524041f5874c20 OP_EQUALVERIFY OP_CHECKSIG", "type": "pubkeyhash"}, "value": 0.00640784, "n": 1}], "hex": "010000000107b93d41444860cbf1cb799eee6d5057f791131ed2a84de47c84f907b3a10a44010000006a47304402200ec99f76d0f1a8c92bdaf2e6a991b78bf101516038ab4ed8667c78c40444c8b602204cfee24136284972d47d4b4ffc80b48ebbda476001ce30acfec3c9023d6a3fad012103e0ff63ebf410264e1ee0067243495360bbc874389f7ab090a6c2d1bd850caf5fffffffff020000000000000000536a4c50000077bb0001aad27cda75d3ca0bed78aa0ee5bf9ae76da98a211aaf6c953dd567cf27e7a35d044b07f77ea683b998d420c51cd65baa120c0612bc1373f1b35b1d100759d4ba30d2c37bb011d97e02cf10c70900000000001976a91415bf78c2f3a3b29a77f2c1bdc3524041f5874c2088ac00000000", "vin": [{"sequence": 4294967295, "scriptSig": {"hex": "47304402200ec99f76d0f1a8c92bdaf2e6a991b78bf101516038ab4ed8667c78c40444c8b602204cfee24136284972d47d4b4ffc80b48ebbda476001ce30acfec3c9023d6a3fad012103e0ff63ebf410264e1ee0067243495360bbc874389f7ab090a6c2d1bd850caf5f", "asm": "304402200ec99f76d0f1a8c92bdaf2e6a991b78bf101516038ab4ed8667c78c40444c8b602204cfee24136284972d47d4b4ffc80b48ebbda476001ce30acfec3c9023d6a3fad[ALL] 03e0ff63ebf410264e1ee0067243495360bbc874389f7ab090a6c2d1bd850caf5f"}, "vout": 1, "txid": "440aa1b307f9847ce44da8d21e1391f757506dee9e79cbf1cb604844413db907"}], "txid": "4305a24a8f4439b881959b3d160ef8f4632a90decf6ab06708483fc6200c4aa7", "blocktime": 1537872475, "version": 1, "confirmations": 11486, "time": 1537872475, "locktime": 0, "vsize": 283, "size": 283}