{"hash": "a1a7408ca23b4639ab65afd186c7835692beb698d37424dda9a9c1fec659eb9a", "blockhash": "0000000000000000001cda96e906b7601b7a6fb1a3b62bca570a9e5d8f4b3de1", "vout": [{"scriptPubKey": {"reqSigs": 1, "hex": "76a9147480bb85a4a2f78daad00a94906da325cdf32bea88ac", "addresses": ["1Bd1bk97VvjJpzqgw5A78cQZkrXmoRr1vR"], "asm": "OP_DUP OP_HASH160 7480bb85a4a2f78daad00a94906da325cdf32bea OP_EQUALVERIFY OP_CHECKSIG", "type": "pubkeyhash"}, "value": 0.02006, "n": 0}, {"scriptPubKey": {"reqSigs": 1, "hex": "a91420e135a17b87f21342685b23a54cc33ff0f4eea987", "addresses": ["34gsLWfuw6jBbiWBsiNvmjEjfindiFbVHx"], "asm": "OP_HASH160 20e135a17b87f21342685b23a54cc33ff0f4eea9 OP_EQUAL", "type": "scripthash"}, "value": 0.198676, "n": 1}], "hex": "01000000000101822aa516d908ef21871af9d629325bf22ea42ca74c88367ea228baa9d8d1c21f01000000232200202e1aa4ebd910bd2ee8f2a2f71b81ad26f285431d4ed5a0fddc0feaa4a14560a8ffffffff02f09b1e00000000001976a9147480bb85a4a2f78daad00a94906da325cdf32bea88acd0272f010000000017a91420e135a17b87f21342685b23a54cc33ff0f4eea9870400483045022100ffc438aaa68d451cb9888c77316b0241a4e5d3f23d1f62775ab9969473ceefc10220638ddd3ae384f47c95e4a96ef63641d8222d18cb2c9ebe01017b74aea4bb14d101483045022100f1fcb4f607ee34322a586bded03983828542cb9b2252dd28b25b19a33aafd1ba022003bf0e5b84e6352f2536acbb76dd565b62f64284ab2accf2860bbe891ef004780169522102de04806fe0c234e360a59deee40543fd5634b9605f1d74ebbd2256e29baefe612103bb1201dfe84d8cc92521da43978ac5c041976a0198c77f1ce033e3a6fd9ba8bc2102db4c12c8226340caed58d03d370324b709182beea35ea339b2b1b8ce9b8c553253ae00000000", "vin": [{"txinwitness": ["", "3045022100ffc438aaa68d451cb9888c77316b0241a4e5d3f23d1f62775ab9969473ceefc10220638ddd3ae384f47c95e4a96ef63641d8222d18cb2c9ebe01017b74aea4bb14d101", "3045022100f1fcb4f607ee34322a586bded03983828542cb9b2252dd28b25b19a33aafd1ba022003bf0e5b84e6352f2536acbb76dd565b62f64284ab2accf2860bbe891ef0047801", "522102de04806fe0c234e360a59deee40543fd5634b9605f1d74ebbd2256e29baefe612103bb1201dfe84d8cc92521da43978ac5c041976a0198c77f1ce033e3a6fd9ba8bc2102db4c12c8226340caed58d03d370324b709182beea35ea339b2b1b8ce9b8c553253ae"], "sequence": 4294967295, "scriptSig": {"hex": "2200202e1aa4ebd910bd2ee8f2a2f71b81ad26f285431d4ed5a0fddc0feaa4a14560a8", "asm": "00202e1aa4ebd910bd2ee8f2a2f71b81ad26f285431d4ed5a0fddc0feaa4a14560a8"}, "vout": 1, "txid": "1fc2d1d8a9ba28a27e36884ca72ca42ef25b3229d6f91a8721ef08d916a52a82"}], "txid": "43067020e710bce437c3b694b3c120b435f243d41d917f9dee5b9f62b3c35150", "blocktime": 1537873282, "version": 1, "confirmations": 11485, "time": 1537873282, "locktime": 0, "vsize": 216, "size": 408}