{"hash": "9fc9fd78e9d4d8c828f12fc4ef857fc1d26965533a3f3e70c47cf54aa56a62ea", "blockhash": "0000000000000000001e0dab787dd257d1dbfcb92a98c2207d5e1078be1f4165", "vout": [{"scriptPubKey": {"reqSigs": 1, "hex": "a914d0d0d6fa16d8660a2fd7b1502ef40f40b137e26f87", "addresses": ["3Lj8etHCkS6d7wgMYCaLU7wpzELEeR7fhS"], "asm": "OP_HASH160 d0d0d6fa16d8660a2fd7b1502ef40f40b137e26f OP_EQUAL", "type": "scripthash"}, "value": 0.01466707, "n": 0}, {"scriptPubKey": {"reqSigs": 1, "hex": "a914490e639843a68c8b7ecd2158be550790c7fbfc5887", "addresses": ["38MJVKFkqzHWKMnWYbbgQZNyptTSz5bYbh"], "asm": "OP_HASH160 490e639843a68c8b7ecd2158be550790c7fbfc58 OP_EQUAL", "type": "scripthash"}, "value": 0.15012774, "n": 1}], "hex": "020000000001027a283223bf5228ba3f2cbd36d0de0c63112f3321036d12b92b4151dd1d58a3ff0000000017160014a33da211215b7b3c1a9dca19a82193a705acb09cfeffffffcff42dfb6c29a72ba9119ddf43a4ccee396e4ec21ff0060d25a31f2a3a6ee3ed0100000017160014f9383f0e8323099f2d83a95806d983cc0203f96dfeffffff02536116000000000017a914d0d0d6fa16d8660a2fd7b1502ef40f40b137e26f87a613e5000000000017a914490e639843a68c8b7ecd2158be550790c7fbfc588702483045022100a56f2cbfb9598780e236af837a0423b96bae6d2701093226b63cc52c08b55197022029ae7876f11c869c9c00abc93a97d74fb2db720c3e4a53f077321dcc8597b08601210219c4a8551bee7c8fca04087b9c1345e34e235e196c0cb26c2469b09ab519ffa402483045022100d88f8fed2cdd60ff5db4cf57c172bd35f7ae2d85509c591401b9a8332aa4a51c02204d00e4d5299a1d905b2814ff70a98548ba7befd2bcb9333ece4e990f1158dbab012102d4000867eb1fd415a3ca8faa0d319c55ab985eea1858edbd20295991137a035d12490800", "vin": [{"txinwitness": ["3045022100a56f2cbfb9598780e236af837a0423b96bae6d2701093226b63cc52c08b55197022029ae7876f11c869c9c00abc93a97d74fb2db720c3e4a53f077321dcc8597b08601", "0219c4a8551bee7c8fca04087b9c1345e34e235e196c0cb26c2469b09ab519ffa4"], "sequence": 4294967294, "scriptSig": {"hex": "160014a33da211215b7b3c1a9dca19a82193a705acb09c", "asm": "0014a33da211215b7b3c1a9dca19a82193a705acb09c"}, "vout": 0, "txid": "ffa3581ddd51412bb9126d0321332f11630cded036bd2c3fba2852bf2332287a"}, {"txinwitness": ["3045022100d88f8fed2cdd60ff5db4cf57c172bd35f7ae2d85509c591401b9a8332aa4a51c02204d00e4d5299a1d905b2814ff70a98548ba7befd2bcb9333ece4e990f1158dbab01", "02d4000867eb1fd415a3ca8faa0d319c55ab985eea1858edbd20295991137a035d"], "sequence": 4294967294, "scriptSig": {"hex": "160014f9383f0e8323099f2d83a95806d983cc0203f96d", "asm": "0014f9383f0e8323099f2d83a95806d983cc0203f96d"}, "vout": 1, "txid": "ede36e3a2a1fa3250d06f01fc24e6e39eecca443df9d11a92ba7296cfb2df4cf"}], "txid": "430fda08891099c4f84cd78037fd8c863948c88e86702024070d453846f88cfe", "blocktime": 1537872475, "version": 2, "confirmations": 11487, "time": 1537872475, "locktime": 542994, "vsize": 257, "size": 420}