{"hash": "431085b3190d941fe33cef93c78c2e0cf776df4eecb68f9056b6790c4b4b5bfa", "blockhash": "0000000000000000001cda96e906b7601b7a6fb1a3b62bca570a9e5d8f4b3de1", "vout": [{"scriptPubKey": {"reqSigs": 1, "hex": "76a914559357dcea9a5bd0890e5b2f12fdbc575643888688ac", "addresses": ["18oUwtiQJq4vFLAbkL2CvMoxYWeZnnDmWV"], "asm": "OP_DUP OP_HASH160 559357dcea9a5bd0890e5b2f12fdbc5756438886 OP_EQUALVERIFY OP_CHECKSIG", "type": "pubkeyhash"}, "value": 1.506e-05, "n": 0}, {"scriptPubKey": {"reqSigs": 1, "hex": "76a9148cd1e3beafb9d22e76b9d1dc0f10caf75ed2126c88ac", "addresses": ["1Dqb3F7USEP1Ar7SGUzSgp7efnPiYqUR2R"], "asm": "OP_DUP OP_HASH160 8cd1e3beafb9d22e76b9d1dc0f10caf75ed2126c OP_EQUALVERIFY OP_CHECKSIG", "type": "pubkeyhash"}, "value": 3e-05, "n": 1}], "hex": "01000000024de0c00405bcd9e1b116649dcc4d9a38c39eaed889a92c7e19cc8579d98d9b7b010000006a47304402201ef6cbfdd93786395e9044d6ed8d4c3373a3a711d527ecd94fcd0b560b8d6a1a02203c6fa10cf113e9b715823dbdd32537411d12ce00f4680fa2021f0bd78287c99a01210224c9f906c1020111111253898f6f4365426e253a4800ec926db56d1d11d91c1dfeffffff7e637b309651f1c493c284fb5bfa1ce548a311f458ee26b4e691bc881b702d7d010000006a473044022034f8f4d36ac140d769525d76a6840851b8708a1870ba3de27a3fee326f8ade0e02205c3aae6d65bd3b7010465a580347bd3a63a09f1fa5c2764250993cc5ad89e5fc0121038f179d71dde68cfff8154f71a29df8d91747a1d40b2b0b512fcb2ca5bc523becfeffffff02e2050000000000001976a914559357dcea9a5bd0890e5b2f12fdbc575643888688acb80b0000000000001976a9148cd1e3beafb9d22e76b9d1dc0f10caf75ed2126c88ac13490800", "vin": [{"sequence": 4294967294, "scriptSig": {"hex": "47304402201ef6cbfdd93786395e9044d6ed8d4c3373a3a711d527ecd94fcd0b560b8d6a1a02203c6fa10cf113e9b715823dbdd32537411d12ce00f4680fa2021f0bd78287c99a01210224c9f906c1020111111253898f6f4365426e253a4800ec926db56d1d11d91c1d", "asm": "304402201ef6cbfdd93786395e9044d6ed8d4c3373a3a711d527ecd94fcd0b560b8d6a1a02203c6fa10cf113e9b715823dbdd32537411d12ce00f4680fa2021f0bd78287c99a[ALL] 0224c9f906c1020111111253898f6f4365426e253a4800ec926db56d1d11d91c1d"}, "vout": 1, "txid": "7b9b8dd97985cc197e2ca989d8ae9ec3389a4dcc9d6416b1e1d9bc0504c0e04d"}, {"sequence": 4294967294, "scriptSig": {"hex": "473044022034f8f4d36ac140d769525d76a6840851b8708a1870ba3de27a3fee326f8ade0e02205c3aae6d65bd3b7010465a580347bd3a63a09f1fa5c2764250993cc5ad89e5fc0121038f179d71dde68cfff8154f71a29df8d91747a1d40b2b0b512fcb2ca5bc523bec", "asm": "3044022034f8f4d36ac140d769525d76a6840851b8708a1870ba3de27a3fee326f8ade0e02205c3aae6d65bd3b7010465a580347bd3a63a09f1fa5c2764250993cc5ad89e5fc[ALL] 038f179d71dde68cfff8154f71a29df8d91747a1d40b2b0b512fcb2ca5bc523bec"}, "vout": 1, "txid": "7d2d701b88bc91e6b426ee58f411a348e51cfa5bfb84c293c4f15196307b637e"}], "txid": "431085b3190d941fe33cef93c78c2e0cf776df4eecb68f9056b6790c4b4b5bfa", "blocktime": 1537873282, "version": 1, "confirmations": 11485, "time": 1537873282, "locktime": 542995, "vsize": 372, "size": 372}