{"hash": "4312242671f7d70b00b9cb9f05e6033afecbb8bd0ae9e1dc460d4eb29e5ed045", "blockhash": "0000000000000000000dcc0f55137456b1a82d3642486a52398922ac4d620174", "vout": [{"scriptPubKey": {"reqSigs": 1, "hex": "76a9143ac4334a90c54cd8a4d71e2cefc243140a99c37c88ac", "addresses": ["16MjENDyQGZ54DLdjZ3d3sUsD6jiVpG6SR"], "asm": "OP_DUP OP_HASH160 3ac4334a90c54cd8a4d71e2cefc243140a99c37c OP_EQUALVERIFY OP_CHECKSIG", "type": "pubkeyhash"}, "value": 0.0015593, "n": 0}, {"scriptPubKey": {"reqSigs": 1, "hex": "76a914d7c470a2eb2e6857e966aa921136e76af24484aa88ac", "addresses": ["1Lfsc8iZbDrHBpBZBKdLVWXi43h3pFSZKX"], "asm": "OP_DUP OP_HASH160 d7c470a2eb2e6857e966aa921136e76af24484aa OP_EQUALVERIFY OP_CHECKSIG", "type": "pubkeyhash"}, "value": 0.00390999, "n": 1}], "hex": "0100000001e199f1ff8f0eb2f05d21226ba073945dd91d06d31e6aaf4033001dd38a9c7cfc000000006a473044022049e86b93cd08bc2e9b5b1dd3503092db56d184199dc5dd5376fbef6d6a27a35d02201f0d7ab4998cfd77f78073e62d9ab28e2bd9eb14b32e7e3ba8eb8c5a9264ba9d012102542cffd20e3b2838e360e49cecd48c73ffc1ba8fa8e59f9c10df7a31fe8662c4ffffffff021a610200000000001976a9143ac4334a90c54cd8a4d71e2cefc243140a99c37c88ac57f70500000000001976a914d7c470a2eb2e6857e966aa921136e76af24484aa88ac00000000", "vin": [{"sequence": 4294967295, "scriptSig": {"hex": "473044022049e86b93cd08bc2e9b5b1dd3503092db56d184199dc5dd5376fbef6d6a27a35d02201f0d7ab4998cfd77f78073e62d9ab28e2bd9eb14b32e7e3ba8eb8c5a9264ba9d012102542cffd20e3b2838e360e49cecd48c73ffc1ba8fa8e59f9c10df7a31fe8662c4", "asm": "3044022049e86b93cd08bc2e9b5b1dd3503092db56d184199dc5dd5376fbef6d6a27a35d02201f0d7ab4998cfd77f78073e62d9ab28e2bd9eb14b32e7e3ba8eb8c5a9264ba9d[ALL] 02542cffd20e3b2838e360e49cecd48c73ffc1ba8fa8e59f9c10df7a31fe8662c4"}, "vout": 0, "txid": "fc7c9c8ad31d003340af6a1ed3061dd95d9473a06b22215df0b20e8ffff199e1"}], "txid": "4312242671f7d70b00b9cb9f05e6033afecbb8bd0ae9e1dc460d4eb29e5ed045", "blocktime": 1537870268, "version": 1, "confirmations": 11518, "time": 1537870268, "locktime": 0, "vsize": 225, "size": 225}