{"hash": "e87942d56a31f925df982da878c9ef40a60419c21f9a50a24f49c81d1c45fb4c", "blockhash": "00000000000000000018f53835495a110e01622372bf6ae95dc86f2b0ab887b0", "vout": [{"scriptPubKey": {"reqSigs": 1, "hex": "76a914e2e935237afbbfe00bd99aaa81246024105058c788ac", "addresses": ["1Mgo5uCE8xnPyzaSukNvFp2KYQNQKmaVky"], "asm": "OP_DUP OP_HASH160 e2e935237afbbfe00bd99aaa81246024105058c7 OP_EQUALVERIFY OP_CHECKSIG", "type": "pubkeyhash"}, "value": 0.00275158, "n": 0}, {"scriptPubKey": {"reqSigs": 1, "hex": "a9141ba9a69a875b6ec4364acbcaf2cdb4971abc530387", "addresses": ["34DHQGSkECVwGrE4sSRaYSy45ktLiJTyRb"], "asm": "OP_HASH160 1ba9a69a875b6ec4364acbcaf2cdb4971abc5303 OP_EQUAL", "type": "scripthash"}, "value": 0.01001632, "n": 1}], "hex": "020000000001020d92074be36337adf564d4b2473ca84f1be55d5523f985e1fbfccb8a19d6db0800000000171600141a7e9a47f95cf54f701f2eabf4e7db57e95d1eecfeffffff372a49aaf8d81a6a2bc18503a4f7a2ca6ede743a98a77d086e91f1635ccf3f150b000000171600146fbef59a4023a196bf6118fab743a571332756f3feffffff02d6320400000000001976a914e2e935237afbbfe00bd99aaa81246024105058c788aca0480f000000000017a9141ba9a69a875b6ec4364acbcaf2cdb4971abc53038702473044022053fbd410c19a56d225e5b254b09b99fc15d37a6690b3e7902151ac427889d01102201cb5ada0d1cd42cf5febe9cebc9f4a29d8cddccf595b6758a8a759584dca47e40121034f589d7e822352892f0d43505d8e9d97ff1be76545179681989ec449ec48a916024730440220303bce14b95bf8997cf9ae94a822f11bf14f9b0a1063e5da599d4289d1671c6502205584ac6fadb6475ceba55f96bb9ce0bc952f0c57df24bd0d5dd6449b2dcce2f2012103e2f1cb7d5460b4916034ff959514c8df2463d6c72fa1185636305d024abe0c3f0e490800", "vin": [{"txinwitness": ["3044022053fbd410c19a56d225e5b254b09b99fc15d37a6690b3e7902151ac427889d01102201cb5ada0d1cd42cf5febe9cebc9f4a29d8cddccf595b6758a8a759584dca47e401", "034f589d7e822352892f0d43505d8e9d97ff1be76545179681989ec449ec48a916"], "sequence": 4294967294, "scriptSig": {"hex": "1600141a7e9a47f95cf54f701f2eabf4e7db57e95d1eec", "asm": "00141a7e9a47f95cf54f701f2eabf4e7db57e95d1eec"}, "vout": 0, "txid": "08dbd6198acbfcfbe185f923555de51b4fa83c47b2d464f5ad3763e34b07920d"}, {"txinwitness": ["30440220303bce14b95bf8997cf9ae94a822f11bf14f9b0a1063e5da599d4289d1671c6502205584ac6fadb6475ceba55f96bb9ce0bc952f0c57df24bd0d5dd6449b2dcce2f201", "03e2f1cb7d5460b4916034ff959514c8df2463d6c72fa1185636305d024abe0c3f"], "sequence": 4294967294, "scriptSig": {"hex": "1600146fbef59a4023a196bf6118fab743a571332756f3", "asm": "00146fbef59a4023a196bf6118fab743a571332756f3"}, "vout": 11, "txid": "153fcf5c63f1916e087da7983a74de6ecaa2f7a40385c12b6a1ad8f8aa492a37"}], "txid": "431336b4d3b8611aecdd83bd00da05a05b9d131550075a21144f0a07bf3d935d", "blocktime": 1537870928, "version": 2, "confirmations": 11514, "time": 1537870928, "locktime": 542990, "vsize": 258, "size": 420}