{"hash": "43160fc406530cf3eabdf5e7c5bc48978499e8d16fb607b1e96182419e0deb28", "blockhash": "0000000000000000000e13cef7c366c0283d82e591d1acd082e914b08063cdf1", "vout": [{"scriptPubKey": {"reqSigs": 1, "hex": "a914dbd1724e697d91a9ccaec186230d64c9c54a82ea87", "addresses": ["3MjJp9qZa1URx9bH2D4ZJJJ2CNQraYuM9H"], "asm": "OP_HASH160 dbd1724e697d91a9ccaec186230d64c9c54a82ea OP_EQUAL", "type": "scripthash"}, "value": 0.0078195, "n": 0}, {"scriptPubKey": {"reqSigs": 1, "hex": "76a914a82393f962228d058f20454155d073ffe660200188ac", "addresses": ["1GL39ETJkS3sbsruVrqFZ6yPWxsr9pBwhv"], "asm": "OP_DUP OP_HASH160 a82393f962228d058f20454155d073ffe6602001 OP_EQUALVERIFY OP_CHECKSIG", "type": "pubkeyhash"}, "value": 0.01653306, "n": 1}], "hex": "01000000010bc43139be82440ea7ea57afce19230f15adca0569a7049407432b50fcd449b8010000006a473044022073f296964b980e0e438a0050ecaba4d6e63804542644b290cd74c16261611d810220343c7dad41b2feb8e398db7608219ff87437d3f902aa64cccb5e792f91c2231d012103869a37d50356671281e9b3c15e29bb0b1e8eec2a7b3a8dde8f58377baddba71fffffffff027eee0b000000000017a914dbd1724e697d91a9ccaec186230d64c9c54a82ea873a3a1900000000001976a914a82393f962228d058f20454155d073ffe660200188ac00000000", "vin": [{"sequence": 4294967295, "scriptSig": {"hex": "473044022073f296964b980e0e438a0050ecaba4d6e63804542644b290cd74c16261611d810220343c7dad41b2feb8e398db7608219ff87437d3f902aa64cccb5e792f91c2231d012103869a37d50356671281e9b3c15e29bb0b1e8eec2a7b3a8dde8f58377baddba71f", "asm": "3044022073f296964b980e0e438a0050ecaba4d6e63804542644b290cd74c16261611d810220343c7dad41b2feb8e398db7608219ff87437d3f902aa64cccb5e792f91c2231d[ALL] 03869a37d50356671281e9b3c15e29bb0b1e8eec2a7b3a8dde8f58377baddba71f"}, "vout": 1, "txid": "b849d4fc502b43079404a76905caad150f2319ceaf57eaa70e4482be3931c40b"}], "txid": "43160fc406530cf3eabdf5e7c5bc48978499e8d16fb607b1e96182419e0deb28", "blocktime": 1537871767, "version": 1, "confirmations": 11495, "time": 1537871767, "locktime": 0, "vsize": 223, "size": 223}