{"hash": "431e14cca7fc183367f5750dc30706ec985ceb274069e8527528def3623e2c78", "blockhash": "0000000000000000001f76057863aec43deb6fa401d9628bb513d65a8098bfab", "vout": [{"scriptPubKey": {"type": "nulldata", "hex": "6a146f6d6e69000000000000001f000000030cd22300", "asm": "OP_RETURN 6f6d6e69000000000000001f000000030cd22300"}, "value": 0.0, "n": 0}, {"scriptPubKey": {"reqSigs": 1, "hex": "a91470cb358b99fde5070d3dd3c2635602ed14b66ee887", "addresses": ["3ByR3FPHi7Z7nZS4Xe6gkVLnCkDtM4qRAS"], "asm": "OP_HASH160 70cb358b99fde5070d3dd3c2635602ed14b66ee8 OP_EQUAL", "type": "scripthash"}, "value": 5.4e-06, "n": 1}, {"scriptPubKey": {"reqSigs": 1, "hex": "76a914a25dec4d0011064ef106a983c39c7a540699f22088ac", "addresses": ["1FoWyxwPXuj4C6abqwhjDWdz6D4PZgYRjA"], "asm": "OP_DUP OP_HASH160 a25dec4d0011064ef106a983c39c7a540699f220 OP_EQUALVERIFY OP_CHECKSIG", "type": "pubkeyhash"}, "value": 0.01995243, "n": 2}], "hex": "0100000001a44813c76173a4fe9689194c29809e35be05f1741d9b5e1e9e8bd44070ac1fea810000006a4730440220237076f29d6043456183869f86164cf51e38d5f032cadc9817dd08dba2942d40022010935d024be3b82028c2a91b09500aca1d22264c7d4aff212169cf7f841e99cb012103da5bac7b36d5aa38f531c6b9601e21bb598a4b6716ebed38b009a55dabde9440feffffff030000000000000000166a146f6d6e69000000000000001f000000030cd223001c0200000000000017a91470cb358b99fde5070d3dd3c2635602ed14b66ee887eb711e00000000001976a914a25dec4d0011064ef106a983c39c7a540699f22088ac14490800", "vin": [{"sequence": 4294967294, "scriptSig": {"hex": "4730440220237076f29d6043456183869f86164cf51e38d5f032cadc9817dd08dba2942d40022010935d024be3b82028c2a91b09500aca1d22264c7d4aff212169cf7f841e99cb012103da5bac7b36d5aa38f531c6b9601e21bb598a4b6716ebed38b009a55dabde9440", "asm": "30440220237076f29d6043456183869f86164cf51e38d5f032cadc9817dd08dba2942d40022010935d024be3b82028c2a91b09500aca1d22264c7d4aff212169cf7f841e99cb[ALL] 03da5bac7b36d5aa38f531c6b9601e21bb598a4b6716ebed38b009a55dabde9440"}, "vout": 129, "txid": "ea1fac7040d48b9e1e5e9b1d74f105be359e80294c198996fea47361c71348a4"}], "txid": "431e14cca7fc183367f5750dc30706ec985ceb274069e8527528def3623e2c78", "blocktime": 1537873891, "version": 1, "confirmations": 11475, "time": 1537873891, "locktime": 542996, "vsize": 254, "size": 254}