{"hash": "6a87ed9d4da02d9b9112b51949209165cc2192a642ea83dd8af63ad83808bb85", "blockhash": "00000000000000000004ffacab907a6b429b9a5745fa0b75af4234bf69dd7176", "vout": [{"scriptPubKey": {"reqSigs": 1, "hex": "a9143d35690251cc2fe3f56cf6aa048238c3528bb73587", "addresses": ["37Gf8FVDRJ14f5Md12B1uJwF24qfVPWB39"], "asm": "OP_HASH160 3d35690251cc2fe3f56cf6aa048238c3528bb735 OP_EQUAL", "type": "scripthash"}, "value": 0.07438214, "n": 0}, {"scriptPubKey": {"reqSigs": 1, "hex": "a9149bc93139f4340f9fa75f629c6312beb91d13283487", "addresses": ["3FtjgN11BNKCgmYRQA7GpijFBmsvTa9REp"], "asm": "OP_HASH160 9bc93139f4340f9fa75f629c6312beb91d132834 OP_EQUAL", "type": "scripthash"}, "value": 0.01941738, "n": 1}], "hex": "02000000000101bfb74be6c1590f3e41eab6b27177afd133fac1af681ff8b8ab2c93c31d452754010000001716001493fe8c9ba70aa03bc63498c3c0f13591d2da06f6feffffff02867f71000000000017a9143d35690251cc2fe3f56cf6aa048238c3528bb73587eaa01d000000000017a9149bc93139f4340f9fa75f629c6312beb91d13283487024730440220747513df8fa915704e6fe201fe2a26b228a42bebff368d26e7dd32a671216351022063c49e44856cfceeb1dc0dc9e496209469bdf93aece7d26969cbb7e27dc85b580121022795ec09a47ab987521c63e299bb66d2dbd68670d1dded378b245a925f6eeb2f16490800", "vin": [{"txinwitness": ["30440220747513df8fa915704e6fe201fe2a26b228a42bebff368d26e7dd32a671216351022063c49e44856cfceeb1dc0dc9e496209469bdf93aece7d26969cbb7e27dc85b5801", "022795ec09a47ab987521c63e299bb66d2dbd68670d1dded378b245a925f6eeb2f"], "sequence": 4294967294, "scriptSig": {"hex": "16001493fe8c9ba70aa03bc63498c3c0f13591d2da06f6", "asm": "001493fe8c9ba70aa03bc63498c3c0f13591d2da06f6"}, "vout": 1, "txid": "5427451dc3932cabb8f81f68afc1fa33d1af7771b2b6ea413e0f59c1e64bb7bf"}], "txid": "4321780d8b974784e19011da416b141ccb6cdedf9a73e63bce886ff32660a39c", "blocktime": 1537875543, "version": 2, "confirmations": 11464, "time": 1537875543, "locktime": 542998, "vsize": 166, "size": 247}