{"hash": "432350a0941dd42dd90d8e81c2f9fcdf838afc6347b5299bcb6d3bb1a8e8b32c", "blockhash": "0000000000000000001cda96e906b7601b7a6fb1a3b62bca570a9e5d8f4b3de1", "vout": [{"scriptPubKey": {"reqSigs": 1, "hex": "76a9149b6656863dd3489c52771ec7ce977c66192e214588ac", "addresses": ["1FAgLJVgX8oZSEah4TmjoK8Bbhkz3cnNjg"], "asm": "OP_DUP OP_HASH160 9b6656863dd3489c52771ec7ce977c66192e2145 OP_EQUALVERIFY OP_CHECKSIG", "type": "pubkeyhash"}, "value": 0.078969, "n": 0}, {"scriptPubKey": {"reqSigs": 1, "hex": "76a914ce9c8cc668edb2a2145b25c9d6c95d7daf74154888ac", "addresses": ["1KqTjo7KmnYFKtAp4D2oPNxzV5B4LzhvWk"], "asm": "OP_DUP OP_HASH160 ce9c8cc668edb2a2145b25c9d6c95d7daf741548 OP_EQUALVERIFY OP_CHECKSIG", "type": "pubkeyhash"}, "value": 0.03947265, "n": 1}], "hex": "01000000011c7d4ba2a26b9c959048f896abeb7a8b4c749477eed090d341482d0a82404f78000000006b4830450221008b6d7e084c049e7c86d9ea556daa3dd5666e255d59c1bef903541728ebc3885c02204de511a40d7916b09c4f78bafd3e3646b6f251d2e98cdb5436ff65f50d72b0250121037d5384976ff41f491e700f3c96887f9955aaa8b3b1170deac45ed89b0b7dbb17ffffffff02447f7800000000001976a9149b6656863dd3489c52771ec7ce977c66192e214588ac013b3c00000000001976a914ce9c8cc668edb2a2145b25c9d6c95d7daf74154888ac00000000", "vin": [{"sequence": 4294967295, "scriptSig": {"hex": "4830450221008b6d7e084c049e7c86d9ea556daa3dd5666e255d59c1bef903541728ebc3885c02204de511a40d7916b09c4f78bafd3e3646b6f251d2e98cdb5436ff65f50d72b0250121037d5384976ff41f491e700f3c96887f9955aaa8b3b1170deac45ed89b0b7dbb17", "asm": "30450221008b6d7e084c049e7c86d9ea556daa3dd5666e255d59c1bef903541728ebc3885c02204de511a40d7916b09c4f78bafd3e3646b6f251d2e98cdb5436ff65f50d72b025[ALL] 037d5384976ff41f491e700f3c96887f9955aaa8b3b1170deac45ed89b0b7dbb17"}, "vout": 0, "txid": "784f40820a2d4841d390d0ee7794744c8b7aebab96f84890959c6ba2a24b7d1c"}], "txid": "432350a0941dd42dd90d8e81c2f9fcdf838afc6347b5299bcb6d3bb1a8e8b32c", "blocktime": 1537873282, "version": 1, "confirmations": 11485, "time": 1537873282, "locktime": 0, "vsize": 226, "size": 226}