{"hash": "a385e5a048d32da11fa15c96d99d064be48d71227adf7294db6e8b97a61ddd84", "blockhash": "0000000000000000001f76057863aec43deb6fa401d9628bb513d65a8098bfab", "vout": [{"scriptPubKey": {"reqSigs": 1, "hex": "a914e363804863b297578d7511e6102fac24bb4f854e87", "addresses": ["3NRLWYh47mdPnzEU4i2djgbXSPQu8UKfKS"], "asm": "OP_HASH160 e363804863b297578d7511e6102fac24bb4f854e OP_EQUAL", "type": "scripthash"}, "value": 0.00998539, "n": 0}, {"scriptPubKey": {"reqSigs": 1, "hex": "76a9147ca0f6fae2d55698179dcaedee380f521becc7b888ac", "addresses": ["1CMycpGY7dgYEw8TPAVJBshpBVEbhAtJJB"], "asm": "OP_DUP OP_HASH160 7ca0f6fae2d55698179dcaedee380f521becc7b8 OP_EQUALVERIFY OP_CHECKSIG", "type": "pubkeyhash"}, "value": 0.030864, "n": 1}], "hex": "020000000001017d6941d8284b3860bac6f08dffb6c60bc35b862ddf858c3224807fccc0b56aa2050000001716001417f9c8509f4dd5104eddcd1bdc4211a10fb21ef5feffffff028b3c0f000000000017a914e363804863b297578d7511e6102fac24bb4f854e8740182f00000000001976a9147ca0f6fae2d55698179dcaedee380f521becc7b888ac02483045022100fbac54991c16dadaa55de4f3f39b46cc025eddc35616038bc197cf4e38b27ab6022064db48595b51e4de02bb5ba39af19f6f3404e76284be4b556383104ae07a5d010121030a33db717bd70c4015fd589bc38cfcc2ea0a376fd80dab3b88c465e115f5f52d14490800", "vin": [{"txinwitness": ["3045022100fbac54991c16dadaa55de4f3f39b46cc025eddc35616038bc197cf4e38b27ab6022064db48595b51e4de02bb5ba39af19f6f3404e76284be4b556383104ae07a5d0101", "030a33db717bd70c4015fd589bc38cfcc2ea0a376fd80dab3b88c465e115f5f52d"], "sequence": 4294967294, "scriptSig": {"hex": "16001417f9c8509f4dd5104eddcd1bdc4211a10fb21ef5", "asm": "001417f9c8509f4dd5104eddcd1bdc4211a10fb21ef5"}, "vout": 5, "txid": "a26ab5c0cc7f8024328c85df2d865bc30bc6b6ff8df0c6ba60384b28d841697d"}], "txid": "4325ed6c8c10771dd8df33abac083208cf4ee0d4db6d3551e909891f4e990425", "blocktime": 1537873891, "version": 2, "confirmations": 11475, "time": 1537873891, "locktime": 542996, "vsize": 168, "size": 250}