{"hash": "8d74503977d7f3501af836e8eb1e7f4929381bfa361a4d6553ad077abd43d3ce", "blockhash": "00000000000000000017f5eb5941039fbcee6240d03bc1f2f8e35350df66a1d8", "vout": [{"scriptPubKey": {"reqSigs": 1, "hex": "0014f0672bbfa97ae2b6e858a39a09b546636c7cab71", "addresses": ["bc1q7pnjh0af0t3td6zc5wdqnd2xvdk8e2m3fhs5rs"], "asm": "0 f0672bbfa97ae2b6e858a39a09b546636c7cab71", "type": "witness_v0_keyhash"}, "value": 0.00014331, "n": 0}, {"scriptPubKey": {"reqSigs": 1, "hex": "a91477184f30266d552a768f9b0b6214c8ca0f27f85687", "addresses": ["3CYjTQvgZMxMksZCuxC1rmCMzHftWs8Qwu"], "asm": "OP_HASH160 77184f30266d552a768f9b0b6214c8ca0f27f856 OP_EQUAL", "type": "scripthash"}, "value": 0.01063507, "n": 1}], "hex": "01000000000101609242a03c34ef7a281c76dea7b2f0144e6cf216035db69fd8309b1f9cd66d060000000017160014cf956b703c67abd6eb3c3c6f11b542b87937c659ffffffff02fb37000000000000160014f0672bbfa97ae2b6e858a39a09b546636c7cab71533a10000000000017a91477184f30266d552a768f9b0b6214c8ca0f27f856870247304402200963badbd5760b2f1800b1cef80965077c9f9359c916a58a000a5aac92b6601102204c0c1adb893bde42e1c85f91113c8a2fd821d20d0ddde4abf1884a6915ccc610012102282922b52493862e456abe2ba53eff228dce24d2506c28baab45369f73d17f2b00000000", "vin": [{"txinwitness": ["304402200963badbd5760b2f1800b1cef80965077c9f9359c916a58a000a5aac92b6601102204c0c1adb893bde42e1c85f91113c8a2fd821d20d0ddde4abf1884a6915ccc61001", "02282922b52493862e456abe2ba53eff228dce24d2506c28baab45369f73d17f2b"], "sequence": 4294967295, "scriptSig": {"hex": "160014cf956b703c67abd6eb3c3c6f11b542b87937c659", "asm": "0014cf956b703c67abd6eb3c3c6f11b542b87937c659"}, "vout": 0, "txid": "066dd69c1f9b30d89fb65d0316f26c4e14f0b2a7de761c287aef343ca0429260"}], "txid": "432c0d0d6345097789808bd9490e258186a422d3e615a478eb8a231e0c005049", "blocktime": 1537874412, "version": 1, "confirmations": 11468, "time": 1537874412, "locktime": 0, "vsize": 165, "size": 246}