{"hash": "432e2970d5311c0a180813299acdcd93f7330af130bb0d773c208b4d88dcaa21", "blockhash": "00000000000000000024a2167bbff67b0be802c0b01cdd79e6331c2be6459f87", "vout": [{"scriptPubKey": {"reqSigs": 1, "hex": "a914cd1bb4248a8ff8522394b0b2491130f02dee7c9f87", "addresses": ["3LPXdkijJhipLZ7ddyfwHgu79CJYKbYH68"], "asm": "OP_HASH160 cd1bb4248a8ff8522394b0b2491130f02dee7c9f OP_EQUAL", "type": "scripthash"}, "value": 0.23702, "n": 0}, {"scriptPubKey": {"reqSigs": 1, "hex": "76a914ed1f926f745c3f00a0bd775ddc78e4c12176535f88ac", "addresses": ["1Ncny8HzeitEhaKTXEdxYJWM7fEHXt4k4M"], "asm": "OP_DUP OP_HASH160 ed1f926f745c3f00a0bd775ddc78e4c12176535f OP_EQUALVERIFY OP_CHECKSIG", "type": "pubkeyhash"}, "value": 0.01552124, "n": 1}], "hex": "010000000304b5be11695c01bbe097793f1bd3e1ad144de4e258d74931c7b753ad8bdb8ef0050000006b483045022100e870b3c94751f5d253a6626c340a0f8468328aa6329c37a50dda6c4209b898e602202630aee72dec9689efc5528140326b0246765ba75dddd941bcf407374e744630012103a675a69a57120f8263e87bae455a674613e1c5d92218c579780a7fdfbece68daffffffff0dab72d933698e49fba0f7947bd53d012168ed70d11c2103f5d3a2397acdb1de050000006b483045022100953157df48855091c4960a8e2fc31d2d60691eb8ad1450923c81f1130fe90f450220161192500bd62db463d787acb0985dab42a23ba5cf9127b06a9d8dc4f44697e4012102053e4c0d62065047ce4659b9a41c76aff7f15ff9038b7060fa3a8da2b57796d7ffffffff3ef835ee52128b36241696db80f9aaad8033c0be8177b2934045f0c4183ffd74030000006b483045022100d8bd3e30d9615f1c458b29ad715ccf818062696f05d3b15754be604e7128ccb30220285d3ae50ac128aa2de59b140cb284c4b849d3621ccfc84e04481f21ceaf643f012102de6e1577816029c2355a967741a502d1561f3e40300e13cf635c9fadc63d6e1bffffffff02f0a969010000000017a914cd1bb4248a8ff8522394b0b2491130f02dee7c9f87fcae1700000000001976a914ed1f926f745c3f00a0bd775ddc78e4c12176535f88ac00000000", "vin": [{"sequence": 4294967295, "scriptSig": {"hex": "483045022100e870b3c94751f5d253a6626c340a0f8468328aa6329c37a50dda6c4209b898e602202630aee72dec9689efc5528140326b0246765ba75dddd941bcf407374e744630012103a675a69a57120f8263e87bae455a674613e1c5d92218c579780a7fdfbece68da", "asm": "3045022100e870b3c94751f5d253a6626c340a0f8468328aa6329c37a50dda6c4209b898e602202630aee72dec9689efc5528140326b0246765ba75dddd941bcf407374e744630[ALL] 03a675a69a57120f8263e87bae455a674613e1c5d92218c579780a7fdfbece68da"}, "vout": 5, "txid": "f08edb8bad53b7c73149d758e2e44d14ade1d31b3f7997e0bb015c6911beb504"}, {"sequence": 4294967295, "scriptSig": {"hex": "483045022100953157df48855091c4960a8e2fc31d2d60691eb8ad1450923c81f1130fe90f450220161192500bd62db463d787acb0985dab42a23ba5cf9127b06a9d8dc4f44697e4012102053e4c0d62065047ce4659b9a41c76aff7f15ff9038b7060fa3a8da2b57796d7", "asm": "3045022100953157df48855091c4960a8e2fc31d2d60691eb8ad1450923c81f1130fe90f450220161192500bd62db463d787acb0985dab42a23ba5cf9127b06a9d8dc4f44697e4[ALL] 02053e4c0d62065047ce4659b9a41c76aff7f15ff9038b7060fa3a8da2b57796d7"}, "vout": 5, "txid": "deb1cd7a39a2d3f503211cd170ed6821013dd57b94f7a0fb498e6933d972ab0d"}, {"sequence": 4294967295, "scriptSig": {"hex": "483045022100d8bd3e30d9615f1c458b29ad715ccf818062696f05d3b15754be604e7128ccb30220285d3ae50ac128aa2de59b140cb284c4b849d3621ccfc84e04481f21ceaf643f012102de6e1577816029c2355a967741a502d1561f3e40300e13cf635c9fadc63d6e1b", "asm": "3045022100d8bd3e30d9615f1c458b29ad715ccf818062696f05d3b15754be604e7128ccb30220285d3ae50ac128aa2de59b140cb284c4b849d3621ccfc84e04481f21ceaf643f[ALL] 02de6e1577816029c2355a967741a502d1561f3e40300e13cf635c9fadc63d6e1b"}, "vout": 3, "txid": "74fd3f18c4f0454093b27781bec03380adaaf980db961624368b1252ee35f83e"}], "txid": "432e2970d5311c0a180813299acdcd93f7330af130bb0d773c208b4d88dcaa21", "blocktime": 1537870564, "version": 1, "confirmations": 11515, "time": 1537870564, "locktime": 0, "vsize": 520, "size": 520}