{"hash": "43351aad76256388fd51611dc7d02e5de0c2eeff43c767f1b2500d4aee674795", "blockhash": "0000000000000000001e0dab787dd257d1dbfcb92a98c2207d5e1078be1f4165", "vout": [{"scriptPubKey": {"reqSigs": 1, "hex": "0014c4a9af970d0f16c6b5c559a976915817b9371a6b", "addresses": ["bc1qcj56l9cdputvddw9tx5hdy2cz7unwxnt7nd7tp"], "asm": "0 c4a9af970d0f16c6b5c559a976915817b9371a6b", "type": "witness_v0_keyhash"}, "value": 0.00156461, "n": 0}, {"scriptPubKey": {"reqSigs": 1, "hex": "76a91492f1feb5caf4ccb57ba8774d14a6f98b7f8a44f788ac", "addresses": ["1EPyZ7VYUiBttoezoSKkrPaq8APUe6bJdE"], "asm": "OP_DUP OP_HASH160 92f1feb5caf4ccb57ba8774d14a6f98b7f8a44f7 OP_EQUALVERIFY OP_CHECKSIG", "type": "pubkeyhash"}, "value": 0.01906595, "n": 1}], "hex": "01000000010d3988778ebde01363f3fa7c70a733a355ccbdc3a18283761612b2fd05d24f23310000006b4830450221008b7745efb00122cb52e2a8f3f347d396c6c17a9f672b39a8369c08e386ddfcc9022025f305114251329e3b70466b508a8cf30d9188c4c0b2efbaefc4db4d08a06f640121030749d7cfd2b4feec5e6125147040db15ed0317770d07f667f44a1337d041f635ffffffff022d63020000000000160014c4a9af970d0f16c6b5c559a976915817b9371a6ba3171d00000000001976a91492f1feb5caf4ccb57ba8774d14a6f98b7f8a44f788ac00000000", "vin": [{"sequence": 4294967295, "scriptSig": {"hex": "4830450221008b7745efb00122cb52e2a8f3f347d396c6c17a9f672b39a8369c08e386ddfcc9022025f305114251329e3b70466b508a8cf30d9188c4c0b2efbaefc4db4d08a06f640121030749d7cfd2b4feec5e6125147040db15ed0317770d07f667f44a1337d041f635", "asm": "30450221008b7745efb00122cb52e2a8f3f347d396c6c17a9f672b39a8369c08e386ddfcc9022025f305114251329e3b70466b508a8cf30d9188c4c0b2efbaefc4db4d08a06f64[ALL] 030749d7cfd2b4feec5e6125147040db15ed0317770d07f667f44a1337d041f635"}, "vout": 49, "txid": "234fd205fdb21216768382a1c3bdcc55a333a7707cfaf36313e0bd8e7788390d"}], "txid": "43351aad76256388fd51611dc7d02e5de0c2eeff43c767f1b2500d4aee674795", "blocktime": 1537872475, "version": 1, "confirmations": 11487, "time": 1537872475, "locktime": 0, "vsize": 223, "size": 223}