{"hash": "bd1ac05f358a35485d28452bf61a779dab012c21c081f534d1efc3a0e71954ff", "blockhash": "00000000000000000017f5eb5941039fbcee6240d03bc1f2f8e35350df66a1d8", "vout": [{"scriptPubKey": {"reqSigs": 1, "hex": "a914921733cc95f6c44be8e7265f44f2c0c693bbe04287", "addresses": ["3F1UNgGd3w1SJ4YqSrszvnNqjrouv4GMUu"], "asm": "OP_HASH160 921733cc95f6c44be8e7265f44f2c0c693bbe042 OP_EQUAL", "type": "scripthash"}, "value": 0.02990834, "n": 0}, {"scriptPubKey": {"reqSigs": 1, "hex": "76a91448e7177d967105cd2cda2afd6a4cbf3678787fe288ac", "addresses": ["17eUVMEG8XC3f1X6n9nUjEvdq4QjHdBq1m"], "asm": "OP_DUP OP_HASH160 48e7177d967105cd2cda2afd6a4cbf3678787fe2 OP_EQUALVERIFY OP_CHECKSIG", "type": "pubkeyhash"}, "value": 0.00207968, "n": 1}], "hex": "020000000001018b7dc6e1c9d8a2b14cdf4d4e0ef8b6777d1385fd1c4b574b18b9bb07b61e547a00000000171600144b8ac2dd7746bdec51c472a823e4d62b29bdd595feffffff02f2a22d000000000017a914921733cc95f6c44be8e7265f44f2c0c693bbe04287602c0300000000001976a91448e7177d967105cd2cda2afd6a4cbf3678787fe288ac02483045022100c09110a9ec221cfaecebb87df96fd4dd439870c179e68bcb8e5219b09f78d0a20220764f1298a1011e56e34875c94d3b307bace54e5d7fd38d8c636499d0b37b3e1401210383b7f8a7a2d08f7df7a66780dcaae4224179d71d572bcb0adce02f29563251e514490800", "vin": [{"txinwitness": ["3045022100c09110a9ec221cfaecebb87df96fd4dd439870c179e68bcb8e5219b09f78d0a20220764f1298a1011e56e34875c94d3b307bace54e5d7fd38d8c636499d0b37b3e1401", "0383b7f8a7a2d08f7df7a66780dcaae4224179d71d572bcb0adce02f29563251e5"], "sequence": 4294967294, "scriptSig": {"hex": "1600144b8ac2dd7746bdec51c472a823e4d62b29bdd595", "asm": "00144b8ac2dd7746bdec51c472a823e4d62b29bdd595"}, "vout": 0, "txid": "7a541eb607bbb9184b574b1cfd85137d77b6f80e4e4ddf4cb1a2d8c9e1c67d8b"}], "txid": "4336cea54b148cb13ff594537791812215e4149dc550b7103955e2286ecde303", "blocktime": 1537874412, "version": 2, "confirmations": 11468, "time": 1537874412, "locktime": 542996, "vsize": 168, "size": 250}