{"hash": "417572f23d3e045c9201561742a220efab086122781245793f3beee1980b3e22", "blockhash": "000000000000000000022b45ed06c6f4ccd3cf7fb5ba4856ebd2e58215665228", "vout": [{"scriptPubKey": {"reqSigs": 1, "hex": "a914534cd67a76c21e465debf526f045ec7a7a8f7fec87", "addresses": ["39HU4FTQUK2Hf6s1AGwrSDq5mRHh3pCWCR"], "asm": "OP_HASH160 534cd67a76c21e465debf526f045ec7a7a8f7fec OP_EQUAL", "type": "scripthash"}, "value": 0.0023958, "n": 0}, {"scriptPubKey": {"reqSigs": 1, "hex": "a914379ce3396fca41ca1b169cfa3cd08a21ca74f62987", "addresses": ["36m52qRMPMqKr2R9ABcUbMh3wki7m75b4m"], "asm": "OP_HASH160 379ce3396fca41ca1b169cfa3cd08a21ca74f629 OP_EQUAL", "type": "scripthash"}, "value": 0.01785668, "n": 1}], "hex": "020000000001022731b84ad3a8c56cc8f376d478b7847d7888f82649285063dace9f54c850df6f00000000171600148e988c21be98fe4b5e4efe56a89ec361f7836faefeffffffb69baacbe24dba41ce668201d8e5d6952514fa62196ab6584bcd5b4c9b65e0c6010000001716001414e034e649cc8fafbba64675abcbff7c3114ffe6feffffff02dca703000000000017a914534cd67a76c21e465debf526f045ec7a7a8f7fec87443f1b000000000017a914379ce3396fca41ca1b169cfa3cd08a21ca74f6298702483045022100ec97f505998d5d96c87c39372a158b3a2f3249b2e7c0fa9195dfb7bdb3a02ce102205a8df2118bc73f35848fe09d9d561bbd78e0742cf95d18375075e3309990623b012103939dd8b5185623ab8a41bc5b994beb00b5be6ec5081301e9899ec94733045b540247304402201306624edcac581a72263aa4fd2e6c1f9ca31d6e5456a2ae3e54297363c46b3d02203335b399f3a676f055ec5d0f60bf7adc6cfe0cbbfec68b7fb9d2149a5bd5da870121021150da5663d05d757546fed3ff2f8cf7008ac2330ae8f731452ee37a66d376b90b490800", "vin": [{"txinwitness": ["3045022100ec97f505998d5d96c87c39372a158b3a2f3249b2e7c0fa9195dfb7bdb3a02ce102205a8df2118bc73f35848fe09d9d561bbd78e0742cf95d18375075e3309990623b01", "03939dd8b5185623ab8a41bc5b994beb00b5be6ec5081301e9899ec94733045b54"], "sequence": 4294967294, "scriptSig": {"hex": "1600148e988c21be98fe4b5e4efe56a89ec361f7836fae", "asm": "00148e988c21be98fe4b5e4efe56a89ec361f7836fae"}, "vout": 0, "txid": "6fdf50c8549fceda6350284926f888787d84b778d476f3c86cc5a8d34ab83127"}, {"txinwitness": ["304402201306624edcac581a72263aa4fd2e6c1f9ca31d6e5456a2ae3e54297363c46b3d02203335b399f3a676f055ec5d0f60bf7adc6cfe0cbbfec68b7fb9d2149a5bd5da8701", "021150da5663d05d757546fed3ff2f8cf7008ac2330ae8f731452ee37a66d376b9"], "sequence": 4294967294, "scriptSig": {"hex": "16001414e034e649cc8fafbba64675abcbff7c3114ffe6", "asm": "001414e034e649cc8fafbba64675abcbff7c3114ffe6"}, "vout": 1, "txid": "c6e0659b4c5bcd4b58b66a1962fa142595d6e5d8018266ce41ba4de2cbaa9bb6"}], "txid": "433dae76ce8def7e7636f5ca7d87ab26444f1d840ced0e89a7dd650a4c391797", "blocktime": 1537869901, "version": 2, "confirmations": 11522, "time": 1537869901, "locktime": 542987, "vsize": 257, "size": 419}