{"hash": "4346a32b2cd0c749ced592bfe4fbac306a1c0893156d7b9a0d3e5cd038f72f0f", "blockhash": "0000000000000000000baef3f32e3676a92c3b2e5da21b426e4f302fc371ce76", "vout": [{"scriptPubKey": {"reqSigs": 1, "hex": "76a914e54fd57cd01be865e0d7c6830f95ae8bf188b65d88ac", "addresses": ["1MuVNtX8RHZnRbLFh8VARB2DDBg2Y8ayU7"], "asm": "OP_DUP OP_HASH160 e54fd57cd01be865e0d7c6830f95ae8bf188b65d OP_EQUALVERIFY OP_CHECKSIG", "type": "pubkeyhash"}, "value": 0.00570943, "n": 0}, {"scriptPubKey": {"reqSigs": 1, "hex": "76a914030aab9f41e4c0afcf02b4308c186de500df9c3488ac", "addresses": ["1H5oy8gDfXFNCdWTKRyX61dzXSy1oraK3"], "asm": "OP_DUP OP_HASH160 030aab9f41e4c0afcf02b4308c186de500df9c34 OP_EQUALVERIFY OP_CHECKSIG", "type": "pubkeyhash"}, "value": 0.02349914, "n": 1}], "hex": "01000000015a35b3e7b1e3338f50d875c9e37b2193a1be3739f77d39606a8732ce34760a79030000006b48304502210099b6169070f71822a890aaa047ccb251e82dcdafd6f2c3cd251fc6b94e736ab602205f97e3ae7040ef08cf4f8c7405638f265a0390b0b50bb29ab9f015687049abdb0121025f055d56d716f9033b9f379391919d93788fb59bf9de92911b813e768de385d2ffffffff023fb60800000000001976a914e54fd57cd01be865e0d7c6830f95ae8bf188b65d88ac5adb2300000000001976a914030aab9f41e4c0afcf02b4308c186de500df9c3488ac00000000", "vin": [{"sequence": 4294967295, "scriptSig": {"hex": "48304502210099b6169070f71822a890aaa047ccb251e82dcdafd6f2c3cd251fc6b94e736ab602205f97e3ae7040ef08cf4f8c7405638f265a0390b0b50bb29ab9f015687049abdb0121025f055d56d716f9033b9f379391919d93788fb59bf9de92911b813e768de385d2", "asm": "304502210099b6169070f71822a890aaa047ccb251e82dcdafd6f2c3cd251fc6b94e736ab602205f97e3ae7040ef08cf4f8c7405638f265a0390b0b50bb29ab9f015687049abdb[ALL] 025f055d56d716f9033b9f379391919d93788fb59bf9de92911b813e768de385d2"}, "vout": 3, "txid": "790a7634ce32876a60397df73937bea193217be3c975d8508f33e3b1e7b3355a"}], "txid": "4346a32b2cd0c749ced592bfe4fbac306a1c0893156d7b9a0d3e5cd038f72f0f", "blocktime": 1537876114, "version": 1, "confirmations": 11459, "time": 1537876114, "locktime": 0, "vsize": 226, "size": 226}