{"hash": "8160e2003ddd3479a0ba298ddca2a2ed82c3a174631195ef5ef65ba277d9adb5", "blockhash": "0000000000000000000e13cef7c366c0283d82e591d1acd082e914b08063cdf1", "vout": [{"scriptPubKey": {"reqSigs": 1, "hex": "76a9142e1b944fe7ffbe969fc1df8d662fd7b5d6303c9b88ac", "addresses": ["15Co856cRnFRCKwSSzECoyT3ozVhuFoJZ6"], "asm": "OP_DUP OP_HASH160 2e1b944fe7ffbe969fc1df8d662fd7b5d6303c9b OP_EQUALVERIFY OP_CHECKSIG", "type": "pubkeyhash"}, "value": 0.0030876, "n": 0}, {"scriptPubKey": {"reqSigs": 1, "hex": "a914272998895dedf88774b1c1d04bad1629d5cefcb987", "addresses": ["35G679xKLrPxUc5BitwqVHFAFf1PxvxxMK"], "asm": "OP_HASH160 272998895dedf88774b1c1d04bad1629d5cefcb9 OP_EQUAL", "type": "scripthash"}, "value": 0.00999242, "n": 1}], "hex": "02000000000102305ee7ef07e6d1de43e93f356f4ada5879bd9df329533ac27c5918860d13de9907000000171600149d9300c63b409a533344f32eb72d10b026e0e81cfeffffffea50d99d38e0f681701c2fffe5bb769bfb6f430c7f440f2363e6b15b3d7964e50100000017160014fe8f8cf59e201503248b1d7fbe4dcf16ae21aea0feffffff0218b60400000000001976a9142e1b944fe7ffbe969fc1df8d662fd7b5d6303c9b88ac4a3f0f000000000017a914272998895dedf88774b1c1d04bad1629d5cefcb9870247304402206d3c33152bb3af79b45ca5fceb80b1df3b9f941d7e3ebce5b9e766e58d0c9a8102204a2ec7ffd3e38077ec7805719ccb485f5d60243b59ba2713dc1dbdeade2cb4460121036d4de4439e68d4b52ea17af48b35dd018799c51d10f6f16c2d6e8032a15e80e602483045022100857e37be6710dcb6c95b4efa11c0c2fd8ccca131e56344f55c4250a49b81c5d202202b6a8c64b7416dc4c4b5ddc215f8ca9335898b256c8402f43a26aef539deface0121039cdb790b646b03a0807abb8b8312417de256bba2ba046687add40ba3777844c210490800", "vin": [{"txinwitness": ["304402206d3c33152bb3af79b45ca5fceb80b1df3b9f941d7e3ebce5b9e766e58d0c9a8102204a2ec7ffd3e38077ec7805719ccb485f5d60243b59ba2713dc1dbdeade2cb44601", "036d4de4439e68d4b52ea17af48b35dd018799c51d10f6f16c2d6e8032a15e80e6"], "sequence": 4294967294, "scriptSig": {"hex": "1600149d9300c63b409a533344f32eb72d10b026e0e81c", "asm": "00149d9300c63b409a533344f32eb72d10b026e0e81c"}, "vout": 7, "txid": "99de130d8618597cc23a5329f39dbd7958da4a6f353fe943ded1e607efe75e30"}, {"txinwitness": ["3045022100857e37be6710dcb6c95b4efa11c0c2fd8ccca131e56344f55c4250a49b81c5d202202b6a8c64b7416dc4c4b5ddc215f8ca9335898b256c8402f43a26aef539deface01", "039cdb790b646b03a0807abb8b8312417de256bba2ba046687add40ba3777844c2"], "sequence": 4294967294, "scriptSig": {"hex": "160014fe8f8cf59e201503248b1d7fbe4dcf16ae21aea0", "asm": "0014fe8f8cf59e201503248b1d7fbe4dcf16ae21aea0"}, "vout": 1, "txid": "e564793d5bb1e663230f447f0c436ffb9b76bbe5ff2f1c7081f6e0389dd950ea"}], "txid": "43472e8a4cd74613eb1c1dda2a18adf6a5ff3076691e0af29c4e65f208ec9f62", "blocktime": 1537871767, "version": 2, "confirmations": 11495, "time": 1537871767, "locktime": 542992, "vsize": 259, "size": 421}