{"hash": "43599722682b909a80fb267c0b0d78bd3aab36b239e3494140bc0aa8adc3e1ca", "blockhash": "00000000000000000018f53835495a110e01622372bf6ae95dc86f2b0ab887b0", "vout": [{"scriptPubKey": {"type": "nulldata", "hex": "6a2e23a5a581f14be5334ca32644424f7d07d754e5dcd158564ad7544e82c5f6637bbe3191ad8e2094fe1f21f6c4f0b0", "asm": "OP_RETURN 23a5a581f14be5334ca32644424f7d07d754e5dcd158564ad7544e82c5f6637bbe3191ad8e2094fe1f21f6c4f0b0"}, "value": 0.0, "n": 0}, {"scriptPubKey": {"reqSigs": 1, "hex": "76a914ee5894d140fe7deb0ec1ee586c11ae441b45b34b88ac", "addresses": ["1NjFwPpmqR4VUy3xodgs2KNXDUP9erB4Vk"], "asm": "OP_DUP OP_HASH160 ee5894d140fe7deb0ec1ee586c11ae441b45b34b OP_EQUALVERIFY OP_CHECKSIG", "type": "pubkeyhash"}, "value": 0.00088842, "n": 1}], "hex": "0100000001faaeeb7cc54ccad6d3d1ba9954b5dc46543537eac171e3e7a66143c75628de81010000006a47304402207f758ded2058422725e69b2bada8ddd03dc26d690ddbbf12452952dc6c95915e0220306a996f283c2a7964f08ef1e6a8b4002ec4c507bbd136e1b67b5189e0769efa012102e107800cdfd74895df2e75de9e9ff00b22fbe87517700e75e189a62b782f32fbffffffff020000000000000000306a2e23a5a581f14be5334ca32644424f7d07d754e5dcd158564ad7544e82c5f6637bbe3191ad8e2094fe1f21f6c4f0b00a5b0100000000001976a914ee5894d140fe7deb0ec1ee586c11ae441b45b34b88ac00000000", "vin": [{"sequence": 4294967295, "scriptSig": {"hex": "47304402207f758ded2058422725e69b2bada8ddd03dc26d690ddbbf12452952dc6c95915e0220306a996f283c2a7964f08ef1e6a8b4002ec4c507bbd136e1b67b5189e0769efa012102e107800cdfd74895df2e75de9e9ff00b22fbe87517700e75e189a62b782f32fb", "asm": "304402207f758ded2058422725e69b2bada8ddd03dc26d690ddbbf12452952dc6c95915e0220306a996f283c2a7964f08ef1e6a8b4002ec4c507bbd136e1b67b5189e0769efa[ALL] 02e107800cdfd74895df2e75de9e9ff00b22fbe87517700e75e189a62b782f32fb"}, "vout": 1, "txid": "81de2856c74361a6e7e371c1ea37355446dcb55499bad1d3d6ca4cc57cebaefa"}], "txid": "43599722682b909a80fb267c0b0d78bd3aab36b239e3494140bc0aa8adc3e1ca", "blocktime": 1537870928, "version": 1, "confirmations": 11514, "time": 1537870928, "locktime": 0, "vsize": 248, "size": 248}