{"hash": "435c319af08f0ebb87d9e8e5cd97f487ca4ebd3695a4e2e7e169ffb68f43d9c6", "blockhash": "00000000000000000024a2167bbff67b0be802c0b01cdd79e6331c2be6459f87", "vout": [{"scriptPubKey": {"reqSigs": 1, "hex": "76a9141508276fd4193e83f5fce7a810a40e8f983c161988ac", "addresses": ["12vCxak5xc1t6T275xbm6AJ4xsZCxkTSc5"], "asm": "OP_DUP OP_HASH160 1508276fd4193e83f5fce7a810a40e8f983c1619 OP_EQUALVERIFY OP_CHECKSIG", "type": "pubkeyhash"}, "value": 2.59491861, "n": 0}, {"scriptPubKey": {"type": "nulldata", "hex": "6a146f6d6e69000000000000001f0000008c59ae0c00", "asm": "OP_RETURN 6f6d6e69000000000000001f0000008c59ae0c00"}, "value": 0.0, "n": 1}, {"scriptPubKey": {"reqSigs": 1, "hex": "76a9141508276fd4193e83f5fce7a810a40e8f983c161988ac", "addresses": ["12vCxak5xc1t6T275xbm6AJ4xsZCxkTSc5"], "asm": "OP_DUP OP_HASH160 1508276fd4193e83f5fce7a810a40e8f983c1619 OP_EQUALVERIFY OP_CHECKSIG", "type": "pubkeyhash"}, "value": 5.46e-06, "n": 2}], "hex": "0100000002d3098e05a85e270e5fb70a460316fd8152b1fde31c1bbb3a96ce75ac7070c941020000006b483045022100f0308d4d3ef436907bd11a26cd3d95d569e69059e86fa56ea883dff95217768c022079d69c99ad324c836800236321d4dacb759d1cd0b3b47074a0832c2a6ec754d7012102ff5e6625fba273db1803852b61dd8b3018bd534f274070292f42355472b60635ffffffffc3993d93e07f2df2ecb0adf1cf68fcb66b4f2fad4dda92ac77ab08880ba5eeee000000006a47304402205a42fbb368e71300e5c7070682d7bdf355223bd9ab9e16167650665268b745ec022049326fd3b94f1a9d92088af2c9d0ed10acabc26de0a14ce1b80a0c342d1ac5d80121035bb5ec1330953265719fecb2345ebd0cd02272efa8a3a940a8a28021b37703eeffffffff031588770f000000001976a9141508276fd4193e83f5fce7a810a40e8f983c161988ac0000000000000000166a146f6d6e69000000000000001f0000008c59ae0c0022020000000000001976a9141508276fd4193e83f5fce7a810a40e8f983c161988ac00000000", "vin": [{"sequence": 4294967295, "scriptSig": {"hex": "483045022100f0308d4d3ef436907bd11a26cd3d95d569e69059e86fa56ea883dff95217768c022079d69c99ad324c836800236321d4dacb759d1cd0b3b47074a0832c2a6ec754d7012102ff5e6625fba273db1803852b61dd8b3018bd534f274070292f42355472b60635", "asm": "3045022100f0308d4d3ef436907bd11a26cd3d95d569e69059e86fa56ea883dff95217768c022079d69c99ad324c836800236321d4dacb759d1cd0b3b47074a0832c2a6ec754d7[ALL] 02ff5e6625fba273db1803852b61dd8b3018bd534f274070292f42355472b60635"}, "vout": 2, "txid": "41c97070ac75ce963abb1b1ce3fdb15281fd1603460ab75f0e275ea8058e09d3"}, {"sequence": 4294967295, "scriptSig": {"hex": "47304402205a42fbb368e71300e5c7070682d7bdf355223bd9ab9e16167650665268b745ec022049326fd3b94f1a9d92088af2c9d0ed10acabc26de0a14ce1b80a0c342d1ac5d80121035bb5ec1330953265719fecb2345ebd0cd02272efa8a3a940a8a28021b37703ee", "asm": "304402205a42fbb368e71300e5c7070682d7bdf355223bd9ab9e16167650665268b745ec022049326fd3b94f1a9d92088af2c9d0ed10acabc26de0a14ce1b80a0c342d1ac5d8[ALL] 035bb5ec1330953265719fecb2345ebd0cd02272efa8a3a940a8a28021b37703ee"}, "vout": 0, "txid": "eeeea50b8808ab77ac92da4dad2f4f6bb6fc68cff1adb0ecf22d7fe0933d99c3"}], "txid": "435c319af08f0ebb87d9e8e5cd97f487ca4ebd3695a4e2e7e169ffb68f43d9c6", "blocktime": 1537870564, "version": 1, "confirmations": 11515, "time": 1537870564, "locktime": 0, "vsize": 404, "size": 404}