{"hash": "43614de5bbfe6e36599fbb3ac8fd0af744edc77943c014c8e9c40fbad90fc7a2", "blockhash": "00000000000000000018f53835495a110e01622372bf6ae95dc86f2b0ab887b0", "vout": [{"scriptPubKey": {"reqSigs": 1, "hex": "a914143d06017c30e69887cc8113bb3a3704779c653d87", "addresses": ["33Y2YN78CQzLVzvim3iSGn4Ty73nBhy1jT"], "asm": "OP_HASH160 143d06017c30e69887cc8113bb3a3704779c653d OP_EQUAL", "type": "scripthash"}, "value": 0.024355, "n": 0}, {"scriptPubKey": {"reqSigs": 1, "hex": "76a9140b5615c388cb2ad690291d5b1802f8e4e4771a0a88ac", "addresses": ["122wZQJkD8ii2Wpe5mJx2z1jbFNimYpiBd"], "asm": "OP_DUP OP_HASH160 0b5615c388cb2ad690291d5b1802f8e4e4771a0a OP_EQUALVERIFY OP_CHECKSIG", "type": "pubkeyhash"}, "value": 0.01003641, "n": 1}], "hex": "02000000032750163223eb145c8cb21a62de0f87d44c5f9c3def1f36a0f30c6178c2bca1faf30100006a47304402204e9112456b1f806fc54d3abe10dc6752b558bdf2c825089e34894c14c2ad2895022070820dd8fc9d47b459157c783e3776fb3f95636b9c968ef87c4900293415deef012103a1039caea981402f1eb3180e9444c1583c45cfb066257a8104646adf55fa02b6feffffff31df643bcb52270221c7e1cd8148ee018ce50759bbf9be04d5d78d94d6585b45010000006a47304402206adfb5f9370832b49f839cde5577f5700d6ef4fcfbddb776ff1f50c8e668b362022035fa2d090f32f6db9fb0e570ed3bb8bd3f0689b094a5876d7a14b0347b14f7460121038ceeb5c7930ce6e36d7bcf11bb4c2ae848a50816f58720f2b311d8960a9deecafeffffffb9131c93a43abc6cfaf4c535e83cd88d8b1ebccc99f82b2d2d04eba92c2d38f1030000006b483045022100be2abf6a8c0705a40dc4d4dd921e50836163511bc414a6fae9cbc63463736efe022019691eb20a41e2a55c32494455876b8dd23e1332c6c651a6b573b3efe7cd3b40012102ec639f316f0af2d7521965d11f5a40bcd13d2e6c1863f97b79a7260089f6af74feffffff02ac2925000000000017a914143d06017c30e69887cc8113bb3a3704779c653d8779500f00000000001976a9140b5615c388cb2ad690291d5b1802f8e4e4771a0a88ac0e490800", "vin": [{"sequence": 4294967294, "scriptSig": {"hex": "47304402204e9112456b1f806fc54d3abe10dc6752b558bdf2c825089e34894c14c2ad2895022070820dd8fc9d47b459157c783e3776fb3f95636b9c968ef87c4900293415deef012103a1039caea981402f1eb3180e9444c1583c45cfb066257a8104646adf55fa02b6", "asm": "304402204e9112456b1f806fc54d3abe10dc6752b558bdf2c825089e34894c14c2ad2895022070820dd8fc9d47b459157c783e3776fb3f95636b9c968ef87c4900293415deef[ALL] 03a1039caea981402f1eb3180e9444c1583c45cfb066257a8104646adf55fa02b6"}, "vout": 499, "txid": "faa1bcc278610cf3a0361fef3d9c5f4cd4870fde621ab28c5c14eb2332165027"}, {"sequence": 4294967294, "scriptSig": {"hex": "47304402206adfb5f9370832b49f839cde5577f5700d6ef4fcfbddb776ff1f50c8e668b362022035fa2d090f32f6db9fb0e570ed3bb8bd3f0689b094a5876d7a14b0347b14f7460121038ceeb5c7930ce6e36d7bcf11bb4c2ae848a50816f58720f2b311d8960a9deeca", "asm": "304402206adfb5f9370832b49f839cde5577f5700d6ef4fcfbddb776ff1f50c8e668b362022035fa2d090f32f6db9fb0e570ed3bb8bd3f0689b094a5876d7a14b0347b14f746[ALL] 038ceeb5c7930ce6e36d7bcf11bb4c2ae848a50816f58720f2b311d8960a9deeca"}, "vout": 1, "txid": "455b58d6948dd7d504bef9bb5907e58c01ee4881cde1c721022752cb3b64df31"}, {"sequence": 4294967294, "scriptSig": {"hex": "483045022100be2abf6a8c0705a40dc4d4dd921e50836163511bc414a6fae9cbc63463736efe022019691eb20a41e2a55c32494455876b8dd23e1332c6c651a6b573b3efe7cd3b40012102ec639f316f0af2d7521965d11f5a40bcd13d2e6c1863f97b79a7260089f6af74", "asm": "3045022100be2abf6a8c0705a40dc4d4dd921e50836163511bc414a6fae9cbc63463736efe022019691eb20a41e2a55c32494455876b8dd23e1332c6c651a6b573b3efe7cd3b40[ALL] 02ec639f316f0af2d7521965d11f5a40bcd13d2e6c1863f97b79a7260089f6af74"}, "vout": 3, "txid": "f1382d2ca9eb042d2d2bf899ccbc1e8b8dd83ce835c5f4fa6cbc3aa4931c13b9"}], "txid": "43614de5bbfe6e36599fbb3ac8fd0af744edc77943c014c8e9c40fbad90fc7a2", "blocktime": 1537870928, "version": 2, "confirmations": 11514, "time": 1537870928, "locktime": 542990, "vsize": 518, "size": 518}