{"hash": "981df30a601a5d99258f21a20e63b8e6a016918d630bcaf59a5c74a02d4a3afa", "blockhash": "0000000000000000000e13cef7c366c0283d82e591d1acd082e914b08063cdf1", "vout": [{"scriptPubKey": {"reqSigs": 1, "hex": "76a9148b3b5ae0f1238ee5db6e367d6354e34bd273ba5588ac", "addresses": ["1DhC2is2tqgaz4FCTGzkPoY9SNyY2Tm1kQ"], "asm": "OP_DUP OP_HASH160 8b3b5ae0f1238ee5db6e367d6354e34bd273ba55 OP_EQUALVERIFY OP_CHECKSIG", "type": "pubkeyhash"}, "value": 0.00915, "n": 0}, {"scriptPubKey": {"reqSigs": 1, "hex": "001454946633a2af329a07bbc7059bfb08958f9a409e", "addresses": ["bc1q2j2xvvaz4uef5pamcuzeh7cgjk8e5sy7f7zjdc"], "asm": "0 54946633a2af329a07bbc7059bfb08958f9a409e", "type": "witness_v0_keyhash"}, "value": 0.00253665, "n": 1}], "hex": "01000000000101c9d3117831c3c2cf6dd7a47bbf6c56f3b046c8430865af76978b394940c7d3ed0c00000017160014322689445f90308e6db975309d8fb11e107580d1ffffffff0238f60d00000000001976a9148b3b5ae0f1238ee5db6e367d6354e34bd273ba5588ace1de03000000000016001454946633a2af329a07bbc7059bfb08958f9a409e024730440220125c4e1fc31461ea7fdd78c2ac315b2217abc657bf1cb4aedf3a76b0b46a28880220553f41c365937422e96f2cbbd6e9f61b9c48fe39db220ca81f8667c67ab4eb840121029e98dcce740ef99e270fc375e41ae618428eaf11455bda2c712e5a9a9420d00200000000", "vin": [{"txinwitness": ["30440220125c4e1fc31461ea7fdd78c2ac315b2217abc657bf1cb4aedf3a76b0b46a28880220553f41c365937422e96f2cbbd6e9f61b9c48fe39db220ca81f8667c67ab4eb8401", "029e98dcce740ef99e270fc375e41ae618428eaf11455bda2c712e5a9a9420d002"], "sequence": 4294967295, "scriptSig": {"hex": "160014322689445f90308e6db975309d8fb11e107580d1", "asm": "0014322689445f90308e6db975309d8fb11e107580d1"}, "vout": 12, "txid": "edd3c74049398b9776af650843c846b0f3566cbf7ba4d76dcfc2c3317811d3c9"}], "txid": "4361c47c5ea3dd6ed3b8058b020bfe0ae21bdd807a4ddcb7455a2639bca99c06", "blocktime": 1537871767, "version": 1, "confirmations": 11495, "time": 1537871767, "locktime": 0, "vsize": 167, "size": 248}