{"hash": "6a5005ba9d34009242c5e6c078889366ec1c490c2e9259a134e413ed4571c910", "blockhash": "0000000000000000000baef3f32e3676a92c3b2e5da21b426e4f302fc371ce76", "vout": [{"scriptPubKey": {"reqSigs": 1, "hex": "a914b82a253d84ab0b02e0d82d842c484d8050c14e4487", "addresses": ["3JUnkABbhcbioYBhT3sYsqdPifUyU5oWqz"], "asm": "OP_HASH160 b82a253d84ab0b02e0d82d842c484d8050c14e44 OP_EQUAL", "type": "scripthash"}, "value": 0.10999332, "n": 0}, {"scriptPubKey": {"reqSigs": 1, "hex": "a91445fbea5a6ab05d552fc00645e90fc948f80f9fcb87", "addresses": ["3854LAvHSpSqxaBKNiiokWjmThRz2eZ4r4"], "asm": "OP_HASH160 45fbea5a6ab05d552fc00645e90fc948f80f9fcb OP_EQUAL", "type": "scripthash"}, "value": 1.0, "n": 1}], "hex": "01000000000101f42565a7498953232ef82a4da585ee026f5914c7e50160b9156fe9312e9ca15f00000000171600140f6fcd246f53c592728fd7d97d25821b2d1794baffffffff0224d6a7000000000017a914b82a253d84ab0b02e0d82d842c484d8050c14e448700e1f5050000000017a91445fbea5a6ab05d552fc00645e90fc948f80f9fcb8702483045022100ae2158622988466d8ccd96403e1c89c64266ad8cd570b862575d8e4b435b787402203a3161c91246c5060799881bbbb95251016eb2323af551ca5c76d9d57a3bf10e01210306c4c5dde1e02fa55fad6083b7f3090cda0b4c17c2c65c834f9674f8923f466300000000", "vin": [{"txinwitness": ["3045022100ae2158622988466d8ccd96403e1c89c64266ad8cd570b862575d8e4b435b787402203a3161c91246c5060799881bbbb95251016eb2323af551ca5c76d9d57a3bf10e01", "0306c4c5dde1e02fa55fad6083b7f3090cda0b4c17c2c65c834f9674f8923f4663"], "sequence": 4294967295, "scriptSig": {"hex": "1600140f6fcd246f53c592728fd7d97d25821b2d1794ba", "asm": "00140f6fcd246f53c592728fd7d97d25821b2d1794ba"}, "vout": 0, "txid": "5fa19c2e31e96f15b96001e5c714596f02ee85a54d2af82e23538949a76525f4"}], "txid": "4363f57b66adcaf0dca38566d7c1ca112e8d981f8e36719197d639c07170614f", "blocktime": 1537876114, "version": 1, "confirmations": 11460, "time": 1537876114, "locktime": 0, "vsize": 166, "size": 248}