{"hash": "4369a5463d7374b082708fb1298185172b959e957cf90a26865e1e015f0608ac", "blockhash": "000000000000000000022b45ed06c6f4ccd3cf7fb5ba4856ebd2e58215665228", "vout": [{"scriptPubKey": {"reqSigs": 1, "hex": "76a91437b833f713a9dafdf496316d8c2c962e20d5e09988ac", "addresses": ["165cqCXULof6fRp7PxrsuaQ859i7Tbxnsr"], "asm": "OP_DUP OP_HASH160 37b833f713a9dafdf496316d8c2c962e20d5e099 OP_EQUALVERIFY OP_CHECKSIG", "type": "pubkeyhash"}, "value": 0.12468171, "n": 0}, {"scriptPubKey": {"reqSigs": 1, "hex": "a914426d3dd1cc04f6d8cfbc65924f6e6ede2005e34587", "addresses": ["37kFPSEPYCoD47UtQPDVXgceJYTALeRYHn"], "asm": "OP_HASH160 426d3dd1cc04f6d8cfbc65924f6e6ede2005e345 OP_EQUAL", "type": "scripthash"}, "value": 0.23552557, "n": 1}], "hex": "0100000003dafa03e3e5a53e2a5b6ea8cbedc7d203b1257d171b82e19cedc7682b2d067e5b010000006a47304402204ab97c557c7fbe49c7bfd36e719db72498d135634e60f39f51e7c24f0cfd339e0220476e140f7120c47ebe814dacc1deaab1c3dde3442ddc3e2a09ef356c130de1d30121021c3bd34f6c190287c7d1675169e4adc154c1b106abe37300c435ccc241def850ffffffffbe3f7c6aed3448b36de1eead9147f4b438b024fa8c252108885a5a01e6a3bc99000000006a47304402205ce9e561eb8bdbaca898b760326159f0b655645783e5d1b5b5b4b8303f6dbf7902206e969de4096d19e11088387e8c133248bc89123878fa14b57f0c72d1da9a3c46012102aabc979dac3e99770c7e653829aa83c63fff2358d58aab1b1b7dc2130af7f36bffffffff309f9cc977fc89dfa3ee0be7a9218415e406d058c3277f1a91adfba05a9357f4ca0000006a47304402204fd199a22dc166f041d1a7d0cbc27c43c3fe1f8c00d996596f9a1cd7c4a58e20022006d2a778810ce10e28a9db5ff0e06198481c5d4059b765760eb2c5b256bf0011012102a1d9cc90307a4c871a27f10c33e9901e6c78e9c8a7343370ab6938922175dc79ffffffff02cb3fbe00000000001976a91437b833f713a9dafdf496316d8c2c962e20d5e09988ac2d6267010000000017a914426d3dd1cc04f6d8cfbc65924f6e6ede2005e3458700000000", "vin": [{"sequence": 4294967295, "scriptSig": {"hex": "47304402204ab97c557c7fbe49c7bfd36e719db72498d135634e60f39f51e7c24f0cfd339e0220476e140f7120c47ebe814dacc1deaab1c3dde3442ddc3e2a09ef356c130de1d30121021c3bd34f6c190287c7d1675169e4adc154c1b106abe37300c435ccc241def850", "asm": "304402204ab97c557c7fbe49c7bfd36e719db72498d135634e60f39f51e7c24f0cfd339e0220476e140f7120c47ebe814dacc1deaab1c3dde3442ddc3e2a09ef356c130de1d3[ALL] 021c3bd34f6c190287c7d1675169e4adc154c1b106abe37300c435ccc241def850"}, "vout": 1, "txid": "5b7e062d2b68c7ed9ce1821b177d25b103d2c7edcba86e5b2a3ea5e5e303fada"}, {"sequence": 4294967295, "scriptSig": {"hex": "47304402205ce9e561eb8bdbaca898b760326159f0b655645783e5d1b5b5b4b8303f6dbf7902206e969de4096d19e11088387e8c133248bc89123878fa14b57f0c72d1da9a3c46012102aabc979dac3e99770c7e653829aa83c63fff2358d58aab1b1b7dc2130af7f36b", "asm": "304402205ce9e561eb8bdbaca898b760326159f0b655645783e5d1b5b5b4b8303f6dbf7902206e969de4096d19e11088387e8c133248bc89123878fa14b57f0c72d1da9a3c46[ALL] 02aabc979dac3e99770c7e653829aa83c63fff2358d58aab1b1b7dc2130af7f36b"}, "vout": 0, "txid": "99bca3e6015a5a880821258cfa24b038b4f44791adeee16db34834ed6a7c3fbe"}, {"sequence": 4294967295, "scriptSig": {"hex": "47304402204fd199a22dc166f041d1a7d0cbc27c43c3fe1f8c00d996596f9a1cd7c4a58e20022006d2a778810ce10e28a9db5ff0e06198481c5d4059b765760eb2c5b256bf0011012102a1d9cc90307a4c871a27f10c33e9901e6c78e9c8a7343370ab6938922175dc79", "asm": "304402204fd199a22dc166f041d1a7d0cbc27c43c3fe1f8c00d996596f9a1cd7c4a58e20022006d2a778810ce10e28a9db5ff0e06198481c5d4059b765760eb2c5b256bf0011[ALL] 02a1d9cc90307a4c871a27f10c33e9901e6c78e9c8a7343370ab6938922175dc79"}, "vout": 202, "txid": "f457935aa0fbad911a7f27c358d006e4158421a9e70beea3df89fc77c99c9f30"}], "txid": "4369a5463d7374b082708fb1298185172b959e957cf90a26865e1e015f0608ac", "blocktime": 1537869901, "version": 1, "confirmations": 11522, "time": 1537869901, "locktime": 0, "vsize": 517, "size": 517}