{"hash": "deb8f066d99c1e9724c068235bebe199c1c7ef58511058593f7e3fb341f2964c", "blockhash": "00000000000000000017f5eb5941039fbcee6240d03bc1f2f8e35350df66a1d8", "vout": [{"scriptPubKey": {"reqSigs": 1, "hex": "a9141b5ae95e6811aa2883966db2867b2d18b4423f5c87", "addresses": ["34Bf5NWWXKbWsz9YHP6Rf8gs6xoR1n1ZNA"], "asm": "OP_HASH160 1b5ae95e6811aa2883966db2867b2d18b4423f5c OP_EQUAL", "type": "scripthash"}, "value": 0.0014221, "n": 0}, {"scriptPubKey": {"reqSigs": 1, "hex": "a91443ca4db82f8ba8a891fb67367be408fa028bc70087", "addresses": ["37sTYhLqBKei8z9Hs7rhBggxj7MiETu5J8"], "asm": "OP_HASH160 43ca4db82f8ba8a891fb67367be408fa028bc700 OP_EQUAL", "type": "scripthash"}, "value": 0.01102186, "n": 1}], "hex": "02000000000101cdf9fe06d67089bd7d0c6e2ef28ba6f06b68cb96c12110a86ff0e2f5aef4b90301000000171600143d05d8172c74b689983ee05c9078bf2bad398706feffffff02822b02000000000017a9141b5ae95e6811aa2883966db2867b2d18b4423f5c876ad110000000000017a91443ca4db82f8ba8a891fb67367be408fa028bc700870248304502210097754def3ffe04e9e3febc6e84de3c3215c8209723aec7e45136602c67bf9fd90220754808fb3c26028310d485cdf82cf2117fe2334bd5c3240f53202292b058790e012103d7318fa533b96dbe873b55f2f40fb2eb84ef482dc4ef42185b5a05cec2b40a3b15490800", "vin": [{"txinwitness": ["304502210097754def3ffe04e9e3febc6e84de3c3215c8209723aec7e45136602c67bf9fd90220754808fb3c26028310d485cdf82cf2117fe2334bd5c3240f53202292b058790e01", "03d7318fa533b96dbe873b55f2f40fb2eb84ef482dc4ef42185b5a05cec2b40a3b"], "sequence": 4294967294, "scriptSig": {"hex": "1600143d05d8172c74b689983ee05c9078bf2bad398706", "asm": "00143d05d8172c74b689983ee05c9078bf2bad398706"}, "vout": 1, "txid": "03b9f4aef5e2f06fa81021c196cb686bf0a68bf22e6e0c7dbd8970d606fef9cd"}], "txid": "436c07bc00f4f839c73e31b3e23b70aa5effc67a08f283a19a251fd9cfa34056", "blocktime": 1537874412, "version": 2, "confirmations": 11468, "time": 1537874412, "locktime": 542997, "vsize": 166, "size": 248}