{"hash": "4371170dcca70c39176da168b22700baa3d89686b3f3b77d2d2f5a41637cb034", "blockhash": "00000000000000000004ffacab907a6b429b9a5745fa0b75af4234bf69dd7176", "vout": [{"scriptPubKey": {"type": "nulldata", "hex": "6a146f6d6e69000000000000001f000000e8d4a51000", "asm": "OP_RETURN 6f6d6e69000000000000001f000000e8d4a51000"}, "value": 0.0, "n": 0}, {"scriptPubKey": {"reqSigs": 1, "hex": "76a9142acec4e25f67dedb6ecc51d41e85eb18cc1a1cba88ac", "addresses": ["14uM5dDMQNtUVKWCc2PVYLu1DLGRAwn3Pj"], "asm": "OP_DUP OP_HASH160 2acec4e25f67dedb6ecc51d41e85eb18cc1a1cba OP_EQUALVERIFY OP_CHECKSIG", "type": "pubkeyhash"}, "value": 5.46e-06, "n": 1}, {"scriptPubKey": {"reqSigs": 1, "hex": "76a914a25dec4d0011064ef106a983c39c7a540699f22088ac", "addresses": ["1FoWyxwPXuj4C6abqwhjDWdz6D4PZgYRjA"], "asm": "OP_DUP OP_HASH160 a25dec4d0011064ef106a983c39c7a540699f220 OP_EQUALVERIFY OP_CHECKSIG", "type": "pubkeyhash"}, "value": 0.01995188, "n": 2}], "hex": "0100000001a44813c76173a4fe9689194c29809e35be05f1741d9b5e1e9e8bd44070ac1fea8c0000006a473044022010c1759b6b4c9b18bc870cca855ece709befbe6a9769d350bb3ec5612fe08d7802203ac5357fb6223789903d0f62ef554d44a789380b92be559afa23ce8abb0dcbde012103da5bac7b36d5aa38f531c6b9601e21bb598a4b6716ebed38b009a55dabde9440feffffff030000000000000000166a146f6d6e69000000000000001f000000e8d4a5100022020000000000001976a9142acec4e25f67dedb6ecc51d41e85eb18cc1a1cba88acb4711e00000000001976a914a25dec4d0011064ef106a983c39c7a540699f22088ac16490800", "vin": [{"sequence": 4294967294, "scriptSig": {"hex": "473044022010c1759b6b4c9b18bc870cca855ece709befbe6a9769d350bb3ec5612fe08d7802203ac5357fb6223789903d0f62ef554d44a789380b92be559afa23ce8abb0dcbde012103da5bac7b36d5aa38f531c6b9601e21bb598a4b6716ebed38b009a55dabde9440", "asm": "3044022010c1759b6b4c9b18bc870cca855ece709befbe6a9769d350bb3ec5612fe08d7802203ac5357fb6223789903d0f62ef554d44a789380b92be559afa23ce8abb0dcbde[ALL] 03da5bac7b36d5aa38f531c6b9601e21bb598a4b6716ebed38b009a55dabde9440"}, "vout": 140, "txid": "ea1fac7040d48b9e1e5e9b1d74f105be359e80294c198996fea47361c71348a4"}], "txid": "4371170dcca70c39176da168b22700baa3d89686b3f3b77d2d2f5a41637cb034", "blocktime": 1537875543, "version": 1, "confirmations": 11464, "time": 1537875543, "locktime": 542998, "vsize": 256, "size": 256}