{"hash": "07e6d006c79499bcf7bb37830853ebacebf84742bc8d62427ecd4ff0f079dd80", "blockhash": "00000000000000000017f5eb5941039fbcee6240d03bc1f2f8e35350df66a1d8", "vout": [{"scriptPubKey": {"reqSigs": 1, "hex": "a9147f72193a6f846c8a0391fefda49026dea98e5e4187", "addresses": ["3DJtRcU4EZkT6J3BwGUEN1Ybo9rSKSpXHq"], "asm": "OP_HASH160 7f72193a6f846c8a0391fefda49026dea98e5e41 OP_EQUAL", "type": "scripthash"}, "value": 1.57999332, "n": 0}, {"scriptPubKey": {"reqSigs": 1, "hex": "a914703683d65d8b66330fa90dc95769efafdee6375687", "addresses": ["3BvLuoABZgiByDopG7wXb3tBhtbHN6DXxE"], "asm": "OP_HASH160 703683d65d8b66330fa90dc95769efafdee63756 OP_EQUAL", "type": "scripthash"}, "value": 7.0, "n": 1}], "hex": "01000000000101b0327955d253af090d107bd8ab5422465777ed8150236146e37724a6e767e8a9000000001716001498c5480a1e6922282cccaef1bae50a1d3da957b0ffffffff02e4e06a090000000017a9147f72193a6f846c8a0391fefda49026dea98e5e41870027b9290000000017a914703683d65d8b66330fa90dc95769efafdee637568702483045022100879e634afcb5f19141ea96f06cfa9911f2b1121fd5906c40842f74abbe829b6102202c6e56924f034c924cf85bb765a0373ed35fa6b58f22f3729b48af10040c854e012103b1b34a81f3083a7b0cd9f9692f5767059035573fb77452cf90753cd2c7775c6000000000", "vin": [{"txinwitness": ["3045022100879e634afcb5f19141ea96f06cfa9911f2b1121fd5906c40842f74abbe829b6102202c6e56924f034c924cf85bb765a0373ed35fa6b58f22f3729b48af10040c854e01", "03b1b34a81f3083a7b0cd9f9692f5767059035573fb77452cf90753cd2c7775c60"], "sequence": 4294967295, "scriptSig": {"hex": "16001498c5480a1e6922282cccaef1bae50a1d3da957b0", "asm": "001498c5480a1e6922282cccaef1bae50a1d3da957b0"}, "vout": 0, "txid": "a9e867e7a62477e34661235081ed7757462254abd87b100d09af53d2557932b0"}], "txid": "43780cf23b44ac63c897182ea0ef12d988fc07a419e8498cd17392a4bc9ebfa1", "blocktime": 1537874412, "version": 1, "confirmations": 11467, "time": 1537874412, "locktime": 0, "vsize": 166, "size": 248}