{"hash": "437f2702f86eac243b34fee22ea8a08ae3171934e45ffac120bfa1b8e159b32c", "blockhash": "0000000000000000001f76057863aec43deb6fa401d9628bb513d65a8098bfab", "vout": [{"scriptPubKey": {"reqSigs": 1, "hex": "76a914165fa0aa9da076fb23d3a7f34d2bc0a6626ed1b788ac", "addresses": ["133JRYURhkcAkRcCdcrVAUe496TjWVgYGi"], "asm": "OP_DUP OP_HASH160 165fa0aa9da076fb23d3a7f34d2bc0a6626ed1b7 OP_EQUALVERIFY OP_CHECKSIG", "type": "pubkeyhash"}, "value": 0.01391764, "n": 0}, {"scriptPubKey": {"type": "nulldata", "hex": "6a4c50000077dd0001df7f9b25c367783ad17e05127af8e8e963c7cfd5b95b23cc0f42c2fc38c574de08ad8eb88e5b1ec203ef39f6eff25baa161e06130a5f4f340673bc9a9526289ac0f6612cd74e33776ee4", "asm": "OP_RETURN 000077dd0001df7f9b25c367783ad17e05127af8e8e963c7cfd5b95b23cc0f42c2fc38c574de08ad8eb88e5b1ec203ef39f6eff25baa161e06130a5f4f340673bc9a9526289ac0f6612cd74e33776ee4"}, "value": 0.0, "n": 1}], "hex": "0100000001e1f9c425aef0b14b21495c7c4c305fe0ba0f3f1f59b0ca886dcb30730efe10ab010000006a473044022078e8d453fe82c64280bc5db99267226e1ce96d54c73013b8a12f889678c93cb102203965aab4ba10f66c9a3e101099acd8cde8823fe553e8c351607b18cf8ee7732c01210203ece1022dae2ab8be7543d7e3d0665649c1a06115205b00ef445590a8cc424bffffffff02943c1500000000001976a914165fa0aa9da076fb23d3a7f34d2bc0a6626ed1b788ac0000000000000000536a4c50000077dd0001df7f9b25c367783ad17e05127af8e8e963c7cfd5b95b23cc0f42c2fc38c574de08ad8eb88e5b1ec203ef39f6eff25baa161e06130a5f4f340673bc9a9526289ac0f6612cd74e33776ee400000000", "vin": [{"sequence": 4294967295, "scriptSig": {"hex": "473044022078e8d453fe82c64280bc5db99267226e1ce96d54c73013b8a12f889678c93cb102203965aab4ba10f66c9a3e101099acd8cde8823fe553e8c351607b18cf8ee7732c01210203ece1022dae2ab8be7543d7e3d0665649c1a06115205b00ef445590a8cc424b", "asm": "3044022078e8d453fe82c64280bc5db99267226e1ce96d54c73013b8a12f889678c93cb102203965aab4ba10f66c9a3e101099acd8cde8823fe553e8c351607b18cf8ee7732c[ALL] 0203ece1022dae2ab8be7543d7e3d0665649c1a06115205b00ef445590a8cc424b"}, "vout": 1, "txid": "ab10fe0e7330cb6d88cab0591f3f0fbae05f304c7c5c49214bb1f0ae25c4f9e1"}], "txid": "437f2702f86eac243b34fee22ea8a08ae3171934e45ffac120bfa1b8e159b32c", "blocktime": 1537873891, "version": 1, "confirmations": 11478, "time": 1537873891, "locktime": 0, "vsize": 283, "size": 283}