{"hash": "b7a9b75521dc432e5e3b13c0890761d6e22449672ca179890d18d46ef23fd7b8", "blockhash": "0000000000000000001f0ddff1eddb255c1121bcd4da4f1bc9a0da00cae72433", "vout": [{"scriptPubKey": {"reqSigs": 1, "hex": "76a914811b17e9e7a0afdffc6fb0a2e5abb18745f91fca88ac", "addresses": ["1CmedEJsiZNcBoGQqJDhcJNLAVNYrvT6Zv"], "asm": "OP_DUP OP_HASH160 811b17e9e7a0afdffc6fb0a2e5abb18745f91fca OP_EQUALVERIFY OP_CHECKSIG", "type": "pubkeyhash"}, "value": 0.1314178, "n": 0}, {"scriptPubKey": {"reqSigs": 1, "hex": "a91430f0f1bc6b107fd41bf9d5f3671f227b4939e1d187", "addresses": ["369nzrULCDB5rnEczbE8Ujxdk2EYqAraaC"], "asm": "OP_HASH160 30f0f1bc6b107fd41bf9d5f3671f227b4939e1d1 OP_EQUAL", "type": "scripthash"}, "value": 0.01000059, "n": 1}], "hex": "020000000001053913b75d6b260c1f7175d7521992fdab0c78d249a5b1509386766ff131c7c4110100000017160014a8a0ea1329a64485dbe3f90bbad49ff894f40513fdffffff6a45e6af1921b5be666a42fb328ee39e5a0351b5d1f418b3f29e087793b0789700000000171600143b816e65d747a1566d0c10a2996f1bcf149f657cfdffffff87ad82f8f28d2dcbda0eb5c28b3ddb21384cf5245dc75cb6cd8e9413cb3c65fa0100000017160014064bcc848ea18c44f522c7720c471e9cd51e6ebafdffffffa34fde299d434c8ff9f58895ba96e97b61991aa73a09f56e76135bc397ec57de01000000171600147611682215a42da673827268299ec1efbe24f938fdffffffb8e2c8cd0b59c83c76fa8482da515132c0744097a0a64981f0ac56860525491c0c0000001716001479acfd0079ae7ea156c1162a07be1708c02826cffdffffff021487c800000000001976a914811b17e9e7a0afdffc6fb0a2e5abb18745f91fca88ac7b420f000000000017a91430f0f1bc6b107fd41bf9d5f3671f227b4939e1d187024730440220349b0af7bb778dec6fa062f17d678fb992437a989bf9286bb90b8f981594a16e02200d3bc5851262e3896ae12e0551b6974eb1ce149432b72e7dd8fd3a7a8ac527f701210313727dac6264fab96536f7072ac476c625def2e27cc90436a54603d8f503d73202483045022100f5f2f3d285033304b40c77e451eb1420a949605ab7f48e01ee74527a892837cd022009439d0806c12d15aa6449b2bef1bf5cf5f45b657f74be86854d643b23258cf201210217109457631b26e5633ee061286ef42fef733d40258277f3c719d503a2aa46e60247304402201c80393395b312d47055671cd3ffd9e7e2d69bdb8f402a879cb97a466bf4701302207331e2fd8231bd887062cf3ad9dc60e6c30920e6fb24914c893d9aaef3faf21e012103cda555ac0fd6ece79031f42e0cb98d4774ec9a8a5285afae15f8c42c29434559024830450221009a049c20f434b0c04a8b2206f27434fbcb749b60f3b64985d290e3e3bf7bb19802200af67c25add9ba75c991b7a95fe87d60597de36599315e8a4638b8a49d2597d5012102450d6c8b89a6495b059bf5a3cff573ada94d1fa32d61e66c3b13162d63a1dc3c02483045022100f1d98b20c49da425807e80d2debe450431bc4fa7184235bef3173c3475970c080220751de873507f81684367ebfd1a689224bbbc2083d15145d5431da0ba8e7ef8fe0121021d65cfaa5c4c3298c8c3a757b7fa53902900f5439a4ffa97d67a410960dd822711490800", "vin": [{"txinwitness": ["30440220349b0af7bb778dec6fa062f17d678fb992437a989bf9286bb90b8f981594a16e02200d3bc5851262e3896ae12e0551b6974eb1ce149432b72e7dd8fd3a7a8ac527f701", "0313727dac6264fab96536f7072ac476c625def2e27cc90436a54603d8f503d732"], "sequence": 4294967293, "scriptSig": {"hex": "160014a8a0ea1329a64485dbe3f90bbad49ff894f40513", "asm": "0014a8a0ea1329a64485dbe3f90bbad49ff894f40513"}, "vout": 1, "txid": "11c4c731f16f76869350b1a549d2780cabfd921952d775711f0c266b5db71339"}, {"txinwitness": ["3045022100f5f2f3d285033304b40c77e451eb1420a949605ab7f48e01ee74527a892837cd022009439d0806c12d15aa6449b2bef1bf5cf5f45b657f74be86854d643b23258cf201", "0217109457631b26e5633ee061286ef42fef733d40258277f3c719d503a2aa46e6"], "sequence": 4294967293, "scriptSig": {"hex": "1600143b816e65d747a1566d0c10a2996f1bcf149f657c", "asm": "00143b816e65d747a1566d0c10a2996f1bcf149f657c"}, "vout": 0, "txid": "9778b09377089ef2b318f4d1b551035a9ee38e32fb426a66beb52119afe6456a"}, {"txinwitness": ["304402201c80393395b312d47055671cd3ffd9e7e2d69bdb8f402a879cb97a466bf4701302207331e2fd8231bd887062cf3ad9dc60e6c30920e6fb24914c893d9aaef3faf21e01", "03cda555ac0fd6ece79031f42e0cb98d4774ec9a8a5285afae15f8c42c29434559"], "sequence": 4294967293, "scriptSig": {"hex": "160014064bcc848ea18c44f522c7720c471e9cd51e6eba", "asm": "0014064bcc848ea18c44f522c7720c471e9cd51e6eba"}, "vout": 1, "txid": "fa653ccb13948ecdb65cc75d24f54c3821db3d8bc2b50edacb2d8df2f882ad87"}, {"txinwitness": ["30450221009a049c20f434b0c04a8b2206f27434fbcb749b60f3b64985d290e3e3bf7bb19802200af67c25add9ba75c991b7a95fe87d60597de36599315e8a4638b8a49d2597d501", "02450d6c8b89a6495b059bf5a3cff573ada94d1fa32d61e66c3b13162d63a1dc3c"], "sequence": 4294967293, "scriptSig": {"hex": "1600147611682215a42da673827268299ec1efbe24f938", "asm": "00147611682215a42da673827268299ec1efbe24f938"}, "vout": 1, "txid": "de57ec97c35b13766ef5093aa71a99617be996ba9588f5f98f4c439d29de4fa3"}, {"txinwitness": ["3045022100f1d98b20c49da425807e80d2debe450431bc4fa7184235bef3173c3475970c080220751de873507f81684367ebfd1a689224bbbc2083d15145d5431da0ba8e7ef8fe01", "021d65cfaa5c4c3298c8c3a757b7fa53902900f5439a4ffa97d67a410960dd8227"], "sequence": 4294967293, "scriptSig": {"hex": "16001479acfd0079ae7ea156c1162a07be1708c02826cf", "asm": "001479acfd0079ae7ea156c1162a07be1708c02826cf"}, "vout": 12, "txid": "1c4925058656acf08149a6a0974074c0325151da8284fa763cc8590bcdc8e2b8"}], "txid": "4380fd49ccc6985b384ff1cf526e97be581f2e849dd32ff45693f38b1fdceb66", "blocktime": 1537872018, "version": 2, "confirmations": 11489, "time": 1537872018, "locktime": 542993, "vsize": 531, "size": 936}