{"hash": "438327d17d6a17b2eb4307d92c10b010956fd724cf5ba17beddfbedaf175ffc3", "blockhash": "0000000000000000000e13cef7c366c0283d82e591d1acd082e914b08063cdf1", "vout": [{"scriptPubKey": {"reqSigs": 1, "hex": "76a914aa99c0d3143004b0da43834e5591481810fade2688ac", "addresses": ["1GZ44aC1VUDojxwnTEjGDws9FHBHKYTRoL"], "asm": "OP_DUP OP_HASH160 aa99c0d3143004b0da43834e5591481810fade26 OP_EQUALVERIFY OP_CHECKSIG", "type": "pubkeyhash"}, "value": 0.02883381, "n": 0}, {"scriptPubKey": {"reqSigs": 1, "hex": "76a9140f82a73181f838e5f54561a31066390d95c9896a88ac", "addresses": ["12R1epD5JYnQSoLEUzSEU3iU5oyS3dDTpa"], "asm": "OP_DUP OP_HASH160 0f82a73181f838e5f54561a31066390d95c9896a OP_EQUALVERIFY OP_CHECKSIG", "type": "pubkeyhash"}, "value": 0.12495685, "n": 1}], "hex": "0100000004d4c8bfaf2c5f16e3422b64a49aefd3d4c6ae460491ec983f5228d8d501d5d222000000006a47304402204b65da2a9edd1179eadbfaf325529cb00227b7785ba32582f91a424105cbf1a8022023f414f2d8864789eb384bef5607fee05e89de9ad03ddfdf11c289e117bca9eb012102df5db558015374e2680967448a3bbd22ca7cc7a40f6858a25e9100935387f491ffffffff4aff1107a82de76a9e60df74748bdf55b0f83b995ed9f0d179b902f870041e39000000006b483045022100bb827b276ff2cca347780aee511f33c0dd53770a7c9d5fdeec40e44e6bc533cc0220559430ab53a7e27368272e787a843cb746b3adb4973646a799de0c32c10f15f5012103258c8664e07843b95139f3f1ddda6cf7b891c3842f014c474240a97ff5ad3897ffffffff3ace910cdb1b88af7665f3185baefca4be716fe6c0dab1c554fa01e293ba7a47000000006b483045022100c8faa51ac50efcd89176aa75b4a641e47e62500f9662982d9e5325807ccedd5802204f0fb9fdb338ed0bef71c06e8eb6e229dbee08ea73b8ed62c18a1f3747be980d0121026752c32d3003021957a2efd919959931f91213973f0fe1e83bd4ff3526a72137ffffffffdb0d288e854713c3c4959f01aaf612bc6fa1334edb21be4d3c4e99f47307b2d9000000006a47304402202ad01a5cb767bb895bca0f03cfb9431e45a6c68c00c162de58632ade405e1661022057f32506daf20d32e46bae20781addbc6468e57cb08c13c4d698a577cbedac3c0121025d368eea98acbaaa39de8b39a991132d84c27914d18f7ce59c9a19c621dbb85effffffff0235ff2b00000000001976a914aa99c0d3143004b0da43834e5591481810fade2688ac45abbe00000000001976a9140f82a73181f838e5f54561a31066390d95c9896a88ac00000000", "vin": [{"sequence": 4294967295, "scriptSig": {"hex": "47304402204b65da2a9edd1179eadbfaf325529cb00227b7785ba32582f91a424105cbf1a8022023f414f2d8864789eb384bef5607fee05e89de9ad03ddfdf11c289e117bca9eb012102df5db558015374e2680967448a3bbd22ca7cc7a40f6858a25e9100935387f491", "asm": "304402204b65da2a9edd1179eadbfaf325529cb00227b7785ba32582f91a424105cbf1a8022023f414f2d8864789eb384bef5607fee05e89de9ad03ddfdf11c289e117bca9eb[ALL] 02df5db558015374e2680967448a3bbd22ca7cc7a40f6858a25e9100935387f491"}, "vout": 0, "txid": "22d2d501d5d828523f98ec910446aec6d4d3ef9aa4642b42e3165f2cafbfc8d4"}, {"sequence": 4294967295, "scriptSig": {"hex": "483045022100bb827b276ff2cca347780aee511f33c0dd53770a7c9d5fdeec40e44e6bc533cc0220559430ab53a7e27368272e787a843cb746b3adb4973646a799de0c32c10f15f5012103258c8664e07843b95139f3f1ddda6cf7b891c3842f014c474240a97ff5ad3897", "asm": "3045022100bb827b276ff2cca347780aee511f33c0dd53770a7c9d5fdeec40e44e6bc533cc0220559430ab53a7e27368272e787a843cb746b3adb4973646a799de0c32c10f15f5[ALL] 03258c8664e07843b95139f3f1ddda6cf7b891c3842f014c474240a97ff5ad3897"}, "vout": 0, "txid": "391e0470f802b979d1f0d95e993bf8b055df8b7474df609e6ae72da80711ff4a"}, {"sequence": 4294967295, "scriptSig": {"hex": "483045022100c8faa51ac50efcd89176aa75b4a641e47e62500f9662982d9e5325807ccedd5802204f0fb9fdb338ed0bef71c06e8eb6e229dbee08ea73b8ed62c18a1f3747be980d0121026752c32d3003021957a2efd919959931f91213973f0fe1e83bd4ff3526a72137", "asm": "3045022100c8faa51ac50efcd89176aa75b4a641e47e62500f9662982d9e5325807ccedd5802204f0fb9fdb338ed0bef71c06e8eb6e229dbee08ea73b8ed62c18a1f3747be980d[ALL] 026752c32d3003021957a2efd919959931f91213973f0fe1e83bd4ff3526a72137"}, "vout": 0, "txid": "477aba93e201fa54c5b1dac0e66f71bea4fcae5b18f36576af881bdb0c91ce3a"}, {"sequence": 4294967295, "scriptSig": {"hex": "47304402202ad01a5cb767bb895bca0f03cfb9431e45a6c68c00c162de58632ade405e1661022057f32506daf20d32e46bae20781addbc6468e57cb08c13c4d698a577cbedac3c0121025d368eea98acbaaa39de8b39a991132d84c27914d18f7ce59c9a19c621dbb85e", "asm": "304402202ad01a5cb767bb895bca0f03cfb9431e45a6c68c00c162de58632ade405e1661022057f32506daf20d32e46bae20781addbc6468e57cb08c13c4d698a577cbedac3c[ALL] 025d368eea98acbaaa39de8b39a991132d84c27914d18f7ce59c9a19c621dbb85e"}, "vout": 0, "txid": "d9b20773f4994e3c4dbe21db4e33a16fbc12f6aa019f95c4c31347858e280ddb"}], "txid": "438327d17d6a17b2eb4307d92c10b010956fd724cf5ba17beddfbedaf175ffc3", "blocktime": 1537871767, "version": 1, "confirmations": 11491, "time": 1537871767, "locktime": 0, "vsize": 668, "size": 668}