{"hash": "4386426878fee604c9123df729163a2d36c07f1e78b59e00586c6a664418972b", "blockhash": "0000000000000000000e13cef7c366c0283d82e591d1acd082e914b08063cdf1", "vout": [{"scriptPubKey": {"reqSigs": 1, "hex": "76a91493b0ec6a39349b1ee2b2ae10ef327f00f21d407288ac", "addresses": ["1ETvH4RiUNQdmDgTn1fKaVxbC5QBLa7QhU"], "asm": "OP_DUP OP_HASH160 93b0ec6a39349b1ee2b2ae10ef327f00f21d4072 OP_EQUALVERIFY OP_CHECKSIG", "type": "pubkeyhash"}, "value": 0.00656587, "n": 0}, {"scriptPubKey": {"reqSigs": 1, "hex": "76a914cb148f4e2ad966fbbf8d2bcc772b64f6a1b5668388ac", "addresses": ["1KWnoTiQV93E6Ur9XqgQu1GW3FA9oK1MQd"], "asm": "OP_DUP OP_HASH160 cb148f4e2ad966fbbf8d2bcc772b64f6a1b56683 OP_EQUALVERIFY OP_CHECKSIG", "type": "pubkeyhash"}, "value": 0.00751207, "n": 1}], "hex": "020000000296733e5792d47f2cb6c765a08f5dc02ee7ecbf7d14d5ccb408c2b58975f08ef5010000006b4830450221009e4844762dc4b30b5f980c2fbc14f716d5a9469428b4d23eb2dc4bbaba83352002205aaf6b4384225e6b09c288c66e323d86132de870d701e97f6414c48b58e3e3c201210275b5a291cb593e67ba06eca06954d91b9ff5bb630c40e90f683f9a336837851fffffffffeba71897c41384281398b224fe7c01658969ef97613350a933ba779672f340bd050000006b4830450221008f012a39242f94bacebe3737bff15458146d7d0c5ddc0af376b63db8d735eb530220021225ea1dd2b8157b1a1b363075a18839b6bd2d560704f3f7359d2797d7981f01210275b5a291cb593e67ba06eca06954d91b9ff5bb630c40e90f683f9a336837851fffffffff02cb040a00000000001976a91493b0ec6a39349b1ee2b2ae10ef327f00f21d407288ac67760b00000000001976a914cb148f4e2ad966fbbf8d2bcc772b64f6a1b5668388ac00000000", "vin": [{"sequence": 4294967295, "scriptSig": {"hex": "4830450221009e4844762dc4b30b5f980c2fbc14f716d5a9469428b4d23eb2dc4bbaba83352002205aaf6b4384225e6b09c288c66e323d86132de870d701e97f6414c48b58e3e3c201210275b5a291cb593e67ba06eca06954d91b9ff5bb630c40e90f683f9a336837851f", "asm": "30450221009e4844762dc4b30b5f980c2fbc14f716d5a9469428b4d23eb2dc4bbaba83352002205aaf6b4384225e6b09c288c66e323d86132de870d701e97f6414c48b58e3e3c2[ALL] 0275b5a291cb593e67ba06eca06954d91b9ff5bb630c40e90f683f9a336837851f"}, "vout": 1, "txid": "f58ef07589b5c208b4ccd5147dbfece72ec05d8fa065c7b62c7fd492573e7396"}, {"sequence": 4294967295, "scriptSig": {"hex": "4830450221008f012a39242f94bacebe3737bff15458146d7d0c5ddc0af376b63db8d735eb530220021225ea1dd2b8157b1a1b363075a18839b6bd2d560704f3f7359d2797d7981f01210275b5a291cb593e67ba06eca06954d91b9ff5bb630c40e90f683f9a336837851f", "asm": "30450221008f012a39242f94bacebe3737bff15458146d7d0c5ddc0af376b63db8d735eb530220021225ea1dd2b8157b1a1b363075a18839b6bd2d560704f3f7359d2797d7981f[ALL] 0275b5a291cb593e67ba06eca06954d91b9ff5bb630c40e90f683f9a336837851f"}, "vout": 5, "txid": "bd40f3729677ba33a950336197ef698965017cfe24b29813288413c49718a7eb"}], "txid": "4386426878fee604c9123df729163a2d36c07f1e78b59e00586c6a664418972b", "blocktime": 1537871767, "version": 2, "confirmations": 11491, "time": 1537871767, "locktime": 0, "vsize": 374, "size": 374}