{"hash": "43943359e03b8fab8d067fe8e9b0547ab5896faf326a548b8dd647c82b1444d6", "blockhash": "0000000000000000001cda96e906b7601b7a6fb1a3b62bca570a9e5d8f4b3de1", "vout": [{"scriptPubKey": {"reqSigs": 1, "hex": "76a914e49969fd59e8a1f093f3914dbb5716298903532f88ac", "addresses": ["1Mqir8ZseCuutAtGYdVx5725Rm8JUBadUG"], "asm": "OP_DUP OP_HASH160 e49969fd59e8a1f093f3914dbb5716298903532f OP_EQUALVERIFY OP_CHECKSIG", "type": "pubkeyhash"}, "value": 0.01226275, "n": 0}, {"scriptPubKey": {"reqSigs": 1, "hex": "76a9141838cbed7d43b24e8d13990518c38f49dac432ed88ac", "addresses": ["13D5FuDpkMCrMsVhJif9ec8BAFPmQebQaT"], "asm": "OP_DUP OP_HASH160 1838cbed7d43b24e8d13990518c38f49dac432ed OP_EQUALVERIFY OP_CHECKSIG", "type": "pubkeyhash"}, "value": 0.33846388, "n": 1}], "hex": "010000000174a8564540da6c6cbff7f36738514beb00103e27b86ae81c4465782832518409000000006a47304402206dfb8a98572dc89ff851b2e50b0c17b41ab20f090e39cfcb802bddc4688ba4f502207eb64d90a75000898f71513c60c2eb436426d2d28a424d61510f1d76f47f6d4d012103a59f7e5f769cbbd472a8aaa010b7eb121e638546085107a1387d952fac38e978ffffffff0223b61200000000001976a914e49969fd59e8a1f093f3914dbb5716298903532f88ac74740402000000001976a9141838cbed7d43b24e8d13990518c38f49dac432ed88ac00000000", "vin": [{"sequence": 4294967295, "scriptSig": {"hex": "47304402206dfb8a98572dc89ff851b2e50b0c17b41ab20f090e39cfcb802bddc4688ba4f502207eb64d90a75000898f71513c60c2eb436426d2d28a424d61510f1d76f47f6d4d012103a59f7e5f769cbbd472a8aaa010b7eb121e638546085107a1387d952fac38e978", "asm": "304402206dfb8a98572dc89ff851b2e50b0c17b41ab20f090e39cfcb802bddc4688ba4f502207eb64d90a75000898f71513c60c2eb436426d2d28a424d61510f1d76f47f6d4d[ALL] 03a59f7e5f769cbbd472a8aaa010b7eb121e638546085107a1387d952fac38e978"}, "vout": 0, "txid": "09845132287865441ce86ab8273e1000eb4b513867f3f7bf6c6cda404556a874"}], "txid": "43943359e03b8fab8d067fe8e9b0547ab5896faf326a548b8dd647c82b1444d6", "blocktime": 1537873282, "version": 1, "confirmations": 11483, "time": 1537873282, "locktime": 0, "vsize": 225, "size": 225}