{"hash": "4396f7e18681ab2fb0f4ed14ff4433368b0b88ff2c5ceea4b7b9901811d28404", "blockhash": "0000000000000000001f76057863aec43deb6fa401d9628bb513d65a8098bfab", "vout": [{"scriptPubKey": {"reqSigs": 1, "hex": "a914fd494c26211cd3ee003c5564d43b2c6dd4c192b387", "addresses": ["3QnGgscUfNKK9MDCEFHf4qVdSHqBrTUqpJ"], "asm": "OP_HASH160 fd494c26211cd3ee003c5564d43b2c6dd4c192b3 OP_EQUAL", "type": "scripthash"}, "value": 0.01125, "n": 0}, {"scriptPubKey": {"reqSigs": 1, "hex": "76a91418bb06c69f79fd6be52e72b20923ade04c55d41688ac", "addresses": ["13FmGRz58mfEGSSEPAanhkPtufDWY6EwgT"], "asm": "OP_DUP OP_HASH160 18bb06c69f79fd6be52e72b20923ade04c55d416 OP_EQUALVERIFY OP_CHECKSIG", "type": "pubkeyhash"}, "value": 0.01325234, "n": 1}], "hex": "01000000015b70b24ba031e7cb862fcef366b9d943dafcb57762d0c16610c450c065261198160000006b483045022100bed76e6235581f4726f9fa0d2464c5abb612d4bc3bebefaeefdbcdd2287bf0f2022059986866450ad5ebf30e6aeeb4c546ed6014a2cc4609692dfe27bf4dd4abad6101210232f88e5ee1617bdef454b8f643b464c0a59f2dae5c09e9d95dc72c96dc5439ffffffffff02882a11000000000017a914fd494c26211cd3ee003c5564d43b2c6dd4c192b387b2381400000000001976a91418bb06c69f79fd6be52e72b20923ade04c55d41688ac00000000", "vin": [{"sequence": 4294967295, "scriptSig": {"hex": "483045022100bed76e6235581f4726f9fa0d2464c5abb612d4bc3bebefaeefdbcdd2287bf0f2022059986866450ad5ebf30e6aeeb4c546ed6014a2cc4609692dfe27bf4dd4abad6101210232f88e5ee1617bdef454b8f643b464c0a59f2dae5c09e9d95dc72c96dc5439ff", "asm": "3045022100bed76e6235581f4726f9fa0d2464c5abb612d4bc3bebefaeefdbcdd2287bf0f2022059986866450ad5ebf30e6aeeb4c546ed6014a2cc4609692dfe27bf4dd4abad61[ALL] 0232f88e5ee1617bdef454b8f643b464c0a59f2dae5c09e9d95dc72c96dc5439ff"}, "vout": 22, "txid": "98112665c050c41066c1d06277b5fcda43d9b966f3ce2f86cbe731a04bb2705b"}], "txid": "4396f7e18681ab2fb0f4ed14ff4433368b0b88ff2c5ceea4b7b9901811d28404", "blocktime": 1537873891, "version": 1, "confirmations": 11478, "time": 1537873891, "locktime": 0, "vsize": 224, "size": 224}