{"hash": "4399b8b1a4fc24d937b0027e787e6d495439e12eaef39602650ce6e7c1b311bf", "blockhash": "00000000000000000018f53835495a110e01622372bf6ae95dc86f2b0ab887b0", "vout": [{"scriptPubKey": {"reqSigs": 1, "hex": "a914a5c4cf428e57b9f8b30266d69a5a609c3ccb614787", "addresses": ["3GoXBmSyh63Cb1ZLXmfpvLFDgPJnyiBT39"], "asm": "OP_HASH160 a5c4cf428e57b9f8b30266d69a5a609c3ccb6147 OP_EQUAL", "type": "scripthash"}, "value": 0.020202, "n": 0}, {"scriptPubKey": {"reqSigs": 1, "hex": "76a914802c13abd524845fedd32c29a6612ff0af7c340a88ac", "addresses": ["1CgiJ4syDN8sUg25d7b9ij4UzsWWkt23Ce"], "asm": "OP_DUP OP_HASH160 802c13abd524845fedd32c29a6612ff0af7c340a OP_EQUALVERIFY OP_CHECKSIG", "type": "pubkeyhash"}, "value": 1.28425452, "n": 1}], "hex": "010000000142e05ba3fe2cc28e08c2ed4af3c722c985ae87ace4827d312bc6eb1823293c31010000006b48304502210080ac28c1e35b51cb5d5a92eba138eda37cdd0dee0a5df41d5679a78bc5becf3a02203991669cd739e0b8689b3b44bc38056793310ce3290c4e618aa86abd4e82a683012103df872e529564abb1af48669b9968aeb4a340074103d864181e4bee92dc28d111fdffffff0268d31e000000000017a914a5c4cf428e57b9f8b30266d69a5a609c3ccb614787ec9da707000000001976a914802c13abd524845fedd32c29a6612ff0af7c340a88ac0e490800", "vin": [{"sequence": 4294967293, "scriptSig": {"hex": "48304502210080ac28c1e35b51cb5d5a92eba138eda37cdd0dee0a5df41d5679a78bc5becf3a02203991669cd739e0b8689b3b44bc38056793310ce3290c4e618aa86abd4e82a683012103df872e529564abb1af48669b9968aeb4a340074103d864181e4bee92dc28d111", "asm": "304502210080ac28c1e35b51cb5d5a92eba138eda37cdd0dee0a5df41d5679a78bc5becf3a02203991669cd739e0b8689b3b44bc38056793310ce3290c4e618aa86abd4e82a683[ALL] 03df872e529564abb1af48669b9968aeb4a340074103d864181e4bee92dc28d111"}, "vout": 1, "txid": "313c292318ebc62b317d82e4ac87ae85c922c7f34aedc2088ec22cfea35be042"}], "txid": "4399b8b1a4fc24d937b0027e787e6d495439e12eaef39602650ce6e7c1b311bf", "blocktime": 1537870928, "version": 1, "confirmations": 11512, "time": 1537870928, "locktime": 542990, "vsize": 224, "size": 224}