{"hash": "439fbc055272ad773f068affaaffd875fc7cbcbf80c0c59703acd8af36ad91d9", "blockhash": "0000000000000000000dcc0f55137456b1a82d3642486a52398922ac4d620174", "vout": [{"scriptPubKey": {"reqSigs": 1, "hex": "76a914b248ec01a77157e0d730fa21c3ed26e9de18814488ac", "addresses": ["1HFgdrCaNuZ8Bb32gvwHP9X6VzS7ocgcYM"], "asm": "OP_DUP OP_HASH160 b248ec01a77157e0d730fa21c3ed26e9de188144 OP_EQUALVERIFY OP_CHECKSIG", "type": "pubkeyhash"}, "value": 0.00015, "n": 0}, {"scriptPubKey": {"reqSigs": 1, "hex": "76a914e17d574d08a43863a4a45642ac7d2531e5ab6c0888ac", "addresses": ["1MZHC1Vi8J3eY6xf6KkM3yd4WW5KcMxdAi"], "asm": "OP_DUP OP_HASH160 e17d574d08a43863a4a45642ac7d2531e5ab6c08 OP_EQUALVERIFY OP_CHECKSIG", "type": "pubkeyhash"}, "value": 0.01069688, "n": 1}], "hex": "02000000010510bc535b5be92f3e2ecaf14ec4a57df13e02102635c674af16355af023cf45000000006b483045022100f0416931310097849d0f2aab7419b5c0a1593d45f195446cf5f2e73e8284e95a022024510ec578b44739617212f99b226fca6eb3cf478dc3ec1ebd3803b6d1b7fe91012102b1508e8a5c4f8e9f791d15507dfc0aae15427ca71f9232d1cbceb03f163e3774feffffff02983a0000000000001976a914b248ec01a77157e0d730fa21c3ed26e9de18814488ac78521000000000001976a914e17d574d08a43863a4a45642ac7d2531e5ab6c0888ac0c490800", "vin": [{"sequence": 4294967294, "scriptSig": {"hex": "483045022100f0416931310097849d0f2aab7419b5c0a1593d45f195446cf5f2e73e8284e95a022024510ec578b44739617212f99b226fca6eb3cf478dc3ec1ebd3803b6d1b7fe91012102b1508e8a5c4f8e9f791d15507dfc0aae15427ca71f9232d1cbceb03f163e3774", "asm": "3045022100f0416931310097849d0f2aab7419b5c0a1593d45f195446cf5f2e73e8284e95a022024510ec578b44739617212f99b226fca6eb3cf478dc3ec1ebd3803b6d1b7fe91[ALL] 02b1508e8a5c4f8e9f791d15507dfc0aae15427ca71f9232d1cbceb03f163e3774"}, "vout": 0, "txid": "45cf23f05a3516af74c6352610023ef17da5c44ef1ca2e3e2fe95b5b53bc1005"}], "txid": "439fbc055272ad773f068affaaffd875fc7cbcbf80c0c59703acd8af36ad91d9", "blocktime": 1537870268, "version": 2, "confirmations": 11518, "time": 1537870268, "locktime": 542988, "vsize": 226, "size": 226}