{"hash": "43a516bb9b0eab6e92ec34593e756968183bd6a91baf73c06fd8280dd4032c59", "blockhash": "0000000000000000001f76057863aec43deb6fa401d9628bb513d65a8098bfab", "vout": [{"scriptPubKey": {"type": "nulldata", "hex": "6a4c50000077e30001887ee3febd18774bd779a4b07af8e8e963c7cfd5b95b23cc0f42c2fc38c5522519f5df268510f8e8fa9aa59c00095baa17080612819676dd69bcbc9a9526289ac0f6612cd74e33776ee4", "asm": "OP_RETURN 000077e30001887ee3febd18774bd779a4b07af8e8e963c7cfd5b95b23cc0f42c2fc38c5522519f5df268510f8e8fa9aa59c00095baa17080612819676dd69bcbc9a9526289ac0f6612cd74e33776ee4"}, "value": 0.0, "n": 0}, {"scriptPubKey": {"reqSigs": 1, "hex": "76a9140c82a376e34c5f46c13b5027ffb91a66f9deb0b188ac", "addresses": ["1299cE8ThC2qBJc7TQkL2xVbxwkagBa3JZ"], "asm": "OP_DUP OP_HASH160 0c82a376e34c5f46c13b5027ffb91a66f9deb0b1 OP_EQUALVERIFY OP_CHECKSIG", "type": "pubkeyhash"}, "value": 0.01389484, "n": 1}], "hex": "010000000168a0273f5c0f77f0db5c33e8f11e33196f7c240ffeace00d8268ec220827a331000000006a47304402200cf607b4b89e04e0ef6ef755361a89f6750838b5aba5122f50ea053df3321a4502207158ba85d769596320780362e7f8d9e81eb8f9010b68f75c9d17507e65668d590121023606784d1b03d30daa19ada78e243e945f9290386cc7611fceab0ee4a998e4f2ffffffff020000000000000000536a4c50000077e30001887ee3febd18774bd779a4b07af8e8e963c7cfd5b95b23cc0f42c2fc38c5522519f5df268510f8e8fa9aa59c00095baa17080612819676dd69bcbc9a9526289ac0f6612cd74e33776ee4ac331500000000001976a9140c82a376e34c5f46c13b5027ffb91a66f9deb0b188ac00000000", "vin": [{"sequence": 4294967295, "scriptSig": {"hex": "47304402200cf607b4b89e04e0ef6ef755361a89f6750838b5aba5122f50ea053df3321a4502207158ba85d769596320780362e7f8d9e81eb8f9010b68f75c9d17507e65668d590121023606784d1b03d30daa19ada78e243e945f9290386cc7611fceab0ee4a998e4f2", "asm": "304402200cf607b4b89e04e0ef6ef755361a89f6750838b5aba5122f50ea053df3321a4502207158ba85d769596320780362e7f8d9e81eb8f9010b68f75c9d17507e65668d59[ALL] 023606784d1b03d30daa19ada78e243e945f9290386cc7611fceab0ee4a998e4f2"}, "vout": 0, "txid": "31a3270822ec68820de0acfe0f247c6f19331ef1e8335cdbf0770f5c3f27a068"}], "txid": "43a516bb9b0eab6e92ec34593e756968183bd6a91baf73c06fd8280dd4032c59", "blocktime": 1537873891, "version": 1, "confirmations": 11478, "time": 1537873891, "locktime": 0, "vsize": 283, "size": 283}