{"hash": "88f8530a801eec03a6e4bf7f12da884d773fbb3d747d2b44618772f127da3339", "blockhash": "0000000000000000001e0dab787dd257d1dbfcb92a98c2207d5e1078be1f4165", "vout": [{"scriptPubKey": {"reqSigs": 1, "hex": "a91469f3747687c40cc672ee33f08e550fc3087550ca87", "addresses": ["3BMEXENJJj3Py6DyZCwGUcUMoMx9MYcCKe"], "asm": "OP_HASH160 69f3747687c40cc672ee33f08e550fc3087550ca OP_EQUAL", "type": "scripthash"}, "value": 0.01422991, "n": 0}, {"scriptPubKey": {"reqSigs": 1, "hex": "0014412576b95f742cae472ac626009e987600ccb315", "addresses": ["bc1qgyjhdw2lwsk2u3e2ccnqp85cwcqvevc4xrtzz0"], "asm": "0 412576b95f742cae472ac626009e987600ccb315", "type": "witness_v0_keyhash"}, "value": 0.00021302, "n": 1}], "hex": "0100000000010129b05cf3333e48ba39689aa444f0efe01f96cffd910328c304ea2bcbba692f20050000001716001466fb8d683e138d9308070044e1735742ae5247d7ffffffff028fb615000000000017a91469f3747687c40cc672ee33f08e550fc3087550ca873653000000000000160014412576b95f742cae472ac626009e987600ccb31502483045022100dd9e5b43ff359f512f5177ea0ed25467b17218c5f2aa4e7ed692909cdad9dd3c02204db23f5867296ef5dbe8542dcc356c98adc28b126f97b4ed914c952b12f791cd012102284eee36b1cd35c7f9a42523c199bc2ab0dc01a6d1f1141555ebc323a8dadde200000000", "vin": [{"txinwitness": ["3045022100dd9e5b43ff359f512f5177ea0ed25467b17218c5f2aa4e7ed692909cdad9dd3c02204db23f5867296ef5dbe8542dcc356c98adc28b126f97b4ed914c952b12f791cd01", "02284eee36b1cd35c7f9a42523c199bc2ab0dc01a6d1f1141555ebc323a8dadde2"], "sequence": 4294967295, "scriptSig": {"hex": "16001466fb8d683e138d9308070044e1735742ae5247d7", "asm": "001466fb8d683e138d9308070044e1735742ae5247d7"}, "vout": 5, "txid": "202f69bacb2bea04c3280391fdcf961fe0eff044a49a6839ba483e33f35cb029"}], "txid": "43a9408a0766381a93266948e89a52a5e78c22892ec89f7cac128d6cd9ca7b81", "blocktime": 1537872475, "version": 1, "confirmations": 11486, "time": 1537872475, "locktime": 0, "vsize": 165, "size": 247}