{"hash": "8fe79f3562b4a3223ddbb600d891c1604063f9a37e6cbacc4d69b001331299ac", "blockhash": "0000000000000000000e13cef7c366c0283d82e591d1acd082e914b08063cdf1", "vout": [{"scriptPubKey": {"reqSigs": 1, "hex": "a914956b5aff0d8f26b5e27df602ae0dabad6aa83f0587", "addresses": ["3FK5DKBHdhzPqJLqvKynAuiwCR8rLXJB3j"], "asm": "OP_HASH160 956b5aff0d8f26b5e27df602ae0dabad6aa83f05 OP_EQUAL", "type": "scripthash"}, "value": 0.01000406, "n": 0}, {"scriptPubKey": {"reqSigs": 1, "hex": "76a9142e1b944fe7ffbe969fc1df8d662fd7b5d6303c9b88ac", "addresses": ["15Co856cRnFRCKwSSzECoyT3ozVhuFoJZ6"], "asm": "OP_DUP OP_HASH160 2e1b944fe7ffbe969fc1df8d662fd7b5d6303c9b OP_EQUALVERIFY OP_CHECKSIG", "type": "pubkeyhash"}, "value": 0.0026396, "n": 1}], "hex": "020000000001021498cf535ff797881fe5fde82d9a03831d80ad89954a4f84efc834ae3b8b7d5a0000000017160014bf9651e6d335c9216a431c3c1564ec5683d42b2bfeffffffbf34756785a2065b9e0699a6d8e5f414d86e0ca5aaa726de9ad19818c62581e813000000171600140b7d4ff06be9011a9821be8ad01eaa652f967f3afeffffff02d6430f000000000017a914956b5aff0d8f26b5e27df602ae0dabad6aa83f058718070400000000001976a9142e1b944fe7ffbe969fc1df8d662fd7b5d6303c9b88ac02473044022030bfebfa24978bff95db44d02b8e36d1777a6fc8c3a76ed53392892bdcd65608022029b9636a1ccd2c74a891bce3de58200f84945416c4d65f2cc769a01b46bb4ab20121024c7ab67a1d6e550b178aa721ed98da5cee40211381dcdb935fa7b8bc222f4e2f024730440220217f346f9c78247251e0343db2c3cba9dd250f1ddee322a0662176d4a8c65db202202831a9836a65e85537df32e4a39edc1db382412bc9d5495851b356507721f9a901210227f5cbcc00ffbf0444b5fe65bda05e10401ddbd19ee3be0ec182fc57ad6aa24b10490800", "vin": [{"txinwitness": ["3044022030bfebfa24978bff95db44d02b8e36d1777a6fc8c3a76ed53392892bdcd65608022029b9636a1ccd2c74a891bce3de58200f84945416c4d65f2cc769a01b46bb4ab201", "024c7ab67a1d6e550b178aa721ed98da5cee40211381dcdb935fa7b8bc222f4e2f"], "sequence": 4294967294, "scriptSig": {"hex": "160014bf9651e6d335c9216a431c3c1564ec5683d42b2b", "asm": "0014bf9651e6d335c9216a431c3c1564ec5683d42b2b"}, "vout": 0, "txid": "5a7d8b3bae34c8ef844f4a9589ad801d83039a2de8fde51f8897f75f53cf9814"}, {"txinwitness": ["30440220217f346f9c78247251e0343db2c3cba9dd250f1ddee322a0662176d4a8c65db202202831a9836a65e85537df32e4a39edc1db382412bc9d5495851b356507721f9a901", "0227f5cbcc00ffbf0444b5fe65bda05e10401ddbd19ee3be0ec182fc57ad6aa24b"], "sequence": 4294967294, "scriptSig": {"hex": "1600140b7d4ff06be9011a9821be8ad01eaa652f967f3a", "asm": "00140b7d4ff06be9011a9821be8ad01eaa652f967f3a"}, "vout": 19, "txid": "e88125c61898d19ade26a7aaa50c6ed814f4e5d8a699069e5b06a285677534bf"}], "txid": "43ab7bbb176beca9d1e9789642ad0cfb4cb2f7a0991732622aec4c3f15a0f6c2", "blocktime": 1537871767, "version": 2, "confirmations": 11495, "time": 1537871767, "locktime": 542992, "vsize": 258, "size": 420}