{"hash": "43ac17c2ced68edc94eaed7d2e0291c00dd41738aea8d1a618a5ac4ff3f12851", "blockhash": "0000000000000000000e13cef7c366c0283d82e591d1acd082e914b08063cdf1", "vout": [{"scriptPubKey": {"reqSigs": 1, "hex": "a91452578ea94a3120036415b0f1b35d27a65952300d87", "addresses": ["39CQDrpAo8pqzmkh2cfwtx9BYuN6EqbrUE"], "asm": "OP_HASH160 52578ea94a3120036415b0f1b35d27a65952300d OP_EQUAL", "type": "scripthash"}, "value": 0.001564, "n": 0}, {"scriptPubKey": {"reqSigs": 1, "hex": "76a914ab2f4bbcaf15b0738f6c0e408fb3ad7cde5bcf1388ac", "addresses": ["1Gc9CycfjYH2J11uhbPA6qEBBrrSwZ32w7"], "asm": "OP_DUP OP_HASH160 ab2f4bbcaf15b0738f6c0e408fb3ad7cde5bcf13 OP_EQUALVERIFY OP_CHECKSIG", "type": "pubkeyhash"}, "value": 1.05319062, "n": 1}], "hex": "01000000010d79d324cb5af0a26bbb8ea30f2e669d062debd2f3c6387e5cb2f6937bb305a8010000006b483045022100d2885a0a19f5912ef6611b486b8e954e2aef2487c8aa829c8c4af0021c02cd5e02207e35541a3491b4020621c3d6b01e33ab8eb02d3e0344a53d973d20af21f4816901210302736ed57d28d7c2d88f7678ff2556b71ea4215e8f9b062705fb895db843f7edffffffff02f06202000000000017a91452578ea94a3120036415b0f1b35d27a65952300d87960a4706000000001976a914ab2f4bbcaf15b0738f6c0e408fb3ad7cde5bcf1388ac00000000", "vin": [{"sequence": 4294967295, "scriptSig": {"hex": "483045022100d2885a0a19f5912ef6611b486b8e954e2aef2487c8aa829c8c4af0021c02cd5e02207e35541a3491b4020621c3d6b01e33ab8eb02d3e0344a53d973d20af21f4816901210302736ed57d28d7c2d88f7678ff2556b71ea4215e8f9b062705fb895db843f7ed", "asm": "3045022100d2885a0a19f5912ef6611b486b8e954e2aef2487c8aa829c8c4af0021c02cd5e02207e35541a3491b4020621c3d6b01e33ab8eb02d3e0344a53d973d20af21f48169[ALL] 0302736ed57d28d7c2d88f7678ff2556b71ea4215e8f9b062705fb895db843f7ed"}, "vout": 1, "txid": "a805b37b93f6b25c7e38c6f3d2eb2d069d662e0fa38ebb6ba2f05acb24d3790d"}], "txid": "43ac17c2ced68edc94eaed7d2e0291c00dd41738aea8d1a618a5ac4ff3f12851", "blocktime": 1537871767, "version": 1, "confirmations": 11493, "time": 1537871767, "locktime": 0, "vsize": 224, "size": 224}