{"hash": "db289cee676a58d6f3cafa1e8ceda26ded5c85d11ac545327a57989b3d2bda22", "blockhash": "0000000000000000000e13cef7c366c0283d82e591d1acd082e914b08063cdf1", "vout": [{"scriptPubKey": {"reqSigs": 1, "hex": "a9141c02f64d3ac78ddfb9ddc2777efaf0ebeb50cfad87", "addresses": ["34F8Pj5xaSvuFPZJPuu1WhU5Lycc4cDfYb"], "asm": "OP_HASH160 1c02f64d3ac78ddfb9ddc2777efaf0ebeb50cfad OP_EQUAL", "type": "scripthash"}, "value": 9.485e-05, "n": 0}], "hex": "01000000000101dd31acd21c33654f68c0e318f87c83eefc0754466804f970c409270fa06be648010000002322002014c03fe76345faaa4ec46c57950843e3f79f65adcfbff61960635265441dcf9afdffffff010d2500000000000017a9141c02f64d3ac78ddfb9ddc2777efaf0ebeb50cfad87040047304402202897208ce7777e83c5a71312378638efdea0054c0a9dce6f1f245ade22ac83a3022005a04406002f1a6eb9b4c945e9dd4954e44923fb1429812ceb0b69f19759f8930147304402207441d1f35352942d66f702a468e1c999217c5bb83e77d5a68e717d5586b7970202205a3299cb31b210e37882df5519591ebd7262a3b01406b0cc7321ae056150e3490147522102dbf5e9cec826d2c2fec02eae0a4228d3adaf40d62563bd7062acaf0e89ebf4ad210357484165f0ccb57f6f2cda20bee30d5d7718d1edcd13f3849df46400b3e7d7df52ae10490800", "vin": [{"txinwitness": ["", "304402202897208ce7777e83c5a71312378638efdea0054c0a9dce6f1f245ade22ac83a3022005a04406002f1a6eb9b4c945e9dd4954e44923fb1429812ceb0b69f19759f89301", "304402207441d1f35352942d66f702a468e1c999217c5bb83e77d5a68e717d5586b7970202205a3299cb31b210e37882df5519591ebd7262a3b01406b0cc7321ae056150e34901", "522102dbf5e9cec826d2c2fec02eae0a4228d3adaf40d62563bd7062acaf0e89ebf4ad210357484165f0ccb57f6f2cda20bee30d5d7718d1edcd13f3849df46400b3e7d7df52ae"], "sequence": 4294967293, "scriptSig": {"hex": "22002014c03fe76345faaa4ec46c57950843e3f79f65adcfbff61960635265441dcf9a", "asm": "002014c03fe76345faaa4ec46c57950843e3f79f65adcfbff61960635265441dcf9a"}, "vout": 1, "txid": "48e66ba00f2709c470f90468465407fcee837cf818e3c0684f65331cd2ac31dd"}], "txid": "43ae0479f4013b50b6d32e33e8e292829dc7a8e8e206109321589f5be244370f", "blocktime": 1537871767, "version": 1, "confirmations": 11495, "time": 1537871767, "locktime": 542992, "vsize": 173, "size": 338}