{"hash": "90d3ce76d836b433faad7b378d1b36c64b71d6fd6dcf2321f9120f7d64374e08", "blockhash": "0000000000000000001cda96e906b7601b7a6fb1a3b62bca570a9e5d8f4b3de1", "vout": [{"scriptPubKey": {"reqSigs": 1, "hex": "a91470177a336f202066bf60f84525c71ff97b08300187", "addresses": ["3BuhjGEVxAukCuEw7axCCNGnXBtmvHJ7Bi"], "asm": "OP_HASH160 70177a336f202066bf60f84525c71ff97b083001 OP_EQUAL", "type": "scripthash"}, "value": 0.00051024, "n": 0}, {"scriptPubKey": {"reqSigs": 1, "hex": "a914f5342287aaa57f5c05756dbd5ef14091cc70030f87", "addresses": ["3Q3XvwKWsx3ocmCXheK6pAo5ieooFx75hh"], "asm": "OP_HASH160 f5342287aaa57f5c05756dbd5ef14091cc70030f OP_EQUAL", "type": "scripthash"}, "value": 0.0921712, "n": 1}], "hex": "01000000000101a27757d4126d733c2ee1d7a70f39b46539503d6469d3467385a90cd1d3b46a0801000000232200204fd7968ffe15cb453352a1e9ee2915eff8b6d6252d5a351f9092b82ca10eb12cffffffff0250c700000000000017a91470177a336f202066bf60f84525c71ff97b0830018760a48c000000000017a914f5342287aaa57f5c05756dbd5ef14091cc70030f87040047304402206046288d7ee3a48fd1bca610d9ed18abd5d66bcf4e150554b9fad0ba2d0a850602200716a1dff3be1e7d63f2a4bfc7d5f4643ee653bc3456efd989cfa78bd60dbe3d01483045022100c5821b030e589bd10c28c92571afcd97cb8799f7720cb035c9a6cfbdd71388f6022039c59b73d7c4633efcabe218c8aebbeef85089c39091eeb5a1d8402f092df0870147522103b70e79262cbb7310fe069dea7c473b53276b75c67fb841ff66279f152a3fe0172103871fc2ca08e6950b38867e8e6a0e94ee625223d3aa0df5c65f414c6d784467e252ae00000000", "vin": [{"txinwitness": ["", "304402206046288d7ee3a48fd1bca610d9ed18abd5d66bcf4e150554b9fad0ba2d0a850602200716a1dff3be1e7d63f2a4bfc7d5f4643ee653bc3456efd989cfa78bd60dbe3d01", "3045022100c5821b030e589bd10c28c92571afcd97cb8799f7720cb035c9a6cfbdd71388f6022039c59b73d7c4633efcabe218c8aebbeef85089c39091eeb5a1d8402f092df08701", "522103b70e79262cbb7310fe069dea7c473b53276b75c67fb841ff66279f152a3fe0172103871fc2ca08e6950b38867e8e6a0e94ee625223d3aa0df5c65f414c6d784467e252ae"], "sequence": 4294967295, "scriptSig": {"hex": "2200204fd7968ffe15cb453352a1e9ee2915eff8b6d6252d5a351f9092b82ca10eb12c", "asm": "00204fd7968ffe15cb453352a1e9ee2915eff8b6d6252d5a351f9092b82ca10eb12c"}, "vout": 1, "txid": "086ab4d3d10ca9857346d369643d503965b4390fa7d7e12e3c736d12d45777a2"}], "txid": "43b4cc1d7dc9a0e88e18bf9f344650b6d2b2bb9c45ef500cc87050d3f50b7e75", "blocktime": 1537873282, "version": 1, "confirmations": 11484, "time": 1537873282, "locktime": 0, "vsize": 206, "size": 371}