{"hash": "43b539f5bd3ca49237a2a1508dd4227e7a874efe134892bb0d44531db1ff798d", "blockhash": "00000000000000000018f53835495a110e01622372bf6ae95dc86f2b0ab887b0", "vout": [{"scriptPubKey": {"reqSigs": 1, "hex": "76a9143972cafa39dfada03af5b929d90cab791fd6be0d88ac", "addresses": ["16Em2tF8DXtp6fC1HLXi7hsBAfUT3LZ2ZM"], "asm": "OP_DUP OP_HASH160 3972cafa39dfada03af5b929d90cab791fd6be0d OP_EQUALVERIFY OP_CHECKSIG", "type": "pubkeyhash"}, "value": 0.00254573, "n": 0}], "hex": "010000000101fc45ece5553453537a9a566d7124d090fb1bf594c017f713327e6ceb16ff8f010000006b483045022100cea87edf47f5af0cd8a77751e9b92275f0e299bc0baf335073d3ffd40fa1f65f02202b9341ac56bc342d91b10b82489560938d4e90205cf9b220f1355e6f95cb04fd012102153cf762e8c3d63fef60143a25c33bd297d121dc690d8b6f59da7a9b13ed03acffffffff016de20300000000001976a9143972cafa39dfada03af5b929d90cab791fd6be0d88ac00000000", "vin": [{"sequence": 4294967295, "scriptSig": {"hex": "483045022100cea87edf47f5af0cd8a77751e9b92275f0e299bc0baf335073d3ffd40fa1f65f02202b9341ac56bc342d91b10b82489560938d4e90205cf9b220f1355e6f95cb04fd012102153cf762e8c3d63fef60143a25c33bd297d121dc690d8b6f59da7a9b13ed03ac", "asm": "3045022100cea87edf47f5af0cd8a77751e9b92275f0e299bc0baf335073d3ffd40fa1f65f02202b9341ac56bc342d91b10b82489560938d4e90205cf9b220f1355e6f95cb04fd[ALL] 02153cf762e8c3d63fef60143a25c33bd297d121dc690d8b6f59da7a9b13ed03ac"}, "vout": 1, "txid": "8fff16eb6c7e3213f717c094f51bfb90d024716d569a7a53533455e5ec45fc01"}], "txid": "43b539f5bd3ca49237a2a1508dd4227e7a874efe134892bb0d44531db1ff798d", "blocktime": 1537870928, "version": 1, "confirmations": 11512, "time": 1537870928, "locktime": 0, "vsize": 192, "size": 192}