{"hash": "c2555721ff79d7ec5eef04e5f17ee0083b2c9b2adc50273fb8ff21536276cde2", "blockhash": "00000000000000000004ffacab907a6b429b9a5745fa0b75af4234bf69dd7176", "vout": [{"scriptPubKey": {"reqSigs": 1, "hex": "a914100895593886df02c218cbf156c12563c24cd8b487", "addresses": ["339o1zpEkyNvEX4a6q7GKfQMcATEShaLiR"], "asm": "OP_HASH160 100895593886df02c218cbf156c12563c24cd8b4 OP_EQUAL", "type": "scripthash"}, "value": 0.00998349, "n": 0}, {"scriptPubKey": {"reqSigs": 1, "hex": "76a914ecd3be48417e64da9512d7885a0e13f2ffb483eb88ac", "addresses": ["1NbE8TKDszXTvRvd47A3rLrAW5TaEdthUA"], "asm": "OP_DUP OP_HASH160 ecd3be48417e64da9512d7885a0e13f2ffb483eb OP_EQUALVERIFY OP_CHECKSIG", "type": "pubkeyhash"}, "value": 0.017716, "n": 1}], "hex": "02000000000101032010df2471e9796d78ac8f4581be3e8d6ba5da3f0f52ce68738f5ef0452dc300000000171600144899cf83b15335de53d8a4158be214b4c1598eccfeffffff02cd3b0f000000000017a914100895593886df02c218cbf156c12563c24cd8b48750081b00000000001976a914ecd3be48417e64da9512d7885a0e13f2ffb483eb88ac024830450221008dc11ab951b30402cbcab387d85dc634416bbed8cced36bfe7e7a5957d68c4fa022027a60ffd703900bdcc0a032974a8237aba2861167be8a7cc8b0cfb883bf7b2210121034aa2808135452c443c7615ef15da92dbb85fa17a62164c192e2137f0cd8b387916490800", "vin": [{"txinwitness": ["30450221008dc11ab951b30402cbcab387d85dc634416bbed8cced36bfe7e7a5957d68c4fa022027a60ffd703900bdcc0a032974a8237aba2861167be8a7cc8b0cfb883bf7b22101", "034aa2808135452c443c7615ef15da92dbb85fa17a62164c192e2137f0cd8b3879"], "sequence": 4294967294, "scriptSig": {"hex": "1600144899cf83b15335de53d8a4158be214b4c1598ecc", "asm": "00144899cf83b15335de53d8a4158be214b4c1598ecc"}, "vout": 0, "txid": "c32d45f05e8f7368ce520f3fdaa56b8d3ebe81458fac786d79e97124df102003"}], "txid": "43b82ef1e3edc59b49a11ccb972566fd27a35e220c4ae0bd404f5a5fa7a73cb3", "blocktime": 1537875543, "version": 2, "confirmations": 11464, "time": 1537875543, "locktime": 542998, "vsize": 168, "size": 250}