{"hash": "43bba272d3a6450dac85a04d00107d18ca6e7dd0fb248ca1c81fdae851cb149e", "blockhash": "00000000000000000024a2167bbff67b0be802c0b01cdd79e6331c2be6459f87", "vout": [{"scriptPubKey": {"reqSigs": 1, "hex": "a914f777ad3e3ef3c4d37903c1c7e98994be592dee5287", "addresses": ["3QFWCDBnAWQhCu74BMQDtBaX9au3JXsr2g"], "asm": "OP_HASH160 f777ad3e3ef3c4d37903c1c7e98994be592dee52 OP_EQUAL", "type": "scripthash"}, "value": 0.11, "n": 0}, {"scriptPubKey": {"reqSigs": 1, "hex": "76a91412ff4bad2008f0d6c80d60db1d5160776228f22988ac", "addresses": ["12jSzhmfbNjw1255a2FSnbzaLGhkjHAzpv"], "asm": "OP_DUP OP_HASH160 12ff4bad2008f0d6c80d60db1d5160776228f229 OP_EQUALVERIFY OP_CHECKSIG", "type": "pubkeyhash"}, "value": 0.00957302, "n": 1}], "hex": "02000000045cf3505cf0ebbe83a4318da72f878065d69a6ad25e8b40115836e664e171431c000000006b483045022100893d28f8bca4385c78fb0f1746fe2f82f8afcf2f6d9092e127baf75e82e3299a02201059c90278abf1f46f3e949fe3d3fa2a7dfe473fe3aab9572bb7c4655b572f6a01210201b37082381715b493fdbb5aef65cfcfa55fc043301599ff6f84d0e05d5f9914feffffff3b222b09604abf9e70885858f5742ca0ff62859155d664b244d5f202dc558b41050000006b483045022100fcd82bba1ca0e512d83b477c41240cbdb6bb711592ee8f581bbf8fef2847a2f302205a087c25a67f0561db1aad4533a1589991638cd8131932d21fa58990b38f4dd001210243e818e2fcc9ae31addb3ddefb6a463f461f39813bd31d3a433cc86e10060a58feffffff265906494b029dfbb2dbfac0ae1386cb6e9913c1a6600b56f09dbccb85d39d80000000006a47304402204c7b01adc72b6fd4750270e004079c8b75b279c6cbb08e7780c8b4477958eca502207fecf727c7b304f02783631f8bdb465bcb6c11f53f223ae0d57407f97d3d1ac801210290a601c570c815566db3f18e3475212ea136a5b081daf8a5fc4a02095c694359feffffff3003f5b40c0045f0517cd2fc68ea97f0ba94e9f8c0097140586c15584b2a0de9000000006b483045022100a9f050fad940b208ece37f9bbfc9d6f0203134f2ba3f419e9ada973810b78895022041b981b62642e2d83336a33261c891e1cfdb46490ac8a88bc28c1e2a1895fb65012102755436590d3738afd400b8baf8b8f58f5d64a73b3755013fea613f805259aba9feffffff02c0d8a7000000000017a914f777ad3e3ef3c4d37903c1c7e98994be592dee5287769b0e00000000001976a91412ff4bad2008f0d6c80d60db1d5160776228f22988ac0d490800", "vin": [{"sequence": 4294967294, "scriptSig": {"hex": "483045022100893d28f8bca4385c78fb0f1746fe2f82f8afcf2f6d9092e127baf75e82e3299a02201059c90278abf1f46f3e949fe3d3fa2a7dfe473fe3aab9572bb7c4655b572f6a01210201b37082381715b493fdbb5aef65cfcfa55fc043301599ff6f84d0e05d5f9914", "asm": "3045022100893d28f8bca4385c78fb0f1746fe2f82f8afcf2f6d9092e127baf75e82e3299a02201059c90278abf1f46f3e949fe3d3fa2a7dfe473fe3aab9572bb7c4655b572f6a[ALL] 0201b37082381715b493fdbb5aef65cfcfa55fc043301599ff6f84d0e05d5f9914"}, "vout": 0, "txid": "1c4371e164e6365811408b5ed26a9ad66580872fa78d31a483beebf05c50f35c"}, {"sequence": 4294967294, "scriptSig": {"hex": "483045022100fcd82bba1ca0e512d83b477c41240cbdb6bb711592ee8f581bbf8fef2847a2f302205a087c25a67f0561db1aad4533a1589991638cd8131932d21fa58990b38f4dd001210243e818e2fcc9ae31addb3ddefb6a463f461f39813bd31d3a433cc86e10060a58", "asm": "3045022100fcd82bba1ca0e512d83b477c41240cbdb6bb711592ee8f581bbf8fef2847a2f302205a087c25a67f0561db1aad4533a1589991638cd8131932d21fa58990b38f4dd0[ALL] 0243e818e2fcc9ae31addb3ddefb6a463f461f39813bd31d3a433cc86e10060a58"}, "vout": 5, "txid": "418b55dc02f2d544b264d655918562ffa02c74f5585888709ebf4a60092b223b"}, {"sequence": 4294967294, "scriptSig": {"hex": "47304402204c7b01adc72b6fd4750270e004079c8b75b279c6cbb08e7780c8b4477958eca502207fecf727c7b304f02783631f8bdb465bcb6c11f53f223ae0d57407f97d3d1ac801210290a601c570c815566db3f18e3475212ea136a5b081daf8a5fc4a02095c694359", "asm": "304402204c7b01adc72b6fd4750270e004079c8b75b279c6cbb08e7780c8b4477958eca502207fecf727c7b304f02783631f8bdb465bcb6c11f53f223ae0d57407f97d3d1ac8[ALL] 0290a601c570c815566db3f18e3475212ea136a5b081daf8a5fc4a02095c694359"}, "vout": 0, "txid": "809dd385cbbc9df0560b60a6c113996ecb8613aec0fadbb2fb9d024b49065926"}, {"sequence": 4294967294, "scriptSig": {"hex": "483045022100a9f050fad940b208ece37f9bbfc9d6f0203134f2ba3f419e9ada973810b78895022041b981b62642e2d83336a33261c891e1cfdb46490ac8a88bc28c1e2a1895fb65012102755436590d3738afd400b8baf8b8f58f5d64a73b3755013fea613f805259aba9", "asm": "3045022100a9f050fad940b208ece37f9bbfc9d6f0203134f2ba3f419e9ada973810b78895022041b981b62642e2d83336a33261c891e1cfdb46490ac8a88bc28c1e2a1895fb65[ALL] 02755436590d3738afd400b8baf8b8f58f5d64a73b3755013fea613f805259aba9"}, "vout": 0, "txid": "e90d2a4b58156c58407109c0f8e994baf097ea68fcd27c51f045000cb4f50330"}], "txid": "43bba272d3a6450dac85a04d00107d18ca6e7dd0fb248ca1c81fdae851cb149e", "blocktime": 1537870564, "version": 2, "confirmations": 11515, "time": 1537870564, "locktime": 542989, "vsize": 667, "size": 667}