{"hash": "bce52774d9a2df518fd8db18db4b3170a5d4d7b0a6d60867ce0cf4ae97060795", "blockhash": "00000000000000000018f53835495a110e01622372bf6ae95dc86f2b0ab887b0", "vout": [{"scriptPubKey": {"reqSigs": 1, "hex": "a914483861d6e6ac0bdc9c57276795bee780e45e7a4387", "addresses": ["38Gt7rk82Q4GKKu82SKuP7dmMH22x8TJMJ"], "asm": "OP_HASH160 483861d6e6ac0bdc9c57276795bee780e45e7a43 OP_EQUAL", "type": "scripthash"}, "value": 0.00255617, "n": 0}, {"scriptPubKey": {"reqSigs": 1, "hex": "a914c59c89ba2ba954874b61ef6a206d9e8795cc5a7687", "addresses": ["3KhtZnVB96VYGeXm898nBETvQ3q8uQ6Pnu"], "asm": "OP_HASH160 c59c89ba2ba954874b61ef6a206d9e8795cc5a76 OP_EQUAL", "type": "scripthash"}, "value": 0.008675, "n": 1}], "hex": "0100000000010102ed24e44d74c617cb56cc376d001f9a50987d61eaeb3312b8d2d09b246329810100000023220020692b4b85ba2aa9663063f37149224f6906fa7163f9ab483652cabdc98b94632affffffff0281e603000000000017a914483861d6e6ac0bdc9c57276795bee780e45e7a4387ac3c0d000000000017a914c59c89ba2ba954874b61ef6a206d9e8795cc5a76870400473044022045b80b430bfb8f7cbe1752be71dc77e1c3bd165379d37b9dc7bae50d7629cbb102207966d74103e023f7375e09d519c358c61608ff921f3c6ec2c7b9152c454dae9101483045022100e498643401f64609709f87b95c764db7323ff852d3a1844901f5cdc47bd0275b02204b0d6a8d0af04614237b8e7ea4f89207be7e90082029fbdc56e25676a01935280169522102223f024d48f814b6b8fd72d8299ed5802d671e592352142aeeebc748940bad5221033bccf77ff3848f6a615ca61f9858e01c102ed14d48fa05acba9bb77e9334643821038643133a561c1e8120113d51e4ff1cc60e0bba30c0243590364a9ae8f5dff49e53ae00000000", "vin": [{"txinwitness": ["", "3044022045b80b430bfb8f7cbe1752be71dc77e1c3bd165379d37b9dc7bae50d7629cbb102207966d74103e023f7375e09d519c358c61608ff921f3c6ec2c7b9152c454dae9101", "3045022100e498643401f64609709f87b95c764db7323ff852d3a1844901f5cdc47bd0275b02204b0d6a8d0af04614237b8e7ea4f89207be7e90082029fbdc56e25676a019352801", "522102223f024d48f814b6b8fd72d8299ed5802d671e592352142aeeebc748940bad5221033bccf77ff3848f6a615ca61f9858e01c102ed14d48fa05acba9bb77e9334643821038643133a561c1e8120113d51e4ff1cc60e0bba30c0243590364a9ae8f5dff49e53ae"], "sequence": 4294967295, "scriptSig": {"hex": "220020692b4b85ba2aa9663063f37149224f6906fa7163f9ab483652cabdc98b94632a", "asm": "0020692b4b85ba2aa9663063f37149224f6906fa7163f9ab483652cabdc98b94632a"}, "vout": 1, "txid": "812963249bd0d2b81233ebea617d98509a1f006d37cc56cb17c6744de424ed02"}], "txid": "43bd07271b7167933210c6f1fd46704c3abcd823bb941115b022fcdcc2c3a970", "blocktime": 1537870928, "version": 1, "confirmations": 11512, "time": 1537870928, "locktime": 0, "vsize": 214, "size": 405}