{"hash": "43bf1e109e50fb1117eb490188c7a4b4daca527af76d18e82423b718f806b7d9", "blockhash": "0000000000000000001e0dab787dd257d1dbfcb92a98c2207d5e1078be1f4165", "vout": [{"scriptPubKey": {"reqSigs": 1, "hex": "76a914a6d3b0c5d9eed01f27ac26f2fb4a45971026dac188ac", "addresses": ["1GD6mMpZTDVPaCJdwNBSwsei965aaTHV9D"], "asm": "OP_DUP OP_HASH160 a6d3b0c5d9eed01f27ac26f2fb4a45971026dac1 OP_EQUALVERIFY OP_CHECKSIG", "type": "pubkeyhash"}, "value": 0.0177526, "n": 0}], "hex": "01000000029b2a756e5d51c09e2d656176923e45ae7df838eb5cf012b0fbe3a574e188ca81000000006a473044022032597438102fc9f220da0dc849d37f6c139789cf6eec6a137f4f325224f5799d02207bf7697ad8fa4ded9c406e90e83d547dbb9fa4936a3616fcd014a417b4baa2d7012102990808d3c0782c8c77f297577c39046796598445de96f21a08927a9667549dabffffffff4ca32406b51545f05758a2b0a1008e30d72eddff73d53282220eb6a7cf2946b6000000006b483045022100adc97a41134943fab6ec11c451b059ed28affe18b6c9b75cdafef74a6c0377a30220299ac374c7a11446f22f565b9441cb86dc509c7501c4ac014ccf5ead1da16a550121029644e9d5bbcebe65abbe50f495514fff0751fcac2e001586fb945583b83b6c2fffffffff019c161b00000000001976a914a6d3b0c5d9eed01f27ac26f2fb4a45971026dac188ac00000000", "vin": [{"sequence": 4294967295, "scriptSig": {"hex": "473044022032597438102fc9f220da0dc849d37f6c139789cf6eec6a137f4f325224f5799d02207bf7697ad8fa4ded9c406e90e83d547dbb9fa4936a3616fcd014a417b4baa2d7012102990808d3c0782c8c77f297577c39046796598445de96f21a08927a9667549dab", "asm": "3044022032597438102fc9f220da0dc849d37f6c139789cf6eec6a137f4f325224f5799d02207bf7697ad8fa4ded9c406e90e83d547dbb9fa4936a3616fcd014a417b4baa2d7[ALL] 02990808d3c0782c8c77f297577c39046796598445de96f21a08927a9667549dab"}, "vout": 0, "txid": "81ca88e174a5e3fbb012f05ceb38f87dae453e927661652d9ec0515d6e752a9b"}, {"sequence": 4294967295, "scriptSig": {"hex": "483045022100adc97a41134943fab6ec11c451b059ed28affe18b6c9b75cdafef74a6c0377a30220299ac374c7a11446f22f565b9441cb86dc509c7501c4ac014ccf5ead1da16a550121029644e9d5bbcebe65abbe50f495514fff0751fcac2e001586fb945583b83b6c2f", "asm": "3045022100adc97a41134943fab6ec11c451b059ed28affe18b6c9b75cdafef74a6c0377a30220299ac374c7a11446f22f565b9441cb86dc509c7501c4ac014ccf5ead1da16a55[ALL] 029644e9d5bbcebe65abbe50f495514fff0751fcac2e001586fb945583b83b6c2f"}, "vout": 0, "txid": "b64629cfa7b60e228232d573ffdd2ed7308e00a1b0a25857f04515b50624a34c"}], "txid": "43bf1e109e50fb1117eb490188c7a4b4daca527af76d18e82423b718f806b7d9", "blocktime": 1537872475, "version": 1, "confirmations": 11486, "time": 1537872475, "locktime": 0, "vsize": 339, "size": 339}