{"hash": "9d50b3ec74c1bab75a8c6f29272312b071e26c9b3d95aca5a53aba32060632e4", "blockhash": "00000000000000000024a2167bbff67b0be802c0b01cdd79e6331c2be6459f87", "vout": [{"scriptPubKey": {"reqSigs": 1, "hex": "76a914ebfc4fffbac63b5bd067c1e3a27c29d32e0a60e788ac", "addresses": ["1NWn44TqK7Dkc3Q5btZV7MTEo5UVh1TVnt"], "asm": "OP_DUP OP_HASH160 ebfc4fffbac63b5bd067c1e3a27c29d32e0a60e7 OP_EQUALVERIFY OP_CHECKSIG", "type": "pubkeyhash"}, "value": 0.03026, "n": 0}, {"scriptPubKey": {"reqSigs": 1, "hex": "a9143760bd01247c46ab62c341cdedb105a921f7313687", "addresses": ["36jpyb8WQWQrsgRAEtWxcdccWBDR8yPkAe"], "asm": "OP_HASH160 3760bd01247c46ab62c341cdedb105a921f73136 OP_EQUAL", "type": "scripthash"}, "value": 4.35957595, "n": 1}], "hex": "02000000000101abaa677b2d3e733324b01f746097c27cb081778d8df46f1b9af210263b9f738201000000171600143714355044051a54a53d1f55d30db18b418bc342feffffff02502c2e00000000001976a914ebfc4fffbac63b5bd067c1e3a27c29d32e0a60e788ac5b2ffc190000000017a9143760bd01247c46ab62c341cdedb105a921f731368702483045022100a8b8a502e640a59e0ef18a2dd71bff865828a557889796561a9d3d498eff610502203975dae22453cb2958ecc3456f7b0e6bb391c0f52a26d751d3438411ddcbdc930121021c4c0d5d61b6fc04c1eb74a6f3f69f22d0bc099531863fa87f6eb76a131c7cab0d490800", "vin": [{"txinwitness": ["3045022100a8b8a502e640a59e0ef18a2dd71bff865828a557889796561a9d3d498eff610502203975dae22453cb2958ecc3456f7b0e6bb391c0f52a26d751d3438411ddcbdc9301", "021c4c0d5d61b6fc04c1eb74a6f3f69f22d0bc099531863fa87f6eb76a131c7cab"], "sequence": 4294967294, "scriptSig": {"hex": "1600143714355044051a54a53d1f55d30db18b418bc342", "asm": "00143714355044051a54a53d1f55d30db18b418bc342"}, "vout": 1, "txid": "82739f3b2610f29a1b6ff48d8d7781b07cc29760741fb02433733e2d7b67aaab"}], "txid": "43ca048fad7349ff762e117391b7696c3830d830a1602e852d57c81ae7d4efe8", "blocktime": 1537870564, "version": 2, "confirmations": 11515, "time": 1537870564, "locktime": 542989, "vsize": 168, "size": 250}