{"hash": "1af582c95f30609e4eeb5936e038ebd68da8057056505a60f2e1f90048903e0e", "blockhash": "0000000000000000000e13cef7c366c0283d82e591d1acd082e914b08063cdf1", "vout": [{"scriptPubKey": {"reqSigs": 1, "hex": "0014e7bb94cfe86a2f6df1e7707b5ef11b2d66f5ddf2", "addresses": ["bc1qu7aefnlgdghkmu08wpa4augm94n0th0jk257hy"], "asm": "0 e7bb94cfe86a2f6df1e7707b5ef11b2d66f5ddf2", "type": "witness_v0_keyhash"}, "value": 0.39584013, "n": 0}, {"scriptPubKey": {"reqSigs": 1, "hex": "76a914a19638ac12fd4b346d993dc736c44be56c7596e688ac", "addresses": ["1FjPkT2xzAr3X5HM6yedoUaVjpGAXMH6pH"], "asm": "OP_DUP OP_HASH160 a19638ac12fd4b346d993dc736c44be56c7596e6 OP_EQUALVERIFY OP_CHECKSIG", "type": "pubkeyhash"}, "value": 0.03625, "n": 1}], "hex": "01000000000101cf841838acb9f4d9528b728f124084c6613aff3ff35011cec1969883055a597a060000001716001409256327fed92872fe44cabf3186ca22eb4d0808ffffffff020d015c0200000000160014e7bb94cfe86a2f6df1e7707b5ef11b2d66f5ddf228503700000000001976a914a19638ac12fd4b346d993dc736c44be56c7596e688ac02483045022100f055c0eeccc08233683a83aef2a21053b67dee50ef88362305a7dddc892f42bd022046c3bbd096208e2624e02625724b2b90e5425634253a1bd493c3fa4b32c4c804012102b6ad84a29cb9222adfa91648ef7fb03f8893f54dc1747b3f0f52744a56245fc800000000", "vin": [{"txinwitness": ["3045022100f055c0eeccc08233683a83aef2a21053b67dee50ef88362305a7dddc892f42bd022046c3bbd096208e2624e02625724b2b90e5425634253a1bd493c3fa4b32c4c80401", "02b6ad84a29cb9222adfa91648ef7fb03f8893f54dc1747b3f0f52744a56245fc8"], "sequence": 4294967295, "scriptSig": {"hex": "16001409256327fed92872fe44cabf3186ca22eb4d0808", "asm": "001409256327fed92872fe44cabf3186ca22eb4d0808"}, "vout": 6, "txid": "7a595a05839896c1ce1150f33fff3a61c68440128f728b52d9f4b9ac381884cf"}], "txid": "43cab2ad9f8e2009f24a2b821705fa40cf4971fe1595785b2365788c98923683", "blocktime": 1537871767, "version": 1, "confirmations": 11495, "time": 1537871767, "locktime": 0, "vsize": 167, "size": 249}