{"hash": "43cbabbb076cead1584f6da1ba107946950a9ca13204b8812e81f137623b1c65", "blockhash": "00000000000000000017f5eb5941039fbcee6240d03bc1f2f8e35350df66a1d8", "vout": [{"scriptPubKey": {"reqSigs": 1, "hex": "76a9146e50690db4ff4b9f663736b412c7fc645f4cfb4388ac", "addresses": ["1B4Hf7U2KVwwFCVpiL5ZYRDMDqJsm4qxGv"], "asm": "OP_DUP OP_HASH160 6e50690db4ff4b9f663736b412c7fc645f4cfb43 OP_EQUALVERIFY OP_CHECKSIG", "type": "pubkeyhash"}, "value": 2.79968706, "n": 0}, {"scriptPubKey": {"reqSigs": 1, "hex": "76a9148c5acaf22253d36606320a0984274a0c9f72cde488ac", "addresses": ["1Do8NFMzmDTpkWj4We28y3uPmJAULodBPJ"], "asm": "OP_DUP OP_HASH160 8c5acaf22253d36606320a0984274a0c9f72cde4 OP_EQUALVERIFY OP_CHECKSIG", "type": "pubkeyhash"}, "value": 0.36640199, "n": 1}], "hex": "010000000154160147b3e77b6f56287ba571d78870ab9bd7bbdc31e7c25138b5501f647a91010000006b483045022100a96a4b9dd0cfe6a055546395c9f9be08eda2a64407ac30ddc4f32c146e89dedc02206197e9e37eb2db11eca697dd634c8fc62628d6a111a9b547446c4c485e253729012102d6aed7daeabe6fad6381989e723ffa486816c12a9568d3498385f244c447ca63ffffffff02c2fbaf10000000001976a9146e50690db4ff4b9f663736b412c7fc645f4cfb4388acc7152f02000000001976a9148c5acaf22253d36606320a0984274a0c9f72cde488ac00000000", "vin": [{"sequence": 4294967295, "scriptSig": {"hex": "483045022100a96a4b9dd0cfe6a055546395c9f9be08eda2a64407ac30ddc4f32c146e89dedc02206197e9e37eb2db11eca697dd634c8fc62628d6a111a9b547446c4c485e253729012102d6aed7daeabe6fad6381989e723ffa486816c12a9568d3498385f244c447ca63", "asm": "3045022100a96a4b9dd0cfe6a055546395c9f9be08eda2a64407ac30ddc4f32c146e89dedc02206197e9e37eb2db11eca697dd634c8fc62628d6a111a9b547446c4c485e253729[ALL] 02d6aed7daeabe6fad6381989e723ffa486816c12a9568d3498385f244c447ca63"}, "vout": 1, "txid": "917a641f50b53851c2e731dcbbd79bab7088d771a57b28566f7be7b347011654"}], "txid": "43cbabbb076cead1584f6da1ba107946950a9ca13204b8812e81f137623b1c65", "blocktime": 1537874412, "version": 1, "confirmations": 11467, "time": 1537874412, "locktime": 0, "vsize": 226, "size": 226}