{"hash": "43cd7e7e5c781e3b3eab05ddab0e617c613c03820575d88cfc11b27cfde8b00d", "blockhash": "0000000000000000000dcc0f55137456b1a82d3642486a52398922ac4d620174", "vout": [{"scriptPubKey": {"reqSigs": 1, "hex": "a9145c7ca06e2c9bafd5f6dbdd4ab3073a9cf014707f87", "addresses": ["3A83PQVEw9taidkV3ArFiyPQQJcHMZoHdF"], "asm": "OP_HASH160 5c7ca06e2c9bafd5f6dbdd4ab3073a9cf014707f OP_EQUAL", "type": "scripthash"}, "value": 0.06754265, "n": 0}, {"scriptPubKey": {"reqSigs": 1, "hex": "76a914e65d2499f3ab13b9149242eebe570de6cb249ef988ac", "addresses": ["1N13zot6yFU4rikEpPPB4qp7amsWnq6jEv"], "asm": "OP_DUP OP_HASH160 e65d2499f3ab13b9149242eebe570de6cb249ef9 OP_EQUALVERIFY OP_CHECKSIG", "type": "pubkeyhash"}, "value": 0.24024536, "n": 1}], "hex": "010000000182dd76af461a1ee58a6c46257cc8bd1b0ec4c48794c17a9b3810b213c4e28020010000006b483045022100dfeb3304ad8936b8a6414badd18788294e532c881cec14676896a6b4b7520a3e0220664e5006c46424b42c030c5b810b19d85c3bcdf04deb93d50a951d0199522ff40121022dce5711da9c92949a2d0258ff88f876d87c95a06716645a81606129cd45817fffffffff02d90f67000000000017a9145c7ca06e2c9bafd5f6dbdd4ab3073a9cf014707f87d8956e01000000001976a914e65d2499f3ab13b9149242eebe570de6cb249ef988ac00000000", "vin": [{"sequence": 4294967295, "scriptSig": {"hex": "483045022100dfeb3304ad8936b8a6414badd18788294e532c881cec14676896a6b4b7520a3e0220664e5006c46424b42c030c5b810b19d85c3bcdf04deb93d50a951d0199522ff40121022dce5711da9c92949a2d0258ff88f876d87c95a06716645a81606129cd45817f", "asm": "3045022100dfeb3304ad8936b8a6414badd18788294e532c881cec14676896a6b4b7520a3e0220664e5006c46424b42c030c5b810b19d85c3bcdf04deb93d50a951d0199522ff4[ALL] 022dce5711da9c92949a2d0258ff88f876d87c95a06716645a81606129cd45817f"}, "vout": 1, "txid": "2080e2c413b210389b7ac19487c4c40e1bbdc87c25466c8ae51e1a46af76dd82"}], "txid": "43cd7e7e5c781e3b3eab05ddab0e617c613c03820575d88cfc11b27cfde8b00d", "blocktime": 1537870268, "version": 1, "confirmations": 11518, "time": 1537870268, "locktime": 0, "vsize": 224, "size": 224}