{"hash": "43cf93afe31e7fe94c3f6fb376f3ac17ea295294b4605aec22479d4dcc0ad1d8", "blockhash": "0000000000000000000baef3f32e3676a92c3b2e5da21b426e4f302fc371ce76", "vout": [{"scriptPubKey": {"reqSigs": 1, "hex": "76a914320c20a77ea77fe83012290009ec7e0e0c9be06988ac", "addresses": ["15ZdKEGuut9cg9d49GtjfcqKEumqFR5335"], "asm": "OP_DUP OP_HASH160 320c20a77ea77fe83012290009ec7e0e0c9be069 OP_EQUALVERIFY OP_CHECKSIG", "type": "pubkeyhash"}, "value": 0.01523317, "n": 0}, {"scriptPubKey": {"reqSigs": 1, "hex": "76a9149c753c80179e8c23178e4d6f538b56b51ce3500588ac", "addresses": ["1FGGrece7TNgWjh9SdRQhQBQFDhgREUjQ7"], "asm": "OP_DUP OP_HASH160 9c753c80179e8c23178e4d6f538b56b51ce35005 OP_EQUALVERIFY OP_CHECKSIG", "type": "pubkeyhash"}, "value": 0.01644149, "n": 1}, {"scriptPubKey": {"reqSigs": 1, "hex": "76a9140d02984ef7197904197616851816886473a5280088ac", "addresses": ["12Bnto5ScC5hhjAozxQMvRAvfay9AhUrCC"], "asm": "OP_DUP OP_HASH160 0d02984ef7197904197616851816886473a52800 OP_EQUALVERIFY OP_CHECKSIG", "type": "pubkeyhash"}, "value": 0.02083157, "n": 2}], "hex": "01000000011f5f1bb849c8222c280d5275d147839161d92d29c5f95e85daf44edb0b7589cd490000006b483045022100e7b4195f6820ba296792e7e5cb4d41e1e3bab2293768acd432463a307a35dda502201f0319721777459556dd4576d33291a867b07f634907e7fbc369aa31f081382a0121037b5a8a726ba54c3a22ec805b6a046bb2eae7336e1b6cdb72cd429716d6a4a564fdffffff03753e1700000000001976a914320c20a77ea77fe83012290009ec7e0e0c9be06988ac75161900000000001976a9149c753c80179e8c23178e4d6f538b56b51ce3500588ac55c91f00000000001976a9140d02984ef7197904197616851816886473a5280088ac17490800", "vin": [{"sequence": 4294967293, "scriptSig": {"hex": "483045022100e7b4195f6820ba296792e7e5cb4d41e1e3bab2293768acd432463a307a35dda502201f0319721777459556dd4576d33291a867b07f634907e7fbc369aa31f081382a0121037b5a8a726ba54c3a22ec805b6a046bb2eae7336e1b6cdb72cd429716d6a4a564", "asm": "3045022100e7b4195f6820ba296792e7e5cb4d41e1e3bab2293768acd432463a307a35dda502201f0319721777459556dd4576d33291a867b07f634907e7fbc369aa31f081382a[ALL] 037b5a8a726ba54c3a22ec805b6a046bb2eae7336e1b6cdb72cd429716d6a4a564"}, "vout": 73, "txid": "cd89750bdb4ef4da855ef9c5292dd961918347d175520d282c22c849b81b5f1f"}], "txid": "43cf93afe31e7fe94c3f6fb376f3ac17ea295294b4605aec22479d4dcc0ad1d8", "blocktime": 1537876114, "version": 1, "confirmations": 11460, "time": 1537876114, "locktime": 542999, "vsize": 260, "size": 260}