{"hash": "53f8c8ccd892b21e16173a72a15cb2340591ad1b0a03c8a854478762aa7c9b7f", "blockhash": "0000000000000000000baef3f32e3676a92c3b2e5da21b426e4f302fc371ce76", "vout": [{"scriptPubKey": {"reqSigs": 1, "hex": "76a91425a24a98583266e4df248c1f7cd3e819ad22fce288ac", "addresses": ["14RzRJTWxJpaUC7yfBkjSCY6JyQ2pVERQJ"], "asm": "OP_DUP OP_HASH160 25a24a98583266e4df248c1f7cd3e819ad22fce2 OP_EQUALVERIFY OP_CHECKSIG", "type": "pubkeyhash"}, "value": 0.0013766, "n": 0}, {"scriptPubKey": {"reqSigs": 1, "hex": "a9143a680c60a094ca45d33369c85ee77ff53839c79687", "addresses": ["371qm5MqPh2ZBJYV4fygEK4FVN8cWXxvNX"], "asm": "OP_HASH160 3a680c60a094ca45d33369c85ee77ff53839c796 OP_EQUAL", "type": "scripthash"}, "value": 0.01218168, "n": 1}], "hex": "0200000000010231bc9e4692292d51ba3174c8c04fc59e998bcb009ae70acc36980b371a57f21d01000000171600141891531a5286e9c9fd9c0d31689c3a464a30af93feffffffad9662f639be254a845bf76b9f8afd74bd982d167dde6049786bf737e4d698aa0200000017160014a1e66fc3aabc682a43cda6dfa8b09c507a0a054efeffffff02bc190200000000001976a91425a24a98583266e4df248c1f7cd3e819ad22fce288ac789612000000000017a9143a680c60a094ca45d33369c85ee77ff53839c796870247304402204e0b1f58554a7acdea7ad3823ffc3d322b22e05930c406aeae1208476930649e02203a2da83d423e783214348b4d53c88d802b7d68b21a4ef2a89623060de7fbb15901210357f510e273a9ef60a709be2a70d0df5d294578db5ee7d2aa599fd1423c2bf0e40247304402200a3f7e87c80a1db0583dbf5bcc46f35f5abd4804652f730ee02d1b6ece0983c8022006c1462f98a7a882274e1e14dad04ab5b8daafe0a6e29e1e928d7bf15b565e69012103d797fe5a4ddb8c60a40d360a689ae3360ccbba19236494f538c58666025986ef17490800", "vin": [{"txinwitness": ["304402204e0b1f58554a7acdea7ad3823ffc3d322b22e05930c406aeae1208476930649e02203a2da83d423e783214348b4d53c88d802b7d68b21a4ef2a89623060de7fbb15901", "0357f510e273a9ef60a709be2a70d0df5d294578db5ee7d2aa599fd1423c2bf0e4"], "sequence": 4294967294, "scriptSig": {"hex": "1600141891531a5286e9c9fd9c0d31689c3a464a30af93", "asm": "00141891531a5286e9c9fd9c0d31689c3a464a30af93"}, "vout": 1, "txid": "1df2571a370b9836cc0ae79a00cb8b999ec54fc0c87431ba512d2992469ebc31"}, {"txinwitness": ["304402200a3f7e87c80a1db0583dbf5bcc46f35f5abd4804652f730ee02d1b6ece0983c8022006c1462f98a7a882274e1e14dad04ab5b8daafe0a6e29e1e928d7bf15b565e6901", "03d797fe5a4ddb8c60a40d360a689ae3360ccbba19236494f538c58666025986ef"], "sequence": 4294967294, "scriptSig": {"hex": "160014a1e66fc3aabc682a43cda6dfa8b09c507a0a054e", "asm": "0014a1e66fc3aabc682a43cda6dfa8b09c507a0a054e"}, "vout": 2, "txid": "aa98d6e437f76b784960de7d162d98bd74fd8a9f6bf75b844a25be39f66296ad"}], "txid": "43d1353323633e1b5d334e3f80b3c132994c96a191e0e761f15e05819d6cd550", "blocktime": 1537876114, "version": 2, "confirmations": 11460, "time": 1537876114, "locktime": 542999, "vsize": 258, "size": 420}