{"hash": "ec1491eac9bc2b531c76193694bb571c84298b932c602e00899dd2a478ef9f5a", "blockhash": "0000000000000000001f76057863aec43deb6fa401d9628bb513d65a8098bfab", "vout": [{"scriptPubKey": {"reqSigs": 1, "hex": "76a914189375ffe1837f03422e8ca12519422e8284f6a088ac", "addresses": ["13EwsNRXteVgHCWDLjCt7y8KcAW5QT3jAw"], "asm": "OP_DUP OP_HASH160 189375ffe1837f03422e8ca12519422e8284f6a0 OP_EQUALVERIFY OP_CHECKSIG", "type": "pubkeyhash"}, "value": 0.079276, "n": 0}, {"scriptPubKey": {"reqSigs": 1, "hex": "a914a6347c7419aeeb72912fe3cc225d85d242be9ce587", "addresses": ["3GqpyBv3XzsY7VYYc1hAdrXiTB4FNFJiRc"], "asm": "OP_HASH160 a6347c7419aeeb72912fe3cc225d85d242be9ce5 OP_EQUAL", "type": "scripthash"}, "value": 0.00997613, "n": 1}], "hex": "020000000001027ecd0031a0c99d3777c315fc7960fe2f043282b050ad178c112656809e1398e70000000017160014dd1574daecbdcf54841d463541f4c0adf7c9922cfeffffff8f4578b3f645581f59309ff2034d89011a417acf2a9f79d7ecfd944cfa7e672001000000171600147ef712e2d885f40c822f0ab7b4a6ac59a93c7c84feffffff0230f77800000000001976a914189375ffe1837f03422e8ca12519422e8284f6a088aced380f000000000017a914a6347c7419aeeb72912fe3cc225d85d242be9ce5870247304402201c17a820c537ea7878b989a79b777ff77d57e53f2cb565e161123dd227c493070220752f0dd63d107493b2603e1308c4813a962d4e6872e739ec0a25401979d819cf012103403ff4892a680d5392360b596fd4188f95ac654f72ed6ab9d5fb15e2102a94d002473044022028aa8c9cd32620c3bdc65f5f2762348fa34f9dfed39b289615cf7cedf9999859022026d9880f140aa618db099403775db957cf6d38c0ba4f5f53ff5b639dc44aa66d0121036353b2711aa5c98af4dc94093a61eeff87b65dd7dcb4533b2e28708ec4cec15014490800", "vin": [{"txinwitness": ["304402201c17a820c537ea7878b989a79b777ff77d57e53f2cb565e161123dd227c493070220752f0dd63d107493b2603e1308c4813a962d4e6872e739ec0a25401979d819cf01", "03403ff4892a680d5392360b596fd4188f95ac654f72ed6ab9d5fb15e2102a94d0"], "sequence": 4294967294, "scriptSig": {"hex": "160014dd1574daecbdcf54841d463541f4c0adf7c9922c", "asm": "0014dd1574daecbdcf54841d463541f4c0adf7c9922c"}, "vout": 0, "txid": "e798139e805626118c17ad50b08232042ffe6079fc15c377379dc9a03100cd7e"}, {"txinwitness": ["3044022028aa8c9cd32620c3bdc65f5f2762348fa34f9dfed39b289615cf7cedf9999859022026d9880f140aa618db099403775db957cf6d38c0ba4f5f53ff5b639dc44aa66d01", "036353b2711aa5c98af4dc94093a61eeff87b65dd7dcb4533b2e28708ec4cec150"], "sequence": 4294967294, "scriptSig": {"hex": "1600147ef712e2d885f40c822f0ab7b4a6ac59a93c7c84", "asm": "00147ef712e2d885f40c822f0ab7b4a6ac59a93c7c84"}, "vout": 1, "txid": "20677efa4c94fdecd7799f2acf7a411a01894d03f29f30591f5845f6b378458f"}], "txid": "43d2b1e8bd691fd1153a204a216fa39c8c1e17106d1fdaed347817c3fee93152", "blocktime": 1537873891, "version": 2, "confirmations": 11475, "time": 1537873891, "locktime": 542996, "vsize": 258, "size": 420}