{"hash": "c201af8649ea3baf5fbe1bc7608f1319e2129fb9e935296994221018a2d98dec", "blockhash": "00000000000000000004ffacab907a6b429b9a5745fa0b75af4234bf69dd7176", "vout": [{"scriptPubKey": {"reqSigs": 1, "hex": "a9149b457e0f2d8c70bf13f662c6adeea99f8283037d87", "addresses": ["3Fr1uhHZg29dswjPAR5ToaEZtesRtQAXzN"], "asm": "OP_HASH160 9b457e0f2d8c70bf13f662c6adeea99f8283037d OP_EQUAL", "type": "scripthash"}, "value": 0.39616189, "n": 0}, {"scriptPubKey": {"reqSigs": 1, "hex": "76a914603dfdd547619c01f1a483175a76d973c455531b88ac", "addresses": ["19mt8fTkzD1X5Yko5aAq6hmij68DjiteYh"], "asm": "OP_DUP OP_HASH160 603dfdd547619c01f1a483175a76d973c455531b OP_EQUALVERIFY OP_CHECKSIG", "type": "pubkeyhash"}, "value": 0.01686651, "n": 1}], "hex": "02000000000101bd99fc3d5d9ab77454a71cef871b0ebf62993d6e742e80e813f84dac027bfb160100000017160014390d9bb16066a87a05a4be6f52e68fd286af78aefeffffff02bd7e5c020000000017a9149b457e0f2d8c70bf13f662c6adeea99f8283037d877bbc1900000000001976a914603dfdd547619c01f1a483175a76d973c455531b88ac02483045022100edfc947ee97f1b66ca156a6959291fa8a2244f9f79d4e19000ea46ea143555f4022079e42daa6e108039fc5188442e08f117e637f64299cec9a2624842f099fc499401210252bf0819dced4d40d892e73ccc9b3c3c6b207f4cad4ca184bc88d58e714650de16490800", "vin": [{"txinwitness": ["3045022100edfc947ee97f1b66ca156a6959291fa8a2244f9f79d4e19000ea46ea143555f4022079e42daa6e108039fc5188442e08f117e637f64299cec9a2624842f099fc499401", "0252bf0819dced4d40d892e73ccc9b3c3c6b207f4cad4ca184bc88d58e714650de"], "sequence": 4294967294, "scriptSig": {"hex": "160014390d9bb16066a87a05a4be6f52e68fd286af78ae", "asm": "0014390d9bb16066a87a05a4be6f52e68fd286af78ae"}, "vout": 1, "txid": "16fb7b02ac4df813e8802e746e3d9962bf0e1b87ef1ca75474b79a5d3dfc99bd"}], "txid": "43d22efd44cf4add8c2f7e1ca40d855385892d9454bac7af5db1d305b034aa2c", "blocktime": 1537875543, "version": 2, "confirmations": 11464, "time": 1537875543, "locktime": 542998, "vsize": 168, "size": 250}