{"hash": "e08f79bc9cdfe5b0f827ab4198741e2d30027330357697047639f8f79971dcbe", "blockhash": "0000000000000000000e13cef7c366c0283d82e591d1acd082e914b08063cdf1", "vout": [{"scriptPubKey": {"reqSigs": 1, "hex": "a914a7934833ba478d6367eb57ce5f22b77bb1d2659787", "addresses": ["3Gy5Cv24tVF8ZHJwwr8cKMtDnFZAZJDQWS"], "asm": "OP_HASH160 a7934833ba478d6367eb57ce5f22b77bb1d26597 OP_EQUAL", "type": "scripthash"}, "value": 0.02737624, "n": 0}, {"scriptPubKey": {"reqSigs": 1, "hex": "a91407f6096db60fc50467eb45286a5e2e6e2256097f87", "addresses": ["32R7PppL9EHFf7ng869szGjDAsNR7CeCpc"], "asm": "OP_HASH160 07f6096db60fc50467eb45286a5e2e6e2256097f OP_EQUAL", "type": "scripthash"}, "value": 0.01356138, "n": 1}], "hex": "020000000001033147a6ba2ab180037b7716b02d46c617321b7e11a9acbc2a34ff3ae1c914cef00000000017160014c808ab2cfb17bcecf6e47530152cd852e31ec5d8feffffff7f43fc2c3788fb9555743cad97a0c12fadebf9ec54ae34e20aae90fd30ba41480100000017160014f3c184d03522534fe9a1f55f44769b80aa9103a7feffffff9f6f8a231d7a2566ec8bb4b23f974d5dd6f3f60b1865a918271f969b6a4b15f7010000001716001466f6ed3187226d33d21c6f848d0eecaef93a5babfeffffff02d8c529000000000017a914a7934833ba478d6367eb57ce5f22b77bb1d26597876ab114000000000017a91407f6096db60fc50467eb45286a5e2e6e2256097f87024830450221009fd4410649e1fc74f268f0a8ac03e96956bba6e86765dd74966a6df70039b38202205365b6fdde8a04d3d0287015b8ef36ddce434e1d8260b3627e1ed4fffe2e7adb012103da3a437596c2fec4ff5a1b1d668764cfb40effee827d00517f87a56489d654c90247304402202b2effdea643ca8773125d6cbf1bee3e1d1a77919a18f7f7760d1428904fb23502207c9366d58b93b5e3a6f86303849dfd094ab5b9a1fbf5b9a65e074303c7715bf701210243933160b6d76ce5cbba4102b8c6ca6921086fdab647a8a984933177966d52fa024830450221008fd3d9956fe093a07f737292fe1188bc2f3cdee2eb69925d7b733736e0f36be802203bcd3c47c38b314ee666aa4e2d50f1c7791c8b45fcd18ad8907cc27b8b8f641d012102937f591e77c30f37293a84b5a14c6c0dcf66ff3872d586a4c958dd257fc04c3f10490800", "vin": [{"txinwitness": ["30450221009fd4410649e1fc74f268f0a8ac03e96956bba6e86765dd74966a6df70039b38202205365b6fdde8a04d3d0287015b8ef36ddce434e1d8260b3627e1ed4fffe2e7adb01", "03da3a437596c2fec4ff5a1b1d668764cfb40effee827d00517f87a56489d654c9"], "sequence": 4294967294, "scriptSig": {"hex": "160014c808ab2cfb17bcecf6e47530152cd852e31ec5d8", "asm": "0014c808ab2cfb17bcecf6e47530152cd852e31ec5d8"}, "vout": 0, "txid": "f0ce14c9e13aff342abcaca9117e1b3217c6462db016777b0380b12abaa64731"}, {"txinwitness": ["304402202b2effdea643ca8773125d6cbf1bee3e1d1a77919a18f7f7760d1428904fb23502207c9366d58b93b5e3a6f86303849dfd094ab5b9a1fbf5b9a65e074303c7715bf701", "0243933160b6d76ce5cbba4102b8c6ca6921086fdab647a8a984933177966d52fa"], "sequence": 4294967294, "scriptSig": {"hex": "160014f3c184d03522534fe9a1f55f44769b80aa9103a7", "asm": "0014f3c184d03522534fe9a1f55f44769b80aa9103a7"}, "vout": 1, "txid": "4841ba30fd90ae0ae234ae54ecf9ebad2fc1a097ad3c745595fb88372cfc437f"}, {"txinwitness": ["30450221008fd3d9956fe093a07f737292fe1188bc2f3cdee2eb69925d7b733736e0f36be802203bcd3c47c38b314ee666aa4e2d50f1c7791c8b45fcd18ad8907cc27b8b8f641d01", "02937f591e77c30f37293a84b5a14c6c0dcf66ff3872d586a4c958dd257fc04c3f"], "sequence": 4294967294, "scriptSig": {"hex": "16001466f6ed3187226d33d21c6f848d0eecaef93a5bab", "asm": "001466f6ed3187226d33d21c6f848d0eecaef93a5bab"}, "vout": 1, "txid": "f7154b6a9b961f2718a965180bf6f3d65d4d973fb2b48bec66257a1d238a6f9f"}], "txid": "43d6cf785d0fe6779cb8f5891eb36d33ec55432f7a3ae0fc6e77e0427d96dd0a", "blocktime": 1537871767, "version": 2, "confirmations": 11495, "time": 1537871767, "locktime": 542992, "vsize": 348, "size": 591}