{"hash": "43d8d7e4cca1101f0243fb211cbaa1ec82a43e5d16fcc5552ffe4524110fb7c1", "blockhash": "00000000000000000017f5eb5941039fbcee6240d03bc1f2f8e35350df66a1d8", "vout": [{"scriptPubKey": {"reqSigs": 1, "hex": "a9141dd9ce9115583d45f385e1cbd50bc077cfa8192187", "addresses": ["34QrSbW1L7jjfwYq8KmXZYe2HFN2gnZzpD"], "asm": "OP_HASH160 1dd9ce9115583d45f385e1cbd50bc077cfa81921 OP_EQUAL", "type": "scripthash"}, "value": 0.03755957, "n": 0}, {"scriptPubKey": {"reqSigs": 1, "hex": "a9148dd6877990114491ff2ee61fa5ec5e1de0e3b1d187", "addresses": ["3EczCLnLfD4aMY2XXqeGULGR6T4hy2Q37t"], "asm": "OP_HASH160 8dd6877990114491ff2ee61fa5ec5e1de0e3b1d1 OP_EQUAL", "type": "scripthash"}, "value": 0.00154152, "n": 1}, {"scriptPubKey": {"reqSigs": 1, "hex": "76a914f10630a961308ece83ad89aa09c48d631e0d42e588ac", "addresses": ["1NyRGKtocD8J6YY2bLd2X6meT23LiYXEBd"], "asm": "OP_DUP OP_HASH160 f10630a961308ece83ad89aa09c48d631e0d42e5 OP_EQUALVERIFY OP_CHECKSIG", "type": "pubkeyhash"}, "value": 8.815e-05, "n": 2}], "hex": "0100000002217c7c3057a98bff2fc4520f1af43f50de416a515458572b6278355043ddf02e1c000000d8004730440220102b730c824b7070dabdc707053a207272b9cd5f0166ffbaf12c74b5fb32451402205a5544b1386ed55bc8c871d51f67aa9829afceaa6d30aef8d0adb079eb58b2ed01463043021f79fa259d6b4d45438fbe98128c06a48505d2f56e572d8c42dd1d9d0c62f3b802202f760792c7d0eaf7713badf38470fe7ecc18c5473f97b1611f95dcd6b415706d0147522102907a54bed8ad74b3f35638c60114ca240a308cb986f3f2f306178869a8880b612103d73e97f302787da34bba5b3dd91d13a80477f08c3ce08208e5a3c3d75d74661d52aeffffffff4f5c16e7afcbeb5a9bc148b9de00ea2912add86914d282ab34e37d90555f8a39020000006a473044022008d4061dbbab3dab5fa30c76162cbe041f085a289ed28cf633e5d6947e09583002202ef6ac0ebaa5ba0056568c84ad909c52866f08384a0ec358114c14ce497795ff0121020dafc9b3f6e519c2caead8d854ed1217ab3429cc7d290e246fa3e513dd97de35ffffffff03b54f39000000000017a9141dd9ce9115583d45f385e1cbd50bc077cfa8192187285a02000000000017a9148dd6877990114491ff2ee61fa5ec5e1de0e3b1d1876f220000000000001976a914f10630a961308ece83ad89aa09c48d631e0d42e588ac00000000", "vin": [{"sequence": 4294967295, "scriptSig": {"hex": "004730440220102b730c824b7070dabdc707053a207272b9cd5f0166ffbaf12c74b5fb32451402205a5544b1386ed55bc8c871d51f67aa9829afceaa6d30aef8d0adb079eb58b2ed01463043021f79fa259d6b4d45438fbe98128c06a48505d2f56e572d8c42dd1d9d0c62f3b802202f760792c7d0eaf7713badf38470fe7ecc18c5473f97b1611f95dcd6b415706d0147522102907a54bed8ad74b3f35638c60114ca240a308cb986f3f2f306178869a8880b612103d73e97f302787da34bba5b3dd91d13a80477f08c3ce08208e5a3c3d75d74661d52ae", "asm": "0 30440220102b730c824b7070dabdc707053a207272b9cd5f0166ffbaf12c74b5fb32451402205a5544b1386ed55bc8c871d51f67aa9829afceaa6d30aef8d0adb079eb58b2ed[ALL] 3043021f79fa259d6b4d45438fbe98128c06a48505d2f56e572d8c42dd1d9d0c62f3b802202f760792c7d0eaf7713badf38470fe7ecc18c5473f97b1611f95dcd6b415706d[ALL] 522102907a54bed8ad74b3f35638c60114ca240a308cb986f3f2f306178869a8880b612103d73e97f302787da34bba5b3dd91d13a80477f08c3ce08208e5a3c3d75d74661d52ae"}, "vout": 28, "txid": "2ef0dd43503578622b575854516a41de503ff41a0f52c42fff8ba957307c7c21"}, {"sequence": 4294967295, "scriptSig": {"hex": "473044022008d4061dbbab3dab5fa30c76162cbe041f085a289ed28cf633e5d6947e09583002202ef6ac0ebaa5ba0056568c84ad909c52866f08384a0ec358114c14ce497795ff0121020dafc9b3f6e519c2caead8d854ed1217ab3429cc7d290e246fa3e513dd97de35", "asm": "3044022008d4061dbbab3dab5fa30c76162cbe041f085a289ed28cf633e5d6947e09583002202ef6ac0ebaa5ba0056568c84ad909c52866f08384a0ec358114c14ce497795ff[ALL] 020dafc9b3f6e519c2caead8d854ed1217ab3429cc7d290e246fa3e513dd97de35"}, "vout": 2, "txid": "398a5f55907de334ab82d21469d8ad1229ea00deb948c19b5aebcbafe7165c4f"}], "txid": "43d8d7e4cca1101f0243fb211cbaa1ec82a43e5d16fcc5552ffe4524110fb7c1", "blocktime": 1537874412, "version": 1, "confirmations": 11467, "time": 1537874412, "locktime": 0, "vsize": 512, "size": 512}