{"hash": "43db0eef917688f465d99d3b63abf603419c86fad1c62a0838ea3ad95f5b9712", "blockhash": "0000000000000000001e0dab787dd257d1dbfcb92a98c2207d5e1078be1f4165", "vout": [{"scriptPubKey": {"reqSigs": 1, "hex": "76a914c09a666bc712221573563b57ba179378ebcd97eb88ac", "addresses": ["1JZPhjkzRY8VynZSujAES8wUqknAXA5uDt"], "asm": "OP_DUP OP_HASH160 c09a666bc712221573563b57ba179378ebcd97eb OP_EQUALVERIFY OP_CHECKSIG", "type": "pubkeyhash"}, "value": 0.00232, "n": 0}, {"scriptPubKey": {"reqSigs": 1, "hex": "76a914fd8e0a5358bf4374dae171322c580ada87192eec88ac", "addresses": ["1Q7g7fmxwDG38PydmSuPDp8XVUjMEJM2yY"], "asm": "OP_DUP OP_HASH160 fd8e0a5358bf4374dae171322c580ada87192eec OP_EQUALVERIFY OP_CHECKSIG", "type": "pubkeyhash"}, "value": 0.01746889, "n": 1}], "hex": "01000000013902db2e4ce813f77862e4ab77ed9f779d29325c5a6c8fe34ec2341aa459cc5a010000006a47304402203ad3e08edc22188bb190ec370762c62ce651d6c402dfa99fe9e92baabe398e05022069109679e63a4fab344a123b7b930c2e78e9f4b281bb237e1b12e61d50d1686b0121039d354a51b532c8f7b15d4c29500e2c10efaf1204e3667b3d06e7fee6f774df07ffffffff02408a0300000000001976a914c09a666bc712221573563b57ba179378ebcd97eb88acc9a71a00000000001976a914fd8e0a5358bf4374dae171322c580ada87192eec88ac00000000", "vin": [{"sequence": 4294967295, "scriptSig": {"hex": "47304402203ad3e08edc22188bb190ec370762c62ce651d6c402dfa99fe9e92baabe398e05022069109679e63a4fab344a123b7b930c2e78e9f4b281bb237e1b12e61d50d1686b0121039d354a51b532c8f7b15d4c29500e2c10efaf1204e3667b3d06e7fee6f774df07", "asm": "304402203ad3e08edc22188bb190ec370762c62ce651d6c402dfa99fe9e92baabe398e05022069109679e63a4fab344a123b7b930c2e78e9f4b281bb237e1b12e61d50d1686b[ALL] 039d354a51b532c8f7b15d4c29500e2c10efaf1204e3667b3d06e7fee6f774df07"}, "vout": 1, "txid": "5acc59a41a34c24ee38f6c5a5c32299d779fed77abe46278f713e84c2edb0239"}], "txid": "43db0eef917688f465d99d3b63abf603419c86fad1c62a0838ea3ad95f5b9712", "blocktime": 1537872475, "version": 1, "confirmations": 11486, "time": 1537872475, "locktime": 0, "vsize": 225, "size": 225}