{"hash": "43dbbeaee2c56a6d7e349d60d0d1d9d11ef3604ebe1bf46617b680d0e51b1345", "blockhash": "0000000000000000001f0ddff1eddb255c1121bcd4da4f1bc9a0da00cae72433", "vout": [{"scriptPubKey": {"type": "nulldata", "hex": "6a4c50000077a70001bce166cdd5c3a8a548e45712af6c953dd567cf27e7e3ef3236678a62509738897a2b0c6b1d23b3efafcc8f3883695baa0f96061395acacf5c719bc9a9526289ac0f6612cd74e33776ee4", "asm": "OP_RETURN 000077a70001bce166cdd5c3a8a548e45712af6c953dd567cf27e7e3ef3236678a62509738897a2b0c6b1d23b3efafcc8f3883695baa0f96061395acacf5c719bc9a9526289ac0f6612cd74e33776ee4"}, "value": 0.0, "n": 0}, {"scriptPubKey": {"reqSigs": 1, "hex": "76a914418fcfb920bb8f1c4a13e3b36941a045f06419e188ac", "addresses": ["16yfCfNLVpBAYNuTiLtSasHipd4VadHGAn"], "asm": "OP_DUP OP_HASH160 418fcfb920bb8f1c4a13e3b36941a045f06419e1 OP_EQUALVERIFY OP_CHECKSIG", "type": "pubkeyhash"}, "value": 0.01405444, "n": 1}], "hex": "0100000001a22153e327da6b6468f691821695335763bbbb0fd336c4f92d55f90a3b02ffd7000000006b483045022100fec311668c610561fde681ba16a45d8e54e45184e412011cd8ac02075f6b35420220315091c2950f30eb0a1409871d2563ab51e55e0efad227951fc95ebad13bc5720121024edc787047f5a74c13afe1d77525096fd1878aaa034cc62d876a54b9e52f3430ffffffff020000000000000000536a4c50000077a70001bce166cdd5c3a8a548e45712af6c953dd567cf27e7e3ef3236678a62509738897a2b0c6b1d23b3efafcc8f3883695baa0f96061395acacf5c719bc9a9526289ac0f6612cd74e33776ee404721500000000001976a914418fcfb920bb8f1c4a13e3b36941a045f06419e188ac00000000", "vin": [{"sequence": 4294967295, "scriptSig": {"hex": "483045022100fec311668c610561fde681ba16a45d8e54e45184e412011cd8ac02075f6b35420220315091c2950f30eb0a1409871d2563ab51e55e0efad227951fc95ebad13bc5720121024edc787047f5a74c13afe1d77525096fd1878aaa034cc62d876a54b9e52f3430", "asm": "3045022100fec311668c610561fde681ba16a45d8e54e45184e412011cd8ac02075f6b35420220315091c2950f30eb0a1409871d2563ab51e55e0efad227951fc95ebad13bc572[ALL] 024edc787047f5a74c13afe1d77525096fd1878aaa034cc62d876a54b9e52f3430"}, "vout": 0, "txid": "d7ff023b0af9552df9c436d30fbbbb63573395168291f668646bda27e35321a2"}], "txid": "43dbbeaee2c56a6d7e349d60d0d1d9d11ef3604ebe1bf46617b680d0e51b1345", "blocktime": 1537872018, "version": 1, "confirmations": 11489, "time": 1537872018, "locktime": 0, "vsize": 284, "size": 284}