{"hash": "43db782fcc6c8dd987d6dc7912b323842badf84b84dc700f596fa41356a4c395", "blockhash": "0000000000000000001f76057863aec43deb6fa401d9628bb513d65a8098bfab", "vout": [{"scriptPubKey": {"reqSigs": 1, "hex": "a9149eb7e940accc6ce19f78e7d3eebc617e82ab9e7d87", "addresses": ["3GAF1Du7Kh1YBo19H3LKqdTL31eL7sbuyu"], "asm": "OP_HASH160 9eb7e940accc6ce19f78e7d3eebc617e82ab9e7d OP_EQUAL", "type": "scripthash"}, "value": 0.15626349, "n": 0}], "hex": "0100000001a05a272ba5471bb4a02b98df55d91c9d2faab11eb2c8b00ad59dda06e818889f010000006b483045022100aa4b3bb5e30e099a67ac0c200c508377978cd42246edd80c2aa1329d20433f4502203fac24251e9728402489c8808284116bb1d014cc62465336e1d954e7b8dc27e401210274e76779c3547acfc3fe285984cb3418e19385b590be6ed61e9ed8384ab52380ffffffff016d70ee000000000017a9149eb7e940accc6ce19f78e7d3eebc617e82ab9e7d8700000000", "vin": [{"sequence": 4294967295, "scriptSig": {"hex": "483045022100aa4b3bb5e30e099a67ac0c200c508377978cd42246edd80c2aa1329d20433f4502203fac24251e9728402489c8808284116bb1d014cc62465336e1d954e7b8dc27e401210274e76779c3547acfc3fe285984cb3418e19385b590be6ed61e9ed8384ab52380", "asm": "3045022100aa4b3bb5e30e099a67ac0c200c508377978cd42246edd80c2aa1329d20433f4502203fac24251e9728402489c8808284116bb1d014cc62465336e1d954e7b8dc27e4[ALL] 0274e76779c3547acfc3fe285984cb3418e19385b590be6ed61e9ed8384ab52380"}, "vout": 1, "txid": "9f8818e806da9dd50ab0c8b21eb1aa2f9d1cd955df982ba0b41b47a52b275aa0"}], "txid": "43db782fcc6c8dd987d6dc7912b323842badf84b84dc700f596fa41356a4c395", "blocktime": 1537873891, "version": 1, "confirmations": 11478, "time": 1537873891, "locktime": 0, "vsize": 190, "size": 190}