{"hash": "928ccb26709268e5ebd14aeed4af799b29cfde7968c6d0ff09487ed01ccfc0b4", "blockhash": "0000000000000000000dcc0f55137456b1a82d3642486a52398922ac4d620174", "vout": [{"scriptPubKey": {"reqSigs": 1, "hex": "a9149f771abca7ee1250daeefb2a197221be0205aae787", "addresses": ["3GEC3ZomJjpVsyEX93kGDHaV4iYHkYdv2m"], "asm": "OP_HASH160 9f771abca7ee1250daeefb2a197221be0205aae7 OP_EQUAL", "type": "scripthash"}, "value": 0.25729583, "n": 0}, {"scriptPubKey": {"reqSigs": 1, "hex": "a914959db59e31f28249489afad4f4fb451d1ca79c2887", "addresses": ["3FL7XyG9avVnVJFrGyewqvtBG4YVS98hqD"], "asm": "OP_HASH160 959db59e31f28249489afad4f4fb451d1ca79c28 OP_EQUAL", "type": "scripthash"}, "value": 0.21705902, "n": 1}], "hex": "02000000000101022633f4a81691d27022d0f25ff270ea37eb3161f64cd649b36aa28bc1eef0fd0000000017160014dca3a8f0846470740c0ae0fff9be604437a7a34bfeffffff022f9a88010000000017a9149f771abca7ee1250daeefb2a197221be0205aae787ae344b010000000017a914959db59e31f28249489afad4f4fb451d1ca79c288702483045022100a2b82c52c21fdd17fc235d4f2463c591042ef5baac691f88a5f898a9d807f0b102203eb1474cf832ff2967bc811bf8c6763cacfe9df6a7b675ef49530a23c70023f5012103a5f1ad03ff5f9e8fd114632ae9d44394e9c1bd0546eb616408687959fb2174f40c490800", "vin": [{"txinwitness": ["3045022100a2b82c52c21fdd17fc235d4f2463c591042ef5baac691f88a5f898a9d807f0b102203eb1474cf832ff2967bc811bf8c6763cacfe9df6a7b675ef49530a23c70023f501", "03a5f1ad03ff5f9e8fd114632ae9d44394e9c1bd0546eb616408687959fb2174f4"], "sequence": 4294967294, "scriptSig": {"hex": "160014dca3a8f0846470740c0ae0fff9be604437a7a34b", "asm": "0014dca3a8f0846470740c0ae0fff9be604437a7a34b"}, "vout": 0, "txid": "fdf0eec18ba26ab349d64cf66131eb37ea70f25ff2d02270d29116a8f4332602"}], "txid": "43de06fd2a9f86395f47165b1dd92dc4f630bc6a8dc8a60a51bf38bfdfed825d", "blocktime": 1537870268, "version": 2, "confirmations": 11518, "time": 1537870268, "locktime": 542988, "vsize": 166, "size": 248}