{"hash": "43e5303b2bbc7c7456807c81a1487a66268a0eef32d9bd0d665a2cd969802052", "blockhash": "000000000000000000022b45ed06c6f4ccd3cf7fb5ba4856ebd2e58215665228", "vout": [{"scriptPubKey": {"reqSigs": 1, "hex": "76a914af9adbb99366d288f21269a2da6e534ca257a71f88ac", "addresses": ["1H1WmKCBCaTE6w8RN6PqZxKrFwm7MPeQX1"], "asm": "OP_DUP OP_HASH160 af9adbb99366d288f21269a2da6e534ca257a71f OP_EQUALVERIFY OP_CHECKSIG", "type": "pubkeyhash"}, "value": 0.00728805, "n": 0}, {"scriptPubKey": {"reqSigs": 1, "hex": "a914b965cf28d2c9d47c5360cbcb5fcdfdcfa1d20d8687", "addresses": ["3JbJtrssoeYyixqCGyAXXxoLiHhz6SiX4Z"], "asm": "OP_HASH160 b965cf28d2c9d47c5360cbcb5fcdfdcfa1d20d86 OP_EQUAL", "type": "scripthash"}, "value": 0.01278856, "n": 1}], "hex": "010000000145964ba6323f2f67e42f7c6c0bdad77dcd106b10bd0337145cb859cf7f6742b6000000006a47304402204f7e4e63b645dec0299dd595bb2744e1004012458cfd35601dbb3ccbe378c24202202077eac77d90dcaa4d63a18111e192cc6b8bc3033a495e46ef0e170235b83c12012103e0cd3a0a3c9767da8f94920ab0f3b36f6eadabb77be6facd06d53395ef5640d9ffffffff02e51e0b00000000001976a914af9adbb99366d288f21269a2da6e534ca257a71f88ac888313000000000017a914b965cf28d2c9d47c5360cbcb5fcdfdcfa1d20d868700000000", "vin": [{"sequence": 4294967295, "scriptSig": {"hex": "47304402204f7e4e63b645dec0299dd595bb2744e1004012458cfd35601dbb3ccbe378c24202202077eac77d90dcaa4d63a18111e192cc6b8bc3033a495e46ef0e170235b83c12012103e0cd3a0a3c9767da8f94920ab0f3b36f6eadabb77be6facd06d53395ef5640d9", "asm": "304402204f7e4e63b645dec0299dd595bb2744e1004012458cfd35601dbb3ccbe378c24202202077eac77d90dcaa4d63a18111e192cc6b8bc3033a495e46ef0e170235b83c12[ALL] 03e0cd3a0a3c9767da8f94920ab0f3b36f6eadabb77be6facd06d53395ef5640d9"}, "vout": 0, "txid": "b642677fcf59b85c143703bd106b10cd7dd7da0b6c7c2fe4672f3f32a64b9645"}], "txid": "43e5303b2bbc7c7456807c81a1487a66268a0eef32d9bd0d665a2cd969802052", "blocktime": 1537869901, "version": 1, "confirmations": 11523, "time": 1537869901, "locktime": 0, "vsize": 223, "size": 223}