{"hash": "43ea531db970c581d34a0c2768f5963ea1b8fbdd3734994736d45d4fae444e21", "blockhash": "000000000000000000205f8b0775d31398ef75b89a5e8ec8d2c57b4dc0ac4c20", "vout": [{"scriptPubKey": {"type": "nulldata", "hex": "6a146f6d6e69000000000000001f0000246139ca8000", "asm": "OP_RETURN 6f6d6e69000000000000001f0000246139ca8000"}, "value": 0.0, "n": 0}, {"scriptPubKey": {"reqSigs": 1, "hex": "76a914a25dec4d0011064ef106a983c39c7a540699f22088ac", "addresses": ["1FoWyxwPXuj4C6abqwhjDWdz6D4PZgYRjA"], "asm": "OP_DUP OP_HASH160 a25dec4d0011064ef106a983c39c7a540699f220 OP_EQUALVERIFY OP_CHECKSIG", "type": "pubkeyhash"}, "value": 0.01990376, "n": 1}, {"scriptPubKey": {"reqSigs": 1, "hex": "76a914c1e924721c4c2d1d23c9a79c015012e6c527886f88ac", "addresses": ["1JgJi3FjN5n5pZc1b8QvCrVg88FDv7XgB5"], "asm": "OP_DUP OP_HASH160 c1e924721c4c2d1d23c9a79c015012e6c527886f OP_EQUALVERIFY OP_CHECKSIG", "type": "pubkeyhash"}, "value": 5.46e-06, "n": 2}], "hex": "0100000001293dce14c6e106cef579a80159470cf244afa1a80ef6f8f21661195a5b9906fd000000006b483045022100bff61c0c2ea22b0f42c7894b69a796fd6feaaf7d6439257ad7d1295a945fae0d02201707d4853e38680b13b4adbb8e538d1a11e60d59d7e8f71a2c0d08148833f704012103da5bac7b36d5aa38f531c6b9601e21bb598a4b6716ebed38b009a55dabde9440feffffff030000000000000000166a146f6d6e69000000000000001f0000246139ca8000e85e1e00000000001976a914a25dec4d0011064ef106a983c39c7a540699f22088ac22020000000000001976a914c1e924721c4c2d1d23c9a79c015012e6c527886f88ac0f490800", "vin": [{"sequence": 4294967294, "scriptSig": {"hex": "483045022100bff61c0c2ea22b0f42c7894b69a796fd6feaaf7d6439257ad7d1295a945fae0d02201707d4853e38680b13b4adbb8e538d1a11e60d59d7e8f71a2c0d08148833f704012103da5bac7b36d5aa38f531c6b9601e21bb598a4b6716ebed38b009a55dabde9440", "asm": "3045022100bff61c0c2ea22b0f42c7894b69a796fd6feaaf7d6439257ad7d1295a945fae0d02201707d4853e38680b13b4adbb8e538d1a11e60d59d7e8f71a2c0d08148833f704[ALL] 03da5bac7b36d5aa38f531c6b9601e21bb598a4b6716ebed38b009a55dabde9440"}, "vout": 0, "txid": "fd06995b5a196116f2f8f60ea8a1af44f20c475901a879f5ce06e1c614ce3d29"}], "txid": "43ea531db970c581d34a0c2768f5963ea1b8fbdd3734994736d45d4fae444e21", "blocktime": 1537871175, "version": 1, "confirmations": 11511, "time": 1537871175, "locktime": 542991, "vsize": 257, "size": 257}