{"hash": "626aee1072df66148833a04ebdb9f075ceaee808da67ef40782788c6acbeacab", "blockhash": "0000000000000000000baef3f32e3676a92c3b2e5da21b426e4f302fc371ce76", "vout": [{"scriptPubKey": {"reqSigs": 1, "hex": "a9141638f0aa2d51fb87af8206955f39e80e3906a79787", "addresses": ["33iX12mYZMws3q5g5k9TXirfYf1aL72vwF"], "asm": "OP_HASH160 1638f0aa2d51fb87af8206955f39e80e3906a797 OP_EQUAL", "type": "scripthash"}, "value": 0.06335095, "n": 0}, {"scriptPubKey": {"reqSigs": 1, "hex": "a914ef5fb05aefc80ffeae557664d86d289ab7cfcd7287", "addresses": ["3PWi3yK2CPfExoeFvx6bkysfKbNki58z9C"], "asm": "OP_HASH160 ef5fb05aefc80ffeae557664d86d289ab7cfcd72 OP_EQUAL", "type": "scripthash"}, "value": 0.3866234, "n": 1}], "hex": "02000000000101c96061b1843e70d6c4e2dac94f18c504e39ec2634de221c07569752c17e11c7e0000000017160014af74b50d773b0bed8afd94d534a165d36dfee577ffffffff0277aa60000000000017a9141638f0aa2d51fb87af8206955f39e80e3906a79787c4f04d020000000017a914ef5fb05aefc80ffeae557664d86d289ab7cfcd728702483045022100b6dd42480529dd9a7a79c3c81ae7f2dd2e5cea8ed272c734bb24e4b3a230c6b7022051a4105a09884288b2355a7c74026611e07423642379c1ab450b311235636759012103ec78860a8c90d4724276bba32542b5fc798a3fd1fa23110758116bc0ca4cee2600000000", "vin": [{"txinwitness": ["3045022100b6dd42480529dd9a7a79c3c81ae7f2dd2e5cea8ed272c734bb24e4b3a230c6b7022051a4105a09884288b2355a7c74026611e07423642379c1ab450b31123563675901", "03ec78860a8c90d4724276bba32542b5fc798a3fd1fa23110758116bc0ca4cee26"], "sequence": 4294967295, "scriptSig": {"hex": "160014af74b50d773b0bed8afd94d534a165d36dfee577", "asm": "0014af74b50d773b0bed8afd94d534a165d36dfee577"}, "vout": 0, "txid": "7e1ce1172c756975c021e24d63c29ee304c5184fc9dae2c4d6703e84b16160c9"}], "txid": "43efa6a58fef4331803c23f53d8aed37d394087330e89cb7b0148efd4803e4c1", "blocktime": 1537876114, "version": 2, "confirmations": 11460, "time": 1537876114, "locktime": 0, "vsize": 166, "size": 248}