{"hash": "33d30f2cfa15ff6a78699c902c8e653686fda980b84c483829051ef552a2c802", "blockhash": "0000000000000000001f76057863aec43deb6fa401d9628bb513d65a8098bfab", "vout": [{"scriptPubKey": {"reqSigs": 1, "hex": "0014da2d3fced79599ce9be43cd37c4a36d340349f7b", "addresses": ["bc1qmgknlnkhjkvuaxly8nfhcj3k6dqrf8mmm86u2u"], "asm": "0 da2d3fced79599ce9be43cd37c4a36d340349f7b", "type": "witness_v0_keyhash"}, "value": 2.595e-05, "n": 0}, {"scriptPubKey": {"reqSigs": 1, "hex": "76a914a123d51dfcc0bb2ea9fc36ef3d8e18b76004692188ac", "addresses": ["1Fh2ia3N3SFLkkvzuo361oqCA1egL3bd3J"], "asm": "OP_DUP OP_HASH160 a123d51dfcc0bb2ea9fc36ef3d8e18b760046921 OP_EQUALVERIFY OP_CHECKSIG", "type": "pubkeyhash"}, "value": 0.0069754, "n": 1}], "hex": "0100000000010189883bc3137c80a7d39280221adb2c35597181b07c3a69c56442c5289885ecc10100000000ffffffff02230a000000000000160014da2d3fced79599ce9be43cd37c4a36d340349f7bc4a40a00000000001976a914a123d51dfcc0bb2ea9fc36ef3d8e18b76004692188ac024730440220487f0d6859258e96e68c2c35005f05ef00cce24dcf7355462b9ed23bae5529ab02206955b4c32abf77bbb75b14eb2dce0d39cee25917b306e6b08e7e822822db4646012102a57dbe32a71a8bcc392bf0810633834826c5cd2cb2b94dba999e52b0f725067e00000000", "vin": [{"txinwitness": ["30440220487f0d6859258e96e68c2c35005f05ef00cce24dcf7355462b9ed23bae5529ab02206955b4c32abf77bbb75b14eb2dce0d39cee25917b306e6b08e7e822822db464601", "02a57dbe32a71a8bcc392bf0810633834826c5cd2cb2b94dba999e52b0f725067e"], "sequence": 4294967295, "scriptSig": {"hex": "", "asm": ""}, "vout": 1, "txid": "c1ec859828c54264c5693a7cb0817159352cdb1a228092d3a7807c13c33b8889"}], "txid": "43f598e917991584b0ff3875ec5d6d9161cd8edc31e62c74e132987d15861708", "blocktime": 1537873891, "version": 1, "confirmations": 11478, "time": 1537873891, "locktime": 0, "vsize": 144, "size": 225}