{"hash": "43f7042592b68b580d7739d30912c37b236fc937f042e805d01007d7d0ec9eb0", "blockhash": "0000000000000000000e13cef7c366c0283d82e591d1acd082e914b08063cdf1", "vout": [{"scriptPubKey": {"reqSigs": 1, "hex": "a91486ed17bfa7bd80cf87cf7e80abd9289079b78c5b87", "addresses": ["3DzSVk4veMCkNbNT9CdETeE26uWxmNbBnD"], "asm": "OP_HASH160 86ed17bfa7bd80cf87cf7e80abd9289079b78c5b OP_EQUAL", "type": "scripthash"}, "value": 23.94685599, "n": 0}, {"scriptPubKey": {"reqSigs": 1, "hex": "a914a30e6f92c115d71ea2064b686f681eefd39dd4bc87", "addresses": ["3GZBMqB178dZ1AvZJcnpYXYd7mFePNeNv8"], "asm": "OP_HASH160 a30e6f92c115d71ea2064b686f681eefd39dd4bc OP_EQUAL", "type": "scripthash"}, "value": 0.1, "n": 1}], "hex": "0200000001e50d72f984d1cf26b61d7200c20be665593a31768032ffac76eb077a2f95ac8a01000000da00473044022020b58a87f746c2a649463517aabad8f9d72b7355d82dc34d2c9bd0152d8025af02201d67d362de54e8eea998db5737af9b02844e9b62fa49f081349fe3391163111801483045022100db1af4b68ddbd1cec2a59e76d115a4ca0b9e6ccdff892c806b6ea839a5289b9c022078c8df9d9354d52e5aed1985d54569b2afc33e086834dc543f2e6f75e6041e7101475221038934160de8ad1dd529329f5bf51e3086cc0f6d19e10fb4120385f23d871c0c1d21021659435e23e3891d39ec2b0266b3c14a68cb4e45adb8543f31508310c98722d952aeffffffff029f00bc8e0000000017a91486ed17bfa7bd80cf87cf7e80abd9289079b78c5b87809698000000000017a914a30e6f92c115d71ea2064b686f681eefd39dd4bc8700000000", "vin": [{"sequence": 4294967295, "scriptSig": {"hex": "00473044022020b58a87f746c2a649463517aabad8f9d72b7355d82dc34d2c9bd0152d8025af02201d67d362de54e8eea998db5737af9b02844e9b62fa49f081349fe3391163111801483045022100db1af4b68ddbd1cec2a59e76d115a4ca0b9e6ccdff892c806b6ea839a5289b9c022078c8df9d9354d52e5aed1985d54569b2afc33e086834dc543f2e6f75e6041e7101475221038934160de8ad1dd529329f5bf51e3086cc0f6d19e10fb4120385f23d871c0c1d21021659435e23e3891d39ec2b0266b3c14a68cb4e45adb8543f31508310c98722d952ae", "asm": "0 3044022020b58a87f746c2a649463517aabad8f9d72b7355d82dc34d2c9bd0152d8025af02201d67d362de54e8eea998db5737af9b02844e9b62fa49f081349fe33911631118[ALL] 3045022100db1af4b68ddbd1cec2a59e76d115a4ca0b9e6ccdff892c806b6ea839a5289b9c022078c8df9d9354d52e5aed1985d54569b2afc33e086834dc543f2e6f75e6041e71[ALL] 5221038934160de8ad1dd529329f5bf51e3086cc0f6d19e10fb4120385f23d871c0c1d21021659435e23e3891d39ec2b0266b3c14a68cb4e45adb8543f31508310c98722d952ae"}, "vout": 1, "txid": "8aac952f7a07eb76acff328076313a5965e60bc200721db626cfd184f9720de5"}], "txid": "43f7042592b68b580d7739d30912c37b236fc937f042e805d01007d7d0ec9eb0", "blocktime": 1537871767, "version": 2, "confirmations": 11491, "time": 1537871767, "locktime": 0, "vsize": 333, "size": 333}