{"hash": "43fab0c0e322e1001845ecd9e2534f23af8583e085c77b525049cfd49c224ab6", "blockhash": "0000000000000000000e13cef7c366c0283d82e591d1acd082e914b08063cdf1", "vout": [{"scriptPubKey": {"reqSigs": 1, "hex": "76a914f695c05644ba0dc2ed292a33de3928c3f1e1581888ac", "addresses": ["1PUpd6TjVuRQmV9FBycRE8Sm4GBbGC9uT6"], "asm": "OP_DUP OP_HASH160 f695c05644ba0dc2ed292a33de3928c3f1e15818 OP_EQUALVERIFY OP_CHECKSIG", "type": "pubkeyhash"}, "value": 5.46e-06, "n": 0}, {"scriptPubKey": {"reqSigs": 1, "hex": "a9143f4eecba122ad73039d481c8d37f99cb4f887cd887", "addresses": ["37Tm3Qz8Zw2VJrheUUhArDAoq58S6YrS3g"], "asm": "OP_HASH160 3f4eecba122ad73039d481c8d37f99cb4f887cd8 OP_EQUAL", "type": "scripthash"}, "value": 0.99994908, "n": 1}, {"scriptPubKey": {"type": "nulldata", "hex": "6a146f6d6e69000000000000001f00000008b54c12c0", "asm": "OP_RETURN 6f6d6e69000000000000001f00000008b54c12c0"}, "value": 0.0, "n": 2}], "hex": "0100000001b0ce81f32051ded4b5beea19c0035e58b161e0d6f6ed2a949a4c9d5a5c52ab5d01000000fdfd0000473044022023d62af7d6e65d3cc20e363a6b6e8360708ff1bb858f864cfe5f22924e5079fd0220251eaef7b7850f681474331112496060d8f273195becf4e6b2fad6011100cdf101483045022100f1b18e127cd7c5eac782050cd1f987786cb40cd63c2f1b2afee659b2732ad1380220600e992d182977b90c198e9a0fe736734cee18584f2f6a67cfa726c97981aafc014c6952210246ccf4de0c54cc7f3354cdd993c2c50cf965fd82238b89659fbd73a1b4bf05a121024fc59f72272a897fe43803374969f396058152fe4765a8d15216f94624257b1b21022593bc69ecbf3bbcc3c58082267cb49dadaf4ca8dbf1b2297338a9d628c4297653aeffffffff0322020000000000001976a914f695c05644ba0dc2ed292a33de3928c3f1e1581888ac1ccdf5050000000017a9143f4eecba122ad73039d481c8d37f99cb4f887cd8870000000000000000166a146f6d6e69000000000000001f00000008b54c12c000000000", "vin": [{"sequence": 4294967295, "scriptSig": {"hex": "00473044022023d62af7d6e65d3cc20e363a6b6e8360708ff1bb858f864cfe5f22924e5079fd0220251eaef7b7850f681474331112496060d8f273195becf4e6b2fad6011100cdf101483045022100f1b18e127cd7c5eac782050cd1f987786cb40cd63c2f1b2afee659b2732ad1380220600e992d182977b90c198e9a0fe736734cee18584f2f6a67cfa726c97981aafc014c6952210246ccf4de0c54cc7f3354cdd993c2c50cf965fd82238b89659fbd73a1b4bf05a121024fc59f72272a897fe43803374969f396058152fe4765a8d15216f94624257b1b21022593bc69ecbf3bbcc3c58082267cb49dadaf4ca8dbf1b2297338a9d628c4297653ae", "asm": "0 3044022023d62af7d6e65d3cc20e363a6b6e8360708ff1bb858f864cfe5f22924e5079fd0220251eaef7b7850f681474331112496060d8f273195becf4e6b2fad6011100cdf1[ALL] 3045022100f1b18e127cd7c5eac782050cd1f987786cb40cd63c2f1b2afee659b2732ad1380220600e992d182977b90c198e9a0fe736734cee18584f2f6a67cfa726c97981aafc[ALL] 52210246ccf4de0c54cc7f3354cdd993c2c50cf965fd82238b89659fbd73a1b4bf05a121024fc59f72272a897fe43803374969f396058152fe4765a8d15216f94624257b1b21022593bc69ecbf3bbcc3c58082267cb49dadaf4ca8dbf1b2297338a9d628c4297653ae"}, "vout": 1, "txid": "5dab525c5a9d4c9a942aedf6d6e061b1585e03c019eabeb5d4de5120f381ceb0"}], "txid": "43fab0c0e322e1001845ecd9e2534f23af8583e085c77b525049cfd49c224ab6", "blocktime": 1537871767, "version": 1, "confirmations": 11493, "time": 1537871767, "locktime": 0, "vsize": 403, "size": 403}