{"hash": "43fcde9c19a1465814ab9dbd599fd6a1c7cd25d190ba9d338f4bc0c7e9b730f2", "blockhash": "00000000000000000017f5eb5941039fbcee6240d03bc1f2f8e35350df66a1d8", "vout": [{"scriptPubKey": {"reqSigs": 1, "hex": "76a91496ed764f192b34daf82b008a9850a7fd986b31ae88ac", "addresses": ["1Em2pw9fFRJEzHY3x8NkTtgXPp3TD6qgpQ"], "asm": "OP_DUP OP_HASH160 96ed764f192b34daf82b008a9850a7fd986b31ae OP_EQUALVERIFY OP_CHECKSIG", "type": "pubkeyhash"}, "value": 1.21909196, "n": 0}, {"scriptPubKey": {"reqSigs": 1, "hex": "76a91414f62dbcd1050dabdb2b4f269b53b8885005fd5588ac", "addresses": ["12uqRdY79j3GKEHQuhfm1wEmMb3VLc2DMG"], "asm": "OP_DUP OP_HASH160 14f62dbcd1050dabdb2b4f269b53b8885005fd55 OP_EQUALVERIFY OP_CHECKSIG", "type": "pubkeyhash"}, "value": 0.30801557, "n": 1}], "hex": "01000000025f9dcc49b6c6dc7a5e79889873a28250ab989da68081aa595b3d1b7daa327320010000006b4830450221008daa354b298716f928791ccbaeb35cf50b55249b182a327b899d84af54d0a80c02201505c009c41d622245bfdae699e8398d60aacede9b9f171cefe50a3007402699012102a5ae5bda2fa578155cbd0aba70b75eb9e8b8effe74b28df2a7de1b8544b06494ffffffff5d3619220bf8c6e9b9c2d28a9e8e5a0ea2b73157eb4358a08a94b49dfa119a1f000000006b483045022100bfd6509ff4decf6c4cfb73b424d68ba74ee2e0f0bb22d65f54f44ef62dc6fe1e0220033b6a931f8d13425c7b50ce3598f8f39ffa316c42ba1ea17b32f17917737a24012102c11c7d6d5ae9da0d2363991cfd29b6c7785177fc282499657022551e934dc397ffffffff02cc2f4407000000001976a91496ed764f192b34daf82b008a9850a7fd986b31ae88ac95fed501000000001976a91414f62dbcd1050dabdb2b4f269b53b8885005fd5588ac00000000", "vin": [{"sequence": 4294967295, "scriptSig": {"hex": "4830450221008daa354b298716f928791ccbaeb35cf50b55249b182a327b899d84af54d0a80c02201505c009c41d622245bfdae699e8398d60aacede9b9f171cefe50a3007402699012102a5ae5bda2fa578155cbd0aba70b75eb9e8b8effe74b28df2a7de1b8544b06494", "asm": "30450221008daa354b298716f928791ccbaeb35cf50b55249b182a327b899d84af54d0a80c02201505c009c41d622245bfdae699e8398d60aacede9b9f171cefe50a3007402699[ALL] 02a5ae5bda2fa578155cbd0aba70b75eb9e8b8effe74b28df2a7de1b8544b06494"}, "vout": 1, "txid": "207332aa7d1b3d5b59aa8180a69d98ab5082a2739888795e7adcc6b649cc9d5f"}, {"sequence": 4294967295, "scriptSig": {"hex": "483045022100bfd6509ff4decf6c4cfb73b424d68ba74ee2e0f0bb22d65f54f44ef62dc6fe1e0220033b6a931f8d13425c7b50ce3598f8f39ffa316c42ba1ea17b32f17917737a24012102c11c7d6d5ae9da0d2363991cfd29b6c7785177fc282499657022551e934dc397", "asm": "3045022100bfd6509ff4decf6c4cfb73b424d68ba74ee2e0f0bb22d65f54f44ef62dc6fe1e0220033b6a931f8d13425c7b50ce3598f8f39ffa316c42ba1ea17b32f17917737a24[ALL] 02c11c7d6d5ae9da0d2363991cfd29b6c7785177fc282499657022551e934dc397"}, "vout": 0, "txid": "1f9a11fa9db4948aa05843eb5731b7a20e5a8e9e8ad2c2b9e9c6f80b2219365d"}], "txid": "43fcde9c19a1465814ab9dbd599fd6a1c7cd25d190ba9d338f4bc0c7e9b730f2", "blocktime": 1537874412, "version": 1, "confirmations": 11466, "time": 1537874412, "locktime": 0, "vsize": 374, "size": 374}