{"hash": "a3b6e16b69e7db832756babda3fcefc89bd911b7d029fe8efc76ae622b3f559c", "blockhash": "0000000000000000000e13cef7c366c0283d82e591d1acd082e914b08063cdf1", "vout": [{"scriptPubKey": {"reqSigs": 1, "hex": "76a91430c7242a5494304324c4def792a045e1c809350388ac", "addresses": ["15SuznatFiEXD1w49g3Mvb3KANorpcTyL6"], "asm": "OP_DUP OP_HASH160 30c7242a5494304324c4def792a045e1c8093503 OP_EQUALVERIFY OP_CHECKSIG", "type": "pubkeyhash"}, "value": 0.05030243, "n": 0}, {"scriptPubKey": {"reqSigs": 1, "hex": "a914bbba37f40cb545bcad4ce84c10733be66d166e0487", "addresses": ["3JodN7GmkHdPgKj9G7HCkn9NDLhrcWCjVN"], "asm": "OP_HASH160 bbba37f40cb545bcad4ce84c10733be66d166e04 OP_EQUAL", "type": "scripthash"}, "value": 0.00141147, "n": 1}], "hex": "020000000001019b45cbaacefcc9d0dbc4042c00cfc45a73636701d7893c1132103b460e71801f0000000017160014931f946e43d3d83f5a9345f454e00377153a246cffffffff0263c14c00000000001976a91430c7242a5494304324c4def792a045e1c809350388ac5b2702000000000017a914bbba37f40cb545bcad4ce84c10733be66d166e04870248304502210082185428a7e27bb6033c79bd81c6381e2459a0610a95af25c9d60ccd4150da370220768ba41ce6ca894bfbcb1dd4d486d4f121c2b3a05e860e67863ea1313d75fd7f012103b5ef8737b08a51938a9335ab297939ad060471b399f72a933d6b83b210e83a6c00000000", "vin": [{"txinwitness": ["304502210082185428a7e27bb6033c79bd81c6381e2459a0610a95af25c9d60ccd4150da370220768ba41ce6ca894bfbcb1dd4d486d4f121c2b3a05e860e67863ea1313d75fd7f01", "03b5ef8737b08a51938a9335ab297939ad060471b399f72a933d6b83b210e83a6c"], "sequence": 4294967295, "scriptSig": {"hex": "160014931f946e43d3d83f5a9345f454e00377153a246c", "asm": "0014931f946e43d3d83f5a9345f454e00377153a246c"}, "vout": 0, "txid": "1f80710e463b1032113c89d7016763735ac4cf002c04c4dbd0c9fcceaacb459b"}], "txid": "4400391135070e7da737543c42906f434ec07e7ffdfba51a561ecd4a2b9c65ca", "blocktime": 1537871767, "version": 2, "confirmations": 11490, "time": 1537871767, "locktime": 0, "vsize": 168, "size": 250}