{"hash": "440aa1b307f9847ce44da8d21e1391f757506dee9e79cbf1cb604844413db907", "blockhash": "0000000000000000001e0dab787dd257d1dbfcb92a98c2207d5e1078be1f4165", "vout": [{"scriptPubKey": {"type": "nulldata", "hex": "6a4c50000077b10001805033e5bf9ae76da98a211aaf6c953dd567cf27e7e3ef3236678a6250976ee8a122ba527fc3545ce9ade5b417fb5baa118606115f253138dfcf1d100759d4ba30d2c37bb011d97e02cf", "asm": "OP_RETURN 000077b10001805033e5bf9ae76da98a211aaf6c953dd567cf27e7e3ef3236678a6250976ee8a122ba527fc3545ce9ade5b417fb5baa118606115f253138dfcf1d100759d4ba30d2c37bb011d97e02cf"}, "value": 0.0, "n": 0}, {"scriptPubKey": {"reqSigs": 1, "hex": "76a914f4e1981225ee69b012e81b529946d42e0365f7be88ac", "addresses": ["1PKp8MZDsCjvZP2EUuZjQnbN1GdZVx5Acz"], "asm": "OP_DUP OP_HASH160 f4e1981225ee69b012e81b529946d42e0365f7be OP_EQUALVERIFY OP_CHECKSIG", "type": "pubkeyhash"}, "value": 0.00641784, "n": 1}], "hex": "0100000001b196ca80e75077032ffb18d0e20d0e18d2b96240ddd4fac3e4d7bf9530215ab8010000006b483045022100f00a2f58228ed577aa84d22568ad8d2352b2d55b6430654bf7955b30537fa8dc02205ac6847df11a051395524d5d5afb30c0e27c8da2d5de2e2e29c651b04315711301210326c73c578c319d13d3be9833db62e65642e701ba0c7757bddeefd4011111a52affffffff020000000000000000536a4c50000077b10001805033e5bf9ae76da98a211aaf6c953dd567cf27e7e3ef3236678a6250976ee8a122ba527fc3545ce9ade5b417fb5baa118606115f253138dfcf1d100759d4ba30d2c37bb011d97e02cff8ca0900000000001976a914f4e1981225ee69b012e81b529946d42e0365f7be88ac00000000", "vin": [{"sequence": 4294967295, "scriptSig": {"hex": "483045022100f00a2f58228ed577aa84d22568ad8d2352b2d55b6430654bf7955b30537fa8dc02205ac6847df11a051395524d5d5afb30c0e27c8da2d5de2e2e29c651b04315711301210326c73c578c319d13d3be9833db62e65642e701ba0c7757bddeefd4011111a52a", "asm": "3045022100f00a2f58228ed577aa84d22568ad8d2352b2d55b6430654bf7955b30537fa8dc02205ac6847df11a051395524d5d5afb30c0e27c8da2d5de2e2e29c651b043157113[ALL] 0326c73c578c319d13d3be9833db62e65642e701ba0c7757bddeefd4011111a52a"}, "vout": 1, "txid": "b85a213095bfd7e4c3fad4dd4062b9d2180e0de2d018fb2f037750e780ca96b1"}], "txid": "440aa1b307f9847ce44da8d21e1391f757506dee9e79cbf1cb604844413db907", "blocktime": 1537872475, "version": 1, "confirmations": 11486, "time": 1537872475, "locktime": 0, "vsize": 284, "size": 284}