{"hash": "440aa884993fff0c7c59ba5029593ea47af792623e30b225b5adfaf37ee16dce", "blockhash": "0000000000000000001cda96e906b7601b7a6fb1a3b62bca570a9e5d8f4b3de1", "vout": [{"scriptPubKey": {"reqSigs": 1, "hex": "76a9140db88d5ce71d1c013f07d9b408151facbe7b23ac88ac", "addresses": ["12FYsQWfnQ2qDf3EbsnqV839F7b5wGK4Up"], "asm": "OP_DUP OP_HASH160 0db88d5ce71d1c013f07d9b408151facbe7b23ac OP_EQUALVERIFY OP_CHECKSIG", "type": "pubkeyhash"}, "value": 0.00379, "n": 0}, {"scriptPubKey": {"reqSigs": 1, "hex": "76a914a6552841e18bc69f3aa784ae3f9868a61dd74f7b88ac", "addresses": ["1GAVBg5EyJvMoMbfR5JrCrNWheCaXgiLGd"], "asm": "OP_DUP OP_HASH160 a6552841e18bc69f3aa784ae3f9868a61dd74f7b OP_EQUALVERIFY OP_CHECKSIG", "type": "pubkeyhash"}, "value": 0.02371117, "n": 1}], "hex": "0100000001f93a1644b0b48eb98328b92c4f866795a93e177934b0fe5a281dc88fc915100b010000006b483045022100e4d453a47dd1b90ed5e4c1a61244827acb9504d892bc56bf95d423e81bd5fb27022027a0e22cf8c1a8b9d191b2378a9e1aa91ca1560da2256b54389bc5eda3c5aaf60121033e4881262c0fbe2ccafabf02b5522e75d2a1e89d4422f637eefe53a3ebf07255ffffffff0278c80500000000001976a9140db88d5ce71d1c013f07d9b408151facbe7b23ac88ac2d2e2400000000001976a914a6552841e18bc69f3aa784ae3f9868a61dd74f7b88ac00000000", "vin": [{"sequence": 4294967295, "scriptSig": {"hex": "483045022100e4d453a47dd1b90ed5e4c1a61244827acb9504d892bc56bf95d423e81bd5fb27022027a0e22cf8c1a8b9d191b2378a9e1aa91ca1560da2256b54389bc5eda3c5aaf60121033e4881262c0fbe2ccafabf02b5522e75d2a1e89d4422f637eefe53a3ebf07255", "asm": "3045022100e4d453a47dd1b90ed5e4c1a61244827acb9504d892bc56bf95d423e81bd5fb27022027a0e22cf8c1a8b9d191b2378a9e1aa91ca1560da2256b54389bc5eda3c5aaf6[ALL] 033e4881262c0fbe2ccafabf02b5522e75d2a1e89d4422f637eefe53a3ebf07255"}, "vout": 1, "txid": "0b1015c98fc81d285afeb03479173ea99567864f2cb92883b98eb4b044163af9"}], "txid": "440aa884993fff0c7c59ba5029593ea47af792623e30b225b5adfaf37ee16dce", "blocktime": 1537873282, "version": 1, "confirmations": 11484, "time": 1537873282, "locktime": 0, "vsize": 226, "size": 226}