{"hash": "440a3bbfdbd11f0bf9223d3a98e111570265710ea87c82d65e565bc658c1f0c8", "blockhash": "0000000000000000001e0dab787dd257d1dbfcb92a98c2207d5e1078be1f4165", "vout": [{"scriptPubKey": {"reqSigs": 1, "hex": "76a914765d6f6564e6e5d20b1e21cbb553d06a996b815188ac", "addresses": ["1BnrfdA6BAxmXUZem2HAdarkyZaMc9YF72"], "asm": "OP_DUP OP_HASH160 765d6f6564e6e5d20b1e21cbb553d06a996b8151 OP_EQUALVERIFY OP_CHECKSIG", "type": "pubkeyhash"}, "value": 0.03483507, "n": 0}, {"scriptPubKey": {"reqSigs": 1, "hex": "a9148220d22dc7edc850b1ba18230f7b2152cb3d949787", "addresses": ["3DZ55vdkobujmJDhjBGJDykeRwgFXWQozW"], "asm": "OP_HASH160 8220d22dc7edc850b1ba18230f7b2152cb3d9497 OP_EQUAL", "type": "scripthash"}, "value": 0.00053804, "n": 1}], "hex": "02000000018cfac348b62c357f6130ad53ce4594c06789ef21015053338323f6eebf04b220010000006a47304402201fdce9d0e188f66f1ff6e463bd41e0b2136a7b856814af0b4209de5ba347174f022051618ef1c0e490c2ae74bee8b42a09af88d3d2799797f98614bac901f355af5b01210211ff9ddf6d60bd122158ff4c27168baa46df9298badedd9726128f9613ca1003feffffff0273273500000000001976a914765d6f6564e6e5d20b1e21cbb553d06a996b815188ac2cd200000000000017a9148220d22dc7edc850b1ba18230f7b2152cb3d94978712490800", "vin": [{"sequence": 4294967294, "scriptSig": {"hex": "47304402201fdce9d0e188f66f1ff6e463bd41e0b2136a7b856814af0b4209de5ba347174f022051618ef1c0e490c2ae74bee8b42a09af88d3d2799797f98614bac901f355af5b01210211ff9ddf6d60bd122158ff4c27168baa46df9298badedd9726128f9613ca1003", "asm": "304402201fdce9d0e188f66f1ff6e463bd41e0b2136a7b856814af0b4209de5ba347174f022051618ef1c0e490c2ae74bee8b42a09af88d3d2799797f98614bac901f355af5b[ALL] 0211ff9ddf6d60bd122158ff4c27168baa46df9298badedd9726128f9613ca1003"}, "vout": 1, "txid": "20b204bfeef623833353500121ef8967c09445ce53ad30617f352cb648c3fa8c"}], "txid": "440a3bbfdbd11f0bf9223d3a98e111570265710ea87c82d65e565bc658c1f0c8", "blocktime": 1537872475, "version": 2, "confirmations": 11486, "time": 1537872475, "locktime": 542994, "vsize": 223, "size": 223}