{"hash": "440ae5f8f925dd3b82a2ab5d60117331d891429a04f2121cc350fbbe15b70ba6", "blockhash": "0000000000000000001cda96e906b7601b7a6fb1a3b62bca570a9e5d8f4b3de1", "vout": [{"scriptPubKey": {"reqSigs": 1, "hex": "a9141793d057603b94613bcd4960843fb7ad86d80eed87", "addresses": ["33qgYEw73aEX67NDN6Uk2t3WhBbs2huEcK"], "asm": "OP_HASH160 1793d057603b94613bcd4960843fb7ad86d80eed OP_EQUAL", "type": "scripthash"}, "value": 0.06230372, "n": 0}, {"scriptPubKey": {"reqSigs": 1, "hex": "76a91490c7a7c193d0dc6ca0df91d53ebb0885e329401488ac", "addresses": ["1ECXUvBHDCnu3NCqMV9pb114q81bsAun9N"], "asm": "OP_DUP OP_HASH160 90c7a7c193d0dc6ca0df91d53ebb0885e3294014 OP_EQUALVERIFY OP_CHECKSIG", "type": "pubkeyhash"}, "value": 0.11740648, "n": 1}], "hex": "0100000001d44a4dd5e36350cb0270fb4c1358039d85558f847264801e67ae15dcc1210600010000006a47304402204dff70bbbad3bc7933b42e4132280af41cbb3f11b47fe46631987f545fa5656c02201743ce35ec825283b0cd3e8f8e4ab069dfcea910438298a3bb16b372b00c839d01210297f99aa1deccbe642978e84e6c9838abc597749f4ce06c2b5e1c9f5398cae538ffffffff0264115f000000000017a9141793d057603b94613bcd4960843fb7ad86d80eed87e825b300000000001976a91490c7a7c193d0dc6ca0df91d53ebb0885e329401488ac00000000", "vin": [{"sequence": 4294967295, "scriptSig": {"hex": "47304402204dff70bbbad3bc7933b42e4132280af41cbb3f11b47fe46631987f545fa5656c02201743ce35ec825283b0cd3e8f8e4ab069dfcea910438298a3bb16b372b00c839d01210297f99aa1deccbe642978e84e6c9838abc597749f4ce06c2b5e1c9f5398cae538", "asm": "304402204dff70bbbad3bc7933b42e4132280af41cbb3f11b47fe46631987f545fa5656c02201743ce35ec825283b0cd3e8f8e4ab069dfcea910438298a3bb16b372b00c839d[ALL] 0297f99aa1deccbe642978e84e6c9838abc597749f4ce06c2b5e1c9f5398cae538"}, "vout": 1, "txid": "000621c1dc15ae671e806472848f55859d0358134cfb7002cb5063e3d54d4ad4"}], "txid": "440ae5f8f925dd3b82a2ab5d60117331d891429a04f2121cc350fbbe15b70ba6", "blocktime": 1537873282, "version": 1, "confirmations": 11485, "time": 1537873282, "locktime": 0, "vsize": 223, "size": 223}