{"hash": "440eeba63850cbcfeed2fce1c13ff9cf107fc7ad3cd72a40357e25db15238246", "blockhash": "00000000000000000024a2167bbff67b0be802c0b01cdd79e6331c2be6459f87", "vout": [{"scriptPubKey": {"type": "nulldata", "hex": "6a146f6d6e69000000000000001f0000079687f3ca30", "asm": "OP_RETURN 6f6d6e69000000000000001f0000079687f3ca30"}, "value": 0.0, "n": 0}, {"scriptPubKey": {"reqSigs": 1, "hex": "76a914e917a7833b1c81e16f638211cc2ea71077c5263a88ac", "addresses": ["1NFUnEJGvdggPpCiGHtnFjj8QBPJyt1CM5"], "asm": "OP_DUP OP_HASH160 e917a7833b1c81e16f638211cc2ea71077c5263a OP_EQUALVERIFY OP_CHECKSIG", "type": "pubkeyhash"}, "value": 0.00059222, "n": 1}, {"scriptPubKey": {"reqSigs": 1, "hex": "76a914cb71a5b80cfc05f2920248186c8d6a4a8f49ee8e88ac", "addresses": ["1KYiKJEfdJtap9QX2v9BXJMpz2SfU4pgZw"], "asm": "OP_DUP OP_HASH160 cb71a5b80cfc05f2920248186c8d6a4a8f49ee8e OP_EQUALVERIFY OP_CHECKSIG", "type": "pubkeyhash"}, "value": 5.46e-06, "n": 2}], "hex": "01000000017d595716bae0d67662542eb095001c7346bd8af339305eaec5935c8f40204767010000006a473044022057472506a3a53786b5fb4d7bb413c4fd6eb246f5a68f3293d27ef449dfd60eaf022044525c16c26e3f35326d12a04f5c2fa1f93e13a3598ff1d68a31acea88cc81c401210225e8a77d82d43da10509c437f7801fb60f264f73c44befc08cb0894e98eb57e2feffffff030000000000000000166a146f6d6e69000000000000001f0000079687f3ca3056e70000000000001976a914e917a7833b1c81e16f638211cc2ea71077c5263a88ac22020000000000001976a914cb71a5b80cfc05f2920248186c8d6a4a8f49ee8e88ac0d490800", "vin": [{"sequence": 4294967294, "scriptSig": {"hex": "473044022057472506a3a53786b5fb4d7bb413c4fd6eb246f5a68f3293d27ef449dfd60eaf022044525c16c26e3f35326d12a04f5c2fa1f93e13a3598ff1d68a31acea88cc81c401210225e8a77d82d43da10509c437f7801fb60f264f73c44befc08cb0894e98eb57e2", "asm": "3044022057472506a3a53786b5fb4d7bb413c4fd6eb246f5a68f3293d27ef449dfd60eaf022044525c16c26e3f35326d12a04f5c2fa1f93e13a3598ff1d68a31acea88cc81c4[ALL] 0225e8a77d82d43da10509c437f7801fb60f264f73c44befc08cb0894e98eb57e2"}, "vout": 1, "txid": "674720408f5c93c5ae5e3039f38abd46731c0095b02e546276d6e0ba1657597d"}], "txid": "440eeba63850cbcfeed2fce1c13ff9cf107fc7ad3cd72a40357e25db15238246", "blocktime": 1537870564, "version": 1, "confirmations": 11515, "time": 1537870564, "locktime": 542989, "vsize": 256, "size": 256}