{"hash": "4415bd32f6caf84276ef9ebf5c294b58c1c7b281fd832e2825177594f627e932", "blockhash": "0000000000000000001e0dab787dd257d1dbfcb92a98c2207d5e1078be1f4165", "vout": [{"scriptPubKey": {"reqSigs": 1, "hex": "76a914d32ca820fd4586e812726493e36a0b183bec02d188ac", "addresses": ["1LFb5HM7BPuUNPaAtEmCiT89tiRkdRHY3m"], "asm": "OP_DUP OP_HASH160 d32ca820fd4586e812726493e36a0b183bec02d1 OP_EQUALVERIFY OP_CHECKSIG", "type": "pubkeyhash"}, "value": 0.04203597, "n": 0}, {"scriptPubKey": {"reqSigs": 1, "hex": "a914cfe8f6d388cf059863ae381d4ef870cab5c0a73a87", "addresses": ["3LeLstNrZjo6KWXF3XqdXkAL1KycbTufFQ"], "asm": "OP_HASH160 cfe8f6d388cf059863ae381d4ef870cab5c0a73a OP_EQUAL", "type": "scripthash"}, "value": 0.15466864, "n": 1}], "hex": "0100000001764dceaf7aebd158553e4279d82ea97afff1e6f2f233d94e9af7c453774572ac000000006b4830450221008674a084e3823e0cd59b50e40e9c864afde0ab2d8b75839e7d2f36fc9905f2de02202adcacc7d403abc6c57319a94be7ed2dc6eb91bac1f03daaca94b74594aae14001210370fafae4169e1e54d891addb1452516ec47d789f186951a7ad6e25d4e53a670fffffffff024d244000000000001976a914d32ca820fd4586e812726493e36a0b183bec02d188ac7001ec000000000017a914cfe8f6d388cf059863ae381d4ef870cab5c0a73a8700000000", "vin": [{"sequence": 4294967295, "scriptSig": {"hex": "4830450221008674a084e3823e0cd59b50e40e9c864afde0ab2d8b75839e7d2f36fc9905f2de02202adcacc7d403abc6c57319a94be7ed2dc6eb91bac1f03daaca94b74594aae14001210370fafae4169e1e54d891addb1452516ec47d789f186951a7ad6e25d4e53a670f", "asm": "30450221008674a084e3823e0cd59b50e40e9c864afde0ab2d8b75839e7d2f36fc9905f2de02202adcacc7d403abc6c57319a94be7ed2dc6eb91bac1f03daaca94b74594aae140[ALL] 0370fafae4169e1e54d891addb1452516ec47d789f186951a7ad6e25d4e53a670f"}, "vout": 0, "txid": "ac72457753c4f79a4ed933f2f2e6f1ff7aa92ed879423e5558d1eb7aafce4d76"}], "txid": "4415bd32f6caf84276ef9ebf5c294b58c1c7b281fd832e2825177594f627e932", "blocktime": 1537872475, "version": 1, "confirmations": 11486, "time": 1537872475, "locktime": 0, "vsize": 224, "size": 224}