{"hash": "0078e4dee78282f14729754289a40ebbe754e03e0e6a3eba8db1dd2fb7f5e585", "blockhash": "00000000000000000018f53835495a110e01622372bf6ae95dc86f2b0ab887b0", "vout": [{"scriptPubKey": {"reqSigs": 1, "hex": "00142daa7e3e91b3661de8e2b6bd2e35795cfba9857c", "addresses": ["bc1q9k48u053kdnpm68zk67judtetna6nptu6ynm3d"], "asm": "0 2daa7e3e91b3661de8e2b6bd2e35795cfba9857c", "type": "witness_v0_keyhash"}, "value": 0.02636244, "n": 0}, {"scriptPubKey": {"reqSigs": 1, "hex": "76a914ed6e9a78f1fa35748c9d607d38ce105a9df9137e88ac", "addresses": ["1NeReKkegmvbjWsqdbj9R79Ti18vNdQrKs"], "asm": "OP_DUP OP_HASH160 ed6e9a78f1fa35748c9d607d38ce105a9df9137e OP_EQUALVERIFY OP_CHECKSIG", "type": "pubkeyhash"}, "value": 0.7290824, "n": 1}], "hex": "01000000000101b302e2e0dea65fabf786ceaf1f34ea7e877674f9a02d1b9fc232d391f51b62910000000017160014f749f4d9052576d5675401243186a94c4238d79effffffff02d4392800000000001600142daa7e3e91b3661de8e2b6bd2e35795cfba9857cd07d5804000000001976a914ed6e9a78f1fa35748c9d607d38ce105a9df9137e88ac02483045022100dccd89bdf0b50c9a5426201ada87b1c1b1bab9b97d4a2bc4deac7a2b96abfe4302206b5f0a4490fa07c8bb89835079d30c6788b4120b0f68c682d101835d8fc0ef460121038723904042504a5eac234226938290b8dadd44aa1f75e33914df155bc47241a500000000", "vin": [{"txinwitness": ["3045022100dccd89bdf0b50c9a5426201ada87b1c1b1bab9b97d4a2bc4deac7a2b96abfe4302206b5f0a4490fa07c8bb89835079d30c6788b4120b0f68c682d101835d8fc0ef4601", "038723904042504a5eac234226938290b8dadd44aa1f75e33914df155bc47241a5"], "sequence": 4294967295, "scriptSig": {"hex": "160014f749f4d9052576d5675401243186a94c4238d79e", "asm": "0014f749f4d9052576d5675401243186a94c4238d79e"}, "vout": 0, "txid": "91621bf591d332c29f1b2da0f97476877eea341fafce86f7ab5fa6dee0e202b3"}], "txid": "441c697a7111770f9dae6c5e2dbbfe216527659cf2ed1c17d601e3e09b45829c", "blocktime": 1537870928, "version": 1, "confirmations": 11514, "time": 1537870928, "locktime": 0, "vsize": 167, "size": 249}