{"hash": "441c630f766b430d441091c038f3d65cbc2db71b5f8a0f8a371a933f1b4ccd5e", "blockhash": "0000000000000000001f0ddff1eddb255c1121bcd4da4f1bc9a0da00cae72433", "vout": [{"scriptPubKey": {"reqSigs": 1, "hex": "76a91400c2fd35c30903c22ceb5d73ef113df9a9dc100f88ac", "addresses": ["1152b5f6zs2MjQCkeK1wR9752C3W3s8y5v"], "asm": "OP_DUP OP_HASH160 00c2fd35c30903c22ceb5d73ef113df9a9dc100f OP_EQUALVERIFY OP_CHECKSIG", "type": "pubkeyhash"}, "value": 0.00168856, "n": 0}, {"scriptPubKey": {"reqSigs": 1, "hex": "a914838f2bb3049d0c7944e526dd45d460fcce7b919987", "addresses": ["3DgdxM9aNdNGjvJfKWtfGZ98WiVxQt9PKV"], "asm": "OP_HASH160 838f2bb3049d0c7944e526dd45d460fcce7b9199 OP_EQUAL", "type": "scripthash"}, "value": 0.004, "n": 1}], "hex": "01000000030405c387b4bc10989522d6631adc8c677ed5561fa609efb3f81150732703586fb40400006b483045022100a535493aa40bc4717c05ef509d7bfe613fb9584afaf0caa6fdd091618599661802205fc17db217c2387c558ab21fa0af4df0019e0cd8eddfaa8c5c4fa014e91fa9ce01210215f970990086c6efb80d4adc3c84d8abaf1bce96106fc8c89abe92f5531ff9d4ffffffff3f75f52c07d497f8f83d15ab37111bd9b41ed134d92e13a474d0d566ba94f5c5110500006a47304402206ca6fdff83077298a2626e0d53f37cca1bb540804d057c1c333b0a0d2692dfeb022007f847463e78c5d7d67b62500e06114557c5946e1fa828b3a9d0f36ab6bf630e01210215f970990086c6efb80d4adc3c84d8abaf1bce96106fc8c89abe92f5531ff9d4ffffffff8f4790d061d7a7a1cb9fc8410167edafff3c93ac9201a049d18a2e99568c80eaf60400006b483045022100c999840fc30a3140f0777d5d2519b371ce177b9bfc2080fd0472613054daba7a02204262f98dfa87d1c0cf1882d83cd0948d787f0e70d96d0374d3540ae75b4f2f1101210215f970990086c6efb80d4adc3c84d8abaf1bce96106fc8c89abe92f5531ff9d4ffffffff0298930200000000001976a91400c2fd35c30903c22ceb5d73ef113df9a9dc100f88ac801a06000000000017a914838f2bb3049d0c7944e526dd45d460fcce7b91998700000000", "vin": [{"sequence": 4294967295, "scriptSig": {"hex": "483045022100a535493aa40bc4717c05ef509d7bfe613fb9584afaf0caa6fdd091618599661802205fc17db217c2387c558ab21fa0af4df0019e0cd8eddfaa8c5c4fa014e91fa9ce01210215f970990086c6efb80d4adc3c84d8abaf1bce96106fc8c89abe92f5531ff9d4", "asm": "3045022100a535493aa40bc4717c05ef509d7bfe613fb9584afaf0caa6fdd091618599661802205fc17db217c2387c558ab21fa0af4df0019e0cd8eddfaa8c5c4fa014e91fa9ce[ALL] 0215f970990086c6efb80d4adc3c84d8abaf1bce96106fc8c89abe92f5531ff9d4"}, "vout": 1204, "txid": "6f580327735011f8b3ef09a61f56d57e678cdc1a63d622959810bcb487c30504"}, {"sequence": 4294967295, "scriptSig": {"hex": "47304402206ca6fdff83077298a2626e0d53f37cca1bb540804d057c1c333b0a0d2692dfeb022007f847463e78c5d7d67b62500e06114557c5946e1fa828b3a9d0f36ab6bf630e01210215f970990086c6efb80d4adc3c84d8abaf1bce96106fc8c89abe92f5531ff9d4", "asm": "304402206ca6fdff83077298a2626e0d53f37cca1bb540804d057c1c333b0a0d2692dfeb022007f847463e78c5d7d67b62500e06114557c5946e1fa828b3a9d0f36ab6bf630e[ALL] 0215f970990086c6efb80d4adc3c84d8abaf1bce96106fc8c89abe92f5531ff9d4"}, "vout": 1297, "txid": "c5f594ba66d5d074a4132ed934d11eb4d91b1137ab153df8f897d4072cf5753f"}, {"sequence": 4294967295, "scriptSig": {"hex": "483045022100c999840fc30a3140f0777d5d2519b371ce177b9bfc2080fd0472613054daba7a02204262f98dfa87d1c0cf1882d83cd0948d787f0e70d96d0374d3540ae75b4f2f1101210215f970990086c6efb80d4adc3c84d8abaf1bce96106fc8c89abe92f5531ff9d4", "asm": "3045022100c999840fc30a3140f0777d5d2519b371ce177b9bfc2080fd0472613054daba7a02204262f98dfa87d1c0cf1882d83cd0948d787f0e70d96d0374d3540ae75b4f2f11[ALL] 0215f970990086c6efb80d4adc3c84d8abaf1bce96106fc8c89abe92f5531ff9d4"}, "vout": 1270, "txid": "ea808c56992e8ad149a00192ac933cffafed670141c89fcba1a7d761d090478f"}], "txid": "441c630f766b430d441091c038f3d65cbc2db71b5f8a0f8a371a933f1b4ccd5e", "blocktime": 1537872018, "version": 1, "confirmations": 11489, "time": 1537872018, "locktime": 0, "vsize": 519, "size": 519}