{"hash": "441cd0fe4704e41b831a7c7434552a1e729706df1b92b60bb895fd83fe5fb6ea", "blockhash": "0000000000000000001f0ddff1eddb255c1121bcd4da4f1bc9a0da00cae72433", "vout": [{"scriptPubKey": {"reqSigs": 1, "hex": "76a91488a287e46967bbf0553b720566c2d335372a8d6088ac", "addresses": ["1DTTbvssXRqfU2ZBDeVcGcGvctqy1YUVL1"], "asm": "OP_DUP OP_HASH160 88a287e46967bbf0553b720566c2d335372a8d60 OP_EQUALVERIFY OP_CHECKSIG", "type": "pubkeyhash"}, "value": 0.3179464, "n": 0}, {"scriptPubKey": {"reqSigs": 1, "hex": "76a914c9ef3a792fce8a5df5777731e2edddf5b83ac4cc88ac", "addresses": ["1KQjQSUzzKYSWr9zN9kyBhLk1kSWNivP7j"], "asm": "OP_DUP OP_HASH160 c9ef3a792fce8a5df5777731e2edddf5b83ac4cc OP_EQUALVERIFY OP_CHECKSIG", "type": "pubkeyhash"}, "value": 20.0, "n": 1}], "hex": "01000000041e812a42e53f5394456015d66d2d1daa401189846f3e620add49d20be1eda202010000006b483045022100f7fdb2664b1883efba33ef59195f9a286466018b4a34d12ae33aca7536ad00f302200f04c00c9f1c35ad3ebc087bd43c5763445b95ea5fca365ff71fa4329b2e40bc01210288c577201719fa6b9fe155cf266dc04ec0c266a07af17fe9726f8a156ed9b081ffffffff8304aace0ef6511535a50ddee73606079aac615092906fbee44d2ca18b4309e1000000006b483045022100df2d182aea8269a5580f558af23008bb186875f4a747000f9007b3ba2d430cdb022030943e57663d9233f9454099bfe497162e01f34050bcdb336f70d041512e0ba5012103c6b36e8bcd70ce152019d42d85201ad65a0c3405459324cd750198454c79d177ffffffff130d7477914f0ccbed63e2f8418f039250ef62809b220b06e8da1a4645a618e7000000006a473044022069a2ed1a6e707eb758be7307ea39be37c3daf399706553114ae5143aaa96c41e02201ed77318738e4520502255598674f761924bdfe0060ff3f05c5830d6873862dd0121034d544b8a1f092f100f4160a510f2dc69b0546fd204ae99345ecb6066169a308dffffffff9c2accc6a07466accfd94d725083799d3e5bcaa90fbc06fa691eb1b5b3ae99f3010000006b483045022100fbadcad70f15497681429cfd469b671c8f3171226e6102622cd40b1900b81d7502200a4d7e6e477f80416eee6d70ca180fc164e4de19af084068f709cb1fe2570508012103c6b36e8bcd70ce152019d42d85201ad65a0c3405459324cd750198454c79d177ffffffff02d025e501000000001976a91488a287e46967bbf0553b720566c2d335372a8d6088ac00943577000000001976a914c9ef3a792fce8a5df5777731e2edddf5b83ac4cc88ac00000000", "vin": [{"sequence": 4294967295, "scriptSig": {"hex": "483045022100f7fdb2664b1883efba33ef59195f9a286466018b4a34d12ae33aca7536ad00f302200f04c00c9f1c35ad3ebc087bd43c5763445b95ea5fca365ff71fa4329b2e40bc01210288c577201719fa6b9fe155cf266dc04ec0c266a07af17fe9726f8a156ed9b081", "asm": "3045022100f7fdb2664b1883efba33ef59195f9a286466018b4a34d12ae33aca7536ad00f302200f04c00c9f1c35ad3ebc087bd43c5763445b95ea5fca365ff71fa4329b2e40bc[ALL] 0288c577201719fa6b9fe155cf266dc04ec0c266a07af17fe9726f8a156ed9b081"}, "vout": 1, "txid": "02a2ede10bd249dd0a623e6f84891140aa1d2d6dd615604594533fe5422a811e"}, {"sequence": 4294967295, "scriptSig": {"hex": "483045022100df2d182aea8269a5580f558af23008bb186875f4a747000f9007b3ba2d430cdb022030943e57663d9233f9454099bfe497162e01f34050bcdb336f70d041512e0ba5012103c6b36e8bcd70ce152019d42d85201ad65a0c3405459324cd750198454c79d177", "asm": "3045022100df2d182aea8269a5580f558af23008bb186875f4a747000f9007b3ba2d430cdb022030943e57663d9233f9454099bfe497162e01f34050bcdb336f70d041512e0ba5[ALL] 03c6b36e8bcd70ce152019d42d85201ad65a0c3405459324cd750198454c79d177"}, "vout": 0, "txid": "e109438ba12c4de4be6f90925061ac9a070636e7de0da5351551f60eceaa0483"}, {"sequence": 4294967295, "scriptSig": {"hex": "473044022069a2ed1a6e707eb758be7307ea39be37c3daf399706553114ae5143aaa96c41e02201ed77318738e4520502255598674f761924bdfe0060ff3f05c5830d6873862dd0121034d544b8a1f092f100f4160a510f2dc69b0546fd204ae99345ecb6066169a308d", "asm": "3044022069a2ed1a6e707eb758be7307ea39be37c3daf399706553114ae5143aaa96c41e02201ed77318738e4520502255598674f761924bdfe0060ff3f05c5830d6873862dd[ALL] 034d544b8a1f092f100f4160a510f2dc69b0546fd204ae99345ecb6066169a308d"}, "vout": 0, "txid": "e718a645461adae8060b229b8062ef5092038f41f8e263edcb0c4f9177740d13"}, {"sequence": 4294967295, "scriptSig": {"hex": "483045022100fbadcad70f15497681429cfd469b671c8f3171226e6102622cd40b1900b81d7502200a4d7e6e477f80416eee6d70ca180fc164e4de19af084068f709cb1fe2570508012103c6b36e8bcd70ce152019d42d85201ad65a0c3405459324cd750198454c79d177", "asm": "3045022100fbadcad70f15497681429cfd469b671c8f3171226e6102622cd40b1900b81d7502200a4d7e6e477f80416eee6d70ca180fc164e4de19af084068f709cb1fe2570508[ALL] 03c6b36e8bcd70ce152019d42d85201ad65a0c3405459324cd750198454c79d177"}, "vout": 1, "txid": "f399aeb3b5b11e69fa06bc0fa9ca5b3e9d798350724dd9cfac6674a0c6cc2a9c"}], "txid": "441cd0fe4704e41b831a7c7434552a1e729706df1b92b60bb895fd83fe5fb6ea", "blocktime": 1537872018, "version": 1, "confirmations": 11489, "time": 1537872018, "locktime": 0, "vsize": 669, "size": 669}