{"hash": "441d8dbd8bd5edb8d5e8971109f88b27a55920376d2b2c1785c7dbb8055cc7b8", "blockhash": "0000000000000000000dcc0f55137456b1a82d3642486a52398922ac4d620174", "vout": [{"scriptPubKey": {"reqSigs": 1, "hex": "76a914b8907b72d5c10abb2ccd7287277f4e223f90818b88ac", "addresses": ["1HptR6f1AB9oMR4MynmuUXTVT1pL6ipUGG"], "asm": "OP_DUP OP_HASH160 b8907b72d5c10abb2ccd7287277f4e223f90818b OP_EQUALVERIFY OP_CHECKSIG", "type": "pubkeyhash"}, "value": 5.46e-06, "n": 0}, {"scriptPubKey": {"type": "nulldata", "hex": "6a146f6d6e69000000000000001f0000002788de6200", "asm": "OP_RETURN 6f6d6e69000000000000001f0000002788de6200"}, "value": 0.0, "n": 1}, {"scriptPubKey": {"reqSigs": 1, "hex": "76a91461743d3b5889cc99c3e094f5d5a61ca855448fce88ac", "addresses": ["19tHo3mvvUG59qpoTv7zErZF3S5bQDXmfW"], "asm": "OP_DUP OP_HASH160 61743d3b5889cc99c3e094f5d5a61ca855448fce OP_EQUALVERIFY OP_CHECKSIG", "type": "pubkeyhash"}, "value": 0.09213443, "n": 2}], "hex": "0100000001766dc22852b46979f023f8da65f89ba73c9a11ee7fd466f55012e15d12bbb5db020000006b483045022100b161943161a1ef79fefdea46d9ccddba8af8693a62584a16f9eaa69f24ef82c902206e707ff769f7d046b0ae81c296ef3c8367194cf63498a15a00589fbc98f38fa101210362e51b0d90f49cc2f02729ab55b827ac1c6811a8174fc1ecfd6aeea08a71249bffffffff0322020000000000001976a914b8907b72d5c10abb2ccd7287277f4e223f90818b88ac0000000000000000166a146f6d6e69000000000000001f0000002788de620003968c00000000001976a91461743d3b5889cc99c3e094f5d5a61ca855448fce88ac00000000", "vin": [{"sequence": 4294967295, "scriptSig": {"hex": "483045022100b161943161a1ef79fefdea46d9ccddba8af8693a62584a16f9eaa69f24ef82c902206e707ff769f7d046b0ae81c296ef3c8367194cf63498a15a00589fbc98f38fa101210362e51b0d90f49cc2f02729ab55b827ac1c6811a8174fc1ecfd6aeea08a71249b", "asm": "3045022100b161943161a1ef79fefdea46d9ccddba8af8693a62584a16f9eaa69f24ef82c902206e707ff769f7d046b0ae81c296ef3c8367194cf63498a15a00589fbc98f38fa1[ALL] 0362e51b0d90f49cc2f02729ab55b827ac1c6811a8174fc1ecfd6aeea08a71249b"}, "vout": 2, "txid": "dbb5bb125de11250f566d47fee119a3ca79bf865daf823f07969b45228c26d76"}], "txid": "441d8dbd8bd5edb8d5e8971109f88b27a55920376d2b2c1785c7dbb8055cc7b8", "blocktime": 1537870268, "version": 1, "confirmations": 11518, "time": 1537870268, "locktime": 0, "vsize": 257, "size": 257}