{"hash": "44229543b2cc21d7bb21a6304f62af6bf389e29ce57073cda47ed73f8493a72b", "blockhash": "0000000000000000001cda96e906b7601b7a6fb1a3b62bca570a9e5d8f4b3de1", "vout": [{"scriptPubKey": {"reqSigs": 1, "hex": "76a914021aa4526ef550bc382ea15d428042dfb46261ad88ac", "addresses": ["1C8GVfG9NJAvNFZEEMqHNAfATpfRrenyJ"], "asm": "OP_DUP OP_HASH160 021aa4526ef550bc382ea15d428042dfb46261ad OP_EQUALVERIFY OP_CHECKSIG", "type": "pubkeyhash"}, "value": 0.01548405, "n": 0}], "hex": "010000000117b34a99df15be497b3f2d099a83f4605ca2dd27e3c15bd34b227e0c241cb6fc000000006b4830450221008d2fad4abcf04dc82fbf757dd36da85f1935654006e9a79424f0b5576201586702200d39490ecdcb264bde8766eddf46157c8ce41d840a01ad9af30f7d09684d33f0012103cafbb35fb81943f6b7b13ebecc28c3fab5a2150d969af1bef4c0e04199740b59ffffffff0175a01700000000001976a914021aa4526ef550bc382ea15d428042dfb46261ad88ac00000000", "vin": [{"sequence": 4294967295, "scriptSig": {"hex": "4830450221008d2fad4abcf04dc82fbf757dd36da85f1935654006e9a79424f0b5576201586702200d39490ecdcb264bde8766eddf46157c8ce41d840a01ad9af30f7d09684d33f0012103cafbb35fb81943f6b7b13ebecc28c3fab5a2150d969af1bef4c0e04199740b59", "asm": "30450221008d2fad4abcf04dc82fbf757dd36da85f1935654006e9a79424f0b5576201586702200d39490ecdcb264bde8766eddf46157c8ce41d840a01ad9af30f7d09684d33f0[ALL] 03cafbb35fb81943f6b7b13ebecc28c3fab5a2150d969af1bef4c0e04199740b59"}, "vout": 0, "txid": "fcb61c240c7e224bd35bc1e327dda25c60f4839a092d3f7b49be15df994ab317"}], "txid": "44229543b2cc21d7bb21a6304f62af6bf389e29ce57073cda47ed73f8493a72b", "blocktime": 1537873282, "version": 1, "confirmations": 11480, "time": 1537873282, "locktime": 0, "vsize": 192, "size": 192}