{"hash": "7a3f1047c9e73c78725616a5eac1d711f077f045f0dc96d31f3ad01c2549effd", "blockhash": "00000000000000000017f5eb5941039fbcee6240d03bc1f2f8e35350df66a1d8", "vout": [{"scriptPubKey": {"reqSigs": 1, "hex": "76a914ff21677590bd2db590d93d3763b7b58700c599b588ac", "addresses": ["1QG1KsrzfBH8kkXZQeH2tM57EauBnGEUyu"], "asm": "OP_DUP OP_HASH160 ff21677590bd2db590d93d3763b7b58700c599b5 OP_EQUALVERIFY OP_CHECKSIG", "type": "pubkeyhash"}, "value": 0.0108, "n": 0}, {"scriptPubKey": {"reqSigs": 1, "hex": "a9140cc48cbff5ee620eac03601dd11c376286e5013687", "addresses": ["32rXVN9sL3otLhLMAC1QFV8Bcy8xKjCEjP"], "asm": "OP_HASH160 0cc48cbff5ee620eac03601dd11c376286e50136 OP_EQUAL", "type": "scripthash"}, "value": 0.18418365, "n": 1}], "hex": "010000000001029790827d43a3d10368a0457a3a7076b31ab82be71c5015ab9423a3d1a7e9d5bc0000000023220020128c01a087dcbbecec82a3c3df31a6ef6ed757a0c2fa6b81188ab0fd0eb6e797fffffffffe959e81cbf2e7d4d9f781eb2a32f5191764c21f527e626607d1c90d158b83a20100000023220020f33b102f4c41be41857bb8a68dd58495516dd99bd977968df14370fd2cce3e7dffffffff02c07a1000000000001976a914ff21677590bd2db590d93d3763b7b58700c599b588acbd0a19010000000017a9140cc48cbff5ee620eac03601dd11c376286e501368704004730440220088e42ee411833d21253bc73eb3c85f3b39af75a82527ee177ecfb9e050b98b902207042b25ceee02171ce260d43da36c5073621c3ee08d25a83373302a78d9dee050147304402205f26ea49d751504ba5b463a07213d8ce2e9b979f953a6e3e690283f5c79f5dfd0220183bd53e47aeb849c8e528acafec37ae7dad9f0901429e5512878c8f30a4e9cc0147522102c6ba0459a054b89ea72b94800710e518f5e4f190dd97d36c5a481d982c038daa21038f2c7ecee34c843be9d886e50ce79e5dc40a1694c0417d60b35340f292ff73fc52ae0400483045022100935c01379759de548a6b870376dec301a532e47e1ea6a960fc005d99c10c8e140220283f7c7bdad041222ae845666d49dbef42039395ab6c827610159216937af59601483045022100c1f65c9ed32d8700d9f760d8448a13920f4eb37c77361ff5d217eda10dbc5106022076b41110e24e65ac412d822bd4cf97b3dd56a82a80f9ffa75c895c37503df92701475221020317b3881331ddbf65ba5447815f37e20d60672a2ed00b658dd144daf82641b821038f2c7ecee34c843be9d886e50ce79e5dc40a1694c0417d60b35340f292ff73fc52ae00000000", "vin": [{"txinwitness": ["", "30440220088e42ee411833d21253bc73eb3c85f3b39af75a82527ee177ecfb9e050b98b902207042b25ceee02171ce260d43da36c5073621c3ee08d25a83373302a78d9dee0501", "304402205f26ea49d751504ba5b463a07213d8ce2e9b979f953a6e3e690283f5c79f5dfd0220183bd53e47aeb849c8e528acafec37ae7dad9f0901429e5512878c8f30a4e9cc01", "522102c6ba0459a054b89ea72b94800710e518f5e4f190dd97d36c5a481d982c038daa21038f2c7ecee34c843be9d886e50ce79e5dc40a1694c0417d60b35340f292ff73fc52ae"], "sequence": 4294967295, "scriptSig": {"hex": "220020128c01a087dcbbecec82a3c3df31a6ef6ed757a0c2fa6b81188ab0fd0eb6e797", "asm": "0020128c01a087dcbbecec82a3c3df31a6ef6ed757a0c2fa6b81188ab0fd0eb6e797"}, "vout": 0, "txid": "bcd5e9a7d1a32394ab15501ce72bb81ab376703a7a45a06803d1a3437d829097"}, {"txinwitness": ["", "3045022100935c01379759de548a6b870376dec301a532e47e1ea6a960fc005d99c10c8e140220283f7c7bdad041222ae845666d49dbef42039395ab6c827610159216937af59601", "3045022100c1f65c9ed32d8700d9f760d8448a13920f4eb37c77361ff5d217eda10dbc5106022076b41110e24e65ac412d822bd4cf97b3dd56a82a80f9ffa75c895c37503df92701", "5221020317b3881331ddbf65ba5447815f37e20d60672a2ed00b658dd144daf82641b821038f2c7ecee34c843be9d886e50ce79e5dc40a1694c0417d60b35340f292ff73fc52ae"], "sequence": 4294967295, "scriptSig": {"hex": "220020f33b102f4c41be41857bb8a68dd58495516dd99bd977968df14370fd2cce3e7d", "asm": "0020f33b102f4c41be41857bb8a68dd58495516dd99bd977968df14370fd2cce3e7d"}, "vout": 1, "txid": "a2838b150dc9d10766627e521fc2641719f5322aeb81f7d9d4e7f2cb819e95fe"}], "txid": "4427efd05889889b3fc7b77dfb89e6a814b54080c5389a7fae4387c36c05a3b4", "blocktime": 1537874412, "version": 1, "confirmations": 11468, "time": 1537874412, "locktime": 0, "vsize": 338, "size": 668}