{"hash": "2b2a2fbc647fc130ea045e1d43d811ddab0187dc32ad122f4b2d096bba52e99e", "blockhash": "0000000000000000001cda96e906b7601b7a6fb1a3b62bca570a9e5d8f4b3de1", "vout": [{"scriptPubKey": {"reqSigs": 1, "hex": "a9141e82c914002c1ccd9313ea249d29f1304521a09387", "addresses": ["34ULsRzwsWpZq52hpQPti1yTvniFNavkQq"], "asm": "OP_HASH160 1e82c914002c1ccd9313ea249d29f1304521a093 OP_EQUAL", "type": "scripthash"}, "value": 0.01105227, "n": 0}], "hex": "020000000001045b854db59ca707975119f16c8ddb4accaec8064000a29ab372a8dce9a8f324093a00000017160014aed14491342a60afc47a7526c7835a3967e2d188ffffffff9229c98478c0f94933a6117b647c2765338f9f97e71423050a3024d37286b2a133000000171600143d005c10a5934ee7fe67852964cf0db8e9cde170ffffffffc8deca19e9761b47203b3362ad6b2157314154fa78536d52d2899451da05aab4360000006a47304402201fc45c814f05f44b77751f8526d4db899db240c304dc28e41a077bd1d3efd257022020be552abc5960d43a80cc5f51abe4dc67cb66ef30efbc06c1f783acc78cc1480121033d0f28dd771da5274df9f2554f04891dfff537a42633bb45f922d41e123045fcfffffffffa1b619801aab71aee9c8ed84f5bdd429c396b0560a221a33bb5cadeb131a2511600000017160014ef35ec21860d787b9a3b9ba83effc84482932c42ffffffff014bdd10000000000017a9141e82c914002c1ccd9313ea249d29f1304521a0938702483045022100dbb66cddeba261429e7440352e50bc46b51f5c225ba3c303be343fcc48c83776022001b2ee7283e7b439d101c9dc7529e3d40c1be81cdfd399423ad3679d84abaf63012102eb174240bcf105f9e10d9a6d0cd5a4115c0696a2e22e7a4360ebee357ea8d71702483045022100d952a58fbd0ef02cfd200791e2acab266728094e8e84bcf39b588209cb23a7ee0220062d9b96b590a16faa7d45b55d33ef749d766b39fd76cf1ea05aa373bf0d29b201210345e67e30a268b657ea6d49276d19dae235d44096838c27b730e3c77399132ac90002483045022100a8abb3b03d63dbd4e03761a84c535ce12fbb2bf79e105edcdaf86c81db656bf1022029d364d90224df9ac48d482b9b1fa9411fee4626272a0d91be9948968bc6e28e012102a702f8ed301f8892fe88a20bca446a15b05dd901be7fae064074ac1379bb5e6a00000000", "vin": [{"txinwitness": ["3045022100dbb66cddeba261429e7440352e50bc46b51f5c225ba3c303be343fcc48c83776022001b2ee7283e7b439d101c9dc7529e3d40c1be81cdfd399423ad3679d84abaf6301", "02eb174240bcf105f9e10d9a6d0cd5a4115c0696a2e22e7a4360ebee357ea8d717"], "sequence": 4294967295, "scriptSig": {"hex": "160014aed14491342a60afc47a7526c7835a3967e2d188", "asm": "0014aed14491342a60afc47a7526c7835a3967e2d188"}, "vout": 58, "txid": "0924f3a8e9dca872b39aa2004006c8aecc4adb8d6cf119519707a79cb54d855b"}, {"txinwitness": ["3045022100d952a58fbd0ef02cfd200791e2acab266728094e8e84bcf39b588209cb23a7ee0220062d9b96b590a16faa7d45b55d33ef749d766b39fd76cf1ea05aa373bf0d29b201", "0345e67e30a268b657ea6d49276d19dae235d44096838c27b730e3c77399132ac9"], "sequence": 4294967295, "scriptSig": {"hex": "1600143d005c10a5934ee7fe67852964cf0db8e9cde170", "asm": "00143d005c10a5934ee7fe67852964cf0db8e9cde170"}, "vout": 51, "txid": "a1b28672d324300a052314e7979f8f3365277c647b11a63349f9c07884c92992"}, {"sequence": 4294967295, "scriptSig": {"hex": "47304402201fc45c814f05f44b77751f8526d4db899db240c304dc28e41a077bd1d3efd257022020be552abc5960d43a80cc5f51abe4dc67cb66ef30efbc06c1f783acc78cc1480121033d0f28dd771da5274df9f2554f04891dfff537a42633bb45f922d41e123045fc", "asm": "304402201fc45c814f05f44b77751f8526d4db899db240c304dc28e41a077bd1d3efd257022020be552abc5960d43a80cc5f51abe4dc67cb66ef30efbc06c1f783acc78cc148[ALL] 033d0f28dd771da5274df9f2554f04891dfff537a42633bb45f922d41e123045fc"}, "vout": 54, "txid": "b4aa05da519489d2526d5378fa54413157216bad62333b20471b76e919cadec8"}, {"txinwitness": ["3045022100a8abb3b03d63dbd4e03761a84c535ce12fbb2bf79e105edcdaf86c81db656bf1022029d364d90224df9ac48d482b9b1fa9411fee4626272a0d91be9948968bc6e28e01", "02a702f8ed301f8892fe88a20bca446a15b05dd901be7fae064074ac1379bb5e6a"], "sequence": 4294967295, "scriptSig": {"hex": "160014ef35ec21860d787b9a3b9ba83effc84482932c42", "asm": "0014ef35ec21860d787b9a3b9ba83effc84482932c42"}, "vout": 22, "txid": "51a231b1decab53ba321a260056b399c42dd5b4fd88e9cee1ab7aa0198611bfa"}], "txid": "442ce716238167acca602ffcb122c9c3b7f3051a8dc75813eaf5abd38c7a8c7d", "blocktime": 1537873282, "version": 2, "confirmations": 11485, "time": 1537873282, "locktime": 0, "vsize": 463, "size": 708}