{"hash": "2a2932825a01c8ebff217cfc60c58daa84a4799137d7945eaabcf28e965b3fb6", "blockhash": "0000000000000000000dcc0f55137456b1a82d3642486a52398922ac4d620174", "vout": [{"scriptPubKey": {"reqSigs": 1, "hex": "76a914126a8bd41dbe634bf7cd1342045f96c512ae0fea88ac", "addresses": ["12gNoQxbwbveVm71M3QJViCVnkzikr8FWX"], "asm": "OP_DUP OP_HASH160 126a8bd41dbe634bf7cd1342045f96c512ae0fea OP_EQUALVERIFY OP_CHECKSIG", "type": "pubkeyhash"}, "value": 0.0004952, "n": 0}, {"scriptPubKey": {"reqSigs": 1, "hex": "a9140be7846be16b05bea00dbec2fcd7e045a793cb1787", "addresses": ["32mxhko5mJHfkbkDPpz7SfdJwEJi21P1WK"], "asm": "OP_HASH160 0be7846be16b05bea00dbec2fcd7e045a793cb17 OP_EQUAL", "type": "scripthash"}, "value": 0.20349254, "n": 1}], "hex": "01000000000101e4359e1560e7b0e3c633599f24ee71d7be484e0bded54428ce9724b5f3adf3e401000000232200202c66ece6da72bcbfeadf83a91236f4891c13e14d8ecebdcaa81666fc1aa73a31ffffffff0270c10000000000001976a914126a8bd41dbe634bf7cd1342045f96c512ae0fea88ac468136010000000017a9140be7846be16b05bea00dbec2fcd7e045a793cb17870400483045022100cc9750eb156bfde8a6b8538e4b26791419e1a50855f7862c637028c083b6ff79022049acf0b6d4b66bd9be70eb37aa8abb3685d5dffcfce885db39f8f121c0d60231014730440220389ed379518f635c164c0e917415ef1de6d144bc635a6842d026c27d76d5cbe7022057b90a576c3642199ae8f53623517501c6bcd64121aa86993bb76eb66b722a3001475221029e6fbb942d34a473faaa5557c1bfe08d72102f0b9754ad140fd369d7a3ba3cdc2103871fc2ca08e6950b38867e8e6a0e94ee625223d3aa0df5c65f414c6d784467e252ae00000000", "vin": [{"txinwitness": ["", "3045022100cc9750eb156bfde8a6b8538e4b26791419e1a50855f7862c637028c083b6ff79022049acf0b6d4b66bd9be70eb37aa8abb3685d5dffcfce885db39f8f121c0d6023101", "30440220389ed379518f635c164c0e917415ef1de6d144bc635a6842d026c27d76d5cbe7022057b90a576c3642199ae8f53623517501c6bcd64121aa86993bb76eb66b722a3001", "5221029e6fbb942d34a473faaa5557c1bfe08d72102f0b9754ad140fd369d7a3ba3cdc2103871fc2ca08e6950b38867e8e6a0e94ee625223d3aa0df5c65f414c6d784467e252ae"], "sequence": 4294967295, "scriptSig": {"hex": "2200202c66ece6da72bcbfeadf83a91236f4891c13e14d8ecebdcaa81666fc1aa73a31", "asm": "00202c66ece6da72bcbfeadf83a91236f4891c13e14d8ecebdcaa81666fc1aa73a31"}, "vout": 1, "txid": "e4f3adf3b52497ce2844d5de0b4e48bed771ee249f5933c6e3b0e760159e35e4"}], "txid": "44306ea970eac74ba1e62b7875c3d4fc361a24bd238b1320ece82ecf919c506a", "blocktime": 1537870268, "version": 1, "confirmations": 11518, "time": 1537870268, "locktime": 0, "vsize": 208, "size": 373}