{"hash": "44336320e2580bc24809760649c358cceba945b69043841948d4e29b6dfdedeb", "blockhash": "0000000000000000000e13cef7c366c0283d82e591d1acd082e914b08063cdf1", "vout": [{"scriptPubKey": {"type": "nulldata", "hex": "6a146f6d6e69000000000000001f000000037e11d600", "asm": "OP_RETURN 6f6d6e69000000000000001f000000037e11d600"}, "value": 0.0, "n": 0}, {"scriptPubKey": {"reqSigs": 1, "hex": "76a914f3686a52f920b313b611848d23ef23ec1e177d0188ac", "addresses": ["1PC2HX6whC7CRcDndwXwDr1JVJMZExPUib"], "asm": "OP_DUP OP_HASH160 f3686a52f920b313b611848d23ef23ec1e177d01 OP_EQUALVERIFY OP_CHECKSIG", "type": "pubkeyhash"}, "value": 0.00497473, "n": 1}, {"scriptPubKey": {"reqSigs": 1, "hex": "76a914a25dec4d0011064ef106a983c39c7a540699f22088ac", "addresses": ["1FoWyxwPXuj4C6abqwhjDWdz6D4PZgYRjA"], "asm": "OP_DUP OP_HASH160 a25dec4d0011064ef106a983c39c7a540699f220 OP_EQUALVERIFY OP_CHECKSIG", "type": "pubkeyhash"}, "value": 5.46e-06, "n": 2}], "hex": "0100000002be0044fcfdac4ff96cd48872c757302a0aab17efcdeec06b4f562c7e60893ea0010000006a473044022045d696868aa2f74345aad0b1229a122ecb38040f9790ab5055fba2244bdb763102202d77232394652277d2b1c9e028c5ff2a3fc833ac2b4b88f59b0b84128fa8f6e401210374f3f40ca90b8da08acdbc8364b70d21a0d46dc7d09ab049a202f9206fdabde4feffffff97d3e8134c23e095cb6f87f5c5776b6f7d5238b0cf515e0cf72afe3c725c308b000000006b483045022100e2f271c1555582dae1cc0c3a11a7a10c4031b253dc4bba8a3f1504754c222b7c02200c07106bb7e6c0fe75ea692fc07edc5b21927fb6a60c8c18991500e8271bbfe501210374f3f40ca90b8da08acdbc8364b70d21a0d46dc7d09ab049a202f9206fdabde4feffffff030000000000000000166a146f6d6e69000000000000001f000000037e11d60041970700000000001976a914f3686a52f920b313b611848d23ef23ec1e177d0188ac22020000000000001976a914a25dec4d0011064ef106a983c39c7a540699f22088ac10490800", "vin": [{"sequence": 4294967294, "scriptSig": {"hex": "473044022045d696868aa2f74345aad0b1229a122ecb38040f9790ab5055fba2244bdb763102202d77232394652277d2b1c9e028c5ff2a3fc833ac2b4b88f59b0b84128fa8f6e401210374f3f40ca90b8da08acdbc8364b70d21a0d46dc7d09ab049a202f9206fdabde4", "asm": "3044022045d696868aa2f74345aad0b1229a122ecb38040f9790ab5055fba2244bdb763102202d77232394652277d2b1c9e028c5ff2a3fc833ac2b4b88f59b0b84128fa8f6e4[ALL] 0374f3f40ca90b8da08acdbc8364b70d21a0d46dc7d09ab049a202f9206fdabde4"}, "vout": 1, "txid": "a03e89607e2c564f6bc0eecdef17ab0a2a3057c77288d46cf94facfdfc4400be"}, {"sequence": 4294967294, "scriptSig": {"hex": "483045022100e2f271c1555582dae1cc0c3a11a7a10c4031b253dc4bba8a3f1504754c222b7c02200c07106bb7e6c0fe75ea692fc07edc5b21927fb6a60c8c18991500e8271bbfe501210374f3f40ca90b8da08acdbc8364b70d21a0d46dc7d09ab049a202f9206fdabde4", "asm": "3045022100e2f271c1555582dae1cc0c3a11a7a10c4031b253dc4bba8a3f1504754c222b7c02200c07106bb7e6c0fe75ea692fc07edc5b21927fb6a60c8c18991500e8271bbfe5[ALL] 0374f3f40ca90b8da08acdbc8364b70d21a0d46dc7d09ab049a202f9206fdabde4"}, "vout": 0, "txid": "8b305c723cfe2af70c5e51cfb038527d6f6b77c5f5876fcb95e0234c13e8d397"}], "txid": "44336320e2580bc24809760649c358cceba945b69043841948d4e29b6dfdedeb", "blocktime": 1537871767, "version": 1, "confirmations": 11495, "time": 1537871767, "locktime": 542992, "vsize": 404, "size": 404}