{"hash": "77841e25aaa06544248db5d061916886457347677187cce7e23e289840cc6691", "blockhash": "0000000000000000000e13cef7c366c0283d82e591d1acd082e914b08063cdf1", "vout": [{"scriptPubKey": {"reqSigs": 1, "hex": "76a9148fe4c35e0439904bc70e904f961b777bc8d47e4888ac", "addresses": ["1E7qgB7LPx2n9NnBoYJoniq1LzMjmwvsP8"], "asm": "OP_DUP OP_HASH160 8fe4c35e0439904bc70e904f961b777bc8d47e48 OP_EQUALVERIFY OP_CHECKSIG", "type": "pubkeyhash"}, "value": 0.066, "n": 0}, {"scriptPubKey": {"reqSigs": 1, "hex": "a91496cee5ca86939dd8696a7a609354cc049d16534487", "addresses": ["3FSR8pLv1mJtyFaj6uYBH4S4c6GjgCV3Mi"], "asm": "OP_HASH160 96cee5ca86939dd8696a7a609354cc049d165344 OP_EQUAL", "type": "scripthash"}, "value": 1.60286483, "n": 1}], "hex": "0200000000010164d456ccc2bdc53f7dd081f506f5cac0ec5750bf4982e46144ec90d2bb84bded0000000017160014c3fea9912ab11c5007ae7e4e7af754432258ca94ffffffff0240b56400000000001976a9148fe4c35e0439904bc70e904f961b777bc8d47e4888ac13c78d090000000017a91496cee5ca86939dd8696a7a609354cc049d1653448702473044022023b49125f6d2ecf3499ef09335e819a4fe95ce95ce4aca06ce120b8f0418c04502201e5bda86e113bf29efbbdede6ab8d791797eb724ddd7c9aa2af5ee0f190c4c4e0121038f448ceda4fcd1143f52680b75afc18f2bff491eaf1b39e5c971b37581f2c6b000000000", "vin": [{"txinwitness": ["3044022023b49125f6d2ecf3499ef09335e819a4fe95ce95ce4aca06ce120b8f0418c04502201e5bda86e113bf29efbbdede6ab8d791797eb724ddd7c9aa2af5ee0f190c4c4e01", "038f448ceda4fcd1143f52680b75afc18f2bff491eaf1b39e5c971b37581f2c6b0"], "sequence": 4294967295, "scriptSig": {"hex": "160014c3fea9912ab11c5007ae7e4e7af754432258ca94", "asm": "0014c3fea9912ab11c5007ae7e4e7af754432258ca94"}, "vout": 0, "txid": "edbd84bbd290ec4461e48249bf5057ecc0caf506f581d07d3fc5bdc2cc56d464"}], "txid": "443521abee746cd7a032fb07be4c103bd1137be22403c958f359648961b1c539", "blocktime": 1537871767, "version": 2, "confirmations": 11493, "time": 1537871767, "locktime": 0, "vsize": 168, "size": 249}