{"hash": "4436e69edcac9711ffb651a6a4b9b54a3edd276f3f06dcef1ebad0f3f05550e7", "blockhash": "0000000000000000001cda96e906b7601b7a6fb1a3b62bca570a9e5d8f4b3de1", "vout": [{"scriptPubKey": {"reqSigs": 1, "hex": "76a9147df9b40c5815ecee0c2503cf5d0175ecf3f9001888ac", "addresses": ["1CV6bfp74HTqLGE6etz5Sxn8FKV2Yo2H5x"], "asm": "OP_DUP OP_HASH160 7df9b40c5815ecee0c2503cf5d0175ecf3f90018 OP_EQUALVERIFY OP_CHECKSIG", "type": "pubkeyhash"}, "value": 0.0018885, "n": 0}, {"scriptPubKey": {"type": "nulldata", "hex": "6a4c50000077d100018db13301a1b9b350ec67fd425b23cc0f42c2fc38c5e5bf9ae76da98a211a3cc616770e89ddbb7fc9a7f4c6f763565baa14480613be1a3ec7129ec288b2720c27cdda35b5f050e1b42260", "asm": "OP_RETURN 000077d100018db13301a1b9b350ec67fd425b23cc0f42c2fc38c5e5bf9ae76da98a211a3cc616770e89ddbb7fc9a7f4c6f763565baa14480613be1a3ec7129ec288b2720c27cdda35b5f050e1b42260"}, "value": 0.0, "n": 1}], "hex": "010000000117ee1c4e5d1b12541a33dd63fb13f25173b7a9119f9d61a9ff7a0b942441eaa0000000006b483045022100fc5d5c41a7eae768ddd57f164570c0c8185fe078c68ab7b29fcc928b924637c8022020e16cd7100389dc44338bccefe638af01b3ee218a7027ec898e54482b0556070121038398911c65a23b949786f61cc6fdc3e4320df9df56c87541219a8ac3959ac345ffffffff02b2e10200000000001976a9147df9b40c5815ecee0c2503cf5d0175ecf3f9001888ac0000000000000000536a4c50000077d100018db13301a1b9b350ec67fd425b23cc0f42c2fc38c5e5bf9ae76da98a211a3cc616770e89ddbb7fc9a7f4c6f763565baa14480613be1a3ec7129ec288b2720c27cdda35b5f050e1b4226000000000", "vin": [{"sequence": 4294967295, "scriptSig": {"hex": "483045022100fc5d5c41a7eae768ddd57f164570c0c8185fe078c68ab7b29fcc928b924637c8022020e16cd7100389dc44338bccefe638af01b3ee218a7027ec898e54482b0556070121038398911c65a23b949786f61cc6fdc3e4320df9df56c87541219a8ac3959ac345", "asm": "3045022100fc5d5c41a7eae768ddd57f164570c0c8185fe078c68ab7b29fcc928b924637c8022020e16cd7100389dc44338bccefe638af01b3ee218a7027ec898e54482b055607[ALL] 038398911c65a23b949786f61cc6fdc3e4320df9df56c87541219a8ac3959ac345"}, "vout": 0, "txid": "a0ea4124940b7affa9619d9f11a9b77351f213fb63dd331a54121b5d4e1cee17"}], "txid": "4436e69edcac9711ffb651a6a4b9b54a3edd276f3f06dcef1ebad0f3f05550e7", "blocktime": 1537873282, "version": 1, "confirmations": 11483, "time": 1537873282, "locktime": 0, "vsize": 284, "size": 284}