{"hash": "f1be64112bae7703560308806bfcd5f31edf29e283b414c7065218ca8c0f6a24", "blockhash": "0000000000000000000baef3f32e3676a92c3b2e5da21b426e4f302fc371ce76", "vout": [{"scriptPubKey": {"reqSigs": 1, "hex": "a914d0a5526e0cabaff7cd00ab180ad51efb1dd4851587", "addresses": ["3LiEXDb5N46RXbCDx5gajzSDQGVdHDdPEr"], "asm": "OP_HASH160 d0a5526e0cabaff7cd00ab180ad51efb1dd48515 OP_EQUAL", "type": "scripthash"}, "value": 0.23181761, "n": 0}, {"scriptPubKey": {"reqSigs": 1, "hex": "76a914c0bdd86c7585e243dc0a1490e997bf3643dddf2d88ac", "addresses": ["1Ja8AXF5JCerZBAv9K6Nj4s6UtM4eqJ2Db"], "asm": "OP_DUP OP_HASH160 c0bdd86c7585e243dc0a1490e997bf3643dddf2d OP_EQUALVERIFY OP_CHECKSIG", "type": "pubkeyhash"}, "value": 0.14674066, "n": 1}], "hex": "02000000000101202aed5bb2e9f04d7ab0a087270cbc4d4d4a56ed8b1dc95e07469cc8324a6b2a010000001716001454003c0ee5e0dcac49ae0df14b88d2d9a5207ca4feffffff02c1b961010000000017a914d0a5526e0cabaff7cd00ab180ad51efb1dd485158792e8df00000000001976a914c0bdd86c7585e243dc0a1490e997bf3643dddf2d88ac0247304402201d1aeb3b94b0eec1c8bcfca68159db63d58febdde899dd026aa39cc59f6673a6022050cc73a9e04137baa50e34541f78e4c89b794274eb92d0f285a1d53095c547ef012103ca1ddcf8ae769f93de92637e7f04b1a076dd7bfc703d5e3dc5f1ba558780cd6a17490800", "vin": [{"txinwitness": ["304402201d1aeb3b94b0eec1c8bcfca68159db63d58febdde899dd026aa39cc59f6673a6022050cc73a9e04137baa50e34541f78e4c89b794274eb92d0f285a1d53095c547ef01", "03ca1ddcf8ae769f93de92637e7f04b1a076dd7bfc703d5e3dc5f1ba558780cd6a"], "sequence": 4294967294, "scriptSig": {"hex": "16001454003c0ee5e0dcac49ae0df14b88d2d9a5207ca4", "asm": "001454003c0ee5e0dcac49ae0df14b88d2d9a5207ca4"}, "vout": 1, "txid": "2a6b4a32c89c46075ec91d8bed564a4d4dbc0c2787a0b07a4df0e9b25bed2a20"}], "txid": "443cccc8f883c425bafcc5367833edc44e0fba9f12e635bf3e4f9883248f169b", "blocktime": 1537876114, "version": 2, "confirmations": 11459, "time": 1537876114, "locktime": 542999, "vsize": 168, "size": 249}