{"hash": "443d58b0e910dc7dc8a90347e30ffd345848200eca5c906c021729ed5adf1dbc", "blockhash": "00000000000000000024a2167bbff67b0be802c0b01cdd79e6331c2be6459f87", "vout": [{"scriptPubKey": {"reqSigs": 1, "hex": "76a914361d2c1eea24003e5ae982feeb1c4a778f9c188188ac", "addresses": ["15w8SHmHgEYtxuRTT3vSHA861ZiyAa29Dk"], "asm": "OP_DUP OP_HASH160 361d2c1eea24003e5ae982feeb1c4a778f9c1881 OP_EQUALVERIFY OP_CHECKSIG", "type": "pubkeyhash"}, "value": 0.0645658, "n": 0}, {"scriptPubKey": {"reqSigs": 1, "hex": "76a914dcae64ff081fb06672928a59dd347e925cef856988ac", "addresses": ["1M7raM5N7DQbTSNzVWUy1YKXaqoQiakaMT"], "asm": "OP_DUP OP_HASH160 dcae64ff081fb06672928a59dd347e925cef8569 OP_EQUALVERIFY OP_CHECKSIG", "type": "pubkeyhash"}, "value": 10.77928709, "n": 1}], "hex": "0200000001ccb4af5465e448bfd70b1881f5fac88a2f9f24ac361c38ec3a0d87bc513e8b13010000006a47304402203d4c53f172633298dc497afb4468996820dee176861c79bb518af5e0b9f51db7022033aa689f9d5838989480c014373d53447492f513dd84cdc0a618f5c39e51d07e0121027391633f173633acf22498d00285eaa588a67b6f50a8ee7e2c70548df18b691dffffffff0204856200000000001976a914361d2c1eea24003e5ae982feeb1c4a778f9c188188ac05e33f40000000001976a914dcae64ff081fb06672928a59dd347e925cef856988ac00000000", "vin": [{"sequence": 4294967295, "scriptSig": {"hex": "47304402203d4c53f172633298dc497afb4468996820dee176861c79bb518af5e0b9f51db7022033aa689f9d5838989480c014373d53447492f513dd84cdc0a618f5c39e51d07e0121027391633f173633acf22498d00285eaa588a67b6f50a8ee7e2c70548df18b691d", "asm": "304402203d4c53f172633298dc497afb4468996820dee176861c79bb518af5e0b9f51db7022033aa689f9d5838989480c014373d53447492f513dd84cdc0a618f5c39e51d07e[ALL] 027391633f173633acf22498d00285eaa588a67b6f50a8ee7e2c70548df18b691d"}, "vout": 1, "txid": "138b3e51bc870d3aec381c36ac249f2f8ac8faf581180bd7bf48e46554afb4cc"}], "txid": "443d58b0e910dc7dc8a90347e30ffd345848200eca5c906c021729ed5adf1dbc", "blocktime": 1537870564, "version": 2, "confirmations": 11515, "time": 1537870564, "locktime": 0, "vsize": 225, "size": 225}