{"hash": "4443719c54eee5f45b34be603a50b60545fa6bb74fd74cf3020392ad890e929c", "blockhash": "0000000000000000000baef3f32e3676a92c3b2e5da21b426e4f302fc371ce76", "vout": [{"scriptPubKey": {"reqSigs": 1, "hex": "76a914a169a675342d320af42cbfe41a09161be2f6346a88ac", "addresses": ["1FiUMbHQV9Gz6qEWybngTPd9EeZYeq46S9"], "asm": "OP_DUP OP_HASH160 a169a675342d320af42cbfe41a09161be2f6346a OP_EQUALVERIFY OP_CHECKSIG", "type": "pubkeyhash"}, "value": 0.0004822, "n": 0}, {"scriptPubKey": {"type": "nulldata", "hex": "6a4c50000078170001531c8e40a2822957b3f09510019d6ddc0f1b8ff117702940d64fa54d8eb2031b266e538dfbecd6ca0bb3b5322d665baa1c1b0615bbafbaed871fbc9a9526289ac0f6612cd74e33776ee4", "asm": "OP_RETURN 000078170001531c8e40a2822957b3f09510019d6ddc0f1b8ff117702940d64fa54d8eb2031b266e538dfbecd6ca0bb3b5322d665baa1c1b0615bbafbaed871fbc9a9526289ac0f6612cd74e33776ee4"}, "value": 0.0, "n": 1}], "hex": "0100000001af20a48195994f869d6aba3a33eb9274d7ce4087d0af38276b07045a4d83c8a2000000006a47304402207efa184fd353a03733f9fe4fa265d7e9a3c76cc14fef2222fc701e8a88079352022007e21d0d0e27c8abf4a638ee532efdac660fd1fda11f144e4c803ca771c3a9950121027bcc233e4e142e98e8689e97feaa1a6b6a063f08a0a5054079b5e91331a261e8ffffffff025cbc0000000000001976a914a169a675342d320af42cbfe41a09161be2f6346a88ac0000000000000000536a4c50000078170001531c8e40a2822957b3f09510019d6ddc0f1b8ff117702940d64fa54d8eb2031b266e538dfbecd6ca0bb3b5322d665baa1c1b0615bbafbaed871fbc9a9526289ac0f6612cd74e33776ee400000000", "vin": [{"sequence": 4294967295, "scriptSig": {"hex": "47304402207efa184fd353a03733f9fe4fa265d7e9a3c76cc14fef2222fc701e8a88079352022007e21d0d0e27c8abf4a638ee532efdac660fd1fda11f144e4c803ca771c3a9950121027bcc233e4e142e98e8689e97feaa1a6b6a063f08a0a5054079b5e91331a261e8", "asm": "304402207efa184fd353a03733f9fe4fa265d7e9a3c76cc14fef2222fc701e8a88079352022007e21d0d0e27c8abf4a638ee532efdac660fd1fda11f144e4c803ca771c3a995[ALL] 027bcc233e4e142e98e8689e97feaa1a6b6a063f08a0a5054079b5e91331a261e8"}, "vout": 0, "txid": "a2c8834d5a04076b2738afd08740ced77492eb333aba6a9d864f999581a420af"}], "txid": "4443719c54eee5f45b34be603a50b60545fa6bb74fd74cf3020392ad890e929c", "blocktime": 1537876114, "version": 1, "confirmations": 11460, "time": 1537876114, "locktime": 0, "vsize": 283, "size": 283}