{"hash": "444736be4461a0e86cb8cd0e0562ec5d181053e36bc6146d8acdac7af5e65793", "blockhash": "0000000000000000000dcc0f55137456b1a82d3642486a52398922ac4d620174", "vout": [{"scriptPubKey": {"reqSigs": 1, "hex": "a9146793667bebad31abb488d6a676e03ab3684a686187", "addresses": ["3B8g6re2DD49D2ai4WeFGjWpdyG4X6ArMH"], "asm": "OP_HASH160 6793667bebad31abb488d6a676e03ab3684a6861 OP_EQUAL", "type": "scripthash"}, "value": 0.00969, "n": 0}, {"scriptPubKey": {"reqSigs": 1, "hex": "a914e370231feecbfc25e2e2423a5a79bf79bfdca59887", "addresses": ["3NRbeX3vD5VaVE4TDU9ivCDsEf7NPPte6J"], "asm": "OP_HASH160 e370231feecbfc25e2e2423a5a79bf79bfdca598 OP_EQUAL", "type": "scripthash"}, "value": 3.65443425, "n": 1}], "hex": "010000000181b56dedaf19cb730406bcb918300adfc7c948d678931497771214e613863bab01000000da00483045022100917321bfc6ed044f7bdfd41b5c0b98e67ac282c891628bb9e7fe9bc18212c63b0220236f0382abf5f3e70ccd46c82939d5a4011af962b72665c407620df71245445501473044022053db8aea579d0de7e4c46f32d8ae92e9598e9e5bcee03efe623014b93203d7a702207663882a1bee951d51753fa14561c9ccbe14222b2a8a859e77f8c4dfa3e85ecb014752210327881b6abce6535553a3ce21fad12a7d74fd237ce7c4cd270a267162344e3082210256141f8eb687f5a68c5cc65054652dc25116fa285e44d72b44368827ffe77d9a52aeffffffff0228c90e000000000017a9146793667bebad31abb488d6a676e03ab3684a6861876139c8150000000017a914e370231feecbfc25e2e2423a5a79bf79bfdca5988700000000", "vin": [{"sequence": 4294967295, "scriptSig": {"hex": "00483045022100917321bfc6ed044f7bdfd41b5c0b98e67ac282c891628bb9e7fe9bc18212c63b0220236f0382abf5f3e70ccd46c82939d5a4011af962b72665c407620df71245445501473044022053db8aea579d0de7e4c46f32d8ae92e9598e9e5bcee03efe623014b93203d7a702207663882a1bee951d51753fa14561c9ccbe14222b2a8a859e77f8c4dfa3e85ecb014752210327881b6abce6535553a3ce21fad12a7d74fd237ce7c4cd270a267162344e3082210256141f8eb687f5a68c5cc65054652dc25116fa285e44d72b44368827ffe77d9a52ae", "asm": "0 3045022100917321bfc6ed044f7bdfd41b5c0b98e67ac282c891628bb9e7fe9bc18212c63b0220236f0382abf5f3e70ccd46c82939d5a4011af962b72665c407620df712454455[ALL] 3044022053db8aea579d0de7e4c46f32d8ae92e9598e9e5bcee03efe623014b93203d7a702207663882a1bee951d51753fa14561c9ccbe14222b2a8a859e77f8c4dfa3e85ecb[ALL] 52210327881b6abce6535553a3ce21fad12a7d74fd237ce7c4cd270a267162344e3082210256141f8eb687f5a68c5cc65054652dc25116fa285e44d72b44368827ffe77d9a52ae"}, "vout": 1, "txid": "ab3b8613e614127797149378d648c9c7df0a3018b9bc060473cb19afed6db581"}], "txid": "444736be4461a0e86cb8cd0e0562ec5d181053e36bc6146d8acdac7af5e65793", "blocktime": 1537870268, "version": 1, "confirmations": 11518, "time": 1537870268, "locktime": 0, "vsize": 333, "size": 333}