{"hash": "44584a9790df74575d2696fe7659c31922bc26c9ce5ee0806c059d362214b3ac", "blockhash": "0000000000000000001e0dab787dd257d1dbfcb92a98c2207d5e1078be1f4165", "vout": [{"scriptPubKey": {"type": "nulldata", "hex": "6a4c50000077ae0001adaf350a813e09068a8e8f00af6c953dd567cf27e7e3ef3236678a6250975d38637e5e7ea8a59895ad68641c2c5b5baa10f20611f279415e8296bc9a9526289ac0f6612cd74e33776ee4", "asm": "OP_RETURN 000077ae0001adaf350a813e09068a8e8f00af6c953dd567cf27e7e3ef3236678a6250975d38637e5e7ea8a59895ad68641c2c5b5baa10f20611f279415e8296bc9a9526289ac0f6612cd74e33776ee4"}, "value": 0.0, "n": 0}, {"scriptPubKey": {"reqSigs": 1, "hex": "76a914529f5e4d98959d9d6b1a5c542e3577a29ca53ab788ac", "addresses": ["18XsKqeJ3NsuMBVDvP2Ss8fcYjNKzBZREb"], "asm": "OP_DUP OP_HASH160 529f5e4d98959d9d6b1a5c542e3577a29ca53ab7 OP_EQUALVERIFY OP_CHECKSIG", "type": "pubkeyhash"}, "value": 0.014772, "n": 1}], "hex": "010000000181b0aa8af5c0c03b60a96ced161afdfa8385c4a399e9dc7bbb9a8663b7aee82f010000006a4730440220298eb834941196c826f213326fe5d9cadf1dce4b26dc73a0ccc7fa321e5cf177022033398466eb66dbcaae36dee6465b90a5617fff6fa43836a07e1ada139bbdf1060121038daa1bc5b7675ef3018ed5208ba28d10bf97c40a5a1ce9c12ab56ba994bfc19cffffffff020000000000000000536a4c50000077ae0001adaf350a813e09068a8e8f00af6c953dd567cf27e7e3ef3236678a6250975d38637e5e7ea8a59895ad68641c2c5b5baa10f20611f279415e8296bc9a9526289ac0f6612cd74e33776ee4508a1600000000001976a914529f5e4d98959d9d6b1a5c542e3577a29ca53ab788ac00000000", "vin": [{"sequence": 4294967295, "scriptSig": {"hex": "4730440220298eb834941196c826f213326fe5d9cadf1dce4b26dc73a0ccc7fa321e5cf177022033398466eb66dbcaae36dee6465b90a5617fff6fa43836a07e1ada139bbdf1060121038daa1bc5b7675ef3018ed5208ba28d10bf97c40a5a1ce9c12ab56ba994bfc19c", "asm": "30440220298eb834941196c826f213326fe5d9cadf1dce4b26dc73a0ccc7fa321e5cf177022033398466eb66dbcaae36dee6465b90a5617fff6fa43836a07e1ada139bbdf106[ALL] 038daa1bc5b7675ef3018ed5208ba28d10bf97c40a5a1ce9c12ab56ba994bfc19c"}, "vout": 1, "txid": "2fe8aeb763869abb7bdce999a3c48583fafd1a16ed6ca9603bc0c0f58aaab081"}], "txid": "44584a9790df74575d2696fe7659c31922bc26c9ce5ee0806c059d362214b3ac", "blocktime": 1537872475, "version": 1, "confirmations": 11486, "time": 1537872475, "locktime": 0, "vsize": 283, "size": 283}