{"hash": "445e3b4fd06ed37dc3625889db90c344cc1961e1fa07edb609dfb43c496a2112", "blockhash": "00000000000000000004ffacab907a6b429b9a5745fa0b75af4234bf69dd7176", "vout": [{"scriptPubKey": {"type": "nulldata", "hex": "6a146f6d6e69000000000000001f000000aad9e36a00", "asm": "OP_RETURN 6f6d6e69000000000000001f000000aad9e36a00"}, "value": 0.0, "n": 0}, {"scriptPubKey": {"reqSigs": 1, "hex": "76a914e0282cc0a9f283d161346923471a409484fc3a0888ac", "addresses": ["1MSEVNB9FuomfKvDjzxL34awefQ3haeHTm"], "asm": "OP_DUP OP_HASH160 e0282cc0a9f283d161346923471a409484fc3a08 OP_EQUALVERIFY OP_CHECKSIG", "type": "pubkeyhash"}, "value": 0.17366778, "n": 1}, {"scriptPubKey": {"reqSigs": 1, "hex": "76a91488c34efc2b6da82f229d4ab9c7d51e913428a74288ac", "addresses": ["1DU8sN74xeQzpCDkYL25Pt6ev3aPFbf7Pc"], "asm": "OP_DUP OP_HASH160 88c34efc2b6da82f229d4ab9c7d51e913428a742 OP_EQUALVERIFY OP_CHECKSIG", "type": "pubkeyhash"}, "value": 5.46e-06, "n": 2}], "hex": "0100000001fe5c4be679d64c1ff16cfbc220bdd3c9d3c16036db764fc98432d41243580325020000006b4830450221008f303b37600b2762124aec5db27bb20e1863d7e942e9cd41e02054f693cc20c80220452a8a783db315760a87490ea6085cf8dce0d6c999d44394bf02a4952d486686012102cff625998fb7c306a53216ab626b2e925af8075cbc1571268b3e9e025191ea00feffffff030000000000000000166a146f6d6e69000000000000001f000000aad9e36a00fafe0801000000001976a914e0282cc0a9f283d161346923471a409484fc3a0888ac22020000000000001976a91488c34efc2b6da82f229d4ab9c7d51e913428a74288ac05490800", "vin": [{"sequence": 4294967294, "scriptSig": {"hex": "4830450221008f303b37600b2762124aec5db27bb20e1863d7e942e9cd41e02054f693cc20c80220452a8a783db315760a87490ea6085cf8dce0d6c999d44394bf02a4952d486686012102cff625998fb7c306a53216ab626b2e925af8075cbc1571268b3e9e025191ea00", "asm": "30450221008f303b37600b2762124aec5db27bb20e1863d7e942e9cd41e02054f693cc20c80220452a8a783db315760a87490ea6085cf8dce0d6c999d44394bf02a4952d486686[ALL] 02cff625998fb7c306a53216ab626b2e925af8075cbc1571268b3e9e025191ea00"}, "vout": 2, "txid": "2503584312d43284c94f76db3660c1d3c9d3bd20c2fb6cf11f4cd679e64b5cfe"}], "txid": "445e3b4fd06ed37dc3625889db90c344cc1961e1fa07edb609dfb43c496a2112", "blocktime": 1537875543, "version": 1, "confirmations": 11464, "time": 1537875543, "locktime": 542981, "vsize": 257, "size": 257}