{"hash": "dfce703ddc0821b7b0528fcb9299a57da81c3eb71ad343203b35206e9b96ac79", "blockhash": "00000000000000000017f5eb5941039fbcee6240d03bc1f2f8e35350df66a1d8", "vout": [{"scriptPubKey": {"reqSigs": 1, "hex": "a9143cee062143b7e9cce5e710c3c53b3c3ff966c41a87", "addresses": ["37FBcFHteCfFGiQKD6TYcDpSxxDjq995j6"], "asm": "OP_HASH160 3cee062143b7e9cce5e710c3c53b3c3ff966c41a OP_EQUAL", "type": "scripthash"}, "value": 0.00025746, "n": 0}, {"scriptPubKey": {"reqSigs": 1, "hex": "a91484534528614b68406f10d23cad4c7fbb170885de87", "addresses": ["3DkgsaQ5DyLPU33eGEfEJ3qyRFMZ6gE4wY"], "asm": "OP_HASH160 84534528614b68406f10d23cad4c7fbb170885de OP_EQUAL", "type": "scripthash"}, "value": 0.0155577, "n": 1}, {"scriptPubKey": {"reqSigs": 1, "hex": "a9141988a27e3c2df4ddee7fad5a2303d086179b2a3087", "addresses": ["3422VtS7UtCvXYxoXMVp6eZupR252z85oC"], "asm": "OP_HASH160 1988a27e3c2df4ddee7fad5a2303d086179b2a30 OP_EQUAL", "type": "scripthash"}, "value": 1.23024639, "n": 2}], "hex": "0100000000010110bc911c4f579d4ba1b4bdfc132f6246caf32a611618d31600b99c050f8ce173010000002322002065d416c48a8072e0ac51c2d111eb194f009caef0332446c1bf2097316cf07fa9ffffffff03926400000000000017a9143cee062143b7e9cce5e710c3c53b3c3ff966c41a873abd17000000000017a91484534528614b68406f10d23cad4c7fbb170885de87ff3455070000000017a9141988a27e3c2df4ddee7fad5a2303d086179b2a3087040047304402204c269062d438e74f170b3a7e4392876dd677c2c04e687dd347a992c2918c2cac0220363c1e3007a5d0470e6b488f6a113ffce8aaa0c4c6154e09bbe3f763516b88f20147304402204ba3286fa48508fd7faa6e005799a900330d070dd520d3e710a74ad404bd48fe022027adad516cfb39a9426cb54bf6c3c66b3a576d7bd7cc2f86861d69f1fec173ab0169522102f44abcf9e23c9a460da309ccca56c619c04eed3bde2c2cff5e7d78fbcd980b9c2103c9443cf3047bb6c2c82f1b0c44c36109cdc3d0d601d16d1189a1602bf8d1a0a02103bfe867059274412412e088af5572b92168c2ef495cfe6c9b7a753a009eb37c4853ae00000000", "vin": [{"txinwitness": ["", "304402204c269062d438e74f170b3a7e4392876dd677c2c04e687dd347a992c2918c2cac0220363c1e3007a5d0470e6b488f6a113ffce8aaa0c4c6154e09bbe3f763516b88f201", "304402204ba3286fa48508fd7faa6e005799a900330d070dd520d3e710a74ad404bd48fe022027adad516cfb39a9426cb54bf6c3c66b3a576d7bd7cc2f86861d69f1fec173ab01", "522102f44abcf9e23c9a460da309ccca56c619c04eed3bde2c2cff5e7d78fbcd980b9c2103c9443cf3047bb6c2c82f1b0c44c36109cdc3d0d601d16d1189a1602bf8d1a0a02103bfe867059274412412e088af5572b92168c2ef495cfe6c9b7a753a009eb37c4853ae"], "sequence": 4294967295, "scriptSig": {"hex": "22002065d416c48a8072e0ac51c2d111eb194f009caef0332446c1bf2097316cf07fa9", "asm": "002065d416c48a8072e0ac51c2d111eb194f009caef0332446c1bf2097316cf07fa9"}, "vout": 1, "txid": "73e18c0f059cb90016d31816612af3ca46622f13fcbdb4a14b9d574f1c91bc10"}], "txid": "44608360a260c92e33e040e78ac126a02acdea9c8d43ee6b38bf983d4a7dcbd2", "blocktime": 1537874412, "version": 1, "confirmations": 11467, "time": 1537874412, "locktime": 0, "vsize": 246, "size": 436}