{"hash": "ce856f8d0ae4fd51291cecf82ba54c1c834e8ea50897efebc1a547f2a9f8e15e", "blockhash": "00000000000000000018f53835495a110e01622372bf6ae95dc86f2b0ab887b0", "vout": [{"scriptPubKey": {"reqSigs": 1, "hex": "76a914a1a8e294e9a93065429e032ea234b6456469811e88ac", "addresses": ["1Fjn7E7c5M8828nUNybZbkVnpmk2phd3EV"], "asm": "OP_DUP OP_HASH160 a1a8e294e9a93065429e032ea234b6456469811e OP_EQUALVERIFY OP_CHECKSIG", "type": "pubkeyhash"}, "value": 0.001, "n": 0}, {"scriptPubKey": {"reqSigs": 1, "hex": "a9140d2e36bb9db093a3625126002593a34c62ba478b87", "addresses": ["32ti52ckefdjNGECy2vbnpawzRRPMxpZyJ"], "asm": "OP_HASH160 0d2e36bb9db093a3625126002593a34c62ba478b OP_EQUAL", "type": "scripthash"}, "value": 0.0120045, "n": 1}, {"scriptPubKey": {"reqSigs": 1, "hex": "a91469f374cfa64f94b0d0bb33f34d4c0f2ff7603e4587", "addresses": ["3BMEXKr9KAcDBzj87xcXk7F7XyNeLFEFxr"], "asm": "OP_HASH160 69f374cfa64f94b0d0bb33f34d4c0f2ff7603e45 OP_EQUAL", "type": "scripthash"}, "value": 0.0150085, "n": 2}, {"scriptPubKey": {"reqSigs": 1, "hex": "a9147628d4197f8fa04fa486dfbea51cc6e11c96b98187", "addresses": ["3CTnZzeCekeF7t7Mprutb4aXU3xhYq3ZXh"], "asm": "OP_HASH160 7628d4197f8fa04fa486dfbea51cc6e11c96b981 OP_EQUAL", "type": "scripthash"}, "value": 0.0006, "n": 3}, {"scriptPubKey": {"reqSigs": 1, "hex": "76a914acff3e220400955e6411b5176fa8754c3d5349b788ac", "addresses": ["1Gmiza15rBhxkCwyncdaqNkPoJYo2pW6Yi"], "asm": "OP_DUP OP_HASH160 acff3e220400955e6411b5176fa8754c3d5349b7 OP_EQUALVERIFY OP_CHECKSIG", "type": "pubkeyhash"}, "value": 0.02018835, "n": 4}], "hex": "0200000000010216999624c7f6d8ff0cf6b58068b00770f381df6be48e6f82d6161392c7107a8c0100000017160014a7cb36c21ddaecf8ff606c39fc0d541c24efc8eafeffffffe6799abd4f9d6f2b4273bb0865aa5c514704d2ffc3dfffeaefe72f6d730c1b9e0300000017160014c82f865256b7b70b307f3e66dc5f956b4b40d9b0feffffff05a0860100000000001976a914a1a8e294e9a93065429e032ea234b6456469811e88ac425112000000000017a9140d2e36bb9db093a3625126002593a34c62ba478b87b2e616000000000017a91469f374cfa64f94b0d0bb33f34d4c0f2ff7603e458760ea00000000000017a9147628d4197f8fa04fa486dfbea51cc6e11c96b9818713ce1e00000000001976a914acff3e220400955e6411b5176fa8754c3d5349b788ac024730440220757bf605409d30f472decd4dec0f2d536bbe9e3a8d7d2b519433059825ea06ad02203ae2fa40a8416ee8ff34882839fce6122b7998da76062f8b8a8ecfb2d2106838012103eab50a797d9b3ec305abb6cf50ec66e78057147f21a1b74d83b7125d112f3f8402473044022009073143152529d5ecac97d5dbced78a7718a382b2ff856008b3fb768acf667502200ffbb4e7fed042d352c953aefa12b15dd068c5aae668cc220833f03ec46b8c0d012102a30c62568eb218b6b7a89f64534fd85276d565681c784849052208ccb45bda3d0e490800", "vin": [{"txinwitness": ["30440220757bf605409d30f472decd4dec0f2d536bbe9e3a8d7d2b519433059825ea06ad02203ae2fa40a8416ee8ff34882839fce6122b7998da76062f8b8a8ecfb2d210683801", "03eab50a797d9b3ec305abb6cf50ec66e78057147f21a1b74d83b7125d112f3f84"], "sequence": 4294967294, "scriptSig": {"hex": "160014a7cb36c21ddaecf8ff606c39fc0d541c24efc8ea", "asm": "0014a7cb36c21ddaecf8ff606c39fc0d541c24efc8ea"}, "vout": 1, "txid": "8c7a10c7921316d6826f8ee46bdf81f37007b06880b5f60cffd8f6c724969916"}, {"txinwitness": ["3044022009073143152529d5ecac97d5dbced78a7718a382b2ff856008b3fb768acf667502200ffbb4e7fed042d352c953aefa12b15dd068c5aae668cc220833f03ec46b8c0d01", "02a30c62568eb218b6b7a89f64534fd85276d565681c784849052208ccb45bda3d"], "sequence": 4294967294, "scriptSig": {"hex": "160014c82f865256b7b70b307f3e66dc5f956b4b40d9b0", "asm": "0014c82f865256b7b70b307f3e66dc5f956b4b40d9b0"}, "vout": 3, "txid": "9e1b0c736d2fe7efeaffdfc3ffd20447515caa6508bb73422b6f9d4fbd9a79e6"}], "txid": "446935dde82184cbfb980485d686b854d2432cb9cb1a4e9abc9f0d4f3acd26bf", "blocktime": 1537870928, "version": 2, "confirmations": 11512, "time": 1537870928, "locktime": 542990, "vsize": 356, "size": 518}