{"hash": "446c06c107625232c7de6e00b82c42f2713c83d71c581228a926891a7644e453", "blockhash": "0000000000000000000dcc0f55137456b1a82d3642486a52398922ac4d620174", "vout": [{"scriptPubKey": {"type": "nulldata", "hex": "6a146f6d6e69000000000000001f00000014d69d9f00", "asm": "OP_RETURN 6f6d6e69000000000000001f00000014d69d9f00"}, "value": 0.0, "n": 0}, {"scriptPubKey": {"reqSigs": 1, "hex": "a91440b7edd1d8cac7988f78de7f027fadd870e6f76287", "addresses": ["37bDWRw8DeXTEWznJFq3qhFVqAekVbkTSC"], "asm": "OP_HASH160 40b7edd1d8cac7988f78de7f027fadd870e6f762 OP_EQUAL", "type": "scripthash"}, "value": 5.4e-06, "n": 1}, {"scriptPubKey": {"reqSigs": 1, "hex": "76a91488d924f51033b74a895863a5fb57fd545529df7d88ac", "addresses": ["1DUb2YYbQA1jjaNYzVXLZ7ZioEhLXtbUru"], "asm": "OP_DUP OP_HASH160 88d924f51033b74a895863a5fb57fd545529df7d OP_EQUALVERIFY OP_CHECKSIG", "type": "pubkeyhash"}, "value": 1.39413076, "n": 2}], "hex": "0100000001593ee2a975c955fa84fa3ed6a663d30a6314321d8c05867d0390db0bede99de1000000006a47304402205b88993104b9d220afbbb6f8ba1ef17f4305413ce61b4422a1f4ecfda7bd3593022047c87746297e28a7cef7a1114a0d3b8a60767c89ceac3398614d11d050494bdf0121030888863fcb4cdf5b7d33b40e613af35df8f39d576e7972238b0d396cd3fcc3f2feffffff030000000000000000166a146f6d6e69000000000000001f00000014d69d9f001c0200000000000017a91440b7edd1d8cac7988f78de7f027fadd870e6f7628754464f08000000001976a91488d924f51033b74a895863a5fb57fd545529df7d88ac0c490800", "vin": [{"sequence": 4294967294, "scriptSig": {"hex": "47304402205b88993104b9d220afbbb6f8ba1ef17f4305413ce61b4422a1f4ecfda7bd3593022047c87746297e28a7cef7a1114a0d3b8a60767c89ceac3398614d11d050494bdf0121030888863fcb4cdf5b7d33b40e613af35df8f39d576e7972238b0d396cd3fcc3f2", "asm": "304402205b88993104b9d220afbbb6f8ba1ef17f4305413ce61b4422a1f4ecfda7bd3593022047c87746297e28a7cef7a1114a0d3b8a60767c89ceac3398614d11d050494bdf[ALL] 030888863fcb4cdf5b7d33b40e613af35df8f39d576e7972238b0d396cd3fcc3f2"}, "vout": 0, "txid": "e19de9ed0bdb90037d86058c1d3214630ad363a6d63efa84fa55c975a9e23e59"}], "txid": "446c06c107625232c7de6e00b82c42f2713c83d71c581228a926891a7644e453", "blocktime": 1537870268, "version": 1, "confirmations": 11516, "time": 1537870268, "locktime": 542988, "vsize": 254, "size": 254}