{"hash": "3fbd76a605a20a6f93d86d9c5b2925b2259906fac1712ea2aec0bf98c6d5fc69", "blockhash": "0000000000000000001cda96e906b7601b7a6fb1a3b62bca570a9e5d8f4b3de1", "vout": [{"scriptPubKey": {"reqSigs": 1, "hex": "a914213de5a4b141d80296c6b608710cf5a2d963901787", "addresses": ["34inNZDGjaywunVAgkiGtHLPCv6qWgvikD"], "asm": "OP_HASH160 213de5a4b141d80296c6b608710cf5a2d9639017 OP_EQUAL", "type": "scripthash"}, "value": 0.00999237, "n": 0}, {"scriptPubKey": {"reqSigs": 1, "hex": "a91477ba435339ac6786a999583bcd9c6cb3b79541b687", "addresses": ["3Cc5U9hvCTwWjcRwWeLy7XDT7eGTQkaHCm"], "asm": "OP_HASH160 77ba435339ac6786a999583bcd9c6cb3b79541b6 OP_EQUAL", "type": "scripthash"}, "value": 0.0024616, "n": 1}], "hex": "02000000000102ce29cfe764b505efa44b5d88f35f6405a31ce707eca057d41de1b600d8baf47b0000000017160014ba32efa82b12b39373aafc15411312c7033324a5feffffffeed9a76b3ec4bce9493d78441f6c2608f887c9398205deafa1f3ae0081563b690000000017160014b8bea902456289942f6cc788b888ab2be8cf0016feffffff02453f0f000000000017a914213de5a4b141d80296c6b608710cf5a2d96390178790c103000000000017a91477ba435339ac6786a999583bcd9c6cb3b79541b687024830450221009f1fb274d934af2e985ccb78dcd97d1898cfd079a07bd127ae57967d8dfcd5c8022054d30f9f23fcf3e573fb8bd100aff751ce7f66832eb6881ff942997925743cc70121034ad4f5a65588b965bdba204ab58960f62f2047c698ef9f59345c76aace7e018d02483045022100adf620cce7893be08a4f12ac905fccd22e67dfa5f7852b1651d89dfb0bf48d7902206709d9a550c8bda8c9be95b40645eb3b652ea0c84aaceb8c5ce4142843113729012102d42941db192e9f5b03142735394fe697bf121c0d4cf245936e051b5010dfab5413490800", "vin": [{"txinwitness": ["30450221009f1fb274d934af2e985ccb78dcd97d1898cfd079a07bd127ae57967d8dfcd5c8022054d30f9f23fcf3e573fb8bd100aff751ce7f66832eb6881ff942997925743cc701", "034ad4f5a65588b965bdba204ab58960f62f2047c698ef9f59345c76aace7e018d"], "sequence": 4294967294, "scriptSig": {"hex": "160014ba32efa82b12b39373aafc15411312c7033324a5", "asm": "0014ba32efa82b12b39373aafc15411312c7033324a5"}, "vout": 0, "txid": "7bf4bad800b6e11dd457a0ec07e71ca305645ff3885d4ba4ef05b564e7cf29ce"}, {"txinwitness": ["3045022100adf620cce7893be08a4f12ac905fccd22e67dfa5f7852b1651d89dfb0bf48d7902206709d9a550c8bda8c9be95b40645eb3b652ea0c84aaceb8c5ce414284311372901", "02d42941db192e9f5b03142735394fe697bf121c0d4cf245936e051b5010dfab54"], "sequence": 4294967294, "scriptSig": {"hex": "160014b8bea902456289942f6cc788b888ab2be8cf0016", "asm": "0014b8bea902456289942f6cc788b888ab2be8cf0016"}, "vout": 0, "txid": "693b568100aef3a1afde058239c987f808266c1f44783d49e9bcc43e6ba7d9ee"}], "txid": "446f84784684e9eca5bc39f88b98a46739f682d5e24978c10ae7035e5136cc76", "blocktime": 1537873282, "version": 2, "confirmations": 11484, "time": 1537873282, "locktime": 542995, "vsize": 257, "size": 420}