{"hash": "4475c97e27ca8368a851267bad9e86e51a1158ac1e6062df49ff839327c22be2", "blockhash": "0000000000000000000baef3f32e3676a92c3b2e5da21b426e4f302fc371ce76", "vout": [{"scriptPubKey": {"reqSigs": 1, "hex": "76a9147143b86c85e95ac6076a218a62be4535500ebb6088ac", "addresses": ["1BKtUyScWoHVQQDDu98LafCyptdhPwzGyv"], "asm": "OP_DUP OP_HASH160 7143b86c85e95ac6076a218a62be4535500ebb60 OP_EQUALVERIFY OP_CHECKSIG", "type": "pubkeyhash"}, "value": 0.02287, "n": 0}, {"scriptPubKey": {"reqSigs": 1, "hex": "a914e370231feecbfc25e2e2423a5a79bf79bfdca59887", "addresses": ["3NRbeX3vD5VaVE4TDU9ivCDsEf7NPPte6J"], "asm": "OP_HASH160 e370231feecbfc25e2e2423a5a79bf79bfdca598 OP_EQUAL", "type": "scripthash"}, "value": 2.72940227, "n": 1}], "hex": "01000000015ebc750f92d6fde8cd97f99f9257d78241d83feb5014eae4a0992d6f3e5f939001000000d90047304402206bfce34596703b0941b015fec701a5d41d41365213ae1340f4d04e2f8bb5afb8022020690dc153ff120fee7b08b58475b8f7c86ec1cf896568e42e078bf6a4b38c1601473044022066442a2f1b2b2ce8df2daf58001e3ab0c2486f07f1492c3bd594e5c5d78bd63002203a8fd198882ab17c74f0547a06a4043bfd8c2b4222281449ba70ae47241a146d014752210327881b6abce6535553a3ce21fad12a7d74fd237ce7c4cd270a267162344e3082210256141f8eb687f5a68c5cc65054652dc25116fa285e44d72b44368827ffe77d9a52aeffffffff0298e52200000000001976a9147143b86c85e95ac6076a218a62be4535500ebb6088acc3bc44100000000017a914e370231feecbfc25e2e2423a5a79bf79bfdca5988700000000", "vin": [{"sequence": 4294967295, "scriptSig": {"hex": "0047304402206bfce34596703b0941b015fec701a5d41d41365213ae1340f4d04e2f8bb5afb8022020690dc153ff120fee7b08b58475b8f7c86ec1cf896568e42e078bf6a4b38c1601473044022066442a2f1b2b2ce8df2daf58001e3ab0c2486f07f1492c3bd594e5c5d78bd63002203a8fd198882ab17c74f0547a06a4043bfd8c2b4222281449ba70ae47241a146d014752210327881b6abce6535553a3ce21fad12a7d74fd237ce7c4cd270a267162344e3082210256141f8eb687f5a68c5cc65054652dc25116fa285e44d72b44368827ffe77d9a52ae", "asm": "0 304402206bfce34596703b0941b015fec701a5d41d41365213ae1340f4d04e2f8bb5afb8022020690dc153ff120fee7b08b58475b8f7c86ec1cf896568e42e078bf6a4b38c16[ALL] 3044022066442a2f1b2b2ce8df2daf58001e3ab0c2486f07f1492c3bd594e5c5d78bd63002203a8fd198882ab17c74f0547a06a4043bfd8c2b4222281449ba70ae47241a146d[ALL] 52210327881b6abce6535553a3ce21fad12a7d74fd237ce7c4cd270a267162344e3082210256141f8eb687f5a68c5cc65054652dc25116fa285e44d72b44368827ffe77d9a52ae"}, "vout": 1, "txid": "90935f3e6f2d99a0e4ea1450eb3fd84182d757929ff997cde8fdd6920f75bc5e"}], "txid": "4475c97e27ca8368a851267bad9e86e51a1158ac1e6062df49ff839327c22be2", "blocktime": 1537876114, "version": 1, "confirmations": 11460, "time": 1537876114, "locktime": 0, "vsize": 334, "size": 334}