{"hash": "6e4331f627c618305d456e97b458f0cf049fddc16ec87918819354aa394baa24", "blockhash": "0000000000000000000e13cef7c366c0283d82e591d1acd082e914b08063cdf1", "vout": [{"scriptPubKey": {"reqSigs": 1, "hex": "a9148321bac2202c2b1e12fe11bf27bf5f01f34f5b0587", "addresses": ["3DeNrEzKoUdDa6m3FJvp4jPBk1JrUfuUHz"], "asm": "OP_HASH160 8321bac2202c2b1e12fe11bf27bf5f01f34f5b05 OP_EQUAL", "type": "scripthash"}, "value": 0.0022696, "n": 0}, {"scriptPubKey": {"reqSigs": 1, "hex": "a914fcceae71dee93f8c1e91737eddfe2ca9ff78a6a987", "addresses": ["3QjjoMxedQaGXwqjnRph4k25RJpdPv2fkY"], "asm": "OP_HASH160 fcceae71dee93f8c1e91737eddfe2ca9ff78a6a9 OP_EQUAL", "type": "scripthash"}, "value": 0.0102759, "n": 1}], "hex": "020000000001024dc7e146cba041c09ce7006df11be6c0d6b458db881276e76189c08cb31825a100000000171600148bbcd4e4e7565a1608d2c9052894134bc9ab5c1dfeffffff5b4fbf29688e231bf6ab4c409de321ac9fca7b7751be146fa468586017b025670000000017160014d0eeda5ad2030e560580e3922cb63ad954748fbbfeffffff02907603000000000017a9148321bac2202c2b1e12fe11bf27bf5f01f34f5b058706ae0f000000000017a914fcceae71dee93f8c1e91737eddfe2ca9ff78a6a98702483045022100cdcaa6e6d72864b865f7453b35d4f3407e1090f39e288844385eef4a31fb59a402207aa43fe56a6854ef90c3cc847ac5e3df41027c85bf6f30d25f7365e421135c9a0121029537934ac4495ccd05f9a3a2303572f6d4cc3547f4c761f181050535e8a37f6a0247304402204c3cceaa559884818f3da6575640ffb56742733943fe17fa4c4a6ce452d52b080220417007e7afa04560611c09461fc6033dabaeac2584332858638853013a498db6012103da0b8bb66efac7fa66467025f1ddf961038c6159667790b9634d507ccfa074a010490800", "vin": [{"txinwitness": ["3045022100cdcaa6e6d72864b865f7453b35d4f3407e1090f39e288844385eef4a31fb59a402207aa43fe56a6854ef90c3cc847ac5e3df41027c85bf6f30d25f7365e421135c9a01", "029537934ac4495ccd05f9a3a2303572f6d4cc3547f4c761f181050535e8a37f6a"], "sequence": 4294967294, "scriptSig": {"hex": "1600148bbcd4e4e7565a1608d2c9052894134bc9ab5c1d", "asm": "00148bbcd4e4e7565a1608d2c9052894134bc9ab5c1d"}, "vout": 0, "txid": "a12518b38cc08961e7761288db58b4d6c0e61bf16d00e79cc041a0cb46e1c74d"}, {"txinwitness": ["304402204c3cceaa559884818f3da6575640ffb56742733943fe17fa4c4a6ce452d52b080220417007e7afa04560611c09461fc6033dabaeac2584332858638853013a498db601", "03da0b8bb66efac7fa66467025f1ddf961038c6159667790b9634d507ccfa074a0"], "sequence": 4294967294, "scriptSig": {"hex": "160014d0eeda5ad2030e560580e3922cb63ad954748fbb", "asm": "0014d0eeda5ad2030e560580e3922cb63ad954748fbb"}, "vout": 0, "txid": "6725b017605868a46f14be51777bca9fac21e39d404cabf61b238e6829bf4f5b"}], "txid": "4475863da163d91ef2bcca36bb7b2d82c94eb0f34774fb9e9ccc7a67b540f540", "blocktime": 1537871767, "version": 2, "confirmations": 11495, "time": 1537871767, "locktime": 542992, "vsize": 257, "size": 419}