{"hash": "5052666fd7ae10d2bbde3c13c1d49654fa816ea21d11d31905597b249898d882", "blockhash": "0000000000000000000e13cef7c366c0283d82e591d1acd082e914b08063cdf1", "vout": [{"scriptPubKey": {"reqSigs": 1, "hex": "00141028e7f848c48a3cdb1f048837aff85ce4a8f053", "addresses": ["bc1qzq5w07zgcj9rekclqjyr0tlctnj23uznfdqkps"], "asm": "0 1028e7f848c48a3cdb1f048837aff85ce4a8f053", "type": "witness_v0_keyhash"}, "value": 0.84864312, "n": 0}, {"scriptPubKey": {"reqSigs": 1, "hex": "76a91462f9a19bb360a0c3c690c954a73ac93b0defb7bb88ac", "addresses": ["1A2LGV8JrkBhHwfUaMMLy55eF2uQ2wYnWE"], "asm": "OP_DUP OP_HASH160 62f9a19bb360a0c3c690c954a73ac93b0defb7bb OP_EQUALVERIFY OP_CHECKSIG", "type": "pubkeyhash"}, "value": 0.010561, "n": 1}], "hex": "010000000001010878355764290a15fcaad38436aa9a7c452c5a07654a39ed54cba17437c5f8c701000000171600144a25bc5093c2ba099dcaebdb9b4329e80fa21976ffffffff0238ed0e05000000001600141028e7f848c48a3cdb1f048837aff85ce4a8f053641d1000000000001976a91462f9a19bb360a0c3c690c954a73ac93b0defb7bb88ac02483045022100dca27e7aa59238bd6d453588ebfe7016a7c173048e1378177e2ffecf9eba7c950220058fd113398e9580ef302bc4596be674006f7a6e89a2f36d7e82c57826946817012102d1c639227a69a860232ed0575031b752badb5f3a141fb2326ac0f1e7622b629500000000", "vin": [{"txinwitness": ["3045022100dca27e7aa59238bd6d453588ebfe7016a7c173048e1378177e2ffecf9eba7c950220058fd113398e9580ef302bc4596be674006f7a6e89a2f36d7e82c5782694681701", "02d1c639227a69a860232ed0575031b752badb5f3a141fb2326ac0f1e7622b6295"], "sequence": 4294967295, "scriptSig": {"hex": "1600144a25bc5093c2ba099dcaebdb9b4329e80fa21976", "asm": "00144a25bc5093c2ba099dcaebdb9b4329e80fa21976"}, "vout": 1, "txid": "c7f8c53774a1cb54ed394a65075a2c457c9aaa3684d3aafc150a296457357808"}], "txid": "44766ea1899f751c69956cadb5f9c0a5d3d5cb291a5b63e792067818e7429d17", "blocktime": 1537871767, "version": 1, "confirmations": 11495, "time": 1537871767, "locktime": 0, "vsize": 167, "size": 249}