{"hash": "447a0c81e6b1a30ef96af62cb33bfb77b8a658983d03bb5599d10ebeed62e5dd", "blockhash": "00000000000000000004ffacab907a6b429b9a5745fa0b75af4234bf69dd7176", "vout": [{"scriptPubKey": {"reqSigs": 1, "hex": "a91482a09e8b9ece5577fd9368c0998e24ac67faea1f87", "addresses": ["3DbiBWPi5T9qjKXNja5SWkAVL7iWUp6AwT"], "asm": "OP_HASH160 82a09e8b9ece5577fd9368c0998e24ac67faea1f OP_EQUAL", "type": "scripthash"}, "value": 0.00764136, "n": 0}, {"scriptPubKey": {"reqSigs": 1, "hex": "76a91420c0b08214e8b4e66cbfeaddc892ea4fb268c7fb88ac", "addresses": ["13zBTSSmtVaHLcAfZHTm8sRgTk4GEbJW8z"], "asm": "OP_DUP OP_HASH160 20c0b08214e8b4e66cbfeaddc892ea4fb268c7fb OP_EQUALVERIFY OP_CHECKSIG", "type": "pubkeyhash"}, "value": 0.05326055, "n": 1}], "hex": "01000000013350746c680ff8f336520ccbc446cd6124a329f85b3a15e20501838385ab5ba9010000006a4730440220220912dc898db461dbb85f5de33407cea0fc63b9b903d721965f008953af78850220060d1e6b0f0e87a2898f07e8c1b77f9294b8fd8b1491a9baa6ef440ef8a49028012103b9e03594eb8e0b81159f75e3e85010a97518e6216e4befa434421acdcc6fb1a4ffffffff02e8a80b000000000017a91482a09e8b9ece5577fd9368c0998e24ac67faea1f87e7445100000000001976a91420c0b08214e8b4e66cbfeaddc892ea4fb268c7fb88ac00000000", "vin": [{"sequence": 4294967295, "scriptSig": {"hex": "4730440220220912dc898db461dbb85f5de33407cea0fc63b9b903d721965f008953af78850220060d1e6b0f0e87a2898f07e8c1b77f9294b8fd8b1491a9baa6ef440ef8a49028012103b9e03594eb8e0b81159f75e3e85010a97518e6216e4befa434421acdcc6fb1a4", "asm": "30440220220912dc898db461dbb85f5de33407cea0fc63b9b903d721965f008953af78850220060d1e6b0f0e87a2898f07e8c1b77f9294b8fd8b1491a9baa6ef440ef8a49028[ALL] 03b9e03594eb8e0b81159f75e3e85010a97518e6216e4befa434421acdcc6fb1a4"}, "vout": 1, "txid": "a95bab8583830105e2153a5bf829a32461cd46c4cb0c5236f3f80f686c745033"}], "txid": "447a0c81e6b1a30ef96af62cb33bfb77b8a658983d03bb5599d10ebeed62e5dd", "blocktime": 1537875543, "version": 1, "confirmations": 11464, "time": 1537875543, "locktime": 0, "vsize": 223, "size": 223}