{"hash": "447b25f757348c88f59e9357fc43219ba897438473ba55a4d5619af9a5379b10", "blockhash": "00000000000000000024a2167bbff67b0be802c0b01cdd79e6331c2be6459f87", "vout": [{"scriptPubKey": {"reqSigs": 1, "hex": "a9140b02e298730ade18b56bd03231b9eddf41dc492d87", "addresses": ["32hEp7jJP4GUQsV6rgDRguD9c7VzXUmrr7"], "asm": "OP_HASH160 0b02e298730ade18b56bd03231b9eddf41dc492d OP_EQUAL", "type": "scripthash"}, "value": 0.00437527, "n": 0}], "hex": "01000000014c8dca55f4c84475588c003ec1f004899503fcea0ee6f2ea489e4b89fdf7f163010000006a4730440220730222fd39b1c80f4ad65d369ace30b05806ce431fdce18dc3ba75a866d4c9d102201b29a0e65883d0a59914f6ad8f811ecb9c4349d7977aa930ce8d71322589f14d0121038a62340d23d78ff4abee5c18a86056f6555c81d4d8970768c9ce0c1bdfa3a048ffffffff0117ad06000000000017a9140b02e298730ade18b56bd03231b9eddf41dc492d8700000000", "vin": [{"sequence": 4294967295, "scriptSig": {"hex": "4730440220730222fd39b1c80f4ad65d369ace30b05806ce431fdce18dc3ba75a866d4c9d102201b29a0e65883d0a59914f6ad8f811ecb9c4349d7977aa930ce8d71322589f14d0121038a62340d23d78ff4abee5c18a86056f6555c81d4d8970768c9ce0c1bdfa3a048", "asm": "30440220730222fd39b1c80f4ad65d369ace30b05806ce431fdce18dc3ba75a866d4c9d102201b29a0e65883d0a59914f6ad8f811ecb9c4349d7977aa930ce8d71322589f14d[ALL] 038a62340d23d78ff4abee5c18a86056f6555c81d4d8970768c9ce0c1bdfa3a048"}, "vout": 1, "txid": "63f1f7fd894b9e48eaf2e60eeafc03958904f0c13e008c587544c8f455ca8d4c"}], "txid": "447b25f757348c88f59e9357fc43219ba897438473ba55a4d5619af9a5379b10", "blocktime": 1537870564, "version": 1, "confirmations": 11515, "time": 1537870564, "locktime": 0, "vsize": 189, "size": 189}