{"hash": "7e20f0ef65a8a1e7b26f9cfd796cab39640ec1974d5040c7889151f66d1f1d36", "blockhash": "0000000000000000001f76057863aec43deb6fa401d9628bb513d65a8098bfab", "vout": [{"scriptPubKey": {"reqSigs": 1, "hex": "76a914f420f5161af42ad0c7d31d8c9b750fd3e80d8b7788ac", "addresses": ["1PFqMj31Lh7EbbkWx1jXXfJ3TvSRSmRRiD"], "asm": "OP_DUP OP_HASH160 f420f5161af42ad0c7d31d8c9b750fd3e80d8b77 OP_EQUALVERIFY OP_CHECKSIG", "type": "pubkeyhash"}, "value": 0.0015636, "n": 0}, {"scriptPubKey": {"reqSigs": 1, "hex": "a914bfe9de3e8abeadb113bdc0ebe4d5f4d88d2ee0ea87", "addresses": ["3KBm9dJa2krUBxLN6NMNsTF4S6qK3cS1g5"], "asm": "OP_HASH160 bfe9de3e8abeadb113bdc0ebe4d5f4d88d2ee0ea OP_EQUAL", "type": "scripthash"}, "value": 0.01000257, "n": 1}], "hex": "020000000001022bd93784e91abf955941d5ba831732c91d5260e9cd24b4e5825bcd2c6e964bb00100000017160014548972e9ca4db0b2b3ac4c517c9abe8d0c304832feffffff343faa24f98ffb793e5a1475e2e85607929536c652583b62488b5fc4527a10c80f00000017160014f7f2e2c63f5c1f60ae41d4ff99377b0e0311e0e5feffffff02c8620200000000001976a914f420f5161af42ad0c7d31d8c9b750fd3e80d8b7788ac41430f000000000017a914bfe9de3e8abeadb113bdc0ebe4d5f4d88d2ee0ea870247304402205f49e9b5d6756918967c11dbb81430042786ff6a2383058c35b14def203c509302205117f212e677170783f6e6958d03268110981f5eb10ffd99912b09c808b09d06012102e4cd7aa470b1d2aacaa6416a0ca82fe27fc00b42b47cc71e02127ada69888d34024730440220279e9bf8526dd1f6164c03dd35e9fecf689339b780fe3a8b0e49e96f8e1fb5ff0220443705d0ccfb0e272f0ca717e7021cc53afc870c8913a303a603ddd0d12eef69012103ecb2af1e985e84a00de7ebead8d5160a156678b5e13969e343e4a7a3162cfd5014490800", "vin": [{"txinwitness": ["304402205f49e9b5d6756918967c11dbb81430042786ff6a2383058c35b14def203c509302205117f212e677170783f6e6958d03268110981f5eb10ffd99912b09c808b09d0601", "02e4cd7aa470b1d2aacaa6416a0ca82fe27fc00b42b47cc71e02127ada69888d34"], "sequence": 4294967294, "scriptSig": {"hex": "160014548972e9ca4db0b2b3ac4c517c9abe8d0c304832", "asm": "0014548972e9ca4db0b2b3ac4c517c9abe8d0c304832"}, "vout": 1, "txid": "b04b966e2ccd5b82e5b424cde960521dc9321783bad5415995bf1ae98437d92b"}, {"txinwitness": ["30440220279e9bf8526dd1f6164c03dd35e9fecf689339b780fe3a8b0e49e96f8e1fb5ff0220443705d0ccfb0e272f0ca717e7021cc53afc870c8913a303a603ddd0d12eef6901", "03ecb2af1e985e84a00de7ebead8d5160a156678b5e13969e343e4a7a3162cfd50"], "sequence": 4294967294, "scriptSig": {"hex": "160014f7f2e2c63f5c1f60ae41d4ff99377b0e0311e0e5", "asm": "0014f7f2e2c63f5c1f60ae41d4ff99377b0e0311e0e5"}, "vout": 15, "txid": "c8107a52c45f8b48623b5852c63695920756e8e275145a3e79fb8ff924aa3f34"}], "txid": "447b8fbfe84e7b74a776740dfa0d71c281992a739c2dd98f7d4b1f5264b123f4", "blocktime": 1537873891, "version": 2, "confirmations": 11478, "time": 1537873891, "locktime": 542996, "vsize": 258, "size": 420}