{"hash": "7370de5ef0535e7a5981cdcfff04a75877063e2b1b090387f3a4b7839bda3d08", "blockhash": "000000000000000000022b45ed06c6f4ccd3cf7fb5ba4856ebd2e58215665228", "vout": [{"scriptPubKey": {"reqSigs": 1, "hex": "76a9144d01bb427a094c18727cdeb936f069c56c2ac7cc88ac", "addresses": ["182B75SLaPVaPqWX3ZXxMUCgPbZnCxqrfv"], "asm": "OP_DUP OP_HASH160 4d01bb427a094c18727cdeb936f069c56c2ac7cc OP_EQUALVERIFY OP_CHECKSIG", "type": "pubkeyhash"}, "value": 0.00332563, "n": 0}, {"scriptPubKey": {"reqSigs": 1, "hex": "a91450d4e6acff0036551d3d57ef1e4fff4b48fbea3787", "addresses": ["394R2WuJVyvbLU6eaFvxtZEKvHeocdKxbg"], "asm": "OP_HASH160 50d4e6acff0036551d3d57ef1e4fff4b48fbea37 OP_EQUAL", "type": "scripthash"}, "value": 0.01027135, "n": 1}], "hex": "020000000001025257a58f8d7e72b84b0d287dc3b7dc53eaebb870826211e271faa0cc5e63473e0000000017160014bf36e2115b8fab4ec8b7b76e7cbb04f58162e4c9feffffffe277d002fb9eeed4c87746cd8497ba3e463ac159026ef9aaabcd4b20dbbbdaf109000000171600142756c7efaab53b364afd97b00ee046a571c66e58feffffff0213130500000000001976a9144d01bb427a094c18727cdeb936f069c56c2ac7cc88ac3fac0f000000000017a91450d4e6acff0036551d3d57ef1e4fff4b48fbea378702483045022100c2be28cbcaf7c8918cf7687e70354c199f725e261ecc5e8739f7a6195e0d0cd802202325f46b232c44aca7fe2a7da5601b0b2277117f12684e7eff98b3b2d708234d012102cb08649f73710cc785c939d6d62165b0aada7abd862c6faa7a5273781b43861702483045022100bffc3a759d3de16b1636035fb6f00e56c2ed7de768fd76ffb13478dc558ab4c002205aba22725c622ae97b7e1e687cc43373affa6a960b077d7338a2f92d011da13b012102d1a02ac327f471c3645a4916322ff5ca46276e4ae39e0ef50295b6208c5829290b490800", "vin": [{"txinwitness": ["3045022100c2be28cbcaf7c8918cf7687e70354c199f725e261ecc5e8739f7a6195e0d0cd802202325f46b232c44aca7fe2a7da5601b0b2277117f12684e7eff98b3b2d708234d01", "02cb08649f73710cc785c939d6d62165b0aada7abd862c6faa7a5273781b438617"], "sequence": 4294967294, "scriptSig": {"hex": "160014bf36e2115b8fab4ec8b7b76e7cbb04f58162e4c9", "asm": "0014bf36e2115b8fab4ec8b7b76e7cbb04f58162e4c9"}, "vout": 0, "txid": "3e47635ecca0fa71e211628270b8ebea53dcb7c37d280d4bb8727e8d8fa55752"}, {"txinwitness": ["3045022100bffc3a759d3de16b1636035fb6f00e56c2ed7de768fd76ffb13478dc558ab4c002205aba22725c622ae97b7e1e687cc43373affa6a960b077d7338a2f92d011da13b01", "02d1a02ac327f471c3645a4916322ff5ca46276e4ae39e0ef50295b6208c582929"], "sequence": 4294967294, "scriptSig": {"hex": "1600142756c7efaab53b364afd97b00ee046a571c66e58", "asm": "00142756c7efaab53b364afd97b00ee046a571c66e58"}, "vout": 9, "txid": "f1dabbdb204bcdabaaf96e0259c13a463eba9784cd4677c8d4ee9efb02d077e2"}], "txid": "447c62bd7934efa4664626880d9b090e58fa060d468f36e85e51ccdde9241691", "blocktime": 1537869901, "version": 2, "confirmations": 11524, "time": 1537869901, "locktime": 542987, "vsize": 259, "size": 422}