{"hash": "d5889439b0f7784959bff93b4e6b1a869ea83ce48ac1be583e5aef1d5c5be078", "blockhash": "0000000000000000001f76057863aec43deb6fa401d9628bb513d65a8098bfab", "vout": [{"scriptPubKey": {"reqSigs": 1, "hex": "a914a014ac6441c8c4f093b794300734915f8a7f3f7a87", "addresses": ["3GHSoeekJgHqM4CTgnevoTN8oqw6TQW3Hw"], "asm": "OP_HASH160 a014ac6441c8c4f093b794300734915f8a7f3f7a OP_EQUAL", "type": "scripthash"}, "value": 0.00014257, "n": 0}, {"scriptPubKey": {"reqSigs": 1, "hex": "a9147c39cde7622d4a452f15e466f8bce35249c0ddd187", "addresses": ["3D1rxeM7ThxxuFMkvrBQ5ZWRxDSXRw5Dsf"], "asm": "OP_HASH160 7c39cde7622d4a452f15e466f8bce35249c0ddd1 OP_EQUAL", "type": "scripthash"}, "value": 0.0001, "n": 1}], "hex": "010000000001011d09fec68288ad85c52b4f5fc3f0483a1d6ec4b9b6288a5ef710dbd07f9436e900000000232200200fbd4acc7df8fb691523363cb3b798d23a8b7badb116ba2d9140894f48a245eaffffffff02b13700000000000017a914a014ac6441c8c4f093b794300734915f8a7f3f7a87102700000000000017a9147c39cde7622d4a452f15e466f8bce35249c0ddd18704004830450221009934526216704ad689c4cd255fcfc797b3282a6089d418de5deada50c484e8a302207e9198fd099e3c8bbb99672e1314dca6e1069d23b9930207ce4de5f049e3d6b50147304402200cbdea9d52f5fbe43f7734a6e6bfcc7e0933407ebad4fa18150463fd592541860220191dfe34ccce00e8200d34ccd30eb20e4aa126bf2dc8c08c019f8db9b9f6921e016952210244d5a99dd34ad53fd8e183bd2b913104c2b940a58242d9bfdbda246973e96df72103466a49c84be57dba3081719f7c5d753b88a22af8c7a99869d95543125113bc7e2103cdd876d80144d4821f9e4e8c6da90a7ce6fbaa8bc129a6b64eac26861fd5e0f653ae00000000", "vin": [{"txinwitness": ["", "30450221009934526216704ad689c4cd255fcfc797b3282a6089d418de5deada50c484e8a302207e9198fd099e3c8bbb99672e1314dca6e1069d23b9930207ce4de5f049e3d6b501", "304402200cbdea9d52f5fbe43f7734a6e6bfcc7e0933407ebad4fa18150463fd592541860220191dfe34ccce00e8200d34ccd30eb20e4aa126bf2dc8c08c019f8db9b9f6921e01", "52210244d5a99dd34ad53fd8e183bd2b913104c2b940a58242d9bfdbda246973e96df72103466a49c84be57dba3081719f7c5d753b88a22af8c7a99869d95543125113bc7e2103cdd876d80144d4821f9e4e8c6da90a7ce6fbaa8bc129a6b64eac26861fd5e0f653ae"], "sequence": 4294967295, "scriptSig": {"hex": "2200200fbd4acc7df8fb691523363cb3b798d23a8b7badb116ba2d9140894f48a245ea", "asm": "00200fbd4acc7df8fb691523363cb3b798d23a8b7badb116ba2d9140894f48a245ea"}, "vout": 0, "txid": "e936947fd0db10f75e8a28b6b9c46e1d3a48f0c35f4f2bc585ad8882c6fe091d"}], "txid": "447c7d4d3e1359ca44d9497b050b6810dfeb22048011001cffd1ce53e8f339d8", "blocktime": 1537873891, "version": 1, "confirmations": 11478, "time": 1537873891, "locktime": 0, "vsize": 214, "size": 405}