{"hash": "448b79a4b03e235806f648fe70a7de945e40ecfb02517198a25798755cfe301a", "blockhash": "0000000000000000000baef3f32e3676a92c3b2e5da21b426e4f302fc371ce76", "vout": [{"scriptPubKey": {"type": "nulldata", "hex": "6a4c50000078280001b7d718a1ed20d6560cda168f019d6ddc0f1b8ff117702940d64fa54d8eb2d5d1a0011579c7157c8eb53bf24801745baa1e860613b965dcc703ad1d100759d4ba30d2c37bb011d97e02cf", "asm": "OP_RETURN 000078280001b7d718a1ed20d6560cda168f019d6ddc0f1b8ff117702940d64fa54d8eb2d5d1a0011579c7157c8eb53bf24801745baa1e860613b965dcc703ad1d100759d4ba30d2c37bb011d97e02cf"}, "value": 0.0, "n": 0}, {"scriptPubKey": {"reqSigs": 1, "hex": "76a914a7e73fc18edcd58c151d1380b7ca9bc4d74aa02f88ac", "addresses": ["1GJnsW4uhyoNxXZQoShrYsVHTbRM382Hxh"], "asm": "OP_DUP OP_HASH160 a7e73fc18edcd58c151d1380b7ca9bc4d74aa02f OP_EQUALVERIFY OP_CHECKSIG", "type": "pubkeyhash"}, "value": 0.0063252, "n": 1}], "hex": "0100000001434fe8b997877e3ed2921d8fdcfa56cabe14174a80dd4211f3ae6fc722651fac010000006b483045022100b15ab2e81fd99ef9964914e8dddba3e21de3aac2eded955258b9aa98003b1cdf022035fc969ee563a8117d45e82b31fc3af714860aedb1d008b9024122d1a61b6a3c012102f73d6ea7af6fb8c5a23fe949a72b6a1ec37790e63d49df270adab434b70dd698ffffffff020000000000000000536a4c50000078280001b7d718a1ed20d6560cda168f019d6ddc0f1b8ff117702940d64fa54d8eb2d5d1a0011579c7157c8eb53bf24801745baa1e860613b965dcc703ad1d100759d4ba30d2c37bb011d97e02cfc8a60900000000001976a914a7e73fc18edcd58c151d1380b7ca9bc4d74aa02f88ac00000000", "vin": [{"sequence": 4294967295, "scriptSig": {"hex": "483045022100b15ab2e81fd99ef9964914e8dddba3e21de3aac2eded955258b9aa98003b1cdf022035fc969ee563a8117d45e82b31fc3af714860aedb1d008b9024122d1a61b6a3c012102f73d6ea7af6fb8c5a23fe949a72b6a1ec37790e63d49df270adab434b70dd698", "asm": "3045022100b15ab2e81fd99ef9964914e8dddba3e21de3aac2eded955258b9aa98003b1cdf022035fc969ee563a8117d45e82b31fc3af714860aedb1d008b9024122d1a61b6a3c[ALL] 02f73d6ea7af6fb8c5a23fe949a72b6a1ec37790e63d49df270adab434b70dd698"}, "vout": 1, "txid": "ac1f6522c76faef31142dd804a1714beca56fadc8f1d92d23e7e8797b9e84f43"}], "txid": "448b79a4b03e235806f648fe70a7de945e40ecfb02517198a25798755cfe301a", "blocktime": 1537876114, "version": 1, "confirmations": 11462, "time": 1537876114, "locktime": 0, "vsize": 284, "size": 284}