{"hash": "448d04b71330aa8d94ca2cdc88122853de01abdc4680b3021f29b0c0278a8986", "blockhash": "0000000000000000000e13cef7c366c0283d82e591d1acd082e914b08063cdf1", "vout": [{"scriptPubKey": {"reqSigs": 1, "hex": "76a9143a8970bdfd37285aa343d836ffb29bfe666651f788ac", "addresses": ["16LWqer1tUUaHe86A9DDDMLU35FQuwm4Mt"], "asm": "OP_DUP OP_HASH160 3a8970bdfd37285aa343d836ffb29bfe666651f7 OP_EQUALVERIFY OP_CHECKSIG", "type": "pubkeyhash"}, "value": 0.08086864, "n": 0}, {"scriptPubKey": {"reqSigs": 1, "hex": "76a9140c2e781e89fdee8b922162858d0ac3d64edc9a8c88ac", "addresses": ["127Qn3JY4yN9pVXHQizisT5x8qJFobkmSA"], "asm": "OP_DUP OP_HASH160 0c2e781e89fdee8b922162858d0ac3d64edc9a8c OP_EQUALVERIFY OP_CHECKSIG", "type": "pubkeyhash"}, "value": 0.38549023, "n": 1}], "hex": "010000000194e224860b671fd72e62f4ec8a4622e650e3ef2fdfcf7914876aac747fbb194f030000006a4730440220243967f9aece57e41763a00dd0a42fd6be2c5ad96790d412f49431c86e520edf02202d2e08e170a3ffe3ec2348d6877b054e77173af558e233d8d75f6552804873b401210333c14593adea09fe489f9e7d6ad0a9f6f3d5ce99eb566d714bdfa078fe0ac52fffffffff0250657b00000000001976a9143a8970bdfd37285aa343d836ffb29bfe666651f788ac1f364c02000000001976a9140c2e781e89fdee8b922162858d0ac3d64edc9a8c88ac00000000", "vin": [{"sequence": 4294967295, "scriptSig": {"hex": "4730440220243967f9aece57e41763a00dd0a42fd6be2c5ad96790d412f49431c86e520edf02202d2e08e170a3ffe3ec2348d6877b054e77173af558e233d8d75f6552804873b401210333c14593adea09fe489f9e7d6ad0a9f6f3d5ce99eb566d714bdfa078fe0ac52f", "asm": "30440220243967f9aece57e41763a00dd0a42fd6be2c5ad96790d412f49431c86e520edf02202d2e08e170a3ffe3ec2348d6877b054e77173af558e233d8d75f6552804873b4[ALL] 0333c14593adea09fe489f9e7d6ad0a9f6f3d5ce99eb566d714bdfa078fe0ac52f"}, "vout": 3, "txid": "4f19bb7f74ac6a871479cfdf2fefe350e622468aecf4622ed71f670b8624e294"}], "txid": "448d04b71330aa8d94ca2cdc88122853de01abdc4680b3021f29b0c0278a8986", "blocktime": 1537871767, "version": 1, "confirmations": 11495, "time": 1537871767, "locktime": 0, "vsize": 225, "size": 225}