{"hash": "449593742685dbc08bcce28daff3ff3c898de9efc40174c26e46c36d0d422dd4", "blockhash": "00000000000000000024a2167bbff67b0be802c0b01cdd79e6331c2be6459f87", "vout": [{"scriptPubKey": {"reqSigs": 1, "hex": "a91481cb74f1ac7dafc53753a60c769f57fa53b1527187", "addresses": ["3DXJpiYQXh5nGu8BJ8ZJTQQRzPFfhWunTh"], "asm": "OP_HASH160 81cb74f1ac7dafc53753a60c769f57fa53b15271 OP_EQUAL", "type": "scripthash"}, "value": 0.00049755, "n": 0}], "hex": "01000000023b12b24817a3a15dd0f8abbb1ca8442d2ceb920230272dae079a7d929bccf38d090000006b483045022100bc919915bd60788d36e06f3e49ac5dc13ad0fea3eb2e4b8c7776a2b19e9f767d02203885ec50232892085c58ecc6a2d6fd50a3a7f87d6ec8cb84e1aa9262935cc24a01210314a3297a5ad58e167605fb1462608adf192fa9eb03d373a97486fad952661a71ffffffffa96f0f7a3d444ca061af6239f326676929e58df66c6ae8bc8df5ccab869a8ec1000000006a473044022029c702f62fbb8f92885afba48daa2f3f0d9ad47d95fbead4227c6fc01f4e2d6c0220585bf314b7cca758067c2019744ad989aa45e66af70e5e2f9bd8bead0103beaa012103851ee2325e35450ee598a193631939bb3862dc44256ec84eadf6634273a7693fffffffff015bc200000000000017a91481cb74f1ac7dafc53753a60c769f57fa53b152718700000000", "vin": [{"sequence": 4294967295, "scriptSig": {"hex": "483045022100bc919915bd60788d36e06f3e49ac5dc13ad0fea3eb2e4b8c7776a2b19e9f767d02203885ec50232892085c58ecc6a2d6fd50a3a7f87d6ec8cb84e1aa9262935cc24a01210314a3297a5ad58e167605fb1462608adf192fa9eb03d373a97486fad952661a71", "asm": "3045022100bc919915bd60788d36e06f3e49ac5dc13ad0fea3eb2e4b8c7776a2b19e9f767d02203885ec50232892085c58ecc6a2d6fd50a3a7f87d6ec8cb84e1aa9262935cc24a[ALL] 0314a3297a5ad58e167605fb1462608adf192fa9eb03d373a97486fad952661a71"}, "vout": 9, "txid": "8df3cc9b927d9a07ae2d27300292eb2c2d44a81cbbabf8d05da1a31748b2123b"}, {"sequence": 4294967295, "scriptSig": {"hex": "473044022029c702f62fbb8f92885afba48daa2f3f0d9ad47d95fbead4227c6fc01f4e2d6c0220585bf314b7cca758067c2019744ad989aa45e66af70e5e2f9bd8bead0103beaa012103851ee2325e35450ee598a193631939bb3862dc44256ec84eadf6634273a7693f", "asm": "3044022029c702f62fbb8f92885afba48daa2f3f0d9ad47d95fbead4227c6fc01f4e2d6c0220585bf314b7cca758067c2019744ad989aa45e66af70e5e2f9bd8bead0103beaa[ALL] 03851ee2325e35450ee598a193631939bb3862dc44256ec84eadf6634273a7693f"}, "vout": 0, "txid": "c18e9a86abccf58dbce86a6cf68de529696726f33962af61a04c443d7a0f6fa9"}], "txid": "449593742685dbc08bcce28daff3ff3c898de9efc40174c26e46c36d0d422dd4", "blocktime": 1537870564, "version": 1, "confirmations": 11515, "time": 1537870564, "locktime": 0, "vsize": 337, "size": 337}