{"hash": "6e22492459703ba7d75594166892ceee243ffc50c7cd17d0989c9c7b18efe31d", "blockhash": "0000000000000000001f76057863aec43deb6fa401d9628bb513d65a8098bfab", "vout": [{"scriptPubKey": {"reqSigs": 1, "hex": "a9149239dcc00e351f481d388d2ea823b4d93fd890cd87", "addresses": ["3F2BttqEWCpAPhdAMRqBcgFH8PQctc1ZZh"], "asm": "OP_HASH160 9239dcc00e351f481d388d2ea823b4d93fd890cd OP_EQUAL", "type": "scripthash"}, "value": 0.01953788, "n": 0}, {"scriptPubKey": {"reqSigs": 1, "hex": "a9145e7505d0a95c1eadac9c4b5b3e10125824064b6887", "addresses": ["3AJTdTSHEcbqF98rVmgNq73cY4Z73qi17i"], "asm": "OP_HASH160 5e7505d0a95c1eadac9c4b5b3e10125824064b68 OP_EQUAL", "type": "scripthash"}, "value": 0.01, "n": 1}], "hex": "020000000001022bf975261a98556e73076c2ac7d34fd520d9d9c2f9aeac3a483b9dd141a53c9c0000000017160014f2058994ccc769b719dc5b24c1fcaf10b3323695feffffff38f66156f5850ac7d00f97ec47cacbdf7457a99e38e9a169d5b4eba25a3113690000000017160014a023997ea28d8815a9e634cab5e4e6b01ff59a59feffffff02fccf1d000000000017a9149239dcc00e351f481d388d2ea823b4d93fd890cd8740420f000000000017a9145e7505d0a95c1eadac9c4b5b3e10125824064b688702483045022100a1a13f2e5ec1d8c314ebcd3c00d9c4af84320bc43aba88d603fb2194b67bbdb9022013d246435b64b995e7037b550fdafd9901238b295eb151973fee019772b1760d0121034201f24bab6fa7a9571fd3f1c49b2862b6d1e6eaaee55f69225f70891692dfcb02483045022100db2d1766967050ca26d5e569747533236f00946262565903b05d39c35ce63e9a022050aef38c7c1976c1e1280f05a2bf8eae4cfe01fe6031c00381b51bffc181eec8012102004002549f4e8595357eec46491d68cdbe5565cf46d0b4f3e55f4f7278ec4eab14490800", "vin": [{"txinwitness": ["3045022100a1a13f2e5ec1d8c314ebcd3c00d9c4af84320bc43aba88d603fb2194b67bbdb9022013d246435b64b995e7037b550fdafd9901238b295eb151973fee019772b1760d01", "034201f24bab6fa7a9571fd3f1c49b2862b6d1e6eaaee55f69225f70891692dfcb"], "sequence": 4294967294, "scriptSig": {"hex": "160014f2058994ccc769b719dc5b24c1fcaf10b3323695", "asm": "0014f2058994ccc769b719dc5b24c1fcaf10b3323695"}, "vout": 0, "txid": "9c3ca541d19d3b483aacaef9c2d9d920d54fd3c72a6c07736e55981a2675f92b"}, {"txinwitness": ["3045022100db2d1766967050ca26d5e569747533236f00946262565903b05d39c35ce63e9a022050aef38c7c1976c1e1280f05a2bf8eae4cfe01fe6031c00381b51bffc181eec801", "02004002549f4e8595357eec46491d68cdbe5565cf46d0b4f3e55f4f7278ec4eab"], "sequence": 4294967294, "scriptSig": {"hex": "160014a023997ea28d8815a9e634cab5e4e6b01ff59a59", "asm": "0014a023997ea28d8815a9e634cab5e4e6b01ff59a59"}, "vout": 0, "txid": "6913315aa2ebb4d569a1e9389ea95774dfcbca47ec970fd0c70a85f55661f638"}], "txid": "44992fcfe48ffb913fa34ee1a3b1d31ce1893d2908c882c6af61803c98812f55", "blocktime": 1537873891, "version": 2, "confirmations": 11478, "time": 1537873891, "locktime": 542996, "vsize": 257, "size": 420}