{"hash": "25d06c47e0431f103438cb4980b0fac689d841197e6671923a34969396a86c62", "blockhash": "00000000000000000004ffacab907a6b429b9a5745fa0b75af4234bf69dd7176", "vout": [{"scriptPubKey": {"reqSigs": 1, "hex": "a914c7271ddb5f13a350e5bd2329d862c04fa21f7ae887", "addresses": ["3Kr3Fb7gT7U6NPVGXWLrzSD8ckEMxERJEg"], "asm": "OP_HASH160 c7271ddb5f13a350e5bd2329d862c04fa21f7ae8 OP_EQUAL", "type": "scripthash"}, "value": 0.00999754, "n": 0}, {"scriptPubKey": {"reqSigs": 1, "hex": "a9148cdbee148816c05189868662d7f0caa06fdc2f0f87", "addresses": ["3EXozQQXPhh9jaF1LrMVZAbQ25nVK3mP2n"], "asm": "OP_HASH160 8cdbee148816c05189868662d7f0caa06fdc2f0f OP_EQUAL", "type": "scripthash"}, "value": 0.01140538, "n": 1}], "hex": "020000000001026ac3ce8831ba8a28ba0481334878f9c4cb3405e2023af6f05997f5ba399238dd0700000017160014cbeabc05f85fbbfe0ae1923ca700897750841a9efeffffffc0ffe871618f097d6ab6a25e524768eda604752123a3d4d5c350203265c051693701000017160014cc82defbd9ea17e7f376ec2c3f7724b1ef2889bcfeffffff024a410f000000000017a914c7271ddb5f13a350e5bd2329d862c04fa21f7ae8873a6711000000000017a9148cdbee148816c05189868662d7f0caa06fdc2f0f870247304402202c150f64d0e9602d0206221e2df9732be49e3ba4f169f7eb793e2759f81f804d02206c1e7f32fb2375cea3a82b23191cf6c1d248bb93536a164ac2bb7a5bd31bbdb101210215b607a123f420a87dce319ad666eb50cbe603035525eba18c0b9845938ba133024830450221009924d1e58c33e858f4f32fe35ac9c95c7571702f00c2ac776dfc029b80d7007502201ce698f4e740ec44b2039a1851dda9a2a51413a1cf458a74a8d9c08bf674498601210207453ec15b79ba231f68a4b1434220f8f3bd1c4d29ed7be6692558262ed110d616490800", "vin": [{"txinwitness": ["304402202c150f64d0e9602d0206221e2df9732be49e3ba4f169f7eb793e2759f81f804d02206c1e7f32fb2375cea3a82b23191cf6c1d248bb93536a164ac2bb7a5bd31bbdb101", "0215b607a123f420a87dce319ad666eb50cbe603035525eba18c0b9845938ba133"], "sequence": 4294967294, "scriptSig": {"hex": "160014cbeabc05f85fbbfe0ae1923ca700897750841a9e", "asm": "0014cbeabc05f85fbbfe0ae1923ca700897750841a9e"}, "vout": 7, "txid": "dd389239baf59759f0f63a02e20534cbc4f97848338104ba288aba3188cec36a"}, {"txinwitness": ["30450221009924d1e58c33e858f4f32fe35ac9c95c7571702f00c2ac776dfc029b80d7007502201ce698f4e740ec44b2039a1851dda9a2a51413a1cf458a74a8d9c08bf674498601", "0207453ec15b79ba231f68a4b1434220f8f3bd1c4d29ed7be6692558262ed110d6"], "sequence": 4294967294, "scriptSig": {"hex": "160014cc82defbd9ea17e7f376ec2c3f7724b1ef2889bc", "asm": "0014cc82defbd9ea17e7f376ec2c3f7724b1ef2889bc"}, "vout": 311, "txid": "6951c065322050c3d5d4a323217504a6ed6847525ea2b66a7d098f6171e8ffc0"}], "txid": "449be9b428cfbcbaa9a2af0f6261bb1583c2382be5ffe6214ec1200f7e99a5a2", "blocktime": 1537875543, "version": 2, "confirmations": 11464, "time": 1537875543, "locktime": 542998, "vsize": 257, "size": 419}