{"hash": "41d03ae4f2e1348eb1a1086695c9d796fbb86d9f541dad9ac57ca0a734e92a9d", "blockhash": "0000000000000000000e13cef7c366c0283d82e591d1acd082e914b08063cdf1", "vout": [{"scriptPubKey": {"reqSigs": 1, "hex": "0014a65590ab06201761ccdef31102b40e96e520e5d1", "addresses": ["bc1q5e2ep2cxyqtkrnx77vgs9dqwjmjjpew3eqlp77"], "asm": "0 a65590ab06201761ccdef31102b40e96e520e5d1", "type": "witness_v0_keyhash"}, "value": 1.416e-05, "n": 0}, {"scriptPubKey": {"reqSigs": 1, "hex": "76a914e17ad1042b958780532d027dfaae291439de5e3288ac", "addresses": ["1MZEAbndvvSmoC2TkvpZxsntsvvDue8jnr"], "asm": "OP_DUP OP_HASH160 e17ad1042b958780532d027dfaae291439de5e32 OP_EQUALVERIFY OP_CHECKSIG", "type": "pubkeyhash"}, "value": 0.00129614, "n": 1}], "hex": "010000000001017ae4afbd63ac0721767f15dab161bc8ac7f27387c4a084eaf0eab89f089efb780100000000ffffffff028805000000000000160014a65590ab06201761ccdef31102b40e96e520e5d14efa0100000000001976a914e17ad1042b958780532d027dfaae291439de5e3288ac02483045022100b3a38ba8f9a371d1067772c7a915b904ac57b03aee16c05a1e31771f026dc18e022046e82334f189435323faa8c4352a8dda7edaf268b92c36aace0fa8438e7e2f86012103c90e1906c877ca639e50e8bab122378f68e8418ccdfd2104745d9428a0df204d00000000", "vin": [{"txinwitness": ["3045022100b3a38ba8f9a371d1067772c7a915b904ac57b03aee16c05a1e31771f026dc18e022046e82334f189435323faa8c4352a8dda7edaf268b92c36aace0fa8438e7e2f8601", "03c90e1906c877ca639e50e8bab122378f68e8418ccdfd2104745d9428a0df204d"], "sequence": 4294967295, "scriptSig": {"hex": "", "asm": ""}, "vout": 1, "txid": "78fb9e089fb8eaf0ea84a0c48773f2c78abc61b1da157f762107ac63bdafe47a"}], "txid": "44a0aa965bc2a6a320275013547c2b4e880e6273a30f5e6b57ba35730873537e", "blocktime": 1537871767, "version": 1, "confirmations": 11495, "time": 1537871767, "locktime": 0, "vsize": 144, "size": 226}