{"hash": "db050f0ec5c8f98884218279bb168d60915e1e9350fafb8648b50d93c95672aa", "blockhash": "0000000000000000001f76057863aec43deb6fa401d9628bb513d65a8098bfab", "vout": [{"scriptPubKey": {"reqSigs": 1, "hex": "76a914f1eedb44830b3290348a2c9e2831f639bd1ac94188ac", "addresses": ["1P4DzGpJjFe4E9aHHDM3LomYCbjAZP7gja"], "asm": "OP_DUP OP_HASH160 f1eedb44830b3290348a2c9e2831f639bd1ac941 OP_EQUALVERIFY OP_CHECKSIG", "type": "pubkeyhash"}, "value": 0.0031086, "n": 0}, {"scriptPubKey": {"reqSigs": 1, "hex": "a914b89e5df093aa4fe6db9a45135e4dfa6539dbe13487", "addresses": ["3JXByNNYxJWLVMJFvjvBFpdF3QhbfXSqep"], "asm": "OP_HASH160 b89e5df093aa4fe6db9a45135e4dfa6539dbe134 OP_EQUAL", "type": "scripthash"}, "value": 0.01005623, "n": 1}], "hex": "020000000001025606fc669ce3c2f95ebc131764a7264a8f2c7f5af0888e51696a5b23fd6e0f790000000017160014114803aae213a4a77b937b0661140d1933e805a7feffffffbb3e740432e123a2c4b6a983d337e100df3dbf54cc6a8f3b2517733f611aee1b0100000017160014576fc5ae350d40409614b1acf194ada5d71cbdcffeffffff024cbe0400000000001976a914f1eedb44830b3290348a2c9e2831f639bd1ac94188ac37580f000000000017a914b89e5df093aa4fe6db9a45135e4dfa6539dbe1348702483045022100dc8b450665b38690287747111eb76c58cf20aafe9d9890a8f29a62137dc8a483022054c251e7aae1f185e02a14ad6af68b31d9e9a31f5810fb103d531f94988ed3de0121038d97991015dd97cfdf1cf34275fa4b46a022e906eb59e78553d08a51f5b6d27d0247304402200f3efad12d241cd92045f701f40276109b4fff380ffc07c74e80faef4ed83d6702207eb6284e916e602b0d89f9f016a167e7b3fd6d496b354a1bc3676136255b97030121036574533e8b7a2477d6ea5ae3fec7748d8ad20a79a7d316b8faecb69a445cff9a14490800", "vin": [{"txinwitness": ["3045022100dc8b450665b38690287747111eb76c58cf20aafe9d9890a8f29a62137dc8a483022054c251e7aae1f185e02a14ad6af68b31d9e9a31f5810fb103d531f94988ed3de01", "038d97991015dd97cfdf1cf34275fa4b46a022e906eb59e78553d08a51f5b6d27d"], "sequence": 4294967294, "scriptSig": {"hex": "160014114803aae213a4a77b937b0661140d1933e805a7", "asm": "0014114803aae213a4a77b937b0661140d1933e805a7"}, "vout": 0, "txid": "790f6efd235b6a69518e88f05a7f2c8f4a26a7641713bc5ef9c2e39c66fc0656"}, {"txinwitness": ["304402200f3efad12d241cd92045f701f40276109b4fff380ffc07c74e80faef4ed83d6702207eb6284e916e602b0d89f9f016a167e7b3fd6d496b354a1bc3676136255b970301", "036574533e8b7a2477d6ea5ae3fec7748d8ad20a79a7d316b8faecb69a445cff9a"], "sequence": 4294967294, "scriptSig": {"hex": "160014576fc5ae350d40409614b1acf194ada5d71cbdcf", "asm": "0014576fc5ae350d40409614b1acf194ada5d71cbdcf"}, "vout": 1, "txid": "1bee1a613f7317253b8f6acc54bf3ddf00e137d383a9b6c4a223e13204743ebb"}], "txid": "44a5fa4eaa423074c1e62c00dc1467be4a7e1d1d93d6358ed6bbdb4efe8a72ac", "blocktime": 1537873891, "version": 2, "confirmations": 11478, "time": 1537873891, "locktime": 542996, "vsize": 259, "size": 421}