{"hash": "44a8d9230a2da4d8a83b75c51795735e67180ea154ccc2e6ebd6349d78d34137", "blockhash": "0000000000000000001cda96e906b7601b7a6fb1a3b62bca570a9e5d8f4b3de1", "vout": [{"scriptPubKey": {"reqSigs": 1, "hex": "a9143877193c6eb1c7e5589fbe41a5fcfc3169ebb28c87", "addresses": ["36qaSQBiomaYt1dZeSL7AR5M3R9moRcmuv"], "asm": "OP_HASH160 3877193c6eb1c7e5589fbe41a5fcfc3169ebb28c OP_EQUAL", "type": "scripthash"}, "value": 0.0047374, "n": 0}, {"scriptPubKey": {"reqSigs": 1, "hex": "76a91440b7c740424798ae51e3a6627e0560a3e963558c88ac", "addresses": ["16uCQRJS15436dQmV9VrmC17Njw7hEnTBd"], "asm": "OP_DUP OP_HASH160 40b7c740424798ae51e3a6627e0560a3e963558c OP_EQUALVERIFY OP_CHECKSIG", "type": "pubkeyhash"}, "value": 0.15248797, "n": 1}], "hex": "0100000001c3ed440cec599dc5739cfc535877b1df5d873b86ee8a3352c0882b5902bce56f010000006b483045022100dfc715840b2fee50d6ef5023fa23146c3bbdbef667282e5f1542e6daa301dd9402201bff95ddc9894b1737ed1f4b51b5cf72e7ff8b1b8a0969b73e4b584b8a970aea01210309d85221f4e84c5c5284853b6ce565a3afcaff98d9459e63e0ab54999f6f3cc3ffffffff028c3a07000000000017a9143877193c6eb1c7e5589fbe41a5fcfc3169ebb28c879dade800000000001976a91440b7c740424798ae51e3a6627e0560a3e963558c88ac00000000", "vin": [{"sequence": 4294967295, "scriptSig": {"hex": "483045022100dfc715840b2fee50d6ef5023fa23146c3bbdbef667282e5f1542e6daa301dd9402201bff95ddc9894b1737ed1f4b51b5cf72e7ff8b1b8a0969b73e4b584b8a970aea01210309d85221f4e84c5c5284853b6ce565a3afcaff98d9459e63e0ab54999f6f3cc3", "asm": "3045022100dfc715840b2fee50d6ef5023fa23146c3bbdbef667282e5f1542e6daa301dd9402201bff95ddc9894b1737ed1f4b51b5cf72e7ff8b1b8a0969b73e4b584b8a970aea[ALL] 0309d85221f4e84c5c5284853b6ce565a3afcaff98d9459e63e0ab54999f6f3cc3"}, "vout": 1, "txid": "6fe5bc02592b88c052338aee863b875ddfb1775853fc9c73c59d59ec0c44edc3"}], "txid": "44a8d9230a2da4d8a83b75c51795735e67180ea154ccc2e6ebd6349d78d34137", "blocktime": 1537873282, "version": 1, "confirmations": 11481, "time": 1537873282, "locktime": 0, "vsize": 224, "size": 224}