{"hash": "44abd5d5685e3a0008321d4a5cdad52345f36ee91a7f494ba4ceb4a51c1af752", "blockhash": "0000000000000000001f76057863aec43deb6fa401d9628bb513d65a8098bfab", "vout": [{"scriptPubKey": {"reqSigs": 1, "hex": "76a9145df36cb9e9a46d85f69694023e0046b9600209eb88ac", "addresses": ["19ZmTHa9wiT6YWstCkTCuxNs6TLWpPDNpv"], "asm": "OP_DUP OP_HASH160 5df36cb9e9a46d85f69694023e0046b9600209eb OP_EQUALVERIFY OP_CHECKSIG", "type": "pubkeyhash"}, "value": 2.235e-05, "n": 0}, {"scriptPubKey": {"reqSigs": 1, "hex": "a914f59cc4d2df3706cc561608256115284de8e6269187", "addresses": ["3Q5hH2q5x2VPEPRffRofwyXBModD1J1a2J"], "asm": "OP_HASH160 f59cc4d2df3706cc561608256115284de8e62691 OP_EQUAL", "type": "scripthash"}, "value": 0.0010925, "n": 1}], "hex": "01000000021385b66ad7aca30a1bcf1f3580cfeca297ce345672a83a8b44f57ea0045d3d01000000006b48304502210091f1198f5245212c0be33b58e23a042c54a643f8512e7a0e51edfb6303c648de02203dc5980475e6b4bbf5bd5d5c19733bd9d6ad7b1ec0d427ec6ee13195ccbb333e0121034b5df090aa3d8ed99fb3aa598201338af0b806d5a930d67824cc3542623b59f6ffffffff8b7dc6e1c9d8a2b14cdf4d4e0ef8b6777d1385fd1c4b574b18b9bb07b61e547a010000006a47304402207aa68a1e94795768794fc436d6483dfe86a6593c9d0e48e27d17a20958482db902206fd646b1cf0a1e51bc42b7f1727c57657f4c31fb1ed8a59b926bda930b1f3af4012102cac371b509ea6dc258ecffc2fe5378ae367770c9b1da62366cd39ae9af1cf139ffffffff02bb080000000000001976a9145df36cb9e9a46d85f69694023e0046b9600209eb88acc2aa01000000000017a914f59cc4d2df3706cc561608256115284de8e626918700000000", "vin": [{"sequence": 4294967295, "scriptSig": {"hex": "48304502210091f1198f5245212c0be33b58e23a042c54a643f8512e7a0e51edfb6303c648de02203dc5980475e6b4bbf5bd5d5c19733bd9d6ad7b1ec0d427ec6ee13195ccbb333e0121034b5df090aa3d8ed99fb3aa598201338af0b806d5a930d67824cc3542623b59f6", "asm": "304502210091f1198f5245212c0be33b58e23a042c54a643f8512e7a0e51edfb6303c648de02203dc5980475e6b4bbf5bd5d5c19733bd9d6ad7b1ec0d427ec6ee13195ccbb333e[ALL] 034b5df090aa3d8ed99fb3aa598201338af0b806d5a930d67824cc3542623b59f6"}, "vout": 0, "txid": "013d5d04a07ef5448b3aa8725634ce97a2eccf80351fcf1b0aa3acd76ab68513"}, {"sequence": 4294967295, "scriptSig": {"hex": "47304402207aa68a1e94795768794fc436d6483dfe86a6593c9d0e48e27d17a20958482db902206fd646b1cf0a1e51bc42b7f1727c57657f4c31fb1ed8a59b926bda930b1f3af4012102cac371b509ea6dc258ecffc2fe5378ae367770c9b1da62366cd39ae9af1cf139", "asm": "304402207aa68a1e94795768794fc436d6483dfe86a6593c9d0e48e27d17a20958482db902206fd646b1cf0a1e51bc42b7f1727c57657f4c31fb1ed8a59b926bda930b1f3af4[ALL] 02cac371b509ea6dc258ecffc2fe5378ae367770c9b1da62366cd39ae9af1cf139"}, "vout": 1, "txid": "7a541eb607bbb9184b574b1cfd85137d77b6f80e4e4ddf4cb1a2d8c9e1c67d8b"}], "txid": "44abd5d5685e3a0008321d4a5cdad52345f36ee91a7f494ba4ceb4a51c1af752", "blocktime": 1537873891, "version": 1, "confirmations": 11478, "time": 1537873891, "locktime": 0, "vsize": 371, "size": 371}