{"hash": "44b0f9d3ca6c64c0321a02fd5b78c4977e16090e0ab679c44c428dd5e6098107", "blockhash": "0000000000000000001cda96e906b7601b7a6fb1a3b62bca570a9e5d8f4b3de1", "vout": [{"scriptPubKey": {"reqSigs": 1, "hex": "76a914567afcfedc0ed798af8ae1bd82ff30a551e201f788ac", "addresses": ["18tGSsZjQUqic17o3doUkQbCqaHKjgZFqk"], "asm": "OP_DUP OP_HASH160 567afcfedc0ed798af8ae1bd82ff30a551e201f7 OP_EQUALVERIFY OP_CHECKSIG", "type": "pubkeyhash"}, "value": 0.0154569, "n": 0}, {"scriptPubKey": {"reqSigs": 1, "hex": "76a91492e7262072ed7d763a145ea0df1747178ea20cab88ac", "addresses": ["1EPkZWxyh8hsAand2ncEjd5uat2TnD5CiD"], "asm": "OP_DUP OP_HASH160 92e7262072ed7d763a145ea0df1747178ea20cab OP_EQUALVERIFY OP_CHECKSIG", "type": "pubkeyhash"}, "value": 0.39686214, "n": 1}], "hex": "01000000012b9f7f8982f4676eaa49f7ca3d57cf4a520ef22cd7c3154044d0730f0a49a26d010000006a4730440220101c8d948c5694f91cdfc8fbbd70deb8c533c65f3d8261af444f200fe552ba43022002baabdbc68024bc768a1f93175250ea8fb142214d9301f868be28fc04051b4c0121021553527fc37b295e753fa0dd91ffb767c98d2b2bf04399947586665521665ebaffffffff02da951700000000001976a914567afcfedc0ed798af8ae1bd82ff30a551e201f788ac46905d02000000001976a91492e7262072ed7d763a145ea0df1747178ea20cab88ac00000000", "vin": [{"sequence": 4294967295, "scriptSig": {"hex": "4730440220101c8d948c5694f91cdfc8fbbd70deb8c533c65f3d8261af444f200fe552ba43022002baabdbc68024bc768a1f93175250ea8fb142214d9301f868be28fc04051b4c0121021553527fc37b295e753fa0dd91ffb767c98d2b2bf04399947586665521665eba", "asm": "30440220101c8d948c5694f91cdfc8fbbd70deb8c533c65f3d8261af444f200fe552ba43022002baabdbc68024bc768a1f93175250ea8fb142214d9301f868be28fc04051b4c[ALL] 021553527fc37b295e753fa0dd91ffb767c98d2b2bf04399947586665521665eba"}, "vout": 1, "txid": "6da2490a0f73d0444015c3d72cf20e524acf573dcaf749aa6e67f482897f9f2b"}], "txid": "44b0f9d3ca6c64c0321a02fd5b78c4977e16090e0ab679c44c428dd5e6098107", "blocktime": 1537873282, "version": 1, "confirmations": 11484, "time": 1537873282, "locktime": 0, "vsize": 225, "size": 225}