{"hash": "44b4121b7ad03896123d0522eea65a24181376bdfd152ceb7ef229f4348fe9ea", "blockhash": "0000000000000000001cda96e906b7601b7a6fb1a3b62bca570a9e5d8f4b3de1", "vout": [{"scriptPubKey": {"reqSigs": 1, "hex": "76a91437851ba1c65f6b782089544d683e7f9a7c896dee88ac", "addresses": ["164Zd42uKhJYSHm3EHRJddwBejYosNZJwp"], "asm": "OP_DUP OP_HASH160 37851ba1c65f6b782089544d683e7f9a7c896dee OP_EQUALVERIFY OP_CHECKSIG", "type": "pubkeyhash"}, "value": 0.04099552, "n": 0}], "hex": "01000000016048cbc9203a4b61b45714addcd219e4e6e5e5289f6f97408bb16995b20ddb49000000008b483045022100e5371aaa043115e321f23a850f3355bf8f2db7b6030f484e52a75f0d554c8d6402205a7280dc318675cf5f81a92d8c908de47a1c47e15b3c5dd96a4533eb6583b0200141048d92f623cbc5221924e5104d367a479b0d15891d34386c46875cf39247d9508522f902e73a6bc26478a865b1b069e0dc14e3c3885b093fc39b2e50e6eb2d3be6ffffffff01e08d3e00000000001976a91437851ba1c65f6b782089544d683e7f9a7c896dee88ac00000000", "vin": [{"sequence": 4294967295, "scriptSig": {"hex": "483045022100e5371aaa043115e321f23a850f3355bf8f2db7b6030f484e52a75f0d554c8d6402205a7280dc318675cf5f81a92d8c908de47a1c47e15b3c5dd96a4533eb6583b0200141048d92f623cbc5221924e5104d367a479b0d15891d34386c46875cf39247d9508522f902e73a6bc26478a865b1b069e0dc14e3c3885b093fc39b2e50e6eb2d3be6", "asm": "3045022100e5371aaa043115e321f23a850f3355bf8f2db7b6030f484e52a75f0d554c8d6402205a7280dc318675cf5f81a92d8c908de47a1c47e15b3c5dd96a4533eb6583b020[ALL] 048d92f623cbc5221924e5104d367a479b0d15891d34386c46875cf39247d9508522f902e73a6bc26478a865b1b069e0dc14e3c3885b093fc39b2e50e6eb2d3be6"}, "vout": 0, "txid": "49db0db29569b18b40976f9f28e5e5e6e419d2dcad1457b4614b3a20c9cb4860"}], "txid": "44b4121b7ad03896123d0522eea65a24181376bdfd152ceb7ef229f4348fe9ea", "blocktime": 1537873282, "version": 1, "confirmations": 11485, "time": 1537873282, "locktime": 0, "vsize": 224, "size": 224}