{"hash": "44b4dd5f6bb6ef9a27c7338d258fa049a12cf059f875c3a1574caa7834193c42", "blockhash": "0000000000000000001e0dab787dd257d1dbfcb92a98c2207d5e1078be1f4165", "vout": [{"scriptPubKey": {"reqSigs": 1, "hex": "76a914067578bb315594bbd4120dc40eb2334a0884346588ac", "addresses": ["1b9nDqPe8MFb8i1y6ef9m14qhqXEUAD3k"], "asm": "OP_DUP OP_HASH160 067578bb315594bbd4120dc40eb2334a08843465 OP_EQUALVERIFY OP_CHECKSIG", "type": "pubkeyhash"}, "value": 0.01642501, "n": 0}], "hex": "01000000036e94e628e629b613bc8d4e573b8d6a0c33383a9ffff8f1be7e101174f455c13d010000006a4730440220792d1c482503a7330eaa1269e39bc688414de10774b55a3871fe7da38a76448d022076cee5cffd0b3a2ca9da1089d7530533fb0fb84a1233335d77c83e69f9bee94d01210313574e05e3f3310b21cd41e2570aae7c9a0cb18d1f99e9d7c2126cfaad6a3232ffffffffb5dc84323872e2498a9c6e0f1fbae66ff5a7d44193a0aadb6ae4afab2b7a1852010000006a47304402206e1030af7a60cd5e9ab1b4097de2860c983308b3d87615411aed1dd22696c43f02206deabea8a79c05fee3bde02dc3205fc611fed36580348710f6ca0e51a802fb89012102f345ba51bc179fe092545830ba6ff5be2f38058e5538ca8c959ec8c0eea14d61ffffffffca8990ea711d8f528f8b66823dbdcf7072295e2048b68c730b23277ae7fc7c8c000000006b483045022100ff79663d55347be3cf8411c19d329cadd0d562fec1b2aad8bee776a982f86010022023c6d64bd05ee0c2c881a01e483a253ed276e7446577cf33f0a64d2567e44b4e01210328ddfeff29ee85ed609b3cc9bfa6f82e2690a468e374a9290201ea5bcee4a667ffffffff0105101900000000001976a914067578bb315594bbd4120dc40eb2334a0884346588ac00000000", "vin": [{"sequence": 4294967295, "scriptSig": {"hex": "4730440220792d1c482503a7330eaa1269e39bc688414de10774b55a3871fe7da38a76448d022076cee5cffd0b3a2ca9da1089d7530533fb0fb84a1233335d77c83e69f9bee94d01210313574e05e3f3310b21cd41e2570aae7c9a0cb18d1f99e9d7c2126cfaad6a3232", "asm": "30440220792d1c482503a7330eaa1269e39bc688414de10774b55a3871fe7da38a76448d022076cee5cffd0b3a2ca9da1089d7530533fb0fb84a1233335d77c83e69f9bee94d[ALL] 0313574e05e3f3310b21cd41e2570aae7c9a0cb18d1f99e9d7c2126cfaad6a3232"}, "vout": 1, "txid": "3dc155f47411107ebef1f8ff9f3a38330c6a8d3b574e8dbc13b629e628e6946e"}, {"sequence": 4294967295, "scriptSig": {"hex": "47304402206e1030af7a60cd5e9ab1b4097de2860c983308b3d87615411aed1dd22696c43f02206deabea8a79c05fee3bde02dc3205fc611fed36580348710f6ca0e51a802fb89012102f345ba51bc179fe092545830ba6ff5be2f38058e5538ca8c959ec8c0eea14d61", "asm": "304402206e1030af7a60cd5e9ab1b4097de2860c983308b3d87615411aed1dd22696c43f02206deabea8a79c05fee3bde02dc3205fc611fed36580348710f6ca0e51a802fb89[ALL] 02f345ba51bc179fe092545830ba6ff5be2f38058e5538ca8c959ec8c0eea14d61"}, "vout": 1, "txid": "52187a2babafe46adbaaa09341d4a7f56fe6ba1f0f6e9c8a49e272383284dcb5"}, {"sequence": 4294967295, "scriptSig": {"hex": "483045022100ff79663d55347be3cf8411c19d329cadd0d562fec1b2aad8bee776a982f86010022023c6d64bd05ee0c2c881a01e483a253ed276e7446577cf33f0a64d2567e44b4e01210328ddfeff29ee85ed609b3cc9bfa6f82e2690a468e374a9290201ea5bcee4a667", "asm": "3045022100ff79663d55347be3cf8411c19d329cadd0d562fec1b2aad8bee776a982f86010022023c6d64bd05ee0c2c881a01e483a253ed276e7446577cf33f0a64d2567e44b4e[ALL] 0328ddfeff29ee85ed609b3cc9bfa6f82e2690a468e374a9290201ea5bcee4a667"}, "vout": 0, "txid": "8c7cfce77a27230b738cb648205e297270cfbd3d82668b8f528f1d71ea9089ca"}], "txid": "44b4dd5f6bb6ef9a27c7338d258fa049a12cf059f875c3a1574caa7834193c42", "blocktime": 1537872475, "version": 1, "confirmations": 11487, "time": 1537872475, "locktime": 0, "vsize": 486, "size": 486}