{"hash": "44b713c26297820bd3a7a91e24b4479edcdff04b773595174e6d7c97694009df", "blockhash": "0000000000000000001e0dab787dd257d1dbfcb92a98c2207d5e1078be1f4165", "vout": [{"scriptPubKey": {"reqSigs": 1, "hex": "a9149c03b51665752278dae6b75c94d4bada7507a74d87", "addresses": ["3Fuwn4Z8GoCb7FnFaZ12LiNfom264swveg"], "asm": "OP_HASH160 9c03b51665752278dae6b75c94d4bada7507a74d OP_EQUAL", "type": "scripthash"}, "value": 5.2e-05, "n": 0}, {"scriptPubKey": {"reqSigs": 1, "hex": "76a914f25e02391d7e09ee9acb36150e5191742ca7d0af88ac", "addresses": ["1P6X9G8TVESe55AihDywLfiArfmTd9iBkd"], "asm": "OP_DUP OP_HASH160 f25e02391d7e09ee9acb36150e5191742ca7d0af OP_EQUALVERIFY OP_CHECKSIG", "type": "pubkeyhash"}, "value": 0.00039089, "n": 1}], "hex": "010000000177c5221b98b4c1bc771bb6806a84b197d51ac360cad18bf229bed5051b7bffbd000000006a47304402205791df5f0b4275444f2d419e174e215375085ab8c7349a47f115238785a612680220492d7f8e8f52f700cdff0001b7713215c017ccddb274c7352fc15dfc71da64d301210305c0be5a0b7fc2400058062fa8256d5a03c5b3e0a0f60940d245ad600b9e2a92ffffffff02501400000000000017a9149c03b51665752278dae6b75c94d4bada7507a74d87b1980000000000001976a914f25e02391d7e09ee9acb36150e5191742ca7d0af88ac00000000", "vin": [{"sequence": 4294967295, "scriptSig": {"hex": "47304402205791df5f0b4275444f2d419e174e215375085ab8c7349a47f115238785a612680220492d7f8e8f52f700cdff0001b7713215c017ccddb274c7352fc15dfc71da64d301210305c0be5a0b7fc2400058062fa8256d5a03c5b3e0a0f60940d245ad600b9e2a92", "asm": "304402205791df5f0b4275444f2d419e174e215375085ab8c7349a47f115238785a612680220492d7f8e8f52f700cdff0001b7713215c017ccddb274c7352fc15dfc71da64d3[ALL] 0305c0be5a0b7fc2400058062fa8256d5a03c5b3e0a0f60940d245ad600b9e2a92"}, "vout": 0, "txid": "bdff7b1b05d5be29f28bd1ca60c31ad597b1846a80b61b77bcc1b4981b22c577"}], "txid": "44b713c26297820bd3a7a91e24b4479edcdff04b773595174e6d7c97694009df", "blocktime": 1537872475, "version": 1, "confirmations": 11487, "time": 1537872475, "locktime": 0, "vsize": 223, "size": 223}