{"hash": "44b78b9b71220d4aec02d38d7d935795f4e8309ff0b947d17eee3f84a65f6d19", "blockhash": "00000000000000000018f53835495a110e01622372bf6ae95dc86f2b0ab887b0", "vout": [{"scriptPubKey": {"reqSigs": 1, "hex": "76a9142502b0b9a75c11a1dec868ed0a2ab712bd3b9ac488ac", "addresses": ["14NhE2UD1gYfJ6wQKKR8jvqEeLVsSescQc"], "asm": "OP_DUP OP_HASH160 2502b0b9a75c11a1dec868ed0a2ab712bd3b9ac4 OP_EQUALVERIFY OP_CHECKSIG", "type": "pubkeyhash"}, "value": 0.00106929, "n": 0}, {"scriptPubKey": {"reqSigs": 1, "hex": "76a9142b876395619cc0489fc7dcd69fefe78c82e5aef588ac", "addresses": ["14yAFEzSfubMswbp1pis8UC9aKMca8hRLY"], "asm": "OP_DUP OP_HASH160 2b876395619cc0489fc7dcd69fefe78c82e5aef5 OP_EQUALVERIFY OP_CHECKSIG", "type": "pubkeyhash"}, "value": 0.02179772, "n": 1}], "hex": "010000000150223dfd4da3afb8d490c0f85cff0b4e4ea06a483aff994ce83d4b48fc68d2cf010000006b483045022100bf9531ee6476920d1cbc35a518ee5ea2fe651cc9c6a6240e3680bf739cc046a20220198d974e1a19e9069c6f6e48509f963ba424369ee13078a102b666d616e056880121028315ad34f98aa96ece032c7f3631212d287f21bf9c255569e09a282dc790bbe8ffffffff02b1a10100000000001976a9142502b0b9a75c11a1dec868ed0a2ab712bd3b9ac488acbc422100000000001976a9142b876395619cc0489fc7dcd69fefe78c82e5aef588ac00000000", "vin": [{"sequence": 4294967295, "scriptSig": {"hex": "483045022100bf9531ee6476920d1cbc35a518ee5ea2fe651cc9c6a6240e3680bf739cc046a20220198d974e1a19e9069c6f6e48509f963ba424369ee13078a102b666d616e056880121028315ad34f98aa96ece032c7f3631212d287f21bf9c255569e09a282dc790bbe8", "asm": "3045022100bf9531ee6476920d1cbc35a518ee5ea2fe651cc9c6a6240e3680bf739cc046a20220198d974e1a19e9069c6f6e48509f963ba424369ee13078a102b666d616e05688[ALL] 028315ad34f98aa96ece032c7f3631212d287f21bf9c255569e09a282dc790bbe8"}, "vout": 1, "txid": "cfd268fc484b3de84c99ff3a486aa04e4e0bff5cf8c090d4b8afa34dfd3d2250"}], "txid": "44b78b9b71220d4aec02d38d7d935795f4e8309ff0b947d17eee3f84a65f6d19", "blocktime": 1537870928, "version": 1, "confirmations": 11514, "time": 1537870928, "locktime": 0, "vsize": 226, "size": 226}