{"hash": "299b16ad417eaa2f35888d1fd965613fc0baf9624c5a85d461c6cdda32950c03", "blockhash": "0000000000000000001e0dab787dd257d1dbfcb92a98c2207d5e1078be1f4165", "vout": [{"scriptPubKey": {"reqSigs": 1, "hex": "a914fc728ea480dab48de1e3896b2010998cde2e172187", "addresses": ["3QhqSTZ9yTeKbq7E3yUBRDfGXBK2WL5aS4"], "asm": "OP_HASH160 fc728ea480dab48de1e3896b2010998cde2e1721 OP_EQUAL", "type": "scripthash"}, "value": 0.00070378, "n": 0}, {"scriptPubKey": {"reqSigs": 1, "hex": "a914142927551dab8c3fd24a453d98f278cdd678496887", "addresses": ["33XcjnWvMw9QKDbtx4bp9ziZTk1Ky1VJQZ"], "asm": "OP_HASH160 142927551dab8c3fd24a453d98f278cdd6784968 OP_EQUAL", "type": "scripthash"}, "value": 0.01094659, "n": 1}], "hex": "02000000000101b93026530597222737556d1ad4fe1e926907619ff59a56389b07174dcaf647470100000017160014d5113e1b4f012a3ccc1c750a263fbc1d649978fdfeffffff02ea1201000000000017a914fc728ea480dab48de1e3896b2010998cde2e17218703b410000000000017a914142927551dab8c3fd24a453d98f278cdd67849688702483045022100f74b857d6ffe03dc3b7baee3554a39c0373d7a3f86a19c62b402d80d5f40179b02207762c04ab2b474f5322df99824bfb84c7e756b55ce6499439b1e0a97aa137833012102cc48cd42b897c466d9f7612c886f260555ff7c68c7408069fee01992fe2d29cd12490800", "vin": [{"txinwitness": ["3045022100f74b857d6ffe03dc3b7baee3554a39c0373d7a3f86a19c62b402d80d5f40179b02207762c04ab2b474f5322df99824bfb84c7e756b55ce6499439b1e0a97aa13783301", "02cc48cd42b897c466d9f7612c886f260555ff7c68c7408069fee01992fe2d29cd"], "sequence": 4294967294, "scriptSig": {"hex": "160014d5113e1b4f012a3ccc1c750a263fbc1d649978fd", "asm": "0014d5113e1b4f012a3ccc1c750a263fbc1d649978fd"}, "vout": 1, "txid": "4747f6ca4d17079b38569af59f610769921efed41a6d553727229705532630b9"}], "txid": "44b899abb1eb3f8c96c0b0ffde2aa3e35f0f84ac38e2548b7234d96dfb6c6b2c", "blocktime": 1537872475, "version": 2, "confirmations": 11487, "time": 1537872475, "locktime": 542994, "vsize": 166, "size": 248}