{"hash": "44bbe9bcc57e976b5a1f248fde8526eb0bf09dd67e8d8f2420ecd89fc0f869dc", "blockhash": "0000000000000000001cda96e906b7601b7a6fb1a3b62bca570a9e5d8f4b3de1", "vout": [{"scriptPubKey": {"reqSigs": 1, "hex": "76a914d0b0ad82221807f33382d587fbf81bd9d048673888ac", "addresses": ["1L2TCgrgVhkybwa7m68RJmTfXmUJJeTE8Y"], "asm": "OP_DUP OP_HASH160 d0b0ad82221807f33382d587fbf81bd9d0486738 OP_EQUALVERIFY OP_CHECKSIG", "type": "pubkeyhash"}, "value": 0.00169453, "n": 0}, {"scriptPubKey": {"reqSigs": 1, "hex": "76a91410052038dd1d52e5f208eed08d4984446b1b595e88ac", "addresses": ["12ThxDopuj55ffo1ScSmWjr9kTGhJEZ2PU"], "asm": "OP_DUP OP_HASH160 10052038dd1d52e5f208eed08d4984446b1b595e OP_EQUALVERIFY OP_CHECKSIG", "type": "pubkeyhash"}, "value": 0.00026721, "n": 1}], "hex": "010000000251219f84a9cdb4140ca23dbc17b538316298d4ebda121c241057bb9e77a2b370010000006b483045022100b59ebf58cd6c4df98deadff98a07398de8b959a5f8fc88b9aa0e65782ff9661d022077aa83e93fb6f92cc032ebc7152dd36f7969509ccfb1c896dae06e42fa797fc401210213829f0053ab32864636734ed27b4933ed2e4bc77a210e88d966086197c01548ffffffffa6d490df708ce34d9b426d2e151417293149fdaa76b405b217f2424449f2c5ee010000006b483045022100a6e52712d8bc6794608d9a90f661535ee1829d314ddaac9661fb8bcee739eec402206da31eefa45e005b1025d4638a09041dfcff66a5c89bff494d780b5ff5b6b2700121029fa1895b0602b455401e016280b341b0598bed00fba35ceeb486b7fe594477cdffffffff02ed950200000000001976a914d0b0ad82221807f33382d587fbf81bd9d048673888ac61680000000000001976a91410052038dd1d52e5f208eed08d4984446b1b595e88ac00000000", "vin": [{"sequence": 4294967295, "scriptSig": {"hex": "483045022100b59ebf58cd6c4df98deadff98a07398de8b959a5f8fc88b9aa0e65782ff9661d022077aa83e93fb6f92cc032ebc7152dd36f7969509ccfb1c896dae06e42fa797fc401210213829f0053ab32864636734ed27b4933ed2e4bc77a210e88d966086197c01548", "asm": "3045022100b59ebf58cd6c4df98deadff98a07398de8b959a5f8fc88b9aa0e65782ff9661d022077aa83e93fb6f92cc032ebc7152dd36f7969509ccfb1c896dae06e42fa797fc4[ALL] 0213829f0053ab32864636734ed27b4933ed2e4bc77a210e88d966086197c01548"}, "vout": 1, "txid": "70b3a2779ebb5710241c12daebd498623138b517bc3da20c14b4cda9849f2151"}, {"sequence": 4294967295, "scriptSig": {"hex": "483045022100a6e52712d8bc6794608d9a90f661535ee1829d314ddaac9661fb8bcee739eec402206da31eefa45e005b1025d4638a09041dfcff66a5c89bff494d780b5ff5b6b2700121029fa1895b0602b455401e016280b341b0598bed00fba35ceeb486b7fe594477cd", "asm": "3045022100a6e52712d8bc6794608d9a90f661535ee1829d314ddaac9661fb8bcee739eec402206da31eefa45e005b1025d4638a09041dfcff66a5c89bff494d780b5ff5b6b270[ALL] 029fa1895b0602b455401e016280b341b0598bed00fba35ceeb486b7fe594477cd"}, "vout": 1, "txid": "eec5f2494442f217b205b476aafd4931291714152e6d429b4de38c70df90d4a6"}], "txid": "44bbe9bcc57e976b5a1f248fde8526eb0bf09dd67e8d8f2420ecd89fc0f869dc", "blocktime": 1537873282, "version": 1, "confirmations": 11481, "time": 1537873282, "locktime": 0, "vsize": 374, "size": 374}