{"hash": "b58245e3482ba6e81e58231552ead188eb18be29220dff3f9dcec7065156bceb", "blockhash": "00000000000000000018f53835495a110e01622372bf6ae95dc86f2b0ab887b0", "vout": [{"scriptPubKey": {"reqSigs": 1, "hex": "a914083644f6ce3fdc1c00eccdd0f90183c5d903df7587", "addresses": ["32SSLnJBR2RgVJiXLgybDqQyAAgHSFVwE5"], "asm": "OP_HASH160 083644f6ce3fdc1c00eccdd0f90183c5d903df75 OP_EQUAL", "type": "scripthash"}, "value": 0.01312426, "n": 0}, {"scriptPubKey": {"reqSigs": 1, "hex": "76a91418b9af1125bd599f0bd922c3db3d3f4a787557cf88ac", "addresses": ["13Fjf9NhjerAJ9DvfJhVPvz96789RZeTtH"], "asm": "OP_DUP OP_HASH160 18b9af1125bd599f0bd922c3db3d3f4a787557cf OP_EQUALVERIFY OP_CHECKSIG", "type": "pubkeyhash"}, "value": 0.06814671, "n": 1}], "hex": "02000000000102338477b21b0e7c36193161a7c87a08d1a5222303c1fdb8ab791f6f6b756ff4ea0000000017160014e46fa02c305df85c0beb33d568016f0292b80509feffffff55ca1035e5bce62854d428435564593c8a1ec0b639c630a0e6176d10402569c600000000171600143cbf9d8f18fcde547f942107cd4621d062dd7685feffffff02aa0614000000000017a914083644f6ce3fdc1c00eccdd0f90183c5d903df7587cffb6700000000001976a91418b9af1125bd599f0bd922c3db3d3f4a787557cf88ac0248304502210087a7c614ab4919f01eefc84f30017c22f1701c1f4b16756b6f86ba8c789bf5bd02204201e73576dac52938f7739f3637de70a11991847db8012d1460cf652ce51e88012103e3ec0e67ef239e06fb20701b6f15584542e0cc4012d769488298a5980aaed5f402473044022076d223d124f59992db444e34271a106636f7d61ac949b5c1b7d9837602c98d0d02204604d89e872c8eb2b7c49c9298c31cc419c318cd8bda3afbe2208d5c5e38b76501210292570a89bd04475b3954d26d503dc168332920dd898cc9573ef4c2e275c1920a0d490800", "vin": [{"txinwitness": ["304502210087a7c614ab4919f01eefc84f30017c22f1701c1f4b16756b6f86ba8c789bf5bd02204201e73576dac52938f7739f3637de70a11991847db8012d1460cf652ce51e8801", "03e3ec0e67ef239e06fb20701b6f15584542e0cc4012d769488298a5980aaed5f4"], "sequence": 4294967294, "scriptSig": {"hex": "160014e46fa02c305df85c0beb33d568016f0292b80509", "asm": "0014e46fa02c305df85c0beb33d568016f0292b80509"}, "vout": 0, "txid": "eaf46f756b6f1f79abb8fdc1032322a5d1087ac8a7613119367c0e1bb2778433"}, {"txinwitness": ["3044022076d223d124f59992db444e34271a106636f7d61ac949b5c1b7d9837602c98d0d02204604d89e872c8eb2b7c49c9298c31cc419c318cd8bda3afbe2208d5c5e38b76501", "0292570a89bd04475b3954d26d503dc168332920dd898cc9573ef4c2e275c1920a"], "sequence": 4294967294, "scriptSig": {"hex": "1600143cbf9d8f18fcde547f942107cd4621d062dd7685", "asm": "00143cbf9d8f18fcde547f942107cd4621d062dd7685"}, "vout": 0, "txid": "c6692540106d17e6a030c639b6c01e8a3c5964554328d45428e6bce53510ca55"}], "txid": "44c94661720b96bff20f6d3dd7738795d8baa3207295b71ecc1c2940c11c4977", "blocktime": 1537870928, "version": 2, "confirmations": 11512, "time": 1537870928, "locktime": 542989, "vsize": 259, "size": 421}