{"hash": "44ce96eaf6c187db794b1206c152baeade7fb02b466064ccf74177658010cdca", "blockhash": "00000000000000000004ffacab907a6b429b9a5745fa0b75af4234bf69dd7176", "vout": [{"scriptPubKey": {"reqSigs": 1, "hex": "a914f19ef410f40d42d7596f7d333dc410b26271389087", "addresses": ["3PibC3q7jYngxrdSzMs53trbKATN8ck3Ci"], "asm": "OP_HASH160 f19ef410f40d42d7596f7d333dc410b262713890 OP_EQUAL", "type": "scripthash"}, "value": 0.00078121, "n": 0}, {"scriptPubKey": {"reqSigs": 1, "hex": "76a9148f671edb92b05018d66b69d6db891cfae4209ee488ac", "addresses": ["1E5FANbXupLBauUPqZo1biuvpNyYjqD4cH"], "asm": "OP_DUP OP_HASH160 8f671edb92b05018d66b69d6db891cfae4209ee4 OP_EQUALVERIFY OP_CHECKSIG", "type": "pubkeyhash"}, "value": 0.06026757, "n": 1}], "hex": "01000000017be1bc87ae41a34d99e08c2f9fd25cd1393d21278b4a02375d4863c4c504a1cc010000006a4730440220571c585e4aba5206671780d30b595e2829830d62a53c18aaa9b983fe1f4ee73202205589d68ef6041f8111732acd25bd1ed699cc47cca55f998bb0fb0f1a7cb09d3b0121024fa6e9211af5c7f01ba5bf799b331d8d7cdaf180a4ea9dddd1537c8cc7eb8367ffffffff02293101000000000017a914f19ef410f40d42d7596f7d333dc410b2627138908705f65b00000000001976a9148f671edb92b05018d66b69d6db891cfae4209ee488ac00000000", "vin": [{"sequence": 4294967295, "scriptSig": {"hex": "4730440220571c585e4aba5206671780d30b595e2829830d62a53c18aaa9b983fe1f4ee73202205589d68ef6041f8111732acd25bd1ed699cc47cca55f998bb0fb0f1a7cb09d3b0121024fa6e9211af5c7f01ba5bf799b331d8d7cdaf180a4ea9dddd1537c8cc7eb8367", "asm": "30440220571c585e4aba5206671780d30b595e2829830d62a53c18aaa9b983fe1f4ee73202205589d68ef6041f8111732acd25bd1ed699cc47cca55f998bb0fb0f1a7cb09d3b[ALL] 024fa6e9211af5c7f01ba5bf799b331d8d7cdaf180a4ea9dddd1537c8cc7eb8367"}, "vout": 1, "txid": "cca104c5c463485d37024a8b27213d39d15cd29f2f8ce0994da341ae87bce17b"}], "txid": "44ce96eaf6c187db794b1206c152baeade7fb02b466064ccf74177658010cdca", "blocktime": 1537875543, "version": 1, "confirmations": 11464, "time": 1537875543, "locktime": 0, "vsize": 223, "size": 223}