{"hash": "44cf9e35b1de5da3865236ed1ff35ecffc9bc4afb4b0a1fd8c97cd8f5efd21c6", "blockhash": "0000000000000000001f0ddff1eddb255c1121bcd4da4f1bc9a0da00cae72433", "vout": [{"scriptPubKey": {"reqSigs": 1, "hex": "76a914cc96822b0463867b201a7859d5d11f138653323d88ac", "addresses": ["1Kem9eRJnUDMi4T6KGq5GqSHVCRpaexD2D"], "asm": "OP_DUP OP_HASH160 cc96822b0463867b201a7859d5d11f138653323d OP_EQUALVERIFY OP_CHECKSIG", "type": "pubkeyhash"}, "value": 0.00043068, "n": 0}, {"scriptPubKey": {"reqSigs": 1, "hex": "a91433235454bed4294554f5db556822c2dbce1de5bb87", "addresses": ["36MQi4Kjce8jxDarPGwtGMQAwDE91cvbnq"], "asm": "OP_HASH160 33235454bed4294554f5db556822c2dbce1de5bb OP_EQUAL", "type": "scripthash"}, "value": 0.2295722, "n": 1}], "hex": "010000000134f312a1f85d91a58a0d55cb3a723673cf4bcdd0dec489bdf7c70114ab26f17a000000006b4830450221008182152c70d9889966dd2a7c61af686feedc7411291d1df82fac687ebe5d0d0b02202c8c1c55fa1591376640288cbae537e754eb8c85fc85c45074a6034c3db328df01210245b6538ab0baffbbaaff39dbd629a4297fb1567f6802678c4cc33f3e2c962598ffffffff023ca80000000000001976a914cc96822b0463867b201a7859d5d11f138653323d88aca44c5e010000000017a91433235454bed4294554f5db556822c2dbce1de5bb8700000000", "vin": [{"sequence": 4294967295, "scriptSig": {"hex": "4830450221008182152c70d9889966dd2a7c61af686feedc7411291d1df82fac687ebe5d0d0b02202c8c1c55fa1591376640288cbae537e754eb8c85fc85c45074a6034c3db328df01210245b6538ab0baffbbaaff39dbd629a4297fb1567f6802678c4cc33f3e2c962598", "asm": "30450221008182152c70d9889966dd2a7c61af686feedc7411291d1df82fac687ebe5d0d0b02202c8c1c55fa1591376640288cbae537e754eb8c85fc85c45074a6034c3db328df[ALL] 0245b6538ab0baffbbaaff39dbd629a4297fb1567f6802678c4cc33f3e2c962598"}, "vout": 0, "txid": "7af126ab1401c7f7bd89c4ded0cd4bcf7336723acb550d8aa5915df8a112f334"}], "txid": "44cf9e35b1de5da3865236ed1ff35ecffc9bc4afb4b0a1fd8c97cd8f5efd21c6", "blocktime": 1537872018, "version": 1, "confirmations": 11489, "time": 1537872018, "locktime": 0, "vsize": 224, "size": 224}