{"hash": "44d79107d39544ef20fa97ab2b4774430c4330f45e3fe945dc7643ed892abcbe", "blockhash": "0000000000000000001cda96e906b7601b7a6fb1a3b62bca570a9e5d8f4b3de1", "vout": [{"scriptPubKey": {"reqSigs": 1, "hex": "76a9142a0c8a1f8164568cc3221130738c004c745e4ecd88ac", "addresses": ["14qLQKYBtQ2fbvfUXessM7ZHFXsGkBrYJV"], "asm": "OP_DUP OP_HASH160 2a0c8a1f8164568cc3221130738c004c745e4ecd OP_EQUALVERIFY OP_CHECKSIG", "type": "pubkeyhash"}, "value": 0.01, "n": 0}, {"scriptPubKey": {"reqSigs": 1, "hex": "a91486ed17bfa7bd80cf87cf7e80abd9289079b78c5b87", "addresses": ["3DzSVk4veMCkNbNT9CdETeE26uWxmNbBnD"], "asm": "OP_HASH160 86ed17bfa7bd80cf87cf7e80abd9289079b78c5b OP_EQUAL", "type": "scripthash"}, "value": 4.71993477, "n": 1}], "hex": "020000000148e71cf1e07b437bc2880c9bb1f8159426ef526b39002bbc5b1a5bf08f8d458801000000da004730440220438c8e8196e51d70925e980706bd34c119f583b29913faeec58bc31e9a861e04022038e53ad86e1c3cf76e512a4fc0dbdb5c28c26cec4a17450d5e527fb0d37b9a2601483045022100a30d19d60418b14afc21107b701a011d358db39d48b5d667feb136588e62193e022030b21b7225f2f7cb372b41d8433336f0ab121681c1c91ac243c2811043c997da01475221038934160de8ad1dd529329f5bf51e3086cc0f6d19e10fb4120385f23d871c0c1d21021659435e23e3891d39ec2b0266b3c14a68cb4e45adb8543f31508310c98722d952aeffffffff0240420f00000000001976a9142a0c8a1f8164568cc3221130738c004c745e4ecd88ac850c221c0000000017a91486ed17bfa7bd80cf87cf7e80abd9289079b78c5b8700000000", "vin": [{"sequence": 4294967295, "scriptSig": {"hex": "004730440220438c8e8196e51d70925e980706bd34c119f583b29913faeec58bc31e9a861e04022038e53ad86e1c3cf76e512a4fc0dbdb5c28c26cec4a17450d5e527fb0d37b9a2601483045022100a30d19d60418b14afc21107b701a011d358db39d48b5d667feb136588e62193e022030b21b7225f2f7cb372b41d8433336f0ab121681c1c91ac243c2811043c997da01475221038934160de8ad1dd529329f5bf51e3086cc0f6d19e10fb4120385f23d871c0c1d21021659435e23e3891d39ec2b0266b3c14a68cb4e45adb8543f31508310c98722d952ae", "asm": "0 30440220438c8e8196e51d70925e980706bd34c119f583b29913faeec58bc31e9a861e04022038e53ad86e1c3cf76e512a4fc0dbdb5c28c26cec4a17450d5e527fb0d37b9a26[ALL] 3045022100a30d19d60418b14afc21107b701a011d358db39d48b5d667feb136588e62193e022030b21b7225f2f7cb372b41d8433336f0ab121681c1c91ac243c2811043c997da[ALL] 5221038934160de8ad1dd529329f5bf51e3086cc0f6d19e10fb4120385f23d871c0c1d21021659435e23e3891d39ec2b0266b3c14a68cb4e45adb8543f31508310c98722d952ae"}, "vout": 1, "txid": "88458d8ff05b1a5bbc2b00396b52ef269415f8b19b0c88c27b437be0f11ce748"}], "txid": "44d79107d39544ef20fa97ab2b4774430c4330f45e3fe945dc7643ed892abcbe", "blocktime": 1537873282, "version": 2, "confirmations": 11481, "time": 1537873282, "locktime": 0, "vsize": 335, "size": 335}