{"hash": "44dc284c6a6ea15487d4ea2f561e4915dea2d112c121d6583f5073b4955cb292", "blockhash": "0000000000000000000baef3f32e3676a92c3b2e5da21b426e4f302fc371ce76", "vout": [{"scriptPubKey": {"reqSigs": 1, "hex": "a914a1c9b90003a5612352a74e88ece1c7b2c3a28cdd87", "addresses": ["3GSUNN5tVCTEfrHWi7QXY7y8CfwukJa4gu"], "asm": "OP_HASH160 a1c9b90003a5612352a74e88ece1c7b2c3a28cdd OP_EQUAL", "type": "scripthash"}, "value": 0.001, "n": 0}, {"scriptPubKey": {"reqSigs": 1, "hex": "76a914febb659e13bd60d8b1e7da70758a4984a6776bf788ac", "addresses": ["1QDu8Hz2XggTf94V3bYKCwUU77EtmoiY8Z"], "asm": "OP_DUP OP_HASH160 febb659e13bd60d8b1e7da70758a4984a6776bf7 OP_EQUALVERIFY OP_CHECKSIG", "type": "pubkeyhash"}, "value": 0.02827768, "n": 1}], "hex": "01000000019ddf927b95b596fe0235208bec5b93a3d0c88d1809fd7659820846a17c5d87ab010000006b483045022100d3b48a093277c6cd58571c6d3d69f57feeb780e25915b508e7239ce9ce2ba1c0022072fd808b44e34769c2c48c7efb77ef4b88e49d9f185c41786441a5132b57b0cf0121028c699ab584188c4be2fc63618ee33fd31fbf8552ed78a85e3d2943072b3a6e3effffffff02a08601000000000017a914a1c9b90003a5612352a74e88ece1c7b2c3a28cdd87f8252b00000000001976a914febb659e13bd60d8b1e7da70758a4984a6776bf788ac00000000", "vin": [{"sequence": 4294967295, "scriptSig": {"hex": "483045022100d3b48a093277c6cd58571c6d3d69f57feeb780e25915b508e7239ce9ce2ba1c0022072fd808b44e34769c2c48c7efb77ef4b88e49d9f185c41786441a5132b57b0cf0121028c699ab584188c4be2fc63618ee33fd31fbf8552ed78a85e3d2943072b3a6e3e", "asm": "3045022100d3b48a093277c6cd58571c6d3d69f57feeb780e25915b508e7239ce9ce2ba1c0022072fd808b44e34769c2c48c7efb77ef4b88e49d9f185c41786441a5132b57b0cf[ALL] 028c699ab584188c4be2fc63618ee33fd31fbf8552ed78a85e3d2943072b3a6e3e"}, "vout": 1, "txid": "ab875d7ca14608825976fd09188dc8d0a3935bec8b203502fe96b5957b92df9d"}], "txid": "44dc284c6a6ea15487d4ea2f561e4915dea2d112c121d6583f5073b4955cb292", "blocktime": 1537876114, "version": 1, "confirmations": 11460, "time": 1537876114, "locktime": 0, "vsize": 224, "size": 224}