{"hash": "44debb8be3a96bae9f47c57ac8f555744e81341e3f5449a11bf24f2380ae94a1", "blockhash": "0000000000000000000e13cef7c366c0283d82e591d1acd082e914b08063cdf1", "vout": [{"scriptPubKey": {"reqSigs": 1, "hex": "76a914f93722906a473f7971b5b40703b0d2105e5962f888ac", "addresses": ["1PijJcbzyRGCJeossYMmtT9VJWU4AbpgHU"], "asm": "OP_DUP OP_HASH160 f93722906a473f7971b5b40703b0d2105e5962f8 OP_EQUALVERIFY OP_CHECKSIG", "type": "pubkeyhash"}, "value": 0.025082, "n": 0}, {"scriptPubKey": {"reqSigs": 1, "hex": "76a9144e06a38c33fe749ac525f19f4994b0e5d8f7266788ac", "addresses": ["187ZfEr3uT9MMtNs2Cvmv5PKZ1RetPTMZz"], "asm": "OP_DUP OP_HASH160 4e06a38c33fe749ac525f19f4994b0e5d8f72667 OP_EQUALVERIFY OP_CHECKSIG", "type": "pubkeyhash"}, "value": 10.76483116, "n": 1}], "hex": "0100000001a43243a2a3e9377ecd3062f5ea15fc842bf3bce0f64805e8d82d0a20729d3b2f010000006a47304402201aab4f3d8e87db6280d131b8aa0b73a8e878b2fd862cf358ecbae9bee2b8afcd02200dd23488f96abf56f5f17c329e7e6dcc40115feef60ae4649fc1a89c8af3d93d0121020ef2ad35da017927d7fd96fa0891bd2cf093993f26a0969e8d8e9c24ef18e38bffffffff02a8452600000000001976a914f93722906a473f7971b5b40703b0d2105e5962f888ac2cd42940000000001976a9144e06a38c33fe749ac525f19f4994b0e5d8f7266788ac00000000", "vin": [{"sequence": 4294967295, "scriptSig": {"hex": "47304402201aab4f3d8e87db6280d131b8aa0b73a8e878b2fd862cf358ecbae9bee2b8afcd02200dd23488f96abf56f5f17c329e7e6dcc40115feef60ae4649fc1a89c8af3d93d0121020ef2ad35da017927d7fd96fa0891bd2cf093993f26a0969e8d8e9c24ef18e38b", "asm": "304402201aab4f3d8e87db6280d131b8aa0b73a8e878b2fd862cf358ecbae9bee2b8afcd02200dd23488f96abf56f5f17c329e7e6dcc40115feef60ae4649fc1a89c8af3d93d[ALL] 020ef2ad35da017927d7fd96fa0891bd2cf093993f26a0969e8d8e9c24ef18e38b"}, "vout": 1, "txid": "2f3b9d72200a2dd8e80548f6e0bcf32b84fc15eaf56230cd7e37e9a3a24332a4"}], "txid": "44debb8be3a96bae9f47c57ac8f555744e81341e3f5449a11bf24f2380ae94a1", "blocktime": 1537871767, "version": 1, "confirmations": 11493, "time": 1537871767, "locktime": 0, "vsize": 225, "size": 225}