{"hash": "44e04bcd423f1c670a4f3491a6f0d0266b53ae2e84d8f1c170812c7679feab04", "blockhash": "00000000000000000024a2167bbff67b0be802c0b01cdd79e6331c2be6459f87", "vout": [{"scriptPubKey": {"reqSigs": 1, "hex": "76a9141508276fd4193e83f5fce7a810a40e8f983c161988ac", "addresses": ["12vCxak5xc1t6T275xbm6AJ4xsZCxkTSc5"], "asm": "OP_DUP OP_HASH160 1508276fd4193e83f5fce7a810a40e8f983c1619 OP_EQUALVERIFY OP_CHECKSIG", "type": "pubkeyhash"}, "value": 2.63752176, "n": 0}, {"scriptPubKey": {"type": "nulldata", "hex": "6a146f6d6e69000000000000001f00000096a76447a8", "asm": "OP_RETURN 6f6d6e69000000000000001f00000096a76447a8"}, "value": 0.0, "n": 1}, {"scriptPubKey": {"reqSigs": 1, "hex": "76a9141508276fd4193e83f5fce7a810a40e8f983c161988ac", "addresses": ["12vCxak5xc1t6T275xbm6AJ4xsZCxkTSc5"], "asm": "OP_DUP OP_HASH160 1508276fd4193e83f5fce7a810a40e8f983c1619 OP_EQUALVERIFY OP_CHECKSIG", "type": "pubkeyhash"}, "value": 5.46e-06, "n": 2}], "hex": "0100000002517ab18fd5a2e0cd7eb2e3580735cbcdcd3b1a46e335e4db370e46e0270c49de020000006b483045022100bbc9946614f26b899a003c0deea844adecebabb00a033e79afac2c3d14c2558d02202830cf3d5335b891b1d55f1b3111569261a8eb1914f3c4a756ed08b4b7ba661d012102ce52c840cbf519b30c78efadebab2b201ed2e8829364117fdab1b0316fa238b2ffffffff43143daed7a7be1a26e65c73d2efee760f0dbaea344d002c401ada4de50dd419010000006b483045022100d6128e08d5d0868bad86d6b4113bfe5f47aaaaca1049a53985af3aad93b136d7022074e49f9de0034b3b6cdda6d04cf0ac38e42e2888da3e78df5faa88f0920f771f0121028bfc1448ce87c0363baee3a374ea214d66b6cbe2ce95d31ccdce36857143ba03ffffffff03f089b80f000000001976a9141508276fd4193e83f5fce7a810a40e8f983c161988ac0000000000000000166a146f6d6e69000000000000001f00000096a76447a822020000000000001976a9141508276fd4193e83f5fce7a810a40e8f983c161988ac00000000", "vin": [{"sequence": 4294967295, "scriptSig": {"hex": "483045022100bbc9946614f26b899a003c0deea844adecebabb00a033e79afac2c3d14c2558d02202830cf3d5335b891b1d55f1b3111569261a8eb1914f3c4a756ed08b4b7ba661d012102ce52c840cbf519b30c78efadebab2b201ed2e8829364117fdab1b0316fa238b2", "asm": "3045022100bbc9946614f26b899a003c0deea844adecebabb00a033e79afac2c3d14c2558d02202830cf3d5335b891b1d55f1b3111569261a8eb1914f3c4a756ed08b4b7ba661d[ALL] 02ce52c840cbf519b30c78efadebab2b201ed2e8829364117fdab1b0316fa238b2"}, "vout": 2, "txid": "de490c27e0460e37dbe435e3461a3bcdcdcb350758e3b27ecde0a2d58fb17a51"}, {"sequence": 4294967295, "scriptSig": {"hex": "483045022100d6128e08d5d0868bad86d6b4113bfe5f47aaaaca1049a53985af3aad93b136d7022074e49f9de0034b3b6cdda6d04cf0ac38e42e2888da3e78df5faa88f0920f771f0121028bfc1448ce87c0363baee3a374ea214d66b6cbe2ce95d31ccdce36857143ba03", "asm": "3045022100d6128e08d5d0868bad86d6b4113bfe5f47aaaaca1049a53985af3aad93b136d7022074e49f9de0034b3b6cdda6d04cf0ac38e42e2888da3e78df5faa88f0920f771f[ALL] 028bfc1448ce87c0363baee3a374ea214d66b6cbe2ce95d31ccdce36857143ba03"}, "vout": 1, "txid": "19d40de54dda1a402c004d34eaba0d0f76eeefd2735ce6261abea7d7ae3d1443"}], "txid": "44e04bcd423f1c670a4f3491a6f0d0266b53ae2e84d8f1c170812c7679feab04", "blocktime": 1537870564, "version": 1, "confirmations": 11515, "time": 1537870564, "locktime": 0, "vsize": 405, "size": 405}