{"hash": "44e18992882b83c83aee8d44f007fd176908881819b5b336fdfb108135efbf6d", "blockhash": "0000000000000000001f76057863aec43deb6fa401d9628bb513d65a8098bfab", "vout": [{"scriptPubKey": {"reqSigs": 1, "hex": "76a914abd1c764d7a0ae356120b4cbfee4f95d14474b5f88ac", "addresses": ["1GfVrVj9AdKonc5Ev9J9fExugiubZqW3ED"], "asm": "OP_DUP OP_HASH160 abd1c764d7a0ae356120b4cbfee4f95d14474b5f OP_EQUALVERIFY OP_CHECKSIG", "type": "pubkeyhash"}, "value": 0.01465842, "n": 0}, {"scriptPubKey": {"reqSigs": 1, "hex": "76a9145c8c21e05b8f4abca11777fd1932f538bc412a7888ac", "addresses": ["19SM3DNjhSH7SE1naxYyw8Xt6ecM4hvooz"], "asm": "OP_DUP OP_HASH160 5c8c21e05b8f4abca11777fd1932f538bc412a78 OP_EQUALVERIFY OP_CHECKSIG", "type": "pubkeyhash"}, "value": 0.01001006, "n": 1}], "hex": "0200000002dcc8fa248f05c57121f227b60e0709fb48e2d0dd1b37501d10985c4f6835d331000000006b48304502210091dd1952aafdfc8f844729769d818f48e0c41b392fdac016852df28b6de6036402201040457a139cc7e0a0ace4d55000e049d62854f41d63bd622a72e06119656724012102109b7f33ad150a0546d90f355fbb71841178c6c677c5a702d5d58695768bf533feffffff7686c8bed14fd443d1f390d657f8e3e397dd6ccc4a27f057b7ff6f17a3cae861010000006b483045022100dbe113961b153f5d8585e335df95ea251d32156d69946cac38647e2fa5add7f502201c7af3675206bc1a11747a98a98ef4f3b770e49594e392d6a7dae9608a1e8f3901210260009c5b7cb3254a5c1e0fa6ffee0a99fb726a1bc374d3741ee104d33c165ccefeffffff02f25d1600000000001976a914abd1c764d7a0ae356120b4cbfee4f95d14474b5f88ac2e460f00000000001976a9145c8c21e05b8f4abca11777fd1932f538bc412a7888ac13490800", "vin": [{"sequence": 4294967294, "scriptSig": {"hex": "48304502210091dd1952aafdfc8f844729769d818f48e0c41b392fdac016852df28b6de6036402201040457a139cc7e0a0ace4d55000e049d62854f41d63bd622a72e06119656724012102109b7f33ad150a0546d90f355fbb71841178c6c677c5a702d5d58695768bf533", "asm": "304502210091dd1952aafdfc8f844729769d818f48e0c41b392fdac016852df28b6de6036402201040457a139cc7e0a0ace4d55000e049d62854f41d63bd622a72e06119656724[ALL] 02109b7f33ad150a0546d90f355fbb71841178c6c677c5a702d5d58695768bf533"}, "vout": 0, "txid": "31d335684f5c98101d50371bddd0e248fb09070eb627f22171c5058f24fac8dc"}, {"sequence": 4294967294, "scriptSig": {"hex": "483045022100dbe113961b153f5d8585e335df95ea251d32156d69946cac38647e2fa5add7f502201c7af3675206bc1a11747a98a98ef4f3b770e49594e392d6a7dae9608a1e8f3901210260009c5b7cb3254a5c1e0fa6ffee0a99fb726a1bc374d3741ee104d33c165cce", "asm": "3045022100dbe113961b153f5d8585e335df95ea251d32156d69946cac38647e2fa5add7f502201c7af3675206bc1a11747a98a98ef4f3b770e49594e392d6a7dae9608a1e8f39[ALL] 0260009c5b7cb3254a5c1e0fa6ffee0a99fb726a1bc374d3741ee104d33c165cce"}, "vout": 1, "txid": "61e8caa3176fffb757f0274acc6cdd97e3e3f857d690f3d143d44fd1bec88676"}], "txid": "44e18992882b83c83aee8d44f007fd176908881819b5b336fdfb108135efbf6d", "blocktime": 1537873891, "version": 2, "confirmations": 11478, "time": 1537873891, "locktime": 542995, "vsize": 374, "size": 374}