{"hash": "44e2cfcdd3b8268236eec0aa94ac3f2bd72d52f9c87450c433e59faa14161056", "blockhash": "0000000000000000001e0dab787dd257d1dbfcb92a98c2207d5e1078be1f4165", "vout": [{"scriptPubKey": {"reqSigs": 1, "hex": "76a914e21f40a7544d4e200ba92af25152529d8423b4f288ac", "addresses": ["1Mcd9pWbXaEtFpSE8nM1bnz1EzA4xPP1x9"], "asm": "OP_DUP OP_HASH160 e21f40a7544d4e200ba92af25152529d8423b4f2 OP_EQUALVERIFY OP_CHECKSIG", "type": "pubkeyhash"}, "value": 0.00468691, "n": 0}, {"scriptPubKey": {"reqSigs": 1, "hex": "76a9146c8ac63ad8a0210bed4006ce1bac9b7281b5125888ac", "addresses": ["1AtvDvoH5bTE8v1Aadcb1M9edpxWR6GfMr"], "asm": "OP_DUP OP_HASH160 6c8ac63ad8a0210bed4006ce1bac9b7281b51258 OP_EQUALVERIFY OP_CHECKSIG", "type": "pubkeyhash"}, "value": 0.05608635, "n": 1}], "hex": "0100000001226ab9eb5f82cb7763f2136a105c847fcf83c6301b77f6c111d3a416c2bb30c2010000006a47304402202787b497c6a30a25556a7612ea296b9074343e1424a767f6e96de4f9cb7e247602204e78a585e6305cc95e71004e69c2cc5f06f19a1b171327124f8f25afdee9ca400121029e105b1bb32a713d3df117db96cd55fec093001d0c2291564002e64854d6f120ffffffff02d3260700000000001976a914e21f40a7544d4e200ba92af25152529d8423b4f288acbb945500000000001976a9146c8ac63ad8a0210bed4006ce1bac9b7281b5125888ac00000000", "vin": [{"sequence": 4294967295, "scriptSig": {"hex": "47304402202787b497c6a30a25556a7612ea296b9074343e1424a767f6e96de4f9cb7e247602204e78a585e6305cc95e71004e69c2cc5f06f19a1b171327124f8f25afdee9ca400121029e105b1bb32a713d3df117db96cd55fec093001d0c2291564002e64854d6f120", "asm": "304402202787b497c6a30a25556a7612ea296b9074343e1424a767f6e96de4f9cb7e247602204e78a585e6305cc95e71004e69c2cc5f06f19a1b171327124f8f25afdee9ca40[ALL] 029e105b1bb32a713d3df117db96cd55fec093001d0c2291564002e64854d6f120"}, "vout": 1, "txid": "c230bbc216a4d311c1f6771b30c683cf7f845c106a13f26377cb825febb96a22"}], "txid": "44e2cfcdd3b8268236eec0aa94ac3f2bd72d52f9c87450c433e59faa14161056", "blocktime": 1537872475, "version": 1, "confirmations": 11487, "time": 1537872475, "locktime": 0, "vsize": 225, "size": 225}