{"hash": "44e33a506b289d2ca6d2e504c57e54da2a6e58908e8a0b074e2a9fb62e0b995d", "blockhash": "0000000000000000000e13cef7c366c0283d82e591d1acd082e914b08063cdf1", "vout": [{"scriptPubKey": {"reqSigs": 1, "hex": "76a9146fbfa71f0594e593ddc94179ffe5b8a81794826988ac", "addresses": ["1BBsbZjWCvgbSg4Whp67rj19KJfx6g2oCg"], "asm": "OP_DUP OP_HASH160 6fbfa71f0594e593ddc94179ffe5b8a817948269 OP_EQUALVERIFY OP_CHECKSIG", "type": "pubkeyhash"}, "value": 0.005713, "n": 0}, {"scriptPubKey": {"reqSigs": 1, "hex": "76a91443a30f7944fc663f707cae866e7e67ef84068ee288ac", "addresses": ["17AdcVUTeAUYnH1t9a54UyQbtnnhL4EGFi"], "asm": "OP_DUP OP_HASH160 43a30f7944fc663f707cae866e7e67ef84068ee2 OP_EQUALVERIFY OP_CHECKSIG", "type": "pubkeyhash"}, "value": 0.02557183, "n": 1}], "hex": "01000000014c230235e9359679fc0177bca14e988ccadf94dcfa7102210a96baded7019cef010000006b483045022100e1e657cb0cf4737e8cc597baf317da0d4c7b1135b8fdf5c28a2d9c50bbcdcba0022068bb3729df9002e70f93f1b9590d4b611931d73f587189676cfbb347fc551b060121035fddf3f7df532f241a17bf904675335bd7dc5ef4b2c11e683f79a083d6fbac50ffffffff02a4b70800000000001976a9146fbfa71f0594e593ddc94179ffe5b8a81794826988acff042700000000001976a91443a30f7944fc663f707cae866e7e67ef84068ee288ac00000000", "vin": [{"sequence": 4294967295, "scriptSig": {"hex": "483045022100e1e657cb0cf4737e8cc597baf317da0d4c7b1135b8fdf5c28a2d9c50bbcdcba0022068bb3729df9002e70f93f1b9590d4b611931d73f587189676cfbb347fc551b060121035fddf3f7df532f241a17bf904675335bd7dc5ef4b2c11e683f79a083d6fbac50", "asm": "3045022100e1e657cb0cf4737e8cc597baf317da0d4c7b1135b8fdf5c28a2d9c50bbcdcba0022068bb3729df9002e70f93f1b9590d4b611931d73f587189676cfbb347fc551b06[ALL] 035fddf3f7df532f241a17bf904675335bd7dc5ef4b2c11e683f79a083d6fbac50"}, "vout": 1, "txid": "ef9c01d7deba960a210271fadc94dfca8c984ea1bc7701fc799635e93502234c"}], "txid": "44e33a506b289d2ca6d2e504c57e54da2a6e58908e8a0b074e2a9fb62e0b995d", "blocktime": 1537871767, "version": 1, "confirmations": 11493, "time": 1537871767, "locktime": 0, "vsize": 226, "size": 226}