{"hash": "44e4e2afb9e6a10eeefc4b715f3ac3af30a2d8bebe83c12a6a9198c83cc17ea8", "blockhash": "00000000000000000018f53835495a110e01622372bf6ae95dc86f2b0ab887b0", "vout": [{"scriptPubKey": {"reqSigs": 1, "hex": "76a9142a545132fb46cc3bc6e2b5ab564e6c4456d4849588ac", "addresses": ["14rpPX217m2fbFXmkSDxjL7T5menrWbnDx"], "asm": "OP_DUP OP_HASH160 2a545132fb46cc3bc6e2b5ab564e6c4456d48495 OP_EQUALVERIFY OP_CHECKSIG", "type": "pubkeyhash"}, "value": 0.00559795, "n": 0}, {"scriptPubKey": {"reqSigs": 1, "hex": "76a914c33ccf23271422739e5eb41245d4f7f85cb9c7ca88ac", "addresses": ["1JoKcVxs2LaxJpHN9d2xtPJW6NcEyqwH76"], "asm": "OP_DUP OP_HASH160 c33ccf23271422739e5eb41245d4f7f85cb9c7ca OP_EQUALVERIFY OP_CHECKSIG", "type": "pubkeyhash"}, "value": 0.16209091, "n": 1}], "hex": "010000000165710a42fe12bdd769141157f85cb76b87422d40647ee3882028317d10b910e7010000006b483045022100b008a265e5625ecb058206414d4b1feb957aa0086962622fc3b9f7358e03891c02204889e4420aafcb6167faf63ef6394f80d36cced96ec0b060ce05b9e4b3a45d7f0121036d7eee53e722d99a454863ea87d3ef397352bbba81c103e4f712cfe9f087d245ffffffff02b38a0800000000001976a9142a545132fb46cc3bc6e2b5ab564e6c4456d4849588acc354f700000000001976a914c33ccf23271422739e5eb41245d4f7f85cb9c7ca88ac00000000", "vin": [{"sequence": 4294967295, "scriptSig": {"hex": "483045022100b008a265e5625ecb058206414d4b1feb957aa0086962622fc3b9f7358e03891c02204889e4420aafcb6167faf63ef6394f80d36cced96ec0b060ce05b9e4b3a45d7f0121036d7eee53e722d99a454863ea87d3ef397352bbba81c103e4f712cfe9f087d245", "asm": "3045022100b008a265e5625ecb058206414d4b1feb957aa0086962622fc3b9f7358e03891c02204889e4420aafcb6167faf63ef6394f80d36cced96ec0b060ce05b9e4b3a45d7f[ALL] 036d7eee53e722d99a454863ea87d3ef397352bbba81c103e4f712cfe9f087d245"}, "vout": 1, "txid": "e710b9107d31282088e37e64402d42876bb75cf857111469d7bd12fe420a7165"}], "txid": "44e4e2afb9e6a10eeefc4b715f3ac3af30a2d8bebe83c12a6a9198c83cc17ea8", "blocktime": 1537870928, "version": 1, "confirmations": 11512, "time": 1537870928, "locktime": 0, "vsize": 226, "size": 226}