{"hash": "f6d43e10dbeac218de3ef84d1da26189b31f837b8b75b03217bd988072597e39", "blockhash": "0000000000000000001e0dab787dd257d1dbfcb92a98c2207d5e1078be1f4165", "vout": [{"scriptPubKey": {"reqSigs": 1, "hex": "76a91471e0d29def29c88fd7751aed8e4b015f781da0f388ac", "addresses": ["1BP8gdjuEYSKRxCEiVDY7DiKjLKL2f2YCv"], "asm": "OP_DUP OP_HASH160 71e0d29def29c88fd7751aed8e4b015f781da0f3 OP_EQUALVERIFY OP_CHECKSIG", "type": "pubkeyhash"}, "value": 0.0569928, "n": 0}, {"scriptPubKey": {"reqSigs": 1, "hex": "a91435f7b5289d5e5270871f523bc693639caa6b29af87", "addresses": ["36cNUjsuHhQBS2XPukQAsRAQbuBZuUSi4W"], "asm": "OP_HASH160 35f7b5289d5e5270871f523bc693639caa6b29af OP_EQUAL", "type": "scripthash"}, "value": 1.45055017, "n": 1}], "hex": "02000000000101e14b91dde6184c2a6e0f1c84450179316716a2c64488261d26fc6557b5e8b67c000000001716001414f3a9d50391bbd4196a7b846a59d7618f92b2b5feffffff02d0f65600000000001976a91471e0d29def29c88fd7751aed8e4b015f781da0f388ac295da5080000000017a91435f7b5289d5e5270871f523bc693639caa6b29af8702483045022100f18dd5d6ff55ae366b4cf2725d91e4bc4c0d625c99977d074b127a6ba5a819ed02207e915d3e18d23d5719d64a4aaa2f5319dc3faa43f2601163cbb5639894cf9264012103c1e4460d3f769830c8d839f9d0a4f0c59f6fbd55c01ba8e9cb946418c24d856c12490800", "vin": [{"txinwitness": ["3045022100f18dd5d6ff55ae366b4cf2725d91e4bc4c0d625c99977d074b127a6ba5a819ed02207e915d3e18d23d5719d64a4aaa2f5319dc3faa43f2601163cbb5639894cf926401", "03c1e4460d3f769830c8d839f9d0a4f0c59f6fbd55c01ba8e9cb946418c24d856c"], "sequence": 4294967294, "scriptSig": {"hex": "16001414f3a9d50391bbd4196a7b846a59d7618f92b2b5", "asm": "001414f3a9d50391bbd4196a7b846a59d7618f92b2b5"}, "vout": 0, "txid": "7cb6e8b55765fc261d268844c6a2166731790145841c0f6e2a4c18e6dd914be1"}], "txid": "44e65c18796c2c2b9de6c466873d6d0b7c360a9825db3b4608ac955726e4d1f5", "blocktime": 1537872475, "version": 2, "confirmations": 11486, "time": 1537872475, "locktime": 542994, "vsize": 168, "size": 250}