{"hash": "44e95a0a8adb434f145800f3aaddeaa7779b8430246b026a6a7928a6519389f5", "blockhash": "0000000000000000001e0dab787dd257d1dbfcb92a98c2207d5e1078be1f4165", "vout": [{"scriptPubKey": {"reqSigs": 1, "hex": "76a914d746f796e2eacc843be4e6dfa8f2b0dc9423685388ac", "addresses": ["1LdHJ8PDnTxHRaYte6Ck5XjbEDH4UGDpSA"], "asm": "OP_DUP OP_HASH160 d746f796e2eacc843be4e6dfa8f2b0dc94236853 OP_EQUALVERIFY OP_CHECKSIG", "type": "pubkeyhash"}, "value": 0.00312873, "n": 0}, {"scriptPubKey": {"reqSigs": 1, "hex": "a914094ca7467c61e387f92cd1cd22756a88dc945de987", "addresses": ["32YBqF4GygMGAp7PoSpeusFGLW4VzbG9MV"], "asm": "OP_HASH160 094ca7467c61e387f92cd1cd22756a88dc945de9 OP_EQUAL", "type": "scripthash"}, "value": 0.01865192, "n": 1}], "hex": "01000000013f03cb6de63b1285f9f33fd06ff86c52523231584647553d0d4c4aece06f6c4b00000000fdfd00004730440220650e721879bebd903308fc388d5fb64410a50d0302d439cf47cfcc6b42ce5d2902206c22720c870d905504c3dd58c902e940d494c057ac45bfce23d3395f1f5e75f101483045022100f1334236c575b5fd34de3241c7d3ced7b649ec60e8033ea574591d92610f8231022053003a3fa22715a42ead759c968e22eb8784f59863c0af1cf3b144f909ebdb43014c6952210258602df67994b861bf9b74e2f644fa3daa342f6dd98494a59e8b8e3ce1a0728b2102a21ec9ef57bcbc3ac0f2e4240ffbc4ac83673a3c2298a8ebb113460eec9e792b210365aa20ba9b4a4badc56986bf07e454dd1cd7393987423ba1a12380dacd9939ea53aeffffffff0229c60400000000001976a914d746f796e2eacc843be4e6dfa8f2b0dc9423685388ace8751c000000000017a914094ca7467c61e387f92cd1cd22756a88dc945de98700000000", "vin": [{"sequence": 4294967295, "scriptSig": {"hex": "004730440220650e721879bebd903308fc388d5fb64410a50d0302d439cf47cfcc6b42ce5d2902206c22720c870d905504c3dd58c902e940d494c057ac45bfce23d3395f1f5e75f101483045022100f1334236c575b5fd34de3241c7d3ced7b649ec60e8033ea574591d92610f8231022053003a3fa22715a42ead759c968e22eb8784f59863c0af1cf3b144f909ebdb43014c6952210258602df67994b861bf9b74e2f644fa3daa342f6dd98494a59e8b8e3ce1a0728b2102a21ec9ef57bcbc3ac0f2e4240ffbc4ac83673a3c2298a8ebb113460eec9e792b210365aa20ba9b4a4badc56986bf07e454dd1cd7393987423ba1a12380dacd9939ea53ae", "asm": "0 30440220650e721879bebd903308fc388d5fb64410a50d0302d439cf47cfcc6b42ce5d2902206c22720c870d905504c3dd58c902e940d494c057ac45bfce23d3395f1f5e75f1[ALL] 3045022100f1334236c575b5fd34de3241c7d3ced7b649ec60e8033ea574591d92610f8231022053003a3fa22715a42ead759c968e22eb8784f59863c0af1cf3b144f909ebdb43[ALL] 52210258602df67994b861bf9b74e2f644fa3daa342f6dd98494a59e8b8e3ce1a0728b2102a21ec9ef57bcbc3ac0f2e4240ffbc4ac83673a3c2298a8ebb113460eec9e792b210365aa20ba9b4a4badc56986bf07e454dd1cd7393987423ba1a12380dacd9939ea53ae"}, "vout": 0, "txid": "4b6c6fe0ec4a4c0d3d55474658313252526cf86fd03ff3f985123be66dcb033f"}], "txid": "44e95a0a8adb434f145800f3aaddeaa7779b8430246b026a6a7928a6519389f5", "blocktime": 1537872475, "version": 1, "confirmations": 11486, "time": 1537872475, "locktime": 0, "vsize": 372, "size": 372}