{"hash": "44ed1efeda3f82228ede9a5dff63f49c06ce3e05fb16bab7faee5bc406f2234f", "blockhash": "0000000000000000001f76057863aec43deb6fa401d9628bb513d65a8098bfab", "vout": [{"scriptPubKey": {"reqSigs": 1, "hex": "a9142143bf56cd9f00d846ec5325ab706bef8f6c1ea087", "addresses": ["34iuP3hNcABhBYVRq1CiJwZHrZD5Af42Yk"], "asm": "OP_HASH160 2143bf56cd9f00d846ec5325ab706bef8f6c1ea0 OP_EQUAL", "type": "scripthash"}, "value": 0.00473202, "n": 0}, {"scriptPubKey": {"reqSigs": 1, "hex": "76a91497af7ba3b13fb8ba838b7297707f52a4b9f6efe688ac", "addresses": ["1Eq3Fjj84EzEJPHqE8QmRmkzBcUpktvQ9m"], "asm": "OP_DUP OP_HASH160 97af7ba3b13fb8ba838b7297707f52a4b9f6efe6 OP_EQUALVERIFY OP_CHECKSIG", "type": "pubkeyhash"}, "value": 0.02270398, "n": 1}], "hex": "010000000180d416215ff49f8d6b70fb5c5a7b049204833cc7bb5c52e6a1ea5ac9bdb4c780010000006b483045022100f02afc059209dd7e859db07c954121dc5852e554251309a3c1b18f39fda62aeb02203b617b005e6ae36b8c147171df605ae6588960a8941076c66f8b248161fbd9640121032c075fde11ef41a0618e8807f73d1237677afe3296cfb1c448fea06124b24a58ffffffff02723807000000000017a9142143bf56cd9f00d846ec5325ab706bef8f6c1ea087bea42200000000001976a91497af7ba3b13fb8ba838b7297707f52a4b9f6efe688ac00000000", "vin": [{"sequence": 4294967295, "scriptSig": {"hex": "483045022100f02afc059209dd7e859db07c954121dc5852e554251309a3c1b18f39fda62aeb02203b617b005e6ae36b8c147171df605ae6588960a8941076c66f8b248161fbd9640121032c075fde11ef41a0618e8807f73d1237677afe3296cfb1c448fea06124b24a58", "asm": "3045022100f02afc059209dd7e859db07c954121dc5852e554251309a3c1b18f39fda62aeb02203b617b005e6ae36b8c147171df605ae6588960a8941076c66f8b248161fbd964[ALL] 032c075fde11ef41a0618e8807f73d1237677afe3296cfb1c448fea06124b24a58"}, "vout": 1, "txid": "80c7b4bdc95aeaa1e6525cbbc73c830492047b5a5cfb706b8d9ff45f2116d480"}], "txid": "44ed1efeda3f82228ede9a5dff63f49c06ce3e05fb16bab7faee5bc406f2234f", "blocktime": 1537873891, "version": 1, "confirmations": 11477, "time": 1537873891, "locktime": 0, "vsize": 224, "size": 224}