{"hash": "4d09ff0ab3a6d2df34f3278010b0bc386853bd5991fa15a70eb37c18357389d5", "blockhash": "0000000000000000000e13cef7c366c0283d82e591d1acd082e914b08063cdf1", "vout": [{"scriptPubKey": {"reqSigs": 1, "hex": "76a914658bc2e4001cfacc64a3e041943e921b3086737588ac", "addresses": ["1AFvgAG4FN8fhtp3ZtSF8hsmKvPTDiB4RV"], "asm": "OP_DUP OP_HASH160 658bc2e4001cfacc64a3e041943e921b30867375 OP_EQUALVERIFY OP_CHECKSIG", "type": "pubkeyhash"}, "value": 3.263e-05, "n": 0}, {"scriptPubKey": {"reqSigs": 1, "hex": "a914e8db75c900cf08f06518e96d167331f2a4abfb3387", "addresses": ["3NvFbQMAkkqEFj4i1sYPPLkSWzxTFUchjA"], "asm": "OP_HASH160 e8db75c900cf08f06518e96d167331f2a4abfb33 OP_EQUAL", "type": "scripthash"}, "value": 0.00045687, "n": 1}], "hex": "010000000001015ab74a70da314fa745604477b7932014a5b4a11893b688d8bf569aa89f3c383c0000000023220020941cfaff8837763dc1f69ff82b6d6553fdea17a41cfc29a04403293eedd8ccc7ffffffff02bf0c0000000000001976a914658bc2e4001cfacc64a3e041943e921b3086737588ac77b200000000000017a914e8db75c900cf08f06518e96d167331f2a4abfb3387040047304402202b18901701257d7ef85cc07a5374f166e57cad18e9c5c4137f265c15400db33402205eea84300d1d563a213e2d70cf4f026a97acf1ebe58c3164ec835b8f8f1de0f501483045022100d5dc87c34cdeae843953f5b9594dd48e9edd5da1be028c6c707300a3f48c5e4b022040fee3f282bba5f60ce24ffb86886bb9c7bff55d6827eabd631bb704a10122f20147522102531db3a5883f29bab4241dd0cd726936667bcda445d89bdd22244e828b6993342103148c80a5bdfddb05ff5bcffc397c8ca748d8b435ec6a175bc9d7bfc7fc6f853752ae00000000", "vin": [{"txinwitness": ["", "304402202b18901701257d7ef85cc07a5374f166e57cad18e9c5c4137f265c15400db33402205eea84300d1d563a213e2d70cf4f026a97acf1ebe58c3164ec835b8f8f1de0f501", "3045022100d5dc87c34cdeae843953f5b9594dd48e9edd5da1be028c6c707300a3f48c5e4b022040fee3f282bba5f60ce24ffb86886bb9c7bff55d6827eabd631bb704a10122f201", "522102531db3a5883f29bab4241dd0cd726936667bcda445d89bdd22244e828b6993342103148c80a5bdfddb05ff5bcffc397c8ca748d8b435ec6a175bc9d7bfc7fc6f853752ae"], "sequence": 4294967295, "scriptSig": {"hex": "220020941cfaff8837763dc1f69ff82b6d6553fdea17a41cfc29a04403293eedd8ccc7", "asm": "0020941cfaff8837763dc1f69ff82b6d6553fdea17a41cfc29a04403293eedd8ccc7"}, "vout": 0, "txid": "3c383c9fa89a56bfd888b69318a1b4a5142093b777446045a74f31da704ab75a"}], "txid": "44ef621b10d4514078e4ea31ca426d370e4a62d66ff35a49101b3ada590d137d", "blocktime": 1537871767, "version": 1, "confirmations": 11495, "time": 1537871767, "locktime": 0, "vsize": 208, "size": 373}