{"hash": "44f3abc8e35a35e529274a2913230c1644fe20addaa6e3516975976b7a24fe29", "blockhash": "0000000000000000000baef3f32e3676a92c3b2e5da21b426e4f302fc371ce76", "vout": [{"scriptPubKey": {"reqSigs": 1, "hex": "76a914d77af0e9adb65906d40cac4e8361df6e41952a9388ac", "addresses": ["1LeMZLdqBbLskMddHSJqT7DEUZcYY4Ajp3"], "asm": "OP_DUP OP_HASH160 d77af0e9adb65906d40cac4e8361df6e41952a93 OP_EQUALVERIFY OP_CHECKSIG", "type": "pubkeyhash"}, "value": 0.0004594, "n": 0}, {"scriptPubKey": {"type": "nulldata", "hex": "6a4c500000781d0001ad42223ae4f35bb39ba81a5c019d6ddc0f1b8ff117702940d64fa54d8eb2e23c00c15bb4cc6028b3d7279f80780a5baa1cff0614a1619937fb38bc9a9526289ac0f6612cd74e33776ee4", "asm": "OP_RETURN 0000781d0001ad42223ae4f35bb39ba81a5c019d6ddc0f1b8ff117702940d64fa54d8eb2e23c00c15bb4cc6028b3d7279f80780a5baa1cff0614a1619937fb38bc9a9526289ac0f6612cd74e33776ee4"}, "value": 0.0, "n": 1}], "hex": "0100000001f01e50a43dc17994069c71ed59d962518c61942fbe50dfb1e69aa6a7e4ad2c34000000006b483045022100d8dbd1776d1f39b0c3fa66235444f5f78f7e931e426db2ae76d2e2ed2395878102202761a5a2e82bd08c845e6635b265e0edf249867874683ea083684c4a0b7b5102012102f3ee0f60ec7aa7715310af59955f30d745d805365d06447e04a86dedcb6f7afbffffffff0274b30000000000001976a914d77af0e9adb65906d40cac4e8361df6e41952a9388ac0000000000000000536a4c500000781d0001ad42223ae4f35bb39ba81a5c019d6ddc0f1b8ff117702940d64fa54d8eb2e23c00c15bb4cc6028b3d7279f80780a5baa1cff0614a1619937fb38bc9a9526289ac0f6612cd74e33776ee400000000", "vin": [{"sequence": 4294967295, "scriptSig": {"hex": "483045022100d8dbd1776d1f39b0c3fa66235444f5f78f7e931e426db2ae76d2e2ed2395878102202761a5a2e82bd08c845e6635b265e0edf249867874683ea083684c4a0b7b5102012102f3ee0f60ec7aa7715310af59955f30d745d805365d06447e04a86dedcb6f7afb", "asm": "3045022100d8dbd1776d1f39b0c3fa66235444f5f78f7e931e426db2ae76d2e2ed2395878102202761a5a2e82bd08c845e6635b265e0edf249867874683ea083684c4a0b7b5102[ALL] 02f3ee0f60ec7aa7715310af59955f30d745d805365d06447e04a86dedcb6f7afb"}, "vout": 0, "txid": "342cade4a7a69ae6b1df50be2f94618c5162d959ed719c069479c13da4501ef0"}], "txid": "44f3abc8e35a35e529274a2913230c1644fe20addaa6e3516975976b7a24fe29", "blocktime": 1537876114, "version": 1, "confirmations": 11460, "time": 1537876114, "locktime": 0, "vsize": 284, "size": 284}