{"hash": "44f5c60e46bd6ce254f9e64ef2cde04f04eccca3d26e9a218d0997946e3c11c8", "blockhash": "0000000000000000000dcc0f55137456b1a82d3642486a52398922ac4d620174", "vout": [{"scriptPubKey": {"reqSigs": 1, "hex": "76a914bbf676c726d241beafc244296f7969827012eec788ac", "addresses": ["1J8rcVPwRjJdi1jhk95AsjMfsLBbP7x7pS"], "asm": "OP_DUP OP_HASH160 bbf676c726d241beafc244296f7969827012eec7 OP_EQUALVERIFY OP_CHECKSIG", "type": "pubkeyhash"}, "value": 0.02607194, "n": 0}, {"scriptPubKey": {"type": "nulldata", "hex": "6a146f6d6e69000000000000001f0000000785da23ea", "asm": "OP_RETURN 6f6d6e69000000000000001f0000000785da23ea"}, "value": 0.0, "n": 1}, {"scriptPubKey": {"reqSigs": 1, "hex": "76a914dffb7762e925315e445ff33bff12a4c0719aeb6088ac", "addresses": ["1MRJvy4yVukUpu8UQVvFjctKob5DDV3myJ"], "asm": "OP_DUP OP_HASH160 dffb7762e925315e445ff33bff12a4c0719aeb60 OP_EQUALVERIFY OP_CHECKSIG", "type": "pubkeyhash"}, "value": 5.46e-06, "n": 2}], "hex": "01000000018d8781d9382cb31ca453e230c00d227fa676afa97116e398d0c3bf5ef17d58eb000000006b483045022100ddea0d3c29eefc6a965e8259f31c075ecf48570c44e83f966e988b161e5fd39802206d4b315cc3362d2d0c962e8982f921821141d035a753600b686fab9746fa186a012102061af1d6ec220f4ce39a77205368245c29cd0d340edeb4ced8fd2bd0bc788d42ffffffff035ac82700000000001976a914bbf676c726d241beafc244296f7969827012eec788ac0000000000000000166a146f6d6e69000000000000001f0000000785da23ea22020000000000001976a914dffb7762e925315e445ff33bff12a4c0719aeb6088ac00000000", "vin": [{"sequence": 4294967295, "scriptSig": {"hex": "483045022100ddea0d3c29eefc6a965e8259f31c075ecf48570c44e83f966e988b161e5fd39802206d4b315cc3362d2d0c962e8982f921821141d035a753600b686fab9746fa186a012102061af1d6ec220f4ce39a77205368245c29cd0d340edeb4ced8fd2bd0bc788d42", "asm": "3045022100ddea0d3c29eefc6a965e8259f31c075ecf48570c44e83f966e988b161e5fd39802206d4b315cc3362d2d0c962e8982f921821141d035a753600b686fab9746fa186a[ALL] 02061af1d6ec220f4ce39a77205368245c29cd0d340edeb4ced8fd2bd0bc788d42"}, "vout": 0, "txid": "eb587df15ebfc3d098e31671a9af76a67f220dc030e253a41cb32c38d981878d"}], "txid": "44f5c60e46bd6ce254f9e64ef2cde04f04eccca3d26e9a218d0997946e3c11c8", "blocktime": 1537870268, "version": 1, "confirmations": 11516, "time": 1537870268, "locktime": 0, "vsize": 257, "size": 257}