{"hash": "44f5f9f0979e2a1142eb56de8c598b8e0b63c1f917f85813c9a3a90a48466c48", "blockhash": "0000000000000000001f76057863aec43deb6fa401d9628bb513d65a8098bfab", "vout": [{"scriptPubKey": {"reqSigs": 1, "hex": "76a914a4950ed15935e5d32cc176d0ccf76c9ba3253e6a88ac", "addresses": ["1G1EPBdvQqASsCczXZnamUxuz92u3bjjKj"], "asm": "OP_DUP OP_HASH160 a4950ed15935e5d32cc176d0ccf76c9ba3253e6a OP_EQUALVERIFY OP_CHECKSIG", "type": "pubkeyhash"}, "value": 0.40436787, "n": 0}, {"scriptPubKey": {"type": "nulldata", "hex": "6a146f6d6e69000000000000001f0000000d2630fbb2", "asm": "OP_RETURN 6f6d6e69000000000000001f0000000d2630fbb2"}, "value": 0.0, "n": 1}, {"scriptPubKey": {"reqSigs": 1, "hex": "76a9142431562925198559cb68f82f07a6924e2f23702288ac", "addresses": ["14JNRsVXjccATmXKd7aSyxPT4GnP6YPBBy"], "asm": "OP_DUP OP_HASH160 2431562925198559cb68f82f07a6924e2f237022 OP_EQUALVERIFY OP_CHECKSIG", "type": "pubkeyhash"}, "value": 5.46e-06, "n": 2}], "hex": "0100000001198c446acf7e35af83790dab468ab37d68b4db89ad8c835089a3c9c1223ba0cc000000006a4730440220558e3d5066b71a690efab5e5f87e4f2684aeff2a060f3895961efd98e9e5a84d02207e12fec01455d832dc9e802d98659fae3d46f2296fb422b29a3bfb8e147eea3101210307698abae2b47d5eba1fc0cb0c49a8f1fb7e7c895b977ac436fed836856aafa1feffffff0333046902000000001976a914a4950ed15935e5d32cc176d0ccf76c9ba3253e6a88ac0000000000000000166a146f6d6e69000000000000001f0000000d2630fbb222020000000000001976a9142431562925198559cb68f82f07a6924e2f23702288ac14490800", "vin": [{"sequence": 4294967294, "scriptSig": {"hex": "4730440220558e3d5066b71a690efab5e5f87e4f2684aeff2a060f3895961efd98e9e5a84d02207e12fec01455d832dc9e802d98659fae3d46f2296fb422b29a3bfb8e147eea3101210307698abae2b47d5eba1fc0cb0c49a8f1fb7e7c895b977ac436fed836856aafa1", "asm": "30440220558e3d5066b71a690efab5e5f87e4f2684aeff2a060f3895961efd98e9e5a84d02207e12fec01455d832dc9e802d98659fae3d46f2296fb422b29a3bfb8e147eea31[ALL] 0307698abae2b47d5eba1fc0cb0c49a8f1fb7e7c895b977ac436fed836856aafa1"}, "vout": 0, "txid": "cca03b22c1c9a38950838cad89dbb4687db38a46ab0d7983af357ecf6a448c19"}], "txid": "44f5f9f0979e2a1142eb56de8c598b8e0b63c1f917f85813c9a3a90a48466c48", "blocktime": 1537873891, "version": 1, "confirmations": 11475, "time": 1537873891, "locktime": 542996, "vsize": 256, "size": 256}