{"hash": "44f88d5a91e10d5a040094d94d4b728d023c4148388e71d9edf15717ea5bb4e9", "blockhash": "0000000000000000001f76057863aec43deb6fa401d9628bb513d65a8098bfab", "vout": [{"scriptPubKey": {"reqSigs": 1, "hex": "76a914d243e6abb9a60fbff430b421d2df4b7d59ec186088ac", "addresses": ["1LAnF8h3qMGx3TSwNUHVneBZUEpwE4gu3D"], "asm": "OP_DUP OP_HASH160 d243e6abb9a60fbff430b421d2df4b7d59ec1860 OP_EQUALVERIFY OP_CHECKSIG", "type": "pubkeyhash"}, "value": 0.00076972, "n": 0}, {"scriptPubKey": {"reqSigs": 1, "hex": "76a9143851f34d13937b673a7d24a1950bb5b21ce94af388ac", "addresses": ["168o1kqNquEJeR9vosUB5fw4eAwcVAgh8P"], "asm": "OP_DUP OP_HASH160 3851f34d13937b673a7d24a1950bb5b21ce94af3 OP_EQUALVERIFY OP_CHECKSIG", "type": "pubkeyhash"}, "value": 5.46e-06, "n": 1}, {"scriptPubKey": {"type": "nulldata", "hex": "6a146f6d6e69000000000000001f0000002e5502587d", "asm": "OP_RETURN 6f6d6e69000000000000001f0000002e5502587d"}, "value": 0.0, "n": 2}], "hex": "01000000027c00276e53502e7107df4f03b0d98751304066f6b4344c8cc448ed9bee4d0901020000006a4730440220753477f8bfb3646866a37192c35c07da10bd152697e42aeb5b5812338cf0caf60220159571a1185352e5afdb8bf094d7839c26df882567241d52cc87a443ddbcc0a1012103c19a8335f9a710128e9cc9bf3fbbacea43189559f44460157451ef89273933bffffffffffba903b8e50866877b73671e4fbca015716c21b4cd55b28af9b13acafaf23d4f000000006a47304402203ddade02df49f9b67dbd9187b96ec66bd1d44d46d9fad71480de7b8182af4eaa02204b29d5f8627c6e03a805b1f5e883193b6c2fd0ac3fa57fc124c34122ebaafc8a01210271977291b74f1f5f5c42157e8aae804664eaaeccfd097918450d37f28fb94d77ffffffff03ac2c0100000000001976a914d243e6abb9a60fbff430b421d2df4b7d59ec186088ac22020000000000001976a9143851f34d13937b673a7d24a1950bb5b21ce94af388ac0000000000000000166a146f6d6e69000000000000001f0000002e5502587d00000000", "vin": [{"sequence": 4294967295, "scriptSig": {"hex": "4730440220753477f8bfb3646866a37192c35c07da10bd152697e42aeb5b5812338cf0caf60220159571a1185352e5afdb8bf094d7839c26df882567241d52cc87a443ddbcc0a1012103c19a8335f9a710128e9cc9bf3fbbacea43189559f44460157451ef89273933bf", "asm": "30440220753477f8bfb3646866a37192c35c07da10bd152697e42aeb5b5812338cf0caf60220159571a1185352e5afdb8bf094d7839c26df882567241d52cc87a443ddbcc0a1[ALL] 03c19a8335f9a710128e9cc9bf3fbbacea43189559f44460157451ef89273933bf"}, "vout": 2, "txid": "01094dee9bed48c48c4c34b4f66640305187d9b0034fdf07712e50536e27007c"}, {"sequence": 4294967295, "scriptSig": {"hex": "47304402203ddade02df49f9b67dbd9187b96ec66bd1d44d46d9fad71480de7b8182af4eaa02204b29d5f8627c6e03a805b1f5e883193b6c2fd0ac3fa57fc124c34122ebaafc8a01210271977291b74f1f5f5c42157e8aae804664eaaeccfd097918450d37f28fb94d77", "asm": "304402203ddade02df49f9b67dbd9187b96ec66bd1d44d46d9fad71480de7b8182af4eaa02204b29d5f8627c6e03a805b1f5e883193b6c2fd0ac3fa57fc124c34122ebaafc8a[ALL] 0271977291b74f1f5f5c42157e8aae804664eaaeccfd097918450d37f28fb94d77"}, "vout": 0, "txid": "4f3df2faca3ab1f98ab255cdb4216c7115a0bc4f1e67737b876608e5b803a9fb"}], "txid": "44f88d5a91e10d5a040094d94d4b728d023c4148388e71d9edf15717ea5bb4e9", "blocktime": 1537873891, "version": 1, "confirmations": 11475, "time": 1537873891, "locktime": 0, "vsize": 403, "size": 403}