{"hash": "993d7291dcff338e2f91b4c9db95746cdaf9457a5f1453ee113b8e613d51786e", "blockhash": "0000000000000000001f76057863aec43deb6fa401d9628bb513d65a8098bfab", "vout": [{"scriptPubKey": {"reqSigs": 1, "hex": "a914e0cf5bdeda48812b311ddd6cabf898cc26e7f7c287", "addresses": ["3NBhh4U3v3XJPd9WrpnNct2MUk2GGZq2s2"], "asm": "OP_HASH160 e0cf5bdeda48812b311ddd6cabf898cc26e7f7c2 OP_EQUAL", "type": "scripthash"}, "value": 0.00020124, "n": 0}, {"scriptPubKey": {"reqSigs": 1, "hex": "0014c688bade0dc8f87faef18f9edd14507d360eeceb", "addresses": ["bc1qc6yt4hsderu8lth3370d69zs05mqam8t2kj350"], "asm": "0 c688bade0dc8f87faef18f9edd14507d360eeceb", "type": "witness_v0_keyhash"}, "value": 1.047e-05, "n": 1}], "hex": "0100000000010187c941a74e26e248554dcb0ce80cccee569f912e787a1ac627b0e9d49c06f4a80100000000ffffffff029c4e00000000000017a914e0cf5bdeda48812b311ddd6cabf898cc26e7f7c2871704000000000000160014c688bade0dc8f87faef18f9edd14507d360eeceb02473044022057a7cecd48e46b6c2c76191dca574065ce5eeda1d4c713e39a09cf2e29ee9e8702201aa72a1c78032c60f560fc22be5e8725f9229e1536148283a8747119992c7312012102a2f36edacdb289577e88fb3abeb48190d1a82c39c222eca8412fdb45fd4fffe200000000", "vin": [{"txinwitness": ["3044022057a7cecd48e46b6c2c76191dca574065ce5eeda1d4c713e39a09cf2e29ee9e8702201aa72a1c78032c60f560fc22be5e8725f9229e1536148283a8747119992c731201", "02a2f36edacdb289577e88fb3abeb48190d1a82c39c222eca8412fdb45fd4fffe2"], "sequence": 4294967295, "scriptSig": {"hex": "", "asm": ""}, "vout": 1, "txid": "a8f4069cd4e9b027c61a7a782e919f56eecc0ce80ccb4d5548e2264ea741c987"}], "txid": "44ff0ea968070d06a0cb8e319e9479588fc2325234e4e5da6672df26cb67398d", "blocktime": 1537873891, "version": 1, "confirmations": 11478, "time": 1537873891, "locktime": 0, "vsize": 142, "size": 223}