{"hash": "45091f7dc56c6e00030d11f510586765eaafd51c5153ecd35101859ed02d0f97", "blockhash": "0000000000000000001f0ddff1eddb255c1121bcd4da4f1bc9a0da00cae72433", "vout": [{"scriptPubKey": {"reqSigs": 1, "hex": "76a9146d6f7fb0a33c8bd9af9873d1fec934105cc4bad988ac", "addresses": ["1AyeDyujT4Ja3okGYH91ogLqNSHJs9TDam"], "asm": "OP_DUP OP_HASH160 6d6f7fb0a33c8bd9af9873d1fec934105cc4bad9 OP_EQUALVERIFY OP_CHECKSIG", "type": "pubkeyhash"}, "value": 0.05642459, "n": 0}, {"scriptPubKey": {"type": "nulldata", "hex": "6a146f6d6e69000000000000001f000000256e0aee00", "asm": "OP_RETURN 6f6d6e69000000000000001f000000256e0aee00"}, "value": 0.0, "n": 1}, {"scriptPubKey": {"reqSigs": 1, "hex": "76a914193a5d77fdb84a39f8e38e47eed3c787dd38f0f688ac", "addresses": ["13JPp5LnhnQwRJQULkk4na4tbEBXL3RPwf"], "asm": "OP_DUP OP_HASH160 193a5d77fdb84a39f8e38e47eed3c787dd38f0f6 OP_EQUALVERIFY OP_CHECKSIG", "type": "pubkeyhash"}, "value": 5.46e-06, "n": 2}], "hex": "01000000017e810b8b39335a584648f6c2d32dba9a499fdff5f7696c4805ca33ded3960f67010000006a47304402206b2cbeac17bf4018a80c2bf5117f4e35f161fcb8fb486b3ce2b735ab7cbf468502207d0d10ebebbf620b7fac403696ad3b559d6c5263890e095c3155d194b9d07d310121026f427893387596acd0bf2b33de67ad2ca9f67dea7210d4b7263b1f46a8bb8d7efeffffff03db185600000000001976a9146d6f7fb0a33c8bd9af9873d1fec934105cc4bad988ac0000000000000000166a146f6d6e69000000000000001f000000256e0aee0022020000000000001976a914193a5d77fdb84a39f8e38e47eed3c787dd38f0f688ac0f490800", "vin": [{"sequence": 4294967294, "scriptSig": {"hex": "47304402206b2cbeac17bf4018a80c2bf5117f4e35f161fcb8fb486b3ce2b735ab7cbf468502207d0d10ebebbf620b7fac403696ad3b559d6c5263890e095c3155d194b9d07d310121026f427893387596acd0bf2b33de67ad2ca9f67dea7210d4b7263b1f46a8bb8d7e", "asm": "304402206b2cbeac17bf4018a80c2bf5117f4e35f161fcb8fb486b3ce2b735ab7cbf468502207d0d10ebebbf620b7fac403696ad3b559d6c5263890e095c3155d194b9d07d31[ALL] 026f427893387596acd0bf2b33de67ad2ca9f67dea7210d4b7263b1f46a8bb8d7e"}, "vout": 1, "txid": "670f96d3de33ca05486c69f7f5df9f499aba2dd3c2f64846585a33398b0b817e"}], "txid": "45091f7dc56c6e00030d11f510586765eaafd51c5153ecd35101859ed02d0f97", "blocktime": 1537872018, "version": 1, "confirmations": 11489, "time": 1537872018, "locktime": 542991, "vsize": 256, "size": 256}