{"hash": "450c4fbe496a516b307a0a68125d808820bd836b869c5b8449cef3d4f98e6de7", "blockhash": "0000000000000000000dcc0f55137456b1a82d3642486a52398922ac4d620174", "vout": [{"scriptPubKey": {"reqSigs": 1, "hex": "76a914edee4cd01d2aec45e69c37d9012c0f0662460a3688ac", "addresses": ["1Nh4cqp7vam27MfArPtxxvZxHmsTLL4fn6"], "asm": "OP_DUP OP_HASH160 edee4cd01d2aec45e69c37d9012c0f0662460a36 OP_EQUALVERIFY OP_CHECKSIG", "type": "pubkeyhash"}, "value": 0.00648916, "n": 0}, {"scriptPubKey": {"type": "nulldata", "hex": "6a4c500000777500018bdb47bcbefa6b8351586b4e86aeaeacb577c031fc3a016b46dc7dc7d096a6113f1ce4f05d25b7db32a4dfe90b7d5baa0941061473625010671e1d100759d4ba30d2c37bb011d97e02cf", "asm": "OP_RETURN 0000777500018bdb47bcbefa6b8351586b4e86aeaeacb577c031fc3a016b46dc7dc7d096a6113f1ce4f05d25b7db32a4dfe90b7d5baa0941061473625010671e1d100759d4ba30d2c37bb011d97e02cf"}, "value": 0.0, "n": 1}], "hex": "0100000001a517cbbb4800e7e09cfbc71082ad4263e0843f88b41fbe0dc398d0167742cb1a010000006a47304402203e65b938f11975964ee6cc7507dbf3ef2a62621184d3e076403d81026aa5ba0102207731ef17e7c526bebeacfca4258f12f70f274489af4fac768d7597d8c612f02a012102ff90e5a45bbcf9a8debaacb4857e4ad66124c8f696e7d9b39e98d0f7c8196302ffffffff02d4e60900000000001976a914edee4cd01d2aec45e69c37d9012c0f0662460a3688ac0000000000000000536a4c500000777500018bdb47bcbefa6b8351586b4e86aeaeacb577c031fc3a016b46dc7dc7d096a6113f1ce4f05d25b7db32a4dfe90b7d5baa0941061473625010671e1d100759d4ba30d2c37bb011d97e02cf00000000", "vin": [{"sequence": 4294967295, "scriptSig": {"hex": "47304402203e65b938f11975964ee6cc7507dbf3ef2a62621184d3e076403d81026aa5ba0102207731ef17e7c526bebeacfca4258f12f70f274489af4fac768d7597d8c612f02a012102ff90e5a45bbcf9a8debaacb4857e4ad66124c8f696e7d9b39e98d0f7c8196302", "asm": "304402203e65b938f11975964ee6cc7507dbf3ef2a62621184d3e076403d81026aa5ba0102207731ef17e7c526bebeacfca4258f12f70f274489af4fac768d7597d8c612f02a[ALL] 02ff90e5a45bbcf9a8debaacb4857e4ad66124c8f696e7d9b39e98d0f7c8196302"}, "vout": 1, "txid": "1acb427716d098c30dbe1fb4883f84e06342ad8210c7fb9ce0e70048bbcb17a5"}], "txid": "450c4fbe496a516b307a0a68125d808820bd836b869c5b8449cef3d4f98e6de7", "blocktime": 1537870268, "version": 1, "confirmations": 11518, "time": 1537870268, "locktime": 0, "vsize": 283, "size": 283}