{"hash": "45117c2f870817fa7a3c464f3777cd38c40dff403537a20c36ae6ca18c0eeb3a", "blockhash": "0000000000000000001f76057863aec43deb6fa401d9628bb513d65a8098bfab", "vout": [{"scriptPubKey": {"reqSigs": 1, "hex": "76a914d243e6abb9a60fbff430b421d2df4b7d59ec186088ac", "addresses": ["1LAnF8h3qMGx3TSwNUHVneBZUEpwE4gu3D"], "asm": "OP_DUP OP_HASH160 d243e6abb9a60fbff430b421d2df4b7d59ec1860 OP_EQUALVERIFY OP_CHECKSIG", "type": "pubkeyhash"}, "value": 0.00076972, "n": 0}, {"scriptPubKey": {"reqSigs": 1, "hex": "76a9143851f34d13937b673a7d24a1950bb5b21ce94af388ac", "addresses": ["168o1kqNquEJeR9vosUB5fw4eAwcVAgh8P"], "asm": "OP_DUP OP_HASH160 3851f34d13937b673a7d24a1950bb5b21ce94af3 OP_EQUALVERIFY OP_CHECKSIG", "type": "pubkeyhash"}, "value": 5.46e-06, "n": 1}, {"scriptPubKey": {"type": "nulldata", "hex": "6a146f6d6e69000000000000001f000001913caf3100", "asm": "OP_RETURN 6f6d6e69000000000000001f000001913caf3100"}, "value": 0.0, "n": 2}], "hex": "0100000002a1efdbe6357a0c88a67a29f384abb732ebd522959cfb879ac75da51d0e66b149000000006a473044022076691b8a639ea156b344881bad79172d2ef0195889f1de6e479b1683020c2d0902207f8b12cabed91c0ceeb0d6ab5b1e128c9393608f214642a431ac3542998b0f15012103c20bf8aaee3e865e0155106f9995d3974c7f07277b3ccf69e624fb4d77e4c5c3ffffffff836b9005269b834afbe8c2aa75468c6dc048e12f63dd93eb28898f0f373ca4ac000000006b483045022100a1635c3947c1112722a67969c81d2fcdb71a1f28b5e005a7ea0ce61529df5626022064d6e38575a5f93fb0a38d942d2bdd7849f3a6445c4557a22bf1df56c3d3635f01210271977291b74f1f5f5c42157e8aae804664eaaeccfd097918450d37f28fb94d77ffffffff03ac2c0100000000001976a914d243e6abb9a60fbff430b421d2df4b7d59ec186088ac22020000000000001976a9143851f34d13937b673a7d24a1950bb5b21ce94af388ac0000000000000000166a146f6d6e69000000000000001f000001913caf310000000000", "vin": [{"sequence": 4294967295, "scriptSig": {"hex": "473044022076691b8a639ea156b344881bad79172d2ef0195889f1de6e479b1683020c2d0902207f8b12cabed91c0ceeb0d6ab5b1e128c9393608f214642a431ac3542998b0f15012103c20bf8aaee3e865e0155106f9995d3974c7f07277b3ccf69e624fb4d77e4c5c3", "asm": "3044022076691b8a639ea156b344881bad79172d2ef0195889f1de6e479b1683020c2d0902207f8b12cabed91c0ceeb0d6ab5b1e128c9393608f214642a431ac3542998b0f15[ALL] 03c20bf8aaee3e865e0155106f9995d3974c7f07277b3ccf69e624fb4d77e4c5c3"}, "vout": 0, "txid": "49b1660e1da55dc79a87fb9c9522d5eb32b7ab84f3297aa6880c7a35e6dbefa1"}, {"sequence": 4294967295, "scriptSig": {"hex": "483045022100a1635c3947c1112722a67969c81d2fcdb71a1f28b5e005a7ea0ce61529df5626022064d6e38575a5f93fb0a38d942d2bdd7849f3a6445c4557a22bf1df56c3d3635f01210271977291b74f1f5f5c42157e8aae804664eaaeccfd097918450d37f28fb94d77", "asm": "3045022100a1635c3947c1112722a67969c81d2fcdb71a1f28b5e005a7ea0ce61529df5626022064d6e38575a5f93fb0a38d942d2bdd7849f3a6445c4557a22bf1df56c3d3635f[ALL] 0271977291b74f1f5f5c42157e8aae804664eaaeccfd097918450d37f28fb94d77"}, "vout": 0, "txid": "aca43c370f8f8928eb93dd632fe148c06d8c4675aac2e8fb4a839b2605906b83"}], "txid": "45117c2f870817fa7a3c464f3777cd38c40dff403537a20c36ae6ca18c0eeb3a", "blocktime": 1537873891, "version": 1, "confirmations": 11475, "time": 1537873891, "locktime": 0, "vsize": 404, "size": 404}