{"hash": "4513db03bf80bd8aef251ea9601a3cdb4772ff3b96a61294859aff779e0aa922", "blockhash": "0000000000000000000baef3f32e3676a92c3b2e5da21b426e4f302fc371ce76", "vout": [{"scriptPubKey": {"reqSigs": 1, "hex": "76a9140381c98dfd9239d4e6a7537081eac1c0fd510cf788ac", "addresses": ["1KYWMhCAjLM1tNsCvd2cksoDmJyJbrw4m"], "asm": "OP_DUP OP_HASH160 0381c98dfd9239d4e6a7537081eac1c0fd510cf7 OP_EQUALVERIFY OP_CHECKSIG", "type": "pubkeyhash"}, "value": 0.0323887, "n": 0}, {"scriptPubKey": {"reqSigs": 1, "hex": "76a91446e7b375d7337504df427785fe409fdb1f468c9b88ac", "addresses": ["17TusJE9j2KmAmKBjAYF4dKYKnFU3EhGKK"], "asm": "OP_DUP OP_HASH160 46e7b375d7337504df427785fe409fdb1f468c9b OP_EQUALVERIFY OP_CHECKSIG", "type": "pubkeyhash"}, "value": 1.3676, "n": 1}], "hex": "0100000001cae24375392daf89896cde7bafbef60a10cfadb5d6d92bb134013bc7aee14c98010000006b483045022100bc16c6f211581bd5f1107dcc1bb4fc121c198dd32aee513bf796bc455e636bca02207869d25c35786f0779edd3abcfbcd5c809c45314c3060f45868fd287ee61bc6a012103c044a48b1aecbc0f2da08093d60f3dde4fec45140affd2ed5cb83306436edfacfdffffff02d66b3100000000001976a9140381c98dfd9239d4e6a7537081eac1c0fd510cf788acc0ca2608000000001976a91446e7b375d7337504df427785fe409fdb1f468c9b88ac16490800", "vin": [{"sequence": 4294967293, "scriptSig": {"hex": "483045022100bc16c6f211581bd5f1107dcc1bb4fc121c198dd32aee513bf796bc455e636bca02207869d25c35786f0779edd3abcfbcd5c809c45314c3060f45868fd287ee61bc6a012103c044a48b1aecbc0f2da08093d60f3dde4fec45140affd2ed5cb83306436edfac", "asm": "3045022100bc16c6f211581bd5f1107dcc1bb4fc121c198dd32aee513bf796bc455e636bca02207869d25c35786f0779edd3abcfbcd5c809c45314c3060f45868fd287ee61bc6a[ALL] 03c044a48b1aecbc0f2da08093d60f3dde4fec45140affd2ed5cb83306436edfac"}, "vout": 1, "txid": "984ce1aec73b0134b12bd9d6b5adcf100af6beaf7bde6c8989af2d397543e2ca"}], "txid": "4513db03bf80bd8aef251ea9601a3cdb4772ff3b96a61294859aff779e0aa922", "blocktime": 1537876114, "version": 1, "confirmations": 11460, "time": 1537876114, "locktime": 542998, "vsize": 226, "size": 226}