{"hash": "cc8b755c97985d4befbbe6b9ced23fa14079ce99fa2fba1731d7dcecadd8efa5", "blockhash": "0000000000000000001cda96e906b7601b7a6fb1a3b62bca570a9e5d8f4b3de1", "vout": [{"scriptPubKey": {"reqSigs": 1, "hex": "a914dd442653e5ef8643072e5d320b182a445f67e16c87", "addresses": ["3Mrxu4eT9DxWymea1zSf6mHSecgojRQuBM"], "asm": "OP_HASH160 dd442653e5ef8643072e5d320b182a445f67e16c OP_EQUAL", "type": "scripthash"}, "value": 0.0102118, "n": 0}, {"scriptPubKey": {"reqSigs": 1, "hex": "a91443f62a3d4933e05622cd51c77017b970eed9a05b87", "addresses": ["37tN6EtYzsorm6zBcpfWz8w5xRNy3mab33"], "asm": "OP_HASH160 43f62a3d4933e05622cd51c77017b970eed9a05b OP_EQUAL", "type": "scripthash"}, "value": 0.35485884, "n": 1}], "hex": "010000000001012d70f1ed80c483998c0d1c370bdf2e06af665317de1f6586840ebe30cce3fd6b01000000232200201dd6ce43abdc84f34fdcc73ab17bc29ae9c934e26a45e54e686de9b71cb3af4affffffff02fc940f000000000017a914dd442653e5ef8643072e5d320b182a445f67e16c87bc781d020000000017a91443f62a3d4933e05622cd51c77017b970eed9a05b8704004730440220575fc05961649a241211f602f9e657789ffeb2ca926ed4f2f7d9f471623d52d6022010922c6884bc4e983420403c8bda6722b0664f72c62f1bff2cba1def5e643971014730440220613f48c77faa12e66919effd12ddd72be8e6683cb7ed3dd6ccdd8cd896a021820220416c5fc545cab7541dbe990dcb7444f9c90288238629a9d4098775d7f1be780d01475221023d094ce44231935102dd1c672bc70808e5831d5d55d4082df3b1d9c342a4f7b92103c86ff487c5c7bef620008af5c952420bf509584280226750bb54cc3b293fd7ec52ae00000000", "vin": [{"txinwitness": ["", "30440220575fc05961649a241211f602f9e657789ffeb2ca926ed4f2f7d9f471623d52d6022010922c6884bc4e983420403c8bda6722b0664f72c62f1bff2cba1def5e64397101", "30440220613f48c77faa12e66919effd12ddd72be8e6683cb7ed3dd6ccdd8cd896a021820220416c5fc545cab7541dbe990dcb7444f9c90288238629a9d4098775d7f1be780d01", "5221023d094ce44231935102dd1c672bc70808e5831d5d55d4082df3b1d9c342a4f7b92103c86ff487c5c7bef620008af5c952420bf509584280226750bb54cc3b293fd7ec52ae"], "sequence": 4294967295, "scriptSig": {"hex": "2200201dd6ce43abdc84f34fdcc73ab17bc29ae9c934e26a45e54e686de9b71cb3af4a", "asm": "00201dd6ce43abdc84f34fdcc73ab17bc29ae9c934e26a45e54e686de9b71cb3af4a"}, "vout": 1, "txid": "6bfde3cc30be0e8486651fde175366af062edf0b371c0d8c9983c480edf1702d"}], "txid": "4516f54578b8407d82460338a64378156c5bf249a2a8f122760b719dc23b1c56", "blocktime": 1537873282, "version": 1, "confirmations": 11484, "time": 1537873282, "locktime": 0, "vsize": 205, "size": 370}