{"hash": "451823b8ea7741b67e188e8d57dc3725c4afff89f80e9439bc1b3c3968e6545f", "blockhash": "0000000000000000001cda96e906b7601b7a6fb1a3b62bca570a9e5d8f4b3de1", "vout": [{"scriptPubKey": {"reqSigs": 1, "hex": "76a914597a09c45d5093ffb3dd047def099a1cd4ff022188ac", "addresses": ["19A7LS5bAAnahkRVZMGhAHbWqHvEnsLLkM"], "asm": "OP_DUP OP_HASH160 597a09c45d5093ffb3dd047def099a1cd4ff0221 OP_EQUALVERIFY OP_CHECKSIG", "type": "pubkeyhash"}, "value": 0.00638756, "n": 0}, {"scriptPubKey": {"type": "nulldata", "hex": "6a4c50000077bf0001ce0740a7300269d72388dca3e5bf9ae76da98a211aaf6c953dd567cf27e712cbd8bf2efe34dde5d497539897bcc65baa12880612ceabd07c420c1d100759d4ba30d2c37bb011d97e02cf", "asm": "OP_RETURN 000077bf0001ce0740a7300269d72388dca3e5bf9ae76da98a211aaf6c953dd567cf27e712cbd8bf2efe34dde5d497539897bcc65baa12880612ceabd07c420c1d100759d4ba30d2c37bb011d97e02cf"}, "value": 0.0, "n": 1}], "hex": "0100000001e7ae50dedae7813286c1a67d58a5792c3194613dc364981720a3124a0b6eee3b000000006b483045022100bf009e9c82d3c5bb0d96e6d4bc09db5978470d7382cafc6d66c8a351d1309b7602205dd9f7cb2f542de03bc4a3e830b47d5dd1812637be3283e9e6b49733657920b501210364b355a15d7c99844911b697144bd3e9b31adc52847a64ea130194fbb220136fffffffff0224bf0900000000001976a914597a09c45d5093ffb3dd047def099a1cd4ff022188ac0000000000000000536a4c50000077bf0001ce0740a7300269d72388dca3e5bf9ae76da98a211aaf6c953dd567cf27e712cbd8bf2efe34dde5d497539897bcc65baa12880612ceabd07c420c1d100759d4ba30d2c37bb011d97e02cf00000000", "vin": [{"sequence": 4294967295, "scriptSig": {"hex": "483045022100bf009e9c82d3c5bb0d96e6d4bc09db5978470d7382cafc6d66c8a351d1309b7602205dd9f7cb2f542de03bc4a3e830b47d5dd1812637be3283e9e6b49733657920b501210364b355a15d7c99844911b697144bd3e9b31adc52847a64ea130194fbb220136f", "asm": "3045022100bf009e9c82d3c5bb0d96e6d4bc09db5978470d7382cafc6d66c8a351d1309b7602205dd9f7cb2f542de03bc4a3e830b47d5dd1812637be3283e9e6b49733657920b5[ALL] 0364b355a15d7c99844911b697144bd3e9b31adc52847a64ea130194fbb220136f"}, "vout": 0, "txid": "3bee6e0b4a12a320179864c33d6194312c79a5587da6c1863281e7dade50aee7"}], "txid": "451823b8ea7741b67e188e8d57dc3725c4afff89f80e9439bc1b3c3968e6545f", "blocktime": 1537873282, "version": 1, "confirmations": 11484, "time": 1537873282, "locktime": 0, "vsize": 284, "size": 284}