{"hash": "451d3dc43ff5fa455510653693b9da24bc5853733fad65e2c3d02754cd399f9a", "blockhash": "0000000000000000001e0dab787dd257d1dbfcb92a98c2207d5e1078be1f4165", "vout": [{"scriptPubKey": {"reqSigs": 1, "hex": "76a914363b66a65f487eb48f38b4bc25369054c322dfa688ac", "addresses": ["15wkecSUQF5e5fhyUbFTiMntYe86xHJ9nY"], "asm": "OP_DUP OP_HASH160 363b66a65f487eb48f38b4bc25369054c322dfa6 OP_EQUALVERIFY OP_CHECKSIG", "type": "pubkeyhash"}, "value": 0.00485846, "n": 0}, {"scriptPubKey": {"reqSigs": 1, "hex": "76a914205aafd799f16c553d98da8eeff82189e172c10f88ac", "addresses": ["13x5GB5MYCuax267AFhkUdcoimPQkWpbCq"], "asm": "OP_DUP OP_HASH160 205aafd799f16c553d98da8eeff82189e172c10f OP_EQUALVERIFY OP_CHECKSIG", "type": "pubkeyhash"}, "value": 0.01905884, "n": 1}], "hex": "0100000002e1fab959196f14a503252441f96b43fd6cdd6ff23e4cccf86e89ac142b3b22c5000000006b48304502210089571135ae21669c576fdca9522c46397aeec0d8f5589f3427e85b2976ced5d00220275e4c5ead5e6b313f36844dc2273458696c5ee7f10703e81b013a71a77d90b2012102d516a0649279d7643c3336041dcfbbff835e0d853fe982279fa95d228ea33bdfffffffffb289d138c4faf6c1948d61fed9e2efc2ecfda72c04834263ec3f3fc7c5cc69fb000000006a4730440220463e6165f9a2954e2858a31e22ac8234b6a7cc485e07ffaa4a38eaef0010741d022014a20bd44a8428185015075ee2395bf4eee0a5625e339bc6eec7d5186bd21c86012102a8b710d3afde3d476724ff86d1d8426c11672ebc40b06b49a11e47897787244bffffffff02d6690700000000001976a914363b66a65f487eb48f38b4bc25369054c322dfa688acdc141d00000000001976a914205aafd799f16c553d98da8eeff82189e172c10f88ac00000000", "vin": [{"sequence": 4294967295, "scriptSig": {"hex": "48304502210089571135ae21669c576fdca9522c46397aeec0d8f5589f3427e85b2976ced5d00220275e4c5ead5e6b313f36844dc2273458696c5ee7f10703e81b013a71a77d90b2012102d516a0649279d7643c3336041dcfbbff835e0d853fe982279fa95d228ea33bdf", "asm": "304502210089571135ae21669c576fdca9522c46397aeec0d8f5589f3427e85b2976ced5d00220275e4c5ead5e6b313f36844dc2273458696c5ee7f10703e81b013a71a77d90b2[ALL] 02d516a0649279d7643c3336041dcfbbff835e0d853fe982279fa95d228ea33bdf"}, "vout": 0, "txid": "c5223b2b14ac896ef8cc4c3ef26fdd6cfd436bf941242503a5146f1959b9fae1"}, {"sequence": 4294967295, "scriptSig": {"hex": "4730440220463e6165f9a2954e2858a31e22ac8234b6a7cc485e07ffaa4a38eaef0010741d022014a20bd44a8428185015075ee2395bf4eee0a5625e339bc6eec7d5186bd21c86012102a8b710d3afde3d476724ff86d1d8426c11672ebc40b06b49a11e47897787244b", "asm": "30440220463e6165f9a2954e2858a31e22ac8234b6a7cc485e07ffaa4a38eaef0010741d022014a20bd44a8428185015075ee2395bf4eee0a5625e339bc6eec7d5186bd21c86[ALL] 02a8b710d3afde3d476724ff86d1d8426c11672ebc40b06b49a11e47897787244b"}, "vout": 0, "txid": "fb69ccc5c73f3fec634283042ca7fdecc2efe2d9fe618d94c1f6fac438d189b2"}], "txid": "451d3dc43ff5fa455510653693b9da24bc5853733fad65e2c3d02754cd399f9a", "blocktime": 1537872475, "version": 1, "confirmations": 11487, "time": 1537872475, "locktime": 0, "vsize": 373, "size": 373}