{"hash": "898d4b8e4d7ba6464d65660d910619613e8cebeb6f9bdb52ee10ec228c7f5bbd", "blockhash": "0000000000000000001cda96e906b7601b7a6fb1a3b62bca570a9e5d8f4b3de1", "vout": [{"scriptPubKey": {"reqSigs": 1, "hex": "76a914a62ab2b5ea6e9dc9d023ec8b573c8250a345661388ac", "addresses": ["1G9cKZRbacv4jdAQXMkPqpDqkkECnu6Gzn"], "asm": "OP_DUP OP_HASH160 a62ab2b5ea6e9dc9d023ec8b573c8250a3456613 OP_EQUALVERIFY OP_CHECKSIG", "type": "pubkeyhash"}, "value": 0.6843233, "n": 0}, {"scriptPubKey": {"reqSigs": 1, "hex": "a9149b35cf5f5655e0ddb0f64a712d2978cf1deb626f87", "addresses": ["3Fqh84jXaRHEeHKzp7wcZSyCNskmusyLj2"], "asm": "OP_HASH160 9b35cf5f5655e0ddb0f64a712d2978cf1deb626f OP_EQUAL", "type": "scripthash"}, "value": 0.99313023, "n": 1}, {"scriptPubKey": {"reqSigs": 1, "hex": "a914881f3d0de8007a3da5713c4dfe90781b8f26a82087", "addresses": ["3E6mF7zCCub965hzcxWJqo1zn9aApHFVcT"], "asm": "OP_HASH160 881f3d0de8007a3da5713c4dfe90781b8f26a820 OP_EQUAL", "type": "scripthash"}, "value": 0.02373444, "n": 2}, {"scriptPubKey": {"reqSigs": 1, "hex": "a914c54350806adce7e90b6759f521159ae56477099d87", "addresses": ["3Kg3gRbujWFt6wR5wQ3fm5bHKCC1YEtupM"], "asm": "OP_HASH160 c54350806adce7e90b6759f521159ae56477099d OP_EQUAL", "type": "scripthash"}, "value": 0.67500752, "n": 3}, {"scriptPubKey": {"reqSigs": 1, "hex": "a91469f373b0e1d09a267475d7b4e04c9281f63c356987", "addresses": ["3BMEX2DPGLwsuuWq86xUmLzLgG8oGgoqig"], "asm": "OP_HASH160 69f373b0e1d09a267475d7b4e04c9281f63c3569 OP_EQUAL", "type": "scripthash"}, "value": 0.03168544, "n": 4}], "hex": "0100000000010163ebb8d5e0d519703e8795a70ba775c8d32b8a6704c896608d128a48bd5e361200000000232200204f81a10f31d07a722dd5443bca6e2ea8909f71738ea9102d9dac02b03e781009ffffffff05ca311404000000001976a914a62ab2b5ea6e9dc9d023ec8b573c8250a345661388ac7f65eb050000000017a9149b35cf5f5655e0ddb0f64a712d2978cf1deb626f87443724000000000017a914881f3d0de8007a3da5713c4dfe90781b8f26a82087d0fa05040000000017a914c54350806adce7e90b6759f521159ae56477099d87205930000000000017a91469f373b0e1d09a267475d7b4e04c9281f63c3569870400473044022065d0a6b1fa3277e839f7137a035b1a7a0bcb695475beb1068391b6f9683d624402207001ef97f7efe8ce9e49bf6d467656a5da6f1c101e53953a1260f41fd472eb480147304402203e9a12995008d34f3034064d87f625b79d4fcc2b3ad1e915d7f90017a84ca3920220556a9ac3be29d92d36a09ae8af396b07ed442cc148b4e34709b7fdd05246598e0169522103451d6f2b4dcfc94dc255aa422881596668170a6343dfdc8b6a09536fcb17f2e92102300f97821a640c3633db9583da8596ab737f376b2af10125bd2cee55451528452102948dce40da93693fbe872df4b87649d47e2a0ced9262d8a4e1103f697c89fb5153ae00000000", "vin": [{"txinwitness": ["", "3044022065d0a6b1fa3277e839f7137a035b1a7a0bcb695475beb1068391b6f9683d624402207001ef97f7efe8ce9e49bf6d467656a5da6f1c101e53953a1260f41fd472eb4801", "304402203e9a12995008d34f3034064d87f625b79d4fcc2b3ad1e915d7f90017a84ca3920220556a9ac3be29d92d36a09ae8af396b07ed442cc148b4e34709b7fdd05246598e01", "522103451d6f2b4dcfc94dc255aa422881596668170a6343dfdc8b6a09536fcb17f2e92102300f97821a640c3633db9583da8596ab737f376b2af10125bd2cee55451528452102948dce40da93693fbe872df4b87649d47e2a0ced9262d8a4e1103f697c89fb5153ae"], "sequence": 4294967295, "scriptSig": {"hex": "2200204f81a10f31d07a722dd5443bca6e2ea8909f71738ea9102d9dac02b03e781009", "asm": "00204f81a10f31d07a722dd5443bca6e2ea8909f71738ea9102d9dac02b03e781009"}, "vout": 0, "txid": "12365ebd488a128d6096c804678a2bd3c875a70ba795873e7019d5e0d5b8eb63"}], "txid": "4521675727308c5faa46713426898dfe8927c870172022b7dcb461efee1431aa", "blocktime": 1537873282, "version": 1, "confirmations": 11480, "time": 1537873282, "locktime": 0, "vsize": 312, "size": 502}