{"hash": "803ef26e0c8119211c51172c1098506d6fa97a3505b9fbb41e8ade30c12031a6", "blockhash": "00000000000000000017f5eb5941039fbcee6240d03bc1f2f8e35350df66a1d8", "vout": [{"scriptPubKey": {"reqSigs": 1, "hex": "a9145e3432a50772d22766ccb2a85b2b8be69548fe8b87", "addresses": ["3AH7yLwiWTtC8pjWdVjVU41qZzhju1Gzpa"], "asm": "OP_HASH160 5e3432a50772d22766ccb2a85b2b8be69548fe8b OP_EQUAL", "type": "scripthash"}, "value": 0.79916896, "n": 0}, {"scriptPubKey": {"reqSigs": 1, "hex": "a91426b2532944768fc88e83fa299e9633d397f4b28a87", "addresses": ["35DdE4VSTe9CqD6f8FNmpBq4mus2WPXNuo"], "asm": "OP_HASH160 26b2532944768fc88e83fa299e9633d397f4b28a OP_EQUAL", "type": "scripthash"}, "value": 0.1, "n": 1}], "hex": "02000000000101d24ea14bb47bbeb65334c1b0072a7e3b75812e8a9755ddeadfd5bc6e97b034c101000000171600145c1f968cf37a1789021ca7570fbe6c89efa0b86efeffffff02606fc3040000000017a9145e3432a50772d22766ccb2a85b2b8be69548fe8b87809698000000000017a91426b2532944768fc88e83fa299e9633d397f4b28a870247304402205ea81c32e0a45fa52f04bfedf292bd3dde7c28f04acdc5d39777fab8e43ceb94022046f501d6552ac91d061bdf9e136fbc84b4bf3c5667ca4a8adac548b1bae70505012103f698f58d59c1cafc0b0039dafa11c3e91e1b405e683e1243b58bb7bd92c04b1215490800", "vin": [{"txinwitness": ["304402205ea81c32e0a45fa52f04bfedf292bd3dde7c28f04acdc5d39777fab8e43ceb94022046f501d6552ac91d061bdf9e136fbc84b4bf3c5667ca4a8adac548b1bae7050501", "03f698f58d59c1cafc0b0039dafa11c3e91e1b405e683e1243b58bb7bd92c04b12"], "sequence": 4294967294, "scriptSig": {"hex": "1600145c1f968cf37a1789021ca7570fbe6c89efa0b86e", "asm": "00145c1f968cf37a1789021ca7570fbe6c89efa0b86e"}, "vout": 1, "txid": "c134b0976ebcd5dfeadd55978a2e81753b7e2a07b0c13453b6be7bb44ba14ed2"}], "txid": "4523d1e321f811bf6ea1fb564c26556570b22f56680e867b49c0ba2e62ec303a", "blocktime": 1537874412, "version": 2, "confirmations": 11468, "time": 1537874412, "locktime": 542997, "vsize": 166, "size": 247}