{"hash": "45274e6db47ed693f56f638e52581a9fbf6b91ad386e7f8ef1baa103ab58f2fc", "blockhash": "0000000000000000001cda96e906b7601b7a6fb1a3b62bca570a9e5d8f4b3de1", "vout": [{"scriptPubKey": {"reqSigs": 1, "hex": "76a9143ad8b2fa4de41bcd36f02ad87bba75f617c93fee88ac", "addresses": ["16N9neTUwB5LqQVi3sbYfTBMbAexr2stjB"], "asm": "OP_DUP OP_HASH160 3ad8b2fa4de41bcd36f02ad87bba75f617c93fee OP_EQUALVERIFY OP_CHECKSIG", "type": "pubkeyhash"}, "value": 0.84231854, "n": 0}, {"scriptPubKey": {"reqSigs": 1, "hex": "76a9147c24006585c43719e5330bd64fb2e8144a6c5d9388ac", "addresses": ["1CKPvDfte5e7sVLXSg1zCMd9MSjXGK88J9"], "asm": "OP_DUP OP_HASH160 7c24006585c43719e5330bd64fb2e8144a6c5d93 OP_EQUALVERIFY OP_CHECKSIG", "type": "pubkeyhash"}, "value": 1.5109817, "n": 1}], "hex": "0100000002e0aba3f98d6502e1c622d549616ed8ffa03323b65d25d45cf7a8c63f3d1d5367010000006b48304502210092e772f32681794c774b5f00b1f80deb651c19d95ba80132b9a5b01cc938f6d50220744eee2f31fee61aeb637017bbc8c6376674638aa8c2c287101db234b299da8e0121033520c025e0ba4995bbb001ea2c979e6e6f27ad76ac0390f49940f20b30908d9cffffffff45e8eeeeda4decf4ecfb94cd5714e1731565a56a6f4df78c7eaedb748d0474b6010000006b483045022100b6d73e6d1e2cd42f8c8a11fe73347b7d50eacb3c3daf4a0eb93acfbdd148dcd3022023d613241ddc00ff05b8dbb81828d7ebeba24600841d78efaaf4bf7293af3a4301210331e2731241e541e6d889cb759f8c42de3af569538f3152193564f6f8056f2a96ffffffff02ae460505000000001976a9143ad8b2fa4de41bcd36f02ad87bba75f617c93fee88ac3a930109000000001976a9147c24006585c43719e5330bd64fb2e8144a6c5d9388ac00000000", "vin": [{"sequence": 4294967295, "scriptSig": {"hex": "48304502210092e772f32681794c774b5f00b1f80deb651c19d95ba80132b9a5b01cc938f6d50220744eee2f31fee61aeb637017bbc8c6376674638aa8c2c287101db234b299da8e0121033520c025e0ba4995bbb001ea2c979e6e6f27ad76ac0390f49940f20b30908d9c", "asm": "304502210092e772f32681794c774b5f00b1f80deb651c19d95ba80132b9a5b01cc938f6d50220744eee2f31fee61aeb637017bbc8c6376674638aa8c2c287101db234b299da8e[ALL] 033520c025e0ba4995bbb001ea2c979e6e6f27ad76ac0390f49940f20b30908d9c"}, "vout": 1, "txid": "67531d3d3fc6a8f75cd4255db62333a0ffd86e6149d522c6e102658df9a3abe0"}, {"sequence": 4294967295, "scriptSig": {"hex": "483045022100b6d73e6d1e2cd42f8c8a11fe73347b7d50eacb3c3daf4a0eb93acfbdd148dcd3022023d613241ddc00ff05b8dbb81828d7ebeba24600841d78efaaf4bf7293af3a4301210331e2731241e541e6d889cb759f8c42de3af569538f3152193564f6f8056f2a96", "asm": "3045022100b6d73e6d1e2cd42f8c8a11fe73347b7d50eacb3c3daf4a0eb93acfbdd148dcd3022023d613241ddc00ff05b8dbb81828d7ebeba24600841d78efaaf4bf7293af3a43[ALL] 0331e2731241e541e6d889cb759f8c42de3af569538f3152193564f6f8056f2a96"}, "vout": 1, "txid": "b674048d74dbae7e8cf74d6f6aa5651573e11457cd94fbecf4ec4ddaeeeee845"}], "txid": "45274e6db47ed693f56f638e52581a9fbf6b91ad386e7f8ef1baa103ab58f2fc", "blocktime": 1537873282, "version": 1, "confirmations": 11485, "time": 1537873282, "locktime": 0, "vsize": 374, "size": 374}