{"hash": "4532fec2e0fcbab7cc3f9bd23dedf951824a95cc49817996a08a6014d9b8c077", "blockhash": "0000000000000000000dcc0f55137456b1a82d3642486a52398922ac4d620174", "vout": [{"scriptPubKey": {"reqSigs": 1, "hex": "76a9146b2197d52044c9ca888b1f9dced3eca8053a8c8488ac", "addresses": ["1AmTYcg6ZLFixMFSyH78YHamLcN9g4mGXv"], "asm": "OP_DUP OP_HASH160 6b2197d52044c9ca888b1f9dced3eca8053a8c84 OP_EQUALVERIFY OP_CHECKSIG", "type": "pubkeyhash"}, "value": 0.00249344, "n": 0}, {"scriptPubKey": {"reqSigs": 1, "hex": "76a914ad8a08b304b6426b019a6ee8df358d4197f8e59288ac", "addresses": ["1GpbFxSTEMR8XncQzyPrdx9mXaV2eKm3P2"], "asm": "OP_DUP OP_HASH160 ad8a08b304b6426b019a6ee8df358d4197f8e592 OP_EQUALVERIFY OP_CHECKSIG", "type": "pubkeyhash"}, "value": 0.00475765, "n": 1}], "hex": "0100000001a8587ad3f0f6fa1d19fd05be876376c5b87e84e6908defba4041ad4e8d1fff6d000000006b483045022100af57c9393fad1455aac5f93ca5cadc6f1101a6b0b62d791306882d44b51df0ce02207afb5f8b27bc22af710a20ab6d69417e3dfc1387b519ccd3a11bac252c984bf9012102c0bd1cf1f1c0b666e4c5a38ad87e11ef4c551eeeab4f3074a639499ce3e0d588ffffffff0200ce0300000000001976a9146b2197d52044c9ca888b1f9dced3eca8053a8c8488ac75420700000000001976a914ad8a08b304b6426b019a6ee8df358d4197f8e59288ac00000000", "vin": [{"sequence": 4294967295, "scriptSig": {"hex": "483045022100af57c9393fad1455aac5f93ca5cadc6f1101a6b0b62d791306882d44b51df0ce02207afb5f8b27bc22af710a20ab6d69417e3dfc1387b519ccd3a11bac252c984bf9012102c0bd1cf1f1c0b666e4c5a38ad87e11ef4c551eeeab4f3074a639499ce3e0d588", "asm": "3045022100af57c9393fad1455aac5f93ca5cadc6f1101a6b0b62d791306882d44b51df0ce02207afb5f8b27bc22af710a20ab6d69417e3dfc1387b519ccd3a11bac252c984bf9[ALL] 02c0bd1cf1f1c0b666e4c5a38ad87e11ef4c551eeeab4f3074a639499ce3e0d588"}, "vout": 0, "txid": "6dff1f8d4ead4140baef8d90e6847eb8c5766387be05fd191dfaf6f0d37a58a8"}], "txid": "4532fec2e0fcbab7cc3f9bd23dedf951824a95cc49817996a08a6014d9b8c077", "blocktime": 1537870268, "version": 1, "confirmations": 11518, "time": 1537870268, "locktime": 0, "vsize": 226, "size": 226}