{"hash": "4537af9aaca52642b58001f2a219b3b419181f5da20c875f72aec56542208d4c", "blockhash": "0000000000000000001cda96e906b7601b7a6fb1a3b62bca570a9e5d8f4b3de1", "vout": [{"scriptPubKey": {"reqSigs": 1, "hex": "76a91465b9d69e283ab2a6df022f86189ecfeca51fa0c388ac", "addresses": ["1AGsseh71HHdRq1UxerPb14pkrPcczANzv"], "asm": "OP_DUP OP_HASH160 65b9d69e283ab2a6df022f86189ecfeca51fa0c3 OP_EQUALVERIFY OP_CHECKSIG", "type": "pubkeyhash"}, "value": 0.00156134, "n": 0}, {"scriptPubKey": {"reqSigs": 1, "hex": "76a914ac71a534739795eef0163f6a53b9631a16b3d58b88ac", "addresses": ["1GioNDEUQumJm7gAYWLg2oLpz1fRLGV1hB"], "asm": "OP_DUP OP_HASH160 ac71a534739795eef0163f6a53b9631a16b3d58b OP_EQUALVERIFY OP_CHECKSIG", "type": "pubkeyhash"}, "value": 0.01804244, "n": 1}], "hex": "010000000167945b62e4aef4cf0758ebc62b449eba4bdf2123a953c3620999f6365ad2a9a7010000006b483045022100f892d7386a74d3ff37f9f9348099a11085817c833240ba2a6b43bb69fd70754e022033e5e6664489c828abcaaf591b49d87e50e6f31e1ae6dbd3d9a438cb953f8c26012103919a81d0ee64386785751311611aaa11213fb6e352a9a68c28122933bd66a6a6ffffffff02e6610200000000001976a91465b9d69e283ab2a6df022f86189ecfeca51fa0c388acd4871b00000000001976a914ac71a534739795eef0163f6a53b9631a16b3d58b88ac00000000", "vin": [{"sequence": 4294967295, "scriptSig": {"hex": "483045022100f892d7386a74d3ff37f9f9348099a11085817c833240ba2a6b43bb69fd70754e022033e5e6664489c828abcaaf591b49d87e50e6f31e1ae6dbd3d9a438cb953f8c26012103919a81d0ee64386785751311611aaa11213fb6e352a9a68c28122933bd66a6a6", "asm": "3045022100f892d7386a74d3ff37f9f9348099a11085817c833240ba2a6b43bb69fd70754e022033e5e6664489c828abcaaf591b49d87e50e6f31e1ae6dbd3d9a438cb953f8c26[ALL] 03919a81d0ee64386785751311611aaa11213fb6e352a9a68c28122933bd66a6a6"}, "vout": 1, "txid": "a7a9d25a36f6990962c353a92321df4bba9e442bc6eb5807cff4aee4625b9467"}], "txid": "4537af9aaca52642b58001f2a219b3b419181f5da20c875f72aec56542208d4c", "blocktime": 1537873282, "version": 1, "confirmations": 11485, "time": 1537873282, "locktime": 0, "vsize": 226, "size": 226}