{"hash": "45379672bb80dad7a32ca9428893833bbd979f22101a348fdcd3d7de7c093c7f", "blockhash": "0000000000000000001f76057863aec43deb6fa401d9628bb513d65a8098bfab", "vout": [{"scriptPubKey": {"reqSigs": 1, "hex": "a914ca4918a5bc3b6b1d01170e7aeaa951ac6003616787", "addresses": ["3L8bz7T1LhGebqs3qDsNy38kfcqNRrM7pj"], "asm": "OP_HASH160 ca4918a5bc3b6b1d01170e7aeaa951ac60036167 OP_EQUAL", "type": "scripthash"}, "value": 0.2201, "n": 0}, {"scriptPubKey": {"reqSigs": 1, "hex": "76a914821e20d317013a6eda802620ff5fda36aada032188ac", "addresses": ["1CrzwHSWs4xUUjpHVa9r5ryFRu1LiJw5rf"], "asm": "OP_DUP OP_HASH160 821e20d317013a6eda802620ff5fda36aada0321 OP_EQUALVERIFY OP_CHECKSIG", "type": "pubkeyhash"}, "value": 0.19507003, "n": 1}], "hex": "01000000019b55f2cdd6e9169d7afd14f469a2af869afee566ecbf0179e397785c187cdf28010000006b483045022100dd0d5ddb2461f6b7a0dcb70f213e7cee74ca8008f10eb79fbb72beedad0d87b6022032dc827d3a638a68ed2a9851d2ec750855e227c609fc83ff4627ba086d70ad5c0121020bf7a07c631796a25664d68383b7d3a00ef104507fd8e605785246b6d54099feffffff000290d84f010000000017a914ca4918a5bc3b6b1d01170e7aeaa951ac60036167873ba72901000000001976a914821e20d317013a6eda802620ff5fda36aada032188ac00000000", "vin": [{"sequence": 16777215, "scriptSig": {"hex": "483045022100dd0d5ddb2461f6b7a0dcb70f213e7cee74ca8008f10eb79fbb72beedad0d87b6022032dc827d3a638a68ed2a9851d2ec750855e227c609fc83ff4627ba086d70ad5c0121020bf7a07c631796a25664d68383b7d3a00ef104507fd8e605785246b6d54099fe", "asm": "3045022100dd0d5ddb2461f6b7a0dcb70f213e7cee74ca8008f10eb79fbb72beedad0d87b6022032dc827d3a638a68ed2a9851d2ec750855e227c609fc83ff4627ba086d70ad5c[ALL] 020bf7a07c631796a25664d68383b7d3a00ef104507fd8e605785246b6d54099fe"}, "vout": 1, "txid": "28df7c185c7897e37901bfec66e5fe9a86afa269f414fd7a9d16e9d6cdf2559b"}], "txid": "45379672bb80dad7a32ca9428893833bbd979f22101a348fdcd3d7de7c093c7f", "blocktime": 1537873891, "version": 1, "confirmations": 11478, "time": 1537873891, "locktime": 0, "vsize": 224, "size": 224}