{"hash": "453bdf652c06829eaabb99ca9a9f79c73705ca41f5aa94b4bc9eaac2b6e6e717", "blockhash": "00000000000000000004ffacab907a6b429b9a5745fa0b75af4234bf69dd7176", "vout": [{"scriptPubKey": {"reqSigs": 1, "hex": "76a914597b48e01b779396bff1df7b1093ebdec320924588ac", "addresses": ["19A8q3S2hVadi1b8Sw5DNxA8dLvTd1qZ1F"], "asm": "OP_DUP OP_HASH160 597b48e01b779396bff1df7b1093ebdec3209245 OP_EQUALVERIFY OP_CHECKSIG", "type": "pubkeyhash"}, "value": 0.001, "n": 0}, {"scriptPubKey": {"reqSigs": 1, "hex": "76a914e980406100f1b02d9023620d15858ca5a5fb144c88ac", "addresses": ["1NHe5mQK8w5uu6QxqnWsd6M8fPLPiYGWzA"], "asm": "OP_DUP OP_HASH160 e980406100f1b02d9023620d15858ca5a5fb144c OP_EQUALVERIFY OP_CHECKSIG", "type": "pubkeyhash"}, "value": 0.0853799, "n": 1}], "hex": "01000000019144c06689b41ccf4377379a48dd2e1dc442bc9f2c8c27520a2d857b6aa92311010000006b48304502210092e39a146746e8a803b144f49b8708120d0b02a0b9d80d87a0cdf92e6e760a0002202e210f14e4a9013d92323363aaa0600a3e1822ecd9513f09b4ae42eefce2275c012103ad603f5d3610dce0c476cc5ff31b70d340cb842f4285d362fdb63d990e4c8e16ffffffff02a0860100000000001976a914597b48e01b779396bff1df7b1093ebdec320924588ac86478200000000001976a914e980406100f1b02d9023620d15858ca5a5fb144c88ac00000000", "vin": [{"sequence": 4294967295, "scriptSig": {"hex": "48304502210092e39a146746e8a803b144f49b8708120d0b02a0b9d80d87a0cdf92e6e760a0002202e210f14e4a9013d92323363aaa0600a3e1822ecd9513f09b4ae42eefce2275c012103ad603f5d3610dce0c476cc5ff31b70d340cb842f4285d362fdb63d990e4c8e16", "asm": "304502210092e39a146746e8a803b144f49b8708120d0b02a0b9d80d87a0cdf92e6e760a0002202e210f14e4a9013d92323363aaa0600a3e1822ecd9513f09b4ae42eefce2275c[ALL] 03ad603f5d3610dce0c476cc5ff31b70d340cb842f4285d362fdb63d990e4c8e16"}, "vout": 1, "txid": "1123a96a7b852d0a52278c2c9fbc42c41d2edd489a377743cf1cb48966c04491"}], "txid": "453bdf652c06829eaabb99ca9a9f79c73705ca41f5aa94b4bc9eaac2b6e6e717", "blocktime": 1537875543, "version": 1, "confirmations": 11464, "time": 1537875543, "locktime": 0, "vsize": 226, "size": 226}