{"hash": "453ca6627ee6cf7e4c1818d96414fa9ee42234fb5aea224b79a6cabd18c74565", "blockhash": "0000000000000000001e0dab787dd257d1dbfcb92a98c2207d5e1078be1f4165", "vout": [{"scriptPubKey": {"reqSigs": 1, "hex": "76a914a0e58adce3972733ef9de983b2ec6baaf4d3610988ac", "addresses": ["1Ffk6agXQbKRMn4yVQVx3zWkoVmCywauwc"], "asm": "OP_DUP OP_HASH160 a0e58adce3972733ef9de983b2ec6baaf4d36109 OP_EQUALVERIFY OP_CHECKSIG", "type": "pubkeyhash"}, "value": 0.097137, "n": 0}, {"scriptPubKey": {"reqSigs": 1, "hex": "76a914cfe606caf852ad2cc3cac6bdaa94bbe68ceec19d88ac", "addresses": ["1KxGSEVqr93e5xG99TyHNYxenapRHNyZbH"], "asm": "OP_DUP OP_HASH160 cfe606caf852ad2cc3cac6bdaa94bbe68ceec19d OP_EQUALVERIFY OP_CHECKSIG", "type": "pubkeyhash"}, "value": 0.00058488, "n": 1}], "hex": "0100000001f888e51a630fd41f8370193bb42d05c1f4b5c41a6c2839719ed1fa09a48b185f000000006a47304402200154211a9f56154a7777e44661d3b7a4bb767f6cb48929f62dbda853e12f345902201739e312de091ff959270acba3707cb5c3071e8529d954aca0c4bf2e33371277012102c07592ae031d62599a7cf1e914c91d38bf5a752acd648a619d1ba6469fe858a5ffffffff0224389400000000001976a914a0e58adce3972733ef9de983b2ec6baaf4d3610988ac78e40000000000001976a914cfe606caf852ad2cc3cac6bdaa94bbe68ceec19d88ac00000000", "vin": [{"sequence": 4294967295, "scriptSig": {"hex": "47304402200154211a9f56154a7777e44661d3b7a4bb767f6cb48929f62dbda853e12f345902201739e312de091ff959270acba3707cb5c3071e8529d954aca0c4bf2e33371277012102c07592ae031d62599a7cf1e914c91d38bf5a752acd648a619d1ba6469fe858a5", "asm": "304402200154211a9f56154a7777e44661d3b7a4bb767f6cb48929f62dbda853e12f345902201739e312de091ff959270acba3707cb5c3071e8529d954aca0c4bf2e33371277[ALL] 02c07592ae031d62599a7cf1e914c91d38bf5a752acd648a619d1ba6469fe858a5"}, "vout": 0, "txid": "5f188ba409fad19e7139286c1ac4b5f4c1052db43b1970831fd40f631ae588f8"}], "txid": "453ca6627ee6cf7e4c1818d96414fa9ee42234fb5aea224b79a6cabd18c74565", "blocktime": 1537872475, "version": 1, "confirmations": 11487, "time": 1537872475, "locktime": 0, "vsize": 225, "size": 225}