{"hash": "453c8c01cf967d686bc9853f2130a88c9ad79521f9832f251ebb1fa48a270b9f", "blockhash": "0000000000000000001e0dab787dd257d1dbfcb92a98c2207d5e1078be1f4165", "vout": [{"scriptPubKey": {"type": "nulldata", "hex": "6a4c50000077ad00013516eda676666044e9c03069af6c953dd567cf27e7e3ef3236678a62509738932df316c04dc51f4e0885f1ba0b515baa10dd06122d089d1cee0d4bbf23acfcfaac8058b692fe6808c31d", "asm": "OP_RETURN 000077ad00013516eda676666044e9c03069af6c953dd567cf27e7e3ef3236678a62509738932df316c04dc51f4e0885f1ba0b515baa10dd06122d089d1cee0d4bbf23acfcfaac8058b692fe6808c31d"}, "value": 0.0, "n": 0}, {"scriptPubKey": {"reqSigs": 1, "hex": "76a914ccccc20652a38912003bf8b6aedc5d841e447c2f88ac", "addresses": ["1Kft8xpJ1QFEX2g2DPU5Uh725nRPaTkFp1"], "asm": "OP_DUP OP_HASH160 ccccc20652a38912003bf8b6aedc5d841e447c2f OP_EQUALVERIFY OP_CHECKSIG", "type": "pubkeyhash"}, "value": 0.00019169, "n": 1}], "hex": "0100000001cb06f514fca472e8837b30a58bff79edb9e304bbe50796259e98b9c796f30b52010000006b483045022100f5bbce496f15d0acb61ebb68eb809f3be6580139f4bc1b524642b719dcf5a96202205dcf5daed40646a992f6b2934c317790deffd51dd80dee06f6bd02d8fe1d871d0121021cc2e8809852130f6f77c356469f1c5aacf1539cc78f190e8e93ba9580a758ddffffffff020000000000000000536a4c50000077ad00013516eda676666044e9c03069af6c953dd567cf27e7e3ef3236678a62509738932df316c04dc51f4e0885f1ba0b515baa10dd06122d089d1cee0d4bbf23acfcfaac8058b692fe6808c31de14a0000000000001976a914ccccc20652a38912003bf8b6aedc5d841e447c2f88ac00000000", "vin": [{"sequence": 4294967295, "scriptSig": {"hex": "483045022100f5bbce496f15d0acb61ebb68eb809f3be6580139f4bc1b524642b719dcf5a96202205dcf5daed40646a992f6b2934c317790deffd51dd80dee06f6bd02d8fe1d871d0121021cc2e8809852130f6f77c356469f1c5aacf1539cc78f190e8e93ba9580a758dd", "asm": "3045022100f5bbce496f15d0acb61ebb68eb809f3be6580139f4bc1b524642b719dcf5a96202205dcf5daed40646a992f6b2934c317790deffd51dd80dee06f6bd02d8fe1d871d[ALL] 021cc2e8809852130f6f77c356469f1c5aacf1539cc78f190e8e93ba9580a758dd"}, "vout": 1, "txid": "520bf396c7b9989e259607e5bb04e3b9ed79ff8ba5307b83e872a4fc14f506cb"}], "txid": "453c8c01cf967d686bc9853f2130a88c9ad79521f9832f251ebb1fa48a270b9f", "blocktime": 1537872475, "version": 1, "confirmations": 11486, "time": 1537872475, "locktime": 0, "vsize": 284, "size": 284}