{"hash": "454085b542fa2f55060e68dab9634f1f039b6da5339f48e8420b83fa7e5984bd", "blockhash": "00000000000000000018f53835495a110e01622372bf6ae95dc86f2b0ab887b0", "vout": [{"scriptPubKey": {"reqSigs": 1, "hex": "a914483fc3dedf611d916e64ea69099036a523e8728d87", "addresses": ["38H2xqJtL82Gb5i2hugrrHVXSEDCtV6u1U"], "asm": "OP_HASH160 483fc3dedf611d916e64ea69099036a523e8728d OP_EQUAL", "type": "scripthash"}, "value": 0.03912, "n": 0}, {"scriptPubKey": {"reqSigs": 1, "hex": "76a914f2b14abb1d3da76478acaa0b013cee9412af84b588ac", "addresses": ["1P8Eut7t8p1q7VzWSWNMcfe87fv8c9Jx6A"], "asm": "OP_DUP OP_HASH160 f2b14abb1d3da76478acaa0b013cee9412af84b5 OP_EQUALVERIFY OP_CHECKSIG", "type": "pubkeyhash"}, "value": 0.10295062, "n": 1}], "hex": "01000000019c1abe5a842663c91a9b8ccc2d9027345c61bf7ea5f53fec17819850468a74a9030000006a47304402201202c865de46283f94ae6dacf994553408f0f95c256288d00a7a784aa05977d602205c24142956038f60302b94c6211971cbbf45e837453dbdd4455d82565baa549601210333c0a9b70b8a053d20a750d5a12d39a3808d87e96ca7e1d78ae385cdeb0a1ddeffffffff0240b13b000000000017a914483fc3dedf611d916e64ea69099036a523e8728d8716179d00000000001976a914f2b14abb1d3da76478acaa0b013cee9412af84b588ac00000000", "vin": [{"sequence": 4294967295, "scriptSig": {"hex": "47304402201202c865de46283f94ae6dacf994553408f0f95c256288d00a7a784aa05977d602205c24142956038f60302b94c6211971cbbf45e837453dbdd4455d82565baa549601210333c0a9b70b8a053d20a750d5a12d39a3808d87e96ca7e1d78ae385cdeb0a1dde", "asm": "304402201202c865de46283f94ae6dacf994553408f0f95c256288d00a7a784aa05977d602205c24142956038f60302b94c6211971cbbf45e837453dbdd4455d82565baa5496[ALL] 0333c0a9b70b8a053d20a750d5a12d39a3808d87e96ca7e1d78ae385cdeb0a1dde"}, "vout": 3, "txid": "a9748a4650988117ec3ff5a57ebf615c3427902dcc8c9b1ac96326845abe1a9c"}], "txid": "454085b542fa2f55060e68dab9634f1f039b6da5339f48e8420b83fa7e5984bd", "blocktime": 1537870928, "version": 1, "confirmations": 11512, "time": 1537870928, "locktime": 0, "vsize": 223, "size": 223}