{"hash": "45425b2b77a11f2c7820e6057de8770a36a30dcb3bb3cdd88510ee0352ae1fcd", "blockhash": "0000000000000000001e0dab787dd257d1dbfcb92a98c2207d5e1078be1f4165", "vout": [{"scriptPubKey": {"reqSigs": 1, "hex": "76a91454b608f61b3d275c31cd13cd8ecb81935dab3ed888ac", "addresses": ["18iuq8QSRo77UjfXpRafzHHpyjhevhuU8X"], "asm": "OP_DUP OP_HASH160 54b608f61b3d275c31cd13cd8ecb81935dab3ed8 OP_EQUALVERIFY OP_CHECKSIG", "type": "pubkeyhash"}, "value": 0.008545, "n": 0}, {"scriptPubKey": {"reqSigs": 1, "hex": "76a9142ed6bede92a5d7c6d5be66ea3582b3cc3b84233688ac", "addresses": ["15GfLcKTAcqeU2PZpp5vr6rvT9wjQvF6hP"], "asm": "OP_DUP OP_HASH160 2ed6bede92a5d7c6d5be66ea3582b3cc3b842336 OP_EQUALVERIFY OP_CHECKSIG", "type": "pubkeyhash"}, "value": 6.236e-05, "n": 1}], "hex": "010000000126a7fc86fc66e3e074981c7be292b05547b52a9efb5a0bed3312e56d83b3509e000000006b483045022100862f518849a9452c16426f00a088c49b7984ceef2ded03069dc88877a89b0ff702206f2d1f639c0ad8a742bb340eb8d067dd29bc127c9b41bd783f6d2aad95ba2ef301210235f3d44b32aeb1f2819f743baaf1f510a9aae5d0c6ad0b15ac8ccb02482b8c34ffffffff02e4090d00000000001976a91454b608f61b3d275c31cd13cd8ecb81935dab3ed888ac5c180000000000001976a9142ed6bede92a5d7c6d5be66ea3582b3cc3b84233688ac00000000", "vin": [{"sequence": 4294967295, "scriptSig": {"hex": "483045022100862f518849a9452c16426f00a088c49b7984ceef2ded03069dc88877a89b0ff702206f2d1f639c0ad8a742bb340eb8d067dd29bc127c9b41bd783f6d2aad95ba2ef301210235f3d44b32aeb1f2819f743baaf1f510a9aae5d0c6ad0b15ac8ccb02482b8c34", "asm": "3045022100862f518849a9452c16426f00a088c49b7984ceef2ded03069dc88877a89b0ff702206f2d1f639c0ad8a742bb340eb8d067dd29bc127c9b41bd783f6d2aad95ba2ef3[ALL] 0235f3d44b32aeb1f2819f743baaf1f510a9aae5d0c6ad0b15ac8ccb02482b8c34"}, "vout": 0, "txid": "9e50b3836de51233ed0b5afb9e2ab54755b092e27b1c9874e0e366fc86fca726"}], "txid": "45425b2b77a11f2c7820e6057de8770a36a30dcb3bb3cdd88510ee0352ae1fcd", "blocktime": 1537872475, "version": 1, "confirmations": 11487, "time": 1537872475, "locktime": 0, "vsize": 226, "size": 226}