{"hash": "454651bec215362e250870cdff5a4b7f297778c5e74e9316dac4b8721463cd8e", "blockhash": "00000000000000000017f5eb5941039fbcee6240d03bc1f2f8e35350df66a1d8", "vout": [{"scriptPubKey": {"reqSigs": 1, "hex": "a914b1f258a15711a9e019dac2692cad9e66d901cb1287", "addresses": ["3Huur1QHB1hEymskchRry9W4cWhofNjZjB"], "asm": "OP_HASH160 b1f258a15711a9e019dac2692cad9e66d901cb12 OP_EQUAL", "type": "scripthash"}, "value": 0.33256049, "n": 0}], "hex": "0100000002ca945f9692b96ba6a262a4342536f8ad28a0a0b2dff20da0d64ce0a42135f418010000006a473044022068c00b733d090458e39ff5922c54f3a94414ef39fe57afe93c9267c1cfd7d11c02200f1d33159ede7266ae3d4cc44d96eaf5fa2add7cac6a58829a45f21f63e58788012102d1bf6d036169a87773cf8375251d8c8b6aa737ab71f23fdb6073e273f10aac45ffffffff8c13bf93aff9ca940bd3e8e7e1e82a6db686508528645223d6b7d57ac25b7cd3000000006b4830450221009d92e5e9a7f84568e966caa886fbdb8a2a7641625880947ba129a74b135d101a0220025d301a8bc3679a15dfdaf60a214cb9d924282c14c0cc90629e842e12578452012102402cee938001d1bd5e03cc3457442fdc073b89eb8165f06c89d2345e5fdba7c8ffffffff017172fb010000000017a914b1f258a15711a9e019dac2692cad9e66d901cb128700000000", "vin": [{"sequence": 4294967295, "scriptSig": {"hex": "473044022068c00b733d090458e39ff5922c54f3a94414ef39fe57afe93c9267c1cfd7d11c02200f1d33159ede7266ae3d4cc44d96eaf5fa2add7cac6a58829a45f21f63e58788012102d1bf6d036169a87773cf8375251d8c8b6aa737ab71f23fdb6073e273f10aac45", "asm": "3044022068c00b733d090458e39ff5922c54f3a94414ef39fe57afe93c9267c1cfd7d11c02200f1d33159ede7266ae3d4cc44d96eaf5fa2add7cac6a58829a45f21f63e58788[ALL] 02d1bf6d036169a87773cf8375251d8c8b6aa737ab71f23fdb6073e273f10aac45"}, "vout": 1, "txid": "18f43521a4e04cd6a00df2dfb2a0a028adf8362534a462a2a66bb992965f94ca"}, {"sequence": 4294967295, "scriptSig": {"hex": "4830450221009d92e5e9a7f84568e966caa886fbdb8a2a7641625880947ba129a74b135d101a0220025d301a8bc3679a15dfdaf60a214cb9d924282c14c0cc90629e842e12578452012102402cee938001d1bd5e03cc3457442fdc073b89eb8165f06c89d2345e5fdba7c8", "asm": "30450221009d92e5e9a7f84568e966caa886fbdb8a2a7641625880947ba129a74b135d101a0220025d301a8bc3679a15dfdaf60a214cb9d924282c14c0cc90629e842e12578452[ALL] 02402cee938001d1bd5e03cc3457442fdc073b89eb8165f06c89d2345e5fdba7c8"}, "vout": 0, "txid": "d37c5bc27ad5b7d623526428855086b66d2ae8e1e7e8d30b94caf9af93bf138c"}], "txid": "454651bec215362e250870cdff5a4b7f297778c5e74e9316dac4b8721463cd8e", "blocktime": 1537874412, "version": 1, "confirmations": 11467, "time": 1537874412, "locktime": 0, "vsize": 337, "size": 337}