{"hash": "45478aec65394ed21ad610bf137e1152bfa5eea22e83baf342605536b06a6e87", "blockhash": "00000000000000000018f53835495a110e01622372bf6ae95dc86f2b0ab887b0", "vout": [{"scriptPubKey": {"type": "nulldata", "hex": "6a4c500000778700019de7cc7cef771308ba7ce792bcbefa6b8351586b4e86aeaeacb577c031fce76239506a958aa53a52b4e0af851c9f5baa0b8406144549ac8ab9c51d100759d4ba30d2c37bb011d97e02cf", "asm": "OP_RETURN 0000778700019de7cc7cef771308ba7ce792bcbefa6b8351586b4e86aeaeacb577c031fce76239506a958aa53a52b4e0af851c9f5baa0b8406144549ac8ab9c51d100759d4ba30d2c37bb011d97e02cf"}, "value": 0.0, "n": 0}, {"scriptPubKey": {"reqSigs": 1, "hex": "76a9147aed46eaae1545861e8267e60e27453b1e37542088ac", "addresses": ["1CCyghaNh5gWcw3W3mKcJgFAVWjtimGMEJ"], "asm": "OP_DUP OP_HASH160 7aed46eaae1545861e8267e60e27453b1e375420 OP_EQUALVERIFY OP_CHECKSIG", "type": "pubkeyhash"}, "value": 0.0064552, "n": 1}], "hex": "0100000001d0afb6ea89e0a585d0991b386ef0a45ea61cee9133b1d213282661e02405da5a010000006a473044022001f499d025dcb7ea73a8811b514f97f260b9908dd703549f56c04fe0cd2df1b902207270a4cd684f20cd1a404d55b1faecc61386c3a65bb37cb7aa0005878f3f0976012103b361ab24bd9ecd7b05dc27e66c88f30f18b8b854b0d8c27851f3a3943b847bc4ffffffff020000000000000000536a4c500000778700019de7cc7cef771308ba7ce792bcbefa6b8351586b4e86aeaeacb577c031fce76239506a958aa53a52b4e0af851c9f5baa0b8406144549ac8ab9c51d100759d4ba30d2c37bb011d97e02cf90d90900000000001976a9147aed46eaae1545861e8267e60e27453b1e37542088ac00000000", "vin": [{"sequence": 4294967295, "scriptSig": {"hex": "473044022001f499d025dcb7ea73a8811b514f97f260b9908dd703549f56c04fe0cd2df1b902207270a4cd684f20cd1a404d55b1faecc61386c3a65bb37cb7aa0005878f3f0976012103b361ab24bd9ecd7b05dc27e66c88f30f18b8b854b0d8c27851f3a3943b847bc4", "asm": "3044022001f499d025dcb7ea73a8811b514f97f260b9908dd703549f56c04fe0cd2df1b902207270a4cd684f20cd1a404d55b1faecc61386c3a65bb37cb7aa0005878f3f0976[ALL] 03b361ab24bd9ecd7b05dc27e66c88f30f18b8b854b0d8c27851f3a3943b847bc4"}, "vout": 1, "txid": "5ada0524e061262813d2b13391ee1ca65ea4f06e381b99d085a5e089eab6afd0"}], "txid": "45478aec65394ed21ad610bf137e1152bfa5eea22e83baf342605536b06a6e87", "blocktime": 1537870928, "version": 1, "confirmations": 11512, "time": 1537870928, "locktime": 0, "vsize": 283, "size": 283}