{"hash": "4548826cdee9d9784d8aca250a06d15efe117cb97dd3b2aec480c454f9002170", "blockhash": "00000000000000000024a2167bbff67b0be802c0b01cdd79e6331c2be6459f87", "vout": [{"scriptPubKey": {"reqSigs": 1, "hex": "76a914915f1e1a46ee699a60c3e8d5a4847e80d93dd77c88ac", "addresses": ["1EFevhgEdGjR5PUwiVzR9xh9PwG5NsWMbo"], "asm": "OP_DUP OP_HASH160 915f1e1a46ee699a60c3e8d5a4847e80d93dd77c OP_EQUALVERIFY OP_CHECKSIG", "type": "pubkeyhash"}, "value": 0.02079702, "n": 0}, {"scriptPubKey": {"reqSigs": 1, "hex": "76a9145f6d4c7de9a6fa87a20fa492a0a14a7449d93a4088ac", "addresses": ["19ha8SNP9p6vmTZU6BeMa3AWyH29sB9C4e"], "asm": "OP_DUP OP_HASH160 5f6d4c7de9a6fa87a20fa492a0a14a7449d93a40 OP_EQUALVERIFY OP_CHECKSIG", "type": "pubkeyhash"}, "value": 0.0251292, "n": 1}], "hex": "010000000155ae7b402e08906f73b6cac1c2226151824825060047d0775ef39e552168ad48010000006a47304402201d1c84e7202ff6d6732e50398dc2c596613788589663da5b492ea20a53dce48802207a1bc5cbf49ff78c6e78f78ee994ace89d4c5b55569dc545f86d7878c1cd7117012102c11ce2d2817563c8923c555f41cf9967b7e06d5acf644f58fbe11a3d2583cd3effffffff02d6bb1f00000000001976a914915f1e1a46ee699a60c3e8d5a4847e80d93dd77c88ac18582600000000001976a9145f6d4c7de9a6fa87a20fa492a0a14a7449d93a4088ac00000000", "vin": [{"sequence": 4294967295, "scriptSig": {"hex": "47304402201d1c84e7202ff6d6732e50398dc2c596613788589663da5b492ea20a53dce48802207a1bc5cbf49ff78c6e78f78ee994ace89d4c5b55569dc545f86d7878c1cd7117012102c11ce2d2817563c8923c555f41cf9967b7e06d5acf644f58fbe11a3d2583cd3e", "asm": "304402201d1c84e7202ff6d6732e50398dc2c596613788589663da5b492ea20a53dce48802207a1bc5cbf49ff78c6e78f78ee994ace89d4c5b55569dc545f86d7878c1cd7117[ALL] 02c11ce2d2817563c8923c555f41cf9967b7e06d5acf644f58fbe11a3d2583cd3e"}, "vout": 1, "txid": "48ad6821559ef35e77d0470006254882516122c2c1cab6736f90082e407bae55"}], "txid": "4548826cdee9d9784d8aca250a06d15efe117cb97dd3b2aec480c454f9002170", "blocktime": 1537870564, "version": 1, "confirmations": 11515, "time": 1537870564, "locktime": 0, "vsize": 225, "size": 225}