{"hash": "454fd5da7482fa05dea0e4ec33fa52b354f245a538c5dc771c4bb496972863f9", "blockhash": "0000000000000000001e0dab787dd257d1dbfcb92a98c2207d5e1078be1f4165", "vout": [{"scriptPubKey": {"reqSigs": 1, "hex": "76a914d716ad3ae6da9a491ee4a0f95f35bacd07f8c4d088ac", "addresses": ["1LcHSr7wSGzxUmgVyZCRiCzeaFP6Cm2LbP"], "asm": "OP_DUP OP_HASH160 d716ad3ae6da9a491ee4a0f95f35bacd07f8c4d0 OP_EQUALVERIFY OP_CHECKSIG", "type": "pubkeyhash"}, "value": 0.1403346, "n": 0}], "hex": "01000000010351c8543d2d6e90ddbdc2a769e7ab0a224a1848ab44de8e54d02fe04adade7b010000006b483045022100c97d46581f92102073b4da4ab256c8847c977a80268c41a445239e073d6e4afc022013aaa0ca9297c896d187064e0410fca4df5f3cacb0f7c879ac7baac07bb7d8cf01210391e8a0e820ba6f70b65c2e6c935ffbff4d1bcad3629b2968e68b2dbfb2300e71ffffffff013422d600000000001976a914d716ad3ae6da9a491ee4a0f95f35bacd07f8c4d088ac00000000", "vin": [{"sequence": 4294967295, "scriptSig": {"hex": "483045022100c97d46581f92102073b4da4ab256c8847c977a80268c41a445239e073d6e4afc022013aaa0ca9297c896d187064e0410fca4df5f3cacb0f7c879ac7baac07bb7d8cf01210391e8a0e820ba6f70b65c2e6c935ffbff4d1bcad3629b2968e68b2dbfb2300e71", "asm": "3045022100c97d46581f92102073b4da4ab256c8847c977a80268c41a445239e073d6e4afc022013aaa0ca9297c896d187064e0410fca4df5f3cacb0f7c879ac7baac07bb7d8cf[ALL] 0391e8a0e820ba6f70b65c2e6c935ffbff4d1bcad3629b2968e68b2dbfb2300e71"}, "vout": 1, "txid": "7bdeda4ae02fd0548ede44ab48184a220aabe769a7c2bddd906e2d3d54c85103"}], "txid": "454fd5da7482fa05dea0e4ec33fa52b354f245a538c5dc771c4bb496972863f9", "blocktime": 1537872475, "version": 1, "confirmations": 11486, "time": 1537872475, "locktime": 0, "vsize": 192, "size": 192}