{"hash": "455f4e61eac67fcebc480a6a9499c9d3a4b968948185d304db5f1a52270200e6", "blockhash": "0000000000000000001f0ddff1eddb255c1121bcd4da4f1bc9a0da00cae72433", "vout": [{"scriptPubKey": {"reqSigs": 1, "hex": "76a9141ea37afbc499f15468f108a9a750fe4de875eaeb88ac", "addresses": ["13o17aCz6gjTvK4BfdZeyVsdVWFDbz7mnp"], "asm": "OP_DUP OP_HASH160 1ea37afbc499f15468f108a9a750fe4de875eaeb OP_EQUALVERIFY OP_CHECKSIG", "type": "pubkeyhash"}, "value": 0.00032718, "n": 0}, {"scriptPubKey": {"reqSigs": 1, "hex": "76a914910f85006a17a688e88157626c809ea520a5da1b88ac", "addresses": ["1EE1a8eKxQUeNQMMxGNSDcbeG8xLJPXPgn"], "asm": "OP_DUP OP_HASH160 910f85006a17a688e88157626c809ea520a5da1b OP_EQUALVERIFY OP_CHECKSIG", "type": "pubkeyhash"}, "value": 0.0476587, "n": 1}], "hex": "0200000001b73aed91b5c3cf03976d5e4d2de711c019e1f215331fdde88ec19aa77b56b27a010000006a47304402200cf4604a95fa601f6d6befe0c758a66e79a8e3a205d19aa0aaf18a18884dc6d002202b446539003a3ddac82abe43fab48fad53b8d4b23fea41ec9bbae0139bd7f553012102b757718678f8cc61064cd7f925569056b9462e01819a3c5cb6212edd61b14c3dffffffff02ce7f0000000000001976a9141ea37afbc499f15468f108a9a750fe4de875eaeb88acaeb84800000000001976a914910f85006a17a688e88157626c809ea520a5da1b88ac00000000", "vin": [{"sequence": 4294967295, "scriptSig": {"hex": "47304402200cf4604a95fa601f6d6befe0c758a66e79a8e3a205d19aa0aaf18a18884dc6d002202b446539003a3ddac82abe43fab48fad53b8d4b23fea41ec9bbae0139bd7f553012102b757718678f8cc61064cd7f925569056b9462e01819a3c5cb6212edd61b14c3d", "asm": "304402200cf4604a95fa601f6d6befe0c758a66e79a8e3a205d19aa0aaf18a18884dc6d002202b446539003a3ddac82abe43fab48fad53b8d4b23fea41ec9bbae0139bd7f553[ALL] 02b757718678f8cc61064cd7f925569056b9462e01819a3c5cb6212edd61b14c3d"}, "vout": 1, "txid": "7ab2567ba79ac18ee8dd1f3315f2e119c011e72d4d5e6d9703cfc3b591ed3ab7"}], "txid": "455f4e61eac67fcebc480a6a9499c9d3a4b968948185d304db5f1a52270200e6", "blocktime": 1537872018, "version": 2, "confirmations": 11489, "time": 1537872018, "locktime": 0, "vsize": 225, "size": 225}