{"hash": "93bb34a083ed49a752f3bd6df831bbaeccb6b7db878e85c9a78c4ba1b886cb29", "blockhash": "0000000000000000001cda96e906b7601b7a6fb1a3b62bca570a9e5d8f4b3de1", "vout": [{"scriptPubKey": {"reqSigs": 1, "hex": "76a914e2e935237afbbfe00bd99aaa81246024105058c788ac", "addresses": ["1Mgo5uCE8xnPyzaSukNvFp2KYQNQKmaVky"], "asm": "OP_DUP OP_HASH160 e2e935237afbbfe00bd99aaa81246024105058c7 OP_EQUALVERIFY OP_CHECKSIG", "type": "pubkeyhash"}, "value": 0.00482269, "n": 0}, {"scriptPubKey": {"reqSigs": 1, "hex": "a91408aecc47d65bbcc5c7cc861ba0947026b00e391987", "addresses": ["32UvjFhtn2VUVbLRxKwsDzvM4HrExDzdCD"], "asm": "OP_HASH160 08aecc47d65bbcc5c7cc861ba0947026b00e3919 OP_EQUAL", "type": "scripthash"}, "value": 0.01017819, "n": 1}], "hex": "0200000000010143da0553edb8ea2e31ed91061387b2fc61476a47825fa60a1ba5bd6f5e91a97c0100000017160014e14e0f587466ab5e1891a317e3355ac847f1236ffeffffff02dd5b0700000000001976a914e2e935237afbbfe00bd99aaa81246024105058c788acdb870f000000000017a91408aecc47d65bbcc5c7cc861ba0947026b00e391987024830450221009a53f1da175c61c5bc06ea59afc2a6bd58b0fb729dcad898e93c3592144717590220714049bb34fe2ce7e647135beef235e959387ae81b26d39ad0e8fc595adc3e98012102769d1b46b834c324649b4dbe8552d97b08bbb002c1a59af9df4df453fe94f2d413490800", "vin": [{"txinwitness": ["30450221009a53f1da175c61c5bc06ea59afc2a6bd58b0fb729dcad898e93c3592144717590220714049bb34fe2ce7e647135beef235e959387ae81b26d39ad0e8fc595adc3e9801", "02769d1b46b834c324649b4dbe8552d97b08bbb002c1a59af9df4df453fe94f2d4"], "sequence": 4294967294, "scriptSig": {"hex": "160014e14e0f587466ab5e1891a317e3355ac847f1236f", "asm": "0014e14e0f587466ab5e1891a317e3355ac847f1236f"}, "vout": 1, "txid": "7ca9915e6fbda51b0aa65f82476a4761fcb287130691ed312eeab8ed5305da43"}], "txid": "4566dbde93a027ff618582d6f45b20ae80c699e314d76d018c93a55e98ed2291", "blocktime": 1537873282, "version": 2, "confirmations": 11485, "time": 1537873282, "locktime": 542995, "vsize": 168, "size": 250}