{"hash": "456a294009624b8e215746ddee117b029d17b181d7fa2dd594c02935a8f75ebf", "blockhash": "0000000000000000001e0dab787dd257d1dbfcb92a98c2207d5e1078be1f4165", "vout": [{"scriptPubKey": {"reqSigs": 1, "hex": "a9145a3dd987b20f46e1d09d1c96a3c89e2f0fa7f7d287", "addresses": ["39vAqCidjim69ppyaZnAUDcnCCApLrsj29"], "asm": "OP_HASH160 5a3dd987b20f46e1d09d1c96a3c89e2f0fa7f7d2 OP_EQUAL", "type": "scripthash"}, "value": 0.01349051, "n": 0}], "hex": "02000000013163848cdff51598485a0594436dea5ad1e8cc67c9dc1c9ff5c58949475eb5cd080000006b483045022100ec85456b3f91866031ed0e1f247dac814ba3c993a071f98005c651d795c8bb6802204a87d3631bf361a7f7a328a0ae726137eb32441ecaa0263abf30bcbe05333087012103b92127962d550d7a4c5a7d692ed858020e4eb09ee567ba32f38ca0b0205ec5f4feffffff01bb9514000000000017a9145a3dd987b20f46e1d09d1c96a3c89e2f0fa7f7d28712490800", "vin": [{"sequence": 4294967294, "scriptSig": {"hex": "483045022100ec85456b3f91866031ed0e1f247dac814ba3c993a071f98005c651d795c8bb6802204a87d3631bf361a7f7a328a0ae726137eb32441ecaa0263abf30bcbe05333087012103b92127962d550d7a4c5a7d692ed858020e4eb09ee567ba32f38ca0b0205ec5f4", "asm": "3045022100ec85456b3f91866031ed0e1f247dac814ba3c993a071f98005c651d795c8bb6802204a87d3631bf361a7f7a328a0ae726137eb32441ecaa0263abf30bcbe05333087[ALL] 03b92127962d550d7a4c5a7d692ed858020e4eb09ee567ba32f38ca0b0205ec5f4"}, "vout": 8, "txid": "cdb55e474989c5f59f1cdcc967cce8d15aea6d4394055a489815f5df8c846331"}], "txid": "456a294009624b8e215746ddee117b029d17b181d7fa2dd594c02935a8f75ebf", "blocktime": 1537872475, "version": 2, "confirmations": 11487, "time": 1537872475, "locktime": 542994, "vsize": 190, "size": 190}