{"hash": "4577b3bef58c7fbc7835cbf18e8d61040bf8c781d279050d7a04f55c216e6cca", "blockhash": "0000000000000000001f0ddff1eddb255c1121bcd4da4f1bc9a0da00cae72433", "vout": [{"scriptPubKey": {"reqSigs": 1, "hex": "76a9144b0a3e83e32752d085d79ee53017ba2d0c22a87c88ac", "addresses": ["17qmxAg2AAp9ThgPoVA2HbxUiERvjYkDCg"], "asm": "OP_DUP OP_HASH160 4b0a3e83e32752d085d79ee53017ba2d0c22a87c OP_EQUALVERIFY OP_CHECKSIG", "type": "pubkeyhash"}, "value": 0.0001, "n": 0}, {"scriptPubKey": {"reqSigs": 1, "hex": "76a9146c0886df8d537539107612722314d93b862ae41688ac", "addresses": ["1ArECB4hpwDSbwJa6zpUDvQxdaqquHcb8C"], "asm": "OP_DUP OP_HASH160 6c0886df8d537539107612722314d93b862ae416 OP_EQUALVERIFY OP_CHECKSIG", "type": "pubkeyhash"}, "value": 1.28362135, "n": 1}], "hex": "0100000001f3ffef2169c893fd21b59336610f24e1033dc22ab2ae8d4c5e645e9e181cd3ad010000006a473044022032404c614a3bc0c8ef6e7e29d245e6b702e2d505a15f1434d234a017b4fd225a02202badf2244eecfd46f8bb7281c67e2fdd99e8f1fcc0b3eea437998de17b523776012103a0c7e2f5099e85eeed793bbb05815ffd9c471e24680524b13126464940ce7b23ffffffff0210270000000000001976a9144b0a3e83e32752d085d79ee53017ba2d0c22a87c88ac97a6a607000000001976a9146c0886df8d537539107612722314d93b862ae41688ac00000000", "vin": [{"sequence": 4294967295, "scriptSig": {"hex": "473044022032404c614a3bc0c8ef6e7e29d245e6b702e2d505a15f1434d234a017b4fd225a02202badf2244eecfd46f8bb7281c67e2fdd99e8f1fcc0b3eea437998de17b523776012103a0c7e2f5099e85eeed793bbb05815ffd9c471e24680524b13126464940ce7b23", "asm": "3044022032404c614a3bc0c8ef6e7e29d245e6b702e2d505a15f1434d234a017b4fd225a02202badf2244eecfd46f8bb7281c67e2fdd99e8f1fcc0b3eea437998de17b523776[ALL] 03a0c7e2f5099e85eeed793bbb05815ffd9c471e24680524b13126464940ce7b23"}, "vout": 1, "txid": "add31c189e5e645e4c8daeb22ac23d03e1240f613693b521fd93c86921effff3"}], "txid": "4577b3bef58c7fbc7835cbf18e8d61040bf8c781d279050d7a04f55c216e6cca", "blocktime": 1537872018, "version": 1, "confirmations": 11489, "time": 1537872018, "locktime": 0, "vsize": 225, "size": 225}