{"hash": "1a6f997a9634e218346df4ff602821eb8963db3a2a226a3354d571f2ef6c52c9", "blockhash": "0000000000000000001cda96e906b7601b7a6fb1a3b62bca570a9e5d8f4b3de1", "vout": [{"scriptPubKey": {"reqSigs": 1, "hex": "76a91451d61910d2dc47777a3fd3eac28162259726f14788ac", "addresses": ["18TiDKgN7bSpai3dvSFrcUAi6e7HoomQHD"], "asm": "OP_DUP OP_HASH160 51d61910d2dc47777a3fd3eac28162259726f147 OP_EQUALVERIFY OP_CHECKSIG", "type": "pubkeyhash"}, "value": 0.04, "n": 0}, {"scriptPubKey": {"reqSigs": 1, "hex": "a9140155874553c527f049c0ae3d5a778b0e04e347bb87", "addresses": ["31p54MS7MSBGATPf7L9k6okpqGURCLuP5X"], "asm": "OP_HASH160 0155874553c527f049c0ae3d5a778b0e04e347bb OP_EQUAL", "type": "scripthash"}, "value": 2.25941173, "n": 1}], "hex": "010000000001013b886f9703292da35027f84a3e6a1173bb06162c40f58e578fb20406c0bca32e0100000023220020ead9813ef71a14a1fc550cfb5c5dd853d1e6bbccfde25f8f3c1124c6b47fda22ffffffff0200093d00000000001976a91451d61910d2dc47777a3fd3eac28162259726f14788acb596770d0000000017a9140155874553c527f049c0ae3d5a778b0e04e347bb870400473044022041e8590225125752b20de512c53b399f41785d65b1d20998bf1a0b2e2361c8cd022009b55556bd87f122c53086e03c76f195acad369e0b7cadc5b7febb8fcc2674e601483045022100a033eed34c24d57f029d088c3dcd09c5d2670d4f267443cb5d833564656d5c8f0220343acd5b9e827fc8f9fdc4f115a19f999bffe1ec0129ff42ce84cd3c8ff362d10147522103baf82ab85653fe1a4c26c826d6e71ff0f794cef0ba8d4b9c350b7cd8a099295c210374d34c43195a03910cd16cba2c089b5a40de35ab5857ec656bdacade80fb67c052ae00000000", "vin": [{"txinwitness": ["", "3044022041e8590225125752b20de512c53b399f41785d65b1d20998bf1a0b2e2361c8cd022009b55556bd87f122c53086e03c76f195acad369e0b7cadc5b7febb8fcc2674e601", "3045022100a033eed34c24d57f029d088c3dcd09c5d2670d4f267443cb5d833564656d5c8f0220343acd5b9e827fc8f9fdc4f115a19f999bffe1ec0129ff42ce84cd3c8ff362d101", "522103baf82ab85653fe1a4c26c826d6e71ff0f794cef0ba8d4b9c350b7cd8a099295c210374d34c43195a03910cd16cba2c089b5a40de35ab5857ec656bdacade80fb67c052ae"], "sequence": 4294967295, "scriptSig": {"hex": "220020ead9813ef71a14a1fc550cfb5c5dd853d1e6bbccfde25f8f3c1124c6b47fda22", "asm": "0020ead9813ef71a14a1fc550cfb5c5dd853d1e6bbccfde25f8f3c1124c6b47fda22"}, "vout": 1, "txid": "2ea3bcc00604b28f578ef5402c1606bb73116a3e4af82750a32d2903976f883b"}], "txid": "457700bd8feba29e124b47599d0dfaa1aa8040a2cf675c89521bd00abff18659", "blocktime": 1537873282, "version": 1, "confirmations": 11485, "time": 1537873282, "locktime": 0, "vsize": 208, "size": 373}