{"hash": "4578eec58087269d77141639f971ee03355fdd8aa27aa3150c6ccd165e9fd3ae", "blockhash": "0000000000000000000baef3f32e3676a92c3b2e5da21b426e4f302fc371ce76", "vout": [{"scriptPubKey": {"reqSigs": 1, "hex": "a914e4e367b0273c1e0b00213b34d4a01693f804563587", "addresses": ["3NZGQfDSTh6gS67ksEunhxeWJSGVSE8NJ4"], "asm": "OP_HASH160 e4e367b0273c1e0b00213b34d4a01693f8045635 OP_EQUAL", "type": "scripthash"}, "value": 0.045965, "n": 0}, {"scriptPubKey": {"reqSigs": 1, "hex": "76a914c5b700c5af121ca77be5f507e86306be8b1d787688ac", "addresses": ["1K2RM4fE2d4AhxWdUFmoPpr5hHyYv9Ybjj"], "asm": "OP_DUP OP_HASH160 c5b700c5af121ca77be5f507e86306be8b1d7876 OP_EQUALVERIFY OP_CHECKSIG", "type": "pubkeyhash"}, "value": 10.47373762, "n": 1}], "hex": "01000000019fd854add11c619f92285ac80e0e99824d55022fd532ceaf068bd29d47706ba8010000006a473044022035223cc14cadb56ce64c40cc313ff542c61da7c8bb4ce93a7ab98c547124f3660220728d182f15f3d96b0fec3a6fd425a616a4577ce1ab5fa43b60e23ce30c9ef7d1012103ab10bef4ceffa3773d9695d976e1bd3f9b83a60ab60c1c7ff27f3114df8598baffffffff02142346000000000017a914e4e367b0273c1e0b00213b34d4a01693f804563587c2a76d3e000000001976a914c5b700c5af121ca77be5f507e86306be8b1d787688ac00000000", "vin": [{"sequence": 4294967295, "scriptSig": {"hex": "473044022035223cc14cadb56ce64c40cc313ff542c61da7c8bb4ce93a7ab98c547124f3660220728d182f15f3d96b0fec3a6fd425a616a4577ce1ab5fa43b60e23ce30c9ef7d1012103ab10bef4ceffa3773d9695d976e1bd3f9b83a60ab60c1c7ff27f3114df8598ba", "asm": "3044022035223cc14cadb56ce64c40cc313ff542c61da7c8bb4ce93a7ab98c547124f3660220728d182f15f3d96b0fec3a6fd425a616a4577ce1ab5fa43b60e23ce30c9ef7d1[ALL] 03ab10bef4ceffa3773d9695d976e1bd3f9b83a60ab60c1c7ff27f3114df8598ba"}, "vout": 1, "txid": "a86b70479dd28b06afce32d52f02554d82990e0ec85a28929f611cd1ad54d89f"}], "txid": "4578eec58087269d77141639f971ee03355fdd8aa27aa3150c6ccd165e9fd3ae", "blocktime": 1537876114, "version": 1, "confirmations": 11460, "time": 1537876114, "locktime": 0, "vsize": 223, "size": 223}