{"hash": "457c88ac547cf90e5d480bc7908f38eebd7cef693271fa60265308c605fd243f", "blockhash": "0000000000000000000e13cef7c366c0283d82e591d1acd082e914b08063cdf1", "vout": [{"scriptPubKey": {"reqSigs": 1, "hex": "a914e80fd37eb14ec5e8861b47ff347a1cc6481cd1dd87", "addresses": ["3Nr3efjqrSRn6hJaxpJgcCZCPcB5vr75ZD"], "asm": "OP_HASH160 e80fd37eb14ec5e8861b47ff347a1cc6481cd1dd OP_EQUAL", "type": "scripthash"}, "value": 0.075, "n": 0}, {"scriptPubKey": {"reqSigs": 1, "hex": "76a914ddd17c991ee1356c232858fbd4d323e7aaa0bcbd88ac", "addresses": ["1MDsHncULAPqNqpNi4Mv4QC7Hd3gZ7FJg8"], "asm": "OP_DUP OP_HASH160 ddd17c991ee1356c232858fbd4d323e7aaa0bcbd OP_EQUALVERIFY OP_CHECKSIG", "type": "pubkeyhash"}, "value": 0.105309, "n": 1}], "hex": "0100000001f3cd380b17872aa102e4644206d6233c92ab83ebbbbac6aed13ad60c15a61456e90000006b483045022100e07c7742858c79b575a4062f8d8b34404f55c7deb2b1d14641592e14b367ceb502204e5df2ff1aaa90ef9c7ad2d538f197ef498512195b62ba857f9eab8db4c62b3f012103228e78dd35d19eec7fd47540771b89032a0f4a2976ceedf966c74d32e1de19bffeffffff02e07072000000000017a914e80fd37eb14ec5e8861b47ff347a1cc6481cd1dd8754b0a000000000001976a914ddd17c991ee1356c232858fbd4d323e7aaa0bcbd88ac10490800", "vin": [{"sequence": 4294967294, "scriptSig": {"hex": "483045022100e07c7742858c79b575a4062f8d8b34404f55c7deb2b1d14641592e14b367ceb502204e5df2ff1aaa90ef9c7ad2d538f197ef498512195b62ba857f9eab8db4c62b3f012103228e78dd35d19eec7fd47540771b89032a0f4a2976ceedf966c74d32e1de19bf", "asm": "3045022100e07c7742858c79b575a4062f8d8b34404f55c7deb2b1d14641592e14b367ceb502204e5df2ff1aaa90ef9c7ad2d538f197ef498512195b62ba857f9eab8db4c62b3f[ALL] 03228e78dd35d19eec7fd47540771b89032a0f4a2976ceedf966c74d32e1de19bf"}, "vout": 233, "txid": "5614a6150cd63ad1aec6babbeb83ab923c23d6064264e402a12a87170b38cdf3"}], "txid": "457c88ac547cf90e5d480bc7908f38eebd7cef693271fa60265308c605fd243f", "blocktime": 1537871767, "version": 1, "confirmations": 11493, "time": 1537871767, "locktime": 542992, "vsize": 224, "size": 224}