{"hash": "457d95630ec5948d466f1c9f32b001bfcd6addd69ef22b7db16b1ca5ce211ac9", "blockhash": "000000000000000000022b45ed06c6f4ccd3cf7fb5ba4856ebd2e58215665228", "vout": [{"scriptPubKey": {"reqSigs": 1, "hex": "a914203334b8fd30c83cda382eb03813828553ed032e87", "addresses": ["34dGtXvTCCHKHuvfitCy2NyLhfeEQh1n2V"], "asm": "OP_HASH160 203334b8fd30c83cda382eb03813828553ed032e OP_EQUAL", "type": "scripthash"}, "value": 0.00048828, "n": 0}, {"scriptPubKey": {"reqSigs": 1, "hex": "a914a89f5973df5ac6e4508ba357fb4fa12b32011a8687", "addresses": ["3H4cLZdRVPL9fuLBiwVZEBMsCpmyvxtak5"], "asm": "OP_HASH160 a89f5973df5ac6e4508ba357fb4fa12b32011a86 OP_EQUAL", "type": "scripthash"}, "value": 0.001, "n": 1}], "hex": "01000000013cbd1def8d4b2a5ee042c27e0d22e09e5fe2f81b1f9c45ca1a74465c784f1876c0020000fc00473044022019f5cf9d19754562b4ea98ceed162a467dd3c1853feb1b4dc15164ab6dd514f802205b292db7288db8c0bf634af41f534213a14d432490e9cbafe4b65c36623bfef4014730440220179de741209c61e9fcb269e8ecf2eaec1f22e7291f01d7d9338cb9b7db40705b02203e731c7379c1be822bf02cd7187524fa8b13987f901b7e29519ffc1493bff4e9014c6952210293d9e31e6467466b9d6e6f213d35db021303db01643116569db922fec84c8a202102d956a39d10ec18600bd6db16d5844364426901ae9fa9a275abce9c61edd4e3c72103e664bdbbbf10f4a5121d7d044ab14d45454f9b299b6b7d1ff9b1941791a611a753aeffffffff02bcbe00000000000017a914203334b8fd30c83cda382eb03813828553ed032e87a08601000000000017a914a89f5973df5ac6e4508ba357fb4fa12b32011a868700000000", "vin": [{"sequence": 4294967295, "scriptSig": {"hex": "00473044022019f5cf9d19754562b4ea98ceed162a467dd3c1853feb1b4dc15164ab6dd514f802205b292db7288db8c0bf634af41f534213a14d432490e9cbafe4b65c36623bfef4014730440220179de741209c61e9fcb269e8ecf2eaec1f22e7291f01d7d9338cb9b7db40705b02203e731c7379c1be822bf02cd7187524fa8b13987f901b7e29519ffc1493bff4e9014c6952210293d9e31e6467466b9d6e6f213d35db021303db01643116569db922fec84c8a202102d956a39d10ec18600bd6db16d5844364426901ae9fa9a275abce9c61edd4e3c72103e664bdbbbf10f4a5121d7d044ab14d45454f9b299b6b7d1ff9b1941791a611a753ae", "asm": "0 3044022019f5cf9d19754562b4ea98ceed162a467dd3c1853feb1b4dc15164ab6dd514f802205b292db7288db8c0bf634af41f534213a14d432490e9cbafe4b65c36623bfef4[ALL] 30440220179de741209c61e9fcb269e8ecf2eaec1f22e7291f01d7d9338cb9b7db40705b02203e731c7379c1be822bf02cd7187524fa8b13987f901b7e29519ffc1493bff4e9[ALL] 52210293d9e31e6467466b9d6e6f213d35db021303db01643116569db922fec84c8a202102d956a39d10ec18600bd6db16d5844364426901ae9fa9a275abce9c61edd4e3c72103e664bdbbbf10f4a5121d7d044ab14d45454f9b299b6b7d1ff9b1941791a611a753ae"}, "vout": 704, "txid": "76184f785c46741aca459c1f1bf8e25f9ee0220d7ec242e05e2a4b8def1dbd3c"}], "txid": "457d95630ec5948d466f1c9f32b001bfcd6addd69ef22b7db16b1ca5ce211ac9", "blocktime": 1537869901, "version": 1, "confirmations": 11523, "time": 1537869901, "locktime": 0, "vsize": 367, "size": 367}