{"hash": "457ed3e6f4a2bd4114ce5e10f1efe1331f25bbfabce022244c8ce5faa6615048", "blockhash": "0000000000000000000dcc0f55137456b1a82d3642486a52398922ac4d620174", "vout": [{"scriptPubKey": {"reqSigs": 1, "hex": "a914153757b52505322a88927f1858cf0d19a579403a87", "addresses": ["33dCQquT7oAmYGGr4eE3c3PybmfPKVzMcE"], "asm": "OP_HASH160 153757b52505322a88927f1858cf0d19a579403a OP_EQUAL", "type": "scripthash"}, "value": 0.01203866, "n": 0}], "hex": "0100000002a8e83421eb558909cc758dcb34004be6b2cd3b808a791e9ec59f86a4ec16fa74010000006a47304402202649eb5d076e9a982b4de46516e7227673d4613f4de1b71f35839e8e3386722302205ad4d6c773df65250e859cda64fe99ce2666611a0932e5934d405a75b6cfed750121023cfef1dea00ed995675dc90b686a79f4f8a0f53e6364f8710caab2f4db74db27ffffffffd9b3226d109e11aef624485e74ee21c7ebc00a95ec20d57b880251459be73ab6010000006b483045022100d433fac30c312e24b7ad4b726b2cc293a97f3a7aa7ab158f4aff1de53dfb7d3d02203c68deb3ce5707d5745a0aa2e2a8977f4690174f8bc2b5a51d0be7f346ddd90f0121034e8316b954fc8b79c1756c1c125fc08ce8ac417a3e2a7e4f9741af0218197cd4ffffffff019a5e12000000000017a914153757b52505322a88927f1858cf0d19a579403a8700000000", "vin": [{"sequence": 4294967295, "scriptSig": {"hex": "47304402202649eb5d076e9a982b4de46516e7227673d4613f4de1b71f35839e8e3386722302205ad4d6c773df65250e859cda64fe99ce2666611a0932e5934d405a75b6cfed750121023cfef1dea00ed995675dc90b686a79f4f8a0f53e6364f8710caab2f4db74db27", "asm": "304402202649eb5d076e9a982b4de46516e7227673d4613f4de1b71f35839e8e3386722302205ad4d6c773df65250e859cda64fe99ce2666611a0932e5934d405a75b6cfed75[ALL] 023cfef1dea00ed995675dc90b686a79f4f8a0f53e6364f8710caab2f4db74db27"}, "vout": 1, "txid": "74fa16eca4869fc59e1e798a803bcdb2e64b0034cb8d75cc098955eb2134e8a8"}, {"sequence": 4294967295, "scriptSig": {"hex": "483045022100d433fac30c312e24b7ad4b726b2cc293a97f3a7aa7ab158f4aff1de53dfb7d3d02203c68deb3ce5707d5745a0aa2e2a8977f4690174f8bc2b5a51d0be7f346ddd90f0121034e8316b954fc8b79c1756c1c125fc08ce8ac417a3e2a7e4f9741af0218197cd4", "asm": "3045022100d433fac30c312e24b7ad4b726b2cc293a97f3a7aa7ab158f4aff1de53dfb7d3d02203c68deb3ce5707d5745a0aa2e2a8977f4690174f8bc2b5a51d0be7f346ddd90f[ALL] 034e8316b954fc8b79c1756c1c125fc08ce8ac417a3e2a7e4f9741af0218197cd4"}, "vout": 1, "txid": "b63ae79b455102887bd520ec950ac0ebc721ee745e4824f6ae119e106d22b3d9"}], "txid": "457ed3e6f4a2bd4114ce5e10f1efe1331f25bbfabce022244c8ce5faa6615048", "blocktime": 1537870268, "version": 1, "confirmations": 11518, "time": 1537870268, "locktime": 0, "vsize": 337, "size": 337}