{"hash": "e2ea9a4ab94ff7eadcb7c6762eeadd0dca64e54953dd7b8cb248ab602710a6bf", "blockhash": "0000000000000000001f76057863aec43deb6fa401d9628bb513d65a8098bfab", "vout": [{"scriptPubKey": {"reqSigs": 1, "hex": "a9141c5740b8d02869b9e148072a3bfbc2fcf6ad7f6f87", "addresses": ["34GsNM6JvK3LESzQXoHSBA97BAZXpB2BQZ"], "asm": "OP_HASH160 1c5740b8d02869b9e148072a3bfbc2fcf6ad7f6f OP_EQUAL", "type": "scripthash"}, "value": 0.04930788, "n": 0}, {"scriptPubKey": {"reqSigs": 1, "hex": "a914356d2c9d7648b23cccc5db1e2f19d7f8a3f34fe587", "addresses": ["36ZWXGm9zJwwNBGbdk5AwC3on49ZHsRiYx"], "asm": "OP_HASH160 356d2c9d7648b23cccc5db1e2f19d7f8a3f34fe5 OP_EQUAL", "type": "scripthash"}, "value": 0.10228556, "n": 1}], "hex": "01000000000102d1a2c15d6cd8318d2492b05c1ed46a41ae8c92d5a7a95def6bdada5a632048550100000023220020754a974cde6a7c0786bf49ca2cd0d16bcd3be395b183352914d8354ef6af6d0cffffffff2626146c750ef05cb0d55787fd47f563efc9870a7e5939fda35eee5e4c7af6970100000023220020f02106df819c0c079c5a1301424987bb2223d70b61998b41dc48ac495ee36ff0ffffffff02e43c4b000000000017a9141c5740b8d02869b9e148072a3bfbc2fcf6ad7f6f874c139c000000000017a914356d2c9d7648b23cccc5db1e2f19d7f8a3f34fe5870400483045022100e8df7433e3f46ff7a9e2a6258ea6d47501d0e99b5a2387d9b075653cae02d7c50220074bde17cb741120639a012a0e8b17fa6c2529dfb087e74ec324ac43dcba958001483045022100de2e6e01f1853f49605d4fb2c45756d59290c19e885d484905519a24ebc1c8c6022070bd47120d01e7da3d189969db0e5450854e6716200b3d3236874e03dce1a707014752210376bea8a71e43c38a3c33ec40816400a2124984c30ddc2d8a8e5f9031792edff521038f2c7ecee34c843be9d886e50ce79e5dc40a1694c0417d60b35340f292ff73fc52ae04004830450221009623683ecd8ff0abe19b8c8dd9ef16719b5531d613ba82868490a6b366829e42022010917b4c8028d10210a4e7dc631be7bc5a47424ceec53034ef910ace110eeb970147304402201c15879fe4214d6955e08710fc33fa72ea1e02e38e7c55db57bbcaef48b28b2002203abbbe39d6e8629ffc3be2ea554eba421d1f56cdec2e57b74509d707d818d37c0147522103276a6941cb6b56ad46991c0386ea82997b17623fa39c5ae259bfb10244544a3d21038f2c7ecee34c843be9d886e50ce79e5dc40a1694c0417d60b35340f292ff73fc52ae00000000", "vin": [{"txinwitness": ["", "3045022100e8df7433e3f46ff7a9e2a6258ea6d47501d0e99b5a2387d9b075653cae02d7c50220074bde17cb741120639a012a0e8b17fa6c2529dfb087e74ec324ac43dcba958001", "3045022100de2e6e01f1853f49605d4fb2c45756d59290c19e885d484905519a24ebc1c8c6022070bd47120d01e7da3d189969db0e5450854e6716200b3d3236874e03dce1a70701", "52210376bea8a71e43c38a3c33ec40816400a2124984c30ddc2d8a8e5f9031792edff521038f2c7ecee34c843be9d886e50ce79e5dc40a1694c0417d60b35340f292ff73fc52ae"], "sequence": 4294967295, "scriptSig": {"hex": "220020754a974cde6a7c0786bf49ca2cd0d16bcd3be395b183352914d8354ef6af6d0c", "asm": "0020754a974cde6a7c0786bf49ca2cd0d16bcd3be395b183352914d8354ef6af6d0c"}, "vout": 1, "txid": "554820635adada6bef5da9a7d5928cae416ad41e5cb092248d31d86c5dc1a2d1"}, {"txinwitness": ["", "30450221009623683ecd8ff0abe19b8c8dd9ef16719b5531d613ba82868490a6b366829e42022010917b4c8028d10210a4e7dc631be7bc5a47424ceec53034ef910ace110eeb9701", "304402201c15879fe4214d6955e08710fc33fa72ea1e02e38e7c55db57bbcaef48b28b2002203abbbe39d6e8629ffc3be2ea554eba421d1f56cdec2e57b74509d707d818d37c01", "522103276a6941cb6b56ad46991c0386ea82997b17623fa39c5ae259bfb10244544a3d21038f2c7ecee34c843be9d886e50ce79e5dc40a1694c0417d60b35340f292ff73fc52ae"], "sequence": 4294967295, "scriptSig": {"hex": "220020f02106df819c0c079c5a1301424987bb2223d70b61998b41dc48ac495ee36ff0", "asm": "0020f02106df819c0c079c5a1301424987bb2223d70b61998b41dc48ac495ee36ff0"}, "vout": 1, "txid": "97f67a4c5eee5ea3fd39597e0a87c9ef63f547fd8757d5b05cf00e756c142626"}], "txid": "4580dafc57a3fc52a278a268cb11734a2ff38081590e0d5c5423cc53588f3cfc", "blocktime": 1537873891, "version": 1, "confirmations": 11478, "time": 1537873891, "locktime": 0, "vsize": 337, "size": 667}