{"hash": "458c870e14e9a3a3a45acb6bfe93cb79505f0afdf127549c803f7e4fa8e4568c", "blockhash": "0000000000000000001f76057863aec43deb6fa401d9628bb513d65a8098bfab", "vout": [{"scriptPubKey": {"reqSigs": 1, "hex": "76a9140b3b03ac1103ba5b2bd83692666342f146b351e888ac", "addresses": ["122P8VvVTip7m18n7rowx1p4EdeKEcwVqu"], "asm": "OP_DUP OP_HASH160 0b3b03ac1103ba5b2bd83692666342f146b351e8 OP_EQUALVERIFY OP_CHECKSIG", "type": "pubkeyhash"}, "value": 0.02, "n": 0}], "hex": "0100000001012b7de30b8e95f0948ad9204ecb149560e3e391582b218ba9fedaf28c250cc9020000006a473044022051175e2ec8ae2846b56a135fac51ef45f77c40651552950aa189b16fbcd849a402207ae138edbc5c8ad98a4fdc290cca3412b66aafd1af140aab991bbb49b4d822bd012102a0b9233659f7df799963bdf0e6cf3ed2a63d79283d40c5acf6fc4560bfad4937fcffffff0180841e00000000001976a9140b3b03ac1103ba5b2bd83692666342f146b351e888ac00000000", "vin": [{"sequence": 4294967292, "scriptSig": {"hex": "473044022051175e2ec8ae2846b56a135fac51ef45f77c40651552950aa189b16fbcd849a402207ae138edbc5c8ad98a4fdc290cca3412b66aafd1af140aab991bbb49b4d822bd012102a0b9233659f7df799963bdf0e6cf3ed2a63d79283d40c5acf6fc4560bfad4937", "asm": "3044022051175e2ec8ae2846b56a135fac51ef45f77c40651552950aa189b16fbcd849a402207ae138edbc5c8ad98a4fdc290cca3412b66aafd1af140aab991bbb49b4d822bd[ALL] 02a0b9233659f7df799963bdf0e6cf3ed2a63d79283d40c5acf6fc4560bfad4937"}, "vout": 2, "txid": "c90c258cf2dafea98b212b5891e3e3609514cb4e20d98a94f0958e0be37d2b01"}], "txid": "458c870e14e9a3a3a45acb6bfe93cb79505f0afdf127549c803f7e4fa8e4568c", "blocktime": 1537873891, "version": 1, "confirmations": 11474, "time": 1537873891, "locktime": 0, "vsize": 191, "size": 191}