{"hash": "458ed8df3aef01c5ad79f89486944e7627dfa96fb2171e6ca980542895b0f4dd", "blockhash": "0000000000000000001e0dab787dd257d1dbfcb92a98c2207d5e1078be1f4165", "vout": [{"scriptPubKey": {"reqSigs": 1, "hex": "a914fcb9bb12d8e5ec0e9f99867d63e0b9ca1ddf1e9387", "addresses": ["3QjJhgdvV4jMWcdVXphq9LNet276aw8qy9"], "asm": "OP_HASH160 fcb9bb12d8e5ec0e9f99867d63e0b9ca1ddf1e93 OP_EQUAL", "type": "scripthash"}, "value": 0.02, "n": 0}, {"scriptPubKey": {"reqSigs": 1, "hex": "76a9148fabb22307cf8fa2fac1600d33fced927e5bddf188ac", "addresses": ["1E6fK4xuJDNJsp654bbHWW7j4taSiqLqUY"], "asm": "OP_DUP OP_HASH160 8fabb22307cf8fa2fac1600d33fced927e5bddf1 OP_EQUALVERIFY OP_CHECKSIG", "type": "pubkeyhash"}, "value": 5.50357153, "n": 1}], "hex": "0100000001ea5d1c27ce81132db3cd134307a5c0af479e4474fa3e8589b3d2b4171fe09e5c010000006a4730440220546b90a64bb04bccf79270f91d6d8b4cbd9dbc70ac0a9b5e7f972d9ce9b34459022006599755debf8860aa5b6612c96a0343bcce005126efd65b816ebd72dfcd84a60121028d3ddeafca3d5d38130f6a5618798a8cf0efa6e5462592484ee31a8c10230735ffffffff0280841e000000000017a914fcb9bb12d8e5ec0e9f99867d63e0b9ca1ddf1e9387a1c8cd20000000001976a9148fabb22307cf8fa2fac1600d33fced927e5bddf188ac00000000", "vin": [{"sequence": 4294967295, "scriptSig": {"hex": "4730440220546b90a64bb04bccf79270f91d6d8b4cbd9dbc70ac0a9b5e7f972d9ce9b34459022006599755debf8860aa5b6612c96a0343bcce005126efd65b816ebd72dfcd84a60121028d3ddeafca3d5d38130f6a5618798a8cf0efa6e5462592484ee31a8c10230735", "asm": "30440220546b90a64bb04bccf79270f91d6d8b4cbd9dbc70ac0a9b5e7f972d9ce9b34459022006599755debf8860aa5b6612c96a0343bcce005126efd65b816ebd72dfcd84a6[ALL] 028d3ddeafca3d5d38130f6a5618798a8cf0efa6e5462592484ee31a8c10230735"}, "vout": 1, "txid": "5c9ee01f17b4d2b389853efa74449e47afc0a5074313cdb32d1381ce271c5dea"}], "txid": "458ed8df3aef01c5ad79f89486944e7627dfa96fb2171e6ca980542895b0f4dd", "blocktime": 1537872475, "version": 1, "confirmations": 11486, "time": 1537872475, "locktime": 0, "vsize": 223, "size": 223}