{"hash": "d10a7512a768fd25998ad04efe9175064d6c48c8446caeb4c1bf9e94dad0ef8d", "blockhash": "0000000000000000000dcc0f55137456b1a82d3642486a52398922ac4d620174", "vout": [{"scriptPubKey": {"reqSigs": 1, "hex": "a9144c986a9d24563921a37018a8cfeb576f407c4f4587", "addresses": ["38g1sCo8LW2JXMFKsMEJ5Uu8sXm6HmyAcD"], "asm": "OP_HASH160 4c986a9d24563921a37018a8cfeb576f407c4f45 OP_EQUAL", "type": "scripthash"}, "value": 0.00258398, "n": 0}, {"scriptPubKey": {"reqSigs": 1, "hex": "a914ec5bde15471225d53c7716036f189d2be794787687", "addresses": ["3PEmSt8aok46XW49sTZh3NCmfBPxMHCMFg"], "asm": "OP_HASH160 ec5bde15471225d53c7716036f189d2be7947876 OP_EQUAL", "type": "scripthash"}, "value": 0.0002413, "n": 1}], "hex": "010000000001012974b03f1bc04fced0b10b1cf67cbc99ac64085c853f5fd7b5ec2eaf2716fbad0000000023220020adad52c4b375b5ffbea2c1ab18210fedbfb9e611937a2ca052cbc4599f0b68fdffffffff025ef103000000000017a9144c986a9d24563921a37018a8cfeb576f407c4f4587425e00000000000017a914ec5bde15471225d53c7716036f189d2be79478768704004730440220544104a95ebf77a23139f0bf6f90aef3a1473854544b6e2d237d41b3e43ce4be022054d676a51ae0cad715e0a74f3f57622d9d4f29dfe3e17dbfd1ee5e1ea28f1b730147304402203ffdab02fdfbe2d0e511f6b5d8b5da2d6015fe54a641741b530d0363bdf6498b022057ea6c78b7992c3b9259e3dfbbc6058df80931c2f54e129d21c5996ff16c06db0147522102e71a10af23a971209e365fb06a2695c342050cd077da20b63510ddd497c62494210292d679353fa4a760eaad69284c09d063a1fd1a15ad8c70e83dbf86f7063f8c1852ae00000000", "vin": [{"txinwitness": ["", "30440220544104a95ebf77a23139f0bf6f90aef3a1473854544b6e2d237d41b3e43ce4be022054d676a51ae0cad715e0a74f3f57622d9d4f29dfe3e17dbfd1ee5e1ea28f1b7301", "304402203ffdab02fdfbe2d0e511f6b5d8b5da2d6015fe54a641741b530d0363bdf6498b022057ea6c78b7992c3b9259e3dfbbc6058df80931c2f54e129d21c5996ff16c06db01", "522102e71a10af23a971209e365fb06a2695c342050cd077da20b63510ddd497c62494210292d679353fa4a760eaad69284c09d063a1fd1a15ad8c70e83dbf86f7063f8c1852ae"], "sequence": 4294967295, "scriptSig": {"hex": "220020adad52c4b375b5ffbea2c1ab18210fedbfb9e611937a2ca052cbc4599f0b68fd", "asm": "0020adad52c4b375b5ffbea2c1ab18210fedbfb9e611937a2ca052cbc4599f0b68fd"}, "vout": 0, "txid": "adfb1627af2eecb5d75f3f855c0864ac99bc7cf61c0bb1d0ce4fc01b3fb07429"}], "txid": "45938b0651bdce7fc6fe47b57f1e7b0b095fb1a18a369ccb2181ec1f5e90624d", "blocktime": 1537870268, "version": 1, "confirmations": 11516, "time": 1537870268, "locktime": 0, "vsize": 205, "size": 370}