{"hash": "efa50fadaaeb870f48605ebf1a1d5dfc7d70d4c878f9cb4c56e2c854db887c53", "blockhash": "00000000000000000017f5eb5941039fbcee6240d03bc1f2f8e35350df66a1d8", "vout": [{"scriptPubKey": {"reqSigs": 1, "hex": "a914b8ca1f9e31971968ea7148557663be970fda16e587", "addresses": ["3JY6PdP4FVHy6PKQS5FSA9qhAHR1sfe6BD"], "asm": "OP_HASH160 b8ca1f9e31971968ea7148557663be970fda16e5 OP_EQUAL", "type": "scripthash"}, "value": 0.00377507, "n": 0}, {"scriptPubKey": {"reqSigs": 1, "hex": "a91480e0e78d86944174343e2d6f74309cb83a70e33687", "addresses": ["3DSTqjh9F8veBouwshCyUgmrBTvkYMfRw2"], "asm": "OP_HASH160 80e0e78d86944174343e2d6f74309cb83a70e336 OP_EQUAL", "type": "scripthash"}, "value": 0.00967816, "n": 1}], "hex": "010000000001014c98e7527990a3bde66df5244578e2ec331c38b69641c9c935ac4a8b9d9f6b5e010000002322002055c3a74731887599eaceebe056401a21934076effa1df1667b01ca8eb824efaaffffffff02a3c205000000000017a914b8ca1f9e31971968ea7148557663be970fda16e58788c40e000000000017a91480e0e78d86944174343e2d6f74309cb83a70e336870400483045022100ea684ccbda2aa1f32c90e96aa32db7f4bd40e1814976efc92068ed0472037ad6022072269b556e289d4ef80e05f3303caf19dfacbd4c18abbf65e57ce88f0a32c35d0147304402200e633ceef91889700157ef4fb2ec81075fdad251ac1d758798774707da5c0d5502203759062b0db94bf0dff5a10ca7a2a616ede3cf04708fa00b010c4b200cef840e0147522102ef930229f2f9d9bff6d039cb98da2f91134e9696f45450aaba29489c184b2714210292d679353fa4a760eaad69284c09d063a1fd1a15ad8c70e83dbf86f7063f8c1852ae00000000", "vin": [{"txinwitness": ["", "3045022100ea684ccbda2aa1f32c90e96aa32db7f4bd40e1814976efc92068ed0472037ad6022072269b556e289d4ef80e05f3303caf19dfacbd4c18abbf65e57ce88f0a32c35d01", "304402200e633ceef91889700157ef4fb2ec81075fdad251ac1d758798774707da5c0d5502203759062b0db94bf0dff5a10ca7a2a616ede3cf04708fa00b010c4b200cef840e01", "522102ef930229f2f9d9bff6d039cb98da2f91134e9696f45450aaba29489c184b2714210292d679353fa4a760eaad69284c09d063a1fd1a15ad8c70e83dbf86f7063f8c1852ae"], "sequence": 4294967295, "scriptSig": {"hex": "22002055c3a74731887599eaceebe056401a21934076effa1df1667b01ca8eb824efaa", "asm": "002055c3a74731887599eaceebe056401a21934076effa1df1667b01ca8eb824efaa"}, "vout": 1, "txid": "5e6b9f9d8b4aac35c9c94196b6381c33ece2784524f56de6bda3907952e7984c"}], "txid": "4593adfad9c95dff7c52930b1a1258f94c70f9f73122e4f326a7d8f0fec1e3cd", "blocktime": 1537874412, "version": 1, "confirmations": 11467, "time": 1537874412, "locktime": 0, "vsize": 206, "size": 371}