{"hash": "459392740888819b6c548e8b79e46655124b97f3012cf6738e3001f2ff65f2ce", "blockhash": "0000000000000000000baef3f32e3676a92c3b2e5da21b426e4f302fc371ce76", "vout": [{"scriptPubKey": {"reqSigs": 1, "hex": "76a9147ab03c7d3b4040fc5ede7825e46cf65c8254d35a88ac", "addresses": ["1CBiZWst9P4yFw4yRZhx8fGBjd4qm5mx1P"], "asm": "OP_DUP OP_HASH160 7ab03c7d3b4040fc5ede7825e46cf65c8254d35a OP_EQUALVERIFY OP_CHECKSIG", "type": "pubkeyhash"}, "value": 0.04562997, "n": 0}], "hex": "0100000001205957c06e7793986664845a5570203f0fe7744a497d71ec9338c6c501f9bd51010000006b483045022100e3d753a946833074a0199a4a264b0e04d0d17793ab8e4d0235346f15fe9cce6502202027bdbbeac7e1023b94f12cb9d90e6252a93d21de5ef36d5b23a9cc7d767d3e0121039f4849a47f9d2d5986084be4946f4f69a75eeb5a314615c391e2f69093a52c84feffffff0135a04500000000001976a9147ab03c7d3b4040fc5ede7825e46cf65c8254d35a88ac17490800", "vin": [{"sequence": 4294967294, "scriptSig": {"hex": "483045022100e3d753a946833074a0199a4a264b0e04d0d17793ab8e4d0235346f15fe9cce6502202027bdbbeac7e1023b94f12cb9d90e6252a93d21de5ef36d5b23a9cc7d767d3e0121039f4849a47f9d2d5986084be4946f4f69a75eeb5a314615c391e2f69093a52c84", "asm": "3045022100e3d753a946833074a0199a4a264b0e04d0d17793ab8e4d0235346f15fe9cce6502202027bdbbeac7e1023b94f12cb9d90e6252a93d21de5ef36d5b23a9cc7d767d3e[ALL] 039f4849a47f9d2d5986084be4946f4f69a75eeb5a314615c391e2f69093a52c84"}, "vout": 1, "txid": "51bdf901c5c63893ec717d494a74e70f3f2070555a8464669893776ec0575920"}], "txid": "459392740888819b6c548e8b79e46655124b97f3012cf6738e3001f2ff65f2ce", "blocktime": 1537876114, "version": 1, "confirmations": 11460, "time": 1537876114, "locktime": 542999, "vsize": 192, "size": 192}