{"hash": "4593593968ce21e85666d98388450361cc24918428fcd38e6b5f998522805802", "blockhash": "0000000000000000001f0ddff1eddb255c1121bcd4da4f1bc9a0da00cae72433", "vout": [{"scriptPubKey": {"reqSigs": 1, "hex": "a91405ff3acb1330f508174a210787602f0ce0bf435b87", "addresses": ["32Ej4ArLpGVcaciCPPzX7HNmJfVd8YK44W"], "asm": "OP_HASH160 05ff3acb1330f508174a210787602f0ce0bf435b OP_EQUAL", "type": "scripthash"}, "value": 0.0303, "n": 0}, {"scriptPubKey": {"reqSigs": 1, "hex": "76a9148fd42cc7b74e5d0514f4351d91efa37b3d46ab3688ac", "addresses": ["1E7Voc2D8k5gJdzP78NzM7stHtfU5h9kgB"], "asm": "OP_DUP OP_HASH160 8fd42cc7b74e5d0514f4351d91efa37b3d46ab36 OP_EQUALVERIFY OP_CHECKSIG", "type": "pubkeyhash"}, "value": 0.019588, "n": 1}], "hex": "0200000001ee13e87af9a4149ed3d2d6f8bd14f8bc297fcf7586b1ddb60d4382715896d42b150000006b483045022100958fbdcb4d228601e251efd35951580b6278ab3d8c588f61203531e3068e858f022023ceedfb5c013599ffd28487d1fc5d8264945f0eea305767a22c7ea7c18bd735012102b63378f489810b994417e4827814ac577dea335c1eaa1db415e9e0789f27e87efdffffff02f03b2e000000000017a91405ff3acb1330f508174a210787602f0ce0bf435b8790e31d00000000001976a9148fd42cc7b74e5d0514f4351d91efa37b3d46ab3688ac11490800", "vin": [{"sequence": 4294967293, "scriptSig": {"hex": "483045022100958fbdcb4d228601e251efd35951580b6278ab3d8c588f61203531e3068e858f022023ceedfb5c013599ffd28487d1fc5d8264945f0eea305767a22c7ea7c18bd735012102b63378f489810b994417e4827814ac577dea335c1eaa1db415e9e0789f27e87e", "asm": "3045022100958fbdcb4d228601e251efd35951580b6278ab3d8c588f61203531e3068e858f022023ceedfb5c013599ffd28487d1fc5d8264945f0eea305767a22c7ea7c18bd735[ALL] 02b63378f489810b994417e4827814ac577dea335c1eaa1db415e9e0789f27e87e"}, "vout": 21, "txid": "2bd496587182430db6ddb18675cf7f29bcf814bdf8d6d2d39e14a4f97ae813ee"}], "txid": "4593593968ce21e85666d98388450361cc24918428fcd38e6b5f998522805802", "blocktime": 1537872018, "version": 2, "confirmations": 11489, "time": 1537872018, "locktime": 542993, "vsize": 224, "size": 224}