{"hash": "459721113b3e8d80db512e23fa99e25a418cdc29ad3cd917aa3a84609ee267ce", "blockhash": "000000000000000000022b45ed06c6f4ccd3cf7fb5ba4856ebd2e58215665228", "vout": [{"scriptPubKey": {"reqSigs": 1, "hex": "76a9146049d5cdc7af2cada1afe22ddcc5b026994b9e5788ac", "addresses": ["19n8KaFm6axKFhHqW8LwDEXFnY6SD52Z8C"], "asm": "OP_DUP OP_HASH160 6049d5cdc7af2cada1afe22ddcc5b026994b9e57 OP_EQUALVERIFY OP_CHECKSIG", "type": "pubkeyhash"}, "value": 0.0154401, "n": 0}, {"scriptPubKey": {"reqSigs": 1, "hex": "76a91439b281bd9570f86ce147e585c963dd61031fa44088ac", "addresses": ["16G5MoeEEtWSiNyFzd4dzZeUTQFr6fVLYh"], "asm": "OP_DUP OP_HASH160 39b281bd9570f86ce147e585c963dd61031fa440 OP_EQUALVERIFY OP_CHECKSIG", "type": "pubkeyhash"}, "value": 0.12117134, "n": 1}], "hex": "0100000001ed83fa42061bdf2526f3e49e1e7174bb60a98cc62c3b0b2fd0bd6349a1e90cec010000006a4730440220298cf8011c4cb934a759dadcfe82127bc85383bdc1052641a4714b16b2290df6022075300c272d0da2a5e89e32d08c65b32d88413479e4e103531c49dfecafb64b380121028714234a58cbc4a441c35ede244209955579366c1e7537bcee4a92b14c6c8607ffffffff024a8f1700000000001976a9146049d5cdc7af2cada1afe22ddcc5b026994b9e5788ac8ee4b800000000001976a91439b281bd9570f86ce147e585c963dd61031fa44088ac00000000", "vin": [{"sequence": 4294967295, "scriptSig": {"hex": "4730440220298cf8011c4cb934a759dadcfe82127bc85383bdc1052641a4714b16b2290df6022075300c272d0da2a5e89e32d08c65b32d88413479e4e103531c49dfecafb64b380121028714234a58cbc4a441c35ede244209955579366c1e7537bcee4a92b14c6c8607", "asm": "30440220298cf8011c4cb934a759dadcfe82127bc85383bdc1052641a4714b16b2290df6022075300c272d0da2a5e89e32d08c65b32d88413479e4e103531c49dfecafb64b38[ALL] 028714234a58cbc4a441c35ede244209955579366c1e7537bcee4a92b14c6c8607"}, "vout": 1, "txid": "ec0ce9a14963bdd02f0b3b2cc68ca960bb74711e9ee4f32625df1b0642fa83ed"}], "txid": "459721113b3e8d80db512e23fa99e25a418cdc29ad3cd917aa3a84609ee267ce", "blocktime": 1537869901, "version": 1, "confirmations": 11524, "time": 1537869901, "locktime": 0, "vsize": 225, "size": 225}