{"hash": "45ad8700c13b2b2e4d7038593ba5da50708eb71d38fab606396ed71fa2d2cbcd", "blockhash": "00000000000000000024a2167bbff67b0be802c0b01cdd79e6331c2be6459f87", "vout": [{"scriptPubKey": {"reqSigs": 1, "hex": "76a9144ed2df4b5849203d41ba520d890dbfb2ed2702ad88ac", "addresses": ["18BnKd98ZLyCW2P4w3SgS5c4fL6aCYRheQ"], "asm": "OP_DUP OP_HASH160 4ed2df4b5849203d41ba520d890dbfb2ed2702ad OP_EQUALVERIFY OP_CHECKSIG", "type": "pubkeyhash"}, "value": 0.04996486, "n": 0}], "hex": "0100000001bd3606468c98b157b438575a333070645685855331a15d98d22753bd5e2f52c404000000fdfd00004730440220679b20298b4c0695c53660db91d50dd4472061972aa87e994015e2004b83195e022071f40477ca245167fe78e7ab4bf07182eaeb6723c8452627e7b935fbfa63a7bd01483045022100b3f21790daeb5044a125ca7346137dac8c9a6ee3efb08d30d9db3ad10f7d06590220082df2a8fa51c2ccc16588c7ce80cc934cb338eff65459c442ee27bc18164208014c695221026313e681d7bfa5755d868d572541ea8a63c8df986f7058ce23b073f9e49facdd2102839d77b05dfd3cfd392e3a06a8ba2dd7d0d1ac5b43bc4a804ea30496e28787172102fa5adebfb0c0b534324d0928bf70585976cd5d66942d4adf3bbae07586a106b753aeffffffff01863d4c00000000001976a9144ed2df4b5849203d41ba520d890dbfb2ed2702ad88ac0e490800", "vin": [{"sequence": 4294967295, "scriptSig": {"hex": "004730440220679b20298b4c0695c53660db91d50dd4472061972aa87e994015e2004b83195e022071f40477ca245167fe78e7ab4bf07182eaeb6723c8452627e7b935fbfa63a7bd01483045022100b3f21790daeb5044a125ca7346137dac8c9a6ee3efb08d30d9db3ad10f7d06590220082df2a8fa51c2ccc16588c7ce80cc934cb338eff65459c442ee27bc18164208014c695221026313e681d7bfa5755d868d572541ea8a63c8df986f7058ce23b073f9e49facdd2102839d77b05dfd3cfd392e3a06a8ba2dd7d0d1ac5b43bc4a804ea30496e28787172102fa5adebfb0c0b534324d0928bf70585976cd5d66942d4adf3bbae07586a106b753ae", "asm": "0 30440220679b20298b4c0695c53660db91d50dd4472061972aa87e994015e2004b83195e022071f40477ca245167fe78e7ab4bf07182eaeb6723c8452627e7b935fbfa63a7bd[ALL] 3045022100b3f21790daeb5044a125ca7346137dac8c9a6ee3efb08d30d9db3ad10f7d06590220082df2a8fa51c2ccc16588c7ce80cc934cb338eff65459c442ee27bc18164208[ALL] 5221026313e681d7bfa5755d868d572541ea8a63c8df986f7058ce23b073f9e49facdd2102839d77b05dfd3cfd392e3a06a8ba2dd7d0d1ac5b43bc4a804ea30496e28787172102fa5adebfb0c0b534324d0928bf70585976cd5d66942d4adf3bbae07586a106b753ae"}, "vout": 4, "txid": "c4522f5ebd5327d2985da13153858556647030335a5738b457b1988c460636bd"}], "txid": "45ad8700c13b2b2e4d7038593ba5da50708eb71d38fab606396ed71fa2d2cbcd", "blocktime": 1537870564, "version": 1, "confirmations": 11515, "time": 1537870564, "locktime": 542990, "vsize": 340, "size": 340}