{"hash": "a5690ee69d240ae90efe98fb12a73476a3b4c969088dc034e71cc89ee62f44fe", "blockhash": "00000000000000000004ffacab907a6b429b9a5745fa0b75af4234bf69dd7176", "vout": [{"scriptPubKey": {"reqSigs": 1, "hex": "76a914dd9ce7238211df52984833ec26e724ea5b420ec988ac", "addresses": ["1MCnJCVX7Wu88V8yqBVQQM3BfzVmf3wYcx"], "asm": "OP_DUP OP_HASH160 dd9ce7238211df52984833ec26e724ea5b420ec9 OP_EQUALVERIFY OP_CHECKSIG", "type": "pubkeyhash"}, "value": 0.01164685, "n": 0}, {"scriptPubKey": {"reqSigs": 1, "hex": "a914152933564beeb6b1a3eaceeed36963c079e29d3d87", "addresses": ["33cuUEcmZ3ohnRydwAA9NuPWteBPif3B5j"], "asm": "OP_HASH160 152933564beeb6b1a3eaceeed36963c079e29d3d OP_EQUAL", "type": "scripthash"}, "value": 0.20664413, "n": 1}], "hex": "02000000000101bf310a3568011510589d6a30bfb3f697a7c74e8c0fe95fbdd5b066abd8f21b890100000017160014f3d7b9042ad2a581313c60c6acc99f85b2cf3d50ffffffff028dc51100000000001976a914dd9ce7238211df52984833ec26e724ea5b420ec988ac5d503b010000000017a914152933564beeb6b1a3eaceeed36963c079e29d3d8702473044022061536ae5a1b8a37d54e8574de27220c5af2dc98767db64aa534dd657f9d5e65502201c45365046648f827bdb26a6e53a1f26e52a79b8c8cb3c31a589ecfa1bebc86b012103f8c11fdd588fe178c613023147c433d08d9632662c46dcdcaaedab54d64dc5f300000000", "vin": [{"txinwitness": ["3044022061536ae5a1b8a37d54e8574de27220c5af2dc98767db64aa534dd657f9d5e65502201c45365046648f827bdb26a6e53a1f26e52a79b8c8cb3c31a589ecfa1bebc86b01", "03f8c11fdd588fe178c613023147c433d08d9632662c46dcdcaaedab54d64dc5f3"], "sequence": 4294967295, "scriptSig": {"hex": "160014f3d7b9042ad2a581313c60c6acc99f85b2cf3d50", "asm": "0014f3d7b9042ad2a581313c60c6acc99f85b2cf3d50"}, "vout": 1, "txid": "891bf2d8ab66b0d5bd5fe90f8c4ec7a797f6b3bf306a9d5810150168350a31bf"}], "txid": "45ae7d5be9b34932d7acc01928cbf91944e61f569fac3e8a99ec43d2bf9ea43f", "blocktime": 1537875543, "version": 2, "confirmations": 11464, "time": 1537875543, "locktime": 0, "vsize": 168, "size": 249}