{"hash": "137c639c8d7d2b9db78133e2043801c919b00fcae1646c092dca38ae781c3cc7", "blockhash": "0000000000000000000baef3f32e3676a92c3b2e5da21b426e4f302fc371ce76", "vout": [{"scriptPubKey": {"reqSigs": 1, "hex": "a91490e99e8d26d05ead3c05430c292a887bbff695f587", "addresses": ["3EuF6KjJawxTiUsea3Sc8hsLUGmVEf7Xg5"], "asm": "OP_HASH160 90e99e8d26d05ead3c05430c292a887bbff695f5 OP_EQUAL", "type": "scripthash"}, "value": 0.00108901, "n": 0}, {"scriptPubKey": {"type": "nulldata", "hex": "6a146f6d6e69000000000000001f0000000005f5e100", "asm": "OP_RETURN 6f6d6e69000000000000001f0000000005f5e100"}, "value": 0.0, "n": 1}, {"scriptPubKey": {"reqSigs": 1, "hex": "a91490e99e8d26d05ead3c05430c292a887bbff695f587", "addresses": ["3EuF6KjJawxTiUsea3Sc8hsLUGmVEf7Xg5"], "asm": "OP_HASH160 90e99e8d26d05ead3c05430c292a887bbff695f5 OP_EQUAL", "type": "scripthash"}, "value": 5.4e-06, "n": 2}], "hex": "01000000000102f7de2ebe2a5da6def87dd49887e05f1b74be22065bb005c42a9e3570338ee9f10000000017160014f6e1792e7852ebd5ae795c2a25d579acdfadec2dfffffffff7de2ebe2a5da6def87dd49887e05f1b74be22065bb005c42a9e3570338ee9f10200000017160014f6e1792e7852ebd5ae795c2a25d579acdfadec2dffffffff0365a901000000000017a91490e99e8d26d05ead3c05430c292a887bbff695f5870000000000000000166a146f6d6e69000000000000001f0000000005f5e1001c0200000000000017a91490e99e8d26d05ead3c05430c292a887bbff695f5870247304402204897142f929dce68a9184ef821884020f857735aaa86b70a181b9a3236f9ce6202207e5a01a611e3a3a7c114b1f259af802a99457fa006c71e695999e32f6ac579a0012103f1cf988013a33e053d1e9bd54c4798c1a6dc362a5b2798b5344049fca40e2db002473044022031c6572a99df51c59065fa24c260f0d1ee7d0e2e3460b8dcb5b9f8d1728eca55022045dc0802c664ca934b4ddf007ade55686169187be3eb172eddad4ca3ad1dfee5012103f1cf988013a33e053d1e9bd54c4798c1a6dc362a5b2798b5344049fca40e2db000000000", "vin": [{"txinwitness": ["304402204897142f929dce68a9184ef821884020f857735aaa86b70a181b9a3236f9ce6202207e5a01a611e3a3a7c114b1f259af802a99457fa006c71e695999e32f6ac579a001", "03f1cf988013a33e053d1e9bd54c4798c1a6dc362a5b2798b5344049fca40e2db0"], "sequence": 4294967295, "scriptSig": {"hex": "160014f6e1792e7852ebd5ae795c2a25d579acdfadec2d", "asm": "0014f6e1792e7852ebd5ae795c2a25d579acdfadec2d"}, "vout": 0, "txid": "f1e98e3370359e2ac405b05b0622be741b5fe08798d47df8dea65d2abe2edef7"}, {"txinwitness": ["3044022031c6572a99df51c59065fa24c260f0d1ee7d0e2e3460b8dcb5b9f8d1728eca55022045dc0802c664ca934b4ddf007ade55686169187be3eb172eddad4ca3ad1dfee501", "03f1cf988013a33e053d1e9bd54c4798c1a6dc362a5b2798b5344049fca40e2db0"], "sequence": 4294967295, "scriptSig": {"hex": "160014f6e1792e7852ebd5ae795c2a25d579acdfadec2d", "asm": "0014f6e1792e7852ebd5ae795c2a25d579acdfadec2d"}, "vout": 2, "txid": "f1e98e3370359e2ac405b05b0622be741b5fe08798d47df8dea65d2abe2edef7"}], "txid": "45b0ea333f515dbee10e4ece2715f1c4fbfb5c0aa2b7f526c21b3206ae54edb2", "blocktime": 1537876114, "version": 1, "confirmations": 11460, "time": 1537876114, "locktime": 0, "vsize": 287, "size": 449}