{"hash": "45b2e03e654af425d58d7405524db3e7b5415a71c54a99661b8180565bd09a60", "blockhash": "0000000000000000001cda96e906b7601b7a6fb1a3b62bca570a9e5d8f4b3de1", "vout": [{"scriptPubKey": {"reqSigs": 1, "hex": "76a9145bbf32c10e60956f30f563f9b92f356dbd4841a388ac", "addresses": ["19N7Y9NwBn1hBeMLLSfVkXDDhtmv5fiXDs"], "asm": "OP_DUP OP_HASH160 5bbf32c10e60956f30f563f9b92f356dbd4841a3 OP_EQUALVERIFY OP_CHECKSIG", "type": "pubkeyhash"}, "value": 2.26288125, "n": 0}, {"scriptPubKey": {"reqSigs": 1, "hex": "76a914bae025140c454518b8cba0c25d45a6dc87f4b9ce88ac", "addresses": ["1J37CY8hcdUXQ1KfBhMCsUVafa8XjDsdCn"], "asm": "OP_DUP OP_HASH160 bae025140c454518b8cba0c25d45a6dc87f4b9ce OP_EQUALVERIFY OP_CHECKSIG", "type": "pubkeyhash"}, "value": 2.29706288, "n": 1}], "hex": "0100000001dc48e4f1ec296653dedcb39b9a2e7daed339d847b7773596f0dac69d797af27c010000008b4830450221008249adc7be4003ef05e382018f31782fbb90aab6b7d350d16a3508f0bc7c2dd802200e23e9167c15e15e5b3f05c1ff2b87ae9a71d4c003a69d90866578605cb32dfe014104025a1cffe502a80dfa1f543ae14c082aff24d5ecadab160ca904d288eed8e3d8cacef0985f690868df4f416c3890909b4c0c843da153d41382ac20c80170240affffffff02fde17c0d000000001976a9145bbf32c10e60956f30f563f9b92f356dbd4841a388ac300ab10d000000001976a914bae025140c454518b8cba0c25d45a6dc87f4b9ce88ac00000000", "vin": [{"sequence": 4294967295, "scriptSig": {"hex": "4830450221008249adc7be4003ef05e382018f31782fbb90aab6b7d350d16a3508f0bc7c2dd802200e23e9167c15e15e5b3f05c1ff2b87ae9a71d4c003a69d90866578605cb32dfe014104025a1cffe502a80dfa1f543ae14c082aff24d5ecadab160ca904d288eed8e3d8cacef0985f690868df4f416c3890909b4c0c843da153d41382ac20c80170240a", "asm": "30450221008249adc7be4003ef05e382018f31782fbb90aab6b7d350d16a3508f0bc7c2dd802200e23e9167c15e15e5b3f05c1ff2b87ae9a71d4c003a69d90866578605cb32dfe[ALL] 04025a1cffe502a80dfa1f543ae14c082aff24d5ecadab160ca904d288eed8e3d8cacef0985f690868df4f416c3890909b4c0c843da153d41382ac20c80170240a"}, "vout": 1, "txid": "7cf27a799dc6daf0963577b747d839d3ae7d2e9a9bb3dcde536629ecf1e448dc"}], "txid": "45b2e03e654af425d58d7405524db3e7b5415a71c54a99661b8180565bd09a60", "blocktime": 1537873282, "version": 1, "confirmations": 11481, "time": 1537873282, "locktime": 0, "vsize": 258, "size": 258}