{"hash": "45b4c9ee97ca50ac751cb335896e24ce5e9679c655a126cdb50de8785383257a", "blockhash": "00000000000000000018f53835495a110e01622372bf6ae95dc86f2b0ab887b0", "vout": [{"scriptPubKey": {"reqSigs": 1, "hex": "76a914df5c37f9dc08b598e1cd59397fa1fec4e208ea5788ac", "addresses": ["1MN2AF5dD5JYSsQ3wfXPb2jUY3YLbiPLv8"], "asm": "OP_DUP OP_HASH160 df5c37f9dc08b598e1cd59397fa1fec4e208ea57 OP_EQUALVERIFY OP_CHECKSIG", "type": "pubkeyhash"}, "value": 0.00645344, "n": 0}, {"scriptPubKey": {"type": "nulldata", "hex": "6a4c50000077840001d3d0aafa0ea7566c4a949c34bcbefa6b8351586b4e86aeaeacb577c031fcf933b6180d67f2de332cb3be5bc9774c5baa0b3b0613b2bb4892ffeb1d100759d4ba30d2c37bb011d97e02cf", "asm": "OP_RETURN 000077840001d3d0aafa0ea7566c4a949c34bcbefa6b8351586b4e86aeaeacb577c031fcf933b6180d67f2de332cb3be5bc9774c5baa0b3b0613b2bb4892ffeb1d100759d4ba30d2c37bb011d97e02cf"}, "value": 0.0, "n": 1}], "hex": "010000000156af8f7ef1eb5455f1be0a5ffc6312bc403969b2e5c565cd831ebea26f2fe5bf010000006b483045022100ec5fd58f3281aea2ac20a167583e8cb9362fcde524a3ea07f0ea852a7dbd77500220522e009e8d2fd782bd79aa8973edf91af54496fe541cf8c3cfd53e616a8d46a0012102b03377b1ac80b36edd08ab76661f5ec59da8822a93568845e00a2cb463f8ac80ffffffff02e0d80900000000001976a914df5c37f9dc08b598e1cd59397fa1fec4e208ea5788ac0000000000000000536a4c50000077840001d3d0aafa0ea7566c4a949c34bcbefa6b8351586b4e86aeaeacb577c031fcf933b6180d67f2de332cb3be5bc9774c5baa0b3b0613b2bb4892ffeb1d100759d4ba30d2c37bb011d97e02cf00000000", "vin": [{"sequence": 4294967295, "scriptSig": {"hex": "483045022100ec5fd58f3281aea2ac20a167583e8cb9362fcde524a3ea07f0ea852a7dbd77500220522e009e8d2fd782bd79aa8973edf91af54496fe541cf8c3cfd53e616a8d46a0012102b03377b1ac80b36edd08ab76661f5ec59da8822a93568845e00a2cb463f8ac80", "asm": "3045022100ec5fd58f3281aea2ac20a167583e8cb9362fcde524a3ea07f0ea852a7dbd77500220522e009e8d2fd782bd79aa8973edf91af54496fe541cf8c3cfd53e616a8d46a0[ALL] 02b03377b1ac80b36edd08ab76661f5ec59da8822a93568845e00a2cb463f8ac80"}, "vout": 1, "txid": "bfe52f6fa2be1e83cd65c5e5b2693940bc1263fc5f0abef15554ebf17e8faf56"}], "txid": "45b4c9ee97ca50ac751cb335896e24ce5e9679c655a126cdb50de8785383257a", "blocktime": 1537870928, "version": 1, "confirmations": 11513, "time": 1537870928, "locktime": 0, "vsize": 284, "size": 284}