{"hash": "45c48b74194f172f9bd9d69e4c31f5604d38c2aed5bf92a6f0249cc8eba38fea", "blockhash": "0000000000000000001f76057863aec43deb6fa401d9628bb513d65a8098bfab", "vout": [{"scriptPubKey": {"reqSigs": 1, "hex": "76a914a7a790ed093d3694001d29a464cecf80cc7b690788ac", "addresses": ["1GHUajYoUjj5peJvUVpWAMe66WW8WLwq3s"], "asm": "OP_DUP OP_HASH160 a7a790ed093d3694001d29a464cecf80cc7b6907 OP_EQUALVERIFY OP_CHECKSIG", "type": "pubkeyhash"}, "value": 9.813e-05, "n": 0}, {"scriptPubKey": {"reqSigs": 1, "hex": "a91472b4eb979c4a90c4919db53f78b414932a2ae76987", "addresses": ["3C9XgySo5D8X4tL7RdRZpE2qMkAvmLFqXP"], "asm": "OP_HASH160 72b4eb979c4a90c4919db53f78b414932a2ae769 OP_EQUAL", "type": "scripthash"}, "value": 0.007, "n": 1}], "hex": "01000000012ba9865164b2b2a4064a6bb0bd22a362b3e3c60fecbd848a88a13686f27dfc67000000006b483045022100eaeaef76a223e92512a295d422ab3eed0bb6bfbd3a6c9195056973471c98f5050220027319e721700e931c7b9df073478daddcd4e9e42870ed0a4ad2076e20a3941f012103c543ac45a3b09a1266c318bf9a15561287d4b65fd06f594048eb5c0584d54a96fdffffff0255260000000000001976a914a7a790ed093d3694001d29a464cecf80cc7b690788ac60ae0a000000000017a91472b4eb979c4a90c4919db53f78b414932a2ae7698714490800", "vin": [{"sequence": 4294967293, "scriptSig": {"hex": "483045022100eaeaef76a223e92512a295d422ab3eed0bb6bfbd3a6c9195056973471c98f5050220027319e721700e931c7b9df073478daddcd4e9e42870ed0a4ad2076e20a3941f012103c543ac45a3b09a1266c318bf9a15561287d4b65fd06f594048eb5c0584d54a96", "asm": "3045022100eaeaef76a223e92512a295d422ab3eed0bb6bfbd3a6c9195056973471c98f5050220027319e721700e931c7b9df073478daddcd4e9e42870ed0a4ad2076e20a3941f[ALL] 03c543ac45a3b09a1266c318bf9a15561287d4b65fd06f594048eb5c0584d54a96"}, "vout": 0, "txid": "67fc7df28636a1888a84bdec0fc6e3b362a322bdb06b4a06a4b2b2645186a92b"}], "txid": "45c48b74194f172f9bd9d69e4c31f5604d38c2aed5bf92a6f0249cc8eba38fea", "blocktime": 1537873891, "version": 1, "confirmations": 11477, "time": 1537873891, "locktime": 542996, "vsize": 224, "size": 224}