{"hash": "45c710eb43878cfd13c5406dfd740dc137b31162ba41b7c0172cea9d4986f877", "blockhash": "0000000000000000001f76057863aec43deb6fa401d9628bb513d65a8098bfab", "vout": [{"scriptPubKey": {"reqSigs": 1, "hex": "76a9140a6b825daa1b89f8e100ed8eec6d79b592500f4988ac", "addresses": ["1x6YnuBVeeE65dQRZztRWgUPwyBjHCA5g"], "asm": "OP_DUP OP_HASH160 0a6b825daa1b89f8e100ed8eec6d79b592500f49 OP_EQUALVERIFY OP_CHECKSIG", "type": "pubkeyhash"}, "value": 0.44590706, "n": 0}, {"scriptPubKey": {"reqSigs": 1, "hex": "a9143cdf22513d87450e5296f5c1628a912737a6550487", "addresses": ["37EsmgMUhffFcBNd6A17EkRBoCM3T67yYK"], "asm": "OP_HASH160 3cdf22513d87450e5296f5c1628a912737a65504 OP_EQUAL", "type": "scripthash"}, "value": 5.46e-06, "n": 1}, {"scriptPubKey": {"type": "nulldata", "hex": "6a146f6d6e69000000000000001f00000059afb58c00", "asm": "OP_RETURN 6f6d6e69000000000000001f00000059afb58c00"}, "value": 0.0, "n": 2}], "hex": "01000000010557ba0cfe056e747b00240c38af35db98811cb1d70f60548bebbd2851e2eff5000000006a473044022075691976f9efdf481b9808e0934f2700d59f6c7b17f503838e72f6a1671ecf3602205a8323f5852b56b9d888721712ee785be58fb8e5b0391d508dbbb1bcd1745a9e012103fe02b06a6bfd9b5a83e0417430a3235a39a0b4c7973591ca27ac58f6474d9120ffffffff037266a802000000001976a9140a6b825daa1b89f8e100ed8eec6d79b592500f4988ac220200000000000017a9143cdf22513d87450e5296f5c1628a912737a65504870000000000000000166a146f6d6e69000000000000001f00000059afb58c0000000000", "vin": [{"sequence": 4294967295, "scriptSig": {"hex": "473044022075691976f9efdf481b9808e0934f2700d59f6c7b17f503838e72f6a1671ecf3602205a8323f5852b56b9d888721712ee785be58fb8e5b0391d508dbbb1bcd1745a9e012103fe02b06a6bfd9b5a83e0417430a3235a39a0b4c7973591ca27ac58f6474d9120", "asm": "3044022075691976f9efdf481b9808e0934f2700d59f6c7b17f503838e72f6a1671ecf3602205a8323f5852b56b9d888721712ee785be58fb8e5b0391d508dbbb1bcd1745a9e[ALL] 03fe02b06a6bfd9b5a83e0417430a3235a39a0b4c7973591ca27ac58f6474d9120"}, "vout": 0, "txid": "f5efe25128bdeb8b54600fd7b11c8198db35af380c24007b746e05fe0cba5705"}], "txid": "45c710eb43878cfd13c5406dfd740dc137b31162ba41b7c0172cea9d4986f877", "blocktime": 1537873891, "version": 1, "confirmations": 11474, "time": 1537873891, "locktime": 0, "vsize": 254, "size": 254}