{"hash": "8117904ca90c672ae7d04487f8f6eaa9228171a1f05d1ef1dc1dcc719d09fc22", "blockhash": "0000000000000000000baef3f32e3676a92c3b2e5da21b426e4f302fc371ce76", "vout": [{"scriptPubKey": {"reqSigs": 1, "hex": "a91431438dfec63754f0a85b2fe1675caa2cb7d2f6f087", "addresses": ["36BVxixC8x6pHsyd3Z6mBn28PtwqMmYRaV"], "asm": "OP_HASH160 31438dfec63754f0a85b2fe1675caa2cb7d2f6f0 OP_EQUAL", "type": "scripthash"}, "value": 0.02525935, "n": 0}, {"scriptPubKey": {"reqSigs": 1, "hex": "a9145430be9bade5ff992d3037686058d7e94d50883a87", "addresses": ["39NB5VKepFVg3gEjy4r6UsWcDGUWsSaaoy"], "asm": "OP_HASH160 5430be9bade5ff992d3037686058d7e94d50883a OP_EQUAL", "type": "scripthash"}, "value": 0.01355, "n": 1}, {"scriptPubKey": {"reqSigs": 1, "hex": "a91414e46bce350e2660cb2c19333f80970e86c49f4487", "addresses": ["33bV5MhWFpwLgGL5NQnUzwUdRxUje5ERnD"], "asm": "OP_HASH160 14e46bce350e2660cb2c19333f80970e86c49f44 OP_EQUAL", "type": "scripthash"}, "value": 2.492927, "n": 2}], "hex": "02000000000101bb4730d845a11375a6687340ee19c3be61b9fe523119c3c6984ad142ac5d421b01000000171600145f9052fa0857a7cc303cd6f4b104627c966917f9ffffffff03ef8a26000000000017a91431438dfec63754f0a85b2fe1675caa2cb7d2f6f087f8ac14000000000017a9145430be9bade5ff992d3037686058d7e94d50883a879ce7db0e0000000017a91414e46bce350e2660cb2c19333f80970e86c49f448702473044022034a058692fcd79c222a43bdde25732c7df0982f2fa3113f3107e4d1e792832f602203d5fd3a356641c392913c16e712d1aec5f6a133c5b587891c9bd676a27f54f1601210270acd5104f59b2f969d63521a958b1e7135fddbe74b0f91f4146a0891f2d24f200000000", "vin": [{"txinwitness": ["3044022034a058692fcd79c222a43bdde25732c7df0982f2fa3113f3107e4d1e792832f602203d5fd3a356641c392913c16e712d1aec5f6a133c5b587891c9bd676a27f54f1601", "0270acd5104f59b2f969d63521a958b1e7135fddbe74b0f91f4146a0891f2d24f2"], "sequence": 4294967295, "scriptSig": {"hex": "1600145f9052fa0857a7cc303cd6f4b104627c966917f9", "asm": "00145f9052fa0857a7cc303cd6f4b104627c966917f9"}, "vout": 1, "txid": "1b425dac42d14a98c6c3193152feb961bec319ee407368a67513a145d83047bb"}], "txid": "45cef450194293b3b1e1ff022c5d905322e5d775b7ce881c44e598838e35cbd2", "blocktime": 1537876114, "version": 2, "confirmations": 11460, "time": 1537876114, "locktime": 0, "vsize": 198, "size": 279}