{"hash": "ff915cecefb7734a16890b8e7046f5cd978001ad181993e5b6e7e9e8b9670a05", "blockhash": "0000000000000000000e13cef7c366c0283d82e591d1acd082e914b08063cdf1", "vout": [{"scriptPubKey": {"reqSigs": 1, "hex": "a9143f8877a261a9cc6ad4c45bc6c45b2ebc85be667f87", "addresses": ["37UwyYYx4gUQiwfwqcrQhzccyn6hdtsrct"], "asm": "OP_HASH160 3f8877a261a9cc6ad4c45bc6c45b2ebc85be667f OP_EQUAL", "type": "scripthash"}, "value": 0.002, "n": 0}, {"scriptPubKey": {"reqSigs": 1, "hex": "a914b8a9a8ba8cf965b7df6b05afd948e53c351b2c0d87", "addresses": ["3JXRVxhrk2o9f4w3cQchBLwUeegJBj6BEp"], "asm": "OP_HASH160 b8a9a8ba8cf965b7df6b05afd948e53c351b2c0d OP_EQUAL", "type": "scripthash"}, "value": 2.92557303, "n": 1}], "hex": "01000000000101d5205d60f5428656667c31c216809a785a5d0a6eeeb5d71f4b48410a8ee71368000000002322002065d416c48a8072e0ac51c2d111eb194f009caef0332446c1bf2097316cf07fa9ffffffff02400d03000000000017a9143f8877a261a9cc6ad4c45bc6c45b2ebc85be667f87f71170110000000017a914b8a9a8ba8cf965b7df6b05afd948e53c351b2c0d8704004730440220701ded6fd66ea8294917ff41d2dcece1f75f78e555cd151d88ca4681cdc7674702206e07e6160fb834842eb98341edfb0a965f9c429c2ea522f600b7c2d2bfa5acf3014730440220606775702490898635eb994b00b6c1f45dc9cc06d7a8a32b9367db6594d9d76b022063a2f479c78c607c291737f7b396e830e4045eeb95f4e24fa0448a7b34fe1a420169522102f44abcf9e23c9a460da309ccca56c619c04eed3bde2c2cff5e7d78fbcd980b9c2103c9443cf3047bb6c2c82f1b0c44c36109cdc3d0d601d16d1189a1602bf8d1a0a02103bfe867059274412412e088af5572b92168c2ef495cfe6c9b7a753a009eb37c4853ae00000000", "vin": [{"txinwitness": ["", "30440220701ded6fd66ea8294917ff41d2dcece1f75f78e555cd151d88ca4681cdc7674702206e07e6160fb834842eb98341edfb0a965f9c429c2ea522f600b7c2d2bfa5acf301", "30440220606775702490898635eb994b00b6c1f45dc9cc06d7a8a32b9367db6594d9d76b022063a2f479c78c607c291737f7b396e830e4045eeb95f4e24fa0448a7b34fe1a4201", "522102f44abcf9e23c9a460da309ccca56c619c04eed3bde2c2cff5e7d78fbcd980b9c2103c9443cf3047bb6c2c82f1b0c44c36109cdc3d0d601d16d1189a1602bf8d1a0a02103bfe867059274412412e088af5572b92168c2ef495cfe6c9b7a753a009eb37c4853ae"], "sequence": 4294967295, "scriptSig": {"hex": "22002065d416c48a8072e0ac51c2d111eb194f009caef0332446c1bf2097316cf07fa9", "asm": "002065d416c48a8072e0ac51c2d111eb194f009caef0332446c1bf2097316cf07fa9"}, "vout": 0, "txid": "6813e78e0a41484b1fd7b5ee6e0a5d5a789a8016c2317c66568642f5605d20d5"}], "txid": "45cf090be11f6537d8a07c8f0994b489659e4ab6f9bfbdcc51c87985450f7cd8", "blocktime": 1537871767, "version": 1, "confirmations": 11491, "time": 1537871767, "locktime": 0, "vsize": 214, "size": 404}