{"hash": "45cf23f05a3516af74c6352610023ef17da5c44ef1ca2e3e2fe95b5b53bc1005", "blockhash": "000000000000000000022b45ed06c6f4ccd3cf7fb5ba4856ebd2e58215665228", "vout": [{"scriptPubKey": {"reqSigs": 1, "hex": "76a9147a7cf52b85a565cdc374fcba8b2a63644c99b82d88ac", "addresses": ["1CAf8cjsfnb8NsUzsiLpQqvMVD1W2s7CFV"], "asm": "OP_DUP OP_HASH160 7a7cf52b85a565cdc374fcba8b2a63644c99b82d OP_EQUALVERIFY OP_CHECKSIG", "type": "pubkeyhash"}, "value": 0.01084932, "n": 0}, {"scriptPubKey": {"reqSigs": 1, "hex": "a91494f36f000e80a4923364c9ebf348558f72cd2e8587", "addresses": ["3FGbYzoHKqa7sX2EbyBgHYNsKCzHzPfREW"], "asm": "OP_HASH160 94f36f000e80a4923364c9ebf348558f72cd2e85 OP_EQUAL", "type": "scripthash"}, "value": 0.14736, "n": 1}], "hex": "02000000040413d61b4fa03eea42b7203a8a16fe6920c908980caea3b07b8f186576c0a3cd010000006b483045022100fb2c87faddc899042da5523d67f5ff95fc16cef0f96f2490a2727f8d33e329c702206a25e296e3aae96dd908cdcbfc7008910eac79a16a359d3ae0bd2db0903802fe012102a4038204233303ef05c51c62d58e37a862b19afd9f054d08510abd9f1cd46ed3feffffff076befad393f86e0c6e3aeeb28ed1f7b5493739904d0c011e1a01037945b57b5000000006a473044022076e64e737186f8ba2bb04b26095cd9981a7f50f75fdc55c5b50ca27d2f6f5a13022011ef546935c72d74772a88c8194a320a01fd20066abf67d96a668c597604f50d01210392bdf9033f02053d785375e8b91f5257fa7cf7373b39de2f44d2801f3102dafcfeffffff2b4800264a0c488335d9d8141f500d8911cd91788e1fda9c5238c14bfe949730010000006a4730440220668b937184617c70a03e4d3a205e5edd930a7a2a7c8e86fbd5ba6b9b5affad45022063829a2a86bc07059764e80d210ae5f040a120b0d64284daf37f9555c5edcf14012103d96e1d562dbdb1ad8acf8732ff0ca619a6f81e2bd9eee8a222c933285efca4a9feffffffac5d0cd21b8a8075373dc8853a7cbd344021912542bf94002f56385bc39f2e31000000006b483045022100ca7214d3637412e37d40d93b748157b6a0aa0fb694951193be7ec80740589d5c0220303f792a32ecced8053c58aec933c0d343c10a9cdcbf4b7c66d6d5e1aab0e0db012103b90453f6d470be8fde0f19af2774394751e0d7bc84a9ef2c2a4649c11bd10b3bfeffffff02048e1000000000001976a9147a7cf52b85a565cdc374fcba8b2a63644c99b82d88ac80dae0000000000017a91494f36f000e80a4923364c9ebf348558f72cd2e85870b490800", "vin": [{"sequence": 4294967294, "scriptSig": {"hex": "483045022100fb2c87faddc899042da5523d67f5ff95fc16cef0f96f2490a2727f8d33e329c702206a25e296e3aae96dd908cdcbfc7008910eac79a16a359d3ae0bd2db0903802fe012102a4038204233303ef05c51c62d58e37a862b19afd9f054d08510abd9f1cd46ed3", "asm": "3045022100fb2c87faddc899042da5523d67f5ff95fc16cef0f96f2490a2727f8d33e329c702206a25e296e3aae96dd908cdcbfc7008910eac79a16a359d3ae0bd2db0903802fe[ALL] 02a4038204233303ef05c51c62d58e37a862b19afd9f054d08510abd9f1cd46ed3"}, "vout": 1, "txid": "cda3c07665188f7bb0a3ae0c9808c92069fe168a3a20b742ea3ea04f1bd61304"}, {"sequence": 4294967294, "scriptSig": {"hex": "473044022076e64e737186f8ba2bb04b26095cd9981a7f50f75fdc55c5b50ca27d2f6f5a13022011ef546935c72d74772a88c8194a320a01fd20066abf67d96a668c597604f50d01210392bdf9033f02053d785375e8b91f5257fa7cf7373b39de2f44d2801f3102dafc", "asm": "3044022076e64e737186f8ba2bb04b26095cd9981a7f50f75fdc55c5b50ca27d2f6f5a13022011ef546935c72d74772a88c8194a320a01fd20066abf67d96a668c597604f50d[ALL] 0392bdf9033f02053d785375e8b91f5257fa7cf7373b39de2f44d2801f3102dafc"}, "vout": 0, "txid": "b5575b943710a0e111c0d004997393547b1fed28ebaee3c6e0863f39adef6b07"}, {"sequence": 4294967294, "scriptSig": {"hex": "4730440220668b937184617c70a03e4d3a205e5edd930a7a2a7c8e86fbd5ba6b9b5affad45022063829a2a86bc07059764e80d210ae5f040a120b0d64284daf37f9555c5edcf14012103d96e1d562dbdb1ad8acf8732ff0ca619a6f81e2bd9eee8a222c933285efca4a9", "asm": "30440220668b937184617c70a03e4d3a205e5edd930a7a2a7c8e86fbd5ba6b9b5affad45022063829a2a86bc07059764e80d210ae5f040a120b0d64284daf37f9555c5edcf14[ALL] 03d96e1d562dbdb1ad8acf8732ff0ca619a6f81e2bd9eee8a222c933285efca4a9"}, "vout": 1, "txid": "309794fe4bc138529cda1f8e7891cd11890d501f14d8d93583480c4a2600482b"}, {"sequence": 4294967294, "scriptSig": {"hex": "483045022100ca7214d3637412e37d40d93b748157b6a0aa0fb694951193be7ec80740589d5c0220303f792a32ecced8053c58aec933c0d343c10a9cdcbf4b7c66d6d5e1aab0e0db012103b90453f6d470be8fde0f19af2774394751e0d7bc84a9ef2c2a4649c11bd10b3b", "asm": "3045022100ca7214d3637412e37d40d93b748157b6a0aa0fb694951193be7ec80740589d5c0220303f792a32ecced8053c58aec933c0d343c10a9cdcbf4b7c66d6d5e1aab0e0db[ALL] 03b90453f6d470be8fde0f19af2774394751e0d7bc84a9ef2c2a4649c11bd10b3b"}, "vout": 0, "txid": "312e9fc35b38562f0094bf422591214034bd7c3a85c83d3775808a1bd20c5dac"}], "txid": "45cf23f05a3516af74c6352610023ef17da5c44ef1ca2e3e2fe95b5b53bc1005", "blocktime": 1537869901, "version": 2, "confirmations": 11524, "time": 1537869901, "locktime": 542987, "vsize": 666, "size": 666}