{"hash": "45d52b0520b5cb219768542b373f3908e1550cf75e2e80dc7d55de2129f74c2c", "blockhash": "0000000000000000000e13cef7c366c0283d82e591d1acd082e914b08063cdf1", "vout": [{"scriptPubKey": {"reqSigs": 1, "hex": "76a9146de31afc56cb5c5e0fa39af0f50f203ec15fc24388ac", "addresses": ["1B22iUGsyih3T8hoFz45GzTdu61W9P2hSr"], "asm": "OP_DUP OP_HASH160 6de31afc56cb5c5e0fa39af0f50f203ec15fc243 OP_EQUALVERIFY OP_CHECKSIG", "type": "pubkeyhash"}, "value": 0.02414138, "n": 0}], "hex": "0100000002ddd0c21103374a382723daaa639d72f023ef903201ae43f4ae87e64765772440010000006a47304402200d0a43d9d6b2e201a9811ade8ef78fcedd61fdce82d67960f1861b8792a7abed022021cd027369461b47ce7b33a16303f1d0d3131f38d510b98925edf4d27d9744ee012103facea11206c3a8f4be0a500b17186dcc7abfc7ca2bd9958ddeea48935ded2b23ffffffff0eab998d8c8a6ad48c9318e28570deb4d89aa11ed9b7db88d006111bc6e32ac6010000006a473044022016149353731ae1534e8c4df82c6b55e47b12090a96b0f0a26f9b24721543eb8e022003f4b2501acd7f9389ca878cd4548b232d292e422b8831bb0c8863cc488a6cac012103facea11206c3a8f4be0a500b17186dcc7abfc7ca2bd9958ddeea48935ded2b23ffffffff013ad62400000000001976a9146de31afc56cb5c5e0fa39af0f50f203ec15fc24388ac00000000", "vin": [{"sequence": 4294967295, "scriptSig": {"hex": "47304402200d0a43d9d6b2e201a9811ade8ef78fcedd61fdce82d67960f1861b8792a7abed022021cd027369461b47ce7b33a16303f1d0d3131f38d510b98925edf4d27d9744ee012103facea11206c3a8f4be0a500b17186dcc7abfc7ca2bd9958ddeea48935ded2b23", "asm": "304402200d0a43d9d6b2e201a9811ade8ef78fcedd61fdce82d67960f1861b8792a7abed022021cd027369461b47ce7b33a16303f1d0d3131f38d510b98925edf4d27d9744ee[ALL] 03facea11206c3a8f4be0a500b17186dcc7abfc7ca2bd9958ddeea48935ded2b23"}, "vout": 1, "txid": "4024776547e687aef443ae013290ef23f0729d63aada2327384a370311c2d0dd"}, {"sequence": 4294967295, "scriptSig": {"hex": "473044022016149353731ae1534e8c4df82c6b55e47b12090a96b0f0a26f9b24721543eb8e022003f4b2501acd7f9389ca878cd4548b232d292e422b8831bb0c8863cc488a6cac012103facea11206c3a8f4be0a500b17186dcc7abfc7ca2bd9958ddeea48935ded2b23", "asm": "3044022016149353731ae1534e8c4df82c6b55e47b12090a96b0f0a26f9b24721543eb8e022003f4b2501acd7f9389ca878cd4548b232d292e422b8831bb0c8863cc488a6cac[ALL] 03facea11206c3a8f4be0a500b17186dcc7abfc7ca2bd9958ddeea48935ded2b23"}, "vout": 1, "txid": "c62ae3c61b1106d088dbb7d91ea19ad8b4de7085e218938cd46a8a8c8d99ab0e"}], "txid": "45d52b0520b5cb219768542b373f3908e1550cf75e2e80dc7d55de2129f74c2c", "blocktime": 1537871767, "version": 1, "confirmations": 11491, "time": 1537871767, "locktime": 0, "vsize": 338, "size": 338}