{"hash": "b4b8299be94bee7045852ce534dd61fd1b4f117e5096751f67cdfe57719a9b20", "blockhash": "0000000000000000001f76057863aec43deb6fa401d9628bb513d65a8098bfab", "vout": [{"scriptPubKey": {"reqSigs": 1, "hex": "76a9149a1b8f9b1fa2d2297863adb1cb11c71df455684888ac", "addresses": ["1F3r5We2zwNiSzG6GQUTTWnnPMCz2HJbJu"], "asm": "OP_DUP OP_HASH160 9a1b8f9b1fa2d2297863adb1cb11c71df4556848 OP_EQUALVERIFY OP_CHECKSIG", "type": "pubkeyhash"}, "value": 2.699e-05, "n": 0}, {"scriptPubKey": {"reqSigs": 1, "hex": "a914e8db75c900cf08f06518e96d167331f2a4abfb3387", "addresses": ["3NvFbQMAkkqEFj4i1sYPPLkSWzxTFUchjA"], "asm": "OP_HASH160 e8db75c900cf08f06518e96d167331f2a4abfb33 OP_EQUAL", "type": "scripthash"}, "value": 0.00012656, "n": 1}], "hex": "01000000000101f2dbd17c1aad095c0961cf2a5b7ded84787e868b2b36733b2f9e3299013ce7670100000023220020941cfaff8837763dc1f69ff82b6d6553fdea17a41cfc29a04403293eedd8ccc7ffffffff028b0a0000000000001976a9149a1b8f9b1fa2d2297863adb1cb11c71df455684888ac703100000000000017a914e8db75c900cf08f06518e96d167331f2a4abfb3387040048304502210081bbc9ea9fcbde1c1618c982203bd0255470d6eb2d4dbfbddd008d430983f9be0220136ab754d3a942cb0feb439793f3eaa8b10e051053ae0292682cf2aaa26e1aaa0147304402200ee1b2c7717207e580b71130882ae5208cabe1441f4aaedba13c4583f469af8b022042742b0c7cf517dbe060f209c5b78efb9964278610fbdcadfcf9a95ecea286fb0147522102531db3a5883f29bab4241dd0cd726936667bcda445d89bdd22244e828b6993342103148c80a5bdfddb05ff5bcffc397c8ca748d8b435ec6a175bc9d7bfc7fc6f853752ae00000000", "vin": [{"txinwitness": ["", "304502210081bbc9ea9fcbde1c1618c982203bd0255470d6eb2d4dbfbddd008d430983f9be0220136ab754d3a942cb0feb439793f3eaa8b10e051053ae0292682cf2aaa26e1aaa01", "304402200ee1b2c7717207e580b71130882ae5208cabe1441f4aaedba13c4583f469af8b022042742b0c7cf517dbe060f209c5b78efb9964278610fbdcadfcf9a95ecea286fb01", "522102531db3a5883f29bab4241dd0cd726936667bcda445d89bdd22244e828b6993342103148c80a5bdfddb05ff5bcffc397c8ca748d8b435ec6a175bc9d7bfc7fc6f853752ae"], "sequence": 4294967295, "scriptSig": {"hex": "220020941cfaff8837763dc1f69ff82b6d6553fdea17a41cfc29a04403293eedd8ccc7", "asm": "0020941cfaff8837763dc1f69ff82b6d6553fdea17a41cfc29a04403293eedd8ccc7"}, "vout": 1, "txid": "67e73c0199329e2f3b73362b8b867e7884ed7d5b2acf61095c09ad1a7cd1dbf2"}], "txid": "45dc992d68f308f88bf08df9f3c3e14e855631410068d4fb4ee367aac7ab71b8", "blocktime": 1537873891, "version": 1, "confirmations": 11478, "time": 1537873891, "locktime": 0, "vsize": 208, "size": 373}