{"hash": "45e0e33ecbd9e1da90cf7e4da6a86a6126ef3b973536a03a464997d4bacbd3b4", "blockhash": "0000000000000000001cda96e906b7601b7a6fb1a3b62bca570a9e5d8f4b3de1", "vout": [{"scriptPubKey": {"reqSigs": 1, "hex": "76a9141787c687cd7bf69d92268696683184006737168c88ac", "addresses": ["139RCG5JQnB8C6u5BrPMDbr3MFGGtdJbs4"], "asm": "OP_DUP OP_HASH160 1787c687cd7bf69d92268696683184006737168c OP_EQUALVERIFY OP_CHECKSIG", "type": "pubkeyhash"}, "value": 0.0019, "n": 0}, {"scriptPubKey": {"reqSigs": 1, "hex": "76a914505242b233a875a3953fb5d7aa4f980c7478743288ac", "addresses": ["18KhbugmQxR1qnYo744fhqW3CT9pV2i3nz"], "asm": "OP_DUP OP_HASH160 505242b233a875a3953fb5d7aa4f980c74787432 OP_EQUALVERIFY OP_CHECKSIG", "type": "pubkeyhash"}, "value": 0.0095879, "n": 1}], "hex": "0100000001472dfa3b0c5967c43721a453c2ce91ba22bce4fe30d94e04b24abc46897a3888000000006a4730440220439f46b79fb288593bac15905d45461fbe23202063cca5b299c382c6ed8588ae0220280d610d76554ef164dca57ca4e32391f0c57e0db3efd7a9e6bf68d7211b77540121029313076d234dd81405c73e6e7c1fad66b2e56f94a4d7f8727a8968abbaf27d3bffffffff0230e60200000000001976a9141787c687cd7bf69d92268696683184006737168c88ac46a10e00000000001976a914505242b233a875a3953fb5d7aa4f980c7478743288ac00000000", "vin": [{"sequence": 4294967295, "scriptSig": {"hex": "4730440220439f46b79fb288593bac15905d45461fbe23202063cca5b299c382c6ed8588ae0220280d610d76554ef164dca57ca4e32391f0c57e0db3efd7a9e6bf68d7211b77540121029313076d234dd81405c73e6e7c1fad66b2e56f94a4d7f8727a8968abbaf27d3b", "asm": "30440220439f46b79fb288593bac15905d45461fbe23202063cca5b299c382c6ed8588ae0220280d610d76554ef164dca57ca4e32391f0c57e0db3efd7a9e6bf68d7211b7754[ALL] 029313076d234dd81405c73e6e7c1fad66b2e56f94a4d7f8727a8968abbaf27d3b"}, "vout": 0, "txid": "88387a8946bc4ab2044ed930fee4bc22ba91cec253a42137c467590c3bfa2d47"}], "txid": "45e0e33ecbd9e1da90cf7e4da6a86a6126ef3b973536a03a464997d4bacbd3b4", "blocktime": 1537873282, "version": 1, "confirmations": 11482, "time": 1537873282, "locktime": 0, "vsize": 225, "size": 225}