{"hash": "45e2d82c8d03eee05d3e7eb4e37ab5c580f2983d9d168464257b81e2c1f710dc", "blockhash": "0000000000000000000e13cef7c366c0283d82e591d1acd082e914b08063cdf1", "vout": [{"scriptPubKey": {"reqSigs": 1, "hex": "76a914da514a178c7364c548ed5d39e64818f0802376c588ac", "addresses": ["1LuMgucQh3AhWta6c7VhbGFgXZvf8U7s2V"], "asm": "OP_DUP OP_HASH160 da514a178c7364c548ed5d39e64818f0802376c5 OP_EQUALVERIFY OP_CHECKSIG", "type": "pubkeyhash"}, "value": 0.00500467, "n": 0}, {"scriptPubKey": {"reqSigs": 1, "hex": "76a9144fdf497d1f563e4e800d41f7e5c8447c0762211188ac", "addresses": ["18HKsQtcegShaqj7C9EffkmDPsvjmsPXQr"], "asm": "OP_DUP OP_HASH160 4fdf497d1f563e4e800d41f7e5c8447c07622111 OP_EQUALVERIFY OP_CHECKSIG", "type": "pubkeyhash"}, "value": 0.09599499, "n": 1}], "hex": "0100000001595550e64f5c6ba92c775c22a6f5308a3af9d0a0b8243357a97b5cf08cf51663010000006a4730440220480093952bb19c534864cfffcce03da02216459238defe6b0427be6e465987fb022078a28a34183e96a2c3da682083f8479821203d01f523fc55e74282a8130821290121031da6d6bf0a145b94fb46fc0a0f2965d1d185057c25d3671e9df83e115d340502ffffffff02f3a20700000000001976a914da514a178c7364c548ed5d39e64818f0802376c588ac0b7a9200000000001976a9144fdf497d1f563e4e800d41f7e5c8447c0762211188ac00000000", "vin": [{"sequence": 4294967295, "scriptSig": {"hex": "4730440220480093952bb19c534864cfffcce03da02216459238defe6b0427be6e465987fb022078a28a34183e96a2c3da682083f8479821203d01f523fc55e74282a8130821290121031da6d6bf0a145b94fb46fc0a0f2965d1d185057c25d3671e9df83e115d340502", "asm": "30440220480093952bb19c534864cfffcce03da02216459238defe6b0427be6e465987fb022078a28a34183e96a2c3da682083f8479821203d01f523fc55e74282a813082129[ALL] 031da6d6bf0a145b94fb46fc0a0f2965d1d185057c25d3671e9df83e115d340502"}, "vout": 1, "txid": "6316f58cf05c7ba9573324b8a0d0f93a8a30f5a6225c772ca96b5c4fe6505559"}], "txid": "45e2d82c8d03eee05d3e7eb4e37ab5c580f2983d9d168464257b81e2c1f710dc", "blocktime": 1537871767, "version": 1, "confirmations": 11495, "time": 1537871767, "locktime": 0, "vsize": 225, "size": 225}