{"hash": "f03ade438c087e5af321b7e581ae330de3aebd9d79efc6de5286cb3c1136de7d", "blockhash": "00000000000000000018f53835495a110e01622372bf6ae95dc86f2b0ab887b0", "vout": [{"scriptPubKey": {"reqSigs": 1, "hex": "0014412912615059789257f24b9c2d21ebe6705a69b9", "addresses": ["bc1qgy53yc2st9ufy4ljfwwz6g0tuec956def889eu"], "asm": "0 412912615059789257f24b9c2d21ebe6705a69b9", "type": "witness_v0_keyhash"}, "value": 0.00028902, "n": 0}, {"scriptPubKey": {"reqSigs": 1, "hex": "76a914393f77ccaf72e03e2d4becc6ad1f46e3193a305c88ac", "addresses": ["16DhYmRnyDeEJ9NhFpUbLEsgc4ENarGdZ6"], "asm": "OP_DUP OP_HASH160 393f77ccaf72e03e2d4becc6ad1f46e3193a305c OP_EQUALVERIFY OP_CHECKSIG", "type": "pubkeyhash"}, "value": 0.00156, "n": 1}], "hex": "01000000000101af02441a9b3d701de70805c56ea3d78749842b7e2b4893e3efeacda2e6ff035f0100000000ffffffff02e670000000000000160014412912615059789257f24b9c2d21ebe6705a69b960610200000000001976a914393f77ccaf72e03e2d4becc6ad1f46e3193a305c88ac02483045022100c7682c4bc17063866801fc583a90558629557bbdf7027670b69186a282a6943a02205028347e0f7732713e9e387d510c3cf1436d79027b8d55998e2ba700eafe1ada012102e109e06680bb27bf328fc729719b6cdd63307cea793d4c9a8fc44209442bef8700000000", "vin": [{"txinwitness": ["3045022100c7682c4bc17063866801fc583a90558629557bbdf7027670b69186a282a6943a02205028347e0f7732713e9e387d510c3cf1436d79027b8d55998e2ba700eafe1ada01", "02e109e06680bb27bf328fc729719b6cdd63307cea793d4c9a8fc44209442bef87"], "sequence": 4294967295, "scriptSig": {"hex": "", "asm": ""}, "vout": 1, "txid": "5f03ffe6a2cdeaefe393482b7e2b844987d7a36ec50508e71d703d9b1a4402af"}], "txid": "45e9bffe4983ea3e764364d50fc0077e9ba4cc615bf64f54e145cfa21f191f58", "blocktime": 1537870928, "version": 1, "confirmations": 11514, "time": 1537870928, "locktime": 0, "vsize": 144, "size": 226}