{"hash": "45ea83ad071167ee936b806052aa6e9c7ae06d2c08954d7d5e54b9dad89c719f", "blockhash": "00000000000000000004ffacab907a6b429b9a5745fa0b75af4234bf69dd7176", "vout": [{"scriptPubKey": {"reqSigs": 1, "hex": "76a9145d1e23d2f96856efb9ec0647baeb1da7046cf70a88ac", "addresses": ["19VMwzzSACG1phqB6Bt5u1jBHAM2FXAMpi"], "asm": "OP_DUP OP_HASH160 5d1e23d2f96856efb9ec0647baeb1da7046cf70a OP_EQUALVERIFY OP_CHECKSIG", "type": "pubkeyhash"}, "value": 0.00473305, "n": 0}], "hex": "01000000018b0773659d28c2d99898af7bd5749056cce63cb1562a0f048e672b4b2305ccf6010000008b483045022100d59485f7f53ed0a10efd2c2704fa307b1bfa4b649d663db55f99d8d62379e832022048171e39f3a799084cfd9805afdc29aab21d664b4866bc4df1e63e1eadbde6b1014104a44a006aae319d431bb0b4ace20ca8d6732f3a350ef230fdd25e0d8f096c1dbadd97cf94f56521840407c847fbae98e8f3101f48ba26992c64251042281c0312ffffffff01d9380700000000001976a9145d1e23d2f96856efb9ec0647baeb1da7046cf70a88ac00000000", "vin": [{"sequence": 4294967295, "scriptSig": {"hex": "483045022100d59485f7f53ed0a10efd2c2704fa307b1bfa4b649d663db55f99d8d62379e832022048171e39f3a799084cfd9805afdc29aab21d664b4866bc4df1e63e1eadbde6b1014104a44a006aae319d431bb0b4ace20ca8d6732f3a350ef230fdd25e0d8f096c1dbadd97cf94f56521840407c847fbae98e8f3101f48ba26992c64251042281c0312", "asm": "3045022100d59485f7f53ed0a10efd2c2704fa307b1bfa4b649d663db55f99d8d62379e832022048171e39f3a799084cfd9805afdc29aab21d664b4866bc4df1e63e1eadbde6b1[ALL] 04a44a006aae319d431bb0b4ace20ca8d6732f3a350ef230fdd25e0d8f096c1dbadd97cf94f56521840407c847fbae98e8f3101f48ba26992c64251042281c0312"}, "vout": 1, "txid": "f6cc05234b2b678e040f2a56b13ce6cc569074d57baf9898d9c2289d6573078b"}], "txid": "45ea83ad071167ee936b806052aa6e9c7ae06d2c08954d7d5e54b9dad89c719f", "blocktime": 1537875543, "version": 1, "confirmations": 11464, "time": 1537875543, "locktime": 0, "vsize": 224, "size": 224}