{"hash": "45f49b2d4e0b58d0c2c20395f311a4f9ba6c791576876a51fd2c13f2c95a354f", "blockhash": "0000000000000000001f76057863aec43deb6fa401d9628bb513d65a8098bfab", "vout": [{"scriptPubKey": {"reqSigs": 1, "hex": "76a914e883e191105bec5f66a8180d41a41cb9f50d645188ac", "addresses": ["1NCRkmQ9J8EP5Uaf2nVAnRN8Tsr7WjPUBf"], "asm": "OP_DUP OP_HASH160 e883e191105bec5f66a8180d41a41cb9f50d6451 OP_EQUALVERIFY OP_CHECKSIG", "type": "pubkeyhash"}, "value": 0.018348, "n": 0}, {"scriptPubKey": {"reqSigs": 1, "hex": "76a9142ef11f32717bb1e1d8df7eb0bc32540d0e18be8d88ac", "addresses": ["15HCwGNPhdb3YUmcPDYy4mM5zCV1kT8uzv"], "asm": "OP_DUP OP_HASH160 2ef11f32717bb1e1d8df7eb0bc32540d0e18be8d OP_EQUALVERIFY OP_CHECKSIG", "type": "pubkeyhash"}, "value": 0.03658615, "n": 1}], "hex": "010000000138ac1194a0ece5559e472ddeaf31962f3460f5fbe5ab8aa126ca631f07399cc7010000006b483045022100bec7c890d58dc0724e5c81dadf4cef3aed3c2a7807cb7730bceb14e83d8cff1e0220746ed344a604d5a4717c895ae3c78a05ed08e6ad7df591994cd7b47507891200012103cd6c7ea0c1da28ee4232c5bf7e1eaa440b53276d056f4e18338cca1bcb5efd7bffffffff0230ff1b00000000001976a914e883e191105bec5f66a8180d41a41cb9f50d645188ac77d33700000000001976a9142ef11f32717bb1e1d8df7eb0bc32540d0e18be8d88ac00000000", "vin": [{"sequence": 4294967295, "scriptSig": {"hex": "483045022100bec7c890d58dc0724e5c81dadf4cef3aed3c2a7807cb7730bceb14e83d8cff1e0220746ed344a604d5a4717c895ae3c78a05ed08e6ad7df591994cd7b47507891200012103cd6c7ea0c1da28ee4232c5bf7e1eaa440b53276d056f4e18338cca1bcb5efd7b", "asm": "3045022100bec7c890d58dc0724e5c81dadf4cef3aed3c2a7807cb7730bceb14e83d8cff1e0220746ed344a604d5a4717c895ae3c78a05ed08e6ad7df591994cd7b47507891200[ALL] 03cd6c7ea0c1da28ee4232c5bf7e1eaa440b53276d056f4e18338cca1bcb5efd7b"}, "vout": 1, "txid": "c79c39071f63ca26a18aabe5fbf560342f9631afde2d479e55e5eca09411ac38"}], "txid": "45f49b2d4e0b58d0c2c20395f311a4f9ba6c791576876a51fd2c13f2c95a354f", "blocktime": 1537873891, "version": 1, "confirmations": 11475, "time": 1537873891, "locktime": 0, "vsize": 226, "size": 226}