{"hash": "45f5ee6fbbd57d036c45bff26e4d8bd2fe10069be70b8e8933a1bc7cfbf57971", "blockhash": "00000000000000000004ffacab907a6b429b9a5745fa0b75af4234bf69dd7176", "vout": [{"scriptPubKey": {"type": "nulldata", "hex": "6a146f6d6e69000000000000001f000000053588e340", "asm": "OP_RETURN 6f6d6e69000000000000001f000000053588e340"}, "value": 0.0, "n": 0}, {"scriptPubKey": {"reqSigs": 1, "hex": "76a914a25dec4d0011064ef106a983c39c7a540699f22088ac", "addresses": ["1FoWyxwPXuj4C6abqwhjDWdz6D4PZgYRjA"], "asm": "OP_DUP OP_HASH160 a25dec4d0011064ef106a983c39c7a540699f220 OP_EQUALVERIFY OP_CHECKSIG", "type": "pubkeyhash"}, "value": 0.01995243, "n": 1}, {"scriptPubKey": {"reqSigs": 1, "hex": "a9143c73e4503523ad938f070f210b058ce25a93c4f387", "addresses": ["37CfJMrez3EGyQgGnxvUPqfcPTw2ssd8Ba"], "asm": "OP_HASH160 3c73e4503523ad938f070f210b058ce25a93c4f3 OP_EQUAL", "type": "scripthash"}, "value": 5.4e-06, "n": 2}], "hex": "0100000001a44813c76173a4fe9689194c29809e35be05f1741d9b5e1e9e8bd44070ac1fea8e0000006a47304402203091467547e39b12d3dad7989f5e9495074fe0b171dbd5fbb7ab6f8269c5c9a402203a4d15f654646c6d2f3e9279b68614a74d7c6d449cfeae62e132cbe268925f47012103da5bac7b36d5aa38f531c6b9601e21bb598a4b6716ebed38b009a55dabde9440feffffff030000000000000000166a146f6d6e69000000000000001f000000053588e340eb711e00000000001976a914a25dec4d0011064ef106a983c39c7a540699f22088ac1c0200000000000017a9143c73e4503523ad938f070f210b058ce25a93c4f387fd480800", "vin": [{"sequence": 4294967294, "scriptSig": {"hex": "47304402203091467547e39b12d3dad7989f5e9495074fe0b171dbd5fbb7ab6f8269c5c9a402203a4d15f654646c6d2f3e9279b68614a74d7c6d449cfeae62e132cbe268925f47012103da5bac7b36d5aa38f531c6b9601e21bb598a4b6716ebed38b009a55dabde9440", "asm": "304402203091467547e39b12d3dad7989f5e9495074fe0b171dbd5fbb7ab6f8269c5c9a402203a4d15f654646c6d2f3e9279b68614a74d7c6d449cfeae62e132cbe268925f47[ALL] 03da5bac7b36d5aa38f531c6b9601e21bb598a4b6716ebed38b009a55dabde9440"}, "vout": 142, "txid": "ea1fac7040d48b9e1e5e9b1d74f105be359e80294c198996fea47361c71348a4"}], "txid": "45f5ee6fbbd57d036c45bff26e4d8bd2fe10069be70b8e8933a1bc7cfbf57971", "blocktime": 1537875543, "version": 1, "confirmations": 11464, "time": 1537875543, "locktime": 542973, "vsize": 254, "size": 254}