{"hash": "c87c0a43ed53212ae23a2c8680ad59462e0e8b327330d292e3c5f023ce851576", "blockhash": "00000000000000000017f5eb5941039fbcee6240d03bc1f2f8e35350df66a1d8", "vout": [{"scriptPubKey": {"reqSigs": 1, "hex": "a91490e99e8d26d05ead3c05430c292a887bbff695f587", "addresses": ["3EuF6KjJawxTiUsea3Sc8hsLUGmVEf7Xg5"], "asm": "OP_HASH160 90e99e8d26d05ead3c05430c292a887bbff695f5 OP_EQUAL", "type": "scripthash"}, "value": 0.00127516, "n": 0}, {"scriptPubKey": {"type": "nulldata", "hex": "6a146f6d6e69000000000000001f0000000005f5e100", "asm": "OP_RETURN 6f6d6e69000000000000001f0000000005f5e100"}, "value": 0.0, "n": 1}, {"scriptPubKey": {"reqSigs": 1, "hex": "a91490e99e8d26d05ead3c05430c292a887bbff695f587", "addresses": ["3EuF6KjJawxTiUsea3Sc8hsLUGmVEf7Xg5"], "asm": "OP_HASH160 90e99e8d26d05ead3c05430c292a887bbff695f5 OP_EQUAL", "type": "scripthash"}, "value": 5.4e-06, "n": 2}], "hex": "010000000001025be5611dbbd26b498cfc34c662e7a7e04bdadb654602a14eee734f13128bf06d0000000017160014f6e1792e7852ebd5ae795c2a25d579acdfadec2dffffffff5be5611dbbd26b498cfc34c662e7a7e04bdadb654602a14eee734f13128bf06d0200000017160014f6e1792e7852ebd5ae795c2a25d579acdfadec2dffffffff031cf201000000000017a91490e99e8d26d05ead3c05430c292a887bbff695f5870000000000000000166a146f6d6e69000000000000001f0000000005f5e1001c0200000000000017a91490e99e8d26d05ead3c05430c292a887bbff695f587024830450221008fa32dc2a0136ea574986c05f2c14790ce3dfb4e74a7d2dc6f3d51d19b0d990902201a09cc6e8ffa53d27f969c231962a101d4053ca6ef73378a9f212a5bbd051454012103f1cf988013a33e053d1e9bd54c4798c1a6dc362a5b2798b5344049fca40e2db00247304402200e31164b79e11779cfb96a819c88e5075af0c8dd1b201f5f223e7d005de65a59022048bb3899bdbaefa365fa617752908a471772bc7f52a881d5a34b8ca379e54a60012103f1cf988013a33e053d1e9bd54c4798c1a6dc362a5b2798b5344049fca40e2db000000000", "vin": [{"txinwitness": ["30450221008fa32dc2a0136ea574986c05f2c14790ce3dfb4e74a7d2dc6f3d51d19b0d990902201a09cc6e8ffa53d27f969c231962a101d4053ca6ef73378a9f212a5bbd05145401", "03f1cf988013a33e053d1e9bd54c4798c1a6dc362a5b2798b5344049fca40e2db0"], "sequence": 4294967295, "scriptSig": {"hex": "160014f6e1792e7852ebd5ae795c2a25d579acdfadec2d", "asm": "0014f6e1792e7852ebd5ae795c2a25d579acdfadec2d"}, "vout": 0, "txid": "6df08b12134f73ee4ea1024665dbda4be0a7e762c634fc8c496bd2bb1d61e55b"}, {"txinwitness": ["304402200e31164b79e11779cfb96a819c88e5075af0c8dd1b201f5f223e7d005de65a59022048bb3899bdbaefa365fa617752908a471772bc7f52a881d5a34b8ca379e54a6001", "03f1cf988013a33e053d1e9bd54c4798c1a6dc362a5b2798b5344049fca40e2db0"], "sequence": 4294967295, "scriptSig": {"hex": "160014f6e1792e7852ebd5ae795c2a25d579acdfadec2d", "asm": "0014f6e1792e7852ebd5ae795c2a25d579acdfadec2d"}, "vout": 2, "txid": "6df08b12134f73ee4ea1024665dbda4be0a7e762c634fc8c496bd2bb1d61e55b"}], "txid": "45faeb56ad3af1a4df68443db14c54fe3688b6c2387a969bd5e37c79c090c590", "blocktime": 1537874412, "version": 1, "confirmations": 11467, "time": 1537874412, "locktime": 0, "vsize": 288, "size": 450}