{"hash": "4a6333fd208174bbcc3328d872456a957834e856f4adc40234eec2b3126b0d8a", "blockhash": "0000000000000000000dcc0f55137456b1a82d3642486a52398922ac4d620174", "vout": [{"scriptPubKey": {"reqSigs": 1, "hex": "00143c0d267a46ce7315c7a2a86eb6e9a29914f5deb7", "addresses": ["bc1q8sxjv7jxeee3t3az4phtd6dzny20th4happvzt"], "asm": "0 3c0d267a46ce7315c7a2a86eb6e9a29914f5deb7", "type": "witness_v0_keyhash"}, "value": 1.127e-05, "n": 0}, {"scriptPubKey": {"reqSigs": 1, "hex": "76a914a8f01b31ca40722a0f6a47a9efdae485a0b0ad9488ac", "addresses": ["1GQGA6qspkR2TSJdwEHqL9jZcdkfGJgbRm"], "asm": "OP_DUP OP_HASH160 a8f01b31ca40722a0f6a47a9efdae485a0b0ad94 OP_EQUALVERIFY OP_CHECKSIG", "type": "pubkeyhash"}, "value": 0.00055998, "n": 1}], "hex": "01000000000101dec972e99ffdc1919c0e3caeff60912951e06ee7ae4309e4fbf050f78b47fa7a0000000000ffffffff0267040000000000001600143c0d267a46ce7315c7a2a86eb6e9a29914f5deb7beda0000000000001976a914a8f01b31ca40722a0f6a47a9efdae485a0b0ad9488ac02483045022100f7cccf31ce6b2fbb1fa6e4b1d458b22c6d8c1acc12d678844d07d19ef295f6c402207175497ee3d8686a2c6db473acb49004888274ab5eda4445cbb799c1fc94f5f9012103753953ca3ce90dc76c182d5fe58fa8a0c42d67ca3560326b86d7acf925d72c2a00000000", "vin": [{"txinwitness": ["3045022100f7cccf31ce6b2fbb1fa6e4b1d458b22c6d8c1acc12d678844d07d19ef295f6c402207175497ee3d8686a2c6db473acb49004888274ab5eda4445cbb799c1fc94f5f901", "03753953ca3ce90dc76c182d5fe58fa8a0c42d67ca3560326b86d7acf925d72c2a"], "sequence": 4294967295, "scriptSig": {"hex": "", "asm": ""}, "vout": 0, "txid": "7afa478bf750f0fbe40943aee76ee051299160ffae3c0e9c91c1fd9fe972c9de"}], "txid": "4608a94326a88c0299872ae15a20e5338e0ff4c51e11933faf1488157e90d09f", "blocktime": 1537870268, "version": 1, "confirmations": 11518, "time": 1537870268, "locktime": 0, "vsize": 144, "size": 226}