{"hash": "f0f63ff14eb0f59510bf60489e3fa21cf2f7d85a030a535cb1420bccf37fb98d", "blockhash": "00000000000000000017f5eb5941039fbcee6240d03bc1f2f8e35350df66a1d8", "vout": [{"scriptPubKey": {"reqSigs": 1, "hex": "001477cee13b495cb991ef4920db0677ca3750c889eb", "addresses": ["bc1qwl8wzw6ftjuerm6fyrdsva72xagv3z0t2hksdh"], "asm": "0 77cee13b495cb991ef4920db0677ca3750c889eb", "type": "witness_v0_keyhash"}, "value": 0.00035434, "n": 0}, {"scriptPubKey": {"reqSigs": 1, "hex": "76a9143b3de925e52f41ee2e53231d8172f1816e0de9e688ac", "addresses": ["16QF2xAyFDBXJyjiaExj9d1j1F3wkyAU6m"], "asm": "OP_DUP OP_HASH160 3b3de925e52f41ee2e53231d8172f1816e0de9e6 OP_EQUALVERIFY OP_CHECKSIG", "type": "pubkeyhash"}, "value": 0.00932866, "n": 1}], "hex": "0100000000010164770c72a17c4fae278a88dda3184f118d2a6b47eb24f24ff60c0a2234f0481208000000171600141043025a1d74007f03f583899d01b8b35fbf9b22ffffffff026a8a00000000000016001477cee13b495cb991ef4920db0677ca3750c889eb023c0e00000000001976a9143b3de925e52f41ee2e53231d8172f1816e0de9e688ac02473044022031a61167a26d07a74513dc4d3522e8e39c111f27a57663fd8004bf151fc4aa4e02207476d5a88d37c27dbad15a673d2fb3d295255e7f65bb531c971195ab2e0b6a06012103a2994f755f2f34f8d68da51e0501a4978220f197b2970cad1fc9dc494e281c0f00000000", "vin": [{"txinwitness": ["3044022031a61167a26d07a74513dc4d3522e8e39c111f27a57663fd8004bf151fc4aa4e02207476d5a88d37c27dbad15a673d2fb3d295255e7f65bb531c971195ab2e0b6a0601", "03a2994f755f2f34f8d68da51e0501a4978220f197b2970cad1fc9dc494e281c0f"], "sequence": 4294967295, "scriptSig": {"hex": "1600141043025a1d74007f03f583899d01b8b35fbf9b22", "asm": "00141043025a1d74007f03f583899d01b8b35fbf9b22"}, "vout": 8, "txid": "1248f034220a0cf64ff224eb476b2a8d114f18a3dd888a27ae4f7ca1720c7764"}], "txid": "460a0e5023bb2ea5e4c8092fad2b4acf8a0d65c4724baf79abab772c6e6e2ee5", "blocktime": 1537874412, "version": 1, "confirmations": 11468, "time": 1537874412, "locktime": 0, "vsize": 167, "size": 248}