{"hash": "460a6597fd8b3e6ba10d0e17129d90d28609e0c295c15875ce8c6157265eb491", "blockhash": "0000000000000000001e0dab787dd257d1dbfcb92a98c2207d5e1078be1f4165", "vout": [{"scriptPubKey": {"type": "nulldata", "hex": "6a4c50000077b20001f55f2e9e7c2ba6271454cacfe5bf9ae76da98a211aaf6c953dd567cf27e7ae78e6ba28441bb45139250762d42b305baa11980611849f237ea4401d100759d4ba30d2c37bb011d97e02cf", "asm": "OP_RETURN 000077b20001f55f2e9e7c2ba6271454cacfe5bf9ae76da98a211aaf6c953dd567cf27e7ae78e6ba28441bb45139250762d42b305baa11980611849f237ea4401d100759d4ba30d2c37bb011d97e02cf"}, "value": 0.0, "n": 0}, {"scriptPubKey": {"reqSigs": 1, "hex": "76a914c00057a4d2445d378694cb3eb0d4b259fff2106e88ac", "addresses": ["1JWD9cu7xvNcnyDg1HyQsmT3nceqvv66fG"], "asm": "OP_DUP OP_HASH160 c00057a4d2445d378694cb3eb0d4b259fff2106e OP_EQUALVERIFY OP_CHECKSIG", "type": "pubkeyhash"}, "value": 0.00640794, "n": 1}], "hex": "0100000001955750f3258e663943ea7f6a5364bdf5c2be5d63605c02928a38765d17fdbada000000006a4730440220609a04286e110cbcd378c7fa94f8881aa245b22062101287ef4e41243bbda04f0220222ea453ae7c0a4e5550784b40dca4ca6a597d0e2882200c8649ac0207622caf012102d2fbcb54ed57e9cc1331ffb53c1143446fcef2b844803d5164c926f12af0b6e6ffffffff020000000000000000536a4c50000077b20001f55f2e9e7c2ba6271454cacfe5bf9ae76da98a211aaf6c953dd567cf27e7ae78e6ba28441bb45139250762d42b305baa11980611849f237ea4401d100759d4ba30d2c37bb011d97e02cf1ac70900000000001976a914c00057a4d2445d378694cb3eb0d4b259fff2106e88ac00000000", "vin": [{"sequence": 4294967295, "scriptSig": {"hex": "4730440220609a04286e110cbcd378c7fa94f8881aa245b22062101287ef4e41243bbda04f0220222ea453ae7c0a4e5550784b40dca4ca6a597d0e2882200c8649ac0207622caf012102d2fbcb54ed57e9cc1331ffb53c1143446fcef2b844803d5164c926f12af0b6e6", "asm": "30440220609a04286e110cbcd378c7fa94f8881aa245b22062101287ef4e41243bbda04f0220222ea453ae7c0a4e5550784b40dca4ca6a597d0e2882200c8649ac0207622caf[ALL] 02d2fbcb54ed57e9cc1331ffb53c1143446fcef2b844803d5164c926f12af0b6e6"}, "vout": 0, "txid": "dabafd175d76388a92025c60635dbec2f5bd64536a7fea4339668e25f3505795"}], "txid": "460a6597fd8b3e6ba10d0e17129d90d28609e0c295c15875ce8c6157265eb491", "blocktime": 1537872475, "version": 1, "confirmations": 11486, "time": 1537872475, "locktime": 0, "vsize": 283, "size": 283}