{"hash": "460c4332cdd8489896ec15abce906eb55f46ece3cb1c1fbf0d76d547445b12f0", "blockhash": "00000000000000000018f53835495a110e01622372bf6ae95dc86f2b0ab887b0", "vout": [{"scriptPubKey": {"reqSigs": 1, "hex": "76a914709a903b70715b1d229a803f9dfc74b83a49293f88ac", "addresses": ["1BGPqjrJneYDjpJ1NwhTtUw2FkcpXqWABc"], "asm": "OP_DUP OP_HASH160 709a903b70715b1d229a803f9dfc74b83a49293f OP_EQUALVERIFY OP_CHECKSIG", "type": "pubkeyhash"}, "value": 0.0032913, "n": 0}, {"scriptPubKey": {"reqSigs": 1, "hex": "a914963f8b3001aa98fcf115676ebe14fef683fe98ee87", "addresses": ["3FPTQQrVyFdyYYsL3TF45PiF7an1j3HZpM"], "asm": "OP_HASH160 963f8b3001aa98fcf115676ebe14fef683fe98ee OP_EQUAL", "type": "scripthash"}, "value": 0.01187411, "n": 1}], "hex": "01000000029aa65a3891cfaa871e0481c79b909357a25dfe9213607b75062f30b0f21b8d77010000006b483045022100d7689d38b12b1b3a8caf58c4047ab836bdd2b83880a3e453b7588e73d0ea403f0220144fce71ebcc5abaa48679e7a846221b5245962f13a340b40a1d33ebcac65495012103abe6233280f6ba1da126b3bb57f1da75f005bdc0d7aec0c761ab509bdf6b74f7ffffffff75c2714a8aad853040d0c848ccb381e536c9ad77c5603e6da225d7027ad87794010000006b483045022100c71c8eb1884c88ecdc87d74dadfb60138da8215f9d5d55d09c5687f04fe4225c022034327d0f71a393b785152125bf771eccc19d5c96746484be7ec1e23ef8072a550121022006e3fed3cbc07a7cc41982cb1c682131f9419379edb3aedda5066de9d0351effffffff02aa050500000000001976a914709a903b70715b1d229a803f9dfc74b83a49293f88ac531e12000000000017a914963f8b3001aa98fcf115676ebe14fef683fe98ee8700000000", "vin": [{"sequence": 4294967295, "scriptSig": {"hex": "483045022100d7689d38b12b1b3a8caf58c4047ab836bdd2b83880a3e453b7588e73d0ea403f0220144fce71ebcc5abaa48679e7a846221b5245962f13a340b40a1d33ebcac65495012103abe6233280f6ba1da126b3bb57f1da75f005bdc0d7aec0c761ab509bdf6b74f7", "asm": "3045022100d7689d38b12b1b3a8caf58c4047ab836bdd2b83880a3e453b7588e73d0ea403f0220144fce71ebcc5abaa48679e7a846221b5245962f13a340b40a1d33ebcac65495[ALL] 03abe6233280f6ba1da126b3bb57f1da75f005bdc0d7aec0c761ab509bdf6b74f7"}, "vout": 1, "txid": "778d1bf2b0302f06757b601392fe5da25793909bc781041e87aacf91385aa69a"}, {"sequence": 4294967295, "scriptSig": {"hex": "483045022100c71c8eb1884c88ecdc87d74dadfb60138da8215f9d5d55d09c5687f04fe4225c022034327d0f71a393b785152125bf771eccc19d5c96746484be7ec1e23ef8072a550121022006e3fed3cbc07a7cc41982cb1c682131f9419379edb3aedda5066de9d0351e", "asm": "3045022100c71c8eb1884c88ecdc87d74dadfb60138da8215f9d5d55d09c5687f04fe4225c022034327d0f71a393b785152125bf771eccc19d5c96746484be7ec1e23ef8072a55[ALL] 022006e3fed3cbc07a7cc41982cb1c682131f9419379edb3aedda5066de9d0351e"}, "vout": 1, "txid": "9477d87a02d725a26d3e60c577adc936e581b3cc48c8d0403085ad8a4a71c275"}], "txid": "460c4332cdd8489896ec15abce906eb55f46ece3cb1c1fbf0d76d547445b12f0", "blocktime": 1537870928, "version": 1, "confirmations": 11514, "time": 1537870928, "locktime": 0, "vsize": 372, "size": 372}