{"hash": "460ea3effcd65c65f248ffb378c71e36fa97b0f1fe6f64c530b1eb6a3555e1fb", "blockhash": "0000000000000000001f76057863aec43deb6fa401d9628bb513d65a8098bfab", "vout": [{"scriptPubKey": {"type": "nulldata", "hex": "6a4c50000077ea0001814f99a93273efe365e63dda7af8e8e963c7cfd5b95b23cc0f42c2fc38c5f95a17fe4d9a42fd821436f134d7ed095baa178f0612d4ae1d00a9101d100759d4ba30d2c37bb011d97e02cf", "asm": "OP_RETURN 000077ea0001814f99a93273efe365e63dda7af8e8e963c7cfd5b95b23cc0f42c2fc38c5f95a17fe4d9a42fd821436f134d7ed095baa178f0612d4ae1d00a9101d100759d4ba30d2c37bb011d97e02cf"}, "value": 0.0, "n": 0}, {"scriptPubKey": {"reqSigs": 1, "hex": "76a9145d986ea044ad4580cfc5730ecf1391dd3aa99a1688ac", "addresses": ["19XtT1cLkpwPsHpq13jCejeJ8MyFfsuzTi"], "asm": "OP_DUP OP_HASH160 5d986ea044ad4580cfc5730ecf1391dd3aa99a16 OP_EQUALVERIFY OP_CHECKSIG", "type": "pubkeyhash"}, "value": 0.00637332, "n": 1}], "hex": "010000000109232933d199617ca0f21cb4a2ea1230b03fd788ea8a2d5d0a1a25ab281ee4b4010000006b48304502210096236126a74dc2694a9dbb7857460d02ee193f40022c3bbe13c36e07d0aff81102202e41f0a2375076dcb66392dae768fcb7b53968b4f25336bad2c12512a7d74c9b0121025c16e73e88c0cc049da8bc553ee056b91bda2b9f0f2d49f89e008599a711efbfffffffff020000000000000000536a4c50000077ea0001814f99a93273efe365e63dda7af8e8e963c7cfd5b95b23cc0f42c2fc38c5f95a17fe4d9a42fd821436f134d7ed095baa178f0612d4ae1d00a9101d100759d4ba30d2c37bb011d97e02cf94b90900000000001976a9145d986ea044ad4580cfc5730ecf1391dd3aa99a1688ac00000000", "vin": [{"sequence": 4294967295, "scriptSig": {"hex": "48304502210096236126a74dc2694a9dbb7857460d02ee193f40022c3bbe13c36e07d0aff81102202e41f0a2375076dcb66392dae768fcb7b53968b4f25336bad2c12512a7d74c9b0121025c16e73e88c0cc049da8bc553ee056b91bda2b9f0f2d49f89e008599a711efbf", "asm": "304502210096236126a74dc2694a9dbb7857460d02ee193f40022c3bbe13c36e07d0aff81102202e41f0a2375076dcb66392dae768fcb7b53968b4f25336bad2c12512a7d74c9b[ALL] 025c16e73e88c0cc049da8bc553ee056b91bda2b9f0f2d49f89e008599a711efbf"}, "vout": 1, "txid": "b4e41e28ab251a0a5d2d8aea88d73fb03012eaa2b41cf2a07c6199d133292309"}], "txid": "460ea3effcd65c65f248ffb378c71e36fa97b0f1fe6f64c530b1eb6a3555e1fb", "blocktime": 1537873891, "version": 1, "confirmations": 11478, "time": 1537873891, "locktime": 0, "vsize": 284, "size": 284}