{"hash": "4610c41ce27b60abd7e86041ee27b42542a10d7a86166abdf346b05605fdc2cb", "blockhash": "0000000000000000001cda96e906b7601b7a6fb1a3b62bca570a9e5d8f4b3de1", "vout": [{"scriptPubKey": {"reqSigs": 1, "hex": "76a91421caa9338093eccdf1f9102ff9e4cd00cb171b2288ac", "addresses": ["145g5TepyhqcZibiu9kvte2vBBmtpPVfuy"], "asm": "OP_DUP OP_HASH160 21caa9338093eccdf1f9102ff9e4cd00cb171b22 OP_EQUALVERIFY OP_CHECKSIG", "type": "pubkeyhash"}, "value": 0.00032093, "n": 0}, {"scriptPubKey": {"reqSigs": 1, "hex": "76a9141d03fa4b4cb13358117031782b56f3ce5172b39d88ac", "addresses": ["13eRMwUsoezE61QS2yZQLvp3hep2r8Hd9s"], "asm": "OP_DUP OP_HASH160 1d03fa4b4cb13358117031782b56f3ce5172b39d OP_EQUALVERIFY OP_CHECKSIG", "type": "pubkeyhash"}, "value": 0.05933671, "n": 1}], "hex": "0100000003501c843ee5a99f7b55a5edafc367b47a1f37e6eb50d5843dbaa5322dcdcf918f000000006b483045022100d5d381654f2f78a5a5e70fc1b73c17848f6a664b5e433e8afb81ccf39878b904022044dc110caf4e97cf4391c567cbf2df3a1995356994f488e80fa71875a321b392012102fd91210bfe8cd22580f0223fb26916a3d0cc5913c9ccea5e46f02fbdfde44776ffffffffe8a4825459d3d26ba506b4439541a1eeea14c6c0bc8074d54764f06ec6c37fb0010000006b483045022100c4ef5a3b3b8c577a4d8ab231203553dbc612d2152212a87f6ea5f26819abf53902207bb4a662a5eb7c8b3287278a440aab27db00480cde0307e8c91de006b37d2ff40121033832fa39a1a11c958318cd3938eeed636413321b5e63b7ed06bff5c0609e327affffffff818bef1f353daaa8a24a429e827f3bfa3de0569aa85d613c7b886061738363d000000000694630430220223915221f01e240ba6e710f53cca58d337d8cffc9c31aecf5e39ced4e65fa01021f4adbd47105e3639e6b6487122435dbe440b12880614e3b1f88f57f120301b4012102fd91210bfe8cd22580f0223fb26916a3d0cc5913c9ccea5e46f02fbdfde44776ffffffff025d7d0000000000001976a91421caa9338093eccdf1f9102ff9e4cd00cb171b2288ac678a5a00000000001976a9141d03fa4b4cb13358117031782b56f3ce5172b39d88ac00000000", "vin": [{"sequence": 4294967295, "scriptSig": {"hex": "483045022100d5d381654f2f78a5a5e70fc1b73c17848f6a664b5e433e8afb81ccf39878b904022044dc110caf4e97cf4391c567cbf2df3a1995356994f488e80fa71875a321b392012102fd91210bfe8cd22580f0223fb26916a3d0cc5913c9ccea5e46f02fbdfde44776", "asm": "3045022100d5d381654f2f78a5a5e70fc1b73c17848f6a664b5e433e8afb81ccf39878b904022044dc110caf4e97cf4391c567cbf2df3a1995356994f488e80fa71875a321b392[ALL] 02fd91210bfe8cd22580f0223fb26916a3d0cc5913c9ccea5e46f02fbdfde44776"}, "vout": 0, "txid": "8f91cfcd2d32a5ba3d84d550ebe6371f7ab467c3afeda5557b9fa9e53e841c50"}, {"sequence": 4294967295, "scriptSig": {"hex": "483045022100c4ef5a3b3b8c577a4d8ab231203553dbc612d2152212a87f6ea5f26819abf53902207bb4a662a5eb7c8b3287278a440aab27db00480cde0307e8c91de006b37d2ff40121033832fa39a1a11c958318cd3938eeed636413321b5e63b7ed06bff5c0609e327a", "asm": "3045022100c4ef5a3b3b8c577a4d8ab231203553dbc612d2152212a87f6ea5f26819abf53902207bb4a662a5eb7c8b3287278a440aab27db00480cde0307e8c91de006b37d2ff4[ALL] 033832fa39a1a11c958318cd3938eeed636413321b5e63b7ed06bff5c0609e327a"}, "vout": 1, "txid": "b07fc3c66ef06447d57480bcc0c614eaeea1419543b406a56bd2d3595482a4e8"}, {"sequence": 4294967295, "scriptSig": {"hex": "4630430220223915221f01e240ba6e710f53cca58d337d8cffc9c31aecf5e39ced4e65fa01021f4adbd47105e3639e6b6487122435dbe440b12880614e3b1f88f57f120301b4012102fd91210bfe8cd22580f0223fb26916a3d0cc5913c9ccea5e46f02fbdfde44776", "asm": "30430220223915221f01e240ba6e710f53cca58d337d8cffc9c31aecf5e39ced4e65fa01021f4adbd47105e3639e6b6487122435dbe440b12880614e3b1f88f57f120301b4[ALL] 02fd91210bfe8cd22580f0223fb26916a3d0cc5913c9ccea5e46f02fbdfde44776"}, "vout": 0, "txid": "d06383736160887b3c615da89a56e03dfa3b7f829e424aa2a8aa3d351fef8b81"}], "txid": "4610c41ce27b60abd7e86041ee27b42542a10d7a86166abdf346b05605fdc2cb", "blocktime": 1537873282, "version": 1, "confirmations": 11484, "time": 1537873282, "locktime": 0, "vsize": 520, "size": 520}