{"hash": "62c319146c6916cba3e2a462f359eca38e690622346b34026dc1db6a23d2fdde", "blockhash": "0000000000000000001cda96e906b7601b7a6fb1a3b62bca570a9e5d8f4b3de1", "vout": [{"scriptPubKey": {"reqSigs": 1, "hex": "76a914f6c094b26815950cbec28cd41430cb015a3b0c1d88ac", "addresses": ["1PVhvweLDT1Zged5AuZxRoQxqBK1vg6VZ6"], "asm": "OP_DUP OP_HASH160 f6c094b26815950cbec28cd41430cb015a3b0c1d OP_EQUALVERIFY OP_CHECKSIG", "type": "pubkeyhash"}, "value": 0.351, "n": 0}], "hex": "020000000001060423e21dc01afb15a0b8489dd4ec2511a77957c32fff81b2774f68c58b447e140100000017160014bc918211cb0ea5e24742c0d5a4d79f29605d5f6cfeffffff62c41a897e8aeb4d54b6de37277f395fe9514a7cc734bb5e360ec9127a69f8c40100000017160014d88f7f797984eb9fe6967a593baf85dbae28a55efeffffff68859cc912460abf889e942f26493f6a35903b9acc839c4af664fc8ce1f86e7800000000171600142a6f97e1680437499d77b8b58a89e126016124bdfeffffff70098fbc387d0393f80afc724880b210fc17751a5a0df43a1d23e5f9335b668c0000000017160014a6330df0db729e76062bcce37f36274b8baf1c4bfeffffffa2a0fce82fe300b929adcd8688ed508ea0074e3a096237d4b98942006966e64a00000000171600141f0127b7cb1764a3e057a73f9b3f2080f2c51548feffffffd0fe970552dd837dd43a28b9730218f8dfe0e57ac614d3b0da6b6eb32e76d1160b00000017160014c95a74cd42852247c2c315328c6229b81a3c5046feffffff0160951702000000001976a914f6c094b26815950cbec28cd41430cb015a3b0c1d88ac024730440220613356638383e366525aed539009ee6098f7e56fe4a787db63687b1e7d26f788022025c2c37f19eca45e27d8040571dce8e0d60eab2441393112fd4d5954ae595a78012102d549a9eb89c4f234c4331975684e8c4c857d1e5896c3bddee732751dc740799302483045022100f41dc6bba284b2140a84359cfb10a38c1ad98fb45d9d4b03619f418e98433ddf02204fcdc0fee3ed6888dae041797f230e35a660d644a717b4f410bea6a910445cdf012103b8be9ecd1474c8e01c14df60cfa27ffd6ddff2423b1e60fc025e817923ea57260247304402201a91c08cbaf446787e5a688774af38de5105f50f57d389902b4cc700269ba1ab02206e4cb182338951f076886020c87f7f62c3dc5ef213b9779dce632da23696321b012103d7206627d1bbd632f1d914cdab395b14f770d9f6869518c893f4b9ed01cddfed02473044022068a3faa8a5a6b71c79670dfad5f2e32f62f8fed2858b46e8cf673c807cc54c60022057c0022a628711fe069cde1bda2e94b198e75b096f3b081987bd34611e9d6f19012102fb7c0b85e11b6d0dda663c9cc730ee4d6410089847ccbb0d3571bf3702daf96f02483045022100d5e3422a39a9eb5aa3ab560f75c00ae165dfa856ccaedd2fe989b754ad3932c40220318db87a0889cffbad57aa774b6dc185f9565fb4948888c0e1177b1ab35e08df0121028f617e33f005a6fda574a5e73cb82f262e4590495e6e53999a3ed20cbcea8d6202473044022076a7a86ff3504b96125abef36f1ffe5bc956bb9c28ae73d94b5994ec18b5d6fb02201390a4537bf7debcde70655eab79ae8e406a78f48dd619c1e21e6084ea4e5e3e01210266aa29edfd2bc7543c1b07987710003a19751928303df67c1bd5c288a9b14ec813490800", "vin": [{"txinwitness": ["30440220613356638383e366525aed539009ee6098f7e56fe4a787db63687b1e7d26f788022025c2c37f19eca45e27d8040571dce8e0d60eab2441393112fd4d5954ae595a7801", "02d549a9eb89c4f234c4331975684e8c4c857d1e5896c3bddee732751dc7407993"], "sequence": 4294967294, "scriptSig": {"hex": "160014bc918211cb0ea5e24742c0d5a4d79f29605d5f6c", "asm": "0014bc918211cb0ea5e24742c0d5a4d79f29605d5f6c"}, "vout": 1, "txid": "147e448bc5684f77b281ff2fc35779a71125ecd49d48b8a015fb1ac01de22304"}, {"txinwitness": ["3045022100f41dc6bba284b2140a84359cfb10a38c1ad98fb45d9d4b03619f418e98433ddf02204fcdc0fee3ed6888dae041797f230e35a660d644a717b4f410bea6a910445cdf01", "03b8be9ecd1474c8e01c14df60cfa27ffd6ddff2423b1e60fc025e817923ea5726"], "sequence": 4294967294, "scriptSig": {"hex": "160014d88f7f797984eb9fe6967a593baf85dbae28a55e", "asm": "0014d88f7f797984eb9fe6967a593baf85dbae28a55e"}, "vout": 1, "txid": "c4f8697a12c90e365ebb34c77c4a51e95f397f2737deb6544deb8a7e891ac462"}, {"txinwitness": ["304402201a91c08cbaf446787e5a688774af38de5105f50f57d389902b4cc700269ba1ab02206e4cb182338951f076886020c87f7f62c3dc5ef213b9779dce632da23696321b01", "03d7206627d1bbd632f1d914cdab395b14f770d9f6869518c893f4b9ed01cddfed"], "sequence": 4294967294, "scriptSig": {"hex": "1600142a6f97e1680437499d77b8b58a89e126016124bd", "asm": "00142a6f97e1680437499d77b8b58a89e126016124bd"}, "vout": 0, "txid": "786ef8e18cfc64f64a9c83cc9a3b90356a3f49262f949e88bf0a4612c99c8568"}, {"txinwitness": ["3044022068a3faa8a5a6b71c79670dfad5f2e32f62f8fed2858b46e8cf673c807cc54c60022057c0022a628711fe069cde1bda2e94b198e75b096f3b081987bd34611e9d6f1901", "02fb7c0b85e11b6d0dda663c9cc730ee4d6410089847ccbb0d3571bf3702daf96f"], "sequence": 4294967294, "scriptSig": {"hex": "160014a6330df0db729e76062bcce37f36274b8baf1c4b", "asm": "0014a6330df0db729e76062bcce37f36274b8baf1c4b"}, "vout": 0, "txid": "8c665b33f9e5231d3af40d5a1a7517fc10b2804872fc0af893037d38bc8f0970"}, {"txinwitness": ["3045022100d5e3422a39a9eb5aa3ab560f75c00ae165dfa856ccaedd2fe989b754ad3932c40220318db87a0889cffbad57aa774b6dc185f9565fb4948888c0e1177b1ab35e08df01", "028f617e33f005a6fda574a5e73cb82f262e4590495e6e53999a3ed20cbcea8d62"], "sequence": 4294967294, "scriptSig": {"hex": "1600141f0127b7cb1764a3e057a73f9b3f2080f2c51548", "asm": "00141f0127b7cb1764a3e057a73f9b3f2080f2c51548"}, "vout": 0, "txid": "4ae66669004289b9d43762093a4e07a08e50ed8886cdad29b900e32fe8fca0a2"}, {"txinwitness": ["3044022076a7a86ff3504b96125abef36f1ffe5bc956bb9c28ae73d94b5994ec18b5d6fb02201390a4537bf7debcde70655eab79ae8e406a78f48dd619c1e21e6084ea4e5e3e01", "0266aa29edfd2bc7543c1b07987710003a19751928303df67c1bd5c288a9b14ec8"], "sequence": 4294967294, "scriptSig": {"hex": "160014c95a74cd42852247c2c315328c6229b81a3c5046", "asm": "0014c95a74cd42852247c2c315328c6229b81a3c5046"}, "vout": 11, "txid": "16d1762eb36e6bdab0d314c67ae5e0dff8180273b9283ad47d83dd520597fed0"}], "txid": "4611e56c8527bed252cadaa9364f3eebde47bc2175ab9f9f3f7dfb78be349157", "blocktime": 1537873282, "version": 2, "confirmations": 11481, "time": 1537873282, "locktime": 542995, "vsize": 590, "size": 1074}