{"hash": "d440d93bf3b2b1923d255960c3d7f6ba5aa42f51386e5796f8e39ca0c3e6bfe1", "blockhash": "0000000000000000000baef3f32e3676a92c3b2e5da21b426e4f302fc371ce76", "vout": [{"scriptPubKey": {"reqSigs": 1, "hex": "76a914cd0f3443642bc0ed4d14e75debbaac49bbad6ecf88ac", "addresses": ["1KhFjjF6XTViMUqjZBgfjf4KnuPopu8w9F"], "asm": "OP_DUP OP_HASH160 cd0f3443642bc0ed4d14e75debbaac49bbad6ecf OP_EQUALVERIFY OP_CHECKSIG", "type": "pubkeyhash"}, "value": 0.01, "n": 0}, {"scriptPubKey": {"reqSigs": 1, "hex": "a914ccc971413f6f91a8a641f38e2f15c42164556f4a87", "addresses": ["3LMq697HFhSyxn6tTbvbZCutsKwRVHasYt"], "asm": "OP_HASH160 ccc971413f6f91a8a641f38e2f15c42164556f4a OP_EQUAL", "type": "scripthash"}, "value": 0.00399156, "n": 1}], "hex": "010000000001016a384b3fd717216bc316a1476b1687fe2530f199e08c12fa3eb8d9a343b9c4db010000001716001482773dd6ca49ee0f719eaa3e3ac169cef8c2a4a2ffffffff0240420f00000000001976a914cd0f3443642bc0ed4d14e75debbaac49bbad6ecf88ac341706000000000017a914ccc971413f6f91a8a641f38e2f15c42164556f4a8702473044022029dd71a414c3ade4e488c2ae393025333d8c0f7392bf10a395867cc5ad784b2f0220200664b4b4589c33c629808266f7af7c2d0ca4b5ef0e26928550c1ef23dd12270121022b2daa089941ed7f2e8e521445b6f81bfdbd0c40c23b93590a3dbc8307bbffbe00000000", "vin": [{"txinwitness": ["3044022029dd71a414c3ade4e488c2ae393025333d8c0f7392bf10a395867cc5ad784b2f0220200664b4b4589c33c629808266f7af7c2d0ca4b5ef0e26928550c1ef23dd122701", "022b2daa089941ed7f2e8e521445b6f81bfdbd0c40c23b93590a3dbc8307bbffbe"], "sequence": 4294967295, "scriptSig": {"hex": "16001482773dd6ca49ee0f719eaa3e3ac169cef8c2a4a2", "asm": "001482773dd6ca49ee0f719eaa3e3ac169cef8c2a4a2"}, "vout": 1, "txid": "dbc4b943a3d9b83efa128ce099f13025fe87166b47a116c36b2117d73f4b386a"}], "txid": "4616ebc67ef41a631e86b8c3f67468874cb27f1c52a206d224cba5c1e33e3211", "blocktime": 1537876114, "version": 1, "confirmations": 11460, "time": 1537876114, "locktime": 0, "vsize": 168, "size": 249}