{"hash": "46176d9b27cf647bf7d4d228b2becf595d02b9e28404aa3b19fde7e3182146f3", "blockhash": "00000000000000000024a2167bbff67b0be802c0b01cdd79e6331c2be6459f87", "vout": [{"scriptPubKey": {"reqSigs": 1, "hex": "76a91413de14a20f1b495433172cf63cd67a5648ebabdf88ac", "addresses": ["12p3t5N4y78i6Mmhagq4WMNv5FuyaaLpR1"], "asm": "OP_DUP OP_HASH160 13de14a20f1b495433172cf63cd67a5648ebabdf OP_EQUALVERIFY OP_CHECKSIG", "type": "pubkeyhash"}, "value": 0.000798, "n": 0}, {"scriptPubKey": {"reqSigs": 1, "hex": "a9140e7187e25d7086edf098342fb013a070486b32d287", "addresses": ["331PPVED5wMiSdnb5Ks12mY1m2PA51yqZv"], "asm": "OP_HASH160 0e7187e25d7086edf098342fb013a070486b32d2 OP_EQUAL", "type": "scripthash"}, "value": 0.0113, "n": 1}], "hex": "0100000003f707fe2b179e240b2ddbf6573c55c138bfe56594f51dc0335367f3f029186512000000006a473044022028705d68674283d4d94e9a8c69665e132107dfd97f1166f1785830115899ea3702202de1d6196acea72dfe1bd6e2368fe3c1bf4ac281f4842893eb573cdc7767ad61012102939b8d5357dce0c5d85155973b636ef2d7e6788e3ca89a5462fb5d5affe16b43ffffffffc33eea6ffd602e70bddf52605597e9896ce88b315a30fbca4862dd31bd12b265000000006b483045022100810fa5526a946c75ae434231d68e10391032e8d52ac7a356e6a906168d50f477022057f3315fbd7501d29e51587af3805558f63ef23fbcc28aae8c7ca012e635fce901210259b10addb99cc741b60c36196cf867aa92f11ce8d114280880215e3039748b7dffffffff85f5833d42ae154a8ae21192e2e7d364165c4dafb23bce956ba7db8b4007949c000000006b4830450221008ab11af81465dafac78c0ffcb1bb8abd67537b0923bfe91a9ea1a9a705701b32022055bfdd717af97b81f0c5da488cf4876d6a4bc62cfb229e0163e406d4843080830121023c369affa35a6ee0bd8d0b1ce520f22535d54e450d1e9572bef8dbe3e386a398ffffffff02b8370100000000001976a91413de14a20f1b495433172cf63cd67a5648ebabdf88ac103e11000000000017a9140e7187e25d7086edf098342fb013a070486b32d28700000000", "vin": [{"sequence": 4294967295, "scriptSig": {"hex": "473044022028705d68674283d4d94e9a8c69665e132107dfd97f1166f1785830115899ea3702202de1d6196acea72dfe1bd6e2368fe3c1bf4ac281f4842893eb573cdc7767ad61012102939b8d5357dce0c5d85155973b636ef2d7e6788e3ca89a5462fb5d5affe16b43", "asm": "3044022028705d68674283d4d94e9a8c69665e132107dfd97f1166f1785830115899ea3702202de1d6196acea72dfe1bd6e2368fe3c1bf4ac281f4842893eb573cdc7767ad61[ALL] 02939b8d5357dce0c5d85155973b636ef2d7e6788e3ca89a5462fb5d5affe16b43"}, "vout": 0, "txid": "12651829f0f3675333c01df59465e5bf38c1553c57f6db2d0b249e172bfe07f7"}, {"sequence": 4294967295, "scriptSig": {"hex": "483045022100810fa5526a946c75ae434231d68e10391032e8d52ac7a356e6a906168d50f477022057f3315fbd7501d29e51587af3805558f63ef23fbcc28aae8c7ca012e635fce901210259b10addb99cc741b60c36196cf867aa92f11ce8d114280880215e3039748b7d", "asm": "3045022100810fa5526a946c75ae434231d68e10391032e8d52ac7a356e6a906168d50f477022057f3315fbd7501d29e51587af3805558f63ef23fbcc28aae8c7ca012e635fce9[ALL] 0259b10addb99cc741b60c36196cf867aa92f11ce8d114280880215e3039748b7d"}, "vout": 0, "txid": "65b212bd31dd6248cafb305a318be86c89e997556052dfbd702e60fd6fea3ec3"}, {"sequence": 4294967295, "scriptSig": {"hex": "4830450221008ab11af81465dafac78c0ffcb1bb8abd67537b0923bfe91a9ea1a9a705701b32022055bfdd717af97b81f0c5da488cf4876d6a4bc62cfb229e0163e406d4843080830121023c369affa35a6ee0bd8d0b1ce520f22535d54e450d1e9572bef8dbe3e386a398", "asm": "30450221008ab11af81465dafac78c0ffcb1bb8abd67537b0923bfe91a9ea1a9a705701b32022055bfdd717af97b81f0c5da488cf4876d6a4bc62cfb229e0163e406d484308083[ALL] 023c369affa35a6ee0bd8d0b1ce520f22535d54e450d1e9572bef8dbe3e386a398"}, "vout": 0, "txid": "9c9407408bdba76b95ce3bb2af4d5c1664d3e7e29211e28a4a15ae423d83f585"}], "txid": "46176d9b27cf647bf7d4d228b2becf595d02b9e28404aa3b19fde7e3182146f3", "blocktime": 1537870564, "version": 1, "confirmations": 11515, "time": 1537870564, "locktime": 0, "vsize": 519, "size": 519}