{"hash": "4619aacb0b14c725be0bc53f103e4c957b3dd30243289533eb102d4d13d8702f", "blockhash": "00000000000000000017f5eb5941039fbcee6240d03bc1f2f8e35350df66a1d8", "vout": [{"scriptPubKey": {"reqSigs": 1, "hex": "76a9145e12b60c05401a1d09b1d4eba166b11ec7cb39d788ac", "addresses": ["19aQw71HTipujzoNwMW3h8ZrnZXW5BWoEX"], "asm": "OP_DUP OP_HASH160 5e12b60c05401a1d09b1d4eba166b11ec7cb39d7 OP_EQUALVERIFY OP_CHECKSIG", "type": "pubkeyhash"}, "value": 0.014289, "n": 0}, {"scriptPubKey": {"reqSigs": 1, "hex": "a914714a8e2608e8a0c684e825d6db11360c73ab96e587", "addresses": ["3C23bQpG7hKxFEZtvjDNQWBWcMNKrhBauh"], "asm": "OP_HASH160 714a8e2608e8a0c684e825d6db11360c73ab96e5 OP_EQUAL", "type": "scripthash"}, "value": 0.03216558, "n": 1}], "hex": "0200000001f3527dfaad749239f7b9f22e63e4bf2cbdda22e0c6568769d1713764f5b93d83010000006a473044022066a866480bbed069b10df8d72be3340363ed4b6c8f2497535f0b2a562235da360220605dd3a42dda7955b66d04507b0ad16fdf78db74bcf509a3e78f04f1d420fc280121039dc25b4264fce81bc13aae81bdd10cb130e1c23adb6b4719fd30c7d9de09e87dfeffffff02a4cd1500000000001976a9145e12b60c05401a1d09b1d4eba166b11ec7cb39d788acae1431000000000017a914714a8e2608e8a0c684e825d6db11360c73ab96e58715490800", "vin": [{"sequence": 4294967294, "scriptSig": {"hex": "473044022066a866480bbed069b10df8d72be3340363ed4b6c8f2497535f0b2a562235da360220605dd3a42dda7955b66d04507b0ad16fdf78db74bcf509a3e78f04f1d420fc280121039dc25b4264fce81bc13aae81bdd10cb130e1c23adb6b4719fd30c7d9de09e87d", "asm": "3044022066a866480bbed069b10df8d72be3340363ed4b6c8f2497535f0b2a562235da360220605dd3a42dda7955b66d04507b0ad16fdf78db74bcf509a3e78f04f1d420fc28[ALL] 039dc25b4264fce81bc13aae81bdd10cb130e1c23adb6b4719fd30c7d9de09e87d"}, "vout": 1, "txid": "833db9f5643771d1698756c6e022dabd2cbfe4632ef2b9f7399274adfa7d52f3"}], "txid": "4619aacb0b14c725be0bc53f103e4c957b3dd30243289533eb102d4d13d8702f", "blocktime": 1537874412, "version": 2, "confirmations": 11467, "time": 1537874412, "locktime": 542997, "vsize": 223, "size": 223}