{"hash": "461aa93911e3511c9911a591828f82c43b6c28d4df9697e0948bd88842564b35", "blockhash": "00000000000000000017f5eb5941039fbcee6240d03bc1f2f8e35350df66a1d8", "vout": [{"scriptPubKey": {"reqSigs": 1, "hex": "76a91430e6ab0cda9dde2ee049ba0e6028dc076d8a673b88ac", "addresses": ["15TZmK9hVC3H1PvHEb3TekzqusEEfmTiiM"], "asm": "OP_DUP OP_HASH160 30e6ab0cda9dde2ee049ba0e6028dc076d8a673b OP_EQUALVERIFY OP_CHECKSIG", "type": "pubkeyhash"}, "value": 0.00633746, "n": 0}, {"scriptPubKey": {"type": "nulldata", "hex": "6a4c50000077fa00011ede7bec60b6a9f8268e2f66d19ed074892d00f8e87af8e8e963c7cfd5b9a3fe099cd607c60ff15a5b8727423a8b5baa191406142de11b147bab1d100759d4ba30d2c37bb011d97e02cf", "asm": "OP_RETURN 000077fa00011ede7bec60b6a9f8268e2f66d19ed074892d00f8e87af8e8e963c7cfd5b9a3fe099cd607c60ff15a5b8727423a8b5baa191406142de11b147bab1d100759d4ba30d2c37bb011d97e02cf"}, "value": 0.0, "n": 1}], "hex": "0100000001590fab964ac088cdda9396ef6dccc7e9b5c28bb805f00cc50883f9fbdf06eaf5010000006a4730440220373d8d0debe59000fe38071712154c2d5633709f3b855915e85e493515e9dc2102200638751c2a87dcd3bea2d756d13bf133e4182659098c19083261be273fda69ed012103d6ecf20a052287aa806484ee34b0e2b75bc76735da6d76866803e8a31a67bbc6ffffffff0292ab0900000000001976a91430e6ab0cda9dde2ee049ba0e6028dc076d8a673b88ac0000000000000000536a4c50000077fa00011ede7bec60b6a9f8268e2f66d19ed074892d00f8e87af8e8e963c7cfd5b9a3fe099cd607c60ff15a5b8727423a8b5baa191406142de11b147bab1d100759d4ba30d2c37bb011d97e02cf00000000", "vin": [{"sequence": 4294967295, "scriptSig": {"hex": "4730440220373d8d0debe59000fe38071712154c2d5633709f3b855915e85e493515e9dc2102200638751c2a87dcd3bea2d756d13bf133e4182659098c19083261be273fda69ed012103d6ecf20a052287aa806484ee34b0e2b75bc76735da6d76866803e8a31a67bbc6", "asm": "30440220373d8d0debe59000fe38071712154c2d5633709f3b855915e85e493515e9dc2102200638751c2a87dcd3bea2d756d13bf133e4182659098c19083261be273fda69ed[ALL] 03d6ecf20a052287aa806484ee34b0e2b75bc76735da6d76866803e8a31a67bbc6"}, "vout": 1, "txid": "f5ea06dffbf98308c50cf005b88bc2b5e9c7cc6def9693dacd88c04a96ab0f59"}], "txid": "461aa93911e3511c9911a591828f82c43b6c28d4df9697e0948bd88842564b35", "blocktime": 1537874412, "version": 1, "confirmations": 11467, "time": 1537874412, "locktime": 0, "vsize": 283, "size": 283}