{"hash": "2caa77743f93ea7490e48f0fe9470de74721eba1c52cfe05fc124f93efe90d53", "blockhash": "0000000000000000000e13cef7c366c0283d82e591d1acd082e914b08063cdf1", "vout": [{"scriptPubKey": {"reqSigs": 1, "hex": "76a914c768646415d55022dbae1c4955d3aa1332e9eb9f88ac", "addresses": ["1KBNXU9qrohMSeoVRv854Keq6qaqCJgjqQ"], "asm": "OP_DUP OP_HASH160 c768646415d55022dbae1c4955d3aa1332e9eb9f OP_EQUALVERIFY OP_CHECKSIG", "type": "pubkeyhash"}, "value": 0.00075, "n": 0}, {"scriptPubKey": {"reqSigs": 1, "hex": "00148ed6b2ee46b871575e5efffb1665bf5bf031969f", "addresses": ["bc1q3mtt9mjxhpc4whj7lla3vedlt0crr95lc9ltn9"], "asm": "0 8ed6b2ee46b871575e5efffb1665bf5bf031969f", "type": "witness_v0_keyhash"}, "value": 1.296e-05, "n": 1}], "hex": "01000000000101ab6b8da341a1d8ba59916f4023d67ee0cdc852cf96f58b84f53e4ffae0495fc90100000000ffffffff02f8240100000000001976a914c768646415d55022dbae1c4955d3aa1332e9eb9f88ac10050000000000001600148ed6b2ee46b871575e5efffb1665bf5bf031969f024730440220323f27e84d5db2ed65107ce0fb7112464be17d9383b207dc0693deee5b30f5c202201252ee3cd1059f334583a7799972faa366ce8f40734ee0f8e22d22d212bd973f012103e9f6b27e0a841b093d963a3b8f638261f932a2d68b2e8ca08e092c92102397b000000000", "vin": [{"txinwitness": ["30440220323f27e84d5db2ed65107ce0fb7112464be17d9383b207dc0693deee5b30f5c202201252ee3cd1059f334583a7799972faa366ce8f40734ee0f8e22d22d212bd973f01", "03e9f6b27e0a841b093d963a3b8f638261f932a2d68b2e8ca08e092c92102397b0"], "sequence": 4294967295, "scriptSig": {"hex": "", "asm": ""}, "vout": 1, "txid": "c95f49e0fa4f3ef5848bf596cf52c8cde07ed623406f9159bad8a141a38d6bab"}], "txid": "461a26216163b6263485d5d10f9397f6462a9fad2f63dcacb505ed3f1a635561", "blocktime": 1537871767, "version": 1, "confirmations": 11495, "time": 1537871767, "locktime": 0, "vsize": 144, "size": 225}