{"hash": "461b6c50b92d0be12f29b0b6605f7bfe6a2f692eda6a84ce1e1e9d818a369e2d", "blockhash": "0000000000000000000e13cef7c366c0283d82e591d1acd082e914b08063cdf1", "vout": [{"scriptPubKey": {"type": "nulldata", "hex": "6a4c50000077a20001724455df2a838b0683ae37e8af6c953dd567cf27e7e3ef3236678a625097a3030b8025379696c9fb6f4f6c68466e5baa0e8d0614adbfbdeec81d1d100759d4ba30d2c37bb011d97e02cf", "asm": "OP_RETURN 000077a20001724455df2a838b0683ae37e8af6c953dd567cf27e7e3ef3236678a625097a3030b8025379696c9fb6f4f6c68466e5baa0e8d0614adbfbdeec81d1d100759d4ba30d2c37bb011d97e02cf"}, "value": 0.0, "n": 0}, {"scriptPubKey": {"reqSigs": 1, "hex": "76a914c5b287f54c49b270c09750d218f019a5fc6391d288ac", "addresses": ["1K2KzMBYnBFkHYjNY5RkpD3DHD4HoWTXYn"], "asm": "OP_DUP OP_HASH160 c5b287f54c49b270c09750d218f019a5fc6391d2 OP_EQUALVERIFY OP_CHECKSIG", "type": "pubkeyhash"}, "value": 0.00642761, "n": 1}], "hex": "0100000001258b34ed1eecec09f26ac66f35ff8dc467fe972dd4ea9bee8f74d11f440a9520000000006a4730440220271acd6307bbbc4e762e0833526326db8b7d2715d9ef05a5bec1fab66e1a2b3c0220349e7ee1069f6cb166e82685bcabe87522e4c6ccd42e768763bf07000b3fe123012103bcdf182eec19b6fed7fa4c92d43951a49c5b331d1dfbf43ee1d9f877f16b96d3ffffffff020000000000000000536a4c50000077a20001724455df2a838b0683ae37e8af6c953dd567cf27e7e3ef3236678a625097a3030b8025379696c9fb6f4f6c68466e5baa0e8d0614adbfbdeec81d1d100759d4ba30d2c37bb011d97e02cfc9ce0900000000001976a914c5b287f54c49b270c09750d218f019a5fc6391d288ac00000000", "vin": [{"sequence": 4294967295, "scriptSig": {"hex": "4730440220271acd6307bbbc4e762e0833526326db8b7d2715d9ef05a5bec1fab66e1a2b3c0220349e7ee1069f6cb166e82685bcabe87522e4c6ccd42e768763bf07000b3fe123012103bcdf182eec19b6fed7fa4c92d43951a49c5b331d1dfbf43ee1d9f877f16b96d3", "asm": "30440220271acd6307bbbc4e762e0833526326db8b7d2715d9ef05a5bec1fab66e1a2b3c0220349e7ee1069f6cb166e82685bcabe87522e4c6ccd42e768763bf07000b3fe123[ALL] 03bcdf182eec19b6fed7fa4c92d43951a49c5b331d1dfbf43ee1d9f877f16b96d3"}, "vout": 0, "txid": "20950a441fd1748fee9bead42d97fe67c48dff356fc66af209ecec1eed348b25"}], "txid": "461b6c50b92d0be12f29b0b6605f7bfe6a2f692eda6a84ce1e1e9d818a369e2d", "blocktime": 1537871767, "version": 1, "confirmations": 11495, "time": 1537871767, "locktime": 0, "vsize": 283, "size": 283}