{"hash": "f6bcf8b174b4c078e376f647fc143a9505efd40a4be2d4951fd97a56a0f18205", "blockhash": "00000000000000000017f5eb5941039fbcee6240d03bc1f2f8e35350df66a1d8", "vout": [{"scriptPubKey": {"reqSigs": 1, "hex": "a91469f37725a2f6312c731dfe62b39ca2ffe6d8125487", "addresses": ["3BMEXxcsT4z1dvP7HwjTsutTc8fT7nymNd"], "asm": "OP_HASH160 69f37725a2f6312c731dfe62b39ca2ffe6d81254 OP_EQUAL", "type": "scripthash"}, "value": 0.00450661, "n": 0}, {"scriptPubKey": {"reqSigs": 1, "hex": "a91440d02c3e4f65b3a98e5e1c6287486b6b6785c04387", "addresses": ["37biYvTEcBVMoR1NGkPTGvHUuLTrzcLpiv"], "asm": "OP_HASH160 40d02c3e4f65b3a98e5e1c6287486b6b6785c043 OP_EQUAL", "type": "scripthash"}, "value": 0.31237434, "n": 1}], "hex": "01000000000101cea96dbc84ddd9f1f6f549f1b3a4989a85bc550cfeba435d731087813539f39101000000171600140f8f95e3da7660889ef3302dfb51f9ea36f5cfd7ffffffff0265e006000000000017a91469f37725a2f6312c731dfe62b39ca2ffe6d81254873aa5dc010000000017a91440d02c3e4f65b3a98e5e1c6287486b6b6785c0438702483045022100c86fd96df6d826899fc1746639380b2c320b4118c8a935d99d5ee84cb619b82102204015dac7947df51ecb1a1a00174b80e93e94b4ca3f203be9d3d23cac464b212c01210337f2d24b1d287a6896c89056fd193876b31ebdf892b29f5fc86f33bc1f717bff00000000", "vin": [{"txinwitness": ["3045022100c86fd96df6d826899fc1746639380b2c320b4118c8a935d99d5ee84cb619b82102204015dac7947df51ecb1a1a00174b80e93e94b4ca3f203be9d3d23cac464b212c01", "0337f2d24b1d287a6896c89056fd193876b31ebdf892b29f5fc86f33bc1f717bff"], "sequence": 4294967295, "scriptSig": {"hex": "1600140f8f95e3da7660889ef3302dfb51f9ea36f5cfd7", "asm": "00140f8f95e3da7660889ef3302dfb51f9ea36f5cfd7"}, "vout": 1, "txid": "91f33935818710735d43bafe0c55bc859a98a4b3f149f5f6f1d9dd84bc6da9ce"}], "txid": "46259c2ff381be8b07f19d7b4f4d9340bdbd1d063835ba302d51423ac57d51f8", "blocktime": 1537874412, "version": 1, "confirmations": 11467, "time": 1537874412, "locktime": 0, "vsize": 166, "size": 248}