{"hash": "463abef37460212c75a8d4f14d89e042f62f9e2b7bc5672421bfbf5fa47247b9", "blockhash": "000000000000000000022b45ed06c6f4ccd3cf7fb5ba4856ebd2e58215665228", "vout": [{"scriptPubKey": {"reqSigs": 1, "hex": "76a9140e0e28edb5c230673b24fba321f6ffd2a016e47e88ac", "addresses": ["12HKRXokfj7GadJSD4THHB9R5CtHLzKaRJ"], "asm": "OP_DUP OP_HASH160 0e0e28edb5c230673b24fba321f6ffd2a016e47e OP_EQUALVERIFY OP_CHECKSIG", "type": "pubkeyhash"}, "value": 0.00029324, "n": 0}, {"scriptPubKey": {"reqSigs": 1, "hex": "a91434e7746e098b5805e106a774936580ccc01440d387", "addresses": ["36WkLHENHAoa8EgMB5W5qbhUF1awGhh5Bn"], "asm": "OP_HASH160 34e7746e098b5805e106a774936580ccc01440d3 OP_EQUAL", "type": "scripthash"}, "value": 0.001301, "n": 1}], "hex": "01000000026c83e20286680ec695dd9876558884b61f51d98928d5198597326dc28046c7aa000000006a4730440220145b7e4428bccc00561e6ccec0f28424459ec71ea1b4635dccf2323d6643c78202202fbf3ff5e23cbc476664cd199c6954b8cf8242779cbb366332f65c32696f649f01210221ed06780ba58c731f840857ca578b03b3c54ae9932551a641427440b9f4bdc7fdffffff47876c14392489517fa9090c9d9dc7e3f5c251116452a2ac52d06a9f5f61afda010000006a473044022020af6f98e68c1a03d83053a6e02112ecf3ad1125d8fc53cf13729362dabd103a02202ca00023e307cfc714ada25244df0310eb24e96989abb17f36594def1a753eab01210225806ae9fb842c37d2f1b43d0b86bb7c8c8dab067910ce93fce76e60ba90ef13fdffffff028c720000000000001976a9140e0e28edb5c230673b24fba321f6ffd2a016e47e88ac34fc01000000000017a91434e7746e098b5805e106a774936580ccc01440d3870b490800", "vin": [{"sequence": 4294967293, "scriptSig": {"hex": "4730440220145b7e4428bccc00561e6ccec0f28424459ec71ea1b4635dccf2323d6643c78202202fbf3ff5e23cbc476664cd199c6954b8cf8242779cbb366332f65c32696f649f01210221ed06780ba58c731f840857ca578b03b3c54ae9932551a641427440b9f4bdc7", "asm": "30440220145b7e4428bccc00561e6ccec0f28424459ec71ea1b4635dccf2323d6643c78202202fbf3ff5e23cbc476664cd199c6954b8cf8242779cbb366332f65c32696f649f[ALL] 0221ed06780ba58c731f840857ca578b03b3c54ae9932551a641427440b9f4bdc7"}, "vout": 0, "txid": "aac74680c26d32978519d52889d9511fb68488557698dd95c60e688602e2836c"}, {"sequence": 4294967293, "scriptSig": {"hex": "473044022020af6f98e68c1a03d83053a6e02112ecf3ad1125d8fc53cf13729362dabd103a02202ca00023e307cfc714ada25244df0310eb24e96989abb17f36594def1a753eab01210225806ae9fb842c37d2f1b43d0b86bb7c8c8dab067910ce93fce76e60ba90ef13", "asm": "3044022020af6f98e68c1a03d83053a6e02112ecf3ad1125d8fc53cf13729362dabd103a02202ca00023e307cfc714ada25244df0310eb24e96989abb17f36594def1a753eab[ALL] 0225806ae9fb842c37d2f1b43d0b86bb7c8c8dab067910ce93fce76e60ba90ef13"}, "vout": 1, "txid": "daaf615f9f6ad052aca252641151c2f5e3c79d9d0c09a97f51892439146c8747"}], "txid": "463abef37460212c75a8d4f14d89e042f62f9e2b7bc5672421bfbf5fa47247b9", "blocktime": 1537869901, "version": 1, "confirmations": 11522, "time": 1537869901, "locktime": 542987, "vsize": 370, "size": 370}