{"hash": "ccd3bbdbba826d7533ec10b220c71a657747067e6e803ae61aa32aad4de5e1bb", "blockhash": "0000000000000000001cda96e906b7601b7a6fb1a3b62bca570a9e5d8f4b3de1", "vout": [{"scriptPubKey": {"reqSigs": 1, "hex": "00147742b3133318f69545340125436b71a90a713e14", "addresses": ["bc1qwaptxyenrrmf23f5qyj5x6m34y98z0s5cwjk9c"], "asm": "0 7742b3133318f69545340125436b71a90a713e14", "type": "witness_v0_keyhash"}, "value": 0.00199701, "n": 0}, {"scriptPubKey": {"reqSigs": 1, "hex": "76a914b7d38901d7cc97dda0d771317946b8e525bcf5f888ac", "addresses": ["1Hkz4pyrV8R1TESXDzxXFus74Rt8ZDwLE3"], "asm": "OP_DUP OP_HASH160 b7d38901d7cc97dda0d771317946b8e525bcf5f8 OP_EQUALVERIFY OP_CHECKSIG", "type": "pubkeyhash"}, "value": 0.06106764, "n": 1}], "hex": "01000000000101020c4bbc341c342130d6609722dff57d337c95928e3cbec081e3bbcccfcd07a30100000000ffffffff02150c0300000000001600147742b3133318f69545340125436b71a90a713e148c2e5d00000000001976a914b7d38901d7cc97dda0d771317946b8e525bcf5f888ac0247304402202e01808426028835b940e60404bdb92250829abf608a0b5c2835e4fad6cc0b120220169aef5b3760a26b1501db029197d87aaa44e0b3e143b72430ddccc06fc31ce8012102c2d6c47b79a4bad11e0f092cf88bc111a348132761f2d0a423b85bfd93adc03500000000", "vin": [{"txinwitness": ["304402202e01808426028835b940e60404bdb92250829abf608a0b5c2835e4fad6cc0b120220169aef5b3760a26b1501db029197d87aaa44e0b3e143b72430ddccc06fc31ce801", "02c2d6c47b79a4bad11e0f092cf88bc111a348132761f2d0a423b85bfd93adc035"], "sequence": 4294967295, "scriptSig": {"hex": "", "asm": ""}, "vout": 1, "txid": "a307cdcfccbbe381c0be3c8e92957c337df5df229760d63021341c34bc4b0c02"}], "txid": "463c823e693179e95d04880c83162a15e7551a0bbdd9499afe3db1e5f48073d0", "blocktime": 1537873282, "version": 1, "confirmations": 11484, "time": 1537873282, "locktime": 0, "vsize": 144, "size": 225}