{"hash": "463dd95c6874f7e417d64f82f248df758c43be44c348d84ae8aa5f8985ddfec3", "blockhash": "0000000000000000001e0dab787dd257d1dbfcb92a98c2207d5e1078be1f4165", "vout": [{"scriptPubKey": {"reqSigs": 1, "hex": "00144d5d674cc0291bf452788958706790600605aef0", "addresses": ["bc1qf4wkwnxq9ydlg5nc39v8qeusvqrqtthsagwhd6"], "asm": "0 4d5d674cc0291bf452788958706790600605aef0", "type": "witness_v0_keyhash"}, "value": 0.01262352, "n": 0}, {"scriptPubKey": {"reqSigs": 1, "hex": "76a91482491758a8e1a643829a7777739a1ddf51d3502e88ac", "addresses": ["1CstQQPnZaiC58XqRW2a2yXTtuvoPXMbci"], "asm": "OP_DUP OP_HASH160 82491758a8e1a643829a7777739a1ddf51d3502e OP_EQUALVERIFY OP_CHECKSIG", "type": "pubkeyhash"}, "value": 0.04158901, "n": 1}], "hex": "01000000019650dc2926dbea774e245fac9d7e69ef36a17dbc3a55c91c9a544a6473b1ddd2520000006a473044022071998ee5c5f841f2fa102593757a81c41522eaede7d671f77e4b5b0c7b543d58022005997bb3df083b5d1f839053e8b971f8f963ee3015cce4f527e46d2d083c6ecd012103b809b93160de27b2f8181359cacb4a0db447e4c20c7614ec83cda610232c1b65ffffffff0210431300000000001600144d5d674cc0291bf452788958706790600605aef0b5753f00000000001976a91482491758a8e1a643829a7777739a1ddf51d3502e88ac00000000", "vin": [{"sequence": 4294967295, "scriptSig": {"hex": "473044022071998ee5c5f841f2fa102593757a81c41522eaede7d671f77e4b5b0c7b543d58022005997bb3df083b5d1f839053e8b971f8f963ee3015cce4f527e46d2d083c6ecd012103b809b93160de27b2f8181359cacb4a0db447e4c20c7614ec83cda610232c1b65", "asm": "3044022071998ee5c5f841f2fa102593757a81c41522eaede7d671f77e4b5b0c7b543d58022005997bb3df083b5d1f839053e8b971f8f963ee3015cce4f527e46d2d083c6ecd[ALL] 03b809b93160de27b2f8181359cacb4a0db447e4c20c7614ec83cda610232c1b65"}, "vout": 82, "txid": "d2ddb173644a549a1cc9553abc7da136ef697e9dac5f244e77eadb2629dc5096"}], "txid": "463dd95c6874f7e417d64f82f248df758c43be44c348d84ae8aa5f8985ddfec3", "blocktime": 1537872475, "version": 1, "confirmations": 11486, "time": 1537872475, "locktime": 0, "vsize": 222, "size": 222}