{"hash": "463f8b4fdde42f7489f1f93818054b519375cb305d3e399e3add2f1e9f901d30", "blockhash": "00000000000000000024a2167bbff67b0be802c0b01cdd79e6331c2be6459f87", "vout": [{"scriptPubKey": {"reqSigs": 1, "hex": "76a914d51bf22417b72dda60cc6a3e185006f8c3ff1b5688ac", "addresses": ["1LRpQaCt4FBWtC2fHPiRGLh9viMWByv6SJ"], "asm": "OP_DUP OP_HASH160 d51bf22417b72dda60cc6a3e185006f8c3ff1b56 OP_EQUALVERIFY OP_CHECKSIG", "type": "pubkeyhash"}, "value": 0.0143, "n": 0}, {"scriptPubKey": {"reqSigs": 1, "hex": "76a91447f319d188a48558daa509f6e23392b5c410202688ac", "addresses": ["17ZSCZgCmnjotqTpwYW3bdugAkNxxT2hYb"], "asm": "OP_DUP OP_HASH160 47f319d188a48558daa509f6e23392b5c4102026 OP_EQUALVERIFY OP_CHECKSIG", "type": "pubkeyhash"}, "value": 0.0419938, "n": 1}], "hex": "0200000001f066f00898d79eb45d832194c3399ee3ff92a0babc8d1582ce0fe58971fafdee000000006a47304402204d1b25780ec0d39a92d2c256f9a38420d3b702cb0728fcc5eb5efeb414814c1a02200784bec4b8293e82e3236b315307cbcbf3edfba791b4803f54121ade56df27ec01210374fcad27879dae72afe081998c3df4bf6cf7c13fd7147d376520399b52c28035ffffffff02f0d11500000000001976a914d51bf22417b72dda60cc6a3e185006f8c3ff1b5688acd4134000000000001976a91447f319d188a48558daa509f6e23392b5c410202688ac00000000", "vin": [{"sequence": 4294967295, "scriptSig": {"hex": "47304402204d1b25780ec0d39a92d2c256f9a38420d3b702cb0728fcc5eb5efeb414814c1a02200784bec4b8293e82e3236b315307cbcbf3edfba791b4803f54121ade56df27ec01210374fcad27879dae72afe081998c3df4bf6cf7c13fd7147d376520399b52c28035", "asm": "304402204d1b25780ec0d39a92d2c256f9a38420d3b702cb0728fcc5eb5efeb414814c1a02200784bec4b8293e82e3236b315307cbcbf3edfba791b4803f54121ade56df27ec[ALL] 0374fcad27879dae72afe081998c3df4bf6cf7c13fd7147d376520399b52c28035"}, "vout": 0, "txid": "eefdfa7189e50fce82158dbcbaa092ffe39e39c39421835db49ed79808f066f0"}], "txid": "463f8b4fdde42f7489f1f93818054b519375cb305d3e399e3add2f1e9f901d30", "blocktime": 1537870564, "version": 2, "confirmations": 11515, "time": 1537870564, "locktime": 0, "vsize": 225, "size": 225}