{"hash": "bf3a31d954186ca81440ac72e1c6460b7bc27808e7e45bce3165630444b512ee", "blockhash": "0000000000000000000e13cef7c366c0283d82e591d1acd082e914b08063cdf1", "vout": [{"scriptPubKey": {"reqSigs": 1, "hex": "76a9148c7ab20d9dda380d2e95fa0cab3e8de1e9c77a0688ac", "addresses": ["1DonateWffyhwAjskoEwXt83pHZxhLTr8H"], "asm": "OP_DUP OP_HASH160 8c7ab20d9dda380d2e95fa0cab3e8de1e9c77a06 OP_EQUALVERIFY OP_CHECKSIG", "type": "pubkeyhash"}, "value": 7.83e-06, "n": 0}], "hex": "02000000000101af3bc526df63dbdca153d5dfe87f51aac996ba9d0240a0162b903b43b7b7077400000000171600140657dafca00daf003a83cda0ebf7bc92826e1d9bffffffff010f030000000000001976a9148c7ab20d9dda380d2e95fa0cab3e8de1e9c77a0688ac02483045022100a0b3c810fcde98833bac814b0e844435d3d86457e77e0085786f40bc4e547d3e02201e78946eb1a90a271242f302a1ae55eb23a82709da6bdd31110d3f466c6afb240121027c3073dfeff8ff0e32763c19800ccd39ca33114c3582f49defc282171921904d00000000", "vin": [{"txinwitness": ["3045022100a0b3c810fcde98833bac814b0e844435d3d86457e77e0085786f40bc4e547d3e02201e78946eb1a90a271242f302a1ae55eb23a82709da6bdd31110d3f466c6afb2401", "027c3073dfeff8ff0e32763c19800ccd39ca33114c3582f49defc282171921904d"], "sequence": 4294967295, "scriptSig": {"hex": "1600140657dafca00daf003a83cda0ebf7bc92826e1d9b", "asm": "00140657dafca00daf003a83cda0ebf7bc92826e1d9b"}, "vout": 0, "txid": "7407b7b7433b902b16a040029dba96c9aa517fe8dfd553a1dcdb63df26c53baf"}], "txid": "46403b26e15af98bfadbd7a2c09478006ba97257cf4cabade3af009920c93937", "blocktime": 1537871767, "version": 2, "confirmations": 11495, "time": 1537871767, "locktime": 0, "vsize": 136, "size": 218}