{"hash": "7dbbe954ef6a3aec5dc092000ac3accaeee3331e9e90adaa2d99af8179c2a2e4", "blockhash": "00000000000000000018f53835495a110e01622372bf6ae95dc86f2b0ab887b0", "vout": [{"scriptPubKey": {"reqSigs": 1, "hex": "a9147fda6f01197d17a0df3a72d1fa4e1744a72cbcb087", "addresses": ["3DM3QwStifrpQMbmFR6VfkT4Ud1Ghn5VGp"], "asm": "OP_HASH160 7fda6f01197d17a0df3a72d1fa4e1744a72cbcb0 OP_EQUAL", "type": "scripthash"}, "value": 0.00061233, "n": 0}, {"scriptPubKey": {"reqSigs": 1, "hex": "00140934dfd4d8a796ab7116070e3e3538561910909e", "addresses": ["bc1qpy6dl4xc57t2kugkqu8rudfc2cv3pyy70403jj"], "asm": "0 0934dfd4d8a796ab7116070e3e3538561910909e", "type": "witness_v0_keyhash"}, "value": 1.186e-05, "n": 1}], "hex": "01000000000101fe9806bf9b52431a5e85744c80aeec8feb25376b373e7c5dae6e491bf8ff2dd300000000171600140e82cb5a30c6f6b17e9f8e3111bc0e5833a1f0f4ffffffff0231ef00000000000017a9147fda6f01197d17a0df3a72d1fa4e1744a72cbcb087a2040000000000001600140934dfd4d8a796ab7116070e3e3538561910909e024830450221009c873ebef18bee80e367e97f1e8e556c59e2cce069001c7f47bc98092213571202200a704e87cf7d4e78ffcea49c7c8a0108a76bd0995b61bf238663d71875435e7101210350e086d4aa96b2475f5ae5506347d13fb21bb968cd13274269e8b5e510687ac700000000", "vin": [{"txinwitness": ["30450221009c873ebef18bee80e367e97f1e8e556c59e2cce069001c7f47bc98092213571202200a704e87cf7d4e78ffcea49c7c8a0108a76bd0995b61bf238663d71875435e7101", "0350e086d4aa96b2475f5ae5506347d13fb21bb968cd13274269e8b5e510687ac7"], "sequence": 4294967295, "scriptSig": {"hex": "1600140e82cb5a30c6f6b17e9f8e3111bc0e5833a1f0f4", "asm": "00140e82cb5a30c6f6b17e9f8e3111bc0e5833a1f0f4"}, "vout": 0, "txid": "d32dfff81b496eae5d7c3e376b3725eb8fecae804c74855e1a43529bbf0698fe"}], "txid": "4641606c74bf9a261709909b3bc9375b356189abe1fd31dc41f2ba9b4f090f86", "blocktime": 1537870928, "version": 1, "confirmations": 11512, "time": 1537870928, "locktime": 0, "vsize": 165, "size": 247}