{"hash": "3844e7493bf6a8c1f9cff1ef761616d63ae70aa85b7f2a5052e1fed59cd2352c", "blockhash": "00000000000000000018f53835495a110e01622372bf6ae95dc86f2b0ab887b0", "vout": [{"scriptPubKey": {"reqSigs": 1, "hex": "a9147e669a41aa5c4ee4c824898242a431a6319b073887", "addresses": ["3DDMyfZ9YSkGvwGozu8xLzRcaT6rrqJNba"], "asm": "OP_HASH160 7e669a41aa5c4ee4c824898242a431a6319b0738 OP_EQUAL", "type": "scripthash"}, "value": 0.0114293, "n": 0}, {"scriptPubKey": {"reqSigs": 1, "hex": "76a914f40ee28c7bc5f3620dc8de0ff2b840381e38a47b88ac", "addresses": ["1PFTi2pyoKtqYs4j1iT6oUQztQLGXAG8Sa"], "asm": "OP_DUP OP_HASH160 f40ee28c7bc5f3620dc8de0ff2b840381e38a47b OP_EQUALVERIFY OP_CHECKSIG", "type": "pubkeyhash"}, "value": 0.01660389, "n": 1}], "hex": "02000000000103309f9cc977fc89dfa3ee0be7a9218415e406d058c3277f1a91adfba05a9357f4950000006a473044022048b8da7d5f696057adc246f78ebb1227934fd6144d1cbb9aad34171b0f1be3c302204ecf64575764ea98b65e6588411ade9ef8867e0a05b1d35f28cba97c574aca940121023ed9ab6677999daf21556ec0e19f634d1ae56a7be260822e855ba5d646e180a4feffffff5ae83037d64c434f73855b61c75be18c312c7cf53bca43057058432800e83dfd0000000017160014135c0b643a5b1706259635bcdfcd3012cbbff39ffeffffff5d500b81072d828b3e8679e89099ca64f4286111edd7f47f90bb2e06f9fd459c7100000017160014938adc828cb8b995b82f6d118df31634dfa1380ffeffffff02927011000000000017a9147e669a41aa5c4ee4c824898242a431a6319b073887e5551900000000001976a914f40ee28c7bc5f3620dc8de0ff2b840381e38a47b88ac0002483045022100f07f2112a3991a1b070356476fc63e275137fc18c09b1851fe42c6342b2613ec022051cd7283afc191ad2b676bf85df6cba258c446004dedadbf17608ec5fb63f1950121039b2f1cb2928c6497445c9a34097a5cf3f342e5076dc28d5a27113b786d55f24402473044022020ae1bb3e402ca333421b3e4a33be59ca873230f2bd6accf9c27832fb9b5e9040220369e7b5365f204e07ac1798b011ef689760643c09ab6d83f590f19672c74a3d0012103d6d1f237736df78916d4f7ec4904bf7812d14bd407a11627dacbfe043856c1940e490800", "vin": [{"sequence": 4294967294, "scriptSig": {"hex": "473044022048b8da7d5f696057adc246f78ebb1227934fd6144d1cbb9aad34171b0f1be3c302204ecf64575764ea98b65e6588411ade9ef8867e0a05b1d35f28cba97c574aca940121023ed9ab6677999daf21556ec0e19f634d1ae56a7be260822e855ba5d646e180a4", "asm": "3044022048b8da7d5f696057adc246f78ebb1227934fd6144d1cbb9aad34171b0f1be3c302204ecf64575764ea98b65e6588411ade9ef8867e0a05b1d35f28cba97c574aca94[ALL] 023ed9ab6677999daf21556ec0e19f634d1ae56a7be260822e855ba5d646e180a4"}, "vout": 149, "txid": "f457935aa0fbad911a7f27c358d006e4158421a9e70beea3df89fc77c99c9f30"}, {"txinwitness": ["3045022100f07f2112a3991a1b070356476fc63e275137fc18c09b1851fe42c6342b2613ec022051cd7283afc191ad2b676bf85df6cba258c446004dedadbf17608ec5fb63f19501", "039b2f1cb2928c6497445c9a34097a5cf3f342e5076dc28d5a27113b786d55f244"], "sequence": 4294967294, "scriptSig": {"hex": "160014135c0b643a5b1706259635bcdfcd3012cbbff39f", "asm": "0014135c0b643a5b1706259635bcdfcd3012cbbff39f"}, "vout": 0, "txid": "fd3de800284358700543ca3bf57c2c318ce15bc7615b85734f434cd63730e85a"}, {"txinwitness": ["3044022020ae1bb3e402ca333421b3e4a33be59ca873230f2bd6accf9c27832fb9b5e9040220369e7b5365f204e07ac1798b011ef689760643c09ab6d83f590f19672c74a3d001", "03d6d1f237736df78916d4f7ec4904bf7812d14bd407a11627dacbfe043856c194"], "sequence": 4294967294, "scriptSig": {"hex": "160014938adc828cb8b995b82f6d118df31634dfa1380f", "asm": "0014938adc828cb8b995b82f6d118df31634dfa1380f"}, "vout": 113, "txid": "9c45fdf9062ebb907ff4d7ed116128f464ca9990e879863e8b822d07810b505d"}], "txid": "46452db913ba1de4c6a40a6a546b67fd70cef92a3222038f9106d97401f9289a", "blocktime": 1537870928, "version": 2, "confirmations": 11514, "time": 1537870928, "locktime": 542990, "vsize": 406, "size": 569}