{"hash": "eebe99ee5c5bb04ce4d1079cbaf1bf4bc7544c162facacf36a8f9a832614172d", "blockhash": "00000000000000000017f5eb5941039fbcee6240d03bc1f2f8e35350df66a1d8", "vout": [{"scriptPubKey": {"reqSigs": 1, "hex": "a914b9b73028a641169eff998d19dc1757ad585db8b787", "addresses": ["3JczPAb4xArwfroYxgn7uXAx6z9VTvMBwJ"], "asm": "OP_HASH160 b9b73028a641169eff998d19dc1757ad585db8b7 OP_EQUAL", "type": "scripthash"}, "value": 0.0005, "n": 0}, {"scriptPubKey": {"reqSigs": 1, "hex": "a9141d7370ccde4590204155e4074f69743a8e4fac0287", "addresses": ["34Njp4ZKtmCDfqqps26wHBYQQGUo2pGkLi"], "asm": "OP_HASH160 1d7370ccde4590204155e4074f69743a8e4fac02 OP_EQUAL", "type": "scripthash"}, "value": 0.00040849, "n": 1}], "hex": "010000000001024f37d4a973392c0c9fb67011f69328dc644c2fd8eda32cbad2f397bde1321ce301000000232200202a9a1aa43dd52fca361d638a9bb1c7c7a7b32bed598a04104268b8ecbdbfe96fffffffffd60e7d342e9de92ebc8ed4f4ef2faabe4f5ca169146c3d258261b4e1613b8db00100000023220020f63dfc12340f6360d0251c22746d6b56093e3243e96ca012a65484a5d9cf0ec0ffffffff0250c300000000000017a914b9b73028a641169eff998d19dc1757ad585db8b787919f00000000000017a9141d7370ccde4590204155e4074f69743a8e4fac028704004730440220660d3dffcf1f93a17b564753075170dbfe31229b045c39964e0f5e882a479dac022022fc955e12163e3ac721bce6261a459261bd8e97208cba72d7cecfece08461ff01483045022100e977b095951619620dc519209368fe2db25aeee76de859718afa865792b8667a02206408a05344710998abb7c11ce9e1a286e7f6e5d82d58123cc93e3f5d1a9af8cd0147522103ea39afa13bfc0b16775c1ffdd58dbb69a77441d8211cfd208f16ac7437c451312103338f346cab6ba87fe940591a03ac234be06520c5ab386d4b6632e8eef0d0db7652ae040047304402205997e6019d191335619120822dcbd727710e6fadd5ba17868519541d0bcab5cd0220357196acc964a648659c7723ad932697a3caf14d98bbe1d0f24b1d6eb9aac00a0147304402207679629c925ce3dd31b9219a070c2a6900118fe4d3768137759691c56751dd4f022017dca58bcce2b741eb403b9f9219f74bb0cc484806b13c2a2161341f930ca6890147522102097067a6a0cc130a9a6f6577b47bf369b840a79de31cd7457187994266b1bb7c2103338f346cab6ba87fe940591a03ac234be06520c5ab386d4b6632e8eef0d0db7652ae00000000", "vin": [{"txinwitness": ["", "30440220660d3dffcf1f93a17b564753075170dbfe31229b045c39964e0f5e882a479dac022022fc955e12163e3ac721bce6261a459261bd8e97208cba72d7cecfece08461ff01", "3045022100e977b095951619620dc519209368fe2db25aeee76de859718afa865792b8667a02206408a05344710998abb7c11ce9e1a286e7f6e5d82d58123cc93e3f5d1a9af8cd01", "522103ea39afa13bfc0b16775c1ffdd58dbb69a77441d8211cfd208f16ac7437c451312103338f346cab6ba87fe940591a03ac234be06520c5ab386d4b6632e8eef0d0db7652ae"], "sequence": 4294967295, "scriptSig": {"hex": "2200202a9a1aa43dd52fca361d638a9bb1c7c7a7b32bed598a04104268b8ecbdbfe96f", "asm": "00202a9a1aa43dd52fca361d638a9bb1c7c7a7b32bed598a04104268b8ecbdbfe96f"}, "vout": 1, "txid": "e31c32e1bd97f3d2ba2ca3edd82f4c64dc2893f61170b69f0c2c3973a9d4374f"}, {"txinwitness": ["", "304402205997e6019d191335619120822dcbd727710e6fadd5ba17868519541d0bcab5cd0220357196acc964a648659c7723ad932697a3caf14d98bbe1d0f24b1d6eb9aac00a01", "304402207679629c925ce3dd31b9219a070c2a6900118fe4d3768137759691c56751dd4f022017dca58bcce2b741eb403b9f9219f74bb0cc484806b13c2a2161341f930ca68901", "522102097067a6a0cc130a9a6f6577b47bf369b840a79de31cd7457187994266b1bb7c2103338f346cab6ba87fe940591a03ac234be06520c5ab386d4b6632e8eef0d0db7652ae"], "sequence": 4294967295, "scriptSig": {"hex": "220020f63dfc12340f6360d0251c22746d6b56093e3243e96ca012a65484a5d9cf0ec0", "asm": "0020f63dfc12340f6360d0251c22746d6b56093e3243e96ca012a65484a5d9cf0ec0"}, "vout": 1, "txid": "b08d3b61e1b46182253d6c1469a15c4fbeaa2feff4d48ebc2ee99d2e347d0ed6"}], "txid": "4648ef3c4507784b1b57d4399f519fd454989f5e90182e85dd77d5ab36d8355e", "blocktime": 1537874412, "version": 1, "confirmations": 11468, "time": 1537874412, "locktime": 0, "vsize": 336, "size": 665}