{"hash": "24c0b6b7ab7d6563e1bf06eefcbca9c3d633cd055ac326524715d1eeebea88c0", "blockhash": "0000000000000000001e0dab787dd257d1dbfcb92a98c2207d5e1078be1f4165", "vout": [{"scriptPubKey": {"reqSigs": 1, "hex": "a91494fbb5bb90080671770402a432fe22913e4054dd87", "addresses": ["3FGmU3YRsXGPbKyPGgaTBkq4aam4zHnUCE"], "asm": "OP_HASH160 94fbb5bb90080671770402a432fe22913e4054dd OP_EQUAL", "type": "scripthash"}, "value": 0.02312583, "n": 0}, {"scriptPubKey": {"reqSigs": 1, "hex": "a914e7cd09d7737e3ae1e651c046c9d35b45ab43759087", "addresses": ["3NpfeBF4GMvpGbNTKfYzSUKi8X2YtrXyWv"], "asm": "OP_HASH160 e7cd09d7737e3ae1e651c046c9d35b45ab437590 OP_EQUAL", "type": "scripthash"}, "value": 0.00059481, "n": 1}], "hex": "01000000000101bf29873d308a9f831d4b32157ed4c9bb05b8a5f05cc57eea9b11f54d78def0780000000017160014f9b83846e338f4ca5777a1dbd2d32767af0b3eb6ffffffff02874923000000000017a91494fbb5bb90080671770402a432fe22913e4054dd8759e800000000000017a914e7cd09d7737e3ae1e651c046c9d35b45ab437590870247304402205caaccccc80cf9bcfbca61f0661fdbab2007af9a91fc85dd5d55bf66ffbcf5550220067dc5658bacca95d7064f6e36c588f67d1226eab1de7c472387bc1cd2f7baf0012102ac4cb639b02235f17135dd4b6f152f07b7bd93b2887f97cc4deae71ce8242af300000000", "vin": [{"txinwitness": ["304402205caaccccc80cf9bcfbca61f0661fdbab2007af9a91fc85dd5d55bf66ffbcf5550220067dc5658bacca95d7064f6e36c588f67d1226eab1de7c472387bc1cd2f7baf001", "02ac4cb639b02235f17135dd4b6f152f07b7bd93b2887f97cc4deae71ce8242af3"], "sequence": 4294967295, "scriptSig": {"hex": "160014f9b83846e338f4ca5777a1dbd2d32767af0b3eb6", "asm": "0014f9b83846e338f4ca5777a1dbd2d32767af0b3eb6"}, "vout": 0, "txid": "78f0de784df5119bea7ec55cf0a5b805bbc9d47e15324b1d839f8a303d8729bf"}], "txid": "4649c78642616dd4a0c1b9a7efa3e5609a8c09d6832e7b1e9240792d98adc323", "blocktime": 1537872475, "version": 1, "confirmations": 11486, "time": 1537872475, "locktime": 0, "vsize": 166, "size": 247}