{"hash": "465239ac1103f1fceb4a99d611b7120b15c58beedb8ffedbf5251d3d177486d0", "blockhash": "0000000000000000000e13cef7c366c0283d82e591d1acd082e914b08063cdf1", "vout": [{"scriptPubKey": {"reqSigs": 1, "hex": "76a914d5f83a40fe1595345e2eb9ebc4e31a6e43d01f3b88ac", "addresses": ["1LWNJ1jkbjPmTCvi9SLEhRkvHk3gQoHVJR"], "asm": "OP_DUP OP_HASH160 d5f83a40fe1595345e2eb9ebc4e31a6e43d01f3b OP_EQUALVERIFY OP_CHECKSIG", "type": "pubkeyhash"}, "value": 0.00214273, "n": 0}, {"scriptPubKey": {"reqSigs": 1, "hex": "76a91429366ee3f63a19805470ce252ea9b478492d6cc488ac", "addresses": ["14kuuwy8WArGqDfd6VqUbdjiKwzCaLcCYA"], "asm": "OP_DUP OP_HASH160 29366ee3f63a19805470ce252ea9b478492d6cc4 OP_EQUALVERIFY OP_CHECKSIG", "type": "pubkeyhash"}, "value": 0.02813614, "n": 1}], "hex": "010000000135533875f0b1ffcdc98580065748503039e3a4c39ccbbebac3ad251659286929000000006b483045022100c7477266003d51017b36d4c81be43b92d3b1927a514fefb53cde0e669c5b12b702204b148b5486757df031a9fc8ade3684f0195d47bbec2812e4e0653505b4f906e8012102481c40209ea460c7f753d41e2da158fd77f84c321aa3d063903e7930be158aebffffffff0201450300000000001976a914d5f83a40fe1595345e2eb9ebc4e31a6e43d01f3b88acaeee2a00000000001976a91429366ee3f63a19805470ce252ea9b478492d6cc488ac00000000", "vin": [{"sequence": 4294967295, "scriptSig": {"hex": "483045022100c7477266003d51017b36d4c81be43b92d3b1927a514fefb53cde0e669c5b12b702204b148b5486757df031a9fc8ade3684f0195d47bbec2812e4e0653505b4f906e8012102481c40209ea460c7f753d41e2da158fd77f84c321aa3d063903e7930be158aeb", "asm": "3045022100c7477266003d51017b36d4c81be43b92d3b1927a514fefb53cde0e669c5b12b702204b148b5486757df031a9fc8ade3684f0195d47bbec2812e4e0653505b4f906e8[ALL] 02481c40209ea460c7f753d41e2da158fd77f84c321aa3d063903e7930be158aeb"}, "vout": 0, "txid": "296928591625adc3babecb9cc3a4e33930504857068085c9cdffb1f075385335"}], "txid": "465239ac1103f1fceb4a99d611b7120b15c58beedb8ffedbf5251d3d177486d0", "blocktime": 1537871767, "version": 1, "confirmations": 11495, "time": 1537871767, "locktime": 0, "vsize": 226, "size": 226}