{"hash": "46609a93c96f603f04a9c0daffd490c17391e867543f75459fe34faeca0b7601", "blockhash": "0000000000000000001e0dab787dd257d1dbfcb92a98c2207d5e1078be1f4165", "vout": [{"scriptPubKey": {"reqSigs": 1, "hex": "a9148b137ac92ef76cae908b28f6aa9b874906fd84e687", "addresses": ["3ENPBgCtJtF86fArtGwDBLvqaJkqGAgzdv"], "asm": "OP_HASH160 8b137ac92ef76cae908b28f6aa9b874906fd84e6 OP_EQUAL", "type": "scripthash"}, "value": 0.00108522, "n": 0}], "hex": "0100000001851859ec11175af6f05ae00b8c5602e1f2d562f222c3205866f23f05c3be3bba010000006b483045022100c1a27271915c55140f678fa5392a05bd774f521f0cc80001285b3ae5745661c702204918369fc3c201ef3047e286de44ba37bb44816ecda562a7ad76841db163575f0121035123906b8fd62d25e84260ecc3dcc710781b2b8c2c8279af63b039cebf55232affffffff01eaa701000000000017a9148b137ac92ef76cae908b28f6aa9b874906fd84e68700000000", "vin": [{"sequence": 4294967295, "scriptSig": {"hex": "483045022100c1a27271915c55140f678fa5392a05bd774f521f0cc80001285b3ae5745661c702204918369fc3c201ef3047e286de44ba37bb44816ecda562a7ad76841db163575f0121035123906b8fd62d25e84260ecc3dcc710781b2b8c2c8279af63b039cebf55232a", "asm": "3045022100c1a27271915c55140f678fa5392a05bd774f521f0cc80001285b3ae5745661c702204918369fc3c201ef3047e286de44ba37bb44816ecda562a7ad76841db163575f[ALL] 035123906b8fd62d25e84260ecc3dcc710781b2b8c2c8279af63b039cebf55232a"}, "vout": 1, "txid": "ba3bbec3053ff2665820c322f262d5f2e102568c0be05af0f65a1711ec591885"}], "txid": "46609a93c96f603f04a9c0daffd490c17391e867543f75459fe34faeca0b7601", "blocktime": 1537872475, "version": 1, "confirmations": 11486, "time": 1537872475, "locktime": 0, "vsize": 190, "size": 190}