{"hash": "18f98f616127de837b3ab0ae7745a873f608d77d851511b902baf65c36374ae3", "blockhash": "0000000000000000000baef3f32e3676a92c3b2e5da21b426e4f302fc371ce76", "vout": [{"scriptPubKey": {"reqSigs": 1, "hex": "a91434bf4c524440983afa1bb6357682c519b6e2b2a887", "addresses": ["36VvE9RYyoNsZtJ46XY7oaip1byj9hKxrm"], "asm": "OP_HASH160 34bf4c524440983afa1bb6357682c519b6e2b2a8 OP_EQUAL", "type": "scripthash"}, "value": 0.00040655, "n": 0}, {"scriptPubKey": {"reqSigs": 1, "hex": "a9140136c10502ae5684e49b302f1af10f145f74b6b787", "addresses": ["31oSC7GvQMTZoouyNLBEHVRDhXEFbVhSmh"], "asm": "OP_HASH160 0136c10502ae5684e49b302f1af10f145f74b6b7 OP_EQUAL", "type": "scripthash"}, "value": 0.02858365, "n": 1}], "hex": "01000000000101bb81549e3c36bced50284bcc9b29abfacc0b057e0aa98ab723f28398460cfa600100000023220020efd02f10cc1074c68ec89b458572a71ce6bfc8a17595d8fde80232e47279444bffffffff02cf9e00000000000017a91434bf4c524440983afa1bb6357682c519b6e2b2a8877d9d2b000000000017a9140136c10502ae5684e49b302f1af10f145f74b6b7870400473044022024f40a2d7466afc4f4c7067b94e4745f499a11ad4ad4b9382921d858c18781d80220080232e63d5dc569c08607475cb78170805967233c79593a41deeee8006338bb01483045022100f6b7eab9aab388e5267620fc5ce8c4bc2742eb8aedf019bb6a2135473e1c0b90022001e9c501a6925eb150f9b620f771d01bda991e688a1df81149a403af6d0154b30147522103f985ea61f461801f3abc09ebed98ce7e20804639a64616f639f492883ea4e8d62103871fc2ca08e6950b38867e8e6a0e94ee625223d3aa0df5c65f414c6d784467e252ae00000000", "vin": [{"txinwitness": ["", "3044022024f40a2d7466afc4f4c7067b94e4745f499a11ad4ad4b9382921d858c18781d80220080232e63d5dc569c08607475cb78170805967233c79593a41deeee8006338bb01", "3045022100f6b7eab9aab388e5267620fc5ce8c4bc2742eb8aedf019bb6a2135473e1c0b90022001e9c501a6925eb150f9b620f771d01bda991e688a1df81149a403af6d0154b301", "522103f985ea61f461801f3abc09ebed98ce7e20804639a64616f639f492883ea4e8d62103871fc2ca08e6950b38867e8e6a0e94ee625223d3aa0df5c65f414c6d784467e252ae"], "sequence": 4294967295, "scriptSig": {"hex": "220020efd02f10cc1074c68ec89b458572a71ce6bfc8a17595d8fde80232e47279444b", "asm": "0020efd02f10cc1074c68ec89b458572a71ce6bfc8a17595d8fde80232e47279444b"}, "vout": 1, "txid": "60fa0c469883f223b78aa90a7e050bccfaab299bcc4b2850edbc363c9e5481bb"}], "txid": "46678497da520389201c17a50cdfa5ed635d6497be8da5ffe2a9527dffb4e026", "blocktime": 1537876114, "version": 1, "confirmations": 11463, "time": 1537876114, "locktime": 0, "vsize": 206, "size": 371}