{"hash": "466eafb2356b980ccb36415f942c2531c01a7fbf402cc9314838b026c0d01646", "blockhash": "00000000000000000004ffacab907a6b429b9a5745fa0b75af4234bf69dd7176", "vout": [{"scriptPubKey": {"reqSigs": 1, "hex": "a9148e4717731931513e3f0fac125d0696c4d74746e487", "addresses": ["3EfK3KChKKv2ExSwXkEAwpYiekX9v16Vwx"], "asm": "OP_HASH160 8e4717731931513e3f0fac125d0696c4d74746e4 OP_EQUAL", "type": "scripthash"}, "value": 0.20685175, "n": 0}, {"scriptPubKey": {"reqSigs": 1, "hex": "76a91426f21e1ac05b0e5914f170991ba576704af37aa288ac", "addresses": ["14Yviv59PscWUV6Qq5L1dX2JWMjV76QdwD"], "asm": "OP_DUP OP_HASH160 26f21e1ac05b0e5914f170991ba576704af37aa2 OP_EQUALVERIFY OP_CHECKSIG", "type": "pubkeyhash"}, "value": 0.45200579, "n": 1}], "hex": "0100000001fd08de530dc50761237168e7493d3c8143c475957fc6ae17aed88a7cc9a9b461010000006b483045022100861d56460340fce683fabc00ace5b14cf8fe45e59a64adbcb1e7f0853208d26502205fc362de31035d8b58bd7575454b45842585a0e0bb2133cd9c7d1dd13c82d782012102e653b5ea18a562c452285af03408f2f890a219cff54502da69f62a4e5d06b033ffffffff0277a13b010000000017a9148e4717731931513e3f0fac125d0696c4d74746e487c3b4b102000000001976a91426f21e1ac05b0e5914f170991ba576704af37aa288ac00000000", "vin": [{"sequence": 4294967295, "scriptSig": {"hex": "483045022100861d56460340fce683fabc00ace5b14cf8fe45e59a64adbcb1e7f0853208d26502205fc362de31035d8b58bd7575454b45842585a0e0bb2133cd9c7d1dd13c82d782012102e653b5ea18a562c452285af03408f2f890a219cff54502da69f62a4e5d06b033", "asm": "3045022100861d56460340fce683fabc00ace5b14cf8fe45e59a64adbcb1e7f0853208d26502205fc362de31035d8b58bd7575454b45842585a0e0bb2133cd9c7d1dd13c82d782[ALL] 02e653b5ea18a562c452285af03408f2f890a219cff54502da69f62a4e5d06b033"}, "vout": 1, "txid": "61b4a9c97c8ad8ae17aec67f9575c443813c3d49e76871236107c50d53de08fd"}], "txid": "466eafb2356b980ccb36415f942c2531c01a7fbf402cc9314838b026c0d01646", "blocktime": 1537875543, "version": 1, "confirmations": 11464, "time": 1537875543, "locktime": 0, "vsize": 224, "size": 224}