{"hash": "0cb6633681382a7de8c176722fb036818b2f26764b9abb7310aaf9c652580b96", "blockhash": "0000000000000000001e0dab787dd257d1dbfcb92a98c2207d5e1078be1f4165", "vout": [{"scriptPubKey": {"reqSigs": 1, "hex": "76a9144d0f583e7240f0f568481a3554217d92a07f1a2d88ac", "addresses": ["182TQwVmsLqHzwQZVoQe6w59dtZeDXva7c"], "asm": "OP_DUP OP_HASH160 4d0f583e7240f0f568481a3554217d92a07f1a2d OP_EQUALVERIFY OP_CHECKSIG", "type": "pubkeyhash"}, "value": 0.00634444, "n": 0}, {"scriptPubKey": {"reqSigs": 1, "hex": "0014c13c0c7ac35da1eb5b611708d008392c899f50bf", "addresses": ["bc1qcy7qc7krtks7kkmpzuydqzpe9jye759lzgxjx4"], "asm": "0 c13c0c7ac35da1eb5b611708d008392c899f50bf", "type": "witness_v0_keyhash"}, "value": 8.573e-05, "n": 1}], "hex": "01000000000101d25b90341e09880cc43211cc30d6a41f2ba9bb792981216779eb0540a4e5f0fe29000000171600142cfe96cb915392db00157ea85e0646bb5e097658ffffffff024cae0900000000001976a9144d0f583e7240f0f568481a3554217d92a07f1a2d88ac7d21000000000000160014c13c0c7ac35da1eb5b611708d008392c899f50bf02483045022100c225a6310b1b019f5c28c9693692d4359a0553f1c7e484ac4d4a4a113e7ff12a02205d3fb459da0ae4bca7fa8508478f8ddfba117d3e44f960d2513b8fccc2b12d2a012102e5f25eafc66b4382ceb2dece9aad8e0ca77daa45611070ecb38bad6a205cb28000000000", "vin": [{"txinwitness": ["3045022100c225a6310b1b019f5c28c9693692d4359a0553f1c7e484ac4d4a4a113e7ff12a02205d3fb459da0ae4bca7fa8508478f8ddfba117d3e44f960d2513b8fccc2b12d2a01", "02e5f25eafc66b4382ceb2dece9aad8e0ca77daa45611070ecb38bad6a205cb280"], "sequence": 4294967295, "scriptSig": {"hex": "1600142cfe96cb915392db00157ea85e0646bb5e097658", "asm": "00142cfe96cb915392db00157ea85e0646bb5e097658"}, "vout": 41, "txid": "fef0e5a44005eb796721812979bba92b1fa4d630cc1132c40c88091e34905bd2"}], "txid": "4679f6b1556fadb560daf51e1a79ed6e2982e521f3563bef9249b34575b1274a", "blocktime": 1537872475, "version": 1, "confirmations": 11487, "time": 1537872475, "locktime": 0, "vsize": 167, "size": 249}