{"hash": "467e0bfb08248bfafc9ab75657d7aed76af04a82a2b2fd20a71914c1eb2a3073", "blockhash": "0000000000000000001cda96e906b7601b7a6fb1a3b62bca570a9e5d8f4b3de1", "vout": [{"scriptPubKey": {"reqSigs": 1, "hex": "76a914b842f595046999749d43ebea0e9f099d9945893388ac", "addresses": ["1HoHYiEPRt5gjtxoTh8pi3jAVNiGGJHBUQ"], "asm": "OP_DUP OP_HASH160 b842f595046999749d43ebea0e9f099d99458933 OP_EQUALVERIFY OP_CHECKSIG", "type": "pubkeyhash"}, "value": 0.00063404, "n": 0}, {"scriptPubKey": {"reqSigs": 1, "hex": "76a9149897d7cd8d76adbedbd4de4605c4caab61ebcd1288ac", "addresses": ["1EuqcPpZWzarWbXsnBBXaQ4aqTAbk6gMcx"], "asm": "OP_DUP OP_HASH160 9897d7cd8d76adbedbd4de4605c4caab61ebcd12 OP_EQUALVERIFY OP_CHECKSIG", "type": "pubkeyhash"}, "value": 0.03965769, "n": 1}], "hex": "0100000001bdda60b2ca874dff3b6f0905d0a9a5cd241c77c303194754942a6856bb05af127d0000006b4830450221008225b1fa5a237831327c811689fd22eaab705a7e94d565a710bc0139e491a42702201ad039dc25a3697755352e0378c4ec80fffbb14ee78182c22668be07258d29100121034ac443b0fca2d26006db842e9926c904918ecdc8cfe83b3200458a5dc1279b6effffffff02acf70000000000001976a914b842f595046999749d43ebea0e9f099d9945893388ac49833c00000000001976a9149897d7cd8d76adbedbd4de4605c4caab61ebcd1288ac00000000", "vin": [{"sequence": 4294967295, "scriptSig": {"hex": "4830450221008225b1fa5a237831327c811689fd22eaab705a7e94d565a710bc0139e491a42702201ad039dc25a3697755352e0378c4ec80fffbb14ee78182c22668be07258d29100121034ac443b0fca2d26006db842e9926c904918ecdc8cfe83b3200458a5dc1279b6e", "asm": "30450221008225b1fa5a237831327c811689fd22eaab705a7e94d565a710bc0139e491a42702201ad039dc25a3697755352e0378c4ec80fffbb14ee78182c22668be07258d2910[ALL] 034ac443b0fca2d26006db842e9926c904918ecdc8cfe83b3200458a5dc1279b6e"}, "vout": 125, "txid": "12af05bb56682a9454471903c3771c24cda5a9d005096f3bff4d87cab260dabd"}], "txid": "467e0bfb08248bfafc9ab75657d7aed76af04a82a2b2fd20a71914c1eb2a3073", "blocktime": 1537873282, "version": 1, "confirmations": 11485, "time": 1537873282, "locktime": 0, "vsize": 226, "size": 226}