{"hash": "4680898b47ff8ccec4b45f7f6875e344fd5056f4c20272fbc19796d6d90dafeb", "blockhash": "0000000000000000001cda96e906b7601b7a6fb1a3b62bca570a9e5d8f4b3de1", "vout": [{"scriptPubKey": {"reqSigs": 1, "hex": "a914d27a79cf9f79fe1b659ddeb9c0c1ffaddeba735987", "addresses": ["3LsvYbcb3CAr6ZvLaNrmtA4LT5bxBRno5K"], "asm": "OP_HASH160 d27a79cf9f79fe1b659ddeb9c0c1ffaddeba7359 OP_EQUAL", "type": "scripthash"}, "value": 0.05882487, "n": 0}], "hex": "010000000126c837bbd904f9671e727f1053124336e1ea244df00ad0fab47044d3baeb5934110000006a4730440220337249e6c6942343c4f0a9905c137a05aeb9c28ae25c506286f0ce11f7fc01ba02205c58ab9b78853274ff511d9e1d8723dedd6c3076286b53f069db930da790daa90121031241e47f0cb7276d95a57bcb0c2b48428842f9241f7bf53a20add35aa5732026fdffffff0177c259000000000017a914d27a79cf9f79fe1b659ddeb9c0c1ffaddeba73598713490800", "vin": [{"sequence": 4294967293, "scriptSig": {"hex": "4730440220337249e6c6942343c4f0a9905c137a05aeb9c28ae25c506286f0ce11f7fc01ba02205c58ab9b78853274ff511d9e1d8723dedd6c3076286b53f069db930da790daa90121031241e47f0cb7276d95a57bcb0c2b48428842f9241f7bf53a20add35aa5732026", "asm": "30440220337249e6c6942343c4f0a9905c137a05aeb9c28ae25c506286f0ce11f7fc01ba02205c58ab9b78853274ff511d9e1d8723dedd6c3076286b53f069db930da790daa9[ALL] 031241e47f0cb7276d95a57bcb0c2b48428842f9241f7bf53a20add35aa5732026"}, "vout": 17, "txid": "3459ebbad34470b4fad00af04d24eae136431253107f721e67f904d9bb37c826"}], "txid": "4680898b47ff8ccec4b45f7f6875e344fd5056f4c20272fbc19796d6d90dafeb", "blocktime": 1537873282, "version": 1, "confirmations": 11484, "time": 1537873282, "locktime": 542995, "vsize": 189, "size": 189}