{"hash": "4681ee20e8d304449da62647a80f47a0e99fd89a1eaee7748785150a4e2a03be", "blockhash": "0000000000000000000e13cef7c366c0283d82e591d1acd082e914b08063cdf1", "vout": [{"scriptPubKey": {"reqSigs": 1, "hex": "76a9146e0e5e5ae065f06c4cc77a217e1fc68fa376911988ac", "addresses": ["1B2vYSwzUvNbyNEnxeXChj7Tnzw1AgSdQM"], "asm": "OP_DUP OP_HASH160 6e0e5e5ae065f06c4cc77a217e1fc68fa3769119 OP_EQUALVERIFY OP_CHECKSIG", "type": "pubkeyhash"}, "value": 0.00217315, "n": 0}, {"scriptPubKey": {"reqSigs": 1, "hex": "a91488eb0961277384b08d24c904852c36db18abe7f187", "addresses": ["3EAyPGJWjK5yt1q5c4DDvCpXm9rVn9WUns"], "asm": "OP_HASH160 88eb0961277384b08d24c904852c36db18abe7f1 OP_EQUAL", "type": "scripthash"}, "value": 0.00244829, "n": 1}], "hex": "010000000125f449f34d6f15dcd97f4ba8fe569677a071021ea41854a04089763e0b6252f4010000006a47304402203eb5f5e00c147b1639c7637575362299a7314abd7463b0c5a345963f13f9bd0a02204cc4d23c07b73f9d81b68e9e84e0ec12a43d8b8da0a25022ab827c2b284372a00121035e55f9bf1ea0602db84ed6d04a56b2c63515da480c4ef71b187bc50b8fdf3526ffffffff02e3500300000000001976a9146e0e5e5ae065f06c4cc77a217e1fc68fa376911988ac5dbc03000000000017a91488eb0961277384b08d24c904852c36db18abe7f18700000000", "vin": [{"sequence": 4294967295, "scriptSig": {"hex": "47304402203eb5f5e00c147b1639c7637575362299a7314abd7463b0c5a345963f13f9bd0a02204cc4d23c07b73f9d81b68e9e84e0ec12a43d8b8da0a25022ab827c2b284372a00121035e55f9bf1ea0602db84ed6d04a56b2c63515da480c4ef71b187bc50b8fdf3526", "asm": "304402203eb5f5e00c147b1639c7637575362299a7314abd7463b0c5a345963f13f9bd0a02204cc4d23c07b73f9d81b68e9e84e0ec12a43d8b8da0a25022ab827c2b284372a0[ALL] 035e55f9bf1ea0602db84ed6d04a56b2c63515da480c4ef71b187bc50b8fdf3526"}, "vout": 1, "txid": "f452620b3e768940a05418a41e0271a0779656fea84b7fd9dc156f4df349f425"}], "txid": "4681ee20e8d304449da62647a80f47a0e99fd89a1eaee7748785150a4e2a03be", "blocktime": 1537871767, "version": 1, "confirmations": 11495, "time": 1537871767, "locktime": 0, "vsize": 223, "size": 223}