{"hash": "9d50cc3f68d9d0b29cf4508d4ed4aca23c66136498ff3f4d31452a7a056af60f", "blockhash": "0000000000000000001f76057863aec43deb6fa401d9628bb513d65a8098bfab", "vout": [{"scriptPubKey": {"reqSigs": 1, "hex": "a9145507c544da8401a6ea30c553a01e89d33424a5d287", "addresses": ["39Scfkxy84Wpk7qRV4yfXjdt2sYCxZmbid"], "asm": "OP_HASH160 5507c544da8401a6ea30c553a01e89d33424a5d2 OP_EQUAL", "type": "scripthash"}, "value": 0.01015254, "n": 0}, {"scriptPubKey": {"reqSigs": 1, "hex": "76a9149024db8b611d717524b94d7a4f3684817ba8627188ac", "addresses": ["1E9ATXz6DqkAiFbboyUPrxDbKEaxuAyiAn"], "asm": "OP_DUP OP_HASH160 9024db8b611d717524b94d7a4f3684817ba86271 OP_EQUALVERIFY OP_CHECKSIG", "type": "pubkeyhash"}, "value": 0.0019567, "n": 1}], "hex": "020000000001024048417cf328a1d2d51d90a8dc2f06f6b4646f88129ec37fffddc151d8a59be8010000001716001413783be813f4ad4536cc25623b4638caf3ad4e9dfeffffffa5ebdbd3d98228774007ff18c5e3bbb108122c4340b92b8bea3fad0c4b670cec0400000017160014e068c30037081a729df15a0a2cba6c2d0d2e5da8feffffff02d67d0f000000000017a9145507c544da8401a6ea30c553a01e89d33424a5d28756fc0200000000001976a9149024db8b611d717524b94d7a4f3684817ba8627188ac024730440220213d096a65273baa8186060e24847e497e1c2c5797e1a90c183ae4c578a7344e022019b815d2de4d06ef35dde5b601771f4f51969f4cd2e06919a0218d1fa1876be8012102fcad180ee78c53c65da74d463f82bc67b35664bc6053bef0ae859da4ec3d0f4f0248304502210086738669e63dea65d1ad68ea72b8968bd5f39de257bbb108835df5d6a689bf9f0220124592e21d7c9703b775310fe78197baf4927d6042c29ea35fbf302495e301ec0121035249e2bcffc3f069aca835e15424dde2749710e5103253a9731aaeba155bcea8b4480800", "vin": [{"txinwitness": ["30440220213d096a65273baa8186060e24847e497e1c2c5797e1a90c183ae4c578a7344e022019b815d2de4d06ef35dde5b601771f4f51969f4cd2e06919a0218d1fa1876be801", "02fcad180ee78c53c65da74d463f82bc67b35664bc6053bef0ae859da4ec3d0f4f"], "sequence": 4294967294, "scriptSig": {"hex": "16001413783be813f4ad4536cc25623b4638caf3ad4e9d", "asm": "001413783be813f4ad4536cc25623b4638caf3ad4e9d"}, "vout": 1, "txid": "e89ba5d851c1ddff7fc39e12886f64b4f6062fdca8901dd5d2a128f37c414840"}, {"txinwitness": ["304502210086738669e63dea65d1ad68ea72b8968bd5f39de257bbb108835df5d6a689bf9f0220124592e21d7c9703b775310fe78197baf4927d6042c29ea35fbf302495e301ec01", "035249e2bcffc3f069aca835e15424dde2749710e5103253a9731aaeba155bcea8"], "sequence": 4294967294, "scriptSig": {"hex": "160014e068c30037081a729df15a0a2cba6c2d0d2e5da8", "asm": "0014e068c30037081a729df15a0a2cba6c2d0d2e5da8"}, "vout": 4, "txid": "ec0c674b0cad3fea8b2bb940432c1208b1bbe3c518ff0740772882d9d3dbeba5"}], "txid": "468749d14770ddd950816ff1fd8cb7c46f0a6aeac6b9ffdb79edf5df941fa51d", "blocktime": 1537873891, "version": 2, "confirmations": 11478, "time": 1537873891, "locktime": 542900, "vsize": 259, "size": 421}