{"hash": "468ed64741cce56f0bfda30ee29a94c6ffdf210eb744a3da3413d86b97a7afab", "blockhash": "0000000000000000001f76057863aec43deb6fa401d9628bb513d65a8098bfab", "vout": [{"scriptPubKey": {"reqSigs": 1, "hex": "76a9147772194e882117de3717689a7569a120f389d82e88ac", "addresses": ["1Bta6ZCkPXrwDHzXtNKDrKvDwmixX5JTNi"], "asm": "OP_DUP OP_HASH160 7772194e882117de3717689a7569a120f389d82e OP_EQUALVERIFY OP_CHECKSIG", "type": "pubkeyhash"}, "value": 0.0475445, "n": 0}, {"scriptPubKey": {"type": "nulldata", "hex": "6a146f6d6e69000000000000001f0000000bb0273600", "asm": "OP_RETURN 6f6d6e69000000000000001f0000000bb0273600"}, "value": 0.0, "n": 1}, {"scriptPubKey": {"reqSigs": 1, "hex": "76a91436985df157a0ec192ce1dfee189abd5e9dfb60ee88ac", "addresses": ["15yg214f28Tg1rRfsv9xHKRJQybpPnMYtM"], "asm": "OP_DUP OP_HASH160 36985df157a0ec192ce1dfee189abd5e9dfb60ee OP_EQUALVERIFY OP_CHECKSIG", "type": "pubkeyhash"}, "value": 5.46e-06, "n": 2}], "hex": "01000000019c8a8e98f35d81cc23a2a3c7f78bd3f779ab463356a0ea9a55887d6ef38bc42c020000006b483045022100d9880435b73e4a568d2d73638c19f7e0d11d743d585810b5db53d1b781ddcba902203fe5e44f0ae126c69cd1f133be25e064214e6a3bcc02dc872b2357f0826695e801210314ecc5b6203367a70a1c669434f06a1e256d88e4aff5a34e8f51e90b1d7b7a43feffffff03128c4800000000001976a9147772194e882117de3717689a7569a120f389d82e88ac0000000000000000166a146f6d6e69000000000000001f0000000bb027360022020000000000001976a91436985df157a0ec192ce1dfee189abd5e9dfb60ee88ac14490800", "vin": [{"sequence": 4294967294, "scriptSig": {"hex": "483045022100d9880435b73e4a568d2d73638c19f7e0d11d743d585810b5db53d1b781ddcba902203fe5e44f0ae126c69cd1f133be25e064214e6a3bcc02dc872b2357f0826695e801210314ecc5b6203367a70a1c669434f06a1e256d88e4aff5a34e8f51e90b1d7b7a43", "asm": "3045022100d9880435b73e4a568d2d73638c19f7e0d11d743d585810b5db53d1b781ddcba902203fe5e44f0ae126c69cd1f133be25e064214e6a3bcc02dc872b2357f0826695e8[ALL] 0314ecc5b6203367a70a1c669434f06a1e256d88e4aff5a34e8f51e90b1d7b7a43"}, "vout": 2, "txid": "2cc48bf36e7d88559aeaa0563346ab79f7d38bf7c7a3a223cc815df3988e8a9c"}], "txid": "468ed64741cce56f0bfda30ee29a94c6ffdf210eb744a3da3413d86b97a7afab", "blocktime": 1537873891, "version": 1, "confirmations": 11475, "time": 1537873891, "locktime": 542996, "vsize": 257, "size": 257}