{"hash": "b3b9f14f8b4414aabd8d7b48994bacc9c7059f52efcbd269e9aa4667968de619", "blockhash": "0000000000000000001cda96e906b7601b7a6fb1a3b62bca570a9e5d8f4b3de1", "vout": [{"scriptPubKey": {"reqSigs": 1, "hex": "a914779c3c187d738ef53743fb099f3cf615ab11ce0d87", "addresses": ["3CbTVkairFYKLoPJPwNjuZ57SnejDXtE2C"], "asm": "OP_HASH160 779c3c187d738ef53743fb099f3cf615ab11ce0d OP_EQUAL", "type": "scripthash"}, "value": 0.0183, "n": 0}, {"scriptPubKey": {"reqSigs": 1, "hex": "a9144a08130da321673023032ea042cd488703dd994487", "addresses": ["38STbm3d6a8L6mryiWp5LUhpeURusrrB11"], "asm": "OP_HASH160 4a08130da321673023032ea042cd488703dd9944 OP_EQUAL", "type": "scripthash"}, "value": 0.146, "n": 1}, {"scriptPubKey": {"reqSigs": 1, "hex": "76a914f5db207ab48ae179004f2823706a8585f3c5dd5488ac", "addresses": ["1PQy4CdLp5veY9T98vnygrhWPBStSy36dd"], "asm": "OP_DUP OP_HASH160 f5db207ab48ae179004f2823706a8585f3c5dd54 OP_EQUALVERIFY OP_CHECKSIG", "type": "pubkeyhash"}, "value": 0.06, "n": 2}, {"scriptPubKey": {"reqSigs": 1, "hex": "76a914c296e54f14eb559613d3932b14ca8f7e1a03a9d188ac", "addresses": ["1JjtrdpPmK7Q6upWA9QqnLCHgjUMgxCEiQ"], "asm": "OP_DUP OP_HASH160 c296e54f14eb559613d3932b14ca8f7e1a03a9d1 OP_EQUALVERIFY OP_CHECKSIG", "type": "pubkeyhash"}, "value": 0.013, "n": 3}, {"scriptPubKey": {"reqSigs": 1, "hex": "76a91412bb3abf793d484cf73f0dd57fb3b939233ccc6388ac", "addresses": ["12i3TPN445k4aTzNZLasRNoGBpNArPZQyE"], "asm": "OP_DUP OP_HASH160 12bb3abf793d484cf73f0dd57fb3b939233ccc63 OP_EQUALVERIFY OP_CHECKSIG", "type": "pubkeyhash"}, "value": 0.041, "n": 4}, {"scriptPubKey": {"reqSigs": 1, "hex": "a9148a1806ba75d3fb7da93f7b60e689b15bb85200f887", "addresses": ["3EHBxPg4ECcjdP3GJJawPpVk9RSqAuWFwa"], "asm": "OP_HASH160 8a1806ba75d3fb7da93f7b60e689b15bb85200f8 OP_EQUAL", "type": "scripthash"}, "value": 0.021067, "n": 5}, {"scriptPubKey": {"reqSigs": 1, "hex": "76a91401702957d61ea6ebf39e35167f296a526ee23e6688ac", "addresses": ["18c3JwFomgmTrFGGA42493nS2f93Ai4K1"], "asm": "OP_DUP OP_HASH160 01702957d61ea6ebf39e35167f296a526ee23e66 OP_EQUALVERIFY OP_CHECKSIG", "type": "pubkeyhash"}, "value": 0.0047, "n": 6}, {"scriptPubKey": {"reqSigs": 1, "hex": "a914a18efe02bfc662c0bf95de25ef03ca562ca9052987", "addresses": ["3GRG1hiEov5b443szqGy61hoYFSqVb9yVw"], "asm": "OP_HASH160 a18efe02bfc662c0bf95de25ef03ca562ca90529 OP_EQUAL", "type": "scripthash"}, "value": 0.2108271, "n": 7}, {"scriptPubKey": {"reqSigs": 1, "hex": "76a91400de204a98555932ccf7c050db8d0b990749f13b88ac", "addresses": ["115b6bVQzwCrEJuS4LdyiErzdk9jcQPFB3"], "asm": "OP_DUP OP_HASH160 00de204a98555932ccf7c050db8d0b990749f13b OP_EQUALVERIFY OP_CHECKSIG", "type": "pubkeyhash"}, "value": 0.01959141, "n": 8}, {"scriptPubKey": {"reqSigs": 1, "hex": "76a914710ea220a96a97a6c4d35ae89903181f1a02a6ec88ac", "addresses": ["1BJntRC8bhhhMkkLwt2DNfeTWdf4v46bzD"], "asm": "OP_DUP OP_HASH160 710ea220a96a97a6c4d35ae89903181f1a02a6ec OP_EQUALVERIFY OP_CHECKSIG", "type": "pubkeyhash"}, "value": 0.023, "n": 9}, {"scriptPubKey": {"reqSigs": 1, "hex": "76a914ed31fe75cfef5c220c495a928e758a0728c91f0588ac", "addresses": ["1NdB37CGEaQZHQys7m6EHffbxTnf8FeNAm"], "asm": "OP_DUP OP_HASH160 ed31fe75cfef5c220c495a928e758a0728c91f05 OP_EQUALVERIFY OP_CHECKSIG", "type": "pubkeyhash"}, "value": 0.012, "n": 10}, {"scriptPubKey": {"reqSigs": 1, "hex": "a914ea645e5e20987adfaa9d5fa4a915d008965f102387", "addresses": ["3P4NHAbib3uvj6QNYmPWqEJMZnx4HzszTp"], "asm": "OP_HASH160 ea645e5e20987adfaa9d5fa4a915d008965f1023 OP_EQUAL", "type": "scripthash"}, "value": 0.01024756, "n": 11}], "hex": "0200000000011e0cc2da1b491cdea1a64d0bd560ae5ba0a9c43a3f285e87e07e8242f392250392000000001716001461fdbe0992c8fdde397d2de003d87d87aa410a59ffffffff98bc3872bb8ed6628d13b7e94d97dbf560a09750e8316dbccf025d7e945e6d730000000017160014f08338762de3491b261785476f602ac10add4fd1fffffffffd8698d0260801289ea1fbdb12418fefcc6beb864281932c026892cc3098d21a1f000000171600142ff93929775806d6fbe9e814abc83f93b2d3765afffffffff4a01f5390dfa96666325f00d1ce5aa6b689c20e157050ae9b3abde4dd3c39480c00000017160014843416304b48840617d266e3533ce18245792ad1ffffffff193aaab734fab521cb4568c459811ef84d8400d7e5585169217f679aa2a052af0400000017160014e0e9fde61466f315944017eb6a6321906340cdd6ffffffff0193d6546e0b81e633b15c062b7b916ba90d806a1660455d478e965bbdb3e9c505000000171600146307d55dd19a765d8ffd1d96f3324c64cd0c76fbffffffff62427f0ba53ec60b32f2fdfb2d8fcff9ea05486d9e0a8d9399ed51ad6faa8e710e000000171600144fdc3730866c06df449f5d5609fec25d7c92f5f6ffffffff795d394f09ea541e9dbc76b74b9781e33a99c89f25c83a64ec1f85326a2ee1c521000000171600140a5286f63ac55db77c889f46b2f8b8093bdba126ffffffffb14ba10802f176f5a8b487d1157bba8bcc0931617b7096c582215a1a2b53771a0100000017160014fd0c61a4871781f6300c5992e762ed68b988cb30ffffffff412b8bb002a50be8dd9f94fabfb8a7f2295dfa86b6fb86ae0c31e650447c184c070000001716001460662ca7006b89f2b66d1520e2bcd037e306a8e4ffffffff5e8de6414fd19cdbd5947a2de15446af0ec63cfd15e9c265c05808f61723a20a0d000000171600141d62cc29ec521860c8b97e22c2d88fd2985b57e6ffffffff49373b99d83ee9bce3d39f1dbf06421cf035c086e3d945ba4c8514e0bed5877804000000171600140604fce9c32db226c8b9aea14e43d034146c14e0ffffffff954e4134cd73541cf9d2e931d24dbf66f1b777fdb7f74f26db152ea9f4b977c30300000017160014789de1b27526d7e0207d0e90bec52e398cf12fc7ffffffff6bdf8c675bbf3c02f0757e279cceea1b9db225facd5610e2576e7b9acaf8dd820000000017160014f8da75917d9f2ddd5965be283cd383738c42aba8fffffffff4a01f5390dfa96666325f00d1ce5aa6b689c20e157050ae9b3abde4dd3c39481900000017160014b0df74470ff6694310371737be237b262152ae14ffffffff455fca6a38cd7680c11b9f09234be14b64537978c73ce4998e33dd308873e22e110000001716001498d5f87d6c328e549f0f4ff823ce2eac11ca5946ffffffff0cc2da1b491cdea1a64d0bd560ae5ba0a9c43a3f285e87e07e8242f392250392080000001716001485e8c34b51765a43c4e3097d89c3d256ed2fd1beffffffff0bfa6b4cf640c822838ea906d25d66d6adbd3dc72899491cd6acec5f65c240a10c00000017160014abb20c793de590e3cc5ee9ea87841a33b6b2312bffffffff70b4cfc09d251129d9e5c3a6aa9a108adb149369a4c43a3e1030634a0db8a3b10c00000017160014d98124dd61e64411b4522cd683f20a70a92c7fcdffffffff5560089ebcbaedfbd2df8de2bb8ba6b1d2fc25bad91cc97e8d453e538149e1c81a00000017160014f3882296f62b397f7a2fc622cd5edffa2a3328f7ffffffffb14ba10802f176f5a8b487d1157bba8bcc0931617b7096c582215a1a2b53771a1d000000171600145bffeef8b0e49e40a435b28461f6060cecfa178affffffff2a5cbb2a38a0a056ed4f68817e525c2b99237ee34c27156790aa1515fa695aa81300000017160014a1349072ce27423967ec084ae622fe60e57130b7ffffffff795d394f09ea541e9dbc76b74b9781e33a99c89f25c83a64ec1f85326a2ee1c50900000017160014e52392425ef7b45ce2afc345e1b8110c815d3783ffffffff90b3192188f877476175aa7f5225e761c8188f2d71b6df7613af4a3541ba990b13000000171600140c23730bafbe1bebb5825a3271ad8057bb399a93ffffffff65d712a76815f022f1dc516a7d9c2b531797902432987260c9f3259cb48f0f842100000017160014a0d78e5b72c0b170ec1d5f9bf790ad21bab45b78ffffffffa2f5a82fe9a8068cedf91c9b7bd09f14acf4087623b505e7fcf8065b9246daa710000000171600147d620266bf30799e1e7056284f31de8a81fb1964ffffffff62427f0ba53ec60b32f2fdfb2d8fcff9ea05486d9e0a8d9399ed51ad6faa8e711800000017160014db46c8783875b1f9eb6a5524a607db5469343832ffffffff652d76b9a212ff57ce49f20c58d7cd4c83b18033c473566ad96c8fea64e99f4a00000000171600149a44f3f01bb1089b82dd2bf25701558b093b8a68ffffffff455fca6a38cd7680c11b9f09234be14b64537978c73ce4998e33dd308873e22e080000001716001484e6682859c687e473b0404ad2b4c89995c7b9f4ffffffffafdd7ddf0a9e05939a61a29c8bf54200da8fca4ef4c9b045db1cfaec8b44fcea0c000000171600148e95bb7c9b430c70af00f76a4ee5465af4de815fffffffff0c70ec1b000000000017a914779c3c187d738ef53743fb099f3cf615ab11ce0d8740c7de000000000017a9144a08130da321673023032ea042cd488703dd994487808d5b00000000001976a914f5db207ab48ae179004f2823706a8585f3c5dd5488ac20d61300000000001976a914c296e54f14eb559613d3932b14ca8f7e1a03a9d188aca08f3e00000000001976a91412bb3abf793d484cf73f0dd57fb3b939233ccc6388ac4c2520000000000017a9148a1806ba75d3fb7da93f7b60e689b15bb85200f887f02b0700000000001976a91401702957d61ea6ebf39e35167f296a526ee23e6688ac56b241010000000017a914a18efe02bfc662c0bf95de25ef03ca562ca9052987e5e41d00000000001976a91400de204a98555932ccf7c050db8d0b990749f13b88ac60182300000000001976a914710ea220a96a97a6c4d35ae89903181f1a02a6ec88ac804f1200000000001976a914ed31fe75cfef5c220c495a928e758a0728c91f0588acf4a20f000000000017a914ea645e5e20987adfaa9d5fa4a915d008965f10238702463043021f0622cccac2dee1e659578fb09db6253346369c12a069c295d0b81e0fea3c7102207f4b81cf36bfbc8b0a2bba0604f6aa8020e282e844578a1f3b9afce83d01ba4b012103894899384f8a843ac814d0d00b89d6cc8c435377ad819061cba11bd49b5427ef02473044022071ee11a4fdffa38bf18b7948aab7cf39703551705a9659399ef89153a2dd944c02202c969b60a1b7b94125e13f66d92fd35d58470a3203c006bb57b96806e4a1348301210284ea51437c09a892d758bdb84dbbab4dca8ad8b0a73af01ead31ffb8e93066e60248304502210091eeca034609a00b75c0aee5c5a019cbc000171a5340c0eaf00cf542529eab6f022033846b50ff863bc640302997456948216dfa584d499bd240423bb0133f224563012103b4f1e9f72c3e6b14c4c5471b88fa345867b8b6ae6c40aed14b7f5cc65ddf64680247304402201aaebc0cfaad962b1c2d7dd7d8f3b64b11bab8530f2e463c5b960b669c955aa00220523dedfe6cf4ac9627f4dbcb690cbc52a4db927cf5b5b107b7d509e5fda3fbdf012103e8e025e9ead1a37b19e6320f9489613f1f38941fc5c2079cf26c261f8946efdd02473044022043202097c328ec464cfdaa442796a8f5db7c0642421d78ba2f28da044695d007022073060e1863c0f2839d7431bdbc4ded45c25462b9dfdc64f99349ecc2e547cba5012102c343040a9df823a279dae03ca674eceda8aabd873fb7e810e67428b5a6b1915d02483045022100a354e47e895d4403b93252ba60f5a2c17901d7848102ef48c9ada5dbcb0a45c402202dfdf47cd9ad7816c165d8df827fa665a8b958c6bb89cab77b295551ba9cd45e012102192c600a2588ada808d2afbb4f53080ae0b2484d0174e8bfb92b101b4fb1dc2b02473044022005467a40c9d77a7e324293525fac6df88263ea8b7872f47cce6a683486b7790302207b88fae3a4a17763a237429be7c8e3fadbbaf40023d61b900f87173db4d5a4c90121027ba6a20ea84a65c13ddee4977a05c02ceb2db3ff6bf5bce78a33e165e3f9a634024730440220713deb78564e9db32bcc2afea76ce2538a1747ee92a8be74ac764e207beb273602201d6e1bb2cea210400e62371e2c72c0d446a37822667f7145c3e243157962bcd3012103f8b37f5b59392fa8e8f5dcb825473e91ebb7334741469c2562b1447142a80d9d02473044022033096eea761e849c0d5337b7989800a25ec7c415cba4048effeeacf4d84edbd4022025d57e6100369eb2dd1949132c8313c1881a47704a09b49615a39f356df5def7012103a895ed3693ee49c77e97db45dc2e8ec3b55e811f47b2c4ed986d586b9667f54402483045022100b26b7da1528ec6c81f784639b80d300d411e905e5086824b03731da2b5acccf7022053a4416150e88eca72b4973e3fc49e93f2667eceb41cb33a67fba6b5b3de8d370121038f1a5c73f6286a614b869a45dd9e468791b91430b5f6de725888f0c66f1f7c2c0248304502210094929ee0e0bc945d0c2f7e1270658c8abd19ffb343f68fd28760330a0189808002205c0b0d8e51fbc77459c3c21fdef09bc6da1cc524046b173ff2746a1b3c62604c012103bb679de250aa50247e190c93c1bb3c3ee48e838243b377bf4066b374c0ab0bc80247304402203a7aa63ed76d2151b9bc3e339086aba0cebd02009960eca81065bbbf480a9d9f02201590158e1f4d8124ef5c4c2a2ad1a37c8541a0ad6e6a8417dbb883746b81f891012102efa8e824a6ee345b260057053a107bd7df008c4760e756d6862e2b7c228d1dc902483045022100aeb82a56c8a68ff218f35e4250a50503202e88f766b7c2beb3f1959a0e3607340220192314c241b0cfc5ec29a9d69e2ecaf99bf31107c76945bc9006f2a11d5d9881012102bb54915590cae657138704286bd78b97d28439916d025039902e4ae13c23e658024730440220498088b047dc9ee54e943eba9e0bcd31ceed385231dee69254f63e09b9f6a60102205860afea2cf743a1868c73081fc3aea93e6e7b5669a8b20fad30d56646fb511c0121039046a2d524990ef4d2597e8dddfd236037f12c8e54bc5a7b83b543801549234b02483045022100c3d3de125e1ae018bd234cde64867a8fbb26c2c3a9d605624f081816e1b39d9102201c2890b63daf69da5b3487101b232883d9d111a4290b2f7b43569972b7d3c3d601210363358189c27b4d7155d53e0b67d5c7f6a0afea8a5608269e10a0175a68c5e04202483045022100fff9383cf73345ebd5d30e466c4b54d3498c8300651c0d0d12487c4696e245d902201f5cd4b8bd919ea5941d9f73653390fb119b98e53f386ac04bf4cc51d7addc9d012102893f2ac49b466882f3864ce91e106b6397df88e201ca20fd18606b341fa023830246304302205751f20a15fea653f27e2a472a6443dabee22d803329d3fa89a12ecf899fdc0a021f079b6de062d440051869d41ffa5cceefe6e9cf248ed9edf86b40cb59cb78c6012102a25d7c0949d57df2985cbda62aae73b9d2d98a5eace1732fe8242f816bd0c19302483045022100823ca3e3524778918c6f0a364d09fb09d1b6f55bd547d01fb600d1ec014debdd022030a276976f7489218fb0bf1023a4250b0bd87ec5c032d8c3fca9e6212a7a4cfa012102e2a6a609fe5453c3d088e001356225048c7082fb6e38438c193bb1fe89a77bca0247304402204fe26db9e832df8bfe1cf199518450f329fb5265254ddb444abbf0e3894fd07602200f183de8a4b65249e533053e25c8c7bb8a83f51c505e2afca2d99dc6d53338c001210327c44c56cf7020badc9f647510b50e3539003b695ce46af542b094dd1f2c4c1602483045022100dd85cc2723a52cac39264fa871c1026af45c4a7b41a34e9dd6bae248720979770220458d3b27e7335bc5f95f4faac919244b286f40d1ceed1582774c5033d09e82c2012102569a07aa11007f2fe0c3bc198de4a89bea784720bc54f28bfea3a2e4cee66a8e024730440220073fe98381a5dac63af646d11a49aafab103c914ff7d364316a55a4f98fceddb0220355a48f495c87d58eb180444bdf0ad8cba77129577f0ff760d3c21003cdccc47012102914ad707169b0bc7ff6b92ed97ddc8b17645037768d7ad0d0b8ad33968d8f11a02483045022100f3e74d0eda72338f719b596fcb6054fc596d249329144d6d7e78a75498e3c2c402204b4d6ecfc0bc177c7a3c1949d0b690c82a8a508d16831321a966668c6420ce4d012102a2bc4c65294ed195ba28eaa3ddcb26aee60152fad1eaf6a10b24f340a059f27a02483045022100900907545d4f0e7b389b7799b6efb7ad2de963d38ede6869b9b0feff075d6dc3022033a217049a7f91a9e5485b1731ff4d23203bc5528983968be4beacfde7f94424012103d9cb6518bc32344b482d1023c9b7e5d1446b61161c15c6bf50091f1ba221b0a9024730440220610c9ef8433ffbbfc0d1ea805d65b004a93f730e5c4354ab245ad70c82371b3302201ddab43418167774e56042aaf06e949d3e3b48c1bbe03d2e980d5cba492633cf012103f962efe5cede970c54ec6c7fe24168cfae2109ea37401e602515ebe0e3ad14230247304402201901c0f7f6d5d2d98c9b8078e1eb2e4aff6e1c2412cb06550afae47fa7b3e5a1022051361714e6588c03baf3f66806821b325617cb6cc889a3c3dc8c9f01dff3703e01210361935c65d6dbc35f898d8b4ce386c553230fc2540b72c178e59a7028c5a48c8a0247304402202d323ddaf1b72827f6ff2b0155e7c299ec42fb0f06de012daa66ab2159b0951b02204b4b1d0470950a5d6a2151e50cc9c594c76dfb3cda007d998d211a0ee32b5483012102acaa7854bc736e8155041214741030a29ab592c622c73b1b163e7ad5bf25571702483045022100fab677054df7343803773ad903087fa889a0d16296130eaf4320685bfe471bfd022072444752f730b699b8b5659e60358d2d19d24273a78f9974b378cf17dbfb359b01210388881797e44e28612f42f3f05013c4ce25fca0dfa20be983e9e52f79ac434d5502483045022100e117fad5da787f42b5aff3cd7ed196afde3ac150c4de5364038243155e578f31022000d100e8f4b37dd24e2289a5b88806538bed0a9ef16cacab22d14ffc8ce4f3930121034f778dfc140d0dde9a5dd231a368341713a6deecb7772469985c632e73cad50e0247304402207f44357545ea2e22505a286aaea6dbed672d797b733c31b2e11d42e06f9e55c202203b569871697bed3f7598958e2cd1d302b8446fe35217ed8e225f9042b2da0cd90121026926b9ccf147adde0114bad40261232040f4f5c5730aef38194c8f5c8f0818e002483045022100aa3a6d07db89c3644a535a9a90cb95091306e1197928aa578dacdc01ae2ea487022053bbfa7dc02da27df3515d2bef7c5836eb41966e326f8e77e31f50eb4b57946f01210295c8618ecc186ff524d4baf2089aa63269e2515be16e8591018c4a333ff7c4d500000000", "vin": [{"txinwitness": ["3043021f0622cccac2dee1e659578fb09db6253346369c12a069c295d0b81e0fea3c7102207f4b81cf36bfbc8b0a2bba0604f6aa8020e282e844578a1f3b9afce83d01ba4b01", "03894899384f8a843ac814d0d00b89d6cc8c435377ad819061cba11bd49b5427ef"], "sequence": 4294967295, "scriptSig": {"hex": "16001461fdbe0992c8fdde397d2de003d87d87aa410a59", "asm": "001461fdbe0992c8fdde397d2de003d87d87aa410a59"}, "vout": 0, "txid": "92032592f342827ee0875e283f3ac4a9a05bae60d50b4da6a1de1c491bdac20c"}, {"txinwitness": ["3044022071ee11a4fdffa38bf18b7948aab7cf39703551705a9659399ef89153a2dd944c02202c969b60a1b7b94125e13f66d92fd35d58470a3203c006bb57b96806e4a1348301", "0284ea51437c09a892d758bdb84dbbab4dca8ad8b0a73af01ead31ffb8e93066e6"], "sequence": 4294967295, "scriptSig": {"hex": "160014f08338762de3491b261785476f602ac10add4fd1", "asm": "0014f08338762de3491b261785476f602ac10add4fd1"}, "vout": 0, "txid": "736d5e947e5d02cfbc6d31e85097a060f5db974de9b7138d62d68ebb7238bc98"}, {"txinwitness": ["304502210091eeca034609a00b75c0aee5c5a019cbc000171a5340c0eaf00cf542529eab6f022033846b50ff863bc640302997456948216dfa584d499bd240423bb0133f22456301", "03b4f1e9f72c3e6b14c4c5471b88fa345867b8b6ae6c40aed14b7f5cc65ddf6468"], "sequence": 4294967295, "scriptSig": {"hex": "1600142ff93929775806d6fbe9e814abc83f93b2d3765a", "asm": "00142ff93929775806d6fbe9e814abc83f93b2d3765a"}, "vout": 31, "txid": "1ad29830cc9268022c93814286eb6bccef8f4112dbfba19e28010826d09886fd"}, {"txinwitness": ["304402201aaebc0cfaad962b1c2d7dd7d8f3b64b11bab8530f2e463c5b960b669c955aa00220523dedfe6cf4ac9627f4dbcb690cbc52a4db927cf5b5b107b7d509e5fda3fbdf01", "03e8e025e9ead1a37b19e6320f9489613f1f38941fc5c2079cf26c261f8946efdd"], "sequence": 4294967295, "scriptSig": {"hex": "160014843416304b48840617d266e3533ce18245792ad1", "asm": "0014843416304b48840617d266e3533ce18245792ad1"}, "vout": 12, "txid": "48393cdde4bd3a9bae5070150ec289b6a65aced1005f326666a9df90531fa0f4"}, {"txinwitness": ["3044022043202097c328ec464cfdaa442796a8f5db7c0642421d78ba2f28da044695d007022073060e1863c0f2839d7431bdbc4ded45c25462b9dfdc64f99349ecc2e547cba501", "02c343040a9df823a279dae03ca674eceda8aabd873fb7e810e67428b5a6b1915d"], "sequence": 4294967295, "scriptSig": {"hex": "160014e0e9fde61466f315944017eb6a6321906340cdd6", "asm": "0014e0e9fde61466f315944017eb6a6321906340cdd6"}, "vout": 4, "txid": "af52a0a29a677f21695158e5d700844df81e8159c46845cb21b5fa34b7aa3a19"}, {"txinwitness": ["3045022100a354e47e895d4403b93252ba60f5a2c17901d7848102ef48c9ada5dbcb0a45c402202dfdf47cd9ad7816c165d8df827fa665a8b958c6bb89cab77b295551ba9cd45e01", "02192c600a2588ada808d2afbb4f53080ae0b2484d0174e8bfb92b101b4fb1dc2b"], "sequence": 4294967295, "scriptSig": {"hex": "1600146307d55dd19a765d8ffd1d96f3324c64cd0c76fb", "asm": "00146307d55dd19a765d8ffd1d96f3324c64cd0c76fb"}, "vout": 5, "txid": "c5e9b3bd5b968e475d4560166a800da96b917b2b065cb133e6810b6e54d69301"}, {"txinwitness": ["3044022005467a40c9d77a7e324293525fac6df88263ea8b7872f47cce6a683486b7790302207b88fae3a4a17763a237429be7c8e3fadbbaf40023d61b900f87173db4d5a4c901", "027ba6a20ea84a65c13ddee4977a05c02ceb2db3ff6bf5bce78a33e165e3f9a634"], "sequence": 4294967295, "scriptSig": {"hex": "1600144fdc3730866c06df449f5d5609fec25d7c92f5f6", "asm": "00144fdc3730866c06df449f5d5609fec25d7c92f5f6"}, "vout": 14, "txid": "718eaa6fad51ed99938d0a9e6d4805eaf9cf8f2dfbfdf2320bc63ea50b7f4262"}, {"txinwitness": ["30440220713deb78564e9db32bcc2afea76ce2538a1747ee92a8be74ac764e207beb273602201d6e1bb2cea210400e62371e2c72c0d446a37822667f7145c3e243157962bcd301", "03f8b37f5b59392fa8e8f5dcb825473e91ebb7334741469c2562b1447142a80d9d"], "sequence": 4294967295, "scriptSig": {"hex": "1600140a5286f63ac55db77c889f46b2f8b8093bdba126", "asm": "00140a5286f63ac55db77c889f46b2f8b8093bdba126"}, "vout": 33, "txid": "c5e12e6a32851fec643ac8259fc8993ae381974bb776bc9d1e54ea094f395d79"}, {"txinwitness": ["3044022033096eea761e849c0d5337b7989800a25ec7c415cba4048effeeacf4d84edbd4022025d57e6100369eb2dd1949132c8313c1881a47704a09b49615a39f356df5def701", "03a895ed3693ee49c77e97db45dc2e8ec3b55e811f47b2c4ed986d586b9667f544"], "sequence": 4294967295, "scriptSig": {"hex": "160014fd0c61a4871781f6300c5992e762ed68b988cb30", "asm": "0014fd0c61a4871781f6300c5992e762ed68b988cb30"}, "vout": 1, "txid": "1a77532b1a5a2182c596707b613109cc8bba7b15d187b4a8f576f10208a14bb1"}, {"txinwitness": ["3045022100b26b7da1528ec6c81f784639b80d300d411e905e5086824b03731da2b5acccf7022053a4416150e88eca72b4973e3fc49e93f2667eceb41cb33a67fba6b5b3de8d3701", "038f1a5c73f6286a614b869a45dd9e468791b91430b5f6de725888f0c66f1f7c2c"], "sequence": 4294967295, "scriptSig": {"hex": "16001460662ca7006b89f2b66d1520e2bcd037e306a8e4", "asm": "001460662ca7006b89f2b66d1520e2bcd037e306a8e4"}, "vout": 7, "txid": "4c187c4450e6310cae86fbb686fa5d29f2a7b8bffa949fdde80ba502b08b2b41"}, {"txinwitness": ["304502210094929ee0e0bc945d0c2f7e1270658c8abd19ffb343f68fd28760330a0189808002205c0b0d8e51fbc77459c3c21fdef09bc6da1cc524046b173ff2746a1b3c62604c01", "03bb679de250aa50247e190c93c1bb3c3ee48e838243b377bf4066b374c0ab0bc8"], "sequence": 4294967295, "scriptSig": {"hex": "1600141d62cc29ec521860c8b97e22c2d88fd2985b57e6", "asm": "00141d62cc29ec521860c8b97e22c2d88fd2985b57e6"}, "vout": 13, "txid": "0aa22317f60858c065c2e915fd3cc60eaf4654e12d7a94d5db9cd14f41e68d5e"}, {"txinwitness": ["304402203a7aa63ed76d2151b9bc3e339086aba0cebd02009960eca81065bbbf480a9d9f02201590158e1f4d8124ef5c4c2a2ad1a37c8541a0ad6e6a8417dbb883746b81f89101", "02efa8e824a6ee345b260057053a107bd7df008c4760e756d6862e2b7c228d1dc9"], "sequence": 4294967295, "scriptSig": {"hex": "1600140604fce9c32db226c8b9aea14e43d034146c14e0", "asm": "00140604fce9c32db226c8b9aea14e43d034146c14e0"}, "vout": 4, "txid": "7887d5bee014854cba45d9e386c035f01c4206bf1d9fd3e3bce93ed8993b3749"}, {"txinwitness": ["3045022100aeb82a56c8a68ff218f35e4250a50503202e88f766b7c2beb3f1959a0e3607340220192314c241b0cfc5ec29a9d69e2ecaf99bf31107c76945bc9006f2a11d5d988101", "02bb54915590cae657138704286bd78b97d28439916d025039902e4ae13c23e658"], "sequence": 4294967295, "scriptSig": {"hex": "160014789de1b27526d7e0207d0e90bec52e398cf12fc7", "asm": "0014789de1b27526d7e0207d0e90bec52e398cf12fc7"}, "vout": 3, "txid": "c377b9f4a92e15db264ff7b7fd77b7f166bf4dd231e9d2f91c5473cd34414e95"}, {"txinwitness": ["30440220498088b047dc9ee54e943eba9e0bcd31ceed385231dee69254f63e09b9f6a60102205860afea2cf743a1868c73081fc3aea93e6e7b5669a8b20fad30d56646fb511c01", "039046a2d524990ef4d2597e8dddfd236037f12c8e54bc5a7b83b543801549234b"], "sequence": 4294967295, "scriptSig": {"hex": "160014f8da75917d9f2ddd5965be283cd383738c42aba8", "asm": "0014f8da75917d9f2ddd5965be283cd383738c42aba8"}, "vout": 0, "txid": "82ddf8ca9a7b6e57e21056cdfa25b29d1beace9c277e75f0023cbf5b678cdf6b"}, {"txinwitness": ["3045022100c3d3de125e1ae018bd234cde64867a8fbb26c2c3a9d605624f081816e1b39d9102201c2890b63daf69da5b3487101b232883d9d111a4290b2f7b43569972b7d3c3d601", "0363358189c27b4d7155d53e0b67d5c7f6a0afea8a5608269e10a0175a68c5e042"], "sequence": 4294967295, "scriptSig": {"hex": "160014b0df74470ff6694310371737be237b262152ae14", "asm": "0014b0df74470ff6694310371737be237b262152ae14"}, "vout": 25, "txid": "48393cdde4bd3a9bae5070150ec289b6a65aced1005f326666a9df90531fa0f4"}, {"txinwitness": ["3045022100fff9383cf73345ebd5d30e466c4b54d3498c8300651c0d0d12487c4696e245d902201f5cd4b8bd919ea5941d9f73653390fb119b98e53f386ac04bf4cc51d7addc9d01", "02893f2ac49b466882f3864ce91e106b6397df88e201ca20fd18606b341fa02383"], "sequence": 4294967295, "scriptSig": {"hex": "16001498d5f87d6c328e549f0f4ff823ce2eac11ca5946", "asm": "001498d5f87d6c328e549f0f4ff823ce2eac11ca5946"}, "vout": 17, "txid": "2ee2738830dd338e99e43cc7787953644be14b23099f1bc18076cd386aca5f45"}, {"txinwitness": ["304302205751f20a15fea653f27e2a472a6443dabee22d803329d3fa89a12ecf899fdc0a021f079b6de062d440051869d41ffa5cceefe6e9cf248ed9edf86b40cb59cb78c601", "02a25d7c0949d57df2985cbda62aae73b9d2d98a5eace1732fe8242f816bd0c193"], "sequence": 4294967295, "scriptSig": {"hex": "16001485e8c34b51765a43c4e3097d89c3d256ed2fd1be", "asm": "001485e8c34b51765a43c4e3097d89c3d256ed2fd1be"}, "vout": 8, "txid": "92032592f342827ee0875e283f3ac4a9a05bae60d50b4da6a1de1c491bdac20c"}, {"txinwitness": ["3045022100823ca3e3524778918c6f0a364d09fb09d1b6f55bd547d01fb600d1ec014debdd022030a276976f7489218fb0bf1023a4250b0bd87ec5c032d8c3fca9e6212a7a4cfa01", "02e2a6a609fe5453c3d088e001356225048c7082fb6e38438c193bb1fe89a77bca"], "sequence": 4294967295, "scriptSig": {"hex": "160014abb20c793de590e3cc5ee9ea87841a33b6b2312b", "asm": "0014abb20c793de590e3cc5ee9ea87841a33b6b2312b"}, "vout": 12, "txid": "a140c2655fecacd61c499928c73dbdadd6665dd206a98e8322c840f64c6bfa0b"}, {"txinwitness": ["304402204fe26db9e832df8bfe1cf199518450f329fb5265254ddb444abbf0e3894fd07602200f183de8a4b65249e533053e25c8c7bb8a83f51c505e2afca2d99dc6d53338c001", "0327c44c56cf7020badc9f647510b50e3539003b695ce46af542b094dd1f2c4c16"], "sequence": 4294967295, "scriptSig": {"hex": "160014d98124dd61e64411b4522cd683f20a70a92c7fcd", "asm": "0014d98124dd61e64411b4522cd683f20a70a92c7fcd"}, "vout": 12, "txid": "b1a3b80d4a6330103e3ac4a4699314db8a109aaaa6c3e5d92911259dc0cfb470"}, {"txinwitness": ["3045022100dd85cc2723a52cac39264fa871c1026af45c4a7b41a34e9dd6bae248720979770220458d3b27e7335bc5f95f4faac919244b286f40d1ceed1582774c5033d09e82c201", "02569a07aa11007f2fe0c3bc198de4a89bea784720bc54f28bfea3a2e4cee66a8e"], "sequence": 4294967295, "scriptSig": {"hex": "160014f3882296f62b397f7a2fc622cd5edffa2a3328f7", "asm": "0014f3882296f62b397f7a2fc622cd5edffa2a3328f7"}, "vout": 26, "txid": "c8e14981533e458d7ec91cd9ba25fcd2b1a68bbbe28ddfd2fbedbabc9e086055"}, {"txinwitness": ["30440220073fe98381a5dac63af646d11a49aafab103c914ff7d364316a55a4f98fceddb0220355a48f495c87d58eb180444bdf0ad8cba77129577f0ff760d3c21003cdccc4701", "02914ad707169b0bc7ff6b92ed97ddc8b17645037768d7ad0d0b8ad33968d8f11a"], "sequence": 4294967295, "scriptSig": {"hex": "1600145bffeef8b0e49e40a435b28461f6060cecfa178a", "asm": "00145bffeef8b0e49e40a435b28461f6060cecfa178a"}, "vout": 29, "txid": "1a77532b1a5a2182c596707b613109cc8bba7b15d187b4a8f576f10208a14bb1"}, {"txinwitness": ["3045022100f3e74d0eda72338f719b596fcb6054fc596d249329144d6d7e78a75498e3c2c402204b4d6ecfc0bc177c7a3c1949d0b690c82a8a508d16831321a966668c6420ce4d01", "02a2bc4c65294ed195ba28eaa3ddcb26aee60152fad1eaf6a10b24f340a059f27a"], "sequence": 4294967295, "scriptSig": {"hex": "160014a1349072ce27423967ec084ae622fe60e57130b7", "asm": "0014a1349072ce27423967ec084ae622fe60e57130b7"}, "vout": 19, "txid": "a85a69fa1515aa906715274ce37e23992b5c527e81684fed56a0a0382abb5c2a"}, {"txinwitness": ["3045022100900907545d4f0e7b389b7799b6efb7ad2de963d38ede6869b9b0feff075d6dc3022033a217049a7f91a9e5485b1731ff4d23203bc5528983968be4beacfde7f9442401", "03d9cb6518bc32344b482d1023c9b7e5d1446b61161c15c6bf50091f1ba221b0a9"], "sequence": 4294967295, "scriptSig": {"hex": "160014e52392425ef7b45ce2afc345e1b8110c815d3783", "asm": "0014e52392425ef7b45ce2afc345e1b8110c815d3783"}, "vout": 9, "txid": "c5e12e6a32851fec643ac8259fc8993ae381974bb776bc9d1e54ea094f395d79"}, {"txinwitness": ["30440220610c9ef8433ffbbfc0d1ea805d65b004a93f730e5c4354ab245ad70c82371b3302201ddab43418167774e56042aaf06e949d3e3b48c1bbe03d2e980d5cba492633cf01", "03f962efe5cede970c54ec6c7fe24168cfae2109ea37401e602515ebe0e3ad1423"], "sequence": 4294967295, "scriptSig": {"hex": "1600140c23730bafbe1bebb5825a3271ad8057bb399a93", "asm": "00140c23730bafbe1bebb5825a3271ad8057bb399a93"}, "vout": 19, "txid": "0b99ba41354aaf1376dfb6712d8f18c861e725527faa75614777f8882119b390"}, {"txinwitness": ["304402201901c0f7f6d5d2d98c9b8078e1eb2e4aff6e1c2412cb06550afae47fa7b3e5a1022051361714e6588c03baf3f66806821b325617cb6cc889a3c3dc8c9f01dff3703e01", "0361935c65d6dbc35f898d8b4ce386c553230fc2540b72c178e59a7028c5a48c8a"], "sequence": 4294967295, "scriptSig": {"hex": "160014a0d78e5b72c0b170ec1d5f9bf790ad21bab45b78", "asm": "0014a0d78e5b72c0b170ec1d5f9bf790ad21bab45b78"}, "vout": 33, "txid": "840f8fb49c25f3c96072983224909717532b9c7d6a51dcf122f01568a712d765"}, {"txinwitness": ["304402202d323ddaf1b72827f6ff2b0155e7c299ec42fb0f06de012daa66ab2159b0951b02204b4b1d0470950a5d6a2151e50cc9c594c76dfb3cda007d998d211a0ee32b548301", "02acaa7854bc736e8155041214741030a29ab592c622c73b1b163e7ad5bf255717"], "sequence": 4294967295, "scriptSig": {"hex": "1600147d620266bf30799e1e7056284f31de8a81fb1964", "asm": "00147d620266bf30799e1e7056284f31de8a81fb1964"}, "vout": 16, "txid": "a7da46925b06f8fce705b5237608f4ac149fd07b9b1cf9ed8c06a8e92fa8f5a2"}, {"txinwitness": ["3045022100fab677054df7343803773ad903087fa889a0d16296130eaf4320685bfe471bfd022072444752f730b699b8b5659e60358d2d19d24273a78f9974b378cf17dbfb359b01", "0388881797e44e28612f42f3f05013c4ce25fca0dfa20be983e9e52f79ac434d55"], "sequence": 4294967295, "scriptSig": {"hex": "160014db46c8783875b1f9eb6a5524a607db5469343832", "asm": "0014db46c8783875b1f9eb6a5524a607db5469343832"}, "vout": 24, "txid": "718eaa6fad51ed99938d0a9e6d4805eaf9cf8f2dfbfdf2320bc63ea50b7f4262"}, {"txinwitness": ["3045022100e117fad5da787f42b5aff3cd7ed196afde3ac150c4de5364038243155e578f31022000d100e8f4b37dd24e2289a5b88806538bed0a9ef16cacab22d14ffc8ce4f39301", "034f778dfc140d0dde9a5dd231a368341713a6deecb7772469985c632e73cad50e"], "sequence": 4294967295, "scriptSig": {"hex": "1600149a44f3f01bb1089b82dd2bf25701558b093b8a68", "asm": "00149a44f3f01bb1089b82dd2bf25701558b093b8a68"}, "vout": 0, "txid": "4a9fe964ea8f6cd96a5673c43380b1834ccdd7580cf249ce57ff12a2b9762d65"}, {"txinwitness": ["304402207f44357545ea2e22505a286aaea6dbed672d797b733c31b2e11d42e06f9e55c202203b569871697bed3f7598958e2cd1d302b8446fe35217ed8e225f9042b2da0cd901", "026926b9ccf147adde0114bad40261232040f4f5c5730aef38194c8f5c8f0818e0"], "sequence": 4294967295, "scriptSig": {"hex": "16001484e6682859c687e473b0404ad2b4c89995c7b9f4", "asm": "001484e6682859c687e473b0404ad2b4c89995c7b9f4"}, "vout": 8, "txid": "2ee2738830dd338e99e43cc7787953644be14b23099f1bc18076cd386aca5f45"}, {"txinwitness": ["3045022100aa3a6d07db89c3644a535a9a90cb95091306e1197928aa578dacdc01ae2ea487022053bbfa7dc02da27df3515d2bef7c5836eb41966e326f8e77e31f50eb4b57946f01", "0295c8618ecc186ff524d4baf2089aa63269e2515be16e8591018c4a333ff7c4d5"], "sequence": 4294967295, "scriptSig": {"hex": "1600148e95bb7c9b430c70af00f76a4ee5465af4de815f", "asm": "00148e95bb7c9b430c70af00f76a4ee5465af4de815f"}, "vout": 12, "txid": "eafc448becfa1cdb45b0c9f44eca8fda0042f58b9ca2619a93059e0adf7dddaf"}], "txid": "4691189191633f071c017026c0f7d3191ca1be217ab4febd1578e2312c19ff76", "blocktime": 1537873282, "version": 2, "confirmations": 11481, "time": 1537873282, "locktime": 0, "vsize": 3134, "size": 5552}