{"hash": "469a18fa3a43b15395be6d1b1fc34fd81796749c157a5e8891b7d579e0b951e5", "blockhash": "0000000000000000001e0dab787dd257d1dbfcb92a98c2207d5e1078be1f4165", "vout": [{"scriptPubKey": {"type": "nulldata", "hex": "6a4c50000077af000133d242bfa6513a9aee3b9501af6c953dd567cf27e7e3ef3236678a62509767e2578ffb078e13fec09074c7521b0a5baa11320612075735e6fe33bc9a9526289ac0f6612cd74e33776ee4", "asm": "OP_RETURN 000077af000133d242bfa6513a9aee3b9501af6c953dd567cf27e7e3ef3236678a62509767e2578ffb078e13fec09074c7521b0a5baa11320612075735e6fe33bc9a9526289ac0f6612cd74e33776ee4"}, "value": 0.0, "n": 0}, {"scriptPubKey": {"reqSigs": 1, "hex": "76a9145ec88c15b7ad93ee878a8df6755fb3c867ddcb4c88ac", "addresses": ["19eAmJBZZQYRXh8HzWxqrw8QUgst8UAwdM"], "asm": "OP_DUP OP_HASH160 5ec88c15b7ad93ee878a8df6755fb3c867ddcb4c OP_EQUALVERIFY OP_CHECKSIG", "type": "pubkeyhash"}, "value": 0.00117024, "n": 1}], "hex": "0100000001648f756d5ab4c245f85f105426afbc20db460191881a5af7ebde794b6158cd2a010000006b483045022100881ebf4c7a50ad32938f184dea3147e6198f0827bb6d3a6be5c3c1f76c1db21d02203070304eeb9258aca91409c0352e5858c335d25c1b704625113fedb602d5c6d00121028dca2d22fb391295c70b74a00ac5d5f76a6f0a73273fc7fe029e18dc672dd727ffffffff020000000000000000536a4c50000077af000133d242bfa6513a9aee3b9501af6c953dd567cf27e7e3ef3236678a62509767e2578ffb078e13fec09074c7521b0a5baa11320612075735e6fe33bc9a9526289ac0f6612cd74e33776ee420c90100000000001976a9145ec88c15b7ad93ee878a8df6755fb3c867ddcb4c88ac00000000", "vin": [{"sequence": 4294967295, "scriptSig": {"hex": "483045022100881ebf4c7a50ad32938f184dea3147e6198f0827bb6d3a6be5c3c1f76c1db21d02203070304eeb9258aca91409c0352e5858c335d25c1b704625113fedb602d5c6d00121028dca2d22fb391295c70b74a00ac5d5f76a6f0a73273fc7fe029e18dc672dd727", "asm": "3045022100881ebf4c7a50ad32938f184dea3147e6198f0827bb6d3a6be5c3c1f76c1db21d02203070304eeb9258aca91409c0352e5858c335d25c1b704625113fedb602d5c6d0[ALL] 028dca2d22fb391295c70b74a00ac5d5f76a6f0a73273fc7fe029e18dc672dd727"}, "vout": 1, "txid": "2acd58614b79deebf75a1a88910146db20bcaf2654105ff845c2b45a6d758f64"}], "txid": "469a18fa3a43b15395be6d1b1fc34fd81796749c157a5e8891b7d579e0b951e5", "blocktime": 1537872475, "version": 1, "confirmations": 11486, "time": 1537872475, "locktime": 0, "vsize": 284, "size": 284}