{"hash": "469c8ec90fbe1e4a52a2409b2473d66f78bc3e2a84987527bf921f48c30ec358", "blockhash": "0000000000000000001cda96e906b7601b7a6fb1a3b62bca570a9e5d8f4b3de1", "vout": [{"scriptPubKey": {"reqSigs": 1, "hex": "76a914a90e58ff40df8e5648672f1edef0871685983da588ac", "addresses": ["1GQtPK3pQgDj3xrozVYRxM28UyhENWUbei"], "asm": "OP_DUP OP_HASH160 a90e58ff40df8e5648672f1edef0871685983da5 OP_EQUALVERIFY OP_CHECKSIG", "type": "pubkeyhash"}, "value": 0.00012189, "n": 0}, {"scriptPubKey": {"reqSigs": 1, "hex": "a914cef8e3cacbb017db4d579da7a85f1fd0ab2026ed87", "addresses": ["3LZPHEBwu73A7ouUXCaARakLyAaMjcPsuG"], "asm": "OP_HASH160 cef8e3cacbb017db4d579da7a85f1fd0ab2026ed OP_EQUAL", "type": "scripthash"}, "value": 0.00359105, "n": 1}], "hex": "010000000328785884fe6d380901183f04b57694f957b9fcda02c017ee958de1a42515a603000000008a4730440220701ef8151ee4edf8e18095918eab8d34de0985bd278296cd7393d9a8a0337e0f0220013d8879a48215320e4921f6e9d434095baf71f478511578d57e7e11fd304ba1014104de1d618ff5115479480c48fd07fa1064d8bc85329e9ee27168bd79ba19833812453c3d5ad6f5af21332c67987621f06c46381d8a9a4eafdaf0ca350d232f7df9ffffffff72a3e8cf9f82e06d294ce0fa698a2b5ad5c12dc52f6bbd33e151f3e0f331bd06030000008b483045022100daff7a0086cdbee1f5c4964d0a14bf8ea08f79d3a5b50202142402903d2e992102202809785cc98b1a8d9d3201c12085a81e40dfb786890926bf83c325d7925696c3014104de1d618ff5115479480c48fd07fa1064d8bc85329e9ee27168bd79ba19833812453c3d5ad6f5af21332c67987621f06c46381d8a9a4eafdaf0ca350d232f7df9ffffffff458a247649b988f8b5072e8f7f110fe1a7c6f4e812a825a00b8249226549ee13000000008a473044022005d804b1e6aa736227458a1a27262075679dfabbe22dc40c1be659c117f630fa02206fe126dfb2b16d7a939bed8b77305ddf7521c25dce508b99aaa4517ea21afdcd014104de1d618ff5115479480c48fd07fa1064d8bc85329e9ee27168bd79ba19833812453c3d5ad6f5af21332c67987621f06c46381d8a9a4eafdaf0ca350d232f7df9ffffffff029d2f0000000000001976a914a90e58ff40df8e5648672f1edef0871685983da588acc17a05000000000017a914cef8e3cacbb017db4d579da7a85f1fd0ab2026ed8700000000", "vin": [{"sequence": 4294967295, "scriptSig": {"hex": "4730440220701ef8151ee4edf8e18095918eab8d34de0985bd278296cd7393d9a8a0337e0f0220013d8879a48215320e4921f6e9d434095baf71f478511578d57e7e11fd304ba1014104de1d618ff5115479480c48fd07fa1064d8bc85329e9ee27168bd79ba19833812453c3d5ad6f5af21332c67987621f06c46381d8a9a4eafdaf0ca350d232f7df9", "asm": "30440220701ef8151ee4edf8e18095918eab8d34de0985bd278296cd7393d9a8a0337e0f0220013d8879a48215320e4921f6e9d434095baf71f478511578d57e7e11fd304ba1[ALL] 04de1d618ff5115479480c48fd07fa1064d8bc85329e9ee27168bd79ba19833812453c3d5ad6f5af21332c67987621f06c46381d8a9a4eafdaf0ca350d232f7df9"}, "vout": 0, "txid": "03a61525a4e18d95ee17c002dafcb957f99476b5043f180109386dfe84587828"}, {"sequence": 4294967295, "scriptSig": {"hex": "483045022100daff7a0086cdbee1f5c4964d0a14bf8ea08f79d3a5b50202142402903d2e992102202809785cc98b1a8d9d3201c12085a81e40dfb786890926bf83c325d7925696c3014104de1d618ff5115479480c48fd07fa1064d8bc85329e9ee27168bd79ba19833812453c3d5ad6f5af21332c67987621f06c46381d8a9a4eafdaf0ca350d232f7df9", "asm": "3045022100daff7a0086cdbee1f5c4964d0a14bf8ea08f79d3a5b50202142402903d2e992102202809785cc98b1a8d9d3201c12085a81e40dfb786890926bf83c325d7925696c3[ALL] 04de1d618ff5115479480c48fd07fa1064d8bc85329e9ee27168bd79ba19833812453c3d5ad6f5af21332c67987621f06c46381d8a9a4eafdaf0ca350d232f7df9"}, "vout": 3, "txid": "06bd31f3e0f351e133bd6b2fc52dc1d55a2b8a69fae04c296de0829fcfe8a372"}, {"sequence": 4294967295, "scriptSig": {"hex": "473044022005d804b1e6aa736227458a1a27262075679dfabbe22dc40c1be659c117f630fa02206fe126dfb2b16d7a939bed8b77305ddf7521c25dce508b99aaa4517ea21afdcd014104de1d618ff5115479480c48fd07fa1064d8bc85329e9ee27168bd79ba19833812453c3d5ad6f5af21332c67987621f06c46381d8a9a4eafdaf0ca350d232f7df9", "asm": "3044022005d804b1e6aa736227458a1a27262075679dfabbe22dc40c1be659c117f630fa02206fe126dfb2b16d7a939bed8b77305ddf7521c25dce508b99aaa4517ea21afdcd[ALL] 04de1d618ff5115479480c48fd07fa1064d8bc85329e9ee27168bd79ba19833812453c3d5ad6f5af21332c67987621f06c46381d8a9a4eafdaf0ca350d232f7df9"}, "vout": 0, "txid": "13ee49652249820ba025a812e8f4c6a7e10f117f8f2e07b5f888b94976248a45"}], "txid": "469c8ec90fbe1e4a52a2409b2473d66f78bc3e2a84987527bf921f48c30ec358", "blocktime": 1537873282, "version": 1, "confirmations": 11484, "time": 1537873282, "locktime": 0, "vsize": 614, "size": 614}