{"hash": "46dbeb98ac480da4c0cd7a6d65d364f42208e5ab9ab71005161b5c290843544c", "blockhash": "0000000000000000000e13cef7c366c0283d82e591d1acd082e914b08063cdf1", "vout": [{"scriptPubKey": {"reqSigs": 1, "hex": "a914668f9fa5d9592bbabf6db7ae4336219409af5aaf87", "addresses": ["3B3JuFjVMS8tVt8fcyaa4BMmTsLyuhAfC1"], "asm": "OP_HASH160 668f9fa5d9592bbabf6db7ae4336219409af5aaf OP_EQUAL", "type": "scripthash"}, "value": 0.0129916, "n": 0}, {"scriptPubKey": {"reqSigs": 1, "hex": "76a914973dda126268e0169d1042b19faad8a2a64286c288ac", "addresses": ["1Enh8WTCTdiTKEo9XZkg5PXgoUhw1hvnjG"], "asm": "OP_DUP OP_HASH160 973dda126268e0169d1042b19faad8a2a64286c2 OP_EQUALVERIFY OP_CHECKSIG", "type": "pubkeyhash"}, "value": 0.012, "n": 1}], "hex": "020000000001013a30738f5e5f6e0b38bb0822eff4101131f29e8165f1af87b99948d74c54d3f60000000017160014648e0d13beab1723018e5e88dfea8c887b36fcf8fdffffff02d8d213000000000017a914668f9fa5d9592bbabf6db7ae4336219409af5aaf87804f1200000000001976a914973dda126268e0169d1042b19faad8a2a64286c288ac02483045022100fb99ba76c04ec2ef98436f6b9463b3c2ec04f6f72e225fd701c60a821607e52e0220726c345638c98892fe6e619859c0f68145d9f046636dcd8e42bfb2b5d82a0619012103ce12f96f31115d600ff5e22def5c3f0a1965f0ed7464cdd55d75aea6be329deb0f490800", "vin": [{"txinwitness": ["3045022100fb99ba76c04ec2ef98436f6b9463b3c2ec04f6f72e225fd701c60a821607e52e0220726c345638c98892fe6e619859c0f68145d9f046636dcd8e42bfb2b5d82a061901", "03ce12f96f31115d600ff5e22def5c3f0a1965f0ed7464cdd55d75aea6be329deb"], "sequence": 4294967293, "scriptSig": {"hex": "160014648e0d13beab1723018e5e88dfea8c887b36fcf8", "asm": "0014648e0d13beab1723018e5e88dfea8c887b36fcf8"}, "vout": 0, "txid": "f6d3544cd74899b987aff165819ef2311110f4ef2208bb380b6e5f5e8f73303a"}], "txid": "469ff039f809a32dead7736cfd98364811d7cd94b2d622699b552968cd3738d4", "blocktime": 1537871767, "version": 2, "confirmations": 11493, "time": 1537871767, "locktime": 542991, "vsize": 168, "size": 250}