{"hash": "46a57b6d4bc37317981350859602cbbe8a5cd3fe8d6a2388d49caf6d82e89b8f", "blockhash": "0000000000000000000e13cef7c366c0283d82e591d1acd082e914b08063cdf1", "vout": [{"scriptPubKey": {"reqSigs": 1, "hex": "76a914036d05a93678db03104acc83ae1b1ba038af2b7288ac", "addresses": ["1K7dZki5v27wR2UfPCFoVHAYs8oFSY8cb"], "asm": "OP_DUP OP_HASH160 036d05a93678db03104acc83ae1b1ba038af2b72 OP_EQUALVERIFY OP_CHECKSIG", "type": "pubkeyhash"}, "value": 0.00644761, "n": 0}, {"scriptPubKey": {"type": "nulldata", "hex": "6a4c500000778f0001e7a456ce0cb83b3484133e3ee3ef3236678a625097bcbefa6b8351586b4ef3d5191c4765e120d4619b974c49561c5baa0c760613d73ccb0eebae1d100759d4ba30d2c37bb011d97e02cf", "asm": "OP_RETURN 0000778f0001e7a456ce0cb83b3484133e3ee3ef3236678a625097bcbefa6b8351586b4ef3d5191c4765e120d4619b974c49561c5baa0c760613d73ccb0eebae1d100759d4ba30d2c37bb011d97e02cf"}, "value": 0.0, "n": 1}], "hex": "010000000121bb68fa812ed377f92fc26a3831a763cf656f62f142662c5b09b95be689e460000000006b483045022100ad48dd47ae42622066eceeae60249707b91c534098f832ecb6547557e0a67b75022016ebb2150bfe7bcb994546b68eb96009d2ea904f5ef48cdbbbcf2be8c351ef9401210371e1c7cb777ffc4f25f38ca4ef384241ae10c5dfd4088a46d16968bf3ab65ffcffffffff0299d60900000000001976a914036d05a93678db03104acc83ae1b1ba038af2b7288ac0000000000000000536a4c500000778f0001e7a456ce0cb83b3484133e3ee3ef3236678a625097bcbefa6b8351586b4ef3d5191c4765e120d4619b974c49561c5baa0c760613d73ccb0eebae1d100759d4ba30d2c37bb011d97e02cf00000000", "vin": [{"sequence": 4294967295, "scriptSig": {"hex": "483045022100ad48dd47ae42622066eceeae60249707b91c534098f832ecb6547557e0a67b75022016ebb2150bfe7bcb994546b68eb96009d2ea904f5ef48cdbbbcf2be8c351ef9401210371e1c7cb777ffc4f25f38ca4ef384241ae10c5dfd4088a46d16968bf3ab65ffc", "asm": "3045022100ad48dd47ae42622066eceeae60249707b91c534098f832ecb6547557e0a67b75022016ebb2150bfe7bcb994546b68eb96009d2ea904f5ef48cdbbbcf2be8c351ef94[ALL] 0371e1c7cb777ffc4f25f38ca4ef384241ae10c5dfd4088a46d16968bf3ab65ffc"}, "vout": 0, "txid": "60e489e65bb9095b2c6642f1626f65cf63a731386ac22ff977d32e81fa68bb21"}], "txid": "46a57b6d4bc37317981350859602cbbe8a5cd3fe8d6a2388d49caf6d82e89b8f", "blocktime": 1537871767, "version": 1, "confirmations": 11495, "time": 1537871767, "locktime": 0, "vsize": 284, "size": 284}