{"hash": "46a9be7dcfc3d232889ecc48f3b57573ce683655d7d3c9c8d7a55b64194b310b", "blockhash": "0000000000000000000baef3f32e3676a92c3b2e5da21b426e4f302fc371ce76", "vout": [{"scriptPubKey": {"reqSigs": 1, "hex": "76a91446141b242e545f13f0499b61b1361433a67967b988ac", "addresses": ["17PYPRJLfT18Lf991AZPQp9eoU5dhmQRxm"], "asm": "OP_DUP OP_HASH160 46141b242e545f13f0499b61b1361433a67967b9 OP_EQUALVERIFY OP_CHECKSIG", "type": "pubkeyhash"}, "value": 0.0018144, "n": 0}, {"scriptPubKey": {"type": "nulldata", "hex": "6a4c500000783500013bc97412f834aee962e8564f27b7256b4774d339f6019d6ddc0f1b8ff11788667ed6834b1ca9f5f6e90a8b6dfa855baa202a06158e6013eaa6cec288b2720c27cdda35b5f050e1b42260", "asm": "OP_RETURN 0000783500013bc97412f834aee962e8564f27b7256b4774d339f6019d6ddc0f1b8ff11788667ed6834b1ca9f5f6e90a8b6dfa855baa202a06158e6013eaa6cec288b2720c27cdda35b5f050e1b42260"}, "value": 0.0, "n": 1}], "hex": "0100000001f28d80f1c8f6bb184193aa7243f7a0511604fac176acdf0ee4d60837051a84c9000000006b483045022100da9c708b7ee430d9c9f3129eedbac1032ec8c9e872b7aaf6ac2dcc47f9cc68ee022073f707e3bbd1d73573e965a023b70d1d5be22cf389057b51fa4ee4ef56f7fb5601210384b349dd9a95fb29305812d8ea6a41b11e77f324f3ff5e8557fec7ee08ff3540ffffffff02c0c40200000000001976a91446141b242e545f13f0499b61b1361433a67967b988ac0000000000000000536a4c500000783500013bc97412f834aee962e8564f27b7256b4774d339f6019d6ddc0f1b8ff11788667ed6834b1ca9f5f6e90a8b6dfa855baa202a06158e6013eaa6cec288b2720c27cdda35b5f050e1b4226000000000", "vin": [{"sequence": 4294967295, "scriptSig": {"hex": "483045022100da9c708b7ee430d9c9f3129eedbac1032ec8c9e872b7aaf6ac2dcc47f9cc68ee022073f707e3bbd1d73573e965a023b70d1d5be22cf389057b51fa4ee4ef56f7fb5601210384b349dd9a95fb29305812d8ea6a41b11e77f324f3ff5e8557fec7ee08ff3540", "asm": "3045022100da9c708b7ee430d9c9f3129eedbac1032ec8c9e872b7aaf6ac2dcc47f9cc68ee022073f707e3bbd1d73573e965a023b70d1d5be22cf389057b51fa4ee4ef56f7fb56[ALL] 0384b349dd9a95fb29305812d8ea6a41b11e77f324f3ff5e8557fec7ee08ff3540"}, "vout": 0, "txid": "c9841a053708d6e40edfac76c1fa041651a0f74372aa934118bbf6c8f1808df2"}], "txid": "46a9be7dcfc3d232889ecc48f3b57573ce683655d7d3c9c8d7a55b64194b310b", "blocktime": 1537876114, "version": 1, "confirmations": 11460, "time": 1537876114, "locktime": 0, "vsize": 284, "size": 284}