{"hash": "a3a908ff307c8dd4ea61d545a18fdcd22f51a8f0504c5bd3796b41cf6c459fe6", "blockhash": "000000000000000000022b45ed06c6f4ccd3cf7fb5ba4856ebd2e58215665228", "vout": [{"scriptPubKey": {"reqSigs": 1, "hex": "76a9148eb3fabf5afa866a6533f3660ba19a263d43561688ac", "addresses": ["1E1YZS9aUBED4EAf1RnDcd1gUX6htttwgf"], "asm": "OP_DUP OP_HASH160 8eb3fabf5afa866a6533f3660ba19a263d435616 OP_EQUALVERIFY OP_CHECKSIG", "type": "pubkeyhash"}, "value": 0.02022761, "n": 0}, {"scriptPubKey": {"reqSigs": 1, "hex": "a914884d2b54460a05445706ff852eca7cf40d6ce3ee87", "addresses": ["3E7iGSrHuEd7Vsk1YLqp6r9LWA8b22bXgr"], "asm": "OP_HASH160 884d2b54460a05445706ff852eca7cf40d6ce3ee OP_EQUAL", "type": "scripthash"}, "value": 0.20355766, "n": 1}], "hex": "01000000000101b1e3006d5f0bf5e81de2880b47d5886bd063eaab4483ba54c34015f29695e8540100000023220020efd0a1da1ebf7a6fc9e25e830b688d75bbd4b30f6abb842acd20655bb7f6d145ffffffff0269dd1e00000000001976a9148eb3fabf5afa866a6533f3660ba19a263d43561688acb69a36010000000017a914884d2b54460a05445706ff852eca7cf40d6ce3ee870400483045022100ca26fad8ec26b5bdf934a4cb653f6c1aac6da122c4314d57c5b258ced2238e4102201bf35528501877eaa8328e06a2346229851ae7dcbe789dab85685790bc0321580147304402203e743a64a3faf3339057ee41cc315cc069d2576c28924618baa38e79a6efe3b202202064781f2d2b00193b57dd4724b02ba80a4cc24363afe5692d07003416bb6f520147522103eae7da39b361d39b27b08b89096fb486539d196254470498e57f293c8e614c7c210378143ae674b77ed33bdc93abdea3b13cf5e13e849f5a8bdf86fffdecb26f230a52ae00000000", "vin": [{"txinwitness": ["", "3045022100ca26fad8ec26b5bdf934a4cb653f6c1aac6da122c4314d57c5b258ced2238e4102201bf35528501877eaa8328e06a2346229851ae7dcbe789dab85685790bc03215801", "304402203e743a64a3faf3339057ee41cc315cc069d2576c28924618baa38e79a6efe3b202202064781f2d2b00193b57dd4724b02ba80a4cc24363afe5692d07003416bb6f5201", "522103eae7da39b361d39b27b08b89096fb486539d196254470498e57f293c8e614c7c210378143ae674b77ed33bdc93abdea3b13cf5e13e849f5a8bdf86fffdecb26f230a52ae"], "sequence": 4294967295, "scriptSig": {"hex": "220020efd0a1da1ebf7a6fc9e25e830b688d75bbd4b30f6abb842acd20655bb7f6d145", "asm": "0020efd0a1da1ebf7a6fc9e25e830b688d75bbd4b30f6abb842acd20655bb7f6d145"}, "vout": 1, "txid": "54e89596f21540c354ba8344abea63d06b88d5470b88e21de8f50b5f6d00e3b1"}], "txid": "46ab68e79d357024bf604e5458f6eef825127d5bb721aa01dd3bff9d8f7be527", "blocktime": 1537869901, "version": 1, "confirmations": 11524, "time": 1537869901, "locktime": 0, "vsize": 208, "size": 373}