{"hash": "f3d7c14aeb165b5f0c5fe8b26150703b17637554f6ce2e0ce1828cb12a42e654", "blockhash": "00000000000000000024a2167bbff67b0be802c0b01cdd79e6331c2be6459f87", "vout": [{"scriptPubKey": {"reqSigs": 1, "hex": "0014bdcdac35f377f1fcc7f249a570f522d5fd6eaca3", "addresses": ["bc1qhhx6cd0nwlcle3ljfxjhpafz6h7kat9rsjusrh"], "asm": "0 bdcdac35f377f1fcc7f249a570f522d5fd6eaca3", "type": "witness_v0_keyhash"}, "value": 0.11725268, "n": 0}, {"scriptPubKey": {"reqSigs": 1, "hex": "a91407763955f35299fbe73d8d3b2cb6aec27906bacc87", "addresses": ["32NUHEQCzfoeyk1LqMfDmbtfani76mVyRs"], "asm": "OP_HASH160 07763955f35299fbe73d8d3b2cb6aec27906bacc OP_EQUAL", "type": "scripthash"}, "value": 0.041686, "n": 1}], "hex": "010000000001015a10797fbea385b69cabeb11ea27961cf60353b46ce615eeafbd88c35c366cc5040000001716001483af2c4dcc9cff8cb0c6665456cba84557510778ffffffff02d4e9b20000000000160014bdcdac35f377f1fcc7f249a570f522d5fd6eaca3989b3f000000000017a91407763955f35299fbe73d8d3b2cb6aec27906bacc8702483045022100c7a92c54db2dc41c9a306da7a8f6e03526b5df00b8d026f5f61489a1602362c102201a56316a981a4f3fc00f44055fc134efb1cd6ef140287cc65d6a595ecd8559c3012102f643d2f325ab32dfb91bc88dcf36b49b4de67dbfed7a715a75c5998c4025b01300000000", "vin": [{"txinwitness": ["3045022100c7a92c54db2dc41c9a306da7a8f6e03526b5df00b8d026f5f61489a1602362c102201a56316a981a4f3fc00f44055fc134efb1cd6ef140287cc65d6a595ecd8559c301", "02f643d2f325ab32dfb91bc88dcf36b49b4de67dbfed7a715a75c5998c4025b013"], "sequence": 4294967295, "scriptSig": {"hex": "16001483af2c4dcc9cff8cb0c6665456cba84557510778", "asm": "001483af2c4dcc9cff8cb0c6665456cba84557510778"}, "vout": 4, "txid": "c56c365cc388bdafee15e66cb45303f61c9627ea11ebab9cb685a3be7f79105a"}], "txid": "46ab857358e69e56b2042078bbed9bc08a076b348e679be0a12ef5fdc147bc68", "blocktime": 1537870564, "version": 1, "confirmations": 11515, "time": 1537870564, "locktime": 0, "vsize": 165, "size": 247}