{"hash": "62886c8fbde06c4f5e2477f10fb2a6fa2c9d6e0edfc6cc7c32330594c3f7a5a4", "blockhash": "0000000000000000001f0ddff1eddb255c1121bcd4da4f1bc9a0da00cae72433", "vout": [{"scriptPubKey": {"reqSigs": 1, "hex": "76a914c747d52b2cce6dfdb1040311c629680365dac39b88ac", "addresses": ["1KAhXCRu78STEfPaqGCUxr3Uc7Mu8vaH7A"], "asm": "OP_DUP OP_HASH160 c747d52b2cce6dfdb1040311c629680365dac39b OP_EQUALVERIFY OP_CHECKSIG", "type": "pubkeyhash"}, "value": 0.00261388, "n": 0}, {"scriptPubKey": {"reqSigs": 1, "hex": "a914c0a7d1d05c43b05cf161e0415720765bbcb6daa587", "addresses": ["3KFghgee4t6UBpPJFP5oxKXff7Mkzpd8FY"], "asm": "OP_HASH160 c0a7d1d05c43b05cf161e0415720765bbcb6daa5 OP_EQUAL", "type": "scripthash"}, "value": 0.0049048, "n": 1}], "hex": "010000000001011d16b65384b0c1e0360a87c5e350f712327dee68997751aac6ea9e564f1c886f0100000023220020435cdd2982c7fdc175dcd9dd08b52697e466b6ff50d77cf5ec1d69eabb499f17ffffffff020cfd0300000000001976a914c747d52b2cce6dfdb1040311c629680365dac39b88acf07b07000000000017a914c0a7d1d05c43b05cf161e0415720765bbcb6daa5870400473044022054013e31e246ab71a9db29dc3150847160ad0e27cc2d8ae883602eb45b0803f8022034bf5f814b5f42b316c43a114076a6ce1fb9cad2f090a4fa7f7b18708e29562801473044022054985226c38d09bcb280c342e82eb8f8dd25d3edbcccadb0e191a746f081655802207dd998b2c4e81e5f8eedd1ea3dfc85998dd7dadac80390fcbc322b15a37d095501475221029271f31e4d0b877d72a3b8a6695acde7fde20518556a031e7f50e2674c6e3f0b2103871fc2ca08e6950b38867e8e6a0e94ee625223d3aa0df5c65f414c6d784467e252ae00000000", "vin": [{"txinwitness": ["", "3044022054013e31e246ab71a9db29dc3150847160ad0e27cc2d8ae883602eb45b0803f8022034bf5f814b5f42b316c43a114076a6ce1fb9cad2f090a4fa7f7b18708e29562801", "3044022054985226c38d09bcb280c342e82eb8f8dd25d3edbcccadb0e191a746f081655802207dd998b2c4e81e5f8eedd1ea3dfc85998dd7dadac80390fcbc322b15a37d095501", "5221029271f31e4d0b877d72a3b8a6695acde7fde20518556a031e7f50e2674c6e3f0b2103871fc2ca08e6950b38867e8e6a0e94ee625223d3aa0df5c65f414c6d784467e252ae"], "sequence": 4294967295, "scriptSig": {"hex": "220020435cdd2982c7fdc175dcd9dd08b52697e466b6ff50d77cf5ec1d69eabb499f17", "asm": "0020435cdd2982c7fdc175dcd9dd08b52697e466b6ff50d77cf5ec1d69eabb499f17"}, "vout": 1, "txid": "6f881c4f569eeac6aa51779968ee7d3212f750e3c5870a36e0c1b08453b6161d"}], "txid": "46b0dea4c59be6c3c4d8424595b2acb339fab19a29be58fde9e4f2f88d865fea", "blocktime": 1537872018, "version": 1, "confirmations": 11489, "time": 1537872018, "locktime": 0, "vsize": 207, "size": 372}