{"hash": "c33d24ef661e41e825a2704f2c3f1a9a03f90f68c87b2093fdd618601065834a", "blockhash": "0000000000000000001cda96e906b7601b7a6fb1a3b62bca570a9e5d8f4b3de1", "vout": [{"scriptPubKey": {"reqSigs": 1, "hex": "76a9140d6fc290dffa69db3252afdfe5fb339c001b1e2e88ac", "addresses": ["12E3fiYkZYwGe7YhdwG1X4tSQhpc4hLLgX"], "asm": "OP_DUP OP_HASH160 0d6fc290dffa69db3252afdfe5fb339c001b1e2e OP_EQUALVERIFY OP_CHECKSIG", "type": "pubkeyhash"}, "value": 1.1995, "n": 0}, {"scriptPubKey": {"reqSigs": 1, "hex": "76a914c4d5607a60442f932799b72a03810b0fae0ccec788ac", "addresses": ["1Jwm4HSQbzt6SWF1o1q6DPA45qZT3MeEUo"], "asm": "OP_DUP OP_HASH160 c4d5607a60442f932799b72a03810b0fae0ccec7 OP_EQUALVERIFY OP_CHECKSIG", "type": "pubkeyhash"}, "value": 0.01549726, "n": 1}, {"scriptPubKey": {"reqSigs": 1, "hex": "a9143c5c94846c73517c49186b2b32ea6d145e5b5f7687", "addresses": ["37CBNdmwxmHe9xDupp6TMYxs278F5nHcpm"], "asm": "OP_HASH160 3c5c94846c73517c49186b2b32ea6d145e5b5f76 OP_EQUAL", "type": "scripthash"}, "value": 1.66830603, "n": 2}, {"scriptPubKey": {"reqSigs": 1, "hex": "a91451187d73e97e1f28697a8ec17be116fad8ec5a1787", "addresses": ["395ozgRWrJiYLQa7aibiMAzvLf1i8y6Ly2"], "asm": "OP_HASH160 51187d73e97e1f28697a8ec17be116fad8ec5a17 OP_EQUAL", "type": "scripthash"}, "value": 0.03000018, "n": 3}], "hex": "0100000000010428edbcf760c7724acf36394f7ba16a1486f5ed74783bef961ef1768c40097f3d0b000000232200207388080c1058b00ec7881b259054bbb9fb7fe5e391d516cbfc5ba16c2db8b0c70000000062fe96ffe9bca5fe3896dd062d1fc835305722b17167be7a29cff65b0f2bf00c03000000232200203c7bc76e43244321c93e2c4bc0f09a98ddabf2377a0712b45bca92efc952be6f00000000d5b3192e25fbfeb6817bcf938d83151476f22397da9d805804cd39d1a2a0ffd12c000000232200202d7a50f24ff7c777a4decbf11e12618f855be41b9a14221dc80394865784c2cf000000009534328744c8f0ef9be05f78622df604d599d0f390dbb9495ba1398f71c0a50be207000023220020c4a0809e3eb87a515e5b1ee0e41ab2fa31a407c3830618218618a04f092b99180000000004b04a2607000000001976a9140d6fc290dffa69db3252afdfe5fb339c001b1e2e88ac9ea51700000000001976a914c4d5607a60442f932799b72a03810b0fae0ccec788ac0ba2f1090000000017a9143c5c94846c73517c49186b2b32ea6d145e5b5f7687d2c62d000000000017a91451187d73e97e1f28697a8ec17be116fad8ec5a1787040047304402203ffe1b8cff90b6ab840261374a0e2c932876203d525aca6040fb95f169ecb02702204b23d3b876561e817393e7d0655ad56901c3d4e77b6432b7f5d5e690ab69d47b01483045022100b88d19df0880f23ac5896fa0de3a122f793577a8aa9b5b5942025a77838482a702205f11e8abb22e1cd26c3b5769118938e52b25043fd303208f99b53cc0e36504050147522103d8ed4fa955e884b45652db2a0dcf7f4f1fb82440a4f7ac634e3daa1d677c520621034d712dd0fa071493326768f3e9eafdbbc5604eb8965cc65dd7405043ebaf51cd52ae0400483045022100b8950d5707fefc1a314f951991ce8ce35c8e5bf2c1b2955a613d855ac74a44d70220241b3bd721d9f5137c4dd2390574e9a4bb692d9ff987c624b11bf17b26d540ef01483045022100a1008cbfa035bb8d0748069178782a8c2396800113aeb6aeb7e0b96e3b4c7e99022072673cc93e3e7513393c6b2212429e704a1c4811dd09437a86ee8cbf61f1a11901475221023c89334c9ee568b20b521d083210186c137bb58a9dddb4b71ede367ac5f3f4432102828c8b3a7bff2dbcd03560d1373942af044fb48cab4b0447e0c1d047d5538a3552ae0400483045022100bca84c3a59170fc3462f46c3918cb0692f325d78520bb66b43bef72717c8f8c7022029438e2f1a064c2769013806f1c1815b7acaa1feeafa949c83bb69afc055a5cf01483045022100b7b694ad993cc920d87f9340f7fd3ee61114f24597e156ac6a84a944c098918202206a3a0440070a656b0673261172fde28a6cc099a640414fbd7c150f4a7fa997650147522103395dbee1ffdc6d7e28fae16618327dd2633dd6f8879dc39676cab9e55911fcd521021ae184d69382449a14e703d89938720dea351fd255f47e8940a6b74732ad0f2052ae0400473044022052e47e9fe4a0927a7eaaa88ef70a94b50ad08c443c316795f8f26464f13b69b802207cae88a8ef7ec6290051f733e97c7b2984fb784e33b54cf5ce67a0b2f6d5ad6201483045022100a393e81f54cf66f18f163525d67532e7708352e30798d99106a036208d7a1085022015d3869eba4396506906d28f5d05336192372b761a7f2e8c9c5cd84835c8fdcb01475221034d39a42c9b3072da0580aa28144778ef1dea3851aa59d38d94d952ea898489aa21025e657dd275326225edf7bd2b1b54e9f110c68c52a4d8b255d2bb6bb0ca8b429352ae00000000", "vin": [{"txinwitness": ["", "304402203ffe1b8cff90b6ab840261374a0e2c932876203d525aca6040fb95f169ecb02702204b23d3b876561e817393e7d0655ad56901c3d4e77b6432b7f5d5e690ab69d47b01", "3045022100b88d19df0880f23ac5896fa0de3a122f793577a8aa9b5b5942025a77838482a702205f11e8abb22e1cd26c3b5769118938e52b25043fd303208f99b53cc0e365040501", "522103d8ed4fa955e884b45652db2a0dcf7f4f1fb82440a4f7ac634e3daa1d677c520621034d712dd0fa071493326768f3e9eafdbbc5604eb8965cc65dd7405043ebaf51cd52ae"], "sequence": 0, "scriptSig": {"hex": "2200207388080c1058b00ec7881b259054bbb9fb7fe5e391d516cbfc5ba16c2db8b0c7", "asm": "00207388080c1058b00ec7881b259054bbb9fb7fe5e391d516cbfc5ba16c2db8b0c7"}, "vout": 11, "txid": "3d7f09408c76f11e96ef3b7874edf586146aa17b4f3936cf4a72c760f7bced28"}, {"txinwitness": ["", "3045022100b8950d5707fefc1a314f951991ce8ce35c8e5bf2c1b2955a613d855ac74a44d70220241b3bd721d9f5137c4dd2390574e9a4bb692d9ff987c624b11bf17b26d540ef01", "3045022100a1008cbfa035bb8d0748069178782a8c2396800113aeb6aeb7e0b96e3b4c7e99022072673cc93e3e7513393c6b2212429e704a1c4811dd09437a86ee8cbf61f1a11901", "5221023c89334c9ee568b20b521d083210186c137bb58a9dddb4b71ede367ac5f3f4432102828c8b3a7bff2dbcd03560d1373942af044fb48cab4b0447e0c1d047d5538a3552ae"], "sequence": 0, "scriptSig": {"hex": "2200203c7bc76e43244321c93e2c4bc0f09a98ddabf2377a0712b45bca92efc952be6f", "asm": "00203c7bc76e43244321c93e2c4bc0f09a98ddabf2377a0712b45bca92efc952be6f"}, "vout": 3, "txid": "0cf02b0f5bf6cf297abe6771b122573035c81f2d06dd9638fea5bce9ff96fe62"}, {"txinwitness": ["", "3045022100bca84c3a59170fc3462f46c3918cb0692f325d78520bb66b43bef72717c8f8c7022029438e2f1a064c2769013806f1c1815b7acaa1feeafa949c83bb69afc055a5cf01", "3045022100b7b694ad993cc920d87f9340f7fd3ee61114f24597e156ac6a84a944c098918202206a3a0440070a656b0673261172fde28a6cc099a640414fbd7c150f4a7fa9976501", "522103395dbee1ffdc6d7e28fae16618327dd2633dd6f8879dc39676cab9e55911fcd521021ae184d69382449a14e703d89938720dea351fd255f47e8940a6b74732ad0f2052ae"], "sequence": 0, "scriptSig": {"hex": "2200202d7a50f24ff7c777a4decbf11e12618f855be41b9a14221dc80394865784c2cf", "asm": "00202d7a50f24ff7c777a4decbf11e12618f855be41b9a14221dc80394865784c2cf"}, "vout": 44, "txid": "d1ffa0a2d139cd0458809dda9723f2761415838d93cf7b81b6fefb252e19b3d5"}, {"txinwitness": ["", "3044022052e47e9fe4a0927a7eaaa88ef70a94b50ad08c443c316795f8f26464f13b69b802207cae88a8ef7ec6290051f733e97c7b2984fb784e33b54cf5ce67a0b2f6d5ad6201", "3045022100a393e81f54cf66f18f163525d67532e7708352e30798d99106a036208d7a1085022015d3869eba4396506906d28f5d05336192372b761a7f2e8c9c5cd84835c8fdcb01", "5221034d39a42c9b3072da0580aa28144778ef1dea3851aa59d38d94d952ea898489aa21025e657dd275326225edf7bd2b1b54e9f110c68c52a4d8b255d2bb6bb0ca8b429352ae"], "sequence": 0, "scriptSig": {"hex": "220020c4a0809e3eb87a515e5b1ee0e41ab2fa31a407c3830618218618a04f092b9918", "asm": "0020c4a0809e3eb87a515e5b1ee0e41ab2fa31a407c3830618218618a04f092b9918"}, "vout": 2018, "txid": "0ba5c0718f39a15b49b9db90f3d099d504f62d62785fe09beff0c84487323495"}], "txid": "46b2a520b4cb330e7fc07f92417ef4e040349c8f14067c0c2df3a310105e625d", "blocktime": 1537873282, "version": 1, "confirmations": 11480, "time": 1537873282, "locktime": 0, "vsize": 666, "size": 1326}