{"hash": "46ba5b1377d658f303b01891cd42fe1720ed94e32844092821a1bd412ab28ff2", "blockhash": "00000000000000000017f5eb5941039fbcee6240d03bc1f2f8e35350df66a1d8", "vout": [{"scriptPubKey": {"reqSigs": 1, "hex": "76a914f8b989df8f531c3e7049ce9988098cb3e76bb74e88ac", "addresses": ["1Pg8r28zPm73v7p8SPE7zBX5Cm1iDpjP8L"], "asm": "OP_DUP OP_HASH160 f8b989df8f531c3e7049ce9988098cb3e76bb74e OP_EQUALVERIFY OP_CHECKSIG", "type": "pubkeyhash"}, "value": 0.007834, "n": 0}, {"scriptPubKey": {"reqSigs": 1, "hex": "76a914364342746614fa47bf6617d2183ab97bf798097888ac", "addresses": ["15wv4dwpoBLmbLRhK26PTfxpYKT1DBDRtb"], "asm": "OP_DUP OP_HASH160 364342746614fa47bf6617d2183ab97bf7980978 OP_EQUALVERIFY OP_CHECKSIG", "type": "pubkeyhash"}, "value": 0.01040837, "n": 1}], "hex": "01000000017eeff7b4b93a01170715158e896a410a99173324b99b728fc2831506e55760420b0000006b483045022100a79c1fa60d741dd6cf623c944224dbb4bccd65c4c26d7e53d64b829265129f4802200e5e9d391325485219b7e4392984a05e379de4416f4291dc62a8adfd36243112012103c241fc4b1e6a0496ef4d5cac042bb7ce242f3d5afc4db88ce1a2d5d324d75708ffffffff0228f40b00000000001976a914f8b989df8f531c3e7049ce9988098cb3e76bb74e88acc5e10f00000000001976a914364342746614fa47bf6617d2183ab97bf798097888ac00000000", "vin": [{"sequence": 4294967295, "scriptSig": {"hex": "483045022100a79c1fa60d741dd6cf623c944224dbb4bccd65c4c26d7e53d64b829265129f4802200e5e9d391325485219b7e4392984a05e379de4416f4291dc62a8adfd36243112012103c241fc4b1e6a0496ef4d5cac042bb7ce242f3d5afc4db88ce1a2d5d324d75708", "asm": "3045022100a79c1fa60d741dd6cf623c944224dbb4bccd65c4c26d7e53d64b829265129f4802200e5e9d391325485219b7e4392984a05e379de4416f4291dc62a8adfd36243112[ALL] 03c241fc4b1e6a0496ef4d5cac042bb7ce242f3d5afc4db88ce1a2d5d324d75708"}, "vout": 11, "txid": "426057e5061583c28f729bb9243317990a416a898e15150717013ab9b4f7ef7e"}], "txid": "46ba5b1377d658f303b01891cd42fe1720ed94e32844092821a1bd412ab28ff2", "blocktime": 1537874412, "version": 1, "confirmations": 11468, "time": 1537874412, "locktime": 0, "vsize": 226, "size": 226}