{"hash": "46bdf33359373d8e664ae8c9c0a1ec34f3ac4457bab3db8b967cb644d1ad169e", "blockhash": "0000000000000000000dcc0f55137456b1a82d3642486a52398922ac4d620174", "vout": [{"scriptPubKey": {"reqSigs": 1, "hex": "76a9142bbbe41478b480960dd8b6e784ed801c5fd2898788ac", "addresses": ["14zF997dyoGzRFZLydvt6gu1zghgD7NuhN"], "asm": "OP_DUP OP_HASH160 2bbbe41478b480960dd8b6e784ed801c5fd28987 OP_EQUALVERIFY OP_CHECKSIG", "type": "pubkeyhash"}, "value": 6.115e-05, "n": 0}, {"scriptPubKey": {"reqSigs": 1, "hex": "76a9140ad2f8e344ccf3c4b0919399bfe7e9124e5b506c88ac", "addresses": ["1zEVXT3SRdnH22CtBx82BDYGS8D3xjdpg"], "asm": "OP_DUP OP_HASH160 0ad2f8e344ccf3c4b0919399bfe7e9124e5b506c OP_EQUALVERIFY OP_CHECKSIG", "type": "pubkeyhash"}, "value": 0.01355862, "n": 1}], "hex": "0100000002b9658a950adc3aa8bcccc1c7f7d8351e9f0b7f59d809bb9dd9751b46747417f4000000006b4830450221008eed77774acb46ac8e45d3c8c4401bcae018424e192b64a6b694196ba3cb7bcf022043e64b6d49da04d719d26ab971c4a05aaaada4faeec793e231443a158aee186e012103480d35ac68bcd9836cd3bb24c44530a17f7d87063592f9919e53e24062b6975affffffff6142b596a5e0becefedd6d8f4ea97a7e94f18d231fe65a13ae3cc3b8701f44f6000000006b483045022100d70e63bb00be55c2afec5e6112839e0efaafa3f37ba6d08f80a058cbd16515b2022027c7f952c5089d7528786401207ca73273623c27e5f7c6eb54b5b67448b6c44b0121032ee4cf822adfa44d0b20789ebaba6bd3e01f21a698c21368a21816ea9f00659cffffffff02e3170000000000001976a9142bbbe41478b480960dd8b6e784ed801c5fd2898788ac56b01400000000001976a9140ad2f8e344ccf3c4b0919399bfe7e9124e5b506c88ac00000000", "vin": [{"sequence": 4294967295, "scriptSig": {"hex": "4830450221008eed77774acb46ac8e45d3c8c4401bcae018424e192b64a6b694196ba3cb7bcf022043e64b6d49da04d719d26ab971c4a05aaaada4faeec793e231443a158aee186e012103480d35ac68bcd9836cd3bb24c44530a17f7d87063592f9919e53e24062b6975a", "asm": "30450221008eed77774acb46ac8e45d3c8c4401bcae018424e192b64a6b694196ba3cb7bcf022043e64b6d49da04d719d26ab971c4a05aaaada4faeec793e231443a158aee186e[ALL] 03480d35ac68bcd9836cd3bb24c44530a17f7d87063592f9919e53e24062b6975a"}, "vout": 0, "txid": "f4177474461b75d99dbb09d8597f0b9f1e35d8f7c7c1ccbca83adc0a958a65b9"}, {"sequence": 4294967295, "scriptSig": {"hex": "483045022100d70e63bb00be55c2afec5e6112839e0efaafa3f37ba6d08f80a058cbd16515b2022027c7f952c5089d7528786401207ca73273623c27e5f7c6eb54b5b67448b6c44b0121032ee4cf822adfa44d0b20789ebaba6bd3e01f21a698c21368a21816ea9f00659c", "asm": "3045022100d70e63bb00be55c2afec5e6112839e0efaafa3f37ba6d08f80a058cbd16515b2022027c7f952c5089d7528786401207ca73273623c27e5f7c6eb54b5b67448b6c44b[ALL] 032ee4cf822adfa44d0b20789ebaba6bd3e01f21a698c21368a21816ea9f00659c"}, "vout": 0, "txid": "f6441f70b8c33cae135ae61f238df1947e7aa94e8f6dddfecebee0a596b54261"}], "txid": "46bdf33359373d8e664ae8c9c0a1ec34f3ac4457bab3db8b967cb644d1ad169e", "blocktime": 1537870268, "version": 1, "confirmations": 11518, "time": 1537870268, "locktime": 0, "vsize": 374, "size": 374}