{"hash": "46bda95c0828c7589169d45b88eaa5c5d0ecba291c9306bed693dce2f8a5562f", "blockhash": "0000000000000000000e13cef7c366c0283d82e591d1acd082e914b08063cdf1", "vout": [{"scriptPubKey": {"reqSigs": 1, "hex": "76a914a11ff3a8b91aa8512819f8abca90ee9eaccd569a88ac", "addresses": ["1Fgx4wBhEL9eAZJQD1JhQSuJFCznqpNYgM"], "asm": "OP_DUP OP_HASH160 a11ff3a8b91aa8512819f8abca90ee9eaccd569a OP_EQUALVERIFY OP_CHECKSIG", "type": "pubkeyhash"}, "value": 0.00278385, "n": 0}, {"scriptPubKey": {"reqSigs": 1, "hex": "a91458a50388122473f9d8ba34b67d54c1258624182287", "addresses": ["39mj4nSg37CAcBkuszkiF3mBr9MX2NxGiH"], "asm": "OP_HASH160 58a50388122473f9d8ba34b67d54c12586241822 OP_EQUAL", "type": "scripthash"}, "value": 0.00257214, "n": 1}, {"scriptPubKey": {"reqSigs": 1, "hex": "76a914c7d766284b233f2e7b806a87b1fe9ada7955dc1388ac", "addresses": ["1KDfWN3QaEeccPf4gtHMBu4zZ2ecEjrkr7"], "asm": "OP_DUP OP_HASH160 c7d766284b233f2e7b806a87b1fe9ada7955dc13 OP_EQUALVERIFY OP_CHECKSIG", "type": "pubkeyhash"}, "value": 0.00276865, "n": 2}, {"scriptPubKey": {"reqSigs": 1, "hex": "a91474498d6e6bec1fa050bc4f9f84ca4b870e93920687", "addresses": ["3CHtRJzY9nbwmXQjeqNUpoajqTyS35Zwyx"], "asm": "OP_HASH160 74498d6e6bec1fa050bc4f9f84ca4b870e939206 OP_EQUAL", "type": "scripthash"}, "value": 0.00277347, "n": 3}, {"scriptPubKey": {"reqSigs": 1, "hex": "a9145104c56544519c92a90192f7927ec8d0c90fe83c87", "addresses": ["395QNair7xEGUYgFJjiwtLXfVerU6adoBW"], "asm": "OP_HASH160 5104c56544519c92a90192f7927ec8d0c90fe83c OP_EQUAL", "type": "scripthash"}, "value": 0.00268262, "n": 4}, {"scriptPubKey": {"reqSigs": 1, "hex": "a914c2ec385b605c1bca3fff455aa2893e6756b7ce8287", "addresses": ["3KTfzd3PmPziAZ495koZVNq985HErW2fSg"], "asm": "OP_HASH160 c2ec385b605c1bca3fff455aa2893e6756b7ce82 OP_EQUAL", "type": "scripthash"}, "value": 0.00278439, "n": 5}, {"scriptPubKey": {"reqSigs": 1, "hex": "76a9142a63e10e9fbf497df8371258a7bdf2eac04e2ab988ac", "addresses": ["14s92nGS4cGHfA8MTPQd1km7DEPSpHayfW"], "asm": "OP_DUP OP_HASH160 2a63e10e9fbf497df8371258a7bdf2eac04e2ab9 OP_EQUALVERIFY OP_CHECKSIG", "type": "pubkeyhash"}, "value": 0.00277593, "n": 6}, {"scriptPubKey": {"reqSigs": 1, "hex": "76a914753f915bebde6cd62cc9ed08c2ba3d09c42e85d788ac", "addresses": ["1BgxDDMN45ED1SstBxJv1PMvp4RawSJViv"], "asm": "OP_DUP OP_HASH160 753f915bebde6cd62cc9ed08c2ba3d09c42e85d7 OP_EQUALVERIFY OP_CHECKSIG", "type": "pubkeyhash"}, "value": 0.00278891, "n": 7}, {"scriptPubKey": {"reqSigs": 1, "hex": "a9146da59718736259cafb2fd508c4d149c3bff3be0f87", "addresses": ["3Bgmws2BvGFz35kG5cCDf81nERFBF3jr5W"], "asm": "OP_HASH160 6da59718736259cafb2fd508c4d149c3bff3be0f OP_EQUAL", "type": "scripthash"}, "value": 0.00273131, "n": 8}, {"scriptPubKey": {"reqSigs": 1, "hex": "a9146aa2c1fcca7f2a1d413bb1d659cc359eff3fc05f87", "addresses": ["3BQrXV7HCELHHiSTYq2uYitj7cWf5Qabp4"], "asm": "OP_HASH160 6aa2c1fcca7f2a1d413bb1d659cc359eff3fc05f OP_EQUAL", "type": "scripthash"}, "value": 0.00265171, "n": 9}, {"scriptPubKey": {"reqSigs": 1, "hex": "76a914a801892e2bfbbc16e65705ec0bf00581a8291d2788ac", "addresses": ["1GKLMwaV4Bjerjex38CebQrMgT5UTLYDak"], "asm": "OP_DUP OP_HASH160 a801892e2bfbbc16e65705ec0bf00581a8291d27 OP_EQUALVERIFY OP_CHECKSIG", "type": "pubkeyhash"}, "value": 0.0027936, "n": 10}, {"scriptPubKey": {"reqSigs": 1, "hex": "76a91453143f5114a48a97dbced9f8a3b55574190b85c088ac", "addresses": ["18aHLjQZXQ5W4aRgwxtMtuVx7S2zAarzg3"], "asm": "OP_DUP OP_HASH160 53143f5114a48a97dbced9f8a3b55574190b85c0 OP_EQUALVERIFY OP_CHECKSIG", "type": "pubkeyhash"}, "value": 0.00263989, "n": 11}, {"scriptPubKey": {"reqSigs": 1, "hex": "76a9148ca1d80a684653e5270fb58924764a199b5b882f88ac", "addresses": ["1DpbUy9y1nMuuFzDPjCKFFgbfxuPTNorgk"], "asm": "OP_DUP OP_HASH160 8ca1d80a684653e5270fb58924764a199b5b882f OP_EQUALVERIFY OP_CHECKSIG", "type": "pubkeyhash"}, "value": 0.00263346, "n": 12}, {"scriptPubKey": {"reqSigs": 1, "hex": "76a91458d20f5520ac137b9d5e27fad7f039621b509c8888ac", "addresses": ["196e76hf5nucMRFwnkZBYyvyG8zL4SueHP"], "asm": "OP_DUP OP_HASH160 58d20f5520ac137b9d5e27fad7f039621b509c88 OP_EQUALVERIFY OP_CHECKSIG", "type": "pubkeyhash"}, "value": 0.00278584, "n": 13}, {"scriptPubKey": {"reqSigs": 1, "hex": "76a914bcb7e8e2440965e7eaddd387f08d62b88c1be80588ac", "addresses": ["1JCrMLPV1gZPWYbynVbiihFEqu51VyA69J"], "asm": "OP_DUP OP_HASH160 bcb7e8e2440965e7eaddd387f08d62b88c1be805 OP_EQUALVERIFY OP_CHECKSIG", "type": "pubkeyhash"}, "value": 0.00264159, "n": 14}, {"scriptPubKey": {"reqSigs": 1, "hex": "76a914899289e5c4cb6d2595d02942e531969f748b497988ac", "addresses": ["1DYR7xzzxapn4TdHYvskVgNZKoTKYdonJe"], "asm": "OP_DUP OP_HASH160 899289e5c4cb6d2595d02942e531969f748b4979 OP_EQUALVERIFY OP_CHECKSIG", "type": "pubkeyhash"}, "value": 0.00259065, "n": 15}, {"scriptPubKey": {"reqSigs": 1, "hex": "76a9148a3362df41220294e7857b95d519e70e101e698a88ac", "addresses": ["1DbjorHNNPj4ANoqVnRVxzQYnYdtwhi85B"], "asm": "OP_DUP OP_HASH160 8a3362df41220294e7857b95d519e70e101e698a OP_EQUALVERIFY OP_CHECKSIG", "type": "pubkeyhash"}, "value": 0.00268952, "n": 16}, {"scriptPubKey": {"reqSigs": 1, "hex": "76a91462cb5ff6851327bb0e6086b4cb1312e9894c6f1988ac", "addresses": ["1A1NrXrr4PQrZS2jxHmJGntXmUixvBFkCc"], "asm": "OP_DUP OP_HASH160 62cb5ff6851327bb0e6086b4cb1312e9894c6f19 OP_EQUALVERIFY OP_CHECKSIG", "type": "pubkeyhash"}, "value": 0.00262803, "n": 17}, {"scriptPubKey": {"reqSigs": 1, "hex": "76a914baad6dbeb745804d1c0f8df6977ffe742b6de6eb88ac", "addresses": ["1J24SibcCJu85BALHd5fm63FZnjXPDEbSv"], "asm": "OP_DUP OP_HASH160 baad6dbeb745804d1c0f8df6977ffe742b6de6eb OP_EQUALVERIFY OP_CHECKSIG", "type": "pubkeyhash"}, "value": 0.00270232, "n": 18}, {"scriptPubKey": {"reqSigs": 1, "hex": "76a914e54a39c69507f3ea25d021b8a88f93b36425db6088ac", "addresses": ["1MuNfDmz4mQQoffCDtLLE3jzn1ps8V9h3j"], "asm": "OP_DUP OP_HASH160 e54a39c69507f3ea25d021b8a88f93b36425db60 OP_EQUALVERIFY OP_CHECKSIG", "type": "pubkeyhash"}, "value": 0.0027509, "n": 19}, {"scriptPubKey": {"reqSigs": 1, "hex": "76a914406197d340802b96e5aabf2548d044b9b55165d788ac", "addresses": ["16sRAAR64ttsX8gQCxz8TqoxGRy6oBeb7k"], "asm": "OP_DUP OP_HASH160 406197d340802b96e5aabf2548d044b9b55165d7 OP_EQUALVERIFY OP_CHECKSIG", "type": "pubkeyhash"}, "value": 0.0026622, "n": 20}, {"scriptPubKey": {"reqSigs": 1, "hex": "76a9141e4bb942eac1e22572ce85feab26b210f803061388ac", "addresses": ["13mBz8SSKQ15mGMfFQpi2jieJXmsnGUbfH"], "asm": "OP_DUP OP_HASH160 1e4bb942eac1e22572ce85feab26b210f8030613 OP_EQUALVERIFY OP_CHECKSIG", "type": "pubkeyhash"}, "value": 0.0025614, "n": 21}, {"scriptPubKey": {"reqSigs": 1, "hex": "76a9141d5543bd1850278d93a5ca10feb0ced7ff23f2e888ac", "addresses": ["13g6jrPuJpuNN1244AdBFpQEsLtZFD1zcY"], "asm": "OP_DUP OP_HASH160 1d5543bd1850278d93a5ca10feb0ced7ff23f2e8 OP_EQUALVERIFY OP_CHECKSIG", "type": "pubkeyhash"}, "value": 0.00271982, "n": 22}, {"scriptPubKey": {"reqSigs": 1, "hex": "76a91477a6947de35deba15a82e38a9e7def1380405c3088ac", "addresses": ["1Buey1iSRvZvYDFiM5HPjn1PqM1aZj1dAs"], "asm": "OP_DUP OP_HASH160 77a6947de35deba15a82e38a9e7def1380405c30 OP_EQUALVERIFY OP_CHECKSIG", "type": "pubkeyhash"}, "value": 0.00266747, "n": 23}, {"scriptPubKey": {"reqSigs": 1, "hex": "76a914679c25edeac8b9e1805f5d380c7e69b3c872437d88ac", "addresses": ["1ASqf88n7kFYHM9iEbEQ7QY6Ko4VX5NpAH"], "asm": "OP_DUP OP_HASH160 679c25edeac8b9e1805f5d380c7e69b3c872437d OP_EQUALVERIFY OP_CHECKSIG", "type": "pubkeyhash"}, "value": 0.00279367, "n": 24}, {"scriptPubKey": {"reqSigs": 1, "hex": "76a9147c7ecf37beeb2df317bb96959ce6b32dd19e8ecd88ac", "addresses": ["1CMGhfNjDx6uQtLFYkRi1LLMo4yF2L2uJA"], "asm": "OP_DUP OP_HASH160 7c7ecf37beeb2df317bb96959ce6b32dd19e8ecd OP_EQUALVERIFY OP_CHECKSIG", "type": "pubkeyhash"}, "value": 0.00278463, "n": 25}, {"scriptPubKey": {"reqSigs": 1, "hex": "a914dff911794667ea60417f254b86072fa4cdc32c1d87", "addresses": ["3N7GytSpskua45f5EbKdiRyw4rSuhsLFgp"], "asm": "OP_HASH160 dff911794667ea60417f254b86072fa4cdc32c1d OP_EQUAL", "type": "scripthash"}, "value": 0.00261142, "n": 26}, {"scriptPubKey": {"reqSigs": 1, "hex": "76a9143a4ef242bedf65fb0d2248dcfe02a6f676b4fdee88ac", "addresses": ["16KJmQygqqujERZbDgaupVJvsTJ5wX9XhY"], "asm": "OP_DUP OP_HASH160 3a4ef242bedf65fb0d2248dcfe02a6f676b4fdee OP_EQUALVERIFY OP_CHECKSIG", "type": "pubkeyhash"}, "value": 0.00276926, "n": 27}, {"scriptPubKey": {"reqSigs": 1, "hex": "76a914ff1a9dab62bb2c0605346eb10c33a95f567418d288ac", "addresses": ["1QFsCDrfEmuQ5s92CEdevAUVm4S3yjckYW"], "asm": "OP_DUP OP_HASH160 ff1a9dab62bb2c0605346eb10c33a95f567418d2 OP_EQUALVERIFY OP_CHECKSIG", "type": "pubkeyhash"}, "value": 0.00261577, "n": 28}, {"scriptPubKey": {"reqSigs": 1, "hex": "76a9140020e514aa861862092ef4f50a387473404b96de88ac", "addresses": ["11gQaHyDKJtzVQmWGUKMooVGsC37bvXDc"], "asm": "OP_DUP OP_HASH160 0020e514aa861862092ef4f50a387473404b96de OP_EQUALVERIFY OP_CHECKSIG", "type": "pubkeyhash"}, "value": 0.00280317, "n": 29}, {"scriptPubKey": {"reqSigs": 1, "hex": "a9143655e5527753352e33fb42eb2c64ed4eabc371e187", "addresses": ["36eKK3fJX2GmdxEww1CsLZwPSxCfpH36jN"], "asm": "OP_HASH160 3655e5527753352e33fb42eb2c64ed4eabc371e1 OP_EQUAL", "type": "scripthash"}, "value": 0.00272956, "n": 30}, {"scriptPubKey": {"reqSigs": 1, "hex": "a9142dc070ee609a818937ac236526029383a015cc8b87", "addresses": ["35rvsDksnYXqNRyhdohENFg2oH1fZWmACz"], "asm": "OP_HASH160 2dc070ee609a818937ac236526029383a015cc8b OP_EQUAL", "type": "scripthash"}, "value": 0.00266611, "n": 31}, {"scriptPubKey": {"reqSigs": 1, "hex": "76a9144c68d918ca699f3bd54634e2045afc9f702ddfbf88ac", "addresses": ["17y1xYoN3gtvCYZetwTZi5ioWFoBg1S3dZ"], "asm": "OP_DUP OP_HASH160 4c68d918ca699f3bd54634e2045afc9f702ddfbf OP_EQUALVERIFY OP_CHECKSIG", "type": "pubkeyhash"}, "value": 0.0027195, "n": 32}, {"scriptPubKey": {"reqSigs": 1, "hex": "76a914daf52b193115b310436e2f87f4283323c20d5c9c88ac", "addresses": ["1Lxk1R4Y9g917J7MtxvWUxeM5VuvVktggy"], "asm": "OP_DUP OP_HASH160 daf52b193115b310436e2f87f4283323c20d5c9c OP_EQUALVERIFY OP_CHECKSIG", "type": "pubkeyhash"}, "value": 0.0027821, "n": 33}, {"scriptPubKey": {"reqSigs": 1, "hex": "76a914514d6e6f05d1fbdbc924eb517a3e844227ef022288ac", "addresses": ["18QtVZmaBLKbjmLkSY5T3UyEzyRvp8Ar6u"], "asm": "OP_DUP OP_HASH160 514d6e6f05d1fbdbc924eb517a3e844227ef0222 OP_EQUALVERIFY OP_CHECKSIG", "type": "pubkeyhash"}, "value": 0.00278379, "n": 34}, {"scriptPubKey": {"reqSigs": 1, "hex": "76a914be0c08ef6263c09b1e4d48676adca670993bc82288ac", "addresses": ["1JKsoeZ879AmFXpuRdgGkzYcmvhv2awtoJ"], "asm": "OP_DUP OP_HASH160 be0c08ef6263c09b1e4d48676adca670993bc822 OP_EQUALVERIFY OP_CHECKSIG", "type": "pubkeyhash"}, "value": 173.96909281, "n": 35}, {"scriptPubKey": {"reqSigs": 1, "hex": "76a914b1ee4fd8f943ffa5f083568b8addb9d3ad312a9a88ac", "addresses": ["1HDp6A1kFqC4pzbRk59Xh8aHRZvC9xk9dX"], "asm": "OP_DUP OP_HASH160 b1ee4fd8f943ffa5f083568b8addb9d3ad312a9a OP_EQUALVERIFY OP_CHECKSIG", "type": "pubkeyhash"}, "value": 0.00277877, "n": 36}, {"scriptPubKey": {"reqSigs": 1, "hex": "a914aed5987c72ad9d0b30bce238edfc9f8a9ac3e75087", "addresses": ["3HdTNopk5KufKevukR4LZe23T4aHQsnVMy"], "asm": "OP_HASH160 aed5987c72ad9d0b30bce238edfc9f8a9ac3e750 OP_EQUAL", "type": "scripthash"}, "value": 0.00274795, "n": 37}, {"scriptPubKey": {"reqSigs": 1, "hex": "76a914c785ac415a30d5605cfd8b0fba5c45dfeef25de988ac", "addresses": ["1KBybvqbaDdkEZwBucojcSy8qqtfKBCPck"], "asm": "OP_DUP OP_HASH160 c785ac415a30d5605cfd8b0fba5c45dfeef25de9 OP_EQUALVERIFY OP_CHECKSIG", "type": "pubkeyhash"}, "value": 0.0026238, "n": 38}, {"scriptPubKey": {"reqSigs": 1, "hex": "76a914b08de6c82a5702542f627e2d95b4c9c8c13c043388ac", "addresses": ["1H6XvFYC5Afu8BQbLgXB1Pe3uKx6f2mcRo"], "asm": "OP_DUP OP_HASH160 b08de6c82a5702542f627e2d95b4c9c8c13c0433 OP_EQUALVERIFY OP_CHECKSIG", "type": "pubkeyhash"}, "value": 0.0026915, "n": 39}, {"scriptPubKey": {"reqSigs": 1, "hex": "76a914e8d143d2c0fdf99456af0c62608240123cbe765c88ac", "addresses": ["1NE2TVFzkNyiQ4hgNkAtKw2qKwvJG6dvnm"], "asm": "OP_DUP OP_HASH160 e8d143d2c0fdf99456af0c62608240123cbe765c OP_EQUALVERIFY OP_CHECKSIG", "type": "pubkeyhash"}, "value": 0.00259038, "n": 40}, {"scriptPubKey": {"reqSigs": 1, "hex": "a91469f375d8ec9af1da24af86d83cb5918f7722a79287", "addresses": ["3BMEXcAFNrC5S7Z4VgYb2SeZfwY13xpqwz"], "asm": "OP_HASH160 69f375d8ec9af1da24af86d83cb5918f7722a792 OP_EQUAL", "type": "scripthash"}, "value": 0.0031131, "n": 41}, {"scriptPubKey": {"reqSigs": 1, "hex": "76a914921615ff03ed739f45e63cfe4f08b889515ed0f888ac", "addresses": ["1EKS7ZiRURdL4wfLPzrq6C2H1TcddhdA5S"], "asm": "OP_DUP OP_HASH160 921615ff03ed739f45e63cfe4f08b889515ed0f8 OP_EQUALVERIFY OP_CHECKSIG", "type": "pubkeyhash"}, "value": 0.00273485, "n": 42}, {"scriptPubKey": {"reqSigs": 1, "hex": "76a9146624cc4e41a81c0f9a3cb962fb5cd132cb428add88ac", "addresses": ["1AK61LoMp6jcgxt6Ns5rGoioHRuwPeCiWu"], "asm": "OP_DUP OP_HASH160 6624cc4e41a81c0f9a3cb962fb5cd132cb428add OP_EQUALVERIFY OP_CHECKSIG", "type": "pubkeyhash"}, "value": 0.00273268, "n": 43}, {"scriptPubKey": {"reqSigs": 1, "hex": "a914b70d5e2947c5b3f3502811ba044fb549bffb07d387", "addresses": ["3JNubTgugrwhhFVK6SeaLaNR5GfsnMZatn"], "asm": "OP_HASH160 b70d5e2947c5b3f3502811ba044fb549bffb07d3 OP_EQUAL", "type": "scripthash"}, "value": 0.0026841, "n": 44}, {"scriptPubKey": {"reqSigs": 1, "hex": "76a9145f5ba4416167a57ecd9defe071dbf9dbd924dc7c88ac", "addresses": ["19hCybY7ubvVkFqM4zW41y2pcRi5KTr9vU"], "asm": "OP_DUP OP_HASH160 5f5ba4416167a57ecd9defe071dbf9dbd924dc7c OP_EQUALVERIFY OP_CHECKSIG", "type": "pubkeyhash"}, "value": 0.00261004, "n": 45}, {"scriptPubKey": {"reqSigs": 1, "hex": "76a9149c2b3b58a22a9658c941af0aef581fb549aecdb688ac", "addresses": ["1FEkCj4NsjjEXeWhfNtW3BZyTFokyXuYmk"], "asm": "OP_DUP OP_HASH160 9c2b3b58a22a9658c941af0aef581fb549aecdb6 OP_EQUALVERIFY OP_CHECKSIG", "type": "pubkeyhash"}, "value": 0.00280331, "n": 46}, {"scriptPubKey": {"reqSigs": 1, "hex": "a91406f045ef4d069524d46d20aa4570004b55604bc987", "addresses": ["32KhpAhtUcBp4eAL7fj6AFBr84PqRuPGuS"], "asm": "OP_HASH160 06f045ef4d069524d46d20aa4570004b55604bc9 OP_EQUAL", "type": "scripthash"}, "value": 0.00276842, "n": 47}, {"scriptPubKey": {"reqSigs": 1, "hex": "76a9143d33e32c4917a0739391d8de89b0ea8e8c60beba88ac", "addresses": ["16acNuG4T8x3mR8nfdY8s7Z8HGyup5jHcu"], "asm": "OP_DUP OP_HASH160 3d33e32c4917a0739391d8de89b0ea8e8c60beba OP_EQUALVERIFY OP_CHECKSIG", "type": "pubkeyhash"}, "value": 0.00279801, "n": 48}, {"scriptPubKey": {"reqSigs": 1, "hex": "a9146a1ebba1eeba4128106831ca377d308a224d142a87", "addresses": ["3BN8NEs9Fy74zpo7qX6h3Z7snztDP1HrQA"], "asm": "OP_HASH160 6a1ebba1eeba4128106831ca377d308a224d142a OP_EQUAL", "type": "scripthash"}, "value": 0.00278302, "n": 49}, {"scriptPubKey": {"reqSigs": 1, "hex": "76a9141660b0b444c7a88f8c94b361986ec7699e13a41b88ac", "addresses": ["133KhNr6dDa6cg9ZrUHQnWAixyyvXg5Fqj"], "asm": "OP_DUP OP_HASH160 1660b0b444c7a88f8c94b361986ec7699e13a41b OP_EQUALVERIFY OP_CHECKSIG", "type": "pubkeyhash"}, "value": 0.00261739, "n": 50}, {"scriptPubKey": {"reqSigs": 1, "hex": "76a9148514abd3cdaa4d6da0316d6292ec82cda6c51d8f88ac", "addresses": ["1D8fdmsYBKAUAdrP9GRmUJn1UusYs1ceGT"], "asm": "OP_DUP OP_HASH160 8514abd3cdaa4d6da0316d6292ec82cda6c51d8f OP_EQUALVERIFY OP_CHECKSIG", "type": "pubkeyhash"}, "value": 0.00274788, "n": 51}, {"scriptPubKey": {"reqSigs": 1, "hex": "a914ced379290a3eff5e6a155f03aea7d9a607aa4c7087", "addresses": ["3LYcTUuy7pDz5NS1DcRgAdL2hLRitYgsby"], "asm": "OP_HASH160 ced379290a3eff5e6a155f03aea7d9a607aa4c70 OP_EQUAL", "type": "scripthash"}, "value": 0.00265494, "n": 52}, {"scriptPubKey": {"reqSigs": 1, "hex": "a914896498ef3a11ef46abd6833b0364d6017e1fd74f87", "addresses": ["3EDV1TJxgKLWDxNBYYGsq3LQJSaC6pw8JX"], "asm": "OP_HASH160 896498ef3a11ef46abd6833b0364d6017e1fd74f OP_EQUAL", "type": "scripthash"}, "value": 0.00280199, "n": 53}, {"scriptPubKey": {"reqSigs": 1, "hex": "a914f5a11742819d537ec6c342d1372ba91a495fb65d87", "addresses": ["3Q5nTLAgikyiPMZV4b1TLhXaj5gWJ2AoG8"], "asm": "OP_HASH160 f5a11742819d537ec6c342d1372ba91a495fb65d OP_EQUAL", "type": "scripthash"}, "value": 0.00267761, "n": 54}, {"scriptPubKey": {"reqSigs": 1, "hex": "76a914e4c4ee3e1b1fb68e99d347155b14ace019a576b788ac", "addresses": ["1MrcyidVki7xJjVqR73HA4PpCxWonLSnoc"], "asm": "OP_DUP OP_HASH160 e4c4ee3e1b1fb68e99d347155b14ace019a576b7 OP_EQUALVERIFY OP_CHECKSIG", "type": "pubkeyhash"}, "value": 0.0027265, "n": 55}, {"scriptPubKey": {"reqSigs": 1, "hex": "76a9145fe717ccf3aa5d38c63afa244fd5a7e5f714128988ac", "addresses": ["19k62r1co8xTAPXLSvZeYv7eAs3MPArL63"], "asm": "OP_DUP OP_HASH160 5fe717ccf3aa5d38c63afa244fd5a7e5f7141289 OP_EQUALVERIFY OP_CHECKSIG", "type": "pubkeyhash"}, "value": 0.00265339, "n": 56}, {"scriptPubKey": {"reqSigs": 1, "hex": "a91422d4750568d4978a8a46a659f40b7f417e6276be87", "addresses": ["34sBQqxzDpHKm2SKK8Dbu3UinQfEEQLKT6"], "asm": "OP_HASH160 22d4750568d4978a8a46a659f40b7f417e6276be OP_EQUAL", "type": "scripthash"}, "value": 0.00273362, "n": 57}, {"scriptPubKey": {"reqSigs": 1, "hex": "76a9145ba13de90777d600a6c21d31a8e6adc1c921853f88ac", "addresses": ["19MVejgGCAfZ1j8L32C5UsU3fa6KCZWpkP"], "asm": "OP_DUP OP_HASH160 5ba13de90777d600a6c21d31a8e6adc1c921853f OP_EQUALVERIFY OP_CHECKSIG", "type": "pubkeyhash"}, "value": 0.00259116, "n": 58}, {"scriptPubKey": {"reqSigs": 1, "hex": "76a91475ecb04687fb4c58db8ae95e100873d349cc6fee88ac", "addresses": ["1BkXbraMUrV6GihTHwyky2cvSp8h9aZgZB"], "asm": "OP_DUP OP_HASH160 75ecb04687fb4c58db8ae95e100873d349cc6fee OP_EQUALVERIFY OP_CHECKSIG", "type": "pubkeyhash"}, "value": 0.00276542, "n": 59}, {"scriptPubKey": {"reqSigs": 1, "hex": "76a91421bfd1b5167b392bb896e892b91549055c09669188ac", "addresses": ["145T6AH4rySbQCjHShvae5EcneQ6QmAQcw"], "asm": "OP_DUP OP_HASH160 21bfd1b5167b392bb896e892b91549055c096691 OP_EQUALVERIFY OP_CHECKSIG", "type": "pubkeyhash"}, "value": 0.00279891, "n": 60}, {"scriptPubKey": {"reqSigs": 1, "hex": "a914d85a4246a9d2a1b997f341c6b21282317d541b2487", "addresses": ["3MQz1H1PuK5D3J6yRoKMPX349M9Jr8P6Xi"], "asm": "OP_HASH160 d85a4246a9d2a1b997f341c6b21282317d541b24 OP_EQUAL", "type": "scripthash"}, "value": 0.00270033, "n": 61}, {"scriptPubKey": {"reqSigs": 1, "hex": "a914d9a382b4b7b4196493a9ee890d70b3c57a794c4f87", "addresses": ["3MXnS5rceF3fenLHdsjZeuDmhVqYikngFs"], "asm": "OP_HASH160 d9a382b4b7b4196493a9ee890d70b3c57a794c4f OP_EQUAL", "type": "scripthash"}, "value": 0.0027777, "n": 62}, {"scriptPubKey": {"reqSigs": 1, "hex": "76a91495bc5d7851c2d475d011d6cb883f8a03337e349788ac", "addresses": ["1EejLRPdMa4eMs5ErNdyFYR4AmhSUJ2tQP"], "asm": "OP_DUP OP_HASH160 95bc5d7851c2d475d011d6cb883f8a03337e3497 OP_EQUALVERIFY OP_CHECKSIG", "type": "pubkeyhash"}, "value": 0.00263671, "n": 63}, {"scriptPubKey": {"reqSigs": 1, "hex": "a9142d35c895470e442c6d934c24bba4ee9f3e62278b87", "addresses": ["35p4m7ynsn3y2bBrhZ3C3sJoMwUAvuJGiw"], "asm": "OP_HASH160 2d35c895470e442c6d934c24bba4ee9f3e62278b OP_EQUAL", "type": "scripthash"}, "value": 0.00273211, "n": 64}, {"scriptPubKey": {"reqSigs": 1, "hex": "a914c45866786d606663f77c2bb3036b8192f1a68b4d87", "addresses": ["3KbCGJRrMyWuTR3SvS7ZxqGjih1dzNdKSG"], "asm": "OP_HASH160 c45866786d606663f77c2bb3036b8192f1a68b4d OP_EQUAL", "type": "scripthash"}, "value": 0.00271127, "n": 65}, {"scriptPubKey": {"reqSigs": 1, "hex": "76a9149eed1c90d3a76e46e9e28a3ea7c5b05adc40f15c88ac", "addresses": ["1FVKp7SDztQXRZ7qeVLvNwGqc1jeuuZLBc"], "asm": "OP_DUP OP_HASH160 9eed1c90d3a76e46e9e28a3ea7c5b05adc40f15c OP_EQUALVERIFY OP_CHECKSIG", "type": "pubkeyhash"}, "value": 0.00279338, "n": 66}, {"scriptPubKey": {"reqSigs": 1, "hex": "76a914bea93f07fcc21c6df8c6114332c9fda8386208bd88ac", "addresses": ["1JP88t6gKm5ksJFLr6dvHbx86NAmPLHeRN"], "asm": "OP_DUP OP_HASH160 bea93f07fcc21c6df8c6114332c9fda8386208bd OP_EQUALVERIFY OP_CHECKSIG", "type": "pubkeyhash"}, "value": 0.00277446, "n": 67}, {"scriptPubKey": {"reqSigs": 1, "hex": "76a914378ce4951abff5e550a324373e7864d0ff91034a88ac", "addresses": ["164iwxjnnf9dJ1XiC8a9L2S3Bah53JuLKm"], "asm": "OP_DUP OP_HASH160 378ce4951abff5e550a324373e7864d0ff91034a OP_EQUALVERIFY OP_CHECKSIG", "type": "pubkeyhash"}, "value": 0.00271474, "n": 68}, {"scriptPubKey": {"reqSigs": 1, "hex": "76a9148d3243d28cb2a025f545afe5753a6e9f93f0527d88ac", "addresses": ["1DsaVWyNDwJaJ1xrMQ6DarH4KKNbAqXuP3"], "asm": "OP_DUP OP_HASH160 8d3243d28cb2a025f545afe5753a6e9f93f0527d OP_EQUALVERIFY OP_CHECKSIG", "type": "pubkeyhash"}, "value": 0.00276917, "n": 69}, {"scriptPubKey": {"reqSigs": 1, "hex": "76a914bca26ec5c01db2faec03de636f67a5d4bd84ab3488ac", "addresses": ["1JCQd61N4kN5ABeewWyF4NtxLt3iHTcFD4"], "asm": "OP_DUP OP_HASH160 bca26ec5c01db2faec03de636f67a5d4bd84ab34 OP_EQUALVERIFY OP_CHECKSIG", "type": "pubkeyhash"}, "value": 0.00259499, "n": 70}, {"scriptPubKey": {"reqSigs": 1, "hex": "76a914cd2de03426a9a1daf666a6160a5419ef47a2c9dd88ac", "addresses": ["1KhtUqDrLkEUXVPxK2aM5jnpGi1ei6ZMaQ"], "asm": "OP_DUP OP_HASH160 cd2de03426a9a1daf666a6160a5419ef47a2c9dd OP_EQUALVERIFY OP_CHECKSIG", "type": "pubkeyhash"}, "value": 0.00276565, "n": 71}, {"scriptPubKey": {"reqSigs": 1, "hex": "76a914f03ba27e514f3f527d8e893dd6f270cc9083be4788ac", "addresses": ["1NuEcXxH1qx9MLExnqMNLajcn2TGKyPnWr"], "asm": "OP_DUP OP_HASH160 f03ba27e514f3f527d8e893dd6f270cc9083be47 OP_EQUALVERIFY OP_CHECKSIG", "type": "pubkeyhash"}, "value": 0.00262814, "n": 72}, {"scriptPubKey": {"reqSigs": 1, "hex": "76a9144e9142e543e729a14dbc82ea137b0af7220db82f88ac", "addresses": ["18ARitwm8C4pM2n4rK5FMwBKwAnSzQRHy3"], "asm": "OP_DUP OP_HASH160 4e9142e543e729a14dbc82ea137b0af7220db82f OP_EQUALVERIFY OP_CHECKSIG", "type": "pubkeyhash"}, "value": 0.00256341, "n": 73}, {"scriptPubKey": {"reqSigs": 1, "hex": "a914068f430d865013cf42fb56a84f097cc83e0152a087", "addresses": ["32Hhbi1HnFuJeGZUt4Bf7N4K13B23jLTZZ"], "asm": "OP_HASH160 068f430d865013cf42fb56a84f097cc83e0152a0 OP_EQUAL", "type": "scripthash"}, "value": 0.00273553, "n": 74}, {"scriptPubKey": {"reqSigs": 1, "hex": "76a91492bdbed3de73a5fe98d8e67b2258d23e1d5b3b1388ac", "addresses": ["1ENtxkWb5gUAQGHbAKjtnksKk9uHMFZvrD"], "asm": "OP_DUP OP_HASH160 92bdbed3de73a5fe98d8e67b2258d23e1d5b3b13 OP_EQUALVERIFY OP_CHECKSIG", "type": "pubkeyhash"}, "value": 0.00265778, "n": 75}, {"scriptPubKey": {"reqSigs": 1, "hex": "76a9144b82dddc9e72c883a29c39f9435cfb32ffafc26988ac", "addresses": ["17tGTAMqPE6RdJncmsmt1NHGxF3r6cP4dy"], "asm": "OP_DUP OP_HASH160 4b82dddc9e72c883a29c39f9435cfb32ffafc269 OP_EQUALVERIFY OP_CHECKSIG", "type": "pubkeyhash"}, "value": 0.00274344, "n": 76}, {"scriptPubKey": {"reqSigs": 1, "hex": "76a9144bf32677b3386a66a3386640c57bbf066819cbb688ac", "addresses": ["17vaxmJRjwgYZUirWXoASom59NwtAByZfT"], "asm": "OP_DUP OP_HASH160 4bf32677b3386a66a3386640c57bbf066819cbb6 OP_EQUALVERIFY OP_CHECKSIG", "type": "pubkeyhash"}, "value": 0.0026767, "n": 77}, {"scriptPubKey": {"reqSigs": 1, "hex": "76a91465845d96b27cba8e7c4b76b712cbd72d76b82d6988ac", "addresses": ["1AFmpJCwWxr7JmVATK9rXLM9zi7jsKMkRv"], "asm": "OP_DUP OP_HASH160 65845d96b27cba8e7c4b76b712cbd72d76b82d69 OP_EQUALVERIFY OP_CHECKSIG", "type": "pubkeyhash"}, "value": 0.00271201, "n": 78}, {"scriptPubKey": {"reqSigs": 1, "hex": "a914cdbb89e8966c8171875ae153d6474d33e18d2d4c87", "addresses": ["3LSq7HacKaVg9HFiQ4YJgKrF1NMJfuaoni"], "asm": "OP_HASH160 cdbb89e8966c8171875ae153d6474d33e18d2d4c OP_EQUAL", "type": "scripthash"}, "value": 0.00274992, "n": 79}, {"scriptPubKey": {"reqSigs": 1, "hex": "76a914f24af7eade518ee9092d354ac6b6a3a09da298d388ac", "addresses": ["1P68LKbb4B1ZeUnQp6Yw7pNzZ4MkxMHA46"], "asm": "OP_DUP OP_HASH160 f24af7eade518ee9092d354ac6b6a3a09da298d3 OP_EQUALVERIFY OP_CHECKSIG", "type": "pubkeyhash"}, "value": 0.00279207, "n": 80}, {"scriptPubKey": {"reqSigs": 1, "hex": "76a91481514d4b62836f4f7c28feb61c850d45690cecf588ac", "addresses": ["1CnmZho6wAPtxLPMws3uNxVQ3ymASDz2hi"], "asm": "OP_DUP OP_HASH160 81514d4b62836f4f7c28feb61c850d45690cecf5 OP_EQUALVERIFY OP_CHECKSIG", "type": "pubkeyhash"}, "value": 0.00257912, "n": 81}, {"scriptPubKey": {"reqSigs": 1, "hex": "76a9147c2cce0d79bfae18dcaaae61e582e89ccfc1603688ac", "addresses": ["1CKaTtMu3M6qBmr96cuvqBqB6t7McPS6XB"], "asm": "OP_DUP OP_HASH160 7c2cce0d79bfae18dcaaae61e582e89ccfc16036 OP_EQUALVERIFY OP_CHECKSIG", "type": "pubkeyhash"}, "value": 0.00279711, "n": 82}, {"scriptPubKey": {"reqSigs": 1, "hex": "76a914a24f7e1c75e18a4f2e1cb3c664668e20df98af4f88ac", "addresses": ["1FoDhKbtsZGwke26QED2USsLaMZXWkygbh"], "asm": "OP_DUP OP_HASH160 a24f7e1c75e18a4f2e1cb3c664668e20df98af4f OP_EQUALVERIFY OP_CHECKSIG", "type": "pubkeyhash"}, "value": 0.00273248, "n": 83}, {"scriptPubKey": {"reqSigs": 1, "hex": "76a91497d38e3db5301435310b5fe9cbf15f6e934deec288ac", "addresses": ["1EqnU7LLMkeXpsPMXTvpWUpYFYyCVYNanQ"], "asm": "OP_DUP OP_HASH160 97d38e3db5301435310b5fe9cbf15f6e934deec2 OP_EQUALVERIFY OP_CHECKSIG", "type": "pubkeyhash"}, "value": 0.0027148, "n": 84}, {"scriptPubKey": {"reqSigs": 1, "hex": "a914893ded2c801c0b8b3e4300d60e1f51178f8bffd787", "addresses": ["3ECggYsqpQzjqCTbM7qWDf4Q9YKkrP5VQ2"], "asm": "OP_HASH160 893ded2c801c0b8b3e4300d60e1f51178f8bffd7 OP_EQUAL", "type": "scripthash"}, "value": 0.0026574, "n": 85}, {"scriptPubKey": {"reqSigs": 1, "hex": "a914f288128c082da342a19daa1a6047101acdf8bab787", "addresses": ["3PoQTSqPVkvDfRVcxaG88mqLQtjB3Qq2zi"], "asm": "OP_HASH160 f288128c082da342a19daa1a6047101acdf8bab7 OP_EQUAL", "type": "scripthash"}, "value": 0.00277564, "n": 86}, {"scriptPubKey": {"reqSigs": 1, "hex": "76a914bc952594c46704fc23f59a6a95635b4bc827ead588ac", "addresses": ["1JC8hy16F6JBYXh3MeVPGz685FbzLCvXJu"], "asm": "OP_DUP OP_HASH160 bc952594c46704fc23f59a6a95635b4bc827ead5 OP_EQUALVERIFY OP_CHECKSIG", "type": "pubkeyhash"}, "value": 0.00260831, "n": 87}, {"scriptPubKey": {"reqSigs": 1, "hex": "76a914a99fe7f180880d84f4a0a4ab231a7aa22c1d898e88ac", "addresses": ["1GTtktL98VRa6bgR2SrnULjWLsnVE71Xmf"], "asm": "OP_DUP OP_HASH160 a99fe7f180880d84f4a0a4ab231a7aa22c1d898e OP_EQUALVERIFY OP_CHECKSIG", "type": "pubkeyhash"}, "value": 0.00279789, "n": 88}, {"scriptPubKey": {"reqSigs": 1, "hex": "76a914dc1001ea6cbe502839d2a1dc25b2a40e560e82ea88ac", "addresses": ["1M4aqRV3a7L1ugY3vy1GvPd9nhg9sjNQkw"], "asm": "OP_DUP OP_HASH160 dc1001ea6cbe502839d2a1dc25b2a40e560e82ea OP_EQUALVERIFY OP_CHECKSIG", "type": "pubkeyhash"}, "value": 0.0027369, "n": 89}, {"scriptPubKey": {"reqSigs": 1, "hex": "76a9146c1992454ec1df93ae33f9f93cb00d726783849488ac", "addresses": ["1AracSxowARFqs8YWLMMPZmRtaQpgSVcyK"], "asm": "OP_DUP OP_HASH160 6c1992454ec1df93ae33f9f93cb00d7267838494 OP_EQUALVERIFY OP_CHECKSIG", "type": "pubkeyhash"}, "value": 0.00269632, "n": 90}, {"scriptPubKey": {"reqSigs": 1, "hex": "76a9145df84866eb2b092adf7f5a6230d3483ac40327a788ac", "addresses": ["19ZsGqKHWQ7wZvAU6LyMWW39eWKBuXarrW"], "asm": "OP_DUP OP_HASH160 5df84866eb2b092adf7f5a6230d3483ac40327a7 OP_EQUALVERIFY OP_CHECKSIG", "type": "pubkeyhash"}, "value": 0.00270531, "n": 91}, {"scriptPubKey": {"reqSigs": 1, "hex": "76a914f4af9912ad811195f860957ef1ae3fc5716a40e288ac", "addresses": ["1PJnEZoFnQxQk2bSG37Tyeu5gsH4CJGuUK"], "asm": "OP_DUP OP_HASH160 f4af9912ad811195f860957ef1ae3fc5716a40e2 OP_EQUALVERIFY OP_CHECKSIG", "type": "pubkeyhash"}, "value": 0.00279552, "n": 92}, {"scriptPubKey": {"reqSigs": 1, "hex": "a91478efcb7e4f3572b3c3866e25e99f7fe063fe96c787", "addresses": ["3CiUGodrQboFjpocrJqFMzUMicMddyWKqJ"], "asm": "OP_HASH160 78efcb7e4f3572b3c3866e25e99f7fe063fe96c7 OP_EQUAL", "type": "scripthash"}, "value": 0.00276388, "n": 93}, {"scriptPubKey": {"reqSigs": 1, "hex": "76a914ed172450522a80ead4b4a982366cfb00532a48e588ac", "addresses": ["1NccsPVV91RHi6xmb9qiG6vRa8B9FBAcx4"], "asm": "OP_DUP OP_HASH160 ed172450522a80ead4b4a982366cfb00532a48e5 OP_EQUALVERIFY OP_CHECKSIG", "type": "pubkeyhash"}, "value": 0.00273129, "n": 94}, {"scriptPubKey": {"reqSigs": 1, "hex": "a914262a43103482b742e16420e3fdc77c20786f756387", "addresses": ["35ApEFERpVKT439sgZ8LzVtqVtGexEvyro"], "asm": "OP_HASH160 262a43103482b742e16420e3fdc77c20786f7563 OP_EQUAL", "type": "scripthash"}, "value": 0.0027482, "n": 95}, {"scriptPubKey": {"reqSigs": 1, "hex": "a914bb0d8d3b7055e5b1d7f9185a7fa14f85d425893f87", "addresses": ["3Jk4X1BCAauqBq4KRCqqZbmnBUpareSnBP"], "asm": "OP_HASH160 bb0d8d3b7055e5b1d7f9185a7fa14f85d425893f OP_EQUAL", "type": "scripthash"}, "value": 0.00267083, "n": 96}, {"scriptPubKey": {"reqSigs": 1, "hex": "76a914e0c8f3c543a46b906115171197be860e1c902b8b88ac", "addresses": ["1MVZ6Nng27kShT9cmGCkpP2dREdxhX1QHU"], "asm": "OP_DUP OP_HASH160 e0c8f3c543a46b906115171197be860e1c902b8b OP_EQUALVERIFY OP_CHECKSIG", "type": "pubkeyhash"}, "value": 0.00279593, "n": 97}, {"scriptPubKey": {"reqSigs": 1, "hex": "76a9143bdce356fab9d602ac58a239891b7d06b2c1154288ac", "addresses": ["16TXUtXsk5QiwM3JqLPjW298Ru7hukvkQS"], "asm": "OP_DUP OP_HASH160 3bdce356fab9d602ac58a239891b7d06b2c11542 OP_EQUALVERIFY OP_CHECKSIG", "type": "pubkeyhash"}, "value": 0.00277122, "n": 98}, {"scriptPubKey": {"reqSigs": 1, "hex": "76a9142f0e491a07cc8876699113694c4e4c65e159ef7288ac", "addresses": ["15HosbS9ssoPijuRogfQy8c4GAX3H31qbm"], "asm": "OP_DUP OP_HASH160 2f0e491a07cc8876699113694c4e4c65e159ef72 OP_EQUALVERIFY OP_CHECKSIG", "type": "pubkeyhash"}, "value": 0.00268607, "n": 99}, {"scriptPubKey": {"reqSigs": 1, "hex": "76a9145776eacdc2e250da95addcbcd3bdb2efa017009588ac", "addresses": ["18yUFCgBxiwPZzMhzMxcqqzdfLkNxHWBfy"], "asm": "OP_DUP OP_HASH160 5776eacdc2e250da95addcbcd3bdb2efa0170095 OP_EQUALVERIFY OP_CHECKSIG", "type": "pubkeyhash"}, "value": 0.00280088, "n": 100}], "hex": "02000000010d3988778ebde01363f3fa7c70a733a355ccbdc3a18283761612b2fd05d24f23510000006b4830450221009803fd4ff48ddeea838e67d486c36f41f81c428bdc9487890906dffb6323dd4e02202a147e264dab2b8f59c5b3d96a35d90208704dba62d9db64460f3cb45d592b3101210217f9f073199f1334911257faa1676ea7f3cc41ec2f6d6f5262972c83c2cc36a2feffffff65713f0400000000001976a914a11ff3a8b91aa8512819f8abca90ee9eaccd569a88acbeec03000000000017a91458a50388122473f9d8ba34b67d54c125862418228781390400000000001976a914c7d766284b233f2e7b806a87b1fe9ada7955dc1388ac633b04000000000017a91474498d6e6bec1fa050bc4f9f84ca4b870e93920687e61704000000000017a9145104c56544519c92a90192f7927ec8d0c90fe83c87a73f04000000000017a914c2ec385b605c1bca3fff455aa2893e6756b7ce8287593c0400000000001976a9142a63e10e9fbf497df8371258a7bdf2eac04e2ab988ac6b410400000000001976a914753f915bebde6cd62cc9ed08c2ba3d09c42e85d788aceb2a04000000000017a9146da59718736259cafb2fd508c4d149c3bff3be0f87d30b04000000000017a9146aa2c1fcca7f2a1d413bb1d659cc359eff3fc05f8740430400000000001976a914a801892e2bfbbc16e65705ec0bf00581a8291d2788ac35070400000000001976a91453143f5114a48a97dbced9f8a3b55574190b85c088acb2040400000000001976a9148ca1d80a684653e5270fb58924764a199b5b882f88ac38400400000000001976a91458d20f5520ac137b9d5e27fad7f039621b509c8888acdf070400000000001976a914bcb7e8e2440965e7eaddd387f08d62b88c1be80588acf9f30300000000001976a914899289e5c4cb6d2595d02942e531969f748b497988ac981a0400000000001976a9148a3362df41220294e7857b95d519e70e101e698a88ac93020400000000001976a91462cb5ff6851327bb0e6086b4cb1312e9894c6f1988ac981f0400000000001976a914baad6dbeb745804d1c0f8df6977ffe742b6de6eb88ac92320400000000001976a914e54a39c69507f3ea25d021b8a88f93b36425db6088acec0f0400000000001976a914406197d340802b96e5aabf2548d044b9b55165d788ac8ce80300000000001976a9141e4bb942eac1e22572ce85feab26b210f803061388ac6e260400000000001976a9141d5543bd1850278d93a5ca10feb0ced7ff23f2e888acfb110400000000001976a91477a6947de35deba15a82e38a9e7def1380405c3088ac47430400000000001976a914679c25edeac8b9e1805f5d380c7e69b3c872437d88acbf3f0400000000001976a9147c7ecf37beeb2df317bb96959ce6b32dd19e8ecd88ac16fc03000000000017a914dff911794667ea60417f254b86072fa4cdc32c1d87be390400000000001976a9143a4ef242bedf65fb0d2248dcfe02a6f676b4fdee88acc9fd0300000000001976a914ff1a9dab62bb2c0605346eb10c33a95f567418d288acfd460400000000001976a9140020e514aa861862092ef4f50a387473404b96de88ac3c2a04000000000017a9143655e5527753352e33fb42eb2c64ed4eabc371e187731104000000000017a9142dc070ee609a818937ac236526029383a015cc8b874e260400000000001976a9144c68d918ca699f3bd54634e2045afc9f702ddfbf88acc23e0400000000001976a914daf52b193115b310436e2f87f4283323c20d5c9c88ac6b3f0400000000001976a914514d6e6f05d1fbdbc924eb517a3e844227ef022288ace1c4ef0c040000001976a914be0c08ef6263c09b1e4d48676adca670993bc82288ac753d0400000000001976a914b1ee4fd8f943ffa5f083568b8addb9d3ad312a9a88ac6b3104000000000017a914aed5987c72ad9d0b30bce238edfc9f8a9ac3e75087ec000400000000001976a914c785ac415a30d5605cfd8b0fba5c45dfeef25de988ac5e1b0400000000001976a914b08de6c82a5702542f627e2d95b4c9c8c13c043388acdef30300000000001976a914e8d143d2c0fdf99456af0c62608240123cbe765c88ac0ec004000000000017a91469f375d8ec9af1da24af86d83cb5918f7722a792874d2c0400000000001976a914921615ff03ed739f45e63cfe4f08b889515ed0f888ac742b0400000000001976a9146624cc4e41a81c0f9a3cb962fb5cd132cb428add88ac7a1804000000000017a914b70d5e2947c5b3f3502811ba044fb549bffb07d3878cfb0300000000001976a9145f5ba4416167a57ecd9defe071dbf9dbd924dc7c88ac0b470400000000001976a9149c2b3b58a22a9658c941af0aef581fb549aecdb688ac6a3904000000000017a91406f045ef4d069524d46d20aa4570004b55604bc987f9440400000000001976a9143d33e32c4917a0739391d8de89b0ea8e8c60beba88ac1e3f04000000000017a9146a1ebba1eeba4128106831ca377d308a224d142a876bfe0300000000001976a9141660b0b444c7a88f8c94b361986ec7699e13a41b88ac64310400000000001976a9148514abd3cdaa4d6da0316d6292ec82cda6c51d8f88ac160d04000000000017a914ced379290a3eff5e6a155f03aea7d9a607aa4c7087874604000000000017a914896498ef3a11ef46abd6833b0364d6017e1fd74f87f11504000000000017a914f5a11742819d537ec6c342d1372ba91a495fb65d870a290400000000001976a914e4c4ee3e1b1fb68e99d347155b14ace019a576b788ac7b0c0400000000001976a9145fe717ccf3aa5d38c63afa244fd5a7e5f714128988acd22b04000000000017a91422d4750568d4978a8a46a659f40b7f417e6276be872cf40300000000001976a9145ba13de90777d600a6c21d31a8e6adc1c921853f88ac3e380400000000001976a91475ecb04687fb4c58db8ae95e100873d349cc6fee88ac53450400000000001976a91421bfd1b5167b392bb896e892b91549055c09669188acd11e04000000000017a914d85a4246a9d2a1b997f341c6b21282317d541b24870a3d04000000000017a914d9a382b4b7b4196493a9ee890d70b3c57a794c4f87f7050400000000001976a91495bc5d7851c2d475d011d6cb883f8a03337e349788ac3b2b04000000000017a9142d35c895470e442c6d934c24bba4ee9f3e62278b87172304000000000017a914c45866786d606663f77c2bb3036b8192f1a68b4d872a430400000000001976a9149eed1c90d3a76e46e9e28a3ea7c5b05adc40f15c88acc63b0400000000001976a914bea93f07fcc21c6df8c6114332c9fda8386208bd88ac72240400000000001976a914378ce4951abff5e550a324373e7864d0ff91034a88acb5390400000000001976a9148d3243d28cb2a025f545afe5753a6e9f93f0527d88acabf50300000000001976a914bca26ec5c01db2faec03de636f67a5d4bd84ab3488ac55380400000000001976a914cd2de03426a9a1daf666a6160a5419ef47a2c9dd88ac9e020400000000001976a914f03ba27e514f3f527d8e893dd6f270cc9083be4788ac55e90300000000001976a9144e9142e543e729a14dbc82ea137b0af7220db82f88ac912c04000000000017a914068f430d865013cf42fb56a84f097cc83e0152a087320e0400000000001976a91492bdbed3de73a5fe98d8e67b2258d23e1d5b3b1388aca82f0400000000001976a9144b82dddc9e72c883a29c39f9435cfb32ffafc26988ac96150400000000001976a9144bf32677b3386a66a3386640c57bbf066819cbb688ac61230400000000001976a91465845d96b27cba8e7c4b76b712cbd72d76b82d6988ac303204000000000017a914cdbb89e8966c8171875ae153d6474d33e18d2d4c87a7420400000000001976a914f24af7eade518ee9092d354ac6b6a3a09da298d388ac78ef0300000000001976a91481514d4b62836f4f7c28feb61c850d45690cecf588ac9f440400000000001976a9147c2cce0d79bfae18dcaaae61e582e89ccfc1603688ac602b0400000000001976a914a24f7e1c75e18a4f2e1cb3c664668e20df98af4f88ac78240400000000001976a91497d38e3db5301435310b5fe9cbf15f6e934deec288ac0c0e04000000000017a914893ded2c801c0b8b3e4300d60e1f51178f8bffd7873c3c04000000000017a914f288128c082da342a19daa1a6047101acdf8bab787dffa0300000000001976a914bc952594c46704fc23f59a6a95635b4bc827ead588aced440400000000001976a914a99fe7f180880d84f4a0a4ab231a7aa22c1d898e88ac1a2d0400000000001976a914dc1001ea6cbe502839d2a1dc25b2a40e560e82ea88ac401d0400000000001976a9146c1992454ec1df93ae33f9f93cb00d726783849488acc3200400000000001976a9145df84866eb2b092adf7f5a6230d3483ac40327a788ac00440400000000001976a914f4af9912ad811195f860957ef1ae3fc5716a40e288aca43704000000000017a91478efcb7e4f3572b3c3866e25e99f7fe063fe96c787e92a0400000000001976a914ed172450522a80ead4b4a982366cfb00532a48e588ac843104000000000017a914262a43103482b742e16420e3fdc77c20786f7563874b1304000000000017a914bb0d8d3b7055e5b1d7f9185a7fa14f85d425893f8729440400000000001976a914e0c8f3c543a46b906115171197be860e1c902b8b88ac823a0400000000001976a9143bdce356fab9d602ac58a239891b7d06b2c1154288ac3f190400000000001976a9142f0e491a07cc8876699113694c4e4c65e159ef7288ac18460400000000001976a9145776eacdc2e250da95addcbcd3bdb2efa017009588ac10490800", "vin": [{"sequence": 4294967294, "scriptSig": {"hex": "4830450221009803fd4ff48ddeea838e67d486c36f41f81c428bdc9487890906dffb6323dd4e02202a147e264dab2b8f59c5b3d96a35d90208704dba62d9db64460f3cb45d592b3101210217f9f073199f1334911257faa1676ea7f3cc41ec2f6d6f5262972c83c2cc36a2", "asm": "30450221009803fd4ff48ddeea838e67d486c36f41f81c428bdc9487890906dffb6323dd4e02202a147e264dab2b8f59c5b3d96a35d90208704dba62d9db64460f3cb45d592b31[ALL] 0217f9f073199f1334911257faa1676ea7f3cc41ec2f6d6f5262972c83c2cc36a2"}, "vout": 81, "txid": "234fd205fdb21216768382a1c3bdcc55a333a7707cfaf36313e0bd8e7788390d"}], "txid": "46bda95c0828c7589169d45b88eaa5c5d0ecba291c9306bed693dce2f8a5562f", "blocktime": 1537871767, "version": 2, "confirmations": 11495, "time": 1537871767, "locktime": 542992, "vsize": 3534, "size": 3534}