{"hash": "46bd1f6ed473b9da133cf06e6e24fc6ba0607ad7e1caba0e84705cb28419ba4e", "blockhash": "0000000000000000001f76057863aec43deb6fa401d9628bb513d65a8098bfab", "vout": [{"scriptPubKey": {"reqSigs": 1, "hex": "a9144586ce1528797d9060c5349355de65f815a1097b87", "addresses": ["382e3CLry9LYybnwWMYCZrZRcHxvH5DyAU"], "asm": "OP_HASH160 4586ce1528797d9060c5349355de65f815a1097b OP_EQUAL", "type": "scripthash"}, "value": 0.021693, "n": 0}, {"scriptPubKey": {"reqSigs": 1, "hex": "76a914ceabaf5f1fa41a00e988d3b31a74ae60011a425488ac", "addresses": ["1KqmsQP9dqP7A29q7xmdM8ARjfrK8QvnQR"], "asm": "OP_DUP OP_HASH160 ceabaf5f1fa41a00e988d3b31a74ae60011a4254 OP_EQUALVERIFY OP_CHECKSIG", "type": "pubkeyhash"}, "value": 0.03259, "n": 1}], "hex": "02000000016438e773d3a98cfe7965443c2af359c39cb0a8836a416637af38cf1e1d0f59c4120000006b48304502210088d8553b94a7968a160e16e52cc3a76211302e8433a7e03fd854f4809fb6bc0e02200c1036aab3910505000f52b76c3427057327044b45be90c42c8c35ff54a42ce50121035bfc0b137e014d75b14e8b3eb24ead32543073a721266e156a6af74d82b2e177fdffffff02d41921000000000017a9144586ce1528797d9060c5349355de65f815a1097b8778ba3100000000001976a914ceabaf5f1fa41a00e988d3b31a74ae60011a425488ac14490800", "vin": [{"sequence": 4294967293, "scriptSig": {"hex": "48304502210088d8553b94a7968a160e16e52cc3a76211302e8433a7e03fd854f4809fb6bc0e02200c1036aab3910505000f52b76c3427057327044b45be90c42c8c35ff54a42ce50121035bfc0b137e014d75b14e8b3eb24ead32543073a721266e156a6af74d82b2e177", "asm": "304502210088d8553b94a7968a160e16e52cc3a76211302e8433a7e03fd854f4809fb6bc0e02200c1036aab3910505000f52b76c3427057327044b45be90c42c8c35ff54a42ce5[ALL] 035bfc0b137e014d75b14e8b3eb24ead32543073a721266e156a6af74d82b2e177"}, "vout": 18, "txid": "c4590f1d1ecf38af3766416a83a8b09cc359f32a3c446579fe8ca9d373e73864"}], "txid": "46bd1f6ed473b9da133cf06e6e24fc6ba0607ad7e1caba0e84705cb28419ba4e", "blocktime": 1537873891, "version": 2, "confirmations": 11474, "time": 1537873891, "locktime": 542996, "vsize": 224, "size": 224}