{"hash": "46c4b209a67a6b624799b0a7bc98c3792ff75b0b7a6c3afcf15d2ce48c45225e", "blockhash": "0000000000000000001e0dab787dd257d1dbfcb92a98c2207d5e1078be1f4165", "vout": [{"scriptPubKey": {"reqSigs": 1, "hex": "76a91442529adfae542902bd4458e74fb6cfe459a3800188ac", "addresses": ["173gZ9zsDg4LEGQU6bqavx96uFnwybfpUe"], "asm": "OP_DUP OP_HASH160 42529adfae542902bd4458e74fb6cfe459a38001 OP_EQUALVERIFY OP_CHECKSIG", "type": "pubkeyhash"}, "value": 5.46e-06, "n": 0}, {"scriptPubKey": {"reqSigs": 1, "hex": "a9143f4eecba122ad73039d481c8d37f99cb4f887cd887", "addresses": ["37Tm3Qz8Zw2VJrheUUhArDAoq58S6YrS3g"], "asm": "OP_HASH160 3f4eecba122ad73039d481c8d37f99cb4f887cd8 OP_EQUAL", "type": "scripthash"}, "value": 0.99997454, "n": 1}, {"scriptPubKey": {"type": "nulldata", "hex": "6a146f6d6e69000000000000001f00000005f5dc6c20", "asm": "OP_RETURN 6f6d6e69000000000000001f00000005f5dc6c20"}, "value": 0.0, "n": 2}], "hex": "010000000189051037da4a2dc016b92c50ccb50ef86f3007a38bd5e92aaf66eba8e7e6532d00000000fc00473044022058a785450447668e3c169e30a2b44d5059374cb3caa3814633f7c4b6eefd059a022003e317e4baeff8cfce7e5cb94f6925cdd1af6820061fa30132f5f805e98e02dd0147304402203b71b3126787119222f767e3ff428f956c3e5d87e49a28097d75e3f15845967e02201f2a557f11a4f610f372db91853485147ddcae7159ebfbbd34285d7818a38872014c6952210246ccf4de0c54cc7f3354cdd993c2c50cf965fd82238b89659fbd73a1b4bf05a121024fc59f72272a897fe43803374969f396058152fe4765a8d15216f94624257b1b21022593bc69ecbf3bbcc3c58082267cb49dadaf4ca8dbf1b2297338a9d628c4297653aeffffffff0322020000000000001976a91442529adfae542902bd4458e74fb6cfe459a3800188ac0ed7f5050000000017a9143f4eecba122ad73039d481c8d37f99cb4f887cd8870000000000000000166a146f6d6e69000000000000001f00000005f5dc6c2000000000", "vin": [{"sequence": 4294967295, "scriptSig": {"hex": "00473044022058a785450447668e3c169e30a2b44d5059374cb3caa3814633f7c4b6eefd059a022003e317e4baeff8cfce7e5cb94f6925cdd1af6820061fa30132f5f805e98e02dd0147304402203b71b3126787119222f767e3ff428f956c3e5d87e49a28097d75e3f15845967e02201f2a557f11a4f610f372db91853485147ddcae7159ebfbbd34285d7818a38872014c6952210246ccf4de0c54cc7f3354cdd993c2c50cf965fd82238b89659fbd73a1b4bf05a121024fc59f72272a897fe43803374969f396058152fe4765a8d15216f94624257b1b21022593bc69ecbf3bbcc3c58082267cb49dadaf4ca8dbf1b2297338a9d628c4297653ae", "asm": "0 3044022058a785450447668e3c169e30a2b44d5059374cb3caa3814633f7c4b6eefd059a022003e317e4baeff8cfce7e5cb94f6925cdd1af6820061fa30132f5f805e98e02dd[ALL] 304402203b71b3126787119222f767e3ff428f956c3e5d87e49a28097d75e3f15845967e02201f2a557f11a4f610f372db91853485147ddcae7159ebfbbd34285d7818a38872[ALL] 52210246ccf4de0c54cc7f3354cdd993c2c50cf965fd82238b89659fbd73a1b4bf05a121024fc59f72272a897fe43803374969f396058152fe4765a8d15216f94624257b1b21022593bc69ecbf3bbcc3c58082267cb49dadaf4ca8dbf1b2297338a9d628c4297653ae"}, "vout": 0, "txid": "2d53e6e7a8eb66af2ae9d58ba307306ff80eb5cc502cb916c02d4ada37100589"}], "txid": "46c4b209a67a6b624799b0a7bc98c3792ff75b0b7a6c3afcf15d2ce48c45225e", "blocktime": 1537872475, "version": 1, "confirmations": 11486, "time": 1537872475, "locktime": 0, "vsize": 400, "size": 400}