{"hash": "46d252500ba02a28fc003972fdd4bc39e560bfc8c9ccc1649afe1418f694ae12", "blockhash": "0000000000000000001cda96e906b7601b7a6fb1a3b62bca570a9e5d8f4b3de1", "vout": [{"scriptPubKey": {"type": "nulldata", "hex": "6a4c50000077d4000130a81fb1653d70c89bd91b765b23cc0f42c2fc38c5e5bf9ae76da98a211ab41f5db4eccc6efab9563f503279393a5baa150f0612cbd83d5417411d100759d4ba30d2c37bb011d97e02cf", "asm": "OP_RETURN 000077d4000130a81fb1653d70c89bd91b765b23cc0f42c2fc38c5e5bf9ae76da98a211ab41f5db4eccc6efab9563f503279393a5baa150f0612cbd83d5417411d100759d4ba30d2c37bb011d97e02cf"}, "value": 0.0, "n": 0}, {"scriptPubKey": {"reqSigs": 1, "hex": "76a9140a8b5a1d3c4dbe8fd4d61102de4a38d8f0d915c588ac", "addresses": ["1xkhGQVefK1smPKrUz1DmtMPLUK1YoEyk"], "asm": "OP_DUP OP_HASH160 0a8b5a1d3c4dbe8fd4d61102de4a38d8f0d915c5 OP_EQUALVERIFY OP_CHECKSIG", "type": "pubkeyhash"}, "value": 0.00637746, "n": 1}], "hex": "0100000001c2289426dc736eb0cb6e0de4ae794ff2a16be9ee1ff1c81d36e396a22a68f23f000000006b48304502210086e70551b6e7fa87778d5b3482a643995020ffd63e9ac9c75c30e095a283bef0022078b1f628c341e56e69056e71a437e1551231b2197098c23a5e26070ec1cde3fd0121020260ac4670e2b5a246c45727620b01c2a54a87474452f9abbcf4235a95fbf09dffffffff020000000000000000536a4c50000077d4000130a81fb1653d70c89bd91b765b23cc0f42c2fc38c5e5bf9ae76da98a211ab41f5db4eccc6efab9563f503279393a5baa150f0612cbd83d5417411d100759d4ba30d2c37bb011d97e02cf32bb0900000000001976a9140a8b5a1d3c4dbe8fd4d61102de4a38d8f0d915c588ac00000000", "vin": [{"sequence": 4294967295, "scriptSig": {"hex": "48304502210086e70551b6e7fa87778d5b3482a643995020ffd63e9ac9c75c30e095a283bef0022078b1f628c341e56e69056e71a437e1551231b2197098c23a5e26070ec1cde3fd0121020260ac4670e2b5a246c45727620b01c2a54a87474452f9abbcf4235a95fbf09d", "asm": "304502210086e70551b6e7fa87778d5b3482a643995020ffd63e9ac9c75c30e095a283bef0022078b1f628c341e56e69056e71a437e1551231b2197098c23a5e26070ec1cde3fd[ALL] 020260ac4670e2b5a246c45727620b01c2a54a87474452f9abbcf4235a95fbf09d"}, "vout": 0, "txid": "3ff2682aa296e3361dc8f11feee96ba1f24f79aee40d6ecbb06e73dc269428c2"}], "txid": "46d252500ba02a28fc003972fdd4bc39e560bfc8c9ccc1649afe1418f694ae12", "blocktime": 1537873282, "version": 1, "confirmations": 11484, "time": 1537873282, "locktime": 0, "vsize": 284, "size": 284}