{"hash": "03ce053ff23e41d1d5c9a8afdda7c19d8ae14c7ec9c8c9f75d7152aa21e305cd", "blockhash": "00000000000000000018f53835495a110e01622372bf6ae95dc86f2b0ab887b0", "vout": [{"scriptPubKey": {"reqSigs": 1, "hex": "76a9148fab205be3365e2991820523ed853b235542d46888ac", "addresses": ["1E6edW9o6LBFnvKvRWcXsA4ERPPTELWuBy"], "asm": "OP_DUP OP_HASH160 8fab205be3365e2991820523ed853b235542d468 OP_EQUALVERIFY OP_CHECKSIG", "type": "pubkeyhash"}, "value": 0.00582438, "n": 0}, {"scriptPubKey": {"reqSigs": 1, "hex": "a914ebda085ed442c069e5da3dfe9d49118993b0aa8987", "addresses": ["3PC5uoRjKKa9THB2rtFtMNfWfHRNi345JX"], "asm": "OP_HASH160 ebda085ed442c069e5da3dfe9d49118993b0aa89 OP_EQUAL", "type": "scripthash"}, "value": 0.04854077, "n": 1}, {"scriptPubKey": {"reqSigs": 1, "hex": "76a9149173b0fe23d40b396270304f4bd774df74aeba7788ac", "addresses": ["1EG5aCD9n7UPCHCmHLhTCBwZCc4gWgtutF"], "asm": "OP_DUP OP_HASH160 9173b0fe23d40b396270304f4bd774df74aeba77 OP_EQUALVERIFY OP_CHECKSIG", "type": "pubkeyhash"}, "value": 0.0534713, "n": 2}], "hex": "01000000000101440310f360fa7f50755beb08488aee94c865ed1b99dcfba607fa20edb1d8bd240100000023220020f1d61c4973ae8e03c5a61359d56ffdab7e9caec3830bd13051a923902b967f33ffffffff0326e30800000000001976a9148fab205be3365e2991820523ed853b235542d46888ac3d114a000000000017a914ebda085ed442c069e5da3dfe9d49118993b0aa89873a975100000000001976a9149173b0fe23d40b396270304f4bd774df74aeba7788ac0400473044022061fe3c54e467c51a055c1039e458fd81b21b753449e6e487f0a38853c020693702204c5698d8154dbf98ef435e0b4e5e1709700e8d2c56b7b03989743694288b4cfc01473044022029af5b996f4a7e0d61991425339d9301bc84bda18a5cc1d8af3595f45df06948022071ed328528005baf3081e57165818e067398addb9d412ae1c4bad1bcac6f43fa016952210308a2dc3e8a62c42fda8c3af73d085f38d4a1d7720b377cef48fec54f0529d8172103bb905d663c6cd6ab2858ff7fe0fbcf12e08df27860c8d423db858a07d47f066121025c96bd5bd27afcf6db966dc903b646059a780c746f81a9ec2d573c7a84e226d953ae00000000", "vin": [{"txinwitness": ["", "3044022061fe3c54e467c51a055c1039e458fd81b21b753449e6e487f0a38853c020693702204c5698d8154dbf98ef435e0b4e5e1709700e8d2c56b7b03989743694288b4cfc01", "3044022029af5b996f4a7e0d61991425339d9301bc84bda18a5cc1d8af3595f45df06948022071ed328528005baf3081e57165818e067398addb9d412ae1c4bad1bcac6f43fa01", "52210308a2dc3e8a62c42fda8c3af73d085f38d4a1d7720b377cef48fec54f0529d8172103bb905d663c6cd6ab2858ff7fe0fbcf12e08df27860c8d423db858a07d47f066121025c96bd5bd27afcf6db966dc903b646059a780c746f81a9ec2d573c7a84e226d953ae"], "sequence": 4294967295, "scriptSig": {"hex": "220020f1d61c4973ae8e03c5a61359d56ffdab7e9caec3830bd13051a923902b967f33", "asm": "0020f1d61c4973ae8e03c5a61359d56ffdab7e9caec3830bd13051a923902b967f33"}, "vout": 1, "txid": "24bdd8b1ed20fa07a6fbdc991bed65c894ee8a4808eb5b75507ffa60f3100344"}], "txid": "46d8966e06a4d26b97f3c91ac52336fe649feae63d2954444ed37fe899b896b8", "blocktime": 1537870928, "version": 1, "confirmations": 11514, "time": 1537870928, "locktime": 0, "vsize": 250, "size": 440}