{"hash": "8b09f59f6500d8bb520aa3a1ed72a6d3373cb20fa65c7458f3b8e3e893d19289", "blockhash": "00000000000000000017f5eb5941039fbcee6240d03bc1f2f8e35350df66a1d8", "vout": [{"scriptPubKey": {"reqSigs": 1, "hex": "a9142ee89ccc5ff2e00be37b125e9384e0957a82be9d87", "addresses": ["35y3fZroRFx3uePKGUZK81sWXfF8BPGquo"], "asm": "OP_HASH160 2ee89ccc5ff2e00be37b125e9384e0957a82be9d OP_EQUAL", "type": "scripthash"}, "value": 0.09374525, "n": 0}, {"scriptPubKey": {"reqSigs": 1, "hex": "a91475f3ab16506b27cb6dfb80e0915154c98c529faf87", "addresses": ["3CSgtMmRDBWH2cZnar15nnZeJvMXUYDyEH"], "asm": "OP_HASH160 75f3ab16506b27cb6dfb80e0915154c98c529faf OP_EQUAL", "type": "scripthash"}, "value": 0.01655, "n": 1}], "hex": "02000000000101328bb51d98e3f1b04c45a6483c044bda856df4ced3753e8921b283a654a10c0100000000171600144be365f753e2bbe14ec42fbb9b055fc2ea442a71fdffffff023d0b8f000000000017a9142ee89ccc5ff2e00be37b125e9384e0957a82be9d87d84019000000000017a91475f3ab16506b27cb6dfb80e0915154c98c529faf87024730440220198a218c839309d975cc73e89da1db8d35edddc165bb0ee6e172ce14d2c663320220298d58644d71e78f4ef35a315c6f58fd3adcfb2e7eca07488fdfb5cb7af541c20121020700742b494259ea1e4401451a83b39e3c74c3337483ca2b3e19cbdbeec82a3515490800", "vin": [{"txinwitness": ["30440220198a218c839309d975cc73e89da1db8d35edddc165bb0ee6e172ce14d2c663320220298d58644d71e78f4ef35a315c6f58fd3adcfb2e7eca07488fdfb5cb7af541c201", "020700742b494259ea1e4401451a83b39e3c74c3337483ca2b3e19cbdbeec82a35"], "sequence": 4294967293, "scriptSig": {"hex": "1600144be365f753e2bbe14ec42fbb9b055fc2ea442a71", "asm": "00144be365f753e2bbe14ec42fbb9b055fc2ea442a71"}, "vout": 0, "txid": "010ca154a683b221893e75d3cef46d85da4b043c48a6454cb0f1e3981db58b32"}], "txid": "46ddcefb71c0da948038cb07ecaab84bcbaf879fbe45bcadf2ea15e97689d82d", "blocktime": 1537874412, "version": 2, "confirmations": 11468, "time": 1537874412, "locktime": 542997, "vsize": 166, "size": 247}