{"hash": "46e4f171d4a3ead99ec869c0ec1d98a8dc25c15d9cfb670244cbc24fa9e54f83", "blockhash": "00000000000000000024a2167bbff67b0be802c0b01cdd79e6331c2be6459f87", "vout": [{"scriptPubKey": {"reqSigs": 1, "hex": "a9143b9652fab6c510e2e4ca0119512db1091c989a7487", "addresses": ["3785sZnBQtNnn4maFtCCWvTwkciL2AVApc"], "asm": "OP_HASH160 3b9652fab6c510e2e4ca0119512db1091c989a74 OP_EQUAL", "type": "scripthash"}, "value": 0.016, "n": 0}, {"scriptPubKey": {"reqSigs": 1, "hex": "76a914261a028c518d87b0e61b868daa9b30e40fab4a3988ac", "addresses": ["14UTqVapuH4FZLwAhkFF13wtUxv7UwVMsN"], "asm": "OP_DUP OP_HASH160 261a028c518d87b0e61b868daa9b30e40fab4a39 OP_EQUALVERIFY OP_CHECKSIG", "type": "pubkeyhash"}, "value": 0.03183265, "n": 1}], "hex": "010000000166ed315bbdf995ea0885bdde25ea3c2dbca26125c2c6ee67f01243cca4a09b93010000006a4730440220743b5826e11542ae86007a1dc39a030b05fbb68f2c136a859c89d03ca5b8bc550220536ce0c7ff56b6eda2b0fd8dd00796ee08431d9642f245a1530553012efc460e01210320cab4cce4e16a4c5802a8efe558f004d267fba69261b3c244975b6fba7112ebffffffff02006a18000000000017a9143b9652fab6c510e2e4ca0119512db1091c989a7487a1923000000000001976a914261a028c518d87b0e61b868daa9b30e40fab4a3988ac00000000", "vin": [{"sequence": 4294967295, "scriptSig": {"hex": "4730440220743b5826e11542ae86007a1dc39a030b05fbb68f2c136a859c89d03ca5b8bc550220536ce0c7ff56b6eda2b0fd8dd00796ee08431d9642f245a1530553012efc460e01210320cab4cce4e16a4c5802a8efe558f004d267fba69261b3c244975b6fba7112eb", "asm": "30440220743b5826e11542ae86007a1dc39a030b05fbb68f2c136a859c89d03ca5b8bc550220536ce0c7ff56b6eda2b0fd8dd00796ee08431d9642f245a1530553012efc460e[ALL] 0320cab4cce4e16a4c5802a8efe558f004d267fba69261b3c244975b6fba7112eb"}, "vout": 1, "txid": "939ba0a4cc4312f067eec6c22561a2bc2d3cea25debd8508ea95f9bd5b31ed66"}], "txid": "46e4f171d4a3ead99ec869c0ec1d98a8dc25c15d9cfb670244cbc24fa9e54f83", "blocktime": 1537870564, "version": 1, "confirmations": 11515, "time": 1537870564, "locktime": 0, "vsize": 223, "size": 223}