{"hash": "31e5f4de4e94a5349bcb22a5df36327128a62f3f919348f6afdd3e731b15f791", "blockhash": "0000000000000000001f76057863aec43deb6fa401d9628bb513d65a8098bfab", "vout": [{"scriptPubKey": {"reqSigs": 1, "hex": "76a9140f735bc943b5f69e3dc095a861ef4c9a86fc98f488ac", "addresses": ["12QhL8W2c8w6A49n1Ndj8e5ika8XH5ExYk"], "asm": "OP_DUP OP_HASH160 0f735bc943b5f69e3dc095a861ef4c9a86fc98f4 OP_EQUALVERIFY OP_CHECKSIG", "type": "pubkeyhash"}, "value": 0.04792019, "n": 0}, {"scriptPubKey": {"reqSigs": 1, "hex": "a9141988a27e3c2df4ddee7fad5a2303d086179b2a3087", "addresses": ["3422VtS7UtCvXYxoXMVp6eZupR252z85oC"], "asm": "OP_HASH160 1988a27e3c2df4ddee7fad5a2303d086179b2a30 OP_EQUAL", "type": "scripthash"}, "value": 0.09800964, "n": 1}], "hex": "0100000000010176ee1ca229955cc23ebb3693b6019500a9ac502bbade378c74f8758919d728e2030000002322002065d416c48a8072e0ac51c2d111eb194f009caef0332446c1bf2097316cf07fa9ffffffff02d31e4900000000001976a9140f735bc943b5f69e3dc095a861ef4c9a86fc98f488ac048d95000000000017a9141988a27e3c2df4ddee7fad5a2303d086179b2a308704004730440220398f4799f9f165c4f1677530314e89bc91aaf9ef5b51c66fa14792bfaf3ebe3d0220613775b57fa7f27fd4ddacdbe7a5945fe122e777fe8425e20f0283629024987b01483045022100dd02c688c63043de15f1a54acff48146d78744e082171d36286c152ba55d4145022019ea00988cd3126336979e26f5e6d13e762a0007e76e1bc66d8555e4f4484f970169522102f44abcf9e23c9a460da309ccca56c619c04eed3bde2c2cff5e7d78fbcd980b9c2103c9443cf3047bb6c2c82f1b0c44c36109cdc3d0d601d16d1189a1602bf8d1a0a02103bfe867059274412412e088af5572b92168c2ef495cfe6c9b7a753a009eb37c4853ae00000000", "vin": [{"txinwitness": ["", "30440220398f4799f9f165c4f1677530314e89bc91aaf9ef5b51c66fa14792bfaf3ebe3d0220613775b57fa7f27fd4ddacdbe7a5945fe122e777fe8425e20f0283629024987b01", "3045022100dd02c688c63043de15f1a54acff48146d78744e082171d36286c152ba55d4145022019ea00988cd3126336979e26f5e6d13e762a0007e76e1bc66d8555e4f4484f9701", "522102f44abcf9e23c9a460da309ccca56c619c04eed3bde2c2cff5e7d78fbcd980b9c2103c9443cf3047bb6c2c82f1b0c44c36109cdc3d0d601d16d1189a1602bf8d1a0a02103bfe867059274412412e088af5572b92168c2ef495cfe6c9b7a753a009eb37c4853ae"], "sequence": 4294967295, "scriptSig": {"hex": "22002065d416c48a8072e0ac51c2d111eb194f009caef0332446c1bf2097316cf07fa9", "asm": "002065d416c48a8072e0ac51c2d111eb194f009caef0332446c1bf2097316cf07fa9"}, "vout": 3, "txid": "e228d7198975f8748c37deba2b50aca9009501b69336bb3ec25c9529a21cee76"}], "txid": "46e9a8b08ea3ed4b4e51f64d70b8493a14b913026491cac5316656e87218de10", "blocktime": 1537873891, "version": 1, "confirmations": 11475, "time": 1537873891, "locktime": 0, "vsize": 216, "size": 407}