{"hash": "cee025400de5e25e37104fcdb262b64a57d1298c8f7a86ffab0ef004d6844db4", "blockhash": "0000000000000000001cda96e906b7601b7a6fb1a3b62bca570a9e5d8f4b3de1", "vout": [{"scriptPubKey": {"reqSigs": 1, "hex": "76a91462f9a19bb360a0c3c690c954a73ac93b0defb7bb88ac", "addresses": ["1A2LGV8JrkBhHwfUaMMLy55eF2uQ2wYnWE"], "asm": "OP_DUP OP_HASH160 62f9a19bb360a0c3c690c954a73ac93b0defb7bb OP_EQUALVERIFY OP_CHECKSIG", "type": "pubkeyhash"}, "value": 0.010543, "n": 0}, {"scriptPubKey": {"reqSigs": 1, "hex": "0014c668fe85962d6aad21409cd5e439577bc309b5cd", "addresses": ["bc1qce50apvk94426g2qnn27gw2h00psndwdqrc0ch"], "asm": "0 c668fe85962d6aad21409cd5e439577bc309b5cd", "type": "witness_v0_keyhash"}, "value": 0.00039422, "n": 1}], "hex": "010000000001010f68c3e281435a45224335a84f3b2a49b61f38c83c019340825db5202f3bb47b01000000171600149b9abf551902db771b45b91120eb89c5306ab49dffffffff025c161000000000001976a91462f9a19bb360a0c3c690c954a73ac93b0defb7bb88acfe99000000000000160014c668fe85962d6aad21409cd5e439577bc309b5cd02473044022070cb2bfb8dad14f68ad95bd62053d2eec11054c8c8871a89a96212a41e8394d302204bc077c29f27eaff44c95c8cbae0d10e6f49a0d8ac7f923d73e433742cb2c0dd012102046b3b3b78e6d5a56404fda7352716087b6c546ee23423bea4cf438d62b4f76e00000000", "vin": [{"txinwitness": ["3044022070cb2bfb8dad14f68ad95bd62053d2eec11054c8c8871a89a96212a41e8394d302204bc077c29f27eaff44c95c8cbae0d10e6f49a0d8ac7f923d73e433742cb2c0dd01", "02046b3b3b78e6d5a56404fda7352716087b6c546ee23423bea4cf438d62b4f76e"], "sequence": 4294967295, "scriptSig": {"hex": "1600149b9abf551902db771b45b91120eb89c5306ab49d", "asm": "00149b9abf551902db771b45b91120eb89c5306ab49d"}, "vout": 1, "txid": "7bb43b2f20b55d824093013cc8381fb6492a3b4fa8354322455a4381e2c3680f"}], "txid": "46ee8e49ba4db096e6fbb517f425cecb2e93e2f0d756b88c5873fe34b8cc87c2", "blocktime": 1537873282, "version": 1, "confirmations": 11484, "time": 1537873282, "locktime": 0, "vsize": 167, "size": 248}