{"hash": "46f079a101e179402daa2e8559883b911ad2633ff2da8f9f3c6cb52ce01e00b8", "blockhash": "00000000000000000018f53835495a110e01622372bf6ae95dc86f2b0ab887b0", "vout": [{"scriptPubKey": {"reqSigs": 1, "hex": "76a91483ec1e3e392da7a14cde7250e56b65f8b3fe017888ac", "addresses": ["1D2YNuXHGKhQDDPgNkWEwDR7tYMxpuH7Dp"], "asm": "OP_DUP OP_HASH160 83ec1e3e392da7a14cde7250e56b65f8b3fe0178 OP_EQUALVERIFY OP_CHECKSIG", "type": "pubkeyhash"}, "value": 0.01071022, "n": 0}, {"scriptPubKey": {"reqSigs": 1, "hex": "76a914a71f373ac381f964689abdd33bcd3e67b749e0c088ac", "addresses": ["1GEfEwiRQw2vqSBS6r6f1DsMXjEHWgn11f"], "asm": "OP_DUP OP_HASH160 a71f373ac381f964689abdd33bcd3e67b749e0c0 OP_EQUALVERIFY OP_CHECKSIG", "type": "pubkeyhash"}, "value": 2.0, "n": 1}], "hex": "020000000575d936ca0cd71c07b3a25db70dd536e07cc96171bea58203b1ace42e36a9496f000000006a47304402204c040c1b3c84e58cbe79c0b4d9617a40aa1701c8d693a81c8f6e83fda7fa2ae302205b28c25e79b56aa39d79456351e6d42fabb6bdad67023bd50b1b9c666f47fbdd01210203568a96012654b4968d44cb26b8b038fbea2b196117c5b46504d2478a9b99b8feffffffa4f359a3425e8d928e8da933fa151eb90d2c53c3bbd8177eaeae672b021b13fc010000006b483045022100f6ab1d1c43eca0fc1438cde12cb76461f8df47dd5269fec6ca6e5da0cb0ff08802204ce5c6be714b7719dfdd10bfe21d40f58b51026ee05474c9fc7061ace839c673012103948fed826d0b9e21f8acfcbcc73e14cbbd97c8ccbf929bcd837b4dea06d0e5a8feffffffb3864c13f3324145c62c62152f8d83cc796e2291ed205fea870ba9e2cf76ccb7010000006a473044022052c02660217fa2d37a8c7ef1b93539cc27211a20aa3580903aee0d6863c98373022031e480a4c27570562ebe5b01321fe51fef3bd5faaf6fd3aeb85700527dc0165a012103ea641100a983ca94056355ec4211ee8ef644cf89b016bb3fdde1ea22d7c1baa4feffffffe6799abd4f9d6f2b4273bb0865aa5c514704d2ffc3dfffeaefe72f6d730c1b9e000000006b483045022100db015ee1bf20346d018f082c71a0fe84faec5257a39a95a323b14af289fbff9d0220180ab08640dcdf91fdb870169cde466f023007ace98da48f5d555c913c588d4e0121033ae9ed49e330c3789933a93ff111521245ae9dcb1dea026ba0376a82bd8c438cfeffffffec5b16b32b4b8528104fef51bb03b007acf230c9d8cc6fd6eb9bd3bc2c9e9716010000006b483045022100a0560316bd1f31f99d7ddf9d853ac1e39d3dff935c9d9def5c2e84621d88922b02200c44a9f6dfd436a519582809c6a13136eefe2d6fa6da44f5f4b6138ed998a265012102a1f001aff97c4aa5054d4d0e7a081b6123d6d5bcfc835226aadc8aa565a307dffeffffff02ae571000000000001976a91483ec1e3e392da7a14cde7250e56b65f8b3fe017888ac00c2eb0b000000001976a914a71f373ac381f964689abdd33bcd3e67b749e0c088ac0e490800", "vin": [{"sequence": 4294967294, "scriptSig": {"hex": "47304402204c040c1b3c84e58cbe79c0b4d9617a40aa1701c8d693a81c8f6e83fda7fa2ae302205b28c25e79b56aa39d79456351e6d42fabb6bdad67023bd50b1b9c666f47fbdd01210203568a96012654b4968d44cb26b8b038fbea2b196117c5b46504d2478a9b99b8", "asm": "304402204c040c1b3c84e58cbe79c0b4d9617a40aa1701c8d693a81c8f6e83fda7fa2ae302205b28c25e79b56aa39d79456351e6d42fabb6bdad67023bd50b1b9c666f47fbdd[ALL] 0203568a96012654b4968d44cb26b8b038fbea2b196117c5b46504d2478a9b99b8"}, "vout": 0, "txid": "6f49a9362ee4acb10382a5be7161c97ce036d50db75da2b3071cd70cca36d975"}, {"sequence": 4294967294, "scriptSig": {"hex": "483045022100f6ab1d1c43eca0fc1438cde12cb76461f8df47dd5269fec6ca6e5da0cb0ff08802204ce5c6be714b7719dfdd10bfe21d40f58b51026ee05474c9fc7061ace839c673012103948fed826d0b9e21f8acfcbcc73e14cbbd97c8ccbf929bcd837b4dea06d0e5a8", "asm": "3045022100f6ab1d1c43eca0fc1438cde12cb76461f8df47dd5269fec6ca6e5da0cb0ff08802204ce5c6be714b7719dfdd10bfe21d40f58b51026ee05474c9fc7061ace839c673[ALL] 03948fed826d0b9e21f8acfcbcc73e14cbbd97c8ccbf929bcd837b4dea06d0e5a8"}, "vout": 1, "txid": "fc131b022b67aeae7e17d8bbc3532c0db91e15fa33a98d8e928d5e42a359f3a4"}, {"sequence": 4294967294, "scriptSig": {"hex": "473044022052c02660217fa2d37a8c7ef1b93539cc27211a20aa3580903aee0d6863c98373022031e480a4c27570562ebe5b01321fe51fef3bd5faaf6fd3aeb85700527dc0165a012103ea641100a983ca94056355ec4211ee8ef644cf89b016bb3fdde1ea22d7c1baa4", "asm": "3044022052c02660217fa2d37a8c7ef1b93539cc27211a20aa3580903aee0d6863c98373022031e480a4c27570562ebe5b01321fe51fef3bd5faaf6fd3aeb85700527dc0165a[ALL] 03ea641100a983ca94056355ec4211ee8ef644cf89b016bb3fdde1ea22d7c1baa4"}, "vout": 1, "txid": "b7cc76cfe2a90b87ea5f20ed91226e79cc838d2f15622cc6454132f3134c86b3"}, {"sequence": 4294967294, "scriptSig": {"hex": "483045022100db015ee1bf20346d018f082c71a0fe84faec5257a39a95a323b14af289fbff9d0220180ab08640dcdf91fdb870169cde466f023007ace98da48f5d555c913c588d4e0121033ae9ed49e330c3789933a93ff111521245ae9dcb1dea026ba0376a82bd8c438c", "asm": "3045022100db015ee1bf20346d018f082c71a0fe84faec5257a39a95a323b14af289fbff9d0220180ab08640dcdf91fdb870169cde466f023007ace98da48f5d555c913c588d4e[ALL] 033ae9ed49e330c3789933a93ff111521245ae9dcb1dea026ba0376a82bd8c438c"}, "vout": 0, "txid": "9e1b0c736d2fe7efeaffdfc3ffd20447515caa6508bb73422b6f9d4fbd9a79e6"}, {"sequence": 4294967294, "scriptSig": {"hex": "483045022100a0560316bd1f31f99d7ddf9d853ac1e39d3dff935c9d9def5c2e84621d88922b02200c44a9f6dfd436a519582809c6a13136eefe2d6fa6da44f5f4b6138ed998a265012102a1f001aff97c4aa5054d4d0e7a081b6123d6d5bcfc835226aadc8aa565a307df", "asm": "3045022100a0560316bd1f31f99d7ddf9d853ac1e39d3dff935c9d9def5c2e84621d88922b02200c44a9f6dfd436a519582809c6a13136eefe2d6fa6da44f5f4b6138ed998a265[ALL] 02a1f001aff97c4aa5054d4d0e7a081b6123d6d5bcfc835226aadc8aa565a307df"}, "vout": 1, "txid": "16979e2cbcd39bebd66fccd8c930f2ac07b003bb51ef4f1028854b2bb3165bec"}], "txid": "46f079a101e179402daa2e8559883b911ad2633ff2da8f9f3c6cb52ce01e00b8", "blocktime": 1537870928, "version": 2, "confirmations": 11514, "time": 1537870928, "locktime": 542990, "vsize": 816, "size": 816}