{"hash": "95b8da605c43a5c6a749db1cb095435cdd79e7e254586a205c46426d3cca73d1", "blockhash": "00000000000000000017f5eb5941039fbcee6240d03bc1f2f8e35350df66a1d8", "vout": [{"scriptPubKey": {"reqSigs": 1, "hex": "a9148321bac2202c2b1e12fe11bf27bf5f01f34f5b0587", "addresses": ["3DeNrEzKoUdDa6m3FJvp4jPBk1JrUfuUHz"], "asm": "OP_HASH160 8321bac2202c2b1e12fe11bf27bf5f01f34f5b05 OP_EQUAL", "type": "scripthash"}, "value": 0.00335996, "n": 0}, {"scriptPubKey": {"reqSigs": 1, "hex": "a9149fabd6d9c9ec652f089aaea9b6790d664bed62af87", "addresses": ["3GFHDeRC4DQ7qmzUk5WMCNNYwtFBzp2LsS"], "asm": "OP_HASH160 9fabd6d9c9ec652f089aaea9b6790d664bed62af OP_EQUAL", "type": "scripthash"}, "value": 0.01761724, "n": 1}], "hex": "0200000000010294725621bc56889a345c8129ff77fe3edc9369d9073d8099839e11c389d5c0950000000017160014cd4fd5fd23de9f7d8274e0b671c107aec0ea51d2feffffffe33fc05fd3aaa35e956978680f58d8a023920cf4632212d7e165ebf8ab5360140000000017160014a3847a21763be59ec1e1d05bf835d217c67f123efeffffff027c2005000000000017a9148321bac2202c2b1e12fe11bf27bf5f01f34f5b0587bce11a000000000017a9149fabd6d9c9ec652f089aaea9b6790d664bed62af8702473044022001605b4a3d875760d37a468e73afce311d9e1ca0621c4fde65a38f5972de9d300220239ba367d720a378160b14619d8bde1d88978c8dba5b2fa815e5a03d1c81b909012103a36fec7cb1edf894382b473f2196260cb2c198527a86904fe3d289d3866f75c302483045022100cad4ca1bd980cc150199215546075dfd47dc01b2fbf919fee1bef85b056cc4d302200d3f573da59a5e7e7a87f57771c9c7c83c76ff5ae1caa75e046d0dd2f23baec901210352ab6eb0b4d6b2365edc4b6c24e5474f9988bc0aad6f1fe4af8e6c2d46976ea515490800", "vin": [{"txinwitness": ["3044022001605b4a3d875760d37a468e73afce311d9e1ca0621c4fde65a38f5972de9d300220239ba367d720a378160b14619d8bde1d88978c8dba5b2fa815e5a03d1c81b90901", "03a36fec7cb1edf894382b473f2196260cb2c198527a86904fe3d289d3866f75c3"], "sequence": 4294967294, "scriptSig": {"hex": "160014cd4fd5fd23de9f7d8274e0b671c107aec0ea51d2", "asm": "0014cd4fd5fd23de9f7d8274e0b671c107aec0ea51d2"}, "vout": 0, "txid": "95c0d589c3119e8399803d07d96993dc3efe77ff29815c349a8856bc21567294"}, {"txinwitness": ["3045022100cad4ca1bd980cc150199215546075dfd47dc01b2fbf919fee1bef85b056cc4d302200d3f573da59a5e7e7a87f57771c9c7c83c76ff5ae1caa75e046d0dd2f23baec901", "0352ab6eb0b4d6b2365edc4b6c24e5474f9988bc0aad6f1fe4af8e6c2d46976ea5"], "sequence": 4294967294, "scriptSig": {"hex": "160014a3847a21763be59ec1e1d05bf835d217c67f123e", "asm": "0014a3847a21763be59ec1e1d05bf835d217c67f123e"}, "vout": 0, "txid": "146053abf8eb65e1d7122263f40c9223a0d8580f687869955ea3aad35fc03fe3"}], "txid": "46f0f06b66e8fd0cfe183321477d16afe86bc244c9762ddd90537e5bd1405a46", "blocktime": 1537874412, "version": 2, "confirmations": 11468, "time": 1537874412, "locktime": 542997, "vsize": 257, "size": 419}