{"hash": "362e30004da0f85db1765ff3fdfc892057d4738dbc5d192c27fb155bcd4b65ff", "blockhash": "0000000000000000001e0dab787dd257d1dbfcb92a98c2207d5e1078be1f4165", "vout": [{"scriptPubKey": {"reqSigs": 1, "hex": "a9149c4ba0f03641286ee70dced4aae69b5b78eeb39087", "addresses": ["3FwRwEwH9DX4hXnU14haYroJoauXzda7Qr"], "asm": "OP_HASH160 9c4ba0f03641286ee70dced4aae69b5b78eeb390 OP_EQUAL", "type": "scripthash"}, "value": 0.01001101, "n": 0}, {"scriptPubKey": {"reqSigs": 1, "hex": "a91419e456d8e506d55f6b896446114baf6fbeefb2be87", "addresses": ["343vMdQefsXDJXAsM9wH7gzmrY3E66HwzF"], "asm": "OP_HASH160 19e456d8e506d55f6b896446114baf6fbeefb2be OP_EQUAL", "type": "scripthash"}, "value": 0.00426599, "n": 1}], "hex": "0200000000010431078b4b16b8860f259299e83dfd22e618abbdfd9ac79f9f34b0faff3428ca8200000000171600145c28d80980f36f594636e01b199b4a076546460afdffffff3ae06e54505469b7eadc2c5662dab519f176a7d915110980283961711d5f71320100000017160014f4d0698f9b5387348d6a6d28134b7b9a2cb5b58efdffffffc94e8c74799a572d24733441d7acd5866318465b896cb2281c09bcbeded89f056f010000171600149844f12ed5937b80045059b3860c23de1a5402bdfdffffffdfe8815c00d30bcc6eff0ecb61ed53694c697d0f00f79bdff4102c503cb4dd9c00000000171600142898a5aa33b65e9a06a6f0b691ad5efb70efb41cfdffffff028d460f000000000017a9149c4ba0f03641286ee70dced4aae69b5b78eeb39087678206000000000017a91419e456d8e506d55f6b896446114baf6fbeefb2be8702473044022023368a18f9c9e55e55504444402272ae1eb58cd0128ef4ac300937bd4fe93ee502204ea5c6012c72071a70c2d9b34b905cccf259d92d1c30730d9a704fb6eb6f674301210303ef6034925251a3c5cc8cd49fd78c6168cf9b7e4c82a6a67c7546f92a7f0b3d02483045022100ac3987c3466ed47343de7501f290e4491782ca5a5fbc3e3f5514ce25a791750f022042d20c3746d744955644307f92377eabe3d6ddd0293e88c0cae0d39b115257e6012103126d68429e8f9a963d1521a8f8ef4ce3f269a87726238f17a2951d208d3f8f4302473044022050fd99729985ef839fd004f91866f1bdcddfdf5f0e6f515f81339a4af98db23c02207975e9842b023cdb38ddf5b9315094d8f4c0be5c1d2c7410574494bc7982dda801210234f71d775cb5b9e91c9fcaf0dfd6c460d492f0d300393a0ef9e2e4de672d661c024830450221008c34961f1fcebcdfdb9a157841be1c399233b17654824073a8cc0fd26462b8f402205f2d7b024aee2f4fce08f18b263b1f098ef96fab86709c291db29120d1dc54250121028cd6814c057c42fa618880ccb5a4ee96c12cd7d81ace5fca531cd2b7e582225c12490800", "vin": [{"txinwitness": ["3044022023368a18f9c9e55e55504444402272ae1eb58cd0128ef4ac300937bd4fe93ee502204ea5c6012c72071a70c2d9b34b905cccf259d92d1c30730d9a704fb6eb6f674301", "0303ef6034925251a3c5cc8cd49fd78c6168cf9b7e4c82a6a67c7546f92a7f0b3d"], "sequence": 4294967293, "scriptSig": {"hex": "1600145c28d80980f36f594636e01b199b4a076546460a", "asm": "00145c28d80980f36f594636e01b199b4a076546460a"}, "vout": 0, "txid": "82ca2834fffab0349f9fc79afdbdab18e622fd3de89992250f86b8164b8b0731"}, {"txinwitness": ["3045022100ac3987c3466ed47343de7501f290e4491782ca5a5fbc3e3f5514ce25a791750f022042d20c3746d744955644307f92377eabe3d6ddd0293e88c0cae0d39b115257e601", "03126d68429e8f9a963d1521a8f8ef4ce3f269a87726238f17a2951d208d3f8f43"], "sequence": 4294967293, "scriptSig": {"hex": "160014f4d0698f9b5387348d6a6d28134b7b9a2cb5b58e", "asm": "0014f4d0698f9b5387348d6a6d28134b7b9a2cb5b58e"}, "vout": 1, "txid": "32715f1d7161392880091115d9a776f119b5da62562cdceab7695450546ee03a"}, {"txinwitness": ["3044022050fd99729985ef839fd004f91866f1bdcddfdf5f0e6f515f81339a4af98db23c02207975e9842b023cdb38ddf5b9315094d8f4c0be5c1d2c7410574494bc7982dda801", "0234f71d775cb5b9e91c9fcaf0dfd6c460d492f0d300393a0ef9e2e4de672d661c"], "sequence": 4294967293, "scriptSig": {"hex": "1600149844f12ed5937b80045059b3860c23de1a5402bd", "asm": "00149844f12ed5937b80045059b3860c23de1a5402bd"}, "vout": 367, "txid": "059fd8debebc091c28b26c895b46186386d5acd7413473242d579a79748c4ec9"}, {"txinwitness": ["30450221008c34961f1fcebcdfdb9a157841be1c399233b17654824073a8cc0fd26462b8f402205f2d7b024aee2f4fce08f18b263b1f098ef96fab86709c291db29120d1dc542501", "028cd6814c057c42fa618880ccb5a4ee96c12cd7d81ace5fca531cd2b7e582225c"], "sequence": 4294967293, "scriptSig": {"hex": "1600142898a5aa33b65e9a06a6f0b691ad5efb70efb41c", "asm": "00142898a5aa33b65e9a06a6f0b691ad5efb70efb41c"}, "vout": 0, "txid": "9cddb43c502c10f4df9bf7000f7d694c6953ed61cb0eff6ecc0bd3005c81e8df"}], "txid": "46f135c96a5c3855205a39e21fb25f85824d9867dfd0a7884dc77a1e6a9abe07", "blocktime": 1537872475, "version": 2, "confirmations": 11486, "time": 1537872475, "locktime": 542994, "vsize": 438, "size": 762}