{"hash": "46f2bfc81400f40e277d1cf76a9298394f4fffe8bc165023a805a99f5495e3ed", "blockhash": "00000000000000000018f53835495a110e01622372bf6ae95dc86f2b0ab887b0", "vout": [{"scriptPubKey": {"reqSigs": 1, "hex": "76a91468f7a271bf379e984ae9d9af33d5fb42b960520c88ac", "addresses": ["1Aa1vuDyc3kyo2dRh2q8Y2YcQfwHbxwhvf"], "asm": "OP_DUP OP_HASH160 68f7a271bf379e984ae9d9af33d5fb42b960520c OP_EQUALVERIFY OP_CHECKSIG", "type": "pubkeyhash"}, "value": 0.01461427, "n": 0}], "hex": "0100000002d79ef43ed9620b6522dd5ce6e3a637f8c0cd339700a61697b895ed6feaf5fb57000000006b483045022100f2a8dfbe11e92aa326fefe519a7a91f37d26cf77c4ec2cf3aa7a167e36a76473022003c1105c8bd0a4f776fefc794dd0d23134e0afbbc07f4bc96c534d76f748a9150121029ca4ee34bb577c665c17650be5e51d6f918379d10f04e90c8dcacec7d0e55712ffffffff7a324b341cc01810270a4747cce3eb2ae6ea6d31b234a1f420304e4feab6fa6a000000006b483045022100b8135f4fa5bdef81103e046976ff494ea98f70ebf8a4117e08d231ee690a926102204239a155bf3d4901bff27b4856c171d6eef1edf61d765af6812ad5e9c879f14601210355e40a8c39adaa5e654a3dedc6037514b76839b736888aab31b15a23c1c86965ffffffff01b34c1600000000001976a91468f7a271bf379e984ae9d9af33d5fb42b960520c88ac00000000", "vin": [{"sequence": 4294967295, "scriptSig": {"hex": "483045022100f2a8dfbe11e92aa326fefe519a7a91f37d26cf77c4ec2cf3aa7a167e36a76473022003c1105c8bd0a4f776fefc794dd0d23134e0afbbc07f4bc96c534d76f748a9150121029ca4ee34bb577c665c17650be5e51d6f918379d10f04e90c8dcacec7d0e55712", "asm": "3045022100f2a8dfbe11e92aa326fefe519a7a91f37d26cf77c4ec2cf3aa7a167e36a76473022003c1105c8bd0a4f776fefc794dd0d23134e0afbbc07f4bc96c534d76f748a915[ALL] 029ca4ee34bb577c665c17650be5e51d6f918379d10f04e90c8dcacec7d0e55712"}, "vout": 0, "txid": "57fbf5ea6fed95b89716a6009733cdc0f837a6e3e65cdd22650b62d93ef49ed7"}, {"sequence": 4294967295, "scriptSig": {"hex": "483045022100b8135f4fa5bdef81103e046976ff494ea98f70ebf8a4117e08d231ee690a926102204239a155bf3d4901bff27b4856c171d6eef1edf61d765af6812ad5e9c879f14601210355e40a8c39adaa5e654a3dedc6037514b76839b736888aab31b15a23c1c86965", "asm": "3045022100b8135f4fa5bdef81103e046976ff494ea98f70ebf8a4117e08d231ee690a926102204239a155bf3d4901bff27b4856c171d6eef1edf61d765af6812ad5e9c879f146[ALL] 0355e40a8c39adaa5e654a3dedc6037514b76839b736888aab31b15a23c1c86965"}, "vout": 0, "txid": "6afab6ea4f4e3020f4a134b2316deae62aebe3cc47470a271018c01c344b327a"}], "txid": "46f2bfc81400f40e277d1cf76a9298394f4fffe8bc165023a805a99f5495e3ed", "blocktime": 1537870928, "version": 1, "confirmations": 11512, "time": 1537870928, "locktime": 0, "vsize": 340, "size": 340}