{"hash": "46f486c9324b66e3cb96e79e58ac85174e7ae18b34905b263209eaf26410e107", "blockhash": "0000000000000000001cda96e906b7601b7a6fb1a3b62bca570a9e5d8f4b3de1", "vout": [{"scriptPubKey": {"reqSigs": 1, "hex": "76a914873ea0681f36a785a7cc1c50579da520cf46927588ac", "addresses": ["1DL7FGbB5iufGvmaUZfvWyMMZV1eAy7dVA"], "asm": "OP_DUP OP_HASH160 873ea0681f36a785a7cc1c50579da520cf469275 OP_EQUALVERIFY OP_CHECKSIG", "type": "pubkeyhash"}, "value": 0.0001, "n": 0}, {"scriptPubKey": {"reqSigs": 1, "hex": "76a914a8d18a26bf89ae6329ee2a1c0a70f791a78d626188ac", "addresses": ["1GPdYJH74Jjy7TRtXSEUrWZC1BRxfLa9nQ"], "asm": "OP_DUP OP_HASH160 a8d18a26bf89ae6329ee2a1c0a70f791a78d6261 OP_EQUALVERIFY OP_CHECKSIG", "type": "pubkeyhash"}, "value": 1.27225888, "n": 1}], "hex": "010000000153c1a983cb952845018b41a56127ad963cc032b24d06e5809d63a4fe14783efc010000006a47304402205d5915f0bcd1de8edcd10f980deea980a07f3666492be0ba3724425dbbcad5f3022042803ee5a72b5514bc6ecef4438f451004bf44ebc1e33f5ac2ae04aad091a387012103835c7802b6582e2d905c06f54bd575765c6d21920afbe164739e330ff875c807ffffffff0210270000000000001976a914873ea0681f36a785a7cc1c50579da520cf46927588ac20509507000000001976a914a8d18a26bf89ae6329ee2a1c0a70f791a78d626188ac00000000", "vin": [{"sequence": 4294967295, "scriptSig": {"hex": "47304402205d5915f0bcd1de8edcd10f980deea980a07f3666492be0ba3724425dbbcad5f3022042803ee5a72b5514bc6ecef4438f451004bf44ebc1e33f5ac2ae04aad091a387012103835c7802b6582e2d905c06f54bd575765c6d21920afbe164739e330ff875c807", "asm": "304402205d5915f0bcd1de8edcd10f980deea980a07f3666492be0ba3724425dbbcad5f3022042803ee5a72b5514bc6ecef4438f451004bf44ebc1e33f5ac2ae04aad091a387[ALL] 03835c7802b6582e2d905c06f54bd575765c6d21920afbe164739e330ff875c807"}, "vout": 1, "txid": "fc3e7814fea4639d80e5064db232c03c96ad2761a5418b01452895cb83a9c153"}], "txid": "46f486c9324b66e3cb96e79e58ac85174e7ae18b34905b263209eaf26410e107", "blocktime": 1537873282, "version": 1, "confirmations": 11485, "time": 1537873282, "locktime": 0, "vsize": 225, "size": 225}