{"hash": "a4c582eb089b328ebc813a39ccb726a0b16fc812ac95ed8be9f19f75421d9891", "blockhash": "0000000000000000001e0dab787dd257d1dbfcb92a98c2207d5e1078be1f4165", "vout": [{"scriptPubKey": {"reqSigs": 1, "hex": "76a9149a1b8f9b1fa2d2297863adb1cb11c71df455684888ac", "addresses": ["1F3r5We2zwNiSzG6GQUTTWnnPMCz2HJbJu"], "asm": "OP_DUP OP_HASH160 9a1b8f9b1fa2d2297863adb1cb11c71df4556848 OP_EQUALVERIFY OP_CHECKSIG", "type": "pubkeyhash"}, "value": 2.724e-05, "n": 0}, {"scriptPubKey": {"reqSigs": 1, "hex": "a9148ddb66c3371910a0ef8f38021cc4094e61e69f3a87", "addresses": ["3Ed62sPENkraPwpovPty9YMFGJ8FtTyv63"], "asm": "OP_HASH160 8ddb66c3371910a0ef8f38021cc4094e61e69f3a OP_EQUAL", "type": "scripthash"}, "value": 0.04920514, "n": 1}], "hex": "0100000000010156d401d1670791930a9537bcf1cccdc4135889b68d8aab69f35de48a3c4e2d510100000023220020fdd23d707f55451c4e006c77b5e8df35a185a8e99f9bda70bf0ded7913bb1eb3ffffffff02a40a0000000000001976a9149a1b8f9b1fa2d2297863adb1cb11c71df455684888acc2144b000000000017a9148ddb66c3371910a0ef8f38021cc4094e61e69f3a870400483045022100dab4ec2a8582c2c156c99e967a01913999428d7c0ba59d15b1018d46bbf2246602204e403146ca52b0e04c0c9544f32da927a6cabe9d68956d17f0050c54324292f101483045022100ed014e6e5f71781ec34ecbc154c6923e896da3f300123dac4d94778d9609bfaa02201836c0ad69ea30e09400d5eb7ec0734d3fe4752265d7274454e488ef2fe9f54c014752210286c104577b978160849865bc23f9a6df9b53d41c8ffb486754b97b2a474a181c2103148c80a5bdfddb05ff5bcffc397c8ca748d8b435ec6a175bc9d7bfc7fc6f853752ae00000000", "vin": [{"txinwitness": ["", "3045022100dab4ec2a8582c2c156c99e967a01913999428d7c0ba59d15b1018d46bbf2246602204e403146ca52b0e04c0c9544f32da927a6cabe9d68956d17f0050c54324292f101", "3045022100ed014e6e5f71781ec34ecbc154c6923e896da3f300123dac4d94778d9609bfaa02201836c0ad69ea30e09400d5eb7ec0734d3fe4752265d7274454e488ef2fe9f54c01", "52210286c104577b978160849865bc23f9a6df9b53d41c8ffb486754b97b2a474a181c2103148c80a5bdfddb05ff5bcffc397c8ca748d8b435ec6a175bc9d7bfc7fc6f853752ae"], "sequence": 4294967295, "scriptSig": {"hex": "220020fdd23d707f55451c4e006c77b5e8df35a185a8e99f9bda70bf0ded7913bb1eb3", "asm": "0020fdd23d707f55451c4e006c77b5e8df35a185a8e99f9bda70bf0ded7913bb1eb3"}, "vout": 1, "txid": "512d4e3c8ae45df369ab8a8db6895813c4cdccf1bc37950a93910767d101d456"}], "txid": "46f542205f3d0692f46446dbc998ff2b2e740925ce4c6e269582e7f7d3faa260", "blocktime": 1537872475, "version": 1, "confirmations": 11487, "time": 1537872475, "locktime": 0, "vsize": 208, "size": 374}