{"hash": "46f5c0076facf43b878dcd556aca52ce2483bea4abc50a6410b98a64db4388cd", "blockhash": "00000000000000000004ffacab907a6b429b9a5745fa0b75af4234bf69dd7176", "vout": [{"scriptPubKey": {"reqSigs": 1, "hex": "76a91496552abaf7152635ad2730a86b38aed9bbdc0ab488ac", "addresses": ["1EhtPGz4ZcPnjqvCyekmx5cz68Hm7pvvqV"], "asm": "OP_DUP OP_HASH160 96552abaf7152635ad2730a86b38aed9bbdc0ab4 OP_EQUALVERIFY OP_CHECKSIG", "type": "pubkeyhash"}, "value": 0.01065856, "n": 0}, {"scriptPubKey": {"reqSigs": 1, "hex": "76a9147f0c56e48fcb6bab2757b10664179d9fb5e84c6b88ac", "addresses": ["1Cambiobai1XfTSPtYD4vK32BwYtjH2sYW"], "asm": "OP_DUP OP_HASH160 7f0c56e48fcb6bab2757b10664179d9fb5e84c6b OP_EQUALVERIFY OP_CHECKSIG", "type": "pubkeyhash"}, "value": 15.51097893, "n": 1}], "hex": "010000000188173aeff0db1cf2e2f508f9733bfd287e7c364756e6510cb32aed25387627c9010000006a47304402207fcbee19800740e4ecd530cf46ed96446d2c62d3e6996991e309da825e906c5f0220303cefb481d6dede7241035551c052d009eac2485d3295429d5a8686e567f9db012103c057886e5a60779095ae9b589040f47b5b0d9f25672c91c60a55081b92ba051affffffff0280431000000000001976a91496552abaf7152635ad2730a86b38aed9bbdc0ab488ac25e0735c000000001976a9147f0c56e48fcb6bab2757b10664179d9fb5e84c6b88ac00000000", "vin": [{"sequence": 4294967295, "scriptSig": {"hex": "47304402207fcbee19800740e4ecd530cf46ed96446d2c62d3e6996991e309da825e906c5f0220303cefb481d6dede7241035551c052d009eac2485d3295429d5a8686e567f9db012103c057886e5a60779095ae9b589040f47b5b0d9f25672c91c60a55081b92ba051a", "asm": "304402207fcbee19800740e4ecd530cf46ed96446d2c62d3e6996991e309da825e906c5f0220303cefb481d6dede7241035551c052d009eac2485d3295429d5a8686e567f9db[ALL] 03c057886e5a60779095ae9b589040f47b5b0d9f25672c91c60a55081b92ba051a"}, "vout": 1, "txid": "c927763825ed2ab30c51e65647367c7e28fd3b73f908f5e2f21cdbf0ef3a1788"}], "txid": "46f5c0076facf43b878dcd556aca52ce2483bea4abc50a6410b98a64db4388cd", "blocktime": 1537875543, "version": 1, "confirmations": 11464, "time": 1537875543, "locktime": 0, "vsize": 225, "size": 225}