{"hash": "46c2b37ec45c6e9313c7b4250a1958c0fade81c1238d116aaa26768c39445955", "blockhash": "0000000000000000000e13cef7c366c0283d82e591d1acd082e914b08063cdf1", "vout": [{"scriptPubKey": {"reqSigs": 1, "hex": "76a9141bd1f8f9ffebef30252694fa5bd5a5bfc4234e7988ac", "addresses": ["13Y6nL5hAoTdAGacZq2T3h9FjED5r1LGch"], "asm": "OP_DUP OP_HASH160 1bd1f8f9ffebef30252694fa5bd5a5bfc4234e79 OP_EQUALVERIFY OP_CHECKSIG", "type": "pubkeyhash"}, "value": 0.03465438, "n": 0}, {"scriptPubKey": {"reqSigs": 1, "hex": "a914dd656d05b7a7949edb88e0b407b69eaeafa9093f87", "addresses": ["3Msem8ZVVncX3vaT9vhXWpfrHCkLJLYGpm"], "asm": "OP_HASH160 dd656d05b7a7949edb88e0b407b69eaeafa9093f OP_EQUAL", "type": "scripthash"}, "value": 5.37730561, "n": 1}], "hex": "02000000000101b9dc20c7e24872e60ca5428575becb5d21f603e7770a09a956d12dd89b5afde10100000017160014d4256c879f181fc8bf4995dfaac47359c6e4faf3ffffffff02dee03400000000001976a9141bd1f8f9ffebef30252694fa5bd5a5bfc4234e7988ac011e0d200000000017a914dd656d05b7a7949edb88e0b407b69eaeafa9093f8702473044022032977c7b5cca5bbd087197ec6c05093039a796a8296041f03ea3d4cb19dce86902206ff06efe961d0c0c747fb3247d2d7e3f83e1c360af965f11c1edc0978cb26b2f0121034cd6df873c7eb81e45f8eb3b2b4da9d107792d5db188d124ad23eb4485565a8a00000000", "vin": [{"txinwitness": ["3044022032977c7b5cca5bbd087197ec6c05093039a796a8296041f03ea3d4cb19dce86902206ff06efe961d0c0c747fb3247d2d7e3f83e1c360af965f11c1edc0978cb26b2f01", "034cd6df873c7eb81e45f8eb3b2b4da9d107792d5db188d124ad23eb4485565a8a"], "sequence": 4294967295, "scriptSig": {"hex": "160014d4256c879f181fc8bf4995dfaac47359c6e4faf3", "asm": "0014d4256c879f181fc8bf4995dfaac47359c6e4faf3"}, "vout": 1, "txid": "e1fd5a9bd82dd156a9090a77e703f6215dcbbe758542a50ce67248e2c720dcb9"}], "txid": "46f66778fba3672db14f174a1025e061abb86029cdba3a8b7679db5be27529e5", "blocktime": 1537871767, "version": 2, "confirmations": 11493, "time": 1537871767, "locktime": 0, "vsize": 168, "size": 249}