{"hash": "8b097e6e4934f9656b3e05df1e40a6598fff376163744370417b3fc8eeee42a1", "blockhash": "00000000000000000017f5eb5941039fbcee6240d03bc1f2f8e35350df66a1d8", "vout": [{"scriptPubKey": {"reqSigs": 1, "hex": "a9140a9fd3c06991682ddcaf538d181aac9291ea912487", "addresses": ["32fC9SuUw5552umqCaCNwwWbyBLtBwZH71"], "asm": "OP_HASH160 0a9fd3c06991682ddcaf538d181aac9291ea9124 OP_EQUAL", "type": "scripthash"}, "value": 0.00102098, "n": 0}, {"scriptPubKey": {"reqSigs": 1, "hex": "001490a1c1b75263b129750efa6079fe77b38568d530", "addresses": ["bc1qjzsurd6jvwcjjagwlfs8nlnhkwzk34fsjemt4c"], "asm": "0 90a1c1b75263b129750efa6079fe77b38568d530", "type": "witness_v0_keyhash"}, "value": 2.405e-05, "n": 1}], "hex": "010000000001019f266235af2e44a4b91d6d01f75e7592d816e175343636dba20990a5c157734d0000000017160014e3495935110ec72785ee7dec08c6450c0ebb1320ffffffff02d28e01000000000017a9140a9fd3c06991682ddcaf538d181aac9291ea912487650900000000000016001490a1c1b75263b129750efa6079fe77b38568d53002473044022053fe00c664058e53461e262cc602ffaf0bab2194e10964b2f7e3769390a9614602200e691a173ffcf65e055572ea3db8b6b5a4f2e6f462ccedd776fb7d4672906435012103bd369599845997fbdfa47564abb16faaa2decb31caffda942be114db136683cc00000000", "vin": [{"txinwitness": ["3044022053fe00c664058e53461e262cc602ffaf0bab2194e10964b2f7e3769390a9614602200e691a173ffcf65e055572ea3db8b6b5a4f2e6f462ccedd776fb7d467290643501", "03bd369599845997fbdfa47564abb16faaa2decb31caffda942be114db136683cc"], "sequence": 4294967295, "scriptSig": {"hex": "160014e3495935110ec72785ee7dec08c6450c0ebb1320", "asm": "0014e3495935110ec72785ee7dec08c6450c0ebb1320"}, "vout": 0, "txid": "4d7357c1a59009a2db36363475e116d892755ef7016d1db9a4442eaf3562269f"}], "txid": "46f71ab7e395393b9d4d97a9fbef479f24679a9a0aad59a6f32af363ba2ec70d", "blocktime": 1537874412, "version": 1, "confirmations": 11468, "time": 1537874412, "locktime": 0, "vsize": 165, "size": 246}