{"hash": "46f80757a03d41c7e665a0444bd22e424313eedf8a68ca3aacf73ace917c7da6", "blockhash": "0000000000000000000dcc0f55137456b1a82d3642486a52398922ac4d620174", "vout": [{"scriptPubKey": {"reqSigs": 1, "hex": "76a91465a210440babacc75a358eca62a2058fc838580588ac", "addresses": ["1AGPPkKeAnhaa9gtZv3X9Xwe8eEZ3gEWSZ"], "asm": "OP_DUP OP_HASH160 65a210440babacc75a358eca62a2058fc8385805 OP_EQUALVERIFY OP_CHECKSIG", "type": "pubkeyhash"}, "value": 0.00386995, "n": 0}, {"scriptPubKey": {"reqSigs": 1, "hex": "76a9146875b7ddb445bd979ce3a285934fa5aaa91817f088ac", "addresses": ["1AXLJA4GmDy4bqJ7FyhLrjinCpTcoweT81"], "asm": "OP_DUP OP_HASH160 6875b7ddb445bd979ce3a285934fa5aaa91817f0 OP_EQUALVERIFY OP_CHECKSIG", "type": "pubkeyhash"}, "value": 0.10704926, "n": 1}], "hex": "010000000153ed48d88d6c1022fc39721335d7b8ebd72e416c74f826b29ff33379b41e8008460000006b48304502210089f3916d6ec72b21089645812e42e83ddc72c5d8a5383b3636c971b70b790e2302206970d77dda544f0ab8c773b6f12a1222daf787bad020443aed6c2ea139dafa4d012103b007a24ea3f41e4f13cbabfbe479a21549d929cf0ca16f7624f282c6da565240ffffffff02b3e70500000000001976a91465a210440babacc75a358eca62a2058fc838580588ac1e58a300000000001976a9146875b7ddb445bd979ce3a285934fa5aaa91817f088ac00000000", "vin": [{"sequence": 4294967295, "scriptSig": {"hex": "48304502210089f3916d6ec72b21089645812e42e83ddc72c5d8a5383b3636c971b70b790e2302206970d77dda544f0ab8c773b6f12a1222daf787bad020443aed6c2ea139dafa4d012103b007a24ea3f41e4f13cbabfbe479a21549d929cf0ca16f7624f282c6da565240", "asm": "304502210089f3916d6ec72b21089645812e42e83ddc72c5d8a5383b3636c971b70b790e2302206970d77dda544f0ab8c773b6f12a1222daf787bad020443aed6c2ea139dafa4d[ALL] 03b007a24ea3f41e4f13cbabfbe479a21549d929cf0ca16f7624f282c6da565240"}, "vout": 70, "txid": "08801eb47933f39fb226f8746c412ed7ebb8d735137239fc22106c8dd848ed53"}], "txid": "46f80757a03d41c7e665a0444bd22e424313eedf8a68ca3aacf73ace917c7da6", "blocktime": 1537870268, "version": 1, "confirmations": 11516, "time": 1537870268, "locktime": 0, "vsize": 226, "size": 226}