{"hash": "46fb79f131e61bf78dbfab1d424eca937d9f5f68bf8923fc3c8d0cbd4f3829d0", "blockhash": "0000000000000000001f0ddff1eddb255c1121bcd4da4f1bc9a0da00cae72433", "vout": [{"scriptPubKey": {"reqSigs": 1, "hex": "76a9147414deed5ee6fd5cb837ae003bf14c57db0d6e4988ac", "addresses": ["1BanPP8gfXcBK8hnxpj3jEnTCYqyDrD2fJ"], "asm": "OP_DUP OP_HASH160 7414deed5ee6fd5cb837ae003bf14c57db0d6e49 OP_EQUALVERIFY OP_CHECKSIG", "type": "pubkeyhash"}, "value": 0.00021575, "n": 0}, {"scriptPubKey": {"type": "nulldata", "hex": "6a4c50000077a900013f28305dd15bb3407afe8d20af6c953dd567cf27e7e3ef3236678a6250975e4d5b8dfd28209081d9196931d189995baa10040612fa8b53ccfddc4bbf23acfcfaac8058b692fe6808c31d", "asm": "OP_RETURN 000077a900013f28305dd15bb3407afe8d20af6c953dd567cf27e7e3ef3236678a6250975e4d5b8dfd28209081d9196931d189995baa10040612fa8b53ccfddc4bbf23acfcfaac8058b692fe6808c31d"}, "value": 0.0, "n": 1}], "hex": "0100000001560f37487b62caf5368695ba97a1a0f296103a45636bc6b4a2f39bc22a27527b000000006a47304402205564f033be5f4cbcde761495e34232929f877e057179b0ef18049045feea0eb802207f3a9a268afa7b552708e9005247c2e2b2cfb62b03a260b778637af9ead7d60e012102a185aae6941d0befaf5bbe4af4aedd385880d9c071feea06256e2d749dde4f2dffffffff0247540000000000001976a9147414deed5ee6fd5cb837ae003bf14c57db0d6e4988ac0000000000000000536a4c50000077a900013f28305dd15bb3407afe8d20af6c953dd567cf27e7e3ef3236678a6250975e4d5b8dfd28209081d9196931d189995baa10040612fa8b53ccfddc4bbf23acfcfaac8058b692fe6808c31d00000000", "vin": [{"sequence": 4294967295, "scriptSig": {"hex": "47304402205564f033be5f4cbcde761495e34232929f877e057179b0ef18049045feea0eb802207f3a9a268afa7b552708e9005247c2e2b2cfb62b03a260b778637af9ead7d60e012102a185aae6941d0befaf5bbe4af4aedd385880d9c071feea06256e2d749dde4f2d", "asm": "304402205564f033be5f4cbcde761495e34232929f877e057179b0ef18049045feea0eb802207f3a9a268afa7b552708e9005247c2e2b2cfb62b03a260b778637af9ead7d60e[ALL] 02a185aae6941d0befaf5bbe4af4aedd385880d9c071feea06256e2d749dde4f2d"}, "vout": 0, "txid": "7b52272ac29bf3a2b4c66b63453a1096f2a0a197ba958636f5ca627b48370f56"}], "txid": "46fb79f131e61bf78dbfab1d424eca937d9f5f68bf8923fc3c8d0cbd4f3829d0", "blocktime": 1537872018, "version": 1, "confirmations": 11489, "time": 1537872018, "locktime": 0, "vsize": 283, "size": 283}