{"hash": "49a0c4348f353d8477da64b81cf16fdd794217cecb70308105e9776818e8b2df", "blockhash": "0000000000000000000e13cef7c366c0283d82e591d1acd082e914b08063cdf1", "vout": [{"scriptPubKey": {"reqSigs": 1, "hex": "001426fd7f78766d1b6c9c0ecc9b0d90882d6eab0b80", "addresses": ["bc1qym7h77rkd5dke8qwejdsmyyg94h2kzuqrt8m6f"], "asm": "0 26fd7f78766d1b6c9c0ecc9b0d90882d6eab0b80", "type": "witness_v0_keyhash"}, "value": 6.202e-05, "n": 0}, {"scriptPubKey": {"reqSigs": 1, "hex": "76a914c1b7b0a5ba36bdde0a5eb38d2b60d3d653b5f7b988ac", "addresses": ["1JfHU2kfmxrwUU8kfpRWXGW5kkWEUPtzwG"], "asm": "OP_DUP OP_HASH160 c1b7b0a5ba36bdde0a5eb38d2b60d3d653b5f7b9 OP_EQUALVERIFY OP_CHECKSIG", "type": "pubkeyhash"}, "value": 0.001, "n": 1}], "hex": "01000000000101f6a86634dff4630f1354a373c1d2282e6ecd14b63ec73521fa8eca36a950fa240000000000ffffffff023a1800000000000016001426fd7f78766d1b6c9c0ecc9b0d90882d6eab0b80a0860100000000001976a914c1b7b0a5ba36bdde0a5eb38d2b60d3d653b5f7b988ac02473044022044fcc7099dee463e0558a27623e81883e0ad1e5d1242fb737824e6449e1e3cd102205066ca95d00e63347c381c03aff8784dff189c721b252087baa8d84585bda00c012102ba8f6b37ed500334b98565e1cf82f51ed3a5bda83c14d54ba69006c63a0edab000000000", "vin": [{"txinwitness": ["3044022044fcc7099dee463e0558a27623e81883e0ad1e5d1242fb737824e6449e1e3cd102205066ca95d00e63347c381c03aff8784dff189c721b252087baa8d84585bda00c01", "02ba8f6b37ed500334b98565e1cf82f51ed3a5bda83c14d54ba69006c63a0edab0"], "sequence": 4294967295, "scriptSig": {"hex": "", "asm": ""}, "vout": 0, "txid": "24fa50a936ca8efa2135c73eb614cd6e2e28d2c173a354130f63f4df3466a8f6"}], "txid": "46fd7d7863029a31ddb0914d4de5fa54ea891956e6180711c9077ade803866f4", "blocktime": 1537871767, "version": 1, "confirmations": 11495, "time": 1537871767, "locktime": 0, "vsize": 144, "size": 225}