{"hash": "2df8715c92aeb89fb27ac5cd8e060e9f080177c48c51fb3489bf6d027bd0a562", "blockhash": "0000000000000000000dcc0f55137456b1a82d3642486a52398922ac4d620174", "vout": [{"scriptPubKey": {"reqSigs": 1, "hex": "76a914059a269be6d25c9998f336be6d08f06c4e15280988ac", "addresses": ["1Wd3YeYSV49J1rcDX8vAVWQBkoEsfmtrx"], "asm": "OP_DUP OP_HASH160 059a269be6d25c9998f336be6d08f06c4e152809 OP_EQUALVERIFY OP_CHECKSIG", "type": "pubkeyhash"}, "value": 0.020261, "n": 0}, {"scriptPubKey": {"reqSigs": 1, "hex": "76a914a34e4e98d2b9279bfa18a9ae47d880c9bfc6bead88ac", "addresses": ["1FtUx8rf5w3CfNcbPUSaSHo3idCxozjWBp"], "asm": "OP_DUP OP_HASH160 a34e4e98d2b9279bfa18a9ae47d880c9bfc6bead OP_EQUALVERIFY OP_CHECKSIG", "type": "pubkeyhash"}, "value": 0.007239, "n": 1}, {"scriptPubKey": {"reqSigs": 1, "hex": "a9147543971afff473ae0fe44ee1df206bf8cfc4c75587", "addresses": ["3CP3xEwh3yYH5eec2mCLpWcCpjZg4EeYjT"], "asm": "OP_HASH160 7543971afff473ae0fe44ee1df206bf8cfc4c755 OP_EQUAL", "type": "scripthash"}, "value": 2.73119311, "n": 2}], "hex": "02000000000101ed633509dd1d5ff8c9b8f506072db438f1d883014e64a5036afa63f2cd18316e030000001716001462224d014e1f4ad612ba7626ae6906469eaab7affeffffff0374ea1e00000000001976a914059a269be6d25c9998f336be6d08f06c4e15280988acbc0b0b00000000001976a914a34e4e98d2b9279bfa18a9ae47d880c9bfc6bead88ac4f7847100000000017a9147543971afff473ae0fe44ee1df206bf8cfc4c75587024730440220566c6b49aac68f2db858ba73b19e0e58d4ca2ba9659aa45cd8066eb5bde29d7502206c268c66903cd5363b3f4404b448cef1535cd5bfd0846e3d32971150e6d711e1012103c38d7cea823e525f79cb4158f550464c0952b72b784836a37341365f078c83ba0c490800", "vin": [{"txinwitness": ["30440220566c6b49aac68f2db858ba73b19e0e58d4ca2ba9659aa45cd8066eb5bde29d7502206c268c66903cd5363b3f4404b448cef1535cd5bfd0846e3d32971150e6d711e101", "03c38d7cea823e525f79cb4158f550464c0952b72b784836a37341365f078c83ba"], "sequence": 4294967294, "scriptSig": {"hex": "16001462224d014e1f4ad612ba7626ae6906469eaab7af", "asm": "001462224d014e1f4ad612ba7626ae6906469eaab7af"}, "vout": 3, "txid": "6e3118cdf263fa6a03a5644e0183d8f138b42d0706f5b8c9f85f1ddd093563ed"}], "txid": "46fe175d8f88a4792789d1da892d58554edd654bdf332d94b61d67a1b269c234", "blocktime": 1537870268, "version": 2, "confirmations": 11516, "time": 1537870268, "locktime": 542988, "vsize": 202, "size": 283}