{"hash": "470145ecb709762f8f61e363a60f55953d0cea71585e224b92f4e4b760646d9f", "blockhash": "0000000000000000000dcc0f55137456b1a82d3642486a52398922ac4d620174", "vout": [{"scriptPubKey": {"reqSigs": 1, "hex": "76a914f1d0f5fdd5881f78ba08b0a06088bdc414bc438388ac", "addresses": ["1P3cB6BRVZ1PVNsG3mBUVPDf1jw1YEqf6K"], "asm": "OP_DUP OP_HASH160 f1d0f5fdd5881f78ba08b0a06088bdc414bc4383 OP_EQUALVERIFY OP_CHECKSIG", "type": "pubkeyhash"}, "value": 0.22247526, "n": 0}, {"scriptPubKey": {"reqSigs": 1, "hex": "76a914846c1ad1d34a4116a5d9a6de7ff2b941c5cddb2888ac", "addresses": ["1D5BhaCFtYt3e9hDrbiSNzsbD26KJeEVJZ"], "asm": "OP_DUP OP_HASH160 846c1ad1d34a4116a5d9a6de7ff2b941c5cddb28 OP_EQUALVERIFY OP_CHECKSIG", "type": "pubkeyhash"}, "value": 1.24744, "n": 1}], "hex": "0100000001265e6ec02947b6a3e5fce891c1179876df3caba46be1981065288a70fd3a38cf000000006a473044022003161dccd109e626b4c8d653d24148d8669f1c5f43ef9b484984a58bc2bf12c402200c7af6c9d9a46ae01eff4b2cc714f54de706369404971e2b294c0b7ab2bff9530121034c8170d3dd40826fd772ff9938a07dd97438f7e69110f379debb12f5474a1c17ffffffff0266785301000000001976a914f1d0f5fdd5881f78ba08b0a06088bdc414bc438388ac40716f07000000001976a914846c1ad1d34a4116a5d9a6de7ff2b941c5cddb2888ac00000000", "vin": [{"sequence": 4294967295, "scriptSig": {"hex": "473044022003161dccd109e626b4c8d653d24148d8669f1c5f43ef9b484984a58bc2bf12c402200c7af6c9d9a46ae01eff4b2cc714f54de706369404971e2b294c0b7ab2bff9530121034c8170d3dd40826fd772ff9938a07dd97438f7e69110f379debb12f5474a1c17", "asm": "3044022003161dccd109e626b4c8d653d24148d8669f1c5f43ef9b484984a58bc2bf12c402200c7af6c9d9a46ae01eff4b2cc714f54de706369404971e2b294c0b7ab2bff953[ALL] 034c8170d3dd40826fd772ff9938a07dd97438f7e69110f379debb12f5474a1c17"}, "vout": 0, "txid": "cf383afd708a28651098e16ba4ab3cdf769817c191e8fce5a3b64729c06e5e26"}], "txid": "470145ecb709762f8f61e363a60f55953d0cea71585e224b92f4e4b760646d9f", "blocktime": 1537870268, "version": 1, "confirmations": 11516, "time": 1537870268, "locktime": 0, "vsize": 225, "size": 225}