{"hash": "47052d979ad8d049be2d35eb3ee814e3d83cd60fdad09b2d79a03717aed2417a", "blockhash": "0000000000000000001f76057863aec43deb6fa401d9628bb513d65a8098bfab", "vout": [{"scriptPubKey": {"reqSigs": 1, "hex": "76a9146aa33b553cdc76be1c7add1fabd375b67775126088ac", "addresses": ["1AirAspWRVHVUJdN2vZdYik59dmPAYwQMj"], "asm": "OP_DUP OP_HASH160 6aa33b553cdc76be1c7add1fabd375b677751260 OP_EQUALVERIFY OP_CHECKSIG", "type": "pubkeyhash"}, "value": 0.00128627, "n": 0}, {"scriptPubKey": {"reqSigs": 1, "hex": "76a91417adebe724525a69924000d5702f6d0fc109d4a688ac", "addresses": ["13ACtgzPJ34yBXGxcZQjqtmYGLiWYMrW98"], "asm": "OP_DUP OP_HASH160 17adebe724525a69924000d5702f6d0fc109d4a6 OP_EQUALVERIFY OP_CHECKSIG", "type": "pubkeyhash"}, "value": 0.01942501, "n": 1}], "hex": "01000000010fdef77674ed39ff6a1be41bbb638a3640fb22a89a8e67b0c5b4c61189b9ee77010000006a47304402203e22cd7fd78782af9f7f5a18e87955a6fb0ca44deb6e3b8b7579e224c33c3d5302205a258490515fffcdddf385450477e798f026fe380c7d2ed462cec575d260b48a0121030b1f4bf4bdd603a0a344bcae21bb413efceddfa1062ff4b420d59b8ca12163cafdffffff0273f60100000000001976a9146aa33b553cdc76be1c7add1fabd375b67775126088ace5a31d00000000001976a91417adebe724525a69924000d5702f6d0fc109d4a688ac14490800", "vin": [{"sequence": 4294967293, "scriptSig": {"hex": "47304402203e22cd7fd78782af9f7f5a18e87955a6fb0ca44deb6e3b8b7579e224c33c3d5302205a258490515fffcdddf385450477e798f026fe380c7d2ed462cec575d260b48a0121030b1f4bf4bdd603a0a344bcae21bb413efceddfa1062ff4b420d59b8ca12163ca", "asm": "304402203e22cd7fd78782af9f7f5a18e87955a6fb0ca44deb6e3b8b7579e224c33c3d5302205a258490515fffcdddf385450477e798f026fe380c7d2ed462cec575d260b48a[ALL] 030b1f4bf4bdd603a0a344bcae21bb413efceddfa1062ff4b420d59b8ca12163ca"}, "vout": 1, "txid": "77eeb98911c6b4c5b0678e9aa822fb40368a63bb1be41b6aff39ed7476f7de0f"}], "txid": "47052d979ad8d049be2d35eb3ee814e3d83cd60fdad09b2d79a03717aed2417a", "blocktime": 1537873891, "version": 1, "confirmations": 11479, "time": 1537873891, "locktime": 542996, "vsize": 225, "size": 225}