{"hash": "470696ba657b23a2d797d8676547ae90182af724d20e48e5e34c7c4658e3ddc6", "blockhash": "00000000000000000004ffacab907a6b429b9a5745fa0b75af4234bf69dd7176", "vout": [{"scriptPubKey": {"reqSigs": 1, "hex": "76a9141ad6db5c83d6899d36b2f26b9b7ef2124dcf85a588ac", "addresses": ["13SuxWK2AnsfDMqm5c638UNmMssHKrs1sm"], "asm": "OP_DUP OP_HASH160 1ad6db5c83d6899d36b2f26b9b7ef2124dcf85a5 OP_EQUALVERIFY OP_CHECKSIG", "type": "pubkeyhash"}, "value": 0.0001, "n": 0}, {"scriptPubKey": {"reqSigs": 1, "hex": "76a9143a9489f97f6049a6a7c9e7675899e49654ac31d388ac", "addresses": ["16Lk8o4uwCXYVnhancmbDSCAuVTQpE238x"], "asm": "OP_DUP OP_HASH160 3a9489f97f6049a6a7c9e7675899e49654ac31d3 OP_EQUALVERIFY OP_CHECKSIG", "type": "pubkeyhash"}, "value": 2.496e-05, "n": 1}], "hex": "0100000002167bb25f8a962031c7d7a931b486c303d4d785156368935a69c2e3e9d35710fd010000006a473044022044d1e1a3460f19cb1ea38636e9ba3f2c0d25a75237fb034c17286eabfaf0eb4202206612bc037499e3f5af93b492118def0d13b2f04e9b0d8c90fec4b0c33c155b8f01210389820716a453c3fdcfc16bf1cac178903a7809064c5c6f1fb60ece6bbc2c4855ffffffff7b31472565d71c707b26d1ada6444fb39b42d7c9a03b93e96bd26891bc489380000000006a4730440220532e73b34f2a328a08aba92d09229256597ccb83e6dbe616797afbeb7bac66ab022056a32cd6124cdd0471b14c2eddebf0cf900c1e5eebd341b1f14775d2d8fb7f3b01210389820716a453c3fdcfc16bf1cac178903a7809064c5c6f1fb60ece6bbc2c4855ffffffff0210270000000000001976a9141ad6db5c83d6899d36b2f26b9b7ef2124dcf85a588acc0090000000000001976a9143a9489f97f6049a6a7c9e7675899e49654ac31d388ac00000000", "vin": [{"sequence": 4294967295, "scriptSig": {"hex": "473044022044d1e1a3460f19cb1ea38636e9ba3f2c0d25a75237fb034c17286eabfaf0eb4202206612bc037499e3f5af93b492118def0d13b2f04e9b0d8c90fec4b0c33c155b8f01210389820716a453c3fdcfc16bf1cac178903a7809064c5c6f1fb60ece6bbc2c4855", "asm": "3044022044d1e1a3460f19cb1ea38636e9ba3f2c0d25a75237fb034c17286eabfaf0eb4202206612bc037499e3f5af93b492118def0d13b2f04e9b0d8c90fec4b0c33c155b8f[ALL] 0389820716a453c3fdcfc16bf1cac178903a7809064c5c6f1fb60ece6bbc2c4855"}, "vout": 1, "txid": "fd1057d3e9e3c2695a9368631585d7d403c386b431a9d7c73120968a5fb27b16"}, {"sequence": 4294967295, "scriptSig": {"hex": "4730440220532e73b34f2a328a08aba92d09229256597ccb83e6dbe616797afbeb7bac66ab022056a32cd6124cdd0471b14c2eddebf0cf900c1e5eebd341b1f14775d2d8fb7f3b01210389820716a453c3fdcfc16bf1cac178903a7809064c5c6f1fb60ece6bbc2c4855", "asm": "30440220532e73b34f2a328a08aba92d09229256597ccb83e6dbe616797afbeb7bac66ab022056a32cd6124cdd0471b14c2eddebf0cf900c1e5eebd341b1f14775d2d8fb7f3b[ALL] 0389820716a453c3fdcfc16bf1cac178903a7809064c5c6f1fb60ece6bbc2c4855"}, "vout": 0, "txid": "809348bc9168d26be9933ba0c9d7429bb34f44a6add1267b701cd7652547317b"}], "txid": "470696ba657b23a2d797d8676547ae90182af724d20e48e5e34c7c4658e3ddc6", "blocktime": 1537875543, "version": 1, "confirmations": 11464, "time": 1537875543, "locktime": 0, "vsize": 372, "size": 372}