{"hash": "b2821eb414ef3f45f4ceab3a5dadb7941b654e8ecc54738c47aa438b5281cd05", "blockhash": "0000000000000000000e13cef7c366c0283d82e591d1acd082e914b08063cdf1", "vout": [{"scriptPubKey": {"reqSigs": 1, "hex": "a914a5de9234d3b82eb0d6fb041c453b81b6c6c3269787", "addresses": ["3Gp43i2eXuktV5kaZWCU8mwzzHF6jmewC4"], "asm": "OP_HASH160 a5de9234d3b82eb0d6fb041c453b81b6c6c32697 OP_EQUAL", "type": "scripthash"}, "value": 0.030888, "n": 0}, {"scriptPubKey": {"reqSigs": 1, "hex": "0014a090d8018facd08297edd3fa52e0ba352bbefd16", "addresses": ["bc1q5zgdsqv04ngg99ld60a99c96x54malgkl7h652"], "asm": "0 a090d8018facd08297edd3fa52e0ba352bbefd16", "type": "witness_v0_keyhash"}, "value": 0.00080969, "n": 1}], "hex": "01000000000101955fea679defd2151609e4cfe0ca1345ec2ef0e81455dc4c0a5b81625b80987d0000000017160014ccc38a20e8d4abc9ac9f68135480189530a9b825ffffffff02a0212f000000000017a914a5de9234d3b82eb0d6fb041c453b81b6c6c3269787493c010000000000160014a090d8018facd08297edd3fa52e0ba352bbefd1602483045022100d2f741740b276d895d9473235d2fbe8dd382556e56e3add953b8bb30e97925a8022060ecc5956efcec7e3370b27e82e4bc6f75d349574fb5283ee19e9f002bd503cd0121026e1760a3a9d14aa75fe32332a7971873d5866b7140589465558018b66a790c9600000000", "vin": [{"txinwitness": ["3045022100d2f741740b276d895d9473235d2fbe8dd382556e56e3add953b8bb30e97925a8022060ecc5956efcec7e3370b27e82e4bc6f75d349574fb5283ee19e9f002bd503cd01", "026e1760a3a9d14aa75fe32332a7971873d5866b7140589465558018b66a790c96"], "sequence": 4294967295, "scriptSig": {"hex": "160014ccc38a20e8d4abc9ac9f68135480189530a9b825", "asm": "0014ccc38a20e8d4abc9ac9f68135480189530a9b825"}, "vout": 0, "txid": "7d98805b62815b0a4cdc5514e8f02eec4513cae0cfe4091615d2ef9d67ea5f95"}], "txid": "4706229875ddd44f0cb529f25251cbfac91b1650c84d671b04a406791658b4a9", "blocktime": 1537871767, "version": 1, "confirmations": 11495, "time": 1537871767, "locktime": 0, "vsize": 165, "size": 247}