{"hash": "470641e4708beea029d867daf5fa294c1277d3b6c011b03ab13c8f51fde1229f", "blockhash": "0000000000000000000e13cef7c366c0283d82e591d1acd082e914b08063cdf1", "vout": [{"scriptPubKey": {"reqSigs": 1, "hex": "a914b07b4d73ccbbcce964ee5fc219f1cd4951d02e7287", "addresses": ["3HnAZWwwzmcwgRXYBm7YkGd4hS9ifKC88c"], "asm": "OP_HASH160 b07b4d73ccbbcce964ee5fc219f1cd4951d02e72 OP_EQUAL", "type": "scripthash"}, "value": 0.07700931, "n": 0}, {"scriptPubKey": {"reqSigs": 1, "hex": "76a9149fbb9e9f3ae6723a42d8e0c65ddcf5e4e021bd1288ac", "addresses": ["1FZbCYMVUUvr6Whc6GchmaguwmGgHVqb41"], "asm": "OP_DUP OP_HASH160 9fbb9e9f3ae6723a42d8e0c65ddcf5e4e021bd12 OP_EQUALVERIFY OP_CHECKSIG", "type": "pubkeyhash"}, "value": 0.0009941, "n": 1}], "hex": "010000000144a1121abac5be7acf9cc83c870b7cc7d8d30ef5bd0360ce399d3994e092784a00000000d90047304402204ff3fd9cdf7d55a25491e77da91c39d69c79ea677d426887b7e13dadf1afd37702202d8283a01d4e3d49368f4f2e458a517d358e445611a93f3d5b7735981072aa3a01473044022036e7529c944e61d24db91fe31f44887cb5be65fd9cd8aa0dd782c9102631ce57022057c5415928ae2caa4ea7d5227985765b2835fb9367f076a48fd335dc1d34ead70147522102907a54bed8ad74b3f35638c60114ca240a308cb986f3f2f306178869a8880b612103ddf5dd190781bf80f1d366f5a833bb1ca5ca6d77ef3532db594e342c61374c5052aeffffffff02c38175000000000017a914b07b4d73ccbbcce964ee5fc219f1cd4951d02e728752840100000000001976a9149fbb9e9f3ae6723a42d8e0c65ddcf5e4e021bd1288ac00000000", "vin": [{"sequence": 4294967295, "scriptSig": {"hex": "0047304402204ff3fd9cdf7d55a25491e77da91c39d69c79ea677d426887b7e13dadf1afd37702202d8283a01d4e3d49368f4f2e458a517d358e445611a93f3d5b7735981072aa3a01473044022036e7529c944e61d24db91fe31f44887cb5be65fd9cd8aa0dd782c9102631ce57022057c5415928ae2caa4ea7d5227985765b2835fb9367f076a48fd335dc1d34ead70147522102907a54bed8ad74b3f35638c60114ca240a308cb986f3f2f306178869a8880b612103ddf5dd190781bf80f1d366f5a833bb1ca5ca6d77ef3532db594e342c61374c5052ae", "asm": "0 304402204ff3fd9cdf7d55a25491e77da91c39d69c79ea677d426887b7e13dadf1afd37702202d8283a01d4e3d49368f4f2e458a517d358e445611a93f3d5b7735981072aa3a[ALL] 3044022036e7529c944e61d24db91fe31f44887cb5be65fd9cd8aa0dd782c9102631ce57022057c5415928ae2caa4ea7d5227985765b2835fb9367f076a48fd335dc1d34ead7[ALL] 522102907a54bed8ad74b3f35638c60114ca240a308cb986f3f2f306178869a8880b612103ddf5dd190781bf80f1d366f5a833bb1ca5ca6d77ef3532db594e342c61374c5052ae"}, "vout": 0, "txid": "4a7892e094399d39ce6003bdf50ed3d8c77c0b873cc89ccf7abec5ba1a12a144"}], "txid": "470641e4708beea029d867daf5fa294c1277d3b6c011b03ab13c8f51fde1229f", "blocktime": 1537871767, "version": 1, "confirmations": 11495, "time": 1537871767, "locktime": 0, "vsize": 334, "size": 334}