{"hash": "f90b6135883203c1b0bccb5569eac37d781e212c7b3cf17f57f9f919ae95ad15", "blockhash": "0000000000000000001e0dab787dd257d1dbfcb92a98c2207d5e1078be1f4165", "vout": [{"scriptPubKey": {"reqSigs": 1, "hex": "a914b262ca69b555074e2504887f0891bee940f5256887", "addresses": ["3HxEYnYUqRD4eNW5WoGTBu2wTTMehHUuoy"], "asm": "OP_HASH160 b262ca69b555074e2504887f0891bee940f52568 OP_EQUAL", "type": "scripthash"}, "value": 0.00315164, "n": 0}, {"scriptPubKey": {"reqSigs": 1, "hex": "001436fc0cdb1486a15d668d9915f39a9f913c4050a8", "addresses": ["bc1qxm7qekc5s6s46e5dny2l8x5ljy7yq59g9hg956"], "asm": "0 36fc0cdb1486a15d668d9915f39a9f913c4050a8", "type": "witness_v0_keyhash"}, "value": 5.712e-05, "n": 1}], "hex": "010000000001014f783e77eb57e4044d0cc779f2adc23be36714ab33675e519176c336fdd1454e2e00000017160014e293a720fede3c59acbfa2e1a803dbdd4a7593a9ffffffff021ccf04000000000017a914b262ca69b555074e2504887f0891bee940f5256887501600000000000016001436fc0cdb1486a15d668d9915f39a9f913c4050a802473044022072e68c974c64f9bbe79b9eff498358ab7a6f0dacb4712fb3848d6cfdf4cdc6f3022063e608bd9b4f1c6b95853642376691a18cb645f477f37e6786f6cdfc266e533f012102ee8612b24172db3179bcdf9fbf6119c96145ebbfc7857b76902eb5f39ae4b29300000000", "vin": [{"txinwitness": ["3044022072e68c974c64f9bbe79b9eff498358ab7a6f0dacb4712fb3848d6cfdf4cdc6f3022063e608bd9b4f1c6b95853642376691a18cb645f477f37e6786f6cdfc266e533f01", "02ee8612b24172db3179bcdf9fbf6119c96145ebbfc7857b76902eb5f39ae4b293"], "sequence": 4294967295, "scriptSig": {"hex": "160014e293a720fede3c59acbfa2e1a803dbdd4a7593a9", "asm": "0014e293a720fede3c59acbfa2e1a803dbdd4a7593a9"}, "vout": 46, "txid": "4e45d1fd36c37691515e6733ab1467e33bc2adf279c70c4d04e457eb773e784f"}], "txid": "47099db5c80f547f3aa40032055bac46791ca815828487c081ffcf6520f14f33", "blocktime": 1537872475, "version": 1, "confirmations": 11486, "time": 1537872475, "locktime": 0, "vsize": 165, "size": 246}