{"hash": "470a75318be81f3ff7d3421f1cb140486f44cd7a2268d149a4c45b7600b416f3", "blockhash": "0000000000000000001f76057863aec43deb6fa401d9628bb513d65a8098bfab", "vout": [{"scriptPubKey": {"reqSigs": 1, "hex": "76a914090f235121986739db874a22248e9564a4d882f788ac", "addresses": ["1puDXkQn6MLnyUtQfrWbq7Yz5PuAC1meL"], "asm": "OP_DUP OP_HASH160 090f235121986739db874a22248e9564a4d882f7 OP_EQUALVERIFY OP_CHECKSIG", "type": "pubkeyhash"}, "value": 0.00634309, "n": 0}, {"scriptPubKey": {"type": "nulldata", "hex": "6a4c50000077e4000167df72fb503605953f25f60a7af8e8e963c7cfd5b95b23cc0f42c2fc38c5f5201554d03010031cbc1a7f37323a855baa17330612509c148db5821d100759d4ba30d2c37bb011d97e02cf", "asm": "OP_RETURN 000077e4000167df72fb503605953f25f60a7af8e8e963c7cfd5b95b23cc0f42c2fc38c5f5201554d03010031cbc1a7f37323a855baa17330612509c148db5821d100759d4ba30d2c37bb011d97e02cf"}, "value": 0.0, "n": 1}], "hex": "010000000173b96aec70412642bf4b9a0ee849b3a977db3078dd964c3587111542f6ffc869010000006a47304402207a790b45bd4938eef22c108ee342d173020330fe685dd3ae9f3bd5a9ad8ad3ad0220145b6f4e62146bb0384f726eac769d28be23458d8263b6ae15f80471185b53790121037f6bf1859ff3c810b8c8dcf4a42d19027c6666419b7742f2754c71a16f79a799ffffffff02c5ad0900000000001976a914090f235121986739db874a22248e9564a4d882f788ac0000000000000000536a4c50000077e4000167df72fb503605953f25f60a7af8e8e963c7cfd5b95b23cc0f42c2fc38c5f5201554d03010031cbc1a7f37323a855baa17330612509c148db5821d100759d4ba30d2c37bb011d97e02cf00000000", "vin": [{"sequence": 4294967295, "scriptSig": {"hex": "47304402207a790b45bd4938eef22c108ee342d173020330fe685dd3ae9f3bd5a9ad8ad3ad0220145b6f4e62146bb0384f726eac769d28be23458d8263b6ae15f80471185b53790121037f6bf1859ff3c810b8c8dcf4a42d19027c6666419b7742f2754c71a16f79a799", "asm": "304402207a790b45bd4938eef22c108ee342d173020330fe685dd3ae9f3bd5a9ad8ad3ad0220145b6f4e62146bb0384f726eac769d28be23458d8263b6ae15f80471185b5379[ALL] 037f6bf1859ff3c810b8c8dcf4a42d19027c6666419b7742f2754c71a16f79a799"}, "vout": 1, "txid": "69c8fff642151187354c96dd7830db77a9b349e80e9a4bbf42264170ec6ab973"}], "txid": "470a75318be81f3ff7d3421f1cb140486f44cd7a2268d149a4c45b7600b416f3", "blocktime": 1537873891, "version": 1, "confirmations": 11478, "time": 1537873891, "locktime": 0, "vsize": 283, "size": 283}