{"hash": "470fd8fb98fc2f4d52511a56abce9dc2ab488d77fac8c1468189f4896a3d78be", "blockhash": "000000000000000000022b45ed06c6f4ccd3cf7fb5ba4856ebd2e58215665228", "vout": [{"scriptPubKey": {"reqSigs": 1, "hex": "76a914d243e6abb9a60fbff430b421d2df4b7d59ec186088ac", "addresses": ["1LAnF8h3qMGx3TSwNUHVneBZUEpwE4gu3D"], "asm": "OP_DUP OP_HASH160 d243e6abb9a60fbff430b421d2df4b7d59ec1860 OP_EQUALVERIFY OP_CHECKSIG", "type": "pubkeyhash"}, "value": 0.00076972, "n": 0}, {"scriptPubKey": {"reqSigs": 1, "hex": "76a9143851f34d13937b673a7d24a1950bb5b21ce94af388ac", "addresses": ["168o1kqNquEJeR9vosUB5fw4eAwcVAgh8P"], "asm": "OP_DUP OP_HASH160 3851f34d13937b673a7d24a1950bb5b21ce94af3 OP_EQUALVERIFY OP_CHECKSIG", "type": "pubkeyhash"}, "value": 5.46e-06, "n": 1}, {"scriptPubKey": {"type": "nulldata", "hex": "6a146f6d6e69000000000000001f00000021ca6c0e80", "asm": "OP_RETURN 6f6d6e69000000000000001f00000021ca6c0e80"}, "value": 0.0, "n": 2}], "hex": "01000000028e162e529b25c7a0716e7947baf330997d2db156dbd7a95eb9b74b24c7628b85000000006b483045022100d93fd6fdb4e01de677da7bcabb45c83ef7709c80f4f5318a548dde042897af1d022009e3500c66aa844628b8ce72f736be9d827010f6ef43f67966f59ec1612f5f37012102a8416def9fec03cc9741dc02821457bd46575522436c65f8d4a50c9e2a2cac86ffffffff22b7890afb56475f3b1e41dc14efe60c21f53a64b3cae4fcba0eb7f79908d748000000006b483045022100b0788b31ace3578f597617ade8f3e5be18f25b0fc0bc93bec6867159e329738c02206942c634a5ac5f2a926677f84eec73866cb2868d59a1d54f483eb8ea1cf24d3301210271977291b74f1f5f5c42157e8aae804664eaaeccfd097918450d37f28fb94d77ffffffff03ac2c0100000000001976a914d243e6abb9a60fbff430b421d2df4b7d59ec186088ac22020000000000001976a9143851f34d13937b673a7d24a1950bb5b21ce94af388ac0000000000000000166a146f6d6e69000000000000001f00000021ca6c0e8000000000", "vin": [{"sequence": 4294967295, "scriptSig": {"hex": "483045022100d93fd6fdb4e01de677da7bcabb45c83ef7709c80f4f5318a548dde042897af1d022009e3500c66aa844628b8ce72f736be9d827010f6ef43f67966f59ec1612f5f37012102a8416def9fec03cc9741dc02821457bd46575522436c65f8d4a50c9e2a2cac86", "asm": "3045022100d93fd6fdb4e01de677da7bcabb45c83ef7709c80f4f5318a548dde042897af1d022009e3500c66aa844628b8ce72f736be9d827010f6ef43f67966f59ec1612f5f37[ALL] 02a8416def9fec03cc9741dc02821457bd46575522436c65f8d4a50c9e2a2cac86"}, "vout": 0, "txid": "858b62c7244bb7b95ea9d7db56b12d7d9930f3ba47796e71a0c7259b522e168e"}, {"sequence": 4294967295, "scriptSig": {"hex": "483045022100b0788b31ace3578f597617ade8f3e5be18f25b0fc0bc93bec6867159e329738c02206942c634a5ac5f2a926677f84eec73866cb2868d59a1d54f483eb8ea1cf24d3301210271977291b74f1f5f5c42157e8aae804664eaaeccfd097918450d37f28fb94d77", "asm": "3045022100b0788b31ace3578f597617ade8f3e5be18f25b0fc0bc93bec6867159e329738c02206942c634a5ac5f2a926677f84eec73866cb2868d59a1d54f483eb8ea1cf24d33[ALL] 0271977291b74f1f5f5c42157e8aae804664eaaeccfd097918450d37f28fb94d77"}, "vout": 0, "txid": "48d70899f7b70ebafce4cab3643af5210ce6ef14dc411e3b5f4756fb0a89b722"}], "txid": "470fd8fb98fc2f4d52511a56abce9dc2ab488d77fac8c1468189f4896a3d78be", "blocktime": 1537869901, "version": 1, "confirmations": 11522, "time": 1537869901, "locktime": 0, "vsize": 405, "size": 405}