{"hash": "47116ca0aca8f3a6d40ef5874d864ef841a6590dd21ef46e9ebc06fcf7233194", "blockhash": "0000000000000000000dcc0f55137456b1a82d3642486a52398922ac4d620174", "vout": [{"scriptPubKey": {"reqSigs": 1, "hex": "a91474a97a4e9d90344dd448695419721a2b7ee9175587", "addresses": ["3CKsLKN68ThLMjhCDxgGiJ1exWfGJYaqF3"], "asm": "OP_HASH160 74a97a4e9d90344dd448695419721a2b7ee91755 OP_EQUAL", "type": "scripthash"}, "value": 0.01072262, "n": 0}, {"scriptPubKey": {"reqSigs": 1, "hex": "76a914e0574f520f5296b3e70fbb7e1da76efbd5d2c4df88ac", "addresses": ["1MTCxN92wqJgsJgZopiLtHBfgzaAdgaPGc"], "asm": "OP_DUP OP_HASH160 e0574f520f5296b3e70fbb7e1da76efbd5d2c4df OP_EQUALVERIFY OP_CHECKSIG", "type": "pubkeyhash"}, "value": 0.21204595, "n": 1}], "hex": "01000000014aa7f5b99b7465a0cf0521d3569a1c892b2b90b44cf8901ca8a4b0c6eb02d53e010000006b4830450221008dab7dac35991b29bb8fcaf0ed4a4f267e5b24916de31bd16db3139dbf48254802202418922de315b3adbe833e4e24b0aba2fd8789ee760113636e985528592df8210121026b816e8f57271c41280a0885f3ae863d6e3225921906c7820f63e97d8f916658ffffffff02865c10000000000017a91474a97a4e9d90344dd448695419721a2b7ee9175587738e4301000000001976a914e0574f520f5296b3e70fbb7e1da76efbd5d2c4df88ac00000000", "vin": [{"sequence": 4294967295, "scriptSig": {"hex": "4830450221008dab7dac35991b29bb8fcaf0ed4a4f267e5b24916de31bd16db3139dbf48254802202418922de315b3adbe833e4e24b0aba2fd8789ee760113636e985528592df8210121026b816e8f57271c41280a0885f3ae863d6e3225921906c7820f63e97d8f916658", "asm": "30450221008dab7dac35991b29bb8fcaf0ed4a4f267e5b24916de31bd16db3139dbf48254802202418922de315b3adbe833e4e24b0aba2fd8789ee760113636e985528592df821[ALL] 026b816e8f57271c41280a0885f3ae863d6e3225921906c7820f63e97d8f916658"}, "vout": 1, "txid": "3ed502ebc6b0a4a81c90f84cb4902b2b891c9a56d32105cfa065749bb9f5a74a"}], "txid": "47116ca0aca8f3a6d40ef5874d864ef841a6590dd21ef46e9ebc06fcf7233194", "blocktime": 1537870268, "version": 1, "confirmations": 11518, "time": 1537870268, "locktime": 0, "vsize": 224, "size": 224}