{"hash": "471cfa32bd701aa455ec1f0be84fcbb7fa288b06c3e05fd52499d12b4d494520", "blockhash": "00000000000000000024a2167bbff67b0be802c0b01cdd79e6331c2be6459f87", "vout": [{"scriptPubKey": {"reqSigs": 1, "hex": "76a914d5f9edf56c2e7aaaeb347f75f0e49e255f0d3d3388ac", "addresses": ["1LWQLGXqqiHY2nnacFSe51NwBWwiofFJk8"], "asm": "OP_DUP OP_HASH160 d5f9edf56c2e7aaaeb347f75f0e49e255f0d3d33 OP_EQUALVERIFY OP_CHECKSIG", "type": "pubkeyhash"}, "value": 0.00027156, "n": 0}], "hex": "010000000133834cd844c2eb7fc93f76225e1780cd5a129ab0134612c29edc9d0b1161a14e010000006b483045022100f602bb040498e05ebb17a2f041314618e7a9f2f7d81dce298b613dc73ccef1bd02206ee6f18a4c759b2770d4aa8403b73968debc2c61d7bad56941411b13e788658b0121037d3f4f712c9a866d4529744ff8df83d37dc9f8b8af671175c0e9c5ccc2fe64e0ffffffff01146a0000000000001976a914d5f9edf56c2e7aaaeb347f75f0e49e255f0d3d3388ac00000000", "vin": [{"sequence": 4294967295, "scriptSig": {"hex": "483045022100f602bb040498e05ebb17a2f041314618e7a9f2f7d81dce298b613dc73ccef1bd02206ee6f18a4c759b2770d4aa8403b73968debc2c61d7bad56941411b13e788658b0121037d3f4f712c9a866d4529744ff8df83d37dc9f8b8af671175c0e9c5ccc2fe64e0", "asm": "3045022100f602bb040498e05ebb17a2f041314618e7a9f2f7d81dce298b613dc73ccef1bd02206ee6f18a4c759b2770d4aa8403b73968debc2c61d7bad56941411b13e788658b[ALL] 037d3f4f712c9a866d4529744ff8df83d37dc9f8b8af671175c0e9c5ccc2fe64e0"}, "vout": 1, "txid": "4ea161110b9ddc9ec2124613b09a125acd80175e22763fc97febc244d84c8333"}], "txid": "471cfa32bd701aa455ec1f0be84fcbb7fa288b06c3e05fd52499d12b4d494520", "blocktime": 1537870564, "version": 1, "confirmations": 11515, "time": 1537870564, "locktime": 0, "vsize": 192, "size": 192}