{"hash": "471d7ab7acd429b1a7c199f23b2db24db3aa70268fb246257783dab51ca1ec73", "blockhash": "00000000000000000018f53835495a110e01622372bf6ae95dc86f2b0ab887b0", "vout": [{"scriptPubKey": {"reqSigs": 1, "hex": "a91416fe9d78f5d84e4998d6b377d3ea2a23dc25161687", "addresses": ["33nbojUhMrXEue43wf4T12GEbbdbhLqJQM"], "asm": "OP_HASH160 16fe9d78f5d84e4998d6b377d3ea2a23dc251616 OP_EQUAL", "type": "scripthash"}, "value": 0.406747, "n": 0}], "hex": "010000000195cfcf7eecc7e93430307615208d6dc573f21e05bf9a25b1636c0441759b7ff1010000006a47304402200c685ec60446383a839320a2244a9e246a99c6ccd985db253c7ac65419ff4d1502205784dd868c945bf5033a34dd0c3d47c4756daba4d737fa59e994e94237bf275f01210204fef805209bfde8b667f93afaf0244998765da143d3b03a98e5d992c59d472dffffffff018ca56c020000000017a91416fe9d78f5d84e4998d6b377d3ea2a23dc2516168700000000", "vin": [{"sequence": 4294967295, "scriptSig": {"hex": "47304402200c685ec60446383a839320a2244a9e246a99c6ccd985db253c7ac65419ff4d1502205784dd868c945bf5033a34dd0c3d47c4756daba4d737fa59e994e94237bf275f01210204fef805209bfde8b667f93afaf0244998765da143d3b03a98e5d992c59d472d", "asm": "304402200c685ec60446383a839320a2244a9e246a99c6ccd985db253c7ac65419ff4d1502205784dd868c945bf5033a34dd0c3d47c4756daba4d737fa59e994e94237bf275f[ALL] 0204fef805209bfde8b667f93afaf0244998765da143d3b03a98e5d992c59d472d"}, "vout": 1, "txid": "f17f9b7541046c63b1259abf051ef273c56d8d201576303034e9c7ec7ecfcf95"}], "txid": "471d7ab7acd429b1a7c199f23b2db24db3aa70268fb246257783dab51ca1ec73", "blocktime": 1537870928, "version": 1, "confirmations": 11512, "time": 1537870928, "locktime": 0, "vsize": 189, "size": 189}