{"hash": "47243758791ef373a57bdfa49713e0ab1103f1944cde8a806bee8289af61a337", "blockhash": "0000000000000000000dcc0f55137456b1a82d3642486a52398922ac4d620174", "vout": [{"scriptPubKey": {"reqSigs": 1, "hex": "76a914728e25e676f96b3b26d2055e135682f751c9301588ac", "addresses": ["1BSiKVKFC4GfJBsdJugokNyZKmx3TfBKyD"], "asm": "OP_DUP OP_HASH160 728e25e676f96b3b26d2055e135682f751c93015 OP_EQUALVERIFY OP_CHECKSIG", "type": "pubkeyhash"}, "value": 0.00433071, "n": 0}], "hex": "01000000011870c87b9fdb56fe6e90e9058de3efa6f232f1c267f9c0821e9c143dd3008fb3000000006b483045022100ad90fcdc2a5aeb1f8777324bbd11328a419aca914032f1fef940c92bbc118ab8022076dee975e6c1efcac400b6b520bd15f81e2b3060515edb1ab110a54a358a3dc10121037fe5d39043015020b14a25be9943a042fa36af60eb5b9207ab58349c75ae852affffffff01af9b0600000000001976a914728e25e676f96b3b26d2055e135682f751c9301588ac00000000", "vin": [{"sequence": 4294967295, "scriptSig": {"hex": "483045022100ad90fcdc2a5aeb1f8777324bbd11328a419aca914032f1fef940c92bbc118ab8022076dee975e6c1efcac400b6b520bd15f81e2b3060515edb1ab110a54a358a3dc10121037fe5d39043015020b14a25be9943a042fa36af60eb5b9207ab58349c75ae852a", "asm": "3045022100ad90fcdc2a5aeb1f8777324bbd11328a419aca914032f1fef940c92bbc118ab8022076dee975e6c1efcac400b6b520bd15f81e2b3060515edb1ab110a54a358a3dc1[ALL] 037fe5d39043015020b14a25be9943a042fa36af60eb5b9207ab58349c75ae852a"}, "vout": 0, "txid": "b38f00d33d149c1e82c0f967c2f132f2a6efe38d05e9906efe56db9f7bc87018"}], "txid": "47243758791ef373a57bdfa49713e0ab1103f1944cde8a806bee8289af61a337", "blocktime": 1537870268, "version": 1, "confirmations": 11518, "time": 1537870268, "locktime": 0, "vsize": 192, "size": 192}