{"hash": "4729960213575cbd1c1fd9b62dfa494cd9da9891554400cdbd792cc1a437b99f", "blockhash": "0000000000000000001f76057863aec43deb6fa401d9628bb513d65a8098bfab", "vout": [{"scriptPubKey": {"reqSigs": 1, "hex": "76a9140f48b0cae167e64ecfafae7a1f652f31a3598a5c88ac", "addresses": ["12PpDWVtyDYJ2nU6kqxfYdR2dv4Kwm1VZ4"], "asm": "OP_DUP OP_HASH160 0f48b0cae167e64ecfafae7a1f652f31a3598a5c OP_EQUALVERIFY OP_CHECKSIG", "type": "pubkeyhash"}, "value": 5.378e-05, "n": 0}, {"scriptPubKey": {"reqSigs": 1, "hex": "76a9148cc85b6170e829492f39b1945b30082545cee02988ac", "addresses": ["1DqPcuHw3DXnqXp3tJ9W4aJV7ZeUejLUY5"], "asm": "OP_DUP OP_HASH160 8cc85b6170e829492f39b1945b30082545cee029 OP_EQUALVERIFY OP_CHECKSIG", "type": "pubkeyhash"}, "value": 0.03123379, "n": 1}], "hex": "010000000254bf91350d23e3b25c570d4da3ab7be72a53efc8f1a1f849fae1c2b7f0bba702000000006a4730440220548e53a3eaf7ce54abe2a22bfebedbf0e7a19e0a2084938124782978656fc95b02205126587c700089333b6f08799a4a91b9af37a68c0d955393a9272735a52e3ab3012102d3909fa02f531e8164ebd4f7269814396323aaee853cf4db85bec58a637e2e79ffffffffe2c6c7ff31b17262c92f5f3dfebb79611ae8733b84f2896d10f0ad2187d58594010000006b483045022100951e1585a7e4b70324f15b901b63e91a26c121c49b1f1935772628e7cb2fbf750220069ac05a3dfd52db95434c7bddc8224daf50f8573132e6db3cfca28612ec438a012102d01408f7667b3d2485702686597cad97a2f0bf280ad62b4b8bc9dd016a24084affffffff0202150000000000001976a9140f48b0cae167e64ecfafae7a1f652f31a3598a5c88acb3a82f00000000001976a9148cc85b6170e829492f39b1945b30082545cee02988ac00000000", "vin": [{"sequence": 4294967295, "scriptSig": {"hex": "4730440220548e53a3eaf7ce54abe2a22bfebedbf0e7a19e0a2084938124782978656fc95b02205126587c700089333b6f08799a4a91b9af37a68c0d955393a9272735a52e3ab3012102d3909fa02f531e8164ebd4f7269814396323aaee853cf4db85bec58a637e2e79", "asm": "30440220548e53a3eaf7ce54abe2a22bfebedbf0e7a19e0a2084938124782978656fc95b02205126587c700089333b6f08799a4a91b9af37a68c0d955393a9272735a52e3ab3[ALL] 02d3909fa02f531e8164ebd4f7269814396323aaee853cf4db85bec58a637e2e79"}, "vout": 0, "txid": "02a7bbf0b7c2e1fa49f8a1f1c8ef532ae77baba34d0d575cb2e3230d3591bf54"}, {"sequence": 4294967295, "scriptSig": {"hex": "483045022100951e1585a7e4b70324f15b901b63e91a26c121c49b1f1935772628e7cb2fbf750220069ac05a3dfd52db95434c7bddc8224daf50f8573132e6db3cfca28612ec438a012102d01408f7667b3d2485702686597cad97a2f0bf280ad62b4b8bc9dd016a24084a", "asm": "3045022100951e1585a7e4b70324f15b901b63e91a26c121c49b1f1935772628e7cb2fbf750220069ac05a3dfd52db95434c7bddc8224daf50f8573132e6db3cfca28612ec438a[ALL] 02d01408f7667b3d2485702686597cad97a2f0bf280ad62b4b8bc9dd016a24084a"}, "vout": 1, "txid": "9485d58721adf0106d89f2843b73e81a6179bbfe3d5f2fc96272b131ffc7c6e2"}], "txid": "4729960213575cbd1c1fd9b62dfa494cd9da9891554400cdbd792cc1a437b99f", "blocktime": 1537873891, "version": 1, "confirmations": 11477, "time": 1537873891, "locktime": 0, "vsize": 373, "size": 373}