{"hash": "d30b13381d99ac32530b7ba05c438b099d3e165b534f0dc2b2d51dfc4bdbbf65", "blockhash": "0000000000000000000e13cef7c366c0283d82e591d1acd082e914b08063cdf1", "vout": [{"scriptPubKey": {"reqSigs": 1, "hex": "76a914e2e935237afbbfe00bd99aaa81246024105058c788ac", "addresses": ["1Mgo5uCE8xnPyzaSukNvFp2KYQNQKmaVky"], "asm": "OP_DUP OP_HASH160 e2e935237afbbfe00bd99aaa81246024105058c7 OP_EQUALVERIFY OP_CHECKSIG", "type": "pubkeyhash"}, "value": 0.0026766, "n": 0}, {"scriptPubKey": {"reqSigs": 1, "hex": "a914adfa13a2bde00631ae4bf8da101ec82223d62c1a87", "addresses": ["3HYvQN5iF6k9XVNiMHwnRYP7py4AhE7HiW"], "asm": "OP_HASH160 adfa13a2bde00631ae4bf8da101ec82223d62c1a OP_EQUAL", "type": "scripthash"}, "value": 0.01000036, "n": 1}], "hex": "020000000001024eafa3d0baee7cae39b2333421ee20b43064041ba229b665f1bf00ad4c8793bf0000000017160014bdd90b4fdb403ac01c4ae2b1a24b5c2763888ee6feffffff5fac39f75d58594b9ffc98c2eb4d88dbeec4f507f192d646f80df4b53e62cb9d08000000171600140c5ef1b64d7ab241fc4f5ea2b5dbadefc7213a26feffffff028c150400000000001976a914e2e935237afbbfe00bd99aaa81246024105058c788ac64420f000000000017a914adfa13a2bde00631ae4bf8da101ec82223d62c1a870248304502210091afa2dc9c074cbfbde224f5a1471dd2fbcaee82d344c1b43aa126a32996988402200cc94c9f6cf70597ba39e6875ad4aee0de67428dd1fac6fdc2e240a04e44ff6501210311490b26f782c7d830524c126d92e7cf9dc75a455f3ffbb1628fc2d70c9ec3bc024730440220619ff734f8837ffd29e76658b1d19aaa86e3fb80aa1f85ce06be1337fae6bb04022014061d5abd6d62774183e4b14795c951dbd925f913c53c39db2c7eb36d9293420121029eef92564a39710e74ccb8ce3048668a3f9c3a625c1c15e9e374a945fc4fa79010490800", "vin": [{"txinwitness": ["304502210091afa2dc9c074cbfbde224f5a1471dd2fbcaee82d344c1b43aa126a32996988402200cc94c9f6cf70597ba39e6875ad4aee0de67428dd1fac6fdc2e240a04e44ff6501", "0311490b26f782c7d830524c126d92e7cf9dc75a455f3ffbb1628fc2d70c9ec3bc"], "sequence": 4294967294, "scriptSig": {"hex": "160014bdd90b4fdb403ac01c4ae2b1a24b5c2763888ee6", "asm": "0014bdd90b4fdb403ac01c4ae2b1a24b5c2763888ee6"}, "vout": 0, "txid": "bf93874cad00bff165b629a21b046430b420ee213433b239ae7ceebad0a3af4e"}, {"txinwitness": ["30440220619ff734f8837ffd29e76658b1d19aaa86e3fb80aa1f85ce06be1337fae6bb04022014061d5abd6d62774183e4b14795c951dbd925f913c53c39db2c7eb36d92934201", "029eef92564a39710e74ccb8ce3048668a3f9c3a625c1c15e9e374a945fc4fa790"], "sequence": 4294967294, "scriptSig": {"hex": "1600140c5ef1b64d7ab241fc4f5ea2b5dbadefc7213a26", "asm": "00140c5ef1b64d7ab241fc4f5ea2b5dbadefc7213a26"}, "vout": 8, "txid": "9dcb623eb5f40df846d692f107f5c4eedb884debc298fc9f4b59585df739ac5f"}], "txid": "472c6b33abd8156f529738448cfa6b9291f06955ee9dab3c38cc2e75074a7db2", "blocktime": 1537871767, "version": 2, "confirmations": 11495, "time": 1537871767, "locktime": 542992, "vsize": 259, "size": 421}