{"hash": "472d321ee60bf34d362db6a6b7bc5904f881defe5e0b56dcec39a45c25ac24c4", "blockhash": "0000000000000000001e0dab787dd257d1dbfcb92a98c2207d5e1078be1f4165", "vout": [{"scriptPubKey": {"reqSigs": 1, "hex": "76a91458f32143a95cd11ee5f37e5d1dff6f9fbafa660b88ac", "addresses": ["197Kir2psnjrTFwx8R9cUnmVCUFeUgCNxS"], "asm": "OP_DUP OP_HASH160 58f32143a95cd11ee5f37e5d1dff6f9fbafa660b OP_EQUALVERIFY OP_CHECKSIG", "type": "pubkeyhash"}, "value": 0.91696619, "n": 0}, {"scriptPubKey": {"type": "nulldata", "hex": "6a146f6d6e69000000000000001f000000ae9f7bcc00", "asm": "OP_RETURN 6f6d6e69000000000000001f000000ae9f7bcc00"}, "value": 0.0, "n": 1}, {"scriptPubKey": {"reqSigs": 1, "hex": "76a914b678e8753f4b7cda9eae526cac41b3b629d40c7188ac", "addresses": ["1HdppkZFXBsEJ3NHVebbe4WcD1qxHRMzaf"], "asm": "OP_DUP OP_HASH160 b678e8753f4b7cda9eae526cac41b3b629d40c71 OP_EQUALVERIFY OP_CHECKSIG", "type": "pubkeyhash"}, "value": 5.46e-06, "n": 2}], "hex": "0100000001d1bd3c820aba99f5914fcaff84be57c27e604d63a1379e8dd8dff6936a793cea020000006a47304402200939f5f0494d3e4d21e22fb880375e5282e7d9abcdd9a6038700ef723de6e399022016d3328ee03cee987d70db858ec5202472c7fe62da0b153c4a1a7790d0c5f94101210251e12972b557d5dbac73bfd2470adeac64ac46202389f0ef2db7231f645a0aeafeffffff03eb2d7705000000001976a91458f32143a95cd11ee5f37e5d1dff6f9fbafa660b88ac0000000000000000166a146f6d6e69000000000000001f000000ae9f7bcc0022020000000000001976a914b678e8753f4b7cda9eae526cac41b3b629d40c7188ac11490800", "vin": [{"sequence": 4294967294, "scriptSig": {"hex": "47304402200939f5f0494d3e4d21e22fb880375e5282e7d9abcdd9a6038700ef723de6e399022016d3328ee03cee987d70db858ec5202472c7fe62da0b153c4a1a7790d0c5f94101210251e12972b557d5dbac73bfd2470adeac64ac46202389f0ef2db7231f645a0aea", "asm": "304402200939f5f0494d3e4d21e22fb880375e5282e7d9abcdd9a6038700ef723de6e399022016d3328ee03cee987d70db858ec5202472c7fe62da0b153c4a1a7790d0c5f941[ALL] 0251e12972b557d5dbac73bfd2470adeac64ac46202389f0ef2db7231f645a0aea"}, "vout": 2, "txid": "ea3c796a93f6dfd88d9e37a1634d607ec257be84ffca4f91f599ba0a823cbdd1"}], "txid": "472d321ee60bf34d362db6a6b7bc5904f881defe5e0b56dcec39a45c25ac24c4", "blocktime": 1537872475, "version": 1, "confirmations": 11486, "time": 1537872475, "locktime": 542993, "vsize": 256, "size": 256}