{"hash": "473a4758c08fad21e283b4b1b5b4140d2a8bc973dc399aeb8aa4d42b9af9bf24", "blockhash": "000000000000000000022b45ed06c6f4ccd3cf7fb5ba4856ebd2e58215665228", "vout": [{"scriptPubKey": {"reqSigs": 1, "hex": "76a914a705966614ad0fa82fb12df4598b34068129812b88ac", "addresses": ["1GE8YGBBc4B2QWhEQiVj2Uk2aJBY7VanS4"], "asm": "OP_DUP OP_HASH160 a705966614ad0fa82fb12df4598b34068129812b OP_EQUALVERIFY OP_CHECKSIG", "type": "pubkeyhash"}, "value": 0.16988604, "n": 0}, {"scriptPubKey": {"reqSigs": 1, "hex": "a914114ad8ab32b08536e49ccda05ab3d2777e528c5687", "addresses": ["33GT5DngDt1JbH8fK3XgznhiTfHawQwFgM"], "asm": "OP_HASH160 114ad8ab32b08536e49ccda05ab3d2777e528c56 OP_EQUAL", "type": "scripthash"}, "value": 0.07759, "n": 1}], "hex": "0200000001bb5abde1057b4b8b00a1073b518226671a99c96a6e33b0b133c0ad0731a04f76000000006b483045022100bd571d1c6635d1dfa89dd33c2f4a43705c7f4bdad001b130c7dedbaddf710f2a02207140492022339df8bd828ab8a010358b86abb1d4a97de20a4ca5c1c98a09e313012103292d35c67c194575d921728725a2a7f6d05ddd0ce72327cf73263979e67c19c8feffffff02bc390301000000001976a914a705966614ad0fa82fb12df4598b34068129812b88ac986476000000000017a914114ad8ab32b08536e49ccda05ab3d2777e528c56870b490800", "vin": [{"sequence": 4294967294, "scriptSig": {"hex": "483045022100bd571d1c6635d1dfa89dd33c2f4a43705c7f4bdad001b130c7dedbaddf710f2a02207140492022339df8bd828ab8a010358b86abb1d4a97de20a4ca5c1c98a09e313012103292d35c67c194575d921728725a2a7f6d05ddd0ce72327cf73263979e67c19c8", "asm": "3045022100bd571d1c6635d1dfa89dd33c2f4a43705c7f4bdad001b130c7dedbaddf710f2a02207140492022339df8bd828ab8a010358b86abb1d4a97de20a4ca5c1c98a09e313[ALL] 03292d35c67c194575d921728725a2a7f6d05ddd0ce72327cf73263979e67c19c8"}, "vout": 0, "txid": "764fa03107adc033b1b0336e6ac9991a672682513b07a1008b4b7b05e1bd5abb"}], "txid": "473a4758c08fad21e283b4b1b5b4140d2a8bc973dc399aeb8aa4d42b9af9bf24", "blocktime": 1537869901, "version": 2, "confirmations": 11524, "time": 1537869901, "locktime": 542987, "vsize": 224, "size": 224}