{"hash": "e531466e9272916103a7f3ecad4f4fb03a573000c42c3df9b9b2829b7b6b6ff0", "blockhash": "00000000000000000018f53835495a110e01622372bf6ae95dc86f2b0ab887b0", "vout": [{"scriptPubKey": {"reqSigs": 1, "hex": "76a914658bc2e4001cfacc64a3e041943e921b3086737588ac", "addresses": ["1AFvgAG4FN8fhtp3ZtSF8hsmKvPTDiB4RV"], "asm": "OP_DUP OP_HASH160 658bc2e4001cfacc64a3e041943e921b30867375 OP_EQUALVERIFY OP_CHECKSIG", "type": "pubkeyhash"}, "value": 3.298e-05, "n": 0}, {"scriptPubKey": {"reqSigs": 1, "hex": "a914e8db75c900cf08f06518e96d167331f2a4abfb3387", "addresses": ["3NvFbQMAkkqEFj4i1sYPPLkSWzxTFUchjA"], "asm": "OP_HASH160 e8db75c900cf08f06518e96d167331f2a4abfb33 OP_EQUAL", "type": "scripthash"}, "value": 9.616e-05, "n": 1}], "hex": "01000000000101b44dd63f219dd225d35ca8a7259a80b3428b4c3f5b6c33039f7dd749d5341c9e0100000023220020941cfaff8837763dc1f69ff82b6d6553fdea17a41cfc29a04403293eedd8ccc7ffffffff02e20c0000000000001976a914658bc2e4001cfacc64a3e041943e921b3086737588ac902500000000000017a914e8db75c900cf08f06518e96d167331f2a4abfb33870400483045022100ab15b01d648842cbc8155735248696e6bb338082bd3e8378d4e606388a0d993102203906d42b5b65da12d8c0a4471a156447a241be7df8f67b992182854642ae46e80147304402201e4d827fe103cbdb9c9398b4ec56055850f0b7580ffc4bf3263e6374f6026f0d0220636e1b058d69d356c5fc8df1839b9d86333cbdea0be80b779fd30d1c42b35d330147522102531db3a5883f29bab4241dd0cd726936667bcda445d89bdd22244e828b6993342103148c80a5bdfddb05ff5bcffc397c8ca748d8b435ec6a175bc9d7bfc7fc6f853752ae00000000", "vin": [{"txinwitness": ["", "3045022100ab15b01d648842cbc8155735248696e6bb338082bd3e8378d4e606388a0d993102203906d42b5b65da12d8c0a4471a156447a241be7df8f67b992182854642ae46e801", "304402201e4d827fe103cbdb9c9398b4ec56055850f0b7580ffc4bf3263e6374f6026f0d0220636e1b058d69d356c5fc8df1839b9d86333cbdea0be80b779fd30d1c42b35d3301", "522102531db3a5883f29bab4241dd0cd726936667bcda445d89bdd22244e828b6993342103148c80a5bdfddb05ff5bcffc397c8ca748d8b435ec6a175bc9d7bfc7fc6f853752ae"], "sequence": 4294967295, "scriptSig": {"hex": "220020941cfaff8837763dc1f69ff82b6d6553fdea17a41cfc29a04403293eedd8ccc7", "asm": "0020941cfaff8837763dc1f69ff82b6d6553fdea17a41cfc29a04403293eedd8ccc7"}, "vout": 1, "txid": "9e1c34d549d77d9f03336c5b3f4c8b42b3809a25a7a85cd325d29d213fd64db4"}], "txid": "473d73bc919232f89df6ea350247ca47fcba81da3ee7f8a96dc2311c9c8361ad", "blocktime": 1537870928, "version": 1, "confirmations": 11514, "time": 1537870928, "locktime": 0, "vsize": 208, "size": 373}