{"hash": "473e896c02a4e9379b9e536456e58942145bca7501dc95d74b598e18341a3a38", "blockhash": "0000000000000000000baef3f32e3676a92c3b2e5da21b426e4f302fc371ce76", "vout": [{"scriptPubKey": {"reqSigs": 1, "hex": "a9146bd6169922ac498caebda858f284b0c42a5d0bed87", "addresses": ["3BXChBc8zYiYJzEZ7f8GiUqHb9MtTVqet3"], "asm": "OP_HASH160 6bd6169922ac498caebda858f284b0c42a5d0bed OP_EQUAL", "type": "scripthash"}, "value": 0.00612306, "n": 0}, {"scriptPubKey": {"reqSigs": 1, "hex": "76a914eb4e7a84dc045ecea4334fce8fef32cf404d501e88ac", "addresses": ["1NTBosMVRGh278qkLFdzjSFcvKgZa5f1Hf"], "asm": "OP_DUP OP_HASH160 eb4e7a84dc045ecea4334fce8fef32cf404d501e OP_EQUALVERIFY OP_CHECKSIG", "type": "pubkeyhash"}, "value": 0.00989528, "n": 1}], "hex": "010000000186a13890e5548b5f7c459155b92a500af4d501765722abc06407d63e78d4f753010000006b483045022100c34b0e48dd93b91d48c790565373009b8187cb60ed3226a25c7555747f8023b20220071fd9b269a9948c47033b26260ed0d70d3631cd4434f30f0ffef1a563a3d414012103411643397ad09c20b1a89e2e1dc77825de9d14a94abb2c7175f8c21c5661c6dcfdffffff02d25709000000000017a9146bd6169922ac498caebda858f284b0c42a5d0bed8758190f00000000001976a914eb4e7a84dc045ecea4334fce8fef32cf404d501e88ac17490800", "vin": [{"sequence": 4294967293, "scriptSig": {"hex": "483045022100c34b0e48dd93b91d48c790565373009b8187cb60ed3226a25c7555747f8023b20220071fd9b269a9948c47033b26260ed0d70d3631cd4434f30f0ffef1a563a3d414012103411643397ad09c20b1a89e2e1dc77825de9d14a94abb2c7175f8c21c5661c6dc", "asm": "3045022100c34b0e48dd93b91d48c790565373009b8187cb60ed3226a25c7555747f8023b20220071fd9b269a9948c47033b26260ed0d70d3631cd4434f30f0ffef1a563a3d414[ALL] 03411643397ad09c20b1a89e2e1dc77825de9d14a94abb2c7175f8c21c5661c6dc"}, "vout": 1, "txid": "53f7d4783ed60764c0ab22577601d5f40a502ab95591457c5f8b54e59038a186"}], "txid": "473e896c02a4e9379b9e536456e58942145bca7501dc95d74b598e18341a3a38", "blocktime": 1537876114, "version": 1, "confirmations": 11460, "time": 1537876114, "locktime": 542999, "vsize": 224, "size": 224}