{"hash": "19031a51b62dea1cc1aedcb27e8dc3f135d20f8bfe238bde2a3a240726ebb56c", "blockhash": "0000000000000000000e13cef7c366c0283d82e591d1acd082e914b08063cdf1", "vout": [{"scriptPubKey": {"reqSigs": 1, "hex": "a914e29bd52a03c239b05387d0bd5103970b26b2649d87", "addresses": ["3NMDKLkTTcgy5N7FUSFYHxrUohXrk3yNve"], "asm": "OP_HASH160 e29bd52a03c239b05387d0bd5103970b26b2649d OP_EQUAL", "type": "scripthash"}, "value": 0.00070348, "n": 0}, {"scriptPubKey": {"reqSigs": 1, "hex": "a914a395539c281e64e726a5a87a298a89fd6bd811ab87", "addresses": ["3GbxxCvB19Cbn8As4WmYTJBWqBJ1L33DeQ"], "asm": "OP_HASH160 a395539c281e64e726a5a87a298a89fd6bd811ab OP_EQUAL", "type": "scripthash"}, "value": 0.01165374, "n": 1}], "hex": "020000000001010bdec7225a6ef66ef80cb507541630742f43492e93c5ff4f6541fba9eb4c06b701000000171600141ecb5555e2b6bbefae2aab3dedd51ade98c8987cfeffffff02cc1201000000000017a914e29bd52a03c239b05387d0bd5103970b26b2649d873ec811000000000017a914a395539c281e64e726a5a87a298a89fd6bd811ab8702483045022100b3969ae36b79892d5c0abb6293d991fd070926722c9f48bb2cfc9d0c63e3ccd602201f84b5b71235388fffb8a23ee52caca90d7eff5513346befd3b7fe22eb934d95012102bf6b80853e975f2a9c497589d739817054796181fcf4aa867f0816a517fa2d48c7480800", "vin": [{"txinwitness": ["3045022100b3969ae36b79892d5c0abb6293d991fd070926722c9f48bb2cfc9d0c63e3ccd602201f84b5b71235388fffb8a23ee52caca90d7eff5513346befd3b7fe22eb934d9501", "02bf6b80853e975f2a9c497589d739817054796181fcf4aa867f0816a517fa2d48"], "sequence": 4294967294, "scriptSig": {"hex": "1600141ecb5555e2b6bbefae2aab3dedd51ade98c8987c", "asm": "00141ecb5555e2b6bbefae2aab3dedd51ade98c8987c"}, "vout": 1, "txid": "b7064ceba9fb41654fffc5932e49432f7430165407b50cf86ef66e5a22c7de0b"}], "txid": "4747f6ca4d17079b38569af59f610769921efed41a6d553727229705532630b9", "blocktime": 1537871767, "version": 2, "confirmations": 11495, "time": 1537871767, "locktime": 542919, "vsize": 166, "size": 248}