{"hash": "d7308c3b3c5247adc8fbba5b37e2575d754bea4dbdeec0853cb95ce2e4afa8bd", "blockhash": "000000000000000000022b45ed06c6f4ccd3cf7fb5ba4856ebd2e58215665228", "vout": [{"scriptPubKey": {"reqSigs": 1, "hex": "a914df491c836f4f64b614a445737d7028e8f98ad59c87", "addresses": ["3N3eCBxSxY28s6shm7FivvkejwuvosmurW"], "asm": "OP_HASH160 df491c836f4f64b614a445737d7028e8f98ad59c OP_EQUAL", "type": "scripthash"}, "value": 0.00999887, "n": 0}, {"scriptPubKey": {"reqSigs": 1, "hex": "76a9143c8814cc6e1d220d52c713d787761915fccb3e5488ac", "addresses": ["16X4ZbptRduSA2mWGH2PZsnZXWXCv5spGt"], "asm": "OP_DUP OP_HASH160 3c8814cc6e1d220d52c713d787761915fccb3e54 OP_EQUALVERIFY OP_CHECKSIG", "type": "pubkeyhash"}, "value": 0.0036996, "n": 1}], "hex": "02000000000102929568ca6545521f91f24f793478ec0db546f026a7e580154b00dfdbe0a690700d00000017160014ad4db7d8d3d806d108d08d70906cca192aec7abdfeffffffbc47e5cfad86e1e75e604af658a140a8a59dc2fcddee8e65798a36c519d83cd3000000001716001463cea35e1956b6934a738254769a4b2bdb3ef1ccfeffffff02cf410f000000000017a914df491c836f4f64b614a445737d7028e8f98ad59c8728a50500000000001976a9143c8814cc6e1d220d52c713d787761915fccb3e5488ac02473044022033540747db8b32004eaa156786f4e9f99f09f837eeb49d83d4887cceae990c2602206b799ca9b9a87e0d429e9306c9918cddb3318e9de42ef52b08d666eee1664e530121026ddf91bd2cb5c6b0a038b4e5ea690bac13416b607708ddbea3f95d15683a35b8024730440220260c1852dddc889a70c207c55af17eb28f2f43055f60584a53377d50a788748802205c2cee93b8059dcbea544dc1030b35a8bd87c0efefb60d976070e964e1050f01012103db1eac8b44f7e9281a94277cf99ddefadc6c08edbe4311054822e486c295791609490800", "vin": [{"txinwitness": ["3044022033540747db8b32004eaa156786f4e9f99f09f837eeb49d83d4887cceae990c2602206b799ca9b9a87e0d429e9306c9918cddb3318e9de42ef52b08d666eee1664e5301", "026ddf91bd2cb5c6b0a038b4e5ea690bac13416b607708ddbea3f95d15683a35b8"], "sequence": 4294967294, "scriptSig": {"hex": "160014ad4db7d8d3d806d108d08d70906cca192aec7abd", "asm": "0014ad4db7d8d3d806d108d08d70906cca192aec7abd"}, "vout": 13, "txid": "7090a6e0dbdf004b1580e5a726f046b50dec7834794ff2911f524565ca689592"}, {"txinwitness": ["30440220260c1852dddc889a70c207c55af17eb28f2f43055f60584a53377d50a788748802205c2cee93b8059dcbea544dc1030b35a8bd87c0efefb60d976070e964e1050f0101", "03db1eac8b44f7e9281a94277cf99ddefadc6c08edbe4311054822e486c2957916"], "sequence": 4294967294, "scriptSig": {"hex": "16001463cea35e1956b6934a738254769a4b2bdb3ef1cc", "asm": "001463cea35e1956b6934a738254769a4b2bdb3ef1cc"}, "vout": 0, "txid": "d33cd819c5368a79658eeeddfcc29da5a840a158f64a605ee7e186adcfe547bc"}], "txid": "47484f181356ffefb7714490c97fd23498e89fab940478f808057772dc073a3b", "blocktime": 1537869901, "version": 2, "confirmations": 11524, "time": 1537869901, "locktime": 542985, "vsize": 258, "size": 420}