{"hash": "1fd4964fcd540f633b598b305f5423724e7e8e3bacf042ee7962087dc35f00e5", "blockhash": "0000000000000000000baef3f32e3676a92c3b2e5da21b426e4f302fc371ce76", "vout": [{"scriptPubKey": {"reqSigs": 1, "hex": "a9141d5a1dca3c4a06014e6ab36430478eead8cc4f9387", "addresses": ["34NDUW4HVtA8sTsUWi1FccwJ1JRvcYB8ny"], "asm": "OP_HASH160 1d5a1dca3c4a06014e6ab36430478eead8cc4f93 OP_EQUAL", "type": "scripthash"}, "value": 0.00036841, "n": 0}, {"scriptPubKey": {"reqSigs": 1, "hex": "a91435a60583b429462b6073f8d0aebaf3728b015c7c87", "addresses": ["36agd69rbAoyqAJN3b9JXTXbd6bqnGteis"], "asm": "OP_HASH160 35a60583b429462b6073f8d0aebaf3728b015c7c OP_EQUAL", "type": "scripthash"}, "value": 0.00169504, "n": 1}], "hex": "01000000000101523cc94e8423cc66e1101a29c1095f01a18af67a65987e7d5cda0f31d8fde95a010000002322002039744a2f3510259a53fbe46414508cda472a20a8ad07f4c51b81be30d3d27658ffffffff02e98f00000000000017a9141d5a1dca3c4a06014e6ab36430478eead8cc4f9387209602000000000017a91435a60583b429462b6073f8d0aebaf3728b015c7c870400483045022100f036f7e53bf78dbc56241e653f65153b568f4d7939de8f0b20ab947cb611f813022077d0f275c3dcb06f73aa80f63bcfb1221ad318c276bc929254f3bb0df38f02f80147304402207964731c7f5a4b790d955406045d52ec4d02febc8699bde1bc7ea50c78370fa2022071ec055bfdf4a5966d73c7fde8d9066bb28ab855a6ab026afe48b5a3bf9f95330147522102290fe25cef5d799372634190479f379598790e79f62bfcc07e21a6a1d28781c32103871fc2ca08e6950b38867e8e6a0e94ee625223d3aa0df5c65f414c6d784467e252ae00000000", "vin": [{"txinwitness": ["", "3045022100f036f7e53bf78dbc56241e653f65153b568f4d7939de8f0b20ab947cb611f813022077d0f275c3dcb06f73aa80f63bcfb1221ad318c276bc929254f3bb0df38f02f801", "304402207964731c7f5a4b790d955406045d52ec4d02febc8699bde1bc7ea50c78370fa2022071ec055bfdf4a5966d73c7fde8d9066bb28ab855a6ab026afe48b5a3bf9f953301", "522102290fe25cef5d799372634190479f379598790e79f62bfcc07e21a6a1d28781c32103871fc2ca08e6950b38867e8e6a0e94ee625223d3aa0df5c65f414c6d784467e252ae"], "sequence": 4294967295, "scriptSig": {"hex": "22002039744a2f3510259a53fbe46414508cda472a20a8ad07f4c51b81be30d3d27658", "asm": "002039744a2f3510259a53fbe46414508cda472a20a8ad07f4c51b81be30d3d27658"}, "vout": 1, "txid": "5ae9fdd8310fda5c7d7e98657af68aa1015f09c1291a10e166cc23844ec93c52"}], "txid": "474d3f490421660ee3e9fec5185108ffa2d1260f66b732cc2403466edbdc138c", "blocktime": 1537876114, "version": 1, "confirmations": 11460, "time": 1537876114, "locktime": 0, "vsize": 206, "size": 371}