{"hash": "4751f799c35f8edf1a7f55c4d55c94fd28f76d4b30874f4292324cc562e9433a", "blockhash": "0000000000000000000e13cef7c366c0283d82e591d1acd082e914b08063cdf1", "vout": [{"scriptPubKey": {"reqSigs": 1, "hex": "76a914cb8a2ec1bbe2a0fa85f6c667b9b6b4bb34f1099088ac", "addresses": ["1KZDi3KUSzoHKjr2erb1hV1Qg3G5tJDfMk"], "asm": "OP_DUP OP_HASH160 cb8a2ec1bbe2a0fa85f6c667b9b6b4bb34f10990 OP_EQUALVERIFY OP_CHECKSIG", "type": "pubkeyhash"}, "value": 0.00234294, "n": 0}, {"scriptPubKey": {"reqSigs": 1, "hex": "76a91412c30dba291a34110fe644c305728920129f245a88ac", "addresses": ["12iCq1wSthjbWHkpmTq4AMyZbKUmmCjgWJ"], "asm": "OP_DUP OP_HASH160 12c30dba291a34110fe644c305728920129f245a OP_EQUALVERIFY OP_CHECKSIG", "type": "pubkeyhash"}, "value": 0.01500317, "n": 1}], "hex": "0100000001bbe2010feec00fda6c5a4883797f561b24dfdf215bd69bbb57ecb08a4ca18716010000006b48304502210084de3566d6edc43beca5c81b02c3c8f932a38fbb4e1abbe47f9d4dc52e8df4dd02205284ff4750d3e85b8c58fc363ae42cc26dc3a1491598a581de8e0bf0a24f7b170121036df5756ccc68afcd1926472cf0757012affb2cac89849abde774e8d65f6adb67ffffffff0236930300000000001976a914cb8a2ec1bbe2a0fa85f6c667b9b6b4bb34f1099088ac9de41600000000001976a91412c30dba291a34110fe644c305728920129f245a88ac00000000", "vin": [{"sequence": 4294967295, "scriptSig": {"hex": "48304502210084de3566d6edc43beca5c81b02c3c8f932a38fbb4e1abbe47f9d4dc52e8df4dd02205284ff4750d3e85b8c58fc363ae42cc26dc3a1491598a581de8e0bf0a24f7b170121036df5756ccc68afcd1926472cf0757012affb2cac89849abde774e8d65f6adb67", "asm": "304502210084de3566d6edc43beca5c81b02c3c8f932a38fbb4e1abbe47f9d4dc52e8df4dd02205284ff4750d3e85b8c58fc363ae42cc26dc3a1491598a581de8e0bf0a24f7b17[ALL] 036df5756ccc68afcd1926472cf0757012affb2cac89849abde774e8d65f6adb67"}, "vout": 1, "txid": "1687a14c8ab0ec57bb9bd65b21dfdf241b567f7983485a6cda0fc0ee0f01e2bb"}], "txid": "4751f799c35f8edf1a7f55c4d55c94fd28f76d4b30874f4292324cc562e9433a", "blocktime": 1537871767, "version": 1, "confirmations": 11492, "time": 1537871767, "locktime": 0, "vsize": 226, "size": 226}