{"hash": "47550654b674f2a8d6841f62291cccb114a67aba4ccbeefcb9d080523df9f24c", "blockhash": "00000000000000000017f5eb5941039fbcee6240d03bc1f2f8e35350df66a1d8", "vout": [{"scriptPubKey": {"reqSigs": 1, "hex": "76a9140a6b825daa1b89f8e100ed8eec6d79b592500f4988ac", "addresses": ["1x6YnuBVeeE65dQRZztRWgUPwyBjHCA5g"], "asm": "OP_DUP OP_HASH160 0a6b825daa1b89f8e100ed8eec6d79b592500f49 OP_EQUALVERIFY OP_CHECKSIG", "type": "pubkeyhash"}, "value": 0.44393982, "n": 0}, {"scriptPubKey": {"reqSigs": 1, "hex": "a9146eb296e11f523a1ca403d37bf86c2bdd6d63658f87", "addresses": ["3BnLCFaokKVNJTkd7Byi8iZgR2AKFDe1ZW"], "asm": "OP_HASH160 6eb296e11f523a1ca403d37bf86c2bdd6d63658f OP_EQUAL", "type": "scripthash"}, "value": 5.46e-06, "n": 1}, {"scriptPubKey": {"type": "nulldata", "hex": "6a146f6d6e69000000000000001f000000e8d4a51000", "asm": "OP_RETURN 6f6d6e69000000000000001f000000e8d4a51000"}, "value": 0.0, "n": 2}], "hex": "0100000001f784b1499aba8a9094823509fd2bbb194a1ab4a5e11f217ff54f5cca7ccb9376010000006a473044022078aaae91466937306a6f771dff25257419b43ea87894b59020ded3e7f79b037a0220572c9b4649b9fd8dbca7e7cb5ae3b13630d2c63f25e5a353e4beaa600c0188d0012103fe02b06a6bfd9b5a83e0417430a3235a39a0b4c7973591ca27ac58f6474d9120ffffffff03fe65a502000000001976a9140a6b825daa1b89f8e100ed8eec6d79b592500f4988ac220200000000000017a9146eb296e11f523a1ca403d37bf86c2bdd6d63658f870000000000000000166a146f6d6e69000000000000001f000000e8d4a5100000000000", "vin": [{"sequence": 4294967295, "scriptSig": {"hex": "473044022078aaae91466937306a6f771dff25257419b43ea87894b59020ded3e7f79b037a0220572c9b4649b9fd8dbca7e7cb5ae3b13630d2c63f25e5a353e4beaa600c0188d0012103fe02b06a6bfd9b5a83e0417430a3235a39a0b4c7973591ca27ac58f6474d9120", "asm": "3044022078aaae91466937306a6f771dff25257419b43ea87894b59020ded3e7f79b037a0220572c9b4649b9fd8dbca7e7cb5ae3b13630d2c63f25e5a353e4beaa600c0188d0[ALL] 03fe02b06a6bfd9b5a83e0417430a3235a39a0b4c7973591ca27ac58f6474d9120"}, "vout": 1, "txid": "7693cb7cca5c4ff57f211fe1a5b41a4a19bb2bfd09358294908aba9a49b184f7"}], "txid": "47550654b674f2a8d6841f62291cccb114a67aba4ccbeefcb9d080523df9f24c", "blocktime": 1537874412, "version": 1, "confirmations": 11466, "time": 1537874412, "locktime": 0, "vsize": 254, "size": 254}