{"hash": "475994d5df0ae3ee0d81dc94403bd6592d3275a29e178f6fe58b76b77a33680c", "blockhash": "0000000000000000000e13cef7c366c0283d82e591d1acd082e914b08063cdf1", "vout": [{"scriptPubKey": {"reqSigs": 1, "hex": "76a914e80254e680030fa083b067d8d6d01c511d406e1188ac", "addresses": ["1N9kZWaczEq6cYTNC9S3of7iyj6GkBSs2G"], "asm": "OP_DUP OP_HASH160 e80254e680030fa083b067d8d6d01c511d406e11 OP_EQUALVERIFY OP_CHECKSIG", "type": "pubkeyhash"}, "value": 0.00051482, "n": 0}, {"scriptPubKey": {"reqSigs": 1, "hex": "a914796f163fdd054920639373b3d1b52d7268ee6ae187", "addresses": ["3Cm6mD5ybkzS46QMRebD1BQxSvc9z37gfj"], "asm": "OP_HASH160 796f163fdd054920639373b3d1b52d7268ee6ae1 OP_EQUAL", "type": "scripthash"}, "value": 0.00145003, "n": 1}], "hex": "0100000002e59cbd15ede5ccdb0a1ec0bc26549f7d4d06b1ef914c0dd3613f1cc2fc76ac14010000006b483045022100efccce25ba630fd0ad7a82e1fa715a24bb4038be99199dd2ad56402b0b549ed302200d7f58a4254f019d05efcb50630e3cbabaf800c4e325ed0daa97c7a242a3bab2012102d0a0e158ef58ff2e715ec3734a084952031835711b43be1006c83ba0632ba916ffffffff9b7bb96a5a3eaf66bdbd4fdcf3baa59572352df2467368465917d9ba6b9e7765000000006a47304402205ced50e77db3c192705e2fb621d99062f3cc8659c8eac7f29a481f629503080102200ff5bf09e08f74539d262466fcfb8199ccba32bdd968f66094a0dd22528783a50121031afc52183494fc3cb5ef09e27c367e13c2c284be8d79354168c5d4a25d9b35c0ffffffff021ac90000000000001976a914e80254e680030fa083b067d8d6d01c511d406e1188ac6b3602000000000017a914796f163fdd054920639373b3d1b52d7268ee6ae18700000000", "vin": [{"sequence": 4294967295, "scriptSig": {"hex": "483045022100efccce25ba630fd0ad7a82e1fa715a24bb4038be99199dd2ad56402b0b549ed302200d7f58a4254f019d05efcb50630e3cbabaf800c4e325ed0daa97c7a242a3bab2012102d0a0e158ef58ff2e715ec3734a084952031835711b43be1006c83ba0632ba916", "asm": "3045022100efccce25ba630fd0ad7a82e1fa715a24bb4038be99199dd2ad56402b0b549ed302200d7f58a4254f019d05efcb50630e3cbabaf800c4e325ed0daa97c7a242a3bab2[ALL] 02d0a0e158ef58ff2e715ec3734a084952031835711b43be1006c83ba0632ba916"}, "vout": 1, "txid": "14ac76fcc21c3f61d30d4c91efb1064d7d9f5426bcc01e0adbcce5ed15bd9ce5"}, {"sequence": 4294967295, "scriptSig": {"hex": "47304402205ced50e77db3c192705e2fb621d99062f3cc8659c8eac7f29a481f629503080102200ff5bf09e08f74539d262466fcfb8199ccba32bdd968f66094a0dd22528783a50121031afc52183494fc3cb5ef09e27c367e13c2c284be8d79354168c5d4a25d9b35c0", "asm": "304402205ced50e77db3c192705e2fb621d99062f3cc8659c8eac7f29a481f629503080102200ff5bf09e08f74539d262466fcfb8199ccba32bdd968f66094a0dd22528783a5[ALL] 031afc52183494fc3cb5ef09e27c367e13c2c284be8d79354168c5d4a25d9b35c0"}, "vout": 0, "txid": "65779e6bbad9175946687346f22d357295a5baf3dc4fbdbd66af3e5a6ab97b9b"}], "txid": "475994d5df0ae3ee0d81dc94403bd6592d3275a29e178f6fe58b76b77a33680c", "blocktime": 1537871767, "version": 1, "confirmations": 11495, "time": 1537871767, "locktime": 0, "vsize": 371, "size": 371}