{"hash": "cd97d94be4b2a4798c4e552cc2995bcf20e6df97d42771abb3e60e37ac027ca3", "blockhash": "0000000000000000001cda96e906b7601b7a6fb1a3b62bca570a9e5d8f4b3de1", "vout": [{"scriptPubKey": {"reqSigs": 1, "hex": "76a9142d946e74841b221a2540d4e5d2055e80b90aeef888ac", "addresses": ["15A1DqDnaCWXobziqhgszykMuhiViPbNTE"], "asm": "OP_DUP OP_HASH160 2d946e74841b221a2540d4e5d2055e80b90aeef8 OP_EQUALVERIFY OP_CHECKSIG", "type": "pubkeyhash"}, "value": 0.02390488, "n": 0}, {"scriptPubKey": {"reqSigs": 1, "hex": "001431415502b2c81444630306d268163a830628ad5b", "addresses": ["bc1qx9q42q4jeq2ygccrqmfxs936svrz3t2mr97q06"], "asm": "0 31415502b2c81444630306d268163a830628ad5b", "type": "witness_v0_keyhash"}, "value": 0.00046866, "n": 1}], "hex": "01000000000101fa0f6b8581a849514f43c15d412bba8d9184d8c423b23d3d9bc506cdd0f5be0a0000000000ffffffff02d8792400000000001976a9142d946e74841b221a2540d4e5d2055e80b90aeef888ac12b700000000000016001431415502b2c81444630306d268163a830628ad5b024830450221009cb432511ca38b7b00a7465f5015b676bc68b68f4de2481e9c3839b94cfbfa32022028f674bfdb38c622d53b3bc3f81d0620aef38f6eb818d8e9e87f86696b8328950121035bc8effc118c9714140ef9342376f86b284d24f67f20ac592a1fee0e64caabf500000000", "vin": [{"txinwitness": ["30450221009cb432511ca38b7b00a7465f5015b676bc68b68f4de2481e9c3839b94cfbfa32022028f674bfdb38c622d53b3bc3f81d0620aef38f6eb818d8e9e87f86696b83289501", "035bc8effc118c9714140ef9342376f86b284d24f67f20ac592a1fee0e64caabf5"], "sequence": 4294967295, "scriptSig": {"hex": "", "asm": ""}, "vout": 0, "txid": "0abef5d0cd06c59b3d3db223c4d884918dba2b415dc1434f5149a881856b0ffa"}], "txid": "475c96da3480f2c6c244aee20f3a5229e8ee97cb5af329767c914f3fb0510e27", "blocktime": 1537873282, "version": 1, "confirmations": 11484, "time": 1537873282, "locktime": 0, "vsize": 144, "size": 226}