{"hash": "4767ab61edefd75839efb6ac02299189de1e114db3d8917b9112f3771608643a", "blockhash": "0000000000000000000dcc0f55137456b1a82d3642486a52398922ac4d620174", "vout": [{"scriptPubKey": {"reqSigs": 1, "hex": "a914f7c22437c311657af084fab45ce25f67d0d7b16087", "addresses": ["3QH3Q7TL4kHYaeU3PQ6vfTovSKZfreSHWG"], "asm": "OP_HASH160 f7c22437c311657af084fab45ce25f67d0d7b160 OP_EQUAL", "type": "scripthash"}, "value": 0.00280723, "n": 0}, {"scriptPubKey": {"reqSigs": 1, "hex": "76a914f7bc9b4a54f5289d47ae5449fd398787c58a757488ac", "addresses": ["1PauqzvP75Q61o6a71SzQuhtYN6mXCh9JW"], "asm": "OP_DUP OP_HASH160 f7bc9b4a54f5289d47ae5449fd398787c58a7574 OP_EQUALVERIFY OP_CHECKSIG", "type": "pubkeyhash"}, "value": 0.00285579, "n": 1}], "hex": "0100000001df481d07d7d004d9644eb8d24aaa957f6c347c0cda5fba708569c9d66084d71c010000006a47304402205cd215c708ee4ea377d2a8a787521cd47d521caeeac96ed0c8d1a928f5981bb702207f5be81d86e77b4f2bce1ff6e93fe6c22d0ab2308d2df8be3bc3227f6ef6100e012103cacfe456a7b18a695dca6a7e57ba4ddce57cfc57dfc4a9b4578ef1bbb2c051a2ffffffff02934804000000000017a914f7c22437c311657af084fab45ce25f67d0d7b160878b5b0400000000001976a914f7bc9b4a54f5289d47ae5449fd398787c58a757488ac00000000", "vin": [{"sequence": 4294967295, "scriptSig": {"hex": "47304402205cd215c708ee4ea377d2a8a787521cd47d521caeeac96ed0c8d1a928f5981bb702207f5be81d86e77b4f2bce1ff6e93fe6c22d0ab2308d2df8be3bc3227f6ef6100e012103cacfe456a7b18a695dca6a7e57ba4ddce57cfc57dfc4a9b4578ef1bbb2c051a2", "asm": "304402205cd215c708ee4ea377d2a8a787521cd47d521caeeac96ed0c8d1a928f5981bb702207f5be81d86e77b4f2bce1ff6e93fe6c22d0ab2308d2df8be3bc3227f6ef6100e[ALL] 03cacfe456a7b18a695dca6a7e57ba4ddce57cfc57dfc4a9b4578ef1bbb2c051a2"}, "vout": 1, "txid": "1cd78460d6c9698570ba5fda0c7c346c7f95aa4ad2b84e64d904d0d7071d48df"}], "txid": "4767ab61edefd75839efb6ac02299189de1e114db3d8917b9112f3771608643a", "blocktime": 1537870268, "version": 1, "confirmations": 11518, "time": 1537870268, "locktime": 0, "vsize": 223, "size": 223}