{"hash": "5bd1cffc79eafc4b769c3f0b06eac62e78786b7e8ac48401e0fa16359857b6f3", "blockhash": "0000000000000000000baef3f32e3676a92c3b2e5da21b426e4f302fc371ce76", "vout": [{"scriptPubKey": {"reqSigs": 1, "hex": "76a91485db7cab769f93a69785c13cc1e0df51be1f9d8b88ac", "addresses": ["1DCmojk8DoVM3CmvYCzyJbGfcHzZstF2vU"], "asm": "OP_DUP OP_HASH160 85db7cab769f93a69785c13cc1e0df51be1f9d8b OP_EQUALVERIFY OP_CHECKSIG", "type": "pubkeyhash"}, "value": 2.294e-05, "n": 0}, {"scriptPubKey": {"reqSigs": 1, "hex": "a9145fd6ccf3fa4f5e40b590aac3f24664f0653a71dc87", "addresses": ["3ARmSNhAYCtKywjSMAxYdagMtKiGcdVuY2"], "asm": "OP_HASH160 5fd6ccf3fa4f5e40b590aac3f24664f0653a71dc OP_EQUAL", "type": "scripthash"}, "value": 0.00216605, "n": 1}], "hex": "01000000000101c281b0b383d60a66492c75229a2d572c28347bc8944c1145ede267599342ee0401000000232200206594052309991fbaf27880f6c24f3eaa8cdd7edacf1bc50579894b9e3fe7faccffffffff02f6080000000000001976a91485db7cab769f93a69785c13cc1e0df51be1f9d8b88ac1d4e03000000000017a9145fd6ccf3fa4f5e40b590aac3f24664f0653a71dc87040048304502210087f8bfc8672f6b8df2d28c225517efe604f68864e282782f641843d4e42855ff0220444a821db16c36c4a4ebe505ca8d1c3383480101cdad1ba13c6514eb0167104801473044022015406aa1b57a5808e15d65f2261e60bed25c0e60c88622702dd5a20278ce2c5402201fb2ee91d3c6b936f455df375b064d8989cfa1ef72f2f6b82d425ea786f324d40147522102762a59cc11c9e209028b4fdb72709e323a3db710158b03d150a252f3d53009582103148c80a5bdfddb05ff5bcffc397c8ca748d8b435ec6a175bc9d7bfc7fc6f853752ae00000000", "vin": [{"txinwitness": ["", "304502210087f8bfc8672f6b8df2d28c225517efe604f68864e282782f641843d4e42855ff0220444a821db16c36c4a4ebe505ca8d1c3383480101cdad1ba13c6514eb0167104801", "3044022015406aa1b57a5808e15d65f2261e60bed25c0e60c88622702dd5a20278ce2c5402201fb2ee91d3c6b936f455df375b064d8989cfa1ef72f2f6b82d425ea786f324d401", "522102762a59cc11c9e209028b4fdb72709e323a3db710158b03d150a252f3d53009582103148c80a5bdfddb05ff5bcffc397c8ca748d8b435ec6a175bc9d7bfc7fc6f853752ae"], "sequence": 4294967295, "scriptSig": {"hex": "2200206594052309991fbaf27880f6c24f3eaa8cdd7edacf1bc50579894b9e3fe7facc", "asm": "00206594052309991fbaf27880f6c24f3eaa8cdd7edacf1bc50579894b9e3fe7facc"}, "vout": 1, "txid": "04ee42935967e2ed45114c94c87b34282c572d9a22752c49660ad683b3b081c2"}], "txid": "477316aa7116e4de443418c343e18a1adb980fc005f6226266e044ae437f6b77", "blocktime": 1537876114, "version": 1, "confirmations": 11462, "time": 1537876114, "locktime": 0, "vsize": 208, "size": 373}