{"hash": "2d7f2b665042f08194b1185755499b5c6daec3ad4f7d45040eee0d2b0d1d4e12", "blockhash": "0000000000000000001f76057863aec43deb6fa401d9628bb513d65a8098bfab", "vout": [{"scriptPubKey": {"reqSigs": 1, "hex": "76a914b123541463a203c430648da2da01d8223766ad4388ac", "addresses": ["1H9cvcmn1aRKeNxFwEbjmW4BSLNb5vYb6K"], "asm": "OP_DUP OP_HASH160 b123541463a203c430648da2da01d8223766ad43 OP_EQUALVERIFY OP_CHECKSIG", "type": "pubkeyhash"}, "value": 1.548, "n": 0}, {"scriptPubKey": {"reqSigs": 1, "hex": "a91475bd368c3f6c7e7e4922451b096dfa7ec9ca5c7487", "addresses": ["3CRZek3m5sBXmVG2E8nnpF9WgjKxbvPTE4"], "asm": "OP_HASH160 75bd368c3f6c7e7e4922451b096dfa7ec9ca5c74 OP_EQUAL", "type": "scripthash"}, "value": 0.0007424, "n": 1}], "hex": "02000000000102a74fe20cbf728e32070908d86982566f947c37e7f27b4b96f624678f23fc75eb0100000017160014e8dd053256441cbd1f0ae269d2ed23cb4778b2a8ffffffff17696829330fde18ee2f75e6269e871669b09d76e5ab82797f940c6c14bb10020300000017160014fdb19c446adb4b74ff6df4284133d09a548b88baffffffff02800f3a09000000001976a914b123541463a203c430648da2da01d8223766ad4388ac002201000000000017a91475bd368c3f6c7e7e4922451b096dfa7ec9ca5c74870248304502210088347b1769001fa2d9f77dc400f2740075de337a4a60e2863f8e272c6b085bc702203466ba5c4ce21dc5064a905c5b62df2e06a2eae3a99fda2a9b7adf5e6fbd773801210370ad94a1f2da385607ddfd20b964e5a494f4bd5f93f2cd25cc010ba5611732b50247304402201761957a4360c2f2eac3baaacb4d43bbe5ab34a8ffd72deb4b173659937a81b502200b236bafddeacb1b313207989c145ff12485b73b169a0b25c6ae3899b14592320121026ad75370db10720132e5e0e7e42b9ac41679573b955a44863f0590f70ee29d2300000000", "vin": [{"txinwitness": ["304502210088347b1769001fa2d9f77dc400f2740075de337a4a60e2863f8e272c6b085bc702203466ba5c4ce21dc5064a905c5b62df2e06a2eae3a99fda2a9b7adf5e6fbd773801", "0370ad94a1f2da385607ddfd20b964e5a494f4bd5f93f2cd25cc010ba5611732b5"], "sequence": 4294967295, "scriptSig": {"hex": "160014e8dd053256441cbd1f0ae269d2ed23cb4778b2a8", "asm": "0014e8dd053256441cbd1f0ae269d2ed23cb4778b2a8"}, "vout": 1, "txid": "eb75fc238f6724f6964b7bf2e7377c946f568269d8080907328e72bf0ce24fa7"}, {"txinwitness": ["304402201761957a4360c2f2eac3baaacb4d43bbe5ab34a8ffd72deb4b173659937a81b502200b236bafddeacb1b313207989c145ff12485b73b169a0b25c6ae3899b145923201", "026ad75370db10720132e5e0e7e42b9ac41679573b955a44863f0590f70ee29d23"], "sequence": 4294967295, "scriptSig": {"hex": "160014fdb19c446adb4b74ff6df4284133d09a548b88ba", "asm": "0014fdb19c446adb4b74ff6df4284133d09a548b88ba"}, "vout": 3, "txid": "0210bb146c0c947f7982abe5769db06916879e26e6752fee18de0f3329686917"}], "txid": "47735af03cab14c0c6a4894b971a400d1971d49420f803a778f4c81a37d3f533", "blocktime": 1537873891, "version": 2, "confirmations": 11474, "time": 1537873891, "locktime": 0, "vsize": 259, "size": 421}