{"hash": "47779f1768e9e4eb8b0b4ebdd2a491b5d5c5fef6b5f5a2ef2f35598e725232df", "blockhash": "0000000000000000000dcc0f55137456b1a82d3642486a52398922ac4d620174", "vout": [{"scriptPubKey": {"reqSigs": 1, "hex": "76a914f3ce93f7c420cdb9666d356178ffa84259438b4188ac", "addresses": ["1PE8fuYAu4MJEccQ6YrBwBufAdAP8EPycJ"], "asm": "OP_DUP OP_HASH160 f3ce93f7c420cdb9666d356178ffa84259438b41 OP_EQUALVERIFY OP_CHECKSIG", "type": "pubkeyhash"}, "value": 0.00647344, "n": 0}, {"scriptPubKey": {"type": "nulldata", "hex": "6a4c500000777100019fbb6c1945afd4bd7a07a7d486aeaeacb577c031fc3a016b46dc7dc7d096d57b0044fceeaf2ace887a27c80c775a5baa090606140e7084a7707d1d100759d4ba30d2c37bb011d97e02cf", "asm": "OP_RETURN 0000777100019fbb6c1945afd4bd7a07a7d486aeaeacb577c031fc3a016b46dc7dc7d096d57b0044fceeaf2ace887a27c80c775a5baa090606140e7084a7707d1d100759d4ba30d2c37bb011d97e02cf"}, "value": 0.0, "n": 1}], "hex": "0100000001f04688e2973c01d388700e94b666147e1c8d29e3e4be1017f833b4bf6b1638be010000006a47304402205501520e2a055d48bb47880e6cbe2707abc93a59941a9078f0a34f3aa4c3d68402205adadeb7732009d6f7d2334a4b7a51f2eeb0b0eed7ee0b7c72e8dc0adbd1631e012102c80f6bf7410991536c662a454e60784356af52f5c43e5fa1400e805e84c9cda1ffffffff02b0e00900000000001976a914f3ce93f7c420cdb9666d356178ffa84259438b4188ac0000000000000000536a4c500000777100019fbb6c1945afd4bd7a07a7d486aeaeacb577c031fc3a016b46dc7dc7d096d57b0044fceeaf2ace887a27c80c775a5baa090606140e7084a7707d1d100759d4ba30d2c37bb011d97e02cf00000000", "vin": [{"sequence": 4294967295, "scriptSig": {"hex": "47304402205501520e2a055d48bb47880e6cbe2707abc93a59941a9078f0a34f3aa4c3d68402205adadeb7732009d6f7d2334a4b7a51f2eeb0b0eed7ee0b7c72e8dc0adbd1631e012102c80f6bf7410991536c662a454e60784356af52f5c43e5fa1400e805e84c9cda1", "asm": "304402205501520e2a055d48bb47880e6cbe2707abc93a59941a9078f0a34f3aa4c3d68402205adadeb7732009d6f7d2334a4b7a51f2eeb0b0eed7ee0b7c72e8dc0adbd1631e[ALL] 02c80f6bf7410991536c662a454e60784356af52f5c43e5fa1400e805e84c9cda1"}, "vout": 1, "txid": "be38166bbfb433f81710bee4e3298d1c7e1466b6940e7088d3013c97e28846f0"}], "txid": "47779f1768e9e4eb8b0b4ebdd2a491b5d5c5fef6b5f5a2ef2f35598e725232df", "blocktime": 1537870268, "version": 1, "confirmations": 11518, "time": 1537870268, "locktime": 0, "vsize": 283, "size": 283}