{"hash": "477a0612b498617284789ec0bd8738dcfb6357470b4e883bb62ad21bc524c9bd", "blockhash": "0000000000000000001cda96e906b7601b7a6fb1a3b62bca570a9e5d8f4b3de1", "vout": [{"scriptPubKey": {"reqSigs": 1, "hex": "76a9146e2b7530e3859ba66a64af5a47f29068fd1a1a2988ac", "addresses": ["1B3XPbqZo5AKe3QX5cFWCQc52w6HFmVTTC"], "asm": "OP_DUP OP_HASH160 6e2b7530e3859ba66a64af5a47f29068fd1a1a29 OP_EQUALVERIFY OP_CHECKSIG", "type": "pubkeyhash"}, "value": 0.00487634, "n": 0}, {"scriptPubKey": {"reqSigs": 1, "hex": "76a91420a7c7ff9427005a4887b0620ab11609367e5bc088ac", "addresses": ["13yfcnTXqvQrtivxBkxtaywDuskHpSSNF7"], "asm": "OP_DUP OP_HASH160 20a7c7ff9427005a4887b0620ab11609367e5bc0 OP_EQUALVERIFY OP_CHECKSIG", "type": "pubkeyhash"}, "value": 0.00982476, "n": 1}], "hex": "0100000001b174ffceaaa33f589cb8338edb138437a531ca27161a6d733cd26d976bc117b8010000006b483045022100c2899ff6ee03f0bd26973c4f3dfaeb7ec6aa851216e89fc76887dd16320819d80220182f4c4b741781e9d1762ad3c370f04cebc396d5cd750037702437806414fb790121034656060442f05fbc364dbe8c7b88bb2df78cb7f7057ea6790ca9181dc3283b0effffffff02d2700700000000001976a9146e2b7530e3859ba66a64af5a47f29068fd1a1a2988acccfd0e00000000001976a91420a7c7ff9427005a4887b0620ab11609367e5bc088ac00000000", "vin": [{"sequence": 4294967295, "scriptSig": {"hex": "483045022100c2899ff6ee03f0bd26973c4f3dfaeb7ec6aa851216e89fc76887dd16320819d80220182f4c4b741781e9d1762ad3c370f04cebc396d5cd750037702437806414fb790121034656060442f05fbc364dbe8c7b88bb2df78cb7f7057ea6790ca9181dc3283b0e", "asm": "3045022100c2899ff6ee03f0bd26973c4f3dfaeb7ec6aa851216e89fc76887dd16320819d80220182f4c4b741781e9d1762ad3c370f04cebc396d5cd750037702437806414fb79[ALL] 034656060442f05fbc364dbe8c7b88bb2df78cb7f7057ea6790ca9181dc3283b0e"}, "vout": 1, "txid": "b817c16b976dd23c736d1a1627ca31a5378413db8e33b89c583fa3aaceff74b1"}], "txid": "477a0612b498617284789ec0bd8738dcfb6357470b4e883bb62ad21bc524c9bd", "blocktime": 1537873282, "version": 1, "confirmations": 11482, "time": 1537873282, "locktime": 0, "vsize": 226, "size": 226}