{"hash": "2bfec85053893a5418f3b38ba9052b4d16c1e06885afa40ccd8601549599d079", "blockhash": "0000000000000000001e0dab787dd257d1dbfcb92a98c2207d5e1078be1f4165", "vout": [{"scriptPubKey": {"reqSigs": 1, "hex": "0014a28901a3a4e7fae1e5c0ae36461dde06df2d4631", "addresses": ["bc1q52ysrgayulawrewq4cmyv8w7qm0j6333pje3zh"], "asm": "0 a28901a3a4e7fae1e5c0ae36461dde06df2d4631", "type": "witness_v0_keyhash"}, "value": 1.521e-05, "n": 0}, {"scriptPubKey": {"reqSigs": 1, "hex": "a91483238afcdcfd0955e60c1339948e1fd7d199e25587", "addresses": ["3DeR2EpApQSCfho8RPj3oLetKeDMU598FY"], "asm": "OP_HASH160 83238afcdcfd0955e60c1339948e1fd7d199e255 OP_EQUAL", "type": "scripthash"}, "value": 0.0004, "n": 1}], "hex": "0100000000010144ff817efaaecbeb73de3335fed1db6d788261cd9173c9fab915eeead80ad6590100000000ffffffff02f105000000000000160014a28901a3a4e7fae1e5c0ae36461dde06df2d4631409c00000000000017a91483238afcdcfd0955e60c1339948e1fd7d199e255870247304402204210c332093bbc04c7108ea0b27790370405d18e36cbc4ba3e87670886cdb5b502203b8894256c477b013a32bf21f6a564ebb7a1c0784c916bc2a9e35e7f7d17842e0121037972325b738cc17d5946b9c5334cc6a5dc85b034b812b338185dc3cab06e9fe100000000", "vin": [{"txinwitness": ["304402204210c332093bbc04c7108ea0b27790370405d18e36cbc4ba3e87670886cdb5b502203b8894256c477b013a32bf21f6a564ebb7a1c0784c916bc2a9e35e7f7d17842e01", "037972325b738cc17d5946b9c5334cc6a5dc85b034b812b338185dc3cab06e9fe1"], "sequence": 4294967295, "scriptSig": {"hex": "", "asm": ""}, "vout": 1, "txid": "59d60ad8eaee15b9fac97391cd6182786ddbd1fe3533de73ebcbaefa7e81ff44"}], "txid": "477ab0431d02c6416971db525d60baac1e9ef0fedb5e85595d370fcdf2ff3171", "blocktime": 1537872475, "version": 1, "confirmations": 11486, "time": 1537872475, "locktime": 0, "vsize": 142, "size": 223}