{"hash": "080dc4880afa97fa39f3d0fbd10285f600ab036bb90feab4d770cc3028f162da", "blockhash": "0000000000000000001f76057863aec43deb6fa401d9628bb513d65a8098bfab", "vout": [{"scriptPubKey": {"reqSigs": 1, "hex": "00141c91d0aaf749f312834f411702d7de4e9f9aa120", "addresses": ["bc1qrjgap2hhf8e39q60gyts9477f60e4gfq20gk06"], "asm": "0 1c91d0aaf749f312834f411702d7de4e9f9aa120", "type": "witness_v0_keyhash"}, "value": 0.01431131, "n": 0}, {"scriptPubKey": {"reqSigs": 1, "hex": "a914f6ed64dab5dd4085e885b59f95f9312ba2faabf287", "addresses": ["3QCeY9z2qLUGGTCaGaBLdoRsP2iKdQAwZb"], "asm": "OP_HASH160 f6ed64dab5dd4085e885b59f95f9312ba2faabf2 OP_EQUAL", "type": "scripthash"}, "value": 0.02345156, "n": 1}], "hex": "01000000000101f8675a2e8ba76437f373c2b0104faf0d9f8442476ee4ea40ac740ca86a317c840000000000ffffffff025bd61500000000001600141c91d0aaf749f312834f411702d7de4e9f9aa120c4c823000000000017a914f6ed64dab5dd4085e885b59f95f9312ba2faabf28702483045022100a52d814fbf22a4821b23ac0ad6d551e5965ff69d4db6c04d9bebb6c4f30522090220176c6678450dc7e017a3e7475aee4a483875795b4cf0dc34e547af6de55f33c8012103d34522e0a99045f08b472f9df56059c1a176bc0cc3a14fb16ad3834febab61b800000000", "vin": [{"txinwitness": ["3045022100a52d814fbf22a4821b23ac0ad6d551e5965ff69d4db6c04d9bebb6c4f30522090220176c6678450dc7e017a3e7475aee4a483875795b4cf0dc34e547af6de55f33c801", "03d34522e0a99045f08b472f9df56059c1a176bc0cc3a14fb16ad3834febab61b8"], "sequence": 4294967295, "scriptSig": {"hex": "", "asm": ""}, "vout": 0, "txid": "847c316aa80c74ac40eae46e4742849f0daf4f10b0c273f33764a78b2e5a67f8"}], "txid": "4796174e0cbd4f4ed58da9d712a2a55aac0fcd6099260af4dd64ce0b25fd58cc", "blocktime": 1537873891, "version": 1, "confirmations": 11478, "time": 1537873891, "locktime": 0, "vsize": 142, "size": 224}