{"hash": "03bb16195eb1f64dd91fc578706865efdf2dcfb93d21c0b6002a1dedbb21d1cf", "blockhash": "0000000000000000000e13cef7c366c0283d82e591d1acd082e914b08063cdf1", "vout": [{"scriptPubKey": {"reqSigs": 1, "hex": "a9143d360ecf042438d0b85379897b820152f1223fd187", "addresses": ["37GfuFUfLi9gDvYpRvAFWSZSUdQSH6JPZ6"], "asm": "OP_HASH160 3d360ecf042438d0b85379897b820152f1223fd1 OP_EQUAL", "type": "scripthash"}, "value": 0.00106353, "n": 0}, {"scriptPubKey": {"reqSigs": 1, "hex": "a91483bc06d11dbe23fa9e63307905c676a3f84eafa187", "addresses": ["3DhZgzXjK95f2FystYpcuRLGAeherhYZMa"], "asm": "OP_HASH160 83bc06d11dbe23fa9e63307905c676a3f84eafa1 OP_EQUAL", "type": "scripthash"}, "value": 0.00015, "n": 1}], "hex": "0100000000010117cf6589e423cef1d831f4e35fb6d3e66a5b5b1db1f8d071492161546f99bce0030000002322002051f6c2c4aed03b72234f3eba99e9520fd013dbf1eb7607f02a5d982a5965ecfcffffffff02719f01000000000017a9143d360ecf042438d0b85379897b820152f1223fd187983a00000000000017a91483bc06d11dbe23fa9e63307905c676a3f84eafa1870400483045022100bf3ef1ee49a89363e4d7f0686d70ba1bae344b2382e0858c6cda93ac01a2f18702203584cda51fed26d48b0602db3de1b885a5ea8d4cb916c81f4aff8f2740a2833901483045022100bc2a756b1f58923ed2667fe78ed6c183d0a8b3ecf0a8f180b5d46e26d4cdb82102200bf3903452ebd1785e49b99c1a152b4a52881d1ab6a36736adf4899206da30a40169522102829ed6630b27b840129fa854a5605786369ed76315b458d37d9989f44c10f71321033616ef6fcd717a552f6ea4e04a2798c41267ecc4c8dac8bc45829635ecb36f092102b4ba2b24a8b75a4527c81b88cc522e07627fc2a86934a1731278ce1d350cdfda53ae00000000", "vin": [{"txinwitness": ["", "3045022100bf3ef1ee49a89363e4d7f0686d70ba1bae344b2382e0858c6cda93ac01a2f18702203584cda51fed26d48b0602db3de1b885a5ea8d4cb916c81f4aff8f2740a2833901", "3045022100bc2a756b1f58923ed2667fe78ed6c183d0a8b3ecf0a8f180b5d46e26d4cdb82102200bf3903452ebd1785e49b99c1a152b4a52881d1ab6a36736adf4899206da30a401", "522102829ed6630b27b840129fa854a5605786369ed76315b458d37d9989f44c10f71321033616ef6fcd717a552f6ea4e04a2798c41267ecc4c8dac8bc45829635ecb36f092102b4ba2b24a8b75a4527c81b88cc522e07627fc2a86934a1731278ce1d350cdfda53ae"], "sequence": 4294967295, "scriptSig": {"hex": "22002051f6c2c4aed03b72234f3eba99e9520fd013dbf1eb7607f02a5d982a5965ecfc", "asm": "002051f6c2c4aed03b72234f3eba99e9520fd013dbf1eb7607f02a5d982a5965ecfc"}, "vout": 3, "txid": "e0bc996f5461214971d0f8b11d5b5b6ae6d3b65fe3f431d8f1ce23e48965cf17"}], "txid": "479a40a87bb3f14e4f54ad34100d68e3f8cc00b1c1128d181185ad66ec3917ab", "blocktime": 1537871767, "version": 1, "confirmations": 11495, "time": 1537871767, "locktime": 0, "vsize": 214, "size": 406}