{"hash": "35fb50aa40b4b3de62acc36343bc40084dadd0e5a93968189c580f72f8d03cf4", "blockhash": "00000000000000000004ffacab907a6b429b9a5745fa0b75af4234bf69dd7176", "vout": [{"scriptPubKey": {"reqSigs": 1, "hex": "a91474bb4276db6650b83b14be2059c351146bb46dbb87", "addresses": ["3CLEdpgqXKWzFnELHjpVGqPUCe3gWX9V5d"], "asm": "OP_HASH160 74bb4276db6650b83b14be2059c351146bb46dbb OP_EQUAL", "type": "scripthash"}, "value": 0.00124997, "n": 0}, {"scriptPubKey": {"reqSigs": 1, "hex": "a9141988a27e3c2df4ddee7fad5a2303d086179b2a3087", "addresses": ["3422VtS7UtCvXYxoXMVp6eZupR252z85oC"], "asm": "OP_HASH160 1988a27e3c2df4ddee7fad5a2303d086179b2a30 OP_EQUAL", "type": "scripthash"}, "value": 1.45449414, "n": 1}], "hex": "01000000000101c1acf450606584feb8922ef5bc536dd51e375badc543f14648d5ffeee533778c010000002322002065d416c48a8072e0ac51c2d111eb194f009caef0332446c1bf2097316cf07fa9ffffffff0245e801000000000017a91474bb4276db6650b83b14be2059c351146bb46dbb87c661ab080000000017a9141988a27e3c2df4ddee7fad5a2303d086179b2a3087040047304402203b580690f39b61537d925417fc9b5225f8cc53e69b886ee800e0485f8dfe9abc02200eb119f20231a75d79e21be2c8d30a7bb33c91521058329d815b40c2d53b77c00147304402205777b8f59a6d6da8ca954bdeef0c0bb1ffea7e25056ddf63d7f67682f2ff3957022019aed84a1f4bea4bb6210397b1230f089e8f8fdd125ccd7709d58386c8bf6cb60169522102f44abcf9e23c9a460da309ccca56c619c04eed3bde2c2cff5e7d78fbcd980b9c2103c9443cf3047bb6c2c82f1b0c44c36109cdc3d0d601d16d1189a1602bf8d1a0a02103bfe867059274412412e088af5572b92168c2ef495cfe6c9b7a753a009eb37c4853ae00000000", "vin": [{"txinwitness": ["", "304402203b580690f39b61537d925417fc9b5225f8cc53e69b886ee800e0485f8dfe9abc02200eb119f20231a75d79e21be2c8d30a7bb33c91521058329d815b40c2d53b77c001", "304402205777b8f59a6d6da8ca954bdeef0c0bb1ffea7e25056ddf63d7f67682f2ff3957022019aed84a1f4bea4bb6210397b1230f089e8f8fdd125ccd7709d58386c8bf6cb601", "522102f44abcf9e23c9a460da309ccca56c619c04eed3bde2c2cff5e7d78fbcd980b9c2103c9443cf3047bb6c2c82f1b0c44c36109cdc3d0d601d16d1189a1602bf8d1a0a02103bfe867059274412412e088af5572b92168c2ef495cfe6c9b7a753a009eb37c4853ae"], "sequence": 4294967295, "scriptSig": {"hex": "22002065d416c48a8072e0ac51c2d111eb194f009caef0332446c1bf2097316cf07fa9", "asm": "002065d416c48a8072e0ac51c2d111eb194f009caef0332446c1bf2097316cf07fa9"}, "vout": 1, "txid": "8c7733e5eeffd54846f143c5ad5b371ed56d53bcf52e92b8fe84656050f4acc1"}], "txid": "479e02a1b87c674434e7642e77577d55493651ccf2d5a823389988086d462aa2", "blocktime": 1537875543, "version": 1, "confirmations": 11464, "time": 1537875543, "locktime": 0, "vsize": 214, "size": 404}