{"hash": "47a2ecc8110ef9169a8eb01435149af9301a6cbc3311066a3332f89e00e9352d", "blockhash": "0000000000000000001cda96e906b7601b7a6fb1a3b62bca570a9e5d8f4b3de1", "vout": [{"scriptPubKey": {"reqSigs": 1, "hex": "76a9149d6f95e7dc06f6d100777ed65a1b440f5862c1f288ac", "addresses": ["1FMSmDgWVmBPYw8tCmEfqrNPaGMV7kRqV7"], "asm": "OP_DUP OP_HASH160 9d6f95e7dc06f6d100777ed65a1b440f5862c1f2 OP_EQUALVERIFY OP_CHECKSIG", "type": "pubkeyhash"}, "value": 0.01001, "n": 0}, {"scriptPubKey": {"reqSigs": 1, "hex": "a914e370231feecbfc25e2e2423a5a79bf79bfdca59887", "addresses": ["3NRbeX3vD5VaVE4TDU9ivCDsEf7NPPte6J"], "asm": "OP_HASH160 e370231feecbfc25e2e2423a5a79bf79bfdca598 OP_EQUAL", "type": "scripthash"}, "value": 0.49274806, "n": 1}], "hex": "01000000015c582b6c95d164d0dbbd87f850197d580527513b4c2bf2afbd1044ad9c2b776201000000d9004730440220283d52a31b07dc9c0520e90dd0e7e61f788d21676385077064fa614d01b2beac022033b781570acb246072a7146986465d7d1ec8dccba2c976c0355a83ae89168ffa014730440220078f099ad642390937f07e57358efd6e4bfa482e9a646581035bc0f96b98232c02207852ffd3bf2b1dce52cfeabacd6e20d685b4662424acbc41d54e43696720afff014752210327881b6abce6535553a3ce21fad12a7d74fd237ce7c4cd270a267162344e3082210256141f8eb687f5a68c5cc65054652dc25116fa285e44d72b44368827ffe77d9a52aeffffffff0228460f00000000001976a9149d6f95e7dc06f6d100777ed65a1b440f5862c1f288acb6dfef020000000017a914e370231feecbfc25e2e2423a5a79bf79bfdca5988700000000", "vin": [{"sequence": 4294967295, "scriptSig": {"hex": "004730440220283d52a31b07dc9c0520e90dd0e7e61f788d21676385077064fa614d01b2beac022033b781570acb246072a7146986465d7d1ec8dccba2c976c0355a83ae89168ffa014730440220078f099ad642390937f07e57358efd6e4bfa482e9a646581035bc0f96b98232c02207852ffd3bf2b1dce52cfeabacd6e20d685b4662424acbc41d54e43696720afff014752210327881b6abce6535553a3ce21fad12a7d74fd237ce7c4cd270a267162344e3082210256141f8eb687f5a68c5cc65054652dc25116fa285e44d72b44368827ffe77d9a52ae", "asm": "0 30440220283d52a31b07dc9c0520e90dd0e7e61f788d21676385077064fa614d01b2beac022033b781570acb246072a7146986465d7d1ec8dccba2c976c0355a83ae89168ffa[ALL] 30440220078f099ad642390937f07e57358efd6e4bfa482e9a646581035bc0f96b98232c02207852ffd3bf2b1dce52cfeabacd6e20d685b4662424acbc41d54e43696720afff[ALL] 52210327881b6abce6535553a3ce21fad12a7d74fd237ce7c4cd270a267162344e3082210256141f8eb687f5a68c5cc65054652dc25116fa285e44d72b44368827ffe77d9a52ae"}, "vout": 1, "txid": "62772b9cad4410bdaff22b4c3b512705587d1950f887bddbd064d1956c2b585c"}], "txid": "47a2ecc8110ef9169a8eb01435149af9301a6cbc3311066a3332f89e00e9352d", "blocktime": 1537873282, "version": 1, "confirmations": 11484, "time": 1537873282, "locktime": 0, "vsize": 334, "size": 334}