{"hash": "47a86842a44adda7826651013ff7636fcc6436b002a52c212fc467056f395b00", "blockhash": "00000000000000000017f5eb5941039fbcee6240d03bc1f2f8e35350df66a1d8", "vout": [{"scriptPubKey": {"reqSigs": 1, "hex": "76a914955344887b6f2b4b348f341c431a8966ca6e5b2388ac", "addresses": ["1EcZS8DkfeNsCqZQxC2WFWzvpdKBAWnfPd"], "asm": "OP_DUP OP_HASH160 955344887b6f2b4b348f341c431a8966ca6e5b23 OP_EQUALVERIFY OP_CHECKSIG", "type": "pubkeyhash"}, "value": 0.0147606, "n": 0}, {"scriptPubKey": {"type": "nulldata", "hex": "6a4c50000077f00001cc976e396876d674d1a4089cd19ed074892d00f8e87af8e8e963c7cfd5b98853840b3e68e9720b96e4622d4ab07b5baa181b06137458153121bdbc9a9526289ac0f6612cd74e33776ee4", "asm": "OP_RETURN 000077f00001cc976e396876d674d1a4089cd19ed074892d00f8e87af8e8e963c7cfd5b98853840b3e68e9720b96e4622d4ab07b5baa181b06137458153121bdbc9a9526289ac0f6612cd74e33776ee4"}, "value": 0.0, "n": 1}], "hex": "010000000169a48e8b26bab6a54bd2fd681355afab436b163f6f05a6cb36e1dfd57b98646e010000006b48304502210089708a7f31f2f421cd0576a17852bca88d163f94638b093fb35978846ebe3f7b02207a532e7c7a9b0c57163349fbfe276c8ee32b0d4e032bcff0811b4ab909e80dc3012103beb20d920223c23a7763a66507e0d2956bddb8c68ff1e9bcfbe694d2620e40edffffffff02dc851600000000001976a914955344887b6f2b4b348f341c431a8966ca6e5b2388ac0000000000000000536a4c50000077f00001cc976e396876d674d1a4089cd19ed074892d00f8e87af8e8e963c7cfd5b98853840b3e68e9720b96e4622d4ab07b5baa181b06137458153121bdbc9a9526289ac0f6612cd74e33776ee400000000", "vin": [{"sequence": 4294967295, "scriptSig": {"hex": "48304502210089708a7f31f2f421cd0576a17852bca88d163f94638b093fb35978846ebe3f7b02207a532e7c7a9b0c57163349fbfe276c8ee32b0d4e032bcff0811b4ab909e80dc3012103beb20d920223c23a7763a66507e0d2956bddb8c68ff1e9bcfbe694d2620e40ed", "asm": "304502210089708a7f31f2f421cd0576a17852bca88d163f94638b093fb35978846ebe3f7b02207a532e7c7a9b0c57163349fbfe276c8ee32b0d4e032bcff0811b4ab909e80dc3[ALL] 03beb20d920223c23a7763a66507e0d2956bddb8c68ff1e9bcfbe694d2620e40ed"}, "vout": 1, "txid": "6e64987bd5dfe136cba6056f3f166b43abaf551368fdd24ba5b6ba268b8ea469"}], "txid": "47a86842a44adda7826651013ff7636fcc6436b002a52c212fc467056f395b00", "blocktime": 1537874412, "version": 1, "confirmations": 11467, "time": 1537874412, "locktime": 0, "vsize": 284, "size": 284}