{"hash": "cc83eeb5b1bb8704c83825563ae0ee063d3516291aee35610ff13389149bf04b", "blockhash": "0000000000000000001e0dab787dd257d1dbfcb92a98c2207d5e1078be1f4165", "vout": [{"scriptPubKey": {"reqSigs": 1, "hex": "a9149af3d7adce6d343191feae2ba975333a31416d0287", "addresses": ["3FpL6ZPduvukHNzfvLWXdsPsQGN9VKgUvn"], "asm": "OP_HASH160 9af3d7adce6d343191feae2ba975333a31416d02 OP_EQUAL", "type": "scripthash"}, "value": 0.0053466, "n": 0}, {"scriptPubKey": {"reqSigs": 1, "hex": "a914c3b5048031f68d0536d71473d95dd2b8cfe329c487", "addresses": ["3KXpYGmfoyp6vHdhGKhtVYkWWgVXUgRzkP"], "asm": "OP_HASH160 c3b5048031f68d0536d71473d95dd2b8cfe329c4 OP_EQUAL", "type": "scripthash"}, "value": 0.01094757, "n": 1}], "hex": "02000000000101a9bf35a746c780b4716446c9ac0cedbd37b56e91134c14606d43257e5a09836e06000000171600144c21dbc5a2da8b6691f9a5c14411608cc847a5fcfeffffff02842808000000000017a9149af3d7adce6d343191feae2ba975333a31416d028765b410000000000017a914c3b5048031f68d0536d71473d95dd2b8cfe329c48702483045022100ebd4e3dbd64cf590937813efc0ba49709d727f5d20ca2c738b9e3e116c5a34b202200401290d07b34a74eeb163d878a729b1a97e29f3dd659d9142e783d829d18bb60121031a967e8b1f263c8c40e2b8d23940dae1eda6e2c1a51e6b43ff7e51e7404e7a9012490800", "vin": [{"txinwitness": ["3045022100ebd4e3dbd64cf590937813efc0ba49709d727f5d20ca2c738b9e3e116c5a34b202200401290d07b34a74eeb163d878a729b1a97e29f3dd659d9142e783d829d18bb601", "031a967e8b1f263c8c40e2b8d23940dae1eda6e2c1a51e6b43ff7e51e7404e7a90"], "sequence": 4294967294, "scriptSig": {"hex": "1600144c21dbc5a2da8b6691f9a5c14411608cc847a5fc", "asm": "00144c21dbc5a2da8b6691f9a5c14411608cc847a5fc"}, "vout": 6, "txid": "6e83095a7e25436d60144c13916eb537bded0cacc9466471b480c746a735bfa9"}], "txid": "47b2bf537c50e9b4f8e77d4503381c5df17af6df6152dc80d6e146872b1e2d80", "blocktime": 1537872475, "version": 2, "confirmations": 11487, "time": 1537872475, "locktime": 542994, "vsize": 166, "size": 248}