{"hash": "47b880eca22455d113752deec597dfe214748b2747a6fb4daaf5bd6894f6ced2", "blockhash": "00000000000000000004ffacab907a6b429b9a5745fa0b75af4234bf69dd7176", "vout": [{"scriptPubKey": {"reqSigs": 1, "hex": "76a91472928789dc061af315cb7b8786026ab36d697cff88ac", "addresses": ["1BSoZuxr9sybNEAehRAfVnY8Ba5dm5bTLD"], "asm": "OP_DUP OP_HASH160 72928789dc061af315cb7b8786026ab36d697cff OP_EQUALVERIFY OP_CHECKSIG", "type": "pubkeyhash"}, "value": 0.00262, "n": 0}, {"scriptPubKey": {"reqSigs": 1, "hex": "76a9144a26f9ea39cdbf386c4983b410467f6fafeb14d888ac", "addresses": ["17m5hK4ZwEynCqSfqS8Qd7NFQZcva2Fqkw"], "asm": "OP_DUP OP_HASH160 4a26f9ea39cdbf386c4983b410467f6fafeb14d8 OP_EQUALVERIFY OP_CHECKSIG", "type": "pubkeyhash"}, "value": 0.02269694, "n": 1}], "hex": "0100000001ef5d0aa8d6a403f43f9d94b214b57e80aa15bc72f93b63b514fd29546202d130010000006a473044022018c46e037fc5cf8aecaf6bccfd39e122786bdc9fcbb23cb942d21bd3a1a8b70102205dcb250085e8a97c9533873f2a0943cd3d3bcb3752b7929125f031e84136c6e6012102d0ac5ca1994616632156b2cc9d4d0d348dd48c194f566b4137a027df20e4882fffffffff0270ff0300000000001976a91472928789dc061af315cb7b8786026ab36d697cff88acfea12200000000001976a9144a26f9ea39cdbf386c4983b410467f6fafeb14d888ac00000000", "vin": [{"sequence": 4294967295, "scriptSig": {"hex": "473044022018c46e037fc5cf8aecaf6bccfd39e122786bdc9fcbb23cb942d21bd3a1a8b70102205dcb250085e8a97c9533873f2a0943cd3d3bcb3752b7929125f031e84136c6e6012102d0ac5ca1994616632156b2cc9d4d0d348dd48c194f566b4137a027df20e4882f", "asm": "3044022018c46e037fc5cf8aecaf6bccfd39e122786bdc9fcbb23cb942d21bd3a1a8b70102205dcb250085e8a97c9533873f2a0943cd3d3bcb3752b7929125f031e84136c6e6[ALL] 02d0ac5ca1994616632156b2cc9d4d0d348dd48c194f566b4137a027df20e4882f"}, "vout": 1, "txid": "30d102625429fd14b5633bf972bc15aa807eb514b2949d3ff403a4d6a80a5def"}], "txid": "47b880eca22455d113752deec597dfe214748b2747a6fb4daaf5bd6894f6ced2", "blocktime": 1537875543, "version": 1, "confirmations": 11464, "time": 1537875543, "locktime": 0, "vsize": 225, "size": 225}