{"hash": "47bbaf6c455846053c378c4beb28ee3df2534932ece180bdf25dc998ff7772ee", "blockhash": "0000000000000000001f0ddff1eddb255c1121bcd4da4f1bc9a0da00cae72433", "vout": [{"scriptPubKey": {"reqSigs": 1, "hex": "a91458b59bfe58a3cbb98b050a0d3d966267a0b8027f87", "addresses": ["39n4ws3dkrBSMeweDgsAGsoxDyDnGCZgHz"], "asm": "OP_HASH160 58b59bfe58a3cbb98b050a0d3d966267a0b8027f OP_EQUAL", "type": "scripthash"}, "value": 0.00063162, "n": 0}, {"scriptPubKey": {"reqSigs": 1, "hex": "001495095002777be8e069bd2feaf49160dd40be81df", "addresses": ["bc1qj5y4qqnh005wq6da9l40fytqm4qtaqwldd9myj"], "asm": "0 95095002777be8e069bd2feaf49160dd40be81df", "type": "witness_v0_keyhash"}, "value": 1.56e-05, "n": 1}], "hex": "0100000001459ecb03681fecda4975ca6ebe99046e0870c953e4be6364b4e0430059dd2421030000006a4730440220490c4054b51ba6520a5c18a39274e8dd3ddab8b0f9a49a94fb1f7730d1be71f3022040f930fc341793acc04ab24ff921a137674f0155cf098b64e7ff7dd2c393e5f9012103e086efb007e25bb96014b5d594f36d47fce31267cd3df17ed85078a4bd6b1d2affffffff02baf600000000000017a91458b59bfe58a3cbb98b050a0d3d966267a0b8027f87180600000000000016001495095002777be8e069bd2feaf49160dd40be81df00000000", "vin": [{"sequence": 4294967295, "scriptSig": {"hex": "4730440220490c4054b51ba6520a5c18a39274e8dd3ddab8b0f9a49a94fb1f7730d1be71f3022040f930fc341793acc04ab24ff921a137674f0155cf098b64e7ff7dd2c393e5f9012103e086efb007e25bb96014b5d594f36d47fce31267cd3df17ed85078a4bd6b1d2a", "asm": "30440220490c4054b51ba6520a5c18a39274e8dd3ddab8b0f9a49a94fb1f7730d1be71f3022040f930fc341793acc04ab24ff921a137674f0155cf098b64e7ff7dd2c393e5f9[ALL] 03e086efb007e25bb96014b5d594f36d47fce31267cd3df17ed85078a4bd6b1d2a"}, "vout": 3, "txid": "2124dd590043e0b46463bee453c970086e0499be6eca7549daec1f6803cb9e45"}], "txid": "47bbaf6c455846053c378c4beb28ee3df2534932ece180bdf25dc998ff7772ee", "blocktime": 1537872018, "version": 1, "confirmations": 11489, "time": 1537872018, "locktime": 0, "vsize": 220, "size": 220}