{"hash": "47bd296e39d7d3e5d0355340cb653676c3375c9ce865c06354a714e5a74efcf1", "blockhash": "0000000000000000000baef3f32e3676a92c3b2e5da21b426e4f302fc371ce76", "vout": [{"scriptPubKey": {"reqSigs": 1, "hex": "76a914e76f12ddadd72cc0101a25724a0ec8fdaf58346088ac", "addresses": ["1N6i9rDD6n4vGE1W8cXXBPXQTNdMzL9T9j"], "asm": "OP_DUP OP_HASH160 e76f12ddadd72cc0101a25724a0ec8fdaf583460 OP_EQUALVERIFY OP_CHECKSIG", "type": "pubkeyhash"}, "value": 77.99734598, "n": 0}, {"scriptPubKey": {"reqSigs": 1, "hex": "76a91415131c297ad1ab4d12d697d56582cbb0c403270b88ac", "addresses": ["12vS5pGtTJAcSiRgRjRT2fSx5kRsPoXDwB"], "asm": "OP_DUP OP_HASH160 15131c297ad1ab4d12d697d56582cbb0c403270b OP_EQUALVERIFY OP_CHECKSIG", "type": "pubkeyhash"}, "value": 9.999, "n": 1}], "hex": "0200000001c83506ec4fbfee7a9b530a2b4ed9745d99a0aa6bd068b69e787d81d828e31937000000006a47304402203738ae6d88e9db427ee4f425d4751ac553fbc04adc11a60f78888dd7740a4640022005a0d27b459a2e2d0ab11ca318a483b6a4b63d33ee70a9dd2c8d3fa2040b0bf301210254d014e0836914dc83e192f10c27cefea21a9e925a1fb49ca8744c6629b1bc8ffeffffff024681e6d0010000001976a914e76f12ddadd72cc0101a25724a0ec8fdaf58346088ac6043993b000000001976a91415131c297ad1ab4d12d697d56582cbb0c403270b88acdb480800", "vin": [{"sequence": 4294967294, "scriptSig": {"hex": "47304402203738ae6d88e9db427ee4f425d4751ac553fbc04adc11a60f78888dd7740a4640022005a0d27b459a2e2d0ab11ca318a483b6a4b63d33ee70a9dd2c8d3fa2040b0bf301210254d014e0836914dc83e192f10c27cefea21a9e925a1fb49ca8744c6629b1bc8f", "asm": "304402203738ae6d88e9db427ee4f425d4751ac553fbc04adc11a60f78888dd7740a4640022005a0d27b459a2e2d0ab11ca318a483b6a4b63d33ee70a9dd2c8d3fa2040b0bf3[ALL] 0254d014e0836914dc83e192f10c27cefea21a9e925a1fb49ca8744c6629b1bc8f"}, "vout": 0, "txid": "3719e328d8817d789eb668d06baaa0995d74d94e2b0a539b7aeebf4fec0635c8"}], "txid": "47bd296e39d7d3e5d0355340cb653676c3375c9ce865c06354a714e5a74efcf1", "blocktime": 1537876114, "version": 2, "confirmations": 11459, "time": 1537876114, "locktime": 542939, "vsize": 225, "size": 225}