{"hash": "47be639cc6545adf923794e2d6c05752dae114c52ce21551b6173665f5697b77", "blockhash": "0000000000000000000dcc0f55137456b1a82d3642486a52398922ac4d620174", "vout": [{"scriptPubKey": {"type": "nulldata", "hex": "6a146f6d6e69000000000000001f0000001aac6d6480", "asm": "OP_RETURN 6f6d6e69000000000000001f0000001aac6d6480"}, "value": 0.0, "n": 0}, {"scriptPubKey": {"reqSigs": 1, "hex": "76a914ee0e8125f9bc63d2fc272a8ff958e9a203e0761488ac", "addresses": ["1NhjCSotvKt8LnL9t6JcBbRxiCQNdZTQu6"], "asm": "OP_DUP OP_HASH160 ee0e8125f9bc63d2fc272a8ff958e9a203e07614 OP_EQUALVERIFY OP_CHECKSIG", "type": "pubkeyhash"}, "value": 5.46e-06, "n": 1}, {"scriptPubKey": {"reqSigs": 1, "hex": "76a914388256b4fb33f6155727017f7d5cce7e0d2a65f388ac", "addresses": ["169nyqNqauSUMcS3rAExS3rhhrwz9mVA4i"], "asm": "OP_DUP OP_HASH160 388256b4fb33f6155727017f7d5cce7e0d2a65f3 OP_EQUALVERIFY OP_CHECKSIG", "type": "pubkeyhash"}, "value": 0.00167881, "n": 2}], "hex": "0100000001477de2312b82d1affd69d603f03d9f4e0d42fd8ee75e6d40b40f155741670dab000000006a47304402200ebbce3c207f86767002f39755476167f21fb8ca51ea2282d031c7f82d12be6f02204d326498a97c7d5bcf63129963a50769ea1f3850c918a6d6acf27edafdae6caf012102cca43b3082ae7d70499eba1e028fba08cb647209c0be3dee55eeb6b51b623f1ffeffffff030000000000000000166a146f6d6e69000000000000001f0000001aac6d648022020000000000001976a914ee0e8125f9bc63d2fc272a8ff958e9a203e0761488acc98f0200000000001976a914388256b4fb33f6155727017f7d5cce7e0d2a65f388ac0c490800", "vin": [{"sequence": 4294967294, "scriptSig": {"hex": "47304402200ebbce3c207f86767002f39755476167f21fb8ca51ea2282d031c7f82d12be6f02204d326498a97c7d5bcf63129963a50769ea1f3850c918a6d6acf27edafdae6caf012102cca43b3082ae7d70499eba1e028fba08cb647209c0be3dee55eeb6b51b623f1f", "asm": "304402200ebbce3c207f86767002f39755476167f21fb8ca51ea2282d031c7f82d12be6f02204d326498a97c7d5bcf63129963a50769ea1f3850c918a6d6acf27edafdae6caf[ALL] 02cca43b3082ae7d70499eba1e028fba08cb647209c0be3dee55eeb6b51b623f1f"}, "vout": 0, "txid": "ab0d674157150fb4406d5ee78efd420d4e9f3df003d669fdafd1822b31e27d47"}], "txid": "47be639cc6545adf923794e2d6c05752dae114c52ce21551b6173665f5697b77", "blocktime": 1537870268, "version": 1, "confirmations": 11519, "time": 1537870268, "locktime": 542988, "vsize": 256, "size": 256}