{"hash": "47c5ae4a1581c5ed787ed995ebce3d70e7ead3067acda3ae8f2a353787bc44c2", "blockhash": "0000000000000000000dcc0f55137456b1a82d3642486a52398922ac4d620174", "vout": [{"scriptPubKey": {"reqSigs": 1, "hex": "76a914bb1ab1ca1e1b81f7f09f9b1b76a4ef0519ade11988ac", "addresses": ["1J4KLe1CvN7qTkz2NSXUHibrAJAVtJk4nH"], "asm": "OP_DUP OP_HASH160 bb1ab1ca1e1b81f7f09f9b1b76a4ef0519ade119 OP_EQUALVERIFY OP_CHECKSIG", "type": "pubkeyhash"}, "value": 0.0064852, "n": 0}, {"scriptPubKey": {"type": "nulldata", "hex": "6a4c500000776a00016ffdf9b6d3fe46470d82d05786aeaeacb577c031fc3a016b46dc7dc7d09686d8413c3fc6baecaaad8911649aec025baa084106138d9ae0bd8c5c1d100759d4ba30d2c37bb011d97e02cf", "asm": "OP_RETURN 0000776a00016ffdf9b6d3fe46470d82d05786aeaeacb577c031fc3a016b46dc7dc7d09686d8413c3fc6baecaaad8911649aec025baa084106138d9ae0bd8c5c1d100759d4ba30d2c37bb011d97e02cf"}, "value": 0.0, "n": 1}], "hex": "0100000001cdd19f8bafbf01889e1c1feaa89e26677e128279bae246660bac901d69447801000000006b4830450221008f810c530962820dc8035f6816ae8b39e009fbaf3e929d71a594d891b601b5a7022020d2f3fa654441d004f616d93aca1031688d343657cbdbe5376e9e0c0a2e06880121023cbaa8265e98bc9978320758dd999019a8d88010e75ceef54f92c4058ff52713ffffffff0248e50900000000001976a914bb1ab1ca1e1b81f7f09f9b1b76a4ef0519ade11988ac0000000000000000536a4c500000776a00016ffdf9b6d3fe46470d82d05786aeaeacb577c031fc3a016b46dc7dc7d09686d8413c3fc6baecaaad8911649aec025baa084106138d9ae0bd8c5c1d100759d4ba30d2c37bb011d97e02cf00000000", "vin": [{"sequence": 4294967295, "scriptSig": {"hex": "4830450221008f810c530962820dc8035f6816ae8b39e009fbaf3e929d71a594d891b601b5a7022020d2f3fa654441d004f616d93aca1031688d343657cbdbe5376e9e0c0a2e06880121023cbaa8265e98bc9978320758dd999019a8d88010e75ceef54f92c4058ff52713", "asm": "30450221008f810c530962820dc8035f6816ae8b39e009fbaf3e929d71a594d891b601b5a7022020d2f3fa654441d004f616d93aca1031688d343657cbdbe5376e9e0c0a2e0688[ALL] 023cbaa8265e98bc9978320758dd999019a8d88010e75ceef54f92c4058ff52713"}, "vout": 0, "txid": "017844691d90ac0b6646e2ba7982127e67269ea8ea1f1c9e8801bfaf8b9fd1cd"}], "txid": "47c5ae4a1581c5ed787ed995ebce3d70e7ead3067acda3ae8f2a353787bc44c2", "blocktime": 1537870268, "version": 1, "confirmations": 11518, "time": 1537870268, "locktime": 0, "vsize": 284, "size": 284}