{"hash": "47c87d0ae1dd1007787bdbcf2490d50200cdabc979e12d0355a07eb7619561fd", "blockhash": "00000000000000000004ffacab907a6b429b9a5745fa0b75af4234bf69dd7176", "vout": [{"scriptPubKey": {"reqSigs": 1, "hex": "76a9145409ce818b65153a12a7ab8c795d34a740ab6e5188ac", "addresses": ["18fMWVaYHVJn4WgLpz5g4xxqsFhLCQ4X9L"], "asm": "OP_DUP OP_HASH160 5409ce818b65153a12a7ab8c795d34a740ab6e51 OP_EQUALVERIFY OP_CHECKSIG", "type": "pubkeyhash"}, "value": 0.00450414, "n": 0}, {"scriptPubKey": {"type": "nulldata", "hex": "6a146f6d6e69000000000000001f000022ad4c03bd00", "asm": "OP_RETURN 6f6d6e69000000000000001f000022ad4c03bd00"}, "value": 0.0, "n": 1}, {"scriptPubKey": {"reqSigs": 1, "hex": "76a914cb71a5b80cfc05f2920248186c8d6a4a8f49ee8e88ac", "addresses": ["1KYiKJEfdJtap9QX2v9BXJMpz2SfU4pgZw"], "asm": "OP_DUP OP_HASH160 cb71a5b80cfc05f2920248186c8d6a4a8f49ee8e OP_EQUALVERIFY OP_CHECKSIG", "type": "pubkeyhash"}, "value": 5.46e-06, "n": 2}], "hex": "0100000001727717e51336a6c27def6566460c5afb2163a45dab57bd6c37fdc104df2686db000000006a473044022039ff579c4780baa0ab3b938ba8121886bbadbd1943bbafc32d49848fb224d1bd0220199df87385bcff56a5eb98a8a6448dbc1ee54acc324f09094ee8b40b2cadd02f012103a40be19e17bb8768ae9cc2187ccc68cdc361a301352240672bd0397b440daf3afeffffff036edf0600000000001976a9145409ce818b65153a12a7ab8c795d34a740ab6e5188ac0000000000000000166a146f6d6e69000000000000001f000022ad4c03bd0022020000000000001976a914cb71a5b80cfc05f2920248186c8d6a4a8f49ee8e88ac16490800", "vin": [{"sequence": 4294967294, "scriptSig": {"hex": "473044022039ff579c4780baa0ab3b938ba8121886bbadbd1943bbafc32d49848fb224d1bd0220199df87385bcff56a5eb98a8a6448dbc1ee54acc324f09094ee8b40b2cadd02f012103a40be19e17bb8768ae9cc2187ccc68cdc361a301352240672bd0397b440daf3a", "asm": "3044022039ff579c4780baa0ab3b938ba8121886bbadbd1943bbafc32d49848fb224d1bd0220199df87385bcff56a5eb98a8a6448dbc1ee54acc324f09094ee8b40b2cadd02f[ALL] 03a40be19e17bb8768ae9cc2187ccc68cdc361a301352240672bd0397b440daf3a"}, "vout": 0, "txid": "db8626df04c1fd376cbd57ab5da46321fb5a0c466665ef7dc2a63613e5177772"}], "txid": "47c87d0ae1dd1007787bdbcf2490d50200cdabc979e12d0355a07eb7619561fd", "blocktime": 1537875543, "version": 1, "confirmations": 11464, "time": 1537875543, "locktime": 542998, "vsize": 256, "size": 256}