{"hash": "47ca00461b6fe285f73715d6c003d7ee9610f302ad7f057bf86b333e4e7c3096", "blockhash": "0000000000000000000baef3f32e3676a92c3b2e5da21b426e4f302fc371ce76", "vout": [{"scriptPubKey": {"reqSigs": 1, "hex": "a914659db245c62ffb37d84d0e5bc98980e1893076e087", "addresses": ["3AxK5rYUQDv9LLvUQtTtLnSpGy6cppsp5U"], "asm": "OP_HASH160 659db245c62ffb37d84d0e5bc98980e1893076e0 OP_EQUAL", "type": "scripthash"}, "value": 0.00431974, "n": 0}, {"scriptPubKey": {"reqSigs": 1, "hex": "76a91445c234498a17cebf8b563f136b8e05f709959e9788ac", "addresses": ["17MrGnUCRyPQVdy7eW4ENqoVUq1go2BNH2"], "asm": "OP_DUP OP_HASH160 45c234498a17cebf8b563f136b8e05f709959e97 OP_EQUALVERIFY OP_CHECKSIG", "type": "pubkeyhash"}, "value": 0.02803455, "n": 1}], "hex": "01000000017225f9ed612e451350e3ef4da3e749593d045c27c496e92297f1e988d10df9aa010000006b483045022100957632bbe906efdeb0429f1dc1d868c56b13d61356db3152bb46d80d9187a4c502200d6e168ac6b1f398c2d6c1e64a1d99e51217f511a39cc2128d50120e7b7762200121021ea152bdcaad9274dc1433b11ddf7a0e9471ef6c321c6cece73599e2f7a5bb46ffffffff02669706000000000017a914659db245c62ffb37d84d0e5bc98980e1893076e087ffc62a00000000001976a91445c234498a17cebf8b563f136b8e05f709959e9788ac00000000", "vin": [{"sequence": 4294967295, "scriptSig": {"hex": "483045022100957632bbe906efdeb0429f1dc1d868c56b13d61356db3152bb46d80d9187a4c502200d6e168ac6b1f398c2d6c1e64a1d99e51217f511a39cc2128d50120e7b7762200121021ea152bdcaad9274dc1433b11ddf7a0e9471ef6c321c6cece73599e2f7a5bb46", "asm": "3045022100957632bbe906efdeb0429f1dc1d868c56b13d61356db3152bb46d80d9187a4c502200d6e168ac6b1f398c2d6c1e64a1d99e51217f511a39cc2128d50120e7b776220[ALL] 021ea152bdcaad9274dc1433b11ddf7a0e9471ef6c321c6cece73599e2f7a5bb46"}, "vout": 1, "txid": "aaf90dd188e9f19722e996c4275c043d5949e7a34defe35013452e61edf92572"}], "txid": "47ca00461b6fe285f73715d6c003d7ee9610f302ad7f057bf86b333e4e7c3096", "blocktime": 1537876114, "version": 1, "confirmations": 11460, "time": 1537876114, "locktime": 0, "vsize": 224, "size": 224}