{"hash": "47cd935ff8bb416f4ca9fb7a982c38f0f94d6c9fe4976838ca06dfec4237292a", "blockhash": "00000000000000000024a2167bbff67b0be802c0b01cdd79e6331c2be6459f87", "vout": [{"scriptPubKey": {"type": "nulldata", "hex": "6a146f6d6e69000000000000001f00000001d0ea8e00", "asm": "OP_RETURN 6f6d6e69000000000000001f00000001d0ea8e00"}, "value": 0.0, "n": 0}, {"scriptPubKey": {"reqSigs": 1, "hex": "76a914cb71a5b80cfc05f2920248186c8d6a4a8f49ee8e88ac", "addresses": ["1KYiKJEfdJtap9QX2v9BXJMpz2SfU4pgZw"], "asm": "OP_DUP OP_HASH160 cb71a5b80cfc05f2920248186c8d6a4a8f49ee8e OP_EQUALVERIFY OP_CHECKSIG", "type": "pubkeyhash"}, "value": 5.46e-06, "n": 1}, {"scriptPubKey": {"reqSigs": 1, "hex": "76a914d7a2d713dd192b87672c95c245f529d95675e6d088ac", "addresses": ["1LfBMaNJGjaW9dcuKf5NHYPy3jqSDqY8Va"], "asm": "OP_DUP OP_HASH160 d7a2d713dd192b87672c95c245f529d95675e6d0 OP_EQUALVERIFY OP_CHECKSIG", "type": "pubkeyhash"}, "value": 0.00098054, "n": 2}], "hex": "010000000172f673e4f79ed3e10bd0621788e5008704c4d4aca3267073b4e331bcad5e4177000000006a47304402204d76debfd9f9271f51fb93c0e413dbe6bd5c40e7e04580ecd7cd5ba5763c1ccb02205e9a0634630a6f219216001543a4b74bc9c1373b7921d9673fa191516f86a44a012102dd7c950ffdfc437f4d2fc5fb5c05a7acf96b58f984c026377f4937b4bf76febdfeffffff030000000000000000166a146f6d6e69000000000000001f00000001d0ea8e0022020000000000001976a914cb71a5b80cfc05f2920248186c8d6a4a8f49ee8e88ac067f0100000000001976a914d7a2d713dd192b87672c95c245f529d95675e6d088ac0d490800", "vin": [{"sequence": 4294967294, "scriptSig": {"hex": "47304402204d76debfd9f9271f51fb93c0e413dbe6bd5c40e7e04580ecd7cd5ba5763c1ccb02205e9a0634630a6f219216001543a4b74bc9c1373b7921d9673fa191516f86a44a012102dd7c950ffdfc437f4d2fc5fb5c05a7acf96b58f984c026377f4937b4bf76febd", "asm": "304402204d76debfd9f9271f51fb93c0e413dbe6bd5c40e7e04580ecd7cd5ba5763c1ccb02205e9a0634630a6f219216001543a4b74bc9c1373b7921d9673fa191516f86a44a[ALL] 02dd7c950ffdfc437f4d2fc5fb5c05a7acf96b58f984c026377f4937b4bf76febd"}, "vout": 0, "txid": "77415eadbc31e3b4737026a3acd4c4048700e5881762d00be1d39ef7e473f672"}], "txid": "47cd935ff8bb416f4ca9fb7a982c38f0f94d6c9fe4976838ca06dfec4237292a", "blocktime": 1537870564, "version": 1, "confirmations": 11515, "time": 1537870564, "locktime": 542989, "vsize": 256, "size": 256}