{"hash": "9161c859f8be6e748cfde5cde39e900ebf3f4a984ecae5a53c00a1e5c1d010ff", "blockhash": "00000000000000000017f5eb5941039fbcee6240d03bc1f2f8e35350df66a1d8", "vout": [{"scriptPubKey": {"reqSigs": 1, "hex": "76a91447f163b4eddbee82ee7f83421bacee93c121d86088ac", "addresses": ["17ZQ9ezX9LSwUNKEpCPiipZq1wpGDZWGNU"], "asm": "OP_DUP OP_HASH160 47f163b4eddbee82ee7f83421bacee93c121d860 OP_EQUALVERIFY OP_CHECKSIG", "type": "pubkeyhash"}, "value": 0.00550001, "n": 0}, {"scriptPubKey": {"reqSigs": 1, "hex": "a9140e3552c847aabcb6aa0e7e367524f6c9bc5a4ef987", "addresses": ["32z9GCfhvKaJwHL2WshdNJj9xhcJAicH5X"], "asm": "OP_HASH160 0e3552c847aabcb6aa0e7e367524f6c9bc5a4ef9 OP_EQUAL", "type": "scripthash"}, "value": 0.07396669, "n": 1}], "hex": "010000000001011277be57215f83ba39f2fd581443b41e30a327646892117642c4c4b6c0cdbf9001000000232200206dcde09aea3e44cf53061048f3c3dbf0c0ffbabc70635ae697414ccbdee5e588ffffffff0271640800000000001976a91447f163b4eddbee82ee7f83421bacee93c121d86088ac3ddd70000000000017a9140e3552c847aabcb6aa0e7e367524f6c9bc5a4ef9870400483045022100ad47d40d33efb2251db2f4803e6c8073fbc22a004826b608070ceff7b1d1da03022041ba49b76fcdc494c02c85a700d387f7e053ee9496dd3e67890b14d395a82ee601473044022049b60caa8b7d0f3c1ea3c28a281e493d1caa900c89d2c138ddffe4b3851bba3e02200e55572de4fded2733824ef54370ad1364c3aff6de47863cbaf5d9f73348dd09014752210280ba5c322805a99facf57aa5eb67113203ab9d40d68983c60340cda5c73c8f712103d71b10c64cdc8183d13812b1c279635205cbe717177d075af42f196dc8f6e3d252ae00000000", "vin": [{"txinwitness": ["", "3045022100ad47d40d33efb2251db2f4803e6c8073fbc22a004826b608070ceff7b1d1da03022041ba49b76fcdc494c02c85a700d387f7e053ee9496dd3e67890b14d395a82ee601", "3044022049b60caa8b7d0f3c1ea3c28a281e493d1caa900c89d2c138ddffe4b3851bba3e02200e55572de4fded2733824ef54370ad1364c3aff6de47863cbaf5d9f73348dd0901", "52210280ba5c322805a99facf57aa5eb67113203ab9d40d68983c60340cda5c73c8f712103d71b10c64cdc8183d13812b1c279635205cbe717177d075af42f196dc8f6e3d252ae"], "sequence": 4294967295, "scriptSig": {"hex": "2200206dcde09aea3e44cf53061048f3c3dbf0c0ffbabc70635ae697414ccbdee5e588", "asm": "00206dcde09aea3e44cf53061048f3c3dbf0c0ffbabc70635ae697414ccbdee5e588"}, "vout": 1, "txid": "90bfcdc0b6c4c442761192686427a3301eb4431458fdf239ba835f2157be7712"}], "txid": "47e468f19b9bf1f67647f6274c3318aeddac238c54f3567d2472bf9a218ed231", "blocktime": 1537874412, "version": 1, "confirmations": 11468, "time": 1537874412, "locktime": 0, "vsize": 208, "size": 373}