{"hash": "f084970622c65093baa06e29db16b7d1d070ea748128616ca6703a750cc5c6c5", "blockhash": "0000000000000000001cda96e906b7601b7a6fb1a3b62bca570a9e5d8f4b3de1", "vout": [{"scriptPubKey": {"reqSigs": 1, "hex": "76a9141e9887b64da7418c32153457a1b32559596eb65a88ac", "addresses": ["13nmzjZbEQ79YgJassWMgKVaiQUdEeUZzJ"], "asm": "OP_DUP OP_HASH160 1e9887b64da7418c32153457a1b32559596eb65a OP_EQUALVERIFY OP_CHECKSIG", "type": "pubkeyhash"}, "value": 0.008, "n": 0}, {"scriptPubKey": {"reqSigs": 1, "hex": "a914298b6c29c0252f14fb6d9441b6f04cb547a7d31187", "addresses": ["35UgeevtkRALARMxZutcPSXvAQZcwQprTx"], "asm": "OP_HASH160 298b6c29c0252f14fb6d9441b6f04cb547a7d311 OP_EQUAL", "type": "scripthash"}, "value": 0.44199502, "n": 1}], "hex": "0100000000010171953f600477d1ea663be583f10fbd648e17a3280a741df43813e9bfc46be3d40100000017160014c3d45a1db91190736a667f2285471f05fddb8a94ffffffff0200350c00000000001976a9141e9887b64da7418c32153457a1b32559596eb65a88ac4e6ea2020000000017a914298b6c29c0252f14fb6d9441b6f04cb547a7d311870247304402202a90e948aeb2473fe9d0d6bcf050a63a80146e72b2743fe33db6cc0e42a3b3290220396fb59cfaefd1345a28a967fdb7371a86f5ad5037e76d96bcc97e7210f9f9670121020e924553ee6385ce72fdbec51542f15d5ce87bb84a4e8a2372c84557d733119300000000", "vin": [{"txinwitness": ["304402202a90e948aeb2473fe9d0d6bcf050a63a80146e72b2743fe33db6cc0e42a3b3290220396fb59cfaefd1345a28a967fdb7371a86f5ad5037e76d96bcc97e7210f9f96701", "020e924553ee6385ce72fdbec51542f15d5ce87bb84a4e8a2372c84557d7331193"], "sequence": 4294967295, "scriptSig": {"hex": "160014c3d45a1db91190736a667f2285471f05fddb8a94", "asm": "0014c3d45a1db91190736a667f2285471f05fddb8a94"}, "vout": 1, "txid": "d4e36bc4bfe91338f41d740a28a3178e64bd0ff183e53b66ead17704603f9571"}], "txid": "47e5d31fcf779626013ac0b43d20fb3925f09fce0beea92dfe391266e53717bc", "blocktime": 1537873282, "version": 1, "confirmations": 11485, "time": 1537873282, "locktime": 0, "vsize": 168, "size": 249}