{"hash": "e65b03f2950c4c524fa77e67a8ee98347488983e963ce69311bbd5ae9166a2ee", "blockhash": "0000000000000000001f76057863aec43deb6fa401d9628bb513d65a8098bfab", "vout": [{"scriptPubKey": {"reqSigs": 1, "hex": "76a914d8598d9ed2bc9ed4653c81bf04cd9a55936754d288ac", "addresses": ["1LixEhfZJcSqfqtvaqwQePxsLxJrM4WhCk"], "asm": "OP_DUP OP_HASH160 d8598d9ed2bc9ed4653c81bf04cd9a55936754d2 OP_EQUALVERIFY OP_CHECKSIG", "type": "pubkeyhash"}, "value": 3.156e-05, "n": 0}, {"scriptPubKey": {"reqSigs": 1, "hex": "00147101029fa3df26df73febd0cbf503fecd410e84d", "addresses": ["bc1qwyqs98armund7ul7h5xt75plan2pp6zd3vvuvw"], "asm": "0 7101029fa3df26df73febd0cbf503fecd410e84d", "type": "witness_v0_keyhash"}, "value": 0.00020847, "n": 1}], "hex": "01000000000101b0527ec9bd2892a226cb79482794907e6c73991820f3bc6ffa8b8561cd76d4c50000000000fdffffff02540c0000000000001976a914d8598d9ed2bc9ed4653c81bf04cd9a55936754d288ac6f510000000000001600147101029fa3df26df73febd0cbf503fecd410e84d02483045022100a9590075d5466568a9b24bc3c98df53997e0f688e3d08d187f93bcbf8c767e21022054bd64f3356f15f4cca4ccb1e9875641374dda28528eeb2b16d8ea2849d965a6012102308dda808f95502e3d735e11b6609e0b2427c1d9978cdcfcf342ae4b63a30f4114490800", "vin": [{"txinwitness": ["3045022100a9590075d5466568a9b24bc3c98df53997e0f688e3d08d187f93bcbf8c767e21022054bd64f3356f15f4cca4ccb1e9875641374dda28528eeb2b16d8ea2849d965a601", "02308dda808f95502e3d735e11b6609e0b2427c1d9978cdcfcf342ae4b63a30f41"], "sequence": 4294967293, "scriptSig": {"hex": "", "asm": ""}, "vout": 0, "txid": "c5d476cd61858bfa6fbcf3201899736c7e9094274879cb26a29228bdc97e52b0"}], "txid": "47e6dd8ead554684e5cd9b4b9153b746e3e2d525f8b598ab808633d3fbcf87cf", "blocktime": 1537873891, "version": 1, "confirmations": 11477, "time": 1537873891, "locktime": 542996, "vsize": 144, "size": 226}