{"hash": "c3b3c9c5077c8b05fc0ebb6d0edd162df15f982b4e9033973216f4ee2814f6e1", "blockhash": "0000000000000000000e13cef7c366c0283d82e591d1acd082e914b08063cdf1", "vout": [{"scriptPubKey": {"reqSigs": 1, "hex": "a9142477eb9663b1548ab25b2837b574870bc15eda2e87", "addresses": ["351queyo8nnaxwPjy4SzV4CboWUFXtTAxb"], "asm": "OP_HASH160 2477eb9663b1548ab25b2837b574870bc15eda2e OP_EQUAL", "type": "scripthash"}, "value": 0.15, "n": 0}, {"scriptPubKey": {"reqSigs": 1, "hex": "a914bbba37f40cb545bcad4ce84c10733be66d166e0487", "addresses": ["3JodN7GmkHdPgKj9G7HCkn9NDLhrcWCjVN"], "asm": "OP_HASH160 bbba37f40cb545bcad4ce84c10733be66d166e04 OP_EQUAL", "type": "scripthash"}, "value": 0.04938476, "n": 1}], "hex": "020000000001025518fd21158a9fb9d1d0d84729c6bbf5232d380f42028f3d0fb63a072e384506010000001716001421d900734b2ce2ab6618bde8c013800059f1e32dffffffff3f6570e61e8a6023dc36b10a3c61cfdaf6f668f7659f7f8dc45ce197946a0993010000001716001421d900734b2ce2ab6618bde8c013800059f1e32dffffffff02c0e1e4000000000017a9142477eb9663b1548ab25b2837b574870bc15eda2e87ec5a4b000000000017a914bbba37f40cb545bcad4ce84c10733be66d166e048702473044022011d4b35c2d9c6118b1606f33547d2e4ead2c015d1e4327da63cbe74e43a5d6530220025e2e2ce280f5874f98eba6ddc3704e5dd94daa12acb08e67c925e04a34f634012103489c725b39c4090b054d12823f1a3c0f25828b84c7f8a68e435725d90fa289ec024730440220453a3fd411fec1dc0a7032fae7cce11a16cd98123808db5bcb8a41796196989c022007ac938094ed691810ee82eeb889fbc80d1bcb733e155f7062055e2c33a6733a012103489c725b39c4090b054d12823f1a3c0f25828b84c7f8a68e435725d90fa289ec00000000", "vin": [{"txinwitness": ["3044022011d4b35c2d9c6118b1606f33547d2e4ead2c015d1e4327da63cbe74e43a5d6530220025e2e2ce280f5874f98eba6ddc3704e5dd94daa12acb08e67c925e04a34f63401", "03489c725b39c4090b054d12823f1a3c0f25828b84c7f8a68e435725d90fa289ec"], "sequence": 4294967295, "scriptSig": {"hex": "16001421d900734b2ce2ab6618bde8c013800059f1e32d", "asm": "001421d900734b2ce2ab6618bde8c013800059f1e32d"}, "vout": 1, "txid": "0645382e073ab60f3d8f02420f382d23f5bbc62947d8d0d1b99f8a1521fd1855"}, {"txinwitness": ["30440220453a3fd411fec1dc0a7032fae7cce11a16cd98123808db5bcb8a41796196989c022007ac938094ed691810ee82eeb889fbc80d1bcb733e155f7062055e2c33a6733a01", "03489c725b39c4090b054d12823f1a3c0f25828b84c7f8a68e435725d90fa289ec"], "sequence": 4294967295, "scriptSig": {"hex": "16001421d900734b2ce2ab6618bde8c013800059f1e32d", "asm": "001421d900734b2ce2ab6618bde8c013800059f1e32d"}, "vout": 1, "txid": "93096a9497e15cc48d7f9f65f768f6f6dacf613c0ab136dc23608a1ee670653f"}], "txid": "47ea0b395046bd5c0daa0716d4f50d6901bf85ad81afbe47671da1e8459aaebe", "blocktime": 1537871767, "version": 2, "confirmations": 11490, "time": 1537871767, "locktime": 0, "vsize": 256, "size": 418}