{"hash": "47eda39ce9ba3cf79d85a25f5498f0110cab00a0e3fc11d254cbd079f52e8f94", "blockhash": "0000000000000000000dcc0f55137456b1a82d3642486a52398922ac4d620174", "vout": [{"scriptPubKey": {"reqSigs": 1, "hex": "76a914860abdbafe28c5105e4e6dabda1ca3665e95845b88ac", "addresses": ["1DDkR1ifufCb2VKcqzxif5SJRXNXnKQWYo"], "asm": "OP_DUP OP_HASH160 860abdbafe28c5105e4e6dabda1ca3665e95845b OP_EQUALVERIFY OP_CHECKSIG", "type": "pubkeyhash"}, "value": 0.01015056, "n": 0}], "hex": "01000000011d2f7475eda835eb14778527dbf81b99e11193af7b2797c37de6aef9028edec2010000006b483045022100809a2fa2c9f133d6e18cb46ee7f3630128cb8de0df40bd73a53f9f7c5a6a8c1e022049d10d6768174f360108cb89ecfe221d944941c3c13fcef1c5915131cfcd857a01210277bd226c3ce0b12b94fc4a242798a4f9f2c6dc3bb33c3d8f158ef7a022821bfbffffffff01107d0f00000000001976a914860abdbafe28c5105e4e6dabda1ca3665e95845b88ac00000000", "vin": [{"sequence": 4294967295, "scriptSig": {"hex": "483045022100809a2fa2c9f133d6e18cb46ee7f3630128cb8de0df40bd73a53f9f7c5a6a8c1e022049d10d6768174f360108cb89ecfe221d944941c3c13fcef1c5915131cfcd857a01210277bd226c3ce0b12b94fc4a242798a4f9f2c6dc3bb33c3d8f158ef7a022821bfb", "asm": "3045022100809a2fa2c9f133d6e18cb46ee7f3630128cb8de0df40bd73a53f9f7c5a6a8c1e022049d10d6768174f360108cb89ecfe221d944941c3c13fcef1c5915131cfcd857a[ALL] 0277bd226c3ce0b12b94fc4a242798a4f9f2c6dc3bb33c3d8f158ef7a022821bfb"}, "vout": 1, "txid": "c2de8e02f9aee67dc397277baf9311e1991bf8db27857714eb35a8ed75742f1d"}], "txid": "47eda39ce9ba3cf79d85a25f5498f0110cab00a0e3fc11d254cbd079f52e8f94", "blocktime": 1537870268, "version": 1, "confirmations": 11518, "time": 1537870268, "locktime": 0, "vsize": 192, "size": 192}