{"hash": "47ef93a74fd6b7184117e8299c69bfcb60b9c32600cd3639018d89da0d34df8c", "blockhash": "00000000000000000018f53835495a110e01622372bf6ae95dc86f2b0ab887b0", "vout": [{"scriptPubKey": {"reqSigs": 1, "hex": "a9143d8a142dd66c2c594587881ff86d72dad5810c0a87", "addresses": ["37JQZ8WfAeC6xAppfE8eCVbtRx6rVA1abg"], "asm": "OP_HASH160 3d8a142dd66c2c594587881ff86d72dad5810c0a OP_EQUAL", "type": "scripthash"}, "value": 0.04010513, "n": 0}, {"scriptPubKey": {"reqSigs": 1, "hex": "76a914a512456fb6665bb672c0462fa7c5a5a2c872052a88ac", "addresses": ["1G3pPAGNZRhUsjDyauTuYigxiNb5LwjGgH"], "asm": "OP_DUP OP_HASH160 a512456fb6665bb672c0462fa7c5a5a2c872052a OP_EQUALVERIFY OP_CHECKSIG", "type": "pubkeyhash"}, "value": 0.00895651, "n": 1}], "hex": "0200000003c94e8c74799a572d24733441d7acd5866318465b896cb2281c09bcbeded89f055d0100006a47304402205df52086ffa07f6a170e89703a7e75bb8481f1f3fded4bca6e81d5cca33e3f040220223c39ab25c914fb43e1134590e2dbd0956e83cc60b8716c5b2c96a93d66865e012102c0a94b057770ac20fc1a6e953857466392db74123eb664e4aae2c2f368f92d6efeffffff2cf5aa5e11dbe2c215a451147511c6648e06c85be3685174c2dbf4f35babecf0000000006a47304402203fbf2b93a3701ecc7b9d0b83e80195cc5554b78bafbeb95e4a0ca1143f9cff6202207cb5b832428df509014781657166c2960a0180729393cf36c4210e5a17382728012102780c632626a5df6348d7cb0ba9d181532e9a74d3dc81eb02b100fd128e0a7ffffeffffff793a6db632df4426e4abfdf7a0adc14d03f95b13cd7a2805b8deea3716d4bfd4000000006a47304402204914371f307cf4fc54fe3aebf42097a3261df146ef81e0176045d50d98bde1be0220420b32f54d2a2051cc903806e9167fd728ac3d16b796b8379eee0cc7cca274ea012103820da2ea4c4e2355d7699dc2c106922a83d56fa1bad3d77b271f1e94029ef415feffffff0211323d000000000017a9143d8a142dd66c2c594587881ff86d72dad5810c0a87a3aa0d00000000001976a914a512456fb6665bb672c0462fa7c5a5a2c872052a88ac0e490800", "vin": [{"sequence": 4294967294, "scriptSig": {"hex": "47304402205df52086ffa07f6a170e89703a7e75bb8481f1f3fded4bca6e81d5cca33e3f040220223c39ab25c914fb43e1134590e2dbd0956e83cc60b8716c5b2c96a93d66865e012102c0a94b057770ac20fc1a6e953857466392db74123eb664e4aae2c2f368f92d6e", "asm": "304402205df52086ffa07f6a170e89703a7e75bb8481f1f3fded4bca6e81d5cca33e3f040220223c39ab25c914fb43e1134590e2dbd0956e83cc60b8716c5b2c96a93d66865e[ALL] 02c0a94b057770ac20fc1a6e953857466392db74123eb664e4aae2c2f368f92d6e"}, "vout": 349, "txid": "059fd8debebc091c28b26c895b46186386d5acd7413473242d579a79748c4ec9"}, {"sequence": 4294967294, "scriptSig": {"hex": "47304402203fbf2b93a3701ecc7b9d0b83e80195cc5554b78bafbeb95e4a0ca1143f9cff6202207cb5b832428df509014781657166c2960a0180729393cf36c4210e5a17382728012102780c632626a5df6348d7cb0ba9d181532e9a74d3dc81eb02b100fd128e0a7fff", "asm": "304402203fbf2b93a3701ecc7b9d0b83e80195cc5554b78bafbeb95e4a0ca1143f9cff6202207cb5b832428df509014781657166c2960a0180729393cf36c4210e5a17382728[ALL] 02780c632626a5df6348d7cb0ba9d181532e9a74d3dc81eb02b100fd128e0a7fff"}, "vout": 0, "txid": "f0ecab5bf3f4dbc2745168e35bc8068e64c611751451a415c2e2db115eaaf52c"}, {"sequence": 4294967294, "scriptSig": {"hex": "47304402204914371f307cf4fc54fe3aebf42097a3261df146ef81e0176045d50d98bde1be0220420b32f54d2a2051cc903806e9167fd728ac3d16b796b8379eee0cc7cca274ea012103820da2ea4c4e2355d7699dc2c106922a83d56fa1bad3d77b271f1e94029ef415", "asm": "304402204914371f307cf4fc54fe3aebf42097a3261df146ef81e0176045d50d98bde1be0220420b32f54d2a2051cc903806e9167fd728ac3d16b796b8379eee0cc7cca274ea[ALL] 03820da2ea4c4e2355d7699dc2c106922a83d56fa1bad3d77b271f1e94029ef415"}, "vout": 0, "txid": "d4bfd41637eadeb805287acd135bf9034dc1ada0f7fdabe42644df32b66d3a79"}], "txid": "47ef93a74fd6b7184117e8299c69bfcb60b9c32600cd3639018d89da0d34df8c", "blocktime": 1537870928, "version": 2, "confirmations": 11512, "time": 1537870928, "locktime": 542990, "vsize": 517, "size": 517}