{"hash": "47faee76bf07b6f355c6a80834067367a0987f9a61465521e8b321501107b0c4", "blockhash": "000000000000000000022b45ed06c6f4ccd3cf7fb5ba4856ebd2e58215665228", "vout": [{"scriptPubKey": {"reqSigs": 1, "hex": "76a914c19e0f035dd9375ad1743e370e8b6a9cbdd2f5d288ac", "addresses": ["1Jekm8ZswQmDhLFMp9cuYb1Kcq26riFp6m"], "asm": "OP_DUP OP_HASH160 c19e0f035dd9375ad1743e370e8b6a9cbdd2f5d2 OP_EQUALVERIFY OP_CHECKSIG", "type": "pubkeyhash"}, "value": 11.90848579, "n": 0}], "hex": "0200000001078074e926f02bc7cbe08d2292278c9ef91e97e6bb4a243dcffe9ea881664b3c4c0000008a47304402201d346a25c7dffe78c71dd3c5d64cc8813fb48b49804a208ac7394148b9036f6d02202a58412043b3f6f8c6ec36a54c831ccedcd559b0be7ca41724be414db123aef001410414dfa6c73621aaccc8127cb572631065aa120b5e7afafa37ae39a0c8a3ece675f19acbb98970fb1049f0bb8a6f7e43f759582f57d996619a00426050e6c004efffffffff0143e8fa46000000001976a914c19e0f035dd9375ad1743e370e8b6a9cbdd2f5d288ac00000000", "vin": [{"sequence": 4294967295, "scriptSig": {"hex": "47304402201d346a25c7dffe78c71dd3c5d64cc8813fb48b49804a208ac7394148b9036f6d02202a58412043b3f6f8c6ec36a54c831ccedcd559b0be7ca41724be414db123aef001410414dfa6c73621aaccc8127cb572631065aa120b5e7afafa37ae39a0c8a3ece675f19acbb98970fb1049f0bb8a6f7e43f759582f57d996619a00426050e6c004ef", "asm": "304402201d346a25c7dffe78c71dd3c5d64cc8813fb48b49804a208ac7394148b9036f6d02202a58412043b3f6f8c6ec36a54c831ccedcd559b0be7ca41724be414db123aef0[ALL] 0414dfa6c73621aaccc8127cb572631065aa120b5e7afafa37ae39a0c8a3ece675f19acbb98970fb1049f0bb8a6f7e43f759582f57d996619a00426050e6c004ef"}, "vout": 76, "txid": "3c4b6681a89efecf3d244abbe6971ef99e8c2792228de0cbc72bf026e9748007"}], "txid": "47faee76bf07b6f355c6a80834067367a0987f9a61465521e8b321501107b0c4", "blocktime": 1537869901, "version": 2, "confirmations": 11522, "time": 1537869901, "locktime": 0, "vsize": 223, "size": 223}