{"hash": "d6662f79c0f253d64db9ab20573cc54b02d9a675f1d8696a4957323fc833843e", "blockhash": "0000000000000000001cda96e906b7601b7a6fb1a3b62bca570a9e5d8f4b3de1", "vout": [{"scriptPubKey": {"reqSigs": 1, "hex": "a914fe8923c22523be557da351bcbeab532afd31af4487", "addresses": ["3QtsquCTtjfExcYn5qMPUUfDLSV3iyfpww"], "asm": "OP_HASH160 fe8923c22523be557da351bcbeab532afd31af44 OP_EQUAL", "type": "scripthash"}, "value": 0.0509678, "n": 0}, {"scriptPubKey": {"reqSigs": 1, "hex": "76a914da1cafed2bd854da870b4de87969d2a203adc72b88ac", "addresses": ["1LtGg3QeiXyBLRsMpZibavAt18egoc7fa8"], "asm": "OP_DUP OP_HASH160 da1cafed2bd854da870b4de87969d2a203adc72b OP_EQUALVERIFY OP_CHECKSIG", "type": "pubkeyhash"}, "value": 0.01652841, "n": 1}], "hex": "02000000000101bab2b0214d80515d37cef94d631e61df52297d5d5e609eebe858fe2926ce2e240000000017160014b51473f553aeace6c53e36c0c9ba808579fa292afeffffff024cc54d000000000017a914fe8923c22523be557da351bcbeab532afd31af448769381900000000001976a914da1cafed2bd854da870b4de87969d2a203adc72b88ac02483045022100bbfbc97f5951059fe7444d19ba9e7823d08c83549da9b1945bf5fa105dd30aff022046c3880ac395b3aaa0a54f0fecca3c386413ddfabfc62b7690b40c4d906ac4c3012103789586ef525ad6063a38c47ce4a2aed9cefc602ab9c038c012e40196aff1343c13490800", "vin": [{"txinwitness": ["3045022100bbfbc97f5951059fe7444d19ba9e7823d08c83549da9b1945bf5fa105dd30aff022046c3880ac395b3aaa0a54f0fecca3c386413ddfabfc62b7690b40c4d906ac4c301", "03789586ef525ad6063a38c47ce4a2aed9cefc602ab9c038c012e40196aff1343c"], "sequence": 4294967294, "scriptSig": {"hex": "160014b51473f553aeace6c53e36c0c9ba808579fa292a", "asm": "0014b51473f553aeace6c53e36c0c9ba808579fa292a"}, "vout": 0, "txid": "242ece2629fe58e8eb9e605e5d7d2952df611e634df9ce375d51804d21b0b2ba"}], "txid": "47fb23a9b0971a891e40a858b5212e7a522e029881c5a4a219064bf765064b8c", "blocktime": 1537873282, "version": 2, "confirmations": 11484, "time": 1537873282, "locktime": 542995, "vsize": 168, "size": 250}