{"hash": "159b76492499b9e29301b73a6b3d7b70310827ba2a811607b425e61f3283c053", "blockhash": "0000000000000000001f76057863aec43deb6fa401d9628bb513d65a8098bfab", "vout": [{"scriptPubKey": {"reqSigs": 1, "hex": "0014353af71cae9f6591a08abc6e004a66cd924cb369", "addresses": ["bc1qx5a0w89wnajergy2h3hqqjnxekfyevmfj6gk3e"], "asm": "0 353af71cae9f6591a08abc6e004a66cd924cb369", "type": "witness_v0_keyhash"}, "value": 0.61526696, "n": 0}, {"scriptPubKey": {"reqSigs": 1, "hex": "76a91405aa66934bda106d06ab97c548c41a3f516503e688ac", "addresses": ["1WxWcAdzN7UiNKvWafotKARmpNyTtXtSa"], "asm": "OP_DUP OP_HASH160 05aa66934bda106d06ab97c548c41a3f516503e6 OP_EQUALVERIFY OP_CHECKSIG", "type": "pubkeyhash"}, "value": 0.02528, "n": 1}], "hex": "01000000000101e1960d69d9d23e8d91f6ac3f9896eae8c78c3269599cae161445ba30f2f247680000000000ffffffff02a8d2aa0300000000160014353af71cae9f6591a08abc6e004a66cd924cb36900932600000000001976a91405aa66934bda106d06ab97c548c41a3f516503e688ac02473044022004651f9337c971d94a9a0547f0c341416c56e58150e944ab740d0fe2296457e4022078e4476990ffbb3a70d4d2ddeb0be10d8ec10b79931c08f95ba86a3efa6b4b5e0121021aa27f5e13da326ee7bee0abebe258e29a7138fdac17b40e365597f624c6837900000000", "vin": [{"txinwitness": ["3044022004651f9337c971d94a9a0547f0c341416c56e58150e944ab740d0fe2296457e4022078e4476990ffbb3a70d4d2ddeb0be10d8ec10b79931c08f95ba86a3efa6b4b5e01", "021aa27f5e13da326ee7bee0abebe258e29a7138fdac17b40e365597f624c68379"], "sequence": 4294967295, "scriptSig": {"hex": "", "asm": ""}, "vout": 0, "txid": "6847f2f230ba451416ae9c5969328cc7e8ea96983facf6918d3ed2d9690d96e1"}], "txid": "47fceef8377d99f7f4fa235f918c63cad302e93e78f5bbe316934e64870e0df1", "blocktime": 1537873891, "version": 1, "confirmations": 11478, "time": 1537873891, "locktime": 0, "vsize": 144, "size": 225}