{"hash": "00f353e2ea996d7ff928cdc568db3b3f48160c83fbb618c002c208b5ea94b590", "blockhash": "00000000000000000024a2167bbff67b0be802c0b01cdd79e6331c2be6459f87", "vout": [{"scriptPubKey": {"reqSigs": 1, "hex": "a91435d3ddc7a89928be3ea6547c4bd571fa09b9bae887", "addresses": ["36bdYSYmFzv23zmb59P3RTDeJs6dhqmP9M"], "asm": "OP_HASH160 35d3ddc7a89928be3ea6547c4bd571fa09b9bae8 OP_EQUAL", "type": "scripthash"}, "value": 0.00308, "n": 0}, {"scriptPubKey": {"reqSigs": 1, "hex": "a914627aa52932456d89054bd84f86246af3b71b93a887", "addresses": ["3Afj4stdiLG9EktGrMbm252ySonnhYaz8v"], "asm": "OP_HASH160 627aa52932456d89054bd84f86246af3b71b93a8 OP_EQUAL", "type": "scripthash"}, "value": 0.46078799, "n": 1}], "hex": "01000000000101ff43d5f37f245145fa91dcd73f99ec081f431b0b128f0dcee3a1afb8c920abf701000000232200205fdd641234b13964b223bd85ad2a4a667ca2099df3d42a1d3b45706a8d81abf0ffffffff0220b304000000000017a91435d3ddc7a89928be3ea6547c4bd571fa09b9bae8874f1bbf020000000017a914627aa52932456d89054bd84f86246af3b71b93a88704004730440220267746dcc99310e194a3e251f647f5747f82d22e747e7298757b9d775e37e8350220118042d7bd1069c152aa7916ff46d300334459a197dd2a5ad79fa14bd471583e01473044022003667e9cb2ee6d387353ff78d9bebb9742a1e0ad2196edf796483bfae78074a8022001e200ff3d9e664d05de5233fe401492d0b3630ed7d2967154927d89c69420ae0147522103dcde3832fa56def7b4e783faad1b8af85c3cdd74a5ff4f3c7c216b1075c18da12103c70ae8ded79be1afda73b9ce5ea14a3878908ee160d66a9a717e792bb6db276952ae00000000", "vin": [{"txinwitness": ["", "30440220267746dcc99310e194a3e251f647f5747f82d22e747e7298757b9d775e37e8350220118042d7bd1069c152aa7916ff46d300334459a197dd2a5ad79fa14bd471583e01", "3044022003667e9cb2ee6d387353ff78d9bebb9742a1e0ad2196edf796483bfae78074a8022001e200ff3d9e664d05de5233fe401492d0b3630ed7d2967154927d89c69420ae01", "522103dcde3832fa56def7b4e783faad1b8af85c3cdd74a5ff4f3c7c216b1075c18da12103c70ae8ded79be1afda73b9ce5ea14a3878908ee160d66a9a717e792bb6db276952ae"], "sequence": 4294967295, "scriptSig": {"hex": "2200205fdd641234b13964b223bd85ad2a4a667ca2099df3d42a1d3b45706a8d81abf0", "asm": "00205fdd641234b13964b223bd85ad2a4a667ca2099df3d42a1d3b45706a8d81abf0"}, "vout": 1, "txid": "f7ab20c9b8afa1e3ce0d8f120b1b431f08ec993fd7dc91fa4551247ff3d543ff"}], "txid": "48000df9eda1d881ccc91da0cb5084c663f9de1637ea2f80a57809b7f76157fc", "blocktime": 1537870564, "version": 1, "confirmations": 11515, "time": 1537870564, "locktime": 0, "vsize": 205, "size": 370}