{"hash": "480878eabd110c42df234b76dfe3cd92834ffb9fdfa9e38449bb1930edb7f9d6", "blockhash": "0000000000000000001f0ddff1eddb255c1121bcd4da4f1bc9a0da00cae72433", "vout": [{"scriptPubKey": {"reqSigs": 1, "hex": "76a9140643e1fbd9f1896abec0049ebe4cea98cda5779388ac", "addresses": ["1a8NjAunBqt3GpYBFMzjaYLvwfJ8cqvsL"], "asm": "OP_DUP OP_HASH160 0643e1fbd9f1896abec0049ebe4cea98cda57793 OP_EQUALVERIFY OP_CHECKSIG", "type": "pubkeyhash"}, "value": 0.28157523, "n": 0}, {"scriptPubKey": {"reqSigs": 1, "hex": "a91443375bcc05c2aedaa975018f4ae9f95f833ec75187", "addresses": ["37pRWn5kwGnnmCtBV3BLvuMTxQix7ETF2s"], "asm": "OP_HASH160 43375bcc05c2aedaa975018f4ae9f95f833ec751 OP_EQUAL", "type": "scripthash"}, "value": 0.76650465, "n": 1}], "hex": "0100000001c78ee4d731bea448bcc8040edf8f92df56a0715627ef24faee8d799a3004eda6010000006b483045022100d3913985cd17c77cb5b455bd7939a3bcd677246adf00ad11bc96e9560cf9f56d0220662680032bda934369bf59e4335fcd20f9f5ad81b275890ae737e921bd1ddca2012102a655a110b4430a80374ac617d0fbb7184141e4fad388eca2606eed42266867c2fdffffff0253a6ad01000000001976a9140643e1fbd9f1896abec0049ebe4cea98cda5779388ace19791040000000017a91443375bcc05c2aedaa975018f4ae9f95f833ec7518710490800", "vin": [{"sequence": 4294967293, "scriptSig": {"hex": "483045022100d3913985cd17c77cb5b455bd7939a3bcd677246adf00ad11bc96e9560cf9f56d0220662680032bda934369bf59e4335fcd20f9f5ad81b275890ae737e921bd1ddca2012102a655a110b4430a80374ac617d0fbb7184141e4fad388eca2606eed42266867c2", "asm": "3045022100d3913985cd17c77cb5b455bd7939a3bcd677246adf00ad11bc96e9560cf9f56d0220662680032bda934369bf59e4335fcd20f9f5ad81b275890ae737e921bd1ddca2[ALL] 02a655a110b4430a80374ac617d0fbb7184141e4fad388eca2606eed42266867c2"}, "vout": 1, "txid": "a6ed04309a798deefa24ef275671a056df928fdf0e04c8bc48a4be31d7e48ec7"}], "txid": "480878eabd110c42df234b76dfe3cd92834ffb9fdfa9e38449bb1930edb7f9d6", "blocktime": 1537872018, "version": 1, "confirmations": 11489, "time": 1537872018, "locktime": 542992, "vsize": 224, "size": 224}