{"hash": "480c33fc583d3f76aaa51b72c0ff7041f048f8238a771111a856d1c0e2b66c4b", "blockhash": "0000000000000000000e13cef7c366c0283d82e591d1acd082e914b08063cdf1", "vout": [{"scriptPubKey": {"reqSigs": 1, "hex": "a914a5c4cf428e57b9f8b30266d69a5a609c3ccb614787", "addresses": ["3GoXBmSyh63Cb1ZLXmfpvLFDgPJnyiBT39"], "asm": "OP_HASH160 a5c4cf428e57b9f8b30266d69a5a609c3ccb6147 OP_EQUAL", "type": "scripthash"}, "value": 0.050505, "n": 0}, {"scriptPubKey": {"reqSigs": 1, "hex": "76a914bb817be65a67037d386d73b33730abce69864e7e88ac", "addresses": ["1J6SUaUgs9HKvASejxdaARUxQMEZhKoSCZ"], "asm": "OP_DUP OP_HASH160 bb817be65a67037d386d73b33730abce69864e7e OP_EQUALVERIFY OP_CHECKSIG", "type": "pubkeyhash"}, "value": 1.23373765, "n": 1}], "hex": "0100000001bf11b3c1e7e60c650296f3ae2ee13954496d7e787e02b037d924fca4b1b89943010000006a473044022001eeee352d10114ddcb7d907da6c57a3f558761016f00a4833f17fc862e7bea30220322a51631b17b8bf6ef6bbc63bcf25ee9738c8c4a1de3e10411d197cd5e22f18012103160ff0376dd3de47d818cd5bb72e40f11d55ea63e3e2f03e19edf129d6371accfdffffff0284104d000000000017a914a5c4cf428e57b9f8b30266d69a5a609c3ccb614787c5885a07000000001976a914bb817be65a67037d386d73b33730abce69864e7e88ac10490800", "vin": [{"sequence": 4294967293, "scriptSig": {"hex": "473044022001eeee352d10114ddcb7d907da6c57a3f558761016f00a4833f17fc862e7bea30220322a51631b17b8bf6ef6bbc63bcf25ee9738c8c4a1de3e10411d197cd5e22f18012103160ff0376dd3de47d818cd5bb72e40f11d55ea63e3e2f03e19edf129d6371acc", "asm": "3044022001eeee352d10114ddcb7d907da6c57a3f558761016f00a4833f17fc862e7bea30220322a51631b17b8bf6ef6bbc63bcf25ee9738c8c4a1de3e10411d197cd5e22f18[ALL] 03160ff0376dd3de47d818cd5bb72e40f11d55ea63e3e2f03e19edf129d6371acc"}, "vout": 1, "txid": "4399b8b1a4fc24d937b0027e787e6d495439e12eaef39602650ce6e7c1b311bf"}], "txid": "480c33fc583d3f76aaa51b72c0ff7041f048f8238a771111a856d1c0e2b66c4b", "blocktime": 1537871767, "version": 1, "confirmations": 11493, "time": 1537871767, "locktime": 542992, "vsize": 223, "size": 223}