{"hash": "8d63833fc7e32cdad78809ab55fb9d262e97b5db5959bcfe1de2bcfec96dd4ce", "blockhash": "0000000000000000001cda96e906b7601b7a6fb1a3b62bca570a9e5d8f4b3de1", "vout": [{"scriptPubKey": {"reqSigs": 1, "hex": "a914c923658fa5c84aa9481cfd0db810dc0cb7549e1e87", "addresses": ["3L2Y9WUtkyjvEws8NwLvh54JDZai1Zy4Z3"], "asm": "OP_HASH160 c923658fa5c84aa9481cfd0db810dc0cb7549e1e OP_EQUAL", "type": "scripthash"}, "value": 0.02770638, "n": 0}, {"scriptPubKey": {"reqSigs": 1, "hex": "76a91436d3d4819c8b9c218d8a54b7aa19ec827eb9b45788ac", "addresses": ["15zuFaCaTGMNyukV9mvgquhNGFDkQtbTQN"], "asm": "OP_DUP OP_HASH160 36d3d4819c8b9c218d8a54b7aa19ec827eb9b457 OP_EQUALVERIFY OP_CHECKSIG", "type": "pubkeyhash"}, "value": 0.00733936, "n": 1}, {"scriptPubKey": {"reqSigs": 1, "hex": "a914e07c167f73a57b72284a796b2a739508145c991b87", "addresses": ["3N9ywHq6nAjmbvykVvDm1DEwjF8Wp85FRF"], "asm": "OP_HASH160 e07c167f73a57b72284a796b2a739508145c991b OP_EQUAL", "type": "scripthash"}, "value": 0.00733936, "n": 2}, {"scriptPubKey": {"reqSigs": 1, "hex": "a914804874c19bd892d70a38a672116fa956da449e2587", "addresses": ["3DPKDSAZ26xsP6fx62jSid6Md6pGjDGnzx"], "asm": "OP_HASH160 804874c19bd892d70a38a672116fa956da449e25 OP_EQUAL", "type": "scripthash"}, "value": 0.00605223, "n": 3}, {"scriptPubKey": {"reqSigs": 1, "hex": "a914261ae4780fbe8aa439622c0f3a8b80dc28a4014787", "addresses": ["35AVpMV3D6JaXhvLPRB3vrQJJdb1ciaWb4"], "asm": "OP_HASH160 261ae4780fbe8aa439622c0f3a8b80dc28a40147 OP_EQUAL", "type": "scripthash"}, "value": 0.00419258, "n": 4}, {"scriptPubKey": {"reqSigs": 1, "hex": "a9142b44aecfc35303fb06ee95201af05139bf1f83f887", "addresses": ["35doFxhKPXTjFkfFBxiCjT3DKozpvhqso3"], "asm": "OP_HASH160 2b44aecfc35303fb06ee95201af05139bf1f83f8 OP_EQUAL", "type": "scripthash"}, "value": 0.00733936, "n": 5}, {"scriptPubKey": {"reqSigs": 1, "hex": "a914857e6bfea243fef6106df078e32e938e421fc02687", "addresses": ["3DrsF13ha9GMHVJWENhEK81aoqe9qeahEu"], "asm": "OP_HASH160 857e6bfea243fef6106df078e32e938e421fc026 OP_EQUAL", "type": "scripthash"}, "value": 0.00733936, "n": 6}, {"scriptPubKey": {"reqSigs": 1, "hex": "a914f4f63ef7bb63140ba7c1d043f92ccb3d508c79de87", "addresses": ["3Q2FnpXFT1Z9sJwhm58koQHc8mJencMzJp"], "asm": "OP_HASH160 f4f63ef7bb63140ba7c1d043f92ccb3d508c79de OP_EQUAL", "type": "scripthash"}, "value": 0.00611286, "n": 7}, {"scriptPubKey": {"reqSigs": 1, "hex": "a914d08e983d0b09a2580742b9030f86500f7f36ddd887", "addresses": ["3LhmJ6ZMQSyVyY59EiKcRszgsEgPRMZuyn"], "asm": "OP_HASH160 d08e983d0b09a2580742b9030f86500f7f36ddd8 OP_EQUAL", "type": "scripthash"}, "value": 0.00733936, "n": 8}, {"scriptPubKey": {"reqSigs": 1, "hex": "a914e406a1349d40fb67171cdddb9d2bfb83bf42728187", "addresses": ["3NUhvvPgUc92tJqrfS6Mpru62mtmcmPLBV"], "asm": "OP_HASH160 e406a1349d40fb67171cdddb9d2bfb83bf427281 OP_EQUAL", "type": "scripthash"}, "value": 0.00635756, "n": 9}, {"scriptPubKey": {"reqSigs": 1, "hex": "a914085619075aef646db059f16167391456a203f45887", "addresses": ["32T6UFpCQRCFMqtEumyjMwiz9SbquTse96"], "asm": "OP_HASH160 085619075aef646db059f16167391456a203f458 OP_EQUAL", "type": "scripthash"}, "value": 0.00733936, "n": 10}, {"scriptPubKey": {"reqSigs": 1, "hex": "a91494b6f2ee94b6c12d988b978aa23dfee133e238fe87", "addresses": ["3FFM6T6bPm6RLHMUL8FKmvPdT1LyZ5sq6K"], "asm": "OP_HASH160 94b6f2ee94b6c12d988b978aa23dfee133e238fe OP_EQUAL", "type": "scripthash"}, "value": 0.17999775, "n": 11}, {"scriptPubKey": {"reqSigs": 1, "hex": "a9148013907da97f59f5761a82fe25f14ddae39d154187", "addresses": ["3DNDrTVdY9yUYQdtL5NdVkg8ch5NqVJ9JA"], "asm": "OP_HASH160 8013907da97f59f5761a82fe25f14ddae39d1541 OP_EQUAL", "type": "scripthash"}, "value": 0.02109376, "n": 12}, {"scriptPubKey": {"reqSigs": 1, "hex": "a91408bb52b3617e34e277c4ccb66ff4b069945fb06a87", "addresses": ["32VBjWeq2YboUy5oeqPLVx4g4RtbYZCNoC"], "asm": "OP_HASH160 08bb52b3617e34e277c4ccb66ff4b069945fb06a OP_EQUAL", "type": "scripthash"}, "value": 0.00733936, "n": 13}], "hex": "010000000001080cd6ee00f4423b6ba29aadbbd435754d3a8c5a6ac0cf1bf1baa5d456e1bd098508000000171600146c79b092c535598d825b86ea31ca1655169ee234ffffffffbc990ac09d060364882f97584e26c3e59a83c4c1cf77137adaab8f7e1a86d1f704000000171600148c00545298ad37a30d2e574a5c997cb450dc4535ffffffff7d0c2a5f440ee5e6e783c991c4684524d8ad604cbf96b31005fc7b6eae238a8f00000000171600140d3937947448cb544c740e1efc8fdd1726de9371fffffffffaea602b73a1bc553d9ec508720acfbe08aa7d32a49d2e03e70f3bb4230ec62a0a00000017160014f537e4233511501d4ef026536ea6023d2876c349ffffffff2e9bd4ef5903635e0f8fec19e299df00907cc5ba35d8d4bf6ae7477067c36d110300000017160014a25da3a5e0ceac5839914281edbed0293ca407f2ffffffff7d0c2a5f440ee5e6e783c991c4684524d8ad604cbf96b31005fc7b6eae238a8f0100000017160014c554d4e17d29fae686adc8adb943e93fde46652cfffffffffaf684ceacfbc85b372b38988c64e2787cb15bdf54b0205d956fc1fa9e9e577208000000171600143928b2d7e4c0791f0fe85f3a20b2003ecbe6a458ffffffff31ecf37fe3ffaaabc2db58026efdd5468e6e5456f767fd903d1ca662e23f635e0a0000001716001477830eaf605911101e2aeb362fd08e45ef1c6a1fffffffff0ece462a000000000017a914c923658fa5c84aa9481cfd0db810dc0cb7549e1e87f0320b00000000001976a91436d3d4819c8b9c218d8a54b7aa19ec827eb9b45788acf0320b000000000017a914e07c167f73a57b72284a796b2a739508145c991b87273c09000000000017a914804874c19bd892d70a38a672116fa956da449e2587ba6506000000000017a914261ae4780fbe8aa439622c0f3a8b80dc28a4014787f0320b000000000017a9142b44aecfc35303fb06ee95201af05139bf1f83f887f0320b000000000017a914857e6bfea243fef6106df078e32e938e421fc02687d65309000000000017a914f4f63ef7bb63140ba7c1d043f92ccb3d508c79de87f0320b000000000017a914d08e983d0b09a2580742b9030f86500f7f36ddd8876cb309000000000017a914e406a1349d40fb67171cdddb9d2bfb83bf42728187f0320b000000000017a914085619075aef646db059f16167391456a203f458879fa712010000000017a91494b6f2ee94b6c12d988b978aa23dfee133e238fe87c02f20000000000017a9148013907da97f59f5761a82fe25f14ddae39d154187f0320b000000000017a91408bb52b3617e34e277c4ccb66ff4b069945fb06a8702473044022054d64f2f11f5ce5f86440c51530f4b208268d73e1d3c6401043a32b47d0550d702205f918f55ca7dba5a9fca503b31073e9fc1e37a41d872316e006e88fdbf850b1d0121028844109fb7db71c631b1ae858e5a547f29b91ad3e80c29903851775a278ebe1402483045022100fa8e203f401e27892a7d60d67c98b0c0eb3adeae67a3b2c3776ab8bc01880e100220115d59cb88b6d18d4184127acc7431f0ea10eb2b69f062295d718c30856e111301210274bb10057c6d8d881ca8a998fab78adf6245082db1c64ec8abfd1767d24a403f024730440220411b21312ba78efdacfc42807431d5752447d5b40179394dddab66e5a83d1da2022072c8b23d1178da2ceda01de6cb2f35e3facc6a04a2b9d9e337f28886e34dda5c01210285311cae2322b10ff6b4e11d9291a12f1dd2a057fd13df564b3f8eb939b4d385024730440220327be04c7f1f6cfa021a0c7a0e6ca4e778c119a0eb816d5c01d145da50fd8ba802202f50029fca6cb0a37b4182b0b539043e682a1d83ffa939219a6248fcdd6f16d40121028134f1c6651100fdd5fc80de1503f2af808ffafec084bae7ed446112c0b45faf02473044022029ee2f827f251b8005a531ecb7b7fd67cee6750b8103cc93e9434211886f6c1302206c2a25e1817a95cf81c86cd1e84b2d41d14a67ce413a07ad521077ee5821916501210302e69c0dfbfe046f16779c972fd50fcbc38493e314d6c9199eb9d90ed532f63502473044022058dfcb55a6a8ded82a7bd91b8d56d4f582f305b2265733d06a1da906729c562202205ce08f6a251ace5e90edf4396858dec39c12fd7545f722ff72a7cf5fdbfc2bcb012102e130781f788b7b2a32061865117169460e5d7eceb8935a7f9a783a238a049a310248304502210097e5a21a69a51d9189461b57e01e987acbd612713c75782c91268c9fbe6b54da02204cc0bdbf77a9991a18a09e7170dc9c642f3b33aa7dcf26622e5b894d8fe1d6750121022166596a44445a1b68e466c7e4270e7d1a65243d3f0f48e3f38d6bd59caaf5af02483045022100de4ddba0e20ce380ad4513ba58a23bef853ef67a520e53ebe3fab95036f4d6f502206e579a239dfdf17ead697ed9a1bbaebe3e0584facebbe595f6ad0376a92fabdf01210303f11d62c426d61da27b76cd282476ecdf1f2c02e5f4159a34825cdfa72daf3b00000000", "vin": [{"txinwitness": ["3044022054d64f2f11f5ce5f86440c51530f4b208268d73e1d3c6401043a32b47d0550d702205f918f55ca7dba5a9fca503b31073e9fc1e37a41d872316e006e88fdbf850b1d01", "028844109fb7db71c631b1ae858e5a547f29b91ad3e80c29903851775a278ebe14"], "sequence": 4294967295, "scriptSig": {"hex": "1600146c79b092c535598d825b86ea31ca1655169ee234", "asm": "00146c79b092c535598d825b86ea31ca1655169ee234"}, "vout": 8, "txid": "8509bde156d4a5baf11bcfc06a5a8c3a4d7535d4bbad9aa26b3b42f400eed60c"}, {"txinwitness": ["3045022100fa8e203f401e27892a7d60d67c98b0c0eb3adeae67a3b2c3776ab8bc01880e100220115d59cb88b6d18d4184127acc7431f0ea10eb2b69f062295d718c30856e111301", "0274bb10057c6d8d881ca8a998fab78adf6245082db1c64ec8abfd1767d24a403f"], "sequence": 4294967295, "scriptSig": {"hex": "1600148c00545298ad37a30d2e574a5c997cb450dc4535", "asm": "00148c00545298ad37a30d2e574a5c997cb450dc4535"}, "vout": 4, "txid": "f7d1861a7e8fabda7a1377cfc1c4839ae5c3264e58972f886403069dc00a99bc"}, {"txinwitness": ["30440220411b21312ba78efdacfc42807431d5752447d5b40179394dddab66e5a83d1da2022072c8b23d1178da2ceda01de6cb2f35e3facc6a04a2b9d9e337f28886e34dda5c01", "0285311cae2322b10ff6b4e11d9291a12f1dd2a057fd13df564b3f8eb939b4d385"], "sequence": 4294967295, "scriptSig": {"hex": "1600140d3937947448cb544c740e1efc8fdd1726de9371", "asm": "00140d3937947448cb544c740e1efc8fdd1726de9371"}, "vout": 0, "txid": "8f8a23ae6e7bfc0510b396bf4c60add8244568c491c983e7e6e50e445f2a0c7d"}, {"txinwitness": ["30440220327be04c7f1f6cfa021a0c7a0e6ca4e778c119a0eb816d5c01d145da50fd8ba802202f50029fca6cb0a37b4182b0b539043e682a1d83ffa939219a6248fcdd6f16d401", "028134f1c6651100fdd5fc80de1503f2af808ffafec084bae7ed446112c0b45faf"], "sequence": 4294967295, "scriptSig": {"hex": "160014f537e4233511501d4ef026536ea6023d2876c349", "asm": "0014f537e4233511501d4ef026536ea6023d2876c349"}, "vout": 10, "txid": "2ac60e23b43b0fe7032e9da4327daa08becf0a7208c59e3d55bca1732b60eafa"}, {"txinwitness": ["3044022029ee2f827f251b8005a531ecb7b7fd67cee6750b8103cc93e9434211886f6c1302206c2a25e1817a95cf81c86cd1e84b2d41d14a67ce413a07ad521077ee5821916501", "0302e69c0dfbfe046f16779c972fd50fcbc38493e314d6c9199eb9d90ed532f635"], "sequence": 4294967295, "scriptSig": {"hex": "160014a25da3a5e0ceac5839914281edbed0293ca407f2", "asm": "0014a25da3a5e0ceac5839914281edbed0293ca407f2"}, "vout": 3, "txid": "116dc3677047e76abfd4d835bac57c9000df99e219ec8f0f5e630359efd49b2e"}, {"txinwitness": ["3044022058dfcb55a6a8ded82a7bd91b8d56d4f582f305b2265733d06a1da906729c562202205ce08f6a251ace5e90edf4396858dec39c12fd7545f722ff72a7cf5fdbfc2bcb01", "02e130781f788b7b2a32061865117169460e5d7eceb8935a7f9a783a238a049a31"], "sequence": 4294967295, "scriptSig": {"hex": "160014c554d4e17d29fae686adc8adb943e93fde46652c", "asm": "0014c554d4e17d29fae686adc8adb943e93fde46652c"}, "vout": 1, "txid": "8f8a23ae6e7bfc0510b396bf4c60add8244568c491c983e7e6e50e445f2a0c7d"}, {"txinwitness": ["304502210097e5a21a69a51d9189461b57e01e987acbd612713c75782c91268c9fbe6b54da02204cc0bdbf77a9991a18a09e7170dc9c642f3b33aa7dcf26622e5b894d8fe1d67501", "022166596a44445a1b68e466c7e4270e7d1a65243d3f0f48e3f38d6bd59caaf5af"], "sequence": 4294967295, "scriptSig": {"hex": "1600143928b2d7e4c0791f0fe85f3a20b2003ecbe6a458", "asm": "00143928b2d7e4c0791f0fe85f3a20b2003ecbe6a458"}, "vout": 8, "txid": "72579e9efac16f955d20b054df5bb17c78e2648c98382b375bc8fbacce84f6fa"}, {"txinwitness": ["3045022100de4ddba0e20ce380ad4513ba58a23bef853ef67a520e53ebe3fab95036f4d6f502206e579a239dfdf17ead697ed9a1bbaebe3e0584facebbe595f6ad0376a92fabdf01", "0303f11d62c426d61da27b76cd282476ecdf1f2c02e5f4159a34825cdfa72daf3b"], "sequence": 4294967295, "scriptSig": {"hex": "16001477830eaf605911101e2aeb362fd08e45ef1c6a1f", "asm": "001477830eaf605911101e2aeb362fd08e45ef1c6a1f"}, "vout": 10, "txid": "5e633fe262a61c3d90fd67f756546e8e46d5fd6e0258dbc2abaaffe37ff3ec31"}], "txid": "480cc71124338c42d29911ca709b893cfdaf843ac6486f3194cfa40b6cc9de9d", "blocktime": 1537873282, "version": 1, "confirmations": 11484, "time": 1537873282, "locktime": 0, "vsize": 1188, "size": 1833}