{"hash": "615c96fea97ea4cee4c58c16b5749bff181c6a0d41ed4db06872eddc4da66fa3", "blockhash": "0000000000000000000e13cef7c366c0283d82e591d1acd082e914b08063cdf1", "vout": [{"scriptPubKey": {"reqSigs": 1, "hex": "a914185d81a63129381a18310acd6dba60cef1bfb7a487", "addresses": ["33urA68GHJuHTbAYb7RDMC7AEVU54MdQz4"], "asm": "OP_HASH160 185d81a63129381a18310acd6dba60cef1bfb7a4 OP_EQUAL", "type": "scripthash"}, "value": 0.54794443, "n": 0}], "hex": "01000000000102128cd0d6fba8579879a13eda13b581e529020d38f9af68acf821c7674b0a8863010000001716001436b461b80e628e6d6affb0ec8b3d51e643c926b7ffffffff7bad9826152dbbab38d92d5923ed694305c66e1feff9566243f944d61e81b5ca14000000171600144eac53b6645fd11bb4b8330ab4d5d4227446d3d3ffffffff01cb1844030000000017a914185d81a63129381a18310acd6dba60cef1bfb7a487024830450221009dcc69eeb7ddabf0ecfcdeecb3fc9f09729532c8231aec489eb8e06867c56a140220651f3fedffe0ecdce43069a10cf470c3798b7f85c1221a4df9a6ad9dca07242d012103834a1b65f4e2bcca30a86685ad58471770cc6bdaffe11ad096906a035d6e6f2a02473044022075d0bb10ef2ffc9794d479e82d5fb6ac5d4da3d1993398ff08086abddbf8dd7302204de6dbcabc2f9766b6b55dc9efc516e8bcfb375193ed44465df27b6e8947105601210349dae9423b7ed7bf7ae5e40385b4330c1d4dcb56108b8fe58bd1cc155cd53cde00000000", "vin": [{"txinwitness": ["30450221009dcc69eeb7ddabf0ecfcdeecb3fc9f09729532c8231aec489eb8e06867c56a140220651f3fedffe0ecdce43069a10cf470c3798b7f85c1221a4df9a6ad9dca07242d01", "03834a1b65f4e2bcca30a86685ad58471770cc6bdaffe11ad096906a035d6e6f2a"], "sequence": 4294967295, "scriptSig": {"hex": "16001436b461b80e628e6d6affb0ec8b3d51e643c926b7", "asm": "001436b461b80e628e6d6affb0ec8b3d51e643c926b7"}, "vout": 1, "txid": "63880a4b67c721f8ac68aff9380d0229e581b513da3ea1799857a8fbd6d08c12"}, {"txinwitness": ["3044022075d0bb10ef2ffc9794d479e82d5fb6ac5d4da3d1993398ff08086abddbf8dd7302204de6dbcabc2f9766b6b55dc9efc516e8bcfb375193ed44465df27b6e8947105601", "0349dae9423b7ed7bf7ae5e40385b4330c1d4dcb56108b8fe58bd1cc155cd53cde"], "sequence": 4294967295, "scriptSig": {"hex": "1600144eac53b6645fd11bb4b8330ab4d5d4227446d3d3", "asm": "00144eac53b6645fd11bb4b8330ab4d5d4227446d3d3"}, "vout": 20, "txid": "cab5811ed644f9436256f9ef1f6ec6054369ed23592dd938abbb2d152698ad7b"}], "txid": "48105cc8dd91f671abdbb858742ae0051251ff01c03fd42eb7b10ca1403e53c8", "blocktime": 1537871767, "version": 1, "confirmations": 11495, "time": 1537871767, "locktime": 0, "vsize": 225, "size": 387}