{"hash": "481131ff14b7a96a2f4239ed8eb2861a4625c0078c5ee5f940ddc3b6a0f44644", "blockhash": "0000000000000000000dcc0f55137456b1a82d3642486a52398922ac4d620174", "vout": [{"scriptPubKey": {"reqSigs": 1, "hex": "a914a4bbced7203c91e939dd1690f3fe456681f9d61387", "addresses": ["3Gi3j8X9jMF9fJ2GzixwKNeshmi6CvpYNd"], "asm": "OP_HASH160 a4bbced7203c91e939dd1690f3fe456681f9d613 OP_EQUAL", "type": "scripthash"}, "value": 2.495e-05, "n": 0}, {"scriptPubKey": {"reqSigs": 1, "hex": "76a9144e4479ddce8ac825a0458aff7f642ffc2832704e88ac", "addresses": ["188qjmAfdjaWMm1fkUM7C4zMsoMUG3vKtv"], "asm": "OP_DUP OP_HASH160 4e4479ddce8ac825a0458aff7f642ffc2832704e OP_EQUALVERIFY OP_CHECKSIG", "type": "pubkeyhash"}, "value": 0.03342493, "n": 1}], "hex": "01000000014c20636ac7ff7e6fb8eb61cb72c1f4514b3de97d772db1a45bec079b0d6b4980010000006b483045022100b23e79a452c49091c01a949f5ba04819225fd501629cda6dc89f3c8878e6568a0220151392fb136555d1113a2df845542eb853ecb1b49b7762edd828476dca9da623012102e032e9434648861efa1ae0a8ce01dbf7a50e8d2967f8c6b5e6bc778426e43b0bffffffff02bf0900000000000017a914a4bbced7203c91e939dd1690f3fe456681f9d613879d003300000000001976a9144e4479ddce8ac825a0458aff7f642ffc2832704e88ac00000000", "vin": [{"sequence": 4294967295, "scriptSig": {"hex": "483045022100b23e79a452c49091c01a949f5ba04819225fd501629cda6dc89f3c8878e6568a0220151392fb136555d1113a2df845542eb853ecb1b49b7762edd828476dca9da623012102e032e9434648861efa1ae0a8ce01dbf7a50e8d2967f8c6b5e6bc778426e43b0b", "asm": "3045022100b23e79a452c49091c01a949f5ba04819225fd501629cda6dc89f3c8878e6568a0220151392fb136555d1113a2df845542eb853ecb1b49b7762edd828476dca9da623[ALL] 02e032e9434648861efa1ae0a8ce01dbf7a50e8d2967f8c6b5e6bc778426e43b0b"}, "vout": 1, "txid": "80496b0d9b07ec5ba4b12d777de93d4b51f4c172cb61ebb86f7effc76a63204c"}], "txid": "481131ff14b7a96a2f4239ed8eb2861a4625c0078c5ee5f940ddc3b6a0f44644", "blocktime": 1537870268, "version": 1, "confirmations": 11518, "time": 1537870268, "locktime": 0, "vsize": 224, "size": 224}