{"hash": "4812a6b266c5192c4cbff041b9023879ee014f185bf4f6dceaa9c98ffaf78313", "blockhash": "0000000000000000000e13cef7c366c0283d82e591d1acd082e914b08063cdf1", "vout": [{"scriptPubKey": {"reqSigs": 1, "hex": "76a91461828e986868029ea6e3dbc33453986ff48209e288ac", "addresses": ["19tawsLSYYMapRFjApZ6mNCbpLWSUnTvYn"], "asm": "OP_DUP OP_HASH160 61828e986868029ea6e3dbc33453986ff48209e2 OP_EQUALVERIFY OP_CHECKSIG", "type": "pubkeyhash"}, "value": 0.0002054, "n": 0}, {"scriptPubKey": {"reqSigs": 1, "hex": "a914c66fb77d5088a57860b9750f36a552866534884c87", "addresses": ["3KnFYk1t2sZGfN3naQMt2GmoV4XPniNfMk"], "asm": "OP_HASH160 c66fb77d5088a57860b9750f36a552866534884c OP_EQUAL", "type": "scripthash"}, "value": 0.00451495, "n": 1}], "hex": "0100000001e998df58b2f191c45eedb2b7e161d18c96fd541d92d954645aa1963e3f4e45e4000000006a47304402205cc6316d62041a7ba5e2ae2f6e8b4cf8c7b5260cd0dbd1bcc95d696bf9d17be70220684e437cc899bc10f22b2915c280fa24da2621e0e88ad07de4141fa5d6e9947c0121029dc7c5807cabe40212933edabc37eeecd704a05c75fd9ef6f1fa7c8611223a0bffffffff023c500000000000001976a91461828e986868029ea6e3dbc33453986ff48209e288aca7e306000000000017a914c66fb77d5088a57860b9750f36a552866534884c8700000000", "vin": [{"sequence": 4294967295, "scriptSig": {"hex": "47304402205cc6316d62041a7ba5e2ae2f6e8b4cf8c7b5260cd0dbd1bcc95d696bf9d17be70220684e437cc899bc10f22b2915c280fa24da2621e0e88ad07de4141fa5d6e9947c0121029dc7c5807cabe40212933edabc37eeecd704a05c75fd9ef6f1fa7c8611223a0b", "asm": "304402205cc6316d62041a7ba5e2ae2f6e8b4cf8c7b5260cd0dbd1bcc95d696bf9d17be70220684e437cc899bc10f22b2915c280fa24da2621e0e88ad07de4141fa5d6e9947c[ALL] 029dc7c5807cabe40212933edabc37eeecd704a05c75fd9ef6f1fa7c8611223a0b"}, "vout": 0, "txid": "e4454e3f3e96a15a6454d9921d54fd968cd161e1b7b2ed5ec491f1b258df98e9"}], "txid": "4812a6b266c5192c4cbff041b9023879ee014f185bf4f6dceaa9c98ffaf78313", "blocktime": 1537871767, "version": 1, "confirmations": 11493, "time": 1537871767, "locktime": 0, "vsize": 223, "size": 223}