{"hash": "07ed93d93717f84613553cf195bda98f6d0bd2a6df2195d7db9f83187ff18e7a", "blockhash": "0000000000000000001f76057863aec43deb6fa401d9628bb513d65a8098bfab", "vout": [{"scriptPubKey": {"reqSigs": 1, "hex": "a9144e3521f5bff98214faa48afe11a2cde1e86362ba87", "addresses": ["38pYHEBtiV5wcgh1Ku4ZcTyPgZEzNUpkRj"], "asm": "OP_HASH160 4e3521f5bff98214faa48afe11a2cde1e86362ba OP_EQUAL", "type": "scripthash"}, "value": 0.054693, "n": 0}, {"scriptPubKey": {"reqSigs": 1, "hex": "00142d19674fa07775d399d90e7234447d1006ade5dc", "addresses": ["bc1q95vkwnaqwa6a8xwepeerg3razqr2mewuk30xt8"], "asm": "0 2d19674fa07775d399d90e7234447d1006ade5dc", "type": "witness_v0_keyhash"}, "value": 0.03650661, "n": 1}], "hex": "0100000000010111c7e69fc8ea4681fad4d82253f0d10be87cbba36d61f0fafdfd87ce862fd3b90000000000ffffffff02747453000000000017a9144e3521f5bff98214faa48afe11a2cde1e86362ba8765b43700000000001600142d19674fa07775d399d90e7234447d1006ade5dc0247304402206b7e066c32d918f88b0b0a45bca589bb70c289b3925e30d98b27b1e25114e8650220627136c8e06de9059cd63bcc716f96e04d4bffeb7ccaeeab42ceae548a8c0e76012103fca49009b2858ef77cfa037fee036d8b88e760514f988cbbfac523edaba195ca00000000", "vin": [{"txinwitness": ["304402206b7e066c32d918f88b0b0a45bca589bb70c289b3925e30d98b27b1e25114e8650220627136c8e06de9059cd63bcc716f96e04d4bffeb7ccaeeab42ceae548a8c0e7601", "03fca49009b2858ef77cfa037fee036d8b88e760514f988cbbfac523edaba195ca"], "sequence": 4294967295, "scriptSig": {"hex": "", "asm": ""}, "vout": 0, "txid": "b9d32f86ce87fdfdfaf0616da3bb7ce80bd1f05322d8d4fa8146eac89fe6c711"}], "txid": "4813e59d434c2e510d3d15fc250ba010a008cab25ccb1fd272402148eaaac133", "blocktime": 1537873891, "version": 1, "confirmations": 11479, "time": 1537873891, "locktime": 0, "vsize": 142, "size": 223}