{"hash": "97af99089a8b54877144feb63be1c2ef10c7324f4e30262b6f463a7f2eacb3c0", "blockhash": "00000000000000000004ffacab907a6b429b9a5745fa0b75af4234bf69dd7176", "vout": [{"scriptPubKey": {"reqSigs": 1, "hex": "76a9147f94caa0cfbb59d90c82c781b08a9378c6a28d0788ac", "addresses": ["1Cdb4aYFhfCmynxp55YSsPjDgFcjHhn5Wa"], "asm": "OP_DUP OP_HASH160 7f94caa0cfbb59d90c82c781b08a9378c6a28d07 OP_EQUALVERIFY OP_CHECKSIG", "type": "pubkeyhash"}, "value": 0.00156502, "n": 0}, {"scriptPubKey": {"reqSigs": 1, "hex": "a914cfaabfe8c271f99a4364b5197ba50c6cddb7adb987", "addresses": ["3Ld4M9RPwEG3VeQbHcC1PsKUndQL7VYLZP"], "asm": "OP_HASH160 cfaabfe8c271f99a4364b5197ba50c6cddb7adb9 OP_EQUAL", "type": "scripthash"}, "value": 0.01735867, "n": 1}], "hex": "010000000001015d5570b0061eefa524e90c48aa9ef71dc70f4df19b0d0c80c439fed26c1ac19b01000000232200202f7b4024602241b47d3306a6733d9889e4b6761d9f1cb82a18aa8b9ac4506e51ffffffff0256630200000000001976a9147f94caa0cfbb59d90c82c781b08a9378c6a28d0788acbb7c1a000000000017a914cfaabfe8c271f99a4364b5197ba50c6cddb7adb987040047304402203fa68769412d71771daf7b9d4f54daaccab9f3422bdfd0f35b87b6cf946b86ca02205c3cdbd14628e18c754787cad49735b386b5012883dde325d7171143c533cd5b01483045022100e04feb925bcecd57fbfad8c090ca56483f8eff528a2195f19f5efd9ff1dfebd402201ee82ca54b1bf8483c89f986e45aaf813ce6041828d0b2133bf2728c166860370147522102973cd851fecff3a20f08377b072729f303801eee1b7678668338adcaec770ec221033e4af03ed09dbd8a417ba042650d5bd1db7f14f271a8f660974e3abf1fdfa4da52ae00000000", "vin": [{"txinwitness": ["", "304402203fa68769412d71771daf7b9d4f54daaccab9f3422bdfd0f35b87b6cf946b86ca02205c3cdbd14628e18c754787cad49735b386b5012883dde325d7171143c533cd5b01", "3045022100e04feb925bcecd57fbfad8c090ca56483f8eff528a2195f19f5efd9ff1dfebd402201ee82ca54b1bf8483c89f986e45aaf813ce6041828d0b2133bf2728c1668603701", "522102973cd851fecff3a20f08377b072729f303801eee1b7678668338adcaec770ec221033e4af03ed09dbd8a417ba042650d5bd1db7f14f271a8f660974e3abf1fdfa4da52ae"], "sequence": 4294967295, "scriptSig": {"hex": "2200202f7b4024602241b47d3306a6733d9889e4b6761d9f1cb82a18aa8b9ac4506e51", "asm": "00202f7b4024602241b47d3306a6733d9889e4b6761d9f1cb82a18aa8b9ac4506e51"}, "vout": 1, "txid": "9bc11a6cd2fe39c4800c0d9bf14d0fc71df79eaa480ce924a5ef1e06b070555d"}], "txid": "481859a5a61d4211bb7bb80a06459a4442575d8369c8241617d0beb1df06b1c2", "blocktime": 1537875543, "version": 1, "confirmations": 11464, "time": 1537875543, "locktime": 0, "vsize": 208, "size": 373}