{"hash": "4821967fc2e5624bd020a166f93d5d03ccd05814ab94b7be6ecb88be0e4e687e", "blockhash": "00000000000000000024a2167bbff67b0be802c0b01cdd79e6331c2be6459f87", "vout": [{"scriptPubKey": {"reqSigs": 1, "hex": "76a91454e3b452d03c4b217dc8fc6614c71c8190d99b7888ac", "addresses": ["18jrYHwRmTsFVEhQX1yUKs5pisQNPdeDiY"], "asm": "OP_DUP OP_HASH160 54e3b452d03c4b217dc8fc6614c71c8190d99b78 OP_EQUALVERIFY OP_CHECKSIG", "type": "pubkeyhash"}, "value": 0.00018389, "n": 0}], "hex": "01000000035fe842e0c728bf759cd91aacde456596e71ddf5440bbc176a71d3d9c55c29349000000006b483045022100a2e7d61d357efb9d3379803510b4fafbc4aae0291bc378993a0527dcdc50220802204319e5abb1026bda2e30ea758cecc81f3f4f95580a8a3fad9ea6d9a71927adb40121027d285aeb19b04f1c4208651791410044aa8e3aa5f610ce717efa7ea4e42ac8b2ffffffff9373859d011234595e42baf2e175a8de7a6d7dd26b4d111a73b5b70098d833b3000000006a47304402202469b259c904d56705c37bdb793857e3ab29dc36d0c3dea064249d9fb2c7739c02206c5a033e95fd453a94db438c7a04306bcaa75cfd8002584b9413685ed6bc854a0121036fbd46981e2af58079c8a121f83d1d4d74a1b808486ee1217cebcc93e66af2d9ffffffff51458d2f6b170b461b587ee7a4bec5067a2a19fb01f5ed33c528b483b1f1b3b5000000006a4730440220384fe5151c1d5adea06f9f8ab079e3d4c083ae87a6cb837fdbfa7ed79c19348e0220391b5fca22230dedf24c233784b3a955a940554bf008895f80055c0bebfb8cfe0121032adb96b54b0a41ad9d08a47d24030f41e4670b283472b927ec290c8caa7ba841ffffffff01d5470000000000001976a91454e3b452d03c4b217dc8fc6614c71c8190d99b7888ac00000000", "vin": [{"sequence": 4294967295, "scriptSig": {"hex": "483045022100a2e7d61d357efb9d3379803510b4fafbc4aae0291bc378993a0527dcdc50220802204319e5abb1026bda2e30ea758cecc81f3f4f95580a8a3fad9ea6d9a71927adb40121027d285aeb19b04f1c4208651791410044aa8e3aa5f610ce717efa7ea4e42ac8b2", "asm": "3045022100a2e7d61d357efb9d3379803510b4fafbc4aae0291bc378993a0527dcdc50220802204319e5abb1026bda2e30ea758cecc81f3f4f95580a8a3fad9ea6d9a71927adb4[ALL] 027d285aeb19b04f1c4208651791410044aa8e3aa5f610ce717efa7ea4e42ac8b2"}, "vout": 0, "txid": "4993c2559c3d1da776c1bb4054df1de7966545deac1ad99c75bf28c7e042e85f"}, {"sequence": 4294967295, "scriptSig": {"hex": "47304402202469b259c904d56705c37bdb793857e3ab29dc36d0c3dea064249d9fb2c7739c02206c5a033e95fd453a94db438c7a04306bcaa75cfd8002584b9413685ed6bc854a0121036fbd46981e2af58079c8a121f83d1d4d74a1b808486ee1217cebcc93e66af2d9", "asm": "304402202469b259c904d56705c37bdb793857e3ab29dc36d0c3dea064249d9fb2c7739c02206c5a033e95fd453a94db438c7a04306bcaa75cfd8002584b9413685ed6bc854a[ALL] 036fbd46981e2af58079c8a121f83d1d4d74a1b808486ee1217cebcc93e66af2d9"}, "vout": 0, "txid": "b333d89800b7b5731a114d6bd27d6d7adea875e1f2ba425e593412019d857393"}, {"sequence": 4294967295, "scriptSig": {"hex": "4730440220384fe5151c1d5adea06f9f8ab079e3d4c083ae87a6cb837fdbfa7ed79c19348e0220391b5fca22230dedf24c233784b3a955a940554bf008895f80055c0bebfb8cfe0121032adb96b54b0a41ad9d08a47d24030f41e4670b283472b927ec290c8caa7ba841", "asm": "30440220384fe5151c1d5adea06f9f8ab079e3d4c083ae87a6cb837fdbfa7ed79c19348e0220391b5fca22230dedf24c233784b3a955a940554bf008895f80055c0bebfb8cfe[ALL] 032adb96b54b0a41ad9d08a47d24030f41e4670b283472b927ec290c8caa7ba841"}, "vout": 0, "txid": "b5b3f1b183b428c533edf501fb192a7a06c5bea4e77e581b460b176b2f8d4551"}], "txid": "4821967fc2e5624bd020a166f93d5d03ccd05814ab94b7be6ecb88be0e4e687e", "blocktime": 1537870564, "version": 1, "confirmations": 11515, "time": 1537870564, "locktime": 0, "vsize": 486, "size": 486}