{"hash": "4672c22edc5d2dc58c76e8a2b2c15300d3e97df5b036e05b7af600f22842e3aa", "blockhash": "00000000000000000018f53835495a110e01622372bf6ae95dc86f2b0ab887b0", "vout": [{"scriptPubKey": {"reqSigs": 1, "hex": "a9144a1d801b34584e0f72afe35d440f4c03237e6a3287", "addresses": ["38SuGTs5qnAvb7t1EzZ4NNTkc5AHiyqEpR"], "asm": "OP_HASH160 4a1d801b34584e0f72afe35d440f4c03237e6a32 OP_EQUAL", "type": "scripthash"}, "value": 0.13131663, "n": 0}, {"scriptPubKey": {"reqSigs": 1, "hex": "0014d51b525c0911cadc84a3e0b1375f489bd398bc22", "addresses": ["bc1q65d4yhqfz89dep9ruzcnwh6gn0fe30pzhxx454"], "asm": "0 d51b525c0911cadc84a3e0b1375f489bd398bc22", "type": "witness_v0_keyhash"}, "value": 0.00170645, "n": 1}], "hex": "0100000000010171c953af516612236fa385aa7a7695507d652568037f19b7b6bc3c86cb3725e90100000000ffffffff028f5fc8000000000017a9144a1d801b34584e0f72afe35d440f4c03237e6a3287959a020000000000160014d51b525c0911cadc84a3e0b1375f489bd398bc2202473044022073955d2f5878a8a989b01543342d5d796f5bddf0eba16610e258d04e2e8fbecf022007ad8511c75cad6b4ccf7ae192c998096f96f0aef28e8cba887bfdb0b78fe04f012103eca10665dabf900b0758616c32050e732954d50b8bdc1f781ab8da181d3ad49a00000000", "vin": [{"txinwitness": ["3044022073955d2f5878a8a989b01543342d5d796f5bddf0eba16610e258d04e2e8fbecf022007ad8511c75cad6b4ccf7ae192c998096f96f0aef28e8cba887bfdb0b78fe04f01", "03eca10665dabf900b0758616c32050e732954d50b8bdc1f781ab8da181d3ad49a"], "sequence": 4294967295, "scriptSig": {"hex": "", "asm": ""}, "vout": 1, "txid": "e92537cb863cbcb6b7197f036825657d5095767aaa85a36f23126651af53c971"}], "txid": "482120dd5a67d5326c954c7505e1d3dd543f3a01fbe6877b959f4b2beda60443", "blocktime": 1537870928, "version": 1, "confirmations": 11513, "time": 1537870928, "locktime": 0, "vsize": 142, "size": 223}