{"hash": "48223814b92c82328693e48edae8453160a638d2999862422414ad3824eaeb18", "blockhash": "0000000000000000001e0dab787dd257d1dbfcb92a98c2207d5e1078be1f4165", "vout": [{"scriptPubKey": {"reqSigs": 1, "hex": "a9140ceb19ba223bf2729da1b95379b1acf1d22c325887", "addresses": ["32sKfuzusFCtFp5wFLTRzLcRkTp4tFS7YP"], "asm": "OP_HASH160 0ceb19ba223bf2729da1b95379b1acf1d22c3258 OP_EQUAL", "type": "scripthash"}, "value": 0.003308, "n": 0}, {"scriptPubKey": {"reqSigs": 1, "hex": "76a91464af09fb5ccb65c1baaa0f8cabb42aa56dbc724388ac", "addresses": ["1ABNG77ZwJwtpA8aTsEkpWvfgB46LadB7h"], "asm": "OP_DUP OP_HASH160 64af09fb5ccb65c1baaa0f8cabb42aa56dbc7243 OP_EQUALVERIFY OP_CHECKSIG", "type": "pubkeyhash"}, "value": 0.0120573, "n": 1}], "hex": "0100000001ac0edbd3b39cf9f8211ed31cf64dc5c0610cab27d47f33e644670963897ca342000000006b483045022100e558b7a026951159997b6491b47eb044af3198807aace8fd4fc635d4dd428ccf02201461e9eacbb2cd709e693c57d8de7c569ed669d936a2abf43baa98d95324ef6601210333a73478fa8c57b08eabc79d3d883597aa827cdd2ae5526909f55aa7c365f060fdffffff02300c05000000000017a9140ceb19ba223bf2729da1b95379b1acf1d22c325887e2651200000000001976a91464af09fb5ccb65c1baaa0f8cabb42aa56dbc724388ac12490800", "vin": [{"sequence": 4294967293, "scriptSig": {"hex": "483045022100e558b7a026951159997b6491b47eb044af3198807aace8fd4fc635d4dd428ccf02201461e9eacbb2cd709e693c57d8de7c569ed669d936a2abf43baa98d95324ef6601210333a73478fa8c57b08eabc79d3d883597aa827cdd2ae5526909f55aa7c365f060", "asm": "3045022100e558b7a026951159997b6491b47eb044af3198807aace8fd4fc635d4dd428ccf02201461e9eacbb2cd709e693c57d8de7c569ed669d936a2abf43baa98d95324ef66[ALL] 0333a73478fa8c57b08eabc79d3d883597aa827cdd2ae5526909f55aa7c365f060"}, "vout": 0, "txid": "42a37c8963096744e6337fd427ab0c61c0c54df61cd31e21f8f99cb3d3db0eac"}], "txid": "48223814b92c82328693e48edae8453160a638d2999862422414ad3824eaeb18", "blocktime": 1537872475, "version": 1, "confirmations": 11488, "time": 1537872475, "locktime": 542994, "vsize": 224, "size": 224}