{"hash": "fb40c4837cd02f9f810c4d1a6dff29216708dff1d41b72905463d776defea86c", "blockhash": "0000000000000000001cda96e906b7601b7a6fb1a3b62bca570a9e5d8f4b3de1", "vout": [{"scriptPubKey": {"reqSigs": 1, "hex": "76a914d1e16d2e4603844be497460d125de6e1d031b17988ac", "addresses": ["1L8kGzyGo44axcf9ddqRFNjmLM9kYVMczs"], "asm": "OP_DUP OP_HASH160 d1e16d2e4603844be497460d125de6e1d031b179 OP_EQUALVERIFY OP_CHECKSIG", "type": "pubkeyhash"}, "value": 0.13, "n": 0}, {"scriptPubKey": {"reqSigs": 1, "hex": "a914055507e20ebf36b1776b407cfb043bfdd18364d187", "addresses": ["32BDAYcxBGyRf1FBq9bs3nthBu8P2zrCwf"], "asm": "OP_HASH160 055507e20ebf36b1776b407cfb043bfdd18364d1 OP_EQUAL", "type": "scripthash"}, "value": 3.38662522, "n": 1}], "hex": "01000000000101ba010600a403bc8411bad73da10ce189f8a53e4f7b2d980656380a46a218c724010000001716001486abba50308d1867828e5e78dfe54e915e7aa2f9ffffffff02405dc600000000001976a914d1e16d2e4603844be497460d125de6e1d031b17988ac7a942f140000000017a914055507e20ebf36b1776b407cfb043bfdd18364d1870247304402204f8159d80b16478cda108f7a197ec0a1a124b85e60eb04fac0e0748191c7d1010220740a3090d3c3869dd8cfc3735ad7eb53724f96121aa0e4a0c1027cc607dfc0870121035fd81ce05eec3652db92ba38aad73565a6bc17eb4432bccd0a0a6f189164f30600000000", "vin": [{"txinwitness": ["304402204f8159d80b16478cda108f7a197ec0a1a124b85e60eb04fac0e0748191c7d1010220740a3090d3c3869dd8cfc3735ad7eb53724f96121aa0e4a0c1027cc607dfc08701", "035fd81ce05eec3652db92ba38aad73565a6bc17eb4432bccd0a0a6f189164f306"], "sequence": 4294967295, "scriptSig": {"hex": "16001486abba50308d1867828e5e78dfe54e915e7aa2f9", "asm": "001486abba50308d1867828e5e78dfe54e915e7aa2f9"}, "vout": 1, "txid": "24c718a2460a385606982d7b4f3ea5f889e10ca13dd7ba1184bc03a4000601ba"}], "txid": "48233c8529f0b85a16e47c1e49c88d44cae572b79fa000cc4e603f203c8d7f8d", "blocktime": 1537873282, "version": 1, "confirmations": 11484, "time": 1537873282, "locktime": 0, "vsize": 168, "size": 249}