{"hash": "4827268f9f8552af203074488d7f88f746f78a5ca848999c04688fb4f1202bcc", "blockhash": "00000000000000000004ffacab907a6b429b9a5745fa0b75af4234bf69dd7176", "vout": [{"scriptPubKey": {"reqSigs": 1, "hex": "76a914419cb5d3651195acc662b60f7ec4777d0ea8e10b88ac", "addresses": ["16yvetXxMkKi7A2ps6UucBZ3dutwFMe7HS"], "asm": "OP_DUP OP_HASH160 419cb5d3651195acc662b60f7ec4777d0ea8e10b OP_EQUALVERIFY OP_CHECKSIG", "type": "pubkeyhash"}, "value": 0.00039253, "n": 0}, {"scriptPubKey": {"reqSigs": 1, "hex": "a914837551f72dca678a20876406e756a5046cb1be0a87", "addresses": ["3Dg6zDrReWXg6Lcka9PHFRiUC6U2jWV3QN"], "asm": "OP_HASH160 837551f72dca678a20876406e756a5046cb1be0a OP_EQUAL", "type": "scripthash"}, "value": 0.001406, "n": 1}], "hex": "0100000003690c6382dec3370862849860d090979af781911db9a42fa4c000c8c4a1661308000000006a47304402206ca9d22d4b1a6bdd51f5d8e6598d5179fe0309716a23a45a9b08cd5c1409cf9a02200c5e6df4d2f422086be4605f8d8fb07ce341bbc150db7a6e6835a2ae09b05f76012102f82899f89c494be3c84b26bc809f4065ec474245f43080f71ae6a4c95468178fffffffff11542c01b15ec26387033cfbd26c0dab715e7120b356c550d8d1b0c120dd8784000000006a47304402202f0a9ba15590f1312ea28e922a643d72c5226b9cf8d01a76937549ce2766073f0220669008771b41edfd07df00055922f7ace1b516ccb8aaeb41e1cf2877f6e74b0f012103c3375ebd303e7e806796df347b7fc10f64cd0a381c7c5f46fc4c2b62d2f62073ffffffffae32694492c2cd64ce12b7726f2679b1824116fc0d0f04aa5b55f51826a2c2f3000000006a473044022057a330513efeb1f32a6572fa0e47bc65e87087233f79faf38aed1b968315e556022071114583233d11d665df7ad621c296c1500b67912900b4830cdd2f8a46b467a7012102663071a7b15b6c041d87c0ec6b641b840297f17745d6ca012c5b9affe6db6388ffffffff0255990000000000001976a914419cb5d3651195acc662b60f7ec4777d0ea8e10b88ac382502000000000017a914837551f72dca678a20876406e756a5046cb1be0a8700000000", "vin": [{"sequence": 4294967295, "scriptSig": {"hex": "47304402206ca9d22d4b1a6bdd51f5d8e6598d5179fe0309716a23a45a9b08cd5c1409cf9a02200c5e6df4d2f422086be4605f8d8fb07ce341bbc150db7a6e6835a2ae09b05f76012102f82899f89c494be3c84b26bc809f4065ec474245f43080f71ae6a4c95468178f", "asm": "304402206ca9d22d4b1a6bdd51f5d8e6598d5179fe0309716a23a45a9b08cd5c1409cf9a02200c5e6df4d2f422086be4605f8d8fb07ce341bbc150db7a6e6835a2ae09b05f76[ALL] 02f82899f89c494be3c84b26bc809f4065ec474245f43080f71ae6a4c95468178f"}, "vout": 0, "txid": "081366a1c4c800c0a42fa4b91d9181f79a9790d0609884620837c3de82630c69"}, {"sequence": 4294967295, "scriptSig": {"hex": "47304402202f0a9ba15590f1312ea28e922a643d72c5226b9cf8d01a76937549ce2766073f0220669008771b41edfd07df00055922f7ace1b516ccb8aaeb41e1cf2877f6e74b0f012103c3375ebd303e7e806796df347b7fc10f64cd0a381c7c5f46fc4c2b62d2f62073", "asm": "304402202f0a9ba15590f1312ea28e922a643d72c5226b9cf8d01a76937549ce2766073f0220669008771b41edfd07df00055922f7ace1b516ccb8aaeb41e1cf2877f6e74b0f[ALL] 03c3375ebd303e7e806796df347b7fc10f64cd0a381c7c5f46fc4c2b62d2f62073"}, "vout": 0, "txid": "8487dd20c1b0d1d850c556b320715e71ab0d6cd2fb3c038763c25eb1012c5411"}, {"sequence": 4294967295, "scriptSig": {"hex": "473044022057a330513efeb1f32a6572fa0e47bc65e87087233f79faf38aed1b968315e556022071114583233d11d665df7ad621c296c1500b67912900b4830cdd2f8a46b467a7012102663071a7b15b6c041d87c0ec6b641b840297f17745d6ca012c5b9affe6db6388", "asm": "3044022057a330513efeb1f32a6572fa0e47bc65e87087233f79faf38aed1b968315e556022071114583233d11d665df7ad621c296c1500b67912900b4830cdd2f8a46b467a7[ALL] 02663071a7b15b6c041d87c0ec6b641b840297f17745d6ca012c5b9affe6db6388"}, "vout": 0, "txid": "f3c2a22618f5555baa040f0dfc164182b179266f72b712ce64cdc292446932ae"}], "txid": "4827268f9f8552af203074488d7f88f746f78a5ca848999c04688fb4f1202bcc", "blocktime": 1537875543, "version": 1, "confirmations": 11464, "time": 1537875543, "locktime": 0, "vsize": 517, "size": 517}