{"hash": "da5f5894878f190b88767af2dc2614451bade0d5cda689704f9921a2e5d102ad", "blockhash": "0000000000000000000e13cef7c366c0283d82e591d1acd082e914b08063cdf1", "vout": [{"scriptPubKey": {"reqSigs": 1, "hex": "a914360c215d12e853e9711cb5799c6d2b2cd7c3cb2087", "addresses": ["36cnwjSE9bbc1s6Vipo76qUG47wzhkPXEb"], "asm": "OP_HASH160 360c215d12e853e9711cb5799c6d2b2cd7c3cb20 OP_EQUAL", "type": "scripthash"}, "value": 0.0035676, "n": 0}, {"scriptPubKey": {"reqSigs": 1, "hex": "a91479ed46df28e047f35bdfb1f35c5b50b75add059287", "addresses": ["3Cohw3EQkkws1Jv5RkSWPqFsbQjxCVeV91"], "asm": "OP_HASH160 79ed46df28e047f35bdfb1f35c5b50b75add0592 OP_EQUAL", "type": "scripthash"}, "value": 0.00527748, "n": 1}, {"scriptPubKey": {"reqSigs": 1, "hex": "76a91438a5a508458ee8554a42b247f66c92f027114d5488ac", "addresses": ["16AXGwEb9htgBVQS1Z8ge5dUy97gEca6xB"], "asm": "OP_DUP OP_HASH160 38a5a508458ee8554a42b247f66c92f027114d54 OP_EQUALVERIFY OP_CHECKSIG", "type": "pubkeyhash"}, "value": 0.05, "n": 2}, {"scriptPubKey": {"reqSigs": 1, "hex": "a9145145ffd0d7f23a4966472f21517fad172507f38d87", "addresses": ["396kWiZDHeRKgbDQnCL6FJ6MMR6sFQFMqA"], "asm": "OP_HASH160 5145ffd0d7f23a4966472f21517fad172507f38d OP_EQUAL", "type": "scripthash"}, "value": 0.00505437, "n": 3}, {"scriptPubKey": {"reqSigs": 1, "hex": "a914d6e0fea35efd66bf715bcad213b0eb898e89a40887", "addresses": ["3MHC4VwyVjiWcPydAy5vtcitYsm2CFi5by"], "asm": "OP_HASH160 d6e0fea35efd66bf715bcad213b0eb898e89a408 OP_EQUAL", "type": "scripthash"}, "value": 0.00616, "n": 4}, {"scriptPubKey": {"reqSigs": 1, "hex": "76a91450927f6ff2a00f835cdf9cf786525b3e7372651188ac", "addresses": ["18M2ZC9RbADEn9A9oNB1fa58VgLJo2xtCN"], "asm": "OP_DUP OP_HASH160 50927f6ff2a00f835cdf9cf786525b3e73726511 OP_EQUALVERIFY OP_CHECKSIG", "type": "pubkeyhash"}, "value": 0.021, "n": 5}, {"scriptPubKey": {"reqSigs": 1, "hex": "a914d2c8032f1ae2ccfb2430c7ad608716eba301f27387", "addresses": ["3LuXRwEjTDTHyDUM1JBgBVFZnWEDUxEBvc"], "asm": "OP_HASH160 d2c8032f1ae2ccfb2430c7ad608716eba301f273 OP_EQUAL", "type": "scripthash"}, "value": 0.00386804, "n": 6}, {"scriptPubKey": {"reqSigs": 1, "hex": "a91482d26320c5f471668c92c74d6769af26821afbdc87", "addresses": ["3DcjoSawzRhRj5cc4z8d2q5bADx2a2eRPR"], "asm": "OP_HASH160 82d26320c5f471668c92c74d6769af26821afbdc OP_EQUAL", "type": "scripthash"}, "value": 0.00610363, "n": 7}, {"scriptPubKey": {"reqSigs": 1, "hex": "a914b05ea7214b5a421a8a7b73f5498e34b6351758e787", "addresses": ["3HmaEuENs3nsfaLD5Hg2rAtJbDbDmpW1Mr"], "asm": "OP_HASH160 b05ea7214b5a421a8a7b73f5498e34b6351758e7 OP_EQUAL", "type": "scripthash"}, "value": 0.00236935, "n": 8}, {"scriptPubKey": {"reqSigs": 1, "hex": "76a9145d588dd8b220a18bc4bcbbc0232386a27e0c7e2c88ac", "addresses": ["19WZvgo61271AWBosixVNYcQmDgbrv91QU"], "asm": "OP_DUP OP_HASH160 5d588dd8b220a18bc4bcbbc0232386a27e0c7e2c OP_EQUALVERIFY OP_CHECKSIG", "type": "pubkeyhash"}, "value": 0.00506111, "n": 9}, {"scriptPubKey": {"reqSigs": 1, "hex": "a91493cadd63444b683694ee9fcd4fd8ed50bf2ceb8887", "addresses": ["3FAUH33CpcPG5N3gb8t4QNJA6poFXEs15N"], "asm": "OP_HASH160 93cadd63444b683694ee9fcd4fd8ed50bf2ceb88 OP_EQUAL", "type": "scripthash"}, "value": 0.01931568, "n": 10}, {"scriptPubKey": {"reqSigs": 1, "hex": "a914c22e5f0b321494f87b0bcb03eb302adff252c4ed87", "addresses": ["3KPkZh27Y9JLZT8QWWS5YbQkt4ozMGZWa4"], "asm": "OP_HASH160 c22e5f0b321494f87b0bcb03eb302adff252c4ed OP_EQUAL", "type": "scripthash"}, "value": 0.00204838, "n": 11}, {"scriptPubKey": {"reqSigs": 1, "hex": "a91446248998d19503871c81d6c2e9d7637b912c550887", "addresses": ["385tze8nHz5dMBmXpRpMvPa4EDHwqUq8a6"], "asm": "OP_HASH160 46248998d19503871c81d6c2e9d7637b912c5508 OP_EQUAL", "type": "scripthash"}, "value": 0.00341189, "n": 12}, {"scriptPubKey": {"reqSigs": 1, "hex": "76a9145a336b6c9e7b90774b87c9f750b8111304eb3f1288ac", "addresses": ["19DwQxrX4zn4hgGYXnfRxaS23aFn4kJFJj"], "asm": "OP_DUP OP_HASH160 5a336b6c9e7b90774b87c9f750b8111304eb3f12 OP_EQUALVERIFY OP_CHECKSIG", "type": "pubkeyhash"}, "value": 0.01298977, "n": 13}, {"scriptPubKey": {"reqSigs": 1, "hex": "76a914a3d57dc4064d47357d7155e1aed3cc3ccb0a1f4f88ac", "addresses": ["1FwGtuKNQk1hKghuKF54eX8xsUkXpvP2ss"], "asm": "OP_DUP OP_HASH160 a3d57dc4064d47357d7155e1aed3cc3ccb0a1f4f OP_EQUALVERIFY OP_CHECKSIG", "type": "pubkeyhash"}, "value": 0.00975436, "n": 14}, {"scriptPubKey": {"reqSigs": 1, "hex": "a9141c17641907abb2bac4baf35abba2de95a70d426c87", "addresses": ["34FYs9h54d3GMC95kyan3qiGBLztPGCiV1"], "asm": "OP_HASH160 1c17641907abb2bac4baf35abba2de95a70d426c OP_EQUAL", "type": "scripthash"}, "value": 0.00064714, "n": 15}, {"scriptPubKey": {"reqSigs": 1, "hex": "76a914e2480a308e17e3c5eb61154e301bc43f0e7e7cf388ac", "addresses": ["1MdU1mV58Ed4SRFGuP4QvJ4Tkr8LFFLpXX"], "asm": "OP_DUP OP_HASH160 e2480a308e17e3c5eb61154e301bc43f0e7e7cf3 OP_EQUALVERIFY OP_CHECKSIG", "type": "pubkeyhash"}, "value": 0.00155027, "n": 16}, {"scriptPubKey": {"reqSigs": 1, "hex": "a914e202d25a850034ef3c7dfeac31a57deca3811d9287", "addresses": ["3NJ41xBGdKDuDWvGD4r5HXvtijxP2mnY3t"], "asm": "OP_HASH160 e202d25a850034ef3c7dfeac31a57deca3811d92 OP_EQUAL", "type": "scripthash"}, "value": 0.00273182, "n": 17}, {"scriptPubKey": {"reqSigs": 1, "hex": "76a9144eef5e11ce976041f39a1442c1594609e5f31a4388ac", "addresses": ["18CNTWKCSPU4rfWcDcq2SBdH9sKsYm4yhq"], "asm": "OP_DUP OP_HASH160 4eef5e11ce976041f39a1442c1594609e5f31a43 OP_EQUALVERIFY OP_CHECKSIG", "type": "pubkeyhash"}, "value": 0.003555, "n": 18}, {"scriptPubKey": {"reqSigs": 1, "hex": "a914a2f796f4c57032883b49bf0aec3c5b6f682ccfd387", "addresses": ["3GYhzTBpAhXWmg3EgAGutesTppTXzgfgrh"], "asm": "OP_HASH160 a2f796f4c57032883b49bf0aec3c5b6f682ccfd3 OP_EQUAL", "type": "scripthash"}, "value": 0.00439566, "n": 19}, {"scriptPubKey": {"reqSigs": 1, "hex": "a91409537c04411ba18ea6d6032c6885e3ccee20ffee87", "addresses": ["32YL1sTe2VChkhBDKnxH3sxaZe17eWNsH9"], "asm": "OP_HASH160 09537c04411ba18ea6d6032c6885e3ccee20ffee OP_EQUAL", "type": "scripthash"}, "value": 0.0037661, "n": 20}, {"scriptPubKey": {"reqSigs": 1, "hex": "a914799b399bb011c7e76e273a36a26925e99cfa144287", "addresses": ["3Cn1dymNsZrjyWwCVbXeQF4a5iUFFXi6sK"], "asm": "OP_HASH160 799b399bb011c7e76e273a36a26925e99cfa1442 OP_EQUAL", "type": "scripthash"}, "value": 37.95732964, "n": 21}, {"scriptPubKey": {"reqSigs": 1, "hex": "a9149c2b4fae8427adf1660c52de704c6e181de41b7687", "addresses": ["3FvmDnfepaGnorHnCawofWWg4ShD8Jp3u7"], "asm": "OP_HASH160 9c2b4fae8427adf1660c52de704c6e181de41b76 OP_EQUAL", "type": "scripthash"}, "value": 0.06659259, "n": 22}, {"scriptPubKey": {"reqSigs": 1, "hex": "76a914988fbeb2d680009391333a37f78c6efb76b7219a88ac", "addresses": ["1EufujM5Nj6hSfhwhZxUzqGbPTaWEoTKVJ"], "asm": "OP_DUP OP_HASH160 988fbeb2d680009391333a37f78c6efb76b7219a OP_EQUALVERIFY OP_CHECKSIG", "type": "pubkeyhash"}, "value": 0.01926269, "n": 23}, {"scriptPubKey": {"reqSigs": 1, "hex": "a91420b08777a50fbbb5c94bd7cd2463a016bc16d6d987", "addresses": ["34fs29JpNzr64Yzjzm3jn1MUcj3frD372G"], "asm": "OP_HASH160 20b08777a50fbbb5c94bd7cd2463a016bc16d6d9 OP_EQUAL", "type": "scripthash"}, "value": 0.01111704, "n": 24}, {"scriptPubKey": {"reqSigs": 1, "hex": "a914022f8b1763f5979034b19c8b693df0e734e1563887", "addresses": ["31taEJ6dVDqXyTQgcjSJjEhgELHBujwPhu"], "asm": "OP_HASH160 022f8b1763f5979034b19c8b693df0e734e15638 OP_EQUAL", "type": "scripthash"}, "value": 0.00341189, "n": 25}, {"scriptPubKey": {"reqSigs": 1, "hex": "a914106e5361784ba09f6adf87c99040eb3ffa4047e987", "addresses": ["33BtuBFJQ7dLReLxbRN2Qe8v47U9tNjg8L"], "asm": "OP_HASH160 106e5361784ba09f6adf87c99040eb3ffa4047e9 OP_EQUAL", "type": "scripthash"}, "value": 0.0037, "n": 26}, {"scriptPubKey": {"reqSigs": 1, "hex": "76a914459356fdefc63727ff10b6e7bfeda5c1b8193fdf88ac", "addresses": ["17Lt8az4aDWfFbZhSXVLXVyJJvKdHFsd22"], "asm": "OP_DUP OP_HASH160 459356fdefc63727ff10b6e7bfeda5c1b8193fdf OP_EQUALVERIFY OP_CHECKSIG", "type": "pubkeyhash"}, "value": 0.00209302, "n": 27}, {"scriptPubKey": {"reqSigs": 1, "hex": "a914285018254ca6b0be2055e8290f5b135255c2039c87", "addresses": ["35NAuGVDqsy36XQiDRXBmfztUTxJSYeYaQ"], "asm": "OP_HASH160 285018254ca6b0be2055e8290f5b135255c2039c OP_EQUAL", "type": "scripthash"}, "value": 0.00578877, "n": 28}, {"scriptPubKey": {"reqSigs": 1, "hex": "a9143cdc6496130f203294d1beb514176d38e88a0e2287", "addresses": ["37EpVDpHEX9Z7cP17561Txa1Mm4Gbzs3FL"], "asm": "OP_HASH160 3cdc6496130f203294d1beb514176d38e88a0e22 OP_EQUAL", "type": "scripthash"}, "value": 0.00938719, "n": 29}, {"scriptPubKey": {"reqSigs": 1, "hex": "76a9148d6e4ad0955e071eff79510d5500d6d9e83e37cd88ac", "addresses": ["1DtpQHgbjfxFtAxWmzzii46Wk6cEEqwBkh"], "asm": "OP_DUP OP_HASH160 8d6e4ad0955e071eff79510d5500d6d9e83e37cd OP_EQUALVERIFY OP_CHECKSIG", "type": "pubkeyhash"}, "value": 0.00238854, "n": 30}, {"scriptPubKey": {"reqSigs": 1, "hex": "a914755abb7621d2eb180b58b440df1f29d2985c07d387", "addresses": ["3CPXgBCUoofwk5ijtsZ9AkKJWHstZ4DvEg"], "asm": "OP_HASH160 755abb7621d2eb180b58b440df1f29d2985c07d3 OP_EQUAL", "type": "scripthash"}, "value": 0.00589052, "n": 31}, {"scriptPubKey": {"reqSigs": 1, "hex": "a914ba188e2c00622866a47ddce87bae3ead35dfbdf987", "addresses": ["3Jf12MrqdKKGtSP33y5k3HUmXbPX8kkrf7"], "asm": "OP_HASH160 ba188e2c00622866a47ddce87bae3ead35dfbdf9 OP_EQUAL", "type": "scripthash"}, "value": 0.00237289, "n": 32}, {"scriptPubKey": {"reqSigs": 1, "hex": "76a9142523fbf202ee5e4a9f7d1ce866a51f5aaddbd99588ac", "addresses": ["14PP7KdBrTP2BWGNjot89Qes1L1idHceWX"], "asm": "OP_DUP OP_HASH160 2523fbf202ee5e4a9f7d1ce866a51f5aaddbd995 OP_EQUALVERIFY OP_CHECKSIG", "type": "pubkeyhash"}, "value": 0.00621, "n": 33}, {"scriptPubKey": {"reqSigs": 1, "hex": "a9141074cb44fc4b8179eb8942f705607648ea904c8887", "addresses": ["33C2ebyp5uY9nbbWtotRKtZgEphRcTCQ9q"], "asm": "OP_HASH160 1074cb44fc4b8179eb8942f705607648ea904c88 OP_EQUAL", "type": "scripthash"}, "value": 0.00213013, "n": 34}], "hex": "0200000000010130fd653354e73418d9e7685d01a9845f842c62e8855ddb98f34451917d32ceb801000000171600149eda58cbcc69e94678f807ddf32966531e1c3507feffffff23987105000000000017a914360c215d12e853e9711cb5799c6d2b2cd7c3cb2087840d08000000000017a91479ed46df28e047f35bdfb1f35c5b50b75add059287404b4c00000000001976a91438a5a508458ee8554a42b247f66c92f027114d5488ac5db607000000000017a9145145ffd0d7f23a4966472f21517fad172507f38d87406609000000000017a914d6e0fea35efd66bf715bcad213b0eb898e89a40887200b2000000000001976a91450927f6ff2a00f835cdf9cf786525b3e7372651188acf4e605000000000017a914d2c8032f1ae2ccfb2430c7ad608716eba301f273873b5009000000000017a91482d26320c5f471668c92c74d6769af26821afbdc87879d03000000000017a914b05ea7214b5a421a8a7b73f5498e34b6351758e787ffb80700000000001976a9145d588dd8b220a18bc4bcbbc0232386a27e0c7e2c88ac30791d000000000017a91493cadd63444b683694ee9fcd4fd8ed50bf2ceb8887262003000000000017a914c22e5f0b321494f87b0bcb03eb302adff252c4ed87c53405000000000017a91446248998d19503871c81d6c2e9d7637b912c55088721d21300000000001976a9145a336b6c9e7b90774b87c9f750b8111304eb3f1288ac4ce20e00000000001976a914a3d57dc4064d47357d7155e1aed3cc3ccb0a1f4f88accafc00000000000017a9141c17641907abb2bac4baf35abba2de95a70d426c87935d0200000000001976a914e2480a308e17e3c5eb61154e301bc43f0e7e7cf388ac1e2b04000000000017a914e202d25a850034ef3c7dfeac31a57deca3811d9287ac6c0500000000001976a9144eef5e11ce976041f39a1442c1594609e5f31a4388ac0eb506000000000017a914a2f796f4c57032883b49bf0aec3c5b6f682ccfd38722bf05000000000017a91409537c04411ba18ea6d6032c6885e3ccee20ffee87e4493ee20000000017a914799b399bb011c7e76e273a36a26925e99cfa144287bb9c65000000000017a9149c2b4fae8427adf1660c52de704c6e181de41b76877d641d00000000001976a914988fbeb2d680009391333a37f78c6efb76b7219a88ac98f610000000000017a91420b08777a50fbbb5c94bd7cd2463a016bc16d6d987c53405000000000017a914022f8b1763f5979034b19c8b693df0e734e156388750a505000000000017a914106e5361784ba09f6adf87c99040eb3ffa4047e98796310300000000001976a914459356fdefc63727ff10b6e7bfeda5c1b8193fdf88ac3dd508000000000017a914285018254ca6b0be2055e8290f5b135255c2039c87df520e000000000017a9143cdc6496130f203294d1beb514176d38e88a0e228706a50300000000001976a9148d6e4ad0955e071eff79510d5500d6d9e83e37cd88acfcfc08000000000017a914755abb7621d2eb180b58b440df1f29d2985c07d387e99e03000000000017a914ba188e2c00622866a47ddce87bae3ead35dfbdf987c8790900000000001976a9142523fbf202ee5e4a9f7d1ce866a51f5aaddbd99588ac154003000000000017a9141074cb44fc4b8179eb8942f705607648ea904c8887024830450221009f797309ec06aa9f1c77a25c719162966bea46de29fca41cca1989d3b80c0ede02202527be48a82fc7fa2f5448aec85be0fb1c8249862105bb0d351d015622f4eb370121022c875f103cb049074fea63dfd754b168cb25e6cdcaff5b24fc3b864ee35a45ad0c490800", "vin": [{"txinwitness": ["30450221009f797309ec06aa9f1c77a25c719162966bea46de29fca41cca1989d3b80c0ede02202527be48a82fc7fa2f5448aec85be0fb1c8249862105bb0d351d015622f4eb3701", "022c875f103cb049074fea63dfd754b168cb25e6cdcaff5b24fc3b864ee35a45ad"], "sequence": 4294967294, "scriptSig": {"hex": "1600149eda58cbcc69e94678f807ddf32966531e1c3507", "asm": "00149eda58cbcc69e94678f807ddf32966531e1c3507"}, "vout": 1, "txid": "b8ce327d915144f398db5d85e8622c845f84a9015d68e7d91834e7543365fd30"}], "txid": "48393cdde4bd3a9bae5070150ec289b6a65aced1005f326666a9df90531fa0f4", "blocktime": 1537871767, "version": 2, "confirmations": 11490, "time": 1537871767, "locktime": 542988, "vsize": 1244, "size": 1326}