{"hash": "3fd5628c09df51580f10bf4c091278743751d2bc257a4cc04cf6f60538dd85fc", "blockhash": "00000000000000000017f5eb5941039fbcee6240d03bc1f2f8e35350df66a1d8", "vout": [{"scriptPubKey": {"reqSigs": 1, "hex": "0014ecc228f32c9854887d0a0df052db818a3dd9fe9e", "addresses": ["bc1qanpz3uevnp2gslg2phc99kup3g7anl57slkqgh"], "asm": "0 ecc228f32c9854887d0a0df052db818a3dd9fe9e", "type": "witness_v0_keyhash"}, "value": 0.00110712, "n": 0}, {"scriptPubKey": {"reqSigs": 1, "hex": "a914e1ca1eff570553ea0b167613087a8eeb4a163f4687", "addresses": ["3NGt6KnXECbA8anuaL5jWL651PeFicFTqQ"], "asm": "OP_HASH160 e1ca1eff570553ea0b167613087a8eeb4a163f46 OP_EQUAL", "type": "scripthash"}, "value": 0.00915, "n": 1}], "hex": "010000000001019f349ceedb3213f94e7fc42f5051ba0460f2c6724ddf50bee68868f6e6f292890100000000ffffffff0278b0010000000000160014ecc228f32c9854887d0a0df052db818a3dd9fe9e38f60d000000000017a914e1ca1eff570553ea0b167613087a8eeb4a163f4687024730440220120c8a20dd92d95f4b69e77a1c1e5d61530a8b4fd3033b1376440d98e662da7c0220251a3897454b85768ff2296a72f244a73f88d7998b3982e3e42d239767fe0961012102b4849b8127eb5eaecb8952ac5a336d6c5255529bb7028b63d2827c0085df550f00000000", "vin": [{"txinwitness": ["30440220120c8a20dd92d95f4b69e77a1c1e5d61530a8b4fd3033b1376440d98e662da7c0220251a3897454b85768ff2296a72f244a73f88d7998b3982e3e42d239767fe096101", "02b4849b8127eb5eaecb8952ac5a336d6c5255529bb7028b63d2827c0085df550f"], "sequence": 4294967295, "scriptSig": {"hex": "", "asm": ""}, "vout": 1, "txid": "8992f2e6f66888e6be50df4d72c6f26004ba51502fc47f4ef91332dbee9c349f"}], "txid": "483c48747e18a9d6394511f3fe26c08e31acb52de25abd273f2cd6dd5d4c2d5f", "blocktime": 1537874412, "version": 1, "confirmations": 11467, "time": 1537874412, "locktime": 0, "vsize": 142, "size": 223}