{"hash": "4840217573a0b8b9af699f782865ff21360f39f4851d9dd8ffae5f871430e7f3", "blockhash": "0000000000000000001e0dab787dd257d1dbfcb92a98c2207d5e1078be1f4165", "vout": [{"scriptPubKey": {"reqSigs": 1, "hex": "76a914a656a405ca1dcb180d1aeeaaf2285bcb74d4c37788ac", "addresses": ["1GAWxkH3YJyP48tDComqj1HopuYduu1W7g"], "asm": "OP_DUP OP_HASH160 a656a405ca1dcb180d1aeeaaf2285bcb74d4c377 OP_EQUALVERIFY OP_CHECKSIG", "type": "pubkeyhash"}, "value": 0.00093719, "n": 0}, {"scriptPubKey": {"reqSigs": 1, "hex": "76a914443a8eb6adb2d4daeef6028ddc5dae1928d12f5488ac", "addresses": ["17Dm6gyKgZ88jjkQFKH5hs35mc3NsHvH8B"], "asm": "OP_DUP OP_HASH160 443a8eb6adb2d4daeef6028ddc5dae1928d12f54 OP_EQUALVERIFY OP_CHECKSIG", "type": "pubkeyhash"}, "value": 0.00756005, "n": 1}], "hex": "010000000191a71138fa884b46b235b073e7784d255ab14b4098c195988aae0d0db9dbcce8050000006a47304402200376c422db47510248a53d13cdfeba9145a331e8783541cebe4d5b8358938b1202205b08b0cf6dbabbdb09139a4da8454748cdecd083f32883a44622e5e2183658c3012103665e29d1c488fa243292efd212355ac0ec8de98fa1bc6019407da2ee2bc1e2ceffffffff02176e0100000000001976a914a656a405ca1dcb180d1aeeaaf2285bcb74d4c37788ac25890b00000000001976a914443a8eb6adb2d4daeef6028ddc5dae1928d12f5488ac00000000", "vin": [{"sequence": 4294967295, "scriptSig": {"hex": "47304402200376c422db47510248a53d13cdfeba9145a331e8783541cebe4d5b8358938b1202205b08b0cf6dbabbdb09139a4da8454748cdecd083f32883a44622e5e2183658c3012103665e29d1c488fa243292efd212355ac0ec8de98fa1bc6019407da2ee2bc1e2ce", "asm": "304402200376c422db47510248a53d13cdfeba9145a331e8783541cebe4d5b8358938b1202205b08b0cf6dbabbdb09139a4da8454748cdecd083f32883a44622e5e2183658c3[ALL] 03665e29d1c488fa243292efd212355ac0ec8de98fa1bc6019407da2ee2bc1e2ce"}, "vout": 5, "txid": "e8ccdbb90d0dae8a9895c198404bb15a254d78e773b035b2464b88fa3811a791"}], "txid": "4840217573a0b8b9af699f782865ff21360f39f4851d9dd8ffae5f871430e7f3", "blocktime": 1537872475, "version": 1, "confirmations": 11486, "time": 1537872475, "locktime": 0, "vsize": 225, "size": 225}