{"hash": "484bfa8ee2f59ef8dd22fd4236bf7303f409317186c03de9c25fdd4aacd3741e", "blockhash": "0000000000000000000e13cef7c366c0283d82e591d1acd082e914b08063cdf1", "vout": [{"scriptPubKey": {"reqSigs": 1, "hex": "76a9147f945604e948154066b3ebf4624a57e9ad8586f688ac", "addresses": ["1CdaWvu9PKinM7wEj1w2sXXzZJ1fViT6CN"], "asm": "OP_DUP OP_HASH160 7f945604e948154066b3ebf4624a57e9ad8586f6 OP_EQUALVERIFY OP_CHECKSIG", "type": "pubkeyhash"}, "value": 0.11471, "n": 0}, {"scriptPubKey": {"reqSigs": 1, "hex": "76a9148228f48a2dc25de206b355fa9963fbc5216e587388ac", "addresses": ["1CsDuZLJLjjuGm53YWueqMm6ZyLkxEbsb3"], "asm": "OP_DUP OP_HASH160 8228f48a2dc25de206b355fa9963fbc5216e5873 OP_EQUALVERIFY OP_CHECKSIG", "type": "pubkeyhash"}, "value": 0.0165439, "n": 1}], "hex": "02000000022da62e5c27a481e0bc02dd6b7139a10b000fea2e5ea1a1c3eb112e05c79a7eba010000006a4730440220427ad5354876197468e1599b43cacb54dceef5cc1dc539b71a07754c213c2bfb022026f5999745425e0bb5a38f562ded5eb2f155a7f1a141a8b0969dee22c204e5f90121036263d0952e1f78b297daae0818a11e590d7dd01a39dc9efaa4e7f0545990398dfeffffff2e84b9a66c25aaa5b8a9d1e6866c7281b52223f9be4bb293502e6f25feae3345000000006a473044022054ee3128724011a739e449d3b611aa947a7dcf190d13a455fd02ba021d13db400220692c7efa3b9d80f678564f77ec9077016132b44d5ed6a4ff99699f67d2cc5f2f0121031c7639a26c46d2790ea470dbc93bf4615c7c2e084cfb5626a943440c04084c6cfeffffff029808af00000000001976a9147f945604e948154066b3ebf4624a57e9ad8586f688ac763e1900000000001976a9148228f48a2dc25de206b355fa9963fbc5216e587388ac10490800", "vin": [{"sequence": 4294967294, "scriptSig": {"hex": "4730440220427ad5354876197468e1599b43cacb54dceef5cc1dc539b71a07754c213c2bfb022026f5999745425e0bb5a38f562ded5eb2f155a7f1a141a8b0969dee22c204e5f90121036263d0952e1f78b297daae0818a11e590d7dd01a39dc9efaa4e7f0545990398d", "asm": "30440220427ad5354876197468e1599b43cacb54dceef5cc1dc539b71a07754c213c2bfb022026f5999745425e0bb5a38f562ded5eb2f155a7f1a141a8b0969dee22c204e5f9[ALL] 036263d0952e1f78b297daae0818a11e590d7dd01a39dc9efaa4e7f0545990398d"}, "vout": 1, "txid": "ba7e9ac7052e11ebc3a1a15e2eea0f000ba139716bdd02bce081a4275c2ea62d"}, {"sequence": 4294967294, "scriptSig": {"hex": "473044022054ee3128724011a739e449d3b611aa947a7dcf190d13a455fd02ba021d13db400220692c7efa3b9d80f678564f77ec9077016132b44d5ed6a4ff99699f67d2cc5f2f0121031c7639a26c46d2790ea470dbc93bf4615c7c2e084cfb5626a943440c04084c6c", "asm": "3044022054ee3128724011a739e449d3b611aa947a7dcf190d13a455fd02ba021d13db400220692c7efa3b9d80f678564f77ec9077016132b44d5ed6a4ff99699f67d2cc5f2f[ALL] 031c7639a26c46d2790ea470dbc93bf4615c7c2e084cfb5626a943440c04084c6c"}, "vout": 0, "txid": "4533aefe256f2e5093b24bbef92322b581726c86e6d1a9b8a5aa256ca6b9842e"}], "txid": "484bfa8ee2f59ef8dd22fd4236bf7303f409317186c03de9c25fdd4aacd3741e", "blocktime": 1537871767, "version": 2, "confirmations": 11490, "time": 1537871767, "locktime": 542992, "vsize": 372, "size": 372}