{"hash": "484e7bf9ad3502e09bd4299be3441409199be7b71f93a3c28c914da63776815f", "blockhash": "0000000000000000001cda96e906b7601b7a6fb1a3b62bca570a9e5d8f4b3de1", "vout": [{"scriptPubKey": {"reqSigs": 1, "hex": "76a914e4841fab31e1faf69acde834891066de1eb419d988ac", "addresses": ["1MqHLrVinGK3aPLnuWwdywJjUFgAf6HJUc"], "asm": "OP_DUP OP_HASH160 e4841fab31e1faf69acde834891066de1eb419d9 OP_EQUALVERIFY OP_CHECKSIG", "type": "pubkeyhash"}, "value": 0.00638309, "n": 0}, {"scriptPubKey": {"type": "nulldata", "hex": "6a4c50000077be00015178dc35fb7d49156a5a78dae5bf9ae76da98a211aaf6c953dd567cf27e7cd374cd13bfb09eabf2080a35ffc7ab95baa127e0612e274507375e11d100759d4ba30d2c37bb011d97e02cf", "asm": "OP_RETURN 000077be00015178dc35fb7d49156a5a78dae5bf9ae76da98a211aaf6c953dd567cf27e7cd374cd13bfb09eabf2080a35ffc7ab95baa127e0612e274507375e11d100759d4ba30d2c37bb011d97e02cf"}, "value": 0.0, "n": 1}], "hex": "0100000001b1a71da9deca8b16451037995f5ffdfd2caf551f18e9e5d5e6ec381a4d25d73d010000006a473044022077c0c3ddf74d768f601e62f7a91060211837fadcebc37797098ae95d4522336c022049c8071544ed62d5fec5aa69b5eb60b3b3ffea1291a9a9b323425c204adb5d9e012102793f33098565240e5a18c1dab18512d24866e8bfc50f43facdd4e453c7d818beffffffff0265bd0900000000001976a914e4841fab31e1faf69acde834891066de1eb419d988ac0000000000000000536a4c50000077be00015178dc35fb7d49156a5a78dae5bf9ae76da98a211aaf6c953dd567cf27e7cd374cd13bfb09eabf2080a35ffc7ab95baa127e0612e274507375e11d100759d4ba30d2c37bb011d97e02cf00000000", "vin": [{"sequence": 4294967295, "scriptSig": {"hex": "473044022077c0c3ddf74d768f601e62f7a91060211837fadcebc37797098ae95d4522336c022049c8071544ed62d5fec5aa69b5eb60b3b3ffea1291a9a9b323425c204adb5d9e012102793f33098565240e5a18c1dab18512d24866e8bfc50f43facdd4e453c7d818be", "asm": "3044022077c0c3ddf74d768f601e62f7a91060211837fadcebc37797098ae95d4522336c022049c8071544ed62d5fec5aa69b5eb60b3b3ffea1291a9a9b323425c204adb5d9e[ALL] 02793f33098565240e5a18c1dab18512d24866e8bfc50f43facdd4e453c7d818be"}, "vout": 1, "txid": "3dd7254d1a38ece6d5e5e9181f55af2cfdfd5f5f99371045168bcadea91da7b1"}], "txid": "484e7bf9ad3502e09bd4299be3441409199be7b71f93a3c28c914da63776815f", "blocktime": 1537873282, "version": 1, "confirmations": 11484, "time": 1537873282, "locktime": 0, "vsize": 283, "size": 283}