{"hash": "d2de65da882d22c3211f4877a4281a7994206da0156f5f04a532df56ad46b4dd", "blockhash": "0000000000000000001e0dab787dd257d1dbfcb92a98c2207d5e1078be1f4165", "vout": [{"scriptPubKey": {"reqSigs": 1, "hex": "a914c292f0bcb9f61c9a6ff1fdfea324489c6676289387", "addresses": ["3KRq3MZuT3fFoEXgDgaWTyQ6m2DkXB4hwP"], "asm": "OP_HASH160 c292f0bcb9f61c9a6ff1fdfea324489c66762893 OP_EQUAL", "type": "scripthash"}, "value": 97.29997975, "n": 0}, {"scriptPubKey": {"reqSigs": 1, "hex": "76a914452c334aeec40bc48a57ac42fea9a655a478bba888ac", "addresses": ["17JkaLDVZo8xfLvWqccqUtA98UfzNp6H4H"], "asm": "OP_DUP OP_HASH160 452c334aeec40bc48a57ac42fea9a655a478bba8 OP_EQUALVERIFY OP_CHECKSIG", "type": "pubkeyhash"}, "value": 0.3, "n": 1}], "hex": "02000000000101603a25134084edc61c6635e38cc1b42609b133bd215a13dd19cb01642de336bb0000000017160014b4fea2a7be3a7b71da637477264ef3ee4751635cfdffffff0297fcf3430200000017a914c292f0bcb9f61c9a6ff1fdfea324489c667628938780c3c901000000001976a914452c334aeec40bc48a57ac42fea9a655a478bba888ac02483045022100df677d14783aeffd23db18586f4ea59ac2d6b7de238fab68330522406cd1770002205a9ccc9d362f1c6c17fefe936601dafcb05986e5b5889748a04c13a697222bf9012103cd8536f6b85b5f78c5bab45a4f5607bbdc0db7741c39b4ee80595befbeeb05bd0a490800", "vin": [{"txinwitness": ["3045022100df677d14783aeffd23db18586f4ea59ac2d6b7de238fab68330522406cd1770002205a9ccc9d362f1c6c17fefe936601dafcb05986e5b5889748a04c13a697222bf901", "03cd8536f6b85b5f78c5bab45a4f5607bbdc0db7741c39b4ee80595befbeeb05bd"], "sequence": 4294967293, "scriptSig": {"hex": "160014b4fea2a7be3a7b71da637477264ef3ee4751635c", "asm": "0014b4fea2a7be3a7b71da637477264ef3ee4751635c"}, "vout": 0, "txid": "bb36e32d6401cb19dd135a21bd33b10926b4c18ce335661cc6ed844013253a60"}], "txid": "484e62ed2ea48bdf516f066fb35aca62ca5c58effdb5391d3468189472812298", "blocktime": 1537872475, "version": 2, "confirmations": 11486, "time": 1537872475, "locktime": 542986, "vsize": 168, "size": 250}