{"hash": "678709039d75a5240106def4296483e5699840977ab2fb4aa23e543c94d1836d", "blockhash": "0000000000000000000baef3f32e3676a92c3b2e5da21b426e4f302fc371ce76", "vout": [{"scriptPubKey": {"reqSigs": 1, "hex": "76a91401e7a921be4332389575765177510ba8855e5a1188ac", "addresses": ["1B5CFw3KyyXMKMXihVxH8xc4LDSzjXKHD"], "asm": "OP_DUP OP_HASH160 01e7a921be4332389575765177510ba8855e5a11 OP_EQUALVERIFY OP_CHECKSIG", "type": "pubkeyhash"}, "value": 0.0018266, "n": 0}, {"scriptPubKey": {"reqSigs": 1, "hex": "a914eec646c22d2831e9ad5c548161044d4e1971e7c287", "addresses": ["3PTYGghJbbY1VNR1C2nnR9Bf73qQz7RmG4"], "asm": "OP_HASH160 eec646c22d2831e9ad5c548161044d4e1971e7c2 OP_EQUAL", "type": "scripthash"}, "value": 0.01007174, "n": 1}], "hex": "020000000001029b6d510d3c38835fdb3ac3f2fa72349126bbaa31192f5ab5124455823a74a2130900000017160014b46b61a1533868564515e227c68d0ac31f1feb5dfeffffffb6d20356d33d79b9f2a4f36d13b6adb58bbc6ef53b33191f97e680231757aba10100000017160014794fedb62cd0cc8ba3e31cbda5f3edbc66d8a8cdfeffffff0284c90200000000001976a91401e7a921be4332389575765177510ba8855e5a1188ac465e0f000000000017a914eec646c22d2831e9ad5c548161044d4e1971e7c28702483045022100f06f2c9df1ba4669a4e3e53cd67e95ad240cf8e026d42efa375d9126bda32c150220492abdb28f9ba6e8d1775544c51e3ec33c04d54d9ab75d677c6f977edaeaa6d20121036ffcbb40f69f51e65133ad05b6b49a0604ba50cf67f84c74d4cc720e8367574a0248304502210083eb9c8e4e3c4d4052e72b8e7f03ba0afe28a3095f2f7d4645a522c4b86d01f70220592ae257e975e109242c8a816d51d27f348f470fc64ae34dced933328cc0709a0121029d60e0584a0d57e3962a2676a226d4455a185977cfab8425277d8df48f3c594417490800", "vin": [{"txinwitness": ["3045022100f06f2c9df1ba4669a4e3e53cd67e95ad240cf8e026d42efa375d9126bda32c150220492abdb28f9ba6e8d1775544c51e3ec33c04d54d9ab75d677c6f977edaeaa6d201", "036ffcbb40f69f51e65133ad05b6b49a0604ba50cf67f84c74d4cc720e8367574a"], "sequence": 4294967294, "scriptSig": {"hex": "160014b46b61a1533868564515e227c68d0ac31f1feb5d", "asm": "0014b46b61a1533868564515e227c68d0ac31f1feb5d"}, "vout": 9, "txid": "13a2743a82554412b55a2f1931aabb26913472faf2c33adb5f83383c0d516d9b"}, {"txinwitness": ["304502210083eb9c8e4e3c4d4052e72b8e7f03ba0afe28a3095f2f7d4645a522c4b86d01f70220592ae257e975e109242c8a816d51d27f348f470fc64ae34dced933328cc0709a01", "029d60e0584a0d57e3962a2676a226d4455a185977cfab8425277d8df48f3c5944"], "sequence": 4294967294, "scriptSig": {"hex": "160014794fedb62cd0cc8ba3e31cbda5f3edbc66d8a8cd", "asm": "0014794fedb62cd0cc8ba3e31cbda5f3edbc66d8a8cd"}, "vout": 1, "txid": "a1ab57172380e6971f19333bf56ebc8bb5adb6136df3a4f2b9793dd35603d2b6"}], "txid": "484fd63bf336f729de2fc2d8bb9ad7ff5d9a0b58127d6b6a86d172871add1bec", "blocktime": 1537876114, "version": 2, "confirmations": 11462, "time": 1537876114, "locktime": 542999, "vsize": 259, "size": 422}