{"hash": "485051ef6984e19a4cd898c76f8cae6286fb10130e2d9f538ff45adfb58ee3b5", "blockhash": "000000000000000000022b45ed06c6f4ccd3cf7fb5ba4856ebd2e58215665228", "vout": [{"scriptPubKey": {"reqSigs": 1, "hex": "76a91428bf4a87c37402fb7489ab50f436face506c79ca88ac", "addresses": ["14iTBpE3aGjQx8LjoEMfZxhAArPxjRaid2"], "asm": "OP_DUP OP_HASH160 28bf4a87c37402fb7489ab50f436face506c79ca OP_EQUALVERIFY OP_CHECKSIG", "type": "pubkeyhash"}, "value": 0.00648346, "n": 0}, {"scriptPubKey": {"reqSigs": 1, "hex": "a9148cc417ebf2e7232b71b9fcbf8ed0dffe3baf5db387", "addresses": ["3EXKSDDHFVFJCwzAm7rrxL1Wzkeieitz7z"], "asm": "OP_HASH160 8cc417ebf2e7232b71b9fcbf8ed0dffe3baf5db3 OP_EQUAL", "type": "scripthash"}, "value": 0.04, "n": 1}], "hex": "01000000010262be34502aa7693aadddb13df5d9c1d4517c5af239cb5b2c05672cb6a71bd3010000006b483045022100f380617ac8c758d87b2b1ab1ccc575d1823e931e945cbd552bc6d5d2cedb191c02201cc3e8ed2deec28f3862071c2fbb2854cc365e13317c4cd44d694d9a6950bd52012102cc79b30b9bfd3c0879f2d0de98dc4459ee8963f22f718c196103a9b7b861e3b1ffffffff029ae40900000000001976a91428bf4a87c37402fb7489ab50f436face506c79ca88ac00093d000000000017a9148cc417ebf2e7232b71b9fcbf8ed0dffe3baf5db38700000000", "vin": [{"sequence": 4294967295, "scriptSig": {"hex": "483045022100f380617ac8c758d87b2b1ab1ccc575d1823e931e945cbd552bc6d5d2cedb191c02201cc3e8ed2deec28f3862071c2fbb2854cc365e13317c4cd44d694d9a6950bd52012102cc79b30b9bfd3c0879f2d0de98dc4459ee8963f22f718c196103a9b7b861e3b1", "asm": "3045022100f380617ac8c758d87b2b1ab1ccc575d1823e931e945cbd552bc6d5d2cedb191c02201cc3e8ed2deec28f3862071c2fbb2854cc365e13317c4cd44d694d9a6950bd52[ALL] 02cc79b30b9bfd3c0879f2d0de98dc4459ee8963f22f718c196103a9b7b861e3b1"}, "vout": 1, "txid": "d31ba7b62c67052c5bcb39f25a7c51d4c1d9f53db1ddad3a69a72a5034be6202"}], "txid": "485051ef6984e19a4cd898c76f8cae6286fb10130e2d9f538ff45adfb58ee3b5", "blocktime": 1537869901, "version": 1, "confirmations": 11524, "time": 1537869901, "locktime": 0, "vsize": 224, "size": 224}