{"hash": "60450806c5f626851213fa031706e8d1fed014193468ad25ee142bab49aee444", "blockhash": "0000000000000000001e0dab787dd257d1dbfcb92a98c2207d5e1078be1f4165", "vout": [{"scriptPubKey": {"reqSigs": 1, "hex": "76a914707aec8ec8fded35c2f3195b815a960bc4b67b5288ac", "addresses": ["1BFjwQ5r5AFn6zRQR7GeQcY2iFZY5ZTea2"], "asm": "OP_DUP OP_HASH160 707aec8ec8fded35c2f3195b815a960bc4b67b52 OP_EQUALVERIFY OP_CHECKSIG", "type": "pubkeyhash"}, "value": 0.00185675, "n": 0}, {"scriptPubKey": {"reqSigs": 1, "hex": "a914414cec0fc72a9410f6836edaf08de1aa3b2a321c87", "addresses": ["37eHzewnAFRR2SVZu8rZM3nBsmuE2XBU7D"], "asm": "OP_HASH160 414cec0fc72a9410f6836edaf08de1aa3b2a321c OP_EQUAL", "type": "scripthash"}, "value": 0.26191561, "n": 1}], "hex": "01000000000101435f934083ba3e2540f6e72abe317800f4936449e28759fd1a72f6bf5ca497e30100000023220020ce74cde37cfb8dd71d0179287e12fc721ee236ce3c89c2745bcd365b39807eb3ffffffff024bd50200000000001976a914707aec8ec8fded35c2f3195b815a960bc4b67b5288acc9a68f010000000017a914414cec0fc72a9410f6836edaf08de1aa3b2a321c87040047304402205fc483dcf3ab7dc9d9947d6784083463524f4b1f8a1c868dfc67fea7795c937a02205df2839a2b70cb9da0fae34afe27fb027b0e628f8f7d522fc78fd7cf4a5ee9bf014730440220194ab47c52027d48022250a6944ed1f594f4167561e10315b8aaa797c2e02d4702200ac0eb44b8afd452ef066421fa809c05444cd93d7d079fa07753ba762a29ab3c0147522103ada901d90d5a76319a60f228e0b1bbc84b1d9a87238550bae5d5d190067b66712103871fc2ca08e6950b38867e8e6a0e94ee625223d3aa0df5c65f414c6d784467e252ae00000000", "vin": [{"txinwitness": ["", "304402205fc483dcf3ab7dc9d9947d6784083463524f4b1f8a1c868dfc67fea7795c937a02205df2839a2b70cb9da0fae34afe27fb027b0e628f8f7d522fc78fd7cf4a5ee9bf01", "30440220194ab47c52027d48022250a6944ed1f594f4167561e10315b8aaa797c2e02d4702200ac0eb44b8afd452ef066421fa809c05444cd93d7d079fa07753ba762a29ab3c01", "522103ada901d90d5a76319a60f228e0b1bbc84b1d9a87238550bae5d5d190067b66712103871fc2ca08e6950b38867e8e6a0e94ee625223d3aa0df5c65f414c6d784467e252ae"], "sequence": 4294967295, "scriptSig": {"hex": "220020ce74cde37cfb8dd71d0179287e12fc721ee236ce3c89c2745bcd365b39807eb3", "asm": "0020ce74cde37cfb8dd71d0179287e12fc721ee236ce3c89c2745bcd365b39807eb3"}, "vout": 1, "txid": "e397a45cbff6721afd5987e2496493f4007831be2ae7f640253eba8340935f43"}], "txid": "485155a822d00a2462af77311af134ca5175e469e635b6d3a69655754708cf15", "blocktime": 1537872475, "version": 1, "confirmations": 11487, "time": 1537872475, "locktime": 0, "vsize": 207, "size": 372}