{"hash": "485430cb8fa6bb344a4cbd4e40921ef3a402a04a785b575b1c7201889656507f", "blockhash": "00000000000000000017f5eb5941039fbcee6240d03bc1f2f8e35350df66a1d8", "vout": [{"scriptPubKey": {"reqSigs": 1, "hex": "76a9148cd1e3beafb9d22e76b9d1dc0f10caf75ed2126c88ac", "addresses": ["1Dqb3F7USEP1Ar7SGUzSgp7efnPiYqUR2R"], "asm": "OP_DUP OP_HASH160 8cd1e3beafb9d22e76b9d1dc0f10caf75ed2126c OP_EQUALVERIFY OP_CHECKSIG", "type": "pubkeyhash"}, "value": 3e-05, "n": 0}, {"scriptPubKey": {"reqSigs": 1, "hex": "76a914ba79e1760586ea5464969c5f1b8cb9e603c1ccf488ac", "addresses": ["1Hzzh6puyir2q2Yv4xS4WQ31o5MkYy2sk5"], "asm": "OP_DUP OP_HASH160 ba79e1760586ea5464969c5f1b8cb9e603c1ccf4 OP_EQUALVERIFY OP_CHECKSIG", "type": "pubkeyhash"}, "value": 0.09810869, "n": 1}], "hex": "010000000139565e7090f871bc95d0c2154fa75f85d6591a16385b2c9f999288866490909f000000006a4730440220694808303013892deba1e15c7df5ea9ca5cea657e11585701a65eb8027c0df2802207d2d82f256b112ee01e12eb7f94b4edf3ed8995c32a16fdef825c5f491cee914012102b7eb6c286fc4d420526bbe7e04884833f9141e381f0a22a055bc3461ae9c0268feffffff02b80b0000000000001976a9148cd1e3beafb9d22e76b9d1dc0f10caf75ed2126c88acb5b39500000000001976a914ba79e1760586ea5464969c5f1b8cb9e603c1ccf488ac15490800", "vin": [{"sequence": 4294967294, "scriptSig": {"hex": "4730440220694808303013892deba1e15c7df5ea9ca5cea657e11585701a65eb8027c0df2802207d2d82f256b112ee01e12eb7f94b4edf3ed8995c32a16fdef825c5f491cee914012102b7eb6c286fc4d420526bbe7e04884833f9141e381f0a22a055bc3461ae9c0268", "asm": "30440220694808303013892deba1e15c7df5ea9ca5cea657e11585701a65eb8027c0df2802207d2d82f256b112ee01e12eb7f94b4edf3ed8995c32a16fdef825c5f491cee914[ALL] 02b7eb6c286fc4d420526bbe7e04884833f9141e381f0a22a055bc3461ae9c0268"}, "vout": 0, "txid": "9f909064868892999f2c5b38161a59d6855fa74f15c2d095bc71f890705e5639"}], "txid": "485430cb8fa6bb344a4cbd4e40921ef3a402a04a785b575b1c7201889656507f", "blocktime": 1537874412, "version": 1, "confirmations": 11468, "time": 1537874412, "locktime": 542997, "vsize": 225, "size": 225}