{"hash": "485513ed9d88d8019967169077fd86554a3f65d745d2c23924b418137b1020e8", "blockhash": "000000000000000000022b45ed06c6f4ccd3cf7fb5ba4856ebd2e58215665228", "vout": [{"scriptPubKey": {"reqSigs": 1, "hex": "76a914813707ba1c54a086bf114f3bac2f35730de6bb3188ac", "addresses": ["1CnE6JztHMSFLjFNAP2kYSYX8hp35LfHiZ"], "asm": "OP_DUP OP_HASH160 813707ba1c54a086bf114f3bac2f35730de6bb31 OP_EQUALVERIFY OP_CHECKSIG", "type": "pubkeyhash"}, "value": 0.00132984, "n": 0}, {"scriptPubKey": {"type": "nulldata", "hex": "6a4c500000776500018bffff623cfe112441cdc70386aeaeacb577c031fc3a016b46dc7dc7d0968359b37dcedfd75b87abd0b05dc9b8465baa07fa0612c6675664fc4cbc9a9526289ac0f6612cd74e33776ee4", "asm": "OP_RETURN 0000776500018bffff623cfe112441cdc70386aeaeacb577c031fc3a016b46dc7dc7d0968359b37dcedfd75b87abd0b05dc9b8465baa07fa0612c6675664fc4cbc9a9526289ac0f6612cd74e33776ee4"}, "value": 0.0, "n": 1}], "hex": "010000000129b40c2744c0255dc49d34b124018cdbae2d25edcb697cf9fd851fd3620cc0a1010000006a47304402201d5c093ec3a5f1dd06d4267c882aa766dd548bcf6a97a4bb3b497b7cb9226be802201c08ba3dca0ba2228d2b1a5e2275248d2b415a0d0a623497bf2277d96adcdf95012102d98234e55a8f3c203f158d18faf7e0681ee0d9b237e5a6f5c9d54c6ede21b895ffffffff0278070200000000001976a914813707ba1c54a086bf114f3bac2f35730de6bb3188ac0000000000000000536a4c500000776500018bffff623cfe112441cdc70386aeaeacb577c031fc3a016b46dc7dc7d0968359b37dcedfd75b87abd0b05dc9b8465baa07fa0612c6675664fc4cbc9a9526289ac0f6612cd74e33776ee400000000", "vin": [{"sequence": 4294967295, "scriptSig": {"hex": "47304402201d5c093ec3a5f1dd06d4267c882aa766dd548bcf6a97a4bb3b497b7cb9226be802201c08ba3dca0ba2228d2b1a5e2275248d2b415a0d0a623497bf2277d96adcdf95012102d98234e55a8f3c203f158d18faf7e0681ee0d9b237e5a6f5c9d54c6ede21b895", "asm": "304402201d5c093ec3a5f1dd06d4267c882aa766dd548bcf6a97a4bb3b497b7cb9226be802201c08ba3dca0ba2228d2b1a5e2275248d2b415a0d0a623497bf2277d96adcdf95[ALL] 02d98234e55a8f3c203f158d18faf7e0681ee0d9b237e5a6f5c9d54c6ede21b895"}, "vout": 1, "txid": "a1c00c62d31f85fdf97c69cbed252daedb8c0124b1349dc45d25c044270cb429"}], "txid": "485513ed9d88d8019967169077fd86554a3f65d745d2c23924b418137b1020e8", "blocktime": 1537869901, "version": 1, "confirmations": 11523, "time": 1537869901, "locktime": 0, "vsize": 283, "size": 283}