{"hash": "485c6ab456408ca3b428637dfa3812a13d54c133af5e868334e8f0a74ee9d214", "blockhash": "0000000000000000001f0ddff1eddb255c1121bcd4da4f1bc9a0da00cae72433", "vout": [{"scriptPubKey": {"reqSigs": 1, "hex": "a914604e698882dbd08b29264732289c67a8aa6c5ce887", "addresses": ["3AUEj8vNA6Gkjv9EKKaXrtMrKVv8z5DCFN"], "asm": "OP_HASH160 604e698882dbd08b29264732289c67a8aa6c5ce8 OP_EQUAL", "type": "scripthash"}, "value": 0.01561, "n": 0}, {"scriptPubKey": {"reqSigs": 1, "hex": "76a914b9afac83a1865673e682cbf4b2af7b353e6bfce588ac", "addresses": ["1HvpTXPsmRzS8EQrrJBg92KqXHGA8nExbD"], "asm": "OP_DUP OP_HASH160 b9afac83a1865673e682cbf4b2af7b353e6bfce5 OP_EQUALVERIFY OP_CHECKSIG", "type": "pubkeyhash"}, "value": 0.02834745, "n": 1}], "hex": "01000000018430b1a5732d93529e2d4447b9691e12d5c0ab34cb15c08f9c30544b0e274efd010000006b483045022100ccdcded91420b5dcb0672e5daa4ab04ac37cda8e2e3e9b2c1bc312e08059ab330220559933e636d494350997a43c6ea3d004a5a344b341810d13c61074ed7918c88801210280987703ffe76943b50e3852c22a25767c8071176e041d47e4c25137d193c13fffffffff02a8d117000000000017a914604e698882dbd08b29264732289c67a8aa6c5ce88739412b00000000001976a914b9afac83a1865673e682cbf4b2af7b353e6bfce588ac00000000", "vin": [{"sequence": 4294967295, "scriptSig": {"hex": "483045022100ccdcded91420b5dcb0672e5daa4ab04ac37cda8e2e3e9b2c1bc312e08059ab330220559933e636d494350997a43c6ea3d004a5a344b341810d13c61074ed7918c88801210280987703ffe76943b50e3852c22a25767c8071176e041d47e4c25137d193c13f", "asm": "3045022100ccdcded91420b5dcb0672e5daa4ab04ac37cda8e2e3e9b2c1bc312e08059ab330220559933e636d494350997a43c6ea3d004a5a344b341810d13c61074ed7918c888[ALL] 0280987703ffe76943b50e3852c22a25767c8071176e041d47e4c25137d193c13f"}, "vout": 1, "txid": "fd4e270e4b54309c8fc015cb34abc0d5121e69b947442d9e52932d73a5b13084"}], "txid": "485c6ab456408ca3b428637dfa3812a13d54c133af5e868334e8f0a74ee9d214", "blocktime": 1537872018, "version": 1, "confirmations": 11489, "time": 1537872018, "locktime": 0, "vsize": 224, "size": 224}