{"hash": "2f58745416c6253d4ccd101e799c809bb850ba5e6fe64772c4ea01eb36b16e65", "blockhash": "0000000000000000001e0dab787dd257d1dbfcb92a98c2207d5e1078be1f4165", "vout": [{"scriptPubKey": {"reqSigs": 1, "hex": "a914687f2315319d4a6c662fee10173a5a643af384d687", "addresses": ["3BDYW8XprA5NRWM54uCfDSa4X8TX2Ud2MY"], "asm": "OP_HASH160 687f2315319d4a6c662fee10173a5a643af384d6 OP_EQUAL", "type": "scripthash"}, "value": 0.0728, "n": 0}, {"scriptPubKey": {"reqSigs": 1, "hex": "0014fb0297b4a02919c5f5b3810af598fdfd595da9bd", "addresses": ["bc1qlvpf0d9q9yvutadnsy90tx8al4v4m2daj6pxvr"], "asm": "0 fb0297b4a02919c5f5b3810af598fdfd595da9bd", "type": "witness_v0_keyhash"}, "value": 0.00031012, "n": 1}], "hex": "01000000000101d05b673667a3f7fbc64ee016fdbdc9ada76de11941a652d667e2179d00a49bfd60000000171600142ac490ba49fd79f630eebbd12d60c5bc3498412bffffffff0280156f000000000017a914687f2315319d4a6c662fee10173a5a643af384d6872479000000000000160014fb0297b4a02919c5f5b3810af598fdfd595da9bd02483045022100e3f98f3a768ceab1e9334c1a09707874a16634828b09fa8374bc8f6da222b1ed02201f493f45a405ecc3b71cce9798bbf504242f7ea889e111887e654e5e693e7d4d012103703889184b8f2e75ce01cb25b87c6b12888e065907349081002c03f963852f2c00000000", "vin": [{"txinwitness": ["3045022100e3f98f3a768ceab1e9334c1a09707874a16634828b09fa8374bc8f6da222b1ed02201f493f45a405ecc3b71cce9798bbf504242f7ea889e111887e654e5e693e7d4d01", "03703889184b8f2e75ce01cb25b87c6b12888e065907349081002c03f963852f2c"], "sequence": 4294967295, "scriptSig": {"hex": "1600142ac490ba49fd79f630eebbd12d60c5bc3498412b", "asm": "00142ac490ba49fd79f630eebbd12d60c5bc3498412b"}, "vout": 96, "txid": "fd9ba4009d17e267d652a64119e16da7adc9bdfd16e04ec6fbf7a36736675bd0"}], "txid": "485e8c0d8b102fc8cdd337cf3aeb4a4eab207e551384c9076fed7df207a4b238", "blocktime": 1537872475, "version": 1, "confirmations": 11486, "time": 1537872475, "locktime": 0, "vsize": 165, "size": 247}