{"hash": "4863a140260db2abc3c7f77c44fb97de8d0f5ffd03dd989337ee8a32872c3138", "blockhash": "00000000000000000024a2167bbff67b0be802c0b01cdd79e6331c2be6459f87", "vout": [{"scriptPubKey": {"reqSigs": 1, "hex": "a914bbd8131927a007b5bbc6e6703bb152d5f978c4d487", "addresses": ["3JpF8YRenKbJFA5DBEr8ksE7fPFDCXhk5a"], "asm": "OP_HASH160 bbd8131927a007b5bbc6e6703bb152d5f978c4d4 OP_EQUAL", "type": "scripthash"}, "value": 0.1951774, "n": 0}], "hex": "01000000044b2c1e2fbcf8bb879f17444f1e4addde9490ca2674f263fbeb944e740129730800000000d700483045022100d349fab100d72930d574939a336b6fa81a0a71c8880d8827cef00b3e1d8f84a302203658fd889a840701ab818322d8c4e42e02f3cb901a062af6b600b76a28ca0dd1014c8b5121031032699ce55d795e52a1417117b5d31bb59a7a3d0aeefb9d33c2d75fcfd3b65c21033f5de00d67944462dbbc043c018133de425fc6b1ce65a8ecce025d6ee4df5aa6210346b112e91986179950b7b7bfd43a0a38070deaeb9a46c692fa0834f54e7724612103e4725d4ff51a948c793aa9efba0cfb25e6eda15575304a4edeff082a7481ba9f54aeffffffffb318087d6fb26cc826838cd5972eae458d367879c58d905ca9e7463c426b1d2700000000d6004730440220072ebe0310b235825cdf7fda535878f13c7e2775f16f5fbb95d62c24759654750220080f12f3565f78763e1457430efc6854ab08433b43a9331f819b6b62885984d7014c8b51210259a6b8eb1e2b8182e4238472260f9b95a969b3472a74f920b92aac98949e7f6b21028360113a9a6e7acf040c29fb376b46daab98ffeec4418199458b245df326d3e521034c82e9abdbd1f0847fc1200be0e97200377f74e173f0f6b0e2acf25b8eaa75d021037db49a131bcb0c97b54669d15c4fef67529630c463c7155f9a9ed2b11539290954aeffffffff5293674fd75f0490d12a4662c586e28be24e6abf48d27af8b7a49bb590f4bdd906000000d700483045022100e86e8dca2e07b1e3dfecd22a10761b5ce9dd6436cca2ec46cd4c3cb928d7dd9202204b629702344b8ef2dbb882940d5eb1acc5efa20e6e208bbfb9b920a2ec87345b014c8b5121028894ab5ca9489bf24ed64338f73768d3156da72459f3772cf069cf9a90b832d92102d0de82a0da83476e5e1d922307ea5b7f9fc3e56f1c93b31455653b8f936311ca21031f07ca0a3b0eb55660a255b84c2fa86dee50a86cbc8b119d8e7b462461235afa2103770775da1d961da69ddb8acfd635c5f55ff8d007af8f976ea620f8ec400e821354aeffffffff5d804821b1828b17f868e67a9092116e0c75464d6f261b74dc5a78f4e97b89d900000000d60047304402200bea9bf224e07934bd0882932a35274fedf1c0fab5ee02902d882012bc80614302205c53202fbe510195a6e26d94d2874644b40502b6243fb6e925f3d9d55b052262014c8b5121022c876292af61ced85f3f7f8c58110871c1ae80fa441a6df446d73cf8221ee88221024bffdf314b6535fecd4f4b258f227fc392b33f6a4cc439a0a2bd215b6bbdd1992103957162dd8266c11c6ffc0fafa7d0155616f26d3df5b492949fc562b6461bade92103a07878f159651d4cf939c586547a85d043fa4a2d844e33eb040d750cde0244c954aeffffffff012cd129010000000017a914bbd8131927a007b5bbc6e6703bb152d5f978c4d48700000000", "vin": [{"sequence": 4294967295, "scriptSig": {"hex": "00483045022100d349fab100d72930d574939a336b6fa81a0a71c8880d8827cef00b3e1d8f84a302203658fd889a840701ab818322d8c4e42e02f3cb901a062af6b600b76a28ca0dd1014c8b5121031032699ce55d795e52a1417117b5d31bb59a7a3d0aeefb9d33c2d75fcfd3b65c21033f5de00d67944462dbbc043c018133de425fc6b1ce65a8ecce025d6ee4df5aa6210346b112e91986179950b7b7bfd43a0a38070deaeb9a46c692fa0834f54e7724612103e4725d4ff51a948c793aa9efba0cfb25e6eda15575304a4edeff082a7481ba9f54ae", "asm": "0 3045022100d349fab100d72930d574939a336b6fa81a0a71c8880d8827cef00b3e1d8f84a302203658fd889a840701ab818322d8c4e42e02f3cb901a062af6b600b76a28ca0dd1[ALL] 5121031032699ce55d795e52a1417117b5d31bb59a7a3d0aeefb9d33c2d75fcfd3b65c21033f5de00d67944462dbbc043c018133de425fc6b1ce65a8ecce025d6ee4df5aa6210346b112e91986179950b7b7bfd43a0a38070deaeb9a46c692fa0834f54e7724612103e4725d4ff51a948c793aa9efba0cfb25e6eda15575304a4edeff082a7481ba9f54ae"}, "vout": 0, "txid": "08732901744e94ebfb63f27426ca9094dedd4a1e4f44179f87bbf8bc2f1e2c4b"}, {"sequence": 4294967295, "scriptSig": {"hex": "004730440220072ebe0310b235825cdf7fda535878f13c7e2775f16f5fbb95d62c24759654750220080f12f3565f78763e1457430efc6854ab08433b43a9331f819b6b62885984d7014c8b51210259a6b8eb1e2b8182e4238472260f9b95a969b3472a74f920b92aac98949e7f6b21028360113a9a6e7acf040c29fb376b46daab98ffeec4418199458b245df326d3e521034c82e9abdbd1f0847fc1200be0e97200377f74e173f0f6b0e2acf25b8eaa75d021037db49a131bcb0c97b54669d15c4fef67529630c463c7155f9a9ed2b11539290954ae", "asm": "0 30440220072ebe0310b235825cdf7fda535878f13c7e2775f16f5fbb95d62c24759654750220080f12f3565f78763e1457430efc6854ab08433b43a9331f819b6b62885984d7[ALL] 51210259a6b8eb1e2b8182e4238472260f9b95a969b3472a74f920b92aac98949e7f6b21028360113a9a6e7acf040c29fb376b46daab98ffeec4418199458b245df326d3e521034c82e9abdbd1f0847fc1200be0e97200377f74e173f0f6b0e2acf25b8eaa75d021037db49a131bcb0c97b54669d15c4fef67529630c463c7155f9a9ed2b11539290954ae"}, "vout": 0, "txid": "271d6b423c46e7a95c908dc57978368d45ae2e97d58c8326c86cb26f7d0818b3"}, {"sequence": 4294967295, "scriptSig": {"hex": "00483045022100e86e8dca2e07b1e3dfecd22a10761b5ce9dd6436cca2ec46cd4c3cb928d7dd9202204b629702344b8ef2dbb882940d5eb1acc5efa20e6e208bbfb9b920a2ec87345b014c8b5121028894ab5ca9489bf24ed64338f73768d3156da72459f3772cf069cf9a90b832d92102d0de82a0da83476e5e1d922307ea5b7f9fc3e56f1c93b31455653b8f936311ca21031f07ca0a3b0eb55660a255b84c2fa86dee50a86cbc8b119d8e7b462461235afa2103770775da1d961da69ddb8acfd635c5f55ff8d007af8f976ea620f8ec400e821354ae", "asm": "0 3045022100e86e8dca2e07b1e3dfecd22a10761b5ce9dd6436cca2ec46cd4c3cb928d7dd9202204b629702344b8ef2dbb882940d5eb1acc5efa20e6e208bbfb9b920a2ec87345b[ALL] 5121028894ab5ca9489bf24ed64338f73768d3156da72459f3772cf069cf9a90b832d92102d0de82a0da83476e5e1d922307ea5b7f9fc3e56f1c93b31455653b8f936311ca21031f07ca0a3b0eb55660a255b84c2fa86dee50a86cbc8b119d8e7b462461235afa2103770775da1d961da69ddb8acfd635c5f55ff8d007af8f976ea620f8ec400e821354ae"}, "vout": 6, "txid": "d9bdf490b59ba4b7f87ad248bf6a4ee28be286c562462ad190045fd74f679352"}, {"sequence": 4294967295, "scriptSig": {"hex": "0047304402200bea9bf224e07934bd0882932a35274fedf1c0fab5ee02902d882012bc80614302205c53202fbe510195a6e26d94d2874644b40502b6243fb6e925f3d9d55b052262014c8b5121022c876292af61ced85f3f7f8c58110871c1ae80fa441a6df446d73cf8221ee88221024bffdf314b6535fecd4f4b258f227fc392b33f6a4cc439a0a2bd215b6bbdd1992103957162dd8266c11c6ffc0fafa7d0155616f26d3df5b492949fc562b6461bade92103a07878f159651d4cf939c586547a85d043fa4a2d844e33eb040d750cde0244c954ae", "asm": "0 304402200bea9bf224e07934bd0882932a35274fedf1c0fab5ee02902d882012bc80614302205c53202fbe510195a6e26d94d2874644b40502b6243fb6e925f3d9d55b052262[ALL] 5121022c876292af61ced85f3f7f8c58110871c1ae80fa441a6df446d73cf8221ee88221024bffdf314b6535fecd4f4b258f227fc392b33f6a4cc439a0a2bd215b6bbdd1992103957162dd8266c11c6ffc0fafa7d0155616f26d3df5b492949fc562b6461bade92103a07878f159651d4cf939c586547a85d043fa4a2d844e33eb040d750cde0244c954ae"}, "vout": 0, "txid": "d9897be9f4785adc741b266f4d46750c6e1192907ae668f8178b82b12148805d"}], "txid": "4863a140260db2abc3c7f77c44fb97de8d0f5ffd03dd989337ee8a32872c3138", "blocktime": 1537870564, "version": 1, "confirmations": 11515, "time": 1537870564, "locktime": 0, "vsize": 1064, "size": 1064}