{"hash": "48639bab075ebd71a9951eb3319aaaeb743ae977910ee13561bbd5bc1399111d", "blockhash": "00000000000000000018f53835495a110e01622372bf6ae95dc86f2b0ab887b0", "vout": [{"scriptPubKey": {"reqSigs": 1, "hex": "76a9149a6faa188bb49a13a9d03e15074abb4baa4b332988ac", "addresses": ["1F5aq88jFurZ8cXt4y3H4XeQgfi6vQ8BuW"], "asm": "OP_DUP OP_HASH160 9a6faa188bb49a13a9d03e15074abb4baa4b3329 OP_EQUALVERIFY OP_CHECKSIG", "type": "pubkeyhash"}, "value": 0.00150744, "n": 0}, {"scriptPubKey": {"type": "nulldata", "hex": "6a4c500000778a00018c2006064182e1e4eaecdd68e3ef3236678a625097bcbefa6b8351586b4e7a7ca6b3f273977974e72d62a9b05e015baa0bda0613db55cc938854bc9a9526289ac0f6612cd74e33776ee4", "asm": "OP_RETURN 0000778a00018c2006064182e1e4eaecdd68e3ef3236678a625097bcbefa6b8351586b4e7a7ca6b3f273977974e72d62a9b05e015baa0bda0613db55cc938854bc9a9526289ac0f6612cd74e33776ee4"}, "value": 0.0, "n": 1}], "hex": "01000000013a5486aab48ba26921d3aa886f3c8c109378754585b15ea8c95a8da95cefc2e4010000006a47304402207960ee65abf72f7b400a9f53b68bbca663aa241e4388e048703371e6b1c84e4202204aaa011496eccc3b63b282ac69bead6a26a56d2e6bbb721b4af7295b6d49bbd4012102c51ad81ccf1d9dcda8d7c12d83cb31359ce74a82b7f8e39225a03d4a8cbc7b59ffffffff02d84c0200000000001976a9149a6faa188bb49a13a9d03e15074abb4baa4b332988ac0000000000000000536a4c500000778a00018c2006064182e1e4eaecdd68e3ef3236678a625097bcbefa6b8351586b4e7a7ca6b3f273977974e72d62a9b05e015baa0bda0613db55cc938854bc9a9526289ac0f6612cd74e33776ee400000000", "vin": [{"sequence": 4294967295, "scriptSig": {"hex": "47304402207960ee65abf72f7b400a9f53b68bbca663aa241e4388e048703371e6b1c84e4202204aaa011496eccc3b63b282ac69bead6a26a56d2e6bbb721b4af7295b6d49bbd4012102c51ad81ccf1d9dcda8d7c12d83cb31359ce74a82b7f8e39225a03d4a8cbc7b59", "asm": "304402207960ee65abf72f7b400a9f53b68bbca663aa241e4388e048703371e6b1c84e4202204aaa011496eccc3b63b282ac69bead6a26a56d2e6bbb721b4af7295b6d49bbd4[ALL] 02c51ad81ccf1d9dcda8d7c12d83cb31359ce74a82b7f8e39225a03d4a8cbc7b59"}, "vout": 1, "txid": "e4c2ef5ca98d5ac9a85eb18545757893108c3c6f88aad32169a28bb4aa86543a"}], "txid": "48639bab075ebd71a9951eb3319aaaeb743ae977910ee13561bbd5bc1399111d", "blocktime": 1537870928, "version": 1, "confirmations": 11512, "time": 1537870928, "locktime": 0, "vsize": 283, "size": 283}