{"hash": "3487de5c714d7aa0dbba32f9b7b0201dbe3ee62e2c8c96f4d6852575e136e596", "blockhash": "0000000000000000001cda96e906b7601b7a6fb1a3b62bca570a9e5d8f4b3de1", "vout": [{"scriptPubKey": {"reqSigs": 1, "hex": "a9149258fb163f8a942a3665b8d6fa939996b444081f87", "addresses": ["3F2qB3cnb5rBv3mcgEK5JvNVmnU3m5tmk9"], "asm": "OP_HASH160 9258fb163f8a942a3665b8d6fa939996b444081f OP_EQUAL", "type": "scripthash"}, "value": 0.01551254, "n": 0}, {"scriptPubKey": {"reqSigs": 1, "hex": "76a914eddfb9395db2e6affa76766037458aec634cff2e88ac", "addresses": ["1NgmA3k7ak5B7WydLVVsmQE7dDb7uSwh3W"], "asm": "OP_DUP OP_HASH160 eddfb9395db2e6affa76766037458aec634cff2e OP_EQUALVERIFY OP_CHECKSIG", "type": "pubkeyhash"}, "value": 0.08776629, "n": 1}], "hex": "010000000001016f38d9310d791b08494a68984e9e7384798678130a319bc15ef799a578ae848400000000232200207b5328e7795f728cf3f8cc964c615f80ba985fc8a97d322237dda82c55dfadbaffffffff0296ab17000000000017a9149258fb163f8a942a3665b8d6fa939996b444081f87b5eb8500000000001976a914eddfb9395db2e6affa76766037458aec634cff2e88ac04004830450221009748feda528652ffa5053ae8c74bf70480857d1ea4b49c8277a2009abd62c012022029c25136ffd15de925ac09ea0b3a38f510b7b3c3d2e8f3cdecfbeb3d8b196d65014730440220580049456f01d51d009cdef5298b46837e4ba9de65f650ac985801e46ce2a852022006a7f1cc120a218ea1551008cd051e97f90a5aa066c56d321d65d2f87aac413d01695221030ac45d3190ef70d5ccb64aaca654d8052ea1df777af44ac92a0bc0ff0b74b95521029c466bc4dcbe08bcad32719d3e5bb3f559c6ba11c707f1b4fc03b01003f6373c21031a3657312248e58937e0e61c79ccad046fac5f880d67e38ca1101698427acd2b53ae00000000", "vin": [{"txinwitness": ["", "30450221009748feda528652ffa5053ae8c74bf70480857d1ea4b49c8277a2009abd62c012022029c25136ffd15de925ac09ea0b3a38f510b7b3c3d2e8f3cdecfbeb3d8b196d6501", "30440220580049456f01d51d009cdef5298b46837e4ba9de65f650ac985801e46ce2a852022006a7f1cc120a218ea1551008cd051e97f90a5aa066c56d321d65d2f87aac413d01", "5221030ac45d3190ef70d5ccb64aaca654d8052ea1df777af44ac92a0bc0ff0b74b95521029c466bc4dcbe08bcad32719d3e5bb3f559c6ba11c707f1b4fc03b01003f6373c21031a3657312248e58937e0e61c79ccad046fac5f880d67e38ca1101698427acd2b53ae"], "sequence": 4294967295, "scriptSig": {"hex": "2200207b5328e7795f728cf3f8cc964c615f80ba985fc8a97d322237dda82c55dfadba", "asm": "00207b5328e7795f728cf3f8cc964c615f80ba985fc8a97d322237dda82c55dfadba"}, "vout": 0, "txid": "8484ae78a599f75ec19b310a1378867984739e4e98684a49081b790d31d9386f"}], "txid": "486530219b5640252da725e3028a10f592d55c724944d212c4fb91be67b19954", "blocktime": 1537873282, "version": 1, "confirmations": 11484, "time": 1537873282, "locktime": 0, "vsize": 216, "size": 407}