{"hash": "48677e4f4824af89e5d2d49a6388850e6b03a5855ba57e67631022c3c8ab9f10", "blockhash": "0000000000000000001cda96e906b7601b7a6fb1a3b62bca570a9e5d8f4b3de1", "vout": [{"scriptPubKey": {"reqSigs": 1, "hex": "a914c9c4e3bf53019555e8342d5bd53986ab8d6a9c4e87", "addresses": ["3L5scEVvquFVJ16TzE3NuqeJcehZk7Ts22"], "asm": "OP_HASH160 c9c4e3bf53019555e8342d5bd53986ab8d6a9c4e OP_EQUAL", "type": "scripthash"}, "value": 0.01299427, "n": 0}], "hex": "01000000014f73f880c49f9ebc5aed84a3fc7bf349bf49404c3cc65bee7ad9204f6c3209df000000006b483045022100d0e4f6f0ee04b1f0cd4393eb65adf7197845094eb8452a6487363f8463cb955d02202a52b30e283747392c66ca282c9d71df08ee3dbd5439eb34218c093cdef4e4e8012103ac7646aaa44dc77596b2119cc99aba1c1ac1f75266933265f6b1893948b13909ffffffff01e3d313000000000017a914c9c4e3bf53019555e8342d5bd53986ab8d6a9c4e8700000000", "vin": [{"sequence": 4294967295, "scriptSig": {"hex": "483045022100d0e4f6f0ee04b1f0cd4393eb65adf7197845094eb8452a6487363f8463cb955d02202a52b30e283747392c66ca282c9d71df08ee3dbd5439eb34218c093cdef4e4e8012103ac7646aaa44dc77596b2119cc99aba1c1ac1f75266933265f6b1893948b13909", "asm": "3045022100d0e4f6f0ee04b1f0cd4393eb65adf7197845094eb8452a6487363f8463cb955d02202a52b30e283747392c66ca282c9d71df08ee3dbd5439eb34218c093cdef4e4e8[ALL] 03ac7646aaa44dc77596b2119cc99aba1c1ac1f75266933265f6b1893948b13909"}, "vout": 0, "txid": "df09326c4f20d97aee5bc63c4c4049bf49f37bfca384ed5abc9e9fc480f8734f"}], "txid": "48677e4f4824af89e5d2d49a6388850e6b03a5855ba57e67631022c3c8ab9f10", "blocktime": 1537873282, "version": 1, "confirmations": 11484, "time": 1537873282, "locktime": 0, "vsize": 190, "size": 190}