{"hash": "39b04651509577a7bb8ffc5756a0b803ab030f5c107a90b932eaacbf9b34225a", "blockhash": "0000000000000000001f76057863aec43deb6fa401d9628bb513d65a8098bfab", "vout": [{"scriptPubKey": {"reqSigs": 1, "hex": "76a914346782877dcd0aefcb780cf33de8a399805ffe9d88ac", "addresses": ["15n68y8RXRzaJKJrfrwnDKvVfYLdevQjKY"], "asm": "OP_DUP OP_HASH160 346782877dcd0aefcb780cf33de8a399805ffe9d OP_EQUALVERIFY OP_CHECKSIG", "type": "pubkeyhash"}, "value": 0.001092, "n": 0}, {"scriptPubKey": {"reqSigs": 1, "hex": "0014a141a4ab4d9800c8f4e4033b6780e2ebf0e161c3", "addresses": ["bc1q59q6f26dnqqv3a8yqvak0q8za0cwzcwrca2vyp"], "asm": "0 a141a4ab4d9800c8f4e4033b6780e2ebf0e161c3", "type": "witness_v0_keyhash"}, "value": 1.347e-05, "n": 1}], "hex": "01000000000101a6abf50f8d1dc9d3c1c71148e95dc1c7ad267af4d546ecdc68549a1ff8f914390100000000ffffffff0290aa0100000000001976a914346782877dcd0aefcb780cf33de8a399805ffe9d88ac4305000000000000160014a141a4ab4d9800c8f4e4033b6780e2ebf0e161c302483045022100ee8c63714c3f5a66252968b46544f37d975ae4ee48e8fcedb9fd11a701c239a802202e908e4c5fec39c351bf38b6be2cdbece3834b5edfa1949fc612b57773e47d30012102e67031726ab81e3db5289609e38092281199b4258d7bab8cfe8b729180c2157200000000", "vin": [{"txinwitness": ["3045022100ee8c63714c3f5a66252968b46544f37d975ae4ee48e8fcedb9fd11a701c239a802202e908e4c5fec39c351bf38b6be2cdbece3834b5edfa1949fc612b57773e47d3001", "02e67031726ab81e3db5289609e38092281199b4258d7bab8cfe8b729180c21572"], "sequence": 4294967295, "scriptSig": {"hex": "", "asm": ""}, "vout": 1, "txid": "3914f9f81f9a5468dcec46d5f47a26adc7c15de94811c7c1d3c91d8d0ff5aba6"}], "txid": "48673b25c66d444b0b2cf17849e8d1c29f9614f0223c7781735dae20572f92bc", "blocktime": 1537873891, "version": 1, "confirmations": 11478, "time": 1537873891, "locktime": 0, "vsize": 144, "size": 226}