{"hash": "48747d7387d878f587b6bcc6ef458e0a119092c3bb96a937153d28496a0059d0", "blockhash": "0000000000000000001cda96e906b7601b7a6fb1a3b62bca570a9e5d8f4b3de1", "vout": [{"scriptPubKey": {"reqSigs": 1, "hex": "a9145f3252f81035f59ad03ab195073adab01bc5928587", "addresses": ["3ANNQM6PmTRhFXsNQwfLMi7pZqhZi2shvi"], "asm": "OP_HASH160 5f3252f81035f59ad03ab195073adab01bc59285 OP_EQUAL", "type": "scripthash"}, "value": 0.07938064, "n": 0}], "hex": "0100000001795d394f09ea541e9dbc76b74b9781e33a99c89f25c83a64ec1f85326a2ee1c5140000006a4730440220072a24f27d7c154cde55ad61d3cb240144c6675e747e69e1f15eb57acabf097e02207458812dec70f5b0be05d7259efc781aac750fd18a67683311e47fd5ca071ff101210256afcf5bfa6736b6b1b0fc4246012a259c7c259195976238bd4830ba5e892cd3ffffffff01102079000000000017a9145f3252f81035f59ad03ab195073adab01bc592858700000000", "vin": [{"sequence": 4294967295, "scriptSig": {"hex": "4730440220072a24f27d7c154cde55ad61d3cb240144c6675e747e69e1f15eb57acabf097e02207458812dec70f5b0be05d7259efc781aac750fd18a67683311e47fd5ca071ff101210256afcf5bfa6736b6b1b0fc4246012a259c7c259195976238bd4830ba5e892cd3", "asm": "30440220072a24f27d7c154cde55ad61d3cb240144c6675e747e69e1f15eb57acabf097e02207458812dec70f5b0be05d7259efc781aac750fd18a67683311e47fd5ca071ff1[ALL] 0256afcf5bfa6736b6b1b0fc4246012a259c7c259195976238bd4830ba5e892cd3"}, "vout": 20, "txid": "c5e12e6a32851fec643ac8259fc8993ae381974bb776bc9d1e54ea094f395d79"}], "txid": "48747d7387d878f587b6bcc6ef458e0a119092c3bb96a937153d28496a0059d0", "blocktime": 1537873282, "version": 1, "confirmations": 11483, "time": 1537873282, "locktime": 0, "vsize": 189, "size": 189}