{"hash": "4879fdac3922c1a1c616ec23b40fa11b375099a603c87dafd540a33ee0b10992", "blockhash": "00000000000000000017f5eb5941039fbcee6240d03bc1f2f8e35350df66a1d8", "vout": [{"scriptPubKey": {"reqSigs": 1, "hex": "76a91468e8ca8a6e0676305254b94a682b374926b499aa88ac", "addresses": ["1AZi9ZkosUrQ2mH6pcFRyrERbkwoV3wt7J"], "asm": "OP_DUP OP_HASH160 68e8ca8a6e0676305254b94a682b374926b499aa OP_EQUALVERIFY OP_CHECKSIG", "type": "pubkeyhash"}, "value": 0.10633347, "n": 0}, {"scriptPubKey": {"reqSigs": 1, "hex": "76a9146cf1497304d12959902c2c13036a68d4684f38bc88ac", "addresses": ["1Aw32dKWMeTWjbLc3DENQKW2cTX6VpBY87"], "asm": "OP_DUP OP_HASH160 6cf1497304d12959902c2c13036a68d4684f38bc OP_EQUALVERIFY OP_CHECKSIG", "type": "pubkeyhash"}, "value": 15.18851389, "n": 1}], "hex": "0200000001d93c526b8502746eb6a69f84fda069a6387e435a257251857429a1f442a12fab010000006a47304402204412ce52c83c4074602dbb6497bc6fa487d0a5d6025488bd826dca9349e6dbea022039c88a469cf45ed36b39cd631221c4256919023c273e28cb98cee8a3b2919b94012102b48cba92774a8b001dd5c1e10b38cc3b7a024533f628d5c43b6ee85a4dd860cbffffffff028340a200000000001976a91468e8ca8a6e0676305254b94a682b374926b499aa88ac3dd5875a000000001976a9146cf1497304d12959902c2c13036a68d4684f38bc88ac00000000", "vin": [{"sequence": 4294967295, "scriptSig": {"hex": "47304402204412ce52c83c4074602dbb6497bc6fa487d0a5d6025488bd826dca9349e6dbea022039c88a469cf45ed36b39cd631221c4256919023c273e28cb98cee8a3b2919b94012102b48cba92774a8b001dd5c1e10b38cc3b7a024533f628d5c43b6ee85a4dd860cb", "asm": "304402204412ce52c83c4074602dbb6497bc6fa487d0a5d6025488bd826dca9349e6dbea022039c88a469cf45ed36b39cd631221c4256919023c273e28cb98cee8a3b2919b94[ALL] 02b48cba92774a8b001dd5c1e10b38cc3b7a024533f628d5c43b6ee85a4dd860cb"}, "vout": 1, "txid": "ab2fa142f4a12974855172255a437e38a669a0fd849fa6b66e7402856b523cd9"}], "txid": "4879fdac3922c1a1c616ec23b40fa11b375099a603c87dafd540a33ee0b10992", "blocktime": 1537874412, "version": 2, "confirmations": 11468, "time": 1537874412, "locktime": 0, "vsize": 225, "size": 225}