{"hash": "487bf7f3fd9a990a0c30e93880fc1879c1bec14ef80e7f728f50023fdcad2099", "blockhash": "00000000000000000017f5eb5941039fbcee6240d03bc1f2f8e35350df66a1d8", "vout": [{"scriptPubKey": {"reqSigs": 1, "hex": "76a9141ac8798b339a1bb3b4b148f3ed7a8220b2b024fe88ac", "addresses": ["13ScjDjULiiQWHbjuXi25hWLqFVwDznvWY"], "asm": "OP_DUP OP_HASH160 1ac8798b339a1bb3b4b148f3ed7a8220b2b024fe OP_EQUALVERIFY OP_CHECKSIG", "type": "pubkeyhash"}, "value": 0.004, "n": 0}, {"scriptPubKey": {"reqSigs": 1, "hex": "76a914b9b4891813b7e80aa68f1ff5d366119c89463f7b88ac", "addresses": ["1HvvHKNSUVt74FvcVrW9eFYVJVwxhssi7g"], "asm": "OP_DUP OP_HASH160 b9b4891813b7e80aa68f1ff5d366119c89463f7b OP_EQUALVERIFY OP_CHECKSIG", "type": "pubkeyhash"}, "value": 0.007222, "n": 1}], "hex": "0100000001fd558a99565136106e4ae335eca4c2002cd96eb93bb32bddeea9a8023aa417b5010000006b483045022100d2d8a48e0b7693bb55e179fb5ec0c59ce733fee3bded574a3b0264eed8f946600220342cc377ebc3a6953d60ce2c04460206ceafb020cb5270e81b7834c7d828d82b012102b1360c81dbdc83aeb7e112c7452825202cad0c447de2a4bdc60fb5cb66108957feffffff02801a0600000000001976a9141ac8798b339a1bb3b4b148f3ed7a8220b2b024fe88ac18050b00000000001976a914b9b4891813b7e80aa68f1ff5d366119c89463f7b88ac00000000", "vin": [{"sequence": 4294967294, "scriptSig": {"hex": "483045022100d2d8a48e0b7693bb55e179fb5ec0c59ce733fee3bded574a3b0264eed8f946600220342cc377ebc3a6953d60ce2c04460206ceafb020cb5270e81b7834c7d828d82b012102b1360c81dbdc83aeb7e112c7452825202cad0c447de2a4bdc60fb5cb66108957", "asm": "3045022100d2d8a48e0b7693bb55e179fb5ec0c59ce733fee3bded574a3b0264eed8f946600220342cc377ebc3a6953d60ce2c04460206ceafb020cb5270e81b7834c7d828d82b[ALL] 02b1360c81dbdc83aeb7e112c7452825202cad0c447de2a4bdc60fb5cb66108957"}, "vout": 1, "txid": "b517a43a02a8a9eedd2bb33bb96ed92c00c2a4ec35e34a6e10365156998a55fd"}], "txid": "487bf7f3fd9a990a0c30e93880fc1879c1bec14ef80e7f728f50023fdcad2099", "blocktime": 1537874412, "version": 1, "confirmations": 11467, "time": 1537874412, "locktime": 0, "vsize": 226, "size": 226}