{"hash": "62c0afe86e570a473a5b5101176553e49e71c7f3cec07d0bbd5480a559d9a733", "blockhash": "000000000000000000022b45ed06c6f4ccd3cf7fb5ba4856ebd2e58215665228", "vout": [{"scriptPubKey": {"reqSigs": 1, "hex": "a914ca75b58a8922541c78289ae3f4ac7ce4be01e0ec87", "addresses": ["3L9XRsKA33p8UHvRS59VPNj38A4MQKw5ZJ"], "asm": "OP_HASH160 ca75b58a8922541c78289ae3f4ac7ce4be01e0ec OP_EQUAL", "type": "scripthash"}, "value": 0.10208347, "n": 0}, {"scriptPubKey": {"reqSigs": 1, "hex": "76a914f03cef40f3a0be21c9a2ea5477ae5153af8d46f688ac", "addresses": ["1NuGArDHN21wMDJoQ2YjSGZq8wfCmNwU1S"], "asm": "OP_DUP OP_HASH160 f03cef40f3a0be21c9a2ea5477ae5153af8d46f6 OP_EQUALVERIFY OP_CHECKSIG", "type": "pubkeyhash"}, "value": 0.07725, "n": 1}], "hex": "0100000000010106aa8cf0fd70f09a13d1e69b939e4adc7d4cafc42c5870d7cfe59b65bddad92f0000000017160014d4e80c0b3a94a4acf7ccb1f8b15f2c0a6425e92effffffff025bc49b000000000017a914ca75b58a8922541c78289ae3f4ac7ce4be01e0ec87c8df7500000000001976a914f03cef40f3a0be21c9a2ea5477ae5153af8d46f688ac02483045022100a6f049f8bfa87bb564865bda0d6367a08f167f69dcfe6d1d6d33f7c1c99418fc0220654283ce76ece6b7acdbbfd61cf9f22e232896ffee9cdab6496a7089fae5eeb40121030dc6780495af9733290f537c6598333b0edcf3ccbe2b1f496bc49e8a7c19496f00000000", "vin": [{"txinwitness": ["3045022100a6f049f8bfa87bb564865bda0d6367a08f167f69dcfe6d1d6d33f7c1c99418fc0220654283ce76ece6b7acdbbfd61cf9f22e232896ffee9cdab6496a7089fae5eeb401", "030dc6780495af9733290f537c6598333b0edcf3ccbe2b1f496bc49e8a7c19496f"], "sequence": 4294967295, "scriptSig": {"hex": "160014d4e80c0b3a94a4acf7ccb1f8b15f2c0a6425e92e", "asm": "0014d4e80c0b3a94a4acf7ccb1f8b15f2c0a6425e92e"}, "vout": 0, "txid": "2fd9dabd659be5cfd770582cc4af4c7ddc4a9e939be6d1139af070fdf08caa06"}], "txid": "4883b530406e5425a419d86ea22a7fe92ddd5bbfc35f12afb2995e7905a6a281", "blocktime": 1537869901, "version": 1, "confirmations": 11522, "time": 1537869901, "locktime": 0, "vsize": 168, "size": 250}