{"hash": "48879bc0a92ddc3028bbd03abd2252ea650623a106837e8e0461e494342e2e09", "blockhash": "0000000000000000000e13cef7c366c0283d82e591d1acd082e914b08063cdf1", "vout": [{"scriptPubKey": {"reqSigs": 1, "hex": "76a914ff4a6ed2063a362df3e0e75d5a3fb0a23885dbda88ac", "addresses": ["1QGrUc5TfkXcYEMwES7sRoNpLHjBYLdZFk"], "asm": "OP_DUP OP_HASH160 ff4a6ed2063a362df3e0e75d5a3fb0a23885dbda OP_EQUALVERIFY OP_CHECKSIG", "type": "pubkeyhash"}, "value": 0.0400393, "n": 0}], "hex": "010000000240e0f1b0197224a4175da4a5d8c8546b985fa4adc4f0d4af757d3fd5c29fa07d000000006b483045022100f51093cd2903adaa2ead3b2f5fed6ca92f2c7745b10d6980149740e1372305c3022041ad25ba2f95de1f1ef718846b666509344ca9c187bf9d8722fd33ac3db39ed8012103d13410fa4106ed016a639c2c147cbc77488d99618c5da8fb6c30eb3d7621713affffffff3ebece02f352845a45491a989eff26e1064010b9aed88cbcd7691b1a4da0b4f2000000006a47304402205b64d6fbcf3c69b50bed6f0198a56f3217483a8ee73e0057b33e4302748aed0002203d16e24b3a12055a2de6f32b7845731e4d64218a411c8aa56915e60652b449130121037862d35e0e68de2edd11921116c8270129d05064f7e5e8b8ddc6315ea9da0e0dffffffff015a183d00000000001976a914ff4a6ed2063a362df3e0e75d5a3fb0a23885dbda88ac00000000", "vin": [{"sequence": 4294967295, "scriptSig": {"hex": "483045022100f51093cd2903adaa2ead3b2f5fed6ca92f2c7745b10d6980149740e1372305c3022041ad25ba2f95de1f1ef718846b666509344ca9c187bf9d8722fd33ac3db39ed8012103d13410fa4106ed016a639c2c147cbc77488d99618c5da8fb6c30eb3d7621713a", "asm": "3045022100f51093cd2903adaa2ead3b2f5fed6ca92f2c7745b10d6980149740e1372305c3022041ad25ba2f95de1f1ef718846b666509344ca9c187bf9d8722fd33ac3db39ed8[ALL] 03d13410fa4106ed016a639c2c147cbc77488d99618c5da8fb6c30eb3d7621713a"}, "vout": 0, "txid": "7da09fc2d53f7d75afd4f0c4ada45f986b54c8d8a5a45d17a4247219b0f1e040"}, {"sequence": 4294967295, "scriptSig": {"hex": "47304402205b64d6fbcf3c69b50bed6f0198a56f3217483a8ee73e0057b33e4302748aed0002203d16e24b3a12055a2de6f32b7845731e4d64218a411c8aa56915e60652b449130121037862d35e0e68de2edd11921116c8270129d05064f7e5e8b8ddc6315ea9da0e0d", "asm": "304402205b64d6fbcf3c69b50bed6f0198a56f3217483a8ee73e0057b33e4302748aed0002203d16e24b3a12055a2de6f32b7845731e4d64218a411c8aa56915e60652b44913[ALL] 037862d35e0e68de2edd11921116c8270129d05064f7e5e8b8ddc6315ea9da0e0d"}, "vout": 0, "txid": "f2b4a04d1a1b69d7bc8cd8aeb9104006e126ff9e981a49455a8452f302cebe3e"}], "txid": "48879bc0a92ddc3028bbd03abd2252ea650623a106837e8e0461e494342e2e09", "blocktime": 1537871767, "version": 1, "confirmations": 11491, "time": 1537871767, "locktime": 0, "vsize": 339, "size": 339}