{"hash": "488fab84b0381e2494402eedc3d4c2b77125388358b4976f59d9a50a226b5624", "blockhash": "00000000000000000024a2167bbff67b0be802c0b01cdd79e6331c2be6459f87", "vout": [{"scriptPubKey": {"reqSigs": 1, "hex": "76a91476402fabd1f875c8fdc72f5dad29cf593799e59d88ac", "addresses": ["1BnFdNbrCfh9U9dCX511jeaazrcJcR1S9U"], "asm": "OP_DUP OP_HASH160 76402fabd1f875c8fdc72f5dad29cf593799e59d OP_EQUALVERIFY OP_CHECKSIG", "type": "pubkeyhash"}, "value": 4.232e-05, "n": 0}, {"scriptPubKey": {"reqSigs": 1, "hex": "a9145ecdf8050c8084b6073ae25214c2efd01601add387", "addresses": ["3ALJBYKX1RrmEn1ywGgtfj6WtnFxw16Yi3"], "asm": "OP_HASH160 5ecdf8050c8084b6073ae25214c2efd01601add3 OP_EQUAL", "type": "scripthash"}, "value": 0.001248, "n": 1}], "hex": "010000000254ae8eeb0c08ac8c58d637b3eec42a797e09d57c00fc8f4aff4c81d683fece01000000006b483045022100966f9b19563ebd873db7352740fec38cae368ed68b3da0ae6b0b070097cbed8502202ff67e725eb41c9777b3f8554f9f0b1e6f7e96fdeefa7e636ff3d8f99bfd598a0121038bc3ed89d876aaec98fad825e1a9a3eaab71762cf92e61f733081a1cb88ac5f3ffffffffbf44b2107185f6575effe6b2c91a5beab7d8c5d4e631bb3e2ce08d92b9a4818b000000006a473044022047289be0f635811c718cce38ea900cc573434d826becd988a57a946b2e4f870d0220624eac3e9297948e144285715dbbbe7d2ea714186a8033021f1f3619b07f1f2b012103f63b6c3f4710572c0a6c30a5268b47cb60d769127fae0cf921799b34fa765baaffffffff0288100000000000001976a91476402fabd1f875c8fdc72f5dad29cf593799e59d88ac80e701000000000017a9145ecdf8050c8084b6073ae25214c2efd01601add38700000000", "vin": [{"sequence": 4294967295, "scriptSig": {"hex": "483045022100966f9b19563ebd873db7352740fec38cae368ed68b3da0ae6b0b070097cbed8502202ff67e725eb41c9777b3f8554f9f0b1e6f7e96fdeefa7e636ff3d8f99bfd598a0121038bc3ed89d876aaec98fad825e1a9a3eaab71762cf92e61f733081a1cb88ac5f3", "asm": "3045022100966f9b19563ebd873db7352740fec38cae368ed68b3da0ae6b0b070097cbed8502202ff67e725eb41c9777b3f8554f9f0b1e6f7e96fdeefa7e636ff3d8f99bfd598a[ALL] 038bc3ed89d876aaec98fad825e1a9a3eaab71762cf92e61f733081a1cb88ac5f3"}, "vout": 0, "txid": "01cefe83d6814cff4a8ffc007cd5097e792ac4eeb337d6588cac080ceb8eae54"}, {"sequence": 4294967295, "scriptSig": {"hex": "473044022047289be0f635811c718cce38ea900cc573434d826becd988a57a946b2e4f870d0220624eac3e9297948e144285715dbbbe7d2ea714186a8033021f1f3619b07f1f2b012103f63b6c3f4710572c0a6c30a5268b47cb60d769127fae0cf921799b34fa765baa", "asm": "3044022047289be0f635811c718cce38ea900cc573434d826becd988a57a946b2e4f870d0220624eac3e9297948e144285715dbbbe7d2ea714186a8033021f1f3619b07f1f2b[ALL] 03f63b6c3f4710572c0a6c30a5268b47cb60d769127fae0cf921799b34fa765baa"}, "vout": 0, "txid": "8b81a4b9928de02c3ebb31e6d4c5d8b7ea5b1ac9b2e6ff5e57f6857110b244bf"}], "txid": "488fab84b0381e2494402eedc3d4c2b77125388358b4976f59d9a50a226b5624", "blocktime": 1537870564, "version": 1, "confirmations": 11515, "time": 1537870564, "locktime": 0, "vsize": 371, "size": 371}