{"hash": "4894113943f7ed0d292626f5ef63931962116b15d8ad877ed733009e3597dd7e", "blockhash": "00000000000000000018f53835495a110e01622372bf6ae95dc86f2b0ab887b0", "vout": [{"scriptPubKey": {"reqSigs": 1, "hex": "76a9142bbcec27ea67a37061ce1ec51c17b463660e956388ac", "addresses": ["14zGNpA1vowzHM8qaL6gXa6LZWBoqY1xjM"], "asm": "OP_DUP OP_HASH160 2bbcec27ea67a37061ce1ec51c17b463660e9563 OP_EQUALVERIFY OP_CHECKSIG", "type": "pubkeyhash"}, "value": 0.00012354, "n": 0}, {"scriptPubKey": {"reqSigs": 1, "hex": "76a91470907c8e337591f75a38a9dcf99e21fe172d5f6888ac", "addresses": ["1BGBmazmZf2428h8G1JCHe9JXkxbqAcC4S"], "asm": "OP_DUP OP_HASH160 70907c8e337591f75a38a9dcf99e21fe172d5f68 OP_EQUALVERIFY OP_CHECKSIG", "type": "pubkeyhash"}, "value": 0.000468, "n": 1}], "hex": "0100000001c20897a71a85a7e1a8ff6ea2cc62f5bccade2a8a2e2879fdc4de1dfd51bd7ca3000000006a4730440220621d99e45d5d328aec7ea556cd39adb576b8560a57d2e213fd40327b6726c3ff02200689b6e9977d1d8fe3a9ef6c7d2ee7b593711e6e0b8b7907050e9860fb8341d1012102b083dbde45c54b5836335bafce4db2c67c38b95825e2fea1371a215ec9e431ccffffffff0242300000000000001976a9142bbcec27ea67a37061ce1ec51c17b463660e956388acd0b60000000000001976a91470907c8e337591f75a38a9dcf99e21fe172d5f6888ac00000000", "vin": [{"sequence": 4294967295, "scriptSig": {"hex": "4730440220621d99e45d5d328aec7ea556cd39adb576b8560a57d2e213fd40327b6726c3ff02200689b6e9977d1d8fe3a9ef6c7d2ee7b593711e6e0b8b7907050e9860fb8341d1012102b083dbde45c54b5836335bafce4db2c67c38b95825e2fea1371a215ec9e431cc", "asm": "30440220621d99e45d5d328aec7ea556cd39adb576b8560a57d2e213fd40327b6726c3ff02200689b6e9977d1d8fe3a9ef6c7d2ee7b593711e6e0b8b7907050e9860fb8341d1[ALL] 02b083dbde45c54b5836335bafce4db2c67c38b95825e2fea1371a215ec9e431cc"}, "vout": 0, "txid": "a37cbd51fd1ddec4fd79282e8a2adecabcf562cca26effa8e1a7851aa79708c2"}], "txid": "4894113943f7ed0d292626f5ef63931962116b15d8ad877ed733009e3597dd7e", "blocktime": 1537870928, "version": 1, "confirmations": 11514, "time": 1537870928, "locktime": 0, "vsize": 225, "size": 225}