{"hash": "48950dc5a719fd9f0acd88ec68d535bee2585532929cbef7d8278633dfb73b53", "blockhash": "0000000000000000001cda96e906b7601b7a6fb1a3b62bca570a9e5d8f4b3de1", "vout": [{"scriptPubKey": {"type": "nulldata", "hex": "6a4c50000077bd0001e114dccca371221793029e86e5bf9ae76da98a211aaf6c953dd567cf27e7aabbd76bd997c85d7b94def4bd7c07605baa1258061338e3eb59029dbc9a9526289ac0f6612cd74e33776ee4", "asm": "OP_RETURN 000077bd0001e114dccca371221793029e86e5bf9ae76da98a211aaf6c953dd567cf27e7aabbd76bd997c85d7b94def4bd7c07605baa1258061338e3eb59029dbc9a9526289ac0f6612cd74e33776ee4"}, "value": 0.0, "n": 0}, {"scriptPubKey": {"reqSigs": 1, "hex": "76a914a5a5f90f08fa39103830756081b2fa1e55711fc988ac", "addresses": ["1G6sKeiZPLgNARG1DZ2DwMAPBJzWeuhkKY"], "asm": "OP_DUP OP_HASH160 a5a5f90f08fa39103830756081b2fa1e55711fc9 OP_EQUALVERIFY OP_CHECKSIG", "type": "pubkeyhash"}, "value": 0.0009268, "n": 1}], "hex": "0100000001f93c57093572a5cf6550af73e13c6e248dba54ca0fcc91f6924389822fae9801010000006b483045022100831e235f21b562de22bf96bb05bb914b2111a0193afcdecd81af209f6c21f38802206ddd8e70316ac6b3da7a5fa9987db866f97113c2fd1df476ac2228f1790cea70012103286cb7afb37b1b078cf27704944219c6138cae5a346fff4e787be52d76575d0fffffffff020000000000000000536a4c50000077bd0001e114dccca371221793029e86e5bf9ae76da98a211aaf6c953dd567cf27e7aabbd76bd997c85d7b94def4bd7c07605baa1258061338e3eb59029dbc9a9526289ac0f6612cd74e33776ee4086a0100000000001976a914a5a5f90f08fa39103830756081b2fa1e55711fc988ac00000000", "vin": [{"sequence": 4294967295, "scriptSig": {"hex": "483045022100831e235f21b562de22bf96bb05bb914b2111a0193afcdecd81af209f6c21f38802206ddd8e70316ac6b3da7a5fa9987db866f97113c2fd1df476ac2228f1790cea70012103286cb7afb37b1b078cf27704944219c6138cae5a346fff4e787be52d76575d0f", "asm": "3045022100831e235f21b562de22bf96bb05bb914b2111a0193afcdecd81af209f6c21f38802206ddd8e70316ac6b3da7a5fa9987db866f97113c2fd1df476ac2228f1790cea70[ALL] 03286cb7afb37b1b078cf27704944219c6138cae5a346fff4e787be52d76575d0f"}, "vout": 1, "txid": "0198ae2f82894392f691cc0fca54ba8d246e3ce173af5065cfa5723509573cf9"}], "txid": "48950dc5a719fd9f0acd88ec68d535bee2585532929cbef7d8278633dfb73b53", "blocktime": 1537873282, "version": 1, "confirmations": 11484, "time": 1537873282, "locktime": 0, "vsize": 284, "size": 284}