{"hash": "489cb2f5149f9fb86307e8369079bcb1f79dec5dacf3f1bea79251177a6458e1", "blockhash": "0000000000000000001cda96e906b7601b7a6fb1a3b62bca570a9e5d8f4b3de1", "vout": [{"scriptPubKey": {"reqSigs": 1, "hex": "76a914421396f5a70e85ca7eae1886032e484b82bc1b1e88ac", "addresses": ["172P4n1cMKcDZXWHTRAzzdL46frfsFdTPQ"], "asm": "OP_DUP OP_HASH160 421396f5a70e85ca7eae1886032e484b82bc1b1e OP_EQUALVERIFY OP_CHECKSIG", "type": "pubkeyhash"}, "value": 0.00050852, "n": 0}, {"scriptPubKey": {"reqSigs": 1, "hex": "a914a3b06d5412e33fee3741f1c9d8e6a46c75040bf287", "addresses": ["3GcXRBMrhJQbdmrtPDwXF1B4TFhHnkfSUw"], "asm": "OP_HASH160 a3b06d5412e33fee3741f1c9d8e6a46c75040bf2 OP_EQUAL", "type": "scripthash"}, "value": 0.0078145, "n": 1}], "hex": "01000000022085637825cea1bf6a1a35d40ecb4591cafc8f33600338cb570c9a2de0d1eca5000000006a47304402205bdd4b98608c48b351398123f082f45a4162ae011eb62d666325a63fc702dbcb0220259e299735f57f7266efa19d2245211211e7b5c5aa9cae3061e0e43a016542a60121030367f81766c0d5329c88816200b124226514a7fedd2fae6a5d4c60e654bdec6cffffffff7c5c9df85433d10d9b4ebb0b4677d6cc6a5d5ac7336f1a517071b5441ad9e5ce000000006b483045022100855d1806da017fe6ad956e58125fa8f3e6f2ec491b734b0213a2f21923d3409702206bdc3039a4df2f81d9b83ba981213b657799ca13976d719ae2c32c553a58f5dc012103b32aaabc25d74374ccdcc180d1759fa8bda86a22874a7126a99cfe05ee034bb0ffffffff02a4c60000000000001976a914421396f5a70e85ca7eae1886032e484b82bc1b1e88ac8aec0b000000000017a914a3b06d5412e33fee3741f1c9d8e6a46c75040bf28700000000", "vin": [{"sequence": 4294967295, "scriptSig": {"hex": "47304402205bdd4b98608c48b351398123f082f45a4162ae011eb62d666325a63fc702dbcb0220259e299735f57f7266efa19d2245211211e7b5c5aa9cae3061e0e43a016542a60121030367f81766c0d5329c88816200b124226514a7fedd2fae6a5d4c60e654bdec6c", "asm": "304402205bdd4b98608c48b351398123f082f45a4162ae011eb62d666325a63fc702dbcb0220259e299735f57f7266efa19d2245211211e7b5c5aa9cae3061e0e43a016542a6[ALL] 030367f81766c0d5329c88816200b124226514a7fedd2fae6a5d4c60e654bdec6c"}, "vout": 0, "txid": "a5ecd1e02d9a0c57cb380360338ffcca9145cb0ed4351a6abfa1ce2578638520"}, {"sequence": 4294967295, "scriptSig": {"hex": "483045022100855d1806da017fe6ad956e58125fa8f3e6f2ec491b734b0213a2f21923d3409702206bdc3039a4df2f81d9b83ba981213b657799ca13976d719ae2c32c553a58f5dc012103b32aaabc25d74374ccdcc180d1759fa8bda86a22874a7126a99cfe05ee034bb0", "asm": "3045022100855d1806da017fe6ad956e58125fa8f3e6f2ec491b734b0213a2f21923d3409702206bdc3039a4df2f81d9b83ba981213b657799ca13976d719ae2c32c553a58f5dc[ALL] 03b32aaabc25d74374ccdcc180d1759fa8bda86a22874a7126a99cfe05ee034bb0"}, "vout": 0, "txid": "cee5d91a44b57170511a6f33c75a5d6accd677460bbb4e9b0dd13354f89d5c7c"}], "txid": "489cb2f5149f9fb86307e8369079bcb1f79dec5dacf3f1bea79251177a6458e1", "blocktime": 1537873282, "version": 1, "confirmations": 11483, "time": 1537873282, "locktime": 0, "vsize": 371, "size": 371}