{"hash": "489e8abc78c585fcbbc18aefa049d4420e62090af05106c50861d94169ba1ee8", "blockhash": "0000000000000000000baef3f32e3676a92c3b2e5da21b426e4f302fc371ce76", "vout": [{"scriptPubKey": {"reqSigs": 1, "hex": "76a9143fed22fcab935d40c906f7b28ea11f38ffc862a688ac", "addresses": ["16q1edXquK2s7aSgPptE1GSV5J8t23wnLm"], "asm": "OP_DUP OP_HASH160 3fed22fcab935d40c906f7b28ea11f38ffc862a6 OP_EQUALVERIFY OP_CHECKSIG", "type": "pubkeyhash"}, "value": 5.46e-06, "n": 0}, {"scriptPubKey": {"type": "nulldata", "hex": "6a146f6d6e69000000000000001f0000000ba43b7400", "asm": "OP_RETURN 6f6d6e69000000000000001f0000000ba43b7400"}, "value": 0.0, "n": 1}, {"scriptPubKey": {"reqSigs": 1, "hex": "76a9145826f11fd4d97eb04194ab053c732a088d8b9d2888ac", "addresses": ["19377cSxc5TrBg6g5Kaaug8WjXrxtLonJA"], "asm": "OP_DUP OP_HASH160 5826f11fd4d97eb04194ab053c732a088d8b9d28 OP_EQUALVERIFY OP_CHECKSIG", "type": "pubkeyhash"}, "value": 0.00875801, "n": 2}], "hex": "0100000001111d80bd26418e3392bd0f7562345242f0271ce2d9aa263223c301b255b239ee020000006a4730440220513ca907cc71464b690f51c256db8c46fdfd93b6941f471af3e59ffee858f8bf02206971f69f6c9796a46769d46e604be35995a53d0e9ef2931daf966f6b50f45dc20121031719bcc5ecd4b0cfe5a63926c7d6362a7499b9961f363599b01b302ba259088affffffff0322020000000000001976a9143fed22fcab935d40c906f7b28ea11f38ffc862a688ac0000000000000000166a146f6d6e69000000000000001f0000000ba43b7400195d0d00000000001976a9145826f11fd4d97eb04194ab053c732a088d8b9d2888ac00000000", "vin": [{"sequence": 4294967295, "scriptSig": {"hex": "4730440220513ca907cc71464b690f51c256db8c46fdfd93b6941f471af3e59ffee858f8bf02206971f69f6c9796a46769d46e604be35995a53d0e9ef2931daf966f6b50f45dc20121031719bcc5ecd4b0cfe5a63926c7d6362a7499b9961f363599b01b302ba259088a", "asm": "30440220513ca907cc71464b690f51c256db8c46fdfd93b6941f471af3e59ffee858f8bf02206971f69f6c9796a46769d46e604be35995a53d0e9ef2931daf966f6b50f45dc2[ALL] 031719bcc5ecd4b0cfe5a63926c7d6362a7499b9961f363599b01b302ba259088a"}, "vout": 2, "txid": "ee39b255b201c3233226aad9e21c27f042523462750fbd92338e4126bd801d11"}], "txid": "489e8abc78c585fcbbc18aefa049d4420e62090af05106c50861d94169ba1ee8", "blocktime": 1537876114, "version": 1, "confirmations": 11460, "time": 1537876114, "locktime": 0, "vsize": 256, "size": 256}