{"hash": "48a21de37cf664113da870f0b2a532db335c25d01577b4d6c8189008ee7c1658", "blockhash": "0000000000000000001cda96e906b7601b7a6fb1a3b62bca570a9e5d8f4b3de1", "vout": [{"scriptPubKey": {"reqSigs": 1, "hex": "76a9148d1f7e5011833b7a563f1bc5b0b1d725f354310e88ac", "addresses": ["1DsC1FR3HSoJH74cnk7jGMYC7Na4MUtaT6"], "asm": "OP_DUP OP_HASH160 8d1f7e5011833b7a563f1bc5b0b1d725f354310e OP_EQUALVERIFY OP_CHECKSIG", "type": "pubkeyhash"}, "value": 2.626e-05, "n": 0}, {"scriptPubKey": {"reqSigs": 1, "hex": "76a9148cd1e3beafb9d22e76b9d1dc0f10caf75ed2126c88ac", "addresses": ["1Dqb3F7USEP1Ar7SGUzSgp7efnPiYqUR2R"], "asm": "OP_DUP OP_HASH160 8cd1e3beafb9d22e76b9d1dc0f10caf75ed2126c OP_EQUALVERIFY OP_CHECKSIG", "type": "pubkeyhash"}, "value": 3e-05, "n": 1}], "hex": "0100000002addb843d9edf4b0e79dad30d4f833d2fb39f03b5b4bc6a832e5d7fca01b5f76e010000006b483045022100b94fcab913fc128516110a5c3034778fe9de50f8f1eb4621dd865d39d029392202207a1b585fd08da0e4c9e8ef052c148d5198a05aef6249b3b861619f70555d1f2e012103336c16b091ddf4e710b8c5f4bb76b8fef84af0202ab484c9f553924b5cf4f6b0feffffff7877a510e5cefd404b2bccb59afdb6dd11e7308d016da2ff82807882e1b5e4f8000000006b483045022100f87e83c4ef68ca1a31ca23580c3765de6b5d56b0eaddad047e58178207ce6120022013599366242750ec3688962e3dad0ee729ad0a06d22b2f7d9a59ef74c277b142012103336c16b091ddf4e710b8c5f4bb76b8fef84af0202ab484c9f553924b5cf4f6b0feffffff02420a0000000000001976a9148d1f7e5011833b7a563f1bc5b0b1d725f354310e88acb80b0000000000001976a9148cd1e3beafb9d22e76b9d1dc0f10caf75ed2126c88ac13490800", "vin": [{"sequence": 4294967294, "scriptSig": {"hex": "483045022100b94fcab913fc128516110a5c3034778fe9de50f8f1eb4621dd865d39d029392202207a1b585fd08da0e4c9e8ef052c148d5198a05aef6249b3b861619f70555d1f2e012103336c16b091ddf4e710b8c5f4bb76b8fef84af0202ab484c9f553924b5cf4f6b0", "asm": "3045022100b94fcab913fc128516110a5c3034778fe9de50f8f1eb4621dd865d39d029392202207a1b585fd08da0e4c9e8ef052c148d5198a05aef6249b3b861619f70555d1f2e[ALL] 03336c16b091ddf4e710b8c5f4bb76b8fef84af0202ab484c9f553924b5cf4f6b0"}, "vout": 1, "txid": "6ef7b501ca7f5d2e836abcb4b5039fb32f3d834f0dd3da790e4bdf9e3d84dbad"}, {"sequence": 4294967294, "scriptSig": {"hex": "483045022100f87e83c4ef68ca1a31ca23580c3765de6b5d56b0eaddad047e58178207ce6120022013599366242750ec3688962e3dad0ee729ad0a06d22b2f7d9a59ef74c277b142012103336c16b091ddf4e710b8c5f4bb76b8fef84af0202ab484c9f553924b5cf4f6b0", "asm": "3045022100f87e83c4ef68ca1a31ca23580c3765de6b5d56b0eaddad047e58178207ce6120022013599366242750ec3688962e3dad0ee729ad0a06d22b2f7d9a59ef74c277b142[ALL] 03336c16b091ddf4e710b8c5f4bb76b8fef84af0202ab484c9f553924b5cf4f6b0"}, "vout": 0, "txid": "f8e4b5e182788082ffa26d018d30e711ddb6fd9ab5cc2b4b40fdcee510a57778"}], "txid": "48a21de37cf664113da870f0b2a532db335c25d01577b4d6c8189008ee7c1658", "blocktime": 1537873282, "version": 1, "confirmations": 11485, "time": 1537873282, "locktime": 542995, "vsize": 374, "size": 374}