{"hash": "179f661aa826dd48790b7347771313d57eef23a719387f389e2b4d492470b2bd", "blockhash": "0000000000000000000e13cef7c366c0283d82e591d1acd082e914b08063cdf1", "vout": [{"scriptPubKey": {"reqSigs": 1, "hex": "a91404e2a30f753d8394f2b61a5b9a4861f9200ad92787", "addresses": ["328r8KfyJU8BEHqeUVaw9hV5HR3r98qdRy"], "asm": "OP_HASH160 04e2a30f753d8394f2b61a5b9a4861f9200ad927 OP_EQUAL", "type": "scripthash"}, "value": 0.00998063, "n": 0}, {"scriptPubKey": {"reqSigs": 1, "hex": "a9142d600faedf24166a5a76f8667bafc39c4c62fb3f87", "addresses": ["35pwQdUJfMfNDp8rpnyd8LrVoSa1a4jocY"], "asm": "OP_HASH160 2d600faedf24166a5a76f8667bafc39c4c62fb3f OP_EQUAL", "type": "scripthash"}, "value": 0.0029582, "n": 1}], "hex": "020000000001018adf17efd7b20325d16f67bf16d14781cc024811efdc6e7be824b8e1eda3b232000000001716001469134c457f43edf1963882cbde0508cb3cf7e11bfeffffff02af3a0f000000000017a91404e2a30f753d8394f2b61a5b9a4861f9200ad927878c8304000000000017a9142d600faedf24166a5a76f8667bafc39c4c62fb3f87024830450221008e88a60469310d0c817779144e0ed11b9f393550f1af3c6c295e579df8c14c35022052e12003c7696343d52f287f6e69b9610977bf657776791d393ff314ac524088012102438679c9ff2365bab70485b212c310b00bad2fec2eb45cf18253929e971a3f530f490800", "vin": [{"txinwitness": ["30450221008e88a60469310d0c817779144e0ed11b9f393550f1af3c6c295e579df8c14c35022052e12003c7696343d52f287f6e69b9610977bf657776791d393ff314ac52408801", "02438679c9ff2365bab70485b212c310b00bad2fec2eb45cf18253929e971a3f53"], "sequence": 4294967294, "scriptSig": {"hex": "16001469134c457f43edf1963882cbde0508cb3cf7e11b", "asm": "001469134c457f43edf1963882cbde0508cb3cf7e11b"}, "vout": 0, "txid": "32b2a3ede1b824e87b6edcef114802cc8147d116bf676fd12503b2d7ef17df8a"}], "txid": "48a7b9586b2be63b98dc8921db061970341572d5e933057f59c5ceb569af62ae", "blocktime": 1537871767, "version": 2, "confirmations": 11491, "time": 1537871767, "locktime": 542991, "vsize": 166, "size": 248}