{"hash": "48a7450368c18cb62c3abdda39921e5935a8f39d01bd6101da7a5402acfbfece", "blockhash": "00000000000000000018f53835495a110e01622372bf6ae95dc86f2b0ab887b0", "vout": [{"scriptPubKey": {"reqSigs": 1, "hex": "a914e8d4fcfb9f08772e5caf0cb2d3abf878509c1f7187", "addresses": ["3Nv7qjEa3cPyHWfsgiaudTHKGiZ8VRmD5g"], "asm": "OP_HASH160 e8d4fcfb9f08772e5caf0cb2d3abf878509c1f71 OP_EQUAL", "type": "scripthash"}, "value": 0.041, "n": 0}, {"scriptPubKey": {"reqSigs": 1, "hex": "76a9149af201589f951ef2a03200666a4dc2761923f54888ac", "addresses": ["1F8GyMzseFZnvnjEEakko4WcTVh9xp6PoB"], "asm": "OP_DUP OP_HASH160 9af201589f951ef2a03200666a4dc2761923f548 OP_EQUALVERIFY OP_CHECKSIG", "type": "pubkeyhash"}, "value": 0.51602399, "n": 1}], "hex": "0100000001f0d47074fc306101d9fd8a0769c52df294d7fd81e0df26de6d4117fd0cdde24f010000006a47304402203d39a4ac47b4c5b194000fa93525d678ec86ac705768cd5eabc628138a033b7e02206d6934ddbb48787de4a78106ada91410867cae4f34c5614670aab0ca68f9e2c001210374b072c2b88bedab3c76523f4f1b235ca42ca1ed5bbeddf7a1e55816a0ec94a1ffffffff02a08f3e000000000017a914e8d4fcfb9f08772e5caf0cb2d3abf878509c1f7187df631303000000001976a9149af201589f951ef2a03200666a4dc2761923f54888ac00000000", "vin": [{"sequence": 4294967295, "scriptSig": {"hex": "47304402203d39a4ac47b4c5b194000fa93525d678ec86ac705768cd5eabc628138a033b7e02206d6934ddbb48787de4a78106ada91410867cae4f34c5614670aab0ca68f9e2c001210374b072c2b88bedab3c76523f4f1b235ca42ca1ed5bbeddf7a1e55816a0ec94a1", "asm": "304402203d39a4ac47b4c5b194000fa93525d678ec86ac705768cd5eabc628138a033b7e02206d6934ddbb48787de4a78106ada91410867cae4f34c5614670aab0ca68f9e2c0[ALL] 0374b072c2b88bedab3c76523f4f1b235ca42ca1ed5bbeddf7a1e55816a0ec94a1"}, "vout": 1, "txid": "4fe2dd0cfd17416dde26dfe081fdd794f22dc569078afdd9016130fc7470d4f0"}], "txid": "48a7450368c18cb62c3abdda39921e5935a8f39d01bd6101da7a5402acfbfece", "blocktime": 1537870928, "version": 1, "confirmations": 11512, "time": 1537870928, "locktime": 0, "vsize": 223, "size": 223}