{"hash": "0a05f07215bf1260757a509f76a92df781c24aec9b70664d87feb46484b6d2a6", "blockhash": "0000000000000000000baef3f32e3676a92c3b2e5da21b426e4f302fc371ce76", "vout": [{"scriptPubKey": {"reqSigs": 1, "hex": "a914096c52b0417679e1cbebbf1b1923a62faaf94f5287", "addresses": ["32YqmgeQXsjtEr6iveRaDPLkMH6tBqPC2G"], "asm": "OP_HASH160 096c52b0417679e1cbebbf1b1923a62faaf94f52 OP_EQUAL", "type": "scripthash"}, "value": 0.55, "n": 0}, {"scriptPubKey": {"reqSigs": 1, "hex": "a91424a7c22be3389678887ac76596a5d64730e32b2987", "addresses": ["352qDWj7REW8gwPBpTDE9eNiq8mAdAH5K4"], "asm": "OP_HASH160 24a7c22be3389678887ac76596a5d64730e32b29 OP_EQUAL", "type": "scripthash"}, "value": 9.61949692, "n": 1}], "hex": "02000000000101e04d91192c81fff8304f96825af888ed8f99dbed0259951bd545a777cb633f2501000000171600148e163035c9ec50dc85b3075473a78cfb70e841e5feffffff02c03b47030000000017a914096c52b0417679e1cbebbf1b1923a62faaf94f5287fc2f56390000000017a91424a7c22be3389678887ac76596a5d64730e32b2987024830450221009bc8bc4343b6f76cc3a1b6d362cbf68fee28366a4a961316a4a4e7725dc24f7c022003a0272c278715a7479ce4e34d09309c1d0aefb8deaf6aaaa782c339e1da775d012102875f5972abb4e2a3f4bdde0424a4cad68fa4d951082bdd31bd0ca4e97ea6a63817490800", "vin": [{"txinwitness": ["30450221009bc8bc4343b6f76cc3a1b6d362cbf68fee28366a4a961316a4a4e7725dc24f7c022003a0272c278715a7479ce4e34d09309c1d0aefb8deaf6aaaa782c339e1da775d01", "02875f5972abb4e2a3f4bdde0424a4cad68fa4d951082bdd31bd0ca4e97ea6a638"], "sequence": 4294967294, "scriptSig": {"hex": "1600148e163035c9ec50dc85b3075473a78cfb70e841e5", "asm": "00148e163035c9ec50dc85b3075473a78cfb70e841e5"}, "vout": 1, "txid": "253f63cb77a745d51b955902eddb998fed88f85a82964f30f8ff812c19914de0"}], "txid": "48a830b7ee866d1278136bcd0d7a841a5ae9a62b7b94717ed844651131db880b", "blocktime": 1537876114, "version": 2, "confirmations": 11459, "time": 1537876114, "locktime": 542999, "vsize": 166, "size": 248}