{"hash": "7623674bcfa08e8b6a15d003f14a53b06a01ce2aa3e7a73a6c7026d7f5e9813f", "blockhash": "00000000000000000018f53835495a110e01622372bf6ae95dc86f2b0ab887b0", "vout": [{"scriptPubKey": {"reqSigs": 1, "hex": "a91432748eade424271fd36fb42146cc9fead37a373f87", "addresses": ["36HoLgU8ZoHyJe8nsz6iWzaeeEJUz2DLDB"], "asm": "OP_HASH160 32748eade424271fd36fb42146cc9fead37a373f OP_EQUAL", "type": "scripthash"}, "value": 1.5, "n": 0}, {"scriptPubKey": {"reqSigs": 1, "hex": "a91441b4688c30f2c19035a9e2cdd84ea77d621ef2f687", "addresses": ["37gRy1P28cZ1Ky4sAwDEZbkEE2yX6PSBzc"], "asm": "OP_HASH160 41b4688c30f2c19035a9e2cdd84ea77d621ef2f6 OP_EQUAL", "type": "scripthash"}, "value": 2.57137068, "n": 1}], "hex": "010000000001017748bb7c29ef5093f0b3020c760b7147055029827c266acad96fae92d546425d01000000171600144d06ae3488af10ff7efd2dd7fb35582a99a04e69ffffffff0280d1f0080000000017a91432748eade424271fd36fb42146cc9fead37a373f87ac99530f0000000017a91441b4688c30f2c19035a9e2cdd84ea77d621ef2f68702473044022021400f390cc5d7b32136ba9877cca5641de9edabaea90ed91044e6f680c962e302200ef55cc14f993909218ee05ec963ed68e4b7d8d8e53d3a37b0bb93650e7e77f801210204c09cdfca956fa8a7acb65c44eaedfd2cb7f773b487e93a517e7d5a9f0e091b00000000", "vin": [{"txinwitness": ["3044022021400f390cc5d7b32136ba9877cca5641de9edabaea90ed91044e6f680c962e302200ef55cc14f993909218ee05ec963ed68e4b7d8d8e53d3a37b0bb93650e7e77f801", "0204c09cdfca956fa8a7acb65c44eaedfd2cb7f773b487e93a517e7d5a9f0e091b"], "sequence": 4294967295, "scriptSig": {"hex": "1600144d06ae3488af10ff7efd2dd7fb35582a99a04e69", "asm": "00144d06ae3488af10ff7efd2dd7fb35582a99a04e69"}, "vout": 1, "txid": "5d4246d592ae6fd9ca6a267c8229500547710b760c02b3f09350ef297cbb4877"}], "txid": "48ae8cb427ab3aedcf055ffd32ad75b354842436285d726ce09771cd58ee1c98", "blocktime": 1537870928, "version": 1, "confirmations": 11512, "time": 1537870928, "locktime": 0, "vsize": 166, "size": 247}