{"hash": "79d872f6f0f6276d353e6520e6cc3e63cd5a40368b58ae992f65d17537dff803", "blockhash": "0000000000000000000baef3f32e3676a92c3b2e5da21b426e4f302fc371ce76", "vout": [{"scriptPubKey": {"reqSigs": 1, "hex": "a914a531484590efc67321b8764ed34daae55d82a31b87", "addresses": ["3GkUTPcvagyg61LHqeL9AtGyw4beMNpLLQ"], "asm": "OP_HASH160 a531484590efc67321b8764ed34daae55d82a31b OP_EQUAL", "type": "scripthash"}, "value": 0.00091836, "n": 0}, {"scriptPubKey": {"reqSigs": 1, "hex": "a91408c364340a91e77e4376b26fdad3b5aedc5661f787", "addresses": ["32VMQ7Th4qGhbDYY68FZrfSF9hTbsPivgt"], "asm": "OP_HASH160 08c364340a91e77e4376b26fdad3b5aedc5661f7 OP_EQUAL", "type": "scripthash"}, "value": 0.01537144, "n": 1}], "hex": "010000000001011ba1a93fbe1d1273df28d95356bccd4d88d3d1dce606ad8a56b5d0456bbc7155010000002322002027561ef61439ff4994ea3793249bbb358319edb59fff63c1eeada48f299e81b5ffffffff02bc6601000000000017a914a531484590efc67321b8764ed34daae55d82a31b87787417000000000017a91408c364340a91e77e4376b26fdad3b5aedc5661f7870400483045022100d0fe5ad1a5da9f50cb31d40309afd85f066450874b3b9f1997bfb9d744147331022052b0012046b5064e3eaef7d99331312be6ded03e4df521dfbf94a490c6fd9d560148304502210080588ace167c7247c25ac034f026a0714a0115900d625290938a6e10259b1f74022074f0d7ddb253bebaff0212f9ed11c97452bd251101aa83893ad90bc67382d5f10147522102f484437eae67e7d1f9cf7235bd52510c99f379408a1f6fe737011d4bc259358a2103871fc2ca08e6950b38867e8e6a0e94ee625223d3aa0df5c65f414c6d784467e252ae00000000", "vin": [{"txinwitness": ["", "3045022100d0fe5ad1a5da9f50cb31d40309afd85f066450874b3b9f1997bfb9d744147331022052b0012046b5064e3eaef7d99331312be6ded03e4df521dfbf94a490c6fd9d5601", "304502210080588ace167c7247c25ac034f026a0714a0115900d625290938a6e10259b1f74022074f0d7ddb253bebaff0212f9ed11c97452bd251101aa83893ad90bc67382d5f101", "522102f484437eae67e7d1f9cf7235bd52510c99f379408a1f6fe737011d4bc259358a2103871fc2ca08e6950b38867e8e6a0e94ee625223d3aa0df5c65f414c6d784467e252ae"], "sequence": 4294967295, "scriptSig": {"hex": "22002027561ef61439ff4994ea3793249bbb358319edb59fff63c1eeada48f299e81b5", "asm": "002027561ef61439ff4994ea3793249bbb358319edb59fff63c1eeada48f299e81b5"}, "vout": 1, "txid": "5571bc6b45d0b5568aad06e6dcd1d3884dcdbc5653d928df73121dbe3fa9a11b"}], "txid": "48b6de9f942987305620415845b6ac516f73d83ba89d896609bd35d3848340a7", "blocktime": 1537876114, "version": 1, "confirmations": 11462, "time": 1537876114, "locktime": 0, "vsize": 206, "size": 372}