{"hash": "48b86f031a911eff446e10a1b0abaf6386f63b614185d6591948bb56a4937d94", "blockhash": "0000000000000000001e0dab787dd257d1dbfcb92a98c2207d5e1078be1f4165", "vout": [{"scriptPubKey": {"reqSigs": 1, "hex": "76a9148f0902ff7969435c5f8480e579b1bfeee5e3cf1888ac", "addresses": ["1E3JRaRyJQeb22EY2qa4jEnVUMVMj4EFHx"], "asm": "OP_DUP OP_HASH160 8f0902ff7969435c5f8480e579b1bfeee5e3cf18 OP_EQUALVERIFY OP_CHECKSIG", "type": "pubkeyhash"}, "value": 5.46e-06, "n": 0}, {"scriptPubKey": {"reqSigs": 1, "hex": "76a914c7c85b6d48e86be522b9ba24e183c052df8086c888ac", "addresses": ["1KDMVETubv9YVWGqUaoC9z3y74fqzc4fBT"], "asm": "OP_DUP OP_HASH160 c7c85b6d48e86be522b9ba24e183c052df8086c8 OP_EQUALVERIFY OP_CHECKSIG", "type": "pubkeyhash"}, "value": 2.832e-05, "n": 1}], "hex": "0100000001fabfd9a90737c4c3bede9fad59e7d431c4ad6b9979a8a700aa8279abb4e04ad8010000006a47304402204d4a207d146a44db03859dcccdac024be099424e0616bfac8c09652efbeee95d02200509f8b23f26817461601ec10bb56a09b33f9f211f8a6b271e93bf4c757b83e40121030c6f78d65285e97763767e9f31b892f062099986315c93240a4b37ada6053709ffffffff0222020000000000001976a9148f0902ff7969435c5f8480e579b1bfeee5e3cf1888ac100b0000000000001976a914c7c85b6d48e86be522b9ba24e183c052df8086c888ac00000000", "vin": [{"sequence": 4294967295, "scriptSig": {"hex": "47304402204d4a207d146a44db03859dcccdac024be099424e0616bfac8c09652efbeee95d02200509f8b23f26817461601ec10bb56a09b33f9f211f8a6b271e93bf4c757b83e40121030c6f78d65285e97763767e9f31b892f062099986315c93240a4b37ada6053709", "asm": "304402204d4a207d146a44db03859dcccdac024be099424e0616bfac8c09652efbeee95d02200509f8b23f26817461601ec10bb56a09b33f9f211f8a6b271e93bf4c757b83e4[ALL] 030c6f78d65285e97763767e9f31b892f062099986315c93240a4b37ada6053709"}, "vout": 1, "txid": "d84ae0b4ab7982aa00a7a879996badc431d4e759ad9fdebec3c43707a9d9bffa"}], "txid": "48b86f031a911eff446e10a1b0abaf6386f63b614185d6591948bb56a4937d94", "blocktime": 1537872475, "version": 1, "confirmations": 11487, "time": 1537872475, "locktime": 0, "vsize": 225, "size": 225}