{"hash": "69a2bddd8fb3b2d85f2ac7394b5eb92806ce3b4a684a21a612839c6581a2cad7", "blockhash": "000000000000000000022b45ed06c6f4ccd3cf7fb5ba4856ebd2e58215665228", "vout": [{"scriptPubKey": {"reqSigs": 1, "hex": "a914861f895d73f4f42f1a8db58f8036e1df516ac60287", "addresses": ["3DvCFT1Hbuw4Eg9wgtzBXXqyk7iTRztf9V"], "asm": "OP_HASH160 861f895d73f4f42f1a8db58f8036e1df516ac602 OP_EQUAL", "type": "scripthash"}, "value": 0.00091363, "n": 0}, {"scriptPubKey": {"reqSigs": 1, "hex": "a914dde1b06b5aa7c1b72ccd4096a8ac364666059bce87", "addresses": ["3MvDd6S9q3ZfYPFtddjZisMoYYMKECNzMS"], "asm": "OP_HASH160 dde1b06b5aa7c1b72ccd4096a8ac364666059bce OP_EQUAL", "type": "scripthash"}, "value": 0.03295406, "n": 1}], "hex": "010000000001015b4dfb455c6c49da7d816a8f4e9ee6ba53f7750786a7d581578421cff1baeaee0100000023220020e2cae556dbdfe249d99c52ad57b42cfab51f6a41e1470f5d63e903dcff3db6d8ffffffff02e36401000000000017a914861f895d73f4f42f1a8db58f8036e1df516ac60287ae4832000000000017a914dde1b06b5aa7c1b72ccd4096a8ac364666059bce87040047304402207bdca009e6190a7e77356e45a4436d21e450062d67c2e09a9bd654e4a98897ca02203b6b401d65ca73452f1952e0b596d8f379dbcf24ac62481880de943bff0125cc0147304402201b69233af7fe294ca83bb6d86ef3513265740c56b94ab118f8de945b6912531502200bfb066e2aaa357668be195eaad1881f99740b3683ebfb93070df7006a8d87b10147522102bf5fd280b0b6efb0df5a7c0362fabcd776d51479e5acdc89f8cd7e2b3e49c3e72103871fc2ca08e6950b38867e8e6a0e94ee625223d3aa0df5c65f414c6d784467e252ae00000000", "vin": [{"txinwitness": ["", "304402207bdca009e6190a7e77356e45a4436d21e450062d67c2e09a9bd654e4a98897ca02203b6b401d65ca73452f1952e0b596d8f379dbcf24ac62481880de943bff0125cc01", "304402201b69233af7fe294ca83bb6d86ef3513265740c56b94ab118f8de945b6912531502200bfb066e2aaa357668be195eaad1881f99740b3683ebfb93070df7006a8d87b101", "522102bf5fd280b0b6efb0df5a7c0362fabcd776d51479e5acdc89f8cd7e2b3e49c3e72103871fc2ca08e6950b38867e8e6a0e94ee625223d3aa0df5c65f414c6d784467e252ae"], "sequence": 4294967295, "scriptSig": {"hex": "220020e2cae556dbdfe249d99c52ad57b42cfab51f6a41e1470f5d63e903dcff3db6d8", "asm": "0020e2cae556dbdfe249d99c52ad57b42cfab51f6a41e1470f5d63e903dcff3db6d8"}, "vout": 1, "txid": "eeeabaf1cf21845781d5a7860775f753bae69e4e8f6a817dda496c5c45fb4d5b"}], "txid": "48bbace64c2846e4e5a5b1757dd316bacf0172b87e23ca3290cb72ef5667f6fb", "blocktime": 1537869901, "version": 1, "confirmations": 11524, "time": 1537869901, "locktime": 0, "vsize": 205, "size": 370}