{"hash": "48c68d4ad286690f04e471b618174639c10b43ccc362a48cc61524dae8a0d3cb", "blockhash": "0000000000000000000dcc0f55137456b1a82d3642486a52398922ac4d620174", "vout": [{"scriptPubKey": {"reqSigs": 1, "hex": "76a9140870e49cf401d8e1665e09c721ba416e3257a3de88ac", "addresses": ["1mdeUnxtoN5G1gUmnV3SdSjYHgDmzpXsP"], "asm": "OP_DUP OP_HASH160 0870e49cf401d8e1665e09c721ba416e3257a3de OP_EQUALVERIFY OP_CHECKSIG", "type": "pubkeyhash"}, "value": 0.00176942, "n": 0}, {"scriptPubKey": {"reqSigs": 1, "hex": "76a914eac8035b51e978075cf3c4ff17a8671a0a9cd05088ac", "addresses": ["1NQQj3Vc6zfJQBQNBgHXjPukAFHKrwqJQG"], "asm": "OP_DUP OP_HASH160 eac8035b51e978075cf3c4ff17a8671a0a9cd050 OP_EQUALVERIFY OP_CHECKSIG", "type": "pubkeyhash"}, "value": 0.0046785, "n": 1}], "hex": "0100000001c6115924cd6fd3ad2972434a046b80d6fef77b8ef258926e5d354948e4c2de08000000006a473044022075f85eacf4f9dccff05c07f150096d9bb9e50cdad6eca73458a9220787fcaed702204a4a9ca832112f9366ce560d4fc8b8faa80a233cb2f5548d1ba1c46c97e93963012102730245900006aebdba5de049d2c6a6384f815789239d0353b7a7e912fa9bbf89ffffffff022eb30200000000001976a9140870e49cf401d8e1665e09c721ba416e3257a3de88ac8a230700000000001976a914eac8035b51e978075cf3c4ff17a8671a0a9cd05088ac00000000", "vin": [{"sequence": 4294967295, "scriptSig": {"hex": "473044022075f85eacf4f9dccff05c07f150096d9bb9e50cdad6eca73458a9220787fcaed702204a4a9ca832112f9366ce560d4fc8b8faa80a233cb2f5548d1ba1c46c97e93963012102730245900006aebdba5de049d2c6a6384f815789239d0353b7a7e912fa9bbf89", "asm": "3044022075f85eacf4f9dccff05c07f150096d9bb9e50cdad6eca73458a9220787fcaed702204a4a9ca832112f9366ce560d4fc8b8faa80a233cb2f5548d1ba1c46c97e93963[ALL] 02730245900006aebdba5de049d2c6a6384f815789239d0353b7a7e912fa9bbf89"}, "vout": 0, "txid": "08dec2e44849355d6e9258f28e7bf7fed6806b044a437229add36fcd245911c6"}], "txid": "48c68d4ad286690f04e471b618174639c10b43ccc362a48cc61524dae8a0d3cb", "blocktime": 1537870268, "version": 1, "confirmations": 11518, "time": 1537870268, "locktime": 0, "vsize": 225, "size": 225}