{"hash": "48c640aef71e0b4b4edcf3a9ac77e1387350cde303969400d2f7b46544053031", "blockhash": "00000000000000000004ffacab907a6b429b9a5745fa0b75af4234bf69dd7176", "vout": [{"scriptPubKey": {"reqSigs": 1, "hex": "76a9148794e32f6e0fd222ae11b3817223836ef1e97dc088ac", "addresses": ["1DMtan85pfiZRTFF6SYkVX1GXV45jqNNoL"], "asm": "OP_DUP OP_HASH160 8794e32f6e0fd222ae11b3817223836ef1e97dc0 OP_EQUALVERIFY OP_CHECKSIG", "type": "pubkeyhash"}, "value": 3.21644935, "n": 0}], "hex": "020000000b257faf129c1bd296a2f60066096e70b7e3e2c7c58097cac1db8428b9bae0b0d3000000006a47304402200f2693620afc3b1142fee212ec9bc9d4739168dd342580ca7d04ab6310fe2a4d02206515dcf73005c111005ef2eb966371c91c75905a0ddc69a293aade70dcd0ef8a012103bc8bb9509dea2c737a937de0f8ae3027d70433a62e862647f39edbe915256ca0ffffffff328bcff311540b427d4ee3c39d21edba1646962e78af63eb2f3d99a773b2e5a5070000006a4730440220092a1374af54ee0101fafe8c4115bd0568a9334be9e67e7adf80dacab5e74e0d022036cfe1272ba75630e26528fb1cc9239755fccc9aee365a158618f45a20024c9b0121025f7a8e24a5df1b2e02a587b1a2102b7c4a96738c5f7c2041e93089f0b37b060effffffff504f2ca8a4143d8791d054b561335b88354fc341707775939ce523ba0a832289000000006a473044022005738b0b1f122ec3da89254d4424fa97468b296c21b758116618846940602da802206c40fe93ddd690c0e238e52cf6aaef47deb32ec3aa668081aac57e85046d9824012102ed11cbe1c925d0c8df116756d16b8f023790fda68871dced7f19548d7bfa3198ffffffff70928c216a5b6301eb71793c31a1005060e7155dab0c1d04bdd79ff1db52d9c0240000006a473044022029e1aca9c2d34e4161c79507d94e0a822059439a8425d869d139ddd1d5f710ba022007d3b21ad4dd7c546b6ebabc6bf97b38d057f9a289da9839ceccfebf3dc061310121029e5d6d3acb65022d6ac351e2776a90c66dcd07f2696e5fb1a5fedb5b37fc75bcffffffff7d48815a2c1c3cc367ba19344bc4c2921dda734e7fd20a2b94bbdff3d182fc72000000006a4730440220667ca18f0e124312ec8f5c631eaa8c8a0b8f91453840c794503573fc42dd99870220350f31018e904c965ab788ad71ba30bb48df0303ceec8c116c81a721302d4254012103f4a994eb8c15f6a7e2ca50f5c95163ef2f9a80c8ab5b4defdb3a782282bd983dffffffff7e8b395917437b8e0d38a31c579d9b7e1c33203d12db6568d991fd446c87b6c9000000006b483045022100b29dfd022eb976d70a91de5a265a5cc792ba809b7d5e41b1aff12b9feb55706e022033f317326657090825b8816f662cbdd0e31ad836d933514f752294483ffc81aa0121036c242744b97c534b936b95dd9f298a76792e019a9f3e4123c281f8aa30071714ffffffff9f0905014e62c4213e65d1aa4d9f6cc911ecba4fbb47f0356a60ee216ff86561520000006a47304402203dd5a17112dc46cbeb7b3daab126ccde1529f93099c4e900fa348252d502329802205486838daa09b9cd0a7806b7de9b68e8c9915d294c1211cb92b448318bafa1e60121034d4110e5af10b20ac3e119633142b7260dda30b871df2de5a25bdb75acfe5b27ffffffffa9f073c140b7f9bb13480ce0b536d9a21113b6a1d48c08727e8d0e836fe9b4fc020000006b48304502210098af3026270ad1ffa8bf8db3a8c51c05ba40e0a3a5d0848e0ff431d65e76fcb602201bb7041e70f9bad2a7ce868180387d1c386a6a728242510f526753bb5b2578a7012103c70aef81ace2659c58beef4ea6f25fb053b94720cae32f8a6da3a74d698e00e5ffffffffc9d3117831c3c2cf6dd7a47bbf6c56f3b046c8430865af76978b394940c7d3ed400000006b483045022100837bc14df20f485dda25470d78d85b2bdbc081111728d98d793307513e7f8b0e022054c5ca2164431b090322f35d34d63cfdc7cb6c3c45eade0386e264f404d58681012102511554db103a20faa046c9aec1b5239c1cda571472579b5b4405ba0a8e8b42cbffffffffeb734a2315ca7c26cd0a83ea7977eb10e92de24c8cc64e148e2c96f106ebfa68010000006b483045022100d4c3c20453e17ced2809ef875670789ea3a309cbcdbc6fc0d9ab29f1912302a1022051b051690291773aa00a72c2133294fb6fb98cd4e4f7bd474af82833f9197caa01210278689513c6a9bbcf49e5f1bb300c14c91d4fc9096969c2b90a366153f5dc27d9fffffffff686b7e24630adc2d501fdf100de06865270b3a0713a0dead35d93f46fd77267050000006b483045022100d2f3596250b36da027d988074c3b4b2014ae6b1714ac0ba2a7cd35cc53ba5a3f02202c8d377a5b7704c950319a216779f6d5f9ad223cb22c98480e642c0c71744e9c0121036440ac68a8854e151dbaa1ff6f80388475a17d3faed79d89c6f75b1cea92d923ffffffff0187e92b13000000001976a9148794e32f6e0fd222ae11b3817223836ef1e97dc088ac00000000", "vin": [{"sequence": 4294967295, "scriptSig": {"hex": "47304402200f2693620afc3b1142fee212ec9bc9d4739168dd342580ca7d04ab6310fe2a4d02206515dcf73005c111005ef2eb966371c91c75905a0ddc69a293aade70dcd0ef8a012103bc8bb9509dea2c737a937de0f8ae3027d70433a62e862647f39edbe915256ca0", "asm": "304402200f2693620afc3b1142fee212ec9bc9d4739168dd342580ca7d04ab6310fe2a4d02206515dcf73005c111005ef2eb966371c91c75905a0ddc69a293aade70dcd0ef8a[ALL] 03bc8bb9509dea2c737a937de0f8ae3027d70433a62e862647f39edbe915256ca0"}, "vout": 0, "txid": "d3b0e0bab92884dbc1ca9780c5c7e2e3b7706e096600f6a296d21b9c12af7f25"}, {"sequence": 4294967295, "scriptSig": {"hex": "4730440220092a1374af54ee0101fafe8c4115bd0568a9334be9e67e7adf80dacab5e74e0d022036cfe1272ba75630e26528fb1cc9239755fccc9aee365a158618f45a20024c9b0121025f7a8e24a5df1b2e02a587b1a2102b7c4a96738c5f7c2041e93089f0b37b060e", "asm": "30440220092a1374af54ee0101fafe8c4115bd0568a9334be9e67e7adf80dacab5e74e0d022036cfe1272ba75630e26528fb1cc9239755fccc9aee365a158618f45a20024c9b[ALL] 025f7a8e24a5df1b2e02a587b1a2102b7c4a96738c5f7c2041e93089f0b37b060e"}, "vout": 7, "txid": "a5e5b273a7993d2feb63af782e964616baed219dc3e34e7d420b5411f3cf8b32"}, {"sequence": 4294967295, "scriptSig": {"hex": "473044022005738b0b1f122ec3da89254d4424fa97468b296c21b758116618846940602da802206c40fe93ddd690c0e238e52cf6aaef47deb32ec3aa668081aac57e85046d9824012102ed11cbe1c925d0c8df116756d16b8f023790fda68871dced7f19548d7bfa3198", "asm": "3044022005738b0b1f122ec3da89254d4424fa97468b296c21b758116618846940602da802206c40fe93ddd690c0e238e52cf6aaef47deb32ec3aa668081aac57e85046d9824[ALL] 02ed11cbe1c925d0c8df116756d16b8f023790fda68871dced7f19548d7bfa3198"}, "vout": 0, "txid": "8922830aba23e59c9375777041c34f35885b3361b554d091873d14a4a82c4f50"}, {"sequence": 4294967295, "scriptSig": {"hex": "473044022029e1aca9c2d34e4161c79507d94e0a822059439a8425d869d139ddd1d5f710ba022007d3b21ad4dd7c546b6ebabc6bf97b38d057f9a289da9839ceccfebf3dc061310121029e5d6d3acb65022d6ac351e2776a90c66dcd07f2696e5fb1a5fedb5b37fc75bc", "asm": "3044022029e1aca9c2d34e4161c79507d94e0a822059439a8425d869d139ddd1d5f710ba022007d3b21ad4dd7c546b6ebabc6bf97b38d057f9a289da9839ceccfebf3dc06131[ALL] 029e5d6d3acb65022d6ac351e2776a90c66dcd07f2696e5fb1a5fedb5b37fc75bc"}, "vout": 36, "txid": "c0d952dbf19fd7bd041d0cab5d15e7605000a1313c7971eb01635b6a218c9270"}, {"sequence": 4294967295, "scriptSig": {"hex": "4730440220667ca18f0e124312ec8f5c631eaa8c8a0b8f91453840c794503573fc42dd99870220350f31018e904c965ab788ad71ba30bb48df0303ceec8c116c81a721302d4254012103f4a994eb8c15f6a7e2ca50f5c95163ef2f9a80c8ab5b4defdb3a782282bd983d", "asm": "30440220667ca18f0e124312ec8f5c631eaa8c8a0b8f91453840c794503573fc42dd99870220350f31018e904c965ab788ad71ba30bb48df0303ceec8c116c81a721302d4254[ALL] 03f4a994eb8c15f6a7e2ca50f5c95163ef2f9a80c8ab5b4defdb3a782282bd983d"}, "vout": 0, "txid": "72fc82d1f3dfbb942b0ad27f4e73da1d92c2c44b3419ba67c33c1c2c5a81487d"}, {"sequence": 4294967295, "scriptSig": {"hex": "483045022100b29dfd022eb976d70a91de5a265a5cc792ba809b7d5e41b1aff12b9feb55706e022033f317326657090825b8816f662cbdd0e31ad836d933514f752294483ffc81aa0121036c242744b97c534b936b95dd9f298a76792e019a9f3e4123c281f8aa30071714", "asm": "3045022100b29dfd022eb976d70a91de5a265a5cc792ba809b7d5e41b1aff12b9feb55706e022033f317326657090825b8816f662cbdd0e31ad836d933514f752294483ffc81aa[ALL] 036c242744b97c534b936b95dd9f298a76792e019a9f3e4123c281f8aa30071714"}, "vout": 0, "txid": "c9b6876c44fd91d96865db123d20331c7e9b9d571ca3380d8e7b431759398b7e"}, {"sequence": 4294967295, "scriptSig": {"hex": "47304402203dd5a17112dc46cbeb7b3daab126ccde1529f93099c4e900fa348252d502329802205486838daa09b9cd0a7806b7de9b68e8c9915d294c1211cb92b448318bafa1e60121034d4110e5af10b20ac3e119633142b7260dda30b871df2de5a25bdb75acfe5b27", "asm": "304402203dd5a17112dc46cbeb7b3daab126ccde1529f93099c4e900fa348252d502329802205486838daa09b9cd0a7806b7de9b68e8c9915d294c1211cb92b448318bafa1e6[ALL] 034d4110e5af10b20ac3e119633142b7260dda30b871df2de5a25bdb75acfe5b27"}, "vout": 82, "txid": "6165f86f21ee606a35f047bb4fbaec11c96c9f4daad1653e21c4624e0105099f"}, {"sequence": 4294967295, "scriptSig": {"hex": "48304502210098af3026270ad1ffa8bf8db3a8c51c05ba40e0a3a5d0848e0ff431d65e76fcb602201bb7041e70f9bad2a7ce868180387d1c386a6a728242510f526753bb5b2578a7012103c70aef81ace2659c58beef4ea6f25fb053b94720cae32f8a6da3a74d698e00e5", "asm": "304502210098af3026270ad1ffa8bf8db3a8c51c05ba40e0a3a5d0848e0ff431d65e76fcb602201bb7041e70f9bad2a7ce868180387d1c386a6a728242510f526753bb5b2578a7[ALL] 03c70aef81ace2659c58beef4ea6f25fb053b94720cae32f8a6da3a74d698e00e5"}, "vout": 2, "txid": "fcb4e96f830e8d7e72088cd4a1b61311a2d936b5e00c4813bbf9b740c173f0a9"}, {"sequence": 4294967295, "scriptSig": {"hex": "483045022100837bc14df20f485dda25470d78d85b2bdbc081111728d98d793307513e7f8b0e022054c5ca2164431b090322f35d34d63cfdc7cb6c3c45eade0386e264f404d58681012102511554db103a20faa046c9aec1b5239c1cda571472579b5b4405ba0a8e8b42cb", "asm": "3045022100837bc14df20f485dda25470d78d85b2bdbc081111728d98d793307513e7f8b0e022054c5ca2164431b090322f35d34d63cfdc7cb6c3c45eade0386e264f404d58681[ALL] 02511554db103a20faa046c9aec1b5239c1cda571472579b5b4405ba0a8e8b42cb"}, "vout": 64, "txid": "edd3c74049398b9776af650843c846b0f3566cbf7ba4d76dcfc2c3317811d3c9"}, {"sequence": 4294967295, "scriptSig": {"hex": "483045022100d4c3c20453e17ced2809ef875670789ea3a309cbcdbc6fc0d9ab29f1912302a1022051b051690291773aa00a72c2133294fb6fb98cd4e4f7bd474af82833f9197caa01210278689513c6a9bbcf49e5f1bb300c14c91d4fc9096969c2b90a366153f5dc27d9", "asm": "3045022100d4c3c20453e17ced2809ef875670789ea3a309cbcdbc6fc0d9ab29f1912302a1022051b051690291773aa00a72c2133294fb6fb98cd4e4f7bd474af82833f9197caa[ALL] 0278689513c6a9bbcf49e5f1bb300c14c91d4fc9096969c2b90a366153f5dc27d9"}, "vout": 1, "txid": "68faeb06f1962c8e144ec68c4ce22de910eb7779ea830acd267cca15234a73eb"}, {"sequence": 4294967295, "scriptSig": {"hex": "483045022100d2f3596250b36da027d988074c3b4b2014ae6b1714ac0ba2a7cd35cc53ba5a3f02202c8d377a5b7704c950319a216779f6d5f9ad223cb22c98480e642c0c71744e9c0121036440ac68a8854e151dbaa1ff6f80388475a17d3faed79d89c6f75b1cea92d923", "asm": "3045022100d2f3596250b36da027d988074c3b4b2014ae6b1714ac0ba2a7cd35cc53ba5a3f02202c8d377a5b7704c950319a216779f6d5f9ad223cb22c98480e642c0c71744e9c[ALL] 036440ac68a8854e151dbaa1ff6f80388475a17d3faed79d89c6f75b1cea92d923"}, "vout": 5, "txid": "6772d76ff4935dd3ea0d3a71a0b370528606de00f1fd01d5c2ad3046e2b786f6"}], "txid": "48c640aef71e0b4b4edcf3a9ac77e1387350cde303969400d2f7b46544053031", "blocktime": 1537875543, "version": 2, "confirmations": 11464, "time": 1537875543, "locktime": 0, "vsize": 1666, "size": 1666}