{"hash": "48c707558b6c76a4d0a4f96664ecb78153b96dc03f02c1d36273ce4efe754a81", "blockhash": "00000000000000000024a2167bbff67b0be802c0b01cdd79e6331c2be6459f87", "vout": [{"scriptPubKey": {"reqSigs": 1, "hex": "76a914e6229bdc745516950d71941336c1267784b9342c88ac", "addresses": ["1MyqsnXDMtAjMez44seiYDiymVoV8ZWx76"], "asm": "OP_DUP OP_HASH160 e6229bdc745516950d71941336c1267784b9342c OP_EQUALVERIFY OP_CHECKSIG", "type": "pubkeyhash"}, "value": 0.090679, "n": 0}, {"scriptPubKey": {"reqSigs": 1, "hex": "76a914f2466254983f2cbb3b0af8fae3f5444c75e7182888ac", "addresses": ["1P62qoBPxCmSYG9gLthjSdMcXyE691hqRX"], "asm": "OP_DUP OP_HASH160 f2466254983f2cbb3b0af8fae3f5444c75e71828 OP_EQUALVERIFY OP_CHECKSIG", "type": "pubkeyhash"}, "value": 0.60582038, "n": 1}], "hex": "0100000001df38faf8597dbcf4c094b4b090d4ef96672462f0397d89f8b330d58220d08f04010000006b483045022100ceeab7d5e76204bc7d8fe5359157f6e2effc0e30357f7cc9d68ca89d1f3d686502200573bbe0ab510544d13da291f100b5a3ee9502e2af6c09fb8907d066eb64e72a012102b9cb13c91ae52373e93a64381499b581e094f8bc5fc882dd6bc61712a30ab50dffffffff027c5d8a00000000001976a914e6229bdc745516950d71941336c1267784b9342c88ac96689c03000000001976a914f2466254983f2cbb3b0af8fae3f5444c75e7182888ac00000000", "vin": [{"sequence": 4294967295, "scriptSig": {"hex": "483045022100ceeab7d5e76204bc7d8fe5359157f6e2effc0e30357f7cc9d68ca89d1f3d686502200573bbe0ab510544d13da291f100b5a3ee9502e2af6c09fb8907d066eb64e72a012102b9cb13c91ae52373e93a64381499b581e094f8bc5fc882dd6bc61712a30ab50d", "asm": "3045022100ceeab7d5e76204bc7d8fe5359157f6e2effc0e30357f7cc9d68ca89d1f3d686502200573bbe0ab510544d13da291f100b5a3ee9502e2af6c09fb8907d066eb64e72a[ALL] 02b9cb13c91ae52373e93a64381499b581e094f8bc5fc882dd6bc61712a30ab50d"}, "vout": 1, "txid": "048fd02082d530b3f8897d39f062246796efd490b0b494c0f4bc7d59f8fa38df"}], "txid": "48c707558b6c76a4d0a4f96664ecb78153b96dc03f02c1d36273ce4efe754a81", "blocktime": 1537870564, "version": 1, "confirmations": 11515, "time": 1537870564, "locktime": 0, "vsize": 226, "size": 226}