{"hash": "48c7daa569c1b46e155c06bd41291a46ffd5bf966da42e3c15b1fb87d91e8e72", "blockhash": "00000000000000000017f5eb5941039fbcee6240d03bc1f2f8e35350df66a1d8", "vout": [{"scriptPubKey": {"reqSigs": 1, "hex": "76a91460fe8cb4513d49c7d93f3af062b85e338910d8df88ac", "addresses": ["19qroqMzr1x2u57Q3BJNhz3VNiuqk6a9cy"], "asm": "OP_DUP OP_HASH160 60fe8cb4513d49c7d93f3af062b85e338910d8df OP_EQUALVERIFY OP_CHECKSIG", "type": "pubkeyhash"}, "value": 0.00061529, "n": 0}, {"scriptPubKey": {"reqSigs": 1, "hex": "76a9147819953ca09864bdd57d7b6011f153a6fbbca8ff88ac", "addresses": ["1Bx2jZAjyp6PCXvRfaXcdmqL2wXfVRj281"], "asm": "OP_DUP OP_HASH160 7819953ca09864bdd57d7b6011f153a6fbbca8ff OP_EQUALVERIFY OP_CHECKSIG", "type": "pubkeyhash"}, "value": 0.00078084, "n": 1}], "hex": "01000000015932e05fa382f06bb6312f880b274d5988a0117fc97be36238c60d1ea8c441ff020000006a4730440220739a0bc7f59ec0ff48a303e20bcc76bd526085b1ef3c664b037dd4a3a3724d3f02201d3082124754f95a01225dc85a0ba709c5a9a636f5ddee2429fef167d5859224012103146ae88badb2f92b65a15ec94f48d6d6093c08d8cf5c87689da1da40f8502325ffffffff0259f00000000000001976a91460fe8cb4513d49c7d93f3af062b85e338910d8df88ac04310100000000001976a9147819953ca09864bdd57d7b6011f153a6fbbca8ff88ac00000000", "vin": [{"sequence": 4294967295, "scriptSig": {"hex": "4730440220739a0bc7f59ec0ff48a303e20bcc76bd526085b1ef3c664b037dd4a3a3724d3f02201d3082124754f95a01225dc85a0ba709c5a9a636f5ddee2429fef167d5859224012103146ae88badb2f92b65a15ec94f48d6d6093c08d8cf5c87689da1da40f8502325", "asm": "30440220739a0bc7f59ec0ff48a303e20bcc76bd526085b1ef3c664b037dd4a3a3724d3f02201d3082124754f95a01225dc85a0ba709c5a9a636f5ddee2429fef167d5859224[ALL] 03146ae88badb2f92b65a15ec94f48d6d6093c08d8cf5c87689da1da40f8502325"}, "vout": 2, "txid": "ff41c4a81e0dc63862e37bc97f11a088594d270b882f31b66bf082a35fe03259"}], "txid": "48c7daa569c1b46e155c06bd41291a46ffd5bf966da42e3c15b1fb87d91e8e72", "blocktime": 1537874412, "version": 1, "confirmations": 11468, "time": 1537874412, "locktime": 0, "vsize": 225, "size": 225}