{"hash": "48d59ca35ee8d38b1acd6ce7ede6d7d0320d4df432520013e8d3fa68ad183935", "blockhash": "00000000000000000017f5eb5941039fbcee6240d03bc1f2f8e35350df66a1d8", "vout": [{"scriptPubKey": {"reqSigs": 1, "hex": "a91435303ae29b67127683a4e9f0684965361e40980d87", "addresses": ["36YFWnrFwu6GmFj27qhiLy25HAit9uUba6"], "asm": "OP_HASH160 35303ae29b67127683a4e9f0684965361e40980d OP_EQUAL", "type": "scripthash"}, "value": 0.0023744, "n": 0}, {"scriptPubKey": {"reqSigs": 1, "hex": "76a9145f9e88627b284460e3964436420d511d148b2b9d88ac", "addresses": ["19ib7GpD9E2j33mKpcGztjNFP31s48wQPU"], "asm": "OP_DUP OP_HASH160 5f9e88627b284460e3964436420d511d148b2b9d OP_EQUALVERIFY OP_CHECKSIG", "type": "pubkeyhash"}, "value": 0.00509467, "n": 1}], "hex": "01000000017dd90cea7822541525d8aecb9af74532e47e359f620578d03734d9b11a9a282e000000006b483045022100badc4f7bdb6a81fa45a3c6f10aba20aef71b170ccc4e6845c7d03acf68f623bb02201ae023117acb5c82080714bea4fe08c28a1b6a78c9099f1181902f69ed08636701210263eeb84412abb5a8230861b2da1ab5da4262c354dcd96299bc530bae06d37041ffffffff02809f03000000000017a91435303ae29b67127683a4e9f0684965361e40980d871bc60700000000001976a9145f9e88627b284460e3964436420d511d148b2b9d88ac00000000", "vin": [{"sequence": 4294967295, "scriptSig": {"hex": "483045022100badc4f7bdb6a81fa45a3c6f10aba20aef71b170ccc4e6845c7d03acf68f623bb02201ae023117acb5c82080714bea4fe08c28a1b6a78c9099f1181902f69ed08636701210263eeb84412abb5a8230861b2da1ab5da4262c354dcd96299bc530bae06d37041", "asm": "3045022100badc4f7bdb6a81fa45a3c6f10aba20aef71b170ccc4e6845c7d03acf68f623bb02201ae023117acb5c82080714bea4fe08c28a1b6a78c9099f1181902f69ed086367[ALL] 0263eeb84412abb5a8230861b2da1ab5da4262c354dcd96299bc530bae06d37041"}, "vout": 0, "txid": "2e289a1ab1d93437d07805629f357ee43245f79acbaed82515542278ea0cd97d"}], "txid": "48d59ca35ee8d38b1acd6ce7ede6d7d0320d4df432520013e8d3fa68ad183935", "blocktime": 1537874412, "version": 1, "confirmations": 11467, "time": 1537874412, "locktime": 0, "vsize": 224, "size": 224}