{"hash": "48d9ff8f41b87574213df72e42a94f4f9463d90dbed49bbf4769f81202f123f5", "blockhash": "00000000000000000004ffacab907a6b429b9a5745fa0b75af4234bf69dd7176", "vout": [{"scriptPubKey": {"reqSigs": 1, "hex": "76a914b05c81b3db8ff9b75840c2e41d9326dc4d2b0e2988ac", "addresses": ["1H5WkEk1WMmkLWS4wJT8UJGfaqaJSY35HR"], "asm": "OP_DUP OP_HASH160 b05c81b3db8ff9b75840c2e41d9326dc4d2b0e29 OP_EQUALVERIFY OP_CHECKSIG", "type": "pubkeyhash"}, "value": 0.002324, "n": 0}, {"scriptPubKey": {"reqSigs": 1, "hex": "76a914337eb8b114742a45d1a15808bccc2ae2c94b5d9f88ac", "addresses": ["15hHGYZg9rSB8ezUDTfsiZyZ2vE2n7k3UF"], "asm": "OP_DUP OP_HASH160 337eb8b114742a45d1a15808bccc2ae2c94b5d9f OP_EQUALVERIFY OP_CHECKSIG", "type": "pubkeyhash"}, "value": 0.00812568, "n": 1}], "hex": "01000000010fd700909f1990dd26df69a0ae6c07a334a11fa3595d571a98154c76a98b0b9b010000006a47304402207a027a673584676472d67e28761d333d5d99ac90ccd1c8a6514dcfecf39d413b0220352d3153de150b294f73a1cafb13795e04cc7713598fba73571d4f6ccd98720c0121023380593813d00a2ccba343c22f9a64f4dbcf22ca9f4f8bec0c15f5e1ce38f396ffffffff02d08b0300000000001976a914b05c81b3db8ff9b75840c2e41d9326dc4d2b0e2988ac18660c00000000001976a914337eb8b114742a45d1a15808bccc2ae2c94b5d9f88ac00000000", "vin": [{"sequence": 4294967295, "scriptSig": {"hex": "47304402207a027a673584676472d67e28761d333d5d99ac90ccd1c8a6514dcfecf39d413b0220352d3153de150b294f73a1cafb13795e04cc7713598fba73571d4f6ccd98720c0121023380593813d00a2ccba343c22f9a64f4dbcf22ca9f4f8bec0c15f5e1ce38f396", "asm": "304402207a027a673584676472d67e28761d333d5d99ac90ccd1c8a6514dcfecf39d413b0220352d3153de150b294f73a1cafb13795e04cc7713598fba73571d4f6ccd98720c[ALL] 023380593813d00a2ccba343c22f9a64f4dbcf22ca9f4f8bec0c15f5e1ce38f396"}, "vout": 1, "txid": "9b0b8ba9764c15981a575d59a31fa134a3076caea069df26dd90199f9000d70f"}], "txid": "48d9ff8f41b87574213df72e42a94f4f9463d90dbed49bbf4769f81202f123f5", "blocktime": 1537875543, "version": 1, "confirmations": 11464, "time": 1537875543, "locktime": 0, "vsize": 225, "size": 225}