{"hash": "48db372d90eff8fd84a2644762c2763adcb2c14a21398583b1e1e8888813bbf7", "blockhash": "0000000000000000000dcc0f55137456b1a82d3642486a52398922ac4d620174", "vout": [{"scriptPubKey": {"reqSigs": 1, "hex": "76a914934751d212d367de98de80617b179c8d51556a2288ac", "addresses": ["1ERjmaD7mPGY1GC8n8Levm3JwhepVRjon3"], "asm": "OP_DUP OP_HASH160 934751d212d367de98de80617b179c8d51556a22 OP_EQUALVERIFY OP_CHECKSIG", "type": "pubkeyhash"}, "value": 0.00171424, "n": 0}, {"scriptPubKey": {"reqSigs": 1, "hex": "76a91420a772d2c1f9c01daeb852d04eff9b0c2444896688ac", "addresses": ["13yfDfeQzATUC3cqoTaLBDy7LUkNvdUHKb"], "asm": "OP_DUP OP_HASH160 20a772d2c1f9c01daeb852d04eff9b0c24448966 OP_EQUALVERIFY OP_CHECKSIG", "type": "pubkeyhash"}, "value": 0.00372471, "n": 1}], "hex": "0100000001c13068c31974b6888ba17ce160eb160b6976911ae1ff829e4190b581090db8a8010000006a473044022056442afab742a82fe0ab330e8fe0d034096b562e98fd39bbe2853ee6aacfe08302207c6af104421166c614de2a7dd596f364ea67a0e68089cd4ce3116de612b6673a0121023c63bb2fbefbb20b40b8cc814260def20f820ba266028c98e534841a4c4e2e25ffffffff02a09d0200000000001976a914934751d212d367de98de80617b179c8d51556a2288acf7ae0500000000001976a91420a772d2c1f9c01daeb852d04eff9b0c2444896688ac00000000", "vin": [{"sequence": 4294967295, "scriptSig": {"hex": "473044022056442afab742a82fe0ab330e8fe0d034096b562e98fd39bbe2853ee6aacfe08302207c6af104421166c614de2a7dd596f364ea67a0e68089cd4ce3116de612b6673a0121023c63bb2fbefbb20b40b8cc814260def20f820ba266028c98e534841a4c4e2e25", "asm": "3044022056442afab742a82fe0ab330e8fe0d034096b562e98fd39bbe2853ee6aacfe08302207c6af104421166c614de2a7dd596f364ea67a0e68089cd4ce3116de612b6673a[ALL] 023c63bb2fbefbb20b40b8cc814260def20f820ba266028c98e534841a4c4e2e25"}, "vout": 1, "txid": "a8b80d0981b590419e82ffe11a9176690b16eb60e17ca18b88b67419c36830c1"}], "txid": "48db372d90eff8fd84a2644762c2763adcb2c14a21398583b1e1e8888813bbf7", "blocktime": 1537870268, "version": 1, "confirmations": 11516, "time": 1537870268, "locktime": 0, "vsize": 225, "size": 225}