{"hash": "48dc91dc06b7e182d880d9cb93d03f1de4c9f9ea4b26c49607b4fc89299da3bb", "blockhash": "0000000000000000001cda96e906b7601b7a6fb1a3b62bca570a9e5d8f4b3de1", "vout": [{"scriptPubKey": {"reqSigs": 1, "hex": "76a9146b07dcc0d8a2f6fbc4c79f5a9a2d80c81764fcab88ac", "addresses": ["1AkviowM6LTJFtDkEVGmPmJniTJWyfAkdM"], "asm": "OP_DUP OP_HASH160 6b07dcc0d8a2f6fbc4c79f5a9a2d80c81764fcab OP_EQUALVERIFY OP_CHECKSIG", "type": "pubkeyhash"}, "value": 0.5, "n": 0}, {"scriptPubKey": {"reqSigs": 1, "hex": "76a914ab8d3d9f3c09336fc8f8beefb18d119f92c25bf088ac", "addresses": ["1Ge5kP285sadQJWxF8XM5k8L3MkFZWJUCK"], "asm": "OP_DUP OP_HASH160 ab8d3d9f3c09336fc8f8beefb18d119f92c25bf0 OP_EQUALVERIFY OP_CHECKSIG", "type": "pubkeyhash"}, "value": 0.77134742, "n": 1}], "hex": "0100000001d1e7a3ee497af3086d886fa0c5cacb1fbcacc3e5af7113241d2ccfef870425a3010000006a47304402206b7e2960fb362baf3f83e568454d8c5fa809e918e0d04fb5cdf7ff6f1388f7be02204f6d9a141acd662b6b977397cc468371fea5f7c870ef3609ebdbcaccaf1de4390121022367767ab9da94445df80f4c04d9fe4e618f5e2e1d8ab2a06bc1a20f26dc7032ffffffff0280f0fa02000000001976a9146b07dcc0d8a2f6fbc4c79f5a9a2d80c81764fcab88ac96fb9804000000001976a914ab8d3d9f3c09336fc8f8beefb18d119f92c25bf088ac00000000", "vin": [{"sequence": 4294967295, "scriptSig": {"hex": "47304402206b7e2960fb362baf3f83e568454d8c5fa809e918e0d04fb5cdf7ff6f1388f7be02204f6d9a141acd662b6b977397cc468371fea5f7c870ef3609ebdbcaccaf1de4390121022367767ab9da94445df80f4c04d9fe4e618f5e2e1d8ab2a06bc1a20f26dc7032", "asm": "304402206b7e2960fb362baf3f83e568454d8c5fa809e918e0d04fb5cdf7ff6f1388f7be02204f6d9a141acd662b6b977397cc468371fea5f7c870ef3609ebdbcaccaf1de439[ALL] 022367767ab9da94445df80f4c04d9fe4e618f5e2e1d8ab2a06bc1a20f26dc7032"}, "vout": 1, "txid": "a3250487efcf2c1d241371afe5c3acbc1fcbcac5a06f886d08f37a49eea3e7d1"}], "txid": "48dc91dc06b7e182d880d9cb93d03f1de4c9f9ea4b26c49607b4fc89299da3bb", "blocktime": 1537873282, "version": 1, "confirmations": 11485, "time": 1537873282, "locktime": 0, "vsize": 225, "size": 225}