{"hash": "2a80ec583bbec6eeea644d7425797823c9deebc7cd9354eac572acc0dd0382b0", "blockhash": "0000000000000000001f76057863aec43deb6fa401d9628bb513d65a8098bfab", "vout": [{"scriptPubKey": {"reqSigs": 1, "hex": "76a91476e7eee6b2d5a6a87603124de01a0291fcc33fc088ac", "addresses": ["1BqiadzUPXQQTPW2RbLkugChpyRvjxALUS"], "asm": "OP_DUP OP_HASH160 76e7eee6b2d5a6a87603124de01a0291fcc33fc0 OP_EQUALVERIFY OP_CHECKSIG", "type": "pubkeyhash"}, "value": 0.1751721, "n": 0}], "hex": "0100000000010110e850041810c56f688a401f721ec33014942e456824fc675dff658f41d898bd0100000017160014e3e657c7fa638ba03323df2af5f1d0e57c589fa9ffffff00019a4a0b01000000001976a91476e7eee6b2d5a6a87603124de01a0291fcc33fc088ac0247304402203a36f19559852e965b43da8b9c77124197f0d095756e8ffa0eb14d7444a5b44e02203700e90e0250a347f3118e8cefff0008e432b5bd7178540893a357a121076efe012102ca2c0c609ecaf621d688103f55eecd7c7406c2b3c1d71d88790d83b9f0563b0f00000000", "vin": [{"txinwitness": ["304402203a36f19559852e965b43da8b9c77124197f0d095756e8ffa0eb14d7444a5b44e02203700e90e0250a347f3118e8cefff0008e432b5bd7178540893a357a121076efe01", "02ca2c0c609ecaf621d688103f55eecd7c7406c2b3c1d71d88790d83b9f0563b0f"], "sequence": 16777215, "scriptSig": {"hex": "160014e3e657c7fa638ba03323df2af5f1d0e57c589fa9", "asm": "0014e3e657c7fa638ba03323df2af5f1d0e57c589fa9"}, "vout": 1, "txid": "bd98d8418f65ff5d67fc2468452e941430c31e721f408a686fc510180450e810"}], "txid": "48e03375addbc1078b369c5d7f8d140ba409a348f8b9a8390d59d6c744e58286", "blocktime": 1537873891, "version": 1, "confirmations": 11478, "time": 1537873891, "locktime": 0, "vsize": 136, "size": 217}