{"hash": "48e3ca90f658b515ee260b2178de9432392511c6590940fdbf46a26c8fa26344", "blockhash": "0000000000000000001cda96e906b7601b7a6fb1a3b62bca570a9e5d8f4b3de1", "vout": [{"scriptPubKey": {"reqSigs": 1, "hex": "a914a64a4a5940bd8f99c637d5485a62d8f8dba036b287", "addresses": ["3GrH6BCx2SuT4f6mqntQbRidfg1nXuPXtL"], "asm": "OP_HASH160 a64a4a5940bd8f99c637d5485a62d8f8dba036b2 OP_EQUAL", "type": "scripthash"}, "value": 0.01928209, "n": 0}, {"scriptPubKey": {"reqSigs": 1, "hex": "76a9146586ced214191eaee684bf8787713d2671eff5aa88ac", "addresses": ["1AFpjzWNNtmMamjbbSSNLiVdktzrYMspCQ"], "asm": "OP_DUP OP_HASH160 6586ced214191eaee684bf8787713d2671eff5aa OP_EQUALVERIFY OP_CHECKSIG", "type": "pubkeyhash"}, "value": 0.27558575, "n": 1}], "hex": "02000000012fa7422f1c0b9f2b1be35705c4b3ccdd0da78617e9e09f505f0da7bac6aeef7c010000006a473044022011f202e2bff3b9c0f2d91eb0285e0f998590601ded5c35da1a2399f1a131e9fe022057d70551eb3a0281d12fa826a50820142240bc5bcff2d67f1cf4d605977464ef01210210dac65f236a05432a1dbd2f909aa1c6e1870304203e734e8d07db9b57443d46ffffffff02116c1d000000000017a914a64a4a5940bd8f99c637d5485a62d8f8dba036b287af82a401000000001976a9146586ced214191eaee684bf8787713d2671eff5aa88ac00000000", "vin": [{"sequence": 4294967295, "scriptSig": {"hex": "473044022011f202e2bff3b9c0f2d91eb0285e0f998590601ded5c35da1a2399f1a131e9fe022057d70551eb3a0281d12fa826a50820142240bc5bcff2d67f1cf4d605977464ef01210210dac65f236a05432a1dbd2f909aa1c6e1870304203e734e8d07db9b57443d46", "asm": "3044022011f202e2bff3b9c0f2d91eb0285e0f998590601ded5c35da1a2399f1a131e9fe022057d70551eb3a0281d12fa826a50820142240bc5bcff2d67f1cf4d605977464ef[ALL] 0210dac65f236a05432a1dbd2f909aa1c6e1870304203e734e8d07db9b57443d46"}, "vout": 1, "txid": "7cefaec6baa70d5f509fe0e91786a70dddccb3c40557e31b2b9f0b1c2f42a72f"}], "txid": "48e3ca90f658b515ee260b2178de9432392511c6590940fdbf46a26c8fa26344", "blocktime": 1537873282, "version": 2, "confirmations": 11484, "time": 1537873282, "locktime": 0, "vsize": 223, "size": 223}