{"hash": "65b70ef40c9dbbcf63f814f528f99555b3267a67b86ccc1b3f22fd725ce6a6e5", "blockhash": "0000000000000000001f76057863aec43deb6fa401d9628bb513d65a8098bfab", "vout": [{"scriptPubKey": {"reqSigs": 1, "hex": "a914856c7307f78a7d372f475c0c86a79020bcf2549d87", "addresses": ["3DrViFRTPKQSbr1rdUv3qzta3RUhbkjPpY"], "asm": "OP_HASH160 856c7307f78a7d372f475c0c86a79020bcf2549d OP_EQUAL", "type": "scripthash"}, "value": 0.01020555, "n": 0}, {"scriptPubKey": {"reqSigs": 1, "hex": "76a914c2e05f167ecd2570a2d8ea6bdaa2642f743941f788ac", "addresses": ["1JmQspKWoFfGyk4U14TsT94MPFy7pEgBSG"], "asm": "OP_DUP OP_HASH160 c2e05f167ecd2570a2d8ea6bdaa2642f743941f7 OP_EQUALVERIFY OP_CHECKSIG", "type": "pubkeyhash"}, "value": 0.063557, "n": 1}], "hex": "020000000001035330df0bef3145b66ca37c23b6b096efa3aa12fb25ed27ea0c92ad0dbbc7821e0000000017160014ab3695587728a87551b6f5919d5cbbd11246b9d0feffffff6162bfde832cb4142ccdffa435452b77d8d5608e5d3c4c35e45f17631c9b4dcf010000001716001456576931ab1dc9274a3baf83a68335c94b64117dfeffffffb4760205fc7e465b28f4383f90b90833098d20a21e76eed3bd069e46edd804b2050000001716001423bad371667f097d4d1c9172e35cb7572f5acf5dfeffffff028b920f000000000017a914856c7307f78a7d372f475c0c86a79020bcf2549d87f4fa6000000000001976a914c2e05f167ecd2570a2d8ea6bdaa2642f743941f788ac02483045022100d1cf8839c9195f4f877c92558f7eba0ef1ba7c50f25e60d9cd49a38010b9ee5e022015d499224263c4827df5252d0fb2a36a2c5cb659b187fbbbc66ff83d90d6d71f012103e4adb720bb7feacbabcf8ac4d89ec6a4e894591c890148905135dc9097ae8b7702473044022039dd4f060c36e29f01732ae16cfb7953c626c2da201cfc28bcf032fa8e64c3bd022052b28cbb250c893fb05b190ca0fdc728d40359b4808219136058d7eb56b2585d0121038f9380bf83df1f03a6dedc32e4ed222b7a3931423925ee8be621d72603f76451024730440220227d6dad89c89985061ab046eb37e2b5cf3d030b6f83bcc927e6546284d62ac702205a083f893b290232d85ecb94f5a3c421ccc2e6369d8adf9b1d440f051dc5f9020121034560e692db20a9a52f5edcb9dd7428e01b02158dd84f13597e4d195ea121c0ce14490800", "vin": [{"txinwitness": ["3045022100d1cf8839c9195f4f877c92558f7eba0ef1ba7c50f25e60d9cd49a38010b9ee5e022015d499224263c4827df5252d0fb2a36a2c5cb659b187fbbbc66ff83d90d6d71f01", "03e4adb720bb7feacbabcf8ac4d89ec6a4e894591c890148905135dc9097ae8b77"], "sequence": 4294967294, "scriptSig": {"hex": "160014ab3695587728a87551b6f5919d5cbbd11246b9d0", "asm": "0014ab3695587728a87551b6f5919d5cbbd11246b9d0"}, "vout": 0, "txid": "1e82c7bb0dad920cea27ed25fb12aaa3ef96b0b6237ca36cb64531ef0bdf3053"}, {"txinwitness": ["3044022039dd4f060c36e29f01732ae16cfb7953c626c2da201cfc28bcf032fa8e64c3bd022052b28cbb250c893fb05b190ca0fdc728d40359b4808219136058d7eb56b2585d01", "038f9380bf83df1f03a6dedc32e4ed222b7a3931423925ee8be621d72603f76451"], "sequence": 4294967294, "scriptSig": {"hex": "16001456576931ab1dc9274a3baf83a68335c94b64117d", "asm": "001456576931ab1dc9274a3baf83a68335c94b64117d"}, "vout": 1, "txid": "cf4d9b1c63175fe4354c3c5d8e60d5d8772b4535a4ffcd2c14b42c83debf6261"}, {"txinwitness": ["30440220227d6dad89c89985061ab046eb37e2b5cf3d030b6f83bcc927e6546284d62ac702205a083f893b290232d85ecb94f5a3c421ccc2e6369d8adf9b1d440f051dc5f90201", "034560e692db20a9a52f5edcb9dd7428e01b02158dd84f13597e4d195ea121c0ce"], "sequence": 4294967294, "scriptSig": {"hex": "16001423bad371667f097d4d1c9172e35cb7572f5acf5d", "asm": "001423bad371667f097d4d1c9172e35cb7572f5acf5d"}, "vout": 5, "txid": "b204d8ed469e06bdd3ee761ea2208d093308b9903f38f4285b467efc050276b4"}], "txid": "48e79c82b1f0ac962ca4461b6ae8a6cf644a19162ff063a34a9058b9ea3022ca", "blocktime": 1537873891, "version": 2, "confirmations": 11479, "time": 1537873891, "locktime": 542996, "vsize": 349, "size": 592}