{"hash": "48f00ceb0b7c4719e0ef182da4926e54f55a03a0eda8a0e559152a6e87936eef", "blockhash": "0000000000000000001f0ddff1eddb255c1121bcd4da4f1bc9a0da00cae72433", "vout": [{"scriptPubKey": {"reqSigs": 1, "hex": "76a914d37a4b91709247cabf8885929ee2958fe35619f188ac", "addresses": ["1LHC5hJTnEX2rxjaL51W2VRsEjeFqUa5hF"], "asm": "OP_DUP OP_HASH160 d37a4b91709247cabf8885929ee2958fe35619f1 OP_EQUALVERIFY OP_CHECKSIG", "type": "pubkeyhash"}, "value": 0.00068472, "n": 0}, {"scriptPubKey": {"reqSigs": 1, "hex": "76a914bc7f98fda6d19c215da758ccbd5f4b8321b6b8c888ac", "addresses": ["1JBgthjEhdKDH98KZuX4sXMnmtuey1ZKxB"], "asm": "OP_DUP OP_HASH160 bc7f98fda6d19c215da758ccbd5f4b8321b6b8c8 OP_EQUALVERIFY OP_CHECKSIG", "type": "pubkeyhash"}, "value": 0.01, "n": 1}], "hex": "01000000014570c070bddbd0c2201651a3a055182feb4cbb339e6ffba7c8875da2bab7f6ad020000006a473044022036193bc33eaa51b758f33f662c242ccd148c94b8b8e1de284861b4663467a95502206c805065c9dc8c17716d9b904c6bae6e2aeac1635514d48d9d5b9c81030391130121020ca773f663dd15479d9a863e0fcb65d4b06d6c80208b3b4e18934bd55c8ec46affffffff02780b0100000000001976a914d37a4b91709247cabf8885929ee2958fe35619f188ac40420f00000000001976a914bc7f98fda6d19c215da758ccbd5f4b8321b6b8c888ac00000000", "vin": [{"sequence": 4294967295, "scriptSig": {"hex": "473044022036193bc33eaa51b758f33f662c242ccd148c94b8b8e1de284861b4663467a95502206c805065c9dc8c17716d9b904c6bae6e2aeac1635514d48d9d5b9c81030391130121020ca773f663dd15479d9a863e0fcb65d4b06d6c80208b3b4e18934bd55c8ec46a", "asm": "3044022036193bc33eaa51b758f33f662c242ccd148c94b8b8e1de284861b4663467a95502206c805065c9dc8c17716d9b904c6bae6e2aeac1635514d48d9d5b9c8103039113[ALL] 020ca773f663dd15479d9a863e0fcb65d4b06d6c80208b3b4e18934bd55c8ec46a"}, "vout": 2, "txid": "adf6b7baa25d87c8a7fb6f9e33bb4ceb2f1855a0a3511620c2d0dbbd70c07045"}], "txid": "48f00ceb0b7c4719e0ef182da4926e54f55a03a0eda8a0e559152a6e87936eef", "blocktime": 1537872018, "version": 1, "confirmations": 11489, "time": 1537872018, "locktime": 0, "vsize": 225, "size": 225}