{"hash": "481339c7ad18b7c93278a3bcac6f5af7797c1b1b9c53254daa377afe062a7cfe", "blockhash": "000000000000000000022b45ed06c6f4ccd3cf7fb5ba4856ebd2e58215665228", "vout": [{"scriptPubKey": {"reqSigs": 1, "hex": "76a914a524c62a97990b2261e4f1937c80c4ffa740022188ac", "addresses": ["1G4CYm71Nm7nsGEPCfuSVk5dEQkKVdPcTQ"], "asm": "OP_DUP OP_HASH160 a524c62a97990b2261e4f1937c80c4ffa7400221 OP_EQUALVERIFY OP_CHECKSIG", "type": "pubkeyhash"}, "value": 0.00030284, "n": 0}, {"scriptPubKey": {"reqSigs": 1, "hex": "a914b628845c6c4b9c9e7bf72c49cb5e288a5e8763f887", "addresses": ["3JJBSdV5ehyq7WweyVYeumdXyHb8NoodpD"], "asm": "OP_HASH160 b628845c6c4b9c9e7bf72c49cb5e288a5e8763f8 OP_EQUAL", "type": "scripthash"}, "value": 0.00048074, "n": 1}], "hex": "010000000001014d380185a01323d462bc6380e1aa429daab10f2eb6ca453ef3116a4b3ce840840100000023220020c6e47149929d0246a5fae7e24af4c5cbec58f0361e2dd6f1154fec5a280d9fefffffffff024c760000000000001976a914a524c62a97990b2261e4f1937c80c4ffa740022188accabb00000000000017a914b628845c6c4b9c9e7bf72c49cb5e288a5e8763f88704004730440220247f2e3d51d925b94343732eab06f183303ba576b7c5c586f2cf4f0b4eca359702201f45e0d5e9ddc60f0e52adec339db851224fe4280fbdebfd8c770f42f2a8e46b01483045022100b25020a2b7720f30559c32f6171a6c7fe574f9d372ad8a4b6090b5855227618d022014212ba5e072a3a12858b08da50658b8bff4ceb3f445764018c825575e8e1b6901475221026ad3a62533c9ce857e98b8bc577c80a015afed6c881aeca008a26cc9a7f5e7222102726ff74b232948bf3b0b4302934f660ce5f3375e3c0ec0ccd022a4260517f25a52ae00000000", "vin": [{"txinwitness": ["", "30440220247f2e3d51d925b94343732eab06f183303ba576b7c5c586f2cf4f0b4eca359702201f45e0d5e9ddc60f0e52adec339db851224fe4280fbdebfd8c770f42f2a8e46b01", "3045022100b25020a2b7720f30559c32f6171a6c7fe574f9d372ad8a4b6090b5855227618d022014212ba5e072a3a12858b08da50658b8bff4ceb3f445764018c825575e8e1b6901", "5221026ad3a62533c9ce857e98b8bc577c80a015afed6c881aeca008a26cc9a7f5e7222102726ff74b232948bf3b0b4302934f660ce5f3375e3c0ec0ccd022a4260517f25a52ae"], "sequence": 4294967295, "scriptSig": {"hex": "220020c6e47149929d0246a5fae7e24af4c5cbec58f0361e2dd6f1154fec5a280d9fef", "asm": "0020c6e47149929d0246a5fae7e24af4c5cbec58f0361e2dd6f1154fec5a280d9fef"}, "vout": 1, "txid": "8440e83c4b6a11f33e45cab62e0fb1aa9d42aae18063bc62d42313a08501384d"}], "txid": "48f636c0c0a0a35679c7bc170b3747e05522d24e442aaa6e2c002f0546bff3fa", "blocktime": 1537869901, "version": 1, "confirmations": 11524, "time": 1537869901, "locktime": 0, "vsize": 208, "size": 373}