{"hash": "48f8d4d27e42bc367fe127abf64e9d9cf63b29d6c01cf7a171f16fc1f4efef0d", "blockhash": "0000000000000000000e13cef7c366c0283d82e591d1acd082e914b08063cdf1", "vout": [{"scriptPubKey": {"reqSigs": 1, "hex": "76a914c58989515202f41774661ac08c799f93628052dd88ac", "addresses": ["1K1UszFFV46W2ogNhVTasqPHPUhvqWFowK"], "asm": "OP_DUP OP_HASH160 c58989515202f41774661ac08c799f93628052dd OP_EQUALVERIFY OP_CHECKSIG", "type": "pubkeyhash"}, "value": 0.00209121, "n": 0}, {"scriptPubKey": {"reqSigs": 1, "hex": "76a91417a90cfb16a285e56de86249754af0034711f8b088ac", "addresses": ["13A74G9KEzRuc5DhrRrpkMS8ba83Tb1Nz2"], "asm": "OP_DUP OP_HASH160 17a90cfb16a285e56de86249754af0034711f8b0 OP_EQUALVERIFY OP_CHECKSIG", "type": "pubkeyhash"}, "value": 0.003816, "n": 1}], "hex": "0100000001ba4386eb38e3b7a3a68d2f6ab3f3aa4a92ebdccac93686615807aefbad5abac2000000006b483045022100ec786df19c21df7f895001223fb2a9dd594d125006522d47debd3aa5f418b87b02201a2f8b74223ea5b482e36eef11f3812249226f976ca2415dcdce1f920394c9a7012103b7fede93b0499ba78e7c730f38b27c9b1919342ae03306b25cabd9406cf708b5ffffffff02e1300300000000001976a914c58989515202f41774661ac08c799f93628052dd88aca0d20500000000001976a91417a90cfb16a285e56de86249754af0034711f8b088ac00000000", "vin": [{"sequence": 4294967295, "scriptSig": {"hex": "483045022100ec786df19c21df7f895001223fb2a9dd594d125006522d47debd3aa5f418b87b02201a2f8b74223ea5b482e36eef11f3812249226f976ca2415dcdce1f920394c9a7012103b7fede93b0499ba78e7c730f38b27c9b1919342ae03306b25cabd9406cf708b5", "asm": "3045022100ec786df19c21df7f895001223fb2a9dd594d125006522d47debd3aa5f418b87b02201a2f8b74223ea5b482e36eef11f3812249226f976ca2415dcdce1f920394c9a7[ALL] 03b7fede93b0499ba78e7c730f38b27c9b1919342ae03306b25cabd9406cf708b5"}, "vout": 0, "txid": "c2ba5aadfbae0758618636c9cadceb924aaaf3b36a2f8da6a3b7e338eb8643ba"}], "txid": "48f8d4d27e42bc367fe127abf64e9d9cf63b29d6c01cf7a171f16fc1f4efef0d", "blocktime": 1537871767, "version": 1, "confirmations": 11495, "time": 1537871767, "locktime": 0, "vsize": 226, "size": 226}