{"hash": "a64c78e066e557b5d59f952c1059d8d3aa3ca372b30fc863bbab3fe21f567c7d", "blockhash": "0000000000000000001e0dab787dd257d1dbfcb92a98c2207d5e1078be1f4165", "vout": [{"scriptPubKey": {"reqSigs": 1, "hex": "a914b44337f216fcdcf0a5895a72e8c4169a68ef293e87", "addresses": ["3J8A5VuG2KUQmCweiwHBDfv67VqWTciCM2"], "asm": "OP_HASH160 b44337f216fcdcf0a5895a72e8c4169a68ef293e OP_EQUAL", "type": "scripthash"}, "value": 0.01967493, "n": 0}], "hex": "01000000000101e304c27c730991d7d60499f9cd152bf762c4344279d84d3209e9b3fde2dd95f5000000001716001417624723ce6740bec10d12b8fef16f7cc8cb4c39ffffffff0185051e000000000017a914b44337f216fcdcf0a5895a72e8c4169a68ef293e87024730440220561ae37758d46732f98356fa489b6c373d82a2aa0fb06fa105421908cf73311f0220213a46bb18bef2ecc3f9446ae193825523246a34ea9f734f6621fa18b087c7f3012102a3414806af14df207b703de58a00a6f8ed087ee536d2b67fc327ac7c46c2e13c00000000", "vin": [{"txinwitness": ["30440220561ae37758d46732f98356fa489b6c373d82a2aa0fb06fa105421908cf73311f0220213a46bb18bef2ecc3f9446ae193825523246a34ea9f734f6621fa18b087c7f301", "02a3414806af14df207b703de58a00a6f8ed087ee536d2b67fc327ac7c46c2e13c"], "sequence": 4294967295, "scriptSig": {"hex": "16001417624723ce6740bec10d12b8fef16f7cc8cb4c39", "asm": "001417624723ce6740bec10d12b8fef16f7cc8cb4c39"}, "vout": 0, "txid": "f595dde2fdb3e909324dd8794234c462f72b15cdf99904d6d79109737cc204e3"}], "txid": "48fd1e3727f1f49f142d59f4ab7dc6664935d2be3178f5bb05c8473ac942e81f", "blocktime": 1537872475, "version": 1, "confirmations": 11487, "time": 1537872475, "locktime": 0, "vsize": 134, "size": 215}