{"hash": "4905de71fec3afc144ea4bd73719533976cec909a47334c5d3e5f321041d7356", "blockhash": "0000000000000000001f76057863aec43deb6fa401d9628bb513d65a8098bfab", "vout": [{"scriptPubKey": {"type": "nulldata", "hex": "6a146f6d6e69000000000000001f0000006fc23ac000", "asm": "OP_RETURN 6f6d6e69000000000000001f0000006fc23ac000"}, "value": 0.0, "n": 0}, {"scriptPubKey": {"reqSigs": 1, "hex": "76a914176470b934fb29aed1909859e6f2d88a6b24375988ac", "addresses": ["138gs8SbQH92LCzPdCYewEhs8teUzx4EtG"], "asm": "OP_DUP OP_HASH160 176470b934fb29aed1909859e6f2d88a6b243759 OP_EQUALVERIFY OP_CHECKSIG", "type": "pubkeyhash"}, "value": 0.00375701, "n": 1}, {"scriptPubKey": {"reqSigs": 1, "hex": "76a914a25dec4d0011064ef106a983c39c7a540699f22088ac", "addresses": ["1FoWyxwPXuj4C6abqwhjDWdz6D4PZgYRjA"], "asm": "OP_DUP OP_HASH160 a25dec4d0011064ef106a983c39c7a540699f220 OP_EQUALVERIFY OP_CHECKSIG", "type": "pubkeyhash"}, "value": 5.46e-06, "n": 2}], "hex": "01000000018a03ca54edf06b282458773d557621cf5b987776ee544770c57ea084bbcd60a8020000006a4730440220650fbfa84dbb347d0676b2d79076f25b2d721f0037794a0b1f147f7db055936e022055314b98d32cc8acfebd7f1e7ed08acfaf36640c63c2d759468ce6000d64ee36012102c1a7c784cd8891123779210159793e845d2458e30a8532c14e66f99924fa04dafeffffff030000000000000000166a146f6d6e69000000000000001f0000006fc23ac00095bb0500000000001976a914176470b934fb29aed1909859e6f2d88a6b24375988ac22020000000000001976a914a25dec4d0011064ef106a983c39c7a540699f22088ac13490800", "vin": [{"sequence": 4294967294, "scriptSig": {"hex": "4730440220650fbfa84dbb347d0676b2d79076f25b2d721f0037794a0b1f147f7db055936e022055314b98d32cc8acfebd7f1e7ed08acfaf36640c63c2d759468ce6000d64ee36012102c1a7c784cd8891123779210159793e845d2458e30a8532c14e66f99924fa04da", "asm": "30440220650fbfa84dbb347d0676b2d79076f25b2d721f0037794a0b1f147f7db055936e022055314b98d32cc8acfebd7f1e7ed08acfaf36640c63c2d759468ce6000d64ee36[ALL] 02c1a7c784cd8891123779210159793e845d2458e30a8532c14e66f99924fa04da"}, "vout": 2, "txid": "a860cdbb84a07ec5704754ee7677985bcf2176553d775824286bf0ed54ca038a"}], "txid": "4905de71fec3afc144ea4bd73719533976cec909a47334c5d3e5f321041d7356", "blocktime": 1537873891, "version": 1, "confirmations": 11478, "time": 1537873891, "locktime": 542995, "vsize": 256, "size": 256}