{"hash": "49055e5ff763ac93a53cf40316b589cab2c54abc1c5ddb8c2433e9daad9a68b5", "blockhash": "0000000000000000001f76057863aec43deb6fa401d9628bb513d65a8098bfab", "vout": [{"scriptPubKey": {"reqSigs": 1, "hex": "76a914d076dfd97123328002ed0a939bb695a5e892d11488ac", "addresses": ["1L1FxSVyeM84FzxgYiv9Gpv1PvqQiZ8fYM"], "asm": "OP_DUP OP_HASH160 d076dfd97123328002ed0a939bb695a5e892d114 OP_EQUALVERIFY OP_CHECKSIG", "type": "pubkeyhash"}, "value": 0.00098968, "n": 0}, {"scriptPubKey": {"reqSigs": 1, "hex": "76a91478ebd2290402a0a762f492556879b678f9c0de1888ac", "addresses": ["1C2Nb9T8KM5Qy6Nhz2fwAjnPubTxkJ6EWU"], "asm": "OP_DUP OP_HASH160 78ebd2290402a0a762f492556879b678f9c0de18 OP_EQUALVERIFY OP_CHECKSIG", "type": "pubkeyhash"}, "value": 0.01339222, "n": 1}], "hex": "01000000018202fdde3463eb3dae7e9447765059905ef9d37dd4d2ff7affca6e735a64d97b060000006a4730440220272e71b5bab03c23dead2340b6f78c36894ffb7a8a891b599e22a969c06d3af302203f8bd7c7d1b6cd12e137c09aa6ab0236b289dcb488f31ce6f428b1eef331f6da0121029b424054c8da687ed57a9bac6225814858c1700a3cb468ccad5c9a4cf577044bffffffff0298820100000000001976a914d076dfd97123328002ed0a939bb695a5e892d11488ac566f1400000000001976a91478ebd2290402a0a762f492556879b678f9c0de1888ac00000000", "vin": [{"sequence": 4294967295, "scriptSig": {"hex": "4730440220272e71b5bab03c23dead2340b6f78c36894ffb7a8a891b599e22a969c06d3af302203f8bd7c7d1b6cd12e137c09aa6ab0236b289dcb488f31ce6f428b1eef331f6da0121029b424054c8da687ed57a9bac6225814858c1700a3cb468ccad5c9a4cf577044b", "asm": "30440220272e71b5bab03c23dead2340b6f78c36894ffb7a8a891b599e22a969c06d3af302203f8bd7c7d1b6cd12e137c09aa6ab0236b289dcb488f31ce6f428b1eef331f6da[ALL] 029b424054c8da687ed57a9bac6225814858c1700a3cb468ccad5c9a4cf577044b"}, "vout": 6, "txid": "7bd9645a736ecaff7affd2d47dd3f95e9059507647947eae3deb6334defd0282"}], "txid": "49055e5ff763ac93a53cf40316b589cab2c54abc1c5ddb8c2433e9daad9a68b5", "blocktime": 1537873891, "version": 1, "confirmations": 11475, "time": 1537873891, "locktime": 0, "vsize": 225, "size": 225}