{"hash": "4912b53cf9e65a4f6226b625a05913e6124fd855d41546a5af0882cecf005599", "blockhash": "0000000000000000000baef3f32e3676a92c3b2e5da21b426e4f302fc371ce76", "vout": [{"scriptPubKey": {"type": "nulldata", "hex": "6a4c500000782c0001fcfeadaa728f5215ef12a2dc27b7256b4774d339f6019d6ddc0f1b8ff1172c36cb050dad65be226da76cb408f2565baa1f120614ffc1f48162ddbc9a9526289ac0f6612cd74e33776ee4", "asm": "OP_RETURN 0000782c0001fcfeadaa728f5215ef12a2dc27b7256b4774d339f6019d6ddc0f1b8ff1172c36cb050dad65be226da76cb408f2565baa1f120614ffc1f48162ddbc9a9526289ac0f6612cd74e33776ee4"}, "value": 0.0, "n": 0}, {"scriptPubKey": {"reqSigs": 1, "hex": "76a9144ab8ad66af4a3bf3eb14a1a7bb8f56c509e4e08c88ac", "addresses": ["17p6EoYn79N8u6y5UJ6rAaaDWhmQLapx62"], "asm": "OP_DUP OP_HASH160 4ab8ad66af4a3bf3eb14a1a7bb8f56c509e4e08c OP_EQUALVERIFY OP_CHECKSIG", "type": "pubkeyhash"}, "value": 0.00111984, "n": 1}], "hex": "010000000135162e4b395c8fd84d88fc31e25985c0be8364cb7b8a218280a9fd7219fd9665010000006b483045022100cecdb34abcf659addecf456f61dee70938c3c229d95bc027d2dc3c2ac2dad7c9022056f260a0fd012a8bdcb5475e2540e02d83ea0ff4d0e5a5f9d73b1edc81863d980121031f85c85271be579d588fdbeef7dfd32546418d10451cd88ba13c178ababc5ab5ffffffff020000000000000000536a4c500000782c0001fcfeadaa728f5215ef12a2dc27b7256b4774d339f6019d6ddc0f1b8ff1172c36cb050dad65be226da76cb408f2565baa1f120614ffc1f48162ddbc9a9526289ac0f6612cd74e33776ee470b50100000000001976a9144ab8ad66af4a3bf3eb14a1a7bb8f56c509e4e08c88ac00000000", "vin": [{"sequence": 4294967295, "scriptSig": {"hex": "483045022100cecdb34abcf659addecf456f61dee70938c3c229d95bc027d2dc3c2ac2dad7c9022056f260a0fd012a8bdcb5475e2540e02d83ea0ff4d0e5a5f9d73b1edc81863d980121031f85c85271be579d588fdbeef7dfd32546418d10451cd88ba13c178ababc5ab5", "asm": "3045022100cecdb34abcf659addecf456f61dee70938c3c229d95bc027d2dc3c2ac2dad7c9022056f260a0fd012a8bdcb5475e2540e02d83ea0ff4d0e5a5f9d73b1edc81863d98[ALL] 031f85c85271be579d588fdbeef7dfd32546418d10451cd88ba13c178ababc5ab5"}, "vout": 1, "txid": "6596fd1972fda98082218a7bcb6483bec08559e231fc884dd88f5c394b2e1635"}], "txid": "4912b53cf9e65a4f6226b625a05913e6124fd855d41546a5af0882cecf005599", "blocktime": 1537876114, "version": 1, "confirmations": 11461, "time": 1537876114, "locktime": 0, "vsize": 284, "size": 284}