{"hash": "80bd5dd77cb6a5ce8bfa4369590138f9f2e63bef5ef446816dcaf7039ec28a66", "blockhash": "0000000000000000000e13cef7c366c0283d82e591d1acd082e914b08063cdf1", "vout": [{"scriptPubKey": {"reqSigs": 1, "hex": "a9145f91d26114d766a15e6d3f53a41b55b4d58ee38587", "addresses": ["3AQLoeGzxS6sU2grxVKd22JUBV8gPKTMvs"], "asm": "OP_HASH160 5f91d26114d766a15e6d3f53a41b55b4d58ee385 OP_EQUAL", "type": "scripthash"}, "value": 0.017, "n": 0}, {"scriptPubKey": {"reqSigs": 1, "hex": "a914e921449a6686827174461140ed0d0fafba21f20287", "addresses": ["3NwhDjstbdHDfAMkaZJ3wBNKK9mDX1CcEM"], "asm": "OP_HASH160 e921449a6686827174461140ed0d0fafba21f202 OP_EQUAL", "type": "scripthash"}, "value": 0.03392869, "n": 1}], "hex": "02000000000101952a494cec835a3e48066ab4edd1624a7838c00ed79e2da1c00c4c4bc8015eef0000000017160014b22f266dd7a7f065ebad409b2ee19865190a97a1feffffff02a0f019000000000017a9145f91d26114d766a15e6d3f53a41b55b4d58ee3858765c533000000000017a914e921449a6686827174461140ed0d0fafba21f2028702483045022100d91e0fdbc92b1dff870e6e74ab53ea5a6b43f89306435df60cce90612d8ed42502204f430865746ab4d5c1efc227383c4fa0863cb488d242decb3b580aa7f24cbd6a01210282f56def8edd279b55bca2969fff1fb9abd82702a78907509e361e6b0c21ef4910490800", "vin": [{"txinwitness": ["3045022100d91e0fdbc92b1dff870e6e74ab53ea5a6b43f89306435df60cce90612d8ed42502204f430865746ab4d5c1efc227383c4fa0863cb488d242decb3b580aa7f24cbd6a01", "0282f56def8edd279b55bca2969fff1fb9abd82702a78907509e361e6b0c21ef49"], "sequence": 4294967294, "scriptSig": {"hex": "160014b22f266dd7a7f065ebad409b2ee19865190a97a1", "asm": "0014b22f266dd7a7f065ebad409b2ee19865190a97a1"}, "vout": 0, "txid": "ef5e01c84b4c0cc0a12d9ed70ec038784a62d1edb46a06483e5a83ec4c492a95"}], "txid": "491915dabadbe6035d689a3ef9c975486500ad1959a4f7c7b46041632b50739e", "blocktime": 1537871767, "version": 2, "confirmations": 11492, "time": 1537871767, "locktime": 542992, "vsize": 166, "size": 248}