{"hash": "491be40f3ab364bd69ef562453a5d082340cd85993c861d8a5d01c3ff85cd2c0", "blockhash": "00000000000000000024a2167bbff67b0be802c0b01cdd79e6331c2be6459f87", "vout": [{"scriptPubKey": {"reqSigs": 1, "hex": "76a9141508276fd4193e83f5fce7a810a40e8f983c161988ac", "addresses": ["12vCxak5xc1t6T275xbm6AJ4xsZCxkTSc5"], "asm": "OP_DUP OP_HASH160 1508276fd4193e83f5fce7a810a40e8f983c1619 OP_EQUALVERIFY OP_CHECKSIG", "type": "pubkeyhash"}, "value": 0.61671775, "n": 0}, {"scriptPubKey": {"type": "nulldata", "hex": "6a146f6d6e69000000000000001f000000ef18564250", "asm": "OP_RETURN 6f6d6e69000000000000001f000000ef18564250"}, "value": 0.0, "n": 1}, {"scriptPubKey": {"reqSigs": 1, "hex": "76a9141508276fd4193e83f5fce7a810a40e8f983c161988ac", "addresses": ["12vCxak5xc1t6T275xbm6AJ4xsZCxkTSc5"], "asm": "OP_DUP OP_HASH160 1508276fd4193e83f5fce7a810a40e8f983c1619 OP_EQUALVERIFY OP_CHECKSIG", "type": "pubkeyhash"}, "value": 5.46e-06, "n": 2}], "hex": "0100000001a6e41b75af2e0cd5758191f91c90173f59ecc00c6b0690d62bd11d7886b4521e050000006b483045022100d3d48674739e856f6382317d5fc6c7db21af8caffd9f86d3e989003f4f9ad6ec02204b9e932b09686f94dab3aedc79e6595cde0b766d456fc34d5be2e76dd978db4f012102f6d57b7cbad73e97c0fdc8e42f8246e910376100ca57f9dc706ea73406d1b647ffffffff035f09ad03000000001976a9141508276fd4193e83f5fce7a810a40e8f983c161988ac0000000000000000166a146f6d6e69000000000000001f000000ef1856425022020000000000001976a9141508276fd4193e83f5fce7a810a40e8f983c161988ac00000000", "vin": [{"sequence": 4294967295, "scriptSig": {"hex": "483045022100d3d48674739e856f6382317d5fc6c7db21af8caffd9f86d3e989003f4f9ad6ec02204b9e932b09686f94dab3aedc79e6595cde0b766d456fc34d5be2e76dd978db4f012102f6d57b7cbad73e97c0fdc8e42f8246e910376100ca57f9dc706ea73406d1b647", "asm": "3045022100d3d48674739e856f6382317d5fc6c7db21af8caffd9f86d3e989003f4f9ad6ec02204b9e932b09686f94dab3aedc79e6595cde0b766d456fc34d5be2e76dd978db4f[ALL] 02f6d57b7cbad73e97c0fdc8e42f8246e910376100ca57f9dc706ea73406d1b647"}, "vout": 5, "txid": "1e52b486781dd12bd690066b0cc0ec593f17901cf9918175d50c2eaf751be4a6"}], "txid": "491be40f3ab364bd69ef562453a5d082340cd85993c861d8a5d01c3ff85cd2c0", "blocktime": 1537870564, "version": 1, "confirmations": 11515, "time": 1537870564, "locktime": 0, "vsize": 257, "size": 257}