{"hash": "491c2818f342ad6762cf4b58ff002db6da4e6d8a614a8488a4fd517ae9627c7a", "blockhash": "0000000000000000000dcc0f55137456b1a82d3642486a52398922ac4d620174", "vout": [{"scriptPubKey": {"reqSigs": 1, "hex": "76a91476452761101844d12d830ded782cd9ca7772770b88ac", "addresses": ["1BnMaXd6qm7g1LYufA6whsPk3wnt1a1Av5"], "asm": "OP_DUP OP_HASH160 76452761101844d12d830ded782cd9ca7772770b OP_EQUALVERIFY OP_CHECKSIG", "type": "pubkeyhash"}, "value": 0.00468258, "n": 0}, {"scriptPubKey": {"reqSigs": 1, "hex": "76a914ba48d3090f0bcc93b34873ba6450d4ac90d408dd88ac", "addresses": ["1Hyyvc7rpHsg1tgDw9ojbGkvVLTDU6sDkU"], "asm": "OP_DUP OP_HASH160 ba48d3090f0bcc93b34873ba6450d4ac90d408dd OP_EQUALVERIFY OP_CHECKSIG", "type": "pubkeyhash"}, "value": 5.46e-06, "n": 1}, {"scriptPubKey": {"type": "nulldata", "hex": "6a146f6d6e69000000000000001f00000060bdf0ab21", "asm": "OP_RETURN 6f6d6e69000000000000001f00000060bdf0ab21"}, "value": 0.0, "n": 2}], "hex": "0100000002558857d4577e62877cdaaed7650706ec8e58ceae3083b45f70875bdb9256db33020000008a473044022005dde081ba5a2c5a694bf268e263884358653cc30c6f0379e2cb8738873fca0b02206d2e6ec0574ee7dab5004ec63be19001c174ef9af1c46d9a0e7d362a8005052001410435aad4cae17b7e7c612c5093506ca91c099f8c590b2f983ba36fd3ae22f8adac5aeb51f6c5391fe68a72bcbf032cb4d97e60dbb25d323aff9ad22135ab3946c6ffffffff8292382123d378168c6b1b60f62af92b91fe29d54ee640744fb202c7782f3cd4000000008a473044022046ba2d20d775c745fe8f70d28c4e664f312cfd73a375178382627c0b6b12ce1d02202daac2ce39e5d9430a23bedba25410f1bff56091561d67776f61c36744751bd001410435aad4cae17b7e7c612c5093506ca91c099f8c590b2f983ba36fd3ae22f8adac5aeb51f6c5391fe68a72bcbf032cb4d97e60dbb25d323aff9ad22135ab3946c6ffffffff0322250700000000001976a91476452761101844d12d830ded782cd9ca7772770b88ac22020000000000001976a914ba48d3090f0bcc93b34873ba6450d4ac90d408dd88ac0000000000000000166a146f6d6e69000000000000001f00000060bdf0ab2100000000", "vin": [{"sequence": 4294967295, "scriptSig": {"hex": "473044022005dde081ba5a2c5a694bf268e263884358653cc30c6f0379e2cb8738873fca0b02206d2e6ec0574ee7dab5004ec63be19001c174ef9af1c46d9a0e7d362a8005052001410435aad4cae17b7e7c612c5093506ca91c099f8c590b2f983ba36fd3ae22f8adac5aeb51f6c5391fe68a72bcbf032cb4d97e60dbb25d323aff9ad22135ab3946c6", "asm": "3044022005dde081ba5a2c5a694bf268e263884358653cc30c6f0379e2cb8738873fca0b02206d2e6ec0574ee7dab5004ec63be19001c174ef9af1c46d9a0e7d362a80050520[ALL] 0435aad4cae17b7e7c612c5093506ca91c099f8c590b2f983ba36fd3ae22f8adac5aeb51f6c5391fe68a72bcbf032cb4d97e60dbb25d323aff9ad22135ab3946c6"}, "vout": 2, "txid": "33db5692db5b87705fb48330aece588eec060765d7aeda7c87627e57d4578855"}, {"sequence": 4294967295, "scriptSig": {"hex": "473044022046ba2d20d775c745fe8f70d28c4e664f312cfd73a375178382627c0b6b12ce1d02202daac2ce39e5d9430a23bedba25410f1bff56091561d67776f61c36744751bd001410435aad4cae17b7e7c612c5093506ca91c099f8c590b2f983ba36fd3ae22f8adac5aeb51f6c5391fe68a72bcbf032cb4d97e60dbb25d323aff9ad22135ab3946c6", "asm": "3044022046ba2d20d775c745fe8f70d28c4e664f312cfd73a375178382627c0b6b12ce1d02202daac2ce39e5d9430a23bedba25410f1bff56091561d67776f61c36744751bd0[ALL] 0435aad4cae17b7e7c612c5093506ca91c099f8c590b2f983ba36fd3ae22f8adac5aeb51f6c5391fe68a72bcbf032cb4d97e60dbb25d323aff9ad22135ab3946c6"}, "vout": 0, "txid": "d43c2f78c702b24f7440e64ed529fe912bf92af6601b6b8c1678d32321389282"}], "txid": "491c2818f342ad6762cf4b58ff002db6da4e6d8a614a8488a4fd517ae9627c7a", "blocktime": 1537870268, "version": 1, "confirmations": 11516, "time": 1537870268, "locktime": 0, "vsize": 467, "size": 467}