{"hash": "49206c5d9558f94bc40180fd5ba36069b24c7b97cd676c1a68c092fd1dc69a4e", "blockhash": "00000000000000000024a2167bbff67b0be802c0b01cdd79e6331c2be6459f87", "vout": [{"scriptPubKey": {"type": "nulldata", "hex": "6a4c500000777c0001b5e35f1de28bd9246c8a4ea5bcbefa6b8351586b4e86aeaeacb577c031fc188e23a49bea01f4b5f926be4d26c66a5baa0a0d0614ac97a78d2db7bc9a9526289ac0f6612cd74e33776ee4", "asm": "OP_RETURN 0000777c0001b5e35f1de28bd9246c8a4ea5bcbefa6b8351586b4e86aeaeacb577c031fc188e23a49bea01f4b5f926be4d26c66a5baa0a0d0614ac97a78d2db7bc9a9526289ac0f6612cd74e33776ee4"}, "value": 0.0, "n": 0}, {"scriptPubKey": {"reqSigs": 1, "hex": "76a914beb5c6975993ba3acb9dea21ff1965324d4e860088ac", "addresses": ["1JPP9SzPZtB7eAbdRD5UDETivkUW9pkckE"], "asm": "OP_DUP OP_HASH160 beb5c6975993ba3acb9dea21ff1965324d4e8600 OP_EQUALVERIFY OP_CHECKSIG", "type": "pubkeyhash"}, "value": 0.014829, "n": 1}], "hex": "0100000001a9e4f086783b937bcefce4b16b70b5205a987cf2bc6503a226a22d51e1039f8f000000006b48304502210095c41c9ed0f5aedc11fb73ad5e220dcdba89b7da91deae31ebc480f459def27f0220745de5b2fcdb7a66f878214f1d253dbd72ce8966a8711e8624bd302305074633012102f39030e217cdcfd219af6c8a8cf0b9b1ed996165f482f018bb1bd07ca1d565d3ffffffff020000000000000000536a4c500000777c0001b5e35f1de28bd9246c8a4ea5bcbefa6b8351586b4e86aeaeacb577c031fc188e23a49bea01f4b5f926be4d26c66a5baa0a0d0614ac97a78d2db7bc9a9526289ac0f6612cd74e33776ee494a01600000000001976a914beb5c6975993ba3acb9dea21ff1965324d4e860088ac00000000", "vin": [{"sequence": 4294967295, "scriptSig": {"hex": "48304502210095c41c9ed0f5aedc11fb73ad5e220dcdba89b7da91deae31ebc480f459def27f0220745de5b2fcdb7a66f878214f1d253dbd72ce8966a8711e8624bd302305074633012102f39030e217cdcfd219af6c8a8cf0b9b1ed996165f482f018bb1bd07ca1d565d3", "asm": "304502210095c41c9ed0f5aedc11fb73ad5e220dcdba89b7da91deae31ebc480f459def27f0220745de5b2fcdb7a66f878214f1d253dbd72ce8966a8711e8624bd302305074633[ALL] 02f39030e217cdcfd219af6c8a8cf0b9b1ed996165f482f018bb1bd07ca1d565d3"}, "vout": 0, "txid": "8f9f03e1512da226a20365bcf27c985a20b5706bb1e4fcce7b933b7886f0e4a9"}], "txid": "49206c5d9558f94bc40180fd5ba36069b24c7b97cd676c1a68c092fd1dc69a4e", "blocktime": 1537870564, "version": 1, "confirmations": 11515, "time": 1537870564, "locktime": 0, "vsize": 284, "size": 284}