{"hash": "4927a6511c9109cebbe403434573a4436c1067cc29dca26342248721008966e0", "blockhash": "0000000000000000001e0dab787dd257d1dbfcb92a98c2207d5e1078be1f4165", "vout": [{"scriptPubKey": {"reqSigs": 1, "hex": "a9149ecff5e6fcaf6f177fb48428507cae7a9360fd1a87", "addresses": ["3GAjpCtCwBpTSBeYeHYCgBmtyHnLoU6bMC"], "asm": "OP_HASH160 9ecff5e6fcaf6f177fb48428507cae7a9360fd1a OP_EQUAL", "type": "scripthash"}, "value": 0.01614253, "n": 0}, {"scriptPubKey": {"reqSigs": 1, "hex": "76a914e7d7bb12d09ed7899b1f25985ad8a6894e566e4888ac", "addresses": ["1N8sXYpECQm8Ahnp49ExVtGQVfzPYzEWR2"], "asm": "OP_DUP OP_HASH160 e7d7bb12d09ed7899b1f25985ad8a6894e566e48 OP_EQUALVERIFY OP_CHECKSIG", "type": "pubkeyhash"}, "value": 0.3110877, "n": 1}], "hex": "01000000011217b082c1ad68a482d7acdc30c3383e7f9de4700754ce143310be6fdf249c2d010000006a47304402207ba6c9673e9956319222e93c9de1ae659ce65915b7766460d8e97304d9e73d5d02200df0404e9ab6a1efcda0dc0808b51cfdadda6f92d2be22ab93332a5120cb833d0121031ba783ce1a5b888a9e463e76d55b52358e609a5b7ebef9f0c554fd146ee32545fdffffff02ada118000000000017a9149ecff5e6fcaf6f177fb48428507cae7a9360fd1a87a2aeda01000000001976a914e7d7bb12d09ed7899b1f25985ad8a6894e566e4888ac12490800", "vin": [{"sequence": 4294967293, "scriptSig": {"hex": "47304402207ba6c9673e9956319222e93c9de1ae659ce65915b7766460d8e97304d9e73d5d02200df0404e9ab6a1efcda0dc0808b51cfdadda6f92d2be22ab93332a5120cb833d0121031ba783ce1a5b888a9e463e76d55b52358e609a5b7ebef9f0c554fd146ee32545", "asm": "304402207ba6c9673e9956319222e93c9de1ae659ce65915b7766460d8e97304d9e73d5d02200df0404e9ab6a1efcda0dc0808b51cfdadda6f92d2be22ab93332a5120cb833d[ALL] 031ba783ce1a5b888a9e463e76d55b52358e609a5b7ebef9f0c554fd146ee32545"}, "vout": 1, "txid": "2d9c24df6fbe103314ce540770e49d7f3e38c330dcacd782a468adc182b01712"}], "txid": "4927a6511c9109cebbe403434573a4436c1067cc29dca26342248721008966e0", "blocktime": 1537872475, "version": 1, "confirmations": 11487, "time": 1537872475, "locktime": 542994, "vsize": 223, "size": 223}