{"hash": "13a369ee332e98cdee66dc7b9258cf7c8ee416d5f3ad44805862b1cdf863ac9d", "blockhash": "0000000000000000001f76057863aec43deb6fa401d9628bb513d65a8098bfab", "vout": [{"scriptPubKey": {"reqSigs": 1, "hex": "a9147966540c9d2f6f4a405cbb4a3beadb3f7efae0e387", "addresses": ["3CkvGejVEfd3SmssKXMQcgvJdSkx9fdeX5"], "asm": "OP_HASH160 7966540c9d2f6f4a405cbb4a3beadb3f7efae0e3 OP_EQUAL", "type": "scripthash"}, "value": 0.04777538, "n": 0}, {"scriptPubKey": {"reqSigs": 1, "hex": "a914074a69634347a98ca117b3f155ddb47aca44314287", "addresses": ["32MZo6kzG3DCbVWeif9LCGBtM5tVBh12sJ"], "asm": "OP_HASH160 074a69634347a98ca117b3f155ddb47aca443142 OP_EQUAL", "type": "scripthash"}, "value": 0.17471935, "n": 1}], "hex": "010000000001010fc40b2f373af498a50ef315a12f8af1c172ca97d59909c8aa3c628840e58c7f0100000023220020a4c3e8b78551736a8a7307da130fe0371682874a7781bc6b021833795649a1e9ffffffff0242e648000000000017a9147966540c9d2f6f4a405cbb4a3beadb3f7efae0e387bf990a010000000017a914074a69634347a98ca117b3f155ddb47aca443142870400483045022100deb6b70b1a945c93cf2730fad80b601d3999516fa340717ef8e2331ff8664a41022045c0cb7e5e4a071f59353bf384a8354daf38a61f160349908a4cac9deb5fc6f5014830450221008d9fb94d65de893cd9fcbba6db5b4a53338882be5ef045cfc212386f6b3d090f02205b6cbfd76e8b66e89067b4b6a3f30c4847af5e74a53b1d6451a23879aa6f97000147522102bfdd608b68f9f41dac4ad1e97745c073ed2f0a71179a03fcb5caf640dac9c5672103f62b1d27158b53be9caeae920614d9c61c0d4e3ab8a2b8afbc8e020933c6e68352ae00000000", "vin": [{"txinwitness": ["", "3045022100deb6b70b1a945c93cf2730fad80b601d3999516fa340717ef8e2331ff8664a41022045c0cb7e5e4a071f59353bf384a8354daf38a61f160349908a4cac9deb5fc6f501", "30450221008d9fb94d65de893cd9fcbba6db5b4a53338882be5ef045cfc212386f6b3d090f02205b6cbfd76e8b66e89067b4b6a3f30c4847af5e74a53b1d6451a23879aa6f970001", "522102bfdd608b68f9f41dac4ad1e97745c073ed2f0a71179a03fcb5caf640dac9c5672103f62b1d27158b53be9caeae920614d9c61c0d4e3ab8a2b8afbc8e020933c6e68352ae"], "sequence": 4294967295, "scriptSig": {"hex": "220020a4c3e8b78551736a8a7307da130fe0371682874a7781bc6b021833795649a1e9", "asm": "0020a4c3e8b78551736a8a7307da130fe0371682874a7781bc6b021833795649a1e9"}, "vout": 1, "txid": "7f8ce54088623caac80999d597ca72c1f18a2fa115f30ea598f43a372f0bc40f"}], "txid": "492ccb6379812c00c9cf05ad33bb27b8f360b3c9c19fab0b82ec11c2bd210681", "blocktime": 1537873891, "version": 1, "confirmations": 11478, "time": 1537873891, "locktime": 0, "vsize": 206, "size": 372}