{"hash": "8ccd9d45532530851ae42a9efb9442817f7c8b67fe204053e682cdf176337672", "blockhash": "0000000000000000001f0ddff1eddb255c1121bcd4da4f1bc9a0da00cae72433", "vout": [{"scriptPubKey": {"reqSigs": 1, "hex": "0014cc37634df1ce6c2b05e43b32513ef853baa5a2de", "addresses": ["bc1qesmkxn03eekzkp0y8ve9z0hc2wa2tgk7vlymnr"], "asm": "0 cc37634df1ce6c2b05e43b32513ef853baa5a2de", "type": "witness_v0_keyhash"}, "value": 0.00229001, "n": 0}], "hex": "02000000000103461ffa5ef850f99b01d35583ab6f7fe42814bb5fd7161fddb5c85da04fdcfd7b010000001716001491ef89a54d3ef4ea623f492b5d6aee4f8f77897dfffffffffe1c991b2f1a1818fbc0f0ad589d5a5499599eb23972cb2ee6071e2391207dba000000001716001496d374e597f0d3d566ee685b91c2ea5353c88eaeffffffffc1471720d2f788f65083308561900ac33880c5604e09c5ba54ce10dbc9973ed6010000001716001464e78dee85e0b7ac6f4128891bd729ce5b0f34dbffffffff01897e030000000000160014cc37634df1ce6c2b05e43b32513ef853baa5a2de0247304402201141025f18b4c23677d5997064c480ab51fc65c4d1fd5952103d348f1e9e4d2a0220605bc0b5044486f1c1b3056ce4cf3268594c58bfc1919b024d78275ce2705cc5012102bf8956e5b4476e85cfed36f0ac51ec69ff50a687d5f1387deb93746e53dced5702483045022100c38555994c943dd1df0bfbea29e227e5d2ab280e58aa1cea171243223d16e90b022057f539832b1577b5d9b06d3137658fe4c0b3b97d249a8ca7bec4d36fd4b172f20121024046faa26a5971baf5f48b3b3637047c8eda6981f5ca87a5f46e75c85ff3b59c02483045022100d6b84452cf5b2150cd09f23ac734c29b907d84bfbb06cbc2b263bbf01a0a90c7022034f1dd7101b1c420ec57e9114d30ed648efb08f5cefe816824f9f4f9502c7b0a0121031da212ef2e01647f1f4280e081ed9289e851648c58789491d893b3dc4b838f6200000000", "vin": [{"txinwitness": ["304402201141025f18b4c23677d5997064c480ab51fc65c4d1fd5952103d348f1e9e4d2a0220605bc0b5044486f1c1b3056ce4cf3268594c58bfc1919b024d78275ce2705cc501", "02bf8956e5b4476e85cfed36f0ac51ec69ff50a687d5f1387deb93746e53dced57"], "sequence": 4294967295, "scriptSig": {"hex": "16001491ef89a54d3ef4ea623f492b5d6aee4f8f77897d", "asm": "001491ef89a54d3ef4ea623f492b5d6aee4f8f77897d"}, "vout": 1, "txid": "7bfddc4fa05dc8b5dd1f16d75fbb1428e47f6fab8355d3019bf950f85efa1f46"}, {"txinwitness": ["3045022100c38555994c943dd1df0bfbea29e227e5d2ab280e58aa1cea171243223d16e90b022057f539832b1577b5d9b06d3137658fe4c0b3b97d249a8ca7bec4d36fd4b172f201", "024046faa26a5971baf5f48b3b3637047c8eda6981f5ca87a5f46e75c85ff3b59c"], "sequence": 4294967295, "scriptSig": {"hex": "16001496d374e597f0d3d566ee685b91c2ea5353c88eae", "asm": "001496d374e597f0d3d566ee685b91c2ea5353c88eae"}, "vout": 0, "txid": "ba7d2091231e07e62ecb7239b29e5999545a9d58adf0c0fb18181a2f1b991cfe"}, {"txinwitness": ["3045022100d6b84452cf5b2150cd09f23ac734c29b907d84bfbb06cbc2b263bbf01a0a90c7022034f1dd7101b1c420ec57e9114d30ed648efb08f5cefe816824f9f4f9502c7b0a01", "031da212ef2e01647f1f4280e081ed9289e851648c58789491d893b3dc4b838f62"], "sequence": 4294967295, "scriptSig": {"hex": "16001464e78dee85e0b7ac6f4128891bd729ce5b0f34db", "asm": "001464e78dee85e0b7ac6f4128891bd729ce5b0f34db"}, "vout": 1, "txid": "d63e97c9db10ce54bac5094e60c58038c30a906185308350f688f7d2201747c1"}], "txid": "4930732db549d949dea7538ced2cabac8243a6f0abbe2f6ce92a1759d85c9dfa", "blocktime": 1537872018, "version": 2, "confirmations": 11489, "time": 1537872018, "locktime": 0, "vsize": 315, "size": 558}