{"hash": "4931bf564189c24404067793f0c1fbf6c861243c83f39cfe2db4ad4a99254569", "blockhash": "0000000000000000001f0ddff1eddb255c1121bcd4da4f1bc9a0da00cae72433", "vout": [{"scriptPubKey": {"reqSigs": 1, "hex": "76a91425d33e35666e01b030feba0d4eebd5ea8bf7290188ac", "addresses": ["14T14X6NmZt6XfRxJdusMYQFmJ21HDJQ14"], "asm": "OP_DUP OP_HASH160 25d33e35666e01b030feba0d4eebd5ea8bf72901 OP_EQUALVERIFY OP_CHECKSIG", "type": "pubkeyhash"}, "value": 0.00015077, "n": 0}, {"scriptPubKey": {"reqSigs": 1, "hex": "a91488e34dbf6952f53a1b7fefa21419b098ce0732c087", "addresses": ["3EAp7yFxDczy3U8MyA5HiPZ2bgW3byRu1c"], "asm": "OP_HASH160 88e34dbf6952f53a1b7fefa21419b098ce0732c0 OP_EQUAL", "type": "scripthash"}, "value": 0.03561359, "n": 1}], "hex": "0100000002496c143e04f5457362a1f06cc496bfe09bf3f9167f2722a4ea449095a04fd265010000006a4730440220489468474af9cf3b1925037a5b8ece12a239ce82f58f2c3c5538b18c8b466a0d02204c764ebb8e96cf6d0d3fbd66592ef4c656504e340cb2ab5f4fd5684b6df22b37012102765205dad667317ab3f8817947e676a17449cd38526d72e137b77d3e3da81519ffffffff46c8276306b919ea6f4fbb3ed8323ff3f12d2cf0e4929e33c6dc0e246888e384000000006b483045022100e2b734851bf82ce719929d5c72dd204615d5abb4fe4456bdbafb250674bcf81102206783086b599ed89d55ddc9e00a1f607a2021582a5b89672531124e9be9f4d1c70121024987f54c1c8c21436596bebb4de63242e32d2f945c3f489c3cddde91d9698ed5ffffffff02e53a0000000000001976a91425d33e35666e01b030feba0d4eebd5ea8bf7290188ac8f5736000000000017a91488e34dbf6952f53a1b7fefa21419b098ce0732c08700000000", "vin": [{"sequence": 4294967295, "scriptSig": {"hex": "4730440220489468474af9cf3b1925037a5b8ece12a239ce82f58f2c3c5538b18c8b466a0d02204c764ebb8e96cf6d0d3fbd66592ef4c656504e340cb2ab5f4fd5684b6df22b37012102765205dad667317ab3f8817947e676a17449cd38526d72e137b77d3e3da81519", "asm": "30440220489468474af9cf3b1925037a5b8ece12a239ce82f58f2c3c5538b18c8b466a0d02204c764ebb8e96cf6d0d3fbd66592ef4c656504e340cb2ab5f4fd5684b6df22b37[ALL] 02765205dad667317ab3f8817947e676a17449cd38526d72e137b77d3e3da81519"}, "vout": 1, "txid": "65d24fa0959044eaa422277f16f9f39be0bf96c46cf0a1627345f5043e146c49"}, {"sequence": 4294967295, "scriptSig": {"hex": "483045022100e2b734851bf82ce719929d5c72dd204615d5abb4fe4456bdbafb250674bcf81102206783086b599ed89d55ddc9e00a1f607a2021582a5b89672531124e9be9f4d1c70121024987f54c1c8c21436596bebb4de63242e32d2f945c3f489c3cddde91d9698ed5", "asm": "3045022100e2b734851bf82ce719929d5c72dd204615d5abb4fe4456bdbafb250674bcf81102206783086b599ed89d55ddc9e00a1f607a2021582a5b89672531124e9be9f4d1c7[ALL] 024987f54c1c8c21436596bebb4de63242e32d2f945c3f489c3cddde91d9698ed5"}, "vout": 0, "txid": "84e38868240edcc6339e92e4f02c2df1f33f32d83ebb4f6fea19b9066327c846"}], "txid": "4931bf564189c24404067793f0c1fbf6c861243c83f39cfe2db4ad4a99254569", "blocktime": 1537872018, "version": 1, "confirmations": 11489, "time": 1537872018, "locktime": 0, "vsize": 371, "size": 371}