{"hash": "655023105adbd838328a983677580803c2d52b3853632063257f697616f14638", "blockhash": "0000000000000000000dcc0f55137456b1a82d3642486a52398922ac4d620174", "vout": [{"scriptPubKey": {"reqSigs": 1, "hex": "a914d5bedd3758a9c05e003d6cdfa98313887f90ed7e87", "addresses": ["3MBCVsjhyWZJG5CcfSkg7C1d7djUiKoqhc"], "asm": "OP_HASH160 d5bedd3758a9c05e003d6cdfa98313887f90ed7e OP_EQUAL", "type": "scripthash"}, "value": 0.00463074, "n": 0}], "hex": "0100000000010164490891a9d22cd165be427c6a08d5a78e8c9c985328e075fd016f0273a91b5a0000000017160014ff03f9c02880f96dc014624352abaf556cc88f29ffffffff01e21007000000000017a914d5bedd3758a9c05e003d6cdfa98313887f90ed7e87024830450221008ec92196bc45cf574496bcbc8059c0843a744306113b1d48580d12fef2e74d0802203cbcbb540cb8de5ea40a674f256a17b19822d3e252c4c6888f64981fb82d934a0121031aed2e575a2c74d1607e3fbbce12636ea537bb5c8e1196073092f39a1c15d37100000000", "vin": [{"txinwitness": ["30450221008ec92196bc45cf574496bcbc8059c0843a744306113b1d48580d12fef2e74d0802203cbcbb540cb8de5ea40a674f256a17b19822d3e252c4c6888f64981fb82d934a01", "031aed2e575a2c74d1607e3fbbce12636ea537bb5c8e1196073092f39a1c15d371"], "sequence": 4294967295, "scriptSig": {"hex": "160014ff03f9c02880f96dc014624352abaf556cc88f29", "asm": "0014ff03f9c02880f96dc014624352abaf556cc88f29"}, "vout": 0, "txid": "5a1ba973026f01fd75e02853989c8c8ea7d5086a7c42be65d12cd2a991084964"}], "txid": "49324064a7ac5f8fff2cd4a3854da6c2bd96b84e9399238d4a593148cba8989a", "blocktime": 1537870268, "version": 1, "confirmations": 11518, "time": 1537870268, "locktime": 0, "vsize": 134, "size": 216}