{"hash": "49335f3d199589d7be5427d79ff820a1949bb69ea15475d7eaca00dc555b8fda", "blockhash": "0000000000000000001cda96e906b7601b7a6fb1a3b62bca570a9e5d8f4b3de1", "vout": [{"scriptPubKey": {"reqSigs": 1, "hex": "76a91487d0a410ff6d597de9b739f07d03f7040fc880b188ac", "addresses": ["1DP8AX9voAdDuNjbRKGSJnT1baXQF9QkFf"], "asm": "OP_DUP OP_HASH160 87d0a410ff6d597de9b739f07d03f7040fc880b1 OP_EQUALVERIFY OP_CHECKSIG", "type": "pubkeyhash"}, "value": 0.02156, "n": 0}, {"scriptPubKey": {"reqSigs": 1, "hex": "a914e370231feecbfc25e2e2423a5a79bf79bfdca59887", "addresses": ["3NRbeX3vD5VaVE4TDU9ivCDsEf7NPPte6J"], "asm": "OP_HASH160 e370231feecbfc25e2e2423a5a79bf79bfdca598 OP_EQUAL", "type": "scripthash"}, "value": 3.14872347, "n": 1}], "hex": "010000000127090ac2b4d28f1093fe092b754c9929849c47ecc65f91e966dab5dee8b27d9901000000d90047304402202f8dcb3936c7619dd302fe854543e7fee482580870bbe2277c0a46a46a76e1a0022014cae17be62420ac05660a1c04bc8dbbc9d4a76c208a1f3261a174206cad66e401473044022045dffe55453a5654972db9b425e5e9d45f79fadf5d2087757330732e57301c3f0220061576fd3a4699af6c86569bba6b62f37206ee96364a750e8978d584cdab82c0014752210327881b6abce6535553a3ce21fad12a7d74fd237ce7c4cd270a267162344e3082210256141f8eb687f5a68c5cc65054652dc25116fa285e44d72b44368827ffe77d9a52aeffffffff02e0e52000000000001976a91487d0a410ff6d597de9b739f07d03f7040fc880b188ac1b92c4120000000017a914e370231feecbfc25e2e2423a5a79bf79bfdca5988700000000", "vin": [{"sequence": 4294967295, "scriptSig": {"hex": "0047304402202f8dcb3936c7619dd302fe854543e7fee482580870bbe2277c0a46a46a76e1a0022014cae17be62420ac05660a1c04bc8dbbc9d4a76c208a1f3261a174206cad66e401473044022045dffe55453a5654972db9b425e5e9d45f79fadf5d2087757330732e57301c3f0220061576fd3a4699af6c86569bba6b62f37206ee96364a750e8978d584cdab82c0014752210327881b6abce6535553a3ce21fad12a7d74fd237ce7c4cd270a267162344e3082210256141f8eb687f5a68c5cc65054652dc25116fa285e44d72b44368827ffe77d9a52ae", "asm": "0 304402202f8dcb3936c7619dd302fe854543e7fee482580870bbe2277c0a46a46a76e1a0022014cae17be62420ac05660a1c04bc8dbbc9d4a76c208a1f3261a174206cad66e4[ALL] 3044022045dffe55453a5654972db9b425e5e9d45f79fadf5d2087757330732e57301c3f0220061576fd3a4699af6c86569bba6b62f37206ee96364a750e8978d584cdab82c0[ALL] 52210327881b6abce6535553a3ce21fad12a7d74fd237ce7c4cd270a267162344e3082210256141f8eb687f5a68c5cc65054652dc25116fa285e44d72b44368827ffe77d9a52ae"}, "vout": 1, "txid": "997db2e8deb5da66e9915fc6ec479c8429994c752b09fe93108fd2b4c20a0927"}], "txid": "49335f3d199589d7be5427d79ff820a1949bb69ea15475d7eaca00dc555b8fda", "blocktime": 1537873282, "version": 1, "confirmations": 11484, "time": 1537873282, "locktime": 0, "vsize": 334, "size": 334}