{"hash": "493521b2be6c6173485dade821e3b68048008a706858c347e0228302fc58ee51", "blockhash": "0000000000000000000e13cef7c366c0283d82e591d1acd082e914b08063cdf1", "vout": [{"scriptPubKey": {"reqSigs": 1, "hex": "76a914784076064b8dfafcbd27998bd6e87f1fa9762fe888ac", "addresses": ["1BxqJrM2b2FwoLnH1DZdqKLftFyNDiMcFH"], "asm": "OP_DUP OP_HASH160 784076064b8dfafcbd27998bd6e87f1fa9762fe8 OP_EQUALVERIFY OP_CHECKSIG", "type": "pubkeyhash"}, "value": 0.00247677, "n": 0}, {"scriptPubKey": {"reqSigs": 1, "hex": "76a9147d3b1480480637efc8556d15f7aea6f83f79862b88ac", "addresses": ["1CRAEwDyxME2oswQ3sz4DL8pxHdoVENLSa"], "asm": "OP_DUP OP_HASH160 7d3b1480480637efc8556d15f7aea6f83f79862b OP_EQUALVERIFY OP_CHECKSIG", "type": "pubkeyhash"}, "value": 0.0024992, "n": 1}], "hex": "0100000001ccd520c924875ce49d12f3cd8e81efe2ed300cec8000bd2b12b50f6938954c8e010000006a47304402204c0c5b2e7b66f2ce643821130e3f65fc33a686b471f9e183df705893fbb1d8ae02204734d14a2a8ae52852f9aac654584d5843b3d2e9dd40845307f62888ac4e15d2012103879e081181f6d0b879a66e947d3c717ad556a7744e852bda5ba89dbe00087515ffffffff027dc70300000000001976a914784076064b8dfafcbd27998bd6e87f1fa9762fe888ac40d00300000000001976a9147d3b1480480637efc8556d15f7aea6f83f79862b88ac00000000", "vin": [{"sequence": 4294967295, "scriptSig": {"hex": "47304402204c0c5b2e7b66f2ce643821130e3f65fc33a686b471f9e183df705893fbb1d8ae02204734d14a2a8ae52852f9aac654584d5843b3d2e9dd40845307f62888ac4e15d2012103879e081181f6d0b879a66e947d3c717ad556a7744e852bda5ba89dbe00087515", "asm": "304402204c0c5b2e7b66f2ce643821130e3f65fc33a686b471f9e183df705893fbb1d8ae02204734d14a2a8ae52852f9aac654584d5843b3d2e9dd40845307f62888ac4e15d2[ALL] 03879e081181f6d0b879a66e947d3c717ad556a7744e852bda5ba89dbe00087515"}, "vout": 1, "txid": "8e4c9538690fb5122bbd0080ec0c30ede2ef818ecdf3129de45c8724c920d5cc"}], "txid": "493521b2be6c6173485dade821e3b68048008a706858c347e0228302fc58ee51", "blocktime": 1537871767, "version": 1, "confirmations": 11495, "time": 1537871767, "locktime": 0, "vsize": 225, "size": 225}