{"hash": "493b6154172a555a25269bd286ab7237f045357ead3fcf1547306dfbeee55ca3", "blockhash": "00000000000000000017f5eb5941039fbcee6240d03bc1f2f8e35350df66a1d8", "vout": [{"scriptPubKey": {"type": "nulldata", "hex": "6a4c50000077f9000173c6785583fdcd5810d7b003d19ed074892d00f8e87af8e8e963c7cfd5b91c6ec5b79404a56ae471711b4400952f5baa18ec061413bf410ec9ccbc9a9526289ac0f6612cd74e33776ee4", "asm": "OP_RETURN 000077f9000173c6785583fdcd5810d7b003d19ed074892d00f8e87af8e8e963c7cfd5b91c6ec5b79404a56ae471711b4400952f5baa18ec061413bf410ec9ccbc9a9526289ac0f6612cd74e33776ee4"}, "value": 0.0, "n": 0}, {"scriptPubKey": {"reqSigs": 1, "hex": "76a9144e47179285d0b05c45a0a1afeda708287650a2c988ac", "addresses": ["188tsXa1Soyz8a61wYixDk1YH5HXmCZSeU"], "asm": "OP_DUP OP_HASH160 4e47179285d0b05c45a0a1afeda708287650a2c9 OP_EQUALVERIFY OP_CHECKSIG", "type": "pubkeyhash"}, "value": 0.0007786, "n": 1}], "hex": "0100000001caae301bd406807ab9a9f79b050d3340c445966ecdee0ffa89da0eba7a687628000000006b483045022100ced96109d4a7e29410b74fb647b97a71c416f0e7ce7fc2555f6046a71bfba83e02201f497ed0b00cc5eac51958a3e5e96342b477ff6915a2640cfa2c1267983153b00121022c9fc882f0a3eecafa93299e094ec89ab3d9c145bea360602c5a6ee6137f2009ffffffff020000000000000000536a4c50000077f9000173c6785583fdcd5810d7b003d19ed074892d00f8e87af8e8e963c7cfd5b91c6ec5b79404a56ae471711b4400952f5baa18ec061413bf410ec9ccbc9a9526289ac0f6612cd74e33776ee424300100000000001976a9144e47179285d0b05c45a0a1afeda708287650a2c988ac00000000", "vin": [{"sequence": 4294967295, "scriptSig": {"hex": "483045022100ced96109d4a7e29410b74fb647b97a71c416f0e7ce7fc2555f6046a71bfba83e02201f497ed0b00cc5eac51958a3e5e96342b477ff6915a2640cfa2c1267983153b00121022c9fc882f0a3eecafa93299e094ec89ab3d9c145bea360602c5a6ee6137f2009", "asm": "3045022100ced96109d4a7e29410b74fb647b97a71c416f0e7ce7fc2555f6046a71bfba83e02201f497ed0b00cc5eac51958a3e5e96342b477ff6915a2640cfa2c1267983153b0[ALL] 022c9fc882f0a3eecafa93299e094ec89ab3d9c145bea360602c5a6ee6137f2009"}, "vout": 0, "txid": "2876687aba0eda89fa0feecd6e9645c440330d059bf7a9b97a8006d41b30aeca"}], "txid": "493b6154172a555a25269bd286ab7237f045357ead3fcf1547306dfbeee55ca3", "blocktime": 1537874412, "version": 1, "confirmations": 11467, "time": 1537874412, "locktime": 0, "vsize": 284, "size": 284}