{"hash": "493cb5b6f7ef0f1d42b30081b04ecdf53de757b767f9c954fecf2b8ff1175858", "blockhash": "0000000000000000000e13cef7c366c0283d82e591d1acd082e914b08063cdf1", "vout": [{"scriptPubKey": {"reqSigs": 1, "hex": "a914f5a335dc09e7e3a32a343b518e504068c540a1a987", "addresses": ["3Q5pzbghFHfSw8fqkeHnoL4zHX1k2KTyHa"], "asm": "OP_HASH160 f5a335dc09e7e3a32a343b518e504068c540a1a9 OP_EQUAL", "type": "scripthash"}, "value": 0.27241829, "n": 0}], "hex": "01000000049eaa14245685928739a5b267359c65c3baebee141e655a1daf6291195438089c000000006b483045022100e07369e0903482381710918855b114948812449e49d19b4e97f9f731a363ed9302201ddae8329963302bc708e91984ecd5de28a2b8efdd1f905c57e7500575875dc80121024ed468776a318563fe71eef532dac21101db0f7c36ed053f8ced3f9ac8d63c4fffffffff4dc25e12f41e0059659975890216362dbbe5fe00de261aea2c0babe6319c884d010000006b483045022100a8abda1401cd317ada8058fe2da94df6caf5725af44925997f789133de95bbb402207be700d8532e456060dee8573b6254910a230cbc0f28934ae70907449cb8f786012103cf229b826b7d4087323c51fa3a039cbf0cefd8eb50eba77af51eb931a7eb713dffffffffe70a182dcc5724a2718381c8498353ea3bd1b9709df6352748a7f60c3993a3eb000000006b483045022100a5b607681f01e99e7283f0c6e24a3d7c9d1630030eb1ab1eb9dae80759d2d9ad02201abe7464d5145fac235ec1e0a3cc4e093a2983332da7d8983a30c436f0aa4372012103423b638ffdca8468d43bda859b512063f949586f0259f37b3a62ab20b4f09493fffffffff69865a42b3964cedd5c7fa66a1f6c8df424b16cb9255b3655ab1286a1e73d97010000006a473044022075dbe1d5d886de3636d8ae3aca815a314321697cdda5a725866d523cbab19688022065172505b3c3326f5614195554511309de20849fb4fbf9622dcae696634ffbaf012103cf229b826b7d4087323c51fa3a039cbf0cefd8eb50eba77af51eb931a7eb713dffffffff0165ad9f010000000017a914f5a335dc09e7e3a32a343b518e504068c540a1a98700000000", "vin": [{"sequence": 4294967295, "scriptSig": {"hex": "483045022100e07369e0903482381710918855b114948812449e49d19b4e97f9f731a363ed9302201ddae8329963302bc708e91984ecd5de28a2b8efdd1f905c57e7500575875dc80121024ed468776a318563fe71eef532dac21101db0f7c36ed053f8ced3f9ac8d63c4f", "asm": "3045022100e07369e0903482381710918855b114948812449e49d19b4e97f9f731a363ed9302201ddae8329963302bc708e91984ecd5de28a2b8efdd1f905c57e7500575875dc8[ALL] 024ed468776a318563fe71eef532dac21101db0f7c36ed053f8ced3f9ac8d63c4f"}, "vout": 0, "txid": "9c083854199162af1d5a651e14eeebbac3659c3567b2a539879285562414aa9e"}, {"sequence": 4294967295, "scriptSig": {"hex": "483045022100a8abda1401cd317ada8058fe2da94df6caf5725af44925997f789133de95bbb402207be700d8532e456060dee8573b6254910a230cbc0f28934ae70907449cb8f786012103cf229b826b7d4087323c51fa3a039cbf0cefd8eb50eba77af51eb931a7eb713d", "asm": "3045022100a8abda1401cd317ada8058fe2da94df6caf5725af44925997f789133de95bbb402207be700d8532e456060dee8573b6254910a230cbc0f28934ae70907449cb8f786[ALL] 03cf229b826b7d4087323c51fa3a039cbf0cefd8eb50eba77af51eb931a7eb713d"}, "vout": 1, "txid": "4d889c31e6ab0b2cea1a26de00fee5bb2d3616028975996559001ef4125ec24d"}, {"sequence": 4294967295, "scriptSig": {"hex": "483045022100a5b607681f01e99e7283f0c6e24a3d7c9d1630030eb1ab1eb9dae80759d2d9ad02201abe7464d5145fac235ec1e0a3cc4e093a2983332da7d8983a30c436f0aa4372012103423b638ffdca8468d43bda859b512063f949586f0259f37b3a62ab20b4f09493", "asm": "3045022100a5b607681f01e99e7283f0c6e24a3d7c9d1630030eb1ab1eb9dae80759d2d9ad02201abe7464d5145fac235ec1e0a3cc4e093a2983332da7d8983a30c436f0aa4372[ALL] 03423b638ffdca8468d43bda859b512063f949586f0259f37b3a62ab20b4f09493"}, "vout": 0, "txid": "eba393390cf6a7482735f69d70b9d13bea538349c8818371a22457cc2d180ae7"}, {"sequence": 4294967295, "scriptSig": {"hex": "473044022075dbe1d5d886de3636d8ae3aca815a314321697cdda5a725866d523cbab19688022065172505b3c3326f5614195554511309de20849fb4fbf9622dcae696634ffbaf012103cf229b826b7d4087323c51fa3a039cbf0cefd8eb50eba77af51eb931a7eb713d", "asm": "3044022075dbe1d5d886de3636d8ae3aca815a314321697cdda5a725866d523cbab19688022065172505b3c3326f5614195554511309de20849fb4fbf9622dcae696634ffbaf[ALL] 03cf229b826b7d4087323c51fa3a039cbf0cefd8eb50eba77af51eb931a7eb713d"}, "vout": 1, "txid": "973de7a18612ab55365b25b96cb124f48d6c1f6aa67f5cddce64392ba46598f6"}], "txid": "493cb5b6f7ef0f1d42b30081b04ecdf53de757b767f9c954fecf2b8ff1175858", "blocktime": 1537871767, "version": 1, "confirmations": 11490, "time": 1537871767, "locktime": 0, "vsize": 633, "size": 633}