{"hash": "dd75a290ae059eb35b5c8b4da32d40fcdfbd5f8777614e77296649973238e936", "blockhash": "0000000000000000000baef3f32e3676a92c3b2e5da21b426e4f302fc371ce76", "vout": [{"scriptPubKey": {"reqSigs": 1, "hex": "a914f0bcccd37452dfb79116c22221f34442d3e56a1687", "addresses": ["3PdvGeJxG2eXL7ASHFtbKjHfaRoNVzziNB"], "asm": "OP_HASH160 f0bcccd37452dfb79116c22221f34442d3e56a16 OP_EQUAL", "type": "scripthash"}, "value": 5.0, "n": 0}, {"scriptPubKey": {"reqSigs": 1, "hex": "a9142a258622b460e0b23edc5f71b5bea7b5fb831c9587", "addresses": ["35XsFp2NcnnSx6W4HLcLoG7xVn8qrTsthM"], "asm": "OP_HASH160 2a258622b460e0b23edc5f71b5bea7b5fb831c95 OP_EQUAL", "type": "scripthash"}, "value": 2.11633357, "n": 1}], "hex": "02000000000104735dc4349b950287ee35b7a61053b1551cb56beba7d59c9cd546fd4f6fd68d510100000017160014b2fb85de95929bbd8aae49ff59b163b02280532bffffffff7e77007c04ab41cca8fd432c70d1a674138a925391c1085b7623a655488721bc0000000017160014b2fb85de95929bbd8aae49ff59b163b02280532bffffffff9c05323b933ff07a6b33b431a37e5c6a4bf5b4b271ef8f17ddd6ef25e67cbf520000000017160014b2fb85de95929bbd8aae49ff59b163b02280532bfffffffff1b81436fabf94478387c910e91381f933c12a4b0c660000339dfe357bbdffa40000000017160014b2fb85de95929bbd8aae49ff59b163b02280532bffffffff020065cd1d0000000017a914f0bcccd37452dfb79116c22221f34442d3e56a1687cd449d0c0000000017a9142a258622b460e0b23edc5f71b5bea7b5fb831c95870247304402200414206b68cf2431301fcbb093f665abf1c24cbd7edd15bc2b1348e1e12ee57202200f26973d83694f5ec4944dce7a5e3aa82a95df5eca396111ca2de388d24cb99b012102d5ee95980679f6a673d2b97262be804f90b813530c3921201b17e05eeb49cd9a02483045022100a23be3a444d703a5346f25a751d2255a1e96459e2e9906353aa3aa65528757db02207462039efe5c5966c0487c1bebe26ee7ba06dabe59fa7632bc32997b3ea45790012102d5ee95980679f6a673d2b97262be804f90b813530c3921201b17e05eeb49cd9a02483045022100d5467d19e6a86788e09f96dce999c48073f96ab020a545256eb6fe5a2a19bce602204a75831466836f36435e0af58961cce0407c157839ef711bd1fc31fd2e1ae878012102d5ee95980679f6a673d2b97262be804f90b813530c3921201b17e05eeb49cd9a02483045022100995ead896976d21070fbad1026ca3ce5fd67197ce10d6c0c8ccc05d08017d7af02202e5e98d088c6a91c30304816f1630b76a42a6e9c62c5aeba8329bd92413ad26c012102d5ee95980679f6a673d2b97262be804f90b813530c3921201b17e05eeb49cd9a00000000", "vin": [{"txinwitness": ["304402200414206b68cf2431301fcbb093f665abf1c24cbd7edd15bc2b1348e1e12ee57202200f26973d83694f5ec4944dce7a5e3aa82a95df5eca396111ca2de388d24cb99b01", "02d5ee95980679f6a673d2b97262be804f90b813530c3921201b17e05eeb49cd9a"], "sequence": 4294967295, "scriptSig": {"hex": "160014b2fb85de95929bbd8aae49ff59b163b02280532b", "asm": "0014b2fb85de95929bbd8aae49ff59b163b02280532b"}, "vout": 1, "txid": "518dd66f4ffd46d59c9cd5a7eb6bb51c55b15310a6b735ee8702959b34c45d73"}, {"txinwitness": ["3045022100a23be3a444d703a5346f25a751d2255a1e96459e2e9906353aa3aa65528757db02207462039efe5c5966c0487c1bebe26ee7ba06dabe59fa7632bc32997b3ea4579001", "02d5ee95980679f6a673d2b97262be804f90b813530c3921201b17e05eeb49cd9a"], "sequence": 4294967295, "scriptSig": {"hex": "160014b2fb85de95929bbd8aae49ff59b163b02280532b", "asm": "0014b2fb85de95929bbd8aae49ff59b163b02280532b"}, "vout": 0, "txid": "bc21874855a623765b08c19153928a1374a6d1702c43fda8cc41ab047c00777e"}, {"txinwitness": ["3045022100d5467d19e6a86788e09f96dce999c48073f96ab020a545256eb6fe5a2a19bce602204a75831466836f36435e0af58961cce0407c157839ef711bd1fc31fd2e1ae87801", "02d5ee95980679f6a673d2b97262be804f90b813530c3921201b17e05eeb49cd9a"], "sequence": 4294967295, "scriptSig": {"hex": "160014b2fb85de95929bbd8aae49ff59b163b02280532b", "asm": "0014b2fb85de95929bbd8aae49ff59b163b02280532b"}, "vout": 0, "txid": "52bf7ce625efd6dd178fef71b2b4f54b6a5c7ea331b4336b7af03f933b32059c"}, {"txinwitness": ["3045022100995ead896976d21070fbad1026ca3ce5fd67197ce10d6c0c8ccc05d08017d7af02202e5e98d088c6a91c30304816f1630b76a42a6e9c62c5aeba8329bd92413ad26c01", "02d5ee95980679f6a673d2b97262be804f90b813530c3921201b17e05eeb49cd9a"], "sequence": 4294967295, "scriptSig": {"hex": "160014b2fb85de95929bbd8aae49ff59b163b02280532b", "asm": "0014b2fb85de95929bbd8aae49ff59b163b02280532b"}, "vout": 0, "txid": "a4ffbd7b35fe9d330000660c4b2ac133f98113e910c987834794bffa3614b8f1"}], "txid": "4943642a2ddcf457095c974f306512ecbdee1ce7b6726a3208a77b6abacacd08", "blocktime": 1537876114, "version": 2, "confirmations": 11460, "time": 1537876114, "locktime": 0, "vsize": 439, "size": 763}