{"hash": "494a06b08e1dab7203f76555869a5a533a0b30db206117c96e7ff467d219bc1a", "blockhash": "0000000000000000001e0dab787dd257d1dbfcb92a98c2207d5e1078be1f4165", "vout": [{"scriptPubKey": {"type": "nulldata", "hex": "6a2e6f524242253a0a7eb763425964c409bfee18f36444bb75cb42d2f021501c868641f91bf00d428b9a38001df2ffa5", "asm": "OP_RETURN 6f524242253a0a7eb763425964c409bfee18f36444bb75cb42d2f021501c868641f91bf00d428b9a38001df2ffa5"}, "value": 0.0, "n": 0}, {"scriptPubKey": {"reqSigs": 1, "hex": "76a9149afca594e77fcbaf6dc16b190ae0426e151db54188ac", "addresses": ["1F8VikUQmEW6n8cHAwNjrNPUkuydM5Bt9m"], "asm": "OP_DUP OP_HASH160 9afca594e77fcbaf6dc16b190ae0426e151db541 OP_EQUALVERIFY OP_CHECKSIG", "type": "pubkeyhash"}, "value": 0.00010608, "n": 1}], "hex": "010000000127fc1cb3d9de26abac4b5fd72df9ac63e8455b2d2b92f8d648964551ca263edc000000006b483045022100981fff71468f24154c9fdc6911cf4d5fe3c682424fcfe68e05f450169ada3ce602204277a1562611f1369b30a19958c538c6a6caf1ed178ee0f3a0ac9963e8243fc9012102f2881289557966f72764bfdd23bb097321a1a703f7734badf3abe8c862f4959bffffffff020000000000000000306a2e6f524242253a0a7eb763425964c409bfee18f36444bb75cb42d2f021501c868641f91bf00d428b9a38001df2ffa570290000000000001976a9149afca594e77fcbaf6dc16b190ae0426e151db54188ac00000000", "vin": [{"sequence": 4294967295, "scriptSig": {"hex": "483045022100981fff71468f24154c9fdc6911cf4d5fe3c682424fcfe68e05f450169ada3ce602204277a1562611f1369b30a19958c538c6a6caf1ed178ee0f3a0ac9963e8243fc9012102f2881289557966f72764bfdd23bb097321a1a703f7734badf3abe8c862f4959b", "asm": "3045022100981fff71468f24154c9fdc6911cf4d5fe3c682424fcfe68e05f450169ada3ce602204277a1562611f1369b30a19958c538c6a6caf1ed178ee0f3a0ac9963e8243fc9[ALL] 02f2881289557966f72764bfdd23bb097321a1a703f7734badf3abe8c862f4959b"}, "vout": 0, "txid": "dc3e26ca51459648d6f8922b2d5b45e863acf92dd75f4bacab26ded9b31cfc27"}], "txid": "494a06b08e1dab7203f76555869a5a533a0b30db206117c96e7ff467d219bc1a", "blocktime": 1537872475, "version": 1, "confirmations": 11487, "time": 1537872475, "locktime": 0, "vsize": 249, "size": 249}