{"hash": "67f5c7233b8e29feb4e24494138e42b6c19e1c7e35a5957e70af862c484ee75d", "blockhash": "0000000000000000000baef3f32e3676a92c3b2e5da21b426e4f302fc371ce76", "vout": [{"scriptPubKey": {"reqSigs": 1, "hex": "a914b5ad66024fe73caa25e0a370407cf2780904f42487", "addresses": ["3JFdxCgL6WYopczBUDoScv4YmWBonPhDSs"], "asm": "OP_HASH160 b5ad66024fe73caa25e0a370407cf2780904f424 OP_EQUAL", "type": "scripthash"}, "value": 0.08311746, "n": 0}, {"scriptPubKey": {"reqSigs": 1, "hex": "001479131a258bd22dae36552013fe6b0ee08aa4d90c", "addresses": ["bc1q0yf35fvt6gk6udj4yqflu6cwuz92fkgv7hqv4y"], "asm": "0 79131a258bd22dae36552013fe6b0ee08aa4d90c", "type": "witness_v0_keyhash"}, "value": 0.98834541, "n": 1}], "hex": "0200000000010183720c9cb95cf704506ad02f794d5f9c11be21c96a471e27da20ccb10d52f1780100000000ffffffff02c2d37e000000000017a914b5ad66024fe73caa25e0a370407cf2780904f424876d18e4050000000016001479131a258bd22dae36552013fe6b0ee08aa4d90c024730440220606e3d5981b60c917d49b57380ac05eb057646851700f70f48ffc00f1265998502206c9033856052134ea1fa1d2a1d6194fb9697a9153cbf1f985ab9782c3d38e244012102eeba112d925fd3fe57542b284c34aaabf78f7c7056acb4758614517b2331f6a600000000", "vin": [{"txinwitness": ["30440220606e3d5981b60c917d49b57380ac05eb057646851700f70f48ffc00f1265998502206c9033856052134ea1fa1d2a1d6194fb9697a9153cbf1f985ab9782c3d38e24401", "02eeba112d925fd3fe57542b284c34aaabf78f7c7056acb4758614517b2331f6a6"], "sequence": 4294967295, "scriptSig": {"hex": "", "asm": ""}, "vout": 1, "txid": "78f1520db1cc20da271e476ac921be119c5f4d792fd06a5004f75cb99c0c7283"}], "txid": "495368269ef25440594ad5997af16ea5cc155dc593de07b91e5357181f6cbcba", "blocktime": 1537876114, "version": 2, "confirmations": 11460, "time": 1537876114, "locktime": 0, "vsize": 142, "size": 223}