{"hash": "4954768e15280ba4036dcf603387e1ffa4f43f587c29f7dab0ac0f7557f2c904", "blockhash": "0000000000000000000e13cef7c366c0283d82e591d1acd082e914b08063cdf1", "vout": [{"scriptPubKey": {"reqSigs": 1, "hex": "76a9146e3238a608e0089d44b536dd1cf2651b32f3f81588ac", "addresses": ["1B3fVYAU4PWgw12YofxcyDRpeHRWYQSvi7"], "asm": "OP_DUP OP_HASH160 6e3238a608e0089d44b536dd1cf2651b32f3f815 OP_EQUALVERIFY OP_CHECKSIG", "type": "pubkeyhash"}, "value": 0.01423467, "n": 0}, {"scriptPubKey": {"reqSigs": 1, "hex": "a91469f3762521295d4f011bb45c8dc51a67672dbcf087", "addresses": ["3BMEXgr32FGoxJ9djc1wfLAHteDUgGYt56"], "asm": "OP_HASH160 69f3762521295d4f011bb45c8dc51a67672dbcf0 OP_EQUAL", "type": "scripthash"}, "value": 0.01348169, "n": 1}, {"scriptPubKey": {"reqSigs": 1, "hex": "76a9142c538dcf7770ea5af6c44ba2c8889232394d5fb888ac", "addresses": ["153NpsVXKV3bwqxjeQGLfHQuzQ7EkcMnX6"], "asm": "OP_DUP OP_HASH160 2c538dcf7770ea5af6c44ba2c8889232394d5fb8 OP_EQUALVERIFY OP_CHECKSIG", "type": "pubkeyhash"}, "value": 9.254e-05, "n": 2}], "hex": "01000000020960afed3beeeaedae3b16575ef7fdfb05656f590c22b6ea4d78c0fe42440e83010000006a47304402207e9677aabd7cc08e9aa95a7ea6da6e0788599e4365d0f4688136a4097360d9fc02203b91cef965b56e87d1c701c1978ee85d564f753d2981eb118fd13cf29e38f98201210337c8e0ce9c85bfbd08fb4e7cace09159150ba5a1d11e68261003a5159484ab01ffffffffbe32ff2c63b9a2f393fd43d3f791169680f770cb5401e3d0a546fe71f2b5e8f1020000006a4730440220541140294f6fc913ed1a68e4e7a3dd53dd9b0d54fecc36f53102e6acf1da5d6702205468751ea55ef33b7f3c1465e091a0ad37fb833d5fcb15611af9d734b72dc686012103bb1f8fb9bfd4f01dafc7ddf115259a88f92fc305e6df48d3cb139c27e144566bffffffff036bb81500000000001976a9146e3238a608e0089d44b536dd1cf2651b32f3f81588ac499214000000000017a91469f3762521295d4f011bb45c8dc51a67672dbcf08726240000000000001976a9142c538dcf7770ea5af6c44ba2c8889232394d5fb888ac00000000", "vin": [{"sequence": 4294967295, "scriptSig": {"hex": "47304402207e9677aabd7cc08e9aa95a7ea6da6e0788599e4365d0f4688136a4097360d9fc02203b91cef965b56e87d1c701c1978ee85d564f753d2981eb118fd13cf29e38f98201210337c8e0ce9c85bfbd08fb4e7cace09159150ba5a1d11e68261003a5159484ab01", "asm": "304402207e9677aabd7cc08e9aa95a7ea6da6e0788599e4365d0f4688136a4097360d9fc02203b91cef965b56e87d1c701c1978ee85d564f753d2981eb118fd13cf29e38f982[ALL] 0337c8e0ce9c85bfbd08fb4e7cace09159150ba5a1d11e68261003a5159484ab01"}, "vout": 1, "txid": "830e4442fec0784deab6220c596f6505fbfdf75e57163baeedeaee3bedaf6009"}, {"sequence": 4294967295, "scriptSig": {"hex": "4730440220541140294f6fc913ed1a68e4e7a3dd53dd9b0d54fecc36f53102e6acf1da5d6702205468751ea55ef33b7f3c1465e091a0ad37fb833d5fcb15611af9d734b72dc686012103bb1f8fb9bfd4f01dafc7ddf115259a88f92fc305e6df48d3cb139c27e144566b", "asm": "30440220541140294f6fc913ed1a68e4e7a3dd53dd9b0d54fecc36f53102e6acf1da5d6702205468751ea55ef33b7f3c1465e091a0ad37fb833d5fcb15611af9d734b72dc686[ALL] 03bb1f8fb9bfd4f01dafc7ddf115259a88f92fc305e6df48d3cb139c27e144566b"}, "vout": 2, "txid": "f1e8b5f271fe46a5d0e30154cb70f780961691f7d343fd93f3a2b9632cff32be"}], "txid": "4954768e15280ba4036dcf603387e1ffa4f43f587c29f7dab0ac0f7557f2c904", "blocktime": 1537871767, "version": 1, "confirmations": 11494, "time": 1537871767, "locktime": 0, "vsize": 404, "size": 404}