{"hash": "d0a7c140047b82307b861b7418f57525fac4fe026fef4a114a974d34c830e11b", "blockhash": "000000000000000000205f8b0775d31398ef75b89a5e8ec8d2c57b4dc0ac4c20", "vout": [{"scriptPubKey": {"reqSigs": 1, "hex": "a914a65cb2328cf6441ab41a65e1bcd5d6f7fbe615e687", "addresses": ["3Grf92NQS5XaR1HWvAnEpyT1J4tNAef7GC"], "asm": "OP_HASH160 a65cb2328cf6441ab41a65e1bcd5d6f7fbe615e6 OP_EQUAL", "type": "scripthash"}, "value": 0.18266344, "n": 0}, {"scriptPubKey": {"reqSigs": 1, "hex": "a914eff24ffdc5a542d47ddd477af4e0733a864ac35787", "addresses": ["3PZjhZEPN6TRnbE91EiiJKT94iwPvzN28f"], "asm": "OP_HASH160 eff24ffdc5a542d47ddd477af4e0733a864ac357 OP_EQUAL", "type": "scripthash"}, "value": 0.31503201, "n": 1}], "hex": "01000000000103c2c48f22f3b47b5527a3f33211079a0a0b2f71ee41bfd3ef3c773966978cac0f0100000017160014676a0930751f1c9db735daca5be6b55e741e0f8affffffff4a4943f61f0b2f7ff7b43fcf503343cd1d2aa6088de78ddcf845a9363ca46d5c0000000017160014a2eb018f9a6f5eb58694d9038aa3a3db3e70006bffffffff91c6080489510a09abc5c45cc87f3fe39971b4743a25fbfb4d3afff3915a7f8601000000171600144e1fc8935ba383e95b16285fb5e08d227ba86b7cffffffff02e8b816010000000017a914a65cb2328cf6441ab41a65e1bcd5d6f7fbe615e68761b3e0010000000017a914eff24ffdc5a542d47ddd477af4e0733a864ac3578702483045022100a73a831329a402c29bad79db6336b1076f44497d139d6e2c7fd8244fc82d1a7d022023a171176a3da7e406bfd9e15c2e8a909ed490b2ad255f13519cc0e394b01a91012103431be1b3db3f55e310054fce490a34e520eb3dec8f837742420195ca0aee7bbb02473044022016a78344ac656e4802872c786206d562fb5a17e0ed02e95a8152d33eb3bb883902201d3bf21839071cfe017eef6a241fda2d4750fccf62e30bb88183cde49a4fdc5b0121031ae64cd677bc4f1f2699b671b44e85f9e61f1e2bf052bd925fa514cb566134c302483045022100fd3d62dd26aa0994372e491296db47b987635079cab068d55fa9a6eb26acb53802207880dce5cf0ed2b054be8572886299cef1d3fd018397b6bf087407d1a59cc0b8012103fc81cb4ea78550e57f08ac6c646fc2fcb9d449d12fc8609d223112d148e35a9100000000", "vin": [{"txinwitness": ["3045022100a73a831329a402c29bad79db6336b1076f44497d139d6e2c7fd8244fc82d1a7d022023a171176a3da7e406bfd9e15c2e8a909ed490b2ad255f13519cc0e394b01a9101", "03431be1b3db3f55e310054fce490a34e520eb3dec8f837742420195ca0aee7bbb"], "sequence": 4294967295, "scriptSig": {"hex": "160014676a0930751f1c9db735daca5be6b55e741e0f8a", "asm": "0014676a0930751f1c9db735daca5be6b55e741e0f8a"}, "vout": 1, "txid": "0fac8c976639773cefd3bf41ee712f0b0a9a071132f3a327557bb4f3228fc4c2"}, {"txinwitness": ["3044022016a78344ac656e4802872c786206d562fb5a17e0ed02e95a8152d33eb3bb883902201d3bf21839071cfe017eef6a241fda2d4750fccf62e30bb88183cde49a4fdc5b01", "031ae64cd677bc4f1f2699b671b44e85f9e61f1e2bf052bd925fa514cb566134c3"], "sequence": 4294967295, "scriptSig": {"hex": "160014a2eb018f9a6f5eb58694d9038aa3a3db3e70006b", "asm": "0014a2eb018f9a6f5eb58694d9038aa3a3db3e70006b"}, "vout": 0, "txid": "5c6da43c36a945f8dc8de78d08a62a1dcd433350cf3fb4f77f2f0b1ff643494a"}, {"txinwitness": ["3045022100fd3d62dd26aa0994372e491296db47b987635079cab068d55fa9a6eb26acb53802207880dce5cf0ed2b054be8572886299cef1d3fd018397b6bf087407d1a59cc0b801", "03fc81cb4ea78550e57f08ac6c646fc2fcb9d449d12fc8609d223112d148e35a91"], "sequence": 4294967295, "scriptSig": {"hex": "1600144e1fc8935ba383e95b16285fb5e08d227ba86b7c", "asm": "00144e1fc8935ba383e95b16285fb5e08d227ba86b7c"}, "vout": 1, "txid": "867f5a91f3ff3a4dfbfb253a74b47199e33f7fc85cc4c5ab090a51890408c691"}], "txid": "495766a18417f0d7004832bbb680cc469438c6df059781081a76bf729efee3af", "blocktime": 1537871175, "version": 1, "confirmations": 11511, "time": 1537871175, "locktime": 0, "vsize": 348, "size": 591}