{"hash": "49619a8ef078c7b1a3af587ab43f294f28cdf9c6e02779e425d350069702be64", "blockhash": "00000000000000000018f53835495a110e01622372bf6ae95dc86f2b0ab887b0", "vout": [{"scriptPubKey": {"reqSigs": 1, "hex": "a914b9ed69f887d4b139768135de2fec7d307081424187", "addresses": ["3Je7Lqq9fKPXTvHjvKP7McmthXC6UUgkc3"], "asm": "OP_HASH160 b9ed69f887d4b139768135de2fec7d3070814241 OP_EQUAL", "type": "scripthash"}, "value": 0.009341, "n": 0}, {"scriptPubKey": {"reqSigs": 1, "hex": "76a914f1c2449d57d80593836db33cfa025d94fa96832188ac", "addresses": ["1P3JaDC8GxiDBHUMcGqfxhRRagJPP62hC3"], "asm": "OP_DUP OP_HASH160 f1c2449d57d80593836db33cfa025d94fa968321 OP_EQUALVERIFY OP_CHECKSIG", "type": "pubkeyhash"}, "value": 2.45564345, "n": 1}], "hex": "0100000001dac32b801c7661a5fffd6220d7d444684aa3fd17898b10731003fc213c839ec2010000006a47304402206a1eeea9d8d29a3874b8b08f7e24a7398871e8b13220c0ff58524df8c62241a10220379602b01a653a3a44741b7263a20d50a250b4cb85e80e15c08468d34d33a7ef0121023503ebc22ec212d736ec4e23adf65d3fc45feb7814524d485a4a5173e401eb5effffffff02d4400e000000000017a914b9ed69f887d4b139768135de2fec7d307081424187b903a30e000000001976a914f1c2449d57d80593836db33cfa025d94fa96832188ac00000000", "vin": [{"sequence": 4294967295, "scriptSig": {"hex": "47304402206a1eeea9d8d29a3874b8b08f7e24a7398871e8b13220c0ff58524df8c62241a10220379602b01a653a3a44741b7263a20d50a250b4cb85e80e15c08468d34d33a7ef0121023503ebc22ec212d736ec4e23adf65d3fc45feb7814524d485a4a5173e401eb5e", "asm": "304402206a1eeea9d8d29a3874b8b08f7e24a7398871e8b13220c0ff58524df8c62241a10220379602b01a653a3a44741b7263a20d50a250b4cb85e80e15c08468d34d33a7ef[ALL] 023503ebc22ec212d736ec4e23adf65d3fc45feb7814524d485a4a5173e401eb5e"}, "vout": 1, "txid": "c29e833c21fc031073108b8917fda34a6844d4d72062fdffa561761c802bc3da"}], "txid": "49619a8ef078c7b1a3af587ab43f294f28cdf9c6e02779e425d350069702be64", "blocktime": 1537870928, "version": 1, "confirmations": 11512, "time": 1537870928, "locktime": 0, "vsize": 223, "size": 223}