{"hash": "e20ce761da24779fe9f3f4665ed30230b2dd4e3214af4cd6f704f62c24ace539", "blockhash": "00000000000000000004ffacab907a6b429b9a5745fa0b75af4234bf69dd7176", "vout": [{"scriptPubKey": {"reqSigs": 1, "hex": "a9147077d2fdc2a68810cc8998b965f1b929d7f6650787", "addresses": ["3Bwh9ZNwG67S1vaP8W4yhG66GFiuBaF1aj"], "asm": "OP_HASH160 7077d2fdc2a68810cc8998b965f1b929d7f66507 OP_EQUAL", "type": "scripthash"}, "value": 0.00959111, "n": 0}, {"scriptPubKey": {"reqSigs": 1, "hex": "a9140d6dde2413da198abd0dfea1ea03e7fcad10b17387", "addresses": ["32v2KnJGxCPcFVLeCAWMvxPi1bjRDcu1C9"], "asm": "OP_HASH160 0d6dde2413da198abd0dfea1ea03e7fcad10b173 OP_EQUAL", "type": "scripthash"}, "value": 49.0, "n": 1}], "hex": "0200000000012708fcdfa7a185e1418ae9469db869f2268ecbed58db43d57933294dec777a192b05000000171600147e0d4f58f84ebe33417c511e68cd4fa36cdcf898feffffff0cde4abe54d2ba4bfef548cc8884bfc5002a919ed5959672e6f7f86b47cf7f400f000000171600148b5ca70a08e6ef751ae5dafc8f40165fd4060fa8feffffff0d3988778ebde01363f3fa7c70a733a355ccbdc3a18283761612b2fd05d24f230a00000017160014565653e99688d9c260985e12cc6f0f8f0cda1034feffffff0d53be435bb22f2d8c44475d3fa0bd948454c24c31ef386b71b3f20b3169299100000000171600144dae5ed41f6df0fdc74c842a4ee1f2f2e383ebbefeffffff0d649ec576bc252c7d57325cd8d30107bb5525eca313b551baf1bc4108777de200000000171600145d7a6ec669c429f65bc0687d3da54e43271c789efeffffff11076c1b5d905ecad266e4ccd02094da6f3911b3db31eeca8f34370deb2dbf010a0000001716001458d881a992d1772f11a3878211256590221ab833feffffff19c9f7d290238db725c28efaa560350a557385fde5e139219a522f80b83e37d80800000017160014f7d04950f9f182b8fd90eb92c1dac3c88d90b98ffeffffff1b21c32abe21e52854717991d805cba6b7c115f52c6cdbf99b614adef14babca01000000171600148dbdf0fc2dee240d3d13bb66bfa5486120e6b3a7feffffff1ca655a2241a4fad7f724e6266d812f82dbc8362174f49184a88a38aa16d5a69010000001716001439554517d3bd2f3199237de12516d04012da8b39feffffff265cdd7c1c24c2ce6299d55b287f543e923817e80c53bf122f43382273309a5a520000001716001481e146caa2ca14d640079b2ac2390116a02844e7feffffff2750163223eb145c8cb21a62de0f87d44c5f9c3def1f36a0f30c6178c2bca1fa0704000017160014a3d345d771131173627d5bb6ae7ded4437255a21feffffff29545d34d84c89ab40851843d48d29dea5c510868987fec44e2fbddffcf71c3305000000171600149b8eb2a27f47c391148dc8d4b4986ea5df268c38feffffff2f2d2c6a502112af60efeaa3547dad3b124962ce8b3480c1aeb5e8e7c9ff4eee64000000171600141fe203763880d4d9c99ecbddcaaacb1d0f326861feffffff2f4d39eebc04181719fca3b1aecabf79f37627d0fb11626c4e476fbcdb91580500000000171600149eaf30c93b0a5ab68148eb51f35d9144e01b2f3afeffffff373fadf6a773486fcac41bc1cee44fa6dbe48fe34f8d887cb875672a172f7c880000000017160014ec555906e71dd565de012c13fca8653ead4ddd56feffffff3afd3270f3479ffe0c4a5a19f541a36b81e896a2bf8ced1212495d869d0ea7640000000017160014771f3bba313ebd30ba63ea0fdc7f7af880eaead3feffffff62b2b1c2cf9e1fcf3a732964029f466ebd49b721acb0ba1ee456ad6c2bc9090c0000000017160014e493a4115dc8f8ae1d8d6680ce7cac1ce8526c6bfeffffff68b0bba2cfc3d7fa1ae1cf766a5ad29fa2afea46a0b7c558a97a7877a98e5d3d0300000017160014c8ad781f6890e8a0acf77b0ede87e868c58434f5feffffff6aacf7bbc31da49ff314c79c29ab74027716ed8e2d2ff4ecbe0f040399eeef680700000017160014818c69420c61ebafb5388c0e395f45962e790711feffffff727430b31c6637e7744b8c0343abf787209a1bf89311974bc37d9c03cd6f366f3900000017160014ffc7332499d667c6c6101383a67c36f8e15660c3feffffff72d8e9084e99bf1d8f9564ee94102303d83d450978f38257e6a69d55af7162cd01000000171600147c8b08fa721ce91a4f21d833e132d0cc07fc195ffeffffff946c11300541281daa27504fcaaf4e9280ad5fe9379fd572ced0220d6bd8075d0800000017160014fed48095196d82eea9d864095076fe9817ecb914feffffff97a191367e204e7ae1add2eaaa56091c4f703682b553eaa0512ee0fbf510d6b42f000000171600140590354f05f3ca7001ceaee5fd62bb0f30ed300afeffffff9cf3bda7319f799bf7f2d958640c1124c37f61ed741c9f4f0fd6ddb926160e670000000017160014572ae25d9155e48d54d346b137fe31e35fb825effeffffffa09278c7d1278fee91b21af1d1e86f5228a94ca7535db5edf861733fc9de6971010000001716001472724530cc88bd2c7bf33ac3e1c6cbe2bc79dc75feffffffa170b45b16d816af4c214878c748bc0f6060325f3ff0221edc002d42853ebdfe07000000171600149eaf30c93b0a5ab68148eb51f35d9144e01b2f3afeffffffa9a10569cf480eb7e1112183390105e9f95a54ea8cc00ac166ef5e9b7773560d4700000017160014106ab94a0e84cde538f90e86472ef38c9272f762feffffffb1a00a3274a2ca6b79c2867732ae3473a46f260baa66e18acf777eeae2c52e2e01000000171600148cb7ef123c4fed5a5d8ff4e11bdd1ad9376a6167feffffffb41c843e27f5fb428b40e4ec26b178a8dc98a6261707b657836f801eb24ed1b51700000017160014434553a86affadbd4cf0c2fbb4eed0a2529141bcfeffffffcd918ffe4fdd837feec5f577cdc8f5f7d0dcca106543e4e93a8ccb6ac912f23f0000000017160014afe6469d1f568a5bc4bc0269cf83eb9aeee9edeefeffffffd20dfc2729c71781cb6303471249e92996e152bf0ec33f8f125b484d45cd0828040000001716001494249287789842046b700a2c8612b52e57a8ef11feffffffd25b90341e09880cc43211cc30d6a41f2ba9bb792981216779eb0540a4e5f0fe120000001716001407b5f7d05a2a1710e990198d90df5bf33d860bc9feffffffd621a11c436633e56e1256d718191b98d34bea3f5de8fb1750eb4f3858959fb50000000017160014a5d7a0722b9c4201f7e484fe2f63ac4f368fae06feffffffe5161c00544cce7baa3ae3c24c62abb96636d33b5b85805885bbac910377a586010000001716001456513d0919f65b40dfa03c184ac561a52fc4661ffeffffffe90dc78cd0f39851acf16136847ad4dffb8d0a2b49f93b49f7c27a02289e0fa004000000171600143e81f9b94198e5a54e17abd07ab369570fd09552feffffffee2334214da82beeb3082e04ccc3e328ceeec2622aa2759a1c4d7b10172293471200000017160014f6c14b3987dea45402a7a9a0b865d516a92d80defefffffff91f232a59d4bdc175c8222a959ef1bcf76f97c1b29b295f125ac76098ff827b2c000000171600140ebda9ab40a3ea29184b81df535d20bfded0cd1afefffffff95b92e1c419368523a6affc8cf6c7f89e9dd2d198640650d2727d42f370604c000000001716001484b1be443abfe11216204b7cf48e9c9551e28172feffffffff52ab3b83145984114a175b5ea9317a72e890fe902232ab0a0a35cc57d20d95000000001716001438060fac042b7e422735dbfb8bd664f49f1bea6ffeffffff0287a20e000000000017a9147077d2fdc2a68810cc8998b965f1b929d7f6650787001110240100000017a9140d6dde2413da198abd0dfea1ea03e7fcad10b17387024730440220257c822cd3430ae9b6bb668d6de29dd6c4f369634c0bf2f4533c91eeb2269bdb02204366490316d42992ec068cda3e7a979754589199e9ae2f7687dac198b35a7088012102096a46b464871a5561a7397b12cc082a84de9acca579dd6aee32490d69e16e210247304402200d1c32a724485de3a49c89ce1b2ddbc6d0df7cdb5d2de891ddabc0379cebc69102202bd508dc66208c98ffd7e27efc8a38eacd8911aaf975a26796b08bd504ebf723012103fb33d9fb0d2d4da407b29cf1c95352991bbc750525a1b16077907cba18cbc4630247304402204738a37168e4112158966ef2484a3176d7d2d23c38220359af0aea2a1d23ec190220472db49e884c7800fa60cb93b9bdb5df23de819ec77d8e20bedcca86db05344a0121023acdd73719c772edd8739f6bf2a3a34cd1a08c9aea946c982118dbd5e437edad024830450221008d6642d17c6410e2ad45712ff606b35388f4275b25d1d913d6cd0e05f2d2bfc60220201b1870182a8bbd267b2b65f288576d9bc4b183d6c56c66d2dea2b91bd598f6012103dcd37c468d522df934990d7ecb18da72a70d2059b181d5f6b2f28cbf78d247fa024830450221009459a8cc7bd7fe3ba11028da92cd7bb2c025999985129caf06bf64458b86a15d02204382ad4538ae8c30722dcd748b9d8cc94e98022ab8794bf7e9de03b9c58ef2090121027b277f69f9b0470cfa1ad6be1af6b9bee4c3e8bd3e293d7734c4a6b1d26480df0247304402205a520175d0a47c650ff5ad1bcb73c6f5bb246b1f7cd6c0542a6b9427516fa9d202205f3dd01fbd575e2bcb1745fbfb427fc8ef4f92a01209d7094fff6559b3e180e10121032d354e7faac5a85a97aa50663b8837a2e2ad5abaaf18abad05846b4f6fccc6200247304402205ae04a898ff819b5f080b3c8cea9ebda9f4e9396aaba371cded292d6cb13cfbe0220763cda288f5ae18800610bbdaedbb19d4bd9ed75a7b7df3834da5ccc36585661012103dc555ea9993f0fbc6ecb9f9b3093ad01142615a2a2a1bfbccb535499ee57233c02483045022100db59a7f4b42aea107216a54873d801ec82a96630abee5d6215e05e30a5b2b7f80220422a9a0447ad15d1f78346f84b3fb4aab39bd6a78529e2977e67fa75b51fdbf7012103fd9960eae83876ce6952419d927b16995223dc22c8ee258cc5758520239bc4e402473044022025e3f596abde51ac2e0f17a7f60c55013800f906261f8afddd27322a7046c74502201a374e030c1a53470ac2aefa8fd4effb6bba7d95d8b868c62ad86736d0c72575012103405a1c52b7d51db625eb599b3166bbd6ca1a0a6222a4f50965b41ac908057e70024730440220465248b4e599fd04ec1159d748b3c20d884648e140f489e544a940b79fca9fe7022023ab500faee5f3120b5b11e923d5dd4da6efdb23b198b08b8b4ff8005c625800012103ac26e273238dd7a72e70ee5f10c2c75cb01df9889dc7b3081a12bf8a32df945e02483045022100c9446d232ab114e8f4f342ac5c1c756d297145fa601e37efdb3458877dfd846502204490a36f7a27234888f2340cd59975969ce3199c5a83e4e529b873fadec65246012102d8d2fab084795e28cfa8f8f657db7240910a4dfae6f53f3124913f7766be857d0247304402205a5d868e2c20e6ca605f9ffecdf43c0ae77dbf206d52ee647d4e209ce6a5454802206f54127c7ec6acd4eacec8e9308f3c8ce351b3a737f235fc159b2ee53fb367da012103ad1db3fe3fe0cd552dccd8d587c0a9644e0e33d03aba1b480a1a1d55a80252f702483045022100e5dbbc20950285e8d5afb78e09efda0355bb8e2e64e51a8c02109838bd0426fe02204d5b672e197a2d477c8890e1597598d67013c16f18289ff334c831959da5ff200121029480aaac6d482e40efd50430945dbc74bf0d86664c64ec2b6a10b37cfe2a416902483045022100df5bce3b2b772b7e6ba0cbea34a472a7900f6f008ecdb8766af1d4b3b8ba013e02203e3169df51f2b64c61b32a4715cf074ec74efbda779e977ccc503938961f6ae8012103aa65b7cc3ff91ee305782cb96459bbc437cf99daf707bb50ffc59bce107cd69702483045022100e50db814e964dadfd7965a7b838e834e733c05ca860e4bb3853a52f8109d57c2022070f26adaf0291e8064c68c6eb9f5c2173aa4e431889eeec09d865b5f94809ef4012103985756e4f70ef4ee87a1a0dee1ea6cb9852c187ded1d679b93f983af7c78130302483045022100f4aa893c786eeb0d0e0e419991814f5328454f874ed239fdb91772b5b350d15d02200345f2c8bd71bbfcc3ebd6118d2656cc263c8ff0c36db813b6a3aa481095244d0121025dd49e5cd7827f64ed67dd7949103fa01e4e11731f7ddcd9cc4e9931b50c75f302473044022062920ae49f3f59947392a868bbd8b6aad7b2bc289d1191eb0eef46fb4d0f18ef022027046b7587ceeed1af73e5d8d9cf4af8f2f35d82092c15445920a72e162722130121027aaad315a651de5c5b0aafd081d330dc687eb459b92719b65d0d1cba537faf0802483045022100f8ebc127b0c312fc8067143604fccb681260fa9a435b423fcd8cffcdefb538fb0220637ac7d4799f4a7d045044bdce9021086f8fa8dfe160b19ef19f94201a9452d2012103ac14047f028a4f775f12127ccb57c77636925885103b423b537e28214f76294102483045022100ce66a5d76f503e038ed8b92082861a176ce22069b27daa1756b0d90dfcc5a888022047cb38eda4f4dd8d4270550cf02ccc8b88e82f91b2f133c68554f2c6f5358d0b01210290b3ce1d86736fa1dd7fbd95a694979930acaaad9646c452d3bdafe4faf4042902483045022100a556a3cd15b784d175d313835aada239eb5a0a9a562dd9897cc18b2c62fb2eea02200d23ce8273aa0b8b59481f2d161dc4b8274c00b6c8bf607960abff34a7ef329c012102dc88b125273baa6ef0e1249d8a432dcaa1bafeb4d8faf0769b06f676fe23de070247304402207790f0d71c5b64014dd9a7999ecb00bf6464250835a012bb485e0499d23f97cc0220465c0893dec5be91f5be26faebeb5a861a03d5a2c7e2807c90a09807b2ab6d75012102df8723328551f1546ca504e6d23d723dafc8f658c74b491efc7f589aa93b219f02483045022100e1d3baaf9e098bee72936c4e96e726f599c783a9ddb07cab0162c45a42796e5b022059080e0cb7014da49cdc9a7469b7651a6eab3cb4f4a2c2436a1ca838cbc67de20121026b5855b7ae872ec62ad9d6e7c8f125b269807987a0185e25f7e035e191d58d1f02483045022100d700183f94d76aa71498fc449892d0f8bb929b1d5ec986ffda6c7a988682cb6f022034d9b09b68b217be378ccf228c76bb270425a4b6f6456f4350d4a87a963ff8c5012103d94515fce72c05a4858f654dd1bd9d45856e571b2215134cb727dc8e08c006b002473044022013dadf0a8439f7cc91fb03e73ddfc95069df562e46db4ddb8b43f80494dad0cb02201792c721e1db842c4fd2e25031934318302b94b2e73f13745d6025ac4b5aef900121021fd9eb3d40b44379ced7fef5f31f29cffb5e80e8230a2a99cb4508dcec4ee1bc0247304402206f5d2fbff3d5ecf83b6158d7a75c188be1066ff045460738f6793b80b30f565102202af01f997673cc6e20e1b695f93baf466d06610a34023248aa1648a97ce33f10012103e83aa400d5896d136cec063eba4f9fae905fc5e0475bb3c1d81ec5e76a8ceb030247304402201bd92c8e4bbea2ab7d2355803c45e600587f9604056b715e12a5658d78ad110402205c26917802e94ebdc3102ba02fa009e4a077c64ec67d831897eb7154984b0356012103aa65b7cc3ff91ee305782cb96459bbc437cf99daf707bb50ffc59bce107cd69702483045022100ddad6f12cf07f93158486ac0d3b2c55a4440988c913a3a2f4e163fc13b00c62d02200e47dbe2e0624cbca45653e98f3bc84c57015ea1cc453544cbbd214d67277e060121031dfa5846d72635b0d98dbf91581ea9a33eb2af7ed6cdded84d36fdc4cbb3ddf4024830450221009a7edb5a64589c1a9863f14d2be946bc1169df342bc3dcf5b6b573bfd8807c370220086e1dc6e6e774ce3802562992d0d4b9d093d86568a02357d3f5f802b7063601012102e13d42305d463df6b614aadfa1af628d6bca0253f794527698be2aa51835f01402483045022100da27a1c7144ee9db2f600c327d9421a86970f4f2473f8f0b8f2a96ecdd49dffb02203e7ecefdae4357bc65cab2426b9d8d963db422591c3a07e440c5ba1cab1e04550121033e27877ef6d4c69cfc7b9cef433121064834469fa65785bf01c0d9cd6b5c6abc02483045022100bd7a1697e0ac41523461dee6568caf007c2d07e071e8c128783092cf3d2638980220192f25d0eaa60bc0e862a80b07f3b15f75d5127f116958d0cf0ca479df4b7f7d012103b9cffec4409d3c52b4e27d1f9456477bf476b62ac04151acfd0f1d08dccee3b902483045022100fcaacab2e3784321d7e22a2c5a1e1d1e4ace69b4054ebe197381a8ada54f8368022071544902e60710c8f6751b0c6861c7312d8ae9140dad269043fd42603ee49d16012102d5a6267232c954a482e57aeca58bed344cedbda39bfb344212cfbc223530135f0247304402207b2b4882c59159280267f00df3c9234fbe6af9894f59bb6e861e1f3f941b14180220253dad5c48c26258e1f80fe78cfea1c1b3dc4120eb1b490a584c9eebaac846530121033f082a7ba5488def9c904890c58ef4d6c68ce7158ee9bd9dbefb989a6f385b5a024830450221008cb0e8731d6e5d476a11bc57832a8b81aca75407315f1eeca664feb7e50651af02207f1fc683beb4f01bcf0bdcfad9f660e70f754e5df9dfc225e2f3ce554fc5841a012103bfce95b9498a4cc39ef6d7f51655d39d54eb3bc6c68371ba51073e01fe47afe40247304402204aed84ded835fa1267ed8f137d38a9431efafe7c5dc4a08aca872cbf9e74c0af02200eba835d34d102cdd0d28efbbca68c0bcb84d2de119e244b3e8a2e648b0a4ca4012103590e6c57a6cdd0dfa88be3fa6ded1c53aad1f809f39bbe93c2d24a61d6d405aa02483045022100bb5b33c27b7c13759e326f9d4243ca9efec23f826f365f52d0d06837bef08ae2022042cbcb36ce78a52e79b6abae7163e35c6f87abab22d35a67a8964b52a24be13e0121033ef83ee3a8de0dbd2ba6226836670f0b786acbfb5a83737eebde695ead037e66024730440220120efd1d760a220f8c789d8c70e93f9e37588d275b2708d18476e56777e270c402207caa0bf15af294f8ffaec90212fce7164414b591fea8827c19aed356afac2dac012103c282ded07fcd77c9c001c249d969ebf50b99d32e9a27e05335d57e5ceaad1a7802483045022100f5f4250713f87c3a52f9d9ded7c485aad462cdbb10f54dea1204b3d1b28f87a90220568fc6020e6283939a9a71c7abe9fc0f41f3748b357951a1c4c0d9c56d2329ba012102cac340b8427d587d51b23eccda9d5b615698d55bdfaef0e7566ef57d25e4a8e202473044022075f8ac7a0ebd1393251b38a4c0ce3c2a44fbac42844f6a193f02bde2286c795a022076046541dd7aa20dc7155f00b47810a68e258a626b45ef61ff3d3f349c8796f0012103d8e3af65a8ab90d6ef665b2062dbce2c25384920d7b8fe31d4acc9ae94fd0f31024830450221008c4f9cc5d217dc81f3b4c34a2632986b65e7fd850745084b082af2661609b35b022013aa3f9c1625eca779f55d4921085ef69c1f645cea429bb17df87b50c768f1c7012102b69886b1a9273b3e69deb4a1e39e5479a5452ff420f93558062f3d0cca763c1116490800", "vin": [{"txinwitness": ["30440220257c822cd3430ae9b6bb668d6de29dd6c4f369634c0bf2f4533c91eeb2269bdb02204366490316d42992ec068cda3e7a979754589199e9ae2f7687dac198b35a708801", "02096a46b464871a5561a7397b12cc082a84de9acca579dd6aee32490d69e16e21"], "sequence": 4294967294, "scriptSig": {"hex": "1600147e0d4f58f84ebe33417c511e68cd4fa36cdcf898", "asm": "00147e0d4f58f84ebe33417c511e68cd4fa36cdcf898"}, "vout": 5, "txid": "2b197a77ec4d293379d543db58edcb8e26f269b89d46e98a41e185a1a7dffc08"}, {"txinwitness": ["304402200d1c32a724485de3a49c89ce1b2ddbc6d0df7cdb5d2de891ddabc0379cebc69102202bd508dc66208c98ffd7e27efc8a38eacd8911aaf975a26796b08bd504ebf72301", "03fb33d9fb0d2d4da407b29cf1c95352991bbc750525a1b16077907cba18cbc463"], "sequence": 4294967294, "scriptSig": {"hex": "1600148b5ca70a08e6ef751ae5dafc8f40165fd4060fa8", "asm": "00148b5ca70a08e6ef751ae5dafc8f40165fd4060fa8"}, "vout": 15, "txid": "407fcf476bf8f7e6729695d59e912a00c5bf8488cc48f5fe4bbad254be4ade0c"}, {"txinwitness": ["304402204738a37168e4112158966ef2484a3176d7d2d23c38220359af0aea2a1d23ec190220472db49e884c7800fa60cb93b9bdb5df23de819ec77d8e20bedcca86db05344a01", "023acdd73719c772edd8739f6bf2a3a34cd1a08c9aea946c982118dbd5e437edad"], "sequence": 4294967294, "scriptSig": {"hex": "160014565653e99688d9c260985e12cc6f0f8f0cda1034", "asm": "0014565653e99688d9c260985e12cc6f0f8f0cda1034"}, "vout": 10, "txid": "234fd205fdb21216768382a1c3bdcc55a333a7707cfaf36313e0bd8e7788390d"}, {"txinwitness": ["30450221008d6642d17c6410e2ad45712ff606b35388f4275b25d1d913d6cd0e05f2d2bfc60220201b1870182a8bbd267b2b65f288576d9bc4b183d6c56c66d2dea2b91bd598f601", "03dcd37c468d522df934990d7ecb18da72a70d2059b181d5f6b2f28cbf78d247fa"], "sequence": 4294967294, "scriptSig": {"hex": "1600144dae5ed41f6df0fdc74c842a4ee1f2f2e383ebbe", "asm": "00144dae5ed41f6df0fdc74c842a4ee1f2f2e383ebbe"}, "vout": 0, "txid": "912969310bf2b3716b38ef314cc2548494bda03f5d47448c2d2fb25b43be530d"}, {"txinwitness": ["30450221009459a8cc7bd7fe3ba11028da92cd7bb2c025999985129caf06bf64458b86a15d02204382ad4538ae8c30722dcd748b9d8cc94e98022ab8794bf7e9de03b9c58ef20901", "027b277f69f9b0470cfa1ad6be1af6b9bee4c3e8bd3e293d7734c4a6b1d26480df"], "sequence": 4294967294, "scriptSig": {"hex": "1600145d7a6ec669c429f65bc0687d3da54e43271c789e", "asm": "00145d7a6ec669c429f65bc0687d3da54e43271c789e"}, "vout": 0, "txid": "e27d770841bcf1ba51b513a3ec2555bb0701d3d85c32577d2c25bc76c59e640d"}, {"txinwitness": ["304402205a520175d0a47c650ff5ad1bcb73c6f5bb246b1f7cd6c0542a6b9427516fa9d202205f3dd01fbd575e2bcb1745fbfb427fc8ef4f92a01209d7094fff6559b3e180e101", "032d354e7faac5a85a97aa50663b8837a2e2ad5abaaf18abad05846b4f6fccc620"], "sequence": 4294967294, "scriptSig": {"hex": "16001458d881a992d1772f11a3878211256590221ab833", "asm": "001458d881a992d1772f11a3878211256590221ab833"}, "vout": 10, "txid": "01bf2deb0d37348fcaee31dbb311396fda9420d0cce466d2ca5e905d1b6c0711"}, {"txinwitness": ["304402205ae04a898ff819b5f080b3c8cea9ebda9f4e9396aaba371cded292d6cb13cfbe0220763cda288f5ae18800610bbdaedbb19d4bd9ed75a7b7df3834da5ccc3658566101", "03dc555ea9993f0fbc6ecb9f9b3093ad01142615a2a2a1bfbccb535499ee57233c"], "sequence": 4294967294, "scriptSig": {"hex": "160014f7d04950f9f182b8fd90eb92c1dac3c88d90b98f", "asm": "0014f7d04950f9f182b8fd90eb92c1dac3c88d90b98f"}, "vout": 8, "txid": "d8373eb8802f529a2139e1e5fd8573550a3560a5fa8ec225b78d2390d2f7c919"}, {"txinwitness": ["3045022100db59a7f4b42aea107216a54873d801ec82a96630abee5d6215e05e30a5b2b7f80220422a9a0447ad15d1f78346f84b3fb4aab39bd6a78529e2977e67fa75b51fdbf701", "03fd9960eae83876ce6952419d927b16995223dc22c8ee258cc5758520239bc4e4"], "sequence": 4294967294, "scriptSig": {"hex": "1600148dbdf0fc2dee240d3d13bb66bfa5486120e6b3a7", "asm": "00148dbdf0fc2dee240d3d13bb66bfa5486120e6b3a7"}, "vout": 1, "txid": "caab4bf1de4a619bf9db6c2cf515c1b7a6cb05d89179715428e521be2ac3211b"}, {"txinwitness": ["3044022025e3f596abde51ac2e0f17a7f60c55013800f906261f8afddd27322a7046c74502201a374e030c1a53470ac2aefa8fd4effb6bba7d95d8b868c62ad86736d0c7257501", "03405a1c52b7d51db625eb599b3166bbd6ca1a0a6222a4f50965b41ac908057e70"], "sequence": 4294967294, "scriptSig": {"hex": "16001439554517d3bd2f3199237de12516d04012da8b39", "asm": "001439554517d3bd2f3199237de12516d04012da8b39"}, "vout": 1, "txid": "695a6da18aa3884a18494f176283bc2df812d866624e727fad4f1a24a255a61c"}, {"txinwitness": ["30440220465248b4e599fd04ec1159d748b3c20d884648e140f489e544a940b79fca9fe7022023ab500faee5f3120b5b11e923d5dd4da6efdb23b198b08b8b4ff8005c62580001", "03ac26e273238dd7a72e70ee5f10c2c75cb01df9889dc7b3081a12bf8a32df945e"], "sequence": 4294967294, "scriptSig": {"hex": "16001481e146caa2ca14d640079b2ac2390116a02844e7", "asm": "001481e146caa2ca14d640079b2ac2390116a02844e7"}, "vout": 82, "txid": "5a9a30732238432f12bf530ce81738923e547f285bd59962cec2241c7cdd5c26"}, {"txinwitness": ["3045022100c9446d232ab114e8f4f342ac5c1c756d297145fa601e37efdb3458877dfd846502204490a36f7a27234888f2340cd59975969ce3199c5a83e4e529b873fadec6524601", "02d8d2fab084795e28cfa8f8f657db7240910a4dfae6f53f3124913f7766be857d"], "sequence": 4294967294, "scriptSig": {"hex": "160014a3d345d771131173627d5bb6ae7ded4437255a21", "asm": "0014a3d345d771131173627d5bb6ae7ded4437255a21"}, "vout": 1031, "txid": "faa1bcc278610cf3a0361fef3d9c5f4cd4870fde621ab28c5c14eb2332165027"}, {"txinwitness": ["304402205a5d868e2c20e6ca605f9ffecdf43c0ae77dbf206d52ee647d4e209ce6a5454802206f54127c7ec6acd4eacec8e9308f3c8ce351b3a737f235fc159b2ee53fb367da01", "03ad1db3fe3fe0cd552dccd8d587c0a9644e0e33d03aba1b480a1a1d55a80252f7"], "sequence": 4294967294, "scriptSig": {"hex": "1600149b8eb2a27f47c391148dc8d4b4986ea5df268c38", "asm": "00149b8eb2a27f47c391148dc8d4b4986ea5df268c38"}, "vout": 5, "txid": "331cf7fcdfbd2f4ec4fe87898610c5a5de298dd443188540ab894cd8345d5429"}, {"txinwitness": ["3045022100e5dbbc20950285e8d5afb78e09efda0355bb8e2e64e51a8c02109838bd0426fe02204d5b672e197a2d477c8890e1597598d67013c16f18289ff334c831959da5ff2001", "029480aaac6d482e40efd50430945dbc74bf0d86664c64ec2b6a10b37cfe2a4169"], "sequence": 4294967294, "scriptSig": {"hex": "1600141fe203763880d4d9c99ecbddcaaacb1d0f326861", "asm": "00141fe203763880d4d9c99ecbddcaaacb1d0f326861"}, "vout": 100, "txid": "ee4effc9e7e8b5aec180348bce6249123bad7d54a3eaef60af1221506a2c2d2f"}, {"txinwitness": ["3045022100df5bce3b2b772b7e6ba0cbea34a472a7900f6f008ecdb8766af1d4b3b8ba013e02203e3169df51f2b64c61b32a4715cf074ec74efbda779e977ccc503938961f6ae801", "03aa65b7cc3ff91ee305782cb96459bbc437cf99daf707bb50ffc59bce107cd697"], "sequence": 4294967294, "scriptSig": {"hex": "1600149eaf30c93b0a5ab68148eb51f35d9144e01b2f3a", "asm": "00149eaf30c93b0a5ab68148eb51f35d9144e01b2f3a"}, "vout": 0, "txid": "055891dbbc6f474e6c6211fbd02776f379bfcaaeb1a3fc19171804bcee394d2f"}, {"txinwitness": ["3045022100e50db814e964dadfd7965a7b838e834e733c05ca860e4bb3853a52f8109d57c2022070f26adaf0291e8064c68c6eb9f5c2173aa4e431889eeec09d865b5f94809ef401", "03985756e4f70ef4ee87a1a0dee1ea6cb9852c187ded1d679b93f983af7c781303"], "sequence": 4294967294, "scriptSig": {"hex": "160014ec555906e71dd565de012c13fca8653ead4ddd56", "asm": "0014ec555906e71dd565de012c13fca8653ead4ddd56"}, "vout": 0, "txid": "887c2f172a6775b87c888d4fe38fe4dba64fe4cec11bc4ca6f4873a7f6ad3f37"}, {"txinwitness": ["3045022100f4aa893c786eeb0d0e0e419991814f5328454f874ed239fdb91772b5b350d15d02200345f2c8bd71bbfcc3ebd6118d2656cc263c8ff0c36db813b6a3aa481095244d01", "025dd49e5cd7827f64ed67dd7949103fa01e4e11731f7ddcd9cc4e9931b50c75f3"], "sequence": 4294967294, "scriptSig": {"hex": "160014771f3bba313ebd30ba63ea0fdc7f7af880eaead3", "asm": "0014771f3bba313ebd30ba63ea0fdc7f7af880eaead3"}, "vout": 0, "txid": "64a70e9d865d491212ed8cbfa296e8816ba341f5195a4a0cfe9f47f37032fd3a"}, {"txinwitness": ["3044022062920ae49f3f59947392a868bbd8b6aad7b2bc289d1191eb0eef46fb4d0f18ef022027046b7587ceeed1af73e5d8d9cf4af8f2f35d82092c15445920a72e1627221301", "027aaad315a651de5c5b0aafd081d330dc687eb459b92719b65d0d1cba537faf08"], "sequence": 4294967294, "scriptSig": {"hex": "160014e493a4115dc8f8ae1d8d6680ce7cac1ce8526c6b", "asm": "0014e493a4115dc8f8ae1d8d6680ce7cac1ce8526c6b"}, "vout": 0, "txid": "0c09c92b6cad56e41ebab0ac21b749bd6e469f026429733acf1f9ecfc2b1b262"}, {"txinwitness": ["3045022100f8ebc127b0c312fc8067143604fccb681260fa9a435b423fcd8cffcdefb538fb0220637ac7d4799f4a7d045044bdce9021086f8fa8dfe160b19ef19f94201a9452d201", "03ac14047f028a4f775f12127ccb57c77636925885103b423b537e28214f762941"], "sequence": 4294967294, "scriptSig": {"hex": "160014c8ad781f6890e8a0acf77b0ede87e868c58434f5", "asm": "0014c8ad781f6890e8a0acf77b0ede87e868c58434f5"}, "vout": 3, "txid": "3d5d8ea977787aa958c5b7a046eaafa29fd25a6a76cfe11afad7c3cfa2bbb068"}, {"txinwitness": ["3045022100ce66a5d76f503e038ed8b92082861a176ce22069b27daa1756b0d90dfcc5a888022047cb38eda4f4dd8d4270550cf02ccc8b88e82f91b2f133c68554f2c6f5358d0b01", "0290b3ce1d86736fa1dd7fbd95a694979930acaaad9646c452d3bdafe4faf40429"], "sequence": 4294967294, "scriptSig": {"hex": "160014818c69420c61ebafb5388c0e395f45962e790711", "asm": "0014818c69420c61ebafb5388c0e395f45962e790711"}, "vout": 7, "txid": "68efee9903040fbeecf42f2d8eed16770274ab299cc714f39fa41dc3bbf7ac6a"}, {"txinwitness": ["3045022100a556a3cd15b784d175d313835aada239eb5a0a9a562dd9897cc18b2c62fb2eea02200d23ce8273aa0b8b59481f2d161dc4b8274c00b6c8bf607960abff34a7ef329c01", "02dc88b125273baa6ef0e1249d8a432dcaa1bafeb4d8faf0769b06f676fe23de07"], "sequence": 4294967294, "scriptSig": {"hex": "160014ffc7332499d667c6c6101383a67c36f8e15660c3", "asm": "0014ffc7332499d667c6c6101383a67c36f8e15660c3"}, "vout": 57, "txid": "6f366fcd039c7dc34b971193f81b9a2087f7ab43038c4b74e737661cb3307472"}, {"txinwitness": ["304402207790f0d71c5b64014dd9a7999ecb00bf6464250835a012bb485e0499d23f97cc0220465c0893dec5be91f5be26faebeb5a861a03d5a2c7e2807c90a09807b2ab6d7501", "02df8723328551f1546ca504e6d23d723dafc8f658c74b491efc7f589aa93b219f"], "sequence": 4294967294, "scriptSig": {"hex": "1600147c8b08fa721ce91a4f21d833e132d0cc07fc195f", "asm": "00147c8b08fa721ce91a4f21d833e132d0cc07fc195f"}, "vout": 1, "txid": "cd6271af559da6e65782f37809453dd803231094ee64958f1dbf994e08e9d872"}, {"txinwitness": ["3045022100e1d3baaf9e098bee72936c4e96e726f599c783a9ddb07cab0162c45a42796e5b022059080e0cb7014da49cdc9a7469b7651a6eab3cb4f4a2c2436a1ca838cbc67de201", "026b5855b7ae872ec62ad9d6e7c8f125b269807987a0185e25f7e035e191d58d1f"], "sequence": 4294967294, "scriptSig": {"hex": "160014fed48095196d82eea9d864095076fe9817ecb914", "asm": "0014fed48095196d82eea9d864095076fe9817ecb914"}, "vout": 8, "txid": "5d07d86b0d22d0ce72d59f37e95fad80924eafca4f5027aa1d28410530116c94"}, {"txinwitness": ["3045022100d700183f94d76aa71498fc449892d0f8bb929b1d5ec986ffda6c7a988682cb6f022034d9b09b68b217be378ccf228c76bb270425a4b6f6456f4350d4a87a963ff8c501", "03d94515fce72c05a4858f654dd1bd9d45856e571b2215134cb727dc8e08c006b0"], "sequence": 4294967294, "scriptSig": {"hex": "1600140590354f05f3ca7001ceaee5fd62bb0f30ed300a", "asm": "00140590354f05f3ca7001ceaee5fd62bb0f30ed300a"}, "vout": 47, "txid": "b4d610f5fbe02e51a0ea53b58236704f1c0956aaead2ade17a4e207e3691a197"}, {"txinwitness": ["3044022013dadf0a8439f7cc91fb03e73ddfc95069df562e46db4ddb8b43f80494dad0cb02201792c721e1db842c4fd2e25031934318302b94b2e73f13745d6025ac4b5aef9001", "021fd9eb3d40b44379ced7fef5f31f29cffb5e80e8230a2a99cb4508dcec4ee1bc"], "sequence": 4294967294, "scriptSig": {"hex": "160014572ae25d9155e48d54d346b137fe31e35fb825ef", "asm": "0014572ae25d9155e48d54d346b137fe31e35fb825ef"}, "vout": 0, "txid": "670e1626b9ddd60f4f9f1c74ed617fc324110c6458d9f2f79b799f31a7bdf39c"}, {"txinwitness": ["304402206f5d2fbff3d5ecf83b6158d7a75c188be1066ff045460738f6793b80b30f565102202af01f997673cc6e20e1b695f93baf466d06610a34023248aa1648a97ce33f1001", "03e83aa400d5896d136cec063eba4f9fae905fc5e0475bb3c1d81ec5e76a8ceb03"], "sequence": 4294967294, "scriptSig": {"hex": "16001472724530cc88bd2c7bf33ac3e1c6cbe2bc79dc75", "asm": "001472724530cc88bd2c7bf33ac3e1c6cbe2bc79dc75"}, "vout": 1, "txid": "7169dec93f7361f8edb55d53a74ca928526fe8d1f11ab291ee8f27d1c77892a0"}, {"txinwitness": ["304402201bd92c8e4bbea2ab7d2355803c45e600587f9604056b715e12a5658d78ad110402205c26917802e94ebdc3102ba02fa009e4a077c64ec67d831897eb7154984b035601", "03aa65b7cc3ff91ee305782cb96459bbc437cf99daf707bb50ffc59bce107cd697"], "sequence": 4294967294, "scriptSig": {"hex": "1600149eaf30c93b0a5ab68148eb51f35d9144e01b2f3a", "asm": "00149eaf30c93b0a5ab68148eb51f35d9144e01b2f3a"}, "vout": 7, "txid": "febd3e85422d00dc1e22f03f5f3260600fbc48c77848214caf16d8165bb470a1"}, {"txinwitness": ["3045022100ddad6f12cf07f93158486ac0d3b2c55a4440988c913a3a2f4e163fc13b00c62d02200e47dbe2e0624cbca45653e98f3bc84c57015ea1cc453544cbbd214d67277e0601", "031dfa5846d72635b0d98dbf91581ea9a33eb2af7ed6cdded84d36fdc4cbb3ddf4"], "sequence": 4294967294, "scriptSig": {"hex": "160014106ab94a0e84cde538f90e86472ef38c9272f762", "asm": "0014106ab94a0e84cde538f90e86472ef38c9272f762"}, "vout": 71, "txid": "0d5673779b5eef66c10ac08cea545af9e9050139832111e1b70e48cf6905a1a9"}, {"txinwitness": ["30450221009a7edb5a64589c1a9863f14d2be946bc1169df342bc3dcf5b6b573bfd8807c370220086e1dc6e6e774ce3802562992d0d4b9d093d86568a02357d3f5f802b706360101", "02e13d42305d463df6b614aadfa1af628d6bca0253f794527698be2aa51835f014"], "sequence": 4294967294, "scriptSig": {"hex": "1600148cb7ef123c4fed5a5d8ff4e11bdd1ad9376a6167", "asm": "00148cb7ef123c4fed5a5d8ff4e11bdd1ad9376a6167"}, "vout": 1, "txid": "2e2ec5e2ea7e77cf8ae166aa0b266fa47334ae327786c2796bcaa274320aa0b1"}, {"txinwitness": ["3045022100da27a1c7144ee9db2f600c327d9421a86970f4f2473f8f0b8f2a96ecdd49dffb02203e7ecefdae4357bc65cab2426b9d8d963db422591c3a07e440c5ba1cab1e045501", "033e27877ef6d4c69cfc7b9cef433121064834469fa65785bf01c0d9cd6b5c6abc"], "sequence": 4294967294, "scriptSig": {"hex": "160014434553a86affadbd4cf0c2fbb4eed0a2529141bc", "asm": "0014434553a86affadbd4cf0c2fbb4eed0a2529141bc"}, "vout": 23, "txid": "b5d14eb21e806f8357b6071726a698dca878b126ece4408b42fbf5273e841cb4"}, {"txinwitness": ["3045022100bd7a1697e0ac41523461dee6568caf007c2d07e071e8c128783092cf3d2638980220192f25d0eaa60bc0e862a80b07f3b15f75d5127f116958d0cf0ca479df4b7f7d01", "03b9cffec4409d3c52b4e27d1f9456477bf476b62ac04151acfd0f1d08dccee3b9"], "sequence": 4294967294, "scriptSig": {"hex": "160014afe6469d1f568a5bc4bc0269cf83eb9aeee9edee", "asm": "0014afe6469d1f568a5bc4bc0269cf83eb9aeee9edee"}, "vout": 0, "txid": "3ff212c96acb8c3ae9e4436510cadcd0f7f5c8cd77f5c5ee7f83dd4ffe8f91cd"}, {"txinwitness": ["3045022100fcaacab2e3784321d7e22a2c5a1e1d1e4ace69b4054ebe197381a8ada54f8368022071544902e60710c8f6751b0c6861c7312d8ae9140dad269043fd42603ee49d1601", "02d5a6267232c954a482e57aeca58bed344cedbda39bfb344212cfbc223530135f"], "sequence": 4294967294, "scriptSig": {"hex": "16001494249287789842046b700a2c8612b52e57a8ef11", "asm": "001494249287789842046b700a2c8612b52e57a8ef11"}, "vout": 4, "txid": "2808cd454d485b128f3fc30ebf52e19629e94912470363cb8117c72927fc0dd2"}, {"txinwitness": ["304402207b2b4882c59159280267f00df3c9234fbe6af9894f59bb6e861e1f3f941b14180220253dad5c48c26258e1f80fe78cfea1c1b3dc4120eb1b490a584c9eebaac8465301", "033f082a7ba5488def9c904890c58ef4d6c68ce7158ee9bd9dbefb989a6f385b5a"], "sequence": 4294967294, "scriptSig": {"hex": "16001407b5f7d05a2a1710e990198d90df5bf33d860bc9", "asm": "001407b5f7d05a2a1710e990198d90df5bf33d860bc9"}, "vout": 18, "txid": "fef0e5a44005eb796721812979bba92b1fa4d630cc1132c40c88091e34905bd2"}, {"txinwitness": ["30450221008cb0e8731d6e5d476a11bc57832a8b81aca75407315f1eeca664feb7e50651af02207f1fc683beb4f01bcf0bdcfad9f660e70f754e5df9dfc225e2f3ce554fc5841a01", "03bfce95b9498a4cc39ef6d7f51655d39d54eb3bc6c68371ba51073e01fe47afe4"], "sequence": 4294967294, "scriptSig": {"hex": "160014a5d7a0722b9c4201f7e484fe2f63ac4f368fae06", "asm": "0014a5d7a0722b9c4201f7e484fe2f63ac4f368fae06"}, "vout": 0, "txid": "b59f9558384feb5017fbe85d3fea4bd3981b1918d756126ee53366431ca121d6"}, {"txinwitness": ["304402204aed84ded835fa1267ed8f137d38a9431efafe7c5dc4a08aca872cbf9e74c0af02200eba835d34d102cdd0d28efbbca68c0bcb84d2de119e244b3e8a2e648b0a4ca401", "03590e6c57a6cdd0dfa88be3fa6ded1c53aad1f809f39bbe93c2d24a61d6d405aa"], "sequence": 4294967294, "scriptSig": {"hex": "16001456513d0919f65b40dfa03c184ac561a52fc4661f", "asm": "001456513d0919f65b40dfa03c184ac561a52fc4661f"}, "vout": 1, "txid": "86a5770391acbb855880855b3bd33666b9ab624cc2e33aaa7bce4c54001c16e5"}, {"txinwitness": ["3045022100bb5b33c27b7c13759e326f9d4243ca9efec23f826f365f52d0d06837bef08ae2022042cbcb36ce78a52e79b6abae7163e35c6f87abab22d35a67a8964b52a24be13e01", "033ef83ee3a8de0dbd2ba6226836670f0b786acbfb5a83737eebde695ead037e66"], "sequence": 4294967294, "scriptSig": {"hex": "1600143e81f9b94198e5a54e17abd07ab369570fd09552", "asm": "00143e81f9b94198e5a54e17abd07ab369570fd09552"}, "vout": 4, "txid": "a00f9e28027ac2f7493bf9492b0a8dfbdfd47a843661f1ac5198f3d08cc70de9"}, {"txinwitness": ["30440220120efd1d760a220f8c789d8c70e93f9e37588d275b2708d18476e56777e270c402207caa0bf15af294f8ffaec90212fce7164414b591fea8827c19aed356afac2dac01", "03c282ded07fcd77c9c001c249d969ebf50b99d32e9a27e05335d57e5ceaad1a78"], "sequence": 4294967294, "scriptSig": {"hex": "160014f6c14b3987dea45402a7a9a0b865d516a92d80de", "asm": "0014f6c14b3987dea45402a7a9a0b865d516a92d80de"}, "vout": 18, "txid": "47932217107b4d1c9a75a22a62c2eece28e3c3cc042e08b3ee2ba84d213423ee"}, {"txinwitness": ["3045022100f5f4250713f87c3a52f9d9ded7c485aad462cdbb10f54dea1204b3d1b28f87a90220568fc6020e6283939a9a71c7abe9fc0f41f3748b357951a1c4c0d9c56d2329ba01", "02cac340b8427d587d51b23eccda9d5b615698d55bdfaef0e7566ef57d25e4a8e2"], "sequence": 4294967294, "scriptSig": {"hex": "1600140ebda9ab40a3ea29184b81df535d20bfded0cd1a", "asm": "00140ebda9ab40a3ea29184b81df535d20bfded0cd1a"}, "vout": 44, "txid": "7b82ff9860c75a125f299bb2c1976ff7bcf19e952a22c875c1bdd4592a231ff9"}, {"txinwitness": ["3044022075f8ac7a0ebd1393251b38a4c0ce3c2a44fbac42844f6a193f02bde2286c795a022076046541dd7aa20dc7155f00b47810a68e258a626b45ef61ff3d3f349c8796f001", "03d8e3af65a8ab90d6ef665b2062dbce2c25384920d7b8fe31d4acc9ae94fd0f31"], "sequence": 4294967294, "scriptSig": {"hex": "16001484b1be443abfe11216204b7cf48e9c9551e28172", "asm": "001484b1be443abfe11216204b7cf48e9c9551e28172"}, "vout": 0, "txid": "4c6070f3427d72d250066498d1d29d9ef8c7f68cfcafa623853619c4e1925bf9"}, {"txinwitness": ["30450221008c4f9cc5d217dc81f3b4c34a2632986b65e7fd850745084b082af2661609b35b022013aa3f9c1625eca779f55d4921085ef69c1f645cea429bb17df87b50c768f1c701", "02b69886b1a9273b3e69deb4a1e39e5479a5452ff420f93558062f3d0cca763c11"], "sequence": 4294967294, "scriptSig": {"hex": "16001438060fac042b7e422735dbfb8bd664f49f1bea6f", "asm": "001438060fac042b7e422735dbfb8bd664f49f1bea6f"}, "vout": 0, "txid": "950dd257cc350a0aab322290fe90e8727a31a95e5b174a11845914833bab52ff"}], "txid": "49624cee16ddaa63b49e1a726c137e4af04987e251cfacb41ca79597554ffc3f", "blocktime": 1537875543, "version": 2, "confirmations": 11464, "time": 1537875543, "locktime": 542998, "vsize": 3620, "size": 6767}