{"hash": "496940486486f7c5c049177e51027a02678faf79770913c7b01a4f9994f298a8", "blockhash": "0000000000000000000baef3f32e3676a92c3b2e5da21b426e4f302fc371ce76", "vout": [{"scriptPubKey": {"type": "nulldata", "hex": "6a4c500000782700018d8b1d5f4f3c1708444e592a019d6ddc0f1b8ff117702940d64fa54d8eb2bba44fa802f47a01c3b765711c2818865baa1e7a06138f99627baed11d100759d4ba30d2c37bb011d97e02cf", "asm": "OP_RETURN 0000782700018d8b1d5f4f3c1708444e592a019d6ddc0f1b8ff117702940d64fa54d8eb2bba44fa802f47a01c3b765711c2818865baa1e7a06138f99627baed11d100759d4ba30d2c37bb011d97e02cf"}, "value": 0.0, "n": 0}, {"scriptPubKey": {"reqSigs": 1, "hex": "76a91498bf02267c144e9c69403e623acce3fefa73ccc588ac", "addresses": ["1EveXexkBqX6XqXUL5FHwTCmimUypLwqER"], "asm": "OP_DUP OP_HASH160 98bf02267c144e9c69403e623acce3fefa73ccc5 OP_EQUALVERIFY OP_CHECKSIG", "type": "pubkeyhash"}, "value": 0.00628169, "n": 1}], "hex": "0100000001d6bb6033bb3219aec4a5831d2476f53977bab679c81501eff542bb5a330462c9010000006a473044022061fa6215595e2bfed018c6bb4293b0d7eac2cc0db9c1085b75390effecfca5670220488bee1f3ce627b2f865218bf7a3a5a82c384fcb76299f55c855f71cbe553d5b012103dbac9f23fefeda0485dbf5dced576b6dcfeacb44892a1cc88275a11ee1a657d4ffffffff020000000000000000536a4c500000782700018d8b1d5f4f3c1708444e592a019d6ddc0f1b8ff117702940d64fa54d8eb2bba44fa802f47a01c3b765711c2818865baa1e7a06138f99627baed11d100759d4ba30d2c37bb011d97e02cfc9950900000000001976a91498bf02267c144e9c69403e623acce3fefa73ccc588ac00000000", "vin": [{"sequence": 4294967295, "scriptSig": {"hex": "473044022061fa6215595e2bfed018c6bb4293b0d7eac2cc0db9c1085b75390effecfca5670220488bee1f3ce627b2f865218bf7a3a5a82c384fcb76299f55c855f71cbe553d5b012103dbac9f23fefeda0485dbf5dced576b6dcfeacb44892a1cc88275a11ee1a657d4", "asm": "3044022061fa6215595e2bfed018c6bb4293b0d7eac2cc0db9c1085b75390effecfca5670220488bee1f3ce627b2f865218bf7a3a5a82c384fcb76299f55c855f71cbe553d5b[ALL] 03dbac9f23fefeda0485dbf5dced576b6dcfeacb44892a1cc88275a11ee1a657d4"}, "vout": 1, "txid": "c96204335abb42f5ef0115c879b6ba7739f576241d83a5c4ae1932bb3360bbd6"}], "txid": "496940486486f7c5c049177e51027a02678faf79770913c7b01a4f9994f298a8", "blocktime": 1537876114, "version": 1, "confirmations": 11463, "time": 1537876114, "locktime": 0, "vsize": 283, "size": 283}