{"hash": "496beb91e64b264ac4fee5b10f9b1b736e0d9280b05ef3db3ca7ba0a2e5da1b5", "blockhash": "00000000000000000024a2167bbff67b0be802c0b01cdd79e6331c2be6459f87", "vout": [{"scriptPubKey": {"reqSigs": 1, "hex": "a914f6b3b8e7504a3b1fc089d44cb323f1b22498d39187", "addresses": ["3QBTT4Fo6JZvVB9ALQ1X1i7gSyWNfsK7t8"], "asm": "OP_HASH160 f6b3b8e7504a3b1fc089d44cb323f1b22498d391 OP_EQUAL", "type": "scripthash"}, "value": 0.55, "n": 0}, {"scriptPubKey": {"reqSigs": 1, "hex": "76a91446b36f63c0553a4fd02ca56f975fa0db2146f32f88ac", "addresses": ["17SqFoKJkg56o9VxBLtQ3CkjkwYs59wytS"], "asm": "OP_DUP OP_HASH160 46b36f63c0553a4fd02ca56f975fa0db2146f32f OP_EQUALVERIFY OP_CHECKSIG", "type": "pubkeyhash"}, "value": 1.44999206, "n": 1}], "hex": "0100000001affe56a1325162027028c721d1284e80a2c752639c7835218929564a4b6ce11d000000006b483045022100ba888df7e4698e0e45f0276b4921b8b679cd922cf28122f58c692199ff39b82002204c379befb5c0015100be059f5bd46d7f02f27e2549f6c38bbaaa79f74489c9350121037488b3a8aaa7d3826b1f1e6b4fffd9eb510f7404aaad824185f815ad05ab7f79ffffffff02c03b47030000000017a914f6b3b8e7504a3b1fc089d44cb323f1b22498d391872683a408000000001976a91446b36f63c0553a4fd02ca56f975fa0db2146f32f88ac00000000", "vin": [{"sequence": 4294967295, "scriptSig": {"hex": "483045022100ba888df7e4698e0e45f0276b4921b8b679cd922cf28122f58c692199ff39b82002204c379befb5c0015100be059f5bd46d7f02f27e2549f6c38bbaaa79f74489c9350121037488b3a8aaa7d3826b1f1e6b4fffd9eb510f7404aaad824185f815ad05ab7f79", "asm": "3045022100ba888df7e4698e0e45f0276b4921b8b679cd922cf28122f58c692199ff39b82002204c379befb5c0015100be059f5bd46d7f02f27e2549f6c38bbaaa79f74489c935[ALL] 037488b3a8aaa7d3826b1f1e6b4fffd9eb510f7404aaad824185f815ad05ab7f79"}, "vout": 0, "txid": "1de16c4b4a5629892135789c6352c7a2804e28d121c7287002625132a156feaf"}], "txid": "496beb91e64b264ac4fee5b10f9b1b736e0d9280b05ef3db3ca7ba0a2e5da1b5", "blocktime": 1537870564, "version": 1, "confirmations": 11515, "time": 1537870564, "locktime": 0, "vsize": 224, "size": 224}