{"hash": "e7fcd24c120ecdde0d98287c8e163220d8645c99f73e9a4175da0b3ae1ea6af3", "blockhash": "0000000000000000001f0ddff1eddb255c1121bcd4da4f1bc9a0da00cae72433", "vout": [{"scriptPubKey": {"reqSigs": 1, "hex": "a914e53ca2cc11da76ab946d1aa8d4158cbaa68565e687", "addresses": ["3Nb7JXkM2BguoAzSTaPpGfAYUZLmLjUb74"], "asm": "OP_HASH160 e53ca2cc11da76ab946d1aa8d4158cbaa68565e6 OP_EQUAL", "type": "scripthash"}, "value": 0.000188, "n": 0}, {"scriptPubKey": {"reqSigs": 1, "hex": "00148d276a34f107e5cda815d75cca66e9448baf39be", "addresses": ["bc1q35nk5d83qljum2q46awv5ehfgj967wd7pz06pa"], "asm": "0 8d276a34f107e5cda815d75cca66e9448baf39be", "type": "witness_v0_keyhash"}, "value": 0.00086989, "n": 1}], "hex": "0100000000010114758c8a80b5f5143e4cef4f8744801c2d851b4cd3096d1a55d25921099b0c1d0100000000ffffffff02704900000000000017a914e53ca2cc11da76ab946d1aa8d4158cbaa68565e687cd530100000000001600148d276a34f107e5cda815d75cca66e9448baf39be02473044022031e150766e53c45849c0cc45a7bcfd703c4ee913b1332694e523890d9b7e1ee402207bd9bdade7abd6148d2d5bb034ad21c3bbcf92a77f58e915ef4c886ac22da82c0121031482cdfeb2112cc4b730ef072a6990b8f2b64a173cc1d0e1ba2478bd74b8da9400000000", "vin": [{"txinwitness": ["3044022031e150766e53c45849c0cc45a7bcfd703c4ee913b1332694e523890d9b7e1ee402207bd9bdade7abd6148d2d5bb034ad21c3bbcf92a77f58e915ef4c886ac22da82c01", "031482cdfeb2112cc4b730ef072a6990b8f2b64a173cc1d0e1ba2478bd74b8da94"], "sequence": 4294967295, "scriptSig": {"hex": "", "asm": ""}, "vout": 1, "txid": "1d0c9b092159d2551a6d09d34c1b852d1c8044874fef4c3e14f5b5808a8c7514"}], "txid": "496dbda9b6c37925dbdde874e4e5fa55397112a238db5167645410a31e6f1d5b", "blocktime": 1537872018, "version": 1, "confirmations": 11489, "time": 1537872018, "locktime": 0, "vsize": 142, "size": 223}