{"hash": "497240f2759f4e72445c5cc20242159bac99066a2647db3a2a2cbffde08b2fba", "blockhash": "00000000000000000024a2167bbff67b0be802c0b01cdd79e6331c2be6459f87", "vout": [{"scriptPubKey": {"reqSigs": 1, "hex": "a91407348310c84add0ee422b9e08eed5708e5218aa987", "addresses": ["32M7ZUwXQG1Fd21Zkrd4yD2M1Qmmzh9j8c"], "asm": "OP_HASH160 07348310c84add0ee422b9e08eed5708e5218aa9 OP_EQUAL", "type": "scripthash"}, "value": 0.00780173, "n": 0}, {"scriptPubKey": {"reqSigs": 1, "hex": "76a9142165d396196da12c0c786765fbd790341b1e105b88ac", "addresses": ["143bHMu1dcdZmMCnt8UkP7yXRa1P8AfFGK"], "asm": "OP_DUP OP_HASH160 2165d396196da12c0c786765fbd790341b1e105b OP_EQUALVERIFY OP_CHECKSIG", "type": "pubkeyhash"}, "value": 0.031284, "n": 1}], "hex": "0100000001566a4be11d04b20a80030c0da5d40335753e9a15382ea4efeb14b109ade84d21010000006a47304402205769e7359d83f39aadf3b70b0e7d2152ac75df6805da853394e1875cbff89d4a02205ef09ce348d4d16b9b2ff6282cf8a69ff489daf4f581b60fefd5c98bccb369fd012102e45f1108064e0ba93b35912931608d40b90cd9cf098a811372454153c78cdc44ffffffff028de70b000000000017a91407348310c84add0ee422b9e08eed5708e5218aa98750bc2f00000000001976a9142165d396196da12c0c786765fbd790341b1e105b88ac00000000", "vin": [{"sequence": 4294967295, "scriptSig": {"hex": "47304402205769e7359d83f39aadf3b70b0e7d2152ac75df6805da853394e1875cbff89d4a02205ef09ce348d4d16b9b2ff6282cf8a69ff489daf4f581b60fefd5c98bccb369fd012102e45f1108064e0ba93b35912931608d40b90cd9cf098a811372454153c78cdc44", "asm": "304402205769e7359d83f39aadf3b70b0e7d2152ac75df6805da853394e1875cbff89d4a02205ef09ce348d4d16b9b2ff6282cf8a69ff489daf4f581b60fefd5c98bccb369fd[ALL] 02e45f1108064e0ba93b35912931608d40b90cd9cf098a811372454153c78cdc44"}, "vout": 1, "txid": "214de8ad09b114ebefa42e38159a3e753503d4a50d0c03800ab2041de14b6a56"}], "txid": "497240f2759f4e72445c5cc20242159bac99066a2647db3a2a2cbffde08b2fba", "blocktime": 1537870564, "version": 1, "confirmations": 11515, "time": 1537870564, "locktime": 0, "vsize": 223, "size": 223}