{"hash": "4979ec231a817611a8df30a335446acd7f1d5953189a1cfba4a8f73d02b863e8", "blockhash": "0000000000000000000dcc0f55137456b1a82d3642486a52398922ac4d620174", "vout": [{"scriptPubKey": {"reqSigs": 1, "hex": "76a9141b3e1481a74472af7b61ac5cb0e04a6faf8542ae88ac", "addresses": ["13V3cagDCAQaf7bWMvmzUgbjZtjH3NYBQF"], "asm": "OP_DUP OP_HASH160 1b3e1481a74472af7b61ac5cb0e04a6faf8542ae OP_EQUALVERIFY OP_CHECKSIG", "type": "pubkeyhash"}, "value": 0.00493752, "n": 0}, {"scriptPubKey": {"reqSigs": 1, "hex": "0014a11df0c79d106b315304ee952b91850c08ff1f08", "addresses": ["bc1q5ywlp3uazp4nz5cya62jhyv9psy078cg2lw4xr"], "asm": "0 a11df0c79d106b315304ee952b91850c08ff1f08", "type": "witness_v0_keyhash"}, "value": 5.67e-05, "n": 1}], "hex": "0100000001d06cdaa1b7eaaf11e3bf115eacd6c6787bab6231369605455fd5f0fae1e06e7e140000006b483045022100d3c5e5becf3ae64b7d387093c0589aa3f00fe518515c8fdba288f75dd128188f0220127d92d78e4260021d4a17a0cf786008200091a206cfb81ffd8ce2be13ff5d7f012102a65fbd44296a09738969b78b1dd1f080bd300afd9fb6196dec8857b93d73573cffffffff02b8880700000000001976a9141b3e1481a74472af7b61ac5cb0e04a6faf8542ae88ac2616000000000000160014a11df0c79d106b315304ee952b91850c08ff1f0800000000", "vin": [{"sequence": 4294967295, "scriptSig": {"hex": "483045022100d3c5e5becf3ae64b7d387093c0589aa3f00fe518515c8fdba288f75dd128188f0220127d92d78e4260021d4a17a0cf786008200091a206cfb81ffd8ce2be13ff5d7f012102a65fbd44296a09738969b78b1dd1f080bd300afd9fb6196dec8857b93d73573c", "asm": "3045022100d3c5e5becf3ae64b7d387093c0589aa3f00fe518515c8fdba288f75dd128188f0220127d92d78e4260021d4a17a0cf786008200091a206cfb81ffd8ce2be13ff5d7f[ALL] 02a65fbd44296a09738969b78b1dd1f080bd300afd9fb6196dec8857b93d73573c"}, "vout": 20, "txid": "7e6ee0e1faf0d55f450596363162ab7b78c6d6ac5e11bfe311afeab7a1da6cd0"}], "txid": "4979ec231a817611a8df30a335446acd7f1d5953189a1cfba4a8f73d02b863e8", "blocktime": 1537870268, "version": 1, "confirmations": 11518, "time": 1537870268, "locktime": 0, "vsize": 223, "size": 223}