{"hash": "497a968418b23b1292943b1fbc362f664a3c4b74b86ebc27dde8819d8c844f30", "blockhash": "0000000000000000000baef3f32e3676a92c3b2e5da21b426e4f302fc371ce76", "vout": [{"scriptPubKey": {"type": "nulldata", "hex": "6a4c50000078170001531c8e40a2822957b3f09510019d6ddc0f1b8ff117702940d64fa54d8eb2031b266e538dfbecd6ca0bb3b5322d665baa1c1b0615bbafbaed871fbc9a9526289ac0f6612cd74e33776ee4", "asm": "OP_RETURN 000078170001531c8e40a2822957b3f09510019d6ddc0f1b8ff117702940d64fa54d8eb2031b266e538dfbecd6ca0bb3b5322d665baa1c1b0615bbafbaed871fbc9a9526289ac0f6612cd74e33776ee4"}, "value": 0.0, "n": 0}, {"scriptPubKey": {"reqSigs": 1, "hex": "76a91498bd3e486387404066f88d62e55c504b6dcb8aa588ac", "addresses": ["1EvcR1jdLZs6w4BHeJR1xFEz3A4T5yRNvH"], "asm": "OP_DUP OP_HASH160 98bd3e486387404066f88d62e55c504b6dcb8aa5 OP_EQUALVERIFY OP_CHECKSIG", "type": "pubkeyhash"}, "value": 0.0007102, "n": 1}], "hex": "0100000001854d0289fd845c7766c0a371c2e9a0228b4134d86a7ebd76820a51f49f0a785d010000006a47304402202fbdeab964804aa927a0e0646934d71ea6c7c418b371b1bbd885d21ea6159c2202205ad19e7bed9a1a92bb9cc37c3a9011d60773dd7947c3de50c8a4b6e2daf6808e0121020db2bf6047a37b038fdcc82d436fd2c22aacb7628b264c99b5345c40c3f6cb33ffffffff020000000000000000536a4c50000078170001531c8e40a2822957b3f09510019d6ddc0f1b8ff117702940d64fa54d8eb2031b266e538dfbecd6ca0bb3b5322d665baa1c1b0615bbafbaed871fbc9a9526289ac0f6612cd74e33776ee46c150100000000001976a91498bd3e486387404066f88d62e55c504b6dcb8aa588ac00000000", "vin": [{"sequence": 4294967295, "scriptSig": {"hex": "47304402202fbdeab964804aa927a0e0646934d71ea6c7c418b371b1bbd885d21ea6159c2202205ad19e7bed9a1a92bb9cc37c3a9011d60773dd7947c3de50c8a4b6e2daf6808e0121020db2bf6047a37b038fdcc82d436fd2c22aacb7628b264c99b5345c40c3f6cb33", "asm": "304402202fbdeab964804aa927a0e0646934d71ea6c7c418b371b1bbd885d21ea6159c2202205ad19e7bed9a1a92bb9cc37c3a9011d60773dd7947c3de50c8a4b6e2daf6808e[ALL] 020db2bf6047a37b038fdcc82d436fd2c22aacb7628b264c99b5345c40c3f6cb33"}, "vout": 1, "txid": "5d780a9ff4510a8276bd7e6ad834418b22a0e9c271a3c066775c84fd89024d85"}], "txid": "497a968418b23b1292943b1fbc362f664a3c4b74b86ebc27dde8819d8c844f30", "blocktime": 1537876114, "version": 1, "confirmations": 11460, "time": 1537876114, "locktime": 0, "vsize": 283, "size": 283}