{"hash": "497a4432426c937a526eda81b7ec808e625d34997d83af96f121350763052d33", "blockhash": "000000000000000000022b45ed06c6f4ccd3cf7fb5ba4856ebd2e58215665228", "vout": [{"scriptPubKey": {"reqSigs": 1, "hex": "76a9147e965e1cdf14553bb321cce41f9cd11127bf8e2d88ac", "addresses": ["1CYLGu18Wcj7arWSLCUmB6nThe3dXgJC66"], "asm": "OP_DUP OP_HASH160 7e965e1cdf14553bb321cce41f9cd11127bf8e2d OP_EQUALVERIFY OP_CHECKSIG", "type": "pubkeyhash"}, "value": 0.01093266, "n": 0}, {"scriptPubKey": {"reqSigs": 1, "hex": "76a9145392480660d441907f0c15a547442922e6cbbdfd88ac", "addresses": ["18ctKjEQ2g6NEMdtgvesPGvoRM2Seatd7M"], "asm": "OP_DUP OP_HASH160 5392480660d441907f0c15a547442922e6cbbdfd OP_EQUALVERIFY OP_CHECKSIG", "type": "pubkeyhash"}, "value": 0.03593661, "n": 1}], "hex": "010000000121ec649738eb71ce97f0b68c8f5c1057b31f3a5c2fd37664fd187a05edbc4b2c010000006a47304402203bfaddbefc3d8bc38e822c333f95c7b5db819389f0b246afcfc5a098a215876d022052e080fb36fac1ac4e8efdbc0b5a1357419b1c812a7f655056e936f59d9d2bb9012102ff744d05143dcb1e8c9bf36008d6e7f53bf309b98a667246f6f609896cb6a039ffffffff0292ae1000000000001976a9147e965e1cdf14553bb321cce41f9cd11127bf8e2d88acbdd53600000000001976a9145392480660d441907f0c15a547442922e6cbbdfd88ac00000000", "vin": [{"sequence": 4294967295, "scriptSig": {"hex": "47304402203bfaddbefc3d8bc38e822c333f95c7b5db819389f0b246afcfc5a098a215876d022052e080fb36fac1ac4e8efdbc0b5a1357419b1c812a7f655056e936f59d9d2bb9012102ff744d05143dcb1e8c9bf36008d6e7f53bf309b98a667246f6f609896cb6a039", "asm": "304402203bfaddbefc3d8bc38e822c333f95c7b5db819389f0b246afcfc5a098a215876d022052e080fb36fac1ac4e8efdbc0b5a1357419b1c812a7f655056e936f59d9d2bb9[ALL] 02ff744d05143dcb1e8c9bf36008d6e7f53bf309b98a667246f6f609896cb6a039"}, "vout": 1, "txid": "2c4bbced057a18fd6476d32f5c3a1fb357105c8f8cb6f097ce71eb389764ec21"}], "txid": "497a4432426c937a526eda81b7ec808e625d34997d83af96f121350763052d33", "blocktime": 1537869901, "version": 1, "confirmations": 11524, "time": 1537869901, "locktime": 0, "vsize": 225, "size": 225}