{"hash": "497c6a0e9a47fa777a5219903eb4eb891e11465f4c09e30eaa1d733e59d55279", "blockhash": "0000000000000000000dcc0f55137456b1a82d3642486a52398922ac4d620174", "vout": [{"scriptPubKey": {"reqSigs": 1, "hex": "a9147d3a1ba2ff88949b5c00f9ab0469f4b284e87cd587", "addresses": ["3D79zw8cLMrTjTLfA8EM9zbyLDFeC1vfqF"], "asm": "OP_HASH160 7d3a1ba2ff88949b5c00f9ab0469f4b284e87cd5 OP_EQUAL", "type": "scripthash"}, "value": 0.0046, "n": 0}, {"scriptPubKey": {"reqSigs": 1, "hex": "76a91484cf9ae0eb4a55c51e78539db78f1d6f0dab4ffa88ac", "addresses": ["1D7EtyESnVvTn66xqviscZB9fR9evBdnMw"], "asm": "OP_DUP OP_HASH160 84cf9ae0eb4a55c51e78539db78f1d6f0dab4ffa OP_EQUALVERIFY OP_CHECKSIG", "type": "pubkeyhash"}, "value": 0.06899974, "n": 1}], "hex": "010000000121c6a6bd6aca508350e5ff4c8c0cce3323bce5068e26c7cc657040d635397f90010000006b483045022100c8476c38968738845faa237127667ef1046c94b4aafbe1f933ad6041bc70d0f002204da04fd26b1d3c535a5b828670c134919c05e2c437a44bd23427ec44376fac8f01210383f5e7f92b4b2238ee50a3a18462eb447c8a3a404645f2678d5577de6776680dffffffff02e00407000000000017a9147d3a1ba2ff88949b5c00f9ab0469f4b284e87cd58706496900000000001976a91484cf9ae0eb4a55c51e78539db78f1d6f0dab4ffa88ac00000000", "vin": [{"sequence": 4294967295, "scriptSig": {"hex": "483045022100c8476c38968738845faa237127667ef1046c94b4aafbe1f933ad6041bc70d0f002204da04fd26b1d3c535a5b828670c134919c05e2c437a44bd23427ec44376fac8f01210383f5e7f92b4b2238ee50a3a18462eb447c8a3a404645f2678d5577de6776680d", "asm": "3045022100c8476c38968738845faa237127667ef1046c94b4aafbe1f933ad6041bc70d0f002204da04fd26b1d3c535a5b828670c134919c05e2c437a44bd23427ec44376fac8f[ALL] 0383f5e7f92b4b2238ee50a3a18462eb447c8a3a404645f2678d5577de6776680d"}, "vout": 1, "txid": "907f3935d6407065ccc7268e06e5bc2333ce0c8c4cffe5508350ca6abda6c621"}], "txid": "497c6a0e9a47fa777a5219903eb4eb891e11465f4c09e30eaa1d733e59d55279", "blocktime": 1537870268, "version": 1, "confirmations": 11516, "time": 1537870268, "locktime": 0, "vsize": 224, "size": 224}