{"hash": "49817878ae3ca796ed64df7cd13f94190b1582468078fc92df8dbfeddc093759", "blockhash": "00000000000000000024a2167bbff67b0be802c0b01cdd79e6331c2be6459f87", "vout": [{"scriptPubKey": {"reqSigs": 1, "hex": "76a91455f5a37c3fc58da237e932cdb48f553b152a899d88ac", "addresses": ["18qWhaPnqR8nwrqKwkpEnGjw55QKqLnZz2"], "asm": "OP_DUP OP_HASH160 55f5a37c3fc58da237e932cdb48f553b152a899d OP_EQUALVERIFY OP_CHECKSIG", "type": "pubkeyhash"}, "value": 0.00025, "n": 0}, {"scriptPubKey": {"reqSigs": 1, "hex": "76a914802be80119bbb5a963b3f5ef9a80dcb0be43648388ac", "addresses": ["1Cgi6DUua1qHcTGteGWvkwAE5BpAotL5JB"], "asm": "OP_DUP OP_HASH160 802be80119bbb5a963b3f5ef9a80dcb0be436483 OP_EQUALVERIFY OP_CHECKSIG", "type": "pubkeyhash"}, "value": 0.15616469, "n": 1}], "hex": "0200000001331c0cbc2cf754d8a05818e16bda570eebb74a193d66a0022d072c8d31328ebd010000006a47304402202f424562d4efd541aefbe48c04b0c9a0552a1b875b2b8453b17a9478745eff1d022066a4d9e64a48b73c1ca9ee9120b98da1bb7a5ab6d8e270909f0d669364a6acdd012102c03cea5090164942f178c60550418dd4619fb90b2963ccc325c6e267915e4baeffffffff02a8610000000000001976a91455f5a37c3fc58da237e932cdb48f553b152a899d88acd549ee00000000001976a914802be80119bbb5a963b3f5ef9a80dcb0be43648388ac00000000", "vin": [{"sequence": 4294967295, "scriptSig": {"hex": "47304402202f424562d4efd541aefbe48c04b0c9a0552a1b875b2b8453b17a9478745eff1d022066a4d9e64a48b73c1ca9ee9120b98da1bb7a5ab6d8e270909f0d669364a6acdd012102c03cea5090164942f178c60550418dd4619fb90b2963ccc325c6e267915e4bae", "asm": "304402202f424562d4efd541aefbe48c04b0c9a0552a1b875b2b8453b17a9478745eff1d022066a4d9e64a48b73c1ca9ee9120b98da1bb7a5ab6d8e270909f0d669364a6acdd[ALL] 02c03cea5090164942f178c60550418dd4619fb90b2963ccc325c6e267915e4bae"}, "vout": 1, "txid": "bd8e32318d2c072d02a0663d194ab7eb0e57da6be11858a0d854f72cbc0c1c33"}], "txid": "49817878ae3ca796ed64df7cd13f94190b1582468078fc92df8dbfeddc093759", "blocktime": 1537870564, "version": 2, "confirmations": 11515, "time": 1537870564, "locktime": 0, "vsize": 225, "size": 225}