{"hash": "5b6579944197d034c186ea21050698e3de291f5b888781d81a2f7b9a170b154f", "blockhash": "0000000000000000000e13cef7c366c0283d82e591d1acd082e914b08063cdf1", "vout": [{"scriptPubKey": {"reqSigs": 1, "hex": "0014ef145a8ea86ad115f4d5434e57f433b0980a8d83", "addresses": ["bc1qau294r4gdtg3tax4gd890apnkzvq4rvrfzmz2y"], "asm": "0 ef145a8ea86ad115f4d5434e57f433b0980a8d83", "type": "witness_v0_keyhash"}, "value": 0.00099663, "n": 0}, {"scriptPubKey": {"reqSigs": 1, "hex": "76a9140439715756c424e35d46c0e7a7859a3f67d2a52988ac", "addresses": ["1PLWxcP56cvYecfPeoJivuBiKWq5wpG4v"], "asm": "OP_DUP OP_HASH160 0439715756c424e35d46c0e7a7859a3f67d2a529 OP_EQUALVERIFY OP_CHECKSIG", "type": "pubkeyhash"}, "value": 0.004992, "n": 1}], "hex": "01000000000101a515100d4d5a6ca4ca4702d5208f7fd6686b5c4552e072b07ce239064a15ba320000000000ffffffff024f85010000000000160014ef145a8ea86ad115f4d5434e57f433b0980a8d83009e0700000000001976a9140439715756c424e35d46c0e7a7859a3f67d2a52988ac02483045022100fa00b070a2a88f0d67559ee7ec60150249c67cb565a23e826485de6505f8434f022033399335b176fc27ef9182891a3512d49d5f6b078dc9cba5a2956b4c9b6654a30121030378408b904097a2ec6ab08f0b16364c88e9ee2299ba7c38c0657a6e2429914b00000000", "vin": [{"txinwitness": ["3045022100fa00b070a2a88f0d67559ee7ec60150249c67cb565a23e826485de6505f8434f022033399335b176fc27ef9182891a3512d49d5f6b078dc9cba5a2956b4c9b6654a301", "030378408b904097a2ec6ab08f0b16364c88e9ee2299ba7c38c0657a6e2429914b"], "sequence": 4294967295, "scriptSig": {"hex": "", "asm": ""}, "vout": 0, "txid": "32ba154a0639e27cb072e052455c6b68d67f8f20d50247caa46c5a4d0d1015a5"}], "txid": "49831d090ede7e1649e830cca6bf8d86e05f603ee128fc66670e182ed9787025", "blocktime": 1537871767, "version": 1, "confirmations": 11495, "time": 1537871767, "locktime": 0, "vsize": 144, "size": 226}