{"hash": "498adb411ccb69dfe4482cf9f4df5a4eace98bc2098c2e2a8534258f0148c17e", "blockhash": "0000000000000000001e0dab787dd257d1dbfcb92a98c2207d5e1078be1f4165", "vout": [{"scriptPubKey": {"reqSigs": 1, "hex": "a9141ba07f067f5368c2aa5a308e58adf2a7326947f987", "addresses": ["34D6SCDPmBvRGqcskaKRE1wZkiaD4scHBT"], "asm": "OP_HASH160 1ba07f067f5368c2aa5a308e58adf2a7326947f9 OP_EQUAL", "type": "scripthash"}, "value": 0.00421448, "n": 0}], "hex": "010000000106174011525aa58e781f4b0b4a0b500c904d9f1b554ffa53ce153a3ece9edc70000000006a473044022019dc0598be5fc9a8ad8c4db6c388e1f842f4fedbae827120df1ebc41c2f87688022076d1a406a9a97f9a7921b1cd7ab34ae6a688c32a174ed52c54086cb1a38c4e20012103671c7f230df69a219c024acb0f961a2bead24d55a13e8ec9b019efc7970ba06dffffffff01486e06000000000017a9141ba07f067f5368c2aa5a308e58adf2a7326947f98700000000", "vin": [{"sequence": 4294967295, "scriptSig": {"hex": "473044022019dc0598be5fc9a8ad8c4db6c388e1f842f4fedbae827120df1ebc41c2f87688022076d1a406a9a97f9a7921b1cd7ab34ae6a688c32a174ed52c54086cb1a38c4e20012103671c7f230df69a219c024acb0f961a2bead24d55a13e8ec9b019efc7970ba06d", "asm": "3044022019dc0598be5fc9a8ad8c4db6c388e1f842f4fedbae827120df1ebc41c2f87688022076d1a406a9a97f9a7921b1cd7ab34ae6a688c32a174ed52c54086cb1a38c4e20[ALL] 03671c7f230df69a219c024acb0f961a2bead24d55a13e8ec9b019efc7970ba06d"}, "vout": 0, "txid": "70dc9ece3e3a15ce53fa4f551b9f4d900c500b4a0b4b1f788ea55a5211401706"}], "txid": "498adb411ccb69dfe4482cf9f4df5a4eace98bc2098c2e2a8534258f0148c17e", "blocktime": 1537872475, "version": 1, "confirmations": 11486, "time": 1537872475, "locktime": 0, "vsize": 189, "size": 189}