{"hash": "498c9ff3fa45898ddfc99ad42024fc6e2f87d17856af651cede2dc1d62ea0569", "blockhash": "00000000000000000024a2167bbff67b0be802c0b01cdd79e6331c2be6459f87", "vout": [{"scriptPubKey": {"reqSigs": 1, "hex": "76a914c77ca46b78557918f2f197418e1ff839abe83a4888ac", "addresses": ["1KBnnUJEnEzKzeubx4AVFmq9LVTFoDHxaJ"], "asm": "OP_DUP OP_HASH160 c77ca46b78557918f2f197418e1ff839abe83a48 OP_EQUALVERIFY OP_CHECKSIG", "type": "pubkeyhash"}, "value": 0.00026575, "n": 0}, {"scriptPubKey": {"type": "nulldata", "hex": "6a4c500000777c0001b5e35f1de28bd9246c8a4ea5bcbefa6b8351586b4e86aeaeacb577c031fc188e23a49bea01f4b5f926be4d26c66a5baa0a0d0614ac97a78d2db74bbf23acfcfaac8058b692fe6808c31d", "asm": "OP_RETURN 0000777c0001b5e35f1de28bd9246c8a4ea5bcbefa6b8351586b4e86aeaeacb577c031fc188e23a49bea01f4b5f926be4d26c66a5baa0a0d0614ac97a78d2db74bbf23acfcfaac8058b692fe6808c31d"}, "value": 0.0, "n": 1}], "hex": "01000000011a26fc8aec08a237f738e075caa7f390faa1584308c9d5bcbd51374d635b59f2010000006b483045022100eed9ff62d33dad16bffbc63b57fffad0c6a4cd89944d1c8ece888c74138f0d570220649bc7bc22432cec6752c68da7e522c9eb7990f3b7f28def392a399bb3f03b2f012103c214972b280ccdb59b674ae5e22cb1282c69a5aa3e7ea015980d4dc15920eecdffffffff02cf670000000000001976a914c77ca46b78557918f2f197418e1ff839abe83a4888ac0000000000000000536a4c500000777c0001b5e35f1de28bd9246c8a4ea5bcbefa6b8351586b4e86aeaeacb577c031fc188e23a49bea01f4b5f926be4d26c66a5baa0a0d0614ac97a78d2db74bbf23acfcfaac8058b692fe6808c31d00000000", "vin": [{"sequence": 4294967295, "scriptSig": {"hex": "483045022100eed9ff62d33dad16bffbc63b57fffad0c6a4cd89944d1c8ece888c74138f0d570220649bc7bc22432cec6752c68da7e522c9eb7990f3b7f28def392a399bb3f03b2f012103c214972b280ccdb59b674ae5e22cb1282c69a5aa3e7ea015980d4dc15920eecd", "asm": "3045022100eed9ff62d33dad16bffbc63b57fffad0c6a4cd89944d1c8ece888c74138f0d570220649bc7bc22432cec6752c68da7e522c9eb7990f3b7f28def392a399bb3f03b2f[ALL] 03c214972b280ccdb59b674ae5e22cb1282c69a5aa3e7ea015980d4dc15920eecd"}, "vout": 1, "txid": "f2595b634d3751bdbcd5c9084358a1fa90f3a7ca75e038f737a208ec8afc261a"}], "txid": "498c9ff3fa45898ddfc99ad42024fc6e2f87d17856af651cede2dc1d62ea0569", "blocktime": 1537870564, "version": 1, "confirmations": 11515, "time": 1537870564, "locktime": 0, "vsize": 284, "size": 284}