{"hash": "4995b046895e110abf7ca0dcb76aac9c2de6cf23ee4a192662b79829c6707f0c", "blockhash": "0000000000000000000e13cef7c366c0283d82e591d1acd082e914b08063cdf1", "vout": [{"scriptPubKey": {"reqSigs": 1, "hex": "76a91412df0e194799873d50c5a71d11161e6de2aea1ff88ac", "addresses": ["12inNbHas836Rj3C3jAEcngsp4XvAbsykb"], "asm": "OP_DUP OP_HASH160 12df0e194799873d50c5a71d11161e6de2aea1ff OP_EQUALVERIFY OP_CHECKSIG", "type": "pubkeyhash"}, "value": 0.00015722, "n": 0}, {"scriptPubKey": {"reqSigs": 1, "hex": "76a914a87c8c0d4663a918de783089a12524ca786d868188ac", "addresses": ["1GMsiunopL5sZuTMaPbCjfwXdJEvC62KSG"], "asm": "OP_DUP OP_HASH160 a87c8c0d4663a918de783089a12524ca786d8681 OP_EQUALVERIFY OP_CHECKSIG", "type": "pubkeyhash"}, "value": 0.12483898, "n": 1}], "hex": "0100000001edfb8cea596cebe6ff30b4aaf3ee329f06d4c1f8d44dfdfffefe7b2d0d436c4a010000006b4830450221008a5a223dbe89d8c3f8b625396d6899d3ee4509f13d1a7250c081c3958758f13002206d087c488fb93ff2e9e008a182f0d4bd6701d78e5c51f397680545f6dfb0e9d00121028a529b882ca97682e7f83cc2e44a1f6deb15c78dea47747c1d1b17aece1e91a8ffffffff026a3d0000000000001976a91412df0e194799873d50c5a71d11161e6de2aea1ff88ac3a7dbe00000000001976a914a87c8c0d4663a918de783089a12524ca786d868188ac00000000", "vin": [{"sequence": 4294967295, "scriptSig": {"hex": "4830450221008a5a223dbe89d8c3f8b625396d6899d3ee4509f13d1a7250c081c3958758f13002206d087c488fb93ff2e9e008a182f0d4bd6701d78e5c51f397680545f6dfb0e9d00121028a529b882ca97682e7f83cc2e44a1f6deb15c78dea47747c1d1b17aece1e91a8", "asm": "30450221008a5a223dbe89d8c3f8b625396d6899d3ee4509f13d1a7250c081c3958758f13002206d087c488fb93ff2e9e008a182f0d4bd6701d78e5c51f397680545f6dfb0e9d0[ALL] 028a529b882ca97682e7f83cc2e44a1f6deb15c78dea47747c1d1b17aece1e91a8"}, "vout": 1, "txid": "4a6c430d2d7bfefefffd4dd4f8c1d4069f32eef3aab430ffe6eb6c59ea8cfbed"}], "txid": "4995b046895e110abf7ca0dcb76aac9c2de6cf23ee4a192662b79829c6707f0c", "blocktime": 1537871767, "version": 1, "confirmations": 11490, "time": 1537871767, "locktime": 0, "vsize": 226, "size": 226}