{"hash": "49970f4944ca6114c96d25324b17be71fbca6343e1bc5700a978797aeda4b52b", "blockhash": "0000000000000000001cda96e906b7601b7a6fb1a3b62bca570a9e5d8f4b3de1", "vout": [{"scriptPubKey": {"reqSigs": 1, "hex": "76a914034649c239d4473de7821a3a924906b3822fe7f988ac", "addresses": ["1JKEHDqknzRohgVwBKwyqujE3BnadXpY9"], "asm": "OP_DUP OP_HASH160 034649c239d4473de7821a3a924906b3822fe7f9 OP_EQUALVERIFY OP_CHECKSIG", "type": "pubkeyhash"}, "value": 0.02219, "n": 0}, {"scriptPubKey": {"type": "nulldata", "hex": "6a4c50000077d200012ce9c442b200aff379bfb7e25b23cc0f42c2fc38c5e5bf9ae76da98a211a673ac5ea5c8ec9686083e0aacbeee2815baa14c20613fff26d9e1817bc9a9526289ac0f6612cd74e33776ee4", "asm": "OP_RETURN 000077d200012ce9c442b200aff379bfb7e25b23cc0f42c2fc38c5e5bf9ae76da98a211a673ac5ea5c8ec9686083e0aacbeee2815baa14c20613fff26d9e1817bc9a9526289ac0f6612cd74e33776ee4"}, "value": 0.0, "n": 1}], "hex": "01000000013d1ea5c89e00bc20406229c840763583a62820675ee2bc7ae15c6eed6a3c1562000000006b483045022100ebdd0af57dea676c48af3ee739ebc61d93d92df47529b153cdc51e156a6f10aa0220265a6a875f6e834480eebee8dd4943b9c8bdac8bdda71a9dcbd1a73476adedbd0121020ff31a1f71c917b0cbe6b747247d4ceb2bba2a5c6800b7771562640d67c49e24ffffffff02f8db2100000000001976a914034649c239d4473de7821a3a924906b3822fe7f988ac0000000000000000536a4c50000077d200012ce9c442b200aff379bfb7e25b23cc0f42c2fc38c5e5bf9ae76da98a211a673ac5ea5c8ec9686083e0aacbeee2815baa14c20613fff26d9e1817bc9a9526289ac0f6612cd74e33776ee400000000", "vin": [{"sequence": 4294967295, "scriptSig": {"hex": "483045022100ebdd0af57dea676c48af3ee739ebc61d93d92df47529b153cdc51e156a6f10aa0220265a6a875f6e834480eebee8dd4943b9c8bdac8bdda71a9dcbd1a73476adedbd0121020ff31a1f71c917b0cbe6b747247d4ceb2bba2a5c6800b7771562640d67c49e24", "asm": "3045022100ebdd0af57dea676c48af3ee739ebc61d93d92df47529b153cdc51e156a6f10aa0220265a6a875f6e834480eebee8dd4943b9c8bdac8bdda71a9dcbd1a73476adedbd[ALL] 020ff31a1f71c917b0cbe6b747247d4ceb2bba2a5c6800b7771562640d67c49e24"}, "vout": 0, "txid": "62153c6aed6e5ce17abce25e672028a683357640c829624020bc009ec8a51e3d"}], "txid": "49970f4944ca6114c96d25324b17be71fbca6343e1bc5700a978797aeda4b52b", "blocktime": 1537873282, "version": 1, "confirmations": 11484, "time": 1537873282, "locktime": 0, "vsize": 284, "size": 284}