{"hash": "fa665fa16bcd484637f08cb33b692c15d53b99b76c66a5330373d48129b2a700", "blockhash": "0000000000000000000baef3f32e3676a92c3b2e5da21b426e4f302fc371ce76", "vout": [{"scriptPubKey": {"reqSigs": 1, "hex": "a914bdaae9fa7cb1bbd18a7dcd048028cd376ba0b35887", "addresses": ["3JytP7Q2P8CtM5tKAiJbzGdtiUyRVUdw6n"], "asm": "OP_HASH160 bdaae9fa7cb1bbd18a7dcd048028cd376ba0b358 OP_EQUAL", "type": "scripthash"}, "value": 0.00446083, "n": 0}, {"scriptPubKey": {"reqSigs": 1, "hex": "a9149cb626ded1b37226ed43aea96f03f8017ab5a2b387", "addresses": ["3FydYboVBaGyjYDgqVpxfNbjcbJRRskQsP"], "asm": "OP_HASH160 9cb626ded1b37226ed43aea96f03f8017ab5a2b3 OP_EQUAL", "type": "scripthash"}, "value": 0.17326576, "n": 1}], "hex": "0100000000010104285deaa1c5a6176496f61732e160c97f35ec7c8c7bd6e050bae8586445078501000000232200204424e1c9e98c5f2e17061827f94f28251ee51763904fb5d3b6cfda83630b9909ffffffff0283ce06000000000017a914bdaae9fa7cb1bbd18a7dcd048028cd376ba0b35887f06108010000000017a9149cb626ded1b37226ed43aea96f03f8017ab5a2b3870400483045022100f9d100e28703d6b68164d49e3566dd07802df4aed5f2bf096e712566ee39fddc0220344104e374070cec2c66b39c58fa6b048104d7350ce88ff26bbf976a54a64d2501483045022100f0d03334876aad6d3b2db82184ce11296664e63e070ce2002086743a2be93c85022002518cf87f1e70dd37f47dd1b60fa455a3c2c7434cdc2e09ef2f0cca57016d0a0147522103493a03b75d216b5167b49d8c6894f3d51bf6c70d8cc3ba51090b3f39b180cdda2103f62b1d27158b53be9caeae920614d9c61c0d4e3ab8a2b8afbc8e020933c6e68352ae00000000", "vin": [{"txinwitness": ["", "3045022100f9d100e28703d6b68164d49e3566dd07802df4aed5f2bf096e712566ee39fddc0220344104e374070cec2c66b39c58fa6b048104d7350ce88ff26bbf976a54a64d2501", "3045022100f0d03334876aad6d3b2db82184ce11296664e63e070ce2002086743a2be93c85022002518cf87f1e70dd37f47dd1b60fa455a3c2c7434cdc2e09ef2f0cca57016d0a01", "522103493a03b75d216b5167b49d8c6894f3d51bf6c70d8cc3ba51090b3f39b180cdda2103f62b1d27158b53be9caeae920614d9c61c0d4e3ab8a2b8afbc8e020933c6e68352ae"], "sequence": 4294967295, "scriptSig": {"hex": "2200204424e1c9e98c5f2e17061827f94f28251ee51763904fb5d3b6cfda83630b9909", "asm": "00204424e1c9e98c5f2e17061827f94f28251ee51763904fb5d3b6cfda83630b9909"}, "vout": 1, "txid": "8507456458e8ba50e0d67b8c7cec357fc960e13217f6966417a6c5a1ea5d2804"}], "txid": "49985355050297604f93c20752ffab8dcce3883541a859a033b78ce4af715e75", "blocktime": 1537876114, "version": 1, "confirmations": 11460, "time": 1537876114, "locktime": 0, "vsize": 206, "size": 372}