{"hash": "499852d25b06a12cd410b08f35ae35871cb5ff183427a6aa63ddb9ee70decf8a", "blockhash": "0000000000000000000e13cef7c366c0283d82e591d1acd082e914b08063cdf1", "vout": [{"scriptPubKey": {"reqSigs": 1, "hex": "a91411e65178e3d650f2575edfc787aa469f9a8abfa587", "addresses": ["33KfKbcDAoTdb2QavgZa28FEtUeQQHadYV"], "asm": "OP_HASH160 11e65178e3d650f2575edfc787aa469f9a8abfa5 OP_EQUAL", "type": "scripthash"}, "value": 0.00028, "n": 0}, {"scriptPubKey": {"reqSigs": 1, "hex": "76a9147e36f06dc47e8a45044b10f7c75340c83478995e88ac", "addresses": ["1CWMxQs3MTmQc6QkvQD64bqjDRBAaJHo1m"], "asm": "OP_DUP OP_HASH160 7e36f06dc47e8a45044b10f7c75340c83478995e OP_EQUALVERIFY OP_CHECKSIG", "type": "pubkeyhash"}, "value": 0.01238464, "n": 1}], "hex": "0100000001d8a8b4168e2023a30a26b5a6e5fd6ca421c2303deb9698971d8fb062b41817bb010000006a4730440220510a3db575df35df9e614860f6d796e0fdfc9a7d21295d95cd0b867bc8bf1fbd02204c9964cd9f6f72e7ee47bc02da10623fbcfae5b5bc7f725863dd584d3e1bc8c2012103d0a527f75efb344d1e74d301f6bcb3df98bbdd46a100a0dc96172553fa763414ffffffff02606d00000000000017a91411e65178e3d650f2575edfc787aa469f9a8abfa587c0e51200000000001976a9147e36f06dc47e8a45044b10f7c75340c83478995e88ac00000000", "vin": [{"sequence": 4294967295, "scriptSig": {"hex": "4730440220510a3db575df35df9e614860f6d796e0fdfc9a7d21295d95cd0b867bc8bf1fbd02204c9964cd9f6f72e7ee47bc02da10623fbcfae5b5bc7f725863dd584d3e1bc8c2012103d0a527f75efb344d1e74d301f6bcb3df98bbdd46a100a0dc96172553fa763414", "asm": "30440220510a3db575df35df9e614860f6d796e0fdfc9a7d21295d95cd0b867bc8bf1fbd02204c9964cd9f6f72e7ee47bc02da10623fbcfae5b5bc7f725863dd584d3e1bc8c2[ALL] 03d0a527f75efb344d1e74d301f6bcb3df98bbdd46a100a0dc96172553fa763414"}, "vout": 1, "txid": "bb1718b462b08f1d979896eb3d30c221a46cfde5a6b5260aa323208e16b4a8d8"}], "txid": "499852d25b06a12cd410b08f35ae35871cb5ff183427a6aa63ddb9ee70decf8a", "blocktime": 1537871767, "version": 1, "confirmations": 11495, "time": 1537871767, "locktime": 0, "vsize": 223, "size": 223}