{"hash": "49992075a37492ac1f56a1eeaf2f832ca5d108b55be3ab3d80dfe27ce27a06c1", "blockhash": "00000000000000000017f5eb5941039fbcee6240d03bc1f2f8e35350df66a1d8", "vout": [{"scriptPubKey": {"reqSigs": 1, "hex": "76a91490fad2e83d62465ecf870c6c5e96f1746d26a61588ac", "addresses": ["1EDanAu1qN1vsYayKXW2r94j8KrZcTeemq"], "asm": "OP_DUP OP_HASH160 90fad2e83d62465ecf870c6c5e96f1746d26a615 OP_EQUALVERIFY OP_CHECKSIG", "type": "pubkeyhash"}, "value": 0.00599172, "n": 0}, {"scriptPubKey": {"reqSigs": 1, "hex": "76a9140b005c7718bfb5b92d2ec2f6a5437f63ce1ed75788ac", "addresses": ["121AsCxhk4gmUwt6VxEnpvRc6RFScFewzQ"], "asm": "OP_DUP OP_HASH160 0b005c7718bfb5b92d2ec2f6a5437f63ce1ed757 OP_EQUALVERIFY OP_CHECKSIG", "type": "pubkeyhash"}, "value": 3.73, "n": 1}], "hex": "010000000200b359d228c2460320ff1d911dcd4b926f71cc96f9363eca152bb301f75b3b0d000000006a47304402206a14144f9a00fd7f040a206c8266eacc75fedb83382ac5ce66b22ff7e20695bd02201920076fff41fa1134ed4ebbad570930b2602cd40f14322d6ec506f47ccd08af01210379662633e17a9d98019ec8ebb5d0325f3fc10b0a1c8db5606680358f3989f5f4ffffffffd0d8389641dfa39e73b9160edf090930e167409855128fb1da3ad61dd2d0356a000000006a47304402203bb152b72b1325406419e9426737de3a999a804bccea0fcb6b536a44cd9dec9b02203efe92df949efd7bdd9710f3b1ad8ea58eb6a3e95912a363b670d87405227f2e012103148b901ef41549142ab4b8483f899117c7d63571863b19dee0440e8e134e5cebffffffff0284240900000000001976a91490fad2e83d62465ecf870c6c5e96f1746d26a61588ac40873b16000000001976a9140b005c7718bfb5b92d2ec2f6a5437f63ce1ed75788ac00000000", "vin": [{"sequence": 4294967295, "scriptSig": {"hex": "47304402206a14144f9a00fd7f040a206c8266eacc75fedb83382ac5ce66b22ff7e20695bd02201920076fff41fa1134ed4ebbad570930b2602cd40f14322d6ec506f47ccd08af01210379662633e17a9d98019ec8ebb5d0325f3fc10b0a1c8db5606680358f3989f5f4", "asm": "304402206a14144f9a00fd7f040a206c8266eacc75fedb83382ac5ce66b22ff7e20695bd02201920076fff41fa1134ed4ebbad570930b2602cd40f14322d6ec506f47ccd08af[ALL] 0379662633e17a9d98019ec8ebb5d0325f3fc10b0a1c8db5606680358f3989f5f4"}, "vout": 0, "txid": "0d3b5bf701b32b15ca3e36f996cc716f924bcd1d911dff200346c228d259b300"}, {"sequence": 4294967295, "scriptSig": {"hex": "47304402203bb152b72b1325406419e9426737de3a999a804bccea0fcb6b536a44cd9dec9b02203efe92df949efd7bdd9710f3b1ad8ea58eb6a3e95912a363b670d87405227f2e012103148b901ef41549142ab4b8483f899117c7d63571863b19dee0440e8e134e5ceb", "asm": "304402203bb152b72b1325406419e9426737de3a999a804bccea0fcb6b536a44cd9dec9b02203efe92df949efd7bdd9710f3b1ad8ea58eb6a3e95912a363b670d87405227f2e[ALL] 03148b901ef41549142ab4b8483f899117c7d63571863b19dee0440e8e134e5ceb"}, "vout": 0, "txid": "6a35d0d21dd63adab18f1255984067e1300909df0e16b9739ea3df419638d8d0"}], "txid": "49992075a37492ac1f56a1eeaf2f832ca5d108b55be3ab3d80dfe27ce27a06c1", "blocktime": 1537874412, "version": 1, "confirmations": 11467, "time": 1537874412, "locktime": 0, "vsize": 372, "size": 372}