{"hash": "499f02ad41e15527272ebb2df1d554f68d6802745c89e9d233f78a2bc6eef008", "blockhash": "00000000000000000017f5eb5941039fbcee6240d03bc1f2f8e35350df66a1d8", "vout": [{"scriptPubKey": {"reqSigs": 1, "hex": "76a9142ada9a956459e8ab6c2aaa44369255d5291ea6a588ac", "addresses": ["14ubFvFVaBgfxV44PBkPbjvd1ktXAsQ4Sf"], "asm": "OP_DUP OP_HASH160 2ada9a956459e8ab6c2aaa44369255d5291ea6a5 OP_EQUALVERIFY OP_CHECKSIG", "type": "pubkeyhash"}, "value": 0.22501607, "n": 0}, {"scriptPubKey": {"reqSigs": 1, "hex": "76a9149c2bc7e02f9de8b60ba8aac28ff4c68e868bcf0588ac", "addresses": ["1FEkrsFZCJD1bLt1CqDEAjyx91axxXjnuJ"], "asm": "OP_DUP OP_HASH160 9c2bc7e02f9de8b60ba8aac28ff4c68e868bcf05 OP_EQUALVERIFY OP_CHECKSIG", "type": "pubkeyhash"}, "value": 1.22842494, "n": 1}], "hex": "01000000016c08ebb8dc82c5d5013cee4173fe6ccdb0517c806707a97a3139c862e92603e2010000006a47304402203ee92413b2e2d3b7c248ff73154eb03cff8068a7aad83a0406ef68ec712e8945022078cc491d36f11f90508e601cd31c45688779db0fca346371ce20979b71d34c80012102050b41a59ebc5d869ae9076c50322433d00afd0dfe45a5f697d23c1af558d9feffffffff02e7585701000000001976a9142ada9a956459e8ab6c2aaa44369255d5291ea6a588ac7e6d5207000000001976a9149c2bc7e02f9de8b60ba8aac28ff4c68e868bcf0588ac00000000", "vin": [{"sequence": 4294967295, "scriptSig": {"hex": "47304402203ee92413b2e2d3b7c248ff73154eb03cff8068a7aad83a0406ef68ec712e8945022078cc491d36f11f90508e601cd31c45688779db0fca346371ce20979b71d34c80012102050b41a59ebc5d869ae9076c50322433d00afd0dfe45a5f697d23c1af558d9fe", "asm": "304402203ee92413b2e2d3b7c248ff73154eb03cff8068a7aad83a0406ef68ec712e8945022078cc491d36f11f90508e601cd31c45688779db0fca346371ce20979b71d34c80[ALL] 02050b41a59ebc5d869ae9076c50322433d00afd0dfe45a5f697d23c1af558d9fe"}, "vout": 1, "txid": "e20326e962c839317aa90767807c51b0cd6cfe7341ee3c01d5c582dcb8eb086c"}], "txid": "499f02ad41e15527272ebb2df1d554f68d6802745c89e9d233f78a2bc6eef008", "blocktime": 1537874412, "version": 1, "confirmations": 11467, "time": 1537874412, "locktime": 0, "vsize": 225, "size": 225}