{"hash": "da717a83177b1d0478e10b733765c2eda0dda9d00eb99253e37a0b00cd097ea1", "blockhash": "0000000000000000000e13cef7c366c0283d82e591d1acd082e914b08063cdf1", "vout": [{"scriptPubKey": {"reqSigs": 1, "hex": "a914e23f6caa93f2dff58287d35fd0be6f161ed96fd087", "addresses": ["3NKJchyxbUfP5Q1wQF9wFifVew96CFJ6zp"], "asm": "OP_HASH160 e23f6caa93f2dff58287d35fd0be6f161ed96fd0 OP_EQUAL", "type": "scripthash"}, "value": 0.18656204, "n": 0}, {"scriptPubKey": {"reqSigs": 1, "hex": "a9147161e404dc285374908f6cd1f1af482c76ec6d3c87", "addresses": ["3C2XYnX3EURT2uJTbuYwxgDuB7WmzmVG8t"], "asm": "OP_HASH160 7161e404dc285374908f6cd1f1af482c76ec6d3c OP_EQUAL", "type": "scripthash"}, "value": 0.00289293, "n": 1}], "hex": "020000000001017c2b6dab639265acb906f2bb3fc35857d72f952dc1ca2ce430b856c2835c66e40000000017160014a812e610fb2f470a250a8c301fb79430a87badbfffffffff02ccab1c010000000017a914e23f6caa93f2dff58287d35fd0be6f161ed96fd0870d6a04000000000017a9147161e404dc285374908f6cd1f1af482c76ec6d3c8702483045022100ad9afcf2b41849e5463ae0fdc4d1aa232c66747b034f8e1f05a11f1836d912d2022000e3bed334b83d0787f144e14f04099db85bb18c89a16f7ae871ec1f808b731e012103f56dbd6fa3f1f3d0393484b684fcd90484db3f706b7852334907e1bf14759f8700000000", "vin": [{"txinwitness": ["3045022100ad9afcf2b41849e5463ae0fdc4d1aa232c66747b034f8e1f05a11f1836d912d2022000e3bed334b83d0787f144e14f04099db85bb18c89a16f7ae871ec1f808b731e01", "03f56dbd6fa3f1f3d0393484b684fcd90484db3f706b7852334907e1bf14759f87"], "sequence": 4294967295, "scriptSig": {"hex": "160014a812e610fb2f470a250a8c301fb79430a87badbf", "asm": "0014a812e610fb2f470a250a8c301fb79430a87badbf"}, "vout": 0, "txid": "e4665c83c256b830e42ccac12d952fd75758c33fbbf206b9ac659263ab6d2b7c"}], "txid": "49a1f08d27d81c86cf44bdeb74e4ee395688cc9f9def5cbaad8c08e3d2aa3915", "blocktime": 1537871767, "version": 2, "confirmations": 11490, "time": 1537871767, "locktime": 0, "vsize": 166, "size": 248}