{"hash": "49a5745e67c242208260b5a7e2c9bc08d604741504a7d689588d0bbb5edf2a73", "blockhash": "0000000000000000001f0ddff1eddb255c1121bcd4da4f1bc9a0da00cae72433", "vout": [{"scriptPubKey": {"reqSigs": 1, "hex": "a91449489ecffe99c42a0d34011925380c8c36d9347087", "addresses": ["38NWFJGWmihirXUCBcTx5ieQigZBiBXnbg"], "asm": "OP_HASH160 49489ecffe99c42a0d34011925380c8c36d93470 OP_EQUAL", "type": "scripthash"}, "value": 0.00810765, "n": 0}, {"scriptPubKey": {"reqSigs": 1, "hex": "76a914aaf2878c2bb2f833ea84eee85fea8e26249444c188ac", "addresses": ["1GatQrbNFPFYnrWM7qgZvZ8YXUXJcd9m7x"], "asm": "OP_DUP OP_HASH160 aaf2878c2bb2f833ea84eee85fea8e26249444c1 OP_EQUALVERIFY OP_CHECKSIG", "type": "pubkeyhash"}, "value": 5.168e-05, "n": 1}], "hex": "020000000393563894fb8b24d854997c3abc0ad6c3b8c3c2f534e32c5c26aaee3468cfe28b000000006b483045022100e52bf8bcd5549d12a1f0367adee86eda7de3a820192e358db835761be8da02460220091ee9e254bf5562e1f7e966f4f22d4129ec0f7fda36e712adfd049dbc0b2787012102d6d66ac85ceb975bdfb5b8f52dd55bdd76b7c60a64c5abf27ed4c250eff65a47feffffff9b99ab07642ab34100b7e9952882abd1ab3810fc281eefafca282a422c474494010000006a47304402200b5408cb5aa216d1a0c7cc68640eb0300a96393061b949e24ab0e9d695ff829a02207988c114b76f53429712bbdd9562ef90f25a40d116257391eb67245a3078a17a012102f451ec1188b8b318e575102477de3fbab382ab45e8b5b45de8308f80b6f1f192feffffffe80fe32e16689d1d88bdd2ecca87ab72af95e1d50da698492197da3672378e7b0d0000006a473044022100e52501744fe6d5e4d935ea5c47912254fad0afcab3df8b46e65d4dc9cfec4eaf021f34b4cab63595666fbe9063d1a4e2aed02ba00e564786c9dbc133cb30b0cb0e0121034099e95f23da9a6d87dbb6545eb8c016ac69b0d2e93bc7f868771039b3ffe743feffffff020d5f0c000000000017a91449489ecffe99c42a0d34011925380c8c36d934708730140000000000001976a914aaf2878c2bb2f833ea84eee85fea8e26249444c188ac11490800", "vin": [{"sequence": 4294967294, "scriptSig": {"hex": "483045022100e52bf8bcd5549d12a1f0367adee86eda7de3a820192e358db835761be8da02460220091ee9e254bf5562e1f7e966f4f22d4129ec0f7fda36e712adfd049dbc0b2787012102d6d66ac85ceb975bdfb5b8f52dd55bdd76b7c60a64c5abf27ed4c250eff65a47", "asm": "3045022100e52bf8bcd5549d12a1f0367adee86eda7de3a820192e358db835761be8da02460220091ee9e254bf5562e1f7e966f4f22d4129ec0f7fda36e712adfd049dbc0b2787[ALL] 02d6d66ac85ceb975bdfb5b8f52dd55bdd76b7c60a64c5abf27ed4c250eff65a47"}, "vout": 0, "txid": "8be2cf6834eeaa265c2ce334f5c2c3b8c3d60abc3a7c9954d8248bfb94385693"}, {"sequence": 4294967294, "scriptSig": {"hex": "47304402200b5408cb5aa216d1a0c7cc68640eb0300a96393061b949e24ab0e9d695ff829a02207988c114b76f53429712bbdd9562ef90f25a40d116257391eb67245a3078a17a012102f451ec1188b8b318e575102477de3fbab382ab45e8b5b45de8308f80b6f1f192", "asm": "304402200b5408cb5aa216d1a0c7cc68640eb0300a96393061b949e24ab0e9d695ff829a02207988c114b76f53429712bbdd9562ef90f25a40d116257391eb67245a3078a17a[ALL] 02f451ec1188b8b318e575102477de3fbab382ab45e8b5b45de8308f80b6f1f192"}, "vout": 1, "txid": "9444472c422a28caafef1e28fc1038abd1ab822895e9b70041b32a6407ab999b"}, {"sequence": 4294967294, "scriptSig": {"hex": "473044022100e52501744fe6d5e4d935ea5c47912254fad0afcab3df8b46e65d4dc9cfec4eaf021f34b4cab63595666fbe9063d1a4e2aed02ba00e564786c9dbc133cb30b0cb0e0121034099e95f23da9a6d87dbb6545eb8c016ac69b0d2e93bc7f868771039b3ffe743", "asm": "3044022100e52501744fe6d5e4d935ea5c47912254fad0afcab3df8b46e65d4dc9cfec4eaf021f34b4cab63595666fbe9063d1a4e2aed02ba00e564786c9dbc133cb30b0cb0e[ALL] 034099e95f23da9a6d87dbb6545eb8c016ac69b0d2e93bc7f868771039b3ffe743"}, "vout": 13, "txid": "7b8e377236da97214998a60dd5e195af72ab87caecd2bd881d9d68162ee30fe8"}], "txid": "49a5745e67c242208260b5a7e2c9bc08d604741504a7d689588d0bbb5edf2a73", "blocktime": 1537872018, "version": 2, "confirmations": 11489, "time": 1537872018, "locktime": 542993, "vsize": 518, "size": 518}