{"hash": "bf4ec4cd8d5e5f02038b8590b297008faac3e0b046bb05ca7a38ae45f5382d2a", "blockhash": "00000000000000000024a2167bbff67b0be802c0b01cdd79e6331c2be6459f87", "vout": [{"scriptPubKey": {"reqSigs": 1, "hex": "a914a4fa1a6d7021c34de3bdbbe4012253e6df47b96387", "addresses": ["3GjLMUrw2rK9N3747XfxMPRkoawforZmoU"], "asm": "OP_HASH160 a4fa1a6d7021c34de3bdbbe4012253e6df47b963 OP_EQUAL", "type": "scripthash"}, "value": 0.01009573, "n": 0}, {"scriptPubKey": {"reqSigs": 1, "hex": "a914cd2db1d187cecf7e046476243bd4646053a41c6787", "addresses": ["3LPuBnXLS6raL6wgXtAsoFXcEb1sW5NH9m"], "asm": "OP_HASH160 cd2db1d187cecf7e046476243bd4646053a41c67 OP_EQUAL", "type": "scripthash"}, "value": 0.094817, "n": 1}], "hex": "020000000001082ace968a961489ede59e54c7952c4e87b5327a24ad54d282157c5606d922dec6000000001716001428b11079bd3ae01a4cb03e82a648a1be2ceaaeb8fdffffff2c1493fc216e607b2c2e70708f2765aa9ed727e41b71d0eb4dd1911972636e430400000017160014314ae31d0ae6d16db767f06c9a073c7fa1ea8660fdffffff91a4993015c93f4cc5af18caed45647cfbcc679e5b143d35a44d92c243cb58b000000000171600146473a3b5521d94f4b6a6396a260752bfc1863badfdffffffab474ab61c7850c55210e76c951a3d82bbfb87de312ef2826c421e43d9588e430000000017160014a22cd43baa556ef671a52709212fc56acc385ae3fdffffffb0cd28b0f70b48c0fb29dd36f867cf3b45e9a1c3200be116cde61a76d1b145bd0100000017160014314ae31d0ae6d16db767f06c9a073c7fa1ea8660fdffffffd397e5b3547e4d289d7caab23268ba438fad42cb3166fa1a4367acd23e85ad0e000000001716001495ad3406891eab21232861ef07e1a925c3d7330bfdffffffde2d6cf5379b01a3c7350dfe31018e980835a31506eefec0cb929b1a690beba90100000017160014314ae31d0ae6d16db767f06c9a073c7fa1ea8660fdffffffef7845a4b7a5e79677515948388b17ed0ef49b40af4a32f61047973e7e6db4dd0200000017160014314ae31d0ae6d16db767f06c9a073c7fa1ea8660fdffffff02a5670f000000000017a914a4fa1a6d7021c34de3bdbbe4012253e6df47b96387e4ad90000000000017a914cd2db1d187cecf7e046476243bd4646053a41c67870247304402200082a4919774f2ad232c9519df89749045e4a08c7841e8c24c6b2d44cce50c58022056640b73ed8eedfb6adf710089b695ea6e48d50ff08368e3d32160c9bdbe6d6c012102b780bcedca3b3703301beb97a75b98b9a91eff0230feb56fe41d1d3ca209d29e0247304402207f1b150ba2d179e5c6863b6895519ff58c2cde239b80a0df50c6d6a64c3cd9cc02202e1884b98500cff86008447edeef11c5a5d75e69d20a150206f930994231e942012103101636bd482435a762d477482000ba31d9b1208ce8ab808d90c8d7d65045c67e0247304402206b9516506ae447040567072a0a09f321699a6d9e6ff3b08f97bea379e480231702200dfac4aff974a5a6dee9af72702087018d52413c0c7eaa6866f4bd47dfafe95b012103c48be5dce9a35ac730c37eb7b4a480b2d5be7bf6eb798f060dc2551fde190398024830450221008f1900abcd6bc2b5bff8f5735202ee0564fe60d7e393901550fe9923716dd3fa02207ec0e9767001bc32ca24edbc84d7eb5d0cf67d994a8df9f077f4a94a870d248c012103fc911cd98869d9ff95b417d25c8cfb1c93ab988965989ae0114ece18adb5473f0247304402201529f8c8aac6062f311947124f7fe576f5fa70a697e80351c9eadca32ecde8dd022015104154dfaff381d9732068f41f128a73bd871924b73f986b1f13bbb790dce1012103101636bd482435a762d477482000ba31d9b1208ce8ab808d90c8d7d65045c67e02483045022100a3f639bf51fc3b7902578755df3c7f41f6bb2afd46d631a9736976d9f4cc6c4c022050b1a93a0c17f6833f86cf16f2253fac17d8b916c27f7b59da17aa0d1d9e0a06012103043817f24650c3730f988a73d9437d48c93be10e314b0dc7d1a2568e766bf67602473044022051d6ea72196ae47b572afc13560687adac502588e5dfa8105240d2ea25cd389102207fab14202ecdd85566f1f742ff4214dbc1afba8f9727df5cbf8ed5145161fec4012103101636bd482435a762d477482000ba31d9b1208ce8ab808d90c8d7d65045c67e02483045022100c1b7ea21f12e76742bc4d184a9b391104e748c29a5702cb7e6e6c980855ccb300220573bf1c8176edce88aca9c463bfdf7445efd03cc81932ed05193b8a714e1f03b012103101636bd482435a762d477482000ba31d9b1208ce8ab808d90c8d7d65045c67e0d490800", "vin": [{"txinwitness": ["304402200082a4919774f2ad232c9519df89749045e4a08c7841e8c24c6b2d44cce50c58022056640b73ed8eedfb6adf710089b695ea6e48d50ff08368e3d32160c9bdbe6d6c01", "02b780bcedca3b3703301beb97a75b98b9a91eff0230feb56fe41d1d3ca209d29e"], "sequence": 4294967293, "scriptSig": {"hex": "16001428b11079bd3ae01a4cb03e82a648a1be2ceaaeb8", "asm": "001428b11079bd3ae01a4cb03e82a648a1be2ceaaeb8"}, "vout": 0, "txid": "c6de22d906567c1582d254ad247a32b5874e2c95c7549ee5ed8914968a96ce2a"}, {"txinwitness": ["304402207f1b150ba2d179e5c6863b6895519ff58c2cde239b80a0df50c6d6a64c3cd9cc02202e1884b98500cff86008447edeef11c5a5d75e69d20a150206f930994231e94201", "03101636bd482435a762d477482000ba31d9b1208ce8ab808d90c8d7d65045c67e"], "sequence": 4294967293, "scriptSig": {"hex": "160014314ae31d0ae6d16db767f06c9a073c7fa1ea8660", "asm": "0014314ae31d0ae6d16db767f06c9a073c7fa1ea8660"}, "vout": 4, "txid": "436e63721991d14debd0711be427d79eaa65278f70702e2c7b606e21fc93142c"}, {"txinwitness": ["304402206b9516506ae447040567072a0a09f321699a6d9e6ff3b08f97bea379e480231702200dfac4aff974a5a6dee9af72702087018d52413c0c7eaa6866f4bd47dfafe95b01", "03c48be5dce9a35ac730c37eb7b4a480b2d5be7bf6eb798f060dc2551fde190398"], "sequence": 4294967293, "scriptSig": {"hex": "1600146473a3b5521d94f4b6a6396a260752bfc1863bad", "asm": "00146473a3b5521d94f4b6a6396a260752bfc1863bad"}, "vout": 0, "txid": "b058cb43c2924da4353d145b9e67ccfb7c6445edca18afc54c3fc9153099a491"}, {"txinwitness": ["30450221008f1900abcd6bc2b5bff8f5735202ee0564fe60d7e393901550fe9923716dd3fa02207ec0e9767001bc32ca24edbc84d7eb5d0cf67d994a8df9f077f4a94a870d248c01", "03fc911cd98869d9ff95b417d25c8cfb1c93ab988965989ae0114ece18adb5473f"], "sequence": 4294967293, "scriptSig": {"hex": "160014a22cd43baa556ef671a52709212fc56acc385ae3", "asm": "0014a22cd43baa556ef671a52709212fc56acc385ae3"}, "vout": 0, "txid": "438e58d9431e426c82f22e31de87fbbb823d1a956ce71052c550781cb64a47ab"}, {"txinwitness": ["304402201529f8c8aac6062f311947124f7fe576f5fa70a697e80351c9eadca32ecde8dd022015104154dfaff381d9732068f41f128a73bd871924b73f986b1f13bbb790dce101", "03101636bd482435a762d477482000ba31d9b1208ce8ab808d90c8d7d65045c67e"], "sequence": 4294967293, "scriptSig": {"hex": "160014314ae31d0ae6d16db767f06c9a073c7fa1ea8660", "asm": "0014314ae31d0ae6d16db767f06c9a073c7fa1ea8660"}, "vout": 1, "txid": "bd45b1d1761ae6cd16e10b20c3a1e9453bcf67f836dd29fbc0480bf7b028cdb0"}, {"txinwitness": ["3045022100a3f639bf51fc3b7902578755df3c7f41f6bb2afd46d631a9736976d9f4cc6c4c022050b1a93a0c17f6833f86cf16f2253fac17d8b916c27f7b59da17aa0d1d9e0a0601", "03043817f24650c3730f988a73d9437d48c93be10e314b0dc7d1a2568e766bf676"], "sequence": 4294967293, "scriptSig": {"hex": "16001495ad3406891eab21232861ef07e1a925c3d7330b", "asm": "001495ad3406891eab21232861ef07e1a925c3d7330b"}, "vout": 0, "txid": "0ead853ed2ac67431afa6631cb42ad8f43ba6832b2aa7c9d284d7e54b3e597d3"}, {"txinwitness": ["3044022051d6ea72196ae47b572afc13560687adac502588e5dfa8105240d2ea25cd389102207fab14202ecdd85566f1f742ff4214dbc1afba8f9727df5cbf8ed5145161fec401", "03101636bd482435a762d477482000ba31d9b1208ce8ab808d90c8d7d65045c67e"], "sequence": 4294967293, "scriptSig": {"hex": "160014314ae31d0ae6d16db767f06c9a073c7fa1ea8660", "asm": "0014314ae31d0ae6d16db767f06c9a073c7fa1ea8660"}, "vout": 1, "txid": "a9eb0b691a9b92cbc0feee0615a33508988e0131fe0d35c7a3019b37f56c2dde"}, {"txinwitness": ["3045022100c1b7ea21f12e76742bc4d184a9b391104e748c29a5702cb7e6e6c980855ccb300220573bf1c8176edce88aca9c463bfdf7445efd03cc81932ed05193b8a714e1f03b01", "03101636bd482435a762d477482000ba31d9b1208ce8ab808d90c8d7d65045c67e"], "sequence": 4294967293, "scriptSig": {"hex": "160014314ae31d0ae6d16db767f06c9a073c7fa1ea8660", "asm": "0014314ae31d0ae6d16db767f06c9a073c7fa1ea8660"}, "vout": 2, "txid": "ddb46d7e3e974710f6324aaf409bf40eed178b384859517796e7a5b7a44578ef"}], "txid": "49ab2b6ce7252d2ef057553b00d3379c3505f16ad3bbb67428b1ce717100d61f", "blocktime": 1537870564, "version": 2, "confirmations": 11515, "time": 1537870564, "locktime": 542989, "vsize": 802, "size": 1447}