{"hash": "49ab2c2bc181c90232cfce4ba8fa2ad1cfc8c2dfff9fa776f654cd5b64965766", "blockhash": "00000000000000000004ffacab907a6b429b9a5745fa0b75af4234bf69dd7176", "vout": [{"scriptPubKey": {"reqSigs": 1, "hex": "76a91468a21152831cb9e33d9be9311835cce7b59b5ed688ac", "addresses": ["1AYFRcLDV3bWKwxmDJHQQtQfpKfU4YV7uJ"], "asm": "OP_DUP OP_HASH160 68a21152831cb9e33d9be9311835cce7b59b5ed6 OP_EQUALVERIFY OP_CHECKSIG", "type": "pubkeyhash"}, "value": 0.05627415, "n": 0}, {"scriptPubKey": {"reqSigs": 1, "hex": "76a9147561953e5574e465dee03471995c863238f36b5488ac", "addresses": ["1BhexdTkDrMcXPvGzGoWBjKTeFWJDF5qEG"], "asm": "OP_DUP OP_HASH160 7561953e5574e465dee03471995c863238f36b54 OP_EQUALVERIFY OP_CHECKSIG", "type": "pubkeyhash"}, "value": 0.312741, "n": 1}], "hex": "0100000001b13f9f68c504fc43962e40abd0b7e7e1589afefac7df99390703c816d66f0a02000000006b48304502210098594676110aa7753da2871a914c6ada2e7d854eb49e71ae2c3540f7398ff951022043aed4920676795311a2862be6ebceaa9a2bbe71a889d0512a536e5c99a6c3c9012103d2de54277920f3b44f323507ad1482176db9343fd263e1c04095ab9ddf5b5ad6ffffffff0217de5500000000001976a91468a21152831cb9e33d9be9311835cce7b59b5ed688ac7434dd01000000001976a9147561953e5574e465dee03471995c863238f36b5488ac00000000", "vin": [{"sequence": 4294967295, "scriptSig": {"hex": "48304502210098594676110aa7753da2871a914c6ada2e7d854eb49e71ae2c3540f7398ff951022043aed4920676795311a2862be6ebceaa9a2bbe71a889d0512a536e5c99a6c3c9012103d2de54277920f3b44f323507ad1482176db9343fd263e1c04095ab9ddf5b5ad6", "asm": "304502210098594676110aa7753da2871a914c6ada2e7d854eb49e71ae2c3540f7398ff951022043aed4920676795311a2862be6ebceaa9a2bbe71a889d0512a536e5c99a6c3c9[ALL] 03d2de54277920f3b44f323507ad1482176db9343fd263e1c04095ab9ddf5b5ad6"}, "vout": 0, "txid": "020a6fd616c803073999dfc7fafe9a58e1e7b7d0ab402e9643fc04c5689f3fb1"}], "txid": "49ab2c2bc181c90232cfce4ba8fa2ad1cfc8c2dfff9fa776f654cd5b64965766", "blocktime": 1537875543, "version": 1, "confirmations": 11464, "time": 1537875543, "locktime": 0, "vsize": 226, "size": 226}