{"hash": "49b1660e1da55dc79a87fb9c9522d5eb32b7ab84f3297aa6880c7a35e6dbefa1", "blockhash": "0000000000000000001f0ddff1eddb255c1121bcd4da4f1bc9a0da00cae72433", "vout": [{"scriptPubKey": {"reqSigs": 1, "hex": "76a91460663f09f65b926d6e6eeffca62452d00604030288ac", "addresses": ["19niMcM6Jx2vm3cHM8LjgbUdAVZ8fSmatE"], "asm": "OP_DUP OP_HASH160 60663f09f65b926d6e6eeffca62452d006040302 OP_EQUALVERIFY OP_CHECKSIG", "type": "pubkeyhash"}, "value": 5.46e-06, "n": 0}, {"scriptPubKey": {"reqSigs": 1, "hex": "a9143f4eecba122ad73039d481c8d37f99cb4f887cd887", "addresses": ["37Tm3Qz8Zw2VJrheUUhArDAoq58S6YrS3g"], "asm": "OP_HASH160 3f4eecba122ad73039d481c8d37f99cb4f887cd8 OP_EQUAL", "type": "scripthash"}, "value": 0.99966902, "n": 1}, {"scriptPubKey": {"type": "nulldata", "hex": "6a146f6d6e69000000000000001f000001913caf3100", "asm": "OP_RETURN 6f6d6e69000000000000001f000001913caf3100"}, "value": 0.0, "n": 2}], "hex": "0100000001afb124c85f4b7749e213da2d3d7d6ee2a2253fcc650e52557604b2407e5a9d6b01000000fdfd00004830450221008c669f55311e696d1b868b2d380b32613d1f7e70f7e8e07d3e3ec0a99430c03202200abc3aa172e1fe017c6b7e5ae3b37a0583d195993b3402051678fdcd0f61b4110147304402201f28124bc1e895972f3740d2e26c8b21e47f30241d25c5fb46f7b64b5e473e9502207c973b342e7a5e70a793501178481bdac39d2ddf884c4933fa8d7285a07481f0014c6952210246ccf4de0c54cc7f3354cdd993c2c50cf965fd82238b89659fbd73a1b4bf05a121024fc59f72272a897fe43803374969f396058152fe4765a8d15216f94624257b1b21022593bc69ecbf3bbcc3c58082267cb49dadaf4ca8dbf1b2297338a9d628c4297653aeffffffff0322020000000000001976a91460663f09f65b926d6e6eeffca62452d00604030288acb65ff5050000000017a9143f4eecba122ad73039d481c8d37f99cb4f887cd8870000000000000000166a146f6d6e69000000000000001f000001913caf310000000000", "vin": [{"sequence": 4294967295, "scriptSig": {"hex": "004830450221008c669f55311e696d1b868b2d380b32613d1f7e70f7e8e07d3e3ec0a99430c03202200abc3aa172e1fe017c6b7e5ae3b37a0583d195993b3402051678fdcd0f61b4110147304402201f28124bc1e895972f3740d2e26c8b21e47f30241d25c5fb46f7b64b5e473e9502207c973b342e7a5e70a793501178481bdac39d2ddf884c4933fa8d7285a07481f0014c6952210246ccf4de0c54cc7f3354cdd993c2c50cf965fd82238b89659fbd73a1b4bf05a121024fc59f72272a897fe43803374969f396058152fe4765a8d15216f94624257b1b21022593bc69ecbf3bbcc3c58082267cb49dadaf4ca8dbf1b2297338a9d628c4297653ae", "asm": "0 30450221008c669f55311e696d1b868b2d380b32613d1f7e70f7e8e07d3e3ec0a99430c03202200abc3aa172e1fe017c6b7e5ae3b37a0583d195993b3402051678fdcd0f61b411[ALL] 304402201f28124bc1e895972f3740d2e26c8b21e47f30241d25c5fb46f7b64b5e473e9502207c973b342e7a5e70a793501178481bdac39d2ddf884c4933fa8d7285a07481f0[ALL] 52210246ccf4de0c54cc7f3354cdd993c2c50cf965fd82238b89659fbd73a1b4bf05a121024fc59f72272a897fe43803374969f396058152fe4765a8d15216f94624257b1b21022593bc69ecbf3bbcc3c58082267cb49dadaf4ca8dbf1b2297338a9d628c4297653ae"}, "vout": 1, "txid": "6b9d5a7e40b2047655520e65cc3f25a2e26e7d3d2dda13e249774b5fc824b1af"}], "txid": "49b1660e1da55dc79a87fb9c9522d5eb32b7ab84f3297aa6880c7a35e6dbefa1", "blocktime": 1537872018, "version": 1, "confirmations": 11489, "time": 1537872018, "locktime": 0, "vsize": 403, "size": 403}