{"hash": "49b6dbb1f31ff54375903b710db0e1ebc1f005581b5eb7e6c0f399194cea21d1", "blockhash": "0000000000000000001cda96e906b7601b7a6fb1a3b62bca570a9e5d8f4b3de1", "vout": [{"scriptPubKey": {"type": "nulldata", "hex": "6a146f6d6e69000000000000001f00000246139ca800", "asm": "OP_RETURN 6f6d6e69000000000000001f00000246139ca800"}, "value": 0.0, "n": 0}, {"scriptPubKey": {"reqSigs": 1, "hex": "76a9140b24cf24aaa09b9a8d6e47265970e6ce2bb947cc88ac", "addresses": ["121vXezDKGsgbdDosv4cKa7PmMpApg2Dac"], "asm": "OP_DUP OP_HASH160 0b24cf24aaa09b9a8d6e47265970e6ce2bb947cc OP_EQUALVERIFY OP_CHECKSIG", "type": "pubkeyhash"}, "value": 0.02332521, "n": 1}, {"scriptPubKey": {"reqSigs": 1, "hex": "76a91484d5a03ed2cf0d9bbca318c1a21952fb64903eaf88ac", "addresses": ["1D7N7KBPt5NVJe77HDZobPYS4wVqABNKRC"], "asm": "OP_DUP OP_HASH160 84d5a03ed2cf0d9bbca318c1a21952fb64903eaf OP_EQUALVERIFY OP_CHECKSIG", "type": "pubkeyhash"}, "value": 5.46e-06, "n": 2}], "hex": "0100000001741f71ef7d7574d872d540c44d1b0f3c96e369467dfcfff174d497c34326bd21020000006a47304402202a3db90d7f5e9f4d712a7e844f97b0343cbee6b3ab1b23605127041ba0e20207022013b00ba9be2340349228bb7c39971f911e4395612563794a22ba17b7af145ad60121021b8856c93686bcd48d92610b9a032e1f5333f8292d50f87d550ffd2b78e06263feffffff030000000000000000166a146f6d6e69000000000000001f00000246139ca80069972300000000001976a9140b24cf24aaa09b9a8d6e47265970e6ce2bb947cc88ac22020000000000001976a91484d5a03ed2cf0d9bbca318c1a21952fb64903eaf88ac13490800", "vin": [{"sequence": 4294967294, "scriptSig": {"hex": "47304402202a3db90d7f5e9f4d712a7e844f97b0343cbee6b3ab1b23605127041ba0e20207022013b00ba9be2340349228bb7c39971f911e4395612563794a22ba17b7af145ad60121021b8856c93686bcd48d92610b9a032e1f5333f8292d50f87d550ffd2b78e06263", "asm": "304402202a3db90d7f5e9f4d712a7e844f97b0343cbee6b3ab1b23605127041ba0e20207022013b00ba9be2340349228bb7c39971f911e4395612563794a22ba17b7af145ad6[ALL] 021b8856c93686bcd48d92610b9a032e1f5333f8292d50f87d550ffd2b78e06263"}, "vout": 2, "txid": "21bd2643c397d474f1fffc7d4669e3963c0f1b4dc440d572d874757def711f74"}], "txid": "49b6dbb1f31ff54375903b710db0e1ebc1f005581b5eb7e6c0f399194cea21d1", "blocktime": 1537873282, "version": 1, "confirmations": 11480, "time": 1537873282, "locktime": 542995, "vsize": 256, "size": 256}