{"hash": "c96652fa7fa89e3022b2dc6fff233485b4849e20f4b6a933920799ef88ffc4a4", "blockhash": "0000000000000000000dcc0f55137456b1a82d3642486a52398922ac4d620174", "vout": [{"scriptPubKey": {"reqSigs": 1, "hex": "a914e3f0a66ed82401a21b4ec3036adf85068477eae987", "addresses": ["3NUFbkeWCukrswu6aMQCmkaReiJCojyRcd"], "asm": "OP_HASH160 e3f0a66ed82401a21b4ec3036adf85068477eae9 OP_EQUAL", "type": "scripthash"}, "value": 0.68833448, "n": 0}, {"scriptPubKey": {"reqSigs": 1, "hex": "a914c3e7299d69a55248411ca4beac01d1feb313740a87", "addresses": ["3KYrcQYk11gsYqMDbdoDr1XnGmEV3gTFTU"], "asm": "OP_HASH160 c3e7299d69a55248411ca4beac01d1feb313740a OP_EQUAL", "type": "scripthash"}, "value": 0.41212892, "n": 1}], "hex": "01000000000101783be2c7c9a22026a0d631718fdf8b38415feb93319f82e1090d315dcf87c0cc010000001716001449ed0d0d6ef902895a2dc4ff9605f0f8270f2d02ffffff0002a8501a040000000017a914e3f0a66ed82401a21b4ec3036adf85068477eae987dcdb74020000000017a914c3e7299d69a55248411ca4beac01d1feb313740a870247304402207d7685e807ef8e88e1d908c1ec16f359455ee901ad8a8e7c98016f39d38b6473022067673487e623b518580a448d4de8386fb5b533b9f58895153c1efe654d71f1280121035d26177490ee1be3ec0ea7bd3e4770c69a5b4b37b86882067962f04c553115da00000000", "vin": [{"txinwitness": ["304402207d7685e807ef8e88e1d908c1ec16f359455ee901ad8a8e7c98016f39d38b6473022067673487e623b518580a448d4de8386fb5b533b9f58895153c1efe654d71f12801", "035d26177490ee1be3ec0ea7bd3e4770c69a5b4b37b86882067962f04c553115da"], "sequence": 16777215, "scriptSig": {"hex": "16001449ed0d0d6ef902895a2dc4ff9605f0f8270f2d02", "asm": "001449ed0d0d6ef902895a2dc4ff9605f0f8270f2d02"}, "vout": 1, "txid": "ccc087cf5d310d09e1829f3193eb5f41388bdf8f7131d6a02620a2c9c7e23b78"}], "txid": "49b853e9d395f400dd72ccd9f06d37f87fb39b179a0f92929674f01c8a8bedba", "blocktime": 1537870268, "version": 1, "confirmations": 11516, "time": 1537870268, "locktime": 0, "vsize": 166, "size": 247}