{"hash": "49cb212fe37290c320111ca75ec8c7b867fa6fb3908fe31e66ba68563d34c3de", "blockhash": "00000000000000000017f5eb5941039fbcee6240d03bc1f2f8e35350df66a1d8", "vout": [{"scriptPubKey": {"reqSigs": 1, "hex": "a91429a1e57ee63ae9a8e0fb17e0ad057da634b0c2a087", "addresses": ["35V9aAxndpADozF3Kd6AQSJ4FCZMT6sZQQ"], "asm": "OP_HASH160 29a1e57ee63ae9a8e0fb17e0ad057da634b0c2a0 OP_EQUAL", "type": "scripthash"}, "value": 0.01895, "n": 0}, {"scriptPubKey": {"reqSigs": 1, "hex": "76a9142e1f24040bf3f9275d4002b809cc9ed560e0e50488ac", "addresses": ["15CsPWzLzuUrCHVUtkmSw7Aobj3bm3VCST"], "asm": "OP_DUP OP_HASH160 2e1f24040bf3f9275d4002b809cc9ed560e0e504 OP_EQUALVERIFY OP_CHECKSIG", "type": "pubkeyhash"}, "value": 0.040162, "n": 1}], "hex": "01000000010f539aab1306cee8c39298799a2cd745331e9888da577dbfe64d354d8bf6b364010000006a473044022047a3763bf03506f7aeeb70589c37b645d54d3c7d40f37f6ec6bebed4bd9b10e502202147e156c8b4f25e02ecbece598728784c2099bcda85603cd019237838814b9d012103710c8ca95757d64a0547a2693d404f9c69c0aad566f421d46a4beb3e9d4321adfeffffff0258ea1c000000000017a91429a1e57ee63ae9a8e0fb17e0ad057da634b0c2a08748483d00000000001976a9142e1f24040bf3f9275d4002b809cc9ed560e0e50488ac15490800", "vin": [{"sequence": 4294967294, "scriptSig": {"hex": "473044022047a3763bf03506f7aeeb70589c37b645d54d3c7d40f37f6ec6bebed4bd9b10e502202147e156c8b4f25e02ecbece598728784c2099bcda85603cd019237838814b9d012103710c8ca95757d64a0547a2693d404f9c69c0aad566f421d46a4beb3e9d4321ad", "asm": "3044022047a3763bf03506f7aeeb70589c37b645d54d3c7d40f37f6ec6bebed4bd9b10e502202147e156c8b4f25e02ecbece598728784c2099bcda85603cd019237838814b9d[ALL] 03710c8ca95757d64a0547a2693d404f9c69c0aad566f421d46a4beb3e9d4321ad"}, "vout": 1, "txid": "64b3f68b4d354de6bf7d57da88981e3345d72c9a799892c3e8ce0613ab9a530f"}], "txid": "49cb212fe37290c320111ca75ec8c7b867fa6fb3908fe31e66ba68563d34c3de", "blocktime": 1537874412, "version": 1, "confirmations": 11467, "time": 1537874412, "locktime": 542997, "vsize": 223, "size": 223}