{"hash": "49cdf12f39e469cd4b0ed43ce48257e9247fa311f734b0078851d2cfb1ad17e1", "blockhash": "00000000000000000004ffacab907a6b429b9a5745fa0b75af4234bf69dd7176", "vout": [{"scriptPubKey": {"reqSigs": 1, "hex": "76a91481f86379b60a638f7a646d1929caa078b289b99388ac", "addresses": ["1CrDj63TapVjKLLDYfR8AFyq6yYCNTHu3z"], "asm": "OP_DUP OP_HASH160 81f86379b60a638f7a646d1929caa078b289b993 OP_EQUALVERIFY OP_CHECKSIG", "type": "pubkeyhash"}, "value": 1.0, "n": 0}, {"scriptPubKey": {"reqSigs": 1, "hex": "76a9147e68c1788e080edcf810c0cef3a60535b954adee88ac", "addresses": ["1CXPdjC9MfKzwfGsPYkiWcgvGvZVyxjY4q"], "asm": "OP_DUP OP_HASH160 7e68c1788e080edcf810c0cef3a60535b954adee OP_EQUALVERIFY OP_CHECKSIG", "type": "pubkeyhash"}, "value": 0.3342, "n": 1}], "hex": "01000000027e09064428791cc8f86a01d1c7dafc171b800baff6efc90559c63dcfc438d469010000006a473044022027765104fdee9c066592caa607295eb78327ba19de19680b57a41669f80894050220253a4e4a4b6bf4013265c3cf4ec04584a82b75ac8ad35b08e8862e1a897dd8bf012103d903b842173184b52ec473604cd08c7b148693376bcf636cfb95cef9fdadfb10ffffffff7e09064428791cc8f86a01d1c7dafc171b800baff6efc90559c63dcfc438d469000000006b483045022100e3cf16080a57f09bdce736f24fc1ebe4704ff763c309aa6d9b059b9d557d775402201f548d4f229b828a90108c54ff183dbac8a9f1eed2f4187a7045c9121a6a295f012103f136030c19f9b9de6db5af545ba4d04149792f2ef0aaef7e84c250d2257ea2b9ffffffff0200e1f505000000001976a91481f86379b60a638f7a646d1929caa078b289b99388ace0f2fd01000000001976a9147e68c1788e080edcf810c0cef3a60535b954adee88ac00000000", "vin": [{"sequence": 4294967295, "scriptSig": {"hex": "473044022027765104fdee9c066592caa607295eb78327ba19de19680b57a41669f80894050220253a4e4a4b6bf4013265c3cf4ec04584a82b75ac8ad35b08e8862e1a897dd8bf012103d903b842173184b52ec473604cd08c7b148693376bcf636cfb95cef9fdadfb10", "asm": "3044022027765104fdee9c066592caa607295eb78327ba19de19680b57a41669f80894050220253a4e4a4b6bf4013265c3cf4ec04584a82b75ac8ad35b08e8862e1a897dd8bf[ALL] 03d903b842173184b52ec473604cd08c7b148693376bcf636cfb95cef9fdadfb10"}, "vout": 1, "txid": "69d438c4cf3dc65905c9eff6af0b801b17fcdac7d1016af8c81c79284406097e"}, {"sequence": 4294967295, "scriptSig": {"hex": "483045022100e3cf16080a57f09bdce736f24fc1ebe4704ff763c309aa6d9b059b9d557d775402201f548d4f229b828a90108c54ff183dbac8a9f1eed2f4187a7045c9121a6a295f012103f136030c19f9b9de6db5af545ba4d04149792f2ef0aaef7e84c250d2257ea2b9", "asm": "3045022100e3cf16080a57f09bdce736f24fc1ebe4704ff763c309aa6d9b059b9d557d775402201f548d4f229b828a90108c54ff183dbac8a9f1eed2f4187a7045c9121a6a295f[ALL] 03f136030c19f9b9de6db5af545ba4d04149792f2ef0aaef7e84c250d2257ea2b9"}, "vout": 0, "txid": "69d438c4cf3dc65905c9eff6af0b801b17fcdac7d1016af8c81c79284406097e"}], "txid": "49cdf12f39e469cd4b0ed43ce48257e9247fa311f734b0078851d2cfb1ad17e1", "blocktime": 1537875543, "version": 1, "confirmations": 11464, "time": 1537875543, "locktime": 0, "vsize": 373, "size": 373}