{"hash": "b056302e317fa950c005157ceb4e6b82f69634ba9c889ca80bff658d3e0da166", "blockhash": "0000000000000000001cda96e906b7601b7a6fb1a3b62bca570a9e5d8f4b3de1", "vout": [{"scriptPubKey": {"reqSigs": 1, "hex": "a9148e605a0206e96d6ba58b392a80642b091c0ea6ae87", "addresses": ["3EfqJQieiNfgHuno3nxvJ6re6E9QwHdmW8"], "asm": "OP_HASH160 8e605a0206e96d6ba58b392a80642b091c0ea6ae OP_EQUAL", "type": "scripthash"}, "value": 0.00593048, "n": 0}, {"scriptPubKey": {"reqSigs": 1, "hex": "a914efe811e16035e6ecb9a93866643087b3e525c4f787", "addresses": ["3PZXRtPHPPhB577xJLarVJjT7JLj9Ejfgs"], "asm": "OP_HASH160 efe811e16035e6ecb9a93866643087b3e525c4f7 OP_EQUAL", "type": "scripthash"}, "value": 0.24706349, "n": 1}, {"scriptPubKey": {"reqSigs": 1, "hex": "a9145767c267e4271c901465bec31f639cd073f0101087", "addresses": ["39fB1ZZynHspLkcKoaYdHRjGMSsUQfgDoU"], "asm": "OP_HASH160 5767c267e4271c901465bec31f639cd073f01010 OP_EQUAL", "type": "scripthash"}, "value": 0.0006, "n": 2}], "hex": "010000000001016967418c3d76c7130405989abb8ead93fd8462f2e0b218a5838c979144aa4981040000002322002097a96b7423066470688915c026127c9bba8d55a951c8921845ee8e2a191c2009ffffffff03980c09000000000017a9148e605a0206e96d6ba58b392a80642b091c0ea6ae872dfd78010000000017a914efe811e16035e6ecb9a93866643087b3e525c4f78760ea00000000000017a9145767c267e4271c901465bec31f639cd073f0101087040047304402201d6a5bb16c9c8e42a723d21db6ea41e1bc8031c1950f71c26fabae5082d6b85302206ce9c8e05047672a68ca919ecaf9d99de68eb470e4d61b1a7fa56d2ba657b1560147304402202f57ed9007a01976a38161a60104803bafb76b04cd4c2096936c8de271c2c24002203a7d850954de2273bb61645b11a3c18168bf0d0dd6e83d491b53208f832ae2580169522103c521e9ab23ea300010d5135d6a52ebac76da62304760b48c75d303d8b493606221033e63982a4d9eb6c9c7c9909da1266e04f877ad88ba3c9267edc71c9edd00e95a210224f0d3dba9bbd2bcd0592651a4a52d54c03613511f93ea286d4574bd252783a353ae00000000", "vin": [{"txinwitness": ["", "304402201d6a5bb16c9c8e42a723d21db6ea41e1bc8031c1950f71c26fabae5082d6b85302206ce9c8e05047672a68ca919ecaf9d99de68eb470e4d61b1a7fa56d2ba657b15601", "304402202f57ed9007a01976a38161a60104803bafb76b04cd4c2096936c8de271c2c24002203a7d850954de2273bb61645b11a3c18168bf0d0dd6e83d491b53208f832ae25801", "522103c521e9ab23ea300010d5135d6a52ebac76da62304760b48c75d303d8b493606221033e63982a4d9eb6c9c7c9909da1266e04f877ad88ba3c9267edc71c9edd00e95a210224f0d3dba9bbd2bcd0592651a4a52d54c03613511f93ea286d4574bd252783a353ae"], "sequence": 4294967295, "scriptSig": {"hex": "22002097a96b7423066470688915c026127c9bba8d55a951c8921845ee8e2a191c2009", "asm": "002097a96b7423066470688915c026127c9bba8d55a951c8921845ee8e2a191c2009"}, "vout": 4, "txid": "8149aa4491978c83a518b2e0f26284fd93ad8ebb9a98050413c7763d8c416769"}], "txid": "49d0d1eab73698e9fa7adb5f8b0be8dec55791a0959b3f80385c9b9812ed16a7", "blocktime": 1537873282, "version": 1, "confirmations": 11485, "time": 1537873282, "locktime": 0, "vsize": 246, "size": 436}