{"hash": "49d01b01ce23e2769cc735cc48619db6f6751e4c3a6894839c784ae447a69a9f", "blockhash": "0000000000000000000e13cef7c366c0283d82e591d1acd082e914b08063cdf1", "vout": [{"scriptPubKey": {"reqSigs": 1, "hex": "a9147d294bf0da29e428b193de50229388bd3b70b15387", "addresses": ["3D6ors3eyQ527sEzgfS7KTbZDZq26vQCXP"], "asm": "OP_HASH160 7d294bf0da29e428b193de50229388bd3b70b153 OP_EQUAL", "type": "scripthash"}, "value": 0.00031236, "n": 0}, {"scriptPubKey": {"reqSigs": 1, "hex": "76a914852ea35f071813ecf9751abe65049de61cbf8c5788ac", "addresses": ["1D9CjzS6u5ArSoEGqkqUEz4j55iA3rsFCL"], "asm": "OP_DUP OP_HASH160 852ea35f071813ecf9751abe65049de61cbf8c57 OP_EQUALVERIFY OP_CHECKSIG", "type": "pubkeyhash"}, "value": 0.04440213, "n": 1}], "hex": "0200000001e170cd1a297e626825cb4f1b743e63c426c64d1fc012a72733c3a8137d1b2846010000006b483045022100de07a0f7b2cafa5f67ad965d3518c3852c13888de397302f9a2842fc9dfd7f77022028e94731302dcf0149e76778481a6031178bb62fd81767762b935fae9f898715012103ad9345c23921567f0abf3339bb67fe7dde30c759d2837f65e6d4230853bddca5ffffffff02047a00000000000017a9147d294bf0da29e428b193de50229388bd3b70b1538795c04300000000001976a914852ea35f071813ecf9751abe65049de61cbf8c5788ac00000000", "vin": [{"sequence": 4294967295, "scriptSig": {"hex": "483045022100de07a0f7b2cafa5f67ad965d3518c3852c13888de397302f9a2842fc9dfd7f77022028e94731302dcf0149e76778481a6031178bb62fd81767762b935fae9f898715012103ad9345c23921567f0abf3339bb67fe7dde30c759d2837f65e6d4230853bddca5", "asm": "3045022100de07a0f7b2cafa5f67ad965d3518c3852c13888de397302f9a2842fc9dfd7f77022028e94731302dcf0149e76778481a6031178bb62fd81767762b935fae9f898715[ALL] 03ad9345c23921567f0abf3339bb67fe7dde30c759d2837f65e6d4230853bddca5"}, "vout": 1, "txid": "46281b7d13a8c33327a712c01f4dc626c4633e741b4fcb2568627e291acd70e1"}], "txid": "49d01b01ce23e2769cc735cc48619db6f6751e4c3a6894839c784ae447a69a9f", "blocktime": 1537871767, "version": 2, "confirmations": 11494, "time": 1537871767, "locktime": 0, "vsize": 224, "size": 224}