{"hash": "49d0652381b2c883505053aca95b7cf0f65cc2b46fab62715902cc7245b97415", "blockhash": "0000000000000000001f76057863aec43deb6fa401d9628bb513d65a8098bfab", "vout": [{"scriptPubKey": {"reqSigs": 1, "hex": "a9147f9a5f59a87bd0c8cffcf1caeb9ce8287d74e54187", "addresses": ["3DKiftjyv1uzEbJfU8zPXmNPv58AU5LyQ6"], "asm": "OP_HASH160 7f9a5f59a87bd0c8cffcf1caeb9ce8287d74e541 OP_EQUAL", "type": "scripthash"}, "value": 0.07943704, "n": 0}], "hex": "0100000001e2f79ec2cea31715f16570a9b6c135d8f58dd832728bb5e5bacb097be79413ea000000006b483045022100f4fba1d1fd3072207236526c6e11de2bd21e75ac7a7db858d9d98bf04eb31e2f022031330c9b2a63716a555ba60829eb4748f85a1472a12dc291651c62e60647ac250121021766157bda5098455bf807ae6562e4f20cef69592585396a1d3e44c41f2bf6d6ffffffff01183679000000000017a9147f9a5f59a87bd0c8cffcf1caeb9ce8287d74e5418700000000", "vin": [{"sequence": 4294967295, "scriptSig": {"hex": "483045022100f4fba1d1fd3072207236526c6e11de2bd21e75ac7a7db858d9d98bf04eb31e2f022031330c9b2a63716a555ba60829eb4748f85a1472a12dc291651c62e60647ac250121021766157bda5098455bf807ae6562e4f20cef69592585396a1d3e44c41f2bf6d6", "asm": "3045022100f4fba1d1fd3072207236526c6e11de2bd21e75ac7a7db858d9d98bf04eb31e2f022031330c9b2a63716a555ba60829eb4748f85a1472a12dc291651c62e60647ac25[ALL] 021766157bda5098455bf807ae6562e4f20cef69592585396a1d3e44c41f2bf6d6"}, "vout": 0, "txid": "ea1394e77b09cbbae5b58b7232d88df5d835c1b6a97065f11517a3cec29ef7e2"}], "txid": "49d0652381b2c883505053aca95b7cf0f65cc2b46fab62715902cc7245b97415", "blocktime": 1537873891, "version": 1, "confirmations": 11475, "time": 1537873891, "locktime": 0, "vsize": 190, "size": 190}