{"hash": "49d129afe8579403786aa75e9fc7a256351c876e6060ce350867c604e94966e5", "blockhash": "00000000000000000018f53835495a110e01622372bf6ae95dc86f2b0ab887b0", "vout": [{"scriptPubKey": {"reqSigs": 1, "hex": "76a914ae96baab60b934e190ec71f495366d63894fe14688ac", "addresses": ["1Gv99E55AH8hWTg1HXxruCcHii3uj4Vw4v"], "asm": "OP_DUP OP_HASH160 ae96baab60b934e190ec71f495366d63894fe146 OP_EQUALVERIFY OP_CHECKSIG", "type": "pubkeyhash"}, "value": 0.092494, "n": 0}, {"scriptPubKey": {"reqSigs": 1, "hex": "76a9147f4722b6f3331f472d200ad38f4e0b886332f34b88ac", "addresses": ["1Cbz2x9n82FBLZbqRjyTSYurfyTajfNEXg"], "asm": "OP_DUP OP_HASH160 7f4722b6f3331f472d200ad38f4e0b886332f34b OP_EQUALVERIFY OP_CHECKSIG", "type": "pubkeyhash"}, "value": 0.1463, "n": 1}], "hex": "01000000025dfa83a502130b2acd25a43a4b94eb073874d2f0e513dbe9a6a4d8fc4ffbc90b000000006a4730440220763f94529192f2f3b6c7be42b96688a47b029e9b257fed31dd662cd0f0f8c507022019c1373c026fa01052248565a3f7185f6c6b81aea391bdd9dab12738f991a3da01210301af5b46ecd5a867b0f2e38276257996b3a7faecd80e9ee1ee46dfc450def3a0fdfffffffd8698d0260801289ea1fbdb12418fefcc6beb864281932c026892cc3098d21a1e00000069463043021f52e9355de9ea48248abf6b93954e63b5fc2d1cfc33c167db42a5e3a42a6b410220768e76958fd5706910f7c88fa359299afb7e46d9081616d24ed3af430ebbf4e9012103e64a519176b085bbf330c7ad04985687ab29510202691c18d9dceccbd4ce043afdffffff0278228d00000000001976a914ae96baab60b934e190ec71f495366d63894fe14688ac703cdf00000000001976a9147f4722b6f3331f472d200ad38f4e0b886332f34b88ac0e490800", "vin": [{"sequence": 4294967293, "scriptSig": {"hex": "4730440220763f94529192f2f3b6c7be42b96688a47b029e9b257fed31dd662cd0f0f8c507022019c1373c026fa01052248565a3f7185f6c6b81aea391bdd9dab12738f991a3da01210301af5b46ecd5a867b0f2e38276257996b3a7faecd80e9ee1ee46dfc450def3a0", "asm": "30440220763f94529192f2f3b6c7be42b96688a47b029e9b257fed31dd662cd0f0f8c507022019c1373c026fa01052248565a3f7185f6c6b81aea391bdd9dab12738f991a3da[ALL] 0301af5b46ecd5a867b0f2e38276257996b3a7faecd80e9ee1ee46dfc450def3a0"}, "vout": 0, "txid": "0bc9fb4ffcd8a4a6e9db13e5f0d2743807eb944b3aa425cd2a0b1302a583fa5d"}, {"sequence": 4294967293, "scriptSig": {"hex": "463043021f52e9355de9ea48248abf6b93954e63b5fc2d1cfc33c167db42a5e3a42a6b410220768e76958fd5706910f7c88fa359299afb7e46d9081616d24ed3af430ebbf4e9012103e64a519176b085bbf330c7ad04985687ab29510202691c18d9dceccbd4ce043a", "asm": "3043021f52e9355de9ea48248abf6b93954e63b5fc2d1cfc33c167db42a5e3a42a6b410220768e76958fd5706910f7c88fa359299afb7e46d9081616d24ed3af430ebbf4e9[ALL] 03e64a519176b085bbf330c7ad04985687ab29510202691c18d9dceccbd4ce043a"}, "vout": 30, "txid": "1ad29830cc9268022c93814286eb6bccef8f4112dbfba19e28010826d09886fd"}], "txid": "49d129afe8579403786aa75e9fc7a256351c876e6060ce350867c604e94966e5", "blocktime": 1537870928, "version": 1, "confirmations": 11514, "time": 1537870928, "locktime": 542990, "vsize": 371, "size": 371}