{"hash": "49d78cfd25220d0da5ada8bca51183d742491f23b70db82190d7fb46da5b0440", "blockhash": "0000000000000000000dcc0f55137456b1a82d3642486a52398922ac4d620174", "vout": [{"scriptPubKey": {"reqSigs": 1, "hex": "a91469f37445291e1295711bfc810f87fdc581d4316c87", "addresses": ["3BMEXBLDodZzM16RX5i3VYXPuWsgxaLPng"], "asm": "OP_HASH160 69f37445291e1295711bfc810f87fdc581d4316c OP_EQUAL", "type": "scripthash"}, "value": 0.080352, "n": 0}, {"scriptPubKey": {"reqSigs": 1, "hex": "76a914d5ba2eb2d52670fbe9522748bf642da754eb0d6f88ac", "addresses": ["1LV5y3NkVkmdWnF6xRCEXrAnUkRgge4KSq"], "asm": "OP_DUP OP_HASH160 d5ba2eb2d52670fbe9522748bf642da754eb0d6f OP_EQUALVERIFY OP_CHECKSIG", "type": "pubkeyhash"}, "value": 16.65444669, "n": 1}], "hex": "01000000012f9b51435f8fecf087f06e973b1492113f1150df9d8686306c43d2d3129255fa010000006a47304402204d6bb3e5c810403254b28df126a829239920cebbfc1500fd6a404dc27631ba40022057412305ece607071fb8b790c7982bfdf8ba799c5b4c6176d782f66c8fc2b845012102c19ebc0e7fe714e24c55adaeebc7dbab2dc9a208b511bd1b6e83db85506d4d19ffffffff02809b7a000000000017a91469f37445291e1295711bfc810f87fdc581d4316c873dab4463000000001976a914d5ba2eb2d52670fbe9522748bf642da754eb0d6f88ac00000000", "vin": [{"sequence": 4294967295, "scriptSig": {"hex": "47304402204d6bb3e5c810403254b28df126a829239920cebbfc1500fd6a404dc27631ba40022057412305ece607071fb8b790c7982bfdf8ba799c5b4c6176d782f66c8fc2b845012102c19ebc0e7fe714e24c55adaeebc7dbab2dc9a208b511bd1b6e83db85506d4d19", "asm": "304402204d6bb3e5c810403254b28df126a829239920cebbfc1500fd6a404dc27631ba40022057412305ece607071fb8b790c7982bfdf8ba799c5b4c6176d782f66c8fc2b845[ALL] 02c19ebc0e7fe714e24c55adaeebc7dbab2dc9a208b511bd1b6e83db85506d4d19"}, "vout": 1, "txid": "fa559212d3d2436c3086869ddf50113f1192143b976ef087f0ec8f5f43519b2f"}], "txid": "49d78cfd25220d0da5ada8bca51183d742491f23b70db82190d7fb46da5b0440", "blocktime": 1537870268, "version": 1, "confirmations": 11518, "time": 1537870268, "locktime": 0, "vsize": 223, "size": 223}