{"hash": "49dcb7360470c3d1a486755062c8e13fe30a9bc2bfb56727b0f08a321bf5379a", "blockhash": "0000000000000000000e13cef7c366c0283d82e591d1acd082e914b08063cdf1", "vout": [{"scriptPubKey": {"reqSigs": 1, "hex": "a914a41ddb55a0565a335cc5f5b5afff4c10fc24706d87", "addresses": ["3GenWVKSvKuYi55bUSvwNXAH98Dzaya21P"], "asm": "OP_HASH160 a41ddb55a0565a335cc5f5b5afff4c10fc24706d OP_EQUAL", "type": "scripthash"}, "value": 0.0031876, "n": 0}, {"scriptPubKey": {"reqSigs": 1, "hex": "76a91473af102718512b0e6ad6630b82cd4fa06d43d59788ac", "addresses": ["1BYgRf9Tro5keVxWpnHx2bigXwDbgzCini"], "asm": "OP_DUP OP_HASH160 73af102718512b0e6ad6630b82cd4fa06d43d597 OP_EQUALVERIFY OP_CHECKSIG", "type": "pubkeyhash"}, "value": 0.09652661, "n": 1}], "hex": "0100000001a123d9383c1cb87c12bf3b630b112f3c2b6b5ed79d9760ef2bf95cf6a58e88fd010000006b483045022100d2739b6702dcfe64a0e5444bcc41cb0b1c1bd90aa17b686fa191c89e841c15c102205a3068ce5e77a7d204af51fb5ea54d430efc179f477ea44cdb51d64f40def94601210216b24083d827b76f4bd5ac21a3f46019841bb5b62f5e16d8fbbd6be75940dfcfffffffff0228dd04000000000017a914a41ddb55a0565a335cc5f5b5afff4c10fc24706d87b5499300000000001976a91473af102718512b0e6ad6630b82cd4fa06d43d59788ac00000000", "vin": [{"sequence": 4294967295, "scriptSig": {"hex": "483045022100d2739b6702dcfe64a0e5444bcc41cb0b1c1bd90aa17b686fa191c89e841c15c102205a3068ce5e77a7d204af51fb5ea54d430efc179f477ea44cdb51d64f40def94601210216b24083d827b76f4bd5ac21a3f46019841bb5b62f5e16d8fbbd6be75940dfcf", "asm": "3045022100d2739b6702dcfe64a0e5444bcc41cb0b1c1bd90aa17b686fa191c89e841c15c102205a3068ce5e77a7d204af51fb5ea54d430efc179f477ea44cdb51d64f40def946[ALL] 0216b24083d827b76f4bd5ac21a3f46019841bb5b62f5e16d8fbbd6be75940dfcf"}, "vout": 1, "txid": "fd888ea5f65cf92bef60979dd75e6b2b3c2f110b633bbf127cb81c3c38d923a1"}], "txid": "49dcb7360470c3d1a486755062c8e13fe30a9bc2bfb56727b0f08a321bf5379a", "blocktime": 1537871767, "version": 1, "confirmations": 11493, "time": 1537871767, "locktime": 0, "vsize": 224, "size": 224}