{"hash": "49dd876d023c5751315ecd75994e22c5563bd6e773309d5c42475e937bf577eb", "blockhash": "0000000000000000001e0dab787dd257d1dbfcb92a98c2207d5e1078be1f4165", "vout": [{"scriptPubKey": {"reqSigs": 1, "hex": "a914645a29d5f0165fd43030e97d5bf6dea6fc2f7daa87", "addresses": ["3AqdWPdtM5Cf8xg2eJ8dZNLL6Ew8vdFQau"], "asm": "OP_HASH160 645a29d5f0165fd43030e97d5bf6dea6fc2f7daa OP_EQUAL", "type": "scripthash"}, "value": 0.21146226, "n": 0}, {"scriptPubKey": {"reqSigs": 1, "hex": "76a914f7e31bcdf85a8723a5535067b657f9bfc785973588ac", "addresses": ["1PbhyAaMHX5VPJ4JMgRwzfNsuqmC1ooieG"], "asm": "OP_DUP OP_HASH160 f7e31bcdf85a8723a5535067b657f9bfc7859735 OP_EQUALVERIFY OP_CHECKSIG", "type": "pubkeyhash"}, "value": 0.47688427, "n": 1}], "hex": "01000000025c9386dee9f53bce1198ad644fa655f2b65de543d3fba58f8ee18aab728460b0010000006b483045022100f35150431f54cef6ed1b27d9ec479b65869f6d589891ed4cf2bbe473a1e4ea9a02205f313d1368d5b92bbbb975dbb44cdd2d0339c5a68a672d6c7e95a619455bc504012103965ce6e0accda855cd3c035540cac62b2a67299e0d1aae28af66ee537c4efc1cffffffff578c133ee144e370f40469b3bd955e826dba0bd5b00c2088fc48d2241199c6de010000006b483045022100c1ea03421f99fc2b4f28a498c0fa66222e961ea189aab471d2622ef2a1be30ab02207af9bc6ab40969bc5f318019c31dd2bb80ee4bd9a77fd0ced825d68199e38a96012103965ce6e0accda855cd3c035540cac62b2a67299e0d1aae28af66ee537c4efc1cffffffff0272aa42010000000017a914645a29d5f0165fd43030e97d5bf6dea6fc2f7daa87ebaad702000000001976a914f7e31bcdf85a8723a5535067b657f9bfc785973588ac00000000", "vin": [{"sequence": 4294967295, "scriptSig": {"hex": "483045022100f35150431f54cef6ed1b27d9ec479b65869f6d589891ed4cf2bbe473a1e4ea9a02205f313d1368d5b92bbbb975dbb44cdd2d0339c5a68a672d6c7e95a619455bc504012103965ce6e0accda855cd3c035540cac62b2a67299e0d1aae28af66ee537c4efc1c", "asm": "3045022100f35150431f54cef6ed1b27d9ec479b65869f6d589891ed4cf2bbe473a1e4ea9a02205f313d1368d5b92bbbb975dbb44cdd2d0339c5a68a672d6c7e95a619455bc504[ALL] 03965ce6e0accda855cd3c035540cac62b2a67299e0d1aae28af66ee537c4efc1c"}, "vout": 1, "txid": "b0608472ab8ae18e8fa5fbd343e55db6f255a64f64ad9811ce3bf5e9de86935c"}, {"sequence": 4294967295, "scriptSig": {"hex": "483045022100c1ea03421f99fc2b4f28a498c0fa66222e961ea189aab471d2622ef2a1be30ab02207af9bc6ab40969bc5f318019c31dd2bb80ee4bd9a77fd0ced825d68199e38a96012103965ce6e0accda855cd3c035540cac62b2a67299e0d1aae28af66ee537c4efc1c", "asm": "3045022100c1ea03421f99fc2b4f28a498c0fa66222e961ea189aab471d2622ef2a1be30ab02207af9bc6ab40969bc5f318019c31dd2bb80ee4bd9a77fd0ced825d68199e38a96[ALL] 03965ce6e0accda855cd3c035540cac62b2a67299e0d1aae28af66ee537c4efc1c"}, "vout": 1, "txid": "dec6991124d248fc88200cb0d50bba6d825e95bdb36904f470e344e13e138c57"}], "txid": "49dd876d023c5751315ecd75994e22c5563bd6e773309d5c42475e937bf577eb", "blocktime": 1537872475, "version": 1, "confirmations": 11486, "time": 1537872475, "locktime": 0, "vsize": 372, "size": 372}