{"hash": "f033b6d596d15151b17f2cbccb3b4aff4dbcca718318395cfcd42e910fdb63e1", "blockhash": "0000000000000000000dcc0f55137456b1a82d3642486a52398922ac4d620174", "vout": [{"scriptPubKey": {"reqSigs": 1, "hex": "76a91492d9906dc6b141ffb03b15b63508793a9dc53a6588ac", "addresses": ["1EPUHdc9DM8qg97vfA7HbAKmVT9V8MaezB"], "asm": "OP_DUP OP_HASH160 92d9906dc6b141ffb03b15b63508793a9dc53a65 OP_EQUALVERIFY OP_CHECKSIG", "type": "pubkeyhash"}, "value": 0.00664041, "n": 0}, {"scriptPubKey": {"reqSigs": 1, "hex": "a914190940da8c509066f4ec9022ac8feead60584aee87", "addresses": ["33yPuGktyV2H3QCqAfNBr83Fspfqdq2Jwy"], "asm": "OP_HASH160 190940da8c509066f4ec9022ac8feead60584aee OP_EQUAL", "type": "scripthash"}, "value": 0.7191698, "n": 1}], "hex": "01000000000101ef371f8bb1610ef002938bd38c2fd453b8b5981b0aff20f02572061b8ca1a4f80100000023220020f1f25e8f1b47e590b6c4aed9d7580aa54bf884e866748e203b32e53efb6a9eb4ffffffff02e9210a00000000001976a91492d9906dc6b141ffb03b15b63508793a9dc53a6588acb45d49040000000017a914190940da8c509066f4ec9022ac8feead60584aee8704004830450221009151669ceb51a34bb3ab4f974b91fbdac3f084968c517f4ffbb1e5fdf629226202204b8006e2195e1fe27e709550fe78a807d261196449e88cbade1ecd82fe5d4c8801473044022076b7933ca16556cefd6a9f83d8da21c1c580e4bbc014a2c06e9cb5a0e9cbfa5102207617e80f0adf4c33c9b91726c4751043641718cc52d031362bc1c6f865819bd1016952210324cff25b307c8cd87844107572f8f63f51781e6feb2e0e06f708124a3865866b2103295b84ca6defc7e57f66869a90a679c6acf6a60dd7287d41d8711b62d0a9537421033eced64ca10178e9563c6435cfb5c104ca46c1322c8d52d5e6c84b560d4d769a53ae00000000", "vin": [{"txinwitness": ["", "30450221009151669ceb51a34bb3ab4f974b91fbdac3f084968c517f4ffbb1e5fdf629226202204b8006e2195e1fe27e709550fe78a807d261196449e88cbade1ecd82fe5d4c8801", "3044022076b7933ca16556cefd6a9f83d8da21c1c580e4bbc014a2c06e9cb5a0e9cbfa5102207617e80f0adf4c33c9b91726c4751043641718cc52d031362bc1c6f865819bd101", "52210324cff25b307c8cd87844107572f8f63f51781e6feb2e0e06f708124a3865866b2103295b84ca6defc7e57f66869a90a679c6acf6a60dd7287d41d8711b62d0a9537421033eced64ca10178e9563c6435cfb5c104ca46c1322c8d52d5e6c84b560d4d769a53ae"], "sequence": 4294967295, "scriptSig": {"hex": "220020f1f25e8f1b47e590b6c4aed9d7580aa54bf884e866748e203b32e53efb6a9eb4", "asm": "0020f1f25e8f1b47e590b6c4aed9d7580aa54bf884e866748e203b32e53efb6a9eb4"}, "vout": 1, "txid": "f8a4a18c1b067225f020ff0a1b98b5b853d42f8cd38b9302f00e61b18b1f37ef"}], "txid": "49de9efce11d7a6d3e2bb772fc5c86574a289c641a30d2bf79b93439904aacdd", "blocktime": 1537870268, "version": 1, "confirmations": 11518, "time": 1537870268, "locktime": 0, "vsize": 216, "size": 407}