{"hash": "9d88f251f535291dd692c0e34e76c36264667d521e69721a66c02c0a7a3ea497", "blockhash": "0000000000000000000baef3f32e3676a92c3b2e5da21b426e4f302fc371ce76", "vout": [{"scriptPubKey": {"reqSigs": 1, "hex": "a914a12f738a0bbae7a5736b5a2c309e01c5158749c087", "addresses": ["3GPHZQQQ2NGDqC2odFySz1tKZZUdr6t5Dd"], "asm": "OP_HASH160 a12f738a0bbae7a5736b5a2c309e01c5158749c0 OP_EQUAL", "type": "scripthash"}, "value": 0.01481596, "n": 0}, {"scriptPubKey": {"reqSigs": 1, "hex": "a9140ef5723cab7f0158056fc7f0782b5324b3385d8987", "addresses": ["3347R8fdGCo87HoMXtjqCqsSeLfk6AQShR"], "asm": "OP_HASH160 0ef5723cab7f0158056fc7f0782b5324b3385d89 OP_EQUAL", "type": "scripthash"}, "value": 0.3, "n": 1}], "hex": "0100000000010687927486e3f6e913cee3f0d09e0475d4bdc40f0cb74eaecf7e11e40b9ef9463300000000171600147312a45803f22b0324a57660346da5cc2f69a88dffffffffb1652a1227f2eb4e5a8ae62cd843703ca1300d69a2d0683143759007372cf5370000000017160014d564d0d7ca8e1bfb90a2ef72746685c400b651e7ffffffff2e1dff34aa903118c8d6df398464a397a9e768e5aa7e631f08bfe5cf7750fc9000000000171600144449d00ac98d20adf9d151e8d43c2797d28ebf25fffffffff1e8e57812bdef7e6e93eb986001309e347d25fe4902c2af20442362598779a65800000017160014ed0bd89d82e64cc939a3fc8c57150404bd60f769ffffffff6ea58235141c83e55c9e87f2733160895b8953ed56300d62f195b9facf9324b6000000001716001432f09cf6591ee7a0a15cd37cf81d950bde29fcf1ffffffff6b51c1816b89512cc9d8e0d94125055bb007eb4aba56137e87f7eb2566b463cb010000001716001446715f7353b74350736764e0a7c17aef1bf71353ffffffff027c9b16000000000017a914a12f738a0bbae7a5736b5a2c309e01c5158749c08780c3c9010000000017a9140ef5723cab7f0158056fc7f0782b5324b3385d898702483045022100c3b9af687dbd68c9fbf6a70b65aa10b960bd070887fee73055bbca1c0643482b022039f13a316fe8435d2b161aee857e36ab1c9d1d00e71eac9585dc02dea252a0570121034396049df489da0132e6f88c91df1aac6af3ee5a632c61522bc9a4d407cc82b202483045022100e062916805378147495262456d9abb8ed2e990ff96b57511618292ab87acebda02201d9a6d0078bd573ef91eba559f32357e1aaa13671cebfdeb0f134402a66e341e012102212fd691aac90d2de28acaa4fc923ffe99093899884084055e2a539a2ef17b710247304402203f092329d9f8835fa7e7e8b899d3d0055fba537cc5bb4bf1296cef4fb20f27bc022012bf20e97dc35c1588d709a2d2da1bb74e6b29cd040d3a5bfaf522818c94a6870121029dabc665bb4d7c18a1bcbfe132709e0f2efee13f504fa21fe043296e9abf600102483045022100e7babff0882f3ecbf71ae2eadc7db0a24d2cd1a7d3d12da8e45c829d69304fc502200f5e24df63f57899d03163158cb62391c16b25d174a36e22dbe8a2cdd94a00ef0121028e6f7594a7d5be635e639a2c9fa442a33934e080d6ce7c2fb15a0271ea646df302483045022100af9076f8a6f503623bd8b932fd23524518d141a9031703b2d48b7b8ad4d942e10220436c3e56337fc89feda15d151e30902bf98ce1658559ede43d83918877c1f208012102bedc6788c9f07f20890dee617db290f739f830718c7f9dfb4c6bc235d25be83f024830450221008942342efb65ea66812f328faa72975e14e521b2bf2c6603ebbaca992cdf3b690220351c9a9537aebb7939ff4f4f26f4f873f3786720d7fcbe4afb64c03821d5cce801210232e2c0ef29e77eea082dc48a35f7a83a23668ec895a5d878be81af648412771800000000", "vin": [{"txinwitness": ["3045022100c3b9af687dbd68c9fbf6a70b65aa10b960bd070887fee73055bbca1c0643482b022039f13a316fe8435d2b161aee857e36ab1c9d1d00e71eac9585dc02dea252a05701", "034396049df489da0132e6f88c91df1aac6af3ee5a632c61522bc9a4d407cc82b2"], "sequence": 4294967295, "scriptSig": {"hex": "1600147312a45803f22b0324a57660346da5cc2f69a88d", "asm": "00147312a45803f22b0324a57660346da5cc2f69a88d"}, "vout": 0, "txid": "3346f99e0be4117ecfae4eb70c0fc4bdd475049ed0f0e3ce13e9f6e386749287"}, {"txinwitness": ["3045022100e062916805378147495262456d9abb8ed2e990ff96b57511618292ab87acebda02201d9a6d0078bd573ef91eba559f32357e1aaa13671cebfdeb0f134402a66e341e01", "02212fd691aac90d2de28acaa4fc923ffe99093899884084055e2a539a2ef17b71"], "sequence": 4294967295, "scriptSig": {"hex": "160014d564d0d7ca8e1bfb90a2ef72746685c400b651e7", "asm": "0014d564d0d7ca8e1bfb90a2ef72746685c400b651e7"}, "vout": 0, "txid": "37f52c37079075433168d0a2690d30a13c7043d82ce68a5a4eebf227122a65b1"}, {"txinwitness": ["304402203f092329d9f8835fa7e7e8b899d3d0055fba537cc5bb4bf1296cef4fb20f27bc022012bf20e97dc35c1588d709a2d2da1bb74e6b29cd040d3a5bfaf522818c94a68701", "029dabc665bb4d7c18a1bcbfe132709e0f2efee13f504fa21fe043296e9abf6001"], "sequence": 4294967295, "scriptSig": {"hex": "1600144449d00ac98d20adf9d151e8d43c2797d28ebf25", "asm": "00144449d00ac98d20adf9d151e8d43c2797d28ebf25"}, "vout": 0, "txid": "90fc5077cfe5bf081f637eaae568e7a997a3648439dfd6c8183190aa34ff1d2e"}, {"txinwitness": ["3045022100e7babff0882f3ecbf71ae2eadc7db0a24d2cd1a7d3d12da8e45c829d69304fc502200f5e24df63f57899d03163158cb62391c16b25d174a36e22dbe8a2cdd94a00ef01", "028e6f7594a7d5be635e639a2c9fa442a33934e080d6ce7c2fb15a0271ea646df3"], "sequence": 4294967295, "scriptSig": {"hex": "160014ed0bd89d82e64cc939a3fc8c57150404bd60f769", "asm": "0014ed0bd89d82e64cc939a3fc8c57150404bd60f769"}, "vout": 88, "txid": "a679875962234420afc20249fe257d349e30016098eb936e7eefbd1278e5e8f1"}, {"txinwitness": ["3045022100af9076f8a6f503623bd8b932fd23524518d141a9031703b2d48b7b8ad4d942e10220436c3e56337fc89feda15d151e30902bf98ce1658559ede43d83918877c1f20801", "02bedc6788c9f07f20890dee617db290f739f830718c7f9dfb4c6bc235d25be83f"], "sequence": 4294967295, "scriptSig": {"hex": "16001432f09cf6591ee7a0a15cd37cf81d950bde29fcf1", "asm": "001432f09cf6591ee7a0a15cd37cf81d950bde29fcf1"}, "vout": 0, "txid": "b62493cffab995f1620d3056ed53895b89603173f2879e5ce5831c143582a56e"}, {"txinwitness": ["30450221008942342efb65ea66812f328faa72975e14e521b2bf2c6603ebbaca992cdf3b690220351c9a9537aebb7939ff4f4f26f4f873f3786720d7fcbe4afb64c03821d5cce801", "0232e2c0ef29e77eea082dc48a35f7a83a23668ec895a5d878be81af6484127718"], "sequence": 4294967295, "scriptSig": {"hex": "16001446715f7353b74350736764e0a7c17aef1bf71353", "asm": "001446715f7353b74350736764e0a7c17aef1bf71353"}, "vout": 1, "txid": "cb63b46625ebf7877e1356ba4aeb07b05b052541d9e0d8c92c51896b81c1516b"}], "txid": "49e4241736c6bd0e6661c6d68323ce896fcca6702a4482240796531c6bfa2b25", "blocktime": 1537876114, "version": 1, "confirmations": 11460, "time": 1537876114, "locktime": 0, "vsize": 621, "size": 1107}