{"hash": "49e47729a23c66a5dee2d746cef80aaeca580ce7dfdf64c1b2d20c05752ed473", "blockhash": "0000000000000000000dcc0f55137456b1a82d3642486a52398922ac4d620174", "vout": [{"scriptPubKey": {"reqSigs": 1, "hex": "76a914ced76518242d78d584b0f80e6b5e0cc41e3f087a88ac", "addresses": ["1KrgERBzk8DiywbUZ9BTyPcFGmhChP5H5z"], "asm": "OP_DUP OP_HASH160 ced76518242d78d584b0f80e6b5e0cc41e3f087a OP_EQUALVERIFY OP_CHECKSIG", "type": "pubkeyhash"}, "value": 0.00085812, "n": 0}, {"scriptPubKey": {"reqSigs": 1, "hex": "76a9141928191ca4801476016d5a4165516ab3c84dca2688ac", "addresses": ["13J1vrtTut27WxnmLpRkRrdJZjL2M7mzQw"], "asm": "OP_DUP OP_HASH160 1928191ca4801476016d5a4165516ab3c84dca26 OP_EQUALVERIFY OP_CHECKSIG", "type": "pubkeyhash"}, "value": 0.00810129, "n": 1}], "hex": "0100000001529588ece7bcc0f36bc4dab013862d0db32d2b74fd3ba443ef105a32cde0d134040000006b483045022100bcded6c81997116e1a056c09821d05662fa101e3d9f48763800a3602d7ab9eb702203c9d9f5660402f705c77d3a0922d2b0ca1eb0cf4f0635065928d77d163a36d53012103e9c4517fb7cdf90ea633f0c8539b99d9c842fefbb461d2fe21c6d62c50d1726fffffffff02344f0100000000001976a914ced76518242d78d584b0f80e6b5e0cc41e3f087a88ac915c0c00000000001976a9141928191ca4801476016d5a4165516ab3c84dca2688ac00000000", "vin": [{"sequence": 4294967295, "scriptSig": {"hex": "483045022100bcded6c81997116e1a056c09821d05662fa101e3d9f48763800a3602d7ab9eb702203c9d9f5660402f705c77d3a0922d2b0ca1eb0cf4f0635065928d77d163a36d53012103e9c4517fb7cdf90ea633f0c8539b99d9c842fefbb461d2fe21c6d62c50d1726f", "asm": "3045022100bcded6c81997116e1a056c09821d05662fa101e3d9f48763800a3602d7ab9eb702203c9d9f5660402f705c77d3a0922d2b0ca1eb0cf4f0635065928d77d163a36d53[ALL] 03e9c4517fb7cdf90ea633f0c8539b99d9c842fefbb461d2fe21c6d62c50d1726f"}, "vout": 4, "txid": "34d1e0cd325a10ef43a43bfd742b2db30d2d8613b0dac46bf3c0bce7ec889552"}], "txid": "49e47729a23c66a5dee2d746cef80aaeca580ce7dfdf64c1b2d20c05752ed473", "blocktime": 1537870268, "version": 1, "confirmations": 11517, "time": 1537870268, "locktime": 0, "vsize": 226, "size": 226}