{"hash": "7bb23ea9cad7599c4cea5825294ca5b599ddf0e93ad32f6ff806bf6629d9681b", "blockhash": "0000000000000000001f0ddff1eddb255c1121bcd4da4f1bc9a0da00cae72433", "vout": [{"scriptPubKey": {"reqSigs": 1, "hex": "76a9149a7ddd287d042370d9d67947884313a8e75629b888ac", "addresses": ["1F5sqihPpD6ASN7sfda1AdFHSSoeSXHvGo"], "asm": "OP_DUP OP_HASH160 9a7ddd287d042370d9d67947884313a8e75629b8 OP_EQUALVERIFY OP_CHECKSIG", "type": "pubkeyhash"}, "value": 0.12311361, "n": 0}, {"scriptPubKey": {"reqSigs": 1, "hex": "a9149c8fc174a09c1632aae0db149f7bbc13e3a8438d87", "addresses": ["3FxqYnjzWYvTM5bhKPjEYFcCrKGkCCxziW"], "asm": "OP_HASH160 9c8fc174a09c1632aae0db149f7bbc13e3a8438d OP_EQUAL", "type": "scripthash"}, "value": 0.11687663, "n": 1}], "hex": "0100000000010108a3dc3f28e0171c0d4681ab775e7a8d3bd26aa8cd2bd0db34f7361553290f6501000000171600144c3e0601db1614a5ea73715b80d53e25d1cf1d39ffffff000241dbbb00000000001976a9149a7ddd287d042370d9d67947884313a8e75629b888acef56b2000000000017a9149c8fc174a09c1632aae0db149f7bbc13e3a8438d8702483045022100c73ac59873f828be56e0da30b2c5f7c3e65b01061f2074b91b7b1a7c6dc1c9cc02204f8907ece20de0e9d5f7ce60e881bc6497ee0666486336c0a2484739fb7e547b012102ded1a812828942bbd99fe20af8e4ec6a5bc1506f7e7dbfae4a552689d5f6eb2700000000", "vin": [{"txinwitness": ["3045022100c73ac59873f828be56e0da30b2c5f7c3e65b01061f2074b91b7b1a7c6dc1c9cc02204f8907ece20de0e9d5f7ce60e881bc6497ee0666486336c0a2484739fb7e547b01", "02ded1a812828942bbd99fe20af8e4ec6a5bc1506f7e7dbfae4a552689d5f6eb27"], "sequence": 16777215, "scriptSig": {"hex": "1600144c3e0601db1614a5ea73715b80d53e25d1cf1d39", "asm": "00144c3e0601db1614a5ea73715b80d53e25d1cf1d39"}, "vout": 1, "txid": "650f29531536f734dbd02bcda86ad23b8d7a5e77ab81460d1c17e0283fdca308"}], "txid": "49f6054a431b6b44fa83f7313258354a537cd9f5d79804629b75cf80114ec840", "blocktime": 1537872018, "version": 1, "confirmations": 11489, "time": 1537872018, "locktime": 0, "vsize": 168, "size": 250}