{"hash": "49f77d0e9cd6e43d33de2ed3a341d0ce6960c8ff596d3970d1f4f1c4bde7d665", "blockhash": "000000000000000000022b45ed06c6f4ccd3cf7fb5ba4856ebd2e58215665228", "vout": [{"scriptPubKey": {"type": "nulldata", "hex": "6a146f6d6e69000000000000001f00000191bdecb7ec", "asm": "OP_RETURN 6f6d6e69000000000000001f00000191bdecb7ec"}, "value": 0.0, "n": 0}, {"scriptPubKey": {"reqSigs": 1, "hex": "76a914a25dec4d0011064ef106a983c39c7a540699f22088ac", "addresses": ["1FoWyxwPXuj4C6abqwhjDWdz6D4PZgYRjA"], "asm": "OP_DUP OP_HASH160 a25dec4d0011064ef106a983c39c7a540699f220 OP_EQUALVERIFY OP_CHECKSIG", "type": "pubkeyhash"}, "value": 5.46e-06, "n": 1}, {"scriptPubKey": {"reqSigs": 1, "hex": "76a91451cc2f23f583abacf841bd25152cbde6ab9f91ab88ac", "addresses": ["18TWLW52A4rXDXssAniZHXbCrSu3EzMd37"], "asm": "OP_DUP OP_HASH160 51cc2f23f583abacf841bd25152cbde6ab9f91ab OP_EQUALVERIFY OP_CHECKSIG", "type": "pubkeyhash"}, "value": 0.00499385, "n": 2}], "hex": "010000000284e0341e33de735b90abc4878297d0432677f6a2fa254d4938849975a7363b9f020000006a47304402200d7634a52afde5573af1ecd7f53033132f319fa03736b36ada98faa04022a356022029c31cccc64e0d40294de9874dd864b7aa577bc831799e9677dad82d96e04fb7012102a929c4b9eb92128c667f81db9745b704d3336f20b562106b88ab103d9a04796efeffffff912557e17582ceb1e81d6f8ffb4f018df417ac78d3254cd8c0dfa44a279b8e73030000006a47304402203d76261c7e7a5484102fc1b77b5f05453daa088e239353a6336b0071e60ac8b002200316b36660539b76d97c13cc71db621f19809599fcb8dc03686efd84259f6429012102a929c4b9eb92128c667f81db9745b704d3336f20b562106b88ab103d9a04796efeffffff030000000000000000166a146f6d6e69000000000000001f00000191bdecb7ec22020000000000001976a914a25dec4d0011064ef106a983c39c7a540699f22088acb99e0700000000001976a91451cc2f23f583abacf841bd25152cbde6ab9f91ab88acee480800", "vin": [{"sequence": 4294967294, "scriptSig": {"hex": "47304402200d7634a52afde5573af1ecd7f53033132f319fa03736b36ada98faa04022a356022029c31cccc64e0d40294de9874dd864b7aa577bc831799e9677dad82d96e04fb7012102a929c4b9eb92128c667f81db9745b704d3336f20b562106b88ab103d9a04796e", "asm": "304402200d7634a52afde5573af1ecd7f53033132f319fa03736b36ada98faa04022a356022029c31cccc64e0d40294de9874dd864b7aa577bc831799e9677dad82d96e04fb7[ALL] 02a929c4b9eb92128c667f81db9745b704d3336f20b562106b88ab103d9a04796e"}, "vout": 2, "txid": "9f3b36a775998438494d25faa2f6772643d0978287c4ab905b73de331e34e084"}, {"sequence": 4294967294, "scriptSig": {"hex": "47304402203d76261c7e7a5484102fc1b77b5f05453daa088e239353a6336b0071e60ac8b002200316b36660539b76d97c13cc71db621f19809599fcb8dc03686efd84259f6429012102a929c4b9eb92128c667f81db9745b704d3336f20b562106b88ab103d9a04796e", "asm": "304402203d76261c7e7a5484102fc1b77b5f05453daa088e239353a6336b0071e60ac8b002200316b36660539b76d97c13cc71db621f19809599fcb8dc03686efd84259f6429[ALL] 02a929c4b9eb92128c667f81db9745b704d3336f20b562106b88ab103d9a04796e"}, "vout": 3, "txid": "738e9b274aa4dfc0d84c25d378ac17f48d014ffb8f6f1de8b1ce8275e1572591"}], "txid": "49f77d0e9cd6e43d33de2ed3a341d0ce6960c8ff596d3970d1f4f1c4bde7d665", "blocktime": 1537869901, "version": 1, "confirmations": 11524, "time": 1537869901, "locktime": 542958, "vsize": 403, "size": 403}