{"hash": "49fc0f58a0f2fdb74cdb13f7ce40d1c6872742501246431d8a576dd3e20cb361", "blockhash": "0000000000000000001cda96e906b7601b7a6fb1a3b62bca570a9e5d8f4b3de1", "vout": [{"scriptPubKey": {"reqSigs": 1, "hex": "76a914acee5b675af17a3fecd3bcee0d954325d01be6c188ac", "addresses": ["1GmNmLJFsMmEP17QwuFjU1GSsPYbKubXST"], "asm": "OP_DUP OP_HASH160 acee5b675af17a3fecd3bcee0d954325d01be6c1 OP_EQUALVERIFY OP_CHECKSIG", "type": "pubkeyhash"}, "value": 0.0024197, "n": 0}, {"scriptPubKey": {"reqSigs": 1, "hex": "76a9144621c2f5c138742e07c8d39c8f019e3ed261e40988ac", "addresses": ["17PpkDus3zDA39fRqxuFa9cVLB8rctAEd7"], "asm": "OP_DUP OP_HASH160 4621c2f5c138742e07c8d39c8f019e3ed261e409 OP_EQUALVERIFY OP_CHECKSIG", "type": "pubkeyhash"}, "value": 0.00509502, "n": 1}], "hex": "01000000018717b03528a6086e8be156d2c0cde670dfc381dbab1cab354f813998ddd2fe28010000006b4830450221009278e32ba78d2590681cc4c1cde2b82dea6e89f3997f402646e55e1b0dd0a94502207b4dde310ff3cc59ed2f338d91edb452a817ca6de0f3095404446147ddc4840d012102b1057407b241c917b51151f9c4ff219f15b40698c8d16991f06e74540c444989ffffffff0232b10300000000001976a914acee5b675af17a3fecd3bcee0d954325d01be6c188ac3ec60700000000001976a9144621c2f5c138742e07c8d39c8f019e3ed261e40988ac00000000", "vin": [{"sequence": 4294967295, "scriptSig": {"hex": "4830450221009278e32ba78d2590681cc4c1cde2b82dea6e89f3997f402646e55e1b0dd0a94502207b4dde310ff3cc59ed2f338d91edb452a817ca6de0f3095404446147ddc4840d012102b1057407b241c917b51151f9c4ff219f15b40698c8d16991f06e74540c444989", "asm": "30450221009278e32ba78d2590681cc4c1cde2b82dea6e89f3997f402646e55e1b0dd0a94502207b4dde310ff3cc59ed2f338d91edb452a817ca6de0f3095404446147ddc4840d[ALL] 02b1057407b241c917b51151f9c4ff219f15b40698c8d16991f06e74540c444989"}, "vout": 1, "txid": "28fed2dd9839814f35ab1cabdb81c3df70e6cdc0d256e18b6e08a62835b01787"}], "txid": "49fc0f58a0f2fdb74cdb13f7ce40d1c6872742501246431d8a576dd3e20cb361", "blocktime": 1537873282, "version": 1, "confirmations": 11485, "time": 1537873282, "locktime": 0, "vsize": 226, "size": 226}