{"hash": "49ff20e09afab2171a241d7492ebe566a6a3066035045ce1a43902b984380365", "blockhash": "000000000000000000205f8b0775d31398ef75b89a5e8ec8d2c57b4dc0ac4c20", "vout": [{"scriptPubKey": {"reqSigs": 1, "hex": "76a9142c317305ecb816e6df44874741e34723704dffc188ac", "addresses": ["152fyErEHpVn8YzbbcwNpP2nABsSp3HnC9"], "asm": "OP_DUP OP_HASH160 2c317305ecb816e6df44874741e34723704dffc1 OP_EQUALVERIFY OP_CHECKSIG", "type": "pubkeyhash"}, "value": 1.0, "n": 0}, {"scriptPubKey": {"reqSigs": 1, "hex": "76a914eca823849a9f6b9828670c2cae34cd7d5cf4e65f88ac", "addresses": ["1NaKtktAjBf7tUnh8mioLbjpWhXmxANQ6k"], "asm": "OP_DUP OP_HASH160 eca823849a9f6b9828670c2cae34cd7d5cf4e65f OP_EQUALVERIFY OP_CHECKSIG", "type": "pubkeyhash"}, "value": 3.07655427, "n": 1}], "hex": "0100000001594122398b72002ccd77110add776d72c7a168964435eede2a002fb3c726a9180a0000006b483045022100ab25fb4d74504a25dc1bb1beacf56931135476be957a99fa6e098a096764d2f902201cd623e992fa9eb3a4e76a84ad4e94ff22140c331fa6e349faea235f96165fb00121038c39b8870e3b584f2817f9c856514de1e319a7895414680ff0d33965519df615ffffffff0200e1f505000000001976a9142c317305ecb816e6df44874741e34723704dffc188ac03735612000000001976a914eca823849a9f6b9828670c2cae34cd7d5cf4e65f88ac00000000", "vin": [{"sequence": 4294967295, "scriptSig": {"hex": "483045022100ab25fb4d74504a25dc1bb1beacf56931135476be957a99fa6e098a096764d2f902201cd623e992fa9eb3a4e76a84ad4e94ff22140c331fa6e349faea235f96165fb00121038c39b8870e3b584f2817f9c856514de1e319a7895414680ff0d33965519df615", "asm": "3045022100ab25fb4d74504a25dc1bb1beacf56931135476be957a99fa6e098a096764d2f902201cd623e992fa9eb3a4e76a84ad4e94ff22140c331fa6e349faea235f96165fb0[ALL] 038c39b8870e3b584f2817f9c856514de1e319a7895414680ff0d33965519df615"}, "vout": 10, "txid": "18a926c7b32f002adeee35449668a1c7726d77dd0a1177cd2c00728b39224159"}], "txid": "49ff20e09afab2171a241d7492ebe566a6a3066035045ce1a43902b984380365", "blocktime": 1537871175, "version": 1, "confirmations": 11511, "time": 1537871175, "locktime": 0, "vsize": 226, "size": 226}