{"hash": "4a0d8f61861f12dd353bcd1ea6b70ea2b50f64b2873e2c0b1ba8730281be8780", "blockhash": "0000000000000000001e0dab787dd257d1dbfcb92a98c2207d5e1078be1f4165", "vout": [{"scriptPubKey": {"reqSigs": 1, "hex": "a914f51f39527febee18683eb34a92b8acb526d6281987", "addresses": ["3Q36t1zLY3k6wzLFrV342ZRCH3iBM5Xmid"], "asm": "OP_HASH160 f51f39527febee18683eb34a92b8acb526d62819 OP_EQUAL", "type": "scripthash"}, "value": 0.0017212, "n": 0}, {"scriptPubKey": {"reqSigs": 1, "hex": "76a91413379632c168a10562c50796bb02ff71a77ab1e888ac", "addresses": ["12kcRst24uTD84R7vn9RuvBJEmZDw2Y245"], "asm": "OP_DUP OP_HASH160 13379632c168a10562c50796bb02ff71a77ab1e8 OP_EQUALVERIFY OP_CHECKSIG", "type": "pubkeyhash"}, "value": 0.0021, "n": 1}], "hex": "010000000174f400994bf56e6ac0f38e80892d55f6e4b837d9879cf585d06f4424011d374900000000fdfe0000483045022100b0b31a7f1704e6c6967734586d2364ee22671b7ae4e00a65f88150cb64c9e506022076adfc90ccc2b1545abaac5a1e9875f3f0efebe91d355cc67ae3dd0004a5775301483045022100d34037ed618e8061bb76c7b69be8459621ad278475241fe26f9276c200818d24022028412b859b510cb1b5546b3f4ec3156d1cc221ded67db1746678aa999ebdcefc014c695221027d0f14d5857c8c3511a4289e23ce2ef676ccc217b31226b15d5d897fd6e53a4e2102cdf75f39fc452c64dc6230dd04e48d8d3c8285a3eebd68a54d329bdcbbcf271321034b00a1a6ae34e62627c665b31d0230815a3d3590d453b009bf28ddd066cb3b7553aefdffffff0258a002000000000017a914f51f39527febee18683eb34a92b8acb526d628198750340300000000001976a91413379632c168a10562c50796bb02ff71a77ab1e888ac12490800", "vin": [{"sequence": 4294967293, "scriptSig": {"hex": "00483045022100b0b31a7f1704e6c6967734586d2364ee22671b7ae4e00a65f88150cb64c9e506022076adfc90ccc2b1545abaac5a1e9875f3f0efebe91d355cc67ae3dd0004a5775301483045022100d34037ed618e8061bb76c7b69be8459621ad278475241fe26f9276c200818d24022028412b859b510cb1b5546b3f4ec3156d1cc221ded67db1746678aa999ebdcefc014c695221027d0f14d5857c8c3511a4289e23ce2ef676ccc217b31226b15d5d897fd6e53a4e2102cdf75f39fc452c64dc6230dd04e48d8d3c8285a3eebd68a54d329bdcbbcf271321034b00a1a6ae34e62627c665b31d0230815a3d3590d453b009bf28ddd066cb3b7553ae", "asm": "0 3045022100b0b31a7f1704e6c6967734586d2364ee22671b7ae4e00a65f88150cb64c9e506022076adfc90ccc2b1545abaac5a1e9875f3f0efebe91d355cc67ae3dd0004a57753[ALL] 3045022100d34037ed618e8061bb76c7b69be8459621ad278475241fe26f9276c200818d24022028412b859b510cb1b5546b3f4ec3156d1cc221ded67db1746678aa999ebdcefc[ALL] 5221027d0f14d5857c8c3511a4289e23ce2ef676ccc217b31226b15d5d897fd6e53a4e2102cdf75f39fc452c64dc6230dd04e48d8d3c8285a3eebd68a54d329bdcbbcf271321034b00a1a6ae34e62627c665b31d0230815a3d3590d453b009bf28ddd066cb3b7553ae"}, "vout": 0, "txid": "49371d0124446fd085f59c87d937b8e4f6552d89808ef3c06a6ef54b9900f474"}], "txid": "4a0d8f61861f12dd353bcd1ea6b70ea2b50f64b2873e2c0b1ba8730281be8780", "blocktime": 1537872475, "version": 1, "confirmations": 11486, "time": 1537872475, "locktime": 542994, "vsize": 373, "size": 373}