{"hash": "4a18adc0528d2845441d6c640ed2723c963003e704b752643a2e55aad0576562", "blockhash": "0000000000000000001f0ddff1eddb255c1121bcd4da4f1bc9a0da00cae72433", "vout": [{"scriptPubKey": {"reqSigs": 1, "hex": "76a914dbb126071ee1eb2695e278044e6416aa1e6ac40088ac", "addresses": ["1M2dCWSfuDL7kmNfhc2uhVit6bKXxQWiV5"], "asm": "OP_DUP OP_HASH160 dbb126071ee1eb2695e278044e6416aa1e6ac400 OP_EQUALVERIFY OP_CHECKSIG", "type": "pubkeyhash"}, "value": 0.00259525, "n": 0}, {"scriptPubKey": {"reqSigs": 1, "hex": "76a91404804e0773fa686554b392f4e01180294d07601f88ac", "addresses": ["1QoQYPb5JiKyeK2jj47Rv9YTRGn6FVFCX"], "asm": "OP_DUP OP_HASH160 04804e0773fa686554b392f4e01180294d07601f OP_EQUALVERIFY OP_CHECKSIG", "type": "pubkeyhash"}, "value": 0.53258762, "n": 1}], "hex": "010000000130268da36a5ff359b94e7c48e7bae7b6b09a4142e50464fa8eda68af6c57c213010000006b4830450221009e247553bde609557f80db3f30c26eaf0d34cfcacbca925cf3153691801431180220708e856a4043ff2b11885b841b76465699a925e3954881ecc6ef8a80eebc45d5012102355ec030075ff36cd91b814894ce05a2ca712f97366a0713ffb58ca01059bb88ffffffff02c5f50300000000001976a914dbb126071ee1eb2695e278044e6416aa1e6ac40088ac0aaa2c03000000001976a91404804e0773fa686554b392f4e01180294d07601f88ac00000000", "vin": [{"sequence": 4294967295, "scriptSig": {"hex": "4830450221009e247553bde609557f80db3f30c26eaf0d34cfcacbca925cf3153691801431180220708e856a4043ff2b11885b841b76465699a925e3954881ecc6ef8a80eebc45d5012102355ec030075ff36cd91b814894ce05a2ca712f97366a0713ffb58ca01059bb88", "asm": "30450221009e247553bde609557f80db3f30c26eaf0d34cfcacbca925cf3153691801431180220708e856a4043ff2b11885b841b76465699a925e3954881ecc6ef8a80eebc45d5[ALL] 02355ec030075ff36cd91b814894ce05a2ca712f97366a0713ffb58ca01059bb88"}, "vout": 1, "txid": "13c2576caf68da8efa6404e542419ab0b6e7bae7487c4eb959f35f6aa38d2630"}], "txid": "4a18adc0528d2845441d6c640ed2723c963003e704b752643a2e55aad0576562", "blocktime": 1537872018, "version": 1, "confirmations": 11489, "time": 1537872018, "locktime": 0, "vsize": 226, "size": 226}