{"hash": "4a1a6773cdee5c7b45003b0916a06aa63f23f729cf5e163f0f152e82e8b03c81", "blockhash": "00000000000000000018f53835495a110e01622372bf6ae95dc86f2b0ab887b0", "vout": [{"scriptPubKey": {"reqSigs": 1, "hex": "76a914c8f8ba118a91f393819f18a8bc0cf7c0d075b72c88ac", "addresses": ["1KKe7D8oFCn9dtjV8F71h4s87g9pmq5GpN"], "asm": "OP_DUP OP_HASH160 c8f8ba118a91f393819f18a8bc0cf7c0d075b72c OP_EQUALVERIFY OP_CHECKSIG", "type": "pubkeyhash"}, "value": 0.02747292, "n": 0}, {"scriptPubKey": {"reqSigs": 1, "hex": "a9142cfd348920eea78ea2efc6bb09a1d9b54cd444eb87", "addresses": ["35ntyzSjTc6L1nvUnhtAgpRcy3KLNyVj6H"], "asm": "OP_HASH160 2cfd348920eea78ea2efc6bb09a1d9b54cd444eb OP_EQUAL", "type": "scripthash"}, "value": 0.036, "n": 1}], "hex": "01000000021347bc354662b81e1c1e477cf4f3ac18be754e7879633d48e96d8459a533bccd020000006a4730440220641219e851d2f0380171bdd1e0b5953a949907b42f84c1ccc736187a3566ed29022001bb2aebfb83a806e2c1066ff87f27c741c0cc531c09c6dc6a8a79e72ad4fde1012102800440b907ffbb3759a3a158e48a23e52ca356bc1a7c7fcfa9dae594d6b78093ffffffffbbce52a415173bfdcaed36cc420f4354ff2dc3edc2f69f7e6ab46341767f52f0000000006b483045022100a9f3e50ffde28238440d9b7759b5150a696249b80e0b52f22396fd107b42317e0220067f12509532801a9d26a6d182b4ad1ca3751ef33afe9a56f21a15097ec814100121034eadbf9acd79774893099354b1f7e12b876de2c2c65229576ceb2f78011c49a0ffffffff029ceb2900000000001976a914c8f8ba118a91f393819f18a8bc0cf7c0d075b72c88ac80ee36000000000017a9142cfd348920eea78ea2efc6bb09a1d9b54cd444eb8700000000", "vin": [{"sequence": 4294967295, "scriptSig": {"hex": "4730440220641219e851d2f0380171bdd1e0b5953a949907b42f84c1ccc736187a3566ed29022001bb2aebfb83a806e2c1066ff87f27c741c0cc531c09c6dc6a8a79e72ad4fde1012102800440b907ffbb3759a3a158e48a23e52ca356bc1a7c7fcfa9dae594d6b78093", "asm": "30440220641219e851d2f0380171bdd1e0b5953a949907b42f84c1ccc736187a3566ed29022001bb2aebfb83a806e2c1066ff87f27c741c0cc531c09c6dc6a8a79e72ad4fde1[ALL] 02800440b907ffbb3759a3a158e48a23e52ca356bc1a7c7fcfa9dae594d6b78093"}, "vout": 2, "txid": "cdbc33a559846de9483d6379784e75be18acf3f47c471e1c1eb8624635bc4713"}, {"sequence": 4294967295, "scriptSig": {"hex": "483045022100a9f3e50ffde28238440d9b7759b5150a696249b80e0b52f22396fd107b42317e0220067f12509532801a9d26a6d182b4ad1ca3751ef33afe9a56f21a15097ec814100121034eadbf9acd79774893099354b1f7e12b876de2c2c65229576ceb2f78011c49a0", "asm": "3045022100a9f3e50ffde28238440d9b7759b5150a696249b80e0b52f22396fd107b42317e0220067f12509532801a9d26a6d182b4ad1ca3751ef33afe9a56f21a15097ec81410[ALL] 034eadbf9acd79774893099354b1f7e12b876de2c2c65229576ceb2f78011c49a0"}, "vout": 0, "txid": "f0527f764163b46a7e9ff6c2edc32dff54430f42cc36edcafd3b1715a452cebb"}], "txid": "4a1a6773cdee5c7b45003b0916a06aa63f23f729cf5e163f0f152e82e8b03c81", "blocktime": 1537870928, "version": 1, "confirmations": 11514, "time": 1537870928, "locktime": 0, "vsize": 371, "size": 371}