{"hash": "55a6f1189d1313427d2e67f4d910097717a6669ee2907d1ac5bcf00303248e19", "blockhash": "0000000000000000000e13cef7c366c0283d82e591d1acd082e914b08063cdf1", "vout": [{"scriptPubKey": {"reqSigs": 1, "hex": "a9145f54b6ef6e569ddb0e37e583a9408c3861f4455287", "addresses": ["3AP5bqi4y9nq45xuRPJQBA3B5vTRq72Pf5"], "asm": "OP_HASH160 5f54b6ef6e569ddb0e37e583a9408c3861f44552 OP_EQUAL", "type": "scripthash"}, "value": 0.65899897, "n": 0}, {"scriptPubKey": {"reqSigs": 1, "hex": "76a9147802eb10cb996f43e05476e4ed659eb0f4c931f588ac", "addresses": ["1BwZanKu6HmJuyQNXqkRzT6GjuDukcoQgp"], "asm": "OP_DUP OP_HASH160 7802eb10cb996f43e05476e4ed659eb0f4c931f5 OP_EQUALVERIFY OP_CHECKSIG", "type": "pubkeyhash"}, "value": 0.04851877, "n": 1}, {"scriptPubKey": {"reqSigs": 1, "hex": "a914a96863cf4a1f3a61a05094d2adb304c16a582d6887", "addresses": ["3H8mB6i5Ne4pZWZ8D48JieTEa3r6nhedx6"], "asm": "OP_HASH160 a96863cf4a1f3a61a05094d2adb304c16a582d68 OP_EQUAL", "type": "scripthash"}, "value": 0.02129732, "n": 2}, {"scriptPubKey": {"reqSigs": 1, "hex": "a9144267172b6cc5057f8c294e3da15c2f57a5fbfe2987", "addresses": ["37k824M6yYgyGqsiXEMRVUssonNJBBZdWr"], "asm": "OP_HASH160 4267172b6cc5057f8c294e3da15c2f57a5fbfe29 OP_EQUAL", "type": "scripthash"}, "value": 0.033, "n": 3}, {"scriptPubKey": {"reqSigs": 1, "hex": "76a91448e0f80fb25eb7a6be3774dfce01cc14c0aa19c388ac", "addresses": ["17eM9w1bwM8w5XdXhVbNsZcsXeFf4sVHT3"], "asm": "OP_DUP OP_HASH160 48e0f80fb25eb7a6be3774dfce01cc14c0aa19c3 OP_EQUALVERIFY OP_CHECKSIG", "type": "pubkeyhash"}, "value": 0.00626049, "n": 4}, {"scriptPubKey": {"reqSigs": 1, "hex": "a914b3fd2069b4eaddca564475b2ff944f323393d10587", "addresses": ["3J6i7RhzyUEsTVRoZcbUpNkbHAu9LpNszp"], "asm": "OP_HASH160 b3fd2069b4eaddca564475b2ff944f323393d105 OP_EQUAL", "type": "scripthash"}, "value": 0.0553, "n": 5}, {"scriptPubKey": {"reqSigs": 1, "hex": "a9142278aa3bb28dc1542a3f357625f63086508daf2087", "addresses": ["34qHT1qo1HzmX76Fcd38rJdGjdyvwVzxqN"], "asm": "OP_HASH160 2278aa3bb28dc1542a3f357625f63086508daf20 OP_EQUAL", "type": "scripthash"}, "value": 0.01230203, "n": 6}, {"scriptPubKey": {"reqSigs": 1, "hex": "76a91458ea15fbab4144e20136d9fb467edacdad79607188ac", "addresses": ["1978tTFQrcqVqSAmYtkkEJUL3naCbZiWwH"], "asm": "OP_DUP OP_HASH160 58ea15fbab4144e20136d9fb467edacdad796071 OP_EQUALVERIFY OP_CHECKSIG", "type": "pubkeyhash"}, "value": 0.00469536, "n": 7}, {"scriptPubKey": {"reqSigs": 1, "hex": "a91450f8d984a4179d5d1c3dc38c38ec6a3a3ebc9b9387", "addresses": ["395A6GZTuT68H7hp7CneWYtActEKSMWptB"], "asm": "OP_HASH160 50f8d984a4179d5d1c3dc38c38ec6a3a3ebc9b93 OP_EQUAL", "type": "scripthash"}, "value": 0.01016971, "n": 8}, {"scriptPubKey": {"reqSigs": 1, "hex": "76a91436d1adb51b3de3b1ce2a1594b4144893db7fa03d88ac", "addresses": ["15zrg5cZUkHEZU5zt6CZvdKp97QcfzKr6p"], "asm": "OP_DUP OP_HASH160 36d1adb51b3de3b1ce2a1594b4144893db7fa03d OP_EQUALVERIFY OP_CHECKSIG", "type": "pubkeyhash"}, "value": 0.02630919, "n": 9}], "hex": "0100000000010b38ba7011ef82d643f16eaa724f1735d099c5dab1e9b0018d01f4fb0e7b7e20e300000000fdfe0000483045022100eb562eb2ac12135b425ae144cec38024c8c2a69908e7a35493568cf8de9324770220671e1747dc66ad9a21c92c847622b7af5bb3e454d7c0294ae4657635f50574fa01483045022100f9d25ddb10a0aaed2bcb5738877636e0938a51c951913913a8cb7359cddcfcaf02201295a48a6fafd58f80cc81190b98a52b6c27e358391b4cdaf18b2e98b9bc4ac9014c6952210316ceb36eb58c863e7f93cfa8856c1e2804ab993ff92c1a5d7ae42203acb3863d21022b070536af8d3804868b03fd0853a2894da77280af2364f8c263f0b1f34b0af02102935cb9a4c45b686ba05400a25ae73733568a75d5ba8e7119ef14d4a7964c8d4153aeffffffffc5a65901935e662e7c52a7d1f2b74b1c57cd55e3906c722b64842abd0c6dfecb0000000023220020f4ff34d38992b01464d9cef403db67960c40500562b7a98fadb81deafedc1a88ffffffff1beebaf8e6a3d3d0e8ac45a274acd3a105be05530eb741c187b6b6a66cb4fc8b01000000fc00473044022067be88fa50415d5998fd269eb0fc491f592ca87a88837d2397541593f346166b022071cd6dd23fdd1366f1ac71907b728eb5cb086d1b4f70f5b313b37b4335b333380147304402204eb884743da7f4e37714024733a061083ec03cb7cc7da535c7b069aa93a4c60f022039d498dae86236f3a793e797b33ee8511f4ba10d1d4ec1a01b38c1fdd36debd5014c695221024339fd644d99b86b056dda79ab8b757df890738c6d220cdce719822bf184c7f0210266005712680e290185e551c49ffe4077b370a8ec597aa8b070f2a6cd04d5d8a32103cff6e7587dcd039b537966f785c0eff887c46b3c5861f325ed3ed5b0a39ae3e953aeffffffffd8245b704122feb1580470ee80b0b686b4c845b494ece6a918377bc3dcf86dd30100000023220020d06f7b9d2b34820b70974e031b8968a09ffb655c94fbfc6211ed9a7e5d8d78deffffffffbf6658209d47528649179abbc7ffa49c41edc80a69d346126946eb746e21db7b000000002322002093fe00e73f51e9fe55e1ba04fd0828382375bbdccba3669af2a254367c55bf5bffffffffcb76ab18150ac77d22e52e517113d47cef8ea827c406b1beebe73d76d207189f03000000232200203ca19754aec7c8bf71f89e6d12b60f855a8af67e3b0a78bc17c92c0e97a0ecd6ffffffffb4305bd12de89202d475d21fe9ae5005492085a9c363d1a831c95a4b23285287000000002322002006edcbd8a3dedd782a27019a8bd380533bdf4b47976b229193cef7d1c4bf5c49ffffffff58562e79ac6cffbc8566efbfa30f4e750f44cca76a092fd9570f70f87fde7f2900000000232200200de6aaf04412e356500a5f0030d1160bb7d6c7ad22facf30c7679d9b98958b42ffffffff35a2095c69283f01d6762c658c3fa2764a9c040ba9be240e16aec1ccb7189d9901000000fc00473044022063973495345425a5097557700478c6d0219d8667a2981ad2000e98aa4773993302201e952359e26539b94cd16dad3b4bbc7b113424b895eda7f0ba28820a85c030f701473044022011b100c2787296fc23ece08a9aaa47c1bab57c04d9337912bce1ed2071a12fd002203076f9172a58d5c0f3cb7c0381ed84d8158bf02ea687dbd349677fc7c0d916dc014c69522102d1763f186565f3557b688eb8148fbd3c428fb4be4732e0596260343a8394fec52103bf26f86d9e24492b5926c16fab2417eab4651418fb9a5f9d6a53a2cf6a718413210338f91ff8505b2a1326e0ae8f364d29a3f498bbd8cb5529a4289e72aa55ba649153aeffffffff6e938371ee0fdbd9d97dae2d36dbe73fcf5be189c22f1d65e246244e94f7335801000000fdfe0000483045022100e27e0d35565eeb2b1aaa459b4503a53c982a4ac8bbf0ed9fc7b9a0436ad81a3a02204ee708dac8c56bc9b8b1aec32af7caf7b2617c46e7b32f74727d2d1ce15823e801483045022100abd7b8cb0e9e16cb0ce0a86225b866dad04ceaf7494fd58d822d9d3ce344c9bc02203d7b6a55458734e77a5250b1d277cd72a5ac48c25c2a0a630872b956e87258da014c69522102137b70693e9c3757182774dae6c34a23b87979156f5ff9a88e508734dbaf12af2103a6248f51622c8a374103a993e09c45c82f7e6b5224d68313ce8a66a8bb36452f2102b23476a54365590d25975a60e482d4d36bb7851f9d4e66dd6cb25b0c96363ebc53aeffffffff4e4901d1899b881e3b60967c0aab54c6c8f796eb066bf9bf81df754a0ac10d580000000023220020021d0ad906852685a2abba713cc42f6e3f682fdc71bf6565b97df90c37ee8be6ffffffff0a798ded030000000017a9145f54b6ef6e569ddb0e37e583a9408c3861f4455287a5084a00000000001976a9147802eb10cb996f43e05476e4ed659eb0f4c931f588ac447f20000000000017a914a96863cf4a1f3a61a05094d2adb304c16a582d6887a05a32000000000017a9144267172b6cc5057f8c294e3da15c2f57a5fbfe2987818d0900000000001976a91448e0f80fb25eb7a6be3774dfce01cc14c0aa19c388ac906154000000000017a914b3fd2069b4eaddca564475b2ff944f323393d105877bc512000000000017a9142278aa3bb28dc1542a3f357625f63086508daf2087202a0700000000001976a91458ea15fbab4144e20136d9fb467edacdad79607188ac8b840f000000000017a91450f8d984a4179d5d1c3dc38c38ec6a3a3ebc9b938707252800000000001976a91436d1adb51b3de3b1ce2a1594b4144893db7fa03d88ac00040047304402201c8683695bdce6aebb763226724ebdebae77b873c0e4a07c4564ea6ece5fdc69022028a663c3a1bb45072992a6a189166097a3921060906b029648d59ee2e58c59a501483045022100d03b23fe09c21c3452cf70a94e7c0022cd6a9d746b82086260ccb57a94a42aca02207b4db7a9c61c92dd0df85239ff6c4ac47bc48cfefdfac60a60d97d683a9c557f01695221024d64ca75e3ca8d6b9328698ce5d41e0bdbe62169efd8cf1dfa1fc0cc6c3ca74b2102b880817ff1604bc9c22069305649676be2e2eac69f95f7a94cb3465be5541de82102076ea83d529d8f005d8c7382fda9a7d8a98ec77dd89ae3c10235a52a4b50abdd53ae000400483045022100b3d529582a1b08f781bc072c39348d35532b0e42a3db3e2364bc803ad782c8ac0220648815b11a7075f3eb17006f6e25c81d76b031aabc25b85813a58993e919975401483045022100de4f449795822fcf748319a28676362b17c2985489cc859699d09ecf305cb78402206d8e5b3ed404d3012aa0d7a5ea670affd9a75fb9718fe6a4df00d2568f278cb3016952210365ce4cc49e0892b0675b6ac1b0d5a6376cb361fce6b23992fe21934454a33b2e2103ff07f352746a3ee4ac449d585cec893444fc2d350efe537eb9daa89bb9ad8ad7210397d407c728994dee2859a6916d3bb33a30d342665d6523711e8437cd4d5687c153ae040047304402207d25522fbbfdca7d09852c85a978cc946b7af25172cf22bbf7a8dab21c45a68d0220390229aa6768b1562404deff0c35290b78adda6002976dc3b6b3551f470aa1fc01483045022100ccd9bc0d108a225d4e3ae45427ff960b052f612b5a6d76bdb0887dee4f99f1a802202292f229a39c35e4d83c7a921f293617408c16766acb14bc3d680cae58b123af01695221030c68aef0208b197f758e349add21effa5aecedf8a268ef2a8c113f81f8268e8b2102610cdd897d436d7e3ecf397f5321926ed40806abfbf227c2d12bb2555c1846b12103d9ffca5561fc9623fdbe08d0657435cbbcaf69733ae9a2e5d4d023dc4b5938af53ae040047304402204fa8888c7d31728fa43f65b67ec069f5b001e79f85f8030bb437041889b7ab4002206175966d13436f892196f32f4df7ca9ae59d1860bfacf9e9e32d27b268828cf8014730440220155b7e5b4f0c3cabcc442cff17546d9bb8a11c95f89d42da2ef915afdb1713b9022016f25335aaa38a9af907c6eba74fcaac4dde2ea4d729bc08680cde5e8f9eda620169522103922b7a81e4c7352e3d982d558b2814fc23e32667e3af3e6c55659db9d4444ec6210374d27bb7a985324751282a0076600cf5cb567ffca2185603b947c365c60c6ca6210398caf6bdfa866e84b0e75377946beaaa72652e85eb38fa71a08f33a93861af6753ae040047304402207b91caca40bbb9bde0f3e3f637ece452fbe352122ae4faeeddd28b86eb4cd6150220755017711b4168f24b9e082ddb6ae2788b1b73b311e3d4a874e924cb2a58f41101483045022100964c6d05dc252c3609d936f47b06df910c43b8c26cb7fb877415999618a5323d02202e478683763bebd51b2623b5f8948e3dd5d2b0ffb4ddd61b4a266d169cb02a660169522103c3f7b4a12a15b18f1fc9acb0f8eb09b6564a76568b75f52009ae083c1545cba82102923b7858b02001dd8c387751272dbea6acd91867393452332daf5868de03ea862102d019d4e42b091edf0b09a15c1205fadaeb2d55a5c4f3ccd0a282b8ca6783f0cd53ae0400473044022037fb4313d6716f98fd4be4aee8651e6c8cf9a3e43acb97c6bb7001d8dd95716502207130785c60265d22198ae440a3f7373cbffc7cb23fe1795b62ecd6038f7a1729014730440220263af8b0e348ade79b90d51de353b3adea2e4271b17ac64bd0c9141dab21f7b50220560253d09b2dad4b3ce8f096071e2d148bd8cee3112bcae73b90b01fbebb159001695221031d5df86a1c0c10aa0708aeebcc21f1ffa47e3f513c1ab59cf83299b5be9acb842103e9cd73063643155bdc4ace02d6f51c1330287fb91b56dd1e391aaa6bd8590b2e210387f9a07317b95b6964afb8fcd63d3ae3aa9eb6ebc9c0b05e7375405c9fd9827953ae00000400483045022100f011d94eb7fd4a7a0438c7d2e9786c6f112e8226e5e5bcfdb68407d967a34ac50220540b9af75b9fbac3613939d527398b31ca98e7f2e3324457126bd5674b16adc901483045022100a138f8d368bffef7c95874eff4ad37b94b72f02cd8224c80e8ef91fdd5b22b3702200cf86c304d2c90104b8ad4fc59d36d7d7d9593df150ef0852c18b9b502f45baf016952210304caad1008636de84aa2b7348d2b7a42fde6bd72ea3fad1a2ab479eafbd7754e21028ed421ce909c2df255eb421bcb882fe94ed2bf943235cd8e81e621f8fbdea1712103483b77393a75a5341c5c67887e3f993a89d3dc79120be8ce5848d4fcb74f06ec53ae00000000", "vin": [{"sequence": 4294967295, "scriptSig": {"hex": "00483045022100eb562eb2ac12135b425ae144cec38024c8c2a69908e7a35493568cf8de9324770220671e1747dc66ad9a21c92c847622b7af5bb3e454d7c0294ae4657635f50574fa01483045022100f9d25ddb10a0aaed2bcb5738877636e0938a51c951913913a8cb7359cddcfcaf02201295a48a6fafd58f80cc81190b98a52b6c27e358391b4cdaf18b2e98b9bc4ac9014c6952210316ceb36eb58c863e7f93cfa8856c1e2804ab993ff92c1a5d7ae42203acb3863d21022b070536af8d3804868b03fd0853a2894da77280af2364f8c263f0b1f34b0af02102935cb9a4c45b686ba05400a25ae73733568a75d5ba8e7119ef14d4a7964c8d4153ae", "asm": "0 3045022100eb562eb2ac12135b425ae144cec38024c8c2a69908e7a35493568cf8de9324770220671e1747dc66ad9a21c92c847622b7af5bb3e454d7c0294ae4657635f50574fa[ALL] 3045022100f9d25ddb10a0aaed2bcb5738877636e0938a51c951913913a8cb7359cddcfcaf02201295a48a6fafd58f80cc81190b98a52b6c27e358391b4cdaf18b2e98b9bc4ac9[ALL] 52210316ceb36eb58c863e7f93cfa8856c1e2804ab993ff92c1a5d7ae42203acb3863d21022b070536af8d3804868b03fd0853a2894da77280af2364f8c263f0b1f34b0af02102935cb9a4c45b686ba05400a25ae73733568a75d5ba8e7119ef14d4a7964c8d4153ae"}, "vout": 0, "txid": "e3207e7b0efbf4018d01b0e9b1dac599d035174f72aa6ef143d682ef1170ba38"}, {"txinwitness": ["", "304402201c8683695bdce6aebb763226724ebdebae77b873c0e4a07c4564ea6ece5fdc69022028a663c3a1bb45072992a6a189166097a3921060906b029648d59ee2e58c59a501", "3045022100d03b23fe09c21c3452cf70a94e7c0022cd6a9d746b82086260ccb57a94a42aca02207b4db7a9c61c92dd0df85239ff6c4ac47bc48cfefdfac60a60d97d683a9c557f01", "5221024d64ca75e3ca8d6b9328698ce5d41e0bdbe62169efd8cf1dfa1fc0cc6c3ca74b2102b880817ff1604bc9c22069305649676be2e2eac69f95f7a94cb3465be5541de82102076ea83d529d8f005d8c7382fda9a7d8a98ec77dd89ae3c10235a52a4b50abdd53ae"], "sequence": 4294967295, "scriptSig": {"hex": "220020f4ff34d38992b01464d9cef403db67960c40500562b7a98fadb81deafedc1a88", "asm": "0020f4ff34d38992b01464d9cef403db67960c40500562b7a98fadb81deafedc1a88"}, "vout": 0, "txid": "cbfe6d0cbd2a84642b726c90e355cd571c4bb7f2d1a7527c2e665e930159a6c5"}, {"sequence": 4294967295, "scriptSig": {"hex": "00473044022067be88fa50415d5998fd269eb0fc491f592ca87a88837d2397541593f346166b022071cd6dd23fdd1366f1ac71907b728eb5cb086d1b4f70f5b313b37b4335b333380147304402204eb884743da7f4e37714024733a061083ec03cb7cc7da535c7b069aa93a4c60f022039d498dae86236f3a793e797b33ee8511f4ba10d1d4ec1a01b38c1fdd36debd5014c695221024339fd644d99b86b056dda79ab8b757df890738c6d220cdce719822bf184c7f0210266005712680e290185e551c49ffe4077b370a8ec597aa8b070f2a6cd04d5d8a32103cff6e7587dcd039b537966f785c0eff887c46b3c5861f325ed3ed5b0a39ae3e953ae", "asm": "0 3044022067be88fa50415d5998fd269eb0fc491f592ca87a88837d2397541593f346166b022071cd6dd23fdd1366f1ac71907b728eb5cb086d1b4f70f5b313b37b4335b33338[ALL] 304402204eb884743da7f4e37714024733a061083ec03cb7cc7da535c7b069aa93a4c60f022039d498dae86236f3a793e797b33ee8511f4ba10d1d4ec1a01b38c1fdd36debd5[ALL] 5221024339fd644d99b86b056dda79ab8b757df890738c6d220cdce719822bf184c7f0210266005712680e290185e551c49ffe4077b370a8ec597aa8b070f2a6cd04d5d8a32103cff6e7587dcd039b537966f785c0eff887c46b3c5861f325ed3ed5b0a39ae3e953ae"}, "vout": 1, "txid": "8bfcb46ca6b6b687c141b70e5305be05a1d3ac74a245ace8d0d3a3e6f8baee1b"}, {"txinwitness": ["", "3045022100b3d529582a1b08f781bc072c39348d35532b0e42a3db3e2364bc803ad782c8ac0220648815b11a7075f3eb17006f6e25c81d76b031aabc25b85813a58993e919975401", "3045022100de4f449795822fcf748319a28676362b17c2985489cc859699d09ecf305cb78402206d8e5b3ed404d3012aa0d7a5ea670affd9a75fb9718fe6a4df00d2568f278cb301", "52210365ce4cc49e0892b0675b6ac1b0d5a6376cb361fce6b23992fe21934454a33b2e2103ff07f352746a3ee4ac449d585cec893444fc2d350efe537eb9daa89bb9ad8ad7210397d407c728994dee2859a6916d3bb33a30d342665d6523711e8437cd4d5687c153ae"], "sequence": 4294967295, "scriptSig": {"hex": "220020d06f7b9d2b34820b70974e031b8968a09ffb655c94fbfc6211ed9a7e5d8d78de", "asm": "0020d06f7b9d2b34820b70974e031b8968a09ffb655c94fbfc6211ed9a7e5d8d78de"}, "vout": 1, "txid": "d36df8dcc37b3718a9e6ec94b445c8b486b6b080ee700458b1fe2241705b24d8"}, {"txinwitness": ["", "304402207d25522fbbfdca7d09852c85a978cc946b7af25172cf22bbf7a8dab21c45a68d0220390229aa6768b1562404deff0c35290b78adda6002976dc3b6b3551f470aa1fc01", "3045022100ccd9bc0d108a225d4e3ae45427ff960b052f612b5a6d76bdb0887dee4f99f1a802202292f229a39c35e4d83c7a921f293617408c16766acb14bc3d680cae58b123af01", "5221030c68aef0208b197f758e349add21effa5aecedf8a268ef2a8c113f81f8268e8b2102610cdd897d436d7e3ecf397f5321926ed40806abfbf227c2d12bb2555c1846b12103d9ffca5561fc9623fdbe08d0657435cbbcaf69733ae9a2e5d4d023dc4b5938af53ae"], "sequence": 4294967295, "scriptSig": {"hex": "22002093fe00e73f51e9fe55e1ba04fd0828382375bbdccba3669af2a254367c55bf5b", "asm": "002093fe00e73f51e9fe55e1ba04fd0828382375bbdccba3669af2a254367c55bf5b"}, "vout": 0, "txid": "7bdb216e74eb46691246d3690ac8ed419ca4ffc7bb9a17498652479d205866bf"}, {"txinwitness": ["", "304402204fa8888c7d31728fa43f65b67ec069f5b001e79f85f8030bb437041889b7ab4002206175966d13436f892196f32f4df7ca9ae59d1860bfacf9e9e32d27b268828cf801", "30440220155b7e5b4f0c3cabcc442cff17546d9bb8a11c95f89d42da2ef915afdb1713b9022016f25335aaa38a9af907c6eba74fcaac4dde2ea4d729bc08680cde5e8f9eda6201", "522103922b7a81e4c7352e3d982d558b2814fc23e32667e3af3e6c55659db9d4444ec6210374d27bb7a985324751282a0076600cf5cb567ffca2185603b947c365c60c6ca6210398caf6bdfa866e84b0e75377946beaaa72652e85eb38fa71a08f33a93861af6753ae"], "sequence": 4294967295, "scriptSig": {"hex": "2200203ca19754aec7c8bf71f89e6d12b60f855a8af67e3b0a78bc17c92c0e97a0ecd6", "asm": "00203ca19754aec7c8bf71f89e6d12b60f855a8af67e3b0a78bc17c92c0e97a0ecd6"}, "vout": 3, "txid": "9f1807d2763de7ebbeb106c427a88eef7cd41371512ee5227dc70a1518ab76cb"}, {"txinwitness": ["", "304402207b91caca40bbb9bde0f3e3f637ece452fbe352122ae4faeeddd28b86eb4cd6150220755017711b4168f24b9e082ddb6ae2788b1b73b311e3d4a874e924cb2a58f41101", "3045022100964c6d05dc252c3609d936f47b06df910c43b8c26cb7fb877415999618a5323d02202e478683763bebd51b2623b5f8948e3dd5d2b0ffb4ddd61b4a266d169cb02a6601", "522103c3f7b4a12a15b18f1fc9acb0f8eb09b6564a76568b75f52009ae083c1545cba82102923b7858b02001dd8c387751272dbea6acd91867393452332daf5868de03ea862102d019d4e42b091edf0b09a15c1205fadaeb2d55a5c4f3ccd0a282b8ca6783f0cd53ae"], "sequence": 4294967295, "scriptSig": {"hex": "22002006edcbd8a3dedd782a27019a8bd380533bdf4b47976b229193cef7d1c4bf5c49", "asm": "002006edcbd8a3dedd782a27019a8bd380533bdf4b47976b229193cef7d1c4bf5c49"}, "vout": 0, "txid": "875228234b5ac931a8d163c3a98520490550aee91fd275d40292e82dd15b30b4"}, {"txinwitness": ["", "3044022037fb4313d6716f98fd4be4aee8651e6c8cf9a3e43acb97c6bb7001d8dd95716502207130785c60265d22198ae440a3f7373cbffc7cb23fe1795b62ecd6038f7a172901", "30440220263af8b0e348ade79b90d51de353b3adea2e4271b17ac64bd0c9141dab21f7b50220560253d09b2dad4b3ce8f096071e2d148bd8cee3112bcae73b90b01fbebb159001", "5221031d5df86a1c0c10aa0708aeebcc21f1ffa47e3f513c1ab59cf83299b5be9acb842103e9cd73063643155bdc4ace02d6f51c1330287fb91b56dd1e391aaa6bd8590b2e210387f9a07317b95b6964afb8fcd63d3ae3aa9eb6ebc9c0b05e7375405c9fd9827953ae"], "sequence": 4294967295, "scriptSig": {"hex": "2200200de6aaf04412e356500a5f0030d1160bb7d6c7ad22facf30c7679d9b98958b42", "asm": "00200de6aaf04412e356500a5f0030d1160bb7d6c7ad22facf30c7679d9b98958b42"}, "vout": 0, "txid": "297fde7ff8700f57d92f096aa7cc440f754e0fa3bfef6685bcff6cac792e5658"}, {"sequence": 4294967295, "scriptSig": {"hex": "00473044022063973495345425a5097557700478c6d0219d8667a2981ad2000e98aa4773993302201e952359e26539b94cd16dad3b4bbc7b113424b895eda7f0ba28820a85c030f701473044022011b100c2787296fc23ece08a9aaa47c1bab57c04d9337912bce1ed2071a12fd002203076f9172a58d5c0f3cb7c0381ed84d8158bf02ea687dbd349677fc7c0d916dc014c69522102d1763f186565f3557b688eb8148fbd3c428fb4be4732e0596260343a8394fec52103bf26f86d9e24492b5926c16fab2417eab4651418fb9a5f9d6a53a2cf6a718413210338f91ff8505b2a1326e0ae8f364d29a3f498bbd8cb5529a4289e72aa55ba649153ae", "asm": "0 3044022063973495345425a5097557700478c6d0219d8667a2981ad2000e98aa4773993302201e952359e26539b94cd16dad3b4bbc7b113424b895eda7f0ba28820a85c030f7[ALL] 3044022011b100c2787296fc23ece08a9aaa47c1bab57c04d9337912bce1ed2071a12fd002203076f9172a58d5c0f3cb7c0381ed84d8158bf02ea687dbd349677fc7c0d916dc[ALL] 522102d1763f186565f3557b688eb8148fbd3c428fb4be4732e0596260343a8394fec52103bf26f86d9e24492b5926c16fab2417eab4651418fb9a5f9d6a53a2cf6a718413210338f91ff8505b2a1326e0ae8f364d29a3f498bbd8cb5529a4289e72aa55ba649153ae"}, "vout": 1, "txid": "999d18b7ccc1ae160e24bea90b049c4a76a23f8c652c76d6013f28695c09a235"}, {"sequence": 4294967295, "scriptSig": {"hex": "00483045022100e27e0d35565eeb2b1aaa459b4503a53c982a4ac8bbf0ed9fc7b9a0436ad81a3a02204ee708dac8c56bc9b8b1aec32af7caf7b2617c46e7b32f74727d2d1ce15823e801483045022100abd7b8cb0e9e16cb0ce0a86225b866dad04ceaf7494fd58d822d9d3ce344c9bc02203d7b6a55458734e77a5250b1d277cd72a5ac48c25c2a0a630872b956e87258da014c69522102137b70693e9c3757182774dae6c34a23b87979156f5ff9a88e508734dbaf12af2103a6248f51622c8a374103a993e09c45c82f7e6b5224d68313ce8a66a8bb36452f2102b23476a54365590d25975a60e482d4d36bb7851f9d4e66dd6cb25b0c96363ebc53ae", "asm": "0 3045022100e27e0d35565eeb2b1aaa459b4503a53c982a4ac8bbf0ed9fc7b9a0436ad81a3a02204ee708dac8c56bc9b8b1aec32af7caf7b2617c46e7b32f74727d2d1ce15823e8[ALL] 3045022100abd7b8cb0e9e16cb0ce0a86225b866dad04ceaf7494fd58d822d9d3ce344c9bc02203d7b6a55458734e77a5250b1d277cd72a5ac48c25c2a0a630872b956e87258da[ALL] 522102137b70693e9c3757182774dae6c34a23b87979156f5ff9a88e508734dbaf12af2103a6248f51622c8a374103a993e09c45c82f7e6b5224d68313ce8a66a8bb36452f2102b23476a54365590d25975a60e482d4d36bb7851f9d4e66dd6cb25b0c96363ebc53ae"}, "vout": 1, "txid": "5833f7944e2446e2651d2fc289e15bcf3fe7db362dae7dd9d9db0fee7183936e"}, {"txinwitness": ["", "3045022100f011d94eb7fd4a7a0438c7d2e9786c6f112e8226e5e5bcfdb68407d967a34ac50220540b9af75b9fbac3613939d527398b31ca98e7f2e3324457126bd5674b16adc901", "3045022100a138f8d368bffef7c95874eff4ad37b94b72f02cd8224c80e8ef91fdd5b22b3702200cf86c304d2c90104b8ad4fc59d36d7d7d9593df150ef0852c18b9b502f45baf01", "52210304caad1008636de84aa2b7348d2b7a42fde6bd72ea3fad1a2ab479eafbd7754e21028ed421ce909c2df255eb421bcb882fe94ed2bf943235cd8e81e621f8fbdea1712103483b77393a75a5341c5c67887e3f993a89d3dc79120be8ce5848d4fcb74f06ec53ae"], "sequence": 4294967295, "scriptSig": {"hex": "220020021d0ad906852685a2abba713cc42f6e3f682fdc71bf6565b97df90c37ee8be6", "asm": "0020021d0ad906852685a2abba713cc42f6e3f682fdc71bf6565b97df90c37ee8be6"}, "vout": 0, "txid": "580dc10a4a75df81bff96b06eb96f7c8c654ab0a7c96603b1e889b89d101494e"}], "txid": "4a20a90835d030ca42b50cfd0b3e9903a956ce1b556fa96aca6cb69f059d143b", "blocktime": 1537871767, "version": 1, "confirmations": 11495, "time": 1537871767, "locktime": 0, "vsize": 2495, "size": 3827}