{"hash": "4a38fc4c58d92491d0489e78cbfa5706ab6dc4cb9c375e56d74d5fba00584a83", "blockhash": "0000000000000000001cda96e906b7601b7a6fb1a3b62bca570a9e5d8f4b3de1", "vout": [{"scriptPubKey": {"type": "nulldata", "hex": "6a4c50000077cc00011fd98323c298a2716baafe825b23cc0f42c2fc38c5e5bf9ae76da98a211a4361990d2ae22babf8c3122f1191b9115baa13e90613397824270e011d100759d4ba30d2c37bb011d97e02cf", "asm": "OP_RETURN 000077cc00011fd98323c298a2716baafe825b23cc0f42c2fc38c5e5bf9ae76da98a211a4361990d2ae22babf8c3122f1191b9115baa13e90613397824270e011d100759d4ba30d2c37bb011d97e02cf"}, "value": 0.0, "n": 0}, {"scriptPubKey": {"reqSigs": 1, "hex": "76a91495737aa1f193f2909ff3e2d66d70463f17d384b788ac", "addresses": ["1EdE2CzAXtA1PDMNhRik6M7cv5nVhty5TH"], "asm": "OP_DUP OP_HASH160 95737aa1f193f2909ff3e2d66d70463f17d384b7 OP_EQUALVERIFY OP_CHECKSIG", "type": "pubkeyhash"}, "value": 0.00644145, "n": 1}], "hex": "0100000001e6edbf7ff3c2a00536f527a0635d711358b63c7c7158623683303e405b2b8bcf010000006b483045022100b25c83dc2e49a681c739e8671b245150cddf50401e3b4ff8cb93f4bc7111cdab022006bbe02cb7a79aabf9b96cb84716ca8014f6d884d0eb5717ed96c95656589278012103551fd817e5529466c93f707696bba177143d123a35c04158f936bb1ac55fc780ffffffff020000000000000000536a4c50000077cc00011fd98323c298a2716baafe825b23cc0f42c2fc38c5e5bf9ae76da98a211a4361990d2ae22babf8c3122f1191b9115baa13e90613397824270e011d100759d4ba30d2c37bb011d97e02cf31d40900000000001976a91495737aa1f193f2909ff3e2d66d70463f17d384b788ac00000000", "vin": [{"sequence": 4294967295, "scriptSig": {"hex": "483045022100b25c83dc2e49a681c739e8671b245150cddf50401e3b4ff8cb93f4bc7111cdab022006bbe02cb7a79aabf9b96cb84716ca8014f6d884d0eb5717ed96c95656589278012103551fd817e5529466c93f707696bba177143d123a35c04158f936bb1ac55fc780", "asm": "3045022100b25c83dc2e49a681c739e8671b245150cddf50401e3b4ff8cb93f4bc7111cdab022006bbe02cb7a79aabf9b96cb84716ca8014f6d884d0eb5717ed96c95656589278[ALL] 03551fd817e5529466c93f707696bba177143d123a35c04158f936bb1ac55fc780"}, "vout": 1, "txid": "cf8b2b5b403e3083366258717c3cb65813715d63a027f53605a0c2f37fbfede6"}], "txid": "4a38fc4c58d92491d0489e78cbfa5706ab6dc4cb9c375e56d74d5fba00584a83", "blocktime": 1537873282, "version": 1, "confirmations": 11484, "time": 1537873282, "locktime": 0, "vsize": 284, "size": 284}