{"hash": "6d0ad39c05962460242fc1d7650c604363c42696c7b90449b26ac2c6cb888cf3", "blockhash": "0000000000000000001cda96e906b7601b7a6fb1a3b62bca570a9e5d8f4b3de1", "vout": [{"scriptPubKey": {"reqSigs": 1, "hex": "00148898bfd02be1f8a1460d10681802fa0ad0c92317", "addresses": ["bc1q3zvtl5ptu8u2z3sdzp5psqh6ptgvjgchf4sxm9"], "asm": "0 8898bfd02be1f8a1460d10681802fa0ad0c92317", "type": "witness_v0_keyhash"}, "value": 1.715e-05, "n": 0}, {"scriptPubKey": {"reqSigs": 1, "hex": "76a914fcc2f3ec54a2758fdafbd0f3b67079da86107e2888ac", "addresses": ["1Q3UpuFzKvnfiZBsChUUfokBnY2zye7zAe"], "asm": "OP_DUP OP_HASH160 fcc2f3ec54a2758fdafbd0f3b67079da86107e28 OP_EQUALVERIFY OP_CHECKSIG", "type": "pubkeyhash"}, "value": 0.00412492, "n": 1}], "hex": "01000000000101d7b78a481f04566896f8d2e7045cf5c2c1fd563807f4f20f4aa84a9d5209a0b30000000000ffffffff02b3060000000000001600148898bfd02be1f8a1460d10681802fa0ad0c923174c4b0600000000001976a914fcc2f3ec54a2758fdafbd0f3b67079da86107e2888ac024730440220064bad40cdbdbfce75eb50bc11c04a189155e17959b6cec0e414cf8b9a1f76ba0220771c5593464265b267f222c3e1eb222b9496eeac1305ef22a48ba840557566840121030121d608904f3191804ec75bab1cc379813898c944610139114156d26e3c157d00000000", "vin": [{"txinwitness": ["30440220064bad40cdbdbfce75eb50bc11c04a189155e17959b6cec0e414cf8b9a1f76ba0220771c5593464265b267f222c3e1eb222b9496eeac1305ef22a48ba8405575668401", "030121d608904f3191804ec75bab1cc379813898c944610139114156d26e3c157d"], "sequence": 4294967295, "scriptSig": {"hex": "", "asm": ""}, "vout": 0, "txid": "b3a009529d4aa84a0ff2f4073856fdc1c2f55c04e7d2f8966856041f488ab7d7"}], "txid": "4a3d9c7bdeccd211e97b2c4b6837a8e75ecdb493e5f93cae44935e62f4fca5f9", "blocktime": 1537873282, "version": 1, "confirmations": 11484, "time": 1537873282, "locktime": 0, "vsize": 144, "size": 225}