{"hash": "b0cbbabfeea438ca588c76d5d534759548539d900f337aede74365cb39de713d", "blockhash": "0000000000000000001cda96e906b7601b7a6fb1a3b62bca570a9e5d8f4b3de1", "vout": [{"scriptPubKey": {"reqSigs": 1, "hex": "a91489b3adcd3a3440cd455bd99f3d549f4bdec92ca587", "addresses": ["3EF7k8jrXGCUYdK952Kcinxz2S3omwXg6e"], "asm": "OP_HASH160 89b3adcd3a3440cd455bd99f3d549f4bdec92ca5 OP_EQUAL", "type": "scripthash"}, "value": 0.00011419, "n": 0}, {"scriptPubKey": {"reqSigs": 1, "hex": "a914bfe3b9b006bd60d821de4768216fbcf3cb0629a487", "addresses": ["3KBdnpNRSUC6xH7oL58GWg3f1QzPQs9FWq"], "asm": "OP_HASH160 bfe3b9b006bd60d821de4768216fbcf3cb0629a4 OP_EQUAL", "type": "scripthash"}, "value": 0.01413963, "n": 1}], "hex": "01000000000101a5d4edb576a0cb0ecd7b738f614f7aac2604c68c5d7cdbf0544f135ac36fec0101000000232200204ac72bc93353695ed44de9eabe5eab31fde46c3e5524f6f6c253b37df4627817ffffffff029b2c00000000000017a91489b3adcd3a3440cd455bd99f3d549f4bdec92ca5874b9315000000000017a914bfe3b9b006bd60d821de4768216fbcf3cb0629a487040047304402205f5c9890856e5c6d86c2a0dc56ead2a948f94e0bbc5a56521270f2b078f8a34702203bd4998964e0017be01a5abd3f6b47ec0318362212ac87a4805ef8ba7ea386de0147304402202cfe6f33188e28c72c2e7721f7e20a2fbc373d44835093426ff23f5bc2d63735022045f05605d148e253db9bc473e1714f636a66658d87778383a6c2a1a4fa030f08014752210383dd989bbcdccf0b79b07f5bbd82921af5ac4762329b0aa9346994805e5cd8fc2103871fc2ca08e6950b38867e8e6a0e94ee625223d3aa0df5c65f414c6d784467e252ae00000000", "vin": [{"txinwitness": ["", "304402205f5c9890856e5c6d86c2a0dc56ead2a948f94e0bbc5a56521270f2b078f8a34702203bd4998964e0017be01a5abd3f6b47ec0318362212ac87a4805ef8ba7ea386de01", "304402202cfe6f33188e28c72c2e7721f7e20a2fbc373d44835093426ff23f5bc2d63735022045f05605d148e253db9bc473e1714f636a66658d87778383a6c2a1a4fa030f0801", "52210383dd989bbcdccf0b79b07f5bbd82921af5ac4762329b0aa9346994805e5cd8fc2103871fc2ca08e6950b38867e8e6a0e94ee625223d3aa0df5c65f414c6d784467e252ae"], "sequence": 4294967295, "scriptSig": {"hex": "2200204ac72bc93353695ed44de9eabe5eab31fde46c3e5524f6f6c253b37df4627817", "asm": "00204ac72bc93353695ed44de9eabe5eab31fde46c3e5524f6f6c253b37df4627817"}, "vout": 1, "txid": "01ec6fc35a134f54f0db7c5d8cc60426ac7a4f618f737bcd0ecba076b5edd4a5"}], "txid": "4a4170bd92407f6ebc25be3dc6357fac035d113dff0a46763dd42e7f92ffb68a", "blocktime": 1537873282, "version": 1, "confirmations": 11484, "time": 1537873282, "locktime": 0, "vsize": 205, "size": 370}