{"hash": "4a4588e6f1dfb48cdfdee6d5c8a79d498092650d9a8a73934d734f3219425f9c", "blockhash": "0000000000000000000baef3f32e3676a92c3b2e5da21b426e4f302fc371ce76", "vout": [{"scriptPubKey": {"reqSigs": 1, "hex": "76a9144b52268fc37f9e927e22cf974a0e4b1d104923c588ac", "addresses": ["17sG6KAcHwN9LkTAUypxd2KMW2zzLuNQUb"], "asm": "OP_DUP OP_HASH160 4b52268fc37f9e927e22cf974a0e4b1d104923c5 OP_EQUALVERIFY OP_CHECKSIG", "type": "pubkeyhash"}, "value": 0.00305984, "n": 0}, {"scriptPubKey": {"reqSigs": 1, "hex": "76a914b6363358942088db54e4f7a444e885431980515e88ac", "addresses": ["1HcSuqRDfrDQeWddSMBvGckKFpqfGrBdRJ"], "asm": "OP_DUP OP_HASH160 b6363358942088db54e4f7a444e885431980515e OP_EQUALVERIFY OP_CHECKSIG", "type": "pubkeyhash"}, "value": 0.0154001, "n": 1}], "hex": "01000000015e3e2f9a97a8e0d9f684a5b210014621edda0520afc25a8eed0080bbae2d97a4010000006b48304502210097b8bca52b720a15d91c39c4f1ab5f86b7c93e5fc2ac6ed97f4fdc810b7bdc050220482ce0c6d31bc42e422abd34bff1ef593c250ed9702eba1cc053734e524019d8012102c8e4652ef2a570d16d8ede3f86c7e9e2104159e9f917f5dabd0e3d53c0432a0effffffff0240ab0400000000001976a9144b52268fc37f9e927e22cf974a0e4b1d104923c588acaa7f1700000000001976a914b6363358942088db54e4f7a444e885431980515e88ac00000000", "vin": [{"sequence": 4294967295, "scriptSig": {"hex": "48304502210097b8bca52b720a15d91c39c4f1ab5f86b7c93e5fc2ac6ed97f4fdc810b7bdc050220482ce0c6d31bc42e422abd34bff1ef593c250ed9702eba1cc053734e524019d8012102c8e4652ef2a570d16d8ede3f86c7e9e2104159e9f917f5dabd0e3d53c0432a0e", "asm": "304502210097b8bca52b720a15d91c39c4f1ab5f86b7c93e5fc2ac6ed97f4fdc810b7bdc050220482ce0c6d31bc42e422abd34bff1ef593c250ed9702eba1cc053734e524019d8[ALL] 02c8e4652ef2a570d16d8ede3f86c7e9e2104159e9f917f5dabd0e3d53c0432a0e"}, "vout": 1, "txid": "a4972daebb8000ed8e5ac2af2005daed21460110b2a584f6d9e0a8979a2f3e5e"}], "txid": "4a4588e6f1dfb48cdfdee6d5c8a79d498092650d9a8a73934d734f3219425f9c", "blocktime": 1537876114, "version": 1, "confirmations": 11460, "time": 1537876114, "locktime": 0, "vsize": 226, "size": 226}