{"hash": "4a45bdd536d19d5377d9f7e85078287f1dfe437e29882b0069e18fc457f644e9", "blockhash": "0000000000000000001f0ddff1eddb255c1121bcd4da4f1bc9a0da00cae72433", "vout": [{"scriptPubKey": {"reqSigs": 1, "hex": "76a91472e317d2da34d87de4f507f21306d0e75ee4e05e88ac", "addresses": ["1BUU5a8RbWjCL3ymjbYn1MPPnUacagmty8"], "asm": "OP_DUP OP_HASH160 72e317d2da34d87de4f507f21306d0e75ee4e05e OP_EQUALVERIFY OP_CHECKSIG", "type": "pubkeyhash"}, "value": 0.00192785, "n": 0}, {"scriptPubKey": {"reqSigs": 1, "hex": "a9149c47a747dcae59b479acea0c6fc124d12e47880587", "addresses": ["3FwMB38mohS8HvXU1yqLER61dFhqyaHcCe"], "asm": "OP_HASH160 9c47a747dcae59b479acea0c6fc124d12e478805 OP_EQUAL", "type": "scripthash"}, "value": 0.62558086, "n": 1}], "hex": "01000000045b9cfa9aba9f7e35825827b4ea3a9cbf33eccc6530c7076fe4d4494b3600a823000000006a47304402207ecf6058949a2b35af3c01a105e27dfa8805710f67a815816424cba7f9669ffa0220724c2f8aa6a0dec1c415714bc7328d50d0c71ab4f50f880e058f9edb662196c901210217ef2206da1af03f545d8966b1a041dc78af1d28c486ac26b552d6729cb0318bffffffff01f903ebc7d7fbf53a65c7120277be67c77f9c5ac104bde19eedf35ab0c13143000000006a473044022004a184987134be3d35bdb9b314f054f91de1930249d9ed8d90f16e2f22ec0b0a02201e2e7f965c4e572e004efea469dc5d5494684c7d126a3949578db2fbeb502b2701210217ef2206da1af03f545d8966b1a041dc78af1d28c486ac26b552d6729cb0318bffffffff0891c464df12a423ec5b1af6f5d87c3f792a5fa5a202b13ce7817118c58e62bf010000006a473044022061085b740078b348f98b405495b54a9f1fc8b7da1d99212a6f5eb66e0f76a0ba022044780212a09bca4f59028ceb4376da203b06cb17b11904c166acaf38034b682001210217ef2206da1af03f545d8966b1a041dc78af1d28c486ac26b552d6729cb0318bffffffff3cd1c4c73daa05c50172ab5809ed62b94f34b726a64e2da9c05f5cced7b5e2f3010000006b483045022100f4c47246ca9ae457293b16553b7fcd0c66b00a4db8505fb161b6d3d53d97fbee022060c49a15d61360a62946ebad7527c54cbf388223a8f28d90b6a81da7537d285801210217ef2206da1af03f545d8966b1a041dc78af1d28c486ac26b552d6729cb0318bffffffff0211f10200000000001976a91472e317d2da34d87de4f507f21306d0e75ee4e05e88ac868fba030000000017a9149c47a747dcae59b479acea0c6fc124d12e4788058700000000", "vin": [{"sequence": 4294967295, "scriptSig": {"hex": "47304402207ecf6058949a2b35af3c01a105e27dfa8805710f67a815816424cba7f9669ffa0220724c2f8aa6a0dec1c415714bc7328d50d0c71ab4f50f880e058f9edb662196c901210217ef2206da1af03f545d8966b1a041dc78af1d28c486ac26b552d6729cb0318b", "asm": "304402207ecf6058949a2b35af3c01a105e27dfa8805710f67a815816424cba7f9669ffa0220724c2f8aa6a0dec1c415714bc7328d50d0c71ab4f50f880e058f9edb662196c9[ALL] 0217ef2206da1af03f545d8966b1a041dc78af1d28c486ac26b552d6729cb0318b"}, "vout": 0, "txid": "23a800364b49d4e46f07c73065ccec33bf9c3aeab4275882357e9fba9afa9c5b"}, {"sequence": 4294967295, "scriptSig": {"hex": "473044022004a184987134be3d35bdb9b314f054f91de1930249d9ed8d90f16e2f22ec0b0a02201e2e7f965c4e572e004efea469dc5d5494684c7d126a3949578db2fbeb502b2701210217ef2206da1af03f545d8966b1a041dc78af1d28c486ac26b552d6729cb0318b", "asm": "3044022004a184987134be3d35bdb9b314f054f91de1930249d9ed8d90f16e2f22ec0b0a02201e2e7f965c4e572e004efea469dc5d5494684c7d126a3949578db2fbeb502b27[ALL] 0217ef2206da1af03f545d8966b1a041dc78af1d28c486ac26b552d6729cb0318b"}, "vout": 0, "txid": "4331c1b05af3ed9ee1bd04c15a9c7fc767be770212c7653af5fbd7c7eb03f901"}, {"sequence": 4294967295, "scriptSig": {"hex": "473044022061085b740078b348f98b405495b54a9f1fc8b7da1d99212a6f5eb66e0f76a0ba022044780212a09bca4f59028ceb4376da203b06cb17b11904c166acaf38034b682001210217ef2206da1af03f545d8966b1a041dc78af1d28c486ac26b552d6729cb0318b", "asm": "3044022061085b740078b348f98b405495b54a9f1fc8b7da1d99212a6f5eb66e0f76a0ba022044780212a09bca4f59028ceb4376da203b06cb17b11904c166acaf38034b6820[ALL] 0217ef2206da1af03f545d8966b1a041dc78af1d28c486ac26b552d6729cb0318b"}, "vout": 1, "txid": "bf628ec5187181e73cb102a2a55f2a793f7cd8f5f61a5bec23a412df64c49108"}, {"sequence": 4294967295, "scriptSig": {"hex": "483045022100f4c47246ca9ae457293b16553b7fcd0c66b00a4db8505fb161b6d3d53d97fbee022060c49a15d61360a62946ebad7527c54cbf388223a8f28d90b6a81da7537d285801210217ef2206da1af03f545d8966b1a041dc78af1d28c486ac26b552d6729cb0318b", "asm": "3045022100f4c47246ca9ae457293b16553b7fcd0c66b00a4db8505fb161b6d3d53d97fbee022060c49a15d61360a62946ebad7527c54cbf388223a8f28d90b6a81da7537d2858[ALL] 0217ef2206da1af03f545d8966b1a041dc78af1d28c486ac26b552d6729cb0318b"}, "vout": 1, "txid": "f3e2b5d7ce5c5fc0a92d4ea626b7344fb962ed0958ab7201c505aa3dc7c4d13c"}], "txid": "4a45bdd536d19d5377d9f7e85078287f1dfe437e29882b0069e18fc457f644e9", "blocktime": 1537872018, "version": 1, "confirmations": 11489, "time": 1537872018, "locktime": 0, "vsize": 665, "size": 665}