{"hash": "89cc66f0f9411c017bd556099577a32ae3ac2e8ad842ee58e7301bbeb2f62ff1", "blockhash": "0000000000000000000dcc0f55137456b1a82d3642486a52398922ac4d620174", "vout": [{"scriptPubKey": {"reqSigs": 1, "hex": "a914fdb1ca4f6a7e94d1a8a61262fec414237cf853db87", "addresses": ["3QpRsAL7nY23RWzFgqdTM7v2RghpsJ4TEF"], "asm": "OP_HASH160 fdb1ca4f6a7e94d1a8a61262fec414237cf853db OP_EQUAL", "type": "scripthash"}, "value": 5.74894432, "n": 0}, {"scriptPubKey": {"reqSigs": 1, "hex": "a9145b3e097de92bb30c52d983a0f69dc616150f5a3987", "addresses": ["3A1TjQrLFZj2WmwvuNvpQcfWBQzFAtq7bm"], "asm": "OP_HASH160 5b3e097de92bb30c52d983a0f69dc616150f5a39 OP_EQUAL", "type": "scripthash"}, "value": 0.01, "n": 1}], "hex": "0200000000010166235d78b21e5b8723f3aec425c2c6475106705557d2631ea2d9a0dfc1a12c330100000017160014155a254264a7ba7d95f0a0964daf7adf282b9d4efeffffff02603144220000000017a914fdb1ca4f6a7e94d1a8a61262fec414237cf853db8740420f000000000017a9145b3e097de92bb30c52d983a0f69dc616150f5a39870247304402201112266b4e08982f93ea54390204b1bcc02454beb0d79908b135d9a4bca00f33022021243076fea70a6dd34838017dc719af5a3fe669a90555b69fd0b23489a3cf0e012102b96a6077832bdad1e7de88d80c357f7361e197ee4a5248147c50ff87d90a46290c490800", "vin": [{"txinwitness": ["304402201112266b4e08982f93ea54390204b1bcc02454beb0d79908b135d9a4bca00f33022021243076fea70a6dd34838017dc719af5a3fe669a90555b69fd0b23489a3cf0e01", "02b96a6077832bdad1e7de88d80c357f7361e197ee4a5248147c50ff87d90a4629"], "sequence": 4294967294, "scriptSig": {"hex": "160014155a254264a7ba7d95f0a0964daf7adf282b9d4e", "asm": "0014155a254264a7ba7d95f0a0964daf7adf282b9d4e"}, "vout": 1, "txid": "332ca1c1dfa0d9a21e63d2575570065147c6c225c4aef323875b1eb2785d2366"}], "txid": "4a4ffd36220138519eb3285f6392ad5b13986deed65518daf77307feba35f4ee", "blocktime": 1537870268, "version": 2, "confirmations": 11519, "time": 1537870268, "locktime": 542988, "vsize": 166, "size": 247}