{"hash": "4a51364c63864df9f44e1ca15097a38c82b8ec156040206384e21cf401444368", "blockhash": "00000000000000000017f5eb5941039fbcee6240d03bc1f2f8e35350df66a1d8", "vout": [{"scriptPubKey": {"reqSigs": 1, "hex": "a91489496aea4e7f4e35e0da2b25280f46b19988e8ca87", "addresses": ["3ECvSyJ7QhYBGERSYDB6wjPJLVkpbfNFJz"], "asm": "OP_HASH160 89496aea4e7f4e35e0da2b25280f46b19988e8ca OP_EQUAL", "type": "scripthash"}, "value": 0.0019256, "n": 0}, {"scriptPubKey": {"reqSigs": 1, "hex": "76a91457f4e2296b3e4f345d6b04b24747298e0b02e8dd88ac", "addresses": ["19259VNsW9HuXD8tVqaRXUz3gx1sQdnsKh"], "asm": "OP_DUP OP_HASH160 57f4e2296b3e4f345d6b04b24747298e0b02e8dd OP_EQUALVERIFY OP_CHECKSIG", "type": "pubkeyhash"}, "value": 0.01820029, "n": 1}], "hex": "01000000018b76c58af04ca66e3bc299eeb7d717585db1e0dc3d50e33ff60ef3b6eb2bbd3b010000006b48304502210085f2c542c4c877befef2efad9fca58e373cdca989fb43783d520f49ba3f2a71f02205a9ed541145e14bae759f8c8094743b3a54932be529fd6db137a2ac89bee0e380121021edb6cbf6e9eb3ec3c1a85d214f99e78260cceef622def0cf8f613d77a6f3481ffffffff0230f002000000000017a91489496aea4e7f4e35e0da2b25280f46b19988e8ca877dc51b00000000001976a91457f4e2296b3e4f345d6b04b24747298e0b02e8dd88ac00000000", "vin": [{"sequence": 4294967295, "scriptSig": {"hex": "48304502210085f2c542c4c877befef2efad9fca58e373cdca989fb43783d520f49ba3f2a71f02205a9ed541145e14bae759f8c8094743b3a54932be529fd6db137a2ac89bee0e380121021edb6cbf6e9eb3ec3c1a85d214f99e78260cceef622def0cf8f613d77a6f3481", "asm": "304502210085f2c542c4c877befef2efad9fca58e373cdca989fb43783d520f49ba3f2a71f02205a9ed541145e14bae759f8c8094743b3a54932be529fd6db137a2ac89bee0e38[ALL] 021edb6cbf6e9eb3ec3c1a85d214f99e78260cceef622def0cf8f613d77a6f3481"}, "vout": 1, "txid": "3bbd2bebb6f30ef63fe3503ddce0b15d5817d7b7ee99c23b6ea64cf08ac5768b"}], "txid": "4a51364c63864df9f44e1ca15097a38c82b8ec156040206384e21cf401444368", "blocktime": 1537874412, "version": 1, "confirmations": 11467, "time": 1537874412, "locktime": 0, "vsize": 224, "size": 224}