{"hash": "4a5800c13558a35129f7e20ef5049d34641623189406c4f6525c2a77d8a77b8a", "blockhash": "000000000000000000205f8b0775d31398ef75b89a5e8ec8d2c57b4dc0ac4c20", "vout": [{"scriptPubKey": {"reqSigs": 1, "hex": "a914a5c679defd49547b8133a1367eeadbdeaecec3da87", "addresses": ["3GoZBZ6F8g4UiCt7moPNLDX7KKwgtGgLUT"], "asm": "OP_HASH160 a5c679defd49547b8133a1367eeadbdeaecec3da OP_EQUAL", "type": "scripthash"}, "value": 0.60827067, "n": 0}, {"scriptPubKey": {"reqSigs": 1, "hex": "76a914cdd56070e50fa05d2cef7fa38a33de64d688fcab88ac", "addresses": ["1KmM8zzT5m4FyazoYUnaL1AuhKKpjxdbA7"], "asm": "OP_DUP OP_HASH160 cdd56070e50fa05d2cef7fa38a33de64d688fcab OP_EQUALVERIFY OP_CHECKSIG", "type": "pubkeyhash"}, "value": 0.01052937, "n": 1}], "hex": "0200000003c94e8c74799a572d24733441d7acd5866318465b896cb2281c09bcbeded89f05450000006a47304402200997c1646994ffa9c6a55637714c27ef37017fa60c7aab21ad2cf5ca92750d6802207512652f7f3fe8a43890163c464bb2d8894ca1039bed83becec7b141a7864c1e012102e5e4c41bc20a216db71b49db22d9a09ca51885750bda3a123f89bb1c3285d778feffffff164a918b9a7c106f483eab0620d635a56aa73ecd70255b6fdaad058bfbf9543f000000006b483045022100cc4315ed244ec5f3609cb5abe6ead1cdc217b6658f11d6208d46ed81cd7b19b90220488c432e8270fff430daa56f8f4b73bfd9bba9105c631020cffd2820b413d0720121039963d26644131f48ff1f53fcf67e6a7876b88f60bf66b4d3ecf931a4dba0bb8afeffffffef51463cf89340037e98c62b2b4a2c588f61a2f56f47a39dcb87c07757c654c4010000006a47304402204b4e5fa4ba48eb77a104fc81a524f252b431c51b1a194ce2f1502da457cb27d702207c2fd7fa712582039516eb1125c7f0805ce3ce18fc738d0f36faf54d80c44e5601210264d92511600fd2a8158cbeb6ebf502d3003ede3e9ce95bc6d7458896300a7b5dfeffffff02bb25a0030000000017a914a5c679defd49547b8133a1367eeadbdeaecec3da8709111000000000001976a914cdd56070e50fa05d2cef7fa38a33de64d688fcab88acb0480800", "vin": [{"sequence": 4294967294, "scriptSig": {"hex": "47304402200997c1646994ffa9c6a55637714c27ef37017fa60c7aab21ad2cf5ca92750d6802207512652f7f3fe8a43890163c464bb2d8894ca1039bed83becec7b141a7864c1e012102e5e4c41bc20a216db71b49db22d9a09ca51885750bda3a123f89bb1c3285d778", "asm": "304402200997c1646994ffa9c6a55637714c27ef37017fa60c7aab21ad2cf5ca92750d6802207512652f7f3fe8a43890163c464bb2d8894ca1039bed83becec7b141a7864c1e[ALL] 02e5e4c41bc20a216db71b49db22d9a09ca51885750bda3a123f89bb1c3285d778"}, "vout": 69, "txid": "059fd8debebc091c28b26c895b46186386d5acd7413473242d579a79748c4ec9"}, {"sequence": 4294967294, "scriptSig": {"hex": "483045022100cc4315ed244ec5f3609cb5abe6ead1cdc217b6658f11d6208d46ed81cd7b19b90220488c432e8270fff430daa56f8f4b73bfd9bba9105c631020cffd2820b413d0720121039963d26644131f48ff1f53fcf67e6a7876b88f60bf66b4d3ecf931a4dba0bb8a", "asm": "3045022100cc4315ed244ec5f3609cb5abe6ead1cdc217b6658f11d6208d46ed81cd7b19b90220488c432e8270fff430daa56f8f4b73bfd9bba9105c631020cffd2820b413d072[ALL] 039963d26644131f48ff1f53fcf67e6a7876b88f60bf66b4d3ecf931a4dba0bb8a"}, "vout": 0, "txid": "3f54f9fb8b05adda6f5b2570cd3ea76aa535d62006ab3e486f107c9a8b914a16"}, {"sequence": 4294967294, "scriptSig": {"hex": "47304402204b4e5fa4ba48eb77a104fc81a524f252b431c51b1a194ce2f1502da457cb27d702207c2fd7fa712582039516eb1125c7f0805ce3ce18fc738d0f36faf54d80c44e5601210264d92511600fd2a8158cbeb6ebf502d3003ede3e9ce95bc6d7458896300a7b5d", "asm": "304402204b4e5fa4ba48eb77a104fc81a524f252b431c51b1a194ce2f1502da457cb27d702207c2fd7fa712582039516eb1125c7f0805ce3ce18fc738d0f36faf54d80c44e56[ALL] 0264d92511600fd2a8158cbeb6ebf502d3003ede3e9ce95bc6d7458896300a7b5d"}, "vout": 1, "txid": "c454c65777c087cb9da3476ff5a2618f582c4a2b2bc6987e034093f83c4651ef"}], "txid": "4a5800c13558a35129f7e20ef5049d34641623189406c4f6525c2a77d8a77b8a", "blocktime": 1537871175, "version": 2, "confirmations": 11510, "time": 1537871175, "locktime": 542896, "vsize": 518, "size": 518}