{"hash": "48d08a8be2b299ed5763d643ed3cf5ccff175232aaaa25232dbff2d341d41b3a", "blockhash": "000000000000000000022b45ed06c6f4ccd3cf7fb5ba4856ebd2e58215665228", "vout": [{"scriptPubKey": {"reqSigs": 1, "hex": "76a914cf29234a420c11a29fcdb0024ab68ab111be11d488ac", "addresses": ["1KtNA1z2YPW3knM33FR9DGuemWHuQCw3vj"], "asm": "OP_DUP OP_HASH160 cf29234a420c11a29fcdb0024ab68ab111be11d4 OP_EQUALVERIFY OP_CHECKSIG", "type": "pubkeyhash"}, "value": 0.00331935, "n": 0}, {"scriptPubKey": {"reqSigs": 1, "hex": "a914ad37eec5b2fc0d907f8a6b7ddacd85b9845e2c2187", "addresses": ["3HUuq17n9bxpWJjL4KLCbJMPsbKcSxrCtw"], "asm": "OP_HASH160 ad37eec5b2fc0d907f8a6b7ddacd85b9845e2c21 OP_EQUAL", "type": "scripthash"}, "value": 0.00113948, "n": 1}], "hex": "01000000000102a1260fb40808835993ddb05450c7cea2397e70044feeafdb75425dec769018350000000023220020c2a28d28f678dc8824017c76efcefdf27d43a42df9632af9bc70710736e1e58fffffffff2dda283ccc33c13a03c921e6ae333628546b45f75f4255e9981a06ae206640a90100000023220020c2a28d28f678dc8824017c76efcefdf27d43a42df9632af9bc70710736e1e58fffffffff029f100500000000001976a914cf29234a420c11a29fcdb0024ab68ab111be11d488ac1cbd01000000000017a914ad37eec5b2fc0d907f8a6b7ddacd85b9845e2c2187040047304402202940ff59fa60fb8e330295708a6bd982c4c8af2645278cfa14c57fe3cc4575c4022028d7f6095d5af1ef7f8ca3e0bae909a27b80e2b0ef59849606eabf734892d8ef01473044022012f4d92591ba4cc02ccee1082904590e66c0f8f244bafdaa7c2767463b26b42202204be5b24f3266770ba3782ed37e0d654ecb385d79c16157a165691f2bf607a5ae0147522103e692cc00a065a7af242d4c2822f26995621ee3aa9514b573cfe4ebf996bd8111210297d3a0c3e63b20b9e6f3ace4d89e21364009021bc5359dc849fc63b9f48feba552ae040047304402205e2b5ccda59e872ac5791c836b19f00ed02b72b0c5067eda45ee1cf6b297792e0220787c877573b796ecd72c670b503b60bb003e67085ca9843c9fa4a817ebd1840101483045022100ac91a67f339497a924f38eccf3c7926fe595bd2d7f2fad772fd168081d1e221d0220271c5fbd91e9fbbbb5baa95e449dfac5f89030921337804226adce1d340d53610147522103e692cc00a065a7af242d4c2822f26995621ee3aa9514b573cfe4ebf996bd8111210297d3a0c3e63b20b9e6f3ace4d89e21364009021bc5359dc849fc63b9f48feba552ae00000000", "vin": [{"txinwitness": ["", "304402202940ff59fa60fb8e330295708a6bd982c4c8af2645278cfa14c57fe3cc4575c4022028d7f6095d5af1ef7f8ca3e0bae909a27b80e2b0ef59849606eabf734892d8ef01", "3044022012f4d92591ba4cc02ccee1082904590e66c0f8f244bafdaa7c2767463b26b42202204be5b24f3266770ba3782ed37e0d654ecb385d79c16157a165691f2bf607a5ae01", "522103e692cc00a065a7af242d4c2822f26995621ee3aa9514b573cfe4ebf996bd8111210297d3a0c3e63b20b9e6f3ace4d89e21364009021bc5359dc849fc63b9f48feba552ae"], "sequence": 4294967295, "scriptSig": {"hex": "220020c2a28d28f678dc8824017c76efcefdf27d43a42df9632af9bc70710736e1e58f", "asm": "0020c2a28d28f678dc8824017c76efcefdf27d43a42df9632af9bc70710736e1e58f"}, "vout": 0, "txid": "35189076ec5d4275dbafee4f04707e39a2cec75054b0dd9359830808b40f26a1"}, {"txinwitness": ["", "304402205e2b5ccda59e872ac5791c836b19f00ed02b72b0c5067eda45ee1cf6b297792e0220787c877573b796ecd72c670b503b60bb003e67085ca9843c9fa4a817ebd1840101", "3045022100ac91a67f339497a924f38eccf3c7926fe595bd2d7f2fad772fd168081d1e221d0220271c5fbd91e9fbbbb5baa95e449dfac5f89030921337804226adce1d340d536101", "522103e692cc00a065a7af242d4c2822f26995621ee3aa9514b573cfe4ebf996bd8111210297d3a0c3e63b20b9e6f3ace4d89e21364009021bc5359dc849fc63b9f48feba552ae"], "sequence": 4294967295, "scriptSig": {"hex": "220020c2a28d28f678dc8824017c76efcefdf27d43a42df9632af9bc70710736e1e58f", "asm": "0020c2a28d28f678dc8824017c76efcefdf27d43a42df9632af9bc70710736e1e58f"}, "vout": 1, "txid": "a9406620ae061a98e955425ff7456b54283633aee621c9033ac133cc3c28da2d"}], "txid": "4a59eff48a3483982937fa6b5bfc33bdaf3c719da4f147e27987766acc1fc9a6", "blocktime": 1537869901, "version": 1, "confirmations": 11522, "time": 1537869901, "locktime": 0, "vsize": 338, "size": 667}