{"hash": "c412912bf650d3a5480a154a6dd5e03f88d9f82a56a1e6b164fff526b650ffb4", "blockhash": "0000000000000000000dcc0f55137456b1a82d3642486a52398922ac4d620174", "vout": [{"scriptPubKey": {"reqSigs": 1, "hex": "a9148ce16ba1402aad690be7ff612e64b50b783d344587", "addresses": ["3EXvZtLpPjuFpVKbUf2BvedD9encPgLEcH"], "asm": "OP_HASH160 8ce16ba1402aad690be7ff612e64b50b783d3445 OP_EQUAL", "type": "scripthash"}, "value": 0.0078, "n": 0}, {"scriptPubKey": {"reqSigs": 1, "hex": "0014ae49902d51840a2b68d883776a50dee54681ffc8", "addresses": ["bc1q4eyeqt23ss9zk6xcsdmk55x7u4rgrl7gxpaed4"], "asm": "0 ae49902d51840a2b68d883776a50dee54681ffc8", "type": "witness_v0_keyhash"}, "value": 0.00089536, "n": 1}], "hex": "010000000001014db1cdd602565b699fbaa22c2bc1241c9e9085d3e3bc320e46206a6585d82a220000000000ffffffff02e0e60b000000000017a9148ce16ba1402aad690be7ff612e64b50b783d344587c05d010000000000160014ae49902d51840a2b68d883776a50dee54681ffc802483045022100bdab3296ef5a7b3f57e35c41f54cb9dc2e81b7b0d59e13e67d2ac1c5ed18587a0220081429f04b58497407e45926ddf6822e876a85c34c0c472b9b3e12df02b9e7d1012102c7748def45781d245d584250ca02c8e4a206d752e7cf116fd1d0eef19481312c00000000", "vin": [{"txinwitness": ["3045022100bdab3296ef5a7b3f57e35c41f54cb9dc2e81b7b0d59e13e67d2ac1c5ed18587a0220081429f04b58497407e45926ddf6822e876a85c34c0c472b9b3e12df02b9e7d101", "02c7748def45781d245d584250ca02c8e4a206d752e7cf116fd1d0eef19481312c"], "sequence": 4294967295, "scriptSig": {"hex": "", "asm": ""}, "vout": 0, "txid": "222ad885656a20460e32bce3d385909e1c24c12b2ca2ba9f695b5602d6cdb14d"}], "txid": "4a5cf63c70f1c74a9dc15c979442f99a3799a4327287cb2aa81b6d25d3ee5308", "blocktime": 1537870268, "version": 1, "confirmations": 11518, "time": 1537870268, "locktime": 0, "vsize": 142, "size": 224}