{"hash": "4a5e355f50a47bb588aac297817a880b2416e4ca091831437a564a21d8f7389d", "blockhash": "0000000000000000000dcc0f55137456b1a82d3642486a52398922ac4d620174", "vout": [{"scriptPubKey": {"reqSigs": 1, "hex": "a91463e2e998f1a6ac447090cc071c016e12a259572687", "addresses": ["3AoAeh3M3X9oGWug5tfcnu1gU2w4QrzJ2g"], "asm": "OP_HASH160 63e2e998f1a6ac447090cc071c016e12a2595726 OP_EQUAL", "type": "scripthash"}, "value": 0.00450276, "n": 0}, {"scriptPubKey": {"reqSigs": 1, "hex": "76a9142ac1f440bcdb96e3d72b3cbabe9b3a3dab5dba7f88ac", "addresses": ["14u5jE3Xd411evtFKsiSB3UFQFXJ529iUy"], "asm": "OP_DUP OP_HASH160 2ac1f440bcdb96e3d72b3cbabe9b3a3dab5dba7f OP_EQUALVERIFY OP_CHECKSIG", "type": "pubkeyhash"}, "value": 0.01948546, "n": 1}], "hex": "01000000017c005453de3dea1569057fb1f486644f9547015a27380bd60a18100641d9adab010000006b4830450221009a028bd2e12676a37cc3762d21534179da70019f2c6645d927e1a5bea0ee5273022079a06447cc120a35747bcba2ee4fdece3530214cd6f0f632f2dedfa9a34d123b012103b111865a492a7efcebe8999110e6d6d46c96296f694db06bdbc1751a4e1e8c92ffffffff02e4de06000000000017a91463e2e998f1a6ac447090cc071c016e12a25957268782bb1d00000000001976a9142ac1f440bcdb96e3d72b3cbabe9b3a3dab5dba7f88ac00000000", "vin": [{"sequence": 4294967295, "scriptSig": {"hex": "4830450221009a028bd2e12676a37cc3762d21534179da70019f2c6645d927e1a5bea0ee5273022079a06447cc120a35747bcba2ee4fdece3530214cd6f0f632f2dedfa9a34d123b012103b111865a492a7efcebe8999110e6d6d46c96296f694db06bdbc1751a4e1e8c92", "asm": "30450221009a028bd2e12676a37cc3762d21534179da70019f2c6645d927e1a5bea0ee5273022079a06447cc120a35747bcba2ee4fdece3530214cd6f0f632f2dedfa9a34d123b[ALL] 03b111865a492a7efcebe8999110e6d6d46c96296f694db06bdbc1751a4e1e8c92"}, "vout": 1, "txid": "abadd9410610180ad60b38275a0147954f6486f4b17f056915ea3dde5354007c"}], "txid": "4a5e355f50a47bb588aac297817a880b2416e4ca091831437a564a21d8f7389d", "blocktime": 1537870268, "version": 1, "confirmations": 11516, "time": 1537870268, "locktime": 0, "vsize": 224, "size": 224}