{"hash": "4a6580d4ab1f8d0ca164170c3121bd017e262fd31ba734d29e6073dd3981c4c4", "blockhash": "0000000000000000000dcc0f55137456b1a82d3642486a52398922ac4d620174", "vout": [{"scriptPubKey": {"reqSigs": 1, "hex": "76a914b9dfd62b1444c369e9fac039a339ca1590b9517a88ac", "addresses": ["1Hwp9vpRMrrKmudV1jihpJCAGytE93wRSh"], "asm": "OP_DUP OP_HASH160 b9dfd62b1444c369e9fac039a339ca1590b9517a OP_EQUALVERIFY OP_CHECKSIG", "type": "pubkeyhash"}, "value": 0.0050075, "n": 0}, {"scriptPubKey": {"reqSigs": 1, "hex": "76a91433038f945089b9739dfe21aa7d9248fbca9f8bb188ac", "addresses": ["15ejjCNRQubuR558FN5Y7TmMLzuBJkaQ55"], "asm": "OP_DUP OP_HASH160 33038f945089b9739dfe21aa7d9248fbca9f8bb1 OP_EQUALVERIFY OP_CHECKSIG", "type": "pubkeyhash"}, "value": 0.02069808, "n": 1}], "hex": "01000000012138d35548cafe3029f4baa095e526503166640b11c3c1a1586476472f47507a010000006a47304402202028eb1d600fe2db019874fe9976014b3f032e483544030dac55e721638c8cf502206cc8524fcfbb379ce08655647593b7476589a08cef19f8c71f73e4ad9192ab8a0121023154b927672431631f057569577a36fd3ee0581faf5aa8fdade20a40477b9bc6ffffffff020ea40700000000001976a914b9dfd62b1444c369e9fac039a339ca1590b9517a88ac30951f00000000001976a91433038f945089b9739dfe21aa7d9248fbca9f8bb188ac00000000", "vin": [{"sequence": 4294967295, "scriptSig": {"hex": "47304402202028eb1d600fe2db019874fe9976014b3f032e483544030dac55e721638c8cf502206cc8524fcfbb379ce08655647593b7476589a08cef19f8c71f73e4ad9192ab8a0121023154b927672431631f057569577a36fd3ee0581faf5aa8fdade20a40477b9bc6", "asm": "304402202028eb1d600fe2db019874fe9976014b3f032e483544030dac55e721638c8cf502206cc8524fcfbb379ce08655647593b7476589a08cef19f8c71f73e4ad9192ab8a[ALL] 023154b927672431631f057569577a36fd3ee0581faf5aa8fdade20a40477b9bc6"}, "vout": 1, "txid": "7a50472f47766458a1c1c3110b6466315026e595a0baf42930feca4855d33821"}], "txid": "4a6580d4ab1f8d0ca164170c3121bd017e262fd31ba734d29e6073dd3981c4c4", "blocktime": 1537870268, "version": 1, "confirmations": 11518, "time": 1537870268, "locktime": 0, "vsize": 225, "size": 225}