{"hash": "6ea0e38d7bee9eabcc35704a63391eca54a4839537bf56284123cf1262ecfbfd", "blockhash": "00000000000000000018f53835495a110e01622372bf6ae95dc86f2b0ab887b0", "vout": [{"scriptPubKey": {"reqSigs": 1, "hex": "a914422fcc7cfbec301c80b002f410a232b06a157bf587", "addresses": ["37iynKe1yUsvFmC4vTUtwJrSYvWZ1RaAgv"], "asm": "OP_HASH160 422fcc7cfbec301c80b002f410a232b06a157bf5 OP_EQUAL", "type": "scripthash"}, "value": 0.00010931, "n": 0}, {"scriptPubKey": {"reqSigs": 1, "hex": "a9145716614213b876f693704430f9eaa70206292c7e87", "addresses": ["39dVXDXJVoV1XhqL8SBg4PvTGtBy6omfst"], "asm": "OP_HASH160 5716614213b876f693704430f9eaa70206292c7e OP_EQUAL", "type": "scripthash"}, "value": 0.00818529, "n": 1}], "hex": "010000000001010261c785c3082dcf114d7bab9ffd7c3cfd4f66593d5054302d4b41a89f3882b901000000232200203eeefd38a5fa49102c135c4876d8255975a66b5ffd9128399f80a8f996c2083fffffffff02b32a00000000000017a914422fcc7cfbec301c80b002f410a232b06a157bf587617d0c000000000017a9145716614213b876f693704430f9eaa70206292c7e870400483045022100ddfd2c9cbdd1500f6034c84524a796b6cd1f071c4ba6c18b5e3b9fe0d353201902207250c3027a16bcf6530da7fc96f7367f7289c8f330d702ff9e00cf946accef76014830450221008b24942b284d3f4ce6dfc9213d184af5fa28599d95f5e71bb6d0c10781f697070220723a4ef1ffb326c638bca28ab16c83062dbc51feb57b69962bc213ff2d35a0690147522102b3ff5ee21e442db3e9b7723a139841bb347c5cd2ef80d094d699b6927af8863a21030580d373ab00643a581abb399b43fa66d7b6fc29624eb75b2d5ec8d99faa163f52ae00000000", "vin": [{"txinwitness": ["", "3045022100ddfd2c9cbdd1500f6034c84524a796b6cd1f071c4ba6c18b5e3b9fe0d353201902207250c3027a16bcf6530da7fc96f7367f7289c8f330d702ff9e00cf946accef7601", "30450221008b24942b284d3f4ce6dfc9213d184af5fa28599d95f5e71bb6d0c10781f697070220723a4ef1ffb326c638bca28ab16c83062dbc51feb57b69962bc213ff2d35a06901", "522102b3ff5ee21e442db3e9b7723a139841bb347c5cd2ef80d094d699b6927af8863a21030580d373ab00643a581abb399b43fa66d7b6fc29624eb75b2d5ec8d99faa163f52ae"], "sequence": 4294967295, "scriptSig": {"hex": "2200203eeefd38a5fa49102c135c4876d8255975a66b5ffd9128399f80a8f996c2083f", "asm": "00203eeefd38a5fa49102c135c4876d8255975a66b5ffd9128399f80a8f996c2083f"}, "vout": 1, "txid": "b982389fa8414b2d3054503d59664ffd3c7cfd9fab7b4d11cf2d08c385c76102"}], "txid": "4a6707c00875f08d202c7625a554bdd113a5f5ff85aab05c986cae59ee127bc4", "blocktime": 1537870928, "version": 1, "confirmations": 11514, "time": 1537870928, "locktime": 0, "vsize": 206, "size": 372}