{"hash": "4a682e6911123f23455327f65551b507b939d3e5481425e5d752b0e37c57313f", "blockhash": "00000000000000000024a2167bbff67b0be802c0b01cdd79e6331c2be6459f87", "vout": [{"scriptPubKey": {"reqSigs": 1, "hex": "a914f0870cfb1cf4f519611fcd6d01fd2683c4d9c42487", "addresses": ["3Pcot53wxL7hwgR4cHcJ1hpBvDhLJRcE1o"], "asm": "OP_HASH160 f0870cfb1cf4f519611fcd6d01fd2683c4d9c424 OP_EQUAL", "type": "scripthash"}, "value": 0.00205125, "n": 0}, {"scriptPubKey": {"reqSigs": 1, "hex": "76a91428881500d4bef1a06613e662fdbbff113d17934088ac", "addresses": ["14hK3pXRcbBLfewmmNC7YuztrY2PkUbqo1"], "asm": "OP_DUP OP_HASH160 28881500d4bef1a06613e662fdbbff113d179340 OP_EQUALVERIFY OP_CHECKSIG", "type": "pubkeyhash"}, "value": 0.00463717, "n": 1}], "hex": "0100000001516208aa1d7928f6c0ebfb705a59a5fc92cb0359bc087de9f7a5ee488679878e010000006a47304402201fe63768695bcfea1eaaa42b621bca93f0b35f9a52c9b2565a22b2701f275057022070ddb5ee6c296b8bd9ef49d03b1e25a9fa7745491bec4ea670481dda3c19fb5c012102d59c9d7184ac5daf94cbdd98ef748a20f6399bac98014b4fb8cb704332a328d0ffffffff02452103000000000017a914f0870cfb1cf4f519611fcd6d01fd2683c4d9c4248765130700000000001976a91428881500d4bef1a06613e662fdbbff113d17934088ac00000000", "vin": [{"sequence": 4294967295, "scriptSig": {"hex": "47304402201fe63768695bcfea1eaaa42b621bca93f0b35f9a52c9b2565a22b2701f275057022070ddb5ee6c296b8bd9ef49d03b1e25a9fa7745491bec4ea670481dda3c19fb5c012102d59c9d7184ac5daf94cbdd98ef748a20f6399bac98014b4fb8cb704332a328d0", "asm": "304402201fe63768695bcfea1eaaa42b621bca93f0b35f9a52c9b2565a22b2701f275057022070ddb5ee6c296b8bd9ef49d03b1e25a9fa7745491bec4ea670481dda3c19fb5c[ALL] 02d59c9d7184ac5daf94cbdd98ef748a20f6399bac98014b4fb8cb704332a328d0"}, "vout": 1, "txid": "8e87798648eea5f7e97d08bc5903cb92fca5595a70fbebc0f628791daa086251"}], "txid": "4a682e6911123f23455327f65551b507b939d3e5481425e5d752b0e37c57313f", "blocktime": 1537870564, "version": 1, "confirmations": 11515, "time": 1537870564, "locktime": 0, "vsize": 223, "size": 223}