{"hash": "da3f76a8fbceab57cfc50140d2b36a3be0203e409d33594699b12a9c1afe22f5", "blockhash": "0000000000000000000e13cef7c366c0283d82e591d1acd082e914b08063cdf1", "vout": [{"scriptPubKey": {"reqSigs": 1, "hex": "a914c1a61266854e4c1c3612fac3d249546a55958e1587", "addresses": ["3KLwHSfaJ7c3tLw1hoYFacEVhVfMMZv8Eu"], "asm": "OP_HASH160 c1a61266854e4c1c3612fac3d249546a55958e15 OP_EQUAL", "type": "scripthash"}, "value": 0.01036516, "n": 0}, {"scriptPubKey": {"reqSigs": 1, "hex": "76a9147b9881a739baf1953c69cfbebb2f7a280bdc06a688ac", "addresses": ["1CGWovvBmTP1w8tz6FQVMfYQ8MZpWcuATc"], "asm": "OP_DUP OP_HASH160 7b9881a739baf1953c69cfbebb2f7a280bdc06a6 OP_EQUALVERIFY OP_CHECKSIG", "type": "pubkeyhash"}, "value": 0.0024626, "n": 1}], "hex": "020000000001021011036e664ee8dc40c93b2d8295a95a58952c865b8d3511cc4c249b60d6ce2b00000000171600146f59cefe2f253c28d9c6f269fa665a82b4cf7295feffffffc201288ff1e03f3d623af7d6a36b0e389ab6dcdf065ab263dcdf3d9ccc1073270000000017160014e7258cfef5472b3727de8a973ae8daa4aa39d19ffeffffff02e4d00f000000000017a914c1a61266854e4c1c3612fac3d249546a55958e1587f4c10300000000001976a9147b9881a739baf1953c69cfbebb2f7a280bdc06a688ac024730440220125b83a7745ceb23081a38486f1499b22212457fee4f0ba089f7250ac177497502204e7a2b230144cc9ca9fa2785284addc28e5c34a4da26820158226d003cf0af030121023483c350c57c8c73d44ade42f8bf8517ab446ea183b4bf40695072d347cb7c41024730440220394f8778f1299240ae381ab8357f53cf7aaafb895c2f3d319c05ad2b5f872e7202200e1aa6ff49d03f5162bd470399b60ebeff78e71c426442a5cd2a8c13b4fe88820121022443380d4ed0c97ae297aca8a95f8a6707559dcb87ba9b7c58c98186bbbc30ab10490800", "vin": [{"txinwitness": ["30440220125b83a7745ceb23081a38486f1499b22212457fee4f0ba089f7250ac177497502204e7a2b230144cc9ca9fa2785284addc28e5c34a4da26820158226d003cf0af0301", "023483c350c57c8c73d44ade42f8bf8517ab446ea183b4bf40695072d347cb7c41"], "sequence": 4294967294, "scriptSig": {"hex": "1600146f59cefe2f253c28d9c6f269fa665a82b4cf7295", "asm": "00146f59cefe2f253c28d9c6f269fa665a82b4cf7295"}, "vout": 0, "txid": "2bced6609b244ccc11358d5b862c95585aa995822d3bc940dce84e666e031110"}, {"txinwitness": ["30440220394f8778f1299240ae381ab8357f53cf7aaafb895c2f3d319c05ad2b5f872e7202200e1aa6ff49d03f5162bd470399b60ebeff78e71c426442a5cd2a8c13b4fe888201", "022443380d4ed0c97ae297aca8a95f8a6707559dcb87ba9b7c58c98186bbbc30ab"], "sequence": 4294967294, "scriptSig": {"hex": "160014e7258cfef5472b3727de8a973ae8daa4aa39d19f", "asm": "0014e7258cfef5472b3727de8a973ae8daa4aa39d19f"}, "vout": 0, "txid": "277310cc9c3ddfdc63b25a06dfdcb69a380e6ba3d6f73a623d3fe0f18f2801c2"}], "txid": "4a6bc55a52390db544e4d8d2b19496ba0a2a144dfa835143188a06969e86f74d", "blocktime": 1537871767, "version": 2, "confirmations": 11495, "time": 1537871767, "locktime": 542992, "vsize": 258, "size": 420}