{"hash": "c04a104eb875a6b96d4ee36d7530d3ea10c28cda091008f683db368342165121", "blockhash": "0000000000000000000e13cef7c366c0283d82e591d1acd082e914b08063cdf1", "vout": [{"scriptPubKey": {"reqSigs": 1, "hex": "a914a06ab6af4161527245fce1aa220ea6059ae013f687", "addresses": ["3GKDspzpAbheqZ3RzUaGqvjXqvuWmTyGAF"], "asm": "OP_HASH160 a06ab6af4161527245fce1aa220ea6059ae013f6 OP_EQUAL", "type": "scripthash"}, "value": 0.48, "n": 0}, {"scriptPubKey": {"reqSigs": 1, "hex": "a91405bfeb941d76ed1cfbde2bf758e228fdb10e9ef987", "addresses": ["32DRDMViF4dScr2tVwVsNCAbMKDq2T6pnX"], "asm": "OP_HASH160 05bfeb941d76ed1cfbde2bf758e228fdb10e9ef9 OP_EQUAL", "type": "scripthash"}, "value": 0.51999588, "n": 1}], "hex": "010000000001012f43703bd267798d726f118b4d4e826bde80c0245760fe26601f6c67e91a6dad0100000023220020651c3903097a0916994b4b7ac6319339ba15627fef8ca74334481d968c17a3e7ffffffff02006cdc020000000017a914a06ab6af4161527245fce1aa220ea6059ae013f687647319030000000017a91405bfeb941d76ed1cfbde2bf758e228fdb10e9ef987040047304402203d4bc67b1efe0ba652cb39ca0ad4cefa5a9d32844811c67155de0a13e7caec5702204cc3b1fa500b800c713659e1ff09a345f6dc2bfa36e13ca4c862f3b93573dd9f014730440220790ef6ac79dd4c73b0a78d3e9c8d43d49d6acb976ebb8a3e38ac18e809024c9e02201ce001c99ad0067728949bf0a889372f8715022bb52753b753ac010048720f1b0147522103694af1d54b4f3ad6c2d3cf1a0b93e27e4ba09fbafae20f8b5546ab7ab82eafc8210390304e500c10bec2e53a45195fe9746581d06ace05f3df5b7cf28a7e2c89e8ba52ae00000000", "vin": [{"txinwitness": ["", "304402203d4bc67b1efe0ba652cb39ca0ad4cefa5a9d32844811c67155de0a13e7caec5702204cc3b1fa500b800c713659e1ff09a345f6dc2bfa36e13ca4c862f3b93573dd9f01", "30440220790ef6ac79dd4c73b0a78d3e9c8d43d49d6acb976ebb8a3e38ac18e809024c9e02201ce001c99ad0067728949bf0a889372f8715022bb52753b753ac010048720f1b01", "522103694af1d54b4f3ad6c2d3cf1a0b93e27e4ba09fbafae20f8b5546ab7ab82eafc8210390304e500c10bec2e53a45195fe9746581d06ace05f3df5b7cf28a7e2c89e8ba52ae"], "sequence": 4294967295, "scriptSig": {"hex": "220020651c3903097a0916994b4b7ac6319339ba15627fef8ca74334481d968c17a3e7", "asm": "0020651c3903097a0916994b4b7ac6319339ba15627fef8ca74334481d968c17a3e7"}, "vout": 1, "txid": "ad6d1ae9676c1f6026fe605724c080de6b824e4d8b116f728d7967d23b70432f"}], "txid": "4a726c8e6e1d97f29a0a9ca31f5dfa152435e07d12ee7e75a17c8d5a0e475588", "blocktime": 1537871767, "version": 1, "confirmations": 11495, "time": 1537871767, "locktime": 0, "vsize": 205, "size": 370}