{"hash": "4a772f581cdf2b15977a7a4c3bf7ac61122eda97f7f1da80cc1ddd00142697a3", "blockhash": "0000000000000000001cda96e906b7601b7a6fb1a3b62bca570a9e5d8f4b3de1", "vout": [{"scriptPubKey": {"reqSigs": 1, "hex": "a91469488bbefcfc4dd395df14e2c8469dea449ee65d87", "addresses": ["3BHhnGAWsujQVjaVQNymsMp69nMwLY4JBw"], "asm": "OP_HASH160 69488bbefcfc4dd395df14e2c8469dea449ee65d OP_EQUAL", "type": "scripthash"}, "value": 0.05726, "n": 0}, {"scriptPubKey": {"reqSigs": 1, "hex": "76a9142262c52bf59160497ea14b39bc4865ebf268658588ac", "addresses": ["148pJCNxGjDX4MRX2G5jm9C8hBubgf7Bae"], "asm": "OP_DUP OP_HASH160 2262c52bf59160497ea14b39bc4865ebf2686585 OP_EQUALVERIFY OP_CHECKSIG", "type": "pubkeyhash"}, "value": 0.1827288, "n": 1}], "hex": "01000000019899e126ae862c47e78dfec5c972b629813d19a0751ea489ee8f7493c6339354010000006b483045022100a062dde66495c4c21342c8cffb3be871c1fd679ac2ad7b6480f756b91ccfec1302202ed915d9f67cb67e7d48c99b49faa62a7c6b0bca2882e9b7011412cdd5cf6ef8012102e23a445006953bca7f311ff0e96ed47c40e66fc7e14ea61c634ad20061e8cbf9fdffffff02305f57000000000017a91469488bbefcfc4dd395df14e2c8469dea449ee65d8770d21601000000001976a9142262c52bf59160497ea14b39bc4865ebf268658588ac12490800", "vin": [{"sequence": 4294967293, "scriptSig": {"hex": "483045022100a062dde66495c4c21342c8cffb3be871c1fd679ac2ad7b6480f756b91ccfec1302202ed915d9f67cb67e7d48c99b49faa62a7c6b0bca2882e9b7011412cdd5cf6ef8012102e23a445006953bca7f311ff0e96ed47c40e66fc7e14ea61c634ad20061e8cbf9", "asm": "3045022100a062dde66495c4c21342c8cffb3be871c1fd679ac2ad7b6480f756b91ccfec1302202ed915d9f67cb67e7d48c99b49faa62a7c6b0bca2882e9b7011412cdd5cf6ef8[ALL] 02e23a445006953bca7f311ff0e96ed47c40e66fc7e14ea61c634ad20061e8cbf9"}, "vout": 1, "txid": "549333c693748fee89a41e75a0193d8129b672c9c5fe8de7472c86ae26e19998"}], "txid": "4a772f581cdf2b15977a7a4c3bf7ac61122eda97f7f1da80cc1ddd00142697a3", "blocktime": 1537873282, "version": 1, "confirmations": 11484, "time": 1537873282, "locktime": 542994, "vsize": 224, "size": 224}