{"hash": "4a7c02de87bb8c16eb8163fe6bcb55197266c061cb3aa481f0eddc277f36d136", "blockhash": "0000000000000000001cda96e906b7601b7a6fb1a3b62bca570a9e5d8f4b3de1", "vout": [{"scriptPubKey": {"reqSigs": 1, "hex": "76a9145f538d98c523c7bcad1f6f581a65c67c1ea463dd88ac", "addresses": ["19h3HbZeCCBkBMyziCguxGebx6T75KriYP"], "asm": "OP_DUP OP_HASH160 5f538d98c523c7bcad1f6f581a65c67c1ea463dd OP_EQUALVERIFY OP_CHECKSIG", "type": "pubkeyhash"}, "value": 0.05812116, "n": 0}], "hex": "01000000035a4aa77e041e8d84f84ae496ef2410a283b03c65d63bc3d472760978a891ed57000000006b483045022100992489535f31ed334943dfb91cb8a6f2bb5e694bfd1aecaeab6ce2d4df14d7c202204c07140c94d398ddf2011a028064e5f183e4d2f643a739fb8bb33ca4130d9bc901210282da93db9e44fe612d98df537eb8eb0e667efe14bd8e3894dce14c9dd6abe0c0fdffffff906e0b6dd6adbdb573ddcd6852066a29e73150744542e2670cc732e18d7641da000000006a4730440220272af7590cb2f03e199abf190db99ade067244be9d00c442e5372266cb95d7ec0220311d203a5451cb4c3323c7d8413c4f2b5964365d55b4962487b33f31990271e30121028314a4897690c8a7b9e23743e255b922035afd3df9c9ff00fe18edb0a100e1e0fdffffff98b47c828fc552ff81e81416acc086e8117686e535cf32ac9ffd5f9549a318ea000000006a47304402206ae704b2148d6639f2f983fcb40df943d175cd8f822933733353c2a505201ac4022007dcd98614c74b1867056c87e00c61460f1496c4bdd70276f85b359be4554dda012103bf6cab7ed6f63d388fce2ae79dae2116d48490750fd773664ca41ce49c087831fdffffff0194af5800000000001976a9145f538d98c523c7bcad1f6f581a65c67c1ea463dd88ac13490800", "vin": [{"sequence": 4294967293, "scriptSig": {"hex": "483045022100992489535f31ed334943dfb91cb8a6f2bb5e694bfd1aecaeab6ce2d4df14d7c202204c07140c94d398ddf2011a028064e5f183e4d2f643a739fb8bb33ca4130d9bc901210282da93db9e44fe612d98df537eb8eb0e667efe14bd8e3894dce14c9dd6abe0c0", "asm": "3045022100992489535f31ed334943dfb91cb8a6f2bb5e694bfd1aecaeab6ce2d4df14d7c202204c07140c94d398ddf2011a028064e5f183e4d2f643a739fb8bb33ca4130d9bc9[ALL] 0282da93db9e44fe612d98df537eb8eb0e667efe14bd8e3894dce14c9dd6abe0c0"}, "vout": 0, "txid": "57ed91a878097672d4c33bd6653cb083a21024ef96e44af8848d1e047ea74a5a"}, {"sequence": 4294967293, "scriptSig": {"hex": "4730440220272af7590cb2f03e199abf190db99ade067244be9d00c442e5372266cb95d7ec0220311d203a5451cb4c3323c7d8413c4f2b5964365d55b4962487b33f31990271e30121028314a4897690c8a7b9e23743e255b922035afd3df9c9ff00fe18edb0a100e1e0", "asm": "30440220272af7590cb2f03e199abf190db99ade067244be9d00c442e5372266cb95d7ec0220311d203a5451cb4c3323c7d8413c4f2b5964365d55b4962487b33f31990271e3[ALL] 028314a4897690c8a7b9e23743e255b922035afd3df9c9ff00fe18edb0a100e1e0"}, "vout": 0, "txid": "da41768de132c70c67e24245745031e7296a065268cddd73b5bdadd66d0b6e90"}, {"sequence": 4294967293, "scriptSig": {"hex": "47304402206ae704b2148d6639f2f983fcb40df943d175cd8f822933733353c2a505201ac4022007dcd98614c74b1867056c87e00c61460f1496c4bdd70276f85b359be4554dda012103bf6cab7ed6f63d388fce2ae79dae2116d48490750fd773664ca41ce49c087831", "asm": "304402206ae704b2148d6639f2f983fcb40df943d175cd8f822933733353c2a505201ac4022007dcd98614c74b1867056c87e00c61460f1496c4bdd70276f85b359be4554dda[ALL] 03bf6cab7ed6f63d388fce2ae79dae2116d48490750fd773664ca41ce49c087831"}, "vout": 0, "txid": "ea18a349955ffd9fac32cf35e5867611e886c0ac1614e881ff52c58f827cb498"}], "txid": "4a7c02de87bb8c16eb8163fe6bcb55197266c061cb3aa481f0eddc277f36d136", "blocktime": 1537873282, "version": 1, "confirmations": 11485, "time": 1537873282, "locktime": 542995, "vsize": 486, "size": 486}