{"hash": "4a7fc18cef4b9f316fff7030e043dfa0cf4fcf67c00cdd8d27ddc9b900c15538", "blockhash": "0000000000000000001f76057863aec43deb6fa401d9628bb513d65a8098bfab", "vout": [{"scriptPubKey": {"reqSigs": 1, "hex": "76a9148f7c481b9899a4ed5ac271a9f39b9acb09acbf9788ac", "addresses": ["1E5gWg58oCePixpSeNe3L2wNPq1Y9GcFLi"], "asm": "OP_DUP OP_HASH160 8f7c481b9899a4ed5ac271a9f39b9acb09acbf97 OP_EQUALVERIFY OP_CHECKSIG", "type": "pubkeyhash"}, "value": 56.57325805, "n": 0}, {"scriptPubKey": {"reqSigs": 1, "hex": "76a914260e6dd613d4d0fbba219e5bdd73744455d6cc3488ac", "addresses": ["14UDxqZvgbnXobksqw5NARhqY9fcmbF6JF"], "asm": "OP_DUP OP_HASH160 260e6dd613d4d0fbba219e5bdd73744455d6cc34 OP_EQUALVERIFY OP_CHECKSIG", "type": "pubkeyhash"}, "value": 1.0, "n": 1}], "hex": "020000000168b5c61a76065a15589ca5bf1f2670f826323464102f64de1b0f115f2ceaf119010000006a473044022031123cd01e17e6cfef28e43027ef4e7eb621c918f24566d44a62170102942d420220485b8fe9d768d6937b2e2788c0ddd7efaeb3855401db37de39b923ed2660aa15012103961654f93707d7e6fdeea433f93b76df58601cfddef96415b1061738d4b3cf19feffffff02edf03351010000001976a9148f7c481b9899a4ed5ac271a9f39b9acb09acbf9788ac00e1f505000000001976a914260e6dd613d4d0fbba219e5bdd73744455d6cc3488ac14490800", "vin": [{"sequence": 4294967294, "scriptSig": {"hex": "473044022031123cd01e17e6cfef28e43027ef4e7eb621c918f24566d44a62170102942d420220485b8fe9d768d6937b2e2788c0ddd7efaeb3855401db37de39b923ed2660aa15012103961654f93707d7e6fdeea433f93b76df58601cfddef96415b1061738d4b3cf19", "asm": "3044022031123cd01e17e6cfef28e43027ef4e7eb621c918f24566d44a62170102942d420220485b8fe9d768d6937b2e2788c0ddd7efaeb3855401db37de39b923ed2660aa15[ALL] 03961654f93707d7e6fdeea433f93b76df58601cfddef96415b1061738d4b3cf19"}, "vout": 1, "txid": "19f1ea2c5f110f1bde642f1064343226f870261fbfa59c58155a06761ac6b568"}], "txid": "4a7fc18cef4b9f316fff7030e043dfa0cf4fcf67c00cdd8d27ddc9b900c15538", "blocktime": 1537873891, "version": 2, "confirmations": 11474, "time": 1537873891, "locktime": 542996, "vsize": 225, "size": 225}