{"hash": "393c22dbd2971c6bb3a5b4cfa9b5cd28919b3663c29ede29c3935f837ab5c18f", "blockhash": "0000000000000000001cda96e906b7601b7a6fb1a3b62bca570a9e5d8f4b3de1", "vout": [{"scriptPubKey": {"reqSigs": 1, "hex": "76a9141095407dd26471aa83df7a5ca358cc331c4d199a88ac", "addresses": ["12WgcGvMqEkXq44n3Sq7mBUNeMCob2CpZe"], "asm": "OP_DUP OP_HASH160 1095407dd26471aa83df7a5ca358cc331c4d199a OP_EQUALVERIFY OP_CHECKSIG", "type": "pubkeyhash"}, "value": 0.03875063, "n": 0}, {"scriptPubKey": {"reqSigs": 1, "hex": "a9146152dbe06c999bfa9938c05ef208985ccea0a88487", "addresses": ["3AZcjHfXqZdepPbKzqxHbFxjiYYUhMZp2C"], "asm": "OP_HASH160 6152dbe06c999bfa9938c05ef208985ccea0a884 OP_EQUAL", "type": "scripthash"}, "value": 2.60055129, "n": 1}], "hex": "02000000000101a09fb7e8be01c14a6c10776ab3355bb612670e44d697a4ba54376198ce829dec00000000171600140ce2601b5c8c9d26313dbc6dd0b7e81e9971ea8cfeffffff02f7203b00000000001976a9141095407dd26471aa83df7a5ca358cc331c4d199a88ac5920800f0000000017a9146152dbe06c999bfa9938c05ef208985ccea0a884870247304402205d25a6c1d97d4056cd67bdd8c141ade2de2f5b998e478d4f145ba29036b6bdef02206ae75ca7356a2a016e0f2e29bff0ff29377bc587a60a8baa109cdf9c850beaec01210270a52ab33f589ad323593fc57058751b82dcaade3be8af6b54806f25669a47cf13490800", "vin": [{"txinwitness": ["304402205d25a6c1d97d4056cd67bdd8c141ade2de2f5b998e478d4f145ba29036b6bdef02206ae75ca7356a2a016e0f2e29bff0ff29377bc587a60a8baa109cdf9c850beaec01", "0270a52ab33f589ad323593fc57058751b82dcaade3be8af6b54806f25669a47cf"], "sequence": 4294967294, "scriptSig": {"hex": "1600140ce2601b5c8c9d26313dbc6dd0b7e81e9971ea8c", "asm": "00140ce2601b5c8c9d26313dbc6dd0b7e81e9971ea8c"}, "vout": 0, "txid": "ec9d82ce98613754baa497d6440e6712b65b35b36a77106c4ac101bee8b79fa0"}], "txid": "4a84abee0688dfc236e392e53ebf986e72e277a3afa84f1a98ff6151ac863dce", "blocktime": 1537873282, "version": 2, "confirmations": 11484, "time": 1537873282, "locktime": 542995, "vsize": 168, "size": 249}