{"hash": "de15adcead6863e707b65034b6d0f842d793c060d9de5135560fc3a6f142e5aa", "blockhash": "00000000000000000004ffacab907a6b429b9a5745fa0b75af4234bf69dd7176", "vout": [{"scriptPubKey": {"reqSigs": 1, "hex": "76a914f4c8010186998d878d51be688a11931ec5af7adb88ac", "addresses": ["1PKHUKkUaD3HEPVUpVyP1R6zYq11y59fBH"], "asm": "OP_DUP OP_HASH160 f4c8010186998d878d51be688a11931ec5af7adb OP_EQUALVERIFY OP_CHECKSIG", "type": "pubkeyhash"}, "value": 0.00222, "n": 0}, {"scriptPubKey": {"reqSigs": 1, "hex": "a914733cd3d9ef05e48c9b795bb739b8c19b27e43ed687", "addresses": ["3CCLVyZu3tQMCBnUFNRY5VLNfocWRej1ck"], "asm": "OP_HASH160 733cd3d9ef05e48c9b795bb739b8c19b27e43ed6 OP_EQUAL", "type": "scripthash"}, "value": 0.01409416, "n": 1}], "hex": "01000000000101ff2163da17802f229b2034e97eeba69a4ba5fa3f9bda3851c8749c27715b65da000000002322002002005ceffd173fe4f556c29bb155b0b0f5e824bd6cc9737a24047076c323e17affffffff0230630300000000001976a914f4c8010186998d878d51be688a11931ec5af7adb88ac888115000000000017a914733cd3d9ef05e48c9b795bb739b8c19b27e43ed6870400483045022100c0522577b0c58e0773fa16b38ec0c022b0983ded267f8b44a16cc83b0c925f7702200ddd5e6c24b073bbc73dc36c648ba71b6843b70c9baa626c4b8062824214abf801483045022100dc04e6c848dd725e22c17fcee66862f5904032bf9fbbaac08f19cebd869c0867022045c546f3d3a406b3bb827965eed831670bc312671820caa23b5d917c6097c5c30147522103f56f152f57c1480af90fb18d638ffd5378fc4a2c7343a15aa234594ca00d3dbb2102cef2f65e67dd388952b1159edda4643422fd1dedc86f72b80e60633b6aa83ecc52ae00000000", "vin": [{"txinwitness": ["", "3045022100c0522577b0c58e0773fa16b38ec0c022b0983ded267f8b44a16cc83b0c925f7702200ddd5e6c24b073bbc73dc36c648ba71b6843b70c9baa626c4b8062824214abf801", "3045022100dc04e6c848dd725e22c17fcee66862f5904032bf9fbbaac08f19cebd869c0867022045c546f3d3a406b3bb827965eed831670bc312671820caa23b5d917c6097c5c301", "522103f56f152f57c1480af90fb18d638ffd5378fc4a2c7343a15aa234594ca00d3dbb2102cef2f65e67dd388952b1159edda4643422fd1dedc86f72b80e60633b6aa83ecc52ae"], "sequence": 4294967295, "scriptSig": {"hex": "22002002005ceffd173fe4f556c29bb155b0b0f5e824bd6cc9737a24047076c323e17a", "asm": "002002005ceffd173fe4f556c29bb155b0b0f5e824bd6cc9737a24047076c323e17a"}, "vout": 0, "txid": "da655b71279c74c85138da9b3ffaa54b9aa6eb7ee934209b222f8017da6321ff"}], "txid": "4a86403a8597d8b73df088132b8604538266b77d22d82f650513a62f2753903d", "blocktime": 1537875543, "version": 1, "confirmations": 11464, "time": 1537875543, "locktime": 0, "vsize": 208, "size": 374}