{"hash": "4a8a0bc189d769024fb47f140c3c297ee5af935632d4bf24e8f971ff982328ac", "blockhash": "0000000000000000001f76057863aec43deb6fa401d9628bb513d65a8098bfab", "vout": [{"scriptPubKey": {"reqSigs": 1, "hex": "76a9140b88f7485491390ca5e6a3bd58b4725e34ca66d688ac", "addresses": ["123zWfvEnULvEFWMD5GtUqNtQmceo7y7Zo"], "asm": "OP_DUP OP_HASH160 0b88f7485491390ca5e6a3bd58b4725e34ca66d6 OP_EQUALVERIFY OP_CHECKSIG", "type": "pubkeyhash"}, "value": 0.00116136, "n": 0}, {"scriptPubKey": {"reqSigs": 1, "hex": "76a914648db1d7266e8ccb94b82b82c81ca7d707c13fed88ac", "addresses": ["1AAgKJZ6EY6dCR2iwKaFEYoN8a11uNn6Pv"], "asm": "OP_DUP OP_HASH160 648db1d7266e8ccb94b82b82c81ca7d707c13fed OP_EQUALVERIFY OP_CHECKSIG", "type": "pubkeyhash"}, "value": 5.46e-06, "n": 1}, {"scriptPubKey": {"type": "nulldata", "hex": "6a146f6d6e69000000000000001f0000012f312b1e00", "asm": "OP_RETURN 6f6d6e69000000000000001f0000012f312b1e00"}, "value": 0.0, "n": 2}], "hex": "0100000002717cf48e25e2c383c4eb9f41963fb48aedd107c8d6879d4e80bb766235439674010000006a473044022029f5afa74aa273461cbb520f7ba0badf1fe1c4d9701437a805bfbfbfde4330ac02205ba869f69c358a1ecf232f25b387e7f1f4e78745484fa6121eefd51baf49eed9012102056f5d23dcf567ab580a343f289be9be74dcff52a11704631dd38456ff61f9c8ffffffffaa8638bdc8fb753ac44153da9242de71fc80b46b9262437309c5f55de21ad780000000006b48304502210092b6ce40d9dca6ce0fbe9e8c55c1c780d2888cab60398bffb2680435f21e03900220033a707e4afcac6f7c073fdd0e249d33ee33d2588b40b220a0d3b952bf7a2ac1012102056f5d23dcf567ab580a343f289be9be74dcff52a11704631dd38456ff61f9c8ffffffff03a8c50100000000001976a9140b88f7485491390ca5e6a3bd58b4725e34ca66d688ac22020000000000001976a914648db1d7266e8ccb94b82b82c81ca7d707c13fed88ac0000000000000000166a146f6d6e69000000000000001f0000012f312b1e0000000000", "vin": [{"sequence": 4294967295, "scriptSig": {"hex": "473044022029f5afa74aa273461cbb520f7ba0badf1fe1c4d9701437a805bfbfbfde4330ac02205ba869f69c358a1ecf232f25b387e7f1f4e78745484fa6121eefd51baf49eed9012102056f5d23dcf567ab580a343f289be9be74dcff52a11704631dd38456ff61f9c8", "asm": "3044022029f5afa74aa273461cbb520f7ba0badf1fe1c4d9701437a805bfbfbfde4330ac02205ba869f69c358a1ecf232f25b387e7f1f4e78745484fa6121eefd51baf49eed9[ALL] 02056f5d23dcf567ab580a343f289be9be74dcff52a11704631dd38456ff61f9c8"}, "vout": 1, "txid": "749643356276bb804e9d87d6c807d1ed8ab43f96419febc483c3e2258ef47c71"}, {"sequence": 4294967295, "scriptSig": {"hex": "48304502210092b6ce40d9dca6ce0fbe9e8c55c1c780d2888cab60398bffb2680435f21e03900220033a707e4afcac6f7c073fdd0e249d33ee33d2588b40b220a0d3b952bf7a2ac1012102056f5d23dcf567ab580a343f289be9be74dcff52a11704631dd38456ff61f9c8", "asm": "304502210092b6ce40d9dca6ce0fbe9e8c55c1c780d2888cab60398bffb2680435f21e03900220033a707e4afcac6f7c073fdd0e249d33ee33d2588b40b220a0d3b952bf7a2ac1[ALL] 02056f5d23dcf567ab580a343f289be9be74dcff52a11704631dd38456ff61f9c8"}, "vout": 0, "txid": "80d71ae25df5c509734362926bb480fc71de4292da5341c43a75fbc8bd3886aa"}], "txid": "4a8a0bc189d769024fb47f140c3c297ee5af935632d4bf24e8f971ff982328ac", "blocktime": 1537873891, "version": 1, "confirmations": 11475, "time": 1537873891, "locktime": 0, "vsize": 404, "size": 404}