{"hash": "70be0ed94a0ffa9b6e4e5ab7499e2dff5bfe2e79d8682daf1c8f0c600668660b", "blockhash": "0000000000000000001cda96e906b7601b7a6fb1a3b62bca570a9e5d8f4b3de1", "vout": [{"scriptPubKey": {"reqSigs": 1, "hex": "0014917e300c1020ffcb51676cfc5b050ac1555322c2", "addresses": ["bc1qj9lrqrqsyrluk5t8dn79kpg2c924xgkz6309uk"], "asm": "0 917e300c1020ffcb51676cfc5b050ac1555322c2", "type": "witness_v0_keyhash"}, "value": 0.01429063, "n": 0}, {"scriptPubKey": {"reqSigs": 1, "hex": "a9147b7b163262b0cb5558c8c4801e29d950e84455e487", "addresses": ["3CwvVMSMX6ro1HDNr9hAQabDWCDr84iaAp"], "asm": "OP_HASH160 7b7b163262b0cb5558c8c4801e29d950e84455e4 OP_EQUAL", "type": "scripthash"}, "value": 0.04504653, "n": 1}], "hex": "0100000000010197a191367e204e7ae1add2eaaa56091c4f703682b553eaa0512ee0fbf510d6b43a000000171600149948aa68b30b38f3340b33050827fb2b01a56be1ffffffff0247ce150000000000160014917e300c1020ffcb51676cfc5b050ac1555322c24dbc44000000000017a9147b7b163262b0cb5558c8c4801e29d950e84455e48702483045022100b137bdfc105ce22562e76ec09ba8cfdfd04a91f755923c02786ef3960ebed6d502201bdcc381eb51ad055acc30e3c3f0b0ab4e90293c704fbfcafe187a77ebed20df01210291a2a2d21afd1811b6fd32629c6e8f283155d32a788a99ef59da46c4df5245a500000000", "vin": [{"txinwitness": ["3045022100b137bdfc105ce22562e76ec09ba8cfdfd04a91f755923c02786ef3960ebed6d502201bdcc381eb51ad055acc30e3c3f0b0ab4e90293c704fbfcafe187a77ebed20df01", "0291a2a2d21afd1811b6fd32629c6e8f283155d32a788a99ef59da46c4df5245a5"], "sequence": 4294967295, "scriptSig": {"hex": "1600149948aa68b30b38f3340b33050827fb2b01a56be1", "asm": "00149948aa68b30b38f3340b33050827fb2b01a56be1"}, "vout": 58, "txid": "b4d610f5fbe02e51a0ea53b58236704f1c0956aaead2ade17a4e207e3691a197"}], "txid": "4a90b8d244748c0a25f8b1741054551353750ec990c1a5bea33ebaa6df4706a5", "blocktime": 1537873282, "version": 1, "confirmations": 11484, "time": 1537873282, "locktime": 0, "vsize": 165, "size": 247}