{"hash": "4a9fe964ea8f6cd96a5673c43380b1834ccdd7580cf249ce57ff12a2b9762d65", "blockhash": "0000000000000000001f0ddff1eddb255c1121bcd4da4f1bc9a0da00cae72433", "vout": [{"scriptPubKey": {"reqSigs": 1, "hex": "a9146b6d9596c51392ddcc1edb2160b52d252561838587", "addresses": ["3BV3W84EM7Xr9tGJyHRbqPF6MUUtKRqqrN"], "asm": "OP_HASH160 6b6d9596c51392ddcc1edb2160b52d2525618385 OP_EQUAL", "type": "scripthash"}, "value": 0.0033, "n": 0}, {"scriptPubKey": {"reqSigs": 1, "hex": "76a91414ef2db2007c672421b6de5b947b73a2f6787ad688ac", "addresses": ["12uh3FVp7CMT5aG31JDPh2aQw31qcCiF8P"], "asm": "OP_DUP OP_HASH160 14ef2db2007c672421b6de5b947b73a2f6787ad6 OP_EQUALVERIFY OP_CHECKSIG", "type": "pubkeyhash"}, "value": 0.0109431, "n": 1}], "hex": "01000000010da3e775ba87894a1ae35d8a653b1d695a6a90ba42d4068d61f2ff9646325478010000006b483045022100ede79cfcce7f727712ce60f6ed6d9e7cbd3b708291749a6b6d2f7af82da5cdd302203f24e5cc49f5e53b25ddddf454f7aaeec1590672bd168171f4cfe27d9567410201210337b777d22ef7f687b09d937b29fc6784e732c11ec3c57829111e0b9f84d25ee4ffffffff02100905000000000017a9146b6d9596c51392ddcc1edb2160b52d252561838587a6b21000000000001976a91414ef2db2007c672421b6de5b947b73a2f6787ad688ac00000000", "vin": [{"sequence": 4294967295, "scriptSig": {"hex": "483045022100ede79cfcce7f727712ce60f6ed6d9e7cbd3b708291749a6b6d2f7af82da5cdd302203f24e5cc49f5e53b25ddddf454f7aaeec1590672bd168171f4cfe27d9567410201210337b777d22ef7f687b09d937b29fc6784e732c11ec3c57829111e0b9f84d25ee4", "asm": "3045022100ede79cfcce7f727712ce60f6ed6d9e7cbd3b708291749a6b6d2f7af82da5cdd302203f24e5cc49f5e53b25ddddf454f7aaeec1590672bd168171f4cfe27d95674102[ALL] 0337b777d22ef7f687b09d937b29fc6784e732c11ec3c57829111e0b9f84d25ee4"}, "vout": 1, "txid": "7854324696fff2618d06d442ba906a5a691d3b658a5de31a4a8987ba75e7a30d"}], "txid": "4a9fe964ea8f6cd96a5673c43380b1834ccdd7580cf249ce57ff12a2b9762d65", "blocktime": 1537872018, "version": 1, "confirmations": 11489, "time": 1537872018, "locktime": 0, "vsize": 224, "size": 224}