{"hash": "4aa065528e52ba934edb03e6f69f51b0999d7fac9f5d647aa2b3f13e97f2429b", "blockhash": "0000000000000000001f76057863aec43deb6fa401d9628bb513d65a8098bfab", "vout": [{"scriptPubKey": {"reqSigs": 1, "hex": "76a9145b481f6f2835cae6001248512a51c65cecee3d0c88ac", "addresses": ["19Ketdt2zYPWtTz6jwZ1YSatcHfa5Lkjhz"], "asm": "OP_DUP OP_HASH160 5b481f6f2835cae6001248512a51c65cecee3d0c OP_EQUALVERIFY OP_CHECKSIG", "type": "pubkeyhash"}, "value": 0.04291908, "n": 0}], "hex": "0100000001cee2957fe0b6849440c2053cb94eb5b8fd10aeb7fb752228211a7a25427bed71010000006b483045022100b9442d4ebf9c09e3f3be0a0b528c9310e1af19d008aed40d24850d76877504e702206bd2654bd9d5ad2f76f124404eb2de1679a2991d0481245c62bfbf089022238001210353aff573100a68f1ba5f2067be06f8dea7903d0203889c8d7da48b425e2a13c7ffffffff01447d4100000000001976a9145b481f6f2835cae6001248512a51c65cecee3d0c88ac00000000", "vin": [{"sequence": 4294967295, "scriptSig": {"hex": "483045022100b9442d4ebf9c09e3f3be0a0b528c9310e1af19d008aed40d24850d76877504e702206bd2654bd9d5ad2f76f124404eb2de1679a2991d0481245c62bfbf089022238001210353aff573100a68f1ba5f2067be06f8dea7903d0203889c8d7da48b425e2a13c7", "asm": "3045022100b9442d4ebf9c09e3f3be0a0b528c9310e1af19d008aed40d24850d76877504e702206bd2654bd9d5ad2f76f124404eb2de1679a2991d0481245c62bfbf0890222380[ALL] 0353aff573100a68f1ba5f2067be06f8dea7903d0203889c8d7da48b425e2a13c7"}, "vout": 1, "txid": "71ed7b42257a1a21282275fbb7ae10fdb8b54eb93c05c2409484b6e07f95e2ce"}], "txid": "4aa065528e52ba934edb03e6f69f51b0999d7fac9f5d647aa2b3f13e97f2429b", "blocktime": 1537873891, "version": 1, "confirmations": 11478, "time": 1537873891, "locktime": 0, "vsize": 192, "size": 192}