{"hash": "ec43ab5961f9e017eed4a9f5ff63d73ab28f1c4552600d97cb6881df9f2d9da2", "blockhash": "0000000000000000000dcc0f55137456b1a82d3642486a52398922ac4d620174", "vout": [{"scriptPubKey": {"reqSigs": 1, "hex": "76a9145765d151ed725076ca70edb9a867a436b6c7233a88ac", "addresses": ["18y7m72yCMavcJEG7DPQstZkUSUV5vt2hB"], "asm": "OP_DUP OP_HASH160 5765d151ed725076ca70edb9a867a436b6c7233a OP_EQUALVERIFY OP_CHECKSIG", "type": "pubkeyhash"}, "value": 0.0026696, "n": 0}, {"scriptPubKey": {"reqSigs": 1, "hex": "a914c6385d2966e375eed2ec227f9e10b0ed3a9b8da887", "addresses": ["3Km7Em1EkSKbYiNcaj8ZfiyrT9oRyFRvKS"], "asm": "OP_HASH160 c6385d2966e375eed2ec227f9e10b0ed3a9b8da8 OP_EQUAL", "type": "scripthash"}, "value": 0.01003318, "n": 1}], "hex": "0200000000010236fd1bade1380815b1acd413ce2aceb720b9cc05ba44f0d08e680bb5162eea550b00000017160014ba253929230af2d404565f469313102ea397832cfeffffff9e6966fd0ae145b7bc45a4d0c9ea37d578afe1d85971809007029d351a14d6230000000017160014bf0cd099f0ca74b570d60629f8f4863abb50542dfeffffff02d0120400000000001976a9145765d151ed725076ca70edb9a867a436b6c7233a88ac364f0f000000000017a914c6385d2966e375eed2ec227f9e10b0ed3a9b8da88702483045022100cab92d8e55dbc073a631672159e839f74c92cc2dd2cff50d0b0c0caacd686fbc022012ae951bf2ee43729c4d0d1ab3d1ba53814d2850236a5ba88771fac160593f9c0121039b0437b96365c34c3b3694d694c9746d19a5dd143813f30d38ab145a6463b474024830450221008a1b8ba1d86214a997bd40ca789e10d9a5f549860c79c02ce0ba7f5d373a3d32022070cbf9583326ec54d6d3fe599465c0f8d7879bf8345d5cb0e57623443b8fe3c801210274b9f0ded672531298f951b0f758d639457c8fdbe9e024eb1b13e188be2a07ef0c490800", "vin": [{"txinwitness": ["3045022100cab92d8e55dbc073a631672159e839f74c92cc2dd2cff50d0b0c0caacd686fbc022012ae951bf2ee43729c4d0d1ab3d1ba53814d2850236a5ba88771fac160593f9c01", "039b0437b96365c34c3b3694d694c9746d19a5dd143813f30d38ab145a6463b474"], "sequence": 4294967294, "scriptSig": {"hex": "160014ba253929230af2d404565f469313102ea397832c", "asm": "0014ba253929230af2d404565f469313102ea397832c"}, "vout": 11, "txid": "55ea2e16b50b688ed0f044ba05ccb920b7ce2ace13d4acb1150838e1ad1bfd36"}, {"txinwitness": ["30450221008a1b8ba1d86214a997bd40ca789e10d9a5f549860c79c02ce0ba7f5d373a3d32022070cbf9583326ec54d6d3fe599465c0f8d7879bf8345d5cb0e57623443b8fe3c801", "0274b9f0ded672531298f951b0f758d639457c8fdbe9e024eb1b13e188be2a07ef"], "sequence": 4294967294, "scriptSig": {"hex": "160014bf0cd099f0ca74b570d60629f8f4863abb50542d", "asm": "0014bf0cd099f0ca74b570d60629f8f4863abb50542d"}, "vout": 0, "txid": "23d6141a359d020790807159d8e1af78d537eac9d0a445bcb745e10afd66699e"}], "txid": "4aa28a2cc65784e065705abe5cece1458ffa96ee6bf5c088d1a7da9f512eb577", "blocktime": 1537870268, "version": 2, "confirmations": 11520, "time": 1537870268, "locktime": 542988, "vsize": 259, "size": 422}