{"hash": "35df29b3d6dd1e35a56be8b092581602dc9e19b7265bc6aa057dd65a770f41ae", "blockhash": "0000000000000000000e13cef7c366c0283d82e591d1acd082e914b08063cdf1", "vout": [{"scriptPubKey": {"reqSigs": 1, "hex": "a91430897cc6c9d69f6a2c2f1c651d51f22219f1a4f687", "addresses": ["367f4YWz1VCFaqBqwbTrzwi2b1h2U3w1AF"], "asm": "OP_HASH160 30897cc6c9d69f6a2c2f1c651d51f22219f1a4f6 OP_EQUAL", "type": "scripthash"}, "value": 1.48234758, "n": 0}, {"scriptPubKey": {"reqSigs": 1, "hex": "a91469f374308183f52ba267fe7a5c37ab7788bb269987", "addresses": ["3BMEXA4ZDxKqWMLE9ArQkALrnPnS9ckqoL"], "asm": "OP_HASH160 69f374308183f52ba267fe7a5c37ab7788bb2699 OP_EQUAL", "type": "scripthash"}, "value": 0.24648421, "n": 1}], "hex": "0100000000010177abbc0a603f3fe558e30b19e2b416ec6d09d49cf1f71ea272f4abe238ef00a50000000023220020bcf9f822194145acea0f3235f4107b5bf1a91b6b9f8489f63bf79ec29b360913ffffffff0206e2d5080000000017a91430897cc6c9d69f6a2c2f1c651d51f22219f1a4f687e51a78010000000017a91469f374308183f52ba267fe7a5c37ab7788bb269987040048304502210093d3fd4b2ec66b8634ffa631216e188bbb9f0cba53b15dc64f42c03d3420e466022015bb8d739046206874419dc0299c0e1af74f814a8f1c73ec96c9073799ddc86e0147304402201f108045ae3170fa6d0dd6bd82e8c72dad26546ed102dded6b3d963f9388e3e00220323a9ad98e2e98355186b7deb1ae07bec9adc94dd7bcde0474baf0f94443acbb01695221026c8f72b9e63db63907115e65d4da86eaae595b22fdc85ec75301bb4adbf203582103806535be3e3920e5eedee92de5714188fd6a784f2bf7b04f87de0b9c3ae1ecdb21024b23bfdce2afcae7e28c42f7f79aa100f22931712c52d7414a526ba494d44a2553ae00000000", "vin": [{"txinwitness": ["", "304502210093d3fd4b2ec66b8634ffa631216e188bbb9f0cba53b15dc64f42c03d3420e466022015bb8d739046206874419dc0299c0e1af74f814a8f1c73ec96c9073799ddc86e01", "304402201f108045ae3170fa6d0dd6bd82e8c72dad26546ed102dded6b3d963f9388e3e00220323a9ad98e2e98355186b7deb1ae07bec9adc94dd7bcde0474baf0f94443acbb01", "5221026c8f72b9e63db63907115e65d4da86eaae595b22fdc85ec75301bb4adbf203582103806535be3e3920e5eedee92de5714188fd6a784f2bf7b04f87de0b9c3ae1ecdb21024b23bfdce2afcae7e28c42f7f79aa100f22931712c52d7414a526ba494d44a2553ae"], "sequence": 4294967295, "scriptSig": {"hex": "220020bcf9f822194145acea0f3235f4107b5bf1a91b6b9f8489f63bf79ec29b360913", "asm": "0020bcf9f822194145acea0f3235f4107b5bf1a91b6b9f8489f63bf79ec29b360913"}, "vout": 0, "txid": "a500ef38e2abf472a21ef7f19cd4096dec16b4e2190be358e53f3f600abcab77"}], "txid": "4aa6773c657fcf5b7b30a12f312f0d889fca64e923e9be6be2b80215121f184e", "blocktime": 1537871767, "version": 1, "confirmations": 11493, "time": 1537871767, "locktime": 0, "vsize": 214, "size": 405}