{"hash": "9812fb29217a62868c781ccbe9958f42b3add1e928dab08a8d25a9a5c0686cbd", "blockhash": "0000000000000000000dcc0f55137456b1a82d3642486a52398922ac4d620174", "vout": [{"scriptPubKey": {"reqSigs": 1, "hex": "a9141cc07ad5e7516a6c47521b10a62ef053034691ff87", "addresses": ["34K3ReXTZTrqwfLPyr1pFsfBL6CASjJaSn"], "asm": "OP_HASH160 1cc07ad5e7516a6c47521b10a62ef053034691ff OP_EQUAL", "type": "scripthash"}, "value": 0.0032551, "n": 0}, {"scriptPubKey": {"reqSigs": 1, "hex": "76a914010229233582f5edea282580c61350a2076edc4188ac", "addresses": ["16LGKXcrDhzNcGvySmn1JNrRkkEnDSYDt"], "asm": "OP_DUP OP_HASH160 010229233582f5edea282580c61350a2076edc41 OP_EQUALVERIFY OP_CHECKSIG", "type": "pubkeyhash"}, "value": 0.09540455, "n": 1}, {"scriptPubKey": {"reqSigs": 1, "hex": "a914c186501f80e5505bf472b187e3fa8a5361895e0a87", "addresses": ["3KLHEo9n4HtNJvHcNuBGAgmRJaXYgRBsLo"], "asm": "OP_HASH160 c186501f80e5505bf472b187e3fa8a5361895e0a OP_EQUAL", "type": "scripthash"}, "value": 0.00624519, "n": 2}, {"scriptPubKey": {"reqSigs": 1, "hex": "76a91459c5059a63dc5540c717540618bb7a13544915c888ac", "addresses": ["19BfAPq71jXSSPwezpSEsNdszzMmRbnhHw"], "asm": "OP_DUP OP_HASH160 59c5059a63dc5540c717540618bb7a13544915c8 OP_EQUALVERIFY OP_CHECKSIG", "type": "pubkeyhash"}, "value": 0.0012, "n": 3}, {"scriptPubKey": {"reqSigs": 1, "hex": "a914e57d656c007f3b42b09044a2ca7a1a2b15b9413187", "addresses": ["3NcSt9nEyPnCX1aDtimY5acjb4C6rbdN4b"], "asm": "OP_HASH160 e57d656c007f3b42b09044a2ca7a1a2b15b94131 OP_EQUAL", "type": "scripthash"}, "value": 0.015, "n": 4}, {"scriptPubKey": {"reqSigs": 1, "hex": "a9145cfa0f59445163ed262e0f00195ca3f2641435df87", "addresses": ["3AAdefNqUUF2UTwFo3vPqqZ42ompP5j1Bd"], "asm": "OP_HASH160 5cfa0f59445163ed262e0f00195ca3f2641435df OP_EQUAL", "type": "scripthash"}, "value": 0.00515002, "n": 5}, {"scriptPubKey": {"reqSigs": 1, "hex": "a9144bd80ec4ef4d637fe56d45dfe051c252df0b3d0787", "addresses": ["38c3Rt9cNMm9xjBvBLN5P5Gn9ocYQCSvz3"], "asm": "OP_HASH160 4bd80ec4ef4d637fe56d45dfe051c252df0b3d07 OP_EQUAL", "type": "scripthash"}, "value": 0.0021406, "n": 6}, {"scriptPubKey": {"reqSigs": 1, "hex": "a91488001bbbc9a61870e80476f34432acb551d7585387", "addresses": ["3E67xAE6FnFu1fPucxJPeymMfY8mDKYgEN"], "asm": "OP_HASH160 88001bbbc9a61870e80476f34432acb551d75853 OP_EQUAL", "type": "scripthash"}, "value": 0.00289999, "n": 7}, {"scriptPubKey": {"reqSigs": 1, "hex": "76a914d8e35da41a3279b7be8992adee459099fc260d2188ac", "addresses": ["1LmoL63wdsuo4iBwx83hZeunwoxsY8MgaP"], "asm": "OP_DUP OP_HASH160 d8e35da41a3279b7be8992adee459099fc260d21 OP_EQUALVERIFY OP_CHECKSIG", "type": "pubkeyhash"}, "value": 0.01219304, "n": 8}, {"scriptPubKey": {"reqSigs": 1, "hex": "76a91466a7c55f81fa863b5083497e5340449c08b25dcd88ac", "addresses": ["1AMnuVxp2sbvtVGy5CZBfQq1NpMnx4F6HD"], "asm": "OP_DUP OP_HASH160 66a7c55f81fa863b5083497e5340449c08b25dcd OP_EQUALVERIFY OP_CHECKSIG", "type": "pubkeyhash"}, "value": 0.00385179, "n": 9}, {"scriptPubKey": {"reqSigs": 1, "hex": "a914d82683449e48a8611660b4a30c4d045eaaabf2ce87", "addresses": ["3MPv1tkKEzDpk5NgatB8RgHKawQY8hhyQL"], "asm": "OP_HASH160 d82683449e48a8611660b4a30c4d045eaaabf2ce OP_EQUAL", "type": "scripthash"}, "value": 0.02271318, "n": 10}, {"scriptPubKey": {"reqSigs": 1, "hex": "a9146332efce86f363a8563399cf0337ab0476ea6ed387", "addresses": ["3AjXqgWhsHPLxmLcEKdckHRPayWFguw4Cx"], "asm": "OP_HASH160 6332efce86f363a8563399cf0337ab0476ea6ed3 OP_EQUAL", "type": "scripthash"}, "value": 0.01596831, "n": 11}, {"scriptPubKey": {"reqSigs": 1, "hex": "a9147348bb2adb77dfec6a1909dd18f02afccc6b57bb87", "addresses": ["3CCam3vfBULKkGHLHXcsHZgQmSnr64R78t"], "asm": "OP_HASH160 7348bb2adb77dfec6a1909dd18f02afccc6b57bb OP_EQUAL", "type": "scripthash"}, "value": 0.00433165, "n": 12}, {"scriptPubKey": {"reqSigs": 1, "hex": "76a91457e9c7b0f63716d895c8809fcc5c147897c5f1ef88ac", "addresses": ["191qr1faD87iU2ug669CwczGwrTsG2vk8Q"], "asm": "OP_DUP OP_HASH160 57e9c7b0f63716d895c8809fcc5c147897c5f1ef OP_EQUALVERIFY OP_CHECKSIG", "type": "pubkeyhash"}, "value": 0.00848872, "n": 13}, {"scriptPubKey": {"reqSigs": 1, "hex": "76a914c29b2f5794f57091e3c2b99559c752306dc191fa88ac", "addresses": ["1Jjyzesx5jTnnQeJ2ZfEAwkjseVjZ3tkeL"], "asm": "OP_DUP OP_HASH160 c29b2f5794f57091e3c2b99559c752306dc191fa OP_EQUALVERIFY OP_CHECKSIG", "type": "pubkeyhash"}, "value": 0.00780031, "n": 14}, {"scriptPubKey": {"reqSigs": 1, "hex": "a9149244da5d0ca9fd4592c19fb3321ee8a405cd1cc287", "addresses": ["3F2R4YH4vZwBuerSEapPoeCMvQtYb2WV9M"], "asm": "OP_HASH160 9244da5d0ca9fd4592c19fb3321ee8a405cd1cc2 OP_EQUAL", "type": "scripthash"}, "value": 0.0001, "n": 15}, {"scriptPubKey": {"reqSigs": 1, "hex": "76a91489699026cf8ec12d6be51c44e54709d0763fd4b788ac", "addresses": ["1DXa2w7cJacVnxAqQgRwvajpUCvPzTtbf4"], "asm": "OP_DUP OP_HASH160 89699026cf8ec12d6be51c44e54709d0763fd4b7 OP_EQUALVERIFY OP_CHECKSIG", "type": "pubkeyhash"}, "value": 0.01846852, "n": 16}, {"scriptPubKey": {"reqSigs": 1, "hex": "76a9146137cd58c287924074fdc853c92df728a90d3ad688ac", "addresses": ["19s3Poro2h4DAVDKgXfkzBTYdr3nuW7NSX"], "asm": "OP_DUP OP_HASH160 6137cd58c287924074fdc853c92df728a90d3ad6 OP_EQUALVERIFY OP_CHECKSIG", "type": "pubkeyhash"}, "value": 0.0057, "n": 17}, {"scriptPubKey": {"reqSigs": 1, "hex": "76a9144dafaf640544e8fff02d5c8bee7739c35f585f4a88ac", "addresses": ["185mVb3vY5Q1ZX4wHV7zjZLuP6aSMCjqUL"], "asm": "OP_DUP OP_HASH160 4dafaf640544e8fff02d5c8bee7739c35f585f4a OP_EQUALVERIFY OP_CHECKSIG", "type": "pubkeyhash"}, "value": 0.01292, "n": 18}, {"scriptPubKey": {"reqSigs": 1, "hex": "a9142c1074c752607a68eac01a7a46f8b3a49ce879c887", "addresses": ["35i1NNvU4y3ADzzUYRDJaDPntnsGXaroSx"], "asm": "OP_HASH160 2c1074c752607a68eac01a7a46f8b3a49ce879c8 OP_EQUAL", "type": "scripthash"}, "value": 0.0025686, "n": 19}, {"scriptPubKey": {"reqSigs": 1, "hex": "a9141dbb85c2cd5e25dd8e91e9cab23a405ad163f5f087", "addresses": ["34QEAQ5rb2tPaCGyggRJZ3E131JxBGRcHK"], "asm": "OP_HASH160 1dbb85c2cd5e25dd8e91e9cab23a405ad163f5f0 OP_EQUAL", "type": "scripthash"}, "value": 0.0049987, "n": 20}, {"scriptPubKey": {"reqSigs": 1, "hex": "a914e445fbc6c2e4bfb7b9e350d882e7dd24b85de10e87", "addresses": ["3NW1ppWpoB34p9ZYc9r5y8sAHzt7DEt9Go"], "asm": "OP_HASH160 e445fbc6c2e4bfb7b9e350d882e7dd24b85de10e OP_EQUAL", "type": "scripthash"}, "value": 0.00149257, "n": 21}, {"scriptPubKey": {"reqSigs": 1, "hex": "a914efc345732e1593172b94938a7cc9100523dd7b6f87", "addresses": ["3PYmM5VQCSrhpySuD8zhaX6JT3oDZ7dzGd"], "asm": "OP_HASH160 efc345732e1593172b94938a7cc9100523dd7b6f OP_EQUAL", "type": "scripthash"}, "value": 0.00572364, "n": 22}, {"scriptPubKey": {"reqSigs": 1, "hex": "a9147e6cc29f375697ee708cdacd5931ac9af7702a7587", "addresses": ["3DDVMWSmYJnmAzZ54b768FwU4xsB2vpE6i"], "asm": "OP_HASH160 7e6cc29f375697ee708cdacd5931ac9af7702a75 OP_EQUAL", "type": "scripthash"}, "value": 0.00447684, "n": 23}, {"scriptPubKey": {"reqSigs": 1, "hex": "76a91483d3572fe2f16e0095b94af1c0b8def79aa8baa588ac", "addresses": ["1D22hLAE2t9jguVwJmArSBYhhY4bp3UJyo"], "asm": "OP_DUP OP_HASH160 83d3572fe2f16e0095b94af1c0b8def79aa8baa5 OP_EQUALVERIFY OP_CHECKSIG", "type": "pubkeyhash"}, "value": 0.1433495, "n": 24}, {"scriptPubKey": {"reqSigs": 1, "hex": "a91499c9f3b0a88b7f88812b44a1612de359a776ba7987", "addresses": ["3FiBEkxtvRMuJB6JSbVzqNWRqr1A3rp956"], "asm": "OP_HASH160 99c9f3b0a88b7f88812b44a1612de359a776ba79 OP_EQUAL", "type": "scripthash"}, "value": 2.12364956, "n": 25}, {"scriptPubKey": {"reqSigs": 1, "hex": "a914e20bad41dc766cb108814b54470421a11e7ad1a687", "addresses": ["3NJEdDQhX7C3d8fn8GCh4u7yQBJ6BW71Jf"], "asm": "OP_HASH160 e20bad41dc766cb108814b54470421a11e7ad1a6 OP_EQUAL", "type": "scripthash"}, "value": 0.0056102, "n": 26}, {"scriptPubKey": {"reqSigs": 1, "hex": "a9146b2fde92d6727205884f398ff40c34ff3d1df8bd87", "addresses": ["3BTma6WTTG51RNbuERDSc9fNbdR4UpSnS9"], "asm": "OP_HASH160 6b2fde92d6727205884f398ff40c34ff3d1df8bd OP_EQUAL", "type": "scripthash"}, "value": 0.00424265, "n": 27}, {"scriptPubKey": {"reqSigs": 1, "hex": "a9141022b2783120c84d9d49a183ee96316aa583a09487", "addresses": ["33ALJQujAspUofhbHAgqxUzTFVvoJYsPCH"], "asm": "OP_HASH160 1022b2783120c84d9d49a183ee96316aa583a094 OP_EQUAL", "type": "scripthash"}, "value": 0.00795632, "n": 28}, {"scriptPubKey": {"reqSigs": 1, "hex": "a914595b643235901fb0c5008ef6c6b9023a83bbe0e987", "addresses": ["39qVYbrqozfoiL4vQp1aCzbqTCF8eji3ie"], "asm": "OP_HASH160 595b643235901fb0c5008ef6c6b9023a83bbe0e9 OP_EQUAL", "type": "scripthash"}, "value": 0.00224011, "n": 29}, {"scriptPubKey": {"reqSigs": 1, "hex": "76a9148c2120583884aa3b042cd0ede01307b7eb12e75388ac", "addresses": ["1DmwHWsvu5VanWanipNNWtZoTuPpjNWKBD"], "asm": "OP_DUP OP_HASH160 8c2120583884aa3b042cd0ede01307b7eb12e753 OP_EQUALVERIFY OP_CHECKSIG", "type": "pubkeyhash"}, "value": 0.17999523, "n": 30}, {"scriptPubKey": {"reqSigs": 1, "hex": "a9140ebf9625140bf9479f6d75fd738ad1a6b46a30d287", "addresses": ["332zttkHu5ccb8F2knSQ8pL6sS5Yxvwr1w"], "asm": "OP_HASH160 0ebf9625140bf9479f6d75fd738ad1a6b46a30d2 OP_EQUAL", "type": "scripthash"}, "value": 0.00315808, "n": 31}, {"scriptPubKey": {"reqSigs": 1, "hex": "a914aa8a0b10d96845aed5aaf670403af1e06b940ee787", "addresses": ["3HEkAZoeEzZtuUkYbSpxYVM7Ai1gq35XQC"], "asm": "OP_HASH160 aa8a0b10d96845aed5aaf670403af1e06b940ee7 OP_EQUAL", "type": "scripthash"}, "value": 0.02326002, "n": 32}, {"scriptPubKey": {"reqSigs": 1, "hex": "a914270829f1ed499b77a37d05b3a46cb11d9538d6e687", "addresses": ["35FQ4FzHweFPFcqmrijK81sEn73pS3Qr9Y"], "asm": "OP_HASH160 270829f1ed499b77a37d05b3a46cb11d9538d6e6 OP_EQUAL", "type": "scripthash"}, "value": 0.00178617, "n": 33}, {"scriptPubKey": {"reqSigs": 1, "hex": "76a914f8444e618bcc9a3f59b8846ab5822c7069cf02fd88ac", "addresses": ["1PdiQa5KodcVQp2w2MwU3ymU4piD5LdJSf"], "asm": "OP_DUP OP_HASH160 f8444e618bcc9a3f59b8846ab5822c7069cf02fd OP_EQUALVERIFY OP_CHECKSIG", "type": "pubkeyhash"}, "value": 0.0027, "n": 34}, {"scriptPubKey": {"reqSigs": 1, "hex": "a914a1423bb767a740ce8b819932472445990b4d00cb87", "addresses": ["3GPg4PxDSYn7znfr8BXrqDXCKAcMmPLUpv"], "asm": "OP_HASH160 a1423bb767a740ce8b819932472445990b4d00cb OP_EQUAL", "type": "scripthash"}, "value": 0.00505098, "n": 35}, {"scriptPubKey": {"reqSigs": 1, "hex": "76a914ea9ca0a3ba27990f1f477f2dc877fc89adfd60ab88ac", "addresses": ["1NPWkZM3xL6PPsjqDMz97pAkhc2h9Mj5R2"], "asm": "OP_DUP OP_HASH160 ea9ca0a3ba27990f1f477f2dc877fc89adfd60ab OP_EQUALVERIFY OP_CHECKSIG", "type": "pubkeyhash"}, "value": 0.01263651, "n": 36}, {"scriptPubKey": {"reqSigs": 1, "hex": "a914cad714a62d4cf4059ca4693cf7922a53581c147f87", "addresses": ["3LBY5MpafQLpGEwZck8ZWxqQoKYARCimrj"], "asm": "OP_HASH160 cad714a62d4cf4059ca4693cf7922a53581c147f OP_EQUAL", "type": "scripthash"}, "value": 0.00481839, "n": 37}, {"scriptPubKey": {"reqSigs": 1, "hex": "76a9145f7351c8416f3b760623325484c3b41718143d1b88ac", "addresses": ["19hhLm7ZoxFKhHzz1DJrAQZjdUapZcFZL8"], "asm": "OP_DUP OP_HASH160 5f7351c8416f3b760623325484c3b41718143d1b OP_EQUALVERIFY OP_CHECKSIG", "type": "pubkeyhash"}, "value": 1.08, "n": 38}, {"scriptPubKey": {"reqSigs": 1, "hex": "a91491b70bae7515fa80081b6eba68a449c4edc2d24a87", "addresses": ["3EyVBbKcKFdsb6Ra7gEA2n5mbYh3TXVdMD"], "asm": "OP_HASH160 91b70bae7515fa80081b6eba68a449c4edc2d24a OP_EQUAL", "type": "scripthash"}, "value": 0.00316138, "n": 39}, {"scriptPubKey": {"reqSigs": 1, "hex": "76a9140e3b90f4789600bf37bd3c05be2fd959d909299588ac", "addresses": ["12JFpRMRwVey3NQPh4rxFiDXZscguy9gcr"], "asm": "OP_DUP OP_HASH160 0e3b90f4789600bf37bd3c05be2fd959d9092995 OP_EQUALVERIFY OP_CHECKSIG", "type": "pubkeyhash"}, "value": 0.5, "n": 40}, {"scriptPubKey": {"reqSigs": 1, "hex": "a9146752b100c937d45c6a31a1c1e1309ed1561ad53b87", "addresses": ["3B7LaoWiCgexsyCCya3L3bNkFiVwa2QZ4D"], "asm": "OP_HASH160 6752b100c937d45c6a31a1c1e1309ed1561ad53b OP_EQUAL", "type": "scripthash"}, "value": 0.00286868, "n": 41}, {"scriptPubKey": {"reqSigs": 1, "hex": "a9141a556fc98f318adfb9d4e5375d9ac191476b6c9187", "addresses": ["346Fqmv1vSB1Y91X7DLH2YHXNCEG9hmgVn"], "asm": "OP_HASH160 1a556fc98f318adfb9d4e5375d9ac191476b6c91 OP_EQUAL", "type": "scripthash"}, "value": 0.00559751, "n": 42}], "hex": "020000000001010c349b9f46ef0d00b9a8ca2b40185f1b56e9c8e9708acd8735ae05f2220c20fc00000000171600147cf2ba0237adc28e269c0044043f322515c3f1acfeffffff2b86f704000000000017a9141cc07ad5e7516a6c47521b10a62ef053034691ff8767939100000000001976a914010229233582f5edea282580c61350a2076edc4188ac878709000000000017a914c186501f80e5505bf472b187e3fa8a5361895e0a87c0d40100000000001976a91459c5059a63dc5540c717540618bb7a13544915c888ac60e316000000000017a914e57d656c007f3b42b09044a2ca7a1a2b15b9413187badb07000000000017a9145cfa0f59445163ed262e0f00195ca3f2641435df872c4403000000000017a9144bd80ec4ef4d637fe56d45dfe051c252df0b3d0787cf6c04000000000017a91488001bbbc9a61870e80476f34432acb551d7585387e89a1200000000001976a914d8e35da41a3279b7be8992adee459099fc260d2188ac9be00500000000001976a91466a7c55f81fa863b5083497e5340449c08b25dcd88ac56a822000000000017a914d82683449e48a8611660b4a30c4d045eaaabf2ce879f5d18000000000017a9146332efce86f363a8563399cf0337ab0476ea6ed3870d9c06000000000017a9147348bb2adb77dfec6a1909dd18f02afccc6b57bb87e8f30c00000000001976a91457e9c7b0f63716d895c8809fcc5c147897c5f1ef88acffe60b00000000001976a914c29b2f5794f57091e3c2b99559c752306dc191fa88ac102700000000000017a9149244da5d0ca9fd4592c19fb3321ee8a405cd1cc287442e1c00000000001976a91489699026cf8ec12d6be51c44e54709d0763fd4b788ac90b20800000000001976a9146137cd58c287924074fdc853c92df728a90d3ad688ace0b61300000000001976a9144dafaf640544e8fff02d5c8bee7739c35f585f4a88ac5ceb03000000000017a9142c1074c752607a68eac01a7a46f8b3a49ce879c8879ea007000000000017a9141dbb85c2cd5e25dd8e91e9cab23a405ad163f5f087094702000000000017a914e445fbc6c2e4bfb7b9e350d882e7dd24b85de10e87ccbb08000000000017a914efc345732e1593172b94938a7cc9100523dd7b6f87c4d406000000000017a9147e6cc29f375697ee708cdacd5931ac9af7702a7587e6bbda00000000001976a91483d3572fe2f16e0095b94af1c0b8def79aa8baa588ac9c6ea80c0000000017a91499c9f3b0a88b7f88812b44a1612de359a776ba79877c8f08000000000017a914e20bad41dc766cb108814b54470421a11e7ad1a687497906000000000017a9146b2fde92d6727205884f398ff40c34ff3d1df8bd87f0230c000000000017a9141022b2783120c84d9d49a183ee96316aa583a094870b6b03000000000017a914595b643235901fb0c5008ef6c6b9023a83bbe0e987a3a61201000000001976a9148c2120583884aa3b042cd0ede01307b7eb12e75388aca0d104000000000017a9140ebf9625140bf9479f6d75fd738ad1a6b46a30d287f27d23000000000017a914aa8a0b10d96845aed5aaf670403af1e06b940ee787b9b902000000000017a914270829f1ed499b77a37d05b3a46cb11d9538d6e687b01e0400000000001976a914f8444e618bcc9a3f59b8846ab5822c7069cf02fd88ac0ab507000000000017a914a1423bb767a740ce8b819932472445990b4d00cb8723481300000000001976a914ea9ca0a3ba27990f1f477f2dc877fc89adfd60ab88ac2f5a07000000000017a914cad714a62d4cf4059ca4693cf7922a53581c147f8700f36f06000000001976a9145f7351c8416f3b760623325484c3b41718143d1b88acead204000000000017a91491b70bae7515fa80081b6eba68a449c4edc2d24a8780f0fa02000000001976a9140e3b90f4789600bf37bd3c05be2fd959d909299588ac946004000000000017a9146752b100c937d45c6a31a1c1e1309ed1561ad53b87878a08000000000017a9141a556fc98f318adfb9d4e5375d9ac191476b6c918702473044022030a3edb59243b4323b1ef80d950596d411b4339582c8f547aa0bbdfe2377161802207ec4a1691d931cd307635c8c4b51642a01d69b2655eb576c86366afae4dd2e89012103c510d2cfdc2ef8979d97c4adf4395f0c89d5231e9cae0757e77df99e052364540c490800", "vin": [{"txinwitness": ["3044022030a3edb59243b4323b1ef80d950596d411b4339582c8f547aa0bbdfe2377161802207ec4a1691d931cd307635c8c4b51642a01d69b2655eb576c86366afae4dd2e8901", "03c510d2cfdc2ef8979d97c4adf4395f0c89d5231e9cae0757e77df99e05236454"], "sequence": 4294967294, "scriptSig": {"hex": "1600147cf2ba0237adc28e269c0044043f322515c3f1ac", "asm": "00147cf2ba0237adc28e269c0044043f322515c3f1ac"}, "vout": 0, "txid": "fc200c22f205ae3587cd8a70e9c8e9561b5f18402bcaa8b9000def469f9b340c"}], "txid": "4aaac3a312b70e9774d2fd380263a27586eb044f8ad78bf775c7c91605065023", "blocktime": 1537870268, "version": 2, "confirmations": 11516, "time": 1537870268, "locktime": 542988, "vsize": 1508, "size": 1589}