{"hash": "dad781cbf5ff2a3794ce20ec761e03fd173217eba412f5376165840c2e1955b6", "blockhash": "0000000000000000001f76057863aec43deb6fa401d9628bb513d65a8098bfab", "vout": [{"scriptPubKey": {"reqSigs": 1, "hex": "00142ecd2f5123699bd88091a87a748488b05352a93f", "addresses": ["bc1q9mxj75frdxda3qy34pa8fpygkpf492flwxt63y"], "asm": "0 2ecd2f5123699bd88091a87a748488b05352a93f", "type": "witness_v0_keyhash"}, "value": 0.01949419, "n": 0}, {"scriptPubKey": {"reqSigs": 1, "hex": "a9147c0f9263c928cfac4c2266b69f603e071bbd858287", "addresses": ["3CzzNHErYzXVcbZCC6MTmvUD61w63xsxCV"], "asm": "OP_HASH160 7c0f9263c928cfac4c2266b69f603e071bbd8582 OP_EQUAL", "type": "scripthash"}, "value": 0.0465, "n": 1}], "hex": "01000000000101408f20fe7790301fa3355c62bc2353ccbb321c2b28bd810dfdde5a03d9438f86020000001716001460f5de9bfd643f142c91982860655324c16e44e5ffffffff02ebbe1d00000000001600142ecd2f5123699bd88091a87a748488b05352a93f10f446000000000017a9147c0f9263c928cfac4c2266b69f603e071bbd85828702483045022100bdda3ef503bcb18fb8b0dc188dbfae71e46de20b84bcea512b0eda69b2e7f140022007fc410381483872e0b35bf7ab51f4680cabf0ca78e40bf6bcdb0aa8baf5f370012103630663b82c53d669e3c317748e60897404e3e5549e3979f7abead3b2e2a4e03d00000000", "vin": [{"txinwitness": ["3045022100bdda3ef503bcb18fb8b0dc188dbfae71e46de20b84bcea512b0eda69b2e7f140022007fc410381483872e0b35bf7ab51f4680cabf0ca78e40bf6bcdb0aa8baf5f37001", "03630663b82c53d669e3c317748e60897404e3e5549e3979f7abead3b2e2a4e03d"], "sequence": 4294967295, "scriptSig": {"hex": "16001460f5de9bfd643f142c91982860655324c16e44e5", "asm": "001460f5de9bfd643f142c91982860655324c16e44e5"}, "vout": 2, "txid": "868f43d9035adefd0d81bd282b1c32bbcc5323bc625c35a31f309077fe208f40"}], "txid": "4aae38cf259c1c425f476de8819ae7d4aabaf30ed41144cd17862b96b297d5c7", "blocktime": 1537873891, "version": 1, "confirmations": 11478, "time": 1537873891, "locktime": 0, "vsize": 165, "size": 247}