{"hash": "4ab045b6e55541225b109fab15eb167d8b98849e29a014deab9dd75bae82b087", "blockhash": "00000000000000000004ffacab907a6b429b9a5745fa0b75af4234bf69dd7176", "vout": [{"scriptPubKey": {"reqSigs": 1, "hex": "76a9148dcc4922d10a7d1a121c824bf531eab8c4bd35a788ac", "addresses": ["1Dvm14rgzqgrKaivsLQrSBWXYvrpa2WiEW"], "asm": "OP_DUP OP_HASH160 8dcc4922d10a7d1a121c824bf531eab8c4bd35a7 OP_EQUALVERIFY OP_CHECKSIG", "type": "pubkeyhash"}, "value": 0.00428421, "n": 0}, {"scriptPubKey": {"reqSigs": 1, "hex": "76a9147ad07f5d5a9305e2d381752cec8e394189efd5d788ac", "addresses": ["1CCPD4m947a3WAtFF4xXM4vNdhwya9eFC6"], "asm": "OP_DUP OP_HASH160 7ad07f5d5a9305e2d381752cec8e394189efd5d7 OP_EQUALVERIFY OP_CHECKSIG", "type": "pubkeyhash"}, "value": 0.00760303, "n": 1}], "hex": "0100000001887318a84254f4c7128e484f601c59d06117c3d93655b1294ad8d2928a987d56000000006a473044022033062b975f01b2328dc049668f616ddbfd8de810c213c24b412a21d8751f742e022049e4706f26b6a20da1510ab80d47bcd3d1e56bf4cb30a8133d47c6cc80fe24b50121026e21c45938df13182c6519cde2ae6b1a4e29e0b7fc70a849ba1a158a39163071ffffffff0285890600000000001976a9148dcc4922d10a7d1a121c824bf531eab8c4bd35a788acef990b00000000001976a9147ad07f5d5a9305e2d381752cec8e394189efd5d788ac00000000", "vin": [{"sequence": 4294967295, "scriptSig": {"hex": "473044022033062b975f01b2328dc049668f616ddbfd8de810c213c24b412a21d8751f742e022049e4706f26b6a20da1510ab80d47bcd3d1e56bf4cb30a8133d47c6cc80fe24b50121026e21c45938df13182c6519cde2ae6b1a4e29e0b7fc70a849ba1a158a39163071", "asm": "3044022033062b975f01b2328dc049668f616ddbfd8de810c213c24b412a21d8751f742e022049e4706f26b6a20da1510ab80d47bcd3d1e56bf4cb30a8133d47c6cc80fe24b5[ALL] 026e21c45938df13182c6519cde2ae6b1a4e29e0b7fc70a849ba1a158a39163071"}, "vout": 0, "txid": "567d988a92d2d84a29b15536d9c31761d0591c604f488e12c7f45442a8187388"}], "txid": "4ab045b6e55541225b109fab15eb167d8b98849e29a014deab9dd75bae82b087", "blocktime": 1537875543, "version": 1, "confirmations": 11464, "time": 1537875543, "locktime": 0, "vsize": 225, "size": 225}