{"hash": "a84bde51aa538ddcfa2ef2d90e61fa9033c25e0f253a88f897b9931fb32a51c5", "blockhash": "0000000000000000001e0dab787dd257d1dbfcb92a98c2207d5e1078be1f4165", "vout": [{"scriptPubKey": {"reqSigs": 1, "hex": "76a914c8a1f40206be2914a6a8c95e59680b6eee211cdf88ac", "addresses": ["1KHrA4ysby6y9vQTazvWAkpjbEaMo1XGgM"], "asm": "OP_DUP OP_HASH160 c8a1f40206be2914a6a8c95e59680b6eee211cdf OP_EQUALVERIFY OP_CHECKSIG", "type": "pubkeyhash"}, "value": 0.0005, "n": 0}, {"scriptPubKey": {"reqSigs": 1, "hex": "a9141945a3b179abc7ecf26396d00c8f009a4e1cbb0187", "addresses": ["33zeEyK75NwQk6fGmJkc9rc8BXRo45EsGe"], "asm": "OP_HASH160 1945a3b179abc7ecf26396d00c8f009a4e1cbb01 OP_EQUAL", "type": "scripthash"}, "value": 0.0151, "n": 1}], "hex": "0200000000010169d4a4100819e1c78c8045cd7f2c6287d130c7f065be8d9d3a55cd31fe341ef30100000017160014e33b3fc9f193a53a8d09a04176a4eb8a24845bf0ffffffff0250c30000000000001976a914c8a1f40206be2914a6a8c95e59680b6eee211cdf88ac700a17000000000017a9141945a3b179abc7ecf26396d00c8f009a4e1cbb01870247304402207fc1ea1e3f6845b875facc24ed6d76454bf3e600298f6b585f1189467d4cbb4c02204a351c2dce47a38dde4c24865cbb0e60b850d254ffd246ab55907d103667ba91012103715facb996ce872982b5c7c6c57ddccb8fa630d18a507c887dfcdd3350fb2c3600000000", "vin": [{"txinwitness": ["304402207fc1ea1e3f6845b875facc24ed6d76454bf3e600298f6b585f1189467d4cbb4c02204a351c2dce47a38dde4c24865cbb0e60b850d254ffd246ab55907d103667ba9101", "03715facb996ce872982b5c7c6c57ddccb8fa630d18a507c887dfcdd3350fb2c36"], "sequence": 4294967295, "scriptSig": {"hex": "160014e33b3fc9f193a53a8d09a04176a4eb8a24845bf0", "asm": "0014e33b3fc9f193a53a8d09a04176a4eb8a24845bf0"}, "vout": 1, "txid": "f31e34fe31cd553a9d8dbe65f0c730d187622c7fcd45808cc7e1190810a4d469"}], "txid": "4ab4bda5813575ba303dd94fd34cd75ab7860cefa13cdf72bbf4737c69c25ea1", "blocktime": 1537872475, "version": 2, "confirmations": 11486, "time": 1537872475, "locktime": 0, "vsize": 168, "size": 249}