{"hash": "4abd1bacd23bf3fe7f86dbc055e613c24d303c33359f285c17e7f77d272f5490", "blockhash": "00000000000000000024a2167bbff67b0be802c0b01cdd79e6331c2be6459f87", "vout": [{"scriptPubKey": {"reqSigs": 1, "hex": "76a91481e9ddd77b26ffe41ef7c0959511988f645c8a8388ac", "addresses": ["1CqvL5eshsZTYFTbpPEx5yyVuhdS7G6DNq"], "asm": "OP_DUP OP_HASH160 81e9ddd77b26ffe41ef7c0959511988f645c8a83 OP_EQUALVERIFY OP_CHECKSIG", "type": "pubkeyhash"}, "value": 0.0991952, "n": 0}, {"scriptPubKey": {"reqSigs": 1, "hex": "76a914770352349bf68ef799b052dc64f64c47cced94c988ac", "addresses": ["1BrHPap49pm6RWLygx8C79NjZ82xH1dTGt"], "asm": "OP_DUP OP_HASH160 770352349bf68ef799b052dc64f64c47cced94c9 OP_EQUALVERIFY OP_CHECKSIG", "type": "pubkeyhash"}, "value": 10.68008642, "n": 1}], "hex": "0200000001bc1ddf5aed2917026c905cca0e20485834fd0fe34703a9c87ddc10e9b0583d44010000006a4730440220051bb3b19a211b25409d506def1e76557f4dfe503fe1e5db98ce16d2af124b4a022002c94131a026799e2ae3f54b3294f8b13811e97bcf72fea67cc2bd41441b005b012102235004d3d2324edfd874ddfdd00de5a7b7a64c7c5821efaccb6e91c7111a4aaeffffffff02205c9700000000001976a91481e9ddd77b26ffe41ef7c0959511988f645c8a8388acc284a83f000000001976a914770352349bf68ef799b052dc64f64c47cced94c988ac00000000", "vin": [{"sequence": 4294967295, "scriptSig": {"hex": "4730440220051bb3b19a211b25409d506def1e76557f4dfe503fe1e5db98ce16d2af124b4a022002c94131a026799e2ae3f54b3294f8b13811e97bcf72fea67cc2bd41441b005b012102235004d3d2324edfd874ddfdd00de5a7b7a64c7c5821efaccb6e91c7111a4aae", "asm": "30440220051bb3b19a211b25409d506def1e76557f4dfe503fe1e5db98ce16d2af124b4a022002c94131a026799e2ae3f54b3294f8b13811e97bcf72fea67cc2bd41441b005b[ALL] 02235004d3d2324edfd874ddfdd00de5a7b7a64c7c5821efaccb6e91c7111a4aae"}, "vout": 1, "txid": "443d58b0e910dc7dc8a90347e30ffd345848200eca5c906c021729ed5adf1dbc"}], "txid": "4abd1bacd23bf3fe7f86dbc055e613c24d303c33359f285c17e7f77d272f5490", "blocktime": 1537870564, "version": 2, "confirmations": 11515, "time": 1537870564, "locktime": 0, "vsize": 225, "size": 225}