{"hash": "81e7e9c4db85f362822a6529b3c9269f47ffae973fe07b80dab6ce8e5d5e9d66", "blockhash": "0000000000000000000baef3f32e3676a92c3b2e5da21b426e4f302fc371ce76", "vout": [{"scriptPubKey": {"reqSigs": 1, "hex": "76a914ae79ecd9b0e476a18d9704555c9d1aed36d48b4788ac", "addresses": ["1GuYdtbsLdfZTGhGbLfpevckm9C1TvWaA3"], "asm": "OP_DUP OP_HASH160 ae79ecd9b0e476a18d9704555c9d1aed36d48b47 OP_EQUALVERIFY OP_CHECKSIG", "type": "pubkeyhash"}, "value": 0.00733908, "n": 0}], "hex": "01000000000106887b3b20f5902615be538db076c40daf7c91b62f42ab227106443bd632b18453010000001716001433a6f9b59970c6ddad184ec12d53af7bb8578e52ffffffff52c31da7c3229fb48e0e544ae1cd657bd8dc556b68c4bd20d43af2f289aec6ef0500000017160014b76a727729a398e8d5f9e266bb8d8aa6b9a26dd7ffffffff54f01041303bb3091c0ef4464ff5ceb06d3b1fc6526c97281a09d8a0a0e052770100000017160014b76a727729a398e8d5f9e266bb8d8aa6b9a26dd7fffffffffa4734ce59104a48f9328a298bafa09ccd7f9e58433d82c9e1059f44169192cc0900000017160014b76a727729a398e8d5f9e266bb8d8aa6b9a26dd7ffffffff002b5f582668ec8bbc853c37a0b2396bc5ea637c5c9f4462a6684995e297872e0a00000017160014b76a727729a398e8d5f9e266bb8d8aa6b9a26dd7ffffffff4809007c51e501507a11a6f57295f9f522286bea58977ad5c3045bead667a65c0500000017160014b76a727729a398e8d5f9e266bb8d8aa6b9a26dd7ffffffff01d4320b00000000001976a914ae79ecd9b0e476a18d9704555c9d1aed36d48b4788ac024730440220527b5b696ab57cceabb007a324bc5c36123003428285d1af62bc4f28a56461e80220515ce1db957cd65d3175dfe8017c9932c5e4676b05d31455e880376a653ff6880121024b2ba4b9fb62335cbcf7d6e28ea6d67a5307c46775b173ba5b1cd28c9570e33f02483045022100fe9f9eccabd4c626bc85b59df70de41d75d9a618ebec46d17058f2d9122a738802201a9d8de12c79f94eeda1ff186e5d2a4490f83fbfe9ce87d7270901e1fa52ffd5012103caa705b1f852e5ce19054ceb0299b22060e6f2b0d39a7b39f318181afb26c0a80247304402205f3c232157b4c8fac96f266eb0e9987ba284ad96e6c8512d12a2c5421e678bb502201a7ee64dee6c4c77aecaced1155ab667e524e5d604067fc5a1568781f80f7eee012103caa705b1f852e5ce19054ceb0299b22060e6f2b0d39a7b39f318181afb26c0a8024830450221009beb179ffeeb541363b442d1ab9826d9dee9085ba803df3bea11ed956847d84f02207cb87b0f0f2be860ff21f6c2372a4e5ef826a62790eb722f18c4e9af7665f0f8012103caa705b1f852e5ce19054ceb0299b22060e6f2b0d39a7b39f318181afb26c0a802483045022100ea70f6678ca056cdb9c89f0097ab148146780704e7d6883635cf6aa3bef6ffea02200545c28e5fc4eb42f90ebe8a91ae462c8045dbbfcd9bd20c0c35dc03e379768f012103caa705b1f852e5ce19054ceb0299b22060e6f2b0d39a7b39f318181afb26c0a80247304402202144fca150e543277afa7f381fba56748d208438c6a594d5979c910d8a504b5c022077760a430ab99f521369949dce008a13063df279075fd3f950c9adcd347b8286012103caa705b1f852e5ce19054ceb0299b22060e6f2b0d39a7b39f318181afb26c0a800000000", "vin": [{"txinwitness": ["30440220527b5b696ab57cceabb007a324bc5c36123003428285d1af62bc4f28a56461e80220515ce1db957cd65d3175dfe8017c9932c5e4676b05d31455e880376a653ff68801", "024b2ba4b9fb62335cbcf7d6e28ea6d67a5307c46775b173ba5b1cd28c9570e33f"], "sequence": 4294967295, "scriptSig": {"hex": "16001433a6f9b59970c6ddad184ec12d53af7bb8578e52", "asm": "001433a6f9b59970c6ddad184ec12d53af7bb8578e52"}, "vout": 1, "txid": "5384b132d63b44067122ab422fb6917caf0dc476b08d53be152690f5203b7b88"}, {"txinwitness": ["3045022100fe9f9eccabd4c626bc85b59df70de41d75d9a618ebec46d17058f2d9122a738802201a9d8de12c79f94eeda1ff186e5d2a4490f83fbfe9ce87d7270901e1fa52ffd501", "03caa705b1f852e5ce19054ceb0299b22060e6f2b0d39a7b39f318181afb26c0a8"], "sequence": 4294967295, "scriptSig": {"hex": "160014b76a727729a398e8d5f9e266bb8d8aa6b9a26dd7", "asm": "0014b76a727729a398e8d5f9e266bb8d8aa6b9a26dd7"}, "vout": 5, "txid": "efc6ae89f2f23ad420bdc4686b55dcd87b65cde14a540e8eb49f22c3a71dc352"}, {"txinwitness": ["304402205f3c232157b4c8fac96f266eb0e9987ba284ad96e6c8512d12a2c5421e678bb502201a7ee64dee6c4c77aecaced1155ab667e524e5d604067fc5a1568781f80f7eee01", "03caa705b1f852e5ce19054ceb0299b22060e6f2b0d39a7b39f318181afb26c0a8"], "sequence": 4294967295, "scriptSig": {"hex": "160014b76a727729a398e8d5f9e266bb8d8aa6b9a26dd7", "asm": "0014b76a727729a398e8d5f9e266bb8d8aa6b9a26dd7"}, "vout": 1, "txid": "7752e0a0a0d8091a28976c52c61f3b6db0cef54f46f40e1c09b33b304110f054"}, {"txinwitness": ["30450221009beb179ffeeb541363b442d1ab9826d9dee9085ba803df3bea11ed956847d84f02207cb87b0f0f2be860ff21f6c2372a4e5ef826a62790eb722f18c4e9af7665f0f801", "03caa705b1f852e5ce19054ceb0299b22060e6f2b0d39a7b39f318181afb26c0a8"], "sequence": 4294967295, "scriptSig": {"hex": "160014b76a727729a398e8d5f9e266bb8d8aa6b9a26dd7", "asm": "0014b76a727729a398e8d5f9e266bb8d8aa6b9a26dd7"}, "vout": 9, "txid": "cc929116449f05e1c9823d43589e7fcd9ca0af8b298a32f9484a1059ce3447fa"}, {"txinwitness": ["3045022100ea70f6678ca056cdb9c89f0097ab148146780704e7d6883635cf6aa3bef6ffea02200545c28e5fc4eb42f90ebe8a91ae462c8045dbbfcd9bd20c0c35dc03e379768f01", "03caa705b1f852e5ce19054ceb0299b22060e6f2b0d39a7b39f318181afb26c0a8"], "sequence": 4294967295, "scriptSig": {"hex": "160014b76a727729a398e8d5f9e266bb8d8aa6b9a26dd7", "asm": "0014b76a727729a398e8d5f9e266bb8d8aa6b9a26dd7"}, "vout": 10, "txid": "2e8797e2954968a662449f5c7c63eac56b39b2a0373c85bc8bec6826585f2b00"}, {"txinwitness": ["304402202144fca150e543277afa7f381fba56748d208438c6a594d5979c910d8a504b5c022077760a430ab99f521369949dce008a13063df279075fd3f950c9adcd347b828601", "03caa705b1f852e5ce19054ceb0299b22060e6f2b0d39a7b39f318181afb26c0a8"], "sequence": 4294967295, "scriptSig": {"hex": "160014b76a727729a398e8d5f9e266bb8d8aa6b9a26dd7", "asm": "0014b76a727729a398e8d5f9e266bb8d8aa6b9a26dd7"}, "vout": 5, "txid": "5ca667d6ea5b04c3d57a9758ea6b2822f5f99572f5a6117a5001e5517c000948"}], "txid": "4abd619d5087ee8b3a8368ff3bba96a2d839a4c117cbdb304dbb35c2b7aa93bb", "blocktime": 1537876114, "version": 1, "confirmations": 11459, "time": 1537876114, "locktime": 0, "vsize": 590, "size": 1075}