{"hash": "8d8bf2b8076c114503a3b98faeac2ce75ed3dacbcc0d5753b3adf3e523daed22", "blockhash": "00000000000000000018f53835495a110e01622372bf6ae95dc86f2b0ab887b0", "vout": [{"scriptPubKey": {"reqSigs": 1, "hex": "76a91433d3cc4daf73c862f07da895a713285d0f356ff788ac", "addresses": ["15j3BmhDXcgpBbWZp1H4bmcip2VkPwPRWk"], "asm": "OP_DUP OP_HASH160 33d3cc4daf73c862f07da895a713285d0f356ff7 OP_EQUALVERIFY OP_CHECKSIG", "type": "pubkeyhash"}, "value": 0.00126444, "n": 0}, {"scriptPubKey": {"reqSigs": 1, "hex": "76a9148498fa46544a00d3a388b2d2b8a5bab97b80483c88ac", "addresses": ["1D67TPrgh5mnDSsRhsKRB4BkHcp7bp2ZCd"], "asm": "OP_DUP OP_HASH160 8498fa46544a00d3a388b2d2b8a5bab97b80483c OP_EQUALVERIFY OP_CHECKSIG", "type": "pubkeyhash"}, "value": 0.00099266, "n": 1}, {"scriptPubKey": {"reqSigs": 1, "hex": "a91487367a0a88da956a4cdaa8de7f04bf958a5796ce87", "addresses": ["3E1xQYrHJ7dt7nQJ3rVnGoGLEi5TZdMunc"], "asm": "OP_HASH160 87367a0a88da956a4cdaa8de7f04bf958a5796ce OP_EQUAL", "type": "scripthash"}, "value": 0.10132085, "n": 2}, {"scriptPubKey": {"reqSigs": 1, "hex": "a914469d3e076be07dbaaa1f14b4d6d0bc902d2e78df87", "addresses": ["388PbMkAA7298Y9cGUga67RbA4zxCMffSg"], "asm": "OP_HASH160 469d3e076be07dbaaa1f14b4d6d0bc902d2e78df OP_EQUAL", "type": "scripthash"}, "value": 0.00081095, "n": 3}, {"scriptPubKey": {"reqSigs": 1, "hex": "a9144b87b80f9f352c82858193cadeb7920f6171412887", "addresses": ["38aPBrMFhxB7kFmqh1CgCXm3ksDkX6eVAw"], "asm": "OP_HASH160 4b87b80f9f352c82858193cadeb7920f61714128 OP_EQUAL", "type": "scripthash"}, "value": 0.00106772, "n": 4}, {"scriptPubKey": {"reqSigs": 1, "hex": "a914c51a5a0d0993413a066d48d2a9dae10863f8b40a87", "addresses": ["3KfCcHb9adKatyAbGUfgULnQFmkBNV4gdT"], "asm": "OP_HASH160 c51a5a0d0993413a066d48d2a9dae10863f8b40a OP_EQUAL", "type": "scripthash"}, "value": 0.00335644, "n": 5}], "hex": "01000000000101a73b042616c33b596463a95d73864cc0b5122fc60949753570724ddca48cef72020000002322002039b21a5bfb7de49d8480a9cc7bf59719f750834f4b0cd2d791ea1c51da682c12ffffffff06eced0100000000001976a91433d3cc4daf73c862f07da895a713285d0f356ff788acc2830100000000001976a9148498fa46544a00d3a388b2d2b8a5bab97b80483c88ac759a9a000000000017a91487367a0a88da956a4cdaa8de7f04bf958a5796ce87c73c01000000000017a914469d3e076be07dbaaa1f14b4d6d0bc902d2e78df8714a101000000000017a9144b87b80f9f352c82858193cadeb7920f61714128871c1f05000000000017a914c51a5a0d0993413a066d48d2a9dae10863f8b40a8704004830450221008304d59dfe43e89e26d816aec74dacedc72a74b61abb32f126fa48508438a7f20220545401edc15fa98d5a230c2779f65f6c02484fea77d6bf209f14e55f93a65cef014730440220691641ba15ec9cacfab182d2541e5cd76ca8c3dbc255ff2c2de72bdfc8bfaf9502207be8dfb9e6e66eba3bb3a7e869aa53911455fb0c25979e727901b773097b591d01695221039f4375937fef6d68adab0c407b1a8a367069828a4ee25932c84a4ea81c9dc3d4210375babea5565ea1c6429cd65b6f1784f83e3f1d733e02fcd6508d50fe209247e82102dedb31f715e72c484c6d28799524f7056c9fc3ccb851b645486941d594956ec653ae00000000", "vin": [{"txinwitness": ["", "30450221008304d59dfe43e89e26d816aec74dacedc72a74b61abb32f126fa48508438a7f20220545401edc15fa98d5a230c2779f65f6c02484fea77d6bf209f14e55f93a65cef01", "30440220691641ba15ec9cacfab182d2541e5cd76ca8c3dbc255ff2c2de72bdfc8bfaf9502207be8dfb9e6e66eba3bb3a7e869aa53911455fb0c25979e727901b773097b591d01", "5221039f4375937fef6d68adab0c407b1a8a367069828a4ee25932c84a4ea81c9dc3d4210375babea5565ea1c6429cd65b6f1784f83e3f1d733e02fcd6508d50fe209247e82102dedb31f715e72c484c6d28799524f7056c9fc3ccb851b645486941d594956ec653ae"], "sequence": 4294967295, "scriptSig": {"hex": "22002039b21a5bfb7de49d8480a9cc7bf59719f750834f4b0cd2d791ea1c51da682c12", "asm": "002039b21a5bfb7de49d8480a9cc7bf59719f750834f4b0cd2d791ea1c51da682c12"}, "vout": 2, "txid": "72ef8ca4dc4d727035754909c62f12b5c04c86735da96364593bc31626043ba7"}], "txid": "4ac2cecd06e915483b4bc854e90e76bd37d9ca05246e0691180cb23b7baa139a", "blocktime": 1537870928, "version": 1, "confirmations": 11514, "time": 1537870928, "locktime": 0, "vsize": 346, "size": 537}