{"hash": "96bb8b866a38efc286e1bfe8a9cdad707db41aafec3bb92fd90d29083125a29d", "blockhash": "000000000000000000022b45ed06c6f4ccd3cf7fb5ba4856ebd2e58215665228", "vout": [{"scriptPubKey": {"reqSigs": 1, "hex": "a9140e583e0c0cac248efab6a028372a4346c25d80ee87", "addresses": ["32zs6R8TxCDazRPaw66GX4wPiCp8Ymvtss"], "asm": "OP_HASH160 0e583e0c0cac248efab6a028372a4346c25d80ee OP_EQUAL", "type": "scripthash"}, "value": 0.00014395, "n": 0}, {"scriptPubKey": {"reqSigs": 1, "hex": "a9143e30540ce58583e2b2b228a49fd906bcf4fa616887", "addresses": ["37MqiM8cDxw75coNmcjomJYchdP4whYxTA"], "asm": "OP_HASH160 3e30540ce58583e2b2b228a49fd906bcf4fa6168 OP_EQUAL", "type": "scripthash"}, "value": 0.01072067, "n": 1}], "hex": "010000000001016b22051ab8f23a66fe538d3899dec80e1b7add8bc40125c03895fc5ec25f3e73010000002322002062cdc786a47be7b109cfc9b27690d8b488f29bc4fdd24c48364e28d10662879cffffffff023b3800000000000017a9140e583e0c0cac248efab6a028372a4346c25d80ee87c35b10000000000017a9143e30540ce58583e2b2b228a49fd906bcf4fa61688704004830450221009c73718d33ad6d9e8e6efa7008d4cb39f2137eedc97f3ca52bdde3a26962f6a002203513e1a286fdb49595b98ea6f2df50210738efb49e63729919b8a976827b2fda01483045022100cc3f8aca83b4916b0c8facaf41ae829778b900bcb2044e04b2e7e318b8b81ae4022027e683fe877da8061e4e59998b60ede5c21d653f06aa346beeccd1d6cfb016520147522102fb81b41ac83b9b62c99b6e1e5d8051bcf3e4416b44c3cc619a9dfbe4e75306752103871fc2ca08e6950b38867e8e6a0e94ee625223d3aa0df5c65f414c6d784467e252ae00000000", "vin": [{"txinwitness": ["", "30450221009c73718d33ad6d9e8e6efa7008d4cb39f2137eedc97f3ca52bdde3a26962f6a002203513e1a286fdb49595b98ea6f2df50210738efb49e63729919b8a976827b2fda01", "3045022100cc3f8aca83b4916b0c8facaf41ae829778b900bcb2044e04b2e7e318b8b81ae4022027e683fe877da8061e4e59998b60ede5c21d653f06aa346beeccd1d6cfb0165201", "522102fb81b41ac83b9b62c99b6e1e5d8051bcf3e4416b44c3cc619a9dfbe4e75306752103871fc2ca08e6950b38867e8e6a0e94ee625223d3aa0df5c65f414c6d784467e252ae"], "sequence": 4294967295, "scriptSig": {"hex": "22002062cdc786a47be7b109cfc9b27690d8b488f29bc4fdd24c48364e28d10662879c", "asm": "002062cdc786a47be7b109cfc9b27690d8b488f29bc4fdd24c48364e28d10662879c"}, "vout": 1, "txid": "733e5fc25efc9538c02501c48bdd7a1b0ec8de99388d53fe663af2b81a05226b"}], "txid": "4aca0d2d210dc11960bf6ef867d116cda2923f63ab2c6c8c02d94c75dad4dd02", "blocktime": 1537869901, "version": 1, "confirmations": 11524, "time": 1537869901, "locktime": 0, "vsize": 206, "size": 372}