{"hash": "4aca6dc1077d905ac3ba9f9f349582dc7acc9ab29289dee7b847d87e31e32d82", "blockhash": "00000000000000000017f5eb5941039fbcee6240d03bc1f2f8e35350df66a1d8", "vout": [{"scriptPubKey": {"type": "nulldata", "hex": "6a4c50000077fa00011ede7bec60b6a9f8268e2f66d19ed074892d00f8e87af8e8e963c7cfd5b9a3fe099cd607c60ff15a5b8727423a8b5baa191406142de11b147bab1d100759d4ba30d2c37bb011d97e02cf", "asm": "OP_RETURN 000077fa00011ede7bec60b6a9f8268e2f66d19ed074892d00f8e87af8e8e963c7cfd5b9a3fe099cd607c60ff15a5b8727423a8b5baa191406142de11b147bab1d100759d4ba30d2c37bb011d97e02cf"}, "value": 0.0, "n": 0}, {"scriptPubKey": {"reqSigs": 1, "hex": "76a9146d3f04eb675537d02a7e8f4f95eb81136ddd9e1d88ac", "addresses": ["1Axe9ZZoKvZ3iLJkgwiFQwRRoJkJjpDZAJ"], "asm": "OP_DUP OP_HASH160 6d3f04eb675537d02a7e8f4f95eb81136ddd9e1d OP_EQUALVERIFY OP_CHECKSIG", "type": "pubkeyhash"}, "value": 0.00633375, "n": 1}], "hex": "0100000001ed7815640a7a86015e45d32e785a6ee8e644efdbef6a6df6d8739107adb63c7e010000006b483045022100ae86be5c7d8c3bfe614789678fc428e6ffa1b547e9b3b511049d4a7d3135c6ce022018f10957970e8eceb835c6666864d17c8220e0320a6cca7666ec6bb57170f54701210240402970e941b5400307b8f1ff340d1e1201df1027aeb7a49305d3291a75f7eaffffffff020000000000000000536a4c50000077fa00011ede7bec60b6a9f8268e2f66d19ed074892d00f8e87af8e8e963c7cfd5b9a3fe099cd607c60ff15a5b8727423a8b5baa191406142de11b147bab1d100759d4ba30d2c37bb011d97e02cf1faa0900000000001976a9146d3f04eb675537d02a7e8f4f95eb81136ddd9e1d88ac00000000", "vin": [{"sequence": 4294967295, "scriptSig": {"hex": "483045022100ae86be5c7d8c3bfe614789678fc428e6ffa1b547e9b3b511049d4a7d3135c6ce022018f10957970e8eceb835c6666864d17c8220e0320a6cca7666ec6bb57170f54701210240402970e941b5400307b8f1ff340d1e1201df1027aeb7a49305d3291a75f7ea", "asm": "3045022100ae86be5c7d8c3bfe614789678fc428e6ffa1b547e9b3b511049d4a7d3135c6ce022018f10957970e8eceb835c6666864d17c8220e0320a6cca7666ec6bb57170f547[ALL] 0240402970e941b5400307b8f1ff340d1e1201df1027aeb7a49305d3291a75f7ea"}, "vout": 1, "txid": "7e3cb6ad079173d8f66d6aefdbef44e6e86e5a782ed3455e01867a0a641578ed"}], "txid": "4aca6dc1077d905ac3ba9f9f349582dc7acc9ab29289dee7b847d87e31e32d82", "blocktime": 1537874412, "version": 1, "confirmations": 11467, "time": 1537874412, "locktime": 0, "vsize": 284, "size": 284}