{"hash": "63d03e86597046b80ef5b9427a4e8090d2aca6b85949ca1a3aa7804438acb2ed", "blockhash": "0000000000000000000dcc0f55137456b1a82d3642486a52398922ac4d620174", "vout": [{"scriptPubKey": {"reqSigs": 1, "hex": "0014f671b77cf1ef0f8cabeea1b5e7726ed24266fdf7", "addresses": ["bc1q7ecmwl83au8ce2lw5x67wunw6fpxdl0hzaa3hl"], "asm": "0 f671b77cf1ef0f8cabeea1b5e7726ed24266fdf7", "type": "witness_v0_keyhash"}, "value": 0.01027706, "n": 0}, {"scriptPubKey": {"reqSigs": 1, "hex": "76a914c49d0beedeb9477dce1865e365ad0b6e7128036088ac", "addresses": ["1JvbaPYqFx3t3WvVXoJ2BWvLtCnvJqHGbH"], "asm": "OP_DUP OP_HASH160 c49d0beedeb9477dce1865e365ad0b6e71280360 OP_EQUALVERIFY OP_CHECKSIG", "type": "pubkeyhash"}, "value": 0.1795588, "n": 1}], "hex": "01000000000101c3b03f91c680cfe14fbaa6ab3b32f8a624511b192bb53d8814bb8ee60ca0c5ea0100000000ffffffff027aae0f0000000000160014f671b77cf1ef0f8cabeea1b5e7726ed24266fdf728fc1101000000001976a914c49d0beedeb9477dce1865e365ad0b6e7128036088ac024730440220562cbcf30ab7023255d4038fa5ade797d0801e2c45a5ea379f409276b8b119a902205197f67f79b93b0d25b9b5655c1cf07c05b54aa9820eb307672075d2d582753301210319454c14f06f8d1b37bb09da3681838625d24450f3d272f7baded1ec8941d15800000000", "vin": [{"txinwitness": ["30440220562cbcf30ab7023255d4038fa5ade797d0801e2c45a5ea379f409276b8b119a902205197f67f79b93b0d25b9b5655c1cf07c05b54aa9820eb307672075d2d582753301", "0319454c14f06f8d1b37bb09da3681838625d24450f3d272f7baded1ec8941d158"], "sequence": 4294967295, "scriptSig": {"hex": "", "asm": ""}, "vout": 1, "txid": "eac5a00ce68ebb14883db52b191b5124a6f8323baba6ba4fe1cf80c6913fb0c3"}], "txid": "4ad2f2e7745b49fcfbe4de94b234081ee4b962d71fc3fcaa314730522bb6ee15", "blocktime": 1537870268, "version": 1, "confirmations": 11518, "time": 1537870268, "locktime": 0, "vsize": 144, "size": 225}