{"hash": "4ad4b4920d34fb7767c12095efe4b547475724c6397a6bb77322dd2b34731ddf", "blockhash": "0000000000000000001f76057863aec43deb6fa401d9628bb513d65a8098bfab", "vout": [{"scriptPubKey": {"reqSigs": 1, "hex": "a91452f40e958e2781c70c4cf27072e49a9a7b2b147487", "addresses": ["39FdheckLbtXdUmQT3DFmp7Nz9uCEwNFop"], "asm": "OP_HASH160 52f40e958e2781c70c4cf27072e49a9a7b2b1474 OP_EQUAL", "type": "scripthash"}, "value": 0.18031, "n": 0}], "hex": "01000000020f8e37145a65dcd1601c252d68d2d5a51d2343a786c9f7e3ef1537b47624d05b010000006a4730440220309063eefa30fc734ef17754a5b599bad15113823d4403d0876f9c607d1a28f702202920ad043b08c3706bcba7da2abfc63b371a8e4f1a2df6d76967a58e3a099b72012102fe4a3794e0476a6f166e15fe6ae0455f0567a63ac7ed252f216cb2b17074e5a5ffffffff9037e77ca294d946b86378fc164ed33c2d7232e70f38980fe00a1d9c6d9919b5000000006b483045022100d58196eb05b1964e593f4f4815183b6da47bbacc98ff493a454ba03bd821874d0220310e35a5190649abc8e8fc1d34ef799dbe72bb15e6711e21d0e6316241f32f28012103cf21cae5c305b4aeb125efc84c0c3e87ae7e8ba40fee110bf50e1af5ca720417ffffffff01982113010000000017a91452f40e958e2781c70c4cf27072e49a9a7b2b14748700000000", "vin": [{"sequence": 4294967295, "scriptSig": {"hex": "4730440220309063eefa30fc734ef17754a5b599bad15113823d4403d0876f9c607d1a28f702202920ad043b08c3706bcba7da2abfc63b371a8e4f1a2df6d76967a58e3a099b72012102fe4a3794e0476a6f166e15fe6ae0455f0567a63ac7ed252f216cb2b17074e5a5", "asm": "30440220309063eefa30fc734ef17754a5b599bad15113823d4403d0876f9c607d1a28f702202920ad043b08c3706bcba7da2abfc63b371a8e4f1a2df6d76967a58e3a099b72[ALL] 02fe4a3794e0476a6f166e15fe6ae0455f0567a63ac7ed252f216cb2b17074e5a5"}, "vout": 1, "txid": "5bd02476b43715efe3f7c986a743231da5d5d2682d251c60d1dc655a14378e0f"}, {"sequence": 4294967295, "scriptSig": {"hex": "483045022100d58196eb05b1964e593f4f4815183b6da47bbacc98ff493a454ba03bd821874d0220310e35a5190649abc8e8fc1d34ef799dbe72bb15e6711e21d0e6316241f32f28012103cf21cae5c305b4aeb125efc84c0c3e87ae7e8ba40fee110bf50e1af5ca720417", "asm": "3045022100d58196eb05b1964e593f4f4815183b6da47bbacc98ff493a454ba03bd821874d0220310e35a5190649abc8e8fc1d34ef799dbe72bb15e6711e21d0e6316241f32f28[ALL] 03cf21cae5c305b4aeb125efc84c0c3e87ae7e8ba40fee110bf50e1af5ca720417"}, "vout": 0, "txid": "b519996d9c1d0ae00f98380fe732722d3cd34e16fc7863b846d994a27ce73790"}], "txid": "4ad4b4920d34fb7767c12095efe4b547475724c6397a6bb77322dd2b34731ddf", "blocktime": 1537873891, "version": 1, "confirmations": 11478, "time": 1537873891, "locktime": 0, "vsize": 337, "size": 337}