{"hash": "4ad80a710615b2697c604d850620a332b7971f5c7517a8fc5e7b3f599fc03700", "blockhash": "00000000000000000004ffacab907a6b429b9a5745fa0b75af4234bf69dd7176", "vout": [{"scriptPubKey": {"reqSigs": 1, "hex": "a914b53bb39fc5e697196b27ee49b60a8bf524f88bbd87", "addresses": ["3JDHkQfkjxJPuAsQ8C1t2TVjfupy4fhmdU"], "asm": "OP_HASH160 b53bb39fc5e697196b27ee49b60a8bf524f88bbd OP_EQUAL", "type": "scripthash"}, "value": 0.3, "n": 0}, {"scriptPubKey": {"reqSigs": 1, "hex": "76a914549a63f3df9f60fba970a1effbec866aadb4620088ac", "addresses": ["18iLiMH1F5SyAmeDg3FS1J9ddmssk42L1S"], "asm": "OP_DUP OP_HASH160 549a63f3df9f60fba970a1effbec866aadb46200 OP_EQUALVERIFY OP_CHECKSIG", "type": "pubkeyhash"}, "value": 0.19998192, "n": 1}], "hex": "010000000176558ef0f0c722a9d8020566a684f9081b9c717f7cc52ecf73b20016c6583de1000000006a473044022038a79457e7ef86403a2fb7f7c64daa194ef3bbef88cdba2ef19588bdfd71abd30220596b6ff31337028263b2b391f1c3e41920d6539498c72fcb64d8878209560a79012102d21161120268fb7ba6f3a96aff024c11ea8c8fab3ae9b4c7ccfca1bfcbe6d479ffffffff0280c3c9010000000017a914b53bb39fc5e697196b27ee49b60a8bf524f88bbd87f0253101000000001976a914549a63f3df9f60fba970a1effbec866aadb4620088ac00000000", "vin": [{"sequence": 4294967295, "scriptSig": {"hex": "473044022038a79457e7ef86403a2fb7f7c64daa194ef3bbef88cdba2ef19588bdfd71abd30220596b6ff31337028263b2b391f1c3e41920d6539498c72fcb64d8878209560a79012102d21161120268fb7ba6f3a96aff024c11ea8c8fab3ae9b4c7ccfca1bfcbe6d479", "asm": "3044022038a79457e7ef86403a2fb7f7c64daa194ef3bbef88cdba2ef19588bdfd71abd30220596b6ff31337028263b2b391f1c3e41920d6539498c72fcb64d8878209560a79[ALL] 02d21161120268fb7ba6f3a96aff024c11ea8c8fab3ae9b4c7ccfca1bfcbe6d479"}, "vout": 0, "txid": "e13d58c61600b273cf2ec57c7f719c1b08f984a6660502d8a922c7f0f08e5576"}], "txid": "4ad80a710615b2697c604d850620a332b7971f5c7517a8fc5e7b3f599fc03700", "blocktime": 1537875543, "version": 1, "confirmations": 11464, "time": 1537875543, "locktime": 0, "vsize": 223, "size": 223}