{"hash": "dcedb4ae67be06375a9d057ba2e2ddf65bc7a15a166ab73a750ece5085919600", "blockhash": "0000000000000000001f76057863aec43deb6fa401d9628bb513d65a8098bfab", "vout": [{"scriptPubKey": {"reqSigs": 1, "hex": "a914f08bf540518878c2c0e18629929eba1385dc7e4487", "addresses": ["3Pcum34DfBFkrW2BnbGHVrvPKwr2HjQ7KH"], "asm": "OP_HASH160 f08bf540518878c2c0e18629929eba1385dc7e44 OP_EQUAL", "type": "scripthash"}, "value": 0.76749275, "n": 0}, {"scriptPubKey": {"reqSigs": 1, "hex": "a91473d7367fb72f235e8fd746f97d83a924a93feaea87", "addresses": ["3CFXSrhgtEh1KxB9KHfFqJsHjocCxzV7Vq"], "asm": "OP_HASH160 73d7367fb72f235e8fd746f97d83a924a93feaea OP_EQUAL", "type": "scripthash"}, "value": 1.25, "n": 1}], "hex": "02000000000101d9e28365538dd1d11ae80a5e14500b820a27b387dec748d5ad62a559f8e0c63c000000001716001425584b2ef8186e3f4b6e37f8c67eb386f092bfd9feffffff02db1993040000000017a914f08bf540518878c2c0e18629929eba1385dc7e4487405973070000000017a91473d7367fb72f235e8fd746f97d83a924a93feaea8702473044022046cfaa627ff7cd6082d2ce400e2bfdef4aa00c3ace922fff9249be69b93fae0b0220384bd2795f8d9d7248e7f45c93ced520364fb18e5352daa73b4fff9baa3e8fba0121034fafe995ede6f66882c68b12578e15c0f6511760ca61d752e951edcd9f36bbd7d8480800", "vin": [{"txinwitness": ["3044022046cfaa627ff7cd6082d2ce400e2bfdef4aa00c3ace922fff9249be69b93fae0b0220384bd2795f8d9d7248e7f45c93ced520364fb18e5352daa73b4fff9baa3e8fba01", "034fafe995ede6f66882c68b12578e15c0f6511760ca61d752e951edcd9f36bbd7"], "sequence": 4294967294, "scriptSig": {"hex": "16001425584b2ef8186e3f4b6e37f8c67eb386f092bfd9", "asm": "001425584b2ef8186e3f4b6e37f8c67eb386f092bfd9"}, "vout": 0, "txid": "3cc6e0f859a562add548c7de87b3270a820b50145e0ae81ad1d18d536583e2d9"}], "txid": "4ad90af501ddac97e6398f96ee0023789c7389297ec6d6b94fcb66081e7c3bf2", "blocktime": 1537873891, "version": 2, "confirmations": 11478, "time": 1537873891, "locktime": 542936, "vsize": 166, "size": 247}