{"hash": "4adfc33f07d08cd7e1ac78d61601fa77af0ded051e4ed3325a3f5acfafa5d00b", "blockhash": "0000000000000000000e13cef7c366c0283d82e591d1acd082e914b08063cdf1", "vout": [{"scriptPubKey": {"reqSigs": 1, "hex": "a9141214bb59ea72ea728dcca7d56bd2e1a50e44dc5387", "addresses": ["33LcvUEB8xaaAuK5sGkrLRJxwiRmU982dn"], "asm": "OP_HASH160 1214bb59ea72ea728dcca7d56bd2e1a50e44dc53 OP_EQUAL", "type": "scripthash"}, "value": 3.86e-05, "n": 0}, {"scriptPubKey": {"reqSigs": 1, "hex": "76a9145ca1c70844409a56d50485446d70f385cf7453c288ac", "addresses": ["19Sny9MdvbrZc4MaLdqBKvmB35GWvrHpVF"], "asm": "OP_DUP OP_HASH160 5ca1c70844409a56d50485446d70f385cf7453c2 OP_EQUALVERIFY OP_CHECKSIG", "type": "pubkeyhash"}, "value": 0.03289574, "n": 1}], "hex": "0100000001bb8f22404049caed9404bca4f57695622f9c43f025d4ad320d88f41e35e82927010000006b483045022100dab4fc967fbf1cf93e9b962147691b5aef10e5c1a534dd845eeec2492545cee902201b5985e9439feff75d1fdd48b4343030dd42789f9279b0701b70d708eaaf83b7012102e33ad897e7ec9e3cc40859565e1d4b2c6e2b4ac2f898a351fbae4d1e0bead42affffffff02140f00000000000017a9141214bb59ea72ea728dcca7d56bd2e1a50e44dc5387e6313200000000001976a9145ca1c70844409a56d50485446d70f385cf7453c288ac00000000", "vin": [{"sequence": 4294967295, "scriptSig": {"hex": "483045022100dab4fc967fbf1cf93e9b962147691b5aef10e5c1a534dd845eeec2492545cee902201b5985e9439feff75d1fdd48b4343030dd42789f9279b0701b70d708eaaf83b7012102e33ad897e7ec9e3cc40859565e1d4b2c6e2b4ac2f898a351fbae4d1e0bead42a", "asm": "3045022100dab4fc967fbf1cf93e9b962147691b5aef10e5c1a534dd845eeec2492545cee902201b5985e9439feff75d1fdd48b4343030dd42789f9279b0701b70d708eaaf83b7[ALL] 02e33ad897e7ec9e3cc40859565e1d4b2c6e2b4ac2f898a351fbae4d1e0bead42a"}, "vout": 1, "txid": "2729e8351ef4880d32add425f0439c2f629576f5a4bc0494edca494040228fbb"}], "txid": "4adfc33f07d08cd7e1ac78d61601fa77af0ded051e4ed3325a3f5acfafa5d00b", "blocktime": 1537871767, "version": 1, "confirmations": 11495, "time": 1537871767, "locktime": 0, "vsize": 224, "size": 224}