{"hash": "f9a893f2bfbaf9922f16684ac8f68f4886f0cb13724e18142bdb12151b3466be", "blockhash": "0000000000000000000e13cef7c366c0283d82e591d1acd082e914b08063cdf1", "vout": [{"scriptPubKey": {"reqSigs": 1, "hex": "76a914088a048ecb9f6e0bd87241ce5e2af6f7f7ea6d9d88ac", "addresses": ["1n9kBRmGfh3wtWprNaheanNiizqb3Rtbj"], "asm": "OP_DUP OP_HASH160 088a048ecb9f6e0bd87241ce5e2af6f7f7ea6d9d OP_EQUALVERIFY OP_CHECKSIG", "type": "pubkeyhash"}, "value": 0.6250127, "n": 0}, {"scriptPubKey": {"reqSigs": 1, "hex": "a91431743b1cf7159a94c0d3351056b9a7192436ff9587", "addresses": ["36CWGoriuDY9jCuPvQ1aizwokiUNoZNafi"], "asm": "OP_HASH160 31743b1cf7159a94c0d3351056b9a7192436ff95 OP_EQUAL", "type": "scripthash"}, "value": 72.95423856, "n": 1}], "hex": "02000000000101acda4dada29208ac9f00cbc4adf6c623026e76dec4bdbcbd34f0331b3ec020880000000017160014db51eed4fe3cec164b8cc8186196fb389316890dfeffffff0296b1b903000000001976a914088a048ecb9f6e0bd87241ce5e2af6f7f7ea6d9d88ac7055d7b20100000017a91431743b1cf7159a94c0d3351056b9a7192436ff9587024730440220788c01f91dbe7d7b7a623a87d7674a68b67839d93edb58904c2ca363e29c8a3802201b058140a7662539c9163afcdaff3c8be4dfe777387c8095aa8c24e0d3ac42b501210321dabd9684f78338ac95de292c375a4ded342d52a407c367c88a23d66fc0c92f10490800", "vin": [{"txinwitness": ["30440220788c01f91dbe7d7b7a623a87d7674a68b67839d93edb58904c2ca363e29c8a3802201b058140a7662539c9163afcdaff3c8be4dfe777387c8095aa8c24e0d3ac42b501", "0321dabd9684f78338ac95de292c375a4ded342d52a407c367c88a23d66fc0c92f"], "sequence": 4294967294, "scriptSig": {"hex": "160014db51eed4fe3cec164b8cc8186196fb389316890d", "asm": "0014db51eed4fe3cec164b8cc8186196fb389316890d"}, "vout": 0, "txid": "8820c03e1b33f034bdbcbdc4de766e0223c6f6adc4cb009fac0892a2ad4ddaac"}], "txid": "4ae7b8955efac98cecbbc7074b2f2e7404d5c8e9f86ab1e2a4beef0085855287", "blocktime": 1537871767, "version": 2, "confirmations": 11490, "time": 1537871767, "locktime": 542992, "vsize": 168, "size": 249}