{"hash": "4aeaa6648b9ed7819f38e44bc4fba8d9eddd766e2d0d4b7e4d6459e600fbcf30", "blockhash": "00000000000000000017f5eb5941039fbcee6240d03bc1f2f8e35350df66a1d8", "vout": [{"scriptPubKey": {"reqSigs": 1, "hex": "a914ac92aac2eba16404c1f34e431894a185f44bba8787", "addresses": ["3HRVr9F9SEg5x1AaoxEZkUu5HqG2hhLxaS"], "asm": "OP_HASH160 ac92aac2eba16404c1f34e431894a185f44bba87 OP_EQUAL", "type": "scripthash"}, "value": 0.62181812, "n": 0}], "hex": "0100000005aca4a8471662cee25c5ed429c238c8a4d2ac97c3bca3a9d917181517dcf3f31d000000006b48304502210086ca032e40124a1d6204be8cbf931dfa4d17d7eb7bc9b3b6a40563de1dff070602202ec9ff0238e9aa823dac986cf662e518f265c15adb527765149b8a8351add636012103097cacea06745d2f0cd36edece37081ea907c353a7872c8463316b102998fe88fdfffffffeaa36fb4d006d2e244de74586702620a2cfcaf5545a8b5e6f41b1f815550324000000006b4830450221009e0e2b1ff94eb616e589647fd9a9cca23e9f2c5509b5634af92a014a6b52fa6e0220682c4e27b71dbe690153db654fe501516a4c6b3be4026f3f3a1299e26fd37d89012103097cacea06745d2f0cd36edece37081ea907c353a7872c8463316b102998fe88fdffffffa17bf3a239969b5f7621b3248412e5652ca087704d5227dd03abad00f20ef892000000006a47304402205a9fda06279016066f54524f4420de9b08f286119b8a4795ba9adc217951e3f002205d1f3a240cb957ced024f46f72d1941696b3a6a04b561c20488ebaf3a5455b86012103097cacea06745d2f0cd36edece37081ea907c353a7872c8463316b102998fe88fdffffff4c39bdd6a4a4aeb488138d3ef35461e3cc46cc59d2a5e1bdb4a152e34ca8bfda010000006a473044022032027841c15e91e799afb951e25e1ce8fb7f8794a65e15cd3775611ae8133ba80220088a66f27b943b1aae0a1ff55c114732e207d8cefcb7dca481eeec783f059de4012103097cacea06745d2f0cd36edece37081ea907c353a7872c8463316b102998fe88fdffffffc666d1027d265173435cd1bcb1ad4f524c49e605028d3bfb9a9a24caa93708e55c0000006b4830450221009d89e83465ed606123bac572bb7a061c4b15fbeee1762d05817a0565acf621fc02207a987705713c7f95bcdb7c8043eae79c0b064f8b3ba82f3d78af6b6c6ab5c6f6012103097cacea06745d2f0cd36edece37081ea907c353a7872c8463316b102998fe88fdffffff01b4d1b4030000000017a914ac92aac2eba16404c1f34e431894a185f44bba878714490800", "vin": [{"sequence": 4294967293, "scriptSig": {"hex": "48304502210086ca032e40124a1d6204be8cbf931dfa4d17d7eb7bc9b3b6a40563de1dff070602202ec9ff0238e9aa823dac986cf662e518f265c15adb527765149b8a8351add636012103097cacea06745d2f0cd36edece37081ea907c353a7872c8463316b102998fe88", "asm": "304502210086ca032e40124a1d6204be8cbf931dfa4d17d7eb7bc9b3b6a40563de1dff070602202ec9ff0238e9aa823dac986cf662e518f265c15adb527765149b8a8351add636[ALL] 03097cacea06745d2f0cd36edece37081ea907c353a7872c8463316b102998fe88"}, "vout": 0, "txid": "1df3f3dc17151817d9a9a3bcc397acd2a4c838c229d45e5ce2ce621647a8a4ac"}, {"sequence": 4294967293, "scriptSig": {"hex": "4830450221009e0e2b1ff94eb616e589647fd9a9cca23e9f2c5509b5634af92a014a6b52fa6e0220682c4e27b71dbe690153db654fe501516a4c6b3be4026f3f3a1299e26fd37d89012103097cacea06745d2f0cd36edece37081ea907c353a7872c8463316b102998fe88", "asm": "30450221009e0e2b1ff94eb616e589647fd9a9cca23e9f2c5509b5634af92a014a6b52fa6e0220682c4e27b71dbe690153db654fe501516a4c6b3be4026f3f3a1299e26fd37d89[ALL] 03097cacea06745d2f0cd36edece37081ea907c353a7872c8463316b102998fe88"}, "vout": 0, "txid": "24035515f8b1416f5e8b5a54f5cacfa22026708645e74d242e6d004dfb36aafe"}, {"sequence": 4294967293, "scriptSig": {"hex": "47304402205a9fda06279016066f54524f4420de9b08f286119b8a4795ba9adc217951e3f002205d1f3a240cb957ced024f46f72d1941696b3a6a04b561c20488ebaf3a5455b86012103097cacea06745d2f0cd36edece37081ea907c353a7872c8463316b102998fe88", "asm": "304402205a9fda06279016066f54524f4420de9b08f286119b8a4795ba9adc217951e3f002205d1f3a240cb957ced024f46f72d1941696b3a6a04b561c20488ebaf3a5455b86[ALL] 03097cacea06745d2f0cd36edece37081ea907c353a7872c8463316b102998fe88"}, "vout": 0, "txid": "92f80ef200adab03dd27524d7087a02c65e5128424b321765f9b9639a2f37ba1"}, {"sequence": 4294967293, "scriptSig": {"hex": "473044022032027841c15e91e799afb951e25e1ce8fb7f8794a65e15cd3775611ae8133ba80220088a66f27b943b1aae0a1ff55c114732e207d8cefcb7dca481eeec783f059de4012103097cacea06745d2f0cd36edece37081ea907c353a7872c8463316b102998fe88", "asm": "3044022032027841c15e91e799afb951e25e1ce8fb7f8794a65e15cd3775611ae8133ba80220088a66f27b943b1aae0a1ff55c114732e207d8cefcb7dca481eeec783f059de4[ALL] 03097cacea06745d2f0cd36edece37081ea907c353a7872c8463316b102998fe88"}, "vout": 1, "txid": "dabfa84ce352a1b4bde1a5d259cc46cce36154f33e8d1388b4aea4a4d6bd394c"}, {"sequence": 4294967293, "scriptSig": {"hex": "4830450221009d89e83465ed606123bac572bb7a061c4b15fbeee1762d05817a0565acf621fc02207a987705713c7f95bcdb7c8043eae79c0b064f8b3ba82f3d78af6b6c6ab5c6f6012103097cacea06745d2f0cd36edece37081ea907c353a7872c8463316b102998fe88", "asm": "30450221009d89e83465ed606123bac572bb7a061c4b15fbeee1762d05817a0565acf621fc02207a987705713c7f95bcdb7c8043eae79c0b064f8b3ba82f3d78af6b6c6ab5c6f6[ALL] 03097cacea06745d2f0cd36edece37081ea907c353a7872c8463316b102998fe88"}, "vout": 92, "txid": "e50837a9ca249a9afb3b8d0205e6494c524fadb1bcd15c437351267d02d166c6"}], "txid": "4aeaa6648b9ed7819f38e44bc4fba8d9eddd766e2d0d4b7e4d6459e600fbcf30", "blocktime": 1537874412, "version": 1, "confirmations": 11467, "time": 1537874412, "locktime": 542996, "vsize": 780, "size": 780}