{"hash": "4aef0e08da4fd6cbb3f9b20fb9eaab758ed0e623e945bed01402959a89b6b474", "blockhash": "0000000000000000000baef3f32e3676a92c3b2e5da21b426e4f302fc371ce76", "vout": [{"scriptPubKey": {"reqSigs": 1, "hex": "76a91456868bd872077d7e332590d48930b3d90389b4c588ac", "addresses": ["18tWHwJXgUdUWyoyaLa4BacUU3z9RtNgQ6"], "asm": "OP_DUP OP_HASH160 56868bd872077d7e332590d48930b3d90389b4c5 OP_EQUALVERIFY OP_CHECKSIG", "type": "pubkeyhash"}, "value": 0.00630115, "n": 0}, {"scriptPubKey": {"type": "nulldata", "hex": "6a4c500000783500013bc97412f834aee962e8564f27b7256b4774d339f6019d6ddc0f1b8ff11788667ed6834b1ca9f5f6e90a8b6dfa855baa202a06158e6013eaa6ce1d100759d4ba30d2c37bb011d97e02cf", "asm": "OP_RETURN 0000783500013bc97412f834aee962e8564f27b7256b4774d339f6019d6ddc0f1b8ff11788667ed6834b1ca9f5f6e90a8b6dfa855baa202a06158e6013eaa6ce1d100759d4ba30d2c37bb011d97e02cf"}, "value": 0.0, "n": 1}], "hex": "0100000001796bacb6d78d00a3c2917568d362f7cc5c25464f34b9facfe59d9d48e8251fec010000006a47304402201d0c4b47be1be6fc76a478f43cf591bc8aa94e2c228508edc64759e763fdf4b00220481ab593c6347b8fd5cce8a9ce5f8f07543296096eae62bee2451b6fbf8f9bd6012102f841d643cac1844dd7abb6b25c0d9153582f858df8b05e59b348296aa6324fdfffffffff02639d0900000000001976a91456868bd872077d7e332590d48930b3d90389b4c588ac0000000000000000536a4c500000783500013bc97412f834aee962e8564f27b7256b4774d339f6019d6ddc0f1b8ff11788667ed6834b1ca9f5f6e90a8b6dfa855baa202a06158e6013eaa6ce1d100759d4ba30d2c37bb011d97e02cf00000000", "vin": [{"sequence": 4294967295, "scriptSig": {"hex": "47304402201d0c4b47be1be6fc76a478f43cf591bc8aa94e2c228508edc64759e763fdf4b00220481ab593c6347b8fd5cce8a9ce5f8f07543296096eae62bee2451b6fbf8f9bd6012102f841d643cac1844dd7abb6b25c0d9153582f858df8b05e59b348296aa6324fdf", "asm": "304402201d0c4b47be1be6fc76a478f43cf591bc8aa94e2c228508edc64759e763fdf4b00220481ab593c6347b8fd5cce8a9ce5f8f07543296096eae62bee2451b6fbf8f9bd6[ALL] 02f841d643cac1844dd7abb6b25c0d9153582f858df8b05e59b348296aa6324fdf"}, "vout": 1, "txid": "ec1f25e8489d9de5cffab9344f46255cccf762d3687591c2a3008dd7b6ac6b79"}], "txid": "4aef0e08da4fd6cbb3f9b20fb9eaab758ed0e623e945bed01402959a89b6b474", "blocktime": 1537876114, "version": 1, "confirmations": 11460, "time": 1537876114, "locktime": 0, "vsize": 283, "size": 283}