{"hash": "6e5f3cddf0060fee51b71b912738e1daa90c81bdc9b06a23f87c2181d30c0f3e", "blockhash": "0000000000000000000dcc0f55137456b1a82d3642486a52398922ac4d620174", "vout": [{"scriptPubKey": {"reqSigs": 1, "hex": "76a914f64fce24ddd52c755e9e72beb9de825c685cb6e988ac", "addresses": ["1PTNqA4gKB9swDCgvN1eFz7T7beHx8wTYb"], "asm": "OP_DUP OP_HASH160 f64fce24ddd52c755e9e72beb9de825c685cb6e9 OP_EQUALVERIFY OP_CHECKSIG", "type": "pubkeyhash"}, "value": 0.00637, "n": 0}, {"scriptPubKey": {"reqSigs": 1, "hex": "a9143ec09ee9a01a0bb68eaa8d4f52842e133aaa6b4587", "addresses": ["37QpZxjYwpAQH6YggNLoUF5PH8BCWVhXHq"], "asm": "OP_HASH160 3ec09ee9a01a0bb68eaa8d4f52842e133aaa6b45 OP_EQUAL", "type": "scripthash"}, "value": 0.00999784, "n": 1}], "hex": "02000000000101e9ca53040e99686fa8cb281e5ff75143313afe0dae3d67525f35f92cbe7c9f190600000017160014b0dbc59823e49a1480e8bbb4d981ef0d3b3b55d3feffffff0248b80900000000001976a914f64fce24ddd52c755e9e72beb9de825c685cb6e988ac68410f000000000017a9143ec09ee9a01a0bb68eaa8d4f52842e133aaa6b458702483045022100ca8401d4c927035da6b7ab445361285996db17100f95f76ee7d9bf0bb4b99062022050e986c116f44ffba7af0542b9f20b8b091133681af71ebb42d8a0042e8b67ad0121029a27b5f08a8dd432c99579d61684aa9194c7f2e5867dc09f87b52a4f16af692d0c490800", "vin": [{"txinwitness": ["3045022100ca8401d4c927035da6b7ab445361285996db17100f95f76ee7d9bf0bb4b99062022050e986c116f44ffba7af0542b9f20b8b091133681af71ebb42d8a0042e8b67ad01", "029a27b5f08a8dd432c99579d61684aa9194c7f2e5867dc09f87b52a4f16af692d"], "sequence": 4294967294, "scriptSig": {"hex": "160014b0dbc59823e49a1480e8bbb4d981ef0d3b3b55d3", "asm": "0014b0dbc59823e49a1480e8bbb4d981ef0d3b3b55d3"}, "vout": 6, "txid": "199f7cbe2cf9355f52673dae0dfe3a314351f75f1e28cba86f68990e0453cae9"}], "txid": "4af0b0793dbf1280cc62b6fe1fe7172201031ad2813152325c16004d2faed4f2", "blocktime": 1537870268, "version": 2, "confirmations": 11516, "time": 1537870268, "locktime": 542988, "vsize": 168, "size": 250}