{"hash": "4afbb52dd128998df2e9cac5f6bb1197da1b2341a5c81c4d7361ddad35b412a5", "blockhash": "00000000000000000017f5eb5941039fbcee6240d03bc1f2f8e35350df66a1d8", "vout": [{"scriptPubKey": {"reqSigs": 1, "hex": "76a914d243e6abb9a60fbff430b421d2df4b7d59ec186088ac", "addresses": ["1LAnF8h3qMGx3TSwNUHVneBZUEpwE4gu3D"], "asm": "OP_DUP OP_HASH160 d243e6abb9a60fbff430b421d2df4b7d59ec1860 OP_EQUALVERIFY OP_CHECKSIG", "type": "pubkeyhash"}, "value": 0.00076972, "n": 0}, {"scriptPubKey": {"reqSigs": 1, "hex": "76a9143851f34d13937b673a7d24a1950bb5b21ce94af388ac", "addresses": ["168o1kqNquEJeR9vosUB5fw4eAwcVAgh8P"], "asm": "OP_DUP OP_HASH160 3851f34d13937b673a7d24a1950bb5b21ce94af3 OP_EQUALVERIFY OP_CHECKSIG", "type": "pubkeyhash"}, "value": 5.46e-06, "n": 1}, {"scriptPubKey": {"type": "nulldata", "hex": "6a146f6d6e69000000000000001f000012309ce54000", "asm": "OP_RETURN 6f6d6e69000000000000001f000012309ce54000"}, "value": 0.0, "n": 2}], "hex": "01000000025781ac168a9c50182f07e0e847fb09c067e453fecc4b51a1802042d57595e5fd000000006b483045022100d86d5c00f64829ff7877e61e92a206b638272ccde2ce6dfefdd6797c72ce0497022050489cdf2fa1685d3d8da642ad6d4efbbda466b32c092ad15927c39bc79e9ae50121020be372f8633b4ecff7c1a0022257abdabf52bf0d74c7f20d276be4406998f55fffffffff34c8c900afe09c56d64e0ae011e235571583f04a035ee45fd874fc6487d96281000000006b483045022100cce67da332ad6f9e26b9fffacff09e364ace803538047fe1cac393fd34e1cbb202202d5c55279a334ee3db1ed548c814cf4fc0ef5e8d65cc5217c0dd36e0d24325a701210271977291b74f1f5f5c42157e8aae804664eaaeccfd097918450d37f28fb94d77ffffffff03ac2c0100000000001976a914d243e6abb9a60fbff430b421d2df4b7d59ec186088ac22020000000000001976a9143851f34d13937b673a7d24a1950bb5b21ce94af388ac0000000000000000166a146f6d6e69000000000000001f000012309ce5400000000000", "vin": [{"sequence": 4294967295, "scriptSig": {"hex": "483045022100d86d5c00f64829ff7877e61e92a206b638272ccde2ce6dfefdd6797c72ce0497022050489cdf2fa1685d3d8da642ad6d4efbbda466b32c092ad15927c39bc79e9ae50121020be372f8633b4ecff7c1a0022257abdabf52bf0d74c7f20d276be4406998f55f", "asm": "3045022100d86d5c00f64829ff7877e61e92a206b638272ccde2ce6dfefdd6797c72ce0497022050489cdf2fa1685d3d8da642ad6d4efbbda466b32c092ad15927c39bc79e9ae5[ALL] 020be372f8633b4ecff7c1a0022257abdabf52bf0d74c7f20d276be4406998f55f"}, "vout": 0, "txid": "fde59575d5422080a1514bccfe53e467c009fb47e8e0072f18509c8a16ac8157"}, {"sequence": 4294967295, "scriptSig": {"hex": "483045022100cce67da332ad6f9e26b9fffacff09e364ace803538047fe1cac393fd34e1cbb202202d5c55279a334ee3db1ed548c814cf4fc0ef5e8d65cc5217c0dd36e0d24325a701210271977291b74f1f5f5c42157e8aae804664eaaeccfd097918450d37f28fb94d77", "asm": "3045022100cce67da332ad6f9e26b9fffacff09e364ace803538047fe1cac393fd34e1cbb202202d5c55279a334ee3db1ed548c814cf4fc0ef5e8d65cc5217c0dd36e0d24325a7[ALL] 0271977291b74f1f5f5c42157e8aae804664eaaeccfd097918450d37f28fb94d77"}, "vout": 0, "txid": "8162d98764fc74d85fe45e034af083155735e211e00a4ed6569ce0af00c9c834"}], "txid": "4afbb52dd128998df2e9cac5f6bb1197da1b2341a5c81c4d7361ddad35b412a5", "blocktime": 1537874412, "version": 1, "confirmations": 11467, "time": 1537874412, "locktime": 0, "vsize": 405, "size": 405}