{"hash": "4afc4ba93179680c4f6e779f0d64a7b373aa12841306c188c844b070e84a3b51", "blockhash": "0000000000000000000dcc0f55137456b1a82d3642486a52398922ac4d620174", "vout": [{"scriptPubKey": {"reqSigs": 1, "hex": "76a914042578fe0dfb0766e6b46e3be61d4b624a03dd9f88ac", "addresses": ["1NvbQqopSjxH3qPvzGHeLirQ7u4wua3E2"], "asm": "OP_DUP OP_HASH160 042578fe0dfb0766e6b46e3be61d4b624a03dd9f OP_EQUALVERIFY OP_CHECKSIG", "type": "pubkeyhash"}, "value": 0.03510601, "n": 0}], "hex": "01000000056f9debee117b81fb311016152e59b800222c3751be89f0ddfea4841306299f52740000006b483045022100e7e3d05f1416ebf300cb6716794e1cc120df296b68ccbfaf344baab168d83b8f02203660fdaf22678178d2178e620734528809036cb7c46fb76fa1dc6f48ceb051d1012103bc74c2286f29c36de927bd5bbd88af353f3ea8555252d770ae4a28bb55a15cffffffffff1e0bcca6665881c34ce2253ed2f1aa528a0ded0d714892280c7574ec85f0b269010000006b483045022100c03ae2d112256bc6652531c86bb21403e89cf08bafeafbcdad4ba1ad0378f73002201e79d55a9c7ddc4ece889a2544b2973a14fd994f2b2ebedffcc7f4e4c644e9680121024e3a950b6c4936e4f89b32b207b1021a38f1047f78e5ecd5f01dd3a46fa69c25ffffffff05ea7167eb90a6146aed83c0143eeab06c3ac30ae97bdf44cfee118ec572056e000000006b483045022100ae4d46100962c8c06e670a15c5dbc37f2d9229a213970a8fe022e18d42d54b56022002c21ddfb376db3d9c73be56ad9811b5af22c55568f5583a9683d26881906f700121027cfa3e9f4fd386e41b567ed251d5814ac54b988876cebc60b56499601d5a56efffffffff5498bb1036ef1b45c6cd67779530f3a1df90282a5d9c8b79286c4060c841a9a81c0000006a4730440220663bdf5d264e8d137522f21a8b31221978d58a6a5953271ffe2af3b1f1f2d9890220586b765f77df17a6bf4650f76da79d77d1121448cd71c7428c62bd8553d5b7dd01210227ec5ab7101b347830920c6f142352d88846b21854823e10dd5af70403a968b0ffffffffb3af969a147d8ddfe9bb3290f16009d27db9c2d3033c07e98d2ece74e07ad1ed000000006a47304402200486ffd39439eae7ebab1be6087d008e1685aae81ddf2327144e8132fb3dc3c4022036b055af375e9e30791b79c3521ab6a336c146a9ecf40a8b4af1dd23e743bc3f012103f6cef838ce90a17a79cc0151fc61273ed59dfd88be0751027210b48628ed1a21ffffffff0149913500000000001976a914042578fe0dfb0766e6b46e3be61d4b624a03dd9f88ac00000000", "vin": [{"sequence": 4294967295, "scriptSig": {"hex": "483045022100e7e3d05f1416ebf300cb6716794e1cc120df296b68ccbfaf344baab168d83b8f02203660fdaf22678178d2178e620734528809036cb7c46fb76fa1dc6f48ceb051d1012103bc74c2286f29c36de927bd5bbd88af353f3ea8555252d770ae4a28bb55a15cff", "asm": "3045022100e7e3d05f1416ebf300cb6716794e1cc120df296b68ccbfaf344baab168d83b8f02203660fdaf22678178d2178e620734528809036cb7c46fb76fa1dc6f48ceb051d1[ALL] 03bc74c2286f29c36de927bd5bbd88af353f3ea8555252d770ae4a28bb55a15cff"}, "vout": 116, "txid": "529f29061384a4feddf089be51372c2200b8592e15161031fb817b11eeeb9d6f"}, {"sequence": 4294967295, "scriptSig": {"hex": "483045022100c03ae2d112256bc6652531c86bb21403e89cf08bafeafbcdad4ba1ad0378f73002201e79d55a9c7ddc4ece889a2544b2973a14fd994f2b2ebedffcc7f4e4c644e9680121024e3a950b6c4936e4f89b32b207b1021a38f1047f78e5ecd5f01dd3a46fa69c25", "asm": "3045022100c03ae2d112256bc6652531c86bb21403e89cf08bafeafbcdad4ba1ad0378f73002201e79d55a9c7ddc4ece889a2544b2973a14fd994f2b2ebedffcc7f4e4c644e968[ALL] 024e3a950b6c4936e4f89b32b207b1021a38f1047f78e5ecd5f01dd3a46fa69c25"}, "vout": 1, "txid": "69b2f085ec74750c289248710ded0d8a52aaf1d23e25e24cc3815866a6cc0b1e"}, {"sequence": 4294967295, "scriptSig": {"hex": "483045022100ae4d46100962c8c06e670a15c5dbc37f2d9229a213970a8fe022e18d42d54b56022002c21ddfb376db3d9c73be56ad9811b5af22c55568f5583a9683d26881906f700121027cfa3e9f4fd386e41b567ed251d5814ac54b988876cebc60b56499601d5a56ef", "asm": "3045022100ae4d46100962c8c06e670a15c5dbc37f2d9229a213970a8fe022e18d42d54b56022002c21ddfb376db3d9c73be56ad9811b5af22c55568f5583a9683d26881906f70[ALL] 027cfa3e9f4fd386e41b567ed251d5814ac54b988876cebc60b56499601d5a56ef"}, "vout": 0, "txid": "6e0572c58e11eecf44df7be90ac33a6cb0ea3e14c083ed6a14a690eb6771ea05"}, {"sequence": 4294967295, "scriptSig": {"hex": "4730440220663bdf5d264e8d137522f21a8b31221978d58a6a5953271ffe2af3b1f1f2d9890220586b765f77df17a6bf4650f76da79d77d1121448cd71c7428c62bd8553d5b7dd01210227ec5ab7101b347830920c6f142352d88846b21854823e10dd5af70403a968b0", "asm": "30440220663bdf5d264e8d137522f21a8b31221978d58a6a5953271ffe2af3b1f1f2d9890220586b765f77df17a6bf4650f76da79d77d1121448cd71c7428c62bd8553d5b7dd[ALL] 0227ec5ab7101b347830920c6f142352d88846b21854823e10dd5af70403a968b0"}, "vout": 28, "txid": "a8a941c860406c28798b9c5d2a2890dfa1f330957767cdc6451bef3610bb9854"}, {"sequence": 4294967295, "scriptSig": {"hex": "47304402200486ffd39439eae7ebab1be6087d008e1685aae81ddf2327144e8132fb3dc3c4022036b055af375e9e30791b79c3521ab6a336c146a9ecf40a8b4af1dd23e743bc3f012103f6cef838ce90a17a79cc0151fc61273ed59dfd88be0751027210b48628ed1a21", "asm": "304402200486ffd39439eae7ebab1be6087d008e1685aae81ddf2327144e8132fb3dc3c4022036b055af375e9e30791b79c3521ab6a336c146a9ecf40a8b4af1dd23e743bc3f[ALL] 03f6cef838ce90a17a79cc0151fc61273ed59dfd88be0751027210b48628ed1a21"}, "vout": 0, "txid": "edd17ae074ce2e8de9073c03d3c2b97dd20960f19032bbe9df8d7d149a96afb3"}], "txid": "4afc4ba93179680c4f6e779f0d64a7b373aa12841306c188c844b070e84a3b51", "blocktime": 1537870268, "version": 1, "confirmations": 11518, "time": 1537870268, "locktime": 0, "vsize": 782, "size": 782}