{"hash": "4ba14f073d17ee5f630111a7562223c99d26d1863f82385613580bfa59ca9191", "blockhash": "000000000000000000022b45ed06c6f4ccd3cf7fb5ba4856ebd2e58215665228", "vout": [{"scriptPubKey": {"reqSigs": 1, "hex": "a914a4c850bc329d1df45489f4adf37d86258f01eeb987", "addresses": ["3GiJiAEPJqU8Ku6hx6BxgvSfJ7obNiyico"], "asm": "OP_HASH160 a4c850bc329d1df45489f4adf37d86258f01eeb9 OP_EQUAL", "type": "scripthash"}, "value": 0.0100067, "n": 0}, {"scriptPubKey": {"reqSigs": 1, "hex": "76a9142e1b944fe7ffbe969fc1df8d662fd7b5d6303c9b88ac", "addresses": ["15Co856cRnFRCKwSSzECoyT3ozVhuFoJZ6"], "asm": "OP_DUP OP_HASH160 2e1b944fe7ffbe969fc1df8d662fd7b5d6303c9b OP_EQUALVERIFY OP_CHECKSIG", "type": "pubkeyhash"}, "value": 0.0025576, "n": 1}], "hex": "02000000000102021e1791ae04e75a637b9c9bfc4d093e8cf55adbfb56a2b351e8b46f10cec0a2040000001716001430a8b4c7651bba19fe406993de87a84b4fcdd7adfeffffffa244aa01e6f0c9c13e50d5d3cd167201b813802a5ea8b6f82ebf847f4a98132f01000000171600149b720e11fbb2b9db44597a722ba29a5e2042012cfeffffff02de440f000000000017a914a4c850bc329d1df45489f4adf37d86258f01eeb98710e70300000000001976a9142e1b944fe7ffbe969fc1df8d662fd7b5d6303c9b88ac024730440220200939ee9d41b317bdbff93f73f02ce94471abe7913bd70d6eec41aabddfbdce022079fe46367a9ae774150c3f71e1e40c94e95d839b157479f86a68a8cc728a41d30121036c47a4a092f47a9f4773f05ef6246fbc7f3d6bde20954951567b201cb4f6417502473044022014d96506b26951bf3ce3cd478f58443cd221fcf6fbb2a53c2dfbdc3ddaafe4e40220105f019c307e42a441c52ece7af30e23caefe5e34a02c9648cce782d8d32c4fa012103d78ab852a12d8e7694a9f3f103e3bbeece9c48b45b79ff6f6d78bd774496e8db0b490800", "vin": [{"txinwitness": ["30440220200939ee9d41b317bdbff93f73f02ce94471abe7913bd70d6eec41aabddfbdce022079fe46367a9ae774150c3f71e1e40c94e95d839b157479f86a68a8cc728a41d301", "036c47a4a092f47a9f4773f05ef6246fbc7f3d6bde20954951567b201cb4f64175"], "sequence": 4294967294, "scriptSig": {"hex": "16001430a8b4c7651bba19fe406993de87a84b4fcdd7ad", "asm": "001430a8b4c7651bba19fe406993de87a84b4fcdd7ad"}, "vout": 4, "txid": "a2c0ce106fb4e851b3a256fbdb5af58c3e094dfc9b9c7b635ae704ae91171e02"}, {"txinwitness": ["3044022014d96506b26951bf3ce3cd478f58443cd221fcf6fbb2a53c2dfbdc3ddaafe4e40220105f019c307e42a441c52ece7af30e23caefe5e34a02c9648cce782d8d32c4fa01", "03d78ab852a12d8e7694a9f3f103e3bbeece9c48b45b79ff6f6d78bd774496e8db"], "sequence": 4294967294, "scriptSig": {"hex": "1600149b720e11fbb2b9db44597a722ba29a5e2042012c", "asm": "00149b720e11fbb2b9db44597a722ba29a5e2042012c"}, "vout": 1, "txid": "2f13984a7f84bf2ef8b6a85e2a8013b8017216cdd3d5503ec1c9f0e601aa44a2"}], "txid": "4b01d912ff2695b6b71a05ebebe851da8287f1fa245e4862dbfe1de2c315965b", "blocktime": 1537869901, "version": 2, "confirmations": 11524, "time": 1537869901, "locktime": 542987, "vsize": 258, "size": 420}