{"hash": "4b053c5152f9a0cfd4eb09daae81ee0c09c6ed51fc576c62d381a879174634da", "blockhash": "0000000000000000001f76057863aec43deb6fa401d9628bb513d65a8098bfab", "vout": [{"scriptPubKey": {"type": "nulldata", "hex": "6a4c50000077e30001887ee3febd18774bd779a4b07af8e8e963c7cfd5b95b23cc0f42c2fc38c5522519f5df268510f8e8fa9aa59c00095baa17080612819676dd69bc1d100759d4ba30d2c37bb011d97e02cf", "asm": "OP_RETURN 000077e30001887ee3febd18774bd779a4b07af8e8e963c7cfd5b95b23cc0f42c2fc38c5522519f5df268510f8e8fa9aa59c00095baa17080612819676dd69bc1d100759d4ba30d2c37bb011d97e02cf"}, "value": 0.0, "n": 0}, {"scriptPubKey": {"reqSigs": 1, "hex": "76a914971af57e415570f1e23c86805f08afb462665d0988ac", "addresses": ["1EmyL7F2EeEjdPjE4geq4YYgw4cWQ8DzXX"], "asm": "OP_DUP OP_HASH160 971af57e415570f1e23c86805f08afb462665d09 OP_EQUALVERIFY OP_CHECKSIG", "type": "pubkeyhash"}, "value": 0.00635341, "n": 1}], "hex": "0100000001fc8e938ae0c97bd2044d204ae5961e82407412382d555b7c7c48d4742f06f919010000006a473044022045471b6de6b038345ccc8a4b4cc99efdbe3bbdc445029fbdeea329e83dd0bdd7022077783095de9ddae68c937f972437c613a7d3b34031c5d7c8c6fac19e4b5b7482012103404cef9869a29d7db999f2698734a6770afa2707356ca794c0a7b5f6cb9c455bffffffff020000000000000000536a4c50000077e30001887ee3febd18774bd779a4b07af8e8e963c7cfd5b95b23cc0f42c2fc38c5522519f5df268510f8e8fa9aa59c00095baa17080612819676dd69bc1d100759d4ba30d2c37bb011d97e02cfcdb10900000000001976a914971af57e415570f1e23c86805f08afb462665d0988ac00000000", "vin": [{"sequence": 4294967295, "scriptSig": {"hex": "473044022045471b6de6b038345ccc8a4b4cc99efdbe3bbdc445029fbdeea329e83dd0bdd7022077783095de9ddae68c937f972437c613a7d3b34031c5d7c8c6fac19e4b5b7482012103404cef9869a29d7db999f2698734a6770afa2707356ca794c0a7b5f6cb9c455b", "asm": "3044022045471b6de6b038345ccc8a4b4cc99efdbe3bbdc445029fbdeea329e83dd0bdd7022077783095de9ddae68c937f972437c613a7d3b34031c5d7c8c6fac19e4b5b7482[ALL] 03404cef9869a29d7db999f2698734a6770afa2707356ca794c0a7b5f6cb9c455b"}, "vout": 1, "txid": "19f9062f74d4487c7c5b552d38127440821e96e54a204d04d27bc9e08a938efc"}], "txid": "4b053c5152f9a0cfd4eb09daae81ee0c09c6ed51fc576c62d381a879174634da", "blocktime": 1537873891, "version": 1, "confirmations": 11478, "time": 1537873891, "locktime": 0, "vsize": 283, "size": 283}