{"hash": "4b10d31fd9960d837714b9dfbbe690b37a95b48294f99223a0b46545b629e259", "blockhash": "0000000000000000001e0dab787dd257d1dbfcb92a98c2207d5e1078be1f4165", "vout": [{"scriptPubKey": {"type": "nulldata", "hex": "6a4c50000077b10001805033e5bf9ae76da98a211aaf6c953dd567cf27e7e3ef3236678a6250976ee8a122ba527fc3545ce9ade5b417fb5baa118606115f253138dfcfbc9a9526289ac0f6612cd74e33776ee4", "asm": "OP_RETURN 000077b10001805033e5bf9ae76da98a211aaf6c953dd567cf27e7e3ef3236678a6250976ee8a122ba527fc3545ce9ade5b417fb5baa118606115f253138dfcfbc9a9526289ac0f6612cd74e33776ee4"}, "value": 0.0, "n": 0}, {"scriptPubKey": {"reqSigs": 1, "hex": "76a914208c3e970b157668e05a9647667f802dc572e95e88ac", "addresses": ["13y6dVoyrF6czizsyGz2unsGctfqEs1Jhr"], "asm": "OP_DUP OP_HASH160 208c3e970b157668e05a9647667f802dc572e95e OP_EQUALVERIFY OP_CHECKSIG", "type": "pubkeyhash"}, "value": 0.0009496, "n": 1}], "hex": "0100000001078115ff7d26dfdb8cb4d45e08a9860cef532b656309fb2dd4713e98d558375f010000006b483045022100b04d3c268f6d6ff5ec1183fe7f0d3ef44a5cb7ee5f523f9fb7143bb4f9a041a40220772fda1c4af678b62d1127c9391391a56f0200c07dacf408dda3ebeb56d82874012102bad61f9eb6281b561d0464a604eaef8817c0a712ae72a19c1c2498eac67f03e7ffffffff020000000000000000536a4c50000077b10001805033e5bf9ae76da98a211aaf6c953dd567cf27e7e3ef3236678a6250976ee8a122ba527fc3545ce9ade5b417fb5baa118606115f253138dfcfbc9a9526289ac0f6612cd74e33776ee4f0720100000000001976a914208c3e970b157668e05a9647667f802dc572e95e88ac00000000", "vin": [{"sequence": 4294967295, "scriptSig": {"hex": "483045022100b04d3c268f6d6ff5ec1183fe7f0d3ef44a5cb7ee5f523f9fb7143bb4f9a041a40220772fda1c4af678b62d1127c9391391a56f0200c07dacf408dda3ebeb56d82874012102bad61f9eb6281b561d0464a604eaef8817c0a712ae72a19c1c2498eac67f03e7", "asm": "3045022100b04d3c268f6d6ff5ec1183fe7f0d3ef44a5cb7ee5f523f9fb7143bb4f9a041a40220772fda1c4af678b62d1127c9391391a56f0200c07dacf408dda3ebeb56d82874[ALL] 02bad61f9eb6281b561d0464a604eaef8817c0a712ae72a19c1c2498eac67f03e7"}, "vout": 1, "txid": "5f3758d5983e71d42dfb0963652b53ef0c86a9085ed4b48cdbdf267dff158107"}], "txid": "4b10d31fd9960d837714b9dfbbe690b37a95b48294f99223a0b46545b629e259", "blocktime": 1537872475, "version": 1, "confirmations": 11486, "time": 1537872475, "locktime": 0, "vsize": 284, "size": 284}