{"hash": "4b15d1fbb9095c74a674811683c85122f0763b14f0f9cca6f69a2d002d0a3bb5", "blockhash": "000000000000000000022b45ed06c6f4ccd3cf7fb5ba4856ebd2e58215665228", "vout": [{"scriptPubKey": {"reqSigs": 1, "hex": "76a914e04ec2c299cdc10dda8167728490b551e448352588ac", "addresses": ["1MT2iNB7iRe3qsGfSA8NzRkPGm93GUrNBo"], "asm": "OP_DUP OP_HASH160 e04ec2c299cdc10dda8167728490b551e4483525 OP_EQUALVERIFY OP_CHECKSIG", "type": "pubkeyhash"}, "value": 0.00155958, "n": 0}, {"scriptPubKey": {"reqSigs": 1, "hex": "76a9144f6d4dacafdeaa7f67d15ecf48216a23e194f9ce88ac", "addresses": ["18EyKgy9eLjoQJsG5zGiVdSqG49yME9yBU"], "asm": "OP_DUP OP_HASH160 4f6d4dacafdeaa7f67d15ecf48216a23e194f9ce OP_EQUALVERIFY OP_CHECKSIG", "type": "pubkeyhash"}, "value": 0.0043353, "n": 1}], "hex": "01000000016fc4555f26729a743d198a77a94954e4b3516de3ccdfff5a100088da20d39f7a010000006b483045022100d8132f3e85df067a74af41f33e50d3d1029dc6c57db7d4a4aee8507830d2002d022058ba647c9751859bef1ef5760152447d37020f566da6d9bd0f3dd02a039d1ee5012103638052f67f70db0e731febfaaf5e69aa19401dcb19516279da373e8f9d4b6eb3ffffffff0236610200000000001976a914e04ec2c299cdc10dda8167728490b551e448352588ac7a9d0600000000001976a9144f6d4dacafdeaa7f67d15ecf48216a23e194f9ce88ac00000000", "vin": [{"sequence": 4294967295, "scriptSig": {"hex": "483045022100d8132f3e85df067a74af41f33e50d3d1029dc6c57db7d4a4aee8507830d2002d022058ba647c9751859bef1ef5760152447d37020f566da6d9bd0f3dd02a039d1ee5012103638052f67f70db0e731febfaaf5e69aa19401dcb19516279da373e8f9d4b6eb3", "asm": "3045022100d8132f3e85df067a74af41f33e50d3d1029dc6c57db7d4a4aee8507830d2002d022058ba647c9751859bef1ef5760152447d37020f566da6d9bd0f3dd02a039d1ee5[ALL] 03638052f67f70db0e731febfaaf5e69aa19401dcb19516279da373e8f9d4b6eb3"}, "vout": 1, "txid": "7a9fd320da8800105affdfcce36d51b3e45449a9778a193d749a72265f55c46f"}], "txid": "4b15d1fbb9095c74a674811683c85122f0763b14f0f9cca6f69a2d002d0a3bb5", "blocktime": 1537869901, "version": 1, "confirmations": 11522, "time": 1537869901, "locktime": 0, "vsize": 226, "size": 226}