{"hash": "4b17b8c9fa9fd9cb89036bb4037f59585231e64df7d6e1ece115ab75e88feaea", "blockhash": "00000000000000000018f53835495a110e01622372bf6ae95dc86f2b0ab887b0", "vout": [{"scriptPubKey": {"reqSigs": 1, "hex": "76a9147a5e3441bb2a042947a61e83c765d19b8d5f855e88ac", "addresses": ["1CA2HpcQxrnZUtJFEBiaa5tdfX24KL3ny4"], "asm": "OP_DUP OP_HASH160 7a5e3441bb2a042947a61e83c765d19b8d5f855e OP_EQUALVERIFY OP_CHECKSIG", "type": "pubkeyhash"}, "value": 0.29992459, "n": 0}], "hex": "0100000001838538a7fcc3d1a360b66f17dc0c648c7b352d263a5aacb0803dece58fc46c36000000006a47304402201d3e65032182652efc17b0f038c717ba40075961cb4a42b7d17fcfb87bf5327e022000a755677d01fd75f0c159ff6e145f8f13acdbaa9d0caa8422e2531ac6579bc70121031833bae697881fa6dcde073e1ce2de2ad9fd79f1df3f94f1b875589544eee7d9ffffffff010ba6c901000000001976a9147a5e3441bb2a042947a61e83c765d19b8d5f855e88ac00000000", "vin": [{"sequence": 4294967295, "scriptSig": {"hex": "47304402201d3e65032182652efc17b0f038c717ba40075961cb4a42b7d17fcfb87bf5327e022000a755677d01fd75f0c159ff6e145f8f13acdbaa9d0caa8422e2531ac6579bc70121031833bae697881fa6dcde073e1ce2de2ad9fd79f1df3f94f1b875589544eee7d9", "asm": "304402201d3e65032182652efc17b0f038c717ba40075961cb4a42b7d17fcfb87bf5327e022000a755677d01fd75f0c159ff6e145f8f13acdbaa9d0caa8422e2531ac6579bc7[ALL] 031833bae697881fa6dcde073e1ce2de2ad9fd79f1df3f94f1b875589544eee7d9"}, "vout": 0, "txid": "366cc48fe5ec3d80b0ac5a3a262d357b8c640cdc176fb660a3d1c3fca7388583"}], "txid": "4b17b8c9fa9fd9cb89036bb4037f59585231e64df7d6e1ece115ab75e88feaea", "blocktime": 1537870928, "version": 1, "confirmations": 11512, "time": 1537870928, "locktime": 0, "vsize": 191, "size": 191}