{"hash": "4b1a8b6002d19d2fae3c9ca62b4362cc9256d57d2e85751e7bcfbc9a24def5e7", "blockhash": "0000000000000000001cda96e906b7601b7a6fb1a3b62bca570a9e5d8f4b3de1", "vout": [{"scriptPubKey": {"reqSigs": 1, "hex": "76a91446312af04d6785c2bad9e05f51e75e10628b708588ac", "addresses": ["17Q9CfPTB3DveEdEAX4f5twVi6xXy8n7Cy"], "asm": "OP_DUP OP_HASH160 46312af04d6785c2bad9e05f51e75e10628b7085 OP_EQUALVERIFY OP_CHECKSIG", "type": "pubkeyhash"}, "value": 0.0427494, "n": 0}, {"scriptPubKey": {"reqSigs": 1, "hex": "a914e363fa6ab1eacaaf37693199d322ed38fc98f34987", "addresses": ["3NRM5hJevZ2TbdcxiaZK8PLVrr7XiRuNWf"], "asm": "OP_HASH160 e363fa6ab1eacaaf37693199d322ed38fc98f349 OP_EQUAL", "type": "scripthash"}, "value": 0.06812601, "n": 1}], "hex": "0100000001b14519a6419f7a7f9a31da822d1610b5df5678b62ceb81f4b888332dc23b7c0e000000006a473044022053ef6f8e6c9b40c5ecb72cf717213b70fa165a2e3aa47b774c3e8081a0fdcd3c02204a325af747a9442a6234ab8e5182fa7d6845344b996fa61d25cb314fa1368c2e012103ff258c16d3040a451d1c7abf133df5af525c5937c94f9f9254a509b512bf8379fdffffff02fc3a4100000000001976a91446312af04d6785c2bad9e05f51e75e10628b708588acb9f367000000000017a914e363fa6ab1eacaaf37693199d322ed38fc98f3498713490800", "vin": [{"sequence": 4294967293, "scriptSig": {"hex": "473044022053ef6f8e6c9b40c5ecb72cf717213b70fa165a2e3aa47b774c3e8081a0fdcd3c02204a325af747a9442a6234ab8e5182fa7d6845344b996fa61d25cb314fa1368c2e012103ff258c16d3040a451d1c7abf133df5af525c5937c94f9f9254a509b512bf8379", "asm": "3044022053ef6f8e6c9b40c5ecb72cf717213b70fa165a2e3aa47b774c3e8081a0fdcd3c02204a325af747a9442a6234ab8e5182fa7d6845344b996fa61d25cb314fa1368c2e[ALL] 03ff258c16d3040a451d1c7abf133df5af525c5937c94f9f9254a509b512bf8379"}, "vout": 0, "txid": "0e7c3bc22d3388b8f481eb2cb67856dfb510162d82da319a7f7a9f41a61945b1"}], "txid": "4b1a8b6002d19d2fae3c9ca62b4362cc9256d57d2e85751e7bcfbc9a24def5e7", "blocktime": 1537873282, "version": 1, "confirmations": 11485, "time": 1537873282, "locktime": 542995, "vsize": 223, "size": 223}