{"hash": "4b1a3dc37b52dfbb88c9a80d65a1ed04e215e11fe979643e7db8a7e435f27ceb", "blockhash": "0000000000000000001f76057863aec43deb6fa401d9628bb513d65a8098bfab", "vout": [{"scriptPubKey": {"reqSigs": 1, "hex": "76a914eae4115f8ee2a9915269375a38f266d3223feb4288ac", "addresses": ["1NQzLKdzHYuzyuhHPN9iUtgb7W9SDbLpJG"], "asm": "OP_DUP OP_HASH160 eae4115f8ee2a9915269375a38f266d3223feb42 OP_EQUALVERIFY OP_CHECKSIG", "type": "pubkeyhash"}, "value": 0.00637916, "n": 0}, {"scriptPubKey": {"type": "nulldata", "hex": "6a4c50000077de0001155b8995ebefad543411f0c47af8e8e963c7cfd5b95b23cc0f42c2fc38c5574d483270019df53b84351e4f62941b5baa16610612d44248fb6dcd1d100759d4ba30d2c37bb011d97e02cf", "asm": "OP_RETURN 000077de0001155b8995ebefad543411f0c47af8e8e963c7cfd5b95b23cc0f42c2fc38c5574d483270019df53b84351e4f62941b5baa16610612d44248fb6dcd1d100759d4ba30d2c37bb011d97e02cf"}, "value": 0.0, "n": 1}], "hex": "0100000001be45b05089b487419d57ecb181ce40fa2cc787b61e8f412b022e20611bb82901000000006b483045022100d881e4d10a1aa6e40c02795d473380daf9a6e9af5cf9fcbd9b6d56c7d6b49f9002205e5126cb5a6ad2242e8b217ff0fb28cad94e3c1a9f643c7a5e064016f8eea31c012102a130477124ec9b085589968c09aaa038341a8592dcd831f0df0f8af4040acb35ffffffff02dcbb0900000000001976a914eae4115f8ee2a9915269375a38f266d3223feb4288ac0000000000000000536a4c50000077de0001155b8995ebefad543411f0c47af8e8e963c7cfd5b95b23cc0f42c2fc38c5574d483270019df53b84351e4f62941b5baa16610612d44248fb6dcd1d100759d4ba30d2c37bb011d97e02cf00000000", "vin": [{"sequence": 4294967295, "scriptSig": {"hex": "483045022100d881e4d10a1aa6e40c02795d473380daf9a6e9af5cf9fcbd9b6d56c7d6b49f9002205e5126cb5a6ad2242e8b217ff0fb28cad94e3c1a9f643c7a5e064016f8eea31c012102a130477124ec9b085589968c09aaa038341a8592dcd831f0df0f8af4040acb35", "asm": "3045022100d881e4d10a1aa6e40c02795d473380daf9a6e9af5cf9fcbd9b6d56c7d6b49f9002205e5126cb5a6ad2242e8b217ff0fb28cad94e3c1a9f643c7a5e064016f8eea31c[ALL] 02a130477124ec9b085589968c09aaa038341a8592dcd831f0df0f8af4040acb35"}, "vout": 0, "txid": "0129b81b61202e022b418f1eb687c72cfa40ce81b1ec579d4187b48950b045be"}], "txid": "4b1a3dc37b52dfbb88c9a80d65a1ed04e215e11fe979643e7db8a7e435f27ceb", "blocktime": 1537873891, "version": 1, "confirmations": 11478, "time": 1537873891, "locktime": 0, "vsize": 284, "size": 284}