{"hash": "5f56dcafc455441f468035d002e6a5404fde674c94ee08a71870fa89ebfb49af", "blockhash": "0000000000000000001e0dab787dd257d1dbfcb92a98c2207d5e1078be1f4165", "vout": [{"scriptPubKey": {"reqSigs": 1, "hex": "76a914923cb09c1c7c2c5e864dfe02d8d3320231fab59a88ac", "addresses": ["1ELEMpDsvazvgwzzRzZH6CVbTk1hihagdM"], "asm": "OP_DUP OP_HASH160 923cb09c1c7c2c5e864dfe02d8d3320231fab59a OP_EQUALVERIFY OP_CHECKSIG", "type": "pubkeyhash"}, "value": 0.00135449, "n": 0}, {"scriptPubKey": {"reqSigs": 1, "hex": "a914a5c679defd49547b8133a1367eeadbdeaecec3da87", "addresses": ["3GoZBZ6F8g4UiCt7moPNLDX7KKwgtGgLUT"], "asm": "OP_HASH160 a5c679defd49547b8133a1367eeadbdeaecec3da OP_EQUAL", "type": "scripthash"}, "value": 0.54239605, "n": 1}], "hex": "01000000000101a3667f33b4398560c2d38b45cb24b181f72fb94390d2391a5d60592ed6edbe3601000000232200202d90cd274cea8141a030c0b79acc5b5c0b80b73d028692a1104913808bff6c09ffffffff0219110200000000001976a914923cb09c1c7c2c5e864dfe02d8d3320231fab59a88ac75a13b030000000017a914a5c679defd49547b8133a1367eeadbdeaecec3da870400483045022100a42f4aa0641039bf3566296065b9efc04d22e2d849df6663293c855461abcebb02207c8b8513210682a84c980bf2a434151b8e3eba99a22fd51fb4db23c8ab59ade2014730440220322e4c9b4ab76ed96537efc13fccd9c5ca9efa31e49eb36207a9a03b28e3cfc002202555495bbc019a40467c2467d8fb0613af7fc61643c5220412307fa072479224014752210295d70c0f10033e6e119fdc61ddd495bfe23995150af6df4688db5bf235f2853b21023e4b58fb2a91970de56515d11487aabd364f0404f1099bef70493cc56002342352ae00000000", "vin": [{"txinwitness": ["", "3045022100a42f4aa0641039bf3566296065b9efc04d22e2d849df6663293c855461abcebb02207c8b8513210682a84c980bf2a434151b8e3eba99a22fd51fb4db23c8ab59ade201", "30440220322e4c9b4ab76ed96537efc13fccd9c5ca9efa31e49eb36207a9a03b28e3cfc002202555495bbc019a40467c2467d8fb0613af7fc61643c5220412307fa07247922401", "52210295d70c0f10033e6e119fdc61ddd495bfe23995150af6df4688db5bf235f2853b21023e4b58fb2a91970de56515d11487aabd364f0404f1099bef70493cc56002342352ae"], "sequence": 4294967295, "scriptSig": {"hex": "2200202d90cd274cea8141a030c0b79acc5b5c0b80b73d028692a1104913808bff6c09", "asm": "00202d90cd274cea8141a030c0b79acc5b5c0b80b73d028692a1104913808bff6c09"}, "vout": 1, "txid": "36beedd62e59605d1a39d29043b92ff781b124cb458bd3c2608539b4337f66a3"}], "txid": "4b1ff370f663acb18cf31693d1a76836d342f4a9d16a0aa203be3c5287b0e513", "blocktime": 1537872475, "version": 1, "confirmations": 11487, "time": 1537872475, "locktime": 0, "vsize": 208, "size": 373}