{"hash": "4b28acffb104a8aef1fe33976745b77de366a74de3d046aba05f7a67ef5e6e0d", "blockhash": "0000000000000000001cda96e906b7601b7a6fb1a3b62bca570a9e5d8f4b3de1", "vout": [{"scriptPubKey": {"reqSigs": 1, "hex": "76a914d243e6abb9a60fbff430b421d2df4b7d59ec186088ac", "addresses": ["1LAnF8h3qMGx3TSwNUHVneBZUEpwE4gu3D"], "asm": "OP_DUP OP_HASH160 d243e6abb9a60fbff430b421d2df4b7d59ec1860 OP_EQUALVERIFY OP_CHECKSIG", "type": "pubkeyhash"}, "value": 0.00076972, "n": 0}, {"scriptPubKey": {"reqSigs": 1, "hex": "76a9143851f34d13937b673a7d24a1950bb5b21ce94af388ac", "addresses": ["168o1kqNquEJeR9vosUB5fw4eAwcVAgh8P"], "asm": "OP_DUP OP_HASH160 3851f34d13937b673a7d24a1950bb5b21ce94af3 OP_EQUALVERIFY OP_CHECKSIG", "type": "pubkeyhash"}, "value": 5.46e-06, "n": 1}, {"scriptPubKey": {"type": "nulldata", "hex": "6a146f6d6e69000000000000001f0000018bbc3a0180", "asm": "OP_RETURN 6f6d6e69000000000000001f0000018bbc3a0180"}, "value": 0.0, "n": 2}], "hex": "01000000028c9122dccf1b206dc8c29337a36e77a0a27fd99734589c140b58b42f9a74bd9d010000006a4730440220623aaa263781f460cbd3662d3d9d13db99da2d1671121b864b03ff52aec97196022019a1f6cec965e42cd665205193fc37fb773a7b9227399c6b06900d7a4e64da12012102622d0eaddc0bccec3cdbf8a3b7d75d9c00758bbf39553791e2ad8e90cefac3afffffffff4ad4ee6c0a540360bb0549eae339b58d14625d0039e0da8c5a4c03766a49b030000000006b483045022100f751f4218c470f2ed692841d11e593b5d44a6b0008280ab7607747d2e3fd1aa1022032558236062e9c3a88b53d05657fe849aace40ebc6363c152ffd4c8add87e52001210271977291b74f1f5f5c42157e8aae804664eaaeccfd097918450d37f28fb94d77ffffffff03ac2c0100000000001976a914d243e6abb9a60fbff430b421d2df4b7d59ec186088ac22020000000000001976a9143851f34d13937b673a7d24a1950bb5b21ce94af388ac0000000000000000166a146f6d6e69000000000000001f0000018bbc3a018000000000", "vin": [{"sequence": 4294967295, "scriptSig": {"hex": "4730440220623aaa263781f460cbd3662d3d9d13db99da2d1671121b864b03ff52aec97196022019a1f6cec965e42cd665205193fc37fb773a7b9227399c6b06900d7a4e64da12012102622d0eaddc0bccec3cdbf8a3b7d75d9c00758bbf39553791e2ad8e90cefac3af", "asm": "30440220623aaa263781f460cbd3662d3d9d13db99da2d1671121b864b03ff52aec97196022019a1f6cec965e42cd665205193fc37fb773a7b9227399c6b06900d7a4e64da12[ALL] 02622d0eaddc0bccec3cdbf8a3b7d75d9c00758bbf39553791e2ad8e90cefac3af"}, "vout": 1, "txid": "9dbd749a2fb4580b149c583497d97fa2a0776ea33793c2c86d201bcfdc22918c"}, {"sequence": 4294967295, "scriptSig": {"hex": "483045022100f751f4218c470f2ed692841d11e593b5d44a6b0008280ab7607747d2e3fd1aa1022032558236062e9c3a88b53d05657fe849aace40ebc6363c152ffd4c8add87e52001210271977291b74f1f5f5c42157e8aae804664eaaeccfd097918450d37f28fb94d77", "asm": "3045022100f751f4218c470f2ed692841d11e593b5d44a6b0008280ab7607747d2e3fd1aa1022032558236062e9c3a88b53d05657fe849aace40ebc6363c152ffd4c8add87e520[ALL] 0271977291b74f1f5f5c42157e8aae804664eaaeccfd097918450d37f28fb94d77"}, "vout": 0, "txid": "30b0496a76034c5a8cdae039005d62148db539e3ea4905bb6003540a6ceed44a"}], "txid": "4b28acffb104a8aef1fe33976745b77de366a74de3d046aba05f7a67ef5e6e0d", "blocktime": 1537873282, "version": 1, "confirmations": 11483, "time": 1537873282, "locktime": 0, "vsize": 404, "size": 404}