{"hash": "1c4f38f022b238d4b5a02bc04d32f31c144bd0af216d2ebb7dae131e93448bed", "blockhash": "000000000000000000022b45ed06c6f4ccd3cf7fb5ba4856ebd2e58215665228", "vout": [{"scriptPubKey": {"reqSigs": 1, "hex": "76a914b47dfbb9820ecdf97307df2a3820750d6391f10688ac", "addresses": ["1HTMZ19fR7JRiNFXY8rQhdWH4trobubwj5"], "asm": "OP_DUP OP_HASH160 b47dfbb9820ecdf97307df2a3820750d6391f106 OP_EQUALVERIFY OP_CHECKSIG", "type": "pubkeyhash"}, "value": 0.0012873, "n": 0}, {"scriptPubKey": {"reqSigs": 1, "hex": "a914623bc71aae031839add7304b814c43bfc2e9051487", "addresses": ["3AeRkmrFg14XjcZxLiKsxWCsmmwrcjXezc"], "asm": "OP_HASH160 623bc71aae031839add7304b814c43bfc2e90514 OP_EQUAL", "type": "scripthash"}, "value": 0.02803577, "n": 1}], "hex": "01000000000101d40a48cd73c6c556282440e22be08212de44ecb6c88857f76421b43ad4ca1c6c01000000232200208b29cdff4436c9fd09e2bb3722ba65a440fbfc66964301c4902832d27a4f2b12ffffffff02daf60100000000001976a914b47dfbb9820ecdf97307df2a3820750d6391f10688ac79c72a000000000017a914623bc71aae031839add7304b814c43bfc2e9051487040047304402206e29dbf3640c1dd94900f5c1de271fe24eae5190ac37b80d9ba326e63b9cdd30022000dc2112ae52b6dafad869e2e1e75b8f130eeae6d0a720917253e1c3d3a82fd801483045022100c768eed14e4bf12a83e29aa71b6849d2a2ca61ebee51e4baf8442c181a49b2ee0220131db2164ece1402e10a5921aa7fc4c9a998d5afbcce1d3b9a883702af2db45201475221036b4dd4bc8657eba03286a3a3f74fb599cc514153059dbb023dfb32b0268d8daf21032f41ceae151fd1826ff863e0017da5158aa4c8f6dc701d11b13794695089210b52ae00000000", "vin": [{"txinwitness": ["", "304402206e29dbf3640c1dd94900f5c1de271fe24eae5190ac37b80d9ba326e63b9cdd30022000dc2112ae52b6dafad869e2e1e75b8f130eeae6d0a720917253e1c3d3a82fd801", "3045022100c768eed14e4bf12a83e29aa71b6849d2a2ca61ebee51e4baf8442c181a49b2ee0220131db2164ece1402e10a5921aa7fc4c9a998d5afbcce1d3b9a883702af2db45201", "5221036b4dd4bc8657eba03286a3a3f74fb599cc514153059dbb023dfb32b0268d8daf21032f41ceae151fd1826ff863e0017da5158aa4c8f6dc701d11b13794695089210b52ae"], "sequence": 4294967295, "scriptSig": {"hex": "2200208b29cdff4436c9fd09e2bb3722ba65a440fbfc66964301c4902832d27a4f2b12", "asm": "00208b29cdff4436c9fd09e2bb3722ba65a440fbfc66964301c4902832d27a4f2b12"}, "vout": 1, "txid": "6c1ccad43ab42164f75788c8b6ec44de1282e02be240242856c5c673cd480ad4"}], "txid": "4b296c5878286295bfa34fdc4afc6e050ae0761eee04ae72f53b77b232952ff8", "blocktime": 1537869901, "version": 1, "confirmations": 11524, "time": 1537869901, "locktime": 0, "vsize": 208, "size": 373}