{"hash": "1aa48591df8797181dcebe2bf23ff953db563ab535e74a21fbb520bd4c3064f8", "blockhash": "00000000000000000017f5eb5941039fbcee6240d03bc1f2f8e35350df66a1d8", "vout": [{"scriptPubKey": {"reqSigs": 1, "hex": "a914ae75af411cab1a93a7362352845d4dfecfe44f1187", "addresses": ["3HbUUnpEr9G6rL7WrRTKBd2PAx4EfMrhai"], "asm": "OP_HASH160 ae75af411cab1a93a7362352845d4dfecfe44f11 OP_EQUAL", "type": "scripthash"}, "value": 0.0027927, "n": 0}, {"scriptPubKey": {"reqSigs": 1, "hex": "a914231e199ff349f2b6f3ea25f141f529ab564e611987", "addresses": ["34thdecDQSzoaqSpoTAvyNxQccH1LK8GEa"], "asm": "OP_HASH160 231e199ff349f2b6f3ea25f141f529ab564e6119 OP_EQUAL", "type": "scripthash"}, "value": 0.01207368, "n": 1}], "hex": "01000000000101eec183d70f7cf63d2882b14d7037816c676bb746cc1817b633e6f8aedba7a2100000000023220020cdafa10aab1aaa124a6118fc734c6de668c825386795794a90e9019bdbf5bb83ffffffff02e64204000000000017a914ae75af411cab1a93a7362352845d4dfecfe44f1187486c12000000000017a914231e199ff349f2b6f3ea25f141f529ab564e61198704004830450221008a7d2ce049c9bb01042a58f97f89a8467c721e2025a0e4a48879c30521b77e3802201e6ad737db27be0da2e65c73eecdf45a35f48262d8aedb7c929cb8027eb75a4f014730440220372b457b2f087e9f33ee24431b229edbc693e7927cd47d7bc7946c95b49fe8b6022073da1b87682e6a3c4cacc1ab6c42c2d11c969ed6798e3461bab3e591005b85b601475221024876e76f0163eba3ea103501c302228e545e5be1f7822f240009c14774c01785210277a81d678c83107207ed37b2d105224aef4b8a021163b4f29221fa69aff0927d52ae00000000", "vin": [{"txinwitness": ["", "30450221008a7d2ce049c9bb01042a58f97f89a8467c721e2025a0e4a48879c30521b77e3802201e6ad737db27be0da2e65c73eecdf45a35f48262d8aedb7c929cb8027eb75a4f01", "30440220372b457b2f087e9f33ee24431b229edbc693e7927cd47d7bc7946c95b49fe8b6022073da1b87682e6a3c4cacc1ab6c42c2d11c969ed6798e3461bab3e591005b85b601", "5221024876e76f0163eba3ea103501c302228e545e5be1f7822f240009c14774c01785210277a81d678c83107207ed37b2d105224aef4b8a021163b4f29221fa69aff0927d52ae"], "sequence": 4294967295, "scriptSig": {"hex": "220020cdafa10aab1aaa124a6118fc734c6de668c825386795794a90e9019bdbf5bb83", "asm": "0020cdafa10aab1aaa124a6118fc734c6de668c825386795794a90e9019bdbf5bb83"}, "vout": 0, "txid": "10a2a7dbaef8e633b61718cc46b76b676c8137704db182283df67c0fd783c1ee"}], "txid": "4b2c47d0e392fd4206b2b1e12b0dce76830ae3fb716ade0ef758bcb53f4b014b", "blocktime": 1537874412, "version": 1, "confirmations": 11468, "time": 1537874412, "locktime": 0, "vsize": 206, "size": 371}