{"hash": "7de1c9f66dbfc0d9d6621a799d9ff547cc7484695e95e8ef19450d8320f098d8", "blockhash": "000000000000000000205f8b0775d31398ef75b89a5e8ec8d2c57b4dc0ac4c20", "vout": [{"scriptPubKey": {"reqSigs": 1, "hex": "76a914c817a08467f27767c6abb54d77cddb855561dd6388ac", "addresses": ["1KEzT11oSiNyS3ThcRFLBFWUbpQx85iqqc"], "asm": "OP_DUP OP_HASH160 c817a08467f27767c6abb54d77cddb855561dd63 OP_EQUALVERIFY OP_CHECKSIG", "type": "pubkeyhash"}, "value": 0.11, "n": 0}, {"scriptPubKey": {"reqSigs": 1, "hex": "a91423482723a62a8f085d5bf0e0a5e54fd2396ea83887", "addresses": ["34ua1XbcA4d5TW88LbzizmsM4DGMfUJU5V"], "asm": "OP_HASH160 23482723a62a8f085d5bf0e0a5e54fd2396ea838 OP_EQUAL", "type": "scripthash"}, "value": 0.42209553, "n": 1}], "hex": "0100000000010111abc1777cdd99ea3802a72d90ebd17cecc6ee99a9b71d88a3ebf83cf7844194010000001716001468e4d25a248c9fa3a16702028dbd6239da8b333dffffff0002c0d8a700000000001976a914c817a08467f27767c6abb54d77cddb855561dd6388ac111184020000000017a91423482723a62a8f085d5bf0e0a5e54fd2396ea838870247304402206010e6a6a3eeca1f4f1c3816b168e5f84955ec6c161a00d53a1e3669cb8913060220229d4a9c492b890ee1ac1207a299647eb35d07021812e1a810ef33d230b5c5fe012103c17d0f2dff5e42b49141ad3ff973cb2c2135b95128256641c8e970e15e4be52500000000", "vin": [{"txinwitness": ["304402206010e6a6a3eeca1f4f1c3816b168e5f84955ec6c161a00d53a1e3669cb8913060220229d4a9c492b890ee1ac1207a299647eb35d07021812e1a810ef33d230b5c5fe01", "03c17d0f2dff5e42b49141ad3ff973cb2c2135b95128256641c8e970e15e4be525"], "sequence": 16777215, "scriptSig": {"hex": "16001468e4d25a248c9fa3a16702028dbd6239da8b333d", "asm": "001468e4d25a248c9fa3a16702028dbd6239da8b333d"}, "vout": 1, "txid": "944184f73cf8eba3881db7a999eec6ec7cd1eb902da70238ea99dd7c77c1ab11"}], "txid": "4b2c291b163f054b8a2438171a991c439f10348e08b1a69397720fe451ae9c51", "blocktime": 1537871175, "version": 1, "confirmations": 11511, "time": 1537871175, "locktime": 0, "vsize": 168, "size": 249}