{"hash": "4b2fed9773790b8ca6ff6934141fa42884553205932bded569f75d73e5624619", "blockhash": "0000000000000000000e13cef7c366c0283d82e591d1acd082e914b08063cdf1", "vout": [{"scriptPubKey": {"reqSigs": 1, "hex": "76a9149427ef9e17e60ced11189f743976d467d53082f888ac", "addresses": ["1EWNrCD6BhVdT6BApibNrnqwuBRT5VSfU1"], "asm": "OP_DUP OP_HASH160 9427ef9e17e60ced11189f743976d467d53082f8 OP_EQUALVERIFY OP_CHECKSIG", "type": "pubkeyhash"}, "value": 1.926e-05, "n": 0}, {"scriptPubKey": {"reqSigs": 1, "hex": "76a9143bcc0473c481bba604d83f1424b472937596c96d88ac", "addresses": ["16TBGhJXaLtTq7G5qfSwTjqYYZTAX8jjdh"], "asm": "OP_DUP OP_HASH160 3bcc0473c481bba604d83f1424b472937596c96d OP_EQUALVERIFY OP_CHECKSIG", "type": "pubkeyhash"}, "value": 0.00156278, "n": 1}], "hex": "01000000027e9ab4584a7656bc861271e10fe6be806855c59d9e6edd335b6dfc9c9f3797b4000000006b483045022100b0a5dfee3455b8c0235f50751240f0b4beb715d030244c886043ba09793bf316022003654a0c72e6c86231810b34b578a43a69adaf320fe9a76d940ebebb31f1870e0121033a8a4f7413e025373321d1f5cdbd10b7de3937ed5bfbee3dab25f5e50efe5f0affffffff83d9d198f52e1b5c372205cdd253c24330ce177009b6107e136d82d3adcd32c8000000006b483045022100a9b659399d123a64ca0f46c34f9357cdb8dc740ab14d5cb8690d24177214a60f02206a516fa6f90f244e49af6ac8c61024f2f73dc5753cca3054916a573505ad4e04012103e8e179eb84d8dfdf286c5d34eb9295066d40b80d6fe137bb0109aa9e5bc8cfceffffffff0286070000000000001976a9149427ef9e17e60ced11189f743976d467d53082f888ac76620200000000001976a9143bcc0473c481bba604d83f1424b472937596c96d88ac00000000", "vin": [{"sequence": 4294967295, "scriptSig": {"hex": "483045022100b0a5dfee3455b8c0235f50751240f0b4beb715d030244c886043ba09793bf316022003654a0c72e6c86231810b34b578a43a69adaf320fe9a76d940ebebb31f1870e0121033a8a4f7413e025373321d1f5cdbd10b7de3937ed5bfbee3dab25f5e50efe5f0a", "asm": "3045022100b0a5dfee3455b8c0235f50751240f0b4beb715d030244c886043ba09793bf316022003654a0c72e6c86231810b34b578a43a69adaf320fe9a76d940ebebb31f1870e[ALL] 033a8a4f7413e025373321d1f5cdbd10b7de3937ed5bfbee3dab25f5e50efe5f0a"}, "vout": 0, "txid": "b497379f9cfc6d5b33dd6e9e9dc5556880bee60fe1711286bc56764a58b49a7e"}, {"sequence": 4294967295, "scriptSig": {"hex": "483045022100a9b659399d123a64ca0f46c34f9357cdb8dc740ab14d5cb8690d24177214a60f02206a516fa6f90f244e49af6ac8c61024f2f73dc5753cca3054916a573505ad4e04012103e8e179eb84d8dfdf286c5d34eb9295066d40b80d6fe137bb0109aa9e5bc8cfce", "asm": "3045022100a9b659399d123a64ca0f46c34f9357cdb8dc740ab14d5cb8690d24177214a60f02206a516fa6f90f244e49af6ac8c61024f2f73dc5753cca3054916a573505ad4e04[ALL] 03e8e179eb84d8dfdf286c5d34eb9295066d40b80d6fe137bb0109aa9e5bc8cfce"}, "vout": 0, "txid": "c832cdadd3826d137e10b6097017ce3043c253d2cd0522375c1b2ef598d1d983"}], "txid": "4b2fed9773790b8ca6ff6934141fa42884553205932bded569f75d73e5624619", "blocktime": 1537871767, "version": 1, "confirmations": 11493, "time": 1537871767, "locktime": 0, "vsize": 374, "size": 374}