{"hash": "4b2f117a94f6ef08d8bc3739437370072323933b196e2f933171fd5ccff256cd", "blockhash": "0000000000000000000e13cef7c366c0283d82e591d1acd082e914b08063cdf1", "vout": [{"scriptPubKey": {"reqSigs": 1, "hex": "a9147c8c2f389f72c9db88bfd07693440ff96e7595c787", "addresses": ["3D3ZeWyUzV4Tschnekyo2YsJZSCAhtMeGR"], "asm": "OP_HASH160 7c8c2f389f72c9db88bfd07693440ff96e7595c7 OP_EQUAL", "type": "scripthash"}, "value": 0.019, "n": 0}, {"scriptPubKey": {"reqSigs": 1, "hex": "76a914208f324a319b09c9393b8f9dae6f0b2488df102688ac", "addresses": ["13yAAbv2gDhFnmXaRyaA5gbBUwtZ6UUC8N"], "asm": "OP_DUP OP_HASH160 208f324a319b09c9393b8f9dae6f0b2488df1026 OP_EQUALVERIFY OP_CHECKSIG", "type": "pubkeyhash"}, "value": 0.07738898, "n": 1}], "hex": "0100000001bae78bd4cfba5eb63be366dc84d70509d3a0746f86f5cbb7329548c5cac0c0bd010000006b483045022100cb4f3dd3c93ffb4e612c95b627e17a439883ed389f4b4558353cbb1957b83a51022011451e5031ca678c2cfe6705d9cd61f86f9c45b52093353d07fbc5476619b993012102e62fcd6e4d5e381dc3c70145898deca6114313ec697440122f8e5a26d5085184ffffffff02e0fd1c000000000017a9147c8c2f389f72c9db88bfd07693440ff96e7595c78712167600000000001976a914208f324a319b09c9393b8f9dae6f0b2488df102688ac00000000", "vin": [{"sequence": 4294967295, "scriptSig": {"hex": "483045022100cb4f3dd3c93ffb4e612c95b627e17a439883ed389f4b4558353cbb1957b83a51022011451e5031ca678c2cfe6705d9cd61f86f9c45b52093353d07fbc5476619b993012102e62fcd6e4d5e381dc3c70145898deca6114313ec697440122f8e5a26d5085184", "asm": "3045022100cb4f3dd3c93ffb4e612c95b627e17a439883ed389f4b4558353cbb1957b83a51022011451e5031ca678c2cfe6705d9cd61f86f9c45b52093353d07fbc5476619b993[ALL] 02e62fcd6e4d5e381dc3c70145898deca6114313ec697440122f8e5a26d5085184"}, "vout": 1, "txid": "bdc0c0cac5489532b7cbf5866f74a0d30905d784dc66e33bb65ebacfd48be7ba"}], "txid": "4b2f117a94f6ef08d8bc3739437370072323933b196e2f933171fd5ccff256cd", "blocktime": 1537871767, "version": 1, "confirmations": 11495, "time": 1537871767, "locktime": 0, "vsize": 224, "size": 224}