{"hash": "4b35e4af2c2cf5f2a885628165c744dbe53b870c10e65c8533e04947faae0ead", "blockhash": "0000000000000000001e0dab787dd257d1dbfcb92a98c2207d5e1078be1f4165", "vout": [{"scriptPubKey": {"reqSigs": 1, "hex": "a914237926abed6477c8d065eef4e374bf7a94c4214787", "addresses": ["34vahyrgYta5xMs3RPX55PTNRat3SHePgZ"], "asm": "OP_HASH160 237926abed6477c8d065eef4e374bf7a94c42147 OP_EQUAL", "type": "scripthash"}, "value": 0.00117, "n": 0}, {"scriptPubKey": {"reqSigs": 1, "hex": "76a91476346d4d4ca5201aba50276a659be32586da62b288ac", "addresses": ["1Bn1YKraYJVi51Xob3d6UYwAm3yJddL6N4"], "asm": "OP_DUP OP_HASH160 76346d4d4ca5201aba50276a659be32586da62b2 OP_EQUALVERIFY OP_CHECKSIG", "type": "pubkeyhash"}, "value": 0.04502938, "n": 1}], "hex": "01000000011d2ff95827b88e345a3fb76845f4455dc9a528577a7f7aa80dc7f730790e46ba010000006a473044022074a5324fd7be4fad3aca561795f9bebf5a79ef10581ae8d2ea02b46e45c3142f02201aebbee0ed8cc1c7e28724a98863ddf39c7263b145364360681899b7f281e1b6012103252a441957516a4d4d11c82803ae5fa52e092ff080f10ef3be8c0176247f5734fdffffff0208c901000000000017a914237926abed6477c8d065eef4e374bf7a94c42147879ab54400000000001976a91476346d4d4ca5201aba50276a659be32586da62b288ac12490800", "vin": [{"sequence": 4294967293, "scriptSig": {"hex": "473044022074a5324fd7be4fad3aca561795f9bebf5a79ef10581ae8d2ea02b46e45c3142f02201aebbee0ed8cc1c7e28724a98863ddf39c7263b145364360681899b7f281e1b6012103252a441957516a4d4d11c82803ae5fa52e092ff080f10ef3be8c0176247f5734", "asm": "3044022074a5324fd7be4fad3aca561795f9bebf5a79ef10581ae8d2ea02b46e45c3142f02201aebbee0ed8cc1c7e28724a98863ddf39c7263b145364360681899b7f281e1b6[ALL] 03252a441957516a4d4d11c82803ae5fa52e092ff080f10ef3be8c0176247f5734"}, "vout": 1, "txid": "ba460e7930f7c70da87a7f7a5728a5c95d45f44568b73f5a348eb82758f92f1d"}], "txid": "4b35e4af2c2cf5f2a885628165c744dbe53b870c10e65c8533e04947faae0ead", "blocktime": 1537872475, "version": 1, "confirmations": 11486, "time": 1537872475, "locktime": 542994, "vsize": 223, "size": 223}