{"hash": "2346472b134ca3bd9355d48cd535080e041d8a4f103c12d84d8edf4394dee80c", "blockhash": "0000000000000000000dcc0f55137456b1a82d3642486a52398922ac4d620174", "vout": [{"scriptPubKey": {"reqSigs": 1, "hex": "a914789699ee4af27e959ba2f285d2f67e4a175466fc87", "addresses": ["3CgdRXP96HwZcnHLR91RQhUxbs3btU6L3T"], "asm": "OP_HASH160 789699ee4af27e959ba2f285d2f67e4a175466fc OP_EQUAL", "type": "scripthash"}, "value": 0.09997831, "n": 0}, {"scriptPubKey": {"reqSigs": 1, "hex": "a9148603fcb81fe010eeee6797ec69bbd44ba99b697987", "addresses": ["3DudFHPqUbB9mTuAuKDwCcazkwfd34VC5a"], "asm": "OP_HASH160 8603fcb81fe010eeee6797ec69bbd44ba99b6979 OP_EQUAL", "type": "scripthash"}, "value": 0.03745609, "n": 1}], "hex": "02000000000102e2dfd64def1b940bb909ccc0f5ab9dd0f6e330aa64adb86fbe321af6405cac8801000000171600148d20dfe7156afccf9c0dac4d37f17ec5f905916effffffff68d2f2f789d73bcdf2aae85c85cd2b4fceb2f6a22a5db6ef1a0c8b2d9a8c7fbb01000000171600140615a49d7cc88499b951d159ab3630134485607effffffff02078e98000000000017a914789699ee4af27e959ba2f285d2f67e4a175466fc87492739000000000017a9148603fcb81fe010eeee6797ec69bbd44ba99b69798702483045022100c4a50f1900cb7771bdc7dd26e1e7a9b103e96a78dc50c5c2a50d5bf5a511cdbb02200772c2dc6271e6178b9a7c025003c15deee78b44eccaca9e883b490c58f120de0121026ae7b9eacdbee19e23ef97172efea6218d7834cb1e44b1e4095b7ed7ec8dbcb102483045022100a2ea43a5a697a60c08f01429b6e339a00831a008b65cceaf8b3c55ddb79d1412022045e20f753e50b25eec1a2f2d91452459a6c5698131cd7f91061ef5490e135daf012102eaf6fee24853733060c99e6d46a7ce807fd13705a505b87e1a9d566544ae985000000000", "vin": [{"txinwitness": ["3045022100c4a50f1900cb7771bdc7dd26e1e7a9b103e96a78dc50c5c2a50d5bf5a511cdbb02200772c2dc6271e6178b9a7c025003c15deee78b44eccaca9e883b490c58f120de01", "026ae7b9eacdbee19e23ef97172efea6218d7834cb1e44b1e4095b7ed7ec8dbcb1"], "sequence": 4294967295, "scriptSig": {"hex": "1600148d20dfe7156afccf9c0dac4d37f17ec5f905916e", "asm": "00148d20dfe7156afccf9c0dac4d37f17ec5f905916e"}, "vout": 1, "txid": "88ac5c40f61a32be6fb8ad64aa30e3f6d09dabf5c0cc09b90b941bef4dd6dfe2"}, {"txinwitness": ["3045022100a2ea43a5a697a60c08f01429b6e339a00831a008b65cceaf8b3c55ddb79d1412022045e20f753e50b25eec1a2f2d91452459a6c5698131cd7f91061ef5490e135daf01", "02eaf6fee24853733060c99e6d46a7ce807fd13705a505b87e1a9d566544ae9850"], "sequence": 4294967295, "scriptSig": {"hex": "1600140615a49d7cc88499b951d159ab3630134485607e", "asm": "00140615a49d7cc88499b951d159ab3630134485607e"}, "vout": 1, "txid": "bb7f8c9a2d8b0c1aefb65d2aa2f6b2ce4f2bcd855ce8aaf2cd3bd789f7f2d268"}], "txid": "4b3a403d6fdbb9ba5175796d9684bde14e92bf0158f049abc04924e126745480", "blocktime": 1537870268, "version": 2, "confirmations": 11516, "time": 1537870268, "locktime": 0, "vsize": 257, "size": 420}