{"hash": "4b3f9cc92012c33cf24eef4c6d6c7c52b717a154326cd065aa0eb5fd5260c085", "blockhash": "00000000000000000017f5eb5941039fbcee6240d03bc1f2f8e35350df66a1d8", "vout": [{"scriptPubKey": {"type": "nulldata", "hex": "6a4c50000077fc0001024291d4c6f5cc6431af6411d19ed074892d00f8e87af8e8e963c7cfd5b9f682f669bcef1809ebfb471da22bee5d5baa19670613a51606938be4bc9a9526289ac0f6612cd74e33776ee4", "asm": "OP_RETURN 000077fc0001024291d4c6f5cc6431af6411d19ed074892d00f8e87af8e8e963c7cfd5b9f682f669bcef1809ebfb471da22bee5d5baa19670613a51606938be4bc9a9526289ac0f6612cd74e33776ee4"}, "value": 0.0, "n": 0}, {"scriptPubKey": {"reqSigs": 1, "hex": "76a9145f55dc6fc06f48a636571b09448b2ff8d92b7b6588ac", "addresses": ["19h63xU66unFdhgHMhpEXf9S26oz4SWvNk"], "asm": "OP_DUP OP_HASH160 5f55dc6fc06f48a636571b09448b2ff8d92b7b65 OP_EQUALVERIFY OP_CHECKSIG", "type": "pubkeyhash"}, "value": 0.00124524, "n": 1}], "hex": "0100000001ec9a775e0477ceed3c4fe5893dea882259e52990987f0b1f6fcb76d4b04994ec000000006a47304402204497c04f67c39cc71848accb426acf9da71548d93ca0477591445b2d863a23c802207e018465b5b08e82cda21b0c3eff598902b9a4118732b78a64279743981fc50601210379a053f9e4f478080b578e0957b7dc9c162f87f4b9bc9592311c6a435c44bb04ffffffff020000000000000000536a4c50000077fc0001024291d4c6f5cc6431af6411d19ed074892d00f8e87af8e8e963c7cfd5b9f682f669bcef1809ebfb471da22bee5d5baa19670613a51606938be4bc9a9526289ac0f6612cd74e33776ee46ce60100000000001976a9145f55dc6fc06f48a636571b09448b2ff8d92b7b6588ac00000000", "vin": [{"sequence": 4294967295, "scriptSig": {"hex": "47304402204497c04f67c39cc71848accb426acf9da71548d93ca0477591445b2d863a23c802207e018465b5b08e82cda21b0c3eff598902b9a4118732b78a64279743981fc50601210379a053f9e4f478080b578e0957b7dc9c162f87f4b9bc9592311c6a435c44bb04", "asm": "304402204497c04f67c39cc71848accb426acf9da71548d93ca0477591445b2d863a23c802207e018465b5b08e82cda21b0c3eff598902b9a4118732b78a64279743981fc506[ALL] 0379a053f9e4f478080b578e0957b7dc9c162f87f4b9bc9592311c6a435c44bb04"}, "vout": 0, "txid": "ec9449b0d476cb6f1f0b7f989029e5592288ea3d89e54f3cedce77045e779aec"}], "txid": "4b3f9cc92012c33cf24eef4c6d6c7c52b717a154326cd065aa0eb5fd5260c085", "blocktime": 1537874412, "version": 1, "confirmations": 11467, "time": 1537874412, "locktime": 0, "vsize": 283, "size": 283}