{"hash": "4b417fdec339550dba1b67b09d3c584be6a05e2ce2f026a13e4a422b8c682745", "blockhash": "00000000000000000017f5eb5941039fbcee6240d03bc1f2f8e35350df66a1d8", "vout": [{"scriptPubKey": {"reqSigs": 1, "hex": "76a914f1409fb29d94635d8d753e074a967d6c001aa8d488ac", "addresses": ["1NzdGNd89517GL5XUKKGQXTaUtqF1WtRir"], "asm": "OP_DUP OP_HASH160 f1409fb29d94635d8d753e074a967d6c001aa8d4 OP_EQUALVERIFY OP_CHECKSIG", "type": "pubkeyhash"}, "value": 0.00574495, "n": 0}, {"scriptPubKey": {"reqSigs": 1, "hex": "76a9143dbb4528e963286758846d793030b2ea11ab4fe988ac", "addresses": ["16dQZTh26FyYMswUFoYuZc2ZhJMkWvf3WV"], "asm": "OP_DUP OP_HASH160 3dbb4528e963286758846d793030b2ea11ab4fe9 OP_EQUALVERIFY OP_CHECKSIG", "type": "pubkeyhash"}, "value": 0.7712, "n": 1}], "hex": "0100000004b6b378b5d72e15d14a37a7e6973a23806677f4038ea89dc40df6e53fde85c394000000006a473044022011f91287f1d698f2a9ef65d5786097924038ac4426c6d420e6ef686d3f7eec79022021c925678e9904af5dcee51fc44c1b2eb706bee0bd7444082ce8e8b49f2f56250121028f73afe54603ae67c3fd21f6cae4669d63342e5cfd01fc41de39d6eb6346efbefdffffff5165c9f2feeee456173e0b4724fe1cccb76e1d571d49444f69ca1ad717cce199000000006a473044022026c23a76e1dc1ffc4aff8aa004d01092d828612f501dfe2e951f1cda20bc2b3a022039d41985d2fce781db1273c10ba2bd1dd12cc7851fa4d2ed9c9af985d4ebabbf012102f09076a22154110eab0db0febe52f9d77ff8892c6deaea9aec67d7b70194c14afdffffff46f4ed50476f812a208056f075e5dac821b8f1624bc8976cf8b079d5e697b4e0000000006a47304402203e1745e1217412b609673ff254f0dc8d9831005bb2afe3966756d30fabce073702205767f75d0002345f225c06289e52f8901e8aa7a318ec33bfd2d94f4c468a0a14012102962be55d4e9d3925228e73e1fc3ac9114b265c15a97fd251fd93cb500e308d72fdffffff5a50dd782214f6505fe461f895bc06196ae7f3deed1d37e5858e9a2bcf1ddae6010000006b4830450221009021b94b72a5fd4cf6224a39cf9dc3c16b4e1bfdd5aec3a1b994d355ad89dd360220147ae687c99c18a072746a806eb003c82bb27fcd212258568869d69e9f14a2f60121029fc2dabc1c5199aeab2dbaaac759a2ce602afff210cb07313e12f38a4d25391dfdffffff021fc40800000000001976a914f1409fb29d94635d8d753e074a967d6c001aa8d488ac00c29804000000001976a9143dbb4528e963286758846d793030b2ea11ab4fe988ac15490800", "vin": [{"sequence": 4294967293, "scriptSig": {"hex": "473044022011f91287f1d698f2a9ef65d5786097924038ac4426c6d420e6ef686d3f7eec79022021c925678e9904af5dcee51fc44c1b2eb706bee0bd7444082ce8e8b49f2f56250121028f73afe54603ae67c3fd21f6cae4669d63342e5cfd01fc41de39d6eb6346efbe", "asm": "3044022011f91287f1d698f2a9ef65d5786097924038ac4426c6d420e6ef686d3f7eec79022021c925678e9904af5dcee51fc44c1b2eb706bee0bd7444082ce8e8b49f2f5625[ALL] 028f73afe54603ae67c3fd21f6cae4669d63342e5cfd01fc41de39d6eb6346efbe"}, "vout": 0, "txid": "94c385de3fe5f60dc49da88e03f4776680233a97e6a7374ad1152ed7b578b3b6"}, {"sequence": 4294967293, "scriptSig": {"hex": "473044022026c23a76e1dc1ffc4aff8aa004d01092d828612f501dfe2e951f1cda20bc2b3a022039d41985d2fce781db1273c10ba2bd1dd12cc7851fa4d2ed9c9af985d4ebabbf012102f09076a22154110eab0db0febe52f9d77ff8892c6deaea9aec67d7b70194c14a", "asm": "3044022026c23a76e1dc1ffc4aff8aa004d01092d828612f501dfe2e951f1cda20bc2b3a022039d41985d2fce781db1273c10ba2bd1dd12cc7851fa4d2ed9c9af985d4ebabbf[ALL] 02f09076a22154110eab0db0febe52f9d77ff8892c6deaea9aec67d7b70194c14a"}, "vout": 0, "txid": "99e1cc17d71aca694f44491d571d6eb7cc1cfe24470b3e1756e4eefef2c96551"}, {"sequence": 4294967293, "scriptSig": {"hex": "47304402203e1745e1217412b609673ff254f0dc8d9831005bb2afe3966756d30fabce073702205767f75d0002345f225c06289e52f8901e8aa7a318ec33bfd2d94f4c468a0a14012102962be55d4e9d3925228e73e1fc3ac9114b265c15a97fd251fd93cb500e308d72", "asm": "304402203e1745e1217412b609673ff254f0dc8d9831005bb2afe3966756d30fabce073702205767f75d0002345f225c06289e52f8901e8aa7a318ec33bfd2d94f4c468a0a14[ALL] 02962be55d4e9d3925228e73e1fc3ac9114b265c15a97fd251fd93cb500e308d72"}, "vout": 0, "txid": "e0b497e6d579b0f86c97c84b62f1b821c8dae575f05680202a816f4750edf446"}, {"sequence": 4294967293, "scriptSig": {"hex": "4830450221009021b94b72a5fd4cf6224a39cf9dc3c16b4e1bfdd5aec3a1b994d355ad89dd360220147ae687c99c18a072746a806eb003c82bb27fcd212258568869d69e9f14a2f60121029fc2dabc1c5199aeab2dbaaac759a2ce602afff210cb07313e12f38a4d25391d", "asm": "30450221009021b94b72a5fd4cf6224a39cf9dc3c16b4e1bfdd5aec3a1b994d355ad89dd360220147ae687c99c18a072746a806eb003c82bb27fcd212258568869d69e9f14a2f6[ALL] 029fc2dabc1c5199aeab2dbaaac759a2ce602afff210cb07313e12f38a4d25391d"}, "vout": 1, "txid": "e6da1dcf2b9a8e85e5371deddef3e76a1906bc95f861e45f50f6142278dd505a"}], "txid": "4b417fdec339550dba1b67b09d3c584be6a05e2ce2f026a13e4a422b8c682745", "blocktime": 1537874412, "version": 1, "confirmations": 11467, "time": 1537874412, "locktime": 542997, "vsize": 667, "size": 667}