{"hash": "33aa50c3cd86d324f4a0a57e0b7291585938ce0a4b164336b40acccc78778d1c", "blockhash": "0000000000000000001e0dab787dd257d1dbfcb92a98c2207d5e1078be1f4165", "vout": [{"scriptPubKey": {"reqSigs": 1, "hex": "a914d3c6e966ecc3dc008d072151c572219ac2b0c7a487", "addresses": ["3Lznnebd3W2FPsLj212NZ3M4haxXszPpGW"], "asm": "OP_HASH160 d3c6e966ecc3dc008d072151c572219ac2b0c7a4 OP_EQUAL", "type": "scripthash"}, "value": 0.00303605, "n": 0}, {"scriptPubKey": {"reqSigs": 1, "hex": "00144a79804520980e84073960ccd4ef5c1e46bf74ab", "addresses": ["bc1qffucq3fqnq8ggpeevrxdfm6urert7a9t77fypm"], "asm": "0 4a79804520980e84073960ccd4ef5c1e46bf74ab", "type": "witness_v0_keyhash"}, "value": 2.173e-05, "n": 1}], "hex": "01000000000101a6a6029ffc704fcb93030210e97631f476044ebe4f38ceea82385b24f58b88180000000000ffffffff02f5a104000000000017a914d3c6e966ecc3dc008d072151c572219ac2b0c7a4877d080000000000001600144a79804520980e84073960ccd4ef5c1e46bf74ab02483045022100d5d3a9071a3b9c55232484ef955c18922d1f1791cde420cd8d84d23a05ccf939022012c2f99d33920e13925fcff043cd21e4e625596591cedf7730c1c2d4ab1e4aa60121035bd678218ab64a39523a09fc1eb8caab50233c909302b447a18d31a77c7a8cac00000000", "vin": [{"txinwitness": ["3045022100d5d3a9071a3b9c55232484ef955c18922d1f1791cde420cd8d84d23a05ccf939022012c2f99d33920e13925fcff043cd21e4e625596591cedf7730c1c2d4ab1e4aa601", "035bd678218ab64a39523a09fc1eb8caab50233c909302b447a18d31a77c7a8cac"], "sequence": 4294967295, "scriptSig": {"hex": "", "asm": ""}, "vout": 0, "txid": "18888bf5245b3882eace384fbe4e0476f43176e910020393cb4f70fc9f02a6a6"}], "txid": "4b412eaee473f6c4333f4e32d857504e95866eab3eae89b55f9e5020e9f27a76", "blocktime": 1537872475, "version": 1, "confirmations": 11486, "time": 1537872475, "locktime": 0, "vsize": 142, "size": 224}