{"hash": "4b4a2d73b8a36bbcdf9beb1481ced31786f4495258071edb4a6cb8b05a9da343", "blockhash": "0000000000000000001e0dab787dd257d1dbfcb92a98c2207d5e1078be1f4165", "vout": [{"scriptPubKey": {"reqSigs": 1, "hex": "a91463b236e646b988e1689774438dceae55a5cc42f787", "addresses": ["3AnAK6J91K8TaTA9M2XswvVrZGTaShUCZ1"], "asm": "OP_HASH160 63b236e646b988e1689774438dceae55a5cc42f7 OP_EQUAL", "type": "scripthash"}, "value": 0.53743006, "n": 0}, {"scriptPubKey": {"reqSigs": 1, "hex": "76a914d5ba2eb2d52670fbe9522748bf642da754eb0d6f88ac", "addresses": ["1LV5y3NkVkmdWnF6xRCEXrAnUkRgge4KSq"], "asm": "OP_DUP OP_HASH160 d5ba2eb2d52670fbe9522748bf642da754eb0d6f OP_EQUALVERIFY OP_CHECKSIG", "type": "pubkeyhash"}, "value": 12.35718908, "n": 1}], "hex": "01000000014840b02fef0530581cdc302fffe58e84957bb086c485246e35d26ab0c23bc684010000006b483045022100e4fc8bc49c69548c6ecedd80b7bc3427c97023c97cf809bb84e086791884e565022019bc76d6d341b366349abcbc994b11428665444ba27f7e4ab3db8520a27a12c7012102c19ebc0e7fe714e24c55adaeebc7dbab2dc9a208b511bd1b6e83db85506d4d19ffffffff029e0d34030000000017a91463b236e646b988e1689774438dceae55a5cc42f787fc92a749000000001976a914d5ba2eb2d52670fbe9522748bf642da754eb0d6f88ac00000000", "vin": [{"sequence": 4294967295, "scriptSig": {"hex": "483045022100e4fc8bc49c69548c6ecedd80b7bc3427c97023c97cf809bb84e086791884e565022019bc76d6d341b366349abcbc994b11428665444ba27f7e4ab3db8520a27a12c7012102c19ebc0e7fe714e24c55adaeebc7dbab2dc9a208b511bd1b6e83db85506d4d19", "asm": "3045022100e4fc8bc49c69548c6ecedd80b7bc3427c97023c97cf809bb84e086791884e565022019bc76d6d341b366349abcbc994b11428665444ba27f7e4ab3db8520a27a12c7[ALL] 02c19ebc0e7fe714e24c55adaeebc7dbab2dc9a208b511bd1b6e83db85506d4d19"}, "vout": 1, "txid": "84c63bc2b06ad2356e2485c486b07b95848ee5ff2f30dc1c583005ef2fb04048"}], "txid": "4b4a2d73b8a36bbcdf9beb1481ced31786f4495258071edb4a6cb8b05a9da343", "blocktime": 1537872475, "version": 1, "confirmations": 11486, "time": 1537872475, "locktime": 0, "vsize": 224, "size": 224}