{"hash": "4b4d4f54aa6228826b924bcaa1ba2ebb51f8220e5fa402f7b8cf30e208ddb603", "blockhash": "0000000000000000001cda96e906b7601b7a6fb1a3b62bca570a9e5d8f4b3de1", "vout": [{"scriptPubKey": {"reqSigs": 1, "hex": "76a914a5d8ed21ad04d5e24b3b535b1bf7bbbb25f14c1088ac", "addresses": ["1G7vMxQRSL9YrU2bg4nvmKzKE59wJsvhaX"], "asm": "OP_DUP OP_HASH160 a5d8ed21ad04d5e24b3b535b1bf7bbbb25f14c10 OP_EQUALVERIFY OP_CHECKSIG", "type": "pubkeyhash"}, "value": 0.01213241, "n": 0}, {"scriptPubKey": {"reqSigs": 1, "hex": "a91429c8b5a08c1679cf055c5315571cc022ec35770587", "addresses": ["35Vx4wwQL6pXMrPN8uZbjPqSTNBKwcSAXT"], "asm": "OP_HASH160 29c8b5a08c1679cf055c5315571cc022ec357705 OP_EQUAL", "type": "scripthash"}, "value": 0.04137664, "n": 1}], "hex": "0100000002e42533bde460b72ee2ff113175adc0de677b18da69b207bb61c360a25e8ab65f010000006b483045022100bdc7c672be832b9f2ba35902e8a9cb5ee70e8f84885ffea42d49ad5e2e6287fa0220076c943a43ffae86b41c0545cf086c01f0489f9a4b5fd2e1da3806887975c9d401210314a0bc899b0804acf9511cdc82eb047e412d947966c8d6e0227a01443b99e107ffffffff8ffeca635cd2f37a51954aa549d72d17cb63ffbd58b6874e0b7fe043c4d9fba1010000006b48304502210082ee28820a9ce400f052fbbb1624506e0e63536707b42e0d3302f48ebcab826902203664148e30bae96178d0e91e0ff0fa34131d0d4232a02d20e780edfdb0e166b3012103a81e9710d9cdfa46c0a705fa7f343941d6ac7098e8b7ebd6359e722f55e603cbffffffff0239831200000000001976a914a5d8ed21ad04d5e24b3b535b1bf7bbbb25f14c1088acc0223f000000000017a91429c8b5a08c1679cf055c5315571cc022ec3577058700000000", "vin": [{"sequence": 4294967295, "scriptSig": {"hex": "483045022100bdc7c672be832b9f2ba35902e8a9cb5ee70e8f84885ffea42d49ad5e2e6287fa0220076c943a43ffae86b41c0545cf086c01f0489f9a4b5fd2e1da3806887975c9d401210314a0bc899b0804acf9511cdc82eb047e412d947966c8d6e0227a01443b99e107", "asm": "3045022100bdc7c672be832b9f2ba35902e8a9cb5ee70e8f84885ffea42d49ad5e2e6287fa0220076c943a43ffae86b41c0545cf086c01f0489f9a4b5fd2e1da3806887975c9d4[ALL] 0314a0bc899b0804acf9511cdc82eb047e412d947966c8d6e0227a01443b99e107"}, "vout": 1, "txid": "5fb68a5ea260c361bb07b269da187b67dec0ad753111ffe22eb760e4bd3325e4"}, {"sequence": 4294967295, "scriptSig": {"hex": "48304502210082ee28820a9ce400f052fbbb1624506e0e63536707b42e0d3302f48ebcab826902203664148e30bae96178d0e91e0ff0fa34131d0d4232a02d20e780edfdb0e166b3012103a81e9710d9cdfa46c0a705fa7f343941d6ac7098e8b7ebd6359e722f55e603cb", "asm": "304502210082ee28820a9ce400f052fbbb1624506e0e63536707b42e0d3302f48ebcab826902203664148e30bae96178d0e91e0ff0fa34131d0d4232a02d20e780edfdb0e166b3[ALL] 03a81e9710d9cdfa46c0a705fa7f343941d6ac7098e8b7ebd6359e722f55e603cb"}, "vout": 1, "txid": "a1fbd9c443e07f0b4e87b658bdff63cb172dd749a54a95517af3d25c63cafe8f"}], "txid": "4b4d4f54aa6228826b924bcaa1ba2ebb51f8220e5fa402f7b8cf30e208ddb603", "blocktime": 1537873282, "version": 1, "confirmations": 11482, "time": 1537873282, "locktime": 0, "vsize": 372, "size": 372}