{"hash": "a67be6da4939c260a1f7197166ffb40d4be3b1bf1c8c33bc44cee7a0591bb0b9", "blockhash": "0000000000000000000baef3f32e3676a92c3b2e5da21b426e4f302fc371ce76", "vout": [{"scriptPubKey": {"type": "nulldata", "hex": "6a146f6d6e69000000000000001f0000006648520900", "asm": "OP_RETURN 6f6d6e69000000000000001f0000006648520900"}, "value": 0.0, "n": 0}, {"scriptPubKey": {"reqSigs": 1, "hex": "76a914431ea8a4868074f89c9bafb0c0cd4fa6a6713e8188ac", "addresses": ["177u14X4TZr3h4MPWgBhFVAVHiGNNaGVxq"], "asm": "OP_DUP OP_HASH160 431ea8a4868074f89c9bafb0c0cd4fa6a6713e81 OP_EQUALVERIFY OP_CHECKSIG", "type": "pubkeyhash"}, "value": 2.73e-05, "n": 1}, {"scriptPubKey": {"reqSigs": 1, "hex": "a914e818e90b8e6b38dba66f74b35cb708bbc73e2ea787", "addresses": ["3NrEXrB9qAxXYfRt6jKtBD8QzoU2qtNWDR"], "asm": "OP_HASH160 e818e90b8e6b38dba66f74b35cb708bbc73e2ea7 OP_EQUAL", "type": "scripthash"}, "value": 0.00121291, "n": 2}], "hex": "010000000001037b12033c4da1a180ad449c658d3d31b9428eb17de37c8429438a9e81a23decbd0100000017160014000b814f2c1a19852357ed615a08ec572a781ed1ffffffffaf151e938926b4078a9d8750cf7b69105422d35cd59fd7d6e15bef14cdccd05d0100000017160014005b8e6c68ada584dae3ddb40b823e8f3eda4c1dffffffff38fe9c904ff85874cbd922bdfdd6f0acfab3b00143cb6439acb25a76addb6b210000000017160014005b8e6c68ada584dae3ddb40b823e8f3eda4c1dffffffff030000000000000000166a146f6d6e69000000000000001f0000006648520900aa0a0000000000001976a914431ea8a4868074f89c9bafb0c0cd4fa6a6713e8188accbd901000000000017a914e818e90b8e6b38dba66f74b35cb708bbc73e2ea78702473044022059732810f2f45232ec55ae1c4536cf1ca9adb0b3319b8627969cadefe0b639ff0220775b571329894e523d5b73fa0c7e189f53ad7da9d2f5d4b152ac0c96ba7d8e2c012102aad79950b2c2af3689e8644c89e9d10dff06c2d8926200496b92e9f7ccb0304c024830450221008e8fd7be31eeb3deaaf852bbdc8a4eaed77bb3774db6b812f512b973452288c702204f861467a3bacf8c2f482f1b94950d8f1ef6c2d4f52014fbb07ae5abae72c4ad012102e57ca7945357d97e2d895b83c9412822294934a3c6e15b077cdb75e0c9f78f7d02483045022100a222c8c1ca10cd0a2a205b9da66fa62c85d501826af1542cdcd13a16ce6162f802200eabead5c30cad0f4f52250ed602bba648b4caa3c5ca9220791ac91acc01cf1c012102e57ca7945357d97e2d895b83c9412822294934a3c6e15b077cdb75e0c9f78f7d00000000", "vin": [{"txinwitness": ["3044022059732810f2f45232ec55ae1c4536cf1ca9adb0b3319b8627969cadefe0b639ff0220775b571329894e523d5b73fa0c7e189f53ad7da9d2f5d4b152ac0c96ba7d8e2c01", "02aad79950b2c2af3689e8644c89e9d10dff06c2d8926200496b92e9f7ccb0304c"], "sequence": 4294967295, "scriptSig": {"hex": "160014000b814f2c1a19852357ed615a08ec572a781ed1", "asm": "0014000b814f2c1a19852357ed615a08ec572a781ed1"}, "vout": 1, "txid": "bdec3da2819e8a4329847ce37db18e42b9313d8d659c44ad80a1a14d3c03127b"}, {"txinwitness": ["30450221008e8fd7be31eeb3deaaf852bbdc8a4eaed77bb3774db6b812f512b973452288c702204f861467a3bacf8c2f482f1b94950d8f1ef6c2d4f52014fbb07ae5abae72c4ad01", "02e57ca7945357d97e2d895b83c9412822294934a3c6e15b077cdb75e0c9f78f7d"], "sequence": 4294967295, "scriptSig": {"hex": "160014005b8e6c68ada584dae3ddb40b823e8f3eda4c1d", "asm": "0014005b8e6c68ada584dae3ddb40b823e8f3eda4c1d"}, "vout": 1, "txid": "5dd0cccd14ef5be1d6d79fd55cd3225410697bcf50879d8a07b42689931e15af"}, {"txinwitness": ["3045022100a222c8c1ca10cd0a2a205b9da66fa62c85d501826af1542cdcd13a16ce6162f802200eabead5c30cad0f4f52250ed602bba648b4caa3c5ca9220791ac91acc01cf1c01", "02e57ca7945357d97e2d895b83c9412822294934a3c6e15b077cdb75e0c9f78f7d"], "sequence": 4294967295, "scriptSig": {"hex": "160014005b8e6c68ada584dae3ddb40b823e8f3eda4c1d", "asm": "0014005b8e6c68ada584dae3ddb40b823e8f3eda4c1d"}, "vout": 0, "txid": "216bdbad765ab2ac3964cb4301b0b3faacf0d6fdbd22d9cb7458f84f909cfe38"}], "txid": "4b4da2daf0405f92b60de1851f99928035531b4c85e8585e3d2ac90ba0641f90", "blocktime": 1537876114, "version": 1, "confirmations": 11460, "time": 1537876114, "locktime": 0, "vsize": 381, "size": 624}