{"hash": "4b4e860c1b5d8438ab9499fad5262d6f41a61c2379dccbb7a48a7755a06c0ea4", "blockhash": "00000000000000000024a2167bbff67b0be802c0b01cdd79e6331c2be6459f87", "vout": [{"scriptPubKey": {"reqSigs": 1, "hex": "76a914d5b40083107c18cd14f84f3778e6b9f08bb5bfe188ac", "addresses": ["1LUxZcrFgZQZghjaaBg31EUASz9A3NNvhN"], "asm": "OP_DUP OP_HASH160 d5b40083107c18cd14f84f3778e6b9f08bb5bfe1 OP_EQUALVERIFY OP_CHECKSIG", "type": "pubkeyhash"}, "value": 0.01559938, "n": 0}, {"scriptPubKey": {"reqSigs": 1, "hex": "76a914358494f12bc61af5810a7d587b6675bf24d1d39188ac", "addresses": ["15sye7WqejRN92meW95QB634mKSXB7LYn7"], "asm": "OP_DUP OP_HASH160 358494f12bc61af5810a7d587b6675bf24d1d391 OP_EQUALVERIFY OP_CHECKSIG", "type": "pubkeyhash"}, "value": 0.03872941, "n": 1}], "hex": "0100000001a7b26a393d7b1aa9632b95fee509b27220823b9729a0c2eb192148a1873b817e010000006b4830450221008c4d4a017f235d2dc4d7d7ce72253f87f9b15b02e9c127511c72e82ceb4c18f7022042175f4cc2b883f7f906ef81d696ee5f3690440772713ef5c7816f369ef98dd50121022701de31b4270bb58e6eb3ce858ffabb3a90446ee90493b5103ec464eb33322effffffff0282cd1700000000001976a914d5b40083107c18cd14f84f3778e6b9f08bb5bfe188acad183b00000000001976a914358494f12bc61af5810a7d587b6675bf24d1d39188ac00000000", "vin": [{"sequence": 4294967295, "scriptSig": {"hex": "4830450221008c4d4a017f235d2dc4d7d7ce72253f87f9b15b02e9c127511c72e82ceb4c18f7022042175f4cc2b883f7f906ef81d696ee5f3690440772713ef5c7816f369ef98dd50121022701de31b4270bb58e6eb3ce858ffabb3a90446ee90493b5103ec464eb33322e", "asm": "30450221008c4d4a017f235d2dc4d7d7ce72253f87f9b15b02e9c127511c72e82ceb4c18f7022042175f4cc2b883f7f906ef81d696ee5f3690440772713ef5c7816f369ef98dd5[ALL] 022701de31b4270bb58e6eb3ce858ffabb3a90446ee90493b5103ec464eb33322e"}, "vout": 1, "txid": "7e813b87a1482119ebc2a029973b822072b209e5fe952b63a91a7b3d396ab2a7"}], "txid": "4b4e860c1b5d8438ab9499fad5262d6f41a61c2379dccbb7a48a7755a06c0ea4", "blocktime": 1537870564, "version": 1, "confirmations": 11515, "time": 1537870564, "locktime": 0, "vsize": 226, "size": 226}