{"hash": "4b4fec1aec658c2eae1260424354f62322e0e214071554ad01ba611c25dd5035", "blockhash": "0000000000000000001f0ddff1eddb255c1121bcd4da4f1bc9a0da00cae72433", "vout": [{"scriptPubKey": {"reqSigs": 1, "hex": "a9145b42dbaef092b089db97ee5d2ee0ee585e0a272087", "addresses": ["3A1ZWPJ4KXrRHsbrgcEMdeeJf2bs4t4rq3"], "asm": "OP_HASH160 5b42dbaef092b089db97ee5d2ee0ee585e0a2720 OP_EQUAL", "type": "scripthash"}, "value": 0.0006908, "n": 0}, {"scriptPubKey": {"reqSigs": 1, "hex": "a914062b5509e2eca513bf4761665571b9bc56aa676187", "addresses": ["32FdtU52duxkwGGSRJ5NuLqYUi2qJfqot1"], "asm": "OP_HASH160 062b5509e2eca513bf4761665571b9bc56aa6761 OP_EQUAL", "type": "scripthash"}, "value": 0.11915678, "n": 1}], "hex": "0100000001999743720d8b68ee656ce6092e6ca5b96902f059ef766ab60e74594d06c1a18701000000db00483045022100f789f6b3436581bf65e4d403626db7414f3efbdd178da57892298f99e90b8e6802202dd457c494c261686b4d3b145b5569f4497888f1d1dc64a4bf1b46f44612db9901483045022100c73f8dac0ea59bd0803867634867a87774a1555c43992754eba65f37a8bf0e3502203889f0130516dd65aa4069d8943c38e17a2a6a9169ab581ff66dd2ce4fe4ba790147522103abc8a801f5fbb4fd5f6510ba530d534b0efb584b4298cea1e6e2d45cd1000aef2102a29577404fa42d6d12e0d867249d4ee805afecc9e10879ed668da9958dc7b65052aeffffffff02d80d01000000000017a9145b42dbaef092b089db97ee5d2ee0ee585e0a2720879ed1b5000000000017a914062b5509e2eca513bf4761665571b9bc56aa67618700000000", "vin": [{"sequence": 4294967295, "scriptSig": {"hex": "00483045022100f789f6b3436581bf65e4d403626db7414f3efbdd178da57892298f99e90b8e6802202dd457c494c261686b4d3b145b5569f4497888f1d1dc64a4bf1b46f44612db9901483045022100c73f8dac0ea59bd0803867634867a87774a1555c43992754eba65f37a8bf0e3502203889f0130516dd65aa4069d8943c38e17a2a6a9169ab581ff66dd2ce4fe4ba790147522103abc8a801f5fbb4fd5f6510ba530d534b0efb584b4298cea1e6e2d45cd1000aef2102a29577404fa42d6d12e0d867249d4ee805afecc9e10879ed668da9958dc7b65052ae", "asm": "0 3045022100f789f6b3436581bf65e4d403626db7414f3efbdd178da57892298f99e90b8e6802202dd457c494c261686b4d3b145b5569f4497888f1d1dc64a4bf1b46f44612db99[ALL] 3045022100c73f8dac0ea59bd0803867634867a87774a1555c43992754eba65f37a8bf0e3502203889f0130516dd65aa4069d8943c38e17a2a6a9169ab581ff66dd2ce4fe4ba79[ALL] 522103abc8a801f5fbb4fd5f6510ba530d534b0efb584b4298cea1e6e2d45cd1000aef2102a29577404fa42d6d12e0d867249d4ee805afecc9e10879ed668da9958dc7b65052ae"}, "vout": 1, "txid": "87a1c1064d59740eb66a76ef59f00269b9a56c2e09e66c65ee688b0d72439799"}], "txid": "4b4fec1aec658c2eae1260424354f62322e0e214071554ad01ba611c25dd5035", "blocktime": 1537872018, "version": 1, "confirmations": 11489, "time": 1537872018, "locktime": 0, "vsize": 334, "size": 334}