{"hash": "3e25d3c7734e73bec0e335b7de26692377aabaadff0bdff20e69ba2c3bed6656", "blockhash": "0000000000000000001f76057863aec43deb6fa401d9628bb513d65a8098bfab", "vout": [{"scriptPubKey": {"reqSigs": 1, "hex": "76a9146050c24eb37b185cb09d67f8f599481d7064c7b788ac", "addresses": ["19nGceikUSdeosYWh9hyWZt8x4EEqYcRge"], "asm": "OP_DUP OP_HASH160 6050c24eb37b185cb09d67f8f599481d7064c7b7 OP_EQUALVERIFY OP_CHECKSIG", "type": "pubkeyhash"}, "value": 0.0477, "n": 0}, {"scriptPubKey": {"reqSigs": 1, "hex": "0014e077082f88e979d024ad9af94e5e7881ddb37dc1", "addresses": ["bc1qupmsstuga9uaqf9dntu5uhncs8wmxlwpqw3c3w"], "asm": "0 e077082f88e979d024ad9af94e5e7881ddb37dc1", "type": "witness_v0_keyhash"}, "value": 0.00229412, "n": 1}], "hex": "01000000000101eadc88acdd2ce4cfa696dc71cc4c38d2d58c66aed6cf12714228c331c94855a6000000001716001433f3944d97e64830da4f2f6f7cbd95b8156fa402ffffffff02d0c84800000000001976a9146050c24eb37b185cb09d67f8f599481d7064c7b788ac2480030000000000160014e077082f88e979d024ad9af94e5e7881ddb37dc102473044022035bd4ae7e9cba5165db64a4195c263f17ad543d523a3e37db29bba0d102f451202205f554d1b17de22048deb05b3af0e2c2bdf3fea0b654a6f65d61eef4f80c5e4a601210353af2937e4ac406bb120fcafc315eafb7ff14549216b1b053643eb8af4e184b500000000", "vin": [{"txinwitness": ["3044022035bd4ae7e9cba5165db64a4195c263f17ad543d523a3e37db29bba0d102f451202205f554d1b17de22048deb05b3af0e2c2bdf3fea0b654a6f65d61eef4f80c5e4a601", "0353af2937e4ac406bb120fcafc315eafb7ff14549216b1b053643eb8af4e184b5"], "sequence": 4294967295, "scriptSig": {"hex": "16001433f3944d97e64830da4f2f6f7cbd95b8156fa402", "asm": "001433f3944d97e64830da4f2f6f7cbd95b8156fa402"}, "vout": 0, "txid": "a65548c931c328427112cfd6ae668cd5d2384ccc71dc96a6cfe42cddac88dcea"}], "txid": "4b50c242eb0393348dbf5f5b4765f71b4ab8a746d40623a99aae214b3b5601dc", "blocktime": 1537873891, "version": 1, "confirmations": 11478, "time": 1537873891, "locktime": 0, "vsize": 167, "size": 248}