{"hash": "cf7bcf5d91ce91555e7b4fac017d08fe3ba3c3d52b2a9b8bb73485013f836a5d", "blockhash": "0000000000000000001f76057863aec43deb6fa401d9628bb513d65a8098bfab", "vout": [{"scriptPubKey": {"reqSigs": 1, "hex": "a914fbdbcf3deb8610909dab54ec64b91d534842f81187", "addresses": ["3QeirKxZHZ3cTLE9Rq6Kr11YrMNHMz5ByM"], "asm": "OP_HASH160 fbdbcf3deb8610909dab54ec64b91d534842f811 OP_EQUAL", "type": "scripthash"}, "value": 0.00989956, "n": 0}, {"scriptPubKey": {"reqSigs": 1, "hex": "76a914930402b8b535c053ebdd5080437ee7b97cd7d0e188ac", "addresses": ["1EQM8s2mHFtjuM2uVv8mKDSmuoF4pANg85"], "asm": "OP_DUP OP_HASH160 930402b8b535c053ebdd5080437ee7b97cd7d0e1 OP_EQUALVERIFY OP_CHECKSIG", "type": "pubkeyhash"}, "value": 0.0058, "n": 1}], "hex": "0200000000010214ecfc4c635730b442e655173fad940cb2266a2e7af3beeaf242171af4f6a20802000000171600146d23a6a90da239b5f538a8bfa68511d5eeb9fb0dfeffffff380c2a982119c205086f82c948890fa950f4f95265bd188cbcc6ffbf06811799000000006a47304402207e3de965b16860706788576b5550c9fa388406bc7f5ff57cbc58315ecacf0e5f02202a7aceabf9bf043fc02f237760293f3dcf86f4422ed4de873186e2bbbb516fdc012102c6a2bd93b872c476ecbeee39efdfd1d1cf3bb748f8aa1932ddddc5d432ba5e3bfeffffff02041b0f000000000017a914fbdbcf3deb8610909dab54ec64b91d534842f81187a0d90800000000001976a914930402b8b535c053ebdd5080437ee7b97cd7d0e188ac024830450221009fe5c2ef1d9afa6be0081993a0289c6eb7b01c0e978025b74c54d30848cb0f8b022028ee5318f1da32cb5a2558d1666835930e0087136ba6bbfc6de4e73de32d1362012102f6b0d899d99e75111db0867bd5e7943f3fc0165193cd00a9f93e0b4a2ede38230014490800", "vin": [{"txinwitness": ["30450221009fe5c2ef1d9afa6be0081993a0289c6eb7b01c0e978025b74c54d30848cb0f8b022028ee5318f1da32cb5a2558d1666835930e0087136ba6bbfc6de4e73de32d136201", "02f6b0d899d99e75111db0867bd5e7943f3fc0165193cd00a9f93e0b4a2ede3823"], "sequence": 4294967294, "scriptSig": {"hex": "1600146d23a6a90da239b5f538a8bfa68511d5eeb9fb0d", "asm": "00146d23a6a90da239b5f538a8bfa68511d5eeb9fb0d"}, "vout": 2, "txid": "08a2f6f41a1742f2eabef37a2e6a26b20c94ad3f1755e642b43057634cfcec14"}, {"sequence": 4294967294, "scriptSig": {"hex": "47304402207e3de965b16860706788576b5550c9fa388406bc7f5ff57cbc58315ecacf0e5f02202a7aceabf9bf043fc02f237760293f3dcf86f4422ed4de873186e2bbbb516fdc012102c6a2bd93b872c476ecbeee39efdfd1d1cf3bb748f8aa1932ddddc5d432ba5e3b", "asm": "304402207e3de965b16860706788576b5550c9fa388406bc7f5ff57cbc58315ecacf0e5f02202a7aceabf9bf043fc02f237760293f3dcf86f4422ed4de873186e2bbbb516fdc[ALL] 02c6a2bd93b872c476ecbeee39efdfd1d1cf3bb748f8aa1932ddddc5d432ba5e3b"}, "vout": 0, "txid": "99178106bfffc6bc8c18bd6552f9f450a90f8948c9826f0805c21921982a0c38"}], "txid": "4b52e5eaf04fc0e488f303760e4a3e767d9a776f5681693de3bc8c9f0c7626e7", "blocktime": 1537873891, "version": 2, "confirmations": 11474, "time": 1537873891, "locktime": 542996, "vsize": 315, "size": 398}