{"hash": "783e595ec988dfc95bbd171ad50b241aa09f35536c3c41ec1492f8e0081f558e", "blockhash": "0000000000000000001f76057863aec43deb6fa401d9628bb513d65a8098bfab", "vout": [{"scriptPubKey": {"reqSigs": 1, "hex": "a914c8948f84ab8bc2187580e4fb86ecf2a0a06e11cf87", "addresses": ["3Kyb35jwJ7YCiAF7JRfW5VZdpyywKap5YB"], "asm": "OP_HASH160 c8948f84ab8bc2187580e4fb86ecf2a0a06e11cf OP_EQUAL", "type": "scripthash"}, "value": 8.768e-05, "n": 0}, {"scriptPubKey": {"reqSigs": 1, "hex": "a9141d7370ccde4590204155e4074f69743a8e4fac0287", "addresses": ["34Njp4ZKtmCDfqqps26wHBYQQGUo2pGkLi"], "asm": "OP_HASH160 1d7370ccde4590204155e4074f69743a8e4fac02 OP_EQUAL", "type": "scripthash"}, "value": 0.00040188, "n": 1}], "hex": "010000000001010ef2653c50e7cef7ea5bd925671910b4a53a3180b3315eb50b5a79c6b333a6c20000000023220020f63dfc12340f6360d0251c22746d6b56093e3243e96ca012a65484a5d9cf0ec0ffffffff02402200000000000017a914c8948f84ab8bc2187580e4fb86ecf2a0a06e11cf87fc9c00000000000017a9141d7370ccde4590204155e4074f69743a8e4fac0287040047304402203290fb2c426070be95f457001d8aae760fdcd54b6fd9903d2dc91064773ff6af02203132a66c655e1ebc28c21be1d718b8ee4120b9f3514b08982fba31b13fbadc7201483045022100aea4c55675c2f273dfeff0257ef40980713f638e5462eddb5f5374bcf32baac8022059986c734d7492b126bf07bd1453491f656953a4a3cf436f7b069e0d1c30b1690147522102097067a6a0cc130a9a6f6577b47bf369b840a79de31cd7457187994266b1bb7c2103338f346cab6ba87fe940591a03ac234be06520c5ab386d4b6632e8eef0d0db7652ae00000000", "vin": [{"txinwitness": ["", "304402203290fb2c426070be95f457001d8aae760fdcd54b6fd9903d2dc91064773ff6af02203132a66c655e1ebc28c21be1d718b8ee4120b9f3514b08982fba31b13fbadc7201", "3045022100aea4c55675c2f273dfeff0257ef40980713f638e5462eddb5f5374bcf32baac8022059986c734d7492b126bf07bd1453491f656953a4a3cf436f7b069e0d1c30b16901", "522102097067a6a0cc130a9a6f6577b47bf369b840a79de31cd7457187994266b1bb7c2103338f346cab6ba87fe940591a03ac234be06520c5ab386d4b6632e8eef0d0db7652ae"], "sequence": 4294967295, "scriptSig": {"hex": "220020f63dfc12340f6360d0251c22746d6b56093e3243e96ca012a65484a5d9cf0ec0", "asm": "0020f63dfc12340f6360d0251c22746d6b56093e3243e96ca012a65484a5d9cf0ec0"}, "vout": 0, "txid": "c2a633b3c6795a0bb55e31b380313aa5b410196725d95beaf7cee7503c65f20e"}], "txid": "4b5ce4f54776d8eb04e9d12025ebbdc20e3c8fb43b65777dfe2afb4e94835bc4", "blocktime": 1537873891, "version": 1, "confirmations": 11478, "time": 1537873891, "locktime": 0, "vsize": 206, "size": 371}