{"hash": "9c935d74a717641375d6dde39907064a8782e3352a423f3ef82ad08ea641d387", "blockhash": "00000000000000000018f53835495a110e01622372bf6ae95dc86f2b0ab887b0", "vout": [{"scriptPubKey": {"reqSigs": 1, "hex": "0014bba03c27eb84dcaa00614944611fd2e378e9308f", "addresses": ["bc1qhwsrcfltsnw25qrpf9zxz87juduwjvy0qrd2j8"], "asm": "0 bba03c27eb84dcaa00614944611fd2e378e9308f", "type": "witness_v0_keyhash"}, "value": 0.00316136, "n": 0}, {"scriptPubKey": {"reqSigs": 1, "hex": "a9141bc834fd0ff9ff14d7ecf6a093c289714838713a87", "addresses": ["34Dv1MAUi1pzyx1CGnXTkoWq8g9UVNznQL"], "asm": "OP_HASH160 1bc834fd0ff9ff14d7ecf6a093c289714838713a OP_EQUAL", "type": "scripthash"}, "value": 0.01083283, "n": 1}], "hex": "01000000000101aaf227e40b0ddbe2cc8cfd49d386adc91146130b46e3be4a0670d688380e04180000000017160014d142cf18175abce119ba2d626b31bf63b6e1438cffffffff02e8d2040000000000160014bba03c27eb84dcaa00614944611fd2e378e9308f938710000000000017a9141bc834fd0ff9ff14d7ecf6a093c289714838713a8702483045022100a49556c57f2c58b794d0ddb6ba66fef4161c278b97efe2950b59e52b2e3ab1f802200412296a3272210c8514634e337a88e3be5fb9966c835d5623b075da12a9712c012103e3515a10f34183c95b20ded6b359ac20df07c91f396c65df9141335fc580141c00000000", "vin": [{"txinwitness": ["3045022100a49556c57f2c58b794d0ddb6ba66fef4161c278b97efe2950b59e52b2e3ab1f802200412296a3272210c8514634e337a88e3be5fb9966c835d5623b075da12a9712c01", "03e3515a10f34183c95b20ded6b359ac20df07c91f396c65df9141335fc580141c"], "sequence": 4294967295, "scriptSig": {"hex": "160014d142cf18175abce119ba2d626b31bf63b6e1438c", "asm": "0014d142cf18175abce119ba2d626b31bf63b6e1438c"}, "vout": 0, "txid": "18040e3888d670064abee3460b134611c9ad86d349fd8ccce2db0d0be427f2aa"}], "txid": "4b5e35031c35050617972295e9f32798bf8b5903b688694fbc7018b4f0affa14", "blocktime": 1537870928, "version": 1, "confirmations": 11512, "time": 1537870928, "locktime": 0, "vsize": 165, "size": 247}