{"hash": "a17828ad5b2236e5bf07bd7b09421af02f09369f388b610f79a0c95b95b9d8ac", "blockhash": "0000000000000000001f0ddff1eddb255c1121bcd4da4f1bc9a0da00cae72433", "vout": [{"scriptPubKey": {"reqSigs": 1, "hex": "a914449a4903c5fbad9be70e35dc624007c304632b0c87", "addresses": ["37wkhWhMRW5HTCd9TGbzKHyaUtKYAnFRjx"], "asm": "OP_HASH160 449a4903c5fbad9be70e35dc624007c304632b0c OP_EQUAL", "type": "scripthash"}, "value": 1.21129661, "n": 0}, {"scriptPubKey": {"reqSigs": 1, "hex": "76a914abbff4fc8fb027190a13b902155a8cf4ff90e4c588ac", "addresses": ["1Gf8WD3jGzUhDtAvUGFcFvpvXqfpcmnGwT"], "asm": "OP_DUP OP_HASH160 abbff4fc8fb027190a13b902155a8cf4ff90e4c5 OP_EQUALVERIFY OP_CHECKSIG", "type": "pubkeyhash"}, "value": 0.051, "n": 1}], "hex": "020000000001017c898bf3c7ab85830956178f376a5306d44003dc4feb150b2728cc56428a030e00000000171600144f08b42a4ed7febedcf8f98471b2dcd8a2d2ecb7ffffffff02bd4a38070000000017a914449a4903c5fbad9be70e35dc624007c304632b0c87e0d14d00000000001976a914abbff4fc8fb027190a13b902155a8cf4ff90e4c588ac024730440220764fa629abc78d6bf6bc8d106af3b60e2286dccf36efbf9ba4b18e416914bcb0022076b15a40a16cb61deca9b4f6909e3705f79b6cc2964557bd8584a81fb3554cf401210368b49bb238682ee7081963051ae15874ef005351158f8fe5f80fabfff97199e600000000", "vin": [{"txinwitness": ["30440220764fa629abc78d6bf6bc8d106af3b60e2286dccf36efbf9ba4b18e416914bcb0022076b15a40a16cb61deca9b4f6909e3705f79b6cc2964557bd8584a81fb3554cf401", "0368b49bb238682ee7081963051ae15874ef005351158f8fe5f80fabfff97199e6"], "sequence": 4294967295, "scriptSig": {"hex": "1600144f08b42a4ed7febedcf8f98471b2dcd8a2d2ecb7", "asm": "00144f08b42a4ed7febedcf8f98471b2dcd8a2d2ecb7"}, "vout": 0, "txid": "0e038a4256cc28270b15eb4fdc0340d406536a378f1756098385abc7f38b897c"}], "txid": "4b633a6414e07d26f16fbc96e63343e76ce896ba2a3afbe1bee8e73ad3fc8a31", "blocktime": 1537872018, "version": 2, "confirmations": 11489, "time": 1537872018, "locktime": 0, "vsize": 168, "size": 249}