{"hash": "0de0e83605cf65e70edde163280fbdf6dcfcbc0797eadff2687deeb2a1fe4264", "blockhash": "0000000000000000000e13cef7c366c0283d82e591d1acd082e914b08063cdf1", "vout": [{"scriptPubKey": {"reqSigs": 1, "hex": "76a9140e9305e3efc01cae582493f7a23a5a86571e1aea88ac", "addresses": ["12L4b2MiDVrR2ee7LAuNzUEqapqc6YcdnK"], "asm": "OP_DUP OP_HASH160 0e9305e3efc01cae582493f7a23a5a86571e1aea OP_EQUALVERIFY OP_CHECKSIG", "type": "pubkeyhash"}, "value": 0.03633474, "n": 0}, {"scriptPubKey": {"reqSigs": 1, "hex": "001404f5b260dfa3a3e798b1f00bea9d0235f97467fc", "addresses": ["bc1qqn6mycxl5w370x937q9748gzxhuhgelu98xuq3"], "asm": "0 04f5b260dfa3a3e798b1f00bea9d0235f97467fc", "type": "witness_v0_keyhash"}, "value": 1.35453554, "n": 1}], "hex": "01000000000101a8c34291fbc770d5b310fdb3b9a14e4837dbff8c0aaf3f8d4baff44e2a9e50090100000000ffffffff0242713700000000001976a9140e9305e3efc01cae582493f7a23a5a86571e1aea88ac72db12080000000016001404f5b260dfa3a3e798b1f00bea9d0235f97467fc0247304402206d504586484cb924370dfb8b73594c7afa1f3727a66429573e688f195e79fcb802205abba0fa850d756189dc82d2ff889871227afb8c5621c705b99132245305296d012103f16b3fec50c68d0b1f05a2b0030667ff7f62231c2e55d638a1eac5a40c11af1700000000", "vin": [{"txinwitness": ["304402206d504586484cb924370dfb8b73594c7afa1f3727a66429573e688f195e79fcb802205abba0fa850d756189dc82d2ff889871227afb8c5621c705b99132245305296d01", "03f16b3fec50c68d0b1f05a2b0030667ff7f62231c2e55d638a1eac5a40c11af17"], "sequence": 4294967295, "scriptSig": {"hex": "", "asm": ""}, "vout": 1, "txid": "09509e2a4ef4af4b8d3faf0a8cffdb37484ea1b9b3fd10b3d570c7fb9142c3a8"}], "txid": "4b63dca4498d3f9c80c706836a6639416414521ffef191c82e12990774be68d1", "blocktime": 1537871767, "version": 1, "confirmations": 11495, "time": 1537871767, "locktime": 0, "vsize": 144, "size": 225}