{"hash": "4b6f4a8c65b3ebf4398abc6400a656798eccfb324594e6600d259c62f2bca1c5", "blockhash": "000000000000000000022b45ed06c6f4ccd3cf7fb5ba4856ebd2e58215665228", "vout": [{"scriptPubKey": {"reqSigs": 1, "hex": "76a9146a4cafb752d8d9a8d102ba85c2332396510476c288ac", "addresses": ["1Ah4VbgHZgjkU6piFnCcfNjxGhebECbDqN"], "asm": "OP_DUP OP_HASH160 6a4cafb752d8d9a8d102ba85c2332396510476c2 OP_EQUALVERIFY OP_CHECKSIG", "type": "pubkeyhash"}, "value": 4.364e-05, "n": 0}, {"scriptPubKey": {"reqSigs": 1, "hex": "76a9145c2df32b5c1d5adf6eee5297fde2e15b6402c82988ac", "addresses": ["19QQDJX84QU1KBBFAoFoPuqpVHpZ8wCCrn"], "asm": "OP_DUP OP_HASH160 5c2df32b5c1d5adf6eee5297fde2e15b6402c829 OP_EQUALVERIFY OP_CHECKSIG", "type": "pubkeyhash"}, "value": 0.09986923, "n": 1}], "hex": "010000000266258c275fd80b3e561bd9538f06635f3e30343d174c09af8ef21af329fa5753000000006a4730440220681b8d77005858c86dc90abf508f332499696642d59c1ac390c057b7dbac5bc70220686bf72fcd05c0c9ef92fc4b01265570be16e029b9cc17608138c710fa58504e012103988fc7297feb20708d49c9073381cbb105ddf4f3502734af87b131b56a2c8ba5ffffffffc55ad0955f34db5e94193ee812c00c8217cb54e8d1817fedac3546f925112485020000006a47304402200f6cd1bc982be2ec23280c39377c9d8905ae7f5ca2625745ac045ed324572b7402207aa1e697853bbd1fc1b8073d672a9e0ec488d3da723b802912d89eec30d28d720121020d59d985b01f6a7ed021503f8d7fff9b2bf4d7a4b0ebf0232e92679d36fe439affffffff020c110000000000001976a9146a4cafb752d8d9a8d102ba85c2332396510476c288ac6b639800000000001976a9145c2df32b5c1d5adf6eee5297fde2e15b6402c82988ac00000000", "vin": [{"sequence": 4294967295, "scriptSig": {"hex": "4730440220681b8d77005858c86dc90abf508f332499696642d59c1ac390c057b7dbac5bc70220686bf72fcd05c0c9ef92fc4b01265570be16e029b9cc17608138c710fa58504e012103988fc7297feb20708d49c9073381cbb105ddf4f3502734af87b131b56a2c8ba5", "asm": "30440220681b8d77005858c86dc90abf508f332499696642d59c1ac390c057b7dbac5bc70220686bf72fcd05c0c9ef92fc4b01265570be16e029b9cc17608138c710fa58504e[ALL] 03988fc7297feb20708d49c9073381cbb105ddf4f3502734af87b131b56a2c8ba5"}, "vout": 0, "txid": "5357fa29f31af28eaf094c173d34303e5f63068f53d91b563e0bd85f278c2566"}, {"sequence": 4294967295, "scriptSig": {"hex": "47304402200f6cd1bc982be2ec23280c39377c9d8905ae7f5ca2625745ac045ed324572b7402207aa1e697853bbd1fc1b8073d672a9e0ec488d3da723b802912d89eec30d28d720121020d59d985b01f6a7ed021503f8d7fff9b2bf4d7a4b0ebf0232e92679d36fe439a", "asm": "304402200f6cd1bc982be2ec23280c39377c9d8905ae7f5ca2625745ac045ed324572b7402207aa1e697853bbd1fc1b8073d672a9e0ec488d3da723b802912d89eec30d28d72[ALL] 020d59d985b01f6a7ed021503f8d7fff9b2bf4d7a4b0ebf0232e92679d36fe439a"}, "vout": 2, "txid": "85241125f94635aced7f81d1e854cb17820cc012e83e19945edb345f95d05ac5"}], "txid": "4b6f4a8c65b3ebf4398abc6400a656798eccfb324594e6600d259c62f2bca1c5", "blocktime": 1537869901, "version": 1, "confirmations": 11524, "time": 1537869901, "locktime": 0, "vsize": 372, "size": 372}