{"hash": "4b7232a9012c45e03cb297c60a6f2e462418ca9b2f466e8c4c3f8316d05274e5", "blockhash": "0000000000000000001f76057863aec43deb6fa401d9628bb513d65a8098bfab", "vout": [{"scriptPubKey": {"reqSigs": 1, "hex": "76a914408752eaa926256b405f6404ef68195b6dd043be88ac", "addresses": ["16tCMkGosDV3gghycpnXp2tTYjag44rzuy"], "asm": "OP_DUP OP_HASH160 408752eaa926256b405f6404ef68195b6dd043be OP_EQUALVERIFY OP_CHECKSIG", "type": "pubkeyhash"}, "value": 0.0266, "n": 0}, {"scriptPubKey": {"reqSigs": 1, "hex": "a914e370231feecbfc25e2e2423a5a79bf79bfdca59887", "addresses": ["3NRbeX3vD5VaVE4TDU9ivCDsEf7NPPte6J"], "asm": "OP_HASH160 e370231feecbfc25e2e2423a5a79bf79bfdca598 OP_EQUAL", "type": "scripthash"}, "value": 3.12211339, "n": 1}], "hex": "0100000001da8f5b55dc00caead77554a19eb69b94a120f89fd72754bed78995193d5f334901000000da0047304402207a35ba682207795d2433453540e0ecf04f589d5b57efe6fc34d70ac703de952d0220722074f1d8e6325d0ced4079240c4cd445590ecc97b50f206c747c6c4e8d414f01483045022100e931ce497f60881eda67044b42683768d7a5b82fe697e82a1d26f6205c82ca64022002215a4e47e9931697047b18709d0368486b0d38da6d1d17e2e0014af1e0e7c3014752210327881b6abce6535553a3ce21fad12a7d74fd237ce7c4cd270a267162344e3082210256141f8eb687f5a68c5cc65054652dc25116fa285e44d72b44368827ffe77d9a52aeffffffff02a0962800000000001976a914408752eaa926256b405f6404ef68195b6dd043be88ac8bf79b120000000017a914e370231feecbfc25e2e2423a5a79bf79bfdca5988700000000", "vin": [{"sequence": 4294967295, "scriptSig": {"hex": "0047304402207a35ba682207795d2433453540e0ecf04f589d5b57efe6fc34d70ac703de952d0220722074f1d8e6325d0ced4079240c4cd445590ecc97b50f206c747c6c4e8d414f01483045022100e931ce497f60881eda67044b42683768d7a5b82fe697e82a1d26f6205c82ca64022002215a4e47e9931697047b18709d0368486b0d38da6d1d17e2e0014af1e0e7c3014752210327881b6abce6535553a3ce21fad12a7d74fd237ce7c4cd270a267162344e3082210256141f8eb687f5a68c5cc65054652dc25116fa285e44d72b44368827ffe77d9a52ae", "asm": "0 304402207a35ba682207795d2433453540e0ecf04f589d5b57efe6fc34d70ac703de952d0220722074f1d8e6325d0ced4079240c4cd445590ecc97b50f206c747c6c4e8d414f[ALL] 3045022100e931ce497f60881eda67044b42683768d7a5b82fe697e82a1d26f6205c82ca64022002215a4e47e9931697047b18709d0368486b0d38da6d1d17e2e0014af1e0e7c3[ALL] 52210327881b6abce6535553a3ce21fad12a7d74fd237ce7c4cd270a267162344e3082210256141f8eb687f5a68c5cc65054652dc25116fa285e44d72b44368827ffe77d9a52ae"}, "vout": 1, "txid": "49335f3d199589d7be5427d79ff820a1949bb69ea15475d7eaca00dc555b8fda"}], "txid": "4b7232a9012c45e03cb297c60a6f2e462418ca9b2f466e8c4c3f8316d05274e5", "blocktime": 1537873891, "version": 1, "confirmations": 11478, "time": 1537873891, "locktime": 0, "vsize": 335, "size": 335}