{"hash": "a12751f1bf1ecc9375bf21ccb5a0ee756fcecac66a5fe3d08662cda5439ae54c", "blockhash": "00000000000000000018f53835495a110e01622372bf6ae95dc86f2b0ab887b0", "vout": [{"scriptPubKey": {"reqSigs": 1, "hex": "a91430897cc6c9d69f6a2c2f1c651d51f22219f1a4f687", "addresses": ["367f4YWz1VCFaqBqwbTrzwi2b1h2U3w1AF"], "asm": "OP_HASH160 30897cc6c9d69f6a2c2f1c651d51f22219f1a4f6 OP_EQUAL", "type": "scripthash"}, "value": 0.27126592, "n": 0}, {"scriptPubKey": {"reqSigs": 1, "hex": "a9140299d28700ff32d9c2701b456208df49c66541ff87", "addresses": ["31vmYhAG8dWN9CyUhYs23FrTrZ29LNGvtX"], "asm": "OP_HASH160 0299d28700ff32d9c2701b456208df49c66541ff OP_EQUAL", "type": "scripthash"}, "value": 0.0754696, "n": 1}], "hex": "010000000001016d437e9e832d6b285461198fc2e487920ff76f9927ee0a1e1acaab9ddffab1420000000023220020bcf9f822194145acea0f3235f4107b5bf1a91b6b9f8489f63bf79ec29b360913ffffffff0240eb9d010000000017a91430897cc6c9d69f6a2c2f1c651d51f22219f1a4f687502873000000000017a9140299d28700ff32d9c2701b456208df49c66541ff870400483045022100b21e094ccbf719fbb1ebdd5cf86fd36005e5690c4e615750f9ea9e25db8ee75202204082169944956702d418c2becaabb7a37709f9a9333aa1f483b0f99d4f6be04a0147304402206b3d6a4c861004748955ae26d0c81f2d50433e1e05074eadbf551008240569fb02202425f754e9822a5f26364b8480ea059a4e59d86f2329f9be7ef8e199a2b07b9901695221026c8f72b9e63db63907115e65d4da86eaae595b22fdc85ec75301bb4adbf203582103806535be3e3920e5eedee92de5714188fd6a784f2bf7b04f87de0b9c3ae1ecdb21024b23bfdce2afcae7e28c42f7f79aa100f22931712c52d7414a526ba494d44a2553ae00000000", "vin": [{"txinwitness": ["", "3045022100b21e094ccbf719fbb1ebdd5cf86fd36005e5690c4e615750f9ea9e25db8ee75202204082169944956702d418c2becaabb7a37709f9a9333aa1f483b0f99d4f6be04a01", "304402206b3d6a4c861004748955ae26d0c81f2d50433e1e05074eadbf551008240569fb02202425f754e9822a5f26364b8480ea059a4e59d86f2329f9be7ef8e199a2b07b9901", "5221026c8f72b9e63db63907115e65d4da86eaae595b22fdc85ec75301bb4adbf203582103806535be3e3920e5eedee92de5714188fd6a784f2bf7b04f87de0b9c3ae1ecdb21024b23bfdce2afcae7e28c42f7f79aa100f22931712c52d7414a526ba494d44a2553ae"], "sequence": 4294967295, "scriptSig": {"hex": "220020bcf9f822194145acea0f3235f4107b5bf1a91b6b9f8489f63bf79ec29b360913", "asm": "0020bcf9f822194145acea0f3235f4107b5bf1a91b6b9f8489f63bf79ec29b360913"}, "vout": 0, "txid": "42b1fadf9dabca1a1e0aee27996ff70f9287e4c28f196154286b2d839e7e436d"}], "txid": "4b737f3b9eff27f0d5b43aa6986c4c3527492d3adba446f1e98c664431f55dbf", "blocktime": 1537870928, "version": 1, "confirmations": 11512, "time": 1537870928, "locktime": 0, "vsize": 214, "size": 405}