{"hash": "4b7409e1780c74869ee4d3d4aa36f64c692222fa77bbf1c1e1203234e06cefb5", "blockhash": "0000000000000000000e13cef7c366c0283d82e591d1acd082e914b08063cdf1", "vout": [{"scriptPubKey": {"type": "nulldata", "hex": "6a146f6d6e69000000000000001f000001c72c65f8c0", "asm": "OP_RETURN 6f6d6e69000000000000001f000001c72c65f8c0"}, "value": 0.0, "n": 0}, {"scriptPubKey": {"reqSigs": 1, "hex": "76a91426edf64b3658a38cd9f30805ad6e6bdefd537b2e88ac", "addresses": ["14YqkBjeRQg7C6Rfni6An7Vx2rBSok8oVe"], "asm": "OP_DUP OP_HASH160 26edf64b3658a38cd9f30805ad6e6bdefd537b2e OP_EQUALVERIFY OP_CHECKSIG", "type": "pubkeyhash"}, "value": 0.00224349, "n": 1}, {"scriptPubKey": {"reqSigs": 1, "hex": "76a914a25dec4d0011064ef106a983c39c7a540699f22088ac", "addresses": ["1FoWyxwPXuj4C6abqwhjDWdz6D4PZgYRjA"], "asm": "OP_DUP OP_HASH160 a25dec4d0011064ef106a983c39c7a540699f220 OP_EQUALVERIFY OP_CHECKSIG", "type": "pubkeyhash"}, "value": 5.46e-06, "n": 2}], "hex": "0100000005711ceb65f4bf8aaa30525adba4c4d91d9edc3f410e00483476104387c8acfb1c02000000694630430220441fa6629ce15e86ddc345730fd4e8c213c54dcf7598523716ebdcafd819e538021f48019830ac6e0c4aa04ed2bf636ec2a961125732edacba8f3ba5758ee5e0f10121028e439b5bcfcdcbb5ad732c14a912ea82bdb7143c40b0b3883c24844e9173a6a1feffffff9ead03c5503b7d013c32fd887b64f8f4175012137ab9ff190c2329b8f5f7bdd9020000006b48304502210094b195e2ad845db1df77cb1127b09ba13514cc894d40f10b18d07c93d89a3b7902201782b66d41c3b6f68c5fa70b14a2e1888e1593875cd8392bb862e46bd95f6cdc0121028e439b5bcfcdcbb5ad732c14a912ea82bdb7143c40b0b3883c24844e9173a6a1feffffffb5573e605f59fd4be1d4e0e229d03aefc2978cc91958e74c49654159e7331f38010000006a47304402200a4574f1f5095c701836498c0a10ad459e9053a68986789b82959893a6d8cd6902201c20328acfa51368d1d830f80d37d8562bbb87c929d202602aa1aedc851a5cc90121028e439b5bcfcdcbb5ad732c14a912ea82bdb7143c40b0b3883c24844e9173a6a1feffffffa135fcb8af6cb1dcfd3487ad574ab1cd0a4e75d7909d3062bddd008e66ce108f020000006a473044022054aec334721633687e6f2d24741ddfa4458e876aadac7f15a7b0d5a7760e76500220083c641f78efb8fd3f93eee9502cec619e0527a9a835921c2f91c7d1050332da0121028e439b5bcfcdcbb5ad732c14a912ea82bdb7143c40b0b3883c24844e9173a6a1feffffff799ee799117e2370128f952827d86259ed82f2c944366c9311e08b0527737c56020000006a473044022072b7ad948aea4f9b29a3457c28d1aa4d756693c8f2c3c0b8ce16ac4b24cd3f3502204853d291a2e7965589562ece65b8db8fed3e0163b78f1d3b776969f1d98bda2e0121028e439b5bcfcdcbb5ad732c14a912ea82bdb7143c40b0b3883c24844e9173a6a1feffffff030000000000000000166a146f6d6e69000000000000001f000001c72c65f8c05d6c0300000000001976a91426edf64b3658a38cd9f30805ad6e6bdefd537b2e88ac22020000000000001976a914a25dec4d0011064ef106a983c39c7a540699f22088ac10490800", "vin": [{"sequence": 4294967294, "scriptSig": {"hex": "4630430220441fa6629ce15e86ddc345730fd4e8c213c54dcf7598523716ebdcafd819e538021f48019830ac6e0c4aa04ed2bf636ec2a961125732edacba8f3ba5758ee5e0f10121028e439b5bcfcdcbb5ad732c14a912ea82bdb7143c40b0b3883c24844e9173a6a1", "asm": "30430220441fa6629ce15e86ddc345730fd4e8c213c54dcf7598523716ebdcafd819e538021f48019830ac6e0c4aa04ed2bf636ec2a961125732edacba8f3ba5758ee5e0f1[ALL] 028e439b5bcfcdcbb5ad732c14a912ea82bdb7143c40b0b3883c24844e9173a6a1"}, "vout": 2, "txid": "1cfbacc8874310763448000e413fdc9e1dd9c4a4db5a5230aa8abff465eb1c71"}, {"sequence": 4294967294, "scriptSig": {"hex": "48304502210094b195e2ad845db1df77cb1127b09ba13514cc894d40f10b18d07c93d89a3b7902201782b66d41c3b6f68c5fa70b14a2e1888e1593875cd8392bb862e46bd95f6cdc0121028e439b5bcfcdcbb5ad732c14a912ea82bdb7143c40b0b3883c24844e9173a6a1", "asm": "304502210094b195e2ad845db1df77cb1127b09ba13514cc894d40f10b18d07c93d89a3b7902201782b66d41c3b6f68c5fa70b14a2e1888e1593875cd8392bb862e46bd95f6cdc[ALL] 028e439b5bcfcdcbb5ad732c14a912ea82bdb7143c40b0b3883c24844e9173a6a1"}, "vout": 2, "txid": "d9bdf7f5b829230c19ffb97a13125017f4f8647b88fd323c017d3b50c503ad9e"}, {"sequence": 4294967294, "scriptSig": {"hex": "47304402200a4574f1f5095c701836498c0a10ad459e9053a68986789b82959893a6d8cd6902201c20328acfa51368d1d830f80d37d8562bbb87c929d202602aa1aedc851a5cc90121028e439b5bcfcdcbb5ad732c14a912ea82bdb7143c40b0b3883c24844e9173a6a1", "asm": "304402200a4574f1f5095c701836498c0a10ad459e9053a68986789b82959893a6d8cd6902201c20328acfa51368d1d830f80d37d8562bbb87c929d202602aa1aedc851a5cc9[ALL] 028e439b5bcfcdcbb5ad732c14a912ea82bdb7143c40b0b3883c24844e9173a6a1"}, "vout": 1, "txid": "381f33e7594165494ce75819c98c97c2ef3ad029e2e0d4e14bfd595f603e57b5"}, {"sequence": 4294967294, "scriptSig": {"hex": "473044022054aec334721633687e6f2d24741ddfa4458e876aadac7f15a7b0d5a7760e76500220083c641f78efb8fd3f93eee9502cec619e0527a9a835921c2f91c7d1050332da0121028e439b5bcfcdcbb5ad732c14a912ea82bdb7143c40b0b3883c24844e9173a6a1", "asm": "3044022054aec334721633687e6f2d24741ddfa4458e876aadac7f15a7b0d5a7760e76500220083c641f78efb8fd3f93eee9502cec619e0527a9a835921c2f91c7d1050332da[ALL] 028e439b5bcfcdcbb5ad732c14a912ea82bdb7143c40b0b3883c24844e9173a6a1"}, "vout": 2, "txid": "8f10ce668e00ddbd62309d90d7754e0acdb14a57ad8734fddcb16cafb8fc35a1"}, {"sequence": 4294967294, "scriptSig": {"hex": "473044022072b7ad948aea4f9b29a3457c28d1aa4d756693c8f2c3c0b8ce16ac4b24cd3f3502204853d291a2e7965589562ece65b8db8fed3e0163b78f1d3b776969f1d98bda2e0121028e439b5bcfcdcbb5ad732c14a912ea82bdb7143c40b0b3883c24844e9173a6a1", "asm": "3044022072b7ad948aea4f9b29a3457c28d1aa4d756693c8f2c3c0b8ce16ac4b24cd3f3502204853d291a2e7965589562ece65b8db8fed3e0163b78f1d3b776969f1d98bda2e[ALL] 028e439b5bcfcdcbb5ad732c14a912ea82bdb7143c40b0b3883c24844e9173a6a1"}, "vout": 2, "txid": "567c7327058be011936c3644c9f282ed5962d82728958f1270237e1199e79e79"}], "txid": "4b7409e1780c74869ee4d3d4aa36f64c692222fa77bbf1c1e1203234e06cefb5", "blocktime": 1537871767, "version": 1, "confirmations": 11495, "time": 1537871767, "locktime": 542992, "vsize": 844, "size": 844}