{"hash": "11f428a184f16fcf7dd2fdb699a3de55c57f08e7604f551cde7df861d6b4f42d", "blockhash": "0000000000000000001cda96e906b7601b7a6fb1a3b62bca570a9e5d8f4b3de1", "vout": [{"scriptPubKey": {"reqSigs": 1, "hex": "a914fef7ffb7117eb534e73a284f96b23fb7ae66326187", "addresses": ["3QwAeXtkzG4WrHBNYGQmrBcr6qxTrJjjYx"], "asm": "OP_HASH160 fef7ffb7117eb534e73a284f96b23fb7ae663261 OP_EQUAL", "type": "scripthash"}, "value": 0.03166213, "n": 0}, {"scriptPubKey": {"reqSigs": 1, "hex": "a9141988a27e3c2df4ddee7fad5a2303d086179b2a3087", "addresses": ["3422VtS7UtCvXYxoXMVp6eZupR252z85oC"], "asm": "OP_HASH160 1988a27e3c2df4ddee7fad5a2303d086179b2a30 OP_EQUAL", "type": "scripthash"}, "value": 0.21542965, "n": 1}, {"scriptPubKey": {"reqSigs": 1, "hex": "a9143face514b18831db764567bd4c0eb78127710bde87", "addresses": ["37VhcaDyydZdWXqd96UPuqh2up4fpzzMLB"], "asm": "OP_HASH160 3face514b18831db764567bd4c0eb78127710bde OP_EQUAL", "type": "scripthash"}, "value": 0.00187, "n": 2}], "hex": "010000000001019d99efc663d305d9703cd7fa27dd7665de4c5dd5082ba212d0b395d0cd06312c010000002322002065d416c48a8072e0ac51c2d111eb194f009caef0332446c1bf2097316cf07fa9ffffffff03055030000000000017a914fef7ffb7117eb534e73a284f96b23fb7ae6632618735b848010000000017a9141988a27e3c2df4ddee7fad5a2303d086179b2a308778da02000000000017a9143face514b18831db764567bd4c0eb78127710bde870400483045022100c550a5223a724f67e578e46f5ab12c7943df443434b04182c6f1e499444e9202022062f99edfff3c0d4adca4406e2f8045bb32822c1f9883054e24d43a4250e22d8201483045022100fa3ee82d509930dfb24704fd7f56ac52f13effc79e5ed04a91269680403450360220305f416c2b5b40b041921d42412525f766c503e7e44fe912ebb4ba8308ca7b830169522102f44abcf9e23c9a460da309ccca56c619c04eed3bde2c2cff5e7d78fbcd980b9c2103c9443cf3047bb6c2c82f1b0c44c36109cdc3d0d601d16d1189a1602bf8d1a0a02103bfe867059274412412e088af5572b92168c2ef495cfe6c9b7a753a009eb37c4853ae00000000", "vin": [{"txinwitness": ["", "3045022100c550a5223a724f67e578e46f5ab12c7943df443434b04182c6f1e499444e9202022062f99edfff3c0d4adca4406e2f8045bb32822c1f9883054e24d43a4250e22d8201", "3045022100fa3ee82d509930dfb24704fd7f56ac52f13effc79e5ed04a91269680403450360220305f416c2b5b40b041921d42412525f766c503e7e44fe912ebb4ba8308ca7b8301", "522102f44abcf9e23c9a460da309ccca56c619c04eed3bde2c2cff5e7d78fbcd980b9c2103c9443cf3047bb6c2c82f1b0c44c36109cdc3d0d601d16d1189a1602bf8d1a0a02103bfe867059274412412e088af5572b92168c2ef495cfe6c9b7a753a009eb37c4853ae"], "sequence": 4294967295, "scriptSig": {"hex": "22002065d416c48a8072e0ac51c2d111eb194f009caef0332446c1bf2097316cf07fa9", "asm": "002065d416c48a8072e0ac51c2d111eb194f009caef0332446c1bf2097316cf07fa9"}, "vout": 1, "txid": "2c3106cdd095b3d012a22b08d55d4cde6576dd27fad73c70d905d363c6ef999d"}], "txid": "4b7801e51669395a67ddc8d361f8e8c2f1f8e87f52e3a9289839062ab1e8e201", "blocktime": 1537873282, "version": 1, "confirmations": 11482, "time": 1537873282, "locktime": 0, "vsize": 246, "size": 438}