{"hash": "6dce02dc8c9129fe918454b08b92e3ccd9a47e31182e422553c56fca81f0519b", "blockhash": "00000000000000000017f5eb5941039fbcee6240d03bc1f2f8e35350df66a1d8", "vout": [{"scriptPubKey": {"reqSigs": 1, "hex": "76a9145b6952f4521124d244b5dfbd61bf2dc45e4c964b88ac", "addresses": ["19LLfVxJdHj9ZS4UBNMA1Y9yJUzqkQr8Dy"], "asm": "OP_DUP OP_HASH160 5b6952f4521124d244b5dfbd61bf2dc45e4c964b OP_EQUALVERIFY OP_CHECKSIG", "type": "pubkeyhash"}, "value": 0.00214968, "n": 0}, {"scriptPubKey": {"reqSigs": 1, "hex": "00141ce571b853ab263fd1f4680adf751d4141c8a5d6", "addresses": ["bc1qrnjhrwzn4vnrl505dq9d7agag9qu3fwkh7zv98"], "asm": "0 1ce571b853ab263fd1f4680adf751d4141c8a5d6", "type": "witness_v0_keyhash"}, "value": 2.758e-05, "n": 1}], "hex": "0100000000010177f7c17a6900451dce0de6ae8ef738957ccf7bc5cfacb304d61e7606ffc90a780100000000ffffffff02b8470300000000001976a9145b6952f4521124d244b5dfbd61bf2dc45e4c964b88acc60a0000000000001600141ce571b853ab263fd1f4680adf751d4141c8a5d602483045022100b1fa694d33f0641ec057c69cbdb1ca464b58a99c9c3195e991d8d787456bc6cf022072642078cc1a01c62ceb5f0522c8561d80b48a5ab6943fa146f6d25c11406ba201210224a60134d5a5440a049a268668b8df7e8498ddddc587a7caf9cd95352bc53cf500000000", "vin": [{"txinwitness": ["3045022100b1fa694d33f0641ec057c69cbdb1ca464b58a99c9c3195e991d8d787456bc6cf022072642078cc1a01c62ceb5f0522c8561d80b48a5ab6943fa146f6d25c11406ba201", "0224a60134d5a5440a049a268668b8df7e8498ddddc587a7caf9cd95352bc53cf5"], "sequence": 4294967295, "scriptSig": {"hex": "", "asm": ""}, "vout": 1, "txid": "780ac9ff06761ed604b3accfc57bcf7c9538f78eaee60dce1d4500697ac1f777"}], "txid": "4b7d2cb47dcb2f39dcb8af0a442b971550720c6486ec689cfeb1325d5375ebd6", "blocktime": 1537874412, "version": 1, "confirmations": 11467, "time": 1537874412, "locktime": 0, "vsize": 144, "size": 226}