{"hash": "4b7ee4d0888bf06a29befb41c451c4af6b5d2c65dc1ceaa99974f4fb3146dd82", "blockhash": "00000000000000000017f5eb5941039fbcee6240d03bc1f2f8e35350df66a1d8", "vout": [{"scriptPubKey": {"reqSigs": 1, "hex": "a9142a28845b7244446943a5599f81c245f41adf513887", "addresses": ["35Xvqmm9G7QQSembx1Uv378gqFCYwStgqs"], "asm": "OP_HASH160 2a28845b7244446943a5599f81c245f41adf5138 OP_EQUAL", "type": "scripthash"}, "value": 0.878084, "n": 0}, {"scriptPubKey": {"reqSigs": 1, "hex": "76a9146bff8764321ce6c051d944de2d45eaecda344d1488ac", "addresses": ["1Ar3Qz2RNZ6j3HD59BnSyLVEfJiWASfqf7"], "asm": "OP_DUP OP_HASH160 6bff8764321ce6c051d944de2d45eaecda344d14 OP_EQUALVERIFY OP_CHECKSIG", "type": "pubkeyhash"}, "value": 9.46037514, "n": 1}], "hex": "0100000001fe72f3869982fa9420b6fde24485b23bd0e3ffa448b26eca78d240d196ebe87d010000008a473044022037ef776e3ed2569340e0a89af94f94ac7001b9dfac536fb6c756085aeb7539730220183f543824d95510a63a0e79d44904bb51f0bdfefce35b9ebffc4a81d5c38cbe014104a30e2037100d8fdde70cf95150c21c17317e3d41bda9506b9ec5a7fe4c0de829a612a568acc590b0c7d8b6eb840f9d599f7c7eb7c2a20d2e207fbe5751d9986dfdffffff0290d93b050000000017a9142a28845b7244446943a5599f81c245f41adf5138870a636338000000001976a9146bff8764321ce6c051d944de2d45eaecda344d1488ac15490800", "vin": [{"sequence": 4294967293, "scriptSig": {"hex": "473044022037ef776e3ed2569340e0a89af94f94ac7001b9dfac536fb6c756085aeb7539730220183f543824d95510a63a0e79d44904bb51f0bdfefce35b9ebffc4a81d5c38cbe014104a30e2037100d8fdde70cf95150c21c17317e3d41bda9506b9ec5a7fe4c0de829a612a568acc590b0c7d8b6eb840f9d599f7c7eb7c2a20d2e207fbe5751d9986d", "asm": "3044022037ef776e3ed2569340e0a89af94f94ac7001b9dfac536fb6c756085aeb7539730220183f543824d95510a63a0e79d44904bb51f0bdfefce35b9ebffc4a81d5c38cbe[ALL] 04a30e2037100d8fdde70cf95150c21c17317e3d41bda9506b9ec5a7fe4c0de829a612a568acc590b0c7d8b6eb840f9d599f7c7eb7c2a20d2e207fbe5751d9986d"}, "vout": 1, "txid": "7de8eb96d140d278ca6eb248a4ffe3d03bb28544e2fdb62094fa829986f372fe"}], "txid": "4b7ee4d0888bf06a29befb41c451c4af6b5d2c65dc1ceaa99974f4fb3146dd82", "blocktime": 1537874412, "version": 1, "confirmations": 11467, "time": 1537874412, "locktime": 542997, "vsize": 255, "size": 255}