{"hash": "95caf2a0cc5d5646fbdaabe92710355e95fb7996d4d5fb6e0a6a2fa6ad1e66c1", "blockhash": "0000000000000000001e0dab787dd257d1dbfcb92a98c2207d5e1078be1f4165", "vout": [{"scriptPubKey": {"reqSigs": 1, "hex": "a914a6c7afa90b428fec9295abc6a9e5a48360afac3e87", "addresses": ["3GtsJpsRN4zGMCoPUqtALsRKFpABHcfRB1"], "asm": "OP_HASH160 a6c7afa90b428fec9295abc6a9e5a48360afac3e OP_EQUAL", "type": "scripthash"}, "value": 0.168109, "n": 0}, {"scriptPubKey": {"reqSigs": 1, "hex": "a9148a0e56fa126b00989e0b5ce25862327dfd1dac7a87", "addresses": ["3EGzMMpt83gznYY1jqLCT4Vay8AtFhs1Jx"], "asm": "OP_HASH160 8a0e56fa126b00989e0b5ce25862327dfd1dac7a OP_EQUAL", "type": "scripthash"}, "value": 0.00996476, "n": 1}], "hex": "0200000000010310baf6ac2a6d6e877668d1ebfbbc13dd6acac05240bfeaf6b67e705393af24580100000017160014a449a3533e6e6c59e5b5ef2043088f5e7dd82497feffffff10f4db814023c4533b10f35211f5ee885439951a522a6568811afa1cbaccebcf0000000017160014c0892e7d77b82116669fc85356fd393b65566cc4feffffff718c0d548c0945019831a6f4a5c6010c41c5e84131d8f7bdcf0ba9208f2b3c8a0100000017160014aecf9b26bdce45f2a2edf500fe3b966083fe30cffeffffff02948300010000000017a914a6c7afa90b428fec9295abc6a9e5a48360afac3e877c340f000000000017a9148a0e56fa126b00989e0b5ce25862327dfd1dac7a87024730440220457c48bbc05741fc8186c064ad78bc0e54b65134ea046ea8dd95efb0a51c79a002205b675b491cc922cc4c066180c8e93e6bb9f82ca12206b874a39773132e40c74901210392c3d71040e3dd651b9840229d128e3f659ecc099d9c9a8073c93e1bd924ecb00248304502210086b4603d7d6e2f7951c4a96d5c813e61a79415347a637ec4dd372c0913b3b8a20220232ad4fcb5cfb76671a99be74481264468c1d14d7bdf637d3141a5e74416ebbb012102cd90f1894c757fbfcf817cdee73ed10a06404e17d0788241c0cf0ae73708100302473044022032b55ef59e62f0c0977da7fec52b43c00be729ba2e8916e7a730205312807cd402204389b294b99e985f17a297c33783f7e902f757be09bf2fc79660e4355385a3f60121036a2eaa0d6d1254909abc4a02008b1e264eb66ccbbadbd479431a352a21663ae211490800", "vin": [{"txinwitness": ["30440220457c48bbc05741fc8186c064ad78bc0e54b65134ea046ea8dd95efb0a51c79a002205b675b491cc922cc4c066180c8e93e6bb9f82ca12206b874a39773132e40c74901", "0392c3d71040e3dd651b9840229d128e3f659ecc099d9c9a8073c93e1bd924ecb0"], "sequence": 4294967294, "scriptSig": {"hex": "160014a449a3533e6e6c59e5b5ef2043088f5e7dd82497", "asm": "0014a449a3533e6e6c59e5b5ef2043088f5e7dd82497"}, "vout": 1, "txid": "5824af9353707eb6f6eabf4052c0ca6add13bcfbebd16876876e6d2aacf6ba10"}, {"txinwitness": ["304502210086b4603d7d6e2f7951c4a96d5c813e61a79415347a637ec4dd372c0913b3b8a20220232ad4fcb5cfb76671a99be74481264468c1d14d7bdf637d3141a5e74416ebbb01", "02cd90f1894c757fbfcf817cdee73ed10a06404e17d0788241c0cf0ae737081003"], "sequence": 4294967294, "scriptSig": {"hex": "160014c0892e7d77b82116669fc85356fd393b65566cc4", "asm": "0014c0892e7d77b82116669fc85356fd393b65566cc4"}, "vout": 0, "txid": "cfebccba1cfa1a8168652a521a95395488eef51152f3103b53c4234081dbf410"}, {"txinwitness": ["3044022032b55ef59e62f0c0977da7fec52b43c00be729ba2e8916e7a730205312807cd402204389b294b99e985f17a297c33783f7e902f757be09bf2fc79660e4355385a3f601", "036a2eaa0d6d1254909abc4a02008b1e264eb66ccbbadbd479431a352a21663ae2"], "sequence": 4294967294, "scriptSig": {"hex": "160014aecf9b26bdce45f2a2edf500fe3b966083fe30cf", "asm": "0014aecf9b26bdce45f2a2edf500fe3b966083fe30cf"}, "vout": 1, "txid": "8a3c2b8f20a90bcfbdf7d83141e8c5410c01c6a5f4a631980145098c540d8c71"}], "txid": "4b7e1936e64b7a50c3d6863476c0388b29c66ed2b6106a5e73fd9278e815fe2a", "blocktime": 1537872475, "version": 2, "confirmations": 11486, "time": 1537872475, "locktime": 542993, "vsize": 347, "size": 590}