{"hash": "4b87be0f041c7ccde737fdf87d393f09e6c5b74368d6a285b271f5b16e626e7b", "blockhash": "0000000000000000001f0ddff1eddb255c1121bcd4da4f1bc9a0da00cae72433", "vout": [{"scriptPubKey": {"reqSigs": 1, "hex": "76a914a01b20e94bef59461fb9126db0f3e12e1a4dd93088ac", "addresses": ["1FbZccrnjboGjBpLwxyqg33335qqV1EBm7"], "asm": "OP_DUP OP_HASH160 a01b20e94bef59461fb9126db0f3e12e1a4dd930 OP_EQUALVERIFY OP_CHECKSIG", "type": "pubkeyhash"}, "value": 0.32894827, "n": 0}, {"scriptPubKey": {"reqSigs": 1, "hex": "76a914d28607035c0ca298886ab9346728c7ddac781d2388ac", "addresses": ["1LC9TfvR3sRF132X2RFqTC1R6qCoQQqQea"], "asm": "OP_DUP OP_HASH160 d28607035c0ca298886ab9346728c7ddac781d23 OP_EQUALVERIFY OP_CHECKSIG", "type": "pubkeyhash"}, "value": 0.45053455, "n": 1}, {"scriptPubKey": {"reqSigs": 1, "hex": "76a91479d9dab711af22551681bfe8275c4cfd8a8d1b4d88ac", "addresses": ["1C7HjzraJ6SCGazoktF1AytjBZrmZ7Z6mE"], "asm": "OP_DUP OP_HASH160 79d9dab711af22551681bfe8275c4cfd8a8d1b4d OP_EQUALVERIFY OP_CHECKSIG", "type": "pubkeyhash"}, "value": 0.022, "n": 2}], "hex": "0100000001e50a5d1f639d3dc7fa61b6bf1016b8a6066d99ffd02feaf412c57213fa6a9415000000006b483045022100c875b5a4b6b868d1eb6458848f55a0999243284d840a24ab000a917a8db0dd3b02204142470d595dc11d86580597026523ec97a4784e0779c43be97d9b7b172709ab01210290d483281942e0e613e4c763eec2b4e6fbe607784b851bc9fe70cb5aa1082431ffffffff036beff501000000001976a914a01b20e94bef59461fb9126db0f3e12e1a4dd93088ac0f76af02000000001976a914d28607035c0ca298886ab9346728c7ddac781d2388acc0912100000000001976a91479d9dab711af22551681bfe8275c4cfd8a8d1b4d88ac00000000", "vin": [{"sequence": 4294967295, "scriptSig": {"hex": "483045022100c875b5a4b6b868d1eb6458848f55a0999243284d840a24ab000a917a8db0dd3b02204142470d595dc11d86580597026523ec97a4784e0779c43be97d9b7b172709ab01210290d483281942e0e613e4c763eec2b4e6fbe607784b851bc9fe70cb5aa1082431", "asm": "3045022100c875b5a4b6b868d1eb6458848f55a0999243284d840a24ab000a917a8db0dd3b02204142470d595dc11d86580597026523ec97a4784e0779c43be97d9b7b172709ab[ALL] 0290d483281942e0e613e4c763eec2b4e6fbe607784b851bc9fe70cb5aa1082431"}, "vout": 0, "txid": "15946afa1372c512f4ea2fd0ff996d06a6b81610bfb661fac73d9d631f5d0ae5"}], "txid": "4b87be0f041c7ccde737fdf87d393f09e6c5b74368d6a285b271f5b16e626e7b", "blocktime": 1537872018, "version": 1, "confirmations": 11489, "time": 1537872018, "locktime": 0, "vsize": 260, "size": 260}