{"hash": "f20220bb4170ae335444ee71566f7d07855b22f8955962fbb7b12a03667dba05", "blockhash": "0000000000000000000e13cef7c366c0283d82e591d1acd082e914b08063cdf1", "vout": [{"scriptPubKey": {"reqSigs": 1, "hex": "00143182bcc9a8d4c4f3d3b337c9d60c6fddf72a12ba", "addresses": ["bc1qxxptejdg6nz085anxlyavrr0mhmj5y46rm8d6q"], "asm": "0 3182bcc9a8d4c4f3d3b337c9d60c6fddf72a12ba", "type": "witness_v0_keyhash"}, "value": 0.00023579, "n": 0}, {"scriptPubKey": {"reqSigs": 1, "hex": "76a9144f07954cab2e3d1eba083e932aa7416e9e3a766588ac", "addresses": ["18CsU3bDYP9oSds2fzURwN26hzy6drmADX"], "asm": "OP_DUP OP_HASH160 4f07954cab2e3d1eba083e932aa7416e9e3a7665 OP_EQUALVERIFY OP_CHECKSIG", "type": "pubkeyhash"}, "value": 0.00162, "n": 1}], "hex": "010000000001017f8c9eecc4145ed9720c1e1f95252175408697176752d5ea7ee2d02a3c0d28ab6907000017160014971c52fbd6778aef11cfa89369f8173a41c02819ffffffff021b5c0000000000001600143182bcc9a8d4c4f3d3b337c9d60c6fddf72a12bad0780200000000001976a9144f07954cab2e3d1eba083e932aa7416e9e3a766588ac02483045022100a34f643f6f6d4deb966b265dab9541910a1f2c49bfbd6d1ca5a5b924a3df9986022066af8a49e5ae2a0664f3659f9e9cb520b19222502342485800e6be1e026dcb2d0121035fcc22b32124ccd132c2af0f050dc3a63ff04a7914b107e577994e10e0a537df00000000", "vin": [{"txinwitness": ["3045022100a34f643f6f6d4deb966b265dab9541910a1f2c49bfbd6d1ca5a5b924a3df9986022066af8a49e5ae2a0664f3659f9e9cb520b19222502342485800e6be1e026dcb2d01", "035fcc22b32124ccd132c2af0f050dc3a63ff04a7914b107e577994e10e0a537df"], "sequence": 4294967295, "scriptSig": {"hex": "160014971c52fbd6778aef11cfa89369f8173a41c02819", "asm": "0014971c52fbd6778aef11cfa89369f8173a41c02819"}, "vout": 1897, "txid": "ab280d3c2ad0e27eead5526717978640752125951f1e0c72d95e14c4ec9e8c7f"}], "txid": "4b873941174541af8e60d4139c5508e349a3c671d4d2b50fb660088495d4ccb9", "blocktime": 1537871767, "version": 1, "confirmations": 11495, "time": 1537871767, "locktime": 0, "vsize": 167, "size": 249}