{"hash": "a9a6e8ccbad5321c7fbbf3cb635a8d5b9e75c55cfd8b9db15c78012e4928db3d", "blockhash": "00000000000000000018f53835495a110e01622372bf6ae95dc86f2b0ab887b0", "vout": [{"scriptPubKey": {"reqSigs": 1, "hex": "a9142748089af01e9ac50c0f62da89888a1e45c64a8287", "addresses": ["35Gia1SVkaFz1GfmWTsGQEjqStE8ed85mj"], "asm": "OP_HASH160 2748089af01e9ac50c0f62da89888a1e45c64a82 OP_EQUAL", "type": "scripthash"}, "value": 0.0100034, "n": 0}, {"scriptPubKey": {"reqSigs": 1, "hex": "76a9148ef9e3caec0aed140196ff76deb64e36ac5bd6bf88ac", "addresses": ["1E2zJtYTEpN471E8ZnBPRFr696fyvQx1kb"], "asm": "OP_DUP OP_HASH160 8ef9e3caec0aed140196ff76deb64e36ac5bd6bf OP_EQUALVERIFY OP_CHECKSIG", "type": "pubkeyhash"}, "value": 0.0046506, "n": 1}], "hex": "020000000001022c41704297e6e7b5c62275eda83af05f223574e85c3a81738bb97464f44ce1ff0100000017160014e8a2c9f1eaaf23392022aa668d6dfadad5946e12feffffff2ec9ac4a895261abd97a6997e0d2dba7405b6b34f61ecf527a11ac43301411200000000017160014acffa3c52c85bf80f161c7ca77333b9bc09c55f0feffffff0294430f000000000017a9142748089af01e9ac50c0f62da89888a1e45c64a8287a4180700000000001976a9148ef9e3caec0aed140196ff76deb64e36ac5bd6bf88ac02483045022100f4fdd0a434e0dd0b4d9603901f50d89a5f47df4c9f372e597e5c466596393a8d022047a89f0e7a502ab8e7c41722d37d3f1422ccf6f05708469eebf3cc0ca78ebcd40121027064da5c481b11a853acfa7c1d83c5a8facd2fda914a52f32f5e271a36dc244902483045022100df25f51a843d0414e87327b7b793e7f5cb766a5466a905873f9e4c8c3c0d232602205f3c076f2e3ddf3ab5b98e2de185aa4e30215910a18deda0516427168b358158012103d3fa4390a3d457166de948ce8f5af0b47f18c13b8ade98d59986b97c22f2ebf60e490800", "vin": [{"txinwitness": ["3045022100f4fdd0a434e0dd0b4d9603901f50d89a5f47df4c9f372e597e5c466596393a8d022047a89f0e7a502ab8e7c41722d37d3f1422ccf6f05708469eebf3cc0ca78ebcd401", "027064da5c481b11a853acfa7c1d83c5a8facd2fda914a52f32f5e271a36dc2449"], "sequence": 4294967294, "scriptSig": {"hex": "160014e8a2c9f1eaaf23392022aa668d6dfadad5946e12", "asm": "0014e8a2c9f1eaaf23392022aa668d6dfadad5946e12"}, "vout": 1, "txid": "ffe14cf46474b98b73813a5ce87435225ff03aa8ed7522c6b5e7e6974270412c"}, {"txinwitness": ["3045022100df25f51a843d0414e87327b7b793e7f5cb766a5466a905873f9e4c8c3c0d232602205f3c076f2e3ddf3ab5b98e2de185aa4e30215910a18deda0516427168b35815801", "03d3fa4390a3d457166de948ce8f5af0b47f18c13b8ade98d59986b97c22f2ebf6"], "sequence": 4294967294, "scriptSig": {"hex": "160014acffa3c52c85bf80f161c7ca77333b9bc09c55f0", "asm": "0014acffa3c52c85bf80f161c7ca77333b9bc09c55f0"}, "vout": 0, "txid": "2011143043ac117a52cf1ef6346b5b40a7dbd2e097697ad9ab6152894aacc92e"}], "txid": "4b93427b610d114dcc6b04a010035fb079f95211435006334f9c6179614826aa", "blocktime": 1537870928, "version": 2, "confirmations": 11514, "time": 1537870928, "locktime": 542990, "vsize": 259, "size": 422}