{"hash": "4b9802275c92ec1b6356391db91a85a3323611a78211ca155804016c8c80fde7", "blockhash": "0000000000000000000baef3f32e3676a92c3b2e5da21b426e4f302fc371ce76", "vout": [{"scriptPubKey": {"reqSigs": 1, "hex": "76a914af8ed0480f580696fd1dd30b8305d6d8b049fbbd88ac", "addresses": ["1H1GLS8DWcwt98fLT6UPDQuipktDVFTQWf"], "asm": "OP_DUP OP_HASH160 af8ed0480f580696fd1dd30b8305d6d8b049fbbd OP_EQUALVERIFY OP_CHECKSIG", "type": "pubkeyhash"}, "value": 0.00538, "n": 0}, {"scriptPubKey": {"reqSigs": 1, "hex": "a914e7868f65ce9d0165274ae70f646d4beaeaac60d787", "addresses": ["3NoDDG1G3DTUVT1TjZ2A1CjvW19bs1SyNF"], "asm": "OP_HASH160 e7868f65ce9d0165274ae70f646d4beaeaac60d7 OP_EQUAL", "type": "scripthash"}, "value": 0.34334747, "n": 1}], "hex": "01000000013b73a02cf64b39dbdd8c491809aa746b5402c991342cc5a0478b0a8e9b5c774e02000000fdfe0000483045022100c12bff167384bed066603436d8f1ff892f458cea5bd24c0c8142040d0bdf6d010220267b1e094043a1bc6e065cae7755b2dac1426c8d538a7a23bbe620c45817e44501483045022100a8aea69cda00fe975f295ca467b7afbe641c6686c489568209089cc0ae4c308302204172c1a0777a63d910c09727f2c58ac67ebc68c954d9ad8b3417c43db7222774014c695221023b89a3d8b4a77e1405e2ea8bc48701f85f9a149a8e46c21d163a0e76d62933f521035b1e588cf4663f17b31e7ff97efb6771105d6799278376ce7bf774ca567f9b4821020337d6ce2ff522f9c2e1d899e89ff57a5971da8d88b21d74c366a2ff7da7457253aeffffffff0290350800000000001976a914af8ed0480f580696fd1dd30b8305d6d8b049fbbd88ac1be80b020000000017a914e7868f65ce9d0165274ae70f646d4beaeaac60d78700000000", "vin": [{"sequence": 4294967295, "scriptSig": {"hex": "00483045022100c12bff167384bed066603436d8f1ff892f458cea5bd24c0c8142040d0bdf6d010220267b1e094043a1bc6e065cae7755b2dac1426c8d538a7a23bbe620c45817e44501483045022100a8aea69cda00fe975f295ca467b7afbe641c6686c489568209089cc0ae4c308302204172c1a0777a63d910c09727f2c58ac67ebc68c954d9ad8b3417c43db7222774014c695221023b89a3d8b4a77e1405e2ea8bc48701f85f9a149a8e46c21d163a0e76d62933f521035b1e588cf4663f17b31e7ff97efb6771105d6799278376ce7bf774ca567f9b4821020337d6ce2ff522f9c2e1d899e89ff57a5971da8d88b21d74c366a2ff7da7457253ae", "asm": "0 3045022100c12bff167384bed066603436d8f1ff892f458cea5bd24c0c8142040d0bdf6d010220267b1e094043a1bc6e065cae7755b2dac1426c8d538a7a23bbe620c45817e445[ALL] 3045022100a8aea69cda00fe975f295ca467b7afbe641c6686c489568209089cc0ae4c308302204172c1a0777a63d910c09727f2c58ac67ebc68c954d9ad8b3417c43db7222774[ALL] 5221023b89a3d8b4a77e1405e2ea8bc48701f85f9a149a8e46c21d163a0e76d62933f521035b1e588cf4663f17b31e7ff97efb6771105d6799278376ce7bf774ca567f9b4821020337d6ce2ff522f9c2e1d899e89ff57a5971da8d88b21d74c366a2ff7da7457253ae"}, "vout": 2, "txid": "4e775c9b8e0a8b47a0c52c3491c902546b74aa0918498cdddb394bf62ca0733b"}], "txid": "4b9802275c92ec1b6356391db91a85a3323611a78211ca155804016c8c80fde7", "blocktime": 1537876114, "version": 1, "confirmations": 11460, "time": 1537876114, "locktime": 0, "vsize": 373, "size": 373}