{"hash": "4b9c25a070b2ae9f55a6223a2b74f77d2444280737515af2ff86b3b3069a6995", "blockhash": "0000000000000000001cda96e906b7601b7a6fb1a3b62bca570a9e5d8f4b3de1", "vout": [{"scriptPubKey": {"type": "nulldata", "hex": "6a146f6d6e69000000000000001f000000438558d400", "asm": "OP_RETURN 6f6d6e69000000000000001f000000438558d400"}, "value": 0.0, "n": 0}, {"scriptPubKey": {"reqSigs": 1, "hex": "76a914306b36c99f441066a9558ce8489793e90171cce488ac", "addresses": ["15R1sZxFoXmqLJmsUM635j2nTzxVW3Xjrj"], "asm": "OP_DUP OP_HASH160 306b36c99f441066a9558ce8489793e90171cce4 OP_EQUALVERIFY OP_CHECKSIG", "type": "pubkeyhash"}, "value": 5.46e-06, "n": 1}, {"scriptPubKey": {"reqSigs": 1, "hex": "76a91488d924f51033b74a895863a5fb57fd545529df7d88ac", "addresses": ["1DUb2YYbQA1jjaNYzVXLZ7ZioEhLXtbUru"], "asm": "OP_DUP OP_HASH160 88d924f51033b74a895863a5fb57fd545529df7d OP_EQUALVERIFY OP_CHECKSIG", "type": "pubkeyhash"}, "value": 1.39404962, "n": 2}], "hex": "010000000170c1850983d7a21af3ee686c9d87df84ab96e121a44e036afea1a8914f437c2f020000006a47304402205f982a126834c147efc427f6da3011cb22929263908f2e474aa3b5cc9f67710a022065407b1869d6c2bffa8f9cbb1873deb7157e0b55e288af52f7e15d98781c4dc40121030888863fcb4cdf5b7d33b40e613af35df8f39d576e7972238b0d396cd3fcc3f2feffffff030000000000000000166a146f6d6e69000000000000001f000000438558d40022020000000000001976a914306b36c99f441066a9558ce8489793e90171cce488aca2264f08000000001976a91488d924f51033b74a895863a5fb57fd545529df7d88ac13490800", "vin": [{"sequence": 4294967294, "scriptSig": {"hex": "47304402205f982a126834c147efc427f6da3011cb22929263908f2e474aa3b5cc9f67710a022065407b1869d6c2bffa8f9cbb1873deb7157e0b55e288af52f7e15d98781c4dc40121030888863fcb4cdf5b7d33b40e613af35df8f39d576e7972238b0d396cd3fcc3f2", "asm": "304402205f982a126834c147efc427f6da3011cb22929263908f2e474aa3b5cc9f67710a022065407b1869d6c2bffa8f9cbb1873deb7157e0b55e288af52f7e15d98781c4dc4[ALL] 030888863fcb4cdf5b7d33b40e613af35df8f39d576e7972238b0d396cd3fcc3f2"}, "vout": 2, "txid": "2f7c434f91a8a1fe6a034ea421e196ab84df879d6c68eef31aa2d7830985c170"}], "txid": "4b9c25a070b2ae9f55a6223a2b74f77d2444280737515af2ff86b3b3069a6995", "blocktime": 1537873282, "version": 1, "confirmations": 11481, "time": 1537873282, "locktime": 542995, "vsize": 256, "size": 256}