{"hash": "4b9dd9a4f10b60fd1180e4884c0e1ee1dc0f9b9e110de6c898b23c6229b0f896", "blockhash": "0000000000000000000e13cef7c366c0283d82e591d1acd082e914b08063cdf1", "vout": [{"scriptPubKey": {"reqSigs": 1, "hex": "a91412881fde307b6d9759540cb9877a383cd022e0d187", "addresses": ["33P1A6Gd6VAvD8vWUTv9F4duR55Dn59m8u"], "asm": "OP_HASH160 12881fde307b6d9759540cb9877a383cd022e0d1 OP_EQUAL", "type": "scripthash"}, "value": 0.00029924, "n": 0}, {"scriptPubKey": {"reqSigs": 1, "hex": "76a914d3d0431dd0eb43570b8d0ab986e9f3631dcfc9dc88ac", "addresses": ["1LJy4naCDVtD3bNb4srw5UY7BfgF8ApQgz"], "asm": "OP_DUP OP_HASH160 d3d0431dd0eb43570b8d0ab986e9f3631dcfc9dc OP_EQUALVERIFY OP_CHECKSIG", "type": "pubkeyhash"}, "value": 0.01701027, "n": 1}], "hex": "0100000001a8b3994770ad7399e45cbfde01a85f9f8b45b60754dfd1d13484f2816a3d9a91010000006a47304402206d6f4f69bb86b111c3713a3d5eed0211f1f9b8cd251125641475ea2c93a4665b02206a3da6282b1c56ce05496214fbcd34baef1a6f03b486b453f3f144f3fe3028c101210251389f8eecf7aba8e54b0a751d434a26e36183dabf6d5fa5d6718878dc0d532fffffffff02e47400000000000017a91412881fde307b6d9759540cb9877a383cd022e0d187a3f41900000000001976a914d3d0431dd0eb43570b8d0ab986e9f3631dcfc9dc88ac00000000", "vin": [{"sequence": 4294967295, "scriptSig": {"hex": "47304402206d6f4f69bb86b111c3713a3d5eed0211f1f9b8cd251125641475ea2c93a4665b02206a3da6282b1c56ce05496214fbcd34baef1a6f03b486b453f3f144f3fe3028c101210251389f8eecf7aba8e54b0a751d434a26e36183dabf6d5fa5d6718878dc0d532f", "asm": "304402206d6f4f69bb86b111c3713a3d5eed0211f1f9b8cd251125641475ea2c93a4665b02206a3da6282b1c56ce05496214fbcd34baef1a6f03b486b453f3f144f3fe3028c1[ALL] 0251389f8eecf7aba8e54b0a751d434a26e36183dabf6d5fa5d6718878dc0d532f"}, "vout": 1, "txid": "919a3d6a81f28434d1d1df5407b6458b9f5fa801debf5ce49973ad704799b3a8"}], "txid": "4b9dd9a4f10b60fd1180e4884c0e1ee1dc0f9b9e110de6c898b23c6229b0f896", "blocktime": 1537871767, "version": 1, "confirmations": 11495, "time": 1537871767, "locktime": 0, "vsize": 223, "size": 223}