{"hash": "4b9ef07f41284e4a5c7d2c0fb6df5c5c19678f02974d048b2fbfcad5306c1a97", "blockhash": "00000000000000000017f5eb5941039fbcee6240d03bc1f2f8e35350df66a1d8", "vout": [{"scriptPubKey": {"reqSigs": 1, "hex": "76a914bb09dae1f1fa8abc3f83673990192ecebba700af88ac", "addresses": ["1J3yAcQNyXnAz38n93L52L1nRcrH9w19no"], "asm": "OP_DUP OP_HASH160 bb09dae1f1fa8abc3f83673990192ecebba700af OP_EQUALVERIFY OP_CHECKSIG", "type": "pubkeyhash"}, "value": 0.008107, "n": 0}, {"scriptPubKey": {"reqSigs": 1, "hex": "76a9149cd92098e4a85ad53741f66686d37c308e00024c88ac", "addresses": ["1FJLXCS7USa1wCoMD8LPK32GBfyfLPB6mp"], "asm": "OP_DUP OP_HASH160 9cd92098e4a85ad53741f66686d37c308e00024c OP_EQUALVERIFY OP_CHECKSIG", "type": "pubkeyhash"}, "value": 0.00187789, "n": 1}], "hex": "01000000019399ddb52c08c7679999c7f9cbf28f44105a0b3056584b666037a8ca4162f9b0000000006b4830450221009d3bedbc54c2cee21536e4f6f1c970aef44610846bcbb5ef98a94db3c01d1b6102200d1f3a4680b348d18de409b6c5ed4271d025c37f6154eba6b2f748287887ac440121034b3dad0f9f8190559582b8977979e6e2f8e020b36396018e396889bcb39b3a1dffffffff02cc5e0c00000000001976a914bb09dae1f1fa8abc3f83673990192ecebba700af88ac8ddd0200000000001976a9149cd92098e4a85ad53741f66686d37c308e00024c88ac00000000", "vin": [{"sequence": 4294967295, "scriptSig": {"hex": "4830450221009d3bedbc54c2cee21536e4f6f1c970aef44610846bcbb5ef98a94db3c01d1b6102200d1f3a4680b348d18de409b6c5ed4271d025c37f6154eba6b2f748287887ac440121034b3dad0f9f8190559582b8977979e6e2f8e020b36396018e396889bcb39b3a1d", "asm": "30450221009d3bedbc54c2cee21536e4f6f1c970aef44610846bcbb5ef98a94db3c01d1b6102200d1f3a4680b348d18de409b6c5ed4271d025c37f6154eba6b2f748287887ac44[ALL] 034b3dad0f9f8190559582b8977979e6e2f8e020b36396018e396889bcb39b3a1d"}, "vout": 0, "txid": "b0f96241caa83760664b5856300b5a10448ff2cbf9c7999967c7082cb5dd9993"}], "txid": "4b9ef07f41284e4a5c7d2c0fb6df5c5c19678f02974d048b2fbfcad5306c1a97", "blocktime": 1537874412, "version": 1, "confirmations": 11468, "time": 1537874412, "locktime": 0, "vsize": 226, "size": 226}