{"hash": "de324b93026a6427429083ca60dbfb9e58fbc5ddd43d766637da7995a8ebe854", "blockhash": "0000000000000000000baef3f32e3676a92c3b2e5da21b426e4f302fc371ce76", "vout": [{"scriptPubKey": {"reqSigs": 1, "hex": "76a91417463a3d9ff0b26ca44c512a686a6359f07e9b0888ac", "addresses": ["1384fuTsNZFUSovZNkqwwxhUT4LkdHHyiP"], "asm": "OP_DUP OP_HASH160 17463a3d9ff0b26ca44c512a686a6359f07e9b08 OP_EQUALVERIFY OP_CHECKSIG", "type": "pubkeyhash"}, "value": 0.00014811, "n": 0}, {"scriptPubKey": {"reqSigs": 1, "hex": "a91435a60583b429462b6073f8d0aebaf3728b015c7c87", "addresses": ["36agd69rbAoyqAJN3b9JXTXbd6bqnGteis"], "asm": "OP_HASH160 35a60583b429462b6073f8d0aebaf3728b015c7c OP_EQUAL", "type": "scripthash"}, "value": 0.00154069, "n": 1}], "hex": "010000000001018c13dcdb6e460324cc32b7660f26d1a2ff085118c5fee9e30e662104493f4d47010000002322002039744a2f3510259a53fbe46414508cda472a20a8ad07f4c51b81be30d3d27658ffffffff02db390000000000001976a91417463a3d9ff0b26ca44c512a686a6359f07e9b0888acd55902000000000017a91435a60583b429462b6073f8d0aebaf3728b015c7c870400483045022100e7aaaa77d7d775775d098493316ab82634af686709a13cb7fd09d73fa282ef89022064b323d543803bca2edd1663eaf14c7ba33a958e3a751c42aeab2c692bc8fe750147304402206fe6cfa8f24c6675644d74a3aae96a10d31a496fe15a9bba6650d5894840caa50220412acd6dd463ebf459660e15de33e18034fd68c7c1584e14b29f1c024ce1646d0147522102290fe25cef5d799372634190479f379598790e79f62bfcc07e21a6a1d28781c32103871fc2ca08e6950b38867e8e6a0e94ee625223d3aa0df5c65f414c6d784467e252ae00000000", "vin": [{"txinwitness": ["", "3045022100e7aaaa77d7d775775d098493316ab82634af686709a13cb7fd09d73fa282ef89022064b323d543803bca2edd1663eaf14c7ba33a958e3a751c42aeab2c692bc8fe7501", "304402206fe6cfa8f24c6675644d74a3aae96a10d31a496fe15a9bba6650d5894840caa50220412acd6dd463ebf459660e15de33e18034fd68c7c1584e14b29f1c024ce1646d01", "522102290fe25cef5d799372634190479f379598790e79f62bfcc07e21a6a1d28781c32103871fc2ca08e6950b38867e8e6a0e94ee625223d3aa0df5c65f414c6d784467e252ae"], "sequence": 4294967295, "scriptSig": {"hex": "22002039744a2f3510259a53fbe46414508cda472a20a8ad07f4c51b81be30d3d27658", "asm": "002039744a2f3510259a53fbe46414508cda472a20a8ad07f4c51b81be30d3d27658"}, "vout": 1, "txid": "474d3f490421660ee3e9fec5185108ffa2d1260f66b732cc2403466edbdc138c"}], "txid": "4ba2452e496c5fa080f0f5f68df22111b69f192fdd726143b4d1b2a4f10f6d9a", "blocktime": 1537876114, "version": 1, "confirmations": 11460, "time": 1537876114, "locktime": 0, "vsize": 208, "size": 373}