{"hash": "4ba4563f5268ff6a0bdb358a080afbfcb1a33e003ec5d7265b317d3fbf4eb94a", "blockhash": "00000000000000000004ffacab907a6b429b9a5745fa0b75af4234bf69dd7176", "vout": [{"scriptPubKey": {"reqSigs": 1, "hex": "76a914f5c3821779410102f4e3489501683205727802de88ac", "addresses": ["1PQUm9NRDG4DgYQ2TYMNt96cis4Jnube6b"], "asm": "OP_DUP OP_HASH160 f5c3821779410102f4e3489501683205727802de OP_EQUALVERIFY OP_CHECKSIG", "type": "pubkeyhash"}, "value": 0.00377193, "n": 0}, {"scriptPubKey": {"reqSigs": 1, "hex": "a914720c6da9ab6d731f6e2aa0cbdf9f2453e09a45b187", "addresses": ["3C63qx6UyCSji9GDTPFu3JFTSnLKtZo91r"], "asm": "OP_HASH160 720c6da9ab6d731f6e2aa0cbdf9f2453e09a45b1 OP_EQUAL", "type": "scripthash"}, "value": 0.06207358, "n": 1}], "hex": "010000000192b3b5b700f1aa0eb4cae726dfa6a38f28bd51d8898e7509b6d950b92673884201000000da0047304402206412683057c24623735ead96725bb823ef75a9eeb495f7d7f738acd50ee203ec02205011208b6a9cd6081d54a4ae300403aa20bdd0b02fdad2116926a91c2f00d6c4014830450221009974876ac8c9148a85f65aaeeae76498f859a991b19946735a4c0f8cb14b55900220702bad5b8b3fc2d360fcf44d3a384cbdbde4de0523a1007b852bd3685aaa4a420147522103f2d250ed5140d655fe49f9b9f857ff223c9290b9bbe8b68a50d522cf45e633702102045f2de7b3abee8ca375163a8879a6719ef3e6d7ffc88aa3008e11b5b89eb7ee52aeffffffff0269c10500000000001976a914f5c3821779410102f4e3489501683205727802de88ac7eb75e000000000017a914720c6da9ab6d731f6e2aa0cbdf9f2453e09a45b18700000000", "vin": [{"sequence": 4294967295, "scriptSig": {"hex": "0047304402206412683057c24623735ead96725bb823ef75a9eeb495f7d7f738acd50ee203ec02205011208b6a9cd6081d54a4ae300403aa20bdd0b02fdad2116926a91c2f00d6c4014830450221009974876ac8c9148a85f65aaeeae76498f859a991b19946735a4c0f8cb14b55900220702bad5b8b3fc2d360fcf44d3a384cbdbde4de0523a1007b852bd3685aaa4a420147522103f2d250ed5140d655fe49f9b9f857ff223c9290b9bbe8b68a50d522cf45e633702102045f2de7b3abee8ca375163a8879a6719ef3e6d7ffc88aa3008e11b5b89eb7ee52ae", "asm": "0 304402206412683057c24623735ead96725bb823ef75a9eeb495f7d7f738acd50ee203ec02205011208b6a9cd6081d54a4ae300403aa20bdd0b02fdad2116926a91c2f00d6c4[ALL] 30450221009974876ac8c9148a85f65aaeeae76498f859a991b19946735a4c0f8cb14b55900220702bad5b8b3fc2d360fcf44d3a384cbdbde4de0523a1007b852bd3685aaa4a42[ALL] 522103f2d250ed5140d655fe49f9b9f857ff223c9290b9bbe8b68a50d522cf45e633702102045f2de7b3abee8ca375163a8879a6719ef3e6d7ffc88aa3008e11b5b89eb7ee52ae"}, "vout": 1, "txid": "42887326b950d9b609758e89d851bd288fa3a6df26e7cab40eaaf100b7b5b392"}], "txid": "4ba4563f5268ff6a0bdb358a080afbfcb1a33e003ec5d7265b317d3fbf4eb94a", "blocktime": 1537875543, "version": 1, "confirmations": 11464, "time": 1537875543, "locktime": 0, "vsize": 335, "size": 335}