{"hash": "33ef88490119465e67e0e002728f1f166e5821352fffb5f9749dc5c328035765", "blockhash": "00000000000000000017f5eb5941039fbcee6240d03bc1f2f8e35350df66a1d8", "vout": [{"scriptPubKey": {"reqSigs": 1, "hex": "a9147f81dbd086b4887d98e28a4d90d842ff6040a94287", "addresses": ["3DKDJeGncvnburTXd3uxZBVrGt56vTUptV"], "asm": "OP_HASH160 7f81dbd086b4887d98e28a4d90d842ff6040a942 OP_EQUAL", "type": "scripthash"}, "value": 0.01163457, "n": 0}, {"scriptPubKey": {"reqSigs": 1, "hex": "76a9145f2915f7aa299c12f9d5e1598f02db0e14e2441688ac", "addresses": ["19gAQv8YizsqruRPkBfoVpdL8jccnGauq8"], "asm": "OP_DUP OP_HASH160 5f2915f7aa299c12f9d5e1598f02db0e14e24416 OP_EQUALVERIFY OP_CHECKSIG", "type": "pubkeyhash"}, "value": 1.8, "n": 1}], "hex": "0100000000011407c660b91292428d2e0138adbdb366938afae48faf616b646f3c580086da0503d1000000171600144088c861bf73899fb3d00deb0a4a0039172ce6ccffffffff1d1cbd2f1e9216f16cef06945c0c483e66adaf7ef0448832ba8afa76f18bbd0fa1000000171600144088c861bf73899fb3d00deb0a4a0039172ce6ccffffffffdf3c23682860b7b390f81d0305318df30173d687f6cb3ad9f1356ede4e93661398000000171600144088c861bf73899fb3d00deb0a4a0039172ce6ccffffffff90b8976fdcbabe7e43decfee10368c1152f58ca221e890b0f42b1dbbedd46b1475010000171600144088c861bf73899fb3d00deb0a4a0039172ce6ccffffffff72586b0e5f400d424cfc3119db05d5c402e61bae942d344315bf5fe976c0e1151200000017160014e92872d801b82761292dd514e3e7efcfd7d8d463ffffffff8e32ce95911e095770bb33fe2f863005ee75d5ce4d2db966a04bca431f56f61870000000171600144088c861bf73899fb3d00deb0a4a0039172ce6ccffffffff1979642e5fc6191e0b13d807f25eeb8ba51f7215ce118388835f4d861f39c021f8000000171600144088c861bf73899fb3d00deb0a4a0039172ce6ccffffffff03cd1e52563dd47a958025e8c5ea0db96b2692ba239c2edf3cd54a4b351a842b54000000171600144088c861bf73899fb3d00deb0a4a0039172ce6ccffffffff8b8a49ea9ce3b408b50b42cd8fbefb2ae7fdfcfb529085ea0fa80b04a6dd1f3463000000171600144088c861bf73899fb3d00deb0a4a0039172ce6ccffffffff9c1b72f13f59dba74be0fbe366d6c43b3a4e728e9691ac701f01236115e45d510d010000171600144088c861bf73899fb3d00deb0a4a0039172ce6ccfffffffff6022e166ba3d2af35a0d03fd23a8c22aa9530af1046ffdd8df02959cd465e53a4000000171600144088c861bf73899fb3d00deb0a4a0039172ce6ccffffffffa274df9819ba39ee5f35e281507347f8d765f497c7b8071b8050cf55ef3a805b83000000171600144088c861bf73899fb3d00deb0a4a0039172ce6ccffffffff39c6a06f5a47355edbc96bb4cf170ba21c8f973abcb1fff0713570dc4f738e5ce8000000171600144088c861bf73899fb3d00deb0a4a0039172ce6ccffffffff969729eaf48b3340f11e32905ab3e3f1d0ff6f6d2e571f87510e760d689fb85e59000000171600144088c861bf73899fb3d00deb0a4a0039172ce6ccffffffff0311a2710af1db4de600a8e0207640e2f2a2e78b592e73ef65926edaed7a387f9b000000171600144088c861bf73899fb3d00deb0a4a0039172ce6ccffffffffc2b5db30fee056e0b126719b8d7c685f30092d230afb24ea4b0ce8c47195dabb93000000171600144088c861bf73899fb3d00deb0a4a0039172ce6ccffffffffb30879a52ca71694449c3e49926630335b32f25ebd3c7c2db601efbad374ffca38000000171600144088c861bf73899fb3d00deb0a4a0039172ce6ccfffffffff32d0c18ff2dd9584dad0fc320a020fe4b1fe394ed5fe44819fb5621f5bfcedf4c000000171600144088c861bf73899fb3d00deb0a4a0039172ce6ccffffffffd926815f3544c6f7676540258af77c9f99128b767f4bde6d67e29ff0d9d48ce04d000000171600144088c861bf73899fb3d00deb0a4a0039172ce6ccffffffff9eabd3575f450eb6a2fa86c1ee979a902cdfe27e665660377c038f1fe09615fa9d000000171600144088c861bf73899fb3d00deb0a4a0039172ce6ccffffffff02c1c011000000000017a9147f81dbd086b4887d98e28a4d90d842ff6040a942870095ba0a000000001976a9145f2915f7aa299c12f9d5e1598f02db0e14e2441688ac02473044022027b27a90276332e7a218ab09c22de291d144f688b8d750b9016cc6f43c39ede0022012c343c38098492dff61fd00007b411eeca9bba06c01117bdbff28379560621401210312fd7698d62b7f3ff2c6c942aad74ff9e44b57a54e4ebadf21554528e92fb9f802483045022100b9e5dddb1c31dedd2f4c6f95f51dfa045013822f5506697ad2250a29b66fe5b302201a911ccf953c9d06c0c415ee41809e77b5f202b5501b0d380adc7f56b6151d9501210312fd7698d62b7f3ff2c6c942aad74ff9e44b57a54e4ebadf21554528e92fb9f80247304402207b0542ce60c60971fb746af0b64af82e6baf51f67c22fac5bc3206cc050bc63502200b2055229cf4045c6d9de932d376f65138b1b21fcf32b108ba27c89dbb474e5f01210312fd7698d62b7f3ff2c6c942aad74ff9e44b57a54e4ebadf21554528e92fb9f80247304402207946d3516cc2d2386cd29a83f5bc7c05e3af4fbfac997b7cf08e23ec77781e66022049cef692c09aa1c3cc9dc91771f7800e0c12813858bbff5058bd7d489a76da9501210312fd7698d62b7f3ff2c6c942aad74ff9e44b57a54e4ebadf21554528e92fb9f80247304402206ed35ae00058e05c589581ac60e3c80627560c674fd5ca601df6dea3e5a23ec3022012060dc0a6726dddbeefc1cfd09cb2e2dff805161dd60a5e619b0f1c44871ee10121032aee69f0e284f603627e8d07ff279581a9798931fe532ef7d78eeb3e799b73dd02483045022100d8a014ef1be377b879cd9c397024c02f85976a19766451513cbbe2b6c9dd9a5b02203551582db1af4ac37c7f8f95cd0068323099620f52c13786c16b9e3a4920153f01210312fd7698d62b7f3ff2c6c942aad74ff9e44b57a54e4ebadf21554528e92fb9f802483045022100c5463bc7721db186fa9231be81b891e9746219daa4811b1eb177ed55b51e592102203f6b8673b639548fef018887f9d711fc7b8690f0d440f99b6e7fb97033d7126701210312fd7698d62b7f3ff2c6c942aad74ff9e44b57a54e4ebadf21554528e92fb9f802483045022100bea323a94bc08da8250f21887912c6458aee8f5a6e6f65919976017b85638fcb022016c1af8153fdc960cd43d52e20eff7c1dfb03956eeff01ca24d97f0b3baf9f8c01210312fd7698d62b7f3ff2c6c942aad74ff9e44b57a54e4ebadf21554528e92fb9f802483045022100d7098f5c90d9461de9aeaafdb63820bd4ccaef177d4d227d447e90da23a924f9022045dc84c560069712da4beec5fad6b276f210577c121492912d0dcdd2ceef5be401210312fd7698d62b7f3ff2c6c942aad74ff9e44b57a54e4ebadf21554528e92fb9f802483045022100d955c2aa35eadcdc28ece736b4f8a04fa858577dbb151cdd91df1278713e366e02203565202c0f86c4de652f15c92eceef79bae59047490a122354747693c6e2021b01210312fd7698d62b7f3ff2c6c942aad74ff9e44b57a54e4ebadf21554528e92fb9f802483045022100d434b7cd507fb70cd38055605f523e39f77b25dccb65c99cfa4997cc8187e719022060fc43bd2ee4be826e4f87efb3f93195d40b5aad1cec78e111465120ab1c1c6301210312fd7698d62b7f3ff2c6c942aad74ff9e44b57a54e4ebadf21554528e92fb9f802483045022100a217d3b63b077fe7dfdc9c7eadbddcc0c698d96164aa5d7075c5d2d1ee08876b022059ef1b530ba1248c3fe0aaea8096721cbaa5a8add80eeed036d0b95c6291daa001210312fd7698d62b7f3ff2c6c942aad74ff9e44b57a54e4ebadf21554528e92fb9f80247304402203a209c7faffa5be431cbaa1b4db3c64e39bd7440842ae90088385d47397ebb5d02203a6b00afcc7ceab4c996b7745649c6d2c5c8b9d5f314e7c5e88365d4b721dd0301210312fd7698d62b7f3ff2c6c942aad74ff9e44b57a54e4ebadf21554528e92fb9f80247304402203049ebd7ce43206b55d34416cc08221e1e48b37b704cae158083d0b61b3b8e9502202c3fd7fb58e4febea68448eb2969e791639dbe688f4c1888b67384a41d1bb33501210312fd7698d62b7f3ff2c6c942aad74ff9e44b57a54e4ebadf21554528e92fb9f802473044022059d265b360a0c79fd8212195a73204b1195fbacadf221326410f400770e91bdf02207fbbf4924aded5734538a2cb6024f04ff90822c86b37a5306fb0b667831bbf9a01210312fd7698d62b7f3ff2c6c942aad74ff9e44b57a54e4ebadf21554528e92fb9f802483045022100d8dd82e2362ad177c2b3460e550604c3428fa031f860d7f36659c5c8f504eeae02201b56123601b516776fc3c0587be7d771ea3bfde0c35d05f3a08e99f01987495b01210312fd7698d62b7f3ff2c6c942aad74ff9e44b57a54e4ebadf21554528e92fb9f80248304502210082369ca4eac349136947ac183d39aaccef041241e93d02f72ab51edb5f976b40022052ad62fab086200de058fcea87ccce727bc29946eff6f6c0075fcd9bc1da154701210312fd7698d62b7f3ff2c6c942aad74ff9e44b57a54e4ebadf21554528e92fb9f802483045022100a7b47cb3ebf884b7d5057f384b6c1490105e2e416a408449dca581b3d25ff14d022012b78820ed5c635a9770e0c4fb48aadd2be9c98435992cfe49f90f0c35f50bfd01210312fd7698d62b7f3ff2c6c942aad74ff9e44b57a54e4ebadf21554528e92fb9f802483045022100d73366e75f19f6eff672703451583d90ba48d9fc83a762465580b9437c599fa602203c0dc642fcf0bb6dd15cf5027295b9aeccff000bf2c6bf0ef54214e9aba021ca01210312fd7698d62b7f3ff2c6c942aad74ff9e44b57a54e4ebadf21554528e92fb9f802483045022100b141356132c245a61c8de2e30b61f033e7bf95564ee8532c0cf9f43c51b1570c02205c8267661050a5324ba573c9b91dc34f3589dc4549136a4c17f77b58eab8ae9f01210312fd7698d62b7f3ff2c6c942aad74ff9e44b57a54e4ebadf21554528e92fb9f800000000", "vin": [{"txinwitness": ["3044022027b27a90276332e7a218ab09c22de291d144f688b8d750b9016cc6f43c39ede0022012c343c38098492dff61fd00007b411eeca9bba06c01117bdbff28379560621401", "0312fd7698d62b7f3ff2c6c942aad74ff9e44b57a54e4ebadf21554528e92fb9f8"], "sequence": 4294967295, "scriptSig": {"hex": "1600144088c861bf73899fb3d00deb0a4a0039172ce6cc", "asm": "00144088c861bf73899fb3d00deb0a4a0039172ce6cc"}, "vout": 209, "txid": "0305da8600583c6f646b61af8fe4fa8a9366b3bdad38012e8d429212b960c607"}, {"txinwitness": ["3045022100b9e5dddb1c31dedd2f4c6f95f51dfa045013822f5506697ad2250a29b66fe5b302201a911ccf953c9d06c0c415ee41809e77b5f202b5501b0d380adc7f56b6151d9501", "0312fd7698d62b7f3ff2c6c942aad74ff9e44b57a54e4ebadf21554528e92fb9f8"], "sequence": 4294967295, "scriptSig": {"hex": "1600144088c861bf73899fb3d00deb0a4a0039172ce6cc", "asm": "00144088c861bf73899fb3d00deb0a4a0039172ce6cc"}, "vout": 161, "txid": "0fbd8bf176fa8aba328844f07eafad663e480c5c9406ef6cf116921e2fbd1c1d"}, {"txinwitness": ["304402207b0542ce60c60971fb746af0b64af82e6baf51f67c22fac5bc3206cc050bc63502200b2055229cf4045c6d9de932d376f65138b1b21fcf32b108ba27c89dbb474e5f01", "0312fd7698d62b7f3ff2c6c942aad74ff9e44b57a54e4ebadf21554528e92fb9f8"], "sequence": 4294967295, "scriptSig": {"hex": "1600144088c861bf73899fb3d00deb0a4a0039172ce6cc", "asm": "00144088c861bf73899fb3d00deb0a4a0039172ce6cc"}, "vout": 152, "txid": "1366934ede6e35f1d93acbf687d67301f38d3105031df890b3b7602868233cdf"}, {"txinwitness": ["304402207946d3516cc2d2386cd29a83f5bc7c05e3af4fbfac997b7cf08e23ec77781e66022049cef692c09aa1c3cc9dc91771f7800e0c12813858bbff5058bd7d489a76da9501", "0312fd7698d62b7f3ff2c6c942aad74ff9e44b57a54e4ebadf21554528e92fb9f8"], "sequence": 4294967295, "scriptSig": {"hex": "1600144088c861bf73899fb3d00deb0a4a0039172ce6cc", "asm": "00144088c861bf73899fb3d00deb0a4a0039172ce6cc"}, "vout": 373, "txid": "146bd4edbb1d2bf4b090e821a28cf552118c3610eecfde437ebebadc6f97b890"}, {"txinwitness": ["304402206ed35ae00058e05c589581ac60e3c80627560c674fd5ca601df6dea3e5a23ec3022012060dc0a6726dddbeefc1cfd09cb2e2dff805161dd60a5e619b0f1c44871ee101", "032aee69f0e284f603627e8d07ff279581a9798931fe532ef7d78eeb3e799b73dd"], "sequence": 4294967295, "scriptSig": {"hex": "160014e92872d801b82761292dd514e3e7efcfd7d8d463", "asm": "0014e92872d801b82761292dd514e3e7efcfd7d8d463"}, "vout": 18, "txid": "15e1c076e95fbf1543342d94ae1be602c4d505db1931fc4c420d405f0e6b5872"}, {"txinwitness": ["3045022100d8a014ef1be377b879cd9c397024c02f85976a19766451513cbbe2b6c9dd9a5b02203551582db1af4ac37c7f8f95cd0068323099620f52c13786c16b9e3a4920153f01", "0312fd7698d62b7f3ff2c6c942aad74ff9e44b57a54e4ebadf21554528e92fb9f8"], "sequence": 4294967295, "scriptSig": {"hex": "1600144088c861bf73899fb3d00deb0a4a0039172ce6cc", "asm": "00144088c861bf73899fb3d00deb0a4a0039172ce6cc"}, "vout": 112, "txid": "18f6561f43ca4ba066b92d4dced575ee0530862ffe33bb7057091e9195ce328e"}, {"txinwitness": ["3045022100c5463bc7721db186fa9231be81b891e9746219daa4811b1eb177ed55b51e592102203f6b8673b639548fef018887f9d711fc7b8690f0d440f99b6e7fb97033d7126701", "0312fd7698d62b7f3ff2c6c942aad74ff9e44b57a54e4ebadf21554528e92fb9f8"], "sequence": 4294967295, "scriptSig": {"hex": "1600144088c861bf73899fb3d00deb0a4a0039172ce6cc", "asm": "00144088c861bf73899fb3d00deb0a4a0039172ce6cc"}, "vout": 248, "txid": "21c0391f864d5f83888311ce15721fa58beb5ef207d8130b1e19c65f2e647919"}, {"txinwitness": ["3045022100bea323a94bc08da8250f21887912c6458aee8f5a6e6f65919976017b85638fcb022016c1af8153fdc960cd43d52e20eff7c1dfb03956eeff01ca24d97f0b3baf9f8c01", "0312fd7698d62b7f3ff2c6c942aad74ff9e44b57a54e4ebadf21554528e92fb9f8"], "sequence": 4294967295, "scriptSig": {"hex": "1600144088c861bf73899fb3d00deb0a4a0039172ce6cc", "asm": "00144088c861bf73899fb3d00deb0a4a0039172ce6cc"}, "vout": 84, "txid": "2b841a354b4ad53cdf2e9c23ba92266bb90deac5e82580957ad43d56521ecd03"}, {"txinwitness": ["3045022100d7098f5c90d9461de9aeaafdb63820bd4ccaef177d4d227d447e90da23a924f9022045dc84c560069712da4beec5fad6b276f210577c121492912d0dcdd2ceef5be401", "0312fd7698d62b7f3ff2c6c942aad74ff9e44b57a54e4ebadf21554528e92fb9f8"], "sequence": 4294967295, "scriptSig": {"hex": "1600144088c861bf73899fb3d00deb0a4a0039172ce6cc", "asm": "00144088c861bf73899fb3d00deb0a4a0039172ce6cc"}, "vout": 99, "txid": "341fdda6040ba80fea859052fbfcfde72afbbe8fcd420bb508b4e39cea498a8b"}, {"txinwitness": ["3045022100d955c2aa35eadcdc28ece736b4f8a04fa858577dbb151cdd91df1278713e366e02203565202c0f86c4de652f15c92eceef79bae59047490a122354747693c6e2021b01", "0312fd7698d62b7f3ff2c6c942aad74ff9e44b57a54e4ebadf21554528e92fb9f8"], "sequence": 4294967295, "scriptSig": {"hex": "1600144088c861bf73899fb3d00deb0a4a0039172ce6cc", "asm": "00144088c861bf73899fb3d00deb0a4a0039172ce6cc"}, "vout": 269, "txid": "515de4156123011f70ac91968e724e3a3bc4d666e3fbe04ba7db593ff1721b9c"}, {"txinwitness": ["3045022100d434b7cd507fb70cd38055605f523e39f77b25dccb65c99cfa4997cc8187e719022060fc43bd2ee4be826e4f87efb3f93195d40b5aad1cec78e111465120ab1c1c6301", "0312fd7698d62b7f3ff2c6c942aad74ff9e44b57a54e4ebadf21554528e92fb9f8"], "sequence": 4294967295, "scriptSig": {"hex": "1600144088c861bf73899fb3d00deb0a4a0039172ce6cc", "asm": "00144088c861bf73899fb3d00deb0a4a0039172ce6cc"}, "vout": 164, "txid": "535e46cd5929f08dddff4610af3095aa228c3ad23fd0a035afd2a36b162e02f6"}, {"txinwitness": ["3045022100a217d3b63b077fe7dfdc9c7eadbddcc0c698d96164aa5d7075c5d2d1ee08876b022059ef1b530ba1248c3fe0aaea8096721cbaa5a8add80eeed036d0b95c6291daa001", "0312fd7698d62b7f3ff2c6c942aad74ff9e44b57a54e4ebadf21554528e92fb9f8"], "sequence": 4294967295, "scriptSig": {"hex": "1600144088c861bf73899fb3d00deb0a4a0039172ce6cc", "asm": "00144088c861bf73899fb3d00deb0a4a0039172ce6cc"}, "vout": 131, "txid": "5b803aef55cf50801b07b8c797f465d7f847735081e2355fee39ba1998df74a2"}, {"txinwitness": ["304402203a209c7faffa5be431cbaa1b4db3c64e39bd7440842ae90088385d47397ebb5d02203a6b00afcc7ceab4c996b7745649c6d2c5c8b9d5f314e7c5e88365d4b721dd0301", "0312fd7698d62b7f3ff2c6c942aad74ff9e44b57a54e4ebadf21554528e92fb9f8"], "sequence": 4294967295, "scriptSig": {"hex": "1600144088c861bf73899fb3d00deb0a4a0039172ce6cc", "asm": "00144088c861bf73899fb3d00deb0a4a0039172ce6cc"}, "vout": 232, "txid": "5c8e734fdc703571f0ffb1bc3a978f1ca20b17cfb46bc9db5e35475a6fa0c639"}, {"txinwitness": ["304402203049ebd7ce43206b55d34416cc08221e1e48b37b704cae158083d0b61b3b8e9502202c3fd7fb58e4febea68448eb2969e791639dbe688f4c1888b67384a41d1bb33501", "0312fd7698d62b7f3ff2c6c942aad74ff9e44b57a54e4ebadf21554528e92fb9f8"], "sequence": 4294967295, "scriptSig": {"hex": "1600144088c861bf73899fb3d00deb0a4a0039172ce6cc", "asm": "00144088c861bf73899fb3d00deb0a4a0039172ce6cc"}, "vout": 89, "txid": "5eb89f680d760e51871f572e6d6fffd0f1e3b35a90321ef140338bf4ea299796"}, {"txinwitness": ["3044022059d265b360a0c79fd8212195a73204b1195fbacadf221326410f400770e91bdf02207fbbf4924aded5734538a2cb6024f04ff90822c86b37a5306fb0b667831bbf9a01", "0312fd7698d62b7f3ff2c6c942aad74ff9e44b57a54e4ebadf21554528e92fb9f8"], "sequence": 4294967295, "scriptSig": {"hex": "1600144088c861bf73899fb3d00deb0a4a0039172ce6cc", "asm": "00144088c861bf73899fb3d00deb0a4a0039172ce6cc"}, "vout": 155, "txid": "7f387aedda6e9265ef732e598be7a2f2e2407620e0a800e64ddbf10a71a21103"}, {"txinwitness": ["3045022100d8dd82e2362ad177c2b3460e550604c3428fa031f860d7f36659c5c8f504eeae02201b56123601b516776fc3c0587be7d771ea3bfde0c35d05f3a08e99f01987495b01", "0312fd7698d62b7f3ff2c6c942aad74ff9e44b57a54e4ebadf21554528e92fb9f8"], "sequence": 4294967295, "scriptSig": {"hex": "1600144088c861bf73899fb3d00deb0a4a0039172ce6cc", "asm": "00144088c861bf73899fb3d00deb0a4a0039172ce6cc"}, "vout": 147, "txid": "bbda9571c4e80c4bea24fb0a232d09305f687c8d9b7126b1e056e0fe30dbb5c2"}, {"txinwitness": ["304502210082369ca4eac349136947ac183d39aaccef041241e93d02f72ab51edb5f976b40022052ad62fab086200de058fcea87ccce727bc29946eff6f6c0075fcd9bc1da154701", "0312fd7698d62b7f3ff2c6c942aad74ff9e44b57a54e4ebadf21554528e92fb9f8"], "sequence": 4294967295, "scriptSig": {"hex": "1600144088c861bf73899fb3d00deb0a4a0039172ce6cc", "asm": "00144088c861bf73899fb3d00deb0a4a0039172ce6cc"}, "vout": 56, "txid": "caff74d3baef01b62d7c3cbd5ef2325b33306692493e9c449416a72ca57908b3"}, {"txinwitness": ["3045022100a7b47cb3ebf884b7d5057f384b6c1490105e2e416a408449dca581b3d25ff14d022012b78820ed5c635a9770e0c4fb48aadd2be9c98435992cfe49f90f0c35f50bfd01", "0312fd7698d62b7f3ff2c6c942aad74ff9e44b57a54e4ebadf21554528e92fb9f8"], "sequence": 4294967295, "scriptSig": {"hex": "1600144088c861bf73899fb3d00deb0a4a0039172ce6cc", "asm": "00144088c861bf73899fb3d00deb0a4a0039172ce6cc"}, "vout": 76, "txid": "dfcebff52156fb1948e45fed94e31f4bfe20a020c30fad4d58d92dff180c2df3"}, {"txinwitness": ["3045022100d73366e75f19f6eff672703451583d90ba48d9fc83a762465580b9437c599fa602203c0dc642fcf0bb6dd15cf5027295b9aeccff000bf2c6bf0ef54214e9aba021ca01", "0312fd7698d62b7f3ff2c6c942aad74ff9e44b57a54e4ebadf21554528e92fb9f8"], "sequence": 4294967295, "scriptSig": {"hex": "1600144088c861bf73899fb3d00deb0a4a0039172ce6cc", "asm": "00144088c861bf73899fb3d00deb0a4a0039172ce6cc"}, "vout": 77, "txid": "e08cd4d9f09fe2676dde4b7f768b12999f7cf78a25406567f7c644355f8126d9"}, {"txinwitness": ["3045022100b141356132c245a61c8de2e30b61f033e7bf95564ee8532c0cf9f43c51b1570c02205c8267661050a5324ba573c9b91dc34f3589dc4549136a4c17f77b58eab8ae9f01", "0312fd7698d62b7f3ff2c6c942aad74ff9e44b57a54e4ebadf21554528e92fb9f8"], "sequence": 4294967295, "scriptSig": {"hex": "1600144088c861bf73899fb3d00deb0a4a0039172ce6cc", "asm": "00144088c861bf73899fb3d00deb0a4a0039172ce6cc"}, "vout": 157, "txid": "fa1596e01f8f037c376056667ee2df2c909a97eec186faa2b60e455f57d3ab9e"}], "txid": "4ba8dd866995df4ad63c091bb7e82d6445a1fa928d5861e337ba7a1dcb13c733", "blocktime": 1537874412, "version": 1, "confirmations": 11467, "time": 1537874412, "locktime": 0, "vsize": 1895, "size": 3511}