{"hash": "4baf8cde162186b4af56626020acc9de523820a8e404f7ab615ce05c22810fb5", "blockhash": "0000000000000000001cda96e906b7601b7a6fb1a3b62bca570a9e5d8f4b3de1", "vout": [{"scriptPubKey": {"reqSigs": 1, "hex": "a914db8b5d88488dcc6b4e4673f0ca0ec9ded4c9435c87", "addresses": ["3Mhrrq5AcaMEHY51jZQZ7PkLX35U2kWGqC"], "asm": "OP_HASH160 db8b5d88488dcc6b4e4673f0ca0ec9ded4c9435c OP_EQUAL", "type": "scripthash"}, "value": 0.00217, "n": 0}, {"scriptPubKey": {"reqSigs": 1, "hex": "76a9142986b78a83b1e216827a070fbb26addedf4fccdc88ac", "addresses": ["14na6AUUGZrGq8vZxi69sHGru8xn7iSLjq"], "asm": "OP_DUP OP_HASH160 2986b78a83b1e216827a070fbb26addedf4fccdc OP_EQUALVERIFY OP_CHECKSIG", "type": "pubkeyhash"}, "value": 0.10194147, "n": 1}], "hex": "0100000001e9ae762eaeb771300ee40d254a6740bbd67421fef195b684555bb882400a0541010000006b48304502210081f82ff79067fc370a7ca5387108f8fbb339a21b70c7d118092784a222f83a1e0220118ea6adc4fca0345ab824dbf3e6d271730ee5c8f435f6340740da959aa327e70121033e95b1f56c1bcbf3c05947df8618f559773432caf26cf3f21d54921bc27c92a1ffffffff02a84f03000000000017a914db8b5d88488dcc6b4e4673f0ca0ec9ded4c9435c87e38c9b00000000001976a9142986b78a83b1e216827a070fbb26addedf4fccdc88ac00000000", "vin": [{"sequence": 4294967295, "scriptSig": {"hex": "48304502210081f82ff79067fc370a7ca5387108f8fbb339a21b70c7d118092784a222f83a1e0220118ea6adc4fca0345ab824dbf3e6d271730ee5c8f435f6340740da959aa327e70121033e95b1f56c1bcbf3c05947df8618f559773432caf26cf3f21d54921bc27c92a1", "asm": "304502210081f82ff79067fc370a7ca5387108f8fbb339a21b70c7d118092784a222f83a1e0220118ea6adc4fca0345ab824dbf3e6d271730ee5c8f435f6340740da959aa327e7[ALL] 033e95b1f56c1bcbf3c05947df8618f559773432caf26cf3f21d54921bc27c92a1"}, "vout": 1, "txid": "41050a4082b85b5584b695f1fe2174d6bb40674a250de40e3071b7ae2e76aee9"}], "txid": "4baf8cde162186b4af56626020acc9de523820a8e404f7ab615ce05c22810fb5", "blocktime": 1537873282, "version": 1, "confirmations": 11482, "time": 1537873282, "locktime": 0, "vsize": 224, "size": 224}