{"hash": "4bb6aff00cb022c55bf9e8098306fbb2e68932cf514315b1241c49d234c8ef2e", "blockhash": "00000000000000000017f5eb5941039fbcee6240d03bc1f2f8e35350df66a1d8", "vout": [{"scriptPubKey": {"type": "nulldata", "hex": "6a146f6d6e69000000000000001f0000001c174ce680", "asm": "OP_RETURN 6f6d6e69000000000000001f0000001c174ce680"}, "value": 0.0, "n": 0}, {"scriptPubKey": {"reqSigs": 1, "hex": "76a91488d924f51033b74a895863a5fb57fd545529df7d88ac", "addresses": ["1DUb2YYbQA1jjaNYzVXLZ7ZioEhLXtbUru"], "asm": "OP_DUP OP_HASH160 88d924f51033b74a895863a5fb57fd545529df7d OP_EQUALVERIFY OP_CHECKSIG", "type": "pubkeyhash"}, "value": 5.46e-06, "n": 1}, {"scriptPubKey": {"reqSigs": 1, "hex": "76a914cba581f403685177546cbb869b27b58cefcfabe388ac", "addresses": ["1KZnSca5m2AEtvYcyXvN3S3wfFJpuhdQLD"], "asm": "OP_DUP OP_HASH160 cba581f403685177546cbb869b27b58cefcfabe3 OP_EQUALVERIFY OP_CHECKSIG", "type": "pubkeyhash"}, "value": 0.00495943, "n": 2}], "hex": "01000000016b4471f852e9111073d66d3564ecdc05c2a48aa76e4d58287cde03a2c0c7b477000000006b483045022100915cabdb5243fa36318699e075ded5f02d8fdf5810ea41b7207b34fdb9e36e760220618a8c09839e021aa242b54f0bf96ecc9109811e1023c5247d9a1584a93b91720121026ed1c668ee0b1f665dfee891f7eb0e861258de72890886608c00e6b2607941f5feffffff030000000000000000166a146f6d6e69000000000000001f0000001c174ce68022020000000000001976a91488d924f51033b74a895863a5fb57fd545529df7d88ac47910700000000001976a914cba581f403685177546cbb869b27b58cefcfabe388ac15490800", "vin": [{"sequence": 4294967294, "scriptSig": {"hex": "483045022100915cabdb5243fa36318699e075ded5f02d8fdf5810ea41b7207b34fdb9e36e760220618a8c09839e021aa242b54f0bf96ecc9109811e1023c5247d9a1584a93b91720121026ed1c668ee0b1f665dfee891f7eb0e861258de72890886608c00e6b2607941f5", "asm": "3045022100915cabdb5243fa36318699e075ded5f02d8fdf5810ea41b7207b34fdb9e36e760220618a8c09839e021aa242b54f0bf96ecc9109811e1023c5247d9a1584a93b9172[ALL] 026ed1c668ee0b1f665dfee891f7eb0e861258de72890886608c00e6b2607941f5"}, "vout": 0, "txid": "77b4c7c0a203de7c28584d6ea78aa4c205dcec64356dd6731011e952f871446b"}], "txid": "4bb6aff00cb022c55bf9e8098306fbb2e68932cf514315b1241c49d234c8ef2e", "blocktime": 1537874412, "version": 1, "confirmations": 11467, "time": 1537874412, "locktime": 542997, "vsize": 257, "size": 257}