{"hash": "1e3aea24ba9b0e6ffd50448a576811742785f17ad387710040c013bf8e2dc415", "blockhash": "0000000000000000001f0ddff1eddb255c1121bcd4da4f1bc9a0da00cae72433", "vout": [{"scriptPubKey": {"reqSigs": 1, "hex": "a9144ddcaaa90b8dd620556409575dc680b306a4ea1887", "addresses": ["38niJW4Cg2eFbKFVREEe6nhqBhj5V8KYNf"], "asm": "OP_HASH160 4ddcaaa90b8dd620556409575dc680b306a4ea18 OP_EQUAL", "type": "scripthash"}, "value": 7.812e-05, "n": 0}, {"scriptPubKey": {"reqSigs": 1, "hex": "a914f1e93e81f890c540384cd0812fed60af62a758cd87", "addresses": ["3Pk8Bs4fvyNTa7jt1Gftv9tsyA44bBu3js"], "asm": "OP_HASH160 f1e93e81f890c540384cd0812fed60af62a758cd OP_EQUAL", "type": "scripthash"}, "value": 0.00473189, "n": 1}], "hex": "01000000000101501c5c0d960e27b63aa44d8a8c1370d1971a73c81eb0f77d6e18cdec2f73d9d70100000023220020730b2a9171b8a50c944bfe975ee27effbd2c73bb7a926610bc423bed80f6a4aaffffffff02841e00000000000017a9144ddcaaa90b8dd620556409575dc680b306a4ea1887653807000000000017a914f1e93e81f890c540384cd0812fed60af62a758cd87040047304402207e3e5ac7344a93f30816c3b52f003e7d332f7ffc799f57ea06b0a4e8855443940220737dbccac9c96abc31000a71d74deb7a481cb06a58665b11606efb291a1a51c2014830450221009c1125a4f0865e5005f8b1a66a56053423476419e235589c511b346068a2c8f2022062c009baaa57ba05da7b234b487880b86ed6550605a9221ed9ad144b23f0bda2014752210249cd7fab5260c5274835aa59298ea72955c764f998887c59281c388ca77a5e5021030580d373ab00643a581abb399b43fa66d7b6fc29624eb75b2d5ec8d99faa163f52ae00000000", "vin": [{"txinwitness": ["", "304402207e3e5ac7344a93f30816c3b52f003e7d332f7ffc799f57ea06b0a4e8855443940220737dbccac9c96abc31000a71d74deb7a481cb06a58665b11606efb291a1a51c201", "30450221009c1125a4f0865e5005f8b1a66a56053423476419e235589c511b346068a2c8f2022062c009baaa57ba05da7b234b487880b86ed6550605a9221ed9ad144b23f0bda201", "52210249cd7fab5260c5274835aa59298ea72955c764f998887c59281c388ca77a5e5021030580d373ab00643a581abb399b43fa66d7b6fc29624eb75b2d5ec8d99faa163f52ae"], "sequence": 4294967295, "scriptSig": {"hex": "220020730b2a9171b8a50c944bfe975ee27effbd2c73bb7a926610bc423bed80f6a4aa", "asm": "0020730b2a9171b8a50c944bfe975ee27effbd2c73bb7a926610bc423bed80f6a4aa"}, "vout": 1, "txid": "d7d9732feccd186e7df7b01ec8731a97d170138c8a4da43ab6270e960d5c1c50"}], "txid": "4bb65f7114b0daa33df0040928aa79b8c5d178955c3b8605efedb3b666c7c685", "blocktime": 1537872018, "version": 1, "confirmations": 11489, "time": 1537872018, "locktime": 0, "vsize": 206, "size": 371}