{"hash": "4bb7d2e2aae556227380b03be749bd2630346ed1b6a33e48456f7e53105b17ea", "blockhash": "0000000000000000001f76057863aec43deb6fa401d9628bb513d65a8098bfab", "vout": [{"scriptPubKey": {"reqSigs": 1, "hex": "a9147295aafcdbe4eb705e05bd7454027c1e070275b987", "addresses": ["3C8tFXDpZ9VsiugnR5fuMbwDuEyUkG8TCM"], "asm": "OP_HASH160 7295aafcdbe4eb705e05bd7454027c1e070275b9 OP_EQUAL", "type": "scripthash"}, "value": 0.00187, "n": 0}, {"scriptPubKey": {"reqSigs": 1, "hex": "76a914a80edb2702abfba6547ff169c36a9e126d27261e88ac", "addresses": ["1GKcKSokqSK5utD9fHgXkEq314YZyURCH8"], "asm": "OP_DUP OP_HASH160 a80edb2702abfba6547ff169c36a9e126d27261e OP_EQUALVERIFY OP_CHECKSIG", "type": "pubkeyhash"}, "value": 0.29198682, "n": 1}], "hex": "0100000001d4d924585dded35644cb9c40e503e92cd7ab8cb5f3399d0f56e22e9c83cde039000000006b483045022100e24b4ee19aab68ee54e30480879c58eff1491d7972c6211b3aecf06ca9a52c4a02204bc68c7e17204134ebeb554ed2c67d7ec79e8eead1e242695f9621300dea01170121027a75a9136b684a7c399d98b3959eab34789bb6180aa40b205ad56fcab032684dffffffff0278da02000000000017a9147295aafcdbe4eb705e05bd7454027c1e070275b9875a89bd01000000001976a914a80edb2702abfba6547ff169c36a9e126d27261e88ac00000000", "vin": [{"sequence": 4294967295, "scriptSig": {"hex": "483045022100e24b4ee19aab68ee54e30480879c58eff1491d7972c6211b3aecf06ca9a52c4a02204bc68c7e17204134ebeb554ed2c67d7ec79e8eead1e242695f9621300dea01170121027a75a9136b684a7c399d98b3959eab34789bb6180aa40b205ad56fcab032684d", "asm": "3045022100e24b4ee19aab68ee54e30480879c58eff1491d7972c6211b3aecf06ca9a52c4a02204bc68c7e17204134ebeb554ed2c67d7ec79e8eead1e242695f9621300dea0117[ALL] 027a75a9136b684a7c399d98b3959eab34789bb6180aa40b205ad56fcab032684d"}, "vout": 0, "txid": "39e0cd839c2ee2560f9d39f3b58cabd72ce903e5409ccb4456d3de5d5824d9d4"}], "txid": "4bb7d2e2aae556227380b03be749bd2630346ed1b6a33e48456f7e53105b17ea", "blocktime": 1537873891, "version": 1, "confirmations": 11474, "time": 1537873891, "locktime": 0, "vsize": 224, "size": 224}