{"hash": "4bbc3a262eba3901dd9195e33768c3635919f1b6b34672546aea5285eaf74ead", "blockhash": "0000000000000000001cda96e906b7601b7a6fb1a3b62bca570a9e5d8f4b3de1", "vout": [{"scriptPubKey": {"reqSigs": 1, "hex": "76a91472f4a228af3f018a8b9290cab9119bfd03b6378d88ac", "addresses": ["1BUq6JG7zZ8ubsLsUMYhNGPzNqzmNQMS2S"], "asm": "OP_DUP OP_HASH160 72f4a228af3f018a8b9290cab9119bfd03b6378d OP_EQUALVERIFY OP_CHECKSIG", "type": "pubkeyhash"}, "value": 0.00554141, "n": 0}, {"scriptPubKey": {"reqSigs": 1, "hex": "76a9143d4a0d6f4004883eccfb29bd3a9746f304e15e3688ac", "addresses": ["16b4vxZzmZHC7yqS7kvCcEz5oVkDQz9H9q"], "asm": "OP_DUP OP_HASH160 3d4a0d6f4004883eccfb29bd3a9746f304e15e36 OP_EQUALVERIFY OP_CHECKSIG", "type": "pubkeyhash"}, "value": 0.02495125, "n": 1}], "hex": "01000000026689744c2fb7bf28353bdbba694e2e4ca9b9727bc3ca0e1916e36d1b95253530000000006a473044022010f274e4bd5990e45f1c00a7b9ea696daf1d4f41b0370be1ba68658f5b41cf9702205df50c27280224cfde657a95be9d1019c37d00c51440b511368b8e31b9aff375012102695db4b1e32bd7d99251a4696792786af6354f1fee91338daef9a56a1d673957ffffffffcc3812e3e44dc6930fa723170a66a5998462a3ecb9d3133abb5de81fc3ba5f7f010000006a47304402205b71a98556d15794cb17edfb1b070f19dbfb494401447b9a39318af3e20d27cb022025defa66475d2fec23e1cf004635355e189d67583343cae3bac5bb94a0979c0c012103a7542ad9a6704e9f8d78753d1dec551c0804a1300dd4b5d89a4a1026ba391200ffffffff029d740800000000001976a91472f4a228af3f018a8b9290cab9119bfd03b6378d88ac95122600000000001976a9143d4a0d6f4004883eccfb29bd3a9746f304e15e3688ac00000000", "vin": [{"sequence": 4294967295, "scriptSig": {"hex": "473044022010f274e4bd5990e45f1c00a7b9ea696daf1d4f41b0370be1ba68658f5b41cf9702205df50c27280224cfde657a95be9d1019c37d00c51440b511368b8e31b9aff375012102695db4b1e32bd7d99251a4696792786af6354f1fee91338daef9a56a1d673957", "asm": "3044022010f274e4bd5990e45f1c00a7b9ea696daf1d4f41b0370be1ba68658f5b41cf9702205df50c27280224cfde657a95be9d1019c37d00c51440b511368b8e31b9aff375[ALL] 02695db4b1e32bd7d99251a4696792786af6354f1fee91338daef9a56a1d673957"}, "vout": 0, "txid": "303525951b6de316190ecac37b72b9a94c2e4e69badb3b3528bfb72f4c748966"}, {"sequence": 4294967295, "scriptSig": {"hex": "47304402205b71a98556d15794cb17edfb1b070f19dbfb494401447b9a39318af3e20d27cb022025defa66475d2fec23e1cf004635355e189d67583343cae3bac5bb94a0979c0c012103a7542ad9a6704e9f8d78753d1dec551c0804a1300dd4b5d89a4a1026ba391200", "asm": "304402205b71a98556d15794cb17edfb1b070f19dbfb494401447b9a39318af3e20d27cb022025defa66475d2fec23e1cf004635355e189d67583343cae3bac5bb94a0979c0c[ALL] 03a7542ad9a6704e9f8d78753d1dec551c0804a1300dd4b5d89a4a1026ba391200"}, "vout": 1, "txid": "7f5fbac31fe85dbb3a13d3b9eca3628499a5660a1723a70f93c64de4e31238cc"}], "txid": "4bbc3a262eba3901dd9195e33768c3635919f1b6b34672546aea5285eaf74ead", "blocktime": 1537873282, "version": 1, "confirmations": 11485, "time": 1537873282, "locktime": 0, "vsize": 372, "size": 372}