{"hash": "4bc69b680d308e6cfc0f9e48b543bbf7dff3d4f52c388a0a186e140915194965", "blockhash": "0000000000000000000e13cef7c366c0283d82e591d1acd082e914b08063cdf1", "vout": [{"scriptPubKey": {"reqSigs": 1, "hex": "76a9147b9aa4c921c0acb768362964c2941a0846bb1f7288ac", "addresses": ["1CGZNRngTcBtFzhecJPwar1cSr5K4bRwg1"], "asm": "OP_DUP OP_HASH160 7b9aa4c921c0acb768362964c2941a0846bb1f72 OP_EQUALVERIFY OP_CHECKSIG", "type": "pubkeyhash"}, "value": 0.202079, "n": 0}], "hex": "0100000007849406df07d0f4dadcdb300c1a17e8a869a71bf3c0da748b99c8067390fcbc73010000006a4730440220153442e428321fb48003c965b830600ec4e23be3810ab58bfe3f1f5df8d326c602206c8bc5d54ae545a791fde8f5f85bee84864e4d772d93db39ba120892581eeae601210321ad3f6883eb0c7b9452282d1002bc90fa1265daf83838bb549b069a78c1284dffffffff9229c98478c0f94933a6117b647c2765338f9f97e71423050a3024d37286b2a1140000006a473044022051e9b9ec371d8e6c56164de78621405478c1e0fa37d64f9d3358f3f2955d990802203b12cb884b024b2adce279dec406f89c0fa566560dc1ed8fda6de2617eb5425c012102daf20b695e629e17da260a8bee3a61df63ea400412a5e1437c371fe1d85c8152ffffffffe1c4d44a388569050c6e59db2d346fb8b0b43367afdf37492a5230d264f875a9000000006b483045022100d5d58cf2975936ae3566b7d016e47800d38863e3511b93b35e7b80b5acd59db10220084fe0b6f86ed06dacfea862b7790c6643262e4dc11380f3b981ab3aa707129d012103582c4099b0fd2c18202b9af121c870c53a17b9a00de9fd45506c92ba42741fc1ffffffffc0cab3bd6a93d978fb262455c4c0c72b8bdec811fa86e14dcd27a51d71dd2342000000006b483045022100deb77339da53166fe9e55695fd8b360be4eb768b8227766e3a572e6a1ee7008002205036822794d38b877fdebfd4e67b514d1ee6cbe902f8d857be41167c6c4f9d9601210320d8acb91b005a5556169834e9656f8de9334f22319f23d4c56d2924f3a54764ffffffffc3fb863a7a9c1b98b8d4c867fa742ea13c847f5c4661cc322241cda9c21627a8010000006b483045022100891d1e562c25829d12bf3eb800a52fbced4f50a880265ce12250affd4a06c6a40220444b732069903b1290cc3073f4efd316ce21d1f23424dcaf683e708b44372be501210239b0d308cfbdef5a76a077085653240b45332a067e88e8e1db30d97635dfc125ffffffff66ccb2d08c32c33c32eda2b06d9a9ee588ecd6d29e75e64ce4d337eeb4687ff4010000006b483045022100ed91175b59c9593eceddbf31b4520130ec2df411f9a5a75d35fede32d6d7844c02203b29fb9fe8ba603efcd73840e478894666140ef08ee0619aa91007113162c042012103415694af57954e18bdd5f7d254fef7037263d0eb7321a8d204a82aa68eb39000ffffffff28dc9a5c56f4c5917e214e5b844cf16fb6781cd92811b914e8e68ca8664ce7e7010000006a4730440220679419e4baf5c28bcfe560c37128d8534dd735337efbfb06a51bb592527f1438022032a5042abec7c2c08ce031e02e4c27ac80230c2176b330c7b874786d0535b59701210326cc71da6aea217e55f29f3c98a9b2aa928b0f2eb81a1e32d6c3c5ca6c1a17fdffffffff011c593401000000001976a9147b9aa4c921c0acb768362964c2941a0846bb1f7288ac00000000", "vin": [{"sequence": 4294967295, "scriptSig": {"hex": "4730440220153442e428321fb48003c965b830600ec4e23be3810ab58bfe3f1f5df8d326c602206c8bc5d54ae545a791fde8f5f85bee84864e4d772d93db39ba120892581eeae601210321ad3f6883eb0c7b9452282d1002bc90fa1265daf83838bb549b069a78c1284d", "asm": "30440220153442e428321fb48003c965b830600ec4e23be3810ab58bfe3f1f5df8d326c602206c8bc5d54ae545a791fde8f5f85bee84864e4d772d93db39ba120892581eeae6[ALL] 0321ad3f6883eb0c7b9452282d1002bc90fa1265daf83838bb549b069a78c1284d"}, "vout": 1, "txid": "73bcfc907306c8998b74dac0f31ba769a8e8171a0c30dbdcdaf4d007df069484"}, {"sequence": 4294967295, "scriptSig": {"hex": "473044022051e9b9ec371d8e6c56164de78621405478c1e0fa37d64f9d3358f3f2955d990802203b12cb884b024b2adce279dec406f89c0fa566560dc1ed8fda6de2617eb5425c012102daf20b695e629e17da260a8bee3a61df63ea400412a5e1437c371fe1d85c8152", "asm": "3044022051e9b9ec371d8e6c56164de78621405478c1e0fa37d64f9d3358f3f2955d990802203b12cb884b024b2adce279dec406f89c0fa566560dc1ed8fda6de2617eb5425c[ALL] 02daf20b695e629e17da260a8bee3a61df63ea400412a5e1437c371fe1d85c8152"}, "vout": 20, "txid": "a1b28672d324300a052314e7979f8f3365277c647b11a63349f9c07884c92992"}, {"sequence": 4294967295, "scriptSig": {"hex": "483045022100d5d58cf2975936ae3566b7d016e47800d38863e3511b93b35e7b80b5acd59db10220084fe0b6f86ed06dacfea862b7790c6643262e4dc11380f3b981ab3aa707129d012103582c4099b0fd2c18202b9af121c870c53a17b9a00de9fd45506c92ba42741fc1", "asm": "3045022100d5d58cf2975936ae3566b7d016e47800d38863e3511b93b35e7b80b5acd59db10220084fe0b6f86ed06dacfea862b7790c6643262e4dc11380f3b981ab3aa707129d[ALL] 03582c4099b0fd2c18202b9af121c870c53a17b9a00de9fd45506c92ba42741fc1"}, "vout": 0, "txid": "a975f864d230522a4937dfaf6733b4b0b86f342ddb596e0c056985384ad4c4e1"}, {"sequence": 4294967295, "scriptSig": {"hex": "483045022100deb77339da53166fe9e55695fd8b360be4eb768b8227766e3a572e6a1ee7008002205036822794d38b877fdebfd4e67b514d1ee6cbe902f8d857be41167c6c4f9d9601210320d8acb91b005a5556169834e9656f8de9334f22319f23d4c56d2924f3a54764", "asm": "3045022100deb77339da53166fe9e55695fd8b360be4eb768b8227766e3a572e6a1ee7008002205036822794d38b877fdebfd4e67b514d1ee6cbe902f8d857be41167c6c4f9d96[ALL] 0320d8acb91b005a5556169834e9656f8de9334f22319f23d4c56d2924f3a54764"}, "vout": 0, "txid": "4223dd711da527cd4de186fa11c8de8b2bc7c0c4552426fb78d9936abdb3cac0"}, {"sequence": 4294967295, "scriptSig": {"hex": "483045022100891d1e562c25829d12bf3eb800a52fbced4f50a880265ce12250affd4a06c6a40220444b732069903b1290cc3073f4efd316ce21d1f23424dcaf683e708b44372be501210239b0d308cfbdef5a76a077085653240b45332a067e88e8e1db30d97635dfc125", "asm": "3045022100891d1e562c25829d12bf3eb800a52fbced4f50a880265ce12250affd4a06c6a40220444b732069903b1290cc3073f4efd316ce21d1f23424dcaf683e708b44372be5[ALL] 0239b0d308cfbdef5a76a077085653240b45332a067e88e8e1db30d97635dfc125"}, "vout": 1, "txid": "a82716c2a9cd412232cc61465c7f843ca12e74fa67c8d4b8981b9c7a3a86fbc3"}, {"sequence": 4294967295, "scriptSig": {"hex": "483045022100ed91175b59c9593eceddbf31b4520130ec2df411f9a5a75d35fede32d6d7844c02203b29fb9fe8ba603efcd73840e478894666140ef08ee0619aa91007113162c042012103415694af57954e18bdd5f7d254fef7037263d0eb7321a8d204a82aa68eb39000", "asm": "3045022100ed91175b59c9593eceddbf31b4520130ec2df411f9a5a75d35fede32d6d7844c02203b29fb9fe8ba603efcd73840e478894666140ef08ee0619aa91007113162c042[ALL] 03415694af57954e18bdd5f7d254fef7037263d0eb7321a8d204a82aa68eb39000"}, "vout": 1, "txid": "f47f68b4ee37d3e44ce6759ed2d6ec88e59e9a6db0a2ed323cc3328cd0b2cc66"}, {"sequence": 4294967295, "scriptSig": {"hex": "4730440220679419e4baf5c28bcfe560c37128d8534dd735337efbfb06a51bb592527f1438022032a5042abec7c2c08ce031e02e4c27ac80230c2176b330c7b874786d0535b59701210326cc71da6aea217e55f29f3c98a9b2aa928b0f2eb81a1e32d6c3c5ca6c1a17fd", "asm": "30440220679419e4baf5c28bcfe560c37128d8534dd735337efbfb06a51bb592527f1438022032a5042abec7c2c08ce031e02e4c27ac80230c2176b330c7b874786d0535b597[ALL] 0326cc71da6aea217e55f29f3c98a9b2aa928b0f2eb81a1e32d6c3c5ca6c1a17fd"}, "vout": 1, "txid": "e7e74c66a88ce6e814b91128d91c78b66ff14c845b4e217e91c5f4565c9adc28"}], "txid": "4bc69b680d308e6cfc0f9e48b543bbf7dff3d4f52c388a0a186e140915194965", "blocktime": 1537871767, "version": 1, "confirmations": 11493, "time": 1537871767, "locktime": 0, "vsize": 1077, "size": 1077}