{"hash": "4bc968cb6284d47f07bcb3a98abb39c24b1b72120b0c53a966550e2488618a8f", "blockhash": "0000000000000000000e13cef7c366c0283d82e591d1acd082e914b08063cdf1", "vout": [{"scriptPubKey": {"reqSigs": 1, "hex": "76a914d1520b54ac5c052c31bc802e28a2b4c216371a2288ac", "addresses": ["1L5nWdQh9aFuLhqp3aB5CrEaXugWdqgPCH"], "asm": "OP_DUP OP_HASH160 d1520b54ac5c052c31bc802e28a2b4c216371a22 OP_EQUALVERIFY OP_CHECKSIG", "type": "pubkeyhash"}, "value": 0.00644999, "n": 0}, {"scriptPubKey": {"type": "nulldata", "hex": "6a4c500000779c000114a898f23fe1bc665f662dbfe3ef3236678a625097bcbefa6b8351586b4eba21a813ee8def98f42073a9709d8c795baa0d99061567b421566cf61d100759d4ba30d2c37bb011d97e02cf", "asm": "OP_RETURN 0000779c000114a898f23fe1bc665f662dbfe3ef3236678a625097bcbefa6b8351586b4eba21a813ee8def98f42073a9709d8c795baa0d99061567b421566cf61d100759d4ba30d2c37bb011d97e02cf"}, "value": 0.0, "n": 1}], "hex": "01000000013b9872363678e9bb2f13b9184e028b78c8659f5270b81b9eaa86d502d8a2d970000000006b483045022100b4a91c6dffafd1894d80c5ae5a5a3668dafafa1945aec5530a799ae8d2001eb002207f8dc5fc5c1773f6016798f2e4662d24d92603396514d016e3d0636074d55235012102064b743b4985eee098059f2a5d01fea1bf06b16cd36b628f7f5909330b912765ffffffff0287d70900000000001976a914d1520b54ac5c052c31bc802e28a2b4c216371a2288ac0000000000000000536a4c500000779c000114a898f23fe1bc665f662dbfe3ef3236678a625097bcbefa6b8351586b4eba21a813ee8def98f42073a9709d8c795baa0d99061567b421566cf61d100759d4ba30d2c37bb011d97e02cf00000000", "vin": [{"sequence": 4294967295, "scriptSig": {"hex": "483045022100b4a91c6dffafd1894d80c5ae5a5a3668dafafa1945aec5530a799ae8d2001eb002207f8dc5fc5c1773f6016798f2e4662d24d92603396514d016e3d0636074d55235012102064b743b4985eee098059f2a5d01fea1bf06b16cd36b628f7f5909330b912765", "asm": "3045022100b4a91c6dffafd1894d80c5ae5a5a3668dafafa1945aec5530a799ae8d2001eb002207f8dc5fc5c1773f6016798f2e4662d24d92603396514d016e3d0636074d55235[ALL] 02064b743b4985eee098059f2a5d01fea1bf06b16cd36b628f7f5909330b912765"}, "vout": 0, "txid": "70d9a2d802d586aa9e1bb870529f65c8788b024e18b9132fbbe978363672983b"}], "txid": "4bc968cb6284d47f07bcb3a98abb39c24b1b72120b0c53a966550e2488618a8f", "blocktime": 1537871767, "version": 1, "confirmations": 11495, "time": 1537871767, "locktime": 0, "vsize": 284, "size": 284}