{"hash": "4bccd3fe696b997547d16ddcd5d8b61552f762ca5b17aa38ef719a3a66b2d240", "blockhash": "00000000000000000018f53835495a110e01622372bf6ae95dc86f2b0ab887b0", "vout": [{"scriptPubKey": {"reqSigs": 1, "hex": "76a9148ae7998879b25fcaf5d605c56b94941582c9388988ac", "addresses": ["1DfThJfWecq7njjLj9CPQ5LeKVHfkDEWMb"], "asm": "OP_DUP OP_HASH160 8ae7998879b25fcaf5d605c56b94941582c93889 OP_EQUALVERIFY OP_CHECKSIG", "type": "pubkeyhash"}, "value": 0.00045847, "n": 0}, {"scriptPubKey": {"reqSigs": 1, "hex": "76a91409946d21f8453bc7075bdb3d2cbb725abb6f085388ac", "addresses": ["1setZrvhyPsRc2cQJoPTs3sZ7bCuq1xeT"], "asm": "OP_DUP OP_HASH160 09946d21f8453bc7075bdb3d2cbb725abb6f0853 OP_EQUALVERIFY OP_CHECKSIG", "type": "pubkeyhash"}, "value": 0.0015618, "n": 1}], "hex": "0100000001481393331fa336568b32d2e53337806ad68ec59814c402d840d043b624aab07d000000006b483045022100c4d3a90bcfbea85a1eb1057876f4572fb19917068307ed203f8a367ab47c137d02201159a49813c43160155b6bdc228d17af61fe03ee66d922460a08463e00f40da2012103a0753398d1cdd55285b681407039f5812bbbcea9de27f653d3777b9e6fff6a1bffffffff0217b30000000000001976a9148ae7998879b25fcaf5d605c56b94941582c9388988ac14620200000000001976a91409946d21f8453bc7075bdb3d2cbb725abb6f085388ac00000000", "vin": [{"sequence": 4294967295, "scriptSig": {"hex": "483045022100c4d3a90bcfbea85a1eb1057876f4572fb19917068307ed203f8a367ab47c137d02201159a49813c43160155b6bdc228d17af61fe03ee66d922460a08463e00f40da2012103a0753398d1cdd55285b681407039f5812bbbcea9de27f653d3777b9e6fff6a1b", "asm": "3045022100c4d3a90bcfbea85a1eb1057876f4572fb19917068307ed203f8a367ab47c137d02201159a49813c43160155b6bdc228d17af61fe03ee66d922460a08463e00f40da2[ALL] 03a0753398d1cdd55285b681407039f5812bbbcea9de27f653d3777b9e6fff6a1b"}, "vout": 0, "txid": "7db0aa24b643d040d802c41498c58ed66a803733e5d2328b5636a31f33931348"}], "txid": "4bccd3fe696b997547d16ddcd5d8b61552f762ca5b17aa38ef719a3a66b2d240", "blocktime": 1537870928, "version": 1, "confirmations": 11514, "time": 1537870928, "locktime": 0, "vsize": 226, "size": 226}