{"hash": "4bd3a0bd9d05deee5e79a2b05715aaab04e70db44da8b80579a5e1ca43e8c48c", "blockhash": "0000000000000000000baef3f32e3676a92c3b2e5da21b426e4f302fc371ce76", "vout": [{"scriptPubKey": {"type": "nulldata", "hex": "6a4c50000078170001531c8e40a2822957b3f09510019d6ddc0f1b8ff117702940d64fa54d8eb2031b266e538dfbecd6ca0bb3b5322d665baa1c1b0615bbafbaed871fbc9a9526289ac0f6612cd74e33776ee4", "asm": "OP_RETURN 000078170001531c8e40a2822957b3f09510019d6ddc0f1b8ff117702940d64fa54d8eb2031b266e538dfbecd6ca0bb3b5322d665baa1c1b0615bbafbaed871fbc9a9526289ac0f6612cd74e33776ee4"}, "value": 0.0, "n": 0}, {"scriptPubKey": {"reqSigs": 1, "hex": "76a9144ff2ca4d2d32a0201c911ca6ec7ed2211cb1378788ac", "addresses": ["18HjEWwazJtbtrCw6Tf18bpgsiytfBoBwp"], "asm": "OP_DUP OP_HASH160 4ff2ca4d2d32a0201c911ca6ec7ed2211cb13787 OP_EQUALVERIFY OP_CHECKSIG", "type": "pubkeyhash"}, "value": 0.00095364, "n": 1}], "hex": "010000000190adcd5a862104421f00c46aad95d05ec79a05e05cbce7c9a64a488d4b51ae69010000006b483045022100c9b42f45b76c933f39b75f8ef6c417aac0aec82514ad2d31335f03b0ebf772ff02205266a7aa17b89432c6957988bd9244af05db337b523c2eb6b71a7d7bbeb40559012102bc3977759afb39334686b18d4045b8ae354983a9e49d9c0a4ac8cc0f96f452d0ffffffff020000000000000000536a4c50000078170001531c8e40a2822957b3f09510019d6ddc0f1b8ff117702940d64fa54d8eb2031b266e538dfbecd6ca0bb3b5322d665baa1c1b0615bbafbaed871fbc9a9526289ac0f6612cd74e33776ee484740100000000001976a9144ff2ca4d2d32a0201c911ca6ec7ed2211cb1378788ac00000000", "vin": [{"sequence": 4294967295, "scriptSig": {"hex": "483045022100c9b42f45b76c933f39b75f8ef6c417aac0aec82514ad2d31335f03b0ebf772ff02205266a7aa17b89432c6957988bd9244af05db337b523c2eb6b71a7d7bbeb40559012102bc3977759afb39334686b18d4045b8ae354983a9e49d9c0a4ac8cc0f96f452d0", "asm": "3045022100c9b42f45b76c933f39b75f8ef6c417aac0aec82514ad2d31335f03b0ebf772ff02205266a7aa17b89432c6957988bd9244af05db337b523c2eb6b71a7d7bbeb40559[ALL] 02bc3977759afb39334686b18d4045b8ae354983a9e49d9c0a4ac8cc0f96f452d0"}, "vout": 1, "txid": "69ae514b8d484aa6c9e7bc5ce0059ac75ed095ad6ac4001f420421865acdad90"}], "txid": "4bd3a0bd9d05deee5e79a2b05715aaab04e70db44da8b80579a5e1ca43e8c48c", "blocktime": 1537876114, "version": 1, "confirmations": 11460, "time": 1537876114, "locktime": 0, "vsize": 284, "size": 284}