{"hash": "4bdad51768318f06ccf56a4fd788d12b7690e7713ff43be8917553cc6d5168a5", "blockhash": "00000000000000000004ffacab907a6b429b9a5745fa0b75af4234bf69dd7176", "vout": [{"scriptPubKey": {"reqSigs": 1, "hex": "76a9145b3a0f2a89486909109ed9a9f97a15b7c828af7d88ac", "addresses": ["19KN3V3RcaGmduTVRdmnyKhJWs3qDBLoci"], "asm": "OP_DUP OP_HASH160 5b3a0f2a89486909109ed9a9f97a15b7c828af7d OP_EQUALVERIFY OP_CHECKSIG", "type": "pubkeyhash"}, "value": 0.00288499, "n": 0}, {"scriptPubKey": {"reqSigs": 1, "hex": "76a914695254c2ba518ce4e23fd7f875f3aca0e3378dd588ac", "addresses": ["1AbtacD8ApvXu3WnoYhnbzCzakCM3F3PRr"], "asm": "OP_DUP OP_HASH160 695254c2ba518ce4e23fd7f875f3aca0e3378dd5 OP_EQUALVERIFY OP_CHECKSIG", "type": "pubkeyhash"}, "value": 0.00300013, "n": 1}], "hex": "01000000027365804a4e4d94fc62699f37667160497888c560139241336d28be585a80a66e010000006a473044022000def78dba0ca2e988bb10581217c67e6d216490fa892b7972f47b3e65fe05e802204144f890072ff55a2aa57d916887fca01d7f56eaeced48411e98be1a4b0b90a20121035ba2f31907a923ae89e093ea10a03f391345c93814f116761ff543c4e4aeb2f8ffffffffab585837834e4059ee0d102f379923930610ade4cefcc845f9319bb1ae06777b000000006b4830450221009c1b1ca950e2b0027ba37b935c3f04d288a6850ac8e8248a3edfc10ed4c9bafd02200a9b4a3997257656725bd95b8d2ec97f7ab278b61dd09c13bc9f2baa3cd4de3a012103392beb462b891b45160333417c7581b24746059e495b0e619d376acbbb5e2d22ffffffff02f3660400000000001976a9145b3a0f2a89486909109ed9a9f97a15b7c828af7d88aced930400000000001976a914695254c2ba518ce4e23fd7f875f3aca0e3378dd588ac00000000", "vin": [{"sequence": 4294967295, "scriptSig": {"hex": "473044022000def78dba0ca2e988bb10581217c67e6d216490fa892b7972f47b3e65fe05e802204144f890072ff55a2aa57d916887fca01d7f56eaeced48411e98be1a4b0b90a20121035ba2f31907a923ae89e093ea10a03f391345c93814f116761ff543c4e4aeb2f8", "asm": "3044022000def78dba0ca2e988bb10581217c67e6d216490fa892b7972f47b3e65fe05e802204144f890072ff55a2aa57d916887fca01d7f56eaeced48411e98be1a4b0b90a2[ALL] 035ba2f31907a923ae89e093ea10a03f391345c93814f116761ff543c4e4aeb2f8"}, "vout": 1, "txid": "6ea6805a58be286d3341921360c5887849607166379f6962fc944d4e4a806573"}, {"sequence": 4294967295, "scriptSig": {"hex": "4830450221009c1b1ca950e2b0027ba37b935c3f04d288a6850ac8e8248a3edfc10ed4c9bafd02200a9b4a3997257656725bd95b8d2ec97f7ab278b61dd09c13bc9f2baa3cd4de3a012103392beb462b891b45160333417c7581b24746059e495b0e619d376acbbb5e2d22", "asm": "30450221009c1b1ca950e2b0027ba37b935c3f04d288a6850ac8e8248a3edfc10ed4c9bafd02200a9b4a3997257656725bd95b8d2ec97f7ab278b61dd09c13bc9f2baa3cd4de3a[ALL] 03392beb462b891b45160333417c7581b24746059e495b0e619d376acbbb5e2d22"}, "vout": 0, "txid": "7b7706aeb19b31f945c8fccee4ad1006932399372f100dee59404e83375858ab"}], "txid": "4bdad51768318f06ccf56a4fd788d12b7690e7713ff43be8917553cc6d5168a5", "blocktime": 1537875543, "version": 1, "confirmations": 11464, "time": 1537875543, "locktime": 0, "vsize": 373, "size": 373}