{"hash": "ae02b10d6875bca76b836a6780c6e1f6a20afdacaa64dcab34ab60c226f7d2ed", "blockhash": "00000000000000000004ffacab907a6b429b9a5745fa0b75af4234bf69dd7176", "vout": [{"scriptPubKey": {"reqSigs": 1, "hex": "a914c817fb3b6a90338e8466563643570afacec69b9687", "addresses": ["3Kw1oAXM4gbnojUHeyJWMySTCovbgDt6Ai"], "asm": "OP_HASH160 c817fb3b6a90338e8466563643570afacec69b96 OP_EQUAL", "type": "scripthash"}, "value": 0.01309127, "n": 0}, {"scriptPubKey": {"reqSigs": 1, "hex": "a9141988a27e3c2df4ddee7fad5a2303d086179b2a3087", "addresses": ["3422VtS7UtCvXYxoXMVp6eZupR252z85oC"], "asm": "OP_HASH160 1988a27e3c2df4ddee7fad5a2303d086179b2a30 OP_EQUAL", "type": "scripthash"}, "value": 2.23754936, "n": 1}], "hex": "01000000000101b8e3e45a2c1e6f997c3f755b80feca2b27d3ac9942d47d2804cce2c4439965fc020000002322002065d416c48a8072e0ac51c2d111eb194f009caef0332446c1bf2097316cf07fa9ffffffff02c7f913000000000017a914c817fb3b6a90338e8466563643570afacec69b9687b83a560d0000000017a9141988a27e3c2df4ddee7fad5a2303d086179b2a30870400483045022100b518cdc7d8943b19016b6d412f34829c724b59aa3d4f266dd82d502064b6f2c202200e2ab19c1aff56593761aa282ef0de5e301bf2ba3deedf665a087a3e0b8352a90148304502210098f247db51c595ad88c5be065ba6f99d21879922555d1f78438cb352cb0ce32e02203fe93d35293ce916220f102e820b8d3f81989a9091adb873b5742fd6cc9a32850169522102f44abcf9e23c9a460da309ccca56c619c04eed3bde2c2cff5e7d78fbcd980b9c2103c9443cf3047bb6c2c82f1b0c44c36109cdc3d0d601d16d1189a1602bf8d1a0a02103bfe867059274412412e088af5572b92168c2ef495cfe6c9b7a753a009eb37c4853ae00000000", "vin": [{"txinwitness": ["", "3045022100b518cdc7d8943b19016b6d412f34829c724b59aa3d4f266dd82d502064b6f2c202200e2ab19c1aff56593761aa282ef0de5e301bf2ba3deedf665a087a3e0b8352a901", "304502210098f247db51c595ad88c5be065ba6f99d21879922555d1f78438cb352cb0ce32e02203fe93d35293ce916220f102e820b8d3f81989a9091adb873b5742fd6cc9a328501", "522102f44abcf9e23c9a460da309ccca56c619c04eed3bde2c2cff5e7d78fbcd980b9c2103c9443cf3047bb6c2c82f1b0c44c36109cdc3d0d601d16d1189a1602bf8d1a0a02103bfe867059274412412e088af5572b92168c2ef495cfe6c9b7a753a009eb37c4853ae"], "sequence": 4294967295, "scriptSig": {"hex": "22002065d416c48a8072e0ac51c2d111eb194f009caef0332446c1bf2097316cf07fa9", "asm": "002065d416c48a8072e0ac51c2d111eb194f009caef0332446c1bf2097316cf07fa9"}, "vout": 2, "txid": "fc659943c4e2cc04287dd44299acd3272bcafe805b753f7c996f1e2c5ae4e3b8"}], "txid": "4be0b598d2987464add63e497fe4d08ff45733c4c8eb44ac9d3aadb116d18ece", "blocktime": 1537875543, "version": 1, "confirmations": 11464, "time": 1537875543, "locktime": 0, "vsize": 214, "size": 406}