{"hash": "3d3dd43c721d002d8b724bfebb699c2a63085ce11197bf9c816d3b059eda8705", "blockhash": "0000000000000000001f0ddff1eddb255c1121bcd4da4f1bc9a0da00cae72433", "vout": [{"scriptPubKey": {"reqSigs": 1, "hex": "a914de9c4ea6d984e8783f67a9e24c0b2bae5360bfcc87", "addresses": ["3Mz5BYgdm3R2VKBZfK1Wz9E5AbR1sT5XfQ"], "asm": "OP_HASH160 de9c4ea6d984e8783f67a9e24c0b2bae5360bfcc OP_EQUAL", "type": "scripthash"}, "value": 0.61412487, "n": 0}, {"scriptPubKey": {"reqSigs": 1, "hex": "a914c60192cc48df11957fd8ea574607d4f7a6eca8ae87", "addresses": ["3KjybrFbrZLNccx1WqyM3bWt2JNgiaHJDx"], "asm": "OP_HASH160 c60192cc48df11957fd8ea574607d4f7a6eca8ae OP_EQUAL", "type": "scripthash"}, "value": 0.07566853, "n": 1}], "hex": "01000000000102980b548afeb59284c5adb9842319ce322a5eacba1bc73e13915f6b2e542dcb7413000000171600146979cb9b0afdcf8bab8331a70d3121069567de1fffffff00e52d0420eaea065697ef2a8f86449b7814447c4b74a7245865c6d61f4c5c203d13000000171600146979cb9b0afdcf8bab8331a70d3121069567de1fffffff00028714a9030000000017a914de9c4ea6d984e8783f67a9e24c0b2bae5360bfcc87057673000000000017a914c60192cc48df11957fd8ea574607d4f7a6eca8ae870247304402206c3a29ed90be92e441c835e663ea503af6a03b4473c446b673a971f5ecb3fa3d02201544f72f1e695c9546a2c3ebb9ec97d0a16eaa940eb9d32fabf781132515d0bb01210313ecc663a3973cf16d18c002285825949bc6167bf8d60dc022fb06ef1f855bd4024830450221009c33c0619ba38fb1a593cc63b26c3bfc402ed6d05d5394ffd0085212fc42898002206a6620df5ac50db149a0e02ca5895244d428b10070b03fd3349e8f7f258d805f01210313ecc663a3973cf16d18c002285825949bc6167bf8d60dc022fb06ef1f855bd400000000", "vin": [{"txinwitness": ["304402206c3a29ed90be92e441c835e663ea503af6a03b4473c446b673a971f5ecb3fa3d02201544f72f1e695c9546a2c3ebb9ec97d0a16eaa940eb9d32fabf781132515d0bb01", "0313ecc663a3973cf16d18c002285825949bc6167bf8d60dc022fb06ef1f855bd4"], "sequence": 16777215, "scriptSig": {"hex": "1600146979cb9b0afdcf8bab8331a70d3121069567de1f", "asm": "00146979cb9b0afdcf8bab8331a70d3121069567de1f"}, "vout": 19, "txid": "74cb2d542e6b5f91133ec71bbaac5e2a32ce192384b9adc58492b5fe8a540b98"}, {"txinwitness": ["30450221009c33c0619ba38fb1a593cc63b26c3bfc402ed6d05d5394ffd0085212fc42898002206a6620df5ac50db149a0e02ca5895244d428b10070b03fd3349e8f7f258d805f01", "0313ecc663a3973cf16d18c002285825949bc6167bf8d60dc022fb06ef1f855bd4"], "sequence": 16777215, "scriptSig": {"hex": "1600146979cb9b0afdcf8bab8331a70d3121069567de1f", "asm": "00146979cb9b0afdcf8bab8331a70d3121069567de1f"}, "vout": 19, "txid": "3d205c4c1fd6c6655824a7744b7c4414789b44868f2aef975606eaea20042de5"}], "txid": "4be42d114933987e6a7305c2366c2622e290d540b1435698c6ae37afcf019bda", "blocktime": 1537872018, "version": 1, "confirmations": 11489, "time": 1537872018, "locktime": 0, "vsize": 257, "size": 419}