{"hash": "4be5bbf1868a232f9268cb7bf7156c9a817807d75626dcdffe4bc6f4d18099d7", "blockhash": "0000000000000000000e13cef7c366c0283d82e591d1acd082e914b08063cdf1", "vout": [{"scriptPubKey": {"reqSigs": 1, "hex": "76a914544def5767387e6c544d3cb66bdd7dc0ac850b6f88ac", "addresses": ["18gm88Piok9YXrWrgHvB3hQqhcutM7BFjZ"], "asm": "OP_DUP OP_HASH160 544def5767387e6c544d3cb66bdd7dc0ac850b6f OP_EQUALVERIFY OP_CHECKSIG", "type": "pubkeyhash"}, "value": 0.00148464, "n": 0}, {"scriptPubKey": {"type": "nulldata", "hex": "6a4c500000779900017c038179860f3e5d945bd11ae3ef3236678a625097bcbefa6b8351586b4ed902b191a16717d951b634efeebbfc6b5baa0d420614f81402a269edbc9a9526289ac0f6612cd74e33776ee4", "asm": "OP_RETURN 0000779900017c038179860f3e5d945bd11ae3ef3236678a625097bcbefa6b8351586b4ed902b191a16717d951b634efeebbfc6b5baa0d420614f81402a269edbc9a9526289ac0f6612cd74e33776ee4"}, "value": 0.0, "n": 1}], "hex": "0100000001d781aa60f2d7e8660f4c030fa91971bf3a022b2a875eb6b389e8b8c6c0f4d036000000006b483045022100ce1ea588d8b242ec0ef689d3625c742b27e3f0ce09de95a50952faba1f41fe9e02200bdd72f826a8a15011ae0a4a0f474d59688f4ec72833c705ab0b4510a0369375012102332d7294d48ed4a5f42d368ec9ff733ba8a493e7add436e2e9ca81fbbcde17e5ffffffff02f0430200000000001976a914544def5767387e6c544d3cb66bdd7dc0ac850b6f88ac0000000000000000536a4c500000779900017c038179860f3e5d945bd11ae3ef3236678a625097bcbefa6b8351586b4ed902b191a16717d951b634efeebbfc6b5baa0d420614f81402a269edbc9a9526289ac0f6612cd74e33776ee400000000", "vin": [{"sequence": 4294967295, "scriptSig": {"hex": "483045022100ce1ea588d8b242ec0ef689d3625c742b27e3f0ce09de95a50952faba1f41fe9e02200bdd72f826a8a15011ae0a4a0f474d59688f4ec72833c705ab0b4510a0369375012102332d7294d48ed4a5f42d368ec9ff733ba8a493e7add436e2e9ca81fbbcde17e5", "asm": "3045022100ce1ea588d8b242ec0ef689d3625c742b27e3f0ce09de95a50952faba1f41fe9e02200bdd72f826a8a15011ae0a4a0f474d59688f4ec72833c705ab0b4510a0369375[ALL] 02332d7294d48ed4a5f42d368ec9ff733ba8a493e7add436e2e9ca81fbbcde17e5"}, "vout": 0, "txid": "36d0f4c0c6b8e889b3b65e872a2b023abf7119a90f034c0f66e8d7f260aa81d7"}], "txid": "4be5bbf1868a232f9268cb7bf7156c9a817807d75626dcdffe4bc6f4d18099d7", "blocktime": 1537871767, "version": 1, "confirmations": 11493, "time": 1537871767, "locktime": 0, "vsize": 284, "size": 284}