{"hash": "4beaaa00b5a11bc18d8bfcb41ada63e7d0d141c86bcae3ece80cf45675c211e2", "blockhash": "0000000000000000000dcc0f55137456b1a82d3642486a52398922ac4d620174", "vout": [{"scriptPubKey": {"reqSigs": 1, "hex": "76a9142ea4a2d5359af93bbd730c5326fd8a9cfa2eb2b888ac", "addresses": ["15FdJwSRqnKQKcAcZ8Q8Tiwt5QeYRszVqg"], "asm": "OP_DUP OP_HASH160 2ea4a2d5359af93bbd730c5326fd8a9cfa2eb2b8 OP_EQUALVERIFY OP_CHECKSIG", "type": "pubkeyhash"}, "value": 0.00102121, "n": 0}, {"scriptPubKey": {"reqSigs": 1, "hex": "76a914220a4c1a245e99f354fe458b002738c94b001e7288ac", "addresses": ["146zJzPEV63UmzJWtpuW6ajR9f78ccYj83"], "asm": "OP_DUP OP_HASH160 220a4c1a245e99f354fe458b002738c94b001e72 OP_EQUALVERIFY OP_CHECKSIG", "type": "pubkeyhash"}, "value": 0.05454619, "n": 1}], "hex": "010000000349f165a4f80998b1a1390a68ea7e0972178fa66e6d15f017720a5ee46eebcbbe000000006a4730440220072858fe3cbdb85bbfbb91e782c563d98d7b29761ab43ecbc129c2ed7096c6c00220443e3c31d5ca2ecd782d7482d3ca935ffec930f90ffb3c7a3d3285b04064fd6a012102ba80abce999924d51f9b06dcdbc462fd70faeae31e1dfcec4440c2d9a5c83409ffffffffc85ac9a9d3b315f0f10fff25f77aad031f8d12d00a58687d247445ab0748d3d5010000006a47304402200c76292e77e4eeb91893e6c77a633b1e0921ce66608f5391b7842682a030e53d022059e82535f93e91323b178d5817c06aff514f8b0080c8efcfdbc6f4ca14a355a1012103d817bc352c0aa48225f49f0a77c54a17631e676400a1c6e63a16097b43992663ffffffff1a960c30371404f719279f67040d27afc23da1211c42e83fcc2125599f4997da000000006a473044022070f304250bc7a796043a36c60fc95b1a9609bf014b49d54dbf416d77ea979ae30220114dc02aa32da155b0dcc2c6df903c6a92a85e8e2ff89976e1ca4b47c393efea012102c87c62791e154503b0433ebf89787aa25be20c8593d935d5064c4a9a1f8ef58effffffff02e98e0100000000001976a9142ea4a2d5359af93bbd730c5326fd8a9cfa2eb2b888ac1b3b5300000000001976a914220a4c1a245e99f354fe458b002738c94b001e7288ac00000000", "vin": [{"sequence": 4294967295, "scriptSig": {"hex": "4730440220072858fe3cbdb85bbfbb91e782c563d98d7b29761ab43ecbc129c2ed7096c6c00220443e3c31d5ca2ecd782d7482d3ca935ffec930f90ffb3c7a3d3285b04064fd6a012102ba80abce999924d51f9b06dcdbc462fd70faeae31e1dfcec4440c2d9a5c83409", "asm": "30440220072858fe3cbdb85bbfbb91e782c563d98d7b29761ab43ecbc129c2ed7096c6c00220443e3c31d5ca2ecd782d7482d3ca935ffec930f90ffb3c7a3d3285b04064fd6a[ALL] 02ba80abce999924d51f9b06dcdbc462fd70faeae31e1dfcec4440c2d9a5c83409"}, "vout": 0, "txid": "becbeb6ee45e0a7217f0156d6ea68f1772097eea680a39a1b19809f8a465f149"}, {"sequence": 4294967295, "scriptSig": {"hex": "47304402200c76292e77e4eeb91893e6c77a633b1e0921ce66608f5391b7842682a030e53d022059e82535f93e91323b178d5817c06aff514f8b0080c8efcfdbc6f4ca14a355a1012103d817bc352c0aa48225f49f0a77c54a17631e676400a1c6e63a16097b43992663", "asm": "304402200c76292e77e4eeb91893e6c77a633b1e0921ce66608f5391b7842682a030e53d022059e82535f93e91323b178d5817c06aff514f8b0080c8efcfdbc6f4ca14a355a1[ALL] 03d817bc352c0aa48225f49f0a77c54a17631e676400a1c6e63a16097b43992663"}, "vout": 1, "txid": "d5d34807ab4574247d68580ad0128d1f03ad7af725ff0ff1f015b3d3a9c95ac8"}, {"sequence": 4294967295, "scriptSig": {"hex": "473044022070f304250bc7a796043a36c60fc95b1a9609bf014b49d54dbf416d77ea979ae30220114dc02aa32da155b0dcc2c6df903c6a92a85e8e2ff89976e1ca4b47c393efea012102c87c62791e154503b0433ebf89787aa25be20c8593d935d5064c4a9a1f8ef58e", "asm": "3044022070f304250bc7a796043a36c60fc95b1a9609bf014b49d54dbf416d77ea979ae30220114dc02aa32da155b0dcc2c6df903c6a92a85e8e2ff89976e1ca4b47c393efea[ALL] 02c87c62791e154503b0433ebf89787aa25be20c8593d935d5064c4a9a1f8ef58e"}, "vout": 0, "txid": "da97499f592521cc3fe8421c21a13dc2af270d04679f2719f7041437300c961a"}], "txid": "4beaaa00b5a11bc18d8bfcb41ada63e7d0d141c86bcae3ece80cf45675c211e2", "blocktime": 1537870268, "version": 1, "confirmations": 11518, "time": 1537870268, "locktime": 0, "vsize": 519, "size": 519}