{"hash": "920e2510d6f92d4ac62d1477d4f2a5131e226c579e1b2d301f860e11372217df", "blockhash": "0000000000000000001f0ddff1eddb255c1121bcd4da4f1bc9a0da00cae72433", "vout": [{"scriptPubKey": {"reqSigs": 1, "hex": "a914b1b2a37fa49cdc6bdf4546c9493498c317edcb9787", "addresses": ["3HtbXXgmR5TgqG4YyQQJ6ayn4YiickvUPG"], "asm": "OP_HASH160 b1b2a37fa49cdc6bdf4546c9493498c317edcb97 OP_EQUAL", "type": "scripthash"}, "value": 0.01389808, "n": 0}, {"scriptPubKey": {"reqSigs": 1, "hex": "76a91430d3b40e3a2f82baaf27295c1974a46169aca33b88ac", "addresses": ["15TB3ccJRUSMwGrmCCEPzm4LxHWXMmAdqp"], "asm": "OP_DUP OP_HASH160 30d3b40e3a2f82baaf27295c1974a46169aca33b OP_EQUALVERIFY OP_CHECKSIG", "type": "pubkeyhash"}, "value": 0.01667991, "n": 1}], "hex": "01000000000101d88a4474e5c274806199c49c866dcae67e99bcc7895058730ef7dd7225b6e87902000000232200204dda54c553ac81e4c794680bacf2dfa79369662f7c863769f5ab391f6b428e9fffffffff02f03415000000000017a914b1b2a37fa49cdc6bdf4546c9493498c317edcb978797731900000000001976a91430d3b40e3a2f82baaf27295c1974a46169aca33b88ac0400483045022100da070e2f7d7c871a9eedb64ca4626bd77515f4043d661f9e18ea4a6e0dd31a1c0220324a5ecb6e25fcd0a917148b40932a90e3159ac75ed72645aff8adb5a6b5f14401483045022100b49839739dd7aae6f31c564c6a8af064997c71d0b8928bf0757f699950ea9600022021e829a261746af0cbae22aa32ee58a73ac2d59dfb2cd10fce4cf89e845c71db016952210376019547f46880c982ae3a3b0fade8fe3757105804b3190afc277954514e7c7f2103873f439cc9c90ea055bc9eb6f0115cf882c1ee0613a0a5d4ccd811a2c71e7570210332516e1ed6f66e56a077b97541cc836f44393446d269ff81bf60d8452c1a3b8053ae12490800", "vin": [{"txinwitness": ["", "3045022100da070e2f7d7c871a9eedb64ca4626bd77515f4043d661f9e18ea4a6e0dd31a1c0220324a5ecb6e25fcd0a917148b40932a90e3159ac75ed72645aff8adb5a6b5f14401", "3045022100b49839739dd7aae6f31c564c6a8af064997c71d0b8928bf0757f699950ea9600022021e829a261746af0cbae22aa32ee58a73ac2d59dfb2cd10fce4cf89e845c71db01", "52210376019547f46880c982ae3a3b0fade8fe3757105804b3190afc277954514e7c7f2103873f439cc9c90ea055bc9eb6f0115cf882c1ee0613a0a5d4ccd811a2c71e7570210332516e1ed6f66e56a077b97541cc836f44393446d269ff81bf60d8452c1a3b8053ae"], "sequence": 4294967295, "scriptSig": {"hex": "2200204dda54c553ac81e4c794680bacf2dfa79369662f7c863769f5ab391f6b428e9f", "asm": "00204dda54c553ac81e4c794680bacf2dfa79369662f7c863769f5ab391f6b428e9f"}, "vout": 2, "txid": "79e8b62572ddf70e73585089c7bc997ee6ca6d869cc499618074c2e574448ad8"}], "txid": "4bead9cb8339afab393dc9cded6e2b756afd4db0aaa88bbb27200db8db1fe77b", "blocktime": 1537872018, "version": 1, "confirmations": 11489, "time": 1537872018, "locktime": 542994, "vsize": 216, "size": 408}