{"hash": "4cf3e9ccbea1d8715c882f66d4adc4806d3ccc989b2e0e9e067b9b0fb6bbb671", "blockhash": "0000000000000000001f76057863aec43deb6fa401d9628bb513d65a8098bfab", "vout": [{"scriptPubKey": {"reqSigs": 1, "hex": "0014ec16cc040cb575c54d5c33bd824846da17348a83", "addresses": ["bc1qastvcpqvk46u2n2uxw7cyjzxmgtnfz5rdcrgh9"], "asm": "0 ec16cc040cb575c54d5c33bd824846da17348a83", "type": "witness_v0_keyhash"}, "value": 1.348e-05, "n": 0}, {"scriptPubKey": {"reqSigs": 1, "hex": "a9147eff7e65fde2c71c8caba52fc0aadcf9bfd0877287", "addresses": ["3DGX8jM4TKFyUwsMhRLwh6ERoHZvqGhCy4"], "asm": "OP_HASH160 7eff7e65fde2c71c8caba52fc0aadcf9bfd08772 OP_EQUAL", "type": "scripthash"}, "value": 0.00079924, "n": 1}], "hex": "01000000000101650060bef1cc43b37906b988d72b137d3284ad2d1c08025527051b7ad28982e80000000000ffffffff024405000000000000160014ec16cc040cb575c54d5c33bd824846da17348a83343801000000000017a9147eff7e65fde2c71c8caba52fc0aadcf9bfd08772870247304402206d87f2a206ffb16edf8fa4547e065407fc2a9b20d1031c8c6743a42e16c5ff50022027434a341f9063c4a191aa5532d2847ea389829d814205c7e74327a92b35941b0121036bbf164b1b216bf0f24fe193427761a5a16aedd1e503ad7d393a93193482fff200000000", "vin": [{"txinwitness": ["304402206d87f2a206ffb16edf8fa4547e065407fc2a9b20d1031c8c6743a42e16c5ff50022027434a341f9063c4a191aa5532d2847ea389829d814205c7e74327a92b35941b01", "036bbf164b1b216bf0f24fe193427761a5a16aedd1e503ad7d393a93193482fff2"], "sequence": 4294967295, "scriptSig": {"hex": "", "asm": ""}, "vout": 0, "txid": "e88289d27a1b05275502081c2dad84327d132bd788b90679b343ccf1be600065"}], "txid": "4bec119e8777b6c614f41921e176776d4713f9d86af5b9f5e305f181a4afdcb6", "blocktime": 1537873891, "version": 1, "confirmations": 11478, "time": 1537873891, "locktime": 0, "vsize": 142, "size": 223}