{"hash": "4bf3c7ee45596458f1d50ffda5dbe7437d5097a35358898c0268ccb386973ecb", "blockhash": "00000000000000000017f5eb5941039fbcee6240d03bc1f2f8e35350df66a1d8", "vout": [{"scriptPubKey": {"type": "nulldata", "hex": "6a146f6d6e69000000000000001f0000000a56530fec", "asm": "OP_RETURN 6f6d6e69000000000000001f0000000a56530fec"}, "value": 0.0, "n": 0}, {"scriptPubKey": {"reqSigs": 1, "hex": "76a91446a8a27a7f51f84dc75ae07019df18ca39cecd2288ac", "addresses": ["17ScKNXo4cL8DyfWfcCWu1uJySQuJm7iKC"], "asm": "OP_DUP OP_HASH160 46a8a27a7f51f84dc75ae07019df18ca39cecd22 OP_EQUALVERIFY OP_CHECKSIG", "type": "pubkeyhash"}, "value": 0.57445183, "n": 1}, {"scriptPubKey": {"reqSigs": 1, "hex": "76a914396328844d86d6487f17ca871800ec80645b6abb88ac", "addresses": ["16ESJa9yKUhHFkkGjymKbm7wLh2zJv2q31"], "asm": "OP_DUP OP_HASH160 396328844d86d6487f17ca871800ec80645b6abb OP_EQUALVERIFY OP_CHECKSIG", "type": "pubkeyhash"}, "value": 5.46e-06, "n": 2}], "hex": "0100000001eaa9231a6a4cfc197b5a6c92d66f5b75fa3ece09040bc8b212079c000d7d29de000000006a47304402205d5398c1c6984be16378b3ba250b9423c5033b91515e86607ab780c922ba1927022048abe8f4d6d8f4cc9dca580f85e7facd18c49a32086ac4d2278ce77bc39240e1012102b7042dc82d0ecbadc24910515789f34674fe32a285676c7f7b0c64f750b10e36feffffff030000000000000000166a146f6d6e69000000000000001f0000000a56530fec3f8b6c03000000001976a91446a8a27a7f51f84dc75ae07019df18ca39cecd2288ac22020000000000001976a914396328844d86d6487f17ca871800ec80645b6abb88ac15490800", "vin": [{"sequence": 4294967294, "scriptSig": {"hex": "47304402205d5398c1c6984be16378b3ba250b9423c5033b91515e86607ab780c922ba1927022048abe8f4d6d8f4cc9dca580f85e7facd18c49a32086ac4d2278ce77bc39240e1012102b7042dc82d0ecbadc24910515789f34674fe32a285676c7f7b0c64f750b10e36", "asm": "304402205d5398c1c6984be16378b3ba250b9423c5033b91515e86607ab780c922ba1927022048abe8f4d6d8f4cc9dca580f85e7facd18c49a32086ac4d2278ce77bc39240e1[ALL] 02b7042dc82d0ecbadc24910515789f34674fe32a285676c7f7b0c64f750b10e36"}, "vout": 0, "txid": "de297d0d009c0712b2c80b0409ce3efa755b6fd6926c5a7b19fc4c6a1a23a9ea"}], "txid": "4bf3c7ee45596458f1d50ffda5dbe7437d5097a35358898c0268ccb386973ecb", "blocktime": 1537874412, "version": 1, "confirmations": 11467, "time": 1537874412, "locktime": 542997, "vsize": 256, "size": 256}