{"hash": "4bf83ac613be888c59cde1a799ca79fa5074bc7f576f4b52e851d5d6f0a554e3", "blockhash": "00000000000000000017f5eb5941039fbcee6240d03bc1f2f8e35350df66a1d8", "vout": [{"scriptPubKey": {"reqSigs": 1, "hex": "a914cf4ff87f8a874ab425a59cf3071b1a33d9133c4887", "addresses": ["3LbBbiNFD91rqY1xDAmbiEY6QPGWxekg8r"], "asm": "OP_HASH160 cf4ff87f8a874ab425a59cf3071b1a33d9133c48 OP_EQUAL", "type": "scripthash"}, "value": 0.001, "n": 0}, {"scriptPubKey": {"reqSigs": 1, "hex": "76a914fd77ac84d17e37ab5e3105aa6bbc78fdf76c884588ac", "addresses": ["1Q7DKd3v1iyPguUvGswVt96Y11xJmS97HY"], "asm": "OP_DUP OP_HASH160 fd77ac84d17e37ab5e3105aa6bbc78fdf76c8845 OP_EQUALVERIFY OP_CHECKSIG", "type": "pubkeyhash"}, "value": 0.04219232, "n": 1}], "hex": "01000000018f1abcdb60ec05966cc1f6e07f35b8a64d19ab0f4426cb1b68617192b1244f38010000006a473044022068563770e9b2d06767d3749bc5cffc156814b4d9ed169babf9239394150a1621022016e41581cb58fbf66467c7dc62df45d9cc1adcd2b886df1d46772741ca89debd01210315a988717202e4c7482ea0750b82cd56d350129d0e23f1a6907d99c0baa1e5d7ffffffff02a08601000000000017a914cf4ff87f8a874ab425a59cf3071b1a33d9133c488760614000000000001976a914fd77ac84d17e37ab5e3105aa6bbc78fdf76c884588ac00000000", "vin": [{"sequence": 4294967295, "scriptSig": {"hex": "473044022068563770e9b2d06767d3749bc5cffc156814b4d9ed169babf9239394150a1621022016e41581cb58fbf66467c7dc62df45d9cc1adcd2b886df1d46772741ca89debd01210315a988717202e4c7482ea0750b82cd56d350129d0e23f1a6907d99c0baa1e5d7", "asm": "3044022068563770e9b2d06767d3749bc5cffc156814b4d9ed169babf9239394150a1621022016e41581cb58fbf66467c7dc62df45d9cc1adcd2b886df1d46772741ca89debd[ALL] 0315a988717202e4c7482ea0750b82cd56d350129d0e23f1a6907d99c0baa1e5d7"}, "vout": 1, "txid": "384f24b1927161681bcb26440fab194da6b8357fe0f6c16c9605ec60dbbc1a8f"}], "txid": "4bf83ac613be888c59cde1a799ca79fa5074bc7f576f4b52e851d5d6f0a554e3", "blocktime": 1537874412, "version": 1, "confirmations": 11468, "time": 1537874412, "locktime": 0, "vsize": 223, "size": 223}