{"hash": "4bfce9935726ff878a00e3a6b1021a24bed3b2e49e6734277985a7fb7af66b71", "blockhash": "00000000000000000017f5eb5941039fbcee6240d03bc1f2f8e35350df66a1d8", "vout": [{"scriptPubKey": {"type": "nulldata", "hex": "6a146f6d6e69000000000000001f000001ad5fa42190", "asm": "OP_RETURN 6f6d6e69000000000000001f000001ad5fa42190"}, "value": 0.0, "n": 0}, {"scriptPubKey": {"reqSigs": 1, "hex": "76a914519c59e69f990208d282d456c9e38813531403ca88ac", "addresses": ["18SX31VAWZfjaL2fQEtgJsrVPD4gkA5sDU"], "asm": "OP_DUP OP_HASH160 519c59e69f990208d282d456c9e38813531403ca OP_EQUALVERIFY OP_CHECKSIG", "type": "pubkeyhash"}, "value": 0.00499064, "n": 1}, {"scriptPubKey": {"reqSigs": 1, "hex": "76a914a25dec4d0011064ef106a983c39c7a540699f22088ac", "addresses": ["1FoWyxwPXuj4C6abqwhjDWdz6D4PZgYRjA"], "asm": "OP_DUP OP_HASH160 a25dec4d0011064ef106a983c39c7a540699f220 OP_EQUALVERIFY OP_CHECKSIG", "type": "pubkeyhash"}, "value": 5.46e-06, "n": 2}], "hex": "01000000013a4c1d798db6bc890731bb89fb16f82f1d6cbe6a01b7d47d30c65bc3d1988db3010000006b4830450221008a2a0806e661b22d580673c1434351c8c63d186c80c28a4ec0dacb5724956b4702207bd657c17d8a010706cfe198735d7b3670af1dbac3b92e278f906b7e77064fb50121023c8017d7fca1ca44cbf402e74d71328ffc87568a81690070323d312728e8d458feffffff030000000000000000166a146f6d6e69000000000000001f000001ad5fa42190789d0700000000001976a914519c59e69f990208d282d456c9e38813531403ca88ac22020000000000001976a914a25dec4d0011064ef106a983c39c7a540699f22088ac15490800", "vin": [{"sequence": 4294967294, "scriptSig": {"hex": "4830450221008a2a0806e661b22d580673c1434351c8c63d186c80c28a4ec0dacb5724956b4702207bd657c17d8a010706cfe198735d7b3670af1dbac3b92e278f906b7e77064fb50121023c8017d7fca1ca44cbf402e74d71328ffc87568a81690070323d312728e8d458", "asm": "30450221008a2a0806e661b22d580673c1434351c8c63d186c80c28a4ec0dacb5724956b4702207bd657c17d8a010706cfe198735d7b3670af1dbac3b92e278f906b7e77064fb5[ALL] 023c8017d7fca1ca44cbf402e74d71328ffc87568a81690070323d312728e8d458"}, "vout": 1, "txid": "b38d98d1c35bc6307dd4b7016abe6c1d2ff816fb89bb310789bcb68d791d4c3a"}], "txid": "4bfce9935726ff878a00e3a6b1021a24bed3b2e49e6734277985a7fb7af66b71", "blocktime": 1537874412, "version": 1, "confirmations": 11468, "time": 1537874412, "locktime": 542997, "vsize": 257, "size": 257}