{"hash": "9697c2c464aaa9fbec856ae89f80d15e5227f0e4cec5c22c75b3796750b7605e", "blockhash": "0000000000000000001f76057863aec43deb6fa401d9628bb513d65a8098bfab", "vout": [{"scriptPubKey": {"reqSigs": 1, "hex": "0014b03a4d4c71644284de08562f11936b2ebd908eba", "addresses": ["bc1qkqay6nr3v3pgfhsg2ch3rymt967epr46lxzcll"], "asm": "0 b03a4d4c71644284de08562f11936b2ebd908eba", "type": "witness_v0_keyhash"}, "value": 0.00050928, "n": 0}, {"scriptPubKey": {"reqSigs": 1, "hex": "76a914965c261944e1ffa4dffc0fda6224a813e5ad7a6488ac", "addresses": ["1Ei2kPSzHRa7siy5CjxLXNJHvHTBKDypYY"], "asm": "OP_DUP OP_HASH160 965c261944e1ffa4dffc0fda6224a813e5ad7a64 OP_EQUALVERIFY OP_CHECKSIG", "type": "pubkeyhash"}, "value": 0.01204807, "n": 1}], "hex": "01000000000101a97805970bee5f53d4f3346c2383c2adc56d135ffebf85fe7e6ccb0816c9babd0000000000ffffffff02f0c6000000000000160014b03a4d4c71644284de08562f11936b2ebd908eba47621200000000001976a914965c261944e1ffa4dffc0fda6224a813e5ad7a6488ac02473044022027605bbc676f12e1a3c37c75a5ac32277d60504be7f86d4bc9a1806b42a14879022028b1259e1a23caed5f63dbe7c9aeb39872f9f3650025dc65d68ef1d647affb27012102467c21fa7cd44b8149c9b3a6c55e955b470e08fdf5fd88d9cce0899aed4a303f00000000", "vin": [{"txinwitness": ["3044022027605bbc676f12e1a3c37c75a5ac32277d60504be7f86d4bc9a1806b42a14879022028b1259e1a23caed5f63dbe7c9aeb39872f9f3650025dc65d68ef1d647affb2701", "02467c21fa7cd44b8149c9b3a6c55e955b470e08fdf5fd88d9cce0899aed4a303f"], "sequence": 4294967295, "scriptSig": {"hex": "", "asm": ""}, "vout": 0, "txid": "bdbac91608cb6c7efe85bffe5f136dc5adc283236c34f3d4535fee0b970578a9"}], "txid": "4c023e4cfcc99b7da9ad36893e8ed096f439ac4cd1fc380a4fb45cacfa617b70", "blocktime": 1537873891, "version": 1, "confirmations": 11478, "time": 1537873891, "locktime": 0, "vsize": 144, "size": 225}