{"hash": "4c09f4b5b9cbbe86971b035dbbca537b746ac73a6d491ea05eac03e96f9bd9e9", "blockhash": "00000000000000000017f5eb5941039fbcee6240d03bc1f2f8e35350df66a1d8", "vout": [{"scriptPubKey": {"reqSigs": 1, "hex": "a9143e58ec2ed7e2a6d4f73c0378b18ab916f4ede2d487", "addresses": ["37NgLtQS5zaJeB8XPjtAk49oKgcZzakFBc"], "asm": "OP_HASH160 3e58ec2ed7e2a6d4f73c0378b18ab916f4ede2d4 OP_EQUAL", "type": "scripthash"}, "value": 0.00305667, "n": 0}, {"scriptPubKey": {"reqSigs": 1, "hex": "76a914fdcf7066c14c1e330a8d3c540d8271f33b6f6af488ac", "addresses": ["1Q92Teq3nkPqq2BdmsqUNrRNcG9hMTVm7g"], "asm": "OP_DUP OP_HASH160 fdcf7066c14c1e330a8d3c540d8271f33b6f6af4 OP_EQUALVERIFY OP_CHECKSIG", "type": "pubkeyhash"}, "value": 9.237e-05, "n": 1}], "hex": "0100000002fd8fd2c752001747fe6eb72b4dc869db7cfa59613b6234f51e563b38f034827d00000000da0048304502210083904cb928f75f78a5d2473f41ce5076da46a59f567dbbd0a3ca15b67ea044a8022033bdb326bc219e3eddc8c1f6f3bfabb7254d19447381562f411ab8d93ba1f9780147304402207091762fd8785ab97c1b3d69de580af8e5d16c84d9be952a73153f79435ec3180220541ecdf6ad0468a6ec281fea232c9ee70b574c2d2562c45093cf7ba543abab870147522102907a54bed8ad74b3f35638c60114ca240a308cb986f3f2f306178869a8880b6121032e7a27c57395caf2b5d53e02fb1ac096fe2394beb70329ea7fb5a7b4cb4b965152aeffffffff1435318a26358ebf557ad7006313dba02806d72df83e30377d15633bdee1c06d010000006b48304502210083a034e018659ed6f13dc8102471fd8d07871b7a9120cf08478c6a18fa3ce73002207971b08ca7a990d1d51e9222326708cb709d94588983b9185216ec915e2eced7012102f8a3d63dc4c91ce193b0f9afe1c6b5098c080968d7592b67ff38a68370e2fbf5ffffffff0203aa04000000000017a9143e58ec2ed7e2a6d4f73c0378b18ab916f4ede2d48715240000000000001976a914fdcf7066c14c1e330a8d3c540d8271f33b6f6af488ac00000000", "vin": [{"sequence": 4294967295, "scriptSig": {"hex": "0048304502210083904cb928f75f78a5d2473f41ce5076da46a59f567dbbd0a3ca15b67ea044a8022033bdb326bc219e3eddc8c1f6f3bfabb7254d19447381562f411ab8d93ba1f9780147304402207091762fd8785ab97c1b3d69de580af8e5d16c84d9be952a73153f79435ec3180220541ecdf6ad0468a6ec281fea232c9ee70b574c2d2562c45093cf7ba543abab870147522102907a54bed8ad74b3f35638c60114ca240a308cb986f3f2f306178869a8880b6121032e7a27c57395caf2b5d53e02fb1ac096fe2394beb70329ea7fb5a7b4cb4b965152ae", "asm": "0 304502210083904cb928f75f78a5d2473f41ce5076da46a59f567dbbd0a3ca15b67ea044a8022033bdb326bc219e3eddc8c1f6f3bfabb7254d19447381562f411ab8d93ba1f978[ALL] 304402207091762fd8785ab97c1b3d69de580af8e5d16c84d9be952a73153f79435ec3180220541ecdf6ad0468a6ec281fea232c9ee70b574c2d2562c45093cf7ba543abab87[ALL] 522102907a54bed8ad74b3f35638c60114ca240a308cb986f3f2f306178869a8880b6121032e7a27c57395caf2b5d53e02fb1ac096fe2394beb70329ea7fb5a7b4cb4b965152ae"}, "vout": 0, "txid": "7d8234f0383b561ef534623b6159fa7cdb69c84d2bb76efe47170052c7d28ffd"}, {"sequence": 4294967295, "scriptSig": {"hex": "48304502210083a034e018659ed6f13dc8102471fd8d07871b7a9120cf08478c6a18fa3ce73002207971b08ca7a990d1d51e9222326708cb709d94588983b9185216ec915e2eced7012102f8a3d63dc4c91ce193b0f9afe1c6b5098c080968d7592b67ff38a68370e2fbf5", "asm": "304502210083a034e018659ed6f13dc8102471fd8d07871b7a9120cf08478c6a18fa3ce73002207971b08ca7a990d1d51e9222326708cb709d94588983b9185216ec915e2eced7[ALL] 02f8a3d63dc4c91ce193b0f9afe1c6b5098c080968d7592b67ff38a68370e2fbf5"}, "vout": 1, "txid": "6dc0e1de3b63157d37303ef82dd70628a0db136300d77a55bf8e35268a313514"}], "txid": "4c09f4b5b9cbbe86971b035dbbca537b746ac73a6d491ea05eac03e96f9bd9e9", "blocktime": 1537874412, "version": 1, "confirmations": 11467, "time": 1537874412, "locktime": 0, "vsize": 483, "size": 483}