{"hash": "4c13088ddbed36c7c9735a9eea8fb9dee039f103bf5a1b764f0f44ca55b55f07", "blockhash": "0000000000000000001f76057863aec43deb6fa401d9628bb513d65a8098bfab", "vout": [{"scriptPubKey": {"reqSigs": 1, "hex": "76a9141c38c2808af59318b1699e0bcd2710bb7aee9b2e88ac", "addresses": ["13aDv7MJ6s2fe4kHKSDru7st19iXMf3sYw"], "asm": "OP_DUP OP_HASH160 1c38c2808af59318b1699e0bcd2710bb7aee9b2e OP_EQUALVERIFY OP_CHECKSIG", "type": "pubkeyhash"}, "value": 0.002, "n": 0}, {"scriptPubKey": {"reqSigs": 1, "hex": "76a914654225a87dd8ee8fe4fe9a93f4d4c32449b6805888ac", "addresses": ["1AEQVMewyAFqrVSrEcovBiuiAwBttUnRVn"], "asm": "OP_DUP OP_HASH160 654225a87dd8ee8fe4fe9a93f4d4c32449b68058 OP_EQUALVERIFY OP_CHECKSIG", "type": "pubkeyhash"}, "value": 0.01298192, "n": 1}], "hex": "0100000001516cd02abeb6211de3f2ccdc17af72b7579898e3425d1e15fe4e7d6ace354264010000006b4830450221009ac5a80e36253f058fd28201af4d8e14aa694441f1953b57cdec6dc007c1f92c02202cbfe945152f476fd9baa84d2491313c2475db3119b396ce93b0ba8f0aa32da4012103d32ba52fae32590b4898aff4a5d713012a5339c0700e7eece3f7ebab3aa7cbbcffffffff02400d0300000000001976a9141c38c2808af59318b1699e0bcd2710bb7aee9b2e88ac10cf1300000000001976a914654225a87dd8ee8fe4fe9a93f4d4c32449b6805888ac00000000", "vin": [{"sequence": 4294967295, "scriptSig": {"hex": "4830450221009ac5a80e36253f058fd28201af4d8e14aa694441f1953b57cdec6dc007c1f92c02202cbfe945152f476fd9baa84d2491313c2475db3119b396ce93b0ba8f0aa32da4012103d32ba52fae32590b4898aff4a5d713012a5339c0700e7eece3f7ebab3aa7cbbc", "asm": "30450221009ac5a80e36253f058fd28201af4d8e14aa694441f1953b57cdec6dc007c1f92c02202cbfe945152f476fd9baa84d2491313c2475db3119b396ce93b0ba8f0aa32da4[ALL] 03d32ba52fae32590b4898aff4a5d713012a5339c0700e7eece3f7ebab3aa7cbbc"}, "vout": 1, "txid": "644235ce6a7d4efe151e5d42e3989857b772af17dcccf2e31d21b6be2ad06c51"}], "txid": "4c13088ddbed36c7c9735a9eea8fb9dee039f103bf5a1b764f0f44ca55b55f07", "blocktime": 1537873891, "version": 1, "confirmations": 11475, "time": 1537873891, "locktime": 0, "vsize": 226, "size": 226}