{"hash": "4c15f00fa379584c11616f73165b88b1cb622acb1eb0fe1dbeee05a356121c00", "blockhash": "00000000000000000004ffacab907a6b429b9a5745fa0b75af4234bf69dd7176", "vout": [{"scriptPubKey": {"reqSigs": 1, "hex": "76a914604e23b1cca899526596f036c5d28af8dd401a7088ac", "addresses": ["19nDUe3KH722NHqHTnXbU7w5YPN2PjzeT7"], "asm": "OP_DUP OP_HASH160 604e23b1cca899526596f036c5d28af8dd401a70 OP_EQUALVERIFY OP_CHECKSIG", "type": "pubkeyhash"}, "value": 0.02119764, "n": 0}, {"scriptPubKey": {"reqSigs": 1, "hex": "a914f914cf8ca3dd9b3c98885447a7f3f7905cd37fdd87", "addresses": ["3QQ37GKy2HxVc8KjFoDysKzAmmrFuYgHBR"], "asm": "OP_HASH160 f914cf8ca3dd9b3c98885447a7f3f7905cd37fdd OP_EQUAL", "type": "scripthash"}, "value": 0.188058, "n": 1}], "hex": "01000000034642adffdbce5f19329d156fff7423fa0be4330dee4ae63664c4940645b4761a000000006b483045022100fe7e5e18a787c73aa5090d321627a03081e5061bcb19241f0f6d998526650bf802205b5c9d8860016438f289c5912dc8ac35338ddaeee7970632f3d3eb061b8406ad012103692290ace1c6ab2874aedac54be330cf8dcdcd473b1a5edae661073f2516a063fdffffff4ed65b95d0959b4b3c07b08fcb39037fbde7c79c4eb1aec0b917031ceccd206b000000006a473044022059070518af1675dade629dabacd1a046f56c17975a381c4a7be129c5098e407a02202b948ccf81e257b3b7455d864309dda89dc008735e627c14f89994298ee8d1f6012103f47bbb295d7c9476872a5495a4845ea88fa0bfcdb84f88639045d4299bc6f505fdffffffa82189ba78c642d3796dfab70cb82ea6cec850ea57fea4420fde1e10d259b0fb010000006a47304402202c1c13093970548e20aec85cf1206a5086d2bcf03b6c1932a720514eed61d7a6022057f0656461eb785a8a217c99190f021a5fda664dc95b15ae094d6204d6231a840121037dbd8edf880d16629b5401d62e0fc2149a3ddaf48989aa948c09e33f63ec6050fdffffff0254582000000000001976a914604e23b1cca899526596f036c5d28af8dd401a7088ac28f41e010000000017a914f914cf8ca3dd9b3c98885447a7f3f7905cd37fdd8716490800", "vin": [{"sequence": 4294967293, "scriptSig": {"hex": "483045022100fe7e5e18a787c73aa5090d321627a03081e5061bcb19241f0f6d998526650bf802205b5c9d8860016438f289c5912dc8ac35338ddaeee7970632f3d3eb061b8406ad012103692290ace1c6ab2874aedac54be330cf8dcdcd473b1a5edae661073f2516a063", "asm": "3045022100fe7e5e18a787c73aa5090d321627a03081e5061bcb19241f0f6d998526650bf802205b5c9d8860016438f289c5912dc8ac35338ddaeee7970632f3d3eb061b8406ad[ALL] 03692290ace1c6ab2874aedac54be330cf8dcdcd473b1a5edae661073f2516a063"}, "vout": 0, "txid": "1a76b4450694c46436e64aee0d33e40bfa2374ff6f159d32195fcedbffad4246"}, {"sequence": 4294967293, "scriptSig": {"hex": "473044022059070518af1675dade629dabacd1a046f56c17975a381c4a7be129c5098e407a02202b948ccf81e257b3b7455d864309dda89dc008735e627c14f89994298ee8d1f6012103f47bbb295d7c9476872a5495a4845ea88fa0bfcdb84f88639045d4299bc6f505", "asm": "3044022059070518af1675dade629dabacd1a046f56c17975a381c4a7be129c5098e407a02202b948ccf81e257b3b7455d864309dda89dc008735e627c14f89994298ee8d1f6[ALL] 03f47bbb295d7c9476872a5495a4845ea88fa0bfcdb84f88639045d4299bc6f505"}, "vout": 0, "txid": "6b20cdec1c0317b9c0aeb14e9cc7e7bd7f0339cb8fb0073c4b9b95d0955bd64e"}, {"sequence": 4294967293, "scriptSig": {"hex": "47304402202c1c13093970548e20aec85cf1206a5086d2bcf03b6c1932a720514eed61d7a6022057f0656461eb785a8a217c99190f021a5fda664dc95b15ae094d6204d6231a840121037dbd8edf880d16629b5401d62e0fc2149a3ddaf48989aa948c09e33f63ec6050", "asm": "304402202c1c13093970548e20aec85cf1206a5086d2bcf03b6c1932a720514eed61d7a6022057f0656461eb785a8a217c99190f021a5fda664dc95b15ae094d6204d6231a84[ALL] 037dbd8edf880d16629b5401d62e0fc2149a3ddaf48989aa948c09e33f63ec6050"}, "vout": 1, "txid": "fbb059d2101ede0f42a4fe57ea50c8cea62eb80cb7fa6d79d342c678ba8921a8"}], "txid": "4c15f00fa379584c11616f73165b88b1cb622acb1eb0fe1dbeee05a356121c00", "blocktime": 1537875543, "version": 1, "confirmations": 11464, "time": 1537875543, "locktime": 542998, "vsize": 518, "size": 518}