{"hash": "35bba460b05d8971b313872071c9f9ef9f764e72f345dff1215569014e2b1727", "blockhash": "0000000000000000000dcc0f55137456b1a82d3642486a52398922ac4d620174", "vout": [{"scriptPubKey": {"reqSigs": 1, "hex": "76a9145263e629c15acc899ef5931e7f2b5f7d66eb389088ac", "addresses": ["18We5qh2mf7qgmmq25PDiYvX2C6kh5hZse"], "asm": "OP_DUP OP_HASH160 5263e629c15acc899ef5931e7f2b5f7d66eb3890 OP_EQUALVERIFY OP_CHECKSIG", "type": "pubkeyhash"}, "value": 0.56769, "n": 0}, {"scriptPubKey": {"reqSigs": 1, "hex": "a914a0a9faa06df768ceffd18efbf3be572406620e7787", "addresses": ["3GLXfauG3Z2aYYxSpJbqZsu8124ZTaewb2"], "asm": "OP_HASH160 a0a9faa06df768ceffd18efbf3be572406620e77 OP_EQUAL", "type": "scripthash"}, "value": 0.00998752, "n": 1}], "hex": "0200000000010a261e84b40c3de14ac6c50735f4ad94f38718d6e696292f9c4f40b8b0ab6e77730100000017160014fad024f1013b5587c7e14bc0f60742b41e0ec98efeffffff2a1100f446d7bf594b19f764d28daeb5c18621bb00cdf6e463bbf378c51c889201000000171600141703ff949cb63a6ac958ec54f60f1bffc73b923dfeffffff333428a83f257b268eabc27c419ad8774e542c60f2d4732349dcc3ea71cf1ecb0100000017160014b78b579ccb3047a39413c7e96df4691d83c16297feffffff5d02d7fb43fd86daae0c02b1083d0325a240e52de7f532ef4347651cf9c6395c00000000171600145cb027078b18c372dc1b901e166538bcb59e92bffeffffff7525b70089d3d4cb3fc915af1c0e3cdc742ad5e51f0596c1a3a632724f1c8690000000001716001469baf7c6f3c102c6e5b5c81e1bd96106c3986502feffffff7acc6347ba21f4edc396c11b2bdf5afcbff0b9523a4f059fea66fba0067aa847000000001716001404b3ff02bd4c3a5dc444d60625e3e10918024feffeffffff81ecda9bfcf5ce95407c6e02d0ab3b54b3c835faea4ef685999b8b2ce6917ecf01000000171600144ddff082c8e3f2eba03ffd73ba34017018d5d635feffffffb5f760b44cd90d04609a0e0fd02bd02f0886c85db7cd46d051008199ab10ac2d0100000017160014d5959b209e90a76ce72a18d1972101d5be6ab318feffffffbf2f82e4ba3cf7375176479d798cd0f7a37ccc54b28436b69ac82b923250c3da0000000017160014e7ce4cabc87e0a93b09aafd596b62546cd00fb13feffffffc54678561a64102d82e04cf65760d9a61779354a3285aa9e188143e77399097b0000000017160014a8611142bd62da38c9a14905cbaf73b048f6f720feffffff02e8396203000000001976a9145263e629c15acc899ef5931e7f2b5f7d66eb389088ac603d0f000000000017a914a0a9faa06df768ceffd18efbf3be572406620e778702483045022100ba765a7ad5e63ec78fbeea2194c4165ff92c1b04a1e2b759e0db88ae4dc50fa302202f492ef643939fdb9a0fe8fce44e50d978bb7f20987870fdecf7a848643a3afb012103059e952d108af324df8c84f26463e78a7fb5702c1c31f158e5c9c6a135b5030302483045022100c429ae8669550842f101e3ac4207bb8b56b8a385fd9de0cb19422d3d46af676802205efb779df19cea4db86fd00b98f1c167a713ff244e12f67710a1688238719732012102f4486223952025dc7aa51e3c25012684bd505bbdc3f7a81b69e5a9c671de263c02483045022100e6f2d486a0503c664ced1dc964a8774a9220f1a916968e4b4a486e6835b2e7dd022048ce060a1f5e962f416e740d0674aa011e3887438206b05aaf24c6d7f73552a9012102a9a06a80328176f0acf3c9ab285cfa4e45d8a85f2f49f5e68581dd8c867895c00247304402203223067ac87acc159578e92ae4796f3ae957cf8545f8f28531f09e2a8161321002200525bed3166bf482f12762a0a99ba855483630f99264b7707e38ca1a304228070121021626d7a458494109d92652d27e2ebf78a4e5cb241e53acc963a42c5309fc7d0b02473044022027fb5c1ee29f81d7d2c43b9b385048bf4ef442d37ba455b91f20d942284031d502200d758f430597f9f08bfaf164240a3bdd60f007082ef033d4eee08a85be9ba2e5012103d57502d3799bc94dc4edb0bcded1b3ba31dac1571d00d6110e759479626f71a702483045022100d31ed071b01e50959092a1939e190154f2e001c82b1fbbbec91fa8cb250b31b102206fd90301950b443de5cf74eec05c67e4d6410beba828bf01a3727288ab1686f9012103ffcb3b71299dffb50661dc5c2cf7c44fb3bf7cd66511897bc1310bd6011d946402483045022100d2d769de6b257cc9249b8377c1ab31e3ab5021fdb6b1aee7a440d5d1947c05c20220239107672eacf62b933c5b5b614af56730a01b7ad0d0b6c767dc1c8da0bcbfc101210340f9b1cecc9721cfde06cb5aa5affe3ab7c9e64dfbd53471f6cba9c88edeb0e402473044022004f8eae3f321b5137e3d6cb51cdd62d0d0f37292980a01d7c51c67256a3f480802203378f180938f4b3cfb72b989669d770b68db7a596e4813f3f85cdcd5dc5b9a67012103da41fc60e9aa33213fbe38db678305e01f9344c9f92e7d6371f23ef3ddd4284502483045022100be9ed35e732cba2fa5bceadd0bd804a23113d2897807dd64dc1e6edd1423be43022020792ec0ac92bbcf3bcaeed4e7604e2280d65a3ab9346f9ec52cec7da061839901210265c7355073233a9197156cdff1ef72e925576370105a327f78ddbb3b3a5441ea02483045022100908e9154ade7f41a068a6cdfed9c2a21db6e958c5bc723c6bc31deeb49f291d602202d3f02448705cb398314ef817371ca965c0cdd5397f5e36c872bd20b21ebfcd4012103737d556a29fcb9b9fd347346e4a30e6251d84348e4b297549b05d706ab3ef43f0c490800", "vin": [{"txinwitness": ["3045022100ba765a7ad5e63ec78fbeea2194c4165ff92c1b04a1e2b759e0db88ae4dc50fa302202f492ef643939fdb9a0fe8fce44e50d978bb7f20987870fdecf7a848643a3afb01", "03059e952d108af324df8c84f26463e78a7fb5702c1c31f158e5c9c6a135b50303"], "sequence": 4294967294, "scriptSig": {"hex": "160014fad024f1013b5587c7e14bc0f60742b41e0ec98e", "asm": "0014fad024f1013b5587c7e14bc0f60742b41e0ec98e"}, "vout": 1, "txid": "73776eabb0b8404f9c2f2996e6d61887f394adf43507c5c64ae13d0cb4841e26"}, {"txinwitness": ["3045022100c429ae8669550842f101e3ac4207bb8b56b8a385fd9de0cb19422d3d46af676802205efb779df19cea4db86fd00b98f1c167a713ff244e12f67710a168823871973201", "02f4486223952025dc7aa51e3c25012684bd505bbdc3f7a81b69e5a9c671de263c"], "sequence": 4294967294, "scriptSig": {"hex": "1600141703ff949cb63a6ac958ec54f60f1bffc73b923d", "asm": "00141703ff949cb63a6ac958ec54f60f1bffc73b923d"}, "vout": 1, "txid": "92881cc578f3bb63e4f6cd00bb2186c1b5ae8dd264f7194b59bfd746f400112a"}, {"txinwitness": ["3045022100e6f2d486a0503c664ced1dc964a8774a9220f1a916968e4b4a486e6835b2e7dd022048ce060a1f5e962f416e740d0674aa011e3887438206b05aaf24c6d7f73552a901", "02a9a06a80328176f0acf3c9ab285cfa4e45d8a85f2f49f5e68581dd8c867895c0"], "sequence": 4294967294, "scriptSig": {"hex": "160014b78b579ccb3047a39413c7e96df4691d83c16297", "asm": "0014b78b579ccb3047a39413c7e96df4691d83c16297"}, "vout": 1, "txid": "cb1ecf71eac3dc492373d4f2602c544e77d89a417cc2ab8e267b253fa8283433"}, {"txinwitness": ["304402203223067ac87acc159578e92ae4796f3ae957cf8545f8f28531f09e2a8161321002200525bed3166bf482f12762a0a99ba855483630f99264b7707e38ca1a3042280701", "021626d7a458494109d92652d27e2ebf78a4e5cb241e53acc963a42c5309fc7d0b"], "sequence": 4294967294, "scriptSig": {"hex": "1600145cb027078b18c372dc1b901e166538bcb59e92bf", "asm": "00145cb027078b18c372dc1b901e166538bcb59e92bf"}, "vout": 0, "txid": "5c39c6f91c654743ef32f5e72de540a225033d08b1020caeda86fd43fbd7025d"}, {"txinwitness": ["3044022027fb5c1ee29f81d7d2c43b9b385048bf4ef442d37ba455b91f20d942284031d502200d758f430597f9f08bfaf164240a3bdd60f007082ef033d4eee08a85be9ba2e501", "03d57502d3799bc94dc4edb0bcded1b3ba31dac1571d00d6110e759479626f71a7"], "sequence": 4294967294, "scriptSig": {"hex": "16001469baf7c6f3c102c6e5b5c81e1bd96106c3986502", "asm": "001469baf7c6f3c102c6e5b5c81e1bd96106c3986502"}, "vout": 0, "txid": "90861c4f7232a6a3c196051fe5d52a74dc3c0e1caf15c93fcbd4d38900b72575"}, {"txinwitness": ["3045022100d31ed071b01e50959092a1939e190154f2e001c82b1fbbbec91fa8cb250b31b102206fd90301950b443de5cf74eec05c67e4d6410beba828bf01a3727288ab1686f901", "03ffcb3b71299dffb50661dc5c2cf7c44fb3bf7cd66511897bc1310bd6011d9464"], "sequence": 4294967294, "scriptSig": {"hex": "16001404b3ff02bd4c3a5dc444d60625e3e10918024fef", "asm": "001404b3ff02bd4c3a5dc444d60625e3e10918024fef"}, "vout": 0, "txid": "47a87a06a0fb66ea9f054f3a52b9f0bffc5adf2b1bc196c3edf421ba4763cc7a"}, {"txinwitness": ["3045022100d2d769de6b257cc9249b8377c1ab31e3ab5021fdb6b1aee7a440d5d1947c05c20220239107672eacf62b933c5b5b614af56730a01b7ad0d0b6c767dc1c8da0bcbfc101", "0340f9b1cecc9721cfde06cb5aa5affe3ab7c9e64dfbd53471f6cba9c88edeb0e4"], "sequence": 4294967294, "scriptSig": {"hex": "1600144ddff082c8e3f2eba03ffd73ba34017018d5d635", "asm": "00144ddff082c8e3f2eba03ffd73ba34017018d5d635"}, "vout": 1, "txid": "cf7e91e62c8b9b9985f64eeafa35c8b3543babd0026e7c4095cef5fc9bdaec81"}, {"txinwitness": ["3044022004f8eae3f321b5137e3d6cb51cdd62d0d0f37292980a01d7c51c67256a3f480802203378f180938f4b3cfb72b989669d770b68db7a596e4813f3f85cdcd5dc5b9a6701", "03da41fc60e9aa33213fbe38db678305e01f9344c9f92e7d6371f23ef3ddd42845"], "sequence": 4294967294, "scriptSig": {"hex": "160014d5959b209e90a76ce72a18d1972101d5be6ab318", "asm": "0014d5959b209e90a76ce72a18d1972101d5be6ab318"}, "vout": 1, "txid": "2dac10ab99810051d046cdb75dc886082fd02bd00f0e9a60040dd94cb460f7b5"}, {"txinwitness": ["3045022100be9ed35e732cba2fa5bceadd0bd804a23113d2897807dd64dc1e6edd1423be43022020792ec0ac92bbcf3bcaeed4e7604e2280d65a3ab9346f9ec52cec7da061839901", "0265c7355073233a9197156cdff1ef72e925576370105a327f78ddbb3b3a5441ea"], "sequence": 4294967294, "scriptSig": {"hex": "160014e7ce4cabc87e0a93b09aafd596b62546cd00fb13", "asm": "0014e7ce4cabc87e0a93b09aafd596b62546cd00fb13"}, "vout": 0, "txid": "dac35032922bc89ab63684b254cc7ca3f7d08c799d47765137f73cbae4822fbf"}, {"txinwitness": ["3045022100908e9154ade7f41a068a6cdfed9c2a21db6e958c5bc723c6bc31deeb49f291d602202d3f02448705cb398314ef817371ca965c0cdd5397f5e36c872bd20b21ebfcd401", "03737d556a29fcb9b9fd347346e4a30e6251d84348e4b297549b05d706ab3ef43f"], "sequence": 4294967294, "scriptSig": {"hex": "160014a8611142bd62da38c9a14905cbaf73b048f6f720", "asm": "0014a8611142bd62da38c9a14905cbaf73b048f6f720"}, "vout": 0, "txid": "7b099973e74381189eaa85324a357917a6d96057f64ce0822d10641a567846c5"}], "txid": "4c16f96e6a37e403b6314f9ab18a263ad7ea9348c80d3b2ed34b88cf9eddf8d5", "blocktime": 1537870268, "version": 2, "confirmations": 11516, "time": 1537870268, "locktime": 542988, "vsize": 986, "size": 1795}