{"hash": "ae1d9b01058ec1a87fb5cde4a689419a4d594a455c38720efa7d6bad8c0e360a", "blockhash": "0000000000000000000e13cef7c366c0283d82e591d1acd082e914b08063cdf1", "vout": [{"scriptPubKey": {"reqSigs": 1, "hex": "a914c4226ecda3f26c74fe2d93ac58f7efc7a347946b87", "addresses": ["3Ka5caRpqiujRFZVC7Srfbk1kJg84ezhXY"], "asm": "OP_HASH160 c4226ecda3f26c74fe2d93ac58f7efc7a347946b OP_EQUAL", "type": "scripthash"}, "value": 44.08324099, "n": 0}, {"scriptPubKey": {"reqSigs": 1, "hex": "a9147482923b276faa7266e80115c13ec872a1314cf887", "addresses": ["3CK4j3TRwNjkwMRefSkmrYHZDUfwzKYL9X"], "asm": "OP_HASH160 7482923b276faa7266e80115c13ec872a1314cf8 OP_EQUAL", "type": "scripthash"}, "value": 0.0225, "n": 1}, {"scriptPubKey": {"reqSigs": 1, "hex": "a914fe6ce42b34cb3a816df1d4a2527d10ba495c3bf087", "addresses": ["3QtJ1AgZsjwooW79ksLQRvAjhjmoZUE98b"], "asm": "OP_HASH160 fe6ce42b34cb3a816df1d4a2527d10ba495c3bf0 OP_EQUAL", "type": "scripthash"}, "value": 0.0016, "n": 2}, {"scriptPubKey": {"reqSigs": 1, "hex": "a914dde5d57b4de18df76d0bc92318780d7b616b20c287", "addresses": ["3MvJb5WJ5EEUEGBb4riuexnzyCc3EPUkw2"], "asm": "OP_HASH160 dde5d57b4de18df76d0bc92318780d7b616b20c2 OP_EQUAL", "type": "scripthash"}, "value": 0.00271674, "n": 3}, {"scriptPubKey": {"reqSigs": 1, "hex": "a914d492783d7acb4a95b0e6309e6ae24713ef6fc67b87", "addresses": ["3M4ze6zbeBhaSGL1CRxUorzxp7kRpWidDA"], "asm": "OP_HASH160 d492783d7acb4a95b0e6309e6ae24713ef6fc67b OP_EQUAL", "type": "scripthash"}, "value": 0.0028456, "n": 4}, {"scriptPubKey": {"reqSigs": 1, "hex": "a914b6db24b2b6255f609f920c408c1462072a49b41087", "addresses": ["3JMsRoadbqrssGKxHfasVsP3QAFmHxmJf1"], "asm": "OP_HASH160 b6db24b2b6255f609f920c408c1462072a49b410 OP_EQUAL", "type": "scripthash"}, "value": 0.0029473, "n": 5}, {"scriptPubKey": {"reqSigs": 1, "hex": "a91454588bbcf7cda36c82a5a9c0d579d547eb0db53d87", "addresses": ["39Nzkvxizrp79Dbky5Lsigg3Tpj87MpSaM"], "asm": "OP_HASH160 54588bbcf7cda36c82a5a9c0d579d547eb0db53d OP_EQUAL", "type": "scripthash"}, "value": 0.00171114, "n": 6}, {"scriptPubKey": {"reqSigs": 1, "hex": "a9148a61a5d8fa2ec1f85706bb79300beebe5b4e122a87", "addresses": ["3EJi9hypQzs2ufrtMhRi4mBqsiBaxfk2d2"], "asm": "OP_HASH160 8a61a5d8fa2ec1f85706bb79300beebe5b4e122a OP_EQUAL", "type": "scripthash"}, "value": 0.0036, "n": 7}, {"scriptPubKey": {"reqSigs": 1, "hex": "a914e7b9fc0e6ea41162946c0d2b4116d78112a3028b87", "addresses": ["3NpGpHwEqkkQ2juN9gKQd7fsb4ojXXdg7U"], "asm": "OP_HASH160 e7b9fc0e6ea41162946c0d2b4116d78112a3028b OP_EQUAL", "type": "scripthash"}, "value": 0.088818, "n": 8}, {"scriptPubKey": {"reqSigs": 1, "hex": "a914d7ae8c80f2aa12174cae9e7e64cd685d6732838687", "addresses": ["3MMSJerbxizEWpVJSkvAw4GrVzRyXagNP3"], "asm": "OP_HASH160 d7ae8c80f2aa12174cae9e7e64cd685d67328386 OP_EQUAL", "type": "scripthash"}, "value": 0.00781394, "n": 9}, {"scriptPubKey": {"reqSigs": 1, "hex": "a91413f7406cf3213ae28870898408b6cacced191bb187", "addresses": ["33WaxXzi1YuWFP8ib9izY1tiehMnKKFPfB"], "asm": "OP_HASH160 13f7406cf3213ae28870898408b6cacced191bb1 OP_EQUAL", "type": "scripthash"}, "value": 0.00216244, "n": 10}, {"scriptPubKey": {"reqSigs": 1, "hex": "a914f9958760bdf67593dc105ecd05f32c6b80f33ce287", "addresses": ["3QShJkgxo5oZ476g2XzW7iCfB5CMbaX7Bg"], "asm": "OP_HASH160 f9958760bdf67593dc105ecd05f32c6b80f33ce2 OP_EQUAL", "type": "scripthash"}, "value": 0.01067567, "n": 11}, {"scriptPubKey": {"reqSigs": 1, "hex": "a914ab60de72ac33f7e5d3016054cbbfe6e87bd9445f87", "addresses": ["3HKBWvE8JdsFYPhcUxPpurdvWXRUsWVCEc"], "asm": "OP_HASH160 ab60de72ac33f7e5d3016054cbbfe6e87bd9445f OP_EQUAL", "type": "scripthash"}, "value": 0.00094404, "n": 12}, {"scriptPubKey": {"reqSigs": 1, "hex": "a914b28d1618c6776263e8c933a4c882aa5d90ad265d87", "addresses": ["3Hy7DYCCPoFXAujXynWQfgBd5dLNbTX4WV"], "asm": "OP_HASH160 b28d1618c6776263e8c933a4c882aa5d90ad265d OP_EQUAL", "type": "scripthash"}, "value": 0.02335, "n": 13}, {"scriptPubKey": {"reqSigs": 1, "hex": "76a9141dd52d2b46c6985a9280ebe4d26cf0bf787bb72e88ac", "addresses": ["13ijyKfusNuanaUwN6ADbAYPFGBBKeJy9C"], "asm": "OP_DUP OP_HASH160 1dd52d2b46c6985a9280ebe4d26cf0bf787bb72e OP_EQUALVERIFY OP_CHECKSIG", "type": "pubkeyhash"}, "value": 0.02002812, "n": 14}, {"scriptPubKey": {"reqSigs": 1, "hex": "76a914573a69df595c2aa96fa5dbb2ecd8336c702fe3b288ac", "addresses": ["18xDmLRRTtM4q3V9KXR1EmvUmQgmHUA1qn"], "asm": "OP_DUP OP_HASH160 573a69df595c2aa96fa5dbb2ecd8336c702fe3b2 OP_EQUALVERIFY OP_CHECKSIG", "type": "pubkeyhash"}, "value": 0.39, "n": 15}, {"scriptPubKey": {"reqSigs": 1, "hex": "a914263655a915ca44b6320ca1971f4336c3318e40b487", "addresses": ["35B4h4uy6PagLbW4E1c9g1h9mkCqWYtpZd"], "asm": "OP_HASH160 263655a915ca44b6320ca1971f4336c3318e40b4 OP_EQUAL", "type": "scripthash"}, "value": 0.00425031, "n": 16}, {"scriptPubKey": {"reqSigs": 1, "hex": "a914076c2a76845bac7c71bd3af1038dc8ea95e294ab87", "addresses": ["32NGEPAnEAqwsrPVYnpqMPmLZPN8hm969P"], "asm": "OP_HASH160 076c2a76845bac7c71bd3af1038dc8ea95e294ab OP_EQUAL", "type": "scripthash"}, "value": 0.00973213, "n": 17}, {"scriptPubKey": {"reqSigs": 1, "hex": "a914c4cc12c8a64c82b0bd017b5e84e9ae6af79fe98687", "addresses": ["3KdaqQgaLsv9QkD5HKXiw7zU43MUNSw5qR"], "asm": "OP_HASH160 c4cc12c8a64c82b0bd017b5e84e9ae6af79fe986 OP_EQUAL", "type": "scripthash"}, "value": 0.00283464, "n": 18}, {"scriptPubKey": {"reqSigs": 1, "hex": "a914c7e176e1f7a0b2a54103cf856bdbfbde33f62c9c87", "addresses": ["3KutVFvf78pj63rc6E4QM6iMcF4xpGmKU4"], "asm": "OP_HASH160 c7e176e1f7a0b2a54103cf856bdbfbde33f62c9c OP_EQUAL", "type": "scripthash"}, "value": 0.00182713, "n": 19}, {"scriptPubKey": {"reqSigs": 1, "hex": "76a91430fd20c848393f81f6224455e381eb3c1368426188ac", "addresses": ["15U2frWGTjtFpYKhXAHQCnTjefBNjHQvqs"], "asm": "OP_DUP OP_HASH160 30fd20c848393f81f6224455e381eb3c13684261 OP_EQUALVERIFY OP_CHECKSIG", "type": "pubkeyhash"}, "value": 0.00920257, "n": 20}, {"scriptPubKey": {"reqSigs": 1, "hex": "76a914a2cb4e0cd2768921a28b39ecb5c39dec6c89404688ac", "addresses": ["1Fqn1wxELH4KUMmhNtuLmr2YT4RgJrFz9B"], "asm": "OP_DUP OP_HASH160 a2cb4e0cd2768921a28b39ecb5c39dec6c894046 OP_EQUALVERIFY OP_CHECKSIG", "type": "pubkeyhash"}, "value": 0.03858873, "n": 21}, {"scriptPubKey": {"reqSigs": 1, "hex": "a9144802164141b3cc8e1af5cf3286d856204217723e87", "addresses": ["38Fm5MjGE2hfH2s9GULLn4a87fN2Q9fPCT"], "asm": "OP_HASH160 4802164141b3cc8e1af5cf3286d856204217723e OP_EQUAL", "type": "scripthash"}, "value": 0.0019266, "n": 22}, {"scriptPubKey": {"reqSigs": 1, "hex": "a91499d7e7388b80bba01bca745989ca14f7b127ab3187", "addresses": ["3FiTx7RdwHgrxFY7BZwLsfJZspFQyAtFpk"], "asm": "OP_HASH160 99d7e7388b80bba01bca745989ca14f7b127ab31 OP_EQUAL", "type": "scripthash"}, "value": 0.004443, "n": 23}, {"scriptPubKey": {"reqSigs": 1, "hex": "a9148bc7be05892d3f6347e675f105268f53a8e24a1287", "addresses": ["3ES78YY6NuaxF2YN3mHtiNcCXKhQTgEBxs"], "asm": "OP_HASH160 8bc7be05892d3f6347e675f105268f53a8e24a12 OP_EQUAL", "type": "scripthash"}, "value": 0.00261022, "n": 24}, {"scriptPubKey": {"reqSigs": 1, "hex": "76a914c70b85592bad91e6a13de8d6d3090bcc794abccc88ac", "addresses": ["1K9TGfGkfUJMfXJL6ABFrg2wTr12QnbpNe"], "asm": "OP_DUP OP_HASH160 c70b85592bad91e6a13de8d6d3090bcc794abccc OP_EQUALVERIFY OP_CHECKSIG", "type": "pubkeyhash"}, "value": 0.00016237, "n": 25}, {"scriptPubKey": {"reqSigs": 1, "hex": "76a914aa84c4a2c4771eda383d5cf9f56d5ec79a5cc41588ac", "addresses": ["1GYcvW4eCArg9QnUr5eVHMYSertv86gJHe"], "asm": "OP_DUP OP_HASH160 aa84c4a2c4771eda383d5cf9f56d5ec79a5cc415 OP_EQUALVERIFY OP_CHECKSIG", "type": "pubkeyhash"}, "value": 0.02904383, "n": 26}], "hex": "0200000000010131d60592e5594b9ae188583024209a6b7ec9c74d09ac8020f7eb6255fa7fa7340000000017160014ddb41937e01b42605fa4fdd29513a0822f9342c4feffffff1b03b0c1060100000017a914c4226ecda3f26c74fe2d93ac58f7efc7a347946b87105522000000000017a9147482923b276faa7266e80115c13ec872a1314cf887007102000000000017a914fe6ce42b34cb3a816df1d4a2527d10ba495c3bf0873a2504000000000017a914dde5d57b4de18df76d0bc92318780d7b616b20c287905704000000000017a914d492783d7acb4a95b0e6309e6ae24713ef6fc67b874a7f04000000000017a914b6db24b2b6255f609f920c408c1462072a49b410876a9c02000000000017a91454588bbcf7cda36c82a5a9c0d579d547eb0db53d87407e05000000000017a9148a61a5d8fa2ec1f85706bb79300beebe5b4e122a87888687000000000017a914e7b9fc0e6ea41162946c0d2b4116d78112a3028b8752ec0b000000000017a914d7ae8c80f2aa12174cae9e7e64cd685d6732838687b44c03000000000017a91413f7406cf3213ae28870898408b6cacced191bb1872f4a10000000000017a914f9958760bdf67593dc105ecd05f32c6b80f33ce287c47001000000000017a914ab60de72ac33f7e5d3016054cbbfe6e87bd9445f8718a123000000000017a914b28d1618c6776263e8c933a4c882aa5d90ad265d877c8f1e00000000001976a9141dd52d2b46c6985a9280ebe4d26cf0bf787bb72e88acc0175302000000001976a914573a69df595c2aa96fa5dbb2ecd8336c702fe3b288ac477c06000000000017a914263655a915ca44b6320ca1971f4336c3318e40b4879dd90e000000000017a914076c2a76845bac7c71bd3af1038dc8ea95e294ab87485304000000000017a914c4cc12c8a64c82b0bd017b5e84e9ae6af79fe98687b9c902000000000017a914c7e176e1f7a0b2a54103cf856bdbfbde33f62c9c87c10a0e00000000001976a91430fd20c848393f81f6224455e381eb3c1368426188acb9e13a00000000001976a914a2cb4e0cd2768921a28b39ecb5c39dec6c89404688ac94f002000000000017a9144802164141b3cc8e1af5cf3286d856204217723e878cc706000000000017a91499d7e7388b80bba01bca745989ca14f7b127ab31879efb03000000000017a9148bc7be05892d3f6347e675f105268f53a8e24a12876d3f0000000000001976a914c70b85592bad91e6a13de8d6d3090bcc794abccc88ac3f512c00000000001976a914aa84c4a2c4771eda383d5cf9f56d5ec79a5cc41588ac02483045022100adc641168ec47a0b0f594c4e82bbaf9c13d257bdd363cbeb64965881c43f908002203a035fe18b40e7c36fb926361785fc1e24915dc7f29c456dd825d661f17243f801210390066e497e5c31c0f2207e244be49f7fff67babbd379f37a0f27840121cc83b610490800", "vin": [{"txinwitness": ["3045022100adc641168ec47a0b0f594c4e82bbaf9c13d257bdd363cbeb64965881c43f908002203a035fe18b40e7c36fb926361785fc1e24915dc7f29c456dd825d661f17243f801", "0390066e497e5c31c0f2207e244be49f7fff67babbd379f37a0f27840121cc83b6"], "sequence": 4294967294, "scriptSig": {"hex": "160014ddb41937e01b42605fa4fdd29513a0822f9342c4", "asm": "0014ddb41937e01b42605fa4fdd29513a0822f9342c4"}, "vout": 0, "txid": "34a77ffa5562ebf72080ac094dc7c97e6b9a2024305888e19a4b59e59205d631"}], "txid": "4c187c4450e6310cae86fbb686fa5d29f2a7b8bffa949fdde80ba502b08b2b41", "blocktime": 1537871767, "version": 2, "confirmations": 11490, "time": 1537871767, "locktime": 542992, "vsize": 978, "size": 1060}