{"hash": "4c19f3176f96ccdd79157096e18135b8b4a624a52b61f5032d0d60aec81a1098", "blockhash": "00000000000000000024a2167bbff67b0be802c0b01cdd79e6331c2be6459f87", "vout": [{"scriptPubKey": {"reqSigs": 1, "hex": "76a9140a6b825daa1b89f8e100ed8eec6d79b592500f4988ac", "addresses": ["1x6YnuBVeeE65dQRZztRWgUPwyBjHCA5g"], "asm": "OP_DUP OP_HASH160 0a6b825daa1b89f8e100ed8eec6d79b592500f49 OP_EQUALVERIFY OP_CHECKSIG", "type": "pubkeyhash"}, "value": 0.44747804, "n": 0}, {"scriptPubKey": {"reqSigs": 1, "hex": "76a914287fcc00b5ef2b546d6fa2b5e5c1459f3484dc3c88ac", "addresses": ["14h98A5Wa8NFBqRfa8mNnF6nyuh3hjqdKo"], "asm": "OP_DUP OP_HASH160 287fcc00b5ef2b546d6fa2b5e5c1459f3484dc3c OP_EQUALVERIFY OP_CHECKSIG", "type": "pubkeyhash"}, "value": 5.46e-06, "n": 1}, {"scriptPubKey": {"type": "nulldata", "hex": "6a146f6d6e69000000000000001f0000003dd6fe6000", "asm": "OP_RETURN 6f6d6e69000000000000001f0000003dd6fe6000"}, "value": 0.0, "n": 2}], "hex": "010000000166b8ce3a0c83db7a0a502079bd05ee5fc343875dbba634c0db9d4a4e11b79be6000000006a47304402202147218ed3209c881e2682d4b0264147fe4fd7f175c6c61f172c0413b84aa44d02201eb857013517039538d4c6a98722d4ac042642bcf67f7d168707279402f4d983012103fe02b06a6bfd9b5a83e0417430a3235a39a0b4c7973591ca27ac58f6474d9120ffffffff031cccaa02000000001976a9140a6b825daa1b89f8e100ed8eec6d79b592500f4988ac22020000000000001976a914287fcc00b5ef2b546d6fa2b5e5c1459f3484dc3c88ac0000000000000000166a146f6d6e69000000000000001f0000003dd6fe600000000000", "vin": [{"sequence": 4294967295, "scriptSig": {"hex": "47304402202147218ed3209c881e2682d4b0264147fe4fd7f175c6c61f172c0413b84aa44d02201eb857013517039538d4c6a98722d4ac042642bcf67f7d168707279402f4d983012103fe02b06a6bfd9b5a83e0417430a3235a39a0b4c7973591ca27ac58f6474d9120", "asm": "304402202147218ed3209c881e2682d4b0264147fe4fd7f175c6c61f172c0413b84aa44d02201eb857013517039538d4c6a98722d4ac042642bcf67f7d168707279402f4d983[ALL] 03fe02b06a6bfd9b5a83e0417430a3235a39a0b4c7973591ca27ac58f6474d9120"}, "vout": 0, "txid": "e69bb7114e4a9ddbc034a6bb5d8743c35fee05bd7920500a7adb830c3aceb866"}], "txid": "4c19f3176f96ccdd79157096e18135b8b4a624a52b61f5032d0d60aec81a1098", "blocktime": 1537870564, "version": 1, "confirmations": 11515, "time": 1537870564, "locktime": 0, "vsize": 256, "size": 256}