{"hash": "4c20cc5da4f0c8e74bcd6f6451785b0ebf1ffce0428adea5d8ab288451b1fc8d", "blockhash": "0000000000000000000e13cef7c366c0283d82e591d1acd082e914b08063cdf1", "vout": [{"scriptPubKey": {"reqSigs": 1, "hex": "76a91434773a850d1c2e86e87728976b99e9e56fb2aa2c88ac", "addresses": ["15nQy88tKE4oBJcSZ28cUQEm4oVSLB3hCU"], "asm": "OP_DUP OP_HASH160 34773a850d1c2e86e87728976b99e9e56fb2aa2c OP_EQUALVERIFY OP_CHECKSIG", "type": "pubkeyhash"}, "value": 0.22, "n": 0}, {"scriptPubKey": {"reqSigs": 1, "hex": "76a914bae025140c454518b8cba0c25d45a6dc87f4b9ce88ac", "addresses": ["1J37CY8hcdUXQ1KfBhMCsUVafa8XjDsdCn"], "asm": "OP_DUP OP_HASH160 bae025140c454518b8cba0c25d45a6dc87f4b9ce OP_EQUALVERIFY OP_CHECKSIG", "type": "pubkeyhash"}, "value": 0.07025832, "n": 1}], "hex": "0100000006bfbb23bb7eac8ca3e2652b25edd4491c5eb2bfb9d36e91ee1a2b9c6e0dc79a5d010000008b483045022100a95a54f2c8770460138c589368f411989b74c095b05ab0c3309d31ada1395914022012b684b7d4afa4124779e104b3e058a320a4d3cb296c1e6d9e0fc473ee026c30014104025a1cffe502a80dfa1f543ae14c082aff24d5ecadab160ca904d288eed8e3d8cacef0985f690868df4f416c3890909b4c0c843da153d41382ac20c80170240affffffffae013d8f53bcc81c9a27170b3fec4bdd928ba90839118967e6da9f0bebcb7a48010000008a47304402203c34bbac42c1a3451cfaec375b5088990846eca3b3dbc15947388dc4182ff65a02203f8757d6e093a9e230052552c5d9c7e33610090bb2a71c90222e5fdad1d981b5014104025a1cffe502a80dfa1f543ae14c082aff24d5ecadab160ca904d288eed8e3d8cacef0985f690868df4f416c3890909b4c0c843da153d41382ac20c80170240affffffff6e202ce42e26bd76a61b2fa3fc0218917dd27b7dd108278e6f4ab563f3a9125b010000008a47304402203f4cf437e2180bf1d1f21d371ae184134eab6efdc7ed3d508698d7760a217948022071a34e057b0ae60520e4677651c28d18da893479d3e538f294e10b7fb5b9be50014104025a1cffe502a80dfa1f543ae14c082aff24d5ecadab160ca904d288eed8e3d8cacef0985f690868df4f416c3890909b4c0c843da153d41382ac20c80170240affffffff4bee52a88f758f5e72c3420ac914988dbcd230162dbf913c0d4800ecb5c21be2010000008b483045022100f93323623d0493ebfc1d8aa68583d22f32d455c46b30c3b66ebd14a69a6eef25022062f0f8ab4f3bc444affa1b0d4db6eb7f6a77eff0b32c2e98c2702c635d5ece85014104025a1cffe502a80dfa1f543ae14c082aff24d5ecadab160ca904d288eed8e3d8cacef0985f690868df4f416c3890909b4c0c843da153d41382ac20c80170240affffffff77985c2c53c611258e451504a820a8b128719502229097608f67e6642b82263c010000008a4730440220494ddcdce4dda490bacb7507cb7678b9f44f9d6c787eddd19ec4cabcc512445802205ebad20bddae8fda4f523689672061ed54930ce3e9d905749ed2b75c86b60bf1014104025a1cffe502a80dfa1f543ae14c082aff24d5ecadab160ca904d288eed8e3d8cacef0985f690868df4f416c3890909b4c0c843da153d41382ac20c80170240affffffffadff5b0539e4c3a2b74a9c7624e6cd50bc2f4f6f1184f66dfe39c297ea67f261020000006a4730440220794d402f45d341a2f28d371454e6c173a135c7898c4310b6cb9aaa018e7ac05202205b0cee95c256b267fe3f98be90c43eaa22d364bd86cb4eb747d23fa6b9ca40ae0121024f4fbb78fa0eec3cd28055c361b776d7016432ce1cfeff61dfff03567daff440ffffffff0280b14f01000000001976a91434773a850d1c2e86e87728976b99e9e56fb2aa2c88aca8346b00000000001976a914bae025140c454518b8cba0c25d45a6dc87f4b9ce88ac00000000", "vin": [{"sequence": 4294967295, "scriptSig": {"hex": "483045022100a95a54f2c8770460138c589368f411989b74c095b05ab0c3309d31ada1395914022012b684b7d4afa4124779e104b3e058a320a4d3cb296c1e6d9e0fc473ee026c30014104025a1cffe502a80dfa1f543ae14c082aff24d5ecadab160ca904d288eed8e3d8cacef0985f690868df4f416c3890909b4c0c843da153d41382ac20c80170240a", "asm": "3045022100a95a54f2c8770460138c589368f411989b74c095b05ab0c3309d31ada1395914022012b684b7d4afa4124779e104b3e058a320a4d3cb296c1e6d9e0fc473ee026c30[ALL] 04025a1cffe502a80dfa1f543ae14c082aff24d5ecadab160ca904d288eed8e3d8cacef0985f690868df4f416c3890909b4c0c843da153d41382ac20c80170240a"}, "vout": 1, "txid": "5d9ac70d6e9c2b1aee916ed3b9bfb25e1c49d4ed252b65e2a38cac7ebb23bbbf"}, {"sequence": 4294967295, "scriptSig": {"hex": "47304402203c34bbac42c1a3451cfaec375b5088990846eca3b3dbc15947388dc4182ff65a02203f8757d6e093a9e230052552c5d9c7e33610090bb2a71c90222e5fdad1d981b5014104025a1cffe502a80dfa1f543ae14c082aff24d5ecadab160ca904d288eed8e3d8cacef0985f690868df4f416c3890909b4c0c843da153d41382ac20c80170240a", "asm": "304402203c34bbac42c1a3451cfaec375b5088990846eca3b3dbc15947388dc4182ff65a02203f8757d6e093a9e230052552c5d9c7e33610090bb2a71c90222e5fdad1d981b5[ALL] 04025a1cffe502a80dfa1f543ae14c082aff24d5ecadab160ca904d288eed8e3d8cacef0985f690868df4f416c3890909b4c0c843da153d41382ac20c80170240a"}, "vout": 1, "txid": "487acbeb0b9fdae66789113908a98b92dd4bec3f0b17279a1cc8bc538f3d01ae"}, {"sequence": 4294967295, "scriptSig": {"hex": "47304402203f4cf437e2180bf1d1f21d371ae184134eab6efdc7ed3d508698d7760a217948022071a34e057b0ae60520e4677651c28d18da893479d3e538f294e10b7fb5b9be50014104025a1cffe502a80dfa1f543ae14c082aff24d5ecadab160ca904d288eed8e3d8cacef0985f690868df4f416c3890909b4c0c843da153d41382ac20c80170240a", "asm": "304402203f4cf437e2180bf1d1f21d371ae184134eab6efdc7ed3d508698d7760a217948022071a34e057b0ae60520e4677651c28d18da893479d3e538f294e10b7fb5b9be50[ALL] 04025a1cffe502a80dfa1f543ae14c082aff24d5ecadab160ca904d288eed8e3d8cacef0985f690868df4f416c3890909b4c0c843da153d41382ac20c80170240a"}, "vout": 1, "txid": "5b12a9f363b54a6f8e2708d17d7bd27d911802fca32f1ba676bd262ee42c206e"}, {"sequence": 4294967295, "scriptSig": {"hex": "483045022100f93323623d0493ebfc1d8aa68583d22f32d455c46b30c3b66ebd14a69a6eef25022062f0f8ab4f3bc444affa1b0d4db6eb7f6a77eff0b32c2e98c2702c635d5ece85014104025a1cffe502a80dfa1f543ae14c082aff24d5ecadab160ca904d288eed8e3d8cacef0985f690868df4f416c3890909b4c0c843da153d41382ac20c80170240a", "asm": "3045022100f93323623d0493ebfc1d8aa68583d22f32d455c46b30c3b66ebd14a69a6eef25022062f0f8ab4f3bc444affa1b0d4db6eb7f6a77eff0b32c2e98c2702c635d5ece85[ALL] 04025a1cffe502a80dfa1f543ae14c082aff24d5ecadab160ca904d288eed8e3d8cacef0985f690868df4f416c3890909b4c0c843da153d41382ac20c80170240a"}, "vout": 1, "txid": "e21bc2b5ec00480d3c91bf2d1630d2bc8d9814c90a42c3725e8f758fa852ee4b"}, {"sequence": 4294967295, "scriptSig": {"hex": "4730440220494ddcdce4dda490bacb7507cb7678b9f44f9d6c787eddd19ec4cabcc512445802205ebad20bddae8fda4f523689672061ed54930ce3e9d905749ed2b75c86b60bf1014104025a1cffe502a80dfa1f543ae14c082aff24d5ecadab160ca904d288eed8e3d8cacef0985f690868df4f416c3890909b4c0c843da153d41382ac20c80170240a", "asm": "30440220494ddcdce4dda490bacb7507cb7678b9f44f9d6c787eddd19ec4cabcc512445802205ebad20bddae8fda4f523689672061ed54930ce3e9d905749ed2b75c86b60bf1[ALL] 04025a1cffe502a80dfa1f543ae14c082aff24d5ecadab160ca904d288eed8e3d8cacef0985f690868df4f416c3890909b4c0c843da153d41382ac20c80170240a"}, "vout": 1, "txid": "3c26822b64e6678f6097902202957128b1a820a80415458e2511c6532c5c9877"}, {"sequence": 4294967295, "scriptSig": {"hex": "4730440220794d402f45d341a2f28d371454e6c173a135c7898c4310b6cb9aaa018e7ac05202205b0cee95c256b267fe3f98be90c43eaa22d364bd86cb4eb747d23fa6b9ca40ae0121024f4fbb78fa0eec3cd28055c361b776d7016432ce1cfeff61dfff03567daff440", "asm": "30440220794d402f45d341a2f28d371454e6c173a135c7898c4310b6cb9aaa018e7ac05202205b0cee95c256b267fe3f98be90c43eaa22d364bd86cb4eb747d23fa6b9ca40ae[ALL] 024f4fbb78fa0eec3cd28055c361b776d7016432ce1cfeff61dfff03567daff440"}, "vout": 2, "txid": "61f267ea97c239fe6df684116f4f2fbc50cde624769c4ab7a2c3e439055bffad"}], "txid": "4c20cc5da4f0c8e74bcd6f6451785b0ebf1ffce0428adea5d8ab288451b1fc8d", "blocktime": 1537871767, "version": 1, "confirmations": 11491, "time": 1537871767, "locktime": 0, "vsize": 1122, "size": 1122}