{"hash": "8f4b2b4c9c3e464e0603fa265ca3c0a37133a41eb12924291812556133e387fe", "blockhash": "00000000000000000024a2167bbff67b0be802c0b01cdd79e6331c2be6459f87", "vout": [{"scriptPubKey": {"reqSigs": 1, "hex": "a9141451760029f14337d9010e195de47dad1e27fe6587", "addresses": ["33YT2PKkM8dkUCEpYC78FqjmTg5xtkgKAo"], "asm": "OP_HASH160 1451760029f14337d9010e195de47dad1e27fe65 OP_EQUAL", "type": "scripthash"}, "value": 0.078558, "n": 0}, {"scriptPubKey": {"reqSigs": 1, "hex": "76a914647af8217277bb89c18c7ba8c77d5bec1390256788ac", "addresses": ["1AAHtEkQDKTkz9YA35eqnQknnkJx86iWAa"], "asm": "OP_DUP OP_HASH160 647af8217277bb89c18c7ba8c77d5bec13902567 OP_EQUALVERIFY OP_CHECKSIG", "type": "pubkeyhash"}, "value": 0.054371, "n": 1}], "hex": "02000000000101fe7d32fa169f8dd9f84c9d31c757808999d0d88abcf4177436063ba4588066f20000000017160014950124fcd6d3a7fa363868259d99fc2d1527b8aefdffffff02b8de77000000000017a9141451760029f14337d9010e195de47dad1e27fe6587acf65200000000001976a914647af8217277bb89c18c7ba8c77d5bec1390256788ac02473044022046f5c1691019966708c9a7b05b54c4d6143dfb56b236664439e32ae5c1d5bebf02204225f0458778bd7878e394acb6d1b050bfa852fe20c498a38c982e07910128c3012103876cf6a53678c8d762cf015769926ef81c282fd2e04449ab0332cc85a6eb5ee80d490800", "vin": [{"txinwitness": ["3044022046f5c1691019966708c9a7b05b54c4d6143dfb56b236664439e32ae5c1d5bebf02204225f0458778bd7878e394acb6d1b050bfa852fe20c498a38c982e07910128c301", "03876cf6a53678c8d762cf015769926ef81c282fd2e04449ab0332cc85a6eb5ee8"], "sequence": 4294967293, "scriptSig": {"hex": "160014950124fcd6d3a7fa363868259d99fc2d1527b8ae", "asm": "0014950124fcd6d3a7fa363868259d99fc2d1527b8ae"}, "vout": 0, "txid": "f2668058a43b06367417f4bc8ad8d099898057c7319d4cf8d98d9f16fa327dfe"}], "txid": "4c224a9e180b2bd560353e26248474d02796694b8da917cde9f97f8b0f9cbee5", "blocktime": 1537870564, "version": 2, "confirmations": 11515, "time": 1537870564, "locktime": 542989, "vsize": 168, "size": 249}