{"hash": "91dfb9666648d5e5abcd2024b94ef00d4b8649a75ac6c53dade93d8840d92428", "blockhash": "0000000000000000001f76057863aec43deb6fa401d9628bb513d65a8098bfab", "vout": [{"scriptPubKey": {"reqSigs": 1, "hex": "a914768e16eb68f25b1ee9b2b8337a2fc1602f344dc987", "addresses": ["3CVssjVCC8HuSYXAZepfc3Ly8ESsXqrEBa"], "asm": "OP_HASH160 768e16eb68f25b1ee9b2b8337a2fc1602f344dc9 OP_EQUAL", "type": "scripthash"}, "value": 0.02046857, "n": 0}, {"scriptPubKey": {"reqSigs": 1, "hex": "76a914c9975e66db5424db1fdeede80d26bd0dee4331f088ac", "addresses": ["1KNv9qvddSGcTNfkrHww7CD1uHYaFjrAor"], "asm": "OP_DUP OP_HASH160 c9975e66db5424db1fdeede80d26bd0dee4331f0 OP_EQUALVERIFY OP_CHECKSIG", "type": "pubkeyhash"}, "value": 0.02874744, "n": 1}], "hex": "0200000000010111d0d4f76f0c8055a2ca274561fa6ef2bdc90ea812764eea935cdc375551b1a70100000017160014bfb944734c5c30538954aaa3b3d9a802bc59fac5feffffff02893b1f000000000017a914768e16eb68f25b1ee9b2b8337a2fc1602f344dc98778dd2b00000000001976a914c9975e66db5424db1fdeede80d26bd0dee4331f088ac0247304402205eb54aa93194619145c044f0211ee8ddc0807cdcac5955bc7a307ace0bc0ded102202715600ff2482523d74080c30a36ca2ef63ef8d504c76afe0fc9fc005ae5a146012103aad53c28dcfbcf26936bcfde99c1558243c34ec551738c44af3a11b1285f094d14490800", "vin": [{"txinwitness": ["304402205eb54aa93194619145c044f0211ee8ddc0807cdcac5955bc7a307ace0bc0ded102202715600ff2482523d74080c30a36ca2ef63ef8d504c76afe0fc9fc005ae5a14601", "03aad53c28dcfbcf26936bcfde99c1558243c34ec551738c44af3a11b1285f094d"], "sequence": 4294967294, "scriptSig": {"hex": "160014bfb944734c5c30538954aaa3b3d9a802bc59fac5", "asm": "0014bfb944734c5c30538954aaa3b3d9a802bc59fac5"}, "vout": 1, "txid": "a7b1515537dc5c93ea4e7612a80ec9bdf26efa614527caa255800c6ff7d4d011"}], "txid": "4c251189fcbcb974db86f1327cf6dd048876ec66c9c6902846d2162fc527f4f9", "blocktime": 1537873891, "version": 2, "confirmations": 11479, "time": 1537873891, "locktime": 542996, "vsize": 168, "size": 249}