{"hash": "fcdedbd2707b59e4ca2f52a521f38e17bf54c4ac46729487ab43b2c22bd20ca1", "blockhash": "0000000000000000001cda96e906b7601b7a6fb1a3b62bca570a9e5d8f4b3de1", "vout": [{"scriptPubKey": {"reqSigs": 1, "hex": "a91431d86478cad24363499eeb7fbb9ee89669b9854987", "addresses": ["36EaG9z5iLr9iFb7oqMW2tdLuaVF693JCp"], "asm": "OP_HASH160 31d86478cad24363499eeb7fbb9ee89669b98549 OP_EQUAL", "type": "scripthash"}, "value": 0.1039, "n": 0}, {"scriptPubKey": {"reqSigs": 1, "hex": "a91455809eea55fe42bd8c27efb74b1aeff582d3d99d87", "addresses": ["39V7SaQ4QPLz5LoC2JmLCgjpmLFLg3QfA1"], "asm": "OP_HASH160 55809eea55fe42bd8c27efb74b1aeff582d3d99d OP_EQUAL", "type": "scripthash"}, "value": 1.517e-05, "n": 1}], "hex": "0100000000010145496c0cbfa53bbb813ddbcbf0a33f1862bd066c2813c3a30fbe7cdf11c58a2401000000171600141aba4e52ae1ee298a4dab405d10724301fcef87affffff0002f0899e000000000017a91431d86478cad24363499eeb7fbb9ee89669b9854987ed0500000000000017a91455809eea55fe42bd8c27efb74b1aeff582d3d99d8702483045022100ab6800ffd31b4e4e6d8a4e5d3a96fa4310696b4b31a1d27d96de187c8acaaaed022077491eb98b7630ad734aa2b0319316d5c2b5a36c7897eb3a175ad2b00ac88eb6012103c67e733d7158dd9df5866f2cc604a72e8461e43df62a6fb8616242153cade7b200000000", "vin": [{"txinwitness": ["3045022100ab6800ffd31b4e4e6d8a4e5d3a96fa4310696b4b31a1d27d96de187c8acaaaed022077491eb98b7630ad734aa2b0319316d5c2b5a36c7897eb3a175ad2b00ac88eb601", "03c67e733d7158dd9df5866f2cc604a72e8461e43df62a6fb8616242153cade7b2"], "sequence": 16777215, "scriptSig": {"hex": "1600141aba4e52ae1ee298a4dab405d10724301fcef87a", "asm": "00141aba4e52ae1ee298a4dab405d10724301fcef87a"}, "vout": 1, "txid": "248ac511df7cbe0fa3c313286c06bd62183fa3f0cbdb3d81bb3ba5bf0c6c4945"}], "txid": "4c27ce36a9c5b70663ec9414f521435a4df6f145a39e5790d9edb1ce017977f8", "blocktime": 1537873282, "version": 1, "confirmations": 11484, "time": 1537873282, "locktime": 0, "vsize": 166, "size": 248}