{"hash": "4c2f4b80a8e7825bbd8f766dba83a34d7e040321dd7de2bf9be55cab8aff3ba4", "blockhash": "0000000000000000001cda96e906b7601b7a6fb1a3b62bca570a9e5d8f4b3de1", "vout": [{"scriptPubKey": {"reqSigs": 1, "hex": "76a914acc01f4dccb53bbf0f9396d6652d57bdacc9afe988ac", "addresses": ["1GkRNtKuLd8KUEYBbwhERdJs9fFRjNX2UY"], "asm": "OP_DUP OP_HASH160 acc01f4dccb53bbf0f9396d6652d57bdacc9afe9 OP_EQUALVERIFY OP_CHECKSIG", "type": "pubkeyhash"}, "value": 0.155649, "n": 0}, {"scriptPubKey": {"reqSigs": 1, "hex": "76a9145dc2ec92890c11bfa77cc311fa8072a0084896bf88ac", "addresses": ["19YmMQV4QUPh43AzGNy8RP87SJRb6pmzTq"], "asm": "OP_DUP OP_HASH160 5dc2ec92890c11bfa77cc311fa8072a0084896bf OP_EQUALVERIFY OP_CHECKSIG", "type": "pubkeyhash"}, "value": 0.57174215, "n": 1}], "hex": "0100000001f62d8e1d6e0efae8cc5ba5adacb5142c3a93e8fde98be3be9cb39bd0fa4b3dfe010000006b483045022100c9f874a6afef6c3cf4bf2a3a6bcedf4123829447e287d5ac2437a830a45281850220470cc23ea76be3e497cd63336e9c2530cd84f4b4630c6847c4aea779a3631ad70121038b9ed686f8b5abe537bcaa7389731f52b852076efa847c0f96907c379b17634fffffffff026480ed00000000001976a914acc01f4dccb53bbf0f9396d6652d57bdacc9afe988acc7686803000000001976a9145dc2ec92890c11bfa77cc311fa8072a0084896bf88ac00000000", "vin": [{"sequence": 4294967295, "scriptSig": {"hex": "483045022100c9f874a6afef6c3cf4bf2a3a6bcedf4123829447e287d5ac2437a830a45281850220470cc23ea76be3e497cd63336e9c2530cd84f4b4630c6847c4aea779a3631ad70121038b9ed686f8b5abe537bcaa7389731f52b852076efa847c0f96907c379b17634f", "asm": "3045022100c9f874a6afef6c3cf4bf2a3a6bcedf4123829447e287d5ac2437a830a45281850220470cc23ea76be3e497cd63336e9c2530cd84f4b4630c6847c4aea779a3631ad7[ALL] 038b9ed686f8b5abe537bcaa7389731f52b852076efa847c0f96907c379b17634f"}, "vout": 1, "txid": "fe3d4bfad09bb39cbee38be9fde8933a2c14b5acada55bcce8fa0e6e1d8e2df6"}], "txid": "4c2f4b80a8e7825bbd8f766dba83a34d7e040321dd7de2bf9be55cab8aff3ba4", "blocktime": 1537873282, "version": 1, "confirmations": 11484, "time": 1537873282, "locktime": 0, "vsize": 226, "size": 226}