{"hash": "072fcbdb666bf4fbfef568fbe54a95e9197132de197ddddf0e6d3edf4d03a0af", "blockhash": "000000000000000000022b45ed06c6f4ccd3cf7fb5ba4856ebd2e58215665228", "vout": [{"scriptPubKey": {"reqSigs": 1, "hex": "a914d23df75be3a19843407b09168bb35f74b35e7f8c87", "addresses": ["3Lrg4KRJRBnxEKPF7d3DKFcWDBfKTxmWoj"], "asm": "OP_HASH160 d23df75be3a19843407b09168bb35f74b35e7f8c OP_EQUAL", "type": "scripthash"}, "value": 0.00999732, "n": 0}, {"scriptPubKey": {"reqSigs": 1, "hex": "76a9145b357d32503df8e16d9b221d4005d217fe5c639788ac", "addresses": ["19KGZwa1B6VHjbNxX72BnrUYuBmgn2LXgq"], "asm": "OP_DUP OP_HASH160 5b357d32503df8e16d9b221d4005d217fe5c6397 OP_EQUALVERIFY OP_CHECKSIG", "type": "pubkeyhash"}, "value": 0.0024566, "n": 1}], "hex": "0200000000010284f932e9e082b70348753767a312382a4373e6388a421c4da1795bd331be23b50000000017160014cb40428b346fa0715ccc4855f921b78df398e639feffffffd861a63ad391c5d3ef80853dea4b4d66c37830feec920c3ff5b74fddadb5cd9600000000171600141b7ed58b574904353632398e5346e9385199c756feffffff0234410f000000000017a914d23df75be3a19843407b09168bb35f74b35e7f8c879cbf0300000000001976a9145b357d32503df8e16d9b221d4005d217fe5c639788ac0247304402203a9159f29ce1d0afbedfdbdd95a3cf7a0a94bb3c4feece9c957cf9c5ad474f41022044ff5a3de2083a160ecf95f5a5d46d2956f247ad93c6add3b70e286da6c4ae100121022f7f7c1f2b1aae6ba13272a33df1369cbcb9e3bd51e853a81f0b6bc252ca399d02473044022028bf82b43809b65d5e4c1d9637a81f9bdcec4e87d2541a079b847c005ebdf100022051ad56b19231ac9c73271d9ed9be183a93ec7249d09fa2c45dc96f0763d44ea1012102c6008d66c127ced9a307dc0f3beed782bde9b002b943d14b9ef8eaf0892a9ff80b490800", "vin": [{"txinwitness": ["304402203a9159f29ce1d0afbedfdbdd95a3cf7a0a94bb3c4feece9c957cf9c5ad474f41022044ff5a3de2083a160ecf95f5a5d46d2956f247ad93c6add3b70e286da6c4ae1001", "022f7f7c1f2b1aae6ba13272a33df1369cbcb9e3bd51e853a81f0b6bc252ca399d"], "sequence": 4294967294, "scriptSig": {"hex": "160014cb40428b346fa0715ccc4855f921b78df398e639", "asm": "0014cb40428b346fa0715ccc4855f921b78df398e639"}, "vout": 0, "txid": "b523be31d35b79a14d1c428a38e673432a3812a36737754803b782e0e932f984"}, {"txinwitness": ["3044022028bf82b43809b65d5e4c1d9637a81f9bdcec4e87d2541a079b847c005ebdf100022051ad56b19231ac9c73271d9ed9be183a93ec7249d09fa2c45dc96f0763d44ea101", "02c6008d66c127ced9a307dc0f3beed782bde9b002b943d14b9ef8eaf0892a9ff8"], "sequence": 4294967294, "scriptSig": {"hex": "1600141b7ed58b574904353632398e5346e9385199c756", "asm": "00141b7ed58b574904353632398e5346e9385199c756"}, "vout": 0, "txid": "96cdb5addd4fb7f53f0c92ecfe3078c3664d4bea3d8580efd3c591d33aa661d8"}], "txid": "4c300d7d32491ab61929035f2aa91b9d8692fe0c0a7b971fbcce1f60eb5e30d6", "blocktime": 1537869901, "version": 2, "confirmations": 11522, "time": 1537869901, "locktime": 542987, "vsize": 258, "size": 420}