{"hash": "4c39e6d7a4db8762c726f1bbe8e77fddd789611926b900ce2962a574d8a048e0", "blockhash": "00000000000000000004ffacab907a6b429b9a5745fa0b75af4234bf69dd7176", "vout": [{"scriptPubKey": {"reqSigs": 1, "hex": "76a914371da19083a87c01029cf60ed58bf3615700b8ed88ac", "addresses": ["162RfMfsmgo2EFn8CSMHMA5mDaLdvSMWEY"], "asm": "OP_DUP OP_HASH160 371da19083a87c01029cf60ed58bf3615700b8ed OP_EQUALVERIFY OP_CHECKSIG", "type": "pubkeyhash"}, "value": 0.03084962, "n": 0}, {"scriptPubKey": {"reqSigs": 1, "hex": "76a9145ac5cdf64d7f4716424dbfc7a83d517ccd859d2188ac", "addresses": ["19GxmxyZBaaD4Fbt9796Gf3K79ybT6x4Ms"], "asm": "OP_DUP OP_HASH160 5ac5cdf64d7f4716424dbfc7a83d517ccd859d21 OP_EQUALVERIFY OP_CHECKSIG", "type": "pubkeyhash"}, "value": 0.00070101, "n": 1}], "hex": "010000000183831fe5ec71879a39a894feeef6ed97115ddce8440f32dea8cd7bf072ac09e4030000006b483045022100af55f433ebbfa506cca286becf1f712ba2fb28611bfb11e664c048d86260596e02204b366651627099da7712fb26ac4cb21d40f5f271d5a66b67d99e1726d2b492c7012102342f160609fbf437f6df5dc54d575429bc183fe5c950bf18df55b8f73ac217ddffffffff02a2122f00000000001976a914371da19083a87c01029cf60ed58bf3615700b8ed88acd5110100000000001976a9145ac5cdf64d7f4716424dbfc7a83d517ccd859d2188ac00000000", "vin": [{"sequence": 4294967295, "scriptSig": {"hex": "483045022100af55f433ebbfa506cca286becf1f712ba2fb28611bfb11e664c048d86260596e02204b366651627099da7712fb26ac4cb21d40f5f271d5a66b67d99e1726d2b492c7012102342f160609fbf437f6df5dc54d575429bc183fe5c950bf18df55b8f73ac217dd", "asm": "3045022100af55f433ebbfa506cca286becf1f712ba2fb28611bfb11e664c048d86260596e02204b366651627099da7712fb26ac4cb21d40f5f271d5a66b67d99e1726d2b492c7[ALL] 02342f160609fbf437f6df5dc54d575429bc183fe5c950bf18df55b8f73ac217dd"}, "vout": 3, "txid": "e409ac72f07bcda8de320f44e8dc5d1197edf6eefe94a8399a8771ece51f8383"}], "txid": "4c39e6d7a4db8762c726f1bbe8e77fddd789611926b900ce2962a574d8a048e0", "blocktime": 1537875543, "version": 1, "confirmations": 11464, "time": 1537875543, "locktime": 0, "vsize": 226, "size": 226}