{"hash": "f97cee161499cc2394499541bc52b1c71dd7afa099e71542143d4fd17927b947", "blockhash": "00000000000000000018f53835495a110e01622372bf6ae95dc86f2b0ab887b0", "vout": [{"scriptPubKey": {"reqSigs": 1, "hex": "a914046206ce9f2565d83281eda7afda5a3b28a8e57687", "addresses": ["326C4KPvFTVKgvyjZw5NwsddgEwcDyTGBm"], "asm": "OP_HASH160 046206ce9f2565d83281eda7afda5a3b28a8e576 OP_EQUAL", "type": "scripthash"}, "value": 0.01333056, "n": 0}, {"scriptPubKey": {"reqSigs": 1, "hex": "a914d20603a3a698f1211bc57c800a4c04afa6de2eb887", "addresses": ["3LqX2hjmfc9pW7LoGHa1A5QkxsN7A2uLyh"], "asm": "OP_HASH160 d20603a3a698f1211bc57c800a4c04afa6de2eb8 OP_EQUAL", "type": "scripthash"}, "value": 0.00282643, "n": 1}], "hex": "020000000001016f445244e11b0c45fd6d0433311981f00d8ba90897a113607a8808f45476078901000000171600147702201fec4b0b4b35498a547ffd58cbce437f21feffffff02405714000000000017a914046206ce9f2565d83281eda7afda5a3b28a8e57687135004000000000017a914d20603a3a698f1211bc57c800a4c04afa6de2eb88702483045022100ea054d100cd434952b5265ec7f5569c4c99d69cc62045022fbd1507b524186aa022039defb99fd84af84db7012bd2f0cd7633c39788f837e7a8e88ad16c4aad51008012102ea677e148b9d2c07a574e306bd0957560fbddfe8a920e88bc11366b610f5257e0e490800", "vin": [{"txinwitness": ["3045022100ea054d100cd434952b5265ec7f5569c4c99d69cc62045022fbd1507b524186aa022039defb99fd84af84db7012bd2f0cd7633c39788f837e7a8e88ad16c4aad5100801", "02ea677e148b9d2c07a574e306bd0957560fbddfe8a920e88bc11366b610f5257e"], "sequence": 4294967294, "scriptSig": {"hex": "1600147702201fec4b0b4b35498a547ffd58cbce437f21", "asm": "00147702201fec4b0b4b35498a547ffd58cbce437f21"}, "vout": 1, "txid": "89077654f408887a6013a19708a98b0df081193133046dfd450c1be14452446f"}], "txid": "4c3943647d55e7959e6770ebbefa27e38cf476c59dc91c280372cbceb39c3ca3", "blocktime": 1537870928, "version": 2, "confirmations": 11514, "time": 1537870928, "locktime": 542990, "vsize": 166, "size": 248}