{"hash": "4229131c3b72d899e328268b376c966724b292bcb1c377e227583d3c6c8beb7f", "blockhash": "0000000000000000001f76057863aec43deb6fa401d9628bb513d65a8098bfab", "vout": [{"scriptPubKey": {"reqSigs": 1, "hex": "a9142abcfbc869b4ba39f895658b51b2533c928c590587", "addresses": ["35azhQWxJy4KbM6QUnRhEhqEpjQy82wDJR"], "asm": "OP_HASH160 2abcfbc869b4ba39f895658b51b2533c928c5905 OP_EQUAL", "type": "scripthash"}, "value": 0.00044607, "n": 0}, {"scriptPubKey": {"reqSigs": 1, "hex": "0014201846d55f4756fb2b719b5a8322830d635165a4", "addresses": ["bc1qyqvyd42lgat0k2m3nddgxg5rp434zedyrz9xnh"], "asm": "0 201846d55f4756fb2b719b5a8322830d635165a4", "type": "witness_v0_keyhash"}, "value": 3.481e-05, "n": 1}], "hex": "010000000001011e3b4aae9b804686b207e21b82b9be3c08a7ca583fd259b7f6da351551d874630100000000ffffffff023fae00000000000017a9142abcfbc869b4ba39f895658b51b2533c928c590587990d000000000000160014201846d55f4756fb2b719b5a8322830d635165a4024730440220489d9d13635ca53d67108666bd4d4c999d0b5993eecaa4e7967700c7c2d44100022078c918b066f2c28e0f5edc348f68ddbf5b9dc32e87e3b0b60c28b105a3c089aa012102c6c8856821dcdeda4e0846f0f7b0616002f3787ef4323b9671e3da79e8152dee00000000", "vin": [{"txinwitness": ["30440220489d9d13635ca53d67108666bd4d4c999d0b5993eecaa4e7967700c7c2d44100022078c918b066f2c28e0f5edc348f68ddbf5b9dc32e87e3b0b60c28b105a3c089aa01", "02c6c8856821dcdeda4e0846f0f7b0616002f3787ef4323b9671e3da79e8152dee"], "sequence": 4294967295, "scriptSig": {"hex": "", "asm": ""}, "vout": 1, "txid": "6374d8511535daf6b759d23f58caa7083cbeb9821be207b28646809bae4a3b1e"}], "txid": "4c462a785e3fa449f68f7b7ec86b0929bfcb08d5152e1f05813a7029c0aa88ec", "blocktime": 1537873891, "version": 1, "confirmations": 11478, "time": 1537873891, "locktime": 0, "vsize": 142, "size": 223}