{"hash": "4c607df1ac69cd07e81dc3fbdac987557d3d7e3f88366c6bdf560939d1a1eca2", "blockhash": "0000000000000000001e0dab787dd257d1dbfcb92a98c2207d5e1078be1f4165", "vout": [{"scriptPubKey": {"reqSigs": 1, "hex": "76a914952ea44dcc9c8e30355036eea511d6031227f87188ac", "addresses": ["1EboZK8mH3Ty8oQeYt8kCGVC7qpFq3CC3H"], "asm": "OP_DUP OP_HASH160 952ea44dcc9c8e30355036eea511d6031227f871 OP_EQUALVERIFY OP_CHECKSIG", "type": "pubkeyhash"}, "value": 0.00312453, "n": 0}, {"scriptPubKey": {"reqSigs": 1, "hex": "76a9147711eab6ffcc99e4376ac39f4022de413e1ea2a988ac", "addresses": ["1BrasiLb2KMbdtuhb1chAVnS2FvcNGfV9J"], "asm": "OP_DUP OP_HASH160 7711eab6ffcc99e4376ac39f4022de413e1ea2a9 OP_EQUALVERIFY OP_CHECKSIG", "type": "pubkeyhash"}, "value": 0.00644935, "n": 1}], "hex": "0200000001f3f2562f6c4832bd29645fc85c2959d4837fe083b21ddef44655be976183f9d0020000006a47304402205f74f25656d4ee9eb4b5abdaed2da2592707613480a93456f62d3aa6b035f5a0022065c366d09bd73998a2bb231a0e154cbff1208c319f6c0a3a2a694c1c2cd2c06a012102be9a6952ed6909e8f61b699ecf0d45ccb91942b6ed1c1474108c2bf5db0225e0ffffffff0285c40400000000001976a914952ea44dcc9c8e30355036eea511d6031227f87188ac47d70900000000001976a9147711eab6ffcc99e4376ac39f4022de413e1ea2a988ac00000000", "vin": [{"sequence": 4294967295, "scriptSig": {"hex": "47304402205f74f25656d4ee9eb4b5abdaed2da2592707613480a93456f62d3aa6b035f5a0022065c366d09bd73998a2bb231a0e154cbff1208c319f6c0a3a2a694c1c2cd2c06a012102be9a6952ed6909e8f61b699ecf0d45ccb91942b6ed1c1474108c2bf5db0225e0", "asm": "304402205f74f25656d4ee9eb4b5abdaed2da2592707613480a93456f62d3aa6b035f5a0022065c366d09bd73998a2bb231a0e154cbff1208c319f6c0a3a2a694c1c2cd2c06a[ALL] 02be9a6952ed6909e8f61b699ecf0d45ccb91942b6ed1c1474108c2bf5db0225e0"}, "vout": 2, "txid": "d0f9836197be5546f4de1db283e07f83d459295cc85f6429bd32486c2f56f2f3"}], "txid": "4c607df1ac69cd07e81dc3fbdac987557d3d7e3f88366c6bdf560939d1a1eca2", "blocktime": 1537872475, "version": 2, "confirmations": 11486, "time": 1537872475, "locktime": 0, "vsize": 225, "size": 225}