{"hash": "4c60fc6896788ffdff70d20223182ad69c4fc959a3285d439254f2afa7c530a3", "blockhash": "0000000000000000000baef3f32e3676a92c3b2e5da21b426e4f302fc371ce76", "vout": [{"scriptPubKey": {"type": "nulldata", "hex": "6a4c500000780100014e0ce0702940d64fa54d8eb2d19ed074892d00f8e87af8e8e963c7cfd5b9f3e263dabad4372658501355ed46101e5baa1a040613867adde0ad2bbc9a9526289ac0f6612cd74e33776ee4", "asm": "OP_RETURN 0000780100014e0ce0702940d64fa54d8eb2d19ed074892d00f8e87af8e8e963c7cfd5b9f3e263dabad4372658501355ed46101e5baa1a040613867adde0ad2bbc9a9526289ac0f6612cd74e33776ee4"}, "value": 0.0, "n": 0}, {"scriptPubKey": {"reqSigs": 1, "hex": "76a914a68ed701598ac358f1056a885ff3faca345b14e488ac", "addresses": ["1GBgHXqMdxFqaqLTHrUYVQQmQgPSR1mM6p"], "asm": "OP_DUP OP_HASH160 a68ed701598ac358f1056a885ff3faca345b14e4 OP_EQUALVERIFY OP_CHECKSIG", "type": "pubkeyhash"}, "value": 0.0220646, "n": 1}], "hex": "01000000015adc65be7a3087822bcecc9b97a19d39288429430086c391cbcd7f679276f53d010000006b483045022100e2a910ad9dd0270394ff77deac37ddbb45e53afd5a66fd707e484844872437bc02204563a074a443969394c3517e24e7c3b1b32383ed46b7d02de5b28a53c4180eee012102c767c17c2efa7e02f6169936d7f6ef025c1b26fce6861e8d1a4cca6af877acf1ffffffff020000000000000000536a4c500000780100014e0ce0702940d64fa54d8eb2d19ed074892d00f8e87af8e8e963c7cfd5b9f3e263dabad4372658501355ed46101e5baa1a040613867adde0ad2bbc9a9526289ac0f6612cd74e33776ee4fcaa2100000000001976a914a68ed701598ac358f1056a885ff3faca345b14e488ac00000000", "vin": [{"sequence": 4294967295, "scriptSig": {"hex": "483045022100e2a910ad9dd0270394ff77deac37ddbb45e53afd5a66fd707e484844872437bc02204563a074a443969394c3517e24e7c3b1b32383ed46b7d02de5b28a53c4180eee012102c767c17c2efa7e02f6169936d7f6ef025c1b26fce6861e8d1a4cca6af877acf1", "asm": "3045022100e2a910ad9dd0270394ff77deac37ddbb45e53afd5a66fd707e484844872437bc02204563a074a443969394c3517e24e7c3b1b32383ed46b7d02de5b28a53c4180eee[ALL] 02c767c17c2efa7e02f6169936d7f6ef025c1b26fce6861e8d1a4cca6af877acf1"}, "vout": 1, "txid": "3df57692677fcdcb91c3860043298428399da1979bccce2b8287307abe65dc5a"}], "txid": "4c60fc6896788ffdff70d20223182ad69c4fc959a3285d439254f2afa7c530a3", "blocktime": 1537876114, "version": 1, "confirmations": 11460, "time": 1537876114, "locktime": 0, "vsize": 284, "size": 284}