{"hash": "4c64644f00847cb87bf67c4c05fa7dc454229a174f93ae74022c11e188475b41", "blockhash": "0000000000000000000dcc0f55137456b1a82d3642486a52398922ac4d620174", "vout": [{"scriptPubKey": {"reqSigs": 1, "hex": "76a91466596a4a77e2cda77a127e731a8a846d3cd4c10388ac", "addresses": ["1ALB3F8aGsGQdMLsGaA5yYx9cLyeGCm7W1"], "asm": "OP_DUP OP_HASH160 66596a4a77e2cda77a127e731a8a846d3cd4c103 OP_EQUALVERIFY OP_CHECKSIG", "type": "pubkeyhash"}, "value": 2.321e-05, "n": 0}, {"scriptPubKey": {"reqSigs": 1, "hex": "76a9140cb2ea551510b372d98057f3a1ae457a63be52f988ac", "addresses": ["12A9SZS2kBnkyFauGJzuCHeErYMCEjF85w"], "asm": "OP_DUP OP_HASH160 0cb2ea551510b372d98057f3a1ae457a63be52f9 OP_EQUALVERIFY OP_CHECKSIG", "type": "pubkeyhash"}, "value": 0.0064, "n": 1}], "hex": "0100000001bc4d8ad9c2dd9d2751e8b37f392ebfb49f90319bbb671dc641bc5d49e80ef07c010000006a4730440220404576d9148e7c6640c16ca58aa46175ff19d6106fe2dc57c8106c283eb10f25022057275dab4358b6cb0228bb931dfb050f23895420e0a94807a7ee537993ff7c470121032cafedb8d8619bd69c84412039756e9c8b995edc9c581e98761ef6133f554d02ffffffff0211090000000000001976a91466596a4a77e2cda77a127e731a8a846d3cd4c10388ac00c40900000000001976a9140cb2ea551510b372d98057f3a1ae457a63be52f988ac00000000", "vin": [{"sequence": 4294967295, "scriptSig": {"hex": "4730440220404576d9148e7c6640c16ca58aa46175ff19d6106fe2dc57c8106c283eb10f25022057275dab4358b6cb0228bb931dfb050f23895420e0a94807a7ee537993ff7c470121032cafedb8d8619bd69c84412039756e9c8b995edc9c581e98761ef6133f554d02", "asm": "30440220404576d9148e7c6640c16ca58aa46175ff19d6106fe2dc57c8106c283eb10f25022057275dab4358b6cb0228bb931dfb050f23895420e0a94807a7ee537993ff7c47[ALL] 032cafedb8d8619bd69c84412039756e9c8b995edc9c581e98761ef6133f554d02"}, "vout": 1, "txid": "7cf00ee8495dbc41c61d67bb9b31909fb4bf2e397fb3e851279dddc2d98a4dbc"}], "txid": "4c64644f00847cb87bf67c4c05fa7dc454229a174f93ae74022c11e188475b41", "blocktime": 1537870268, "version": 1, "confirmations": 11518, "time": 1537870268, "locktime": 0, "vsize": 225, "size": 225}