{"hash": "4c642e85d926a34e6a772828929bcf58b4af85c5bb33141108eae042212e4890", "blockhash": "00000000000000000018f53835495a110e01622372bf6ae95dc86f2b0ab887b0", "vout": [{"scriptPubKey": {"reqSigs": 1, "hex": "76a914b464e41a4c96770d7343f23d29b5380f1e9792f288ac", "addresses": ["1HSqVZXnjp5xBmGJFMHmPdEudhBgcWCfQQ"], "asm": "OP_DUP OP_HASH160 b464e41a4c96770d7343f23d29b5380f1e9792f2 OP_EQUALVERIFY OP_CHECKSIG", "type": "pubkeyhash"}, "value": 5.275e-05, "n": 0}, {"scriptPubKey": {"reqSigs": 1, "hex": "76a9147cef45cfa976df6148e9889da0ef688d9c94a30288ac", "addresses": ["1CPbRkFFwWmt4sE5yRscSnvkrJ4TzZrvKy"], "asm": "OP_DUP OP_HASH160 7cef45cfa976df6148e9889da0ef688d9c94a302 OP_EQUALVERIFY OP_CHECKSIG", "type": "pubkeyhash"}, "value": 0.00078116, "n": 1}], "hex": "0100000013965f43081e80305da10bfd310b3b4963b2df4df036024aee5be577cbc18d0011ed0700008a473044022068f4aa0578938f7048e8c6af14be5f885c61aac5326cf0ecc71b9fddde6f93e202200b1d35cb6aeca92f2a7372c8301686e89e20d985158e930d9bc6e28a0544e0de01410408cad9d1f716e63b27588a573450f6b46654a147950a6f2675983ba85a23de9297910fc441cf01818d3a48f165efdc05b72dbf83c18535daea4f136db0f27dbeffffffffce7055a37c0f88bd09318533783459e3a33c810737f9571c289c21de4eea4012c70400008a47304402204000d2acf53a4fae88c27257e636a5f73dc170bc7f819dbb71e53e109e1ab62d02203dda368f6264465fb26cb30ad734eed34168db272a2a6cff2f7a4442c85906cc01410408cad9d1f716e63b27588a573450f6b46654a147950a6f2675983ba85a23de9297910fc441cf01818d3a48f165efdc05b72dbf83c18535daea4f136db0f27dbeffffffffcd6ca163be8007f7e41c124eb86686ce6a0121de80184b41f3ea8a4340aec213c40400008b483045022100a05fe8b497572cb0e39eec5a51cf0aa67930efe4535e03cf28b6a74f9ab5b8e002204ee36a83638fc28b63a18c6126f3e2b349df80dab3adc8a7c8ac3e6beed3740601410408cad9d1f716e63b27588a573450f6b46654a147950a6f2675983ba85a23de9297910fc441cf01818d3a48f165efdc05b72dbf83c18535daea4f136db0f27dbeffffffff2803d65fafea773164d779041188f33241ba784e521125f2fa56061633178f14cd0400008b483045022100f2a945cf2337236b28a221c621bd84b80a77288f1c6b452f122783d6be56464c0220704d12b9918aff7635f3d7c8289e0503186809f668edac80840188abee71523c01410408cad9d1f716e63b27588a573450f6b46654a147950a6f2675983ba85a23de9297910fc441cf01818d3a48f165efdc05b72dbf83c18535daea4f136db0f27dbeffffffff603ba5bcd49cdfeeb3bb4192c41a2d9b3803a9f5bf3387313cdef8e1995b4117030800008b483045022100b33daa4efb26b7cba093e68855f34a04b405edbd496f6a7a3cc9caaeb03f6b1c022007bb9714bd97bd46e18e5ac35f4eca659c205f9aa908bbbf03432a786df8db9601410408cad9d1f716e63b27588a573450f6b46654a147950a6f2675983ba85a23de9297910fc441cf01818d3a48f165efdc05b72dbf83c18535daea4f136db0f27dbeffffffff497a3532a76ddfb3864282627ad967469bddfee21be5df94ba2991ec0310c51dcd0400008a47304402203ddc8481d934919ef5f2b9eefbdd34400a7bdf473d39399124354d6e71133c1f02204ef8edbb1dec318a37508a67a84e82781456dc12e19a1967f66cfd2f24ac145f01410408cad9d1f716e63b27588a573450f6b46654a147950a6f2675983ba85a23de9297910fc441cf01818d3a48f165efdc05b72dbf83c18535daea4f136db0f27dbeffffffff7aa8598875453f848689db632db9e12d65b98aa7f52fd74ba2fcd5f65df3661ffe0400008b483045022100bf76973202fd1c85867b5aa20c64c06556643e486e4f9382e91cfab4f6c04844022038144fbbb39ab58a5c437ab44b4545acbe83636717b87f87b62add55b7a58d0901410408cad9d1f716e63b27588a573450f6b46654a147950a6f2675983ba85a23de9297910fc441cf01818d3a48f165efdc05b72dbf83c18535daea4f136db0f27dbeffffffffc0e110986c1483875ac5bc60843afbd4cc84d6ea4ecdef0625e5862faa60c529ed0700008b483045022100d069700435ab403391a32f2e444d27dfd85d7b31743b3ecb1de70a83f0265b9a02203b76f75fb956c5fb1a9aca364c090b286ef22eb3013b9c9926ee5d4db3a413b901410408cad9d1f716e63b27588a573450f6b46654a147950a6f2675983ba85a23de9297910fc441cf01818d3a48f165efdc05b72dbf83c18535daea4f136db0f27dbeffffffff7656f6b0ad660ec13c93b119eabf554c6bd1ddb6154c85199af2e0536c209830f20700008a4730440220677b54c02f89989e72ba8c99fd64aa3cc894a1f8cc58c8473c370b6cf114d2f302205980a42943297ea4076742a9266cff03026617b7dabde246edcd11ba8a0343a801410408cad9d1f716e63b27588a573450f6b46654a147950a6f2675983ba85a23de9297910fc441cf01818d3a48f165efdc05b72dbf83c18535daea4f136db0f27dbeffffffff314d7abc6783ddc3e31bcdf34eabee15870cabf523f2831fc3539b19e25bcf310c0800008a4730440220467d8dccc0689af2a4b3e0d31e8763ea90ed8f83ce1b32876b6fc322a8963a8f02207d9f2662f3f31ee752943a59c25dbbf984e09e512fca2f67abb47b1b1c574de501410408cad9d1f716e63b27588a573450f6b46654a147950a6f2675983ba85a23de9297910fc441cf01818d3a48f165efdc05b72dbf83c18535daea4f136db0f27dbeffffffffe71776fe0f652bf43654101e708fa06eb7b8e8b91a7d41c4088449da207d9e35e90700008b4830450221008f5961d492260a1e161b6abe04c001780242864a54ffea19dbca7e622b23c11202201b07d92815b82ba11ceeb2f77a77131ea3eae18440047abb6ce37e426b9d885b01410408cad9d1f716e63b27588a573450f6b46654a147950a6f2675983ba85a23de9297910fc441cf01818d3a48f165efdc05b72dbf83c18535daea4f136db0f27dbeffffffff0f2a56513b6ccf47df4d4512d01e1fc394370373ac8ea9f2ed0bb8254e81d137020500008b483045022100ad1cb245936b55ec978dc345f641307f7de6aea72eff97cd7d10fa42226263d102207b4aa6483312e1d9a950f8aa5445e0d17dc5419ccf1ec694c00aa3ef74941bee01410408cad9d1f716e63b27588a573450f6b46654a147950a6f2675983ba85a23de9297910fc441cf01818d3a48f165efdc05b72dbf83c18535daea4f136db0f27dbeffffffff137ccffe1ac2df9fb90b1ccf4728f9d6deb84d01996e00547cee0544a09a41682f0800008a4730440220772037c43249beab3c34ce312f3bdf123c5ff0c58001b574908ed985e66b8d6f022072f55307f039141831aaee4673f3363e4351879107e6f8aa4ed8e70a2608d0b801410408cad9d1f716e63b27588a573450f6b46654a147950a6f2675983ba85a23de9297910fc441cf01818d3a48f165efdc05b72dbf83c18535daea4f136db0f27dbeffffffffd5cb135b7857ba0db575b3a5bfadb336e8a96d11bef7890413d04611e1005a83e90700008a47304402207e53d80ed4ecd45e0c8001be0e8c5591f3523287bb578cffb781b743337af1b402205e492cd5aa0011877394332d3053a418e422fd836eb8c034f1f9610fc15b949d01410408cad9d1f716e63b27588a573450f6b46654a147950a6f2675983ba85a23de9297910fc441cf01818d3a48f165efdc05b72dbf83c18535daea4f136db0f27dbeffffffffea6eae7da3e0d053e87bdea1f89aba4d902386907a75bcfa72aa37ac247d4f9bf20700008a47304402200c53b16dc8a31748f4697d057f8103e4919dc0b2c66cfbf838e9f5b36207eee702201b1c44bc9aa0b14ddcbe7afaebbcb936b3ea2abeedfaefda6e4b5d733fc2c42801410408cad9d1f716e63b27588a573450f6b46654a147950a6f2675983ba85a23de9297910fc441cf01818d3a48f165efdc05b72dbf83c18535daea4f136db0f27dbeffffffff363d9e2626fb02bbe98b2795abff5a1dfa08f83ede49f171f96ba21cc5f70dc7e90700008b483045022100efb5079ad2c80f2b014fe408a0deed15bcd7cfbf10720e9a8ad9d9f99c5e6c5602202a8c35883db3991fd332863ec51b155b4d1f4d8f0cc25fd47cd99206bb0c2cce01410408cad9d1f716e63b27588a573450f6b46654a147950a6f2675983ba85a23de9297910fc441cf01818d3a48f165efdc05b72dbf83c18535daea4f136db0f27dbeffffffff28a8f067c134f00300f417eaa625e59b93ec214112cd1195b4732ba9b641d2d8160500008b483045022100ea70018cd4a5a0b4d7792d08baeca7061735452933a9c42f488c98035823c0ab02202bc6b65fd9b03f9b94c6bb1cf153550e1fb7953885aa944cb7fb9151c04506b301410408cad9d1f716e63b27588a573450f6b46654a147950a6f2675983ba85a23de9297910fc441cf01818d3a48f165efdc05b72dbf83c18535daea4f136db0f27dbefffffffff5a6ab74e33f8e14569464efed757ef72e865d24be9c24a63c12d959120d85daec0700008b483045022100a48743e3d0a5a8329361edb4b7195c5b06eb0115ee938741f6d20831cac05c7b02204d894a3f8dce4c6d42586e75a3f7b057a14420c71621358ec0a07ee05130e87601410408cad9d1f716e63b27588a573450f6b46654a147950a6f2675983ba85a23de9297910fc441cf01818d3a48f165efdc05b72dbf83c18535daea4f136db0f27dbeffffffff93b2206e6bfecf7d4755c0152dc08fc866914889e238172dbecb93776fdef6fb130500008a4730440220149a74c8b800278a52207eaf8e7d3e39afe9a60709ccfabb9fbbb31ca59076fa022035d6f0928de0e68fb5fa9936a830b3a223c2abd473fecfda03f35a63fd08017f01410408cad9d1f716e63b27588a573450f6b46654a147950a6f2675983ba85a23de9297910fc441cf01818d3a48f165efdc05b72dbf83c18535daea4f136db0f27dbeffffffff029b140000000000001976a914b464e41a4c96770d7343f23d29b5380f1e9792f288ac24310100000000001976a9147cef45cfa976df6148e9889da0ef688d9c94a30288ac00000000", "vin": [{"sequence": 4294967295, "scriptSig": {"hex": "473044022068f4aa0578938f7048e8c6af14be5f885c61aac5326cf0ecc71b9fddde6f93e202200b1d35cb6aeca92f2a7372c8301686e89e20d985158e930d9bc6e28a0544e0de01410408cad9d1f716e63b27588a573450f6b46654a147950a6f2675983ba85a23de9297910fc441cf01818d3a48f165efdc05b72dbf83c18535daea4f136db0f27dbe", "asm": "3044022068f4aa0578938f7048e8c6af14be5f885c61aac5326cf0ecc71b9fddde6f93e202200b1d35cb6aeca92f2a7372c8301686e89e20d985158e930d9bc6e28a0544e0de[ALL] 0408cad9d1f716e63b27588a573450f6b46654a147950a6f2675983ba85a23de9297910fc441cf01818d3a48f165efdc05b72dbf83c18535daea4f136db0f27dbe"}, "vout": 2029, "txid": "11008dc1cb77e55bee4a0236f04ddfb263493b0b31fd0ba15d30801e08435f96"}, {"sequence": 4294967295, "scriptSig": {"hex": "47304402204000d2acf53a4fae88c27257e636a5f73dc170bc7f819dbb71e53e109e1ab62d02203dda368f6264465fb26cb30ad734eed34168db272a2a6cff2f7a4442c85906cc01410408cad9d1f716e63b27588a573450f6b46654a147950a6f2675983ba85a23de9297910fc441cf01818d3a48f165efdc05b72dbf83c18535daea4f136db0f27dbe", "asm": "304402204000d2acf53a4fae88c27257e636a5f73dc170bc7f819dbb71e53e109e1ab62d02203dda368f6264465fb26cb30ad734eed34168db272a2a6cff2f7a4442c85906cc[ALL] 0408cad9d1f716e63b27588a573450f6b46654a147950a6f2675983ba85a23de9297910fc441cf01818d3a48f165efdc05b72dbf83c18535daea4f136db0f27dbe"}, "vout": 1223, "txid": "1240ea4ede219c281c57f93707813ca3e359347833853109bd880f7ca35570ce"}, {"sequence": 4294967295, "scriptSig": {"hex": "483045022100a05fe8b497572cb0e39eec5a51cf0aa67930efe4535e03cf28b6a74f9ab5b8e002204ee36a83638fc28b63a18c6126f3e2b349df80dab3adc8a7c8ac3e6beed3740601410408cad9d1f716e63b27588a573450f6b46654a147950a6f2675983ba85a23de9297910fc441cf01818d3a48f165efdc05b72dbf83c18535daea4f136db0f27dbe", "asm": "3045022100a05fe8b497572cb0e39eec5a51cf0aa67930efe4535e03cf28b6a74f9ab5b8e002204ee36a83638fc28b63a18c6126f3e2b349df80dab3adc8a7c8ac3e6beed37406[ALL] 0408cad9d1f716e63b27588a573450f6b46654a147950a6f2675983ba85a23de9297910fc441cf01818d3a48f165efdc05b72dbf83c18535daea4f136db0f27dbe"}, "vout": 1220, "txid": "13c2ae40438aeaf3414b1880de21016ace8666b84e121ce4f70780be63a16ccd"}, {"sequence": 4294967295, "scriptSig": {"hex": "483045022100f2a945cf2337236b28a221c621bd84b80a77288f1c6b452f122783d6be56464c0220704d12b9918aff7635f3d7c8289e0503186809f668edac80840188abee71523c01410408cad9d1f716e63b27588a573450f6b46654a147950a6f2675983ba85a23de9297910fc441cf01818d3a48f165efdc05b72dbf83c18535daea4f136db0f27dbe", "asm": "3045022100f2a945cf2337236b28a221c621bd84b80a77288f1c6b452f122783d6be56464c0220704d12b9918aff7635f3d7c8289e0503186809f668edac80840188abee71523c[ALL] 0408cad9d1f716e63b27588a573450f6b46654a147950a6f2675983ba85a23de9297910fc441cf01818d3a48f165efdc05b72dbf83c18535daea4f136db0f27dbe"}, "vout": 1229, "txid": "148f1733160656faf22511524e78ba4132f388110479d7643177eaaf5fd60328"}, {"sequence": 4294967295, "scriptSig": {"hex": "483045022100b33daa4efb26b7cba093e68855f34a04b405edbd496f6a7a3cc9caaeb03f6b1c022007bb9714bd97bd46e18e5ac35f4eca659c205f9aa908bbbf03432a786df8db9601410408cad9d1f716e63b27588a573450f6b46654a147950a6f2675983ba85a23de9297910fc441cf01818d3a48f165efdc05b72dbf83c18535daea4f136db0f27dbe", "asm": "3045022100b33daa4efb26b7cba093e68855f34a04b405edbd496f6a7a3cc9caaeb03f6b1c022007bb9714bd97bd46e18e5ac35f4eca659c205f9aa908bbbf03432a786df8db96[ALL] 0408cad9d1f716e63b27588a573450f6b46654a147950a6f2675983ba85a23de9297910fc441cf01818d3a48f165efdc05b72dbf83c18535daea4f136db0f27dbe"}, "vout": 2051, "txid": "17415b99e1f8de3c318733bff5a903389b2d1ac49241bbb3eedf9cd4bca53b60"}, {"sequence": 4294967295, "scriptSig": {"hex": "47304402203ddc8481d934919ef5f2b9eefbdd34400a7bdf473d39399124354d6e71133c1f02204ef8edbb1dec318a37508a67a84e82781456dc12e19a1967f66cfd2f24ac145f01410408cad9d1f716e63b27588a573450f6b46654a147950a6f2675983ba85a23de9297910fc441cf01818d3a48f165efdc05b72dbf83c18535daea4f136db0f27dbe", "asm": "304402203ddc8481d934919ef5f2b9eefbdd34400a7bdf473d39399124354d6e71133c1f02204ef8edbb1dec318a37508a67a84e82781456dc12e19a1967f66cfd2f24ac145f[ALL] 0408cad9d1f716e63b27588a573450f6b46654a147950a6f2675983ba85a23de9297910fc441cf01818d3a48f165efdc05b72dbf83c18535daea4f136db0f27dbe"}, "vout": 1229, "txid": "1dc51003ec9129ba94dfe51be2fedd9b4667d97a62824286b3df6da732357a49"}, {"sequence": 4294967295, "scriptSig": {"hex": "483045022100bf76973202fd1c85867b5aa20c64c06556643e486e4f9382e91cfab4f6c04844022038144fbbb39ab58a5c437ab44b4545acbe83636717b87f87b62add55b7a58d0901410408cad9d1f716e63b27588a573450f6b46654a147950a6f2675983ba85a23de9297910fc441cf01818d3a48f165efdc05b72dbf83c18535daea4f136db0f27dbe", "asm": "3045022100bf76973202fd1c85867b5aa20c64c06556643e486e4f9382e91cfab4f6c04844022038144fbbb39ab58a5c437ab44b4545acbe83636717b87f87b62add55b7a58d09[ALL] 0408cad9d1f716e63b27588a573450f6b46654a147950a6f2675983ba85a23de9297910fc441cf01818d3a48f165efdc05b72dbf83c18535daea4f136db0f27dbe"}, "vout": 1278, "txid": "1f66f35df6d5fca24bd72ff5a78ab9652de1b92d63db8986843f45758859a87a"}, {"sequence": 4294967295, "scriptSig": {"hex": "483045022100d069700435ab403391a32f2e444d27dfd85d7b31743b3ecb1de70a83f0265b9a02203b76f75fb956c5fb1a9aca364c090b286ef22eb3013b9c9926ee5d4db3a413b901410408cad9d1f716e63b27588a573450f6b46654a147950a6f2675983ba85a23de9297910fc441cf01818d3a48f165efdc05b72dbf83c18535daea4f136db0f27dbe", "asm": "3045022100d069700435ab403391a32f2e444d27dfd85d7b31743b3ecb1de70a83f0265b9a02203b76f75fb956c5fb1a9aca364c090b286ef22eb3013b9c9926ee5d4db3a413b9[ALL] 0408cad9d1f716e63b27588a573450f6b46654a147950a6f2675983ba85a23de9297910fc441cf01818d3a48f165efdc05b72dbf83c18535daea4f136db0f27dbe"}, "vout": 2029, "txid": "29c560aa2f86e52506efcd4eead684ccd4fb3a8460bcc55a8783146c9810e1c0"}, {"sequence": 4294967295, "scriptSig": {"hex": "4730440220677b54c02f89989e72ba8c99fd64aa3cc894a1f8cc58c8473c370b6cf114d2f302205980a42943297ea4076742a9266cff03026617b7dabde246edcd11ba8a0343a801410408cad9d1f716e63b27588a573450f6b46654a147950a6f2675983ba85a23de9297910fc441cf01818d3a48f165efdc05b72dbf83c18535daea4f136db0f27dbe", "asm": "30440220677b54c02f89989e72ba8c99fd64aa3cc894a1f8cc58c8473c370b6cf114d2f302205980a42943297ea4076742a9266cff03026617b7dabde246edcd11ba8a0343a8[ALL] 0408cad9d1f716e63b27588a573450f6b46654a147950a6f2675983ba85a23de9297910fc441cf01818d3a48f165efdc05b72dbf83c18535daea4f136db0f27dbe"}, "vout": 2034, "txid": "3098206c53e0f29a19854c15b6ddd16b4c55bfea19b1933cc10e66adb0f65676"}, {"sequence": 4294967295, "scriptSig": {"hex": "4730440220467d8dccc0689af2a4b3e0d31e8763ea90ed8f83ce1b32876b6fc322a8963a8f02207d9f2662f3f31ee752943a59c25dbbf984e09e512fca2f67abb47b1b1c574de501410408cad9d1f716e63b27588a573450f6b46654a147950a6f2675983ba85a23de9297910fc441cf01818d3a48f165efdc05b72dbf83c18535daea4f136db0f27dbe", "asm": "30440220467d8dccc0689af2a4b3e0d31e8763ea90ed8f83ce1b32876b6fc322a8963a8f02207d9f2662f3f31ee752943a59c25dbbf984e09e512fca2f67abb47b1b1c574de5[ALL] 0408cad9d1f716e63b27588a573450f6b46654a147950a6f2675983ba85a23de9297910fc441cf01818d3a48f165efdc05b72dbf83c18535daea4f136db0f27dbe"}, "vout": 2060, "txid": "31cf5be2199b53c31f83f223f5ab0c8715eeab4ef3cd1be3c3dd8367bc7a4d31"}, {"sequence": 4294967295, "scriptSig": {"hex": "4830450221008f5961d492260a1e161b6abe04c001780242864a54ffea19dbca7e622b23c11202201b07d92815b82ba11ceeb2f77a77131ea3eae18440047abb6ce37e426b9d885b01410408cad9d1f716e63b27588a573450f6b46654a147950a6f2675983ba85a23de9297910fc441cf01818d3a48f165efdc05b72dbf83c18535daea4f136db0f27dbe", "asm": "30450221008f5961d492260a1e161b6abe04c001780242864a54ffea19dbca7e622b23c11202201b07d92815b82ba11ceeb2f77a77131ea3eae18440047abb6ce37e426b9d885b[ALL] 0408cad9d1f716e63b27588a573450f6b46654a147950a6f2675983ba85a23de9297910fc441cf01818d3a48f165efdc05b72dbf83c18535daea4f136db0f27dbe"}, "vout": 2025, "txid": "359e7d20da498408c4417d1ab9e8b8b76ea08f701e105436f42b650ffe7617e7"}, {"sequence": 4294967295, "scriptSig": {"hex": "483045022100ad1cb245936b55ec978dc345f641307f7de6aea72eff97cd7d10fa42226263d102207b4aa6483312e1d9a950f8aa5445e0d17dc5419ccf1ec694c00aa3ef74941bee01410408cad9d1f716e63b27588a573450f6b46654a147950a6f2675983ba85a23de9297910fc441cf01818d3a48f165efdc05b72dbf83c18535daea4f136db0f27dbe", "asm": "3045022100ad1cb245936b55ec978dc345f641307f7de6aea72eff97cd7d10fa42226263d102207b4aa6483312e1d9a950f8aa5445e0d17dc5419ccf1ec694c00aa3ef74941bee[ALL] 0408cad9d1f716e63b27588a573450f6b46654a147950a6f2675983ba85a23de9297910fc441cf01818d3a48f165efdc05b72dbf83c18535daea4f136db0f27dbe"}, "vout": 1282, "txid": "37d1814e25b80bedf2a98eac73033794c31f1ed012454ddf47cf6c3b51562a0f"}, {"sequence": 4294967295, "scriptSig": {"hex": "4730440220772037c43249beab3c34ce312f3bdf123c5ff0c58001b574908ed985e66b8d6f022072f55307f039141831aaee4673f3363e4351879107e6f8aa4ed8e70a2608d0b801410408cad9d1f716e63b27588a573450f6b46654a147950a6f2675983ba85a23de9297910fc441cf01818d3a48f165efdc05b72dbf83c18535daea4f136db0f27dbe", "asm": "30440220772037c43249beab3c34ce312f3bdf123c5ff0c58001b574908ed985e66b8d6f022072f55307f039141831aaee4673f3363e4351879107e6f8aa4ed8e70a2608d0b8[ALL] 0408cad9d1f716e63b27588a573450f6b46654a147950a6f2675983ba85a23de9297910fc441cf01818d3a48f165efdc05b72dbf83c18535daea4f136db0f27dbe"}, "vout": 2095, "txid": "68419aa04405ee7c54006e99014db8ded6f92847cf1c0bb99fdfc21afecf7c13"}, {"sequence": 4294967295, "scriptSig": {"hex": "47304402207e53d80ed4ecd45e0c8001be0e8c5591f3523287bb578cffb781b743337af1b402205e492cd5aa0011877394332d3053a418e422fd836eb8c034f1f9610fc15b949d01410408cad9d1f716e63b27588a573450f6b46654a147950a6f2675983ba85a23de9297910fc441cf01818d3a48f165efdc05b72dbf83c18535daea4f136db0f27dbe", "asm": "304402207e53d80ed4ecd45e0c8001be0e8c5591f3523287bb578cffb781b743337af1b402205e492cd5aa0011877394332d3053a418e422fd836eb8c034f1f9610fc15b949d[ALL] 0408cad9d1f716e63b27588a573450f6b46654a147950a6f2675983ba85a23de9297910fc441cf01818d3a48f165efdc05b72dbf83c18535daea4f136db0f27dbe"}, "vout": 2025, "txid": "835a00e11146d0130489f7be116da9e836b3adbfa5b375b50dba57785b13cbd5"}, {"sequence": 4294967295, "scriptSig": {"hex": "47304402200c53b16dc8a31748f4697d057f8103e4919dc0b2c66cfbf838e9f5b36207eee702201b1c44bc9aa0b14ddcbe7afaebbcb936b3ea2abeedfaefda6e4b5d733fc2c42801410408cad9d1f716e63b27588a573450f6b46654a147950a6f2675983ba85a23de9297910fc441cf01818d3a48f165efdc05b72dbf83c18535daea4f136db0f27dbe", "asm": "304402200c53b16dc8a31748f4697d057f8103e4919dc0b2c66cfbf838e9f5b36207eee702201b1c44bc9aa0b14ddcbe7afaebbcb936b3ea2abeedfaefda6e4b5d733fc2c428[ALL] 0408cad9d1f716e63b27588a573450f6b46654a147950a6f2675983ba85a23de9297910fc441cf01818d3a48f165efdc05b72dbf83c18535daea4f136db0f27dbe"}, "vout": 2034, "txid": "9b4f7d24ac37aa72fabc757a908623904dba9af8a1de7be853d0e0a37dae6eea"}, {"sequence": 4294967295, "scriptSig": {"hex": "483045022100efb5079ad2c80f2b014fe408a0deed15bcd7cfbf10720e9a8ad9d9f99c5e6c5602202a8c35883db3991fd332863ec51b155b4d1f4d8f0cc25fd47cd99206bb0c2cce01410408cad9d1f716e63b27588a573450f6b46654a147950a6f2675983ba85a23de9297910fc441cf01818d3a48f165efdc05b72dbf83c18535daea4f136db0f27dbe", "asm": "3045022100efb5079ad2c80f2b014fe408a0deed15bcd7cfbf10720e9a8ad9d9f99c5e6c5602202a8c35883db3991fd332863ec51b155b4d1f4d8f0cc25fd47cd99206bb0c2cce[ALL] 0408cad9d1f716e63b27588a573450f6b46654a147950a6f2675983ba85a23de9297910fc441cf01818d3a48f165efdc05b72dbf83c18535daea4f136db0f27dbe"}, "vout": 2025, "txid": "c70df7c51ca26bf971f149de3ef808fa1d5affab95278be9bb02fb26269e3d36"}, {"sequence": 4294967295, "scriptSig": {"hex": "483045022100ea70018cd4a5a0b4d7792d08baeca7061735452933a9c42f488c98035823c0ab02202bc6b65fd9b03f9b94c6bb1cf153550e1fb7953885aa944cb7fb9151c04506b301410408cad9d1f716e63b27588a573450f6b46654a147950a6f2675983ba85a23de9297910fc441cf01818d3a48f165efdc05b72dbf83c18535daea4f136db0f27dbe", "asm": "3045022100ea70018cd4a5a0b4d7792d08baeca7061735452933a9c42f488c98035823c0ab02202bc6b65fd9b03f9b94c6bb1cf153550e1fb7953885aa944cb7fb9151c04506b3[ALL] 0408cad9d1f716e63b27588a573450f6b46654a147950a6f2675983ba85a23de9297910fc441cf01818d3a48f165efdc05b72dbf83c18535daea4f136db0f27dbe"}, "vout": 1302, "txid": "d8d241b6a92b73b49511cd124121ec939be525a6ea17f40003f034c167f0a828"}, {"sequence": 4294967295, "scriptSig": {"hex": "483045022100a48743e3d0a5a8329361edb4b7195c5b06eb0115ee938741f6d20831cac05c7b02204d894a3f8dce4c6d42586e75a3f7b057a14420c71621358ec0a07ee05130e87601410408cad9d1f716e63b27588a573450f6b46654a147950a6f2675983ba85a23de9297910fc441cf01818d3a48f165efdc05b72dbf83c18535daea4f136db0f27dbe", "asm": "3045022100a48743e3d0a5a8329361edb4b7195c5b06eb0115ee938741f6d20831cac05c7b02204d894a3f8dce4c6d42586e75a3f7b057a14420c71621358ec0a07ee05130e876[ALL] 0408cad9d1f716e63b27588a573450f6b46654a147950a6f2675983ba85a23de9297910fc441cf01818d3a48f165efdc05b72dbf83c18535daea4f136db0f27dbe"}, "vout": 2028, "txid": "da850d1259d9123ca6249cbe245d862ef77e75edef649456148e3fe374aba6f5"}, {"sequence": 4294967295, "scriptSig": {"hex": "4730440220149a74c8b800278a52207eaf8e7d3e39afe9a60709ccfabb9fbbb31ca59076fa022035d6f0928de0e68fb5fa9936a830b3a223c2abd473fecfda03f35a63fd08017f01410408cad9d1f716e63b27588a573450f6b46654a147950a6f2675983ba85a23de9297910fc441cf01818d3a48f165efdc05b72dbf83c18535daea4f136db0f27dbe", "asm": "30440220149a74c8b800278a52207eaf8e7d3e39afe9a60709ccfabb9fbbb31ca59076fa022035d6f0928de0e68fb5fa9936a830b3a223c2abd473fecfda03f35a63fd08017f[ALL] 0408cad9d1f716e63b27588a573450f6b46654a147950a6f2675983ba85a23de9297910fc441cf01818d3a48f165efdc05b72dbf83c18535daea4f136db0f27dbe"}, "vout": 1299, "txid": "fbf6de6f7793cbbe2d1738e289489166c88fc02d15c055477dcffe6b6e20b293"}], "txid": "4c642e85d926a34e6a772828929bcf58b4af85c5bb33141108eae042212e4890", "blocktime": 1537870928, "version": 1, "confirmations": 11514, "time": 1537870928, "locktime": 0, "vsize": 3489, "size": 3489}