{"hash": "4c6bf4b9eaf35d330439c7c00135ec5f1ccfb5c387f58c56e7d066190437781a", "blockhash": "0000000000000000000e13cef7c366c0283d82e591d1acd082e914b08063cdf1", "vout": [{"scriptPubKey": {"type": "nulldata", "hex": "6a146f6d6e69000000000000001f0000005139519980", "asm": "OP_RETURN 6f6d6e69000000000000001f0000005139519980"}, "value": 0.0, "n": 0}, {"scriptPubKey": {"reqSigs": 1, "hex": "76a914ecf5eb14b20ffbd71355143c9b371be4a149d3a488ac", "addresses": ["1Nbw4yVL9m9QdLA9wBSpTeq2PWW94n4qKt"], "asm": "OP_DUP OP_HASH160 ecf5eb14b20ffbd71355143c9b371be4a149d3a4 OP_EQUALVERIFY OP_CHECKSIG", "type": "pubkeyhash"}, "value": 5.46e-06, "n": 1}, {"scriptPubKey": {"reqSigs": 1, "hex": "76a9140c4720f79ce88dfe9d7a38bbd37e4a0eb71b22a788ac", "addresses": ["127vKR8q7YbfD6rvqzgDsRmE3tvSGq6mFw"], "asm": "OP_DUP OP_HASH160 0c4720f79ce88dfe9d7a38bbd37e4a0eb71b22a7 OP_EQUALVERIFY OP_CHECKSIG", "type": "pubkeyhash"}, "value": 0.00089815, "n": 2}], "hex": "0100000002975ab867a97331f218c3bf5343d660df4097872dabb387117e6712503f93e2bd000000006a47304402201d38daa4d3ecfb84fffc549cf578307abdaf21ad922e22461ee81050a211c5cf02201689a00b1e5c8d7d5a12fe37a16432862acdd6e6ecfa0b7b33c01965a13f20ec012103a8a1e9086be7ede9fe1f6fc30faf0c8f9c85980dd5d0c8508a27d31757b83f23feffffff1bf2e41a59bedfd9c383a8867cf5eb7ba71212a0459ad86fbeed4f545b011a7b020000006b48304502210087e579465a179e2f7ef70ae76a6b5349442da2ddf78ba6b3e25efa2ad463c8f7022013f36c04dbd98efac7711e5a594e34181257b1919d3c145cc92d0c737cc17ab2012103a8a1e9086be7ede9fe1f6fc30faf0c8f9c85980dd5d0c8508a27d31757b83f23feffffff030000000000000000166a146f6d6e69000000000000001f000000513951998022020000000000001976a914ecf5eb14b20ffbd71355143c9b371be4a149d3a488acd75e0100000000001976a9140c4720f79ce88dfe9d7a38bbd37e4a0eb71b22a788ac10490800", "vin": [{"sequence": 4294967294, "scriptSig": {"hex": "47304402201d38daa4d3ecfb84fffc549cf578307abdaf21ad922e22461ee81050a211c5cf02201689a00b1e5c8d7d5a12fe37a16432862acdd6e6ecfa0b7b33c01965a13f20ec012103a8a1e9086be7ede9fe1f6fc30faf0c8f9c85980dd5d0c8508a27d31757b83f23", "asm": "304402201d38daa4d3ecfb84fffc549cf578307abdaf21ad922e22461ee81050a211c5cf02201689a00b1e5c8d7d5a12fe37a16432862acdd6e6ecfa0b7b33c01965a13f20ec[ALL] 03a8a1e9086be7ede9fe1f6fc30faf0c8f9c85980dd5d0c8508a27d31757b83f23"}, "vout": 0, "txid": "bde2933f5012677e1187b3ab2d879740df60d64353bfc318f23173a967b85a97"}, {"sequence": 4294967294, "scriptSig": {"hex": "48304502210087e579465a179e2f7ef70ae76a6b5349442da2ddf78ba6b3e25efa2ad463c8f7022013f36c04dbd98efac7711e5a594e34181257b1919d3c145cc92d0c737cc17ab2012103a8a1e9086be7ede9fe1f6fc30faf0c8f9c85980dd5d0c8508a27d31757b83f23", "asm": "304502210087e579465a179e2f7ef70ae76a6b5349442da2ddf78ba6b3e25efa2ad463c8f7022013f36c04dbd98efac7711e5a594e34181257b1919d3c145cc92d0c737cc17ab2[ALL] 03a8a1e9086be7ede9fe1f6fc30faf0c8f9c85980dd5d0c8508a27d31757b83f23"}, "vout": 2, "txid": "7b1a015b544fedbe6fd89a45a01212a77bebf57c86a883c3d9dfbe591ae4f21b"}], "txid": "4c6bf4b9eaf35d330439c7c00135ec5f1ccfb5c387f58c56e7d066190437781a", "blocktime": 1537871767, "version": 1, "confirmations": 11490, "time": 1537871767, "locktime": 542992, "vsize": 404, "size": 404}