{"hash": "4c6dd8133db3fe6aaf5d38423b288766cd036eb5fea3ba69cde153eba1ce805a", "blockhash": "0000000000000000001cda96e906b7601b7a6fb1a3b62bca570a9e5d8f4b3de1", "vout": [{"scriptPubKey": {"type": "nulldata", "hex": "6a4c50000077c4000198821ccaf0374b3a05f819d1e5bf9ae76da98a211aaf6c953dd567cf27e7178290483b5de464d458b0b2bf01bb335baa12f606131900bbc36791bc9a9526289ac0f6612cd74e33776ee4", "asm": "OP_RETURN 000077c4000198821ccaf0374b3a05f819d1e5bf9ae76da98a211aaf6c953dd567cf27e7178290483b5de464d458b0b2bf01bb335baa12f606131900bbc36791bc9a9526289ac0f6612cd74e33776ee4"}, "value": 0.0, "n": 0}, {"scriptPubKey": {"reqSigs": 1, "hex": "76a9149895d8b066a052eba2060f6eab546454b8f04b6888ac", "addresses": ["1EuoDfwyxpcyaF4SVU7thk9NzaivVSYexm"], "asm": "OP_DUP OP_HASH160 9895d8b066a052eba2060f6eab546454b8f04b68 OP_EQUALVERIFY OP_CHECKSIG", "type": "pubkeyhash"}, "value": 0.000676, "n": 1}], "hex": "0100000001dbe3305640609f35dfc9168df9e4fd876be2e199e222ac22d1ce87ddae8f8fe7000000006a47304402203a583a5321d5e1c994f499ab2a48e346e4df0f2450c8b0a16a90527cf5815b880220434f2b23c51e33617717bc944494c6bab354ebc01e2c70ec199cac2319232b2a0121034120bcf3d47557f4e044d5544cb20a25355106608b5165837854b6e9a17b6fe0ffffffff020000000000000000536a4c50000077c4000198821ccaf0374b3a05f819d1e5bf9ae76da98a211aaf6c953dd567cf27e7178290483b5de464d458b0b2bf01bb335baa12f606131900bbc36791bc9a9526289ac0f6612cd74e33776ee410080100000000001976a9149895d8b066a052eba2060f6eab546454b8f04b6888ac00000000", "vin": [{"sequence": 4294967295, "scriptSig": {"hex": "47304402203a583a5321d5e1c994f499ab2a48e346e4df0f2450c8b0a16a90527cf5815b880220434f2b23c51e33617717bc944494c6bab354ebc01e2c70ec199cac2319232b2a0121034120bcf3d47557f4e044d5544cb20a25355106608b5165837854b6e9a17b6fe0", "asm": "304402203a583a5321d5e1c994f499ab2a48e346e4df0f2450c8b0a16a90527cf5815b880220434f2b23c51e33617717bc944494c6bab354ebc01e2c70ec199cac2319232b2a[ALL] 034120bcf3d47557f4e044d5544cb20a25355106608b5165837854b6e9a17b6fe0"}, "vout": 0, "txid": "e78f8faedd87ced122ac22e299e1e26b87fde4f98d16c9df359f60405630e3db"}], "txid": "4c6dd8133db3fe6aaf5d38423b288766cd036eb5fea3ba69cde153eba1ce805a", "blocktime": 1537873282, "version": 1, "confirmations": 11484, "time": 1537873282, "locktime": 0, "vsize": 283, "size": 283}