{"hash": "730f0ba82ed05df563692d58762352fcadb91c356dc317578b345ecc64986abc", "blockhash": "0000000000000000001f76057863aec43deb6fa401d9628bb513d65a8098bfab", "vout": [{"scriptPubKey": {"reqSigs": 1, "hex": "76a9145a3733fa2d62619e2a2079a0f30f6e15c86cd84188ac", "addresses": ["19E1wqfAezGiUx4Q4Lsmf2KEBvnGbAFsnx"], "asm": "OP_DUP OP_HASH160 5a3733fa2d62619e2a2079a0f30f6e15c86cd841 OP_EQUALVERIFY OP_CHECKSIG", "type": "pubkeyhash"}, "value": 0.156514, "n": 0}, {"scriptPubKey": {"reqSigs": 1, "hex": "a91454e83872d1a33ab52e646873664bcd254753fcfb87", "addresses": ["39RxscxoUfMvBRhF3HsUt5gW4QCU7di1YN"], "asm": "OP_HASH160 54e83872d1a33ab52e646873664bcd254753fcfb OP_EQUAL", "type": "scripthash"}, "value": 0.00997005, "n": 1}], "hex": "020000000001038c312dd6c7e52fb19118e6b7c747dd591b2fc29ed4183398cabca8e684b16a4e0000000017160014cd0b691f89010485db5152f79a1ad002e3f00332feffffff969a78523b8d4c88545ed35310f5c88583d016dec868a023896b6b09ba5360f40000000017160014df53826e8cfd742375f91ac34f91a57a8aed1f84feffffffd823b1339f2a41dfea06bc0e055adabd65cf74cfd3f29c17863c88c9f5b11625000000001716001424028991cf7c7ac18d32b7f6371ce2ac353d8413feffffff0248d2ee00000000001976a9145a3733fa2d62619e2a2079a0f30f6e15c86cd84188ac8d360f000000000017a91454e83872d1a33ab52e646873664bcd254753fcfb870247304402204b7bc37831bc038be83fb55a168fe4eac357ab97920871203095ecf0e2a9024002203594be8233d7541ec19abf1622787250662bba8a41aabe29b89ca7ee0ef28430012103beffde147c80aea7398c59f3d4d8c13d38d86ebaa923b07498312ca61ef217a602473044022079df6ffa6e1b48b77b5eeea8093bd2969edb211bef4196b15b4e5c9f0cc1494102203e83889e4a8a96a94c3e309d7f276d78f5954deb703f09fe0e084c42f97bc00f012102eb337ab7b0de5e6788943b47c47134ed75404f58dbdba7448d794b375b1c3873024730440220460efb7d724bb3c61032325a2a4eb501256ea0faec2781044e336d7c11074f3202203b8b243562fc3c048dddec7d9cbfc7779651cc8f98ffcd998f5bc001689b229b012103867e3e725d7fba669b22981a423a5f99f2370b6912cdcc1026fc3360951050d414490800", "vin": [{"txinwitness": ["304402204b7bc37831bc038be83fb55a168fe4eac357ab97920871203095ecf0e2a9024002203594be8233d7541ec19abf1622787250662bba8a41aabe29b89ca7ee0ef2843001", "03beffde147c80aea7398c59f3d4d8c13d38d86ebaa923b07498312ca61ef217a6"], "sequence": 4294967294, "scriptSig": {"hex": "160014cd0b691f89010485db5152f79a1ad002e3f00332", "asm": "0014cd0b691f89010485db5152f79a1ad002e3f00332"}, "vout": 0, "txid": "4e6ab184e6a8bcca983318d49ec22f1b59dd47c7b7e61891b12fe5c7d62d318c"}, {"txinwitness": ["3044022079df6ffa6e1b48b77b5eeea8093bd2969edb211bef4196b15b4e5c9f0cc1494102203e83889e4a8a96a94c3e309d7f276d78f5954deb703f09fe0e084c42f97bc00f01", "02eb337ab7b0de5e6788943b47c47134ed75404f58dbdba7448d794b375b1c3873"], "sequence": 4294967294, "scriptSig": {"hex": "160014df53826e8cfd742375f91ac34f91a57a8aed1f84", "asm": "0014df53826e8cfd742375f91ac34f91a57a8aed1f84"}, "vout": 0, "txid": "f46053ba096b6b8923a068c8de16d08385c8f51053d35e54884c8d3b52789a96"}, {"txinwitness": ["30440220460efb7d724bb3c61032325a2a4eb501256ea0faec2781044e336d7c11074f3202203b8b243562fc3c048dddec7d9cbfc7779651cc8f98ffcd998f5bc001689b229b01", "03867e3e725d7fba669b22981a423a5f99f2370b6912cdcc1026fc3360951050d4"], "sequence": 4294967294, "scriptSig": {"hex": "16001424028991cf7c7ac18d32b7f6371ce2ac353d8413", "asm": "001424028991cf7c7ac18d32b7f6371ce2ac353d8413"}, "vout": 0, "txid": "2516b1f5c9883c86179cf2d3cf74cf65bdda5a050ebc06eadf412a9f33b123d8"}], "txid": "4c6daec40e4e94661aeea3ab1c5369b2b2f68f0058c9275f584dbe9ee38e6593", "blocktime": 1537873891, "version": 2, "confirmations": 11475, "time": 1537873891, "locktime": 542996, "vsize": 349, "size": 591}