{"hash": "4c7432d1f3a92956875ba8bb78be1a513bf90c26c25409af77119c605cf70b4f", "blockhash": "0000000000000000001f0ddff1eddb255c1121bcd4da4f1bc9a0da00cae72433", "vout": [{"scriptPubKey": {"reqSigs": 1, "hex": "a914b1b53ec2af8fd7b51bbd5bbd0173c1449ef6a20187", "addresses": ["3Hteedcdz8RWXXPcrkVmxE58XtLsbTcSNm"], "asm": "OP_HASH160 b1b53ec2af8fd7b51bbd5bbd0173c1449ef6a201 OP_EQUAL", "type": "scripthash"}, "value": 0.07, "n": 0}, {"scriptPubKey": {"reqSigs": 1, "hex": "76a914f41937d87585d5040d0a97e39cfce7bf837e52c488ac", "addresses": ["1PFg5zfPTJHVXLt7UcsnyrQ8JkZzFLh5Hq"], "asm": "OP_DUP OP_HASH160 f41937d87585d5040d0a97e39cfce7bf837e52c4 OP_EQUALVERIFY OP_CHECKSIG", "type": "pubkeyhash"}, "value": 5.38140556, "n": 1}], "hex": "0100000001d00a34a9c2273182c2b0ac90e37fb40b0a86e132895027fc30dd1d13d9cda2ad010000006b483045022100853df4fb53ac1398e856b9aaf2a21df30d80c6427dadf0b392b6b4e3e66fa40a022050f0d24f3231fcdb343342f9fd6dddfbb4f7d2cd607b82136ac3c71c510a709a012103d3b6f04b99ffcfafe7703b5be83b76e6525cdc9948b214691de044b7c14c0a65ffffffff02c0cf6a000000000017a914b1b53ec2af8fd7b51bbd5bbd0173c1449ef6a201878c5f1320000000001976a914f41937d87585d5040d0a97e39cfce7bf837e52c488ac00000000", "vin": [{"sequence": 4294967295, "scriptSig": {"hex": "483045022100853df4fb53ac1398e856b9aaf2a21df30d80c6427dadf0b392b6b4e3e66fa40a022050f0d24f3231fcdb343342f9fd6dddfbb4f7d2cd607b82136ac3c71c510a709a012103d3b6f04b99ffcfafe7703b5be83b76e6525cdc9948b214691de044b7c14c0a65", "asm": "3045022100853df4fb53ac1398e856b9aaf2a21df30d80c6427dadf0b392b6b4e3e66fa40a022050f0d24f3231fcdb343342f9fd6dddfbb4f7d2cd607b82136ac3c71c510a709a[ALL] 03d3b6f04b99ffcfafe7703b5be83b76e6525cdc9948b214691de044b7c14c0a65"}, "vout": 1, "txid": "ada2cdd9131ddd30fc27508932e1860a0bb47fe390acb0c2823127c2a9340ad0"}], "txid": "4c7432d1f3a92956875ba8bb78be1a513bf90c26c25409af77119c605cf70b4f", "blocktime": 1537872018, "version": 1, "confirmations": 11489, "time": 1537872018, "locktime": 0, "vsize": 224, "size": 224}