{"hash": "4c761dac8e9d3a6078813ef7ac1940aea0b07491cd9953939141e04a53bcebf7", "blockhash": "0000000000000000000baef3f32e3676a92c3b2e5da21b426e4f302fc371ce76", "vout": [{"scriptPubKey": {"reqSigs": 1, "hex": "76a9144a057db9a45c4e3fb7b49ac6222d8277ba66c70588ac", "addresses": ["17kPaj31WMNQCEESoAa3vJhwBGv9T8K4id"], "asm": "OP_DUP OP_HASH160 4a057db9a45c4e3fb7b49ac6222d8277ba66c705 OP_EQUALVERIFY OP_CHECKSIG", "type": "pubkeyhash"}, "value": 0.0063252, "n": 0}, {"scriptPubKey": {"type": "nulldata", "hex": "6a4c50000078020001fb7311a11d4bd183325884ba702940d64fa54d8eb2d19ed074892d00f8e864c9cd17dc85e5cdbd83d841b4a1b58f5baa1a3b0613bc13916929b51d100759d4ba30d2c37bb011d97e02cf", "asm": "OP_RETURN 000078020001fb7311a11d4bd183325884ba702940d64fa54d8eb2d19ed074892d00f8e864c9cd17dc85e5cdbd83d841b4a1b58f5baa1a3b0613bc13916929b51d100759d4ba30d2c37bb011d97e02cf"}, "value": 0.0, "n": 1}], "hex": "01000000017e8a6f4b5dcc10d1b2910992275726f2d07b01966d2e32ac0c7150c92993051a000000006a473044022067a2254323c30ccb00d930d410bef923ba60900979a37f8da289f6ec8af179b902201a51eabbd681af143bfe6c184d0b45cd4ce106bd4ae43370eb2abd46d6ac39c4012102b4f72d83d8098d81e9f2f696039267b84e190c25d779405e6b8b545964a83d5fffffffff02c8a60900000000001976a9144a057db9a45c4e3fb7b49ac6222d8277ba66c70588ac0000000000000000536a4c50000078020001fb7311a11d4bd183325884ba702940d64fa54d8eb2d19ed074892d00f8e864c9cd17dc85e5cdbd83d841b4a1b58f5baa1a3b0613bc13916929b51d100759d4ba30d2c37bb011d97e02cf00000000", "vin": [{"sequence": 4294967295, "scriptSig": {"hex": "473044022067a2254323c30ccb00d930d410bef923ba60900979a37f8da289f6ec8af179b902201a51eabbd681af143bfe6c184d0b45cd4ce106bd4ae43370eb2abd46d6ac39c4012102b4f72d83d8098d81e9f2f696039267b84e190c25d779405e6b8b545964a83d5f", "asm": "3044022067a2254323c30ccb00d930d410bef923ba60900979a37f8da289f6ec8af179b902201a51eabbd681af143bfe6c184d0b45cd4ce106bd4ae43370eb2abd46d6ac39c4[ALL] 02b4f72d83d8098d81e9f2f696039267b84e190c25d779405e6b8b545964a83d5f"}, "vout": 0, "txid": "1a059329c950710cac322e6d96017bd0f2265727920991b2d110cc5d4b6f8a7e"}], "txid": "4c761dac8e9d3a6078813ef7ac1940aea0b07491cd9953939141e04a53bcebf7", "blocktime": 1537876114, "version": 1, "confirmations": 11463, "time": 1537876114, "locktime": 0, "vsize": 283, "size": 283}