{"hash": "4c7c4908770c776d576e5fbbac53d5ed89c205259d9387b4b1e0c086b32eeda1", "blockhash": "00000000000000000017f5eb5941039fbcee6240d03bc1f2f8e35350df66a1d8", "vout": [{"scriptPubKey": {"reqSigs": 1, "hex": "76a914f6f3e9aa7853b14e42775736c0681b7f4fc0db8a88ac", "addresses": ["1PWmRYezNU7quW1UmMpxmZVAzxFqu5G3dZ"], "asm": "OP_DUP OP_HASH160 f6f3e9aa7853b14e42775736c0681b7f4fc0db8a OP_EQUALVERIFY OP_CHECKSIG", "type": "pubkeyhash"}, "value": 0.030446, "n": 0}, {"scriptPubKey": {"reqSigs": 1, "hex": "76a91469151ac17cd03a3b68adb34a0db40e20b7efce7a88ac", "addresses": ["1AadEWZHC7DpiaxywAAse4RENZXKbCikbH"], "asm": "OP_DUP OP_HASH160 69151ac17cd03a3b68adb34a0db40e20b7efce7a OP_EQUALVERIFY OP_CHECKSIG", "type": "pubkeyhash"}, "value": 0.01478642, "n": 1}], "hex": "010000000146101a1497d81b768247ad18afaeaf384dc576a592e9fdd6eabe594eb877e36c000000006a47304402205ef679fe18e7719016f70b0327605f0c70e8f386ca2df6d3d5ab457a388f2b60022049494af9ab140650be8b463cfff78b3a0ec849e25f9e0b7d39a6da29dd05651f012103cf6cfe660bb68eb3a16c47f91222ac8bd284969f999adca5365e1672e713986fffffffff02f8742e00000000001976a914f6f3e9aa7853b14e42775736c0681b7f4fc0db8a88acf28f1600000000001976a91469151ac17cd03a3b68adb34a0db40e20b7efce7a88ac00000000", "vin": [{"sequence": 4294967295, "scriptSig": {"hex": "47304402205ef679fe18e7719016f70b0327605f0c70e8f386ca2df6d3d5ab457a388f2b60022049494af9ab140650be8b463cfff78b3a0ec849e25f9e0b7d39a6da29dd05651f012103cf6cfe660bb68eb3a16c47f91222ac8bd284969f999adca5365e1672e713986f", "asm": "304402205ef679fe18e7719016f70b0327605f0c70e8f386ca2df6d3d5ab457a388f2b60022049494af9ab140650be8b463cfff78b3a0ec849e25f9e0b7d39a6da29dd05651f[ALL] 03cf6cfe660bb68eb3a16c47f91222ac8bd284969f999adca5365e1672e713986f"}, "vout": 0, "txid": "6ce377b84e59beead6fde992a576c54d38afaeaf18ad4782761bd897141a1046"}], "txid": "4c7c4908770c776d576e5fbbac53d5ed89c205259d9387b4b1e0c086b32eeda1", "blocktime": 1537874412, "version": 1, "confirmations": 11468, "time": 1537874412, "locktime": 0, "vsize": 225, "size": 225}