{"hash": "4c8988a882bd45786ea440ed7c62e022102cee9792e8a6d2b61538aa48d6ec38", "blockhash": "000000000000000000022b45ed06c6f4ccd3cf7fb5ba4856ebd2e58215665228", "vout": [{"scriptPubKey": {"reqSigs": 1, "hex": "76a91452affeff71883fc7d6ea5d3e98f27ef93e63ad8c88ac", "addresses": ["18YDF9qw45xKKvW1P3NarCuzjcPw14r3X9"], "asm": "OP_DUP OP_HASH160 52affeff71883fc7d6ea5d3e98f27ef93e63ad8c OP_EQUALVERIFY OP_CHECKSIG", "type": "pubkeyhash"}, "value": 0.0004407, "n": 0}, {"scriptPubKey": {"type": "nulldata", "hex": "6a4c500000776500018bffff623cfe112441cdc70386aeaeacb577c031fc3a016b46dc7dc7d0968359b37dcedfd75b87abd0b05dc9b8465baa07fa0612c6675664fc4cc288b2720c27cdda35b5f050e1b42260", "asm": "OP_RETURN 0000776500018bffff623cfe112441cdc70386aeaeacb577c031fc3a016b46dc7dc7d0968359b37dcedfd75b87abd0b05dc9b8465baa07fa0612c6675664fc4cc288b2720c27cdda35b5f050e1b42260"}, "value": 0.0, "n": 1}], "hex": "0100000001ef0090e25027910268dfd1e9f58ce06f6ce7b348e008c7aee2e1b342af144a04000000006b483045022100d187313378038f96ef33b48138a6b3b3470328b90f970282301cee8964ae9e8402203d74126c027e20735939d86943cd30123a797b7b8f5bdfeb0f6849a8b8de34790121036e52c50bc83bcc2c8fe0e979f467db120aba33d54b0da331608966707090dc1bffffffff0226ac0000000000001976a91452affeff71883fc7d6ea5d3e98f27ef93e63ad8c88ac0000000000000000536a4c500000776500018bffff623cfe112441cdc70386aeaeacb577c031fc3a016b46dc7dc7d0968359b37dcedfd75b87abd0b05dc9b8465baa07fa0612c6675664fc4cc288b2720c27cdda35b5f050e1b4226000000000", "vin": [{"sequence": 4294967295, "scriptSig": {"hex": "483045022100d187313378038f96ef33b48138a6b3b3470328b90f970282301cee8964ae9e8402203d74126c027e20735939d86943cd30123a797b7b8f5bdfeb0f6849a8b8de34790121036e52c50bc83bcc2c8fe0e979f467db120aba33d54b0da331608966707090dc1b", "asm": "3045022100d187313378038f96ef33b48138a6b3b3470328b90f970282301cee8964ae9e8402203d74126c027e20735939d86943cd30123a797b7b8f5bdfeb0f6849a8b8de3479[ALL] 036e52c50bc83bcc2c8fe0e979f467db120aba33d54b0da331608966707090dc1b"}, "vout": 0, "txid": "044a14af42b3e1e2aec708e048b3e76c6fe08cf5e9d1df6802912750e29000ef"}], "txid": "4c8988a882bd45786ea440ed7c62e022102cee9792e8a6d2b61538aa48d6ec38", "blocktime": 1537869901, "version": 1, "confirmations": 11522, "time": 1537869901, "locktime": 0, "vsize": 284, "size": 284}