{"hash": "4c8fe6559555a8c7e97453f1916bb956324ed9854d53a2213c40fc704ec3bbc4", "blockhash": "00000000000000000004ffacab907a6b429b9a5745fa0b75af4234bf69dd7176", "vout": [{"scriptPubKey": {"reqSigs": 1, "hex": "76a914a1e28f61ae07cb18079f135158aa2f5dc4c1b65788ac", "addresses": ["1FkyCZD6WmzzyEjEPVMyFaKfZWzR7bCfth"], "asm": "OP_DUP OP_HASH160 a1e28f61ae07cb18079f135158aa2f5dc4c1b657 OP_EQUALVERIFY OP_CHECKSIG", "type": "pubkeyhash"}, "value": 4.702e-05, "n": 0}], "hex": "0100000002b7ad33cc3ba552348136d3154dd19d51a8c7bd3390da380e3cafd1fa797b7385460100006a4730440220622582121ee45e5c3b42e38625ea66c67f467971282d6ab84c7a19c582ec6a2302203d8210394c76ccbd311b593265e085682a06655ec16f0c54464058938388f6780121021e91676b4cea0f8bf1f959443f5195ff8dfdf773fea0500ca650b20967075edcffffffff2750163223eb145c8cb21a62de0f87d44c5f9c3def1f36a0f30c6178c2bca1fa1f0300006a473044022049ff00b69af8b82b3af224babe7c44f09f180b5e7f3f98b9cde3e7a881c1e0a702205fefdd372169d10e81e6bb36fa5ab97751452a2978e07fa79e0af646fbc263690121021e91676b4cea0f8bf1f959443f5195ff8dfdf773fea0500ca650b20967075edcffffffff015e120000000000001976a914a1e28f61ae07cb18079f135158aa2f5dc4c1b65788ac00000000", "vin": [{"sequence": 4294967295, "scriptSig": {"hex": "4730440220622582121ee45e5c3b42e38625ea66c67f467971282d6ab84c7a19c582ec6a2302203d8210394c76ccbd311b593265e085682a06655ec16f0c54464058938388f6780121021e91676b4cea0f8bf1f959443f5195ff8dfdf773fea0500ca650b20967075edc", "asm": "30440220622582121ee45e5c3b42e38625ea66c67f467971282d6ab84c7a19c582ec6a2302203d8210394c76ccbd311b593265e085682a06655ec16f0c54464058938388f678[ALL] 021e91676b4cea0f8bf1f959443f5195ff8dfdf773fea0500ca650b20967075edc"}, "vout": 326, "txid": "85737b79fad1af3c0e38da9033bdc7a8519dd14d15d336813452a53bcc33adb7"}, {"sequence": 4294967295, "scriptSig": {"hex": "473044022049ff00b69af8b82b3af224babe7c44f09f180b5e7f3f98b9cde3e7a881c1e0a702205fefdd372169d10e81e6bb36fa5ab97751452a2978e07fa79e0af646fbc263690121021e91676b4cea0f8bf1f959443f5195ff8dfdf773fea0500ca650b20967075edc", "asm": "3044022049ff00b69af8b82b3af224babe7c44f09f180b5e7f3f98b9cde3e7a881c1e0a702205fefdd372169d10e81e6bb36fa5ab97751452a2978e07fa79e0af646fbc26369[ALL] 021e91676b4cea0f8bf1f959443f5195ff8dfdf773fea0500ca650b20967075edc"}, "vout": 799, "txid": "faa1bcc278610cf3a0361fef3d9c5f4cd4870fde621ab28c5c14eb2332165027"}], "txid": "4c8fe6559555a8c7e97453f1916bb956324ed9854d53a2213c40fc704ec3bbc4", "blocktime": 1537875543, "version": 1, "confirmations": 11464, "time": 1537875543, "locktime": 0, "vsize": 338, "size": 338}