{"hash": "4c90f56e096b30157878602b5c41bc07cce4f949e7c99149be5b19e8dce576d4", "blockhash": "0000000000000000001cda96e906b7601b7a6fb1a3b62bca570a9e5d8f4b3de1", "vout": [{"scriptPubKey": {"reqSigs": 1, "hex": "76a914b1d28d03d4cecda9223088a68b240aa19c77267488ac", "addresses": ["1HDEqHQL39SXHSavCpXyms8xP9UDTKi9Pn"], "asm": "OP_DUP OP_HASH160 b1d28d03d4cecda9223088a68b240aa19c772674 OP_EQUALVERIFY OP_CHECKSIG", "type": "pubkeyhash"}, "value": 1.161e-05, "n": 0}, {"scriptPubKey": {"reqSigs": 1, "hex": "76a914d6e93937ea10ee5e7969f48e97722ad1896a58e388ac", "addresses": ["1LbLzhuQE2oj1SfEzgHxFY6jDusm9VyK1H"], "asm": "OP_DUP OP_HASH160 d6e93937ea10ee5e7969f48e97722ad1896a58e3 OP_EQUALVERIFY OP_CHECKSIG", "type": "pubkeyhash"}, "value": 0.002607, "n": 1}], "hex": "010000000343f9ed79cac1a7a925df4f0ee7f321d81443bcdc0ba792bb96bb2256338e1646800000006a4730440220107386a277d13d4584da46eba53dc065afc17d896294f16f29c4580a5083f7cd022070ebdf07382ead02779194d9ddf223624c821f1baa4c423c55bcd9504f4d255f012103291a60ac1a901adf3634b9be3bed924c582081f5dc9eb149b625ac18a2051747ffffffffe4ba56c179eca35d903fcc4d0f75e170a77caab7e18781094adac9761f3e09737d0000006b483045022100912411c257eb5044f959ac75581406aa8e061186928e8ef8066ec56e49490e5f02204ac9db983f5872ca693d6d54b1b1c504478c3ee0070ac2965175540028e23099012103291a60ac1a901adf3634b9be3bed924c582081f5dc9eb149b625ac18a2051747ffffffff9d3e2d6f519a83d1904f5acf4494d776e064bc1229d89f999b9eb72f8c1fae74860000006a473044022063e2ec2485a8504e9fc9a7bcdf53915d9b3198c42dc4bea70edeee60350c86fb02207b5dccbbda14177bd516b0b5b1c8de53b17a5d75f44af65a6f6a03c8943b278a012103291a60ac1a901adf3634b9be3bed924c582081f5dc9eb149b625ac18a2051747ffffffff0289040000000000001976a914b1d28d03d4cecda9223088a68b240aa19c77267488ac5cfa0300000000001976a914d6e93937ea10ee5e7969f48e97722ad1896a58e388ac00000000", "vin": [{"sequence": 4294967295, "scriptSig": {"hex": "4730440220107386a277d13d4584da46eba53dc065afc17d896294f16f29c4580a5083f7cd022070ebdf07382ead02779194d9ddf223624c821f1baa4c423c55bcd9504f4d255f012103291a60ac1a901adf3634b9be3bed924c582081f5dc9eb149b625ac18a2051747", "asm": "30440220107386a277d13d4584da46eba53dc065afc17d896294f16f29c4580a5083f7cd022070ebdf07382ead02779194d9ddf223624c821f1baa4c423c55bcd9504f4d255f[ALL] 03291a60ac1a901adf3634b9be3bed924c582081f5dc9eb149b625ac18a2051747"}, "vout": 128, "txid": "46168e335622bb96bb92a70bdcbc4314d821f3e70e4fdf25a9a7c1ca79edf943"}, {"sequence": 4294967295, "scriptSig": {"hex": "483045022100912411c257eb5044f959ac75581406aa8e061186928e8ef8066ec56e49490e5f02204ac9db983f5872ca693d6d54b1b1c504478c3ee0070ac2965175540028e23099012103291a60ac1a901adf3634b9be3bed924c582081f5dc9eb149b625ac18a2051747", "asm": "3045022100912411c257eb5044f959ac75581406aa8e061186928e8ef8066ec56e49490e5f02204ac9db983f5872ca693d6d54b1b1c504478c3ee0070ac2965175540028e23099[ALL] 03291a60ac1a901adf3634b9be3bed924c582081f5dc9eb149b625ac18a2051747"}, "vout": 125, "txid": "73093e1f76c9da4a098187e1b7aa7ca770e1750f4dcc3f905da3ec79c156bae4"}, {"sequence": 4294967295, "scriptSig": {"hex": "473044022063e2ec2485a8504e9fc9a7bcdf53915d9b3198c42dc4bea70edeee60350c86fb02207b5dccbbda14177bd516b0b5b1c8de53b17a5d75f44af65a6f6a03c8943b278a012103291a60ac1a901adf3634b9be3bed924c582081f5dc9eb149b625ac18a2051747", "asm": "3044022063e2ec2485a8504e9fc9a7bcdf53915d9b3198c42dc4bea70edeee60350c86fb02207b5dccbbda14177bd516b0b5b1c8de53b17a5d75f44af65a6f6a03c8943b278a[ALL] 03291a60ac1a901adf3634b9be3bed924c582081f5dc9eb149b625ac18a2051747"}, "vout": 134, "txid": "74ae1f8c2fb79e9b999fd82912bc64e076d79444cf5a4f90d1839a516f2d3e9d"}], "txid": "4c90f56e096b30157878602b5c41bc07cce4f949e7c99149be5b19e8dce576d4", "blocktime": 1537873282, "version": 1, "confirmations": 11484, "time": 1537873282, "locktime": 0, "vsize": 520, "size": 520}