{"hash": "4c95ccd84763e34baad2a290a0d6faf7298f355903328225a1aa0e01cb40b96d", "blockhash": "00000000000000000004ffacab907a6b429b9a5745fa0b75af4234bf69dd7176", "vout": [{"scriptPubKey": {"reqSigs": 1, "hex": "a9142b31711189b137418699b7159178e6e64e3b86a387", "addresses": ["35dQD4SicFErpZh8DtiX13wruURDA4R8Zg"], "asm": "OP_HASH160 2b31711189b137418699b7159178e6e64e3b86a3 OP_EQUAL", "type": "scripthash"}, "value": 0.01189619, "n": 0}, {"scriptPubKey": {"reqSigs": 1, "hex": "76a914889b1c3fd94343dc84ab101fe6b8246c71c4cd7988ac", "addresses": ["1DTJiM1PAhJPPnVfUMRFmdqzPi1aPTzN6y"], "asm": "OP_DUP OP_HASH160 889b1c3fd94343dc84ab101fe6b8246c71c4cd79 OP_EQUALVERIFY OP_CHECKSIG", "type": "pubkeyhash"}, "value": 0.02822104, "n": 1}], "hex": "0100000001fcd6d2f12656bdfd58b0f2b919b8761f3f44f50b08475eeb3b626a3b459ea41c000000006b483045022100e3f0dc0573a5c851e509e4faa0ae643f9baae221e983506f0eb7721c2dea792902201af51f904c4028193009e280d8bdc326dfca03ade03dd78cfe6bf5822f89476c012102e16119eb59091020b4078b927b8e20836a5836bfc7258b5ebb86bd5b6e8935cfffffffff02f32612000000000017a9142b31711189b137418699b7159178e6e64e3b86a387d80f2b00000000001976a914889b1c3fd94343dc84ab101fe6b8246c71c4cd7988ac00000000", "vin": [{"sequence": 4294967295, "scriptSig": {"hex": "483045022100e3f0dc0573a5c851e509e4faa0ae643f9baae221e983506f0eb7721c2dea792902201af51f904c4028193009e280d8bdc326dfca03ade03dd78cfe6bf5822f89476c012102e16119eb59091020b4078b927b8e20836a5836bfc7258b5ebb86bd5b6e8935cf", "asm": "3045022100e3f0dc0573a5c851e509e4faa0ae643f9baae221e983506f0eb7721c2dea792902201af51f904c4028193009e280d8bdc326dfca03ade03dd78cfe6bf5822f89476c[ALL] 02e16119eb59091020b4078b927b8e20836a5836bfc7258b5ebb86bd5b6e8935cf"}, "vout": 0, "txid": "1ca49e453b6a623beb5e47080bf5443f1f76b819b9f2b058fdbd5626f1d2d6fc"}], "txid": "4c95ccd84763e34baad2a290a0d6faf7298f355903328225a1aa0e01cb40b96d", "blocktime": 1537875543, "version": 1, "confirmations": 11464, "time": 1537875543, "locktime": 0, "vsize": 224, "size": 224}