{"hash": "4c972875cdc7d44095192af0f56f4f3a0d84a8bf5e4ff36c334d978059c069bb", "blockhash": "0000000000000000000dcc0f55137456b1a82d3642486a52398922ac4d620174", "vout": [{"scriptPubKey": {"type": "nulldata", "hex": "6a4c50000077770001b9eeb876395a371197efb158bcbefa6b8351586b4e86aeaeacb577c031fce3ab24ba29a153279428b7dbd7ad5d895baa099906147acbb01cff741d100759d4ba30d2c37bb011d97e02cf", "asm": "OP_RETURN 000077770001b9eeb876395a371197efb158bcbefa6b8351586b4e86aeaeacb577c031fce3ab24ba29a153279428b7dbd7ad5d895baa099906147acbb01cff741d100759d4ba30d2c37bb011d97e02cf"}, "value": 0.0, "n": 0}, {"scriptPubKey": {"reqSigs": 1, "hex": "76a91461bd9797be0bbdc41ee713daed4b5621f46baec588ac", "addresses": ["19uofhhYmvQ2ubSzgyfhtP8ZCSkgRGV9S6"], "asm": "OP_DUP OP_HASH160 61bd9797be0bbdc41ee713daed4b5621f46baec5 OP_EQUALVERIFY OP_CHECKSIG", "type": "pubkeyhash"}, "value": 0.0065081, "n": 1}], "hex": "01000000019b3cdc02cb270e6c760884661f57cdeee2faa35ed3759024e62de32b010b8569010000006a473044022043e69639caec73ef17fc0254d1ac090d37896f9a5fb00845874019e16b7a39e602207f0eab0ad4f76ec5f7967fc96770d08a269abcc6a5f7cbdaaedd2b88ff5f9f6101210359a020462b154408d46269f5eddf44ae1b531bd1bc755f044000934b980b076bffffffff020000000000000000536a4c50000077770001b9eeb876395a371197efb158bcbefa6b8351586b4e86aeaeacb577c031fce3ab24ba29a153279428b7dbd7ad5d895baa099906147acbb01cff741d100759d4ba30d2c37bb011d97e02cf3aee0900000000001976a91461bd9797be0bbdc41ee713daed4b5621f46baec588ac00000000", "vin": [{"sequence": 4294967295, "scriptSig": {"hex": "473044022043e69639caec73ef17fc0254d1ac090d37896f9a5fb00845874019e16b7a39e602207f0eab0ad4f76ec5f7967fc96770d08a269abcc6a5f7cbdaaedd2b88ff5f9f6101210359a020462b154408d46269f5eddf44ae1b531bd1bc755f044000934b980b076b", "asm": "3044022043e69639caec73ef17fc0254d1ac090d37896f9a5fb00845874019e16b7a39e602207f0eab0ad4f76ec5f7967fc96770d08a269abcc6a5f7cbdaaedd2b88ff5f9f61[ALL] 0359a020462b154408d46269f5eddf44ae1b531bd1bc755f044000934b980b076b"}, "vout": 1, "txid": "69850b012be32de6249075d35ea3fae2eecd571f668408766c0e27cb02dc3c9b"}], "txid": "4c972875cdc7d44095192af0f56f4f3a0d84a8bf5e4ff36c334d978059c069bb", "blocktime": 1537870268, "version": 1, "confirmations": 11518, "time": 1537870268, "locktime": 0, "vsize": 283, "size": 283}