{"hash": "4c98fcb8efc2f63577eed1200074b201bd587e43ae6eca4caf7187d76d49f06a", "blockhash": "0000000000000000000e13cef7c366c0283d82e591d1acd082e914b08063cdf1", "vout": [{"scriptPubKey": {"reqSigs": 1, "hex": "76a914577d564283ca45fa045549d5f13b724ac17980cc88ac", "addresses": ["18ybwFhM8iByesXTH28xPr6brAYn8L2sB4"], "asm": "OP_DUP OP_HASH160 577d564283ca45fa045549d5f13b724ac17980cc OP_EQUALVERIFY OP_CHECKSIG", "type": "pubkeyhash"}, "value": 0.00056616, "n": 0}, {"scriptPubKey": {"reqSigs": 1, "hex": "76a914c5c3c34ea537955ee620ffae8fb3805f3133973f88ac", "addresses": ["1K2gddvgJ8thvE5q27pRnGkV71wFErLNWf"], "asm": "OP_DUP OP_HASH160 c5c3c34ea537955ee620ffae8fb3805f3133973f OP_EQUALVERIFY OP_CHECKSIG", "type": "pubkeyhash"}, "value": 0.03143562, "n": 1}], "hex": "0100000003997481d9404aa901366e4b8b99003adc5f0d16415eb4554487505acd9c192e10010000006b483045022100c6ab2fb0f28cce5ae18db71da08ddb7f51fabf83ca0a6b04b22e19fa849c4f83022035024c0563743bcbaa1b360ebbf1f2741dbaaa91c0ffcbf8b8d7a2d60ef7edfe012102343697a2bdd40f283061cf73ed238a3ae98aa0fc04faf6ae433d48d3f7deb79bffffffff07d1374c9e771ba8736a27d8422329070f58689b42d821cb8f703d306a090127000000006a47304402201145bd58c923e44982a0b970b1477b1190fcb9f1a824450b507223cfb284d8f4022032aa3de37f3ea2fa49691b4ed621c0ba850a5a61495e89810fc8a1bf59a12ebb01210370da6bdbc040d4e5f23ac3c61d9524ef01e9868eecc16f7f3293291adc1e33cfffffffffca67d7a972c12e6cdde6ec8e60f13eb5ee35f4d728ce56f7c8da3355b2f14284000000006b483045022100da89e1562613f64a8a172af0707e896807b6e73b98c54f900ab0c29bb59478300220118ceee41b4f591949877f0fa33e54796fdd05051d0778d305762cfe778354c9012102fae3d0f992a41c50df63a280e4f0febc4fbba3ecc26729133c71ffddad2e3662ffffffff0228dd0000000000001976a914577d564283ca45fa045549d5f13b724ac17980cc88ac8af72f00000000001976a914c5c3c34ea537955ee620ffae8fb3805f3133973f88ac00000000", "vin": [{"sequence": 4294967295, "scriptSig": {"hex": "483045022100c6ab2fb0f28cce5ae18db71da08ddb7f51fabf83ca0a6b04b22e19fa849c4f83022035024c0563743bcbaa1b360ebbf1f2741dbaaa91c0ffcbf8b8d7a2d60ef7edfe012102343697a2bdd40f283061cf73ed238a3ae98aa0fc04faf6ae433d48d3f7deb79b", "asm": "3045022100c6ab2fb0f28cce5ae18db71da08ddb7f51fabf83ca0a6b04b22e19fa849c4f83022035024c0563743bcbaa1b360ebbf1f2741dbaaa91c0ffcbf8b8d7a2d60ef7edfe[ALL] 02343697a2bdd40f283061cf73ed238a3ae98aa0fc04faf6ae433d48d3f7deb79b"}, "vout": 1, "txid": "102e199ccd5a50874455b45e41160d5fdc3a00998b4b6e3601a94a40d9817499"}, {"sequence": 4294967295, "scriptSig": {"hex": "47304402201145bd58c923e44982a0b970b1477b1190fcb9f1a824450b507223cfb284d8f4022032aa3de37f3ea2fa49691b4ed621c0ba850a5a61495e89810fc8a1bf59a12ebb01210370da6bdbc040d4e5f23ac3c61d9524ef01e9868eecc16f7f3293291adc1e33cf", "asm": "304402201145bd58c923e44982a0b970b1477b1190fcb9f1a824450b507223cfb284d8f4022032aa3de37f3ea2fa49691b4ed621c0ba850a5a61495e89810fc8a1bf59a12ebb[ALL] 0370da6bdbc040d4e5f23ac3c61d9524ef01e9868eecc16f7f3293291adc1e33cf"}, "vout": 0, "txid": "2701096a303d708fcb21d8429b68580f07292342d8276a73a81b779e4c37d107"}, {"sequence": 4294967295, "scriptSig": {"hex": "483045022100da89e1562613f64a8a172af0707e896807b6e73b98c54f900ab0c29bb59478300220118ceee41b4f591949877f0fa33e54796fdd05051d0778d305762cfe778354c9012102fae3d0f992a41c50df63a280e4f0febc4fbba3ecc26729133c71ffddad2e3662", "asm": "3045022100da89e1562613f64a8a172af0707e896807b6e73b98c54f900ab0c29bb59478300220118ceee41b4f591949877f0fa33e54796fdd05051d0778d305762cfe778354c9[ALL] 02fae3d0f992a41c50df63a280e4f0febc4fbba3ecc26729133c71ffddad2e3662"}, "vout": 0, "txid": "8442f1b25533dac8f756ce28d7f435eeb53ef1608eece6dd6c2ec172a9d767ca"}], "txid": "4c98fcb8efc2f63577eed1200074b201bd587e43ae6eca4caf7187d76d49f06a", "blocktime": 1537871767, "version": 1, "confirmations": 11495, "time": 1537871767, "locktime": 0, "vsize": 521, "size": 521}