{"hash": "3fd570eaa96c95f72497aa125d77f0723b1df3ba7fc33baa649a4548a4587069", "blockhash": "0000000000000000000dcc0f55137456b1a82d3642486a52398922ac4d620174", "vout": [{"scriptPubKey": {"reqSigs": 1, "hex": "a91430897cc6c9d69f6a2c2f1c651d51f22219f1a4f687", "addresses": ["367f4YWz1VCFaqBqwbTrzwi2b1h2U3w1AF"], "asm": "OP_HASH160 30897cc6c9d69f6a2c2f1c651d51f22219f1a4f6 OP_EQUAL", "type": "scripthash"}, "value": 0.0138872, "n": 0}, {"scriptPubKey": {"reqSigs": 1, "hex": "a9148e3371027c6cbd6f4ee92c51f376034f3e30a7eb87", "addresses": ["3EeuVzq78wU8TNGC75x8XEcrKyguHL9RBY"], "asm": "OP_HASH160 8e3371027c6cbd6f4ee92c51f376034f3e30a7eb OP_EQUAL", "type": "scripthash"}, "value": 0.07, "n": 1}], "hex": "01000000000101990b8227f7e4c153ef36dc08ced315f0bbeb6ed805f3c1f574b249c61e26d3750000000023220020bcf9f822194145acea0f3235f4107b5bf1a91b6b9f8489f63bf79ec29b360913ffffffff02b03015000000000017a91430897cc6c9d69f6a2c2f1c651d51f22219f1a4f687c0cf6a000000000017a9148e3371027c6cbd6f4ee92c51f376034f3e30a7eb870400483045022100f740643d1ccb000461e41257351032919ed52cfd4ec295adf441f1f4b6f7faac02202e697176c35b343e14f2380ca2eaff2537aad71c9f2aa8e3ae5964d98d19ebdf01483045022100c4d108e4a864d18b56c9411f7d9e54edb93c72fb41ff5c3377aea07276f35c3102202e26a89c41dffc05da224c8f0d24e893a97242b5412e9998fa3aee1132e3451201695221026c8f72b9e63db63907115e65d4da86eaae595b22fdc85ec75301bb4adbf203582103806535be3e3920e5eedee92de5714188fd6a784f2bf7b04f87de0b9c3ae1ecdb21024b23bfdce2afcae7e28c42f7f79aa100f22931712c52d7414a526ba494d44a2553ae00000000", "vin": [{"txinwitness": ["", "3045022100f740643d1ccb000461e41257351032919ed52cfd4ec295adf441f1f4b6f7faac02202e697176c35b343e14f2380ca2eaff2537aad71c9f2aa8e3ae5964d98d19ebdf01", "3045022100c4d108e4a864d18b56c9411f7d9e54edb93c72fb41ff5c3377aea07276f35c3102202e26a89c41dffc05da224c8f0d24e893a97242b5412e9998fa3aee1132e3451201", "5221026c8f72b9e63db63907115e65d4da86eaae595b22fdc85ec75301bb4adbf203582103806535be3e3920e5eedee92de5714188fd6a784f2bf7b04f87de0b9c3ae1ecdb21024b23bfdce2afcae7e28c42f7f79aa100f22931712c52d7414a526ba494d44a2553ae"], "sequence": 4294967295, "scriptSig": {"hex": "220020bcf9f822194145acea0f3235f4107b5bf1a91b6b9f8489f63bf79ec29b360913", "asm": "0020bcf9f822194145acea0f3235f4107b5bf1a91b6b9f8489f63bf79ec29b360913"}, "vout": 0, "txid": "75d3261ec649b274f5c1f305d86eebbbf015d3ce08dc36ef53c1e4f727820b99"}], "txid": "4c9ace9f11416d9e5c2abec822e474b8ea377b5886bebd299fd7b80cf43a863a", "blocktime": 1537870268, "version": 1, "confirmations": 11517, "time": 1537870268, "locktime": 0, "vsize": 214, "size": 406}