{"hash": "4c9f3356a0c120f80f11f9493d0e85b0cdb0257fb573a8d302c04af52c914d99", "blockhash": "00000000000000000017f5eb5941039fbcee6240d03bc1f2f8e35350df66a1d8", "vout": [{"scriptPubKey": {"reqSigs": 1, "hex": "a914ad2a3eb03c99f03d1f9d7d4c01afbcf52399a29b87", "addresses": ["3HUdRxPv83hUvh2GfKaW97SHy5gJJDzwWe"], "asm": "OP_HASH160 ad2a3eb03c99f03d1f9d7d4c01afbcf52399a29b OP_EQUAL", "type": "scripthash"}, "value": 0.0005, "n": 0}, {"scriptPubKey": {"reqSigs": 1, "hex": "76a914e349bc52d6b8100b58d3fce45135a91c5c128a1d88ac", "addresses": ["1MiningDkXkhKaXBTMKXfLemnk1YY5rbkT"], "asm": "OP_DUP OP_HASH160 e349bc52d6b8100b58d3fce45135a91c5c128a1d OP_EQUALVERIFY OP_CHECKSIG", "type": "pubkeyhash"}, "value": 0.00267823, "n": 1}], "hex": "0200000001922e85bee3013d65546a48c4d394e456ce1a639c7f7ef07dbc6821129447be0d010000008b483045022100f960e84f41c0791a9a07bb4a12c1058c3a9c0ddee9e526fed18793f792d9449502204ccb0b7d50cfaabbc6f3d8a5e955c1f0adbf9303334ab51bfdd91c2753f2a4ed014104ae414abde7876c34e01694b38b2341d10b9b4c8db18a66262bd8df26bcb57893885c9fe8b79aa25330d5f05bb5aa9ab636a908a72e27956572b44190b22809beffffffff0250c300000000000017a914ad2a3eb03c99f03d1f9d7d4c01afbcf52399a29b872f160400000000001976a914e349bc52d6b8100b58d3fce45135a91c5c128a1d88ac00000000", "vin": [{"sequence": 4294967295, "scriptSig": {"hex": "483045022100f960e84f41c0791a9a07bb4a12c1058c3a9c0ddee9e526fed18793f792d9449502204ccb0b7d50cfaabbc6f3d8a5e955c1f0adbf9303334ab51bfdd91c2753f2a4ed014104ae414abde7876c34e01694b38b2341d10b9b4c8db18a66262bd8df26bcb57893885c9fe8b79aa25330d5f05bb5aa9ab636a908a72e27956572b44190b22809be", "asm": "3045022100f960e84f41c0791a9a07bb4a12c1058c3a9c0ddee9e526fed18793f792d9449502204ccb0b7d50cfaabbc6f3d8a5e955c1f0adbf9303334ab51bfdd91c2753f2a4ed[ALL] 04ae414abde7876c34e01694b38b2341d10b9b4c8db18a66262bd8df26bcb57893885c9fe8b79aa25330d5f05bb5aa9ab636a908a72e27956572b44190b22809be"}, "vout": 1, "txid": "0dbe4794122168bc7df07e7f9c631ace56e494d3c4486a54653d01e3be852e92"}], "txid": "4c9f3356a0c120f80f11f9493d0e85b0cdb0257fb573a8d302c04af52c914d99", "blocktime": 1537874412, "version": 2, "confirmations": 11467, "time": 1537874412, "locktime": 0, "vsize": 256, "size": 256}