{"hash": "e57e2274218b1fa84c4a5c4107c96b72dea3f94d8e159a7d9912e1a2b55eeaa7", "blockhash": "00000000000000000024a2167bbff67b0be802c0b01cdd79e6331c2be6459f87", "vout": [{"scriptPubKey": {"reqSigs": 1, "hex": "00149d112ae24bf379bede5c243e0c2a0a38bda2a3d4", "addresses": ["bc1qn5gj4cjt7dumahjuyslqc2s28z769g75efep6y"], "asm": "0 9d112ae24bf379bede5c243e0c2a0a38bda2a3d4", "type": "witness_v0_keyhash"}, "value": 0.012808, "n": 0}, {"scriptPubKey": {"reqSigs": 1, "hex": "76a9146b7a05f226daa295c03632d5a69ed63c9f2c402488ac", "addresses": ["1AoHUrCVvhGFSpoumNcvWGbJxp7kDdWJ2R"], "asm": "OP_DUP OP_HASH160 6b7a05f226daa295c03632d5a69ed63c9f2c4024 OP_EQUALVERIFY OP_CHECKSIG", "type": "pubkeyhash"}, "value": 0.03092544, "n": 1}], "hex": "01000000000101716ef420997f98354a540ae09c9260df9d5595b006f4d306b00c42e2f7b7e0d90000000017160014b7a5b1eafb3b9752f44babcf57912a35bfdd424bffffffff02208b1300000000001600149d112ae24bf379bede5c243e0c2a0a38bda2a3d440302f00000000001976a9146b7a05f226daa295c03632d5a69ed63c9f2c402488ac02483045022100a286f87c9752731712fe379d5fd8313a1eedfb617ddac5800f4c353d39f43cca02207f0a7f139a215ec64c92dc1305f359574fcd08f87d0ae44c1bb62efa57588c9901210222f686f0509948ebcc1774395ccaaf40be24e5b237b0ece6795a100474eef5af00000000", "vin": [{"txinwitness": ["3045022100a286f87c9752731712fe379d5fd8313a1eedfb617ddac5800f4c353d39f43cca02207f0a7f139a215ec64c92dc1305f359574fcd08f87d0ae44c1bb62efa57588c9901", "0222f686f0509948ebcc1774395ccaaf40be24e5b237b0ece6795a100474eef5af"], "sequence": 4294967295, "scriptSig": {"hex": "160014b7a5b1eafb3b9752f44babcf57912a35bfdd424b", "asm": "0014b7a5b1eafb3b9752f44babcf57912a35bfdd424b"}, "vout": 0, "txid": "d9e0b7f7e2420cb006d3f406b095559ddf60929ce00a544a35987f9920f46e71"}], "txid": "4ca8bcf6a57e9b682bccb7cc1330b59c9caf1fd6d13d4595254a0771b1286938", "blocktime": 1537870564, "version": 1, "confirmations": 11515, "time": 1537870564, "locktime": 0, "vsize": 167, "size": 249}