{"hash": "4cad00aefa3bc87a0a44456c8ab08b36e005eec4acef2f7d06215fae1704f116", "blockhash": "0000000000000000001f76057863aec43deb6fa401d9628bb513d65a8098bfab", "vout": [{"scriptPubKey": {"reqSigs": 1, "hex": "76a9146fbef55e448c2e5b21f7f0f93a1e36c6d54c0c6b88ac", "addresses": ["1BBrmKaLAsHM4DgdkQ8HuRjFEs67tQFumQ"], "asm": "OP_DUP OP_HASH160 6fbef55e448c2e5b21f7f0f93a1e36c6d54c0c6b OP_EQUALVERIFY OP_CHECKSIG", "type": "pubkeyhash"}, "value": 0.08155566, "n": 0}], "hex": "02000000024e2656e12548a31b39af5410c90ea79bdbc44e161959f14a48268ea5250a462a000000008a47304402203391ae1d40dc88eb43ad88fd76732b70d752262d660656fccfbb81647839e061022040fd5c1bf00a05d96c6cd9430ef987ac94658d38e211578f217ef57a65e432b3014104e3a838b063d9418fd9cd9fb09b4c2518a2752b2947684dd3796c2582a8715cde90820b38e28943c46541daa953a3684e86f2bd01eb17706acb42125cc05a64cfffffffffd9f7b7060f77666ed77f501c001e26be4333821e4e96141b72ea409922c86a3c000000008a47304402204a6c413226dea567a1d0fdad7358f29320945136c73fe41023311e847dce38a802202ad54e08bdfaaef0649e694ff353022ec4d6eac3d260301637c02e9e50000bae0141048a9a4ce96b6ed6826beb7a152c0903f1919f0e87a8949fd1c45efa240cb78e307d6c92d1954ee80f4c4c4d678d1b917fff93ccd5eab0ce57905a0f0c5517f16cffffffff01ae717c00000000001976a9146fbef55e448c2e5b21f7f0f93a1e36c6d54c0c6b88ac00000000", "vin": [{"sequence": 4294967295, "scriptSig": {"hex": "47304402203391ae1d40dc88eb43ad88fd76732b70d752262d660656fccfbb81647839e061022040fd5c1bf00a05d96c6cd9430ef987ac94658d38e211578f217ef57a65e432b3014104e3a838b063d9418fd9cd9fb09b4c2518a2752b2947684dd3796c2582a8715cde90820b38e28943c46541daa953a3684e86f2bd01eb17706acb42125cc05a64cf", "asm": "304402203391ae1d40dc88eb43ad88fd76732b70d752262d660656fccfbb81647839e061022040fd5c1bf00a05d96c6cd9430ef987ac94658d38e211578f217ef57a65e432b3[ALL] 04e3a838b063d9418fd9cd9fb09b4c2518a2752b2947684dd3796c2582a8715cde90820b38e28943c46541daa953a3684e86f2bd01eb17706acb42125cc05a64cf"}, "vout": 0, "txid": "2a460a25a58e26484af15919164ec4db9ba70ec91054af391ba34825e156264e"}, {"sequence": 4294967295, "scriptSig": {"hex": "47304402204a6c413226dea567a1d0fdad7358f29320945136c73fe41023311e847dce38a802202ad54e08bdfaaef0649e694ff353022ec4d6eac3d260301637c02e9e50000bae0141048a9a4ce96b6ed6826beb7a152c0903f1919f0e87a8949fd1c45efa240cb78e307d6c92d1954ee80f4c4c4d678d1b917fff93ccd5eab0ce57905a0f0c5517f16c", "asm": "304402204a6c413226dea567a1d0fdad7358f29320945136c73fe41023311e847dce38a802202ad54e08bdfaaef0649e694ff353022ec4d6eac3d260301637c02e9e50000bae[ALL] 048a9a4ce96b6ed6826beb7a152c0903f1919f0e87a8949fd1c45efa240cb78e307d6c92d1954ee80f4c4c4d678d1b917fff93ccd5eab0ce57905a0f0c5517f16c"}, "vout": 0, "txid": "3c6ac8229940ea721b14964e1e823343be261e001c507fd76e66770f06b7f7d9"}], "txid": "4cad00aefa3bc87a0a44456c8ab08b36e005eec4acef2f7d06215fae1704f116", "blocktime": 1537873891, "version": 2, "confirmations": 11477, "time": 1537873891, "locktime": 0, "vsize": 402, "size": 402}