{"hash": "4cae7e3e6a7ed0b0f3edfcbd366c302d04a16d816417c1eb8e30d8889b349996", "blockhash": "0000000000000000001cda96e906b7601b7a6fb1a3b62bca570a9e5d8f4b3de1", "vout": [{"scriptPubKey": {"reqSigs": 1, "hex": "76a91439452bf97da21ca52291b30a89fd9e7333f30c6188ac", "addresses": ["16DpP5GUTZgg3YrY8NLM61amtq2Nti1Y9i"], "asm": "OP_DUP OP_HASH160 39452bf97da21ca52291b30a89fd9e7333f30c61 OP_EQUALVERIFY OP_CHECKSIG", "type": "pubkeyhash"}, "value": 0.01269849, "n": 0}], "hex": "0100000001081866f7e225a311f6e81f95d952e2077cd5930ee764f90c9991cd66ecdd3f69010000006a4730440220187decc378041b7a3ba43915df013ea5337f504b6145874d8b651738d5eab0ce02202bbdbe3dde887ee112f3b6f0386b147dfac11dfe5cfdfe5bf2a6817191766a6a012103ff0a49c7e0b76266d39e6707520ada9351048dfb46621de8e8c1f1d706d013b1fdffffff0159601300000000001976a91439452bf97da21ca52291b30a89fd9e7333f30c6188ac13490800", "vin": [{"sequence": 4294967293, "scriptSig": {"hex": "4730440220187decc378041b7a3ba43915df013ea5337f504b6145874d8b651738d5eab0ce02202bbdbe3dde887ee112f3b6f0386b147dfac11dfe5cfdfe5bf2a6817191766a6a012103ff0a49c7e0b76266d39e6707520ada9351048dfb46621de8e8c1f1d706d013b1", "asm": "30440220187decc378041b7a3ba43915df013ea5337f504b6145874d8b651738d5eab0ce02202bbdbe3dde887ee112f3b6f0386b147dfac11dfe5cfdfe5bf2a6817191766a6a[ALL] 03ff0a49c7e0b76266d39e6707520ada9351048dfb46621de8e8c1f1d706d013b1"}, "vout": 1, "txid": "693fddec66cd91990cf964e70e93d57c07e252d9951fe8f611a325e2f7661808"}], "txid": "4cae7e3e6a7ed0b0f3edfcbd366c302d04a16d816417c1eb8e30d8889b349996", "blocktime": 1537873282, "version": 1, "confirmations": 11485, "time": 1537873282, "locktime": 542995, "vsize": 191, "size": 191}