{"hash": "4cb437c4dbabfe17c61a0b4ee99499cd942f30c52faff8e57c7f7747e17bb953", "blockhash": "00000000000000000018f53835495a110e01622372bf6ae95dc86f2b0ab887b0", "vout": [{"scriptPubKey": {"reqSigs": 1, "hex": "76a9147da05fd92f375953c636ae94af15877862cc052188ac", "addresses": ["1CTFazJdrbNf33J3CVuTE5QdU4ubdspEEk"], "asm": "OP_DUP OP_HASH160 7da05fd92f375953c636ae94af15877862cc0521 OP_EQUALVERIFY OP_CHECKSIG", "type": "pubkeyhash"}, "value": 0.00651145, "n": 0}, {"scriptPubKey": {"type": "nulldata", "hex": "6a4c50000077890001786b03e3ef3236678a625097bcbefa6b8351586b4e86aeaeacb577c031fc6e355a38d6d7ccd420ecbba183b6bda85baa0bd90613cc1eef3c38b11d100759d4ba30d2c37bb011d97e02cf", "asm": "OP_RETURN 000077890001786b03e3ef3236678a625097bcbefa6b8351586b4e86aeaeacb577c031fc6e355a38d6d7ccd420ecbba183b6bda85baa0bd90613cc1eef3c38b11d100759d4ba30d2c37bb011d97e02cf"}, "value": 0.0, "n": 1}], "hex": "01000000014f97277d8568b6ddc53c5285950157e6d5553ccf8d41a1a1e03ceb4a464779da000000006b4830450221009d7ba2d34bab16972289598b197efa2ec7eefe519e9803ccc892f35a3dacda290220331da53d7f3974763eb758f818582a97db440334f354b9d49f4bc549873916a9012103dac39edffdc9e66596784eb5d25c3cdc040e7ab0b38b6293b7f40fe44edbe4ccffffffff0289ef0900000000001976a9147da05fd92f375953c636ae94af15877862cc052188ac0000000000000000536a4c50000077890001786b03e3ef3236678a625097bcbefa6b8351586b4e86aeaeacb577c031fc6e355a38d6d7ccd420ecbba183b6bda85baa0bd90613cc1eef3c38b11d100759d4ba30d2c37bb011d97e02cf00000000", "vin": [{"sequence": 4294967295, "scriptSig": {"hex": "4830450221009d7ba2d34bab16972289598b197efa2ec7eefe519e9803ccc892f35a3dacda290220331da53d7f3974763eb758f818582a97db440334f354b9d49f4bc549873916a9012103dac39edffdc9e66596784eb5d25c3cdc040e7ab0b38b6293b7f40fe44edbe4cc", "asm": "30450221009d7ba2d34bab16972289598b197efa2ec7eefe519e9803ccc892f35a3dacda290220331da53d7f3974763eb758f818582a97db440334f354b9d49f4bc549873916a9[ALL] 03dac39edffdc9e66596784eb5d25c3cdc040e7ab0b38b6293b7f40fe44edbe4cc"}, "vout": 0, "txid": "da7947464aeb3ce0a1a1418dcf3c55d5e657019585523cc5ddb668857d27974f"}], "txid": "4cb437c4dbabfe17c61a0b4ee99499cd942f30c52faff8e57c7f7747e17bb953", "blocktime": 1537870928, "version": 1, "confirmations": 11513, "time": 1537870928, "locktime": 0, "vsize": 284, "size": 284}