{"hash": "54f8bab7484098dced585aa03252c4a1fb9a093c557fbf9bb1e733725b5d3b47", "blockhash": "00000000000000000017f5eb5941039fbcee6240d03bc1f2f8e35350df66a1d8", "vout": [{"scriptPubKey": {"reqSigs": 1, "hex": "76a914612111b00cc26fdecf660a855f25857db336f94788ac", "addresses": ["19raAHj7v2zq2MfhsDFjJmdbzxKi5Hwokn"], "asm": "OP_DUP OP_HASH160 612111b00cc26fdecf660a855f25857db336f947 OP_EQUALVERIFY OP_CHECKSIG", "type": "pubkeyhash"}, "value": 0.015444, "n": 0}, {"scriptPubKey": {"reqSigs": 1, "hex": "0014f48b7bf8639b6a7f665de279ab9a239a87121e29", "addresses": ["bc1q7j9hh7rrnd487ejaufu6hx3rn2r3y83fgdvltf"], "asm": "0 f48b7bf8639b6a7f665de279ab9a239a87121e29", "type": "witness_v0_keyhash"}, "value": 0.00055097, "n": 1}], "hex": "01000000000101929186c176c16fefe8b17c001e16d9908e2caf2f69ae8c21f03d692072bfade80100000017160014e4acc1197f192f1acd111fd02c91f424414600beffffffff02d0901700000000001976a914612111b00cc26fdecf660a855f25857db336f94788ac39d7000000000000160014f48b7bf8639b6a7f665de279ab9a239a87121e2902483045022100beedcfab290569002a238828abc5a519f8b046eea4ae9c477c85e6be0a9125b802203e0da0acd45667a2703d07a2c4137c0a735ac5a4b68d53665df815a0e1bd2618012103f992f9ecc1e04871571932172c166d224ba076c513f01c8dd66f3cc18faa013a00000000", "vin": [{"txinwitness": ["3045022100beedcfab290569002a238828abc5a519f8b046eea4ae9c477c85e6be0a9125b802203e0da0acd45667a2703d07a2c4137c0a735ac5a4b68d53665df815a0e1bd261801", "03f992f9ecc1e04871571932172c166d224ba076c513f01c8dd66f3cc18faa013a"], "sequence": 4294967295, "scriptSig": {"hex": "160014e4acc1197f192f1acd111fd02c91f424414600be", "asm": "0014e4acc1197f192f1acd111fd02c91f424414600be"}, "vout": 1, "txid": "e8adbf7220693df0218cae692faf2c8e90d9161e007cb1e8ef6fc176c1869192"}], "txid": "4cb555bf3c0ea267764f60a3201d26344f59aa7e3fd69be854d0d0db56ec2e49", "blocktime": 1537874412, "version": 1, "confirmations": 11467, "time": 1537874412, "locktime": 0, "vsize": 167, "size": 249}