{"hash": "4cc3bba340016c6c944f6b0ffda0969da6f14daea5913ee69c6604069b589acf", "blockhash": "0000000000000000000baef3f32e3676a92c3b2e5da21b426e4f302fc371ce76", "vout": [{"scriptPubKey": {"type": "nulldata", "hex": "6a4c500000783500013bc97412f834aee962e8564f27b7256b4774d339f6019d6ddc0f1b8ff11788667ed6834b1ca9f5f6e90a8b6dfa855baa202a06158e6013eaa6cebc9a9526289ac0f6612cd74e33776ee4", "asm": "OP_RETURN 0000783500013bc97412f834aee962e8564f27b7256b4774d339f6019d6ddc0f1b8ff11788667ed6834b1ca9f5f6e90a8b6dfa855baa202a06158e6013eaa6cebc9a9526289ac0f6612cd74e33776ee4"}, "value": 0.0, "n": 0}, {"scriptPubKey": {"reqSigs": 1, "hex": "76a914a0638f42fa9b9cb04c70589ef13c3fdfcc14838588ac", "addresses": ["1Fd4PDYSc1QM2a3qVscFAcjCAcfMSnfcd2"], "asm": "OP_DUP OP_HASH160 a0638f42fa9b9cb04c70589ef13c3fdfcc148385 OP_EQUALVERIFY OP_CHECKSIG", "type": "pubkeyhash"}, "value": 0.0219164, "n": 1}], "hex": "010000000186d8ac40b423e88231e24ecd0749f234d57a15ebf8bbaebb71814222a0b5e4ac000000006a473044022076fffaec409f664370d1fa68f8e5e4066ee20161e2df3682dcfbbea84352909a02200282f2b2a888e59ff26a5a63a25cecf4f7f1866e21131ff102dbdc8a0332f9a201210274f75193cb35a9a4d1cfcd051af9a14ea030708bf812308c96f5718fdb187dacffffffff020000000000000000536a4c500000783500013bc97412f834aee962e8564f27b7256b4774d339f6019d6ddc0f1b8ff11788667ed6834b1ca9f5f6e90a8b6dfa855baa202a06158e6013eaa6cebc9a9526289ac0f6612cd74e33776ee418712100000000001976a914a0638f42fa9b9cb04c70589ef13c3fdfcc14838588ac00000000", "vin": [{"sequence": 4294967295, "scriptSig": {"hex": "473044022076fffaec409f664370d1fa68f8e5e4066ee20161e2df3682dcfbbea84352909a02200282f2b2a888e59ff26a5a63a25cecf4f7f1866e21131ff102dbdc8a0332f9a201210274f75193cb35a9a4d1cfcd051af9a14ea030708bf812308c96f5718fdb187dac", "asm": "3044022076fffaec409f664370d1fa68f8e5e4066ee20161e2df3682dcfbbea84352909a02200282f2b2a888e59ff26a5a63a25cecf4f7f1866e21131ff102dbdc8a0332f9a2[ALL] 0274f75193cb35a9a4d1cfcd051af9a14ea030708bf812308c96f5718fdb187dac"}, "vout": 0, "txid": "ace4b5a022428171bbaebbf8eb157ad534f24907cd4ee23182e823b440acd886"}], "txid": "4cc3bba340016c6c944f6b0ffda0969da6f14daea5913ee69c6604069b589acf", "blocktime": 1537876114, "version": 1, "confirmations": 11460, "time": 1537876114, "locktime": 0, "vsize": 283, "size": 283}