{"hash": "4cc714484d1a2f31929a3ff83481166e486608f1186ce60d6036fd7b1fe05e5e", "blockhash": "0000000000000000001f76057863aec43deb6fa401d9628bb513d65a8098bfab", "vout": [{"scriptPubKey": {"reqSigs": 1, "hex": "76a914284db767a9c2694dd5c96197af0ea204c9aadf4588ac", "addresses": ["14g78WJFTJt5B7kfyf4JiK7aEy6AovuNcW"], "asm": "OP_DUP OP_HASH160 284db767a9c2694dd5c96197af0ea204c9aadf45 OP_EQUALVERIFY OP_CHECKSIG", "type": "pubkeyhash"}, "value": 0.01667669, "n": 0}, {"scriptPubKey": {"reqSigs": 1, "hex": "76a9144604dc83860ad6767226d0eb6255dcf9a1597e7888ac", "addresses": ["17PE8CmSM4j59Z6SoLfZTx6K1ojpiJx2dQ"], "asm": "OP_DUP OP_HASH160 4604dc83860ad6767226d0eb6255dcf9a1597e78 OP_EQUALVERIFY OP_CHECKSIG", "type": "pubkeyhash"}, "value": 0.04073047, "n": 1}], "hex": "01000000026f7b66e8ec228079b143dcf1d93fd269cc2d2fc445fee70386bad0bb3982ed650a0000006b483045022100daf0c919dc2bf52978df9153b94ee98efc1238cb111b241a8c198c115e84de8d02202f6c87b91710fe6aa40fd2b6dde314781e90059eee1693d730b4c248b36a9e3b012102c64d8cd5a3a703bd194011400db6620af1f3f07d9b35e838f2073d331b46329bffffffff352352aaa0bc5b9516111b36e9a266c6f828ff1e4e28b153460fbeaa22967a8f000000006a47304402203177c26c0a0e67e31b2d4594e964360f2baac136ccadefc83e7adda25764c35a02201a540e57f91863c0d1e674a4613f0bcd75d9770050246688af2ee9464596ba44012102e9e235795a447438f1abeea70f70fe05f62402edd01f9368f622bfb54647af8dffffffff0255721900000000001976a914284db767a9c2694dd5c96197af0ea204c9aadf4588ac57263e00000000001976a9144604dc83860ad6767226d0eb6255dcf9a1597e7888ac00000000", "vin": [{"sequence": 4294967295, "scriptSig": {"hex": "483045022100daf0c919dc2bf52978df9153b94ee98efc1238cb111b241a8c198c115e84de8d02202f6c87b91710fe6aa40fd2b6dde314781e90059eee1693d730b4c248b36a9e3b012102c64d8cd5a3a703bd194011400db6620af1f3f07d9b35e838f2073d331b46329b", "asm": "3045022100daf0c919dc2bf52978df9153b94ee98efc1238cb111b241a8c198c115e84de8d02202f6c87b91710fe6aa40fd2b6dde314781e90059eee1693d730b4c248b36a9e3b[ALL] 02c64d8cd5a3a703bd194011400db6620af1f3f07d9b35e838f2073d331b46329b"}, "vout": 10, "txid": "65ed8239bbd0ba8603e7fe45c42f2dcc69d23fd9f1dc43b1798022ece8667b6f"}, {"sequence": 4294967295, "scriptSig": {"hex": "47304402203177c26c0a0e67e31b2d4594e964360f2baac136ccadefc83e7adda25764c35a02201a540e57f91863c0d1e674a4613f0bcd75d9770050246688af2ee9464596ba44012102e9e235795a447438f1abeea70f70fe05f62402edd01f9368f622bfb54647af8d", "asm": "304402203177c26c0a0e67e31b2d4594e964360f2baac136ccadefc83e7adda25764c35a02201a540e57f91863c0d1e674a4613f0bcd75d9770050246688af2ee9464596ba44[ALL] 02e9e235795a447438f1abeea70f70fe05f62402edd01f9368f622bfb54647af8d"}, "vout": 0, "txid": "8f7a9622aabe0f4653b1284e1eff28f8c666a2e9361b1116955bbca0aa522335"}], "txid": "4cc714484d1a2f31929a3ff83481166e486608f1186ce60d6036fd7b1fe05e5e", "blocktime": 1537873891, "version": 1, "confirmations": 11478, "time": 1537873891, "locktime": 0, "vsize": 373, "size": 373}