{"hash": "4ccb278ca12e6f7f158197fa57802d6f17202155c4a2a6eae85ae696226ba9cd", "blockhash": "0000000000000000001f0ddff1eddb255c1121bcd4da4f1bc9a0da00cae72433", "vout": [{"scriptPubKey": {"reqSigs": 1, "hex": "76a9142c63f292e78f74ebd528bedcc5aa2b60b982428988ac", "addresses": ["153iTvGJPKnWJ5sYFkV2waC5G21UL6n6r7"], "asm": "OP_DUP OP_HASH160 2c63f292e78f74ebd528bedcc5aa2b60b9824289 OP_EQUALVERIFY OP_CHECKSIG", "type": "pubkeyhash"}, "value": 0.017889, "n": 0}, {"scriptPubKey": {"reqSigs": 1, "hex": "76a9144c5ee1b573664e9be9622ff9690556ac5b3081e488ac", "addresses": ["17xp25G8W4wMsNbpkwua7HNZNrMHxAD6kd"], "asm": "OP_DUP OP_HASH160 4c5ee1b573664e9be9622ff9690556ac5b3081e4 OP_EQUALVERIFY OP_CHECKSIG", "type": "pubkeyhash"}, "value": 0.421713, "n": 1}], "hex": "0100000002b6cd468eec777511bfbf963fa4a53eec68ce5833141a3146855e48cbb999667b010000006b483045022100f36a65d5ff93e69ea2575bb691bd8a306b1e17ac84aac5c9f00259e091b9ab730220423e97d9e8184acb642f551637d7dd8157a7708fadbee743034002a38a2c8531012102210db806eafe4082e6036e51d02d9be82118540c94c9f53efda4742f94d885c4ffffffff5849ca988f7463fe03c2a3c3c2f3afc4dc2ec1d24d72cfbc24d736657251c18c010000006b483045022100e82c57db773e50272239c3e9a2ad3210d89c21486b568e2e0f2dc04d2005e15302201e78e7873e64f83f8e1ff7a78616d8427f57f7ed5358e6fe9b8423d4f71edddb01210230a8bbddd49327062a1866d0a86b2f23139e3b8e09f9174d954c27493aa5271bffffffff02e44b1b00000000001976a9142c63f292e78f74ebd528bedcc5aa2b60b982428988aca47b8302000000001976a9144c5ee1b573664e9be9622ff9690556ac5b3081e488ac00000000", "vin": [{"sequence": 4294967295, "scriptSig": {"hex": "483045022100f36a65d5ff93e69ea2575bb691bd8a306b1e17ac84aac5c9f00259e091b9ab730220423e97d9e8184acb642f551637d7dd8157a7708fadbee743034002a38a2c8531012102210db806eafe4082e6036e51d02d9be82118540c94c9f53efda4742f94d885c4", "asm": "3045022100f36a65d5ff93e69ea2575bb691bd8a306b1e17ac84aac5c9f00259e091b9ab730220423e97d9e8184acb642f551637d7dd8157a7708fadbee743034002a38a2c8531[ALL] 02210db806eafe4082e6036e51d02d9be82118540c94c9f53efda4742f94d885c4"}, "vout": 1, "txid": "7b6699b9cb485e8546311a143358ce68ec3ea5a43f96bfbf117577ec8e46cdb6"}, {"sequence": 4294967295, "scriptSig": {"hex": "483045022100e82c57db773e50272239c3e9a2ad3210d89c21486b568e2e0f2dc04d2005e15302201e78e7873e64f83f8e1ff7a78616d8427f57f7ed5358e6fe9b8423d4f71edddb01210230a8bbddd49327062a1866d0a86b2f23139e3b8e09f9174d954c27493aa5271b", "asm": "3045022100e82c57db773e50272239c3e9a2ad3210d89c21486b568e2e0f2dc04d2005e15302201e78e7873e64f83f8e1ff7a78616d8427f57f7ed5358e6fe9b8423d4f71edddb[ALL] 0230a8bbddd49327062a1866d0a86b2f23139e3b8e09f9174d954c27493aa5271b"}, "vout": 1, "txid": "8cc151726536d724bccf724dd2c12edcc4aff3c2c3a3c203fe63748f98ca4958"}], "txid": "4ccb278ca12e6f7f158197fa57802d6f17202155c4a2a6eae85ae696226ba9cd", "blocktime": 1537872018, "version": 1, "confirmations": 11489, "time": 1537872018, "locktime": 0, "vsize": 374, "size": 374}