{"hash": "4cccfdf39f442ad4e953e6d9c755b03083a82ad04f58bb8bd3d03c9285523947", "blockhash": "0000000000000000000dcc0f55137456b1a82d3642486a52398922ac4d620174", "vout": [{"scriptPubKey": {"reqSigs": 1, "hex": "76a914007d9a74adf550211c1037b96c9b88af0396d91488ac", "addresses": ["113bU5FSrdwABCqmMFGLMcGqiJJUNfRHy5"], "asm": "OP_DUP OP_HASH160 007d9a74adf550211c1037b96c9b88af0396d914 OP_EQUALVERIFY OP_CHECKSIG", "type": "pubkeyhash"}, "value": 0.00605875, "n": 0}, {"scriptPubKey": {"type": "nulldata", "hex": "6a4c50000077720001a8d80c7dcecb5eb2c680378986aeaeacb577c031fc3a016b46dc7dc7d0967f080169445d6a745281f4863d1dda005baa090d0613e075cadb814c1d100759d4ba30d2c37bb011d97e02cf", "asm": "OP_RETURN 000077720001a8d80c7dcecb5eb2c680378986aeaeacb577c031fc3a016b46dc7dc7d0967f080169445d6a745281f4863d1dda005baa090d0613e075cadb814c1d100759d4ba30d2c37bb011d97e02cf"}, "value": 0.0, "n": 1}], "hex": "0100000001776c48bdd3a063e276e9e158c1d51a062acd5887835c08cb3bf35f8aff9bfca8010000006b483045022100baad643cd0faa3e08498dcc1959502ccf52b2a5afe88bf21f3beb43694c24d1c022018357375c51248fad2fa4825afbb97d1c2db83bfa904115acdfe547bc82bb21e012103aea0c29265f977e57150014222344cb3daf4b2510e305cdb8574c6beb03ce08bffffffff02b33e0900000000001976a914007d9a74adf550211c1037b96c9b88af0396d91488ac0000000000000000536a4c50000077720001a8d80c7dcecb5eb2c680378986aeaeacb577c031fc3a016b46dc7dc7d0967f080169445d6a745281f4863d1dda005baa090d0613e075cadb814c1d100759d4ba30d2c37bb011d97e02cf00000000", "vin": [{"sequence": 4294967295, "scriptSig": {"hex": "483045022100baad643cd0faa3e08498dcc1959502ccf52b2a5afe88bf21f3beb43694c24d1c022018357375c51248fad2fa4825afbb97d1c2db83bfa904115acdfe547bc82bb21e012103aea0c29265f977e57150014222344cb3daf4b2510e305cdb8574c6beb03ce08b", "asm": "3045022100baad643cd0faa3e08498dcc1959502ccf52b2a5afe88bf21f3beb43694c24d1c022018357375c51248fad2fa4825afbb97d1c2db83bfa904115acdfe547bc82bb21e[ALL] 03aea0c29265f977e57150014222344cb3daf4b2510e305cdb8574c6beb03ce08b"}, "vout": 1, "txid": "a8fc9bff8a5ff33bcb085c838758cd2a061ad5c158e1e976e263a0d3bd486c77"}], "txid": "4cccfdf39f442ad4e953e6d9c755b03083a82ad04f58bb8bd3d03c9285523947", "blocktime": 1537870268, "version": 1, "confirmations": 11517, "time": 1537870268, "locktime": 0, "vsize": 284, "size": 284}