{"hash": "4cce352371d13d49fb4e6d390986144b08c95691bbfb91419a93cf115413ab29", "blockhash": "0000000000000000001f0ddff1eddb255c1121bcd4da4f1bc9a0da00cae72433", "vout": [{"scriptPubKey": {"reqSigs": 1, "hex": "a9146415b48ebde67b70ae00d2bd31243d8e8bcffa6287", "addresses": ["3ApDVqYFPJkSEMozwjPp3QgvRowN4sc5U6"], "asm": "OP_HASH160 6415b48ebde67b70ae00d2bd31243d8e8bcffa62 OP_EQUAL", "type": "scripthash"}, "value": 0.00051, "n": 0}, {"scriptPubKey": {"reqSigs": 1, "hex": "76a914089f43559c8c4c956b782d55b22192a67001cd0288ac", "addresses": ["1nbCKmfZ82wxioh7TkmtFCSq2wbDTMScD"], "asm": "OP_DUP OP_HASH160 089f43559c8c4c956b782d55b22192a67001cd02 OP_EQUALVERIFY OP_CHECKSIG", "type": "pubkeyhash"}, "value": 0.00111395, "n": 1}], "hex": "0100000001e15ff9e084ef9d5831b48aa8f4c0046d817173db9ba69bf3ee154e05632ff799010000006b483045022100dac4b630699e14132560e1d3f754b7f1a8aa62003f9a120f9dc71ece0b1e3395022026f94cd853cc51afea4a0e921e3afebd6f834df8c5f25a077784d0cde31b2e5b012103c2432d29c53386a95b3c8e92c4503627eb27d59de60585b3af91112a621bb8cbffffffff0238c700000000000017a9146415b48ebde67b70ae00d2bd31243d8e8bcffa628723b30100000000001976a914089f43559c8c4c956b782d55b22192a67001cd0288ac00000000", "vin": [{"sequence": 4294967295, "scriptSig": {"hex": "483045022100dac4b630699e14132560e1d3f754b7f1a8aa62003f9a120f9dc71ece0b1e3395022026f94cd853cc51afea4a0e921e3afebd6f834df8c5f25a077784d0cde31b2e5b012103c2432d29c53386a95b3c8e92c4503627eb27d59de60585b3af91112a621bb8cb", "asm": "3045022100dac4b630699e14132560e1d3f754b7f1a8aa62003f9a120f9dc71ece0b1e3395022026f94cd853cc51afea4a0e921e3afebd6f834df8c5f25a077784d0cde31b2e5b[ALL] 03c2432d29c53386a95b3c8e92c4503627eb27d59de60585b3af91112a621bb8cb"}, "vout": 1, "txid": "99f72f63054e15eef39ba69bdb7371816d04c0f4a88ab431589def84e0f95fe1"}], "txid": "4cce352371d13d49fb4e6d390986144b08c95691bbfb91419a93cf115413ab29", "blocktime": 1537872018, "version": 1, "confirmations": 11489, "time": 1537872018, "locktime": 0, "vsize": 224, "size": 224}