{"hash": "4cd134eec290ccd326f4f4c5de4176eb85f95d5caec7f1cbd16601dc0b13f86f", "blockhash": "000000000000000000022b45ed06c6f4ccd3cf7fb5ba4856ebd2e58215665228", "vout": [{"scriptPubKey": {"reqSigs": 1, "hex": "76a914774ecaeff02b74c80ffc8be8d91aca227796846188ac", "addresses": ["1BsqoSegga4Zv7bRds8Ejkgjiy4zcjy21C"], "asm": "OP_DUP OP_HASH160 774ecaeff02b74c80ffc8be8d91aca2277968461 OP_EQUALVERIFY OP_CHECKSIG", "type": "pubkeyhash"}, "value": 0.00054531, "n": 0}, {"scriptPubKey": {"reqSigs": 1, "hex": "a914a82d1c0272091019363dc3f1baa3d5c5ce0c3b8887", "addresses": ["3H2FV2b3kFLYAjJ4ntgijyUFABimrBbeLt"], "asm": "OP_HASH160 a82d1c0272091019363dc3f1baa3d5c5ce0c3b88 OP_EQUAL", "type": "scripthash"}, "value": 0.15806595, "n": 1}], "hex": "01000000013735c5ba033f8f7b8429c64e27255b08c5526c04162faf847554dce866b01e1b000000006a473044022019b2a38d8d9e408f6527b0475ccb19cd8ea0d9472891c09cb461527c8f8e671b02204a862aecc14ff46470297f9f7e8092424b4706901f44e79ccc48048b44ce1dec012103d8ddb9c6ca388e375da10c57152f59c15ed615b2c2fdcb66694be0ea925274c8ffffffff0203d50000000000001976a914774ecaeff02b74c80ffc8be8d91aca227796846188ac8330f1000000000017a914a82d1c0272091019363dc3f1baa3d5c5ce0c3b888700000000", "vin": [{"sequence": 4294967295, "scriptSig": {"hex": "473044022019b2a38d8d9e408f6527b0475ccb19cd8ea0d9472891c09cb461527c8f8e671b02204a862aecc14ff46470297f9f7e8092424b4706901f44e79ccc48048b44ce1dec012103d8ddb9c6ca388e375da10c57152f59c15ed615b2c2fdcb66694be0ea925274c8", "asm": "3044022019b2a38d8d9e408f6527b0475ccb19cd8ea0d9472891c09cb461527c8f8e671b02204a862aecc14ff46470297f9f7e8092424b4706901f44e79ccc48048b44ce1dec[ALL] 03d8ddb9c6ca388e375da10c57152f59c15ed615b2c2fdcb66694be0ea925274c8"}, "vout": 0, "txid": "1b1eb066e8dc547584af2f16046c52c5085b25274ec629847b8f3f03bac53537"}], "txid": "4cd134eec290ccd326f4f4c5de4176eb85f95d5caec7f1cbd16601dc0b13f86f", "blocktime": 1537869901, "version": 1, "confirmations": 11523, "time": 1537869901, "locktime": 0, "vsize": 223, "size": 223}