{"hash": "4cd6865b48f8eade7478f4f25aa1f61f1dfe9a92c6ca81ecd5c41116aae9ffca", "blockhash": "0000000000000000000e13cef7c366c0283d82e591d1acd082e914b08063cdf1", "vout": [{"scriptPubKey": {"reqSigs": 1, "hex": "a9148d2acae9351b99cc3b653ea90a87e19a0447855487", "addresses": ["3EZSTsifrm2zorBLj3sh4FzsTQA9hagXmv"], "asm": "OP_HASH160 8d2acae9351b99cc3b653ea90a87e19a04478554 OP_EQUAL", "type": "scripthash"}, "value": 0.00858, "n": 0}, {"scriptPubKey": {"reqSigs": 1, "hex": "0014ff7f294b78e6169f325bf2f70fb56437622f391e", "addresses": ["bc1qlaljjjmcuctf7vjm7tmsldtyxa3z7wg7untj92"], "asm": "0 ff7f294b78e6169f325bf2f70fb56437622f391e", "type": "witness_v0_keyhash"}, "value": 0.00390822, "n": 1}], "hex": "01000000018e91b7b61b802aac40ce7c9b8fee3596380fde21b99260334a53603a2c839bc9000000006a47304402203b54e3af2829892e822e2b9d2d61f88268a5f5d661eb0d146e154c52df280c3902205ec58622d222d7861f841ffcece607a1316421148fb3b681006625f953e35f8c0121029b8c86b213d74c23bc9e5232d499ce9aa189ba650aec7dac7ff7ea9f43056927ffffffff0290170d000000000017a9148d2acae9351b99cc3b653ea90a87e19a0447855487a6f6050000000000160014ff7f294b78e6169f325bf2f70fb56437622f391e00000000", "vin": [{"sequence": 4294967295, "scriptSig": {"hex": "47304402203b54e3af2829892e822e2b9d2d61f88268a5f5d661eb0d146e154c52df280c3902205ec58622d222d7861f841ffcece607a1316421148fb3b681006625f953e35f8c0121029b8c86b213d74c23bc9e5232d499ce9aa189ba650aec7dac7ff7ea9f43056927", "asm": "304402203b54e3af2829892e822e2b9d2d61f88268a5f5d661eb0d146e154c52df280c3902205ec58622d222d7861f841ffcece607a1316421148fb3b681006625f953e35f8c[ALL] 029b8c86b213d74c23bc9e5232d499ce9aa189ba650aec7dac7ff7ea9f43056927"}, "vout": 0, "txid": "c99b832c3a60534a336092b921de0f389635ee8f9b7cce40ac2a801bb6b7918e"}], "txid": "4cd6865b48f8eade7478f4f25aa1f61f1dfe9a92c6ca81ecd5c41116aae9ffca", "blocktime": 1537871767, "version": 1, "confirmations": 11495, "time": 1537871767, "locktime": 0, "vsize": 220, "size": 220}