{"hash": "560a2883e6ad3cd5215f48f76de1fca0e0204310c55b9f712673f896df93c098", "blockhash": "0000000000000000000e13cef7c366c0283d82e591d1acd082e914b08063cdf1", "vout": [{"scriptPubKey": {"reqSigs": 1, "hex": "a914bcee80783d79bc3a6873e89d2719570f13042d4587", "addresses": ["3Juzg1Hz1PsSLjqC33bVv2d9xEBvQNdNha"], "asm": "OP_HASH160 bcee80783d79bc3a6873e89d2719570f13042d45 OP_EQUAL", "type": "scripthash"}, "value": 0.01002355, "n": 0}, {"scriptPubKey": {"reqSigs": 1, "hex": "76a9145d0af442a21f4c19f5aa3eb29273694ca368ddf788ac", "addresses": ["19UxxwwrVUmBcmLPwgHRinejh7fXu3kekw"], "asm": "OP_DUP OP_HASH160 5d0af442a21f4c19f5aa3eb29273694ca368ddf7 OP_EQUALVERIFY OP_CHECKSIG", "type": "pubkeyhash"}, "value": 0.0046456, "n": 1}], "hex": "020000000001024f718e9a9de6d9eb8fd67fa61b78ee5f55fa5b1d92c7415ccd6adab87dd79ca2010000001716001479b3fd2f6a6bebb55fd51033296d8fbcb2905cb5feffffffd6305eeb601fcebc1f977b0a0cfe92869d1ba92a5f032919b61a49327d0d304c00000000171600149ec519652d44499d0aad4926e310be3bbba89d8efeffffff02734b0f000000000017a914bcee80783d79bc3a6873e89d2719570f13042d4587b0160700000000001976a9145d0af442a21f4c19f5aa3eb29273694ca368ddf788ac02473044022071ed14b57a1eca798b9f179a2f3a340a54193e77aeb7dc3f7b92169072f05c2102207de5d485172d6eb593ac8a0ecc4a07b72a6f99dc9cf36b85f737c9b267747d5c012102f5f23e208ffe3ada71a98d361725c8cd1c8cbff76cf430881cdf1b187c72bfef02483045022100f7ab3cf358e13f3e73dc9827c677bc7a9d0f8107b85aa16a3acc27b29a840cfb022076418dd7f1026eecf6e4430c50d82d4884351e963b5c3c7ca6cb5d83a17c81c40121039a8dcbbdd53b4341b09608e3a62c9257895946276abfc4a2af66a8c49b4a514c10490800", "vin": [{"txinwitness": ["3044022071ed14b57a1eca798b9f179a2f3a340a54193e77aeb7dc3f7b92169072f05c2102207de5d485172d6eb593ac8a0ecc4a07b72a6f99dc9cf36b85f737c9b267747d5c01", "02f5f23e208ffe3ada71a98d361725c8cd1c8cbff76cf430881cdf1b187c72bfef"], "sequence": 4294967294, "scriptSig": {"hex": "16001479b3fd2f6a6bebb55fd51033296d8fbcb2905cb5", "asm": "001479b3fd2f6a6bebb55fd51033296d8fbcb2905cb5"}, "vout": 1, "txid": "a29cd77db8da6acd5c41c7921d5bfa555fee781ba67fd68febd9e69d9a8e714f"}, {"txinwitness": ["3045022100f7ab3cf358e13f3e73dc9827c677bc7a9d0f8107b85aa16a3acc27b29a840cfb022076418dd7f1026eecf6e4430c50d82d4884351e963b5c3c7ca6cb5d83a17c81c401", "039a8dcbbdd53b4341b09608e3a62c9257895946276abfc4a2af66a8c49b4a514c"], "sequence": 4294967294, "scriptSig": {"hex": "1600149ec519652d44499d0aad4926e310be3bbba89d8e", "asm": "00149ec519652d44499d0aad4926e310be3bbba89d8e"}, "vout": 0, "txid": "4c300d7d32491ab61929035f2aa91b9d8692fe0c0a7b971fbcce1f60eb5e30d6"}], "txid": "4cd7ecf27271fd47d8ec2244839404527bbcf669de47288a7abef0451c0894fb", "blocktime": 1537871767, "version": 2, "confirmations": 11495, "time": 1537871767, "locktime": 542992, "vsize": 259, "size": 421}