{"hash": "9d210c0650b607ac6164c9a920b8e9a9b054724b2c0ca1523e6235fca24347f8", "blockhash": "0000000000000000000e13cef7c366c0283d82e591d1acd082e914b08063cdf1", "vout": [{"scriptPubKey": {"reqSigs": 1, "hex": "76a9141ad3cc8f2f831fbd45e748e318f1af9166e9a74b88ac", "addresses": ["13SrJ3ZtL28qJnCrXLyAgpBNdV6QgukEQe"], "asm": "OP_DUP OP_HASH160 1ad3cc8f2f831fbd45e748e318f1af9166e9a74b OP_EQUALVERIFY OP_CHECKSIG", "type": "pubkeyhash"}, "value": 0.00156453, "n": 0}, {"scriptPubKey": {"reqSigs": 1, "hex": "a914507d916f6140fe0bc50de2d864db4f592383314b87", "addresses": ["392cQWq9apcJHzJg4tQEj4sSpvvPrhmxQM"], "asm": "OP_HASH160 507d916f6140fe0bc50de2d864db4f592383314b OP_EQUAL", "type": "scripthash"}, "value": 0.53259362, "n": 1}], "hex": "01000000000101357a4c48aed9c962588032b265abf57436d208e512f49d7b9eab56c2ed22cef001000000171600148af9bef3099aa17550b05ca8e3659d1694152553ffffffff0225630200000000001976a9141ad3cc8f2f831fbd45e748e318f1af9166e9a74b88ac62ac2c030000000017a914507d916f6140fe0bc50de2d864db4f592383314b8702483045022100a8b00fea36e6a1bdfd895ef3de2f9bf0356384c21f598d114b63c00c591e910d0220520c2085b52c6e775b5e1bf6c785b089b30015d52754963ff957d4fdc68f510501210202be570a19abb80bcd8507532aa90040c59cc7227ce00bd12b44d880d6501b8600000000", "vin": [{"txinwitness": ["3045022100a8b00fea36e6a1bdfd895ef3de2f9bf0356384c21f598d114b63c00c591e910d0220520c2085b52c6e775b5e1bf6c785b089b30015d52754963ff957d4fdc68f510501", "0202be570a19abb80bcd8507532aa90040c59cc7227ce00bd12b44d880d6501b86"], "sequence": 4294967295, "scriptSig": {"hex": "1600148af9bef3099aa17550b05ca8e3659d1694152553", "asm": "00148af9bef3099aa17550b05ca8e3659d1694152553"}, "vout": 1, "txid": "f0ce22edc256ab9e7b9df412e508d23674f5ab65b232805862c9d9ae484c7a35"}], "txid": "4cd945dad15dc10ad2e02bffe97051b24ebb2892c7b34b380ab8b503cf8a6d00", "blocktime": 1537871767, "version": 1, "confirmations": 11495, "time": 1537871767, "locktime": 0, "vsize": 168, "size": 250}