{"hash": "4cdb7304b9a9255d0619c76cda80fda0b76ea838671b3234403486addba5b960", "blockhash": "0000000000000000001cda96e906b7601b7a6fb1a3b62bca570a9e5d8f4b3de1", "vout": [{"scriptPubKey": {"reqSigs": 1, "hex": "76a914a25dec4d0011064ef106a983c39c7a540699f22088ac", "addresses": ["1FoWyxwPXuj4C6abqwhjDWdz6D4PZgYRjA"], "asm": "OP_DUP OP_HASH160 a25dec4d0011064ef106a983c39c7a540699f220 OP_EQUALVERIFY OP_CHECKSIG", "type": "pubkeyhash"}, "value": 0.01990376, "n": 0}, {"scriptPubKey": {"type": "nulldata", "hex": "6a146f6d6e69000000000000001f0000005d21dba000", "asm": "OP_RETURN 6f6d6e69000000000000001f0000005d21dba000"}, "value": 0.0, "n": 1}, {"scriptPubKey": {"reqSigs": 1, "hex": "76a914323743d64bd348d52e7b2258bd6d9884ba5858d788ac", "addresses": ["15aWzUGvRLFT61phtAECV6c8NgbVqkfdAj"], "asm": "OP_DUP OP_HASH160 323743d64bd348d52e7b2258bd6d9884ba5858d7 OP_EQUALVERIFY OP_CHECKSIG", "type": "pubkeyhash"}, "value": 5.46e-06, "n": 2}], "hex": "0100000001203aadc7d36e7be6f5237fadf09e2353a18c8ca44a4a0dec0428647179ca723b010000006a47304402205d41a333cc057b02780030401450c888c64efb7a0410d6d005a9288b593f4c1702206e0edf818721a9f52ed0ab8783dca6519ea0f3a9b20070e54254ecf25e920282012103da5bac7b36d5aa38f531c6b9601e21bb598a4b6716ebed38b009a55dabde9440feffffff03e85e1e00000000001976a914a25dec4d0011064ef106a983c39c7a540699f22088ac0000000000000000166a146f6d6e69000000000000001f0000005d21dba00022020000000000001976a914323743d64bd348d52e7b2258bd6d9884ba5858d788ac13490800", "vin": [{"sequence": 4294967294, "scriptSig": {"hex": "47304402205d41a333cc057b02780030401450c888c64efb7a0410d6d005a9288b593f4c1702206e0edf818721a9f52ed0ab8783dca6519ea0f3a9b20070e54254ecf25e920282012103da5bac7b36d5aa38f531c6b9601e21bb598a4b6716ebed38b009a55dabde9440", "asm": "304402205d41a333cc057b02780030401450c888c64efb7a0410d6d005a9288b593f4c1702206e0edf818721a9f52ed0ab8783dca6519ea0f3a9b20070e54254ecf25e920282[ALL] 03da5bac7b36d5aa38f531c6b9601e21bb598a4b6716ebed38b009a55dabde9440"}, "vout": 1, "txid": "3b72ca7971642804ec0d4a4aa48c8ca153239ef0ad7f23f5e67b6ed3c7ad3a20"}], "txid": "4cdb7304b9a9255d0619c76cda80fda0b76ea838671b3234403486addba5b960", "blocktime": 1537873282, "version": 1, "confirmations": 11481, "time": 1537873282, "locktime": 542995, "vsize": 256, "size": 256}