{"hash": "4cebc28a402e888080c34a814a0cd1be479b708869fa8016f2834e91871195d2", "blockhash": "00000000000000000017f5eb5941039fbcee6240d03bc1f2f8e35350df66a1d8", "vout": [{"scriptPubKey": {"reqSigs": 1, "hex": "76a91486fb794d304829905ad8538cd6c5d128c2adaf7088ac", "addresses": ["1DJioQzJ6zC31xQCAUhEdA7W391d1eqmM9"], "asm": "OP_DUP OP_HASH160 86fb794d304829905ad8538cd6c5d128c2adaf70 OP_EQUALVERIFY OP_CHECKSIG", "type": "pubkeyhash"}, "value": 0.03210027, "n": 0}, {"scriptPubKey": {"reqSigs": 1, "hex": "76a91496d3d4ce06a85f51d77bc546d098d9d18285b93f88ac", "addresses": ["1EkW851bPa8yrn1QCHBZAo5R6eGZkmtwVG"], "asm": "OP_DUP OP_HASH160 96d3d4ce06a85f51d77bc546d098d9d18285b93f OP_EQUALVERIFY OP_CHECKSIG", "type": "pubkeyhash"}, "value": 0.05985678, "n": 1}], "hex": "0100000001a91995a32d65c092aea0a5e8a11b49aaf37ecef205107d2bcb00796642943340010000006a47304402202761efe887973a48ddbf61c754dca87ae3aca6185254fc2be644d442684f827b02203437a96b67d20301bf622383745e1d085004cf74bacad12c0873ca4f3c4673140121032926162fc249b2e6ff2264fe0cd4e80070edc5b500109a167abe61235458afd8fdffffff022bfb3000000000001976a91486fb794d304829905ad8538cd6c5d128c2adaf7088ac8e555b00000000001976a91496d3d4ce06a85f51d77bc546d098d9d18285b93f88ac00000000", "vin": [{"sequence": 4294967293, "scriptSig": {"hex": "47304402202761efe887973a48ddbf61c754dca87ae3aca6185254fc2be644d442684f827b02203437a96b67d20301bf622383745e1d085004cf74bacad12c0873ca4f3c4673140121032926162fc249b2e6ff2264fe0cd4e80070edc5b500109a167abe61235458afd8", "asm": "304402202761efe887973a48ddbf61c754dca87ae3aca6185254fc2be644d442684f827b02203437a96b67d20301bf622383745e1d085004cf74bacad12c0873ca4f3c467314[ALL] 032926162fc249b2e6ff2264fe0cd4e80070edc5b500109a167abe61235458afd8"}, "vout": 1, "txid": "40339442667900cb2b7d1005f2ce7ef3aa491ba1e8a5a0ae92c0652da39519a9"}], "txid": "4cebc28a402e888080c34a814a0cd1be479b708869fa8016f2834e91871195d2", "blocktime": 1537874412, "version": 1, "confirmations": 11467, "time": 1537874412, "locktime": 0, "vsize": 225, "size": 225}