{"hash": "4b9f837caddbe6ef6ba152fb153caf0e17ed2daa1a2ec19573a78882a9e3fd09", "blockhash": "0000000000000000001f76057863aec43deb6fa401d9628bb513d65a8098bfab", "vout": [{"scriptPubKey": {"reqSigs": 1, "hex": "76a91497fddf84d40876f6535c24374922d223de8c35be88ac", "addresses": ["1ErfAP3V5E6tpUs3kPRbxXfvftwTnfztur"], "asm": "OP_DUP OP_HASH160 97fddf84d40876f6535c24374922d223de8c35be OP_EQUALVERIFY OP_CHECKSIG", "type": "pubkeyhash"}, "value": 0.0123, "n": 0}, {"scriptPubKey": {"reqSigs": 1, "hex": "00145bd88989ef3e840466b173309ba3d12ecf43118f", "addresses": ["bc1qt0vgnz0086zqge43wvcfhg739m85xyv08rwwyq"], "asm": "0 5bd88989ef3e840466b173309ba3d12ecf43118f", "type": "witness_v0_keyhash"}, "value": 0.00279336, "n": 1}], "hex": "0100000000010183bb35bad04d737bfbb76a676d56cc64ad35fdea528deeb87b5e710799982c9f00000000171600145cfbf6e88507c03d5243b83009508eda359a91ffffffffff02b0c41200000000001976a91497fddf84d40876f6535c24374922d223de8c35be88ac28430400000000001600145bd88989ef3e840466b173309ba3d12ecf43118f02483045022100f4760c39451930dd0eb50ab97da0c31d5e9af5c5583cc4d33f01fdf26059225d022028c3ace98b2b05ca9ed2504d25d590f42c2c01ee840aab38ec6d212a2afe614501210268738958f4a461fe7fabfe7da9abe700ae28def3fbf0fe3467297d3b5143922f00000000", "vin": [{"txinwitness": ["3045022100f4760c39451930dd0eb50ab97da0c31d5e9af5c5583cc4d33f01fdf26059225d022028c3ace98b2b05ca9ed2504d25d590f42c2c01ee840aab38ec6d212a2afe614501", "0268738958f4a461fe7fabfe7da9abe700ae28def3fbf0fe3467297d3b5143922f"], "sequence": 4294967295, "scriptSig": {"hex": "1600145cfbf6e88507c03d5243b83009508eda359a91ff", "asm": "00145cfbf6e88507c03d5243b83009508eda359a91ff"}, "vout": 0, "txid": "9f2c989907715e7bb8ee8d52eafd35ad64cc566d676ab7fb7b734dd0ba35bb83"}], "txid": "4cec15c270f76b7efa8d65bef850363380c1ab1fc48f76983121e7b75965c864", "blocktime": 1537873891, "version": 1, "confirmations": 11478, "time": 1537873891, "locktime": 0, "vsize": 167, "size": 249}