{"hash": "4cee3108d4fc324940504565ac8330f23093740cc37944749decab1fd6949266", "blockhash": "0000000000000000001f0ddff1eddb255c1121bcd4da4f1bc9a0da00cae72433", "vout": [{"scriptPubKey": {"reqSigs": 1, "hex": "76a914ec5f48903e0fc68888d46af04f9159e910bee97088ac", "addresses": ["1NYpcgZyTjZJ5sCCeSuie9bNP2oCinf1EK"], "asm": "OP_DUP OP_HASH160 ec5f48903e0fc68888d46af04f9159e910bee970 OP_EQUALVERIFY OP_CHECKSIG", "type": "pubkeyhash"}, "value": 0.00329, "n": 0}, {"scriptPubKey": {"reqSigs": 1, "hex": "76a9145d4786f5d17146fe9f3be3b15efa790b3316aab988ac", "addresses": ["19WDXdusARMwe9WXSTfBFm28mwokVUfWFk"], "asm": "OP_DUP OP_HASH160 5d4786f5d17146fe9f3be3b15efa790b3316aab9 OP_EQUALVERIFY OP_CHECKSIG", "type": "pubkeyhash"}, "value": 0.01676004, "n": 1}], "hex": "0100000001c62cf2465baf9d41c649dad2210f9a6021a2c524b01f9075ec7670b4b8a083de010000006a47304402207389763e1e66dba7895dc1ee32c4136c19484a9c7c0eb3b6610c93b206bcf1b802203086f557aec2bb8759e29f1a29b06d1b652cffcc4f5813378774c81a73407bec012102d530ff31270a26cf961fdd700912128ac80d8a5d7cdd4cbdf7e7fd71ab371e00feffffff0228050500000000001976a914ec5f48903e0fc68888d46af04f9159e910bee97088ace4921900000000001976a9145d4786f5d17146fe9f3be3b15efa790b3316aab988ac11490800", "vin": [{"sequence": 4294967294, "scriptSig": {"hex": "47304402207389763e1e66dba7895dc1ee32c4136c19484a9c7c0eb3b6610c93b206bcf1b802203086f557aec2bb8759e29f1a29b06d1b652cffcc4f5813378774c81a73407bec012102d530ff31270a26cf961fdd700912128ac80d8a5d7cdd4cbdf7e7fd71ab371e00", "asm": "304402207389763e1e66dba7895dc1ee32c4136c19484a9c7c0eb3b6610c93b206bcf1b802203086f557aec2bb8759e29f1a29b06d1b652cffcc4f5813378774c81a73407bec[ALL] 02d530ff31270a26cf961fdd700912128ac80d8a5d7cdd4cbdf7e7fd71ab371e00"}, "vout": 1, "txid": "de83a0b8b47076ec75901fb024c5a221609a0f21d2da49c6419daf5b46f22cc6"}], "txid": "4cee3108d4fc324940504565ac8330f23093740cc37944749decab1fd6949266", "blocktime": 1537872018, "version": 1, "confirmations": 11489, "time": 1537872018, "locktime": 542993, "vsize": 225, "size": 225}