{"hash": "4cfa1177c744bedaf5de8c7e77b6913bf030f7b9be2c1f1a9cde5fd3ab205f67", "blockhash": "0000000000000000000baef3f32e3676a92c3b2e5da21b426e4f302fc371ce76", "vout": [{"scriptPubKey": {"reqSigs": 1, "hex": "76a914ea9c831b52c211f357fb7c93f7c6a07475d7664888ac", "addresses": ["1NPWcYSnykbysrSwLrzjZewZHubocrJ9XZ"], "asm": "OP_DUP OP_HASH160 ea9c831b52c211f357fb7c93f7c6a07475d76648 OP_EQUALVERIFY OP_CHECKSIG", "type": "pubkeyhash"}, "value": 0.002173, "n": 0}, {"scriptPubKey": {"reqSigs": 1, "hex": "76a91455d581114b8b770f73bb6a976e895d08019f96ec88ac", "addresses": ["18prCqTGWv62cNqYoB5KM3zA9JQKNU92aU"], "asm": "OP_DUP OP_HASH160 55d581114b8b770f73bb6a976e895d08019f96ec OP_EQUALVERIFY OP_CHECKSIG", "type": "pubkeyhash"}, "value": 0.05212944, "n": 1}], "hex": "010000000115771411217ea3c8f171a1f55db1b9ae9e00dce25940694b42f4a599491d5c96010000006b483045022100d3fe706db66809bbcd93a501eb2874eac3dea5defa00f652a8f461b057ecf4550220755cdce6ba5f102ca8d93baf21e490beb2b7509985ab90fdd47f40adb37487210121037aa554baada2f4174ba6c92cfb86e1ec5a0bc4548d638b42c3124dea81b5f47affffffff02d4500300000000001976a914ea9c831b52c211f357fb7c93f7c6a07475d7664888ac108b4f00000000001976a91455d581114b8b770f73bb6a976e895d08019f96ec88ac00000000", "vin": [{"sequence": 4294967295, "scriptSig": {"hex": "483045022100d3fe706db66809bbcd93a501eb2874eac3dea5defa00f652a8f461b057ecf4550220755cdce6ba5f102ca8d93baf21e490beb2b7509985ab90fdd47f40adb37487210121037aa554baada2f4174ba6c92cfb86e1ec5a0bc4548d638b42c3124dea81b5f47a", "asm": "3045022100d3fe706db66809bbcd93a501eb2874eac3dea5defa00f652a8f461b057ecf4550220755cdce6ba5f102ca8d93baf21e490beb2b7509985ab90fdd47f40adb3748721[ALL] 037aa554baada2f4174ba6c92cfb86e1ec5a0bc4548d638b42c3124dea81b5f47a"}, "vout": 1, "txid": "965c1d4999a5f4424b694059e2dc009eaeb9b15df5a171f1c8a37e2111147715"}], "txid": "4cfa1177c744bedaf5de8c7e77b6913bf030f7b9be2c1f1a9cde5fd3ab205f67", "blocktime": 1537876114, "version": 1, "confirmations": 11460, "time": 1537876114, "locktime": 0, "vsize": 226, "size": 226}