{"hash": "6eba9346ddbf3507c4b889f6df9022b736ce41e457f004c17d13554a1bab6401", "blockhash": "000000000000000000022b45ed06c6f4ccd3cf7fb5ba4856ebd2e58215665228", "vout": [{"scriptPubKey": {"reqSigs": 1, "hex": "a914e9d28bf57a94eb6a41cdfcaea9357070b68053b987", "addresses": ["3P1MbHLLURUbY81tZrQhczNmGcVUS5wtur"], "asm": "OP_HASH160 e9d28bf57a94eb6a41cdfcaea9357070b68053b9 OP_EQUAL", "type": "scripthash"}, "value": 0.00998569, "n": 0}, {"scriptPubKey": {"reqSigs": 1, "hex": "a914b5526bcb505c91c21c0613018a8f0bb061b16de587", "addresses": ["3JDkxysw2Y7NXRCpkfwdnuDBEqvFZn72Zv"], "asm": "OP_HASH160 b5526bcb505c91c21c0613018a8f0bb061b16de5 OP_EQUAL", "type": "scripthash"}, "value": 0.00614066, "n": 1}], "hex": "0200000000010113f77ec24d20ed6e3a42efd745c21aa1c1c92bec95decca0b36ef4045655d7a30100000017160014ebf8e5fe70f865c45d50ae75f9c4cf32f2729770feffffff02a93c0f000000000017a914e9d28bf57a94eb6a41cdfcaea9357070b68053b987b25e09000000000017a914b5526bcb505c91c21c0613018a8f0bb061b16de58702473044022042bdda9d6efbf2d21f4da3c86f3bd0af672812cbf71740413b0d95d6096cec4c02207067a5cdc3991038d2097c9bf35d5d57d615be9482e0b0c585dc5b203e2cfd1e012102a3978ebb79c362595b549ff4a6de4b57a0e850a762de073a0f4c20b956d5457a0a490800", "vin": [{"txinwitness": ["3044022042bdda9d6efbf2d21f4da3c86f3bd0af672812cbf71740413b0d95d6096cec4c02207067a5cdc3991038d2097c9bf35d5d57d615be9482e0b0c585dc5b203e2cfd1e01", "02a3978ebb79c362595b549ff4a6de4b57a0e850a762de073a0f4c20b956d5457a"], "sequence": 4294967294, "scriptSig": {"hex": "160014ebf8e5fe70f865c45d50ae75f9c4cf32f2729770", "asm": "0014ebf8e5fe70f865c45d50ae75f9c4cf32f2729770"}, "vout": 1, "txid": "a3d7555604f46eb3a0ccde95ec2bc9c1a11ac245d7ef423a6eed204dc27ef713"}], "txid": "4cfa760565a3f7ba31a6fa8bb70c63540f25ba3dbdd7ca5205db273ef60e5397", "blocktime": 1537869901, "version": 2, "confirmations": 11522, "time": 1537869901, "locktime": 542986, "vsize": 166, "size": 247}