{"hash": "4cfb4adc52bc287869d02f8a722c3b858af9580beb45dbd78ca593c0d56deaff", "blockhash": "00000000000000000017f5eb5941039fbcee6240d03bc1f2f8e35350df66a1d8", "vout": [{"scriptPubKey": {"type": "nulldata", "hex": "6a4c50000077fd000111e85041433989018c4eec9bd19ed074892d00f8e87af8e8e963c7cfd5b9c612cb83320704831df896aeb96185b45baa19830613cebbf6251a09bc9a9526289ac0f6612cd74e33776ee4", "asm": "OP_RETURN 000077fd000111e85041433989018c4eec9bd19ed074892d00f8e87af8e8e963c7cfd5b9c612cb83320704831df896aeb96185b45baa19830613cebbf6251a09bc9a9526289ac0f6612cd74e33776ee4"}, "value": 0.0, "n": 0}, {"scriptPubKey": {"reqSigs": 1, "hex": "76a9148d23f743fce2477934676dfa09bc921f4e6c0aa188ac", "addresses": ["1DsHN15SvBnQ6t7ZxVLkAqx8BrnUFS6Svd"], "asm": "OP_DUP OP_HASH160 8d23f743fce2477934676dfa09bc921f4e6c0aa1 OP_EQUALVERIFY OP_CHECKSIG", "type": "pubkeyhash"}, "value": 0.000847, "n": 1}], "hex": "01000000016e76ef02920f91d8892fac835c3597ba89ba855ae11cb030d3a6dace43658bc1010000006a473044022036598aadbf302892c0c606a2ce74115e34ac7914a504e005a4cc77483b11ddac022073d30b98e79dd982b37722a4ecad47227b02e14e208a2ae4a8337c43ba4c76a4012103b6a9d2970e0902d911a14822089b3051c67baaba891bab7dfe05658fb8e738ecffffffff020000000000000000536a4c50000077fd000111e85041433989018c4eec9bd19ed074892d00f8e87af8e8e963c7cfd5b9c612cb83320704831df896aeb96185b45baa19830613cebbf6251a09bc9a9526289ac0f6612cd74e33776ee4dc4a0100000000001976a9148d23f743fce2477934676dfa09bc921f4e6c0aa188ac00000000", "vin": [{"sequence": 4294967295, "scriptSig": {"hex": "473044022036598aadbf302892c0c606a2ce74115e34ac7914a504e005a4cc77483b11ddac022073d30b98e79dd982b37722a4ecad47227b02e14e208a2ae4a8337c43ba4c76a4012103b6a9d2970e0902d911a14822089b3051c67baaba891bab7dfe05658fb8e738ec", "asm": "3044022036598aadbf302892c0c606a2ce74115e34ac7914a504e005a4cc77483b11ddac022073d30b98e79dd982b37722a4ecad47227b02e14e208a2ae4a8337c43ba4c76a4[ALL] 03b6a9d2970e0902d911a14822089b3051c67baaba891bab7dfe05658fb8e738ec"}, "vout": 1, "txid": "c18b6543cedaa6d330b01ce15a85ba89ba97355c83ac2f89d8910f9202ef766e"}], "txid": "4cfb4adc52bc287869d02f8a722c3b858af9580beb45dbd78ca593c0d56deaff", "blocktime": 1537874412, "version": 1, "confirmations": 11467, "time": 1537874412, "locktime": 0, "vsize": 283, "size": 283}