{"hash": "4cfcc5fde61d34528efab979d9a70f29ef4f7b5d460d075ab77d727cec607c35", "blockhash": "0000000000000000001f76057863aec43deb6fa401d9628bb513d65a8098bfab", "vout": [{"scriptPubKey": {"reqSigs": 1, "hex": "76a91498f7b34e61c5cf96f89abf48969e53812d05ef3788ac", "addresses": ["1EwpSgiYMD3kgGapu1GCsjYfxyqJSiZcav"], "asm": "OP_DUP OP_HASH160 98f7b34e61c5cf96f89abf48969e53812d05ef37 OP_EQUALVERIFY OP_CHECKSIG", "type": "pubkeyhash"}, "value": 0.00076591, "n": 0}, {"scriptPubKey": {"reqSigs": 1, "hex": "76a91422283e487f7ccd585e521a9b44983711f3e4cde588ac", "addresses": ["147cBgAieAdbCz4S5sP4sqQDULGSXPor1i"], "asm": "OP_DUP OP_HASH160 22283e487f7ccd585e521a9b44983711f3e4cde5 OP_EQUALVERIFY OP_CHECKSIG", "type": "pubkeyhash"}, "value": 0.00343467, "n": 1}], "hex": "010000000179edbc8b45f96cc5109a625ad13eac9a3efdba112b1d82cb6ab5cd20df22990b000000006a4730440220139e8e54297634e506058b47d962e680438047ba0d501b43bb795eb31db76dc202201cdb659d3bbe5a9f901d0c149c926dc6e7d1c0265605929f3cb723a5b0f66e8a0121033aac0225da0fd3ddb830d31f407781177d3289b7fc2eb1a870547027fefa83d6ffffffff022f2b0100000000001976a91498f7b34e61c5cf96f89abf48969e53812d05ef3788acab3d0500000000001976a91422283e487f7ccd585e521a9b44983711f3e4cde588ac00000000", "vin": [{"sequence": 4294967295, "scriptSig": {"hex": "4730440220139e8e54297634e506058b47d962e680438047ba0d501b43bb795eb31db76dc202201cdb659d3bbe5a9f901d0c149c926dc6e7d1c0265605929f3cb723a5b0f66e8a0121033aac0225da0fd3ddb830d31f407781177d3289b7fc2eb1a870547027fefa83d6", "asm": "30440220139e8e54297634e506058b47d962e680438047ba0d501b43bb795eb31db76dc202201cdb659d3bbe5a9f901d0c149c926dc6e7d1c0265605929f3cb723a5b0f66e8a[ALL] 033aac0225da0fd3ddb830d31f407781177d3289b7fc2eb1a870547027fefa83d6"}, "vout": 0, "txid": "0b9922df20cdb56acb821d2b11bafd3e9aac3ed15a629a10c56cf9458bbced79"}], "txid": "4cfcc5fde61d34528efab979d9a70f29ef4f7b5d460d075ab77d727cec607c35", "blocktime": 1537873891, "version": 1, "confirmations": 11477, "time": 1537873891, "locktime": 0, "vsize": 225, "size": 225}