{"hash": "4cfda9884679e4eb9f3b922339a05364ff3ff1cd4ea07626d365fd626393964a", "blockhash": "0000000000000000000dcc0f55137456b1a82d3642486a52398922ac4d620174", "vout": [{"scriptPubKey": {"type": "nulldata", "hex": "6a146f6d6e69000000000000001f0000000737be7600", "asm": "OP_RETURN 6f6d6e69000000000000001f0000000737be7600"}, "value": 0.0, "n": 0}, {"scriptPubKey": {"reqSigs": 1, "hex": "76a914414ad0209d7f50b4b37dca584dd5c41b4294594c88ac", "addresses": ["16xEYZu1RUbXVukTTqFKrFmpZPQZ6yg8JJ"], "asm": "OP_DUP OP_HASH160 414ad0209d7f50b4b37dca584dd5c41b4294594c OP_EQUALVERIFY OP_CHECKSIG", "type": "pubkeyhash"}, "value": 5.46e-06, "n": 1}, {"scriptPubKey": {"reqSigs": 1, "hex": "76a914284b1f894ca72430de8f19952125b6016a9dc7c688ac", "addresses": ["14g42KnXkRFfR8cUtS5tReprjeNvGQKW9v"], "asm": "OP_DUP OP_HASH160 284b1f894ca72430de8f19952125b6016a9dc7c6 OP_EQUALVERIFY OP_CHECKSIG", "type": "pubkeyhash"}, "value": 0.14460485, "n": 2}], "hex": "01000000011d88a0216310f69d0f793f41783ce5698d6172ad6c2baaa1353c1fa45a6a37d2000000006a47304402203d5a70f3f0bf4e3ba8488d9e7d44faf5a3103cc6c19605e557f0af0e6c9a8953022000fbf5af1892e3a0893790751a3b822bb18f489379efe52141bbc8182c4f985901210392260b2475e9dec1855e89404d00787579055270f3f1619ec29bd64ed6a6dd7dfeffffff030000000000000000166a146f6d6e69000000000000001f0000000737be760022020000000000001976a914414ad0209d7f50b4b37dca584dd5c41b4294594c88ac45a6dc00000000001976a914284b1f894ca72430de8f19952125b6016a9dc7c688ac0c490800", "vin": [{"sequence": 4294967294, "scriptSig": {"hex": "47304402203d5a70f3f0bf4e3ba8488d9e7d44faf5a3103cc6c19605e557f0af0e6c9a8953022000fbf5af1892e3a0893790751a3b822bb18f489379efe52141bbc8182c4f985901210392260b2475e9dec1855e89404d00787579055270f3f1619ec29bd64ed6a6dd7d", "asm": "304402203d5a70f3f0bf4e3ba8488d9e7d44faf5a3103cc6c19605e557f0af0e6c9a8953022000fbf5af1892e3a0893790751a3b822bb18f489379efe52141bbc8182c4f9859[ALL] 0392260b2475e9dec1855e89404d00787579055270f3f1619ec29bd64ed6a6dd7d"}, "vout": 0, "txid": "d2376a5aa41f3c35a1aa2b6cad72618d69e53c78413f790f9df6106321a0881d"}], "txid": "4cfda9884679e4eb9f3b922339a05364ff3ff1cd4ea07626d365fd626393964a", "blocktime": 1537870268, "version": 1, "confirmations": 11516, "time": 1537870268, "locktime": 542988, "vsize": 256, "size": 256}