{"hash": "cb5538c11537c86a94ded7b5d8bfe53290edf7606591412320c97fd4216b6c84", "blockhash": "000000000000000000022b45ed06c6f4ccd3cf7fb5ba4856ebd2e58215665228", "vout": [{"scriptPubKey": {"reqSigs": 1, "hex": "a914218508b551bda2eb8ad0ecb0170e27936d084e3f87", "addresses": ["34kFbErZGFuvBcwUma5CJCopFUHCfWwdcu"], "asm": "OP_HASH160 218508b551bda2eb8ad0ecb0170e27936d084e3f OP_EQUAL", "type": "scripthash"}, "value": 8.58897954, "n": 0}, {"scriptPubKey": {"reqSigs": 1, "hex": "a914fd90f468a343c403103a19e04de16264df62ee4587", "addresses": ["3QokXhzCzmgBXE8uo15NBYG1Yc6j1s66kP"], "asm": "OP_HASH160 fd90f468a343c403103a19e04de16264df62ee45 OP_EQUAL", "type": "scripthash"}, "value": 0.10706705, "n": 1}], "hex": "02000000000101e64ff1379d121dc497b8c4c2183a271b1e195a4ea1df9ed27c27b4412874bbef0100000017160014be9b33e271cde7c0e4fcf73ff9e203d9e0c83624feffffff0222be31330000000017a914218508b551bda2eb8ad0ecb0170e27936d084e3f87115fa3000000000017a914fd90f468a343c403103a19e04de16264df62ee45870247304402207ce81d139a83c19589a1396c9f338a3148adb5fd39e61965188586b103980d0b0220287e3041fa408b0de33c79518f5ca89243c75265a8b77ac3dd88a030068b4ff4012103631965fe9857e04a0fc353d1968aec02d7804ff591b20024f391890f3e17e8430b490800", "vin": [{"txinwitness": ["304402207ce81d139a83c19589a1396c9f338a3148adb5fd39e61965188586b103980d0b0220287e3041fa408b0de33c79518f5ca89243c75265a8b77ac3dd88a030068b4ff401", "03631965fe9857e04a0fc353d1968aec02d7804ff591b20024f391890f3e17e843"], "sequence": 4294967294, "scriptSig": {"hex": "160014be9b33e271cde7c0e4fcf73ff9e203d9e0c83624", "asm": "0014be9b33e271cde7c0e4fcf73ff9e203d9e0c83624"}, "vout": 1, "txid": "efbb742841b4277cd29edfa14e5a191e1b273a18c2c4b897c41d129d37f14fe6"}], "txid": "4cfecabf2097c00629bc71f6b78d09d8c51e07c969cde363baf0793af3bed055", "blocktime": 1537869901, "version": 2, "confirmations": 11522, "time": 1537869901, "locktime": 542987, "vsize": 166, "size": 247}