{"hash": "4d01174092df6df07c6c0fd00eee97f32889d17714ac6c576daed267de8b0440", "blockhash": "0000000000000000001f0ddff1eddb255c1121bcd4da4f1bc9a0da00cae72433", "vout": [{"scriptPubKey": {"reqSigs": 1, "hex": "76a914ecaad3869769cd71530cd4b54d465332f4f94ccd88ac", "addresses": ["1NaP7VPaYtZuPynM3eq77e6rvs3uJcLu7o"], "asm": "OP_DUP OP_HASH160 ecaad3869769cd71530cd4b54d465332f4f94ccd OP_EQUALVERIFY OP_CHECKSIG", "type": "pubkeyhash"}, "value": 0.0147948, "n": 0}, {"scriptPubKey": {"type": "nulldata", "hex": "6a4c50000077a70001bce166cdd5c3a8a548e45712af6c953dd567cf27e7e3ef3236678a62509738897a2b0c6b1d23b3efafcc8f3883695baa0f96061395acacf5c719bc9a9526289ac0f6612cd74e33776ee4", "asm": "OP_RETURN 000077a70001bce166cdd5c3a8a548e45712af6c953dd567cf27e7e3ef3236678a62509738897a2b0c6b1d23b3efafcc8f3883695baa0f96061395acacf5c719bc9a9526289ac0f6612cd74e33776ee4"}, "value": 0.0, "n": 1}], "hex": "0100000001c16702679e56ff6127782a93cc1bc12ea7922827026a0afb758cf629f1de19ab000000006b483045022100f1f4775823516320ad4a0787f7fb8897aa8ba2832a71acf7cba33cd2613a0945022022f3bca20e0520313bfe43747483a90a20106739b3bb57218f058a0b8d9a7b130121030e786f6807bb1f6fd150e7ad9a23f414918fc44c60a2a65b2680c00d63347d37ffffffff0238931600000000001976a914ecaad3869769cd71530cd4b54d465332f4f94ccd88ac0000000000000000536a4c50000077a70001bce166cdd5c3a8a548e45712af6c953dd567cf27e7e3ef3236678a62509738897a2b0c6b1d23b3efafcc8f3883695baa0f96061395acacf5c719bc9a9526289ac0f6612cd74e33776ee400000000", "vin": [{"sequence": 4294967295, "scriptSig": {"hex": "483045022100f1f4775823516320ad4a0787f7fb8897aa8ba2832a71acf7cba33cd2613a0945022022f3bca20e0520313bfe43747483a90a20106739b3bb57218f058a0b8d9a7b130121030e786f6807bb1f6fd150e7ad9a23f414918fc44c60a2a65b2680c00d63347d37", "asm": "3045022100f1f4775823516320ad4a0787f7fb8897aa8ba2832a71acf7cba33cd2613a0945022022f3bca20e0520313bfe43747483a90a20106739b3bb57218f058a0b8d9a7b13[ALL] 030e786f6807bb1f6fd150e7ad9a23f414918fc44c60a2a65b2680c00d63347d37"}, "vout": 0, "txid": "ab19def129f68c75fb0a6a02272892a72ec11bcc932a782761ff569e670267c1"}], "txid": "4d01174092df6df07c6c0fd00eee97f32889d17714ac6c576daed267de8b0440", "blocktime": 1537872018, "version": 1, "confirmations": 11489, "time": 1537872018, "locktime": 0, "vsize": 284, "size": 284}