{"hash": "4d08cead87952820f59eda268a3482231518c604b98041e9835a2cedd73bceeb", "blockhash": "0000000000000000001f76057863aec43deb6fa401d9628bb513d65a8098bfab", "vout": [{"scriptPubKey": {"type": "nulldata", "hex": "6a4c50000077e700013fcc8379475c62689606f5fb7af8e8e963c7cfd5b95b23cc0f42c2fc38c5c798b574234ebe18c05b7a19b1782f895baa17600612712c07aa5e411d100759d4ba30d2c37bb011d97e02cf", "asm": "OP_RETURN 000077e700013fcc8379475c62689606f5fb7af8e8e963c7cfd5b95b23cc0f42c2fc38c5c798b574234ebe18c05b7a19b1782f895baa17600612712c07aa5e411d100759d4ba30d2c37bb011d97e02cf"}, "value": 0.0, "n": 0}, {"scriptPubKey": {"reqSigs": 1, "hex": "76a914458ba9efe25e3e4c15fa7eec65dcaa099d89006a88ac", "addresses": ["17LiwFQcYs41wJQmfnkB6umStgK586VzsN"], "asm": "OP_DUP OP_HASH160 458ba9efe25e3e4c15fa7eec65dcaa099d89006a OP_EQUALVERIFY OP_CHECKSIG", "type": "pubkeyhash"}, "value": 0.00635746, "n": 1}], "hex": "0100000001c026f5885520ce1e97761c72841425f888a9cbf828103100f85e543a2ab36066000000006a47304402205ef14d48774ce0378697c265fcefcc461cb458b19e6a7fae4d6ad109357bac4502203c71fe4c494a90de12e79200a11c161bb14a6026ef7086658b431bf4e46012a8012102d67683364a25f54b79ce5e6db3325b5e4e74c7d668b9d920c3b2698e774b1303ffffffff020000000000000000536a4c50000077e700013fcc8379475c62689606f5fb7af8e8e963c7cfd5b95b23cc0f42c2fc38c5c798b574234ebe18c05b7a19b1782f895baa17600612712c07aa5e411d100759d4ba30d2c37bb011d97e02cf62b30900000000001976a914458ba9efe25e3e4c15fa7eec65dcaa099d89006a88ac00000000", "vin": [{"sequence": 4294967295, "scriptSig": {"hex": "47304402205ef14d48774ce0378697c265fcefcc461cb458b19e6a7fae4d6ad109357bac4502203c71fe4c494a90de12e79200a11c161bb14a6026ef7086658b431bf4e46012a8012102d67683364a25f54b79ce5e6db3325b5e4e74c7d668b9d920c3b2698e774b1303", "asm": "304402205ef14d48774ce0378697c265fcefcc461cb458b19e6a7fae4d6ad109357bac4502203c71fe4c494a90de12e79200a11c161bb14a6026ef7086658b431bf4e46012a8[ALL] 02d67683364a25f54b79ce5e6db3325b5e4e74c7d668b9d920c3b2698e774b1303"}, "vout": 0, "txid": "6660b32a3a545ef800311028f8cba988f8251484721c76971ece205588f526c0"}], "txid": "4d08cead87952820f59eda268a3482231518c604b98041e9835a2cedd73bceeb", "blocktime": 1537873891, "version": 1, "confirmations": 11478, "time": 1537873891, "locktime": 0, "vsize": 283, "size": 283}