{"hash": "4d3aad0f66b4ac5a1a1a58a70226487430accacb3057084d424e7244b556907b", "blockhash": "0000000000000000000e13cef7c366c0283d82e591d1acd082e914b08063cdf1", "vout": [{"scriptPubKey": {"reqSigs": 1, "hex": "76a914e3ebf208ed15bda1db6dfc341a21c1fbd90013c188ac", "addresses": ["1Mn93KiWNvtSX4rUaBwKYyfWFzLSJ7ai61"], "asm": "OP_DUP OP_HASH160 e3ebf208ed15bda1db6dfc341a21c1fbd90013c1 OP_EQUALVERIFY OP_CHECKSIG", "type": "pubkeyhash"}, "value": 0.00312361, "n": 0}, {"scriptPubKey": {"reqSigs": 1, "hex": "76a914e5fb5e1eeab7b529924631161185df009537af1b88ac", "addresses": ["1My2sG6iLbUYZX4BbUJR7J6wFiRZm27d4m"], "asm": "OP_DUP OP_HASH160 e5fb5e1eeab7b529924631161185df009537af1b OP_EQUALVERIFY OP_CHECKSIG", "type": "pubkeyhash"}, "value": 0.00519272, "n": 1}], "hex": "010000000179b95913de56a757fe209a5868fbaa078daa36951d5e72c17277af2890aa49a1000000006b483045022100b9ef5bae9a8afaea1e5ccd8dce40e1b2ecb1e11dc1bdbc758bccb7c63cf8c14f0220432eb0cc31e793f803a77a2b07c15cff031afe30a6fad1c85cd4879c5fce7bac012102ae67bfc9632ab1997802c5644e3b8ec61c04f0185d72e4735cae26ac653297c4ffffffff0229c40400000000001976a914e3ebf208ed15bda1db6dfc341a21c1fbd90013c188ac68ec0700000000001976a914e5fb5e1eeab7b529924631161185df009537af1b88ac00000000", "vin": [{"sequence": 4294967295, "scriptSig": {"hex": "483045022100b9ef5bae9a8afaea1e5ccd8dce40e1b2ecb1e11dc1bdbc758bccb7c63cf8c14f0220432eb0cc31e793f803a77a2b07c15cff031afe30a6fad1c85cd4879c5fce7bac012102ae67bfc9632ab1997802c5644e3b8ec61c04f0185d72e4735cae26ac653297c4", "asm": "3045022100b9ef5bae9a8afaea1e5ccd8dce40e1b2ecb1e11dc1bdbc758bccb7c63cf8c14f0220432eb0cc31e793f803a77a2b07c15cff031afe30a6fad1c85cd4879c5fce7bac[ALL] 02ae67bfc9632ab1997802c5644e3b8ec61c04f0185d72e4735cae26ac653297c4"}, "vout": 0, "txid": "a149aa9028af7772c1725e1d9536aa8d07aafb68589a20fe57a756de1359b979"}], "txid": "4d3aad0f66b4ac5a1a1a58a70226487430accacb3057084d424e7244b556907b", "blocktime": 1537871767, "version": 1, "confirmations": 11493, "time": 1537871767, "locktime": 0, "vsize": 226, "size": 226}