{"hash": "4d4a369fb79861b4474d676c1e349f6136cd611cf009f721daf07271ac85b822", "blockhash": "0000000000000000001f76057863aec43deb6fa401d9628bb513d65a8098bfab", "vout": [{"scriptPubKey": {"type": "nulldata", "hex": "6a4c50000077dd0001df7f9b25c367783ad17e05127af8e8e963c7cfd5b95b23cc0f42c2fc38c574de08ad8eb88e5b1ec203ef39f6eff25baa161e06130a5f4f340673bc9a9526289ac0f6612cd74e33776ee4", "asm": "OP_RETURN 000077dd0001df7f9b25c367783ad17e05127af8e8e963c7cfd5b95b23cc0f42c2fc38c574de08ad8eb88e5b1ec203ef39f6eff25baa161e06130a5f4f340673bc9a9526289ac0f6612cd74e33776ee4"}, "value": 0.0, "n": 0}, {"scriptPubKey": {"reqSigs": 1, "hex": "76a9144b267a55d3a417aba928c09cf260568a6a983a4088ac", "addresses": ["17rMmsrEi9Hku3qXX4hwuwg9qJbcR4d4d3"], "asm": "OP_DUP OP_HASH160 4b267a55d3a417aba928c09cf260568a6a983a40 OP_EQUALVERIFY OP_CHECKSIG", "type": "pubkeyhash"}, "value": 0.0009154, "n": 1}], "hex": "0100000001533bb7df338627d8f7be9c92325558e2be35d568ec88cd0a9ffd19a7c50d9548010000006b483045022100efd8ca6f9a98d91d5f22cb505b702576ca6f5d16ec0f32bf2c7f2d169b6db4c002205c9be58dcdd72603001036bde6e9c05b9ba1eaf909d59a9565459147add20eeb0121026e6ed22a4f333b6d780b7242b43c5c7ffd645971944ad659b05fbc01b1a20caaffffffff020000000000000000536a4c50000077dd0001df7f9b25c367783ad17e05127af8e8e963c7cfd5b95b23cc0f42c2fc38c574de08ad8eb88e5b1ec203ef39f6eff25baa161e06130a5f4f340673bc9a9526289ac0f6612cd74e33776ee494650100000000001976a9144b267a55d3a417aba928c09cf260568a6a983a4088ac00000000", "vin": [{"sequence": 4294967295, "scriptSig": {"hex": "483045022100efd8ca6f9a98d91d5f22cb505b702576ca6f5d16ec0f32bf2c7f2d169b6db4c002205c9be58dcdd72603001036bde6e9c05b9ba1eaf909d59a9565459147add20eeb0121026e6ed22a4f333b6d780b7242b43c5c7ffd645971944ad659b05fbc01b1a20caa", "asm": "3045022100efd8ca6f9a98d91d5f22cb505b702576ca6f5d16ec0f32bf2c7f2d169b6db4c002205c9be58dcdd72603001036bde6e9c05b9ba1eaf909d59a9565459147add20eeb[ALL] 026e6ed22a4f333b6d780b7242b43c5c7ffd645971944ad659b05fbc01b1a20caa"}, "vout": 1, "txid": "48950dc5a719fd9f0acd88ec68d535bee2585532929cbef7d8278633dfb73b53"}], "txid": "4d4a369fb79861b4474d676c1e349f6136cd611cf009f721daf07271ac85b822", "blocktime": 1537873891, "version": 1, "confirmations": 11478, "time": 1537873891, "locktime": 0, "vsize": 284, "size": 284}