{"hash": "4d4b3b43d65250fb694f620dc181c09a28adb03a61f5ff2fd25b776b5a491257", "blockhash": "000000000000000000022b45ed06c6f4ccd3cf7fb5ba4856ebd2e58215665228", "vout": [{"scriptPubKey": {"reqSigs": 1, "hex": "76a914848682ae2ee266c9dd2ccd23a6193ef44aedc8b988ac", "addresses": ["1D5jLGqAgNfw7DwATXvB4HxSHavSQFP2ic"], "asm": "OP_DUP OP_HASH160 848682ae2ee266c9dd2ccd23a6193ef44aedc8b9 OP_EQUALVERIFY OP_CHECKSIG", "type": "pubkeyhash"}, "value": 0.00126633, "n": 0}, {"scriptPubKey": {"reqSigs": 1, "hex": "76a9145f775167640a9a19a2765aa0ea99d09a008bd82288ac", "addresses": ["19hn8aoNHGEwLxzyUYZD4qQSJyfEMg4vSj"], "asm": "OP_DUP OP_HASH160 5f775167640a9a19a2765aa0ea99d09a008bd822 OP_EQUALVERIFY OP_CHECKSIG", "type": "pubkeyhash"}, "value": 0.00187294, "n": 1}], "hex": "0100000001068c639aef753768cc0fec22f2cdc7eaaa20a7bd2d48b385603a4b4cac12098c000000006b483045022100e16201ca39f6642074ee374a771c0969a386dd2a8310d47e2de4abe86e86048902201e7a686a36b6aa511dab48b4ae3b7d75507b98c833af83cc9a830c162f4032a0012103019367592c8e84df543158b1086e43a8b737a495ad03033d21218ce0737955cbffffffff02a9ee0100000000001976a914848682ae2ee266c9dd2ccd23a6193ef44aedc8b988ac9edb0200000000001976a9145f775167640a9a19a2765aa0ea99d09a008bd82288ac00000000", "vin": [{"sequence": 4294967295, "scriptSig": {"hex": "483045022100e16201ca39f6642074ee374a771c0969a386dd2a8310d47e2de4abe86e86048902201e7a686a36b6aa511dab48b4ae3b7d75507b98c833af83cc9a830c162f4032a0012103019367592c8e84df543158b1086e43a8b737a495ad03033d21218ce0737955cb", "asm": "3045022100e16201ca39f6642074ee374a771c0969a386dd2a8310d47e2de4abe86e86048902201e7a686a36b6aa511dab48b4ae3b7d75507b98c833af83cc9a830c162f4032a0[ALL] 03019367592c8e84df543158b1086e43a8b737a495ad03033d21218ce0737955cb"}, "vout": 0, "txid": "8c0912ac4c4b3a6085b3482dbda720aaeac7cdf222ec0fcc683775ef9a638c06"}], "txid": "4d4b3b43d65250fb694f620dc181c09a28adb03a61f5ff2fd25b776b5a491257", "blocktime": 1537869901, "version": 1, "confirmations": 11524, "time": 1537869901, "locktime": 0, "vsize": 226, "size": 226}