{"hash": "6b07a845dd9c7314047be353d867b27fac53bda27f327743e5d5901e86d66f4d", "blockhash": "0000000000000000001cda96e906b7601b7a6fb1a3b62bca570a9e5d8f4b3de1", "vout": [{"scriptPubKey": {"reqSigs": 1, "hex": "a9146fc31f9cfb7ac99fabc3a3f82237f653f75fa17987", "addresses": ["3BsxgFiqGxyBM2TtaitzS8QgxvEZZnL6xd"], "asm": "OP_HASH160 6fc31f9cfb7ac99fabc3a3f82237f653f75fa179 OP_EQUAL", "type": "scripthash"}, "value": 0.00338857, "n": 0}, {"scriptPubKey": {"reqSigs": 1, "hex": "76a914a0f2a99596a5b414b04630e2ec43828fd64bec4688ac", "addresses": ["1Fg1pB8gjXtqdjocjRpjW3py5nHro17ocL"], "asm": "OP_DUP OP_HASH160 a0f2a99596a5b414b04630e2ec43828fd64bec46 OP_EQUALVERIFY OP_CHECKSIG", "type": "pubkeyhash"}, "value": 0.005232, "n": 1}], "hex": "02000000000103309f9cc977fc89dfa3ee0be7a9218415e406d058c3277f1a91adfba05a9357f4280000006a4730440220062760bea108cc0096b5941594672f0f08d03a1cd7b0b2173e1b0f63b6d9734a022074a75e516c95ababf42e351d1b74a06db01f5217d61adf39fc23dfa92d09e95a012103e9395eba9b8f640ea084d53f02ae2194624a85f88a400d717606cc3244ee610bfdffffffcab25358f219990b824c4d244c224edbd10a01b0ce7aebb38977394b69542fe20000000017160014a480e2c3a313d83ca225a2e32a85243643b3765ffdffffffaaeb687cc52897a329245c0212081ffe249e81f9902e6be9a6df3dd92a556d3f0000000017160014573e8f25a07bdf27f9ce8f61c0f9f49121d96110fdffffff02a92b05000000000017a9146fc31f9cfb7ac99fabc3a3f82237f653f75fa17987c0fb0700000000001976a914a0f2a99596a5b414b04630e2ec43828fd64bec4688ac0002483045022100f0b71d6576bb3bc4996dd8861f0b0976547bcf51b1077a7d984541030fa5443f022042e36bb749c403c8f0297138ae80b063a187591f88624281b5898d3b42018453012103e1d22cd62e8437cc7f8a1babcdd540233806f169abae48850f96460245e9638402483045022100c2fbb1e500edb527484f172b545aab5015d3b194765234f82f70722a71d87cda02204200edc249dd0d089fe785b239aae42b18cba30815052a0c554d2738ebf7f149012102f95b56a6c85085eb80d9fe98318567add095f2da8f8fee0ee430d5dfaa8825a300000000", "vin": [{"sequence": 4294967293, "scriptSig": {"hex": "4730440220062760bea108cc0096b5941594672f0f08d03a1cd7b0b2173e1b0f63b6d9734a022074a75e516c95ababf42e351d1b74a06db01f5217d61adf39fc23dfa92d09e95a012103e9395eba9b8f640ea084d53f02ae2194624a85f88a400d717606cc3244ee610b", "asm": "30440220062760bea108cc0096b5941594672f0f08d03a1cd7b0b2173e1b0f63b6d9734a022074a75e516c95ababf42e351d1b74a06db01f5217d61adf39fc23dfa92d09e95a[ALL] 03e9395eba9b8f640ea084d53f02ae2194624a85f88a400d717606cc3244ee610b"}, "vout": 40, "txid": "f457935aa0fbad911a7f27c358d006e4158421a9e70beea3df89fc77c99c9f30"}, {"txinwitness": ["3045022100f0b71d6576bb3bc4996dd8861f0b0976547bcf51b1077a7d984541030fa5443f022042e36bb749c403c8f0297138ae80b063a187591f88624281b5898d3b4201845301", "03e1d22cd62e8437cc7f8a1babcdd540233806f169abae48850f96460245e96384"], "sequence": 4294967293, "scriptSig": {"hex": "160014a480e2c3a313d83ca225a2e32a85243643b3765f", "asm": "0014a480e2c3a313d83ca225a2e32a85243643b3765f"}, "vout": 0, "txid": "e22f54694b397789b3eb7aceb0010ad1db4e224c244d4c820b9919f25853b2ca"}, {"txinwitness": ["3045022100c2fbb1e500edb527484f172b545aab5015d3b194765234f82f70722a71d87cda02204200edc249dd0d089fe785b239aae42b18cba30815052a0c554d2738ebf7f14901", "02f95b56a6c85085eb80d9fe98318567add095f2da8f8fee0ee430d5dfaa8825a3"], "sequence": 4294967293, "scriptSig": {"hex": "160014573e8f25a07bdf27f9ce8f61c0f9f49121d96110", "asm": "0014573e8f25a07bdf27f9ce8f61c0f9f49121d96110"}, "vout": 0, "txid": "3f6d552ad93ddfa6e96b2e90f9819e24fe1f0812025c2429a39728c57c68ebaa"}], "txid": "4d4dcb2447452b131893c4991b7c8f65170b147b6873b7f1c261518545377f31", "blocktime": 1537873282, "version": 2, "confirmations": 11480, "time": 1537873282, "locktime": 0, "vsize": 406, "size": 570}