{"hash": "95b01d4af8cc87ed9a4f51e85b744e7ffe111a8722889809b8a0076fe22b17b5", "blockhash": "000000000000000000022b45ed06c6f4ccd3cf7fb5ba4856ebd2e58215665228", "vout": [{"scriptPubKey": {"reqSigs": 1, "hex": "00145b386ffbfc9729f83f83857d8b2f5015fcbd690d", "addresses": ["bc1qtvuxl7luju5ls0urs47ckt6szh7t66gdpax8dm"], "asm": "0 5b386ffbfc9729f83f83857d8b2f5015fcbd690d", "type": "witness_v0_keyhash"}, "value": 0.00012119, "n": 0}, {"scriptPubKey": {"reqSigs": 1, "hex": "76a9149a27d9946cbf62e9d61a699364fa840f73b4b36188ac", "addresses": ["1F46oN3vgxcPL4KZ8z9YbDKm4pNDYT3h51"], "asm": "OP_DUP OP_HASH160 9a27d9946cbf62e9d61a699364fa840f73b4b361 OP_EQUALVERIFY OP_CHECKSIG", "type": "pubkeyhash"}, "value": 0.005, "n": 1}], "hex": "01000000000101e3774b8ea50a13756505699e20fb841df800892f3ba0509a82ad46f3e475ec12000000001716001472096cf410438b09ffc50b0f13e92eb0beb4a1ccffffffff02572f0000000000001600145b386ffbfc9729f83f83857d8b2f5015fcbd690d20a10700000000001976a9149a27d9946cbf62e9d61a699364fa840f73b4b36188ac024830450221009a6871fd16707297665fc6611da6bbc26c484f943180390c2c74e2f63197dd33022061ae83dcce39e507cf4696ffb4056435484d09866f2967cf025c5555f2c7dc7f012103de4efa8028f8202766aa63907bf5a6f1e9cfdba597fae594780eb91bbb8a684200000000", "vin": [{"txinwitness": ["30450221009a6871fd16707297665fc6611da6bbc26c484f943180390c2c74e2f63197dd33022061ae83dcce39e507cf4696ffb4056435484d09866f2967cf025c5555f2c7dc7f01", "03de4efa8028f8202766aa63907bf5a6f1e9cfdba597fae594780eb91bbb8a6842"], "sequence": 4294967295, "scriptSig": {"hex": "16001472096cf410438b09ffc50b0f13e92eb0beb4a1cc", "asm": "001472096cf410438b09ffc50b0f13e92eb0beb4a1cc"}, "vout": 0, "txid": "12ec75e4f346ad829a50a03b2f8900f81d84fb209e69056575130aa58e4b77e3"}], "txid": "4d511ed4d97c3e4f6c0a4ab584f09e95a3bca73d86473d376d0486879739da56", "blocktime": 1537869901, "version": 1, "confirmations": 11523, "time": 1537869901, "locktime": 0, "vsize": 167, "size": 249}