{"hash": "4d5449f53efd54e5d2feb5d25230e0262785372dfc9427f9068fdf506ad8d683", "blockhash": "000000000000000000022b45ed06c6f4ccd3cf7fb5ba4856ebd2e58215665228", "vout": [{"scriptPubKey": {"type": "nulldata", "hex": "6a146f6d6e69000000000000001f00000021ca6c0e80", "asm": "OP_RETURN 6f6d6e69000000000000001f00000021ca6c0e80"}, "value": 0.0, "n": 0}, {"scriptPubKey": {"reqSigs": 1, "hex": "76a914abbcea2c2a952a511b25351d88391e061813b14188ac", "addresses": ["1Gf4rq5mUxRFPVJE7yUCoy5dk5VBZJQ9id"], "asm": "OP_DUP OP_HASH160 abbcea2c2a952a511b25351d88391e061813b141 OP_EQUALVERIFY OP_CHECKSIG", "type": "pubkeyhash"}, "value": 0.0049644, "n": 1}, {"scriptPubKey": {"reqSigs": 1, "hex": "76a914a25dec4d0011064ef106a983c39c7a540699f22088ac", "addresses": ["1FoWyxwPXuj4C6abqwhjDWdz6D4PZgYRjA"], "asm": "OP_DUP OP_HASH160 a25dec4d0011064ef106a983c39c7a540699f220 OP_EQUALVERIFY OP_CHECKSIG", "type": "pubkeyhash"}, "value": 5.46e-06, "n": 2}], "hex": "010000000250b616f6201661b636fb98978f088db3d23693ac75cf29a4c68667b3c995ee45000000006a473044022077fa6d4541b0c724fba51c2ad8fe36c7662d70e2f75fc74ba88237e04ff5f9af02201fe69a5448ac15f1c13fe9f9df69892d373e81f39abbc3fb85f3a17a7bdd723a0121029853fe5a765a37ca54894126f98a8598e51a0333d5952caf3ae694fd0a595ac0feffffff622cf6446827ac793ed79449d2f180ab46006e00b3f3fd27b1c219592123b8a3000000006b483045022100f2343bfdf2554dbb5b6a4e1c065861829e2a9403a43e00c8723297f135ccdb5f022045f5c036c54475bb9e713d3b2af5d23a63b5d0c4fc91a6debe6e071339c5e0c90121029853fe5a765a37ca54894126f98a8598e51a0333d5952caf3ae694fd0a595ac0feffffff030000000000000000166a146f6d6e69000000000000001f00000021ca6c0e8038930700000000001976a914abbcea2c2a952a511b25351d88391e061813b14188ac22020000000000001976a914a25dec4d0011064ef106a983c39c7a540699f22088ac01490800", "vin": [{"sequence": 4294967294, "scriptSig": {"hex": "473044022077fa6d4541b0c724fba51c2ad8fe36c7662d70e2f75fc74ba88237e04ff5f9af02201fe69a5448ac15f1c13fe9f9df69892d373e81f39abbc3fb85f3a17a7bdd723a0121029853fe5a765a37ca54894126f98a8598e51a0333d5952caf3ae694fd0a595ac0", "asm": "3044022077fa6d4541b0c724fba51c2ad8fe36c7662d70e2f75fc74ba88237e04ff5f9af02201fe69a5448ac15f1c13fe9f9df69892d373e81f39abbc3fb85f3a17a7bdd723a[ALL] 029853fe5a765a37ca54894126f98a8598e51a0333d5952caf3ae694fd0a595ac0"}, "vout": 0, "txid": "45ee95c9b36786c6a429cf75ac9336d2b38d088f9798fb36b6611620f616b650"}, {"sequence": 4294967294, "scriptSig": {"hex": "483045022100f2343bfdf2554dbb5b6a4e1c065861829e2a9403a43e00c8723297f135ccdb5f022045f5c036c54475bb9e713d3b2af5d23a63b5d0c4fc91a6debe6e071339c5e0c90121029853fe5a765a37ca54894126f98a8598e51a0333d5952caf3ae694fd0a595ac0", "asm": "3045022100f2343bfdf2554dbb5b6a4e1c065861829e2a9403a43e00c8723297f135ccdb5f022045f5c036c54475bb9e713d3b2af5d23a63b5d0c4fc91a6debe6e071339c5e0c9[ALL] 029853fe5a765a37ca54894126f98a8598e51a0333d5952caf3ae694fd0a595ac0"}, "vout": 0, "txid": "a3b823215919c2b127fdf3b3006e0046ab80f1d24994d73e79ac276844f62c62"}], "txid": "4d5449f53efd54e5d2feb5d25230e0262785372dfc9427f9068fdf506ad8d683", "blocktime": 1537869901, "version": 1, "confirmations": 11524, "time": 1537869901, "locktime": 542977, "vsize": 404, "size": 404}