{"hash": "5143c624e2cf629f85850192e386c9036fb300522137dc20a3637d0a4992d9da", "blockhash": "000000000000000000022b45ed06c6f4ccd3cf7fb5ba4856ebd2e58215665228", "vout": [{"scriptPubKey": {"reqSigs": 1, "hex": "a914dd9dc6a441b75c3a3cf7d52601fba93d55728ce687", "addresses": ["3MtpGQL5k6tYHku7eJBRa35C5DZGaJGvFy"], "asm": "OP_HASH160 dd9dc6a441b75c3a3cf7d52601fba93d55728ce6 OP_EQUAL", "type": "scripthash"}, "value": 0.22977783, "n": 0}, {"scriptPubKey": {"reqSigs": 1, "hex": "a914ac99a7172d9109d72aa6b751158c4a5cba913ced87", "addresses": ["3HReDWqGYD4k3vaQedoLd2b3H4rkC8mFdr"], "asm": "OP_HASH160 ac99a7172d9109d72aa6b751158c4a5cba913ced OP_EQUAL", "type": "scripthash"}, "value": 0.02587015, "n": 1}], "hex": "010000000001059e4c3110f3b93599c90b3a9e568702a293bb17506d4cdf4cb981d11cdf388f06010000002322002093198aaec343fea8a5f3503de58e7ba5cae07d3a5e59580a4a13f9b06b981ed5ffffffff9020f5f5bfe622d70a3f34e446297102d511691187c1f9f7b22edf358e6b72fd010000002322002011bc08bca99414a35bf9f3c8070b19db086275593e7851466baf5f795dc623b3ffffffff980b1dab8ee0414a9ecff131f1aed4912d729e4a2c069066fb9fe56d06131f8301000000232200200108a98bac549ba86e852b909d71245e3d455ef81aec554d24a5e14ff14f97cfffffffff83e8b9906b558f971a9ccd336c19d9b536bc9550f2194ae6be160b99b76094150100000023220020d31f1bc0b9bfde3ba92712dcf151d1d3260c99ecd3d353a5a71aff0bfe011799ffffffff6e1beb7a57f82cb84682c1224659bbd6d2400a829412c09e4c64cae2a2f5bb6e0100000023220020ed67b870cd3e6b56da314c190d793d530acbda1307ac13204f79a528993c21a4ffffffff02f79c5e010000000017a914dd9dc6a441b75c3a3cf7d52601fba93d55728ce687877927000000000017a914ac99a7172d9109d72aa6b751158c4a5cba913ced8704004730440220246f262b7a60196c329c76a6ea63f1e36b8819a2fd286eb85fc0fe1aaca38489022012f7d653eebdc826fdd246601b49448471721d5cd8dadcd5cef063525d1a21e201473044022014d9dd9ca71b8a92d85452a31b6984177861f395508dcaee86957e081b46078a0220240ec5448770608ef60c4c9f64c5d24ceb6b61a702ecd460b079954d7ce325cb0147522102869fce54677eb6d11dc0e23dd8260eeaa45aa910cea605d319e95352667cb8c121038407424ead2b88063db2d589e50c34e1572f6b82eb9e266dec536939ee0db9eb52ae040047304402206ac5880981c9e832cc75e5d8d125713f777f2a73247c7bd82e9d74b06dc76a8a022000872919bb615de8152afdf3bfbff1dfd330b7dee3780e04c1abcb0af3ec91270147304402207285589695ee42b5eecd95855cfb2900e5fce8704b404dd9f3bfd4f56b4f6e14022031aee3dd80cf3819bca4f81e3a0f4075ca0f2e9782f2b11e4207d29ef5b35e0a0147522102045b404ef8f2497d27286ea8f49695613e15f72368483f4f8cf0a2b97e76b68721038407424ead2b88063db2d589e50c34e1572f6b82eb9e266dec536939ee0db9eb52ae040048304502210086fc2145666faa5e39d2d9bf2b6c5d47c151c549f8bae3529aa540c870cd98f8022055c8b56fdc9cc8f014b8588cd16bc7edc6a16548ea13d23f87adbc5f1f93f52d0147304402202d801cf67dbb391abeaa920a79ef5ad1663aa2124569611b7056204fd441b7e502201c0ab2a2b39d4242d8a279720fc66bce79bf26eeb1c7b10e2a0df9adfeed05150147522103e2de3cf1c3a7cddba53132a457bfedca327f55052489c4970e694d0713a38ea721038407424ead2b88063db2d589e50c34e1572f6b82eb9e266dec536939ee0db9eb52ae0400483045022100d58dda2800a15cda83a760503b90af53cb1e8dbc13eecdb6ee61ff3c988638bd022038b9f29bd72b57afe8ad8f968bbd6438c8146080e020f0e90798f5b7c4e46ec901483045022100f58f2a4c3fe492bdf3813f5fddf14433e109e802b7b7caf2927201f2ee44592502200fd8c2bc8fab56ad03c86c03fa5de83c4806107c8abc5bcc3205f76375210466014752210244cfb50b7aba0b7f8951614e91f161bebca208e39f4ed66be0eea9bdd5c2a15f21038407424ead2b88063db2d589e50c34e1572f6b82eb9e266dec536939ee0db9eb52ae0400483045022100a445f19f5e0d2bebc981ad59bb387b134d8e6a22b41b15fbbdb5d7965732f078022052769eec51dad91ca7173a392265594e79e924c0272390600a51dbe0fcfdeee0014830450221009df72536c89b9aa9a12759a638dcd1efa5ca922fba5f62c9b07e896e425dabde0220143d39faf90a7250bdeb079ad1fcbc628edcc61719e9a43710864e8ce5efa40001475221029707d722e845a289743b2699482ac3751d0f87085efe2cae16779766710dcb9b21038407424ead2b88063db2d589e50c34e1572f6b82eb9e266dec536939ee0db9eb52ae00000000", "vin": [{"txinwitness": ["", "30440220246f262b7a60196c329c76a6ea63f1e36b8819a2fd286eb85fc0fe1aaca38489022012f7d653eebdc826fdd246601b49448471721d5cd8dadcd5cef063525d1a21e201", "3044022014d9dd9ca71b8a92d85452a31b6984177861f395508dcaee86957e081b46078a0220240ec5448770608ef60c4c9f64c5d24ceb6b61a702ecd460b079954d7ce325cb01", "522102869fce54677eb6d11dc0e23dd8260eeaa45aa910cea605d319e95352667cb8c121038407424ead2b88063db2d589e50c34e1572f6b82eb9e266dec536939ee0db9eb52ae"], "sequence": 4294967295, "scriptSig": {"hex": "22002093198aaec343fea8a5f3503de58e7ba5cae07d3a5e59580a4a13f9b06b981ed5", "asm": "002093198aaec343fea8a5f3503de58e7ba5cae07d3a5e59580a4a13f9b06b981ed5"}, "vout": 1, "txid": "068f38df1cd181b94cdf4c6d5017bb93a20287569e3a0bc99935b9f310314c9e"}, {"txinwitness": ["", "304402206ac5880981c9e832cc75e5d8d125713f777f2a73247c7bd82e9d74b06dc76a8a022000872919bb615de8152afdf3bfbff1dfd330b7dee3780e04c1abcb0af3ec912701", "304402207285589695ee42b5eecd95855cfb2900e5fce8704b404dd9f3bfd4f56b4f6e14022031aee3dd80cf3819bca4f81e3a0f4075ca0f2e9782f2b11e4207d29ef5b35e0a01", "522102045b404ef8f2497d27286ea8f49695613e15f72368483f4f8cf0a2b97e76b68721038407424ead2b88063db2d589e50c34e1572f6b82eb9e266dec536939ee0db9eb52ae"], "sequence": 4294967295, "scriptSig": {"hex": "22002011bc08bca99414a35bf9f3c8070b19db086275593e7851466baf5f795dc623b3", "asm": "002011bc08bca99414a35bf9f3c8070b19db086275593e7851466baf5f795dc623b3"}, "vout": 1, "txid": "fd726b8e35df2eb2f7f9c187116911d502712946e4343f0ad722e6bff5f52090"}, {"txinwitness": ["", "304502210086fc2145666faa5e39d2d9bf2b6c5d47c151c549f8bae3529aa540c870cd98f8022055c8b56fdc9cc8f014b8588cd16bc7edc6a16548ea13d23f87adbc5f1f93f52d01", "304402202d801cf67dbb391abeaa920a79ef5ad1663aa2124569611b7056204fd441b7e502201c0ab2a2b39d4242d8a279720fc66bce79bf26eeb1c7b10e2a0df9adfeed051501", "522103e2de3cf1c3a7cddba53132a457bfedca327f55052489c4970e694d0713a38ea721038407424ead2b88063db2d589e50c34e1572f6b82eb9e266dec536939ee0db9eb52ae"], "sequence": 4294967295, "scriptSig": {"hex": "2200200108a98bac549ba86e852b909d71245e3d455ef81aec554d24a5e14ff14f97cf", "asm": "00200108a98bac549ba86e852b909d71245e3d455ef81aec554d24a5e14ff14f97cf"}, "vout": 1, "txid": "831f13066de59ffb6690062c4a9e722d91d4aef131f1cf9e4a41e08eab1d0b98"}, {"txinwitness": ["", "3045022100d58dda2800a15cda83a760503b90af53cb1e8dbc13eecdb6ee61ff3c988638bd022038b9f29bd72b57afe8ad8f968bbd6438c8146080e020f0e90798f5b7c4e46ec901", "3045022100f58f2a4c3fe492bdf3813f5fddf14433e109e802b7b7caf2927201f2ee44592502200fd8c2bc8fab56ad03c86c03fa5de83c4806107c8abc5bcc3205f7637521046601", "52210244cfb50b7aba0b7f8951614e91f161bebca208e39f4ed66be0eea9bdd5c2a15f21038407424ead2b88063db2d589e50c34e1572f6b82eb9e266dec536939ee0db9eb52ae"], "sequence": 4294967295, "scriptSig": {"hex": "220020d31f1bc0b9bfde3ba92712dcf151d1d3260c99ecd3d353a5a71aff0bfe011799", "asm": "0020d31f1bc0b9bfde3ba92712dcf151d1d3260c99ecd3d353a5a71aff0bfe011799"}, "vout": 1, "txid": "159460b7990b16bee64a19f25095bc36b5d9196c33cd9c1a978f556b90b9e883"}, {"txinwitness": ["", "3045022100a445f19f5e0d2bebc981ad59bb387b134d8e6a22b41b15fbbdb5d7965732f078022052769eec51dad91ca7173a392265594e79e924c0272390600a51dbe0fcfdeee001", "30450221009df72536c89b9aa9a12759a638dcd1efa5ca922fba5f62c9b07e896e425dabde0220143d39faf90a7250bdeb079ad1fcbc628edcc61719e9a43710864e8ce5efa40001", "5221029707d722e845a289743b2699482ac3751d0f87085efe2cae16779766710dcb9b21038407424ead2b88063db2d589e50c34e1572f6b82eb9e266dec536939ee0db9eb52ae"], "sequence": 4294967295, "scriptSig": {"hex": "220020ed67b870cd3e6b56da314c190d793d530acbda1307ac13204f79a528993c21a4", "asm": "0020ed67b870cd3e6b56da314c190d793d530acbda1307ac13204f79a528993c21a4"}, "vout": 1, "txid": "6ebbf5a2e2ca644c9ec01294820a40d2d6bb594622c18246b82cf8577aeb1b6e"}], "txid": "4d58b9f044448ebb58ad8e3c530b4493d143adbed761ed6a0d05d8129bee8788", "blocktime": 1537869901, "version": 1, "confirmations": 11522, "time": 1537869901, "locktime": 0, "vsize": 729, "size": 1551}