{"hash": "ae91b73c995bbc5bd00dfdc596001a388eb8c279cc04200ebb67ba07a3eaa88e", "blockhash": "0000000000000000001e0dab787dd257d1dbfcb92a98c2207d5e1078be1f4165", "vout": [{"scriptPubKey": {"reqSigs": 1, "hex": "a914590cae408a184b5ac63ee2d0819679916d882bcf87", "addresses": ["39osFghKy5eVsyUPLS1Wf7YmQAi1xFMM85"], "asm": "OP_HASH160 590cae408a184b5ac63ee2d0819679916d882bcf OP_EQUAL", "type": "scripthash"}, "value": 0.1309, "n": 0}, {"scriptPubKey": {"reqSigs": 1, "hex": "00140fff4c467933396099723a92f30ca25f6afbf409", "addresses": ["bc1qpll5c3nexvukpxtj82f0xr9zta40haqfpk78m3"], "asm": "0 0fff4c467933396099723a92f30ca25f6afbf409", "type": "witness_v0_keyhash"}, "value": 0.0073906, "n": 1}], "hex": "010000000001016f0cdedda4d9c1adac7753d74543c91953a8d5397ed300935df976880dc8a7780000000000ffffffff02d0bcc7000000000017a914590cae408a184b5ac63ee2d0819679916d882bcf87f4460b00000000001600140fff4c467933396099723a92f30ca25f6afbf40902483045022100898b251a1da3ee63d66de29586a62dcadf7766163d3d88a831456874f692cee302202c293ad0f6b83593b013391cc172860f47f2c619dd90f1fdcbfe29fcb033191701210307289ecdf6a4ed30fc27c6175c0e1ffebb0de26f1b8da4b9bc66751105556ec600000000", "vin": [{"txinwitness": ["3045022100898b251a1da3ee63d66de29586a62dcadf7766163d3d88a831456874f692cee302202c293ad0f6b83593b013391cc172860f47f2c619dd90f1fdcbfe29fcb033191701", "0307289ecdf6a4ed30fc27c6175c0e1ffebb0de26f1b8da4b9bc66751105556ec6"], "sequence": 4294967295, "scriptSig": {"hex": "", "asm": ""}, "vout": 0, "txid": "78a7c80d8876f95d9300d37e39d5a85319c94345d75377acadc1d9a4ddde0c6f"}], "txid": "4d59bd34422a6714c4d45b571795a42e7790b252e9f4ca5a3e223aeb7e036a43", "blocktime": 1537872475, "version": 1, "confirmations": 11486, "time": 1537872475, "locktime": 0, "vsize": 142, "size": 224}