{"hash": "4d5d70ddb953ce8e06671e5bab2912f87169595999b2b6b540ea9b0e5f7f87f8", "blockhash": "000000000000000000205f8b0775d31398ef75b89a5e8ec8d2c57b4dc0ac4c20", "vout": [{"scriptPubKey": {"reqSigs": 1, "hex": "76a914b314d095b18e474e6a33db4f0db80115ae00466688ac", "addresses": ["1HKttaJcctpfnEfbcKYzcVFB218B1yXEeN"], "asm": "OP_DUP OP_HASH160 b314d095b18e474e6a33db4f0db80115ae004666 OP_EQUALVERIFY OP_CHECKSIG", "type": "pubkeyhash"}, "value": 0.005, "n": 0}, {"scriptPubKey": {"reqSigs": 1, "hex": "76a91488d924f51033b74a895863a5fb57fd545529df7d88ac", "addresses": ["1DUb2YYbQA1jjaNYzVXLZ7ZioEhLXtbUru"], "asm": "OP_DUP OP_HASH160 88d924f51033b74a895863a5fb57fd545529df7d OP_EQUALVERIFY OP_CHECKSIG", "type": "pubkeyhash"}, "value": 4.07989642, "n": 1}], "hex": "0100000001fea54790c7f74a1f7fbaf9567018ed690ef16775613f733cd4d653aa205d2656020000006a47304402202a0c28563728de41d3b039b4bfa47e53cf50ae454675a74219ec92358c28ea76022040cc734bfcb59f3b5d8749a5c61074abf05c30574471086b56ac90ee521dbe6b0121030888863fcb4cdf5b7d33b40e613af35df8f39d576e7972238b0d396cd3fcc3f2ffffffff0220a10700000000001976a914b314d095b18e474e6a33db4f0db80115ae00466688ac8a6d5118000000001976a91488d924f51033b74a895863a5fb57fd545529df7d88ac00000000", "vin": [{"sequence": 4294967295, "scriptSig": {"hex": "47304402202a0c28563728de41d3b039b4bfa47e53cf50ae454675a74219ec92358c28ea76022040cc734bfcb59f3b5d8749a5c61074abf05c30574471086b56ac90ee521dbe6b0121030888863fcb4cdf5b7d33b40e613af35df8f39d576e7972238b0d396cd3fcc3f2", "asm": "304402202a0c28563728de41d3b039b4bfa47e53cf50ae454675a74219ec92358c28ea76022040cc734bfcb59f3b5d8749a5c61074abf05c30574471086b56ac90ee521dbe6b[ALL] 030888863fcb4cdf5b7d33b40e613af35df8f39d576e7972238b0d396cd3fcc3f2"}, "vout": 2, "txid": "56265d20aa53d6d43c733f617567f10e69ed187056f9ba7f1f4af7c79047a5fe"}], "txid": "4d5d70ddb953ce8e06671e5bab2912f87169595999b2b6b540ea9b0e5f7f87f8", "blocktime": 1537871175, "version": 1, "confirmations": 11511, "time": 1537871175, "locktime": 0, "vsize": 225, "size": 225}