{"hash": "4d63e2c8cce2e67e6cbd8e5171ef351bd60ef141d948465841a3bdb75eb6f755", "blockhash": "00000000000000000004ffacab907a6b429b9a5745fa0b75af4234bf69dd7176", "vout": [{"scriptPubKey": {"reqSigs": 1, "hex": "76a9149703a54fbbe8b213801d9705042ebea644c034db88ac", "addresses": ["1EmVQH6AfTnEMPBARNDvc4iMSViDEQUN3F"], "asm": "OP_DUP OP_HASH160 9703a54fbbe8b213801d9705042ebea644c034db OP_EQUALVERIFY OP_CHECKSIG", "type": "pubkeyhash"}, "value": 0.55225608, "n": 0}, {"scriptPubKey": {"reqSigs": 1, "hex": "76a914d998dae9a19f72cddab178b5968747e526cfbc7888ac", "addresses": ["1LqYkBtEyKJCKDwX2UwRfoERLpwHgM3xMW"], "asm": "OP_DUP OP_HASH160 d998dae9a19f72cddab178b5968747e526cfbc78 OP_EQUALVERIFY OP_CHECKSIG", "type": "pubkeyhash"}, "value": 0.158171, "n": 1}], "hex": "01000000016b2b1dd1b3a022d026040255a2012d1f36b3186aace7af7b68db3a9ac6cb0275090000006a473044022014735c325730e05474538b919cfa23c975a4d1732be99c1e2dab102821696a7102202d99bd3c32e6756d99840326234d9e4180c169749e0e11491840c1ef99afe697012102eacbcd6cc44053723112866678447107f877c9d9f3726c37b33f9da028971baaffffffff0208ad4a03000000001976a9149703a54fbbe8b213801d9705042ebea644c034db88ac8c59f100000000001976a914d998dae9a19f72cddab178b5968747e526cfbc7888ac00000000", "vin": [{"sequence": 4294967295, "scriptSig": {"hex": "473044022014735c325730e05474538b919cfa23c975a4d1732be99c1e2dab102821696a7102202d99bd3c32e6756d99840326234d9e4180c169749e0e11491840c1ef99afe697012102eacbcd6cc44053723112866678447107f877c9d9f3726c37b33f9da028971baa", "asm": "3044022014735c325730e05474538b919cfa23c975a4d1732be99c1e2dab102821696a7102202d99bd3c32e6756d99840326234d9e4180c169749e0e11491840c1ef99afe697[ALL] 02eacbcd6cc44053723112866678447107f877c9d9f3726c37b33f9da028971baa"}, "vout": 9, "txid": "7502cbc69a3adb687bafe7ac6a18b3361f2d01a255020426d022a0b3d11d2b6b"}], "txid": "4d63e2c8cce2e67e6cbd8e5171ef351bd60ef141d948465841a3bdb75eb6f755", "blocktime": 1537875543, "version": 1, "confirmations": 11464, "time": 1537875543, "locktime": 0, "vsize": 225, "size": 225}