{"hash": "2786438409697e0a11af5a4cc1b65a8e967031419bcee78d0c399fb20d435558", "blockhash": "000000000000000000022b45ed06c6f4ccd3cf7fb5ba4856ebd2e58215665228", "vout": [{"scriptPubKey": {"reqSigs": 1, "hex": "76a91476cc00268397d20be9f872014daa341ea29b861a88ac", "addresses": ["1Bq97r2dW814jmg8JgvTUoNQMgLReoPRVs"], "asm": "OP_DUP OP_HASH160 76cc00268397d20be9f872014daa341ea29b861a OP_EQUALVERIFY OP_CHECKSIG", "type": "pubkeyhash"}, "value": 0.023411, "n": 0}, {"scriptPubKey": {"reqSigs": 1, "hex": "a914dfd1213147d5d54d4aad763135eaa3a8d210959187", "addresses": ["3N6T8uTn4JoLnkfMcMPCRQ6VBMwc7jqFp6"], "asm": "OP_HASH160 dfd1213147d5d54d4aad763135eaa3a8d2109591 OP_EQUAL", "type": "scripthash"}, "value": 0.02656472, "n": 1}], "hex": "02000000000101e1dc1e27552ffcd7baf8788f40b8125e70af0a3d74848f20a1561cb5f145e1cd0100000017160014c575f3e4726d725c5d86ab41bf01a4567d3dca24ffffffff02ecb82300000000001976a91476cc00268397d20be9f872014daa341ea29b861a88acd88828000000000017a914dfd1213147d5d54d4aad763135eaa3a8d210959187024730440220495fd6a9a56c499895f37cc750f82044a619db8e1eb047279f14a5892a864c3302202c94ddda4f1287880f8d35b1aa02672b10f7e3c9c09927f600493b4d02ad30a0012102c5482cacd1f08d44dbbd417b85b41f94dc92b82d49888e6f05eab2dfb23c512e00000000", "vin": [{"txinwitness": ["30440220495fd6a9a56c499895f37cc750f82044a619db8e1eb047279f14a5892a864c3302202c94ddda4f1287880f8d35b1aa02672b10f7e3c9c09927f600493b4d02ad30a001", "02c5482cacd1f08d44dbbd417b85b41f94dc92b82d49888e6f05eab2dfb23c512e"], "sequence": 4294967295, "scriptSig": {"hex": "160014c575f3e4726d725c5d86ab41bf01a4567d3dca24", "asm": "0014c575f3e4726d725c5d86ab41bf01a4567d3dca24"}, "vout": 1, "txid": "cde145f1b51c56a1208f84743d0aaf705e12b8408f78f8bad7fc2f55271edce1"}], "txid": "4d6417803c279e4105dbf162779197b0749fe2daf8ba528a0d12c0fcc160d70c", "blocktime": 1537869901, "version": 2, "confirmations": 11522, "time": 1537869901, "locktime": 0, "vsize": 168, "size": 249}