{"hash": "4d65a5ac8b250bf1bbdc69ac721dddce9fbe85da24dc333a53eec584fb61980f", "blockhash": "0000000000000000000baef3f32e3676a92c3b2e5da21b426e4f302fc371ce76", "vout": [{"scriptPubKey": {"type": "nulldata", "hex": "6a4c50000078250001e43253a151760d471cb5d826019d6ddc0f1b8ff117702940d64fa54d8eb2ed1c8c257f307573a921e1029cab64255baa1e3d061414d5308588c1bc9a9526289ac0f6612cd74e33776ee4", "asm": "OP_RETURN 000078250001e43253a151760d471cb5d826019d6ddc0f1b8ff117702940d64fa54d8eb2ed1c8c257f307573a921e1029cab64255baa1e3d061414d5308588c1bc9a9526289ac0f6612cd74e33776ee4"}, "value": 0.0, "n": 0}, {"scriptPubKey": {"reqSigs": 1, "hex": "76a9140ab7fbf341befcb717cc9e9192af602ab7a081d988ac", "addresses": ["1ygAN54tgGzAA1cfDRpkMhhkBVc7sbnCR"], "asm": "OP_DUP OP_HASH160 0ab7fbf341befcb717cc9e9192af602ab7a081d9 OP_EQUALVERIFY OP_CHECKSIG", "type": "pubkeyhash"}, "value": 0.0004366, "n": 1}], "hex": "010000000148488338a9953c298e5fed05372017ab4336c62631ba63345afd4b638fff5a00000000006a473044022065544741814f134fee8c460ee4abea2600bb6c17c64689e7d1d6d1fe617e2aff02204e88d52d09c1c6404ac02716ee24799475b47d4b5b1e17cd9e9242c16bbff11501210240965dcec936d0183180de263f2143a137857b0bbeb8a91a2ab4e51d151fc71dffffffff020000000000000000536a4c50000078250001e43253a151760d471cb5d826019d6ddc0f1b8ff117702940d64fa54d8eb2ed1c8c257f307573a921e1029cab64255baa1e3d061414d5308588c1bc9a9526289ac0f6612cd74e33776ee48caa0000000000001976a9140ab7fbf341befcb717cc9e9192af602ab7a081d988ac00000000", "vin": [{"sequence": 4294967295, "scriptSig": {"hex": "473044022065544741814f134fee8c460ee4abea2600bb6c17c64689e7d1d6d1fe617e2aff02204e88d52d09c1c6404ac02716ee24799475b47d4b5b1e17cd9e9242c16bbff11501210240965dcec936d0183180de263f2143a137857b0bbeb8a91a2ab4e51d151fc71d", "asm": "3044022065544741814f134fee8c460ee4abea2600bb6c17c64689e7d1d6d1fe617e2aff02204e88d52d09c1c6404ac02716ee24799475b47d4b5b1e17cd9e9242c16bbff115[ALL] 0240965dcec936d0183180de263f2143a137857b0bbeb8a91a2ab4e51d151fc71d"}, "vout": 0, "txid": "005aff8f634bfd5a3463ba3126c63643ab17203705ed5f8e293c95a938834848"}], "txid": "4d65a5ac8b250bf1bbdc69ac721dddce9fbe85da24dc333a53eec584fb61980f", "blocktime": 1537876114, "version": 1, "confirmations": 11460, "time": 1537876114, "locktime": 0, "vsize": 283, "size": 283}