{"hash": "b826e56d1d54172a2c14cd683eb0a76dcaf95d7e52a8d653a2f1c7ea8fb56bb5", "blockhash": "0000000000000000001f76057863aec43deb6fa401d9628bb513d65a8098bfab", "vout": [{"scriptPubKey": {"reqSigs": 1, "hex": "76a91487422a2669d3a5419b3a82ba356c8fdbb918700a88ac", "addresses": ["1DLBV6exCXzQsYnTtYomgV7dRHAd97tMff"], "asm": "OP_DUP OP_HASH160 87422a2669d3a5419b3a82ba356c8fdbb918700a OP_EQUALVERIFY OP_CHECKSIG", "type": "pubkeyhash"}, "value": 0.0115, "n": 0}, {"scriptPubKey": {"reqSigs": 1, "hex": "00148bfb7dcff6493f77a2ffbea613a182a0328ae258", "addresses": ["bc1q30ahmnlkfylh0ghlh6np8gvz5qeg4cjczysqlu"], "asm": "0 8bfb7dcff6493f77a2ffbea613a182a0328ae258", "type": "witness_v0_keyhash"}, "value": 0.91483105, "n": 1}], "hex": "010000000001013e070c871d70ffe13701f7e5d60c83616f4e20388eb9527266ee4d200888bc4d0100000000ffffffff02308c1100000000001976a91487422a2669d3a5419b3a82ba356c8fdbb918700a88ace1eb7305000000001600148bfb7dcff6493f77a2ffbea613a182a0328ae25802483045022100c6b909d2929bd442cd97461300a2b1194be12adad227ff7935a0a9a52e67d6a002207a390ecc06ff8461ce50e0684893dd502a39e01eb45c1d80168486cb9db65b87012102f91a4b2cf0d4ccfaa757bbee159487fd1401585e6b95f96c6b5f54c91e45e3b000000000", "vin": [{"txinwitness": ["3045022100c6b909d2929bd442cd97461300a2b1194be12adad227ff7935a0a9a52e67d6a002207a390ecc06ff8461ce50e0684893dd502a39e01eb45c1d80168486cb9db65b8701", "02f91a4b2cf0d4ccfaa757bbee159487fd1401585e6b95f96c6b5f54c91e45e3b0"], "sequence": 4294967295, "scriptSig": {"hex": "", "asm": ""}, "vout": 1, "txid": "4dbc8808204dee667252b98e38204e6f61830cd6e5f70137e1ff701d870c073e"}], "txid": "4d676e46395db6df5a71c275b4b6a86115de379cd1a6eebbd8542ba6312cfb0a", "blocktime": 1537873891, "version": 1, "confirmations": 11478, "time": 1537873891, "locktime": 0, "vsize": 144, "size": 226}