{"hash": "4d6871d3fb131d37d56d67c6d362dcc39703778a844f114cda933fb61cef2839", "blockhash": "0000000000000000000dcc0f55137456b1a82d3642486a52398922ac4d620174", "vout": [{"scriptPubKey": {"type": "nulldata", "hex": "6a4c500000776c0001ab806348ac0458a304e2218a86aeaeacb577c031fc3a016b46dc7dc7d096c53662e1a68b38bd2bb20a9e62968ad45baa0878061399fb5ed936abbc9a9526289ac0f6612cd74e33776ee4", "asm": "OP_RETURN 0000776c0001ab806348ac0458a304e2218a86aeaeacb577c031fc3a016b46dc7dc7d096c53662e1a68b38bd2bb20a9e62968ad45baa0878061399fb5ed936abbc9a9526289ac0f6612cd74e33776ee4"}, "value": 0.0, "n": 0}, {"scriptPubKey": {"reqSigs": 1, "hex": "76a914cbd1e443e1839400d50667d47006edd42b8654e188ac", "addresses": ["1KahcUFWzE2maqDkTeY9u1QSzKytN768G9"], "asm": "OP_DUP OP_HASH160 cbd1e443e1839400d50667d47006edd42b8654e1 OP_EQUALVERIFY OP_CHECKSIG", "type": "pubkeyhash"}, "value": 0.014829, "n": 1}], "hex": "01000000018389faf0de4d60355729dcb1b34533447fa910eb6f6fbc5b7f9db8dc3d374138010000006a47304402206223833ae4603a5adafc1bf19c7b4dc30944925fdf0c82aeb143c0339e039f6d02203872c3ffbc2356dc2546b65e9805d06f486e90e5a23af24dd0bcec0fe13c920a0121021094ccdf1d6d297255771b7eb5a03d8944f254b65e08e04e4e177173f0eb9e14ffffffff020000000000000000536a4c500000776c0001ab806348ac0458a304e2218a86aeaeacb577c031fc3a016b46dc7dc7d096c53662e1a68b38bd2bb20a9e62968ad45baa0878061399fb5ed936abbc9a9526289ac0f6612cd74e33776ee494a01600000000001976a914cbd1e443e1839400d50667d47006edd42b8654e188ac00000000", "vin": [{"sequence": 4294967295, "scriptSig": {"hex": "47304402206223833ae4603a5adafc1bf19c7b4dc30944925fdf0c82aeb143c0339e039f6d02203872c3ffbc2356dc2546b65e9805d06f486e90e5a23af24dd0bcec0fe13c920a0121021094ccdf1d6d297255771b7eb5a03d8944f254b65e08e04e4e177173f0eb9e14", "asm": "304402206223833ae4603a5adafc1bf19c7b4dc30944925fdf0c82aeb143c0339e039f6d02203872c3ffbc2356dc2546b65e9805d06f486e90e5a23af24dd0bcec0fe13c920a[ALL] 021094ccdf1d6d297255771b7eb5a03d8944f254b65e08e04e4e177173f0eb9e14"}, "vout": 1, "txid": "3841373ddcb89d7f5bbc6f6feb10a97f443345b3b1dc295735604ddef0fa8983"}], "txid": "4d6871d3fb131d37d56d67c6d362dcc39703778a844f114cda933fb61cef2839", "blocktime": 1537870268, "version": 1, "confirmations": 11518, "time": 1537870268, "locktime": 0, "vsize": 283, "size": 283}