{"hash": "4d692f8577fbb6a61b9de65a95c998218b58f6f4695bea945a9222ae26261016", "blockhash": "00000000000000000024a2167bbff67b0be802c0b01cdd79e6331c2be6459f87", "vout": [{"scriptPubKey": {"reqSigs": 1, "hex": "76a9147e93f8131ad09d27c82b473bf297832d0f37bc0388ac", "addresses": ["1CYHQEuwofgESmYPoB4GdmTWmkkW3VV27B"], "asm": "OP_DUP OP_HASH160 7e93f8131ad09d27c82b473bf297832d0f37bc03 OP_EQUALVERIFY OP_CHECKSIG", "type": "pubkeyhash"}, "value": 0.00560438, "n": 0}, {"scriptPubKey": {"reqSigs": 1, "hex": "a91430fc11f1a144bc19163ae8fc66b41590b22e33f587", "addresses": ["36A2KtVxXp7No7DHadUWZt3Mskstiudq6d"], "asm": "OP_HASH160 30fc11f1a144bc19163ae8fc66b41590b22e33f5 OP_EQUAL", "type": "scripthash"}, "value": 0.17159, "n": 1}], "hex": "0100000002ad5ada12afbbfeda73b3f456b4c450a8d9cbb7d556de870e7e2295f318fed705010000006b483045022100bcc2a1cd46a61751603d51e344954b07996a9d4b83de031cf5ccbe848340605d02205d7a5939433851b148d6302d7c862b5df96d72800944752c96e9c767d302b1bf0121037b9e4c524b3665bfbe14b0274d46120dcd9519d1e94a57fe7636f6d0624f6399fffffffff967ee87d629c225e7a66b0e00905adadf8c78081e5e6ff9b1974ffc4c56c11a000000006b483045022100f023e34802d760f00090f01d71622ec5cc0d31b4cf3ad9993a815fd35ae04918022047c14647cc341c9f7a74ee749187cd003c531dd43933e37bf5aef81b731f7ff3012103ed5b519101dc329ac34bd79bdef3c202676910350565aa65cc61b7d63b63c290ffffffff02368d0800000000001976a9147e93f8131ad09d27c82b473bf297832d0f37bc0388ac58d305010000000017a91430fc11f1a144bc19163ae8fc66b41590b22e33f58700000000", "vin": [{"sequence": 4294967295, "scriptSig": {"hex": "483045022100bcc2a1cd46a61751603d51e344954b07996a9d4b83de031cf5ccbe848340605d02205d7a5939433851b148d6302d7c862b5df96d72800944752c96e9c767d302b1bf0121037b9e4c524b3665bfbe14b0274d46120dcd9519d1e94a57fe7636f6d0624f6399", "asm": "3045022100bcc2a1cd46a61751603d51e344954b07996a9d4b83de031cf5ccbe848340605d02205d7a5939433851b148d6302d7c862b5df96d72800944752c96e9c767d302b1bf[ALL] 037b9e4c524b3665bfbe14b0274d46120dcd9519d1e94a57fe7636f6d0624f6399"}, "vout": 1, "txid": "05d7fe18f395227e0e87de56d5b7cbd9a850c4b456f4b373dafebbaf12da5aad"}, {"sequence": 4294967295, "scriptSig": {"hex": "483045022100f023e34802d760f00090f01d71622ec5cc0d31b4cf3ad9993a815fd35ae04918022047c14647cc341c9f7a74ee749187cd003c531dd43933e37bf5aef81b731f7ff3012103ed5b519101dc329ac34bd79bdef3c202676910350565aa65cc61b7d63b63c290", "asm": "3045022100f023e34802d760f00090f01d71622ec5cc0d31b4cf3ad9993a815fd35ae04918022047c14647cc341c9f7a74ee749187cd003c531dd43933e37bf5aef81b731f7ff3[ALL] 03ed5b519101dc329ac34bd79bdef3c202676910350565aa65cc61b7d63b63c290"}, "vout": 0, "txid": "1ac1564cfc4f97b1f96f5e1e08788cdfda5a90000e6ba6e725c229d687ee67f9"}], "txid": "4d692f8577fbb6a61b9de65a95c998218b58f6f4695bea945a9222ae26261016", "blocktime": 1537870564, "version": 1, "confirmations": 11515, "time": 1537870564, "locktime": 0, "vsize": 372, "size": 372}