{"hash": "4d6bb245d8712c0dfbef8353017ef326809a8c10e1937e7b4867a74ea57d5e50", "blockhash": "00000000000000000004ffacab907a6b429b9a5745fa0b75af4234bf69dd7176", "vout": [{"scriptPubKey": {"reqSigs": 1, "hex": "76a91412f7c84815cf4b72a7c054f50f0adcd76eccf99688ac", "addresses": ["12jHzg16QNdjvvh5yEPdjR4x6QPPj9EFp7"], "asm": "OP_DUP OP_HASH160 12f7c84815cf4b72a7c054f50f0adcd76eccf996 OP_EQUALVERIFY OP_CHECKSIG", "type": "pubkeyhash"}, "value": 0.01657407, "n": 0}, {"scriptPubKey": {"reqSigs": 1, "hex": "76a9145a1610d82500699d499d895606dacf80619d701588ac", "addresses": ["19DLFRYsgmqaoS9XRn6gDP4iLBzZLwMJvo"], "asm": "OP_DUP OP_HASH160 5a1610d82500699d499d895606dacf80619d7015 OP_EQUALVERIFY OP_CHECKSIG", "type": "pubkeyhash"}, "value": 0.00049251, "n": 1}], "hex": "0100000001c79cb568ecdfa33d5ac919d58057c6eb7b4dad72a6f0b296286e7ed72a8b5f51000000006b483045022100bcd572a6d46c20a91f0aba6a674f41744e90e85609415ee08d3de265dca88604022041f159fc70824e50e32f50fa684b06aa67cb3442d750f0e13446a93ab1ec819f01210267b655f89b9462c6ca289086e0c72aa6ec91bbde63950da3a2b54458bc3a001fffffffff023f4a1900000000001976a91412f7c84815cf4b72a7c054f50f0adcd76eccf99688ac63c00000000000001976a9145a1610d82500699d499d895606dacf80619d701588ac00000000", "vin": [{"sequence": 4294967295, "scriptSig": {"hex": "483045022100bcd572a6d46c20a91f0aba6a674f41744e90e85609415ee08d3de265dca88604022041f159fc70824e50e32f50fa684b06aa67cb3442d750f0e13446a93ab1ec819f01210267b655f89b9462c6ca289086e0c72aa6ec91bbde63950da3a2b54458bc3a001f", "asm": "3045022100bcd572a6d46c20a91f0aba6a674f41744e90e85609415ee08d3de265dca88604022041f159fc70824e50e32f50fa684b06aa67cb3442d750f0e13446a93ab1ec819f[ALL] 0267b655f89b9462c6ca289086e0c72aa6ec91bbde63950da3a2b54458bc3a001f"}, "vout": 0, "txid": "515f8b2ad77e6e2896b2f0a672ad4d7bebc65780d519c95a3da3dfec68b59cc7"}], "txid": "4d6bb245d8712c0dfbef8353017ef326809a8c10e1937e7b4867a74ea57d5e50", "blocktime": 1537875543, "version": 1, "confirmations": 11464, "time": 1537875543, "locktime": 0, "vsize": 226, "size": 226}