{"hash": "d004f82b0f7d9c725397a465243502b6578926785cd5c4f3bdcc0b37f80f10f2", "blockhash": "0000000000000000000dcc0f55137456b1a82d3642486a52398922ac4d620174", "vout": [{"scriptPubKey": {"reqSigs": 1, "hex": "76a914637fc10e0d0dd4b05ec9269551921d87131d4f1588ac", "addresses": ["1A56wWBXifkR7RsSmaqPZ1S9UVfvoCF474"], "asm": "OP_DUP OP_HASH160 637fc10e0d0dd4b05ec9269551921d87131d4f15 OP_EQUALVERIFY OP_CHECKSIG", "type": "pubkeyhash"}, "value": 0.00010354, "n": 0}, {"scriptPubKey": {"reqSigs": 1, "hex": "a914b8a9a8ba8cf965b7df6b05afd948e53c351b2c0d87", "addresses": ["3JXRVxhrk2o9f4w3cQchBLwUeegJBj6BEp"], "asm": "OP_HASH160 b8a9a8ba8cf965b7df6b05afd948e53c351b2c0d OP_EQUAL", "type": "scripthash"}, "value": 0.15188192, "n": 1}], "hex": "01000000000101bb49b7c3777f1321d15bd20bd3121fba9ce1eded317668cf9ba8046a97bafacc010000002322002065d416c48a8072e0ac51c2d111eb194f009caef0332446c1bf2097316cf07fa9ffffffff0272280000000000001976a914637fc10e0d0dd4b05ec9269551921d87131d4f1588ace0c0e7000000000017a914b8a9a8ba8cf965b7df6b05afd948e53c351b2c0d870400483045022100d91297b2e3fda866efe677fee8736e9689d02e2613135d3a90c8eb968c624aa9022027099fbdc01a1fa30e41ff88964b48a427e5ba8294b50032c2e50932ec7adfc50147304402201b4e8a5297c0fc61216bf34cdac2f13aa52d618f7f6d3dc5ed9627618b4c9faf022071de28227eaf0c7062bca3bcedba59f5d0295806a38babf63624099b0cb2c11c0169522102f44abcf9e23c9a460da309ccca56c619c04eed3bde2c2cff5e7d78fbcd980b9c2103c9443cf3047bb6c2c82f1b0c44c36109cdc3d0d601d16d1189a1602bf8d1a0a02103bfe867059274412412e088af5572b92168c2ef495cfe6c9b7a753a009eb37c4853ae00000000", "vin": [{"txinwitness": ["", "3045022100d91297b2e3fda866efe677fee8736e9689d02e2613135d3a90c8eb968c624aa9022027099fbdc01a1fa30e41ff88964b48a427e5ba8294b50032c2e50932ec7adfc501", "304402201b4e8a5297c0fc61216bf34cdac2f13aa52d618f7f6d3dc5ed9627618b4c9faf022071de28227eaf0c7062bca3bcedba59f5d0295806a38babf63624099b0cb2c11c01", "522102f44abcf9e23c9a460da309ccca56c619c04eed3bde2c2cff5e7d78fbcd980b9c2103c9443cf3047bb6c2c82f1b0c44c36109cdc3d0d601d16d1189a1602bf8d1a0a02103bfe867059274412412e088af5572b92168c2ef495cfe6c9b7a753a009eb37c4853ae"], "sequence": 4294967295, "scriptSig": {"hex": "22002065d416c48a8072e0ac51c2d111eb194f009caef0332446c1bf2097316cf07fa9", "asm": "002065d416c48a8072e0ac51c2d111eb194f009caef0332446c1bf2097316cf07fa9"}, "vout": 1, "txid": "ccfaba976a04a89bcf687631edede19cba1f12d30bd25bd121137f77c3b749bb"}], "txid": "4d6ba06c911962e92d66b1aacd08c6a56efecdb72f7b1948f6ab67da55dd9e56", "blocktime": 1537870268, "version": 1, "confirmations": 11516, "time": 1537870268, "locktime": 0, "vsize": 216, "size": 407}