{"hash": "83c152fd252fe31ab15f7fab4bcaf27cce0ffd948c335654857b9dff74374032", "blockhash": "0000000000000000000dcc0f55137456b1a82d3642486a52398922ac4d620174", "vout": [{"scriptPubKey": {"reqSigs": 1, "hex": "0014f2e5234a49df8bf3b422f8fefa1a6881c7c031b3", "addresses": ["bc1q7tjjxjjfm79l8dpzlrl05xngs8ruqvdn0aunz0"], "asm": "0 f2e5234a49df8bf3b422f8fefa1a6881c7c031b3", "type": "witness_v0_keyhash"}, "value": 1.167e-05, "n": 0}, {"scriptPubKey": {"reqSigs": 1, "hex": "76a914bb1330f3d76e0e3a6cf3aef0d22689d907d4338d88ac", "addresses": ["1J4AMJVrcGfeAeCAHPLcLZNdGYZTS6tEia"], "asm": "OP_DUP OP_HASH160 bb1330f3d76e0e3a6cf3aef0d22689d907d4338d OP_EQUALVERIFY OP_CHECKSIG", "type": "pubkeyhash"}, "value": 0.00226879, "n": 1}], "hex": "010000000001013370dc91df03904ce13f2d6fe74eb362694a48bdaaecdcd474fa88fcc64e40210000000017160014ed292a56aba04031dacc915fe286f014bda2265bffffffff028f04000000000000160014f2e5234a49df8bf3b422f8fefa1a6881c7c031b33f760300000000001976a914bb1330f3d76e0e3a6cf3aef0d22689d907d4338d88ac0247304402203693edb410976ff9634f8103079f7aff3e716b4bfd43af2ac96088578507114502203913b5e0ed67ba7435d6483235e9994d5816767c780a3acfe51dcb3507728dc7012103fcdb63965b162432188ac199d0d13e0c4aac9701ae46a371eea8a6f47597c71100000000", "vin": [{"txinwitness": ["304402203693edb410976ff9634f8103079f7aff3e716b4bfd43af2ac96088578507114502203913b5e0ed67ba7435d6483235e9994d5816767c780a3acfe51dcb3507728dc701", "03fcdb63965b162432188ac199d0d13e0c4aac9701ae46a371eea8a6f47597c711"], "sequence": 4294967295, "scriptSig": {"hex": "160014ed292a56aba04031dacc915fe286f014bda2265b", "asm": "0014ed292a56aba04031dacc915fe286f014bda2265b"}, "vout": 0, "txid": "21404ec6fc88fa74d4dcecaabd484a6962b34ee76f2d3fe14c9003df91dc7033"}], "txid": "4d70da5696247d4c5c796129212d8612f3e73937f2da5ada25b54acc86bc5c67", "blocktime": 1537870268, "version": 1, "confirmations": 11518, "time": 1537870268, "locktime": 0, "vsize": 167, "size": 248}