{"hash": "4d7177c7eb374eb3df0b4cc0a9f46415d77589426ead9ec56e58e494ebef8708", "blockhash": "00000000000000000024a2167bbff67b0be802c0b01cdd79e6331c2be6459f87", "vout": [{"scriptPubKey": {"reqSigs": 1, "hex": "76a914968ab67da114dac8f172197c8ec6e875d4363bdb88ac", "addresses": ["1EizXiLNT5YNuQDg3StxiL8B4mfGpcASnG"], "asm": "OP_DUP OP_HASH160 968ab67da114dac8f172197c8ec6e875d4363bdb OP_EQUALVERIFY OP_CHECKSIG", "type": "pubkeyhash"}, "value": 0.030811, "n": 0}, {"scriptPubKey": {"reqSigs": 1, "hex": "76a91439cfda9eeef34dcb05d6637adf27f1b9bdb3bf7d88ac", "addresses": ["16GgWtBzjZHVRNrhq5UY1YgwP25z1zmSBX"], "asm": "OP_DUP OP_HASH160 39cfda9eeef34dcb05d6637adf27f1b9bdb3bf7d OP_EQUALVERIFY OP_CHECKSIG", "type": "pubkeyhash"}, "value": 7.84115437, "n": 1}], "hex": "01000000016cff20c68d590e99f7814acdda198c76551caa08527f41861ba742d3e8428050000000006a4730440220616b1f5156d8e3bb0074583d280fab1d765b3a59bdd47944546cad75d0e8c25902203ded6bedf098851ac7252ed9d45bb6657c421679aa77c6d8f2f83b7ed375a29201210381f1798ffbc02c795db4e73a568a548f6ce4afd556003f29f5cce55de2ec7665ffffffff028c032f00000000001976a914968ab67da114dac8f172197c8ec6e875d4363bdb88aceda6bc2e000000001976a91439cfda9eeef34dcb05d6637adf27f1b9bdb3bf7d88ac00000000", "vin": [{"sequence": 4294967295, "scriptSig": {"hex": "4730440220616b1f5156d8e3bb0074583d280fab1d765b3a59bdd47944546cad75d0e8c25902203ded6bedf098851ac7252ed9d45bb6657c421679aa77c6d8f2f83b7ed375a29201210381f1798ffbc02c795db4e73a568a548f6ce4afd556003f29f5cce55de2ec7665", "asm": "30440220616b1f5156d8e3bb0074583d280fab1d765b3a59bdd47944546cad75d0e8c25902203ded6bedf098851ac7252ed9d45bb6657c421679aa77c6d8f2f83b7ed375a292[ALL] 0381f1798ffbc02c795db4e73a568a548f6ce4afd556003f29f5cce55de2ec7665"}, "vout": 0, "txid": "508042e8d342a71b86417f5208aa1c55768c19dacd4a81f7990e598dc620ff6c"}], "txid": "4d7177c7eb374eb3df0b4cc0a9f46415d77589426ead9ec56e58e494ebef8708", "blocktime": 1537870564, "version": 1, "confirmations": 11515, "time": 1537870564, "locktime": 0, "vsize": 225, "size": 225}