{"hash": "4d725934a8e01774fd8289e8ed66b0a9575e69764054519196ef369f0303a193", "blockhash": "00000000000000000017f5eb5941039fbcee6240d03bc1f2f8e35350df66a1d8", "vout": [{"scriptPubKey": {"reqSigs": 1, "hex": "76a914fc74532c1bcb9f13cbe345fb912c88e9e07e4f0688ac", "addresses": ["1Q1rdjiPZsQtybhcxk376oeRYHznd9Lc9M"], "asm": "OP_DUP OP_HASH160 fc74532c1bcb9f13cbe345fb912c88e9e07e4f06 OP_EQUALVERIFY OP_CHECKSIG", "type": "pubkeyhash"}, "value": 0.007, "n": 0}, {"scriptPubKey": {"reqSigs": 1, "hex": "76a914d5ba2eb2d52670fbe9522748bf642da754eb0d6f88ac", "addresses": ["1LV5y3NkVkmdWnF6xRCEXrAnUkRgge4KSq"], "asm": "OP_DUP OP_HASH160 d5ba2eb2d52670fbe9522748bf642da754eb0d6f OP_EQUALVERIFY OP_CHECKSIG", "type": "pubkeyhash"}, "value": 11.99442233, "n": 1}], "hex": "0100000001b1efd21cc276eae893f55bf5838d99c0cb1e72a47f270f5461a048b3ceedfc1b010000006b4830450221009d1d8fcce41138d85be9ca69439402d3069eac21b95cec2500da22b53b14c56702207dacfc20de9a8112f771c7eaa8a8e6fdfd8e06b58500da7a491c408b9b5ed37b012102c19ebc0e7fe714e24c55adaeebc7dbab2dc9a208b511bd1b6e83db85506d4d19ffffffff0260ae0a00000000001976a914fc74532c1bcb9f13cbe345fb912c88e9e07e4f0688ac39097e47000000001976a914d5ba2eb2d52670fbe9522748bf642da754eb0d6f88ac00000000", "vin": [{"sequence": 4294967295, "scriptSig": {"hex": "4830450221009d1d8fcce41138d85be9ca69439402d3069eac21b95cec2500da22b53b14c56702207dacfc20de9a8112f771c7eaa8a8e6fdfd8e06b58500da7a491c408b9b5ed37b012102c19ebc0e7fe714e24c55adaeebc7dbab2dc9a208b511bd1b6e83db85506d4d19", "asm": "30450221009d1d8fcce41138d85be9ca69439402d3069eac21b95cec2500da22b53b14c56702207dacfc20de9a8112f771c7eaa8a8e6fdfd8e06b58500da7a491c408b9b5ed37b[ALL] 02c19ebc0e7fe714e24c55adaeebc7dbab2dc9a208b511bd1b6e83db85506d4d19"}, "vout": 1, "txid": "1bfcedceb348a061540f277fa4721ecbc0998d83f55bf593e8ea76c21cd2efb1"}], "txid": "4d725934a8e01774fd8289e8ed66b0a9575e69764054519196ef369f0303a193", "blocktime": 1537874412, "version": 1, "confirmations": 11467, "time": 1537874412, "locktime": 0, "vsize": 226, "size": 226}