{"hash": "4d7357c1a59009a2db36363475e116d892755ef7016d1db9a4442eaf3562269f", "blockhash": "0000000000000000001f76057863aec43deb6fa401d9628bb513d65a8098bfab", "vout": [{"scriptPubKey": {"reqSigs": 1, "hex": "a914b13af49d1355ca7ca7c5236fe2418e1b49b68caf87", "addresses": ["3Hr89oJn3kBfWuMEghVHcW8pYCccJxyb21"], "asm": "OP_HASH160 b13af49d1355ca7ca7c5236fe2418e1b49b68caf OP_EQUAL", "type": "scripthash"}, "value": 0.00105, "n": 0}, {"scriptPubKey": {"reqSigs": 1, "hex": "76a9145ab315804d3c3f56d4ce74130f3f2fe9dd7b6e9a88ac", "addresses": ["19GaMEq5wZkAi6GVJgyXwekP62KVbcCNP6"], "asm": "OP_DUP OP_HASH160 5ab315804d3c3f56d4ce74130f3f2fe9dd7b6e9a OP_EQUALVERIFY OP_CHECKSIG", "type": "pubkeyhash"}, "value": 3.658e-05, "n": 1}], "hex": "01000000010ab138c6a0e790be0cf2353b8558dd124341bbe561df53cc0c32c085a85d6a9e010000006a4730440220635e73e4a44e5ed6e99f79b0c597c7cce2b0acabe174d0560a791ff2992af28a02203ee850b5f0a14d34051ec63ecf15b9bd891736a22e597460004e0d0b515651f60121036adc945c6e14b97bda2ba083abfe7c7b9970d1bdc16beb253172dff86b2b4f9fffffffff02289a01000000000017a914b13af49d1355ca7ca7c5236fe2418e1b49b68caf874a0e0000000000001976a9145ab315804d3c3f56d4ce74130f3f2fe9dd7b6e9a88ac00000000", "vin": [{"sequence": 4294967295, "scriptSig": {"hex": "4730440220635e73e4a44e5ed6e99f79b0c597c7cce2b0acabe174d0560a791ff2992af28a02203ee850b5f0a14d34051ec63ecf15b9bd891736a22e597460004e0d0b515651f60121036adc945c6e14b97bda2ba083abfe7c7b9970d1bdc16beb253172dff86b2b4f9f", "asm": "30440220635e73e4a44e5ed6e99f79b0c597c7cce2b0acabe174d0560a791ff2992af28a02203ee850b5f0a14d34051ec63ecf15b9bd891736a22e597460004e0d0b515651f6[ALL] 036adc945c6e14b97bda2ba083abfe7c7b9970d1bdc16beb253172dff86b2b4f9f"}, "vout": 1, "txid": "9e6a5da885c0320ccc53df61e5bb414312dd58853b35f20cbe90e7a0c638b10a"}], "txid": "4d7357c1a59009a2db36363475e116d892755ef7016d1db9a4442eaf3562269f", "blocktime": 1537873891, "version": 1, "confirmations": 11474, "time": 1537873891, "locktime": 0, "vsize": 223, "size": 223}