{"hash": "4d7b314af09d9ca467558f0d324f0056030db2d9c805cd175eaf62f220f78f7b", "blockhash": "00000000000000000004ffacab907a6b429b9a5745fa0b75af4234bf69dd7176", "vout": [{"scriptPubKey": {"reqSigs": 1, "hex": "a914cc34f5ed0808760c52781cf717eb38d99279cff187", "addresses": ["3LJmDSudnHFb27nP4G1ADF3nsAeZSgypS7"], "asm": "OP_HASH160 cc34f5ed0808760c52781cf717eb38d99279cff1 OP_EQUAL", "type": "scripthash"}, "value": 0.01403, "n": 0}, {"scriptPubKey": {"reqSigs": 1, "hex": "76a914b04548d2826ffaf4acee2ed278e340fdc0ff7b2d88ac", "addresses": ["1H52vjQ1Htjfacv7f3Js2aDFcknAN4wxkr"], "asm": "OP_DUP OP_HASH160 b04548d2826ffaf4acee2ed278e340fdc0ff7b2d OP_EQUALVERIFY OP_CHECKSIG", "type": "pubkeyhash"}, "value": 0.127597, "n": 1}], "hex": "010000000101afd37c22a988e8ad2ef30dd5542b47b883c8567efe5186e5fbf6096bfde00e000000006b483045022100d900cd47f4e992f65f8a1d0aaab5ecc9070b00214fa335eb98bfd944b42be4c402206323f8e15940addd95eabfa07f823e9f1cf484830e3730c550d0bb8117fb87e90121032a776e7446a3705be471a9561c15cce7311ab9f3865ba94a792638b7308b0badfeffffff02786815000000000017a914cc34f5ed0808760c52781cf717eb38d99279cff18794b2c200000000001976a914b04548d2826ffaf4acee2ed278e340fdc0ff7b2d88ac16490800", "vin": [{"sequence": 4294967294, "scriptSig": {"hex": "483045022100d900cd47f4e992f65f8a1d0aaab5ecc9070b00214fa335eb98bfd944b42be4c402206323f8e15940addd95eabfa07f823e9f1cf484830e3730c550d0bb8117fb87e90121032a776e7446a3705be471a9561c15cce7311ab9f3865ba94a792638b7308b0bad", "asm": "3045022100d900cd47f4e992f65f8a1d0aaab5ecc9070b00214fa335eb98bfd944b42be4c402206323f8e15940addd95eabfa07f823e9f1cf484830e3730c550d0bb8117fb87e9[ALL] 032a776e7446a3705be471a9561c15cce7311ab9f3865ba94a792638b7308b0bad"}, "vout": 0, "txid": "0ee0fd6b09f6fbe58651fe7e56c883b8472b54d50df32eade888a9227cd3af01"}], "txid": "4d7b314af09d9ca467558f0d324f0056030db2d9c805cd175eaf62f220f78f7b", "blocktime": 1537875543, "version": 1, "confirmations": 11464, "time": 1537875543, "locktime": 542998, "vsize": 224, "size": 224}