{"hash": "12ee76249f28e516000c5e4487bc2a35cb1aed987bb9eab61af61eb00ad726db", "blockhash": "0000000000000000000baef3f32e3676a92c3b2e5da21b426e4f302fc371ce76", "vout": [{"scriptPubKey": {"reqSigs": 1, "hex": "a91449d7e96499e76d96ef877a2fcb98823c8bccba2187", "addresses": ["38RTuMXR3rjgmqC2TwiJHrCLzc9nbGoNw7"], "asm": "OP_HASH160 49d7e96499e76d96ef877a2fcb98823c8bccba21 OP_EQUAL", "type": "scripthash"}, "value": 0.00078157, "n": 0}], "hex": "010000000001013d166bc8d11734be0bd8b43e2cb479d419c16fc33a41f34f6da57e5be6bf33d7020000001716001418b91bec0b555eb5815b89bf9e0e949c2897d733ffffffff014d3101000000000017a91449d7e96499e76d96ef877a2fcb98823c8bccba218702473044022050b386b5bafb75cdb8569fb4c55a28c8d2c743cd8e69af11e6bac770257098950220084104c6747d93778f49d1aa1f5620b057865f7d30d6930e6dd14633102b57280121026c5070f0c103bdbefe509002eab4b71517356e953ae88bcf67c2eb06eb4cb3b000000000", "vin": [{"txinwitness": ["3044022050b386b5bafb75cdb8569fb4c55a28c8d2c743cd8e69af11e6bac770257098950220084104c6747d93778f49d1aa1f5620b057865f7d30d6930e6dd14633102b572801", "026c5070f0c103bdbefe509002eab4b71517356e953ae88bcf67c2eb06eb4cb3b0"], "sequence": 4294967295, "scriptSig": {"hex": "16001418b91bec0b555eb5815b89bf9e0e949c2897d733", "asm": "001418b91bec0b555eb5815b89bf9e0e949c2897d733"}, "vout": 2, "txid": "d733bfe65b7ea56d4ff3413ac36fc119d479b42c3eb4d80bbe3417d1c86b163d"}], "txid": "4d7b70019fb14e17dbf8ca5b3eff4b4e8673d686d718d7e004c36c3127b3933d", "blocktime": 1537876114, "version": 1, "confirmations": 11460, "time": 1537876114, "locktime": 0, "vsize": 134, "size": 215}