{"hash": "4d7eaa8cfa4ad8f0e5b0c8a76081be45ad6dae16decaeb80e55fe86be321e066", "blockhash": "00000000000000000017f5eb5941039fbcee6240d03bc1f2f8e35350df66a1d8", "vout": [{"scriptPubKey": {"type": "nulldata", "hex": "6a4c50000077f70001ccfeee89e73f9c4bfa7ba107d19ed074892d00f8e87af8e8e963c7cfd5b9275ab78f8dddb51bee1882bd3d39cc7f5baa18c90613c75d98c6dd151d100759d4ba30d2c37bb011d97e02cf", "asm": "OP_RETURN 000077f70001ccfeee89e73f9c4bfa7ba107d19ed074892d00f8e87af8e8e963c7cfd5b9275ab78f8dddb51bee1882bd3d39cc7f5baa18c90613c75d98c6dd151d100759d4ba30d2c37bb011d97e02cf"}, "value": 0.0, "n": 0}, {"scriptPubKey": {"reqSigs": 1, "hex": "76a914eb8790a5d539b496ec6f09a3b0d1c7502163104288ac", "addresses": ["1NUNCJcHMTBF9dNh7qkhZVxg2LXWkgPbJ8"], "asm": "OP_DUP OP_HASH160 eb8790a5d539b496ec6f09a3b0d1c75021631042 OP_EQUALVERIFY OP_CHECKSIG", "type": "pubkeyhash"}, "value": 0.00585925, "n": 1}], "hex": "01000000014b8278b7aae4f17d47248017c1669ae12bce788629db858652bf5db17883b3cd010000006a47304402201bd2883168a9b41691fc14f62ff937e190f15c29b54912a7ffd3b77017183d9102206a83a43d5c624315af140b498aa63fec72a15d1f8bdea4e8be577c59098ddb9b01210250bd8ea5e0449e922515df673a950c26733e20dffa5f0af26d850b7823ed7473ffffffff020000000000000000536a4c50000077f70001ccfeee89e73f9c4bfa7ba107d19ed074892d00f8e87af8e8e963c7cfd5b9275ab78f8dddb51bee1882bd3d39cc7f5baa18c90613c75d98c6dd151d100759d4ba30d2c37bb011d97e02cfc5f00800000000001976a914eb8790a5d539b496ec6f09a3b0d1c7502163104288ac00000000", "vin": [{"sequence": 4294967295, "scriptSig": {"hex": "47304402201bd2883168a9b41691fc14f62ff937e190f15c29b54912a7ffd3b77017183d9102206a83a43d5c624315af140b498aa63fec72a15d1f8bdea4e8be577c59098ddb9b01210250bd8ea5e0449e922515df673a950c26733e20dffa5f0af26d850b7823ed7473", "asm": "304402201bd2883168a9b41691fc14f62ff937e190f15c29b54912a7ffd3b77017183d9102206a83a43d5c624315af140b498aa63fec72a15d1f8bdea4e8be577c59098ddb9b[ALL] 0250bd8ea5e0449e922515df673a950c26733e20dffa5f0af26d850b7823ed7473"}, "vout": 1, "txid": "cdb38378b15dbf528685db298678ce2be19a66c1178024477df1e4aab778824b"}], "txid": "4d7eaa8cfa4ad8f0e5b0c8a76081be45ad6dae16decaeb80e55fe86be321e066", "blocktime": 1537874412, "version": 1, "confirmations": 11467, "time": 1537874412, "locktime": 0, "vsize": 283, "size": 283}