{"hash": "67c37024b7f694db59d94a8d3364f565cc9f0e1ff1643e1c096efd365be20780", "blockhash": "0000000000000000001cda96e906b7601b7a6fb1a3b62bca570a9e5d8f4b3de1", "vout": [{"scriptPubKey": {"reqSigs": 1, "hex": "0014455914368c078b0045910737be3857a9d0480b86", "addresses": ["bc1qg4v3gd5vq79sq3v3qummuwzh48gyszuxewsfrp"], "asm": "0 455914368c078b0045910737be3857a9d0480b86", "type": "witness_v0_keyhash"}, "value": 0.00013114, "n": 0}, {"scriptPubKey": {"reqSigs": 1, "hex": "a9140393471032d2a573537d4d18c5aa3ffb6254ee9887", "addresses": ["321vP9QFWhZL7durf1xrKjb92vSAyh14C6"], "asm": "OP_HASH160 0393471032d2a573537d4d18c5aa3ffb6254ee98 OP_EQUAL", "type": "scripthash"}, "value": 0.00315236, "n": 1}], "hex": "01000000000101078074e926f02bc7cbe08d2292278c9ef91e97e6bb4a243dcffe9ea881664b3c2d000000171600145a7be0ce5d06a92b05b45580ded9cc5dd7c283afffffffff023a33000000000000160014455914368c078b0045910737be3857a9d0480b8664cf04000000000017a9140393471032d2a573537d4d18c5aa3ffb6254ee98870247304402200c8224fbc87fbcccff930a2c39fe547c11e23c3fa8ce947395ed9c69e71c4b430220683ff3ad7575960fc3f6e463bf4b3955b12800511dd2668f6a72afd1a6704621012103d45950a40bc3a35c11b6c0d9cb4c37649fcf60bd64907af6ac24d58d7dd780a900000000", "vin": [{"txinwitness": ["304402200c8224fbc87fbcccff930a2c39fe547c11e23c3fa8ce947395ed9c69e71c4b430220683ff3ad7575960fc3f6e463bf4b3955b12800511dd2668f6a72afd1a670462101", "03d45950a40bc3a35c11b6c0d9cb4c37649fcf60bd64907af6ac24d58d7dd780a9"], "sequence": 4294967295, "scriptSig": {"hex": "1600145a7be0ce5d06a92b05b45580ded9cc5dd7c283af", "asm": "00145a7be0ce5d06a92b05b45580ded9cc5dd7c283af"}, "vout": 45, "txid": "3c4b6681a89efecf3d244abbe6971ef99e8c2792228de0cbc72bf026e9748007"}], "txid": "4d9142e56c574953a21f5da7cf672428873aa6c247f2203620b13ed47bee05ce", "blocktime": 1537873282, "version": 1, "confirmations": 11484, "time": 1537873282, "locktime": 0, "vsize": 165, "size": 246}