{"hash": "4d93408176649e5a0dc92904876df17751ac007d83f118a3ae484f41080c3e7f", "blockhash": "0000000000000000000dcc0f55137456b1a82d3642486a52398922ac4d620174", "vout": [{"scriptPubKey": {"reqSigs": 1, "hex": "76a9149d44944eed2c86d2b4acf7612aa97a83f4c64f7f88ac", "addresses": ["1FLZF6NtPFUBtckBErURwgg4x94F8EqU7W"], "asm": "OP_DUP OP_HASH160 9d44944eed2c86d2b4acf7612aa97a83f4c64f7f OP_EQUALVERIFY OP_CHECKSIG", "type": "pubkeyhash"}, "value": 0.00031997, "n": 0}, {"scriptPubKey": {"reqSigs": 1, "hex": "76a9143ed85f354f90627f3e124c652b1101100d387d8788ac", "addresses": ["16jJ6gGxoaMvCuaksYVMZktoXofu9Qha2n"], "asm": "OP_DUP OP_HASH160 3ed85f354f90627f3e124c652b1101100d387d87 OP_EQUALVERIFY OP_CHECKSIG", "type": "pubkeyhash"}, "value": 0.00389875, "n": 1}], "hex": "0100000002d4ab95fcc676ac72da8e42614c9d19a74130b36fd34958c1e293a70725e8911a000000006a47304402204bdd1d047fc59860704f4a0d4368e1a252cd5f867f5c4aea37e8a7ba14fa9a2402203ac784047033f5d8c853d2fb8c03aef7fa1dbdd169598d93a27e59026e232c12012102035660ed220eb4150454ae52b2c6b5bcbc36a65bb28cb920d4dd559a207a3dcfffffffff196a6788d53797bfc3718e511ab374f3aee48ab116a18f8f7a3e53fc026fc233000000006a47304402202a9e3faacfb0c1cdc5646dbfc09bcde22e174f686ad21d8b2d6d9ce549deba29022003907d38ea15c985461597f3bdb743b4a6c54e5ee8d991ee742318801484be91012103cedfc172c3338007a06fdcb8da9165c4dad3cf1bbb71d62a76f226a9e8325656ffffffff02fd7c0000000000001976a9149d44944eed2c86d2b4acf7612aa97a83f4c64f7f88acf3f20500000000001976a9143ed85f354f90627f3e124c652b1101100d387d8788ac00000000", "vin": [{"sequence": 4294967295, "scriptSig": {"hex": "47304402204bdd1d047fc59860704f4a0d4368e1a252cd5f867f5c4aea37e8a7ba14fa9a2402203ac784047033f5d8c853d2fb8c03aef7fa1dbdd169598d93a27e59026e232c12012102035660ed220eb4150454ae52b2c6b5bcbc36a65bb28cb920d4dd559a207a3dcf", "asm": "304402204bdd1d047fc59860704f4a0d4368e1a252cd5f867f5c4aea37e8a7ba14fa9a2402203ac784047033f5d8c853d2fb8c03aef7fa1dbdd169598d93a27e59026e232c12[ALL] 02035660ed220eb4150454ae52b2c6b5bcbc36a65bb28cb920d4dd559a207a3dcf"}, "vout": 0, "txid": "1a91e82507a793e2c15849d36fb33041a7199d4c61428eda72ac76c6fc95abd4"}, {"sequence": 4294967295, "scriptSig": {"hex": "47304402202a9e3faacfb0c1cdc5646dbfc09bcde22e174f686ad21d8b2d6d9ce549deba29022003907d38ea15c985461597f3bdb743b4a6c54e5ee8d991ee742318801484be91012103cedfc172c3338007a06fdcb8da9165c4dad3cf1bbb71d62a76f226a9e8325656", "asm": "304402202a9e3faacfb0c1cdc5646dbfc09bcde22e174f686ad21d8b2d6d9ce549deba29022003907d38ea15c985461597f3bdb743b4a6c54e5ee8d991ee742318801484be91[ALL] 03cedfc172c3338007a06fdcb8da9165c4dad3cf1bbb71d62a76f226a9e8325656"}, "vout": 0, "txid": "33c26f02fc533e7a8f8fa116b18ae4aef374b31a518e71c3bf9737d588676a19"}], "txid": "4d93408176649e5a0dc92904876df17751ac007d83f118a3ae484f41080c3e7f", "blocktime": 1537870268, "version": 1, "confirmations": 11518, "time": 1537870268, "locktime": 0, "vsize": 372, "size": 372}