{"hash": "5c66bf9e62ec3e1c0bf690a041bf4ed9fafd2715e51436e57202d785ce9f3172", "blockhash": "00000000000000000024a2167bbff67b0be802c0b01cdd79e6331c2be6459f87", "vout": [{"scriptPubKey": {"reqSigs": 1, "hex": "a914e3ed23e8f5d1c992df5998c9ea50c266bd1c7d9987", "addresses": ["3NUBPtF6CTZTaefpLtRWyEmbftxV3uxHxb"], "asm": "OP_HASH160 e3ed23e8f5d1c992df5998c9ea50c266bd1c7d99 OP_EQUAL", "type": "scripthash"}, "value": 0.00999241, "n": 0}, {"scriptPubKey": {"reqSigs": 1, "hex": "76a9142e1b944fe7ffbe969fc1df8d662fd7b5d6303c9b88ac", "addresses": ["15Co856cRnFRCKwSSzECoyT3ozVhuFoJZ6"], "asm": "OP_DUP OP_HASH160 2e1b944fe7ffbe969fc1df8d662fd7b5d6303c9b OP_EQUALVERIFY OP_CHECKSIG", "type": "pubkeyhash"}, "value": 0.0045, "n": 1}], "hex": "02000000000102961e45ea473c5eb624f6fb6611d9a022b608ae69f6c00dd703050e4237bce1360d000000171600143922cf824d609d17bc2ed91dbfde8f0a19f94f4bfeffffffdf25bd481db3ab71d34404e7107c546a0f3b637b02df978cb5a6b5b7711833930000000017160014a1bb60d86349e8405b071f82094a2f9f3543ff56feffffff02493f0f000000000017a914e3ed23e8f5d1c992df5998c9ea50c266bd1c7d9987d0dd0600000000001976a9142e1b944fe7ffbe969fc1df8d662fd7b5d6303c9b88ac02483045022100be6efb8b70879d02435dc24dc0ad50c6ca05c34ad8af3934b67840798d89efe802203458ed2235190757f4d79bebe4af779b3e7b87ca0d53d0563a19caf8039333540121034cc23bc332a1a3f9bf2024cd08bf7461582c899ec4778e1dcaf4ef4fcf47fbfd02473044022016755a8980bff3b12178a1fe42c1f84644335b454b7bdfcbca4a888405a8b2e8022056a0c4c738d92518073157e9d6fcaaf9af5901807f69a0cd74da5877060b6e54012103d60a90a76b195f4e0e5600b131531ddf1357f465f08fe6dc739d457d21060c6f0d490800", "vin": [{"txinwitness": ["3045022100be6efb8b70879d02435dc24dc0ad50c6ca05c34ad8af3934b67840798d89efe802203458ed2235190757f4d79bebe4af779b3e7b87ca0d53d0563a19caf80393335401", "034cc23bc332a1a3f9bf2024cd08bf7461582c899ec4778e1dcaf4ef4fcf47fbfd"], "sequence": 4294967294, "scriptSig": {"hex": "1600143922cf824d609d17bc2ed91dbfde8f0a19f94f4b", "asm": "00143922cf824d609d17bc2ed91dbfde8f0a19f94f4b"}, "vout": 13, "txid": "36e1bc37420e0503d70dc0f669ae08b622a0d91166fbf624b65e3c47ea451e96"}, {"txinwitness": ["3044022016755a8980bff3b12178a1fe42c1f84644335b454b7bdfcbca4a888405a8b2e8022056a0c4c738d92518073157e9d6fcaaf9af5901807f69a0cd74da5877060b6e5401", "03d60a90a76b195f4e0e5600b131531ddf1357f465f08fe6dc739d457d21060c6f"], "sequence": 4294967294, "scriptSig": {"hex": "160014a1bb60d86349e8405b071f82094a2f9f3543ff56", "asm": "0014a1bb60d86349e8405b071f82094a2f9f3543ff56"}, "vout": 0, "txid": "93331871b7b5a6b58c97df027b633b0f6a547c10e70444d371abb31d48bd25df"}], "txid": "4d94db684de5e5e87cbe5a1f48ece4fafd2619c0c125b40a4494112e8b8f1071", "blocktime": 1537870564, "version": 2, "confirmations": 11515, "time": 1537870564, "locktime": 542989, "vsize": 259, "size": 421}