{"hash": "4d9b4f811dccc19116200b701b199db806aa10814232775f5a0f75d1524a2cac", "blockhash": "0000000000000000001cda96e906b7601b7a6fb1a3b62bca570a9e5d8f4b3de1", "vout": [{"scriptPubKey": {"reqSigs": 1, "hex": "a914476cb343f03a05c76345c4986d4d59df3b32ee8a87", "addresses": ["38Cg7nmMwf56ovj9pM7WuvQXkLqWFSQisL"], "asm": "OP_HASH160 476cb343f03a05c76345c4986d4d59df3b32ee8a OP_EQUAL", "type": "scripthash"}, "value": 0.013279, "n": 0}, {"scriptPubKey": {"reqSigs": 1, "hex": "76a9140cffb2b4bdce27d85deb0c784fbf18c06176f19e88ac", "addresses": ["12BjRWtfgAxtJfuKnN9u9orFeC5UnHbX7M"], "asm": "OP_DUP OP_HASH160 0cffb2b4bdce27d85deb0c784fbf18c06176f19e OP_EQUALVERIFY OP_CHECKSIG", "type": "pubkeyhash"}, "value": 0.15095394, "n": 1}], "hex": "0100000001c5222361767dab7cf64f637aff34e2feeffeabd0258eed5b240e9357fb7aaa8b010000006a473044022070ab5265b3bc5fdb3160cb7c581490c4c268553516cd9b6d419148e14df220350220615266daae0f2eb05a4acbbbe6ea78fc2832bb4cb8bb5bd299dfde1ed0a6a4f1012102d8a29bff42eab85ae1e226cc4b60dbe9d6075ee3178c24c7583535c9e910f116ffffffff021c4314000000000017a914476cb343f03a05c76345c4986d4d59df3b32ee8a876256e600000000001976a9140cffb2b4bdce27d85deb0c784fbf18c06176f19e88ac00000000", "vin": [{"sequence": 4294967295, "scriptSig": {"hex": "473044022070ab5265b3bc5fdb3160cb7c581490c4c268553516cd9b6d419148e14df220350220615266daae0f2eb05a4acbbbe6ea78fc2832bb4cb8bb5bd299dfde1ed0a6a4f1012102d8a29bff42eab85ae1e226cc4b60dbe9d6075ee3178c24c7583535c9e910f116", "asm": "3044022070ab5265b3bc5fdb3160cb7c581490c4c268553516cd9b6d419148e14df220350220615266daae0f2eb05a4acbbbe6ea78fc2832bb4cb8bb5bd299dfde1ed0a6a4f1[ALL] 02d8a29bff42eab85ae1e226cc4b60dbe9d6075ee3178c24c7583535c9e910f116"}, "vout": 1, "txid": "8baa7afb57930e245bed8e25d0abfeeffee234ff7a634ff67cab7d76612322c5"}], "txid": "4d9b4f811dccc19116200b701b199db806aa10814232775f5a0f75d1524a2cac", "blocktime": 1537873282, "version": 1, "confirmations": 11481, "time": 1537873282, "locktime": 0, "vsize": 223, "size": 223}