{"hash": "4da311b9400b2b5ad2c1f170a8c2de84f5afefef97bbd3d13bc0cef58382214b", "blockhash": "0000000000000000000dcc0f55137456b1a82d3642486a52398922ac4d620174", "vout": [{"scriptPubKey": {"reqSigs": 1, "hex": "76a91426bb138363b487c90b06f38a0376edd705fe466a88ac", "addresses": ["14XnnaG5J1qWiXh7vyJnQjF16bFbiEmtTS"], "asm": "OP_DUP OP_HASH160 26bb138363b487c90b06f38a0376edd705fe466a OP_EQUALVERIFY OP_CHECKSIG", "type": "pubkeyhash"}, "value": 0.00235756, "n": 0}, {"scriptPubKey": {"reqSigs": 1, "hex": "76a9147b95adf5568fe06490e7f38f4d17f304c0783d1688ac", "addresses": ["1CGTRWdVeeJXPrR5EmuY7mxPujTcvChiZ4"], "asm": "OP_DUP OP_HASH160 7b95adf5568fe06490e7f38f4d17f304c0783d16 OP_EQUALVERIFY OP_CHECKSIG", "type": "pubkeyhash"}, "value": 0.04178247, "n": 1}], "hex": "0100000001614b7245b8a52659a47cb62fd4b177a2d0c9509895a985708df20d684886618e010000006a473044022046d6c1586097478f011a5577c5df2d24b0fd5006c3878316d293c739fceac42402200d11ce3e0a1cc5a5143148e531753b83ad15bc7949d5d74022f55415c975cc00012102bb62924b2dbd3178af336e7c26bc5721adff95b83737c3cf87a416c3c8929cceffffffff02ec980300000000001976a91426bb138363b487c90b06f38a0376edd705fe466a88ac47c13f00000000001976a9147b95adf5568fe06490e7f38f4d17f304c0783d1688ac00000000", "vin": [{"sequence": 4294967295, "scriptSig": {"hex": "473044022046d6c1586097478f011a5577c5df2d24b0fd5006c3878316d293c739fceac42402200d11ce3e0a1cc5a5143148e531753b83ad15bc7949d5d74022f55415c975cc00012102bb62924b2dbd3178af336e7c26bc5721adff95b83737c3cf87a416c3c8929cce", "asm": "3044022046d6c1586097478f011a5577c5df2d24b0fd5006c3878316d293c739fceac42402200d11ce3e0a1cc5a5143148e531753b83ad15bc7949d5d74022f55415c975cc00[ALL] 02bb62924b2dbd3178af336e7c26bc5721adff95b83737c3cf87a416c3c8929cce"}, "vout": 1, "txid": "8e618648680df28d7085a9959850c9d0a277b1d42fb67ca45926a5b845724b61"}], "txid": "4da311b9400b2b5ad2c1f170a8c2de84f5afefef97bbd3d13bc0cef58382214b", "blocktime": 1537870268, "version": 1, "confirmations": 11518, "time": 1537870268, "locktime": 0, "vsize": 225, "size": 225}