{"hash": "c72e3d66a04e805d936fa6edc43558e8ce8c4d68f59dc99db7443f50c8e59cb7", "blockhash": "0000000000000000000e13cef7c366c0283d82e591d1acd082e914b08063cdf1", "vout": [{"scriptPubKey": {"reqSigs": 1, "hex": "a91469f377456350ecddbca64eb7ff3666245a15e31f87", "addresses": ["3BMEXza7Twg6YkyJjusPf2kDQDUDgHah1G"], "asm": "OP_HASH160 69f377456350ecddbca64eb7ff3666245a15e31f OP_EQUAL", "type": "scripthash"}, "value": 0.00094983, "n": 0}], "hex": "010000000001013fa4e6fd5ddfb94ab7aed5de366534a7717a90f909fa3b7b03353005b5ae3c170100000000ffffffff01077301000000000017a91469f377456350ecddbca64eb7ff3666245a15e31f870247304402202a89d921573f3776e1528aef0dc5fcaa2623af98952875a9cdc5a2e9568ba4b702206aed7c18527399ebee76f17f2d99af231aeb63b2359d9dd2ad277d5b3ff9eb460121039092ec17d089f7505e0d15693d9cc3974429298ef22c94650d291c14bd7200b800000000", "vin": [{"txinwitness": ["304402202a89d921573f3776e1528aef0dc5fcaa2623af98952875a9cdc5a2e9568ba4b702206aed7c18527399ebee76f17f2d99af231aeb63b2359d9dd2ad277d5b3ff9eb4601", "039092ec17d089f7505e0d15693d9cc3974429298ef22c94650d291c14bd7200b8"], "sequence": 4294967295, "scriptSig": {"hex": "", "asm": ""}, "vout": 1, "txid": "173caeb5053035037b3bfa09f9907a71a7346536ded5aeb74ab9df5dfde6a43f"}], "txid": "4dadfbb2b12eb2ac07fc88b1cbb41761ed11234678d13f226975b8d9e79f6bf6", "blocktime": 1537871767, "version": 1, "confirmations": 11495, "time": 1537871767, "locktime": 0, "vsize": 111, "size": 192}