{"hash": "4daef1db0541c3ba262fbd304584cf87dff4621d160fc3d1cec4cd62647d4091", "blockhash": "00000000000000000004ffacab907a6b429b9a5745fa0b75af4234bf69dd7176", "vout": [{"scriptPubKey": {"reqSigs": 1, "hex": "a914bcbd234aaea954bc04d0f3e8bb2b05418fc78f4e87", "addresses": ["3JtyY8sxcdHqfCwQeanrWX9HjEu3GzcHMC"], "asm": "OP_HASH160 bcbd234aaea954bc04d0f3e8bb2b05418fc78f4e OP_EQUAL", "type": "scripthash"}, "value": 0.01777161, "n": 0}], "hex": "01000000016113dcf092f123377aed1f804c81051bd513a446ab0b831caf99d6ac0118a13d0b0000006b483045022100c82a49ff9065ed6ad7091ec8fcb1a8378f49fd678c6da800844d00c543ce5748022053bfd955fae5c181ac7c75bf03a1961c462416239f3c86b349501d66d30a5fa5012103bd137630e2625447cbf18cd2d6773851c0a0419bfa7d2cd41728858efaaa8933ffffffff01091e1b000000000017a914bcbd234aaea954bc04d0f3e8bb2b05418fc78f4e8700000000", "vin": [{"sequence": 4294967295, "scriptSig": {"hex": "483045022100c82a49ff9065ed6ad7091ec8fcb1a8378f49fd678c6da800844d00c543ce5748022053bfd955fae5c181ac7c75bf03a1961c462416239f3c86b349501d66d30a5fa5012103bd137630e2625447cbf18cd2d6773851c0a0419bfa7d2cd41728858efaaa8933", "asm": "3045022100c82a49ff9065ed6ad7091ec8fcb1a8378f49fd678c6da800844d00c543ce5748022053bfd955fae5c181ac7c75bf03a1961c462416239f3c86b349501d66d30a5fa5[ALL] 03bd137630e2625447cbf18cd2d6773851c0a0419bfa7d2cd41728858efaaa8933"}, "vout": 11, "txid": "3da11801acd699af1c830bab46a413d51b05814c801fed7a3723f192f0dc1361"}], "txid": "4daef1db0541c3ba262fbd304584cf87dff4621d160fc3d1cec4cd62647d4091", "blocktime": 1537875543, "version": 1, "confirmations": 11464, "time": 1537875543, "locktime": 0, "vsize": 190, "size": 190}