{"hash": "4daf4dd2bbdd696a6619e2b9d9308df7e080ee071c60967c16f45bd67cbad053", "blockhash": "00000000000000000018f53835495a110e01622372bf6ae95dc86f2b0ab887b0", "vout": [{"scriptPubKey": {"type": "nulldata", "hex": "6a146f6d6e69000000000000001f00000054eb7890c0", "asm": "OP_RETURN 6f6d6e69000000000000001f00000054eb7890c0"}, "value": 0.0, "n": 0}, {"scriptPubKey": {"reqSigs": 1, "hex": "76a914bbf676c726d241beafc244296f7969827012eec788ac", "addresses": ["1J8rcVPwRjJdi1jhk95AsjMfsLBbP7x7pS"], "asm": "OP_DUP OP_HASH160 bbf676c726d241beafc244296f7969827012eec7 OP_EQUALVERIFY OP_CHECKSIG", "type": "pubkeyhash"}, "value": 0.02815994, "n": 1}], "hex": "0100000002ebedce9c5c906e14ccbccc8af96f01fb250c9c61da7879844c6fc5a2b50d9541020000006a47304402201d4dd02573363a5c08b4746a65378d99e5c21cb55f7597ba4fa1bc71dfaf729c02203a2198ee4303ca63c60e967ffdc7bec7cb41ccca4380342ee9c6a3aae46649740121035acc175f52f4e41d23236d1b61cc46097448eb9b9e1feb98db9c4a67e4db77eaffffffffed8d8b83294b3afd6b40b318124fa435118d384d26fbe455733b16faabed23b9000000006a473044022041d5616c4c7b10ae2a36fe296c23741b7ea33fc7d844b07f79a29928c4fa59bd022047c37f49215ea14034b9655c6a47321c1ffbdb3adb1eb31956c5cc246e202fb6012102061af1d6ec220f4ce39a77205368245c29cd0d340edeb4ced8fd2bd0bc788d42ffffffff020000000000000000166a146f6d6e69000000000000001f00000054eb7890c0faf72a00000000001976a914bbf676c726d241beafc244296f7969827012eec788ac00000000", "vin": [{"sequence": 4294967295, "scriptSig": {"hex": "47304402201d4dd02573363a5c08b4746a65378d99e5c21cb55f7597ba4fa1bc71dfaf729c02203a2198ee4303ca63c60e967ffdc7bec7cb41ccca4380342ee9c6a3aae46649740121035acc175f52f4e41d23236d1b61cc46097448eb9b9e1feb98db9c4a67e4db77ea", "asm": "304402201d4dd02573363a5c08b4746a65378d99e5c21cb55f7597ba4fa1bc71dfaf729c02203a2198ee4303ca63c60e967ffdc7bec7cb41ccca4380342ee9c6a3aae4664974[ALL] 035acc175f52f4e41d23236d1b61cc46097448eb9b9e1feb98db9c4a67e4db77ea"}, "vout": 2, "txid": "41950db5a2c56f4c847978da619c0c25fb016ff98accbccc146e905c9cceedeb"}, {"sequence": 4294967295, "scriptSig": {"hex": "473044022041d5616c4c7b10ae2a36fe296c23741b7ea33fc7d844b07f79a29928c4fa59bd022047c37f49215ea14034b9655c6a47321c1ffbdb3adb1eb31956c5cc246e202fb6012102061af1d6ec220f4ce39a77205368245c29cd0d340edeb4ced8fd2bd0bc788d42", "asm": "3044022041d5616c4c7b10ae2a36fe296c23741b7ea33fc7d844b07f79a29928c4fa59bd022047c37f49215ea14034b9655c6a47321c1ffbdb3adb1eb31956c5cc246e202fb6[ALL] 02061af1d6ec220f4ce39a77205368245c29cd0d340edeb4ced8fd2bd0bc788d42"}, "vout": 0, "txid": "b923edabfa163b7355e4fb264d388d1135a44f1218b3406bfd3a4b29838b8ded"}], "txid": "4daf4dd2bbdd696a6619e2b9d9308df7e080ee071c60967c16f45bd67cbad053", "blocktime": 1537870928, "version": 1, "confirmations": 11512, "time": 1537870928, "locktime": 0, "vsize": 369, "size": 369}