{"hash": "b5c19a8cab63098bc966637eda7dff3522be70516d2b43b937e5d8445b4a0952", "blockhash": "0000000000000000001e0dab787dd257d1dbfcb92a98c2207d5e1078be1f4165", "vout": [{"scriptPubKey": {"reqSigs": 1, "hex": "a914a87a1549e890564c6178561e7659858369cc246587", "addresses": ["3H3qhFuhD3uxt5EkyuwaGme8Nki4phiN5J"], "asm": "OP_HASH160 a87a1549e890564c6178561e7659858369cc2465 OP_EQUAL", "type": "scripthash"}, "value": 0.00910291, "n": 0}, {"scriptPubKey": {"reqSigs": 1, "hex": "a9140a40fe9c212b7d70c9189d059362e5e6bcbd0e8f87", "addresses": ["32dEYN4YkB5HNqQ88s1dXUbDHurJuJLau8"], "asm": "OP_HASH160 0a40fe9c212b7d70c9189d059362e5e6bcbd0e8f OP_EQUAL", "type": "scripthash"}, "value": 3.65119557, "n": 1}], "hex": "0200000000010f132d09d6f3d6a276a3b9ac6343a3a36c123cd60a02c3c743bee098a33c4d338105000000171600147063e10a275fa5e12cd12e79f4378e21e29b02abfeffffff3e9620e7237a6898e2388f07caed54fbca00c8f40f27a56413a805d4c13d6ace0100000017160014ed92c7d3d2ab4b29f46a2534b7d1339165b917cafeffffff52dc12833e1a426e13f36fec27cdd79d7773ea46bc4b6d1f4c014b8a30a0bb0f00000000171600146501319991f7bc90dd79b92223ee2e69a0edd4a7feffffff6b59a883f53d4938cfbeea0c22b77e88165238e7512d5bded38be9f308a09cdb0000000017160014f82019ebda0e7f4ab176653b02460fe58a5cb9dafeffffff7c9f7341a16da9fdffb4d3b43c6fb71f69a5d88a2a4e58e40dd86ed03df5dcaa0100000017160014690daedfc2285a9cbc9a461e6a6e290944e246abfeffffff8253777932d67edb9fa3aa1dc5fc000f91d7090718f9d70104603e873a63980100000000171600144d1802ebe0d9d880069af98e4f0fa23a08db101dfeffffff883cc90e532b2808d9ca30287b60472c22f9786947cc821a9a60be0628902dd63b00000017160014c7c3aba00f457ff51a44414f4cb33f298c8543a2feffffff9355ac77f4e8235f241c1c25ff70cd01a03052f1f1df198c55124b08fc420b1800000000171600144f86b2133174f21582855d158918f518ebb992f4feffffff9a7bfc61f3575350980a4da54935f44e6c007f3540a4ca98660d8e7279aa8f09000000001716001477e251199dee21714a962b1c01d64bd29bc3e902feffffffb6ab844162d3339bf2cfc36b972b146742a4376065a39acfad0c18cb4585255602000000171600143de89e1cc26a8208ff5f72529d50cfac6ae6c40bfeffffffbc429a5de98f0b13cb4981f4e15fdf85ad57ae14c341d614e0b53b2dc2362e47010000001716001425c10e317b5e4dfa57232dded43031f0404d22f6feffffffd1529096dd3562667fc4ed1aefafa546b3584ce242df60a6016c8011b20b2295010000001716001499ca33bd2b08472586df94f81e4a70d09e3a705afeffffffd1f5fe45a6613387c340f43adf367a30b10406b759eaf05a4732b53dc1442d2700000000171600148a80bd7bffb6cc4b71aa05a5fdbe1fc686640727feffffffe17a51e6761c762555752a8108a4ce0a49d5cda4b86c5009498df806e5b95edd28000000171600143acdc69c071c488aa2fb6e4c01540544ef8e77e9feffffffe8b9ac17b21cf5f28bec5f72e256a9250be2df7d06376528a4c8d781757ad831000000001716001416f9c79b90bb46fa6a6f2d2e96430f1ef968a2f8feffffff02d3e30d000000000017a914a87a1549e890564c6178561e7659858369cc2465874548c3150000000017a9140a40fe9c212b7d70c9189d059362e5e6bcbd0e8f8702483045022100af11c39d713fbe5b63ecd1279a23cbb99f9f15d487c701537cc4f0e5f45917310220227ce59b8b92d73dfbf4b2c99d6d2bb53ead742939878f9822e86b5bc14b222e012102b6df41b4c6e19f8b30faad84a48f48b64380f1232ec6275505892d96df7e032d02483045022100dd9911e9e6d44e385d0cffa03b1370490d161a316ba94acc0b8d3a31fbe7537c0220609811490d151e64072eb3fe7dda640cf27f8384c04f29ac6cb02a27630cce5f012102f97aae7ebd849f4ef291a0dd1ead3795ae845de0ecd0f50dd6805bdf489f86cf02473044022065ea1fa3611bfb57410f47ba31ca4bad59d79e1a7eaf01d8f610be9b76de0e2f02206b138a4d1a418db8f7a390b503fdd6ea34fc2d754a0fbe57912811dfedf8ab49012103dbcafdaec322ef8946286b7df544d264ea2091cafa4c94b7762491b1322fce4a02483045022100aa864eb72d0be42a222225475d79a0d8033ee1274742daba58a41a677de76fe302204900165756887e210f286251942aa7ed34d1d4baa86779a2c5f848e7fe2cd22c012103ff9f80678d7d21fec4c1bedd40c5b47a3b94143a78c7dc77a4c5e9a6ca0db50002473044022017dc288a19a149ff4aa678e3f55abd26ec89016f4640883ff3fa2ba52c0e5a2d0220379884634b75605b9465c4c90a2d383ff10fac6fae6fce7435d113e5dc46bc55012103f4136bd82b54838ebd60e61279459a05bce610a5130d2740800fb1e4c87417a7024730440220531ce0875f1634274f1285118afa974b31e8a4be5468b12256c1217bcf1247c5022009ed87e5ae20dea3ccf3ee567ea4080da526e54a321872b5448170ecc23011280121038baab4ce58e589a5f754a84786ae48fa8919dc273a341b2f1858ae6243be82000247304402205ff06ce9680eda724b19a458029560832f35d87a127100387a4673d3929435170220165d6e8c8d69b6fe695c9212d8cfcdac2d2981c9874b0936587038ca966b527901210349f485310c7a255803d212a893232f53b6adfb5178b111e9e4b9543ee527ff45024830450221009ceeb2fd01a9afb4b2f9974820ee4159a4cd4cb2a746379c1dc050a140da59fe02200a3ba2cdfb9ae14b8c6da38872a2093d4af02fae5652ad7462d00a9decdb5a720121039571343be9458133c556386f685a153fb27adc190bab039f86ee3772d29c1bb402483045022100f19993375c441b1b33876ed0791fa475bbd18fa90461610517a6fe75820114370220242142ff5b391436026633658742df88afb939a9a65fe0d3a8fefb3347dfa628012102e6ffa1c6f5b0f8e35940b3d8d22431ff74f9ee0b3efcf426d1b4a7526c12f4fa0247304402207b8a5e4187fc6e2e321757b7d6baabffd679b2f0abc5bb629f4a8c6d9c88467502202feb804b688f28999382a352fc779d4d45101014d22866440f3b9275c983f7c6012102b3af37c10c82da0e93a036d3cc09799eafb25927bf5f454870164025da99d6e302473044022001004df566ed1fc686e547cfa14f8aee0e0507913030f225683dcfcc1fb3939c02207cb5941606089df533655fb508e40bd997b0de59ddcd5693dbfd233ab547ed220121021aa0fc7325a4d01aad55b819e3fb3cf71a95feb9e347052a623fe9caabd87a9d024730440220230af44b2ef738de48536b84179472715c193d334865442b53e99e6b78f4b4400220695c94382d9e83a4b75407a3406cc7dff525fc7f44e9a151256ab11554caeb5001210326d34854688d19c948dccc3b5fffd3239c7d2e04097068857e51d5056a9e7c8c0247304402202939e56999e1519dde895b567fa0f4aeeb5f8f73b3fad6ec98148ba7e86bafd102203e657e2319e25afbdb59cacb945d0f2db7013f84a1d1f8c7e98a6c0f2548196f01210355721a9834464ea5c6467ad2d8e6bd7d3dc9ac6bf87abc1eaff29f39d7a5322c024830450221008c6dc0688f607bfd4f6cad16291afbbf366920d0a7bd0aee90a91c237d996a9302206623059d3e41439b06dcd451356ec0e60bcc6d33c0072054320603ade0d7387b012102be398222e4d252e86e359ea6c3d395e63750f7821face7f55c9cbdac5a532db1024730440220445158add963921a84bde4228e09cf4676c581e99b868f26eb2bb0e546007b4d02203558a74e047a457b8a11914677b748f4a657a96d759e4d4c51b40b3e5fcfaf4d012103a2fb0cb0f0e0d10d67d14f4a165dcf2f7df7bdc8daead9a53b869073a183ce8112490800", "vin": [{"txinwitness": ["3045022100af11c39d713fbe5b63ecd1279a23cbb99f9f15d487c701537cc4f0e5f45917310220227ce59b8b92d73dfbf4b2c99d6d2bb53ead742939878f9822e86b5bc14b222e01", "02b6df41b4c6e19f8b30faad84a48f48b64380f1232ec6275505892d96df7e032d"], "sequence": 4294967294, "scriptSig": {"hex": "1600147063e10a275fa5e12cd12e79f4378e21e29b02ab", "asm": "00147063e10a275fa5e12cd12e79f4378e21e29b02ab"}, "vout": 5, "txid": "81334d3ca398e0be43c7c3020ad63c126ca3a34363acb9a376a2d6f3d6092d13"}, {"txinwitness": ["3045022100dd9911e9e6d44e385d0cffa03b1370490d161a316ba94acc0b8d3a31fbe7537c0220609811490d151e64072eb3fe7dda640cf27f8384c04f29ac6cb02a27630cce5f01", "02f97aae7ebd849f4ef291a0dd1ead3795ae845de0ecd0f50dd6805bdf489f86cf"], "sequence": 4294967294, "scriptSig": {"hex": "160014ed92c7d3d2ab4b29f46a2534b7d1339165b917ca", "asm": "0014ed92c7d3d2ab4b29f46a2534b7d1339165b917ca"}, "vout": 1, "txid": "ce6a3dc1d405a81364a5270ff4c800cafb54edca078f38e298687a23e720963e"}, {"txinwitness": ["3044022065ea1fa3611bfb57410f47ba31ca4bad59d79e1a7eaf01d8f610be9b76de0e2f02206b138a4d1a418db8f7a390b503fdd6ea34fc2d754a0fbe57912811dfedf8ab4901", "03dbcafdaec322ef8946286b7df544d264ea2091cafa4c94b7762491b1322fce4a"], "sequence": 4294967294, "scriptSig": {"hex": "1600146501319991f7bc90dd79b92223ee2e69a0edd4a7", "asm": "00146501319991f7bc90dd79b92223ee2e69a0edd4a7"}, "vout": 0, "txid": "0fbba0308a4b014c1f6d4bbc46ea73779dd7cd27ec6ff3136e421a3e8312dc52"}, {"txinwitness": ["3045022100aa864eb72d0be42a222225475d79a0d8033ee1274742daba58a41a677de76fe302204900165756887e210f286251942aa7ed34d1d4baa86779a2c5f848e7fe2cd22c01", "03ff9f80678d7d21fec4c1bedd40c5b47a3b94143a78c7dc77a4c5e9a6ca0db500"], "sequence": 4294967294, "scriptSig": {"hex": "160014f82019ebda0e7f4ab176653b02460fe58a5cb9da", "asm": "0014f82019ebda0e7f4ab176653b02460fe58a5cb9da"}, "vout": 0, "txid": "db9ca008f3e98bd3de5b2d51e7385216887eb7220ceabecf38493df583a8596b"}, {"txinwitness": ["3044022017dc288a19a149ff4aa678e3f55abd26ec89016f4640883ff3fa2ba52c0e5a2d0220379884634b75605b9465c4c90a2d383ff10fac6fae6fce7435d113e5dc46bc5501", "03f4136bd82b54838ebd60e61279459a05bce610a5130d2740800fb1e4c87417a7"], "sequence": 4294967294, "scriptSig": {"hex": "160014690daedfc2285a9cbc9a461e6a6e290944e246ab", "asm": "0014690daedfc2285a9cbc9a461e6a6e290944e246ab"}, "vout": 1, "txid": "aadcf53dd06ed80de4584e2a8ad8a5691fb76f3cb4d3b4fffda96da141739f7c"}, {"txinwitness": ["30440220531ce0875f1634274f1285118afa974b31e8a4be5468b12256c1217bcf1247c5022009ed87e5ae20dea3ccf3ee567ea4080da526e54a321872b5448170ecc230112801", "038baab4ce58e589a5f754a84786ae48fa8919dc273a341b2f1858ae6243be8200"], "sequence": 4294967294, "scriptSig": {"hex": "1600144d1802ebe0d9d880069af98e4f0fa23a08db101d", "asm": "00144d1802ebe0d9d880069af98e4f0fa23a08db101d"}, "vout": 0, "txid": "0198633a873e600401d7f9180709d7910f00fcc51daaa39fdb7ed63279775382"}, {"txinwitness": ["304402205ff06ce9680eda724b19a458029560832f35d87a127100387a4673d3929435170220165d6e8c8d69b6fe695c9212d8cfcdac2d2981c9874b0936587038ca966b527901", "0349f485310c7a255803d212a893232f53b6adfb5178b111e9e4b9543ee527ff45"], "sequence": 4294967294, "scriptSig": {"hex": "160014c7c3aba00f457ff51a44414f4cb33f298c8543a2", "asm": "0014c7c3aba00f457ff51a44414f4cb33f298c8543a2"}, "vout": 59, "txid": "d62d902806be609a1a82cc476978f9222c47607b2830cad908282b530ec93c88"}, {"txinwitness": ["30450221009ceeb2fd01a9afb4b2f9974820ee4159a4cd4cb2a746379c1dc050a140da59fe02200a3ba2cdfb9ae14b8c6da38872a2093d4af02fae5652ad7462d00a9decdb5a7201", "039571343be9458133c556386f685a153fb27adc190bab039f86ee3772d29c1bb4"], "sequence": 4294967294, "scriptSig": {"hex": "1600144f86b2133174f21582855d158918f518ebb992f4", "asm": "00144f86b2133174f21582855d158918f518ebb992f4"}, "vout": 0, "txid": "180b42fc084b12558c19dff1f15230a001cd70ff251c1c245f23e8f477ac5593"}, {"txinwitness": ["3045022100f19993375c441b1b33876ed0791fa475bbd18fa90461610517a6fe75820114370220242142ff5b391436026633658742df88afb939a9a65fe0d3a8fefb3347dfa62801", "02e6ffa1c6f5b0f8e35940b3d8d22431ff74f9ee0b3efcf426d1b4a7526c12f4fa"], "sequence": 4294967294, "scriptSig": {"hex": "16001477e251199dee21714a962b1c01d64bd29bc3e902", "asm": "001477e251199dee21714a962b1c01d64bd29bc3e902"}, "vout": 0, "txid": "098faa79728e0d6698caa440357f006c4ef43549a54d0a98505357f361fc7b9a"}, {"txinwitness": ["304402207b8a5e4187fc6e2e321757b7d6baabffd679b2f0abc5bb629f4a8c6d9c88467502202feb804b688f28999382a352fc779d4d45101014d22866440f3b9275c983f7c601", "02b3af37c10c82da0e93a036d3cc09799eafb25927bf5f454870164025da99d6e3"], "sequence": 4294967294, "scriptSig": {"hex": "1600143de89e1cc26a8208ff5f72529d50cfac6ae6c40b", "asm": "00143de89e1cc26a8208ff5f72529d50cfac6ae6c40b"}, "vout": 2, "txid": "56258545cb180cadcf9aa3656037a44267142b976bc3cff29b33d3624184abb6"}, {"txinwitness": ["3044022001004df566ed1fc686e547cfa14f8aee0e0507913030f225683dcfcc1fb3939c02207cb5941606089df533655fb508e40bd997b0de59ddcd5693dbfd233ab547ed2201", "021aa0fc7325a4d01aad55b819e3fb3cf71a95feb9e347052a623fe9caabd87a9d"], "sequence": 4294967294, "scriptSig": {"hex": "16001425c10e317b5e4dfa57232dded43031f0404d22f6", "asm": "001425c10e317b5e4dfa57232dded43031f0404d22f6"}, "vout": 1, "txid": "472e36c22d3bb5e014d641c314ae57ad85df5fe1f48149cb130b8fe95d9a42bc"}, {"txinwitness": ["30440220230af44b2ef738de48536b84179472715c193d334865442b53e99e6b78f4b4400220695c94382d9e83a4b75407a3406cc7dff525fc7f44e9a151256ab11554caeb5001", "0326d34854688d19c948dccc3b5fffd3239c7d2e04097068857e51d5056a9e7c8c"], "sequence": 4294967294, "scriptSig": {"hex": "16001499ca33bd2b08472586df94f81e4a70d09e3a705a", "asm": "001499ca33bd2b08472586df94f81e4a70d09e3a705a"}, "vout": 1, "txid": "95220bb211806c01a660df42e24c58b346a5afef1aedc47f666235dd969052d1"}, {"txinwitness": ["304402202939e56999e1519dde895b567fa0f4aeeb5f8f73b3fad6ec98148ba7e86bafd102203e657e2319e25afbdb59cacb945d0f2db7013f84a1d1f8c7e98a6c0f2548196f01", "0355721a9834464ea5c6467ad2d8e6bd7d3dc9ac6bf87abc1eaff29f39d7a5322c"], "sequence": 4294967294, "scriptSig": {"hex": "1600148a80bd7bffb6cc4b71aa05a5fdbe1fc686640727", "asm": "00148a80bd7bffb6cc4b71aa05a5fdbe1fc686640727"}, "vout": 0, "txid": "272d44c13db532475af0ea59b70604b1307a36df3af440c3873361a645fef5d1"}, {"txinwitness": ["30450221008c6dc0688f607bfd4f6cad16291afbbf366920d0a7bd0aee90a91c237d996a9302206623059d3e41439b06dcd451356ec0e60bcc6d33c0072054320603ade0d7387b01", "02be398222e4d252e86e359ea6c3d395e63750f7821face7f55c9cbdac5a532db1"], "sequence": 4294967294, "scriptSig": {"hex": "1600143acdc69c071c488aa2fb6e4c01540544ef8e77e9", "asm": "00143acdc69c071c488aa2fb6e4c01540544ef8e77e9"}, "vout": 40, "txid": "dd5eb9e506f88d4909506cb8a4cdd5490acea408812a755525761c76e6517ae1"}, {"txinwitness": ["30440220445158add963921a84bde4228e09cf4676c581e99b868f26eb2bb0e546007b4d02203558a74e047a457b8a11914677b748f4a657a96d759e4d4c51b40b3e5fcfaf4d01", "03a2fb0cb0f0e0d10d67d14f4a165dcf2f7df7bdc8daead9a53b869073a183ce81"], "sequence": 4294967294, "scriptSig": {"hex": "16001416f9c79b90bb46fa6a6f2d2e96430f1ef968a2f8", "asm": "001416f9c79b90bb46fa6a6f2d2e96430f1ef968a2f8"}, "vout": 0, "txid": "31d87a7581d7c8a4286537067ddfe20b25a956e2725fec8bf2f51cb217acb9e8"}], "txid": "4db944e01ebdb47f843d6843da6577c53eb0c7702268eae8faa6703e9f3640ee", "blocktime": 1537872475, "version": 2, "confirmations": 11486, "time": 1537872475, "locktime": 542994, "vsize": 1438, "size": 2647}