{"hash": "295e015df031d3e3fa230fa30c6744cbe7adef7b118e24c400d598c1b7cd90df", "blockhash": "0000000000000000000e13cef7c366c0283d82e591d1acd082e914b08063cdf1", "vout": [{"scriptPubKey": {"reqSigs": 1, "hex": "76a9142619e8468044bb30bb00214df8cb0d3e2a585a6588ac", "addresses": ["14UTiN18TXbmsb5cceezNtYphPL92XZomM"], "asm": "OP_DUP OP_HASH160 2619e8468044bb30bb00214df8cb0d3e2a585a65 OP_EQUALVERIFY OP_CHECKSIG", "type": "pubkeyhash"}, "value": 0.00549, "n": 0}, {"scriptPubKey": {"reqSigs": 1, "hex": "00142930c769faaa316f6d2f2b9d4e1fb1ae834cc815", "addresses": ["bc1q9ycvw6064gck7mf09ww5u8a346p5ejq40dzgr8"], "asm": "0 2930c769faaa316f6d2f2b9d4e1fb1ae834cc815", "type": "witness_v0_keyhash"}, "value": 0.92633612, "n": 1}], "hex": "01000000000101f82d7c3d9475eb1ee7b32dc16c967240fa4f8f89f004959c2d6de81ac2c8069119000000171600141618b621d4fcc284e828b955b634a5e8a9bd711bffffffff0288600800000000001976a9142619e8468044bb30bb00214df8cb0d3e2a585a6588ac0c7a8505000000001600142930c769faaa316f6d2f2b9d4e1fb1ae834cc8150247304402202142ac3ce28637f3b947663642cc5a5ac8d51262d048e545c0c26f19f13ba281022014d57957c73f76e6e58abc0e7e53cdc7f6f096898768094acf00f4534fb662ea012103cb5af47e9e3b0ee23ba787b2d77e1dceecc49d9e08fe0a0c440910468d94d59600000000", "vin": [{"txinwitness": ["304402202142ac3ce28637f3b947663642cc5a5ac8d51262d048e545c0c26f19f13ba281022014d57957c73f76e6e58abc0e7e53cdc7f6f096898768094acf00f4534fb662ea01", "03cb5af47e9e3b0ee23ba787b2d77e1dceecc49d9e08fe0a0c440910468d94d596"], "sequence": 4294967295, "scriptSig": {"hex": "1600141618b621d4fcc284e828b955b634a5e8a9bd711b", "asm": "00141618b621d4fcc284e828b955b634a5e8a9bd711b"}, "vout": 25, "txid": "9106c8c21ae86d2d9c9504f0898f4ffa4072966cc12db3e71eeb75943d7c2df8"}], "txid": "4dbc8808204dee667252b98e38204e6f61830cd6e5f70137e1ff701d870c073e", "blocktime": 1537871767, "version": 1, "confirmations": 11495, "time": 1537871767, "locktime": 0, "vsize": 167, "size": 248}