{"hash": "4dbe7425155ab2054acf299fd6d32d8456b5d53f3455a9425a81a88624bbd26a", "blockhash": "0000000000000000001f76057863aec43deb6fa401d9628bb513d65a8098bfab", "vout": [{"scriptPubKey": {"reqSigs": 1, "hex": "76a91432bffbf9d22143348e03e9431b6bc25872ad164088ac", "addresses": ["15dLmtoimQYtqFawsCk9VHBBPrj72aay9t"], "asm": "OP_DUP OP_HASH160 32bffbf9d22143348e03e9431b6bc25872ad1640 OP_EQUALVERIFY OP_CHECKSIG", "type": "pubkeyhash"}, "value": 1.0, "n": 0}, {"scriptPubKey": {"reqSigs": 1, "hex": "76a91441fe5fc60fff6180dcae1fffd5911ecde80009bc88ac", "addresses": ["171wehAF8mwKosvL1Q1Pjtvx6QW9WdsTGb"], "asm": "OP_DUP OP_HASH160 41fe5fc60fff6180dcae1fffd5911ecde80009bc OP_EQUALVERIFY OP_CHECKSIG", "type": "pubkeyhash"}, "value": 0.20014115, "n": 1}], "hex": "010000000306ed15eb2f60addbe1d1981b8660fb33e44186aad8395c946c1d0f08ec67d937010000006b483045022100f5cc0b3dc66a8a1cc5586f2f73b1c08bba51c2e751e02a6334f13a463266b43802204733ade4d4a02f4a0221539f374b87c8e3d2f06f16b7a055b00bebc95d36020a012103a10a15df1a7921d9f77ec4ce8d26820a6fa486d0acfb6ab3f555572ee0ab1ad7ffffffff4ff9e020f6c04014592b6a95b38e2e12f2bcb8b2b588a652f75b422a4143247b000000006b483045022100c0f44324903924e70aaff3dd96bf697e804c8e88406d7385d9ba0f08a011eca702207b8a3d541d5903a94ee87108489db0fda6ab918bb3bf63baa5631661a8dc7bce01210229bf7be72dd24048948deedbc8200b3e3c3a2fcb7ed96f57a406c79a6936aa98ffffffff5a198a2432cad4e3a04844f6e2c24cab61f30b3b3ac2d9490f4a96677bb2ad01000000006b483045022100945d932fa34d99e236ebfda656b3f2f96260e72c649adaa09f9cf92a7fc2e3ff022014523a3f494a2aac832ac4cc96adc99c0fa78a360d6e2f0e42a991993b37747f012102b59bdd4d8cf083d84262b6806d066d4423fe6ebaa3a45ec60dd769b844189086ffffffff0200e1f505000000001976a91432bffbf9d22143348e03e9431b6bc25872ad164088ac23643101000000001976a91441fe5fc60fff6180dcae1fffd5911ecde80009bc88ac00000000", "vin": [{"sequence": 4294967295, "scriptSig": {"hex": "483045022100f5cc0b3dc66a8a1cc5586f2f73b1c08bba51c2e751e02a6334f13a463266b43802204733ade4d4a02f4a0221539f374b87c8e3d2f06f16b7a055b00bebc95d36020a012103a10a15df1a7921d9f77ec4ce8d26820a6fa486d0acfb6ab3f555572ee0ab1ad7", "asm": "3045022100f5cc0b3dc66a8a1cc5586f2f73b1c08bba51c2e751e02a6334f13a463266b43802204733ade4d4a02f4a0221539f374b87c8e3d2f06f16b7a055b00bebc95d36020a[ALL] 03a10a15df1a7921d9f77ec4ce8d26820a6fa486d0acfb6ab3f555572ee0ab1ad7"}, "vout": 1, "txid": "37d967ec080f1d6c945c39d8aa8641e433fb60861b98d1e1dbad602feb15ed06"}, {"sequence": 4294967295, "scriptSig": {"hex": "483045022100c0f44324903924e70aaff3dd96bf697e804c8e88406d7385d9ba0f08a011eca702207b8a3d541d5903a94ee87108489db0fda6ab918bb3bf63baa5631661a8dc7bce01210229bf7be72dd24048948deedbc8200b3e3c3a2fcb7ed96f57a406c79a6936aa98", "asm": "3045022100c0f44324903924e70aaff3dd96bf697e804c8e88406d7385d9ba0f08a011eca702207b8a3d541d5903a94ee87108489db0fda6ab918bb3bf63baa5631661a8dc7bce[ALL] 0229bf7be72dd24048948deedbc8200b3e3c3a2fcb7ed96f57a406c79a6936aa98"}, "vout": 0, "txid": "7b2443412a425bf752a688b5b2b8bcf2122e8eb3956a2b591440c0f620e0f94f"}, {"sequence": 4294967295, "scriptSig": {"hex": "483045022100945d932fa34d99e236ebfda656b3f2f96260e72c649adaa09f9cf92a7fc2e3ff022014523a3f494a2aac832ac4cc96adc99c0fa78a360d6e2f0e42a991993b37747f012102b59bdd4d8cf083d84262b6806d066d4423fe6ebaa3a45ec60dd769b844189086", "asm": "3045022100945d932fa34d99e236ebfda656b3f2f96260e72c649adaa09f9cf92a7fc2e3ff022014523a3f494a2aac832ac4cc96adc99c0fa78a360d6e2f0e42a991993b37747f[ALL] 02b59bdd4d8cf083d84262b6806d066d4423fe6ebaa3a45ec60dd769b844189086"}, "vout": 0, "txid": "01adb27b67964a0f49d9c23a3b0bf361ab4cc2e2f64448a0e3d4ca32248a195a"}], "txid": "4dbe7425155ab2054acf299fd6d32d8456b5d53f3455a9425a81a88624bbd26a", "blocktime": 1537873891, "version": 1, "confirmations": 11475, "time": 1537873891, "locktime": 0, "vsize": 522, "size": 522}