{"hash": "4dc5d3b44baa0fe52f1b3c13910777bffc94bedf1429e292f7761a40a708e864", "blockhash": "0000000000000000000baef3f32e3676a92c3b2e5da21b426e4f302fc371ce76", "vout": [{"scriptPubKey": {"reqSigs": 1, "hex": "76a9149d7a74aa43334067383a71214a3edee0e3c4e0ab88ac", "addresses": ["1FMfnVRwNxTCDDQBcaHoMKQr8ZjBsRrHQ7"], "asm": "OP_DUP OP_HASH160 9d7a74aa43334067383a71214a3edee0e3c4e0ab OP_EQUALVERIFY OP_CHECKSIG", "type": "pubkeyhash"}, "value": 0.00117235, "n": 0}, {"scriptPubKey": {"reqSigs": 1, "hex": "76a91473a8805d245a3ed6318baeb31122456e705599ab88ac", "addresses": ["1BYYZkBUvmhfGnQeUsthTjALWo4tn3RWTo"], "asm": "OP_DUP OP_HASH160 73a8805d245a3ed6318baeb31122456e705599ab OP_EQUALVERIFY OP_CHECKSIG", "type": "pubkeyhash"}, "value": 0.15667375, "n": 1}], "hex": "0100000001402bab2ba21a00f4204864cd998139ffc06f88f6a6686641262a69a034e7bc7b010000006a4730440220455eef0c5b73c75239fa81280f9b2a8032ea8336c5c714976ba92a6111f7ed8d022054e3285fb9a2a593704fd699c08cd9ee07341a8c4af593911c6a49e16877d023012102413628a7adc2249c2ee29d0f72d5f9783568eaeb11b3d107f10392eae7b28306ffffffff02f3c90100000000001976a9149d7a74aa43334067383a71214a3edee0e3c4e0ab88acaf10ef00000000001976a91473a8805d245a3ed6318baeb31122456e705599ab88ac00000000", "vin": [{"sequence": 4294967295, "scriptSig": {"hex": "4730440220455eef0c5b73c75239fa81280f9b2a8032ea8336c5c714976ba92a6111f7ed8d022054e3285fb9a2a593704fd699c08cd9ee07341a8c4af593911c6a49e16877d023012102413628a7adc2249c2ee29d0f72d5f9783568eaeb11b3d107f10392eae7b28306", "asm": "30440220455eef0c5b73c75239fa81280f9b2a8032ea8336c5c714976ba92a6111f7ed8d022054e3285fb9a2a593704fd699c08cd9ee07341a8c4af593911c6a49e16877d023[ALL] 02413628a7adc2249c2ee29d0f72d5f9783568eaeb11b3d107f10392eae7b28306"}, "vout": 1, "txid": "7bbce734a0692a26416668a6f6886fc0ff398199cd644820f4001aa22bab2b40"}], "txid": "4dc5d3b44baa0fe52f1b3c13910777bffc94bedf1429e292f7761a40a708e864", "blocktime": 1537876114, "version": 1, "confirmations": 11460, "time": 1537876114, "locktime": 0, "vsize": 225, "size": 225}