{"hash": "eb28a7ce9ad1f12ee89bce708acefca9216063eedbff6beb18f9e81102bbdea9", "blockhash": "0000000000000000001f76057863aec43deb6fa401d9628bb513d65a8098bfab", "vout": [{"scriptPubKey": {"reqSigs": 1, "hex": "00146337e8c0413723a165a81175cf94f5aa42100ac2", "addresses": ["bc1qvvm73szpxu36zedgz96ul9844fppqzkz9xc7t6"], "asm": "0 6337e8c0413723a165a81175cf94f5aa42100ac2", "type": "witness_v0_keyhash"}, "value": 0.00054414, "n": 0}, {"scriptPubKey": {"reqSigs": 1, "hex": "76a914017f6eb80e89adb6937d1633357e0e1b0d7ecc1188ac", "addresses": ["18vLMhXezgaVebL9Jv3HiP6BjF1Eza3oV"], "asm": "OP_DUP OP_HASH160 017f6eb80e89adb6937d1633357e0e1b0d7ecc11 OP_EQUALVERIFY OP_CHECKSIG", "type": "pubkeyhash"}, "value": 0.01194998, "n": 1}], "hex": "01000000000101a5f1ca533f299c10edb00b4322ffd30e395846476109c93545b3ed733583e7d00000000017160014d34cb94bdc02f7b8038b46519b0ae6f4ff123ab2ffffffff028ed40000000000001600146337e8c0413723a165a81175cf94f5aa42100ac2f63b1200000000001976a914017f6eb80e89adb6937d1633357e0e1b0d7ecc1188ac024730440220279e78ee86d36e56be2b37af3e745f5c82c6fa059fcd5a26f04643d10eab102102204f55e840395b6cbd01d010671d7293ec428f5442d6c71ff7dfdc1a0feea395810121039b1a76d4b357acf7a4a20a037743ff1730e7796c70ce3768ce102745bb3801c100000000", "vin": [{"txinwitness": ["30440220279e78ee86d36e56be2b37af3e745f5c82c6fa059fcd5a26f04643d10eab102102204f55e840395b6cbd01d010671d7293ec428f5442d6c71ff7dfdc1a0feea3958101", "039b1a76d4b357acf7a4a20a037743ff1730e7796c70ce3768ce102745bb3801c1"], "sequence": 4294967295, "scriptSig": {"hex": "160014d34cb94bdc02f7b8038b46519b0ae6f4ff123ab2", "asm": "0014d34cb94bdc02f7b8038b46519b0ae6f4ff123ab2"}, "vout": 0, "txid": "d0e7833573edb34535c90961474658390ed3ff22430bb0ed109c293f53caf1a5"}], "txid": "4dc67b637334f6273420f727d3ed3eb159675d36ae160feff393c5287577b994", "blocktime": 1537873891, "version": 1, "confirmations": 11478, "time": 1537873891, "locktime": 0, "vsize": 167, "size": 248}