{"hash": "4dc898b99879341c7a52c1f393b1cfa07ff009ae96c065651c97263524e0a56e", "blockhash": "0000000000000000000baef3f32e3676a92c3b2e5da21b426e4f302fc371ce76", "vout": [{"scriptPubKey": {"type": "nulldata", "hex": "6a4c5000007807000163d7791cdde48e259720b791702940d64fa54d8eb2d19ed074892d00f8e8b2fb2c1f697233c2de859105462799725baa1abc06137fd16ced59941d100759d4ba30d2c37bb011d97e02cf", "asm": "OP_RETURN 00007807000163d7791cdde48e259720b791702940d64fa54d8eb2d19ed074892d00f8e8b2fb2c1f697233c2de859105462799725baa1abc06137fd16ced59941d100759d4ba30d2c37bb011d97e02cf"}, "value": 0.0, "n": 0}, {"scriptPubKey": {"reqSigs": 1, "hex": "76a9146b7c7da00141ac9779e2c72760c060432b24f79788ac", "addresses": ["1AoLSHzMRcsWXZqYPnqzwCbC9AyLPhf2qt"], "asm": "OP_DUP OP_HASH160 6b7c7da00141ac9779e2c72760c060432b24f797 OP_EQUALVERIFY OP_CHECKSIG", "type": "pubkeyhash"}, "value": 0.00632784, "n": 1}], "hex": "01000000017808fa7c1782c0a1d66d0a5f96304b1ecdd922512a00571968024f7f3a2b25ba000000006b483045022100a179071c522ae8bbee767d0c1c2ec6038c9841f1adefea36bf20d993053dafd6022019586f83bb409da6d2089d7eaa9cab0510e5ebf66e215f5e344617f9136b7779012103306ec686c3c976673eea2fcf6648d9d18c9448fc4427265058cbad70716eeef0ffffffff020000000000000000536a4c5000007807000163d7791cdde48e259720b791702940d64fa54d8eb2d19ed074892d00f8e8b2fb2c1f697233c2de859105462799725baa1abc06137fd16ced59941d100759d4ba30d2c37bb011d97e02cfd0a70900000000001976a9146b7c7da00141ac9779e2c72760c060432b24f79788ac00000000", "vin": [{"sequence": 4294967295, "scriptSig": {"hex": "483045022100a179071c522ae8bbee767d0c1c2ec6038c9841f1adefea36bf20d993053dafd6022019586f83bb409da6d2089d7eaa9cab0510e5ebf66e215f5e344617f9136b7779012103306ec686c3c976673eea2fcf6648d9d18c9448fc4427265058cbad70716eeef0", "asm": "3045022100a179071c522ae8bbee767d0c1c2ec6038c9841f1adefea36bf20d993053dafd6022019586f83bb409da6d2089d7eaa9cab0510e5ebf66e215f5e344617f9136b7779[ALL] 03306ec686c3c976673eea2fcf6648d9d18c9448fc4427265058cbad70716eeef0"}, "vout": 0, "txid": "ba252b3a7f4f02681957002a5122d9cd1e4b30965f0a6dd6a1c082177cfa0878"}], "txid": "4dc898b99879341c7a52c1f393b1cfa07ff009ae96c065651c97263524e0a56e", "blocktime": 1537876114, "version": 1, "confirmations": 11460, "time": 1537876114, "locktime": 0, "vsize": 284, "size": 284}