{"hash": "7f107a82d76393cbadd1dda08245419809452d1984c50b28e403e0fce065f03c", "blockhash": "0000000000000000000dcc0f55137456b1a82d3642486a52398922ac4d620174", "vout": [{"scriptPubKey": {"reqSigs": 1, "hex": "a914b9cf5afdac34bf5059e19c2076d6e92174ae8c8787", "addresses": ["3JdVLLhZU52J2zmRsfWjgVbYJ1LoLY6wiM"], "asm": "OP_HASH160 b9cf5afdac34bf5059e19c2076d6e92174ae8c87 OP_EQUAL", "type": "scripthash"}, "value": 0.0005, "n": 0}, {"scriptPubKey": {"reqSigs": 1, "hex": "001424d5f441a07550419bfe85b51b64910592f8afef", "addresses": ["bc1qyn2lgsdqw4gyrxl7sk63key3qkf03tl0trfy9y"], "asm": "0 24d5f441a07550419bfe85b51b64910592f8afef", "type": "witness_v0_keyhash"}, "value": 1.42e-05, "n": 1}], "hex": "0100000000010188501536e1edcd7bb9ca61f994e80fa8bcdbf43cad4459d4e5d45b0b310694c12703000017160014c87af96b3cda1df8b731c8d88fc45532e6ede8abffffffff0250c300000000000017a914b9cf5afdac34bf5059e19c2076d6e92174ae8c87878c0500000000000016001424d5f441a07550419bfe85b51b64910592f8afef0248304502210095d416c9b848961909320de4a1181579d0d5542eb22d9cc0ba181ae7d863529702200e352f5170772822b978a13f075683c300f42df8496ad2a3d70443a6eaab77f7012103cc3584ac90064cc22cbb0782f27fdaf2182b14042277432897f010a283c0c15000000000", "vin": [{"txinwitness": ["304502210095d416c9b848961909320de4a1181579d0d5542eb22d9cc0ba181ae7d863529702200e352f5170772822b978a13f075683c300f42df8496ad2a3d70443a6eaab77f701", "03cc3584ac90064cc22cbb0782f27fdaf2182b14042277432897f010a283c0c150"], "sequence": 4294967295, "scriptSig": {"hex": "160014c87af96b3cda1df8b731c8d88fc45532e6ede8ab", "asm": "0014c87af96b3cda1df8b731c8d88fc45532e6ede8ab"}, "vout": 807, "txid": "c19406310b5bd4e5d45944ad3cf4dbbca80fe894f961cab97bcdede136155088"}], "txid": "4dd4964a0e8ba3aea3c91b1a55e4a823e75327ee5e5ce895e0d41d0262a9f733", "blocktime": 1537870268, "version": 1, "confirmations": 11518, "time": 1537870268, "locktime": 0, "vsize": 165, "size": 247}