{"hash": "10f07756c2b42286628f4a16156ed15079cf49c8db53758b9010d21abb8320ce", "blockhash": "00000000000000000004ffacab907a6b429b9a5745fa0b75af4234bf69dd7176", "vout": [{"scriptPubKey": {"reqSigs": 1, "hex": "76a914a90904137a17a881a522dea4887a94b77138d0e688ac", "addresses": ["1GQmzrgbPKikFM4e4hMtKBAdurZEpShKtC"], "asm": "OP_DUP OP_HASH160 a90904137a17a881a522dea4887a94b77138d0e6 OP_EQUALVERIFY OP_CHECKSIG", "type": "pubkeyhash"}, "value": 0.0126033, "n": 0}, {"scriptPubKey": {"reqSigs": 1, "hex": "a914009018cc5fc7a00e03566e60f7be3d4c2611c42687", "addresses": ["31jzYZzix2Z2z1uDvumdorYx4weaRAQwxA"], "asm": "OP_HASH160 009018cc5fc7a00e03566e60f7be3d4c2611c426 OP_EQUAL", "type": "scripthash"}, "value": 0.00998127, "n": 1}], "hex": "020000000001016bab97b9289da532ec22a57b5d0da613bdbcaa37e12f2f90b1f19a4ed7c4b883010000001716001431f1108ac479d8af254597b583433f456c7ce9c6feffffff022a3b1300000000001976a914a90904137a17a881a522dea4887a94b77138d0e688acef3a0f000000000017a914009018cc5fc7a00e03566e60f7be3d4c2611c4268702473044022021bfc4a69878562464e9ef563dd82cf92842f68f7945794d3e02221cb041f36c022064a5db61cf8c2bf4030fb12dbba5e0086cc4f6237b55dc088d899241471cc4060121029676fe1acb169d36d1223b05cd92a39adbc2fc9f504d67ad10c65f8cd855e09716490800", "vin": [{"txinwitness": ["3044022021bfc4a69878562464e9ef563dd82cf92842f68f7945794d3e02221cb041f36c022064a5db61cf8c2bf4030fb12dbba5e0086cc4f6237b55dc088d899241471cc40601", "029676fe1acb169d36d1223b05cd92a39adbc2fc9f504d67ad10c65f8cd855e097"], "sequence": 4294967294, "scriptSig": {"hex": "16001431f1108ac479d8af254597b583433f456c7ce9c6", "asm": "001431f1108ac479d8af254597b583433f456c7ce9c6"}, "vout": 1, "txid": "83b8c4d74e9af1b1902f2fe137aabcbd13a60d5d7ba522ec32a59d28b997ab6b"}], "txid": "4dd491183b426afef2b52d26f5a1a581cc92be509ca8b6724f35ac0d94591249", "blocktime": 1537875543, "version": 2, "confirmations": 11464, "time": 1537875543, "locktime": 542998, "vsize": 168, "size": 249}