{"hash": "ef39d5efe47b3a8fa56e79db9c5b1b6b6fb0d5d41d67b2febba908f9986e8318", "blockhash": "0000000000000000001cda96e906b7601b7a6fb1a3b62bca570a9e5d8f4b3de1", "vout": [{"scriptPubKey": {"reqSigs": 1, "hex": "a91409f4af8b65aa375907a8e7eff81419f001e183d087", "addresses": ["32bf8LDdJRGFuen16hRNrhcmr2KWDxeQte"], "asm": "OP_HASH160 09f4af8b65aa375907a8e7eff81419f001e183d0 OP_EQUAL", "type": "scripthash"}, "value": 0.11003197, "n": 0}, {"scriptPubKey": {"reqSigs": 1, "hex": "a914e4082a9cc7d086a265694f5df294db191f62a6fc87", "addresses": ["3NUjmhLf6RUrAmpRv9yPENkT8bsJmCvCjy"], "asm": "OP_HASH160 e4082a9cc7d086a265694f5df294db191f62a6fc OP_EQUAL", "type": "scripthash"}, "value": 0.00997881, "n": 1}], "hex": "02000000000105109b4acf12994d53a1dbe8b2b13f3838ad13c8d070e9567690f7641e8e2db95b0000000017160014d0b41a57e68ebe608b135335997323f3bd370fe1feffffff1601c869d66008ea4404a058349b1181760159cebeba78f682832573191da5620000000017160014e03bbf13ae759af399e1e305e75813a02e32c75ffeffffff3812ed3c701fd50c99795f4f445a8fdb7109ec278493ea8d77bfba4fbf792dcc0000000017160014e8558472ab6caf0af8d8584c55a0a3e448489bb8feffffff970b10f030633172bb155bbe01415bfafe8883f619530a6eebd4feb35fa1c67200000000171600143c81887ae4d0e93183f9fce3c1b84d2c2c48c142feffffffe078b8e6a84f6b5d0e8f20ed8fe9823e437319dcedd835c08d28d3bee2e47fed010000001716001436badd5e1ee32e4770ed233a8a02096cad4159e1feffffff023de5a7000000000017a91409f4af8b65aa375907a8e7eff81419f001e183d087f9390f000000000017a914e4082a9cc7d086a265694f5df294db191f62a6fc8702473044022045163bbe1b638514f5885ef62ebdcf4e8436ccf3601efcbd24a6d0f56c9fdbe3022015f12da966672a28fee9e770f457a061fa2664e8250c42b2159921ff204f7fb4012102f21aa86971de34224160e3dd4a28cae504f2478363ebd60413ad5743196e89860247304402204933b58aef4782141798e0c2c8adfff4b73f124be26e291203b0ace0130e4b3e02200c761c4ee97257cd32efdd8207e8c0e347230910ea1c3d5e59f5670080a6149101210320be2fb17a73f2afe7affa666190326a11e8f234539690cd01bf6b6056d9f8f10247304402204aebdb549184fdaf6437b42f677b5c082d8516143a745d2fe216aecacffa9fc502207d3c510f083c9fcbcde63b5695a27932c0b83237413a613b3801de6a0bc0f49b012103af69dced7053108a572ce58a13560bdb2a51531fa8875264bf2becadd6d79b8b02483045022100b06737d321dcfcc3e709a2effb7a49edd0e44128503fd7f170343f2cacc9fbb702207df57ed2f39b5c72f94ff3e54ec5897933f5ef61155258ebc11291c5c3d1709001210370f39c9da5810ad8dc0f4a830eae65b69734551e26e09375f53385cddf45920e02483045022100ec4f996940c2ac375d511639232f7e6a824dec695d4604ef69e82d9f080d03ab02205c8195ce6b4dad264125110efc0fe16dfc9b1ff3d7c50bec3479de4dae84aa9e0121023cdf813e68ffce9c5a8426af4be21af0f9cb0251b7f4b0b0e97117e2178ff31e13490800", "vin": [{"txinwitness": ["3044022045163bbe1b638514f5885ef62ebdcf4e8436ccf3601efcbd24a6d0f56c9fdbe3022015f12da966672a28fee9e770f457a061fa2664e8250c42b2159921ff204f7fb401", "02f21aa86971de34224160e3dd4a28cae504f2478363ebd60413ad5743196e8986"], "sequence": 4294967294, "scriptSig": {"hex": "160014d0b41a57e68ebe608b135335997323f3bd370fe1", "asm": "0014d0b41a57e68ebe608b135335997323f3bd370fe1"}, "vout": 0, "txid": "5bb92d8e1e64f7907656e970d0c813ad38383fb1b2e8dba1534d9912cf4a9b10"}, {"txinwitness": ["304402204933b58aef4782141798e0c2c8adfff4b73f124be26e291203b0ace0130e4b3e02200c761c4ee97257cd32efdd8207e8c0e347230910ea1c3d5e59f5670080a6149101", "0320be2fb17a73f2afe7affa666190326a11e8f234539690cd01bf6b6056d9f8f1"], "sequence": 4294967294, "scriptSig": {"hex": "160014e03bbf13ae759af399e1e305e75813a02e32c75f", "asm": "0014e03bbf13ae759af399e1e305e75813a02e32c75f"}, "vout": 0, "txid": "62a51d1973258382f678babece59017681119b3458a00444ea0860d669c80116"}, {"txinwitness": ["304402204aebdb549184fdaf6437b42f677b5c082d8516143a745d2fe216aecacffa9fc502207d3c510f083c9fcbcde63b5695a27932c0b83237413a613b3801de6a0bc0f49b01", "03af69dced7053108a572ce58a13560bdb2a51531fa8875264bf2becadd6d79b8b"], "sequence": 4294967294, "scriptSig": {"hex": "160014e8558472ab6caf0af8d8584c55a0a3e448489bb8", "asm": "0014e8558472ab6caf0af8d8584c55a0a3e448489bb8"}, "vout": 0, "txid": "cc2d79bf4fbabf778dea938427ec0971db8f5a444f5f79990cd51f703ced1238"}, {"txinwitness": ["3045022100b06737d321dcfcc3e709a2effb7a49edd0e44128503fd7f170343f2cacc9fbb702207df57ed2f39b5c72f94ff3e54ec5897933f5ef61155258ebc11291c5c3d1709001", "0370f39c9da5810ad8dc0f4a830eae65b69734551e26e09375f53385cddf45920e"], "sequence": 4294967294, "scriptSig": {"hex": "1600143c81887ae4d0e93183f9fce3c1b84d2c2c48c142", "asm": "00143c81887ae4d0e93183f9fce3c1b84d2c2c48c142"}, "vout": 0, "txid": "72c6a15fb3fed4eb6e0a5319f68388fefa5b4101be5b15bb72316330f0100b97"}, {"txinwitness": ["3045022100ec4f996940c2ac375d511639232f7e6a824dec695d4604ef69e82d9f080d03ab02205c8195ce6b4dad264125110efc0fe16dfc9b1ff3d7c50bec3479de4dae84aa9e01", "023cdf813e68ffce9c5a8426af4be21af0f9cb0251b7f4b0b0e97117e2178ff31e"], "sequence": 4294967294, "scriptSig": {"hex": "16001436badd5e1ee32e4770ed233a8a02096cad4159e1", "asm": "001436badd5e1ee32e4770ed233a8a02096cad4159e1"}, "vout": 1, "txid": "ed7fe4e2bed3288dc035d8eddc1973433e82e98fed208f0e5d6b4fa8e6b878e0"}], "txid": "4ddf1e014fd9ccc467d6200c1624aee44d1ccd2eb7e605811e0a0724dfa03d5e", "blocktime": 1537873282, "version": 2, "confirmations": 11484, "time": 1537873282, "locktime": 542995, "vsize": 529, "size": 933}