{"hash": "4b6edc740849a450c88df5a812b5236c4463eaf9b93913bd87db877ca69e6a20", "blockhash": "00000000000000000004ffacab907a6b429b9a5745fa0b75af4234bf69dd7176", "vout": [{"scriptPubKey": {"reqSigs": 1, "hex": "a914e8d0dd8380712684076f9a9f63142e04b0d9f1b887", "addresses": ["3Nv2uGD4qa1kaf5HfY6iyFo6fwkrWgxTyG"], "asm": "OP_HASH160 e8d0dd8380712684076f9a9f63142e04b0d9f1b8 OP_EQUAL", "type": "scripthash"}, "value": 6.0, "n": 0}, {"scriptPubKey": {"reqSigs": 1, "hex": "0020701a8d401c84fb13e6baf169d59684e17abd9fa216c8cc5b9fc63d622ff8c58d", "addresses": ["bc1qwqdg6squsna38e46795at95yu9atm8azzmyvckulcc7kytlcckxswvvzej"], "asm": "0 701a8d401c84fb13e6baf169d59684e17abd9fa216c8cc5b9fc63d622ff8c58d", "type": "witness_v0_scripthash"}, "value": 2.84450122, "n": 1}], "hex": "0100000000010115e306161e13919ecee5a500e71f05e335556b661b0a7433fdf8d4ed736c0a6f0400000000ffffffff020046c3230000000017a914e8d0dd8380712684076f9a9f63142e04b0d9f1b8874a5df41000000000220020701a8d401c84fb13e6baf169d59684e17abd9fa216c8cc5b9fc63d622ff8c58d040048304502210086372e5532f593ca515f87478a49330bb7ed0e9d13c615af2925b163fdb17c080220326ab539e2c90416657ce691d3a852da2448d9d54c0250be4d914ad895dabc1301473044022049dce172424bc937347ff2f9aa88a1c2938e46922f37579d87d571874b23b2f40220139ad3fe23160559549ee733b214fce8e6c14befaa81fc8b4885075ac77b9423016952210375e00eb72e29da82b89367947f29ef34afb75e8654f6ea368e0acdfd92976b7c2103a1b26313f430c4b15bb1fdce663207659d8cac749a0e53d70eff01874496feff2103c96d495bfdd5ba4145e3e046fee45e84a8a48ad05bd8dbb395c011a32cf9f88053ae00000000", "vin": [{"txinwitness": ["", "304502210086372e5532f593ca515f87478a49330bb7ed0e9d13c615af2925b163fdb17c080220326ab539e2c90416657ce691d3a852da2448d9d54c0250be4d914ad895dabc1301", "3044022049dce172424bc937347ff2f9aa88a1c2938e46922f37579d87d571874b23b2f40220139ad3fe23160559549ee733b214fce8e6c14befaa81fc8b4885075ac77b942301", "52210375e00eb72e29da82b89367947f29ef34afb75e8654f6ea368e0acdfd92976b7c2103a1b26313f430c4b15bb1fdce663207659d8cac749a0e53d70eff01874496feff2103c96d495bfdd5ba4145e3e046fee45e84a8a48ad05bd8dbb395c011a32cf9f88053ae"], "sequence": 4294967295, "scriptSig": {"hex": "", "asm": ""}, "vout": 4, "txid": "6f0a6c73edd4f8fd33740a1b666b5535e3051fe700a5e5ce9e91131e1606e315"}], "txid": "4de57056ef3f579eeef23c29c2738e479a0551a6f732295577bca6a869d4cc4c", "blocktime": 1537875543, "version": 1, "confirmations": 11464, "time": 1537875543, "locktime": 0, "vsize": 190, "size": 381}