{"hash": "f1407ed29cd61dc9e3f108a5dd8bf9a931a51504cebf0beba2ada37bf713506d", "blockhash": "000000000000000000022b45ed06c6f4ccd3cf7fb5ba4856ebd2e58215665228", "vout": [{"scriptPubKey": {"reqSigs": 1, "hex": "76a914592bc433e7efb1038e3a1f19960d683a499fdbcf88ac", "addresses": ["198Va1ymCwGSu5UfYGdih8TCbgvqxXCFDG"], "asm": "OP_DUP OP_HASH160 592bc433e7efb1038e3a1f19960d683a499fdbcf OP_EQUALVERIFY OP_CHECKSIG", "type": "pubkeyhash"}, "value": 0.00077001, "n": 0}], "hex": "020000000001012d60ef3219b6f4058883d4c51c3f7d3cd5879a7a81d020515ff6cc1f73ed8bec00000000171600146e329623e3de3ff496e1a1581d44c7f7948258f2ffffffff01c92c0100000000001976a914592bc433e7efb1038e3a1f19960d683a499fdbcf88ac02473044022000cab782e9df005f26888ecb144a1a76f34d8c0b684efcf3b3ad33485eb94d4a02207d78e773b6aa802524844573d5e949719194e87707ee44ebc9e14dccdc0e5245012102b168adeeeefd7c1a3103127b67e17e314e3ab7df9b1bc606cb9ec4e696643e9a00000000", "vin": [{"txinwitness": ["3044022000cab782e9df005f26888ecb144a1a76f34d8c0b684efcf3b3ad33485eb94d4a02207d78e773b6aa802524844573d5e949719194e87707ee44ebc9e14dccdc0e524501", "02b168adeeeefd7c1a3103127b67e17e314e3ab7df9b1bc606cb9ec4e696643e9a"], "sequence": 4294967295, "scriptSig": {"hex": "1600146e329623e3de3ff496e1a1581d44c7f7948258f2", "asm": "00146e329623e3de3ff496e1a1581d44c7f7948258f2"}, "vout": 0, "txid": "ec8bed731fccf65f5120d0817a9a87d53c7d3f1cc5d4838805f4b61932ef602d"}], "txid": "4de87c36a96a697cfd44872b316de8c28c2f092dbca0894bb39ea333cd7449c2", "blocktime": 1537869901, "version": 2, "confirmations": 11522, "time": 1537869901, "locktime": 0, "vsize": 136, "size": 217}