{"hash": "11798b6197e054cf95b5bc171909ee317be388272edd3935b5a190696120f674", "blockhash": "0000000000000000000e13cef7c366c0283d82e591d1acd082e914b08063cdf1", "vout": [{"scriptPubKey": {"reqSigs": 1, "hex": "a91496ebb91c3f866ce818cfd4bb6625285dbafcc42987", "addresses": ["3FT1fePthSn1XYBaDwTM5DHkkYHFb5vVki"], "asm": "OP_HASH160 96ebb91c3f866ce818cfd4bb6625285dbafcc429 OP_EQUAL", "type": "scripthash"}, "value": 0.002496, "n": 0}, {"scriptPubKey": {"reqSigs": 1, "hex": "0014618d3d78a3f1bda2b71cf70d687029da58932cc2", "addresses": ["bc1qvxxn679r7x769dcu7uxksupfmfvfxtxzn87fnv"], "asm": "0 618d3d78a3f1bda2b71cf70d687029da58932cc2", "type": "witness_v0_keyhash"}, "value": 1.2e-05, "n": 1}], "hex": "01000000000101ecc4a14547bcbe3e3479cdc1b04c6e4f8ca6c7101ec3608355fbb9a16018699e0000000000ffffffff0200cf03000000000017a91496ebb91c3f866ce818cfd4bb6625285dbafcc42987b004000000000000160014618d3d78a3f1bda2b71cf70d687029da58932cc202483045022100b9f80f45b7303311cd6962573349f594bc261e3a3d9cb5a7cd764716a444deb002204e5b7c9db6932fbd9640987623e938645b2ae78d666d3eed17402275a87cd985012102f70bb32ef437f4a91107f896ddcaa77e031c7ab8e301843adadefa8de1002b2200000000", "vin": [{"txinwitness": ["3045022100b9f80f45b7303311cd6962573349f594bc261e3a3d9cb5a7cd764716a444deb002204e5b7c9db6932fbd9640987623e938645b2ae78d666d3eed17402275a87cd98501", "02f70bb32ef437f4a91107f896ddcaa77e031c7ab8e301843adadefa8de1002b22"], "sequence": 4294967295, "scriptSig": {"hex": "", "asm": ""}, "vout": 0, "txid": "9e691860a1b9fb558360c31e10c7a68c4f6e4cb0c1cd79343ebebc4745a1c4ec"}], "txid": "4de9532e920c88028f3592aa7ace6785c041b3209e08b29d58f062c4e57b9478", "blocktime": 1537871767, "version": 1, "confirmations": 11495, "time": 1537871767, "locktime": 0, "vsize": 142, "size": 224}