{"hash": "4deaff511dcae05d4d793bc47ff47090619790b88c92d73fc8993ad7542227d6", "blockhash": "0000000000000000000e13cef7c366c0283d82e591d1acd082e914b08063cdf1", "vout": [{"scriptPubKey": {"reqSigs": 1, "hex": "a91433462ea6ac2854e98ee96cd5894da7ccd5160b6e87", "addresses": ["36N8Tg3XygZ5wZkUG3fBy4FEQzokg66XyX"], "asm": "OP_HASH160 33462ea6ac2854e98ee96cd5894da7ccd5160b6e OP_EQUAL", "type": "scripthash"}, "value": 0.01505221, "n": 0}], "hex": "0100000001b62e8739079704f70033f6af67f0b925a677da2a7b58f4adde71d1af65b0fade170000006b483045022100f3e1af2a7b51cdfa324e72515465f9f0ebd146d70d2e71a4f7656c3f82e37cd402203c48dccd368872639372bf1f192dc28fdfbecb54fc460f8ff17e2fd3b8b7a9f9012102e8dcf7b6be973f19316a78d685d86db0880d2c9f64fc45c109fab646b4ded8b7ffffffff01c5f716000000000017a91433462ea6ac2854e98ee96cd5894da7ccd5160b6e8700000000", "vin": [{"sequence": 4294967295, "scriptSig": {"hex": "483045022100f3e1af2a7b51cdfa324e72515465f9f0ebd146d70d2e71a4f7656c3f82e37cd402203c48dccd368872639372bf1f192dc28fdfbecb54fc460f8ff17e2fd3b8b7a9f9012102e8dcf7b6be973f19316a78d685d86db0880d2c9f64fc45c109fab646b4ded8b7", "asm": "3045022100f3e1af2a7b51cdfa324e72515465f9f0ebd146d70d2e71a4f7656c3f82e37cd402203c48dccd368872639372bf1f192dc28fdfbecb54fc460f8ff17e2fd3b8b7a9f9[ALL] 02e8dcf7b6be973f19316a78d685d86db0880d2c9f64fc45c109fab646b4ded8b7"}, "vout": 23, "txid": "defab065afd171deadf4587b2ada77a625b9f067aff63300f704970739872eb6"}], "txid": "4deaff511dcae05d4d793bc47ff47090619790b88c92d73fc8993ad7542227d6", "blocktime": 1537871767, "version": 1, "confirmations": 11491, "time": 1537871767, "locktime": 0, "vsize": 190, "size": 190}