{"hash": "ccac004710d05415c6deabe5f384482c1964607bf5451c0c6544358c0977941f", "blockhash": "0000000000000000000e13cef7c366c0283d82e591d1acd082e914b08063cdf1", "vout": [{"scriptPubKey": {"reqSigs": 1, "hex": "76a91411c3a684248da4d8f721a1e8b11a58a630606fc488ac", "addresses": ["12cvsHzYpKi6LwjMwFKWjdEHpCjWAT4iHq"], "asm": "OP_DUP OP_HASH160 11c3a684248da4d8f721a1e8b11a58a630606fc4 OP_EQUALVERIFY OP_CHECKSIG", "type": "pubkeyhash"}, "value": 0.00916143, "n": 0}, {"scriptPubKey": {"reqSigs": 1, "hex": "a914cb4bca17b79e7e4884b3a5053d6c3acece187c6e87", "addresses": ["3LDwtRiC3LAFTc14gGyJW9tYUXpN6aPN8y"], "asm": "OP_HASH160 cb4bca17b79e7e4884b3a5053d6c3acece187c6e OP_EQUAL", "type": "scripthash"}, "value": 0.15758646, "n": 1}], "hex": "01000000000101a0e78bbbe4e5035622447d8772aec99b0bb8ac05ac5f1df5074ece6d705828470100000023220020a3c4caa3a6a7843aa2bb8683cf150d0b093fea3926e143a91bb6d32453b71eabffffffff02affa0d00000000001976a91411c3a684248da4d8f721a1e8b11a58a630606fc488ac3675f0000000000017a914cb4bca17b79e7e4884b3a5053d6c3acece187c6e870400483045022100ebcb7cbbfe5deb9aa95684c79c5d67d4eb800756f7351b1f3caa16b162b4ebdc022060e9ef93483e64c70fb4d494db4656f33525ed60f23fdf57c7a8a00d980106a501483045022100cf08451437b3ae11beca51ff827a16b5a9736f313a59e357df78fdabf2fe691e02207af0d2d20006a6ebd984222ca020b739729120e0f8d630c03872264d403303f40169522103e0b9625aad530100eb492e6ccb7a4305dd4e86b97fa1acf40e4cb4f900b238da210348911c9384d3d85090ff666099c72b0a7b245b985a1377d0453a562c016856d221036d3e4836f78e8a8a315bf25b8f434eb008ddd6dab225fc59c7833b7e6117e35253ae00000000", "vin": [{"txinwitness": ["", "3045022100ebcb7cbbfe5deb9aa95684c79c5d67d4eb800756f7351b1f3caa16b162b4ebdc022060e9ef93483e64c70fb4d494db4656f33525ed60f23fdf57c7a8a00d980106a501", "3045022100cf08451437b3ae11beca51ff827a16b5a9736f313a59e357df78fdabf2fe691e02207af0d2d20006a6ebd984222ca020b739729120e0f8d630c03872264d403303f401", "522103e0b9625aad530100eb492e6ccb7a4305dd4e86b97fa1acf40e4cb4f900b238da210348911c9384d3d85090ff666099c72b0a7b245b985a1377d0453a562c016856d221036d3e4836f78e8a8a315bf25b8f434eb008ddd6dab225fc59c7833b7e6117e35253ae"], "sequence": 4294967295, "scriptSig": {"hex": "220020a3c4caa3a6a7843aa2bb8683cf150d0b093fea3926e143a91bb6d32453b71eab", "asm": "0020a3c4caa3a6a7843aa2bb8683cf150d0b093fea3926e143a91bb6d32453b71eab"}, "vout": 1, "txid": "472858706dce4e07f51d5fac05acb80b9bc9ae72877d44225603e5e4bb8be7a0"}], "txid": "4df493531d3adaa047d6a993800ad5ddf594abcb9fdc946105fdb424e8b87a03", "blocktime": 1537871767, "version": 1, "confirmations": 11495, "time": 1537871767, "locktime": 0, "vsize": 216, "size": 408}