{"hash": "4dfaa2656c254fc1bd8a0804cd602c17b5866c461ebde15dd63f3dfde334caa9", "blockhash": "000000000000000000022b45ed06c6f4ccd3cf7fb5ba4856ebd2e58215665228", "vout": [{"scriptPubKey": {"reqSigs": 1, "hex": "76a914f61bdec5f44f430d0ffaa567a6a4cd2c43654edf88ac", "addresses": ["1PSJceV7EwUXSgESyeKSPf64UPBDzdZPXE"], "asm": "OP_DUP OP_HASH160 f61bdec5f44f430d0ffaa567a6a4cd2c43654edf OP_EQUALVERIFY OP_CHECKSIG", "type": "pubkeyhash"}, "value": 0.00011405, "n": 0}, {"scriptPubKey": {"reqSigs": 1, "hex": "76a91418249dd2b7aef5719bef56216d9ee97214ad29a588ac", "addresses": ["13Cf5mEmGujxmMz1A3Gt64z5a5qxVZCkpt"], "asm": "OP_DUP OP_HASH160 18249dd2b7aef5719bef56216d9ee97214ad29a5 OP_EQUALVERIFY OP_CHECKSIG", "type": "pubkeyhash"}, "value": 0.04474715, "n": 1}], "hex": "01000000013f19a91adc96080de289832bddf7e012a1b328eb1c9edc1444f024a2f15933bf000000006a4730440220097e85ea42d4a10fffacc15a2d5e318c4bd40085f38e34f8cd399284d15db9e90220487c27646555fb9ed2c4d54d93ea109359108d1c810b823ed0f734cb1428d2ea0121032d08955c3511676073fb77fe7b14521d16afd4b3ea60a0e512f15867cfab7bd7ffffffff028d2c0000000000001976a914f61bdec5f44f430d0ffaa567a6a4cd2c43654edf88ac5b474400000000001976a91418249dd2b7aef5719bef56216d9ee97214ad29a588ac00000000", "vin": [{"sequence": 4294967295, "scriptSig": {"hex": "4730440220097e85ea42d4a10fffacc15a2d5e318c4bd40085f38e34f8cd399284d15db9e90220487c27646555fb9ed2c4d54d93ea109359108d1c810b823ed0f734cb1428d2ea0121032d08955c3511676073fb77fe7b14521d16afd4b3ea60a0e512f15867cfab7bd7", "asm": "30440220097e85ea42d4a10fffacc15a2d5e318c4bd40085f38e34f8cd399284d15db9e90220487c27646555fb9ed2c4d54d93ea109359108d1c810b823ed0f734cb1428d2ea[ALL] 032d08955c3511676073fb77fe7b14521d16afd4b3ea60a0e512f15867cfab7bd7"}, "vout": 0, "txid": "bf3359f1a224f04414dc9e1ceb28b3a112e0f7dd2b8389e20d0896dc1aa9193f"}], "txid": "4dfaa2656c254fc1bd8a0804cd602c17b5866c461ebde15dd63f3dfde334caa9", "blocktime": 1537869901, "version": 1, "confirmations": 11522, "time": 1537869901, "locktime": 0, "vsize": 225, "size": 225}