{"hash": "4dfcfdbf9445d66279c0887b8e7cb94c3640776fe9cc245bc11e2a558c71d9dc", "blockhash": "00000000000000000004ffacab907a6b429b9a5745fa0b75af4234bf69dd7176", "vout": [{"scriptPubKey": {"reqSigs": 1, "hex": "76a91417d8610525a02f38bfcc1ad3b439ad5108b2424688ac", "addresses": ["13B5kgsraqNBv58ESUvZ3uhKMNo4HKdNLo"], "asm": "OP_DUP OP_HASH160 17d8610525a02f38bfcc1ad3b439ad5108b24246 OP_EQUALVERIFY OP_CHECKSIG", "type": "pubkeyhash"}, "value": 0.00124493, "n": 0}, {"scriptPubKey": {"reqSigs": 1, "hex": "76a91482e5ca456d6f685603f709fd232fc7df4dd07fca88ac", "addresses": ["1Cw8834WndHuGgFyhoWhk1PEzuKcBNZBne"], "asm": "OP_DUP OP_HASH160 82e5ca456d6f685603f709fd232fc7df4dd07fca OP_EQUALVERIFY OP_CHECKSIG", "type": "pubkeyhash"}, "value": 0.06301, "n": 1}], "hex": "0100000002a108bd5cdb5cf16bf5ebddd6bc774b26c03d04b291b1570b25d1f1f12d1f2bc6000000006b483045022100bf34d13fa3890eaaf72b0e3bf6de544640e33f258fc9793d3706bd49053bb2de02205284a7998ef40dd93fb15ec98ecb320af3a3b194537bb72401ecab68f920ebb001210326fcfc87a29e36a1a4ed748d5520bebfce3bd02bb2f2614d9872683444807245ffffffff6a2ec8320c6e3fcd1c97c3411599d3afa18f56190b6222785cf83a133b796a99000000006b483045022100d4d4139a65311601e977a2da992f69cce84edeb323fa4cba30a3e10c033fc9db02205172470c545cf7a7da645635cb797c2920074237a114f924ad7abdd5ffbbce0601210326fcfc87a29e36a1a4ed748d5520bebfce3bd02bb2f2614d9872683444807245ffffffff024de60100000000001976a91417d8610525a02f38bfcc1ad3b439ad5108b2424688ac48256000000000001976a91482e5ca456d6f685603f709fd232fc7df4dd07fca88ac00000000", "vin": [{"sequence": 4294967295, "scriptSig": {"hex": "483045022100bf34d13fa3890eaaf72b0e3bf6de544640e33f258fc9793d3706bd49053bb2de02205284a7998ef40dd93fb15ec98ecb320af3a3b194537bb72401ecab68f920ebb001210326fcfc87a29e36a1a4ed748d5520bebfce3bd02bb2f2614d9872683444807245", "asm": "3045022100bf34d13fa3890eaaf72b0e3bf6de544640e33f258fc9793d3706bd49053bb2de02205284a7998ef40dd93fb15ec98ecb320af3a3b194537bb72401ecab68f920ebb0[ALL] 0326fcfc87a29e36a1a4ed748d5520bebfce3bd02bb2f2614d9872683444807245"}, "vout": 0, "txid": "c62b1f2df1f1d1250b57b191b2043dc0264b77bcd6ddebf56bf15cdb5cbd08a1"}, {"sequence": 4294967295, "scriptSig": {"hex": "483045022100d4d4139a65311601e977a2da992f69cce84edeb323fa4cba30a3e10c033fc9db02205172470c545cf7a7da645635cb797c2920074237a114f924ad7abdd5ffbbce0601210326fcfc87a29e36a1a4ed748d5520bebfce3bd02bb2f2614d9872683444807245", "asm": "3045022100d4d4139a65311601e977a2da992f69cce84edeb323fa4cba30a3e10c033fc9db02205172470c545cf7a7da645635cb797c2920074237a114f924ad7abdd5ffbbce06[ALL] 0326fcfc87a29e36a1a4ed748d5520bebfce3bd02bb2f2614d9872683444807245"}, "vout": 0, "txid": "996a793b133af85c7822620b19568fa1afd3991541c3971ccd3f6e0c32c82e6a"}], "txid": "4dfcfdbf9445d66279c0887b8e7cb94c3640776fe9cc245bc11e2a558c71d9dc", "blocktime": 1537875543, "version": 1, "confirmations": 11464, "time": 1537875543, "locktime": 0, "vsize": 374, "size": 374}