{"hash": "109c167c2567a19f9c0bf514cb8d98f7aeb39396e8b97ed633e70abf94bf29b0", "blockhash": "00000000000000000004ffacab907a6b429b9a5745fa0b75af4234bf69dd7176", "vout": [{"scriptPubKey": {"reqSigs": 1, "hex": "a9143f2b2eca734212893b0de58a2174441fe3ee133887", "addresses": ["37T2E2AsSbWRgccB7avheX3xXTCWWae1Az"], "asm": "OP_HASH160 3f2b2eca734212893b0de58a2174441fe3ee1338 OP_EQUAL", "type": "scripthash"}, "value": 2.26, "n": 0}, {"scriptPubKey": {"reqSigs": 1, "hex": "a91487eb2efc9d11241440f694b0f5f67252201583c987", "addresses": ["3E5gtHBdRtJs5FNaRxXeBbUSrk6qJ7RnEH"], "asm": "OP_HASH160 87eb2efc9d11241440f694b0f5f67252201583c9 OP_EQUAL", "type": "scripthash"}, "value": 0.015, "n": 1}, {"scriptPubKey": {"reqSigs": 1, "hex": "76a9141f8555fa66ea1fbe5b012598bd1753d7d88365d888ac", "addresses": ["13sfgHUv6iv6F9o1ShcLNhFgkHUTGZ9AzC"], "asm": "OP_DUP OP_HASH160 1f8555fa66ea1fbe5b012598bd1753d7d88365d8 OP_EQUALVERIFY OP_CHECKSIG", "type": "pubkeyhash"}, "value": 0.26194, "n": 2}, {"scriptPubKey": {"reqSigs": 1, "hex": "76a914438e79c6b8a757298e7a2cbaf730867ce47ed45c88ac", "addresses": ["17ACxEkLycFwT4W2a3z9D32TXJJFF6axXx"], "asm": "OP_DUP OP_HASH160 438e79c6b8a757298e7a2cbaf730867ce47ed45c OP_EQUALVERIFY OP_CHECKSIG", "type": "pubkeyhash"}, "value": 1.6342, "n": 3}, {"scriptPubKey": {"reqSigs": 1, "hex": "a9140eba844a98b857418d55430bd12a163c44fd479887", "addresses": ["332tpe9XuyCXJmF8ty2ydh3iU9VwNh53CE"], "asm": "OP_HASH160 0eba844a98b857418d55430bd12a163c44fd4798 OP_EQUAL", "type": "scripthash"}, "value": 0.008, "n": 4}, {"scriptPubKey": {"reqSigs": 1, "hex": "a914a1aa765267eb497765e1bb06d02e10f96edfe2a387", "addresses": ["3GRpvMDcDUdCchw3LGarCezryUg2NwvYEt"], "asm": "OP_HASH160 a1aa765267eb497765e1bb06d02e10f96edfe2a3 OP_EQUAL", "type": "scripthash"}, "value": 0.2891, "n": 5}, {"scriptPubKey": {"reqSigs": 1, "hex": "a914241f2d951d07adba733706d49675150ce70f081987", "addresses": ["34z1bjpES3zV9woVLYQXNJXBgc8jBVEpcy"], "asm": "OP_HASH160 241f2d951d07adba733706d49675150ce70f0819 OP_EQUAL", "type": "scripthash"}, "value": 0.0421, "n": 6}, {"scriptPubKey": {"reqSigs": 1, "hex": "76a9149304f375af7e4cc5954aefea535623c134b31c2588ac", "addresses": ["1EQNGCh9TTtcSM1tCXJf1uaPjdV9FFqV1d"], "asm": "OP_DUP OP_HASH160 9304f375af7e4cc5954aefea535623c134b31c25 OP_EQUALVERIFY OP_CHECKSIG", "type": "pubkeyhash"}, "value": 0.1095, "n": 7}, {"scriptPubKey": {"reqSigs": 1, "hex": "a9145a9d24b1aaf828de349dd24ea624bfe2dfea924887", "addresses": ["39x8zKT179Fg6xroiq9kyZEEnpP3RcGdJi"], "asm": "OP_HASH160 5a9d24b1aaf828de349dd24ea624bfe2dfea9248 OP_EQUAL", "type": "scripthash"}, "value": 0.03621, "n": 8}, {"scriptPubKey": {"reqSigs": 1, "hex": "a91469f373c1a533d3c2cb31caa7cc6c438c62c6acc587", "addresses": ["3BMEX3FAsGDWwxVSZf5L1hYJFJPRkHJtyB"], "asm": "OP_HASH160 69f373c1a533d3c2cb31caa7cc6c438c62c6acc5 OP_EQUAL", "type": "scripthash"}, "value": 0.3169, "n": 9}, {"scriptPubKey": {"reqSigs": 1, "hex": "a9141a15f699f00f56d5b9fac2fc4d16e8f3ec5974d487", "addresses": ["344woZrSSzt3eGKZEWozSVehu26jVupApB"], "asm": "OP_HASH160 1a15f699f00f56d5b9fac2fc4d16e8f3ec5974d4 OP_EQUAL", "type": "scripthash"}, "value": 0.00654, "n": 10}, {"scriptPubKey": {"reqSigs": 1, "hex": "a914e99ec8f9c096d130eefaf04d77bc1124aa4bf68c87", "addresses": ["3NzHapVgfxMgqtS81SAxqXpEMmLE7FSAUb"], "asm": "OP_HASH160 e99ec8f9c096d130eefaf04d77bc1124aa4bf68c OP_EQUAL", "type": "scripthash"}, "value": 0.5605, "n": 11}, {"scriptPubKey": {"reqSigs": 1, "hex": "a914013b1479d560ddefedf601acce7e0e522de9332c87", "addresses": ["31oXNgg42ufihsn63u5LG9Q2TfFWRN91Fi"], "asm": "OP_HASH160 013b1479d560ddefedf601acce7e0e522de9332c OP_EQUAL", "type": "scripthash"}, "value": 0.0185, "n": 12}, {"scriptPubKey": {"reqSigs": 1, "hex": "a91479944cf01c65bc7431ed620ab7d301d46952aeff87", "addresses": ["3CmsLrgFpvbHhP8cGZo5ysuDwUox5zsv7n"], "asm": "OP_HASH160 79944cf01c65bc7431ed620ab7d301d46952aeff OP_EQUAL", "type": "scripthash"}, "value": 2.93191861, "n": 13}], "hex": "0100000000010a5a50dd782214f6505fe461f895bc06196ae7f3deed1d37e5858e9a2bcf1ddae60c000000232200202c7f882223f19c964d58c112e13d52318877e02d05da539c94fd384360c42a5dffffffff3050120b0a794219c0d89b283a1124efb1d0d451c071fb98f7eaf2c10b82545f010000002322002080cffb15803441e1ad8fc641798976edd7d094370c389df3f7a1d79053825ce1ffffffff5ea1f03c35d4bd4f363a51d710bce03f16617262d446f5d0b65fb53efe7bdb8b040000002322002049fa3e2e9e9b218f9b5c2c7369e0904c7963919a05e1730b374c9715916d1079ffffffffa885800cd50c477aadf8049ba6a0c41974d15b912209a8c193d7b83fa609462e1f000000232200205afafa23a27ad028fda830de027bf841b30dd0afd1f7ea75aff801014863a11fffffffff51b4723a1d16e29d43c9e5006b894d078333f1a11201519dd28941e3c3066adb0300000023220020540a40d0796e1944f6e88becfeab808150b070ec430abe903b3a1c0c043385bdffffffff5a50dd782214f6505fe461f895bc06196ae7f3deed1d37e5858e9a2bcf1ddae60800000023220020cf2c90ae185456b5f42a2d108228ee6b7e875c6b6bec760e11d04857bb7c71f8ffffffffdc042be2d06197ffdf4dfe1b31922a9bf7d98a205df95b6033c4345988b14a810000000023220020ad1bc08548ce58ed1b1bc2bbe7a42341b43ce8ccd03149b2926ebd2dd12cae14ffffffff64d99e97b338faef38227f64738db967816d65fa6d21884afa08429148a470c10000000023220020d13e2c3cdfb48d7af8b834c4817da8764566fe8e915d5d536659be348730da71ffffffff2874f53cbe7e5bb2fa2aa0fc0f09b7e64c9a80accf30eea1cfeb64799bbcd95d050000002322002006afa0707e163f5555f4b02a619cb6a00dc95c2a0e159a786448fcbbea719a0affffffff1ab6e931ebd94cba2f51e6b5ac9c00c182220b0d1a91ce19e72c2e3427b84ccc00000000232200205c91f60d0c2b77ed0d90b6ff0c10fe68b2b22b3c12dbb37a26e0af5e25d1f8a3ffffffff0e807c780d0000000017a9143f2b2eca734212893b0de58a2174441fe3ee13388760e316000000000017a91487eb2efc9d11241440f694b0f5f67252201583c98750b08f01000000001976a9141f8555fa66ea1fbe5b012598bd1753d7d88365d888ac6097bd09000000001976a914438e79c6b8a757298e7a2cbaf730867ce47ed45c88ac00350c000000000017a9140eba844a98b857418d55430bd12a163c44fd479887b021b9010000000017a914a1aa765267eb497765e1bb06d02e10f96edfe2a387503d40000000000017a914241f2d951d07adba733706d49675150ce70f0819877015a700000000001976a9149304f375af7e4cc5954aefea535623c134b31c2588ac884037000000000017a9145a9d24b1aaf828de349dd24ea624bfe2dfea924887108de3010000000017a91469f373c1a533d3c2cb31caa7cc6c438c62c6acc587b0fa09000000000017a9141a15f699f00f56d5b9fac2fc4d16e8f3ec5974d487504157030000000017a914e99ec8f9c096d130eefaf04d77bc1124aa4bf68c87903a1c000000000017a914013b1479d560ddefedf601acce7e0e522de9332c87b5c079110000000017a91479944cf01c65bc7431ed620ab7d301d46952aeff870400483045022100bda2b0d94a383e335ab3753c23776a08aeb6dd429c540ae15368ea89469edfcc022007e06ad55f608ee06d1a14995498dda7f0a489eaff9c06651d6943d2b7b4df240147304402200532436a40eeb852467301ce76aa7b738b05dcee3f9d0630ec9883a86eed1e5902206893165f85f220b6b75b6425369527a488236a86a9aa79abc3b854d31b26d9b30169522103a7613809eb1449e4f6dd7a93ee61d445478ab582830a6898ce87b23c84fa36a4210301570f8d7d3ab63404a96fab0bf968b6428fcece1fe76243268226ce5a9cb5cf2103a309e516400ed51c4f2bd5bd1d4b8f3d6aa4dd7e8aa8a0d004a73131bdc9eadf53ae0400473044022076d09cc61118307d2626615dde238bfa92194abc58cb8484b17b31d773c0c128022028dfa935e834acbc8875a69e844727b58ac7b74b0cfc5a504e067af5424381b201483045022100e2cbbf7ab5c2fd7f19b0e22c2449755b2fd18510142208fb71bbd66c2818f4f002204c321252b901c5fa5747faa220b4682f2e17e2f8c1335f01a0a981e5dcb353b9016952210252540add09614627d8c3859656a7b681412f8e46e078f86d3f6390c28de590fb210268c048b412b06bfb9a48a1f839af3c17cd0a2b65af8138de046c0a4676d1d5e32102e228e46c4e3734cc1339dd846d63fa498e53cff410485bdb008eeb64e0bf710953ae040047304402200f1ce7fb1eca479aada7662f8d5d89584c73c478ef7dd1f81591068e63b7eb4002200c092c1fcc943cf49fd9d6007859440d22f7f132fa7776984763c7c31d5b9ffd01483045022100b2ecb19211374ad26c987ffd0b569102ff901ba6c5b51aa4011aca57b0ef7a080220148939c25c87235dbc5ddfc4d0b59c28f5a2173799fdadbd13d46b2ec2f3dd5001695221032e66fd1989bc3b46245847db1f1c395e01ae3550c02b16c63ee75b1c491aab9c21028a62a84d86e2a0a204b08264d5eb02cf3cac6de9c4405f2d9417456c113d73b72102cae86589a1db8ae0714df73e1f5b1589dc41fa5152205fb70f1e921b8358a07f53ae0400473044022041ee97dc0e367db7e996981e54d3b7293c96fe6f9967f0fb05d51deefbcd9228022000fc618a6cc7e79fdc49bff1fcf6e27cb89a78bfb998ea287df5722acacd7d1001483045022100dc0c8762d653c0597fa2666b71067df8cac21f258ef164c6d02ca75ca2d448d90220048c0c3aa962b18bc063b863f38d880e96a15c5b2ead69c450d324b2120c22ea0169522102dc4acc34f7795abfbc45b03fb843d838dd1e88aae6580fbe46a48db50edd2ef22102647499b90e64b06be6ae10d284062924ecc89f933f6ca8f1dafe775f717d8cef21039bce471f7fbcc19399e73af271a633a230ed374cfed15c2fee4c47a8e5192def53ae040048304502210087c5b2c76c4af0510ff8609030bbf402ae9551f543c01e433a5215da366425cb02201fc5d98be7a43ff3d528797c8a404801d84b5530df1ecf6e2902b724773aacda01483045022100a7a44b45e51d163af86b6544946f430b93fa24c0155a6f55375fb23012ad488102206212e4d6c496201cd12717d064b6ffb821227c4780ac1cee50d1efdcbb7aef470169522103a8c1db6797a4f4d4d56358a49306641bc2f3aa78327841e8052398e7f22d6add210315172c6ccbe1131891684f026b222dc72785a8ef2e15982d97781c451ca41be7210363d5ce42551c86ee043b53c84f83a6e6ee04e4bf1f74db8af1bb63c35a80bd6a53ae0400483045022100cf410ab479169942ef3e2c3eed23bed14165c5834137f93f54e3e648585c26ba02204c170392fa268986cbb29d6381e4d7e07bab9d90cdfe1456d7d0612b19f97f21014730440220750538652b9998f79cb4d74e3fe7a27395ec750603d7bcf86fdfefed7f10644d022065b299590b5fd691899020ac892ae09501cf10da0ec5bd713929820b8198a94301695221021a51d45d99ca5b7b15669af9d1185f02d0c3e1f5097ad23af4f1749897b2ecb62102cfea85b1744895074165da16761576f6e7932c19363323d77014382cdfaad2812102f62c3c7286e2cef5cebe2ee7b22495381401c9cc726e15eec2b2a932e1e33d7753ae040047304402206a4b9a02698829b7537ae63683af7df70d360e5243432e8a0749c56a288339fa02204bd9a9920d9c6c051f2dcbf388f26c755e301376d1cf2867d7d3b370d16274c60147304402204148b793bb33e0c9eacef24a11a46a781dd650fa0ce215876718a9ab2a2487b1022008a4989276ae4a14b9aa8230c84c817e8cdc7145f545eba043c44236c03e8be8016952210259cabf0c9fbb66ff5c98ed18f5564224c743421b3afa87bf1325e9ea174dabb52103a6002061ff74222b1c461a5fb224e11c18e4a0b76d2bf8eefd596f860a7d650f2103360d341930d6a941e12428174146ac0a540e4503b7158ee4c939b035ae51874653ae04004830450221009d1fed57fd1e562606720c4be027128788c038c37e840c0cff796546fd16ae5e02203d4e77a652ac91b8c5d24028bdcef5e8822bcf138a8dc1621b1c86c383d13b0c01483045022100a65e205b950002efc96949f7173f3478baee8454cbb5e0a3294555e4f5f742e00220014c652bf513fa0db4bbd6ccc7dfbc51f1410b2440bf5a48b7b2479262974cc70169522102a95b7cd3f447075a13b4252200cc25c0be28eb5acbf1371c10e6661ac50672b92102e9007cd66e04ae33e004194192657bfc0a8d23303b42c764138b218f1a6405712102e050d5fa741d3b9186f71db0febb5b2898f35ecef25407386e6b52b795058ea653ae040048304502210098f13dd6f4519e02891094c325b2133acc05033274b8c595c29beb10591b58b10220066330689e3ede72221aa8a4a0b5c3c1879202da2b6b78fe037d1de6ee565b0d0147304402202fff7d7bae71b4ea75f726e360b4f014e5b29eb7bed0bc33b3e0a92e6037f26102203281fa4e703a1d0c4391e6475adf9d88ff7d977bbc8e7e03d53526361a63f6b90169522102e2134f85e59917a0a67d8aa220bc997747b5ff2583e445baadcc7c7dfbbe733c2103b60a76b29c7d7f1554b7b1adf4f5214e5d2f236c5989125e24e6e65d7fb0b0612102192f570585b76d811bc03965d54b34456d33a2e348f51be9fbe1279959ee732553ae040047304402207a41dbc8c42137fbcc17f73a0dda263967934ce6e141ce0df961d8405f514bd302201c7c35c38ed4d11808b9d9818040d3cb019736e78614740cc3b2cf3fb43fdcc501483045022100d4567aeae717d10da58f58c459738163e4fe4b0fbadd5ad080c3c7929c75482a022055674e96cba7257b881cfdf8197494dda5eb747cd08001e0ce4e9029bdcd82cd0169522103b9e569f48e48ce3596705dc8041426166ecf5f50b3d78e90c366141f14d458be210320a042fb5e871965d1d10848e451f28375a7c4c71735dc69474e3fce943086f321038088bbc7d3bec459c3784f3c4c672b3af7d268dae488172f42d956627e01ba8453ae00000000", "vin": [{"txinwitness": ["", "3045022100bda2b0d94a383e335ab3753c23776a08aeb6dd429c540ae15368ea89469edfcc022007e06ad55f608ee06d1a14995498dda7f0a489eaff9c06651d6943d2b7b4df2401", "304402200532436a40eeb852467301ce76aa7b738b05dcee3f9d0630ec9883a86eed1e5902206893165f85f220b6b75b6425369527a488236a86a9aa79abc3b854d31b26d9b301", "522103a7613809eb1449e4f6dd7a93ee61d445478ab582830a6898ce87b23c84fa36a4210301570f8d7d3ab63404a96fab0bf968b6428fcece1fe76243268226ce5a9cb5cf2103a309e516400ed51c4f2bd5bd1d4b8f3d6aa4dd7e8aa8a0d004a73131bdc9eadf53ae"], "sequence": 4294967295, "scriptSig": {"hex": "2200202c7f882223f19c964d58c112e13d52318877e02d05da539c94fd384360c42a5d", "asm": "00202c7f882223f19c964d58c112e13d52318877e02d05da539c94fd384360c42a5d"}, "vout": 12, "txid": "e6da1dcf2b9a8e85e5371deddef3e76a1906bc95f861e45f50f6142278dd505a"}, {"txinwitness": ["", "3044022076d09cc61118307d2626615dde238bfa92194abc58cb8484b17b31d773c0c128022028dfa935e834acbc8875a69e844727b58ac7b74b0cfc5a504e067af5424381b201", "3045022100e2cbbf7ab5c2fd7f19b0e22c2449755b2fd18510142208fb71bbd66c2818f4f002204c321252b901c5fa5747faa220b4682f2e17e2f8c1335f01a0a981e5dcb353b901", "52210252540add09614627d8c3859656a7b681412f8e46e078f86d3f6390c28de590fb210268c048b412b06bfb9a48a1f839af3c17cd0a2b65af8138de046c0a4676d1d5e32102e228e46c4e3734cc1339dd846d63fa498e53cff410485bdb008eeb64e0bf710953ae"], "sequence": 4294967295, "scriptSig": {"hex": "22002080cffb15803441e1ad8fc641798976edd7d094370c389df3f7a1d79053825ce1", "asm": "002080cffb15803441e1ad8fc641798976edd7d094370c389df3f7a1d79053825ce1"}, "vout": 1, "txid": "5f54820bc1f2eaf798fb71c051d4d0b1ef24113a289bd8c01942790a0b125030"}, {"txinwitness": ["", "304402200f1ce7fb1eca479aada7662f8d5d89584c73c478ef7dd1f81591068e63b7eb4002200c092c1fcc943cf49fd9d6007859440d22f7f132fa7776984763c7c31d5b9ffd01", "3045022100b2ecb19211374ad26c987ffd0b569102ff901ba6c5b51aa4011aca57b0ef7a080220148939c25c87235dbc5ddfc4d0b59c28f5a2173799fdadbd13d46b2ec2f3dd5001", "5221032e66fd1989bc3b46245847db1f1c395e01ae3550c02b16c63ee75b1c491aab9c21028a62a84d86e2a0a204b08264d5eb02cf3cac6de9c4405f2d9417456c113d73b72102cae86589a1db8ae0714df73e1f5b1589dc41fa5152205fb70f1e921b8358a07f53ae"], "sequence": 4294967295, "scriptSig": {"hex": "22002049fa3e2e9e9b218f9b5c2c7369e0904c7963919a05e1730b374c9715916d1079", "asm": "002049fa3e2e9e9b218f9b5c2c7369e0904c7963919a05e1730b374c9715916d1079"}, "vout": 4, "txid": "8bdb7bfe3eb55fb6d0f546d4627261163fe0bc10d7513a364fbdd4353cf0a15e"}, {"txinwitness": ["", "3044022041ee97dc0e367db7e996981e54d3b7293c96fe6f9967f0fb05d51deefbcd9228022000fc618a6cc7e79fdc49bff1fcf6e27cb89a78bfb998ea287df5722acacd7d1001", "3045022100dc0c8762d653c0597fa2666b71067df8cac21f258ef164c6d02ca75ca2d448d90220048c0c3aa962b18bc063b863f38d880e96a15c5b2ead69c450d324b2120c22ea01", "522102dc4acc34f7795abfbc45b03fb843d838dd1e88aae6580fbe46a48db50edd2ef22102647499b90e64b06be6ae10d284062924ecc89f933f6ca8f1dafe775f717d8cef21039bce471f7fbcc19399e73af271a633a230ed374cfed15c2fee4c47a8e5192def53ae"], "sequence": 4294967295, "scriptSig": {"hex": "2200205afafa23a27ad028fda830de027bf841b30dd0afd1f7ea75aff801014863a11f", "asm": "00205afafa23a27ad028fda830de027bf841b30dd0afd1f7ea75aff801014863a11f"}, "vout": 31, "txid": "2e4609a63fb8d793c1a80922915bd17419c4a0a69b04f8ad7a470cd50c8085a8"}, {"txinwitness": ["", "304502210087c5b2c76c4af0510ff8609030bbf402ae9551f543c01e433a5215da366425cb02201fc5d98be7a43ff3d528797c8a404801d84b5530df1ecf6e2902b724773aacda01", "3045022100a7a44b45e51d163af86b6544946f430b93fa24c0155a6f55375fb23012ad488102206212e4d6c496201cd12717d064b6ffb821227c4780ac1cee50d1efdcbb7aef4701", "522103a8c1db6797a4f4d4d56358a49306641bc2f3aa78327841e8052398e7f22d6add210315172c6ccbe1131891684f026b222dc72785a8ef2e15982d97781c451ca41be7210363d5ce42551c86ee043b53c84f83a6e6ee04e4bf1f74db8af1bb63c35a80bd6a53ae"], "sequence": 4294967295, "scriptSig": {"hex": "220020540a40d0796e1944f6e88becfeab808150b070ec430abe903b3a1c0c043385bd", "asm": "0020540a40d0796e1944f6e88becfeab808150b070ec430abe903b3a1c0c043385bd"}, "vout": 3, "txid": "db6a06c3e34189d29d510112a1f13383074d896b00e5c9439de2161d3a72b451"}, {"txinwitness": ["", "3045022100cf410ab479169942ef3e2c3eed23bed14165c5834137f93f54e3e648585c26ba02204c170392fa268986cbb29d6381e4d7e07bab9d90cdfe1456d7d0612b19f97f2101", "30440220750538652b9998f79cb4d74e3fe7a27395ec750603d7bcf86fdfefed7f10644d022065b299590b5fd691899020ac892ae09501cf10da0ec5bd713929820b8198a94301", "5221021a51d45d99ca5b7b15669af9d1185f02d0c3e1f5097ad23af4f1749897b2ecb62102cfea85b1744895074165da16761576f6e7932c19363323d77014382cdfaad2812102f62c3c7286e2cef5cebe2ee7b22495381401c9cc726e15eec2b2a932e1e33d7753ae"], "sequence": 4294967295, "scriptSig": {"hex": "220020cf2c90ae185456b5f42a2d108228ee6b7e875c6b6bec760e11d04857bb7c71f8", "asm": "0020cf2c90ae185456b5f42a2d108228ee6b7e875c6b6bec760e11d04857bb7c71f8"}, "vout": 8, "txid": "e6da1dcf2b9a8e85e5371deddef3e76a1906bc95f861e45f50f6142278dd505a"}, {"txinwitness": ["", "304402206a4b9a02698829b7537ae63683af7df70d360e5243432e8a0749c56a288339fa02204bd9a9920d9c6c051f2dcbf388f26c755e301376d1cf2867d7d3b370d16274c601", "304402204148b793bb33e0c9eacef24a11a46a781dd650fa0ce215876718a9ab2a2487b1022008a4989276ae4a14b9aa8230c84c817e8cdc7145f545eba043c44236c03e8be801", "52210259cabf0c9fbb66ff5c98ed18f5564224c743421b3afa87bf1325e9ea174dabb52103a6002061ff74222b1c461a5fb224e11c18e4a0b76d2bf8eefd596f860a7d650f2103360d341930d6a941e12428174146ac0a540e4503b7158ee4c939b035ae51874653ae"], "sequence": 4294967295, "scriptSig": {"hex": "220020ad1bc08548ce58ed1b1bc2bbe7a42341b43ce8ccd03149b2926ebd2dd12cae14", "asm": "0020ad1bc08548ce58ed1b1bc2bbe7a42341b43ce8ccd03149b2926ebd2dd12cae14"}, "vout": 0, "txid": "814ab1885934c433605bf95d208ad9f79b2a92311bfe4ddfff9761d0e22b04dc"}, {"txinwitness": ["", "30450221009d1fed57fd1e562606720c4be027128788c038c37e840c0cff796546fd16ae5e02203d4e77a652ac91b8c5d24028bdcef5e8822bcf138a8dc1621b1c86c383d13b0c01", "3045022100a65e205b950002efc96949f7173f3478baee8454cbb5e0a3294555e4f5f742e00220014c652bf513fa0db4bbd6ccc7dfbc51f1410b2440bf5a48b7b2479262974cc701", "522102a95b7cd3f447075a13b4252200cc25c0be28eb5acbf1371c10e6661ac50672b92102e9007cd66e04ae33e004194192657bfc0a8d23303b42c764138b218f1a6405712102e050d5fa741d3b9186f71db0febb5b2898f35ecef25407386e6b52b795058ea653ae"], "sequence": 4294967295, "scriptSig": {"hex": "220020d13e2c3cdfb48d7af8b834c4817da8764566fe8e915d5d536659be348730da71", "asm": "0020d13e2c3cdfb48d7af8b834c4817da8764566fe8e915d5d536659be348730da71"}, "vout": 0, "txid": "c170a448914208fa4a88216dfa656d8167b98d73647f2238effa38b3979ed964"}, {"txinwitness": ["", "304502210098f13dd6f4519e02891094c325b2133acc05033274b8c595c29beb10591b58b10220066330689e3ede72221aa8a4a0b5c3c1879202da2b6b78fe037d1de6ee565b0d01", "304402202fff7d7bae71b4ea75f726e360b4f014e5b29eb7bed0bc33b3e0a92e6037f26102203281fa4e703a1d0c4391e6475adf9d88ff7d977bbc8e7e03d53526361a63f6b901", "522102e2134f85e59917a0a67d8aa220bc997747b5ff2583e445baadcc7c7dfbbe733c2103b60a76b29c7d7f1554b7b1adf4f5214e5d2f236c5989125e24e6e65d7fb0b0612102192f570585b76d811bc03965d54b34456d33a2e348f51be9fbe1279959ee732553ae"], "sequence": 4294967295, "scriptSig": {"hex": "22002006afa0707e163f5555f4b02a619cb6a00dc95c2a0e159a786448fcbbea719a0a", "asm": "002006afa0707e163f5555f4b02a619cb6a00dc95c2a0e159a786448fcbbea719a0a"}, "vout": 5, "txid": "5dd9bc9b7964ebcfa1ee30cfac809a4ce6b7090ffca02afab25b7ebe3cf57428"}, {"txinwitness": ["", "304402207a41dbc8c42137fbcc17f73a0dda263967934ce6e141ce0df961d8405f514bd302201c7c35c38ed4d11808b9d9818040d3cb019736e78614740cc3b2cf3fb43fdcc501", "3045022100d4567aeae717d10da58f58c459738163e4fe4b0fbadd5ad080c3c7929c75482a022055674e96cba7257b881cfdf8197494dda5eb747cd08001e0ce4e9029bdcd82cd01", "522103b9e569f48e48ce3596705dc8041426166ecf5f50b3d78e90c366141f14d458be210320a042fb5e871965d1d10848e451f28375a7c4c71735dc69474e3fce943086f321038088bbc7d3bec459c3784f3c4c672b3af7d268dae488172f42d956627e01ba8453ae"], "sequence": 4294967295, "scriptSig": {"hex": "2200205c91f60d0c2b77ed0d90b6ff0c10fe68b2b22b3c12dbb37a26e0af5e25d1f8a3", "asm": "00205c91f60d0c2b77ed0d90b6ff0c10fe68b2b22b3c12dbb37a26e0af5e25d1f8a3"}, "vout": 0, "txid": "cc4cb827342e2ce719ce911a0d0b2282c1009cacb5e6512fba4cd9eb31e9b61a"}], "txid": "4dfed42b8b9721711509dc3cc9ec1984988b3437d7a4905ccebe030842e316e2", "blocktime": 1537875543, "version": 1, "confirmations": 11464, "time": 1537875543, "locktime": 0, "vsize": 1858, "size": 3757}