{"hash": "d193ff919d99f9f77001c9f5f6a3ea69113ca8d2e87db6246e4beead8310813e", "blockhash": "00000000000000000004ffacab907a6b429b9a5745fa0b75af4234bf69dd7176", "vout": [{"scriptPubKey": {"reqSigs": 1, "hex": "76a9143494e3b96b6d721fe7eefab237b8cd47151a763788ac", "addresses": ["15o2W18sSm7TPKnZPnXs6XuVWhcayzMos2"], "asm": "OP_DUP OP_HASH160 3494e3b96b6d721fe7eefab237b8cd47151a7637 OP_EQUALVERIFY OP_CHECKSIG", "type": "pubkeyhash"}, "value": 0.0022288, "n": 0}, {"scriptPubKey": {"reqSigs": 1, "hex": "a91429363177e186220ec5e80584a341cdd86e39554f87", "addresses": ["35SvYpZUUwgczHUX6v8V8YED4j2JhHp8Bv"], "asm": "OP_HASH160 29363177e186220ec5e80584a341cdd86e39554f OP_EQUAL", "type": "scripthash"}, "value": 0.18720754, "n": 1}], "hex": "02000000000101cc3c84f525dfc42ece4c53945a7ba4108c9e0bb81c075fb6853edd1ccf8e50ee0000000017160014dc07c0a3baf2f15039e710684d053412c1d3352cfeffffff02a0660300000000001976a9143494e3b96b6d721fe7eefab237b8cd47151a763788acf2a71d010000000017a91429363177e186220ec5e80584a341cdd86e39554f8702483045022100fe36fbfa3468c9dff98595ffc33c0d702f47acb80c34a3eb9ef9dc49db2fe19702201d570599f62420ce2d3184243dc36bb8be3df09efb3d6877fc7926569c958353012102c1cda818a43779c98b2c096e9a778c621e7d0fabcd32e721cca6d017e5badeb116490800", "vin": [{"txinwitness": ["3045022100fe36fbfa3468c9dff98595ffc33c0d702f47acb80c34a3eb9ef9dc49db2fe19702201d570599f62420ce2d3184243dc36bb8be3df09efb3d6877fc7926569c95835301", "02c1cda818a43779c98b2c096e9a778c621e7d0fabcd32e721cca6d017e5badeb1"], "sequence": 4294967294, "scriptSig": {"hex": "160014dc07c0a3baf2f15039e710684d053412c1d3352c", "asm": "0014dc07c0a3baf2f15039e710684d053412c1d3352c"}, "vout": 0, "txid": "ee508ecf1cdd3e85b65f071cb80b9e8c10a47b5a94534cce2ec4df25f5843ccc"}], "txid": "4dffb6e0882b5089e94aa7bc09ca3df020956628b3c685bc5737405e0337e1ac", "blocktime": 1537875543, "version": 2, "confirmations": 11464, "time": 1537875543, "locktime": 542998, "vsize": 168, "size": 250}