{"hash": "4e0860bfc5099f5050e30d1dce95a1aac136d3d7012f3e51dafbaad0f16f3282", "blockhash": "0000000000000000001cda96e906b7601b7a6fb1a3b62bca570a9e5d8f4b3de1", "vout": [{"scriptPubKey": {"reqSigs": 1, "hex": "76a914600a4300a0c77021f63c3704c25e67af6077521688ac", "addresses": ["19kpAQxgf5aXgfH9dxeGSeSKPk46Rvfvzb"], "asm": "OP_DUP OP_HASH160 600a4300a0c77021f63c3704c25e67af60775216 OP_EQUALVERIFY OP_CHECKSIG", "type": "pubkeyhash"}, "value": 0.01184763, "n": 0}, {"scriptPubKey": {"reqSigs": 1, "hex": "76a9144a4df2862242a6731c93dfa33ff61f23fb3b1ace88ac", "addresses": ["17mtP5EHreMNftAp1kbb87PSbWzhPyq1QA"], "asm": "OP_DUP OP_HASH160 4a4df2862242a6731c93dfa33ff61f23fb3b1ace OP_EQUALVERIFY OP_CHECKSIG", "type": "pubkeyhash"}, "value": 0.0152231, "n": 1}], "hex": "01000000018df39b6f3b5f93f011da8e4fcc245888f2c98bd1bbb99ad8b33fe476772086f9000000006b483045022100f7004ae95fdb3e1f207764a217ea739f9728061c8e8c6971d3ffbe1222d898430220260959ffab5f0c5e41ae2ee4a5c3856c66ca61c86987ab42dcd09010ef36d9350121033204046d1a2900f37e1437dc16ed2b7ad08715329ba85aa99eaf19bac420d8ceffffffff02fb131200000000001976a914600a4300a0c77021f63c3704c25e67af6077521688ac863a1700000000001976a9144a4df2862242a6731c93dfa33ff61f23fb3b1ace88ac00000000", "vin": [{"sequence": 4294967295, "scriptSig": {"hex": "483045022100f7004ae95fdb3e1f207764a217ea739f9728061c8e8c6971d3ffbe1222d898430220260959ffab5f0c5e41ae2ee4a5c3856c66ca61c86987ab42dcd09010ef36d9350121033204046d1a2900f37e1437dc16ed2b7ad08715329ba85aa99eaf19bac420d8ce", "asm": "3045022100f7004ae95fdb3e1f207764a217ea739f9728061c8e8c6971d3ffbe1222d898430220260959ffab5f0c5e41ae2ee4a5c3856c66ca61c86987ab42dcd09010ef36d935[ALL] 033204046d1a2900f37e1437dc16ed2b7ad08715329ba85aa99eaf19bac420d8ce"}, "vout": 0, "txid": "f986207776e43fb3d89ab9bbd18bc9f2885824cc4f8eda11f0935f3b6f9bf38d"}], "txid": "4e0860bfc5099f5050e30d1dce95a1aac136d3d7012f3e51dafbaad0f16f3282", "blocktime": 1537873282, "version": 1, "confirmations": 11485, "time": 1537873282, "locktime": 0, "vsize": 226, "size": 226}