{"hash": "4e0d8ccb02dd79525deb7176ee02ce8144a16aeeb26c4af2e950b551d0efe985", "blockhash": "0000000000000000001f76057863aec43deb6fa401d9628bb513d65a8098bfab", "vout": [{"scriptPubKey": {"reqSigs": 1, "hex": "76a9147fa597451c756b4f73603cf24dad8a019045939388ac", "addresses": ["1CdwBpYkDzrqHX5nViqD8dfLb2Y3FhHgQd"], "asm": "OP_DUP OP_HASH160 7fa597451c756b4f73603cf24dad8a0190459393 OP_EQUALVERIFY OP_CHECKSIG", "type": "pubkeyhash"}, "value": 0.01160224, "n": 0}, {"scriptPubKey": {"reqSigs": 1, "hex": "76a914467bbc19e724327acfa098a72b614cd045c64ab988ac", "addresses": ["17RgXfuBsRZfCVkDhGo61L5Jhs4eR4oe5u"], "asm": "OP_DUP OP_HASH160 467bbc19e724327acfa098a72b614cd045c64ab9 OP_EQUALVERIFY OP_CHECKSIG", "type": "pubkeyhash"}, "value": 0.0227316, "n": 1}], "hex": "02000000020c2f890125e9dc478d44de1732f7d02c700f8f47fcfa050e938d580e002b89a4010000006a47304402203cf89cdaad403d8861d52ab1dbd07c92b891871bac96d443f05a18b83e594a7b022066605f75c88a61522ce478d08772cb29f3fade89a3dd06d7bbd3027509dd2d4c012102d26a6b10e252d64f933d617672aa810fb603c30e7b965f357880b0f4072f4443feffffff62b91e0f5871a2e29515e7a817960898ce7a15fcb788747d892ea864c0b3bd1e000000006b483045022100a95d9c02b776674e4c4d6cbe27b02f0ad9b082d67dbb724800f16e2df1c0c61602205b7d95562595170414c3b76f456dec4dd264a08a6accef3e13932ed1b72fa28f0121038ee6874cb6907e3d5eaf7d3967666afad84dded42a0a3d1c9e2b3eb4acbbbff0feffffff0220b41100000000001976a9147fa597451c756b4f73603cf24dad8a019045939388ac88af2200000000001976a914467bbc19e724327acfa098a72b614cd045c64ab988acee480800", "vin": [{"sequence": 4294967294, "scriptSig": {"hex": "47304402203cf89cdaad403d8861d52ab1dbd07c92b891871bac96d443f05a18b83e594a7b022066605f75c88a61522ce478d08772cb29f3fade89a3dd06d7bbd3027509dd2d4c012102d26a6b10e252d64f933d617672aa810fb603c30e7b965f357880b0f4072f4443", "asm": "304402203cf89cdaad403d8861d52ab1dbd07c92b891871bac96d443f05a18b83e594a7b022066605f75c88a61522ce478d08772cb29f3fade89a3dd06d7bbd3027509dd2d4c[ALL] 02d26a6b10e252d64f933d617672aa810fb603c30e7b965f357880b0f4072f4443"}, "vout": 1, "txid": "a4892b000e588d930e05fafc478f0f702cd0f73217de448d47dce92501892f0c"}, {"sequence": 4294967294, "scriptSig": {"hex": "483045022100a95d9c02b776674e4c4d6cbe27b02f0ad9b082d67dbb724800f16e2df1c0c61602205b7d95562595170414c3b76f456dec4dd264a08a6accef3e13932ed1b72fa28f0121038ee6874cb6907e3d5eaf7d3967666afad84dded42a0a3d1c9e2b3eb4acbbbff0", "asm": "3045022100a95d9c02b776674e4c4d6cbe27b02f0ad9b082d67dbb724800f16e2df1c0c61602205b7d95562595170414c3b76f456dec4dd264a08a6accef3e13932ed1b72fa28f[ALL] 038ee6874cb6907e3d5eaf7d3967666afad84dded42a0a3d1c9e2b3eb4acbbbff0"}, "vout": 0, "txid": "1ebdb3c064a82e897d7488b7fc157ace98089617a8e71595e2a271580f1eb962"}], "txid": "4e0d8ccb02dd79525deb7176ee02ce8144a16aeeb26c4af2e950b551d0efe985", "blocktime": 1537873891, "version": 2, "confirmations": 11479, "time": 1537873891, "locktime": 542958, "vsize": 373, "size": 373}