{"hash": "a80ee1a9a015f0f49991551dca850eee00d9045a48749a418c8bdf26e41a44a2", "blockhash": "0000000000000000001f76057863aec43deb6fa401d9628bb513d65a8098bfab", "vout": [{"scriptPubKey": {"reqSigs": 1, "hex": "76a914b55649c194881389dbf1b54b81a544272554d14d88ac", "addresses": ["1HXpg8D9AMGFVZ9FEU2tkZYvAZ8xBhVudo"], "asm": "OP_DUP OP_HASH160 b55649c194881389dbf1b54b81a544272554d14d OP_EQUALVERIFY OP_CHECKSIG", "type": "pubkeyhash"}, "value": 0.00354313, "n": 0}, {"scriptPubKey": {"reqSigs": 1, "hex": "a914b137dd749d5e4cd3882da0afbd3a50bca563a0a087", "addresses": ["3Hr4T52QdFj8Efyr41Aif5kJUiNtBtxMvo"], "asm": "OP_HASH160 b137dd749d5e4cd3882da0afbd3a50bca563a0a0 OP_EQUAL", "type": "scripthash"}, "value": 0.01727644, "n": 1}], "hex": "020000000001022720fab94e0a3c6175e56610fe3cf022d3ce1ebe286b77df12f0edb3267f62e701000000171600148aff86a90c719e56ab48a8605fecedf6796a0f57feffffffc18b11ea87303b2e31b2f827bd9fbee43dd6ccc9374cbab23e66e7af0c4166a101000000171600147e6a76b6cad11b9ca7f828eb33375911b748b005feffffff0209680500000000001976a914b55649c194881389dbf1b54b81a544272554d14d88ac9c5c1a000000000017a914b137dd749d5e4cd3882da0afbd3a50bca563a0a087024830450221009a18078332f32bd08eaacbaac6ea1ec920f769bdb474da3f4dd500cf36e281f8022020424b4fb3c99fefa1f539a3bed8dfc0249fac16ba4ebfb438896f5834deda2d012103513ced94e0b4bc11c23af0db23764037f99bf1fcbb8af319b10599220e27ce010247304402200cc8e979821e5165c2a175ad8824d7b77f9e44ea75de751eaee776ae49ecc11e02204561110fbe7ddaba85d6a8d3f62e4119aecc54ec82602775a60f621cfc86bfb80121034d4ea488e0e23bc5685c972fd6d2d29bdc76a62081dfea8b893369b425e6f4b114490800", "vin": [{"txinwitness": ["30450221009a18078332f32bd08eaacbaac6ea1ec920f769bdb474da3f4dd500cf36e281f8022020424b4fb3c99fefa1f539a3bed8dfc0249fac16ba4ebfb438896f5834deda2d01", "03513ced94e0b4bc11c23af0db23764037f99bf1fcbb8af319b10599220e27ce01"], "sequence": 4294967294, "scriptSig": {"hex": "1600148aff86a90c719e56ab48a8605fecedf6796a0f57", "asm": "00148aff86a90c719e56ab48a8605fecedf6796a0f57"}, "vout": 1, "txid": "e7627f26b3edf012df776b28be1eced322f03cfe1066e575613c0a4eb9fa2027"}, {"txinwitness": ["304402200cc8e979821e5165c2a175ad8824d7b77f9e44ea75de751eaee776ae49ecc11e02204561110fbe7ddaba85d6a8d3f62e4119aecc54ec82602775a60f621cfc86bfb801", "034d4ea488e0e23bc5685c972fd6d2d29bdc76a62081dfea8b893369b425e6f4b1"], "sequence": 4294967294, "scriptSig": {"hex": "1600147e6a76b6cad11b9ca7f828eb33375911b748b005", "asm": "00147e6a76b6cad11b9ca7f828eb33375911b748b005"}, "vout": 1, "txid": "a166410cafe7663eb2ba4c37c9ccd63de4be9fbd27f8b2312e3b3087ea118bc1"}], "txid": "4e15443e84efebee9eff469ed7ad62f348bf0bbe3406cc1f1b5e231bc34e91e2", "blocktime": 1537873891, "version": 2, "confirmations": 11478, "time": 1537873891, "locktime": 542996, "vsize": 259, "size": 421}