{"hash": "4e1611c3949401f556ef0d623d7241f44871c9b3e8d6b74c9384886fb5e66680", "blockhash": "0000000000000000001f76057863aec43deb6fa401d9628bb513d65a8098bfab", "vout": [{"scriptPubKey": {"reqSigs": 1, "hex": "76a914d0533cb8e8c75f503ebcf8138d20517de3dc8a4f88ac", "addresses": ["1KzXGKhzRTh8pX8eCYEqzSCKaai7Qk7im6"], "asm": "OP_DUP OP_HASH160 d0533cb8e8c75f503ebcf8138d20517de3dc8a4f OP_EQUALVERIFY OP_CHECKSIG", "type": "pubkeyhash"}, "value": 0.01258077, "n": 0}, {"scriptPubKey": {"reqSigs": 1, "hex": "a914094ce2897f24fdcae7c58841bf50b7f00bf47e6d87", "addresses": ["32YC7KwqoSwgVegqyH8N5n7TquRAZoNdCy"], "asm": "OP_HASH160 094ce2897f24fdcae7c58841bf50b7f00bf47e6d OP_EQUAL", "type": "scripthash"}, "value": 1.120877, "n": 1}], "hex": "02000000053852768d90a4d0d756f66a39ba65b969d8460beb0c9aadb58376d5803acc408e060000006b483045022100fa784672b618569a5577f339b25d350f48a5ce27d748bfde01bba635305b73be02201a387699b00a7674921ffca7fbf32ac1d219fa2bd4d89373a3ac501c4543d163012103678cb119246d61798533423922d170fa711f80395342a26f47eef391ef577a74feffffff7455bfe3f70881a8e2da10a3bde4325131bd77c74fbd9f9b69c68412d9c05d13000000006b483045022100ab4d3bd9db043773a3c68c70f1dfdd32af099e22f467c650d44a3a77ecb1f5c802202f8c5bcd670f165187b21223778ae830cb34de52f5e557675feef3da835a475d01210358c7747bae1339a0da71a8bb57f89bd242796101ce0332387a1a748a2b1b92a6feffffff97e4c30fc6fe9f754927b923f09f981d306d2214c279c52e06b1b107d0a639a3010000006a473044022042b5e72c976bc648fe068509cc064bc1455e2ba9e13c69d9e3b6dbd81652abc10220541c427591bc75095341966d674aaada82c986c937dd9eef7ecb0c8b63a5e403012102924bdbf7c949df734d5cae0c5b00c170595fcab71d8c5f48e1eee8dd42fd391cfeffffff9c78100849cc6088724becfa81f6bbe267861eec26abd783a1777b4caf5a235d000000006a4730440220310c572b976a2eecdd68714f88d315395755b2fc6a3842004e55eca66cdea1fb02200b4106f6a664ad2c4b4a3fc134e75a20e17a979f4b8d1ff31c744520abb97b4701210315450cd3cfb0887e860ec939b2a9294a342d6c974a4ca48d9b910832d8b66cf6feffffffe2cfbae9ad37b3b84013b225c5e00f19cfd93ed0551231030db23a4f07a0c982010000006b483045022100ea247c42a3055a2f7f06504afca6dcf375b557d7a0cae82e234cc9a8fe8c886a02207c5c93a23e443c8cd0da3cc9555426197e9f4cd3a9748e2a15ffff29ae79788301210376470947d31c6acdf967300c49a49adabd7dd642cc88706b6fb12fcaabbbb8c8feffffff025d321300000000001976a914d0533cb8e8c75f503ebcf8138d20517de3dc8a4f88ac9452ae060000000017a914094ce2897f24fdcae7c58841bf50b7f00bf47e6d87bf480800", "vin": [{"sequence": 4294967294, "scriptSig": {"hex": "483045022100fa784672b618569a5577f339b25d350f48a5ce27d748bfde01bba635305b73be02201a387699b00a7674921ffca7fbf32ac1d219fa2bd4d89373a3ac501c4543d163012103678cb119246d61798533423922d170fa711f80395342a26f47eef391ef577a74", "asm": "3045022100fa784672b618569a5577f339b25d350f48a5ce27d748bfde01bba635305b73be02201a387699b00a7674921ffca7fbf32ac1d219fa2bd4d89373a3ac501c4543d163[ALL] 03678cb119246d61798533423922d170fa711f80395342a26f47eef391ef577a74"}, "vout": 6, "txid": "8e40cc3a80d57683b5ad9a0ceb0b46d869b965ba396af656d7d0a4908d765238"}, {"sequence": 4294967294, "scriptSig": {"hex": "483045022100ab4d3bd9db043773a3c68c70f1dfdd32af099e22f467c650d44a3a77ecb1f5c802202f8c5bcd670f165187b21223778ae830cb34de52f5e557675feef3da835a475d01210358c7747bae1339a0da71a8bb57f89bd242796101ce0332387a1a748a2b1b92a6", "asm": "3045022100ab4d3bd9db043773a3c68c70f1dfdd32af099e22f467c650d44a3a77ecb1f5c802202f8c5bcd670f165187b21223778ae830cb34de52f5e557675feef3da835a475d[ALL] 0358c7747bae1339a0da71a8bb57f89bd242796101ce0332387a1a748a2b1b92a6"}, "vout": 0, "txid": "135dc0d91284c6699b9fbd4fc777bd315132e4bda310dae2a88108f7e3bf5574"}, {"sequence": 4294967294, "scriptSig": {"hex": "473044022042b5e72c976bc648fe068509cc064bc1455e2ba9e13c69d9e3b6dbd81652abc10220541c427591bc75095341966d674aaada82c986c937dd9eef7ecb0c8b63a5e403012102924bdbf7c949df734d5cae0c5b00c170595fcab71d8c5f48e1eee8dd42fd391c", "asm": "3044022042b5e72c976bc648fe068509cc064bc1455e2ba9e13c69d9e3b6dbd81652abc10220541c427591bc75095341966d674aaada82c986c937dd9eef7ecb0c8b63a5e403[ALL] 02924bdbf7c949df734d5cae0c5b00c170595fcab71d8c5f48e1eee8dd42fd391c"}, "vout": 1, "txid": "a339a6d007b1b1062ec579c214226d301d989ff023b92749759ffec60fc3e497"}, {"sequence": 4294967294, "scriptSig": {"hex": "4730440220310c572b976a2eecdd68714f88d315395755b2fc6a3842004e55eca66cdea1fb02200b4106f6a664ad2c4b4a3fc134e75a20e17a979f4b8d1ff31c744520abb97b4701210315450cd3cfb0887e860ec939b2a9294a342d6c974a4ca48d9b910832d8b66cf6", "asm": "30440220310c572b976a2eecdd68714f88d315395755b2fc6a3842004e55eca66cdea1fb02200b4106f6a664ad2c4b4a3fc134e75a20e17a979f4b8d1ff31c744520abb97b47[ALL] 0315450cd3cfb0887e860ec939b2a9294a342d6c974a4ca48d9b910832d8b66cf6"}, "vout": 0, "txid": "5d235aaf4c7b77a183d7ab26ec1e8667e2bbf681faec4b728860cc490810789c"}, {"sequence": 4294967294, "scriptSig": {"hex": "483045022100ea247c42a3055a2f7f06504afca6dcf375b557d7a0cae82e234cc9a8fe8c886a02207c5c93a23e443c8cd0da3cc9555426197e9f4cd3a9748e2a15ffff29ae79788301210376470947d31c6acdf967300c49a49adabd7dd642cc88706b6fb12fcaabbbb8c8", "asm": "3045022100ea247c42a3055a2f7f06504afca6dcf375b557d7a0cae82e234cc9a8fe8c886a02207c5c93a23e443c8cd0da3cc9555426197e9f4cd3a9748e2a15ffff29ae797883[ALL] 0376470947d31c6acdf967300c49a49adabd7dd642cc88706b6fb12fcaabbbb8c8"}, "vout": 1, "txid": "82c9a0074f3ab20d03311255d03ed9cf190fe0c525b21340b8b337ade9bacfe2"}], "txid": "4e1611c3949401f556ef0d623d7241f44871c9b3e8d6b74c9384886fb5e66680", "blocktime": 1537873891, "version": 2, "confirmations": 11474, "time": 1537873891, "locktime": 542911, "vsize": 814, "size": 814}