{"hash": "4e1ead4c09c9170e0c35481c8967169a8aa9a4436a0144a65b8437392d9b88f2", "blockhash": "0000000000000000000e13cef7c366c0283d82e591d1acd082e914b08063cdf1", "vout": [{"scriptPubKey": {"reqSigs": 1, "hex": "76a914aad20de3795383397fe65d11cfc5a419ee96634388ac", "addresses": ["1GaDWSKKb8GctbPUmsKwaTSbYqHkesHuPm"], "asm": "OP_DUP OP_HASH160 aad20de3795383397fe65d11cfc5a419ee966343 OP_EQUALVERIFY OP_CHECKSIG", "type": "pubkeyhash"}, "value": 0.00312483, "n": 0}, {"scriptPubKey": {"reqSigs": 1, "hex": "76a9148d8fd3b29c94628d8a14af93fd1066b87004e24188ac", "addresses": ["1DuWaKXLRdU9BWioAJxiRYg12jV27LhBjw"], "asm": "OP_DUP OP_HASH160 8d8fd3b29c94628d8a14af93fd1066b87004e241 OP_EQUALVERIFY OP_CHECKSIG", "type": "pubkeyhash"}, "value": 0.0166163, "n": 1}], "hex": "010000000191a71138fa884b46b235b073e7784d255ab14b4098c195988aae0d0db9dbcce80d0000006b483045022100f0d1b2c68b8e019e0d4f17ad913e9c67f9e026af01fda51914878f8c6bc630b0022073177c68c4e532d1d518f8026bf8115b007cc35ba0dacab2073b710e0a69fffc0121035712584f2ffa8dd8552cd5484678f3db388aff280873a0214ae9d81b2a1740f4ffffffff02a3c40400000000001976a914aad20de3795383397fe65d11cfc5a419ee96634388acbe5a1900000000001976a9148d8fd3b29c94628d8a14af93fd1066b87004e24188ac00000000", "vin": [{"sequence": 4294967295, "scriptSig": {"hex": "483045022100f0d1b2c68b8e019e0d4f17ad913e9c67f9e026af01fda51914878f8c6bc630b0022073177c68c4e532d1d518f8026bf8115b007cc35ba0dacab2073b710e0a69fffc0121035712584f2ffa8dd8552cd5484678f3db388aff280873a0214ae9d81b2a1740f4", "asm": "3045022100f0d1b2c68b8e019e0d4f17ad913e9c67f9e026af01fda51914878f8c6bc630b0022073177c68c4e532d1d518f8026bf8115b007cc35ba0dacab2073b710e0a69fffc[ALL] 035712584f2ffa8dd8552cd5484678f3db388aff280873a0214ae9d81b2a1740f4"}, "vout": 13, "txid": "e8ccdbb90d0dae8a9895c198404bb15a254d78e773b035b2464b88fa3811a791"}], "txid": "4e1ead4c09c9170e0c35481c8967169a8aa9a4436a0144a65b8437392d9b88f2", "blocktime": 1537871767, "version": 1, "confirmations": 11495, "time": 1537871767, "locktime": 0, "vsize": 226, "size": 226}