{"hash": "66b38e1870f138e4aef9f8feaf9f4bcc13af6be93153a9d5b5518a00a0b7e3d2", "blockhash": "00000000000000000017f5eb5941039fbcee6240d03bc1f2f8e35350df66a1d8", "vout": [{"scriptPubKey": {"reqSigs": 1, "hex": "76a914dd1b395b2698311fd76a7e2c98e3359def90ad7288ac", "addresses": ["1MA6wxMrpuM9NhJFbwxuFoqLuwCuVhzFvv"], "asm": "OP_DUP OP_HASH160 dd1b395b2698311fd76a7e2c98e3359def90ad72 OP_EQUALVERIFY OP_CHECKSIG", "type": "pubkeyhash"}, "value": 0.0115142, "n": 0}, {"scriptPubKey": {"reqSigs": 1, "hex": "a9140136c10502ae5684e49b302f1af10f145f74b6b787", "addresses": ["31oSC7GvQMTZoouyNLBEHVRDhXEFbVhSmh"], "asm": "OP_HASH160 0136c10502ae5684e49b302f1af10f145f74b6b7 OP_EQUAL", "type": "scripthash"}, "value": 0.04551346, "n": 1}], "hex": "01000000000101e69ca67a33320c831cedc3794c1348b1b88940e9dd78eece8bc2d3351b8806340100000023220020efd02f10cc1074c68ec89b458572a71ce6bfc8a17595d8fde80232e47279444bffffffff02bc911100000000001976a914dd1b395b2698311fd76a7e2c98e3359def90ad7288acb27245000000000017a9140136c10502ae5684e49b302f1af10f145f74b6b787040047304402206f71c23663650b78cae989888d47269c04a9ae829c37b6dce4d423a9437da22302206b5a311a1fdbbf5d3bb3e7ee941ec33221286bf22bb80961862687b7314f92a60147304402202261bab8d64c91a7cd3966866e6120b1e2001bda17c891cbd76613af3d60edce02200dd4aa1e77d8d55bb32f79555f5c13a95eefc64f8bd166a4b59845f56ac3f52d0147522103f985ea61f461801f3abc09ebed98ce7e20804639a64616f639f492883ea4e8d62103871fc2ca08e6950b38867e8e6a0e94ee625223d3aa0df5c65f414c6d784467e252ae00000000", "vin": [{"txinwitness": ["", "304402206f71c23663650b78cae989888d47269c04a9ae829c37b6dce4d423a9437da22302206b5a311a1fdbbf5d3bb3e7ee941ec33221286bf22bb80961862687b7314f92a601", "304402202261bab8d64c91a7cd3966866e6120b1e2001bda17c891cbd76613af3d60edce02200dd4aa1e77d8d55bb32f79555f5c13a95eefc64f8bd166a4b59845f56ac3f52d01", "522103f985ea61f461801f3abc09ebed98ce7e20804639a64616f639f492883ea4e8d62103871fc2ca08e6950b38867e8e6a0e94ee625223d3aa0df5c65f414c6d784467e252ae"], "sequence": 4294967295, "scriptSig": {"hex": "220020efd02f10cc1074c68ec89b458572a71ce6bfc8a17595d8fde80232e47279444b", "asm": "0020efd02f10cc1074c68ec89b458572a71ce6bfc8a17595d8fde80232e47279444b"}, "vout": 1, "txid": "3406881b35d3c28bceee78dde94089b8b148134c79c3ed1c830c32337aa69ce6"}], "txid": "4e2c3403512c2e28eabf5db1dff2bd54e0aa99447987af9c498fbb0995fe59da", "blocktime": 1537874412, "version": 1, "confirmations": 11468, "time": 1537874412, "locktime": 0, "vsize": 207, "size": 372}