{"hash": "4e2dbe52038345c17884ed6296df6b1490778dcd02f5931dbf35436dd1b09ba6", "blockhash": "000000000000000000022b45ed06c6f4ccd3cf7fb5ba4856ebd2e58215665228", "vout": [{"scriptPubKey": {"reqSigs": 1, "hex": "76a914bbf676c726d241beafc244296f7969827012eec788ac", "addresses": ["1J8rcVPwRjJdi1jhk95AsjMfsLBbP7x7pS"], "asm": "OP_DUP OP_HASH160 bbf676c726d241beafc244296f7969827012eec7 OP_EQUALVERIFY OP_CHECKSIG", "type": "pubkeyhash"}, "value": 0.08496886, "n": 0}, {"scriptPubKey": {"type": "nulldata", "hex": "6a146f6d6e69000000000000001f000000aed34615ea", "asm": "OP_RETURN 6f6d6e69000000000000001f000000aed34615ea"}, "value": 0.0, "n": 1}, {"scriptPubKey": {"reqSigs": 1, "hex": "76a91442e9341a4c94866e8899fae3e570f7232cfca2e688ac", "addresses": ["176nxvhegjJGfh2bWnsVS3P4k2QYDrVj19"], "asm": "OP_DUP OP_HASH160 42e9341a4c94866e8899fae3e570f7232cfca2e6 OP_EQUALVERIFY OP_CHECKSIG", "type": "pubkeyhash"}, "value": 5.46e-06, "n": 2}], "hex": "010000000171b72fbb90f5d4b655c9934f0646699ca8c5391ac421419ec43b6c533db13926000000006b483045022100b7c3f36a08bb3554836e6e439b78fe974c36c95cbfd515785477e563cc2c33ba0220270402b6aadab33fe2215a365b267d451ded28fae7e9e6935c3508aee55aa862012102061af1d6ec220f4ce39a77205368245c29cd0d340edeb4ced8fd2bd0bc788d42ffffffff03f6a68100000000001976a914bbf676c726d241beafc244296f7969827012eec788ac0000000000000000166a146f6d6e69000000000000001f000000aed34615ea22020000000000001976a91442e9341a4c94866e8899fae3e570f7232cfca2e688ac00000000", "vin": [{"sequence": 4294967295, "scriptSig": {"hex": "483045022100b7c3f36a08bb3554836e6e439b78fe974c36c95cbfd515785477e563cc2c33ba0220270402b6aadab33fe2215a365b267d451ded28fae7e9e6935c3508aee55aa862012102061af1d6ec220f4ce39a77205368245c29cd0d340edeb4ced8fd2bd0bc788d42", "asm": "3045022100b7c3f36a08bb3554836e6e439b78fe974c36c95cbfd515785477e563cc2c33ba0220270402b6aadab33fe2215a365b267d451ded28fae7e9e6935c3508aee55aa862[ALL] 02061af1d6ec220f4ce39a77205368245c29cd0d340edeb4ced8fd2bd0bc788d42"}, "vout": 0, "txid": "2639b13d536c3bc49e4121c41a39c5a89c6946064f93c955b6d4f590bb2fb771"}], "txid": "4e2dbe52038345c17884ed6296df6b1490778dcd02f5931dbf35436dd1b09ba6", "blocktime": 1537869901, "version": 1, "confirmations": 11522, "time": 1537869901, "locktime": 0, "vsize": 257, "size": 257}