{"hash": "d749f5c64613125d1d73caa31558da7597a3332dee0cc3d3f0ce22b62efb93b3", "blockhash": "0000000000000000000e13cef7c366c0283d82e591d1acd082e914b08063cdf1", "vout": [{"scriptPubKey": {"reqSigs": 1, "hex": "0014b05830b96f80424a83c33aac82def8e4276d302b", "addresses": ["bc1qkpvrpwt0sppy4q7r82kg9hhcusnk6vpt94pzlu"], "asm": "0 b05830b96f80424a83c33aac82def8e4276d302b", "type": "witness_v0_keyhash"}, "value": 0.53419941, "n": 0}, {"scriptPubKey": {"reqSigs": 1, "hex": "76a914528c973a4a554f3a742da8a09d425f8c7647dc5588ac", "addresses": ["18XUq9SRWo8FsZxnW6BTogVR9mR4ttXPT6"], "asm": "OP_DUP OP_HASH160 528c973a4a554f3a742da8a09d425f8c7647dc55 OP_EQUALVERIFY OP_CHECKSIG", "type": "pubkeyhash"}, "value": 0.00860282, "n": 1}], "hex": "0100000000010164b25795f93e93a52f40a937137f7b193dc2fa6adc1ac2f8d6f3c22361cc8f2a010000001716001466d24fbdd12dc9bf0346823b18358955e44c2ebfffffffff02a51f2f0300000000160014b05830b96f80424a83c33aac82def8e4276d302b7a200d00000000001976a914528c973a4a554f3a742da8a09d425f8c7647dc5588ac02483045022100ce5d7f3bc5526f950c7a8d7c4023b844749c0abebba98170e0be614ca2675f5002203dd9929fc45ead5aedf3a2309a04d6c8a1908791e4594e28485812802131e494012102ac7d56c62fcab0363b42581cffd8e8172ac010f08ad80e52e37ad5b5a121a87e00000000", "vin": [{"txinwitness": ["3045022100ce5d7f3bc5526f950c7a8d7c4023b844749c0abebba98170e0be614ca2675f5002203dd9929fc45ead5aedf3a2309a04d6c8a1908791e4594e28485812802131e49401", "02ac7d56c62fcab0363b42581cffd8e8172ac010f08ad80e52e37ad5b5a121a87e"], "sequence": 4294967295, "scriptSig": {"hex": "16001466d24fbdd12dc9bf0346823b18358955e44c2ebf", "asm": "001466d24fbdd12dc9bf0346823b18358955e44c2ebf"}, "vout": 1, "txid": "2a8fcc6123c2f3d6f8c21adc6afac23d197b7f1337a9402fa5933ef99557b264"}], "txid": "4e34413f928223e96c96f6a3b1803abd9f98f92d5495fdcdcc90bcb714cae5fc", "blocktime": 1537871767, "version": 1, "confirmations": 11495, "time": 1537871767, "locktime": 0, "vsize": 167, "size": 249}