{"hash": "4e3d82c7f8f4c64e665a2e6c18569eb1e82d98320dc2c2549f00ab1b517fc561", "blockhash": "0000000000000000000baef3f32e3676a92c3b2e5da21b426e4f302fc371ce76", "vout": [{"scriptPubKey": {"reqSigs": 1, "hex": "a9143dfc5141bac2afeaa58afa2efdd3a2144d43793a87", "addresses": ["37LmQZoSU7rHG4TyKQCJdCDft1jHUDFHFK"], "asm": "OP_HASH160 3dfc5141bac2afeaa58afa2efdd3a2144d43793a OP_EQUAL", "type": "scripthash"}, "value": 0.02, "n": 0}, {"scriptPubKey": {"reqSigs": 1, "hex": "76a91431da24e5b47ed9ede324f6f25b445f1fb381291388ac", "addresses": ["15YbSKY1bKiZCEPtnTT6vjEA6b87oEdiB7"], "asm": "OP_DUP OP_HASH160 31da24e5b47ed9ede324f6f25b445f1fb3812913 OP_EQUALVERIFY OP_CHECKSIG", "type": "pubkeyhash"}, "value": 0.02987008, "n": 1}], "hex": "0100000001892d651d2a58c221de46956d0f38e217ca94a66f7623c933974174e12d01e5ae010000006a4730440220036c63427b5686afface4391b6a2188406d456cb22a4a390a974e11cdd4031bc0220557b48f22ccfae8e21637f023a6a79a1f045a5a72b30fb1a18da9198955405e60121032a5376b3a016b54f8a3d593bcc2ab48d27a4cf689ceaab5f5061d824c85bf940ffffffff0280841e000000000017a9143dfc5141bac2afeaa58afa2efdd3a2144d43793a8700942d00000000001976a91431da24e5b47ed9ede324f6f25b445f1fb381291388ac00000000", "vin": [{"sequence": 4294967295, "scriptSig": {"hex": "4730440220036c63427b5686afface4391b6a2188406d456cb22a4a390a974e11cdd4031bc0220557b48f22ccfae8e21637f023a6a79a1f045a5a72b30fb1a18da9198955405e60121032a5376b3a016b54f8a3d593bcc2ab48d27a4cf689ceaab5f5061d824c85bf940", "asm": "30440220036c63427b5686afface4391b6a2188406d456cb22a4a390a974e11cdd4031bc0220557b48f22ccfae8e21637f023a6a79a1f045a5a72b30fb1a18da9198955405e6[ALL] 032a5376b3a016b54f8a3d593bcc2ab48d27a4cf689ceaab5f5061d824c85bf940"}, "vout": 1, "txid": "aee5012de174419733c923766fa694ca17e2380f6d9546de21c2582a1d652d89"}], "txid": "4e3d82c7f8f4c64e665a2e6c18569eb1e82d98320dc2c2549f00ab1b517fc561", "blocktime": 1537876114, "version": 1, "confirmations": 11459, "time": 1537876114, "locktime": 0, "vsize": 223, "size": 223}