{"hash": "4e45d1fd36c37691515e6733ab1467e33bc2adf279c70c4d04e457eb773e784f", "blockhash": "0000000000000000000e13cef7c366c0283d82e591d1acd082e914b08063cdf1", "vout": [{"scriptPubKey": {"reqSigs": 1, "hex": "a914519cdcc248992ba6ed1cc2b8a870224f3e54b3eb87", "addresses": ["398Ya4vVEXLWcnfAs1mFVWwCfuiM8ZphGQ"], "asm": "OP_HASH160 519cdcc248992ba6ed1cc2b8a870224f3e54b3eb OP_EQUAL", "type": "scripthash"}, "value": 0.00311341, "n": 0}, {"scriptPubKey": {"reqSigs": 1, "hex": "76a9149df3ceb85805187f435cbd70d6256ad998c4420088ac", "addresses": ["1FQBAAFVU9FiVx3oVbJ6nKCuGnYAdc1nNH"], "asm": "OP_DUP OP_HASH160 9df3ceb85805187f435cbd70d6256ad998c44200 OP_EQUALVERIFY OP_CHECKSIG", "type": "pubkeyhash"}, "value": 0.00323744, "n": 1}, {"scriptPubKey": {"reqSigs": 1, "hex": "76a914c3098ffb3dadbd89b7e19f2d1b43b70d4cac2d4688ac", "addresses": ["1JnGDpL957ibLE6HEUHMc19Njpup4J2p6G"], "asm": "OP_DUP OP_HASH160 c3098ffb3dadbd89b7e19f2d1b43b70d4cac2d46 OP_EQUALVERIFY OP_CHECKSIG", "type": "pubkeyhash"}, "value": 0.00335751, "n": 2}, {"scriptPubKey": {"reqSigs": 1, "hex": "76a9149f7430146258dd930187ef53aa8419edb5a75c6f88ac", "addresses": ["1FY7dNZKAb4FQDV68VRyiFpzJoBQWLwhQL"], "asm": "OP_DUP OP_HASH160 9f7430146258dd930187ef53aa8419edb5a75c6f OP_EQUALVERIFY OP_CHECKSIG", "type": "pubkeyhash"}, "value": 0.00312934, "n": 3}, {"scriptPubKey": {"reqSigs": 1, "hex": "76a914ba39e408adff7d0c606e0ce5cf12816e6d06354488ac", "addresses": ["1Hyg313hJZzTmzDipSf2C282S65tVJUWwT"], "asm": "OP_DUP OP_HASH160 ba39e408adff7d0c606e0ce5cf12816e6d063544 OP_EQUALVERIFY OP_CHECKSIG", "type": "pubkeyhash"}, "value": 0.00325913, "n": 4}, {"scriptPubKey": {"reqSigs": 1, "hex": "a914fc4ddb8810dd1f40f0192dad3f68e312d9804ae487", "addresses": ["3Qh5UXEXjbxSFNfrKJMX2kyAVGcfeYEJWT"], "asm": "OP_HASH160 fc4ddb8810dd1f40f0192dad3f68e312d9804ae4 OP_EQUAL", "type": "scripthash"}, "value": 0.00324562, "n": 5}, {"scriptPubKey": {"reqSigs": 1, "hex": "a9146aa2c1fcca7f2a1d413bb1d659cc359eff3fc05f87", "addresses": ["3BQrXV7HCELHHiSTYq2uYitj7cWf5Qabp4"], "asm": "OP_HASH160 6aa2c1fcca7f2a1d413bb1d659cc359eff3fc05f OP_EQUAL", "type": "scripthash"}, "value": 0.00334091, "n": 6}, {"scriptPubKey": {"reqSigs": 1, "hex": "76a91424761b27d040e691ed60aa518a0cd15f008d740488ac", "addresses": ["14Knp4UdQcqBeRWKYx56fQnPxAtLMSzcgd"], "asm": "OP_DUP OP_HASH160 24761b27d040e691ed60aa518a0cd15f008d7404 OP_EQUALVERIFY OP_CHECKSIG", "type": "pubkeyhash"}, "value": 0.00321547, "n": 7}, {"scriptPubKey": {"reqSigs": 1, "hex": "76a9140c535c2f6127e7f1fc060ce1385a2d122787424988ac", "addresses": ["128AyGG756yEcojqcYTG5gRSZgSG3XPU1V"], "asm": "OP_DUP OP_HASH160 0c535c2f6127e7f1fc060ce1385a2d1227874249 OP_EQUALVERIFY OP_CHECKSIG", "type": "pubkeyhash"}, "value": 0.00331244, "n": 8}, {"scriptPubKey": {"reqSigs": 1, "hex": "76a9142590de24957c4935a9a96ffeea226ca89150c9fe88ac", "addresses": ["14RdYgjsyfqtKCA1CgnhY8FiTwTgsNGv9F"], "asm": "OP_DUP OP_HASH160 2590de24957c4935a9a96ffeea226ca89150c9fe OP_EQUALVERIFY OP_CHECKSIG", "type": "pubkeyhash"}, "value": 0.0032444, "n": 9}, {"scriptPubKey": {"reqSigs": 1, "hex": "76a914f94cb5a3d0dc8af50fb2bbd622cbb47feee823e088ac", "addresses": ["1PjB9dyH7TKcHgh8U1qVK2TSejN5j6tKuz"], "asm": "OP_DUP OP_HASH160 f94cb5a3d0dc8af50fb2bbd622cbb47feee823e0 OP_EQUALVERIFY OP_CHECKSIG", "type": "pubkeyhash"}, "value": 0.00320281, "n": 10}, {"scriptPubKey": {"reqSigs": 1, "hex": "a9141e5c97a89886edf2493e7f25b352ac21107ac4ca87", "addresses": ["34TZ7jSWabaPaxoGRHr8yz6rAUtvtRSPdJ"], "asm": "OP_HASH160 1e5c97a89886edf2493e7f25b352ac21107ac4ca OP_EQUAL", "type": "scripthash"}, "value": 0.00315515, "n": 11}, {"scriptPubKey": {"reqSigs": 1, "hex": "76a914112e3b20894b3c85211717266393a12dbaba34fb88ac", "addresses": ["12ZqsSod5kDPKFAzexJbtfT6MsgyzCrfHw"], "asm": "OP_DUP OP_HASH160 112e3b20894b3c85211717266393a12dbaba34fb OP_EQUALVERIFY OP_CHECKSIG", "type": "pubkeyhash"}, "value": 0.00325516, "n": 12}, {"scriptPubKey": {"reqSigs": 1, "hex": "76a914497d5682452af34c1b939ee1c59c76172867978488ac", "addresses": ["17haUdrHamSS3Qn6BsNbySicKKunhT91cZ"], "asm": "OP_DUP OP_HASH160 497d5682452af34c1b939ee1c59c761728679784 OP_EQUALVERIFY OP_CHECKSIG", "type": "pubkeyhash"}, "value": 0.00317347, "n": 13}, {"scriptPubKey": {"reqSigs": 1, "hex": "76a9148976c4c7f8796636934c39a3927e4024268fdcba88ac", "addresses": ["1DXqrUSQGKcUXuV69tZU4Ut2PbBxhBaMxA"], "asm": "OP_DUP OP_HASH160 8976c4c7f8796636934c39a3927e4024268fdcba OP_EQUALVERIFY OP_CHECKSIG", "type": "pubkeyhash"}, "value": 0.00335688, "n": 14}, {"scriptPubKey": {"reqSigs": 1, "hex": "76a91413d495149239fa6ad3ce2a5318f27b39edb745c788ac", "addresses": ["12orW8FiAGbszouviYFezBErw6ur5nvWYL"], "asm": "OP_DUP OP_HASH160 13d495149239fa6ad3ce2a5318f27b39edb745c7 OP_EQUALVERIFY OP_CHECKSIG", "type": "pubkeyhash"}, "value": 0.00320206, "n": 15}, {"scriptPubKey": {"reqSigs": 1, "hex": "a914c4004c84760c30f5b44d870cd1adcdab0ff0f9eb87", "addresses": ["3KZNiuk8EPXvpj9hk8kLAZD6TuQEaxtbH3"], "asm": "OP_HASH160 c4004c84760c30f5b44d870cd1adcdab0ff0f9eb OP_EQUAL", "type": "scripthash"}, "value": 0.00334089, "n": 16}, {"scriptPubKey": {"reqSigs": 1, "hex": "76a914ccae7d399a1f45fccc921a1f8ccc62a939f671ce88ac", "addresses": ["1KfFsrTpDqyJQV9AVRd5RJXkHigLzrKrXm"], "asm": "OP_DUP OP_HASH160 ccae7d399a1f45fccc921a1f8ccc62a939f671ce OP_EQUALVERIFY OP_CHECKSIG", "type": "pubkeyhash"}, "value": 0.00339059, "n": 17}, {"scriptPubKey": {"reqSigs": 1, "hex": "a914ab90d9f1cca6e2df1fc4dc0ffcc0f2a35102a2b787", "addresses": ["3HLAzo3e3YADNiV3KKkuurKfdnADDEp42B"], "asm": "OP_HASH160 ab90d9f1cca6e2df1fc4dc0ffcc0f2a35102a2b7 OP_EQUAL", "type": "scripthash"}, "value": 0.00315278, "n": 18}, {"scriptPubKey": {"reqSigs": 1, "hex": "76a9146d3a4d76e717b6e1bff89934bc535e01eec396fe88ac", "addresses": ["1AxYVr19s1G1MhhaXXSXi5gUnRPdvQux74"], "asm": "OP_DUP OP_HASH160 6d3a4d76e717b6e1bff89934bc535e01eec396fe OP_EQUALVERIFY OP_CHECKSIG", "type": "pubkeyhash"}, "value": 0.0032314, "n": 19}, {"scriptPubKey": {"reqSigs": 1, "hex": "76a914881947d948ef514e7589d5efaebfe35eaa54571488ac", "addresses": ["1DQdBcxTyis9Hz4ozZHbx6smgNngxKR3ZP"], "asm": "OP_DUP OP_HASH160 881947d948ef514e7589d5efaebfe35eaa545714 OP_EQUALVERIFY OP_CHECKSIG", "type": "pubkeyhash"}, "value": 27.6907605, "n": 20}, {"scriptPubKey": {"reqSigs": 1, "hex": "76a9142b3f3e6c14d0caa728c90cdf68cf4b3c7a24368188ac", "addresses": ["14wfpWSHp4iMNuJxniQZCLQhBMSYkZiXPV"], "asm": "OP_DUP OP_HASH160 2b3f3e6c14d0caa728c90cdf68cf4b3c7a243681 OP_EQUALVERIFY OP_CHECKSIG", "type": "pubkeyhash"}, "value": 0.00336406, "n": 21}, {"scriptPubKey": {"reqSigs": 1, "hex": "a914c0cd1eb68995f48b0f03feb9a2cbd03a1aa6ac5787", "addresses": ["3KGTPMsqznkrMCgU5tFBVNoWBjYSo3eA6Y"], "asm": "OP_HASH160 c0cd1eb68995f48b0f03feb9a2cbd03a1aa6ac57 OP_EQUAL", "type": "scripthash"}, "value": 0.00326494, "n": 22}, {"scriptPubKey": {"reqSigs": 1, "hex": "76a9148fb78b1743efd1f3293c55f4444ce718290a408a88ac", "addresses": ["1E6uWFEiS2MX2HWxy8pBwWPm7eCUYJVJhg"], "asm": "OP_DUP OP_HASH160 8fb78b1743efd1f3293c55f4444ce718290a408a OP_EQUALVERIFY OP_CHECKSIG", "type": "pubkeyhash"}, "value": 0.00340214, "n": 23}, {"scriptPubKey": {"reqSigs": 1, "hex": "76a914d7fe57a0aac9c2f878ce090c2b163ed19fac16bc88ac", "addresses": ["1Lh4yFrHnqoaLtSyBcKBavyv7uhN3NSMHq"], "asm": "OP_DUP OP_HASH160 d7fe57a0aac9c2f878ce090c2b163ed19fac16bc OP_EQUALVERIFY OP_CHECKSIG", "type": "pubkeyhash"}, "value": 0.00330838, "n": 24}, {"scriptPubKey": {"reqSigs": 1, "hex": "a9144ff668d19a8459a58ccb50f9434ee7e4b29d5ee887", "addresses": ["38ypVXWzPxUmTRXV4LfGwi15Kaw7BH45G6"], "asm": "OP_HASH160 4ff668d19a8459a58ccb50f9434ee7e4b29d5ee8 OP_EQUAL", "type": "scripthash"}, "value": 0.00328454, "n": 25}, {"scriptPubKey": {"reqSigs": 1, "hex": "a914dc604315d5b69fda928098b58dde6b0aaa480ba687", "addresses": ["3MnFu9iT6gVCFBxvLaPEBi1hixm6bPz7go"], "asm": "OP_HASH160 dc604315d5b69fda928098b58dde6b0aaa480ba6 OP_EQUAL", "type": "scripthash"}, "value": 0.00342027, "n": 26}, {"scriptPubKey": {"reqSigs": 1, "hex": "a914cfcc21ac36fc0dd863be9ee04e75eef1c76b752987", "addresses": ["3LdkLZT492mcuRzGhYVV7mZar6MBnV2Cut"], "asm": "OP_HASH160 cfcc21ac36fc0dd863be9ee04e75eef1c76b7529 OP_EQUAL", "type": "scripthash"}, "value": 0.00322257, "n": 27}, {"scriptPubKey": {"reqSigs": 1, "hex": "76a91493c2b77a268aab412b4f7a95b102ede3bf0e6bc688ac", "addresses": ["1EUHbMUpsV1BJmDxiGQ1GxSDQLgh1oCG1f"], "asm": "OP_DUP OP_HASH160 93c2b77a268aab412b4f7a95b102ede3bf0e6bc6 OP_EQUALVERIFY OP_CHECKSIG", "type": "pubkeyhash"}, "value": 0.00337838, "n": 28}, {"scriptPubKey": {"reqSigs": 1, "hex": "76a914feeb7a3cb9f8b3a364a0234178b6963fc80eedc488ac", "addresses": ["1QEtizHda8vuWaE8xus21nwjSKV6aYVjht"], "asm": "OP_DUP OP_HASH160 feeb7a3cb9f8b3a364a0234178b6963fc80eedc4 OP_EQUALVERIFY OP_CHECKSIG", "type": "pubkeyhash"}, "value": 0.00332707, "n": 29}, {"scriptPubKey": {"reqSigs": 1, "hex": "a91469f375d8ec9af1da24af86d83cb5918f7722a79287", "addresses": ["3BMEXcAFNrC5S7Z4VgYb2SeZfwY13xpqwz"], "asm": "OP_HASH160 69f375d8ec9af1da24af86d83cb5918f7722a792 OP_EQUAL", "type": "scripthash"}, "value": 0.00324695, "n": 30}, {"scriptPubKey": {"reqSigs": 1, "hex": "76a914d78c8c6b88335b39629ae5fd739df7426363e47388ac", "addresses": ["1Leiej5yyaGur6yTe7fKRfRoEaWC93WMN8"], "asm": "OP_DUP OP_HASH160 d78c8c6b88335b39629ae5fd739df7426363e473 OP_EQUALVERIFY OP_CHECKSIG", "type": "pubkeyhash"}, "value": 0.003396, "n": 31}, {"scriptPubKey": {"reqSigs": 1, "hex": "76a914d960b544495d1187fcc05ef56681e66f4975d43388ac", "addresses": ["1LpPV2GmHSo1wPM4zYY5t3iR2sa53iCvNt"], "asm": "OP_DUP OP_HASH160 d960b544495d1187fcc05ef56681e66f4975d433 OP_EQUALVERIFY OP_CHECKSIG", "type": "pubkeyhash"}, "value": 0.00334281, "n": 32}, {"scriptPubKey": {"reqSigs": 1, "hex": "76a9147961701ef1101584c93fa9286f6d06356985e61688ac", "addresses": ["1C4oVKb52mPsC1bkt53FnofqueupyaTm2d"], "asm": "OP_DUP OP_HASH160 7961701ef1101584c93fa9286f6d06356985e616 OP_EQUALVERIFY OP_CHECKSIG", "type": "pubkeyhash"}, "value": 0.00314515, "n": 33}, {"scriptPubKey": {"reqSigs": 1, "hex": "76a914ed2fc0f1678132d749086a3a39c941436f31ec0e88ac", "addresses": ["1Nd8MSymaZueFTK1YvK45UWeJvxBZQBi3g"], "asm": "OP_DUP OP_HASH160 ed2fc0f1678132d749086a3a39c941436f31ec0e OP_EQUALVERIFY OP_CHECKSIG", "type": "pubkeyhash"}, "value": 0.00328957, "n": 34}, {"scriptPubKey": {"reqSigs": 1, "hex": "76a914dd17a92fe38d4da201f3c0bfc5839de5776812b888ac", "addresses": ["1MA2gP9H5ef2PvUeH4U2Y4vPDz9LttF6Vm"], "asm": "OP_DUP OP_HASH160 dd17a92fe38d4da201f3c0bfc5839de5776812b8 OP_EQUALVERIFY OP_CHECKSIG", "type": "pubkeyhash"}, "value": 0.00315764, "n": 35}, {"scriptPubKey": {"reqSigs": 1, "hex": "76a914731e7bfb4836fd7ecba3913999e3994a4e94c22088ac", "addresses": ["1BVhE9XXErGH4qVVvnh99eiBhiKj9SsKiq"], "asm": "OP_DUP OP_HASH160 731e7bfb4836fd7ecba3913999e3994a4e94c220 OP_EQUALVERIFY OP_CHECKSIG", "type": "pubkeyhash"}, "value": 0.00327094, "n": 36}, {"scriptPubKey": {"reqSigs": 1, "hex": "76a914367a1739b4e2139e58de8e47fd88dacd262d580188ac", "addresses": ["15y3kNXKkHBFyzwWYtn2D4GMy5RKx3LK3n"], "asm": "OP_DUP OP_HASH160 367a1739b4e2139e58de8e47fd88dacd262d5801 OP_EQUALVERIFY OP_CHECKSIG", "type": "pubkeyhash"}, "value": 0.00326091, "n": 37}, {"scriptPubKey": {"reqSigs": 1, "hex": "76a91426a7a7bcafef48035f11da35e2d06f5b7e6f2d1488ac", "addresses": ["14XPXBN1ubP7EyGvEPqV8JisuEHh3wYh5V"], "asm": "OP_DUP OP_HASH160 26a7a7bcafef48035f11da35e2d06f5b7e6f2d14 OP_EQUALVERIFY OP_CHECKSIG", "type": "pubkeyhash"}, "value": 0.00335824, "n": 38}, {"scriptPubKey": {"reqSigs": 1, "hex": "76a914512d342e6c9bac7ea5cff98cfae597f0b9fb0e7d88ac", "addresses": ["18QDtMdUMLRKfjxYZk1Un9veqJs7jhKiro"], "asm": "OP_DUP OP_HASH160 512d342e6c9bac7ea5cff98cfae597f0b9fb0e7d OP_EQUALVERIFY OP_CHECKSIG", "type": "pubkeyhash"}, "value": 0.00328007, "n": 39}, {"scriptPubKey": {"reqSigs": 1, "hex": "76a914026afa71f91159ba48d752e7e7101da8d21094aa88ac", "addresses": ["1DnWNFT3dDw8uh1umfsJQYDrhMAC5rwkn"], "asm": "OP_DUP OP_HASH160 026afa71f91159ba48d752e7e7101da8d21094aa OP_EQUALVERIFY OP_CHECKSIG", "type": "pubkeyhash"}, "value": 0.0032702, "n": 40}, {"scriptPubKey": {"reqSigs": 1, "hex": "76a914fbd5067b10dc715958721a13f0971d05711062ce88ac", "addresses": ["1PxZoQewD6P79JWZTs9Yp6AqwHxnjzHZDQ"], "asm": "OP_DUP OP_HASH160 fbd5067b10dc715958721a13f0971d05711062ce OP_EQUALVERIFY OP_CHECKSIG", "type": "pubkeyhash"}, "value": 0.00323968, "n": 41}, {"scriptPubKey": {"reqSigs": 1, "hex": "a914e874a8a40d859a8b99aba03bcd911b50e9262f3987", "addresses": ["3Nt8Se7XTAAKpY2ZX1sjV5xtPrnBeLvnfy"], "asm": "OP_HASH160 e874a8a40d859a8b99aba03bcd911b50e9262f39 OP_EQUAL", "type": "scripthash"}, "value": 0.00322606, "n": 42}, {"scriptPubKey": {"reqSigs": 1, "hex": "76a91421d577a8a2eab0c6be7269103f8348ec25abb78d88ac", "addresses": ["145u2JnFVUWB6SPkGoC8PKZQ8DA8oZQvH4"], "asm": "OP_DUP OP_HASH160 21d577a8a2eab0c6be7269103f8348ec25abb78d OP_EQUALVERIFY OP_CHECKSIG", "type": "pubkeyhash"}, "value": 0.00316993, "n": 43}, {"scriptPubKey": {"reqSigs": 1, "hex": "76a9147ff8cea9ad8189613ffd88953996a0884cfc270488ac", "addresses": ["1Cfeso7kHxktk3C4dxsssTtPogvrdRjfk6"], "asm": "OP_DUP OP_HASH160 7ff8cea9ad8189613ffd88953996a0884cfc2704 OP_EQUALVERIFY OP_CHECKSIG", "type": "pubkeyhash"}, "value": 0.00326543, "n": 44}, {"scriptPubKey": {"reqSigs": 1, "hex": "76a914b39bea198d391b89caf297c36a0a441fb2b701b088ac", "addresses": ["1HNgjTtwFcLaCQdm32kyfavnfSZCspR3Wr"], "asm": "OP_DUP OP_HASH160 b39bea198d391b89caf297c36a0a441fb2b701b0 OP_EQUALVERIFY OP_CHECKSIG", "type": "pubkeyhash"}, "value": 0.00341921, "n": 45}, {"scriptPubKey": {"reqSigs": 1, "hex": "a91499ccd8a98656306e64ef2a02fa8a8523aff4f37a87", "addresses": ["3FiEhsEBqqXCGNWYbz8shT5aXRTDAW8XmE"], "asm": "OP_HASH160 99ccd8a98656306e64ef2a02fa8a8523aff4f37a OP_EQUAL", "type": "scripthash"}, "value": 0.00321457, "n": 46}, {"scriptPubKey": {"reqSigs": 1, "hex": "76a914f4a0b30ef6a4e2f5888fd89f98748255e4bc359988ac", "addresses": ["1PJUPQCSG5n5SB7zS61dBBHAvHGxvMwZmy"], "asm": "OP_DUP OP_HASH160 f4a0b30ef6a4e2f5888fd89f98748255e4bc3599 OP_EQUALVERIFY OP_CHECKSIG", "type": "pubkeyhash"}, "value": 0.0032305, "n": 47}, {"scriptPubKey": {"reqSigs": 1, "hex": "a91434ccbe627ab32299db76c41c248e3b26d962d6ee87", "addresses": ["36WCLMq3Hm78qjLsKn6tcVhmsYiRT5YNU2"], "asm": "OP_HASH160 34ccbe627ab32299db76c41c248e3b26d962d6ee OP_EQUAL", "type": "scripthash"}, "value": 0.00316997, "n": 48}, {"scriptPubKey": {"reqSigs": 1, "hex": "76a914ae9ec67cea42dee5d79f201e1e37cd6baf22f50988ac", "addresses": ["1GvJnHQDuuLHHADCyKg7Y1SdtG3PcM7P13"], "asm": "OP_DUP OP_HASH160 ae9ec67cea42dee5d79f201e1e37cd6baf22f509 OP_EQUALVERIFY OP_CHECKSIG", "type": "pubkeyhash"}, "value": 0.00333385, "n": 49}, {"scriptPubKey": {"reqSigs": 1, "hex": "76a9144f1a06b159e5c645f36c9ff616bb281c014db56588ac", "addresses": ["18DFZV12eMN8Cdvu5tddKdoxQjpGsXJw7i"], "asm": "OP_DUP OP_HASH160 4f1a06b159e5c645f36c9ff616bb281c014db565 OP_EQUALVERIFY OP_CHECKSIG", "type": "pubkeyhash"}, "value": 0.00312792, "n": 50}, {"scriptPubKey": {"reqSigs": 1, "hex": "76a91451caf31f1c34891cf935bfe69e2ec661fd2ac0cc88ac", "addresses": ["18TUrjMK2oiyaC33uJocaRoV4WwvFEUGHj"], "asm": "OP_DUP OP_HASH160 51caf31f1c34891cf935bfe69e2ec661fd2ac0cc OP_EQUALVERIFY OP_CHECKSIG", "type": "pubkeyhash"}, "value": 0.00325764, "n": 51}, {"scriptPubKey": {"reqSigs": 1, "hex": "76a9143f2de377e77e21a809cb78c086d9e1bf2e10798088ac", "addresses": ["16m4YUhV4Gyaj3DBHKbfMXViFioA5Lx4BE"], "asm": "OP_DUP OP_HASH160 3f2de377e77e21a809cb78c086d9e1bf2e107980 OP_EQUALVERIFY OP_CHECKSIG", "type": "pubkeyhash"}, "value": 0.00328484, "n": 52}, {"scriptPubKey": {"reqSigs": 1, "hex": "76a914b8d79bca9b512520744eaeea14167595771bbd3188ac", "addresses": ["1HrMd3SwuRvFYgLwiUYn5C3CuBtZo97fqC"], "asm": "OP_DUP OP_HASH160 b8d79bca9b512520744eaeea14167595771bbd31 OP_EQUALVERIFY OP_CHECKSIG", "type": "pubkeyhash"}, "value": 0.00329834, "n": 53}, {"scriptPubKey": {"reqSigs": 1, "hex": "a914ae0c73b04b6f960245f9c595abeebbbc136dd9ab87", "addresses": ["3HZJR6XKgjnfEqPStkLgc6P1aZPMLUPeAW"], "asm": "OP_HASH160 ae0c73b04b6f960245f9c595abeebbbc136dd9ab OP_EQUAL", "type": "scripthash"}, "value": 0.00335025, "n": 54}, {"scriptPubKey": {"reqSigs": 1, "hex": "76a914a3e20cda43904fde4ff641c8b9b0b9005e5a5fa888ac", "addresses": ["1FwXwWhJk1HCu8NNz8YCVJevmiyVHmETaG"], "asm": "OP_DUP OP_HASH160 a3e20cda43904fde4ff641c8b9b0b9005e5a5fa8 OP_EQUALVERIFY OP_CHECKSIG", "type": "pubkeyhash"}, "value": 0.00310416, "n": 55}, {"scriptPubKey": {"reqSigs": 1, "hex": "a9149f5a0ffd102fa42be63f775f489fe59dcd097a2a87", "addresses": ["3GDbFhCUARKadPh34j3YYLHeK5GBzCZXJV"], "asm": "OP_HASH160 9f5a0ffd102fa42be63f775f489fe59dcd097a2a OP_EQUAL", "type": "scripthash"}, "value": 0.00324955, "n": 56}, {"scriptPubKey": {"reqSigs": 1, "hex": "a91493dcdde5a785d9ad30ae1ce64c95f7821a4f92ab87", "addresses": ["3FAqqqSx7USqXZSDjWNtSyD3kQhfEf2Rpm"], "asm": "OP_HASH160 93dcdde5a785d9ad30ae1ce64c95f7821a4f92ab OP_EQUAL", "type": "scripthash"}, "value": 0.00332482, "n": 57}, {"scriptPubKey": {"reqSigs": 1, "hex": "76a91499b901cba35c9e8e25283731dc69316a427381d288ac", "addresses": ["1F1p1s39mG6dxTzqSdM6AfTy1nTVfTUqCS"], "asm": "OP_DUP OP_HASH160 99b901cba35c9e8e25283731dc69316a427381d2 OP_EQUALVERIFY OP_CHECKSIG", "type": "pubkeyhash"}, "value": 0.00337422, "n": 58}, {"scriptPubKey": {"reqSigs": 1, "hex": "76a91403b80ef6f7391e4ff96573c8b5898954b929e6db88ac", "addresses": ["1LfXBWaXyWc2WVK7MNagtQhmbuGYuhCkA"], "asm": "OP_DUP OP_HASH160 03b80ef6f7391e4ff96573c8b5898954b929e6db OP_EQUALVERIFY OP_CHECKSIG", "type": "pubkeyhash"}, "value": 0.00341861, "n": 59}, {"scriptPubKey": {"reqSigs": 1, "hex": "76a914a995c86cb79503ac00a478b99968511a5b99c2d888ac", "addresses": ["1GTgdX4ZS9CgYBh1fprmcWTsyTEiUo57GM"], "asm": "OP_DUP OP_HASH160 a995c86cb79503ac00a478b99968511a5b99c2d8 OP_EQUALVERIFY OP_CHECKSIG", "type": "pubkeyhash"}, "value": 0.00314426, "n": 60}, {"scriptPubKey": {"reqSigs": 1, "hex": "76a914a7cd62218a97ae96c605278d0cd8ed1e28b1714c88ac", "addresses": ["1GJFtKWt6JeAHjHL6TyQvVvqNmTRZSCh9A"], "asm": "OP_DUP OP_HASH160 a7cd62218a97ae96c605278d0cd8ed1e28b1714c OP_EQUALVERIFY OP_CHECKSIG", "type": "pubkeyhash"}, "value": 0.00333534, "n": 61}, {"scriptPubKey": {"reqSigs": 1, "hex": "76a91423636703d612ef53a24eaf05939832c746d4362288ac", "addresses": ["14E7jKDVAZVzheDiRNmEP74zMbcdWkpcKH"], "asm": "OP_DUP OP_HASH160 23636703d612ef53a24eaf05939832c746d43622 OP_EQUALVERIFY OP_CHECKSIG", "type": "pubkeyhash"}, "value": 0.00311489, "n": 62}, {"scriptPubKey": {"reqSigs": 1, "hex": "76a914cd863474869375b152157c1fad19b3862e96fcb388ac", "addresses": ["1KjiJ3ddkCcVeUthEPmDRLCA21GZrcnYky"], "asm": "OP_DUP OP_HASH160 cd863474869375b152157c1fad19b3862e96fcb3 OP_EQUALVERIFY OP_CHECKSIG", "type": "pubkeyhash"}, "value": 0.00312132, "n": 63}, {"scriptPubKey": {"reqSigs": 1, "hex": "76a914d684a414f419d3aa816200a312ebbf205eb7170288ac", "addresses": ["1LZGW79ypT5vrp43N5ef7SvVUFSqhfC3Np"], "asm": "OP_DUP OP_HASH160 d684a414f419d3aa816200a312ebbf205eb71702 OP_EQUALVERIFY OP_CHECKSIG", "type": "pubkeyhash"}, "value": 0.00326428, "n": 64}, {"scriptPubKey": {"reqSigs": 1, "hex": "76a914db9a54f331f487abfa0381f97dc89472e2cbdd1588ac", "addresses": ["1M29sB941xNNSUMsZE2dJq62ZUngtVkiwR"], "asm": "OP_DUP OP_HASH160 db9a54f331f487abfa0381f97dc89472e2cbdd15 OP_EQUALVERIFY OP_CHECKSIG", "type": "pubkeyhash"}, "value": 0.00329608, "n": 65}, {"scriptPubKey": {"reqSigs": 1, "hex": "76a9144b921b1e7be6b2c65c6b5c373a11cdd37001e8bb88ac", "addresses": ["17tai1KdeLJQuj49AU3hFTDaG5Jvijxnrr"], "asm": "OP_DUP OP_HASH160 4b921b1e7be6b2c65c6b5c373a11cdd37001e8bb OP_EQUALVERIFY OP_CHECKSIG", "type": "pubkeyhash"}, "value": 0.00328854, "n": 66}, {"scriptPubKey": {"reqSigs": 1, "hex": "76a914f163ff892704d2ed5395b0d650f139d866bfa34d88ac", "addresses": ["1P1MeEARHPTE953iYyK2z88qcQYLuhQfkz"], "asm": "OP_DUP OP_HASH160 f163ff892704d2ed5395b0d650f139d866bfa34d OP_EQUALVERIFY OP_CHECKSIG", "type": "pubkeyhash"}, "value": 0.00319162, "n": 67}, {"scriptPubKey": {"reqSigs": 1, "hex": "76a91427785e23c0c6cc82da0d12607737e93b7c0cce2488ac", "addresses": ["14bhYn8X4NVgWXBmB8Bue7QYk3bLKQPMK6"], "asm": "OP_DUP OP_HASH160 27785e23c0c6cc82da0d12607737e93b7c0cce24 OP_EQUALVERIFY OP_CHECKSIG", "type": "pubkeyhash"}, "value": 0.00310275, "n": 68}, {"scriptPubKey": {"reqSigs": 1, "hex": "76a914b995e516b71bcd8c569fcde59e6bd60ecaaf30e988ac", "addresses": ["1HvHaNJgm9BgHkns2ZR47LPLNb83X9zmU2"], "asm": "OP_DUP OP_HASH160 b995e516b71bcd8c569fcde59e6bd60ecaaf30e9 OP_EQUALVERIFY OP_CHECKSIG", "type": "pubkeyhash"}, "value": 0.00339596, "n": 69}, {"scriptPubKey": {"reqSigs": 1, "hex": "76a91400b69790a112689d3658a5c5d5fb896a02b9f75688ac", "addresses": ["114mjieexn3kV79STEAWfAkbDxUX2Uh3ie"], "asm": "OP_DUP OP_HASH160 00b69790a112689d3658a5c5d5fb896a02b9f756 OP_EQUALVERIFY OP_CHECKSIG", "type": "pubkeyhash"}, "value": 0.00323052, "n": 70}, {"scriptPubKey": {"reqSigs": 1, "hex": "a914034e6ecad1eb39741157b8ba0daed2a6731a69cd87", "addresses": ["31zVuiyTbkEbV45kt6SDmsjD21rHavqEGD"], "asm": "OP_HASH160 034e6ecad1eb39741157b8ba0daed2a6731a69cd OP_EQUAL", "type": "scripthash"}, "value": 0.00331822, "n": 71}, {"scriptPubKey": {"reqSigs": 1, "hex": "a9141541e0b46d80260ce81f753037231437f2d707d987", "addresses": ["33dR2qbig8shPJz1KqD4tsjEMLvLm4727t"], "asm": "OP_HASH160 1541e0b46d80260ce81f753037231437f2d707d9 OP_EQUAL", "type": "scripthash"}, "value": 0.00322234, "n": 72}, {"scriptPubKey": {"reqSigs": 1, "hex": "76a91486aa5fa7e9eff1566ee7d605ceae8459f05afcf488ac", "addresses": ["1DH3eUWwqgoAU67AeWay2i8KEaZWq4CCUe"], "asm": "OP_DUP OP_HASH160 86aa5fa7e9eff1566ee7d605ceae8459f05afcf4 OP_EQUALVERIFY OP_CHECKSIG", "type": "pubkeyhash"}, "value": 0.00315291, "n": 73}, {"scriptPubKey": {"reqSigs": 1, "hex": "76a9147cd7f77e462cc691c6c20133d6746538fb4420df88ac", "addresses": ["1CP7WRS72PAaJZFqe6KzNyzzyJXwy3Z6Bb"], "asm": "OP_DUP OP_HASH160 7cd7f77e462cc691c6c20133d6746538fb4420df OP_EQUALVERIFY OP_CHECKSIG", "type": "pubkeyhash"}, "value": 0.00320789, "n": 74}, {"scriptPubKey": {"reqSigs": 1, "hex": "a914b42f18cdaf3f7a2cb3d3c4887c1f3263845426fd87", "addresses": ["3J7jyRTEyGvrQebThffBeGJStR8p1gQQ8Q"], "asm": "OP_HASH160 b42f18cdaf3f7a2cb3d3c4887c1f3263845426fd OP_EQUAL", "type": "scripthash"}, "value": 0.00310924, "n": 75}, {"scriptPubKey": {"reqSigs": 1, "hex": "76a91415ca09479f5f67643ba4565c8d1f65a9c972b55788ac", "addresses": ["12zDDkgWsXsAnrWPNShDkvxzTQTLVJYdbq"], "asm": "OP_DUP OP_HASH160 15ca09479f5f67643ba4565c8d1f65a9c972b557 OP_EQUALVERIFY OP_CHECKSIG", "type": "pubkeyhash"}, "value": 0.00316919, "n": 76}, {"scriptPubKey": {"reqSigs": 1, "hex": "76a9146f3978311f82273995b5490c90d43b4e9d1feb6788ac", "addresses": ["1B96rLxFFEeRiaRqLTYbosa92kqfR5bbak"], "asm": "OP_DUP OP_HASH160 6f3978311f82273995b5490c90d43b4e9d1feb67 OP_EQUALVERIFY OP_CHECKSIG", "type": "pubkeyhash"}, "value": 0.00337296, "n": 77}, {"scriptPubKey": {"reqSigs": 1, "hex": "76a914acf450d10be35f76ad3dc8682934c73857c55cf788ac", "addresses": ["1GmVuM6pSm2PLLhJBvvZ3NJfu8Q9BAJeQa"], "asm": "OP_DUP OP_HASH160 acf450d10be35f76ad3dc8682934c73857c55cf7 OP_EQUALVERIFY OP_CHECKSIG", "type": "pubkeyhash"}, "value": 0.00324683, "n": 78}, {"scriptPubKey": {"reqSigs": 1, "hex": "76a914b2bd88b5edb0f0909d76f42796332bc6377365fa88ac", "addresses": ["1HJ6LCeXbZk4foa1LuJtAoZwRC8Adxd8XY"], "asm": "OP_DUP OP_HASH160 b2bd88b5edb0f0909d76f42796332bc6377365fa OP_EQUALVERIFY OP_CHECKSIG", "type": "pubkeyhash"}, "value": 0.00323393, "n": 79}, {"scriptPubKey": {"reqSigs": 1, "hex": "a914e6597bdf278590c2d2ff922243798895ea7653d387", "addresses": ["3NgzY7XQHLjvKGKUPM9KxbaVcnGa1sjd9V"], "asm": "OP_HASH160 e6597bdf278590c2d2ff922243798895ea7653d3 OP_EQUAL", "type": "scripthash"}, "value": 0.00326762, "n": 80}, {"scriptPubKey": {"reqSigs": 1, "hex": "76a914aab436c1005db673dca9ac5d7c95445a69632bcc88ac", "addresses": ["1GZbm6HwKDz9nLkwHi7jtkTpnSpgRdnA7W"], "asm": "OP_DUP OP_HASH160 aab436c1005db673dca9ac5d7c95445a69632bcc OP_EQUALVERIFY OP_CHECKSIG", "type": "pubkeyhash"}, "value": 0.00332161, "n": 81}, {"scriptPubKey": {"reqSigs": 1, "hex": "76a9143a55e469015e7ac73e055816932598fb1cd42ce688ac", "addresses": ["16KT62KVW8JyWb2WV1LFnGMdD4LsxXfGtz"], "asm": "OP_DUP OP_HASH160 3a55e469015e7ac73e055816932598fb1cd42ce6 OP_EQUALVERIFY OP_CHECKSIG", "type": "pubkeyhash"}, "value": 0.00332707, "n": 82}, {"scriptPubKey": {"reqSigs": 1, "hex": "76a9145b89485294bc10214b4e96be3313f4a580819bb788ac", "addresses": ["19Lzx1jMfuxuQW7H3ftPAw38vphWE1EEdy"], "asm": "OP_DUP OP_HASH160 5b89485294bc10214b4e96be3313f4a580819bb7 OP_EQUALVERIFY OP_CHECKSIG", "type": "pubkeyhash"}, "value": 0.0033699, "n": 83}, {"scriptPubKey": {"reqSigs": 1, "hex": "76a914b52e1695a87035ae93831cae05a5ede7f3eb564388ac", "addresses": ["1HWzWzFRoCLh9QCSr292uuKu9rVdBecStz"], "asm": "OP_DUP OP_HASH160 b52e1695a87035ae93831cae05a5ede7f3eb5643 OP_EQUALVERIFY OP_CHECKSIG", "type": "pubkeyhash"}, "value": 0.00331442, "n": 84}, {"scriptPubKey": {"reqSigs": 1, "hex": "a91496a4cd03658885d3eb04e1de121487bca68eeedb87", "addresses": ["3FRYht3jo1HFSWLJ6b6YcewfpKNbbDWNVb"], "asm": "OP_HASH160 96a4cd03658885d3eb04e1de121487bca68eeedb OP_EQUAL", "type": "scripthash"}, "value": 0.003297, "n": 85}, {"scriptPubKey": {"reqSigs": 1, "hex": "76a914e79abe0f79155ed6047ec178841dc9ab2d9b24b888ac", "addresses": ["1N7cU1HWh5Gb6YWJ2fArk6u7xkrmvRGxue"], "asm": "OP_DUP OP_HASH160 e79abe0f79155ed6047ec178841dc9ab2d9b24b8 OP_EQUALVERIFY OP_CHECKSIG", "type": "pubkeyhash"}, "value": 0.0032865, "n": 86}, {"scriptPubKey": {"reqSigs": 1, "hex": "a9149b9b8a23fab78300334d6864e407c817f3b5348887", "addresses": ["3FsnzMnPZmu9tcRxzTNRMqGSrorLqFDL1n"], "asm": "OP_HASH160 9b9b8a23fab78300334d6864e407c817f3b53488 OP_EQUAL", "type": "scripthash"}, "value": 0.00327956, "n": 87}, {"scriptPubKey": {"reqSigs": 1, "hex": "a914f45be8ae8e84fdac90d625ea8f1c79b9094bd73f87", "addresses": ["3Py4uHz4XsHGogUzdkhysWD6HFUfAxDaMN"], "asm": "OP_HASH160 f45be8ae8e84fdac90d625ea8f1c79b9094bd73f OP_EQUAL", "type": "scripthash"}, "value": 0.0031861, "n": 88}, {"scriptPubKey": {"reqSigs": 1, "hex": "76a9141edc66cf49fece61797ab769352bc2fbaf3b075d88ac", "addresses": ["13pBJXYRYN8n92sarvz7rEQ8Ku5Z5DepsU"], "asm": "OP_DUP OP_HASH160 1edc66cf49fece61797ab769352bc2fbaf3b075d OP_EQUALVERIFY OP_CHECKSIG", "type": "pubkeyhash"}, "value": 0.00317044, "n": 89}, {"scriptPubKey": {"reqSigs": 1, "hex": "76a91427d9ac1640bebc947286b25101bde090533ae59a88ac", "addresses": ["14di7cVm1uFgT1jxhv4o3cj7SpGsNuvMNJ"], "asm": "OP_DUP OP_HASH160 27d9ac1640bebc947286b25101bde090533ae59a OP_EQUALVERIFY OP_CHECKSIG", "type": "pubkeyhash"}, "value": 0.0032026, "n": 90}, {"scriptPubKey": {"reqSigs": 1, "hex": "a9142f4a4e05a4c2637978c2385f3e56ee6297e3ccc987", "addresses": ["3614hM25P6DbumLtj9tnKJ156PqETw6Rkh"], "asm": "OP_HASH160 2f4a4e05a4c2637978c2385f3e56ee6297e3ccc9 OP_EQUAL", "type": "scripthash"}, "value": 0.0031303, "n": 91}, {"scriptPubKey": {"reqSigs": 1, "hex": "76a914f5b43854b455067d958926f1599bdd431052397888ac", "addresses": ["1PQASuaZcEbmssSHS3uX1rjv8GzXYAtmMj"], "asm": "OP_DUP OP_HASH160 f5b43854b455067d958926f1599bdd4310523978 OP_EQUALVERIFY OP_CHECKSIG", "type": "pubkeyhash"}, "value": 0.00312367, "n": 92}, {"scriptPubKey": {"reqSigs": 1, "hex": "76a9146ce942e2c6992181bff73b77d30f0d5a951c6e5f88ac", "addresses": ["1AvsQziMw1T7vUPFYk8QTiFbsAXaXiA71X"], "asm": "OP_DUP OP_HASH160 6ce942e2c6992181bff73b77d30f0d5a951c6e5f OP_EQUALVERIFY OP_CHECKSIG", "type": "pubkeyhash"}, "value": 0.0032238, "n": 93}, {"scriptPubKey": {"reqSigs": 1, "hex": "76a914cf942f84265f482dba3d5e74fb6281bb9433d70088ac", "addresses": ["1KvaPptJmeCpVmMZNVCBJHdKqriDYnRyaV"], "asm": "OP_DUP OP_HASH160 cf942f84265f482dba3d5e74fb6281bb9433d700 OP_EQUALVERIFY OP_CHECKSIG", "type": "pubkeyhash"}, "value": 0.00315073, "n": 94}, {"scriptPubKey": {"reqSigs": 1, "hex": "a9148e88ec6849007e58fa5b146c0a22ef5ceafab16187", "addresses": ["3EgfuPjx3hWe13ANmUrLT4E4aMhXboHM1Q"], "asm": "OP_HASH160 8e88ec6849007e58fa5b146c0a22ef5ceafab161 OP_EQUAL", "type": "scripthash"}, "value": 0.00328534, "n": 95}, {"scriptPubKey": {"reqSigs": 1, "hex": "76a9140a338e6b41a9b4458fc865533a929b0dfc66392688ac", "addresses": ["1vwX7eBvcd8Le4EqWm9N9MmLHGSqU3pSn"], "asm": "OP_DUP OP_HASH160 0a338e6b41a9b4458fc865533a929b0dfc663926 OP_EQUALVERIFY OP_CHECKSIG", "type": "pubkeyhash"}, "value": 0.00330802, "n": 96}, {"scriptPubKey": {"reqSigs": 1, "hex": "76a9140363a5d7e9f1995b08210a10268bf817557f2da788ac", "addresses": ["1JvQEDMTbqbPTqpG5bqbqu1zfNXDuaDyv"], "asm": "OP_DUP OP_HASH160 0363a5d7e9f1995b08210a10268bf817557f2da7 OP_EQUALVERIFY OP_CHECKSIG", "type": "pubkeyhash"}, "value": 0.00320614, "n": 97}, {"scriptPubKey": {"reqSigs": 1, "hex": "a9141320c93e86555d7114dd0140b2325c2f2673787a87", "addresses": ["33SA3CyzD72stqyWKmVsv6k6UpmrRbedkR"], "asm": "OP_HASH160 1320c93e86555d7114dd0140b2325c2f2673787a OP_EQUAL", "type": "scripthash"}, "value": 0.00335807, "n": 98}, {"scriptPubKey": {"reqSigs": 1, "hex": "76a914d1a167448d03bff29c4ba7bcaddef5039d5e4b4b88ac", "addresses": ["1L7RabcEfKBwJMvXgmGe28BsBnkjHfyhEg"], "asm": "OP_DUP OP_HASH160 d1a167448d03bff29c4ba7bcaddef5039d5e4b4b OP_EQUALVERIFY OP_CHECKSIG", "type": "pubkeyhash"}, "value": 0.00332135, "n": 99}, {"scriptPubKey": {"reqSigs": 1, "hex": "76a914c718317db5d276fb641af1950ffa21a80c808b0c88ac", "addresses": ["1K9iTA3TvLUjiQdY3XKkczxt7hZek7fZB8"], "asm": "OP_DUP OP_HASH160 c718317db5d276fb641af1950ffa21a80c808b0c OP_EQUALVERIFY OP_CHECKSIG", "type": "pubkeyhash"}, "value": 0.0031149, "n": 100}], "hex": "0200000001a036ce1f765b1289bb947507962517d24f4257f65b2bb31e92c45a1df2c824a05e0000006b483045022100d8b7e26e1e9ac8c2fd3694180d17c46ed23ebc36887622299c23c64cad5e9d130220663e41b3a5afe7ac4a4ca5be478f5698ff2c319afd9ad142dc1d114ebcc365db012102cddfa1fcbd2951276ae814781d02e74a065b5cebc1368750b8f9231eeac34088feffffff652dc004000000000017a914519cdcc248992ba6ed1cc2b8a870224f3e54b3eb87a0f00400000000001976a9149df3ceb85805187f435cbd70d6256ad998c4420088ac871f0500000000001976a914c3098ffb3dadbd89b7e19f2d1b43b70d4cac2d4688ac66c60400000000001976a9149f7430146258dd930187ef53aa8419edb5a75c6f88ac19f90400000000001976a914ba39e408adff7d0c606e0ce5cf12816e6d06354488acd2f304000000000017a914fc4ddb8810dd1f40f0192dad3f68e312d9804ae4870b1905000000000017a9146aa2c1fcca7f2a1d413bb1d659cc359eff3fc05f870be80400000000001976a91424761b27d040e691ed60aa518a0cd15f008d740488acec0d0500000000001976a9140c535c2f6127e7f1fc060ce1385a2d122787424988ac58f30400000000001976a9142590de24957c4935a9a96ffeea226ca89150c9fe88ac19e30400000000001976a914f94cb5a3d0dc8af50fb2bbd622cbb47feee823e088ac7bd004000000000017a9141e5c97a89886edf2493e7f25b352ac21107ac4ca878cf70400000000001976a914112e3b20894b3c85211717266393a12dbaba34fb88aca3d70400000000001976a914497d5682452af34c1b939ee1c59c76172867978488ac481f0500000000001976a9148976c4c7f8796636934c39a3927e4024268fdcba88accee20400000000001976a91413d495149239fa6ad3ce2a5318f27b39edb745c788ac091905000000000017a914c4004c84760c30f5b44d870cd1adcdab0ff0f9eb87732c0500000000001976a914ccae7d399a1f45fccc921a1f8ccc62a939f671ce88ac8ecf04000000000017a914ab90d9f1cca6e2df1fc4dc0ffcc0f2a35102a2b78744ee0400000000001976a9146d3a4d76e717b6e1bff89934bc535e01eec396fe88ac52bf0ca5000000001976a914881947d948ef514e7589d5efaebfe35eaa54571488ac16220500000000001976a9142b3f3e6c14d0caa728c90cdf68cf4b3c7a24368188ac5efb04000000000017a914c0cd1eb68995f48b0f03feb9a2cbd03a1aa6ac5787f6300500000000001976a9148fb78b1743efd1f3293c55f4444ce718290a408a88ac560c0500000000001976a914d7fe57a0aac9c2f878ce090c2b163ed19fac16bc88ac060305000000000017a9144ff668d19a8459a58ccb50f9434ee7e4b29d5ee8870b3805000000000017a914dc604315d5b69fda928098b58dde6b0aaa480ba687d1ea04000000000017a914cfcc21ac36fc0dd863be9ee04e75eef1c76b752987ae270500000000001976a91493c2b77a268aab412b4f7a95b102ede3bf0e6bc688aca3130500000000001976a914feeb7a3cb9f8b3a364a0234178b6963fc80eedc488ac57f404000000000017a91469f375d8ec9af1da24af86d83cb5918f7722a79287902e0500000000001976a914d78c8c6b88335b39629ae5fd739df7426363e47388acc9190500000000001976a914d960b544495d1187fcc05ef56681e66f4975d43388ac93cc0400000000001976a9147961701ef1101584c93fa9286f6d06356985e61688acfd040500000000001976a914ed2fc0f1678132d749086a3a39c941436f31ec0e88ac74d10400000000001976a914dd17a92fe38d4da201f3c0bfc5839de5776812b888acb6fd0400000000001976a914731e7bfb4836fd7ecba3913999e3994a4e94c22088accbf90400000000001976a914367a1739b4e2139e58de8e47fd88dacd262d580188acd01f0500000000001976a91426a7a7bcafef48035f11da35e2d06f5b7e6f2d1488ac47010500000000001976a914512d342e6c9bac7ea5cff98cfae597f0b9fb0e7d88ac6cfd0400000000001976a914026afa71f91159ba48d752e7e7101da8d21094aa88ac80f10400000000001976a914fbd5067b10dc715958721a13f0971d05711062ce88ac2eec04000000000017a914e874a8a40d859a8b99aba03bcd911b50e9262f398741d60400000000001976a91421d577a8a2eab0c6be7269103f8348ec25abb78d88ac8ffb0400000000001976a9147ff8cea9ad8189613ffd88953996a0884cfc270488aca1370500000000001976a914b39bea198d391b89caf297c36a0a441fb2b701b088acb1e704000000000017a91499ccd8a98656306e64ef2a02fa8a8523aff4f37a87eaed0400000000001976a914f4a0b30ef6a4e2f5888fd89f98748255e4bc359988ac45d604000000000017a91434ccbe627ab32299db76c41c248e3b26d962d6ee8749160500000000001976a914ae9ec67cea42dee5d79f201e1e37cd6baf22f50988acd8c50400000000001976a9144f1a06b159e5c645f36c9ff616bb281c014db56588ac84f80400000000001976a91451caf31f1c34891cf935bfe69e2ec661fd2ac0cc88ac24030500000000001976a9143f2de377e77e21a809cb78c086d9e1bf2e10798088ac6a080500000000001976a914b8d79bca9b512520744eaeea14167595771bbd3188acb11c05000000000017a914ae0c73b04b6f960245f9c595abeebbbc136dd9ab8790bc0400000000001976a914a3e20cda43904fde4ff641c8b9b0b9005e5a5fa888ac5bf504000000000017a9149f5a0ffd102fa42be63f775f489fe59dcd097a2a87c21205000000000017a91493dcdde5a785d9ad30ae1ce64c95f7821a4f92ab870e260500000000001976a91499b901cba35c9e8e25283731dc69316a427381d288ac65370500000000001976a91403b80ef6f7391e4ff96573c8b5898954b929e6db88ac3acc0400000000001976a914a995c86cb79503ac00a478b99968511a5b99c2d888acde160500000000001976a914a7cd62218a97ae96c605278d0cd8ed1e28b1714c88acc1c00400000000001976a91423636703d612ef53a24eaf05939832c746d4362288ac44c30400000000001976a914cd863474869375b152157c1fad19b3862e96fcb388ac1cfb0400000000001976a914d684a414f419d3aa816200a312ebbf205eb7170288ac88070500000000001976a914db9a54f331f487abfa0381f97dc89472e2cbdd1588ac96040500000000001976a9144b921b1e7be6b2c65c6b5c373a11cdd37001e8bb88acbade0400000000001976a914f163ff892704d2ed5395b0d650f139d866bfa34d88ac03bc0400000000001976a91427785e23c0c6cc82da0d12607737e93b7c0cce2488ac8c2e0500000000001976a914b995e516b71bcd8c569fcde59e6bd60ecaaf30e988aceced0400000000001976a91400b69790a112689d3658a5c5d5fb896a02b9f75688ac2e1005000000000017a914034e6ecad1eb39741157b8ba0daed2a6731a69cd87baea04000000000017a9141541e0b46d80260ce81f753037231437f2d707d9879bcf0400000000001976a91486aa5fa7e9eff1566ee7d605ceae8459f05afcf488ac15e50400000000001976a9147cd7f77e462cc691c6c20133d6746538fb4420df88ac8cbe04000000000017a914b42f18cdaf3f7a2cb3d3c4887c1f3263845426fd87f7d50400000000001976a91415ca09479f5f67643ba4565c8d1f65a9c972b55788ac90250500000000001976a9146f3978311f82273995b5490c90d43b4e9d1feb6788ac4bf40400000000001976a914acf450d10be35f76ad3dc8682934c73857c55cf788ac41ef0400000000001976a914b2bd88b5edb0f0909d76f42796332bc6377365fa88ac6afc04000000000017a914e6597bdf278590c2d2ff922243798895ea7653d38781110500000000001976a914aab436c1005db673dca9ac5d7c95445a69632bcc88aca3130500000000001976a9143a55e469015e7ac73e055816932598fb1cd42ce688ac5e240500000000001976a9145b89485294bc10214b4e96be3313f4a580819bb788acb20e0500000000001976a914b52e1695a87035ae93831cae05a5ede7f3eb564388ace40705000000000017a91496a4cd03658885d3eb04e1de121487bca68eeedb87ca030500000000001976a914e79abe0f79155ed6047ec178841dc9ab2d9b24b888ac140105000000000017a9149b9b8a23fab78300334d6864e407c817f3b534888792dc04000000000017a914f45be8ae8e84fdac90d625ea8f1c79b9094bd73f8774d60400000000001976a9141edc66cf49fece61797ab769352bc2fbaf3b075d88ac04e30400000000001976a91427d9ac1640bebc947286b25101bde090533ae59a88acc6c604000000000017a9142f4a4e05a4c2637978c2385f3e56ee6297e3ccc9872fc40400000000001976a914f5b43854b455067d958926f1599bdd431052397888ac4ceb0400000000001976a9146ce942e2c6992181bff73b77d30f0d5a951c6e5f88acc1ce0400000000001976a914cf942f84265f482dba3d5e74fb6281bb9433d70088ac560305000000000017a9148e88ec6849007e58fa5b146c0a22ef5ceafab16187320c0500000000001976a9140a338e6b41a9b4458fc865533a929b0dfc66392688ac66e40400000000001976a9140363a5d7e9f1995b08210a10268bf817557f2da788acbf1f05000000000017a9141320c93e86555d7114dd0140b2325c2f2673787a8767110500000000001976a914d1a167448d03bff29c4ba7bcaddef5039d5e4b4b88acc2c00400000000001976a914c718317db5d276fb641af1950ffa21a80c808b0c88ac10490800", "vin": [{"sequence": 4294967294, "scriptSig": {"hex": "483045022100d8b7e26e1e9ac8c2fd3694180d17c46ed23ebc36887622299c23c64cad5e9d130220663e41b3a5afe7ac4a4ca5be478f5698ff2c319afd9ad142dc1d114ebcc365db012102cddfa1fcbd2951276ae814781d02e74a065b5cebc1368750b8f9231eeac34088", "asm": "3045022100d8b7e26e1e9ac8c2fd3694180d17c46ed23ebc36887622299c23c64cad5e9d130220663e41b3a5afe7ac4a4ca5be478f5698ff2c319afd9ad142dc1d114ebcc365db[ALL] 02cddfa1fcbd2951276ae814781d02e74a065b5cebc1368750b8f9231eeac34088"}, "vout": 94, "txid": "a024c8f21d5ac4921eb32b5bf657424fd2172596077594bb89125b761fce36a0"}], "txid": "4e45d1fd36c37691515e6733ab1467e33bc2adf279c70c4d04e457eb773e784f", "blocktime": 1537871767, "version": 2, "confirmations": 11495, "time": 1537871767, "locktime": 542992, "vsize": 3538, "size": 3538}