{"hash": "dde1b77868bb4b938eb9d79f486a278194c6a5352d1b8ad66c1c3e32e2cd2902", "blockhash": "00000000000000000004ffacab907a6b429b9a5745fa0b75af4234bf69dd7176", "vout": [{"scriptPubKey": {"reqSigs": 1, "hex": "76a914b77c5e70313821eccca0685611076fb6e2f1561a88ac", "addresses": ["1HjBeQe8p5hCKa6E1D2ZFKCkAVQ4pGbT7b"], "asm": "OP_DUP OP_HASH160 b77c5e70313821eccca0685611076fb6e2f1561a OP_EQUALVERIFY OP_CHECKSIG", "type": "pubkeyhash"}, "value": 0.00234371, "n": 0}, {"scriptPubKey": {"reqSigs": 1, "hex": "a9141988a27e3c2df4ddee7fad5a2303d086179b2a3087", "addresses": ["3422VtS7UtCvXYxoXMVp6eZupR252z85oC"], "asm": "OP_HASH160 1988a27e3c2df4ddee7fad5a2303d086179b2a30 OP_EQUAL", "type": "scripthash"}, "value": 2.50084083, "n": 1}], "hex": "010000000001016f51adb671f957edf55900887a4cef6d4d736fe22532b2d52c7d44116b3ef6cb010000002322002065d416c48a8072e0ac51c2d111eb194f009caef0332446c1bf2097316cf07fa9ffffffff0283930300000000001976a914b77c5e70313821eccca0685611076fb6e2f1561a88acf3fae70e0000000017a9141988a27e3c2df4ddee7fad5a2303d086179b2a308704004730440220227a35b5e3fabe1074bd6a35b4641e38f28550d3e03a0d180a723e8e1b3257bf02206b00e99452c966fe8664a2397cc76aedd67b857d86bafd19b5e6f06fe205206e01473044022005b47b6d44c79cf1797f792349fc198df916e3ab0b2a253c71ad07ea4441e93502203471cb23496fc09757645ad3477ad1dacdda2809a2ea9b7c7af16c352d2746950169522102f44abcf9e23c9a460da309ccca56c619c04eed3bde2c2cff5e7d78fbcd980b9c2103c9443cf3047bb6c2c82f1b0c44c36109cdc3d0d601d16d1189a1602bf8d1a0a02103bfe867059274412412e088af5572b92168c2ef495cfe6c9b7a753a009eb37c4853ae00000000", "vin": [{"txinwitness": ["", "30440220227a35b5e3fabe1074bd6a35b4641e38f28550d3e03a0d180a723e8e1b3257bf02206b00e99452c966fe8664a2397cc76aedd67b857d86bafd19b5e6f06fe205206e01", "3044022005b47b6d44c79cf1797f792349fc198df916e3ab0b2a253c71ad07ea4441e93502203471cb23496fc09757645ad3477ad1dacdda2809a2ea9b7c7af16c352d27469501", "522102f44abcf9e23c9a460da309ccca56c619c04eed3bde2c2cff5e7d78fbcd980b9c2103c9443cf3047bb6c2c82f1b0c44c36109cdc3d0d601d16d1189a1602bf8d1a0a02103bfe867059274412412e088af5572b92168c2ef495cfe6c9b7a753a009eb37c4853ae"], "sequence": 4294967295, "scriptSig": {"hex": "22002065d416c48a8072e0ac51c2d111eb194f009caef0332446c1bf2097316cf07fa9", "asm": "002065d416c48a8072e0ac51c2d111eb194f009caef0332446c1bf2097316cf07fa9"}, "vout": 1, "txid": "cbf63e6b11447d2cd5b23225e26f734d6def4c7a880059f5ed57f971b6ad516f"}], "txid": "4e494b7c5da0b61eb921d4b8437d5a200980f80d9c7ff5b1537bcc1d28219e65", "blocktime": 1537875543, "version": 1, "confirmations": 11464, "time": 1537875543, "locktime": 0, "vsize": 216, "size": 406}