{"hash": "4e4a2d6ef41e8a5d6169d5e52365869b07f04ce034d25fc1a681963cc0413f6d", "blockhash": "0000000000000000001f76057863aec43deb6fa401d9628bb513d65a8098bfab", "vout": [{"scriptPubKey": {"reqSigs": 1, "hex": "76a914d1037c4dc1b13be60ec2a506a919af5df60f87a788ac", "addresses": ["1L4AQGsSU9WeABYSSceRruVJjtqCG6jTYD"], "asm": "OP_DUP OP_HASH160 d1037c4dc1b13be60ec2a506a919af5df60f87a7 OP_EQUALVERIFY OP_CHECKSIG", "type": "pubkeyhash"}, "value": 0.00153455, "n": 0}, {"scriptPubKey": {"reqSigs": 1, "hex": "a914046787fc04b13472c92a84fde04faa8c9a228b5587", "addresses": ["326JenSMGYhpRnbiwULQ3FeaEKzjjKtyzM"], "asm": "OP_HASH160 046787fc04b13472c92a84fde04faa8c9a228b55 OP_EQUAL", "type": "scripthash"}, "value": 0.01562469, "n": 1}], "hex": "01000000022312901d48e9814372f57b6c425174f73b3b345eb189234da3381d3b713c3374000000006a473044022046ef627e4cc538fe6af56b32ea7e1b5dbc20f664faa2166931bd9e1dfce094da0220338047c4bd422c3b725cdf1a6b8f968a595602656d31f48f61e8dcd29bc38dae01210256a28bb7f165b50d64626f074dd7283e65274542e157b8703c8eac493442fbe6ffffffff33f3f7f2c6334b00ce3a030ec8e213ca39ba13f348f6d068f1cbdaf4d42b0cf5000000006a47304402200f42222a68628296aca425934e712e734cf000c63660c4020cfe592af19b5de60220383ce659e1c595aa571e9d59bed3b53ec483d132bbf5cc20e672eba5b4e485db012102bb12c61f6d8f6550b24bd8fd5ee7949e08a2f8f6ee6dfb5e27ea4fa2dcebc564ffffffff026f570200000000001976a914d1037c4dc1b13be60ec2a506a919af5df60f87a788ac65d717000000000017a914046787fc04b13472c92a84fde04faa8c9a228b558700000000", "vin": [{"sequence": 4294967295, "scriptSig": {"hex": "473044022046ef627e4cc538fe6af56b32ea7e1b5dbc20f664faa2166931bd9e1dfce094da0220338047c4bd422c3b725cdf1a6b8f968a595602656d31f48f61e8dcd29bc38dae01210256a28bb7f165b50d64626f074dd7283e65274542e157b8703c8eac493442fbe6", "asm": "3044022046ef627e4cc538fe6af56b32ea7e1b5dbc20f664faa2166931bd9e1dfce094da0220338047c4bd422c3b725cdf1a6b8f968a595602656d31f48f61e8dcd29bc38dae[ALL] 0256a28bb7f165b50d64626f074dd7283e65274542e157b8703c8eac493442fbe6"}, "vout": 0, "txid": "74333c713b1d38a34d2389b15e343b3bf77451426c7bf5724381e9481d901223"}, {"sequence": 4294967295, "scriptSig": {"hex": "47304402200f42222a68628296aca425934e712e734cf000c63660c4020cfe592af19b5de60220383ce659e1c595aa571e9d59bed3b53ec483d132bbf5cc20e672eba5b4e485db012102bb12c61f6d8f6550b24bd8fd5ee7949e08a2f8f6ee6dfb5e27ea4fa2dcebc564", "asm": "304402200f42222a68628296aca425934e712e734cf000c63660c4020cfe592af19b5de60220383ce659e1c595aa571e9d59bed3b53ec483d132bbf5cc20e672eba5b4e485db[ALL] 02bb12c61f6d8f6550b24bd8fd5ee7949e08a2f8f6ee6dfb5e27ea4fa2dcebc564"}, "vout": 0, "txid": "f50c2bd4f4dacbf168d0f648f313ba39ca13e2c80e033ace004b33c6f2f7f333"}], "txid": "4e4a2d6ef41e8a5d6169d5e52365869b07f04ce034d25fc1a681963cc0413f6d", "blocktime": 1537873891, "version": 1, "confirmations": 11478, "time": 1537873891, "locktime": 0, "vsize": 370, "size": 370}