{"hash": "4e4f8eea5fa028c0a746807a768f405cc13e140f4065011607614196b6358393", "blockhash": "0000000000000000000dcc0f55137456b1a82d3642486a52398922ac4d620174", "vout": [{"scriptPubKey": {"reqSigs": 1, "hex": "76a91484a6bad5c5319e481660aef8878e17e10bce9e7188ac", "addresses": ["1D6Pvux1deFyMfEAV1LRxFnEFhgQ21dtr2"], "asm": "OP_DUP OP_HASH160 84a6bad5c5319e481660aef8878e17e10bce9e71 OP_EQUALVERIFY OP_CHECKSIG", "type": "pubkeyhash"}, "value": 0.0084758, "n": 0}, {"scriptPubKey": {"reqSigs": 1, "hex": "76a9147f1843fd00b257ff400b2fd75e4d8552f5d68bb388ac", "addresses": ["1Cb1tN958MPEheLUHVbwupUhyAFX6eedhr"], "asm": "OP_DUP OP_HASH160 7f1843fd00b257ff400b2fd75e4d8552f5d68bb3 OP_EQUALVERIFY OP_CHECKSIG", "type": "pubkeyhash"}, "value": 0.0101926, "n": 1}], "hex": "02000000021707af6b5d7f87748d10d9e3dd28b7511f0e46a214218133e71e141726d29e65000000006a473044022079bf6deaa5351178e6bb2fa605f3f4067c87f8d23e3d6594f238e302e1ba650a0220683cc5f9ef3b5838a0e6a5722d566385fbf867cc6870b3d396d23f01e82eb6c60121037341ac1c17dc87bd766258177a596662b4da7e22dda3bddaab89e7e697c72c53feffffff133b0886ba8237def515a2f98c52c315d8af55d94ba2eee8e894f09fd0d86771000000006b4830450221009c3d489ffbcdefdc1912d2b4f5746827fef132fb3e7d1ae9f7099ef711346c120220495dbe9dd12f06e80ab7bdbc10df96c16b3c4d25d6bc395749250cd992e6ab0201210315ca43453cbfef40d0b508f95598771cc17f149d283dcfa8db7b7cba21805d21feffffff02dcee0c00000000001976a91484a6bad5c5319e481660aef8878e17e10bce9e7188ac7c8d0f00000000001976a9147f1843fd00b257ff400b2fd75e4d8552f5d68bb388ac0c490800", "vin": [{"sequence": 4294967294, "scriptSig": {"hex": "473044022079bf6deaa5351178e6bb2fa605f3f4067c87f8d23e3d6594f238e302e1ba650a0220683cc5f9ef3b5838a0e6a5722d566385fbf867cc6870b3d396d23f01e82eb6c60121037341ac1c17dc87bd766258177a596662b4da7e22dda3bddaab89e7e697c72c53", "asm": "3044022079bf6deaa5351178e6bb2fa605f3f4067c87f8d23e3d6594f238e302e1ba650a0220683cc5f9ef3b5838a0e6a5722d566385fbf867cc6870b3d396d23f01e82eb6c6[ALL] 037341ac1c17dc87bd766258177a596662b4da7e22dda3bddaab89e7e697c72c53"}, "vout": 0, "txid": "659ed22617141ee733812114a2460e1f51b728dde3d9108d74877f5d6baf0717"}, {"sequence": 4294967294, "scriptSig": {"hex": "4830450221009c3d489ffbcdefdc1912d2b4f5746827fef132fb3e7d1ae9f7099ef711346c120220495dbe9dd12f06e80ab7bdbc10df96c16b3c4d25d6bc395749250cd992e6ab0201210315ca43453cbfef40d0b508f95598771cc17f149d283dcfa8db7b7cba21805d21", "asm": "30450221009c3d489ffbcdefdc1912d2b4f5746827fef132fb3e7d1ae9f7099ef711346c120220495dbe9dd12f06e80ab7bdbc10df96c16b3c4d25d6bc395749250cd992e6ab02[ALL] 0315ca43453cbfef40d0b508f95598771cc17f149d283dcfa8db7b7cba21805d21"}, "vout": 0, "txid": "7167d8d09ff094e8e8eea24bd955afd815c3528cf9a215f5de3782ba86083b13"}], "txid": "4e4f8eea5fa028c0a746807a768f405cc13e140f4065011607614196b6358393", "blocktime": 1537870268, "version": 2, "confirmations": 11518, "time": 1537870268, "locktime": 542988, "vsize": 373, "size": 373}