{"hash": "4e511b1222e864ea0e25ca8309cd42dcddbc14a9dbf2e7c2e3fd4853b8cfe662", "blockhash": "00000000000000000018f53835495a110e01622372bf6ae95dc86f2b0ab887b0", "vout": [{"scriptPubKey": {"reqSigs": 1, "hex": "76a9147716ffddd45d5803022c864dd55cf02f3183300788ac", "addresses": ["1Brgxrrivke39ESF7oADRkCRgJTABUcedt"], "asm": "OP_DUP OP_HASH160 7716ffddd45d5803022c864dd55cf02f31833007 OP_EQUALVERIFY OP_CHECKSIG", "type": "pubkeyhash"}, "value": 0.0123068, "n": 0}, {"scriptPubKey": {"reqSigs": 1, "hex": "76a9140c4332c3d5d15aea77ba7b26bb82e47e1021edde88ac", "addresses": ["127qcKfNcVc3oeVKNE1SNuzvXSaYvMvXSa"], "asm": "OP_DUP OP_HASH160 0c4332c3d5d15aea77ba7b26bb82e47e1021edde OP_EQUALVERIFY OP_CHECKSIG", "type": "pubkeyhash"}, "value": 0.00997346, "n": 1}], "hex": "020000000553ac2e168536e5da1b1dc8f6d8aa5e0a8af0bdcb6ad76422fa0f36a8f2b93fc7000000006a473044022070d6a979fd50d5dc716cbb416fee0e4dd4efe902b9754ceaa943f4bec0af56310220265834c48a04586e74e1d95cb3136087cc90130ad6ffdf8ab642a24f338fb9e8012102ea7f85387bfbd3ca3b12719815f9a05d520d92eede1b31c60d12211fc41ef9acfeffffff64c629055f509f060d0de3a9b62f7144e3adbcc6298df472f402f32d89990be3000000006b483045022100d555569f24cf0b18e3c6a7c5d1b8f2ed2dc61d940c2e9dee55046da10d7103b6022001030bbc1b300463127c3ae914a032f3092801453fd684377b913aaa63a00d02012102bc4fff7eb7d412c79641bbc7c8cec8f6e7503dc59aa2d80d003da84d2bdcb1defeffffff782df87850db0bb4b226a4f068e06ab2bd88c0c992868ddd3231540049e751cc1d0000006b483045022100f6c330029e52174fcd357042a89c5def31ea3413e9e8007914a06f2334eb9527022008d2ad525b69a43d7a99640fcf45943a4d889109252b027feaf64c7f22a6c929012103adb7cf1cd795bee3bb1f2fd3ac7a776ab7e22c87a5b588ca27c6d2c712487779feffffff8ddad84d7f8eebfdfd8996d5005f0c9af024444d2f5a5c5398c2057051ddc248010000006b483045022100cf7967085bc633a10024ed8d2f921c57539dbcdca33030b0a000661992207c9002204e7abaae177d12792db3dc0615e311b93839da39d95068c26e9ca836cd2f6afb0121027b6c54cef5d208c529524f84d41551acd55deb46c8be25dd62dbb53dc768efe3feffffffe8024cd1baa083fd885388d1f557d1ad320d958e6289b69e6148d8f827a621cb090000006b483045022100e3edcae4d9bbf454b4f9bba3e669c532744d6fe9eb04d9fa333cb461f1a5c46202206ae38708a7db87a1887a7f8bc8a3ba60238f8daab3b9f9c6c3d39f7e8e1c7558012102a6a60b671b1a1032d230a7b7010f369711f026a63ca29b1ee4a78f6c480eed7cfeffffff0258c71200000000001976a9147716ffddd45d5803022c864dd55cf02f3183300788ace2370f00000000001976a9140c4332c3d5d15aea77ba7b26bb82e47e1021edde88ac0e490800", "vin": [{"sequence": 4294967294, "scriptSig": {"hex": "473044022070d6a979fd50d5dc716cbb416fee0e4dd4efe902b9754ceaa943f4bec0af56310220265834c48a04586e74e1d95cb3136087cc90130ad6ffdf8ab642a24f338fb9e8012102ea7f85387bfbd3ca3b12719815f9a05d520d92eede1b31c60d12211fc41ef9ac", "asm": "3044022070d6a979fd50d5dc716cbb416fee0e4dd4efe902b9754ceaa943f4bec0af56310220265834c48a04586e74e1d95cb3136087cc90130ad6ffdf8ab642a24f338fb9e8[ALL] 02ea7f85387bfbd3ca3b12719815f9a05d520d92eede1b31c60d12211fc41ef9ac"}, "vout": 0, "txid": "c73fb9f2a8360ffa2264d76acbbdf08a0a5eaad8f6c81d1bdae53685162eac53"}, {"sequence": 4294967294, "scriptSig": {"hex": "483045022100d555569f24cf0b18e3c6a7c5d1b8f2ed2dc61d940c2e9dee55046da10d7103b6022001030bbc1b300463127c3ae914a032f3092801453fd684377b913aaa63a00d02012102bc4fff7eb7d412c79641bbc7c8cec8f6e7503dc59aa2d80d003da84d2bdcb1de", "asm": "3045022100d555569f24cf0b18e3c6a7c5d1b8f2ed2dc61d940c2e9dee55046da10d7103b6022001030bbc1b300463127c3ae914a032f3092801453fd684377b913aaa63a00d02[ALL] 02bc4fff7eb7d412c79641bbc7c8cec8f6e7503dc59aa2d80d003da84d2bdcb1de"}, "vout": 0, "txid": "e30b99892df302f472f48d29c6bcade344712fb6a9e30d0d069f505f0529c664"}, {"sequence": 4294967294, "scriptSig": {"hex": "483045022100f6c330029e52174fcd357042a89c5def31ea3413e9e8007914a06f2334eb9527022008d2ad525b69a43d7a99640fcf45943a4d889109252b027feaf64c7f22a6c929012103adb7cf1cd795bee3bb1f2fd3ac7a776ab7e22c87a5b588ca27c6d2c712487779", "asm": "3045022100f6c330029e52174fcd357042a89c5def31ea3413e9e8007914a06f2334eb9527022008d2ad525b69a43d7a99640fcf45943a4d889109252b027feaf64c7f22a6c929[ALL] 03adb7cf1cd795bee3bb1f2fd3ac7a776ab7e22c87a5b588ca27c6d2c712487779"}, "vout": 29, "txid": "cc51e74900543132dd8d8692c9c088bdb26ae068f0a426b2b40bdb5078f82d78"}, {"sequence": 4294967294, "scriptSig": {"hex": "483045022100cf7967085bc633a10024ed8d2f921c57539dbcdca33030b0a000661992207c9002204e7abaae177d12792db3dc0615e311b93839da39d95068c26e9ca836cd2f6afb0121027b6c54cef5d208c529524f84d41551acd55deb46c8be25dd62dbb53dc768efe3", "asm": "3045022100cf7967085bc633a10024ed8d2f921c57539dbcdca33030b0a000661992207c9002204e7abaae177d12792db3dc0615e311b93839da39d95068c26e9ca836cd2f6afb[ALL] 027b6c54cef5d208c529524f84d41551acd55deb46c8be25dd62dbb53dc768efe3"}, "vout": 1, "txid": "48c2dd517005c298535c5a2f4d4424f09a0c5f00d59689fdfdeb8e7f4dd8da8d"}, {"sequence": 4294967294, "scriptSig": {"hex": "483045022100e3edcae4d9bbf454b4f9bba3e669c532744d6fe9eb04d9fa333cb461f1a5c46202206ae38708a7db87a1887a7f8bc8a3ba60238f8daab3b9f9c6c3d39f7e8e1c7558012102a6a60b671b1a1032d230a7b7010f369711f026a63ca29b1ee4a78f6c480eed7c", "asm": "3045022100e3edcae4d9bbf454b4f9bba3e669c532744d6fe9eb04d9fa333cb461f1a5c46202206ae38708a7db87a1887a7f8bc8a3ba60238f8daab3b9f9c6c3d39f7e8e1c7558[ALL] 02a6a60b671b1a1032d230a7b7010f369711f026a63ca29b1ee4a78f6c480eed7c"}, "vout": 9, "txid": "cb21a627f8d848619eb689628e950d32add157f5d1885388fd83a0bad14c02e8"}], "txid": "4e511b1222e864ea0e25ca8309cd42dcddbc14a9dbf2e7c2e3fd4853b8cfe662", "blocktime": 1537870928, "version": 2, "confirmations": 11514, "time": 1537870928, "locktime": 542990, "vsize": 817, "size": 817}