{"hash": "4e52b1dc8a50d66b6f0093fb842ad2a8f8988bc6d87500e955983fa6c4d41186", "blockhash": "0000000000000000001f76057863aec43deb6fa401d9628bb513d65a8098bfab", "vout": [{"scriptPubKey": {"reqSigs": 1, "hex": "76a914e3935bdfc494eb98318b7de1b608070f6738389188ac", "addresses": ["1MkJvDmmXZ83eHsNDMQAG6ZTg9XixFzHrz"], "asm": "OP_DUP OP_HASH160 e3935bdfc494eb98318b7de1b608070f67383891 OP_EQUALVERIFY OP_CHECKSIG", "type": "pubkeyhash"}, "value": 0.000904, "n": 0}, {"scriptPubKey": {"type": "nulldata", "hex": "6a4c50000077e10001641c419f27e126dedfaea5697af8e8e963c7cfd5b95b23cc0f42c2fc38c5c2c16449240a893a75963896c982b8645baa16a606127c767211c769bc9a9526289ac0f6612cd74e33776ee4", "asm": "OP_RETURN 000077e10001641c419f27e126dedfaea5697af8e8e963c7cfd5b95b23cc0f42c2fc38c5c2c16449240a893a75963896c982b8645baa16a606127c767211c769bc9a9526289ac0f6612cd74e33776ee4"}, "value": 0.0, "n": 1}], "hex": "010000000122b885ac7172f0da21f709f01c61cd36619f341e6c674d47b46198b79f364a4d010000006a473044022005cbed54795ba1fb245f9feee588a17abb198d58a41b6a237f438920f91c1cf5022023c314ede51c36816a843b20c299e62caf9d1e3dd7be6a5625331fa637bfb2ac01210215b16ded3c029deebf3ad1b9bfafa3bb61fee8f3f42d8ffec47ea8cfa26c95dcffffffff0220610100000000001976a914e3935bdfc494eb98318b7de1b608070f6738389188ac0000000000000000536a4c50000077e10001641c419f27e126dedfaea5697af8e8e963c7cfd5b95b23cc0f42c2fc38c5c2c16449240a893a75963896c982b8645baa16a606127c767211c769bc9a9526289ac0f6612cd74e33776ee400000000", "vin": [{"sequence": 4294967295, "scriptSig": {"hex": "473044022005cbed54795ba1fb245f9feee588a17abb198d58a41b6a237f438920f91c1cf5022023c314ede51c36816a843b20c299e62caf9d1e3dd7be6a5625331fa637bfb2ac01210215b16ded3c029deebf3ad1b9bfafa3bb61fee8f3f42d8ffec47ea8cfa26c95dc", "asm": "3044022005cbed54795ba1fb245f9feee588a17abb198d58a41b6a237f438920f91c1cf5022023c314ede51c36816a843b20c299e62caf9d1e3dd7be6a5625331fa637bfb2ac[ALL] 0215b16ded3c029deebf3ad1b9bfafa3bb61fee8f3f42d8ffec47ea8cfa26c95dc"}, "vout": 1, "txid": "4d4a369fb79861b4474d676c1e349f6136cd611cf009f721daf07271ac85b822"}], "txid": "4e52b1dc8a50d66b6f0093fb842ad2a8f8988bc6d87500e955983fa6c4d41186", "blocktime": 1537873891, "version": 1, "confirmations": 11478, "time": 1537873891, "locktime": 0, "vsize": 283, "size": 283}