{"hash": "4e55b06bb94b3ac0619c988495d858486197a3b61864e8993884465b92f9e7e7", "blockhash": "0000000000000000001f76057863aec43deb6fa401d9628bb513d65a8098bfab", "vout": [{"scriptPubKey": {"reqSigs": 1, "hex": "76a9142a315cf2a170c57b7b4837dfdf59c49a9b3c02c488ac", "addresses": ["14r6Ws6CMSKfh5giXnrVH7XEvr2gVuWapJ"], "asm": "OP_DUP OP_HASH160 2a315cf2a170c57b7b4837dfdf59c49a9b3c02c4 OP_EQUALVERIFY OP_CHECKSIG", "type": "pubkeyhash"}, "value": 0.00234453, "n": 0}, {"scriptPubKey": {"reqSigs": 1, "hex": "a9148f1415dc5c24c3455b7ecd7ec1adf2889a76c1d487", "addresses": ["3EjYcXsgC6nQhcX1RPLHcyp9LQBf6HH2vt"], "asm": "OP_HASH160 8f1415dc5c24c3455b7ecd7ec1adf2889a76c1d4 OP_EQUAL", "type": "scripthash"}, "value": 0.0052377, "n": 1}], "hex": "0100000001ee60a2c91cab2abc61d5b97046224f574a0618c385695dcffb189394c995aaf0010000006b483045022100b9b99fd4bde186b1a7cd717aeb1871641c3fe10671f872a99e69fb113105edfa022036faea7fb6d066005d80181895f5f22447f7e9783adeb2013b89ef8b412e347c012102cda0ba20ac74a4c333f52cd95a6c8c0335a1b568c62e06672d5bf5628d75da91ffffffff02d5930300000000001976a9142a315cf2a170c57b7b4837dfdf59c49a9b3c02c488acfafd07000000000017a9148f1415dc5c24c3455b7ecd7ec1adf2889a76c1d48700000000", "vin": [{"sequence": 4294967295, "scriptSig": {"hex": "483045022100b9b99fd4bde186b1a7cd717aeb1871641c3fe10671f872a99e69fb113105edfa022036faea7fb6d066005d80181895f5f22447f7e9783adeb2013b89ef8b412e347c012102cda0ba20ac74a4c333f52cd95a6c8c0335a1b568c62e06672d5bf5628d75da91", "asm": "3045022100b9b99fd4bde186b1a7cd717aeb1871641c3fe10671f872a99e69fb113105edfa022036faea7fb6d066005d80181895f5f22447f7e9783adeb2013b89ef8b412e347c[ALL] 02cda0ba20ac74a4c333f52cd95a6c8c0335a1b568c62e06672d5bf5628d75da91"}, "vout": 1, "txid": "f0aa95c9949318fbcf5d6985c318064a574f224670b9d561bc2aab1cc9a260ee"}], "txid": "4e55b06bb94b3ac0619c988495d858486197a3b61864e8993884465b92f9e7e7", "blocktime": 1537873891, "version": 1, "confirmations": 11476, "time": 1537873891, "locktime": 0, "vsize": 224, "size": 224}