{"hash": "4e5b0cd3137fa66cba783900e7aefe45e01789b830849e1d068d0662e99c7edf", "blockhash": "0000000000000000000baef3f32e3676a92c3b2e5da21b426e4f302fc371ce76", "vout": [{"scriptPubKey": {"reqSigs": 1, "hex": "76a914b4d70689224ed25b3a4e24f3a8e134f75dde293688ac", "addresses": ["1HVCDmPCZiq48VxXzQ3guGZycJ2pe1CVhW"], "asm": "OP_DUP OP_HASH160 b4d70689224ed25b3a4e24f3a8e134f75dde2936 OP_EQUALVERIFY OP_CHECKSIG", "type": "pubkeyhash"}, "value": 8.071e-05, "n": 0}, {"scriptPubKey": {"reqSigs": 1, "hex": "a9145accc0cdb3aa6aff97058480c02f058dc9d031dd87", "addresses": ["39y82Jha1fM9dxNu6NhshK6MJeZfYYjBN3"], "asm": "OP_HASH160 5accc0cdb3aa6aff97058480c02f058dc9d031dd OP_EQUAL", "type": "scripthash"}, "value": 0.00861998, "n": 1}], "hex": "010000000204eb020ed7a19dbbd9d77b26af808bbbded413ffc51bc81c44d61481205c83b1000000006a473044022038a319e08ea7239fa376ae81c73fcfb0674a9d3d89f0f39ae048c4abdbdb4f2a0220150147a17f2457fc32626478183f816cda52f7e66b6eb1c7e1ba165a85977ae90121020115f0438d69d972b0e859c1eb14add35c898d33445de52a8108cbbf424bb819ffffffff779428a44e3db610571e6926058eaa082db018575272ecfae214d88e282b96d7000000006b483045022100f0e63698a5831d33704826cee92f332ee3842428e9ff32ff545b803100a56d63022072c35ffd3f4f2a2a1662ec1f1ced4066aad20fd503d2d481e1b7f7a1c0ddaf850121020f18b163941a64101f90df9b63a3eff6473ca532aa9e6388533bee2f95e327e5ffffffff02871f0000000000001976a914b4d70689224ed25b3a4e24f3a8e134f75dde293688ac2e270d000000000017a9145accc0cdb3aa6aff97058480c02f058dc9d031dd8700000000", "vin": [{"sequence": 4294967295, "scriptSig": {"hex": "473044022038a319e08ea7239fa376ae81c73fcfb0674a9d3d89f0f39ae048c4abdbdb4f2a0220150147a17f2457fc32626478183f816cda52f7e66b6eb1c7e1ba165a85977ae90121020115f0438d69d972b0e859c1eb14add35c898d33445de52a8108cbbf424bb819", "asm": "3044022038a319e08ea7239fa376ae81c73fcfb0674a9d3d89f0f39ae048c4abdbdb4f2a0220150147a17f2457fc32626478183f816cda52f7e66b6eb1c7e1ba165a85977ae9[ALL] 020115f0438d69d972b0e859c1eb14add35c898d33445de52a8108cbbf424bb819"}, "vout": 0, "txid": "b1835c208114d6441cc81bc5ff13d4debb8b80af267bd7d9bb9da1d70e02eb04"}, {"sequence": 4294967295, "scriptSig": {"hex": "483045022100f0e63698a5831d33704826cee92f332ee3842428e9ff32ff545b803100a56d63022072c35ffd3f4f2a2a1662ec1f1ced4066aad20fd503d2d481e1b7f7a1c0ddaf850121020f18b163941a64101f90df9b63a3eff6473ca532aa9e6388533bee2f95e327e5", "asm": "3045022100f0e63698a5831d33704826cee92f332ee3842428e9ff32ff545b803100a56d63022072c35ffd3f4f2a2a1662ec1f1ced4066aad20fd503d2d481e1b7f7a1c0ddaf85[ALL] 020f18b163941a64101f90df9b63a3eff6473ca532aa9e6388533bee2f95e327e5"}, "vout": 0, "txid": "d7962b288ed814e2faec72525718b02d08aa8e0526691e5710b63d4ea4289477"}], "txid": "4e5b0cd3137fa66cba783900e7aefe45e01789b830849e1d068d0662e99c7edf", "blocktime": 1537876114, "version": 1, "confirmations": 11460, "time": 1537876114, "locktime": 0, "vsize": 371, "size": 371}