{"hash": "4e5f19e9aeb74ddf414d9bddf4701d93db6d55bd256be742f47a8d7c6675fe00", "blockhash": "0000000000000000000e13cef7c366c0283d82e591d1acd082e914b08063cdf1", "vout": [{"scriptPubKey": {"reqSigs": 1, "hex": "76a914943a90af73ec505ea6ff381946d3b641598efb4f88ac", "addresses": ["1EWmAa71Rx7YDzoH1xWqCabvc2YtoWy4ju"], "asm": "OP_DUP OP_HASH160 943a90af73ec505ea6ff381946d3b641598efb4f OP_EQUALVERIFY OP_CHECKSIG", "type": "pubkeyhash"}, "value": 0.00811233, "n": 0}, {"scriptPubKey": {"reqSigs": 1, "hex": "a914d8b77c780d9cc650055ce585e2ff56b9ca3167db87", "addresses": ["3MSugpm8Xr5tcRjxQsx6hcfqiqttAs9YPd"], "asm": "OP_HASH160 d8b77c780d9cc650055ce585e2ff56b9ca3167db OP_EQUAL", "type": "scripthash"}, "value": 0.015582, "n": 1}], "hex": "010000000171d7fa8e7f8bab28fc885df00ee1e955b86ddd1accdf66ca36583f00ade2bf83010000006b4830450221009eda6dd890076669dac9e08ef2a35519250a057ff54e553ead4bcda969bb1cd002203b653725e1cb75035d2d9439c4cf6331480d73516575e7aca2c9dea0343c960b01210383c3fc15f1d3c860d1da82c35b235ce439bc6f52ef5e3125a8b6e187bc00d7bdffffffff02e1600c00000000001976a914943a90af73ec505ea6ff381946d3b641598efb4f88acb8c617000000000017a914d8b77c780d9cc650055ce585e2ff56b9ca3167db8700000000", "vin": [{"sequence": 4294967295, "scriptSig": {"hex": "4830450221009eda6dd890076669dac9e08ef2a35519250a057ff54e553ead4bcda969bb1cd002203b653725e1cb75035d2d9439c4cf6331480d73516575e7aca2c9dea0343c960b01210383c3fc15f1d3c860d1da82c35b235ce439bc6f52ef5e3125a8b6e187bc00d7bd", "asm": "30450221009eda6dd890076669dac9e08ef2a35519250a057ff54e553ead4bcda969bb1cd002203b653725e1cb75035d2d9439c4cf6331480d73516575e7aca2c9dea0343c960b[ALL] 0383c3fc15f1d3c860d1da82c35b235ce439bc6f52ef5e3125a8b6e187bc00d7bd"}, "vout": 1, "txid": "83bfe2ad003f5836ca66dfcc1add6db855e9e10ef05d88fc28ab8b7f8efad771"}], "txid": "4e5f19e9aeb74ddf414d9bddf4701d93db6d55bd256be742f47a8d7c6675fe00", "blocktime": 1537871767, "version": 1, "confirmations": 11495, "time": 1537871767, "locktime": 0, "vsize": 224, "size": 224}