{"hash": "4e61f02ae32b6d961ad58f4f30bd7ad6059d5c3386dcd4d5a5b54ef15980e145", "blockhash": "00000000000000000024a2167bbff67b0be802c0b01cdd79e6331c2be6459f87", "vout": [{"scriptPubKey": {"reqSigs": 1, "hex": "76a91483653b45316fa35bbd600897a1667d21b73bb7f088ac", "addresses": ["1CyknpXXdgZT8ZPVAEtoFKmXCKujDnU4Qo"], "asm": "OP_DUP OP_HASH160 83653b45316fa35bbd600897a1667d21b73bb7f0 OP_EQUALVERIFY OP_CHECKSIG", "type": "pubkeyhash"}, "value": 0.0148176, "n": 0}, {"scriptPubKey": {"type": "nulldata", "hex": "6a4c500000777b0001964f2c680e7d576e9683a0f5bcbefa6b8351586b4e86aeaeacb577c031fcdc9390c47f37d723e84212e59a02b5255baa09ec0614bb3b86f21dffbc9a9526289ac0f6612cd74e33776ee4", "asm": "OP_RETURN 0000777b0001964f2c680e7d576e9683a0f5bcbefa6b8351586b4e86aeaeacb577c031fcdc9390c47f37d723e84212e59a02b5255baa09ec0614bb3b86f21dffbc9a9526289ac0f6612cd74e33776ee4"}, "value": 0.0, "n": 1}], "hex": "01000000013928ef1cb63f93da4c114f848a770397c3dc62d3c6676dd5371d13fbd371684d010000006a47304402207c2a5c0c80002b2ed139cf189ce5076a5c6aaf49049efd844d0c8f0650d0909402205845e9625076c5e000d740bef5fe915d3b2985b2d99eb6f18dad4086106217f10121024ce3fcdc5e53ecdfbd493031c82c79485634c639571039b5891c7a796ff26fb5ffffffff02209c1600000000001976a91483653b45316fa35bbd600897a1667d21b73bb7f088ac0000000000000000536a4c500000777b0001964f2c680e7d576e9683a0f5bcbefa6b8351586b4e86aeaeacb577c031fcdc9390c47f37d723e84212e59a02b5255baa09ec0614bb3b86f21dffbc9a9526289ac0f6612cd74e33776ee400000000", "vin": [{"sequence": 4294967295, "scriptSig": {"hex": "47304402207c2a5c0c80002b2ed139cf189ce5076a5c6aaf49049efd844d0c8f0650d0909402205845e9625076c5e000d740bef5fe915d3b2985b2d99eb6f18dad4086106217f10121024ce3fcdc5e53ecdfbd493031c82c79485634c639571039b5891c7a796ff26fb5", "asm": "304402207c2a5c0c80002b2ed139cf189ce5076a5c6aaf49049efd844d0c8f0650d0909402205845e9625076c5e000d740bef5fe915d3b2985b2d99eb6f18dad4086106217f1[ALL] 024ce3fcdc5e53ecdfbd493031c82c79485634c639571039b5891c7a796ff26fb5"}, "vout": 1, "txid": "4d6871d3fb131d37d56d67c6d362dcc39703778a844f114cda933fb61cef2839"}], "txid": "4e61f02ae32b6d961ad58f4f30bd7ad6059d5c3386dcd4d5a5b54ef15980e145", "blocktime": 1537870564, "version": 1, "confirmations": 11515, "time": 1537870564, "locktime": 0, "vsize": 283, "size": 283}