{"hash": "36a4d719ae86f1a0e481b7c38d9f1ce33d45736ef86fea67d872f5f1b2b23fd5", "blockhash": "0000000000000000000e13cef7c366c0283d82e591d1acd082e914b08063cdf1", "vout": [{"scriptPubKey": {"reqSigs": 1, "hex": "76a9142e1b944fe7ffbe969fc1df8d662fd7b5d6303c9b88ac", "addresses": ["15Co856cRnFRCKwSSzECoyT3ozVhuFoJZ6"], "asm": "OP_DUP OP_HASH160 2e1b944fe7ffbe969fc1df8d662fd7b5d6303c9b OP_EQUALVERIFY OP_CHECKSIG", "type": "pubkeyhash"}, "value": 0.0030816, "n": 0}, {"scriptPubKey": {"reqSigs": 1, "hex": "a91428367e74662dbb5f3def8ae366b115701e4bd94587", "addresses": ["35MeEXLnm7GZv2yFYxxR9xmm1yhpD7NY2f"], "asm": "OP_HASH160 28367e74662dbb5f3def8ae366b115701e4bd945 OP_EQUAL", "type": "scripthash"}, "value": 0.0099951, "n": 1}], "hex": "020000000001021be7c78cbc809775dad694d899e49f3771af19a998f82846a7b9b89c8637818602000000171600148915e4e45f73bb5d408b3e88ad62f56571312c99feffffff717f87a34bca12cb1253721f1de22a0a93985a11afc7bd4c11a33a2e002a7d1f0000000017160014366f831dbc76a81354cc7ae79b6c8f8f0ee8e6a1feffffff02c0b30400000000001976a9142e1b944fe7ffbe969fc1df8d662fd7b5d6303c9b88ac56400f000000000017a91428367e74662dbb5f3def8ae366b115701e4bd945870247304402207556791c1e6bcae747cf68ca5443a897a559023f5be4fc6c432ad1e5fef052aa02205137b921f0529f1b2dce717e7efbc21ea6abdaa3780c570f345f05a6238d092b012102722447055c634e591fef0c35e8f117ebf781990902bc0b5a654362cabb16d3e902483045022100eb7f99289fbee1b75b5502ee5d1e497fd16f0996e1cbe8167ab0dedd0ae89d08022067e3265af510a61caf929e9cf332ef2ca3601a528a7c33baf946419194923b580121029d553f2c74e050eab6bd1132965383765962e71c00b0366f413cb6e0c5343be110490800", "vin": [{"txinwitness": ["304402207556791c1e6bcae747cf68ca5443a897a559023f5be4fc6c432ad1e5fef052aa02205137b921f0529f1b2dce717e7efbc21ea6abdaa3780c570f345f05a6238d092b01", "02722447055c634e591fef0c35e8f117ebf781990902bc0b5a654362cabb16d3e9"], "sequence": 4294967294, "scriptSig": {"hex": "1600148915e4e45f73bb5d408b3e88ad62f56571312c99", "asm": "00148915e4e45f73bb5d408b3e88ad62f56571312c99"}, "vout": 2, "txid": "868137869cb8b9a74628f898a919af71379fe499d894d6da759780bc8cc7e71b"}, {"txinwitness": ["3045022100eb7f99289fbee1b75b5502ee5d1e497fd16f0996e1cbe8167ab0dedd0ae89d08022067e3265af510a61caf929e9cf332ef2ca3601a528a7c33baf946419194923b5801", "029d553f2c74e050eab6bd1132965383765962e71c00b0366f413cb6e0c5343be1"], "sequence": 4294967294, "scriptSig": {"hex": "160014366f831dbc76a81354cc7ae79b6c8f8f0ee8e6a1", "asm": "0014366f831dbc76a81354cc7ae79b6c8f8f0ee8e6a1"}, "vout": 0, "txid": "1f7d2a002e3aa3114cbdc7af115a98930a2ae21d1f725312cb12ca4ba3877f71"}], "txid": "4e69e1e32dbe6b83b2ae18d61ebaea0f4beae44018c0a552119ab257dabd6b84", "blocktime": 1537871767, "version": 2, "confirmations": 11495, "time": 1537871767, "locktime": 542992, "vsize": 259, "size": 421}