{"hash": "b3034906b998acab33440b9b84d929ca658e1e02e35d42946ab5fc57eb2ec4f4", "blockhash": "00000000000000000018f53835495a110e01622372bf6ae95dc86f2b0ab887b0", "vout": [{"scriptPubKey": {"reqSigs": 1, "hex": "001484d5a7c3665113e070308eeb6d882f8a379a198d", "addresses": ["bc1qsn260smx2yf7qups3m4kmzp03gme5xvd6xj30l"], "asm": "0 84d5a7c3665113e070308eeb6d882f8a379a198d", "type": "witness_v0_keyhash"}, "value": 0.00012514, "n": 0}, {"scriptPubKey": {"reqSigs": 1, "hex": "76a91493e0f81e4dd6c5cd3c34ab22d1b168ab05bc209288ac", "addresses": ["1EUuqLNWqBsHfJZ85Nu6e2RVkCET5Y1zgD"], "asm": "OP_DUP OP_HASH160 93e0f81e4dd6c5cd3c34ab22d1b168ab05bc2092 OP_EQUALVERIFY OP_CHECKSIG", "type": "pubkeyhash"}, "value": 0.00399867, "n": 1}], "hex": "01000000000101271e4d506a02c02f1e5eb2442a16300abf1db3519b4dda981674f895240ac09c0300000017160014a129f10c9ceac867f9b33cbde513b26c0c81143fffffffff02e23000000000000016001484d5a7c3665113e070308eeb6d882f8a379a198dfb190600000000001976a91493e0f81e4dd6c5cd3c34ab22d1b168ab05bc209288ac0248304502210099cd8b63c64561937ca4bf75f7c081f7bbfa4dcc70c2ef93c6d4a1884dfa4aa002202887bd4f30871113de63ba363ba01612034c949b3041d74c2af61518a091b7eb0121036dc0e3e65aec1e1636e80f838b93f75bfb4c10f80aa6c147729f1470d1aa84cf00000000", "vin": [{"txinwitness": ["304502210099cd8b63c64561937ca4bf75f7c081f7bbfa4dcc70c2ef93c6d4a1884dfa4aa002202887bd4f30871113de63ba363ba01612034c949b3041d74c2af61518a091b7eb01", "036dc0e3e65aec1e1636e80f838b93f75bfb4c10f80aa6c147729f1470d1aa84cf"], "sequence": 4294967295, "scriptSig": {"hex": "160014a129f10c9ceac867f9b33cbde513b26c0c81143f", "asm": "0014a129f10c9ceac867f9b33cbde513b26c0c81143f"}, "vout": 3, "txid": "9cc00a2495f8741698da4d9b51b31dbf0a30162a44b25e1e2fc0026a504d1e27"}], "txid": "4e6bc90ce31e0929a5dc7114c435ecd9e70f13df5c9b29b2225351e0a8073582", "blocktime": 1537870928, "version": 1, "confirmations": 11514, "time": 1537870928, "locktime": 0, "vsize": 167, "size": 249}