{"hash": "4e6ea94055383d9fb6717f82d0368773b9ad3c093a58c8950036808d51ecc8b0", "blockhash": "0000000000000000000baef3f32e3676a92c3b2e5da21b426e4f302fc371ce76", "vout": [{"scriptPubKey": {"reqSigs": 1, "hex": "76a91406f7f674f6c6f3aeb1cb9eef41d34d41d1d7dce788ac", "addresses": ["1dr6uNZyFtrPMBFvamMbT5oCEwvPNEfMo"], "asm": "OP_DUP OP_HASH160 06f7f674f6c6f3aeb1cb9eef41d34d41d1d7dce7 OP_EQUALVERIFY OP_CHECKSIG", "type": "pubkeyhash"}, "value": 0.05037746, "n": 0}, {"scriptPubKey": {"reqSigs": 1, "hex": "a9141e487931fb59b740020e898f3c5e4b795505d42287", "addresses": ["34T91qgKa2vzJE1UWTmQpTR1P4b3mdWfKJ"], "asm": "OP_HASH160 1e487931fb59b740020e898f3c5e4b795505d422 OP_EQUAL", "type": "scripthash"}, "value": 0.06004475, "n": 1}], "hex": "010000000160e710fa9f9e9c0ce00ffdb8a37df1d336fe940b7c3f1645a18f024e68f51b7d00000000fdfe0000483045022100d57618ff7ece71dee244eebddb016c6bdc53d6edc8b73e2e08bcd5460290f14302204048bde2dc28743e28d3477f55d7ff290b2bec6680b7d215f45c713b1a18eb51014830450221008d48c11e83a07b8327519c2ce4d93da38a38b5252e24f943346da136a486baac022060d760c9588b4da4dac125f8c33e7a1ad1022b4fff16bd6d4d3321ea505e4c45014c69522102b9b532335e013cd541018f68abf5aebea6f3860c6814bd2a3518f6a40e10f0352102fdbf45ab8cc9d9d0f26dd478808c9edab73081beef6e81f3f7ea52dc0a088b2721035cb698f856560d6d6303ee80b5e84047de3413d46ed23486bbe208149cd5d6d353aeffffffff02b2de4c00000000001976a91406f7f674f6c6f3aeb1cb9eef41d34d41d1d7dce788acfb9e5b000000000017a9141e487931fb59b740020e898f3c5e4b795505d4228700000000", "vin": [{"sequence": 4294967295, "scriptSig": {"hex": "00483045022100d57618ff7ece71dee244eebddb016c6bdc53d6edc8b73e2e08bcd5460290f14302204048bde2dc28743e28d3477f55d7ff290b2bec6680b7d215f45c713b1a18eb51014830450221008d48c11e83a07b8327519c2ce4d93da38a38b5252e24f943346da136a486baac022060d760c9588b4da4dac125f8c33e7a1ad1022b4fff16bd6d4d3321ea505e4c45014c69522102b9b532335e013cd541018f68abf5aebea6f3860c6814bd2a3518f6a40e10f0352102fdbf45ab8cc9d9d0f26dd478808c9edab73081beef6e81f3f7ea52dc0a088b2721035cb698f856560d6d6303ee80b5e84047de3413d46ed23486bbe208149cd5d6d353ae", "asm": "0 3045022100d57618ff7ece71dee244eebddb016c6bdc53d6edc8b73e2e08bcd5460290f14302204048bde2dc28743e28d3477f55d7ff290b2bec6680b7d215f45c713b1a18eb51[ALL] 30450221008d48c11e83a07b8327519c2ce4d93da38a38b5252e24f943346da136a486baac022060d760c9588b4da4dac125f8c33e7a1ad1022b4fff16bd6d4d3321ea505e4c45[ALL] 522102b9b532335e013cd541018f68abf5aebea6f3860c6814bd2a3518f6a40e10f0352102fdbf45ab8cc9d9d0f26dd478808c9edab73081beef6e81f3f7ea52dc0a088b2721035cb698f856560d6d6303ee80b5e84047de3413d46ed23486bbe208149cd5d6d353ae"}, "vout": 0, "txid": "7d1bf5684e028fa145163f7c0b94fe36d3f17da3b8fd0fe00c9c9e9ffa10e760"}], "txid": "4e6ea94055383d9fb6717f82d0368773b9ad3c093a58c8950036808d51ecc8b0", "blocktime": 1537876114, "version": 1, "confirmations": 11460, "time": 1537876114, "locktime": 0, "vsize": 373, "size": 373}