{"hash": "f286902030f8a1ee7ebe0ef1e6b8428ca6e8fa962b697608c651507fa9b96ccc", "blockhash": "0000000000000000001e0dab787dd257d1dbfcb92a98c2207d5e1078be1f4165", "vout": [{"scriptPubKey": {"reqSigs": 1, "hex": "76a9144ba59c59275b15629f968610b29328b100b3b15188ac", "addresses": ["17tz5DvrEHCBYsNnA6aWWN6Gzy2T2oWRHX"], "asm": "OP_DUP OP_HASH160 4ba59c59275b15629f968610b29328b100b3b151 OP_EQUALVERIFY OP_CHECKSIG", "type": "pubkeyhash"}, "value": 0.00116, "n": 0}, {"scriptPubKey": {"reqSigs": 1, "hex": "a9149649ad6d2730bb28020a268d9d80df10a9f74ad487", "addresses": ["3FPfYWwfMfKMGY7fuPHvz2b73RhTNGzsm3"], "asm": "OP_HASH160 9649ad6d2730bb28020a268d9d80df10a9f74ad4 OP_EQUAL", "type": "scripthash"}, "value": 13.87340572, "n": 1}], "hex": "01000000000101819b76940e92de63c4393ad6f8c7c6e8a4990840a86d475d0fe57c19631dde4f01000000232200207768efcc1e5eb3d28410fac3f45831004c860cc24cddd940a616b34324823fceffffffff0220c50100000000001976a9144ba59c59275b15629f968610b29328b100b3b15188ac1c23b1520000000017a9149649ad6d2730bb28020a268d9d80df10a9f74ad4870400483045022100bd154dd360a3ab4d7f23d4acb0db43ffb95bf19baecd9706c5ecd8674e209f5702203280e0222b65dbb8d7efa3155a7340d2d655771023a197abf0a95a27530a3fb901483045022100f0ae17dda98c4bcbc910e71e640c6c2adc2f1cbf5509ae393505da42dcc1df57022069e062d05ae50b0be90b2664a6e54cb0f068c494cbe7841e75ea765dc4d5b2210147522102529d5d1f6733ab45d9d50e07db42c7f6b967ae321c38b726c2247f149959b8262103d0c936a5988dd8421c63240496b723b0ec42400c38b9350e32c2eb4f47d8796952ae00000000", "vin": [{"txinwitness": ["", "3045022100bd154dd360a3ab4d7f23d4acb0db43ffb95bf19baecd9706c5ecd8674e209f5702203280e0222b65dbb8d7efa3155a7340d2d655771023a197abf0a95a27530a3fb901", "3045022100f0ae17dda98c4bcbc910e71e640c6c2adc2f1cbf5509ae393505da42dcc1df57022069e062d05ae50b0be90b2664a6e54cb0f068c494cbe7841e75ea765dc4d5b22101", "522102529d5d1f6733ab45d9d50e07db42c7f6b967ae321c38b726c2247f149959b8262103d0c936a5988dd8421c63240496b723b0ec42400c38b9350e32c2eb4f47d8796952ae"], "sequence": 4294967295, "scriptSig": {"hex": "2200207768efcc1e5eb3d28410fac3f45831004c860cc24cddd940a616b34324823fce", "asm": "00207768efcc1e5eb3d28410fac3f45831004c860cc24cddd940a616b34324823fce"}, "vout": 1, "txid": "4fde1d63197ce50f5d476da8400899a4e8c6c7f8d63a39c463de920e94769b81"}], "txid": "4e747271f919fadf118d6c5f335abf9a6c2e798e7f81b61668f761044cc8dcd1", "blocktime": 1537872475, "version": 1, "confirmations": 11487, "time": 1537872475, "locktime": 0, "vsize": 208, "size": 374}