{"hash": "4e792de9ec227e2cfaf70a234f555b94367fbcb7fdc2295e7b8f1e4c6e31cf49", "blockhash": "00000000000000000018f53835495a110e01622372bf6ae95dc86f2b0ab887b0", "vout": [{"scriptPubKey": {"reqSigs": 1, "hex": "a91429d2e1dbf0da4773d8e558af9713ea583563504387", "addresses": ["35WAFmLaYmXfDuoGg2357bX9zCjJdHW3A6"], "asm": "OP_HASH160 29d2e1dbf0da4773d8e558af9713ea5835635043 OP_EQUAL", "type": "scripthash"}, "value": 0.0299356, "n": 0}, {"scriptPubKey": {"reqSigs": 1, "hex": "a914d779d22cfddb8ddd2a588d0d8475d0e70705e69887", "addresses": ["3MLM94MheRXH167geZNPFTi13i2ir73hqV"], "asm": "OP_HASH160 d779d22cfddb8ddd2a588d0d8475d0e70705e698 OP_EQUAL", "type": "scripthash"}, "value": 0.14935568, "n": 1}], "hex": "010000000199b89c9371f141dc7ff0677d4358c051b1ac7677e032dee470c9a9d76cf7fb0903000000fdfd0000473044022061647c0928c6f5af2c7afbd252aa3ffd95f534cd24bfab13d8e1324c3327999d02203f94a6340563a1580d919edd9aa229e88254484385bd897efb9e4926cedc5d1901483045022100ab5e977a22f7cde920644d7125715f4738db6ad9a612b86c69663c934c24077102207db97237c1ca447137a02e970a142773b441a9a1133c50244aad1118f704c3ba014c6952210345ca7bde83ad33b9e6a86d6d2a99696cac5674d6e35698e8a1bafda5c29044ff210209bcfda43e993dcfd57f31152f1b42b4cdb39d7d32544ce917e774f6a298affd2103f871d1a3d78d00769c35a1b0a3d54e1c7a99d30c9faee92a76ab2521f08fb0b053aeffffffff0298ad2d000000000017a91429d2e1dbf0da4773d8e558af9713ea58356350438710e6e3000000000017a914d779d22cfddb8ddd2a588d0d8475d0e70705e6988700000000", "vin": [{"sequence": 4294967295, "scriptSig": {"hex": "00473044022061647c0928c6f5af2c7afbd252aa3ffd95f534cd24bfab13d8e1324c3327999d02203f94a6340563a1580d919edd9aa229e88254484385bd897efb9e4926cedc5d1901483045022100ab5e977a22f7cde920644d7125715f4738db6ad9a612b86c69663c934c24077102207db97237c1ca447137a02e970a142773b441a9a1133c50244aad1118f704c3ba014c6952210345ca7bde83ad33b9e6a86d6d2a99696cac5674d6e35698e8a1bafda5c29044ff210209bcfda43e993dcfd57f31152f1b42b4cdb39d7d32544ce917e774f6a298affd2103f871d1a3d78d00769c35a1b0a3d54e1c7a99d30c9faee92a76ab2521f08fb0b053ae", "asm": "0 3044022061647c0928c6f5af2c7afbd252aa3ffd95f534cd24bfab13d8e1324c3327999d02203f94a6340563a1580d919edd9aa229e88254484385bd897efb9e4926cedc5d19[ALL] 3045022100ab5e977a22f7cde920644d7125715f4738db6ad9a612b86c69663c934c24077102207db97237c1ca447137a02e970a142773b441a9a1133c50244aad1118f704c3ba[ALL] 52210345ca7bde83ad33b9e6a86d6d2a99696cac5674d6e35698e8a1bafda5c29044ff210209bcfda43e993dcfd57f31152f1b42b4cdb39d7d32544ce917e774f6a298affd2103f871d1a3d78d00769c35a1b0a3d54e1c7a99d30c9faee92a76ab2521f08fb0b053ae"}, "vout": 3, "txid": "09fbf76cd7a9c970e4de32e07776acb151c058437d67f07fdc41f171939cb899"}], "txid": "4e792de9ec227e2cfaf70a234f555b94367fbcb7fdc2295e7b8f1e4c6e31cf49", "blocktime": 1537870928, "version": 1, "confirmations": 11514, "time": 1537870928, "locktime": 0, "vsize": 370, "size": 370}