{"hash": "4e7bed652399cf2f466b11f192af04e3a0852345ed9270360ae7c910f0f8b0fc", "blockhash": "0000000000000000000dcc0f55137456b1a82d3642486a52398922ac4d620174", "vout": [{"scriptPubKey": {"reqSigs": 1, "hex": "76a91415e945b6c9ef73c771a7943d9e90221c28ee8a5688ac", "addresses": ["12zre5FwGEZqmmFTeNEifakkoLA6dCSdnh"], "asm": "OP_DUP OP_HASH160 15e945b6c9ef73c771a7943d9e90221c28ee8a56 OP_EQUALVERIFY OP_CHECKSIG", "type": "pubkeyhash"}, "value": 0.014689, "n": 0}, {"scriptPubKey": {"reqSigs": 1, "hex": "76a914b1d4a869945857bf9ff35610a9e55814716a04f588ac", "addresses": ["1HDHMgWZyZzQRc9jRa1oLT2EKDwp3ggCc4"], "asm": "OP_DUP OP_HASH160 b1d4a869945857bf9ff35610a9e55814716a04f5 OP_EQUALVERIFY OP_CHECKSIG", "type": "pubkeyhash"}, "value": 0.00312486, "n": 1}], "hex": "01000000017b94d17f0c3b0eb73e051bef68771064fd95191d101a7a60f2a6d83952931765000000006a47304402202c62804028eef9883909d0577edd8f7e2228978b3e87e4338dadd1d9e07da68802201c244ceebd9f15778a28fa1bb774b6866d21c7760f411892479d48a3e78bcd87012103e8712837a625c2cf90ecdacd6b089af5e67d8af441fec93c52587372555cb142ffffffff02e4691600000000001976a91415e945b6c9ef73c771a7943d9e90221c28ee8a5688aca6c40400000000001976a914b1d4a869945857bf9ff35610a9e55814716a04f588ac00000000", "vin": [{"sequence": 4294967295, "scriptSig": {"hex": "47304402202c62804028eef9883909d0577edd8f7e2228978b3e87e4338dadd1d9e07da68802201c244ceebd9f15778a28fa1bb774b6866d21c7760f411892479d48a3e78bcd87012103e8712837a625c2cf90ecdacd6b089af5e67d8af441fec93c52587372555cb142", "asm": "304402202c62804028eef9883909d0577edd8f7e2228978b3e87e4338dadd1d9e07da68802201c244ceebd9f15778a28fa1bb774b6866d21c7760f411892479d48a3e78bcd87[ALL] 03e8712837a625c2cf90ecdacd6b089af5e67d8af441fec93c52587372555cb142"}, "vout": 0, "txid": "6517935239d8a6f2607a1a101d1995fd64107768ef1b053eb70e3b0c7fd1947b"}], "txid": "4e7bed652399cf2f466b11f192af04e3a0852345ed9270360ae7c910f0f8b0fc", "blocktime": 1537870268, "version": 1, "confirmations": 11518, "time": 1537870268, "locktime": 0, "vsize": 225, "size": 225}