{"hash": "4e7f758de98a24949c4d43ca135a47a8549e4e2493d03270896f2ca1e3a15087", "blockhash": "00000000000000000018f53835495a110e01622372bf6ae95dc86f2b0ab887b0", "vout": [{"scriptPubKey": {"reqSigs": 1, "hex": "76a91486080360f7ab985d8592ec2808b0fea5d107c35688ac", "addresses": ["1DDh9UP1LNg9mKof3iKEJqdHTvGuccaXp6"], "asm": "OP_DUP OP_HASH160 86080360f7ab985d8592ec2808b0fea5d107c356 OP_EQUALVERIFY OP_CHECKSIG", "type": "pubkeyhash"}, "value": 0.01648664, "n": 0}], "hex": "0200000001c792753034cebf2a972cb87713b998f7b70933169f51f6a84d05b1825cfca2e1000000006b483045022100ffa066407392f962dddaf08591300c27da1338b43a6e44c14091a7ab201cfc7002202e628826f64bb6f6425c15872eef984dc29dd1681f7eb945869e5f31c9158e2f01210232a18322a862d9bc69becda2523b474f3780af0fa08ac23dc031cb573527e5e3ffffffff0118281900000000001976a91486080360f7ab985d8592ec2808b0fea5d107c35688ac00000000", "vin": [{"sequence": 4294967295, "scriptSig": {"hex": "483045022100ffa066407392f962dddaf08591300c27da1338b43a6e44c14091a7ab201cfc7002202e628826f64bb6f6425c15872eef984dc29dd1681f7eb945869e5f31c9158e2f01210232a18322a862d9bc69becda2523b474f3780af0fa08ac23dc031cb573527e5e3", "asm": "3045022100ffa066407392f962dddaf08591300c27da1338b43a6e44c14091a7ab201cfc7002202e628826f64bb6f6425c15872eef984dc29dd1681f7eb945869e5f31c9158e2f[ALL] 0232a18322a862d9bc69becda2523b474f3780af0fa08ac23dc031cb573527e5e3"}, "vout": 0, "txid": "e1a2fc5c82b1054da8f6519f163309b7f798b91377b82c972abfce34307592c7"}], "txid": "4e7f758de98a24949c4d43ca135a47a8549e4e2493d03270896f2ca1e3a15087", "blocktime": 1537870928, "version": 2, "confirmations": 11514, "time": 1537870928, "locktime": 0, "vsize": 192, "size": 192}