{"hash": "4e84bdb72d55bc402172e8fbf0f00de6050863b4570adf786ddc923c65232940", "blockhash": "00000000000000000017f5eb5941039fbcee6240d03bc1f2f8e35350df66a1d8", "vout": [{"scriptPubKey": {"reqSigs": 1, "hex": "76a914e1ea8fd24b9f46ed0082e4247872bb6c420101ab88ac", "addresses": ["1MbY2oVbyF686UdHUQJJY5zaSqQgvXFRgF"], "asm": "OP_DUP OP_HASH160 e1ea8fd24b9f46ed0082e4247872bb6c420101ab OP_EQUALVERIFY OP_CHECKSIG", "type": "pubkeyhash"}, "value": 0.01384924, "n": 0}, {"scriptPubKey": {"type": "nulldata", "hex": "6a4c50000077f9000173c6785583fdcd5810d7b003d19ed074892d00f8e87af8e8e963c7cfd5b91c6ec5b79404a56ae471711b4400952f5baa18ec061413bf410ec9ccbc9a9526289ac0f6612cd74e33776ee4", "asm": "OP_RETURN 000077f9000173c6785583fdcd5810d7b003d19ed074892d00f8e87af8e8e963c7cfd5b91c6ec5b79404a56ae471711b4400952f5baa18ec061413bf410ec9ccbc9a9526289ac0f6612cd74e33776ee4"}, "value": 0.0, "n": 1}], "hex": "01000000018c50cde2c6d1f2b02273418b3f7c75a9b463864e59bdf6200f40867d2cc8cdd5000000006b483045022100e44ec7be96d712395f79628592b7528620318a6df751e352ab89eaa380889ba302200f8a9c1c13adb0eaeac6ef3a39a556666d07f5e6b9f4e2d7d7a718b31cda8b93012103518bcb15ddee72f1976fbfc99f93b5fc18d47bfc66c77a0484e5861ada462fd8ffffffff02dc211500000000001976a914e1ea8fd24b9f46ed0082e4247872bb6c420101ab88ac0000000000000000536a4c50000077f9000173c6785583fdcd5810d7b003d19ed074892d00f8e87af8e8e963c7cfd5b91c6ec5b79404a56ae471711b4400952f5baa18ec061413bf410ec9ccbc9a9526289ac0f6612cd74e33776ee400000000", "vin": [{"sequence": 4294967295, "scriptSig": {"hex": "483045022100e44ec7be96d712395f79628592b7528620318a6df751e352ab89eaa380889ba302200f8a9c1c13adb0eaeac6ef3a39a556666d07f5e6b9f4e2d7d7a718b31cda8b93012103518bcb15ddee72f1976fbfc99f93b5fc18d47bfc66c77a0484e5861ada462fd8", "asm": "3045022100e44ec7be96d712395f79628592b7528620318a6df751e352ab89eaa380889ba302200f8a9c1c13adb0eaeac6ef3a39a556666d07f5e6b9f4e2d7d7a718b31cda8b93[ALL] 03518bcb15ddee72f1976fbfc99f93b5fc18d47bfc66c77a0484e5861ada462fd8"}, "vout": 0, "txid": "d5cdc82c7d86400f20f6bd594e8663b4a9757c3f8b417322b0f2d1c6e2cd508c"}], "txid": "4e84bdb72d55bc402172e8fbf0f00de6050863b4570adf786ddc923c65232940", "blocktime": 1537874412, "version": 1, "confirmations": 11467, "time": 1537874412, "locktime": 0, "vsize": 284, "size": 284}