{"hash": "4e8c04218019d3a0b512f100e6d7edbc2c8f9f43a4009f1291d5cb05d3278bf2", "blockhash": "000000000000000000022b45ed06c6f4ccd3cf7fb5ba4856ebd2e58215665228", "vout": [{"scriptPubKey": {"reqSigs": 1, "hex": "a91469f376b9317444fadb8d77ed148595b258b033ba87", "addresses": ["3BMEXqx77RZRyBsJoxF5PV8CmsHacSkaWH"], "asm": "OP_HASH160 69f376b9317444fadb8d77ed148595b258b033ba OP_EQUAL", "type": "scripthash"}, "value": 0.01391004, "n": 0}, {"scriptPubKey": {"reqSigs": 1, "hex": "76a914d6a150e3e42e8a502957e9e6668019591ded287788ac", "addresses": ["1LZrrUyW1cUpcokuqsT4vhxKneYpTRG6FE"], "asm": "OP_DUP OP_HASH160 d6a150e3e42e8a502957e9e6668019591ded2877 OP_EQUALVERIFY OP_CHECKSIG", "type": "pubkeyhash"}, "value": 8.791e-05, "n": 1}], "hex": "0100000002a9dc24cfa40157547a1fc3fdd911ba9896117b5903466cce81522b3e705e2952000000006b483045022100adea1b08fc49805fd34b00756bfd3c801bc7aefb565e9b1659112802869d6af602200edb7829b122435a3fb214488d5c4b6af881c9b77d91dcef4fc36fc3fe208d800121024825a696c0fd31c8a3b2570b5130114ec9a3fdc6da73981e5997569384c1b167ffffffff8ae3b77bc2795bc8bce2d501b1894a9745efc3ca356ad11c462a7edd94646c88020000006b483045022100879bf654ecfb422fabd3a62666d54b85e9d93c2db4b60f41ea704b959bfcb4b902201654993b00a2cdcc99cdda9c8a05eceb1f5e71644017369573eee4bb5e17551d012103620023c69ff6cd92219737e170d49b8f15fd214ac1a4ba7012886de28325f891ffffffff029c3915000000000017a91469f376b9317444fadb8d77ed148595b258b033ba8757220000000000001976a914d6a150e3e42e8a502957e9e6668019591ded287788ac00000000", "vin": [{"sequence": 4294967295, "scriptSig": {"hex": "483045022100adea1b08fc49805fd34b00756bfd3c801bc7aefb565e9b1659112802869d6af602200edb7829b122435a3fb214488d5c4b6af881c9b77d91dcef4fc36fc3fe208d800121024825a696c0fd31c8a3b2570b5130114ec9a3fdc6da73981e5997569384c1b167", "asm": "3045022100adea1b08fc49805fd34b00756bfd3c801bc7aefb565e9b1659112802869d6af602200edb7829b122435a3fb214488d5c4b6af881c9b77d91dcef4fc36fc3fe208d80[ALL] 024825a696c0fd31c8a3b2570b5130114ec9a3fdc6da73981e5997569384c1b167"}, "vout": 0, "txid": "52295e703e2b5281ce6c4603597b119698ba11d9fdc31f7a545701a4cf24dca9"}, {"sequence": 4294967295, "scriptSig": {"hex": "483045022100879bf654ecfb422fabd3a62666d54b85e9d93c2db4b60f41ea704b959bfcb4b902201654993b00a2cdcc99cdda9c8a05eceb1f5e71644017369573eee4bb5e17551d012103620023c69ff6cd92219737e170d49b8f15fd214ac1a4ba7012886de28325f891", "asm": "3045022100879bf654ecfb422fabd3a62666d54b85e9d93c2db4b60f41ea704b959bfcb4b902201654993b00a2cdcc99cdda9c8a05eceb1f5e71644017369573eee4bb5e17551d[ALL] 03620023c69ff6cd92219737e170d49b8f15fd214ac1a4ba7012886de28325f891"}, "vout": 2, "txid": "886c6494dd7e2a461cd16a35cac3ef45974a89b101d5e2bcc85b79c27bb7e38a"}], "txid": "4e8c04218019d3a0b512f100e6d7edbc2c8f9f43a4009f1291d5cb05d3278bf2", "blocktime": 1537869901, "version": 1, "confirmations": 11523, "time": 1537869901, "locktime": 0, "vsize": 372, "size": 372}