{"hash": "e785edd13a1a5e609e295b50bb071b6f4f888470ff4d6b17d65e6a3c060483cf", "blockhash": "0000000000000000000e13cef7c366c0283d82e591d1acd082e914b08063cdf1", "vout": [{"scriptPubKey": {"reqSigs": 1, "hex": "76a914c2c9578362eeb01c150a5758985613a83f8bf28688ac", "addresses": ["1JkwHh8rfCteZWwxLW62dg675mrCdnFBDk"], "asm": "OP_DUP OP_HASH160 c2c9578362eeb01c150a5758985613a83f8bf286 OP_EQUALVERIFY OP_CHECKSIG", "type": "pubkeyhash"}, "value": 0.00234696, "n": 0}, {"scriptPubKey": {"reqSigs": 1, "hex": "0014a36d6a411cbe9ffacd1fe983323b12ba1548cb0a", "addresses": ["bc1q5dkk5sguh60l4nglaxpnywcjhg253jc2lvuqzf"], "asm": "0 a36d6a411cbe9ffacd1fe983323b12ba1548cb0a", "type": "witness_v0_keyhash"}, "value": 5.716e-05, "n": 1}], "hex": "01000000000101b2018b59eb20d72e23585f7e8ba204ccedfca89be3ebd619bda2bb5a4fd1553c3100000017160014cb455ec712845d59a21e6ac6e96c352a55391b8affffffff02c8940300000000001976a914c2c9578362eeb01c150a5758985613a83f8bf28688ac5416000000000000160014a36d6a411cbe9ffacd1fe983323b12ba1548cb0a0248304502210088147e54262674e56e81fb77c5e0f08e70c0a1a725bbdc51f7e639dfbda1c0e4022044da3f77e250386f9856affdc133d8ff4dff0da89d3f08ec2fc25ad288dcd84a012103992fb8cc0cac0ff69f0b66ca19f54ecfc08cf196eee0b218fe3c57039a3d91d300000000", "vin": [{"txinwitness": ["304502210088147e54262674e56e81fb77c5e0f08e70c0a1a725bbdc51f7e639dfbda1c0e4022044da3f77e250386f9856affdc133d8ff4dff0da89d3f08ec2fc25ad288dcd84a01", "03992fb8cc0cac0ff69f0b66ca19f54ecfc08cf196eee0b218fe3c57039a3d91d3"], "sequence": 4294967295, "scriptSig": {"hex": "160014cb455ec712845d59a21e6ac6e96c352a55391b8a", "asm": "0014cb455ec712845d59a21e6ac6e96c352a55391b8a"}, "vout": 49, "txid": "3c55d14f5abba2bd19d6ebe39ba8fcedcc04a28b7e5f58232ed720eb598b01b2"}], "txid": "4e9fe3b8da5b2892003bc7dc7c3836a0bb080bfba5b76e10f262f092c3f6633b", "blocktime": 1537871767, "version": 1, "confirmations": 11495, "time": 1537871767, "locktime": 0, "vsize": 167, "size": 249}