{"hash": "f164636ad3b59158acd0d4705076c1fd4e7643dae73992257d1ef47cb2d94410", "blockhash": "000000000000000000022b45ed06c6f4ccd3cf7fb5ba4856ebd2e58215665228", "vout": [{"scriptPubKey": {"reqSigs": 1, "hex": "a914cfaabfe8c271f99a4364b5197ba50c6cddb7adb987", "addresses": ["3Ld4M9RPwEG3VeQbHcC1PsKUndQL7VYLZP"], "asm": "OP_HASH160 cfaabfe8c271f99a4364b5197ba50c6cddb7adb9 OP_EQUAL", "type": "scripthash"}, "value": 0.46810635, "n": 0}, {"scriptPubKey": {"reqSigs": 1, "hex": "a914a70e56128e8fe9279ada75d9f4f29cf7e1234dcd87", "addresses": ["3GvKwgFPZWjdKTnDH7VPAGQjp7KSbzTCtz"], "asm": "OP_HASH160 a70e56128e8fe9279ada75d9f4f29cf7e1234dcd OP_EQUAL", "type": "scripthash"}, "value": 1.32422796, "n": 1}], "hex": "01000000000102946d194c14c6d6cbb949216479ae8e762bf7b3b13706cc92b90db66c4e64f6e401000000232200208086c84c3f118c3a4ec9f365667bdf265ef81cbcb1a249cc86f04b2e93889585ffffffff5d46f2eb8fbe3f2ae54d26cc6a803b9ea9fddec7e8056938ad47dd6ead5c889001000000232200206f2d33620b9da7e58350763ca7b63c2c0b69a28b7575bec2edb152690f2ae12cffffffff020b46ca020000000017a914cfaabfe8c271f99a4364b5197ba50c6cddb7adb9878c9ce4070000000017a914a70e56128e8fe9279ada75d9f4f29cf7e1234dcd8704004830450221008ed35160ca08463ddb5903cba69070c554cf50369689d6418ab0f413cb26059202207c4d01554fb04c176617c5ef25a507a6b0c2ce5141f37a18de89ef7f32c5262d01483045022100941e06dd22d538d74461a07b9a86ffb658965b0df20e6d53c20c37374de5dd1802201de3feb9c6325f5400b9a3fa1ba34779a13ba336761d391b659a1c3e6d06bd8701475221025e9ae9b3d82faa5a354b18613a8098a1e728944a20dc3772c299003e4590a96e21033e4af03ed09dbd8a417ba042650d5bd1db7f14f271a8f660974e3abf1fdfa4da52ae040048304502210084c93c7a6c926c6a4211f593ab5d14b01b4361587e01bb8405e3c0df0752e36102207e01566caf0ca45990f3529618c6dc50df311fad50d1ad46346a176e26b738a50147304402200f32f86efed21ce0931881675d1b459f6313ac14f5ea3c6208f457a350b612d5022017151a6f1503c8304426d95f6a7fbd15bd2c107a93ad43605c4fe29c74bf3b5401475221038866f853c6dbe383ea9caf52fe468c9ecb1877ddddf554b268b2405739198f6221033e4af03ed09dbd8a417ba042650d5bd1db7f14f271a8f660974e3abf1fdfa4da52ae00000000", "vin": [{"txinwitness": ["", "30450221008ed35160ca08463ddb5903cba69070c554cf50369689d6418ab0f413cb26059202207c4d01554fb04c176617c5ef25a507a6b0c2ce5141f37a18de89ef7f32c5262d01", "3045022100941e06dd22d538d74461a07b9a86ffb658965b0df20e6d53c20c37374de5dd1802201de3feb9c6325f5400b9a3fa1ba34779a13ba336761d391b659a1c3e6d06bd8701", "5221025e9ae9b3d82faa5a354b18613a8098a1e728944a20dc3772c299003e4590a96e21033e4af03ed09dbd8a417ba042650d5bd1db7f14f271a8f660974e3abf1fdfa4da52ae"], "sequence": 4294967295, "scriptSig": {"hex": "2200208086c84c3f118c3a4ec9f365667bdf265ef81cbcb1a249cc86f04b2e93889585", "asm": "00208086c84c3f118c3a4ec9f365667bdf265ef81cbcb1a249cc86f04b2e93889585"}, "vout": 1, "txid": "e4f6644e6cb60db992cc0637b1b3f72b768eae79642149b9cbd6c6144c196d94"}, {"txinwitness": ["", "304502210084c93c7a6c926c6a4211f593ab5d14b01b4361587e01bb8405e3c0df0752e36102207e01566caf0ca45990f3529618c6dc50df311fad50d1ad46346a176e26b738a501", "304402200f32f86efed21ce0931881675d1b459f6313ac14f5ea3c6208f457a350b612d5022017151a6f1503c8304426d95f6a7fbd15bd2c107a93ad43605c4fe29c74bf3b5401", "5221038866f853c6dbe383ea9caf52fe468c9ecb1877ddddf554b268b2405739198f6221033e4af03ed09dbd8a417ba042650d5bd1db7f14f271a8f660974e3abf1fdfa4da52ae"], "sequence": 4294967295, "scriptSig": {"hex": "2200206f2d33620b9da7e58350763ca7b63c2c0b69a28b7575bec2edb152690f2ae12c", "asm": "00206f2d33620b9da7e58350763ca7b63c2c0b69a28b7575bec2edb152690f2ae12c"}, "vout": 1, "txid": "90885cad6edd47ad386905e8c7defda99e3b806acc264de52a3fbe8febf2465d"}], "txid": "4ea2c85b2f38f76e53f34de69c9e679277473a865ef2d62069f1207e1417ae87", "blocktime": 1537869901, "version": 1, "confirmations": 11524, "time": 1537869901, "locktime": 0, "vsize": 337, "size": 667}