{"hash": "b808eb78b9e7c2a9e470afd8ff6fa14fb272dcee7c9ab609aacb6d87924dc756", "blockhash": "00000000000000000004ffacab907a6b429b9a5745fa0b75af4234bf69dd7176", "vout": [{"scriptPubKey": {"reqSigs": 1, "hex": "a91425853aba146b3b15655f05cdf558180aecf5da0487", "addresses": ["357QXak8u9i1HedovKQ2pFhmvodUc1BJu5"], "asm": "OP_HASH160 25853aba146b3b15655f05cdf558180aecf5da04 OP_EQUAL", "type": "scripthash"}, "value": 0.04506803, "n": 0}, {"scriptPubKey": {"reqSigs": 1, "hex": "a9140ac61c80c208fbd31dc2be7dc7926afd6a82936087", "addresses": ["32fz1UkUP87rtrRKgLk4XD2FLdXrRJBhw7"], "asm": "OP_HASH160 0ac61c80c208fbd31dc2be7dc7926afd6a829360 OP_EQUAL", "type": "scripthash"}, "value": 0.00088612, "n": 1}], "hex": "02000000000104048406b2e90f08e60e458904b94f20bd6db0abfde7dc22a2b26da57280144ad60100000017160014a9d70925d6c8a8bad939f8e818b96e5961f37748ffffffff0221cd6b4d06566d3e07230faef4a8ebea984270dd7707c16b7b7eb6800c7ebe0100000017160014be47e3ced1edc734eabd3d07fd3b63ffb5984b3effffffff2f55b87d3342fed03299ac5aeb26ec77a719c8545090f5beeae6a91a84a9d56001000000171600148c40ca058edcd2ff23b0f55fb95ca40febde197effffffff6009fa379105b438ef2b3618c694ebf2ae4a2d43ec732ca6c14ef24eab041b01010000001716001497df9709bfb7e4ad81f8c2195fcd6191629cd81fffffffff02b3c444000000000017a91425853aba146b3b15655f05cdf558180aecf5da0487245a01000000000017a9140ac61c80c208fbd31dc2be7dc7926afd6a829360870247304402203033b75109da67068c741a17be85dbfa0b0ff43e26224d9ae26d4030189bfc7902206135668f6b6233d26f4740ac1f2c80e3e4b94844f577123f80414cdbbcba47d1012103fb60056e472b4f7aa8346ec950b5eaa19457d2133d4b8beb26208c48c49e3e1102483045022100b92ca08aeedf8ad3592f26a1724d28a6d664f4ccae30a653465a1d1bee1b2614022012a4d61461177657a7cff740d6e2b9d5939bedd0d5c4bb0c77af952e6a47b87701210347b30e009a0691c38bdb7e17fa1ea4af64346538f8ab7df0b99507abb8c8f4b0024730440220313a6ce0ff7fda8a7ac75b4cf66501bacbec10730ae5abbc64b02c78bfa34fd8022053ebd2d07dac1b2daccf21eec963c8a26f0daecd71c05fd68d9ce699d651d124012103f8623d0cd1cc5b56e3391490018ea9ae9f0fbcc4dc10d473e77315b09d08ab4702483045022100fb155d0f191cd19d2b842ef1e44f72a7799c150286f5e41a38d96bbd09d4ba7f02200fdd4f2d1f1b51b870d5449f2dc8115aae9ab1cee7bc0d91c8504c26d078c093012102c8bdbb4c0fcd9c313d611c8a79e3a17e062b9b2346f2f8229ebd221d1727980900000000", "vin": [{"txinwitness": ["304402203033b75109da67068c741a17be85dbfa0b0ff43e26224d9ae26d4030189bfc7902206135668f6b6233d26f4740ac1f2c80e3e4b94844f577123f80414cdbbcba47d101", "03fb60056e472b4f7aa8346ec950b5eaa19457d2133d4b8beb26208c48c49e3e11"], "sequence": 4294967295, "scriptSig": {"hex": "160014a9d70925d6c8a8bad939f8e818b96e5961f37748", "asm": "0014a9d70925d6c8a8bad939f8e818b96e5961f37748"}, "vout": 1, "txid": "d64a148072a56db2a222dce7fdabb06dbd204fb90489450ee6080fe9b2068404"}, {"txinwitness": ["3045022100b92ca08aeedf8ad3592f26a1724d28a6d664f4ccae30a653465a1d1bee1b2614022012a4d61461177657a7cff740d6e2b9d5939bedd0d5c4bb0c77af952e6a47b87701", "0347b30e009a0691c38bdb7e17fa1ea4af64346538f8ab7df0b99507abb8c8f4b0"], "sequence": 4294967295, "scriptSig": {"hex": "160014be47e3ced1edc734eabd3d07fd3b63ffb5984b3e", "asm": "0014be47e3ced1edc734eabd3d07fd3b63ffb5984b3e"}, "vout": 1, "txid": "be7e0c80b67e7b6bc10777dd704298eaeba8f4ae0f23073e6d56064d6bcd2102"}, {"txinwitness": ["30440220313a6ce0ff7fda8a7ac75b4cf66501bacbec10730ae5abbc64b02c78bfa34fd8022053ebd2d07dac1b2daccf21eec963c8a26f0daecd71c05fd68d9ce699d651d12401", "03f8623d0cd1cc5b56e3391490018ea9ae9f0fbcc4dc10d473e77315b09d08ab47"], "sequence": 4294967295, "scriptSig": {"hex": "1600148c40ca058edcd2ff23b0f55fb95ca40febde197e", "asm": "00148c40ca058edcd2ff23b0f55fb95ca40febde197e"}, "vout": 1, "txid": "60d5a9841aa9e6eabef5905054c819a777ec26eb5aac9932d0fe42337db8552f"}, {"txinwitness": ["3045022100fb155d0f191cd19d2b842ef1e44f72a7799c150286f5e41a38d96bbd09d4ba7f02200fdd4f2d1f1b51b870d5449f2dc8115aae9ab1cee7bc0d91c8504c26d078c09301", "02c8bdbb4c0fcd9c313d611c8a79e3a17e062b9b2346f2f8229ebd221d17279809"], "sequence": 4294967295, "scriptSig": {"hex": "16001497df9709bfb7e4ad81f8c2195fcd6191629cd81f", "asm": "001497df9709bfb7e4ad81f8c2195fcd6191629cd81f"}, "vout": 1, "txid": "011b04ab4ef24ec1a62c73ec432d4aaef2eb94c618362bef38b4059137fa0960"}], "txid": "4ea4add7180bc968fe04502dd1df57e9e9c94124921ec435b8fcc2a61a19e1dc", "blocktime": 1537875543, "version": 2, "confirmations": 11464, "time": 1537875543, "locktime": 0, "vsize": 438, "size": 762}