{"hash": "4eaedc8bf48f0563a498ac068c0e53f72173b589462ac41898f54ed2f6e04e61", "blockhash": "0000000000000000001e0dab787dd257d1dbfcb92a98c2207d5e1078be1f4165", "vout": [{"scriptPubKey": {"reqSigs": 1, "hex": "001430639f498cf37240797f7e45775837e02e3b37ab", "addresses": ["bc1qxp3e7jvv7deyq7tl0ezhwkphuqhrkdat7g2aru"], "asm": "0 30639f498cf37240797f7e45775837e02e3b37ab", "type": "witness_v0_keyhash"}, "value": 1.228e-05, "n": 0}, {"scriptPubKey": {"reqSigs": 1, "hex": "a9140f433522a5035cb06e2b8d6d459eb70866c7004e87", "addresses": ["335ia5qxYAkmfnMhM9d4vA68msrm1cBBm5"], "asm": "OP_HASH160 0f433522a5035cb06e2b8d6d459eb70866c7004e OP_EQUAL", "type": "scripthash"}, "value": 0.00183386, "n": 1}], "hex": "0100000001fffcc93717a2314c660799eb8012b23b799d22fe38b4d8fb201a0764ead6d9ea160000006b483045022100b288f2d6c7450a0ee6a5a6d5af30b003cdfbc47d3327a8f2ef9c4c6ae412401f02201455c38d49c1688048b55506b64c47aec37a53ad4b0dcae1c5a95479f2c301de0121030686f0427d4253959874251ea62da511a830b9b8b94cabb9d0dd4e9286d2149affffffff02cc0400000000000016001430639f498cf37240797f7e45775837e02e3b37ab5acc02000000000017a9140f433522a5035cb06e2b8d6d459eb70866c7004e8700000000", "vin": [{"sequence": 4294967295, "scriptSig": {"hex": "483045022100b288f2d6c7450a0ee6a5a6d5af30b003cdfbc47d3327a8f2ef9c4c6ae412401f02201455c38d49c1688048b55506b64c47aec37a53ad4b0dcae1c5a95479f2c301de0121030686f0427d4253959874251ea62da511a830b9b8b94cabb9d0dd4e9286d2149a", "asm": "3045022100b288f2d6c7450a0ee6a5a6d5af30b003cdfbc47d3327a8f2ef9c4c6ae412401f02201455c38d49c1688048b55506b64c47aec37a53ad4b0dcae1c5a95479f2c301de[ALL] 030686f0427d4253959874251ea62da511a830b9b8b94cabb9d0dd4e9286d2149a"}, "vout": 22, "txid": "ead9d6ea64071a20fbd8b438fe229d793bb21280eb9907664c31a21737c9fcff"}], "txid": "4eaedc8bf48f0563a498ac068c0e53f72173b589462ac41898f54ed2f6e04e61", "blocktime": 1537872475, "version": 1, "confirmations": 11487, "time": 1537872475, "locktime": 0, "vsize": 221, "size": 221}