{"hash": "4eaf27cdd4dcfef61ae52789e487d0bad7e01538af726bee86547ef79bd4ff98", "blockhash": "0000000000000000000dcc0f55137456b1a82d3642486a52398922ac4d620174", "vout": [{"scriptPubKey": {"reqSigs": 1, "hex": "76a9141f5d557860694ced7003d7219e233b36df94c9c288ac", "addresses": ["13rqku4UR94YkwBgnDoC8FxPVASPQRdt7j"], "asm": "OP_DUP OP_HASH160 1f5d557860694ced7003d7219e233b36df94c9c2 OP_EQUALVERIFY OP_CHECKSIG", "type": "pubkeyhash"}, "value": 1.85650844, "n": 0}, {"scriptPubKey": {"reqSigs": 1, "hex": "76a914e0a0b224c6efe0902f94cb70d5cc00fd4fbf884388ac", "addresses": ["1MUisKGrhQkXnK1t9KSYKLEaQFBYnJ9kEN"], "asm": "OP_DUP OP_HASH160 e0a0b224c6efe0902f94cb70d5cc00fd4fbf8843 OP_EQUALVERIFY OP_CHECKSIG", "type": "pubkeyhash"}, "value": 4.85, "n": 1}], "hex": "0100000002c4663dd1e31d57ebf32ce613fc26d7a1a371962d4f3f3ddb656e67f987a3d211010000006b483045022100d0a1e1bc6e8156b750109a94351ad9c5deecfedc07aacc07efa230589d654ddc022024e61fc67ef941319baec222d15ffe883233faab37181a49ef853cb3cfa213b201210230c4e6bf04f0f1af734307b42a4b664f0f887764988584b42840da591dad92fdffffffffeb2159c5b9f9720246b767c453db7cab3ec8d36ca85bb70d971e23426a13a881010000006b483045022100858b316a3a549c979b9bb3484d36d92f86d4de0030d392d18f92d578e9dad81e022051d6c6eb0499c9a8a190e3c5c06dcc9006072859c8468595b998b831dc1e54b0012102c8ea35118646da29258eebb5c8b45ff6322307ff01164950b2bcfa9aed7a7c4effffffff029cce100b000000001976a9141f5d557860694ced7003d7219e233b36df94c9c288ac4083e81c000000001976a914e0a0b224c6efe0902f94cb70d5cc00fd4fbf884388ac00000000", "vin": [{"sequence": 4294967295, "scriptSig": {"hex": "483045022100d0a1e1bc6e8156b750109a94351ad9c5deecfedc07aacc07efa230589d654ddc022024e61fc67ef941319baec222d15ffe883233faab37181a49ef853cb3cfa213b201210230c4e6bf04f0f1af734307b42a4b664f0f887764988584b42840da591dad92fd", "asm": "3045022100d0a1e1bc6e8156b750109a94351ad9c5deecfedc07aacc07efa230589d654ddc022024e61fc67ef941319baec222d15ffe883233faab37181a49ef853cb3cfa213b2[ALL] 0230c4e6bf04f0f1af734307b42a4b664f0f887764988584b42840da591dad92fd"}, "vout": 1, "txid": "11d2a387f9676e65db3d3f4f2d9671a3a1d726fc13e62cf3eb571de3d13d66c4"}, {"sequence": 4294967295, "scriptSig": {"hex": "483045022100858b316a3a549c979b9bb3484d36d92f86d4de0030d392d18f92d578e9dad81e022051d6c6eb0499c9a8a190e3c5c06dcc9006072859c8468595b998b831dc1e54b0012102c8ea35118646da29258eebb5c8b45ff6322307ff01164950b2bcfa9aed7a7c4e", "asm": "3045022100858b316a3a549c979b9bb3484d36d92f86d4de0030d392d18f92d578e9dad81e022051d6c6eb0499c9a8a190e3c5c06dcc9006072859c8468595b998b831dc1e54b0[ALL] 02c8ea35118646da29258eebb5c8b45ff6322307ff01164950b2bcfa9aed7a7c4e"}, "vout": 1, "txid": "81a8136a42231e970db75ba86cd3c83eab7cdb53c467b7460272f9b9c55921eb"}], "txid": "4eaf27cdd4dcfef61ae52789e487d0bad7e01538af726bee86547ef79bd4ff98", "blocktime": 1537870268, "version": 1, "confirmations": 11516, "time": 1537870268, "locktime": 0, "vsize": 374, "size": 374}