{"hash": "a2fd25bf22e2d2e725722a45e22f831ae1233a066ddec980701a6a4f8cb9b171", "blockhash": "0000000000000000000e13cef7c366c0283d82e591d1acd082e914b08063cdf1", "vout": [{"scriptPubKey": {"reqSigs": 1, "hex": "76a914c7c5690e6226c90ea96e520446778a5ff58ccc8e88ac", "addresses": ["1KDHxVHMtBGk13XzGKmqaKwRyqxPWLRKfD"], "asm": "OP_DUP OP_HASH160 c7c5690e6226c90ea96e520446778a5ff58ccc8e OP_EQUALVERIFY OP_CHECKSIG", "type": "pubkeyhash"}, "value": 0.01229236, "n": 0}, {"scriptPubKey": {"reqSigs": 1, "hex": "a9142a7b78bd2747a21c7a8d80dc704728f463dcabf787", "addresses": ["35ZeDZTAL2azGeCH7xwgTNuMR8m3ndtBkj"], "asm": "OP_HASH160 2a7b78bd2747a21c7a8d80dc704728f463dcabf7 OP_EQUAL", "type": "scripthash"}, "value": 0.01986464, "n": 1}, {"scriptPubKey": {"reqSigs": 1, "hex": "a91483be5603d46c16992e702901d2095888503929b087", "addresses": ["3DhcTT5LgFGRGxfkdyFYH8unCEjKipooAg"], "asm": "OP_HASH160 83be5603d46c16992e702901d2095888503929b0 OP_EQUAL", "type": "scripthash"}, "value": 1.50507573, "n": 2}, {"scriptPubKey": {"reqSigs": 1, "hex": "76a914bac88e0705d90244b7c83fd5d0273dc53cc9ac4788ac", "addresses": ["1J2cwUNRJDvH9ThWubu1o6amFSLnCtrb2g"], "asm": "OP_DUP OP_HASH160 bac88e0705d90244b7c83fd5d0273dc53cc9ac47 OP_EQUALVERIFY OP_CHECKSIG", "type": "pubkeyhash"}, "value": 0.0848, "n": 3}, {"scriptPubKey": {"reqSigs": 1, "hex": "76a9147a270840b94cb95e3a6ae1e1737b6046656d9fb388ac", "addresses": ["1C8tCQpgLtPRrQNyxYK98t2EM7qJHbxTRv"], "asm": "OP_DUP OP_HASH160 7a270840b94cb95e3a6ae1e1737b6046656d9fb3 OP_EQUALVERIFY OP_CHECKSIG", "type": "pubkeyhash"}, "value": 0.06261731, "n": 4}, {"scriptPubKey": {"reqSigs": 1, "hex": "76a9143bb4776f44ca37bc04e7b3385200d7335e768af988ac", "addresses": ["16Sh4MUvQuAYrfxWUcHTQ3EsfqTfYREfWk"], "asm": "OP_DUP OP_HASH160 3bb4776f44ca37bc04e7b3385200d7335e768af9 OP_EQUALVERIFY OP_CHECKSIG", "type": "pubkeyhash"}, "value": 0.00204198, "n": 5}, {"scriptPubKey": {"reqSigs": 1, "hex": "a914f1bc5b6f96397238e7de14bc4011fd383d0d4c0387", "addresses": ["3PjCR4U5mUyYf6xbgCQagDCGksff5ETGBP"], "asm": "OP_HASH160 f1bc5b6f96397238e7de14bc4011fd383d0d4c03 OP_EQUAL", "type": "scripthash"}, "value": 0.0098441, "n": 6}, {"scriptPubKey": {"reqSigs": 1, "hex": "76a914d30db4aaae69473e3448452098270a0f6d4fd22288ac", "addresses": ["1LEwzmVADK2aWEn6ND4rsvs8VwuWubkpin"], "asm": "OP_DUP OP_HASH160 d30db4aaae69473e3448452098270a0f6d4fd222 OP_EQUALVERIFY OP_CHECKSIG", "type": "pubkeyhash"}, "value": 0.00732094, "n": 7}, {"scriptPubKey": {"reqSigs": 1, "hex": "a914aa6dedc44489229c80d78ba5fe2fd2ac3360736887", "addresses": ["3HEAV95r7qhND7Y8oMJzf2H2khLicLsTMo"], "asm": "OP_HASH160 aa6dedc44489229c80d78ba5fe2fd2ac33607368 OP_EQUAL", "type": "scripthash"}, "value": 0.02648065, "n": 8}, {"scriptPubKey": {"reqSigs": 1, "hex": "a91435c4b5dffa452dfc91fab70385b3948d3b40089b87", "addresses": ["36bKPPiAhTAcURndrVj6d35J12JorKX3W6"], "asm": "OP_HASH160 35c4b5dffa452dfc91fab70385b3948d3b40089b OP_EQUAL", "type": "scripthash"}, "value": 0.0711815, "n": 9}, {"scriptPubKey": {"reqSigs": 1, "hex": "a914c9c33acb9284228d086e4510be3e3771577dcca387", "addresses": ["3L5qctyHzJKPE6izR4miCzkujWLpqdKDSi"], "asm": "OP_HASH160 c9c33acb9284228d086e4510be3e3771577dcca3 OP_EQUAL", "type": "scripthash"}, "value": 0.00146204, "n": 10}, {"scriptPubKey": {"reqSigs": 1, "hex": "a91456ac18e85045a47e92886a07fbed80b6ca30caaf87", "addresses": ["39bJCa4a8vSaGLteYSbHKFNt6LtFa8YFQT"], "asm": "OP_HASH160 56ac18e85045a47e92886a07fbed80b6ca30caaf OP_EQUAL", "type": "scripthash"}, "value": 0.05730328, "n": 11}, {"scriptPubKey": {"reqSigs": 1, "hex": "a9145d3288fca8387e4bc4dfd3b6d6111d4a424de17487", "addresses": ["3ABoJdBabwuqzf6ccTVyZzcC8W2i9F6nBa"], "asm": "OP_HASH160 5d3288fca8387e4bc4dfd3b6d6111d4a424de174 OP_EQUAL", "type": "scripthash"}, "value": 0.00208647, "n": 12}, {"scriptPubKey": {"reqSigs": 1, "hex": "a914974f7a7ef6990b0ecaf7727697a1afbb19d0027187", "addresses": ["3FV5Amo3iCvnmR1EsCoe2GupVrWE3JjALk"], "asm": "OP_HASH160 974f7a7ef6990b0ecaf7727697a1afbb19d00271 OP_EQUAL", "type": "scripthash"}, "value": 0.0314, "n": 13}, {"scriptPubKey": {"reqSigs": 1, "hex": "a914b631f5e7c8773e484495b447faef35e882946c5487", "addresses": ["3JJNkn5UgrMSBQgmf2iAfjV3QWKtMCwCiU"], "asm": "OP_HASH160 b631f5e7c8773e484495b447faef35e882946c54 OP_EQUAL", "type": "scripthash"}, "value": 0.0099688, "n": 14}, {"scriptPubKey": {"reqSigs": 1, "hex": "76a9140a6822719fac5e1ec3bcd35e3b23942bd34e873f88ac", "addresses": ["1x2WKBMfJA9zKLpX3dWRLRGSVVvLBCK1U"], "asm": "OP_DUP OP_HASH160 0a6822719fac5e1ec3bcd35e3b23942bd34e873f OP_EQUALVERIFY OP_CHECKSIG", "type": "pubkeyhash"}, "value": 0.02131716, "n": 15}, {"scriptPubKey": {"reqSigs": 1, "hex": "a9140cfdbeb7e021f9fce09aeada6ea60788587a139987", "addresses": ["32si1MeyE2GfWwE39zhAMawBYFvWd8cjqq"], "asm": "OP_HASH160 0cfdbeb7e021f9fce09aeada6ea60788587a1399 OP_EQUAL", "type": "scripthash"}, "value": 3.55638783, "n": 16}, {"scriptPubKey": {"reqSigs": 1, "hex": "76a914f889f9ebcf48bc156beac4ad5b58807563c8632f88ac", "addresses": ["1Pf9sLGR32EmuDK1YMJGqTSqwzENkPSPmM"], "asm": "OP_DUP OP_HASH160 f889f9ebcf48bc156beac4ad5b58807563c8632f OP_EQUALVERIFY OP_CHECKSIG", "type": "pubkeyhash"}, "value": 0.00093926, "n": 17}, {"scriptPubKey": {"reqSigs": 1, "hex": "76a914c68830a7d512cfa349f7449030a7dc4097ee1bef88ac", "addresses": ["1K6jwdkvfPGzpjq5G9yX914tJpBsYrvJH3"], "asm": "OP_DUP OP_HASH160 c68830a7d512cfa349f7449030a7dc4097ee1bef OP_EQUALVERIFY OP_CHECKSIG", "type": "pubkeyhash"}, "value": 0.0023, "n": 18}, {"scriptPubKey": {"reqSigs": 1, "hex": "76a914829dd1149b2df1fd43502fc9e8973ef652abe87c88ac", "addresses": ["1CuduEgi3mLc48s5iua1upZx1nDfLaFZDa"], "asm": "OP_DUP OP_HASH160 829dd1149b2df1fd43502fc9e8973ef652abe87c OP_EQUALVERIFY OP_CHECKSIG", "type": "pubkeyhash"}, "value": 0.0073382, "n": 19}, {"scriptPubKey": {"reqSigs": 1, "hex": "76a9148b9e28301a8587e15cceb639234e627c937a71eb88ac", "addresses": ["1DjEPc3xEZBe1kDjB4MdJ2KNXCZm6JAxUf"], "asm": "OP_DUP OP_HASH160 8b9e28301a8587e15cceb639234e627c937a71eb OP_EQUALVERIFY OP_CHECKSIG", "type": "pubkeyhash"}, "value": 0.04591522, "n": 20}, {"scriptPubKey": {"reqSigs": 1, "hex": "76a914a11fd820c37cbadb6a5e76496392d2c1b9e11b4288ac", "addresses": ["1FgwwTo5HMAfvFUJbgm1a5N6ZRbNrre9pe"], "asm": "OP_DUP OP_HASH160 a11fd820c37cbadb6a5e76496392d2c1b9e11b42 OP_EQUALVERIFY OP_CHECKSIG", "type": "pubkeyhash"}, "value": 0.00471757, "n": 21}, {"scriptPubKey": {"reqSigs": 1, "hex": "a9146b815ac2c1e8337b8477dcccb3e3917b197731ea87", "addresses": ["3BVTBnCtriw5L3QaLtnoJtrYzNQjNtGRh3"], "asm": "OP_HASH160 6b815ac2c1e8337b8477dcccb3e3917b197731ea OP_EQUAL", "type": "scripthash"}, "value": 0.00771628, "n": 22}], "hex": "0100000000010365d6e6daca84422d65e9e3544a597c469ac8e5db80d6b1e09d5289b318c248411f0000002322002044d677d5542197ed49597274abd74921b9e9a0fa919c5d2f9e9e5a122b2ca7c1ffffffff280af6d7614a94d2b76a2759ee9bfb5c255bd6e7bdd90087a7065f475b42d8ad0f00000023220020d92b6e9023937f082e6447c91d3aad9b53e3d865f11e7aec392693a42e5bb179ffffffffda054d7efb2101e015754731369c6362290082448d9e146b28aac8d4ce7f14671100000023220020b03c8e2bd6a9eaeb1150df738487012648bbb9473c6b54045be6bfcdaf6fc5f0ffffffff17b4c11200000000001976a914c7c5690e6226c90ea96e520446778a5ff58ccc8e88aca04f1e000000000017a9142a7b78bd2747a21c7a8d80dc704728f463dcabf7873590f8080000000017a91483be5603d46c16992e702901d2095888503929b08700658100000000001976a914bac88e0705d90244b7c83fd5d0273dc53cc9ac4788ace38b5f00000000001976a9147a270840b94cb95e3a6ae1e1737b6046656d9fb388aca61d0300000000001976a9143bb4776f44ca37bc04e7b3385200d7335e768af988ac5a050f000000000017a914f1bc5b6f96397238e7de14bc4011fd383d0d4c0387be2b0b00000000001976a914d30db4aaae69473e3448452098270a0f6d4fd22288ac016828000000000017a914aa6dedc44489229c80d78ba5fe2fd2ac3360736887469d6c000000000017a91435c4b5dffa452dfc91fab70385b3948d3b40089b871c3b02000000000017a914c9c33acb9284228d086e4510be3e3771577dcca387187057000000000017a91456ac18e85045a47e92886a07fbed80b6ca30caaf87072f03000000000017a9145d3288fca8387e4bc4dfd3b6d6111d4a424de17487a0e92f000000000017a914974f7a7ef6990b0ecaf7727697a1afbb19d002718710360f000000000017a914b631f5e7c8773e484495b447faef35e882946c548704872000000000001976a9140a6822719fac5e1ec3bcd35e3b23942bd34e873f88acff9d32150000000017a9140cfdbeb7e021f9fce09aeada6ea60788587a139987e66e0100000000001976a914f889f9ebcf48bc156beac4ad5b58807563c8632f88ac70820300000000001976a914c68830a7d512cfa349f7449030a7dc4097ee1bef88ac7c320b00000000001976a914829dd1149b2df1fd43502fc9e8973ef652abe87c88aca20f4600000000001976a9148b9e28301a8587e15cceb639234e627c937a71eb88accd320700000000001976a914a11fd820c37cbadb6a5e76496392d2c1b9e11b4288ac2cc60b000000000017a9146b815ac2c1e8337b8477dcccb3e3917b197731ea87040047304402203cbd24acbd699904db177ba5135ebda0880d02c74fe34ba93df198d87d2977fb02200d56d8d006f07e4cc42d07e5c0cb5b8a60066d64c6dbdd4635b344c093f7308b01483045022100f1ab6392eda72e8de48dd8df2a93d825c0f2204500df48fda13fdf0578a7056c022005fb1c65129b23f48ccc7420a321ad8c270a0e0f11612d015803efca0fbcbc230169522102c081a7f35906d18c97b9d78d1b04f48dac19a9205388bb20ddd370947ffa213221024cf8e8768d99b2281aeef5629bdd00824f8e1c09292453b9d3a870ec36356ef62102e10c23722eb24df36202bf1ce9d4b50d3fcb33884606c6f9aaa0f9971b97909d53ae0400483045022100ac3596072bfda74b5d53408dd2ad2bc588b5c22d7835b79eb6135fb796e4d1b6022062c4cfe07eb229d5838877fd6317ff8a4ace1b1b03031fdfabbd38394a59857b014830450221008908ced15887c9fdc0881c952c6d018a6060d711f5decb008ec05b634e6ace6c02202eb001d0923588f5121147f7d96cfedbbd5d9a8b8581513d1fab177f7ea23a4d0169522102141193da8b3253b98a7679edbc39d38fac2f297d3632fbdda64ec1541b290159210296f0934cd1e4b54348da1275f0eef748d6073dafc657da00531fb841d5c1208021027600caf4bc4129d5b93646b1c611a19cbe5609fdd26b0a52f3bb78f2f386b5df53ae040047304402203231440e9c7fc7362296f47b399277931956b598e78bcd17c6159ceb9d9dd920022007189ce078b8b502618350705e1ae89db599d5d56bbd702aad555ba3c03320e50147304402203d34955f201560032c11b622d270c345f7b57fc2f088e13d564d1cfbe0babfee022021ce894910b1617935481ac498d9aa573fc5b8cb760a02fadc1a65450535af6301695221024cd2fd8c2f63d55cfadb89fa1f085c197308ee64b0b01b5650d12f2455bc29832102df07893edf13832862444dcb696470fd7f54be7469ee33e728fb89bb2c7bfff72103b2d7b13f7c075f1140a32347f35e7a8cd6aa2a18505f7955518f569120487cfe53ae00000000", "vin": [{"txinwitness": ["", "304402203cbd24acbd699904db177ba5135ebda0880d02c74fe34ba93df198d87d2977fb02200d56d8d006f07e4cc42d07e5c0cb5b8a60066d64c6dbdd4635b344c093f7308b01", "3045022100f1ab6392eda72e8de48dd8df2a93d825c0f2204500df48fda13fdf0578a7056c022005fb1c65129b23f48ccc7420a321ad8c270a0e0f11612d015803efca0fbcbc2301", "522102c081a7f35906d18c97b9d78d1b04f48dac19a9205388bb20ddd370947ffa213221024cf8e8768d99b2281aeef5629bdd00824f8e1c09292453b9d3a870ec36356ef62102e10c23722eb24df36202bf1ce9d4b50d3fcb33884606c6f9aaa0f9971b97909d53ae"], "sequence": 4294967295, "scriptSig": {"hex": "22002044d677d5542197ed49597274abd74921b9e9a0fa919c5d2f9e9e5a122b2ca7c1", "asm": "002044d677d5542197ed49597274abd74921b9e9a0fa919c5d2f9e9e5a122b2ca7c1"}, "vout": 31, "txid": "4148c218b389529de0b1d680dbe5c89a467c594a54e3e9652d4284cadae6d665"}, {"txinwitness": ["", "3045022100ac3596072bfda74b5d53408dd2ad2bc588b5c22d7835b79eb6135fb796e4d1b6022062c4cfe07eb229d5838877fd6317ff8a4ace1b1b03031fdfabbd38394a59857b01", "30450221008908ced15887c9fdc0881c952c6d018a6060d711f5decb008ec05b634e6ace6c02202eb001d0923588f5121147f7d96cfedbbd5d9a8b8581513d1fab177f7ea23a4d01", "522102141193da8b3253b98a7679edbc39d38fac2f297d3632fbdda64ec1541b290159210296f0934cd1e4b54348da1275f0eef748d6073dafc657da00531fb841d5c1208021027600caf4bc4129d5b93646b1c611a19cbe5609fdd26b0a52f3bb78f2f386b5df53ae"], "sequence": 4294967295, "scriptSig": {"hex": "220020d92b6e9023937f082e6447c91d3aad9b53e3d865f11e7aec392693a42e5bb179", "asm": "0020d92b6e9023937f082e6447c91d3aad9b53e3d865f11e7aec392693a42e5bb179"}, "vout": 15, "txid": "add8425b475f06a78700d9bde7d65b255cfb9bee59276ab7d2944a61d7f60a28"}, {"txinwitness": ["", "304402203231440e9c7fc7362296f47b399277931956b598e78bcd17c6159ceb9d9dd920022007189ce078b8b502618350705e1ae89db599d5d56bbd702aad555ba3c03320e501", "304402203d34955f201560032c11b622d270c345f7b57fc2f088e13d564d1cfbe0babfee022021ce894910b1617935481ac498d9aa573fc5b8cb760a02fadc1a65450535af6301", "5221024cd2fd8c2f63d55cfadb89fa1f085c197308ee64b0b01b5650d12f2455bc29832102df07893edf13832862444dcb696470fd7f54be7469ee33e728fb89bb2c7bfff72103b2d7b13f7c075f1140a32347f35e7a8cd6aa2a18505f7955518f569120487cfe53ae"], "sequence": 4294967295, "scriptSig": {"hex": "220020b03c8e2bd6a9eaeb1150df738487012648bbb9473c6b54045be6bfcdaf6fc5f0", "asm": "0020b03c8e2bd6a9eaeb1150df738487012648bbb9473c6b54045be6bfcdaf6fc5f0"}, "vout": 17, "txid": "67147fced4c8aa286b149e8d4482002962639c3631477515e00121fb7e4d05da"}], "txid": "4eb930f7b96f680c96968ae408be3202835a6f9bbe42ab8cfb627eff50b53749", "blocktime": 1537871767, "version": 1, "confirmations": 11494, "time": 1537871767, "locktime": 0, "vsize": 1187, "size": 1757}