{"hash": "4ebc40d83a34f125f1bc98e10aeccc0d0dd9f188e05e87386a21b7de781034cd", "blockhash": "0000000000000000000e13cef7c366c0283d82e591d1acd082e914b08063cdf1", "vout": [{"scriptPubKey": {"type": "nulldata", "hex": "6a4c500000779d0001abc9a6af6c953dd567cf27e7e3ef3236678a625097bcbefa6b8351586b4e2c11c7f7018bbbbd3fbb5818bdbdc8f75baa0dcf06154ad32edb164f1d100759d4ba30d2c37bb011d97e02cf", "asm": "OP_RETURN 0000779d0001abc9a6af6c953dd567cf27e7e3ef3236678a625097bcbefa6b8351586b4e2c11c7f7018bbbbd3fbb5818bdbdc8f75baa0dcf06154ad32edb164f1d100759d4ba30d2c37bb011d97e02cf"}, "value": 0.0, "n": 0}, {"scriptPubKey": {"reqSigs": 1, "hex": "76a914e780014a833664cff10c60eca85aea948fccba1188ac", "addresses": ["1N74SG2nXg6zNGaw6PbadMfPMpMo4AJGfE"], "asm": "OP_DUP OP_HASH160 e780014a833664cff10c60eca85aea948fccba11 OP_EQUALVERIFY OP_CHECKSIG", "type": "pubkeyhash"}, "value": 0.0064681, "n": 1}], "hex": "010000000122cd738d69ac4430839246ea0611714cfcd002c4d81fe06b702b22686f135cd2000000006b483045022100aef7a7d6f587c8e401241ebba64e0678f2b72d0c846c53c89a3d4c78db2ab4a5022056cb4cd465b4508ad98c43eadaf473c89f697a9bc0140b90f2caa6c23c92c94a012102651652d3ce14e4714183424e4adbda912bc372a86acd75f5f04cb3a127de5420ffffffff020000000000000000536a4c500000779d0001abc9a6af6c953dd567cf27e7e3ef3236678a625097bcbefa6b8351586b4e2c11c7f7018bbbbd3fbb5818bdbdc8f75baa0dcf06154ad32edb164f1d100759d4ba30d2c37bb011d97e02cf9ade0900000000001976a914e780014a833664cff10c60eca85aea948fccba1188ac00000000", "vin": [{"sequence": 4294967295, "scriptSig": {"hex": "483045022100aef7a7d6f587c8e401241ebba64e0678f2b72d0c846c53c89a3d4c78db2ab4a5022056cb4cd465b4508ad98c43eadaf473c89f697a9bc0140b90f2caa6c23c92c94a012102651652d3ce14e4714183424e4adbda912bc372a86acd75f5f04cb3a127de5420", "asm": "3045022100aef7a7d6f587c8e401241ebba64e0678f2b72d0c846c53c89a3d4c78db2ab4a5022056cb4cd465b4508ad98c43eadaf473c89f697a9bc0140b90f2caa6c23c92c94a[ALL] 02651652d3ce14e4714183424e4adbda912bc372a86acd75f5f04cb3a127de5420"}, "vout": 0, "txid": "d25c136f68222b706be01fd8c402d0fc4c711106ea4692833044ac698d73cd22"}], "txid": "4ebc40d83a34f125f1bc98e10aeccc0d0dd9f188e05e87386a21b7de781034cd", "blocktime": 1537871767, "version": 1, "confirmations": 11495, "time": 1537871767, "locktime": 0, "vsize": 284, "size": 284}