{"hash": "4ebe2ee52ec22902b56ddbca5d64196ba455b0d4a4a1dc49b410e69d271aad59", "blockhash": "0000000000000000000baef3f32e3676a92c3b2e5da21b426e4f302fc371ce76", "vout": [{"scriptPubKey": {"reqSigs": 1, "hex": "a914ed2386cd77ec82ed455733a35ac43d23467919a587", "addresses": ["3PJtdSJgrSh8khxr3ZMYVu23Fdyb9GMMuy"], "asm": "OP_HASH160 ed2386cd77ec82ed455733a35ac43d23467919a5 OP_EQUAL", "type": "scripthash"}, "value": 0.01201, "n": 0}, {"scriptPubKey": {"reqSigs": 1, "hex": "a914e370231feecbfc25e2e2423a5a79bf79bfdca59887", "addresses": ["3NRbeX3vD5VaVE4TDU9ivCDsEf7NPPte6J"], "asm": "OP_HASH160 e370231feecbfc25e2e2423a5a79bf79bfdca598 OP_EQUAL", "type": "scripthash"}, "value": 2.71735219, "n": 1}], "hex": "0100000001e22bc2279383ff49df62601eac58111ae5869ead7b2651a86883ca277ec9754401000000db00483045022100da1f93a9dd0bdea29910574b7dbeb708ce86f75f4b37e5a32a74829c477fe88702204afce21713e62e944c4f5adc829aff0be1d1265e59a62e9e70fabe4d43e4ecc601483045022100908df110d10290ea122beee633ffad1973f7b5e194726e7e0861d288070e69010220348f900b86c74525567d28de3c74f9683865d77cd5bfcec8a8b187ffc5f3ef72014752210327881b6abce6535553a3ce21fad12a7d74fd237ce7c4cd270a267162344e3082210256141f8eb687f5a68c5cc65054652dc25116fa285e44d72b44368827ffe77d9a52aeffffffff02685312000000000017a914ed2386cd77ec82ed455733a35ac43d23467919a587b35932100000000017a914e370231feecbfc25e2e2423a5a79bf79bfdca5988700000000", "vin": [{"sequence": 4294967295, "scriptSig": {"hex": "00483045022100da1f93a9dd0bdea29910574b7dbeb708ce86f75f4b37e5a32a74829c477fe88702204afce21713e62e944c4f5adc829aff0be1d1265e59a62e9e70fabe4d43e4ecc601483045022100908df110d10290ea122beee633ffad1973f7b5e194726e7e0861d288070e69010220348f900b86c74525567d28de3c74f9683865d77cd5bfcec8a8b187ffc5f3ef72014752210327881b6abce6535553a3ce21fad12a7d74fd237ce7c4cd270a267162344e3082210256141f8eb687f5a68c5cc65054652dc25116fa285e44d72b44368827ffe77d9a52ae", "asm": "0 3045022100da1f93a9dd0bdea29910574b7dbeb708ce86f75f4b37e5a32a74829c477fe88702204afce21713e62e944c4f5adc829aff0be1d1265e59a62e9e70fabe4d43e4ecc6[ALL] 3045022100908df110d10290ea122beee633ffad1973f7b5e194726e7e0861d288070e69010220348f900b86c74525567d28de3c74f9683865d77cd5bfcec8a8b187ffc5f3ef72[ALL] 52210327881b6abce6535553a3ce21fad12a7d74fd237ce7c4cd270a267162344e3082210256141f8eb687f5a68c5cc65054652dc25116fa285e44d72b44368827ffe77d9a52ae"}, "vout": 1, "txid": "4475c97e27ca8368a851267bad9e86e51a1158ac1e6062df49ff839327c22be2"}], "txid": "4ebe2ee52ec22902b56ddbca5d64196ba455b0d4a4a1dc49b410e69d271aad59", "blocktime": 1537876114, "version": 1, "confirmations": 11460, "time": 1537876114, "locktime": 0, "vsize": 334, "size": 334}