{"hash": "7fe476ecab4c6a598a08e0ef125b2e8b789aab9f0bf65615f003fd151862822f", "blockhash": "0000000000000000001f0ddff1eddb255c1121bcd4da4f1bc9a0da00cae72433", "vout": [{"scriptPubKey": {"reqSigs": 1, "hex": "76a91458f73d6d3a4a01695dc54b1de1d16d212df4f8ba88ac", "addresses": ["197QeR1662QyGGKPx9uFYVT3RSrZZTnMp6"], "asm": "OP_DUP OP_HASH160 58f73d6d3a4a01695dc54b1de1d16d212df4f8ba OP_EQUALVERIFY OP_CHECKSIG", "type": "pubkeyhash"}, "value": 0.00155931, "n": 0}, {"scriptPubKey": {"reqSigs": 1, "hex": "a914c3aac73b19a6df3a3a68ef69a8e9f79c8dff9a9c87", "addresses": ["3KXcGqASXznMituPhPnV7BkSc6CHZRLykC"], "asm": "OP_HASH160 c3aac73b19a6df3a3a68ef69a8e9f79c8dff9a9c OP_EQUAL", "type": "scripthash"}, "value": 0.00948212, "n": 1}], "hex": "01000000000101310dd09155ec9a0ab31118e4eaad6e02c83d08faa0ce4a9440cee1b1d1a5526401000000232200200b5c15b2a266c1fd9e615145cf3cd379109fe761c2844ebebbc12b381bddc9faffffffff021b610200000000001976a91458f73d6d3a4a01695dc54b1de1d16d212df4f8ba88acf4770e000000000017a914c3aac73b19a6df3a3a68ef69a8e9f79c8dff9a9c870400483045022100bd1ebadbafdc5fc85a5f4e4c30238c3de29656da039e3e7c8b87bb6ab3a3a08c02201ef274b552abb1133d7d3ec5c404372929f40df4b28aa32722b9a318aeed23bb0147304402205a635b55331aa2419b80ec7c10e14f6abeb1357a5876b7e0027a49b3e50e665a02205f0b514b82ff89202cd613487c2dd54038c729e27f390b6fff0dd7d5e89829400147522102b590b6826675da568b914aa494372424b69f5fe06067fd7fa568cc41070c8e6b21024c55499905a522129124e75484b7ddea868aee9a7f01d75add901db6cf9b589f52ae00000000", "vin": [{"txinwitness": ["", "3045022100bd1ebadbafdc5fc85a5f4e4c30238c3de29656da039e3e7c8b87bb6ab3a3a08c02201ef274b552abb1133d7d3ec5c404372929f40df4b28aa32722b9a318aeed23bb01", "304402205a635b55331aa2419b80ec7c10e14f6abeb1357a5876b7e0027a49b3e50e665a02205f0b514b82ff89202cd613487c2dd54038c729e27f390b6fff0dd7d5e898294001", "522102b590b6826675da568b914aa494372424b69f5fe06067fd7fa568cc41070c8e6b21024c55499905a522129124e75484b7ddea868aee9a7f01d75add901db6cf9b589f52ae"], "sequence": 4294967295, "scriptSig": {"hex": "2200200b5c15b2a266c1fd9e615145cf3cd379109fe761c2844ebebbc12b381bddc9fa", "asm": "00200b5c15b2a266c1fd9e615145cf3cd379109fe761c2844ebebbc12b381bddc9fa"}, "vout": 1, "txid": "6452a5d1b1e1ce40944acea0fa083dc8026eadeae41811b30a9aec5591d00d31"}], "txid": "4ec70106438246936b5147794ffa47eb6c40805fae7641092d212d960e9061a7", "blocktime": 1537872018, "version": 1, "confirmations": 11489, "time": 1537872018, "locktime": 0, "vsize": 208, "size": 373}