{"hash": "4eca8c7c987bd69797ada0d80652023c1b445f174f75037a0dc02c6425a4a749", "blockhash": "0000000000000000001cda96e906b7601b7a6fb1a3b62bca570a9e5d8f4b3de1", "vout": [{"scriptPubKey": {"reqSigs": 1, "hex": "a914a8809814d219938e0faa87fed8df095e305d9d8987", "addresses": ["3H3yVeHkVRnCKqXrDbgfAnWAmBLBDGrxkd"], "asm": "OP_HASH160 a8809814d219938e0faa87fed8df095e305d9d89 OP_EQUAL", "type": "scripthash"}, "value": 0.00012492, "n": 0}, {"scriptPubKey": {"reqSigs": 1, "hex": "76a91470a94ff22dcb580415740c633d574ca7e7599bbc88ac", "addresses": ["1BGhWWXapqHbbgVtQCyNVvDeBjqrgwg699"], "asm": "OP_DUP OP_HASH160 70a94ff22dcb580415740c633d574ca7e7599bbc OP_EQUALVERIFY OP_CHECKSIG", "type": "pubkeyhash"}, "value": 0.00247297, "n": 1}], "hex": "01000000014a30f77412c804b4b0e426d57c43a39335c9b6c08c8dfd76f1198f8b9ee0ba23000000006a473044022024ac9ee43cd682c841465c325b8248e0b725ca81e524fe7d1e2c9c18c339d37a022039ba70983ed80f3524b82f9bf6db074bb4b066411f493dd8443f89c7d103a82a012102422cccca22617043288f1207abb4f2b7d83af6f7c8065ee305c2c363d0dec9d4ffffffff02cc3000000000000017a914a8809814d219938e0faa87fed8df095e305d9d898701c60300000000001976a91470a94ff22dcb580415740c633d574ca7e7599bbc88ac00000000", "vin": [{"sequence": 4294967295, "scriptSig": {"hex": "473044022024ac9ee43cd682c841465c325b8248e0b725ca81e524fe7d1e2c9c18c339d37a022039ba70983ed80f3524b82f9bf6db074bb4b066411f493dd8443f89c7d103a82a012102422cccca22617043288f1207abb4f2b7d83af6f7c8065ee305c2c363d0dec9d4", "asm": "3044022024ac9ee43cd682c841465c325b8248e0b725ca81e524fe7d1e2c9c18c339d37a022039ba70983ed80f3524b82f9bf6db074bb4b066411f493dd8443f89c7d103a82a[ALL] 02422cccca22617043288f1207abb4f2b7d83af6f7c8065ee305c2c363d0dec9d4"}, "vout": 0, "txid": "23bae09e8b8f19f176fd8d8cc0b6c93593a3437cd526e4b0b404c81274f7304a"}], "txid": "4eca8c7c987bd69797ada0d80652023c1b445f174f75037a0dc02c6425a4a749", "blocktime": 1537873282, "version": 1, "confirmations": 11484, "time": 1537873282, "locktime": 0, "vsize": 223, "size": 223}