{"hash": "4ecb73532f37d9b9b1e15cf20aa3f0daa684aabdbcbfbc5d937a3c5995c50d35", "blockhash": "0000000000000000001cda96e906b7601b7a6fb1a3b62bca570a9e5d8f4b3de1", "vout": [{"scriptPubKey": {"reqSigs": 1, "hex": "76a91477a8f8cd05edbc6a6d791286e7f57a65fb3b7d8188ac", "addresses": ["1BuhqCayR9aCEdKNBRF23tzfjfM299VR5e"], "asm": "OP_DUP OP_HASH160 77a8f8cd05edbc6a6d791286e7f57a65fb3b7d81 OP_EQUALVERIFY OP_CHECKSIG", "type": "pubkeyhash"}, "value": 0.00017353, "n": 0}], "hex": "01000000018a3d75fdad503ce27ab661cd575e5b54da81720243e060d35236b64a37447792010000006a47304402205dcc6eb896c02ac0da3ee8ddb3f763559f79f946ad255479c121a4efdbeec0e20220241fc8ef867c1a5bac7b0b563a0c7c87aa67f797a2d48dbc9a563c12349a0b77012103776ef03eb34d23f9f71a5bf6f9e70d84f93a4e99acace304a00927827989939cffffffff01c9430000000000001976a91477a8f8cd05edbc6a6d791286e7f57a65fb3b7d8188ac00000000", "vin": [{"sequence": 4294967295, "scriptSig": {"hex": "47304402205dcc6eb896c02ac0da3ee8ddb3f763559f79f946ad255479c121a4efdbeec0e20220241fc8ef867c1a5bac7b0b563a0c7c87aa67f797a2d48dbc9a563c12349a0b77012103776ef03eb34d23f9f71a5bf6f9e70d84f93a4e99acace304a00927827989939c", "asm": "304402205dcc6eb896c02ac0da3ee8ddb3f763559f79f946ad255479c121a4efdbeec0e20220241fc8ef867c1a5bac7b0b563a0c7c87aa67f797a2d48dbc9a563c12349a0b77[ALL] 03776ef03eb34d23f9f71a5bf6f9e70d84f93a4e99acace304a00927827989939c"}, "vout": 1, "txid": "927744374ab63652d360e043027281da545b5e57cd61b67ae23c50adfd753d8a"}], "txid": "4ecb73532f37d9b9b1e15cf20aa3f0daa684aabdbcbfbc5d937a3c5995c50d35", "blocktime": 1537873282, "version": 1, "confirmations": 11481, "time": 1537873282, "locktime": 0, "vsize": 191, "size": 191}