{"hash": "7f57e2c2f5f7c9aebeff1eba0fbfc29fc83b07f81cdbf30c3add436a7abc3f84", "blockhash": "000000000000000000022b45ed06c6f4ccd3cf7fb5ba4856ebd2e58215665228", "vout": [{"scriptPubKey": {"reqSigs": 1, "hex": "a914309c303d036e9b723205ace9b698989364969b2687", "addresses": ["3683Tuy7rV67V8GyJm6EaqH3WpfYbp84F4"], "asm": "OP_HASH160 309c303d036e9b723205ace9b698989364969b26 OP_EQUAL", "type": "scripthash"}, "value": 0.05707714, "n": 0}], "hex": "02000000000101d6504332ef67e5cadc42ae17b877de14f10860390ea07275afdcc2483dc873350100000000b104000001c21757000000000017a914309c303d036e9b723205ace9b698989364969b268703483045022100f995be11076bdc0c2e5c7b4b2022fcf2a83c26a89f26a0c04e7f2db1102558770220023840d5fdf49ed9b1cd4006822288e34a898f0333bd6bd0ae31e411165ed18601004d632102f712d46a702e1d5f66914c12c481b4161ec95ca20c7f705a2154aca3c64563566702b104b275210329b93f759d3d50a866b7ba88fc3693c7477908d18f72d0a9b91d4b27938d052c68ac00000000", "vin": [{"txinwitness": ["3045022100f995be11076bdc0c2e5c7b4b2022fcf2a83c26a89f26a0c04e7f2db1102558770220023840d5fdf49ed9b1cd4006822288e34a898f0333bd6bd0ae31e411165ed18601", "", "632102f712d46a702e1d5f66914c12c481b4161ec95ca20c7f705a2154aca3c64563566702b104b275210329b93f759d3d50a866b7ba88fc3693c7477908d18f72d0a9b91d4b27938d052c68ac"], "sequence": 1201, "scriptSig": {"hex": "", "asm": ""}, "vout": 1, "txid": "3573c83d48c2dcaf7572a00e396008f114de77b817ae42dccae567ef324350d6"}], "txid": "4ed02f26b957b2b0462833ffc1d7c6b41679c6303d85ee17f10e6befbffbd987", "blocktime": 1537869901, "version": 2, "confirmations": 11524, "time": 1537869901, "locktime": 0, "vsize": 122, "size": 238}