{"hash": "4ed7e9ccaec90dfbd6c5dde9afa8b22f0f6e55d7a18e1d9f95f7e5a5cf8c850d", "blockhash": "0000000000000000001f76057863aec43deb6fa401d9628bb513d65a8098bfab", "vout": [{"scriptPubKey": {"reqSigs": 1, "hex": "76a914686f8d2f4f661155f169d37b62f12fb31358e73288ac", "addresses": ["1AXCugiGciZRjzMjd2FKhvuV4tShRH1osr"], "asm": "OP_DUP OP_HASH160 686f8d2f4f661155f169d37b62f12fb31358e732 OP_EQUALVERIFY OP_CHECKSIG", "type": "pubkeyhash"}, "value": 0.01185513, "n": 0}, {"scriptPubKey": {"reqSigs": 1, "hex": "a91413ae9bc0d25651c74572798313fbf42ec8a5146287", "addresses": ["33V5wCBaCJW9euuDWYmGdLwi3dszaAyN2T"], "asm": "OP_HASH160 13ae9bc0d25651c74572798313fbf42ec8a51462 OP_EQUAL", "type": "scripthash"}, "value": 0.00809766, "n": 1}], "hex": "02000000025e2f8343369a9772ff845c1afb6dfc7f69053aae46a88085e29ca79343636785000000006b483045022100f66a5fbdc4b2aa2fcdf46fc5c424aff4ac909437697a4c8b87c19095099d4cb102202a72bad27c7e635be384ec31071a6332ca9be23aa700945b17738c094c944764012102cb664732ec8020e973c332430373d6927f4e9a6acd0c18d2d303363d2d4686acfefffffffe72a8c9bbc68d3fd82c609bf8d64ec38054a5a2abd8a7454f048c9a755162c0010000006a473044022067eac2619801eb94918f5bea4b4b1590a6421e295af5369f90ae698729f26de30220318e0ad474a633935b62a69d8de85355d45803f50b91990de3c35f55bb6a14990121031b229acba57b5c3fdef6a520584c6f216832bc5599d80988afb6f7ad78c623d5feffffff02e9161200000000001976a914686f8d2f4f661155f169d37b62f12fb31358e73288ac265b0c000000000017a91413ae9bc0d25651c74572798313fbf42ec8a514628713490800", "vin": [{"sequence": 4294967294, "scriptSig": {"hex": "483045022100f66a5fbdc4b2aa2fcdf46fc5c424aff4ac909437697a4c8b87c19095099d4cb102202a72bad27c7e635be384ec31071a6332ca9be23aa700945b17738c094c944764012102cb664732ec8020e973c332430373d6927f4e9a6acd0c18d2d303363d2d4686ac", "asm": "3045022100f66a5fbdc4b2aa2fcdf46fc5c424aff4ac909437697a4c8b87c19095099d4cb102202a72bad27c7e635be384ec31071a6332ca9be23aa700945b17738c094c944764[ALL] 02cb664732ec8020e973c332430373d6927f4e9a6acd0c18d2d303363d2d4686ac"}, "vout": 0, "txid": "8567634393a79ce28580a846ae3a05697ffc6dfb1a5c84ff72979a3643832f5e"}, {"sequence": 4294967294, "scriptSig": {"hex": "473044022067eac2619801eb94918f5bea4b4b1590a6421e295af5369f90ae698729f26de30220318e0ad474a633935b62a69d8de85355d45803f50b91990de3c35f55bb6a14990121031b229acba57b5c3fdef6a520584c6f216832bc5599d80988afb6f7ad78c623d5", "asm": "3044022067eac2619801eb94918f5bea4b4b1590a6421e295af5369f90ae698729f26de30220318e0ad474a633935b62a69d8de85355d45803f50b91990de3c35f55bb6a1499[ALL] 031b229acba57b5c3fdef6a520584c6f216832bc5599d80988afb6f7ad78c623d5"}, "vout": 1, "txid": "c06251759a8c044f45a7d8aba2a55480c34ed6f89b602cd83f8dc6bbc9a872fe"}], "txid": "4ed7e9ccaec90dfbd6c5dde9afa8b22f0f6e55d7a18e1d9f95f7e5a5cf8c850d", "blocktime": 1537873891, "version": 2, "confirmations": 11478, "time": 1537873891, "locktime": 542995, "vsize": 371, "size": 371}