{"hash": "4edafc5cb96f6e7b0b8d3ef1834a754327ac7718032d24b193bb7c60dd74b93d", "blockhash": "0000000000000000000baef3f32e3676a92c3b2e5da21b426e4f302fc371ce76", "vout": [{"scriptPubKey": {"reqSigs": 1, "hex": "a914df597b1c306b1c51d22784f9d2f5d59b4455718787", "addresses": ["3N3yoZeqKePHXU7YMTgm11GBEPxaGPZAu1"], "asm": "OP_HASH160 df597b1c306b1c51d22784f9d2f5d59b44557187 OP_EQUAL", "type": "scripthash"}, "value": 0.04142383, "n": 0}, {"scriptPubKey": {"reqSigs": 1, "hex": "76a914241448b3d9379e98f389c2e5e0312afca7b77c8388ac", "addresses": ["14HmdGE8ifo5BRXYzxHDrnKrzCrBbSDpaP"], "asm": "OP_DUP OP_HASH160 241448b3d9379e98f389c2e5e0312afca7b77c83 OP_EQUALVERIFY OP_CHECKSIG", "type": "pubkeyhash"}, "value": 0.63144042, "n": 1}], "hex": "01000000012042f25349bc05f0a10e871317be890a4b9cacb6fee8e893279b8ecf22e06004010000006a473044022006ec06ec704173a1dfe00ff0e7e6cffee2d66410d89f538cb2448a6c4e53bf850220216bc1c5b807dd86711f640e492994737b5fa693e4d59693a8aa6e7468518585012103a9c65f9895f1ffb05b4ce827967b6baf9498b3b1092d42e69dba475489245a58ffffffff022f353f000000000017a914df597b1c306b1c51d22784f9d2f5d59b44557187876a80c303000000001976a914241448b3d9379e98f389c2e5e0312afca7b77c8388ac00000000", "vin": [{"sequence": 4294967295, "scriptSig": {"hex": "473044022006ec06ec704173a1dfe00ff0e7e6cffee2d66410d89f538cb2448a6c4e53bf850220216bc1c5b807dd86711f640e492994737b5fa693e4d59693a8aa6e7468518585012103a9c65f9895f1ffb05b4ce827967b6baf9498b3b1092d42e69dba475489245a58", "asm": "3044022006ec06ec704173a1dfe00ff0e7e6cffee2d66410d89f538cb2448a6c4e53bf850220216bc1c5b807dd86711f640e492994737b5fa693e4d59693a8aa6e7468518585[ALL] 03a9c65f9895f1ffb05b4ce827967b6baf9498b3b1092d42e69dba475489245a58"}, "vout": 1, "txid": "0460e022cf8e9b2793e8e8feb6ac9c4b0a89be1713870ea1f005bc4953f24220"}], "txid": "4edafc5cb96f6e7b0b8d3ef1834a754327ac7718032d24b193bb7c60dd74b93d", "blocktime": 1537876114, "version": 1, "confirmations": 11460, "time": 1537876114, "locktime": 0, "vsize": 223, "size": 223}