{"hash": "9f011299b23d4b09880f6d1ed0054fe87f409dedd06e65a333ec98324483b74b", "blockhash": "0000000000000000001f0ddff1eddb255c1121bcd4da4f1bc9a0da00cae72433", "vout": [{"scriptPubKey": {"reqSigs": 1, "hex": "a91469f37639bd2cf5d754f87511f4c5737bf7a5800d87", "addresses": ["3BMEXi7YEqfmLJfeKPZ6TJhqchqGBhE8ss"], "asm": "OP_HASH160 69f37639bd2cf5d754f87511f4c5737bf7a5800d OP_EQUAL", "type": "scripthash"}, "value": 2.0, "n": 0}, {"scriptPubKey": {"reqSigs": 1, "hex": "a9146e6c356c6c4dc838d9c195fc705179a0b38c427287", "addresses": ["3Bkst7hn95efanpDZFt3cmJzvqmvWzuuHT"], "asm": "OP_HASH160 6e6c356c6c4dc838d9c195fc705179a0b38c4272 OP_EQUAL", "type": "scripthash"}, "value": 1.00087697, "n": 1}], "hex": "01000000000101ed46abdec918965cbd1cf4b54ea268eb3f3af81c641cf77bfcabb2b3689d27a801000000171600147ea2ecfd154a5bfde00b3d7f1a5b8fbbe1c76554ffffffff0200c2eb0b0000000017a91469f37639bd2cf5d754f87511f4c5737bf7a5800d879137f7050000000017a9146e6c356c6c4dc838d9c195fc705179a0b38c4272870247304402203fcc8f339487b22b70aac4375929a42e213b08f957b2dcab7ca9dfb7474cb82202203a97089fba5a0768bd29d90893b43beca8ad5f50de433bd4bbc08165f5a7e8b3012102061de472d0bfa402eac4f691b5d8e6e8caefdbc27c4c093583cc632c4b1e777a00000000", "vin": [{"txinwitness": ["304402203fcc8f339487b22b70aac4375929a42e213b08f957b2dcab7ca9dfb7474cb82202203a97089fba5a0768bd29d90893b43beca8ad5f50de433bd4bbc08165f5a7e8b301", "02061de472d0bfa402eac4f691b5d8e6e8caefdbc27c4c093583cc632c4b1e777a"], "sequence": 4294967295, "scriptSig": {"hex": "1600147ea2ecfd154a5bfde00b3d7f1a5b8fbbe1c76554", "asm": "00147ea2ecfd154a5bfde00b3d7f1a5b8fbbe1c76554"}, "vout": 1, "txid": "a8279d68b3b2abfc7bf71c641cf83a3feb68a24eb5f41cbd5c9618c9deab46ed"}], "txid": "4edbf0fda9f91ac342d7f54486bea8eff155d83f539b9b139dc91a9ca8d01481", "blocktime": 1537872018, "version": 1, "confirmations": 11489, "time": 1537872018, "locktime": 0, "vsize": 166, "size": 247}