{"hash": "2dd0714b909929f8b1f6d27ec8fd8fefc727cc4a268921b3f0c8cb600bfafcfa", "blockhash": "0000000000000000001cda96e906b7601b7a6fb1a3b62bca570a9e5d8f4b3de1", "vout": [{"scriptPubKey": {"reqSigs": 1, "hex": "a9143d49d116c327c661ab86adbbf6a9e736c39c9dcd87", "addresses": ["37H5a87FHBQxdzKL84P9Uo8bbmRXpQN6iU"], "asm": "OP_HASH160 3d49d116c327c661ab86adbbf6a9e736c39c9dcd OP_EQUAL", "type": "scripthash"}, "value": 6e-05, "n": 0}, {"scriptPubKey": {"reqSigs": 1, "hex": "a9141d7370ccde4590204155e4074f69743a8e4fac0287", "addresses": ["34Njp4ZKtmCDfqqps26wHBYQQGUo2pGkLi"], "asm": "OP_HASH160 1d7370ccde4590204155e4074f69743a8e4fac02 OP_EQUAL", "type": "scripthash"}, "value": 9.256e-05, "n": 1}], "hex": "010000000001014fe89f226e43c9bdfef507615fbfabf982ccaa8e7fe436247c21b960aeb118a60000000023220020f63dfc12340f6360d0251c22746d6b56093e3243e96ca012a65484a5d9cf0ec0ffffffff02701700000000000017a9143d49d116c327c661ab86adbbf6a9e736c39c9dcd87282400000000000017a9141d7370ccde4590204155e4074f69743a8e4fac02870400483045022100d007a9b77fd41aa6c89420f9f38d8af4260c4c450f97684a7a4a0e37811e686d02203e2d3eac6906eba554b5148cc38552dc6cd37ce70c2a23b3a6eb579e764d7d6d01473044022008f5b728200808e9117f664a29a1039b67bb030d60e2a9f85a02c2499d28e6c60220228e22d7550944f8abc73eaa43b1a09060ac9df2a7998dca412568ecadaefbe30147522102097067a6a0cc130a9a6f6577b47bf369b840a79de31cd7457187994266b1bb7c2103338f346cab6ba87fe940591a03ac234be06520c5ab386d4b6632e8eef0d0db7652ae00000000", "vin": [{"txinwitness": ["", "3045022100d007a9b77fd41aa6c89420f9f38d8af4260c4c450f97684a7a4a0e37811e686d02203e2d3eac6906eba554b5148cc38552dc6cd37ce70c2a23b3a6eb579e764d7d6d01", "3044022008f5b728200808e9117f664a29a1039b67bb030d60e2a9f85a02c2499d28e6c60220228e22d7550944f8abc73eaa43b1a09060ac9df2a7998dca412568ecadaefbe301", "522102097067a6a0cc130a9a6f6577b47bf369b840a79de31cd7457187994266b1bb7c2103338f346cab6ba87fe940591a03ac234be06520c5ab386d4b6632e8eef0d0db7652ae"], "sequence": 4294967295, "scriptSig": {"hex": "220020f63dfc12340f6360d0251c22746d6b56093e3243e96ca012a65484a5d9cf0ec0", "asm": "0020f63dfc12340f6360d0251c22746d6b56093e3243e96ca012a65484a5d9cf0ec0"}, "vout": 0, "txid": "a618b1ae60b9217c2436e47f8eaacc82f9abbf5f6107f5febdc9436e229fe84f"}], "txid": "4eded612ac0fd016b6ca2dcbb327673d8498163daa755e5790c01e1f1e74b186", "blocktime": 1537873282, "version": 1, "confirmations": 11485, "time": 1537873282, "locktime": 0, "vsize": 206, "size": 371}