{"hash": "e7b0ed6c2769578c19df8d105e120544d2abe3a9140a81f274b4eb496b784fc2", "blockhash": "0000000000000000001e0dab787dd257d1dbfcb92a98c2207d5e1078be1f4165", "vout": [{"scriptPubKey": {"reqSigs": 1, "hex": "0014da9947049907065147627cf4f3a1eb5b7ad25af5", "addresses": ["bc1qm2v5wpyequr9z3mz0n608g0ttdadykh48aljq7"], "asm": "0 da9947049907065147627cf4f3a1eb5b7ad25af5", "type": "witness_v0_keyhash"}, "value": 0.00240036, "n": 0}, {"scriptPubKey": {"reqSigs": 1, "hex": "76a9144c58a11deb15f51bee1ff2cc3f01075ee0f3867688ac", "addresses": ["17xgXf15TiFVwhZnVibZBkPNP7kHYuWEGU"], "asm": "OP_DUP OP_HASH160 4c58a11deb15f51bee1ff2cc3f01075ee0f38676 OP_EQUALVERIFY OP_CHECKSIG", "type": "pubkeyhash"}, "value": 0.06410337, "n": 1}], "hex": "010000000001011d22786eee210759cabb4827f3ce35449ac651323ede5941a9c788b49b8dfad85900000017160014ef86c90cf43c46c7f1d19d5b3983d263de189986ffffffff02a4a9030000000000160014da9947049907065147627cf4f3a1eb5b7ad25af561d06100000000001976a9144c58a11deb15f51bee1ff2cc3f01075ee0f3867688ac0247304402205aaeedc9cd5d57424cdc6d92cad3a80e1b478a13cb59097c930175e90d3ed57602203d33dda5eab8700d8e47b12e6e89eb5ab992a3e5d686c2fef9eced540d2928570121028e1cccf56473404a1db3ea30af363acf0dd38ebd4be5bb57511ae654c0f07ed600000000", "vin": [{"txinwitness": ["304402205aaeedc9cd5d57424cdc6d92cad3a80e1b478a13cb59097c930175e90d3ed57602203d33dda5eab8700d8e47b12e6e89eb5ab992a3e5d686c2fef9eced540d29285701", "028e1cccf56473404a1db3ea30af363acf0dd38ebd4be5bb57511ae654c0f07ed6"], "sequence": 4294967295, "scriptSig": {"hex": "160014ef86c90cf43c46c7f1d19d5b3983d263de189986", "asm": "0014ef86c90cf43c46c7f1d19d5b3983d263de189986"}, "vout": 89, "txid": "d8fa8d9bb488c7a94159de3e3251c69a4435cef32748bbca590721ee6e78221d"}], "txid": "4ee3a640a48f70bac0ca375231d56467822a8596f8ef976e1f34dea0db1cad9a", "blocktime": 1537872475, "version": 1, "confirmations": 11487, "time": 1537872475, "locktime": 0, "vsize": 167, "size": 248}