{"hash": "4ee6dc54d15793a51859e7293ddc5124273f9b672f64d09d4820d4511a263309", "blockhash": "00000000000000000017f5eb5941039fbcee6240d03bc1f2f8e35350df66a1d8", "vout": [{"scriptPubKey": {"reqSigs": 1, "hex": "76a9145c56843275c28f824bd5d96fe71e4c4c53fb1ca488ac", "addresses": ["19REoux1hJ6rzHusG7ERsUUp3kPZt7qrWJ"], "asm": "OP_DUP OP_HASH160 5c56843275c28f824bd5d96fe71e4c4c53fb1ca4 OP_EQUALVERIFY OP_CHECKSIG", "type": "pubkeyhash"}, "value": 0.0523431, "n": 0}], "hex": "0100000009d3529983d8fa5b44a26403dbe857f86ea3b09c806b1020738b48d5289a82ab75010000006b483045022100d480b957f1be8f066f7a2660f5bbe15d2ab9fbf638ac17073d5f2dd038ad913602200d9a8f30e290fa50cb9c6feff9ed5878c5d4654dd9354d0e71489c3992836566012102bcc33cc1c0a4730e3804696435b699125a175e57399c4f75e47cc400f11de261fffffffff38edb2001001e17fe4cede5a2b058463a1db99d3dd831956fc1dbcbf6ee0929000000006a473044022001e4b83996358b0101bd85f5ce40d314ef28e03c3558e4a5a6205e7ab3e3d9d502206957683db94360f568c5f089a2f21da02bd2de939b28820260b78ee36921e2a6012102ff0d8ff6405eb8f9f393c51d0a99601353e28045dd2a13c67bb52b7554f8acc4ffffffff755e858ba8e954612b8b3a637399e065dadd916ea85047478dc1c0e6eb646cf4000000006b483045022100d8be760fd664a9e1e649ea30a83d899c35b55f5640d83f4e3c7da4ef613afa530220128f523ce81992ba375c0f5a59ddd00df622de72c58ebba17d0b1db66206ac29012102ff0d8ff6405eb8f9f393c51d0a99601353e28045dd2a13c67bb52b7554f8acc4ffffffff3c7d9f9da61adc666527d45a0ddb5bf13abcecb5c887dadf9d8d9ab61afa06c0010000006b4830450221008adcf60621ca0375e8cdba442b743202dbb77005783afe50507287d1d4e3a04102204271c842b157b03079852348a90f4d3a1f8fc6f046aae57d50c0c37d170281550121034c8e282ad03873755d44ef5f4d526dba56a8ca2dae264ed0bddded16c4ef63c6ffffffff70eeb0c320e6eb0d4d5cb26dbfb63b9f334def29a7e96eb6bc8f3934c2238e91010000006b483045022100e57d16d06107bbcaf96f1f27eaa00985d00b2940da663b8e143d003fe3fb02560220508c991bc669e90fbe8c1cfd22a476d2f8ecd0de67ae20de410613f176249d96012103967f11de96e6c1304629bc70738211f04996efec484d9c4cb4f9d54136cfbe91ffffffff3878d4dfeadedc1b9a2cc16f0ccd8af0086d36a751d8255d52c6a4bd2de7ac64000000006a47304402204267d0f9942e0e39c4d1be46f9cd25ebbfddc6cd5be0f40736cb375f5c40429d022074f01bf3c305c97a569804a1dba55d3b3271c6d229f5d456548725b16f3cb50d01210365a348e26df5641462e08d3a21433934e486adf26453a295c6aa265a536cea6affffffffaef948b5d6fd8681f8a68167ea37d89b57e111781922ed36df21613760fb97ae000000006b4830450221008569c8eefcfdc8c6f68ddf75e2a7e59939d303692fceaead5ddcb18dacfb420f022070e97998484a99d9931d701a0e4aa1929e7b25463693876c5bff11fc5d67912d012103967f11de96e6c1304629bc70738211f04996efec484d9c4cb4f9d54136cfbe91ffffffffdac944bd8b857ecbe4f1563c8b9cb8b1fb54b550b941df7dd4c08167dea4a681010000006a4730440220755c1c448decbf50ee9642e89a5ca5a63c44a0bdbec0ae24291f5965eafcff000220647f960c2e5dc57cf7d7f5c64c280f691b51e554d1b71e20a55a6a7ae35027e70121027455937d92ab578be86b48552df3b889b97d15282e32c94b65b3f6a89597b30fffffffffd0c1e321f597a098a81581739721de0cb5d801645b8aa03dbbae27489ccff3ed000000006b483045022100d91c183306a51840af0e4b7f14e620b55053139b0f3602e18a6ece06588bbb81022066dd9835911f515fd667de6ae9e71b4391fcd4f4339d2f7b0207bc1a0df86d8c012103967f11de96e6c1304629bc70738211f04996efec484d9c4cb4f9d54136cfbe91ffffffff0186de4f00000000001976a9145c56843275c28f824bd5d96fe71e4c4c53fb1ca488ac00000000", "vin": [{"sequence": 4294967295, "scriptSig": {"hex": "483045022100d480b957f1be8f066f7a2660f5bbe15d2ab9fbf638ac17073d5f2dd038ad913602200d9a8f30e290fa50cb9c6feff9ed5878c5d4654dd9354d0e71489c3992836566012102bcc33cc1c0a4730e3804696435b699125a175e57399c4f75e47cc400f11de261", "asm": "3045022100d480b957f1be8f066f7a2660f5bbe15d2ab9fbf638ac17073d5f2dd038ad913602200d9a8f30e290fa50cb9c6feff9ed5878c5d4654dd9354d0e71489c3992836566[ALL] 02bcc33cc1c0a4730e3804696435b699125a175e57399c4f75e47cc400f11de261"}, "vout": 1, "txid": "75ab829a28d5488b7320106b809cb0a36ef857e8db0364a2445bfad8839952d3"}, {"sequence": 4294967295, "scriptSig": {"hex": "473044022001e4b83996358b0101bd85f5ce40d314ef28e03c3558e4a5a6205e7ab3e3d9d502206957683db94360f568c5f089a2f21da02bd2de939b28820260b78ee36921e2a6012102ff0d8ff6405eb8f9f393c51d0a99601353e28045dd2a13c67bb52b7554f8acc4", "asm": "3044022001e4b83996358b0101bd85f5ce40d314ef28e03c3558e4a5a6205e7ab3e3d9d502206957683db94360f568c5f089a2f21da02bd2de939b28820260b78ee36921e2a6[ALL] 02ff0d8ff6405eb8f9f393c51d0a99601353e28045dd2a13c67bb52b7554f8acc4"}, "vout": 0, "txid": "2909eef6cbdbc16f9531d83d9db91d3a4658b0a2e5ed4cfe171e000120db8ef3"}, {"sequence": 4294967295, "scriptSig": {"hex": "483045022100d8be760fd664a9e1e649ea30a83d899c35b55f5640d83f4e3c7da4ef613afa530220128f523ce81992ba375c0f5a59ddd00df622de72c58ebba17d0b1db66206ac29012102ff0d8ff6405eb8f9f393c51d0a99601353e28045dd2a13c67bb52b7554f8acc4", "asm": "3045022100d8be760fd664a9e1e649ea30a83d899c35b55f5640d83f4e3c7da4ef613afa530220128f523ce81992ba375c0f5a59ddd00df622de72c58ebba17d0b1db66206ac29[ALL] 02ff0d8ff6405eb8f9f393c51d0a99601353e28045dd2a13c67bb52b7554f8acc4"}, "vout": 0, "txid": "f46c64ebe6c0c18d474750a86e91ddda65e09973633a8b2b6154e9a88b855e75"}, {"sequence": 4294967295, "scriptSig": {"hex": "4830450221008adcf60621ca0375e8cdba442b743202dbb77005783afe50507287d1d4e3a04102204271c842b157b03079852348a90f4d3a1f8fc6f046aae57d50c0c37d170281550121034c8e282ad03873755d44ef5f4d526dba56a8ca2dae264ed0bddded16c4ef63c6", "asm": "30450221008adcf60621ca0375e8cdba442b743202dbb77005783afe50507287d1d4e3a04102204271c842b157b03079852348a90f4d3a1f8fc6f046aae57d50c0c37d17028155[ALL] 034c8e282ad03873755d44ef5f4d526dba56a8ca2dae264ed0bddded16c4ef63c6"}, "vout": 1, "txid": "c006fa1ab69a8d9ddfda87c8b5ecbc3af15bdb0d5ad4276566dc1aa69d9f7d3c"}, {"sequence": 4294967295, "scriptSig": {"hex": "483045022100e57d16d06107bbcaf96f1f27eaa00985d00b2940da663b8e143d003fe3fb02560220508c991bc669e90fbe8c1cfd22a476d2f8ecd0de67ae20de410613f176249d96012103967f11de96e6c1304629bc70738211f04996efec484d9c4cb4f9d54136cfbe91", "asm": "3045022100e57d16d06107bbcaf96f1f27eaa00985d00b2940da663b8e143d003fe3fb02560220508c991bc669e90fbe8c1cfd22a476d2f8ecd0de67ae20de410613f176249d96[ALL] 03967f11de96e6c1304629bc70738211f04996efec484d9c4cb4f9d54136cfbe91"}, "vout": 1, "txid": "918e23c234398fbcb66ee9a729ef4d339f3bb6bf6db25c4d0debe620c3b0ee70"}, {"sequence": 4294967295, "scriptSig": {"hex": "47304402204267d0f9942e0e39c4d1be46f9cd25ebbfddc6cd5be0f40736cb375f5c40429d022074f01bf3c305c97a569804a1dba55d3b3271c6d229f5d456548725b16f3cb50d01210365a348e26df5641462e08d3a21433934e486adf26453a295c6aa265a536cea6a", "asm": "304402204267d0f9942e0e39c4d1be46f9cd25ebbfddc6cd5be0f40736cb375f5c40429d022074f01bf3c305c97a569804a1dba55d3b3271c6d229f5d456548725b16f3cb50d[ALL] 0365a348e26df5641462e08d3a21433934e486adf26453a295c6aa265a536cea6a"}, "vout": 0, "txid": "64ace72dbda4c6525d25d851a7366d08f08acd0c6fc12c9a1bdcdeeadfd47838"}, {"sequence": 4294967295, "scriptSig": {"hex": "4830450221008569c8eefcfdc8c6f68ddf75e2a7e59939d303692fceaead5ddcb18dacfb420f022070e97998484a99d9931d701a0e4aa1929e7b25463693876c5bff11fc5d67912d012103967f11de96e6c1304629bc70738211f04996efec484d9c4cb4f9d54136cfbe91", "asm": "30450221008569c8eefcfdc8c6f68ddf75e2a7e59939d303692fceaead5ddcb18dacfb420f022070e97998484a99d9931d701a0e4aa1929e7b25463693876c5bff11fc5d67912d[ALL] 03967f11de96e6c1304629bc70738211f04996efec484d9c4cb4f9d54136cfbe91"}, "vout": 0, "txid": "ae97fb60376121df36ed22197811e1579bd837ea6781a6f88186fdd6b548f9ae"}, {"sequence": 4294967295, "scriptSig": {"hex": "4730440220755c1c448decbf50ee9642e89a5ca5a63c44a0bdbec0ae24291f5965eafcff000220647f960c2e5dc57cf7d7f5c64c280f691b51e554d1b71e20a55a6a7ae35027e70121027455937d92ab578be86b48552df3b889b97d15282e32c94b65b3f6a89597b30f", "asm": "30440220755c1c448decbf50ee9642e89a5ca5a63c44a0bdbec0ae24291f5965eafcff000220647f960c2e5dc57cf7d7f5c64c280f691b51e554d1b71e20a55a6a7ae35027e7[ALL] 027455937d92ab578be86b48552df3b889b97d15282e32c94b65b3f6a89597b30f"}, "vout": 1, "txid": "81a6a4de6781c0d47ddf41b950b554fbb1b89c8b3c56f1e4cb7e858bbd44c9da"}, {"sequence": 4294967295, "scriptSig": {"hex": "483045022100d91c183306a51840af0e4b7f14e620b55053139b0f3602e18a6ece06588bbb81022066dd9835911f515fd667de6ae9e71b4391fcd4f4339d2f7b0207bc1a0df86d8c012103967f11de96e6c1304629bc70738211f04996efec484d9c4cb4f9d54136cfbe91", "asm": "3045022100d91c183306a51840af0e4b7f14e620b55053139b0f3602e18a6ece06588bbb81022066dd9835911f515fd667de6ae9e71b4391fcd4f4339d2f7b0207bc1a0df86d8c[ALL] 03967f11de96e6c1304629bc70738211f04996efec484d9c4cb4f9d54136cfbe91"}, "vout": 0, "txid": "edf3cf9c4827aebb3da08a5b6401d8b50cde2197738115a898a097f521e3c1d0"}], "txid": "4ee6dc54d15793a51859e7293ddc5124273f9b672f64d09d4820d4511a263309", "blocktime": 1537874412, "version": 1, "confirmations": 11467, "time": 1537874412, "locktime": 0, "vsize": 1373, "size": 1373}