{"hash": "4eea8885beafdc2c029f4b29e99e676ea94429ab31d2e30adceacc865be992f1", "blockhash": "00000000000000000017f5eb5941039fbcee6240d03bc1f2f8e35350df66a1d8", "vout": [{"scriptPubKey": {"reqSigs": 1, "hex": "76a91414535d9de7412782d155a4b3f385476c1053beac88ac", "addresses": ["12rUPBoreFrkNQGQtyqWXojMc2qSJXMuh8"], "asm": "OP_DUP OP_HASH160 14535d9de7412782d155a4b3f385476c1053beac OP_EQUALVERIFY OP_CHECKSIG", "type": "pubkeyhash"}, "value": 3.01995607, "n": 0}], "hex": "0100000001469a6b8ee0dba7eaf4068a9b4902436db2d030c519d907453db8390ca202c2cd000000006a47304402203aa8bcd4ddc89305b161b17777a48659653e3da30947c7765326588658cd317c022040a96c326bd9ccd06737b0858fc6fe596c15e965077a886f3bb7b7002234a53d012102f08174545d7f226f99b6f6ff223bc743a49868147e7c5b9e9397eb35dde438aaffffffff0157160012000000001976a91414535d9de7412782d155a4b3f385476c1053beac88ac00000000", "vin": [{"sequence": 4294967295, "scriptSig": {"hex": "47304402203aa8bcd4ddc89305b161b17777a48659653e3da30947c7765326588658cd317c022040a96c326bd9ccd06737b0858fc6fe596c15e965077a886f3bb7b7002234a53d012102f08174545d7f226f99b6f6ff223bc743a49868147e7c5b9e9397eb35dde438aa", "asm": "304402203aa8bcd4ddc89305b161b17777a48659653e3da30947c7765326588658cd317c022040a96c326bd9ccd06737b0858fc6fe596c15e965077a886f3bb7b7002234a53d[ALL] 02f08174545d7f226f99b6f6ff223bc743a49868147e7c5b9e9397eb35dde438aa"}, "vout": 0, "txid": "cdc202a20c39b83d4507d919c530d0b26d4302499b8a06f4eaa7dbe08e6b9a46"}], "txid": "4eea8885beafdc2c029f4b29e99e676ea94429ab31d2e30adceacc865be992f1", "blocktime": 1537874412, "version": 1, "confirmations": 11467, "time": 1537874412, "locktime": 0, "vsize": 191, "size": 191}