{"hash": "4eee6eb43048839bf5f32ff949577775dc59085b1557a18bf6572ecd1defeaef", "blockhash": "0000000000000000001f0ddff1eddb255c1121bcd4da4f1bc9a0da00cae72433", "vout": [{"scriptPubKey": {"reqSigs": 1, "hex": "76a914ad8ee05f2946629eaa40c6969b1a2917ed28e80488ac", "addresses": ["1Gph4RAQ515afWM4QyfoVwJXtdXd9KX4cZ"], "asm": "OP_DUP OP_HASH160 ad8ee05f2946629eaa40c6969b1a2917ed28e804 OP_EQUALVERIFY OP_CHECKSIG", "type": "pubkeyhash"}, "value": 0.030297, "n": 0}, {"scriptPubKey": {"reqSigs": 1, "hex": "76a914c11a1129db8286e09669076d2e397eb67b58f68a88ac", "addresses": ["1Jc2eCDHFey3vtwz8APK7ZNTtWSn8i9KG5"], "asm": "OP_DUP OP_HASH160 c11a1129db8286e09669076d2e397eb67b58f68a OP_EQUALVERIFY OP_CHECKSIG", "type": "pubkeyhash"}, "value": 0.075, "n": 1}], "hex": "01000000013f24fd05c608532660fa713269ef7cbdee388f90c70b485d0ef97c54ac887c45010000006b483045022100fc674d69d573a59f569a281fe76847f2eba08e95a08a6d8ea1a8b803e5d50e71022069f26a629e885f1fbd63701f367888e1308b55ccd799653dbba30b4898a65f14012103d715b41c619108825001fb4edbbbb27c12d39f9a165a0ba1aa329e76064a63d9feffffff02c43a2e00000000001976a914ad8ee05f2946629eaa40c6969b1a2917ed28e80488ace0707200000000001976a914c11a1129db8286e09669076d2e397eb67b58f68a88ac11490800", "vin": [{"sequence": 4294967294, "scriptSig": {"hex": "483045022100fc674d69d573a59f569a281fe76847f2eba08e95a08a6d8ea1a8b803e5d50e71022069f26a629e885f1fbd63701f367888e1308b55ccd799653dbba30b4898a65f14012103d715b41c619108825001fb4edbbbb27c12d39f9a165a0ba1aa329e76064a63d9", "asm": "3045022100fc674d69d573a59f569a281fe76847f2eba08e95a08a6d8ea1a8b803e5d50e71022069f26a629e885f1fbd63701f367888e1308b55ccd799653dbba30b4898a65f14[ALL] 03d715b41c619108825001fb4edbbbb27c12d39f9a165a0ba1aa329e76064a63d9"}, "vout": 1, "txid": "457c88ac547cf90e5d480bc7908f38eebd7cef693271fa60265308c605fd243f"}], "txid": "4eee6eb43048839bf5f32ff949577775dc59085b1557a18bf6572ecd1defeaef", "blocktime": 1537872018, "version": 1, "confirmations": 11489, "time": 1537872018, "locktime": 542993, "vsize": 226, "size": 226}