{"hash": "4ef15887e4bb28fd317f366248d856622c043c18e0fd8e9a9f480c291744078b", "blockhash": "00000000000000000004ffacab907a6b429b9a5745fa0b75af4234bf69dd7176", "vout": [{"scriptPubKey": {"reqSigs": 1, "hex": "76a914eb72440167c97b50872232660a031e1c3829389788ac", "addresses": ["1NTvgPzezWm66LXQGsWFcCheoZsuaqR3fE"], "asm": "OP_DUP OP_HASH160 eb72440167c97b50872232660a031e1c38293897 OP_EQUALVERIFY OP_CHECKSIG", "type": "pubkeyhash"}, "value": 0.00155035, "n": 0}, {"scriptPubKey": {"reqSigs": 1, "hex": "76a914b942e1dec0f174b8b2bb456294fec9fafdb8263388ac", "addresses": ["1Hta8Z49u4zTkXAFsPYMb4QxqWNnC29R5Y"], "asm": "OP_DUP OP_HASH160 b942e1dec0f174b8b2bb456294fec9fafdb82633 OP_EQUALVERIFY OP_CHECKSIG", "type": "pubkeyhash"}, "value": 0.00593802, "n": 1}], "hex": "01000000029b01cd4a940e3a76e7fd5d5115eda99c16ff30c48f7d676262edc69bb0755a65010000006b483045022100f040743d000e4c401b13d8e03ff83551438d16cd84f1606a9adf773e3c746d0102206de07f4a0abe91227b7e0d11aee1ee15aec2e95741f07bcd7b6d533a8cb06e3301210379c5042598076ebbfcafe33264d1d2792666eeb2ef60d1d74784e8ee8059ed47ffffffff919f57e94624c6f8d652da73d95a415ec1d94fe86dd444ec63d01be4350bae86010000006b483045022100c7538ee574713bca06ce629c28d9ba1c6be5071591a2a42ed2c3ae257e0c539d022045076d2394a4e8046cb11f41a2ad088137e97074e9b5488ec9fc7484ae32430001210379c5042598076ebbfcafe33264d1d2792666eeb2ef60d1d74784e8ee8059ed47ffffffff029b5d0200000000001976a914eb72440167c97b50872232660a031e1c3829389788ac8a0f0900000000001976a914b942e1dec0f174b8b2bb456294fec9fafdb8263388ac00000000", "vin": [{"sequence": 4294967295, "scriptSig": {"hex": "483045022100f040743d000e4c401b13d8e03ff83551438d16cd84f1606a9adf773e3c746d0102206de07f4a0abe91227b7e0d11aee1ee15aec2e95741f07bcd7b6d533a8cb06e3301210379c5042598076ebbfcafe33264d1d2792666eeb2ef60d1d74784e8ee8059ed47", "asm": "3045022100f040743d000e4c401b13d8e03ff83551438d16cd84f1606a9adf773e3c746d0102206de07f4a0abe91227b7e0d11aee1ee15aec2e95741f07bcd7b6d533a8cb06e33[ALL] 0379c5042598076ebbfcafe33264d1d2792666eeb2ef60d1d74784e8ee8059ed47"}, "vout": 1, "txid": "655a75b09bc6ed6262677d8fc430ff169ca9ed15515dfde7763a0e944acd019b"}, {"sequence": 4294967295, "scriptSig": {"hex": "483045022100c7538ee574713bca06ce629c28d9ba1c6be5071591a2a42ed2c3ae257e0c539d022045076d2394a4e8046cb11f41a2ad088137e97074e9b5488ec9fc7484ae32430001210379c5042598076ebbfcafe33264d1d2792666eeb2ef60d1d74784e8ee8059ed47", "asm": "3045022100c7538ee574713bca06ce629c28d9ba1c6be5071591a2a42ed2c3ae257e0c539d022045076d2394a4e8046cb11f41a2ad088137e97074e9b5488ec9fc7484ae324300[ALL] 0379c5042598076ebbfcafe33264d1d2792666eeb2ef60d1d74784e8ee8059ed47"}, "vout": 1, "txid": "86ae0b35e41bd063ec44d46de84fd9c15e415ad973da52d6f8c62446e9579f91"}], "txid": "4ef15887e4bb28fd317f366248d856622c043c18e0fd8e9a9f480c291744078b", "blocktime": 1537875543, "version": 1, "confirmations": 11464, "time": 1537875543, "locktime": 0, "vsize": 374, "size": 374}