{"hash": "4ef26c47626585e740a958ec061d39a96ab70005addb8b5df84cfa4b0b4f4a00", "blockhash": "0000000000000000000e13cef7c366c0283d82e591d1acd082e914b08063cdf1", "vout": [{"scriptPubKey": {"reqSigs": 1, "hex": "a91472ccd779aee500416e7618942ff7a40e19679d5f87", "addresses": ["3CA2M4d9ecLtxH7vteEq2HnnmmPXhBt97S"], "asm": "OP_HASH160 72ccd779aee500416e7618942ff7a40e19679d5f OP_EQUAL", "type": "scripthash"}, "value": 0.01187185, "n": 0}, {"scriptPubKey": {"reqSigs": 1, "hex": "76a91442e26d2d6a13fc687d615677ac23f1bd0cf5e9f688ac", "addresses": ["176er3nctqSeK6U3mVxV1ETLTwuqCNc8ob"], "asm": "OP_DUP OP_HASH160 42e26d2d6a13fc687d615677ac23f1bd0cf5e9f6 OP_EQUALVERIFY OP_CHECKSIG", "type": "pubkeyhash"}, "value": 0.01232632, "n": 1}], "hex": "0100000001e2c7517e25b3380d06aff378a5e2f8d23baafa86f16f6f33e10b001b0c2dc75a010000006a47304402206fd4d9b6ae2e6c1a13e2f7d5fe3930fecc3fd55e7858d3be24ec65e41cadd89a02202711a3d6dda9bf95fbd3059f0069f76ce6d43fbfbd43bb1a885b28dbc6be26c10121027412b4224b991b9149684c69d143fe13064c6d5a8c7f30aad62b892071425e97ffffffff02711d12000000000017a91472ccd779aee500416e7618942ff7a40e19679d5f87f8ce1200000000001976a91442e26d2d6a13fc687d615677ac23f1bd0cf5e9f688ac00000000", "vin": [{"sequence": 4294967295, "scriptSig": {"hex": "47304402206fd4d9b6ae2e6c1a13e2f7d5fe3930fecc3fd55e7858d3be24ec65e41cadd89a02202711a3d6dda9bf95fbd3059f0069f76ce6d43fbfbd43bb1a885b28dbc6be26c10121027412b4224b991b9149684c69d143fe13064c6d5a8c7f30aad62b892071425e97", "asm": "304402206fd4d9b6ae2e6c1a13e2f7d5fe3930fecc3fd55e7858d3be24ec65e41cadd89a02202711a3d6dda9bf95fbd3059f0069f76ce6d43fbfbd43bb1a885b28dbc6be26c1[ALL] 027412b4224b991b9149684c69d143fe13064c6d5a8c7f30aad62b892071425e97"}, "vout": 1, "txid": "5ac72d0c1b000be1336f6ff186faaa3bd2f8e2a578f3af060d38b3257e51c7e2"}], "txid": "4ef26c47626585e740a958ec061d39a96ab70005addb8b5df84cfa4b0b4f4a00", "blocktime": 1537871767, "version": 1, "confirmations": 11495, "time": 1537871767, "locktime": 0, "vsize": 223, "size": 223}