{"hash": "4ef46f44b46df457d97562645dcf4222349a4236bfc7ee2756c6c69582ffae95", "blockhash": "0000000000000000001cda96e906b7601b7a6fb1a3b62bca570a9e5d8f4b3de1", "vout": [{"scriptPubKey": {"reqSigs": 1, "hex": "a9145e03f0328e6d3f092d2211022c54349fc811ae0787", "addresses": ["3AG8ADESgMs8eVcCNSSoWu9WkQKnXytLsb"], "asm": "OP_HASH160 5e03f0328e6d3f092d2211022c54349fc811ae07 OP_EQUAL", "type": "scripthash"}, "value": 0.0029443, "n": 0}], "hex": "0100000004d4d95bb7559d530a4ae4265b9b94d753dbcd440f687c53c1b87e377142d48a2c0c0000006b483045022100d6f74af7a616b48427f75868d0d3525adf16e4a64c270e91ded37292bc18bb0502204c39424b2690da5dabc3f1f31917865633cc9522b9bac473d41def487ab740670121030b189119e22383869f2cabb50e6ccd467764f1d0c356d46548063c3cfaca2e34ffffffffce88000310bc2c18a6b1f9496aa671310e3158e6efb6158d2e9a5cf34cb55030000000006b483045022100a6c2f43e7d2d9919d8a34e0728ccabba48b65651faf9b143eb3708e88f08991d02203df47d3e840f0448c68eaac9afb496c01e45b2a72144703e13e1d4d3dc75ea0d012102df68ae8b89584c122a7739ed8be2ec81baac0f54167df4e9927bc3da49cab6daffffffff12ae5dbc27df6b5b927a9adfa6a610a8d6a6f99b6d6ef82e74ee35e03766f6b8000000006a4730440220522ac6025fea19f468f378bb078e52eaf48ea4a11c41d1d475a8e6579d8dcf050220042d6ddae16cf99d290b26831ffd7d06fb76a1461aec0ed673b3b6b913d4b02b01210393161c1dd3b1974ecf5d25d1b961267567ac29c017dc57ecd8e455220a3c68f8ffffffffd52aa1a797eaf2d997fbf9460677574045993e93b8923d02ee232ea68b434cca000000006a47304402203af41eca68c2865c316a221d8bd2d58ddd51bc0f6dc07d881f88265ad98048e0022017dc355ce7cebd6b28233129a1ec6bf7989ce32c85c6180b7e5b976a07fb118801210363904eadabc0fa7de847bfb452a3b112917f7142024bf6fdf02171cd267b2bacffffffff011e7e04000000000017a9145e03f0328e6d3f092d2211022c54349fc811ae078700000000", "vin": [{"sequence": 4294967295, "scriptSig": {"hex": "483045022100d6f74af7a616b48427f75868d0d3525adf16e4a64c270e91ded37292bc18bb0502204c39424b2690da5dabc3f1f31917865633cc9522b9bac473d41def487ab740670121030b189119e22383869f2cabb50e6ccd467764f1d0c356d46548063c3cfaca2e34", "asm": "3045022100d6f74af7a616b48427f75868d0d3525adf16e4a64c270e91ded37292bc18bb0502204c39424b2690da5dabc3f1f31917865633cc9522b9bac473d41def487ab74067[ALL] 030b189119e22383869f2cabb50e6ccd467764f1d0c356d46548063c3cfaca2e34"}, "vout": 12, "txid": "2c8ad44271377eb8c1537c680f44cddb53d7949b5b26e44a0a539d55b75bd9d4"}, {"sequence": 4294967295, "scriptSig": {"hex": "483045022100a6c2f43e7d2d9919d8a34e0728ccabba48b65651faf9b143eb3708e88f08991d02203df47d3e840f0448c68eaac9afb496c01e45b2a72144703e13e1d4d3dc75ea0d012102df68ae8b89584c122a7739ed8be2ec81baac0f54167df4e9927bc3da49cab6da", "asm": "3045022100a6c2f43e7d2d9919d8a34e0728ccabba48b65651faf9b143eb3708e88f08991d02203df47d3e840f0448c68eaac9afb496c01e45b2a72144703e13e1d4d3dc75ea0d[ALL] 02df68ae8b89584c122a7739ed8be2ec81baac0f54167df4e9927bc3da49cab6da"}, "vout": 0, "txid": "3050b54cf35c9a2e8d15b6efe658310e3171a66a49f9b1a6182cbc10030088ce"}, {"sequence": 4294967295, "scriptSig": {"hex": "4730440220522ac6025fea19f468f378bb078e52eaf48ea4a11c41d1d475a8e6579d8dcf050220042d6ddae16cf99d290b26831ffd7d06fb76a1461aec0ed673b3b6b913d4b02b01210393161c1dd3b1974ecf5d25d1b961267567ac29c017dc57ecd8e455220a3c68f8", "asm": "30440220522ac6025fea19f468f378bb078e52eaf48ea4a11c41d1d475a8e6579d8dcf050220042d6ddae16cf99d290b26831ffd7d06fb76a1461aec0ed673b3b6b913d4b02b[ALL] 0393161c1dd3b1974ecf5d25d1b961267567ac29c017dc57ecd8e455220a3c68f8"}, "vout": 0, "txid": "b8f66637e035ee742ef86e6d9bf9a6d6a810a6a6df9a7a925b6bdf27bc5dae12"}, {"sequence": 4294967295, "scriptSig": {"hex": "47304402203af41eca68c2865c316a221d8bd2d58ddd51bc0f6dc07d881f88265ad98048e0022017dc355ce7cebd6b28233129a1ec6bf7989ce32c85c6180b7e5b976a07fb118801210363904eadabc0fa7de847bfb452a3b112917f7142024bf6fdf02171cd267b2bac", "asm": "304402203af41eca68c2865c316a221d8bd2d58ddd51bc0f6dc07d881f88265ad98048e0022017dc355ce7cebd6b28233129a1ec6bf7989ce32c85c6180b7e5b976a07fb1188[ALL] 0363904eadabc0fa7de847bfb452a3b112917f7142024bf6fdf02171cd267b2bac"}, "vout": 0, "txid": "ca4c438ba62e23ee023d92b8933e99454057770646f9fb97d9f2ea97a7a12ad5"}], "txid": "4ef46f44b46df457d97562645dcf4222349a4236bfc7ee2756c6c69582ffae95", "blocktime": 1537873282, "version": 1, "confirmations": 11481, "time": 1537873282, "locktime": 0, "vsize": 632, "size": 632}