{"hash": "4ef875ac0f4a22a67706c9ecf2ac04380c463a300b6be6119b96bd96aa1ea178", "blockhash": "0000000000000000000e13cef7c366c0283d82e591d1acd082e914b08063cdf1", "vout": [{"scriptPubKey": {"reqSigs": 1, "hex": "a9148a073510bed71025e694c2a9505946b9fac5183087", "addresses": ["3EGqond7qAZXw3MjaWsAoLxJpKhU3Gc4uX"], "asm": "OP_HASH160 8a073510bed71025e694c2a9505946b9fac51830 OP_EQUAL", "type": "scripthash"}, "value": 0.00308337, "n": 0}], "hex": "01000000016cb2c3b8fd55571cfa80c6ae50197754b9f5abb002f3c9bfd8387582d164f65e000000006a47304402202bd86b0f8e7dc85a7a9ee30fbe92afb11847fa30ea94c5c4b7f3b59da885f6ea02201931914b24eed268c6a8739df5ee2ae9c0081ac6bb5a84061e77754e6207099e012102a3ada2f8730172c4c160ada69165c3584f6daa7b59e2d497af9e3a5bb64cfb47ffffffff0171b404000000000017a9148a073510bed71025e694c2a9505946b9fac518308700000000", "vin": [{"sequence": 4294967295, "scriptSig": {"hex": "47304402202bd86b0f8e7dc85a7a9ee30fbe92afb11847fa30ea94c5c4b7f3b59da885f6ea02201931914b24eed268c6a8739df5ee2ae9c0081ac6bb5a84061e77754e6207099e012102a3ada2f8730172c4c160ada69165c3584f6daa7b59e2d497af9e3a5bb64cfb47", "asm": "304402202bd86b0f8e7dc85a7a9ee30fbe92afb11847fa30ea94c5c4b7f3b59da885f6ea02201931914b24eed268c6a8739df5ee2ae9c0081ac6bb5a84061e77754e6207099e[ALL] 02a3ada2f8730172c4c160ada69165c3584f6daa7b59e2d497af9e3a5bb64cfb47"}, "vout": 0, "txid": "5ef664d1827538d8bfc9f302b0abf5b954771950aec680fa1c5755fdb8c3b26c"}], "txid": "4ef875ac0f4a22a67706c9ecf2ac04380c463a300b6be6119b96bd96aa1ea178", "blocktime": 1537871767, "version": 1, "confirmations": 11495, "time": 1537871767, "locktime": 0, "vsize": 189, "size": 189}