{"hash": "4efb303da5af09148b78449f1c954b6492f52f063c658391d75e8b776a33e4b3", "blockhash": "00000000000000000024a2167bbff67b0be802c0b01cdd79e6331c2be6459f87", "vout": [{"scriptPubKey": {"reqSigs": 1, "hex": "76a914e5af774a5d8f33799c63ad4ed6e2cc09ba8e402388ac", "addresses": ["1MwTwX7CSY1wiS4fJKTB7NhNNo7k3BTgHh"], "asm": "OP_DUP OP_HASH160 e5af774a5d8f33799c63ad4ed6e2cc09ba8e4023 OP_EQUALVERIFY OP_CHECKSIG", "type": "pubkeyhash"}, "value": 5.78e-05, "n": 0}, {"scriptPubKey": {"reqSigs": 1, "hex": "76a914a40439205d2ac13cbc5eb2e111efcd1c20a58b5b88ac", "addresses": ["1FxEstcHpoQmmWH2Xq9mPhm9XB65hj1kvZ"], "asm": "OP_DUP OP_HASH160 a40439205d2ac13cbc5eb2e111efcd1c20a58b5b OP_EQUALVERIFY OP_CHECKSIG", "type": "pubkeyhash"}, "value": 0.00029863, "n": 1}], "hex": "0100000001037a128bfedf8ee09fe9004baafb533868d66d630eba5d309eb119e2358be6a4000000006a47304402205c4175d56357634b3f6d84a73b9e2490b28568e7c8524080bad158c07c98d977022021d69d4729b05219cbeb539a2b30cfc50e72dd0989732135d11770c81679e8a001210286b549588ef7b97cca3fbb57fe70182ae34c55f99dcfa6e1b7c8604035d8fb68ffffffff0294160000000000001976a914e5af774a5d8f33799c63ad4ed6e2cc09ba8e402388aca7740000000000001976a914a40439205d2ac13cbc5eb2e111efcd1c20a58b5b88ac00000000", "vin": [{"sequence": 4294967295, "scriptSig": {"hex": "47304402205c4175d56357634b3f6d84a73b9e2490b28568e7c8524080bad158c07c98d977022021d69d4729b05219cbeb539a2b30cfc50e72dd0989732135d11770c81679e8a001210286b549588ef7b97cca3fbb57fe70182ae34c55f99dcfa6e1b7c8604035d8fb68", "asm": "304402205c4175d56357634b3f6d84a73b9e2490b28568e7c8524080bad158c07c98d977022021d69d4729b05219cbeb539a2b30cfc50e72dd0989732135d11770c81679e8a0[ALL] 0286b549588ef7b97cca3fbb57fe70182ae34c55f99dcfa6e1b7c8604035d8fb68"}, "vout": 0, "txid": "a4e68b35e219b19e305dba0e636dd6683853fbaa4b00e99fe08edffe8b127a03"}], "txid": "4efb303da5af09148b78449f1c954b6492f52f063c658391d75e8b776a33e4b3", "blocktime": 1537870564, "version": 1, "confirmations": 11515, "time": 1537870564, "locktime": 0, "vsize": 225, "size": 225}