{"hash": "cfaf91bdfcb816144e9449ecd3b45cc94711eaf7f387f2a0a7769a4e5b78a784", "blockhash": "0000000000000000001cda96e906b7601b7a6fb1a3b62bca570a9e5d8f4b3de1", "vout": [{"scriptPubKey": {"reqSigs": 1, "hex": "76a9142526018142964cb3fc5539de170d3dd59f1c51c888ac", "addresses": ["14PRXnxrVjk7x3hqpqiM1KZ6RtDncbyuEB"], "asm": "OP_DUP OP_HASH160 2526018142964cb3fc5539de170d3dd59f1c51c8 OP_EQUALVERIFY OP_CHECKSIG", "type": "pubkeyhash"}, "value": 0.15570343, "n": 0}, {"scriptPubKey": {"reqSigs": 1, "hex": "001480621b3d5cf49d74ec0c62f9fb6b6a9632b75c5a", "addresses": ["bc1qsp3pk02u7jwhfmqvvtulk6m2jcetwhz6sqttee"], "asm": "0 80621b3d5cf49d74ec0c62f9fb6b6a9632b75c5a", "type": "witness_v0_keyhash"}, "value": 0.34429069, "n": 1}], "hex": "010000000001015e095a91bda7d1782934ed1c416d6fcc76a271ad1f4f80d3ee86eacdcb630da201000000171600142a662183b3d5ed9f2cd08d58b6e20af63690a46affffffff02a795ed00000000001976a9142526018142964cb3fc5539de170d3dd59f1c51c888ac8d580d020000000016001480621b3d5cf49d74ec0c62f9fb6b6a9632b75c5a0247304402205faa4651fa9616bb6e2288745d865e5d3d887f7a24ed7660004a4d3b376070340220495807dd7d8c15dfb43455c03f625f2716e632e7e71e0d13b771807e4639370b0121029180f59476a045ff240d4b4a4add2283a9888ceb2f0a0cf22b68702307ed719800000000", "vin": [{"txinwitness": ["304402205faa4651fa9616bb6e2288745d865e5d3d887f7a24ed7660004a4d3b376070340220495807dd7d8c15dfb43455c03f625f2716e632e7e71e0d13b771807e4639370b01", "029180f59476a045ff240d4b4a4add2283a9888ceb2f0a0cf22b68702307ed7198"], "sequence": 4294967295, "scriptSig": {"hex": "1600142a662183b3d5ed9f2cd08d58b6e20af63690a46a", "asm": "00142a662183b3d5ed9f2cd08d58b6e20af63690a46a"}, "vout": 1, "txid": "a20d63cbcdea86eed3804f1fad71a276cc6f6d411ced342978d1a7bd915a095e"}], "txid": "4efd4182c8c221bec94ab765ec6dcd367db503b47eb1ccf4890ffd8f9635cbc4", "blocktime": 1537873282, "version": 1, "confirmations": 11484, "time": 1537873282, "locktime": 0, "vsize": 167, "size": 248}