{"hash": "65bca0ebdca1f7109f982dbba7733143188ae776d173615d8a1e6719ac383d9e", "blockhash": "0000000000000000001f76057863aec43deb6fa401d9628bb513d65a8098bfab", "vout": [{"scriptPubKey": {"reqSigs": 1, "hex": "76a9149a1b8f9b1fa2d2297863adb1cb11c71df455684888ac", "addresses": ["1F3r5We2zwNiSzG6GQUTTWnnPMCz2HJbJu"], "asm": "OP_DUP OP_HASH160 9a1b8f9b1fa2d2297863adb1cb11c71df4556848 OP_EQUALVERIFY OP_CHECKSIG", "type": "pubkeyhash"}, "value": 2.691e-05, "n": 0}, {"scriptPubKey": {"reqSigs": 1, "hex": "a9148ddb66c3371910a0ef8f38021cc4094e61e69f3a87", "addresses": ["3Ed62sPENkraPwpovPty9YMFGJ8FtTyv63"], "asm": "OP_HASH160 8ddb66c3371910a0ef8f38021cc4094e61e69f3a OP_EQUAL", "type": "scripthash"}, "value": 0.0004156, "n": 1}], "hex": "0100000000010149743099ea337e62631d458f17b45a93ae884948261e933dcfe657952e0c6ddf0100000023220020fdd23d707f55451c4e006c77b5e8df35a185a8e99f9bda70bf0ded7913bb1eb3ffffffff02830a0000000000001976a9149a1b8f9b1fa2d2297863adb1cb11c71df455684888ac58a200000000000017a9148ddb66c3371910a0ef8f38021cc4094e61e69f3a870400473044022039dcecd11d2642fe5d740e8895ad12108ed0091e6ec30abd068a4e6840989ac40220369e9ff7e27170fb842a4f151914c40dcac0744a33ddbecfb6d011799b8ed99d0147304402202984dab518f7dd0077746d0bf3b0ab7a19fecfa57af753f8969f9e690fd3e71602204ce35fa9bfa6027dc890c10977485deb94bd50c64a168930d1e55a5aea409acf014752210286c104577b978160849865bc23f9a6df9b53d41c8ffb486754b97b2a474a181c2103148c80a5bdfddb05ff5bcffc397c8ca748d8b435ec6a175bc9d7bfc7fc6f853752ae00000000", "vin": [{"txinwitness": ["", "3044022039dcecd11d2642fe5d740e8895ad12108ed0091e6ec30abd068a4e6840989ac40220369e9ff7e27170fb842a4f151914c40dcac0744a33ddbecfb6d011799b8ed99d01", "304402202984dab518f7dd0077746d0bf3b0ab7a19fecfa57af753f8969f9e690fd3e71602204ce35fa9bfa6027dc890c10977485deb94bd50c64a168930d1e55a5aea409acf01", "52210286c104577b978160849865bc23f9a6df9b53d41c8ffb486754b97b2a474a181c2103148c80a5bdfddb05ff5bcffc397c8ca748d8b435ec6a175bc9d7bfc7fc6f853752ae"], "sequence": 4294967295, "scriptSig": {"hex": "220020fdd23d707f55451c4e006c77b5e8df35a185a8e99f9bda70bf0ded7913bb1eb3", "asm": "0020fdd23d707f55451c4e006c77b5e8df35a185a8e99f9bda70bf0ded7913bb1eb3"}, "vout": 1, "txid": "df6d0c2e9557e6cf3d931e26484988ae935ab4178f451d63627e33ea99307449"}], "txid": "4efd486c694d5939894883f04dd4ecee634d2ff809ddee1d0bdd1a1cddfad2fb", "blocktime": 1537873891, "version": 1, "confirmations": 11478, "time": 1537873891, "locktime": 0, "vsize": 207, "size": 372}