{"hash": "eff552f401f671faed16a3976362a1390b9cfb85097ab66df1afe89b4f44523e", "blockhash": "00000000000000000017f5eb5941039fbcee6240d03bc1f2f8e35350df66a1d8", "vout": [{"scriptPubKey": {"reqSigs": 1, "hex": "76a9143312a6d65a0b77859918f4feaa07b6f51c29901888ac", "addresses": ["15f3oj9paJrLe6z5MBAXwymzoewpK2Tp7B"], "asm": "OP_DUP OP_HASH160 3312a6d65a0b77859918f4feaa07b6f51c299018 OP_EQUALVERIFY OP_CHECKSIG", "type": "pubkeyhash"}, "value": 0.00344198, "n": 0}, {"scriptPubKey": {"reqSigs": 1, "hex": "a914cfaabfe8c271f99a4364b5197ba50c6cddb7adb987", "addresses": ["3Ld4M9RPwEG3VeQbHcC1PsKUndQL7VYLZP"], "asm": "OP_HASH160 cfaabfe8c271f99a4364b5197ba50c6cddb7adb9 OP_EQUAL", "type": "scripthash"}, "value": 1.17488295, "n": 1}], "hex": "010000000001010461249ddad7aba8527224006c9ccb56118141ff768b20ae1a2f3a35f2eb36b201000000232200202f7b4024602241b47d3306a6733d9889e4b6761d9f1cb82a18aa8b9ac4506e51ffffffff0286400500000000001976a9143312a6d65a0b77859918f4feaa07b6f51c29901888aca7ba00070000000017a914cfaabfe8c271f99a4364b5197ba50c6cddb7adb98704004830450221009571d969a8969d77e833929f40f244842f05798218c5b727ef830466843c6b7402200651c540334e015f6e14e5af43d5527922bfb0fb87b76fe5f330111b2250850f0147304402202531a13e2caaab9c18b053e5aa599ffe408fe412dfc111e3f23e7ccd34b2bbb402203643e36b180db6bbaf59362d8a1edc5278e2910d8003b92d585e26300a5b4d920147522102973cd851fecff3a20f08377b072729f303801eee1b7678668338adcaec770ec221033e4af03ed09dbd8a417ba042650d5bd1db7f14f271a8f660974e3abf1fdfa4da52ae00000000", "vin": [{"txinwitness": ["", "30450221009571d969a8969d77e833929f40f244842f05798218c5b727ef830466843c6b7402200651c540334e015f6e14e5af43d5527922bfb0fb87b76fe5f330111b2250850f01", "304402202531a13e2caaab9c18b053e5aa599ffe408fe412dfc111e3f23e7ccd34b2bbb402203643e36b180db6bbaf59362d8a1edc5278e2910d8003b92d585e26300a5b4d9201", "522102973cd851fecff3a20f08377b072729f303801eee1b7678668338adcaec770ec221033e4af03ed09dbd8a417ba042650d5bd1db7f14f271a8f660974e3abf1fdfa4da52ae"], "sequence": 4294967295, "scriptSig": {"hex": "2200202f7b4024602241b47d3306a6733d9889e4b6761d9f1cb82a18aa8b9ac4506e51", "asm": "00202f7b4024602241b47d3306a6733d9889e4b6761d9f1cb82a18aa8b9ac4506e51"}, "vout": 1, "txid": "b236ebf2353a2f1aae208b76ff41811156cb9c6c00247252a8abd7da9d246104"}], "txid": "4f09d50b8d1fc1290cd124ef8c2d84fb90a30a88c49b9a6a0da0397bc34f5e20", "blocktime": 1537874412, "version": 1, "confirmations": 11468, "time": 1537874412, "locktime": 0, "vsize": 208, "size": 373}