{"hash": "4f0e76258801650166542595850931afd3dd391250898ceb74d68e4e01c78d70", "blockhash": "00000000000000000017f5eb5941039fbcee6240d03bc1f2f8e35350df66a1d8", "vout": [{"scriptPubKey": {"reqSigs": 1, "hex": "76a9143b3286859a5fe6882a9548f9be46b6a95e0c692f88ac", "addresses": ["16Q1PtbgYpxqGkL7bNL9H8pXDNMfNqoXFE"], "asm": "OP_DUP OP_HASH160 3b3286859a5fe6882a9548f9be46b6a95e0c692f OP_EQUALVERIFY OP_CHECKSIG", "type": "pubkeyhash"}, "value": 0.00454579, "n": 0}, {"scriptPubKey": {"type": "nulldata", "hex": "6a146f6d6e69000000000000001f0000045a99913c80", "asm": "OP_RETURN 6f6d6e69000000000000001f0000045a99913c80"}, "value": 0.0, "n": 1}, {"scriptPubKey": {"reqSigs": 1, "hex": "76a914a25dec4d0011064ef106a983c39c7a540699f22088ac", "addresses": ["1FoWyxwPXuj4C6abqwhjDWdz6D4PZgYRjA"], "asm": "OP_DUP OP_HASH160 a25dec4d0011064ef106a983c39c7a540699f220 OP_EQUALVERIFY OP_CHECKSIG", "type": "pubkeyhash"}, "value": 5.46e-06, "n": 2}], "hex": "010000000106753a36a9c50bfd698469a57b98e572a357cc18d80124097a24febd28e8c88a010000006a473044022071c6c84be4c745c8f3706573ffc617a875a9551983527c79024b0276bd05c4c702200a82538a31bb4fb3d5f3cdfcfdf4081bb07f12d5b9d4e5084d1ac011f600075901210234d91684657f6770c495c0a110977b21feee8e22de87cdfd78875fc1eeddade5feffffff03b3ef0600000000001976a9143b3286859a5fe6882a9548f9be46b6a95e0c692f88ac0000000000000000166a146f6d6e69000000000000001f0000045a99913c8022020000000000001976a914a25dec4d0011064ef106a983c39c7a540699f22088ac15490800", "vin": [{"sequence": 4294967294, "scriptSig": {"hex": "473044022071c6c84be4c745c8f3706573ffc617a875a9551983527c79024b0276bd05c4c702200a82538a31bb4fb3d5f3cdfcfdf4081bb07f12d5b9d4e5084d1ac011f600075901210234d91684657f6770c495c0a110977b21feee8e22de87cdfd78875fc1eeddade5", "asm": "3044022071c6c84be4c745c8f3706573ffc617a875a9551983527c79024b0276bd05c4c702200a82538a31bb4fb3d5f3cdfcfdf4081bb07f12d5b9d4e5084d1ac011f6000759[ALL] 0234d91684657f6770c495c0a110977b21feee8e22de87cdfd78875fc1eeddade5"}, "vout": 1, "txid": "8ac8e828bdfe247a092401d818cc57a372e5987ba5698469fd0bc5a9363a7506"}], "txid": "4f0e76258801650166542595850931afd3dd391250898ceb74d68e4e01c78d70", "blocktime": 1537874412, "version": 1, "confirmations": 11468, "time": 1537874412, "locktime": 542997, "vsize": 256, "size": 256}