{"hash": "4f166224f5e1c9fe70d63da8f6e562596b38f8fbe77d086fc3465069626c7b0f", "blockhash": "00000000000000000004ffacab907a6b429b9a5745fa0b75af4234bf69dd7176", "vout": [{"scriptPubKey": {"reqSigs": 1, "hex": "a914022e80c6b8f282dc1cfe6410979bb28772dfb69b87", "addresses": ["31tYz1oqprLfD88WvV9oJCvXgvd9RQz7cq"], "asm": "OP_HASH160 022e80c6b8f282dc1cfe6410979bb28772dfb69b OP_EQUAL", "type": "scripthash"}, "value": 0.01191523, "n": 0}, {"scriptPubKey": {"reqSigs": 1, "hex": "76a914540f261fffe9116d311b8ed8f7852612a42e596288ac", "addresses": ["18fTugR5S86BfD15NxnBzE1LUkTu98eoNw"], "asm": "OP_DUP OP_HASH160 540f261fffe9116d311b8ed8f7852612a42e5962 OP_EQUALVERIFY OP_CHECKSIG", "type": "pubkeyhash"}, "value": 0.02202374, "n": 1}], "hex": "0100000001887207bcb19562b52f9d6eeb11473b6da42424c325a612b559e429eaaa507cbb010000006a47304402203bed5106bd9d4df84af951f95244e49d81fc612c1cb08ac606c50cf36d1316e4022050e35d86c4b156577eea2ba5d619b7deee8bc96b1775bc99b94ede3e565965290121030908384b05964c53901693e76a3ed096161cf7cdd478615b0695d9bf4b4f5db4ffffffff02632e12000000000017a914022e80c6b8f282dc1cfe6410979bb28772dfb69b87069b2100000000001976a914540f261fffe9116d311b8ed8f7852612a42e596288ac00000000", "vin": [{"sequence": 4294967295, "scriptSig": {"hex": "47304402203bed5106bd9d4df84af951f95244e49d81fc612c1cb08ac606c50cf36d1316e4022050e35d86c4b156577eea2ba5d619b7deee8bc96b1775bc99b94ede3e565965290121030908384b05964c53901693e76a3ed096161cf7cdd478615b0695d9bf4b4f5db4", "asm": "304402203bed5106bd9d4df84af951f95244e49d81fc612c1cb08ac606c50cf36d1316e4022050e35d86c4b156577eea2ba5d619b7deee8bc96b1775bc99b94ede3e56596529[ALL] 030908384b05964c53901693e76a3ed096161cf7cdd478615b0695d9bf4b4f5db4"}, "vout": 1, "txid": "bb7c50aaea29e459b512a625c32424a46d3b4711eb6e9d2fb56295b1bc077288"}], "txid": "4f166224f5e1c9fe70d63da8f6e562596b38f8fbe77d086fc3465069626c7b0f", "blocktime": 1537875543, "version": 1, "confirmations": 11464, "time": 1537875543, "locktime": 0, "vsize": 223, "size": 223}