{"hash": "a417867bc448ac7753ca7ab86b955a9e30915f1ec6e3473516757371b9bdc3d4", "blockhash": "0000000000000000000baef3f32e3676a92c3b2e5da21b426e4f302fc371ce76", "vout": [{"scriptPubKey": {"reqSigs": 1, "hex": "76a9142b451405201f723dc191341eeffcd55375b39e1388ac", "addresses": ["14wnotQtHPZrSVqwb3sfvFM59F5Dtxy83K"], "asm": "OP_DUP OP_HASH160 2b451405201f723dc191341eeffcd55375b39e13 OP_EQUALVERIFY OP_CHECKSIG", "type": "pubkeyhash"}, "value": 1.0, "n": 0}, {"scriptPubKey": {"reqSigs": 1, "hex": "a914a3ce24d0dbc8d74826645c90a64cfe4d11a8053087", "addresses": ["3Gd91wCVKMsVpEecgNrpp7QbujUFQtd8MR"], "asm": "OP_HASH160 a3ce24d0dbc8d74826645c90a64cfe4d11a80530 OP_EQUAL", "type": "scripthash"}, "value": 0.00124742, "n": 1}, {"scriptPubKey": {"reqSigs": 1, "hex": "a91400106212c6bd333340dc04d6a8f8bcf31c26d88c87", "addresses": ["31hMYrv6j2BmpFT4F3jbqdMfY812anUwy8"], "asm": "OP_HASH160 00106212c6bd333340dc04d6a8f8bcf31c26d88c OP_EQUAL", "type": "scripthash"}, "value": 0.72794911, "n": 2}], "hex": "020000000001015a50dd782214f6505fe461f895bc06196ae7f3deed1d37e5858e9a2bcf1ddae603000000171600146938478a13855ab16e4ab316b63aa8bfd41ec528ffffffff0300e1f505000000001976a9142b451405201f723dc191341eeffcd55375b39e1388ac46e701000000000017a914a3ce24d0dbc8d74826645c90a64cfe4d11a80530871fc356040000000017a91400106212c6bd333340dc04d6a8f8bcf31c26d88c87024830450221008fbaf76943806cb163010d139a83b6cb9deb7746318788466e1bed8d2db315ab02206e5cd1d41bd7a762b513a1d75b0e4adff0a885a6334d7c01870d499ed459e89201210318583ed226e4a32da1c3e10f44796e7ad6d6bbd01052d80d2c1d2e39d192cfcd00000000", "vin": [{"txinwitness": ["30450221008fbaf76943806cb163010d139a83b6cb9deb7746318788466e1bed8d2db315ab02206e5cd1d41bd7a762b513a1d75b0e4adff0a885a6334d7c01870d499ed459e89201", "0318583ed226e4a32da1c3e10f44796e7ad6d6bbd01052d80d2c1d2e39d192cfcd"], "sequence": 4294967295, "scriptSig": {"hex": "1600146938478a13855ab16e4ab316b63aa8bfd41ec528", "asm": "00146938478a13855ab16e4ab316b63aa8bfd41ec528"}, "vout": 3, "txid": "e6da1dcf2b9a8e85e5371deddef3e76a1906bc95f861e45f50f6142278dd505a"}], "txid": "4f195a8d8d8712e3b786362fa9f0fbdefa18f74f7d8db97c40a53f5a4bcb888d", "blocktime": 1537876114, "version": 2, "confirmations": 11460, "time": 1537876114, "locktime": 0, "vsize": 200, "size": 282}