{"hash": "9b38819a78f65c03a3354ca402b12b87b5e52a1b8c2ac4ee642afe3da8ad4b2e", "blockhash": "00000000000000000018f53835495a110e01622372bf6ae95dc86f2b0ab887b0", "vout": [{"scriptPubKey": {"reqSigs": 1, "hex": "76a9140c0af570ee3eb97a4aa4e05322b64d2250bf378288ac", "addresses": ["126gEjKHERQEALybgEUiHHzkHTidYGUGn2"], "asm": "OP_DUP OP_HASH160 0c0af570ee3eb97a4aa4e05322b64d2250bf3782 OP_EQUALVERIFY OP_CHECKSIG", "type": "pubkeyhash"}, "value": 26.40695915, "n": 0}, {"scriptPubKey": {"reqSigs": 1, "hex": "76a914c3f75e06b9ee9a0a16b5333efe405548f8e04b3788ac", "addresses": ["1JsB6ngNUB724CHFoWJcxuwjiQ1ZXc4dPG"], "asm": "OP_DUP OP_HASH160 c3f75e06b9ee9a0a16b5333efe405548f8e04b37 OP_EQUALVERIFY OP_CHECKSIG", "type": "pubkeyhash"}, "value": 2.1, "n": 1}, {"scriptPubKey": {"reqSigs": 1, "hex": "a9146f6e9eab3769afd8562d026ee4205adaac951b4d87", "addresses": ["3BrDSqQUszizcevnCcwzhWzks4pVa4gn8t"], "asm": "OP_HASH160 6f6e9eab3769afd8562d026ee4205adaac951b4d OP_EQUAL", "type": "scripthash"}, "value": 1.3968, "n": 2}, {"scriptPubKey": {"reqSigs": 1, "hex": "76a9146910c2250d70e9637974a849eec13e8e234a5b3388ac", "addresses": ["1AaY2Y1jnyT1UiT2rfMCG9mvESL7SqWVia"], "asm": "OP_DUP OP_HASH160 6910c2250d70e9637974a849eec13e8e234a5b33 OP_EQUALVERIFY OP_CHECKSIG", "type": "pubkeyhash"}, "value": 0.4663646, "n": 3}, {"scriptPubKey": {"reqSigs": 1, "hex": "76a914cebb2851a9c7cfe2582c12ecaf7f3ff4383d1dc088ac", "addresses": ["1Kr6QSydW9bFQG1mXiPNNu6WpJGmUa9i1g"], "asm": "OP_DUP OP_HASH160 cebb2851a9c7cfe2582c12ecaf7f3ff4383d1dc0 OP_EQUALVERIFY OP_CHECKSIG", "type": "pubkeyhash"}, "value": 66.82426048, "n": 4}], "hex": "02000000000104b2c01a6f5ca3daf42c811113515ae35bffa7b39ce28a601e20082e5d80e808750a0000006b483045022100e537bada3c4017ced0918c734b5ce65be2b87e49dbeb54c1f0ef511507c96b610220798cfd464532c8a77222a7b31f0aa2eb5ecde9d4c6fac1f056eb5e7e303df870012103786af4b32017ec640dba2d2a7e1fd5aa4a231a658e4cbc114d51c031576e19bcffffffff16ed11460a0e94ffd788483bdfa359fc3c06b5471b44ae88f7736456add8bb500100000017160014b7b6f0a27914e40ea299eedc261e2e58b2f79d66ffffffff72f673e4f79ed3e10bd0621788e5008704c4d4aca3267073b4e331bcad5e417701000000171600146029f09778c3352e67adc935a8bc537a9f77dccaffffffff5fb5e6fb7740e6eba836e2d73e509f3b391922aefbba4564a22f88f3358b53a2000000006b483045022100b2762d721c7f5f13ce236f77dd167ba5effe65d34bdbf1045519d0da2d43230302201747da0502c6ffa0f1f2a29755bc644f204634569a224738470a6f0fbac469b9012102c7f0380b096289fc8d2d97a323548d99b93cd907bc73bc03c4cb89ae70ed7b63ffffffff056bd2659d000000001976a9140c0af570ee3eb97a4aa4e05322b64d2250bf378288ac8058840c000000001976a914c3f75e06b9ee9a0a16b5333efe405548f8e04b3788ac005953080000000017a9146f6e9eab3769afd8562d026ee4205adaac951b4d87ac9dc702000000001976a9146910c2250d70e9637974a849eec13e8e234a5b3388acc0ba4d8e010000001976a914cebb2851a9c7cfe2582c12ecaf7f3ff4383d1dc088ac0002483045022100c74e49dce47df01b5cd0a047fa912b09d69077a325ceefc662e0ad44d74c5f4c022067c7805998fb3ce54af97b243eb073cdf5a096870105ff088f43051e31f35e89012103e335f44e445b8bd303d0177d65e46fe29199839f3b5dff835d5cf2415dd0ef9e02483045022100ee4522c95cf429fccd33377a2124df132f6f1c91a4028ce03965a2a8e267a1470220579a17deb2cef3e2466a3bddde61b870caa365982a597fb9fccd3bcbcec3197f01210298e96341534f4f6dcf28e4187c1473a1788f129e7bd75f429ad4157c2b36600b0000000000", "vin": [{"sequence": 4294967295, "scriptSig": {"hex": "483045022100e537bada3c4017ced0918c734b5ce65be2b87e49dbeb54c1f0ef511507c96b610220798cfd464532c8a77222a7b31f0aa2eb5ecde9d4c6fac1f056eb5e7e303df870012103786af4b32017ec640dba2d2a7e1fd5aa4a231a658e4cbc114d51c031576e19bc", "asm": "3045022100e537bada3c4017ced0918c734b5ce65be2b87e49dbeb54c1f0ef511507c96b610220798cfd464532c8a77222a7b31f0aa2eb5ecde9d4c6fac1f056eb5e7e303df870[ALL] 03786af4b32017ec640dba2d2a7e1fd5aa4a231a658e4cbc114d51c031576e19bc"}, "vout": 10, "txid": "7508e8805d2e08201e608ae29cb3a7ff5be35a511311812cf4daa35c6f1ac0b2"}, {"txinwitness": ["3045022100c74e49dce47df01b5cd0a047fa912b09d69077a325ceefc662e0ad44d74c5f4c022067c7805998fb3ce54af97b243eb073cdf5a096870105ff088f43051e31f35e8901", "03e335f44e445b8bd303d0177d65e46fe29199839f3b5dff835d5cf2415dd0ef9e"], "sequence": 4294967295, "scriptSig": {"hex": "160014b7b6f0a27914e40ea299eedc261e2e58b2f79d66", "asm": "0014b7b6f0a27914e40ea299eedc261e2e58b2f79d66"}, "vout": 1, "txid": "50bbd8ad566473f788ae441b47b5063cfc59a3df3b4888d7ff940e0a4611ed16"}, {"txinwitness": ["3045022100ee4522c95cf429fccd33377a2124df132f6f1c91a4028ce03965a2a8e267a1470220579a17deb2cef3e2466a3bddde61b870caa365982a597fb9fccd3bcbcec3197f01", "0298e96341534f4f6dcf28e4187c1473a1788f129e7bd75f429ad4157c2b36600b"], "sequence": 4294967295, "scriptSig": {"hex": "1600146029f09778c3352e67adc935a8bc537a9f77dcca", "asm": "00146029f09778c3352e67adc935a8bc537a9f77dcca"}, "vout": 1, "txid": "77415eadbc31e3b4737026a3acd4c4048700e5881762d00be1d39ef7e473f672"}, {"sequence": 4294967295, "scriptSig": {"hex": "483045022100b2762d721c7f5f13ce236f77dd167ba5effe65d34bdbf1045519d0da2d43230302201747da0502c6ffa0f1f2a29755bc644f204634569a224738470a6f0fbac469b9012102c7f0380b096289fc8d2d97a323548d99b93cd907bc73bc03c4cb89ae70ed7b63", "asm": "3045022100b2762d721c7f5f13ce236f77dd167ba5effe65d34bdbf1045519d0da2d43230302201747da0502c6ffa0f1f2a29755bc644f204634569a224738470a6f0fbac469b9[ALL] 02c7f0380b096289fc8d2d97a323548d99b93cd907bc73bc03c4cb89ae70ed7b63"}, "vout": 0, "txid": "a2538b35f3882fa26445bafbae2219393b9f503ed7e236a8ebe64077fbe6b55f"}], "txid": "4f19bb7f74ac6a871479cfdf2fefe350e622468aecf4622ed71f670b8624e294", "blocktime": 1537870928, "version": 2, "confirmations": 11512, "time": 1537870928, "locktime": 0, "vsize": 657, "size": 822}