{"hash": "4f1a8cfc6ef33110f0bc2d76eaf9dae672587e31bf1da51a5e6d10b77c81e5c1", "blockhash": "0000000000000000001cda96e906b7601b7a6fb1a3b62bca570a9e5d8f4b3de1", "vout": [{"scriptPubKey": {"reqSigs": 1, "hex": "76a914d3e5b413b239615ab94b84c02682387ebef682d588ac", "addresses": ["1LKQkYuHGq3RkSuFoCxWzecG3UWqN2GGrD"], "asm": "OP_DUP OP_HASH160 d3e5b413b239615ab94b84c02682387ebef682d5 OP_EQUALVERIFY OP_CHECKSIG", "type": "pubkeyhash"}, "value": 0.03045417, "n": 0}, {"scriptPubKey": {"reqSigs": 1, "hex": "76a9144a0f1e2f2b0d7daeec5265f10bbbbe08ed725e8988ac", "addresses": ["17kb7c9ndg7ioSuzMWEHWECdEVUegNkcGc"], "asm": "OP_DUP OP_HASH160 4a0f1e2f2b0d7daeec5265f10bbbbe08ed725e89 OP_EQUALVERIFY OP_CHECKSIG", "type": "pubkeyhash"}, "value": 0.00084255, "n": 1}], "hex": "0100000001388723ba5d8f091cb713c7a9628830fe8afc20d0623f2e6a6cfe30d370b3c4cf000000006b48304502210099b268d7cc65da429db5926791e098eb7db05a8d7799a884985bf80fffa55043022003f01fcc23f1491d17b9147d901c98ca88063ddae80f456b0deac2364f8ea23201210363e1776495149c5a4e92acf453a3caa19000fc804e4ba2024b600ba25e09c943ffffffff0229782e00000000001976a914d3e5b413b239615ab94b84c02682387ebef682d588ac1f490100000000001976a9144a0f1e2f2b0d7daeec5265f10bbbbe08ed725e8988ac00000000", "vin": [{"sequence": 4294967295, "scriptSig": {"hex": "48304502210099b268d7cc65da429db5926791e098eb7db05a8d7799a884985bf80fffa55043022003f01fcc23f1491d17b9147d901c98ca88063ddae80f456b0deac2364f8ea23201210363e1776495149c5a4e92acf453a3caa19000fc804e4ba2024b600ba25e09c943", "asm": "304502210099b268d7cc65da429db5926791e098eb7db05a8d7799a884985bf80fffa55043022003f01fcc23f1491d17b9147d901c98ca88063ddae80f456b0deac2364f8ea232[ALL] 0363e1776495149c5a4e92acf453a3caa19000fc804e4ba2024b600ba25e09c943"}, "vout": 0, "txid": "cfc4b370d330fe6c6a2e3f62d020fc8afe308862a9c713b71c098f5dba238738"}], "txid": "4f1a8cfc6ef33110f0bc2d76eaf9dae672587e31bf1da51a5e6d10b77c81e5c1", "blocktime": 1537873282, "version": 1, "confirmations": 11481, "time": 1537873282, "locktime": 0, "vsize": 226, "size": 226}