{"hash": "c030e3cf4d8cd31dd2cebdd09bfc706809e0b91b518540fee3115041ca0d27be", "blockhash": "0000000000000000001cda96e906b7601b7a6fb1a3b62bca570a9e5d8f4b3de1", "vout": [{"scriptPubKey": {"reqSigs": 1, "hex": "a914ccac4a04f66353d594adeac58948d8e546e577d987", "addresses": ["3LMEAY4XFXDkAhYW4oHjDqit9nFtrCKwZh"], "asm": "OP_HASH160 ccac4a04f66353d594adeac58948d8e546e577d9 OP_EQUAL", "type": "scripthash"}, "value": 0.01874731, "n": 0}, {"scriptPubKey": {"reqSigs": 1, "hex": "76a914eb43cc89b049bc42b30a268553702e03a82910e688ac", "addresses": ["1NSy1qTuNbNj9j1DHw1QtnGT3oqztGbCHM"], "asm": "OP_DUP OP_HASH160 eb43cc89b049bc42b30a268553702e03a82910e6 OP_EQUALVERIFY OP_CHECKSIG", "type": "pubkeyhash"}, "value": 0.1415, "n": 1}, {"scriptPubKey": {"reqSigs": 1, "hex": "76a914e3fd55acb0477c762ba266ae1473023e60e1b13488ac", "addresses": ["1MnVsYi71TLiJswhtu9qdGVQqdYyS6Jfc7"], "asm": "OP_DUP OP_HASH160 e3fd55acb0477c762ba266ae1473023e60e1b134 OP_EQUALVERIFY OP_CHECKSIG", "type": "pubkeyhash"}, "value": 0.01554386, "n": 2}], "hex": "010000000001016967418c3d76c7130405989abb8ead93fd8462f2e0b218a5838c979144aa49810800000023220020bad178ef0fa7b8fca3380054dd9fceced89cab5e2c05e27a3d544a8b6d5406deffffffff032b9b1c000000000017a914ccac4a04f66353d594adeac58948d8e546e577d98770e9d700000000001976a914eb43cc89b049bc42b30a268553702e03a82910e688acd2b71700000000001976a914e3fd55acb0477c762ba266ae1473023e60e1b13488ac0400483045022100e49ad2df121d0604b44c2a4df60d208128245ab03adb4f68957c73fb949335b002204c4c200b4972660d9142e014e0c0638596f9782b5f7bf1f55e98f080ae2258d801483045022100c6a8cc91d0eb3f902bb92de67cd64e82c184d92772112cf3bde361892c59e9f4022068d45541ed5c701d7aeb864b39fc046f32708337616b3a32d08950c2cfccca20016952210347694163340940c2e4c4d01b99e8244a8049e21f5bc6f295e7ffa98e732829cf2103c15510d98b101c3e0d23e2f59e311b7b49a1a9b1cb349c263adfb4d3cfb34eb32102fb49c562fb77e07e70445b40b6b2d6429ef30525842d6260dcb351f9d22e2e2c53ae00000000", "vin": [{"txinwitness": ["", "3045022100e49ad2df121d0604b44c2a4df60d208128245ab03adb4f68957c73fb949335b002204c4c200b4972660d9142e014e0c0638596f9782b5f7bf1f55e98f080ae2258d801", "3045022100c6a8cc91d0eb3f902bb92de67cd64e82c184d92772112cf3bde361892c59e9f4022068d45541ed5c701d7aeb864b39fc046f32708337616b3a32d08950c2cfccca2001", "52210347694163340940c2e4c4d01b99e8244a8049e21f5bc6f295e7ffa98e732829cf2103c15510d98b101c3e0d23e2f59e311b7b49a1a9b1cb349c263adfb4d3cfb34eb32102fb49c562fb77e07e70445b40b6b2d6429ef30525842d6260dcb351f9d22e2e2c53ae"], "sequence": 4294967295, "scriptSig": {"hex": "220020bad178ef0fa7b8fca3380054dd9fceced89cab5e2c05e27a3d544a8b6d5406de", "asm": "0020bad178ef0fa7b8fca3380054dd9fceced89cab5e2c05e27a3d544a8b6d5406de"}, "vout": 8, "txid": "8149aa4491978c83a518b2e0f26284fd93ad8ebb9a98050413c7763d8c416769"}], "txid": "4f1ca4eb1b36a115e0b890fe0ad260b13c8abc842a59db958eeb04bfca1f091c", "blocktime": 1537873282, "version": 1, "confirmations": 11484, "time": 1537873282, "locktime": 0, "vsize": 250, "size": 442}