{"hash": "4f2656da48b10272aa92867688f36886ce22bfb60e6bd8cd4453a3391eb7f14f", "blockhash": "00000000000000000017f5eb5941039fbcee6240d03bc1f2f8e35350df66a1d8", "vout": [{"scriptPubKey": {"reqSigs": 1, "hex": "a9144bddec90816fb0069f621ef3c9c44d305c35b96287", "addresses": ["38cATVAd2EMmEopjmfm1eRzpGe3BiSj2ng"], "asm": "OP_HASH160 4bddec90816fb0069f621ef3c9c44d305c35b962 OP_EQUAL", "type": "scripthash"}, "value": 0.00359317, "n": 0}], "hex": "0100000001b30adbba3cfeb489e134df59e72984c3c4300bf0abd98611eb4477377ddb829d010000006a473044022063ee3803214563c0424803dbc123db35d81f8bd14cad77fed63b4f1f373f5232022022acda5ef98734dda2ba5c3a0cdebd1a91f340001e23041ab8439c6ae315bd9001210234447a948766f14510d6f84b7709ffb7c6052c93e4845d4c8513e0a493d2d8fafdffffff01957b05000000000017a9144bddec90816fb0069f621ef3c9c44d305c35b9628715490800", "vin": [{"sequence": 4294967293, "scriptSig": {"hex": "473044022063ee3803214563c0424803dbc123db35d81f8bd14cad77fed63b4f1f373f5232022022acda5ef98734dda2ba5c3a0cdebd1a91f340001e23041ab8439c6ae315bd9001210234447a948766f14510d6f84b7709ffb7c6052c93e4845d4c8513e0a493d2d8fa", "asm": "3044022063ee3803214563c0424803dbc123db35d81f8bd14cad77fed63b4f1f373f5232022022acda5ef98734dda2ba5c3a0cdebd1a91f340001e23041ab8439c6ae315bd90[ALL] 0234447a948766f14510d6f84b7709ffb7c6052c93e4845d4c8513e0a493d2d8fa"}, "vout": 1, "txid": "9d82db7d377744eb1186d9abf00b30c4c38429e759df34e189b4fe3cbadb0ab3"}], "txid": "4f2656da48b10272aa92867688f36886ce22bfb60e6bd8cd4453a3391eb7f14f", "blocktime": 1537874412, "version": 1, "confirmations": 11468, "time": 1537874412, "locktime": 542997, "vsize": 189, "size": 189}