{"hash": "4f2ec7edcff6449d6e9099fdc9de4e0c87fa8fae62dda5194a8932f510254771", "blockhash": "0000000000000000000e13cef7c366c0283d82e591d1acd082e914b08063cdf1", "vout": [{"scriptPubKey": {"reqSigs": 1, "hex": "76a91404dba6ebce43fc5f58f8b7d62c2b8bf851d29fb888ac", "addresses": ["1SgqTam2bBWYRSfdgMBbKFmLWK3S5BDiX"], "asm": "OP_DUP OP_HASH160 04dba6ebce43fc5f58f8b7d62c2b8bf851d29fb8 OP_EQUALVERIFY OP_CHECKSIG", "type": "pubkeyhash"}, "value": 0.00344401, "n": 0}, {"scriptPubKey": {"reqSigs": 1, "hex": "a914b3f4dc05216dd24bc3b3050edb457b4c6d7a422487", "addresses": ["3J6YD1nwchCzWS8BuMFnu3aRLBJsZVFoYW"], "asm": "OP_HASH160 b3f4dc05216dd24bc3b3050edb457b4c6d7a4224 OP_EQUAL", "type": "scripthash"}, "value": 0.01210277, "n": 1}], "hex": "010000000198bedbaee298f38b9c6784c31cff306ee2db5ce8461685ead2df169e7416f6a800000000fc00473044022002f239f10a6d43245ad155dfbb612122f97a2336604dc6670baabec6aece4a9302203ded6e959274a9971cf4fc580832bc3c892e596727f16ae6a762188b0cf2357301473044022074b0f8c0e5f529edb5b016333cb2155fd5361baa897a5acf0bfe575fae1def7f022009b4df09b4e7b8934821544745775572982586c84c651ecd1c7b35da08e00a6f014c69522102ab379fb2da5f6546ad4f992ea6064d07f917097342b3f5f1135734f8b518ee042102caa08ec2f2b43ef30aca59eedfbc8279ba353d894b3ee547f8d5858be2be7fdc210360f9bf31567cad37fc8d15051ada236a2c8da5948c3f43dcd572741dde501d0853aeffffffff0251410500000000001976a91404dba6ebce43fc5f58f8b7d62c2b8bf851d29fb888aca57712000000000017a914b3f4dc05216dd24bc3b3050edb457b4c6d7a42248700000000", "vin": [{"sequence": 4294967295, "scriptSig": {"hex": "00473044022002f239f10a6d43245ad155dfbb612122f97a2336604dc6670baabec6aece4a9302203ded6e959274a9971cf4fc580832bc3c892e596727f16ae6a762188b0cf2357301473044022074b0f8c0e5f529edb5b016333cb2155fd5361baa897a5acf0bfe575fae1def7f022009b4df09b4e7b8934821544745775572982586c84c651ecd1c7b35da08e00a6f014c69522102ab379fb2da5f6546ad4f992ea6064d07f917097342b3f5f1135734f8b518ee042102caa08ec2f2b43ef30aca59eedfbc8279ba353d894b3ee547f8d5858be2be7fdc210360f9bf31567cad37fc8d15051ada236a2c8da5948c3f43dcd572741dde501d0853ae", "asm": "0 3044022002f239f10a6d43245ad155dfbb612122f97a2336604dc6670baabec6aece4a9302203ded6e959274a9971cf4fc580832bc3c892e596727f16ae6a762188b0cf23573[ALL] 3044022074b0f8c0e5f529edb5b016333cb2155fd5361baa897a5acf0bfe575fae1def7f022009b4df09b4e7b8934821544745775572982586c84c651ecd1c7b35da08e00a6f[ALL] 522102ab379fb2da5f6546ad4f992ea6064d07f917097342b3f5f1135734f8b518ee042102caa08ec2f2b43ef30aca59eedfbc8279ba353d894b3ee547f8d5858be2be7fdc210360f9bf31567cad37fc8d15051ada236a2c8da5948c3f43dcd572741dde501d0853ae"}, "vout": 0, "txid": "a8f616749e16dfd2ea851646e85cdbe26e30ff1cc384679c8bf398e2aedbbe98"}], "txid": "4f2ec7edcff6449d6e9099fdc9de4e0c87fa8fae62dda5194a8932f510254771", "blocktime": 1537871767, "version": 1, "confirmations": 11493, "time": 1537871767, "locktime": 0, "vsize": 369, "size": 369}