{"hash": "4f301b6cb46502227af0d6f5a9a81619a7887bf41d5dc6e014bfe9f142eb8b22", "blockhash": "00000000000000000017f5eb5941039fbcee6240d03bc1f2f8e35350df66a1d8", "vout": [{"scriptPubKey": {"reqSigs": 1, "hex": "a914c2c186a7e4230ea157a0d28f03424dae92d8ed7a87", "addresses": ["3KSnrBTChEFqpGe1EYstWzdjup9ekPzNrV"], "asm": "OP_HASH160 c2c186a7e4230ea157a0d28f03424dae92d8ed7a OP_EQUAL", "type": "scripthash"}, "value": 0.0205, "n": 0}, {"scriptPubKey": {"reqSigs": 1, "hex": "76a914b51484ea10e63a7394d6eeaa664066b86b9a0ff588ac", "addresses": ["1HWTtRN999N8EedYidzGFYHxCCfHRCKyjK"], "asm": "OP_DUP OP_HASH160 b51484ea10e63a7394d6eeaa664066b86b9a0ff5 OP_EQUALVERIFY OP_CHECKSIG", "type": "pubkeyhash"}, "value": 0.13285482, "n": 1}], "hex": "0100000001bde8927c26c1753dd7878cb557828a4856673231ab4033c0e2b1914853f16691000000006a473044022021eeeb083fb62ef258fb9ad977a2b0d09a8d4dfe5b6b9c3216f8a356697a4d79022020bb1789cac5c4e0bf647551bd5163e032f74b9bf29942d585daa2a70a437f22012102490c1f9d79e46db735819682e834d7971b3a7bf707138dec5a2c2364ec637498ffffffff02d0471f000000000017a914c2c186a7e4230ea157a0d28f03424dae92d8ed7a876ab8ca00000000001976a914b51484ea10e63a7394d6eeaa664066b86b9a0ff588ac00000000", "vin": [{"sequence": 4294967295, "scriptSig": {"hex": "473044022021eeeb083fb62ef258fb9ad977a2b0d09a8d4dfe5b6b9c3216f8a356697a4d79022020bb1789cac5c4e0bf647551bd5163e032f74b9bf29942d585daa2a70a437f22012102490c1f9d79e46db735819682e834d7971b3a7bf707138dec5a2c2364ec637498", "asm": "3044022021eeeb083fb62ef258fb9ad977a2b0d09a8d4dfe5b6b9c3216f8a356697a4d79022020bb1789cac5c4e0bf647551bd5163e032f74b9bf29942d585daa2a70a437f22[ALL] 02490c1f9d79e46db735819682e834d7971b3a7bf707138dec5a2c2364ec637498"}, "vout": 0, "txid": "9166f1534891b1e2c03340ab31326756488a8257b58c87d73d75c1267c92e8bd"}], "txid": "4f301b6cb46502227af0d6f5a9a81619a7887bf41d5dc6e014bfe9f142eb8b22", "blocktime": 1537874412, "version": 1, "confirmations": 11467, "time": 1537874412, "locktime": 0, "vsize": 223, "size": 223}