{"hash": "44d3ced12a0aed37870f9871c09df34b66345ec7380cbaa5ff0ec1e68e6d2ff7", "blockhash": "0000000000000000001f0ddff1eddb255c1121bcd4da4f1bc9a0da00cae72433", "vout": [{"scriptPubKey": {"reqSigs": 1, "hex": "76a914d6ba7cc505a6effabf661368868f5011fd8bd93e88ac", "addresses": ["1LaP1RV22EihKTbz9J5fRCNP1PkNGgmWvS"], "asm": "OP_DUP OP_HASH160 d6ba7cc505a6effabf661368868f5011fd8bd93e OP_EQUALVERIFY OP_CHECKSIG", "type": "pubkeyhash"}, "value": 1.22e-05, "n": 0}, {"scriptPubKey": {"reqSigs": 1, "hex": "a9141d7370ccde4590204155e4074f69743a8e4fac0287", "addresses": ["34Njp4ZKtmCDfqqps26wHBYQQGUo2pGkLi"], "asm": "OP_HASH160 1d7370ccde4590204155e4074f69743a8e4fac02 OP_EQUAL", "type": "scripthash"}, "value": 0.00207071, "n": 1}], "hex": "0100000000010105b6df9dc9a0f7dfeb4955eb799b0b74972738742edbd74ce8f72650625b6dad0100000023220020f63dfc12340f6360d0251c22746d6b56093e3243e96ca012a65484a5d9cf0ec0ffffffff02c4040000000000001976a914d6ba7cc505a6effabf661368868f5011fd8bd93e88acdf2803000000000017a9141d7370ccde4590204155e4074f69743a8e4fac0287040047304402203ec010344de7e6c30fac389f0081d782bfffc5217222ad2a59d07e2bcbb68194022063728acc8d6922e4bb5582aa4450056f9193ac3b094110cb0f0fee8d93ef880b01483045022100fbc82571fb6904017fd619df8976c41e143ee9df0bb55506c6db6cdfdd1134520220718f21642d4d16e9e2ae10d594921047a0307cefc5336d5e8c7abcc1b34265ac0147522102097067a6a0cc130a9a6f6577b47bf369b840a79de31cd7457187994266b1bb7c2103338f346cab6ba87fe940591a03ac234be06520c5ab386d4b6632e8eef0d0db7652ae00000000", "vin": [{"txinwitness": ["", "304402203ec010344de7e6c30fac389f0081d782bfffc5217222ad2a59d07e2bcbb68194022063728acc8d6922e4bb5582aa4450056f9193ac3b094110cb0f0fee8d93ef880b01", "3045022100fbc82571fb6904017fd619df8976c41e143ee9df0bb55506c6db6cdfdd1134520220718f21642d4d16e9e2ae10d594921047a0307cefc5336d5e8c7abcc1b34265ac01", "522102097067a6a0cc130a9a6f6577b47bf369b840a79de31cd7457187994266b1bb7c2103338f346cab6ba87fe940591a03ac234be06520c5ab386d4b6632e8eef0d0db7652ae"], "sequence": 4294967295, "scriptSig": {"hex": "220020f63dfc12340f6360d0251c22746d6b56093e3243e96ca012a65484a5d9cf0ec0", "asm": "0020f63dfc12340f6360d0251c22746d6b56093e3243e96ca012a65484a5d9cf0ec0"}, "vout": 1, "txid": "ad6d5b625026f7e84cd7db2e74382797740b9b79eb5549ebdff7a0c99ddfb605"}], "txid": "4f319297a20d259d526bc1a8a48719fa882358be1d3eecb8d5ec2a0e940d8448", "blocktime": 1537872018, "version": 1, "confirmations": 11489, "time": 1537872018, "locktime": 0, "vsize": 208, "size": 373}