{"hash": "4f33e76133961461c0e539ae0b8bd44f42e59fe958f98606e2305494d2154465", "blockhash": "00000000000000000018f53835495a110e01622372bf6ae95dc86f2b0ab887b0", "vout": [{"scriptPubKey": {"reqSigs": 1, "hex": "76a914ae870863d1c673d5117961e68fb01661a25460d288ac", "addresses": ["1GupLcxrU8861fvvUuLBDfLpzG45zYua7p"], "asm": "OP_DUP OP_HASH160 ae870863d1c673d5117961e68fb01661a25460d2 OP_EQUALVERIFY OP_CHECKSIG", "type": "pubkeyhash"}, "value": 0.00396583, "n": 0}, {"scriptPubKey": {"reqSigs": 1, "hex": "76a9142e0dfb421b77905c9f501e7c510f845e63c43bfd88ac", "addresses": ["15CWqGuhBDXGpu3h1uHVuKMT9cWTFYFfYq"], "asm": "OP_DUP OP_HASH160 2e0dfb421b77905c9f501e7c510f845e63c43bfd OP_EQUALVERIFY OP_CHECKSIG", "type": "pubkeyhash"}, "value": 0.15623779, "n": 1}], "hex": "01000000026e0a0b82a72f17b454526ff5c80be1eec5b0fb0cdd9bec9d3fc36c6909605458000000006b4830450221009550394757b0ea6e40eba56c89cb37d43a4aa1ef3ecd6741836d65a64b3836fb022013d98122d8c0a10d8d1288eb00d42e83eb746ecabec95ebf571354078ff89b1701210214a0dc04186bbd862a0acf1d94a421a813508bbbcfeca7406591cbcf70b8084cffffffffc069fa63d4539674f73c56f52a3973269beaee5dbb3f934bde5ce80cc90cd899010000006b483045022100f19b75fcddd3a91f7cbfc11fbcf475b3214af55c1625f797647157e1d0d1334102200ba0f66a568d3bd7c8609c1b0c16aff3e6f140ee0010747b6afd03ffbd8e6a5f012103e5710abe50e6a94c254966a2429841f74b2b4b817aca0255e87bb0f8869c6acaffffffff02270d0600000000001976a914ae870863d1c673d5117961e68fb01661a25460d288ac6366ee00000000001976a9142e0dfb421b77905c9f501e7c510f845e63c43bfd88ac00000000", "vin": [{"sequence": 4294967295, "scriptSig": {"hex": "4830450221009550394757b0ea6e40eba56c89cb37d43a4aa1ef3ecd6741836d65a64b3836fb022013d98122d8c0a10d8d1288eb00d42e83eb746ecabec95ebf571354078ff89b1701210214a0dc04186bbd862a0acf1d94a421a813508bbbcfeca7406591cbcf70b8084c", "asm": "30450221009550394757b0ea6e40eba56c89cb37d43a4aa1ef3ecd6741836d65a64b3836fb022013d98122d8c0a10d8d1288eb00d42e83eb746ecabec95ebf571354078ff89b17[ALL] 0214a0dc04186bbd862a0acf1d94a421a813508bbbcfeca7406591cbcf70b8084c"}, "vout": 0, "txid": "58546009696cc33f9dec9bdd0cfbb0c5eee10bc8f56f5254b4172fa7820b0a6e"}, {"sequence": 4294967295, "scriptSig": {"hex": "483045022100f19b75fcddd3a91f7cbfc11fbcf475b3214af55c1625f797647157e1d0d1334102200ba0f66a568d3bd7c8609c1b0c16aff3e6f140ee0010747b6afd03ffbd8e6a5f012103e5710abe50e6a94c254966a2429841f74b2b4b817aca0255e87bb0f8869c6aca", "asm": "3045022100f19b75fcddd3a91f7cbfc11fbcf475b3214af55c1625f797647157e1d0d1334102200ba0f66a568d3bd7c8609c1b0c16aff3e6f140ee0010747b6afd03ffbd8e6a5f[ALL] 03e5710abe50e6a94c254966a2429841f74b2b4b817aca0255e87bb0f8869c6aca"}, "vout": 1, "txid": "99d80cc90ce85cde4b933fbb5deeea9b2673392af5563cf7749653d463fa69c0"}], "txid": "4f33e76133961461c0e539ae0b8bd44f42e59fe958f98606e2305494d2154465", "blocktime": 1537870928, "version": 1, "confirmations": 11514, "time": 1537870928, "locktime": 0, "vsize": 374, "size": 374}