{"hash": "41a954dc2c369ef2374936b485dc8b5aec64954f77e771ee67569600828a10b9", "blockhash": "0000000000000000001f76057863aec43deb6fa401d9628bb513d65a8098bfab", "vout": [{"scriptPubKey": {"reqSigs": 1, "hex": "a914e59e6d4732b9e489a7b679365c73b52fe34f392787", "addresses": ["3Nd8TAWBAL7epxjSCMdxqpxGnjSJMswRpf"], "asm": "OP_HASH160 e59e6d4732b9e489a7b679365c73b52fe34f3927 OP_EQUAL", "type": "scripthash"}, "value": 0.44261667, "n": 0}, {"scriptPubKey": {"reqSigs": 1, "hex": "a9146e809cb767b39510ba6ff1b41fd233c2c6b6682587", "addresses": ["3BmJKmwJJmjdxZdvfs8Evmz9ThNNFbF4Bp"], "asm": "OP_HASH160 6e809cb767b39510ba6ff1b41fd233c2c6b66825 OP_EQUAL", "type": "scripthash"}, "value": 0.02683427, "n": 1}], "hex": "02000000000101b3b4078b6fc2c613be9de3b3b71f72ff7ac18e49f6f2f7e588c4caa3c9f2692201000000171600143c9d611e15d3253d3f90f1c850d0c03a7a583706feffffff022361a3020000000017a914e59e6d4732b9e489a7b679365c73b52fe34f39278723f228000000000017a9146e809cb767b39510ba6ff1b41fd233c2c6b668258702483045022100be497739c53976128be832b42a1f3ac60e346bec44ac31aee98139e4782589f802203f39b62630ef9a5d9a25ee7c67b6b7e374dbfc0ee9cad5b3cdc185ac2fc3998b012103ef7905be4e813570a8da844ef42f79285f49c45df009632760685bb07409160014490800", "vin": [{"txinwitness": ["3045022100be497739c53976128be832b42a1f3ac60e346bec44ac31aee98139e4782589f802203f39b62630ef9a5d9a25ee7c67b6b7e374dbfc0ee9cad5b3cdc185ac2fc3998b01", "03ef7905be4e813570a8da844ef42f79285f49c45df009632760685bb074091600"], "sequence": 4294967294, "scriptSig": {"hex": "1600143c9d611e15d3253d3f90f1c850d0c03a7a583706", "asm": "00143c9d611e15d3253d3f90f1c850d0c03a7a583706"}, "vout": 1, "txid": "2269f2c9a3cac488e5f7f2f6498ec17aff721fb7b3e39dbe13c6c26f8b07b4b3"}], "txid": "4f3708cf1e015ea1fd2c72a63db1225813b826503b72e647dd0c5395816e4cf6", "blocktime": 1537873891, "version": 2, "confirmations": 11479, "time": 1537873891, "locktime": 542996, "vsize": 166, "size": 248}