{"hash": "4f4b1629a35c9325b1664854a2617594a82f1f8452aa221716d64776a101b3c6", "blockhash": "0000000000000000001e0dab787dd257d1dbfcb92a98c2207d5e1078be1f4165", "vout": [{"scriptPubKey": {"reqSigs": 1, "hex": "76a9149dc9cd4a49afb7a0271701c560b5707516293e2188ac", "addresses": ["1FPJqZVcDgRtjTPbga6JcTA6Tek2gSKk1L"], "asm": "OP_DUP OP_HASH160 9dc9cd4a49afb7a0271701c560b5707516293e21 OP_EQUALVERIFY OP_CHECKSIG", "type": "pubkeyhash"}, "value": 0.05849496, "n": 0}], "hex": "01000000010b2ce0317ba2486c03ee0b6b4268019fc981f2c740edc99cd234757d3cb65bc1010000006b483045022100e446e021d993cedd584d7951420cdea05aeccd006bf506ff006e522c8801567d022061295d91eb23a9c2e9f5f526f1f823b0d43ff1fae52ab5f586b72ecc03642f5901210313f183ad518b4359d18a432aa9c33ae95885cbf690c83dc65bb9475e6bb9a774ffffffff0198415900000000001976a9149dc9cd4a49afb7a0271701c560b5707516293e2188ac00000000", "vin": [{"sequence": 4294967295, "scriptSig": {"hex": "483045022100e446e021d993cedd584d7951420cdea05aeccd006bf506ff006e522c8801567d022061295d91eb23a9c2e9f5f526f1f823b0d43ff1fae52ab5f586b72ecc03642f5901210313f183ad518b4359d18a432aa9c33ae95885cbf690c83dc65bb9475e6bb9a774", "asm": "3045022100e446e021d993cedd584d7951420cdea05aeccd006bf506ff006e522c8801567d022061295d91eb23a9c2e9f5f526f1f823b0d43ff1fae52ab5f586b72ecc03642f59[ALL] 0313f183ad518b4359d18a432aa9c33ae95885cbf690c83dc65bb9475e6bb9a774"}, "vout": 1, "txid": "c15bb63c7d7534d29cc9ed40c7f281c99f0168426b0bee036c48a27b31e02c0b"}], "txid": "4f4b1629a35c9325b1664854a2617594a82f1f8452aa221716d64776a101b3c6", "blocktime": 1537872475, "version": 1, "confirmations": 11486, "time": 1537872475, "locktime": 0, "vsize": 192, "size": 192}