{"hash": "0920027a0d8e18be6e3d7804432a37a0bc71af0f03994e742d04ab4f931cb2df", "blockhash": "0000000000000000001cda96e906b7601b7a6fb1a3b62bca570a9e5d8f4b3de1", "vout": [{"scriptPubKey": {"reqSigs": 1, "hex": "a914b3cafb7567b42a68153d7b7ad60e2c3ce1e2784b87", "addresses": ["3J5g3LSrYj8xt2sTpkq3xbmNDXNALofrry"], "asm": "OP_HASH160 b3cafb7567b42a68153d7b7ad60e2c3ce1e2784b OP_EQUAL", "type": "scripthash"}, "value": 0.00101373, "n": 0}, {"scriptPubKey": {"reqSigs": 1, "hex": "a91408c364340a91e77e4376b26fdad3b5aedc5661f787", "addresses": ["32VMQ7Th4qGhbDYY68FZrfSF9hTbsPivgt"], "asm": "OP_HASH160 08c364340a91e77e4376b26fdad3b5aedc5661f7 OP_EQUAL", "type": "scripthash"}, "value": 0.02863001, "n": 1}], "hex": "01000000000101072453157a202fdf920754e95bf773728a5f559cb1533d45c6ec6740c4eddb22010000002322002027561ef61439ff4994ea3793249bbb358319edb59fff63c1eeada48f299e81b5ffffffff02fd8b01000000000017a914b3cafb7567b42a68153d7b7ad60e2c3ce1e2784b8799af2b000000000017a91408c364340a91e77e4376b26fdad3b5aedc5661f787040047304402201bb196989f8254b8de59d158eaa1ecfdc8d1f71de565f1782f962114aa2c40f7022053c9b9731b0bd383436bdd84cc3140e4d068c43b63a8bbf2ffb5a5994abe64b801483045022100a4ec600f08961676560399396172539f6f26396b376ca82cfb64816deb1a02820220640b5214e7beb8aeda2ca5b84d17cf0f8059f48bd51fe1c3592c9ac0346ef2830147522102f484437eae67e7d1f9cf7235bd52510c99f379408a1f6fe737011d4bc259358a2103871fc2ca08e6950b38867e8e6a0e94ee625223d3aa0df5c65f414c6d784467e252ae00000000", "vin": [{"txinwitness": ["", "304402201bb196989f8254b8de59d158eaa1ecfdc8d1f71de565f1782f962114aa2c40f7022053c9b9731b0bd383436bdd84cc3140e4d068c43b63a8bbf2ffb5a5994abe64b801", "3045022100a4ec600f08961676560399396172539f6f26396b376ca82cfb64816deb1a02820220640b5214e7beb8aeda2ca5b84d17cf0f8059f48bd51fe1c3592c9ac0346ef28301", "522102f484437eae67e7d1f9cf7235bd52510c99f379408a1f6fe737011d4bc259358a2103871fc2ca08e6950b38867e8e6a0e94ee625223d3aa0df5c65f414c6d784467e252ae"], "sequence": 4294967295, "scriptSig": {"hex": "22002027561ef61439ff4994ea3793249bbb358319edb59fff63c1eeada48f299e81b5", "asm": "002027561ef61439ff4994ea3793249bbb358319edb59fff63c1eeada48f299e81b5"}, "vout": 1, "txid": "22dbedc44067ecc6453d53b19c555f8a7273f75be9540792df2f207a15532407"}], "txid": "4f4ccf467ea623ce0be1d86c0fb224e5d61a921295c0f336565a51e7d3b75ba2", "blocktime": 1537873282, "version": 1, "confirmations": 11485, "time": 1537873282, "locktime": 0, "vsize": 206, "size": 371}