{"hash": "ef3a0c55bc94fa5fa6fb05f89a0f1819f82fa29d528f7660347ee8fc7793fb9e", "blockhash": "0000000000000000000e13cef7c366c0283d82e591d1acd082e914b08063cdf1", "vout": [{"scriptPubKey": {"reqSigs": 1, "hex": "00144864dbc60aac8c754c303287fd1929e648b46258", "addresses": ["bc1qfpjdh3s24jx82npsx2rl6xffueytgcjcmf6y33"], "asm": "0 4864dbc60aac8c754c303287fd1929e648b46258", "type": "witness_v0_keyhash"}, "value": 1.17e-05, "n": 0}, {"scriptPubKey": {"reqSigs": 1, "hex": "a914a0bc5dcbef09ee0624f36b94db486fc8d9143dbb87", "addresses": ["3GLuhAQmktTCpmpLx4tRRvkEokU9vJG323"], "asm": "OP_HASH160 a0bc5dcbef09ee0624f36b94db486fc8d9143dbb OP_EQUAL", "type": "scripthash"}, "value": 0.00114869, "n": 1}], "hex": "01000000000101409312c8e989451ecd53a0401001d352a1a5a2678207e534f86158afea74aa520100000000ffffffff0292040000000000001600144864dbc60aac8c754c303287fd1929e648b46258b5c001000000000017a914a0bc5dcbef09ee0624f36b94db486fc8d9143dbb8702483045022100cb84c359b4518eb8d9a412198e798a691f1ed4fb3a42bcca9cd96a72d164754b022057328d1db2ddd463c6509250f7947ab72fef87c1ce4c184db19e021825c46f5f0121037dd22d6b2371d9c0d4775699bb7d4e3d89425a1ee8afde5d262424199c531a4300000000", "vin": [{"txinwitness": ["3045022100cb84c359b4518eb8d9a412198e798a691f1ed4fb3a42bcca9cd96a72d164754b022057328d1db2ddd463c6509250f7947ab72fef87c1ce4c184db19e021825c46f5f01", "037dd22d6b2371d9c0d4775699bb7d4e3d89425a1ee8afde5d262424199c531a43"], "sequence": 4294967295, "scriptSig": {"hex": "", "asm": ""}, "vout": 1, "txid": "52aa74eaaf5861f834e5078267a2a5a152d3011040a053cd1e4589e9c8129340"}], "txid": "4f4daed6a926a0760fb2aa7d345229e561ece72e959c270512b168e436360530", "blocktime": 1537871767, "version": 1, "confirmations": 11495, "time": 1537871767, "locktime": 0, "vsize": 142, "size": 224}