{"hash": "4f4e98bc9da92f011659fc4ea25696b749b94c9e5b787d4c3f924a8cfcb4a31d", "blockhash": "0000000000000000001f76057863aec43deb6fa401d9628bb513d65a8098bfab", "vout": [{"scriptPubKey": {"reqSigs": 1, "hex": "76a914a3ad86d3a7c3fa058731e1152886666069bcf7a588ac", "addresses": ["1FvT27XehoQv7ANBQGtigfrogYmNFMTgfg"], "asm": "OP_DUP OP_HASH160 a3ad86d3a7c3fa058731e1152886666069bcf7a5 OP_EQUALVERIFY OP_CHECKSIG", "type": "pubkeyhash"}, "value": 0.01467058, "n": 0}, {"scriptPubKey": {"reqSigs": 1, "hex": "76a914824b5c286021534a5d394adbe4bcfec4b0032a9488ac", "addresses": ["1Csw83S43AjTXyh4uxCcc2jA9AUJFfXTTH"], "asm": "OP_DUP OP_HASH160 824b5c286021534a5d394adbe4bcfec4b0032a94 OP_EQUALVERIFY OP_CHECKSIG", "type": "pubkeyhash"}, "value": 0.0238386, "n": 1}], "hex": "010000000115e4d254c0286c1ab83cb777d20e8338ce88c4fb5f92f47b9400937df28caaa6000000006a473044022071fe95f2dd16cd180ce53343f0a4b5038bf15f19d69f826bbc4dcae5b0c76bf402205ae92bbc8f5186b181be9df829f2e1f81ce584dcd9c800093b3b741a74281b48012103821fe4a2c2cbc0c95c098834407e93a1d94dda92cba9191d5976d0d250c73864ffffffff02b2621600000000001976a914a3ad86d3a7c3fa058731e1152886666069bcf7a588acf45f2400000000001976a914824b5c286021534a5d394adbe4bcfec4b0032a9488ac00000000", "vin": [{"sequence": 4294967295, "scriptSig": {"hex": "473044022071fe95f2dd16cd180ce53343f0a4b5038bf15f19d69f826bbc4dcae5b0c76bf402205ae92bbc8f5186b181be9df829f2e1f81ce584dcd9c800093b3b741a74281b48012103821fe4a2c2cbc0c95c098834407e93a1d94dda92cba9191d5976d0d250c73864", "asm": "3044022071fe95f2dd16cd180ce53343f0a4b5038bf15f19d69f826bbc4dcae5b0c76bf402205ae92bbc8f5186b181be9df829f2e1f81ce584dcd9c800093b3b741a74281b48[ALL] 03821fe4a2c2cbc0c95c098834407e93a1d94dda92cba9191d5976d0d250c73864"}, "vout": 0, "txid": "a6aa8cf27d9300947bf4925ffbc488ce38830ed277b73cb81a6c28c054d2e415"}], "txid": "4f4e98bc9da92f011659fc4ea25696b749b94c9e5b787d4c3f924a8cfcb4a31d", "blocktime": 1537873891, "version": 1, "confirmations": 11475, "time": 1537873891, "locktime": 0, "vsize": 225, "size": 225}