{"hash": "4f51bd449e339baa6be24b7b9350b355e294474810499a40f2e3be7af03ad4f3", "blockhash": "0000000000000000000dcc0f55137456b1a82d3642486a52398922ac4d620174", "vout": [{"scriptPubKey": {"reqSigs": 1, "hex": "76a914d8319c62d4091ac6e2c11b7b3d7da1d5a6b0acb688ac", "addresses": ["1Li8PTgH8LfjxNvWzm2biRmyB3j7scXp5U"], "asm": "OP_DUP OP_HASH160 d8319c62d4091ac6e2c11b7b3d7da1d5a6b0acb6 OP_EQUALVERIFY OP_CHECKSIG", "type": "pubkeyhash"}, "value": 0.050038, "n": 0}, {"scriptPubKey": {"reqSigs": 1, "hex": "76a91462ea817f77245d99de7a7ae8c44731b498b155f688ac", "addresses": ["1A229YzVPjmYNzfVkgrbZzR8dGsG5PyM4t"], "asm": "OP_DUP OP_HASH160 62ea817f77245d99de7a7ae8c44731b498b155f6 OP_EQUALVERIFY OP_CHECKSIG", "type": "pubkeyhash"}, "value": 11.18842191, "n": 1}], "hex": "0200000001316a25af25d27cd462c717d8295b6731144362ce9b220b8d9726bcec015f765c000000006a4730440220297e6559c68a46355ab180e8d42e4d37a7cd36c7d1dba0b4e09c82811d5bd7a6022002a4b1a2b8a35debf820d007b9abe59c2e904fdfad7b1fb07ecf4e9f67c1d52f0121022e293a7813ee49137a28fa1a3a228eb2f60e9dac08fda0f0e05734620db51cbeffffffff02185a4c00000000001976a914d8319c62d4091ac6e2c11b7b3d7da1d5a6b0acb688ac4f2db042000000001976a91462ea817f77245d99de7a7ae8c44731b498b155f688ac00000000", "vin": [{"sequence": 4294967295, "scriptSig": {"hex": "4730440220297e6559c68a46355ab180e8d42e4d37a7cd36c7d1dba0b4e09c82811d5bd7a6022002a4b1a2b8a35debf820d007b9abe59c2e904fdfad7b1fb07ecf4e9f67c1d52f0121022e293a7813ee49137a28fa1a3a228eb2f60e9dac08fda0f0e05734620db51cbe", "asm": "30440220297e6559c68a46355ab180e8d42e4d37a7cd36c7d1dba0b4e09c82811d5bd7a6022002a4b1a2b8a35debf820d007b9abe59c2e904fdfad7b1fb07ecf4e9f67c1d52f[ALL] 022e293a7813ee49137a28fa1a3a228eb2f60e9dac08fda0f0e05734620db51cbe"}, "vout": 0, "txid": "5c765f01ecbc26978d0b229bce62431431675b29d817c762d47cd225af256a31"}], "txid": "4f51bd449e339baa6be24b7b9350b355e294474810499a40f2e3be7af03ad4f3", "blocktime": 1537870268, "version": 2, "confirmations": 11518, "time": 1537870268, "locktime": 0, "vsize": 225, "size": 225}