{"hash": "4f57474377e627848f7c73fac83bca783d55e86c092de84a0c4a25fa6f4f4035", "blockhash": "0000000000000000000e13cef7c366c0283d82e591d1acd082e914b08063cdf1", "vout": [{"scriptPubKey": {"reqSigs": 1, "hex": "76a9147a193da5ff7e1bb136e75b5689f4d8e08fc473af88ac", "addresses": ["1C8bgAcqceMYXmLYc8Ac4McUbSBDKnRkMV"], "asm": "OP_DUP OP_HASH160 7a193da5ff7e1bb136e75b5689f4d8e08fc473af OP_EQUALVERIFY OP_CHECKSIG", "type": "pubkeyhash"}, "value": 0.033982, "n": 0}, {"scriptPubKey": {"reqSigs": 1, "hex": "76a914a53e469e06ff7dc774874b19fd86da157a022a1388ac", "addresses": ["1G4j6evZKBy2tps2QYcUis6tN2KaMU1C48"], "asm": "OP_DUP OP_HASH160 a53e469e06ff7dc774874b19fd86da157a022a13 OP_EQUALVERIFY OP_CHECKSIG", "type": "pubkeyhash"}, "value": 0.0019004, "n": 1}], "hex": "0100000001bcc60c4c2d979638e4629bde024bef7fb9dccccb64b3ac2e90f1484f863468eb010000006a47304402201b5f18312ea5af82dce1e0c0d70020afc53f56545326730d4ba422abd26a9bad022018f6a36473b7168abe321a7037b32d0fd4eadb3bcfd810f2e2341bc3319497f2012103deec72784942769988980da74b5678e0eb15acc38db30d6a730f51194682bf4fffffffff0238da3300000000001976a9147a193da5ff7e1bb136e75b5689f4d8e08fc473af88ac58e60200000000001976a914a53e469e06ff7dc774874b19fd86da157a022a1388ac00000000", "vin": [{"sequence": 4294967295, "scriptSig": {"hex": "47304402201b5f18312ea5af82dce1e0c0d70020afc53f56545326730d4ba422abd26a9bad022018f6a36473b7168abe321a7037b32d0fd4eadb3bcfd810f2e2341bc3319497f2012103deec72784942769988980da74b5678e0eb15acc38db30d6a730f51194682bf4f", "asm": "304402201b5f18312ea5af82dce1e0c0d70020afc53f56545326730d4ba422abd26a9bad022018f6a36473b7168abe321a7037b32d0fd4eadb3bcfd810f2e2341bc3319497f2[ALL] 03deec72784942769988980da74b5678e0eb15acc38db30d6a730f51194682bf4f"}, "vout": 1, "txid": "eb6834864f48f1902eacb364cbccdcb97fef4b02de9b62e43896972d4c0cc6bc"}], "txid": "4f57474377e627848f7c73fac83bca783d55e86c092de84a0c4a25fa6f4f4035", "blocktime": 1537871767, "version": 1, "confirmations": 11491, "time": 1537871767, "locktime": 0, "vsize": 225, "size": 225}