{"hash": "10cedee8c102cb388c472d159ea021ad45dc495689104b6a1987624264b3cf35", "blockhash": "0000000000000000001f0ddff1eddb255c1121bcd4da4f1bc9a0da00cae72433", "vout": [{"scriptPubKey": {"reqSigs": 1, "hex": "76a9146f71da1e0f23100b06dda303a6a1f8cc0747138188ac", "addresses": ["1BAGPsUep5FNZxXNyqprFe11rhf4q2TvRt"], "asm": "OP_DUP OP_HASH160 6f71da1e0f23100b06dda303a6a1f8cc07471381 OP_EQUALVERIFY OP_CHECKSIG", "type": "pubkeyhash"}, "value": 0.000553, "n": 0}, {"scriptPubKey": {"reqSigs": 1, "hex": "a91418262da04797b0c3f25816479ebae2a3c461ea8a87", "addresses": ["33thspMyDmSHz8oQ9N7dMv9AzgRiLYzSuU"], "asm": "OP_HASH160 18262da04797b0c3f25816479ebae2a3c461ea8a OP_EQUAL", "type": "scripthash"}, "value": 0.103001, "n": 1}], "hex": "010000000001016d01a19a727da16a928f9558adae6011e44ee8623d153dcd04d7b55132cd8cfd0100000023220020b8f012291c0f217c83d10c5ac34b51caf9f80416192d6a140c449ae64427063affffffff0204d80000000000001976a9146f71da1e0f23100b06dda303a6a1f8cc0747138188acc42a9d000000000017a91418262da04797b0c3f25816479ebae2a3c461ea8a87040048304502210087cee5f5e989b635237b1884a04abc0fa6e6a4eba99c27c59e88dca76f9994de02201fdb80878ae925476a691fb59dbaf7715737f027b0b6dbf31c59ee9d88b4c1c80148304502210081fd988904812fca6d5de88060580fd8edcac01651c85faae85aaf9e936ff154022061d17d761103ca47a1088fe292d9dc6f8904c4acb88914e5854ba3fee7fd453f01695221030b36ea8e15bf1de2e966e2b2b057108341086c41c9a4768c69baf08db5abda6721023492a93193e191369d0725dc586a6ae7f163e0891e340664c9a1d6be9c9b2da321020ff0e2825eea5baad146efd2ae774183e77fb58ebe79a2dd1af491b3dfac63aa53ae00000000", "vin": [{"txinwitness": ["", "304502210087cee5f5e989b635237b1884a04abc0fa6e6a4eba99c27c59e88dca76f9994de02201fdb80878ae925476a691fb59dbaf7715737f027b0b6dbf31c59ee9d88b4c1c801", "304502210081fd988904812fca6d5de88060580fd8edcac01651c85faae85aaf9e936ff154022061d17d761103ca47a1088fe292d9dc6f8904c4acb88914e5854ba3fee7fd453f01", "5221030b36ea8e15bf1de2e966e2b2b057108341086c41c9a4768c69baf08db5abda6721023492a93193e191369d0725dc586a6ae7f163e0891e340664c9a1d6be9c9b2da321020ff0e2825eea5baad146efd2ae774183e77fb58ebe79a2dd1af491b3dfac63aa53ae"], "sequence": 4294967295, "scriptSig": {"hex": "220020b8f012291c0f217c83d10c5ac34b51caf9f80416192d6a140c449ae64427063a", "asm": "0020b8f012291c0f217c83d10c5ac34b51caf9f80416192d6a140c449ae64427063a"}, "vout": 1, "txid": "fd8ccd3251b5d704cd3d153d62e84ee41160aead58958f926aa17d729aa1016d"}], "txid": "4f581baa7561efb98b2429531ab12b8a923c2af8d43ffc015020f755e38b2e04", "blocktime": 1537872018, "version": 1, "confirmations": 11489, "time": 1537872018, "locktime": 0, "vsize": 216, "size": 408}