{"hash": "4f6081c08ee4da13e6984cbb5a298ce036f33b2a30053682ec1b9fa4c1db66f1", "blockhash": "0000000000000000001cda96e906b7601b7a6fb1a3b62bca570a9e5d8f4b3de1", "vout": [{"scriptPubKey": {"reqSigs": 1, "hex": "a9142f5f0865100c1f60e137c5e7aae69a5479adf46487", "addresses": ["361VXZ5hKHKsD26Cojmt5eK9DrQWYwadMs"], "asm": "OP_HASH160 2f5f0865100c1f60e137c5e7aae69a5479adf464 OP_EQUAL", "type": "scripthash"}, "value": 0.00782723, "n": 0}, {"scriptPubKey": {"reqSigs": 1, "hex": "76a9147a8724bef448d627247192fa42af095921d5a99888ac", "addresses": ["1CAsLLn7y8HAX1NuWebWG8dtP34ArTpBfm"], "asm": "OP_DUP OP_HASH160 7a8724bef448d627247192fa42af095921d5a998 OP_EQUALVERIFY OP_CHECKSIG", "type": "pubkeyhash"}, "value": 0.15424786, "n": 1}], "hex": "0100000001a87ec13cc898916a2ac183bebed8a230afc33a5f714bfcee0ea1e6b9afe2e444010000006b483045022100b84a5c23d1cbfe70af2d6fe15eba8e86ba982c1a611cbe14d5c1b81c2a353477022043d9a0a15c0cfba7883701bb6a2b596a6ca2ed2594134dda9597fb7fadaba1610121030b7ff2eeeda00694a423b8a52c8a0fcc1ce2a593be3ec49e12fd8c8e3e935f11ffffffff0283f10b000000000017a9142f5f0865100c1f60e137c5e7aae69a5479adf46487125deb00000000001976a9147a8724bef448d627247192fa42af095921d5a99888ac00000000", "vin": [{"sequence": 4294967295, "scriptSig": {"hex": "483045022100b84a5c23d1cbfe70af2d6fe15eba8e86ba982c1a611cbe14d5c1b81c2a353477022043d9a0a15c0cfba7883701bb6a2b596a6ca2ed2594134dda9597fb7fadaba1610121030b7ff2eeeda00694a423b8a52c8a0fcc1ce2a593be3ec49e12fd8c8e3e935f11", "asm": "3045022100b84a5c23d1cbfe70af2d6fe15eba8e86ba982c1a611cbe14d5c1b81c2a353477022043d9a0a15c0cfba7883701bb6a2b596a6ca2ed2594134dda9597fb7fadaba161[ALL] 030b7ff2eeeda00694a423b8a52c8a0fcc1ce2a593be3ec49e12fd8c8e3e935f11"}, "vout": 1, "txid": "44e4e2afb9e6a10eeefc4b715f3ac3af30a2d8bebe83c12a6a9198c83cc17ea8"}], "txid": "4f6081c08ee4da13e6984cbb5a298ce036f33b2a30053682ec1b9fa4c1db66f1", "blocktime": 1537873282, "version": 1, "confirmations": 11482, "time": 1537873282, "locktime": 0, "vsize": 224, "size": 224}