{"hash": "4f6ad1ef0e13b842dc32ffc3c3e4e6ea417a5ba2b1f928683d47d20f3daf273d", "blockhash": "00000000000000000004ffacab907a6b429b9a5745fa0b75af4234bf69dd7176", "vout": [{"scriptPubKey": {"reqSigs": 1, "hex": "a9141649035efb66ed8b4c5d95384b290630a875380687", "addresses": ["33irFoox2Xh6j5z5zNLQBYC5yfJPM8PYYa"], "asm": "OP_HASH160 1649035efb66ed8b4c5d95384b290630a8753806 OP_EQUAL", "type": "scripthash"}, "value": 0.01405031, "n": 0}], "hex": "01000000018cad43f6d6cee5f251afb5141fea5abc80ee732c88853151e46892a74faa37fb0c0000006a47304402206c1aaf08295e4ed2483da20426804bab9080afd3bcabe536bad4dd1b811ec47102205681f5aed046eef217aa8dc3d8fd9090b9c912c7b6efdcd934b89fa0654b9f8b01210252ea5168921ba055107fcf90d1d39d9b3d3af8e6a439a6a7177c7e881d8003baffffffff01677015000000000017a9141649035efb66ed8b4c5d95384b290630a87538068700000000", "vin": [{"sequence": 4294967295, "scriptSig": {"hex": "47304402206c1aaf08295e4ed2483da20426804bab9080afd3bcabe536bad4dd1b811ec47102205681f5aed046eef217aa8dc3d8fd9090b9c912c7b6efdcd934b89fa0654b9f8b01210252ea5168921ba055107fcf90d1d39d9b3d3af8e6a439a6a7177c7e881d8003ba", "asm": "304402206c1aaf08295e4ed2483da20426804bab9080afd3bcabe536bad4dd1b811ec47102205681f5aed046eef217aa8dc3d8fd9090b9c912c7b6efdcd934b89fa0654b9f8b[ALL] 0252ea5168921ba055107fcf90d1d39d9b3d3af8e6a439a6a7177c7e881d8003ba"}, "vout": 12, "txid": "fb37aa4fa79268e4513185882c73ee80bc5aea1f14b5af51f2e5ced6f643ad8c"}], "txid": "4f6ad1ef0e13b842dc32ffc3c3e4e6ea417a5ba2b1f928683d47d20f3daf273d", "blocktime": 1537875543, "version": 1, "confirmations": 11464, "time": 1537875543, "locktime": 0, "vsize": 189, "size": 189}