{"hash": "4f724fd36589fa2065db2933fb028d2bb1bb4f3314b6b71485175589e00f88b1", "blockhash": "00000000000000000018f53835495a110e01622372bf6ae95dc86f2b0ab887b0", "vout": [{"scriptPubKey": {"reqSigs": 1, "hex": "76a914315ffa6e1f6701c287fb67a7defd761e24ce909288ac", "addresses": ["15W565veXMkcHJHVbAiU2shMAzf2n21xLx"], "asm": "OP_DUP OP_HASH160 315ffa6e1f6701c287fb67a7defd761e24ce9092 OP_EQUALVERIFY OP_CHECKSIG", "type": "pubkeyhash"}, "value": 0.000576, "n": 0}, {"scriptPubKey": {"reqSigs": 1, "hex": "76a914cd9e9108e05caa22ba5182d4a0a972f298590a9e88ac", "addresses": ["1KkDUiroVMcGNjkS11HMP6Gq7z8L7atAZp"], "asm": "OP_DUP OP_HASH160 cd9e9108e05caa22ba5182d4a0a972f298590a9e OP_EQUALVERIFY OP_CHECKSIG", "type": "pubkeyhash"}, "value": 0.027, "n": 1}], "hex": "0100000003e9d8680fc9ccdfae8ab868108f2a274ce72f105c85b554800a625859be518f79000000006b483045022100abc35bd62648a2043f319c5d145ea2dce83cc5066b922ecbf0602ceff7b19593022072356a175c18b2b5391927bec534372210cef184e922ee41c2365236e6acd68b012102ca59117bd5aa8d7d30e58bc953545effcc761b5e32829cd450e725489c983119ffffffff688ca3d1d47fd35e7e77d3249dc4de690a87f693e982e9d256a9ada5038cc48c000000006a47304402200395b2ab7cc4c910451fce10a05024b85ec1b4b7898ae20e776dddfdb022b3a10220373b4902a215adae96a3f19923f7e1ead4d21512b9c2253d8cf093ae6da955fe012103e690fc828da2e15be704afbf242e392e51b72c555741a9b456e602106040214affffffffa0cc6fd5cff9a007fa62fda39d26a03c394d33d829188b4e46e23229ef81a0a5000000006b4830450221009bef42adb63a486fde5412552e505ff281098ccb5a3ac548b17281177d2384c30220356854e8ea54036a843937e8ff3224c881f459fac866034b23ce940f00e6de81012102bb32259586928acb4a1f8584b0d77b564126c44bf5a46be953a228e7f8dc0885ffffffff0200e10000000000001976a914315ffa6e1f6701c287fb67a7defd761e24ce909288ace0322900000000001976a914cd9e9108e05caa22ba5182d4a0a972f298590a9e88ac00000000", "vin": [{"sequence": 4294967295, "scriptSig": {"hex": "483045022100abc35bd62648a2043f319c5d145ea2dce83cc5066b922ecbf0602ceff7b19593022072356a175c18b2b5391927bec534372210cef184e922ee41c2365236e6acd68b012102ca59117bd5aa8d7d30e58bc953545effcc761b5e32829cd450e725489c983119", "asm": "3045022100abc35bd62648a2043f319c5d145ea2dce83cc5066b922ecbf0602ceff7b19593022072356a175c18b2b5391927bec534372210cef184e922ee41c2365236e6acd68b[ALL] 02ca59117bd5aa8d7d30e58bc953545effcc761b5e32829cd450e725489c983119"}, "vout": 0, "txid": "798f51be5958620a8054b5855c102fe74c272a8f1068b88aaedfccc90f68d8e9"}, {"sequence": 4294967295, "scriptSig": {"hex": "47304402200395b2ab7cc4c910451fce10a05024b85ec1b4b7898ae20e776dddfdb022b3a10220373b4902a215adae96a3f19923f7e1ead4d21512b9c2253d8cf093ae6da955fe012103e690fc828da2e15be704afbf242e392e51b72c555741a9b456e602106040214a", "asm": "304402200395b2ab7cc4c910451fce10a05024b85ec1b4b7898ae20e776dddfdb022b3a10220373b4902a215adae96a3f19923f7e1ead4d21512b9c2253d8cf093ae6da955fe[ALL] 03e690fc828da2e15be704afbf242e392e51b72c555741a9b456e602106040214a"}, "vout": 0, "txid": "8cc48c03a5ada956d2e982e993f6870a69dec49d24d3777e5ed37fd4d1a38c68"}, {"sequence": 4294967295, "scriptSig": {"hex": "4830450221009bef42adb63a486fde5412552e505ff281098ccb5a3ac548b17281177d2384c30220356854e8ea54036a843937e8ff3224c881f459fac866034b23ce940f00e6de81012102bb32259586928acb4a1f8584b0d77b564126c44bf5a46be953a228e7f8dc0885", "asm": "30450221009bef42adb63a486fde5412552e505ff281098ccb5a3ac548b17281177d2384c30220356854e8ea54036a843937e8ff3224c881f459fac866034b23ce940f00e6de81[ALL] 02bb32259586928acb4a1f8584b0d77b564126c44bf5a46be953a228e7f8dc0885"}, "vout": 0, "txid": "a5a081ef2932e2464e8b1829d8334d393ca0269da3fd62fa07a0f9cfd56fcca0"}], "txid": "4f724fd36589fa2065db2933fb028d2bb1bb4f3314b6b71485175589e00f88b1", "blocktime": 1537870928, "version": 1, "confirmations": 11512, "time": 1537870928, "locktime": 0, "vsize": 521, "size": 521}