{"hash": "4f76240ae4573d61653346bf9413153b705e36fb35d04e30e3cbbd3693bfc945", "blockhash": "00000000000000000004ffacab907a6b429b9a5745fa0b75af4234bf69dd7176", "vout": [{"scriptPubKey": {"reqSigs": 1, "hex": "76a914d243e6abb9a60fbff430b421d2df4b7d59ec186088ac", "addresses": ["1LAnF8h3qMGx3TSwNUHVneBZUEpwE4gu3D"], "asm": "OP_DUP OP_HASH160 d243e6abb9a60fbff430b421d2df4b7d59ec1860 OP_EQUALVERIFY OP_CHECKSIG", "type": "pubkeyhash"}, "value": 0.00077314, "n": 0}, {"scriptPubKey": {"reqSigs": 1, "hex": "76a914be0b9802d52652153bc44e8fa7b5c08c9bf6d62c88ac", "addresses": ["1JKsGzvUb7j4kwgXtBTPNqMAyqiBVa4PR8"], "asm": "OP_DUP OP_HASH160 be0b9802d52652153bc44e8fa7b5c08c9bf6d62c OP_EQUALVERIFY OP_CHECKSIG", "type": "pubkeyhash"}, "value": 5.46e-06, "n": 1}, {"scriptPubKey": {"type": "nulldata", "hex": "6a146f6d6e69000000000000001f00000022cee4f700", "asm": "OP_RETURN 6f6d6e69000000000000001f00000022cee4f700"}, "value": 0.0, "n": 2}], "hex": "01000000016f3251480456a96bab2805e3631c0180de3295ff421d45cc280faf9bbb73543e000000006a4730440220458cd44f882190c0139424c3be738e238df36d5ff8028464fd181dfd9a56d06f02205121f03d421a346812d4e3960b2ff94efff346583f063a15510a63afacbdf40b01210271977291b74f1f5f5c42157e8aae804664eaaeccfd097918450d37f28fb94d77ffffffff03022e0100000000001976a914d243e6abb9a60fbff430b421d2df4b7d59ec186088ac22020000000000001976a914be0b9802d52652153bc44e8fa7b5c08c9bf6d62c88ac0000000000000000166a146f6d6e69000000000000001f00000022cee4f70000000000", "vin": [{"sequence": 4294967295, "scriptSig": {"hex": "4730440220458cd44f882190c0139424c3be738e238df36d5ff8028464fd181dfd9a56d06f02205121f03d421a346812d4e3960b2ff94efff346583f063a15510a63afacbdf40b01210271977291b74f1f5f5c42157e8aae804664eaaeccfd097918450d37f28fb94d77", "asm": "30440220458cd44f882190c0139424c3be738e238df36d5ff8028464fd181dfd9a56d06f02205121f03d421a346812d4e3960b2ff94efff346583f063a15510a63afacbdf40b[ALL] 0271977291b74f1f5f5c42157e8aae804664eaaeccfd097918450d37f28fb94d77"}, "vout": 0, "txid": "3e5473bb9baf0f28cc451d42ff9532de80011c63e30528ab6ba956044851326f"}], "txid": "4f76240ae4573d61653346bf9413153b705e36fb35d04e30e3cbbd3693bfc945", "blocktime": 1537875543, "version": 1, "confirmations": 11464, "time": 1537875543, "locktime": 0, "vsize": 256, "size": 256}