{"hash": "e82496ef96b8017012d3ca6420c93125ba406505dcfaa49dd8fdec33caa0f811", "blockhash": "0000000000000000000e13cef7c366c0283d82e591d1acd082e914b08063cdf1", "vout": [{"scriptPubKey": {"reqSigs": 1, "hex": "76a9140cfc6d227c707dc2f03251e9071e67cd90b849c988ac", "addresses": ["12BfWBykoL1NQMwuJr1goXikSomaNvG2Uc"], "asm": "OP_DUP OP_HASH160 0cfc6d227c707dc2f03251e9071e67cd90b849c9 OP_EQUALVERIFY OP_CHECKSIG", "type": "pubkeyhash"}, "value": 0.001001, "n": 0}, {"scriptPubKey": {"reqSigs": 1, "hex": "0014c93b6a8d8dd49748d94b939a9f5baeedd5e810d0", "addresses": ["bc1qeyak4rvd6jt53k2tjwdf7kawah27syxseg5mts"], "asm": "0 c93b6a8d8dd49748d94b939a9f5baeedd5e810d0", "type": "witness_v0_keyhash"}, "value": 6.027e-05, "n": 1}], "hex": "0100000000010122960f69c5acd819562d0920ff774745645b8c473cb1316cd42c8fc1a3642b4e0000000017160014ae53246b3689da9c9437e636b9b06ece56d11593ffffffff0204870100000000001976a9140cfc6d227c707dc2f03251e9071e67cd90b849c988ac8b17000000000000160014c93b6a8d8dd49748d94b939a9f5baeedd5e810d0024730440220540f50da20d16fd6f17e3c4a113ec5470d37a6fd8aa6064034672ddc3bc044fc02201d5ba24e89af899495dbbe7b13e6fae6e929af9f52825fdc8c28028a8a5b26270121020eddb87d3b67913fa5551254b19875ffc26e3bdaa063b0240a8caaf295968bb800000000", "vin": [{"txinwitness": ["30440220540f50da20d16fd6f17e3c4a113ec5470d37a6fd8aa6064034672ddc3bc044fc02201d5ba24e89af899495dbbe7b13e6fae6e929af9f52825fdc8c28028a8a5b262701", "020eddb87d3b67913fa5551254b19875ffc26e3bdaa063b0240a8caaf295968bb8"], "sequence": 4294967295, "scriptSig": {"hex": "160014ae53246b3689da9c9437e636b9b06ece56d11593", "asm": "0014ae53246b3689da9c9437e636b9b06ece56d11593"}, "vout": 0, "txid": "4e2b64a3c18f2cd46c31b13c478c5b64454777ff20092d5619d8acc5690f9622"}], "txid": "4f7aabc46cd65fd089086f1b057afe686b9940dd029a6565fa6a9c9d94eeafba", "blocktime": 1537871767, "version": 1, "confirmations": 11495, "time": 1537871767, "locktime": 0, "vsize": 167, "size": 248}