{"hash": "c7e10416d19d6aaefdb18371ddbc0b0a05763ab6e6423d59b57b14f731760a9a", "blockhash": "0000000000000000001cda96e906b7601b7a6fb1a3b62bca570a9e5d8f4b3de1", "vout": [{"scriptPubKey": {"reqSigs": 1, "hex": "a914ff991852d2678ee46017510e32d39ab29c79d1d787", "addresses": ["3QzVdgtY3mm5zan5qxdHJReE32AHWjvkHa"], "asm": "OP_HASH160 ff991852d2678ee46017510e32d39ab29c79d1d7 OP_EQUAL", "type": "scripthash"}, "value": 0.03214023, "n": 0}, {"scriptPubKey": {"reqSigs": 1, "hex": "0014c9f915c11f0a88cdad91e70f4d3468ff2c7f0bbd", "addresses": ["bc1qe8u3tsglp2yvmtv3uu856drgluk87zaamdlqss"], "asm": "0 c9f915c11f0a88cdad91e70f4d3468ff2c7f0bbd", "type": "witness_v0_keyhash"}, "value": 0.04539299, "n": 1}], "hex": "01000000000101e0046d99de9397793d7c66f389748a32b8792458256ab488c9398077740eda030000000000ffffffff02c70a31000000000017a914ff991852d2678ee46017510e32d39ab29c79d1d787a343450000000000160014c9f915c11f0a88cdad91e70f4d3468ff2c7f0bbd0247304402206f3050aefc2c5f9d6e11556ad33e086909d42401bc2807c83512c83fe2de91d702207b2dc47d9baac340a50f7c10c0793e62ce1ffa0610a5c0a19dfa016976678bbd012103cb4a03979cc7453036860a1757606c86ed0d8ea444852e021b5ab7735d1733cb00000000", "vin": [{"txinwitness": ["304402206f3050aefc2c5f9d6e11556ad33e086909d42401bc2807c83512c83fe2de91d702207b2dc47d9baac340a50f7c10c0793e62ce1ffa0610a5c0a19dfa016976678bbd01", "03cb4a03979cc7453036860a1757606c86ed0d8ea444852e021b5ab7735d1733cb"], "sequence": 4294967295, "scriptSig": {"hex": "", "asm": ""}, "vout": 0, "txid": "03da0e74778039c988b46a25582479b8328a7489f3667c3d799793de996d04e0"}], "txid": "4f7dbb23ec03ce94b2516445538d78f447bdae9ae38f109a65159419c84f584f", "blocktime": 1537873282, "version": 1, "confirmations": 11484, "time": 1537873282, "locktime": 0, "vsize": 142, "size": 223}