{"hash": "4f7e979658909ef93ab4cfebf14c1e9d41123f8562129e1b62d9e6e1e2dace87", "blockhash": "0000000000000000001f0ddff1eddb255c1121bcd4da4f1bc9a0da00cae72433", "vout": [{"scriptPubKey": {"reqSigs": 1, "hex": "76a914e2bae93649ef67b22d5e44a8873950e34ec338be88ac", "addresses": ["1MfqdA5fvj4SwKbDEkGaxbKaPGKMN5ktkt"], "asm": "OP_DUP OP_HASH160 e2bae93649ef67b22d5e44a8873950e34ec338be OP_EQUALVERIFY OP_CHECKSIG", "type": "pubkeyhash"}, "value": 0.00189259, "n": 0}, {"scriptPubKey": {"reqSigs": 1, "hex": "76a9147d1ccbcfe57718497c017c3cba61cd074afee6df88ac", "addresses": ["1CQXxmeTTgMEJvEwp397xCss5DQQfk9xDV"], "asm": "OP_DUP OP_HASH160 7d1ccbcfe57718497c017c3cba61cd074afee6df OP_EQUALVERIFY OP_CHECKSIG", "type": "pubkeyhash"}, "value": 0.00703164, "n": 1}], "hex": "0100000002fe3da90c04b72756b227bbc24e9fb75cd277dd2b0926a9231c3e11f254cf0c2e000000006a4730440220378e103336bfc66e6ba8a9147207e202d74a38232d129502a28d3490cfc444ef02204362df87cf0ff72df91a4e55a9c3f6e1e31dffc8ebe8bb71c7a99adf795c341a01210367d1cf4dd4afe2436b93c52f4c8d58b9b8cf3f25b716744b37fa8968fcb4e63cffffffff70f22ba2bd2f094914c79b5193540f7f424973258f3efd6d6bba6db564cebb72000000006b4830450221009dbe6f492892354e9afc649eb353ed8e63dc69265070563b5dff8769973a640302201207392dc9d73c0f4c03ae9eed9bca2c41e5966de5e9c4e49c5931ef06bd89c901210369c1db5c2b57f373de94b92416e40eaa4f7b9697894808dcae54ae910b8f6c98ffffffff024be30200000000001976a914e2bae93649ef67b22d5e44a8873950e34ec338be88acbcba0a00000000001976a9147d1ccbcfe57718497c017c3cba61cd074afee6df88ac00000000", "vin": [{"sequence": 4294967295, "scriptSig": {"hex": "4730440220378e103336bfc66e6ba8a9147207e202d74a38232d129502a28d3490cfc444ef02204362df87cf0ff72df91a4e55a9c3f6e1e31dffc8ebe8bb71c7a99adf795c341a01210367d1cf4dd4afe2436b93c52f4c8d58b9b8cf3f25b716744b37fa8968fcb4e63c", "asm": "30440220378e103336bfc66e6ba8a9147207e202d74a38232d129502a28d3490cfc444ef02204362df87cf0ff72df91a4e55a9c3f6e1e31dffc8ebe8bb71c7a99adf795c341a[ALL] 0367d1cf4dd4afe2436b93c52f4c8d58b9b8cf3f25b716744b37fa8968fcb4e63c"}, "vout": 0, "txid": "2e0ccf54f2113e1c23a926092bdd77d25cb79f4ec2bb27b25627b7040ca93dfe"}, {"sequence": 4294967295, "scriptSig": {"hex": "4830450221009dbe6f492892354e9afc649eb353ed8e63dc69265070563b5dff8769973a640302201207392dc9d73c0f4c03ae9eed9bca2c41e5966de5e9c4e49c5931ef06bd89c901210369c1db5c2b57f373de94b92416e40eaa4f7b9697894808dcae54ae910b8f6c98", "asm": "30450221009dbe6f492892354e9afc649eb353ed8e63dc69265070563b5dff8769973a640302201207392dc9d73c0f4c03ae9eed9bca2c41e5966de5e9c4e49c5931ef06bd89c9[ALL] 0369c1db5c2b57f373de94b92416e40eaa4f7b9697894808dcae54ae910b8f6c98"}, "vout": 0, "txid": "72bbce64b56dba6b6dfd3e8f257349427f0f5493519bc71449092fbda22bf270"}], "txid": "4f7e979658909ef93ab4cfebf14c1e9d41123f8562129e1b62d9e6e1e2dace87", "blocktime": 1537872018, "version": 1, "confirmations": 11489, "time": 1537872018, "locktime": 0, "vsize": 373, "size": 373}