{"hash": "4f81e7d026bfce447e2a71e9b189fe6826efd165e57bd79c94695a4b2868d8f2", "blockhash": "0000000000000000001f0ddff1eddb255c1121bcd4da4f1bc9a0da00cae72433", "vout": [{"scriptPubKey": {"reqSigs": 1, "hex": "76a9144e6ead2e1258729ace313744cb98c849a20c84ac88ac", "addresses": ["189iHuBdbKEtnpJdts7x4T5xBUugm6kcdC"], "asm": "OP_DUP OP_HASH160 4e6ead2e1258729ace313744cb98c849a20c84ac OP_EQUALVERIFY OP_CHECKSIG", "type": "pubkeyhash"}, "value": 0.010219, "n": 0}, {"scriptPubKey": {"reqSigs": 1, "hex": "76a9144becde1b938e1b15a5dd3fb385abc475b356848888ac", "addresses": ["17vTSEm3W49mjHL2oab85LeLnYxysWMhtw"], "asm": "OP_DUP OP_HASH160 4becde1b938e1b15a5dd3fb385abc475b3568488 OP_EQUALVERIFY OP_CHECKSIG", "type": "pubkeyhash"}, "value": 0.00080693, "n": 1}], "hex": "010000000137a935898476810d720c32e511c4a44738d6034b18171f21d6538496d95bf765010000006a47304402207112c53063f00812920fc3a3a71b44dae91eef2cc27d7075e758bb8e2936385c022018dd4c1ff2f01d8f35327d0fb71af5e070077c174b7bf2705cb9e9dc7bdd8f860121025bbcebf88325230cb0661117f3cfc6440c143b4defbec8eb4968d4fdf8825a82ffffffff02cc970f00000000001976a9144e6ead2e1258729ace313744cb98c849a20c84ac88ac353b0100000000001976a9144becde1b938e1b15a5dd3fb385abc475b356848888ac00000000", "vin": [{"sequence": 4294967295, "scriptSig": {"hex": "47304402207112c53063f00812920fc3a3a71b44dae91eef2cc27d7075e758bb8e2936385c022018dd4c1ff2f01d8f35327d0fb71af5e070077c174b7bf2705cb9e9dc7bdd8f860121025bbcebf88325230cb0661117f3cfc6440c143b4defbec8eb4968d4fdf8825a82", "asm": "304402207112c53063f00812920fc3a3a71b44dae91eef2cc27d7075e758bb8e2936385c022018dd4c1ff2f01d8f35327d0fb71af5e070077c174b7bf2705cb9e9dc7bdd8f86[ALL] 025bbcebf88325230cb0661117f3cfc6440c143b4defbec8eb4968d4fdf8825a82"}, "vout": 1, "txid": "65f75bd9968453d6211f17184b03d63847a4c411e5320c720d8176848935a937"}], "txid": "4f81e7d026bfce447e2a71e9b189fe6826efd165e57bd79c94695a4b2868d8f2", "blocktime": 1537872018, "version": 1, "confirmations": 11489, "time": 1537872018, "locktime": 0, "vsize": 225, "size": 225}