{"hash": "4f82419bcc32965c5306cd865f42d5e8a1e4b6f8e92678d5281052780fcbb57d", "blockhash": "0000000000000000001f76057863aec43deb6fa401d9628bb513d65a8098bfab", "vout": [{"scriptPubKey": {"reqSigs": 1, "hex": "a914d280ac1f372b0c5a63b5fb18510b6c76f8102a0187", "addresses": ["3Lt3y94h8h3MGxcMGeddMnFgfG7GZUX72m"], "asm": "OP_HASH160 d280ac1f372b0c5a63b5fb18510b6c76f8102a01 OP_EQUAL", "type": "scripthash"}, "value": 0.01545108, "n": 0}, {"scriptPubKey": {"reqSigs": 1, "hex": "76a91413e2ef48a2044ffe5b062902e5f7d8be2285c3be88ac", "addresses": ["12p9hLyETdZAnih41n4iL9ejxuaugCuPU1"], "asm": "OP_DUP OP_HASH160 13e2ef48a2044ffe5b062902e5f7d8be2285c3be OP_EQUALVERIFY OP_CHECKSIG", "type": "pubkeyhash"}, "value": 0.01578378, "n": 1}], "hex": "010000000130c17877a5b336602ecd18a975fb07a7e0cbb5bac846c3319f2a9c31d12f8940010000006a4730440220659a0e9cc55b6cd5ebf0085433bdc30cd2c2b5e2ba37873b2725d0546ecd775102201feed421759689eb1df453e0ba58e6be849221ff1968aeeed1d5dcc7501fee090121022d0885b503941d2828c10f18a530c0555a23870710aaf3f5e2680cfca6129603ffffffff02949317000000000017a914d280ac1f372b0c5a63b5fb18510b6c76f8102a01878a151800000000001976a91413e2ef48a2044ffe5b062902e5f7d8be2285c3be88ac00000000", "vin": [{"sequence": 4294967295, "scriptSig": {"hex": "4730440220659a0e9cc55b6cd5ebf0085433bdc30cd2c2b5e2ba37873b2725d0546ecd775102201feed421759689eb1df453e0ba58e6be849221ff1968aeeed1d5dcc7501fee090121022d0885b503941d2828c10f18a530c0555a23870710aaf3f5e2680cfca6129603", "asm": "30440220659a0e9cc55b6cd5ebf0085433bdc30cd2c2b5e2ba37873b2725d0546ecd775102201feed421759689eb1df453e0ba58e6be849221ff1968aeeed1d5dcc7501fee09[ALL] 022d0885b503941d2828c10f18a530c0555a23870710aaf3f5e2680cfca6129603"}, "vout": 1, "txid": "40892fd1319c2a9f31c346c8bab5cbe0a707fb75a918cd2e6036b3a57778c130"}], "txid": "4f82419bcc32965c5306cd865f42d5e8a1e4b6f8e92678d5281052780fcbb57d", "blocktime": 1537873891, "version": 1, "confirmations": 11478, "time": 1537873891, "locktime": 0, "vsize": 223, "size": 223}