{"hash": "0403c971239187e5dd3901b057ce48abc04ad12530ee225ae8f1e19ffe46840d", "blockhash": "0000000000000000001f76057863aec43deb6fa401d9628bb513d65a8098bfab", "vout": [{"scriptPubKey": {"reqSigs": 1, "hex": "a914607e0c8544b4ca6b058d94ab8efe8e7720739e3f87", "addresses": ["3AVDnzSa3Mo3kxJq1gzNT5CfDxA7DwxQXq"], "asm": "OP_HASH160 607e0c8544b4ca6b058d94ab8efe8e7720739e3f OP_EQUAL", "type": "scripthash"}, "value": 0.0016946, "n": 0}, {"scriptPubKey": {"reqSigs": 1, "hex": "00148430078d713c256f929e69152a59b762e83314de", "addresses": ["bc1qsscq0rt38sjkly57dy2j5kdhvt5rx9x7x3q9nk"], "asm": "0 8430078d713c256f929e69152a59b762e83314de", "type": "witness_v0_keyhash"}, "value": 1.794e-05, "n": 1}], "hex": "01000000000101c0219b08461fe6e52f7134e88e5113497454c7590880868ae9fd841c225a9cf43d000000171600143799ca1253c2a58b915964419498947d262687daffffffff02f49502000000000017a914607e0c8544b4ca6b058d94ab8efe8e7720739e3f8702070000000000001600148430078d713c256f929e69152a59b762e83314de02483045022100f395d5823a53d08d9fc51bb1bdf2681a0dc384bfe8065f06db7b15a6801abb8d02200ebaadbae9b9f40e8fc596e99ff08d6873838610fcb801f820a8cde3d3dd91520121037b738f91980745cf6c86316df1b605514ca1535d9e2c9e9d667e71b1a77562dc00000000", "vin": [{"txinwitness": ["3045022100f395d5823a53d08d9fc51bb1bdf2681a0dc384bfe8065f06db7b15a6801abb8d02200ebaadbae9b9f40e8fc596e99ff08d6873838610fcb801f820a8cde3d3dd915201", "037b738f91980745cf6c86316df1b605514ca1535d9e2c9e9d667e71b1a77562dc"], "sequence": 4294967295, "scriptSig": {"hex": "1600143799ca1253c2a58b915964419498947d262687da", "asm": "00143799ca1253c2a58b915964419498947d262687da"}, "vout": 61, "txid": "f49c5a221c84fde98a86800859c754744913518ee834712fe5e61f46089b21c0"}], "txid": "4f89f5e9046b5f8e81c7267472b2f2e0278695e305b04c24f9a8c4e8d9ec4035", "blocktime": 1537873891, "version": 1, "confirmations": 11478, "time": 1537873891, "locktime": 0, "vsize": 165, "size": 247}