{"hash": "4f947dbabd9fdaf867d1f52bab6e2e172f0097b5d7b381f5a32c9a351037db00", "blockhash": "00000000000000000004ffacab907a6b429b9a5745fa0b75af4234bf69dd7176", "vout": [{"scriptPubKey": {"reqSigs": 1, "hex": "76a91471fd974a1e4c1cea38e6d8cb882c7f0f3e577f4e88ac", "addresses": ["1BPj9VE7Rxioya5xp1ifR9gPpA2BWzebo2"], "asm": "OP_DUP OP_HASH160 71fd974a1e4c1cea38e6d8cb882c7f0f3e577f4e OP_EQUALVERIFY OP_CHECKSIG", "type": "pubkeyhash"}, "value": 0.000567, "n": 0}, {"scriptPubKey": {"reqSigs": 1, "hex": "76a91404804e0773fa686554b392f4e01180294d07601f88ac", "addresses": ["1QoQYPb5JiKyeK2jj47Rv9YTRGn6FVFCX"], "asm": "OP_DUP OP_HASH160 04804e0773fa686554b392f4e01180294d07601f OP_EQUALVERIFY OP_CHECKSIG", "type": "pubkeyhash"}, "value": 0.53129062, "n": 1}], "hex": "0100000001310c49224f06d418537bd50ca303529a6f8f8db6ed000e18457696de2dc656a1010000006a4730440220419c9584c6e8819bc8312404ff672cd122113d430e3e3c0d412044e90a1eb81e02200ca4433beeab2824d602e315cb19d86a6336041c6bb622556697764e83dbc892012102355ec030075ff36cd91b814894ce05a2ca712f97366a0713ffb58ca01059bb88ffffffff027cdd0000000000001976a91471fd974a1e4c1cea38e6d8cb882c7f0f3e577f4e88ac66af2a03000000001976a91404804e0773fa686554b392f4e01180294d07601f88ac00000000", "vin": [{"sequence": 4294967295, "scriptSig": {"hex": "4730440220419c9584c6e8819bc8312404ff672cd122113d430e3e3c0d412044e90a1eb81e02200ca4433beeab2824d602e315cb19d86a6336041c6bb622556697764e83dbc892012102355ec030075ff36cd91b814894ce05a2ca712f97366a0713ffb58ca01059bb88", "asm": "30440220419c9584c6e8819bc8312404ff672cd122113d430e3e3c0d412044e90a1eb81e02200ca4433beeab2824d602e315cb19d86a6336041c6bb622556697764e83dbc892[ALL] 02355ec030075ff36cd91b814894ce05a2ca712f97366a0713ffb58ca01059bb88"}, "vout": 1, "txid": "a156c62dde967645180e00edb68d8f6f9a5203a30cd57b5318d4064f22490c31"}], "txid": "4f947dbabd9fdaf867d1f52bab6e2e172f0097b5d7b381f5a32c9a351037db00", "blocktime": 1537875543, "version": 1, "confirmations": 11464, "time": 1537875543, "locktime": 0, "vsize": 225, "size": 225}