{"hash": "1d09a24b7d5be23139ba3c14b26cfd5fce90e280067c606b5d087b761524c745", "blockhash": "000000000000000000022b45ed06c6f4ccd3cf7fb5ba4856ebd2e58215665228", "vout": [{"scriptPubKey": {"reqSigs": 1, "hex": "a9143a72050f8686f0439d7be534a564bb8df24f6ac287", "addresses": ["3723huHaJAPNuXtoJQH7UJfNjLjqk4S7Uz"], "asm": "OP_HASH160 3a72050f8686f0439d7be534a564bb8df24f6ac2 OP_EQUAL", "type": "scripthash"}, "value": 3.34101713, "n": 0}, {"scriptPubKey": {"reqSigs": 1, "hex": "a914632d70ef46a44fb78aef3030ec3300d13069a04687", "addresses": ["3AjRFqm2vJQpGKmzPtCpwPeS8jFE9Pi4dX"], "asm": "OP_HASH160 632d70ef46a44fb78aef3030ec3300d13069a046 OP_EQUAL", "type": "scripthash"}, "value": 0.01116125, "n": 1}], "hex": "0200000000010189205b780f32a4afc2f4efbef4c863fbaca397cae148006ca30756cc9e90d33300000000171600145d1255d4f05dd7e366de74dd8263cd5fd6df9084feffffff02d1fce9130000000017a9143a72050f8686f0439d7be534a564bb8df24f6ac287dd0711000000000017a914632d70ef46a44fb78aef3030ec3300d13069a0468702483045022100aeec89698d2f22708c59b5a83d0166f4b8a2657a95fe08f0225d53266e04485b02201b064264bcfc31bfc2f387a5bb4d7ce77ff7be39ee467be2eb88804f81e667c6012102a77f9217b049cd59ddffb822485adb32029a13dc7185867dc6e5c1e70acc1b360b490800", "vin": [{"txinwitness": ["3045022100aeec89698d2f22708c59b5a83d0166f4b8a2657a95fe08f0225d53266e04485b02201b064264bcfc31bfc2f387a5bb4d7ce77ff7be39ee467be2eb88804f81e667c601", "02a77f9217b049cd59ddffb822485adb32029a13dc7185867dc6e5c1e70acc1b36"], "sequence": 4294967294, "scriptSig": {"hex": "1600145d1255d4f05dd7e366de74dd8263cd5fd6df9084", "asm": "00145d1255d4f05dd7e366de74dd8263cd5fd6df9084"}, "vout": 0, "txid": "33d3909ecc5607a36c0048e1ca97a3acfb63c8f4beeff4c2afa4320f785b2089"}], "txid": "4f97e5c082e701189a6968163bd1bec605e05927a8913821e7b1398f38df30e6", "blocktime": 1537869901, "version": 2, "confirmations": 11522, "time": 1537869901, "locktime": 542987, "vsize": 166, "size": 248}