{"hash": "4f9720c0dd5e2dfa1583ce847f728a1e447b02177cdc7a73d96f3f32a66ec7fa", "blockhash": "0000000000000000001f0ddff1eddb255c1121bcd4da4f1bc9a0da00cae72433", "vout": [{"scriptPubKey": {"reqSigs": 1, "hex": "76a91472733ab9314ae2711ebb81a40405d5d54d50aab888ac", "addresses": ["1BSA59XGJA6tg5HcVmgtSBuu3AUZvbbqEB"], "asm": "OP_DUP OP_HASH160 72733ab9314ae2711ebb81a40405d5d54d50aab8 OP_EQUALVERIFY OP_CHECKSIG", "type": "pubkeyhash"}, "value": 0.00023533, "n": 0}, {"scriptPubKey": {"reqSigs": 1, "hex": "76a914a2068fd6a326e8bc819c33215368c11bd73c141388ac", "addresses": ["1FmiL1BfJsH99MvV6Vd26QhsZ1erNuo9xr"], "asm": "OP_DUP OP_HASH160 a2068fd6a326e8bc819c33215368c11bd73c1413 OP_EQUALVERIFY OP_CHECKSIG", "type": "pubkeyhash"}, "value": 0.00156295, "n": 1}], "hex": "010000000158b3663c728d796541dfbdb9a64d57d8d6446395f3c9eaeb1ff5c21f3f9d22fb000000006a47304402200703ec48e8763ac8fbf5b98933892fc8c7c6eaa745e137cbafd1cb5b8574156e02201ae6450987dc0f7e0819a348e9d7b2e3a5e8ac77673f32ddaeea0a80beed5a4b012103eae62c5d2931474e7759dd6cca917c32d01142dd50fcafc81723487e1e67fbaafdffffff02ed5b0000000000001976a91472733ab9314ae2711ebb81a40405d5d54d50aab888ac87620200000000001976a914a2068fd6a326e8bc819c33215368c11bd73c141388ac10490800", "vin": [{"sequence": 4294967293, "scriptSig": {"hex": "47304402200703ec48e8763ac8fbf5b98933892fc8c7c6eaa745e137cbafd1cb5b8574156e02201ae6450987dc0f7e0819a348e9d7b2e3a5e8ac77673f32ddaeea0a80beed5a4b012103eae62c5d2931474e7759dd6cca917c32d01142dd50fcafc81723487e1e67fbaa", "asm": "304402200703ec48e8763ac8fbf5b98933892fc8c7c6eaa745e137cbafd1cb5b8574156e02201ae6450987dc0f7e0819a348e9d7b2e3a5e8ac77673f32ddaeea0a80beed5a4b[ALL] 03eae62c5d2931474e7759dd6cca917c32d01142dd50fcafc81723487e1e67fbaa"}, "vout": 0, "txid": "fb229d3f1fc2f51febeac9f3956344d6d8574da6b9bddf4165798d723c66b358"}], "txid": "4f9720c0dd5e2dfa1583ce847f728a1e447b02177cdc7a73d96f3f32a66ec7fa", "blocktime": 1537872018, "version": 1, "confirmations": 11489, "time": 1537872018, "locktime": 542992, "vsize": 225, "size": 225}