{"hash": "4f9a169db525915f2631ea5ee942d3312f6b9768c8b6bae86113215e2f24a181", "blockhash": "0000000000000000001cda96e906b7601b7a6fb1a3b62bca570a9e5d8f4b3de1", "vout": [{"scriptPubKey": {"reqSigs": 1, "hex": "001495a144c1dc51983a9a91574a9e50e2ac54f20acb", "addresses": ["bc1qjks5fswu2xvr4x532a9fu58z4320yzktx40at0"], "asm": "0 95a144c1dc51983a9a91574a9e50e2ac54f20acb", "type": "witness_v0_keyhash"}, "value": 0.04551948, "n": 0}, {"scriptPubKey": {"reqSigs": 1, "hex": "76a914b1bedfb18b8aaf29f3532f4946f630fd1108ddea88ac", "addresses": ["1HCqG6hiFGZhRzAqJpru5To3jSjgVLDMhQ"], "asm": "OP_DUP OP_HASH160 b1bedfb18b8aaf29f3532f4946f630fd1108ddea OP_EQUALVERIFY OP_CHECKSIG", "type": "pubkeyhash"}, "value": 0.00161253, "n": 1}], "hex": "01000000012d360ae93b16fb68009d5ea72e18f07417517ff802064fc95e70e403c3bda6da000000006a47304402206f5067ba7302964011c049e9f5e7eb721c25d797a7d3097b2e55d5193fc9502c02207f4f00f0df9a6244612b3f69f516f9e351a7b889b1e0578c2f1018b548c536a1012102ead0bb1f483b73c09f398273975168d5183b48a901ca99c8cdfaa3d30d8ee3c5ffffffff020c7545000000000016001495a144c1dc51983a9a91574a9e50e2ac54f20acbe5750200000000001976a914b1bedfb18b8aaf29f3532f4946f630fd1108ddea88ac00000000", "vin": [{"sequence": 4294967295, "scriptSig": {"hex": "47304402206f5067ba7302964011c049e9f5e7eb721c25d797a7d3097b2e55d5193fc9502c02207f4f00f0df9a6244612b3f69f516f9e351a7b889b1e0578c2f1018b548c536a1012102ead0bb1f483b73c09f398273975168d5183b48a901ca99c8cdfaa3d30d8ee3c5", "asm": "304402206f5067ba7302964011c049e9f5e7eb721c25d797a7d3097b2e55d5193fc9502c02207f4f00f0df9a6244612b3f69f516f9e351a7b889b1e0578c2f1018b548c536a1[ALL] 02ead0bb1f483b73c09f398273975168d5183b48a901ca99c8cdfaa3d30d8ee3c5"}, "vout": 0, "txid": "daa6bdc303e4705ec94f0602f87f511774f0182ea75e9d0068fb163be90a362d"}], "txid": "4f9a169db525915f2631ea5ee942d3312f6b9768c8b6bae86113215e2f24a181", "blocktime": 1537873282, "version": 1, "confirmations": 11485, "time": 1537873282, "locktime": 0, "vsize": 222, "size": 222}