{"hash": "2f64213f668f2152606d353c18deb910f69f4c0be62df4575cef5227daa8bbb2", "blockhash": "0000000000000000001f0ddff1eddb255c1121bcd4da4f1bc9a0da00cae72433", "vout": [{"scriptPubKey": {"reqSigs": 1, "hex": "00148675bc447f63d5e9c421cdf71624e0953f694f16", "addresses": ["bc1qse6mc3rlv027n3ppehm3vf8qj5lkjnck7j2pyk"], "asm": "0 8675bc447f63d5e9c421cdf71624e0953f694f16", "type": "witness_v0_keyhash"}, "value": 0.00025998, "n": 0}, {"scriptPubKey": {"reqSigs": 1, "hex": "76a914254b18d0561cd99a4a32952555df87d60ae5be6e88ac", "addresses": ["14QBxvakDhT8HcvVHsTu8toubXrjBe5wi6"], "asm": "OP_DUP OP_HASH160 254b18d0561cd99a4a32952555df87d60ae5be6e OP_EQUALVERIFY OP_CHECKSIG", "type": "pubkeyhash"}, "value": 0.05263804, "n": 1}], "hex": "01000000000101054b0ed5fffa1492ed93255c6bf3785f71e9da79c6acb3acb13d65ff261b3d092a000000171600142ec95063ccb983ebd906acbdc88b6e4d13aee90effffffff028e650000000000001600148675bc447f63d5e9c421cdf71624e0953f694f16bc515000000000001976a914254b18d0561cd99a4a32952555df87d60ae5be6e88ac02483045022100842ec6d9934da4e50be0fcdd5e5905a56585dc58d3f1157acecc3f9ea6b1890c02203c798532f07b5b6635f694e5a3d9f9df3944e72c646d441f7346119b31d0536e0121029b1ce8351f3baa73f29f60a6b91f91145c6c360199b11d2c9f161e2829e7c47000000000", "vin": [{"txinwitness": ["3045022100842ec6d9934da4e50be0fcdd5e5905a56585dc58d3f1157acecc3f9ea6b1890c02203c798532f07b5b6635f694e5a3d9f9df3944e72c646d441f7346119b31d0536e01", "029b1ce8351f3baa73f29f60a6b91f91145c6c360199b11d2c9f161e2829e7c470"], "sequence": 4294967295, "scriptSig": {"hex": "1600142ec95063ccb983ebd906acbdc88b6e4d13aee90e", "asm": "00142ec95063ccb983ebd906acbdc88b6e4d13aee90e"}, "vout": 42, "txid": "093d1b26ff653db1acb3acc679dae9715f78f36b5c2593ed9214faffd50e4b05"}], "txid": "4f9e853a8ba49987a7dbb8709fd9c537c1424008ec192458487fdb15c7c5acc9", "blocktime": 1537872018, "version": 1, "confirmations": 11489, "time": 1537872018, "locktime": 0, "vsize": 167, "size": 249}