{"hash": "4fa1bbf4a0ae1c1ce52087ad4936a98ab1640251edfa67b731d06e0a95ef6d5b", "blockhash": "00000000000000000017f5eb5941039fbcee6240d03bc1f2f8e35350df66a1d8", "vout": [{"scriptPubKey": {"reqSigs": 1, "hex": "a91451fd20b00cd40917a01c10b48a7e46de4574dc8587", "addresses": ["39AXthfmC4Nim7Xt3H48dWpHGMJfYq7srt"], "asm": "OP_HASH160 51fd20b00cd40917a01c10b48a7e46de4574dc85 OP_EQUAL", "type": "scripthash"}, "value": 0.001, "n": 0}, {"scriptPubKey": {"reqSigs": 1, "hex": "76a9140e5fb070d36e52e6c8bc3c4ae2f169b52db5badd88ac", "addresses": ["12K16HnCpPf6eSx8hJDaM9CDuQhn6NDpWr"], "asm": "OP_DUP OP_HASH160 0e5fb070d36e52e6c8bc3c4ae2f169b52db5badd OP_EQUALVERIFY OP_CHECKSIG", "type": "pubkeyhash"}, "value": 0.055447, "n": 1}], "hex": "010000000130e58ef10defe572f5f6ab55b0c461ec91e5c0543dbd6a446ca9a537462573b5010000006a47304402204e92f377d1be6ed6e4a78aec0e92810023283c487385274ac6085ffd8492e5c4022063defc2d67fe45b865315c208e788a9c13d0f4021130221bdc294a12074d796b012103d7eabda3eaba33edcfd52f715bd5cdd216a97d8400d9c89f5314e77b9a1244f8feffffff02a08601000000000017a91451fd20b00cd40917a01c10b48a7e46de4574dc8587fc9a5400000000001976a9140e5fb070d36e52e6c8bc3c4ae2f169b52db5badd88ac15490800", "vin": [{"sequence": 4294967294, "scriptSig": {"hex": "47304402204e92f377d1be6ed6e4a78aec0e92810023283c487385274ac6085ffd8492e5c4022063defc2d67fe45b865315c208e788a9c13d0f4021130221bdc294a12074d796b012103d7eabda3eaba33edcfd52f715bd5cdd216a97d8400d9c89f5314e77b9a1244f8", "asm": "304402204e92f377d1be6ed6e4a78aec0e92810023283c487385274ac6085ffd8492e5c4022063defc2d67fe45b865315c208e788a9c13d0f4021130221bdc294a12074d796b[ALL] 03d7eabda3eaba33edcfd52f715bd5cdd216a97d8400d9c89f5314e77b9a1244f8"}, "vout": 1, "txid": "b573254637a5a96c446abd3d54c0e591ec61c4b055abf6f572e5ef0df18ee530"}], "txid": "4fa1bbf4a0ae1c1ce52087ad4936a98ab1640251edfa67b731d06e0a95ef6d5b", "blocktime": 1537874412, "version": 1, "confirmations": 11467, "time": 1537874412, "locktime": 542997, "vsize": 223, "size": 223}