{"hash": "1f8936851ef7188924704fe6ce9a1adfc89b12f28ac1b201db5d19df1b7456f4", "blockhash": "0000000000000000001cda96e906b7601b7a6fb1a3b62bca570a9e5d8f4b3de1", "vout": [{"scriptPubKey": {"reqSigs": 1, "hex": "a91464e40c971158855dd489f3036cc9cade154e098e87", "addresses": ["3AtUgrviqmriyYPxCxMRzyDDoJWFBeDvxH"], "asm": "OP_HASH160 64e40c971158855dd489f3036cc9cade154e098e OP_EQUAL", "type": "scripthash"}, "value": 0.00999631, "n": 0}, {"scriptPubKey": {"reqSigs": 1, "hex": "76a91448383232f1700b2ab67fa028e451187e75efcf4388ac", "addresses": ["17aryPJfvwbYjvrkdyjpCuPTQyCBDpVxWJ"], "asm": "OP_DUP OP_HASH160 48383232f1700b2ab67fa028e451187e75efcf43 OP_EQUALVERIFY OP_CHECKSIG", "type": "pubkeyhash"}, "value": 0.0172, "n": 1}], "hex": "0200000000010630b4eb83044a8c93dd23e096a662eb81ff0f778051ecbf8d781b4620aa758b5601000000171600146b73d42a834d0b3cb14c943537090af99341fae5feffffff4ddb80523169c408b6789c1912870954a696c8cf787dea6574abd8fad4e9daac0100000017160014516c4a4d964014a3733cf8676090695f452dbbecfeffffff53ff6c0c70bdf9c21a8f7ea9154739e62ea5396371870a0c1ed59f3cc3f65fec0400000017160014031642a2806c4a2bc36c89b13f35d14c5e53e6b7feffffff56b2be4af742ddcab3e8139bd644615864b352c4f38918eb99b8c21126e8a10201000000171600140f2ccf58b5d0b5003bedd5e34e02da24ae223c8afeffffff7ceb810419f1d39dc21306a44d7166d13f9b8beef50670633855fcc094b432c50100000017160014179ca52bb65ca142e059c31a3a7b9b8c99b5feecfeffffffbf74c7254198168a321ba4bb012b629cee49ddfb2cd256d3218db1fbabaf22b50000000017160014a1d812b5a64285c5379e97f7aa68b923196ee9f8feffffff02cf400f000000000017a91464e40c971158855dd489f3036cc9cade154e098e87c03e1a00000000001976a91448383232f1700b2ab67fa028e451187e75efcf4388ac02483045022100b01ffd4a19398a8be244b288d0bc4381c3bbe3c490feca98c0d45f2685c252680220396606d0ffa2c9dfb6bff77808dc3114d025073edd8e86567624a2e2f690a459012103d669d53687100cc35a69bfafc90f19198753bf03229d529fd85cae7c8167e78202473044022041797bc9a325d39cc6253bda7348575648c26773a599a1fe7d57a248efded6af022049e49de985fe96e3a3791ae509235c8e86bb1da4163e5fa290e080be36a966a90121028a59c38eeaa89e41f87d1701c93c6bc0b8e670dbb309f8441d97c0aa6dbddc9b0247304402205dc0b1eb7baeef2076683b722bfa7a676c9170c42a0d08649e667d70234de7020220394a108461e056b052642d7f66c3e4c6a9e00bd2473f3d2b987d9be7cd0b27e7012102cde1cee320689757154773858bc29ed8652b29536ed7d1af5ceaf20bcf86b1e002483045022100a06de98b2373598b9bab4bc12c4976ba5016fed3156354ea2f47a5a950bf194702202a63fe1e191c54e6d8783f8a16fc58d8ce6a641aeb42ce8438e38486b89c329f01210358d7e39fc73fdc11051f0db0db02ccc5e65fb8af51ab4b70f362b39616e7789b02473044022052d8998c5817a17dddf07450563123ec8a041797d4cec25608b9498d45e834f8022036c0ca90505064a7bbf2b28e2727c914044ad39994880d87b60c18405b784a950121028e451ea1ac75015309b643a307a1bb0674a792cb9fc48478e1b1ef699c3dd5a002473044022004840048edc95818ae68e30cb6cdc95b89bce70a2093e15461e2878b5a237ceb022079aa6fb14a8e1bb7c5144288b7713efc15bd204556d9a955ae6af8e9dc4c26b1012102501d1cac35d5d404a878ab4b663aebf89a0485864bf9223691b44236fff465b412490800", "vin": [{"txinwitness": ["3045022100b01ffd4a19398a8be244b288d0bc4381c3bbe3c490feca98c0d45f2685c252680220396606d0ffa2c9dfb6bff77808dc3114d025073edd8e86567624a2e2f690a45901", "03d669d53687100cc35a69bfafc90f19198753bf03229d529fd85cae7c8167e782"], "sequence": 4294967294, "scriptSig": {"hex": "1600146b73d42a834d0b3cb14c943537090af99341fae5", "asm": "00146b73d42a834d0b3cb14c943537090af99341fae5"}, "vout": 1, "txid": "568b75aa20461b788dbfec5180770fff81eb62a696e023dd938c4a0483ebb430"}, {"txinwitness": ["3044022041797bc9a325d39cc6253bda7348575648c26773a599a1fe7d57a248efded6af022049e49de985fe96e3a3791ae509235c8e86bb1da4163e5fa290e080be36a966a901", "028a59c38eeaa89e41f87d1701c93c6bc0b8e670dbb309f8441d97c0aa6dbddc9b"], "sequence": 4294967294, "scriptSig": {"hex": "160014516c4a4d964014a3733cf8676090695f452dbbec", "asm": "0014516c4a4d964014a3733cf8676090695f452dbbec"}, "vout": 1, "txid": "acdae9d4fad8ab7465ea7d78cfc896a654098712199c78b608c469315280db4d"}, {"txinwitness": ["304402205dc0b1eb7baeef2076683b722bfa7a676c9170c42a0d08649e667d70234de7020220394a108461e056b052642d7f66c3e4c6a9e00bd2473f3d2b987d9be7cd0b27e701", "02cde1cee320689757154773858bc29ed8652b29536ed7d1af5ceaf20bcf86b1e0"], "sequence": 4294967294, "scriptSig": {"hex": "160014031642a2806c4a2bc36c89b13f35d14c5e53e6b7", "asm": "0014031642a2806c4a2bc36c89b13f35d14c5e53e6b7"}, "vout": 4, "txid": "ec5ff6c33c9fd51e0c0a87716339a52ee6394715a97e8f1ac2f9bd700c6cff53"}, {"txinwitness": ["3045022100a06de98b2373598b9bab4bc12c4976ba5016fed3156354ea2f47a5a950bf194702202a63fe1e191c54e6d8783f8a16fc58d8ce6a641aeb42ce8438e38486b89c329f01", "0358d7e39fc73fdc11051f0db0db02ccc5e65fb8af51ab4b70f362b39616e7789b"], "sequence": 4294967294, "scriptSig": {"hex": "1600140f2ccf58b5d0b5003bedd5e34e02da24ae223c8a", "asm": "00140f2ccf58b5d0b5003bedd5e34e02da24ae223c8a"}, "vout": 1, "txid": "02a1e82611c2b899eb1889f3c452b364586144d69b13e8b3cadd42f74abeb256"}, {"txinwitness": ["3044022052d8998c5817a17dddf07450563123ec8a041797d4cec25608b9498d45e834f8022036c0ca90505064a7bbf2b28e2727c914044ad39994880d87b60c18405b784a9501", "028e451ea1ac75015309b643a307a1bb0674a792cb9fc48478e1b1ef699c3dd5a0"], "sequence": 4294967294, "scriptSig": {"hex": "160014179ca52bb65ca142e059c31a3a7b9b8c99b5feec", "asm": "0014179ca52bb65ca142e059c31a3a7b9b8c99b5feec"}, "vout": 1, "txid": "c532b494c0fc5538637006f5ee8b9b3fd166714da40613c29dd3f1190481eb7c"}, {"txinwitness": ["3044022004840048edc95818ae68e30cb6cdc95b89bce70a2093e15461e2878b5a237ceb022079aa6fb14a8e1bb7c5144288b7713efc15bd204556d9a955ae6af8e9dc4c26b101", "02501d1cac35d5d404a878ab4b663aebf89a0485864bf9223691b44236fff465b4"], "sequence": 4294967294, "scriptSig": {"hex": "160014a1d812b5a64285c5379e97f7aa68b923196ee9f8", "asm": "0014a1d812b5a64285c5379e97f7aa68b923196ee9f8"}, "vout": 0, "txid": "b522afabfbb18d21d356d22cfbdd49ee9c622b01bba41b328a16984125c774bf"}], "txid": "4fa29934254927a81766110bed7cda9100f65d658f2e566d5f80deca245058ea", "blocktime": 1537873282, "version": 2, "confirmations": 11484, "time": 1537873282, "locktime": 542994, "vsize": 622, "size": 1106}