{"hash": "cea3d8f6a5e5e8839864f01546078a3d46ec2668013070cd6447cc9317c44359", "blockhash": "0000000000000000001f76057863aec43deb6fa401d9628bb513d65a8098bfab", "vout": [{"scriptPubKey": {"reqSigs": 1, "hex": "a9143f1a9aa409d26db6d79a34f7ad5c43e6302b886087", "addresses": ["37SgN7SrH1cX8mozfEuGUJnoRkaH3CMTTr"], "asm": "OP_HASH160 3f1a9aa409d26db6d79a34f7ad5c43e6302b8860 OP_EQUAL", "type": "scripthash"}, "value": 0.02180166, "n": 0}, {"scriptPubKey": {"reqSigs": 1, "hex": "0014b676f6f452dbdf4b2ac181e4159e0841ce14fa6d", "addresses": ["bc1qkem0dazjm005k2kps8jpt8sgg88pf7nd6mpjfj"], "asm": "0 b676f6f452dbdf4b2ac181e4159e0841ce14fa6d", "type": "witness_v0_keyhash"}, "value": 0.13055073, "n": 1}], "hex": "0100000000010145db4cf1683bea5ccd8636eae0984cb1b8f7818b5494057f56b7c48cc4561d5b00000000171600144833b11c25efe63fbb67ceeb7cf822d3021d62aeffffffff02464421000000000017a9143f1a9aa409d26db6d79a34f7ad5c43e6302b8860876134c70000000000160014b676f6f452dbdf4b2ac181e4159e0841ce14fa6d0247304402203713b8506a5e8e95eea3b3c67feb171de3ebb2d1b2dcd2510d4f6adbff51764802205d630feb815c98ab934e4ab5f00ce8ccbb10c509cb71d29286bf22bffcba6aee012103036cf6da558675bbcaae4b98b95d362e1648a9cc04978ce8eb9b3e675e92ae4700000000", "vin": [{"txinwitness": ["304402203713b8506a5e8e95eea3b3c67feb171de3ebb2d1b2dcd2510d4f6adbff51764802205d630feb815c98ab934e4ab5f00ce8ccbb10c509cb71d29286bf22bffcba6aee01", "03036cf6da558675bbcaae4b98b95d362e1648a9cc04978ce8eb9b3e675e92ae47"], "sequence": 4294967295, "scriptSig": {"hex": "1600144833b11c25efe63fbb67ceeb7cf822d3021d62ae", "asm": "00144833b11c25efe63fbb67ceeb7cf822d3021d62ae"}, "vout": 0, "txid": "5b1d56c48cc4b7567f0594548b81f7b8b14c98e0ea3686cd5cea3b68f14cdb45"}], "txid": "4fa22eafdf202ada970e6e594066808b217d78d4740b01dea489ac5c408b77a5", "blocktime": 1537873891, "version": 1, "confirmations": 11478, "time": 1537873891, "locktime": 0, "vsize": 165, "size": 246}