{"hash": "0a15b12a30f507ef80cafe4585f2b1d19b5ad2320f2ddc5d4ac78c6239ee342e", "blockhash": "0000000000000000000dcc0f55137456b1a82d3642486a52398922ac4d620174", "vout": [{"scriptPubKey": {"reqSigs": 1, "hex": "76a914a0b6f8dd7cafb17b603aa10d17f98b724e02d1df88ac", "addresses": ["1FenJpXA7qP2ZeHfVSAQeUsBcqFziz45iP"], "asm": "OP_DUP OP_HASH160 a0b6f8dd7cafb17b603aa10d17f98b724e02d1df OP_EQUALVERIFY OP_CHECKSIG", "type": "pubkeyhash"}, "value": 0.007, "n": 0}, {"scriptPubKey": {"reqSigs": 1, "hex": "a914627aa52932456d89054bd84f86246af3b71b93a887", "addresses": ["3Afj4stdiLG9EktGrMbm252ySonnhYaz8v"], "asm": "OP_HASH160 627aa52932456d89054bd84f86246af3b71b93a8 OP_EQUAL", "type": "scripthash"}, "value": 0.62407496, "n": 1}], "hex": "01000000000101fa2b937d978517f9e96065874ccf34e916b270b48ce19512a05543591e21fd9301000000232200205fdd641234b13964b223bd85ad2a4a667ca2099df3d42a1d3b45706a8d81abf0ffffffff0260ae0a00000000001976a914a0b6f8dd7cafb17b603aa10d17f98b724e02d1df88ac4843b8030000000017a914627aa52932456d89054bd84f86246af3b71b93a8870400483045022100cc76cf6382b9cae3f614e3eaab0c144f2f662b5e43e8e7d377cede825d2bc15e02204a89e4fc19cbb7f2c75c37bdc571d32ced4aaa9561f297312911230f00df9aab01473044022015b09da892f7dcc6bdd6add968ec3626e4088628bd00e2ff58f16b34332d121f0220293f28ac2f320fa2673a3a635498fd869f80beb91f44a4d05c1c81e3334d17000147522103dcde3832fa56def7b4e783faad1b8af85c3cdd74a5ff4f3c7c216b1075c18da12103c70ae8ded79be1afda73b9ce5ea14a3878908ee160d66a9a717e792bb6db276952ae00000000", "vin": [{"txinwitness": ["", "3045022100cc76cf6382b9cae3f614e3eaab0c144f2f662b5e43e8e7d377cede825d2bc15e02204a89e4fc19cbb7f2c75c37bdc571d32ced4aaa9561f297312911230f00df9aab01", "3044022015b09da892f7dcc6bdd6add968ec3626e4088628bd00e2ff58f16b34332d121f0220293f28ac2f320fa2673a3a635498fd869f80beb91f44a4d05c1c81e3334d170001", "522103dcde3832fa56def7b4e783faad1b8af85c3cdd74a5ff4f3c7c216b1075c18da12103c70ae8ded79be1afda73b9ce5ea14a3878908ee160d66a9a717e792bb6db276952ae"], "sequence": 4294967295, "scriptSig": {"hex": "2200205fdd641234b13964b223bd85ad2a4a667ca2099df3d42a1d3b45706a8d81abf0", "asm": "00205fdd641234b13964b223bd85ad2a4a667ca2099df3d42a1d3b45706a8d81abf0"}, "vout": 1, "txid": "93fd211e594355a01295e18cb470b216e934cf4c876560e9f91785977d932bfa"}], "txid": "4fab6bf3727492cc473992336dc53ced84bdcf2a65c23284506b8dbcbe5222ee", "blocktime": 1537870268, "version": 1, "confirmations": 11518, "time": 1537870268, "locktime": 0, "vsize": 208, "size": 373}