{"hash": "eae0d1cfef32967fa25886e9b41e2a7f17ccb991b9ab783a7d0e53e69f32f3ed", "blockhash": "0000000000000000000e13cef7c366c0283d82e591d1acd082e914b08063cdf1", "vout": [{"scriptPubKey": {"reqSigs": 1, "hex": "76a914658bc2e4001cfacc64a3e041943e921b3086737588ac", "addresses": ["1AFvgAG4FN8fhtp3ZtSF8hsmKvPTDiB4RV"], "asm": "OP_DUP OP_HASH160 658bc2e4001cfacc64a3e041943e921b30867375 OP_EQUALVERIFY OP_CHECKSIG", "type": "pubkeyhash"}, "value": 3.282e-05, "n": 0}, {"scriptPubKey": {"reqSigs": 1, "hex": "a914e8db75c900cf08f06518e96d167331f2a4abfb3387", "addresses": ["3NvFbQMAkkqEFj4i1sYPPLkSWzxTFUchjA"], "asm": "OP_HASH160 e8db75c900cf08f06518e96d167331f2a4abfb33 OP_EQUAL", "type": "scripthash"}, "value": 0.00045668, "n": 1}], "hex": "010000000001017e3d8b6a06937acc543f6d3575ad283e9b1ad3086252473fd2f1b41ceebded620000000023220020941cfaff8837763dc1f69ff82b6d6553fdea17a41cfc29a04403293eedd8ccc7ffffffff02d20c0000000000001976a914658bc2e4001cfacc64a3e041943e921b3086737588ac64b200000000000017a914e8db75c900cf08f06518e96d167331f2a4abfb33870400483045022100a8d1f72d561e8ce04aed00937fd48583cb2a85c09b6d04ea3868d7a996d790e3022075099427642fb00396e0275e1aeea9c9e5d0f7c8cb83e8e0e78fa0e2d8e6626501483045022100c40f27992cd4eaa7efbfc58ae33abbb9d7d9fe693136fe3af46acfa099bfc363022019f20e194cc73c691ca6f471b503d49244d71600986b0365ff3a2484db65d5e80147522102531db3a5883f29bab4241dd0cd726936667bcda445d89bdd22244e828b6993342103148c80a5bdfddb05ff5bcffc397c8ca748d8b435ec6a175bc9d7bfc7fc6f853752ae00000000", "vin": [{"txinwitness": ["", "3045022100a8d1f72d561e8ce04aed00937fd48583cb2a85c09b6d04ea3868d7a996d790e3022075099427642fb00396e0275e1aeea9c9e5d0f7c8cb83e8e0e78fa0e2d8e6626501", "3045022100c40f27992cd4eaa7efbfc58ae33abbb9d7d9fe693136fe3af46acfa099bfc363022019f20e194cc73c691ca6f471b503d49244d71600986b0365ff3a2484db65d5e801", "522102531db3a5883f29bab4241dd0cd726936667bcda445d89bdd22244e828b6993342103148c80a5bdfddb05ff5bcffc397c8ca748d8b435ec6a175bc9d7bfc7fc6f853752ae"], "sequence": 4294967295, "scriptSig": {"hex": "220020941cfaff8837763dc1f69ff82b6d6553fdea17a41cfc29a04403293eedd8ccc7", "asm": "0020941cfaff8837763dc1f69ff82b6d6553fdea17a41cfc29a04403293eedd8ccc7"}, "vout": 0, "txid": "62edbdee1cb4f1d23f47526208d31a9b3e28ad75356d3f54cc7a93066a8b3d7e"}], "txid": "4fab504b019653a82001476c2ac32352d0fac43e3efcf82035d5e77ec4c4d66f", "blocktime": 1537871767, "version": 1, "confirmations": 11495, "time": 1537871767, "locktime": 0, "vsize": 208, "size": 374}