{"hash": "4fb919b9b7d8a553270bd795c6b364908c0a693829a3cc6cb64c6caa3d3c56cd", "blockhash": "000000000000000000205f8b0775d31398ef75b89a5e8ec8d2c57b4dc0ac4c20", "vout": [{"scriptPubKey": {"type": "nulldata", "hex": "6a146f6d6e69000000000000001f0000000d1cc13940", "asm": "OP_RETURN 6f6d6e69000000000000001f0000000d1cc13940"}, "value": 0.0, "n": 0}, {"scriptPubKey": {"reqSigs": 1, "hex": "76a91488d924f51033b74a895863a5fb57fd545529df7d88ac", "addresses": ["1DUb2YYbQA1jjaNYzVXLZ7ZioEhLXtbUru"], "asm": "OP_DUP OP_HASH160 88d924f51033b74a895863a5fb57fd545529df7d OP_EQUALVERIFY OP_CHECKSIG", "type": "pubkeyhash"}, "value": 5.46e-06, "n": 1}, {"scriptPubKey": {"reqSigs": 1, "hex": "76a914b314d095b18e474e6a33db4f0db80115ae00466688ac", "addresses": ["1HKttaJcctpfnEfbcKYzcVFB218B1yXEeN"], "asm": "OP_DUP OP_HASH160 b314d095b18e474e6a33db4f0db80115ae004666 OP_EQUALVERIFY OP_CHECKSIG", "type": "pubkeyhash"}, "value": 0.00495943, "n": 2}], "hex": "0100000001f8877f5f0e9bea40b5b6b29959596971f81229ab5b1e67068ece53b9dd705d4d000000006b4830450221009385f506368d21e62990607e355f8553f79cd44c9e7dbc0f8a4ef8ee83477908022037b28efb28794d9581a7db7fc9b0c3e67226fa8e5262fb81d235159a8b379f88012102f3a4fbf1601bda618ee0317cb309599dd65949ca201ffe8f057dd59e49f6c5c7feffffff030000000000000000166a146f6d6e69000000000000001f0000000d1cc1394022020000000000001976a91488d924f51033b74a895863a5fb57fd545529df7d88ac47910700000000001976a914b314d095b18e474e6a33db4f0db80115ae00466688accd480800", "vin": [{"sequence": 4294967294, "scriptSig": {"hex": "4830450221009385f506368d21e62990607e355f8553f79cd44c9e7dbc0f8a4ef8ee83477908022037b28efb28794d9581a7db7fc9b0c3e67226fa8e5262fb81d235159a8b379f88012102f3a4fbf1601bda618ee0317cb309599dd65949ca201ffe8f057dd59e49f6c5c7", "asm": "30450221009385f506368d21e62990607e355f8553f79cd44c9e7dbc0f8a4ef8ee83477908022037b28efb28794d9581a7db7fc9b0c3e67226fa8e5262fb81d235159a8b379f88[ALL] 02f3a4fbf1601bda618ee0317cb309599dd65949ca201ffe8f057dd59e49f6c5c7"}, "vout": 0, "txid": "4d5d70ddb953ce8e06671e5bab2912f87169595999b2b6b540ea9b0e5f7f87f8"}], "txid": "4fb919b9b7d8a553270bd795c6b364908c0a693829a3cc6cb64c6caa3d3c56cd", "blocktime": 1537871175, "version": 1, "confirmations": 11511, "time": 1537871175, "locktime": 542925, "vsize": 257, "size": 257}