{"hash": "4fbb9c1cf1cf84c032d289878b0ccc3714c2847f9895a4c64e6a44303f3306a9", "blockhash": "0000000000000000001e0dab787dd257d1dbfcb92a98c2207d5e1078be1f4165", "vout": [{"scriptPubKey": {"reqSigs": 1, "hex": "76a9146de77d29cbb4b6203d8968025dc128ae08cb111b88ac", "addresses": ["1B27y3Qt78bg8tGQqjTmKtZMWUsPvcKc4P"], "asm": "OP_DUP OP_HASH160 6de77d29cbb4b6203d8968025dc128ae08cb111b OP_EQUALVERIFY OP_CHECKSIG", "type": "pubkeyhash"}, "value": 0.00497388, "n": 0}, {"scriptPubKey": {"type": "nulldata", "hex": "6a146f6d6e69000000000000001f000000f4b6ba7060", "asm": "OP_RETURN 6f6d6e69000000000000001f000000f4b6ba7060"}, "value": 0.0, "n": 1}, {"scriptPubKey": {"reqSigs": 1, "hex": "76a914a25dec4d0011064ef106a983c39c7a540699f22088ac", "addresses": ["1FoWyxwPXuj4C6abqwhjDWdz6D4PZgYRjA"], "asm": "OP_DUP OP_HASH160 a25dec4d0011064ef106a983c39c7a540699f220 OP_EQUALVERIFY OP_CHECKSIG", "type": "pubkeyhash"}, "value": 5.46e-06, "n": 2}], "hex": "010000000450e56e1435a6f51531b1fc512a7ac3935348d47d8a5699338103d28062b28a4d020000006a47304402207d3eb212d5b3b230a265d5ee7fd096fe902c2804e096a39524979c9c92a9d0c10220479ff7717cf9fd191d857dfa5ae6e60206715665d773f0caa7573c01eca70f1d01210351eadb17b0ecb8a1c39e9daf371e13b5186117109b4bced1fbee1bf94bfe7261feffffff59655c6e043e2eb93ae0ae2b60facba634f2e3b23694c234af0eab59bf07b8a0020000006a47304402201a27063bb0907f766c8762fa41b5e9a7b95ae6551e091e113c9d75dfed45f5e702203f65653a726fb25dd2a7ff6c2d28c51dc666150b1387c952371e5e2ff24f698d01210351eadb17b0ecb8a1c39e9daf371e13b5186117109b4bced1fbee1bf94bfe7261feffffffc36854d79f3e229fd27cfb685759de6f86aadc9d279a22cab22b5c6e8b38196e020000006b483045022100a92ee2423999f862ee5ffff9c667e4d88c6c12c740b8a45d33d35226c4373f2402206a8ddbe9e3798497eed4bfd24c474beb652fef372ccae8d57345749770a9272401210351eadb17b0ecb8a1c39e9daf371e13b5186117109b4bced1fbee1bf94bfe7261feffffff787e7a359d7e969700768d0b3bd51e8ccca39067f94cb048ecc61523e4868663020000006b483045022100de1f50c2d7985763671d8c9b65024e4b58eab5fe7489245c69064c9886c56b2202200f9bdd4adc5c4527e2b6131eee544b693e3a8ab141c3efe6c6008a06d49cd2c301210351eadb17b0ecb8a1c39e9daf371e13b5186117109b4bced1fbee1bf94bfe7261feffffff03ec960700000000001976a9146de77d29cbb4b6203d8968025dc128ae08cb111b88ac0000000000000000166a146f6d6e69000000000000001f000000f4b6ba706022020000000000001976a914a25dec4d0011064ef106a983c39c7a540699f22088ac12490800", "vin": [{"sequence": 4294967294, "scriptSig": {"hex": "47304402207d3eb212d5b3b230a265d5ee7fd096fe902c2804e096a39524979c9c92a9d0c10220479ff7717cf9fd191d857dfa5ae6e60206715665d773f0caa7573c01eca70f1d01210351eadb17b0ecb8a1c39e9daf371e13b5186117109b4bced1fbee1bf94bfe7261", "asm": "304402207d3eb212d5b3b230a265d5ee7fd096fe902c2804e096a39524979c9c92a9d0c10220479ff7717cf9fd191d857dfa5ae6e60206715665d773f0caa7573c01eca70f1d[ALL] 0351eadb17b0ecb8a1c39e9daf371e13b5186117109b4bced1fbee1bf94bfe7261"}, "vout": 2, "txid": "4d8ab26280d203813399568a7dd4485393c37a2a51fcb13115f5a635146ee550"}, {"sequence": 4294967294, "scriptSig": {"hex": "47304402201a27063bb0907f766c8762fa41b5e9a7b95ae6551e091e113c9d75dfed45f5e702203f65653a726fb25dd2a7ff6c2d28c51dc666150b1387c952371e5e2ff24f698d01210351eadb17b0ecb8a1c39e9daf371e13b5186117109b4bced1fbee1bf94bfe7261", "asm": "304402201a27063bb0907f766c8762fa41b5e9a7b95ae6551e091e113c9d75dfed45f5e702203f65653a726fb25dd2a7ff6c2d28c51dc666150b1387c952371e5e2ff24f698d[ALL] 0351eadb17b0ecb8a1c39e9daf371e13b5186117109b4bced1fbee1bf94bfe7261"}, "vout": 2, "txid": "a0b807bf59ab0eaf34c29436b2e3f234a6cbfa602baee03ab92e3e046e5c6559"}, {"sequence": 4294967294, "scriptSig": {"hex": "483045022100a92ee2423999f862ee5ffff9c667e4d88c6c12c740b8a45d33d35226c4373f2402206a8ddbe9e3798497eed4bfd24c474beb652fef372ccae8d57345749770a9272401210351eadb17b0ecb8a1c39e9daf371e13b5186117109b4bced1fbee1bf94bfe7261", "asm": "3045022100a92ee2423999f862ee5ffff9c667e4d88c6c12c740b8a45d33d35226c4373f2402206a8ddbe9e3798497eed4bfd24c474beb652fef372ccae8d57345749770a92724[ALL] 0351eadb17b0ecb8a1c39e9daf371e13b5186117109b4bced1fbee1bf94bfe7261"}, "vout": 2, "txid": "6e19388b6e5c2bb2ca229a279ddcaa866fde595768fb7cd29f223e9fd75468c3"}, {"sequence": 4294967294, "scriptSig": {"hex": "483045022100de1f50c2d7985763671d8c9b65024e4b58eab5fe7489245c69064c9886c56b2202200f9bdd4adc5c4527e2b6131eee544b693e3a8ab141c3efe6c6008a06d49cd2c301210351eadb17b0ecb8a1c39e9daf371e13b5186117109b4bced1fbee1bf94bfe7261", "asm": "3045022100de1f50c2d7985763671d8c9b65024e4b58eab5fe7489245c69064c9886c56b2202200f9bdd4adc5c4527e2b6131eee544b693e3a8ab141c3efe6c6008a06d49cd2c3[ALL] 0351eadb17b0ecb8a1c39e9daf371e13b5186117109b4bced1fbee1bf94bfe7261"}, "vout": 2, "txid": "638686e42315c6ec48b04cf96790a3cc8c1ed53b0b8d760097967e9d357a7e78"}], "txid": "4fbb9c1cf1cf84c032d289878b0ccc3714c2847f9895a4c64e6a44303f3306a9", "blocktime": 1537872475, "version": 1, "confirmations": 11487, "time": 1537872475, "locktime": 542994, "vsize": 699, "size": 699}