{"hash": "4fc29b59c0135710982e8992bcefe1b7e303db706cfe6800c6ee3da39d037040", "blockhash": "00000000000000000017f5eb5941039fbcee6240d03bc1f2f8e35350df66a1d8", "vout": [{"scriptPubKey": {"reqSigs": 1, "hex": "76a914f846484e5e8d5c5f5a747d4598afe5317ffdde7788ac", "addresses": ["1PdkmtGQXbvwhGzR1tkQrkTN76qX4LAjMD"], "asm": "OP_DUP OP_HASH160 f846484e5e8d5c5f5a747d4598afe5317ffdde77 OP_EQUALVERIFY OP_CHECKSIG", "type": "pubkeyhash"}, "value": 0.01123954, "n": 0}, {"scriptPubKey": {"reqSigs": 1, "hex": "a9149d4e72c28132f75e72a5bc6d50b1429b8fb7637c87", "addresses": ["3G2mzLrotKuQxkMQQB3eQgsTMuqAJTwjAh"], "asm": "OP_HASH160 9d4e72c28132f75e72a5bc6d50b1429b8fb7637c OP_EQUAL", "type": "scripthash"}, "value": 0.03035368, "n": 1}], "hex": "0100000001250207985a3a16d4d1b7e7da21c0cf0101833ac5e95eb44211664ab81ed0086b010000006b483045022100a2458c74d9aee9914dba4f47278c37a0c19f9cef09da63352e9635a218438d1b0220158217ba7d76d2edffd9b97824b47158e01b538cf246d1162efbd1c0775c76e8012103a6e7bdad98e3a149e76539cbfb0bf138e8d837b7ff483cb53d952502d4ee43feffffffff0272261100000000001976a914f846484e5e8d5c5f5a747d4598afe5317ffdde7788ace8502e000000000017a9149d4e72c28132f75e72a5bc6d50b1429b8fb7637c8700000000", "vin": [{"sequence": 4294967295, "scriptSig": {"hex": "483045022100a2458c74d9aee9914dba4f47278c37a0c19f9cef09da63352e9635a218438d1b0220158217ba7d76d2edffd9b97824b47158e01b538cf246d1162efbd1c0775c76e8012103a6e7bdad98e3a149e76539cbfb0bf138e8d837b7ff483cb53d952502d4ee43fe", "asm": "3045022100a2458c74d9aee9914dba4f47278c37a0c19f9cef09da63352e9635a218438d1b0220158217ba7d76d2edffd9b97824b47158e01b538cf246d1162efbd1c0775c76e8[ALL] 03a6e7bdad98e3a149e76539cbfb0bf138e8d837b7ff483cb53d952502d4ee43fe"}, "vout": 1, "txid": "6b08d01eb84a661142b45ee9c53a830101cfc021dae7b7d1d4163a5a98070225"}], "txid": "4fc29b59c0135710982e8992bcefe1b7e303db706cfe6800c6ee3da39d037040", "blocktime": 1537874412, "version": 1, "confirmations": 11467, "time": 1537874412, "locktime": 0, "vsize": 224, "size": 224}