{"hash": "4fc9c2104e47e3bf09a31cde53eaa329d4f158169ee0d6493f6a6f8c13ed6700", "blockhash": "000000000000000000022b45ed06c6f4ccd3cf7fb5ba4856ebd2e58215665228", "vout": [{"scriptPubKey": {"reqSigs": 1, "hex": "76a9147d5e2d49d412f1f530469663ca2196538c565f3588ac", "addresses": ["1CRtHWJ4PdKXu3bwDFyhQFq1FWNQysM8eZ"], "asm": "OP_DUP OP_HASH160 7d5e2d49d412f1f530469663ca2196538c565f35 OP_EQUALVERIFY OP_CHECKSIG", "type": "pubkeyhash"}, "value": 5.614e-05, "n": 0}, {"scriptPubKey": {"reqSigs": 1, "hex": "76a914a7dd826b39ba42df583d58fa8589b22e35fabe2588ac", "addresses": ["1GJbCnMcR7JqJGKXpUFsZocQ6U35V35KN6"], "asm": "OP_DUP OP_HASH160 a7dd826b39ba42df583d58fa8589b22e35fabe25 OP_EQUALVERIFY OP_CHECKSIG", "type": "pubkeyhash"}, "value": 0.03369568, "n": 1}], "hex": "01000000015946135815bbcdae8b6dac942aaac7fd9705319d8eec121b3d6ef3c9b4b24cf5010000006b483045022100f5ca72aa9116693c82b2673d6ebde0222c0c74cd4c4823573f877b20b33a1be402201064dc699ef34c268193e5c56564b109974eaa1dc09754b7e2dac2dda876ab41012102eb2ef623423f8f443d6dabf2586edf29c6122595731b8472dabce33a955fe312ffffffff02ee150000000000001976a9147d5e2d49d412f1f530469663ca2196538c565f3588ac606a3300000000001976a914a7dd826b39ba42df583d58fa8589b22e35fabe2588ac00000000", "vin": [{"sequence": 4294967295, "scriptSig": {"hex": "483045022100f5ca72aa9116693c82b2673d6ebde0222c0c74cd4c4823573f877b20b33a1be402201064dc699ef34c268193e5c56564b109974eaa1dc09754b7e2dac2dda876ab41012102eb2ef623423f8f443d6dabf2586edf29c6122595731b8472dabce33a955fe312", "asm": "3045022100f5ca72aa9116693c82b2673d6ebde0222c0c74cd4c4823573f877b20b33a1be402201064dc699ef34c268193e5c56564b109974eaa1dc09754b7e2dac2dda876ab41[ALL] 02eb2ef623423f8f443d6dabf2586edf29c6122595731b8472dabce33a955fe312"}, "vout": 1, "txid": "f54cb2b4c9f36e3d1b12ec8e9d310597fdc7aa2a94ac6d8baecdbb1558134659"}], "txid": "4fc9c2104e47e3bf09a31cde53eaa329d4f158169ee0d6493f6a6f8c13ed6700", "blocktime": 1537869901, "version": 1, "confirmations": 11524, "time": 1537869901, "locktime": 0, "vsize": 226, "size": 226}