{"hash": "4fc9125ae87ee40f7f902037a75ef2d0b412c40ce6ce8e170ba2fc9433270016", "blockhash": "0000000000000000001cda96e906b7601b7a6fb1a3b62bca570a9e5d8f4b3de1", "vout": [{"scriptPubKey": {"reqSigs": 1, "hex": "76a9146b4d7e2d520c692ddd52737e491016137080e34e88ac", "addresses": ["1AnN8psviyoKb6tMtKs4W5TobLCH4uBr6n"], "asm": "OP_DUP OP_HASH160 6b4d7e2d520c692ddd52737e491016137080e34e OP_EQUALVERIFY OP_CHECKSIG", "type": "pubkeyhash"}, "value": 0.00097144, "n": 0}, {"scriptPubKey": {"reqSigs": 1, "hex": "a914fcd7272cd73fd2cdc9808c08ebd7bbfc5c1b417d87", "addresses": ["3QjuwymDYu1RxGeKL4JeVikYZLLcVrueNt"], "asm": "OP_HASH160 fcd7272cd73fd2cdc9808c08ebd7bbfc5c1b417d OP_EQUAL", "type": "scripthash"}, "value": 1.0, "n": 1}], "hex": "0100000005790170dc98ab12f8121fa78a241b748458dba9f3e8b0fb8cd024d7c48aebd138000000006a473044022045989f18c30b8cc3b772ceb989dd6a42aa19a2c861e9866593a4793352c32a8b02203f6cef1cfb9aefa1c69182f9bdca9ffbaa4dc6e97fbafcc638fef61e5e6830370121024da6a0ac84252c441d73620f202db9a28258d0941954f66fc9b1d8d18f247ecbfdffffff5dd1698b2e25f42cec779b7a07928dd5d1d80812d727a2924b225ff947601878000000006a473044022043c736703053c23fa7aabd8cd00b8bdf40f333ada57de3fbe5f2fb1ab9e7550402203a6aada23a0c728438ccf6ade5d3f65a50c7cf1672b61acf09158aa2de0428fc0121024da6a0ac84252c441d73620f202db9a28258d0941954f66fc9b1d8d18f247ecbfdffffff71d736c9cdff8a98d455b9eb94a538dc563b9a8961c44e2abfde737f61c3f4b4000000006a47304402201fba72195d2996e0ed0529ba272a62ca23dbd4ded58023f0933f71ef5883a963022048557b4291b656597e713bacadd5f4b6e373592e9e603196e9649e5e640da13e0121024da6a0ac84252c441d73620f202db9a28258d0941954f66fc9b1d8d18f247ecbfdffffff13d7a1d943f0806aaae8c8b18d90f84d1b91878ba4b46507bf8457cfc2bd33d0000000006b483045022100e1b0cd8cdb60cfb1d4fc2f775888e180f58ce9019ab99f7b4e0edc35c8f1b9eb02207aa0429b8e954af96f953a67fafea9f81996fa605ccbbc877b716106b650211c0121024da6a0ac84252c441d73620f202db9a28258d0941954f66fc9b1d8d18f247ecbfdffffff1492ef4c9c3fe49adf0692cfc9cf8e61bceb70d15b1c80e1bd340034ac844cf0010000006a47304402206c9b742241d5013a8d108e98531b271d16399c5f58b24246eb890374cb6ad24f02203ffb97cb5912e8d9175f9f53e31f2687bbfb7737db9507212d484d91df706dec0121024da6a0ac84252c441d73620f202db9a28258d0941954f66fc9b1d8d18f247ecbfdffffff02787b0100000000001976a9146b4d7e2d520c692ddd52737e491016137080e34e88ac00e1f5050000000017a914fcd7272cd73fd2cdc9808c08ebd7bbfc5c1b417d8713490800", "vin": [{"sequence": 4294967293, "scriptSig": {"hex": "473044022045989f18c30b8cc3b772ceb989dd6a42aa19a2c861e9866593a4793352c32a8b02203f6cef1cfb9aefa1c69182f9bdca9ffbaa4dc6e97fbafcc638fef61e5e6830370121024da6a0ac84252c441d73620f202db9a28258d0941954f66fc9b1d8d18f247ecb", "asm": "3044022045989f18c30b8cc3b772ceb989dd6a42aa19a2c861e9866593a4793352c32a8b02203f6cef1cfb9aefa1c69182f9bdca9ffbaa4dc6e97fbafcc638fef61e5e683037[ALL] 024da6a0ac84252c441d73620f202db9a28258d0941954f66fc9b1d8d18f247ecb"}, "vout": 0, "txid": "38d1eb8ac4d724d08cfbb0e8f3a9db5884741b248aa71f12f812ab98dc700179"}, {"sequence": 4294967293, "scriptSig": {"hex": "473044022043c736703053c23fa7aabd8cd00b8bdf40f333ada57de3fbe5f2fb1ab9e7550402203a6aada23a0c728438ccf6ade5d3f65a50c7cf1672b61acf09158aa2de0428fc0121024da6a0ac84252c441d73620f202db9a28258d0941954f66fc9b1d8d18f247ecb", "asm": "3044022043c736703053c23fa7aabd8cd00b8bdf40f333ada57de3fbe5f2fb1ab9e7550402203a6aada23a0c728438ccf6ade5d3f65a50c7cf1672b61acf09158aa2de0428fc[ALL] 024da6a0ac84252c441d73620f202db9a28258d0941954f66fc9b1d8d18f247ecb"}, "vout": 0, "txid": "78186047f95f224b92a227d71208d8d1d58d92077a9b77ec2cf4252e8b69d15d"}, {"sequence": 4294967293, "scriptSig": {"hex": "47304402201fba72195d2996e0ed0529ba272a62ca23dbd4ded58023f0933f71ef5883a963022048557b4291b656597e713bacadd5f4b6e373592e9e603196e9649e5e640da13e0121024da6a0ac84252c441d73620f202db9a28258d0941954f66fc9b1d8d18f247ecb", "asm": "304402201fba72195d2996e0ed0529ba272a62ca23dbd4ded58023f0933f71ef5883a963022048557b4291b656597e713bacadd5f4b6e373592e9e603196e9649e5e640da13e[ALL] 024da6a0ac84252c441d73620f202db9a28258d0941954f66fc9b1d8d18f247ecb"}, "vout": 0, "txid": "b4f4c3617f73debf2a4ec461899a3b56dc38a594ebb955d4988affcdc936d771"}, {"sequence": 4294967293, "scriptSig": {"hex": "483045022100e1b0cd8cdb60cfb1d4fc2f775888e180f58ce9019ab99f7b4e0edc35c8f1b9eb02207aa0429b8e954af96f953a67fafea9f81996fa605ccbbc877b716106b650211c0121024da6a0ac84252c441d73620f202db9a28258d0941954f66fc9b1d8d18f247ecb", "asm": "3045022100e1b0cd8cdb60cfb1d4fc2f775888e180f58ce9019ab99f7b4e0edc35c8f1b9eb02207aa0429b8e954af96f953a67fafea9f81996fa605ccbbc877b716106b650211c[ALL] 024da6a0ac84252c441d73620f202db9a28258d0941954f66fc9b1d8d18f247ecb"}, "vout": 0, "txid": "d033bdc2cf5784bf0765b4a48b87911b4df8908db1c8e8aa6a80f043d9a1d713"}, {"sequence": 4294967293, "scriptSig": {"hex": "47304402206c9b742241d5013a8d108e98531b271d16399c5f58b24246eb890374cb6ad24f02203ffb97cb5912e8d9175f9f53e31f2687bbfb7737db9507212d484d91df706dec0121024da6a0ac84252c441d73620f202db9a28258d0941954f66fc9b1d8d18f247ecb", "asm": "304402206c9b742241d5013a8d108e98531b271d16399c5f58b24246eb890374cb6ad24f02203ffb97cb5912e8d9175f9f53e31f2687bbfb7737db9507212d484d91df706dec[ALL] 024da6a0ac84252c441d73620f202db9a28258d0941954f66fc9b1d8d18f247ecb"}, "vout": 1, "txid": "f04c84ac340034bde1801c5bd170ebbc618ecfc9cf9206df9ae43f9c4cef9214"}], "txid": "4fc9125ae87ee40f7f902037a75ef2d0b412c40ce6ce8e170ba2fc9433270016", "blocktime": 1537873282, "version": 1, "confirmations": 11484, "time": 1537873282, "locktime": 542995, "vsize": 812, "size": 812}