{"hash": "4fcc58124aa067c831120ed8e51b5f88672e23cb69387c3491fab1c2b3da8b10", "blockhash": "0000000000000000001f76057863aec43deb6fa401d9628bb513d65a8098bfab", "vout": [{"scriptPubKey": {"reqSigs": 1, "hex": "76a9148f1bcc0ec1b73121f2201a50637f44ec2c69d66288ac", "addresses": ["1E3gvosYgW2dEFknnS4APTSGMB1VB7gAXU"], "asm": "OP_DUP OP_HASH160 8f1bcc0ec1b73121f2201a50637f44ec2c69d662 OP_EQUALVERIFY OP_CHECKSIG", "type": "pubkeyhash"}, "value": 0.00166466, "n": 0}], "hex": "010000000162bcdec791ba1fe469afc147134b9415180aa5c4b7809133d0d0e12c7549570b000000006a47304402200b9f49613f579437901b278a93f5deba0c1da7424e7f07653e2c5e47fd791eb202207cae7fa3042de4bf070af03edd859ca2374416a46c46f7eceeeb5a5ac7199d820121028bf4781be74cdb8125dae5826b8a119e7d034b12e93a648f348ada5ee1a7368cffffffff01428a0200000000001976a9148f1bcc0ec1b73121f2201a50637f44ec2c69d66288ac00000000", "vin": [{"sequence": 4294967295, "scriptSig": {"hex": "47304402200b9f49613f579437901b278a93f5deba0c1da7424e7f07653e2c5e47fd791eb202207cae7fa3042de4bf070af03edd859ca2374416a46c46f7eceeeb5a5ac7199d820121028bf4781be74cdb8125dae5826b8a119e7d034b12e93a648f348ada5ee1a7368c", "asm": "304402200b9f49613f579437901b278a93f5deba0c1da7424e7f07653e2c5e47fd791eb202207cae7fa3042de4bf070af03edd859ca2374416a46c46f7eceeeb5a5ac7199d82[ALL] 028bf4781be74cdb8125dae5826b8a119e7d034b12e93a648f348ada5ee1a7368c"}, "vout": 0, "txid": "0b5749752ce1d0d0339180b7c4a50a1815944b1347c1af69e41fba91c7debc62"}], "txid": "4fcc58124aa067c831120ed8e51b5f88672e23cb69387c3491fab1c2b3da8b10", "blocktime": 1537873891, "version": 1, "confirmations": 11478, "time": 1537873891, "locktime": 0, "vsize": 191, "size": 191}