{"hash": "4fcfeea77304ba68bc15a83bfe5712cf6d6c9814b05336cf4b246fd6bb35447b", "blockhash": "0000000000000000000e13cef7c366c0283d82e591d1acd082e914b08063cdf1", "vout": [{"scriptPubKey": {"reqSigs": 1, "hex": "76a914553f6c2e518c47b825d190dfd174d1ee5fefb49a88ac", "addresses": ["18mkQz4aGuizPkXiFqxSNXhRPcHhLcodMq"], "asm": "OP_DUP OP_HASH160 553f6c2e518c47b825d190dfd174d1ee5fefb49a OP_EQUALVERIFY OP_CHECKSIG", "type": "pubkeyhash"}, "value": 0.07774483, "n": 0}, {"scriptPubKey": {"reqSigs": 1, "hex": "76a914824fa1bc4fcb157e3c71abe0b38bf087e5ac6ec988ac", "addresses": ["1Ct2ErMn2xiSLg4BwFU3RBq9qCpMQQaGdn"], "asm": "OP_DUP OP_HASH160 824fa1bc4fcb157e3c71abe0b38bf087e5ac6ec9 OP_EQUALVERIFY OP_CHECKSIG", "type": "pubkeyhash"}, "value": 0.31871793, "n": 1}], "hex": "0100000001e9bc6542579887dffbbbbc3aba6760e540bc8a894f5f0473ebdafc94bb9f5a25010000006b483045022100e4d4c9ea3e25ced1010b092b3236f26900600e6c6c6941ee277b9e556f59e767022042f0fc9192fd8604dd907b3adffcf6a59d98282ce846bc9778028a198e3927a20121025eecd93795c069e4c40635bf47e8269061b72d4e337f4cf51fc1afb1834d21b0ffffffff0213a17600000000001976a914553f6c2e518c47b825d190dfd174d1ee5fefb49a88ac3153e601000000001976a914824fa1bc4fcb157e3c71abe0b38bf087e5ac6ec988ac00000000", "vin": [{"sequence": 4294967295, "scriptSig": {"hex": "483045022100e4d4c9ea3e25ced1010b092b3236f26900600e6c6c6941ee277b9e556f59e767022042f0fc9192fd8604dd907b3adffcf6a59d98282ce846bc9778028a198e3927a20121025eecd93795c069e4c40635bf47e8269061b72d4e337f4cf51fc1afb1834d21b0", "asm": "3045022100e4d4c9ea3e25ced1010b092b3236f26900600e6c6c6941ee277b9e556f59e767022042f0fc9192fd8604dd907b3adffcf6a59d98282ce846bc9778028a198e3927a2[ALL] 025eecd93795c069e4c40635bf47e8269061b72d4e337f4cf51fc1afb1834d21b0"}, "vout": 1, "txid": "255a9fbb94fcdaeb73045f4f898abc40e56067ba3abcbbfbdf8798574265bce9"}], "txid": "4fcfeea77304ba68bc15a83bfe5712cf6d6c9814b05336cf4b246fd6bb35447b", "blocktime": 1537871767, "version": 1, "confirmations": 11492, "time": 1537871767, "locktime": 0, "vsize": 226, "size": 226}