{"hash": "4fd688a1e9d127479e127048477a2a6f9e3acdd915b456b0526f993a503de2e4", "blockhash": "0000000000000000000e13cef7c366c0283d82e591d1acd082e914b08063cdf1", "vout": [{"scriptPubKey": {"reqSigs": 1, "hex": "76a914e8cea30989bd15530f819b766684b00dc7ba7cfa88ac", "addresses": ["1NDyJtNTjmwk5xPNhjgAMu4HDHigtobu1s"], "asm": "OP_DUP OP_HASH160 e8cea30989bd15530f819b766684b00dc7ba7cfa OP_EQUALVERIFY OP_CHECKSIG", "type": "pubkeyhash"}, "value": 6.83730696, "n": 0}, {"scriptPubKey": {"reqSigs": 1, "hex": "76a914bf1b836ab351621ce1989835672551323e88252988ac", "addresses": ["1JRV2JRmCQZzSMH7bziWTP5zDegTnbuCx8"], "asm": "OP_DUP OP_HASH160 bf1b836ab351621ce1989835672551323e882529 OP_EQUALVERIFY OP_CHECKSIG", "type": "pubkeyhash"}, "value": 0.00766657, "n": 1}], "hex": "0200000010024f1b31aaf6d4fe31fcfa9dd6022bdf531c7cb4fc77ed76d24c7446266c7bf7010000006a4730440220700d62a7b19f5f45e6b690e1d63d4d986ac5c7f74fde2feb309058eec2373085022067d7e602102e96e069ee04ed875ecd4cf5c0d192608578638b8a7c1ee2169896012103fe681a2cfe2c9fc92a0bc2d2c5b546111b250637e92725e710aff2a7e747fc55feffffff20b1101dfaad57186e38dc1cda327930b66f5ca519ba3df29c8dabd001920f26440000006b483045022100d6c4d8762ae078bff0e25ff08da8c6f7fa5dfeb453a39e81bc8ffbeddea1628d022009a348e379ba27800a1f83f1c0d482a508a538cc77abf5737e69eb8fb5a052fe012103819a4cba01becd225dc8439becb54c0860e16918d3d31f7621b569c4e4c90a89feffffff20b1101dfaad57186e38dc1cda327930b66f5ca519ba3df29c8dabd001920f265e0000006a47304402204fd566512b2a105e80bcbf55d70d95af82716a9563904bbbc3da652554b607d4022043ab2d0952241d659483829eff7df2c783442dbd9fc976be98d038e5bf5a18e1012103819a4cba01becd225dc8439becb54c0860e16918d3d31f7621b569c4e4c90a89feffffff20b1101dfaad57186e38dc1cda327930b66f5ca519ba3df29c8dabd001920f267f0000006a47304402203c1d21c1dc2317f726fbe09cdfc3ca1c01a2aa5208c322e80105c164cf244ff802204f2196f667643dd395b8717e125e5f9efc23ef7683e6967e2bb2270c4714b9bc012102ce806777cc31c8243a876608b26440e3d4f8e51b955ebdf2e469bf5e0ea4f298feffffff218c626dee72ec8c0d9880513c2a121b0ae5d8798e7e26a112739a619907eb7b020000006a47304402202d9dc2e09717de4cfdb72fddede763dfe753b8cdbabb762000880b30b36bf1de022036e85df203f5f4a3b56e4ff9ef0c78331c59c8a5b271337082102c995dfc1e7e012102afe1ea95041d68144b35a617ddc5ed3fa1677952793bf1e67ff1f96c846d5a3efeffffff4286c00b820d66a6ed865cfbfb4b40db591660607cc7b4414aedc556f02e801a000000006b483045022100d84641a186dd55b6728cac637b60cba49cc6c512ee63f97426abbe76a3d757560220443ab68020f24c7a3d913e039b2d5c45315522d09cc9a4b61656b32e41e6b769012103a24ebabcebd2ae809bc207c8a13fe56a34bab8e7d3b19afab3480b16f0f54efbfeffffff42adfe4d4267cca7d9100e2243f7c141183c15b486c92db0be08a5e1c9e8149e010000006b48304502210085a9ef243129a08add5af92a0be5c2e7dc677a961e35f9e24f4cf4471ac401de0220737804aa94fbbebae538277591f9a33a5fdf5ea7b47143f1a1aa85e1db909aaf01210333e329386453116f75e4832cccc66e2d2c0607506532b9bf48fa1a6aac766285feffffff52e40d2664d6732251233eeca3e72de576ad2fa9b8700eae251db493f2134692000000006a4730440220546b9d505610b8eabb477a26dbd49aa18cf0e68d0d266df5b3b515fb081c0dc9022079d975462a679dd50d69dfe27c93f56664588dff52ea5995909b1b1b1a8c0ed001210244537608615255dc95f095a8c8aad5e63c176ef9e92a035374b245dc847ec299feffffff594d63f903940386a5aca579c1cdaca9aabd6b387a3301a2096b205105a31222020000006a47304402204b707e7dcbba85765f9e9c1affc558a3f5535ced9de46e3195f0201a24fe6ddf022045a9d3baef39597b0d6831be29d722a8ba04454b5a735ce8de530282e983f1c40121025032ad1ac11a0eaa27ba1fd2a334a22546a0ecf97b6d5b62e06c44327ac987bcfeffffff5fc36f292a054395dd38dcf9a745d2b7bb7f857524c40c5ae3649ec18b619a2e010000006b483045022100c525a7e60cfb93387997c228354dd38a0bf210af5bedca9be41d92b8ad3833eb02206ca934391182d6e3e07abc5f7a3217d22188a026b908a99c5b4ca90d72941a6d012103fe681a2cfe2c9fc92a0bc2d2c5b546111b250637e92725e710aff2a7e747fc55feffffff89f56c24dbc910a076bf1b5d79e56b6aadecb63b761a3014f720a2df923f7f6a000000006b4830450221008ef73f79f2631c26391138858b90923b8635964800d07aca0d707ff5cd49429a022058946068573fb11c045eae858141d880ff521071bb3dca8fb79b545d70039cec012102502c5f438d92c57f131e4810e8c6861e6b128481694d39175f2c6087a3e56082feffffff9cf05997c8289f2f31007c438454af9f728eb1c7d4a7686148040157868b978b110000006b483045022100be52da6a6801c2a82a76739d239af0f7781eaef7872fa5a2b19b2f2a616f283102204af5e4b7119a1e258312810fa6b666b58b9035592f981531c4b30303ded44cda01210393e7534a8bf49b1c1734c26e5651a2dac9c32e35854d5f88b4bab7d710efa9f5feffffffbed2c0551fe623842789f52c5ee7ce36b892787a9d36c09d3c04075e7219f6ed010000006a473044022031539cdd31235253ecb788b375c5943ddaa1dbaf2ee186f912150040cf994c790220184840a04bce0e56447a0f77cf9fd5af00a488e9898b264a25f69e5e1256ebcd012102db024afe49badb146e6ca73e32e1ac4186990975041ae68703a855f395697245feffffffc166470648155f7ec613d681850f78e825e696c75fdb9ffe334de78728fc2a19000000006a4730440220789013f0f4362fd63d48b27db5859f935bf0b41010ba4c948857348128e6a1ad0220187047a2bea682663ffcf7de7b8091d810b95a1bf6c4764b7a7cd0616b2311d401210399ea9768f630683177ccaf525d360c72b29e6142b4038d189361bcf4d52c230cfeffffffe909dbbfeb5684888db66efdb0383cdb8237ce3c87b5db73f34f74817909a292060000006b483045022100d8bfb09f1a4f54278486aa6b02b669a878f2f930e70b9079704d7a4158c08bbd02200756e46a08bf01e54f173cca8d6fe4fbb888120384490e7253a5ca65e9e15e4e0121020f00ef7b2e18cb09b24b01d76cd6754481878abdf656830db1e2245e2f668709fefffffff1266df136f92d19e26e8f7cdc8636f2aac94f6a20e2d7d20b9ae75543effa9e000000006b4830450221009841b1d5f77da4dc6a21b8d355c083e19d3e498d6b9bd4cd519528459a6ba78602204b6ed534a0ce2ff7cf773ab595ed46aa9cf7908cf67bbe238aae9cd3d1f1032601210333e329386453116f75e4832cccc66e2d2c0607506532b9bf48fa1a6aac766285feffffff0208e7c028000000001976a914e8cea30989bd15530f819b766684b00dc7ba7cfa88acc1b20b00000000001976a914bf1b836ab351621ce1989835672551323e88252988ac10490800", "vin": [{"sequence": 4294967294, "scriptSig": {"hex": "4730440220700d62a7b19f5f45e6b690e1d63d4d986ac5c7f74fde2feb309058eec2373085022067d7e602102e96e069ee04ed875ecd4cf5c0d192608578638b8a7c1ee2169896012103fe681a2cfe2c9fc92a0bc2d2c5b546111b250637e92725e710aff2a7e747fc55", "asm": "30440220700d62a7b19f5f45e6b690e1d63d4d986ac5c7f74fde2feb309058eec2373085022067d7e602102e96e069ee04ed875ecd4cf5c0d192608578638b8a7c1ee2169896[ALL] 03fe681a2cfe2c9fc92a0bc2d2c5b546111b250637e92725e710aff2a7e747fc55"}, "vout": 1, "txid": "f77b6c2646744cd276ed77fcb47c1c53df2b02d69dfafc31fed4f6aa311b4f02"}, {"sequence": 4294967294, "scriptSig": {"hex": "483045022100d6c4d8762ae078bff0e25ff08da8c6f7fa5dfeb453a39e81bc8ffbeddea1628d022009a348e379ba27800a1f83f1c0d482a508a538cc77abf5737e69eb8fb5a052fe012103819a4cba01becd225dc8439becb54c0860e16918d3d31f7621b569c4e4c90a89", "asm": "3045022100d6c4d8762ae078bff0e25ff08da8c6f7fa5dfeb453a39e81bc8ffbeddea1628d022009a348e379ba27800a1f83f1c0d482a508a538cc77abf5737e69eb8fb5a052fe[ALL] 03819a4cba01becd225dc8439becb54c0860e16918d3d31f7621b569c4e4c90a89"}, "vout": 68, "txid": "260f9201d0ab8d9cf23dba19a55c6fb6307932da1cdc386e1857adfa1d10b120"}, {"sequence": 4294967294, "scriptSig": {"hex": "47304402204fd566512b2a105e80bcbf55d70d95af82716a9563904bbbc3da652554b607d4022043ab2d0952241d659483829eff7df2c783442dbd9fc976be98d038e5bf5a18e1012103819a4cba01becd225dc8439becb54c0860e16918d3d31f7621b569c4e4c90a89", "asm": "304402204fd566512b2a105e80bcbf55d70d95af82716a9563904bbbc3da652554b607d4022043ab2d0952241d659483829eff7df2c783442dbd9fc976be98d038e5bf5a18e1[ALL] 03819a4cba01becd225dc8439becb54c0860e16918d3d31f7621b569c4e4c90a89"}, "vout": 94, "txid": "260f9201d0ab8d9cf23dba19a55c6fb6307932da1cdc386e1857adfa1d10b120"}, {"sequence": 4294967294, "scriptSig": {"hex": "47304402203c1d21c1dc2317f726fbe09cdfc3ca1c01a2aa5208c322e80105c164cf244ff802204f2196f667643dd395b8717e125e5f9efc23ef7683e6967e2bb2270c4714b9bc012102ce806777cc31c8243a876608b26440e3d4f8e51b955ebdf2e469bf5e0ea4f298", "asm": "304402203c1d21c1dc2317f726fbe09cdfc3ca1c01a2aa5208c322e80105c164cf244ff802204f2196f667643dd395b8717e125e5f9efc23ef7683e6967e2bb2270c4714b9bc[ALL] 02ce806777cc31c8243a876608b26440e3d4f8e51b955ebdf2e469bf5e0ea4f298"}, "vout": 127, "txid": "260f9201d0ab8d9cf23dba19a55c6fb6307932da1cdc386e1857adfa1d10b120"}, {"sequence": 4294967294, "scriptSig": {"hex": "47304402202d9dc2e09717de4cfdb72fddede763dfe753b8cdbabb762000880b30b36bf1de022036e85df203f5f4a3b56e4ff9ef0c78331c59c8a5b271337082102c995dfc1e7e012102afe1ea95041d68144b35a617ddc5ed3fa1677952793bf1e67ff1f96c846d5a3e", "asm": "304402202d9dc2e09717de4cfdb72fddede763dfe753b8cdbabb762000880b30b36bf1de022036e85df203f5f4a3b56e4ff9ef0c78331c59c8a5b271337082102c995dfc1e7e[ALL] 02afe1ea95041d68144b35a617ddc5ed3fa1677952793bf1e67ff1f96c846d5a3e"}, "vout": 2, "txid": "7beb0799619a7312a1267e8e79d8e50a1b122a3c5180980d8cec72ee6d628c21"}, {"sequence": 4294967294, "scriptSig": {"hex": "483045022100d84641a186dd55b6728cac637b60cba49cc6c512ee63f97426abbe76a3d757560220443ab68020f24c7a3d913e039b2d5c45315522d09cc9a4b61656b32e41e6b769012103a24ebabcebd2ae809bc207c8a13fe56a34bab8e7d3b19afab3480b16f0f54efb", "asm": "3045022100d84641a186dd55b6728cac637b60cba49cc6c512ee63f97426abbe76a3d757560220443ab68020f24c7a3d913e039b2d5c45315522d09cc9a4b61656b32e41e6b769[ALL] 03a24ebabcebd2ae809bc207c8a13fe56a34bab8e7d3b19afab3480b16f0f54efb"}, "vout": 0, "txid": "1a802ef056c5ed4a41b4c77c60601659db404bfbfb5c86eda6660d820bc08642"}, {"sequence": 4294967294, "scriptSig": {"hex": "48304502210085a9ef243129a08add5af92a0be5c2e7dc677a961e35f9e24f4cf4471ac401de0220737804aa94fbbebae538277591f9a33a5fdf5ea7b47143f1a1aa85e1db909aaf01210333e329386453116f75e4832cccc66e2d2c0607506532b9bf48fa1a6aac766285", "asm": "304502210085a9ef243129a08add5af92a0be5c2e7dc677a961e35f9e24f4cf4471ac401de0220737804aa94fbbebae538277591f9a33a5fdf5ea7b47143f1a1aa85e1db909aaf[ALL] 0333e329386453116f75e4832cccc66e2d2c0607506532b9bf48fa1a6aac766285"}, "vout": 1, "txid": "9e14e8c9e1a508beb02dc986b4153c1841c1f743220e10d9a7cc67424dfead42"}, {"sequence": 4294967294, "scriptSig": {"hex": "4730440220546b9d505610b8eabb477a26dbd49aa18cf0e68d0d266df5b3b515fb081c0dc9022079d975462a679dd50d69dfe27c93f56664588dff52ea5995909b1b1b1a8c0ed001210244537608615255dc95f095a8c8aad5e63c176ef9e92a035374b245dc847ec299", "asm": "30440220546b9d505610b8eabb477a26dbd49aa18cf0e68d0d266df5b3b515fb081c0dc9022079d975462a679dd50d69dfe27c93f56664588dff52ea5995909b1b1b1a8c0ed0[ALL] 0244537608615255dc95f095a8c8aad5e63c176ef9e92a035374b245dc847ec299"}, "vout": 0, "txid": "924613f293b41d25ae0e70b8a92fad76e52de7a3ec3e23512273d664260de452"}, {"sequence": 4294967294, "scriptSig": {"hex": "47304402204b707e7dcbba85765f9e9c1affc558a3f5535ced9de46e3195f0201a24fe6ddf022045a9d3baef39597b0d6831be29d722a8ba04454b5a735ce8de530282e983f1c40121025032ad1ac11a0eaa27ba1fd2a334a22546a0ecf97b6d5b62e06c44327ac987bc", "asm": "304402204b707e7dcbba85765f9e9c1affc558a3f5535ced9de46e3195f0201a24fe6ddf022045a9d3baef39597b0d6831be29d722a8ba04454b5a735ce8de530282e983f1c4[ALL] 025032ad1ac11a0eaa27ba1fd2a334a22546a0ecf97b6d5b62e06c44327ac987bc"}, "vout": 2, "txid": "2212a30551206b09a201337a386bbdaaa9accdc179a5aca586039403f9634d59"}, {"sequence": 4294967294, "scriptSig": {"hex": "483045022100c525a7e60cfb93387997c228354dd38a0bf210af5bedca9be41d92b8ad3833eb02206ca934391182d6e3e07abc5f7a3217d22188a026b908a99c5b4ca90d72941a6d012103fe681a2cfe2c9fc92a0bc2d2c5b546111b250637e92725e710aff2a7e747fc55", "asm": "3045022100c525a7e60cfb93387997c228354dd38a0bf210af5bedca9be41d92b8ad3833eb02206ca934391182d6e3e07abc5f7a3217d22188a026b908a99c5b4ca90d72941a6d[ALL] 03fe681a2cfe2c9fc92a0bc2d2c5b546111b250637e92725e710aff2a7e747fc55"}, "vout": 1, "txid": "2e9a618bc19e64e35a0cc42475857fbbb7d245a7f9dc38dd9543052a296fc35f"}, {"sequence": 4294967294, "scriptSig": {"hex": "4830450221008ef73f79f2631c26391138858b90923b8635964800d07aca0d707ff5cd49429a022058946068573fb11c045eae858141d880ff521071bb3dca8fb79b545d70039cec012102502c5f438d92c57f131e4810e8c6861e6b128481694d39175f2c6087a3e56082", "asm": "30450221008ef73f79f2631c26391138858b90923b8635964800d07aca0d707ff5cd49429a022058946068573fb11c045eae858141d880ff521071bb3dca8fb79b545d70039cec[ALL] 02502c5f438d92c57f131e4810e8c6861e6b128481694d39175f2c6087a3e56082"}, "vout": 0, "txid": "6a7f3f92dfa220f714301a763bb6ecad6a6be5795d1bbf76a010c9db246cf589"}, {"sequence": 4294967294, "scriptSig": {"hex": "483045022100be52da6a6801c2a82a76739d239af0f7781eaef7872fa5a2b19b2f2a616f283102204af5e4b7119a1e258312810fa6b666b58b9035592f981531c4b30303ded44cda01210393e7534a8bf49b1c1734c26e5651a2dac9c32e35854d5f88b4bab7d710efa9f5", "asm": "3045022100be52da6a6801c2a82a76739d239af0f7781eaef7872fa5a2b19b2f2a616f283102204af5e4b7119a1e258312810fa6b666b58b9035592f981531c4b30303ded44cda[ALL] 0393e7534a8bf49b1c1734c26e5651a2dac9c32e35854d5f88b4bab7d710efa9f5"}, "vout": 17, "txid": "8b978b86570104486168a7d4c7b18e729faf5484437c00312f9f28c89759f09c"}, {"sequence": 4294967294, "scriptSig": {"hex": "473044022031539cdd31235253ecb788b375c5943ddaa1dbaf2ee186f912150040cf994c790220184840a04bce0e56447a0f77cf9fd5af00a488e9898b264a25f69e5e1256ebcd012102db024afe49badb146e6ca73e32e1ac4186990975041ae68703a855f395697245", "asm": "3044022031539cdd31235253ecb788b375c5943ddaa1dbaf2ee186f912150040cf994c790220184840a04bce0e56447a0f77cf9fd5af00a488e9898b264a25f69e5e1256ebcd[ALL] 02db024afe49badb146e6ca73e32e1ac4186990975041ae68703a855f395697245"}, "vout": 1, "txid": "edf619725e07043c9dc0369d7a7892b836cee75e2cf589278423e61f55c0d2be"}, {"sequence": 4294967294, "scriptSig": {"hex": "4730440220789013f0f4362fd63d48b27db5859f935bf0b41010ba4c948857348128e6a1ad0220187047a2bea682663ffcf7de7b8091d810b95a1bf6c4764b7a7cd0616b2311d401210399ea9768f630683177ccaf525d360c72b29e6142b4038d189361bcf4d52c230c", "asm": "30440220789013f0f4362fd63d48b27db5859f935bf0b41010ba4c948857348128e6a1ad0220187047a2bea682663ffcf7de7b8091d810b95a1bf6c4764b7a7cd0616b2311d4[ALL] 0399ea9768f630683177ccaf525d360c72b29e6142b4038d189361bcf4d52c230c"}, "vout": 0, "txid": "192afc2887e74d33fe9fdb5fc796e625e8780f8581d613c67e5f1548064766c1"}, {"sequence": 4294967294, "scriptSig": {"hex": "483045022100d8bfb09f1a4f54278486aa6b02b669a878f2f930e70b9079704d7a4158c08bbd02200756e46a08bf01e54f173cca8d6fe4fbb888120384490e7253a5ca65e9e15e4e0121020f00ef7b2e18cb09b24b01d76cd6754481878abdf656830db1e2245e2f668709", "asm": "3045022100d8bfb09f1a4f54278486aa6b02b669a878f2f930e70b9079704d7a4158c08bbd02200756e46a08bf01e54f173cca8d6fe4fbb888120384490e7253a5ca65e9e15e4e[ALL] 020f00ef7b2e18cb09b24b01d76cd6754481878abdf656830db1e2245e2f668709"}, "vout": 6, "txid": "92a2097981744ff373dbb5873cce3782db3c38b0fd6eb68d888456ebbfdb09e9"}, {"sequence": 4294967294, "scriptSig": {"hex": "4830450221009841b1d5f77da4dc6a21b8d355c083e19d3e498d6b9bd4cd519528459a6ba78602204b6ed534a0ce2ff7cf773ab595ed46aa9cf7908cf67bbe238aae9cd3d1f1032601210333e329386453116f75e4832cccc66e2d2c0607506532b9bf48fa1a6aac766285", "asm": "30450221009841b1d5f77da4dc6a21b8d355c083e19d3e498d6b9bd4cd519528459a6ba78602204b6ed534a0ce2ff7cf773ab595ed46aa9cf7908cf67bbe238aae9cd3d1f10326[ALL] 0333e329386453116f75e4832cccc66e2d2c0607506532b9bf48fa1a6aac766285"}, "vout": 0, "txid": "9efaef4355e79a0bd2d7e2206a4fc9aaf23686dc7c8f6ee2192df936f16d26f1"}], "txid": "4fd688a1e9d127479e127048477a2a6f9e3acdd915b456b0526f993a503de2e4", "blocktime": 1537871767, "version": 2, "confirmations": 11490, "time": 1537871767, "locktime": 542992, "vsize": 2438, "size": 2438}