{"hash": "4fd9bddb807741871515d16acc70f903fc408306b63457af0b48b6155d4b853d", "blockhash": "0000000000000000000dcc0f55137456b1a82d3642486a52398922ac4d620174", "vout": [{"scriptPubKey": {"reqSigs": 1, "hex": "76a91448392c1ac4176a0779e58fab0207ef85a4f19e5a88ac", "addresses": ["17at9DH6rzuqRCFzEsg6pY7GaQXfKwKpee"], "asm": "OP_DUP OP_HASH160 48392c1ac4176a0779e58fab0207ef85a4f19e5a OP_EQUALVERIFY OP_CHECKSIG", "type": "pubkeyhash"}, "value": 0.1316977, "n": 0}, {"scriptPubKey": {"reqSigs": 1, "hex": "76a914e7002088e04a348e866d7a43958f6ffb35cd115188ac", "addresses": ["1N4RF9JNav5ibAGhHjzUXAyRevXs5nYJJd"], "asm": "OP_DUP OP_HASH160 e7002088e04a348e866d7a43958f6ffb35cd1151 OP_EQUALVERIFY OP_CHECKSIG", "type": "pubkeyhash"}, "value": 0.0779651, "n": 1}], "hex": "01000000019bb38e5453d21bb77504cb360a3a311fbc3205ec4be67f4015570df35b0ab355010000006a473044022047fad73164d684dbfe248750f0aa8b3bd399bb2912662102e7b6d58b0bbf67ba02206b37508790a15d28b035ec78d0d22fcc5e1c88db4e620305ed779f27eaf93dff01210207fa9361048723376478583f93510be794116533f0f24cd70c455edb8c7116b7ffffffff026af4c800000000001976a91448392c1ac4176a0779e58fab0207ef85a4f19e5a88ac1ef77600000000001976a914e7002088e04a348e866d7a43958f6ffb35cd115188ac00000000", "vin": [{"sequence": 4294967295, "scriptSig": {"hex": "473044022047fad73164d684dbfe248750f0aa8b3bd399bb2912662102e7b6d58b0bbf67ba02206b37508790a15d28b035ec78d0d22fcc5e1c88db4e620305ed779f27eaf93dff01210207fa9361048723376478583f93510be794116533f0f24cd70c455edb8c7116b7", "asm": "3044022047fad73164d684dbfe248750f0aa8b3bd399bb2912662102e7b6d58b0bbf67ba02206b37508790a15d28b035ec78d0d22fcc5e1c88db4e620305ed779f27eaf93dff[ALL] 0207fa9361048723376478583f93510be794116533f0f24cd70c455edb8c7116b7"}, "vout": 1, "txid": "55b30a5bf30d5715407fe64bec0532bc1f313a0a36cb0475b71bd253548eb39b"}], "txid": "4fd9bddb807741871515d16acc70f903fc408306b63457af0b48b6155d4b853d", "blocktime": 1537870268, "version": 1, "confirmations": 11516, "time": 1537870268, "locktime": 0, "vsize": 225, "size": 225}