{"hash": "4fdda48762f9df4792292330247efe7357d7b631c9f3bfba94d02b18e7391d4d", "blockhash": "0000000000000000001e0dab787dd257d1dbfcb92a98c2207d5e1078be1f4165", "vout": [{"scriptPubKey": {"reqSigs": 1, "hex": "76a914428c22340d06e57b50f54fded46f3389ce71c28488ac", "addresses": ["174sUKEySXQEqEuhJi6J673sqau8kw9q7Y"], "asm": "OP_DUP OP_HASH160 428c22340d06e57b50f54fded46f3389ce71c284 OP_EQUALVERIFY OP_CHECKSIG", "type": "pubkeyhash"}, "value": 0.00878329, "n": 0}, {"scriptPubKey": {"reqSigs": 1, "hex": "76a914aa9c7d910888e490c5ba07d9028bacb8f1f7570188ac", "addresses": ["1GZ7LmA8FkbsfctbXuWivgXDocH7Z8xWpi"], "asm": "OP_DUP OP_HASH160 aa9c7d910888e490c5ba07d9028bacb8f1f75701 OP_EQUALVERIFY OP_CHECKSIG", "type": "pubkeyhash"}, "value": 0.02185662, "n": 1}], "hex": "0100000002d385ba18dbc3bd83c5ac195df6d7da4e87699af8fbdb6fdf8522b99b09450282010000006b483045022100f323f5b1ffaf4d0854188d3675e88e287b8267745614d9cf3a6c400be1b30f9d0220624714d5b52a2618ec12e6fb256367ea6c2aaecf442ea4a628f79ab98f34fce9012103d4769b70bc118a0c8a3542fcdc303cf4553fee57102c1a13e15504285ee1c8b6fdffffffd385ba18dbc3bd83c5ac195df6d7da4e87699af8fbdb6fdf8522b99b09450282020000006a4730440220756081e5db985fb4d4a887f17c50c292e38dbc33c7a64ec1619b5d7855ad25de02207e6a13b36e7447781cca08eba3df5d09c96ccae7af0723da47709c0f4856ebee012102cd14e571511ec996acdb926997f5d28798db866d0699c50fb97f6ed4bd8666a5fdffffff02f9660d00000000001976a914428c22340d06e57b50f54fded46f3389ce71c28488acbe592100000000001976a914aa9c7d910888e490c5ba07d9028bacb8f1f7570188ac12490800", "vin": [{"sequence": 4294967293, "scriptSig": {"hex": "483045022100f323f5b1ffaf4d0854188d3675e88e287b8267745614d9cf3a6c400be1b30f9d0220624714d5b52a2618ec12e6fb256367ea6c2aaecf442ea4a628f79ab98f34fce9012103d4769b70bc118a0c8a3542fcdc303cf4553fee57102c1a13e15504285ee1c8b6", "asm": "3045022100f323f5b1ffaf4d0854188d3675e88e287b8267745614d9cf3a6c400be1b30f9d0220624714d5b52a2618ec12e6fb256367ea6c2aaecf442ea4a628f79ab98f34fce9[ALL] 03d4769b70bc118a0c8a3542fcdc303cf4553fee57102c1a13e15504285ee1c8b6"}, "vout": 1, "txid": "820245099bb92285df6fdbfbf89a69874edad7f65d19acc583bdc3db18ba85d3"}, {"sequence": 4294967293, "scriptSig": {"hex": "4730440220756081e5db985fb4d4a887f17c50c292e38dbc33c7a64ec1619b5d7855ad25de02207e6a13b36e7447781cca08eba3df5d09c96ccae7af0723da47709c0f4856ebee012102cd14e571511ec996acdb926997f5d28798db866d0699c50fb97f6ed4bd8666a5", "asm": "30440220756081e5db985fb4d4a887f17c50c292e38dbc33c7a64ec1619b5d7855ad25de02207e6a13b36e7447781cca08eba3df5d09c96ccae7af0723da47709c0f4856ebee[ALL] 02cd14e571511ec996acdb926997f5d28798db866d0699c50fb97f6ed4bd8666a5"}, "vout": 2, "txid": "820245099bb92285df6fdbfbf89a69874edad7f65d19acc583bdc3db18ba85d3"}], "txid": "4fdda48762f9df4792292330247efe7357d7b631c9f3bfba94d02b18e7391d4d", "blocktime": 1537872475, "version": 1, "confirmations": 11486, "time": 1537872475, "locktime": 542994, "vsize": 373, "size": 373}