{"hash": "db6bf88545dd25a22a1cf30d856aa8036d700336c2f4a40ddfd2004e5331d3d4", "blockhash": "0000000000000000001e0dab787dd257d1dbfcb92a98c2207d5e1078be1f4165", "vout": [{"scriptPubKey": {"reqSigs": 1, "hex": "a914170ef8ea5144eb7997323f2c6e8c848d9f0dfdb687", "addresses": ["33nwQFXVUn3hvTRHEbEwsowRojb1zVn1qo"], "asm": "OP_HASH160 170ef8ea5144eb7997323f2c6e8c848d9f0dfdb6 OP_EQUAL", "type": "scripthash"}, "value": 0.0017423, "n": 0}, {"scriptPubKey": {"reqSigs": 1, "hex": "a9149649ad6d2730bb28020a268d9d80df10a9f74ad487", "addresses": ["3FPfYWwfMfKMGY7fuPHvz2b73RhTNGzsm3"], "asm": "OP_HASH160 9649ad6d2730bb28020a268d9d80df10a9f74ad4 OP_EQUAL", "type": "scripthash"}, "value": 13.87457196, "n": 1}], "hex": "01000000000101696a0b090fd1c6273e199122636d5a63f5f0e4be96432d4ba25509c25a67f79101000000232200207768efcc1e5eb3d28410fac3f45831004c860cc24cddd940a616b34324823fceffffffff0296a802000000000017a914170ef8ea5144eb7997323f2c6e8c848d9f0dfdb687aceab2520000000017a9149649ad6d2730bb28020a268d9d80df10a9f74ad487040047304402203a88cad607b4fd6299f7dfc4849ed4a564f4618445b3dc61c6939f192acd1f810220300cef3b6c82a90b79f9bd4a10f990058bca7aec919ce1fd6ec7690b6a0dd21d01483045022100cb7479c28098a3ed0cbef9fb3b5156e53fd46b3ee57cdc3d6d4dd3c61771ba120220622183240128a43ebca1468a4a0abac986215b1fc9788bbe0cb8178da7cd80c80147522102529d5d1f6733ab45d9d50e07db42c7f6b967ae321c38b726c2247f149959b8262103d0c936a5988dd8421c63240496b723b0ec42400c38b9350e32c2eb4f47d8796952ae00000000", "vin": [{"txinwitness": ["", "304402203a88cad607b4fd6299f7dfc4849ed4a564f4618445b3dc61c6939f192acd1f810220300cef3b6c82a90b79f9bd4a10f990058bca7aec919ce1fd6ec7690b6a0dd21d01", "3045022100cb7479c28098a3ed0cbef9fb3b5156e53fd46b3ee57cdc3d6d4dd3c61771ba120220622183240128a43ebca1468a4a0abac986215b1fc9788bbe0cb8178da7cd80c801", "522102529d5d1f6733ab45d9d50e07db42c7f6b967ae321c38b726c2247f149959b8262103d0c936a5988dd8421c63240496b723b0ec42400c38b9350e32c2eb4f47d8796952ae"], "sequence": 4294967295, "scriptSig": {"hex": "2200207768efcc1e5eb3d28410fac3f45831004c860cc24cddd940a616b34324823fce", "asm": "00207768efcc1e5eb3d28410fac3f45831004c860cc24cddd940a616b34324823fce"}, "vout": 1, "txid": "91f7675ac20955a24b2d4396bee4f0f5635a6d632291193e27c6d10f090b6a69"}], "txid": "4fde1d63197ce50f5d476da8400899a4e8c6c7f8d63a39c463de920e94769b81", "blocktime": 1537872475, "version": 1, "confirmations": 11487, "time": 1537872475, "locktime": 0, "vsize": 206, "size": 371}