{"hash": "4fe278217f2f1edf7792bc827c4103250e12385207d3e66cd031aaf29f36de61", "blockhash": "00000000000000000018f53835495a110e01622372bf6ae95dc86f2b0ab887b0", "vout": [{"scriptPubKey": {"reqSigs": 1, "hex": "76a914dedd85c93e0e6b11ee7f2121f3170e7d69e47a1088ac", "addresses": ["1MKQPFJU64oym3eJym2Uewv53VA3UwSCVw"], "asm": "OP_DUP OP_HASH160 dedd85c93e0e6b11ee7f2121f3170e7d69e47a10 OP_EQUALVERIFY OP_CHECKSIG", "type": "pubkeyhash"}, "value": 0.001569, "n": 0}, {"scriptPubKey": {"reqSigs": 1, "hex": "76a9149f190b44819fbb7be33cb72ec6013b652db9d33788ac", "addresses": ["1FWESbCYux2PEBAJ1GZFD9S9jWwuzQwcmd"], "asm": "OP_DUP OP_HASH160 9f190b44819fbb7be33cb72ec6013b652db9d337 OP_EQUALVERIFY OP_CHECKSIG", "type": "pubkeyhash"}, "value": 0.01357221, "n": 1}], "hex": "0100000001e9f83ce426f4eb2e27cc0fe564c5289d884874246486208ac74944964c6b7a93010000006a473044022011632a8cddc8f147b1f83951ac1a436faa466e7996582d5593033286e53160b502206a007e897ef9bd2d2d3eb081cbe5470d6f167ec4c2f49fdbffb1d962899a9b620121020c5898883d3d96a8bc4f131ed9805fa4f1808356d9160e4749a333fffdc02162ffffffff02e4640200000000001976a914dedd85c93e0e6b11ee7f2121f3170e7d69e47a1088aca5b51400000000001976a9149f190b44819fbb7be33cb72ec6013b652db9d33788ac00000000", "vin": [{"sequence": 4294967295, "scriptSig": {"hex": "473044022011632a8cddc8f147b1f83951ac1a436faa466e7996582d5593033286e53160b502206a007e897ef9bd2d2d3eb081cbe5470d6f167ec4c2f49fdbffb1d962899a9b620121020c5898883d3d96a8bc4f131ed9805fa4f1808356d9160e4749a333fffdc02162", "asm": "3044022011632a8cddc8f147b1f83951ac1a436faa466e7996582d5593033286e53160b502206a007e897ef9bd2d2d3eb081cbe5470d6f167ec4c2f49fdbffb1d962899a9b62[ALL] 020c5898883d3d96a8bc4f131ed9805fa4f1808356d9160e4749a333fffdc02162"}, "vout": 1, "txid": "937a6b4c964449c78a208664247448889d28c564e50fcc272eebf426e43cf8e9"}], "txid": "4fe278217f2f1edf7792bc827c4103250e12385207d3e66cd031aaf29f36de61", "blocktime": 1537870928, "version": 1, "confirmations": 11514, "time": 1537870928, "locktime": 0, "vsize": 225, "size": 225}