{"hash": "949833b59fde08bfbd76cb6054ff04b032076b052dcc55cc1a4545176cc19ffe", "blockhash": "0000000000000000001f76057863aec43deb6fa401d9628bb513d65a8098bfab", "vout": [{"scriptPubKey": {"reqSigs": 1, "hex": "a91421ef960f46b6509fb8e6e986baabb480d4541c2c87", "addresses": ["34nTEcWpDfeiK7dUNyDXszCg9Z7try5JdS"], "asm": "OP_HASH160 21ef960f46b6509fb8e6e986baabb480d4541c2c OP_EQUAL", "type": "scripthash"}, "value": 0.02526517, "n": 0}, {"scriptPubKey": {"reqSigs": 1, "hex": "0014239f4594440069f6306326bfe8b556ecdde3bdb2", "addresses": ["bc1qyw05t9zyqp5lvvrry6l73d2kanw780djw3kxrg"], "asm": "0 239f4594440069f6306326bfe8b556ecdde3bdb2", "type": "witness_v0_keyhash"}, "value": 0.00091377, "n": 1}], "hex": "01000000000101a0514fa81ee60e22e234315c0d384e04746d4b0a5482d32fe2877f9fb22c227a0200000017160014fd5cc64f7665b74b3ea199bf9b5f491d1122881cffffffff02358d26000000000017a91421ef960f46b6509fb8e6e986baabb480d4541c2c87f164010000000000160014239f4594440069f6306326bfe8b556ecdde3bdb20247304402201cd8182572a56bc4237bb5ec74e0c7ed61c83e4f738269b18a2d6cec7c4ccf4602207dd8e2c14f9f8bd10cac2a841c3bd91b6d4c9d36ca7c363ced27747f63ef1691012103d2f16f3efef2952f66ceda40059e4a0f766f9fbcba130eee9b3c0790636eec4700000000", "vin": [{"txinwitness": ["304402201cd8182572a56bc4237bb5ec74e0c7ed61c83e4f738269b18a2d6cec7c4ccf4602207dd8e2c14f9f8bd10cac2a841c3bd91b6d4c9d36ca7c363ced27747f63ef169101", "03d2f16f3efef2952f66ceda40059e4a0f766f9fbcba130eee9b3c0790636eec47"], "sequence": 4294967295, "scriptSig": {"hex": "160014fd5cc64f7665b74b3ea199bf9b5f491d1122881c", "asm": "0014fd5cc64f7665b74b3ea199bf9b5f491d1122881c"}, "vout": 2, "txid": "7a222cb29f7f87e22fd382540a4b6d74044e380d5c3134e2220ee61ea84f51a0"}], "txid": "4fe434e9bedb6feaacbdb030df52965c9d705a286ddff20752aa222f3b6a30a1", "blocktime": 1537873891, "version": 1, "confirmations": 11478, "time": 1537873891, "locktime": 0, "vsize": 165, "size": 246}