{"hash": "e7fef79b1d5a9e2832c7dafc2026e915a75ced4a6f98874bc1e9163f92b3dfca", "blockhash": "00000000000000000004ffacab907a6b429b9a5745fa0b75af4234bf69dd7176", "vout": [{"scriptPubKey": {"reqSigs": 1, "hex": "a914626923d5620e1c8ea66523aca3850ed8136811b087", "addresses": ["3AfN6bZNq8VCda5Yafxdgsu3gPbAxkCboK"], "asm": "OP_HASH160 626923d5620e1c8ea66523aca3850ed8136811b0 OP_EQUAL", "type": "scripthash"}, "value": 0.01, "n": 0}, {"scriptPubKey": {"reqSigs": 1, "hex": "76a914b4bc6f74df1aa15f0a2ceed539a4957ead16fa1088ac", "addresses": ["1HUeNFSersS8PyVmdGEnCju6CUL6KKwZyy"], "asm": "OP_DUP OP_HASH160 b4bc6f74df1aa15f0a2ceed539a4957ead16fa10 OP_EQUALVERIFY OP_CHECKSIG", "type": "pubkeyhash"}, "value": 0.00173345, "n": 1}, {"scriptPubKey": {"reqSigs": 1, "hex": "a914b8a9a8ba8cf965b7df6b05afd948e53c351b2c0d87", "addresses": ["3JXRVxhrk2o9f4w3cQchBLwUeegJBj6BEp"], "asm": "OP_HASH160 b8a9a8ba8cf965b7df6b05afd948e53c351b2c0d OP_EQUAL", "type": "scripthash"}, "value": 2.17887797, "n": 2}, {"scriptPubKey": {"reqSigs": 1, "hex": "a91464bcf533f42ce577651f8827a568ffcec082e0b387", "addresses": ["3AsfrkFjKrq4md5xtBHYcfAfoAhgFcQfHd"], "asm": "OP_HASH160 64bcf533f42ce577651f8827a568ffcec082e0b3 OP_EQUAL", "type": "scripthash"}, "value": 0.15637045, "n": 3}], "hex": "010000000001016eb76c8a5d58842afdc53d188ab1ace950374d1d8b18234782f39e18fde9f19b020000002322002065d416c48a8072e0ac51c2d111eb194f009caef0332446c1bf2097316cf07fa9ffffffff0440420f000000000017a914626923d5620e1c8ea66523aca3850ed8136811b08721a50200000000001976a914b4bc6f74df1aa15f0a2ceed539a4957ead16fa1088ac35b4fc0c0000000017a914b8a9a8ba8cf965b7df6b05afd948e53c351b2c0d87359aee000000000017a91464bcf533f42ce577651f8827a568ffcec082e0b3870400483045022100a0467f618853e013e976305ee8f24f27c0da6c3615bb4589e88ebbe1b5f59c6202206e24a80bb47b5651277d7a95a62fadf43e9b1d6ecf507e305b85ca2f648b6a2a01473044022023ffbac988e3e89f4dd266b2c0dc88f52442b050ecc73b9155eafb69fc2b6e3b022049192b051ebbf856b34c07dd130e1cc405d0e213d2660c58f0baf1b852d7860a0169522102f44abcf9e23c9a460da309ccca56c619c04eed3bde2c2cff5e7d78fbcd980b9c2103c9443cf3047bb6c2c82f1b0c44c36109cdc3d0d601d16d1189a1602bf8d1a0a02103bfe867059274412412e088af5572b92168c2ef495cfe6c9b7a753a009eb37c4853ae00000000", "vin": [{"txinwitness": ["", "3045022100a0467f618853e013e976305ee8f24f27c0da6c3615bb4589e88ebbe1b5f59c6202206e24a80bb47b5651277d7a95a62fadf43e9b1d6ecf507e305b85ca2f648b6a2a01", "3044022023ffbac988e3e89f4dd266b2c0dc88f52442b050ecc73b9155eafb69fc2b6e3b022049192b051ebbf856b34c07dd130e1cc405d0e213d2660c58f0baf1b852d7860a01", "522102f44abcf9e23c9a460da309ccca56c619c04eed3bde2c2cff5e7d78fbcd980b9c2103c9443cf3047bb6c2c82f1b0c44c36109cdc3d0d601d16d1189a1602bf8d1a0a02103bfe867059274412412e088af5572b92168c2ef495cfe6c9b7a753a009eb37c4853ae"], "sequence": 4294967295, "scriptSig": {"hex": "22002065d416c48a8072e0ac51c2d111eb194f009caef0332446c1bf2097316cf07fa9", "asm": "002065d416c48a8072e0ac51c2d111eb194f009caef0332446c1bf2097316cf07fa9"}, "vout": 2, "txid": "9bf1e9fd189ef3824723188b1d4d3750e9acb18a183dc5fd2a84585d8a6cb76e"}], "txid": "4fe5704f61d8a4957b7507ae485b02ce19e773e9e0e152054f603ae528a0823c", "blocktime": 1537875543, "version": 1, "confirmations": 11464, "time": 1537875543, "locktime": 0, "vsize": 280, "size": 471}