{"hash": "4fe76cc171ea612b792507f3b9ac00bdbf6703766e3048edf665a9b96bb937ac", "blockhash": "0000000000000000000e13cef7c366c0283d82e591d1acd082e914b08063cdf1", "vout": [{"scriptPubKey": {"reqSigs": 1, "hex": "a914472edbd27c539bfd070cf9b3cbe83c868d620cfc87", "addresses": ["38BQ2xk8TNk8H8VWBL6nF7fwA4bCRnveBv"], "asm": "OP_HASH160 472edbd27c539bfd070cf9b3cbe83c868d620cfc OP_EQUAL", "type": "scripthash"}, "value": 0.503, "n": 0}, {"scriptPubKey": {"reqSigs": 1, "hex": "a914a3e4383945c3f5ee6cb729e414cc1c4ab3dfbe0887", "addresses": ["3GdbTnkNosDck7tcqPjwQTvDqMuKFGb68N"], "asm": "OP_HASH160 a3e4383945c3f5ee6cb729e414cc1c4ab3dfbe08 OP_EQUAL", "type": "scripthash"}, "value": 0.03589994, "n": 1}], "hex": "0200000001f49791f699c6c3266aa6705beee49a5aebe92e840c733f19320ab2bd06586f6301000000d900473044022007848c7ee09d2f7cf9bb9d0272ba5073350bc455636f3714f9c67b991234f10b0220489929fe1af27662e7c9d52716b39a7adec8b2f10684e83805f69167851d683701473044022011b347efae3e2247394f7043e42a6f181ec81ebbb3468f42f7f53bdb8220031d02202826d13f16cc897111969720c2f5fae4c446f5e04af9e252fe6be4dc5b8c987e0147522103071ea2f6e7e5af0b01e482b84f8e14124e37f119897713bdedd4a86d85aa8406210319ac7f304828d720179de7c08f935623d176cc0a8984affc988e640f5eb069b552aeffffffff026084ff020000000017a914472edbd27c539bfd070cf9b3cbe83c868d620cfc876ac736000000000017a914a3e4383945c3f5ee6cb729e414cc1c4ab3dfbe088700000000", "vin": [{"sequence": 4294967295, "scriptSig": {"hex": "00473044022007848c7ee09d2f7cf9bb9d0272ba5073350bc455636f3714f9c67b991234f10b0220489929fe1af27662e7c9d52716b39a7adec8b2f10684e83805f69167851d683701473044022011b347efae3e2247394f7043e42a6f181ec81ebbb3468f42f7f53bdb8220031d02202826d13f16cc897111969720c2f5fae4c446f5e04af9e252fe6be4dc5b8c987e0147522103071ea2f6e7e5af0b01e482b84f8e14124e37f119897713bdedd4a86d85aa8406210319ac7f304828d720179de7c08f935623d176cc0a8984affc988e640f5eb069b552ae", "asm": "0 3044022007848c7ee09d2f7cf9bb9d0272ba5073350bc455636f3714f9c67b991234f10b0220489929fe1af27662e7c9d52716b39a7adec8b2f10684e83805f69167851d6837[ALL] 3044022011b347efae3e2247394f7043e42a6f181ec81ebbb3468f42f7f53bdb8220031d02202826d13f16cc897111969720c2f5fae4c446f5e04af9e252fe6be4dc5b8c987e[ALL] 522103071ea2f6e7e5af0b01e482b84f8e14124e37f119897713bdedd4a86d85aa8406210319ac7f304828d720179de7c08f935623d176cc0a8984affc988e640f5eb069b552ae"}, "vout": 1, "txid": "636f5806bdb20a32193f730c842ee9eb5a9ae4ee5b70a66a26c3c699f69197f4"}], "txid": "4fe76cc171ea612b792507f3b9ac00bdbf6703766e3048edf665a9b96bb937ac", "blocktime": 1537871767, "version": 2, "confirmations": 11491, "time": 1537871767, "locktime": 0, "vsize": 332, "size": 332}