{"hash": "4feb4cab7c5402dd6add30d8d9f7f1e9a7bff22fdb435c4edc9871bccbfe1533", "blockhash": "0000000000000000000e13cef7c366c0283d82e591d1acd082e914b08063cdf1", "vout": [{"scriptPubKey": {"reqSigs": 1, "hex": "76a914e8cea30989bd15530f819b766684b00dc7ba7cfa88ac", "addresses": ["1NDyJtNTjmwk5xPNhjgAMu4HDHigtobu1s"], "asm": "OP_DUP OP_HASH160 e8cea30989bd15530f819b766684b00dc7ba7cfa OP_EQUALVERIFY OP_CHECKSIG", "type": "pubkeyhash"}, "value": 1.18319965, "n": 0}, {"scriptPubKey": {"reqSigs": 1, "hex": "76a914cff5ff2085144b23904cc82bce556c1a50dd525588ac", "addresses": ["1KxbZrPpu72SZvCChEhg4epwtb4m54EsfC"], "asm": "OP_DUP OP_HASH160 cff5ff2085144b23904cc82bce556c1a50dd5255 OP_EQUALVERIFY OP_CHECKSIG", "type": "pubkeyhash"}, "value": 0.00888631, "n": 1}], "hex": "020000000715bf1f3f0b9c5138470ba0f02dff8391ec3e9f79fc38dceea92532f815404935010000006a473044022020fe9d1e8b871513005fc5717067c497bbc84530bfe3b9d6678a11f713e9258a0220765069b28054416189389155dc6396f2543697c35688131c58631433902b9ca1012102e24c80feab08b3e8610518d9f1c515a3fdc14cdcb79858d8a5bb8d89b44d78c2feffffff2750163223eb145c8cb21a62de0f87d44c5f9c3def1f36a0f30c6178c2bca1fa2f0200006b483045022100ed636d675d26de90753b2a65a46314291e80f189e652e76ed1017a5e6b2289d302200fa97901915226b0c18292b26ab1ac66870cdc0b086f848a0da048780847c977012103c820a240520566e635995b7f6c87dd2b09bad75f1d1464fa60cd383f9c93cf8afeffffff515ad69d41c8e91f3feff751c5192942fb146fe77641121b173e8b4f4c86c62d000000006a47304402202bf1738f0dc2be6d28155b8a9428faac291c4ff4b9adb6943d2fc46fdec64e23022040d3d5da8336a089bee3befa318d263bfde67652b2c105c6377c6314758e6923012103893fc31f09b670332e7a104b0b5e5e4dc91a74d2e21efbc56592b344a9ef2086feffffff543e606b7041d62aff741d92160336afdc79f67dde6a8562d7a017a2ee7c87fe010000006b48304502210098273b091c72d99f059301d988a9f2bbed3644b533b962fbf6c2188a263df16e0220770c53f0f5e95932a71e72ad112025c26e4e4ba9d1f95007d2c618491c7bde2b0121039522b12a1e40e4a8fe5984e575774799a0e326aa4980e2a6fd50b7d460df3132feffffff86ef97fb0eeacd9c778c2b516e794e7381469f0269240baa097b2e7b697fd168010000006b483045022100f182aa74d4fd354936d8973da32374ab42917dba74443d23bb47a51099cc7ebc02202a7f2244b2adf9c08e72f2b06e0b52ec20544ec07b61159587295ea0a4c71f360121021f5a1a516305eb1f805172dea163f1980eff28884cc16adf0910ef028ee12fb0feffffffed896fafb3d8da0a96ffb8901656f029776b96d555d3be333c4aa1b7c2d0627d000000006a47304402201548e35741a89333c43023db3a32c1450fdf52ff53c79a4d16d0f29ee3f7a85e02201b74c4189ed65256c2207230bf2e8c46596230cec11aa9442eda3773871bd511012103c0a93b324155502c8152744d4027caa75ebb619afaf9ae226988124618467488fefffffff379e60958a6ca6ca385ebe6a5cbc9b71973bc70a4e39dc63f2727af1459f0cd010000006b483045022100bc6c88b69da76438106fdad49ce8e0d852fc2a87acd2f447f22695621169835202203af35d314e09f97775902c8859fb3d8c0d68d6a3169304453a936122e4155f390121021cd9e70232667ff172e5cdff8878287dd37abe870861b60c9e7238f4abe7db43feffffff025d6b0d07000000001976a914e8cea30989bd15530f819b766684b00dc7ba7cfa88ac378f0d00000000001976a914cff5ff2085144b23904cc82bce556c1a50dd525588ac10490800", "vin": [{"sequence": 4294967294, "scriptSig": {"hex": "473044022020fe9d1e8b871513005fc5717067c497bbc84530bfe3b9d6678a11f713e9258a0220765069b28054416189389155dc6396f2543697c35688131c58631433902b9ca1012102e24c80feab08b3e8610518d9f1c515a3fdc14cdcb79858d8a5bb8d89b44d78c2", "asm": "3044022020fe9d1e8b871513005fc5717067c497bbc84530bfe3b9d6678a11f713e9258a0220765069b28054416189389155dc6396f2543697c35688131c58631433902b9ca1[ALL] 02e24c80feab08b3e8610518d9f1c515a3fdc14cdcb79858d8a5bb8d89b44d78c2"}, "vout": 1, "txid": "35494015f83225a9eedc38fc799f3eec9183ff2df0a00b4738519c0b3f1fbf15"}, {"sequence": 4294967294, "scriptSig": {"hex": "483045022100ed636d675d26de90753b2a65a46314291e80f189e652e76ed1017a5e6b2289d302200fa97901915226b0c18292b26ab1ac66870cdc0b086f848a0da048780847c977012103c820a240520566e635995b7f6c87dd2b09bad75f1d1464fa60cd383f9c93cf8a", "asm": "3045022100ed636d675d26de90753b2a65a46314291e80f189e652e76ed1017a5e6b2289d302200fa97901915226b0c18292b26ab1ac66870cdc0b086f848a0da048780847c977[ALL] 03c820a240520566e635995b7f6c87dd2b09bad75f1d1464fa60cd383f9c93cf8a"}, "vout": 559, "txid": "faa1bcc278610cf3a0361fef3d9c5f4cd4870fde621ab28c5c14eb2332165027"}, {"sequence": 4294967294, "scriptSig": {"hex": "47304402202bf1738f0dc2be6d28155b8a9428faac291c4ff4b9adb6943d2fc46fdec64e23022040d3d5da8336a089bee3befa318d263bfde67652b2c105c6377c6314758e6923012103893fc31f09b670332e7a104b0b5e5e4dc91a74d2e21efbc56592b344a9ef2086", "asm": "304402202bf1738f0dc2be6d28155b8a9428faac291c4ff4b9adb6943d2fc46fdec64e23022040d3d5da8336a089bee3befa318d263bfde67652b2c105c6377c6314758e6923[ALL] 03893fc31f09b670332e7a104b0b5e5e4dc91a74d2e21efbc56592b344a9ef2086"}, "vout": 0, "txid": "2dc6864c4f8b3e171b124176e76f14fb422919c551f7ef3f1fe9c8419dd65a51"}, {"sequence": 4294967294, "scriptSig": {"hex": "48304502210098273b091c72d99f059301d988a9f2bbed3644b533b962fbf6c2188a263df16e0220770c53f0f5e95932a71e72ad112025c26e4e4ba9d1f95007d2c618491c7bde2b0121039522b12a1e40e4a8fe5984e575774799a0e326aa4980e2a6fd50b7d460df3132", "asm": "304502210098273b091c72d99f059301d988a9f2bbed3644b533b962fbf6c2188a263df16e0220770c53f0f5e95932a71e72ad112025c26e4e4ba9d1f95007d2c618491c7bde2b[ALL] 039522b12a1e40e4a8fe5984e575774799a0e326aa4980e2a6fd50b7d460df3132"}, "vout": 1, "txid": "fe877ceea217a0d762856ade7df679dcaf360316921d74ff2ad641706b603e54"}, {"sequence": 4294967294, "scriptSig": {"hex": "483045022100f182aa74d4fd354936d8973da32374ab42917dba74443d23bb47a51099cc7ebc02202a7f2244b2adf9c08e72f2b06e0b52ec20544ec07b61159587295ea0a4c71f360121021f5a1a516305eb1f805172dea163f1980eff28884cc16adf0910ef028ee12fb0", "asm": "3045022100f182aa74d4fd354936d8973da32374ab42917dba74443d23bb47a51099cc7ebc02202a7f2244b2adf9c08e72f2b06e0b52ec20544ec07b61159587295ea0a4c71f36[ALL] 021f5a1a516305eb1f805172dea163f1980eff28884cc16adf0910ef028ee12fb0"}, "vout": 1, "txid": "68d17f697b2e7b09aa0b2469029f4681734e796e512b8c779ccdea0efb97ef86"}, {"sequence": 4294967294, "scriptSig": {"hex": "47304402201548e35741a89333c43023db3a32c1450fdf52ff53c79a4d16d0f29ee3f7a85e02201b74c4189ed65256c2207230bf2e8c46596230cec11aa9442eda3773871bd511012103c0a93b324155502c8152744d4027caa75ebb619afaf9ae226988124618467488", "asm": "304402201548e35741a89333c43023db3a32c1450fdf52ff53c79a4d16d0f29ee3f7a85e02201b74c4189ed65256c2207230bf2e8c46596230cec11aa9442eda3773871bd511[ALL] 03c0a93b324155502c8152744d4027caa75ebb619afaf9ae226988124618467488"}, "vout": 0, "txid": "7d62d0c2b7a14a3c33bed355d5966b7729f0561690b8ff960adad8b3af6f89ed"}, {"sequence": 4294967294, "scriptSig": {"hex": "483045022100bc6c88b69da76438106fdad49ce8e0d852fc2a87acd2f447f22695621169835202203af35d314e09f97775902c8859fb3d8c0d68d6a3169304453a936122e4155f390121021cd9e70232667ff172e5cdff8878287dd37abe870861b60c9e7238f4abe7db43", "asm": "3045022100bc6c88b69da76438106fdad49ce8e0d852fc2a87acd2f447f22695621169835202203af35d314e09f97775902c8859fb3d8c0d68d6a3169304453a936122e4155f39[ALL] 021cd9e70232667ff172e5cdff8878287dd37abe870861b60c9e7238f4abe7db43"}, "vout": 1, "txid": "cdf05914af27273fc69de3a470bc7319b7c9cba5e6eb85a36ccaa65809e679f3"}], "txid": "4feb4cab7c5402dd6add30d8d9f7f1e9a7bff22fdb435c4edc9871bccbfe1533", "blocktime": 1537871767, "version": 2, "confirmations": 11490, "time": 1537871767, "locktime": 542992, "vsize": 1111, "size": 1111}