{"hash": "3f812e0a9bf76477d66fbb12558b536dc108b2a8289e5b7f8eee4d754b4e4a14", "blockhash": "0000000000000000001e0dab787dd257d1dbfcb92a98c2207d5e1078be1f4165", "vout": [{"scriptPubKey": {"reqSigs": 1, "hex": "0014261e9b4d9fae7ccc10f5c34671cd4380f3db2a68", "addresses": ["bc1qyc0fknvl4e7vcy84cdr8rn2rsreak2ngv7x2pp"], "asm": "0 261e9b4d9fae7ccc10f5c34671cd4380f3db2a68", "type": "witness_v0_keyhash"}, "value": 0.00048622, "n": 0}, {"scriptPubKey": {"reqSigs": 1, "hex": "a914888e7d93c9052ee5cb6c7d5e5d5317673150035787", "addresses": ["3E94X3n8xJvwg8i11nLGvDMjiJXRkTvyVn"], "asm": "OP_HASH160 888e7d93c9052ee5cb6c7d5e5d53176731500357 OP_EQUAL", "type": "scripthash"}, "value": 0.01250797, "n": 1}], "hex": "010000000001015bc62f40a45a70dbc10eef134b3e4d257c2562bc6fde8dca809a8f23d01daac3000000001716001459741fd2d8077a57e9caba5fe311477d06174237ffffffff02eebd000000000000160014261e9b4d9fae7ccc10f5c34671cd4380f3db2a68ed1513000000000017a914888e7d93c9052ee5cb6c7d5e5d531767315003578702483045022100aaeab62c77ae0cf7c5d5c4e27ba80b72326be80fb71fc799a85b6379811ba00f02203e1ac9077d9c3fbd25182d5f412aaaf743a9dd6371f2345981b74ac5752f22a40121033527bc6512628a3a8ffe37e67b3a356ef5999396d772733e8904a1b3bbd961d300000000", "vin": [{"txinwitness": ["3045022100aaeab62c77ae0cf7c5d5c4e27ba80b72326be80fb71fc799a85b6379811ba00f02203e1ac9077d9c3fbd25182d5f412aaaf743a9dd6371f2345981b74ac5752f22a401", "033527bc6512628a3a8ffe37e67b3a356ef5999396d772733e8904a1b3bbd961d3"], "sequence": 4294967295, "scriptSig": {"hex": "16001459741fd2d8077a57e9caba5fe311477d06174237", "asm": "001459741fd2d8077a57e9caba5fe311477d06174237"}, "vout": 0, "txid": "c3aa1dd0238f9a80ca8dde6fbc62257c254d3e4b13ef0ec1db705aa4402fc65b"}], "txid": "4ff24cc335c87e995d1256f5e2c85cd1cb4db8dd946fbf3d5b4a08c5466b204e", "blocktime": 1537872475, "version": 1, "confirmations": 11486, "time": 1537872475, "locktime": 0, "vsize": 165, "size": 247}