{"hash": "4ff31856662a6793aebd3fc918433094dfbcbf4bb1851dbb72166fe30c94a4fa", "blockhash": "00000000000000000017f5eb5941039fbcee6240d03bc1f2f8e35350df66a1d8", "vout": [{"scriptPubKey": {"reqSigs": 1, "hex": "76a9147c1cd362a6b8628b9fee6062400a8d6ebbc9cf8188ac", "addresses": ["1CKFKdjjDsKzXgHqUXmk1NAyjFRSejm3VV"], "asm": "OP_DUP OP_HASH160 7c1cd362a6b8628b9fee6062400a8d6ebbc9cf81 OP_EQUALVERIFY OP_CHECKSIG", "type": "pubkeyhash"}, "value": 0.22712729, "n": 0}, {"scriptPubKey": {"reqSigs": 1, "hex": "76a9147aa298ff67a10f2804868f890604f25cb2a7e14588ac", "addresses": ["1CBSDtP9fiPdrTufUmCTuE6CZCi7kd6xXY"], "asm": "OP_DUP OP_HASH160 7aa298ff67a10f2804868f890604f25cb2a7e145 OP_EQUALVERIFY OP_CHECKSIG", "type": "pubkeyhash"}, "value": 0.235, "n": 1}], "hex": "0100000001539cf9e29f8102c8779c1f4652a04f093a1e9e54616f56fa4509a60622caa920010000006a473044022071d4ef9256f17cd25af3ff8c13ba6de787bb1ddae3310dca8d685e161b5853f20220242731f214fa0d2883ee11f09dceace423ad640a45a0ef2b4324ccb54ec5456e01210293b380f7d89b77caa8c8d9371699ea56f405d38b0c876d72132ec73ee60387e2fdffffff0299915a01000000001976a9147c1cd362a6b8628b9fee6062400a8d6ebbc9cf8188ace0946601000000001976a9147aa298ff67a10f2804868f890604f25cb2a7e14588ac15490800", "vin": [{"sequence": 4294967293, "scriptSig": {"hex": "473044022071d4ef9256f17cd25af3ff8c13ba6de787bb1ddae3310dca8d685e161b5853f20220242731f214fa0d2883ee11f09dceace423ad640a45a0ef2b4324ccb54ec5456e01210293b380f7d89b77caa8c8d9371699ea56f405d38b0c876d72132ec73ee60387e2", "asm": "3044022071d4ef9256f17cd25af3ff8c13ba6de787bb1ddae3310dca8d685e161b5853f20220242731f214fa0d2883ee11f09dceace423ad640a45a0ef2b4324ccb54ec5456e[ALL] 0293b380f7d89b77caa8c8d9371699ea56f405d38b0c876d72132ec73ee60387e2"}, "vout": 1, "txid": "20a9ca2206a60945fa566f61549e1e3a094fa052461f9c77c802819fe2f99c53"}], "txid": "4ff31856662a6793aebd3fc918433094dfbcbf4bb1851dbb72166fe30c94a4fa", "blocktime": 1537874412, "version": 1, "confirmations": 11468, "time": 1537874412, "locktime": 542997, "vsize": 225, "size": 225}