{"hash": "4ff5d56d19344f26892d3e3844c733be841887c8b3012e960f59150c7ed7f9bb", "blockhash": "0000000000000000001cda96e906b7601b7a6fb1a3b62bca570a9e5d8f4b3de1", "vout": [{"scriptPubKey": {"reqSigs": 1, "hex": "76a914bdbd477fa3ceb5296014841969df8205a7c360de88ac", "addresses": ["1JJFTcUfme2kYS8pxEGz77PWCouetvucax"], "asm": "OP_DUP OP_HASH160 bdbd477fa3ceb5296014841969df8205a7c360de OP_EQUALVERIFY OP_CHECKSIG", "type": "pubkeyhash"}, "value": 0.00443058, "n": 0}, {"scriptPubKey": {"reqSigs": 1, "hex": "a91401f090920f18c6cc803dd7d20f6179d616fb837c87", "addresses": ["31sGnTykSb9SkeeEAE5z2Eqw2JcqbtKNW8"], "asm": "OP_HASH160 01f090920f18c6cc803dd7d20f6179d616fb837c OP_EQUAL", "type": "scripthash"}, "value": 0.00570057, "n": 1}], "hex": "010000000123761528cd761e7c5162ed06ec73e81b3ea3aae90f999357891c917078a01dd4000000006b4830450221008d5eda0125996024f89fe8c4cf207afa13d9f87a6139003ee14e8ee62ca1cae502202a385d6235da50a14f25089536b41df38b9138b3774800072f69f6dc5b11ade60121030659a82b5d1185dc6ed53689682520f063e2d4bac0704e9ef397dda03c2cf140ffffffff02b2c20600000000001976a914bdbd477fa3ceb5296014841969df8205a7c360de88acc9b208000000000017a91401f090920f18c6cc803dd7d20f6179d616fb837c8700000000", "vin": [{"sequence": 4294967295, "scriptSig": {"hex": "4830450221008d5eda0125996024f89fe8c4cf207afa13d9f87a6139003ee14e8ee62ca1cae502202a385d6235da50a14f25089536b41df38b9138b3774800072f69f6dc5b11ade60121030659a82b5d1185dc6ed53689682520f063e2d4bac0704e9ef397dda03c2cf140", "asm": "30450221008d5eda0125996024f89fe8c4cf207afa13d9f87a6139003ee14e8ee62ca1cae502202a385d6235da50a14f25089536b41df38b9138b3774800072f69f6dc5b11ade6[ALL] 030659a82b5d1185dc6ed53689682520f063e2d4bac0704e9ef397dda03c2cf140"}, "vout": 0, "txid": "d41da07870911c895793990fe9aaa33e1be873ec06ed62517c1e76cd28157623"}], "txid": "4ff5d56d19344f26892d3e3844c733be841887c8b3012e960f59150c7ed7f9bb", "blocktime": 1537873282, "version": 1, "confirmations": 11485, "time": 1537873282, "locktime": 0, "vsize": 224, "size": 224}