{"hash": "4ff660abf5319b2ce6041b5d53f02775881b072996c418b208578a971ec8e241", "blockhash": "00000000000000000017f5eb5941039fbcee6240d03bc1f2f8e35350df66a1d8", "vout": [{"scriptPubKey": {"reqSigs": 1, "hex": "76a914250a2afcd873bcb0b3417980340abf01ebce99c488ac", "addresses": ["14NrBaUpYmjGFGPG2gukReV45MCsT51WwH"], "asm": "OP_DUP OP_HASH160 250a2afcd873bcb0b3417980340abf01ebce99c4 OP_EQUALVERIFY OP_CHECKSIG", "type": "pubkeyhash"}, "value": 0.01615173, "n": 0}, {"scriptPubKey": {"reqSigs": 1, "hex": "a914271b76ce941352ac7f01854ab2b77b608c716f9287", "addresses": ["35FoBGEopgYQM2CU5Dh8fFWTRcs4a7t89q"], "asm": "OP_HASH160 271b76ce941352ac7f01854ab2b77b608c716f92 OP_EQUAL", "type": "scripthash"}, "value": 0.00363565, "n": 1}], "hex": "0200000002d19d7432eb6e8f63a0246f1fa62dd997303d1620fa60ebf8270659a1cef91ceb010000006a47304402205b7f285270851a0cd03f9ad959cb7091efc51a2fedd48bfb3e838874f441e2be022071f04fb0c6c5eca3ce84c435c3f060e45d15dbbecdf57324bded73e9a1b76fa5012102925c92173b6e9c644d579612c33d436ffb123fe0bbc466ab004b61ae7d1f91b0fefffffff008733839769053df9a1b02145d0e9687a92e4d099ed82bcbaac0899f85a158010000006a47304402200f998a3c3bc16a2fa15864115e837b1cf4e49c0cb620d39fbe6bb7d8d332f8c5022005e9e26b2e76c12c9a1a5c9e953a35160afcbdaf2b664cf5c4b96e5848a040b1012103a71d3970e6cd2aedff4087e1e26518429f1aa288e2a74d77a9d6cae8f16c51b0feffffff0245a51800000000001976a914250a2afcd873bcb0b3417980340abf01ebce99c488ac2d8c05000000000017a914271b76ce941352ac7f01854ab2b77b608c716f928715490800", "vin": [{"sequence": 4294967294, "scriptSig": {"hex": "47304402205b7f285270851a0cd03f9ad959cb7091efc51a2fedd48bfb3e838874f441e2be022071f04fb0c6c5eca3ce84c435c3f060e45d15dbbecdf57324bded73e9a1b76fa5012102925c92173b6e9c644d579612c33d436ffb123fe0bbc466ab004b61ae7d1f91b0", "asm": "304402205b7f285270851a0cd03f9ad959cb7091efc51a2fedd48bfb3e838874f441e2be022071f04fb0c6c5eca3ce84c435c3f060e45d15dbbecdf57324bded73e9a1b76fa5[ALL] 02925c92173b6e9c644d579612c33d436ffb123fe0bbc466ab004b61ae7d1f91b0"}, "vout": 1, "txid": "eb1cf9cea1590627f8eb60fa20163d3097d92da61f6f24a0638f6eeb32749dd1"}, {"sequence": 4294967294, "scriptSig": {"hex": "47304402200f998a3c3bc16a2fa15864115e837b1cf4e49c0cb620d39fbe6bb7d8d332f8c5022005e9e26b2e76c12c9a1a5c9e953a35160afcbdaf2b664cf5c4b96e5848a040b1012103a71d3970e6cd2aedff4087e1e26518429f1aa288e2a74d77a9d6cae8f16c51b0", "asm": "304402200f998a3c3bc16a2fa15864115e837b1cf4e49c0cb620d39fbe6bb7d8d332f8c5022005e9e26b2e76c12c9a1a5c9e953a35160afcbdaf2b664cf5c4b96e5848a040b1[ALL] 03a71d3970e6cd2aedff4087e1e26518429f1aa288e2a74d77a9d6cae8f16c51b0"}, "vout": 1, "txid": "58a1859f89c0aacb2bd89e094d2ea987960e5d14021b9adf53907639387308f0"}], "txid": "4ff660abf5319b2ce6041b5d53f02775881b072996c418b208578a971ec8e241", "blocktime": 1537874412, "version": 2, "confirmations": 11466, "time": 1537874412, "locktime": 542997, "vsize": 370, "size": 370}