{"hash": "547b3b2cb4a690659f78c2f6b7f80ddc9821e7584b08b354039591a2338237c1", "blockhash": "0000000000000000001f0ddff1eddb255c1121bcd4da4f1bc9a0da00cae72433", "vout": [{"scriptPubKey": {"reqSigs": 1, "hex": "a914c6413f2927c7d80eb30593309d7c514b22e3a78687", "addresses": ["3KmHswvvEEi6qbxrkvFdA86bEwtYcDmcMo"], "asm": "OP_HASH160 c6413f2927c7d80eb30593309d7c514b22e3a786 OP_EQUAL", "type": "scripthash"}, "value": 0.01765255, "n": 0}, {"scriptPubKey": {"reqSigs": 1, "hex": "76a914e2e935237afbbfe00bd99aaa81246024105058c788ac", "addresses": ["1Mgo5uCE8xnPyzaSukNvFp2KYQNQKmaVky"], "asm": "OP_DUP OP_HASH160 e2e935237afbbfe00bd99aaa81246024105058c7 OP_EQUALVERIFY OP_CHECKSIG", "type": "pubkeyhash"}, "value": 0.00235091, "n": 1}], "hex": "0200000000010220b3f6989e1ceefc538729bb1712f91745698b9167c45a8bfdf31d52150c9d3400000000171600149fc16d6122b94b49c88b12b406cf309b7bf6f1a2feffffff23970640d0d4828c8e38c297b99756bee093f2e57db8baf88253b8dbc6cfe1c10000000017160014f7789ba85616dc29bde33989ffc9899201d84b9cfeffffff0287ef1a000000000017a914c6413f2927c7d80eb30593309d7c514b22e3a7868753960300000000001976a914e2e935237afbbfe00bd99aaa81246024105058c788ac024830450221009af20851983f117153b137ee523893a8ae81d7c31c02275426b03aef114cf9cd0220414153ea8e756f11499cbb411bf1b46f35339327baa6983277f6120a7e55c4d501210242d014fa503232d45fd5d262f6e5fbd705328fd20f8d166af05b0f9da9758d2d0247304402201921425173bc2018a802578b52fbb73caa6dfd75e145e5b4da3e77cf717ab15102200101ab187ebe8f9a04e96a40bde3f3f56748b8704fb28943446472149e551373012102b7ecb12d70bc1aa9b8091e80c5da252c7253c7eefb6c91f4af2fa09f5d7baad811490800", "vin": [{"txinwitness": ["30450221009af20851983f117153b137ee523893a8ae81d7c31c02275426b03aef114cf9cd0220414153ea8e756f11499cbb411bf1b46f35339327baa6983277f6120a7e55c4d501", "0242d014fa503232d45fd5d262f6e5fbd705328fd20f8d166af05b0f9da9758d2d"], "sequence": 4294967294, "scriptSig": {"hex": "1600149fc16d6122b94b49c88b12b406cf309b7bf6f1a2", "asm": "00149fc16d6122b94b49c88b12b406cf309b7bf6f1a2"}, "vout": 0, "txid": "349d0c15521df3fd8b5ac467918b694517f91217bb298753fcee1c9e98f6b320"}, {"txinwitness": ["304402201921425173bc2018a802578b52fbb73caa6dfd75e145e5b4da3e77cf717ab15102200101ab187ebe8f9a04e96a40bde3f3f56748b8704fb28943446472149e55137301", "02b7ecb12d70bc1aa9b8091e80c5da252c7253c7eefb6c91f4af2fa09f5d7baad8"], "sequence": 4294967294, "scriptSig": {"hex": "160014f7789ba85616dc29bde33989ffc9899201d84b9c", "asm": "0014f7789ba85616dc29bde33989ffc9899201d84b9c"}, "vout": 0, "txid": "c1e1cfc6dbb85382f8bab87de5f293e0be5697b997c2388e8c82d4d040069723"}], "txid": "4ffc6f6dca91a76bdd314ab0d0ee910d197c141283c0c0d871951927204b9a5f", "blocktime": 1537872018, "version": 2, "confirmations": 11489, "time": 1537872018, "locktime": 542993, "vsize": 259, "size": 421}