{"hash": "fde58238a2f0bda3a3874f3e7409833019e2b9c612608e313657d2d8ea50b48b", "blockhash": "0000000000000000000e13cef7c366c0283d82e591d1acd082e914b08063cdf1", "vout": [{"scriptPubKey": {"reqSigs": 1, "hex": "76a914c5e84246b63ca94b9eb8cdab490de9400d36f36c88ac", "addresses": ["1K3SMRSCbqPV6BiCDH5Dta1sBCrXRepFuj"], "asm": "OP_DUP OP_HASH160 c5e84246b63ca94b9eb8cdab490de9400d36f36c OP_EQUALVERIFY OP_CHECKSIG", "type": "pubkeyhash"}, "value": 0.1224, "n": 0}, {"scriptPubKey": {"reqSigs": 1, "hex": "a91469f373fd403efb8ae03cd31d9fc0a6622e1f1dbc87", "addresses": ["3BMEX6ukkFqBiYPTJ6apxM5WKvcW4t1Pv8"], "asm": "OP_HASH160 69f373fd403efb8ae03cd31d9fc0a6622e1f1dbc OP_EQUAL", "type": "scripthash"}, "value": 0.01472292, "n": 1}, {"scriptPubKey": {"reqSigs": 1, "hex": "76a914fde337060a8a59678678d98ab5f52cef58c7af0388ac", "addresses": ["1Q9S9hoxDGybUDhzdam3RjoJjbdN2oFm38"], "asm": "OP_DUP OP_HASH160 fde337060a8a59678678d98ab5f52cef58c7af03 OP_EQUALVERIFY OP_CHECKSIG", "type": "pubkeyhash"}, "value": 0.02400605, "n": 2}, {"scriptPubKey": {"reqSigs": 1, "hex": "a9142009ceae49ac183b7599562a07d575120d1befdf87", "addresses": ["34cRJ7G3eNYpB851ZweooQf4fnsSwz8MGM"], "asm": "OP_HASH160 2009ceae49ac183b7599562a07d575120d1befdf OP_EQUAL", "type": "scripthash"}, "value": 5.96702793, "n": 3}], "hex": "020000000001016f593544d34d9d381cd146bc82848e657f2783ba9977b68b3aaeb67c0352a1fd0200000017160014af35c06fb432e0f3aa4a52a0205d6bc7facc40a3fdffffff0480c4ba00000000001976a914c5e84246b63ca94b9eb8cdab490de9400d36f36c88ac247716000000000017a91469f373fd403efb8ae03cd31d9fc0a6622e1f1dbc875da12400000000001976a914fde337060a8a59678678d98ab5f52cef58c7af0388ac49f690230000000017a9142009ceae49ac183b7599562a07d575120d1befdf870247304402207ded88a629c37bde46ba0e9aed2747ee8f66e1f8fee4d6415ccb324b77a25177022039968cc277ef9e7522572d37e05cfd7d99c4f2c8531d9acb24e032f253c6e772012102699c1de9f4ab00172985a31810d51c5af8032ae75f672e380383dbdd69e8d4720f490800", "vin": [{"txinwitness": ["304402207ded88a629c37bde46ba0e9aed2747ee8f66e1f8fee4d6415ccb324b77a25177022039968cc277ef9e7522572d37e05cfd7d99c4f2c8531d9acb24e032f253c6e77201", "02699c1de9f4ab00172985a31810d51c5af8032ae75f672e380383dbdd69e8d472"], "sequence": 4294967293, "scriptSig": {"hex": "160014af35c06fb432e0f3aa4a52a0205d6bc7facc40a3", "asm": "0014af35c06fb432e0f3aa4a52a0205d6bc7facc40a3"}, "vout": 2, "txid": "fda152037cb6ae3a8bb67799ba83277f658e8482bc46d11c389d4dd34435596f"}], "txid": "50001fdad2e836c4659d1e2707eed2b768a6718dbd297eb1f1efc0cce87fe66a", "blocktime": 1537871767, "version": 2, "confirmations": 11495, "time": 1537871767, "locktime": 542991, "vsize": 234, "size": 315}