{"hash": "50024e765eea8e085edd4d007d6c69b55e8534db6e28c363f9ecd55887dc7e27", "blockhash": "0000000000000000001e0dab787dd257d1dbfcb92a98c2207d5e1078be1f4165", "vout": [{"scriptPubKey": {"reqSigs": 1, "hex": "76a91443a6c3cf1ee1f6ba15bfa1e24e7225ffe4e21d5088ac", "addresses": ["17Ai3t1tuetSgswNSVQowHmBWd3dwJ4ZGF"], "asm": "OP_DUP OP_HASH160 43a6c3cf1ee1f6ba15bfa1e24e7225ffe4e21d50 OP_EQUALVERIFY OP_CHECKSIG", "type": "pubkeyhash"}, "value": 0.00078, "n": 0}, {"scriptPubKey": {"reqSigs": 1, "hex": "76a91442a44edb8d75f6b0c0e2b5fe4a2b427b07e60bf188ac", "addresses": ["175NRz3AZoLMJ7y7RD69hEnv6FyRpwx9Kd"], "asm": "OP_DUP OP_HASH160 42a44edb8d75f6b0c0e2b5fe4a2b427b07e60bf1 OP_EQUALVERIFY OP_CHECKSIG", "type": "pubkeyhash"}, "value": 0.01063654, "n": 1}], "hex": "0100000001401f75840e690eab97a3af18d6d5bc09cd851ec377b2885124d22d3c8ba4909f080000006a47304402204fa942ce2e79256240663c48e747ccbee4a1c4d826948c5d92a5f8c49bf49ee702205e605aa217ca930b631fed12cc66ac5e7e50de73cbc3341b44b566b3eadc3dc601210229be2213a1027618daf1c39b94bdc09ea52ae7a21e8eb4c41d293b33529fe4f7ffffffff02b0300100000000001976a91443a6c3cf1ee1f6ba15bfa1e24e7225ffe4e21d5088ace63a1000000000001976a91442a44edb8d75f6b0c0e2b5fe4a2b427b07e60bf188ac00000000", "vin": [{"sequence": 4294967295, "scriptSig": {"hex": "47304402204fa942ce2e79256240663c48e747ccbee4a1c4d826948c5d92a5f8c49bf49ee702205e605aa217ca930b631fed12cc66ac5e7e50de73cbc3341b44b566b3eadc3dc601210229be2213a1027618daf1c39b94bdc09ea52ae7a21e8eb4c41d293b33529fe4f7", "asm": "304402204fa942ce2e79256240663c48e747ccbee4a1c4d826948c5d92a5f8c49bf49ee702205e605aa217ca930b631fed12cc66ac5e7e50de73cbc3341b44b566b3eadc3dc6[ALL] 0229be2213a1027618daf1c39b94bdc09ea52ae7a21e8eb4c41d293b33529fe4f7"}, "vout": 8, "txid": "9f90a48b3c2dd2245188b277c31e85cd09bcd5d618afa397ab0e690e84751f40"}], "txid": "50024e765eea8e085edd4d007d6c69b55e8534db6e28c363f9ecd55887dc7e27", "blocktime": 1537872475, "version": 1, "confirmations": 11486, "time": 1537872475, "locktime": 0, "vsize": 225, "size": 225}