{"hash": "c46b9fad93ccdda40651e3d0926a7a99d60f6a56fee8cd30cddb6a0d10bd33e0", "blockhash": "0000000000000000000e13cef7c366c0283d82e591d1acd082e914b08063cdf1", "vout": [{"scriptPubKey": {"reqSigs": 1, "hex": "a9148e551b66f6e55bb3514f50751e06ff7d1dd7c7f887", "addresses": ["3Efbq8AyRKbFT3kMHdFw2pPEUtU64nzTiC"], "asm": "OP_HASH160 8e551b66f6e55bb3514f50751e06ff7d1dd7c7f8 OP_EQUAL", "type": "scripthash"}, "value": 2.49421448, "n": 0}, {"scriptPubKey": {"reqSigs": 1, "hex": "a914f3c1ae9a2301d9e2a0fc4972c458eb07f35a708487", "addresses": ["3Put9RTmhXNckWENa8pny9jy5UCfgcRa5J"], "asm": "OP_HASH160 f3c1ae9a2301d9e2a0fc4972c458eb07f35a7084 OP_EQUAL", "type": "scripthash"}, "value": 0.0034312, "n": 1}], "hex": "02000000000101aaa59afebf54d04d8e9336fdaf8950402af77b5e0c0579973601a628bba21837010000001716001436d48d136f7dd7a22251746c0d971d45b22e9fb2feffffff0288dedd0e0000000017a9148e551b66f6e55bb3514f50751e06ff7d1dd7c7f887503c05000000000017a914f3c1ae9a2301d9e2a0fc4972c458eb07f35a708487024730440220325de05987501321144ac4affc4504a2e920ebcb0eb622131221d3005ddcce8202206d56d7e400f9f5c2f1ab75254ad66dbc4a98be7c6f86c58eb8b7f0762383e9ba012102427e9e58c857ba7158c560fc9c0e04c552751868edc26c3131b4338a5d330ad310490800", "vin": [{"txinwitness": ["30440220325de05987501321144ac4affc4504a2e920ebcb0eb622131221d3005ddcce8202206d56d7e400f9f5c2f1ab75254ad66dbc4a98be7c6f86c58eb8b7f0762383e9ba01", "02427e9e58c857ba7158c560fc9c0e04c552751868edc26c3131b4338a5d330ad3"], "sequence": 4294967294, "scriptSig": {"hex": "16001436d48d136f7dd7a22251746c0d971d45b22e9fb2", "asm": "001436d48d136f7dd7a22251746c0d971d45b22e9fb2"}, "vout": 1, "txid": "3718a2bb28a601369779050c5e7bf72a405089affd36938e4dd054bffe9aa5aa"}], "txid": "5007b72857e1ac3e3a2c42d28526f9c2a22488d327f1621e4f1842f5bc785f1c", "blocktime": 1537871767, "version": 2, "confirmations": 11495, "time": 1537871767, "locktime": 542992, "vsize": 166, "size": 247}