{"hash": "25e6af1a2e091b93377b40bb826307b41f339412393ac4bfeb2a5b5fe1bf4178", "blockhash": "0000000000000000001f76057863aec43deb6fa401d9628bb513d65a8098bfab", "vout": [{"scriptPubKey": {"reqSigs": 1, "hex": "a91420c1aa63d545f01c64a281b5adb0c7d01dca30eb87", "addresses": ["34gDYoXzSqyorAimsDJUBZB2Kw5Ef4PBxM"], "asm": "OP_HASH160 20c1aa63d545f01c64a281b5adb0c7d01dca30eb OP_EQUAL", "type": "scripthash"}, "value": 0.002, "n": 0}, {"scriptPubKey": {"reqSigs": 1, "hex": "a91447022be546121582546cf7bcfe5dbbe8732883b087", "addresses": ["38AUW3GURPHMDZfSUpgkuqeVUgF8miyWGE"], "asm": "OP_HASH160 47022be546121582546cf7bcfe5dbbe8732883b0 OP_EQUAL", "type": "scripthash"}, "value": 0.7304, "n": 1}, {"scriptPubKey": {"reqSigs": 1, "hex": "a9147b759b19f063925ef1feb1ca74b24f60c81a9ae487", "addresses": ["3CwovY8oUHmv1crr8uWhM4TzL4yoeSsqAz"], "asm": "OP_HASH160 7b759b19f063925ef1feb1ca74b24f60c81a9ae4 OP_EQUAL", "type": "scripthash"}, "value": 0.0886022, "n": 2}], "hex": "0100000000010bdf2eb1f6a97842be7047447fb78e0171d38888f728e3616b8194c9d4836e53110200000017160014c03f359781bff7cea51304e027db8c55ec308afdfffffffff3df1447e3383bbe30a7ccde647af59e87ab6b32c6e6d5990b1c08a4b369b3730200000017160014ea6fc49595dbbe7baeb035e81bea75d8369968affffffffff3df1447e3383bbe30a7ccde647af59e87ab6b32c6e6d5990b1c08a4b369b373110000001716001488bf6c4ad694090ef5ae5af808e7d246e1ccb6cffffffffff4815b7376f3279ff84499ff39379b17a58fc0aa3beb0ca4e0491e5d77b6063300000000171600142ade394a488c9913c97109361b179054aee00a3effffffffff83f383da6ea3b29621f58c95948063fc4ed7013132c48635a99402b01ea098010000001716001421cb407efedaefd8e0280aa89295c6ead267e4c3fffffffff7db6b02afa8a86856c389e9b525f624d524e7265391125045b11422479e358c0000000017160014b78f302a102323d807068f6479b6c04182337b62ffffffff12b70abb144a8f9b7304fe90b8719ea3cb32faef6f98222b82063f2afd2cc4070000000017160014a8875711f863e66ac7f51b72c5ae642c351ecb81ffffffff5e4d23023c6a3bcece03f8cf0c862fc80dc76c95b229c48461da50fb414845e708000000171600149dd63602e8ad4e364a29991b1fbb80668406f6f2ffffffff5e4d23023c6a3bcece03f8cf0c862fc80dc76c95b229c48461da50fb414845e70c00000017160014b475e202f0a8fd37bb4f3f1ede4206a3e5ebe5a9fffffffff5ea937bdc7cd47de7986d11847b2c683437f9f8ca4da6511d18a7221cbbe06d0d00000017160014b12d0876a1127184657cbec133ec70f3bf5f9a53fffffffff5ea937bdc7cd47de7986d11847b2c683437f9f8ca4da6511d18a7221cbbe06d1e0000001716001482da15517dce1cbff65542ecb3d895ca8791c0bcffffffff03400d03000000000017a91420c1aa63d545f01c64a281b5adb0c7d01dca30eb8780805a040000000017a91447022be546121582546cf7bcfe5dbbe8732883b0873c3287000000000017a9147b759b19f063925ef1feb1ca74b24f60c81a9ae48702483045022100a8c9660506438001229e87eb4b155458e9db60af644678ddbbf35907937bac90022006de331e67a2c77187ac1d243f97674051ad817c142245a427ea3ab59f22790b012102d73072051fb13ba17d0109b41b82f989ca95a0876ecc5749c139b440d60a4a4c02483045022100aa52b6858c9542147a61c81b011a92fa3a78dcce4fbd1f0eaf4b2800b10171d902206c494b7212e6587f0cadbec60935b29e4d9ace5a3c5d2e72dd3c723424c675af012103d3aa6f01a21acfcf7b3dbda16ae8e1df5c4a56bfdfa0b8a6db6f437b56efa4be02473044022075970231f34bd8c1b4607097115850ae14e079e80d09e1e9b44eeb7679c15c9502203c9be3accd5cf696349bcc8659c95f631b922bfbc04433b63b9a345e2cc51d830121030206eeeb0e0ff1ebd5810d0abf1f7563e373d13236524c6b0664ca79b10ea8e702483045022100c6f1b6b329f3fcf36c8fc662b091b74c02ad502e90b60f5ad2785d773ee27bb302207fdb6997df0c56549872b75675c87a72f4401dd26110d7c615c97981f66a670e012102e26692136744dbffecfe4bac6de2ebcd098c98b855aa8d812847d4a3ae349da602483045022100b4232086e53cf306bb15d36711ccfc31a15e05db51ae9d08755dd430e0e01ca202201fb50f3442574b875c131a5a25f4997a7256cef1ed84de001e53e10baf6bbeb0012102e6da8cf1f6b6d9fb1ddf5bddbb9be748bf3313199b312d7ae03d58daf066f92402483045022100b2175768cd761ac8b8627d616da75bb8e1af40540c2638389082292845a1690f02206aaf7b77e8895a7421b1c9eaef5c8e32e805995733b9e0568a9de069a93f2b02012103fbed01495960f7f63a615c47a69c50d7392277972312449a7e8393607d90d5970248304502210084cb85514d360f28d4b3bb13fb8dbb8a0cd7a4395e8068ecfa2ba189ed8fe693022010ecd323bc4b7bc9a69bfa9eb1626915074adc319672152255be9a937d47e5ef0121033ecebaa0b6a23c29b51bcc5ce204ee1c42c0c812e09b9c4ed25986c7a81b4127024730440220427823a6e9ac10adb54d76c4cd6345c74b6df78085e8e783d35bc65ddf34a41202205d3851865320e6ec3ad1bbf1b0895725a08cae10379d8b536d726a87c2daa60c0121020af161c47c60a1f987745a3f8ed5a6e7085275e37ff806be10e63ac4e92e71210247304402200828ea1f1077054f3692b30345b485991d0c9acc75577926bbdf36449010b5dd022076820b0ad70cfdbe8defc33be3661cdb51b9b516a8dacd3940ac94adf9c9c411012103a54f27b0e8a59e9d240415e6cb45fd89fd636e2721eb901e5d71eaec4fa8627002483045022100e5d3e6195e6320fa0499db907bcc523816817c5b51c4be65f55a2ea2cc7fe3930220751891577c2351c15aae448d3a791cae74a9528ff7d797b145cc4445602266880121039adf03415dd7a88de3f0c5ac183312cc297d90558b56292cdec688328d16491d02473044022021cc65c1237d27f02dd04190d4de7674931c0c6615e5265d5567fbcd06c3901802202a1ebe9901719502250afaf434ab69df12fa62f27a4f0906b2fbb3476ae98bef012103f97a7429d76ac3e7102509a7a3fe59749f53e53d376826b6947cc18168a91fbf00000000", "vin": [{"txinwitness": ["3045022100a8c9660506438001229e87eb4b155458e9db60af644678ddbbf35907937bac90022006de331e67a2c77187ac1d243f97674051ad817c142245a427ea3ab59f22790b01", "02d73072051fb13ba17d0109b41b82f989ca95a0876ecc5749c139b440d60a4a4c"], "sequence": 4294967295, "scriptSig": {"hex": "160014c03f359781bff7cea51304e027db8c55ec308afd", "asm": "0014c03f359781bff7cea51304e027db8c55ec308afd"}, "vout": 2, "txid": "11536e83d4c994816b61e328f78888d371018eb77f444770be4278a9f6b12edf"}, {"txinwitness": ["3045022100aa52b6858c9542147a61c81b011a92fa3a78dcce4fbd1f0eaf4b2800b10171d902206c494b7212e6587f0cadbec60935b29e4d9ace5a3c5d2e72dd3c723424c675af01", "03d3aa6f01a21acfcf7b3dbda16ae8e1df5c4a56bfdfa0b8a6db6f437b56efa4be"], "sequence": 4294967295, "scriptSig": {"hex": "160014ea6fc49595dbbe7baeb035e81bea75d8369968af", "asm": "0014ea6fc49595dbbe7baeb035e81bea75d8369968af"}, "vout": 2, "txid": "73b369b3a4081c0b99d5e6c6326bab879ef57a64decca730be3b38e34714dff3"}, {"txinwitness": ["3044022075970231f34bd8c1b4607097115850ae14e079e80d09e1e9b44eeb7679c15c9502203c9be3accd5cf696349bcc8659c95f631b922bfbc04433b63b9a345e2cc51d8301", "030206eeeb0e0ff1ebd5810d0abf1f7563e373d13236524c6b0664ca79b10ea8e7"], "sequence": 4294967295, "scriptSig": {"hex": "16001488bf6c4ad694090ef5ae5af808e7d246e1ccb6cf", "asm": "001488bf6c4ad694090ef5ae5af808e7d246e1ccb6cf"}, "vout": 17, "txid": "73b369b3a4081c0b99d5e6c6326bab879ef57a64decca730be3b38e34714dff3"}, {"txinwitness": ["3045022100c6f1b6b329f3fcf36c8fc662b091b74c02ad502e90b60f5ad2785d773ee27bb302207fdb6997df0c56549872b75675c87a72f4401dd26110d7c615c97981f66a670e01", "02e26692136744dbffecfe4bac6de2ebcd098c98b855aa8d812847d4a3ae349da6"], "sequence": 4294967295, "scriptSig": {"hex": "1600142ade394a488c9913c97109361b179054aee00a3e", "asm": "00142ade394a488c9913c97109361b179054aee00a3e"}, "vout": 0, "txid": "3306b6775d1e49e0a40ceb3baac08fa5179b3739ff9944f89f27f376735b81f4"}, {"txinwitness": ["3045022100b4232086e53cf306bb15d36711ccfc31a15e05db51ae9d08755dd430e0e01ca202201fb50f3442574b875c131a5a25f4997a7256cef1ed84de001e53e10baf6bbeb001", "02e6da8cf1f6b6d9fb1ddf5bddbb9be748bf3313199b312d7ae03d58daf066f924"], "sequence": 4294967295, "scriptSig": {"hex": "16001421cb407efedaefd8e0280aa89295c6ead267e4c3", "asm": "001421cb407efedaefd8e0280aa89295c6ead267e4c3"}, "vout": 1, "txid": "98a01eb00294a93586c4323101d74efc638094958cf52196b2a36eda83f383ff"}, {"txinwitness": ["3045022100b2175768cd761ac8b8627d616da75bb8e1af40540c2638389082292845a1690f02206aaf7b77e8895a7421b1c9eaef5c8e32e805995733b9e0568a9de069a93f2b0201", "03fbed01495960f7f63a615c47a69c50d7392277972312449a7e8393607d90d597"], "sequence": 4294967295, "scriptSig": {"hex": "160014b78f302a102323d807068f6479b6c04182337b62", "asm": "0014b78f302a102323d807068f6479b6c04182337b62"}, "vout": 0, "txid": "8c359e472214b1455012915326e724d524f625b5e989c35668a8a8af026bdbf7"}, {"txinwitness": ["304502210084cb85514d360f28d4b3bb13fb8dbb8a0cd7a4395e8068ecfa2ba189ed8fe693022010ecd323bc4b7bc9a69bfa9eb1626915074adc319672152255be9a937d47e5ef01", "033ecebaa0b6a23c29b51bcc5ce204ee1c42c0c812e09b9c4ed25986c7a81b4127"], "sequence": 4294967295, "scriptSig": {"hex": "160014a8875711f863e66ac7f51b72c5ae642c351ecb81", "asm": "0014a8875711f863e66ac7f51b72c5ae642c351ecb81"}, "vout": 0, "txid": "07c42cfd2a3f06822b22986feffa32cba39e71b890fe04739b8f4a14bb0ab712"}, {"txinwitness": ["30440220427823a6e9ac10adb54d76c4cd6345c74b6df78085e8e783d35bc65ddf34a41202205d3851865320e6ec3ad1bbf1b0895725a08cae10379d8b536d726a87c2daa60c01", "020af161c47c60a1f987745a3f8ed5a6e7085275e37ff806be10e63ac4e92e7121"], "sequence": 4294967295, "scriptSig": {"hex": "1600149dd63602e8ad4e364a29991b1fbb80668406f6f2", "asm": "00149dd63602e8ad4e364a29991b1fbb80668406f6f2"}, "vout": 8, "txid": "e7454841fb50da6184c429b2956cc70dc82f860ccff803cece3b6a3c02234d5e"}, {"txinwitness": ["304402200828ea1f1077054f3692b30345b485991d0c9acc75577926bbdf36449010b5dd022076820b0ad70cfdbe8defc33be3661cdb51b9b516a8dacd3940ac94adf9c9c41101", "03a54f27b0e8a59e9d240415e6cb45fd89fd636e2721eb901e5d71eaec4fa86270"], "sequence": 4294967295, "scriptSig": {"hex": "160014b475e202f0a8fd37bb4f3f1ede4206a3e5ebe5a9", "asm": "0014b475e202f0a8fd37bb4f3f1ede4206a3e5ebe5a9"}, "vout": 12, "txid": "e7454841fb50da6184c429b2956cc70dc82f860ccff803cece3b6a3c02234d5e"}, {"txinwitness": ["3045022100e5d3e6195e6320fa0499db907bcc523816817c5b51c4be65f55a2ea2cc7fe3930220751891577c2351c15aae448d3a791cae74a9528ff7d797b145cc44456022668801", "039adf03415dd7a88de3f0c5ac183312cc297d90558b56292cdec688328d16491d"], "sequence": 4294967295, "scriptSig": {"hex": "160014b12d0876a1127184657cbec133ec70f3bf5f9a53", "asm": "0014b12d0876a1127184657cbec133ec70f3bf5f9a53"}, "vout": 13, "txid": "6de0bb1c22a7181d51a64dcaf8f93734682c7b84116d98e77dd47cdc7b93eaf5"}, {"txinwitness": ["3044022021cc65c1237d27f02dd04190d4de7674931c0c6615e5265d5567fbcd06c3901802202a1ebe9901719502250afaf434ab69df12fa62f27a4f0906b2fbb3476ae98bef01", "03f97a7429d76ac3e7102509a7a3fe59749f53e53d376826b6947cc18168a91fbf"], "sequence": 4294967295, "scriptSig": {"hex": "16001482da15517dce1cbff65542ecb3d895ca8791c0bc", "asm": "001482da15517dce1cbff65542ecb3d895ca8791c0bc"}, "vout": 30, "txid": "6de0bb1c22a7181d51a64dcaf8f93734682c7b84116d98e77dd47cdc7b93eaf5"}], "txid": "501161e198d2fa1aa10251733f6c536101203c522b312ccbc984dbcaf063e953", "blocktime": 1537873891, "version": 1, "confirmations": 11477, "time": 1537873891, "locktime": 0, "vsize": 1107, "size": 1996}