{"hash": "5011539c2355b0de3441361a27475f5be31b6f0c2dcb228096f907a048070ee4", "blockhash": "0000000000000000001cda96e906b7601b7a6fb1a3b62bca570a9e5d8f4b3de1", "vout": [{"scriptPubKey": {"reqSigs": 1, "hex": "76a91497b6e551358253b51df7a699fe99404c83ca3b8a88ac", "addresses": ["1EqC8nfVSb23ek3mEtHwZ2NxjG9CSwK2yB"], "asm": "OP_DUP OP_HASH160 97b6e551358253b51df7a699fe99404c83ca3b8a OP_EQUALVERIFY OP_CHECKSIG", "type": "pubkeyhash"}, "value": 0.00560691, "n": 0}, {"scriptPubKey": {"reqSigs": 1, "hex": "a914c610f7bde4b2b0ec5e296d0d2a79bfc66707a33b87", "addresses": ["3KkJ3TxEGJFc2VmfYRyRHihcxSiMVy9DQJ"], "asm": "OP_HASH160 c610f7bde4b2b0ec5e296d0d2a79bfc66707a33b OP_EQUAL", "type": "scripthash"}, "value": 0.02735, "n": 1}], "hex": "0100000001896e7c08e115c15356effb0318c41659ae600982811110349d310f2703ca50c8010000006b483045022100a99fc9ee9d3ed659a27ddc274f2ff9aada9ecc40d7c1e0e1f09d57b3b6a39462022028da02785005a79050aaeac308a24878d2bdf0e14fcecd773ba7109070a54b7601210273a785618344417196733e760e9b6c935ab58a71a39d49a86196c666d18a911cffffffff02338e0800000000001976a91497b6e551358253b51df7a699fe99404c83ca3b8a88ac98bb29000000000017a914c610f7bde4b2b0ec5e296d0d2a79bfc66707a33b8700000000", "vin": [{"sequence": 4294967295, "scriptSig": {"hex": "483045022100a99fc9ee9d3ed659a27ddc274f2ff9aada9ecc40d7c1e0e1f09d57b3b6a39462022028da02785005a79050aaeac308a24878d2bdf0e14fcecd773ba7109070a54b7601210273a785618344417196733e760e9b6c935ab58a71a39d49a86196c666d18a911c", "asm": "3045022100a99fc9ee9d3ed659a27ddc274f2ff9aada9ecc40d7c1e0e1f09d57b3b6a39462022028da02785005a79050aaeac308a24878d2bdf0e14fcecd773ba7109070a54b76[ALL] 0273a785618344417196733e760e9b6c935ab58a71a39d49a86196c666d18a911c"}, "vout": 1, "txid": "c850ca03270f319d34101181820960ae5916c41803fbef5653c115e1087c6e89"}], "txid": "5011539c2355b0de3441361a27475f5be31b6f0c2dcb228096f907a048070ee4", "blocktime": 1537873282, "version": 1, "confirmations": 11485, "time": 1537873282, "locktime": 0, "vsize": 224, "size": 224}