{"hash": "5012b376f80be448370404be864b0e468075ae0725fa99a90b17924e08746997", "blockhash": "0000000000000000000baef3f32e3676a92c3b2e5da21b426e4f302fc371ce76", "vout": [{"scriptPubKey": {"reqSigs": 1, "hex": "a914e0fd07caf53963ef4a1a3ff251022fb77192fc1c87", "addresses": ["3NCeQNpUGMabLXhKU2Nk39ehkNFqp5VKFR"], "asm": "OP_HASH160 e0fd07caf53963ef4a1a3ff251022fb77192fc1c OP_EQUAL", "type": "scripthash"}, "value": 0.00161694, "n": 0}, {"scriptPubKey": {"reqSigs": 1, "hex": "76a9140c50118a37b78a18a540f5fb028020207caed23f88ac", "addresses": ["12872ZUdWcU615NozK8kA3dFcX4RJ9Qfrn"], "asm": "OP_DUP OP_HASH160 0c50118a37b78a18a540f5fb028020207caed23f OP_EQUALVERIFY OP_CHECKSIG", "type": "pubkeyhash"}, "value": 0.01790704, "n": 1}], "hex": "010000000126f7946ea0d5bd9309939f1cdf4384db538df80d16b71b91525f40f7b7a91347000000006a47304402200d33b56e8cba5aba5a8b9f66f23e53660d0de6960386843a104200be6ac9663102206ef55a42ca2fef57639be34017b9da7f09bbe00b85a83cfd8722645f3c7c18100121021413d1df7d91793d7cc6adca1afaa3dbd0e9775615b353a40af1888c25f3167effffffff029e7702000000000017a914e0fd07caf53963ef4a1a3ff251022fb77192fc1c87f0521b00000000001976a9140c50118a37b78a18a540f5fb028020207caed23f88ac00000000", "vin": [{"sequence": 4294967295, "scriptSig": {"hex": "47304402200d33b56e8cba5aba5a8b9f66f23e53660d0de6960386843a104200be6ac9663102206ef55a42ca2fef57639be34017b9da7f09bbe00b85a83cfd8722645f3c7c18100121021413d1df7d91793d7cc6adca1afaa3dbd0e9775615b353a40af1888c25f3167e", "asm": "304402200d33b56e8cba5aba5a8b9f66f23e53660d0de6960386843a104200be6ac9663102206ef55a42ca2fef57639be34017b9da7f09bbe00b85a83cfd8722645f3c7c1810[ALL] 021413d1df7d91793d7cc6adca1afaa3dbd0e9775615b353a40af1888c25f3167e"}, "vout": 0, "txid": "4713a9b7f7405f52911bb7160df88d53db8443df1c9f930993bdd5a06e94f726"}], "txid": "5012b376f80be448370404be864b0e468075ae0725fa99a90b17924e08746997", "blocktime": 1537876114, "version": 1, "confirmations": 11460, "time": 1537876114, "locktime": 0, "vsize": 223, "size": 223}