{"hash": "5012a5da0ae6b499101f97cdcfc9a73e12ce0f9f2625ac95aa464c37a3031b47", "blockhash": "0000000000000000001cda96e906b7601b7a6fb1a3b62bca570a9e5d8f4b3de1", "vout": [{"scriptPubKey": {"reqSigs": 1, "hex": "76a91469d3cc5a2ac7aae023a2538f6b6fbf6159c66c6988ac", "addresses": ["1AeZg9GsyvsJegDw6FaKS2taWhq36w9T4V"], "asm": "OP_DUP OP_HASH160 69d3cc5a2ac7aae023a2538f6b6fbf6159c66c69 OP_EQUALVERIFY OP_CHECKSIG", "type": "pubkeyhash"}, "value": 0.00893758, "n": 0}, {"scriptPubKey": {"type": "nulldata", "hex": "6a146f6d6e69000000000000001f0000000ba43b7400", "asm": "OP_RETURN 6f6d6e69000000000000001f0000000ba43b7400"}, "value": 0.0, "n": 1}, {"scriptPubKey": {"reqSigs": 1, "hex": "76a91469d3cc5a2ac7aae023a2538f6b6fbf6159c66c6988ac", "addresses": ["1AeZg9GsyvsJegDw6FaKS2taWhq36w9T4V"], "asm": "OP_DUP OP_HASH160 69d3cc5a2ac7aae023a2538f6b6fbf6159c66c69 OP_EQUALVERIFY OP_CHECKSIG", "type": "pubkeyhash"}, "value": 5.46e-06, "n": 2}], "hex": "0100000002198c446acf7e35af83790dab468ab37d68b4db89ad8c835089a3c9c1223ba0cc020000006b483045022100f99a0bdfee619c46de225cb1e220f70268a9fc36ac118b466dc45742d54c6324022010433c9250905aaced0c8c8ef3c0f559fc1aca86cfaa71c2f6572b1cd791068a012102173cab9c018b16a5bf9d67ebe12c57cfddae94f34d680a743881dd90e726f976ffffffffc26fb3531151d67b8fd3d063ff8814980cd5336057a6e1ff8c9d7fd5b90077c2000000006b483045022100943bbe7fc125d5740e67d211cac345cbd63354c60c44d6d5a7dd6c9892681a6702200aa8e5b203f75e3ca000cae65538475f7fb03a9828ee7f1550d99828bb97d3ed01210326a4358bff07ed795c1443ec56bee68e807664de3ef2694f6d4780428cece48cffffffff033ea30d00000000001976a91469d3cc5a2ac7aae023a2538f6b6fbf6159c66c6988ac0000000000000000166a146f6d6e69000000000000001f0000000ba43b740022020000000000001976a91469d3cc5a2ac7aae023a2538f6b6fbf6159c66c6988ac00000000", "vin": [{"sequence": 4294967295, "scriptSig": {"hex": "483045022100f99a0bdfee619c46de225cb1e220f70268a9fc36ac118b466dc45742d54c6324022010433c9250905aaced0c8c8ef3c0f559fc1aca86cfaa71c2f6572b1cd791068a012102173cab9c018b16a5bf9d67ebe12c57cfddae94f34d680a743881dd90e726f976", "asm": "3045022100f99a0bdfee619c46de225cb1e220f70268a9fc36ac118b466dc45742d54c6324022010433c9250905aaced0c8c8ef3c0f559fc1aca86cfaa71c2f6572b1cd791068a[ALL] 02173cab9c018b16a5bf9d67ebe12c57cfddae94f34d680a743881dd90e726f976"}, "vout": 2, "txid": "cca03b22c1c9a38950838cad89dbb4687db38a46ab0d7983af357ecf6a448c19"}, {"sequence": 4294967295, "scriptSig": {"hex": "483045022100943bbe7fc125d5740e67d211cac345cbd63354c60c44d6d5a7dd6c9892681a6702200aa8e5b203f75e3ca000cae65538475f7fb03a9828ee7f1550d99828bb97d3ed01210326a4358bff07ed795c1443ec56bee68e807664de3ef2694f6d4780428cece48c", "asm": "3045022100943bbe7fc125d5740e67d211cac345cbd63354c60c44d6d5a7dd6c9892681a6702200aa8e5b203f75e3ca000cae65538475f7fb03a9828ee7f1550d99828bb97d3ed[ALL] 0326a4358bff07ed795c1443ec56bee68e807664de3ef2694f6d4780428cece48c"}, "vout": 0, "txid": "c27700b9d57f9d8cffe1a6576033d50c981488ff63d0d38f7bd6511153b36fc2"}], "txid": "5012a5da0ae6b499101f97cdcfc9a73e12ce0f9f2625ac95aa464c37a3031b47", "blocktime": 1537873282, "version": 1, "confirmations": 11480, "time": 1537873282, "locktime": 0, "vsize": 405, "size": 405}