{"hash": "5c8b4be377c4c1e96c3449b7b4e2d5abca9c3bb0be8d8fd01ef983aaa8781b14", "blockhash": "0000000000000000000e13cef7c366c0283d82e591d1acd082e914b08063cdf1", "vout": [{"scriptPubKey": {"reqSigs": 1, "hex": "a914ed9d357cfdfeaf9beee772702033caa02dad531787", "addresses": ["3PMQQ5NGGvQ18t6w1vTgpCAHFMhe6sZ9ea"], "asm": "OP_HASH160 ed9d357cfdfeaf9beee772702033caa02dad5317 OP_EQUAL", "type": "scripthash"}, "value": 0.00027922, "n": 0}, {"scriptPubKey": {"reqSigs": 1, "hex": "a9141ea31ee0c58fc1e57f2ef8e550e150b03b4c5f3c87", "addresses": ["34V1c7nhAV6Grt6hexfHHt451X2fbhSDyw"], "asm": "OP_HASH160 1ea31ee0c58fc1e57f2ef8e550e150b03b4c5f3c OP_EQUAL", "type": "scripthash"}, "value": 0.0037146, "n": 1}], "hex": "010000000001013a24ebbae3508c8421ae4c543f32e65cd66d4bccd0086e8895fb8e3eb54aad980200000023220020b5afc8940ff0cfaa9ea8bc432325ad3bebb7d9d80d862f4a9d71599834a1ebedffffffff02126d00000000000017a914ed9d357cfdfeaf9beee772702033caa02dad53178704ab05000000000017a9141ea31ee0c58fc1e57f2ef8e550e150b03b4c5f3c870400483045022100cc3c61fd0ac9d471c7b22a20e9ac6e86bf656b12e7a0164f671b5bc0ba790dac0220561148159ff43f4218abde76e7d6e677320e184c97ef9037026bef2bf47f461901483045022100b49c3296579bd818c999976fae51400b898c0fae59054477c3d0fab71c2c9ada022071a39a9a9eecfdc64681821be62889365c147925e1be5965b46b5250245b448201475221033f1a1e9827ea969509a10cae1794b1ae9f7e2087f09823b9ee1bd9d63f8e7fe82103871fc2ca08e6950b38867e8e6a0e94ee625223d3aa0df5c65f414c6d784467e252ae00000000", "vin": [{"txinwitness": ["", "3045022100cc3c61fd0ac9d471c7b22a20e9ac6e86bf656b12e7a0164f671b5bc0ba790dac0220561148159ff43f4218abde76e7d6e677320e184c97ef9037026bef2bf47f461901", "3045022100b49c3296579bd818c999976fae51400b898c0fae59054477c3d0fab71c2c9ada022071a39a9a9eecfdc64681821be62889365c147925e1be5965b46b5250245b448201", "5221033f1a1e9827ea969509a10cae1794b1ae9f7e2087f09823b9ee1bd9d63f8e7fe82103871fc2ca08e6950b38867e8e6a0e94ee625223d3aa0df5c65f414c6d784467e252ae"], "sequence": 4294967295, "scriptSig": {"hex": "220020b5afc8940ff0cfaa9ea8bc432325ad3bebb7d9d80d862f4a9d71599834a1ebed", "asm": "0020b5afc8940ff0cfaa9ea8bc432325ad3bebb7d9d80d862f4a9d71599834a1ebed"}, "vout": 2, "txid": "98ad4ab53e8efb95886e08d0cc4b6dd65ce6323f544cae21848c50e3baeb243a"}], "txid": "501b712f2dc84f7958bf0adc6cda80b8a6e0c349a289f25bff4ae16ae14e2f45", "blocktime": 1537871767, "version": 1, "confirmations": 11495, "time": 1537871767, "locktime": 0, "vsize": 206, "size": 372}