{"hash": "501db86b9b880200c9add55e14d1fcc6300316974e716b261ceadbf0a6d7058b", "blockhash": "0000000000000000001f0ddff1eddb255c1121bcd4da4f1bc9a0da00cae72433", "vout": [{"scriptPubKey": {"reqSigs": 1, "hex": "76a9147ec31526787e56d257ad33c43f4a5484bdb7e99588ac", "addresses": ["1CZFqkRDVd5JJyj5syGF4hr3LgKXyDy53q"], "asm": "OP_DUP OP_HASH160 7ec31526787e56d257ad33c43f4a5484bdb7e995 OP_EQUALVERIFY OP_CHECKSIG", "type": "pubkeyhash"}, "value": 0.00455884, "n": 0}, {"scriptPubKey": {"reqSigs": 1, "hex": "001476e0270ae22f68f107281edb8afc1d03f13cee86", "addresses": ["bc1qwmszwzhz9a50zpegrmdc4lqaq0cnem5xdeqssu"], "asm": "0 76e0270ae22f68f107281edb8afc1d03f13cee86", "type": "witness_v0_keyhash"}, "value": 5.331e-05, "n": 1}], "hex": "010000000167c2de90b8bc72cef54486c6105b5930fb7a04ef87d72721ae6e22acc78bb06b000000006a47304402202b7c803f9461faafd76bdc7a6989f7dc5567821cdcd3f58f007dce349b58634d022045734e60519a21a146e87b74a093cc89e6d63e0343a6d5cb926f7cbd6359261f0121024d26735a90cb2f04c767045d7e5b840463fd972851f4867d592b06b29b5136e0ffffffff02ccf40600000000001976a9147ec31526787e56d257ad33c43f4a5484bdb7e99588acd31400000000000016001476e0270ae22f68f107281edb8afc1d03f13cee8600000000", "vin": [{"sequence": 4294967295, "scriptSig": {"hex": "47304402202b7c803f9461faafd76bdc7a6989f7dc5567821cdcd3f58f007dce349b58634d022045734e60519a21a146e87b74a093cc89e6d63e0343a6d5cb926f7cbd6359261f0121024d26735a90cb2f04c767045d7e5b840463fd972851f4867d592b06b29b5136e0", "asm": "304402202b7c803f9461faafd76bdc7a6989f7dc5567821cdcd3f58f007dce349b58634d022045734e60519a21a146e87b74a093cc89e6d63e0343a6d5cb926f7cbd6359261f[ALL] 024d26735a90cb2f04c767045d7e5b840463fd972851f4867d592b06b29b5136e0"}, "vout": 0, "txid": "6bb08bc7ac226eae2127d787ef047afb30595b10c68644f5ce72bcb890dec267"}], "txid": "501db86b9b880200c9add55e14d1fcc6300316974e716b261ceadbf0a6d7058b", "blocktime": 1537872018, "version": 1, "confirmations": 11489, "time": 1537872018, "locktime": 0, "vsize": 222, "size": 222}