{"hash": "b18f90e92c461bfc78f7191313e1f792e65fb239ab002b7540c1600b7bf72f52", "blockhash": "00000000000000000004ffacab907a6b429b9a5745fa0b75af4234bf69dd7176", "vout": [{"scriptPubKey": {"reqSigs": 1, "hex": "a9141988a27e3c2df4ddee7fad5a2303d086179b2a3087", "addresses": ["3422VtS7UtCvXYxoXMVp6eZupR252z85oC"], "asm": "OP_HASH160 1988a27e3c2df4ddee7fad5a2303d086179b2a30 OP_EQUAL", "type": "scripthash"}, "value": 0.48267296, "n": 0}, {"scriptPubKey": {"reqSigs": 1, "hex": "a9149ecde40a13f43a0075f8b9612f3f1bf68806354a87", "addresses": ["3GAhLPsF6ummMHCRP8ZD5euwbBko2augcG"], "asm": "OP_HASH160 9ecde40a13f43a0075f8b9612f3f1bf68806354a OP_EQUAL", "type": "scripthash"}, "value": 0.00030546, "n": 1}], "hex": "01000000000101d977994c34d0b46cba3fb020a02e95129b8e5a7d2a945fefbf750fec283c3e58010000002322002065d416c48a8072e0ac51c2d111eb194f009caef0332446c1bf2097316cf07fa9ffffffff022080e0020000000017a9141988a27e3c2df4ddee7fad5a2303d086179b2a3087527700000000000017a9149ecde40a13f43a0075f8b9612f3f1bf68806354a870400483045022100e2ea8c6d4bafba9e145bb6c16bd77545d5c4f96150c296caaa243a8c2ab8e47302201f3ec94aba19ab11cb45fcf4f8abc02295707cffca1dbf429b907ef844e9e723014730440220338d2845398a775f2ecadb9bfe913c044e91c852bc721483af5b5dd3c8dc613c022055ecced7624eb4394a304cfb2d205b8590e9c9e0b762de0b8bca5f2f349667d20169522102f44abcf9e23c9a460da309ccca56c619c04eed3bde2c2cff5e7d78fbcd980b9c2103c9443cf3047bb6c2c82f1b0c44c36109cdc3d0d601d16d1189a1602bf8d1a0a02103bfe867059274412412e088af5572b92168c2ef495cfe6c9b7a753a009eb37c4853ae00000000", "vin": [{"txinwitness": ["", "3045022100e2ea8c6d4bafba9e145bb6c16bd77545d5c4f96150c296caaa243a8c2ab8e47302201f3ec94aba19ab11cb45fcf4f8abc02295707cffca1dbf429b907ef844e9e72301", "30440220338d2845398a775f2ecadb9bfe913c044e91c852bc721483af5b5dd3c8dc613c022055ecced7624eb4394a304cfb2d205b8590e9c9e0b762de0b8bca5f2f349667d201", "522102f44abcf9e23c9a460da309ccca56c619c04eed3bde2c2cff5e7d78fbcd980b9c2103c9443cf3047bb6c2c82f1b0c44c36109cdc3d0d601d16d1189a1602bf8d1a0a02103bfe867059274412412e088af5572b92168c2ef495cfe6c9b7a753a009eb37c4853ae"], "sequence": 4294967295, "scriptSig": {"hex": "22002065d416c48a8072e0ac51c2d111eb194f009caef0332446c1bf2097316cf07fa9", "asm": "002065d416c48a8072e0ac51c2d111eb194f009caef0332446c1bf2097316cf07fa9"}, "vout": 1, "txid": "583e3c28ec0f75bfef5f942a7d5a8e9b12952ea020b03fba6cb4d0344c9977d9"}], "txid": "503137668712c74523346a30e97e4199eb1b6297b4ddc19930da4715f44ef866", "blocktime": 1537875543, "version": 1, "confirmations": 11464, "time": 1537875543, "locktime": 0, "vsize": 214, "size": 405}