{"hash": "f957d398e1cdb7f8f0e65f0113f9dbadf31ff9eede0435497c7cf5e37e85d249", "blockhash": "0000000000000000000e13cef7c366c0283d82e591d1acd082e914b08063cdf1", "vout": [{"scriptPubKey": {"reqSigs": 1, "hex": "76a914ee9a764e4f1cf43ac760611725e18ac290c0471588ac", "addresses": ["1NkcrscvWdTXz3XV7T9GE66m7fuMEiCo3L"], "asm": "OP_DUP OP_HASH160 ee9a764e4f1cf43ac760611725e18ac290c04715 OP_EQUALVERIFY OP_CHECKSIG", "type": "pubkeyhash"}, "value": 0.00423338, "n": 0}, {"scriptPubKey": {"reqSigs": 1, "hex": "0014537529c92432c738409e4dfba937c2bf79cc1541", "addresses": ["bc1q2d6jnjfyxtrnssy7fha6jd7zhauuc92puug4cf"], "asm": "0 537529c92432c738409e4dfba937c2bf79cc1541", "type": "witness_v0_keyhash"}, "value": 0.00010335, "n": 1}], "hex": "0100000000010104e6a46bd6667084159fe173e4cf52e7a2ac1349bc172d9740347f4a921131660100000000ffffffff02aa750600000000001976a914ee9a764e4f1cf43ac760611725e18ac290c0471588ac5f28000000000000160014537529c92432c738409e4dfba937c2bf79cc1541024730440220090dce18bf5fd8eb64c26166d734a8c579f2dff2eeb52197b9355e14208300c60220777c7b5d9fe12aa5bafe04f3f386487cb9e0a00baae076a3be8da56f6877b9940121028e09692cf9fea386fffa2ce53d51b19fb49200ce7b2713bb9784fafc2451306c00000000", "vin": [{"txinwitness": ["30440220090dce18bf5fd8eb64c26166d734a8c579f2dff2eeb52197b9355e14208300c60220777c7b5d9fe12aa5bafe04f3f386487cb9e0a00baae076a3be8da56f6877b99401", "028e09692cf9fea386fffa2ce53d51b19fb49200ce7b2713bb9784fafc2451306c"], "sequence": 4294967295, "scriptSig": {"hex": "", "asm": ""}, "vout": 1, "txid": "663111924a7f3440972d17bc4913aca2e752cfe473e19f15847066d66ba4e604"}], "txid": "5038cedcec9fd89a2d6044a8eb56384a23620f8a5c80ef11df22a0faa01fafc4", "blocktime": 1537871767, "version": 1, "confirmations": 11495, "time": 1537871767, "locktime": 0, "vsize": 144, "size": 225}