{"hash": "503bdbbf0c988ede0c67cf9945f6a3351c7f6bfe93ff47f53ed3df05ec4bcffd", "blockhash": "00000000000000000017f5eb5941039fbcee6240d03bc1f2f8e35350df66a1d8", "vout": [{"scriptPubKey": {"reqSigs": 1, "hex": "76a914cd90a63139914a34bf3fe14a21fd20f3cf3754c888ac", "addresses": ["1KjvojApPAmLQxBXPXcpe39KZDSWBQFxUo"], "asm": "OP_DUP OP_HASH160 cd90a63139914a34bf3fe14a21fd20f3cf3754c8 OP_EQUALVERIFY OP_CHECKSIG", "type": "pubkeyhash"}, "value": 0.0081, "n": 0}, {"scriptPubKey": {"reqSigs": 1, "hex": "76a9144f9dd9ec82776635b87f8d80d6c1fc5de61e1cf288ac", "addresses": ["18FyUrTkRE9cCLXX1x78XzCRQ8T87vSkG4"], "asm": "OP_DUP OP_HASH160 4f9dd9ec82776635b87f8d80d6c1fc5de61e1cf2 OP_EQUALVERIFY OP_CHECKSIG", "type": "pubkeyhash"}, "value": 0.23519777, "n": 1}], "hex": "01000000015702fb4604beedb8a8f9ade7b75fb4f7e352e26093426855391b50d8f5041077010000006a47304402205ddddfde721d63689f85462c8f731a3adc0e0c219e76d448de57ad8cb4e2a16b02203ae9b5efdeabff29eb91ce791042d95c265a7a6869d5d5f7c612bde83f9acddc01210307be97943f5169d2a7975f1ebfe986a98baf71e85bb31ee49264ef1461e372a5fdffffff02105c0c00000000001976a914cd90a63139914a34bf3fe14a21fd20f3cf3754c888ac21e26601000000001976a9144f9dd9ec82776635b87f8d80d6c1fc5de61e1cf288ac15490800", "vin": [{"sequence": 4294967293, "scriptSig": {"hex": "47304402205ddddfde721d63689f85462c8f731a3adc0e0c219e76d448de57ad8cb4e2a16b02203ae9b5efdeabff29eb91ce791042d95c265a7a6869d5d5f7c612bde83f9acddc01210307be97943f5169d2a7975f1ebfe986a98baf71e85bb31ee49264ef1461e372a5", "asm": "304402205ddddfde721d63689f85462c8f731a3adc0e0c219e76d448de57ad8cb4e2a16b02203ae9b5efdeabff29eb91ce791042d95c265a7a6869d5d5f7c612bde83f9acddc[ALL] 0307be97943f5169d2a7975f1ebfe986a98baf71e85bb31ee49264ef1461e372a5"}, "vout": 1, "txid": "771004f5d8501b395568429360e252e3f7b45fb7e7adf9a8b8edbe0446fb0257"}], "txid": "503bdbbf0c988ede0c67cf9945f6a3351c7f6bfe93ff47f53ed3df05ec4bcffd", "blocktime": 1537874412, "version": 1, "confirmations": 11468, "time": 1537874412, "locktime": 542997, "vsize": 225, "size": 225}