{"hash": "50417016cc4bd5abde13d944c7453fc840a6cbf924db479ab7d25c4c86dcc279", "blockhash": "00000000000000000017f5eb5941039fbcee6240d03bc1f2f8e35350df66a1d8", "vout": [{"scriptPubKey": {"reqSigs": 1, "hex": "76a914d298f4ce031f32fb0c76734eb2887f3b4a5acf9988ac", "addresses": ["1LCY8sbCz3RVRAQYeN3XAMPbSyEWi5W6iv"], "asm": "OP_DUP OP_HASH160 d298f4ce031f32fb0c76734eb2887f3b4a5acf99 OP_EQUALVERIFY OP_CHECKSIG", "type": "pubkeyhash"}, "value": 0.01000131, "n": 0}, {"scriptPubKey": {"reqSigs": 1, "hex": "a91484bf664394375251dd229563f7afdaadb44b4b9287", "addresses": ["3DnvQXuGEhTyHFbRKwCrdV4t6GpQKhKFKG"], "asm": "OP_HASH160 84bf664394375251dd229563f7afdaadb44b4b92 OP_EQUAL", "type": "scripthash"}, "value": 0.1, "n": 1}], "hex": "02000000028fa1dec17b34f07baffbe97d125be1021c94611e8a7f75bb6dbde05464a2bd99010000006b483045022100986ccb33c396d582ef3f983e2e52658ab3617f1d68301d1d18d2ab62b5d9fa510220290a46cf4b58fea4a1415b74553245dc02049792e9ab4e1364947ea1b031589b012103cd17f0261057127e0311e9f73023c050a17c1d3fc5bae167e91e0cd6c3d3e24bfeffffffbd6a86d8bde9de460094baf2ea8f49f4e71d156729ab0c89ef43f7c8082cea3d010000006a473044022076ca2fb2f1dbe6bfd710cd646d9778f5584719be5b8bb74bba0d81b5f2c765550220507bc8ddc78b779bf6cde3d8c343bdcc88c924090f15d4d3c4ecee8a786717b4012103da2ab2941ac0e2a15e3a9d398d953deb593d4b3c89dd2ac88ce98034773c6377feffffff02c3420f00000000001976a914d298f4ce031f32fb0c76734eb2887f3b4a5acf9988ac809698000000000017a91484bf664394375251dd229563f7afdaadb44b4b928715490800", "vin": [{"sequence": 4294967294, "scriptSig": {"hex": "483045022100986ccb33c396d582ef3f983e2e52658ab3617f1d68301d1d18d2ab62b5d9fa510220290a46cf4b58fea4a1415b74553245dc02049792e9ab4e1364947ea1b031589b012103cd17f0261057127e0311e9f73023c050a17c1d3fc5bae167e91e0cd6c3d3e24b", "asm": "3045022100986ccb33c396d582ef3f983e2e52658ab3617f1d68301d1d18d2ab62b5d9fa510220290a46cf4b58fea4a1415b74553245dc02049792e9ab4e1364947ea1b031589b[ALL] 03cd17f0261057127e0311e9f73023c050a17c1d3fc5bae167e91e0cd6c3d3e24b"}, "vout": 1, "txid": "99bda26454e0bd6dbb757f8a1e61941c02e15b127de9fbaf7bf0347bc1dea18f"}, {"sequence": 4294967294, "scriptSig": {"hex": "473044022076ca2fb2f1dbe6bfd710cd646d9778f5584719be5b8bb74bba0d81b5f2c765550220507bc8ddc78b779bf6cde3d8c343bdcc88c924090f15d4d3c4ecee8a786717b4012103da2ab2941ac0e2a15e3a9d398d953deb593d4b3c89dd2ac88ce98034773c6377", "asm": "3044022076ca2fb2f1dbe6bfd710cd646d9778f5584719be5b8bb74bba0d81b5f2c765550220507bc8ddc78b779bf6cde3d8c343bdcc88c924090f15d4d3c4ecee8a786717b4[ALL] 03da2ab2941ac0e2a15e3a9d398d953deb593d4b3c89dd2ac88ce98034773c6377"}, "vout": 1, "txid": "3dea2c08c8f743ef890cab2967151de7f4498feaf2ba940046dee9bdd8866abd"}], "txid": "50417016cc4bd5abde13d944c7453fc840a6cbf924db479ab7d25c4c86dcc279", "blocktime": 1537874412, "version": 2, "confirmations": 11467, "time": 1537874412, "locktime": 542997, "vsize": 371, "size": 371}