{"hash": "50435ebdd51f3bde7cc7834a8d59dc1c5fec2a5bf16237b499fe6801a8550502", "blockhash": "00000000000000000024a2167bbff67b0be802c0b01cdd79e6331c2be6459f87", "vout": [{"scriptPubKey": {"reqSigs": 1, "hex": "76a914797b790f54b54f98e44982aacbad50ae80123e2288ac", "addresses": ["1C5LgFytjrQUmwMABjwCtZF31FVAomkNnk"], "asm": "OP_DUP OP_HASH160 797b790f54b54f98e44982aacbad50ae80123e22 OP_EQUALVERIFY OP_CHECKSIG", "type": "pubkeyhash"}, "value": 0.67071663, "n": 0}], "hex": "0100000005bb1d465622d876d8a777fc2111934cbaf7e2343a2cf3625d0ef127da1169be12050000006b483045022100f238f54d0d95452d963730da4b88b8801612cd9275e5482c87264106e869364e0220039771c9069bb7b480694d35583f9851b477449b0b188d39e10e455ff2de34e7012103166a934df3983d991434213b5bc67fdb4f668e6bcba46b611ca01941c9f0dd1affffffffb851af8bba06caeac454929e19917215650b2f06507e1409d798d69055e6d93a000000006a4730440220107733e74345596a834dfb4a280c9893b858435e29d937e793b9d1c538a0431b02201f3b77c673182238bf9c81d3a8b61c545a6ada03ea37bbb0d6ece82eb31db7770121024f1b8fcf2d0caefa33f76a9352a1de5935b9d7f1231acef7d32705f9ebb46109ffffffff8c32360bd176d767a9aded455b9b4b88e7c8d06e4ecccb187aaea610d7996b3b010000006a4730440220254728176f09c392d381e6ab167aae8bc35c0e929735139f810e72c87d1368e302203ceeb63475c7e810ecec3fbe5df71932718e93b796b0ac20affdb9ad37f477b00121024f1b8fcf2d0caefa33f76a9352a1de5935b9d7f1231acef7d32705f9ebb46109ffffffffbe4a6cf861bd94b18dbc04d692a9a968bb22dfc1c83c3723538c008d0a7ca53e000000006b483045022100baa73f6902b76d59ce2da1b96500eba831953733328afc2a91e30b2892fac52a022050947ceecf8d4e04a40cf3f4bd114e8dacd6110187563681c91c43eb9392c0ab012102c3cc1bbf0d86a424edab28b0121b860abb8225acce79d90ac57fa5e68faab7a7ffffffff9c6b7ff97b05f63ed75bbb1d6f8beb37691f856477c8abf772785539f4d4a659000000006b483045022100d55e5f9fbe838a77e19595beb3366a3b45295f64f37a169b5c387a31f5b77f3e02203cb10d5c138df5d1307c5ef0ee5e5196d727c2b0cf7bc9dbeed260e625d0dbd9012103d93abbc49e3eee8ac1d119b03d7b46f84128412168153848515ff4a69b491b3affffffff01af6eff03000000001976a914797b790f54b54f98e44982aacbad50ae80123e2288ac00000000", "vin": [{"sequence": 4294967295, "scriptSig": {"hex": "483045022100f238f54d0d95452d963730da4b88b8801612cd9275e5482c87264106e869364e0220039771c9069bb7b480694d35583f9851b477449b0b188d39e10e455ff2de34e7012103166a934df3983d991434213b5bc67fdb4f668e6bcba46b611ca01941c9f0dd1a", "asm": "3045022100f238f54d0d95452d963730da4b88b8801612cd9275e5482c87264106e869364e0220039771c9069bb7b480694d35583f9851b477449b0b188d39e10e455ff2de34e7[ALL] 03166a934df3983d991434213b5bc67fdb4f668e6bcba46b611ca01941c9f0dd1a"}, "vout": 5, "txid": "12be6911da27f10e5d62f32c3a34e2f7ba4c931121fc77a7d876d82256461dbb"}, {"sequence": 4294967295, "scriptSig": {"hex": "4730440220107733e74345596a834dfb4a280c9893b858435e29d937e793b9d1c538a0431b02201f3b77c673182238bf9c81d3a8b61c545a6ada03ea37bbb0d6ece82eb31db7770121024f1b8fcf2d0caefa33f76a9352a1de5935b9d7f1231acef7d32705f9ebb46109", "asm": "30440220107733e74345596a834dfb4a280c9893b858435e29d937e793b9d1c538a0431b02201f3b77c673182238bf9c81d3a8b61c545a6ada03ea37bbb0d6ece82eb31db777[ALL] 024f1b8fcf2d0caefa33f76a9352a1de5935b9d7f1231acef7d32705f9ebb46109"}, "vout": 0, "txid": "3ad9e65590d698d709147e50062f0b65157291199e9254c4eaca06ba8baf51b8"}, {"sequence": 4294967295, "scriptSig": {"hex": "4730440220254728176f09c392d381e6ab167aae8bc35c0e929735139f810e72c87d1368e302203ceeb63475c7e810ecec3fbe5df71932718e93b796b0ac20affdb9ad37f477b00121024f1b8fcf2d0caefa33f76a9352a1de5935b9d7f1231acef7d32705f9ebb46109", "asm": "30440220254728176f09c392d381e6ab167aae8bc35c0e929735139f810e72c87d1368e302203ceeb63475c7e810ecec3fbe5df71932718e93b796b0ac20affdb9ad37f477b0[ALL] 024f1b8fcf2d0caefa33f76a9352a1de5935b9d7f1231acef7d32705f9ebb46109"}, "vout": 1, "txid": "3b6b99d710a6ae7a18cbcc4e6ed0c8e7884b9b5b45edada967d776d10b36328c"}, {"sequence": 4294967295, "scriptSig": {"hex": "483045022100baa73f6902b76d59ce2da1b96500eba831953733328afc2a91e30b2892fac52a022050947ceecf8d4e04a40cf3f4bd114e8dacd6110187563681c91c43eb9392c0ab012102c3cc1bbf0d86a424edab28b0121b860abb8225acce79d90ac57fa5e68faab7a7", "asm": "3045022100baa73f6902b76d59ce2da1b96500eba831953733328afc2a91e30b2892fac52a022050947ceecf8d4e04a40cf3f4bd114e8dacd6110187563681c91c43eb9392c0ab[ALL] 02c3cc1bbf0d86a424edab28b0121b860abb8225acce79d90ac57fa5e68faab7a7"}, "vout": 0, "txid": "3ea57c0a8d008c5323373cc8c1df22bb68a9a992d604bc8db194bd61f86c4abe"}, {"sequence": 4294967295, "scriptSig": {"hex": "483045022100d55e5f9fbe838a77e19595beb3366a3b45295f64f37a169b5c387a31f5b77f3e02203cb10d5c138df5d1307c5ef0ee5e5196d727c2b0cf7bc9dbeed260e625d0dbd9012103d93abbc49e3eee8ac1d119b03d7b46f84128412168153848515ff4a69b491b3a", "asm": "3045022100d55e5f9fbe838a77e19595beb3366a3b45295f64f37a169b5c387a31f5b77f3e02203cb10d5c138df5d1307c5ef0ee5e5196d727c2b0cf7bc9dbeed260e625d0dbd9[ALL] 03d93abbc49e3eee8ac1d119b03d7b46f84128412168153848515ff4a69b491b3a"}, "vout": 0, "txid": "59a6d4f439557872f7abc87764851f6937eb8b6f1dbb5bd73ef6057bf97f6b9c"}], "txid": "50435ebdd51f3bde7cc7834a8d59dc1c5fec2a5bf16237b499fe6801a8550502", "blocktime": 1537870564, "version": 1, "confirmations": 11515, "time": 1537870564, "locktime": 0, "vsize": 782, "size": 782}