{"hash": "504a3021c0caaee3e0047deb7db6d52fd6e48333b8abf8e37292e6f8370a7f9e", "blockhash": "000000000000000000022b45ed06c6f4ccd3cf7fb5ba4856ebd2e58215665228", "vout": [{"scriptPubKey": {"reqSigs": 1, "hex": "76a914d243e6abb9a60fbff430b421d2df4b7d59ec186088ac", "addresses": ["1LAnF8h3qMGx3TSwNUHVneBZUEpwE4gu3D"], "asm": "OP_DUP OP_HASH160 d243e6abb9a60fbff430b421d2df4b7d59ec1860 OP_EQUALVERIFY OP_CHECKSIG", "type": "pubkeyhash"}, "value": 0.00076972, "n": 0}, {"scriptPubKey": {"reqSigs": 1, "hex": "76a9143851f34d13937b673a7d24a1950bb5b21ce94af388ac", "addresses": ["168o1kqNquEJeR9vosUB5fw4eAwcVAgh8P"], "asm": "OP_DUP OP_HASH160 3851f34d13937b673a7d24a1950bb5b21ce94af3 OP_EQUALVERIFY OP_CHECKSIG", "type": "pubkeyhash"}, "value": 5.46e-06, "n": 1}, {"scriptPubKey": {"type": "nulldata", "hex": "6a146f6d6e69000000000000001f0000001695a69353", "asm": "OP_RETURN 6f6d6e69000000000000001f0000001695a69353"}, "value": 0.0, "n": 2}], "hex": "0100000002785dd6c5cf939d7f96e22ab497f8b6c7b268af61f7ad2071680de7b77ae53e87020000006a473044022047d792313deb393e1d57e3a714fe8c613ad37a48903e4f8fc8961bef2f7c9aed0220728f28a91fe4ca90cd836dcf0c79b90f857d1db1428f210fe0833f71e9c0562d0121027a318f75ac881fc26ee7670e97258e06ea33a3a3576251853d905f31afa248deffffffffece32f2227fa69056b48c3c8d93a838712fbf4e5c86e4e9238106115baf0ac36000000006a473044022032e9e1e548f50ac4c9236a9918ddd9d2dc7a4eb25a9ede79e6cabd676370b7c902204d5d41e67123e537a40b8674a13581be3075103d307032a22b02d704321a467101210271977291b74f1f5f5c42157e8aae804664eaaeccfd097918450d37f28fb94d77ffffffff03ac2c0100000000001976a914d243e6abb9a60fbff430b421d2df4b7d59ec186088ac22020000000000001976a9143851f34d13937b673a7d24a1950bb5b21ce94af388ac0000000000000000166a146f6d6e69000000000000001f0000001695a6935300000000", "vin": [{"sequence": 4294967295, "scriptSig": {"hex": "473044022047d792313deb393e1d57e3a714fe8c613ad37a48903e4f8fc8961bef2f7c9aed0220728f28a91fe4ca90cd836dcf0c79b90f857d1db1428f210fe0833f71e9c0562d0121027a318f75ac881fc26ee7670e97258e06ea33a3a3576251853d905f31afa248de", "asm": "3044022047d792313deb393e1d57e3a714fe8c613ad37a48903e4f8fc8961bef2f7c9aed0220728f28a91fe4ca90cd836dcf0c79b90f857d1db1428f210fe0833f71e9c0562d[ALL] 027a318f75ac881fc26ee7670e97258e06ea33a3a3576251853d905f31afa248de"}, "vout": 2, "txid": "873ee57ab7e70d687120adf761af68b2c7b6f897b42ae2967f9d93cfc5d65d78"}, {"sequence": 4294967295, "scriptSig": {"hex": "473044022032e9e1e548f50ac4c9236a9918ddd9d2dc7a4eb25a9ede79e6cabd676370b7c902204d5d41e67123e537a40b8674a13581be3075103d307032a22b02d704321a467101210271977291b74f1f5f5c42157e8aae804664eaaeccfd097918450d37f28fb94d77", "asm": "3044022032e9e1e548f50ac4c9236a9918ddd9d2dc7a4eb25a9ede79e6cabd676370b7c902204d5d41e67123e537a40b8674a13581be3075103d307032a22b02d704321a4671[ALL] 0271977291b74f1f5f5c42157e8aae804664eaaeccfd097918450d37f28fb94d77"}, "vout": 0, "txid": "36acf0ba15611038924e6ec8e5f4fb1287833ad9c8c3486b0569fa27222fe3ec"}], "txid": "504a3021c0caaee3e0047deb7db6d52fd6e48333b8abf8e37292e6f8370a7f9e", "blocktime": 1537869901, "version": 1, "confirmations": 11522, "time": 1537869901, "locktime": 0, "vsize": 403, "size": 403}