{"hash": "25900ffb091db5c97c32c3cd8abb38a74806e941799c46a54b4d4a5e4d7c7efe", "blockhash": "0000000000000000001cda96e906b7601b7a6fb1a3b62bca570a9e5d8f4b3de1", "vout": [{"scriptPubKey": {"reqSigs": 1, "hex": "001400a6d5937a65cc752574c3d027c631dfcdcb7fad", "addresses": ["bc1qqzndtym6vhx82ft5c0gz0333mlxukladc3v42v"], "asm": "0 00a6d5937a65cc752574c3d027c631dfcdcb7fad", "type": "witness_v0_keyhash"}, "value": 0.0165816, "n": 0}, {"scriptPubKey": {"reqSigs": 1, "hex": "76a91439c559cdbbfdabd9333c116a4d4d35ccfbfe2ad488ac", "addresses": ["16GTw7GJNawuXD4eNFSKmfLULJArn9f5D3"], "asm": "OP_DUP OP_HASH160 39c559cdbbfdabd9333c116a4d4d35ccfbfe2ad4 OP_EQUALVERIFY OP_CHECKSIG", "type": "pubkeyhash"}, "value": 0.01561257, "n": 1}], "hex": "010000000001016abf6f0421a78f06212d7a7bcae5af56fecdd4613b32423d29bb0baa0ac6eebf0100000000ffffffff02304d19000000000016001400a6d5937a65cc752574c3d027c631dfcdcb7fada9d21700000000001976a91439c559cdbbfdabd9333c116a4d4d35ccfbfe2ad488ac0247304402201d6ba812ec57dba4b50b8da53d3ad8116893973c3297fcbd8841086096fb466d02206534d6ed9ff42d004bdb07a824efb7a7aa362441e5ca68b4ebe8717b68f31188012102b8f28388d2765e5ee3ab406dce28e4004f0446bc9e4f5e4a5462b6fef5b8dc0100000000", "vin": [{"txinwitness": ["304402201d6ba812ec57dba4b50b8da53d3ad8116893973c3297fcbd8841086096fb466d02206534d6ed9ff42d004bdb07a824efb7a7aa362441e5ca68b4ebe8717b68f3118801", "02b8f28388d2765e5ee3ab406dce28e4004f0446bc9e4f5e4a5462b6fef5b8dc01"], "sequence": 4294967295, "scriptSig": {"hex": "", "asm": ""}, "vout": 1, "txid": "bfeec60aaa0bbb293d42323b61d4cdfe56afe5ca7b7a2d21068fa721046fbf6a"}], "txid": "5052c822bfb433cbb7ece8e2d4e25d097fee0c11985d19d68986ed5aabbcea79", "blocktime": 1537873282, "version": 1, "confirmations": 11484, "time": 1537873282, "locktime": 0, "vsize": 144, "size": 225}