{"hash": "5053dff4573f8bf635c5e6ab403d90810da4ce78afde7150e17fdf32b0ed4fa8", "blockhash": "0000000000000000001f76057863aec43deb6fa401d9628bb513d65a8098bfab", "vout": [{"scriptPubKey": {"reqSigs": 1, "hex": "76a9148db25ea090e80b58372813ca321dd19ab2b82d9b88ac", "addresses": ["1DvDxPVUf7ves4WcGAdQ4UaJhHNXndGRYL"], "asm": "OP_DUP OP_HASH160 8db25ea090e80b58372813ca321dd19ab2b82d9b OP_EQUALVERIFY OP_CHECKSIG", "type": "pubkeyhash"}, "value": 0.0015297, "n": 0}, {"scriptPubKey": {"reqSigs": 1, "hex": "76a9149092b093f3ca1589b35badc550a22ccfe3c4060488ac", "addresses": ["1EBS2onTmVbG1WF59aTcyx2gUUBY4aGTMV"], "asm": "OP_DUP OP_HASH160 9092b093f3ca1589b35badc550a22ccfe3c40604 OP_EQUALVERIFY OP_CHECKSIG", "type": "pubkeyhash"}, "value": 0.03539291, "n": 1}], "hex": "010000000160d86868bc5eef5a32f05ad7b3cd68698dd818439d52bba574168761046ea02b010000006a47304402206c04d23abb7249150ab69cc2b40290e8b4c626c1452791e6368ace77726716360220778947e5d9fa26d1a629072865c7ace53d629652d5e7108640c587717cec8a400121038cad9985ae35d7ec16d5f70412efba91d7f20ae14bdfa718c460cdd906e3752fffffffff028a550200000000001976a9148db25ea090e80b58372813ca321dd19ab2b82d9b88ac5b013600000000001976a9149092b093f3ca1589b35badc550a22ccfe3c4060488ac00000000", "vin": [{"sequence": 4294967295, "scriptSig": {"hex": "47304402206c04d23abb7249150ab69cc2b40290e8b4c626c1452791e6368ace77726716360220778947e5d9fa26d1a629072865c7ace53d629652d5e7108640c587717cec8a400121038cad9985ae35d7ec16d5f70412efba91d7f20ae14bdfa718c460cdd906e3752f", "asm": "304402206c04d23abb7249150ab69cc2b40290e8b4c626c1452791e6368ace77726716360220778947e5d9fa26d1a629072865c7ace53d629652d5e7108640c587717cec8a40[ALL] 038cad9985ae35d7ec16d5f70412efba91d7f20ae14bdfa718c460cdd906e3752f"}, "vout": 1, "txid": "2ba06e0461871674a5bb529d4318d88d6968cdb3d75af0325aef5ebc6868d860"}], "txid": "5053dff4573f8bf635c5e6ab403d90810da4ce78afde7150e17fdf32b0ed4fa8", "blocktime": 1537873891, "version": 1, "confirmations": 11478, "time": 1537873891, "locktime": 0, "vsize": 225, "size": 225}