{"hash": "5059801058043cb813ddc09af1d5f2729627fb7a2ceb9baffed44b5b518d60a9", "blockhash": "0000000000000000000e13cef7c366c0283d82e591d1acd082e914b08063cdf1", "vout": [{"scriptPubKey": {"reqSigs": 1, "hex": "76a914d243e6abb9a60fbff430b421d2df4b7d59ec186088ac", "addresses": ["1LAnF8h3qMGx3TSwNUHVneBZUEpwE4gu3D"], "asm": "OP_DUP OP_HASH160 d243e6abb9a60fbff430b421d2df4b7d59ec1860 OP_EQUALVERIFY OP_CHECKSIG", "type": "pubkeyhash"}, "value": 0.00076972, "n": 0}, {"scriptPubKey": {"reqSigs": 1, "hex": "76a9143851f34d13937b673a7d24a1950bb5b21ce94af388ac", "addresses": ["168o1kqNquEJeR9vosUB5fw4eAwcVAgh8P"], "asm": "OP_DUP OP_HASH160 3851f34d13937b673a7d24a1950bb5b21ce94af3 OP_EQUALVERIFY OP_CHECKSIG", "type": "pubkeyhash"}, "value": 5.46e-06, "n": 1}, {"scriptPubKey": {"type": "nulldata", "hex": "6a146f6d6e69000000000000001f0000003c11ff9400", "asm": "OP_RETURN 6f6d6e69000000000000001f0000003c11ff9400"}, "value": 0.0, "n": 2}], "hex": "01000000021d88a0216310f69d0f793f41783ce5698d6172ad6c2baaa1353c1fa45a6a37d2020000006a47304402207ab5c8d14570bb6489957b74e4fdf9ef1617ac7b90a0679db7d3c81771a1a2ea022059316e43674dea1692f5b72d87bcbd160dd2c43996e120571c2d4c18f1187760012102c3934d7994cefa594a172a1e012d0fda021ee012dd916c7515efc94925142e3fffffffffa9b0fdfa2a92f74da5871ed0d81049dd139c384e3430174b668b92c5b599bc47000000006a47304402207c1f227e506a2a5a53ec672cfd310a8d5f1bb2b74759ba63705e30557541fa3c02204f89864f8dee4c0a74dad647ef201e0326f7b87dfad663e9b2321f4a5eabdc7b01210271977291b74f1f5f5c42157e8aae804664eaaeccfd097918450d37f28fb94d77ffffffff03ac2c0100000000001976a914d243e6abb9a60fbff430b421d2df4b7d59ec186088ac22020000000000001976a9143851f34d13937b673a7d24a1950bb5b21ce94af388ac0000000000000000166a146f6d6e69000000000000001f0000003c11ff940000000000", "vin": [{"sequence": 4294967295, "scriptSig": {"hex": "47304402207ab5c8d14570bb6489957b74e4fdf9ef1617ac7b90a0679db7d3c81771a1a2ea022059316e43674dea1692f5b72d87bcbd160dd2c43996e120571c2d4c18f1187760012102c3934d7994cefa594a172a1e012d0fda021ee012dd916c7515efc94925142e3f", "asm": "304402207ab5c8d14570bb6489957b74e4fdf9ef1617ac7b90a0679db7d3c81771a1a2ea022059316e43674dea1692f5b72d87bcbd160dd2c43996e120571c2d4c18f1187760[ALL] 02c3934d7994cefa594a172a1e012d0fda021ee012dd916c7515efc94925142e3f"}, "vout": 2, "txid": "d2376a5aa41f3c35a1aa2b6cad72618d69e53c78413f790f9df6106321a0881d"}, {"sequence": 4294967295, "scriptSig": {"hex": "47304402207c1f227e506a2a5a53ec672cfd310a8d5f1bb2b74759ba63705e30557541fa3c02204f89864f8dee4c0a74dad647ef201e0326f7b87dfad663e9b2321f4a5eabdc7b01210271977291b74f1f5f5c42157e8aae804664eaaeccfd097918450d37f28fb94d77", "asm": "304402207c1f227e506a2a5a53ec672cfd310a8d5f1bb2b74759ba63705e30557541fa3c02204f89864f8dee4c0a74dad647ef201e0326f7b87dfad663e9b2321f4a5eabdc7b[ALL] 0271977291b74f1f5f5c42157e8aae804664eaaeccfd097918450d37f28fb94d77"}, "vout": 0, "txid": "47bc99b5c5928b664b1730344e389c13dd4910d8d01e87a54df7922afafdb0a9"}], "txid": "5059801058043cb813ddc09af1d5f2729627fb7a2ceb9baffed44b5b518d60a9", "blocktime": 1537871767, "version": 1, "confirmations": 11491, "time": 1537871767, "locktime": 0, "vsize": 403, "size": 403}