{"hash": "7d36c24660a2bd72190f4364316f09264e32a125f7e908a6f157e7b15ee6bdb9", "blockhash": "0000000000000000001e0dab787dd257d1dbfcb92a98c2207d5e1078be1f4165", "vout": [{"scriptPubKey": {"reqSigs": 1, "hex": "a914c8d121e1d114637b39d08a7e2e9fd3e4e662785287", "addresses": ["3KzqbgR6Ji2xuKxKDgucXsSAJm68a4TgYy"], "asm": "OP_HASH160 c8d121e1d114637b39d08a7e2e9fd3e4e6627852 OP_EQUAL", "type": "scripthash"}, "value": 0.07946, "n": 0}, {"scriptPubKey": {"reqSigs": 1, "hex": "a914ca320a05173155b6a39bf7bd08a232f8ba09d45987", "addresses": ["3L88N5EtQFUyR4efL3aKHRPDVE5x2CSBoV"], "asm": "OP_HASH160 ca320a05173155b6a39bf7bd08a232f8ba09d459 OP_EQUAL", "type": "scripthash"}, "value": 0.35961703, "n": 1}], "hex": "02000000000101eeb88dd39a8e4ae9ce1d57c0df441ae678844752c6b121ea5af3eb1f22d484ba010000001716001442907f0afbe5bc50657bacf4b1975cbf87bafe2afdffffff02103f79000000000017a914c8d121e1d114637b39d08a7e2e9fd3e4e66278528767bb24020000000017a914ca320a05173155b6a39bf7bd08a232f8ba09d459870247304402202899292911a155fff15ec0e2a33f756a3b921bb273f70b02f2ed21df95952518022012078350ff7a202d65795654c57ad8f6d570d2f9234fec9fb373db2ab3a3b5480121029a9831793b58abdc943b9ad2eba412659682697ef3c4221675368e58132410b412490800", "vin": [{"txinwitness": ["304402202899292911a155fff15ec0e2a33f756a3b921bb273f70b02f2ed21df95952518022012078350ff7a202d65795654c57ad8f6d570d2f9234fec9fb373db2ab3a3b54801", "029a9831793b58abdc943b9ad2eba412659682697ef3c4221675368e58132410b4"], "sequence": 4294967293, "scriptSig": {"hex": "16001442907f0afbe5bc50657bacf4b1975cbf87bafe2a", "asm": "001442907f0afbe5bc50657bacf4b1975cbf87bafe2a"}, "vout": 1, "txid": "ba84d4221febf35aea21b1c652478478e61a44dfc0571dcee94a8e9ad38db8ee"}], "txid": "505dc5c87b8146615ee4577b914dc57e2c8b7db5501ea864083ac2b199f806fd", "blocktime": 1537872475, "version": 2, "confirmations": 11486, "time": 1537872475, "locktime": 542994, "vsize": 166, "size": 247}