{"hash": "12d13f0f864b2ec2b900d91129c8ccf18ad9ae2a3355bc5622221e3a388349df", "blockhash": "00000000000000000018f53835495a110e01622372bf6ae95dc86f2b0ab887b0", "vout": [{"scriptPubKey": {"reqSigs": 1, "hex": "76a9148dce5fc1e415529841e6909824fe9dd3e626a72788ac", "addresses": ["1DvoWAnFa6f76tfTdUcuDP1yttsDhg2XCw"], "asm": "OP_DUP OP_HASH160 8dce5fc1e415529841e6909824fe9dd3e626a727 OP_EQUALVERIFY OP_CHECKSIG", "type": "pubkeyhash"}, "value": 0.0023186, "n": 0}, {"scriptPubKey": {"reqSigs": 1, "hex": "a914e3b9b16a38d9eccc75f56dfd47c8265bc332129d87", "addresses": ["3NT7mGSLmA8w15j5GXCsJCo25NVEB9NUFs"], "asm": "OP_HASH160 e3b9b16a38d9eccc75f56dfd47c8265bc332129d OP_EQUAL", "type": "scripthash"}, "value": 0.01007143, "n": 1}], "hex": "020000000001025a3878af6ab795de07028b0d18b13021f7aecf4e1158f8aeaf393f5331d2725901000000171600148d98092a62c1ef65874e212c24a83d8c409dfb4bfeffffff73fd9dcf096fbe91785871cd188116de84850292452b70d6285fc5a7859748c700000000171600143558857ce209eec820e3e74ba06927546a35e2f1feffffff02b4890300000000001976a9148dce5fc1e415529841e6909824fe9dd3e626a72788ac275e0f000000000017a914e3b9b16a38d9eccc75f56dfd47c8265bc332129d8702483045022100fdebf3cd3311145582031838dd2f5a01d8effe0c45d19eef19fba20063a6306d02205716b966f2ea95174133abf6568c12843fe4bc51e11ea17b1de4d27dad57ec22012102032b42d75621e65f36bc1810c2b2a97c03533739e10c654f97c5abc0936362e6024830450221008ce0400ec588dd4291f74eb14042a22e8d3c3238ea08fd7acb575b70b430ef5302205bd0ff6e8fe54a1c0c6c3dd1121ac3a0386f16515d62596f64485c579f82b549012103a186719fd4621f8e73cf9bc2bcbac8cd3980099538e2980441cea5915a21d79d0e490800", "vin": [{"txinwitness": ["3045022100fdebf3cd3311145582031838dd2f5a01d8effe0c45d19eef19fba20063a6306d02205716b966f2ea95174133abf6568c12843fe4bc51e11ea17b1de4d27dad57ec2201", "02032b42d75621e65f36bc1810c2b2a97c03533739e10c654f97c5abc0936362e6"], "sequence": 4294967294, "scriptSig": {"hex": "1600148d98092a62c1ef65874e212c24a83d8c409dfb4b", "asm": "00148d98092a62c1ef65874e212c24a83d8c409dfb4b"}, "vout": 1, "txid": "5972d231533f39afaef858114ecfaef72130b1180d8b0207de95b76aaf78385a"}, {"txinwitness": ["30450221008ce0400ec588dd4291f74eb14042a22e8d3c3238ea08fd7acb575b70b430ef5302205bd0ff6e8fe54a1c0c6c3dd1121ac3a0386f16515d62596f64485c579f82b54901", "03a186719fd4621f8e73cf9bc2bcbac8cd3980099538e2980441cea5915a21d79d"], "sequence": 4294967294, "scriptSig": {"hex": "1600143558857ce209eec820e3e74ba06927546a35e2f1", "asm": "00143558857ce209eec820e3e74ba06927546a35e2f1"}, "vout": 0, "txid": "c7489785a7c55f28d6702b4592028584de168118cd71587891be6f09cf9dfd73"}], "txid": "5060d05ed19c4c721c6be98bccb2dc34d9648333472c876a808bf2e22e4b8bb0", "blocktime": 1537870928, "version": 2, "confirmations": 11514, "time": 1537870928, "locktime": 542990, "vsize": 259, "size": 422}