{"hash": "1c9e29aba8108b9a777d3cc7bd91408c3bc1a7110e49b8aeb117774fcc4f488a", "blockhash": "0000000000000000000e13cef7c366c0283d82e591d1acd082e914b08063cdf1", "vout": [{"scriptPubKey": {"reqSigs": 1, "hex": "a914c6268a7c7fe2a212290a4ec916796c3348247d7387", "addresses": ["3KkjtQ761jhdDYwbePpzdrAgob1uCV57u3"], "asm": "OP_HASH160 c6268a7c7fe2a212290a4ec916796c3348247d73 OP_EQUAL", "type": "scripthash"}, "value": 0.0004, "n": 0}, {"scriptPubKey": {"reqSigs": 1, "hex": "0014d5e491140034b2bf67e4bba2945bea77b941a45d", "addresses": ["bc1q6hjfz9qqxjet7elyhw3fgkl2w7u5rfzad75mes"], "asm": "0 d5e491140034b2bf67e4bba2945bea77b941a45d", "type": "witness_v0_keyhash"}, "value": 1.435e-05, "n": 1}], "hex": "010000000001015e7ca2531f3cdba6bb6fa91aa6033ebd35b7414523890a2c75f0dc78d3e0e74c01000000171600148dd78c29f9e06784dfe732f1513a419c50b897d4ffffffff02409c00000000000017a914c6268a7c7fe2a212290a4ec916796c3348247d73879b05000000000000160014d5e491140034b2bf67e4bba2945bea77b941a45d02473044022022c4d9fd5269a89566c4b9fe58774c7d415e846aa982a2eab69f5e2ba1aea80002205d0bb9bfe64ece07c37f8575ca48fdf9342be6c65954695afa05536aaed04d0a01210230c9a7ee8e6b4f4c9ed7b00ca0eec8ca935c9087c6f70e4d3137db1dc7113b2200000000", "vin": [{"txinwitness": ["3044022022c4d9fd5269a89566c4b9fe58774c7d415e846aa982a2eab69f5e2ba1aea80002205d0bb9bfe64ece07c37f8575ca48fdf9342be6c65954695afa05536aaed04d0a01", "0230c9a7ee8e6b4f4c9ed7b00ca0eec8ca935c9087c6f70e4d3137db1dc7113b22"], "sequence": 4294967295, "scriptSig": {"hex": "1600148dd78c29f9e06784dfe732f1513a419c50b897d4", "asm": "00148dd78c29f9e06784dfe732f1513a419c50b897d4"}, "vout": 1, "txid": "4ce7e0d378dcf0752c0a89234541b735bd3e03a61aa96fbba6db3c1f53a27c5e"}], "txid": "506144ac82f3d9a51059df7bd634c814385fbe529da89cbaa1ca12d302499a99", "blocktime": 1537871767, "version": 1, "confirmations": 11495, "time": 1537871767, "locktime": 0, "vsize": 165, "size": 246}