{"hash": "5065034253a5b616c3d511a58d9265854e85ed17253bc609a2d82271791dc0d0", "blockhash": "0000000000000000001e0dab787dd257d1dbfcb92a98c2207d5e1078be1f4165", "vout": [{"scriptPubKey": {"reqSigs": 1, "hex": "76a914bff30b7851d22ef43370d56f83c9611ccae570ba88ac", "addresses": ["1JVwDgwkYYQDHaR4yZq6RpsuLaR8KgJxEo"], "asm": "OP_DUP OP_HASH160 bff30b7851d22ef43370d56f83c9611ccae570ba OP_EQUALVERIFY OP_CHECKSIG", "type": "pubkeyhash"}, "value": 0.0222926, "n": 0}, {"scriptPubKey": {"type": "nulldata", "hex": "6a4c50000077ac0001822e42dd8bd1a4fd87de89c8af6c953dd567cf27e7e3ef3236678a625097a1e44d6c54af0dabd960e864e2dc6a695baa10a50612e85f7aeb84a5bc9a9526289ac0f6612cd74e33776ee4", "asm": "OP_RETURN 000077ac0001822e42dd8bd1a4fd87de89c8af6c953dd567cf27e7e3ef3236678a625097a1e44d6c54af0dabd960e864e2dc6a695baa10a50612e85f7aeb84a5bc9a9526289ac0f6612cd74e33776ee4"}, "value": 0.0, "n": 1}], "hex": "01000000015d14ac4e957f2dd96b967da066523001db326352f27b9e042aafd04d93cb29a8000000006b483045022100af0824ccfa3a50abdfcd254d362074dfcc9867f1499687559b92c8de6de8a277022013fb36a5e6abb4c9626fe0c4f51f83a5b6b58908deaf363dff82c6b8193a21630121031f18779b58037b22c63e41a31bb926d5acf5fccaad29a5fb240667c3e0789aaeffffffff020c042200000000001976a914bff30b7851d22ef43370d56f83c9611ccae570ba88ac0000000000000000536a4c50000077ac0001822e42dd8bd1a4fd87de89c8af6c953dd567cf27e7e3ef3236678a625097a1e44d6c54af0dabd960e864e2dc6a695baa10a50612e85f7aeb84a5bc9a9526289ac0f6612cd74e33776ee400000000", "vin": [{"sequence": 4294967295, "scriptSig": {"hex": "483045022100af0824ccfa3a50abdfcd254d362074dfcc9867f1499687559b92c8de6de8a277022013fb36a5e6abb4c9626fe0c4f51f83a5b6b58908deaf363dff82c6b8193a21630121031f18779b58037b22c63e41a31bb926d5acf5fccaad29a5fb240667c3e0789aae", "asm": "3045022100af0824ccfa3a50abdfcd254d362074dfcc9867f1499687559b92c8de6de8a277022013fb36a5e6abb4c9626fe0c4f51f83a5b6b58908deaf363dff82c6b8193a2163[ALL] 031f18779b58037b22c63e41a31bb926d5acf5fccaad29a5fb240667c3e0789aae"}, "vout": 0, "txid": "a829cb934dd0af2a049e7bf2526332db01305266a07d966bd92d7f954eac145d"}], "txid": "5065034253a5b616c3d511a58d9265854e85ed17253bc609a2d82271791dc0d0", "blocktime": 1537872475, "version": 1, "confirmations": 11486, "time": 1537872475, "locktime": 0, "vsize": 284, "size": 284}