{"hash": "5065d390f64f612415339d392547a181e68b835775a34f4ab8893818b12288c3", "blockhash": "0000000000000000000dcc0f55137456b1a82d3642486a52398922ac4d620174", "vout": [{"scriptPubKey": {"reqSigs": 1, "hex": "76a914faae88771dca80f92eb1a8e86f0f0efa046a0ce088ac", "addresses": ["1PrV1jD76Ra4KxesU2HmuCF6KEv7gejxmi"], "asm": "OP_DUP OP_HASH160 faae88771dca80f92eb1a8e86f0f0efa046a0ce0 OP_EQUALVERIFY OP_CHECKSIG", "type": "pubkeyhash"}, "value": 0.00025745, "n": 0}, {"scriptPubKey": {"reqSigs": 1, "hex": "76a91416fba9ff6cc50f60a5c990881575a1ada7f4e38988ac", "addresses": ["136XM9Rh67K2mpoF879AN3tN3QotDj6yvy"], "asm": "OP_DUP OP_HASH160 16fba9ff6cc50f60a5c990881575a1ada7f4e389 OP_EQUALVERIFY OP_CHECKSIG", "type": "pubkeyhash"}, "value": 0.00124682, "n": 1}], "hex": "010000000181fbd81113b00539f43334f16f1822fc814466ee4fd6e11af7bf79c7501e4029010000006a47304402202c2ae3fc32c6ac3ce5323bdf5ae529bd4217b9196c16b1b62817b1eada6cbeaa0220775151b42a5558a86f22aad75edbdfc0f023c0c6e98c249899a086eee5e72137012103b6d811fe4b6f023113943ed4cc86255ae5192cf136feac2bf24c744d9ebc9ef7ffffffff0291640000000000001976a914faae88771dca80f92eb1a8e86f0f0efa046a0ce088ac0ae70100000000001976a91416fba9ff6cc50f60a5c990881575a1ada7f4e38988ac00000000", "vin": [{"sequence": 4294967295, "scriptSig": {"hex": "47304402202c2ae3fc32c6ac3ce5323bdf5ae529bd4217b9196c16b1b62817b1eada6cbeaa0220775151b42a5558a86f22aad75edbdfc0f023c0c6e98c249899a086eee5e72137012103b6d811fe4b6f023113943ed4cc86255ae5192cf136feac2bf24c744d9ebc9ef7", "asm": "304402202c2ae3fc32c6ac3ce5323bdf5ae529bd4217b9196c16b1b62817b1eada6cbeaa0220775151b42a5558a86f22aad75edbdfc0f023c0c6e98c249899a086eee5e72137[ALL] 03b6d811fe4b6f023113943ed4cc86255ae5192cf136feac2bf24c744d9ebc9ef7"}, "vout": 1, "txid": "29401e50c779bff71ae1d64fee664481fc22186ff13433f43905b01311d8fb81"}], "txid": "5065d390f64f612415339d392547a181e68b835775a34f4ab8893818b12288c3", "blocktime": 1537870268, "version": 1, "confirmations": 11518, "time": 1537870268, "locktime": 0, "vsize": 225, "size": 225}