{"hash": "5068cc42692d8a31130bc9f368181ac0ce8ea8d9e3bba4b1d91ef3af759712e8", "blockhash": "000000000000000000205f8b0775d31398ef75b89a5e8ec8d2c57b4dc0ac4c20", "vout": [{"scriptPubKey": {"reqSigs": 1, "hex": "76a9147bdc3ae7a904eeb026b7bc96a0253fe86ba6024b88ac", "addresses": ["1CHuwT8hi5j82fcwo3VHzj9UNKvbyRKJqa"], "asm": "OP_DUP OP_HASH160 7bdc3ae7a904eeb026b7bc96a0253fe86ba6024b OP_EQUALVERIFY OP_CHECKSIG", "type": "pubkeyhash"}, "value": 0.00643126, "n": 0}, {"scriptPubKey": {"reqSigs": 1, "hex": "76a914a16a5b3016e7c9bb416acf30ce6b16fc9c6fc84e88ac", "addresses": ["1FiVCeJjEfsBs5ZKP2iQdTAP9yiEF2vgu4"], "asm": "OP_DUP OP_HASH160 a16a5b3016e7c9bb416acf30ce6b16fc9c6fc84e OP_EQUALVERIFY OP_CHECKSIG", "type": "pubkeyhash"}, "value": 0.04165335, "n": 1}], "hex": "0100000001459937ece3639278c94be0ef62e1b9987ef11d1bdedfa002dc6dec7274726af7000000006a473044022006dc5623497967f636b0a4fd3873436e4e2fb886ed193c668ca4a1da297d667602206bedce3c88cc96616b69fa82210394533ae4aee307699143b240358b96b2a0050121036b3fbe8019fac955dcf35fc1a06426d0cace729a1ffac273ef02284719fe2c41ffffffff0236d00900000000001976a9147bdc3ae7a904eeb026b7bc96a0253fe86ba6024b88acd78e3f00000000001976a914a16a5b3016e7c9bb416acf30ce6b16fc9c6fc84e88ac00000000", "vin": [{"sequence": 4294967295, "scriptSig": {"hex": "473044022006dc5623497967f636b0a4fd3873436e4e2fb886ed193c668ca4a1da297d667602206bedce3c88cc96616b69fa82210394533ae4aee307699143b240358b96b2a0050121036b3fbe8019fac955dcf35fc1a06426d0cace729a1ffac273ef02284719fe2c41", "asm": "3044022006dc5623497967f636b0a4fd3873436e4e2fb886ed193c668ca4a1da297d667602206bedce3c88cc96616b69fa82210394533ae4aee307699143b240358b96b2a005[ALL] 036b3fbe8019fac955dcf35fc1a06426d0cace729a1ffac273ef02284719fe2c41"}, "vout": 0, "txid": "f76a727472ec6ddc02a0dfde1b1df17e98b9e162efe04bc9789263e3ec379945"}], "txid": "5068cc42692d8a31130bc9f368181ac0ce8ea8d9e3bba4b1d91ef3af759712e8", "blocktime": 1537871175, "version": 1, "confirmations": 11511, "time": 1537871175, "locktime": 0, "vsize": 225, "size": 225}