{"hash": "46bed5b2a224f518e9f1d9646397a3dad83860115253a04b277df11180a6c352", "blockhash": "0000000000000000000e13cef7c366c0283d82e591d1acd082e914b08063cdf1", "vout": [{"scriptPubKey": {"reqSigs": 1, "hex": "a91449d7e96499e76d96ef877a2fcb98823c8bccba2187", "addresses": ["38RTuMXR3rjgmqC2TwiJHrCLzc9nbGoNw7"], "asm": "OP_HASH160 49d7e96499e76d96ef877a2fcb98823c8bccba21 OP_EQUAL", "type": "scripthash"}, "value": 2.688e-05, "n": 0}], "hex": "01000000000101e18b8b9484116c14e9c50d826c2c854c68ddf65e421d62a857cc536c9195d45800000000171600149bd40f2c098e71e8c9bba8d6fc0f7816ef174e92ffffffff01800a00000000000017a91449d7e96499e76d96ef877a2fcb98823c8bccba218702483045022100bdd08999c80fea5a4b4bc8b1abbae74511a42241017bcd52609ca88692f9cd680220346c71d1a2b0df006dccd5de6670a246b6c822149b8d620cba3d2431ccc53e33012103d6b971332ac42a95f71b2f144e9065c39f34dea62dbc8e0605c99a85797775cc00000000", "vin": [{"txinwitness": ["3045022100bdd08999c80fea5a4b4bc8b1abbae74511a42241017bcd52609ca88692f9cd680220346c71d1a2b0df006dccd5de6670a246b6c822149b8d620cba3d2431ccc53e3301", "03d6b971332ac42a95f71b2f144e9065c39f34dea62dbc8e0605c99a85797775cc"], "sequence": 4294967295, "scriptSig": {"hex": "1600149bd40f2c098e71e8c9bba8d6fc0f7816ef174e92", "asm": "00149bd40f2c098e71e8c9bba8d6fc0f7816ef174e92"}, "vout": 0, "txid": "58d495916c53cc57a8621d425ef6dd684c852c6c820dc5e9146c1184948b8be1"}], "txid": "5074d7271147bc935c46a7414a3d88ce8dcb8dfb5f506601b8d331129a34e818", "blocktime": 1537871767, "version": 1, "confirmations": 11495, "time": 1537871767, "locktime": 0, "vsize": 134, "size": 216}