{"hash": "50761d3be4bcdf3a4f8ff21c88a97698e73eb9478616025af156a3304bb300b0", "blockhash": "0000000000000000000dcc0f55137456b1a82d3642486a52398922ac4d620174", "vout": [{"scriptPubKey": {"reqSigs": 1, "hex": "76a914e6c99056622dcc975c977b730ac876896f24016e88ac", "addresses": ["1N3Ht2CJWSkVgtcanFMTsMd7C9Srbpc36y"], "asm": "OP_DUP OP_HASH160 e6c99056622dcc975c977b730ac876896f24016e OP_EQUALVERIFY OP_CHECKSIG", "type": "pubkeyhash"}, "value": 0.09836672, "n": 0}, {"scriptPubKey": {"reqSigs": 1, "hex": "76a9148cd1e3beafb9d22e76b9d1dc0f10caf75ed2126c88ac", "addresses": ["1Dqb3F7USEP1Ar7SGUzSgp7efnPiYqUR2R"], "asm": "OP_DUP OP_HASH160 8cd1e3beafb9d22e76b9d1dc0f10caf75ed2126c OP_EQUALVERIFY OP_CHECKSIG", "type": "pubkeyhash"}, "value": 3e-05, "n": 1}], "hex": "0100000001db8622994709bd02e1f3881f0be77d8be749bbe73f3ae864100647898cee0bda010000006b483045022100f16e24975bb31989dbd1e81f5be2e7216776f7a789afc940a20dd03292a852a702206e784cd58c137cdac716e3764c2cb6cec14c0be7b2c8a75bf03c39f40edd62dd01210299b7f90b0d8cb5414d28b494b697bd8b4408606fbbaefbf58d73685a6dc02026feffffff0280189600000000001976a914e6c99056622dcc975c977b730ac876896f24016e88acb80b0000000000001976a9148cd1e3beafb9d22e76b9d1dc0f10caf75ed2126c88ac0c490800", "vin": [{"sequence": 4294967294, "scriptSig": {"hex": "483045022100f16e24975bb31989dbd1e81f5be2e7216776f7a789afc940a20dd03292a852a702206e784cd58c137cdac716e3764c2cb6cec14c0be7b2c8a75bf03c39f40edd62dd01210299b7f90b0d8cb5414d28b494b697bd8b4408606fbbaefbf58d73685a6dc02026", "asm": "3045022100f16e24975bb31989dbd1e81f5be2e7216776f7a789afc940a20dd03292a852a702206e784cd58c137cdac716e3764c2cb6cec14c0be7b2c8a75bf03c39f40edd62dd[ALL] 0299b7f90b0d8cb5414d28b494b697bd8b4408606fbbaefbf58d73685a6dc02026"}, "vout": 1, "txid": "da0bee8c8947061064e83a3fe7bb49e78b7de70b1f88f3e102bd0947992286db"}], "txid": "50761d3be4bcdf3a4f8ff21c88a97698e73eb9478616025af156a3304bb300b0", "blocktime": 1537870268, "version": 1, "confirmations": 11520, "time": 1537870268, "locktime": 542988, "vsize": 226, "size": 226}