{"hash": "5078859adce4b223c5c429a79acfcb11f6a2c406279a959a108abab9ac70d83e", "blockhash": "00000000000000000017f5eb5941039fbcee6240d03bc1f2f8e35350df66a1d8", "vout": [{"scriptPubKey": {"reqSigs": 1, "hex": "a914bac14d18021f7c1c118a87b90a14e8da6cc8b84287", "addresses": ["3JiVB2Jz3ytBNCb7sK6MWtED6Qvvaza32b"], "asm": "OP_HASH160 bac14d18021f7c1c118a87b90a14e8da6cc8b842 OP_EQUAL", "type": "scripthash"}, "value": 0.00419, "n": 0}], "hex": "0100000002a48b31dffad5b4d32b534b4f9ba06c279d41cae59ed86d2b52cd2a35832ac4b8000000006a473044022035eaa260f238b66c4bae56b8866141d091ca2858ea75265e106b07858fabda5f02204e9596d89cb5f21dde3b855d1536bcbb40bc17d767c537e1845c8e2012f6fd510121028707867b5dc46621c392d9ad408f57bb57ef4d0b69d4ac849a1fa5f34c745242ffffffff2cfa8717b4edb990c62f096251776354573403d032818d06c9cd51f528dc6204000000006b483045022100971c6cd10438d2a8496000c6a25bc90c4734686cdf5ae9fb71f860cc4f1ceea7022005bf56537f5b81a9861c751693698e612635b7cd83d66872dce59cbb5bec35dc012103ed1068825d898a4e2d2cf2e4a0cbd7bd1d4ecaeb4ab8fcd3e3d66c9f910f3bb3ffffffff01b86406000000000017a914bac14d18021f7c1c118a87b90a14e8da6cc8b8428700000000", "vin": [{"sequence": 4294967295, "scriptSig": {"hex": "473044022035eaa260f238b66c4bae56b8866141d091ca2858ea75265e106b07858fabda5f02204e9596d89cb5f21dde3b855d1536bcbb40bc17d767c537e1845c8e2012f6fd510121028707867b5dc46621c392d9ad408f57bb57ef4d0b69d4ac849a1fa5f34c745242", "asm": "3044022035eaa260f238b66c4bae56b8866141d091ca2858ea75265e106b07858fabda5f02204e9596d89cb5f21dde3b855d1536bcbb40bc17d767c537e1845c8e2012f6fd51[ALL] 028707867b5dc46621c392d9ad408f57bb57ef4d0b69d4ac849a1fa5f34c745242"}, "vout": 0, "txid": "b8c42a83352acd522b6dd89ee5ca419d276ca09b4f4b532bd3b4d5fadf318ba4"}, {"sequence": 4294967295, "scriptSig": {"hex": "483045022100971c6cd10438d2a8496000c6a25bc90c4734686cdf5ae9fb71f860cc4f1ceea7022005bf56537f5b81a9861c751693698e612635b7cd83d66872dce59cbb5bec35dc012103ed1068825d898a4e2d2cf2e4a0cbd7bd1d4ecaeb4ab8fcd3e3d66c9f910f3bb3", "asm": "3045022100971c6cd10438d2a8496000c6a25bc90c4734686cdf5ae9fb71f860cc4f1ceea7022005bf56537f5b81a9861c751693698e612635b7cd83d66872dce59cbb5bec35dc[ALL] 03ed1068825d898a4e2d2cf2e4a0cbd7bd1d4ecaeb4ab8fcd3e3d66c9f910f3bb3"}, "vout": 0, "txid": "0462dc28f551cdc9068d8132d00334575463775162092fc690b9edb41787fa2c"}], "txid": "5078859adce4b223c5c429a79acfcb11f6a2c406279a959a108abab9ac70d83e", "blocktime": 1537874412, "version": 1, "confirmations": 11466, "time": 1537874412, "locktime": 0, "vsize": 337, "size": 337}