{"hash": "507a37733637b8085951146bd4bc9f35d37c509fb433ea0d1e9bde71eaa3e704", "blockhash": "0000000000000000000dcc0f55137456b1a82d3642486a52398922ac4d620174", "vout": [{"scriptPubKey": {"reqSigs": 1, "hex": "76a914d1f40f0b97981d7e263e44ee06432c7a6e2e325b88ac", "addresses": ["1L98bbQcYuvFJTFMzXTUCyWJdEoDaHV9Fq"], "asm": "OP_DUP OP_HASH160 d1f40f0b97981d7e263e44ee06432c7a6e2e325b OP_EQUALVERIFY OP_CHECKSIG", "type": "pubkeyhash"}, "value": 0.0072264, "n": 0}, {"scriptPubKey": {"reqSigs": 1, "hex": "a914062b5509e2eca513bf4761665571b9bc56aa676187", "addresses": ["32FdtU52duxkwGGSRJ5NuLqYUi2qJfqot1"], "asm": "OP_HASH160 062b5509e2eca513bf4761665571b9bc56aa6761 OP_EQUAL", "type": "scripthash"}, "value": 0.50763192, "n": 1}], "hex": "01000000010c1dc12e81d60fd1255db911edc03dc8ddb530ea9d676bba7b54a6d3c307062f01000000da004730440220277151715c2bd21794ff0cc48949b244380237f5c6898f52385aaf9f69ebff5e0220667e9daea855d13c4951293faae4d3f930b1006e67f5e50d1fb6fc49bb8b5d8101483045022100ec55d600654c27a856981473415d8d0d5210b23327478ad3908ac81aa98452bd02206907700511de6a2fbba2dc70170ccf23942525d343ee588f420292c82984a4750147522103abc8a801f5fbb4fd5f6510ba530d534b0efb584b4298cea1e6e2d45cd1000aef2102a29577404fa42d6d12e0d867249d4ee805afecc9e10879ed668da9958dc7b65052aeffffffff02d0060b00000000001976a914d1f40f0b97981d7e263e44ee06432c7a6e2e325b88acb89506030000000017a914062b5509e2eca513bf4761665571b9bc56aa67618700000000", "vin": [{"sequence": 4294967295, "scriptSig": {"hex": "004730440220277151715c2bd21794ff0cc48949b244380237f5c6898f52385aaf9f69ebff5e0220667e9daea855d13c4951293faae4d3f930b1006e67f5e50d1fb6fc49bb8b5d8101483045022100ec55d600654c27a856981473415d8d0d5210b23327478ad3908ac81aa98452bd02206907700511de6a2fbba2dc70170ccf23942525d343ee588f420292c82984a4750147522103abc8a801f5fbb4fd5f6510ba530d534b0efb584b4298cea1e6e2d45cd1000aef2102a29577404fa42d6d12e0d867249d4ee805afecc9e10879ed668da9958dc7b65052ae", "asm": "0 30440220277151715c2bd21794ff0cc48949b244380237f5c6898f52385aaf9f69ebff5e0220667e9daea855d13c4951293faae4d3f930b1006e67f5e50d1fb6fc49bb8b5d81[ALL] 3045022100ec55d600654c27a856981473415d8d0d5210b23327478ad3908ac81aa98452bd02206907700511de6a2fbba2dc70170ccf23942525d343ee588f420292c82984a475[ALL] 522103abc8a801f5fbb4fd5f6510ba530d534b0efb584b4298cea1e6e2d45cd1000aef2102a29577404fa42d6d12e0d867249d4ee805afecc9e10879ed668da9958dc7b65052ae"}, "vout": 1, "txid": "2f0607c3d3a6547bba6b679dea30b5ddc83dc0ed11b95d25d10fd6812ec11d0c"}], "txid": "507a37733637b8085951146bd4bc9f35d37c509fb433ea0d1e9bde71eaa3e704", "blocktime": 1537870268, "version": 1, "confirmations": 11518, "time": 1537870268, "locktime": 0, "vsize": 335, "size": 335}