{"hash": "507c1a436a20f06cedff46e816e9b87844ae456b620dc99d31670749aca96566", "blockhash": "0000000000000000001cda96e906b7601b7a6fb1a3b62bca570a9e5d8f4b3de1", "vout": [{"scriptPubKey": {"reqSigs": 1, "hex": "76a91415106e3bade379a6f18c5544307b081359e5716788ac", "addresses": ["12vNseVXYbj97CTR3gprS78bWe9bUAoMwj"], "asm": "OP_DUP OP_HASH160 15106e3bade379a6f18c5544307b081359e57167 OP_EQUALVERIFY OP_CHECKSIG", "type": "pubkeyhash"}, "value": 0.01727305, "n": 0}, {"scriptPubKey": {"reqSigs": 1, "hex": "a914b8ac4d705c34dc28785fbfe704072d730c24971487", "addresses": ["3JXUfdNHaqkd1g9yNHgvY2hhLKYqCndfnM"], "asm": "OP_HASH160 b8ac4d705c34dc28785fbfe704072d730c249714 OP_EQUAL", "type": "scripthash"}, "value": 0.01750295, "n": 1}], "hex": "0100000001187d92ce0ba08c4899f4caaf651924a4f9a586bb7b57c87d9466d0e166c57a2b000000006b483045022100e07600cc5d30378fc74e0510de47160d87081436a40f79f905558561cfb02f4902205f95313a305710d1fb9461825b0116150ca86232fa3543e97544ef9b84f6d658012103c752af0302c364a81b33b82a94b77fce692109fdfb3b34e850602145e7f320d7fdffffff02495b1a00000000001976a91415106e3bade379a6f18c5544307b081359e5716788ac17b51a000000000017a914b8ac4d705c34dc28785fbfe704072d730c2497148712490800", "vin": [{"sequence": 4294967293, "scriptSig": {"hex": "483045022100e07600cc5d30378fc74e0510de47160d87081436a40f79f905558561cfb02f4902205f95313a305710d1fb9461825b0116150ca86232fa3543e97544ef9b84f6d658012103c752af0302c364a81b33b82a94b77fce692109fdfb3b34e850602145e7f320d7", "asm": "3045022100e07600cc5d30378fc74e0510de47160d87081436a40f79f905558561cfb02f4902205f95313a305710d1fb9461825b0116150ca86232fa3543e97544ef9b84f6d658[ALL] 03c752af0302c364a81b33b82a94b77fce692109fdfb3b34e850602145e7f320d7"}, "vout": 0, "txid": "2b7ac566e1d066947dc8577bbb86a5f9a4241965afcaf499488ca00bce927d18"}], "txid": "507c1a436a20f06cedff46e816e9b87844ae456b620dc99d31670749aca96566", "blocktime": 1537873282, "version": 1, "confirmations": 11480, "time": 1537873282, "locktime": 542994, "vsize": 224, "size": 224}