{"hash": "50803dd99d0afa3efdf7cd3b7265987b74bc6fcf5fc6632b9860f1952cc3f83f", "blockhash": "0000000000000000001cda96e906b7601b7a6fb1a3b62bca570a9e5d8f4b3de1", "vout": [{"scriptPubKey": {"reqSigs": 1, "hex": "76a91499bf0d02b9f39e31c34b5e276306fe0d805d7c1a88ac", "addresses": ["1F1wFo3piYKmz28JvvzhvhUfGm9zPYxo3b"], "asm": "OP_DUP OP_HASH160 99bf0d02b9f39e31c34b5e276306fe0d805d7c1a OP_EQUALVERIFY OP_CHECKSIG", "type": "pubkeyhash"}, "value": 0.00104827, "n": 0}, {"scriptPubKey": {"reqSigs": 1, "hex": "76a9143776682f15d89155b7bb2eae974156b8d4bfa16288ac", "addresses": ["164G1cSeVyTq2nz7MwLaZPE27YWpt3ACnz"], "asm": "OP_DUP OP_HASH160 3776682f15d89155b7bb2eae974156b8d4bfa162 OP_EQUALVERIFY OP_CHECKSIG", "type": "pubkeyhash"}, "value": 0.01397196, "n": 1}], "hex": "0200000001ebd8f18ffa3463d76dc489a8e0b612b0d576d03970e9cffc0fc8cf350f47cdcd010000006a47304402204010b08df4c71adf61d387db62bd052f00a0dd86ec798678f9d5204dd09ed030022031d9a795f8af19c16a26383dc00463cb9a24c77f3be925aa0ef406e021ed776c0121025e7d565646b96358c894dd001105668953081bac799e3601b832310ebb5cb8b8feffffff027b990100000000001976a91499bf0d02b9f39e31c34b5e276306fe0d805d7c1a88accc511500000000001976a9143776682f15d89155b7bb2eae974156b8d4bfa16288ace4480800", "vin": [{"sequence": 4294967294, "scriptSig": {"hex": "47304402204010b08df4c71adf61d387db62bd052f00a0dd86ec798678f9d5204dd09ed030022031d9a795f8af19c16a26383dc00463cb9a24c77f3be925aa0ef406e021ed776c0121025e7d565646b96358c894dd001105668953081bac799e3601b832310ebb5cb8b8", "asm": "304402204010b08df4c71adf61d387db62bd052f00a0dd86ec798678f9d5204dd09ed030022031d9a795f8af19c16a26383dc00463cb9a24c77f3be925aa0ef406e021ed776c[ALL] 025e7d565646b96358c894dd001105668953081bac799e3601b832310ebb5cb8b8"}, "vout": 1, "txid": "cdcd470f35cfc80ffccfe97039d076d5b012b6e0a889c46dd76334fa8ff1d8eb"}], "txid": "50803dd99d0afa3efdf7cd3b7265987b74bc6fcf5fc6632b9860f1952cc3f83f", "blocktime": 1537873282, "version": 2, "confirmations": 11480, "time": 1537873282, "locktime": 542948, "vsize": 225, "size": 225}