{"hash": "508639aa71fc69546b648d7efdefc8dce5b9ad21505bc8f99d2cbdfc29f0d3b3", "blockhash": "000000000000000000022b45ed06c6f4ccd3cf7fb5ba4856ebd2e58215665228", "vout": [{"scriptPubKey": {"reqSigs": 1, "hex": "a914505fc463b5234c4f3cb23ba2013dc11230aa91c987", "addresses": ["391zhudM9MdXwrg7g26NpkPGLUkCn2Dekq"], "asm": "OP_HASH160 505fc463b5234c4f3cb23ba2013dc11230aa91c9 OP_EQUAL", "type": "scripthash"}, "value": 0.00208945, "n": 0}, {"scriptPubKey": {"reqSigs": 1, "hex": "76a914a83d9f66bcd8e8216fa34a7a80e05a3472ba44c888ac", "addresses": ["1GLaLr1sXcDSQRV8xPLBYwSyjr1gH7Kyhv"], "asm": "OP_DUP OP_HASH160 a83d9f66bcd8e8216fa34a7a80e05a3472ba44c8 OP_EQUALVERIFY OP_CHECKSIG", "type": "pubkeyhash"}, "value": 0.06135283, "n": 1}], "hex": "010000000109b3e26469eadde830c9191f723a95a52908ddef41a9c7cb6eb9addf3e212307010000006a47304402206b6f7a890ac80a1ec871c3cba517eb1e6beead0fe69d25923acaa0db9e5a1f7302205c8bbc5203442b5199b91bc9ac9e8fbd651ac2c5ae5f32d6dcf9f073429b870b012103454bfde7c66e940cf6093e08c11da41a8b1e048da35fefc8e936dbe9acbea510ffffffff02313003000000000017a914505fc463b5234c4f3cb23ba2013dc11230aa91c987f39d5d00000000001976a914a83d9f66bcd8e8216fa34a7a80e05a3472ba44c888ac00000000", "vin": [{"sequence": 4294967295, "scriptSig": {"hex": "47304402206b6f7a890ac80a1ec871c3cba517eb1e6beead0fe69d25923acaa0db9e5a1f7302205c8bbc5203442b5199b91bc9ac9e8fbd651ac2c5ae5f32d6dcf9f073429b870b012103454bfde7c66e940cf6093e08c11da41a8b1e048da35fefc8e936dbe9acbea510", "asm": "304402206b6f7a890ac80a1ec871c3cba517eb1e6beead0fe69d25923acaa0db9e5a1f7302205c8bbc5203442b5199b91bc9ac9e8fbd651ac2c5ae5f32d6dcf9f073429b870b[ALL] 03454bfde7c66e940cf6093e08c11da41a8b1e048da35fefc8e936dbe9acbea510"}, "vout": 1, "txid": "0723213edfadb96ecbc7a941efdd0829a5953a721f19c930e8ddea6964e2b309"}], "txid": "508639aa71fc69546b648d7efdefc8dce5b9ad21505bc8f99d2cbdfc29f0d3b3", "blocktime": 1537869901, "version": 1, "confirmations": 11522, "time": 1537869901, "locktime": 0, "vsize": 223, "size": 223}