{"hash": "508b53cb7a7251df7ebf627449e09f227a108f90fe432c49d5c6f4d24e7ca6d9", "blockhash": "00000000000000000004ffacab907a6b429b9a5745fa0b75af4234bf69dd7176", "vout": [{"scriptPubKey": {"reqSigs": 1, "hex": "76a914f0593d3143fa8b3632f3a75571a50e5656317c0c88ac", "addresses": ["1Nur5UcJuYgPfjtYak5EDsoxEULSWaN1Td"], "asm": "OP_DUP OP_HASH160 f0593d3143fa8b3632f3a75571a50e5656317c0c OP_EQUALVERIFY OP_CHECKSIG", "type": "pubkeyhash"}, "value": 1.12, "n": 0}, {"scriptPubKey": {"reqSigs": 1, "hex": "76a91444bf44d47423c0435009efa7ae8b358caaf5780188ac", "addresses": ["17GW5e2Hvb55UaXiNayePQ9deQitwfF5ko"], "asm": "OP_DUP OP_HASH160 44bf44d47423c0435009efa7ae8b358caaf57801 OP_EQUALVERIFY OP_CHECKSIG", "type": "pubkeyhash"}, "value": 0.21412, "n": 1}], "hex": "0100000002834aa4d37ad1029ff25386c5e046e5abcdada784324a05d3a91f3aafd5c06d80010000006b483045022100fcb126fd83056aec4aeef5991bfae517ee65d92667017923661023e3fca5556f02202b68c26a9de0f297db282591dcdb87e8bcbfa3be45ad412cffe14e1a051f205201210354f7969a5ddfe7ddb2d8eaeb1b8576807e9bcf2859447fc4b04b6ac6b8d7f650ffffffff834aa4d37ad1029ff25386c5e046e5abcdada784324a05d3a91f3aafd5c06d80000000006a4730440220259739879cbeb9ae0755e099d04193addc96c99ecbd50cbb1a5242c694d51a80022020688c80e1d552f70a3b9b188bf8c54e4fefeb0dd339dfcd061829420f855118012102b3735d2e1b56f9f2604fee7f16664551ddc2e9b879f6644cfdc4b75806b0933fffffffff0200fcac06000000001976a914f0593d3143fa8b3632f3a75571a50e5656317c0c88aca0b84601000000001976a91444bf44d47423c0435009efa7ae8b358caaf5780188ac00000000", "vin": [{"sequence": 4294967295, "scriptSig": {"hex": "483045022100fcb126fd83056aec4aeef5991bfae517ee65d92667017923661023e3fca5556f02202b68c26a9de0f297db282591dcdb87e8bcbfa3be45ad412cffe14e1a051f205201210354f7969a5ddfe7ddb2d8eaeb1b8576807e9bcf2859447fc4b04b6ac6b8d7f650", "asm": "3045022100fcb126fd83056aec4aeef5991bfae517ee65d92667017923661023e3fca5556f02202b68c26a9de0f297db282591dcdb87e8bcbfa3be45ad412cffe14e1a051f2052[ALL] 0354f7969a5ddfe7ddb2d8eaeb1b8576807e9bcf2859447fc4b04b6ac6b8d7f650"}, "vout": 1, "txid": "806dc0d5af3a1fa9d3054a3284a7adcdabe546e0c58653f29f02d17ad3a44a83"}, {"sequence": 4294967295, "scriptSig": {"hex": "4730440220259739879cbeb9ae0755e099d04193addc96c99ecbd50cbb1a5242c694d51a80022020688c80e1d552f70a3b9b188bf8c54e4fefeb0dd339dfcd061829420f855118012102b3735d2e1b56f9f2604fee7f16664551ddc2e9b879f6644cfdc4b75806b0933f", "asm": "30440220259739879cbeb9ae0755e099d04193addc96c99ecbd50cbb1a5242c694d51a80022020688c80e1d552f70a3b9b188bf8c54e4fefeb0dd339dfcd061829420f855118[ALL] 02b3735d2e1b56f9f2604fee7f16664551ddc2e9b879f6644cfdc4b75806b0933f"}, "vout": 0, "txid": "806dc0d5af3a1fa9d3054a3284a7adcdabe546e0c58653f29f02d17ad3a44a83"}], "txid": "508b53cb7a7251df7ebf627449e09f227a108f90fe432c49d5c6f4d24e7ca6d9", "blocktime": 1537875543, "version": 1, "confirmations": 11464, "time": 1537875543, "locktime": 0, "vsize": 373, "size": 373}