{"hash": "508c0f5105aa1d530b1c0f591881b58c06f7b25d85c7ad28dc5241e499c61e34", "blockhash": "0000000000000000001e0dab787dd257d1dbfcb92a98c2207d5e1078be1f4165", "vout": [{"scriptPubKey": {"reqSigs": 1, "hex": "76a9142a676ddc937ca91de30d469cf80233b4f341fc4188ac", "addresses": ["14sDHSX9Lc4hGjAg6kDK2prch1W66ui2Z3"], "asm": "OP_DUP OP_HASH160 2a676ddc937ca91de30d469cf80233b4f341fc41 OP_EQUALVERIFY OP_CHECKSIG", "type": "pubkeyhash"}, "value": 0.0025, "n": 0}, {"scriptPubKey": {"reqSigs": 1, "hex": "76a9147711eab6ffcc99e4376ac39f4022de413e1ea2a988ac", "addresses": ["1BrasiLb2KMbdtuhb1chAVnS2FvcNGfV9J"], "asm": "OP_DUP OP_HASH160 7711eab6ffcc99e4376ac39f4022de413e1ea2a9 OP_EQUALVERIFY OP_CHECKSIG", "type": "pubkeyhash"}, "value": 0.00719388, "n": 1}], "hex": "0200000001564036cdafcf2eb2ee1f763ce9bdc93cbb30fd4ca0c90c35b7dfd3a60f3cb8e4050000006b483045022100fcaa1ad0e853e94e82cfe6a45c4a3e3e61aa5beb43e7afce58a517aa19f5b09d022061c2e351a05748927031f24b77b9587767fc1bff70b8c95374f495b50fe0750c012103355965fa05f61e5493fe53156d0df580d2dcfbe777322520b22c169102e81e40ffffffff0290d00300000000001976a9142a676ddc937ca91de30d469cf80233b4f341fc4188ac1cfa0a00000000001976a9147711eab6ffcc99e4376ac39f4022de413e1ea2a988ac00000000", "vin": [{"sequence": 4294967295, "scriptSig": {"hex": "483045022100fcaa1ad0e853e94e82cfe6a45c4a3e3e61aa5beb43e7afce58a517aa19f5b09d022061c2e351a05748927031f24b77b9587767fc1bff70b8c95374f495b50fe0750c012103355965fa05f61e5493fe53156d0df580d2dcfbe777322520b22c169102e81e40", "asm": "3045022100fcaa1ad0e853e94e82cfe6a45c4a3e3e61aa5beb43e7afce58a517aa19f5b09d022061c2e351a05748927031f24b77b9587767fc1bff70b8c95374f495b50fe0750c[ALL] 03355965fa05f61e5493fe53156d0df580d2dcfbe777322520b22c169102e81e40"}, "vout": 5, "txid": "e4b83c0fa6d3dfb7350cc9a04cfd30bb3cc9bde93c761feeb22ecfafcd364056"}], "txid": "508c0f5105aa1d530b1c0f591881b58c06f7b25d85c7ad28dc5241e499c61e34", "blocktime": 1537872475, "version": 2, "confirmations": 11486, "time": 1537872475, "locktime": 0, "vsize": 226, "size": 226}