{"hash": "5092f60d6a460218c4607679c2238b568d7c96b16d135bd25939ba220e71fe4a", "blockhash": "0000000000000000000dcc0f55137456b1a82d3642486a52398922ac4d620174", "vout": [{"scriptPubKey": {"type": "nulldata", "hex": "6a146f6d6e69000000000000001f0000001600a39100", "asm": "OP_RETURN 6f6d6e69000000000000001f0000001600a39100"}, "value": 0.0, "n": 0}, {"scriptPubKey": {"reqSigs": 1, "hex": "76a91455c4ae917ba82a1d1de1f110314515470b51fa0d88ac", "addresses": ["18pW41EkUS3HU7mtCPUoiuY3EBDYmr58di"], "asm": "OP_DUP OP_HASH160 55c4ae917ba82a1d1de1f110314515470b51fa0d OP_EQUALVERIFY OP_CHECKSIG", "type": "pubkeyhash"}, "value": 5.46e-06, "n": 1}, {"scriptPubKey": {"reqSigs": 1, "hex": "76a914a25dec4d0011064ef106a983c39c7a540699f22088ac", "addresses": ["1FoWyxwPXuj4C6abqwhjDWdz6D4PZgYRjA"], "asm": "OP_DUP OP_HASH160 a25dec4d0011064ef106a983c39c7a540699f220 OP_EQUALVERIFY OP_CHECKSIG", "type": "pubkeyhash"}, "value": 0.01995204, "n": 2}], "hex": "0100000001a44813c76173a4fe9689194c29809e35be05f1741d9b5e1e9e8bd44070ac1fea620000006a47304402204dd38f8091fd0a7aa90ebd5aeae0f1d6130622da32f9bd01e6d82075f995cd3602206ad9ff5af22d2a3322d2c3d05a7ed84d0f7e59c368318e2504707ff7d120729a012103da5bac7b36d5aa38f531c6b9601e21bb598a4b6716ebed38b009a55dabde9440feffffff030000000000000000166a146f6d6e69000000000000001f0000001600a3910022020000000000001976a91455c4ae917ba82a1d1de1f110314515470b51fa0d88acc4711e00000000001976a914a25dec4d0011064ef106a983c39c7a540699f22088acbf480800", "vin": [{"sequence": 4294967294, "scriptSig": {"hex": "47304402204dd38f8091fd0a7aa90ebd5aeae0f1d6130622da32f9bd01e6d82075f995cd3602206ad9ff5af22d2a3322d2c3d05a7ed84d0f7e59c368318e2504707ff7d120729a012103da5bac7b36d5aa38f531c6b9601e21bb598a4b6716ebed38b009a55dabde9440", "asm": "304402204dd38f8091fd0a7aa90ebd5aeae0f1d6130622da32f9bd01e6d82075f995cd3602206ad9ff5af22d2a3322d2c3d05a7ed84d0f7e59c368318e2504707ff7d120729a[ALL] 03da5bac7b36d5aa38f531c6b9601e21bb598a4b6716ebed38b009a55dabde9440"}, "vout": 98, "txid": "ea1fac7040d48b9e1e5e9b1d74f105be359e80294c198996fea47361c71348a4"}], "txid": "5092f60d6a460218c4607679c2238b568d7c96b16d135bd25939ba220e71fe4a", "blocktime": 1537870268, "version": 1, "confirmations": 11516, "time": 1537870268, "locktime": 542911, "vsize": 256, "size": 256}