{"hash": "984528c1775c02f192171e681992e0e7a2bdab1fdc89619690de31baad9de5e8", "blockhash": "00000000000000000017f5eb5941039fbcee6240d03bc1f2f8e35350df66a1d8", "vout": [{"scriptPubKey": {"reqSigs": 1, "hex": "a914c50743cab0f70d34a1b7f1c10d47dba2d9ca8ccf87", "addresses": ["3Keok6tQMHkXHJjWabWTunca4N3Q9ext8x"], "asm": "OP_HASH160 c50743cab0f70d34a1b7f1c10d47dba2d9ca8ccf OP_EQUAL", "type": "scripthash"}, "value": 2.58655942, "n": 0}, {"scriptPubKey": {"reqSigs": 1, "hex": "a914310973afb10ad8ba03f5dfafac6f14a98b312c2587", "addresses": ["36AJMfz2Z9wUGBcTcRBWLA3k2WYaJBiSVP"], "asm": "OP_HASH160 310973afb10ad8ba03f5dfafac6f14a98b312c25 OP_EQUAL", "type": "scripthash"}, "value": 0.01125322, "n": 1}], "hex": "02000000000104138e8b9d1e4c6621c822dae63bda6103cce3bce62c7cf2d1f5e97ff3dc8078423d0000006a473044022023380f161ed84a68abe4649b714644d0f93fa6c66d2e8fa7ce8ee8079fe42f1f0220018c66ab48a686586570ed2d94f47a0b0849edef25ae0482c928fcbdb7b2184c0121035458c389e87efe7618107f76822d7cb48589d273e819d0c311ca5a10aeb5271cfeffffff3fa2abd9449ed4c2a08717da4321eb3a794da32032822a4593923e898451418000000000171600142ad4b59ace6459dab02a9bb8df68812a581b9a39feffffff7e86d4a111489aac3365bd220d7f170fd74aaf0429c37c2273429e02dffdfa440000000017160014399c9581660748c2623c533aed2aae7c50f2c99bfeffffff980cb037738c27cfd1828f53f65ecafabbbd8d0a70e97a38fe591d622f3dd85e0000000017160014bbfe727425ce4285c03251f9dc3a83c4754fa6f6feffffff02c6c66a0f0000000017a914c50743cab0f70d34a1b7f1c10d47dba2d9ca8ccf87ca2b11000000000017a914310973afb10ad8ba03f5dfafac6f14a98b312c25870002483045022100cce1a14a0ed2b4c8787c7ac0b7c9ebcf4fc556d95fd19ab647add12416bc3d4f0220173acb85e8763f59b04d4ce0ee404d84444db728341254a32ee6a29e53966cfe012102be38610504682733835a9ca41e6d4db8300ed7b330a832ba0fe6fe9fef6234750248304502210094c71f0b394701f17a4da007174e413078b1e093ca81998dce0d0ca0c3d615d40220046ff5640cf9fece1e1699e08c944f9008ac2246c758e5d689248eda0bf03de50121031906af61687328dd11a1c05b8337030f6bf5c7ec02d8b4fd97f05683f84913da02483045022100edd3216102fce03308f885fc2b4db3cc353548dd19d12c8aaeaba58edf67bee402204853391b2456a42da3cd2a89fac829ce7c7eaeb2e792990110380648706d88140121036e9c75804bfbe783b2c992bd9be6d7baa22f24a8e617414b7a8bdf4a52cc7a5b15490800", "vin": [{"sequence": 4294967294, "scriptSig": {"hex": "473044022023380f161ed84a68abe4649b714644d0f93fa6c66d2e8fa7ce8ee8079fe42f1f0220018c66ab48a686586570ed2d94f47a0b0849edef25ae0482c928fcbdb7b2184c0121035458c389e87efe7618107f76822d7cb48589d273e819d0c311ca5a10aeb5271c", "asm": "3044022023380f161ed84a68abe4649b714644d0f93fa6c66d2e8fa7ce8ee8079fe42f1f0220018c66ab48a686586570ed2d94f47a0b0849edef25ae0482c928fcbdb7b2184c[ALL] 035458c389e87efe7618107f76822d7cb48589d273e819d0c311ca5a10aeb5271c"}, "vout": 61, "txid": "427880dcf37fe9f5d1f27c2ce6bce3cc0361da3be6da22c821664c1e9d8b8e13"}, {"txinwitness": ["3045022100cce1a14a0ed2b4c8787c7ac0b7c9ebcf4fc556d95fd19ab647add12416bc3d4f0220173acb85e8763f59b04d4ce0ee404d84444db728341254a32ee6a29e53966cfe01", "02be38610504682733835a9ca41e6d4db8300ed7b330a832ba0fe6fe9fef623475"], "sequence": 4294967294, "scriptSig": {"hex": "1600142ad4b59ace6459dab02a9bb8df68812a581b9a39", "asm": "00142ad4b59ace6459dab02a9bb8df68812a581b9a39"}, "vout": 0, "txid": "80415184893e9293452a823220a34d793aeb2143da1787a0c2d49e44d9aba23f"}, {"txinwitness": ["304502210094c71f0b394701f17a4da007174e413078b1e093ca81998dce0d0ca0c3d615d40220046ff5640cf9fece1e1699e08c944f9008ac2246c758e5d689248eda0bf03de501", "031906af61687328dd11a1c05b8337030f6bf5c7ec02d8b4fd97f05683f84913da"], "sequence": 4294967294, "scriptSig": {"hex": "160014399c9581660748c2623c533aed2aae7c50f2c99b", "asm": "0014399c9581660748c2623c533aed2aae7c50f2c99b"}, "vout": 0, "txid": "44fafddf029e4273227cc32904af4ad70f177f0d22bd6533ac9a4811a1d4867e"}, {"txinwitness": ["3045022100edd3216102fce03308f885fc2b4db3cc353548dd19d12c8aaeaba58edf67bee402204853391b2456a42da3cd2a89fac829ce7c7eaeb2e792990110380648706d881401", "036e9c75804bfbe783b2c992bd9be6d7baa22f24a8e617414b7a8bdf4a52cc7a5b"], "sequence": 4294967294, "scriptSig": {"hex": "160014bbfe727425ce4285c03251f9dc3a83c4754fa6f6", "asm": "0014bbfe727425ce4285c03251f9dc3a83c4754fa6f6"}, "vout": 0, "txid": "5ed83d2f621d59fe387ae9700a8dbdbbfaca5ef6538f82d1cf278c7337b00c98"}], "txid": "5093354eb8679659b4b296fdf719c3d591ca6f97b414287e1abb693810a7067b", "blocktime": 1537874412, "version": 2, "confirmations": 11468, "time": 1537874412, "locktime": 542997, "vsize": 495, "size": 740}