{"hash": "2f8bb743f477228d922d412be4df1ddeabc085dbc90ae99d5f522f09d302c51e", "blockhash": "00000000000000000017f5eb5941039fbcee6240d03bc1f2f8e35350df66a1d8", "vout": [{"scriptPubKey": {"reqSigs": 1, "hex": "a914a70daf71e6735d3837753df194e4631e21e0c66187", "addresses": ["3GvKATDz6eTzQahPSt5ARUsMnkUA933LM7"], "asm": "OP_HASH160 a70daf71e6735d3837753df194e4631e21e0c661 OP_EQUAL", "type": "scripthash"}, "value": 0.075, "n": 0}, {"scriptPubKey": {"reqSigs": 1, "hex": "a914dec96457dcc8b582605eed488af8485eee9c59d987", "addresses": ["3N11C68Jgq6yy1JX9zd1fm98UgQBeJQRhF"], "asm": "OP_HASH160 dec96457dcc8b582605eed488af8485eee9c59d9 OP_EQUAL", "type": "scripthash"}, "value": 0.00867496, "n": 1}], "hex": "010000000001013813222060a2ada95f1dde6e11885288a751e910fa934b6d0447b0ae1c22add201000000171600147f51fa65e0f827dedefc565eca5b485327c2fc44ffffff0002e07072000000000017a914a70daf71e6735d3837753df194e4631e21e0c66187a83c0d000000000017a914dec96457dcc8b582605eed488af8485eee9c59d9870248304502210092c14420cac95f7a4bbfe7eba1977abef20aca476e37250dc4bd24a86ac066ee0220623ccd2676aed4f6472a22d57934b091cd09499f386c309e8a388c23c05df92a01210204912fffa8fdd14133e099ba5958f08b2c42457206a669fe1bf9e9d84537f4cb00000000", "vin": [{"txinwitness": ["304502210092c14420cac95f7a4bbfe7eba1977abef20aca476e37250dc4bd24a86ac066ee0220623ccd2676aed4f6472a22d57934b091cd09499f386c309e8a388c23c05df92a01", "0204912fffa8fdd14133e099ba5958f08b2c42457206a669fe1bf9e9d84537f4cb"], "sequence": 16777215, "scriptSig": {"hex": "1600147f51fa65e0f827dedefc565eca5b485327c2fc44", "asm": "00147f51fa65e0f827dedefc565eca5b485327c2fc44"}, "vout": 1, "txid": "d2ad221caeb047046d4b93fa10e951a7885288116ede1d5fa9ada26020221338"}], "txid": "509464ed1c0f5c6ec2b8d04264d541cf503a667726738690ef6c4fd2f2abec45", "blocktime": 1537874412, "version": 1, "confirmations": 11466, "time": 1537874412, "locktime": 0, "vsize": 166, "size": 248}