{"hash": "15be215861bec98cf3ee572b7b93b7df11a7866468f7d475937ba265cdb02c7a", "blockhash": "000000000000000000022b45ed06c6f4ccd3cf7fb5ba4856ebd2e58215665228", "vout": [{"scriptPubKey": {"reqSigs": 1, "hex": "001472625c87e2d1f7c3c79c0772029f3bac58928abd", "addresses": ["bc1qwf39eplz68mu83uuqaeq98em43vf9z4alg4f8s"], "asm": "0 72625c87e2d1f7c3c79c0772029f3bac58928abd", "type": "witness_v0_keyhash"}, "value": 0.00101591, "n": 0}, {"scriptPubKey": {"reqSigs": 1, "hex": "a914be3006c8bfbea6e6caf3e1d5a661a7026c0ef23887", "addresses": ["3K2dqvy9oTLauqjzRCZQyVANE3e2g2TQu9"], "asm": "OP_HASH160 be3006c8bfbea6e6caf3e1d5a661a7026c0ef238 OP_EQUAL", "type": "scripthash"}, "value": 0.02242003, "n": 1}], "hex": "01000000000101871c1f59ac5eaf10c02db12a737b4ae0a207de9309e6b0d1542780efd33451ce01000000171600140f2d72c9418c528ddb1ab2b8d7cfd8665eb1a068ffffffff02d78c01000000000016001472625c87e2d1f7c3c79c0772029f3bac58928abdd33522000000000017a914be3006c8bfbea6e6caf3e1d5a661a7026c0ef2388702473044022050fbe6b4837164cb52c4969e5cd11b51d93d6736ce57d680e8cb25ab9d89bffa022074fff14926b847258ac4911aa8e3021ef88c4b177581d51000c4205ca84a031f0121029d9463a8d75faae5bf814062faae96ff3a177b2ed0890e4cc611974752a9ecc600000000", "vin": [{"txinwitness": ["3044022050fbe6b4837164cb52c4969e5cd11b51d93d6736ce57d680e8cb25ab9d89bffa022074fff14926b847258ac4911aa8e3021ef88c4b177581d51000c4205ca84a031f01", "029d9463a8d75faae5bf814062faae96ff3a177b2ed0890e4cc611974752a9ecc6"], "sequence": 4294967295, "scriptSig": {"hex": "1600140f2d72c9418c528ddb1ab2b8d7cfd8665eb1a068", "asm": "00140f2d72c9418c528ddb1ab2b8d7cfd8665eb1a068"}, "vout": 1, "txid": "ce5134d3ef802754d1b0e60993de07a2e04a7b732ab12dc010af5eac591f1c87"}], "txid": "5096802f120f860c443b5d1e9817b64265ad7015edada52b955e96f3f8fc0837", "blocktime": 1537869901, "version": 1, "confirmations": 11523, "time": 1537869901, "locktime": 0, "vsize": 165, "size": 246}