{"hash": "509e97a334e0abc6385caa8e39195f3f59a795f660d6ce046746b1b1fdff44dd", "blockhash": "00000000000000000017f5eb5941039fbcee6240d03bc1f2f8e35350df66a1d8", "vout": [{"scriptPubKey": {"reqSigs": 1, "hex": "76a914240c23cbc8b68d73b155f3fa048c5bc727b9e11888ac", "addresses": ["14HbsPxyRgxdJ9dZLZ56dmYZcqqwoLroDW"], "asm": "OP_DUP OP_HASH160 240c23cbc8b68d73b155f3fa048c5bc727b9e118 OP_EQUALVERIFY OP_CHECKSIG", "type": "pubkeyhash"}, "value": 89.10284982, "n": 0}, {"scriptPubKey": {"reqSigs": 1, "hex": "a914fb00323572809ac880bd8cade59e54af9936bb6387", "addresses": ["3QaBmKY6P9RK8wuDjFXJMQnF2DkhGLyykU"], "asm": "OP_HASH160 fb00323572809ac880bd8cade59e54af9936bb63 OP_EQUAL", "type": "scripthash"}, "value": 0.06176385, "n": 1}], "hex": "0100000001b1368bd2170c6831ae20ff44e852037ab6755ca9cd9899b8ddc8862eb4813b17000000006b483045022100f65dd4fdaf563e1252886289c4a26fd8951dfe773e1f6c2f92e9dae35a6ad2af0220581effeee94969de0d8cf08871951d488f53575de5adb6a7ecd27e6c896c63950121026ace57ee763552b04fbf5dee297c291fe3e942ad2f92685652f4e35ed7d4ea2fffffffff02b6281813020000001976a914240c23cbc8b68d73b155f3fa048c5bc727b9e11888ac813e5e000000000017a914fb00323572809ac880bd8cade59e54af9936bb638700000000", "vin": [{"sequence": 4294967295, "scriptSig": {"hex": "483045022100f65dd4fdaf563e1252886289c4a26fd8951dfe773e1f6c2f92e9dae35a6ad2af0220581effeee94969de0d8cf08871951d488f53575de5adb6a7ecd27e6c896c63950121026ace57ee763552b04fbf5dee297c291fe3e942ad2f92685652f4e35ed7d4ea2f", "asm": "3045022100f65dd4fdaf563e1252886289c4a26fd8951dfe773e1f6c2f92e9dae35a6ad2af0220581effeee94969de0d8cf08871951d488f53575de5adb6a7ecd27e6c896c6395[ALL] 026ace57ee763552b04fbf5dee297c291fe3e942ad2f92685652f4e35ed7d4ea2f"}, "vout": 0, "txid": "173b81b42e86c8ddb89998cda95c75b67a0352e844ff20ae31680c17d28b36b1"}], "txid": "509e97a334e0abc6385caa8e39195f3f59a795f660d6ce046746b1b1fdff44dd", "blocktime": 1537874412, "version": 1, "confirmations": 11466, "time": 1537874412, "locktime": 0, "vsize": 224, "size": 224}