{"hash": "50a89cb09b166f3cc97bdce5499b39bd509ed8a32b0d8f500fa7e2bbc2962cec", "blockhash": "00000000000000000018f53835495a110e01622372bf6ae95dc86f2b0ab887b0", "vout": [{"scriptPubKey": {"type": "nulldata", "hex": "6a146f6d6e69000000000000001f00000089c83d9a80", "asm": "OP_RETURN 6f6d6e69000000000000001f00000089c83d9a80"}, "value": 0.0, "n": 0}, {"scriptPubKey": {"reqSigs": 1, "hex": "76a9148dbc6f4db5955d688cdec784e2bdac54c5dced7888ac", "addresses": ["1DvS1j7bcCF4cVLZwxnK3QbNCBJLXWfzGt"], "asm": "OP_DUP OP_HASH160 8dbc6f4db5955d688cdec784e2bdac54c5dced78 OP_EQUALVERIFY OP_CHECKSIG", "type": "pubkeyhash"}, "value": 5.46e-06, "n": 1}, {"scriptPubKey": {"reqSigs": 1, "hex": "76a914a25dec4d0011064ef106a983c39c7a540699f22088ac", "addresses": ["1FoWyxwPXuj4C6abqwhjDWdz6D4PZgYRjA"], "asm": "OP_DUP OP_HASH160 a25dec4d0011064ef106a983c39c7a540699f220 OP_EQUALVERIFY OP_CHECKSIG", "type": "pubkeyhash"}, "value": 0.01995204, "n": 2}], "hex": "0100000001a44813c76173a4fe9689194c29809e35be05f1741d9b5e1e9e8bd44070ac1fea680000006a4730440220203d4681cfec5b1bae07f318be62ca10d660890989b2f1aa04617c3856ebee2e0220396cdaf4674f74bfd79c1c536202eb409675878e7a352178d8699c77ff20c0cd012103da5bac7b36d5aa38f531c6b9601e21bb598a4b6716ebed38b009a55dabde9440feffffff030000000000000000166a146f6d6e69000000000000001f00000089c83d9a8022020000000000001976a9148dbc6f4db5955d688cdec784e2bdac54c5dced7888acc4711e00000000001976a914a25dec4d0011064ef106a983c39c7a540699f22088ac0e490800", "vin": [{"sequence": 4294967294, "scriptSig": {"hex": "4730440220203d4681cfec5b1bae07f318be62ca10d660890989b2f1aa04617c3856ebee2e0220396cdaf4674f74bfd79c1c536202eb409675878e7a352178d8699c77ff20c0cd012103da5bac7b36d5aa38f531c6b9601e21bb598a4b6716ebed38b009a55dabde9440", "asm": "30440220203d4681cfec5b1bae07f318be62ca10d660890989b2f1aa04617c3856ebee2e0220396cdaf4674f74bfd79c1c536202eb409675878e7a352178d8699c77ff20c0cd[ALL] 03da5bac7b36d5aa38f531c6b9601e21bb598a4b6716ebed38b009a55dabde9440"}, "vout": 104, "txid": "ea1fac7040d48b9e1e5e9b1d74f105be359e80294c198996fea47361c71348a4"}], "txid": "50a89cb09b166f3cc97bdce5499b39bd509ed8a32b0d8f500fa7e2bbc2962cec", "blocktime": 1537870928, "version": 1, "confirmations": 11512, "time": 1537870928, "locktime": 542990, "vsize": 256, "size": 256}