{"hash": "08c54304da3418a855c8a05032aaad77c8f8ac8dfb4e7d177117a01615483658", "blockhash": "0000000000000000001f0ddff1eddb255c1121bcd4da4f1bc9a0da00cae72433", "vout": [{"scriptPubKey": {"reqSigs": 1, "hex": "76a914bbaec083b5e6b2619a44122d11954d363152fd0488ac", "addresses": ["1J7NhraWXwxB5EzsPgHjvHxXqAAYgWV397"], "asm": "OP_DUP OP_HASH160 bbaec083b5e6b2619a44122d11954d363152fd04 OP_EQUALVERIFY OP_CHECKSIG", "type": "pubkeyhash"}, "value": 0.0031106, "n": 0}, {"scriptPubKey": {"reqSigs": 1, "hex": "a9140f506416b5f538aea1ccf43d3f02a44aa02ad6d887", "addresses": ["335zN5pH3P7xjJfMmu59Y2J6mnF2n4FNuj"], "asm": "OP_HASH160 0f506416b5f538aea1ccf43d3f02a44aa02ad6d8 OP_EQUAL", "type": "scripthash"}, "value": 0.00999084, "n": 1}], "hex": "020000000001029fce0757881dae72254d3e7670f1049235ef55f5ca5b0b923b39ac42184c9c070100000017160014a4c6ed359ec8d2c6a2a8c5bf839d34cf03e93dfbfeffffffd06cdaa1b7eaaf11e3bf115eacd6c6787bab6231369605455fd5f0fae1e06e7e1c000000171600144be9e3a1558584c968fd97c8e05410cb3f792a36feffffff0214bf0400000000001976a914bbaec083b5e6b2619a44122d11954d363152fd0488acac3e0f000000000017a9140f506416b5f538aea1ccf43d3f02a44aa02ad6d887024730440220600787f7d4064b7e6b3343b66983f3a4dd05c6521b031eefa9e6529affa02478022041487212ded91b1475524858e0e670104fc250d6e79f9d224148a8c1850a309a012103f23a56dc20dbfc954483301a6c63b95ba468e373e7f4ca8a3ab53de761d4dfe702473044022036d11137a7754a9f0a394d945f6e6f41cea673fecd7b4bc454f99ca4a6102a4202201ed3733daa7e1d48831edbca081bfa52c2dff4de42d482bb5835449551415c6301210387ec4d4754c7a641ce395092571947ed362b5efde9b39a7a80d8159360c3554311490800", "vin": [{"txinwitness": ["30440220600787f7d4064b7e6b3343b66983f3a4dd05c6521b031eefa9e6529affa02478022041487212ded91b1475524858e0e670104fc250d6e79f9d224148a8c1850a309a01", "03f23a56dc20dbfc954483301a6c63b95ba468e373e7f4ca8a3ab53de761d4dfe7"], "sequence": 4294967294, "scriptSig": {"hex": "160014a4c6ed359ec8d2c6a2a8c5bf839d34cf03e93dfb", "asm": "0014a4c6ed359ec8d2c6a2a8c5bf839d34cf03e93dfb"}, "vout": 1, "txid": "079c4c1842ac393b920b5bcaf555ef359204f170763e4d2572ae1d885707ce9f"}, {"txinwitness": ["3044022036d11137a7754a9f0a394d945f6e6f41cea673fecd7b4bc454f99ca4a6102a4202201ed3733daa7e1d48831edbca081bfa52c2dff4de42d482bb5835449551415c6301", "0387ec4d4754c7a641ce395092571947ed362b5efde9b39a7a80d8159360c35543"], "sequence": 4294967294, "scriptSig": {"hex": "1600144be9e3a1558584c968fd97c8e05410cb3f792a36", "asm": "00144be9e3a1558584c968fd97c8e05410cb3f792a36"}, "vout": 28, "txid": "7e6ee0e1faf0d55f450596363162ab7b78c6d6ac5e11bfe311afeab7a1da6cd0"}], "txid": "50b05791c537a3df2565d312a5b9f830f778d1c787676af2e1713ca61fdca0a2", "blocktime": 1537872018, "version": 2, "confirmations": 11489, "time": 1537872018, "locktime": 542993, "vsize": 258, "size": 420}