{"hash": "77668e18788d13b33adf0f71151d20c97653e35ed62369767c12b6f86f6a2eff", "blockhash": "0000000000000000001e0dab787dd257d1dbfcb92a98c2207d5e1078be1f4165", "vout": [{"scriptPubKey": {"reqSigs": 1, "hex": "a914c59098e1a23a50f03f676dcd1218e9ec35a60f1887", "addresses": ["3KheG87WUnxNZ6sok5tSgaxvc89d6D8agY"], "asm": "OP_HASH160 c59098e1a23a50f03f676dcd1218e9ec35a60f18 OP_EQUAL", "type": "scripthash"}, "value": 0.016088, "n": 0}, {"scriptPubKey": {"reqSigs": 1, "hex": "a9149916ba72551a2cb99f62960a9b217b622226ab8687", "addresses": ["3FeUY5qjUXnGguvqeqcM18cqqxPtqgVSov"], "asm": "OP_HASH160 9916ba72551a2cb99f62960a9b217b622226ab86 OP_EQUAL", "type": "scripthash"}, "value": 0.01748572, "n": 1}], "hex": "0200000000010162427f0ba53ec60b32f2fdfb2d8fcff9ea05486d9e0a8d9399ed51ad6faa8e7103000000171600149fb9643f19f182f035156f6b7f26fb8f4375a537ffffffff02608c18000000000017a914c59098e1a23a50f03f676dcd1218e9ec35a60f18875cae1a000000000017a9149916ba72551a2cb99f62960a9b217b622226ab8687024730440220328cddc89bf12e06575e6bb05cf6effdd21197194c11a7408d10497eb09f40100220369b687cd86eda924e0b1998b1c86c837e1ae682db8e05f6469f5351af2caac4012102dd0148f6c1aaaa6f3b2d017116d220d7c7a01edca9290404b0951364ba1787b000000000", "vin": [{"txinwitness": ["30440220328cddc89bf12e06575e6bb05cf6effdd21197194c11a7408d10497eb09f40100220369b687cd86eda924e0b1998b1c86c837e1ae682db8e05f6469f5351af2caac401", "02dd0148f6c1aaaa6f3b2d017116d220d7c7a01edca9290404b0951364ba1787b0"], "sequence": 4294967295, "scriptSig": {"hex": "1600149fb9643f19f182f035156f6b7f26fb8f4375a537", "asm": "00149fb9643f19f182f035156f6b7f26fb8f4375a537"}, "vout": 3, "txid": "718eaa6fad51ed99938d0a9e6d4805eaf9cf8f2dfbfdf2320bc63ea50b7f4262"}], "txid": "50b1282f7214c1a7d7c030076a0c5890c97e04880abe6ea9d34f4a63945a7b8e", "blocktime": 1537872475, "version": 2, "confirmations": 11486, "time": 1537872475, "locktime": 0, "vsize": 166, "size": 247}