{"hash": "16236c4d47223ceb92ce819bde328b3788760750bae4d8690596c880b4077b1a", "blockhash": "0000000000000000001cda96e906b7601b7a6fb1a3b62bca570a9e5d8f4b3de1", "vout": [{"scriptPubKey": {"reqSigs": 1, "hex": "76a914599e6bc436943c6baa13d56f7e88577a4e35ca9d88ac", "addresses": ["19ArvMZ6Ugp7VNMfMVaBqzCNFqVNUQV2XH"], "asm": "OP_DUP OP_HASH160 599e6bc436943c6baa13d56f7e88577a4e35ca9d OP_EQUALVERIFY OP_CHECKSIG", "type": "pubkeyhash"}, "value": 0.001153, "n": 0}, {"scriptPubKey": {"reqSigs": 1, "hex": "a9149649ad6d2730bb28020a268d9d80df10a9f74ad487", "addresses": ["3FPfYWwfMfKMGY7fuPHvz2b73RhTNGzsm3"], "asm": "OP_HASH160 9649ad6d2730bb28020a268d9d80df10a9f74ad4 OP_EQUAL", "type": "scripthash"}, "value": 13.85555726, "n": 1}], "hex": "010000000001014190b0d745dd15902cdff3038cde0d46a26d323823a35103c9a01adec1034e7901000000232200207768efcc1e5eb3d28410fac3f45831004c860cc24cddd940a616b34324823fceffffffff0264c20100000000001976a914599e6bc436943c6baa13d56f7e88577a4e35ca9d88ac0ee795520000000017a9149649ad6d2730bb28020a268d9d80df10a9f74ad4870400473044022006dfb22f5cc3b2bf971119775f418eeee4516c61a3bc662c15061f493bae0e6d022074268a9312b92a9e236acf20d21d39c9f465dc0138a89dc27678d481602af996014730440220685274109961d58027085111f4aa7974b7c942514b5b2b449d1004c8f02688c80220282d53bd4fbf7e29a8b9786b13821c34783e59ef64f041825415f20e886dda800147522102529d5d1f6733ab45d9d50e07db42c7f6b967ae321c38b726c2247f149959b8262103d0c936a5988dd8421c63240496b723b0ec42400c38b9350e32c2eb4f47d8796952ae00000000", "vin": [{"txinwitness": ["", "3044022006dfb22f5cc3b2bf971119775f418eeee4516c61a3bc662c15061f493bae0e6d022074268a9312b92a9e236acf20d21d39c9f465dc0138a89dc27678d481602af99601", "30440220685274109961d58027085111f4aa7974b7c942514b5b2b449d1004c8f02688c80220282d53bd4fbf7e29a8b9786b13821c34783e59ef64f041825415f20e886dda8001", "522102529d5d1f6733ab45d9d50e07db42c7f6b967ae321c38b726c2247f149959b8262103d0c936a5988dd8421c63240496b723b0ec42400c38b9350e32c2eb4f47d8796952ae"], "sequence": 4294967295, "scriptSig": {"hex": "2200207768efcc1e5eb3d28410fac3f45831004c860cc24cddd940a616b34324823fce", "asm": "00207768efcc1e5eb3d28410fac3f45831004c860cc24cddd940a616b34324823fce"}, "vout": 1, "txid": "794e03c1de1aa0c90351a32338326da2460dde8c03f3df2c9015dd45d7b09041"}], "txid": "50b414c06aeea893cde245dc10c8f423df8d17e6b434f9a2d13854436317f8e8", "blocktime": 1537873282, "version": 1, "confirmations": 11484, "time": 1537873282, "locktime": 0, "vsize": 207, "size": 372}