{"hash": "c24db1fc3932f35667ea05a6a6edbd8d007025515478b79c2b89015f66b934dd", "blockhash": "0000000000000000000dcc0f55137456b1a82d3642486a52398922ac4d620174", "vout": [{"scriptPubKey": {"reqSigs": 1, "hex": "a91413c3dcce8f524d8d6a18ddd4866d6279e320485487", "addresses": ["33VXPxNULxVhskrPvz9Kby6DojuwsxLTYb"], "asm": "OP_HASH160 13c3dcce8f524d8d6a18ddd4866d6279e3204854 OP_EQUAL", "type": "scripthash"}, "value": 0.01846, "n": 0}, {"scriptPubKey": {"reqSigs": 1, "hex": "a9144ce688ddd7039b7d6560620e3e7edc2f3c80126587", "addresses": ["38hdSx4SyPg6yHaBLyiiETTazerEYWd2WQ"], "asm": "OP_HASH160 4ce688ddd7039b7d6560620e3e7edc2f3c801265 OP_EQUAL", "type": "scripthash"}, "value": 0.34143479, "n": 1}], "hex": "010000000001011d16c82e6af556ccc9c3489e7c60f337be00e2273320eaf63e6b953a0ffd626b06000000232200208b4c5100f1666badfe38f08b5923ce8b62acb8f0e41d68657f78cd7ac9020c86ffffffff02f02a1c000000000017a91413c3dcce8f524d8d6a18ddd4866d6279e320485487f7fc08020000000017a9144ce688ddd7039b7d6560620e3e7edc2f3c80126587040047304402200639f76b49902f8c1abd5e1e7d83f4af5cffb07379862df1367f72f0410c28ec0220277fe49013740f353e977faa83e7c98a90ef068b8e6539601839c666690d803101483045022100859af967d0c0259f230125cfc02a72869f5be74cb89ca08db380e43a3b00790602200b650586460483d6abc7e8ca3c84480e004b59dd0c1f6732f2c30d7db82646240169522102708a8ae3652f0fa0fa3f20a84b5d605d3d95255078260cbd0e96fec7de6f56f821020a9214e4b99016e8a66d7a4cada5fe525cc87c62b3958ef7fd3aca7e4d370e2d2102ee8c41dd6318fc9a79a6aef906f7fc70584707221b1cedb56583b076f2c5a03953ae00000000", "vin": [{"txinwitness": ["", "304402200639f76b49902f8c1abd5e1e7d83f4af5cffb07379862df1367f72f0410c28ec0220277fe49013740f353e977faa83e7c98a90ef068b8e6539601839c666690d803101", "3045022100859af967d0c0259f230125cfc02a72869f5be74cb89ca08db380e43a3b00790602200b650586460483d6abc7e8ca3c84480e004b59dd0c1f6732f2c30d7db826462401", "522102708a8ae3652f0fa0fa3f20a84b5d605d3d95255078260cbd0e96fec7de6f56f821020a9214e4b99016e8a66d7a4cada5fe525cc87c62b3958ef7fd3aca7e4d370e2d2102ee8c41dd6318fc9a79a6aef906f7fc70584707221b1cedb56583b076f2c5a03953ae"], "sequence": 4294967295, "scriptSig": {"hex": "2200208b4c5100f1666badfe38f08b5923ce8b62acb8f0e41d68657f78cd7ac9020c86", "asm": "00208b4c5100f1666badfe38f08b5923ce8b62acb8f0e41d68657f78cd7ac9020c86"}, "vout": 6, "txid": "6b62fd0f3a956b3ef6ea203327e200be37f3607c9e48c3c9cc56f56a2ec8161d"}], "txid": "50b8386e58b91d391072facce994cfdc2c00ded03f7b021115700927b12f9cbb", "blocktime": 1537870268, "version": 1, "confirmations": 11518, "time": 1537870268, "locktime": 0, "vsize": 214, "size": 405}