{"hash": "50bab5f49aa30073aa555df13981062c8c8d7d345ab06889abfd073ae5122308", "blockhash": "00000000000000000004ffacab907a6b429b9a5745fa0b75af4234bf69dd7176", "vout": [{"scriptPubKey": {"reqSigs": 1, "hex": "76a9147772194e882117de3717689a7569a120f389d82e88ac", "addresses": ["1Bta6ZCkPXrwDHzXtNKDrKvDwmixX5JTNi"], "asm": "OP_DUP OP_HASH160 7772194e882117de3717689a7569a120f389d82e OP_EQUALVERIFY OP_CHECKSIG", "type": "pubkeyhash"}, "value": 0.04750379, "n": 0}, {"scriptPubKey": {"type": "nulldata", "hex": "6a146f6d6e69000000000000001f00000081812d2280", "asm": "OP_RETURN 6f6d6e69000000000000001f00000081812d2280"}, "value": 0.0, "n": 1}, {"scriptPubKey": {"reqSigs": 1, "hex": "76a9145248da51b7d07b8773f4ccfb29c4b424de807add88ac", "addresses": ["18W5gdfAPuADzKAqLA8ArBCrDRZdFGxz9j"], "asm": "OP_DUP OP_HASH160 5248da51b7d07b8773f4ccfb29c4b424de807add OP_EQUALVERIFY OP_CHECKSIG", "type": "pubkeyhash"}, "value": 5.46e-06, "n": 2}], "hex": "0100000001abafa7976bd81334daa344b70e21dfffc6949ae20ea3fd0b6fe5cc4147d68e46000000006a47304402207e493e2416ddcf799dcb705ecc7bc3b83f440876749dc60a513cb0fb94e556b502200c6a37ccd2fc69db8fc801dfcc458ba38a6517ad2a359e27607f63b881f858a301210314ecc5b6203367a70a1c669434f06a1e256d88e4aff5a34e8f51e90b1d7b7a43feffffff032b7c4800000000001976a9147772194e882117de3717689a7569a120f389d82e88ac0000000000000000166a146f6d6e69000000000000001f00000081812d228022020000000000001976a9145248da51b7d07b8773f4ccfb29c4b424de807add88ac16490800", "vin": [{"sequence": 4294967294, "scriptSig": {"hex": "47304402207e493e2416ddcf799dcb705ecc7bc3b83f440876749dc60a513cb0fb94e556b502200c6a37ccd2fc69db8fc801dfcc458ba38a6517ad2a359e27607f63b881f858a301210314ecc5b6203367a70a1c669434f06a1e256d88e4aff5a34e8f51e90b1d7b7a43", "asm": "304402207e493e2416ddcf799dcb705ecc7bc3b83f440876749dc60a513cb0fb94e556b502200c6a37ccd2fc69db8fc801dfcc458ba38a6517ad2a359e27607f63b881f858a3[ALL] 0314ecc5b6203367a70a1c669434f06a1e256d88e4aff5a34e8f51e90b1d7b7a43"}, "vout": 0, "txid": "468ed64741cce56f0bfda30ee29a94c6ffdf210eb744a3da3413d86b97a7afab"}], "txid": "50bab5f49aa30073aa555df13981062c8c8d7d345ab06889abfd073ae5122308", "blocktime": 1537875543, "version": 1, "confirmations": 11464, "time": 1537875543, "locktime": 542998, "vsize": 256, "size": 256}