{"hash": "5d1e131daca4504db7538d2ee8911436fd81bd003e1124d48534d4c00e6fac17", "blockhash": "0000000000000000000e13cef7c366c0283d82e591d1acd082e914b08063cdf1", "vout": [{"scriptPubKey": {"reqSigs": 1, "hex": "a91455154137ab414ed5ded5f8a87a3aebd2e9c611b287", "addresses": ["39StpeyspmFA1XZDXiuWFkNvmFUoFWfNpH"], "asm": "OP_HASH160 55154137ab414ed5ded5f8a87a3aebd2e9c611b2 OP_EQUAL", "type": "scripthash"}, "value": 0.30808789, "n": 0}, {"scriptPubKey": {"reqSigs": 1, "hex": "a91469f3767194e1f0f879ce207e7c24d2984ccda6f587", "addresses": ["3BMEXmYhhvz1sVubsSoHK4Fq4FUCo8LGAL"], "asm": "OP_HASH160 69f3767194e1f0f879ce207e7c24d2984ccda6f5 OP_EQUAL", "type": "scripthash"}, "value": 0.0933, "n": 1}], "hex": "01000000000101460b10060de0d12bb0bc5d0a74c1dc9c1490319e6eb17fec336652fc3f68eec70200000023220020f0bfcf9e50cb6520d0ba160d1da64f5e8b10eadce36e9c3a3e1b356eba69fbd4ffffffff02d51ad6010000000017a91455154137ab414ed5ded5f8a87a3aebd2e9c611b287505d8e000000000017a91469f3767194e1f0f879ce207e7c24d2984ccda6f58704004730440220359ba513cfad44b1aeef2eca00bb8d2834ff767ed39fc008597036734fc4fb1802204d221561640dc95222b7e737eafaf47f573457703b68975b3c1bb4e88971460501483045022100ee05ed0d345f00c692ef4f71a6558e5998a55c72964ed9d5e53531278b954e0602205a8d32916a1d66f236b556579613617d59666b9b7b23d2bf9404bb15a27bdfec0169522102b67c4b21c6bd3391f87644497f6fa55ee569b04efc327797e067849ea0725ce32102e3f9dc1caf6f8db9fa2f8f6ebc019d1fecd2fb8b8b8d1954b05bd25413fea16e2103a838750dc5f2ce9d8963565810cc54ee6b338a50ce67f22e981eec0397977b8f53ae00000000", "vin": [{"txinwitness": ["", "30440220359ba513cfad44b1aeef2eca00bb8d2834ff767ed39fc008597036734fc4fb1802204d221561640dc95222b7e737eafaf47f573457703b68975b3c1bb4e88971460501", "3045022100ee05ed0d345f00c692ef4f71a6558e5998a55c72964ed9d5e53531278b954e0602205a8d32916a1d66f236b556579613617d59666b9b7b23d2bf9404bb15a27bdfec01", "522102b67c4b21c6bd3391f87644497f6fa55ee569b04efc327797e067849ea0725ce32102e3f9dc1caf6f8db9fa2f8f6ebc019d1fecd2fb8b8b8d1954b05bd25413fea16e2103a838750dc5f2ce9d8963565810cc54ee6b338a50ce67f22e981eec0397977b8f53ae"], "sequence": 4294967295, "scriptSig": {"hex": "220020f0bfcf9e50cb6520d0ba160d1da64f5e8b10eadce36e9c3a3e1b356eba69fbd4", "asm": "0020f0bfcf9e50cb6520d0ba160d1da64f5e8b10eadce36e9c3a3e1b356eba69fbd4"}, "vout": 2, "txid": "c7ee683ffc526633ec7fb16e9e3190149cdcc1740a5dbcb02bd1e00d06100b46"}], "txid": "50bc4652d7c81164ada605fa3ba0437cc4c07e179b2971c36f97938ddd376b6f", "blocktime": 1537871767, "version": 1, "confirmations": 11495, "time": 1537871767, "locktime": 0, "vsize": 214, "size": 405}