{"hash": "50bc84fa66c3f87cf5c19e95fff1210853b275a14905cf49c65751f80a10bea8", "blockhash": "0000000000000000001cda96e906b7601b7a6fb1a3b62bca570a9e5d8f4b3de1", "vout": [{"scriptPubKey": {"type": "nulldata", "hex": "6a4c50000077ca000156ad56564651153b13e171da5b23cc0f42c2fc38c5e5bf9ae76da98a211af20c93f69a8b1c3b9601b103f5867b205baa13d90612c0ea5619812e4bbf23acfcfaac8058b692fe6808c31d", "asm": "OP_RETURN 000077ca000156ad56564651153b13e171da5b23cc0f42c2fc38c5e5bf9ae76da98a211af20c93f69a8b1c3b9601b103f5867b205baa13d90612c0ea5619812e4bbf23acfcfaac8058b692fe6808c31d"}, "value": 0.0, "n": 0}, {"scriptPubKey": {"reqSigs": 1, "hex": "76a914a41ce90437f011bf93f6355d07e810e5b4b0616a88ac", "addresses": ["1FxkTBJDkJSPHx8ffZx15sphdfXHtCNg45"], "asm": "OP_DUP OP_HASH160 a41ce90437f011bf93f6355d07e810e5b4b0616a OP_EQUALVERIFY OP_CHECKSIG", "type": "pubkeyhash"}, "value": 0.00013575, "n": 1}], "hex": "010000000124a0bef0523f45e55d1ff20f77de312edeb9abc2e77ec92a25cd83a3e339e588000000006b483045022100e64536fa44dcfec9dd822969a055c9ddb74967e948eba33b32a0cc8b43012f2602200a14977932d2e8303b7999dd51ee4d925d3be446972dccbb6287761cd8fd78100121034a78dec8702227192051a67853523aa4d39aa6efc4cafb7a2d6a4b89f910d818ffffffff020000000000000000536a4c50000077ca000156ad56564651153b13e171da5b23cc0f42c2fc38c5e5bf9ae76da98a211af20c93f69a8b1c3b9601b103f5867b205baa13d90612c0ea5619812e4bbf23acfcfaac8058b692fe6808c31d07350000000000001976a914a41ce90437f011bf93f6355d07e810e5b4b0616a88ac00000000", "vin": [{"sequence": 4294967295, "scriptSig": {"hex": "483045022100e64536fa44dcfec9dd822969a055c9ddb74967e948eba33b32a0cc8b43012f2602200a14977932d2e8303b7999dd51ee4d925d3be446972dccbb6287761cd8fd78100121034a78dec8702227192051a67853523aa4d39aa6efc4cafb7a2d6a4b89f910d818", "asm": "3045022100e64536fa44dcfec9dd822969a055c9ddb74967e948eba33b32a0cc8b43012f2602200a14977932d2e8303b7999dd51ee4d925d3be446972dccbb6287761cd8fd7810[ALL] 034a78dec8702227192051a67853523aa4d39aa6efc4cafb7a2d6a4b89f910d818"}, "vout": 0, "txid": "88e539e3a383cd252ac97ee7c2abb9de2e31de770ff21f5de5453f52f0bea024"}], "txid": "50bc84fa66c3f87cf5c19e95fff1210853b275a14905cf49c65751f80a10bea8", "blocktime": 1537873282, "version": 1, "confirmations": 11484, "time": 1537873282, "locktime": 0, "vsize": 284, "size": 284}