{"hash": "e8193c2ec2fb73743e592874e9ff35880c91ddfcc8948a98f968d0ac18622745", "blockhash": "0000000000000000001e0dab787dd257d1dbfcb92a98c2207d5e1078be1f4165", "vout": [{"scriptPubKey": {"reqSigs": 1, "hex": "a914cf66d6097af8dff78f130306a6d3fd0eed78fc3887", "addresses": ["3LbezRq5feDDtbnLuJNRLgsWJp2C4ysSaX"], "asm": "OP_HASH160 cf66d6097af8dff78f130306a6d3fd0eed78fc38 OP_EQUAL", "type": "scripthash"}, "value": 0.176991, "n": 0}, {"scriptPubKey": {"reqSigs": 1, "hex": "a9147ef4ed3569a7bfdd3045072775e4e92b9fb853de87", "addresses": ["3DGJUWgmJrbPmrfcbckaEV2xRrF3h5e6xu"], "asm": "OP_HASH160 7ef4ed3569a7bfdd3045072775e4e92b9fb853de OP_EQUAL", "type": "scripthash"}, "value": 0.30916674, "n": 1}], "hex": "020000000001015b2411c2bb95d294b0d54287db211e3076733473fb181dde90a5ca272bd4d9de0000000017160014d9d3acf9e84a3fa99de86f6f93ad0928a2795471feffffff021c110e010000000017a914cf66d6097af8dff78f130306a6d3fd0eed78fc388742c0d7010000000017a9147ef4ed3569a7bfdd3045072775e4e92b9fb853de8702483045022100a3b21ab61d8bd8cac0b1e462b7c6c4a8418d19b44e2bbaf0b5ea81f027a30b6802203fe23d72ced14c358adcd427cb4b2381952f590683da0d0846c50addd1d1b552012102316f02ae97cd976ff070b7d6ee6ccffd21285ad730844c6a4a6af1e74bc97d0412490800", "vin": [{"txinwitness": ["3045022100a3b21ab61d8bd8cac0b1e462b7c6c4a8418d19b44e2bbaf0b5ea81f027a30b6802203fe23d72ced14c358adcd427cb4b2381952f590683da0d0846c50addd1d1b55201", "02316f02ae97cd976ff070b7d6ee6ccffd21285ad730844c6a4a6af1e74bc97d04"], "sequence": 4294967294, "scriptSig": {"hex": "160014d9d3acf9e84a3fa99de86f6f93ad0928a2795471", "asm": "0014d9d3acf9e84a3fa99de86f6f93ad0928a2795471"}, "vout": 0, "txid": "ded9d42b27caa590de1d18fb73347376301e21db8742d5b094d295bbc211245b"}], "txid": "50bc4230c56be4911017965ea0652fe73eb50881668038c9733bf5555a37196d", "blocktime": 1537872475, "version": 2, "confirmations": 11487, "time": 1537872475, "locktime": 542994, "vsize": 166, "size": 248}