{"hash": "50bd779b695eb43bf28fed18a6c08208105d0db14f7d9cdf8d7bb78b1a8e4807", "blockhash": "00000000000000000004ffacab907a6b429b9a5745fa0b75af4234bf69dd7176", "vout": [{"scriptPubKey": {"reqSigs": 1, "hex": "76a91446334e37e9fdeb159f934f6ab252b63c4b6ada3c88ac", "addresses": ["17QBmCaRVzEqg3Nb4iyLFocGBWpXJ1DwfL"], "asm": "OP_DUP OP_HASH160 46334e37e9fdeb159f934f6ab252b63c4b6ada3c OP_EQUALVERIFY OP_CHECKSIG", "type": "pubkeyhash"}, "value": 1.7832, "n": 0}, {"scriptPubKey": {"reqSigs": 1, "hex": "a9143a726b932ea355e77080c4ccf4ce63d7045bf3fa87", "addresses": ["3724Bj3r2tFMZHTRZaApDE6gUXvfhnde72"], "asm": "OP_HASH160 3a726b932ea355e77080c4ccf4ce63d7045bf3fa OP_EQUAL", "type": "scripthash"}, "value": 0.065423, "n": 1}], "hex": "020000000166c21c6df4e287f8ec9a3ee7181598357fbe8f7ccc61b4c7e8c9bb5484ccd4ce01000000fdfd00004830450221009dcf315494bd23d744fdc36dfc9f1b465e9b3f086749edf56db531a614d24cf302205523787e95a3920d6445f389d3410911bb31b3f13980221fb0bf7f850153217701473044022033a34a19d770103b2957306b7767f3ca586a8bcf6d539f4e35495f53cf27dff80220252998f57558a45fa7847d8d227fc94ef5c8e1307c3e263c9a5c9be7c1b7143e014c6952210263b222b29c7035bbf3f31d0d763afa1805a7f648b45b1ba9fcdb3fe5bc3b0557210281167ac1f0ae8386cf2436891020a44d6ecdf0099d56fb43ffaae2da77ef42602102b79c9c15048c8a93273669d80b2e60015cccedcd61ff4e1aedc6e04280340e2553ae000000000280f2a00a000000001976a91446334e37e9fdeb159f934f6ab252b63c4b6ada3c88acdcd363000000000017a9143a726b932ea355e77080c4ccf4ce63d7045bf3fa8700000000", "vin": [{"sequence": 0, "scriptSig": {"hex": "004830450221009dcf315494bd23d744fdc36dfc9f1b465e9b3f086749edf56db531a614d24cf302205523787e95a3920d6445f389d3410911bb31b3f13980221fb0bf7f850153217701473044022033a34a19d770103b2957306b7767f3ca586a8bcf6d539f4e35495f53cf27dff80220252998f57558a45fa7847d8d227fc94ef5c8e1307c3e263c9a5c9be7c1b7143e014c6952210263b222b29c7035bbf3f31d0d763afa1805a7f648b45b1ba9fcdb3fe5bc3b0557210281167ac1f0ae8386cf2436891020a44d6ecdf0099d56fb43ffaae2da77ef42602102b79c9c15048c8a93273669d80b2e60015cccedcd61ff4e1aedc6e04280340e2553ae", "asm": "0 30450221009dcf315494bd23d744fdc36dfc9f1b465e9b3f086749edf56db531a614d24cf302205523787e95a3920d6445f389d3410911bb31b3f13980221fb0bf7f8501532177[ALL] 3044022033a34a19d770103b2957306b7767f3ca586a8bcf6d539f4e35495f53cf27dff80220252998f57558a45fa7847d8d227fc94ef5c8e1307c3e263c9a5c9be7c1b7143e[ALL] 52210263b222b29c7035bbf3f31d0d763afa1805a7f648b45b1ba9fcdb3fe5bc3b0557210281167ac1f0ae8386cf2436891020a44d6ecdf0099d56fb43ffaae2da77ef42602102b79c9c15048c8a93273669d80b2e60015cccedcd61ff4e1aedc6e04280340e2553ae"}, "vout": 1, "txid": "ced4cc8454bbc9e8c7b461cc7c8fbe7f35981518e73e9aecf887e2f46d1cc266"}], "txid": "50bd779b695eb43bf28fed18a6c08208105d0db14f7d9cdf8d7bb78b1a8e4807", "blocktime": 1537875543, "version": 2, "confirmations": 11464, "time": 1537875543, "locktime": 0, "vsize": 372, "size": 372}