{"hash": "50bec272a640006a46c6cc2e1cb79ca56e4c1760bb051bceabc9acf31f4bc793", "blockhash": "0000000000000000001cda96e906b7601b7a6fb1a3b62bca570a9e5d8f4b3de1", "vout": [{"scriptPubKey": {"reqSigs": 1, "hex": "a914801ccdaf232c0882b662cd09c7807a9ac9d37d9187", "addresses": ["3DNQvPz4uot2934QEvxs4YX9Z5ZU8cWPQR"], "asm": "OP_HASH160 801ccdaf232c0882b662cd09c7807a9ac9d37d91 OP_EQUAL", "type": "scripthash"}, "value": 0.0028, "n": 0}, {"scriptPubKey": {"reqSigs": 1, "hex": "76a914b77063b320a62c8919e7a6b373b7247ac68dc9d588ac", "addresses": ["1HiwJ4YBXJYjMSB7uRGthcBNu6jTfUQgEs"], "asm": "OP_DUP OP_HASH160 b77063b320a62c8919e7a6b373b7247ac68dc9d5 OP_EQUALVERIFY OP_CHECKSIG", "type": "pubkeyhash"}, "value": 0.01067487, "n": 1}], "hex": "0100000001095720d57ee77a2ce9ef5f5ce2f31018d3f9dde3c4fc26f36d39714921a48c8a000000006b48304502210091752e29d7007b6069b9bcb7cbbb463bb198224b574722a605fc7ebca21df53b0220635d786d554ea367cb6a65f10fbd2f14cdc376121caf4691abf3015d81cd35eb0121031be96e641ba1be94207e642b28fcbdad63386ba82632e95d2360db4612532a34ffffffff02c04504000000000017a914801ccdaf232c0882b662cd09c7807a9ac9d37d9187df491000000000001976a914b77063b320a62c8919e7a6b373b7247ac68dc9d588ac00000000", "vin": [{"sequence": 4294967295, "scriptSig": {"hex": "48304502210091752e29d7007b6069b9bcb7cbbb463bb198224b574722a605fc7ebca21df53b0220635d786d554ea367cb6a65f10fbd2f14cdc376121caf4691abf3015d81cd35eb0121031be96e641ba1be94207e642b28fcbdad63386ba82632e95d2360db4612532a34", "asm": "304502210091752e29d7007b6069b9bcb7cbbb463bb198224b574722a605fc7ebca21df53b0220635d786d554ea367cb6a65f10fbd2f14cdc376121caf4691abf3015d81cd35eb[ALL] 031be96e641ba1be94207e642b28fcbdad63386ba82632e95d2360db4612532a34"}, "vout": 0, "txid": "8a8ca4214971396df326fcc4e3ddf9d31810f3e25c5fefe92c7ae77ed5205709"}], "txid": "50bec272a640006a46c6cc2e1cb79ca56e4c1760bb051bceabc9acf31f4bc793", "blocktime": 1537873282, "version": 1, "confirmations": 11484, "time": 1537873282, "locktime": 0, "vsize": 224, "size": 224}