{"hash": "50c422f14a36b6fbf922df81a8269f250e40a3cd02f431cb14340696cd68a32e", "blockhash": "00000000000000000018f53835495a110e01622372bf6ae95dc86f2b0ab887b0", "vout": [{"scriptPubKey": {"reqSigs": 1, "hex": "a9147ea90dce495cd8b7feb86bd9187ca2c08e6c461287", "addresses": ["3DEjanchfkawVaKLWRDm85RP836GLCK6qV"], "asm": "OP_HASH160 7ea90dce495cd8b7feb86bd9187ca2c08e6c4612 OP_EQUAL", "type": "scripthash"}, "value": 0.039, "n": 0}, {"scriptPubKey": {"reqSigs": 1, "hex": "76a91437045c0e8c335f9cefa36b73368c350dd296dadb88ac", "addresses": ["161uPTj5278G9XyeivCex8BECP1fqf7h36"], "asm": "OP_DUP OP_HASH160 37045c0e8c335f9cefa36b73368c350dd296dadb OP_EQUALVERIFY OP_CHECKSIG", "type": "pubkeyhash"}, "value": 0.01847999, "n": 1}], "hex": "0200000001c0ffe871618f097d6ab6a25e524768eda604752123a3d4d5c350203265c05169000000006b483045022100ddcc34cb4f15752979d42e31430f55fc1f7075fe8a7b834d6fda9a7f171ec7240220574e55a0f3da948b228eeb686eb8a90d2f014d486ca9853f7ebbafbee2c3fa07012103d20388c91d60595be6c79cbb7ad17e8a9e25d9ba4707057ffd9e717adb8c8e51feffffff0260823b000000000017a9147ea90dce495cd8b7feb86bd9187ca2c08e6c461287bf321c00000000001976a91437045c0e8c335f9cefa36b73368c350dd296dadb88ac0e490800", "vin": [{"sequence": 4294967294, "scriptSig": {"hex": "483045022100ddcc34cb4f15752979d42e31430f55fc1f7075fe8a7b834d6fda9a7f171ec7240220574e55a0f3da948b228eeb686eb8a90d2f014d486ca9853f7ebbafbee2c3fa07012103d20388c91d60595be6c79cbb7ad17e8a9e25d9ba4707057ffd9e717adb8c8e51", "asm": "3045022100ddcc34cb4f15752979d42e31430f55fc1f7075fe8a7b834d6fda9a7f171ec7240220574e55a0f3da948b228eeb686eb8a90d2f014d486ca9853f7ebbafbee2c3fa07[ALL] 03d20388c91d60595be6c79cbb7ad17e8a9e25d9ba4707057ffd9e717adb8c8e51"}, "vout": 0, "txid": "6951c065322050c3d5d4a323217504a6ed6847525ea2b66a7d098f6171e8ffc0"}], "txid": "50c422f14a36b6fbf922df81a8269f250e40a3cd02f431cb14340696cd68a32e", "blocktime": 1537870928, "version": 2, "confirmations": 11514, "time": 1537870928, "locktime": 542990, "vsize": 224, "size": 224}