{"hash": "82eeeb0060b36d6764e2bc2ffb33ea968ba2e3fdd3833c4fdfecee7c9554bc4b", "blockhash": "0000000000000000001f76057863aec43deb6fa401d9628bb513d65a8098bfab", "vout": [{"scriptPubKey": {"reqSigs": 1, "hex": "a914ed4653b036e6a8486a8dc60eaf1bf04876b2813687", "addresses": ["3PKcKQYcVJy596Z8Ad6UBM29X9ATtkmmDb"], "asm": "OP_HASH160 ed4653b036e6a8486a8dc60eaf1bf04876b28136 OP_EQUAL", "type": "scripthash"}, "value": 0.20870187, "n": 0}, {"scriptPubKey": {"reqSigs": 1, "hex": "a914e5eb5ebca6efdfe28e859f677fb1a0787f73b36f87", "addresses": ["3NeidGidqt1d282BTBp8iJHzvBPzcs8crT"], "asm": "OP_HASH160 e5eb5ebca6efdfe28e859f677fb1a0787f73b36f OP_EQUAL", "type": "scripthash"}, "value": 0.01722704, "n": 1}], "hex": "020000000001011f1aa683829c9b5f4f55c2d6afd41d530aaee7272002e73abcdd51edd62c0ac20000000017160014709c19a2a74bb2953fda73f81f9d6269f1294531feffffff022b743e010000000017a914ed4653b036e6a8486a8dc60eaf1bf04876b281368750491a000000000017a914e5eb5ebca6efdfe28e859f677fb1a0787f73b36f8702483045022100971ce19eb725eb1f0e147755080070b916e8adb0db23f8f6741fa72788be9883022076dcd75d4a8ee907ed2340f18118a72787ea0f8be1faf69b2f999c9e7a29c7ff012103ddda70b3bd8e51a0141e23561eee84d67a2c21ddaef77693b8814cd0f14b052514490800", "vin": [{"txinwitness": ["3045022100971ce19eb725eb1f0e147755080070b916e8adb0db23f8f6741fa72788be9883022076dcd75d4a8ee907ed2340f18118a72787ea0f8be1faf69b2f999c9e7a29c7ff01", "03ddda70b3bd8e51a0141e23561eee84d67a2c21ddaef77693b8814cd0f14b0525"], "sequence": 4294967294, "scriptSig": {"hex": "160014709c19a2a74bb2953fda73f81f9d6269f1294531", "asm": "0014709c19a2a74bb2953fda73f81f9d6269f1294531"}, "vout": 0, "txid": "c20a2cd6ed51ddbc3ae7022027e7ae0a531dd4afd6c2554f5f9b9c8283a61a1f"}], "txid": "50c51c17c2ddfe01dde4a254e891996d5abf5e8f23270d891208461f76b1dbfc", "blocktime": 1537873891, "version": 2, "confirmations": 11478, "time": 1537873891, "locktime": 542996, "vsize": 166, "size": 248}