{"hash": "50c733f8a3d0ad528efdd3d6768f9c4124ae41641fe24028dff230aeb84269f8", "blockhash": "00000000000000000018f53835495a110e01622372bf6ae95dc86f2b0ab887b0", "vout": [{"scriptPubKey": {"reqSigs": 1, "hex": "76a914a092100fc21b59e2665b2376f38a6f5e4589214a88ac", "addresses": ["1Fe26Jyox2aht5WctapoDLfz76ck3qTLzX"], "asm": "OP_DUP OP_HASH160 a092100fc21b59e2665b2376f38a6f5e4589214a OP_EQUALVERIFY OP_CHECKSIG", "type": "pubkeyhash"}, "value": 0.01110662, "n": 0}, {"scriptPubKey": {"reqSigs": 1, "hex": "a9140f9f634625af18d12650c83962c80ad5abd5587087", "addresses": ["337czsw2YGSKef1pA7fMjFDQUg6ksqXa3s"], "asm": "OP_HASH160 0f9f634625af18d12650c83962c80ad5abd55870 OP_EQUAL", "type": "scripthash"}, "value": 0.0063, "n": 1}], "hex": "01000000016f0821da3b6623d38b185b20ca2682fba468b6046e2de53255b634a7c26b0ec4000000006b4830450221009ab1654755417eefd946787937754115d44c42285d5b01b635b32841d5ce566802204a6754997f0462a9dbb3844b25111eaa13ea93dc4b667a02bbaf70928ab2be590121025edf2dfc7b7c955f4538c02408d85e22ce385e63b8402f6c6435bf54ecbe2c7bffffffff0286f21000000000001976a914a092100fc21b59e2665b2376f38a6f5e4589214a88acf09c09000000000017a9140f9f634625af18d12650c83962c80ad5abd558708700000000", "vin": [{"sequence": 4294967295, "scriptSig": {"hex": "4830450221009ab1654755417eefd946787937754115d44c42285d5b01b635b32841d5ce566802204a6754997f0462a9dbb3844b25111eaa13ea93dc4b667a02bbaf70928ab2be590121025edf2dfc7b7c955f4538c02408d85e22ce385e63b8402f6c6435bf54ecbe2c7b", "asm": "30450221009ab1654755417eefd946787937754115d44c42285d5b01b635b32841d5ce566802204a6754997f0462a9dbb3844b25111eaa13ea93dc4b667a02bbaf70928ab2be59[ALL] 025edf2dfc7b7c955f4538c02408d85e22ce385e63b8402f6c6435bf54ecbe2c7b"}, "vout": 0, "txid": "c40e6bc2a734b65532e52d6e04b668a4fb8226ca205b188bd323663bda21086f"}], "txid": "50c733f8a3d0ad528efdd3d6768f9c4124ae41641fe24028dff230aeb84269f8", "blocktime": 1537870928, "version": 1, "confirmations": 11512, "time": 1537870928, "locktime": 0, "vsize": 224, "size": 224}