{"hash": "b84884bef96bda4c83190d23c375ed5e8642a98639d7a1e5ddc5196b75aada7e", "blockhash": "0000000000000000000e13cef7c366c0283d82e591d1acd082e914b08063cdf1", "vout": [{"scriptPubKey": {"reqSigs": 1, "hex": "76a9144d6763929327f8615382a2cc316a2ea742d5fe1a88ac", "addresses": ["184GtMy4kbPsvRx3VyiKcoV9EfKXZ5e8GS"], "asm": "OP_DUP OP_HASH160 4d6763929327f8615382a2cc316a2ea742d5fe1a OP_EQUALVERIFY OP_CHECKSIG", "type": "pubkeyhash"}, "value": 0.0078, "n": 0}, {"scriptPubKey": {"reqSigs": 1, "hex": "a9142b0fd9607d87ced46eb1a722fea3981e88c5cba787", "addresses": ["35chy1VGmo5LPZD6W1Ciyww29CvwQAw7J6"], "asm": "OP_HASH160 2b0fd9607d87ced46eb1a722fea3981e88c5cba7 OP_EQUAL", "type": "scripthash"}, "value": 1.68087999, "n": 1}], "hex": "020000000001018b1c85927d887fba765a054cc4fd621b40dc0929c99567a03bba149f02afec79000000001716001401f0a8cf4584f1801b983063e38b6379e100089fffffffff02e0e60b00000000001976a9144d6763929327f8615382a2cc316a2ea742d5fe1a88acbfd1040a0000000017a9142b0fd9607d87ced46eb1a722fea3981e88c5cba78702473044022046bb27761fa34f2a0ecd9d547563b11d40c448d255d07f71a5246932b00dca5102201e07ac22fc4a5a9bc02cfaf6ac3e11ef405e12cb837ee4fa8ea834827e5d47c90121025fb6e17478f7f0d974a789d965b11bbaec498c6723e1578718f9aea32730d7a000000000", "vin": [{"txinwitness": ["3044022046bb27761fa34f2a0ecd9d547563b11d40c448d255d07f71a5246932b00dca5102201e07ac22fc4a5a9bc02cfaf6ac3e11ef405e12cb837ee4fa8ea834827e5d47c901", "025fb6e17478f7f0d974a789d965b11bbaec498c6723e1578718f9aea32730d7a0"], "sequence": 4294967295, "scriptSig": {"hex": "16001401f0a8cf4584f1801b983063e38b6379e100089f", "asm": "001401f0a8cf4584f1801b983063e38b6379e100089f"}, "vout": 0, "txid": "79ecaf029f14ba3ba06795c92909dc401b62fdc44c055a76ba7f887d92851c8b"}], "txid": "50c984f09acb30bddeb0508829451be38c6fa10edc9247e50584f68851caf2b0", "blocktime": 1537871767, "version": 2, "confirmations": 11493, "time": 1537871767, "locktime": 0, "vsize": 168, "size": 249}