{"hash": "dd9f66f41ff9c0f9e16fca7f911a2fa3f91e96f4bffd2073921f762ac3b96269", "blockhash": "00000000000000000024a2167bbff67b0be802c0b01cdd79e6331c2be6459f87", "vout": [{"scriptPubKey": {"reqSigs": 1, "hex": "001420d4991bb7babeb8a024371f13a262a71f9b475d", "addresses": ["bc1qyr2fjxahh2lt3gpyxu038gnz5u0ek36afe558l"], "asm": "0 20d4991bb7babeb8a024371f13a262a71f9b475d", "type": "witness_v0_keyhash"}, "value": 5.186e-05, "n": 0}, {"scriptPubKey": {"reqSigs": 1, "hex": "76a914edb01ccb8eabf163be3b91d3931fc8be3a23a35f88ac", "addresses": ["1Nfn7yTtxEF3FdeQhkoZJZucjPnUy5Qwpn"], "asm": "OP_DUP OP_HASH160 edb01ccb8eabf163be3b91d3931fc8be3a23a35f OP_EQUALVERIFY OP_CHECKSIG", "type": "pubkeyhash"}, "value": 0.00509563, "n": 1}], "hex": "01000000000101827ebf8dff05c6a675eda2b5c9238923f4c679eef0fd15e51a5384ef4d83b2850500000017160014f38bd4905a9b566aceedb4ba24f890410a7e12f2ffffffff02421400000000000016001420d4991bb7babeb8a024371f13a262a71f9b475d7bc60700000000001976a914edb01ccb8eabf163be3b91d3931fc8be3a23a35f88ac02483045022100cfbba06e6fc79471ed8556a6c4b55d8931aec53b32827bd75ff0e00c9ef3abfc02204b3933f0c957950fdda8a5be2ea362f1e9a0e3fb24faf500cb20f57b3a550e11012103653309fc79c0f0469551d36af5cf639d25d5fa5576bd62282f6b037ad582d9e800000000", "vin": [{"txinwitness": ["3045022100cfbba06e6fc79471ed8556a6c4b55d8931aec53b32827bd75ff0e00c9ef3abfc02204b3933f0c957950fdda8a5be2ea362f1e9a0e3fb24faf500cb20f57b3a550e1101", "03653309fc79c0f0469551d36af5cf639d25d5fa5576bd62282f6b037ad582d9e8"], "sequence": 4294967295, "scriptSig": {"hex": "160014f38bd4905a9b566aceedb4ba24f890410a7e12f2", "asm": "0014f38bd4905a9b566aceedb4ba24f890410a7e12f2"}, "vout": 5, "txid": "85b2834def84531ae515fdf0ee79c6f4238923c9b5a2ed75a6c605ff8dbf7e82"}], "txid": "50d09c8d95fd2dc2fdba3114c9184d5c504b5de89f57fc08650da002b2512a21", "blocktime": 1537870564, "version": 1, "confirmations": 11515, "time": 1537870564, "locktime": 0, "vsize": 167, "size": 249}