{"hash": "50d28b9ab210a33b166e77b289b37db0086e59796c12d08f425fca719f70e17a", "blockhash": "0000000000000000000dcc0f55137456b1a82d3642486a52398922ac4d620174", "vout": [{"scriptPubKey": {"reqSigs": 1, "hex": "76a91466f19bc740d4c13db8203ea10799f4515eeb05e188ac", "addresses": ["1APKMpaD3emA9FHqSomWZtkt12MFFQZWgg"], "asm": "OP_DUP OP_HASH160 66f19bc740d4c13db8203ea10799f4515eeb05e1 OP_EQUALVERIFY OP_CHECKSIG", "type": "pubkeyhash"}, "value": 1.0, "n": 0}, {"scriptPubKey": {"reqSigs": 1, "hex": "76a914b72e2a969fd02a584e4243e154112e3198d6295488ac", "addresses": ["1HhZxoQ3QpjQKDfS4pSmeJaw9JTqgs8oSy"], "asm": "OP_DUP OP_HASH160 b72e2a969fd02a584e4243e154112e3198d62954 OP_EQUALVERIFY OP_CHECKSIG", "type": "pubkeyhash"}, "value": 0.9999548, "n": 1}], "hex": "010000000106063aed1b916cad73815e468c2e50e0bfd0fa818f174e915af7ee46f925ece2010000006b483045022100ef7870aaf39c3686a44b8467d787468fe88e5772a13b8241fc469179a153d7e702203eac94b7076cbda0451138ac753f390a5f4fb26fab3a2f73f5c886eed9b14e330121028c272c8eab698cddf304e5ed418b15416e2955dc2d6047159b1e94dc0e744fa8ffffffff0200e1f505000000001976a91466f19bc740d4c13db8203ea10799f4515eeb05e188ac58cff505000000001976a914b72e2a969fd02a584e4243e154112e3198d6295488ac00000000", "vin": [{"sequence": 4294967295, "scriptSig": {"hex": "483045022100ef7870aaf39c3686a44b8467d787468fe88e5772a13b8241fc469179a153d7e702203eac94b7076cbda0451138ac753f390a5f4fb26fab3a2f73f5c886eed9b14e330121028c272c8eab698cddf304e5ed418b15416e2955dc2d6047159b1e94dc0e744fa8", "asm": "3045022100ef7870aaf39c3686a44b8467d787468fe88e5772a13b8241fc469179a153d7e702203eac94b7076cbda0451138ac753f390a5f4fb26fab3a2f73f5c886eed9b14e33[ALL] 028c272c8eab698cddf304e5ed418b15416e2955dc2d6047159b1e94dc0e744fa8"}, "vout": 1, "txid": "e2ec25f946eef75a914e178f81fad0bfe0502e8c465e8173ad6c911bed3a0606"}], "txid": "50d28b9ab210a33b166e77b289b37db0086e59796c12d08f425fca719f70e17a", "blocktime": 1537870268, "version": 1, "confirmations": 11516, "time": 1537870268, "locktime": 0, "vsize": 226, "size": 226}