{"hash": "50d6ea828f0ae38fee15551b28f4eaab9c61674ee4ecf9797328394b91fd7385", "blockhash": "000000000000000000022b45ed06c6f4ccd3cf7fb5ba4856ebd2e58215665228", "vout": [{"scriptPubKey": {"reqSigs": 1, "hex": "76a914681e3b19ae188871ecfdf80356b1175c5f68de4c88ac", "addresses": ["1AVXVRniJft9Ho9ctqmuJLuFthv7PEEVVS"], "asm": "OP_DUP OP_HASH160 681e3b19ae188871ecfdf80356b1175c5f68de4c OP_EQUALVERIFY OP_CHECKSIG", "type": "pubkeyhash"}, "value": 0.0366, "n": 0}, {"scriptPubKey": {"reqSigs": 1, "hex": "0014a5f2775a7added97be3f914c7c41a1e4cc58c70c", "addresses": ["bc1q5he8wkn6mhke003lj9x8csdpunx933cv69kl6q"], "asm": "0 a5f2775a7added97be3f914c7c41a1e4cc58c70c", "type": "witness_v0_keyhash"}, "value": 0.00339216, "n": 1}], "hex": "010000000159eb516a2ed49175bde1110d232c4dd82a15d38415fb4bb9bd101e32e2c58ff5000000006a47304402206a5e5bf83ffd48dfa916a47717309584366ed776fe55ceaf4fa9a1925df0c3250220086c9577aa4ac0577ee5797d7bf213c14d9112cd2083fad53c7331004fb27e9e012102e1213680ee54efc3291bd50be57b770ab2e060debe9225463512b5203c4c42c1ffffffff02e0d83700000000001976a914681e3b19ae188871ecfdf80356b1175c5f68de4c88ac102d050000000000160014a5f2775a7added97be3f914c7c41a1e4cc58c70c00000000", "vin": [{"sequence": 4294967295, "scriptSig": {"hex": "47304402206a5e5bf83ffd48dfa916a47717309584366ed776fe55ceaf4fa9a1925df0c3250220086c9577aa4ac0577ee5797d7bf213c14d9112cd2083fad53c7331004fb27e9e012102e1213680ee54efc3291bd50be57b770ab2e060debe9225463512b5203c4c42c1", "asm": "304402206a5e5bf83ffd48dfa916a47717309584366ed776fe55ceaf4fa9a1925df0c3250220086c9577aa4ac0577ee5797d7bf213c14d9112cd2083fad53c7331004fb27e9e[ALL] 02e1213680ee54efc3291bd50be57b770ab2e060debe9225463512b5203c4c42c1"}, "vout": 0, "txid": "f58fc5e2321e10bdb94bfb1584d3152ad84d2c230d11e1bd7591d42e6a51eb59"}], "txid": "50d6ea828f0ae38fee15551b28f4eaab9c61674ee4ecf9797328394b91fd7385", "blocktime": 1537869901, "version": 1, "confirmations": 11523, "time": 1537869901, "locktime": 0, "vsize": 222, "size": 222}