{"hash": "50d7b7fce6ba13032e8fda397675e72a492b94aa1ff268500a00017e5de885b0", "blockhash": "00000000000000000017f5eb5941039fbcee6240d03bc1f2f8e35350df66a1d8", "vout": [{"scriptPubKey": {"reqSigs": 1, "hex": "76a9147ba2fff6ab0213483600f426c623025ff6a1a43b88ac", "addresses": ["1CGjP2P3ubfDA1TUMKuyxNjPDzMK1DKA7Y"], "asm": "OP_DUP OP_HASH160 7ba2fff6ab0213483600f426c623025ff6a1a43b OP_EQUALVERIFY OP_CHECKSIG", "type": "pubkeyhash"}, "value": 0.00082343, "n": 0}, {"scriptPubKey": {"reqSigs": 1, "hex": "a914268bf461471a03ff677d13bede6edfe1737104a787", "addresses": ["35CqG3rbnVgexYFLYAH2vntnEGUoZkMv7R"], "asm": "OP_HASH160 268bf461471a03ff677d13bede6edfe1737104a7 OP_EQUAL", "type": "scripthash"}, "value": 0.01811059, "n": 1}], "hex": "0100000001385c0e8c5a98fcc5f23e4971077a0864b81ddffaf71c6030d674edffbeccafe7000000006a473044022036271dbc3e027a61f428091aa2363e72d97edc292a7da9ac3ae31b9043c170d8022023fd59cd13ffe9dc385e236dd1f532268398513f1f2968030b89fc3219873b1a0121026d8bab04bb73c8889e2e46c4c932a2805e82b8b80133f0cf96fdbf4f5b0a7d92ffffffff02a7410100000000001976a9147ba2fff6ab0213483600f426c623025ff6a1a43b88ac73a21b000000000017a914268bf461471a03ff677d13bede6edfe1737104a78700000000", "vin": [{"sequence": 4294967295, "scriptSig": {"hex": "473044022036271dbc3e027a61f428091aa2363e72d97edc292a7da9ac3ae31b9043c170d8022023fd59cd13ffe9dc385e236dd1f532268398513f1f2968030b89fc3219873b1a0121026d8bab04bb73c8889e2e46c4c932a2805e82b8b80133f0cf96fdbf4f5b0a7d92", "asm": "3044022036271dbc3e027a61f428091aa2363e72d97edc292a7da9ac3ae31b9043c170d8022023fd59cd13ffe9dc385e236dd1f532268398513f1f2968030b89fc3219873b1a[ALL] 026d8bab04bb73c8889e2e46c4c932a2805e82b8b80133f0cf96fdbf4f5b0a7d92"}, "vout": 0, "txid": "e7afccbeffed74d630601cf7fadf1db864087a0771493ef2c5fc985a8c0e5c38"}], "txid": "50d7b7fce6ba13032e8fda397675e72a492b94aa1ff268500a00017e5de885b0", "blocktime": 1537874412, "version": 1, "confirmations": 11468, "time": 1537874412, "locktime": 0, "vsize": 223, "size": 223}