{"hash": "50db030dc27c314cf351319931dc27ea3f678d3a210e0514d3281cf7be1f38e1", "blockhash": "0000000000000000001f0ddff1eddb255c1121bcd4da4f1bc9a0da00cae72433", "vout": [{"scriptPubKey": {"reqSigs": 1, "hex": "a91409481d82fb7fd38020f0a428763a574916b41a5087", "addresses": ["32Y6Pvm6JBZxWsn81B3stmXPWq9bR4mHN3"], "asm": "OP_HASH160 09481d82fb7fd38020f0a428763a574916b41a50 OP_EQUAL", "type": "scripthash"}, "value": 0.023, "n": 0}, {"scriptPubKey": {"reqSigs": 1, "hex": "76a91487df16764d189f526687bf948dd917c2e5c2b9d988ac", "addresses": ["1DPRUJhiBwwMWRrAaFh89P7JEa2FimK9mE"], "asm": "OP_DUP OP_HASH160 87df16764d189f526687bf948dd917c2e5c2b9d9 OP_EQUALVERIFY OP_CHECKSIG", "type": "pubkeyhash"}, "value": 0.02699776, "n": 1}], "hex": "0100000001b08a87c8829709fa5a5c2742f9f76a15e3afa5cc9fd2118d524a56c6f9771203010000006a473044022077866df93beacb8f0d8c1d3b24bcb46b355fac1698b60e02d7a62b911eecab09022079016299a693ea9a94b8d78a0ebd7d0944544c353e0f283272fdfdf85768dbcc012102cd9f8843981c00f7f063e98c9c3b7b5a267dfca14dbe0747d722da41ff5a7ec6fdffffff02601823000000000017a91409481d82fb7fd38020f0a428763a574916b41a508700322900000000001976a91487df16764d189f526687bf948dd917c2e5c2b9d988ac10490800", "vin": [{"sequence": 4294967293, "scriptSig": {"hex": "473044022077866df93beacb8f0d8c1d3b24bcb46b355fac1698b60e02d7a62b911eecab09022079016299a693ea9a94b8d78a0ebd7d0944544c353e0f283272fdfdf85768dbcc012102cd9f8843981c00f7f063e98c9c3b7b5a267dfca14dbe0747d722da41ff5a7ec6", "asm": "3044022077866df93beacb8f0d8c1d3b24bcb46b355fac1698b60e02d7a62b911eecab09022079016299a693ea9a94b8d78a0ebd7d0944544c353e0f283272fdfdf85768dbcc[ALL] 02cd9f8843981c00f7f063e98c9c3b7b5a267dfca14dbe0747d722da41ff5a7ec6"}, "vout": 1, "txid": "031277f9c6564a528d11d29fcca5afe3156af7f942275c5afa099782c8878ab0"}], "txid": "50db030dc27c314cf351319931dc27ea3f678d3a210e0514d3281cf7be1f38e1", "blocktime": 1537872018, "version": 1, "confirmations": 11489, "time": 1537872018, "locktime": 542992, "vsize": 223, "size": 223}