{"hash": "2292a06df7c9561590ddac55cde7f951f4bd47fd012ef1c84587f923052c9b9e", "blockhash": "00000000000000000024a2167bbff67b0be802c0b01cdd79e6331c2be6459f87", "vout": [{"scriptPubKey": {"reqSigs": 1, "hex": "a9141647787bf384dd6320297388895388c127ecf6d687", "addresses": ["33ipQdZkQF5sqafWeJKD9usK6tKVV197MH"], "asm": "OP_HASH160 1647787bf384dd6320297388895388c127ecf6d6 OP_EQUAL", "type": "scripthash"}, "value": 2.12954628, "n": 0}, {"scriptPubKey": {"reqSigs": 1, "hex": "a914b383d2d6efea4da44bf3b903c4ce0722c5593a0e87", "addresses": ["3J4Co9NZQB3sEVzyjtLhiGTDhipoPLmM9V"], "asm": "OP_HASH160 b383d2d6efea4da44bf3b903c4ce0722c5593a0e OP_EQUAL", "type": "scripthash"}, "value": 0.00109968, "n": 1}], "hex": "0200000000010173bb375792332f5d4749c33f766a77e80f4b55d9063d93d7b4152d75967317370100000017160014b983dc6eb75b0f36b0bb684e2d78bbb3358e4193feffffff02046eb10c0000000017a9141647787bf384dd6320297388895388c127ecf6d68790ad01000000000017a914b383d2d6efea4da44bf3b903c4ce0722c5593a0e87024730440220347b334944675d835da02995e9e2835af1e1db085e46ec9df93bf2050a521fc8022057e3ace89b09845a5e4a666b858322862e77fdfe5569db8b357d2bc36e54b8be012102748ad4aba77afe4279e304926dde4bbf939eceaf18b2c1593ac563bec06e8bbeab480800", "vin": [{"txinwitness": ["30440220347b334944675d835da02995e9e2835af1e1db085e46ec9df93bf2050a521fc8022057e3ace89b09845a5e4a666b858322862e77fdfe5569db8b357d2bc36e54b8be01", "02748ad4aba77afe4279e304926dde4bbf939eceaf18b2c1593ac563bec06e8bbe"], "sequence": 4294967294, "scriptSig": {"hex": "160014b983dc6eb75b0f36b0bb684e2d78bbb3358e4193", "asm": "0014b983dc6eb75b0f36b0bb684e2d78bbb3358e4193"}, "vout": 1, "txid": "37177396752d15b4d7933d06d9554b0fe8776a763fc349475d2f33925737bb73"}], "txid": "50df47053f288ef55c9162d94211145a6fe493dd2d527e35ffd4fdfde642c541", "blocktime": 1537870564, "version": 2, "confirmations": 11515, "time": 1537870564, "locktime": 542891, "vsize": 166, "size": 247}