{"hash": "50e2bdca4c0c92941700d675344b236498459b62355e12275d4304fe7292a228", "blockhash": "000000000000000000022b45ed06c6f4ccd3cf7fb5ba4856ebd2e58215665228", "vout": [{"scriptPubKey": {"reqSigs": 1, "hex": "76a914804a874199f64afcca47e8e828f92958ee27c3d888ac", "addresses": ["1ChLmsiiNR8ppAFScafcPqMndAGfz3AkEK"], "asm": "OP_DUP OP_HASH160 804a874199f64afcca47e8e828f92958ee27c3d8 OP_EQUALVERIFY OP_CHECKSIG", "type": "pubkeyhash"}, "value": 0.0154401, "n": 0}, {"scriptPubKey": {"reqSigs": 1, "hex": "76a91476eb77d3beb06d282fa90e1b21b1a52f4d9d4f1b88ac", "addresses": ["1BqnpFByZJDvtH7RXLsiJxaXdHNZJ9e3UE"], "asm": "OP_DUP OP_HASH160 76eb77d3beb06d282fa90e1b21b1a52f4d9d4f1b OP_EQUALVERIFY OP_CHECKSIG", "type": "pubkeyhash"}, "value": 0.15728644, "n": 1}], "hex": "0100000001a43f0ddf626226149deca7bd62f2d2c6df0c278f0b921864233b10b0fd708432010000006b4830450221009d56c8f41d250e454709bc501bdd394172bd1e22dd19a980083ec61ebf3304d802203255142458f11e490edd289c8caaf94fbdf5d5eb4a7ac039b3379d330926a7ad01210369dedf14db435ac569c85cfc06458c8e0327b382b0ce57f9e7b673cfe74cbea3ffffffff024a8f1700000000001976a914804a874199f64afcca47e8e828f92958ee27c3d888ac0400f000000000001976a91476eb77d3beb06d282fa90e1b21b1a52f4d9d4f1b88ac00000000", "vin": [{"sequence": 4294967295, "scriptSig": {"hex": "4830450221009d56c8f41d250e454709bc501bdd394172bd1e22dd19a980083ec61ebf3304d802203255142458f11e490edd289c8caaf94fbdf5d5eb4a7ac039b3379d330926a7ad01210369dedf14db435ac569c85cfc06458c8e0327b382b0ce57f9e7b673cfe74cbea3", "asm": "30450221009d56c8f41d250e454709bc501bdd394172bd1e22dd19a980083ec61ebf3304d802203255142458f11e490edd289c8caaf94fbdf5d5eb4a7ac039b3379d330926a7ad[ALL] 0369dedf14db435ac569c85cfc06458c8e0327b382b0ce57f9e7b673cfe74cbea3"}, "vout": 1, "txid": "328470fdb0103b236418920b8f270cdfc6d2f262bda7ec9d14266262df0d3fa4"}], "txid": "50e2bdca4c0c92941700d675344b236498459b62355e12275d4304fe7292a228", "blocktime": 1537869901, "version": 1, "confirmations": 11524, "time": 1537869901, "locktime": 0, "vsize": 226, "size": 226}