{"hash": "4c556b8449704bc03d1ab5400cb508d5fba4e78f677daa8cc9a876a47f1a1439", "blockhash": "000000000000000000022b45ed06c6f4ccd3cf7fb5ba4856ebd2e58215665228", "vout": [{"scriptPubKey": {"reqSigs": 1, "hex": "a914669a4c46ba21d5d2fea3d92728531ffd7779746787", "addresses": ["3B3XgvL27UdRfxkGfQRU2G4z6z2Libswzw"], "asm": "OP_HASH160 669a4c46ba21d5d2fea3d92728531ffd77797467 OP_EQUAL", "type": "scripthash"}, "value": 0.00015, "n": 0}, {"scriptPubKey": {"reqSigs": 1, "hex": "a914824dba5070dd28fecc883f1e179730a2db9ca1fc87", "addresses": ["3DZzt6wXTMJsxVkVdqoReWNcXzf8jtwbyW"], "asm": "OP_HASH160 824dba5070dd28fecc883f1e179730a2db9ca1fc OP_EQUAL", "type": "scripthash"}, "value": 0.00024382, "n": 1}], "hex": "010000000001012c498b14e869f384aa995c063f3c35d157143d7c518d204d42ade55d3f934f7c000000002322002078d342b6221018a1ed5d0ae29a93a406667e44c86ff1322ba2335fe67c2ba8dcffffffff02983a00000000000017a914669a4c46ba21d5d2fea3d92728531ffd77797467873e5f00000000000017a914824dba5070dd28fecc883f1e179730a2db9ca1fc870400473044022054e7cd07638349036dd244ead732ca437d87079915cfa1284a3c02c5b930c19502201da43b381edd3f252030a5ec8057af1701ceba13aa0ed78417f30751105658c701483045022100ec0255244d440b8bc08eaa463c6d02303f8250581f9f312da537beb42140c3da02203a17a78271569d90714427736805acbf1bd47542e27ac49842941a5bfa9736d30147522102458c12985a28bb1b003e2fdc780c34104b95498596652bb19595e686286ab9672102726ff74b232948bf3b0b4302934f660ce5f3375e3c0ec0ccd022a4260517f25a52ae00000000", "vin": [{"txinwitness": ["", "3044022054e7cd07638349036dd244ead732ca437d87079915cfa1284a3c02c5b930c19502201da43b381edd3f252030a5ec8057af1701ceba13aa0ed78417f30751105658c701", "3045022100ec0255244d440b8bc08eaa463c6d02303f8250581f9f312da537beb42140c3da02203a17a78271569d90714427736805acbf1bd47542e27ac49842941a5bfa9736d301", "522102458c12985a28bb1b003e2fdc780c34104b95498596652bb19595e686286ab9672102726ff74b232948bf3b0b4302934f660ce5f3375e3c0ec0ccd022a4260517f25a52ae"], "sequence": 4294967295, "scriptSig": {"hex": "22002078d342b6221018a1ed5d0ae29a93a406667e44c86ff1322ba2335fe67c2ba8dc", "asm": "002078d342b6221018a1ed5d0ae29a93a406667e44c86ff1322ba2335fe67c2ba8dc"}, "vout": 0, "txid": "7c4f933f5de5ad424d208d517c3d1457d1353c3f065c99aa84f369e8148b492c"}], "txid": "50e9c9a809c3ffba84e61a1c73b931722fec5a6e3b066ad37087cf96fd8a75ee", "blocktime": 1537869901, "version": 1, "confirmations": 11524, "time": 1537869901, "locktime": 0, "vsize": 206, "size": 371}