{"hash": "50f10482b30097b94e6d173d260a64ec60415703166c6d8acb4d0fe6fc4e9e9e", "blockhash": "0000000000000000000baef3f32e3676a92c3b2e5da21b426e4f302fc371ce76", "vout": [{"scriptPubKey": {"type": "nulldata", "hex": "6a4c5000007819000197fd862dc4bf3f27685f40b7019d6ddc0f1b8ff117702940d64fa54d8eb25f00d07763ba5ec78371f0f691f762325baa1c94061498864af1cf56bc9a9526289ac0f6612cd74e33776ee4", "asm": "OP_RETURN 00007819000197fd862dc4bf3f27685f40b7019d6ddc0f1b8ff117702940d64fa54d8eb25f00d07763ba5ec78371f0f691f762325baa1c94061498864af1cf56bc9a9526289ac0f6612cd74e33776ee4"}, "value": 0.0, "n": 0}, {"scriptPubKey": {"reqSigs": 1, "hex": "76a914a22e7e4a70e65a8505395210def379153c17d55388ac", "addresses": ["1FnYAVNuKb7WMMKU1KasqKiTHqhJZ1GKXQ"], "asm": "OP_DUP OP_HASH160 a22e7e4a70e65a8505395210def379153c17d553 OP_EQUALVERIFY OP_CHECKSIG", "type": "pubkeyhash"}, "value": 0.00117684, "n": 1}], "hex": "01000000011617d9de63921d12d1164779d7bf63f9e3a4ab62b1280e5f266dbbdb1a9a9c22000000006b483045022100eee18628f618f701b29640efd0be26b4dbde32e25ad471d5cabb26febd85371d02202243b75fb7ec9bc6bc73e1bdeaac653d651629b43490873c594b62aae0f5b5f60121032d9fcde0e75c39924e50c521a7306df50d4decd598621a43dc9d84d94bfb3838ffffffff020000000000000000536a4c5000007819000197fd862dc4bf3f27685f40b7019d6ddc0f1b8ff117702940d64fa54d8eb25f00d07763ba5ec78371f0f691f762325baa1c94061498864af1cf56bc9a9526289ac0f6612cd74e33776ee4b4cb0100000000001976a914a22e7e4a70e65a8505395210def379153c17d55388ac00000000", "vin": [{"sequence": 4294967295, "scriptSig": {"hex": "483045022100eee18628f618f701b29640efd0be26b4dbde32e25ad471d5cabb26febd85371d02202243b75fb7ec9bc6bc73e1bdeaac653d651629b43490873c594b62aae0f5b5f60121032d9fcde0e75c39924e50c521a7306df50d4decd598621a43dc9d84d94bfb3838", "asm": "3045022100eee18628f618f701b29640efd0be26b4dbde32e25ad471d5cabb26febd85371d02202243b75fb7ec9bc6bc73e1bdeaac653d651629b43490873c594b62aae0f5b5f6[ALL] 032d9fcde0e75c39924e50c521a7306df50d4decd598621a43dc9d84d94bfb3838"}, "vout": 0, "txid": "229c9a1adbbb6d265f0e28b162aba4e3f963bfd7794716d1121d9263ded91716"}], "txid": "50f10482b30097b94e6d173d260a64ec60415703166c6d8acb4d0fe6fc4e9e9e", "blocktime": 1537876114, "version": 1, "confirmations": 11461, "time": 1537876114, "locktime": 0, "vsize": 284, "size": 284}