{"hash": "50f1364beceb8920e9a6494f48b2a0027d8d087039dafd823d60d7e25b7c3a16", "blockhash": "00000000000000000018f53835495a110e01622372bf6ae95dc86f2b0ab887b0", "vout": [{"scriptPubKey": {"reqSigs": 1, "hex": "76a914064fbd2ed383443a7f7ba315f3e55ff67ffc8b6c88ac", "addresses": ["1aNaWnYFa2AKTAkvTP1saSPqGXbLRQ8vD"], "asm": "OP_DUP OP_HASH160 064fbd2ed383443a7f7ba315f3e55ff67ffc8b6c OP_EQUALVERIFY OP_CHECKSIG", "type": "pubkeyhash"}, "value": 5.626e-05, "n": 0}, {"scriptPubKey": {"reqSigs": 1, "hex": "a9149a31f04cae8f2ee20c2605aafff702b323efd31987", "addresses": ["3FkKotJHS3PC5oRxkdjTeTkZzNFsdDkeZd"], "asm": "OP_HASH160 9a31f04cae8f2ee20c2605aafff702b323efd319 OP_EQUAL", "type": "scripthash"}, "value": 0.00218625, "n": 1}], "hex": "0100000003d6749b3ebb4bae85f772a8da14c8eeb4678f2f37e875760acde980087db4e721000000006b483045022100dc32de4ce9c62948d00d5fbb50df41a5ce6eb44cdde3fe79506f596f753b6167022049e75113ca2b3854a9a7fe89fa4fc8b4f5cacabbe69c3c031cdf99dbc4d3d3ad012102d7592c427f18fe888bce228b065afd07511e3de7fd560822643dbd91f01e11ddffffffff52adfb5dd61db286ebe2323ecd60b371eb90ee1803aaca1d361d923cd3b79c5d000000006a47304402204796541efd9c5964eb17612939276dd0b50e618433232fe69ed2661c0f9c26f902202176ba89778de8e1b31393d4c2c47de9bd6ce523ccdde4e5a38a87ff6998d9cc012102d399c9dbd7e3cf8ce5ff304b1850928596b0b95603f7336bf67c4ee07fe95830ffffffff3c1d440e4d7874c085d7fa947bee520e17bcbea7381fd0aafb8bae8ccc881669000000006b483045022100ee2737764a8dc0d769945e2910b0f51d9b005a3313aeff10b760e4e3be004e3002204433d6a0eeb8611c99915fd01442d6d16ff233870d0b9c2bd700c76e09d9dffa012102eb61a395a9f0d8f5cb0537a77cb66503f7e0c3d6073fef658154798e5e5f3e97ffffffff02fa150000000000001976a914064fbd2ed383443a7f7ba315f3e55ff67ffc8b6c88ac015603000000000017a9149a31f04cae8f2ee20c2605aafff702b323efd3198700000000", "vin": [{"sequence": 4294967295, "scriptSig": {"hex": "483045022100dc32de4ce9c62948d00d5fbb50df41a5ce6eb44cdde3fe79506f596f753b6167022049e75113ca2b3854a9a7fe89fa4fc8b4f5cacabbe69c3c031cdf99dbc4d3d3ad012102d7592c427f18fe888bce228b065afd07511e3de7fd560822643dbd91f01e11dd", "asm": "3045022100dc32de4ce9c62948d00d5fbb50df41a5ce6eb44cdde3fe79506f596f753b6167022049e75113ca2b3854a9a7fe89fa4fc8b4f5cacabbe69c3c031cdf99dbc4d3d3ad[ALL] 02d7592c427f18fe888bce228b065afd07511e3de7fd560822643dbd91f01e11dd"}, "vout": 0, "txid": "21e7b47d0880e9cd0a7675e8372f8f67b4eec814daa872f785ae4bbb3e9b74d6"}, {"sequence": 4294967295, "scriptSig": {"hex": "47304402204796541efd9c5964eb17612939276dd0b50e618433232fe69ed2661c0f9c26f902202176ba89778de8e1b31393d4c2c47de9bd6ce523ccdde4e5a38a87ff6998d9cc012102d399c9dbd7e3cf8ce5ff304b1850928596b0b95603f7336bf67c4ee07fe95830", "asm": "304402204796541efd9c5964eb17612939276dd0b50e618433232fe69ed2661c0f9c26f902202176ba89778de8e1b31393d4c2c47de9bd6ce523ccdde4e5a38a87ff6998d9cc[ALL] 02d399c9dbd7e3cf8ce5ff304b1850928596b0b95603f7336bf67c4ee07fe95830"}, "vout": 0, "txid": "5d9cb7d33c921d361dcaaa0318ee90eb71b360cd3e32e2eb86b21dd65dfbad52"}, {"sequence": 4294967295, "scriptSig": {"hex": "483045022100ee2737764a8dc0d769945e2910b0f51d9b005a3313aeff10b760e4e3be004e3002204433d6a0eeb8611c99915fd01442d6d16ff233870d0b9c2bd700c76e09d9dffa012102eb61a395a9f0d8f5cb0537a77cb66503f7e0c3d6073fef658154798e5e5f3e97", "asm": "3045022100ee2737764a8dc0d769945e2910b0f51d9b005a3313aeff10b760e4e3be004e3002204433d6a0eeb8611c99915fd01442d6d16ff233870d0b9c2bd700c76e09d9dffa[ALL] 02eb61a395a9f0d8f5cb0537a77cb66503f7e0c3d6073fef658154798e5e5f3e97"}, "vout": 0, "txid": "691688cc8cae8bfbaad01f38a7bebc170e52ee7b94fad785c074784d0e441d3c"}], "txid": "50f1364beceb8920e9a6494f48b2a0027d8d087039dafd823d60d7e25b7c3a16", "blocktime": 1537870928, "version": 1, "confirmations": 11514, "time": 1537870928, "locktime": 0, "vsize": 519, "size": 519}