{"hash": "50f38e3e4e92b32c461567c8f567ce789a45c58b1eb7f3c38352c6b9f21eb5fd", "blockhash": "0000000000000000001e0dab787dd257d1dbfcb92a98c2207d5e1078be1f4165", "vout": [{"scriptPubKey": {"reqSigs": 1, "hex": "76a9149cf6f0424cfbeddebf7bad1bd519b499514ee1af88ac", "addresses": ["1FJxEWpXj4MF1qxCXDB31FzqFGk8968dmQ"], "asm": "OP_DUP OP_HASH160 9cf6f0424cfbeddebf7bad1bd519b499514ee1af OP_EQUALVERIFY OP_CHECKSIG", "type": "pubkeyhash"}, "value": 0.00015854, "n": 0}, {"scriptPubKey": {"reqSigs": 1, "hex": "a914732fc6edcbf7f91ab86de0bf3eb54da910ff89a087", "addresses": ["3CC4sDJmHsErFDP1BaB1VuwSGAhLP13oo1"], "asm": "OP_HASH160 732fc6edcbf7f91ab86de0bf3eb54da910ff89a0 OP_EQUAL", "type": "scripthash"}, "value": 0.7811562, "n": 1}], "hex": "01000000021e8746a9e77ff36974fa7cb087193cb738fc54087382d4a80db1a688b7daea82030000006a4730440220309093e79d5d3e04c18600de6137e2acfbb9aa74bc282b8f1be2976a947de396022040f7b73019e8c1bb66ab24bd387134d88e65f59aedf13938380b50d3cbc4fdca0121033c522ed2906337def101ced1f21082e44b78139cb4524c0aff2823ac8a0aa656ffffffffd600bbb7fda888d505bd65c6f7c675221db6814f2175941bc0d11763029bb7e8000000006b483045022100ffb78cdf28599b61cbe9063b6ba078ce0040231af85521898a62bf33271424ef02200210e11db1b7acc4e5d06defbf85c35bfa1dfca96dccec89d2375ee8d0705d000121030043f3fb0a9349eacf02ef80229b9c2e91290b36198ad40de2330798027ad793ffffffff02ee3d0000000000001976a9149cf6f0424cfbeddebf7bad1bd519b499514ee1af88ac24f3a7040000000017a914732fc6edcbf7f91ab86de0bf3eb54da910ff89a08700000000", "vin": [{"sequence": 4294967295, "scriptSig": {"hex": "4730440220309093e79d5d3e04c18600de6137e2acfbb9aa74bc282b8f1be2976a947de396022040f7b73019e8c1bb66ab24bd387134d88e65f59aedf13938380b50d3cbc4fdca0121033c522ed2906337def101ced1f21082e44b78139cb4524c0aff2823ac8a0aa656", "asm": "30440220309093e79d5d3e04c18600de6137e2acfbb9aa74bc282b8f1be2976a947de396022040f7b73019e8c1bb66ab24bd387134d88e65f59aedf13938380b50d3cbc4fdca[ALL] 033c522ed2906337def101ced1f21082e44b78139cb4524c0aff2823ac8a0aa656"}, "vout": 3, "txid": "82eadab788a6b10da8d482730854fc38b73c1987b07cfa7469f37fe7a946871e"}, {"sequence": 4294967295, "scriptSig": {"hex": "483045022100ffb78cdf28599b61cbe9063b6ba078ce0040231af85521898a62bf33271424ef02200210e11db1b7acc4e5d06defbf85c35bfa1dfca96dccec89d2375ee8d0705d000121030043f3fb0a9349eacf02ef80229b9c2e91290b36198ad40de2330798027ad793", "asm": "3045022100ffb78cdf28599b61cbe9063b6ba078ce0040231af85521898a62bf33271424ef02200210e11db1b7acc4e5d06defbf85c35bfa1dfca96dccec89d2375ee8d0705d00[ALL] 030043f3fb0a9349eacf02ef80229b9c2e91290b36198ad40de2330798027ad793"}, "vout": 0, "txid": "e8b79b026317d1c01b9475214f81b61d2275c6f7c665bd05d588a8fdb7bb00d6"}], "txid": "50f38e3e4e92b32c461567c8f567ce789a45c58b1eb7f3c38352c6b9f21eb5fd", "blocktime": 1537872475, "version": 1, "confirmations": 11487, "time": 1537872475, "locktime": 0, "vsize": 371, "size": 371}