{"hash": "50f5ba2bc7604551dc7de98eb8ee367f937718508ea3b2b50edf0c3ecfde8a8f", "blockhash": "00000000000000000024a2167bbff67b0be802c0b01cdd79e6331c2be6459f87", "vout": [{"scriptPubKey": {"type": "nulldata", "hex": "6a4c500000777f0001697b62b91ca94ca97e027312bcbefa6b8351586b4e86aeaeacb577c031fc23f646fef7818aeb8a3635f57734f1825baa0a860613dabc4d245b7a1d100759d4ba30d2c37bb011d97e02cf", "asm": "OP_RETURN 0000777f0001697b62b91ca94ca97e027312bcbefa6b8351586b4e86aeaeacb577c031fc23f646fef7818aeb8a3635f57734f1825baa0a860613dabc4d245b7a1d100759d4ba30d2c37bb011d97e02cf"}, "value": 0.0, "n": 0}, {"scriptPubKey": {"reqSigs": 1, "hex": "76a914c81d389ae8fbff9c01a41b51521ffbb701d1cfd388ac", "addresses": ["1KF79giCUhdVoxaTyUpqZAvEgR7eenp2bS"], "asm": "OP_DUP OP_HASH160 c81d389ae8fbff9c01a41b51521ffbb701d1cfd3 OP_EQUALVERIFY OP_CHECKSIG", "type": "pubkeyhash"}, "value": 0.00647916, "n": 1}], "hex": "0100000001e76d8ef9d4f3ce49845b9c866b83bd2088805d12680a7a306b516a49be4f0c45000000006a4730440220783b921a281d4d6e00ffb87b6563a43d88bd45376040b9092e094bb38294c01502206f2830b8f5f2a931eec9a7a2a887cea184a10e65ccad7d8c24a28c5858683ee8012103327098be2232b9788321d4a8c6202dc38044c73b474b42d6bd15b66c37ea090affffffff020000000000000000536a4c500000777f0001697b62b91ca94ca97e027312bcbefa6b8351586b4e86aeaeacb577c031fc23f646fef7818aeb8a3635f57734f1825baa0a860613dabc4d245b7a1d100759d4ba30d2c37bb011d97e02cfece20900000000001976a914c81d389ae8fbff9c01a41b51521ffbb701d1cfd388ac00000000", "vin": [{"sequence": 4294967295, "scriptSig": {"hex": "4730440220783b921a281d4d6e00ffb87b6563a43d88bd45376040b9092e094bb38294c01502206f2830b8f5f2a931eec9a7a2a887cea184a10e65ccad7d8c24a28c5858683ee8012103327098be2232b9788321d4a8c6202dc38044c73b474b42d6bd15b66c37ea090a", "asm": "30440220783b921a281d4d6e00ffb87b6563a43d88bd45376040b9092e094bb38294c01502206f2830b8f5f2a931eec9a7a2a887cea184a10e65ccad7d8c24a28c5858683ee8[ALL] 03327098be2232b9788321d4a8c6202dc38044c73b474b42d6bd15b66c37ea090a"}, "vout": 0, "txid": "450c4fbe496a516b307a0a68125d808820bd836b869c5b8449cef3d4f98e6de7"}], "txid": "50f5ba2bc7604551dc7de98eb8ee367f937718508ea3b2b50edf0c3ecfde8a8f", "blocktime": 1537870564, "version": 1, "confirmations": 11515, "time": 1537870564, "locktime": 0, "vsize": 283, "size": 283}