{"hash": "2b2fe5555af0709f99e8b95a520c8ba49bf22d99a2f06496ab2a7cb92e7ebb1a", "blockhash": "0000000000000000001cda96e906b7601b7a6fb1a3b62bca570a9e5d8f4b3de1", "vout": [{"scriptPubKey": {"reqSigs": 1, "hex": "76a914ec418ba86d946d0b553a6de18b5b82933eb34ec588ac", "addresses": ["1NYCzTSVE1geJSgP8wKXWa1b9jffxuF8yv"], "asm": "OP_DUP OP_HASH160 ec418ba86d946d0b553a6de18b5b82933eb34ec5 OP_EQUALVERIFY OP_CHECKSIG", "type": "pubkeyhash"}, "value": 0.00020709, "n": 0}, {"scriptPubKey": {"reqSigs": 1, "hex": "76a91460810a5426409c1815aeb91b3fb434ee63f5df5388ac", "addresses": ["19oGTJBM3Rkw4aDGCCdx3Jvq41HRVGEA11"], "asm": "OP_DUP OP_HASH160 60810a5426409c1815aeb91b3fb434ee63f5df53 OP_EQUALVERIFY OP_CHECKSIG", "type": "pubkeyhash"}, "value": 0.02344, "n": 1}, {"scriptPubKey": {"reqSigs": 1, "hex": "a9141988a27e3c2df4ddee7fad5a2303d086179b2a3087", "addresses": ["3422VtS7UtCvXYxoXMVp6eZupR252z85oC"], "asm": "OP_HASH160 1988a27e3c2df4ddee7fad5a2303d086179b2a30 OP_EQUAL", "type": "scripthash"}, "value": 0.10190064, "n": 2}], "hex": "0100000000010130a81ba057ae67389094bdf65a60fcad32e20ee19ecbb581954d836af23618e4010000002322002065d416c48a8072e0ac51c2d111eb194f009caef0332446c1bf2097316cf07fa9ffffffff03e5500000000000001976a914ec418ba86d946d0b553a6de18b5b82933eb34ec588ac40c42300000000001976a91460810a5426409c1815aeb91b3fb434ee63f5df5388acf07c9b000000000017a9141988a27e3c2df4ddee7fad5a2303d086179b2a30870400483045022100865c0b5f394c50ab78f49573d9231171132a519b267d60a4f7ea549ab1bc8279022006e0b77d806c664e1da30ebdbaeb8ac391ea1c6ce520d5dd16a18af52c47263201483045022100e620671b1b89227e35de438915adf8c9e81d8c0a10de83bb871ce738bdd442c5022034b389420d35910db740314499511e55a65b424bc8ec9f18ca17efbebede8a1e0169522102f44abcf9e23c9a460da309ccca56c619c04eed3bde2c2cff5e7d78fbcd980b9c2103c9443cf3047bb6c2c82f1b0c44c36109cdc3d0d601d16d1189a1602bf8d1a0a02103bfe867059274412412e088af5572b92168c2ef495cfe6c9b7a753a009eb37c4853ae00000000", "vin": [{"txinwitness": ["", "3045022100865c0b5f394c50ab78f49573d9231171132a519b267d60a4f7ea549ab1bc8279022006e0b77d806c664e1da30ebdbaeb8ac391ea1c6ce520d5dd16a18af52c47263201", "3045022100e620671b1b89227e35de438915adf8c9e81d8c0a10de83bb871ce738bdd442c5022034b389420d35910db740314499511e55a65b424bc8ec9f18ca17efbebede8a1e01", "522102f44abcf9e23c9a460da309ccca56c619c04eed3bde2c2cff5e7d78fbcd980b9c2103c9443cf3047bb6c2c82f1b0c44c36109cdc3d0d601d16d1189a1602bf8d1a0a02103bfe867059274412412e088af5572b92168c2ef495cfe6c9b7a753a009eb37c4853ae"], "sequence": 4294967295, "scriptSig": {"hex": "22002065d416c48a8072e0ac51c2d111eb194f009caef0332446c1bf2097316cf07fa9", "asm": "002065d416c48a8072e0ac51c2d111eb194f009caef0332446c1bf2097316cf07fa9"}, "vout": 1, "txid": "e41836f26a834d9581b5cb9ee10ee232adfc605af6bd94903867ae57a01ba830"}], "txid": "50f503f6486f4dca6c336a9c0629c952bbaa88d5e0443c2cff59a7f3549b9f0c", "blocktime": 1537873282, "version": 1, "confirmations": 11483, "time": 1537873282, "locktime": 0, "vsize": 250, "size": 442}