{"hash": "2c76529812ba8e2ea7b10b1d26cbf28ca4b898d61d26011a3d70006a2a625912", "blockhash": "0000000000000000000baef3f32e3676a92c3b2e5da21b426e4f302fc371ce76", "vout": [{"scriptPubKey": {"reqSigs": 1, "hex": "a9149fd5cc0c60673c35dbe87fd30b58351fddcb6a8e87", "addresses": ["3GG9UvcfKqpTzWGxgvZXMmhkmSnHFdGJpP"], "asm": "OP_HASH160 9fd5cc0c60673c35dbe87fd30b58351fddcb6a8e OP_EQUAL", "type": "scripthash"}, "value": 0.00691497, "n": 0}, {"scriptPubKey": {"reqSigs": 1, "hex": "a914cfaabfe8c271f99a4364b5197ba50c6cddb7adb987", "addresses": ["3Ld4M9RPwEG3VeQbHcC1PsKUndQL7VYLZP"], "asm": "OP_HASH160 cfaabfe8c271f99a4364b5197ba50c6cddb7adb9 OP_EQUAL", "type": "scripthash"}, "value": 1.47902592, "n": 1}], "hex": "01000000000101c44a8eb798476f1fa46ced84d9e75a70c66b48b34988f2a23ad5ebe381796e7d01000000232200202f7b4024602241b47d3306a6733d9889e4b6761d9f1cb82a18aa8b9ac4506e51ffffffff02298d0a000000000017a9149fd5cc0c60673c35dbe87fd30b58351fddcb6a8e8780d0d0080000000017a914cfaabfe8c271f99a4364b5197ba50c6cddb7adb987040047304402204cb004fd263310399f4a64f0ecfd9b627f8a8a69181e43edda453a4a26e1fc82022069038246cb47eb6eb4be320f077ca2f913ff5634b0650cdf827a55bac3df75af01483045022100cd9a1f28b501cfff921307c94d26fed208147a486dcf22370f0094fbecc3276302200f742af2edb93a0a9dc0c9d76cfc7e6bc5a25175469705bc211b05b6347da15c0147522102973cd851fecff3a20f08377b072729f303801eee1b7678668338adcaec770ec221033e4af03ed09dbd8a417ba042650d5bd1db7f14f271a8f660974e3abf1fdfa4da52ae00000000", "vin": [{"txinwitness": ["", "304402204cb004fd263310399f4a64f0ecfd9b627f8a8a69181e43edda453a4a26e1fc82022069038246cb47eb6eb4be320f077ca2f913ff5634b0650cdf827a55bac3df75af01", "3045022100cd9a1f28b501cfff921307c94d26fed208147a486dcf22370f0094fbecc3276302200f742af2edb93a0a9dc0c9d76cfc7e6bc5a25175469705bc211b05b6347da15c01", "522102973cd851fecff3a20f08377b072729f303801eee1b7678668338adcaec770ec221033e4af03ed09dbd8a417ba042650d5bd1db7f14f271a8f660974e3abf1fdfa4da52ae"], "sequence": 4294967295, "scriptSig": {"hex": "2200202f7b4024602241b47d3306a6733d9889e4b6761d9f1cb82a18aa8b9ac4506e51", "asm": "00202f7b4024602241b47d3306a6733d9889e4b6761d9f1cb82a18aa8b9ac4506e51"}, "vout": 1, "txid": "7d6e7981e3ebd53aa2f28849b3486bc6705ae7d984ed6ca41f6f4798b78e4ac4"}], "txid": "50fb8d09c2bef26015b38ce4f6d6b36de681c818c9df913ba3d5eb90caa75995", "blocktime": 1537876114, "version": 1, "confirmations": 11462, "time": 1537876114, "locktime": 0, "vsize": 206, "size": 371}