{"hash": "b8fb1f11f73e2330aabbbcbd1d91e918faaacd87464b43293e0b79ef14e50dd3", "blockhash": "0000000000000000001f0ddff1eddb255c1121bcd4da4f1bc9a0da00cae72433", "vout": [{"scriptPubKey": {"reqSigs": 1, "hex": "a914dbd50fdd6b157602d168f6cdd8631508810382fd87", "addresses": ["3MjP9MqEGcTDgschRg3WCEngvuh9iJnRzd"], "asm": "OP_HASH160 dbd50fdd6b157602d168f6cdd8631508810382fd OP_EQUAL", "type": "scripthash"}, "value": 0.00627353, "n": 0}, {"scriptPubKey": {"reqSigs": 1, "hex": "a9145543425e209899207975c4cfddb662d517b92fe887", "addresses": ["39Tqw6ygFityCAamFaNhwHotGiBTmsyrbx"], "asm": "OP_HASH160 5543425e209899207975c4cfddb662d517b92fe8 OP_EQUAL", "type": "scripthash"}, "value": 0.01, "n": 1}, {"scriptPubKey": {"reqSigs": 1, "hex": "a9141988a27e3c2df4ddee7fad5a2303d086179b2a3087", "addresses": ["3422VtS7UtCvXYxoXMVp6eZupR252z85oC"], "asm": "OP_HASH160 1988a27e3c2df4ddee7fad5a2303d086179b2a30 OP_EQUAL", "type": "scripthash"}, "value": 3.19061713, "n": 2}], "hex": "01000000000101098ea8b1df261addc6774c7394f08a6caa4836f04b8f09fce504d81776324719030000002322002065d416c48a8072e0ac51c2d111eb194f009caef0332446c1bf2097316cf07fa9ffffffff03999209000000000017a914dbd50fdd6b157602d168f6cdd8631508810382fd8740420f000000000017a9145543425e209899207975c4cfddb662d517b92fe887d17e04130000000017a9141988a27e3c2df4ddee7fad5a2303d086179b2a3087040047304402200a9b134d78d5d03541e31c2dc5218a8f6fdc2bef460aec9f1ea3ef84d55b233d02206e420fb7cfc9b4675d93df2f8557ece8fa0ba7791bcd3951bdb09bb72f3e07eb01483045022100a84ee4e77681c7a3da2e710dcb134962b476d48fd875f63cfcec1899a97935ae02201cadac84c9d8d491cba55f354e18528bc92e9f0b8ee970c260c4f21a64e7a04b0169522102f44abcf9e23c9a460da309ccca56c619c04eed3bde2c2cff5e7d78fbcd980b9c2103c9443cf3047bb6c2c82f1b0c44c36109cdc3d0d601d16d1189a1602bf8d1a0a02103bfe867059274412412e088af5572b92168c2ef495cfe6c9b7a753a009eb37c4853ae00000000", "vin": [{"txinwitness": ["", "304402200a9b134d78d5d03541e31c2dc5218a8f6fdc2bef460aec9f1ea3ef84d55b233d02206e420fb7cfc9b4675d93df2f8557ece8fa0ba7791bcd3951bdb09bb72f3e07eb01", "3045022100a84ee4e77681c7a3da2e710dcb134962b476d48fd875f63cfcec1899a97935ae02201cadac84c9d8d491cba55f354e18528bc92e9f0b8ee970c260c4f21a64e7a04b01", "522102f44abcf9e23c9a460da309ccca56c619c04eed3bde2c2cff5e7d78fbcd980b9c2103c9443cf3047bb6c2c82f1b0c44c36109cdc3d0d601d16d1189a1602bf8d1a0a02103bfe867059274412412e088af5572b92168c2ef495cfe6c9b7a753a009eb37c4853ae"], "sequence": 4294967295, "scriptSig": {"hex": "22002065d416c48a8072e0ac51c2d111eb194f009caef0332446c1bf2097316cf07fa9", "asm": "002065d416c48a8072e0ac51c2d111eb194f009caef0332446c1bf2097316cf07fa9"}, "vout": 3, "txid": "1947327617d804e5fc098f4bf03648aa6c8af094734c77c6dd1a26dfb1a88e09"}], "txid": "50ff96d6687a7b54a0dc9d0cebf081c0ed2000a3ec10a55a78dff4efc4a74cb0", "blocktime": 1537872018, "version": 1, "confirmations": 11489, "time": 1537872018, "locktime": 0, "vsize": 246, "size": 437}