{"hash": "545e5e1d435974325758fcc2d78cb05345b36a2488715880c0d0e16e54749c93", "blockhash": "0000000000000000000e13cef7c366c0283d82e591d1acd082e914b08063cdf1", "vout": [{"scriptPubKey": {"reqSigs": 1, "hex": "0014ee1b3d26e8c638ab074f8b4df82964af279ff2bb", "addresses": ["bc1qacdn6fhgccu2kp603dxls2ty4unelu4mjtre38"], "asm": "0 ee1b3d26e8c638ab074f8b4df82964af279ff2bb", "type": "witness_v0_keyhash"}, "value": 0.00028616, "n": 0}, {"scriptPubKey": {"reqSigs": 1, "hex": "76a914727591554269aed9fe803bdd50412659177b357c88ac", "addresses": ["1BSCscjobktQzmrsBs2JE6SrRzgajqbpat"], "asm": "OP_DUP OP_HASH160 727591554269aed9fe803bdd50412659177b357c OP_EQUALVERIFY OP_CHECKSIG", "type": "pubkeyhash"}, "value": 0.01056274, "n": 1}], "hex": "01000000000101e0a5f7c9117be20ae55702c5707f3c47392f7e730bbbcfa04241cc78a2688a6e0000000000ffffffff02c86f000000000000160014ee1b3d26e8c638ab074f8b4df82964af279ff2bb121e1000000000001976a914727591554269aed9fe803bdd50412659177b357c88ac0247304402201700ff336ae623f18915007edda7f83e79587a3df5fc28925eb16ac6b32d705402207ff355fca6d9c8479dc223870d4e21415538f1e4d7a2ed1b96dd4fe483afb88b012103ea24afd407f502bc96c8bd5681392dedb6aedbbc096324d8e3ab1bcfaf7c49a600000000", "vin": [{"txinwitness": ["304402201700ff336ae623f18915007edda7f83e79587a3df5fc28925eb16ac6b32d705402207ff355fca6d9c8479dc223870d4e21415538f1e4d7a2ed1b96dd4fe483afb88b01", "03ea24afd407f502bc96c8bd5681392dedb6aedbbc096324d8e3ab1bcfaf7c49a6"], "sequence": 4294967295, "scriptSig": {"hex": "", "asm": ""}, "vout": 0, "txid": "6e8a68a278cc4142a0cfbb0b737e2f39473c7f70c50257e50ae27b11c9f7a5e0"}], "txid": "5102f887d101d9cde55a863529efbd1debac584005b84b8798280290dd122099", "blocktime": 1537871767, "version": 1, "confirmations": 11495, "time": 1537871767, "locktime": 0, "vsize": 144, "size": 225}