{"hash": "510832bd85bb4259d7f8fbf724229200b7061e15aa8b39e9d72b8aff521fdf24", "blockhash": "0000000000000000000baef3f32e3676a92c3b2e5da21b426e4f302fc371ce76", "vout": [{"scriptPubKey": {"reqSigs": 1, "hex": "76a914af50b5f1c8e3667040dc9980e70f5d0a604c4ec088ac", "addresses": ["1GyywT58Qjnimj9wYzeWvxJ4HkyLZihekK"], "asm": "OP_DUP OP_HASH160 af50b5f1c8e3667040dc9980e70f5d0a604c4ec0 OP_EQUALVERIFY OP_CHECKSIG", "type": "pubkeyhash"}, "value": 0.00735701, "n": 0}], "hex": "0100000001c995815f6145b8bda8e6073652ac8d579dae1ee77c30b55b750111cc1b76002b000000006a47304402205b484478bb3220595b58e3b92e821382b305dfc14822928b32e3dc6783223519022066b972fafceccd2ae12e2d3ddac04132ebf7848edeb115994e865cd875af3e81012102e5507bd5a55592722f94a3aa1ec2c50be7c784ea737f012a9849a49d712efee0feffffff01d5390b00000000001976a914af50b5f1c8e3667040dc9980e70f5d0a604c4ec088ac17490800", "vin": [{"sequence": 4294967294, "scriptSig": {"hex": "47304402205b484478bb3220595b58e3b92e821382b305dfc14822928b32e3dc6783223519022066b972fafceccd2ae12e2d3ddac04132ebf7848edeb115994e865cd875af3e81012102e5507bd5a55592722f94a3aa1ec2c50be7c784ea737f012a9849a49d712efee0", "asm": "304402205b484478bb3220595b58e3b92e821382b305dfc14822928b32e3dc6783223519022066b972fafceccd2ae12e2d3ddac04132ebf7848edeb115994e865cd875af3e81[ALL] 02e5507bd5a55592722f94a3aa1ec2c50be7c784ea737f012a9849a49d712efee0"}, "vout": 0, "txid": "2b00761bcc1101755bb5307ce71eae9d578dac523607e6a8bdb845615f8195c9"}], "txid": "510832bd85bb4259d7f8fbf724229200b7061e15aa8b39e9d72b8aff521fdf24", "blocktime": 1537876114, "version": 1, "confirmations": 11460, "time": 1537876114, "locktime": 542999, "vsize": 191, "size": 191}