{"hash": "fb2c2ee9fc7524fbded445d79b56f3305a921bcb32c4bdbdd9209599732db200", "blockhash": "0000000000000000001cda96e906b7601b7a6fb1a3b62bca570a9e5d8f4b3de1", "vout": [{"scriptPubKey": {"reqSigs": 1, "hex": "a914212dcfa1771813aa977175f2a53b3ce1fb16b59387", "addresses": ["34iT6t86QXirZNXtJzxD4uVs2N49L82vfy"], "asm": "OP_HASH160 212dcfa1771813aa977175f2a53b3ce1fb16b593 OP_EQUAL", "type": "scripthash"}, "value": 1.561e-05, "n": 0}, {"scriptPubKey": {"reqSigs": 1, "hex": "a91409b241cb007eddfa0b342e11caf05317d5d7a9bc87", "addresses": ["32aHYnRaaXkZZMFwrZjQj2Qb9DwosgVccb"], "asm": "OP_HASH160 09b241cb007eddfa0b342e11caf05317d5d7a9bc OP_EQUAL", "type": "scripthash"}, "value": 0.00154045, "n": 1}], "hex": "0100000000010114c9bc8cb6fed17b8640fb4b2c69982c383c70f9a88a8f9b40954d8ac141dfce0100000023220020c437db2a680876a1953c90d1cce1d73bd7bc76b84c29c1c65d05c9bc6044a549ffffffff02190600000000000017a914212dcfa1771813aa977175f2a53b3ce1fb16b59387bd5902000000000017a91409b241cb007eddfa0b342e11caf05317d5d7a9bc8704004730440220702f8eb6c66583fb823aac709640926ff94dba4943e79d46eac892ea94d24ada022014f9a8b0fcf5b701becc5ae8a166cb97413816cac96dd4e3978f5211ec6820a0014730440220765f5b099d211c374096330051dd1bc1c444bf37f14d8749de9079e86f2d1d2d022044ca2cadcbb749c32b1f2baa9fac363b9471436d7dbd36bfa4532bdb5d39ec4c0147522102bf695b29d013465d62ee0d45f38edc8f74cba74ce4e4ca8078a7b6c21de6836221030580d373ab00643a581abb399b43fa66d7b6fc29624eb75b2d5ec8d99faa163f52ae00000000", "vin": [{"txinwitness": ["", "30440220702f8eb6c66583fb823aac709640926ff94dba4943e79d46eac892ea94d24ada022014f9a8b0fcf5b701becc5ae8a166cb97413816cac96dd4e3978f5211ec6820a001", "30440220765f5b099d211c374096330051dd1bc1c444bf37f14d8749de9079e86f2d1d2d022044ca2cadcbb749c32b1f2baa9fac363b9471436d7dbd36bfa4532bdb5d39ec4c01", "522102bf695b29d013465d62ee0d45f38edc8f74cba74ce4e4ca8078a7b6c21de6836221030580d373ab00643a581abb399b43fa66d7b6fc29624eb75b2d5ec8d99faa163f52ae"], "sequence": 4294967295, "scriptSig": {"hex": "220020c437db2a680876a1953c90d1cce1d73bd7bc76b84c29c1c65d05c9bc6044a549", "asm": "0020c437db2a680876a1953c90d1cce1d73bd7bc76b84c29c1c65d05c9bc6044a549"}, "vout": 1, "txid": "cedf41c18a4d95409b8f8aa8f9703c382c98692c4bfb40867bd1feb68cbcc914"}], "txid": "510b5760f9b63b9928f92abb686f8574bfc2ee271f0eec21a603cdf8dc42db4d", "blocktime": 1537873282, "version": 1, "confirmations": 11485, "time": 1537873282, "locktime": 0, "vsize": 205, "size": 370}