{"hash": "510e4d885d29a4cb61b711dc014724775b0b6d04c20bb2a7da09c7b88efa8de4", "blockhash": "0000000000000000000e13cef7c366c0283d82e591d1acd082e914b08063cdf1", "vout": [{"scriptPubKey": {"reqSigs": 1, "hex": "76a9140712bb83e58763228fc64beb3f8c00d1207ccf1b88ac", "addresses": ["1eQAu7LCWZYgJwtQwSmWpJ1Zv2pVJqrfM"], "asm": "OP_DUP OP_HASH160 0712bb83e58763228fc64beb3f8c00d1207ccf1b OP_EQUALVERIFY OP_CHECKSIG", "type": "pubkeyhash"}, "value": 0.69911863, "n": 0}], "hex": "010000000b216b3dc2c9ce82bc0f793bd82d43eef9e2d1c3dd9ab403ef942310ce0434260d010000006a47304402200249c64d7a477fa3fe5302a2da404f8c2e88cc888b2e5e5280ee65f74728f82a0220468640943b4bfb1792028130cdf447df914d7fe7148f3498ad09bca22a48243f0121026ad145006ab3bb1dbac9eafcadbb9a2e942e7e73df33a00cd736663b8135c04bffffffffc2964ab6fd02325cd580af7975745bff7285fba2b7ea13af298d3188ca89590e000000006b4830450221008afff801284fc9619e6896bfdd3581320f142fa535d701b4eb3358efe703041002206aabed416a5c1c812ac8ba8e681b754a342ca377e924815121f5b1cf28aaf4ee012103ddd56b0ba9e4b6527552b6474d354254aca9eb69833422ca583f84cc86bcc7f1ffffffff062e8d498aefd4535e9e7d343c5c6df0613244eeab5ba7eea25c8ef078c79916000000006a47304402205ea675a36b8ce352b8c5b9ad9b152535f18f539d20edf92dc32109f68d0576d602203a2bbae0bf18570421134de965e5beb077602a31715ad88d724bda108148469c012103b1718f4d31b61be334d387e3232fc5c450f0f153eca8bf1769fd1b7d168b6cb0ffffffffbb9fba73c2dee419b155524b95455348793c5b7e81068d722fa89cf723ef3836020000006a4730440220318d6ecc938dbdfe6436e9647cd61f72162aac12d3d4ef2fac24271f12e0b90002200e8588d39d682cb112fd8818a5d41f5ca1332e2561ad7ffdc9a744ffe16c7439012102bc7b89862865dbf1a0960af93c25e5dd2a87d9af1008fee0ac45d7bf5f4eefccffffffff931fb1b85506dfce199b5a5f3331d7eead9a2f5b73aba15654ac686d89019039020000006a47304402200814020d1372ce998505ebca461c35132b602a523626a9848deb3c837591eb90022030b72fdacaccd501cc2fa80d17840f9ab790681edb840df9c36a2dd4ceb07c8f012102be870c50eeefcddb5eb657c2ad1a279ac839a457aa2e61ff84d45dc46135b48dffffffff207a715c54afad905b698026a8ba84717d56e5463aa4ecf23fab7a0f3c945e5a000000006b483045022100b77dbb32a4988dc72ba5e512dcc891f4354b72292e7f8fe0cb116e228b263c520220198362d2760bedc2a35d1b9bd6a4eb54df131da7f6757b60f629c9d5af934477012102f50ae502401334934559ec0b8fa4ed8e9206ddb9b98541e3c22919d2e7ad34f5ffffffff3bb6e7ef06e6a1f3a21762714e43b168417aa37c69e14dda228b4fb087f1925b010000006b483045022100dd93ac65f3554ed8719b301953269b66632c0a07b66326cdfc3fb0c54dea91c402205e8f2878c6d707b0c125e8511a2419e082af9da600c5bbf50e4e36aa028264ae01210346890792de1aacc38af66712c44156faf11cbca13db6d170de2789c795961f59ffffffffe6b4a05a5c077aea4d9ad3d8561617226c77b7859ecbfd8f1da538940613c25b000000006b483045022100cbe06b85aa90f390a387e95c8cd9b58efbc1cf6ce216bd91be93331dee5d6e5f02204af10868f37555e225d2960fd9b7ad30136881ffe157f1bc66127580043860cf0121020a968c6a756d9aa7be4ae4437556af22236ea6597006ec827d04fd7a893f4b48ffffffff0d8aa56ff177c67a13b2b0cfa1becf7d11e66662f7196011409b5a44f0039264010000006a473044022051b76585fa57e2db5e6d643ba8fa3cf68a42be0d24f7060bb969e5b018292761022076335945429520d06d5f7caadd55f1684f547563f53b62d6c381cf0602800001012103d474ed2bbb309727a0a6711287a7e804ebb3e4100f780bbef7b13a0ad0b9359dffffffff3ce2a133b7354f27f2a55ad8ab6408582e8682316335ce4de4f7ce3bcc59077d000000006b483045022100c6eb008a8e7c3b31e42aa8c27f87497e481350ff648d4b03fb512fddfbf480b6022053e5e7fa7388559e844cdb7566c33e11281399e4e19fefd1acb87e93503ce82f012103c635015305ea2c06501ef7beeacea1f846eff1d2fb5e298902790c6e2059807effffffffee0dfdaa671ac2fec58398a5bda07f2af28bea36ef47ac6ebbdbba7de2dc3e83010000006a473044022020ec3b3fd7481b42299b3549bbac6bd02bdd86ffa02752a31e19c7afd2f3bb0c02201d07638b6aa72c06fa5b4e9b15333d18acb906a185d4a3e7e1133c4a06b20eaf01210250cd57d3336c59bd4b77988f6b7ec445f00dba3307f245cbd5100ac05b86ff03ffffffff0137c52a04000000001976a9140712bb83e58763228fc64beb3f8c00d1207ccf1b88ac00000000", "vin": [{"sequence": 4294967295, "scriptSig": {"hex": "47304402200249c64d7a477fa3fe5302a2da404f8c2e88cc888b2e5e5280ee65f74728f82a0220468640943b4bfb1792028130cdf447df914d7fe7148f3498ad09bca22a48243f0121026ad145006ab3bb1dbac9eafcadbb9a2e942e7e73df33a00cd736663b8135c04b", "asm": "304402200249c64d7a477fa3fe5302a2da404f8c2e88cc888b2e5e5280ee65f74728f82a0220468640943b4bfb1792028130cdf447df914d7fe7148f3498ad09bca22a48243f[ALL] 026ad145006ab3bb1dbac9eafcadbb9a2e942e7e73df33a00cd736663b8135c04b"}, "vout": 1, "txid": "0d263404ce102394ef03b49addc3d1e2f9ee432dd83b790fbc82cec9c23d6b21"}, {"sequence": 4294967295, "scriptSig": {"hex": "4830450221008afff801284fc9619e6896bfdd3581320f142fa535d701b4eb3358efe703041002206aabed416a5c1c812ac8ba8e681b754a342ca377e924815121f5b1cf28aaf4ee012103ddd56b0ba9e4b6527552b6474d354254aca9eb69833422ca583f84cc86bcc7f1", "asm": "30450221008afff801284fc9619e6896bfdd3581320f142fa535d701b4eb3358efe703041002206aabed416a5c1c812ac8ba8e681b754a342ca377e924815121f5b1cf28aaf4ee[ALL] 03ddd56b0ba9e4b6527552b6474d354254aca9eb69833422ca583f84cc86bcc7f1"}, "vout": 0, "txid": "0e5989ca88318d29af13eab7a2fb8572ff5b747579af80d55c3202fdb64a96c2"}, {"sequence": 4294967295, "scriptSig": {"hex": "47304402205ea675a36b8ce352b8c5b9ad9b152535f18f539d20edf92dc32109f68d0576d602203a2bbae0bf18570421134de965e5beb077602a31715ad88d724bda108148469c012103b1718f4d31b61be334d387e3232fc5c450f0f153eca8bf1769fd1b7d168b6cb0", "asm": "304402205ea675a36b8ce352b8c5b9ad9b152535f18f539d20edf92dc32109f68d0576d602203a2bbae0bf18570421134de965e5beb077602a31715ad88d724bda108148469c[ALL] 03b1718f4d31b61be334d387e3232fc5c450f0f153eca8bf1769fd1b7d168b6cb0"}, "vout": 0, "txid": "1699c778f08e5ca2eea75babee443261f06d5c3c347d9e5e53d4ef8a498d2e06"}, {"sequence": 4294967295, "scriptSig": {"hex": "4730440220318d6ecc938dbdfe6436e9647cd61f72162aac12d3d4ef2fac24271f12e0b90002200e8588d39d682cb112fd8818a5d41f5ca1332e2561ad7ffdc9a744ffe16c7439012102bc7b89862865dbf1a0960af93c25e5dd2a87d9af1008fee0ac45d7bf5f4eefcc", "asm": "30440220318d6ecc938dbdfe6436e9647cd61f72162aac12d3d4ef2fac24271f12e0b90002200e8588d39d682cb112fd8818a5d41f5ca1332e2561ad7ffdc9a744ffe16c7439[ALL] 02bc7b89862865dbf1a0960af93c25e5dd2a87d9af1008fee0ac45d7bf5f4eefcc"}, "vout": 2, "txid": "3638ef23f79ca82f728d06817e5b3c79485345954b5255b119e4dec273ba9fbb"}, {"sequence": 4294967295, "scriptSig": {"hex": "47304402200814020d1372ce998505ebca461c35132b602a523626a9848deb3c837591eb90022030b72fdacaccd501cc2fa80d17840f9ab790681edb840df9c36a2dd4ceb07c8f012102be870c50eeefcddb5eb657c2ad1a279ac839a457aa2e61ff84d45dc46135b48d", "asm": "304402200814020d1372ce998505ebca461c35132b602a523626a9848deb3c837591eb90022030b72fdacaccd501cc2fa80d17840f9ab790681edb840df9c36a2dd4ceb07c8f[ALL] 02be870c50eeefcddb5eb657c2ad1a279ac839a457aa2e61ff84d45dc46135b48d"}, "vout": 2, "txid": "399001896d68ac5456a1ab735b2f9aadeed731335f5a9b19cedf0655b8b11f93"}, {"sequence": 4294967295, "scriptSig": {"hex": "483045022100b77dbb32a4988dc72ba5e512dcc891f4354b72292e7f8fe0cb116e228b263c520220198362d2760bedc2a35d1b9bd6a4eb54df131da7f6757b60f629c9d5af934477012102f50ae502401334934559ec0b8fa4ed8e9206ddb9b98541e3c22919d2e7ad34f5", "asm": "3045022100b77dbb32a4988dc72ba5e512dcc891f4354b72292e7f8fe0cb116e228b263c520220198362d2760bedc2a35d1b9bd6a4eb54df131da7f6757b60f629c9d5af934477[ALL] 02f50ae502401334934559ec0b8fa4ed8e9206ddb9b98541e3c22919d2e7ad34f5"}, "vout": 0, "txid": "5a5e943c0f7aab3ff2eca43a46e5567d7184baa82680695b90adaf545c717a20"}, {"sequence": 4294967295, "scriptSig": {"hex": "483045022100dd93ac65f3554ed8719b301953269b66632c0a07b66326cdfc3fb0c54dea91c402205e8f2878c6d707b0c125e8511a2419e082af9da600c5bbf50e4e36aa028264ae01210346890792de1aacc38af66712c44156faf11cbca13db6d170de2789c795961f59", "asm": "3045022100dd93ac65f3554ed8719b301953269b66632c0a07b66326cdfc3fb0c54dea91c402205e8f2878c6d707b0c125e8511a2419e082af9da600c5bbf50e4e36aa028264ae[ALL] 0346890792de1aacc38af66712c44156faf11cbca13db6d170de2789c795961f59"}, "vout": 1, "txid": "5b92f187b04f8b22da4de1697ca37a4168b1434e716217a2f3a1e606efe7b63b"}, {"sequence": 4294967295, "scriptSig": {"hex": "483045022100cbe06b85aa90f390a387e95c8cd9b58efbc1cf6ce216bd91be93331dee5d6e5f02204af10868f37555e225d2960fd9b7ad30136881ffe157f1bc66127580043860cf0121020a968c6a756d9aa7be4ae4437556af22236ea6597006ec827d04fd7a893f4b48", "asm": "3045022100cbe06b85aa90f390a387e95c8cd9b58efbc1cf6ce216bd91be93331dee5d6e5f02204af10868f37555e225d2960fd9b7ad30136881ffe157f1bc66127580043860cf[ALL] 020a968c6a756d9aa7be4ae4437556af22236ea6597006ec827d04fd7a893f4b48"}, "vout": 0, "txid": "5bc213069438a51d8ffdcb9e85b7776c22171656d8d39a4dea7a075c5aa0b4e6"}, {"sequence": 4294967295, "scriptSig": {"hex": "473044022051b76585fa57e2db5e6d643ba8fa3cf68a42be0d24f7060bb969e5b018292761022076335945429520d06d5f7caadd55f1684f547563f53b62d6c381cf0602800001012103d474ed2bbb309727a0a6711287a7e804ebb3e4100f780bbef7b13a0ad0b9359d", "asm": "3044022051b76585fa57e2db5e6d643ba8fa3cf68a42be0d24f7060bb969e5b018292761022076335945429520d06d5f7caadd55f1684f547563f53b62d6c381cf0602800001[ALL] 03d474ed2bbb309727a0a6711287a7e804ebb3e4100f780bbef7b13a0ad0b9359d"}, "vout": 1, "txid": "649203f0445a9b40116019f76266e6117dcfbea1cfb0b2137ac677f16fa58a0d"}, {"sequence": 4294967295, "scriptSig": {"hex": "483045022100c6eb008a8e7c3b31e42aa8c27f87497e481350ff648d4b03fb512fddfbf480b6022053e5e7fa7388559e844cdb7566c33e11281399e4e19fefd1acb87e93503ce82f012103c635015305ea2c06501ef7beeacea1f846eff1d2fb5e298902790c6e2059807e", "asm": "3045022100c6eb008a8e7c3b31e42aa8c27f87497e481350ff648d4b03fb512fddfbf480b6022053e5e7fa7388559e844cdb7566c33e11281399e4e19fefd1acb87e93503ce82f[ALL] 03c635015305ea2c06501ef7beeacea1f846eff1d2fb5e298902790c6e2059807e"}, "vout": 0, "txid": "7d0759cc3bcef7e44dce35633182862e580864abd85aa5f2274f35b733a1e23c"}, {"sequence": 4294967295, "scriptSig": {"hex": "473044022020ec3b3fd7481b42299b3549bbac6bd02bdd86ffa02752a31e19c7afd2f3bb0c02201d07638b6aa72c06fa5b4e9b15333d18acb906a185d4a3e7e1133c4a06b20eaf01210250cd57d3336c59bd4b77988f6b7ec445f00dba3307f245cbd5100ac05b86ff03", "asm": "3044022020ec3b3fd7481b42299b3549bbac6bd02bdd86ffa02752a31e19c7afd2f3bb0c02201d07638b6aa72c06fa5b4e9b15333d18acb906a185d4a3e7e1133c4a06b20eaf[ALL] 0250cd57d3336c59bd4b77988f6b7ec445f00dba3307f245cbd5100ac05b86ff03"}, "vout": 1, "txid": "833edce27dbadbbb6eac47ef36ea8bf22a7fa0bda59883c5fec21a67aafd0dee"}], "txid": "510e4d885d29a4cb61b711dc014724775b0b6d04c20bb2a7da09c7b88efa8de4", "blocktime": 1537871767, "version": 1, "confirmations": 11490, "time": 1537871767, "locktime": 0, "vsize": 1666, "size": 1666}