{"hash": "9aadcbdabcf9129ca2abef9e426d501a08b0ef1b9e57b6e26e0b0fc7bda495bf", "blockhash": "0000000000000000001f0ddff1eddb255c1121bcd4da4f1bc9a0da00cae72433", "vout": [{"scriptPubKey": {"reqSigs": 1, "hex": "a91484bb5315a55adc87521f3c3d61cebc873c06dd5d87", "addresses": ["3DnqXQLfbSEE4EqiXyFbHy1TUBQfLiPHpX"], "asm": "OP_HASH160 84bb5315a55adc87521f3c3d61cebc873c06dd5d OP_EQUAL", "type": "scripthash"}, "value": 0.01000033, "n": 0}, {"scriptPubKey": {"reqSigs": 1, "hex": "76a91402d4941b16697239b31220765c72a06b5109e5d288ac", "addresses": ["1Fy1bmXV9eSqXycZK2uk6JS2HYA4XeZgB"], "asm": "OP_DUP OP_HASH160 02d4941b16697239b31220765c72a06b5109e5d2 OP_EQUALVERIFY OP_CHECKSIG", "type": "pubkeyhash"}, "value": 0.05, "n": 1}], "hex": "02000000000102261cfc3ec86fd8b1e6a4b5070c5ba335243cd1a65111df8db32d603de6ae83a200000000171600141ff469b0c2ea752a06d4323d02525dbec6db80cffdffffff46806fcd6c8c3af0de02b02ac62e7612ad38f5b3f07b1c535b03a9c395d0c8f3000000001716001463edfcd090aee15600b36d2617205c8b3baf62dafdffffff0261420f000000000017a91484bb5315a55adc87521f3c3d61cebc873c06dd5d87404b4c00000000001976a91402d4941b16697239b31220765c72a06b5109e5d288ac02473044022059196f75bc4f0a386db3ba88e9936771217c8c53820a9a7f71d9beb77e562d5902207aac9071754b9c59e1051d5d08fbf85b3b9e7a6c9efb5a1902f2676819711533012102e7c4f821b82820075c2e51722a1fc7e347911fb050469ab96003bb7f90b1f5ea0247304402202ca8ef433fb08a4141f20975255e78dc405f5cb49bfe49cb122c2172025d8c4a022017124e63f33a6b1248a29e28d582ddc7aed1a4d9f7ec8efb23ffa59ce0b71c840121036eb3008ea05984289b7e85e35733a593a029c99160ea40a256924322c7558cd010490800", "vin": [{"txinwitness": ["3044022059196f75bc4f0a386db3ba88e9936771217c8c53820a9a7f71d9beb77e562d5902207aac9071754b9c59e1051d5d08fbf85b3b9e7a6c9efb5a1902f267681971153301", "02e7c4f821b82820075c2e51722a1fc7e347911fb050469ab96003bb7f90b1f5ea"], "sequence": 4294967293, "scriptSig": {"hex": "1600141ff469b0c2ea752a06d4323d02525dbec6db80cf", "asm": "00141ff469b0c2ea752a06d4323d02525dbec6db80cf"}, "vout": 0, "txid": "a283aee63d602db38ddf1151a6d13c2435a35b0c07b5a4e6b1d86fc83efc1c26"}, {"txinwitness": ["304402202ca8ef433fb08a4141f20975255e78dc405f5cb49bfe49cb122c2172025d8c4a022017124e63f33a6b1248a29e28d582ddc7aed1a4d9f7ec8efb23ffa59ce0b71c8401", "036eb3008ea05984289b7e85e35733a593a029c99160ea40a256924322c7558cd0"], "sequence": 4294967293, "scriptSig": {"hex": "16001463edfcd090aee15600b36d2617205c8b3baf62da", "asm": "001463edfcd090aee15600b36d2617205c8b3baf62da"}, "vout": 0, "txid": "f3c8d095c3a9035b531c7bf0b3f538ad12762ec62ab002def03a8c6ccd6f8046"}], "txid": "511a7b5e95458648dbf8a2a40e7debc93fa9d3af44b2ce825e13acda9829aba4", "blocktime": 1537872018, "version": 2, "confirmations": 11489, "time": 1537872018, "locktime": 542992, "vsize": 258, "size": 420}