{"hash": "512001c10b9b5511ef1e6771f9154d6b4edd81a8474b1b4ca02de62535594ce9", "blockhash": "0000000000000000000dcc0f55137456b1a82d3642486a52398922ac4d620174", "vout": [{"scriptPubKey": {"reqSigs": 1, "hex": "76a914bb6851da238fc6b1e1497955e24925f499dcab2c88ac", "addresses": ["1J5vL8oZoJEkLuVeLABNsQnfSc5qXcgViW"], "asm": "OP_DUP OP_HASH160 bb6851da238fc6b1e1497955e24925f499dcab2c OP_EQUALVERIFY OP_CHECKSIG", "type": "pubkeyhash"}, "value": 0.002176, "n": 0}, {"scriptPubKey": {"reqSigs": 1, "hex": "76a914f48e4966f6929b5f57503b318c4af7c0e02f59d788ac", "addresses": ["1PJ6L4akKRksx1miD1uxaA8UqExa7WANBf"], "asm": "OP_DUP OP_HASH160 f48e4966f6929b5f57503b318c4af7c0e02f59d7 OP_EQUALVERIFY OP_CHECKSIG", "type": "pubkeyhash"}, "value": 0.00046101, "n": 1}], "hex": "01000000027e4f9920386f6dc26f59e4f5d4f954999ab9a36d6d9068165e813ea2ea70ba0f000000006b483045022100a3e4183b7681696fd3063f3b5a086366a3f4790c79c5e61880e6dcf1832a27d8022016781e3346c51b19bec745bfe3be4ac612fec78e2023eed77e9a6c4a9097360e012102316dacb953c3fb89df7c262478942ca6f962a49a7fac549d34bd0f8ca2516b80fffffffff98aea341d92d3e000f7720a2b3beb3d14740319d6bba6ea9fdc4fe6c1b71622010000006a47304402207c4522e5f50293536e52e758fd01262b7f143c4e7c220c30ccd7c7f0d07ceb8c02200748d31592b2e7a4d4c65005eedfe28355fb5f9f354c2db5ebc21dcbaed6778c01210356eaf9bdbeb961215cb3897061f56a85fbdbe105fbe5fe191b2ef8ef7c2c9ea4ffffffff0200520300000000001976a914bb6851da238fc6b1e1497955e24925f499dcab2c88ac15b40000000000001976a914f48e4966f6929b5f57503b318c4af7c0e02f59d788ac00000000", "vin": [{"sequence": 4294967295, "scriptSig": {"hex": "483045022100a3e4183b7681696fd3063f3b5a086366a3f4790c79c5e61880e6dcf1832a27d8022016781e3346c51b19bec745bfe3be4ac612fec78e2023eed77e9a6c4a9097360e012102316dacb953c3fb89df7c262478942ca6f962a49a7fac549d34bd0f8ca2516b80", "asm": "3045022100a3e4183b7681696fd3063f3b5a086366a3f4790c79c5e61880e6dcf1832a27d8022016781e3346c51b19bec745bfe3be4ac612fec78e2023eed77e9a6c4a9097360e[ALL] 02316dacb953c3fb89df7c262478942ca6f962a49a7fac549d34bd0f8ca2516b80"}, "vout": 0, "txid": "0fba70eaa23e815e1668906d6da3b99a9954f9d4f5e4596fc26d6f3820994f7e"}, {"sequence": 4294967295, "scriptSig": {"hex": "47304402207c4522e5f50293536e52e758fd01262b7f143c4e7c220c30ccd7c7f0d07ceb8c02200748d31592b2e7a4d4c65005eedfe28355fb5f9f354c2db5ebc21dcbaed6778c01210356eaf9bdbeb961215cb3897061f56a85fbdbe105fbe5fe191b2ef8ef7c2c9ea4", "asm": "304402207c4522e5f50293536e52e758fd01262b7f143c4e7c220c30ccd7c7f0d07ceb8c02200748d31592b2e7a4d4c65005eedfe28355fb5f9f354c2db5ebc21dcbaed6778c[ALL] 0356eaf9bdbeb961215cb3897061f56a85fbdbe105fbe5fe191b2ef8ef7c2c9ea4"}, "vout": 1, "txid": "2216b7c1e64fdc9feaa6bbd6190374143deb3b2b0a72f700e0d3921d34ea8af9"}], "txid": "512001c10b9b5511ef1e6771f9154d6b4edd81a8474b1b4ca02de62535594ce9", "blocktime": 1537870268, "version": 1, "confirmations": 11518, "time": 1537870268, "locktime": 0, "vsize": 373, "size": 373}