{"hash": "51228654a971d85266c4a868352015f8eabf61ec1f85c85d30c515d5ee4c2aae", "blockhash": "0000000000000000001cda96e906b7601b7a6fb1a3b62bca570a9e5d8f4b3de1", "vout": [{"scriptPubKey": {"reqSigs": 1, "hex": "a914e2c4abf58b7df7bf51c80f40d0c4e64f8fa3fda187", "addresses": ["3NN4EtSkieSRWLDCd7XyrE112n53hnmU3E"], "asm": "OP_HASH160 e2c4abf58b7df7bf51c80f40d0c4e64f8fa3fda1 OP_EQUAL", "type": "scripthash"}, "value": 0.00735097, "n": 0}, {"scriptPubKey": {"reqSigs": 1, "hex": "76a9145f6f68214093f89ed048b49c47d8506bcc4eb70388ac", "addresses": ["19hceuGHjQn5zMrEMdKWwGps2CbcJ24q9f"], "asm": "OP_DUP OP_HASH160 5f6f68214093f89ed048b49c47d8506bcc4eb703 OP_EQUALVERIFY OP_CHECKSIG", "type": "pubkeyhash"}, "value": 0.00010396, "n": 1}], "hex": "0100000001950228e5cd2fe0154cbe33b122d054411ad54999aaf8c5ee1a23f605379babdb000000006b4830450221008383cd83fdd4547e440e686969eb8601a3353e3e7fab12d3da6c28d3cd7f3e6f022068e95e8d13826f40b153867927a325b9d15d3c7e696e8c6b0499609bd6b0d7850121021f26b9975998f57fa511bf49c83a1daa82764d6d771414b7bde2e869fe7ac9c1ffffffff0279370b000000000017a914e2c4abf58b7df7bf51c80f40d0c4e64f8fa3fda1879c280000000000001976a9145f6f68214093f89ed048b49c47d8506bcc4eb70388ac00000000", "vin": [{"sequence": 4294967295, "scriptSig": {"hex": "4830450221008383cd83fdd4547e440e686969eb8601a3353e3e7fab12d3da6c28d3cd7f3e6f022068e95e8d13826f40b153867927a325b9d15d3c7e696e8c6b0499609bd6b0d7850121021f26b9975998f57fa511bf49c83a1daa82764d6d771414b7bde2e869fe7ac9c1", "asm": "30450221008383cd83fdd4547e440e686969eb8601a3353e3e7fab12d3da6c28d3cd7f3e6f022068e95e8d13826f40b153867927a325b9d15d3c7e696e8c6b0499609bd6b0d785[ALL] 021f26b9975998f57fa511bf49c83a1daa82764d6d771414b7bde2e869fe7ac9c1"}, "vout": 0, "txid": "dbab9b3705f6231aeec5f8aa9949d51a4154d022b133be4c15e02fcde5280295"}], "txid": "51228654a971d85266c4a868352015f8eabf61ec1f85c85d30c515d5ee4c2aae", "blocktime": 1537873282, "version": 1, "confirmations": 11484, "time": 1537873282, "locktime": 0, "vsize": 224, "size": 224}