{"hash": "8edd083c68029b45cb06f8c31d966ae4e474458eb969e46e5feb7dd1e36a2fbf", "blockhash": "0000000000000000001cda96e906b7601b7a6fb1a3b62bca570a9e5d8f4b3de1", "vout": [{"scriptPubKey": {"reqSigs": 1, "hex": "0014cde551b8c928e517ad3e112a09f70dfa6840fc69", "addresses": ["bc1qehj4rwxf9rj30tf7zy4qnacdlf5yplrf37p02m"], "asm": "0 cde551b8c928e517ad3e112a09f70dfa6840fc69", "type": "witness_v0_keyhash"}, "value": 0.011, "n": 0}], "hex": "010000000001024a937c86ab2bc640ac196b74e46edb06f5e3f2fba51da178bf47f046bdc63e7f0000000000ffffffff11595581f851fb4cacd27258095a905cfb009305e171dc2e7af681666017925e0000000000ffffffff01e0c8100000000000160014cde551b8c928e517ad3e112a09f70dfa6840fc6902473044022015706e441746728f9d17860cf0bb76085d5fdfe89c0fe46eaf93ae04647ee9bb02203fc7df04607102cf481efcb25bc313abfa13cac32c167210b7771813a57793c3012103aa597678afd19b003c815de7c3dea3002879a96c32507153e219f2923d5118a602473044022058dc096c86c05d2a2f11243d56f03de83dea15c4a95fcf47d4a833f31625309902207bc4b2370485e8a0c1d6c096ac35785556e009019ec619611ab0a123afda966a012102711adf2105f764eaa71bddc471795264a4234acc70aee2011f0ae7a9ee770a9d00000000", "vin": [{"txinwitness": ["3044022015706e441746728f9d17860cf0bb76085d5fdfe89c0fe46eaf93ae04647ee9bb02203fc7df04607102cf481efcb25bc313abfa13cac32c167210b7771813a57793c301", "03aa597678afd19b003c815de7c3dea3002879a96c32507153e219f2923d5118a6"], "sequence": 4294967295, "scriptSig": {"hex": "", "asm": ""}, "vout": 0, "txid": "7f3ec6bd46f047bf78a11da5fbf2e3f506db6ee4746b19ac40c62bab867c934a"}, {"txinwitness": ["3044022058dc096c86c05d2a2f11243d56f03de83dea15c4a95fcf47d4a833f31625309902207bc4b2370485e8a0c1d6c096ac35785556e009019ec619611ab0a123afda966a01", "02711adf2105f764eaa71bddc471795264a4234acc70aee2011f0ae7a9ee770a9d"], "sequence": 4294967295, "scriptSig": {"hex": "", "asm": ""}, "vout": 0, "txid": "5e9217606681f67a2edc71e1059300fb5c905a095872d2ac4cfb51f881555911"}], "txid": "51232eefbf8a3c5e450684ddb55d6510d7a6298343174b11fb9bca5d3b282cd3", "blocktime": 1537873282, "version": 1, "confirmations": 11484, "time": 1537873282, "locktime": 0, "vsize": 177, "size": 339}