{"hash": "512362e7fedf3c329672c4c14476b50c39be7f62fad0de0d134c69deed32fd26", "blockhash": "00000000000000000018f53835495a110e01622372bf6ae95dc86f2b0ab887b0", "vout": [{"scriptPubKey": {"reqSigs": 1, "hex": "76a914fface5b74d6c5cbe1c4b28b303815708c986046488ac", "addresses": ["1QJtS2xTMcgkXKDQavAdiQwW9s3srPGupt"], "asm": "OP_DUP OP_HASH160 fface5b74d6c5cbe1c4b28b303815708c9860464 OP_EQUALVERIFY OP_CHECKSIG", "type": "pubkeyhash"}, "value": 0.00054364, "n": 0}, {"scriptPubKey": {"reqSigs": 1, "hex": "a914a02421a698d9dc91f1bd80e0052806c57896a7e787", "addresses": ["3GHmKhBjLJWDXdV82NikB1RbbdynjiwbPm"], "asm": "OP_HASH160 a02421a698d9dc91f1bd80e0052806c57896a7e7 OP_EQUAL", "type": "scripthash"}, "value": 0.000781, "n": 1}], "hex": "0100000002c4cf44827e4b4724532cc7adc585900541ad8b772a14777ef343184a1501c5af000000006a473044022037233598114b58eeca49744f683f2284ff20d433269aa14d009c2c9e51de8e67022012261758a1f35766f8e2a91017cb021dbf68a3ccbbe32cc294b8046c7410210b01210279b25123e432997a84b6c9ddfe462373f0eed73fe46d7136582df85fbffc3b71ffffffff305cd1381936a47647422ec8f1131c85c66b2d6fcce890784ef25287ccc1f5b7010000006a473044022065480dc2406ea842a470c3094afbf3addbc51226f61759805e003459255a7bb602206520418514e7e567381d986416ae70b02b5e3b82f5c6d707e3ebd48bd9b56ade01210279665abdda2d2aef388d4241cebd64b7254151d37aa05cb9046819fe48cc3d01ffffffff025cd40000000000001976a914fface5b74d6c5cbe1c4b28b303815708c986046488ac143101000000000017a914a02421a698d9dc91f1bd80e0052806c57896a7e78700000000", "vin": [{"sequence": 4294967295, "scriptSig": {"hex": "473044022037233598114b58eeca49744f683f2284ff20d433269aa14d009c2c9e51de8e67022012261758a1f35766f8e2a91017cb021dbf68a3ccbbe32cc294b8046c7410210b01210279b25123e432997a84b6c9ddfe462373f0eed73fe46d7136582df85fbffc3b71", "asm": "3044022037233598114b58eeca49744f683f2284ff20d433269aa14d009c2c9e51de8e67022012261758a1f35766f8e2a91017cb021dbf68a3ccbbe32cc294b8046c7410210b[ALL] 0279b25123e432997a84b6c9ddfe462373f0eed73fe46d7136582df85fbffc3b71"}, "vout": 0, "txid": "afc501154a1843f37e77142a778bad41059085c5adc72c5324474b7e8244cfc4"}, {"sequence": 4294967295, "scriptSig": {"hex": "473044022065480dc2406ea842a470c3094afbf3addbc51226f61759805e003459255a7bb602206520418514e7e567381d986416ae70b02b5e3b82f5c6d707e3ebd48bd9b56ade01210279665abdda2d2aef388d4241cebd64b7254151d37aa05cb9046819fe48cc3d01", "asm": "3044022065480dc2406ea842a470c3094afbf3addbc51226f61759805e003459255a7bb602206520418514e7e567381d986416ae70b02b5e3b82f5c6d707e3ebd48bd9b56ade[ALL] 0279665abdda2d2aef388d4241cebd64b7254151d37aa05cb9046819fe48cc3d01"}, "vout": 1, "txid": "b7f5c1cc8752f24e7890e8cc6f2d6bc6851c13f1c82e424776a4361938d15c30"}], "txid": "512362e7fedf3c329672c4c14476b50c39be7f62fad0de0d134c69deed32fd26", "blocktime": 1537870928, "version": 1, "confirmations": 11514, "time": 1537870928, "locktime": 0, "vsize": 370, "size": 370}