{"hash": "5124d885019cbf503fe2501a04baea4b69d318e159a7abb5a919a5bfb20c72a5", "blockhash": "00000000000000000024a2167bbff67b0be802c0b01cdd79e6331c2be6459f87", "vout": [{"scriptPubKey": {"reqSigs": 1, "hex": "a914cae57f940b0773e5d12d2ad9e641a0c817ec71b187", "addresses": ["3LBqM7qCjiQhiJruxSkiQgYLki25dyixjQ"], "asm": "OP_HASH160 cae57f940b0773e5d12d2ad9e641a0c817ec71b1 OP_EQUAL", "type": "scripthash"}, "value": 0.00225984, "n": 0}, {"scriptPubKey": {"reqSigs": 1, "hex": "76a914b520984c1c6d9448650bbbfe4d5a55e40c4cf19a88ac", "addresses": ["1HWiMTR8vxiGdCQp3LH67w7A7cohumFa8u"], "asm": "OP_DUP OP_HASH160 b520984c1c6d9448650bbbfe4d5a55e40c4cf19a OP_EQUALVERIFY OP_CHECKSIG", "type": "pubkeyhash"}, "value": 0.10488478, "n": 1}], "hex": "02000000013153fc31569816ca8ae861a522e35c9821c1b344681fbcaa328d3729d50d44a0010000006b483045022100c0811188fbd20132e51f37194598efc14d10741ea88d33db3e984624eab0a090022064fdd96ae09a911dc23ae665b6ee67aabcfb34f35913c20ee2aae7c20949d26b012102db979748bb82aac24e3e82f688b9262d56fd7ae3c9442f309259e127f2db4a52ffffffff02c07203000000000017a914cae57f940b0773e5d12d2ad9e641a0c817ec71b1879e0aa000000000001976a914b520984c1c6d9448650bbbfe4d5a55e40c4cf19a88ac00000000", "vin": [{"sequence": 4294967295, "scriptSig": {"hex": "483045022100c0811188fbd20132e51f37194598efc14d10741ea88d33db3e984624eab0a090022064fdd96ae09a911dc23ae665b6ee67aabcfb34f35913c20ee2aae7c20949d26b012102db979748bb82aac24e3e82f688b9262d56fd7ae3c9442f309259e127f2db4a52", "asm": "3045022100c0811188fbd20132e51f37194598efc14d10741ea88d33db3e984624eab0a090022064fdd96ae09a911dc23ae665b6ee67aabcfb34f35913c20ee2aae7c20949d26b[ALL] 02db979748bb82aac24e3e82f688b9262d56fd7ae3c9442f309259e127f2db4a52"}, "vout": 1, "txid": "a0440dd529378d32aabc1f6844b3c121985ce322a561e88aca16985631fc5331"}], "txid": "5124d885019cbf503fe2501a04baea4b69d318e159a7abb5a919a5bfb20c72a5", "blocktime": 1537870564, "version": 2, "confirmations": 11515, "time": 1537870564, "locktime": 0, "vsize": 224, "size": 224}