{"hash": "513275e21246eb85dfb76379c08c6613efa0952801a5a1d73187d4078013e985", "blockhash": "0000000000000000001cda96e906b7601b7a6fb1a3b62bca570a9e5d8f4b3de1", "vout": [{"scriptPubKey": {"reqSigs": 1, "hex": "76a91474237f2c6e69cf741139d353934c18d64abf004a88ac", "addresses": ["1Bb5ucTJJ7YjRCTvLYtPFQLoftjTG2KcaV"], "asm": "OP_DUP OP_HASH160 74237f2c6e69cf741139d353934c18d64abf004a OP_EQUALVERIFY OP_CHECKSIG", "type": "pubkeyhash"}, "value": 0.0006646, "n": 0}, {"scriptPubKey": {"type": "nulldata", "hex": "6a4c50000077c500011ac8685b23cc0f42c2fc38c5e5bf9ae76da98a211aaf6c953dd567cf27e7dd8adcd0cd4bfb78da54f1f70f6253cd5baa134c06136d4758d12efcbc9a9526289ac0f6612cd74e33776ee4", "asm": "OP_RETURN 000077c500011ac8685b23cc0f42c2fc38c5e5bf9ae76da98a211aaf6c953dd567cf27e7dd8adcd0cd4bfb78da54f1f70f6253cd5baa134c06136d4758d12efcbc9a9526289ac0f6612cd74e33776ee4"}, "value": 0.0, "n": 1}], "hex": "01000000015a80cea1eb53e1cd69baa3feb56e03cd6687283b42385daf6afeb33d13d86d4c010000006a47304402203b9b06d2f5ff1d710c94e4ebbce9a36f692eb8d6d0f6926befa23321502382be02205094fb9e4be3b5118b86d99de775956c9074dc5b957f52132bf0e10920b3cc6e0121034557ca18275e119224e5f81a8426178e3e00dce3ceeede18575a6b91c3dd5d3fffffffff029c030100000000001976a91474237f2c6e69cf741139d353934c18d64abf004a88ac0000000000000000536a4c50000077c500011ac8685b23cc0f42c2fc38c5e5bf9ae76da98a211aaf6c953dd567cf27e7dd8adcd0cd4bfb78da54f1f70f6253cd5baa134c06136d4758d12efcbc9a9526289ac0f6612cd74e33776ee400000000", "vin": [{"sequence": 4294967295, "scriptSig": {"hex": "47304402203b9b06d2f5ff1d710c94e4ebbce9a36f692eb8d6d0f6926befa23321502382be02205094fb9e4be3b5118b86d99de775956c9074dc5b957f52132bf0e10920b3cc6e0121034557ca18275e119224e5f81a8426178e3e00dce3ceeede18575a6b91c3dd5d3f", "asm": "304402203b9b06d2f5ff1d710c94e4ebbce9a36f692eb8d6d0f6926befa23321502382be02205094fb9e4be3b5118b86d99de775956c9074dc5b957f52132bf0e10920b3cc6e[ALL] 034557ca18275e119224e5f81a8426178e3e00dce3ceeede18575a6b91c3dd5d3f"}, "vout": 1, "txid": "4c6dd8133db3fe6aaf5d38423b288766cd036eb5fea3ba69cde153eba1ce805a"}], "txid": "513275e21246eb85dfb76379c08c6613efa0952801a5a1d73187d4078013e985", "blocktime": 1537873282, "version": 1, "confirmations": 11484, "time": 1537873282, "locktime": 0, "vsize": 283, "size": 283}