{"hash": "5133cfe8507ca4972cd5fd83fbc7c750e57d756842542ddf6a5e327ba7589ec4", "blockhash": "0000000000000000001f0ddff1eddb255c1121bcd4da4f1bc9a0da00cae72433", "vout": [{"scriptPubKey": {"reqSigs": 1, "hex": "21020e46e79a2a8d12b9b5d12c7a91adb4e454edfae43c0a0cb805427d2ac7613fd9ac", "addresses": ["1P3rU1Nk1pmc2BiWC8dEy9bZa1ZbMp5jfg"], "asm": "020e46e79a2a8d12b9b5d12c7a91adb4e454edfae43c0a0cb805427d2ac7613fd9 OP_CHECKSIG", "type": "pubkey"}, "value": 0.000988, "n": 0}, {"scriptPubKey": {"type": "nulldata", "hex": "6a28a22ff2a9a4e758568ec4fa47c0e490f360bdbb2a1a7361d942121d5511685807f2a30f004b4d4400", "asm": "OP_RETURN a22ff2a9a4e758568ec4fa47c0e490f360bdbb2a1a7361d942121d5511685807f2a30f004b4d4400"}, "value": 0.0, "n": 1}], "hex": "010000000d8f4d35a996be8a89a7e343379552af979ba6406fd482cd1b57feaee5574e0eb50300000048473044022061f65ec96068897cdbdc62fe2bbb9dc5b5a57d8049251fa90e4d971fc346e84a0220767350cdf5b26390ce705d67c727862146e98a54be2c8a988a2b2f739c15ee1901ffffffffd08571fb8cd56747740325131069d9d4ad050a7cd562a622ea941cb098ed17b1030000004847304402206bd647e7f56581d6011a3cdc0833c925dad394ad532e114b0276377931895f4202205d565eaf17a2a03d49ef38f25bf8c25c3989e640fb9c09832108025fb7beeafe01ffffffffa4cfa18bf7d6841452eafba146fff98c03dd7e955b3207dc99e36bc97e22d3f00400000049483045022100aef125b8a7bc885603f19db9834b210e66f371693d7ef9d7e290aef73fa6c9a30220200f87f57cee920d7c913b71efd2f4daca32b76c2c448dfdfe364e4838ee55f901ffffffffd28f1fa8957612b9937eecde0c046e86d3814d254fdeddf78906767fdf811ce40300000049483045022100a7442740362219947cc360bb4740f29419621dbbac430b2513a7bcecd1c79add0220379d131bc28c61fdb8914384c1e22b93d3a436c68d0c7de59d796a267ca544b901ffffffff97b5c979660ad1b7c495f067f67f026d4fe31fd39e0dce566178367ca84801cc040000004847304402207956c569a125e2790d9ed0b682ab2017e024dfdfe498027e4c340e8e499c79d8022014d586b8e938d43358c74ed9d68f7719786c8e27e9ebb2c266a997dad719c4aa01ffffffffd8c9219f614a346193846a6ff09fb42673ff5d393ed7124d6fccafc3fcc88ca92200000048473044022014c8f9af3a7a8fe217a4904bea07b59d07d5a10e613e7c5e809cfa181fe3194102204f730ca281c1cc6be21e22a06485f9319717d9710a297b17a45a1c1c16d9e70a01ffffffffe0dd0dd456823dc5ba919dff3390226a49fff08b6dc57e0c42a60e4be51c11b3040000004847304402201a988e5a3ceed6d76d36cf7274ac33da006c39c7c82dfae57d8d8a0038dbee4302202556910d9b9a08e38427213420e889b6ba00f0f67b937bc002418baf4b02551d01ffffffff44b2fc16cae5f2ee204d44a821df289d95237c9de61209f0e2767e27d05b84452c00000049483045022100ff05af2338456dcf89ab96ebae9eaf5f24153968c62efd84acb36596f4eaf86a022026d871b5d7aa299f7df4cae7e3886a47ed71f53e49b956a612f11f74a92f5fa601ffffffff4ce86fce7e1820c685d61502305aec1cbdde4684a7d8c9e27fc6ee08718f2d272200000049483045022100d8d963f76d552a589f79b90bceb5822558f2b3abcafc5740741defce06bfc08f0220036edbe65dd0c9b4e55cfca90b0a99b55d53d524ef0c225b39f26da6cf6dfde801ffffffff6b78c0318407c05b2affffe25018244fbc8423eabab6977343cac41115a064cb0000000049483045022100ddb3ba35f6a712dd96b1f4469cce9926f30e164adfc84e02f2fa448c669a0c110220027d3a9788c229ae7d325c7c80c7230a821b11c8a26d2cb3e584308b91b1298601ffffffffacfdb07b4fd031b91120f239376a880a44562c5920fd473287cff458bb2c74d50800000048473044022000e34b4ce970ac35b79db93b049662196c3dc9be22ffd0bbbb27f15d7bf7220e02200d6146355d0509d624ae67a4bc3482a1efa2bc73714238aeb0b470694af63a9a01ffffffffc673becfa849480997fd3bdd1a3b6bb580ea1afda2062bddc8aed10e1f7a5c130500000049483045022100f29ea04e171da2389013e1bbb2461aa6432f0949bfb166fd63ad0d487dccccaa02206124efaa8d7b830c89714685af799a9daa9cfff46192b0aab2f94114c7084e8d01ffffffffaf795fc9ebe326c6d5984065aec2824939a39728cebe2d5b7b08567f45a81075950000004847304402206765c0af40901127bb003590684efb628e420aa7746c450c4e079ce3e35a1b4802206560c7a34f57a36c4048e00098b07e43668aa0799e07cc94fc6ffe10ffcbe19e01ffffffff02f0810100000000002321020e46e79a2a8d12b9b5d12c7a91adb4e454edfae43c0a0cb805427d2ac7613fd9ac00000000000000002a6a28a22ff2a9a4e758568ec4fa47c0e490f360bdbb2a1a7361d942121d5511685807f2a30f004b4d440000000000", "vin": [{"sequence": 4294967295, "scriptSig": {"hex": "473044022061f65ec96068897cdbdc62fe2bbb9dc5b5a57d8049251fa90e4d971fc346e84a0220767350cdf5b26390ce705d67c727862146e98a54be2c8a988a2b2f739c15ee1901", "asm": "3044022061f65ec96068897cdbdc62fe2bbb9dc5b5a57d8049251fa90e4d971fc346e84a0220767350cdf5b26390ce705d67c727862146e98a54be2c8a988a2b2f739c15ee19[ALL]"}, "vout": 3, "txid": "b50e4e57e5aefe571bcd82d46f40a69b97af52953743e3a7898abe96a9354d8f"}, {"sequence": 4294967295, "scriptSig": {"hex": "47304402206bd647e7f56581d6011a3cdc0833c925dad394ad532e114b0276377931895f4202205d565eaf17a2a03d49ef38f25bf8c25c3989e640fb9c09832108025fb7beeafe01", "asm": "304402206bd647e7f56581d6011a3cdc0833c925dad394ad532e114b0276377931895f4202205d565eaf17a2a03d49ef38f25bf8c25c3989e640fb9c09832108025fb7beeafe[ALL]"}, "vout": 3, "txid": "b117ed98b01c94ea22a662d57c0a05add4d96910132503744767d58cfb7185d0"}, {"sequence": 4294967295, "scriptSig": {"hex": "483045022100aef125b8a7bc885603f19db9834b210e66f371693d7ef9d7e290aef73fa6c9a30220200f87f57cee920d7c913b71efd2f4daca32b76c2c448dfdfe364e4838ee55f901", "asm": "3045022100aef125b8a7bc885603f19db9834b210e66f371693d7ef9d7e290aef73fa6c9a30220200f87f57cee920d7c913b71efd2f4daca32b76c2c448dfdfe364e4838ee55f9[ALL]"}, "vout": 4, "txid": "f0d3227ec96be399dc07325b957edd038cf9ff46a1fbea521484d6f78ba1cfa4"}, {"sequence": 4294967295, "scriptSig": {"hex": "483045022100a7442740362219947cc360bb4740f29419621dbbac430b2513a7bcecd1c79add0220379d131bc28c61fdb8914384c1e22b93d3a436c68d0c7de59d796a267ca544b901", "asm": "3045022100a7442740362219947cc360bb4740f29419621dbbac430b2513a7bcecd1c79add0220379d131bc28c61fdb8914384c1e22b93d3a436c68d0c7de59d796a267ca544b9[ALL]"}, "vout": 3, "txid": "e41c81df7f760689f7ddde4f254d81d3866e040cdeec7e93b9127695a81f8fd2"}, {"sequence": 4294967295, "scriptSig": {"hex": "47304402207956c569a125e2790d9ed0b682ab2017e024dfdfe498027e4c340e8e499c79d8022014d586b8e938d43358c74ed9d68f7719786c8e27e9ebb2c266a997dad719c4aa01", "asm": "304402207956c569a125e2790d9ed0b682ab2017e024dfdfe498027e4c340e8e499c79d8022014d586b8e938d43358c74ed9d68f7719786c8e27e9ebb2c266a997dad719c4aa[ALL]"}, "vout": 4, "txid": "cc0148a87c36786156ce0d9ed31fe34f6d027ff667f095c4b7d10a6679c9b597"}, {"sequence": 4294967295, "scriptSig": {"hex": "473044022014c8f9af3a7a8fe217a4904bea07b59d07d5a10e613e7c5e809cfa181fe3194102204f730ca281c1cc6be21e22a06485f9319717d9710a297b17a45a1c1c16d9e70a01", "asm": "3044022014c8f9af3a7a8fe217a4904bea07b59d07d5a10e613e7c5e809cfa181fe3194102204f730ca281c1cc6be21e22a06485f9319717d9710a297b17a45a1c1c16d9e70a[ALL]"}, "vout": 34, "txid": "a98cc8fcc3afcc6f4d12d73e395dff7326b49ff06f6a849361344a619f21c9d8"}, {"sequence": 4294967295, "scriptSig": {"hex": "47304402201a988e5a3ceed6d76d36cf7274ac33da006c39c7c82dfae57d8d8a0038dbee4302202556910d9b9a08e38427213420e889b6ba00f0f67b937bc002418baf4b02551d01", "asm": "304402201a988e5a3ceed6d76d36cf7274ac33da006c39c7c82dfae57d8d8a0038dbee4302202556910d9b9a08e38427213420e889b6ba00f0f67b937bc002418baf4b02551d[ALL]"}, "vout": 4, "txid": "b3111ce54b0ea6420c7ec56d8bf0ff496a229033ff9d91bac53d8256d40ddde0"}, {"sequence": 4294967295, "scriptSig": {"hex": "483045022100ff05af2338456dcf89ab96ebae9eaf5f24153968c62efd84acb36596f4eaf86a022026d871b5d7aa299f7df4cae7e3886a47ed71f53e49b956a612f11f74a92f5fa601", "asm": "3045022100ff05af2338456dcf89ab96ebae9eaf5f24153968c62efd84acb36596f4eaf86a022026d871b5d7aa299f7df4cae7e3886a47ed71f53e49b956a612f11f74a92f5fa6[ALL]"}, "vout": 44, "txid": "45845bd0277e76e2f00912e69d7c23959d28df21a8444d20eef2e5ca16fcb244"}, {"sequence": 4294967295, "scriptSig": {"hex": "483045022100d8d963f76d552a589f79b90bceb5822558f2b3abcafc5740741defce06bfc08f0220036edbe65dd0c9b4e55cfca90b0a99b55d53d524ef0c225b39f26da6cf6dfde801", "asm": "3045022100d8d963f76d552a589f79b90bceb5822558f2b3abcafc5740741defce06bfc08f0220036edbe65dd0c9b4e55cfca90b0a99b55d53d524ef0c225b39f26da6cf6dfde8[ALL]"}, "vout": 34, "txid": "272d8f7108eec67fe2c9d8a78446debd1cec5a300215d685c620187ece6fe84c"}, {"sequence": 4294967295, "scriptSig": {"hex": "483045022100ddb3ba35f6a712dd96b1f4469cce9926f30e164adfc84e02f2fa448c669a0c110220027d3a9788c229ae7d325c7c80c7230a821b11c8a26d2cb3e584308b91b1298601", "asm": "3045022100ddb3ba35f6a712dd96b1f4469cce9926f30e164adfc84e02f2fa448c669a0c110220027d3a9788c229ae7d325c7c80c7230a821b11c8a26d2cb3e584308b91b12986[ALL]"}, "vout": 0, "txid": "cb64a01511c4ca437397b6baea2384bc4f241850e2ffff2a5bc0078431c0786b"}, {"sequence": 4294967295, "scriptSig": {"hex": "473044022000e34b4ce970ac35b79db93b049662196c3dc9be22ffd0bbbb27f15d7bf7220e02200d6146355d0509d624ae67a4bc3482a1efa2bc73714238aeb0b470694af63a9a01", "asm": "3044022000e34b4ce970ac35b79db93b049662196c3dc9be22ffd0bbbb27f15d7bf7220e02200d6146355d0509d624ae67a4bc3482a1efa2bc73714238aeb0b470694af63a9a[ALL]"}, "vout": 8, "txid": "d5742cbb58f4cf873247fd20592c56440a886a3739f22011b931d04f7bb0fdac"}, {"sequence": 4294967295, "scriptSig": {"hex": "483045022100f29ea04e171da2389013e1bbb2461aa6432f0949bfb166fd63ad0d487dccccaa02206124efaa8d7b830c89714685af799a9daa9cfff46192b0aab2f94114c7084e8d01", "asm": "3045022100f29ea04e171da2389013e1bbb2461aa6432f0949bfb166fd63ad0d487dccccaa02206124efaa8d7b830c89714685af799a9daa9cfff46192b0aab2f94114c7084e8d[ALL]"}, "vout": 5, "txid": "135c7a1f0ed1aec8dd2b06a2fd1aea80b56b3b1add3bfd97094849a8cfbe73c6"}, {"sequence": 4294967295, "scriptSig": {"hex": "47304402206765c0af40901127bb003590684efb628e420aa7746c450c4e079ce3e35a1b4802206560c7a34f57a36c4048e00098b07e43668aa0799e07cc94fc6ffe10ffcbe19e01", "asm": "304402206765c0af40901127bb003590684efb628e420aa7746c450c4e079ce3e35a1b4802206560c7a34f57a36c4048e00098b07e43668aa0799e07cc94fc6ffe10ffcbe19e[ALL]"}, "vout": 149, "txid": "7510a8457f56087b5b2dbece2897a3394982c2ae654098d5c626e3ebc95f79af"}], "txid": "5133cfe8507ca4972cd5fd83fbc7c750e57d756842542ddf6a5e327ba7589ec4", "blocktime": 1537872018, "version": 1, "confirmations": 11489, "time": 1537872018, "locktime": 0, "vsize": 1580, "size": 1580}