{"hash": "26899e104dbb4a6f69136dd9838f6c79453aeb5f63eb93e47afb42ead5fa6d46", "blockhash": "0000000000000000001f0ddff1eddb255c1121bcd4da4f1bc9a0da00cae72433", "vout": [{"scriptPubKey": {"reqSigs": 1, "hex": "a91435cd67311d5d4ed0658b87527aeacdba39c5ebcd87", "addresses": ["36bVoNHoJn5FFpaEwWK92qEtdUfGK3ubPP"], "asm": "OP_HASH160 35cd67311d5d4ed0658b87527aeacdba39c5ebcd OP_EQUAL", "type": "scripthash"}, "value": 0.00151088, "n": 0}, {"scriptPubKey": {"reqSigs": 1, "hex": "a9145706b38ff797cdba98aacde20cb4d1ed0be6b35387", "addresses": ["39dAjraCYYwLfmFQt1bjUjYFku1Hc4Hufu"], "asm": "OP_HASH160 5706b38ff797cdba98aacde20cb4d1ed0be6b353 OP_EQUAL", "type": "scripthash"}, "value": 0.01026966, "n": 1}], "hex": "02000000000102087a7d1513cabd1d0a22ed0e54a144389247bc44e104d56c65e204a7c3f072fb0100000017160014e639f2594bae9dd0fe040a5d1066c34557882944feffffffaa33def0fb879eb935e288008f17c9712200a317225b5608110de6fa558a25a9000000001716001494487f9c1dbd072641fb959c4dd01f1d2c8dc4bbfeffffff02304e02000000000017a91435cd67311d5d4ed0658b87527aeacdba39c5ebcd8796ab0f000000000017a9145706b38ff797cdba98aacde20cb4d1ed0be6b3538702473044022034995bad4bd749df9fe068993806312a360d590f796265da7f98ccf06ddc9019022064766aa3ba99717bb7981f41889075c488bdd640b152fe5b1cb75843d101a501012103ee7fc68804a0ea159f6b95bd8f99e07fff401c449b598b1ac38080abc8abf2fb0247304402205f23855bbb937e4e03843fd9f2b3e576e0932b83c7949356de1372fa7afb5ff8022017cebea054d5f13e92deaab0e5e3a32cc54958e2b9b0e17f17b3cdbc8bbac7a301210305bcb4de5ac55a176381f0ebf3fc36da70eaaadfbac758b098d802e5f5a413ebb9480800", "vin": [{"txinwitness": ["3044022034995bad4bd749df9fe068993806312a360d590f796265da7f98ccf06ddc9019022064766aa3ba99717bb7981f41889075c488bdd640b152fe5b1cb75843d101a50101", "03ee7fc68804a0ea159f6b95bd8f99e07fff401c449b598b1ac38080abc8abf2fb"], "sequence": 4294967294, "scriptSig": {"hex": "160014e639f2594bae9dd0fe040a5d1066c34557882944", "asm": "0014e639f2594bae9dd0fe040a5d1066c34557882944"}, "vout": 1, "txid": "fb72f0c3a704e2656cd504e144bc47923844a1540eed220a1dbdca13157d7a08"}, {"txinwitness": ["304402205f23855bbb937e4e03843fd9f2b3e576e0932b83c7949356de1372fa7afb5ff8022017cebea054d5f13e92deaab0e5e3a32cc54958e2b9b0e17f17b3cdbc8bbac7a301", "0305bcb4de5ac55a176381f0ebf3fc36da70eaaadfbac758b098d802e5f5a413eb"], "sequence": 4294967294, "scriptSig": {"hex": "16001494487f9c1dbd072641fb959c4dd01f1d2c8dc4bb", "asm": "001494487f9c1dbd072641fb959c4dd01f1d2c8dc4bb"}, "vout": 0, "txid": "a9258a55fae60d1108565b2217a3002271c9178f0088e235b99e87fbf0de33aa"}], "txid": "5136fbdaab99ac5c993002931bc0815042b09b0e7fce946b8dd545bc0d02b0ac", "blocktime": 1537872018, "version": 2, "confirmations": 11489, "time": 1537872018, "locktime": 542905, "vsize": 256, "size": 418}