{"hash": "0690665cc08ae4e1b65d2c49152fdd9ee765570a07bf9d2ecac18d0cb0103634", "blockhash": "000000000000000000022b45ed06c6f4ccd3cf7fb5ba4856ebd2e58215665228", "vout": [{"scriptPubKey": {"reqSigs": 1, "hex": "76a91461f5b14e476887c6d3d555e77309a4d5413b5fc588ac", "addresses": ["19vxsdU2BbrFsZqQU2joca5fnT7c8iewSw"], "asm": "OP_DUP OP_HASH160 61f5b14e476887c6d3d555e77309a4d5413b5fc5 OP_EQUALVERIFY OP_CHECKSIG", "type": "pubkeyhash"}, "value": 0.0026729, "n": 0}, {"scriptPubKey": {"reqSigs": 1, "hex": "a9149649ad6d2730bb28020a268d9d80df10a9f74ad487", "addresses": ["3FPfYWwfMfKMGY7fuPHvz2b73RhTNGzsm3"], "asm": "OP_HASH160 9649ad6d2730bb28020a268d9d80df10a9f74ad4 OP_EQUAL", "type": "scripthash"}, "value": 13.98239665, "n": 1}], "hex": "0100000000010101261764e88ff3b8c01895db91ab367c849d49912bf3d67c22059b5f2fce93d501000000232200207768efcc1e5eb3d28410fac3f45831004c860cc24cddd940a616b34324823fceffffffff021a140400000000001976a91461f5b14e476887c6d3d555e77309a4d5413b5fc588acb17157530000000017a9149649ad6d2730bb28020a268d9d80df10a9f74ad4870400483045022100dec5ccebfc44baa2e652d9d7d6ef155c4f121203650dd89b19550d311478225602204c8d1edb146960f43b5cb4d7a7dbe4d370d989c3b5ac8395bb6b65e72715bac5014830450221008e03d78aeedc43347f61955f3305aba91076d36aa14e612ab4c8a4c344030cb002206bcc049ed3503eb9c756de20311ca5b33210bc8a70d65b386870944f4d3a22960147522102529d5d1f6733ab45d9d50e07db42c7f6b967ae321c38b726c2247f149959b8262103d0c936a5988dd8421c63240496b723b0ec42400c38b9350e32c2eb4f47d8796952ae00000000", "vin": [{"txinwitness": ["", "3045022100dec5ccebfc44baa2e652d9d7d6ef155c4f121203650dd89b19550d311478225602204c8d1edb146960f43b5cb4d7a7dbe4d370d989c3b5ac8395bb6b65e72715bac501", "30450221008e03d78aeedc43347f61955f3305aba91076d36aa14e612ab4c8a4c344030cb002206bcc049ed3503eb9c756de20311ca5b33210bc8a70d65b386870944f4d3a229601", "522102529d5d1f6733ab45d9d50e07db42c7f6b967ae321c38b726c2247f149959b8262103d0c936a5988dd8421c63240496b723b0ec42400c38b9350e32c2eb4f47d8796952ae"], "sequence": 4294967295, "scriptSig": {"hex": "2200207768efcc1e5eb3d28410fac3f45831004c860cc24cddd940a616b34324823fce", "asm": "00207768efcc1e5eb3d28410fac3f45831004c860cc24cddd940a616b34324823fce"}, "vout": 1, "txid": "d593ce2f5f9b05227cd6f32b91499d847c36ab91db9518c0b8f38fe864172601"}], "txid": "5137c5d1792bfd3063f458fc5ce8de9d3edf210c7971e811c43f982fc8f92ca7", "blocktime": 1537869901, "version": 1, "confirmations": 11524, "time": 1537869901, "locktime": 0, "vsize": 208, "size": 374}