{"hash": "513f1db56d3c7bd5953a340d477c5dd4b1f78f9e081d770f9a230daf6d2e2d63", "blockhash": "00000000000000000004ffacab907a6b429b9a5745fa0b75af4234bf69dd7176", "vout": [{"scriptPubKey": {"reqSigs": 1, "hex": "76a9140c1d3b6a0fd017555073d48d2c81d491cd259fa588ac", "addresses": ["12748PDN6jup35WAwWoeciPcY5zQKMkHxY"], "asm": "OP_DUP OP_HASH160 0c1d3b6a0fd017555073d48d2c81d491cd259fa5 OP_EQUALVERIFY OP_CHECKSIG", "type": "pubkeyhash"}, "value": 0.35621697, "n": 0}, {"scriptPubKey": {"reqSigs": 1, "hex": "76a914bdcd1766df4fe57fab5d9871d630415720a1acf988ac", "addresses": ["1JJaQFv93fFH1hbhDkweGDDJ3eGgGWzUcm"], "asm": "OP_DUP OP_HASH160 bdcd1766df4fe57fab5d9871d630415720a1acf9 OP_EQUALVERIFY OP_CHECKSIG", "type": "pubkeyhash"}, "value": 0.54875272, "n": 1}], "hex": "0100000001fc988a10e9b14fb62015125225864f60c9ec079dc0a72d040cd1fe1825c9a609010000006a47304402201513141d67970aed78f958ffcd886920e9f9d8f336c4e172184dbc7d720f7809022063a4036fec348907044d26e4ab00f7351ae8018a26a12ced96aed88d727910e30121037820e3aa0da29d820b063b076c2b5e929d32ab066374c4e30bc7aa6139016c29ffffffff02418b1f02000000001976a9140c1d3b6a0fd017555073d48d2c81d491cd259fa588ac88544503000000001976a914bdcd1766df4fe57fab5d9871d630415720a1acf988ac00000000", "vin": [{"sequence": 4294967295, "scriptSig": {"hex": "47304402201513141d67970aed78f958ffcd886920e9f9d8f336c4e172184dbc7d720f7809022063a4036fec348907044d26e4ab00f7351ae8018a26a12ced96aed88d727910e30121037820e3aa0da29d820b063b076c2b5e929d32ab066374c4e30bc7aa6139016c29", "asm": "304402201513141d67970aed78f958ffcd886920e9f9d8f336c4e172184dbc7d720f7809022063a4036fec348907044d26e4ab00f7351ae8018a26a12ced96aed88d727910e3[ALL] 037820e3aa0da29d820b063b076c2b5e929d32ab066374c4e30bc7aa6139016c29"}, "vout": 1, "txid": "09a6c92518fed10c042da7c09d07ecc9604f862552121520b64fb1e9108a98fc"}], "txid": "513f1db56d3c7bd5953a340d477c5dd4b1f78f9e081d770f9a230daf6d2e2d63", "blocktime": 1537875543, "version": 1, "confirmations": 11464, "time": 1537875543, "locktime": 0, "vsize": 225, "size": 225}