{"hash": "0beee474d6158f56175a47ca565836cdbaf8b0fb8ae0a417ee8398bf1284b7ad", "blockhash": "000000000000000000022b45ed06c6f4ccd3cf7fb5ba4856ebd2e58215665228", "vout": [{"scriptPubKey": {"reqSigs": 1, "hex": "a9140bf06104aac606ebbd73366bf61f7dfefc72506887", "addresses": ["32n9KUgQ2XLcxMtozBN3vfoQVJmYrFyACL"], "asm": "OP_HASH160 0bf06104aac606ebbd73366bf61f7dfefc725068 OP_EQUAL", "type": "scripthash"}, "value": 0.00998523, "n": 0}, {"scriptPubKey": {"reqSigs": 1, "hex": "76a914b37410e7366e0bf24d88e2f59e90b58cb1095f0888ac", "addresses": ["1HMrzkJjYKptgKvoUgUfo4JS8G7DNcPHQR"], "asm": "OP_DUP OP_HASH160 b37410e7366e0bf24d88e2f59e90b58cb1095f08 OP_EQUALVERIFY OP_CHECKSIG", "type": "pubkeyhash"}, "value": 0.0026106, "n": 1}], "hex": "02000000000102305ee7ef07e6d1de43e93f356f4ada5879bd9df329533ac27c5918860d13de990a00000017160014def9e4566b824ae9801f02c805dfc6a2267916bcfeffffff89ada46b59af729ae29238ea48d41cb5be11b0e9512d55b4a246043b63b71448000000001716001453e8ad3d693a6284ef727cbe0819db25fdb4ee4ffeffffff027b3c0f000000000017a9140bf06104aac606ebbd73366bf61f7dfefc72506887c4fb0300000000001976a914b37410e7366e0bf24d88e2f59e90b58cb1095f0888ac024730440220083bbf1b7415290b19c0114f3854d99a63aa210e3c5cb3c76c007a9115cea32302202ad545e0f571161c14ae0533f97ccc34a3e6527dfb160461984b253d8ca3eea6012102e3a53565a52513fc256695ba6bd6ec4c7db792fc728ff0410617c019544c60f102483045022100d1306c519688876e0994dd43194c78beacb5b274109094e97229444fb1aa95ba022042491c765896877cef6e3a90f3ce055ce9ba5eab61a98d5e29a64db8ddf4eaf5012103c95f6784faae20b6110b42d447aa29e59e927b16d2bdd10d23ba83b969f32d4e0b490800", "vin": [{"txinwitness": ["30440220083bbf1b7415290b19c0114f3854d99a63aa210e3c5cb3c76c007a9115cea32302202ad545e0f571161c14ae0533f97ccc34a3e6527dfb160461984b253d8ca3eea601", "02e3a53565a52513fc256695ba6bd6ec4c7db792fc728ff0410617c019544c60f1"], "sequence": 4294967294, "scriptSig": {"hex": "160014def9e4566b824ae9801f02c805dfc6a2267916bc", "asm": "0014def9e4566b824ae9801f02c805dfc6a2267916bc"}, "vout": 10, "txid": "99de130d8618597cc23a5329f39dbd7958da4a6f353fe943ded1e607efe75e30"}, {"txinwitness": ["3045022100d1306c519688876e0994dd43194c78beacb5b274109094e97229444fb1aa95ba022042491c765896877cef6e3a90f3ce055ce9ba5eab61a98d5e29a64db8ddf4eaf501", "03c95f6784faae20b6110b42d447aa29e59e927b16d2bdd10d23ba83b969f32d4e"], "sequence": 4294967294, "scriptSig": {"hex": "16001453e8ad3d693a6284ef727cbe0819db25fdb4ee4f", "asm": "001453e8ad3d693a6284ef727cbe0819db25fdb4ee4f"}, "vout": 0, "txid": "4814b7633b0446a2b4552d51e9b011beb51cd448ea3892e29a72af596ba4ad89"}], "txid": "5150b8a6029c74e8919065259cbf3a4e944d6a43c1321e81477fa446a8995ef4", "blocktime": 1537869901, "version": 2, "confirmations": 11522, "time": 1537869901, "locktime": 542987, "vsize": 259, "size": 421}