{"hash": "9ed42936f5a858f7bfcc5706666a72114f797564219539f93ebf6be1b175ea7e", "blockhash": "0000000000000000000baef3f32e3676a92c3b2e5da21b426e4f302fc371ce76", "vout": [{"scriptPubKey": {"reqSigs": 1, "hex": "a9148ca0ef95590039a925432bb3badf93ca5761d44d87", "addresses": ["3EWbKRLjXmCuBqq5Sb9LofgU4tWgYiZVsM"], "asm": "OP_HASH160 8ca0ef95590039a925432bb3badf93ca5761d44d OP_EQUAL", "type": "scripthash"}, "value": 0.01020433, "n": 0}, {"scriptPubKey": {"reqSigs": 1, "hex": "76a9141bf9ee99fa191c751c90dd0a63707d235c1cecc588ac", "addresses": ["13YvemBfdRfLknxQi2DCqFYYSvrixMVr7w"], "asm": "OP_DUP OP_HASH160 1bf9ee99fa191c751c90dd0a63707d235c1cecc5 OP_EQUALVERIFY OP_CHECKSIG", "type": "pubkeyhash"}, "value": 0.0027236, "n": 1}], "hex": "0200000000010226a0e5a5c78a431c4f1c7e7a34752c842f7a11a59f61cec9f2020b4bb0a9965a0000000017160014f8086ddb03c69839e9c45b872a1a911c4f42cf29feffffffeb1a69d313805d4653a4ba166093b2313a9f112080be1b638a9720c78ade495c01000000171600149b07b127b54a2c7cf434e3ef604e7ebf10565ea4feffffff0211920f000000000017a9148ca0ef95590039a925432bb3badf93ca5761d44d87e8270400000000001976a9141bf9ee99fa191c751c90dd0a63707d235c1cecc588ac02483045022100b94adc23f0a81c7183f4cba528320e10dbbc1d7ed527b40e9a731e4a3a775bf7022001067c417cb1f120f4eee60ba0cbc9395a1f020a9501d72c4caef6761121774a01210321fb1c0bb842ee72428d5c032b88e45fc6a4c46dbeab9fac40e47ec7e43f1c930248304502210094559520c4e315aac1fd74f0bc09947a31d9f716684d6daebbf18f75c91e70200220562b16339a34e07758b905f8a901faeb5a2369f72ad3ffcc3c3f8a36f27fb4ff012102f8b047548df565c6502aadbea64381bf504e8b3253aef231cc1d9ff879e1973a17490800", "vin": [{"txinwitness": ["3045022100b94adc23f0a81c7183f4cba528320e10dbbc1d7ed527b40e9a731e4a3a775bf7022001067c417cb1f120f4eee60ba0cbc9395a1f020a9501d72c4caef6761121774a01", "0321fb1c0bb842ee72428d5c032b88e45fc6a4c46dbeab9fac40e47ec7e43f1c93"], "sequence": 4294967294, "scriptSig": {"hex": "160014f8086ddb03c69839e9c45b872a1a911c4f42cf29", "asm": "0014f8086ddb03c69839e9c45b872a1a911c4f42cf29"}, "vout": 0, "txid": "5a96a9b04b0b02f2c9ce619fa5117a2f842c75347a7e1c4f1c438ac7a5e5a026"}, {"txinwitness": ["304502210094559520c4e315aac1fd74f0bc09947a31d9f716684d6daebbf18f75c91e70200220562b16339a34e07758b905f8a901faeb5a2369f72ad3ffcc3c3f8a36f27fb4ff01", "02f8b047548df565c6502aadbea64381bf504e8b3253aef231cc1d9ff879e1973a"], "sequence": 4294967294, "scriptSig": {"hex": "1600149b07b127b54a2c7cf434e3ef604e7ebf10565ea4", "asm": "00149b07b127b54a2c7cf434e3ef604e7ebf10565ea4"}, "vout": 1, "txid": "5c49de8ac720978a631bbe8020119f3a31b2936016baa453465d8013d3691aeb"}], "txid": "51518f2606ff7bbf2ae2b2d5a06565aaab95ada5facbbe1fbfd9b89622ee55e5", "blocktime": 1537876114, "version": 2, "confirmations": 11462, "time": 1537876114, "locktime": 542999, "vsize": 259, "size": 422}