{"hash": "51658dbf75d3e14ab624827d8c83115f85f563fd0963c974cf8497fa6c378c3c", "blockhash": "0000000000000000000dcc0f55137456b1a82d3642486a52398922ac4d620174", "vout": [{"scriptPubKey": {"reqSigs": 1, "hex": "76a91488087e49b0e8ce16d79a46564b2642d9e58230f188ac", "addresses": ["1DQH5DSuFk1xRJZFSFwgoaiHsEgzQXZp11"], "asm": "OP_DUP OP_HASH160 88087e49b0e8ce16d79a46564b2642d9e58230f1 OP_EQUALVERIFY OP_CHECKSIG", "type": "pubkeyhash"}, "value": 0.2, "n": 0}, {"scriptPubKey": {"reqSigs": 1, "hex": "76a914c317843a4f6a6bb693f486742d03ada42e7234e888ac", "addresses": ["1JnYwN4CpsEfynsAnQ9t3RzxaVwDjy98sF"], "asm": "OP_DUP OP_HASH160 c317843a4f6a6bb693f486742d03ada42e7234e8 OP_EQUALVERIFY OP_CHECKSIG", "type": "pubkeyhash"}, "value": 0.06699182, "n": 1}], "hex": "01000000043802b066f9608453d0b19cf70b08201130b17f24e236e839e52c4c4017d250a4510000006a47304402201e9806cf40e7417a70b7a1bd728a95e5a34757432acbe5bddfbf4062f5b9aa030220611852711fe031a9cc4e04d17a6f27bb9c9778653bcf109e80865ebad03ddd4a0121025a99e4c94fa5372624dcf2e4eaf6d146875d18b15ccc31e78038ee36c2869f66ffffffffbcd9c56cd0a1bc88c3d5f2112c9637f8612b9c74282e8f118378fb8e9b33fbb1010000006a47304402203d29b5a1f6ee3dc962555d586b1afed61be695187c22af42a2a4b86c0e7f312e022035c87a33ece4ae47573ef7ff83977fad73242534ee484f7a596f891d3a12d3af012103ee7ae177f7587e16793b0f8a53bbea6fb05eb093142713d59c7bdd2cc830ad93ffffffffd70539f5ec9db3a212c705c2d127bfd49a35876408598c538ea0fc836b4112a1000000006a47304402202da8f12f7209ae0694af4c8a91501dc3af6d869b5d9a324bbbd5bb0a7d328f8b02205ce4ceae92b4db5d03daa50983325a3799e754e9350076b0e3fb7e6ee75a9aaf0121033d5889038f409c062b44be913c11d3eb51d76ad3b8599f82838a1185b9ebc177ffffffff95ca50beeb6fef8198f93492207d703c5ddc832ec22d3189c04a12bc159dcd304c0000006b483045022100cedb6cd5bea72b44bbb9bf78afe50bffdfb517a8fc38e058db8dbf2388a368f602202257799dc55309fc0a0e87e8c9482e8c294279513f8d221b612d901ff099f36a0121025a99e4c94fa5372624dcf2e4eaf6d146875d18b15ccc31e78038ee36c2869f66ffffffff02002d3101000000001976a91488087e49b0e8ce16d79a46564b2642d9e58230f188acae386600000000001976a914c317843a4f6a6bb693f486742d03ada42e7234e888ac00000000", "vin": [{"sequence": 4294967295, "scriptSig": {"hex": "47304402201e9806cf40e7417a70b7a1bd728a95e5a34757432acbe5bddfbf4062f5b9aa030220611852711fe031a9cc4e04d17a6f27bb9c9778653bcf109e80865ebad03ddd4a0121025a99e4c94fa5372624dcf2e4eaf6d146875d18b15ccc31e78038ee36c2869f66", "asm": "304402201e9806cf40e7417a70b7a1bd728a95e5a34757432acbe5bddfbf4062f5b9aa030220611852711fe031a9cc4e04d17a6f27bb9c9778653bcf109e80865ebad03ddd4a[ALL] 025a99e4c94fa5372624dcf2e4eaf6d146875d18b15ccc31e78038ee36c2869f66"}, "vout": 81, "txid": "a450d217404c2ce539e836e2247fb1301120080bf79cb1d0538460f966b00238"}, {"sequence": 4294967295, "scriptSig": {"hex": "47304402203d29b5a1f6ee3dc962555d586b1afed61be695187c22af42a2a4b86c0e7f312e022035c87a33ece4ae47573ef7ff83977fad73242534ee484f7a596f891d3a12d3af012103ee7ae177f7587e16793b0f8a53bbea6fb05eb093142713d59c7bdd2cc830ad93", "asm": "304402203d29b5a1f6ee3dc962555d586b1afed61be695187c22af42a2a4b86c0e7f312e022035c87a33ece4ae47573ef7ff83977fad73242534ee484f7a596f891d3a12d3af[ALL] 03ee7ae177f7587e16793b0f8a53bbea6fb05eb093142713d59c7bdd2cc830ad93"}, "vout": 1, "txid": "b1fb339b8efb7883118f2e28749c2b61f837962c11f2d5c388bca1d06cc5d9bc"}, {"sequence": 4294967295, "scriptSig": {"hex": "47304402202da8f12f7209ae0694af4c8a91501dc3af6d869b5d9a324bbbd5bb0a7d328f8b02205ce4ceae92b4db5d03daa50983325a3799e754e9350076b0e3fb7e6ee75a9aaf0121033d5889038f409c062b44be913c11d3eb51d76ad3b8599f82838a1185b9ebc177", "asm": "304402202da8f12f7209ae0694af4c8a91501dc3af6d869b5d9a324bbbd5bb0a7d328f8b02205ce4ceae92b4db5d03daa50983325a3799e754e9350076b0e3fb7e6ee75a9aaf[ALL] 033d5889038f409c062b44be913c11d3eb51d76ad3b8599f82838a1185b9ebc177"}, "vout": 0, "txid": "a112416b83fca08e538c59086487359ad4bf27d1c205c712a2b39decf53905d7"}, {"sequence": 4294967295, "scriptSig": {"hex": "483045022100cedb6cd5bea72b44bbb9bf78afe50bffdfb517a8fc38e058db8dbf2388a368f602202257799dc55309fc0a0e87e8c9482e8c294279513f8d221b612d901ff099f36a0121025a99e4c94fa5372624dcf2e4eaf6d146875d18b15ccc31e78038ee36c2869f66", "asm": "3045022100cedb6cd5bea72b44bbb9bf78afe50bffdfb517a8fc38e058db8dbf2388a368f602202257799dc55309fc0a0e87e8c9482e8c294279513f8d221b612d901ff099f36a[ALL] 025a99e4c94fa5372624dcf2e4eaf6d146875d18b15ccc31e78038ee36c2869f66"}, "vout": 76, "txid": "30cd9d15bc124ac089312dc22e83dc5d3c707d209234f99881ef6febbe50ca95"}], "txid": "51658dbf75d3e14ab624827d8c83115f85f563fd0963c974cf8497fa6c378c3c", "blocktime": 1537870268, "version": 1, "confirmations": 11516, "time": 1537870268, "locktime": 0, "vsize": 667, "size": 667}