{"hash": "517282b9b8f4add723d6cbfb50db89717bca18f7e2bd4962846c68db2a7de291", "blockhash": "0000000000000000001f0ddff1eddb255c1121bcd4da4f1bc9a0da00cae72433", "vout": [{"scriptPubKey": {"reqSigs": 1, "hex": "76a9141ce30ea48f923070933a302ab9107459c082a1a888ac", "addresses": ["13djvakn66pWtedoQQLnxHLN2asJ2DYs4Y"], "asm": "OP_DUP OP_HASH160 1ce30ea48f923070933a302ab9107459c082a1a8 OP_EQUALVERIFY OP_CHECKSIG", "type": "pubkeyhash"}, "value": 0.02722848, "n": 0}], "hex": "010000000180068c1b220f4c4d9dfe82339d88cdcb06e57a6ec6d81bf6346cd864c217b883010000006b483045022100a58159b1cc6611e7aa6de66c4de87bcc33564bdba41da3358fa41bb2d6b2ed1f02205661e47ac55806c03d14700583740f1e10cad6ef9afe39cba01a27daeac009430121028fd7bf9010b6878c19f08910ffe1a35b9bf58224ff01b20bed13d07e0731b061fdffffff01208c2900000000001976a9141ce30ea48f923070933a302ab9107459c082a1a888ac11490800", "vin": [{"sequence": 4294967293, "scriptSig": {"hex": "483045022100a58159b1cc6611e7aa6de66c4de87bcc33564bdba41da3358fa41bb2d6b2ed1f02205661e47ac55806c03d14700583740f1e10cad6ef9afe39cba01a27daeac009430121028fd7bf9010b6878c19f08910ffe1a35b9bf58224ff01b20bed13d07e0731b061", "asm": "3045022100a58159b1cc6611e7aa6de66c4de87bcc33564bdba41da3358fa41bb2d6b2ed1f02205661e47ac55806c03d14700583740f1e10cad6ef9afe39cba01a27daeac00943[ALL] 028fd7bf9010b6878c19f08910ffe1a35b9bf58224ff01b20bed13d07e0731b061"}, "vout": 1, "txid": "83b817c264d86c34f61bd8c66e7ae506cbcd889d3382fe9d4d4c0f221b8c0680"}], "txid": "517282b9b8f4add723d6cbfb50db89717bca18f7e2bd4962846c68db2a7de291", "blocktime": 1537872018, "version": 1, "confirmations": 11489, "time": 1537872018, "locktime": 542993, "vsize": 192, "size": 192}