{"hash": "535419d30fac0e77ff714996ab3643fbd83c201852e15898632edd7b5b90d9ff", "blockhash": "0000000000000000001e0dab787dd257d1dbfcb92a98c2207d5e1078be1f4165", "vout": [{"scriptPubKey": {"reqSigs": 1, "hex": "a914b419c467d62fc1f3bf8cdf213beecac45c2b4fc587", "addresses": ["3J7JRQkbKQfjgrfM35MybHxn4Vuexw4mX1"], "asm": "OP_HASH160 b419c467d62fc1f3bf8cdf213beecac45c2b4fc5 OP_EQUAL", "type": "scripthash"}, "value": 0.01022271, "n": 0}, {"scriptPubKey": {"reqSigs": 1, "hex": "00148f672fda45890cf52ecab981f2baa8d79352573e", "addresses": ["bc1q3anjlkj93yx02tk2hxql9w4g67f4y4e7gs4kw4"], "asm": "0 8f672fda45890cf52ecab981f2baa8d79352573e", "type": "witness_v0_keyhash"}, "value": 2.809e-05, "n": 1}], "hex": "0100000000010116bac8c74257d4b58119f93b0633c1f96aabca3965bae5b577ef90a305647eaa01000000171600147b8f136b77bc5c631ca4d016c48cdf16148306b5ffffffff023f990f000000000017a914b419c467d62fc1f3bf8cdf213beecac45c2b4fc587f90a0000000000001600148f672fda45890cf52ecab981f2baa8d79352573e02483045022100cb43eb9f439fb20e7f4b1b00a2983e367061fcd1d433604b84584a341f645614022065998f66c15d792235231f3a62c71ef6fc3f626cfb35085e91fe23a51a1abb38012103d8e26bd91d411f79c0b7303d35f35cd4bdcfffa223dec21262b726678a3869c000000000", "vin": [{"txinwitness": ["3045022100cb43eb9f439fb20e7f4b1b00a2983e367061fcd1d433604b84584a341f645614022065998f66c15d792235231f3a62c71ef6fc3f626cfb35085e91fe23a51a1abb3801", "03d8e26bd91d411f79c0b7303d35f35cd4bdcfffa223dec21262b726678a3869c0"], "sequence": 4294967295, "scriptSig": {"hex": "1600147b8f136b77bc5c631ca4d016c48cdf16148306b5", "asm": "00147b8f136b77bc5c631ca4d016c48cdf16148306b5"}, "vout": 1, "txid": "aa7e6405a390ef77b5e5ba6539caab6af9c133063bf91981b5d45742c7c8ba16"}], "txid": "51766688405db6a5e970bc7fd9d792495123ba1a481f037e0caae143975cf541", "blocktime": 1537872475, "version": 1, "confirmations": 11486, "time": 1537872475, "locktime": 0, "vsize": 165, "size": 247}