{"hash": "5177ce86be9052b9ff914f2904ac95aca4d833e42f79fc9e11681f18877edc49", "blockhash": "0000000000000000001f76057863aec43deb6fa401d9628bb513d65a8098bfab", "vout": [{"scriptPubKey": {"reqSigs": 1, "hex": "76a914fa1df273c96c005e17a40b8c53fb9c9ec217c5b288ac", "addresses": ["1PoVoibVfpie1LtJLQgAqJP9GV615phPs4"], "asm": "OP_DUP OP_HASH160 fa1df273c96c005e17a40b8c53fb9c9ec217c5b2 OP_EQUALVERIFY OP_CHECKSIG", "type": "pubkeyhash"}, "value": 0.10334993, "n": 0}, {"scriptPubKey": {"reqSigs": 1, "hex": "a914d3e4f11800f2031240039b74bac027c6ff799dbd87", "addresses": ["3M1QmAztfNMNnFSCh8rDaxGWCyQNRPR4fe"], "asm": "OP_HASH160 d3e4f11800f2031240039b74bac027c6ff799dbd OP_EQUAL", "type": "scripthash"}, "value": 0.505, "n": 1}], "hex": "0100000008f567741366bbce8569efbd0fe1cb4283abacf1d956783643fcb15adba878e219980000006b48304502210090801662c7ce324d573d058cbe87df48de9acc2d019a3eb3b90f70e23565977402202bbbbbb2a66c6c2774821418d272b46d5ae92723b7aa46586b9465fbb891c3b0012102e8c83ad9c71a41d296f05f1aa5648f369eb2c6d06a8af51bc779fee07f4ae385ffffffffef90c01779610ded6ec07f32d04772d02e766ecd6eba7fde7592487cc8d068468f0000006a47304402205f03bb9d027244cfaf131d1475881e566ef08d6c6238fe22771748a160c6f00202200eb37dabd7d7e9107fd0aabd33de335f81bfa107c03c6675db0bf1c5b3c647de012102e8c83ad9c71a41d296f05f1aa5648f369eb2c6d06a8af51bc779fee07f4ae385ffffffff9883addc8b06a68ed458cf0667a62fc01ddecf005891669f00053da44c93444c010000006b483045022100b44d28def587c2cd9e8d3a0fadcc8d217eb8912e4f9fa96756e9363135cace990220115f70769b7d8a9afa7a74ba6e1365968b71627157ff0cdf3ca07b139491c78a012102e8c83ad9c71a41d296f05f1aa5648f369eb2c6d06a8af51bc779fee07f4ae385ffffffff3b26985ec5cb7ce783cad1b6258f7de3a46c79a10e19ee7380bd8d51c4815d66010000006a47304402204b0057932ef1a98448bbeab6b20e27bf81455f810f00c1a265d3d8aea65c2e2e02202c5c46a3715fdf960c06d069312b08c84cdd6123a4519494346d84684185896b012102e8c83ad9c71a41d296f05f1aa5648f369eb2c6d06a8af51bc779fee07f4ae385ffffffff3128682c19f86637795eae03f5e05a3b7fa8f24635d7cd4e94595e470f0d4b9a010000006b483045022100cb2e681e238cedc3139525db4a73e91e20b41b97ef26335dbce0c6f97654430e02201fe8bf3137f40cf738ddea1805121c61078aca5729be9d3ea95938851b24691d012102e8c83ad9c71a41d296f05f1aa5648f369eb2c6d06a8af51bc779fee07f4ae385ffffffff7622f7299891787349d9605b49b2fa8e6b4bc6fa1f601e1198f0792fee58f69a3b0000006b483045022100eaec8698cd4970e8c04e49685d7c7dff0efa859e7ee0e78bf0cf60a2d03669c802205292bed49df72f213f4635209e9732d4bc633f1f9358c41b82bd09394c208c55012102e8c83ad9c71a41d296f05f1aa5648f369eb2c6d06a8af51bc779fee07f4ae385ffffffff97799c1b2d5baf6bd4d53e3417223b621e49ea05ae5900fb421c17711f1e92cf440000006b48304502210095b4f5eee8d95472094667ca993692a4eaf2f4eca7a1f614f4e895e555ca9cf1022040bf94c8f1d4a022cc135e7cb55e35703ce9532dbd22761b4f34d68fa4f6b7e3012102e8c83ad9c71a41d296f05f1aa5648f369eb2c6d06a8af51bc779fee07f4ae385ffffffff2345cab91c3c944c4f043b1c144a3903fcded090c407bc32879df36dd103a4ee0c0000006a47304402204a820d03b2e897888edb27d1c598cc101001aa2b3f32d8f32ebafceab2acf6a102204095213e5e99d4c680dece370c46e9cef2e528560fe7e2b68175af701e0d77de012102e8c83ad9c71a41d296f05f1aa5648f369eb2c6d06a8af51bc779fee07f4ae385ffffffff0211b39d00000000001976a914fa1df273c96c005e17a40b8c53fb9c9ec217c5b288aca09102030000000017a914d3e4f11800f2031240039b74bac027c6ff799dbd8700000000", "vin": [{"sequence": 4294967295, "scriptSig": {"hex": "48304502210090801662c7ce324d573d058cbe87df48de9acc2d019a3eb3b90f70e23565977402202bbbbbb2a66c6c2774821418d272b46d5ae92723b7aa46586b9465fbb891c3b0012102e8c83ad9c71a41d296f05f1aa5648f369eb2c6d06a8af51bc779fee07f4ae385", "asm": "304502210090801662c7ce324d573d058cbe87df48de9acc2d019a3eb3b90f70e23565977402202bbbbbb2a66c6c2774821418d272b46d5ae92723b7aa46586b9465fbb891c3b0[ALL] 02e8c83ad9c71a41d296f05f1aa5648f369eb2c6d06a8af51bc779fee07f4ae385"}, "vout": 152, "txid": "19e278a8db5ab1fc43367856d9f1acab8342cbe10fbdef6985cebb66137467f5"}, {"sequence": 4294967295, "scriptSig": {"hex": "47304402205f03bb9d027244cfaf131d1475881e566ef08d6c6238fe22771748a160c6f00202200eb37dabd7d7e9107fd0aabd33de335f81bfa107c03c6675db0bf1c5b3c647de012102e8c83ad9c71a41d296f05f1aa5648f369eb2c6d06a8af51bc779fee07f4ae385", "asm": "304402205f03bb9d027244cfaf131d1475881e566ef08d6c6238fe22771748a160c6f00202200eb37dabd7d7e9107fd0aabd33de335f81bfa107c03c6675db0bf1c5b3c647de[ALL] 02e8c83ad9c71a41d296f05f1aa5648f369eb2c6d06a8af51bc779fee07f4ae385"}, "vout": 143, "txid": "4668d0c87c489275de7fba6ecd6e762ed07247d0327fc06eed0d617917c090ef"}, {"sequence": 4294967295, "scriptSig": {"hex": "483045022100b44d28def587c2cd9e8d3a0fadcc8d217eb8912e4f9fa96756e9363135cace990220115f70769b7d8a9afa7a74ba6e1365968b71627157ff0cdf3ca07b139491c78a012102e8c83ad9c71a41d296f05f1aa5648f369eb2c6d06a8af51bc779fee07f4ae385", "asm": "3045022100b44d28def587c2cd9e8d3a0fadcc8d217eb8912e4f9fa96756e9363135cace990220115f70769b7d8a9afa7a74ba6e1365968b71627157ff0cdf3ca07b139491c78a[ALL] 02e8c83ad9c71a41d296f05f1aa5648f369eb2c6d06a8af51bc779fee07f4ae385"}, "vout": 1, "txid": "4c44934ca43d05009f66915800cfde1dc02fa66706cf58d48ea6068bdcad8398"}, {"sequence": 4294967295, "scriptSig": {"hex": "47304402204b0057932ef1a98448bbeab6b20e27bf81455f810f00c1a265d3d8aea65c2e2e02202c5c46a3715fdf960c06d069312b08c84cdd6123a4519494346d84684185896b012102e8c83ad9c71a41d296f05f1aa5648f369eb2c6d06a8af51bc779fee07f4ae385", "asm": "304402204b0057932ef1a98448bbeab6b20e27bf81455f810f00c1a265d3d8aea65c2e2e02202c5c46a3715fdf960c06d069312b08c84cdd6123a4519494346d84684185896b[ALL] 02e8c83ad9c71a41d296f05f1aa5648f369eb2c6d06a8af51bc779fee07f4ae385"}, "vout": 1, "txid": "665d81c4518dbd8073ee190ea1796ca4e37d8f25b6d1ca83e77ccbc55e98263b"}, {"sequence": 4294967295, "scriptSig": {"hex": "483045022100cb2e681e238cedc3139525db4a73e91e20b41b97ef26335dbce0c6f97654430e02201fe8bf3137f40cf738ddea1805121c61078aca5729be9d3ea95938851b24691d012102e8c83ad9c71a41d296f05f1aa5648f369eb2c6d06a8af51bc779fee07f4ae385", "asm": "3045022100cb2e681e238cedc3139525db4a73e91e20b41b97ef26335dbce0c6f97654430e02201fe8bf3137f40cf738ddea1805121c61078aca5729be9d3ea95938851b24691d[ALL] 02e8c83ad9c71a41d296f05f1aa5648f369eb2c6d06a8af51bc779fee07f4ae385"}, "vout": 1, "txid": "9a4b0d0f475e59944ecdd73546f2a87f3b5ae0f503ae5e793766f8192c682831"}, {"sequence": 4294967295, "scriptSig": {"hex": "483045022100eaec8698cd4970e8c04e49685d7c7dff0efa859e7ee0e78bf0cf60a2d03669c802205292bed49df72f213f4635209e9732d4bc633f1f9358c41b82bd09394c208c55012102e8c83ad9c71a41d296f05f1aa5648f369eb2c6d06a8af51bc779fee07f4ae385", "asm": "3045022100eaec8698cd4970e8c04e49685d7c7dff0efa859e7ee0e78bf0cf60a2d03669c802205292bed49df72f213f4635209e9732d4bc633f1f9358c41b82bd09394c208c55[ALL] 02e8c83ad9c71a41d296f05f1aa5648f369eb2c6d06a8af51bc779fee07f4ae385"}, "vout": 59, "txid": "9af658ee2f79f098111e601ffac64b6b8efab2495b60d9497378919829f72276"}, {"sequence": 4294967295, "scriptSig": {"hex": "48304502210095b4f5eee8d95472094667ca993692a4eaf2f4eca7a1f614f4e895e555ca9cf1022040bf94c8f1d4a022cc135e7cb55e35703ce9532dbd22761b4f34d68fa4f6b7e3012102e8c83ad9c71a41d296f05f1aa5648f369eb2c6d06a8af51bc779fee07f4ae385", "asm": "304502210095b4f5eee8d95472094667ca993692a4eaf2f4eca7a1f614f4e895e555ca9cf1022040bf94c8f1d4a022cc135e7cb55e35703ce9532dbd22761b4f34d68fa4f6b7e3[ALL] 02e8c83ad9c71a41d296f05f1aa5648f369eb2c6d06a8af51bc779fee07f4ae385"}, "vout": 68, "txid": "cf921e1f71171c42fb0059ae05ea491e623b2217343ed5d46baf5b2d1b9c7997"}, {"sequence": 4294967295, "scriptSig": {"hex": "47304402204a820d03b2e897888edb27d1c598cc101001aa2b3f32d8f32ebafceab2acf6a102204095213e5e99d4c680dece370c46e9cef2e528560fe7e2b68175af701e0d77de012102e8c83ad9c71a41d296f05f1aa5648f369eb2c6d06a8af51bc779fee07f4ae385", "asm": "304402204a820d03b2e897888edb27d1c598cc101001aa2b3f32d8f32ebafceab2acf6a102204095213e5e99d4c680dece370c46e9cef2e528560fe7e2b68175af701e0d77de[ALL] 02e8c83ad9c71a41d296f05f1aa5648f369eb2c6d06a8af51bc779fee07f4ae385"}, "vout": 12, "txid": "eea403d16df39d8732bc07c490d0defc03394a141c3b044f4c943c1cb9ca4523"}], "txid": "5177ce86be9052b9ff914f2904ac95aca4d833e42f79fc9e11681f18877edc49", "blocktime": 1537873891, "version": 1, "confirmations": 11478, "time": 1537873891, "locktime": 0, "vsize": 1257, "size": 1257}