{"hash": "517afa2d18ce09510ea68f52938a67c072fc2658708edd9410fb6071ab54ff33", "blockhash": "000000000000000000022b45ed06c6f4ccd3cf7fb5ba4856ebd2e58215665228", "vout": [{"scriptPubKey": {"reqSigs": 1, "hex": "76a914e2b8f9eaa0b53fe433f280f346e62676fc3135da88ac", "addresses": ["1MfoJjDeH2NkzvwgVJwpLXiHgnHrFcPfAj"], "asm": "OP_DUP OP_HASH160 e2b8f9eaa0b53fe433f280f346e62676fc3135da OP_EQUALVERIFY OP_CHECKSIG", "type": "pubkeyhash"}, "value": 0.18913953, "n": 0}, {"scriptPubKey": {"reqSigs": 1, "hex": "76a914d57b07631748e4a8b7aa81a9b6f0de9f68a5237f88ac", "addresses": ["1LTnK4AoQZkcWR2DRtKEZpZJDVfB7HxPvj"], "asm": "OP_DUP OP_HASH160 d57b07631748e4a8b7aa81a9b6f0de9f68a5237f OP_EQUALVERIFY OP_CHECKSIG", "type": "pubkeyhash"}, "value": 0.001, "n": 1}, {"scriptPubKey": {"reqSigs": 1, "hex": "76a914239e9bd4a72956c54d5b02d6911a458919108fca88ac", "addresses": ["14FLf3MroYYspgD6cPkLG3VuBUiCcQbTu8"], "asm": "OP_DUP OP_HASH160 239e9bd4a72956c54d5b02d6911a458919108fca OP_EQUALVERIFY OP_CHECKSIG", "type": "pubkeyhash"}, "value": 0.001, "n": 2}], "hex": "0100000009135834eb40f26976d48943a507ba9e740216c356ce4381a0deb6c993ec7b6969000000006a47304402200fbaa9a155d07da5a3e22db1f3273ec0b453454f9ba27a4b555994c078ad12fb02200c7b34b4a6df10b4cef06c4edc7643b09205bb5922c4712246bd1c1a22cbc8860121027c43d63aa4fc0b4bf883b198b4d63b20b5c21b0343e8e5e14609c2091442a283ffffffff14a7c80c198817f68ff7e2165103f09ad71c95720c8e806072417d8be1cc0a3a010000006b4830450221009140c1198375dad58fea48c237bfb6c23b59fb5f3b8fe95bda1cc25373a46e1c02205d70c4ba47d4bb566e37156a2435f17968bcd755631ce633cf77730f531eb439012102bc2c890048aa969e3ee5628095937ee7d5eaede38051556934ff705d1bbeda9fffffffff1cf87424dbe4ea2de86e31cb5dd4e2e4d0d0b83e42a7fb3230797785958697ae010000006a47304402201586373bd6e4e1cd3fea5f8c9c5e2f9d851d06f7c50cd43b89d49ab9d4a0d9a702205255731784f73064be442ec710d7970b598887c3ff52d2261796da023fcc4e34012103e7fd6af39df26ad1af5f183d1ab43bed776a914abbaaba095ebff83011d8db15ffffffff1cf87424dbe4ea2de86e31cb5dd4e2e4d0d0b83e42a7fb3230797785958697ae020000006a47304402200ea5b00a7cbcc99da295b51e33c9b02db0c46dc3d9c841122795b45136fe562302204ac252272ccae4dbda50daa53e29daf30e76559fc3d639a3c49033848394312b012103873f168d3a6ac5d10470b4f1d52ff0108fd22cd2a3c5a274be4983f01023264affffffff2bcf7a4cf9a70166293a34ffdc285f03fdf2aaf3a13f3c9c27872ae403923701010000006b483045022100d88d3eccd097f821da52d64f51fa56b29e0f79f9230a3e7bf5c4388c882e520c0220379363f8e79bd9481abb65dfa02dd034f6e5e60e0f92c2c6ff396f599f57bd5b012103e7fd6af39df26ad1af5f183d1ab43bed776a914abbaaba095ebff83011d8db15ffffffff79e19d22727f3399fcb6cff610903a99f6e59b0dcb661171180af5c055b93539000000006a4730440220637964357c7e6ef8241fcc12769be725abc48304bcfb4b922fb155ce9d8755c8022005ccdafe0304e37af581262bd3bdc32ba43ee97c33df06996409a7f73f48c7670121036ae9f7a211432d2666ec2a3038de3b374bc92215529a4cc73e9f07e323f73747ffffffff7c33373817a3c9012c071c195d1b433b1bac6a7481765b02289ecd2aa3994405020000006a4730440220777519a169c0857728893a3e772a78de64414baeb472eaf85ac426ca7a68326502203aef7c94d5290d1be288483e660268e527917f2329c1b5028979af4635ffcce1012103873f168d3a6ac5d10470b4f1d52ff0108fd22cd2a3c5a274be4983f01023264affffffff96ccef16ceb1ecf421472609684660a18d0e2df7a4e57e9c16c274eeb1d0ff91020000006b483045022100ca290b86bc7a9917dd9466eca921b50ba68f3b132818e34dd51197d419efdf170220577a5d034a89ac1f63ad2405c146801593ee7b9bc33ac5c58680b80052eb6e94012103873f168d3a6ac5d10470b4f1d52ff0108fd22cd2a3c5a274be4983f01023264affffffffcd207bb0d1312eaf70072c6932de909286df30287f4b69f80dbc1c42a3873650010000006b483045022100d3fd3bf910d94ba9674679c09cc05883a91a2293cf688beb732e14bce4e69b64022010e78df7a595e4829014f746a401efcaf54d11e7164317839c46a5ebecc19efd012103873f168d3a6ac5d10470b4f1d52ff0108fd22cd2a3c5a274be4983f01023264affffffff03a19a2001000000001976a914e2b8f9eaa0b53fe433f280f346e62676fc3135da88aca0860100000000001976a914d57b07631748e4a8b7aa81a9b6f0de9f68a5237f88aca0860100000000001976a914239e9bd4a72956c54d5b02d6911a458919108fca88ac00000000", "vin": [{"sequence": 4294967295, "scriptSig": {"hex": "47304402200fbaa9a155d07da5a3e22db1f3273ec0b453454f9ba27a4b555994c078ad12fb02200c7b34b4a6df10b4cef06c4edc7643b09205bb5922c4712246bd1c1a22cbc8860121027c43d63aa4fc0b4bf883b198b4d63b20b5c21b0343e8e5e14609c2091442a283", "asm": "304402200fbaa9a155d07da5a3e22db1f3273ec0b453454f9ba27a4b555994c078ad12fb02200c7b34b4a6df10b4cef06c4edc7643b09205bb5922c4712246bd1c1a22cbc886[ALL] 027c43d63aa4fc0b4bf883b198b4d63b20b5c21b0343e8e5e14609c2091442a283"}, "vout": 0, "txid": "69697bec93c9b6dea08143ce56c31602749eba07a54389d47669f240eb345813"}, {"sequence": 4294967295, "scriptSig": {"hex": "4830450221009140c1198375dad58fea48c237bfb6c23b59fb5f3b8fe95bda1cc25373a46e1c02205d70c4ba47d4bb566e37156a2435f17968bcd755631ce633cf77730f531eb439012102bc2c890048aa969e3ee5628095937ee7d5eaede38051556934ff705d1bbeda9f", "asm": "30450221009140c1198375dad58fea48c237bfb6c23b59fb5f3b8fe95bda1cc25373a46e1c02205d70c4ba47d4bb566e37156a2435f17968bcd755631ce633cf77730f531eb439[ALL] 02bc2c890048aa969e3ee5628095937ee7d5eaede38051556934ff705d1bbeda9f"}, "vout": 1, "txid": "3a0acce18b7d417260808e0c72951cd79af0035116e2f78ff61788190cc8a714"}, {"sequence": 4294967295, "scriptSig": {"hex": "47304402201586373bd6e4e1cd3fea5f8c9c5e2f9d851d06f7c50cd43b89d49ab9d4a0d9a702205255731784f73064be442ec710d7970b598887c3ff52d2261796da023fcc4e34012103e7fd6af39df26ad1af5f183d1ab43bed776a914abbaaba095ebff83011d8db15", "asm": "304402201586373bd6e4e1cd3fea5f8c9c5e2f9d851d06f7c50cd43b89d49ab9d4a0d9a702205255731784f73064be442ec710d7970b598887c3ff52d2261796da023fcc4e34[ALL] 03e7fd6af39df26ad1af5f183d1ab43bed776a914abbaaba095ebff83011d8db15"}, "vout": 1, "txid": "ae9786958577793032fba7423eb8d0d0e4e2d45dcb316ee82deae4db2474f81c"}, {"sequence": 4294967295, "scriptSig": {"hex": "47304402200ea5b00a7cbcc99da295b51e33c9b02db0c46dc3d9c841122795b45136fe562302204ac252272ccae4dbda50daa53e29daf30e76559fc3d639a3c49033848394312b012103873f168d3a6ac5d10470b4f1d52ff0108fd22cd2a3c5a274be4983f01023264a", "asm": "304402200ea5b00a7cbcc99da295b51e33c9b02db0c46dc3d9c841122795b45136fe562302204ac252272ccae4dbda50daa53e29daf30e76559fc3d639a3c49033848394312b[ALL] 03873f168d3a6ac5d10470b4f1d52ff0108fd22cd2a3c5a274be4983f01023264a"}, "vout": 2, "txid": "ae9786958577793032fba7423eb8d0d0e4e2d45dcb316ee82deae4db2474f81c"}, {"sequence": 4294967295, "scriptSig": {"hex": "483045022100d88d3eccd097f821da52d64f51fa56b29e0f79f9230a3e7bf5c4388c882e520c0220379363f8e79bd9481abb65dfa02dd034f6e5e60e0f92c2c6ff396f599f57bd5b012103e7fd6af39df26ad1af5f183d1ab43bed776a914abbaaba095ebff83011d8db15", "asm": "3045022100d88d3eccd097f821da52d64f51fa56b29e0f79f9230a3e7bf5c4388c882e520c0220379363f8e79bd9481abb65dfa02dd034f6e5e60e0f92c2c6ff396f599f57bd5b[ALL] 03e7fd6af39df26ad1af5f183d1ab43bed776a914abbaaba095ebff83011d8db15"}, "vout": 1, "txid": "01379203e42a87279c3c3fa1f3aaf2fd035f28dcff343a296601a7f94c7acf2b"}, {"sequence": 4294967295, "scriptSig": {"hex": "4730440220637964357c7e6ef8241fcc12769be725abc48304bcfb4b922fb155ce9d8755c8022005ccdafe0304e37af581262bd3bdc32ba43ee97c33df06996409a7f73f48c7670121036ae9f7a211432d2666ec2a3038de3b374bc92215529a4cc73e9f07e323f73747", "asm": "30440220637964357c7e6ef8241fcc12769be725abc48304bcfb4b922fb155ce9d8755c8022005ccdafe0304e37af581262bd3bdc32ba43ee97c33df06996409a7f73f48c767[ALL] 036ae9f7a211432d2666ec2a3038de3b374bc92215529a4cc73e9f07e323f73747"}, "vout": 0, "txid": "3935b955c0f50a18711166cb0d9be5f6993a9010f6cfb6fc99337f72229de179"}, {"sequence": 4294967295, "scriptSig": {"hex": "4730440220777519a169c0857728893a3e772a78de64414baeb472eaf85ac426ca7a68326502203aef7c94d5290d1be288483e660268e527917f2329c1b5028979af4635ffcce1012103873f168d3a6ac5d10470b4f1d52ff0108fd22cd2a3c5a274be4983f01023264a", "asm": "30440220777519a169c0857728893a3e772a78de64414baeb472eaf85ac426ca7a68326502203aef7c94d5290d1be288483e660268e527917f2329c1b5028979af4635ffcce1[ALL] 03873f168d3a6ac5d10470b4f1d52ff0108fd22cd2a3c5a274be4983f01023264a"}, "vout": 2, "txid": "054499a32acd9e28025b7681746aac1b3b431b5d191c072c01c9a3173837337c"}, {"sequence": 4294967295, "scriptSig": {"hex": "483045022100ca290b86bc7a9917dd9466eca921b50ba68f3b132818e34dd51197d419efdf170220577a5d034a89ac1f63ad2405c146801593ee7b9bc33ac5c58680b80052eb6e94012103873f168d3a6ac5d10470b4f1d52ff0108fd22cd2a3c5a274be4983f01023264a", "asm": "3045022100ca290b86bc7a9917dd9466eca921b50ba68f3b132818e34dd51197d419efdf170220577a5d034a89ac1f63ad2405c146801593ee7b9bc33ac5c58680b80052eb6e94[ALL] 03873f168d3a6ac5d10470b4f1d52ff0108fd22cd2a3c5a274be4983f01023264a"}, "vout": 2, "txid": "91ffd0b1ee74c2169c7ee5a4f72d0e8da160466809264721f4ecb1ce16efcc96"}, {"sequence": 4294967295, "scriptSig": {"hex": "483045022100d3fd3bf910d94ba9674679c09cc05883a91a2293cf688beb732e14bce4e69b64022010e78df7a595e4829014f746a401efcaf54d11e7164317839c46a5ebecc19efd012103873f168d3a6ac5d10470b4f1d52ff0108fd22cd2a3c5a274be4983f01023264a", "asm": "3045022100d3fd3bf910d94ba9674679c09cc05883a91a2293cf688beb732e14bce4e69b64022010e78df7a595e4829014f746a401efcaf54d11e7164317839c46a5ebecc19efd[ALL] 03873f168d3a6ac5d10470b4f1d52ff0108fd22cd2a3c5a274be4983f01023264a"}, "vout": 1, "txid": "503687a3421cbc0df8694b7f2830df869290de32692c0770af2e31d1b07b20cd"}], "txid": "517afa2d18ce09510ea68f52938a67c072fc2658708edd9410fb6071ab54ff33", "blocktime": 1537869901, "version": 1, "confirmations": 11522, "time": 1537869901, "locktime": 0, "vsize": 1439, "size": 1439}