{"hash": "3db543ad50e980201a6bd983decdd23cbddd6b2f2ba7cbd98fd7b6e7cd7039b7", "blockhash": "0000000000000000001e0dab787dd257d1dbfcb92a98c2207d5e1078be1f4165", "vout": [{"scriptPubKey": {"reqSigs": 1, "hex": "a91437aef744cb1ae7a9e099027e769a251e4799fb4087", "addresses": ["36mSgwM77zXdF5jRsPLKpqa2q3rSvapUHK"], "asm": "OP_HASH160 37aef744cb1ae7a9e099027e769a251e4799fb40 OP_EQUAL", "type": "scripthash"}, "value": 0.01000064, "n": 0}, {"scriptPubKey": {"reqSigs": 1, "hex": "76a9146f92d480e7cfb711b84569bf96d567c12d56dc1288ac", "addresses": ["1BAwuEA1eQeJSmLKC4RjHk4TudD1BaZ6sZ"], "asm": "OP_DUP OP_HASH160 6f92d480e7cfb711b84569bf96d567c12d56dc12 OP_EQUALVERIFY OP_CHECKSIG", "type": "pubkeyhash"}, "value": 0.0259, "n": 1}], "hex": "020000000001014140fccbbc25716d5714fc856065366ed9930a03ffb4706ab950201e7c6c37800200000017160014cf35537563fe6228536d9c953247bb6d9aaadcc0feffffff0280420f000000000017a91437aef744cb1ae7a9e099027e769a251e4799fb408730852700000000001976a9146f92d480e7cfb711b84569bf96d567c12d56dc1288ac024830450221008747de7d8d2cd5e0f6926fd87b2dfa4cef0b326641fc3df3396d8d314d26507a02200392c43045a4b4030e29a4939d23e9dd92aac73c28ed08539aab9a2992f2f9f4012102e0873acab1554db38d56f828bd4ced60a1b5bf6eb8866e0447c6239021aded3f12490800", "vin": [{"txinwitness": ["30450221008747de7d8d2cd5e0f6926fd87b2dfa4cef0b326641fc3df3396d8d314d26507a02200392c43045a4b4030e29a4939d23e9dd92aac73c28ed08539aab9a2992f2f9f401", "02e0873acab1554db38d56f828bd4ced60a1b5bf6eb8866e0447c6239021aded3f"], "sequence": 4294967294, "scriptSig": {"hex": "160014cf35537563fe6228536d9c953247bb6d9aaadcc0", "asm": "0014cf35537563fe6228536d9c953247bb6d9aaadcc0"}, "vout": 2, "txid": "80376c7c1e2050b96a70b4ff030a93d96e36656085fc14576d7125bccbfc4041"}], "txid": "5183b1df8d9eca15c211472530ec67acc78c080066719b2f6f3318e8f18a72fa", "blocktime": 1537872475, "version": 2, "confirmations": 11486, "time": 1537872475, "locktime": 542994, "vsize": 168, "size": 250}