{"hash": "51830a7ae9656eeea621228e8bc407a03b2be9a4ee7c58e4eaf98cad7c102ec3", "blockhash": "0000000000000000001e0dab787dd257d1dbfcb92a98c2207d5e1078be1f4165", "vout": [{"scriptPubKey": {"reqSigs": 1, "hex": "76a914636cd534b9e1de796bc9da84719125d2e1b9a32288ac", "addresses": ["1A4iGq6TofzLirpSSas8RKsxvUyALYypb2"], "asm": "OP_DUP OP_HASH160 636cd534b9e1de796bc9da84719125d2e1b9a322 OP_EQUALVERIFY OP_CHECKSIG", "type": "pubkeyhash"}, "value": 0.01598723, "n": 0}], "hex": "010000000174ffbe18baf012d246c63f5cb3b97fe1b85165290899acae30772963ed45ed61010000006b483045022100e774d6e245973c7039c45f0029867155a329d22cf322ca9c156727601dce487002205e27bf28734a45bfb31cd8c6eeaf76673567502ab51a7d98623615a1219ee2fa012102602512323cc6a59b0f52a716ce6bc2e88b83354d76d5d725bdf570f3808fef1dffffffff0103651800000000001976a914636cd534b9e1de796bc9da84719125d2e1b9a32288ac00000000", "vin": [{"sequence": 4294967295, "scriptSig": {"hex": "483045022100e774d6e245973c7039c45f0029867155a329d22cf322ca9c156727601dce487002205e27bf28734a45bfb31cd8c6eeaf76673567502ab51a7d98623615a1219ee2fa012102602512323cc6a59b0f52a716ce6bc2e88b83354d76d5d725bdf570f3808fef1d", "asm": "3045022100e774d6e245973c7039c45f0029867155a329d22cf322ca9c156727601dce487002205e27bf28734a45bfb31cd8c6eeaf76673567502ab51a7d98623615a1219ee2fa[ALL] 02602512323cc6a59b0f52a716ce6bc2e88b83354d76d5d725bdf570f3808fef1d"}, "vout": 1, "txid": "61ed45ed63297730aeac9908296551b8e17fb9b35c3fc646d212f0ba18beff74"}], "txid": "51830a7ae9656eeea621228e8bc407a03b2be9a4ee7c58e4eaf98cad7c102ec3", "blocktime": 1537872475, "version": 1, "confirmations": 11486, "time": 1537872475, "locktime": 0, "vsize": 192, "size": 192}