{"hash": "12d4de3e06cd8fe3a4903c6143ba5284a989977336949691610e7a38f849638a", "blockhash": "00000000000000000017f5eb5941039fbcee6240d03bc1f2f8e35350df66a1d8", "vout": [{"scriptPubKey": {"reqSigs": 1, "hex": "a914676875699ceac17f98ddd96f44b2289bfd65ad6a87", "addresses": ["3B7nfDUy6KqVdz5nyxBk7mG3HXnBm7zPA3"], "asm": "OP_HASH160 676875699ceac17f98ddd96f44b2289bfd65ad6a OP_EQUAL", "type": "scripthash"}, "value": 0.00021345, "n": 0}, {"scriptPubKey": {"reqSigs": 1, "hex": "a914e872a7c2215464efde8463a14d0b7a513738983487", "addresses": ["3Nt63SQ8nyaS54CW8L13sQx3pU3kUonMyy"], "asm": "OP_HASH160 e872a7c2215464efde8463a14d0b7a5137389834 OP_EQUAL", "type": "scripthash"}, "value": 0.01555382, "n": 1}], "hex": "01000000000102466ef2395f875e8284f3a6b933ca078aeeec5d26b95b4bd5d458f3719a23f1350100000017160014c67edf81f6060b08b415a9e41af549c31943b527ffffffff44781fafa26d9a4d747b3b47fd48760b96668db955149bf350e68fbe995474760000000017160014bd2c2ed4b487873cdf5b3a48c6e9fbe7ba35fb2cffffffff02615300000000000017a914676875699ceac17f98ddd96f44b2289bfd65ad6a87b6bb17000000000017a914e872a7c2215464efde8463a14d0b7a513738983487024730440220294b7a0c41dc234c10736f165de01a13bf1b4ac37122d9730c7512b42ac848b202202b7e6de7e5ddffa6d79693ebde42f70ca55d2eba9132935553f2672a6d130058012103fc5de08231a78fae753fc8d4b096d2fe1916f44ac9e4b16a7fbeed48407f042f024830450221009956046163a1c6dde8d70ad5060b065132b9239da6d9233c43304b0de6bace3c022016337923c3ca267dd40d43d098ef4485f965bed0912b653c36297786ce5dd70e0121035b2b30f4cc2249fec71b4b4acddf71b529eecd9f4355312b1a925bfe209c449200000000", "vin": [{"txinwitness": ["30440220294b7a0c41dc234c10736f165de01a13bf1b4ac37122d9730c7512b42ac848b202202b7e6de7e5ddffa6d79693ebde42f70ca55d2eba9132935553f2672a6d13005801", "03fc5de08231a78fae753fc8d4b096d2fe1916f44ac9e4b16a7fbeed48407f042f"], "sequence": 4294967295, "scriptSig": {"hex": "160014c67edf81f6060b08b415a9e41af549c31943b527", "asm": "0014c67edf81f6060b08b415a9e41af549c31943b527"}, "vout": 1, "txid": "35f1239a71f358d4d54b5bb9265decee8a07ca33b9a6f384825e875f39f26e46"}, {"txinwitness": ["30450221009956046163a1c6dde8d70ad5060b065132b9239da6d9233c43304b0de6bace3c022016337923c3ca267dd40d43d098ef4485f965bed0912b653c36297786ce5dd70e01", "035b2b30f4cc2249fec71b4b4acddf71b529eecd9f4355312b1a925bfe209c4492"], "sequence": 4294967295, "scriptSig": {"hex": "160014bd2c2ed4b487873cdf5b3a48c6e9fbe7ba35fb2c", "asm": "0014bd2c2ed4b487873cdf5b3a48c6e9fbe7ba35fb2c"}, "vout": 0, "txid": "76745499be8fe650f39b1455b98d66960b7648fd473b7b744d9a6da2af1f7844"}], "txid": "51839c4270be4c7cdd12196614e334b52179767fc6aa7d74d26792b94dfaaa99", "blocktime": 1537874412, "version": 1, "confirmations": 11467, "time": 1537874412, "locktime": 0, "vsize": 257, "size": 419}