{"hash": "518caddbe023988fcd267805cd343bf449e76da9b937f8421215573b503cbda1", "blockhash": "00000000000000000024a2167bbff67b0be802c0b01cdd79e6331c2be6459f87", "vout": [{"scriptPubKey": {"reqSigs": 1, "hex": "76a914561a5a283a665f412439f26ea9592d307d2e733188ac", "addresses": ["18rGgUmSNMdZ3Z1WqfjxfkpsFTj3ciFE3a"], "asm": "OP_DUP OP_HASH160 561a5a283a665f412439f26ea9592d307d2e7331 OP_EQUALVERIFY OP_CHECKSIG", "type": "pubkeyhash"}, "value": 0.00034169, "n": 0}, {"scriptPubKey": {"type": "nulldata", "hex": "6a4c500000777a00015963e841548c685615ec514fbcbefa6b8351586b4e86aeaeacb577c031fc68e703af81e629c82d1ee2a75426408a5baa09c9061499be96d0575a4bbf23acfcfaac8058b692fe6808c31d", "asm": "OP_RETURN 0000777a00015963e841548c685615ec514fbcbefa6b8351586b4e86aeaeacb577c031fc68e703af81e629c82d1ee2a75426408a5baa09c9061499be96d0575a4bbf23acfcfaac8058b692fe6808c31d"}, "value": 0.0, "n": 1}], "hex": "01000000017a99a88fe3bdb4c82571d5ae56d36b2c4fb731a7ff8204f6e9e2968e0ac8551c010000006b4830450221009ae2e5f33785afe8b0286e49b8dafa28c280cca5468d7dd7fc03784ae1ca152402202143ed3459dc215e23a4ff41397065e6f46b90ceefae90dc26a1d1bf7be8e53d0121032674c33851709fa67c71722c2d7678cb0903e9a629910aa494a0cf648df1151dffffffff0279850000000000001976a914561a5a283a665f412439f26ea9592d307d2e733188ac0000000000000000536a4c500000777a00015963e841548c685615ec514fbcbefa6b8351586b4e86aeaeacb577c031fc68e703af81e629c82d1ee2a75426408a5baa09c9061499be96d0575a4bbf23acfcfaac8058b692fe6808c31d00000000", "vin": [{"sequence": 4294967295, "scriptSig": {"hex": "4830450221009ae2e5f33785afe8b0286e49b8dafa28c280cca5468d7dd7fc03784ae1ca152402202143ed3459dc215e23a4ff41397065e6f46b90ceefae90dc26a1d1bf7be8e53d0121032674c33851709fa67c71722c2d7678cb0903e9a629910aa494a0cf648df1151d", "asm": "30450221009ae2e5f33785afe8b0286e49b8dafa28c280cca5468d7dd7fc03784ae1ca152402202143ed3459dc215e23a4ff41397065e6f46b90ceefae90dc26a1d1bf7be8e53d[ALL] 032674c33851709fa67c71722c2d7678cb0903e9a629910aa494a0cf648df1151d"}, "vout": 1, "txid": "1c55c80a8e96e2e9f60482ffa731b74f2c6bd356aed57125c8b4bde38fa8997a"}], "txid": "518caddbe023988fcd267805cd343bf449e76da9b937f8421215573b503cbda1", "blocktime": 1537870564, "version": 1, "confirmations": 11515, "time": 1537870564, "locktime": 0, "vsize": 284, "size": 284}