{"hash": "519036480ff02a4345b402f9638f1f4c9e3c7f71fed59d5bdfe6ba957cae31a8", "blockhash": "0000000000000000000e13cef7c366c0283d82e591d1acd082e914b08063cdf1", "vout": [{"scriptPubKey": {"reqSigs": 1, "hex": "76a914df4751cfa20ab5413dce447529a4bfa26404390188ac", "addresses": ["1MMb89eYbZcUgDQwMfAUruX2MmhUtqCvza"], "asm": "OP_DUP OP_HASH160 df4751cfa20ab5413dce447529a4bfa264043901 OP_EQUALVERIFY OP_CHECKSIG", "type": "pubkeyhash"}, "value": 0.01093558, "n": 0}, {"scriptPubKey": {"reqSigs": 1, "hex": "76a9146e6d9815b6e3a1b3317dba1501c75b5c8ed5b3b588ac", "addresses": ["1B4tcqEYb4s12b1muz7b5Xc15K3XoxvXWu"], "asm": "OP_DUP OP_HASH160 6e6d9815b6e3a1b3317dba1501c75b5c8ed5b3b5 OP_EQUALVERIFY OP_CHECKSIG", "type": "pubkeyhash"}, "value": 0.06155217, "n": 1}], "hex": "0100000001df5443f126dd5f6bd6454318f975e8c5bd699625cb82824a285427b13f835233010000006a473044022020a1be5fe0403938e252ab68e14acf1c697a238c6e14ed279570f457d5d4e35e02203cc01701838a83855aa62443e9eae071fd6681e5040bb5b062e283950b0f365d012102cce87ad0fc62eb07b024019d60ab4753da9542a09e153e5fa7637d0a57ddb521ffffffff02b6af1000000000001976a914df4751cfa20ab5413dce447529a4bfa26404390188acd1eb5d00000000001976a9146e6d9815b6e3a1b3317dba1501c75b5c8ed5b3b588ac00000000", "vin": [{"sequence": 4294967295, "scriptSig": {"hex": "473044022020a1be5fe0403938e252ab68e14acf1c697a238c6e14ed279570f457d5d4e35e02203cc01701838a83855aa62443e9eae071fd6681e5040bb5b062e283950b0f365d012102cce87ad0fc62eb07b024019d60ab4753da9542a09e153e5fa7637d0a57ddb521", "asm": "3044022020a1be5fe0403938e252ab68e14acf1c697a238c6e14ed279570f457d5d4e35e02203cc01701838a83855aa62443e9eae071fd6681e5040bb5b062e283950b0f365d[ALL] 02cce87ad0fc62eb07b024019d60ab4753da9542a09e153e5fa7637d0a57ddb521"}, "vout": 1, "txid": "3352833fb12754284a8282cb259669bdc5e875f9184345d66b5fdd26f14354df"}], "txid": "519036480ff02a4345b402f9638f1f4c9e3c7f71fed59d5bdfe6ba957cae31a8", "blocktime": 1537871767, "version": 1, "confirmations": 11495, "time": 1537871767, "locktime": 0, "vsize": 225, "size": 225}