{"hash": "5199ce8ee96557f215d3ad1790f28eec6dd2d827044a33c9318b01cf4dfad15b", "blockhash": "0000000000000000000baef3f32e3676a92c3b2e5da21b426e4f302fc371ce76", "vout": [{"scriptPubKey": {"reqSigs": 1, "hex": "76a914c8cd60a73fb82818b09a7332b17392ab899da8a488ac", "addresses": ["1KJkBFRBBAx7ffYRrwfqLNXF1pNN6g1z2p"], "asm": "OP_DUP OP_HASH160 c8cd60a73fb82818b09a7332b17392ab899da8a4 OP_EQUALVERIFY OP_CHECKSIG", "type": "pubkeyhash"}, "value": 0.00099427, "n": 0}], "hex": "010000000127380cbd578accd9a1651760b7227070d4d359a675fcf8da619192632abe7c37070000006b483045022100aa73c3fdc0f16ed9fb5046b0dce9a4ed1416c91a06fc12aa83dfea1e35e3664e0220270870e24a126095e3d75617ac4ce90904a79eae71940011c045ccae59bdcf000121023ac1535f439ac4bcee6a497bb39189461831984169e7c28caf153976b5a1b772ffffffff0163840100000000001976a914c8cd60a73fb82818b09a7332b17392ab899da8a488ac00000000", "vin": [{"sequence": 4294967295, "scriptSig": {"hex": "483045022100aa73c3fdc0f16ed9fb5046b0dce9a4ed1416c91a06fc12aa83dfea1e35e3664e0220270870e24a126095e3d75617ac4ce90904a79eae71940011c045ccae59bdcf000121023ac1535f439ac4bcee6a497bb39189461831984169e7c28caf153976b5a1b772", "asm": "3045022100aa73c3fdc0f16ed9fb5046b0dce9a4ed1416c91a06fc12aa83dfea1e35e3664e0220270870e24a126095e3d75617ac4ce90904a79eae71940011c045ccae59bdcf00[ALL] 023ac1535f439ac4bcee6a497bb39189461831984169e7c28caf153976b5a1b772"}, "vout": 7, "txid": "377cbe2a63929161daf8fc75a659d3d4707022b7601765a1d9cc8a57bd0c3827"}], "txid": "5199ce8ee96557f215d3ad1790f28eec6dd2d827044a33c9318b01cf4dfad15b", "blocktime": 1537876114, "version": 1, "confirmations": 11460, "time": 1537876114, "locktime": 0, "vsize": 192, "size": 192}