{"hash": "51acecdc7cfca84790e68d3c2fd63047ab1ccf8cb3116524fe8d175d30cd5b97", "blockhash": "00000000000000000017f5eb5941039fbcee6240d03bc1f2f8e35350df66a1d8", "vout": [{"scriptPubKey": {"reqSigs": 1, "hex": "76a91460fe8e7071b8037a3fbbf85cfdedfdac3f58457788ac", "addresses": ["19qrpJfys24cMvCPf5CMFWiZPz4Gzdr3Ex"], "asm": "OP_DUP OP_HASH160 60fe8e7071b8037a3fbbf85cfdedfdac3f584577 OP_EQUALVERIFY OP_CHECKSIG", "type": "pubkeyhash"}, "value": 9.222e-05, "n": 0}, {"scriptPubKey": {"reqSigs": 1, "hex": "a914890e114cde5005c4b8e7a25d07588676a75478f087", "addresses": ["3EBhMFrzfBuVywtZNAr3npmEQ9NbTv4YJc"], "asm": "OP_HASH160 890e114cde5005c4b8e7a25d07588676a75478f0 OP_EQUAL", "type": "scripthash"}, "value": 0.000201, "n": 1}], "hex": "01000000014612494958faaa439dea774c2190efb3373c1dc2998482b08c831d848e9336af000000006a47304402200c017b4e61aa1489de557ca8be43b30561af53a8e1ac8d78ad15ae3de8d3470802201857f68b92dff566c533178645df449884a73523603b9234404906fe40074c09012102b91bddfe91ec79d363a4985127ce33472df70ec2e142aeb254105f7cb702abdcffffffff0206240000000000001976a91460fe8e7071b8037a3fbbf85cfdedfdac3f58457788ac844e00000000000017a914890e114cde5005c4b8e7a25d07588676a75478f08700000000", "vin": [{"sequence": 4294967295, "scriptSig": {"hex": "47304402200c017b4e61aa1489de557ca8be43b30561af53a8e1ac8d78ad15ae3de8d3470802201857f68b92dff566c533178645df449884a73523603b9234404906fe40074c09012102b91bddfe91ec79d363a4985127ce33472df70ec2e142aeb254105f7cb702abdc", "asm": "304402200c017b4e61aa1489de557ca8be43b30561af53a8e1ac8d78ad15ae3de8d3470802201857f68b92dff566c533178645df449884a73523603b9234404906fe40074c09[ALL] 02b91bddfe91ec79d363a4985127ce33472df70ec2e142aeb254105f7cb702abdc"}, "vout": 0, "txid": "af36938e841d838cb0828499c21d3c37b3ef90214c77ea9d43aafa5849491246"}], "txid": "51acecdc7cfca84790e68d3c2fd63047ab1ccf8cb3116524fe8d175d30cd5b97", "blocktime": 1537874412, "version": 1, "confirmations": 11467, "time": 1537874412, "locktime": 0, "vsize": 223, "size": 223}