{"hash": "72c4d3caf4681bdaba8acf484d01f14e986baff87e4b25ab3f63c6db05c4892c", "blockhash": "000000000000000000022b45ed06c6f4ccd3cf7fb5ba4856ebd2e58215665228", "vout": [{"scriptPubKey": {"reqSigs": 1, "hex": "a914cfaabfe8c271f99a4364b5197ba50c6cddb7adb987", "addresses": ["3Ld4M9RPwEG3VeQbHcC1PsKUndQL7VYLZP"], "asm": "OP_HASH160 cfaabfe8c271f99a4364b5197ba50c6cddb7adb9 OP_EQUAL", "type": "scripthash"}, "value": 0.19796841, "n": 0}, {"scriptPubKey": {"reqSigs": 1, "hex": "a914c3b42b27697356896f5bbbb925a85ec49186681987", "addresses": ["3KXoXHLF8vkMAQBKRvnGYiuez3NaujEKA6"], "asm": "OP_HASH160 c3b42b27697356896f5bbbb925a85ec491866819 OP_EQUAL", "type": "scripthash"}, "value": 0.00592071, "n": 1}], "hex": "01000000000104cb32369abf0229fe9b9567763d249594beb8d9aa0b009cf4f58360f9cbe2803d0100000023220020319ade260dadc502c09774ea2f715c40d183c077f06a90e686bd81243129dfbeffffffffd29abe474032566f69138061ec8a3d0fe1f378b0da367c785b38104257397c5901000000232200203075c4b0e0c2308536416f38b02874da8d7b7d03534463e32cea1686cee3163affffffff278b5de497149fb56cf16d2145e85c906444a476695a5df9fd9efdde330a699901000000232200208355c494ed16d8db89bf77977df100f781a79e2d116d882f17737d1e081ad624ffffffffb4d52b3af5b6f9a3b26aede702c87ce2127fb99ce75e0fa834505bc9e35d2d34010000002322002093b668c571ff751552938de9ae3c5d33fa650fb9785fac43055a20c42f8eefc9ffffffff0269132e010000000017a914cfaabfe8c271f99a4364b5197ba50c6cddb7adb987c70809000000000017a914c3b42b27697356896f5bbbb925a85ec491866819870400473044022037c8431cd22d09c402efeb849ee8ec4b2a1ea6ff24846874da525b8b3b2436f202207d0222b6e159162dde088e3177c829ab1e969fe5a80bbc495309b0600af030f70147304402200deaaafd0ae845a05994307f3951fad4216a2124a5347d57cb35d3083ba8f74c022072918647ddc398aa31117cbcaa7616525274644e789e6d19674f3d6d26b13e970147522102f29a1de4092d9ebb17a4f14248aea8a532fabf8b5eff39dc6ba228bd2beb0f1a21033e4af03ed09dbd8a417ba042650d5bd1db7f14f271a8f660974e3abf1fdfa4da52ae0400483045022100c68d5accdf5f0e56dcec6b0d1d27ff7de0d93e21e33397adbbbabe7c109fc1060220263abeae48cecb7130852ba77937c647d8ec296be05597bf86d9111fb6bea19501483045022100f964053e9602853bb35507cb04fddc0d4bb6ebe8899013fa736e00c4b4fda8dd02201d9214cec178e83ac206759f100920fc7e1a423c374c8a77e3ec4b6d44db3746014752210262c386d440fa950bd96ff8eaeb60ab72d5606963da5fbb732b4971b2228a261821033e4af03ed09dbd8a417ba042650d5bd1db7f14f271a8f660974e3abf1fdfa4da52ae0400483045022100ffd9c9dd2a1e964b29517fc0545d1e5c4cb5cbc81720fcf9ee95e25cfa8a5b3d022010ccef97306f8a840a6118f3914e5b6ce73671892d674e0c15a5f1882ee85c3b0147304402203c511b075fb19abfdcf9769db8b3c248b38f016f3b8dba2c9b9bd7433bd037d90220683fa3e107c34e7d99ddbb4a879a30779f5ba222594d4f23712624c1191a6216014752210278d03506daf3543a11038d58711bd566da9172845f5c52dc3f25c909765cff6921033e4af03ed09dbd8a417ba042650d5bd1db7f14f271a8f660974e3abf1fdfa4da52ae0400483045022100d3fbcd692d94de62fc950808caf18fab4ebc56d010eabbb003439ea00613c8c102202e1638fa52ff07025f0ba19885055d3d2c6de2865aca5bf2a4769f0dced0daef0147304402205de99ad6c32b07fe2c3109b9a278d7f028fd9516bbcf00f249d4d069c89f20e802202da12f3b9f26c362a5c518ef101d68bfeebeaf89e655643f436d3acb20cdb9290147522102245d52b20b9b4ce5a3879d2c1035ac2f23d28b1cf530d957e42ee41b13b02f0c21033e4af03ed09dbd8a417ba042650d5bd1db7f14f271a8f660974e3abf1fdfa4da52ae00000000", "vin": [{"txinwitness": ["", "3044022037c8431cd22d09c402efeb849ee8ec4b2a1ea6ff24846874da525b8b3b2436f202207d0222b6e159162dde088e3177c829ab1e969fe5a80bbc495309b0600af030f701", "304402200deaaafd0ae845a05994307f3951fad4216a2124a5347d57cb35d3083ba8f74c022072918647ddc398aa31117cbcaa7616525274644e789e6d19674f3d6d26b13e9701", "522102f29a1de4092d9ebb17a4f14248aea8a532fabf8b5eff39dc6ba228bd2beb0f1a21033e4af03ed09dbd8a417ba042650d5bd1db7f14f271a8f660974e3abf1fdfa4da52ae"], "sequence": 4294967295, "scriptSig": {"hex": "220020319ade260dadc502c09774ea2f715c40d183c077f06a90e686bd81243129dfbe", "asm": "0020319ade260dadc502c09774ea2f715c40d183c077f06a90e686bd81243129dfbe"}, "vout": 1, "txid": "3d80e2cbf96083f5f49c000baad9b8be9495243d7667959bfe2902bf9a3632cb"}, {"txinwitness": ["", "3045022100c68d5accdf5f0e56dcec6b0d1d27ff7de0d93e21e33397adbbbabe7c109fc1060220263abeae48cecb7130852ba77937c647d8ec296be05597bf86d9111fb6bea19501", "3045022100f964053e9602853bb35507cb04fddc0d4bb6ebe8899013fa736e00c4b4fda8dd02201d9214cec178e83ac206759f100920fc7e1a423c374c8a77e3ec4b6d44db374601", "52210262c386d440fa950bd96ff8eaeb60ab72d5606963da5fbb732b4971b2228a261821033e4af03ed09dbd8a417ba042650d5bd1db7f14f271a8f660974e3abf1fdfa4da52ae"], "sequence": 4294967295, "scriptSig": {"hex": "2200203075c4b0e0c2308536416f38b02874da8d7b7d03534463e32cea1686cee3163a", "asm": "00203075c4b0e0c2308536416f38b02874da8d7b7d03534463e32cea1686cee3163a"}, "vout": 1, "txid": "597c39574210385b787c36dab078f3e10f3d8aec618013696f56324047be9ad2"}, {"txinwitness": ["", "3045022100ffd9c9dd2a1e964b29517fc0545d1e5c4cb5cbc81720fcf9ee95e25cfa8a5b3d022010ccef97306f8a840a6118f3914e5b6ce73671892d674e0c15a5f1882ee85c3b01", "304402203c511b075fb19abfdcf9769db8b3c248b38f016f3b8dba2c9b9bd7433bd037d90220683fa3e107c34e7d99ddbb4a879a30779f5ba222594d4f23712624c1191a621601", "52210278d03506daf3543a11038d58711bd566da9172845f5c52dc3f25c909765cff6921033e4af03ed09dbd8a417ba042650d5bd1db7f14f271a8f660974e3abf1fdfa4da52ae"], "sequence": 4294967295, "scriptSig": {"hex": "2200208355c494ed16d8db89bf77977df100f781a79e2d116d882f17737d1e081ad624", "asm": "00208355c494ed16d8db89bf77977df100f781a79e2d116d882f17737d1e081ad624"}, "vout": 1, "txid": "99690a33defd9efdf95d5a6976a44464905ce845216df16cb59f1497e45d8b27"}, {"txinwitness": ["", "3045022100d3fbcd692d94de62fc950808caf18fab4ebc56d010eabbb003439ea00613c8c102202e1638fa52ff07025f0ba19885055d3d2c6de2865aca5bf2a4769f0dced0daef01", "304402205de99ad6c32b07fe2c3109b9a278d7f028fd9516bbcf00f249d4d069c89f20e802202da12f3b9f26c362a5c518ef101d68bfeebeaf89e655643f436d3acb20cdb92901", "522102245d52b20b9b4ce5a3879d2c1035ac2f23d28b1cf530d957e42ee41b13b02f0c21033e4af03ed09dbd8a417ba042650d5bd1db7f14f271a8f660974e3abf1fdfa4da52ae"], "sequence": 4294967295, "scriptSig": {"hex": "22002093b668c571ff751552938de9ae3c5d33fa650fb9785fac43055a20c42f8eefc9", "asm": "002093b668c571ff751552938de9ae3c5d33fa650fb9785fac43055a20c42f8eefc9"}, "vout": 1, "txid": "342d5de3c95b5034a80f5ee79cb97f12e27cc802e7ed6ab2a3f9b6f53a2bd5b4"}], "txid": "51af0604a1098cb62c80eb5048907fd70b84d0488572afc2ed6b7b451943f68b", "blocktime": 1537869901, "version": 1, "confirmations": 11524, "time": 1537869901, "locktime": 0, "vsize": 598, "size": 1256}