{"hash": "51b16facc929b8ddc9853122cc9594797bd2c29f9404a2d9a7949f4aebc9e3f2", "blockhash": "0000000000000000001f0ddff1eddb255c1121bcd4da4f1bc9a0da00cae72433", "vout": [{"scriptPubKey": {"reqSigs": 1, "hex": "76a9147cc2b29d08e2c6cea22653e8087cecb7f1d0416f88ac", "addresses": ["1CNg2d1ocYnEB6Uw3PMznYaDinYtfQCXRF"], "asm": "OP_DUP OP_HASH160 7cc2b29d08e2c6cea22653e8087cecb7f1d0416f OP_EQUALVERIFY OP_CHECKSIG", "type": "pubkeyhash"}, "value": 9.708e-05, "n": 0}, {"scriptPubKey": {"reqSigs": 1, "hex": "a9147d5aae6d8d709e4a47bec22c67c657fb67c4ee1987", "addresses": ["3D7q2B35JTUfG9u3BbK1zciLT1wCQaQKsZ"], "asm": "OP_HASH160 7d5aae6d8d709e4a47bec22c67c657fb67c4ee19 OP_EQUAL", "type": "scripthash"}, "value": 0.001, "n": 1}], "hex": "0100000001476420e543fbf1feb4ac92d7e6cd6db2ed836308a704d636e221608c85d7246f010000006a4730440220542d4e4221d20400efe232e09cf480a5a9a3a4c1c0dc12469fb044b48876d86902204fcd07fb901134ef576b63eda59b025dc239714cd5d2c282d4e3594dba50f850012102e34a231f4d5907af9fbf6dd476ec91a4c151e21134510385f7a02f23c1591181fdffffff02ec250000000000001976a9147cc2b29d08e2c6cea22653e8087cecb7f1d0416f88aca08601000000000017a9147d5aae6d8d709e4a47bec22c67c657fb67c4ee198710490800", "vin": [{"sequence": 4294967293, "scriptSig": {"hex": "4730440220542d4e4221d20400efe232e09cf480a5a9a3a4c1c0dc12469fb044b48876d86902204fcd07fb901134ef576b63eda59b025dc239714cd5d2c282d4e3594dba50f850012102e34a231f4d5907af9fbf6dd476ec91a4c151e21134510385f7a02f23c1591181", "asm": "30440220542d4e4221d20400efe232e09cf480a5a9a3a4c1c0dc12469fb044b48876d86902204fcd07fb901134ef576b63eda59b025dc239714cd5d2c282d4e3594dba50f850[ALL] 02e34a231f4d5907af9fbf6dd476ec91a4c151e21134510385f7a02f23c1591181"}, "vout": 1, "txid": "6f24d7858c6021e236d604a7086383edb26dcde6d792acb4fef1fb43e5206447"}], "txid": "51b16facc929b8ddc9853122cc9594797bd2c29f9404a2d9a7949f4aebc9e3f2", "blocktime": 1537872018, "version": 1, "confirmations": 11489, "time": 1537872018, "locktime": 542992, "vsize": 223, "size": 223}