{"hash": "51b9c1bb0c0b73454407e1f39f69b8728bc064d5b1a7e381ed1ada4edae9313f", "blockhash": "0000000000000000001cda96e906b7601b7a6fb1a3b62bca570a9e5d8f4b3de1", "vout": [{"scriptPubKey": {"reqSigs": 1, "hex": "76a914aefcd752bd3894977581540dc7d721ff6db453fe88ac", "addresses": ["1GxFU627Zsibtw7cKN9kcViaJZFNgY3xmu"], "asm": "OP_DUP OP_HASH160 aefcd752bd3894977581540dc7d721ff6db453fe OP_EQUALVERIFY OP_CHECKSIG", "type": "pubkeyhash"}, "value": 0.077863, "n": 0}, {"scriptPubKey": {"reqSigs": 1, "hex": "76a9140ec7ffe49d51e56c7feb1f230819b72c899cdd5688ac", "addresses": ["12MA3uDJeMZzidJcJkcFT9tmpL4eh7zoZ7"], "asm": "OP_DUP OP_HASH160 0ec7ffe49d51e56c7feb1f230819b72c899cdd56 OP_EQUALVERIFY OP_CHECKSIG", "type": "pubkeyhash"}, "value": 0.000339, "n": 1}], "hex": "0100000004405fb36881acfb6c290d733e0007ed3a7070ee3b6e66780fec26b22d49ca1d67000000006a4730440220358b38fe0a1dc5c1136ba81b957b3b622fa9a606898b945875137b418efa324c022003574577a5c934882939b96b5366db5723e0ec5711482389d31393505c1872f801210200fb365bb2452425f16b2c507092786886019a1997da62fb7ba86cf66dcdc2f8ffffffff6867b13ba187319e9a9f53c2a36e16f18eb2b04a830c857690c1564ff2cd8f9b000000006a473044022025fc3b9772f52587e8905ee90297d69f95a5d5dbd3b0e45accd207a2bb84a837022054da8c01b9bcaa09b650cb3ed94dbb0808881882ac5e32c22b477a3bc6260b7c0121028c176cd35a5c7baabb8408239aee09cd2c3334cd0f5d33a556312ad82c7cc92fffffffff070ce34b30665b2be394bad7545c5684eff184244e4e5a879e1714d939b61c3b000000006a47304402205da77996ea36052b81f9bd5042cad06a80bfdec1bc3188a5b0bcd46377f4865f02203da90463036fa2ca928b87adedb8771c59c4dd8f3210bc2d463c64694862204f012102c94d9c2e2cb8b33f68bf0cb50f517dd3128483b716fe3444f481f409067b3bdeffffffff37b633e541eac2ace1dc6a3ede20cba92d927caa8a968e04f9ca67f653e0185e010000006b4830450221009f51b75febc7bdb11d7fa4924bafb8df7131892632dc47ac57ff6efc02e0c7f502203dd496e7d55abd402f5bd4026b754f241c27558df8873611f186e568ead4ac00012102d02c1e6188190d186a6fcd7dc634c07c832ac61f84b9a8f14bafc244e0ed0503ffffffff023ccf7600000000001976a914aefcd752bd3894977581540dc7d721ff6db453fe88ac6c840000000000001976a9140ec7ffe49d51e56c7feb1f230819b72c899cdd5688ac00000000", "vin": [{"sequence": 4294967295, "scriptSig": {"hex": "4730440220358b38fe0a1dc5c1136ba81b957b3b622fa9a606898b945875137b418efa324c022003574577a5c934882939b96b5366db5723e0ec5711482389d31393505c1872f801210200fb365bb2452425f16b2c507092786886019a1997da62fb7ba86cf66dcdc2f8", "asm": "30440220358b38fe0a1dc5c1136ba81b957b3b622fa9a606898b945875137b418efa324c022003574577a5c934882939b96b5366db5723e0ec5711482389d31393505c1872f8[ALL] 0200fb365bb2452425f16b2c507092786886019a1997da62fb7ba86cf66dcdc2f8"}, "vout": 0, "txid": "671dca492db226ec0f78666e3bee70703aed07003e730d296cfbac8168b35f40"}, {"sequence": 4294967295, "scriptSig": {"hex": "473044022025fc3b9772f52587e8905ee90297d69f95a5d5dbd3b0e45accd207a2bb84a837022054da8c01b9bcaa09b650cb3ed94dbb0808881882ac5e32c22b477a3bc6260b7c0121028c176cd35a5c7baabb8408239aee09cd2c3334cd0f5d33a556312ad82c7cc92f", "asm": "3044022025fc3b9772f52587e8905ee90297d69f95a5d5dbd3b0e45accd207a2bb84a837022054da8c01b9bcaa09b650cb3ed94dbb0808881882ac5e32c22b477a3bc6260b7c[ALL] 028c176cd35a5c7baabb8408239aee09cd2c3334cd0f5d33a556312ad82c7cc92f"}, "vout": 0, "txid": "9b8fcdf24f56c19076850c834ab0b28ef1166ea3c2539f9a9e3187a13bb16768"}, {"sequence": 4294967295, "scriptSig": {"hex": "47304402205da77996ea36052b81f9bd5042cad06a80bfdec1bc3188a5b0bcd46377f4865f02203da90463036fa2ca928b87adedb8771c59c4dd8f3210bc2d463c64694862204f012102c94d9c2e2cb8b33f68bf0cb50f517dd3128483b716fe3444f481f409067b3bde", "asm": "304402205da77996ea36052b81f9bd5042cad06a80bfdec1bc3188a5b0bcd46377f4865f02203da90463036fa2ca928b87adedb8771c59c4dd8f3210bc2d463c64694862204f[ALL] 02c94d9c2e2cb8b33f68bf0cb50f517dd3128483b716fe3444f481f409067b3bde"}, "vout": 0, "txid": "3b1cb639d914179e875a4e4e2484f1ef84565c54d7ba94e32b5b66304be30c07"}, {"sequence": 4294967295, "scriptSig": {"hex": "4830450221009f51b75febc7bdb11d7fa4924bafb8df7131892632dc47ac57ff6efc02e0c7f502203dd496e7d55abd402f5bd4026b754f241c27558df8873611f186e568ead4ac00012102d02c1e6188190d186a6fcd7dc634c07c832ac61f84b9a8f14bafc244e0ed0503", "asm": "30450221009f51b75febc7bdb11d7fa4924bafb8df7131892632dc47ac57ff6efc02e0c7f502203dd496e7d55abd402f5bd4026b754f241c27558df8873611f186e568ead4ac00[ALL] 02d02c1e6188190d186a6fcd7dc634c07c832ac61f84b9a8f14bafc244e0ed0503"}, "vout": 1, "txid": "5e18e053f667caf9048e968aaa7c922da9cb20de3e6adce1acc2ea41e533b637"}], "txid": "51b9c1bb0c0b73454407e1f39f69b8728bc064d5b1a7e381ed1ada4edae9313f", "blocktime": 1537873282, "version": 1, "confirmations": 11485, "time": 1537873282, "locktime": 0, "vsize": 667, "size": 667}