{"hash": "51c04f5799c131dace915c1a85c97ecbd8f1a97c84a5a9231229dabd8f8ee6ed", "blockhash": "0000000000000000001cda96e906b7601b7a6fb1a3b62bca570a9e5d8f4b3de1", "vout": [{"scriptPubKey": {"reqSigs": 1, "hex": "a91427f34c8a45238ca50ca4efeb8001c997df7f702187", "addresses": ["35LFjjagKp7pVRGp9WjTQt6SzdiWKiDyYo"], "asm": "OP_HASH160 27f34c8a45238ca50ca4efeb8001c997df7f7021 OP_EQUAL", "type": "scripthash"}, "value": 0.00133344, "n": 0}, {"scriptPubKey": {"reqSigs": 1, "hex": "76a91484110ef79c32a98bb24123342f2580e5fceebd9a88ac", "addresses": ["1D3JdZkHtRfJdFtRfLpk4nx8PhmGq6McTE"], "asm": "OP_DUP OP_HASH160 84110ef79c32a98bb24123342f2580e5fceebd9a OP_EQUALVERIFY OP_CHECKSIG", "type": "pubkeyhash"}, "value": 0.00010262, "n": 1}], "hex": "0100000001ec9be9e002015db751d6cff3e88f7026b3931eb38ec4aa25a3aa081ec4f215ee01000000d9004730440220364b7cba1b6f5f6551172c0a8587d978a06444ced6d480adee253cfbcd8ca02a022073b630c125bc4d56d2418389c0bad653c4b517a3efcaf4e7bdd6444ed0c89dcd0147304402202359a27c64255581e889e63061ffa9f1704663e06245ea79b13d13c929581ad502201733bb5c4530e1a24a5dd08566a4058c1c2288c8ab9d8729612ac939fe49ab160147522102907a54bed8ad74b3f35638c60114ca240a308cb986f3f2f306178869a8880b612103c6374cae8dc9ee54f67e6cd084ec7b391fc94115f0fc76954d89ec8c761fcb5552aeffffffff02e00802000000000017a91427f34c8a45238ca50ca4efeb8001c997df7f70218716280000000000001976a91484110ef79c32a98bb24123342f2580e5fceebd9a88ac00000000", "vin": [{"sequence": 4294967295, "scriptSig": {"hex": "004730440220364b7cba1b6f5f6551172c0a8587d978a06444ced6d480adee253cfbcd8ca02a022073b630c125bc4d56d2418389c0bad653c4b517a3efcaf4e7bdd6444ed0c89dcd0147304402202359a27c64255581e889e63061ffa9f1704663e06245ea79b13d13c929581ad502201733bb5c4530e1a24a5dd08566a4058c1c2288c8ab9d8729612ac939fe49ab160147522102907a54bed8ad74b3f35638c60114ca240a308cb986f3f2f306178869a8880b612103c6374cae8dc9ee54f67e6cd084ec7b391fc94115f0fc76954d89ec8c761fcb5552ae", "asm": "0 30440220364b7cba1b6f5f6551172c0a8587d978a06444ced6d480adee253cfbcd8ca02a022073b630c125bc4d56d2418389c0bad653c4b517a3efcaf4e7bdd6444ed0c89dcd[ALL] 304402202359a27c64255581e889e63061ffa9f1704663e06245ea79b13d13c929581ad502201733bb5c4530e1a24a5dd08566a4058c1c2288c8ab9d8729612ac939fe49ab16[ALL] 522102907a54bed8ad74b3f35638c60114ca240a308cb986f3f2f306178869a8880b612103c6374cae8dc9ee54f67e6cd084ec7b391fc94115f0fc76954d89ec8c761fcb5552ae"}, "vout": 1, "txid": "ee15f2c41e08aaa325aac48eb31e93b326708fe8f3cfd651b75d0102e0e99bec"}], "txid": "51c04f5799c131dace915c1a85c97ecbd8f1a97c84a5a9231229dabd8f8ee6ed", "blocktime": 1537873282, "version": 1, "confirmations": 11484, "time": 1537873282, "locktime": 0, "vsize": 334, "size": 334}