{"hash": "51c2e17dc1128061d91acfe385234e25901611e757d0e38c364d4e6a5ee1d8f2", "blockhash": "00000000000000000018f53835495a110e01622372bf6ae95dc86f2b0ab887b0", "vout": [{"scriptPubKey": {"type": "nulldata", "hex": "6a146f6d6e69000000000000001f0000000636defc2a", "asm": "OP_RETURN 6f6d6e69000000000000001f0000000636defc2a"}, "value": 0.0, "n": 0}, {"scriptPubKey": {"reqSigs": 1, "hex": "76a914a25dec4d0011064ef106a983c39c7a540699f22088ac", "addresses": ["1FoWyxwPXuj4C6abqwhjDWdz6D4PZgYRjA"], "asm": "OP_DUP OP_HASH160 a25dec4d0011064ef106a983c39c7a540699f220 OP_EQUALVERIFY OP_CHECKSIG", "type": "pubkeyhash"}, "value": 5.46e-06, "n": 1}, {"scriptPubKey": {"reqSigs": 1, "hex": "76a914175869cb9cfe64b41336d619e793c97ebad4300c88ac", "addresses": ["138STUTEzQc1MbawdRakvTfapZwKoHBzDY"], "asm": "OP_DUP OP_HASH160 175869cb9cfe64b41336d619e793c97ebad4300c OP_EQUALVERIFY OP_CHECKSIG", "type": "pubkeyhash"}, "value": 0.00499064, "n": 2}], "hex": "01000000010d01a2029185c1752ddb6f4edd511a7d23d380cfcef6d7a0ca449357da1f4f33060000006b4830450221008b2f9db9bd2eb1e83592abf614a47b00e6ae4e9301664ec126447880844506d1022013bfc4433badbe2b77629f1b5e50324a39101aca50ae81f66d33c624eed98f4c0121034ce6b0ef6b47f85b43f17000fc089e3c61c427ce22dbd9d754632e56d2d3df93feffffff030000000000000000166a146f6d6e69000000000000001f0000000636defc2a22020000000000001976a914a25dec4d0011064ef106a983c39c7a540699f22088ac789d0700000000001976a914175869cb9cfe64b41336d619e793c97ebad4300c88ac0e490800", "vin": [{"sequence": 4294967294, "scriptSig": {"hex": "4830450221008b2f9db9bd2eb1e83592abf614a47b00e6ae4e9301664ec126447880844506d1022013bfc4433badbe2b77629f1b5e50324a39101aca50ae81f66d33c624eed98f4c0121034ce6b0ef6b47f85b43f17000fc089e3c61c427ce22dbd9d754632e56d2d3df93", "asm": "30450221008b2f9db9bd2eb1e83592abf614a47b00e6ae4e9301664ec126447880844506d1022013bfc4433badbe2b77629f1b5e50324a39101aca50ae81f66d33c624eed98f4c[ALL] 034ce6b0ef6b47f85b43f17000fc089e3c61c427ce22dbd9d754632e56d2d3df93"}, "vout": 6, "txid": "334f1fda579344caa0d7f6cecf80d3237d1a51dd4e6fdb2d75c1859102a2010d"}], "txid": "51c2e17dc1128061d91acfe385234e25901611e757d0e38c364d4e6a5ee1d8f2", "blocktime": 1537870928, "version": 1, "confirmations": 11514, "time": 1537870928, "locktime": 542990, "vsize": 257, "size": 257}