{"hash": "90712b7b5cf859233e1701a6efcda2196d46eda5ef65226999915767272670d7", "blockhash": "0000000000000000001e0dab787dd257d1dbfcb92a98c2207d5e1078be1f4165", "vout": [{"scriptPubKey": {"reqSigs": 1, "hex": "a91482e992296c92c0bf3388d20bb09187638d622b2287", "addresses": ["3DdDaGvrpiMwf1KUEbhK85w8EbzmkchFY7"], "asm": "OP_HASH160 82e992296c92c0bf3388d20bb09187638d622b22 OP_EQUAL", "type": "scripthash"}, "value": 0.01, "n": 0}, {"scriptPubKey": {"reqSigs": 1, "hex": "a914244a963ff480f5e80772fca9f951053841de628987", "addresses": ["34zubqdUBmKCBiZrY4v6RK1JNbZQ7mEAEq"], "asm": "OP_HASH160 244a963ff480f5e80772fca9f951053841de6289 OP_EQUAL", "type": "scripthash"}, "value": 0.01005362, "n": 1}], "hex": "0200000000010189c54ac76c2f5949b544caba871cf36f5981683530b667bbfad2e1400b1fd8440100000017160014f673e8bc979bd427deffe784ad283a4f3fca14e4feffffff0240420f000000000017a91482e992296c92c0bf3388d20bb09187638d622b228732570f000000000017a914244a963ff480f5e80772fca9f951053841de6289870247304402202977d457a9bf7b7ad370a1fc9cdb3d01e22da350401d226d6b3fa71b7d5fd26b02204651199606c68da822c73726d129c91c410d5826500423487f04d6c96dfee4b0012102ccafa6eae04900897ad61a5e93dd6b03f5ec4f56e7ca7ba9a87a78dc70442c0612490800", "vin": [{"txinwitness": ["304402202977d457a9bf7b7ad370a1fc9cdb3d01e22da350401d226d6b3fa71b7d5fd26b02204651199606c68da822c73726d129c91c410d5826500423487f04d6c96dfee4b001", "02ccafa6eae04900897ad61a5e93dd6b03f5ec4f56e7ca7ba9a87a78dc70442c06"], "sequence": 4294967294, "scriptSig": {"hex": "160014f673e8bc979bd427deffe784ad283a4f3fca14e4", "asm": "0014f673e8bc979bd427deffe784ad283a4f3fca14e4"}, "vout": 1, "txid": "44d81f0b40e1d2fabb67b630356881596ff31c87baca44b549592f6cc74ac589"}], "txid": "51c55544ecdece83fbaec0bbef34a8c82790846ea6b4cf216f637d8c1ea4eb52", "blocktime": 1537872475, "version": 2, "confirmations": 11486, "time": 1537872475, "locktime": 542994, "vsize": 166, "size": 247}