{"hash": "51c7f65c1dc5080ee8b30187e86ec3586967a9feedc04f6464a42ae655cd4295", "blockhash": "00000000000000000024a2167bbff67b0be802c0b01cdd79e6331c2be6459f87", "vout": [{"scriptPubKey": {"reqSigs": 1, "hex": "76a914bf3956ce97d257d8dbf4388584ed224e764e3af088ac", "addresses": ["1JS6kdWMwFUs5at9sdWg1ogrhLJTx3B32g"], "asm": "OP_DUP OP_HASH160 bf3956ce97d257d8dbf4388584ed224e764e3af0 OP_EQUALVERIFY OP_CHECKSIG", "type": "pubkeyhash"}, "value": 0.05503242, "n": 0}, {"scriptPubKey": {"reqSigs": 1, "hex": "76a914d230a8355790dd4a4bb1984dee473fc093bdcd2388ac", "addresses": ["1LAPC37ea2mgjsxhkQrxmGvtGTRobXbJGd"], "asm": "OP_DUP OP_HASH160 d230a8355790dd4a4bb1984dee473fc093bdcd23 OP_EQUALVERIFY OP_CHECKSIG", "type": "pubkeyhash"}, "value": 0.22896532, "n": 1}], "hex": "0100000001c63822b2bdb39487d20660097fa785303ff1d2a12e15010dc0f03eda346e8e0f000000006a473044022038a97bd89efab738edc90ed249d0f2e87e3b73b0ac778b36518c6d7d4ac4a56b02201f29db943971698b7513398a0e844a58919db18564a613ebb7a2c36d046b8862012102b1df8b6e22b79d69718d565386b863ee50d161401b2eb1d6ff9baa18f2de2998feffffff020af95300000000001976a914bf3956ce97d257d8dbf4388584ed224e764e3af088ac945f5d01000000001976a914d230a8355790dd4a4bb1984dee473fc093bdcd2388ac0d490800", "vin": [{"sequence": 4294967294, "scriptSig": {"hex": "473044022038a97bd89efab738edc90ed249d0f2e87e3b73b0ac778b36518c6d7d4ac4a56b02201f29db943971698b7513398a0e844a58919db18564a613ebb7a2c36d046b8862012102b1df8b6e22b79d69718d565386b863ee50d161401b2eb1d6ff9baa18f2de2998", "asm": "3044022038a97bd89efab738edc90ed249d0f2e87e3b73b0ac778b36518c6d7d4ac4a56b02201f29db943971698b7513398a0e844a58919db18564a613ebb7a2c36d046b8862[ALL] 02b1df8b6e22b79d69718d565386b863ee50d161401b2eb1d6ff9baa18f2de2998"}, "vout": 0, "txid": "0f8e6e34da3ef0c00d01152ea1d2f13f3085a77f096006d28794b3bdb22238c6"}], "txid": "51c7f65c1dc5080ee8b30187e86ec3586967a9feedc04f6464a42ae655cd4295", "blocktime": 1537870564, "version": 1, "confirmations": 11515, "time": 1537870564, "locktime": 542989, "vsize": 225, "size": 225}