{"hash": "51c8aea926e292fe118591bc88316b20c303afa2fba1d48d8d9c588bcafee697", "blockhash": "0000000000000000000dcc0f55137456b1a82d3642486a52398922ac4d620174", "vout": [{"scriptPubKey": {"reqSigs": 1, "hex": "a914522f1a19592ef8aa029dde59db4d16ebc6d6829087", "addresses": ["39BZkyV1JLdMpFYHby19N9cEPKvqiM7HC6"], "asm": "OP_HASH160 522f1a19592ef8aa029dde59db4d16ebc6d68290 OP_EQUAL", "type": "scripthash"}, "value": 0.009568, "n": 0}], "hex": "010000000181ab6229c55c21f3dbe6a0afc048414d4d390afd789e24cdaa31cb97c3ae1bb2000000006a47304402207f7473328fb213685b9f40759870227c9d890173bfd01eca9da114a13be2a85702206cb8a34d7e0698e8878fc64020251de2d629c5e49cf5c536bbb8dfd545acbab30121033fb7395d83fbceab395fea367d41ad4e40593acadc83e85541b3bcd279e2664bffffffff0180990e000000000017a914522f1a19592ef8aa029dde59db4d16ebc6d682908700000000", "vin": [{"sequence": 4294967295, "scriptSig": {"hex": "47304402207f7473328fb213685b9f40759870227c9d890173bfd01eca9da114a13be2a85702206cb8a34d7e0698e8878fc64020251de2d629c5e49cf5c536bbb8dfd545acbab30121033fb7395d83fbceab395fea367d41ad4e40593acadc83e85541b3bcd279e2664b", "asm": "304402207f7473328fb213685b9f40759870227c9d890173bfd01eca9da114a13be2a85702206cb8a34d7e0698e8878fc64020251de2d629c5e49cf5c536bbb8dfd545acbab3[ALL] 033fb7395d83fbceab395fea367d41ad4e40593acadc83e85541b3bcd279e2664b"}, "vout": 0, "txid": "b21baec397cb31aacd249e78fd0a394d4d4148c0afa0e6dbf3215cc52962ab81"}], "txid": "51c8aea926e292fe118591bc88316b20c303afa2fba1d48d8d9c588bcafee697", "blocktime": 1537870268, "version": 1, "confirmations": 11516, "time": 1537870268, "locktime": 0, "vsize": 189, "size": 189}