{"hash": "51cab3d6d0b533714266b0bd758d5889d825bd8ba05687f63b4ab49068148642", "blockhash": "0000000000000000001e0dab787dd257d1dbfcb92a98c2207d5e1078be1f4165", "vout": [{"scriptPubKey": {"type": "nulldata", "hex": "6a146f6d6e69000000000000001f0000005acdcfbc00", "asm": "OP_RETURN 6f6d6e69000000000000001f0000005acdcfbc00"}, "value": 0.0, "n": 0}, {"scriptPubKey": {"reqSigs": 1, "hex": "76a914a25dec4d0011064ef106a983c39c7a540699f22088ac", "addresses": ["1FoWyxwPXuj4C6abqwhjDWdz6D4PZgYRjA"], "asm": "OP_DUP OP_HASH160 a25dec4d0011064ef106a983c39c7a540699f220 OP_EQUALVERIFY OP_CHECKSIG", "type": "pubkeyhash"}, "value": 0.01990415, "n": 1}, {"scriptPubKey": {"reqSigs": 1, "hex": "76a9145198ec5b6694b4a50ee65e76a76baf56e87a7e3688ac", "addresses": ["18SSvqLGbffnGuzFx4gugrjXXykXQLPgy7"], "asm": "OP_DUP OP_HASH160 5198ec5b6694b4a50ee65e76a76baf56e87a7e36 OP_EQUALVERIFY OP_CHECKSIG", "type": "pubkeyhash"}, "value": 5.46e-06, "n": 2}], "hex": "01000000012795a2be00e213b8e75d371e2ff49288e023c0e52c709326e260840e22dc36a8010000006b483045022100861aefc53d04ec333230784bc6c255b01283939781fbbe9bbd920f24c321220c022044846f5253a98983785a82227dc11e08fc2d826f6ec4c4704eed103e1605f681012103da5bac7b36d5aa38f531c6b9601e21bb598a4b6716ebed38b009a55dabde9440feffffff030000000000000000166a146f6d6e69000000000000001f0000005acdcfbc000f5f1e00000000001976a914a25dec4d0011064ef106a983c39c7a540699f22088ac22020000000000001976a9145198ec5b6694b4a50ee65e76a76baf56e87a7e3688ac12490800", "vin": [{"sequence": 4294967294, "scriptSig": {"hex": "483045022100861aefc53d04ec333230784bc6c255b01283939781fbbe9bbd920f24c321220c022044846f5253a98983785a82227dc11e08fc2d826f6ec4c4704eed103e1605f681012103da5bac7b36d5aa38f531c6b9601e21bb598a4b6716ebed38b009a55dabde9440", "asm": "3045022100861aefc53d04ec333230784bc6c255b01283939781fbbe9bbd920f24c321220c022044846f5253a98983785a82227dc11e08fc2d826f6ec4c4704eed103e1605f681[ALL] 03da5bac7b36d5aa38f531c6b9601e21bb598a4b6716ebed38b009a55dabde9440"}, "vout": 1, "txid": "a836dc220e8460e22693702ce5c023e08892f42f1e375de7b813e200bea29527"}], "txid": "51cab3d6d0b533714266b0bd758d5889d825bd8ba05687f63b4ab49068148642", "blocktime": 1537872475, "version": 1, "confirmations": 11486, "time": 1537872475, "locktime": 542994, "vsize": 257, "size": 257}