{"hash": "51d60b20060cf8fdeeaaf2088b8b302a2c8785e8700d225726345bb042d11e06", "blockhash": "0000000000000000000dcc0f55137456b1a82d3642486a52398922ac4d620174", "vout": [{"scriptPubKey": {"reqSigs": 1, "hex": "76a914d2dc0e88f7759d24d55c55e4aec087db9f3066f688ac", "addresses": ["1LDvX6eRvPoAehcLT8mpzbbN6EXXXnMm4L"], "asm": "OP_DUP OP_HASH160 d2dc0e88f7759d24d55c55e4aec087db9f3066f6 OP_EQUALVERIFY OP_CHECKSIG", "type": "pubkeyhash"}, "value": 0.0330647, "n": 0}], "hex": "01000000013ed694c8c0b966077b45df947e6d4481bae76569515e5c40c943f32b4b1327e9000000006b483045022100e947e86fc9fa61d709db65039a0a8d8376f4908ff3974c293aa1a42bdad0e99802203fd6fd13ee495f628874bdf294290d9a9b169e31ac319af64c8ce59aebb3de870121035878446a766fc4323a81218aa1b8c613927ee22a68f64067729251501d64d672ffffffff01e6733200000000001976a914d2dc0e88f7759d24d55c55e4aec087db9f3066f688ac00000000", "vin": [{"sequence": 4294967295, "scriptSig": {"hex": "483045022100e947e86fc9fa61d709db65039a0a8d8376f4908ff3974c293aa1a42bdad0e99802203fd6fd13ee495f628874bdf294290d9a9b169e31ac319af64c8ce59aebb3de870121035878446a766fc4323a81218aa1b8c613927ee22a68f64067729251501d64d672", "asm": "3045022100e947e86fc9fa61d709db65039a0a8d8376f4908ff3974c293aa1a42bdad0e99802203fd6fd13ee495f628874bdf294290d9a9b169e31ac319af64c8ce59aebb3de87[ALL] 035878446a766fc4323a81218aa1b8c613927ee22a68f64067729251501d64d672"}, "vout": 0, "txid": "e927134b2bf343c9405c5e516965e7ba81446d7e94df457b0766b9c0c894d63e"}], "txid": "51d60b20060cf8fdeeaaf2088b8b302a2c8785e8700d225726345bb042d11e06", "blocktime": 1537870268, "version": 1, "confirmations": 11518, "time": 1537870268, "locktime": 0, "vsize": 192, "size": 192}