{"hash": "51d9bab1635b559660b1bc1c29cbcf171fe42aad0515edb5eb939c5bf9e18627", "blockhash": "0000000000000000000baef3f32e3676a92c3b2e5da21b426e4f302fc371ce76", "vout": [{"scriptPubKey": {"reqSigs": 1, "hex": "76a914ea05ffa686a5105da60175319581d66eecfd291688ac", "addresses": ["1NLQJgV6hK1bHTnwp4u9TzPYVjABzKQW29"], "asm": "OP_DUP OP_HASH160 ea05ffa686a5105da60175319581d66eecfd2916 OP_EQUALVERIFY OP_CHECKSIG", "type": "pubkeyhash"}, "value": 0.01436022, "n": 0}, {"scriptPubKey": {"reqSigs": 1, "hex": "76a9147931178d1343c66df7267a16d49ab1d088d3aad588ac", "addresses": ["1C3oaBdFCmMna7j6T2i1vQHbsGb6Y94b5z"], "asm": "OP_DUP OP_HASH160 7931178d1343c66df7267a16d49ab1d088d3aad5 OP_EQUALVERIFY OP_CHECKSIG", "type": "pubkeyhash"}, "value": 13.34510201, "n": 1}], "hex": "0100000001002a17cbd3542654ca51d2b15b09bc30f0d959b99f182936e4c10b6b08dd2676000000006b4830450221009ad441641ab8048a8791cfb497420d445e913a7fb6c4aa13d94862acc1f0c43c022017ec020b8f942ac614fcf96b74bc23c3bf667f4612350cb19d4691729bc54eb9012103d4f2655170d432af52e863e4a7fef74b8cc635ab253fe2702880f31ff33e6a57ffffffff0276e91500000000001976a914ea05ffa686a5105da60175319581d66eecfd291688ac79028b4f000000001976a9147931178d1343c66df7267a16d49ab1d088d3aad588ac00000000", "vin": [{"sequence": 4294967295, "scriptSig": {"hex": "4830450221009ad441641ab8048a8791cfb497420d445e913a7fb6c4aa13d94862acc1f0c43c022017ec020b8f942ac614fcf96b74bc23c3bf667f4612350cb19d4691729bc54eb9012103d4f2655170d432af52e863e4a7fef74b8cc635ab253fe2702880f31ff33e6a57", "asm": "30450221009ad441641ab8048a8791cfb497420d445e913a7fb6c4aa13d94862acc1f0c43c022017ec020b8f942ac614fcf96b74bc23c3bf667f4612350cb19d4691729bc54eb9[ALL] 03d4f2655170d432af52e863e4a7fef74b8cc635ab253fe2702880f31ff33e6a57"}, "vout": 0, "txid": "7626dd086b0bc1e43629189fb959d9f030bc095bb1d251ca542654d3cb172a00"}], "txid": "51d9bab1635b559660b1bc1c29cbcf171fe42aad0515edb5eb939c5bf9e18627", "blocktime": 1537876114, "version": 1, "confirmations": 11459, "time": 1537876114, "locktime": 0, "vsize": 226, "size": 226}