{"hash": "51dc5c4f8f13ea3d4f55820a5bb5d8c04e1738db32fd23bb18baa77f852fc3b7", "blockhash": "0000000000000000000baef3f32e3676a92c3b2e5da21b426e4f302fc371ce76", "vout": [{"scriptPubKey": {"reqSigs": 1, "hex": "a914553f6a9291d735c012c9bbd384668ce3a70374be87", "addresses": ["39TmL6EWSr2TLHuhubRTrrBtcYLSZtkJZD"], "asm": "OP_HASH160 553f6a9291d735c012c9bbd384668ce3a70374be OP_EQUAL", "type": "scripthash"}, "value": 0.0002, "n": 0}, {"scriptPubKey": {"reqSigs": 1, "hex": "76a914941add8f128b3ce161a6ae37f32fb74906aed33088ac", "addresses": ["1EW7C36Qgj5cweyVgpfEBdAhKDagbJF5XX"], "asm": "OP_DUP OP_HASH160 941add8f128b3ce161a6ae37f32fb74906aed330 OP_EQUALVERIFY OP_CHECKSIG", "type": "pubkeyhash"}, "value": 0.00677854, "n": 1}], "hex": "01000000010eb5224df2d27df2ac88dd2a4bda537c5cb19767bbdf8408070b255cea920aec010000006a47304402202eddbc1947cbcd7e1094bd61cdc3e014f44acf5a4e2c9c920b0c845e46b6e150022035a173f64e51542154d6e6afa66419714a59db534ceed41268e0cc64c2b89a6c012102115881f2c95027ea381ec14033da562904f2d7a02439d5abca341edf233da589ffffffff02204e00000000000017a914553f6a9291d735c012c9bbd384668ce3a70374be87de570a00000000001976a914941add8f128b3ce161a6ae37f32fb74906aed33088ac00000000", "vin": [{"sequence": 4294967295, "scriptSig": {"hex": "47304402202eddbc1947cbcd7e1094bd61cdc3e014f44acf5a4e2c9c920b0c845e46b6e150022035a173f64e51542154d6e6afa66419714a59db534ceed41268e0cc64c2b89a6c012102115881f2c95027ea381ec14033da562904f2d7a02439d5abca341edf233da589", "asm": "304402202eddbc1947cbcd7e1094bd61cdc3e014f44acf5a4e2c9c920b0c845e46b6e150022035a173f64e51542154d6e6afa66419714a59db534ceed41268e0cc64c2b89a6c[ALL] 02115881f2c95027ea381ec14033da562904f2d7a02439d5abca341edf233da589"}, "vout": 1, "txid": "ec0a92ea5c250b070884dfbb6797b15c7c53da4b2add88acf27dd2f24d22b50e"}], "txid": "51dc5c4f8f13ea3d4f55820a5bb5d8c04e1738db32fd23bb18baa77f852fc3b7", "blocktime": 1537876114, "version": 1, "confirmations": 11460, "time": 1537876114, "locktime": 0, "vsize": 223, "size": 223}