{"hash": "51dfa7994b16066ccd30bed4c060efb297ec5599fca080e738c50e3469664b70", "blockhash": "0000000000000000001f0ddff1eddb255c1121bcd4da4f1bc9a0da00cae72433", "vout": [{"scriptPubKey": {"reqSigs": 1, "hex": "76a914e349bc52d6b8100b58d3fce45135a91c5c128a1d88ac", "addresses": ["1MiningDkXkhKaXBTMKXfLemnk1YY5rbkT"], "asm": "OP_DUP OP_HASH160 e349bc52d6b8100b58d3fce45135a91c5c128a1d OP_EQUALVERIFY OP_CHECKSIG", "type": "pubkeyhash"}, "value": 0.07097261, "n": 0}], "hex": "01000000064ed26ae2b192d27b7bbcb49f8e6d1076e9c26ece7a7e95b947b9be8b3b486304000000006b483045022100f817c62d52a730bc056a3f44bfde089b13958029d23ed6b9c8baf38cb2c4a5790220653814c470d3a6ba001cb86753ce61566cb8b1c67a1f2b6eb2be2806cec82069012103027b7bcff2f4c84289b332a4239502f9a85286d749bf9d79b4a7f068828c881dfdffffff5c139da0c8291daaabec74a077e6c6c283afbf5901b21dea09d670ab9eb5af11000000006a47304402206fcb73ad21ab46739ebcfabfd674f86cba0732000ccf504281441b29b84734aa02207d50fbde188bbbf1c458631f6669c87481ac83ee115cfd41bb544ec3649f3795012102c3be678a3079480b12e832c5feb06bf204a0502d709ec00587303889056484cbfdfffffff20bf0184555064b8de876b47e358a89f5e3f82f941b68c5f6c98c5a9fb5fe3e020000006b483045022100846ec46b94d58a1398e69652e1aeb88d714e20867c6931d67da7bea14df3e4bb022054f6236f986cd8986886f54b555f3f1c7abdcb697db13bce4674889be84ba825012103c132c15b753df7f045e3632171d06c9d353e0f7897f33be2aee0df856c6a127efdffffffcf90854520fc1e98d1a7318becf5110be8911b6de1cff55010813f19d42c2793040000006b4830450221009cb526f56f5c0ed10409ef6a3ad83a46a25adf20085bdd5f497fa0d6cfac771b022021025d35ba33008de22b3d8ae35c0013d4695fdc9840bbb9d8201eed1d9d3a69012103c132c15b753df7f045e3632171d06c9d353e0f7897f33be2aee0df856c6a127efdffffff362abdfce6e1134f9267d0210d4853a1a9741aa9faff97d56f4f8dbc1170569c010000006a47304402207f836816ce2da9c32ac018da03f203bd7fcb1d75b9f411884a3b3356255d59ad022010bcfdbc85fdb84b699d75c1c99f97be914c5ef3f1806df636ebfd7810482c1a012103917fd595df8e72c36f7eb8d23e6ce2a878b3656269cc06c248b459aca20b936cfdffffffcfc1f7d6a7304a8239b985aa7dde8acdd0c534247398cd5cadf50a3920fc25a4000000006a473044022041dbc995efdbf94df7e4580d3c5d8ab1ca634ef729cfe3927754d7d7a743c8d2022015bb993f0935410f1e5bef5b323f562560e317dec0a951ec46835ada427ffad50121031c92892fcd6a63f86596c235ac4fde13362a3b2df5cfe15d69062f4c94675becfdffffff01ad4b6c00000000001976a914e349bc52d6b8100b58d3fce45135a91c5c128a1d88ac11490800", "vin": [{"sequence": 4294967293, "scriptSig": {"hex": "483045022100f817c62d52a730bc056a3f44bfde089b13958029d23ed6b9c8baf38cb2c4a5790220653814c470d3a6ba001cb86753ce61566cb8b1c67a1f2b6eb2be2806cec82069012103027b7bcff2f4c84289b332a4239502f9a85286d749bf9d79b4a7f068828c881d", "asm": "3045022100f817c62d52a730bc056a3f44bfde089b13958029d23ed6b9c8baf38cb2c4a5790220653814c470d3a6ba001cb86753ce61566cb8b1c67a1f2b6eb2be2806cec82069[ALL] 03027b7bcff2f4c84289b332a4239502f9a85286d749bf9d79b4a7f068828c881d"}, "vout": 0, "txid": "0463483b8bbeb947b9957e7ace6ec2e976106d8e9fb4bc7b7bd292b1e26ad24e"}, {"sequence": 4294967293, "scriptSig": {"hex": "47304402206fcb73ad21ab46739ebcfabfd674f86cba0732000ccf504281441b29b84734aa02207d50fbde188bbbf1c458631f6669c87481ac83ee115cfd41bb544ec3649f3795012102c3be678a3079480b12e832c5feb06bf204a0502d709ec00587303889056484cb", "asm": "304402206fcb73ad21ab46739ebcfabfd674f86cba0732000ccf504281441b29b84734aa02207d50fbde188bbbf1c458631f6669c87481ac83ee115cfd41bb544ec3649f3795[ALL] 02c3be678a3079480b12e832c5feb06bf204a0502d709ec00587303889056484cb"}, "vout": 0, "txid": "11afb59eab70d609ea1db20159bfaf83c2c6e677a074ecabaa1d29c8a09d135c"}, {"sequence": 4294967293, "scriptSig": {"hex": "483045022100846ec46b94d58a1398e69652e1aeb88d714e20867c6931d67da7bea14df3e4bb022054f6236f986cd8986886f54b555f3f1c7abdcb697db13bce4674889be84ba825012103c132c15b753df7f045e3632171d06c9d353e0f7897f33be2aee0df856c6a127e", "asm": "3045022100846ec46b94d58a1398e69652e1aeb88d714e20867c6931d67da7bea14df3e4bb022054f6236f986cd8986886f54b555f3f1c7abdcb697db13bce4674889be84ba825[ALL] 03c132c15b753df7f045e3632171d06c9d353e0f7897f33be2aee0df856c6a127e"}, "vout": 2, "txid": "3efeb59f5a8cc9f6c5681b942ff8e3f5898a357eb476e88d4b06554518f00bf2"}, {"sequence": 4294967293, "scriptSig": {"hex": "4830450221009cb526f56f5c0ed10409ef6a3ad83a46a25adf20085bdd5f497fa0d6cfac771b022021025d35ba33008de22b3d8ae35c0013d4695fdc9840bbb9d8201eed1d9d3a69012103c132c15b753df7f045e3632171d06c9d353e0f7897f33be2aee0df856c6a127e", "asm": "30450221009cb526f56f5c0ed10409ef6a3ad83a46a25adf20085bdd5f497fa0d6cfac771b022021025d35ba33008de22b3d8ae35c0013d4695fdc9840bbb9d8201eed1d9d3a69[ALL] 03c132c15b753df7f045e3632171d06c9d353e0f7897f33be2aee0df856c6a127e"}, "vout": 4, "txid": "93272cd4193f811050f5cfe16d1b91e80b11f5ec8b31a7d1981efc20458590cf"}, {"sequence": 4294967293, "scriptSig": {"hex": "47304402207f836816ce2da9c32ac018da03f203bd7fcb1d75b9f411884a3b3356255d59ad022010bcfdbc85fdb84b699d75c1c99f97be914c5ef3f1806df636ebfd7810482c1a012103917fd595df8e72c36f7eb8d23e6ce2a878b3656269cc06c248b459aca20b936c", "asm": "304402207f836816ce2da9c32ac018da03f203bd7fcb1d75b9f411884a3b3356255d59ad022010bcfdbc85fdb84b699d75c1c99f97be914c5ef3f1806df636ebfd7810482c1a[ALL] 03917fd595df8e72c36f7eb8d23e6ce2a878b3656269cc06c248b459aca20b936c"}, "vout": 1, "txid": "9c567011bc8d4f6fd597fffaa91a74a9a153480d21d067924f13e1e6fcbd2a36"}, {"sequence": 4294967293, "scriptSig": {"hex": "473044022041dbc995efdbf94df7e4580d3c5d8ab1ca634ef729cfe3927754d7d7a743c8d2022015bb993f0935410f1e5bef5b323f562560e317dec0a951ec46835ada427ffad50121031c92892fcd6a63f86596c235ac4fde13362a3b2df5cfe15d69062f4c94675bec", "asm": "3044022041dbc995efdbf94df7e4580d3c5d8ab1ca634ef729cfe3927754d7d7a743c8d2022015bb993f0935410f1e5bef5b323f562560e317dec0a951ec46835ada427ffad5[ALL] 031c92892fcd6a63f86596c235ac4fde13362a3b2df5cfe15d69062f4c94675bec"}, "vout": 0, "txid": "a425fc20390af5ad5ccd98732434c5d0cd8ade7daa85b939824a30a7d6f7c1cf"}], "txid": "51dfa7994b16066ccd30bed4c060efb297ec5599fca080e738c50e3469664b70", "blocktime": 1537872018, "version": 1, "confirmations": 11489, "time": 1537872018, "locktime": 542993, "vsize": 929, "size": 929}