{"hash": "51e3850e4cf86e9babfaa8171a529812043611af8dbcfbc1510feea429db3dc0", "blockhash": "0000000000000000000e13cef7c366c0283d82e591d1acd082e914b08063cdf1", "vout": [{"scriptPubKey": {"reqSigs": 1, "hex": "76a9148b58307dc8a3992502801d3c87b74d91700e3b2288ac", "addresses": ["1DhnaB1yg5eKngMG25FsFJrHM9sxGvBHm6"], "asm": "OP_DUP OP_HASH160 8b58307dc8a3992502801d3c87b74d91700e3b22 OP_EQUALVERIFY OP_CHECKSIG", "type": "pubkeyhash"}, "value": 0.00097, "n": 0}, {"scriptPubKey": {"reqSigs": 1, "hex": "76a914256d54f9eb70716f0d0136e79c059f89ffe0ed5e88ac", "addresses": ["14QtyccT7rxFAqm6VzrCaVMZ4YtWEc16EU"], "asm": "OP_DUP OP_HASH160 256d54f9eb70716f0d0136e79c059f89ffe0ed5e OP_EQUALVERIFY OP_CHECKSIG", "type": "pubkeyhash"}, "value": 0.05327785, "n": 1}], "hex": "0100000001b13f644eaa1621afe6f2f0b0b26bd93f0784ffea1f428dc4d14af011f76d8e51010000008b4830450221009d852ea75f3262d5e204d8fe4babc5cecab50f97eab43d9c3f62f3101f3a535902205d3a2960dfd3d86a7d4d391945afe320ef1c522ef3fa580d3e9c4f91cd3a200301410439d3a8aae67f5dc5ddc7c99bf21305c55f45c99bca0ab92f36b62d36f49482d850b7bf83f6c4340b30fb50e192597e58c6d269bddfcec506c2a2e834fd2da77dffffffff02e87a0100000000001976a9148b58307dc8a3992502801d3c87b74d91700e3b2288aca94b5100000000001976a914256d54f9eb70716f0d0136e79c059f89ffe0ed5e88ac00000000", "vin": [{"sequence": 4294967295, "scriptSig": {"hex": "4830450221009d852ea75f3262d5e204d8fe4babc5cecab50f97eab43d9c3f62f3101f3a535902205d3a2960dfd3d86a7d4d391945afe320ef1c522ef3fa580d3e9c4f91cd3a200301410439d3a8aae67f5dc5ddc7c99bf21305c55f45c99bca0ab92f36b62d36f49482d850b7bf83f6c4340b30fb50e192597e58c6d269bddfcec506c2a2e834fd2da77d", "asm": "30450221009d852ea75f3262d5e204d8fe4babc5cecab50f97eab43d9c3f62f3101f3a535902205d3a2960dfd3d86a7d4d391945afe320ef1c522ef3fa580d3e9c4f91cd3a2003[ALL] 0439d3a8aae67f5dc5ddc7c99bf21305c55f45c99bca0ab92f36b62d36f49482d850b7bf83f6c4340b30fb50e192597e58c6d269bddfcec506c2a2e834fd2da77d"}, "vout": 1, "txid": "518e6df711f04ad1c48d421feaff84073fd96bb2b0f0f2e6af2116aa4e643fb1"}], "txid": "51e3850e4cf86e9babfaa8171a529812043611af8dbcfbc1510feea429db3dc0", "blocktime": 1537871767, "version": 1, "confirmations": 11490, "time": 1537871767, "locktime": 0, "vsize": 258, "size": 258}