{"hash": "ea89373b4d743139aa3a0b6d0cc7ee10775874b6a95f2f03eb0cecdbfa884d82", "blockhash": "0000000000000000000baef3f32e3676a92c3b2e5da21b426e4f302fc371ce76", "vout": [{"scriptPubKey": {"reqSigs": 1, "hex": "002058c8797f181e000075cb9a18a9662013b795012e86acc04d56a2d229e7b8d7c4", "addresses": ["bc1qtry8jlccrcqqqawtngv2je3qzwme2qfws6kvqn2k5tfzneac6lzqpgummp"], "asm": "0 58c8797f181e000075cb9a18a9662013b795012e86acc04d56a2d229e7b8d7c4", "type": "witness_v0_scripthash"}, "value": 0.00281974, "n": 0}], "hex": "010000000001016482ec24feb35551688cec6c320a9e3f9d2f12a8096c6d3669135f70dad96e56000000001716001458cf7ba851ba48bd352edf518fda14802eee600bffffffff01764d04000000000022002058c8797f181e000075cb9a18a9662013b795012e86acc04d56a2d229e7b8d7c40247304402206c94b126095a7f96ba1f8ead97769a537f09ebbea2249ecf7d64d9a61bbda03302204c36052f253dfc474d5616ee0bae797dd3e36521e30c130522c0fc6d35daac47012102521b4251a0cf53236912b230d450ff78239c0434c34cedd80e131dba49f9ef7300000000", "vin": [{"txinwitness": ["304402206c94b126095a7f96ba1f8ead97769a537f09ebbea2249ecf7d64d9a61bbda03302204c36052f253dfc474d5616ee0bae797dd3e36521e30c130522c0fc6d35daac4701", "02521b4251a0cf53236912b230d450ff78239c0434c34cedd80e131dba49f9ef73"], "sequence": 4294967295, "scriptSig": {"hex": "16001458cf7ba851ba48bd352edf518fda14802eee600b", "asm": "001458cf7ba851ba48bd352edf518fda14802eee600b"}, "vout": 0, "txid": "566ed9da705f1369366d6c09a8122f9d3f9e0a326cec8c685155b3fe24ec8264"}], "txid": "51e8f6463d065c593c7ce6ce8f16a5c8f61816c2ec4456730597f0395a30e362", "blocktime": 1537876114, "version": 1, "confirmations": 11462, "time": 1537876114, "locktime": 0, "vsize": 145, "size": 226}