{"hash": "32facb3267ef25b4039b1f8a66da285ebd37b7e19f9b7cc3d0ed09e2b1053c8a", "blockhash": "0000000000000000000baef3f32e3676a92c3b2e5da21b426e4f302fc371ce76", "vout": [{"scriptPubKey": {"reqSigs": 1, "hex": "a91473f9dbd7cca3c08909d8bff8f9bffe1e1ee042a187", "addresses": ["3CGEx6V2x8uhxCokJ4tYby1femFCtMQ24Y"], "asm": "OP_HASH160 73f9dbd7cca3c08909d8bff8f9bffe1e1ee042a1 OP_EQUAL", "type": "scripthash"}, "value": 0.002997, "n": 0}, {"scriptPubKey": {"reqSigs": 1, "hex": "a9141d005aa00b0d8183a3a13f2b52a386cc2b1b47f687", "addresses": ["34LMwhkqoSqjivL51w39QshdwKp9QnPhjK"], "asm": "OP_HASH160 1d005aa00b0d8183a3a13f2b52a386cc2b1b47f6 OP_EQUAL", "type": "scripthash"}, "value": 0.137888, "n": 1}], "hex": "010000000001013c8fd62ee8e5784b6f19ea08ccf13e57942861c8de5b7fe1d80f0f3a589640d000000000232200204469b823b995a405ebf50266c22f7cf1f91b46bd9fe4830f11d5096920db87d5ffffffff02b49204000000000017a91473f9dbd7cca3c08909d8bff8f9bffe1e1ee042a1878066d2000000000017a9141d005aa00b0d8183a3a13f2b52a386cc2b1b47f68704004830450221009ba54021bef1e2c5f5bad170497caa0f2e369e33a0b10a7a01ff43c9a86cd79502205db98c8e1904a452b0e923d1510afe1efc1e4cae2106ca9c944c9cd97ff79d7e014730440220109985e6873f9616a4a3459aab6afec1a7b408cdea2a8241512816cf21eb050102206c26abfa3942bd9e0a268ebfe7c210650a08fcd7959c9d4a009740b9a6727adb0169522102d64e2def48219d4290e7e1428fa32b15df22f583f224869e6648cfd69646f78d2103f9acfdbc40521629c1670561f9fffd377811f4d53e75cc14add0371a690f2b052103ffc4d299506821016a1d00b917ad64f2a04f5ced051f7c28ebeab6a8ea666ec053ae00000000", "vin": [{"txinwitness": ["", "30450221009ba54021bef1e2c5f5bad170497caa0f2e369e33a0b10a7a01ff43c9a86cd79502205db98c8e1904a452b0e923d1510afe1efc1e4cae2106ca9c944c9cd97ff79d7e01", "30440220109985e6873f9616a4a3459aab6afec1a7b408cdea2a8241512816cf21eb050102206c26abfa3942bd9e0a268ebfe7c210650a08fcd7959c9d4a009740b9a6727adb01", "522102d64e2def48219d4290e7e1428fa32b15df22f583f224869e6648cfd69646f78d2103f9acfdbc40521629c1670561f9fffd377811f4d53e75cc14add0371a690f2b052103ffc4d299506821016a1d00b917ad64f2a04f5ced051f7c28ebeab6a8ea666ec053ae"], "sequence": 4294967295, "scriptSig": {"hex": "2200204469b823b995a405ebf50266c22f7cf1f91b46bd9fe4830f11d5096920db87d5", "asm": "00204469b823b995a405ebf50266c22f7cf1f91b46bd9fe4830f11d5096920db87d5"}, "vout": 0, "txid": "d04096583a0f0fd8e17f5bdec8612894573ef1cc08ea196f4b78e5e82ed68f3c"}], "txid": "51ea313eb27b9a9f20831f0a76a4aa8c10055092552169f44e8ebedac1fd2729", "blocktime": 1537876114, "version": 1, "confirmations": 11462, "time": 1537876114, "locktime": 0, "vsize": 214, "size": 405}