{"hash": "51eb2305f9bf409a17bada109b5a8743ffae02a5cf9ef9abae0fd7069546b3aa", "blockhash": "0000000000000000001f0ddff1eddb255c1121bcd4da4f1bc9a0da00cae72433", "vout": [{"scriptPubKey": {"reqSigs": 1, "hex": "76a9147a4eceb74d1746bb19166746e4b050a08a170f6188ac", "addresses": ["1C9hr3WkK6jgCLfkkGS85r54XxkqTyBnXc"], "asm": "OP_DUP OP_HASH160 7a4eceb74d1746bb19166746e4b050a08a170f61 OP_EQUALVERIFY OP_CHECKSIG", "type": "pubkeyhash"}, "value": 0.00022344, "n": 0}, {"scriptPubKey": {"reqSigs": 1, "hex": "76a91494c741568ce0c43824938aaf1b717532f222b0d188ac", "addresses": ["1EZfhtS7xXWApzMdKoNHtLZB2NZumS3jG4"], "asm": "OP_DUP OP_HASH160 94c741568ce0c43824938aaf1b717532f222b0d1 OP_EQUALVERIFY OP_CHECKSIG", "type": "pubkeyhash"}, "value": 0.004686, "n": 1}], "hex": "010000000e919e716a452a967bf1d8b1d8a16fb03b76627216d51980b54e7054b1bd743104000000006a473044022041c8a74cf4d3b43aa58830648856c46e24cc8ba987cae9f113d754f4f4a2c6500220441e1b8ced0a3bad195ffb3d002457622cf4825e209481e62c2c384054427383012103a2e5843365793abbb7b7dfdeb8da1341a2bc0f239747442ccdc070211b6c1aa8ffffffff6e63dd604c05cdee94e0c826ff5711abd56e5a207bcb1478cd5afff58a464b07000000006a47304402207c679ec25abe67020b5c2784bb099a7e5b45505d802109306d5dc5aec56d5e07022059660de099aa5acf73145df8e377fcba225f21d95647d3be1a302749f41cb063012103a2e5843365793abbb7b7dfdeb8da1341a2bc0f239747442ccdc070211b6c1aa8ffffffff927727207220475cd08451b70bca8e43db16f761c3800c26da0a3dfa507ddd1f000000006a473044022032ed504d07397f273f76a9d7c59c406ba7153028380489cc9403707563e69d7802203f8c400d2b5887bab7d8d2a1014e27c86d8d06f55da40c3cb39984babf8eb8ca012102f0ff4fc6337d33cc98578d5281b2583a12704014fe731f1d3d86fa834c819f9dffffffff6f078891b87367875beb6f864c61abe133e8209f7f305cb9b1c0c283b3fc2729000000006a473044022052a9be20ec60ae98ca43cb18c2b07730ff2347a577874a4e46e954e81692d84502206ea432afe1a85eb5e71b6e97ecfc30d66a1840516bb4d645488148d2ed264029012103a2e5843365793abbb7b7dfdeb8da1341a2bc0f239747442ccdc070211b6c1aa8ffffffff49b9c543cba54f40aeacac32cda057f4f0181ae72a471efecc1e85d9f1610737000000006b483045022100ded7e9799027a8101e52f2f277a01f027e274b38329f0079a36786a2df125c190220253919c912e8670c7f98f9acf6e10ccacbd13637b029f356b8abec8c40faebcd01210231824663c2632f47a47e4feecb0939376d38cf02890b1c4ce3b4266b14e57e0effffffff785da9709f70364c3a1814bb19c09dc7a44d9c4a12a7eb6ce2487fc791ef3950000000006b483045022100b25931cca901e80b7db408b51ca919c8d7fd392c2e180c0e4b51d50c1bd45c97022046ff14ac1792bc3023abc5b8272f3ee74cb5eaf456200487495c84f2083dfb0201210231824663c2632f47a47e4feecb0939376d38cf02890b1c4ce3b4266b14e57e0effffffff62aac8f60b34fef2d368b15187a5131f9f6bd34781c5569244fd334cf49a9d5e000000006b483045022100aae65d5f6f553e4e823750c70ef57cf4733627b8af83569605d154e879f0f4b102207f598d22038ee7e31cc2686b7fb54ad22a6307cac2905365df6b2ca1abee6456012103a2e5843365793abbb7b7dfdeb8da1341a2bc0f239747442ccdc070211b6c1aa8ffffffff6f8028e9ba13e6004209323169d1000ff91943353e497e1bdc392c83d8e1386d000000006b483045022100f6406bc7bb15a7bfb3bede7b8783226397dc90f947808815fd62ef521c00d6e202207cbf51bab58b822cd626e58032e34b1b5fe648ad4aeb5e853bee7038445c3a9a0121020d8c299e8e398ff0989016affda4773c4c2a100276a49c4b16bca325c035e0e2ffffffff092230984648d9d2832a05985b195962a154ba5540ff3534ea4f82dd2216ad76000000006a473044022067fb458b9729560f2530bf9f1a74fc738602d2109cdaf33290d1ce6d1d4c007d02206e653d6a0487d8076b306d7abd078345503c36f2324383d9ab1fd035eb5372a401210231824663c2632f47a47e4feecb0939376d38cf02890b1c4ce3b4266b14e57e0effffffffeb5ae6520ed43531b8903480470d104e6a9f106c7356fc5c0def3cbd6643f784000000006a473044022066747a5949c77b33f4fc461941f01b77dca410f8ab81e33c268b0b9f49ca262602206e371cc0a0a958fb4fdc2fceeafde635988f60f8a8e3c362fa326ed8dc6d5713012103a2e5843365793abbb7b7dfdeb8da1341a2bc0f239747442ccdc070211b6c1aa8ffffffff9f512c15c200b00106c447ee4ff4c37b71783296beec74ffaa4e1cbed93d8ca5000000006a473044022018749e3197b88a79275098add93134721cff82d6bf99153b4d6b29d61da2eccf0220074bf7b06baa655e198c6162e4ec3006d37f043f09eb3d54e9d71b7d65a09560012102f0ff4fc6337d33cc98578d5281b2583a12704014fe731f1d3d86fa834c819f9dffffffffeb9313c1b9242423f05694dbb1edd9250263dec361f7df801abfb700b5a62dc4000000006b483045022100d4cd9c37eb425b6517f333b443df9abb48e6f3c47ea4659292419d5bb956648e02205153dda7047539863a41ed393d73b366fc53ee6deceb4969a682dc7643eac304012103a2e5843365793abbb7b7dfdeb8da1341a2bc0f239747442ccdc070211b6c1aa8ffffffff9defd30703bad1e47669c98b596756ab2a1b5454bd199b50f7897cb09c7cf8ec000000006b483045022100c51187f225e6d615928e28bd8b32dfaffda1312f9777d1af8808d394613c563502201aa325a70a1c2bec6655d4666e51330450a0bc47179e7458f3bff783c8e0078e01210231824663c2632f47a47e4feecb0939376d38cf02890b1c4ce3b4266b14e57e0effffffff0a158f24a35e8755479e8af3ee3e069383ea751884182b4a9e62391771f79def000000006b483045022100fc0499f5f65baee0909f54d4926dd8dc8b0ca0edd51bdacd332656c336b3267a02200fbf72d1e0531598996d2fb5fe845fee1e5165cb31839d13ead2f863d963f31601210231824663c2632f47a47e4feecb0939376d38cf02890b1c4ce3b4266b14e57e0effffffff0248570000000000001976a9147a4eceb74d1746bb19166746e4b050a08a170f6188ac78260700000000001976a91494c741568ce0c43824938aaf1b717532f222b0d188ac00000000", "vin": [{"sequence": 4294967295, "scriptSig": {"hex": "473044022041c8a74cf4d3b43aa58830648856c46e24cc8ba987cae9f113d754f4f4a2c6500220441e1b8ced0a3bad195ffb3d002457622cf4825e209481e62c2c384054427383012103a2e5843365793abbb7b7dfdeb8da1341a2bc0f239747442ccdc070211b6c1aa8", "asm": "3044022041c8a74cf4d3b43aa58830648856c46e24cc8ba987cae9f113d754f4f4a2c6500220441e1b8ced0a3bad195ffb3d002457622cf4825e209481e62c2c384054427383[ALL] 03a2e5843365793abbb7b7dfdeb8da1341a2bc0f239747442ccdc070211b6c1aa8"}, "vout": 0, "txid": "043174bdb154704eb58019d5167262763bb06fa1d8b1d8f17b962a456a719e91"}, {"sequence": 4294967295, "scriptSig": {"hex": "47304402207c679ec25abe67020b5c2784bb099a7e5b45505d802109306d5dc5aec56d5e07022059660de099aa5acf73145df8e377fcba225f21d95647d3be1a302749f41cb063012103a2e5843365793abbb7b7dfdeb8da1341a2bc0f239747442ccdc070211b6c1aa8", "asm": "304402207c679ec25abe67020b5c2784bb099a7e5b45505d802109306d5dc5aec56d5e07022059660de099aa5acf73145df8e377fcba225f21d95647d3be1a302749f41cb063[ALL] 03a2e5843365793abbb7b7dfdeb8da1341a2bc0f239747442ccdc070211b6c1aa8"}, "vout": 0, "txid": "074b468af5ff5acd7814cb7b205a6ed5ab1157ff26c8e094eecd054c60dd636e"}, {"sequence": 4294967295, "scriptSig": {"hex": "473044022032ed504d07397f273f76a9d7c59c406ba7153028380489cc9403707563e69d7802203f8c400d2b5887bab7d8d2a1014e27c86d8d06f55da40c3cb39984babf8eb8ca012102f0ff4fc6337d33cc98578d5281b2583a12704014fe731f1d3d86fa834c819f9d", "asm": "3044022032ed504d07397f273f76a9d7c59c406ba7153028380489cc9403707563e69d7802203f8c400d2b5887bab7d8d2a1014e27c86d8d06f55da40c3cb39984babf8eb8ca[ALL] 02f0ff4fc6337d33cc98578d5281b2583a12704014fe731f1d3d86fa834c819f9d"}, "vout": 0, "txid": "1fdd7d50fa3d0ada260c80c361f716db438eca0bb75184d05c47207220277792"}, {"sequence": 4294967295, "scriptSig": {"hex": "473044022052a9be20ec60ae98ca43cb18c2b07730ff2347a577874a4e46e954e81692d84502206ea432afe1a85eb5e71b6e97ecfc30d66a1840516bb4d645488148d2ed264029012103a2e5843365793abbb7b7dfdeb8da1341a2bc0f239747442ccdc070211b6c1aa8", "asm": "3044022052a9be20ec60ae98ca43cb18c2b07730ff2347a577874a4e46e954e81692d84502206ea432afe1a85eb5e71b6e97ecfc30d66a1840516bb4d645488148d2ed264029[ALL] 03a2e5843365793abbb7b7dfdeb8da1341a2bc0f239747442ccdc070211b6c1aa8"}, "vout": 0, "txid": "2927fcb383c2c0b1b95c307f9f20e833e1ab614c866feb5b876773b89188076f"}, {"sequence": 4294967295, "scriptSig": {"hex": "483045022100ded7e9799027a8101e52f2f277a01f027e274b38329f0079a36786a2df125c190220253919c912e8670c7f98f9acf6e10ccacbd13637b029f356b8abec8c40faebcd01210231824663c2632f47a47e4feecb0939376d38cf02890b1c4ce3b4266b14e57e0e", "asm": "3045022100ded7e9799027a8101e52f2f277a01f027e274b38329f0079a36786a2df125c190220253919c912e8670c7f98f9acf6e10ccacbd13637b029f356b8abec8c40faebcd[ALL] 0231824663c2632f47a47e4feecb0939376d38cf02890b1c4ce3b4266b14e57e0e"}, "vout": 0, "txid": "370761f1d9851eccfe1e472ae71a18f0f457a0cd32acacae404fa5cb43c5b949"}, {"sequence": 4294967295, "scriptSig": {"hex": "483045022100b25931cca901e80b7db408b51ca919c8d7fd392c2e180c0e4b51d50c1bd45c97022046ff14ac1792bc3023abc5b8272f3ee74cb5eaf456200487495c84f2083dfb0201210231824663c2632f47a47e4feecb0939376d38cf02890b1c4ce3b4266b14e57e0e", "asm": "3045022100b25931cca901e80b7db408b51ca919c8d7fd392c2e180c0e4b51d50c1bd45c97022046ff14ac1792bc3023abc5b8272f3ee74cb5eaf456200487495c84f2083dfb02[ALL] 0231824663c2632f47a47e4feecb0939376d38cf02890b1c4ce3b4266b14e57e0e"}, "vout": 0, "txid": "5039ef91c77f48e26ceba7124a9c4da4c79dc019bb14183a4c36709f70a95d78"}, {"sequence": 4294967295, "scriptSig": {"hex": "483045022100aae65d5f6f553e4e823750c70ef57cf4733627b8af83569605d154e879f0f4b102207f598d22038ee7e31cc2686b7fb54ad22a6307cac2905365df6b2ca1abee6456012103a2e5843365793abbb7b7dfdeb8da1341a2bc0f239747442ccdc070211b6c1aa8", "asm": "3045022100aae65d5f6f553e4e823750c70ef57cf4733627b8af83569605d154e879f0f4b102207f598d22038ee7e31cc2686b7fb54ad22a6307cac2905365df6b2ca1abee6456[ALL] 03a2e5843365793abbb7b7dfdeb8da1341a2bc0f239747442ccdc070211b6c1aa8"}, "vout": 0, "txid": "5e9d9af44c33fd449256c58147d36b9f1f13a58751b168d3f2fe340bf6c8aa62"}, {"sequence": 4294967295, "scriptSig": {"hex": "483045022100f6406bc7bb15a7bfb3bede7b8783226397dc90f947808815fd62ef521c00d6e202207cbf51bab58b822cd626e58032e34b1b5fe648ad4aeb5e853bee7038445c3a9a0121020d8c299e8e398ff0989016affda4773c4c2a100276a49c4b16bca325c035e0e2", "asm": "3045022100f6406bc7bb15a7bfb3bede7b8783226397dc90f947808815fd62ef521c00d6e202207cbf51bab58b822cd626e58032e34b1b5fe648ad4aeb5e853bee7038445c3a9a[ALL] 020d8c299e8e398ff0989016affda4773c4c2a100276a49c4b16bca325c035e0e2"}, "vout": 0, "txid": "6d38e1d8832c39dc1b7e493e354319f90f00d1693132094200e613bae928806f"}, {"sequence": 4294967295, "scriptSig": {"hex": "473044022067fb458b9729560f2530bf9f1a74fc738602d2109cdaf33290d1ce6d1d4c007d02206e653d6a0487d8076b306d7abd078345503c36f2324383d9ab1fd035eb5372a401210231824663c2632f47a47e4feecb0939376d38cf02890b1c4ce3b4266b14e57e0e", "asm": "3044022067fb458b9729560f2530bf9f1a74fc738602d2109cdaf33290d1ce6d1d4c007d02206e653d6a0487d8076b306d7abd078345503c36f2324383d9ab1fd035eb5372a4[ALL] 0231824663c2632f47a47e4feecb0939376d38cf02890b1c4ce3b4266b14e57e0e"}, "vout": 0, "txid": "76ad1622dd824fea3435ff4055ba54a16259195b98052a83d2d9484698302209"}, {"sequence": 4294967295, "scriptSig": {"hex": "473044022066747a5949c77b33f4fc461941f01b77dca410f8ab81e33c268b0b9f49ca262602206e371cc0a0a958fb4fdc2fceeafde635988f60f8a8e3c362fa326ed8dc6d5713012103a2e5843365793abbb7b7dfdeb8da1341a2bc0f239747442ccdc070211b6c1aa8", "asm": "3044022066747a5949c77b33f4fc461941f01b77dca410f8ab81e33c268b0b9f49ca262602206e371cc0a0a958fb4fdc2fceeafde635988f60f8a8e3c362fa326ed8dc6d5713[ALL] 03a2e5843365793abbb7b7dfdeb8da1341a2bc0f239747442ccdc070211b6c1aa8"}, "vout": 0, "txid": "84f74366bd3cef0d5cfc56736c109f6a4e100d47803490b83135d40e52e65aeb"}, {"sequence": 4294967295, "scriptSig": {"hex": "473044022018749e3197b88a79275098add93134721cff82d6bf99153b4d6b29d61da2eccf0220074bf7b06baa655e198c6162e4ec3006d37f043f09eb3d54e9d71b7d65a09560012102f0ff4fc6337d33cc98578d5281b2583a12704014fe731f1d3d86fa834c819f9d", "asm": "3044022018749e3197b88a79275098add93134721cff82d6bf99153b4d6b29d61da2eccf0220074bf7b06baa655e198c6162e4ec3006d37f043f09eb3d54e9d71b7d65a09560[ALL] 02f0ff4fc6337d33cc98578d5281b2583a12704014fe731f1d3d86fa834c819f9d"}, "vout": 0, "txid": "a58c3dd9be1c4eaaff74ecbe963278717bc3f44fee47c40601b000c2152c519f"}, {"sequence": 4294967295, "scriptSig": {"hex": "483045022100d4cd9c37eb425b6517f333b443df9abb48e6f3c47ea4659292419d5bb956648e02205153dda7047539863a41ed393d73b366fc53ee6deceb4969a682dc7643eac304012103a2e5843365793abbb7b7dfdeb8da1341a2bc0f239747442ccdc070211b6c1aa8", "asm": "3045022100d4cd9c37eb425b6517f333b443df9abb48e6f3c47ea4659292419d5bb956648e02205153dda7047539863a41ed393d73b366fc53ee6deceb4969a682dc7643eac304[ALL] 03a2e5843365793abbb7b7dfdeb8da1341a2bc0f239747442ccdc070211b6c1aa8"}, "vout": 0, "txid": "c42da6b500b7bf1a80dff761c3de630225d9edb1db9456f0232424b9c11393eb"}, {"sequence": 4294967295, "scriptSig": {"hex": "483045022100c51187f225e6d615928e28bd8b32dfaffda1312f9777d1af8808d394613c563502201aa325a70a1c2bec6655d4666e51330450a0bc47179e7458f3bff783c8e0078e01210231824663c2632f47a47e4feecb0939376d38cf02890b1c4ce3b4266b14e57e0e", "asm": "3045022100c51187f225e6d615928e28bd8b32dfaffda1312f9777d1af8808d394613c563502201aa325a70a1c2bec6655d4666e51330450a0bc47179e7458f3bff783c8e0078e[ALL] 0231824663c2632f47a47e4feecb0939376d38cf02890b1c4ce3b4266b14e57e0e"}, "vout": 0, "txid": "ecf87c9cb07c89f7509b19bd54541b2aab5667598bc96976e4d1ba0307d3ef9d"}, {"sequence": 4294967295, "scriptSig": {"hex": "483045022100fc0499f5f65baee0909f54d4926dd8dc8b0ca0edd51bdacd332656c336b3267a02200fbf72d1e0531598996d2fb5fe845fee1e5165cb31839d13ead2f863d963f31601210231824663c2632f47a47e4feecb0939376d38cf02890b1c4ce3b4266b14e57e0e", "asm": "3045022100fc0499f5f65baee0909f54d4926dd8dc8b0ca0edd51bdacd332656c336b3267a02200fbf72d1e0531598996d2fb5fe845fee1e5165cb31839d13ead2f863d963f316[ALL] 0231824663c2632f47a47e4feecb0939376d38cf02890b1c4ce3b4266b14e57e0e"}, "vout": 0, "txid": "ef9df7711739629e4a2b18841875ea8393063eeef38a9e4755875ea3248f150a"}], "txid": "51eb2305f9bf409a17bada109b5a8743ffae02a5cf9ef9abae0fd7069546b3aa", "blocktime": 1537872018, "version": 1, "confirmations": 11489, "time": 1537872018, "locktime": 0, "vsize": 2143, "size": 2143}