{"hash": "51ee83240893fb9642effc58d114cd4b2c7f3a70aa95df90ec42dc70ad2d5fdf", "blockhash": "00000000000000000017f5eb5941039fbcee6240d03bc1f2f8e35350df66a1d8", "vout": [{"scriptPubKey": {"reqSigs": 1, "hex": "76a914742d64b88889321d7668889a3992666a5945b9af88ac", "addresses": ["1BbHmF9Rzp7n6HyWTiiFc7RGvsCUajoRUD"], "asm": "OP_DUP OP_HASH160 742d64b88889321d7668889a3992666a5945b9af OP_EQUALVERIFY OP_CHECKSIG", "type": "pubkeyhash"}, "value": 0.0005392, "n": 0}, {"scriptPubKey": {"type": "nulldata", "hex": "6a4c50000077fd000111e85041433989018c4eec9bd19ed074892d00f8e87af8e8e963c7cfd5b9c612cb83320704831df896aeb96185b45baa19830613cebbf6251a09bc9a9526289ac0f6612cd74e33776ee4", "asm": "OP_RETURN 000077fd000111e85041433989018c4eec9bd19ed074892d00f8e87af8e8e963c7cfd5b9c612cb83320704831df896aeb96185b45baa19830613cebbf6251a09bc9a9526289ac0f6612cd74e33776ee4"}, "value": 0.0, "n": 1}], "hex": "0100000001483ec90edba470a1213fa2bc728a4c7c87ed4207e99ddd6603345d070a87b170010000006a473044022045e5600e507f3a66ce35b831df2800ac104252b03393aadf1e860760bd484ea30220535eccf6e8d251103012ad28239ce7d83f2e5f7eb3fa580058ec10e95afc349d012102dbab08ebd653d800ef7f786051b6c797f33717c0f86bd5434af29523ce1cde76ffffffff02a0d20000000000001976a914742d64b88889321d7668889a3992666a5945b9af88ac0000000000000000536a4c50000077fd000111e85041433989018c4eec9bd19ed074892d00f8e87af8e8e963c7cfd5b9c612cb83320704831df896aeb96185b45baa19830613cebbf6251a09bc9a9526289ac0f6612cd74e33776ee400000000", "vin": [{"sequence": 4294967295, "scriptSig": {"hex": "473044022045e5600e507f3a66ce35b831df2800ac104252b03393aadf1e860760bd484ea30220535eccf6e8d251103012ad28239ce7d83f2e5f7eb3fa580058ec10e95afc349d012102dbab08ebd653d800ef7f786051b6c797f33717c0f86bd5434af29523ce1cde76", "asm": "3044022045e5600e507f3a66ce35b831df2800ac104252b03393aadf1e860760bd484ea30220535eccf6e8d251103012ad28239ce7d83f2e5f7eb3fa580058ec10e95afc349d[ALL] 02dbab08ebd653d800ef7f786051b6c797f33717c0f86bd5434af29523ce1cde76"}, "vout": 1, "txid": "70b1870a075d340366dd9de90742ed877c4c8a72bca23f21a170a4db0ec93e48"}], "txid": "51ee83240893fb9642effc58d114cd4b2c7f3a70aa95df90ec42dc70ad2d5fdf", "blocktime": 1537874412, "version": 1, "confirmations": 11467, "time": 1537874412, "locktime": 0, "vsize": 283, "size": 283}