{"hash": "51f271f7c3081ece18041862bf80ea8077264986160ab586670bd6c0ae7eef7f", "blockhash": "00000000000000000004ffacab907a6b429b9a5745fa0b75af4234bf69dd7176", "vout": [{"scriptPubKey": {"reqSigs": 1, "hex": "76a914179f41297cfc55b74f4d4de732fb1b990f1f8bfd88ac", "addresses": ["139uKcU1UoPJCSv2s9EAnvmqQsaa3yqYEw"], "asm": "OP_DUP OP_HASH160 179f41297cfc55b74f4d4de732fb1b990f1f8bfd OP_EQUALVERIFY OP_CHECKSIG", "type": "pubkeyhash"}, "value": 0.00050038, "n": 0}, {"scriptPubKey": {"type": "nulldata", "hex": "6a4c500000781400015db435de848d4898009fffa1702940d64fa54d8eb2d19ed074892d00f8e8966f861419e591b40a61c2bfa2d1b1055baa1bca06151c4efe29a49f20599f7cb8fbacf7bab7719c405f2d9a", "asm": "OP_RETURN 0000781400015db435de848d4898009fffa1702940d64fa54d8eb2d19ed074892d00f8e8966f861419e591b40a61c2bfa2d1b1055baa1bca06151c4efe29a49f20599f7cb8fbacf7bab7719c405f2d9a"}, "value": 0.0, "n": 1}], "hex": "0100000001600305302a45f69e1b39511cbec5b9e6f55956645a5d6cdc59a45d93d3aa76ec010000006a47304402207567648a301b47fd479dbc4a7d69a3b51efa1aa3b829b00309cad83d795f3f1302201548f97590813b5106f76d1f9b5e256ca125c316af6894424a0ac8031197381d01210282c83ca7c81b5a79d59fb12d5eeb3fac75493a9eb27f999d9e7ff59ae4fb0134ffffffff0276c30000000000001976a914179f41297cfc55b74f4d4de732fb1b990f1f8bfd88ac0000000000000000536a4c500000781400015db435de848d4898009fffa1702940d64fa54d8eb2d19ed074892d00f8e8966f861419e591b40a61c2bfa2d1b1055baa1bca06151c4efe29a49f20599f7cb8fbacf7bab7719c405f2d9a00000000", "vin": [{"sequence": 4294967295, "scriptSig": {"hex": "47304402207567648a301b47fd479dbc4a7d69a3b51efa1aa3b829b00309cad83d795f3f1302201548f97590813b5106f76d1f9b5e256ca125c316af6894424a0ac8031197381d01210282c83ca7c81b5a79d59fb12d5eeb3fac75493a9eb27f999d9e7ff59ae4fb0134", "asm": "304402207567648a301b47fd479dbc4a7d69a3b51efa1aa3b829b00309cad83d795f3f1302201548f97590813b5106f76d1f9b5e256ca125c316af6894424a0ac8031197381d[ALL] 0282c83ca7c81b5a79d59fb12d5eeb3fac75493a9eb27f999d9e7ff59ae4fb0134"}, "vout": 1, "txid": "ec76aad3935da459dc6c5d5a645659f5e6b9c5be1c51391b9ef6452a30050360"}], "txid": "51f271f7c3081ece18041862bf80ea8077264986160ab586670bd6c0ae7eef7f", "blocktime": 1537875543, "version": 1, "confirmations": 11464, "time": 1537875543, "locktime": 0, "vsize": 283, "size": 283}