{"hash": "e10b27f86148e1313501cceea0ac631539aae6158d81055e796d8bab4a281af3", "blockhash": "0000000000000000000baef3f32e3676a92c3b2e5da21b426e4f302fc371ce76", "vout": [{"scriptPubKey": {"reqSigs": 1, "hex": "76a914cf0535ddcf71b827b4956348c046fdca0dc2c8a588ac", "addresses": ["1Ksd7jdKRJfEfqgJyJFhKRiguaUS9KTrRQ"], "asm": "OP_DUP OP_HASH160 cf0535ddcf71b827b4956348c046fdca0dc2c8a5 OP_EQUALVERIFY OP_CHECKSIG", "type": "pubkeyhash"}, "value": 0.06371095, "n": 0}, {"scriptPubKey": {"reqSigs": 1, "hex": "0014b25ae38201e5b8e1c2aca80945bc0ea611244cf8", "addresses": ["bc1qkfdw8qspukuwrs4v4qy5t0qw5cgjgn8cc9ztn2"], "asm": "0 b25ae38201e5b8e1c2aca80945bc0ea611244cf8", "type": "witness_v0_keyhash"}, "value": 4.07636459, "n": 1}], "hex": "010000000001017522d31c3e5308c5c6a6b2e2604279a21383234a08664ee34a8ef6403be9ab0e0000000000ffffffff0217376100000000001976a914cf0535ddcf71b827b4956348c046fdca0dc2c8a588aceb094c1800000000160014b25ae38201e5b8e1c2aca80945bc0ea611244cf802473044022040b2035fdf3ffb12f82441c0f5793523824f711abe5c9bf5404ef103f1e2f379022014fa44fbcddb3fe63d4ac1bd94bf10ac039323ad03d9b0b0a9adfb00a7258c7b01210207c8fbe37fbe88d64448723fb00560e4c0d7e1de2ded8ae04c5f01350c0fc88100000000", "vin": [{"txinwitness": ["3044022040b2035fdf3ffb12f82441c0f5793523824f711abe5c9bf5404ef103f1e2f379022014fa44fbcddb3fe63d4ac1bd94bf10ac039323ad03d9b0b0a9adfb00a7258c7b01", "0207c8fbe37fbe88d64448723fb00560e4c0d7e1de2ded8ae04c5f01350c0fc881"], "sequence": 4294967295, "scriptSig": {"hex": "", "asm": ""}, "vout": 0, "txid": "0eabe93b40f68e4ae34e66084a238313a2794260e2b2a6c6c508533e1cd32275"}], "txid": "51f769345062d6fb4c23024f41fd2de4824582d4d86253762367f341354997b5", "blocktime": 1537876114, "version": 1, "confirmations": 11460, "time": 1537876114, "locktime": 0, "vsize": 144, "size": 225}