{"hash": "51f7368f6262fc02dd3ea3e9695817cf3cf4b1504750857ba235592890af7660", "blockhash": "00000000000000000017f5eb5941039fbcee6240d03bc1f2f8e35350df66a1d8", "vout": [{"scriptPubKey": {"reqSigs": 1, "hex": "76a914a25dec4d0011064ef106a983c39c7a540699f22088ac", "addresses": ["1FoWyxwPXuj4C6abqwhjDWdz6D4PZgYRjA"], "asm": "OP_DUP OP_HASH160 a25dec4d0011064ef106a983c39c7a540699f220 OP_EQUALVERIFY OP_CHECKSIG", "type": "pubkeyhash"}, "value": 0.01995188, "n": 0}, {"scriptPubKey": {"type": "nulldata", "hex": "6a146f6d6e69000000000000001f000001001d1bf800", "asm": "OP_RETURN 6f6d6e69000000000000001f000001001d1bf800"}, "value": 0.0, "n": 1}, {"scriptPubKey": {"reqSigs": 1, "hex": "76a914648db1d7266e8ccb94b82b82c81ca7d707c13fed88ac", "addresses": ["1AAgKJZ6EY6dCR2iwKaFEYoN8a11uNn6Pv"], "asm": "OP_DUP OP_HASH160 648db1d7266e8ccb94b82b82c81ca7d707c13fed OP_EQUALVERIFY OP_CHECKSIG", "type": "pubkeyhash"}, "value": 5.46e-06, "n": 2}], "hex": "0100000001a44813c76173a4fe9689194c29809e35be05f1741d9b5e1e9e8bd44070ac1fea850000006a47304402202f229ccc322013deadb5151183a0d87912fe1947907855059592b4aa7f6ae50202206c8e906ed4e987594b9f37b5a6b595d0fa6b01cd7dd9172e362a5776a460299d012103da5bac7b36d5aa38f531c6b9601e21bb598a4b6716ebed38b009a55dabde9440feffffff03b4711e00000000001976a914a25dec4d0011064ef106a983c39c7a540699f22088ac0000000000000000166a146f6d6e69000000000000001f000001001d1bf80022020000000000001976a914648db1d7266e8ccb94b82b82c81ca7d707c13fed88ac15490800", "vin": [{"sequence": 4294967294, "scriptSig": {"hex": "47304402202f229ccc322013deadb5151183a0d87912fe1947907855059592b4aa7f6ae50202206c8e906ed4e987594b9f37b5a6b595d0fa6b01cd7dd9172e362a5776a460299d012103da5bac7b36d5aa38f531c6b9601e21bb598a4b6716ebed38b009a55dabde9440", "asm": "304402202f229ccc322013deadb5151183a0d87912fe1947907855059592b4aa7f6ae50202206c8e906ed4e987594b9f37b5a6b595d0fa6b01cd7dd9172e362a5776a460299d[ALL] 03da5bac7b36d5aa38f531c6b9601e21bb598a4b6716ebed38b009a55dabde9440"}, "vout": 133, "txid": "ea1fac7040d48b9e1e5e9b1d74f105be359e80294c198996fea47361c71348a4"}], "txid": "51f7368f6262fc02dd3ea3e9695817cf3cf4b1504750857ba235592890af7660", "blocktime": 1537874412, "version": 1, "confirmations": 11467, "time": 1537874412, "locktime": 542997, "vsize": 256, "size": 256}