{"hash": "51fb7b35fe2aeb3ca58708bf40eb593d4fc6dc8ff3ad2cc7f275cd3ac3f3fece", "blockhash": "0000000000000000001f76057863aec43deb6fa401d9628bb513d65a8098bfab", "vout": [{"scriptPubKey": {"reqSigs": 1, "hex": "76a914751233fa87526ad5b6e2968a65a0fb98f59cdb6188ac", "addresses": ["1Bg1sDPjuwxxvTUkY1dhZMNt7FPWa1qkVm"], "asm": "OP_DUP OP_HASH160 751233fa87526ad5b6e2968a65a0fb98f59cdb61 OP_EQUALVERIFY OP_CHECKSIG", "type": "pubkeyhash"}, "value": 0.00022087, "n": 0}, {"scriptPubKey": {"reqSigs": 1, "hex": "a914424c531e9163205dc4fd2684d26c38c54187933887", "addresses": ["37jZxLUmf8QVz71MGPc4bHP9Aj8yYPW8pf"], "asm": "OP_HASH160 424c531e9163205dc4fd2684d26c38c541879338 OP_EQUAL", "type": "scripthash"}, "value": 0.04, "n": 1}], "hex": "01000000027518cb8f1f4071415e95e09a4d3f9cf11f0d271807bd152d53cbfb9520287c59000000006a4730440220679c7f065b2e14e88713da5b2b9c14f63161c4a2ef245ca29261c2fbc1ce7ba402204ecf26be71c297c89daf31a3f3605fca761eae51cff3805e9038e4c4ea9ff27a012102f3e86d25fd8ae1ecd741ce2cb82c34873afc4a5c37e7134c67dbf62aa23a6be6ffffffff344f579b34e4dd8776c2685d14c2227436dfa570279772a57f3267aca562c7c8000000006a47304402203f85a0a590606d73be9906867763f2ef4d102101c1d22768e21e3608c848447f02206fd512819b1d31384da5a098ccbeb68277e7dea836e8927aa3fc90b95a3227bc012102b15806b187a89dc45b608aa0017a391236f1bb535948e1c175bdc34f91dca41effffffff0247560000000000001976a914751233fa87526ad5b6e2968a65a0fb98f59cdb6188ac00093d000000000017a914424c531e9163205dc4fd2684d26c38c5418793388700000000", "vin": [{"sequence": 4294967295, "scriptSig": {"hex": "4730440220679c7f065b2e14e88713da5b2b9c14f63161c4a2ef245ca29261c2fbc1ce7ba402204ecf26be71c297c89daf31a3f3605fca761eae51cff3805e9038e4c4ea9ff27a012102f3e86d25fd8ae1ecd741ce2cb82c34873afc4a5c37e7134c67dbf62aa23a6be6", "asm": "30440220679c7f065b2e14e88713da5b2b9c14f63161c4a2ef245ca29261c2fbc1ce7ba402204ecf26be71c297c89daf31a3f3605fca761eae51cff3805e9038e4c4ea9ff27a[ALL] 02f3e86d25fd8ae1ecd741ce2cb82c34873afc4a5c37e7134c67dbf62aa23a6be6"}, "vout": 0, "txid": "597c282095fbcb532d15bd0718270d1ff19c3f4d9ae0955e4171401f8fcb1875"}, {"sequence": 4294967295, "scriptSig": {"hex": "47304402203f85a0a590606d73be9906867763f2ef4d102101c1d22768e21e3608c848447f02206fd512819b1d31384da5a098ccbeb68277e7dea836e8927aa3fc90b95a3227bc012102b15806b187a89dc45b608aa0017a391236f1bb535948e1c175bdc34f91dca41e", "asm": "304402203f85a0a590606d73be9906867763f2ef4d102101c1d22768e21e3608c848447f02206fd512819b1d31384da5a098ccbeb68277e7dea836e8927aa3fc90b95a3227bc[ALL] 02b15806b187a89dc45b608aa0017a391236f1bb535948e1c175bdc34f91dca41e"}, "vout": 0, "txid": "c8c762a5ac67327fa572972770a5df367422c2145d68c27687dde4349b574f34"}], "txid": "51fb7b35fe2aeb3ca58708bf40eb593d4fc6dc8ff3ad2cc7f275cd3ac3f3fece", "blocktime": 1537873891, "version": 1, "confirmations": 11478, "time": 1537873891, "locktime": 0, "vsize": 370, "size": 370}