{"hash": "301187535c2a9a847e29539052cc3b26997aa996e62e6683c64c6ea8713ddffe", "blockhash": "0000000000000000001f76057863aec43deb6fa401d9628bb513d65a8098bfab", "vout": [{"scriptPubKey": {"reqSigs": 1, "hex": "76a914eddfb9395db2e6affa76766037458aec634cff2e88ac", "addresses": ["1NgmA3k7ak5B7WydLVVsmQE7dDb7uSwh3W"], "asm": "OP_DUP OP_HASH160 eddfb9395db2e6affa76766037458aec634cff2e OP_EQUALVERIFY OP_CHECKSIG", "type": "pubkeyhash"}, "value": 0.08773737, "n": 0}, {"scriptPubKey": {"reqSigs": 1, "hex": "a9144ebbd9a9ddc5e6845cb53eb313a8c69646bc432787", "addresses": ["38sKfa3iaRVYFs1fkfK5cUD8ymiwwPAaRf"], "asm": "OP_HASH160 4ebbd9a9ddc5e6845cb53eb313a8c69646bc4327 OP_EQUAL", "type": "scripthash"}, "value": 0.12683675, "n": 1}], "hex": "01000000000101f8c266840ad800d9a8f27ef4d19462bec74b3a1753745624fe2734c8ab4a099c0100000023220020271f4346e7b5d8643b5c72fb2979b2003f963882d4474ace60d031054a1d537fffffffff0269e08500000000001976a914eddfb9395db2e6affa76766037458aec634cff2e88ac9b89c1000000000017a9144ebbd9a9ddc5e6845cb53eb313a8c69646bc432787040047304402201580c7b159f121d2ec77a422855e4c1b8fa90a2652657d0afb2d55cf137b88ac022029b57f37814d0deca50330522ce1d5b4697644dbc7b54feba2a961c232f93eb20147304402200f1591f2be6f8d90378aaaa81e0ee74f0b774e1dd3cf2134aa91acc9a84e42e202207a0e1c63c089a92c61ad0c0b28d6ceede7f203dbfe662e417633904073333cff0169522103916f375321bceaec2ea97ebad96a13884e75e55c9dff93784b91f3d64853780821032d93e5ff576787fe31a217e2b6ccd6959dfa048fc02832852c50700d103a288c210379cec17ab56d5e54ca1ec58ff8f07e052233b55b518874746bec6f51fe36d0c753ae00000000", "vin": [{"txinwitness": ["", "304402201580c7b159f121d2ec77a422855e4c1b8fa90a2652657d0afb2d55cf137b88ac022029b57f37814d0deca50330522ce1d5b4697644dbc7b54feba2a961c232f93eb201", "304402200f1591f2be6f8d90378aaaa81e0ee74f0b774e1dd3cf2134aa91acc9a84e42e202207a0e1c63c089a92c61ad0c0b28d6ceede7f203dbfe662e417633904073333cff01", "522103916f375321bceaec2ea97ebad96a13884e75e55c9dff93784b91f3d64853780821032d93e5ff576787fe31a217e2b6ccd6959dfa048fc02832852c50700d103a288c210379cec17ab56d5e54ca1ec58ff8f07e052233b55b518874746bec6f51fe36d0c753ae"], "sequence": 4294967295, "scriptSig": {"hex": "220020271f4346e7b5d8643b5c72fb2979b2003f963882d4474ace60d031054a1d537f", "asm": "0020271f4346e7b5d8643b5c72fb2979b2003f963882d4474ace60d031054a1d537f"}, "vout": 1, "txid": "9c094aabc83427fe24567453173a4bc7be6294d1f47ef2a8d900d80a8466c2f8"}], "txid": "51fd7677df7ac444ba1ce9a83378bfcbc59e7526b44f543bc68fc9f48ce72c55", "blocktime": 1537873891, "version": 1, "confirmations": 11478, "time": 1537873891, "locktime": 0, "vsize": 216, "size": 406}