{"hash": "51ffb2d124c5e01235cd23f9481255a43a6819fb9768c227ad296df999f6744c", "blockhash": "0000000000000000000e13cef7c366c0283d82e591d1acd082e914b08063cdf1", "vout": [{"scriptPubKey": {"reqSigs": 1, "hex": "76a9140419c9bea559c696f0b0852243ff58465bb37fbe88ac", "addresses": ["1NgbZ71H4njibnKbMm2JDkLrQAggertQa"], "asm": "OP_DUP OP_HASH160 0419c9bea559c696f0b0852243ff58465bb37fbe OP_EQUALVERIFY OP_CHECKSIG", "type": "pubkeyhash"}, "value": 0.01012541, "n": 0}, {"scriptPubKey": {"reqSigs": 1, "hex": "76a914c46364de51acc1ae97e2f590b7d22290ce59993188ac", "addresses": ["1JuQWcjkUMegBFvXPBo9FhXzSUJLSBEnkN"], "asm": "OP_DUP OP_HASH160 c46364de51acc1ae97e2f590b7d22290ce599931 OP_EQUALVERIFY OP_CHECKSIG", "type": "pubkeyhash"}, "value": 0.10842057, "n": 1}], "hex": "0200000003b887c0c5d41896b0ef45c75686c50be48439854dda8d586ba7aedfe61a59b0640c0000006a47304402201644a7cba56d051501a01b6fe50dc5d4924c0c18ed62d826bd58503ba50d7c760220763ab897c8fe7d4abdfa6bca76590110e21b348309200ebed629e7826f682e940121032decd493aec7cb1996c373ba299d0066dee931eb0747a012e0701727b00e0b3ffeffffffb37000b3d71cf2a6c12ca42fffc2bb7290102160dd753f92315f41e360e93bcc060000006b483045022100c344341c496f1d92ac6f2e05e343af0acf76a97b45aec5c36bb495e1fb133f7802200ac0102b45789229811d64a543f5873d8948d200a1e62e16d0956d3d2b6fb5990121025f1314648af9ccab258023fb3d00f087a4984e45d84a66e0c2a396fbac85413dfeffffff8ac9aec2ca787b4e56c0839b8ed2503f8208e5dd9e8e3c212cf1821c3f3cdfba0b0000006b4830450221009c50d69410cef889956381d929d67029dc129a44b3ef93ee24d3c1d711bb718002202ea5a731bf82b0a0c4fbb36626d161d45c9c3266b26c09597b68faeaee193443012103bd9e61697306f91f01cfdbf5391273ab81136a2baef6b027dc37d8fdf72f0cc0feffffff023d730f00000000001976a9140419c9bea559c696f0b0852243ff58465bb37fbe88acc96fa500000000001976a914c46364de51acc1ae97e2f590b7d22290ce59993188ac0f490800", "vin": [{"sequence": 4294967294, "scriptSig": {"hex": "47304402201644a7cba56d051501a01b6fe50dc5d4924c0c18ed62d826bd58503ba50d7c760220763ab897c8fe7d4abdfa6bca76590110e21b348309200ebed629e7826f682e940121032decd493aec7cb1996c373ba299d0066dee931eb0747a012e0701727b00e0b3f", "asm": "304402201644a7cba56d051501a01b6fe50dc5d4924c0c18ed62d826bd58503ba50d7c760220763ab897c8fe7d4abdfa6bca76590110e21b348309200ebed629e7826f682e94[ALL] 032decd493aec7cb1996c373ba299d0066dee931eb0747a012e0701727b00e0b3f"}, "vout": 12, "txid": "64b0591ae6dfaea76b588dda4d853984e40bc58656c745efb09618d4c5c087b8"}, {"sequence": 4294967294, "scriptSig": {"hex": "483045022100c344341c496f1d92ac6f2e05e343af0acf76a97b45aec5c36bb495e1fb133f7802200ac0102b45789229811d64a543f5873d8948d200a1e62e16d0956d3d2b6fb5990121025f1314648af9ccab258023fb3d00f087a4984e45d84a66e0c2a396fbac85413d", "asm": "3045022100c344341c496f1d92ac6f2e05e343af0acf76a97b45aec5c36bb495e1fb133f7802200ac0102b45789229811d64a543f5873d8948d200a1e62e16d0956d3d2b6fb599[ALL] 025f1314648af9ccab258023fb3d00f087a4984e45d84a66e0c2a396fbac85413d"}, "vout": 6, "txid": "cc3be960e3415f31923f75dd6021109072bbc2ff2fa42cc1a6f21cd7b30070b3"}, {"sequence": 4294967294, "scriptSig": {"hex": "4830450221009c50d69410cef889956381d929d67029dc129a44b3ef93ee24d3c1d711bb718002202ea5a731bf82b0a0c4fbb36626d161d45c9c3266b26c09597b68faeaee193443012103bd9e61697306f91f01cfdbf5391273ab81136a2baef6b027dc37d8fdf72f0cc0", "asm": "30450221009c50d69410cef889956381d929d67029dc129a44b3ef93ee24d3c1d711bb718002202ea5a731bf82b0a0c4fbb36626d161d45c9c3266b26c09597b68faeaee193443[ALL] 03bd9e61697306f91f01cfdbf5391273ab81136a2baef6b027dc37d8fdf72f0cc0"}, "vout": 11, "txid": "badf3c3f1c82f12c213c8e9edde508823f50d28e9b83c0564e7b78cac2aec98a"}], "txid": "51ffb2d124c5e01235cd23f9481255a43a6819fb9768c227ad296df999f6744c", "blocktime": 1537871767, "version": 2, "confirmations": 11490, "time": 1537871767, "locktime": 542991, "vsize": 521, "size": 521}