{"hash": "520689c4f19834d65c8cf19c7e15c2c9bf5e8b1fe4c7a6eb4b2edb9db1214191", "blockhash": "00000000000000000017f5eb5941039fbcee6240d03bc1f2f8e35350df66a1d8", "vout": [{"scriptPubKey": {"reqSigs": 1, "hex": "76a914af10faaf94ce648ed6cc3a4e50a5cf821555604588ac", "addresses": ["1GxfbJuXCWag23FdX6t2hpfwSJch5zT3A6"], "asm": "OP_DUP OP_HASH160 af10faaf94ce648ed6cc3a4e50a5cf8215556045 OP_EQUALVERIFY OP_CHECKSIG", "type": "pubkeyhash"}, "value": 0.0246, "n": 0}, {"scriptPubKey": {"reqSigs": 1, "hex": "76a9144f9dd9ec82776635b87f8d80d6c1fc5de61e1cf288ac", "addresses": ["18FyUrTkRE9cCLXX1x78XzCRQ8T87vSkG4"], "asm": "OP_DUP OP_HASH160 4f9dd9ec82776635b87f8d80d6c1fc5de61e1cf2 OP_EQUALVERIFY OP_CHECKSIG", "type": "pubkeyhash"}, "value": 0.24950275, "n": 1}], "hex": "0100000002be643a8c3e3d0bcdb90bd4df65d7c20d625d79c986bdea5837cc9f0d751928b6000000006b483045022100a81290616a616680be16d715255a04ab2428bb2e2c4b632346c7a17715a1433502205a1cf49fde643ac1f305e68080de444f96e9d3748f23ea4670383853db6a97fd01210307be97943f5169d2a7975f1ebfe986a98baf71e85bb31ee49264ef1461e372a5fdffffff5cd0bbfef645e8ad578535c1833474022ea43299c1581d57e1a2618d771e07c0010000006b483045022100eb0d93de7ae288622fb3e7f1fa4bcb616b83618940594c0b718ba0a07279edff022030eeeb0861d2af9e4543285c6bac3bf625e8057292d8362c69f574b702e7923001210307be97943f5169d2a7975f1ebfe986a98baf71e85bb31ee49264ef1461e372a5fdffffff0260892500000000001976a914af10faaf94ce648ed6cc3a4e50a5cf821555604588ac03b67c01000000001976a9144f9dd9ec82776635b87f8d80d6c1fc5de61e1cf288ac15490800", "vin": [{"sequence": 4294967293, "scriptSig": {"hex": "483045022100a81290616a616680be16d715255a04ab2428bb2e2c4b632346c7a17715a1433502205a1cf49fde643ac1f305e68080de444f96e9d3748f23ea4670383853db6a97fd01210307be97943f5169d2a7975f1ebfe986a98baf71e85bb31ee49264ef1461e372a5", "asm": "3045022100a81290616a616680be16d715255a04ab2428bb2e2c4b632346c7a17715a1433502205a1cf49fde643ac1f305e68080de444f96e9d3748f23ea4670383853db6a97fd[ALL] 0307be97943f5169d2a7975f1ebfe986a98baf71e85bb31ee49264ef1461e372a5"}, "vout": 0, "txid": "b62819750d9fcc3758eabd86c9795d620dc2d765dfd40bb9cd0b3d3e8c3a64be"}, {"sequence": 4294967293, "scriptSig": {"hex": "483045022100eb0d93de7ae288622fb3e7f1fa4bcb616b83618940594c0b718ba0a07279edff022030eeeb0861d2af9e4543285c6bac3bf625e8057292d8362c69f574b702e7923001210307be97943f5169d2a7975f1ebfe986a98baf71e85bb31ee49264ef1461e372a5", "asm": "3045022100eb0d93de7ae288622fb3e7f1fa4bcb616b83618940594c0b718ba0a07279edff022030eeeb0861d2af9e4543285c6bac3bf625e8057292d8362c69f574b702e79230[ALL] 0307be97943f5169d2a7975f1ebfe986a98baf71e85bb31ee49264ef1461e372a5"}, "vout": 1, "txid": "c0071e778d61a2e1571d58c19932a42e02743483c1358557ade845f6febbd05c"}], "txid": "520689c4f19834d65c8cf19c7e15c2c9bf5e8b1fe4c7a6eb4b2edb9db1214191", "blocktime": 1537874412, "version": 1, "confirmations": 11468, "time": 1537874412, "locktime": 542997, "vsize": 374, "size": 374}