{"hash": "5208d5351c466bba57ad6cfaaf078a5a3b202e28c97c0ff3bd13a2bf23ca3575", "blockhash": "00000000000000000004ffacab907a6b429b9a5745fa0b75af4234bf69dd7176", "vout": [{"scriptPubKey": {"reqSigs": 1, "hex": "76a914d243e6abb9a60fbff430b421d2df4b7d59ec186088ac", "addresses": ["1LAnF8h3qMGx3TSwNUHVneBZUEpwE4gu3D"], "asm": "OP_DUP OP_HASH160 d243e6abb9a60fbff430b421d2df4b7d59ec1860 OP_EQUALVERIFY OP_CHECKSIG", "type": "pubkeyhash"}, "value": 0.00077314, "n": 0}, {"scriptPubKey": {"reqSigs": 1, "hex": "76a914b76925ac396dca91d4ec6d8c3feeb593c5a2da2488ac", "addresses": ["1HincrkBp3YsaTM8k32heTWc1h6e4tnNz8"], "asm": "OP_DUP OP_HASH160 b76925ac396dca91d4ec6d8c3feeb593c5a2da24 OP_EQUALVERIFY OP_CHECKSIG", "type": "pubkeyhash"}, "value": 5.46e-06, "n": 1}, {"scriptPubKey": {"type": "nulldata", "hex": "6a146f6d6e69000000000000001f000000a9569469c0", "asm": "OP_RETURN 6f6d6e69000000000000001f000000a9569469c0"}, "value": 0.0, "n": 2}], "hex": "0100000001c1aa1792657a2aab769f4473eb5680efbb60cfa22fdac96f0cfd1d64a312024d000000006a47304402200e860657431aab638ca605281b0596f5873f20f6029131ae1ec01c15d108a8030220650607b7024a22057fb3481647d90dc45bc897e404ad3c6a446ff1a5777301f401210271977291b74f1f5f5c42157e8aae804664eaaeccfd097918450d37f28fb94d77ffffffff03022e0100000000001976a914d243e6abb9a60fbff430b421d2df4b7d59ec186088ac22020000000000001976a914b76925ac396dca91d4ec6d8c3feeb593c5a2da2488ac0000000000000000166a146f6d6e69000000000000001f000000a9569469c000000000", "vin": [{"sequence": 4294967295, "scriptSig": {"hex": "47304402200e860657431aab638ca605281b0596f5873f20f6029131ae1ec01c15d108a8030220650607b7024a22057fb3481647d90dc45bc897e404ad3c6a446ff1a5777301f401210271977291b74f1f5f5c42157e8aae804664eaaeccfd097918450d37f28fb94d77", "asm": "304402200e860657431aab638ca605281b0596f5873f20f6029131ae1ec01c15d108a8030220650607b7024a22057fb3481647d90dc45bc897e404ad3c6a446ff1a5777301f4[ALL] 0271977291b74f1f5f5c42157e8aae804664eaaeccfd097918450d37f28fb94d77"}, "vout": 0, "txid": "4d0212a3641dfd0c6fc9da2fa2cf60bbef8056eb73449f76ab2a7a659217aac1"}], "txid": "5208d5351c466bba57ad6cfaaf078a5a3b202e28c97c0ff3bd13a2bf23ca3575", "blocktime": 1537875543, "version": 1, "confirmations": 11464, "time": 1537875543, "locktime": 0, "vsize": 256, "size": 256}