{"hash": "52094d2f617d93d7b71191c34b1aefc6dacffd42540f9f9b45ad7b2fd3997d93", "blockhash": "00000000000000000018f53835495a110e01622372bf6ae95dc86f2b0ab887b0", "vout": [{"scriptPubKey": {"reqSigs": 1, "hex": "a914f32c3ca99b21890548275116f7691a80fc14af1987", "addresses": ["3Pro7oA5SQpvKvm6Xz2fJFLYhZz1wwzVFn"], "asm": "OP_HASH160 f32c3ca99b21890548275116f7691a80fc14af19 OP_EQUAL", "type": "scripthash"}, "value": 0.01474738, "n": 0}], "hex": "010000000118d00698bf0c0da7f6227ad5e11fcf0c14833f04f8887a461b971b6bd81975c7010000006a47304402207a7c898db6e7c0b50842f2fe432f398e6b9ef61538fa739f2786094d9cb69ed40220119af63988e7524da173d610f2c92eb3e6fdf0da6aa9671f4ff657f521c61e16012102416a681730e8f1d74de33b26205981baaf1029de7606de43f00619640f600a5cffffffff01b28016000000000017a914f32c3ca99b21890548275116f7691a80fc14af198700000000", "vin": [{"sequence": 4294967295, "scriptSig": {"hex": "47304402207a7c898db6e7c0b50842f2fe432f398e6b9ef61538fa739f2786094d9cb69ed40220119af63988e7524da173d610f2c92eb3e6fdf0da6aa9671f4ff657f521c61e16012102416a681730e8f1d74de33b26205981baaf1029de7606de43f00619640f600a5c", "asm": "304402207a7c898db6e7c0b50842f2fe432f398e6b9ef61538fa739f2786094d9cb69ed40220119af63988e7524da173d610f2c92eb3e6fdf0da6aa9671f4ff657f521c61e16[ALL] 02416a681730e8f1d74de33b26205981baaf1029de7606de43f00619640f600a5c"}, "vout": 1, "txid": "c77519d86b1b971b467a88f8043f83140ccf1fe1d57a22f6a70d0cbf9806d018"}], "txid": "52094d2f617d93d7b71191c34b1aefc6dacffd42540f9f9b45ad7b2fd3997d93", "blocktime": 1537870928, "version": 1, "confirmations": 11512, "time": 1537870928, "locktime": 0, "vsize": 189, "size": 189}