{"hash": "520bf396c7b9989e259607e5bb04e3b9ed79ff8ba5307b83e872a4fc14f506cb", "blockhash": "0000000000000000001f0ddff1eddb255c1121bcd4da4f1bc9a0da00cae72433", "vout": [{"scriptPubKey": {"type": "nulldata", "hex": "6a4c50000077ab0001de4825a21dd09bb4255e0444af6c953dd567cf27e7e3ef3236678a625097ab00a67cb3161ad038029740894688805baa103a0612e31d5a47cc754bbf23acfcfaac8058b692fe6808c31d", "asm": "OP_RETURN 000077ab0001de4825a21dd09bb4255e0444af6c953dd567cf27e7e3ef3236678a625097ab00a67cb3161ad038029740894688805baa103a0612e31d5a47cc754bbf23acfcfaac8058b692fe6808c31d"}, "value": 0.0, "n": 0}, {"scriptPubKey": {"reqSigs": 1, "hex": "76a914f5a0146d9b04e5cec9508d4dd905c5e68689d62f88ac", "addresses": ["1PPkKYC4WzMKkyNj9DQq5XdDbHzVApnsk7"], "asm": "OP_DUP OP_HASH160 f5a0146d9b04e5cec9508d4dd905c5e68689d62f OP_EQUALVERIFY OP_CHECKSIG", "type": "pubkeyhash"}, "value": 0.00020169, "n": 1}], "hex": "01000000017a4144f99491586414d0700c9c36f65a8b9b13278fde1b6c9218c974a8a76a70000000006b483045022100fa2143d1e716b294805f15229ea79fd35582f60f0fd732a28b4bc50f6ec2a5590220472ff873f7e13735aa4678c8e41fad92464fde8ac3174e65590197c940328200012103e682abcba8ab60d9eaa46f4b5c363b4b0351c2e6900f48a05a56ecc661941172ffffffff020000000000000000536a4c50000077ab0001de4825a21dd09bb4255e0444af6c953dd567cf27e7e3ef3236678a625097ab00a67cb3161ad038029740894688805baa103a0612e31d5a47cc754bbf23acfcfaac8058b692fe6808c31dc94e0000000000001976a914f5a0146d9b04e5cec9508d4dd905c5e68689d62f88ac00000000", "vin": [{"sequence": 4294967295, "scriptSig": {"hex": "483045022100fa2143d1e716b294805f15229ea79fd35582f60f0fd732a28b4bc50f6ec2a5590220472ff873f7e13735aa4678c8e41fad92464fde8ac3174e65590197c940328200012103e682abcba8ab60d9eaa46f4b5c363b4b0351c2e6900f48a05a56ecc661941172", "asm": "3045022100fa2143d1e716b294805f15229ea79fd35582f60f0fd732a28b4bc50f6ec2a5590220472ff873f7e13735aa4678c8e41fad92464fde8ac3174e65590197c940328200[ALL] 03e682abcba8ab60d9eaa46f4b5c363b4b0351c2e6900f48a05a56ecc661941172"}, "vout": 0, "txid": "706aa7a874c918926c1bde8f27139b8b5af6369c0c70d01464589194f944417a"}], "txid": "520bf396c7b9989e259607e5bb04e3b9ed79ff8ba5307b83e872a4fc14f506cb", "blocktime": 1537872018, "version": 1, "confirmations": 11489, "time": 1537872018, "locktime": 0, "vsize": 284, "size": 284}