{"hash": "521666657f42e6bb9fca0f6e77f417823fd7562f386213810a43787ab7be2d17", "blockhash": "00000000000000000024a2167bbff67b0be802c0b01cdd79e6331c2be6459f87", "vout": [{"scriptPubKey": {"reqSigs": 1, "hex": "76a914933e0fd081b4d1283352b97068337ab9a924878588ac", "addresses": ["1ERYgKxQtZcy3CKJRcUGPx6VisS8x5nXDG"], "asm": "OP_DUP OP_HASH160 933e0fd081b4d1283352b97068337ab9a9248785 OP_EQUALVERIFY OP_CHECKSIG", "type": "pubkeyhash"}, "value": 3e-05, "n": 0}, {"scriptPubKey": {"reqSigs": 1, "hex": "76a914275b9a8521f0712d7a8d4abb546f04c93ba743a688ac", "addresses": ["14b76DDi9oh9efaAaQPjwaqzKuHKjxi64c"], "asm": "OP_DUP OP_HASH160 275b9a8521f0712d7a8d4abb546f04c93ba743a6 OP_EQUALVERIFY OP_CHECKSIG", "type": "pubkeyhash"}, "value": 0.0100081, "n": 1}], "hex": "010000000229e0e9c0f16e094ee61074073bbd87b7233c36bbb201c229df7151fb9909b4e9010000006a4730440220543a71673291d7c9391480b3974735d0d01fc10efe7608a6fec9f6d477abb5940220581b0a5acb2ae5aa2c6b0f6f86df80bbeec619bfd815a2256185cc3ab7155d4a012103bcfb068e3bbdf01c411ecb1a8f2573936b0b2ae0583efac2e2e67fd9e91b5da3feffffff58533888b2bdf835cd49f9526ce0473ad54a601103a046e69a8da4a6b7f685dc010000006a4730440220385d73b14dc526099120947c52d78c117baefa6a1b0038067634eba86a81080a02204fdf1efd258e76087463d190c4a88e189eef652ce04ac118967e904d5fcd5812012102cb9bd410599edc2d685fe20458f66631a5c21307669209c680995c3f9a4f4b57feffffff02b80b0000000000001976a914933e0fd081b4d1283352b97068337ab9a924878588ac6a450f00000000001976a914275b9a8521f0712d7a8d4abb546f04c93ba743a688ac0d490800", "vin": [{"sequence": 4294967294, "scriptSig": {"hex": "4730440220543a71673291d7c9391480b3974735d0d01fc10efe7608a6fec9f6d477abb5940220581b0a5acb2ae5aa2c6b0f6f86df80bbeec619bfd815a2256185cc3ab7155d4a012103bcfb068e3bbdf01c411ecb1a8f2573936b0b2ae0583efac2e2e67fd9e91b5da3", "asm": "30440220543a71673291d7c9391480b3974735d0d01fc10efe7608a6fec9f6d477abb5940220581b0a5acb2ae5aa2c6b0f6f86df80bbeec619bfd815a2256185cc3ab7155d4a[ALL] 03bcfb068e3bbdf01c411ecb1a8f2573936b0b2ae0583efac2e2e67fd9e91b5da3"}, "vout": 1, "txid": "e9b40999fb5171df29c201b2bb363c23b787bd3b077410e64e096ef1c0e9e029"}, {"sequence": 4294967294, "scriptSig": {"hex": "4730440220385d73b14dc526099120947c52d78c117baefa6a1b0038067634eba86a81080a02204fdf1efd258e76087463d190c4a88e189eef652ce04ac118967e904d5fcd5812012102cb9bd410599edc2d685fe20458f66631a5c21307669209c680995c3f9a4f4b57", "asm": "30440220385d73b14dc526099120947c52d78c117baefa6a1b0038067634eba86a81080a02204fdf1efd258e76087463d190c4a88e189eef652ce04ac118967e904d5fcd5812[ALL] 02cb9bd410599edc2d685fe20458f66631a5c21307669209c680995c3f9a4f4b57"}, "vout": 1, "txid": "dc85f6b7a6a48d9ae646a00311604ad53a47e06c52f949cd35f8bdb288385358"}], "txid": "521666657f42e6bb9fca0f6e77f417823fd7562f386213810a43787ab7be2d17", "blocktime": 1537870564, "version": 1, "confirmations": 11515, "time": 1537870564, "locktime": 542989, "vsize": 372, "size": 372}