{"hash": "5218e2b5ab4f52f0e7243866a47d46f953466678ffb1a9a252ad68b557572254", "blockhash": "0000000000000000001f0ddff1eddb255c1121bcd4da4f1bc9a0da00cae72433", "vout": [{"scriptPubKey": {"type": "nulldata", "hex": "6a146f6d6e69000000000000001f00000002540be400", "asm": "OP_RETURN 6f6d6e69000000000000001f00000002540be400"}, "value": 0.0, "n": 0}, {"scriptPubKey": {"reqSigs": 1, "hex": "76a91496704a30e56a26ad5f1a9f6d253f40d667567bf788ac", "addresses": ["1EiSsopZoQcXoztzvdEpeqqGYZ4u1xqm12"], "asm": "OP_DUP OP_HASH160 96704a30e56a26ad5f1a9f6d253f40d667567bf7 OP_EQUALVERIFY OP_CHECKSIG", "type": "pubkeyhash"}, "value": 5.46e-06, "n": 1}, {"scriptPubKey": {"reqSigs": 1, "hex": "76a91488d924f51033b74a895863a5fb57fd545529df7d88ac", "addresses": ["1DUb2YYbQA1jjaNYzVXLZ7ZioEhLXtbUru"], "asm": "OP_DUP OP_HASH160 88d924f51033b74a895863a5fb57fd545529df7d OP_EQUALVERIFY OP_CHECKSIG", "type": "pubkeyhash"}, "value": 1.05356336, "n": 2}], "hex": "01000000014256e095863500c455290b7c185ed6c00bb145ea06a4247b878cbc3f2b7a4664000000006a473044022034759b2af4fea8406776c2e56e6b009ea74716af7881ff6593415f68f0226f530220600c083431487802bfaa052b6c16d4fa5013d78d8004d492f438bd5d9e63ee340121030888863fcb4cdf5b7d33b40e613af35df8f39d576e7972238b0d396cd3fcc3f2feffffff030000000000000000166a146f6d6e69000000000000001f00000002540be40022020000000000001976a91496704a30e56a26ad5f1a9f6d253f40d667567bf788ac309c4706000000001976a91488d924f51033b74a895863a5fb57fd545529df7d88ac11490800", "vin": [{"sequence": 4294967294, "scriptSig": {"hex": "473044022034759b2af4fea8406776c2e56e6b009ea74716af7881ff6593415f68f0226f530220600c083431487802bfaa052b6c16d4fa5013d78d8004d492f438bd5d9e63ee340121030888863fcb4cdf5b7d33b40e613af35df8f39d576e7972238b0d396cd3fcc3f2", "asm": "3044022034759b2af4fea8406776c2e56e6b009ea74716af7881ff6593415f68f0226f530220600c083431487802bfaa052b6c16d4fa5013d78d8004d492f438bd5d9e63ee34[ALL] 030888863fcb4cdf5b7d33b40e613af35df8f39d576e7972238b0d396cd3fcc3f2"}, "vout": 0, "txid": "64467a2b3fbc8c877b24a406ea45b10bc0d65e187c0b2955c400358695e05642"}], "txid": "5218e2b5ab4f52f0e7243866a47d46f953466678ffb1a9a252ad68b557572254", "blocktime": 1537872018, "version": 1, "confirmations": 11489, "time": 1537872018, "locktime": 542993, "vsize": 256, "size": 256}