{"hash": "52189dcea6b4b4dcb021da16482e0fa214c5341d6bbd596913f094a54b98b713", "blockhash": "00000000000000000017f5eb5941039fbcee6240d03bc1f2f8e35350df66a1d8", "vout": [{"scriptPubKey": {"type": "nulldata", "hex": "6a146f6d6e69000000000000001f0000048c27395000", "asm": "OP_RETURN 6f6d6e69000000000000001f0000048c27395000"}, "value": 0.0, "n": 0}, {"scriptPubKey": {"reqSigs": 1, "hex": "a914407e1c581774c769017cc01542c0c19142a225ab87", "addresses": ["37a2F9ViG6ifxk8aQvXfmQHaLvWQhtUXoJ"], "asm": "OP_HASH160 407e1c581774c769017cc01542c0c19142a225ab OP_EQUAL", "type": "scripthash"}, "value": 5.4e-06, "n": 1}, {"scriptPubKey": {"reqSigs": 1, "hex": "76a914a25dec4d0011064ef106a983c39c7a540699f22088ac", "addresses": ["1FoWyxwPXuj4C6abqwhjDWdz6D4PZgYRjA"], "asm": "OP_DUP OP_HASH160 a25dec4d0011064ef106a983c39c7a540699f220 OP_EQUALVERIFY OP_CHECKSIG", "type": "pubkeyhash"}, "value": 0.01995243, "n": 2}], "hex": "0100000001a44813c76173a4fe9689194c29809e35be05f1741d9b5e1e9e8bd44070ac1fea890000006a47304402205dd1db7739625a5035f3154e5010029944bee59cb36ba1aff38ea4ec0002f4a402202517e4fa3a9c1d6ac7eb7e3a7cf6b6db9facc9fa52f4c66b4c274eeb1f878594012103da5bac7b36d5aa38f531c6b9601e21bb598a4b6716ebed38b009a55dabde9440feffffff030000000000000000166a146f6d6e69000000000000001f0000048c273950001c0200000000000017a914407e1c581774c769017cc01542c0c19142a225ab87eb711e00000000001976a914a25dec4d0011064ef106a983c39c7a540699f22088ac15490800", "vin": [{"sequence": 4294967294, "scriptSig": {"hex": "47304402205dd1db7739625a5035f3154e5010029944bee59cb36ba1aff38ea4ec0002f4a402202517e4fa3a9c1d6ac7eb7e3a7cf6b6db9facc9fa52f4c66b4c274eeb1f878594012103da5bac7b36d5aa38f531c6b9601e21bb598a4b6716ebed38b009a55dabde9440", "asm": "304402205dd1db7739625a5035f3154e5010029944bee59cb36ba1aff38ea4ec0002f4a402202517e4fa3a9c1d6ac7eb7e3a7cf6b6db9facc9fa52f4c66b4c274eeb1f878594[ALL] 03da5bac7b36d5aa38f531c6b9601e21bb598a4b6716ebed38b009a55dabde9440"}, "vout": 137, "txid": "ea1fac7040d48b9e1e5e9b1d74f105be359e80294c198996fea47361c71348a4"}], "txid": "52189dcea6b4b4dcb021da16482e0fa214c5341d6bbd596913f094a54b98b713", "blocktime": 1537874412, "version": 1, "confirmations": 11467, "time": 1537874412, "locktime": 542997, "vsize": 254, "size": 254}