{"hash": "2e993257300c68c47bc20311805f4d3508605aea6a4f1faa3256de96af04bfcf", "blockhash": "00000000000000000018f53835495a110e01622372bf6ae95dc86f2b0ab887b0", "vout": [{"scriptPubKey": {"reqSigs": 1, "hex": "a914180c1dc20fdde0907423aa7ec7e9cb68c65b953e87", "addresses": ["33tAeztmdEhD1FPLdwrBQ7s3xFWNxF76P6"], "asm": "OP_HASH160 180c1dc20fdde0907423aa7ec7e9cb68c65b953e OP_EQUAL", "type": "scripthash"}, "value": 0.0139471, "n": 0}, {"scriptPubKey": {"reqSigs": 1, "hex": "a914a9da5a88f56c448962109391395e3d2444a3fa4987", "addresses": ["3HB7hSXDHBtuB8hBwxQeNVNnkekp8Q37xm"], "asm": "OP_HASH160 a9da5a88f56c448962109391395e3d2444a3fa49 OP_EQUAL", "type": "scripthash"}, "value": 0.13509664, "n": 1}], "hex": "020000000001035d35f2bc516b7c72c8f4523d5b32e6987a5903a455df0f8994ad1a8d55130fec0800000017160014c6643c3801a1bdcae7ae15b6ae6fc3e82b449b50feffffff74b3f22c5737f1e48896dbf18f8b1702dd2ee81abe5e624170c405b789223d8d0100000017160014939b2f01cd2837e2418c880515c2ecfcfd0c6d0bfefffffff08669103109d52d30d0794fabbccbc5d493af2a02ca2aa676bf9c1b42ee184e0000000017160014c1792a621361c74c668eb1f8e2394a6bcc49c862feffffff02164815000000000017a914180c1dc20fdde0907423aa7ec7e9cb68c65b953e872024ce000000000017a914a9da5a88f56c448962109391395e3d2444a3fa49870247304402202eb85762712eb60ce6c8f1e3ebf41858bcf2c27c880b800b8314bd504953d98902202620ad6db45b277f4051e5abba96a382cd477b70bb50e209cb0eaa354b5353a601210325c54bcf3c411e90b0789c19963394532d94fcd950f656f68aef3e9158add2b002483045022100e15285cd546b4fe41269c4fee97799e2ef8d9b7a0c30922b7096e6d2dfd02b7e02207d3dd188dc31bb3d394956d8ed754ba8788df4b7d23bf6693afdebcf09b5f3510121033b728b63e3c6612ae8640425100f8e2a6fd0996c47fc60f70fc5a17ecb3c452302473044022008dca1bc3aaea430d00140c68b98f63dc899aca82581fe088ac94fafce65a9bf022065f26e55f1d57b9ddb877e3eb603dd524b98098b10d6477b458a7661d7f1146f0121021e505048b1d3febbc44db176e741951de2faee2c87300b3844e62f4507d9e0380e490800", "vin": [{"txinwitness": ["304402202eb85762712eb60ce6c8f1e3ebf41858bcf2c27c880b800b8314bd504953d98902202620ad6db45b277f4051e5abba96a382cd477b70bb50e209cb0eaa354b5353a601", "0325c54bcf3c411e90b0789c19963394532d94fcd950f656f68aef3e9158add2b0"], "sequence": 4294967294, "scriptSig": {"hex": "160014c6643c3801a1bdcae7ae15b6ae6fc3e82b449b50", "asm": "0014c6643c3801a1bdcae7ae15b6ae6fc3e82b449b50"}, "vout": 8, "txid": "ec0f13558d1aad94890fdf55a403597a98e6325b3d52f4c8727c6b51bcf2355d"}, {"txinwitness": ["3045022100e15285cd546b4fe41269c4fee97799e2ef8d9b7a0c30922b7096e6d2dfd02b7e02207d3dd188dc31bb3d394956d8ed754ba8788df4b7d23bf6693afdebcf09b5f35101", "033b728b63e3c6612ae8640425100f8e2a6fd0996c47fc60f70fc5a17ecb3c4523"], "sequence": 4294967294, "scriptSig": {"hex": "160014939b2f01cd2837e2418c880515c2ecfcfd0c6d0b", "asm": "0014939b2f01cd2837e2418c880515c2ecfcfd0c6d0b"}, "vout": 1, "txid": "8d3d2289b705c47041625ebe1ae82edd02178b8ff1db9688e4f137572cf2b374"}, {"txinwitness": ["3044022008dca1bc3aaea430d00140c68b98f63dc899aca82581fe088ac94fafce65a9bf022065f26e55f1d57b9ddb877e3eb603dd524b98098b10d6477b458a7661d7f1146f01", "021e505048b1d3febbc44db176e741951de2faee2c87300b3844e62f4507d9e038"], "sequence": 4294967294, "scriptSig": {"hex": "160014c1792a621361c74c668eb1f8e2394a6bcc49c862", "asm": "0014c1792a621361c74c668eb1f8e2394a6bcc49c862"}, "vout": 0, "txid": "4e18ee421b9cbf76a62aca022aaf93d4c5cbbcab4f79d0302dd50931106986f0"}], "txid": "5224a3e3ba697b87ef718e56bbe8d6e830dc0424ca9056a9858fe0cdf2ce7f1a", "blocktime": 1537870928, "version": 2, "confirmations": 11514, "time": 1537870928, "locktime": 542990, "vsize": 347, "size": 590}