{"hash": "52252c455d247b292ecf69295e003d45ebe87232331109312e94abc4c80187ff", "blockhash": "00000000000000000018f53835495a110e01622372bf6ae95dc86f2b0ab887b0", "vout": [{"scriptPubKey": {"reqSigs": 1, "hex": "76a9142c51d06d83b4eb8d227b18eef643b3fe0e71042d88ac", "addresses": ["153LjzMKq2hzWHqGtMVeH7dmRyza8JZpXf"], "asm": "OP_DUP OP_HASH160 2c51d06d83b4eb8d227b18eef643b3fe0e71042d OP_EQUALVERIFY OP_CHECKSIG", "type": "pubkeyhash"}, "value": 0.023125, "n": 0}, {"scriptPubKey": {"reqSigs": 1, "hex": "76a914b309ef9247d03e28d341f1fbb24c62962d544b9188ac", "addresses": ["1HKfrh5GpyJ8N4m4YKWyEwFzLunMsw75TF"], "asm": "OP_DUP OP_HASH160 b309ef9247d03e28d341f1fbb24c62962d544b91 OP_EQUALVERIFY OP_CHECKSIG", "type": "pubkeyhash"}, "value": 0.031679, "n": 1}], "hex": "0100000001541217cae87c9e60926fb633762e15800ce05d65cbce9a7438eaaf69f9629b50010000006b483045022100b4008a01bcc64f036fafe6de0db85a56a1204895c9d009d010b1e312d20ef3280220487aec5015d33c69836bd58e4e448f6b074a51b735178db2ca83d8dabb879030012102eac180459999e594a6a8973381fe6aadb9d4c8ebe49b5efe27f88e92180ed012fdffffff0234492300000000001976a9142c51d06d83b4eb8d227b18eef643b3fe0e71042d88ac9c563000000000001976a914b309ef9247d03e28d341f1fbb24c62962d544b9188ac0e490800", "vin": [{"sequence": 4294967293, "scriptSig": {"hex": "483045022100b4008a01bcc64f036fafe6de0db85a56a1204895c9d009d010b1e312d20ef3280220487aec5015d33c69836bd58e4e448f6b074a51b735178db2ca83d8dabb879030012102eac180459999e594a6a8973381fe6aadb9d4c8ebe49b5efe27f88e92180ed012", "asm": "3045022100b4008a01bcc64f036fafe6de0db85a56a1204895c9d009d010b1e312d20ef3280220487aec5015d33c69836bd58e4e448f6b074a51b735178db2ca83d8dabb879030[ALL] 02eac180459999e594a6a8973381fe6aadb9d4c8ebe49b5efe27f88e92180ed012"}, "vout": 1, "txid": "509b62f969afea38749acecb655de00c80152e7633b66f92609e7ce8ca171254"}], "txid": "52252c455d247b292ecf69295e003d45ebe87232331109312e94abc4c80187ff", "blocktime": 1537870928, "version": 1, "confirmations": 11512, "time": 1537870928, "locktime": 542990, "vsize": 226, "size": 226}