{"hash": "522cb35e429906e69745a679f67a3cd15649ecb43310b0f6e71eaf53ba981696", "blockhash": "0000000000000000000dcc0f55137456b1a82d3642486a52398922ac4d620174", "vout": [{"scriptPubKey": {"reqSigs": 1, "hex": "a914c249f2b3e22aab741b3f861f7939f4717467df8887", "addresses": ["3KQKbm2jPiMDsgPkDZzdTzGLzqKzd4usaM"], "asm": "OP_HASH160 c249f2b3e22aab741b3f861f7939f4717467df88 OP_EQUAL", "type": "scripthash"}, "value": 0.23308108, "n": 0}, {"scriptPubKey": {"reqSigs": 1, "hex": "76a914bfa76f86f90ddbf1d54e0847197dc11cdfdf996f88ac", "addresses": ["1JUNeGpXxVpHQsXSm4PyTWBnnBkoaGRWsy"], "asm": "OP_DUP OP_HASH160 bfa76f86f90ddbf1d54e0847197dc11cdfdf996f OP_EQUALVERIFY OP_CHECKSIG", "type": "pubkeyhash"}, "value": 1.93188929, "n": 1}], "hex": "01000000016ee2ae0f8405144db937094b91bfa9cc97e2e05b705b12b4f56eb85d54ff1954010000006a47304402202efc4909ee3978e061a90c7b0afde36547372fc9d61c833a381c094e1510155602202034145c6bf3bb5af0f519445700a0aea47bb99c02687520b2d95a702cfa07a60121034ee0e2501ca3d0a45f8a581ab9449c1013547ff6a14e66ad2923961c92b71468ffffffff024ca763010000000017a914c249f2b3e22aab741b3f861f7939f4717467df888741d4830b000000001976a914bfa76f86f90ddbf1d54e0847197dc11cdfdf996f88ac00000000", "vin": [{"sequence": 4294967295, "scriptSig": {"hex": "47304402202efc4909ee3978e061a90c7b0afde36547372fc9d61c833a381c094e1510155602202034145c6bf3bb5af0f519445700a0aea47bb99c02687520b2d95a702cfa07a60121034ee0e2501ca3d0a45f8a581ab9449c1013547ff6a14e66ad2923961c92b71468", "asm": "304402202efc4909ee3978e061a90c7b0afde36547372fc9d61c833a381c094e1510155602202034145c6bf3bb5af0f519445700a0aea47bb99c02687520b2d95a702cfa07a6[ALL] 034ee0e2501ca3d0a45f8a581ab9449c1013547ff6a14e66ad2923961c92b71468"}, "vout": 1, "txid": "5419ff545db86ef5b4125b705be0e297cca9bf914b0937b94d1405840faee26e"}], "txid": "522cb35e429906e69745a679f67a3cd15649ecb43310b0f6e71eaf53ba981696", "blocktime": 1537870268, "version": 1, "confirmations": 11516, "time": 1537870268, "locktime": 0, "vsize": 223, "size": 223}