{"hash": "522e2a7d97a928f366e9fb0decef4e8b13d9042aa36673938e50a0fc089b591c", "blockhash": "00000000000000000024a2167bbff67b0be802c0b01cdd79e6331c2be6459f87", "vout": [{"scriptPubKey": {"reqSigs": 1, "hex": "76a914d243e6abb9a60fbff430b421d2df4b7d59ec186088ac", "addresses": ["1LAnF8h3qMGx3TSwNUHVneBZUEpwE4gu3D"], "asm": "OP_DUP OP_HASH160 d243e6abb9a60fbff430b421d2df4b7d59ec1860 OP_EQUALVERIFY OP_CHECKSIG", "type": "pubkeyhash"}, "value": 0.00076972, "n": 0}, {"scriptPubKey": {"reqSigs": 1, "hex": "76a9143851f34d13937b673a7d24a1950bb5b21ce94af388ac", "addresses": ["168o1kqNquEJeR9vosUB5fw4eAwcVAgh8P"], "asm": "OP_DUP OP_HASH160 3851f34d13937b673a7d24a1950bb5b21ce94af3 OP_EQUALVERIFY OP_CHECKSIG", "type": "pubkeyhash"}, "value": 5.46e-06, "n": 1}, {"scriptPubKey": {"type": "nulldata", "hex": "6a146f6d6e69000000000000001f0000065de795e2a7", "asm": "OP_RETURN 6f6d6e69000000000000001f0000065de795e2a7"}, "value": 0.0, "n": 2}], "hex": "01000000024534e98a0ca4c529885f7c596887d6c74fee1a5ba090dfc177098717e19f8969010000006b483045022100e4449916628e78d7fd8c96bd6c0c6ff18c51e4baca69dd940c5fc0c6c9d7264f0220041dbf2bd76f35504b3727af3ef62c38bc98d2802e900120ef31bcaece50718e0121025022b378064226da2acfecd8ddbdd5a84f7de08569fdb0b39a5d3e230c15fd5affffffff5bf0ffdfe9cc7aa97edd47117163a8d611393a89515ad1781f545e4de647469d000000006b483045022100f396dcfc8a93a5242052e7fabeaf933a90b205dd8e8052a2d540b4859afcdd7902202345559921e690487281d72861e9a72c923325d40490e12e8698a83820c6b3cd01210271977291b74f1f5f5c42157e8aae804664eaaeccfd097918450d37f28fb94d77ffffffff03ac2c0100000000001976a914d243e6abb9a60fbff430b421d2df4b7d59ec186088ac22020000000000001976a9143851f34d13937b673a7d24a1950bb5b21ce94af388ac0000000000000000166a146f6d6e69000000000000001f0000065de795e2a700000000", "vin": [{"sequence": 4294967295, "scriptSig": {"hex": "483045022100e4449916628e78d7fd8c96bd6c0c6ff18c51e4baca69dd940c5fc0c6c9d7264f0220041dbf2bd76f35504b3727af3ef62c38bc98d2802e900120ef31bcaece50718e0121025022b378064226da2acfecd8ddbdd5a84f7de08569fdb0b39a5d3e230c15fd5a", "asm": "3045022100e4449916628e78d7fd8c96bd6c0c6ff18c51e4baca69dd940c5fc0c6c9d7264f0220041dbf2bd76f35504b3727af3ef62c38bc98d2802e900120ef31bcaece50718e[ALL] 025022b378064226da2acfecd8ddbdd5a84f7de08569fdb0b39a5d3e230c15fd5a"}, "vout": 1, "txid": "69899fe117870977c1df90a05b1aee4fc7d68768597c5f8829c5a40c8ae93445"}, {"sequence": 4294967295, "scriptSig": {"hex": "483045022100f396dcfc8a93a5242052e7fabeaf933a90b205dd8e8052a2d540b4859afcdd7902202345559921e690487281d72861e9a72c923325d40490e12e8698a83820c6b3cd01210271977291b74f1f5f5c42157e8aae804664eaaeccfd097918450d37f28fb94d77", "asm": "3045022100f396dcfc8a93a5242052e7fabeaf933a90b205dd8e8052a2d540b4859afcdd7902202345559921e690487281d72861e9a72c923325d40490e12e8698a83820c6b3cd[ALL] 0271977291b74f1f5f5c42157e8aae804664eaaeccfd097918450d37f28fb94d77"}, "vout": 0, "txid": "9d4647e64d5e541f78d15a51893a3911d6a863711147dd7ea97acce9dffff05b"}], "txid": "522e2a7d97a928f366e9fb0decef4e8b13d9042aa36673938e50a0fc089b591c", "blocktime": 1537870564, "version": 1, "confirmations": 11515, "time": 1537870564, "locktime": 0, "vsize": 405, "size": 405}