{"hash": "c654c1dbd87e0c7ac55c3da03ba9fce3b10261593bb9b8e8505a2968583ba1b9", "blockhash": "00000000000000000024a2167bbff67b0be802c0b01cdd79e6331c2be6459f87", "vout": [{"scriptPubKey": {"reqSigs": 1, "hex": "a914a9bb4eea0a678fad7bf08b82b8005912f70ed2b387", "addresses": ["3HAUWNMnkqTaiPDzV8PRHqAscMAGx73N6v"], "asm": "OP_HASH160 a9bb4eea0a678fad7bf08b82b8005912f70ed2b3 OP_EQUAL", "type": "scripthash"}, "value": 4.00267217, "n": 0}, {"scriptPubKey": {"reqSigs": 1, "hex": "76a9145605ee4d8ba1141e983d626c671e24e6b9651d0b88ac", "addresses": ["18qrDajJStAAHXPqeaXNXkFzv1BPCMqKxM"], "asm": "OP_DUP OP_HASH160 5605ee4d8ba1141e983d626c671e24e6b9651d0b OP_EQUALVERIFY OP_CHECKSIG", "type": "pubkeyhash"}, "value": 0.261091, "n": 1}], "hex": "0200000000010146d4a258688e4607bb748dbd99771b3383cff55c3ecb05a6116c005205991747010000001716001449c102835f0534cf8ec9189fb90fa2de58fc0f10feffffff02d197db170000000017a914a9bb4eea0a678fad7bf08b82b8005912f70ed2b387ac648e01000000001976a9145605ee4d8ba1141e983d626c671e24e6b9651d0b88ac0247304402204bef938efa8273d98f70f2210edfe159471b605838d83128e94d4c71c61b084802205e7c5aa81bdfc1ca605fbbf8471ff5f81487705289c8e902306bdc947cec3e5b01210319371fe4af25c8ab5080052ba83dee4043ec32727a1c0b018176ab908a0f741f0d490800", "vin": [{"txinwitness": ["304402204bef938efa8273d98f70f2210edfe159471b605838d83128e94d4c71c61b084802205e7c5aa81bdfc1ca605fbbf8471ff5f81487705289c8e902306bdc947cec3e5b01", "0319371fe4af25c8ab5080052ba83dee4043ec32727a1c0b018176ab908a0f741f"], "sequence": 4294967294, "scriptSig": {"hex": "16001449c102835f0534cf8ec9189fb90fa2de58fc0f10", "asm": "001449c102835f0534cf8ec9189fb90fa2de58fc0f10"}, "vout": 1, "txid": "4717990552006c11a605cb3e5cf5cf83331b7799bd8d74bb07468e6858a2d446"}], "txid": "52300b18011731d280f1dcca389e970e912825cedb790d60193f0adaf7a9f39f", "blocktime": 1537870564, "version": 2, "confirmations": 11515, "time": 1537870564, "locktime": 542989, "vsize": 168, "size": 249}