{"hash": "3a477460772124879564efd9f9537657012b95e29ec631f851e5892ec0280bf4", "blockhash": "0000000000000000001cda96e906b7601b7a6fb1a3b62bca570a9e5d8f4b3de1", "vout": [{"scriptPubKey": {"reqSigs": 1, "hex": "a914e743fbb41d94f3ae434b16f7a4a29cc82a4ed9a687", "addresses": ["3NmqTQveBifq6GLY26CbG6VnGTj6rWjWQB"], "asm": "OP_HASH160 e743fbb41d94f3ae434b16f7a4a29cc82a4ed9a6 OP_EQUAL", "type": "scripthash"}, "value": 0.13547466, "n": 0}, {"scriptPubKey": {"reqSigs": 1, "hex": "76a914738fb16326589e4c8e4c61b02d47c920976dc21488ac", "addresses": ["1BY2r28mnPV4piiQFX2FPA712cBfDNRPXE"], "asm": "OP_DUP OP_HASH160 738fb16326589e4c8e4c61b02d47c920976dc214 OP_EQUALVERIFY OP_CHECKSIG", "type": "pubkeyhash"}, "value": 0.01052258, "n": 1}], "hex": "010000000001017bda9f6e39857603264c2e729e7da2b64fc6a131a30d93a197f841f6de71930e01000000232200204e181aa52be7714db060c745cb406111eba979db16df2048adc241ac35c161dcffffffff02cab7ce000000000017a914e743fbb41d94f3ae434b16f7a4a29cc82a4ed9a687620e1000000000001976a914738fb16326589e4c8e4c61b02d47c920976dc21488ac04004830450221008b423945721031795ac59a9f0208aa64975dca21259de132fa5fabf8cafee44d022074013c3129577dc7ee0506f1ea76a36ba60eee727a2dad8764e153187cf348db01483045022100a0f73dc8e0b0cf281cd4500a97e818ec22afaaba427938840d87994252232156022069d78a69151e7505da85b56079f99c3cb23fcbe03f4091e77866145d6eb8ef760169522103494ab4a6d374ebae5c85a58567e05652f0ed6a5ec4e5872f62be3ccf8ae5d4572102c8ff8b08c714a22a892cf0909262c2e258dc581292edefec6805a2b8018b6d7f210211a9f0ef713dcac098357090a8841fdcffa53494a9d60f43b0457af06500b5b653ae00000000", "vin": [{"txinwitness": ["", "30450221008b423945721031795ac59a9f0208aa64975dca21259de132fa5fabf8cafee44d022074013c3129577dc7ee0506f1ea76a36ba60eee727a2dad8764e153187cf348db01", "3045022100a0f73dc8e0b0cf281cd4500a97e818ec22afaaba427938840d87994252232156022069d78a69151e7505da85b56079f99c3cb23fcbe03f4091e77866145d6eb8ef7601", "522103494ab4a6d374ebae5c85a58567e05652f0ed6a5ec4e5872f62be3ccf8ae5d4572102c8ff8b08c714a22a892cf0909262c2e258dc581292edefec6805a2b8018b6d7f210211a9f0ef713dcac098357090a8841fdcffa53494a9d60f43b0457af06500b5b653ae"], "sequence": 4294967295, "scriptSig": {"hex": "2200204e181aa52be7714db060c745cb406111eba979db16df2048adc241ac35c161dc", "asm": "00204e181aa52be7714db060c745cb406111eba979db16df2048adc241ac35c161dc"}, "vout": 1, "txid": "0e9371def641f897a1930da331a1c64fb6a27d9e722e4c26037685396e9fda7b"}], "txid": "52330adc39703a483705f6baf1a2e3998edb5ec1e6c0959910aa50b4fd010c85", "blocktime": 1537873282, "version": 1, "confirmations": 11484, "time": 1537873282, "locktime": 0, "vsize": 216, "size": 408}