{"hash": "52348eeadaab7992849d6fed2e2c8f269cf18829f39f6783b24a0f1ebb72a7ab", "blockhash": "0000000000000000000e13cef7c366c0283d82e591d1acd082e914b08063cdf1", "vout": [{"scriptPubKey": {"reqSigs": 1, "hex": "76a91475dd7fae926940f72e689f3e1f640a0fe9fff97588ac", "addresses": ["1BkDQSxr4Q6XPTVwsa1RzLczjCxhTZ2irm"], "asm": "OP_DUP OP_HASH160 75dd7fae926940f72e689f3e1f640a0fe9fff975 OP_EQUALVERIFY OP_CHECKSIG", "type": "pubkeyhash"}, "value": 0.01921514, "n": 0}], "hex": "0100000001ae97dcfbadfd42e48bd6953d3567c9501061cea6d04d9176641ffe8fd9455455010000006b483045022100c158f44f266c707d7c3a964eff05d542f1f0cb868e048580f111dcc37a1e9e9402205464ca49be30213d733c6fc8c574c1ebf7f013a50134002f283200e390be1ef6012102f03f1c0dceb200b038036e13caa206b2aa9f22a753a642646e368af12343bf31ffffffff01ea511d00000000001976a91475dd7fae926940f72e689f3e1f640a0fe9fff97588ac00000000", "vin": [{"sequence": 4294967295, "scriptSig": {"hex": "483045022100c158f44f266c707d7c3a964eff05d542f1f0cb868e048580f111dcc37a1e9e9402205464ca49be30213d733c6fc8c574c1ebf7f013a50134002f283200e390be1ef6012102f03f1c0dceb200b038036e13caa206b2aa9f22a753a642646e368af12343bf31", "asm": "3045022100c158f44f266c707d7c3a964eff05d542f1f0cb868e048580f111dcc37a1e9e9402205464ca49be30213d733c6fc8c574c1ebf7f013a50134002f283200e390be1ef6[ALL] 02f03f1c0dceb200b038036e13caa206b2aa9f22a753a642646e368af12343bf31"}, "vout": 1, "txid": "555445d98ffe1f6476914dd0a6ce611050c967353d95d68be442fdadfbdc97ae"}], "txid": "52348eeadaab7992849d6fed2e2c8f269cf18829f39f6783b24a0f1ebb72a7ab", "blocktime": 1537871767, "version": 1, "confirmations": 11491, "time": 1537871767, "locktime": 0, "vsize": 192, "size": 192}