{"hash": "52345bf58cfc43b0c0096ba38b01d047755986832409942e535550e08be0c472", "blockhash": "00000000000000000017f5eb5941039fbcee6240d03bc1f2f8e35350df66a1d8", "vout": [{"scriptPubKey": {"type": "nulldata", "hex": "6a146f6d6e69000000000000001f0000002e90edd000", "asm": "OP_RETURN 6f6d6e69000000000000001f0000002e90edd000"}, "value": 0.0, "n": 0}, {"scriptPubKey": {"reqSigs": 1, "hex": "76a914a25dec4d0011064ef106a983c39c7a540699f22088ac", "addresses": ["1FoWyxwPXuj4C6abqwhjDWdz6D4PZgYRjA"], "asm": "OP_DUP OP_HASH160 a25dec4d0011064ef106a983c39c7a540699f220 OP_EQUALVERIFY OP_CHECKSIG", "type": "pubkeyhash"}, "value": 5.46e-06, "n": 1}, {"scriptPubKey": {"reqSigs": 1, "hex": "76a914457d9ed19cc792914b026d473f84d6f18765e1d788ac", "addresses": ["17LS7VdufwdniWzkj653vZR3ZqbCR3k2jV"], "asm": "OP_DUP OP_HASH160 457d9ed19cc792914b026d473f84d6f18765e1d7 OP_EQUALVERIFY OP_CHECKSIG", "type": "pubkeyhash"}, "value": 0.00494432, "n": 2}], "hex": "0100000003a37013cd493c9bd23b7f50888ae992ee26a9e747d16793143e5871a216fd2817010000006b483045022100a48916af2c83f9b093384284e85217f19fd7e49387b673ca175d838fe1137b0b022028803216af766a174507fbfceb808e5e0c96b88cb6752fe70dc29f44ab3ab411012102bd1bdcf4ef3687f8fc250edb19fd459b20c65ebe12f76e1c93e993f0915eb7fbfeffffffb65318ac4e3b7630ef283d9676b68e59a91525d81f18aa395a6c8fc21717f384010000006a473044022073a86db38deab87723b808bacc8812330d314c74986f40cfe90460b8b4c7e5a7022014bf0c34a3e7281c3605bf7b65613391981bd87339d0fe9b131196657692013d012102bd1bdcf4ef3687f8fc250edb19fd459b20c65ebe12f76e1c93e993f0915eb7fbfeffffff1aa88c204f6b2a1e8de4da70a236d126d00787e880193e2e5b70cccbdc30903a020000006a473044022031c75403d159baddba99f430b28dc900a30d77dcffb0d5b5d803f97f04fe6fa202200a3306cd7c50580daf9454ac13e92c8c52af8478cec77d1b2765d093ba726d81012102bd1bdcf4ef3687f8fc250edb19fd459b20c65ebe12f76e1c93e993f0915eb7fbfeffffff030000000000000000166a146f6d6e69000000000000001f0000002e90edd00022020000000000001976a914a25dec4d0011064ef106a983c39c7a540699f22088ac608b0700000000001976a914457d9ed19cc792914b026d473f84d6f18765e1d788ac15490800", "vin": [{"sequence": 4294967294, "scriptSig": {"hex": "483045022100a48916af2c83f9b093384284e85217f19fd7e49387b673ca175d838fe1137b0b022028803216af766a174507fbfceb808e5e0c96b88cb6752fe70dc29f44ab3ab411012102bd1bdcf4ef3687f8fc250edb19fd459b20c65ebe12f76e1c93e993f0915eb7fb", "asm": "3045022100a48916af2c83f9b093384284e85217f19fd7e49387b673ca175d838fe1137b0b022028803216af766a174507fbfceb808e5e0c96b88cb6752fe70dc29f44ab3ab411[ALL] 02bd1bdcf4ef3687f8fc250edb19fd459b20c65ebe12f76e1c93e993f0915eb7fb"}, "vout": 1, "txid": "1728fd16a271583e149367d147e7a926ee92e98a88507f3bd29b3c49cd1370a3"}, {"sequence": 4294967294, "scriptSig": {"hex": "473044022073a86db38deab87723b808bacc8812330d314c74986f40cfe90460b8b4c7e5a7022014bf0c34a3e7281c3605bf7b65613391981bd87339d0fe9b131196657692013d012102bd1bdcf4ef3687f8fc250edb19fd459b20c65ebe12f76e1c93e993f0915eb7fb", "asm": "3044022073a86db38deab87723b808bacc8812330d314c74986f40cfe90460b8b4c7e5a7022014bf0c34a3e7281c3605bf7b65613391981bd87339d0fe9b131196657692013d[ALL] 02bd1bdcf4ef3687f8fc250edb19fd459b20c65ebe12f76e1c93e993f0915eb7fb"}, "vout": 1, "txid": "84f31717c28f6c5a39aa181fd82515a9598eb676963d28ef30763b4eac1853b6"}, {"sequence": 4294967294, "scriptSig": {"hex": "473044022031c75403d159baddba99f430b28dc900a30d77dcffb0d5b5d803f97f04fe6fa202200a3306cd7c50580daf9454ac13e92c8c52af8478cec77d1b2765d093ba726d81012102bd1bdcf4ef3687f8fc250edb19fd459b20c65ebe12f76e1c93e993f0915eb7fb", "asm": "3044022031c75403d159baddba99f430b28dc900a30d77dcffb0d5b5d803f97f04fe6fa202200a3306cd7c50580daf9454ac13e92c8c52af8478cec77d1b2765d093ba726d81[ALL] 02bd1bdcf4ef3687f8fc250edb19fd459b20c65ebe12f76e1c93e993f0915eb7fb"}, "vout": 2, "txid": "3a9030dccbcc705b2e3e1980e88707d026d136a270dae48d1e2a6b4f208ca81a"}], "txid": "52345bf58cfc43b0c0096ba38b01d047755986832409942e535550e08be0c472", "blocktime": 1537874412, "version": 1, "confirmations": 11468, "time": 1537874412, "locktime": 542997, "vsize": 551, "size": 551}