{"hash": "a0ee951ec1e3f1ec32f0cc76dbcf4af3163cffb7aa64dad5ba59d3d7efb1e06f", "blockhash": "0000000000000000001e0dab787dd257d1dbfcb92a98c2207d5e1078be1f4165", "vout": [{"scriptPubKey": {"reqSigs": 1, "hex": "a91413eadf92d55e0cba1f1e798f9d4db04ebee260b887", "addresses": ["33WL8USRe2wwBPkgRQSR3c9kHXZgfDWPQ9"], "asm": "OP_HASH160 13eadf92d55e0cba1f1e798f9d4db04ebee260b8 OP_EQUAL", "type": "scripthash"}, "value": 0.01517928, "n": 0}, {"scriptPubKey": {"reqSigs": 1, "hex": "76a914228b5ae2dba1ec4fc7f1a9fd0e8771422777c2dd88ac", "addresses": ["149ev5awLvWUSaY62a1DtKvN5KSmtsRdpD"], "asm": "OP_DUP OP_HASH160 228b5ae2dba1ec4fc7f1a9fd0e8771422777c2dd OP_EQUALVERIFY OP_CHECKSIG", "type": "pubkeyhash"}, "value": 0.0241, "n": 1}], "hex": "0200000000010262d5ba315388d9be80bbdc688dc332757d1d416ab25d3a928cf78bd026da65300100000017160014e46341d858980019ef0ead50b9439b072d732d3bfeffffff7c7ff8ea119dc08aa59e67c03d6f753dabc175b85b5d8f99ff892b42418bb5cf0100000017160014c82e48c0fb74123690de6d8d112f56384193e164feffffff02682917000000000017a91413eadf92d55e0cba1f1e798f9d4db04ebee260b88710c62400000000001976a914228b5ae2dba1ec4fc7f1a9fd0e8771422777c2dd88ac024830450221008d3c95c67b024491cadc2c125d18c5394abc0c3d2db0cbacb483c13dfdffb8fe022066a3962d39231d925f2e4f2ae2b25d1cb04532930dc79ed0eca552fff0860183012103266ea2214c7222bce663465a98dd282d69ef0d876c3faf1c04538607bffc83790247304402202b81730700137a2126cfcf13cd625bc25e2a1bb0ef97521da05609298ca421ec0220679fb8c9998b4c9db58837b08ad467c112dfbbd9343107d26804dab5301c23b50121022c433b73d31cfde26677101ac909533838d2e3621b76d7bb4e1708432d53491f11490800", "vin": [{"txinwitness": ["30450221008d3c95c67b024491cadc2c125d18c5394abc0c3d2db0cbacb483c13dfdffb8fe022066a3962d39231d925f2e4f2ae2b25d1cb04532930dc79ed0eca552fff086018301", "03266ea2214c7222bce663465a98dd282d69ef0d876c3faf1c04538607bffc8379"], "sequence": 4294967294, "scriptSig": {"hex": "160014e46341d858980019ef0ead50b9439b072d732d3b", "asm": "0014e46341d858980019ef0ead50b9439b072d732d3b"}, "vout": 1, "txid": "3065da26d08bf78c923a5db26a411d7d7532c38d68dcbb80bed9885331bad562"}, {"txinwitness": ["304402202b81730700137a2126cfcf13cd625bc25e2a1bb0ef97521da05609298ca421ec0220679fb8c9998b4c9db58837b08ad467c112dfbbd9343107d26804dab5301c23b501", "022c433b73d31cfde26677101ac909533838d2e3621b76d7bb4e1708432d53491f"], "sequence": 4294967294, "scriptSig": {"hex": "160014c82e48c0fb74123690de6d8d112f56384193e164", "asm": "0014c82e48c0fb74123690de6d8d112f56384193e164"}, "vout": 1, "txid": "cfb58b41422b89ff998f5d5bb875c1ab3d756f3dc0679ea58ac09d11eaf87f7c"}], "txid": "52398311dc2cae16f53dfd3dfbd3540c38a122e0492f04a8f1841f6072a0950d", "blocktime": 1537872475, "version": 2, "confirmations": 11486, "time": 1537872475, "locktime": 542993, "vsize": 259, "size": 421}