{"hash": "523b7d67e22a87941a47edbc1a3eab017d14f35336e113370fcdcd73840d595b", "blockhash": "00000000000000000017f5eb5941039fbcee6240d03bc1f2f8e35350df66a1d8", "vout": [{"scriptPubKey": {"reqSigs": 1, "hex": "76a9144b1532506956fcebb01ab4aa28b92194241d2c8a88ac", "addresses": ["17r159d77bDFR5xekzkjVjoTwpbmRUg9y7"], "asm": "OP_DUP OP_HASH160 4b1532506956fcebb01ab4aa28b92194241d2c8a OP_EQUALVERIFY OP_CHECKSIG", "type": "pubkeyhash"}, "value": 0.36203368, "n": 0}, {"scriptPubKey": {"type": "nulldata", "hex": "6a146f6d6e69000000000000001f00000009dbd19090", "asm": "OP_RETURN 6f6d6e69000000000000001f00000009dbd19090"}, "value": 0.0, "n": 1}, {"scriptPubKey": {"reqSigs": 1, "hex": "76a9144dd481a5a3ffdaf21ba7f3a1377717bdbdba602688ac", "addresses": ["186XbyezA5TVmaiKzMxwTCvjtQn8iAEta8"], "asm": "OP_DUP OP_HASH160 4dd481a5a3ffdaf21ba7f3a1377717bdbdba6026 OP_EQUALVERIFY OP_CHECKSIG", "type": "pubkeyhash"}, "value": 5.46e-06, "n": 2}], "hex": "01000000013798cc4379f2f3694907913f8362b8ddb87054a7c6dff5012e264595b80a2e2c010000006b483045022100c90d0223857cc2f989ef67f5958e28f18ad66768af023a909d4ce9460766891f02203c56f2bfdb67b920ded58abd4fc329bdde2e42a0f91ce6e712f8664bbd8033d3012102aa719c0a882f6710c208564d529c16b185eeade8d48c4c3df245166f1201d439feffffff03686b2802000000001976a9144b1532506956fcebb01ab4aa28b92194241d2c8a88ac0000000000000000166a146f6d6e69000000000000001f00000009dbd1909022020000000000001976a9144dd481a5a3ffdaf21ba7f3a1377717bdbdba602688ac15490800", "vin": [{"sequence": 4294967294, "scriptSig": {"hex": "483045022100c90d0223857cc2f989ef67f5958e28f18ad66768af023a909d4ce9460766891f02203c56f2bfdb67b920ded58abd4fc329bdde2e42a0f91ce6e712f8664bbd8033d3012102aa719c0a882f6710c208564d529c16b185eeade8d48c4c3df245166f1201d439", "asm": "3045022100c90d0223857cc2f989ef67f5958e28f18ad66768af023a909d4ce9460766891f02203c56f2bfdb67b920ded58abd4fc329bdde2e42a0f91ce6e712f8664bbd8033d3[ALL] 02aa719c0a882f6710c208564d529c16b185eeade8d48c4c3df245166f1201d439"}, "vout": 1, "txid": "2c2e0ab89545262e01f5dfc6a75470b8ddb862833f91074969f3f27943cc9837"}], "txid": "523b7d67e22a87941a47edbc1a3eab017d14f35336e113370fcdcd73840d595b", "blocktime": 1537874412, "version": 1, "confirmations": 11466, "time": 1537874412, "locktime": 542997, "vsize": 257, "size": 257}