{"hash": "5e5d4c1e82b05e8faade069976c82d906d934209a476644bf02c0d9e030b12fa", "blockhash": "00000000000000000024a2167bbff67b0be802c0b01cdd79e6331c2be6459f87", "vout": [{"scriptPubKey": {"reqSigs": 1, "hex": "a9140942ba17b3d090c7397781d59b96a51e673f95d487", "addresses": ["32XywYAkaKHTUJk84SB2jPhKTG9694hy9P"], "asm": "OP_HASH160 0942ba17b3d090c7397781d59b96a51e673f95d4 OP_EQUAL", "type": "scripthash"}, "value": 0.003146, "n": 0}, {"scriptPubKey": {"reqSigs": 1, "hex": "a914c9ecc31d6a799d8d37c08d589825fae0be6b435d87", "addresses": ["3L6hNdELPXnFQwzKBe9Xqop3tSBh9MzoBx"], "asm": "OP_HASH160 c9ecc31d6a799d8d37c08d589825fae0be6b435d OP_EQUAL", "type": "scripthash"}, "value": 0.05123781, "n": 1}, {"scriptPubKey": {"reqSigs": 1, "hex": "a914aba304dca90cd2ef32ee4414b669664d0afd25c187", "addresses": ["3HLYm737Jtja4GKNYzntmiQnYS6rwTahCU"], "asm": "OP_HASH160 aba304dca90cd2ef32ee4414b669664d0afd25c1 OP_EQUAL", "type": "scripthash"}, "value": 2e-05, "n": 2}], "hex": "02000000000101e3ff4a199f5ca1201e288f04092765fde2fad50ed616961d5d288ebc4a39050800000000171600140316a3f9ebdc340a05d1f68c7b16adbf2330074afeffffff03e8cc04000000000017a9140942ba17b3d090c7397781d59b96a51e673f95d487c52e4e000000000017a914c9ecc31d6a799d8d37c08d589825fae0be6b435d87d00700000000000017a914aba304dca90cd2ef32ee4414b669664d0afd25c18702483045022100c9f01f1a6246f8723567c15b3bca0b9ec2032495950ab26070545c145bb2b25b0220147e5545cf686d1d9900925e685770c7424d7ed516cb6c2910cf7cfbe2ca9d950121038113b93daab472b8bda2790dc2d031366a953408bbe66571613f851e38b63cefea480800", "vin": [{"txinwitness": ["3045022100c9f01f1a6246f8723567c15b3bca0b9ec2032495950ab26070545c145bb2b25b0220147e5545cf686d1d9900925e685770c7424d7ed516cb6c2910cf7cfbe2ca9d9501", "038113b93daab472b8bda2790dc2d031366a953408bbe66571613f851e38b63cef"], "sequence": 4294967294, "scriptSig": {"hex": "1600140316a3f9ebdc340a05d1f68c7b16adbf2330074a", "asm": "00140316a3f9ebdc340a05d1f68c7b16adbf2330074a"}, "vout": 0, "txid": "0805394abc8e285d1d9616d60ed5fae2fd652709048f281e20a15c9f194affe3"}], "txid": "523f11407f2809911399204cec605b4c4905ea3ae235b40f0a86e724d8f275d2", "blocktime": 1537870564, "version": 2, "confirmations": 11515, "time": 1537870564, "locktime": 542954, "vsize": 198, "size": 280}