{"hash": "524009775816432c8274ce0fd2ab15d01b9d5c4620b601116282f0bf8391b347", "blockhash": "00000000000000000024a2167bbff67b0be802c0b01cdd79e6331c2be6459f87", "vout": [{"scriptPubKey": {"reqSigs": 1, "hex": "76a914f15735d5384272b5ed65142a4a016eaa4dff4c5088ac", "addresses": ["1P16Ki4XJ7ht8g1Xy56zHAoocefTjQVPqE"], "asm": "OP_DUP OP_HASH160 f15735d5384272b5ed65142a4a016eaa4dff4c50 OP_EQUALVERIFY OP_CHECKSIG", "type": "pubkeyhash"}, "value": 0.0224522, "n": 0}, {"scriptPubKey": {"type": "nulldata", "hex": "6a4c500000777c0001b5e35f1de28bd9246c8a4ea5bcbefa6b8351586b4e86aeaeacb577c031fc188e23a49bea01f4b5f926be4d26c66a5baa0a0d0614ac97a78d2db7bc9a9526289ac0f6612cd74e33776ee4", "asm": "OP_RETURN 0000777c0001b5e35f1de28bd9246c8a4ea5bcbefa6b8351586b4e86aeaeacb577c031fc188e23a49bea01f4b5f926be4d26c66a5baa0a0d0614ac97a78d2db7bc9a9526289ac0f6612cd74e33776ee4"}, "value": 0.0, "n": 1}], "hex": "01000000019a16cf8baa8409322c77acf871369e6a0b3c44dc0a7353fc9db5c2bdc0e82b24000000006a47304402201b7aa0502e9ad1f5265bd893f50f55ec13be3404ea15f7f10cea81a85225825302201c137f0be80d61fd1f75fee48b9243f26f4459542b99115e9c93b134db7ca48d0121032118e4efddebcf8cdf27816cb249820ca60ff7c562f58a25f9b1dc7d90588a23ffffffff0264422200000000001976a914f15735d5384272b5ed65142a4a016eaa4dff4c5088ac0000000000000000536a4c500000777c0001b5e35f1de28bd9246c8a4ea5bcbefa6b8351586b4e86aeaeacb577c031fc188e23a49bea01f4b5f926be4d26c66a5baa0a0d0614ac97a78d2db7bc9a9526289ac0f6612cd74e33776ee400000000", "vin": [{"sequence": 4294967295, "scriptSig": {"hex": "47304402201b7aa0502e9ad1f5265bd893f50f55ec13be3404ea15f7f10cea81a85225825302201c137f0be80d61fd1f75fee48b9243f26f4459542b99115e9c93b134db7ca48d0121032118e4efddebcf8cdf27816cb249820ca60ff7c562f58a25f9b1dc7d90588a23", "asm": "304402201b7aa0502e9ad1f5265bd893f50f55ec13be3404ea15f7f10cea81a85225825302201c137f0be80d61fd1f75fee48b9243f26f4459542b99115e9c93b134db7ca48d[ALL] 032118e4efddebcf8cdf27816cb249820ca60ff7c562f58a25f9b1dc7d90588a23"}, "vout": 0, "txid": "242be8c0bdc2b59dfc53730adc443c0b6a9e3671f8ac772c320984aa8bcf169a"}], "txid": "524009775816432c8274ce0fd2ab15d01b9d5c4620b601116282f0bf8391b347", "blocktime": 1537870564, "version": 1, "confirmations": 11515, "time": 1537870564, "locktime": 0, "vsize": 283, "size": 283}