{"hash": "cf578b8d544fd15c086e84779ed2d5f982b65a8cebf95c6edbe1d3b0054894ea", "blockhash": "0000000000000000001f0ddff1eddb255c1121bcd4da4f1bc9a0da00cae72433", "vout": [{"scriptPubKey": {"reqSigs": 1, "hex": "0014596a1910eb8d726320ddd8bdd87e97d4bec45958", "addresses": ["bc1qt94pjy8t34exxgxamz7asl5h6jlvgk2cek6sh5"], "asm": "0 596a1910eb8d726320ddd8bdd87e97d4bec45958", "type": "witness_v0_keyhash"}, "value": 0.00011085, "n": 0}, {"scriptPubKey": {"reqSigs": 1, "hex": "a914e5cbb048211dd5997d9607dcea4fe67aa8f8d86387", "addresses": ["3Ne4g1F5LXQGNEAQiqHasY3B9E3iGg2zGj"], "asm": "OP_HASH160 e5cbb048211dd5997d9607dcea4fe67aa8f8d863 OP_EQUAL", "type": "scripthash"}, "value": 0.0036317, "n": 1}], "hex": "01000000000101fee834a56e074b9b3a1fc48f1cd83c6199b558437ca69950daf7b7f21be75b3f0e00000017160014b954ecb8becd3f9c35fe743ebb9d71ee30a3fcafffffffff024d2b000000000000160014596a1910eb8d726320ddd8bdd87e97d4bec45958a28a05000000000017a914e5cbb048211dd5997d9607dcea4fe67aa8f8d86387024730440220684ead897a46feff20c88a7121b3f2c4939bfa84ddfe463df46981d14a7f5ed8022017d478337ecb825acf2dc667c5814ecde97cf988a0ae22acb9f2c71203690738012103e6e893fdde470fcd446daa68e54f416a8b4e1b873d94d7982f4e7bf63fb4ee5800000000", "vin": [{"txinwitness": ["30440220684ead897a46feff20c88a7121b3f2c4939bfa84ddfe463df46981d14a7f5ed8022017d478337ecb825acf2dc667c5814ecde97cf988a0ae22acb9f2c7120369073801", "03e6e893fdde470fcd446daa68e54f416a8b4e1b873d94d7982f4e7bf63fb4ee58"], "sequence": 4294967295, "scriptSig": {"hex": "160014b954ecb8becd3f9c35fe743ebb9d71ee30a3fcaf", "asm": "0014b954ecb8becd3f9c35fe743ebb9d71ee30a3fcaf"}, "vout": 14, "txid": "3f5be71bf2b7f7da5099a67c4358b599613cd81c8fc41f3a9b4b076ea534e8fe"}], "txid": "52468c172eb6797d2dea7a747eab95d9b0f37e23d7f9ed873a693c8376d60664", "blocktime": 1537872018, "version": 1, "confirmations": 11489, "time": 1537872018, "locktime": 0, "vsize": 165, "size": 246}