{"hash": "c6880090be292f95481f71d4378dcaaef7a8b22a2c8fc644892f6da0b62cac97", "blockhash": "00000000000000000018f53835495a110e01622372bf6ae95dc86f2b0ab887b0", "vout": [{"scriptPubKey": {"reqSigs": 1, "hex": "76a914d285d96eaf65737f1f4d43f3125882ff9ed5e54688ac", "addresses": ["1LC9FJPy7D7wMhkG5VVQVQJMsQfEo72DQW"], "asm": "OP_DUP OP_HASH160 d285d96eaf65737f1f4d43f3125882ff9ed5e546 OP_EQUALVERIFY OP_CHECKSIG", "type": "pubkeyhash"}, "value": 0.22978311, "n": 0}, {"scriptPubKey": {"reqSigs": 1, "hex": "a9141bfc4bb3efc1b143e5cdb4a1024481065596bfd887", "addresses": ["34EzQY5ocjupngrSwy3FQdH2CE1FvjJiH4"], "asm": "OP_HASH160 1bfc4bb3efc1b143e5cdb4a1024481065596bfd8 OP_EQUAL", "type": "scripthash"}, "value": 0.06479296, "n": 1}], "hex": "0100000000010849895455d05dff5e7cd0dd2e528ab5ddbbf13d6632f1b68b0bb97034461a13e90100000023220020b77729f190b52f0c6c4c8d3b6915fbb2ab1eac57ed762d601f25a864a7fae50bffffffff161401ab5bdb9319539772bae285375b8ba7c3a103a5c6ba509083b66efedc2b00000000232200207eff0a12fb43bc6f80e9d01c82542e26a6d2db406c27a2833324772b39448994ffffffff04152ef5ff62f19f93a9fcff19888675023fe0cbcc673dbc0a30f02a878d3d2b0100000023220020dc6ffdd9b921d7fe79e58b6fee64c63441e9850c796684fe91273164226b5d6affffffff56c79cd2fc001227ba3400fa7424c8988ae1f4e9e0acb08d2e382823155772da010000002322002089d17c9dbe674335fe0b8cc87c10658dc8ae500c73a4cc6f735c09d0a4dc7ad0ffffffff64f6b489c6eefed68600a90770351eaefdabf85c1b2cbd7a2a5833f6d9a37b7401000000232200208234487a9321c3c022b60a8c4179817d92979cf125c0fe43965fbdbfda807482ffffffff1a905eedb1b6847c280396f55363295673907c3ace7437c52647a1869caae26c01000000232200204d3c76beccf19f812bd11d546447b97e30c710438133eebfedaac3664671f5abffffffffc84a178ec68b63d28231a4f17c3ecdc17d0decd1242bed9587ff30f13eb7ba9e01000000232200204a3325e88db5b82387c0a7229a7e72f0e6bed14b56a0b8f388ad40c692078744ffffffffd914b215c49e56e15f8ad52fd0ba789b83c8eb0d00e9b13e16fb24b962ce59c601000000232200207135994108d52b1b464caca75c15bf900bfdb3e7599ca3994a787a6e9d101485ffffffff02079f5e01000000001976a914d285d96eaf65737f1f4d43f3125882ff9ed5e54688acc0dd62000000000017a9141bfc4bb3efc1b143e5cdb4a1024481065596bfd8870400483045022100ed3b477378cdc80b140900d19b31b7fdac7443b46a105104bf2d0c2bde2ae505022056bbc29901106643dcba3623f643147868e2b338564b6d58659d1aec647d74f801483045022100a79025c23edb97e88bf42901eb029e9f13f7f9c807044db31e205a5511a3e26102201ee2ad52a3f6419f5b1f1ebba9de8830924da1703de0629accf412ef2d038c220147522103168262cd09c0ce51f57bb8793a08baf4fc25326059a5152f9fc69348fa842bcf21038407424ead2b88063db2d589e50c34e1572f6b82eb9e266dec536939ee0db9eb52ae040047304402204c1e0772a0d7228b1701c45924a3861b6d0180f118a26aa4dad5d74fe31cc2e902206477a037ddef3201bcf25798e03c042ea569b91dce9e97babbeeede961cd730601483045022100d65e83f3e7226cf90743e6d114880d8efc03e7dd868dbf2055db6fe1663d3f5802202975887fd8af4a0b7bfc46d7d0fbfaedc6b13a965121b32682452735afd444cf01475221036990c0854c27b476e323302315fda2994f6a10468318d2bd418247839f66f70321038407424ead2b88063db2d589e50c34e1572f6b82eb9e266dec536939ee0db9eb52ae0400473044022040b75477575bf04ae99820e9e9d3c94b3035cdf5026420fa87b294ff511ed858022050aec1db9b101b2bbb9bbfc9432f6bbad5383c9508494f5f0d135f4ecda4be700147304402202597cef51b352a9216c762a444d3c4ac992d9c32c340d90309203ac763de8c23022063c47ac59794311398ecd9ae86e68e37cb2f9b7d608ad72d46f2ea2f37174c7f0147522102ba31c763ce4e0a629cf3cdb8a371b1f3739922c7f0dc3b8d41685cac50624ac521038407424ead2b88063db2d589e50c34e1572f6b82eb9e266dec536939ee0db9eb52ae0400483045022100df0d317fc257af1ec875306cfd47b4f0514a45283ae5d37d3f9b4c9f56cb1af302201be5a9af3eff658083f4292d30ce83da7bbfe0e0a3c4ecbc640bb98ed8a6399801473044022011ddf7660d99552a3d61041eeb9d66dbfc5e059dede1c7b409d125d9341eeafb02207a0d3dc0c032c3045a02340552b939ad1d78f968c69fdeba9be39291b8d4bdca01475221026f43f68cc4b04561e0c988ef532544e0106fc529b1b5be073abc5861a3c20d4e21038407424ead2b88063db2d589e50c34e1572f6b82eb9e266dec536939ee0db9eb52ae0400483045022100de5ad0ee9e7bec3c9efa6dce703667d69654f945882c791bef02da0086409ba202202d5dfdd8ca7a130a0eff4639f01192594cdc29e20d80b8bb9e3513337204f8e20147304402206200814fc16e1f9bf1e30c63f39dc2ae585ef43aaca36d637854019df57b4e33022025f4bcb6ba7a833131267e2dadfef8b6639ebb4d056d8dcdb3cd4a8e69c0fa5d0147522102b39cc6c4e294cac212f96b53e4eb749b3da2359c6cac767145131c03ed0aba2421038407424ead2b88063db2d589e50c34e1572f6b82eb9e266dec536939ee0db9eb52ae040047304402204ac0a17ffdaa0c98846af79d432a3c2ad0305fa3cde58dffbfd2f924a1bba8a902201bb27cce7d4e0ebea8ed5f9cd05b243eb95bccdb4347f3ab075256be920f220501483045022100a93849e4887a4a5faa9fb5175876b19db6f35962544e83416bf34747ce199d04022056071e641c4d92ec1dcb6d83e0045c88eb32da9a0441ebf6fcc32496dd1c83510147522103f84352824516260415e70c7a16f115419d4935e98a5613ee4a599b624902669321038407424ead2b88063db2d589e50c34e1572f6b82eb9e266dec536939ee0db9eb52ae0400473044022034ca14e9bc1f50cf194d8e9651f7502eb5de078597847953d4b3ee270918707f02203a9b50d9c841c3b46f6bb086160833fd99c1918ce188f90109b66aadb0751df201473044022056604ed53e95183bc840f6c38d7e3b443fbafc9969ebd268f188e4d01b24c727022074e23793f0164447e9e3e21513f90870a95d7ec3c2cd2c50da9ef2d58bfbbe3801475221022166bbcf9922b764294efc93796a0fe190632525162606f70a9b6aef1153387421038407424ead2b88063db2d589e50c34e1572f6b82eb9e266dec536939ee0db9eb52ae0400483045022100bfadb525685d7bd8976c9b83730accc4b3102f363b7785dcc7ea8f0477c88b8702206e355a9200f33825e69afc20ce5bd0b4bb12ed62b943af9e843ef908e95b026d0147304402201ce61f83d15a718a33d0e6ef2efb6eaa9a5d6cc5e83c7cddbbb815645e73d25c022075fda279aaef49d853bd208a1e2fd8aab4cf46f1f864588d6ea71a8e92c4ccf20147522102c69bb2e6c6e53162f5cfe50bb742f92e85d67c48ab36a59b591364ac7729108b21038407424ead2b88063db2d589e50c34e1572f6b82eb9e266dec536939ee0db9eb52ae00000000", "vin": [{"txinwitness": ["", "3045022100ed3b477378cdc80b140900d19b31b7fdac7443b46a105104bf2d0c2bde2ae505022056bbc29901106643dcba3623f643147868e2b338564b6d58659d1aec647d74f801", "3045022100a79025c23edb97e88bf42901eb029e9f13f7f9c807044db31e205a5511a3e26102201ee2ad52a3f6419f5b1f1ebba9de8830924da1703de0629accf412ef2d038c2201", "522103168262cd09c0ce51f57bb8793a08baf4fc25326059a5152f9fc69348fa842bcf21038407424ead2b88063db2d589e50c34e1572f6b82eb9e266dec536939ee0db9eb52ae"], "sequence": 4294967295, "scriptSig": {"hex": "220020b77729f190b52f0c6c4c8d3b6915fbb2ab1eac57ed762d601f25a864a7fae50b", "asm": "0020b77729f190b52f0c6c4c8d3b6915fbb2ab1eac57ed762d601f25a864a7fae50b"}, "vout": 1, "txid": "e9131a463470b90b8bb6f132663df1bbddb58a522eddd07c5eff5dd055548949"}, {"txinwitness": ["", "304402204c1e0772a0d7228b1701c45924a3861b6d0180f118a26aa4dad5d74fe31cc2e902206477a037ddef3201bcf25798e03c042ea569b91dce9e97babbeeede961cd730601", "3045022100d65e83f3e7226cf90743e6d114880d8efc03e7dd868dbf2055db6fe1663d3f5802202975887fd8af4a0b7bfc46d7d0fbfaedc6b13a965121b32682452735afd444cf01", "5221036990c0854c27b476e323302315fda2994f6a10468318d2bd418247839f66f70321038407424ead2b88063db2d589e50c34e1572f6b82eb9e266dec536939ee0db9eb52ae"], "sequence": 4294967295, "scriptSig": {"hex": "2200207eff0a12fb43bc6f80e9d01c82542e26a6d2db406c27a2833324772b39448994", "asm": "00207eff0a12fb43bc6f80e9d01c82542e26a6d2db406c27a2833324772b39448994"}, "vout": 0, "txid": "2bdcfe6eb6839050bac6a503a1c3a78b5b3785e2ba7297531993db5bab011416"}, {"txinwitness": ["", "3044022040b75477575bf04ae99820e9e9d3c94b3035cdf5026420fa87b294ff511ed858022050aec1db9b101b2bbb9bbfc9432f6bbad5383c9508494f5f0d135f4ecda4be7001", "304402202597cef51b352a9216c762a444d3c4ac992d9c32c340d90309203ac763de8c23022063c47ac59794311398ecd9ae86e68e37cb2f9b7d608ad72d46f2ea2f37174c7f01", "522102ba31c763ce4e0a629cf3cdb8a371b1f3739922c7f0dc3b8d41685cac50624ac521038407424ead2b88063db2d589e50c34e1572f6b82eb9e266dec536939ee0db9eb52ae"], "sequence": 4294967295, "scriptSig": {"hex": "220020dc6ffdd9b921d7fe79e58b6fee64c63441e9850c796684fe91273164226b5d6a", "asm": "0020dc6ffdd9b921d7fe79e58b6fee64c63441e9850c796684fe91273164226b5d6a"}, "vout": 1, "txid": "2b3d8d872af0300abc3d67cccbe03f0275868819fffca9939ff162fff52e1504"}, {"txinwitness": ["", "3045022100df0d317fc257af1ec875306cfd47b4f0514a45283ae5d37d3f9b4c9f56cb1af302201be5a9af3eff658083f4292d30ce83da7bbfe0e0a3c4ecbc640bb98ed8a6399801", "3044022011ddf7660d99552a3d61041eeb9d66dbfc5e059dede1c7b409d125d9341eeafb02207a0d3dc0c032c3045a02340552b939ad1d78f968c69fdeba9be39291b8d4bdca01", "5221026f43f68cc4b04561e0c988ef532544e0106fc529b1b5be073abc5861a3c20d4e21038407424ead2b88063db2d589e50c34e1572f6b82eb9e266dec536939ee0db9eb52ae"], "sequence": 4294967295, "scriptSig": {"hex": "22002089d17c9dbe674335fe0b8cc87c10658dc8ae500c73a4cc6f735c09d0a4dc7ad0", "asm": "002089d17c9dbe674335fe0b8cc87c10658dc8ae500c73a4cc6f735c09d0a4dc7ad0"}, "vout": 1, "txid": "da7257152328382e8db0ace0e9f4e18a98c82474fa0034ba271200fcd29cc756"}, {"txinwitness": ["", "3045022100de5ad0ee9e7bec3c9efa6dce703667d69654f945882c791bef02da0086409ba202202d5dfdd8ca7a130a0eff4639f01192594cdc29e20d80b8bb9e3513337204f8e201", "304402206200814fc16e1f9bf1e30c63f39dc2ae585ef43aaca36d637854019df57b4e33022025f4bcb6ba7a833131267e2dadfef8b6639ebb4d056d8dcdb3cd4a8e69c0fa5d01", "522102b39cc6c4e294cac212f96b53e4eb749b3da2359c6cac767145131c03ed0aba2421038407424ead2b88063db2d589e50c34e1572f6b82eb9e266dec536939ee0db9eb52ae"], "sequence": 4294967295, "scriptSig": {"hex": "2200208234487a9321c3c022b60a8c4179817d92979cf125c0fe43965fbdbfda807482", "asm": "00208234487a9321c3c022b60a8c4179817d92979cf125c0fe43965fbdbfda807482"}, "vout": 1, "txid": "747ba3d9f633582a7abd2c1b5cf8abfdae1e357007a90086d6feeec689b4f664"}, {"txinwitness": ["", "304402204ac0a17ffdaa0c98846af79d432a3c2ad0305fa3cde58dffbfd2f924a1bba8a902201bb27cce7d4e0ebea8ed5f9cd05b243eb95bccdb4347f3ab075256be920f220501", "3045022100a93849e4887a4a5faa9fb5175876b19db6f35962544e83416bf34747ce199d04022056071e641c4d92ec1dcb6d83e0045c88eb32da9a0441ebf6fcc32496dd1c835101", "522103f84352824516260415e70c7a16f115419d4935e98a5613ee4a599b624902669321038407424ead2b88063db2d589e50c34e1572f6b82eb9e266dec536939ee0db9eb52ae"], "sequence": 4294967295, "scriptSig": {"hex": "2200204d3c76beccf19f812bd11d546447b97e30c710438133eebfedaac3664671f5ab", "asm": "00204d3c76beccf19f812bd11d546447b97e30c710438133eebfedaac3664671f5ab"}, "vout": 1, "txid": "6ce2aa9c86a14726c53774ce3a7c907356296353f59603287c84b6b1ed5e901a"}, {"txinwitness": ["", "3044022034ca14e9bc1f50cf194d8e9651f7502eb5de078597847953d4b3ee270918707f02203a9b50d9c841c3b46f6bb086160833fd99c1918ce188f90109b66aadb0751df201", "3044022056604ed53e95183bc840f6c38d7e3b443fbafc9969ebd268f188e4d01b24c727022074e23793f0164447e9e3e21513f90870a95d7ec3c2cd2c50da9ef2d58bfbbe3801", "5221022166bbcf9922b764294efc93796a0fe190632525162606f70a9b6aef1153387421038407424ead2b88063db2d589e50c34e1572f6b82eb9e266dec536939ee0db9eb52ae"], "sequence": 4294967295, "scriptSig": {"hex": "2200204a3325e88db5b82387c0a7229a7e72f0e6bed14b56a0b8f388ad40c692078744", "asm": "00204a3325e88db5b82387c0a7229a7e72f0e6bed14b56a0b8f388ad40c692078744"}, "vout": 1, "txid": "9ebab73ef130ff8795ed2b24d1ec0d7dc1cd3e7cf1a43182d2638bc68e174ac8"}, {"txinwitness": ["", "3045022100bfadb525685d7bd8976c9b83730accc4b3102f363b7785dcc7ea8f0477c88b8702206e355a9200f33825e69afc20ce5bd0b4bb12ed62b943af9e843ef908e95b026d01", "304402201ce61f83d15a718a33d0e6ef2efb6eaa9a5d6cc5e83c7cddbbb815645e73d25c022075fda279aaef49d853bd208a1e2fd8aab4cf46f1f864588d6ea71a8e92c4ccf201", "522102c69bb2e6c6e53162f5cfe50bb742f92e85d67c48ab36a59b591364ac7729108b21038407424ead2b88063db2d589e50c34e1572f6b82eb9e266dec536939ee0db9eb52ae"], "sequence": 4294967295, "scriptSig": {"hex": "2200207135994108d52b1b464caca75c15bf900bfdb3e7599ca3994a787a6e9d101485", "asm": "00207135994108d52b1b464caca75c15bf900bfdb3e7599ca3994a787a6e9d101485"}, "vout": 1, "txid": "c659ce62b924fb163eb1e9000debc8839b78bad02fd58a5fe1569ec415b214d9"}], "txid": "52597afdcc84760cdc100ac0d0035106f1b3e8c78d70d2bb081b38e59e8d3b3f", "blocktime": 1537870928, "version": 1, "confirmations": 11512, "time": 1537870928, "locktime": 0, "vsize": 1123, "size": 2437}