{"hash": "525cc10ee0bf1cc891e728490564ce9d2354b2079442d95f300743dac2bf6a9e", "blockhash": "00000000000000000024a2167bbff67b0be802c0b01cdd79e6331c2be6459f87", "vout": [{"scriptPubKey": {"reqSigs": 1, "hex": "76a9144d844d56634247fe88e9cace68f98f9b1f5274ec88ac", "addresses": ["184sXHMXtnwtLMm8QWQePAREke9sUhfjq4"], "asm": "OP_DUP OP_HASH160 4d844d56634247fe88e9cace68f98f9b1f5274ec OP_EQUALVERIFY OP_CHECKSIG", "type": "pubkeyhash"}, "value": 0.00031635, "n": 0}, {"scriptPubKey": {"reqSigs": 1, "hex": "a914c2eba4a1aaef15484e34dd1995f5c50a2bf34e4b87", "addresses": ["3KTfJXa9TCPLjRJGWdn4kLmaHWwwEvtcD1"], "asm": "OP_HASH160 c2eba4a1aaef15484e34dd1995f5c50a2bf34e4b OP_EQUAL", "type": "scripthash"}, "value": 0.0018509, "n": 1}], "hex": "0100000001f75d9fe13b843a3444a4d7b7d134e3c598e85199aa73b3a67c8f2b29a799ab25000000006a473044022026b5646859beb5d6cf85f548abc3abaf7f9c9610c9d2769d0c4c4580e1c9dc77022060942aa420de60d85774e5a9f344afb267cae6d07d8cf7a648e053cedbb491d00121029f1332d33a8bd82322d249f41b714bef0730afb51e6dd77384d095b9ad93af19ffffffff02937b0000000000001976a9144d844d56634247fe88e9cace68f98f9b1f5274ec88ac02d302000000000017a914c2eba4a1aaef15484e34dd1995f5c50a2bf34e4b8700000000", "vin": [{"sequence": 4294967295, "scriptSig": {"hex": "473044022026b5646859beb5d6cf85f548abc3abaf7f9c9610c9d2769d0c4c4580e1c9dc77022060942aa420de60d85774e5a9f344afb267cae6d07d8cf7a648e053cedbb491d00121029f1332d33a8bd82322d249f41b714bef0730afb51e6dd77384d095b9ad93af19", "asm": "3044022026b5646859beb5d6cf85f548abc3abaf7f9c9610c9d2769d0c4c4580e1c9dc77022060942aa420de60d85774e5a9f344afb267cae6d07d8cf7a648e053cedbb491d0[ALL] 029f1332d33a8bd82322d249f41b714bef0730afb51e6dd77384d095b9ad93af19"}, "vout": 0, "txid": "25ab99a7292b8f7ca6b373aa9951e898c5e334d1b7d7a444343a843be19f5df7"}], "txid": "525cc10ee0bf1cc891e728490564ce9d2354b2079442d95f300743dac2bf6a9e", "blocktime": 1537870564, "version": 1, "confirmations": 11515, "time": 1537870564, "locktime": 0, "vsize": 223, "size": 223}