{"hash": "525f8d0c5c3d3263dc9dd98ed47a233813bde699a29f5be4defd6f87606ded0a", "blockhash": "0000000000000000001e0dab787dd257d1dbfcb92a98c2207d5e1078be1f4165", "vout": [{"scriptPubKey": {"reqSigs": 1, "hex": "76a914428916baa69bad7e7d609c108eaad6572b5c636788ac", "addresses": ["174opktFen3fjChSJaw6VpHv3kXPzE1wpm"], "asm": "OP_DUP OP_HASH160 428916baa69bad7e7d609c108eaad6572b5c6367 OP_EQUALVERIFY OP_CHECKSIG", "type": "pubkeyhash"}, "value": 0.00639587, "n": 0}, {"scriptPubKey": {"type": "nulldata", "hex": "6a4c50000077bb0001aad27cda75d3ca0bed78aa0ee5bf9ae76da98a211aaf6c953dd567cf27e7a35d044b07f77ea683b998d420c51cd65baa120c0612bc1373f1b35b1d100759d4ba30d2c37bb011d97e02cf", "asm": "OP_RETURN 000077bb0001aad27cda75d3ca0bed78aa0ee5bf9ae76da98a211aaf6c953dd567cf27e7a35d044b07f77ea683b998d420c51cd65baa120c0612bc1373f1b35b1d100759d4ba30d2c37bb011d97e02cf"}, "value": 0.0, "n": 1}], "hex": "0100000001ea7830ec3722644fa04a08862310049498525ce396c4f46ddc4b85c0fe7e08ee010000006a47304402206cf945344c72b6c1b823c231e7fad48d81fb2b76f842f6cf7e104c57d87838cb022017364a75cd82ec424af7cd6bcac91eaf5550d89a9fdbef212b5f76f623777adb0121031946f69f0753b8b2d54f6de63f5416ba72c1e65478d554dc6bf41b40901e42e5ffffffff0263c20900000000001976a914428916baa69bad7e7d609c108eaad6572b5c636788ac0000000000000000536a4c50000077bb0001aad27cda75d3ca0bed78aa0ee5bf9ae76da98a211aaf6c953dd567cf27e7a35d044b07f77ea683b998d420c51cd65baa120c0612bc1373f1b35b1d100759d4ba30d2c37bb011d97e02cf00000000", "vin": [{"sequence": 4294967295, "scriptSig": {"hex": "47304402206cf945344c72b6c1b823c231e7fad48d81fb2b76f842f6cf7e104c57d87838cb022017364a75cd82ec424af7cd6bcac91eaf5550d89a9fdbef212b5f76f623777adb0121031946f69f0753b8b2d54f6de63f5416ba72c1e65478d554dc6bf41b40901e42e5", "asm": "304402206cf945344c72b6c1b823c231e7fad48d81fb2b76f842f6cf7e104c57d87838cb022017364a75cd82ec424af7cd6bcac91eaf5550d89a9fdbef212b5f76f623777adb[ALL] 031946f69f0753b8b2d54f6de63f5416ba72c1e65478d554dc6bf41b40901e42e5"}, "vout": 1, "txid": "ee087efec0854bdc6df4c496e35c52989404102386084aa04f642237ec3078ea"}], "txid": "525f8d0c5c3d3263dc9dd98ed47a233813bde699a29f5be4defd6f87606ded0a", "blocktime": 1537872475, "version": 1, "confirmations": 11486, "time": 1537872475, "locktime": 0, "vsize": 283, "size": 283}