{"hash": "5262ab4459fb67cb755b94124a2550989e30cd46009639f66a2c6b0ed68c7146", "blockhash": "00000000000000000024a2167bbff67b0be802c0b01cdd79e6331c2be6459f87", "vout": [{"scriptPubKey": {"reqSigs": 1, "hex": "76a91454a62ff9c6f5fd7e090e53b256a8b204017449e788ac", "addresses": ["18iar1zVDu2N5EY5kNcR44djeUsH3UbBFD"], "asm": "OP_DUP OP_HASH160 54a62ff9c6f5fd7e090e53b256a8b204017449e7 OP_EQUALVERIFY OP_CHECKSIG", "type": "pubkeyhash"}, "value": 0.0009172, "n": 0}, {"scriptPubKey": {"reqSigs": 1, "hex": "76a914501dc7a5fd68212bec22d010be56c489f76f59e388ac", "addresses": ["18JcjVLRGthYf5TTz1qEzNeNqxdtUr5xvD"], "asm": "OP_DUP OP_HASH160 501dc7a5fd68212bec22d010be56c489f76f59e3 OP_EQUALVERIFY OP_CHECKSIG", "type": "pubkeyhash"}, "value": 0.0012027, "n": 1}], "hex": "0100000001221cef2bbaa5b49bc9b473b8f94fcf9ed44b2109829b4dfaee7b60c857434017000000006b483045022100be1a0e23d265e89c0efc7ab1572c080e2b6275d1b96e766c8f16a691d0d7348002204b941a6a68432d716fe3d720d7d0e2c93a10b807fab450e431f8792960b34d0001210276bc470715b26b470b55d0d939dffdd4314b13383397ae596bb68f6184c76ee0ffffffff0248660100000000001976a91454a62ff9c6f5fd7e090e53b256a8b204017449e788acced50100000000001976a914501dc7a5fd68212bec22d010be56c489f76f59e388ac00000000", "vin": [{"sequence": 4294967295, "scriptSig": {"hex": "483045022100be1a0e23d265e89c0efc7ab1572c080e2b6275d1b96e766c8f16a691d0d7348002204b941a6a68432d716fe3d720d7d0e2c93a10b807fab450e431f8792960b34d0001210276bc470715b26b470b55d0d939dffdd4314b13383397ae596bb68f6184c76ee0", "asm": "3045022100be1a0e23d265e89c0efc7ab1572c080e2b6275d1b96e766c8f16a691d0d7348002204b941a6a68432d716fe3d720d7d0e2c93a10b807fab450e431f8792960b34d00[ALL] 0276bc470715b26b470b55d0d939dffdd4314b13383397ae596bb68f6184c76ee0"}, "vout": 0, "txid": "17404357c8607beefa4d9b8209214bd49ecf4ff9b873b4c99bb4a5ba2bef1c22"}], "txid": "5262ab4459fb67cb755b94124a2550989e30cd46009639f66a2c6b0ed68c7146", "blocktime": 1537870564, "version": 1, "confirmations": 11515, "time": 1537870564, "locktime": 0, "vsize": 226, "size": 226}