{"hash": "526389ace3ca8b47a0cc9c49b35b3a78a2e98ecacf7fedf592d6c4f24cf3527e", "blockhash": "0000000000000000000baef3f32e3676a92c3b2e5da21b426e4f302fc371ce76", "vout": [{"scriptPubKey": {"reqSigs": 1, "hex": "76a9145d6527c4e8bf7555b5f8504f551c5e3b97049ea988ac", "addresses": ["19Wq2EkRwPZVUn7ZpYbU65DSZMDAmyaHZt"], "asm": "OP_DUP OP_HASH160 5d6527c4e8bf7555b5f8504f551c5e3b97049ea9 OP_EQUALVERIFY OP_CHECKSIG", "type": "pubkeyhash"}, "value": 5.46e-06, "n": 0}, {"scriptPubKey": {"reqSigs": 1, "hex": "a9143f4eecba122ad73039d481c8d37f99cb4f887cd887", "addresses": ["37Tm3Qz8Zw2VJrheUUhArDAoq58S6YrS3g"], "asm": "OP_HASH160 3f4eecba122ad73039d481c8d37f99cb4f887cd8 OP_EQUAL", "type": "scripthash"}, "value": 0.99997454, "n": 1}, {"scriptPubKey": {"type": "nulldata", "hex": "6a146f6d6e69000000000000001f000000da95a21d20", "asm": "OP_RETURN 6f6d6e69000000000000001f000000da95a21d20"}, "value": 0.0, "n": 2}], "hex": "01000000013a4ddc0e6b3e30db0fecc1ecf2b0449f56ee1e7d8d5bee638c254fdb9e12869800000000fc0047304402207461de5916a384a935d3d07a533affc9df9b9e83d690bf8f9d6b520385c013d002201313b9382c82be41e2d236de24a8747b2751a830e6e84b98ce6047745a9ce7ab014730440220112568d792abb034d294ce11fc0b113a338a3ee1569e98aa855b8a908ef395940220628045200d159c79b52cb5b05897dd437a5d02e55e21cba02fbc437cb89351ce014c6952210246ccf4de0c54cc7f3354cdd993c2c50cf965fd82238b89659fbd73a1b4bf05a121024fc59f72272a897fe43803374969f396058152fe4765a8d15216f94624257b1b21022593bc69ecbf3bbcc3c58082267cb49dadaf4ca8dbf1b2297338a9d628c4297653aeffffffff0322020000000000001976a9145d6527c4e8bf7555b5f8504f551c5e3b97049ea988ac0ed7f5050000000017a9143f4eecba122ad73039d481c8d37f99cb4f887cd8870000000000000000166a146f6d6e69000000000000001f000000da95a21d2000000000", "vin": [{"sequence": 4294967295, "scriptSig": {"hex": "0047304402207461de5916a384a935d3d07a533affc9df9b9e83d690bf8f9d6b520385c013d002201313b9382c82be41e2d236de24a8747b2751a830e6e84b98ce6047745a9ce7ab014730440220112568d792abb034d294ce11fc0b113a338a3ee1569e98aa855b8a908ef395940220628045200d159c79b52cb5b05897dd437a5d02e55e21cba02fbc437cb89351ce014c6952210246ccf4de0c54cc7f3354cdd993c2c50cf965fd82238b89659fbd73a1b4bf05a121024fc59f72272a897fe43803374969f396058152fe4765a8d15216f94624257b1b21022593bc69ecbf3bbcc3c58082267cb49dadaf4ca8dbf1b2297338a9d628c4297653ae", "asm": "0 304402207461de5916a384a935d3d07a533affc9df9b9e83d690bf8f9d6b520385c013d002201313b9382c82be41e2d236de24a8747b2751a830e6e84b98ce6047745a9ce7ab[ALL] 30440220112568d792abb034d294ce11fc0b113a338a3ee1569e98aa855b8a908ef395940220628045200d159c79b52cb5b05897dd437a5d02e55e21cba02fbc437cb89351ce[ALL] 52210246ccf4de0c54cc7f3354cdd993c2c50cf965fd82238b89659fbd73a1b4bf05a121024fc59f72272a897fe43803374969f396058152fe4765a8d15216f94624257b1b21022593bc69ecbf3bbcc3c58082267cb49dadaf4ca8dbf1b2297338a9d628c4297653ae"}, "vout": 0, "txid": "9886129edb4f258c63ee5b8d7d1eee569f44b0f2ecc1ec0fdb303e6b0edc4d3a"}], "txid": "526389ace3ca8b47a0cc9c49b35b3a78a2e98ecacf7fedf592d6c4f24cf3527e", "blocktime": 1537876114, "version": 1, "confirmations": 11460, "time": 1537876114, "locktime": 0, "vsize": 400, "size": 400}