{"hash": "5264703fbb66f77bbf847fa3c4c3bf7d03d89b4a7381f6d61ec2e98dbee8ae12", "blockhash": "0000000000000000001f76057863aec43deb6fa401d9628bb513d65a8098bfab", "vout": [{"scriptPubKey": {"reqSigs": 1, "hex": "a9140d94dfccfd245348c0d3bb84bb8a0d6adec0c1c687", "addresses": ["32vq3zwcbaFMwk7h4EZR82izNLU7vxDwj1"], "asm": "OP_HASH160 0d94dfccfd245348c0d3bb84bb8a0d6adec0c1c6 OP_EQUAL", "type": "scripthash"}, "value": 0.04275299, "n": 0}, {"scriptPubKey": {"reqSigs": 1, "hex": "a9146047c05069d921afd5c47eaf987450abc48089d287", "addresses": ["3AU6kKdtLhX29GputPARUwQogHVM3Ak4LX"], "asm": "OP_HASH160 6047c05069d921afd5c47eaf987450abc48089d2 OP_EQUAL", "type": "scripthash"}, "value": 0.00969644, "n": 1}, {"scriptPubKey": {"reqSigs": 1, "hex": "76a914e8bed1d424bab1db5f819904143a7617ef7e829288ac", "addresses": ["1NDeMtPCVEcr7jifnHmKtkF4CofscXymcq"], "asm": "OP_DUP OP_HASH160 e8bed1d424bab1db5f819904143a7617ef7e8292 OP_EQUALVERIFY OP_CHECKSIG", "type": "pubkeyhash"}, "value": 0.00013314, "n": 2}], "hex": "0100000001d278872c7c03869ce21892fe5820256ed0ebe2d16dd92f8c9884da1b9e47050600000000da004830450221009f3f27b0c3b4e619deab06e5efaaefd5300dec7537ad2969e702519f1cd7a9bc02200e85a66fefa04a3a21a660ef154803e3b8a796162bae5adc89dc6e8eca3de5470147304402202d0ad60590a023b09a60a7ec804e2c0511dae65cec090c451944a0fa2a9a291b02204458343df71d2329fc98981087c618c5ad2daea40536d3f6316f976e4dfd538801475221025a2f62ed7932fd9090606be2731aaf229921ca5f762c4ac3056375a17932ad282102907a54bed8ad74b3f35638c60114ca240a308cb986f3f2f306178869a8880b6152aeffffffff03633c41000000000017a9140d94dfccfd245348c0d3bb84bb8a0d6adec0c1c687accb0e000000000017a9146047c05069d921afd5c47eaf987450abc48089d28702340000000000001976a914e8bed1d424bab1db5f819904143a7617ef7e829288ac00000000", "vin": [{"sequence": 4294967295, "scriptSig": {"hex": "004830450221009f3f27b0c3b4e619deab06e5efaaefd5300dec7537ad2969e702519f1cd7a9bc02200e85a66fefa04a3a21a660ef154803e3b8a796162bae5adc89dc6e8eca3de5470147304402202d0ad60590a023b09a60a7ec804e2c0511dae65cec090c451944a0fa2a9a291b02204458343df71d2329fc98981087c618c5ad2daea40536d3f6316f976e4dfd538801475221025a2f62ed7932fd9090606be2731aaf229921ca5f762c4ac3056375a17932ad282102907a54bed8ad74b3f35638c60114ca240a308cb986f3f2f306178869a8880b6152ae", "asm": "0 30450221009f3f27b0c3b4e619deab06e5efaaefd5300dec7537ad2969e702519f1cd7a9bc02200e85a66fefa04a3a21a660ef154803e3b8a796162bae5adc89dc6e8eca3de547[ALL] 304402202d0ad60590a023b09a60a7ec804e2c0511dae65cec090c451944a0fa2a9a291b02204458343df71d2329fc98981087c618c5ad2daea40536d3f6316f976e4dfd5388[ALL] 5221025a2f62ed7932fd9090606be2731aaf229921ca5f762c4ac3056375a17932ad282102907a54bed8ad74b3f35638c60114ca240a308cb986f3f2f306178869a8880b6152ae"}, "vout": 0, "txid": "0605479e1bda84988c2fd96dd1e2ebd06e252058fe9218e29c86037c2c8778d2"}], "txid": "5264703fbb66f77bbf847fa3c4c3bf7d03d89b4a7381f6d61ec2e98dbee8ae12", "blocktime": 1537873891, "version": 1, "confirmations": 11478, "time": 1537873891, "locktime": 0, "vsize": 367, "size": 367}