{"hash": "526422816d209123e4d75c1538bae58177ab53b4c39e253fa2c62604194a5e7c", "blockhash": "0000000000000000001f0ddff1eddb255c1121bcd4da4f1bc9a0da00cae72433", "vout": [{"scriptPubKey": {"reqSigs": 1, "hex": "76a914e404913af720e2b29790e6b347ef528b72d1a5dc88ac", "addresses": ["1MneY5bq8h3fbDuPP4j2qhozRnzGDjfCST"], "asm": "OP_DUP OP_HASH160 e404913af720e2b29790e6b347ef528b72d1a5dc OP_EQUALVERIFY OP_CHECKSIG", "type": "pubkeyhash"}, "value": 0.03141518, "n": 0}, {"scriptPubKey": {"reqSigs": 1, "hex": "76a914128426a1b0af48ca7008ad83506023016cec47cd88ac", "addresses": ["12guUTcKwduPEy6o5DFyHjHatBQZo8j2sV"], "asm": "OP_DUP OP_HASH160 128426a1b0af48ca7008ad83506023016cec47cd OP_EQUALVERIFY OP_CHECKSIG", "type": "pubkeyhash"}, "value": 2.33478778, "n": 1}], "hex": "010000000173e20fe9b5ff14f87aadc77f0bbb22c84cf68c155f60ef78694008288f1a549a010000006a473044022054269c2db2ad0428001c9a55cd5046521fe5be7bc4dd2cedda7b70286ba8507302203121074c743a6e3a75dc1f326307ec83b8bcc10997e3b8a1d12d2a3a53d343fa01210245fed2c036ef5b6988be5e7dfd45421ae2804756d4aacb063dee4dc17d897ce2ffffffff028eef2f00000000001976a914e404913af720e2b29790e6b347ef528b72d1a5dc88ac7a9aea0d000000001976a914128426a1b0af48ca7008ad83506023016cec47cd88ac00000000", "vin": [{"sequence": 4294967295, "scriptSig": {"hex": "473044022054269c2db2ad0428001c9a55cd5046521fe5be7bc4dd2cedda7b70286ba8507302203121074c743a6e3a75dc1f326307ec83b8bcc10997e3b8a1d12d2a3a53d343fa01210245fed2c036ef5b6988be5e7dfd45421ae2804756d4aacb063dee4dc17d897ce2", "asm": "3044022054269c2db2ad0428001c9a55cd5046521fe5be7bc4dd2cedda7b70286ba8507302203121074c743a6e3a75dc1f326307ec83b8bcc10997e3b8a1d12d2a3a53d343fa[ALL] 0245fed2c036ef5b6988be5e7dfd45421ae2804756d4aacb063dee4dc17d897ce2"}, "vout": 1, "txid": "9a541a8f2808406978ef605f158cf64cc822bb0b7fc7ad7af814ffb5e90fe273"}], "txid": "526422816d209123e4d75c1538bae58177ab53b4c39e253fa2c62604194a5e7c", "blocktime": 1537872018, "version": 1, "confirmations": 11489, "time": 1537872018, "locktime": 0, "vsize": 225, "size": 225}