{"hash": "5268905db8d69221df4211342bf2cd0877b6d7336a130136d627a5de086c12c9", "blockhash": "00000000000000000024a2167bbff67b0be802c0b01cdd79e6331c2be6459f87", "vout": [{"scriptPubKey": {"reqSigs": 1, "hex": "76a9145ce4dbd3c9de46e47e1e658d0e1e86673888f51288ac", "addresses": ["19UBL2ipFW6DMRCrtLRwt5rMit5XYscRaz"], "asm": "OP_DUP OP_HASH160 5ce4dbd3c9de46e47e1e658d0e1e86673888f512 OP_EQUALVERIFY OP_CHECKSIG", "type": "pubkeyhash"}, "value": 0.00011973, "n": 0}, {"scriptPubKey": {"reqSigs": 1, "hex": "76a914b43ab80e23527cf00d740908d7fafbc00e461db988ac", "addresses": ["1HRxyPtuMSEiTmYZeNtuDAbHLAUPhLF3SJ"], "asm": "OP_DUP OP_HASH160 b43ab80e23527cf00d740908d7fafbc00e461db9 OP_EQUALVERIFY OP_CHECKSIG", "type": "pubkeyhash"}, "value": 0.5757734, "n": 1}], "hex": "010000000213ae44e55c4004e13f7a286e0ef14558478471f11ed9bc94ad0e3bdedea25904010000006b483045022100e106df648776644e58c96f47664b77684790d49edbc7c55fe4d36cf38461e1f50220018ba0ec2fda99d96f8d51b27b972ab65671bca90cf749255f02790d5f09d4cd012102f4cf62b2035e594eb75abcfd2a4ad8545ba9b712fd2bb5112625ee2683713c52ffffffff6e56f4d8a12e8350c1a1a107eb86481894ea0fe354c1d2e80ee89328e13b6e79000000006a47304402207a81858b763f10bca51b73de6afd953bc48a59ce1eafd5cfeaeb61b36e84f15b022033a4b4fa47119e9c4165bd19dcaf3555de5d71d311fdc4709e8d3190516323490121029a147d7c40782d64b6b8e735bb9205bd7381bc2e80f2c816413fbb1e736a018affffffff02c52e0000000000001976a9145ce4dbd3c9de46e47e1e658d0e1e86673888f51288ac7c8f6e03000000001976a914b43ab80e23527cf00d740908d7fafbc00e461db988ac00000000", "vin": [{"sequence": 4294967295, "scriptSig": {"hex": "483045022100e106df648776644e58c96f47664b77684790d49edbc7c55fe4d36cf38461e1f50220018ba0ec2fda99d96f8d51b27b972ab65671bca90cf749255f02790d5f09d4cd012102f4cf62b2035e594eb75abcfd2a4ad8545ba9b712fd2bb5112625ee2683713c52", "asm": "3045022100e106df648776644e58c96f47664b77684790d49edbc7c55fe4d36cf38461e1f50220018ba0ec2fda99d96f8d51b27b972ab65671bca90cf749255f02790d5f09d4cd[ALL] 02f4cf62b2035e594eb75abcfd2a4ad8545ba9b712fd2bb5112625ee2683713c52"}, "vout": 1, "txid": "0459a2dede3b0ead94bcd91ef17184475845f10e6e287a3fe104405ce544ae13"}, {"sequence": 4294967295, "scriptSig": {"hex": "47304402207a81858b763f10bca51b73de6afd953bc48a59ce1eafd5cfeaeb61b36e84f15b022033a4b4fa47119e9c4165bd19dcaf3555de5d71d311fdc4709e8d3190516323490121029a147d7c40782d64b6b8e735bb9205bd7381bc2e80f2c816413fbb1e736a018a", "asm": "304402207a81858b763f10bca51b73de6afd953bc48a59ce1eafd5cfeaeb61b36e84f15b022033a4b4fa47119e9c4165bd19dcaf3555de5d71d311fdc4709e8d319051632349[ALL] 029a147d7c40782d64b6b8e735bb9205bd7381bc2e80f2c816413fbb1e736a018a"}, "vout": 0, "txid": "796e3be12893e80ee8d2c154e30fea94184886eb07a1a1c150832ea1d8f4566e"}], "txid": "5268905db8d69221df4211342bf2cd0877b6d7336a130136d627a5de086c12c9", "blocktime": 1537870564, "version": 1, "confirmations": 11515, "time": 1537870564, "locktime": 0, "vsize": 373, "size": 373}