{"hash": "526f99e17cfc04694674f5a057bf34bb6dc9c08a0af5882de10f956e6229e2d5", "blockhash": "00000000000000000017f5eb5941039fbcee6240d03bc1f2f8e35350df66a1d8", "vout": [{"scriptPubKey": {"reqSigs": 1, "hex": "76a91461bf7d4f49fca7c8c09e664f573936a2ddf34cf688ac", "addresses": ["19uqwXn5wCMfKT8JQtfWcbSea2WCY6ewum"], "asm": "OP_DUP OP_HASH160 61bf7d4f49fca7c8c09e664f573936a2ddf34cf6 OP_EQUALVERIFY OP_CHECKSIG", "type": "pubkeyhash"}, "value": 0.032, "n": 0}, {"scriptPubKey": {"reqSigs": 1, "hex": "76a914e78ad3cbbc7f50127a3974f6ae7bade559ed5cef88ac", "addresses": ["1N7HQCsS457SDFrbt6QHdmVKqHsphVhgBf"], "asm": "OP_DUP OP_HASH160 e78ad3cbbc7f50127a3974f6ae7bade559ed5cef OP_EQUALVERIFY OP_CHECKSIG", "type": "pubkeyhash"}, "value": 0.04092012, "n": 1}], "hex": "0100000003cd2f8dc4e6d08c36de418e86b05c92c4f47db64afd488a7838905c2c62960311010000006a47304402202f9b2d265af1dbea24719b4a82418b705d3649f9a30c7bb7ab19b433a3275b10022054a2a8efbbb7e3104d12df701cbbca1859af21ce95d1fe100132d3687ffd67ad01210264b59f678e4379673e16f7a1a9d171fff43ba052f7a7d6b3b8f1bccaefa11537ffffffff9cc62acb509a9caa70a62645255705f2ba44b3d670f02ddd9d57e22d71c55b5b160000006a4730440220111c5af4a602269e4b387ad18e7ba3d113cae5149615f4c39989f42c6f4f64c0022076ee592445b83be8d73b3147ceb1497aa98ca5071334b189dfd8b22e4ad53bfc0121029d8e6c9337576e32260e71db41661a14b53eee4cfd2634262623c9937379ddedffffffffb25c13190b325b06770d8e75e161f3014c123c7cf24c2c269a7bccdb9de71fcf0a0000006a47304402202b3ccdaf60a51dc430b250d49f4366cceb2351e082f98ade289b54caf0f4c3cd0220224b1efb1c7ad14bd22c87a98c01ab1bfac2b947fd2137314d602b191b93806d0121029d8e6c9337576e32260e71db41661a14b53eee4cfd2634262623c9937379ddedffffffff0200d43000000000001976a91461bf7d4f49fca7c8c09e664f573936a2ddf34cf688ac6c703e00000000001976a914e78ad3cbbc7f50127a3974f6ae7bade559ed5cef88ac00000000", "vin": [{"sequence": 4294967295, "scriptSig": {"hex": "47304402202f9b2d265af1dbea24719b4a82418b705d3649f9a30c7bb7ab19b433a3275b10022054a2a8efbbb7e3104d12df701cbbca1859af21ce95d1fe100132d3687ffd67ad01210264b59f678e4379673e16f7a1a9d171fff43ba052f7a7d6b3b8f1bccaefa11537", "asm": "304402202f9b2d265af1dbea24719b4a82418b705d3649f9a30c7bb7ab19b433a3275b10022054a2a8efbbb7e3104d12df701cbbca1859af21ce95d1fe100132d3687ffd67ad[ALL] 0264b59f678e4379673e16f7a1a9d171fff43ba052f7a7d6b3b8f1bccaefa11537"}, "vout": 1, "txid": "110396622c5c9038788a48fd4ab67df4c4925cb0868e41de368cd0e6c48d2fcd"}, {"sequence": 4294967295, "scriptSig": {"hex": "4730440220111c5af4a602269e4b387ad18e7ba3d113cae5149615f4c39989f42c6f4f64c0022076ee592445b83be8d73b3147ceb1497aa98ca5071334b189dfd8b22e4ad53bfc0121029d8e6c9337576e32260e71db41661a14b53eee4cfd2634262623c9937379dded", "asm": "30440220111c5af4a602269e4b387ad18e7ba3d113cae5149615f4c39989f42c6f4f64c0022076ee592445b83be8d73b3147ceb1497aa98ca5071334b189dfd8b22e4ad53bfc[ALL] 029d8e6c9337576e32260e71db41661a14b53eee4cfd2634262623c9937379dded"}, "vout": 22, "txid": "5b5bc5712de2579ddd2df070d6b344baf20557254526a670aa9c9a50cb2ac69c"}, {"sequence": 4294967295, "scriptSig": {"hex": "47304402202b3ccdaf60a51dc430b250d49f4366cceb2351e082f98ade289b54caf0f4c3cd0220224b1efb1c7ad14bd22c87a98c01ab1bfac2b947fd2137314d602b191b93806d0121029d8e6c9337576e32260e71db41661a14b53eee4cfd2634262623c9937379dded", "asm": "304402202b3ccdaf60a51dc430b250d49f4366cceb2351e082f98ade289b54caf0f4c3cd0220224b1efb1c7ad14bd22c87a98c01ab1bfac2b947fd2137314d602b191b93806d[ALL] 029d8e6c9337576e32260e71db41661a14b53eee4cfd2634262623c9937379dded"}, "vout": 10, "txid": "cf1fe79ddbcc7b9a262c4cf27c3c124c01f361e1758e0d77065b320b19135cb2"}], "txid": "526f99e17cfc04694674f5a057bf34bb6dc9c08a0af5882de10f956e6229e2d5", "blocktime": 1537874412, "version": 1, "confirmations": 11466, "time": 1537874412, "locktime": 0, "vsize": 519, "size": 519}