{"hash": "526f9d76c5bec17bfbb8f9625f28b82e6c2d16dedffd689da90ceada821f023a", "blockhash": "0000000000000000000dcc0f55137456b1a82d3642486a52398922ac4d620174", "vout": [{"scriptPubKey": {"reqSigs": 1, "hex": "76a9140b3b03ac1103ba5b2bd83692666342f146b351e888ac", "addresses": ["122P8VvVTip7m18n7rowx1p4EdeKEcwVqu"], "asm": "OP_DUP OP_HASH160 0b3b03ac1103ba5b2bd83692666342f146b351e8 OP_EQUALVERIFY OP_CHECKSIG", "type": "pubkeyhash"}, "value": 0.1994, "n": 0}], "hex": "01000000019613fa6bd9f71ddbe9ecebc4bf29c02f6fa868166cece26971fccdbb7a478e68090000006b483045022100f30d29ac1e553bd890569139bf7edbff8fe8903ebd1307e18f782984e5178155022078b7b8126a571fa1ed00260a8844eb0a9e865ca3fe688a3a264e9cba7da908720121030d1ec2784c7d8be9bb7da8dee5e084c2cef2db7877bc6b6e7a1d5a6541900de8fcffffff01a0423001000000001976a9140b3b03ac1103ba5b2bd83692666342f146b351e888ac00000000", "vin": [{"sequence": 4294967292, "scriptSig": {"hex": "483045022100f30d29ac1e553bd890569139bf7edbff8fe8903ebd1307e18f782984e5178155022078b7b8126a571fa1ed00260a8844eb0a9e865ca3fe688a3a264e9cba7da908720121030d1ec2784c7d8be9bb7da8dee5e084c2cef2db7877bc6b6e7a1d5a6541900de8", "asm": "3045022100f30d29ac1e553bd890569139bf7edbff8fe8903ebd1307e18f782984e5178155022078b7b8126a571fa1ed00260a8844eb0a9e865ca3fe688a3a264e9cba7da90872[ALL] 030d1ec2784c7d8be9bb7da8dee5e084c2cef2db7877bc6b6e7a1d5a6541900de8"}, "vout": 9, "txid": "688e477abbcdfc7169e2ec6c1668a86f2fc029bfc4ebece9db1df7d96bfa1396"}], "txid": "526f9d76c5bec17bfbb8f9625f28b82e6c2d16dedffd689da90ceada821f023a", "blocktime": 1537870268, "version": 1, "confirmations": 11516, "time": 1537870268, "locktime": 0, "vsize": 192, "size": 192}