{"hash": "52776d2b156641f7572015d89f157351bb4cbf0aff3b99085018b9a789c90c6b", "blockhash": "0000000000000000000e13cef7c366c0283d82e591d1acd082e914b08063cdf1", "vout": [{"scriptPubKey": {"reqSigs": 1, "hex": "76a914c62fd9e0cf36e6d77460657b28bfb2f86e15cbc988ac", "addresses": ["1K4v7jasAH9y8stZ8qHKwNc2j6n1ucYGeQ"], "asm": "OP_DUP OP_HASH160 c62fd9e0cf36e6d77460657b28bfb2f86e15cbc9 OP_EQUALVERIFY OP_CHECKSIG", "type": "pubkeyhash"}, "value": 0.01939427, "n": 0}, {"scriptPubKey": {"reqSigs": 1, "hex": "76a914d971135cb9ff0886d1cabab046e2049c0af3f4e188ac", "addresses": ["1Lpj6G5WrBGpkJkv2DmhGKtnvjA77KwMM5"], "asm": "OP_DUP OP_HASH160 d971135cb9ff0886d1cabab046e2049c0af3f4e1 OP_EQUALVERIFY OP_CHECKSIG", "type": "pubkeyhash"}, "value": 0.0194, "n": 1}], "hex": "010000000107803117643aa6573005d1a6d989b7470c4ab4d6d308e2eb0b1e8a77f5e6d99c000000006b483045022100ceef67306e2fb51f84a06274102c799eafc63e23510419487b66dd6f492fa03202207f8a15a8beed507d28a42e355a2e3661267a43582b653f7e58ca3aaa894b8fc60121032f64f0eaa94a7b8736135c4c5830ccd9fa38b51436f637939be1cb01f015d2f6ffffffff02e3971d00000000001976a914c62fd9e0cf36e6d77460657b28bfb2f86e15cbc988ac209a1d00000000001976a914d971135cb9ff0886d1cabab046e2049c0af3f4e188ac00000000", "vin": [{"sequence": 4294967295, "scriptSig": {"hex": "483045022100ceef67306e2fb51f84a06274102c799eafc63e23510419487b66dd6f492fa03202207f8a15a8beed507d28a42e355a2e3661267a43582b653f7e58ca3aaa894b8fc60121032f64f0eaa94a7b8736135c4c5830ccd9fa38b51436f637939be1cb01f015d2f6", "asm": "3045022100ceef67306e2fb51f84a06274102c799eafc63e23510419487b66dd6f492fa03202207f8a15a8beed507d28a42e355a2e3661267a43582b653f7e58ca3aaa894b8fc6[ALL] 032f64f0eaa94a7b8736135c4c5830ccd9fa38b51436f637939be1cb01f015d2f6"}, "vout": 0, "txid": "9cd9e6f5778a1e0bebe208d3d6b44a0c47b789d9a6d1053057a63a6417318007"}], "txid": "52776d2b156641f7572015d89f157351bb4cbf0aff3b99085018b9a789c90c6b", "blocktime": 1537871767, "version": 1, "confirmations": 11495, "time": 1537871767, "locktime": 0, "vsize": 226, "size": 226}