{"hash": "abb34358494cf4c58f1347d93725e724eeacbf069d125313eca42abdabf5bd73", "blockhash": "0000000000000000001cda96e906b7601b7a6fb1a3b62bca570a9e5d8f4b3de1", "vout": [{"scriptPubKey": {"reqSigs": 1, "hex": "a9145793dbe4ff11c87bc04091dd5b1244fa2938e71987", "addresses": ["39g5qesoyq6H14mqKMdySakYgasQmn4r3u"], "asm": "OP_HASH160 5793dbe4ff11c87bc04091dd5b1244fa2938e719 OP_EQUAL", "type": "scripthash"}, "value": 0.20367298, "n": 0}, {"scriptPubKey": {"reqSigs": 1, "hex": "76a9146156ce2f67706481a6eb459a8b18c6b1e59c45f988ac", "addresses": ["19sgXxHfwJuU9VgyYX9htqLJw2SoX9Sr6B"], "asm": "OP_DUP OP_HASH160 6156ce2f67706481a6eb459a8b18c6b1e59c45f9 OP_EQUALVERIFY OP_CHECKSIG", "type": "pubkeyhash"}, "value": 0.02806466, "n": 1}], "hex": "0200000000010157df8f9d858a75c9a657b2543e3db979d0e4408a6b5d1244960d4698fdaab3df01000000171600146e5785fc5c66912f027b107c123156c072144da8fdffffff02c2c736010000000017a9145793dbe4ff11c87bc04091dd5b1244fa2938e71987c2d22a00000000001976a9146156ce2f67706481a6eb459a8b18c6b1e59c45f988ac02483045022100f8b121585f4e97136f7d307f6c1801ece4275f15870f79da9258a95d3cc124af0220253e2fa0846d7c0dae81612c485dc0cfd7e6141a53e8e78979c983844c6a4638012102906805fb7837f5bb2215a471b341d5caa1494312189b26da3ea4612c35153c8e13490800", "vin": [{"txinwitness": ["3045022100f8b121585f4e97136f7d307f6c1801ece4275f15870f79da9258a95d3cc124af0220253e2fa0846d7c0dae81612c485dc0cfd7e6141a53e8e78979c983844c6a463801", "02906805fb7837f5bb2215a471b341d5caa1494312189b26da3ea4612c35153c8e"], "sequence": 4294967293, "scriptSig": {"hex": "1600146e5785fc5c66912f027b107c123156c072144da8", "asm": "00146e5785fc5c66912f027b107c123156c072144da8"}, "vout": 1, "txid": "dfb3aafd98460d9644125d6b8a40e4d079b93d3e54b257a6c9758a859d8fdf57"}], "txid": "52781ae462fe23c6c01400269108d04389c485c388203e9b78d4eb0399c3fbd7", "blocktime": 1537873282, "version": 2, "confirmations": 11484, "time": 1537873282, "locktime": 542995, "vsize": 168, "size": 250}