{"hash": "527be6775257087a2951333e8c3564919923b3ca4105e263be718acbf09515ee", "blockhash": "0000000000000000001cda96e906b7601b7a6fb1a3b62bca570a9e5d8f4b3de1", "vout": [{"scriptPubKey": {"reqSigs": 1, "hex": "a914f381e529ee2ccff3c2fecd0baf8b73cd458dc53587", "addresses": ["3PtZjS5ioqipBwXFGEAVPgjrzBCjudrypw"], "asm": "OP_HASH160 f381e529ee2ccff3c2fecd0baf8b73cd458dc535 OP_EQUAL", "type": "scripthash"}, "value": 0.001, "n": 0}, {"scriptPubKey": {"reqSigs": 1, "hex": "76a914061efbc81e9f08ae0f8668d57561fb80272756e588ac", "addresses": ["1ZNAvarAny9FxErumz8Txk1gEDsjr1N9N"], "asm": "OP_DUP OP_HASH160 061efbc81e9f08ae0f8668d57561fb80272756e5 OP_EQUALVERIFY OP_CHECKSIG", "type": "pubkeyhash"}, "value": 0.00208506, "n": 1}], "hex": "010000000184c9be70a0377df19491ed31f0b9062c07c6610a1c63b81e968109765ea82a5d000000006b483045022100a0a5a16114693f3ed9673c1efab05f02504251c45a9e0b4dbf8f07f06c21712602205fcac34334693570101160cad8407374cba72584ad2bbb78d0da44708d42b029012102e373d22b98c709179fc74f295a789529f88968f085dc0bb9f6b19b1721c51f6cffffffff02a08601000000000017a914f381e529ee2ccff3c2fecd0baf8b73cd458dc535877a2e0300000000001976a914061efbc81e9f08ae0f8668d57561fb80272756e588ac00000000", "vin": [{"sequence": 4294967295, "scriptSig": {"hex": "483045022100a0a5a16114693f3ed9673c1efab05f02504251c45a9e0b4dbf8f07f06c21712602205fcac34334693570101160cad8407374cba72584ad2bbb78d0da44708d42b029012102e373d22b98c709179fc74f295a789529f88968f085dc0bb9f6b19b1721c51f6c", "asm": "3045022100a0a5a16114693f3ed9673c1efab05f02504251c45a9e0b4dbf8f07f06c21712602205fcac34334693570101160cad8407374cba72584ad2bbb78d0da44708d42b029[ALL] 02e373d22b98c709179fc74f295a789529f88968f085dc0bb9f6b19b1721c51f6c"}, "vout": 0, "txid": "5d2aa85e760981961eb8631c0a61c6072c06b9f031ed9194f17d37a070bec984"}], "txid": "527be6775257087a2951333e8c3564919923b3ca4105e263be718acbf09515ee", "blocktime": 1537873282, "version": 1, "confirmations": 11485, "time": 1537873282, "locktime": 0, "vsize": 224, "size": 224}