{"hash": "527df9cd2d8d38bf4275824b6b0b8e5d6200a24b382e6eeaaef21cbd55d5ebba", "blockhash": "00000000000000000017f5eb5941039fbcee6240d03bc1f2f8e35350df66a1d8", "vout": [{"scriptPubKey": {"reqSigs": 1, "hex": "a914a3c328ef9712a6a73f8d148c4ab3abc51ffe793787", "addresses": ["3Gcurm3CuDrpZt7ED2c5H5Dh3yCPWMYFgS"], "asm": "OP_HASH160 a3c328ef9712a6a73f8d148c4ab3abc51ffe7937 OP_EQUAL", "type": "scripthash"}, "value": 0.0036721, "n": 0}, {"scriptPubKey": {"reqSigs": 1, "hex": "a914720c6da9ab6d731f6e2aa0cbdf9f2453e09a45b187", "addresses": ["3C63qx6UyCSji9GDTPFu3JFTSnLKtZo91r"], "asm": "OP_HASH160 720c6da9ab6d731f6e2aa0cbdf9f2453e09a45b1 OP_EQUAL", "type": "scripthash"}, "value": 0.21022851, "n": 1}], "hex": "01000000019135ad35d2bf3bb75bfafc7fe8b15a81a88d18222b04d9d0eb30e555d7a7afe301000000da00483045022100a258847ecf0316ba4f31d25c6c67a0b33094766af84a3e1280bd5a29120b4bd6022075fe028ec8e6a00f71e6da45f49b6c126edf9145b99eefd548dcc44f3748efdf01473044022022a611c10a5965ad61f3d1e366a85720428f37d3ada205e5d418703e4f167fc70220229f77912d20cc072182cb21de42d524d2daa23fa4c15be9bccf89876bc35bd30147522103f2d250ed5140d655fe49f9b9f857ff223c9290b9bbe8b68a50d522cf45e633702102045f2de7b3abee8ca375163a8879a6719ef3e6d7ffc88aa3008e11b5b89eb7ee52aeffffffff026a9a05000000000017a914a3c328ef9712a6a73f8d148c4ab3abc51ffe79378783c840010000000017a914720c6da9ab6d731f6e2aa0cbdf9f2453e09a45b18700000000", "vin": [{"sequence": 4294967295, "scriptSig": {"hex": "00483045022100a258847ecf0316ba4f31d25c6c67a0b33094766af84a3e1280bd5a29120b4bd6022075fe028ec8e6a00f71e6da45f49b6c126edf9145b99eefd548dcc44f3748efdf01473044022022a611c10a5965ad61f3d1e366a85720428f37d3ada205e5d418703e4f167fc70220229f77912d20cc072182cb21de42d524d2daa23fa4c15be9bccf89876bc35bd30147522103f2d250ed5140d655fe49f9b9f857ff223c9290b9bbe8b68a50d522cf45e633702102045f2de7b3abee8ca375163a8879a6719ef3e6d7ffc88aa3008e11b5b89eb7ee52ae", "asm": "0 3045022100a258847ecf0316ba4f31d25c6c67a0b33094766af84a3e1280bd5a29120b4bd6022075fe028ec8e6a00f71e6da45f49b6c126edf9145b99eefd548dcc44f3748efdf[ALL] 3044022022a611c10a5965ad61f3d1e366a85720428f37d3ada205e5d418703e4f167fc70220229f77912d20cc072182cb21de42d524d2daa23fa4c15be9bccf89876bc35bd3[ALL] 522103f2d250ed5140d655fe49f9b9f857ff223c9290b9bbe8b68a50d522cf45e633702102045f2de7b3abee8ca375163a8879a6719ef3e6d7ffc88aa3008e11b5b89eb7ee52ae"}, "vout": 1, "txid": "e3afa7d755e530ebd0d9042b22188da8815ab1e87ffcfa5bb73bbfd235ad3591"}], "txid": "527df9cd2d8d38bf4275824b6b0b8e5d6200a24b382e6eeaaef21cbd55d5ebba", "blocktime": 1537874412, "version": 1, "confirmations": 11467, "time": 1537874412, "locktime": 0, "vsize": 333, "size": 333}