{"hash": "5284a087cafb2a639cc68d28dd516acd35e7072e843a279382a8a56e1702a2fe", "blockhash": "00000000000000000018f53835495a110e01622372bf6ae95dc86f2b0ab887b0", "vout": [{"scriptPubKey": {"reqSigs": 1, "hex": "76a914661a584eb7e212fefbe0b4cdd9e88164cb123d2288ac", "addresses": ["1AJsV3fjw4ffkSJUbmV9RGuaHGYrTXwf1Q"], "asm": "OP_DUP OP_HASH160 661a584eb7e212fefbe0b4cdd9e88164cb123d22 OP_EQUALVERIFY OP_CHECKSIG", "type": "pubkeyhash"}, "value": 1.0, "n": 0}, {"scriptPubKey": {"reqSigs": 1, "hex": "76a914fbb19ec04fef7e517073ac48bfd82e1a2432fff188ac", "addresses": ["1PwqPQtWtNYJkGP4obnGqVpPbrSzdA7k5Z"], "asm": "OP_DUP OP_HASH160 fbb19ec04fef7e517073ac48bfd82e1a2432fff1 OP_EQUALVERIFY OP_CHECKSIG", "type": "pubkeyhash"}, "value": 3.99998644, "n": 1}], "hex": "0100000001ba7575c0c852040d1ae95a8e10e327c7aaff73c6586c2efbdf26cbfa22f8e1a9000000006b483045022100b3225930df7060900582c238a7a3d6a3fa0b415ee045e70e5d460624a0d36b8202200f9aaef0ff0fc628a20b643ca0271495d9304d0b3ccf685ddd7c9e312af52a8101210234c590afc8f2c9e159808c8f4bf8f4b4d625c8d5f73eb34de0d0651185019093ffffffff0200e1f505000000001976a914661a584eb7e212fefbe0b4cdd9e88164cb123d2288acb47ed717000000001976a914fbb19ec04fef7e517073ac48bfd82e1a2432fff188ac00000000", "vin": [{"sequence": 4294967295, "scriptSig": {"hex": "483045022100b3225930df7060900582c238a7a3d6a3fa0b415ee045e70e5d460624a0d36b8202200f9aaef0ff0fc628a20b643ca0271495d9304d0b3ccf685ddd7c9e312af52a8101210234c590afc8f2c9e159808c8f4bf8f4b4d625c8d5f73eb34de0d0651185019093", "asm": "3045022100b3225930df7060900582c238a7a3d6a3fa0b415ee045e70e5d460624a0d36b8202200f9aaef0ff0fc628a20b643ca0271495d9304d0b3ccf685ddd7c9e312af52a81[ALL] 0234c590afc8f2c9e159808c8f4bf8f4b4d625c8d5f73eb34de0d0651185019093"}, "vout": 0, "txid": "a9e1f822facb26dffb2e6c58c673ffaac727e3108e5ae91a0d0452c8c07575ba"}], "txid": "5284a087cafb2a639cc68d28dd516acd35e7072e843a279382a8a56e1702a2fe", "blocktime": 1537870928, "version": 1, "confirmations": 11514, "time": 1537870928, "locktime": 0, "vsize": 226, "size": 226}