{"hash": "5288c7b51bd347154f70b1b53d0a7883f646ae5d91bc90e0e74e0e0f86304b74", "blockhash": "0000000000000000000e13cef7c366c0283d82e591d1acd082e914b08063cdf1", "vout": [{"scriptPubKey": {"reqSigs": 1, "hex": "76a91452b8ab3d0c6b4b8bac52e508b4f7d9745eb2f34088ac", "addresses": ["18YPdkWmatAkxoqrvJuD4yBpwWRwU8yoPb"], "asm": "OP_DUP OP_HASH160 52b8ab3d0c6b4b8bac52e508b4f7d9745eb2f340 OP_EQUALVERIFY OP_CHECKSIG", "type": "pubkeyhash"}, "value": 0.0016, "n": 0}, {"scriptPubKey": {"reqSigs": 1, "hex": "76a914496ba04155e03842eac484587ebbd82ea736cec688ac", "addresses": ["17hDFzMx24KhnPDoQFcjTpsb3qcyKENrSi"], "asm": "OP_DUP OP_HASH160 496ba04155e03842eac484587ebbd82ea736cec6 OP_EQUALVERIFY OP_CHECKSIG", "type": "pubkeyhash"}, "value": 0.00112428, "n": 1}], "hex": "010000000102c921b26a46979e8717b283756eb92016106a8110cc4b2690f41cd97a159d78010000006b483045022100dbbed43b14487d7cb4cf2d103a7781ec76f151f8ea213228c58fb379e8a52e7a02201389d0cdaac2d0f16565763e73685a9a20e94f86cd6d96f45d9acdf51f26a210012103710071bdcce174cc3b71b79017c1f8c44b7dff07cdc90ace2f3ad72463eae59cffffffff0200710200000000001976a91452b8ab3d0c6b4b8bac52e508b4f7d9745eb2f34088ac2cb70100000000001976a914496ba04155e03842eac484587ebbd82ea736cec688ac00000000", "vin": [{"sequence": 4294967295, "scriptSig": {"hex": "483045022100dbbed43b14487d7cb4cf2d103a7781ec76f151f8ea213228c58fb379e8a52e7a02201389d0cdaac2d0f16565763e73685a9a20e94f86cd6d96f45d9acdf51f26a210012103710071bdcce174cc3b71b79017c1f8c44b7dff07cdc90ace2f3ad72463eae59c", "asm": "3045022100dbbed43b14487d7cb4cf2d103a7781ec76f151f8ea213228c58fb379e8a52e7a02201389d0cdaac2d0f16565763e73685a9a20e94f86cd6d96f45d9acdf51f26a210[ALL] 03710071bdcce174cc3b71b79017c1f8c44b7dff07cdc90ace2f3ad72463eae59c"}, "vout": 1, "txid": "789d157ad91cf490264bcc10816a101620b96e7583b217879e97466ab221c902"}], "txid": "5288c7b51bd347154f70b1b53d0a7883f646ae5d91bc90e0e74e0e0f86304b74", "blocktime": 1537871767, "version": 1, "confirmations": 11491, "time": 1537871767, "locktime": 0, "vsize": 226, "size": 226}