{"hash": "f2a6a0d89cddbf5acc7e4cae56fbe25f2377d843ec0c8130346a4d54d65ee9ba", "blockhash": "00000000000000000024a2167bbff67b0be802c0b01cdd79e6331c2be6459f87", "vout": [{"scriptPubKey": {"reqSigs": 1, "hex": "a914d5bedd3758a9c05e003d6cdfa98313887f90ed7e87", "addresses": ["3MBCVsjhyWZJG5CcfSkg7C1d7djUiKoqhc"], "asm": "OP_HASH160 d5bedd3758a9c05e003d6cdfa98313887f90ed7e OP_EQUAL", "type": "scripthash"}, "value": 0.00027574, "n": 0}], "hex": "010000000001017f803f7e022f5381cb54a48f56fb174bb943e9639b68b1fe02838007b741ee9eaf0200001716001431806ebf8caf8e3cc9e1c2c394d5b6421dd6f5aeffffffff01b66b00000000000017a914d5bedd3758a9c05e003d6cdfa98313887f90ed7e8702473044022025392a30f3e89b0ef57584e2aae3b2a9d4489139a01b7ce352093e90f0936bc3022070899ca86a9f6cc92453c0e58dd2fd89df5c7e26741c96fbf178a02985ae8b2e012102abc7008c89c5af8a43824f5167667984617906a2c19ab045a48089df1c2c314b00000000", "vin": [{"txinwitness": ["3044022025392a30f3e89b0ef57584e2aae3b2a9d4489139a01b7ce352093e90f0936bc3022070899ca86a9f6cc92453c0e58dd2fd89df5c7e26741c96fbf178a02985ae8b2e01", "02abc7008c89c5af8a43824f5167667984617906a2c19ab045a48089df1c2c314b"], "sequence": 4294967295, "scriptSig": {"hex": "16001431806ebf8caf8e3cc9e1c2c394d5b6421dd6f5ae", "asm": "001431806ebf8caf8e3cc9e1c2c394d5b6421dd6f5ae"}, "vout": 687, "txid": "9eee41b707808302feb1689b63e943b94b17fb568fa454cb81532f027e3f807f"}], "txid": "528d85f48c27bf722eecf727bba26d07b177199ab47f24c787e24fd8956d56ac", "blocktime": 1537870564, "version": 1, "confirmations": 11515, "time": 1537870564, "locktime": 0, "vsize": 134, "size": 215}