{"hash": "5293f743b4c75b85cdbc7d4dba8778404b76de8eb478834c74b24020f0573f41", "blockhash": "0000000000000000001e0dab787dd257d1dbfcb92a98c2207d5e1078be1f4165", "vout": [{"scriptPubKey": {"reqSigs": 1, "hex": "76a9140afb3250ee45d7360b08d59df7eadda6114d2bb488ac", "addresses": ["1214gMuNqiQFiMuW1Pzpr9B69RVnokvgJt"], "asm": "OP_DUP OP_HASH160 0afb3250ee45d7360b08d59df7eadda6114d2bb4 OP_EQUALVERIFY OP_CHECKSIG", "type": "pubkeyhash"}, "value": 0.00250064, "n": 0}, {"scriptPubKey": {"reqSigs": 1, "hex": "a9147cb4f5ca76d99834d0aa53de86579f218e0a120d87", "addresses": ["3D4QVfFcAttssByq8juNvnF4Xe7f7GJ3LF"], "asm": "OP_HASH160 7cb4f5ca76d99834d0aa53de86579f218e0a120d OP_EQUAL", "type": "scripthash"}, "value": 0.00779258, "n": 1}], "hex": "01000000018cf9b065fbf89367d29f2b3adb7849413b600d1cc7405b0f0aa436a5ac54088f000000006a47304402203d6aaac6ddc70a6d5488ade2b4b24727168389a954a9989acfd4d6648bc8566b02204931110aa675506fe189a7cbd4b16d5f8cd1e6d5b4a6f794c11cf0a399a38e700121038d103d6806de1585096aa7d7791169eb01cd3c1bef0eb6e4df9d52b76b6d8dfeffffffff02d0d00300000000001976a9140afb3250ee45d7360b08d59df7eadda6114d2bb488acfae30b000000000017a9147cb4f5ca76d99834d0aa53de86579f218e0a120d8700000000", "vin": [{"sequence": 4294967295, "scriptSig": {"hex": "47304402203d6aaac6ddc70a6d5488ade2b4b24727168389a954a9989acfd4d6648bc8566b02204931110aa675506fe189a7cbd4b16d5f8cd1e6d5b4a6f794c11cf0a399a38e700121038d103d6806de1585096aa7d7791169eb01cd3c1bef0eb6e4df9d52b76b6d8dfe", "asm": "304402203d6aaac6ddc70a6d5488ade2b4b24727168389a954a9989acfd4d6648bc8566b02204931110aa675506fe189a7cbd4b16d5f8cd1e6d5b4a6f794c11cf0a399a38e70[ALL] 038d103d6806de1585096aa7d7791169eb01cd3c1bef0eb6e4df9d52b76b6d8dfe"}, "vout": 0, "txid": "8f0854aca536a40a0f5b40c71c0d603b414978db3a2b9fd26793f8fb65b0f98c"}], "txid": "5293f743b4c75b85cdbc7d4dba8778404b76de8eb478834c74b24020f0573f41", "blocktime": 1537872475, "version": 1, "confirmations": 11487, "time": 1537872475, "locktime": 0, "vsize": 223, "size": 223}