{"hash": "529d32602836ae00ae577636fe31d79358b22c25d2caebf6c2a6bd11ed9dfda4", "blockhash": "0000000000000000000dcc0f55137456b1a82d3642486a52398922ac4d620174", "vout": [{"scriptPubKey": {"reqSigs": 1, "hex": "76a914c93217dd16c404cbee6fbf875a87678a3ddd849288ac", "addresses": ["1KLpq6YqQmd9oey78Mv7cRBrV55CaD9u9U"], "asm": "OP_DUP OP_HASH160 c93217dd16c404cbee6fbf875a87678a3ddd8492 OP_EQUALVERIFY OP_CHECKSIG", "type": "pubkeyhash"}, "value": 0.009, "n": 0}, {"scriptPubKey": {"reqSigs": 1, "hex": "76a9141506e4bf3d6f6cb53184bf12da825bb98f13b80b88ac", "addresses": ["12vBT11husFjQNJSVvK1bG3Cvfu9yXHqKi"], "asm": "OP_DUP OP_HASH160 1506e4bf3d6f6cb53184bf12da825bb98f13b80b OP_EQUALVERIFY OP_CHECKSIG", "type": "pubkeyhash"}, "value": 0.1753072, "n": 1}], "hex": "0100000001b8e753b101d305cf9052f624f2a6a66157b443a9b6a676b200f0db343ed6b831010000006a473044022000ffe86ee5d8e66e78556ecb1dd1e6c74a59f8c392764c5027f919491251b8290220538720c20eec58b6df96571012638ec301ae04cb3fefe699faf920ca987cf351012103b82b0b05470061d7f288dc4f6321dc237f505c246b60525c392cca3356e8f51effffffff02a0bb0d00000000001976a914c93217dd16c404cbee6fbf875a87678a3ddd849288ac607f0b01000000001976a9141506e4bf3d6f6cb53184bf12da825bb98f13b80b88ac00000000", "vin": [{"sequence": 4294967295, "scriptSig": {"hex": "473044022000ffe86ee5d8e66e78556ecb1dd1e6c74a59f8c392764c5027f919491251b8290220538720c20eec58b6df96571012638ec301ae04cb3fefe699faf920ca987cf351012103b82b0b05470061d7f288dc4f6321dc237f505c246b60525c392cca3356e8f51e", "asm": "3044022000ffe86ee5d8e66e78556ecb1dd1e6c74a59f8c392764c5027f919491251b8290220538720c20eec58b6df96571012638ec301ae04cb3fefe699faf920ca987cf351[ALL] 03b82b0b05470061d7f288dc4f6321dc237f505c246b60525c392cca3356e8f51e"}, "vout": 1, "txid": "31b8d63e34dbf000b276a6b6a943b45761a6a6f224f65290cf05d301b153e7b8"}], "txid": "529d32602836ae00ae577636fe31d79358b22c25d2caebf6c2a6bd11ed9dfda4", "blocktime": 1537870268, "version": 1, "confirmations": 11518, "time": 1537870268, "locktime": 0, "vsize": 225, "size": 225}