{"hash": "529e41ae143df9d3c95cee7e873b0d89d1fcd55df6eb00465e8c072a46db13b1", "blockhash": "0000000000000000000baef3f32e3676a92c3b2e5da21b426e4f302fc371ce76", "vout": [{"scriptPubKey": {"reqSigs": 1, "hex": "76a9146493e14cca0bd9f7c62b6be0bb129ce84a341c7488ac", "addresses": ["1AAoj57ovByNs2FgEMJUP5sAt2aysMUee7"], "asm": "OP_DUP OP_HASH160 6493e14cca0bd9f7c62b6be0bb129ce84a341c74 OP_EQUALVERIFY OP_CHECKSIG", "type": "pubkeyhash"}, "value": 0.00628481, "n": 0}, {"scriptPubKey": {"type": "nulldata", "hex": "6a4c50000078310001d75e35aaba5f9ef370ee0d8227b7256b4774d339f6019d6ddc0f1b8ff117e83132d6b50bbefcaa751ee9699ba1f85baa1f870613f3f75e0aa5401d100759d4ba30d2c37bb011d97e02cf", "asm": "OP_RETURN 000078310001d75e35aaba5f9ef370ee0d8227b7256b4774d339f6019d6ddc0f1b8ff117e83132d6b50bbefcaa751ee9699ba1f85baa1f870613f3f75e0aa5401d100759d4ba30d2c37bb011d97e02cf"}, "value": 0.0, "n": 1}], "hex": "0100000001f13348972cb9b3f3f79972ec40affe8cc38630f775d6ccad05bf28aba5dc823d000000006b4830450221008d74815ef48469ca8beb526c4b18784c4d97dc9e6c8e92e9c022bd41f6ccf8760220287e2b96a885ed537aa01cf9a8080cf88e82eda06c9f7f86ba87e8ea5dfab83a012103a911972ca069ebb3e30da667369e7b594dafec19bbff13c3629d1d465aa234f8ffffffff0201970900000000001976a9146493e14cca0bd9f7c62b6be0bb129ce84a341c7488ac0000000000000000536a4c50000078310001d75e35aaba5f9ef370ee0d8227b7256b4774d339f6019d6ddc0f1b8ff117e83132d6b50bbefcaa751ee9699ba1f85baa1f870613f3f75e0aa5401d100759d4ba30d2c37bb011d97e02cf00000000", "vin": [{"sequence": 4294967295, "scriptSig": {"hex": "4830450221008d74815ef48469ca8beb526c4b18784c4d97dc9e6c8e92e9c022bd41f6ccf8760220287e2b96a885ed537aa01cf9a8080cf88e82eda06c9f7f86ba87e8ea5dfab83a012103a911972ca069ebb3e30da667369e7b594dafec19bbff13c3629d1d465aa234f8", "asm": "30450221008d74815ef48469ca8beb526c4b18784c4d97dc9e6c8e92e9c022bd41f6ccf8760220287e2b96a885ed537aa01cf9a8080cf88e82eda06c9f7f86ba87e8ea5dfab83a[ALL] 03a911972ca069ebb3e30da667369e7b594dafec19bbff13c3629d1d465aa234f8"}, "vout": 0, "txid": "3d82dca5ab28bf05adccd675f73086c38cfeaf40ec7299f7f3b3b92c974833f1"}], "txid": "529e41ae143df9d3c95cee7e873b0d89d1fcd55df6eb00465e8c072a46db13b1", "blocktime": 1537876114, "version": 1, "confirmations": 11463, "time": 1537876114, "locktime": 0, "vsize": 284, "size": 284}