{"hash": "52a0d3ba2aeb0e694d6ab5b93a5c72534ac1bbfbf4ab24d1d7ccf5781d668926", "blockhash": "0000000000000000000baef3f32e3676a92c3b2e5da21b426e4f302fc371ce76", "vout": [{"scriptPubKey": {"reqSigs": 1, "hex": "a914b021473fd6b32b1aa0bcb85f5bf3c3b274d015e687", "addresses": ["3HkJiXLt58Er4LDk5PTc2e4HZrAXvSAHtf"], "asm": "OP_HASH160 b021473fd6b32b1aa0bcb85f5bf3c3b274d015e6 OP_EQUAL", "type": "scripthash"}, "value": 0.006765, "n": 0}, {"scriptPubKey": {"reqSigs": 1, "hex": "76a91449a483c60fac32cd94a5d5212539626ad3d9fffc88ac", "addresses": ["17iPQgv9hSmXaoTDq2RA9a4AstvPQxLE1k"], "asm": "OP_DUP OP_HASH160 49a483c60fac32cd94a5d5212539626ad3d9fffc OP_EQUALVERIFY OP_CHECKSIG", "type": "pubkeyhash"}, "value": 1.22696145, "n": 1}], "hex": "01000000014b6cb6e2c0d156a81111778a23f848f04170ffc0721ba5aa763f3d58fc330c48010000006a473044022100a47fd8be6d65803d0c29a5bc452685dd3ee627e39ccc7d2da64c9174add23c28021f0a088ae8a0cc6e9b0b30bc0cd6ab3460845892120b8ae5387135d8196d8771012103d8691dd5f0877eadf2faef4440d2351443c5631a0d534c0dd0a335fa21fa4673fdffffff0294520a000000000017a914b021473fd6b32b1aa0bcb85f5bf3c3b274d015e687d1315007000000001976a91449a483c60fac32cd94a5d5212539626ad3d9fffc88ac16490800", "vin": [{"sequence": 4294967293, "scriptSig": {"hex": "473044022100a47fd8be6d65803d0c29a5bc452685dd3ee627e39ccc7d2da64c9174add23c28021f0a088ae8a0cc6e9b0b30bc0cd6ab3460845892120b8ae5387135d8196d8771012103d8691dd5f0877eadf2faef4440d2351443c5631a0d534c0dd0a335fa21fa4673", "asm": "3044022100a47fd8be6d65803d0c29a5bc452685dd3ee627e39ccc7d2da64c9174add23c28021f0a088ae8a0cc6e9b0b30bc0cd6ab3460845892120b8ae5387135d8196d8771[ALL] 03d8691dd5f0877eadf2faef4440d2351443c5631a0d534c0dd0a335fa21fa4673"}, "vout": 1, "txid": "480c33fc583d3f76aaa51b72c0ff7041f048f8238a771111a856d1c0e2b66c4b"}], "txid": "52a0d3ba2aeb0e694d6ab5b93a5c72534ac1bbfbf4ab24d1d7ccf5781d668926", "blocktime": 1537876114, "version": 1, "confirmations": 11460, "time": 1537876114, "locktime": 542998, "vsize": 223, "size": 223}