{"hash": "466bfd961033cd444796ef74c524b8afc6dffd296a512c8d9842cc080c469d9b", "blockhash": "0000000000000000000dcc0f55137456b1a82d3642486a52398922ac4d620174", "vout": [{"scriptPubKey": {"reqSigs": 1, "hex": "0014ed095c52ca39fe57d01d5eddd116270ad09ecc3f", "addresses": ["bc1qa5y4c5k288l905qatmwaz938ptgfanplhnl02g"], "asm": "0 ed095c52ca39fe57d01d5eddd116270ad09ecc3f", "type": "witness_v0_keyhash"}, "value": 0.00940267, "n": 0}, {"scriptPubKey": {"reqSigs": 1, "hex": "76a914fd3dc7bc9f596c231ed1380f0e0733b69709da1688ac", "addresses": ["1Q61y6hEfNE9mZL5UYiqewCV53VrAQdfHt"], "asm": "OP_DUP OP_HASH160 fd3dc7bc9f596c231ed1380f0e0733b69709da16 OP_EQUALVERIFY OP_CHECKSIG", "type": "pubkeyhash"}, "value": 0.02263401, "n": 1}], "hex": "010000000001019437d0284c85209df7a61ca3d186d14ac36beb71dd29bff640538a01f04bfc2801000000171600142f2d1b67c7ebae636affcc10604afd05909345f6ffffffff02eb580e0000000000160014ed095c52ca39fe57d01d5eddd116270ad09ecc3f69892200000000001976a914fd3dc7bc9f596c231ed1380f0e0733b69709da1688ac024730440220360ff39edc95e860fc7a3591aa22031f2f7d777892a0b611e1b6bbbbba2a9f7f02205ba6a513d5f24be805147ffd47f5438cd23e8680059b32e2ef95724d0e39c3e1012102e8a9eb30040612036f6672ec4d6bf60a51e9455f9299b49c995bc1a6a0a5602a00000000", "vin": [{"txinwitness": ["30440220360ff39edc95e860fc7a3591aa22031f2f7d777892a0b611e1b6bbbbba2a9f7f02205ba6a513d5f24be805147ffd47f5438cd23e8680059b32e2ef95724d0e39c3e101", "02e8a9eb30040612036f6672ec4d6bf60a51e9455f9299b49c995bc1a6a0a5602a"], "sequence": 4294967295, "scriptSig": {"hex": "1600142f2d1b67c7ebae636affcc10604afd05909345f6", "asm": "00142f2d1b67c7ebae636affcc10604afd05909345f6"}, "vout": 1, "txid": "28fc4bf0018a5340f6bf29dd71eb6bc34ad186d1a31ca6f79d20854c28d03794"}], "txid": "52a1e44c232f69f2eaf3c33556e6e1ef449b8b3b61322455f89e2f603150c8ee", "blocktime": 1537870268, "version": 1, "confirmations": 11518, "time": 1537870268, "locktime": 0, "vsize": 167, "size": 248}