{"hash": "5e2ea9b9c22422cca164609e029fb5fc811f962b4299a8254f93f8dab2dacb2d", "blockhash": "0000000000000000000baef3f32e3676a92c3b2e5da21b426e4f302fc371ce76", "vout": [{"scriptPubKey": {"reqSigs": 1, "hex": "a9149878396bf08f5c8fce67ca0eb37b2edc90857ab087", "addresses": ["3FbCf2sJvCoZjYtCsrdVy7yNbqb5KiiCKX"], "asm": "OP_HASH160 9878396bf08f5c8fce67ca0eb37b2edc90857ab0 OP_EQUAL", "type": "scripthash"}, "value": 0.00027803, "n": 0}, {"scriptPubKey": {"reqSigs": 1, "hex": "a914412a5a9d44d5834123b7756088f409b7b3a36da687", "addresses": ["37daapNiiDgPEaARWMQCfhGXJo4yF1nTaW"], "asm": "OP_HASH160 412a5a9d44d5834123b7756088f409b7b3a36da6 OP_EQUAL", "type": "scripthash"}, "value": 0.00204051, "n": 1}], "hex": "0100000000010137de3de698926e0528c81607e11a6ce4588787abe1624b103473232a36ceb5f3010000002322002083f5850b1b9ae687f7cf8d5c77fefcbd87cde420155cd43c20d50f5f293b7ed6ffffffff029b6c00000000000017a9149878396bf08f5c8fce67ca0eb37b2edc90857ab087131d03000000000017a914412a5a9d44d5834123b7756088f409b7b3a36da68704004730440220382619c4330a5a82e70d51323ca1406ab55170a24bfee0e8c61afaa244810b00022039811f0bdd6156464a154fb58552d960b0701e44f37f6fe61a6fae5634207c1701483045022100c1b05c3a0e8e8088696d543abade85d86cfed452711eb5f69df80d844270bc54022030852c50fe3dbd2765bbe3d26d3192698a27b259d20043f23adf646e08be183601475221020511070566b8412d1941b8dc0ded10caa6a6915b609dfa65bb8111255071d3a22103871fc2ca08e6950b38867e8e6a0e94ee625223d3aa0df5c65f414c6d784467e252ae00000000", "vin": [{"txinwitness": ["", "30440220382619c4330a5a82e70d51323ca1406ab55170a24bfee0e8c61afaa244810b00022039811f0bdd6156464a154fb58552d960b0701e44f37f6fe61a6fae5634207c1701", "3045022100c1b05c3a0e8e8088696d543abade85d86cfed452711eb5f69df80d844270bc54022030852c50fe3dbd2765bbe3d26d3192698a27b259d20043f23adf646e08be183601", "5221020511070566b8412d1941b8dc0ded10caa6a6915b609dfa65bb8111255071d3a22103871fc2ca08e6950b38867e8e6a0e94ee625223d3aa0df5c65f414c6d784467e252ae"], "sequence": 4294967295, "scriptSig": {"hex": "22002083f5850b1b9ae687f7cf8d5c77fefcbd87cde420155cd43c20d50f5f293b7ed6", "asm": "002083f5850b1b9ae687f7cf8d5c77fefcbd87cde420155cd43c20d50f5f293b7ed6"}, "vout": 1, "txid": "f3b5ce362a237334104b62e1ab878758e46c1ae10716c828056e9298e63dde37"}], "txid": "52a122220839b613778923c1ce81b3fcb3da3055a084b8850a57311ef016fd1d", "blocktime": 1537876114, "version": 1, "confirmations": 11460, "time": 1537876114, "locktime": 0, "vsize": 206, "size": 371}