{"hash": "52a323170ee5d9e724a96f3e4bb5046254b4ee0b6b8402d121e4bc437ed45100", "blockhash": "00000000000000000017f5eb5941039fbcee6240d03bc1f2f8e35350df66a1d8", "vout": [{"scriptPubKey": {"reqSigs": 1, "hex": "a914b7ed376e63eeba6068afbfb6566f65c09ea6930c87", "addresses": ["3JTXkjzWEwc5cvsvw5DaADZaZij3P31Hsb"], "asm": "OP_HASH160 b7ed376e63eeba6068afbfb6566f65c09ea6930c OP_EQUAL", "type": "scripthash"}, "value": 0.0031699, "n": 0}, {"scriptPubKey": {"reqSigs": 1, "hex": "76a914f7bf0517d4905bfb3c889eeb2a93291ede2daac488ac", "addresses": ["1PaxjgGj4C9Hf5VnSvoWor6gCFWwsVHGDM"], "asm": "OP_DUP OP_HASH160 f7bf0517d4905bfb3c889eeb2a93291ede2daac4 OP_EQUALVERIFY OP_CHECKSIG", "type": "pubkeyhash"}, "value": 0.0245151, "n": 1}], "hex": "0100000001111993966529542c65d65485b1e56babf249ab972f9af5801d56133f7878bde4010000006b483045022100d636e3ed2fd62becb48a991f2f16f7e8553be88d0548c166635eb13cb4b4592d0220715ded889c3e6c7b6b8f774c90889c9a0b6b9fac4472d23242cf8caa1f5e5d4801210316eb49797c9c4dd041d47b9ba3c21fe329fc995024ee7f824156ba66b1788499ffffffff023ed604000000000017a914b7ed376e63eeba6068afbfb6566f65c09ea6930c8736682500000000001976a914f7bf0517d4905bfb3c889eeb2a93291ede2daac488ac00000000", "vin": [{"sequence": 4294967295, "scriptSig": {"hex": "483045022100d636e3ed2fd62becb48a991f2f16f7e8553be88d0548c166635eb13cb4b4592d0220715ded889c3e6c7b6b8f774c90889c9a0b6b9fac4472d23242cf8caa1f5e5d4801210316eb49797c9c4dd041d47b9ba3c21fe329fc995024ee7f824156ba66b1788499", "asm": "3045022100d636e3ed2fd62becb48a991f2f16f7e8553be88d0548c166635eb13cb4b4592d0220715ded889c3e6c7b6b8f774c90889c9a0b6b9fac4472d23242cf8caa1f5e5d48[ALL] 0316eb49797c9c4dd041d47b9ba3c21fe329fc995024ee7f824156ba66b1788499"}, "vout": 1, "txid": "e4bd78783f13561d80f59a2f97ab49f2ab6be5b18554d6652c54296596931911"}], "txid": "52a323170ee5d9e724a96f3e4bb5046254b4ee0b6b8402d121e4bc437ed45100", "blocktime": 1537874412, "version": 1, "confirmations": 11468, "time": 1537874412, "locktime": 0, "vsize": 224, "size": 224}