{"hash": "52acbb8ba4b3406c543174a800e8140c9032b9a41adfd440abc4681a0e3beeea", "blockhash": "0000000000000000001cda96e906b7601b7a6fb1a3b62bca570a9e5d8f4b3de1", "vout": [{"scriptPubKey": {"reqSigs": 1, "hex": "a914940c884794508f01a466cf0632fac1c1cb63695987", "addresses": ["3FBpwhPA8HoaGaeQs3TKTf5ypCu83ng2mf"], "asm": "OP_HASH160 940c884794508f01a466cf0632fac1c1cb636959 OP_EQUAL", "type": "scripthash"}, "value": 1.0, "n": 0}, {"scriptPubKey": {"reqSigs": 1, "hex": "76a9148835a4ad60277f563e2e09485cd96d9925a3bed488ac", "addresses": ["1DRDAHkEWowaDVvinZksLxxEM7RZWoTpSF"], "asm": "OP_DUP OP_HASH160 8835a4ad60277f563e2e09485cd96d9925a3bed4 OP_EQUALVERIFY OP_CHECKSIG", "type": "pubkeyhash"}, "value": 0.1488823, "n": 1}], "hex": "010000000576ca400a4c28c45b94f21731f613ce2bf6f3c9318a8e0b0a40e4af26dc8a31ba000000006a47304402203ca0e61abc97628834014e3d673299b6e817db52043d6d1681d0cf7f611d8cfd0220311ca3790ba77a5e54d576f468b2b43cb973ca82ce0c0a2a1453d2992f5407570121025c4fb8c1905b80d50a356fe6369e2cd3a97281a25c593c98a061570ee53f6ddeffffffff42e2db9152d97862870d4e31eaab89d5918954b718fd8e8c890616e6aabeb8a3000000006a47304402200d34130a2d991a8d5e321b65ef167edafe06edf387173ad2249876272bd835bc02207ae9457f61ee513396ed47fcb835956a1f0c8b5917f7e1f285cc1dc51e01faaf0121025c4fb8c1905b80d50a356fe6369e2cd3a97281a25c593c98a061570ee53f6ddeffffffff3f3b8d9ee5381b08bbd2708dc7e8b3f1065103d0c00a10dc0c7684ccfd7a5952000000006b483045022100ddcb9100a350f1478bc60cc0035ffe46e49cee9057b18f6ca42f0887031c4b11022032f64f64a16404e1925259d55775fdaa2bd880c062b0cc8f441d80a9eb565a890121025c4fb8c1905b80d50a356fe6369e2cd3a97281a25c593c98a061570ee53f6ddeffffffffc2375a907be620cc724fc8e5bc9aba10b697a5732bb50ea1cb786beb51e6fb89000000006a47304402205d18a5a8b0378dc30a159a0f2e9bf4c82fcf72b30bf3123d26606a5c259790bf022045899bbbac0f7072f75b37e35b915487be29da76ef5096b2c6186cce316acc630121025c4fb8c1905b80d50a356fe6369e2cd3a97281a25c593c98a061570ee53f6ddeffffffffbb6d3a9c3fc8df6b3f22118ba14113dca08328ffcf9c4f7cabb76b65d48dd32c000000006b483045022100d764f945047efad2dc9a69b85d30620c02514a3323bb9056cc0985fa414ab00202202e9e31fa262a3af98908bcfbf58d7362f906f95b685aa0f1f2a0ba8b98eec97e0121025c4fb8c1905b80d50a356fe6369e2cd3a97281a25c593c98a061570ee53f6ddeffffffff0200e1f5050000000017a914940c884794508f01a466cf0632fac1c1cb63695987262de300000000001976a9148835a4ad60277f563e2e09485cd96d9925a3bed488ac00000000", "vin": [{"sequence": 4294967295, "scriptSig": {"hex": "47304402203ca0e61abc97628834014e3d673299b6e817db52043d6d1681d0cf7f611d8cfd0220311ca3790ba77a5e54d576f468b2b43cb973ca82ce0c0a2a1453d2992f5407570121025c4fb8c1905b80d50a356fe6369e2cd3a97281a25c593c98a061570ee53f6dde", "asm": "304402203ca0e61abc97628834014e3d673299b6e817db52043d6d1681d0cf7f611d8cfd0220311ca3790ba77a5e54d576f468b2b43cb973ca82ce0c0a2a1453d2992f540757[ALL] 025c4fb8c1905b80d50a356fe6369e2cd3a97281a25c593c98a061570ee53f6dde"}, "vout": 0, "txid": "ba318adc26afe4400a0b8e8a31c9f3f62bce13f63117f2945bc4284c0a40ca76"}, {"sequence": 4294967295, "scriptSig": {"hex": "47304402200d34130a2d991a8d5e321b65ef167edafe06edf387173ad2249876272bd835bc02207ae9457f61ee513396ed47fcb835956a1f0c8b5917f7e1f285cc1dc51e01faaf0121025c4fb8c1905b80d50a356fe6369e2cd3a97281a25c593c98a061570ee53f6dde", "asm": "304402200d34130a2d991a8d5e321b65ef167edafe06edf387173ad2249876272bd835bc02207ae9457f61ee513396ed47fcb835956a1f0c8b5917f7e1f285cc1dc51e01faaf[ALL] 025c4fb8c1905b80d50a356fe6369e2cd3a97281a25c593c98a061570ee53f6dde"}, "vout": 0, "txid": "a3b8beaae61606898c8efd18b7548991d589abea314e0d876278d95291dbe242"}, {"sequence": 4294967295, "scriptSig": {"hex": "483045022100ddcb9100a350f1478bc60cc0035ffe46e49cee9057b18f6ca42f0887031c4b11022032f64f64a16404e1925259d55775fdaa2bd880c062b0cc8f441d80a9eb565a890121025c4fb8c1905b80d50a356fe6369e2cd3a97281a25c593c98a061570ee53f6dde", "asm": "3045022100ddcb9100a350f1478bc60cc0035ffe46e49cee9057b18f6ca42f0887031c4b11022032f64f64a16404e1925259d55775fdaa2bd880c062b0cc8f441d80a9eb565a89[ALL] 025c4fb8c1905b80d50a356fe6369e2cd3a97281a25c593c98a061570ee53f6dde"}, "vout": 0, "txid": "52597afdcc84760cdc100ac0d0035106f1b3e8c78d70d2bb081b38e59e8d3b3f"}, {"sequence": 4294967295, "scriptSig": {"hex": "47304402205d18a5a8b0378dc30a159a0f2e9bf4c82fcf72b30bf3123d26606a5c259790bf022045899bbbac0f7072f75b37e35b915487be29da76ef5096b2c6186cce316acc630121025c4fb8c1905b80d50a356fe6369e2cd3a97281a25c593c98a061570ee53f6dde", "asm": "304402205d18a5a8b0378dc30a159a0f2e9bf4c82fcf72b30bf3123d26606a5c259790bf022045899bbbac0f7072f75b37e35b915487be29da76ef5096b2c6186cce316acc63[ALL] 025c4fb8c1905b80d50a356fe6369e2cd3a97281a25c593c98a061570ee53f6dde"}, "vout": 0, "txid": "89fbe651eb6b78cba10eb52b73a597b610ba9abce5c84f72cc20e67b905a37c2"}, {"sequence": 4294967295, "scriptSig": {"hex": "483045022100d764f945047efad2dc9a69b85d30620c02514a3323bb9056cc0985fa414ab00202202e9e31fa262a3af98908bcfbf58d7362f906f95b685aa0f1f2a0ba8b98eec97e0121025c4fb8c1905b80d50a356fe6369e2cd3a97281a25c593c98a061570ee53f6dde", "asm": "3045022100d764f945047efad2dc9a69b85d30620c02514a3323bb9056cc0985fa414ab00202202e9e31fa262a3af98908bcfbf58d7362f906f95b685aa0f1f2a0ba8b98eec97e[ALL] 025c4fb8c1905b80d50a356fe6369e2cd3a97281a25c593c98a061570ee53f6dde"}, "vout": 0, "txid": "2cd38dd4656bb7ab7c4f9ccfff2883a0dc1341a18b11223f6bdfc83f9c3a6dbb"}], "txid": "52acbb8ba4b3406c543174a800e8140c9032b9a41adfd440abc4681a0e3beeea", "blocktime": 1537873282, "version": 1, "confirmations": 11483, "time": 1537873282, "locktime": 0, "vsize": 813, "size": 813}