{"hash": "617def52f6797174b175417521e089407c97b90ca9589045bfd7549fe61b4964", "blockhash": "00000000000000000024a2167bbff67b0be802c0b01cdd79e6331c2be6459f87", "vout": [{"scriptPubKey": {"reqSigs": 1, "hex": "a914908aa64ba5142143078265d90507b9c5add5c0b087", "addresses": ["3EsHKi8D8pEFuAit66WMhhJgwLGuG8sizN"], "asm": "OP_HASH160 908aa64ba5142143078265d90507b9c5add5c0b0 OP_EQUAL", "type": "scripthash"}, "value": 0.01225516, "n": 0}, {"scriptPubKey": {"reqSigs": 1, "hex": "a914c2eda8d9ab237fed504c00154d68d6514fa0d6e687", "addresses": ["3KThidocfk8RQGhAFabUJxnZgejectRCDE"], "asm": "OP_HASH160 c2eda8d9ab237fed504c00154d68d6514fa0d6e6 OP_EQUAL", "type": "scripthash"}, "value": 0.014, "n": 1}], "hex": "02000000000101156bc50ea347d0c464285692a06db5e3285cf0af8e9d2bf6124400a67efcc9200100000017160014f62c688427b9889bba00b5fda431f06a10fcc8fdfeffffff022cb312000000000017a914908aa64ba5142143078265d90507b9c5add5c0b087c05c15000000000017a914c2eda8d9ab237fed504c00154d68d6514fa0d6e687024830450221009dc09490a326b1337939ed1b2c82c69e9dbc6c716758028c9b2084fcf1404c610220591465b39f96dcf26552442f34c88f19c761173343266df8b58681a01c9e39140121026a42b58d0fa82af65fd491695900991814d8128fe8353dfaa565a9c6699e272e0d490800", "vin": [{"txinwitness": ["30450221009dc09490a326b1337939ed1b2c82c69e9dbc6c716758028c9b2084fcf1404c610220591465b39f96dcf26552442f34c88f19c761173343266df8b58681a01c9e391401", "026a42b58d0fa82af65fd491695900991814d8128fe8353dfaa565a9c6699e272e"], "sequence": 4294967294, "scriptSig": {"hex": "160014f62c688427b9889bba00b5fda431f06a10fcc8fd", "asm": "0014f62c688427b9889bba00b5fda431f06a10fcc8fd"}, "vout": 1, "txid": "20c9fc7ea6004412f62b9d8eaff05c28e3b56da092562864c4d047a30ec56b15"}], "txid": "52b06589e77cd9382db0135ab26a40d230b4c8e92e7f242cb9d7a15d714423d8", "blocktime": 1537870564, "version": 2, "confirmations": 11515, "time": 1537870564, "locktime": 542989, "vsize": 166, "size": 248}