{"hash": "fff5bbcf40e729742eb0948f266cb6d41b6ad2f86edcc90ca7474c5af9c607a4", "blockhash": "000000000000000000022b45ed06c6f4ccd3cf7fb5ba4856ebd2e58215665228", "vout": [{"scriptPubKey": {"reqSigs": 1, "hex": "a9146c70bf099c5e7ca359df7b2dfee79b1e7358fc5b87", "addresses": ["3BaPy1Pg6TgvTeSGRj9e5fePdb4fu4wSA8"], "asm": "OP_HASH160 6c70bf099c5e7ca359df7b2dfee79b1e7358fc5b OP_EQUAL", "type": "scripthash"}, "value": 0.01000821, "n": 0}, {"scriptPubKey": {"reqSigs": 1, "hex": "76a914473c0fbbc5633a346fecb03f2dd37a4f3578f1fb88ac", "addresses": ["17VevmGh3SBJ34TDfTJRyCUy6JtPivAxB9"], "asm": "OP_DUP OP_HASH160 473c0fbbc5633a346fecb03f2dd37a4f3578f1fb OP_EQUALVERIFY OP_CHECKSIG", "type": "pubkeyhash"}, "value": 0.00295896, "n": 1}], "hex": "020000000001034bc0ab339abf3746d792564d7af974e9c65165453df303f90747a36facc010500000000017160014b81e13732b65ed3b76fc340241371e14316f5eeefeffffff8ab0e7baf810786fb96c3c92a10ad275bb505f169db1ba679173d41b2d363d45000000001716001464a7ead5e847b88b22fd52dc3a7a259f1604c9cefeffffff8cddacedf4d7ea50d9780ee9b74a8dd4c362189cc1878c27da15137cdf9cd1a0010000001716001447effd7fa2ea5fba0eeabc05ec5284985fcd5129feffffff0275450f000000000017a9146c70bf099c5e7ca359df7b2dfee79b1e7358fc5b87d8830400000000001976a914473c0fbbc5633a346fecb03f2dd37a4f3578f1fb88ac0247304402202718f3583687b3acc22a8af53a87a19e7b0a663856318597e8447993aaa953a602205d569a4f0dac2f83cf52366ada66709bb2d8b1578df7e9633daa3f18067575320121031551363f207abefa18f01a5afbb1b8050d7aab6d505ceb3b00175b5004ce581b02483045022100f53ba4f5daff528f8fd4b90161800a007dfc01cc1dcbc9dc108a3411ebe6521d0220116b369c95940d7eb6be32578a86bfc13a15fdad394d3b312685a4283876907b012102e567b5315f2ee419f69abc4b39af7d3d9a6fc5e43df554fa43719d17ae907d21024730440220494d4fc5842aaebbe16dd08abed2c408681a03aba8c13904dd1a15004bb4f80f0220733f2bee4f63165707188ce7d9a0f7aaf3a02a1f5bb0871e164705b264965896012102a76df9440ee2bb2e162d130fc64434283c2d08d66dac97e9230623f2d3c76ec40b490800", "vin": [{"txinwitness": ["304402202718f3583687b3acc22a8af53a87a19e7b0a663856318597e8447993aaa953a602205d569a4f0dac2f83cf52366ada66709bb2d8b1578df7e9633daa3f180675753201", "031551363f207abefa18f01a5afbb1b8050d7aab6d505ceb3b00175b5004ce581b"], "sequence": 4294967294, "scriptSig": {"hex": "160014b81e13732b65ed3b76fc340241371e14316f5eee", "asm": "0014b81e13732b65ed3b76fc340241371e14316f5eee"}, "vout": 0, "txid": "5010c0ac6fa34707f903f33d456551c6e974f97a4d5692d74637bf9a33abc04b"}, {"txinwitness": ["3045022100f53ba4f5daff528f8fd4b90161800a007dfc01cc1dcbc9dc108a3411ebe6521d0220116b369c95940d7eb6be32578a86bfc13a15fdad394d3b312685a4283876907b01", "02e567b5315f2ee419f69abc4b39af7d3d9a6fc5e43df554fa43719d17ae907d21"], "sequence": 4294967294, "scriptSig": {"hex": "16001464a7ead5e847b88b22fd52dc3a7a259f1604c9ce", "asm": "001464a7ead5e847b88b22fd52dc3a7a259f1604c9ce"}, "vout": 0, "txid": "453d362d1bd4739167bab19d165f50bb75d20aa1923c6cb96f7810f8bae7b08a"}, {"txinwitness": ["30440220494d4fc5842aaebbe16dd08abed2c408681a03aba8c13904dd1a15004bb4f80f0220733f2bee4f63165707188ce7d9a0f7aaf3a02a1f5bb0871e164705b26496589601", "02a76df9440ee2bb2e162d130fc64434283c2d08d66dac97e9230623f2d3c76ec4"], "sequence": 4294967294, "scriptSig": {"hex": "16001447effd7fa2ea5fba0eeabc05ec5284985fcd5129", "asm": "001447effd7fa2ea5fba0eeabc05ec5284985fcd5129"}, "vout": 1, "txid": "a0d19cdf7c1315da278c87c19c1862c3d48d4ab7e90e78d950ead7f4edacdd8c"}], "txid": "52b45d69f7271aa5d6a51bb2d8d7e6c972dc6d10160cfc92539238374596e244", "blocktime": 1537869901, "version": 2, "confirmations": 11524, "time": 1537869901, "locktime": 542987, "vsize": 349, "size": 592}