{"hash": "52b5e76a4b4cc09f15e3a323616ad181461a5a8cbdfb031d4a291965cb829a77", "blockhash": "0000000000000000001f0ddff1eddb255c1121bcd4da4f1bc9a0da00cae72433", "vout": [{"scriptPubKey": {"reqSigs": 1, "hex": "a9141d8bcd82a7ae4d79609381242077b182421fadb387", "addresses": ["34PEzmqk8i3dA8aNSRH6J7LXC1ZxCBF47S"], "asm": "OP_HASH160 1d8bcd82a7ae4d79609381242077b182421fadb3 OP_EQUAL", "type": "scripthash"}, "value": 0.02032546, "n": 0}, {"scriptPubKey": {"reqSigs": 1, "hex": "0014e8ad9c07ec4d0aa3acdebbc00eec900535ac79bc", "addresses": ["bc1qazkecplvf5928tx7h0qqamysq566c7duza9xvl"], "asm": "0 e8ad9c07ec4d0aa3acdebbc00eec900535ac79bc", "type": "witness_v0_keyhash"}, "value": 0.00019037, "n": 1}], "hex": "01000000010d3988778ebde01363f3fa7c70a733a355ccbdc3a18283761612b2fd05d24f23450000006a473044022021393b4b704dde50cafdd76d93c8e48dceed3b468a7077547512a3aa1ba19567022056e0c197f26fb46ca3cb6d4d9016567347b6898f580bde511001487b007090340121023bbeb9d216f093b3a24c6dc0dd0070709b9d81b03d6b0d99db56602c73660434ffffffff02a2031f000000000017a9141d8bcd82a7ae4d79609381242077b182421fadb3875d4a000000000000160014e8ad9c07ec4d0aa3acdebbc00eec900535ac79bc00000000", "vin": [{"sequence": 4294967295, "scriptSig": {"hex": "473044022021393b4b704dde50cafdd76d93c8e48dceed3b468a7077547512a3aa1ba19567022056e0c197f26fb46ca3cb6d4d9016567347b6898f580bde511001487b007090340121023bbeb9d216f093b3a24c6dc0dd0070709b9d81b03d6b0d99db56602c73660434", "asm": "3044022021393b4b704dde50cafdd76d93c8e48dceed3b468a7077547512a3aa1ba19567022056e0c197f26fb46ca3cb6d4d9016567347b6898f580bde511001487b00709034[ALL] 023bbeb9d216f093b3a24c6dc0dd0070709b9d81b03d6b0d99db56602c73660434"}, "vout": 69, "txid": "234fd205fdb21216768382a1c3bdcc55a333a7707cfaf36313e0bd8e7788390d"}], "txid": "52b5e76a4b4cc09f15e3a323616ad181461a5a8cbdfb031d4a291965cb829a77", "blocktime": 1537872018, "version": 1, "confirmations": 11489, "time": 1537872018, "locktime": 0, "vsize": 220, "size": 220}