{"hash": "52b7dbe7ca77fa92e7891e4e8add4e1b0c45e6f7c6497e18d5d291671c0afd88", "blockhash": "0000000000000000001f76057863aec43deb6fa401d9628bb513d65a8098bfab", "vout": [{"scriptPubKey": {"reqSigs": 1, "hex": "76a914cb2f5d4d08f8b9ee2e1d0c241e267b97c8227c2b88ac", "addresses": ["1KXLut97TUwx8zna57GVEZ9LRkgwuNAwhp"], "asm": "OP_DUP OP_HASH160 cb2f5d4d08f8b9ee2e1d0c241e267b97c8227c2b OP_EQUALVERIFY OP_CHECKSIG", "type": "pubkeyhash"}, "value": 0.01286683, "n": 0}, {"scriptPubKey": {"reqSigs": 1, "hex": "76a91408f603d4a9d30098e15df85d7c32906d75477d3888ac", "addresses": ["1pP7xLEBjeu5pscuJMEJbZ5Dhp8qTigWd"], "asm": "OP_DUP OP_HASH160 08f603d4a9d30098e15df85d7c32906d75477d38 OP_EQUALVERIFY OP_CHECKSIG", "type": "pubkeyhash"}, "value": 0.13824023, "n": 1}], "hex": "0200000001b914c3bb5423c50fc3373ef75b52796782d1a0634db8dfedbf435cc6bd689e4b010000006b483045022100d1e583c4de2fd8a6896259c8c118c7b6d7c1211eed48865b934f92269f744b640220408d9390e8ed102ad5ade351c546f967b21414396ed47c7361d3dbdd3d49307f012103f8c69249e36b70430e33bbaafe2901ef152ad91e8575e226033e908bf219e93ffeffffff021ba21300000000001976a914cb2f5d4d08f8b9ee2e1d0c241e267b97c8227c2b88ac17f0d200000000001976a91408f603d4a9d30098e15df85d7c32906d75477d3888ac13490800", "vin": [{"sequence": 4294967294, "scriptSig": {"hex": "483045022100d1e583c4de2fd8a6896259c8c118c7b6d7c1211eed48865b934f92269f744b640220408d9390e8ed102ad5ade351c546f967b21414396ed47c7361d3dbdd3d49307f012103f8c69249e36b70430e33bbaafe2901ef152ad91e8575e226033e908bf219e93f", "asm": "3045022100d1e583c4de2fd8a6896259c8c118c7b6d7c1211eed48865b934f92269f744b640220408d9390e8ed102ad5ade351c546f967b21414396ed47c7361d3dbdd3d49307f[ALL] 03f8c69249e36b70430e33bbaafe2901ef152ad91e8575e226033e908bf219e93f"}, "vout": 1, "txid": "4b9e68bdc65c43bfeddfb84d63a0d1826779525bf73e37c30fc52354bbc314b9"}], "txid": "52b7dbe7ca77fa92e7891e4e8add4e1b0c45e6f7c6497e18d5d291671c0afd88", "blocktime": 1537873891, "version": 2, "confirmations": 11478, "time": 1537873891, "locktime": 542995, "vsize": 226, "size": 226}