{"hash": "ad713e1d5fa09afbd0911f5cf65a0e6e7af7ca517864a2a98a908aeeeb9d6581", "blockhash": "0000000000000000001f0ddff1eddb255c1121bcd4da4f1bc9a0da00cae72433", "vout": [{"scriptPubKey": {"reqSigs": 1, "hex": "00148b80473f7cfb5b90a0e30d3457af0f480a89aea5", "addresses": ["bc1q3wqyw0mulddepg8rp5690tc0fq9gnt490er55k"], "asm": "0 8b80473f7cfb5b90a0e30d3457af0f480a89aea5", "type": "witness_v0_keyhash"}, "value": 1.357e-05, "n": 0}, {"scriptPubKey": {"reqSigs": 1, "hex": "a914a13b2bd95e2fbca9c0396621106c162d609d3d5487", "addresses": ["3GPXbioCGhaDrgAgkWDkgtF3Fb5RkB8LrD"], "asm": "OP_HASH160 a13b2bd95e2fbca9c0396621106c162d609d3d54 OP_EQUAL", "type": "scripthash"}, "value": 0.00034, "n": 1}], "hex": "01000000000101215c8e0d29cb3e05ed494c234e7002858c6b9337811f817ed272ddd090b4a9f30000000000ffffffff024d050000000000001600148b80473f7cfb5b90a0e30d3457af0f480a89aea5d08400000000000017a914a13b2bd95e2fbca9c0396621106c162d609d3d5487024830450221008298a3a3eee4cd3ab8e8b2ff1114d7f647d8b1848cb304c80ebcbf96ef7e49ab02204e55af1b45d57be6fe641004a712199d6d4646ac9a54dc7bd43c9de06f44f24c0121032b78c2271405715a0e4da116497d75c67ca3c6c5a505b31a982f586cebf363f800000000", "vin": [{"txinwitness": ["30450221008298a3a3eee4cd3ab8e8b2ff1114d7f647d8b1848cb304c80ebcbf96ef7e49ab02204e55af1b45d57be6fe641004a712199d6d4646ac9a54dc7bd43c9de06f44f24c01", "032b78c2271405715a0e4da116497d75c67ca3c6c5a505b31a982f586cebf363f8"], "sequence": 4294967295, "scriptSig": {"hex": "", "asm": ""}, "vout": 0, "txid": "f3a9b490d0dd72d27e811f8137936b8c8502704e234c49ed053ecb290d8e5c21"}], "txid": "52b87fadc7e648d084e70393768fef909259f8a19b234f8c57867159935c8dd5", "blocktime": 1537872018, "version": 1, "confirmations": 11489, "time": 1537872018, "locktime": 0, "vsize": 142, "size": 224}