{"hash": "52bf6e9527ca18f4d2f5112b9a78686d7b3076855f85651add3e2be0e771e02d", "blockhash": "0000000000000000001e0dab787dd257d1dbfcb92a98c2207d5e1078be1f4165", "vout": [{"scriptPubKey": {"reqSigs": 1, "hex": "76a914a331d8238ca22f2359ea28bfa59de2683360423688ac", "addresses": ["1FstrWcMzH4ufMWndG4LGN9UkFyzsp4sUX"], "asm": "OP_DUP OP_HASH160 a331d8238ca22f2359ea28bfa59de26833604236 OP_EQUALVERIFY OP_CHECKSIG", "type": "pubkeyhash"}, "value": 0.11357496, "n": 0}, {"scriptPubKey": {"reqSigs": 1, "hex": "76a914bd60366b561d314be7dedab09ac2858327ee119a88ac", "addresses": ["1JGKyDvmCG17SwmYx4S4UjLqaBAMhbuUPV"], "asm": "OP_DUP OP_HASH160 bd60366b561d314be7dedab09ac2858327ee119a OP_EQUALVERIFY OP_CHECKSIG", "type": "pubkeyhash"}, "value": 0.002619, "n": 1}], "hex": "010000000178e31cfca95e73063d6d8f5fe5704855657e7ab1d47a732bf41107009d733750010000006a47304402202ab49a112d9d61fc140acd0f6a84118b794ce287c309ec0e75405da8dff5bacd0220552333ee93f6095c1216427e91d14baf5ea7dbacdff4c6eb03a99d6560b01b9f01210232d4ec09be2cf81de73ebf920d771c02f9bb51695fa331d7ba77dde2241d84b4ffffffff02384dad00000000001976a914a331d8238ca22f2359ea28bfa59de2683360423688ac0cff0300000000001976a914bd60366b561d314be7dedab09ac2858327ee119a88ac00000000", "vin": [{"sequence": 4294967295, "scriptSig": {"hex": "47304402202ab49a112d9d61fc140acd0f6a84118b794ce287c309ec0e75405da8dff5bacd0220552333ee93f6095c1216427e91d14baf5ea7dbacdff4c6eb03a99d6560b01b9f01210232d4ec09be2cf81de73ebf920d771c02f9bb51695fa331d7ba77dde2241d84b4", "asm": "304402202ab49a112d9d61fc140acd0f6a84118b794ce287c309ec0e75405da8dff5bacd0220552333ee93f6095c1216427e91d14baf5ea7dbacdff4c6eb03a99d6560b01b9f[ALL] 0232d4ec09be2cf81de73ebf920d771c02f9bb51695fa331d7ba77dde2241d84b4"}, "vout": 1, "txid": "5037739d000711f42b737ad4b17a7e65554870e55f8f6d3d06735ea9fc1ce378"}], "txid": "52bf6e9527ca18f4d2f5112b9a78686d7b3076855f85651add3e2be0e771e02d", "blocktime": 1537872475, "version": 1, "confirmations": 11486, "time": 1537872475, "locktime": 0, "vsize": 225, "size": 225}