{"hash": "52cb2d28d80a81cf42155daeea0efc2481263b29c7f62a880579701e253a335b", "blockhash": "0000000000000000000e13cef7c366c0283d82e591d1acd082e914b08063cdf1", "vout": [{"scriptPubKey": {"type": "nulldata", "hex": "6a146f6d6e69000000000000001f0000000ba43b7400", "asm": "OP_RETURN 6f6d6e69000000000000001f0000000ba43b7400"}, "value": 0.0, "n": 0}, {"scriptPubKey": {"reqSigs": 1, "hex": "76a91488d924f51033b74a895863a5fb57fd545529df7d88ac", "addresses": ["1DUb2YYbQA1jjaNYzVXLZ7ZioEhLXtbUru"], "asm": "OP_DUP OP_HASH160 88d924f51033b74a895863a5fb57fd545529df7d OP_EQUALVERIFY OP_CHECKSIG", "type": "pubkeyhash"}, "value": 1.0536445, "n": 1}, {"scriptPubKey": {"reqSigs": 1, "hex": "76a91481fed734fa677267c4d85c38a6b695501b9690ae88ac", "addresses": ["1CrMTPLKNFyF7F7MyY4AHJQgRLtqQcXG4n"], "asm": "OP_DUP OP_HASH160 81fed734fa677267c4d85c38a6b695501b9690ae OP_EQUALVERIFY OP_CHECKSIG", "type": "pubkeyhash"}, "value": 5.46e-06, "n": 2}], "hex": "01000000016c513aae6de92af0d2548c5a14c5977e2a65cd28ed79806d4bba32dffbf15d15010000006a473044022007ac5578972fb58d8afb1fb8360399a57fcff718d96a576a5e060b0fb3fbe57002201aa739fbf92eee9df365a711a303ba3d4b3ee0267f55a4692a263c3de94214070121030888863fcb4cdf5b7d33b40e613af35df8f39d576e7972238b0d396cd3fcc3f2feffffff030000000000000000166a146f6d6e69000000000000001f0000000ba43b7400e2bb4706000000001976a91488d924f51033b74a895863a5fb57fd545529df7d88ac22020000000000001976a91481fed734fa677267c4d85c38a6b695501b9690ae88ac10490800", "vin": [{"sequence": 4294967294, "scriptSig": {"hex": "473044022007ac5578972fb58d8afb1fb8360399a57fcff718d96a576a5e060b0fb3fbe57002201aa739fbf92eee9df365a711a303ba3d4b3ee0267f55a4692a263c3de94214070121030888863fcb4cdf5b7d33b40e613af35df8f39d576e7972238b0d396cd3fcc3f2", "asm": "3044022007ac5578972fb58d8afb1fb8360399a57fcff718d96a576a5e060b0fb3fbe57002201aa739fbf92eee9df365a711a303ba3d4b3ee0267f55a4692a263c3de9421407[ALL] 030888863fcb4cdf5b7d33b40e613af35df8f39d576e7972238b0d396cd3fcc3f2"}, "vout": 1, "txid": "155df1fbdf32ba4b6d8079ed28cd652a7e97c5145a8c54d2f02ae96dae3a516c"}], "txid": "52cb2d28d80a81cf42155daeea0efc2481263b29c7f62a880579701e253a335b", "blocktime": 1537871767, "version": 1, "confirmations": 11490, "time": 1537871767, "locktime": 542992, "vsize": 256, "size": 256}