{"hash": "4cb3c57bb8ef6125e5b6b80c24867aa5ebe449d2650dd92311c147173136ea41", "blockhash": "0000000000000000000e13cef7c366c0283d82e591d1acd082e914b08063cdf1", "vout": [{"scriptPubKey": {"reqSigs": 1, "hex": "76a91462f9a19bb360a0c3c690c954a73ac93b0defb7bb88ac", "addresses": ["1A2LGV8JrkBhHwfUaMMLy55eF2uQ2wYnWE"], "asm": "OP_DUP OP_HASH160 62f9a19bb360a0c3c690c954a73ac93b0defb7bb OP_EQUALVERIFY OP_CHECKSIG", "type": "pubkeyhash"}, "value": 0.010561, "n": 0}, {"scriptPubKey": {"reqSigs": 1, "hex": "0014ced928023ebd24338f22e85b16f1dfede8fa40ec", "addresses": ["bc1qemvjsq37h5jr8rezapd3duwlah505s8vtm4xay"], "asm": "0 ced928023ebd24338f22e85b16f1dfede8fa40ec", "type": "witness_v0_keyhash"}, "value": 0.56838686, "n": 1}], "hex": "0100000000010175d2f4e259981b475ad203689dcbabe584fc04a83b1ec2adac15fa0191e9f1790100000000ffffffff02641d1000000000001976a91462f9a19bb360a0c3c690c954a73ac93b0defb7bb88ac1e4a630300000000160014ced928023ebd24338f22e85b16f1dfede8fa40ec0247304402206160e94afa120c6571b4379beeddde875b7d093e46a987800ec4ccc6a0c4792b022058e4797f673c5e1e29d5a744845e9cfb2334d7e4341dfb4b4209196e170bb3f7012103eca77c028102d5face6d6231cce59555029112f3887e6f65232e0c5cb0ca592b00000000", "vin": [{"txinwitness": ["304402206160e94afa120c6571b4379beeddde875b7d093e46a987800ec4ccc6a0c4792b022058e4797f673c5e1e29d5a744845e9cfb2334d7e4341dfb4b4209196e170bb3f701", "03eca77c028102d5face6d6231cce59555029112f3887e6f65232e0c5cb0ca592b"], "sequence": 4294967295, "scriptSig": {"hex": "", "asm": ""}, "vout": 1, "txid": "79f1e99101fa15acadc21e3ba804fc84e5abcb9d6803d25a471b9859e2f4d275"}], "txid": "52cefb9a13191e7d244d44f8f9e14e7cbdd58ca734caf98f4df124f02c320b2c", "blocktime": 1537871767, "version": 1, "confirmations": 11495, "time": 1537871767, "locktime": 0, "vsize": 144, "size": 225}