{"hash": "52d0b579dbf7c0e183c53608eeef7f2ac88c521b53586318947a53a7de8e5ccb", "blockhash": "0000000000000000000baef3f32e3676a92c3b2e5da21b426e4f302fc371ce76", "vout": [{"scriptPubKey": {"type": "nulldata", "hex": "6a146f6d6e69000000000000001f00000002a10e3f00", "asm": "OP_RETURN 6f6d6e69000000000000001f00000002a10e3f00"}, "value": 0.0, "n": 0}, {"scriptPubKey": {"reqSigs": 1, "hex": "76a91458f32143a95cd11ee5f37e5d1dff6f9fbafa660b88ac", "addresses": ["197Kir2psnjrTFwx8R9cUnmVCUFeUgCNxS"], "asm": "OP_DUP OP_HASH160 58f32143a95cd11ee5f37e5d1dff6f9fbafa660b OP_EQUALVERIFY OP_CHECKSIG", "type": "pubkeyhash"}, "value": 0.91690011, "n": 1}, {"scriptPubKey": {"reqSigs": 1, "hex": "76a914a8ff47841bf5a7ad0dcf43115e9720970085bbe788ac", "addresses": ["1GQaLMCuV8tnLhFaqL7taRNk67dNEmuTC2"], "asm": "OP_DUP OP_HASH160 a8ff47841bf5a7ad0dcf43115e9720970085bbe7 OP_EQUALVERIFY OP_CHECKSIG", "type": "pubkeyhash"}, "value": 5.46e-06, "n": 2}], "hex": "01000000011b8b720c30c1259f5c9b05dc02799b433d53a30fb474711c6e36d64b3247a931000000006a4730440220215949ea75a9693efac1cff62e548efe272d6bf2b7c33c62a720946b7fceec9902206fa17ed30a34f088756f596bba6427abcb7b24c8cfdd42cda469e41723b2730f01210251e12972b557d5dbac73bfd2470adeac64ac46202389f0ef2db7231f645a0aeafeffffff030000000000000000166a146f6d6e69000000000000001f00000002a10e3f001b147705000000001976a91458f32143a95cd11ee5f37e5d1dff6f9fbafa660b88ac22020000000000001976a914a8ff47841bf5a7ad0dcf43115e9720970085bbe788ac16490800", "vin": [{"sequence": 4294967294, "scriptSig": {"hex": "4730440220215949ea75a9693efac1cff62e548efe272d6bf2b7c33c62a720946b7fceec9902206fa17ed30a34f088756f596bba6427abcb7b24c8cfdd42cda469e41723b2730f01210251e12972b557d5dbac73bfd2470adeac64ac46202389f0ef2db7231f645a0aea", "asm": "30440220215949ea75a9693efac1cff62e548efe272d6bf2b7c33c62a720946b7fceec9902206fa17ed30a34f088756f596bba6427abcb7b24c8cfdd42cda469e41723b2730f[ALL] 0251e12972b557d5dbac73bfd2470adeac64ac46202389f0ef2db7231f645a0aea"}, "vout": 0, "txid": "31a947324bd6366e1c7174b40fa3533d439b7902dc059b5c9f25c1300c728b1b"}], "txid": "52d0b579dbf7c0e183c53608eeef7f2ac88c521b53586318947a53a7de8e5ccb", "blocktime": 1537876114, "version": 1, "confirmations": 11460, "time": 1537876114, "locktime": 542998, "vsize": 256, "size": 256}