{"hash": "f446053704f9f8566e8825f8186e9b3d79588e3ae2ffef4c4f30451787fd44ef", "blockhash": "0000000000000000000baef3f32e3676a92c3b2e5da21b426e4f302fc371ce76", "vout": [{"scriptPubKey": {"reqSigs": 1, "hex": "a914df36bd7700e9b28e649f063c74e7c3fd6dca252287", "addresses": ["3N3GBjKs6jxemTGzAH9tKbQBQtw2oJLHCn"], "asm": "OP_HASH160 df36bd7700e9b28e649f063c74e7c3fd6dca2522 OP_EQUAL", "type": "scripthash"}, "value": 0.01137959, "n": 0}, {"scriptPubKey": {"reqSigs": 1, "hex": "a914f7d5aceb5f9bb821a48c9ba4515e8c670b77b43d87", "addresses": ["3QHSoMh5BSi4AJfdCehms6pcSjbEmzB15E"], "asm": "OP_HASH160 f7d5aceb5f9bb821a48c9ba4515e8c670b77b43d OP_EQUAL", "type": "scripthash"}, "value": 0.00214294, "n": 1}], "hex": "02000000000102126f28056a6acaf12d19756c24f0e08d6a04b81123b4be8c1f979a6d6640340b0000000017160014328c5d556d034303fed8e73b544600a4af563dfcfeffffffd13733bd37d5e3e7169343e565ba24505617655663a4c06c9d6bccb3be73d11e0f000000171600144b32062a415922e404ce90aa19d2cb415540a940feffffff02275d11000000000017a914df36bd7700e9b28e649f063c74e7c3fd6dca252287164503000000000017a914f7d5aceb5f9bb821a48c9ba4515e8c670b77b43d8702473044022061ab8a7692ef2f9089c8f5bc36e65fe78627c50dd0c8727fc0540664db3d539c02204548278c6a64d14256a4e55dad3e84be0b6e3b221133a1ed2b8dc2de4e26bbc701210308ab5d7ce0f76bdd55e3a7877d94b52640619a1e8feb4c4c811338c2b21a0d820247304402206fb567a95701a74f3fb3cfd24babbd6c233b5ef4cf4389402192f3ef66f2528e02201732c90ae748e0478a8f5e3f90dbf9c695ef6ebe31face7bb099dd71de7e0cdc012102968d342e18ca563e4e0d7fa4f2ec4109ae71cf9745d161b111ee94cf1e6a1d0617490800", "vin": [{"txinwitness": ["3044022061ab8a7692ef2f9089c8f5bc36e65fe78627c50dd0c8727fc0540664db3d539c02204548278c6a64d14256a4e55dad3e84be0b6e3b221133a1ed2b8dc2de4e26bbc701", "0308ab5d7ce0f76bdd55e3a7877d94b52640619a1e8feb4c4c811338c2b21a0d82"], "sequence": 4294967294, "scriptSig": {"hex": "160014328c5d556d034303fed8e73b544600a4af563dfc", "asm": "0014328c5d556d034303fed8e73b544600a4af563dfc"}, "vout": 0, "txid": "0b3440666d9a971f8cbeb42311b8046a8de0f0246c75192df1ca6a6a05286f12"}, {"txinwitness": ["304402206fb567a95701a74f3fb3cfd24babbd6c233b5ef4cf4389402192f3ef66f2528e02201732c90ae748e0478a8f5e3f90dbf9c695ef6ebe31face7bb099dd71de7e0cdc01", "02968d342e18ca563e4e0d7fa4f2ec4109ae71cf9745d161b111ee94cf1e6a1d06"], "sequence": 4294967294, "scriptSig": {"hex": "1600144b32062a415922e404ce90aa19d2cb415540a940", "asm": "00144b32062a415922e404ce90aa19d2cb415540a940"}, "vout": 15, "txid": "1ed173beb3cc6b9d6cc0a463566517565024ba65e5439316e7e3d537bd3337d1"}], "txid": "52d2d4226f9c552cc2fb800279186cc76ee251acc7c6b8fe7c53dfa6ec4b4304", "blocktime": 1537876114, "version": 2, "confirmations": 11461, "time": 1537876114, "locktime": 542999, "vsize": 256, "size": 418}