{"hash": "52d351760fe554c8b2f5df465c3575fb75ea652bbd39ac9c6f4fb2e01b62c06b", "blockhash": "00000000000000000018f53835495a110e01622372bf6ae95dc86f2b0ab887b0", "vout": [{"scriptPubKey": {"reqSigs": 1, "hex": "76a914ce83ed4a18648172b9fcb369d46b388956effc4488ac", "addresses": ["1KpxExf6bWmHfwgnj43uRQ6zJsjkQ8zz2o"], "asm": "OP_DUP OP_HASH160 ce83ed4a18648172b9fcb369d46b388956effc44 OP_EQUALVERIFY OP_CHECKSIG", "type": "pubkeyhash"}, "value": 0.27198208, "n": 0}], "hex": "0100000002ad25acc166158a7738c3b166e14ed53aec85d355052ab09ea23925d6229a7d621a0000006b483045022100801a8dcea5fc66acadbcfb66ac3f95e0af2909e650656f6ea1a9d63cfd64db2402206f2e4283b6e344609a72d356ca999e0b186591006f21342ab3a83f848c864e23012103f32cad10374c194553427e11ff68127306094aba3754a886734dbca6c1bf9016feffffff1cc62e638225246ba535ec1e0558677e807f5b7079b32bc41193faa4078d4a720b0000006b48304502210092e8f5bbbd01e0d2289812e55b8d361a45480331cd8110db4cfaa8b4bc810e8502201b66a48423744edcbbc68a7f9aed652809f99212fb8f1719d7da3579ba1abd8d01210236360b229814cd0155ac36434ca16d4843a7a3073119b7dcb3699c00fabbb196feffffff0100039f01000000001976a914ce83ed4a18648172b9fcb369d46b388956effc4488ac0e490800", "vin": [{"sequence": 4294967294, "scriptSig": {"hex": "483045022100801a8dcea5fc66acadbcfb66ac3f95e0af2909e650656f6ea1a9d63cfd64db2402206f2e4283b6e344609a72d356ca999e0b186591006f21342ab3a83f848c864e23012103f32cad10374c194553427e11ff68127306094aba3754a886734dbca6c1bf9016", "asm": "3045022100801a8dcea5fc66acadbcfb66ac3f95e0af2909e650656f6ea1a9d63cfd64db2402206f2e4283b6e344609a72d356ca999e0b186591006f21342ab3a83f848c864e23[ALL] 03f32cad10374c194553427e11ff68127306094aba3754a886734dbca6c1bf9016"}, "vout": 26, "txid": "627d9a22d62539a29eb02a0555d385ec3ad54ee166b1c338778a1566c1ac25ad"}, {"sequence": 4294967294, "scriptSig": {"hex": "48304502210092e8f5bbbd01e0d2289812e55b8d361a45480331cd8110db4cfaa8b4bc810e8502201b66a48423744edcbbc68a7f9aed652809f99212fb8f1719d7da3579ba1abd8d01210236360b229814cd0155ac36434ca16d4843a7a3073119b7dcb3699c00fabbb196", "asm": "304502210092e8f5bbbd01e0d2289812e55b8d361a45480331cd8110db4cfaa8b4bc810e8502201b66a48423744edcbbc68a7f9aed652809f99212fb8f1719d7da3579ba1abd8d[ALL] 0236360b229814cd0155ac36434ca16d4843a7a3073119b7dcb3699c00fabbb196"}, "vout": 11, "txid": "724a8d07a4fa9311c42bb379705b7f807e6758051eec35a56b242582632ec61c"}], "txid": "52d351760fe554c8b2f5df465c3575fb75ea652bbd39ac9c6f4fb2e01b62c06b", "blocktime": 1537870928, "version": 1, "confirmations": 11512, "time": 1537870928, "locktime": 542990, "vsize": 340, "size": 340}