{"hash": "52d64103623233364071a33964ab94e54ab6ef2806ec234974994667c9d51d87", "blockhash": "000000000000000000022b45ed06c6f4ccd3cf7fb5ba4856ebd2e58215665228", "vout": [{"scriptPubKey": {"type": "nulldata", "hex": "6a146f6d6e69000000000000001f0000004827ea343b", "asm": "OP_RETURN 6f6d6e69000000000000001f0000004827ea343b"}, "value": 0.0, "n": 0}, {"scriptPubKey": {"reqSigs": 1, "hex": "76a914a25dec4d0011064ef106a983c39c7a540699f22088ac", "addresses": ["1FoWyxwPXuj4C6abqwhjDWdz6D4PZgYRjA"], "asm": "OP_DUP OP_HASH160 a25dec4d0011064ef106a983c39c7a540699f220 OP_EQUALVERIFY OP_CHECKSIG", "type": "pubkeyhash"}, "value": 5.46e-06, "n": 1}, {"scriptPubKey": {"reqSigs": 1, "hex": "76a91437d6fd9d73edd9926a7a1aae4fedf4beb6b909f488ac", "addresses": ["166FiNBjfTEdLMzEi1qV6E3JtwWZ88upGa"], "asm": "OP_DUP OP_HASH160 37d6fd9d73edd9926a7a1aae4fedf4beb6b909f4 OP_EQUALVERIFY OP_CHECKSIG", "type": "pubkeyhash"}, "value": 0.40519762, "n": 2}], "hex": "01000000022c909850b2e4dd0f3f5a320ace07c9518fa856b066368641543d38a4316debae020000006b483045022100a891cf386359faefa8ee842ec1f32433ce9b6d14fef6d47a8e63709c2a9cde6f02202e8d31e9d8f7205e50b579c17c1e1be46b745cd44af71cae89574617a6a7c7f2012103be8641424faa4d4bc4a9c3d8302445528a6e356dad6f28ed5a65069995985362feffffffb534cd3cf711e2b0d1bce48a6443421c15f4ee5d4a91bd0bc7e26d858013534a000000006a47304402200f3b2b62c4e15be07f3de87fe4e22d458c246162fea61c163b8900ee60fbff2b02205a0e465616cbafc2b99311edf402495cb2c93661f63be9d584e4e42e6b0604db012103be8641424faa4d4bc4a9c3d8302445528a6e356dad6f28ed5a65069995985362feffffff030000000000000000166a146f6d6e69000000000000001f0000004827ea343b22020000000000001976a914a25dec4d0011064ef106a983c39c7a540699f22088ac52486a02000000001976a91437d6fd9d73edd9926a7a1aae4fedf4beb6b909f488ac0b490800", "vin": [{"sequence": 4294967294, "scriptSig": {"hex": "483045022100a891cf386359faefa8ee842ec1f32433ce9b6d14fef6d47a8e63709c2a9cde6f02202e8d31e9d8f7205e50b579c17c1e1be46b745cd44af71cae89574617a6a7c7f2012103be8641424faa4d4bc4a9c3d8302445528a6e356dad6f28ed5a65069995985362", "asm": "3045022100a891cf386359faefa8ee842ec1f32433ce9b6d14fef6d47a8e63709c2a9cde6f02202e8d31e9d8f7205e50b579c17c1e1be46b745cd44af71cae89574617a6a7c7f2[ALL] 03be8641424faa4d4bc4a9c3d8302445528a6e356dad6f28ed5a65069995985362"}, "vout": 2, "txid": "aeeb6d31a4383d5441863666b056a88f51c907ce0a325a3f0fdde4b25098902c"}, {"sequence": 4294967294, "scriptSig": {"hex": "47304402200f3b2b62c4e15be07f3de87fe4e22d458c246162fea61c163b8900ee60fbff2b02205a0e465616cbafc2b99311edf402495cb2c93661f63be9d584e4e42e6b0604db012103be8641424faa4d4bc4a9c3d8302445528a6e356dad6f28ed5a65069995985362", "asm": "304402200f3b2b62c4e15be07f3de87fe4e22d458c246162fea61c163b8900ee60fbff2b02205a0e465616cbafc2b99311edf402495cb2c93661f63be9d584e4e42e6b0604db[ALL] 03be8641424faa4d4bc4a9c3d8302445528a6e356dad6f28ed5a65069995985362"}, "vout": 0, "txid": "4a531380856de2c70bbd914a5deef4151c4243648ae4bcd1b0e211f73ccd34b5"}], "txid": "52d64103623233364071a33964ab94e54ab6ef2806ec234974994667c9d51d87", "blocktime": 1537869901, "version": 1, "confirmations": 11524, "time": 1537869901, "locktime": 542987, "vsize": 404, "size": 404}