{"hash": "52dfd84f3866550a291a1a9c83cd3d886094619e61f9dc6c2d15abda44e9d2d1", "blockhash": "00000000000000000018f53835495a110e01622372bf6ae95dc86f2b0ab887b0", "vout": [{"scriptPubKey": {"reqSigs": 1, "hex": "76a914a732fdfa3ebd8e9c937551790142bd6bce2f3f6888ac", "addresses": ["1GF4w2g9fyuyWFLbFLBe3yeJ6jvaThtBvi"], "asm": "OP_DUP OP_HASH160 a732fdfa3ebd8e9c937551790142bd6bce2f3f68 OP_EQUALVERIFY OP_CHECKSIG", "type": "pubkeyhash"}, "value": 0.01313409, "n": 0}, {"scriptPubKey": {"reqSigs": 1, "hex": "76a9145fcc5f17433223af5a1b78a3d4ff8256d884a9b888ac", "addresses": ["19jY2CfTkn19ac2hH2S9n48pnGDAXWxFpT"], "asm": "OP_DUP OP_HASH160 5fcc5f17433223af5a1b78a3d4ff8256d884a9b8 OP_EQUALVERIFY OP_CHECKSIG", "type": "pubkeyhash"}, "value": 0.14249654, "n": 1}], "hex": "0100000003f4949d58fba8ba30648a915563a3b19119020e6233504a57d1b0666ab2417c07000000006b4830450221009ee1a8eda11393ed75dbea7f33f345164ce659f6778bfcf99fd9bde3410241b6022018e208b3d8e94d73518836dcb2124adad94cf3a20d9417745d222a3e5cacce0801210200805f197f88caf8f72a500f2ad18bf76a09a8940c31a7e9003dfe2f3e81740efdffffff9f3e13f7f940f020e5713dc1fda79f98233c400ed67155545ee4f4e9572b2599000000006a473044022005eaf5de397c36f1e6a00c81aedf42e9e78d9703c8b6862b8a89716e6171b9ad02206c4195c719f8fe2d5ccba19fa877c0340c17ebd567e77c94d1d2720f1c301abf0121037766b292166c065f83f712b052db08009b6a5e04b1e727769017d878e0a5e75bfdffffff370483c295d60416f582f40ad1380a3178da0fa628588cae2e8880eccfc55de7000000006b483045022100925ef39c558f45fe778fbde911901a5dabd12397048021039938310f86c65c5b02202c17416fdb695adf58a4d0e2839b465a9fefad5940a5e9abfd47b9805387366101210364a3e3ed52d7a01f43bf55f86c044d67c5487a1e1e838466762a3fae7cba9d32fdffffff02810a1400000000001976a914a732fdfa3ebd8e9c937551790142bd6bce2f3f6888acb66ed900000000001976a9145fcc5f17433223af5a1b78a3d4ff8256d884a9b888ac0e490800", "vin": [{"sequence": 4294967293, "scriptSig": {"hex": "4830450221009ee1a8eda11393ed75dbea7f33f345164ce659f6778bfcf99fd9bde3410241b6022018e208b3d8e94d73518836dcb2124adad94cf3a20d9417745d222a3e5cacce0801210200805f197f88caf8f72a500f2ad18bf76a09a8940c31a7e9003dfe2f3e81740e", "asm": "30450221009ee1a8eda11393ed75dbea7f33f345164ce659f6778bfcf99fd9bde3410241b6022018e208b3d8e94d73518836dcb2124adad94cf3a20d9417745d222a3e5cacce08[ALL] 0200805f197f88caf8f72a500f2ad18bf76a09a8940c31a7e9003dfe2f3e81740e"}, "vout": 0, "txid": "077c41b26a66b0d1574a5033620e021991b1a36355918a6430baa8fb589d94f4"}, {"sequence": 4294967293, "scriptSig": {"hex": "473044022005eaf5de397c36f1e6a00c81aedf42e9e78d9703c8b6862b8a89716e6171b9ad02206c4195c719f8fe2d5ccba19fa877c0340c17ebd567e77c94d1d2720f1c301abf0121037766b292166c065f83f712b052db08009b6a5e04b1e727769017d878e0a5e75b", "asm": "3044022005eaf5de397c36f1e6a00c81aedf42e9e78d9703c8b6862b8a89716e6171b9ad02206c4195c719f8fe2d5ccba19fa877c0340c17ebd567e77c94d1d2720f1c301abf[ALL] 037766b292166c065f83f712b052db08009b6a5e04b1e727769017d878e0a5e75b"}, "vout": 0, "txid": "99252b57e9f4e45e545571d60e403c23989fa7fdc13d71e520f040f9f7133e9f"}, {"sequence": 4294967293, "scriptSig": {"hex": "483045022100925ef39c558f45fe778fbde911901a5dabd12397048021039938310f86c65c5b02202c17416fdb695adf58a4d0e2839b465a9fefad5940a5e9abfd47b9805387366101210364a3e3ed52d7a01f43bf55f86c044d67c5487a1e1e838466762a3fae7cba9d32", "asm": "3045022100925ef39c558f45fe778fbde911901a5dabd12397048021039938310f86c65c5b02202c17416fdb695adf58a4d0e2839b465a9fefad5940a5e9abfd47b98053873661[ALL] 0364a3e3ed52d7a01f43bf55f86c044d67c5487a1e1e838466762a3fae7cba9d32"}, "vout": 0, "txid": "e75dc5cfec80882eae8c5828a60fda78310a38d10af482f51604d695c2830437"}], "txid": "52dfd84f3866550a291a1a9c83cd3d886094619e61f9dc6c2d15abda44e9d2d1", "blocktime": 1537870928, "version": 1, "confirmations": 11514, "time": 1537870928, "locktime": 542990, "vsize": 521, "size": 521}