{"hash": "3f38811c5edb6af0b57fa7eec1b2b900bcd6bb3bd65a17925f7df80bebd92774", "blockhash": "0000000000000000000e13cef7c366c0283d82e591d1acd082e914b08063cdf1", "vout": [{"scriptPubKey": {"reqSigs": 1, "hex": "a914c0f001f690127e4d68b7045c5952f9fd38d19f7487", "addresses": ["3KHBBQB39qbpXSX4LiSkE8kYHMbu1kwj5N"], "asm": "OP_HASH160 c0f001f690127e4d68b7045c5952f9fd38d19f74 OP_EQUAL", "type": "scripthash"}, "value": 0.00226888, "n": 0}], "hex": "010000000001010c65ce242a996068497dbe7573baa8d1723dc66d74796972aac9a127ad1acf463e0000002322002050d6599c42d277ccaa11950aaa483a04d66e06ce3204706354971f96105aaae7ffffffff01487603000000000017a914c0f001f690127e4d68b7045c5952f9fd38d19f7487040047304402200ce590791d3cacd7b25c6fb63378e5ccedb9f044de7ffbb86c690ae8e9fbe9a1022022039587d3f4645e33b4f7319a4047b0076fec5e80a53ff8c8358a5ba740b0410147304402203c5ade5f5ccd3f968f66e794e15f1ef9b0a332c419844b04ab7d97af4ee26860022043211309b65a6d9d5a9c908b0edd1605ee9c24e2a2ee62c33630419d850617b80169522103ef6b5ea7ef6e4e8de76fd265c34e32b5430e3c0169f34d429f6418c017d7335421026e5c844a77ca7fc6f6987a7a5c81d399045383063625e5f0ac67e0d59175976121037f7e86c592620416d6e7cdc6432e2970d981ee7349b5fe5c9e0be2d06dcacfd853ae00000000", "vin": [{"txinwitness": ["", "304402200ce590791d3cacd7b25c6fb63378e5ccedb9f044de7ffbb86c690ae8e9fbe9a1022022039587d3f4645e33b4f7319a4047b0076fec5e80a53ff8c8358a5ba740b04101", "304402203c5ade5f5ccd3f968f66e794e15f1ef9b0a332c419844b04ab7d97af4ee26860022043211309b65a6d9d5a9c908b0edd1605ee9c24e2a2ee62c33630419d850617b801", "522103ef6b5ea7ef6e4e8de76fd265c34e32b5430e3c0169f34d429f6418c017d7335421026e5c844a77ca7fc6f6987a7a5c81d399045383063625e5f0ac67e0d59175976121037f7e86c592620416d6e7cdc6432e2970d981ee7349b5fe5c9e0be2d06dcacfd853ae"], "sequence": 4294967295, "scriptSig": {"hex": "22002050d6599c42d277ccaa11950aaa483a04d66e06ce3204706354971f96105aaae7", "asm": "002050d6599c42d277ccaa11950aaa483a04d66e06ce3204706354971f96105aaae7"}, "vout": 62, "txid": "46cf1aad27a1c9aa726979746dc63d72d1a8ba7375be7d496860992a24ce650c"}], "txid": "52e020fa753c6f6f18f967d9d553c8dfe6bcd07a0f6ecf228d2741956b89cebc", "blocktime": 1537871767, "version": 1, "confirmations": 11491, "time": 1537871767, "locktime": 0, "vsize": 182, "size": 372}