{"hash": "f7b34b0881b7a5897e22ea34d4a54275cc9e1317d92dd6c90c3a5899e34fd360", "blockhash": "0000000000000000001cda96e906b7601b7a6fb1a3b62bca570a9e5d8f4b3de1", "vout": [{"scriptPubKey": {"reqSigs": 1, "hex": "a914deb83f46ad0e899744971c2d2c3aae30ffe5a2f687", "addresses": ["3Mzeer98C7TqTYtUyvcCjgHFHEdpYnkKp6"], "asm": "OP_HASH160 deb83f46ad0e899744971c2d2c3aae30ffe5a2f6 OP_EQUAL", "type": "scripthash"}, "value": 0.01003524, "n": 0}, {"scriptPubKey": {"reqSigs": 1, "hex": "76a9148f47dc2084a5c1f1c4966c240de86b9e8ed46a5a88ac", "addresses": ["1E4biLuJ7zbkh6Frg7UwQG1Gu33hVXgu3D"], "asm": "OP_DUP OP_HASH160 8f47dc2084a5c1f1c4966c240de86b9e8ed46a5a OP_EQUALVERIFY OP_CHECKSIG", "type": "pubkeyhash"}, "value": 0.10931266, "n": 1}], "hex": "020000000001026a008b4958b8f67313b9e7d64600e028198bb5f983eaac2b4daec02406b2138300000000171600147dcde3ec5a515a1330b19ddbcf1212b5557879e5fdffffffd1b2600a17491f080f355b1fb8b51e5ad4106def4a8cb80e37679faa70a20470060000001716001446ec181b0d63f239f28d4e230f83c61430db6054fdffffff0204500f000000000017a914deb83f46ad0e899744971c2d2c3aae30ffe5a2f68742cca600000000001976a9148f47dc2084a5c1f1c4966c240de86b9e8ed46a5a88ac0247304402207122acfe76a0a625e4568234c9be93325133c3255d7d0b2b347eaebcc75105ef022026d34f071a0a0e1abbba5d19a715620df1b64162477b08a4cdda3a79d3ac2a92012102634678bbe3052f9b5526129fb559cbccff7192193a2847b7453a5e844e57eb64024730440220194b6aff81f63aef118fb7eb8c6561191c86d669c48fbdc346be09e9bcd184d502204cb3ff121ed27deb9e5d449fe68f9a2848db6013df964dc68ad440b30a547463012103b6642895968d6649ff8e1c93b884a82c422a06dfa8690fb32ada4ae84e104f7900000000", "vin": [{"txinwitness": ["304402207122acfe76a0a625e4568234c9be93325133c3255d7d0b2b347eaebcc75105ef022026d34f071a0a0e1abbba5d19a715620df1b64162477b08a4cdda3a79d3ac2a9201", "02634678bbe3052f9b5526129fb559cbccff7192193a2847b7453a5e844e57eb64"], "sequence": 4294967293, "scriptSig": {"hex": "1600147dcde3ec5a515a1330b19ddbcf1212b5557879e5", "asm": "00147dcde3ec5a515a1330b19ddbcf1212b5557879e5"}, "vout": 0, "txid": "8313b20624c0ae4d2bacea83f9b58b1928e00046d6e7b91373f6b858498b006a"}, {"txinwitness": ["30440220194b6aff81f63aef118fb7eb8c6561191c86d669c48fbdc346be09e9bcd184d502204cb3ff121ed27deb9e5d449fe68f9a2848db6013df964dc68ad440b30a54746301", "03b6642895968d6649ff8e1c93b884a82c422a06dfa8690fb32ada4ae84e104f79"], "sequence": 4294967293, "scriptSig": {"hex": "16001446ec181b0d63f239f28d4e230f83c61430db6054", "asm": "001446ec181b0d63f239f28d4e230f83c61430db6054"}, "vout": 6, "txid": "7004a270aa9f67370eb88c4aef6d10d45a1eb5b81f5b350f081f49170a60b2d1"}], "txid": "52e285cf5831d4179a45072c7234ae9c41c3a61e2434b7368ca4722e76191d90", "blocktime": 1537873282, "version": 2, "confirmations": 11484, "time": 1537873282, "locktime": 0, "vsize": 258, "size": 420}