{"hash": "a966b7c32cfd3a04735f5fd635ec77d897f7a41d093e1245b95fef3c0e72daf7", "blockhash": "0000000000000000001cda96e906b7601b7a6fb1a3b62bca570a9e5d8f4b3de1", "vout": [{"scriptPubKey": {"reqSigs": 1, "hex": "76a91468e525d5ae1a0b6fe17abe651222ed45d745831b88ac", "addresses": ["1AZdnRFLqK59FV6vAHg9GSntgXcxGn7DXn"], "asm": "OP_DUP OP_HASH160 68e525d5ae1a0b6fe17abe651222ed45d745831b OP_EQUALVERIFY OP_CHECKSIG", "type": "pubkeyhash"}, "value": 0.00056248, "n": 0}, {"scriptPubKey": {"reqSigs": 1, "hex": "a9143909ec962f0c6842a199a5afb78937aadea81ef287", "addresses": ["36tcL2BpJuA6EhBc7kpwBkW1eZhtZ87SHf"], "asm": "OP_HASH160 3909ec962f0c6842a199a5afb78937aadea81ef2 OP_EQUAL", "type": "scripthash"}, "value": 0.00223128, "n": 1}], "hex": "01000000000101baf6827f069945259c929b0aad4bc76a7f88191d05fbab2bf42b7ef35d4c651e0800000023220020c39d86306dbd54dc85e666ec19b6eadac2eca3f3512ba18580492016e49d5f13ffffffff02b8db0000000000001976a91468e525d5ae1a0b6fe17abe651222ed45d745831b88ac986703000000000017a9143909ec962f0c6842a199a5afb78937aadea81ef2870400483045022100f31b746b23187b96566d9d36847fb69e62b117c11763d254dc597e191d52db1102205ef14df72aa0757da6f114502dff889a4ae308fc55a6294cbb707b670b1a747801483045022100ec746337c2cff11363341a0811608095b3f533898abf2b8667510d1bc2f7e28202206ad8e95acc8f656864a4bc796f311f5399c05aa4beb81338efa83f11bb88f54001475221020319b262fe02e14ab54771039bbbf0877a20b9b83bb305c8722accaff4e4767d2103871fc2ca08e6950b38867e8e6a0e94ee625223d3aa0df5c65f414c6d784467e252ae00000000", "vin": [{"txinwitness": ["", "3045022100f31b746b23187b96566d9d36847fb69e62b117c11763d254dc597e191d52db1102205ef14df72aa0757da6f114502dff889a4ae308fc55a6294cbb707b670b1a747801", "3045022100ec746337c2cff11363341a0811608095b3f533898abf2b8667510d1bc2f7e28202206ad8e95acc8f656864a4bc796f311f5399c05aa4beb81338efa83f11bb88f54001", "5221020319b262fe02e14ab54771039bbbf0877a20b9b83bb305c8722accaff4e4767d2103871fc2ca08e6950b38867e8e6a0e94ee625223d3aa0df5c65f414c6d784467e252ae"], "sequence": 4294967295, "scriptSig": {"hex": "220020c39d86306dbd54dc85e666ec19b6eadac2eca3f3512ba18580492016e49d5f13", "asm": "0020c39d86306dbd54dc85e666ec19b6eadac2eca3f3512ba18580492016e49d5f13"}, "vout": 8, "txid": "1e654c5df37e2bf42babfb051d19887f6ac74bad0a9b929c254599067f82f6ba"}], "txid": "52e34c763fc1daefd147de893a5094f4ec00019fbc9223416742e4ba30c39fea", "blocktime": 1537873282, "version": 1, "confirmations": 11484, "time": 1537873282, "locktime": 0, "vsize": 208, "size": 374}