{"hash": "52e5c07aaad02685c7415ffc0db07787e0ea003616b5f48ebdc33a0b2dcdf1fa", "blockhash": "00000000000000000004ffacab907a6b429b9a5745fa0b75af4234bf69dd7176", "vout": [{"scriptPubKey": {"reqSigs": 1, "hex": "76a9142ce1c12d5967a8c09da55ffe7664293955d020e188ac", "addresses": ["156KB9QpaPPgqxKQTXinJj9K3ciSktARQo"], "asm": "OP_DUP OP_HASH160 2ce1c12d5967a8c09da55ffe7664293955d020e1 OP_EQUALVERIFY OP_CHECKSIG", "type": "pubkeyhash"}, "value": 0.05477427, "n": 0}, {"scriptPubKey": {"reqSigs": 1, "hex": "a914ca6eb0ac1859ea6409b45bc322c5e226c33546f187", "addresses": ["3L9P2BHzNeLujDncZnhYzBS9iZ9xHdhfPz"], "asm": "OP_HASH160 ca6eb0ac1859ea6409b45bc322c5e226c33546f1 OP_EQUAL", "type": "scripthash"}, "value": 0.11416384, "n": 1}], "hex": "01000000020fa4e4de089a532a21639895102cd573fb0ef431b66d37fa461775466157aa6f000000006a47304402203ab5f1a0429e93d56ab670fe3b6106c68a5f41d4ca3ff26979522d34575970c202200a7db1dc03a08ca508dd80bd1f32b6f6a9382bfb780046332804ca4317696d0801210241529b0377d7f7e10178ddc50ee1ae2b43a2867e24803b5ade8919966f989412ffffffffac268712243b1e3c134915a9e09dfeb144a8d1f2f2d17c3b1b000b423f4931ac130000006b483045022100f12e9fc2bfa9eeb55d6e4d0673be2e51cf51c28a251ff0266ae8e94869c5b3c70220443c7cce8b726ce112b1d4a23b12740170e84936a61e468d241d0eb5e42bee7a012103bb02601f147c8dc41353e227ef5d077ff4e2f15021a3fb23f710fb9bed726d46ffffffff0233945300000000001976a9142ce1c12d5967a8c09da55ffe7664293955d020e188ac4033ae000000000017a914ca6eb0ac1859ea6409b45bc322c5e226c33546f18700000000", "vin": [{"sequence": 4294967295, "scriptSig": {"hex": "47304402203ab5f1a0429e93d56ab670fe3b6106c68a5f41d4ca3ff26979522d34575970c202200a7db1dc03a08ca508dd80bd1f32b6f6a9382bfb780046332804ca4317696d0801210241529b0377d7f7e10178ddc50ee1ae2b43a2867e24803b5ade8919966f989412", "asm": "304402203ab5f1a0429e93d56ab670fe3b6106c68a5f41d4ca3ff26979522d34575970c202200a7db1dc03a08ca508dd80bd1f32b6f6a9382bfb780046332804ca4317696d08[ALL] 0241529b0377d7f7e10178ddc50ee1ae2b43a2867e24803b5ade8919966f989412"}, "vout": 0, "txid": "6faa576146751746fa376db631f40efb73d52c10959863212a539a08dee4a40f"}, {"sequence": 4294967295, "scriptSig": {"hex": "483045022100f12e9fc2bfa9eeb55d6e4d0673be2e51cf51c28a251ff0266ae8e94869c5b3c70220443c7cce8b726ce112b1d4a23b12740170e84936a61e468d241d0eb5e42bee7a012103bb02601f147c8dc41353e227ef5d077ff4e2f15021a3fb23f710fb9bed726d46", "asm": "3045022100f12e9fc2bfa9eeb55d6e4d0673be2e51cf51c28a251ff0266ae8e94869c5b3c70220443c7cce8b726ce112b1d4a23b12740170e84936a61e468d241d0eb5e42bee7a[ALL] 03bb02601f147c8dc41353e227ef5d077ff4e2f15021a3fb23f710fb9bed726d46"}, "vout": 19, "txid": "ac31493f420b001b3b7cd1f2f2d1a844b1fe9de0a91549133c1e3b24128726ac"}], "txid": "52e5c07aaad02685c7415ffc0db07787e0ea003616b5f48ebdc33a0b2dcdf1fa", "blocktime": 1537875543, "version": 1, "confirmations": 11464, "time": 1537875543, "locktime": 0, "vsize": 371, "size": 371}