{"hash": "529ac193625f44f23906eb7925c5a63bcd0d08bd140304dd409feb98bdaa6b69", "blockhash": "0000000000000000000e13cef7c366c0283d82e591d1acd082e914b08063cdf1", "vout": [{"scriptPubKey": {"reqSigs": 1, "hex": "a9140ee0c33bbded7dcb96612b149260479b07ca58d087", "addresses": ["333ge1aJX6PU4Etg9Uj3mQptmGHF74YTRR"], "asm": "OP_HASH160 0ee0c33bbded7dcb96612b149260479b07ca58d0 OP_EQUAL", "type": "scripthash"}, "value": 1.0, "n": 0}, {"scriptPubKey": {"reqSigs": 1, "hex": "a9141ff081f5cf5f70ca1ca1a9a9b56f6ae856aa171787", "addresses": ["34btzFme3czKmAfg23Ro8tc2vb63fiSM1W"], "asm": "OP_HASH160 1ff081f5cf5f70ca1ca1a9a9b56f6ae856aa1717 OP_EQUAL", "type": "scripthash"}, "value": 0.3, "n": 1}, {"scriptPubKey": {"reqSigs": 1, "hex": "a91486c3fd19c6c9a0b596046179f8c72dcbdf95c96387", "addresses": ["3DybFnF6r6riDz1W1wSmv2rvjo8NCGH4xi"], "asm": "OP_HASH160 86c3fd19c6c9a0b596046179f8c72dcbdf95c963 OP_EQUAL", "type": "scripthash"}, "value": 30.30115878, "n": 2}], "hex": "010000000001019b6c372b5436b38beefad6103c866d38d81a37bc2c00a4212740e209302556e7010000001716001431a2ce0c031351dd9c5dad168af8b76d65147419ffffffff0300e1f5050000000017a9140ee0c33bbded7dcb96612b149260479b07ca58d08780c3c9010000000017a9141ff081f5cf5f70ca1ca1a9a9b56f6ae856aa17178726e69bb40000000017a91486c3fd19c6c9a0b596046179f8c72dcbdf95c96387024730440220023391abf58b8640f0c674c9019fcd362f795bd40bf7ee9d518e171fd1d20ce102205ee9aba407ecf0b1429fcd9d4ec1c82a595809298efc4bb39d99f4a2e3dec6da01210221a47cdb1df834e604d49ce29497c00a12d0daec0ae8a10a6ce689780b05085300000000", "vin": [{"txinwitness": ["30440220023391abf58b8640f0c674c9019fcd362f795bd40bf7ee9d518e171fd1d20ce102205ee9aba407ecf0b1429fcd9d4ec1c82a595809298efc4bb39d99f4a2e3dec6da01", "0221a47cdb1df834e604d49ce29497c00a12d0daec0ae8a10a6ce689780b050853"], "sequence": 4294967295, "scriptSig": {"hex": "16001431a2ce0c031351dd9c5dad168af8b76d65147419", "asm": "001431a2ce0c031351dd9c5dad168af8b76d65147419"}, "vout": 1, "txid": "e756253009e2402721a4002cbc371ad8386d863c10d6faee8bb336542b376c9b"}], "txid": "52e8af2f09ac1010e184e9663cfc423e7e56877f239fbe63e68a898e692604fb", "blocktime": 1537871767, "version": 1, "confirmations": 11493, "time": 1537871767, "locktime": 0, "vsize": 198, "size": 279}