{"hash": "52eb52290a10ad90ffe11edb7946a41107ae55a9041a2ed9e03c577d654a59ea", "blockhash": "000000000000000000022b45ed06c6f4ccd3cf7fb5ba4856ebd2e58215665228", "vout": [{"scriptPubKey": {"reqSigs": 1, "hex": "76a91414983d38616230d7076713d70a56f2b79d66676c88ac", "addresses": ["12sttbfLeUjEgE4DEMYyiaEk6QNFyawUPv"], "asm": "OP_DUP OP_HASH160 14983d38616230d7076713d70a56f2b79d66676c OP_EQUALVERIFY OP_CHECKSIG", "type": "pubkeyhash"}, "value": 0.01559134, "n": 0}, {"scriptPubKey": {"reqSigs": 1, "hex": "76a9148ff78567e8ce6f7489d1f34418d41165eb3e357f88ac", "addresses": ["1E8E9W2W6bL6ijnKoAvZLcybc5QFoFiPQa"], "asm": "OP_DUP OP_HASH160 8ff78567e8ce6f7489d1f34418d41165eb3e357f OP_EQUALVERIFY OP_CHECKSIG", "type": "pubkeyhash"}, "value": 0.03122374, "n": 1}], "hex": "0100000001792d4a93bf5256e6c41094ecc10e5a54c52323b127bcf910f378f5855dbcdc3f010000006b483045022100f0f28b80e9255b4a7f06a6d8785bae8a47a7c0ab005691e482683ad012c368e6022037282834dd88eb6d4e41107d196b03a273051cacb14e16e6a1794a206411859e012102bbc03cfa10b76f891d152b4d22b5cb5f8b05260fee2fd9179711962051c1c62dffffffff025eca1700000000001976a91414983d38616230d7076713d70a56f2b79d66676c88acc6a42f00000000001976a9148ff78567e8ce6f7489d1f34418d41165eb3e357f88ac00000000", "vin": [{"sequence": 4294967295, "scriptSig": {"hex": "483045022100f0f28b80e9255b4a7f06a6d8785bae8a47a7c0ab005691e482683ad012c368e6022037282834dd88eb6d4e41107d196b03a273051cacb14e16e6a1794a206411859e012102bbc03cfa10b76f891d152b4d22b5cb5f8b05260fee2fd9179711962051c1c62d", "asm": "3045022100f0f28b80e9255b4a7f06a6d8785bae8a47a7c0ab005691e482683ad012c368e6022037282834dd88eb6d4e41107d196b03a273051cacb14e16e6a1794a206411859e[ALL] 02bbc03cfa10b76f891d152b4d22b5cb5f8b05260fee2fd9179711962051c1c62d"}, "vout": 1, "txid": "3fdcbc5d85f578f310f9bc27b12323c5545a0ec1ec9410c4e65652bf934a2d79"}], "txid": "52eb52290a10ad90ffe11edb7946a41107ae55a9041a2ed9e03c577d654a59ea", "blocktime": 1537869901, "version": 1, "confirmations": 11524, "time": 1537869901, "locktime": 0, "vsize": 226, "size": 226}