{"hash": "4c8b235a7704dbda70bd593984f9ee9291d87e9147028d6704a36db0b0005e1b", "blockhash": "0000000000000000001cda96e906b7601b7a6fb1a3b62bca570a9e5d8f4b3de1", "vout": [{"scriptPubKey": {"reqSigs": 1, "hex": "76a91444884d7c63898140e69b52afcfc0c0ebcb7640ba88ac", "addresses": ["17FNEXCUedygQRDgQFPuqXTfy6SAuRGWLT"], "asm": "OP_DUP OP_HASH160 44884d7c63898140e69b52afcfc0c0ebcb7640ba OP_EQUALVERIFY OP_CHECKSIG", "type": "pubkeyhash"}, "value": 0.0002, "n": 0}, {"scriptPubKey": {"reqSigs": 1, "hex": "a9141d7370ccde4590204155e4074f69743a8e4fac0287", "addresses": ["34Njp4ZKtmCDfqqps26wHBYQQGUo2pGkLi"], "asm": "OP_HASH160 1d7370ccde4590204155e4074f69743a8e4fac02 OP_EQUAL", "type": "scripthash"}, "value": 0.00088483, "n": 1}], "hex": "01000000000102d3f4e0e198c23f28789cdb44fd648a54ab702287f2606ce3afa3b051ad8e775a0100000023220020f63dfc12340f6360d0251c22746d6b56093e3243e96ca012a65484a5d9cf0ec0ffffffffc512b868af94108f598bd11ba41e39489b5f6258b095c3502c528a7c0f7228f70000000023220020f63dfc12340f6360d0251c22746d6b56093e3243e96ca012a65484a5d9cf0ec0ffffffff02204e0000000000001976a91444884d7c63898140e69b52afcfc0c0ebcb7640ba88aca35901000000000017a9141d7370ccde4590204155e4074f69743a8e4fac0287040047304402202d32932b342bb4be8c8b548b51ee08e7a153b90ca35d3c945dd7dfc72c3bf6ba02201362b47b3ce6fdfb2fd3d3cc0efe3dbb9d1608d73588fdfe6fb1d0b85bfc765d0147304402203081cc44be8f6e96f7144119871a6ff647e35da5acddd8217c8afc68fa515e520220339cf3e2d5d8c34ff843c5ba3f3c4b391ab0af1267368a87720f9e042b64a7710147522102097067a6a0cc130a9a6f6577b47bf369b840a79de31cd7457187994266b1bb7c2103338f346cab6ba87fe940591a03ac234be06520c5ab386d4b6632e8eef0d0db7652ae0400473044022056f80a88c3131cd6017aa9e20619b5bd268b7607016dabe141d73595db0200650220238a68b9428b6d53d75d578c52261defd13802fc00d37eb570ac19b9d61da8a001483045022100b683f4e713cc366b94071f37fadb7b6897eb55665c531160aea26b120347d6990220770ae958b73c48ac4ce89a63fc7c152424ddda67bdfb727004bf16c7e6b8c16b0147522102097067a6a0cc130a9a6f6577b47bf369b840a79de31cd7457187994266b1bb7c2103338f346cab6ba87fe940591a03ac234be06520c5ab386d4b6632e8eef0d0db7652ae00000000", "vin": [{"txinwitness": ["", "304402202d32932b342bb4be8c8b548b51ee08e7a153b90ca35d3c945dd7dfc72c3bf6ba02201362b47b3ce6fdfb2fd3d3cc0efe3dbb9d1608d73588fdfe6fb1d0b85bfc765d01", "304402203081cc44be8f6e96f7144119871a6ff647e35da5acddd8217c8afc68fa515e520220339cf3e2d5d8c34ff843c5ba3f3c4b391ab0af1267368a87720f9e042b64a77101", "522102097067a6a0cc130a9a6f6577b47bf369b840a79de31cd7457187994266b1bb7c2103338f346cab6ba87fe940591a03ac234be06520c5ab386d4b6632e8eef0d0db7652ae"], "sequence": 4294967295, "scriptSig": {"hex": "220020f63dfc12340f6360d0251c22746d6b56093e3243e96ca012a65484a5d9cf0ec0", "asm": "0020f63dfc12340f6360d0251c22746d6b56093e3243e96ca012a65484a5d9cf0ec0"}, "vout": 1, "txid": "5a778ead51b0a3afe36c60f2872270ab548a64fd44db9c78283fc298e1e0f4d3"}, {"txinwitness": ["", "3044022056f80a88c3131cd6017aa9e20619b5bd268b7607016dabe141d73595db0200650220238a68b9428b6d53d75d578c52261defd13802fc00d37eb570ac19b9d61da8a001", "3045022100b683f4e713cc366b94071f37fadb7b6897eb55665c531160aea26b120347d6990220770ae958b73c48ac4ce89a63fc7c152424ddda67bdfb727004bf16c7e6b8c16b01", "522102097067a6a0cc130a9a6f6577b47bf369b840a79de31cd7457187994266b1bb7c2103338f346cab6ba87fe940591a03ac234be06520c5ab386d4b6632e8eef0d0db7652ae"], "sequence": 4294967295, "scriptSig": {"hex": "220020f63dfc12340f6360d0251c22746d6b56093e3243e96ca012a65484a5d9cf0ec0", "asm": "0020f63dfc12340f6360d0251c22746d6b56093e3243e96ca012a65484a5d9cf0ec0"}, "vout": 0, "txid": "f728720f7c8a522c50c395b058625f9b48391ea41bd18b598f1094af68b812c5"}], "txid": "52f060970fbd45dddf1478cc913465b7fc68950f0073ff75daabc0eefe8bebf5", "blocktime": 1537873282, "version": 1, "confirmations": 11484, "time": 1537873282, "locktime": 0, "vsize": 338, "size": 667}