{"hash": "52f1cadafcf7f030208c1f60c097e2bda6ead238cd66dd1d8abd415405cb6826", "blockhash": "0000000000000000001f76057863aec43deb6fa401d9628bb513d65a8098bfab", "vout": [{"scriptPubKey": {"reqSigs": 1, "hex": "76a9143195321832b470aea9d8d6a6d3652c395db133be88ac", "addresses": ["15XAqhT2K5yqF5r3MiJ7eHP3YWJPzAz5Xc"], "asm": "OP_DUP OP_HASH160 3195321832b470aea9d8d6a6d3652c395db133be OP_EQUALVERIFY OP_CHECKSIG", "type": "pubkeyhash"}, "value": 1.7e-05, "n": 0}, {"scriptPubKey": {"reqSigs": 1, "hex": "a914bea7b2d4f7c8da5445ecd9bab945713d70acd1f187", "addresses": ["3K57CtgcStpc3eBE8x8andjdNpCNLqeAq3"], "asm": "OP_HASH160 bea7b2d4f7c8da5445ecd9bab945713d70acd1f1 OP_EQUAL", "type": "scripthash"}, "value": 0.0553, "n": 1}], "hex": "0100000004fc028592ed23fc211e7818518c86cd202e8a51e34ce66cdf6197dcbf873bafd2000000006b483045022100e8a08e178fc1ad6b38fd67e3e0c3b61109a33e9efd4e89deb04e409869cf743202202cb996be1213e63cb48f9c68b6f610b807b2eabe5cfb2bf21b0cdc1cc1cb64440121025ae36d1497eebc42cad07815bcdcdc36c78a114f99df9424b52aacb87a81ee34ffffffff719af6969352ea2dd298255239f9bfc7dd293b34cb4a6abc0ffef8fd80862ed0000000006b483045022100aac7a18fe1504d7ac22e6d4f1ea5c871ddd8b2fb9683bffce4474f0afb90cbc30220039e504e24c9c27a51702f3f9d784c406b33558ade338437ef791b0a9fe4f09701210321e9e3f2f43e0dccba83d45f44a5314ad4e9ff852ab04abef287b122875019e0ffffffffab52f43b39e9b62cd87fd53d5754d381fb9e69d453f184488cf3fc0b75ddf774000000006a47304402200810327a65355482829098ddb461d30943b16bd561566ff65af2714fcbe30f4f02205e5ae19685eaaabc9bf3893171d4f75fda8f9655be64a0a0115422ee712fe8fd01210321e9e3f2f43e0dccba83d45f44a5314ad4e9ff852ab04abef287b122875019e0ffffffffe57452d016833f4c8c6e462f9bca1824462e6f0ac697b23ce0452c01a932724b000000006a47304402203321576249587cfc4a6a560bfdfd5d43ec76e4b70f847e7088d431646a4f6212022019ea36648bc59416a956e75aec66211fc25cbe2627b8e4c54865c32ac90cb9e101210321e9e3f2f43e0dccba83d45f44a5314ad4e9ff852ab04abef287b122875019e0ffffffff02a4060000000000001976a9143195321832b470aea9d8d6a6d3652c395db133be88ac906154000000000017a914bea7b2d4f7c8da5445ecd9bab945713d70acd1f18700000000", "vin": [{"sequence": 4294967295, "scriptSig": {"hex": "483045022100e8a08e178fc1ad6b38fd67e3e0c3b61109a33e9efd4e89deb04e409869cf743202202cb996be1213e63cb48f9c68b6f610b807b2eabe5cfb2bf21b0cdc1cc1cb64440121025ae36d1497eebc42cad07815bcdcdc36c78a114f99df9424b52aacb87a81ee34", "asm": "3045022100e8a08e178fc1ad6b38fd67e3e0c3b61109a33e9efd4e89deb04e409869cf743202202cb996be1213e63cb48f9c68b6f610b807b2eabe5cfb2bf21b0cdc1cc1cb6444[ALL] 025ae36d1497eebc42cad07815bcdcdc36c78a114f99df9424b52aacb87a81ee34"}, "vout": 0, "txid": "d2af3b87bfdc9761df6ce64ce3518a2e20cd868c5118781e21fc23ed928502fc"}, {"sequence": 4294967295, "scriptSig": {"hex": "483045022100aac7a18fe1504d7ac22e6d4f1ea5c871ddd8b2fb9683bffce4474f0afb90cbc30220039e504e24c9c27a51702f3f9d784c406b33558ade338437ef791b0a9fe4f09701210321e9e3f2f43e0dccba83d45f44a5314ad4e9ff852ab04abef287b122875019e0", "asm": "3045022100aac7a18fe1504d7ac22e6d4f1ea5c871ddd8b2fb9683bffce4474f0afb90cbc30220039e504e24c9c27a51702f3f9d784c406b33558ade338437ef791b0a9fe4f097[ALL] 0321e9e3f2f43e0dccba83d45f44a5314ad4e9ff852ab04abef287b122875019e0"}, "vout": 0, "txid": "d02e8680fdf8fe0fbc6a4acb343b29ddc7bff939522598d22dea529396f69a71"}, {"sequence": 4294967295, "scriptSig": {"hex": "47304402200810327a65355482829098ddb461d30943b16bd561566ff65af2714fcbe30f4f02205e5ae19685eaaabc9bf3893171d4f75fda8f9655be64a0a0115422ee712fe8fd01210321e9e3f2f43e0dccba83d45f44a5314ad4e9ff852ab04abef287b122875019e0", "asm": "304402200810327a65355482829098ddb461d30943b16bd561566ff65af2714fcbe30f4f02205e5ae19685eaaabc9bf3893171d4f75fda8f9655be64a0a0115422ee712fe8fd[ALL] 0321e9e3f2f43e0dccba83d45f44a5314ad4e9ff852ab04abef287b122875019e0"}, "vout": 0, "txid": "74f7dd750bfcf38c4884f153d4699efb81d354573dd57fd82cb6e9393bf452ab"}, {"sequence": 4294967295, "scriptSig": {"hex": "47304402203321576249587cfc4a6a560bfdfd5d43ec76e4b70f847e7088d431646a4f6212022019ea36648bc59416a956e75aec66211fc25cbe2627b8e4c54865c32ac90cb9e101210321e9e3f2f43e0dccba83d45f44a5314ad4e9ff852ab04abef287b122875019e0", "asm": "304402203321576249587cfc4a6a560bfdfd5d43ec76e4b70f847e7088d431646a4f6212022019ea36648bc59416a956e75aec66211fc25cbe2627b8e4c54865c32ac90cb9e1[ALL] 0321e9e3f2f43e0dccba83d45f44a5314ad4e9ff852ab04abef287b122875019e0"}, "vout": 0, "txid": "4b7232a9012c45e03cb297c60a6f2e462418ca9b2f466e8c4c3f8316d05274e5"}], "txid": "52f1cadafcf7f030208c1f60c097e2bda6ead238cd66dd1d8abd415405cb6826", "blocktime": 1537873891, "version": 1, "confirmations": 11478, "time": 1537873891, "locktime": 0, "vsize": 666, "size": 666}