{"hash": "52f54fa4332b4c3015def20d97468b471712f6ddd0d2d5fc71af4b2171f9641d", "blockhash": "0000000000000000000e13cef7c366c0283d82e591d1acd082e914b08063cdf1", "vout": [{"scriptPubKey": {"reqSigs": 1, "hex": "76a91407e134c068e0870d6825558c985d3740c68a5c9288ac", "addresses": ["1ifWwBovv1DkMoHjTBKP2GFyERkcDXZLR"], "asm": "OP_DUP OP_HASH160 07e134c068e0870d6825558c985d3740c68a5c92 OP_EQUALVERIFY OP_CHECKSIG", "type": "pubkeyhash"}, "value": 0.0002217, "n": 0}, {"scriptPubKey": {"reqSigs": 1, "hex": "76a914d0e4a8f8cb8135e70dab99dfc6bec642daff985d88ac", "addresses": ["1L3XUUoGt5M216e2fxknm3bqx9VgGCVeSL"], "asm": "OP_DUP OP_HASH160 d0e4a8f8cb8135e70dab99dfc6bec642daff985d OP_EQUALVERIFY OP_CHECKSIG", "type": "pubkeyhash"}, "value": 0.01667, "n": 1}], "hex": "0100000002d4d074bff91498f64d001c0dcaad1b92aedc55345a8a5e372e9a6eb1719e4ac7010000006a473044022020ea711ec169e9ce7587a70ae72ca2abfb106a64ca6d9562f43297b52439fe1402201e5d0badd2744d14c16010543f467df8675eafd8c65533d24185812abd5dab2f012102eff6ee64525532de5c9304805a3766c9bc3c6aebae4a604cf0c90a60a0dc0308ffffffffd07c624405135cc130af4b7aa8e2cfb96f9b28f48f99fa6717df7e5a37c442c9020000006a473044022045a7bf9dee128e6b6a11e8934425fe72b09a0c9dba531cde345f5b2c62c5f05002203e346975127ca22f704b1ca172754ac96beaabcc759c5671a2a0cec44c6621810121028718e27c21a38f9aa7b5d3d1d4761d1d0161ca119300e36f17391cb9f2aed2b8ffffffff029a560000000000001976a91407e134c068e0870d6825558c985d3740c68a5c9288acb86f1900000000001976a914d0e4a8f8cb8135e70dab99dfc6bec642daff985d88ac00000000", "vin": [{"sequence": 4294967295, "scriptSig": {"hex": "473044022020ea711ec169e9ce7587a70ae72ca2abfb106a64ca6d9562f43297b52439fe1402201e5d0badd2744d14c16010543f467df8675eafd8c65533d24185812abd5dab2f012102eff6ee64525532de5c9304805a3766c9bc3c6aebae4a604cf0c90a60a0dc0308", "asm": "3044022020ea711ec169e9ce7587a70ae72ca2abfb106a64ca6d9562f43297b52439fe1402201e5d0badd2744d14c16010543f467df8675eafd8c65533d24185812abd5dab2f[ALL] 02eff6ee64525532de5c9304805a3766c9bc3c6aebae4a604cf0c90a60a0dc0308"}, "vout": 1, "txid": "c74a9e71b16e9a2e375e8a5a3455dcae921badca0d1c004df69814f9bf74d0d4"}, {"sequence": 4294967295, "scriptSig": {"hex": "473044022045a7bf9dee128e6b6a11e8934425fe72b09a0c9dba531cde345f5b2c62c5f05002203e346975127ca22f704b1ca172754ac96beaabcc759c5671a2a0cec44c6621810121028718e27c21a38f9aa7b5d3d1d4761d1d0161ca119300e36f17391cb9f2aed2b8", "asm": "3044022045a7bf9dee128e6b6a11e8934425fe72b09a0c9dba531cde345f5b2c62c5f05002203e346975127ca22f704b1ca172754ac96beaabcc759c5671a2a0cec44c662181[ALL] 028718e27c21a38f9aa7b5d3d1d4761d1d0161ca119300e36f17391cb9f2aed2b8"}, "vout": 2, "txid": "c942c4375a7edf1767fa998ff4289b6fb9cfe2a87a4baf30c15c130544627cd0"}], "txid": "52f54fa4332b4c3015def20d97468b471712f6ddd0d2d5fc71af4b2171f9641d", "blocktime": 1537871767, "version": 1, "confirmations": 11495, "time": 1537871767, "locktime": 0, "vsize": 372, "size": 372}