{"hash": "52f7ab8c0ff5292c2fa749c888f7bcfb4395c66f18544f18556abdc282592dd2", "blockhash": "0000000000000000001f76057863aec43deb6fa401d9628bb513d65a8098bfab", "vout": [{"scriptPubKey": {"reqSigs": 1, "hex": "76a91447f1d5841fd51c763e80892c9ac557ca9bba702888ac", "addresses": ["17ZQgYZVb9yMUQFXQtq7dNvMHGMvjN6g6F"], "asm": "OP_DUP OP_HASH160 47f1d5841fd51c763e80892c9ac557ca9bba7028 OP_EQUALVERIFY OP_CHECKSIG", "type": "pubkeyhash"}, "value": 0.01236713, "n": 0}, {"scriptPubKey": {"reqSigs": 1, "hex": "76a9143460c4266cad12eb60bf4fdbac3f4b676f7c900c88ac", "addresses": ["15mx4QkGUtjh3W3MSsxWWTbgvKSj32cWCL"], "asm": "OP_DUP OP_HASH160 3460c4266cad12eb60bf4fdbac3f4b676f7c900c OP_EQUALVERIFY OP_CHECKSIG", "type": "pubkeyhash"}, "value": 0.031214, "n": 1}], "hex": "01000000032c3cb3a7b9700d19525a394f9976a053cb7408a60c4b83646953759861f1420e010000006a47304402201ddd24f514b5d820b8a8304e1a8600c10605d236f3532ed9d488768aad84217e022077e399d048ecff31addfee0fc6a7ba60b05baf4830f6fa620323b4b1cb3dda4e012102bfefb17a00a17dc6826932138f2b2072aa434ecbc6cf56307a8859a7f245291cffffffff6df59d5e9505e0b148edaa6f184a93867c31516509003049d6a61095da76b09e010000006b483045022100c6012dc447bf21a3b24faa04f0a0d482047df64b28d983bf61d3f6c091cb62ad022028c50a5dcddfa10e61058f11e6b6e85091cdf3c96cf5e6da0cda0896fa192c1d012102a53818bcdaf6c406c6d3fa0acc70f97424ac318385275bc778077468745dfcd9ffffffff20dd5a49787cad0f9a0d53d11c12e87a16e64b4291c6051e550e7bb65024e9f7010000006b483045022100a2db4caa2579f99a112a9c8abf109b083dc643f9df7b750d35b16a6776889d0302200767e16ebdbc145bda03d804d0222e4183cc5147acc6d330995a89f6ab65fa70012103259ff6e1768c1d3729905a1dd95551d0d38aa6970dcffa349a2a57b9997e9a7bffffffff02e9de1200000000001976a91447f1d5841fd51c763e80892c9ac557ca9bba702888acf8a02f00000000001976a9143460c4266cad12eb60bf4fdbac3f4b676f7c900c88ac00000000", "vin": [{"sequence": 4294967295, "scriptSig": {"hex": "47304402201ddd24f514b5d820b8a8304e1a8600c10605d236f3532ed9d488768aad84217e022077e399d048ecff31addfee0fc6a7ba60b05baf4830f6fa620323b4b1cb3dda4e012102bfefb17a00a17dc6826932138f2b2072aa434ecbc6cf56307a8859a7f245291c", "asm": "304402201ddd24f514b5d820b8a8304e1a8600c10605d236f3532ed9d488768aad84217e022077e399d048ecff31addfee0fc6a7ba60b05baf4830f6fa620323b4b1cb3dda4e[ALL] 02bfefb17a00a17dc6826932138f2b2072aa434ecbc6cf56307a8859a7f245291c"}, "vout": 1, "txid": "0e42f1619875536964834b0ca60874cb53a076994f395a52190d70b9a7b33c2c"}, {"sequence": 4294967295, "scriptSig": {"hex": "483045022100c6012dc447bf21a3b24faa04f0a0d482047df64b28d983bf61d3f6c091cb62ad022028c50a5dcddfa10e61058f11e6b6e85091cdf3c96cf5e6da0cda0896fa192c1d012102a53818bcdaf6c406c6d3fa0acc70f97424ac318385275bc778077468745dfcd9", "asm": "3045022100c6012dc447bf21a3b24faa04f0a0d482047df64b28d983bf61d3f6c091cb62ad022028c50a5dcddfa10e61058f11e6b6e85091cdf3c96cf5e6da0cda0896fa192c1d[ALL] 02a53818bcdaf6c406c6d3fa0acc70f97424ac318385275bc778077468745dfcd9"}, "vout": 1, "txid": "9eb076da9510a6d6493000096551317c86934a186faaed48b1e005955e9df56d"}, {"sequence": 4294967295, "scriptSig": {"hex": "483045022100a2db4caa2579f99a112a9c8abf109b083dc643f9df7b750d35b16a6776889d0302200767e16ebdbc145bda03d804d0222e4183cc5147acc6d330995a89f6ab65fa70012103259ff6e1768c1d3729905a1dd95551d0d38aa6970dcffa349a2a57b9997e9a7b", "asm": "3045022100a2db4caa2579f99a112a9c8abf109b083dc643f9df7b750d35b16a6776889d0302200767e16ebdbc145bda03d804d0222e4183cc5147acc6d330995a89f6ab65fa70[ALL] 03259ff6e1768c1d3729905a1dd95551d0d38aa6970dcffa349a2a57b9997e9a7b"}, "vout": 1, "txid": "f7e92450b67b0e551e05c691424be6167ae8121cd1530d9a0fad7c78495add20"}], "txid": "52f7ab8c0ff5292c2fa749c888f7bcfb4395c66f18544f18556abdc282592dd2", "blocktime": 1537873891, "version": 1, "confirmations": 11478, "time": 1537873891, "locktime": 0, "vsize": 521, "size": 521}