{"hash": "fd9b83daf495ad2b009c9ccc8d44d2bfd2aeb6d74438662a32ba73c7c5ed317a", "blockhash": "0000000000000000000dcc0f55137456b1a82d3642486a52398922ac4d620174", "vout": [{"scriptPubKey": {"reqSigs": 1, "hex": "0014c6649f6757b49ff4b3073374dbebb960b6c29450", "addresses": ["bc1qcejf7e6hkj0lfvc8xd6dh6aevzmv99zs7gcd4l"], "asm": "0 c6649f6757b49ff4b3073374dbebb960b6c29450", "type": "witness_v0_keyhash"}, "value": 0.00066813, "n": 0}, {"scriptPubKey": {"reqSigs": 1, "hex": "76a9143ee32db022e835d50d8ff93d7bb63a639b37f0a088ac", "addresses": ["16jX3XkgdZC9wtaDZCVZznY5aZsi4351Gj"], "asm": "OP_DUP OP_HASH160 3ee32db022e835d50d8ff93d7bb63a639b37f0a0 OP_EQUALVERIFY OP_CHECKSIG", "type": "pubkeyhash"}, "value": 0.014953, "n": 1}], "hex": "010000000001015b2336423feb6eb4c70f564447d833529339552fa1545468d67a316e842d3292010000001716001426dc4ec650104436fd36b29e579a7e23878a4893ffffffff02fd04010000000000160014c6649f6757b49ff4b3073374dbebb960b6c2945004d11600000000001976a9143ee32db022e835d50d8ff93d7bb63a639b37f0a088ac02483045022100e9748f16666e1a65ef9f810956cb46603b4ab804ed42c89cb3760ccdd3aab98a02204ead07fee3caebe7e5cb871a208f6e6096c490f78cd04feea6d6a76583697b370121031263908bec0688fb06cac6fe21a70f5673db08207166a8f1ba60d445c64dd18000000000", "vin": [{"txinwitness": ["3045022100e9748f16666e1a65ef9f810956cb46603b4ab804ed42c89cb3760ccdd3aab98a02204ead07fee3caebe7e5cb871a208f6e6096c490f78cd04feea6d6a76583697b3701", "031263908bec0688fb06cac6fe21a70f5673db08207166a8f1ba60d445c64dd180"], "sequence": 4294967295, "scriptSig": {"hex": "16001426dc4ec650104436fd36b29e579a7e23878a4893", "asm": "001426dc4ec650104436fd36b29e579a7e23878a4893"}, "vout": 1, "txid": "92322d846e317ad6685454a12f5539935233d84744560fc7b46eeb3f4236235b"}], "txid": "52fab718752640861d1ab2e3cb951744a288b7ecd0517169d09797c91bd487b3", "blocktime": 1537870268, "version": 1, "confirmations": 11518, "time": 1537870268, "locktime": 0, "vsize": 167, "size": 249}