{"hash": "13e916f3457bd76d3d5efa246405f182f428e1b157adb78413dfb3915d442bf2", "blockhash": "0000000000000000000e13cef7c366c0283d82e591d1acd082e914b08063cdf1", "vout": [{"scriptPubKey": {"reqSigs": 1, "hex": "76a914658bc2e4001cfacc64a3e041943e921b3086737588ac", "addresses": ["1AFvgAG4FN8fhtp3ZtSF8hsmKvPTDiB4RV"], "asm": "OP_DUP OP_HASH160 658bc2e4001cfacc64a3e041943e921b30867375 OP_EQUALVERIFY OP_CHECKSIG", "type": "pubkeyhash"}, "value": 3.28e-05, "n": 0}, {"scriptPubKey": {"reqSigs": 1, "hex": "a9145fd6ccf3fa4f5e40b590aac3f24664f0653a71dc87", "addresses": ["3ARmSNhAYCtKywjSMAxYdagMtKiGcdVuY2"], "asm": "OP_HASH160 5fd6ccf3fa4f5e40b590aac3f24664f0653a71dc OP_EQUAL", "type": "scripthash"}, "value": 0.00028686, "n": 1}], "hex": "01000000000101255df5d66c5cd1e3e04891415884e4c19b16e22c487be21a51df97f1a7b9a0e901000000232200206594052309991fbaf27880f6c24f3eaa8cdd7edacf1bc50579894b9e3fe7faccffffffff02d00c0000000000001976a914658bc2e4001cfacc64a3e041943e921b3086737588ac0e7000000000000017a9145fd6ccf3fa4f5e40b590aac3f24664f0653a71dc870400483045022100f450d9a2a985a30d01f2a9ea8ecacc83d18c5b6d0d31c981c1339f70af5de22e022056cbbc16152ce352d80a63d19a4293254f7d0e8068443c7db8262ebe677700b201483045022100aca0f60cc9ac97e89de61db63197d51dd7ba859dcf0ec0ba7ac4d389a014d95702202a3e305a4dac32e1bb68f070a3af2f19c76b30389b056bfe0eb636f8ff20ad360147522102762a59cc11c9e209028b4fdb72709e323a3db710158b03d150a252f3d53009582103148c80a5bdfddb05ff5bcffc397c8ca748d8b435ec6a175bc9d7bfc7fc6f853752ae00000000", "vin": [{"txinwitness": ["", "3045022100f450d9a2a985a30d01f2a9ea8ecacc83d18c5b6d0d31c981c1339f70af5de22e022056cbbc16152ce352d80a63d19a4293254f7d0e8068443c7db8262ebe677700b201", "3045022100aca0f60cc9ac97e89de61db63197d51dd7ba859dcf0ec0ba7ac4d389a014d95702202a3e305a4dac32e1bb68f070a3af2f19c76b30389b056bfe0eb636f8ff20ad3601", "522102762a59cc11c9e209028b4fdb72709e323a3db710158b03d150a252f3d53009582103148c80a5bdfddb05ff5bcffc397c8ca748d8b435ec6a175bc9d7bfc7fc6f853752ae"], "sequence": 4294967295, "scriptSig": {"hex": "2200206594052309991fbaf27880f6c24f3eaa8cdd7edacf1bc50579894b9e3fe7facc", "asm": "00206594052309991fbaf27880f6c24f3eaa8cdd7edacf1bc50579894b9e3fe7facc"}, "vout": 1, "txid": "e9a0b9a7f197df511ae27b482ce2169bc1e48458419148e0e3d15c6cd6f55d25"}], "txid": "52fd10ada128219ba7a267cc2ee000f6969ceb9dadfe4c06da0fcf3b5f995ea6", "blocktime": 1537871767, "version": 1, "confirmations": 11495, "time": 1537871767, "locktime": 0, "vsize": 208, "size": 374}