{"hash": "5ec1f87e736c301287c665230b867515c7fc3392a155ca18b1be8adc72d21e47", "blockhash": "00000000000000000017f5eb5941039fbcee6240d03bc1f2f8e35350df66a1d8", "vout": [{"scriptPubKey": {"reqSigs": 1, "hex": "76a9143df7f34db0b995ff59dd2ec29f8744b427a4d77f88ac", "addresses": ["16efFbftDEmik3qCHyia8aGpVGaw9EXwkx"], "asm": "OP_DUP OP_HASH160 3df7f34db0b995ff59dd2ec29f8744b427a4d77f OP_EQUALVERIFY OP_CHECKSIG", "type": "pubkeyhash"}, "value": 0.000336, "n": 0}, {"scriptPubKey": {"reqSigs": 1, "hex": "0014c5e45488498a1b5cd820589fb5c10b34ac7e3d6f", "addresses": ["bc1qchj9fzzf3gd4ekpqtz0mtsgtxjk8u0t0lryng3"], "asm": "0 c5e45488498a1b5cd820589fb5c10b34ac7e3d6f", "type": "witness_v0_keyhash"}, "value": 8.97e-06, "n": 1}], "hex": "01000000000101e35270385a37489c126227b2b7bba39670dda0e625c006afe992ae858753171c000000001716001402a87a0440992a0dbe4b0e2d5facf7a3768a7155ffffffff0240830000000000001976a9143df7f34db0b995ff59dd2ec29f8744b427a4d77f88ac8103000000000000160014c5e45488498a1b5cd820589fb5c10b34ac7e3d6f0247304402205f46e4d7b3444d156a9cf36a7d1a5a953c83f41f7b19bf1370f044005fae319e022055c7acf53f65cdd397993267e281b2bec9dbe1c817a2b602cdcf3d4fdc26277e0121020a05607a689ce1c42628cb5253b7c16719c41bc6d9789f7177823e374cbde6d800000000", "vin": [{"txinwitness": ["304402205f46e4d7b3444d156a9cf36a7d1a5a953c83f41f7b19bf1370f044005fae319e022055c7acf53f65cdd397993267e281b2bec9dbe1c817a2b602cdcf3d4fdc26277e01", "020a05607a689ce1c42628cb5253b7c16719c41bc6d9789f7177823e374cbde6d8"], "sequence": 4294967295, "scriptSig": {"hex": "16001402a87a0440992a0dbe4b0e2d5facf7a3768a7155", "asm": "001402a87a0440992a0dbe4b0e2d5facf7a3768a7155"}, "vout": 0, "txid": "1c17538785ae92e9af06c025e6a0dd7096a3bbb7b22762129c48375a387052e3"}], "txid": "52fed5478029addc86a1eea600d8af5ec31f22bd25adae9ffd46df314092860e", "blocktime": 1537874412, "version": 1, "confirmations": 11468, "time": 1537874412, "locktime": 0, "vsize": 167, "size": 248}