{"hash": "63451689fedc03b64b211a1ec1fcf2fade953c73b51dcbb74cd4bba6e41a1ab4", "blockhash": "0000000000000000001cda96e906b7601b7a6fb1a3b62bca570a9e5d8f4b3de1", "vout": [{"scriptPubKey": {"reqSigs": 1, "hex": "76a9149e9b1a3610dd09ca980d534966388797155640da88ac", "addresses": ["1FTda1hRbnca7JsKoaMfHspymwknHgN5We"], "asm": "OP_DUP OP_HASH160 9e9b1a3610dd09ca980d534966388797155640da OP_EQUALVERIFY OP_CHECKSIG", "type": "pubkeyhash"}, "value": 0.00505552, "n": 0}, {"scriptPubKey": {"reqSigs": 1, "hex": "a9149649ad6d2730bb28020a268d9d80df10a9f74ad487", "addresses": ["3FPfYWwfMfKMGY7fuPHvz2b73RhTNGzsm3"], "asm": "OP_HASH160 9649ad6d2730bb28020a268d9d80df10a9f74ad4 OP_EQUAL", "type": "scripthash"}, "value": 13.8504955, "n": 1}], "hex": "01000000000101e8f81763435438d1a2f934b4e6178ddf23f4c810dc45e2cd93a8ee6ac014b45001000000232200207768efcc1e5eb3d28410fac3f45831004c860cc24cddd940a616b34324823fceffffffff02d0b60700000000001976a9149e9b1a3610dd09ca980d534966388797155640da88acce2d8e520000000017a9149649ad6d2730bb28020a268d9d80df10a9f74ad4870400483045022100dd6070f7861b9f97e3d59e23abf610be24208e895250c1f005fae1b98fe2245b022050d81d16e15a345459b2106d017785e7ae1e8963bad91d705644738260d33ec501483045022100d878e0d20a4fd23b5450975736ebd27fcc584e5ee4d144432f3fe8194ac019bf02203f79695ab40be7243d49ebe74ac77732c906c603977ba3b9cf239a69b4b202370147522102529d5d1f6733ab45d9d50e07db42c7f6b967ae321c38b726c2247f149959b8262103d0c936a5988dd8421c63240496b723b0ec42400c38b9350e32c2eb4f47d8796952ae00000000", "vin": [{"txinwitness": ["", "3045022100dd6070f7861b9f97e3d59e23abf610be24208e895250c1f005fae1b98fe2245b022050d81d16e15a345459b2106d017785e7ae1e8963bad91d705644738260d33ec501", "3045022100d878e0d20a4fd23b5450975736ebd27fcc584e5ee4d144432f3fe8194ac019bf02203f79695ab40be7243d49ebe74ac77732c906c603977ba3b9cf239a69b4b2023701", "522102529d5d1f6733ab45d9d50e07db42c7f6b967ae321c38b726c2247f149959b8262103d0c936a5988dd8421c63240496b723b0ec42400c38b9350e32c2eb4f47d8796952ae"], "sequence": 4294967295, "scriptSig": {"hex": "2200207768efcc1e5eb3d28410fac3f45831004c860cc24cddd940a616b34324823fce", "asm": "00207768efcc1e5eb3d28410fac3f45831004c860cc24cddd940a616b34324823fce"}, "vout": 1, "txid": "50b414c06aeea893cde245dc10c8f423df8d17e6b434f9a2d13854436317f8e8"}], "txid": "52ff781814961e9d2e2027b1be692e2cc0f6ecaa943ffbc3c9792b310ea40c4d", "blocktime": 1537873282, "version": 1, "confirmations": 11484, "time": 1537873282, "locktime": 0, "vsize": 208, "size": 374}