{"hash": "7f68a77e7868da43ddeafde5a12974d5934a60a9a3f423c1d255b343ed803c80", "blockhash": "0000000000000000000e13cef7c366c0283d82e591d1acd082e914b08063cdf1", "vout": [{"scriptPubKey": {"reqSigs": 1, "hex": "00149e2981c14d7be2f1f9b2ad9de4d380f79ad5ab24", "addresses": ["bc1qnc5crs2d0030r7dj4kw7f5uq77ddt2eyp5rryr"], "asm": "0 9e2981c14d7be2f1f9b2ad9de4d380f79ad5ab24", "type": "witness_v0_keyhash"}, "value": 1.32464121, "n": 0}, {"scriptPubKey": {"reqSigs": 1, "hex": "a914fda3c214436ae30d444bb1139f397358be80e02587", "addresses": ["3Qp94C1VKs9df5q9sSy42t6AsfFspq6uQu"], "asm": "OP_HASH160 fda3c214436ae30d444bb1139f397358be80e025 OP_EQUAL", "type": "scripthash"}, "value": 0.04083158, "n": 1}], "hex": "01000000000101254413b8f26fe47ab2b7e63c2933ddc441ca05918d08ad60effe168f2259e9d20000000000ffffffff02f93de507000000001600149e2981c14d7be2f1f9b2ad9de4d380f79ad5ab24d64d3e000000000017a914fda3c214436ae30d444bb1139f397358be80e025870247304402204e07ce9a80718851289443bd810e688d7896df350aaf34202a4be48fca3ab0c702201514258091b538d628f4d72c77d0299e3b5df4ac5d3c341746643e10747b5bdf012103662ebe258b4a180c06d1bb4dd96194a5d0e5bc4abffb75df571da7b5a71e2a0100000000", "vin": [{"txinwitness": ["304402204e07ce9a80718851289443bd810e688d7896df350aaf34202a4be48fca3ab0c702201514258091b538d628f4d72c77d0299e3b5df4ac5d3c341746643e10747b5bdf01", "03662ebe258b4a180c06d1bb4dd96194a5d0e5bc4abffb75df571da7b5a71e2a01"], "sequence": 4294967295, "scriptSig": {"hex": "", "asm": ""}, "vout": 0, "txid": "d2e959228f16feef60ad088d9105ca41c4dd33293ce6b7b27ae46ff2b8134425"}], "txid": "52ff1b65cb4d2eb1cff0205b30fe9405c6a58643f939ff56e39394b054850e8c", "blocktime": 1537871767, "version": 1, "confirmations": 11495, "time": 1537871767, "locktime": 0, "vsize": 142, "size": 223}