{"hash": "632d71f1b492bf7691b8af19c38419fe784e2ca1f88736a4cc66856e3e5a3bc3", "blockhash": "00000000000000000004ffacab907a6b429b9a5745fa0b75af4234bf69dd7176", "vout": [{"scriptPubKey": {"reqSigs": 1, "hex": "a9148436c6a1854246b9457b8a0d5e71a14e927cec9387", "addresses": ["3Dk6jm8r2dVbp9dDwdZN4PvYkecVR72b3Y"], "asm": "OP_HASH160 8436c6a1854246b9457b8a0d5e71a14e927cec93 OP_EQUAL", "type": "scripthash"}, "value": 0.01391541, "n": 0}, {"scriptPubKey": {"reqSigs": 1, "hex": "a914f9c80f86216d4c16c47014d66cdecb2b77a5374e87", "addresses": ["3QTjqmQp98yCnXhgFoLSooxquFzc3PrC5W"], "asm": "OP_HASH160 f9c80f86216d4c16c47014d66cdecb2b77a5374e OP_EQUAL", "type": "scripthash"}, "value": 0.02, "n": 1}], "hex": "020000000001019e73502b634160b4c7f7a45919ad00654875c9f93e9a685d03e6dbbada15194901000000171600145376d768a28081b799895bf1855d33b81656adb1feffffff02b53b15000000000017a9148436c6a1854246b9457b8a0d5e71a14e927cec938780841e000000000017a914f9c80f86216d4c16c47014d66cdecb2b77a5374e870247304402204947d2bfb8c1ea1e3e88491802952193fe1934e4344617d76ed3dd51617ea253022027cb245ef5e7e12c4604d2c097ed86ebf7bc022cf368a5be4b35d5b68df3444301210245470758ead3575eb3d03a3b5d305cfadf68925f5fecd67e7e310f21b2546df8be480800", "vin": [{"txinwitness": ["304402204947d2bfb8c1ea1e3e88491802952193fe1934e4344617d76ed3dd51617ea253022027cb245ef5e7e12c4604d2c097ed86ebf7bc022cf368a5be4b35d5b68df3444301", "0245470758ead3575eb3d03a3b5d305cfadf68925f5fecd67e7e310f21b2546df8"], "sequence": 4294967294, "scriptSig": {"hex": "1600145376d768a28081b799895bf1855d33b81656adb1", "asm": "00145376d768a28081b799895bf1855d33b81656adb1"}, "vout": 1, "txid": "491915dabadbe6035d689a3ef9c975486500ad1959a4f7c7b46041632b50739e"}], "txid": "5304dc648c39119c023e6abdfab7f7fdc62d7fa5227cd283f1cd3b2332a8f7a1", "blocktime": 1537875543, "version": 2, "confirmations": 11464, "time": 1537875543, "locktime": 542910, "vsize": 166, "size": 247}