{"hash": "530ef55efdfa8600dd0cf7dd9413d75b020b9864b58788f060e5634bbddd8818", "blockhash": "00000000000000000017f5eb5941039fbcee6240d03bc1f2f8e35350df66a1d8", "vout": [{"scriptPubKey": {"reqSigs": 1, "hex": "76a914adde28b74823104e2efee4f98945243fbaf64e5d88ac", "addresses": ["1GrL34wC9PvRi41nhEm2fYZdXYCaKE4GVC"], "asm": "OP_DUP OP_HASH160 adde28b74823104e2efee4f98945243fbaf64e5d OP_EQUALVERIFY OP_CHECKSIG", "type": "pubkeyhash"}, "value": 5.46e-06, "n": 0}, {"scriptPubKey": {"reqSigs": 1, "hex": "a9143f4eecba122ad73039d481c8d37f99cb4f887cd887", "addresses": ["37Tm3Qz8Zw2VJrheUUhArDAoq58S6YrS3g"], "asm": "OP_HASH160 3f4eecba122ad73039d481c8d37f99cb4f887cd8 OP_EQUAL", "type": "scripthash"}, "value": 0.99966902, "n": 1}, {"scriptPubKey": {"type": "nulldata", "hex": "6a146f6d6e69000000000000001f000000006b49d200", "asm": "OP_RETURN 6f6d6e69000000000000001f000000006b49d200"}, "value": 0.0, "n": 2}], "hex": "0100000001b342197cb3a9e6fc1b94dcdf36c5be95d631ec7d78dbe8458523f579c517f22701000000fdfe0000483045022100802a08d534823561a2930ed8e5856b19c29d045e5042e9e6b05f6e6823ea28450220504d84a5f7ed84c5e1489f733626206c527911aa5b21b0aca3b4d27d2e1ee5a50148304502210089e2431119bae7768e0148ce4150b98b538d3c7e017b6fdc6bbcc7157231e2980220071b504b53d157a9be830ed1a159f395dd81c1206f1531b2195b3cf5fda929d6014c6952210246ccf4de0c54cc7f3354cdd993c2c50cf965fd82238b89659fbd73a1b4bf05a121024fc59f72272a897fe43803374969f396058152fe4765a8d15216f94624257b1b21022593bc69ecbf3bbcc3c58082267cb49dadaf4ca8dbf1b2297338a9d628c4297653aeffffffff0322020000000000001976a914adde28b74823104e2efee4f98945243fbaf64e5d88acb65ff5050000000017a9143f4eecba122ad73039d481c8d37f99cb4f887cd8870000000000000000166a146f6d6e69000000000000001f000000006b49d20000000000", "vin": [{"sequence": 4294967295, "scriptSig": {"hex": "00483045022100802a08d534823561a2930ed8e5856b19c29d045e5042e9e6b05f6e6823ea28450220504d84a5f7ed84c5e1489f733626206c527911aa5b21b0aca3b4d27d2e1ee5a50148304502210089e2431119bae7768e0148ce4150b98b538d3c7e017b6fdc6bbcc7157231e2980220071b504b53d157a9be830ed1a159f395dd81c1206f1531b2195b3cf5fda929d6014c6952210246ccf4de0c54cc7f3354cdd993c2c50cf965fd82238b89659fbd73a1b4bf05a121024fc59f72272a897fe43803374969f396058152fe4765a8d15216f94624257b1b21022593bc69ecbf3bbcc3c58082267cb49dadaf4ca8dbf1b2297338a9d628c4297653ae", "asm": "0 3045022100802a08d534823561a2930ed8e5856b19c29d045e5042e9e6b05f6e6823ea28450220504d84a5f7ed84c5e1489f733626206c527911aa5b21b0aca3b4d27d2e1ee5a5[ALL] 304502210089e2431119bae7768e0148ce4150b98b538d3c7e017b6fdc6bbcc7157231e2980220071b504b53d157a9be830ed1a159f395dd81c1206f1531b2195b3cf5fda929d6[ALL] 52210246ccf4de0c54cc7f3354cdd993c2c50cf965fd82238b89659fbd73a1b4bf05a121024fc59f72272a897fe43803374969f396058152fe4765a8d15216f94624257b1b21022593bc69ecbf3bbcc3c58082267cb49dadaf4ca8dbf1b2297338a9d628c4297653ae"}, "vout": 1, "txid": "27f217c579f5238545e8db787dec31d695bec536dfdc941bfce6a9b37c1942b3"}], "txid": "530ef55efdfa8600dd0cf7dd9413d75b020b9864b58788f060e5634bbddd8818", "blocktime": 1537874412, "version": 1, "confirmations": 11467, "time": 1537874412, "locktime": 0, "vsize": 404, "size": 404}