{"hash": "dd98271a3b4b5d6dfa0974865c03631325a6c6b5284dc99c123a1d7e4dfd4dd4", "blockhash": "0000000000000000001f76057863aec43deb6fa401d9628bb513d65a8098bfab", "vout": [{"scriptPubKey": {"reqSigs": 1, "hex": "a914733a8cc52b27fbeadb1322a68ea82b68b719aee687", "addresses": ["3CCHmioK7fNQ9YibgHGnbGnpBzQXK35TqK"], "asm": "OP_HASH160 733a8cc52b27fbeadb1322a68ea82b68b719aee6 OP_EQUAL", "type": "scripthash"}, "value": 0.0019236, "n": 0}, {"scriptPubKey": {"reqSigs": 1, "hex": "a914425a42b93a420a05903a816deee2a6c382cac8bd87", "addresses": ["37jred8MrPaJkiGVBRkerpTYq87LgH4BEd"], "asm": "OP_HASH160 425a42b93a420a05903a816deee2a6c382cac8bd OP_EQUAL", "type": "scripthash"}, "value": 0.00591145, "n": 1}], "hex": "0100000000010159470f8bc351a22c180d0593ca870e074958c16977fda3b73f0e402ce4a6542f0100000023220020a708bfb7c7bbbbeadf3340beb77182d43a192cb7e6667dbefaf895e3339ea1c6ffffffff0268ef02000000000017a914733a8cc52b27fbeadb1322a68ea82b68b719aee687290509000000000017a914425a42b93a420a05903a816deee2a6c382cac8bd870400473044022021df24790e1401a10e68a62725956a5997d9015a4070262b5253f3874b0bdb4a02205afb5d5fb47ac4daa770651495692181e43a978c09b28587b789bc7276db9452014730440220738fc862213ed60d518d4cbb0874a6459985736d60bef5ee94126efc16c3e858022060a392c0eff38a7500115d18c67485a285068beee227c7490278672af2a6dd1e01475221029149f4b7a7fb02698b40b8c259b0cacc26d9c8dbec0785cc1bb475a30d709eaa21021ba7504f95428868171458363223dad7ab925c81ca917cb158e60901e81a582352ae00000000", "vin": [{"txinwitness": ["", "3044022021df24790e1401a10e68a62725956a5997d9015a4070262b5253f3874b0bdb4a02205afb5d5fb47ac4daa770651495692181e43a978c09b28587b789bc7276db945201", "30440220738fc862213ed60d518d4cbb0874a6459985736d60bef5ee94126efc16c3e858022060a392c0eff38a7500115d18c67485a285068beee227c7490278672af2a6dd1e01", "5221029149f4b7a7fb02698b40b8c259b0cacc26d9c8dbec0785cc1bb475a30d709eaa21021ba7504f95428868171458363223dad7ab925c81ca917cb158e60901e81a582352ae"], "sequence": 4294967295, "scriptSig": {"hex": "220020a708bfb7c7bbbbeadf3340beb77182d43a192cb7e6667dbefaf895e3339ea1c6", "asm": "0020a708bfb7c7bbbbeadf3340beb77182d43a192cb7e6667dbefaf895e3339ea1c6"}, "vout": 1, "txid": "2f54a6e42c400e3fb7a3fd7769c15849070e87ca93050d182ca251c38b0f4759"}], "txid": "530f2b58a31dbd44a06cff6b7b92fdb00582e6b2da4ed0078d1e0e6c74c3e013", "blocktime": 1537873891, "version": 1, "confirmations": 11478, "time": 1537873891, "locktime": 0, "vsize": 205, "size": 370}