{"hash": "9cdb4c0fb96c46852083cb1bca74467518f5586c78e2196669503f7ed367e15e", "blockhash": "0000000000000000001f0ddff1eddb255c1121bcd4da4f1bc9a0da00cae72433", "vout": [{"scriptPubKey": {"reqSigs": 1, "hex": "a914a2c0adc7bbda9a7d3ebba7a55d78ab5124a0e56687", "addresses": ["3GXaDBPq4k4xeqPEEHydEy3PvJYQ5KWiwZ"], "asm": "OP_HASH160 a2c0adc7bbda9a7d3ebba7a55d78ab5124a0e566 OP_EQUAL", "type": "scripthash"}, "value": 0.01328697, "n": 0}, {"scriptPubKey": {"reqSigs": 1, "hex": "76a9140a3195c50a139c1268b517078c4818eb7c3cee7288ac", "addresses": ["1vuA9XxA95fff3zonS6wemPTWBvQ16vN9"], "asm": "OP_DUP OP_HASH160 0a3195c50a139c1268b517078c4818eb7c3cee72 OP_EQUALVERIFY OP_CHECKSIG", "type": "pubkeyhash"}, "value": 0.00267497, "n": 1}], "hex": "0200000000010146649fbe24924af69276d1a0ee728858a066d46b10b24f2d29492d79b9bdce6a01000000171600143f9f6de3aa3b93b2487f91969a356ea35f285555feffffff02394614000000000017a914a2c0adc7bbda9a7d3ebba7a55d78ab5124a0e56687e9140400000000001976a9140a3195c50a139c1268b517078c4818eb7c3cee7288ac0247304402204c3ef92fbe7913d5e359c883c1293f0fd231631d23e6cbe598fec8c2cf35208f0220076030b20828afdaa3e9ebcb663a3353fec3aeb8476f2f0f59a0dd5706488e6701210221c71a6a9805c701c7cee21a4c96979347949b70a00073a481941650e941437511490800", "vin": [{"txinwitness": ["304402204c3ef92fbe7913d5e359c883c1293f0fd231631d23e6cbe598fec8c2cf35208f0220076030b20828afdaa3e9ebcb663a3353fec3aeb8476f2f0f59a0dd5706488e6701", "0221c71a6a9805c701c7cee21a4c96979347949b70a00073a481941650e9414375"], "sequence": 4294967294, "scriptSig": {"hex": "1600143f9f6de3aa3b93b2487f91969a356ea35f285555", "asm": "00143f9f6de3aa3b93b2487f91969a356ea35f285555"}, "vout": 1, "txid": "6acebdb9792d49292d4fb2106bd466a0588872eea0d17692f64a9224be9f6446"}], "txid": "530f54ab5a13766120b23a282c094646aa569d106964ac71e28448a0a890e48e", "blocktime": 1537872018, "version": 2, "confirmations": 11489, "time": 1537872018, "locktime": 542993, "vsize": 168, "size": 249}