{"hash": "53152a10e587e26b02fc9f8355fc4e41743a264e524d854eefd1bd24a48d9b9b", "blockhash": "0000000000000000001cda96e906b7601b7a6fb1a3b62bca570a9e5d8f4b3de1", "vout": [{"scriptPubKey": {"type": "nulldata", "hex": "6a4c50000077c60001691fdd383fb34ac530388b685b23cc0f42c2fc38c5e5bf9ae76da98a211a9add9149fbeb3492b9304853f900db5e5baa13890612d87a55c3ba461d100759d4ba30d2c37bb011d97e02cf", "asm": "OP_RETURN 000077c60001691fdd383fb34ac530388b685b23cc0f42c2fc38c5e5bf9ae76da98a211a9add9149fbeb3492b9304853f900db5e5baa13890612d87a55c3ba461d100759d4ba30d2c37bb011d97e02cf"}, "value": 0.0, "n": 0}, {"scriptPubKey": {"reqSigs": 1, "hex": "76a9144b19c02af0c6e50b93e63d6fb26cbcd9a8bd1d0588ac", "addresses": ["17r6XaJWzdvFv9QipQBBpeyvkTc18KP9UF"], "asm": "OP_DUP OP_HASH160 4b19c02af0c6e50b93e63d6fb26cbcd9a8bd1d05 OP_EQUALVERIFY OP_CHECKSIG", "type": "pubkeyhash"}, "value": 0.00638341, "n": 1}], "hex": "010000000139cbd3673aea1cd13cccdbb2e4fcfc17ad6a1ab2e027fa8061e5fca896f38dbc000000006b48304502210093f526087d5c8ff738d9dcb7b1484caf3d43e24d06ba202c27bd9535253778b20220329725929b1cc797cb32ef2f38b6b8f2950d2fc0a1e7fbe5c7fa0b2ce78f2b5001210327ef0fc3830b237a5836c7a78cde229e15a9ac7c9e39645e538a9cb57506b58affffffff020000000000000000536a4c50000077c60001691fdd383fb34ac530388b685b23cc0f42c2fc38c5e5bf9ae76da98a211a9add9149fbeb3492b9304853f900db5e5baa13890612d87a55c3ba461d100759d4ba30d2c37bb011d97e02cf85bd0900000000001976a9144b19c02af0c6e50b93e63d6fb26cbcd9a8bd1d0588ac00000000", "vin": [{"sequence": 4294967295, "scriptSig": {"hex": "48304502210093f526087d5c8ff738d9dcb7b1484caf3d43e24d06ba202c27bd9535253778b20220329725929b1cc797cb32ef2f38b6b8f2950d2fc0a1e7fbe5c7fa0b2ce78f2b5001210327ef0fc3830b237a5836c7a78cde229e15a9ac7c9e39645e538a9cb57506b58a", "asm": "304502210093f526087d5c8ff738d9dcb7b1484caf3d43e24d06ba202c27bd9535253778b20220329725929b1cc797cb32ef2f38b6b8f2950d2fc0a1e7fbe5c7fa0b2ce78f2b50[ALL] 0327ef0fc3830b237a5836c7a78cde229e15a9ac7c9e39645e538a9cb57506b58a"}, "vout": 0, "txid": "bc8df396a8fce56180fa27e0b21a6aad17fcfce4b2dbcc3cd11cea3a67d3cb39"}], "txid": "53152a10e587e26b02fc9f8355fc4e41743a264e524d854eefd1bd24a48d9b9b", "blocktime": 1537873282, "version": 1, "confirmations": 11484, "time": 1537873282, "locktime": 0, "vsize": 284, "size": 284}