{"hash": "5318fdc3eed195eeddea9bb12a4e432595e39cfac28c8c263346298f8e0d3157", "blockhash": "0000000000000000001e0dab787dd257d1dbfcb92a98c2207d5e1078be1f4165", "vout": [{"scriptPubKey": {"reqSigs": 1, "hex": "76a914f5fc968992db2ff6f4359b142b2833a6a157d93388ac", "addresses": ["1PRf988VhRzj9d99cVRnwXfmaaNe21Weus"], "asm": "OP_DUP OP_HASH160 f5fc968992db2ff6f4359b142b2833a6a157d933 OP_EQUALVERIFY OP_CHECKSIG", "type": "pubkeyhash"}, "value": 0.00015855, "n": 0}, {"scriptPubKey": {"reqSigs": 1, "hex": "76a91464d7575707cb1efdb39ae67433e7600f5eeb2ea588ac", "addresses": ["1ACCYMJG2aisEywxZMGZynxpxBRJk6kECj"], "asm": "OP_DUP OP_HASH160 64d7575707cb1efdb39ae67433e7600f5eeb2ea5 OP_EQUALVERIFY OP_CHECKSIG", "type": "pubkeyhash"}, "value": 0.093726, "n": 1}], "hex": "01000000029538b5ac4658b37a061f2100b882b9ed595d5c81a2fa59084b9e3f74412a662c000000006a47304402207f6e16d15117e954170bcdb9a98841e3df270c99514e2af2eb91ce3f40d7b6d602202141b10fd25b621b146e3dffdd9a6dcc4c118e577bedeb56e85826e93855bb7c0121024c533bd301b50b4ff1cf2bf930f8e9b8fde4ba3266766e896690a4e4f1904185ffffffff77930d79bee6fc9001e70440a0ed3e39ac6c8aa6d7f5023f31a0ff85e7cb956b000000006a47304402204b03b10730ac211122c9c48ddfa085beaeda23a396d3a9fd5487d7644bea710602205058cff0618dccf31be911bb678402807e0197e73895230cda7b55c42e394046012103066a908af94c4ef936c11fb6ca9f8b7fdc0b126c630aa62dc4b602c29e0f19dfffffffff02ef3d0000000000001976a914f5fc968992db2ff6f4359b142b2833a6a157d93388acb8038f00000000001976a91464d7575707cb1efdb39ae67433e7600f5eeb2ea588ac00000000", "vin": [{"sequence": 4294967295, "scriptSig": {"hex": "47304402207f6e16d15117e954170bcdb9a98841e3df270c99514e2af2eb91ce3f40d7b6d602202141b10fd25b621b146e3dffdd9a6dcc4c118e577bedeb56e85826e93855bb7c0121024c533bd301b50b4ff1cf2bf930f8e9b8fde4ba3266766e896690a4e4f1904185", "asm": "304402207f6e16d15117e954170bcdb9a98841e3df270c99514e2af2eb91ce3f40d7b6d602202141b10fd25b621b146e3dffdd9a6dcc4c118e577bedeb56e85826e93855bb7c[ALL] 024c533bd301b50b4ff1cf2bf930f8e9b8fde4ba3266766e896690a4e4f1904185"}, "vout": 0, "txid": "2c662a41743f9e4b0859faa2815c5d59edb982b800211f067ab35846acb53895"}, {"sequence": 4294967295, "scriptSig": {"hex": "47304402204b03b10730ac211122c9c48ddfa085beaeda23a396d3a9fd5487d7644bea710602205058cff0618dccf31be911bb678402807e0197e73895230cda7b55c42e394046012103066a908af94c4ef936c11fb6ca9f8b7fdc0b126c630aa62dc4b602c29e0f19df", "asm": "304402204b03b10730ac211122c9c48ddfa085beaeda23a396d3a9fd5487d7644bea710602205058cff0618dccf31be911bb678402807e0197e73895230cda7b55c42e394046[ALL] 03066a908af94c4ef936c11fb6ca9f8b7fdc0b126c630aa62dc4b602c29e0f19df"}, "vout": 0, "txid": "6b95cbe785ffa0313f02f5d7a68a6cac393eeda04004e70190fce6be790d9377"}], "txid": "5318fdc3eed195eeddea9bb12a4e432595e39cfac28c8c263346298f8e0d3157", "blocktime": 1537872475, "version": 1, "confirmations": 11486, "time": 1537872475, "locktime": 0, "vsize": 372, "size": 372}