{"hash": "531ed5a01b8ff21e717cd4d33bac5c4c21393ec1b2cbb4beac85160a7e36956d", "blockhash": "00000000000000000018f53835495a110e01622372bf6ae95dc86f2b0ab887b0", "vout": [{"scriptPubKey": {"type": "nulldata", "hex": "6a146f6d6e69000000000000001f0000000e42a41450", "asm": "OP_RETURN 6f6d6e69000000000000001f0000000e42a41450"}, "value": 0.0, "n": 0}, {"scriptPubKey": {"reqSigs": 1, "hex": "76a914a25dec4d0011064ef106a983c39c7a540699f22088ac", "addresses": ["1FoWyxwPXuj4C6abqwhjDWdz6D4PZgYRjA"], "asm": "OP_DUP OP_HASH160 a25dec4d0011064ef106a983c39c7a540699f220 OP_EQUALVERIFY OP_CHECKSIG", "type": "pubkeyhash"}, "value": 5.46e-06, "n": 1}, {"scriptPubKey": {"reqSigs": 1, "hex": "76a9145248da51b7d07b8773f4ccfb29c4b424de807add88ac", "addresses": ["18W5gdfAPuADzKAqLA8ArBCrDRZdFGxz9j"], "asm": "OP_DUP OP_HASH160 5248da51b7d07b8773f4ccfb29c4b424de807add OP_EQUALVERIFY OP_CHECKSIG", "type": "pubkeyhash"}, "value": 0.00499066, "n": 2}], "hex": "01000000010d01a2029185c1752ddb6f4edd511a7d23d380cfcef6d7a0ca449357da1f4f33040000006a473044022054531352ac1a68dba31787a833bcc15da642c7612f13289c3434f19efb1bdb95022021e4e7bb815c9b885a34a4ec9b166425d6c9135525a76260957e19d0f303cc2a01210281b7b7d825f3892ec2e27d505eb6f3d34f9c05d0d5a6404571ca119467b7483dfeffffff030000000000000000166a146f6d6e69000000000000001f0000000e42a4145022020000000000001976a914a25dec4d0011064ef106a983c39c7a540699f22088ac7a9d0700000000001976a9145248da51b7d07b8773f4ccfb29c4b424de807add88ac0e490800", "vin": [{"sequence": 4294967294, "scriptSig": {"hex": "473044022054531352ac1a68dba31787a833bcc15da642c7612f13289c3434f19efb1bdb95022021e4e7bb815c9b885a34a4ec9b166425d6c9135525a76260957e19d0f303cc2a01210281b7b7d825f3892ec2e27d505eb6f3d34f9c05d0d5a6404571ca119467b7483d", "asm": "3044022054531352ac1a68dba31787a833bcc15da642c7612f13289c3434f19efb1bdb95022021e4e7bb815c9b885a34a4ec9b166425d6c9135525a76260957e19d0f303cc2a[ALL] 0281b7b7d825f3892ec2e27d505eb6f3d34f9c05d0d5a6404571ca119467b7483d"}, "vout": 4, "txid": "334f1fda579344caa0d7f6cecf80d3237d1a51dd4e6fdb2d75c1859102a2010d"}], "txid": "531ed5a01b8ff21e717cd4d33bac5c4c21393ec1b2cbb4beac85160a7e36956d", "blocktime": 1537870928, "version": 1, "confirmations": 11514, "time": 1537870928, "locktime": 542990, "vsize": 256, "size": 256}