{"hash": "531f9a9f147f6bf90e457eb81660505383e123836e8dc33641132317333fd2b8", "blockhash": "00000000000000000017f5eb5941039fbcee6240d03bc1f2f8e35350df66a1d8", "vout": [{"scriptPubKey": {"reqSigs": 1, "hex": "a914d36ea7faedd36201e8f0184edb2891ca7fea113087", "addresses": ["3Lxy4YbmcSJrhtHvxHRrW7LK5k4TL3g6V3"], "asm": "OP_HASH160 d36ea7faedd36201e8f0184edb2891ca7fea1130 OP_EQUAL", "type": "scripthash"}, "value": 0.00243, "n": 0}, {"scriptPubKey": {"reqSigs": 1, "hex": "76a914bc7a48a210c83006f6c5aff6a51fe78fac481d4488ac", "addresses": ["1JBaXVCNjiVj2WdYpKzmcukkBxjhBh3hdB"], "asm": "OP_DUP OP_HASH160 bc7a48a210c83006f6c5aff6a51fe78fac481d44 OP_EQUALVERIFY OP_CHECKSIG", "type": "pubkeyhash"}, "value": 0.26394688, "n": 1}], "hex": "010000000171ebe240e9281221cff445d8ebe78181db0d3b3bd94ae46d9ae89fa25b7dc467010000006b483045022100e4b3dad1498b48d5dc3c5b236deab7988c157d9e5d7353ffa4ceef7273b695a6022004682c519cc39680bd89be43d4ff86f00a6ad2c1312a2f56a4f05514b70a600f01210289f766460c37c165cac0cbd5578a4fb125b31cb4a3b1384a7f82d78c7fa8a19dffffffff0238b503000000000017a914d36ea7faedd36201e8f0184edb2891ca7fea11308740c09201000000001976a914bc7a48a210c83006f6c5aff6a51fe78fac481d4488ac00000000", "vin": [{"sequence": 4294967295, "scriptSig": {"hex": "483045022100e4b3dad1498b48d5dc3c5b236deab7988c157d9e5d7353ffa4ceef7273b695a6022004682c519cc39680bd89be43d4ff86f00a6ad2c1312a2f56a4f05514b70a600f01210289f766460c37c165cac0cbd5578a4fb125b31cb4a3b1384a7f82d78c7fa8a19d", "asm": "3045022100e4b3dad1498b48d5dc3c5b236deab7988c157d9e5d7353ffa4ceef7273b695a6022004682c519cc39680bd89be43d4ff86f00a6ad2c1312a2f56a4f05514b70a600f[ALL] 0289f766460c37c165cac0cbd5578a4fb125b31cb4a3b1384a7f82d78c7fa8a19d"}, "vout": 1, "txid": "67c47d5ba29fe89a6de44ad93b3b0ddb8181e7ebd845f4cf211228e940e2eb71"}], "txid": "531f9a9f147f6bf90e457eb81660505383e123836e8dc33641132317333fd2b8", "blocktime": 1537874412, "version": 1, "confirmations": 11467, "time": 1537874412, "locktime": 0, "vsize": 224, "size": 224}