{"hash": "5320f419d0649389755f557854d4c3a9cf11724807f6db7429a7904361bcaf22", "blockhash": "0000000000000000000e13cef7c366c0283d82e591d1acd082e914b08063cdf1", "vout": [{"scriptPubKey": {"reqSigs": 1, "hex": "76a914cdbd8e29415d50acc39d44a381824e01bcef2dde88ac", "addresses": ["1KkrbrrYotQRdAWHekiJYv8fJoiYxhTaAF"], "asm": "OP_DUP OP_HASH160 cdbd8e29415d50acc39d44a381824e01bcef2dde OP_EQUALVERIFY OP_CHECKSIG", "type": "pubkeyhash"}, "value": 0.0068738, "n": 0}], "hex": "01000000038774bb5e919238044294369e90b4f7797c1003be0f627fc5314cc616a43e8499000000006b483045022100d6dceb00f50dbd30d4c2a028003e3761a976be61261953afa2ac6572fa9eb96202202e83d720af2873ef8a7144febb9d7099135fff5aad7e9554f0a3a819fe98a940012102ce28de2188d84691dc6b2da99b3f47c66991df1b1f6d5cf91a213e9da1e00ccbffffffff74e334c2e713c36b8c7e9921cd525fd3188206cb2ff10e905b874706f79459a5000000006a47304402205c22e3a8da0cc0408b0b73bc288d140a48f5d154b92284df770095d3b557e2a402205b0cb228b315500e8da6e4cd2c0e241f31c9ef3d11e1357841e5e006f7576a06012103c74d04b415e1faf56f928b7d50eecdd8edcc926fc360694cf8dd0c3d5f8b0f1dffffffff20f64af469086e65c926edb06e95d8f2ea4229667db8ea8989e37f9e2a03d9fd000000006b4830450221009a2c299b2397dcdd8ec0124935e8a7c57ed30aec21234b75b8525293ba713d8902204bb96de1c122059b78635c604309e4b1a8f01d7c7fd3eb2fc4a9ebe29632240f0121028f79dd38920133a7ea225c2527bcf2ea9a23f24f35864ebc02900ae67e56acc8ffffffff01147d0a00000000001976a914cdbd8e29415d50acc39d44a381824e01bcef2dde88ac00000000", "vin": [{"sequence": 4294967295, "scriptSig": {"hex": "483045022100d6dceb00f50dbd30d4c2a028003e3761a976be61261953afa2ac6572fa9eb96202202e83d720af2873ef8a7144febb9d7099135fff5aad7e9554f0a3a819fe98a940012102ce28de2188d84691dc6b2da99b3f47c66991df1b1f6d5cf91a213e9da1e00ccb", "asm": "3045022100d6dceb00f50dbd30d4c2a028003e3761a976be61261953afa2ac6572fa9eb96202202e83d720af2873ef8a7144febb9d7099135fff5aad7e9554f0a3a819fe98a940[ALL] 02ce28de2188d84691dc6b2da99b3f47c66991df1b1f6d5cf91a213e9da1e00ccb"}, "vout": 0, "txid": "99843ea416c64c31c57f620fbe03107c79f7b4909e369442043892915ebb7487"}, {"sequence": 4294967295, "scriptSig": {"hex": "47304402205c22e3a8da0cc0408b0b73bc288d140a48f5d154b92284df770095d3b557e2a402205b0cb228b315500e8da6e4cd2c0e241f31c9ef3d11e1357841e5e006f7576a06012103c74d04b415e1faf56f928b7d50eecdd8edcc926fc360694cf8dd0c3d5f8b0f1d", "asm": "304402205c22e3a8da0cc0408b0b73bc288d140a48f5d154b92284df770095d3b557e2a402205b0cb228b315500e8da6e4cd2c0e241f31c9ef3d11e1357841e5e006f7576a06[ALL] 03c74d04b415e1faf56f928b7d50eecdd8edcc926fc360694cf8dd0c3d5f8b0f1d"}, "vout": 0, "txid": "a55994f70647875b900ef12fcb068218d35f52cd21997e8c6bc313e7c234e374"}, {"sequence": 4294967295, "scriptSig": {"hex": "4830450221009a2c299b2397dcdd8ec0124935e8a7c57ed30aec21234b75b8525293ba713d8902204bb96de1c122059b78635c604309e4b1a8f01d7c7fd3eb2fc4a9ebe29632240f0121028f79dd38920133a7ea225c2527bcf2ea9a23f24f35864ebc02900ae67e56acc8", "asm": "30450221009a2c299b2397dcdd8ec0124935e8a7c57ed30aec21234b75b8525293ba713d8902204bb96de1c122059b78635c604309e4b1a8f01d7c7fd3eb2fc4a9ebe29632240f[ALL] 028f79dd38920133a7ea225c2527bcf2ea9a23f24f35864ebc02900ae67e56acc8"}, "vout": 0, "txid": "fdd9032a9e7fe38989eab87d662942eaf2d8956eb0ed26c9656e0869f44af620"}], "txid": "5320f419d0649389755f557854d4c3a9cf11724807f6db7429a7904361bcaf22", "blocktime": 1537871767, "version": 1, "confirmations": 11495, "time": 1537871767, "locktime": 0, "vsize": 487, "size": 487}