{"hash": "0c8348795c164ab8ddf46a89bc0d04fd88bcaa52e7556f0eb5d98b67cdcf02ed", "blockhash": "0000000000000000001cda96e906b7601b7a6fb1a3b62bca570a9e5d8f4b3de1", "vout": [{"scriptPubKey": {"reqSigs": 1, "hex": "76a9149a1b8f9b1fa2d2297863adb1cb11c71df455684888ac", "addresses": ["1F3r5We2zwNiSzG6GQUTTWnnPMCz2HJbJu"], "asm": "OP_DUP OP_HASH160 9a1b8f9b1fa2d2297863adb1cb11c71df4556848 OP_EQUALVERIFY OP_CHECKSIG", "type": "pubkeyhash"}, "value": 2.706e-05, "n": 0}, {"scriptPubKey": {"reqSigs": 1, "hex": "a914e8db75c900cf08f06518e96d167331f2a4abfb3387", "addresses": ["3NvFbQMAkkqEFj4i1sYPPLkSWzxTFUchjA"], "asm": "OP_HASH160 e8db75c900cf08f06518e96d167331f2a4abfb33 OP_EQUAL", "type": "scripthash"}, "value": 0.00989558, "n": 1}], "hex": "01000000000101b3903de17e739770f30f5b665bdb04ea90970e4fbc1b4b7dff06503f1e2aa6360100000023220020941cfaff8837763dc1f69ff82b6d6553fdea17a41cfc29a04403293eedd8ccc7ffffffff02920a0000000000001976a9149a1b8f9b1fa2d2297863adb1cb11c71df455684888ac76190f000000000017a914e8db75c900cf08f06518e96d167331f2a4abfb3387040048304502210089b7bdffad1d768b86bd9bb555761d82219bef449afbc9974f023b3424b186a702201913dde02e2547514b4e7a4965374967b4b19ecf533f1e6101cb49cb9e2d5bdd0147304402207dea193e00e269568e68bd1e7d82e423909bde3446b2e6a4426be5ede2ef2a56022075a5056e079e75fa7ec27fecf1a672b084a3f47b963b93ddfbf5e8bf7f522c5f0147522102531db3a5883f29bab4241dd0cd726936667bcda445d89bdd22244e828b6993342103148c80a5bdfddb05ff5bcffc397c8ca748d8b435ec6a175bc9d7bfc7fc6f853752ae00000000", "vin": [{"txinwitness": ["", "304502210089b7bdffad1d768b86bd9bb555761d82219bef449afbc9974f023b3424b186a702201913dde02e2547514b4e7a4965374967b4b19ecf533f1e6101cb49cb9e2d5bdd01", "304402207dea193e00e269568e68bd1e7d82e423909bde3446b2e6a4426be5ede2ef2a56022075a5056e079e75fa7ec27fecf1a672b084a3f47b963b93ddfbf5e8bf7f522c5f01", "522102531db3a5883f29bab4241dd0cd726936667bcda445d89bdd22244e828b6993342103148c80a5bdfddb05ff5bcffc397c8ca748d8b435ec6a175bc9d7bfc7fc6f853752ae"], "sequence": 4294967295, "scriptSig": {"hex": "220020941cfaff8837763dc1f69ff82b6d6553fdea17a41cfc29a04403293eedd8ccc7", "asm": "0020941cfaff8837763dc1f69ff82b6d6553fdea17a41cfc29a04403293eedd8ccc7"}, "vout": 1, "txid": "36a62a1e3f5006ff7d4b1bbc4f0e9790ea04db5b665b0ff37097737ee13d90b3"}], "txid": "5324d5fc2ef83e001b31e532e6d435562d86b2eea0504b952edc1ecd2d33ef97", "blocktime": 1537873282, "version": 1, "confirmations": 11485, "time": 1537873282, "locktime": 0, "vsize": 208, "size": 373}