{"hash": "53388bd0a31e1e164ae600afbc2ccb96986b56389171b8c1a22fa0b77a953c88", "blockhash": "0000000000000000001f76057863aec43deb6fa401d9628bb513d65a8098bfab", "vout": [{"scriptPubKey": {"reqSigs": 1, "hex": "76a9140e6a369bc0fe51c43430ef386a1273bd68a5044d88ac", "addresses": ["12KDhWw41akdHoAZj1GFbXCgotM6xEATY9"], "asm": "OP_DUP OP_HASH160 0e6a369bc0fe51c43430ef386a1273bd68a5044d OP_EQUALVERIFY OP_CHECKSIG", "type": "pubkeyhash"}, "value": 3.658e-05, "n": 0}, {"scriptPubKey": {"reqSigs": 1, "hex": "76a91478fa5f612ac3fe0eb46ba28014b6727511bd0b4988ac", "addresses": ["1C2g2DFbNwnwdUAA5GXEpRwLBbxSoyQP93"], "asm": "OP_DUP OP_HASH160 78fa5f612ac3fe0eb46ba28014b6727511bd0b49 OP_EQUALVERIFY OP_CHECKSIG", "type": "pubkeyhash"}, "value": 0.00187295, "n": 1}], "hex": "010000000395aff50080b26ac57bf5d7fc308465f420918c7195007f92311db5756a03f92b000000006a4730440220112943a1962a7d85fbb31e529466951048ea645f144f236c0827fa9f673ac9aa0220588ce2d28e90df9806cb0de710b267072bf61d86036b2a7c8deeaa1092758ab40121036d58798d07ec1f0dac4477784d453129e6dbb2c02cd626a0147ce11348526293ffffffffb4135665e1d0c0fabe814e051a851caab3cbd0bc34947d0920b029d1790a3e70000000006a47304402200ccb860374d136fabe834f124f90adda480678c4195b95e1fb63a054436092fd0220459265458992f6e1f2f7b2fbc93b896453ac8d3ad279e3b785d6fa3e6917f60a0121027b0893cb9776ce4371f975b32838fc097f146e62226ff25ec9c5f13982819167ffffffff6302e6416f6836c33d681a03a9b47632a8652516f9de4141156b6d34774339f7000000006b483045022100eaa80bd9af9b680f10b3e677cf69a26e3c84b8133ea636fcfac83461644a6f42022042319b8de2359f1e30e258c6ad8afb3ce442042b74cb65e182492e7dbc1c7bd7012102b212c53ea9f85c1ea3c72a48c9f106557e58770e6011836b53a350986a60b6b4ffffffff024a0e0000000000001976a9140e6a369bc0fe51c43430ef386a1273bd68a5044d88ac9fdb0200000000001976a91478fa5f612ac3fe0eb46ba28014b6727511bd0b4988ac00000000", "vin": [{"sequence": 4294967295, "scriptSig": {"hex": "4730440220112943a1962a7d85fbb31e529466951048ea645f144f236c0827fa9f673ac9aa0220588ce2d28e90df9806cb0de710b267072bf61d86036b2a7c8deeaa1092758ab40121036d58798d07ec1f0dac4477784d453129e6dbb2c02cd626a0147ce11348526293", "asm": "30440220112943a1962a7d85fbb31e529466951048ea645f144f236c0827fa9f673ac9aa0220588ce2d28e90df9806cb0de710b267072bf61d86036b2a7c8deeaa1092758ab4[ALL] 036d58798d07ec1f0dac4477784d453129e6dbb2c02cd626a0147ce11348526293"}, "vout": 0, "txid": "2bf9036a75b51d31927f0095718c9120f4658430fcd7f57bc56ab28000f5af95"}, {"sequence": 4294967295, "scriptSig": {"hex": "47304402200ccb860374d136fabe834f124f90adda480678c4195b95e1fb63a054436092fd0220459265458992f6e1f2f7b2fbc93b896453ac8d3ad279e3b785d6fa3e6917f60a0121027b0893cb9776ce4371f975b32838fc097f146e62226ff25ec9c5f13982819167", "asm": "304402200ccb860374d136fabe834f124f90adda480678c4195b95e1fb63a054436092fd0220459265458992f6e1f2f7b2fbc93b896453ac8d3ad279e3b785d6fa3e6917f60a[ALL] 027b0893cb9776ce4371f975b32838fc097f146e62226ff25ec9c5f13982819167"}, "vout": 0, "txid": "703e0a79d129b020097d9434bcd0cbb3aa1c851a054e81befac0d0e1655613b4"}, {"sequence": 4294967295, "scriptSig": {"hex": "483045022100eaa80bd9af9b680f10b3e677cf69a26e3c84b8133ea636fcfac83461644a6f42022042319b8de2359f1e30e258c6ad8afb3ce442042b74cb65e182492e7dbc1c7bd7012102b212c53ea9f85c1ea3c72a48c9f106557e58770e6011836b53a350986a60b6b4", "asm": "3045022100eaa80bd9af9b680f10b3e677cf69a26e3c84b8133ea636fcfac83461644a6f42022042319b8de2359f1e30e258c6ad8afb3ce442042b74cb65e182492e7dbc1c7bd7[ALL] 02b212c53ea9f85c1ea3c72a48c9f106557e58770e6011836b53a350986a60b6b4"}, "vout": 0, "txid": "f7394377346d6b154141def9162565a83276b4a9031a683dc336686f41e60263"}], "txid": "53388bd0a31e1e164ae600afbc2ccb96986b56389171b8c1a22fa0b77a953c88", "blocktime": 1537873891, "version": 1, "confirmations": 11477, "time": 1537873891, "locktime": 0, "vsize": 520, "size": 520}