{"hash": "533b6f6c586aa3505086c7a3f20bf0efebd4cfdece6191150c99cda8044cccdf", "blockhash": "00000000000000000017f5eb5941039fbcee6240d03bc1f2f8e35350df66a1d8", "vout": [{"scriptPubKey": {"type": "nulldata", "hex": "6a146f6d6e69000000000000001f0000006f2d37c700", "asm": "OP_RETURN 6f6d6e69000000000000001f0000006f2d37c700"}, "value": 0.0, "n": 0}, {"scriptPubKey": {"reqSigs": 1, "hex": "76a9145181a85aec395b9268d061126a1a7c00445dc98588ac", "addresses": ["18Ry4JuwxKmaATuxATPHQbWJHLZ2LgHBcX"], "asm": "OP_DUP OP_HASH160 5181a85aec395b9268d061126a1a7c00445dc985 OP_EQUALVERIFY OP_CHECKSIG", "type": "pubkeyhash"}, "value": 0.25532817, "n": 1}, {"scriptPubKey": {"reqSigs": 1, "hex": "a91434b1d04be897e9dba55f1c13214fe0b98e3ae2c987", "addresses": ["36Ve5ECwjQPDWx9FfPksNfxGauhfB1bVex"], "asm": "OP_HASH160 34b1d04be897e9dba55f1c13214fe0b98e3ae2c9 OP_EQUAL", "type": "scripthash"}, "value": 5.4e-06, "n": 2}], "hex": "0100000001f5867491823f928ad3c5489ae6c738758714490b4b6416ac845a971bd6ac317d010000006b483045022100bc8e51f4f53c216a8af123002b3c3f8efc53686035bb608c559a6db6fe4cfae00220164e745055a058a1e22219f11e9c4858cc0bab4d0fa2d854a06446a796ac0e7b0121032e14bb0494647a09c808e74e5913c8c3be1707669d9f693459e4ab6899226190feffffff030000000000000000166a146f6d6e69000000000000001f0000006f2d37c70091998501000000001976a9145181a85aec395b9268d061126a1a7c00445dc98588ac1c0200000000000017a91434b1d04be897e9dba55f1c13214fe0b98e3ae2c98715490800", "vin": [{"sequence": 4294967294, "scriptSig": {"hex": "483045022100bc8e51f4f53c216a8af123002b3c3f8efc53686035bb608c559a6db6fe4cfae00220164e745055a058a1e22219f11e9c4858cc0bab4d0fa2d854a06446a796ac0e7b0121032e14bb0494647a09c808e74e5913c8c3be1707669d9f693459e4ab6899226190", "asm": "3045022100bc8e51f4f53c216a8af123002b3c3f8efc53686035bb608c559a6db6fe4cfae00220164e745055a058a1e22219f11e9c4858cc0bab4d0fa2d854a06446a796ac0e7b[ALL] 032e14bb0494647a09c808e74e5913c8c3be1707669d9f693459e4ab6899226190"}, "vout": 1, "txid": "7d31acd61b975a84ac16644b0b4914877538c7e69a48c5d38a923f82917486f5"}], "txid": "533b6f6c586aa3505086c7a3f20bf0efebd4cfdece6191150c99cda8044cccdf", "blocktime": 1537874412, "version": 1, "confirmations": 11467, "time": 1537874412, "locktime": 542997, "vsize": 255, "size": 255}