{"hash": "9ce8e2f94ddf8f682dad4b8c54308bcf020c8b64a4df23eb5a60c7c893a39ce9", "blockhash": "0000000000000000001f76057863aec43deb6fa401d9628bb513d65a8098bfab", "vout": [{"scriptPubKey": {"reqSigs": 1, "hex": "a91432b5aa450d0ec2dc0fa69ef20c6ad6f410066d8187", "addresses": ["36K9LSz7Mi9k9ETVjgcf6ihYGoMevyofPK"], "asm": "OP_HASH160 32b5aa450d0ec2dc0fa69ef20c6ad6f410066d81 OP_EQUAL", "type": "scripthash"}, "value": 0.01054003, "n": 0}, {"scriptPubKey": {"reqSigs": 1, "hex": "76a914c67554b94e8ebd5424c044bbfebd5469804b64e788ac", "addresses": ["1K6MMHEfxwadrBy6yER3H7wwtqqXAVaSkW"], "asm": "OP_DUP OP_HASH160 c67554b94e8ebd5424c044bbfebd5469804b64e7 OP_EQUALVERIFY OP_CHECKSIG", "type": "pubkeyhash"}, "value": 0.016737, "n": 1}], "hex": "020000000001025f20d2dc6ffc823cfdad87f0335d714b56887a8dba7d4ca91368c220d330887800000000171600147292e4a750dbcafa296129da42c9f2b1234381f1feffffffaa9eddd7dc08046858e95039214af7637bb920723f3c63c52961a775c5d6127301000000171600147c97ac95e415bb2407d14912cf57539db03d5952feffffff02331510000000000017a91432b5aa450d0ec2dc0fa69ef20c6ad6f410066d8187e4891900000000001976a914c67554b94e8ebd5424c044bbfebd5469804b64e788ac02483045022100a28557efbc86308a510dba36f593bac62b2d830c10aca1c26ddb15d4b23d8a83022025ad29058184a98800d6904a5d9c3c78b38a4c089033ce743bc9bdaa7a7b1240012102f67cce561df72c7c120ece8a3bd5b084a434a6f3365e31e738b663dbeabe3b4602483045022100fed15bafcff25743d0446ecb0f3389f8e58b0dbb892fe4dc478288d0fcb22f8b02202998c3ba1cbfb402a245691aca855501c22bc32a53261e143fd01541bff7fc8101210231a89b1cef4b2a30b38dfb43bd3ceddc4debd935aeb0181a9c6078c973305bd114490800", "vin": [{"txinwitness": ["3045022100a28557efbc86308a510dba36f593bac62b2d830c10aca1c26ddb15d4b23d8a83022025ad29058184a98800d6904a5d9c3c78b38a4c089033ce743bc9bdaa7a7b124001", "02f67cce561df72c7c120ece8a3bd5b084a434a6f3365e31e738b663dbeabe3b46"], "sequence": 4294967294, "scriptSig": {"hex": "1600147292e4a750dbcafa296129da42c9f2b1234381f1", "asm": "00147292e4a750dbcafa296129da42c9f2b1234381f1"}, "vout": 0, "txid": "788830d320c26813a94c7dba8d7a88564b715d33f087adfd3c82fc6fdcd2205f"}, {"txinwitness": ["3045022100fed15bafcff25743d0446ecb0f3389f8e58b0dbb892fe4dc478288d0fcb22f8b02202998c3ba1cbfb402a245691aca855501c22bc32a53261e143fd01541bff7fc8101", "0231a89b1cef4b2a30b38dfb43bd3ceddc4debd935aeb0181a9c6078c973305bd1"], "sequence": 4294967294, "scriptSig": {"hex": "1600147c97ac95e415bb2407d14912cf57539db03d5952", "asm": "00147c97ac95e415bb2407d14912cf57539db03d5952"}, "vout": 1, "txid": "7312d6c575a76129c5633c3f7220b97b63f74a213950e958680408dcd7dd9eaa"}], "txid": "533c0c2af645e5d7aeca6a178c37214779cf08fa122a18b5b36bd1c9b497546f", "blocktime": 1537873891, "version": 2, "confirmations": 11474, "time": 1537873891, "locktime": 542996, "vsize": 259, "size": 422}