{"hash": "533d0e5a6f7e3ee842b25ea7fa5e29a0db21063550e46b64c54afc3c3bf74d02", "blockhash": "0000000000000000001e0dab787dd257d1dbfcb92a98c2207d5e1078be1f4165", "vout": [{"scriptPubKey": {"reqSigs": 1, "hex": "76a9146bf60c15fb16a84fc80b18452cfe7044aa09aa2d88ac", "addresses": ["1Aqr4BmqDba2FBdV5jkgY9uVufUytHCb6y"], "asm": "OP_DUP OP_HASH160 6bf60c15fb16a84fc80b18452cfe7044aa09aa2d OP_EQUALVERIFY OP_CHECKSIG", "type": "pubkeyhash"}, "value": 0.00985515, "n": 0}, {"scriptPubKey": {"type": "nulldata", "hex": "6a146f6d6e69000000000000001f0000000005f5e100", "asm": "OP_RETURN 6f6d6e69000000000000001f0000000005f5e100"}, "value": 0.0, "n": 1}, {"scriptPubKey": {"reqSigs": 1, "hex": "76a9146363ffacf08284093feaef72376f20966601e3d788ac", "addresses": ["1A4Xh2SxvMkvapkq3cxwZMXNS3xbENTtgQ"], "asm": "OP_DUP OP_HASH160 6363ffacf08284093feaef72376f20966601e3d7 OP_EQUALVERIFY OP_CHECKSIG", "type": "pubkeyhash"}, "value": 5.46e-06, "n": 2}], "hex": "01000000011598247f8aebf27a9d517f665dbe1603a7bedc6ba6f313ac17a04fe3dae5e1a8010000008b483045022100c60838565b48b7496a39dc6a4ea0ec480c00101f612a12daffc8c13aceb71e5d02200407a2923cab5735fbba1a4b32c8d07c2c1a548efb97f848e473b0b49c8774ed01410481ed6827ff2efb0d19db4a4a142fea5f971d0c484895f928fd25e7dce7cebade6735b93c66dd77d420593e7182c946e29a1345d0c7e66e3fd39ce1dca2ee92fdffffffff03ab090f00000000001976a9146bf60c15fb16a84fc80b18452cfe7044aa09aa2d88ac0000000000000000166a146f6d6e69000000000000001f0000000005f5e10022020000000000001976a9146363ffacf08284093feaef72376f20966601e3d788ac00000000", "vin": [{"sequence": 4294967295, "scriptSig": {"hex": "483045022100c60838565b48b7496a39dc6a4ea0ec480c00101f612a12daffc8c13aceb71e5d02200407a2923cab5735fbba1a4b32c8d07c2c1a548efb97f848e473b0b49c8774ed01410481ed6827ff2efb0d19db4a4a142fea5f971d0c484895f928fd25e7dce7cebade6735b93c66dd77d420593e7182c946e29a1345d0c7e66e3fd39ce1dca2ee92fd", "asm": "3045022100c60838565b48b7496a39dc6a4ea0ec480c00101f612a12daffc8c13aceb71e5d02200407a2923cab5735fbba1a4b32c8d07c2c1a548efb97f848e473b0b49c8774ed[ALL] 0481ed6827ff2efb0d19db4a4a142fea5f971d0c484895f928fd25e7dce7cebade6735b93c66dd77d420593e7182c946e29a1345d0c7e66e3fd39ce1dca2ee92fd"}, "vout": 1, "txid": "a8e1e5dae34fa017ac13f3a66bdcbea70316be5d667f519d7af2eb8a7f249815"}], "txid": "533d0e5a6f7e3ee842b25ea7fa5e29a0db21063550e46b64c54afc3c3bf74d02", "blocktime": 1537872475, "version": 1, "confirmations": 11486, "time": 1537872475, "locktime": 0, "vsize": 289, "size": 289}