{"hash": "5341e64be92e42dc73b97ccbe6041d155f0d32ec53880d65949a5b4ee7351b14", "blockhash": "0000000000000000001cda96e906b7601b7a6fb1a3b62bca570a9e5d8f4b3de1", "vout": [{"scriptPubKey": {"reqSigs": 1, "hex": "76a914e5b68ea16eccc6ed19ad2f951708ba232d53ab4788ac", "addresses": ["1MwcSDu4US5Mqy1ZC2Ne19HsH1TWqWdqQC"], "asm": "OP_DUP OP_HASH160 e5b68ea16eccc6ed19ad2f951708ba232d53ab47 OP_EQUALVERIFY OP_CHECKSIG", "type": "pubkeyhash"}, "value": 0.00198663, "n": 0}, {"scriptPubKey": {"reqSigs": 1, "hex": "76a91464d16ceaeed84be73fb0252d1841536637aa5aab88ac", "addresses": ["1AC5TKWQgvA5GKFnRCEQzzcu8WQkPTf8QK"], "asm": "OP_DUP OP_HASH160 64d16ceaeed84be73fb0252d1841536637aa5aab OP_EQUALVERIFY OP_CHECKSIG", "type": "pubkeyhash"}, "value": 0.038, "n": 1}], "hex": "01000000011b69dc6e20133ebc8cc83bf39328fa0850a2c091ecac9403dc5b6cddf77d56e9010000006a473044022054be872bf5d7049ac5554cbf13f93ab4c90ffa838f685f9dfd0b2d3159503bc202204159e404a93467055f41152d498920ffc10b8c68a867b778b0fb59b78d25f91d012103bda4cda78ee3f6ba6328cb1422c9cb165b231bc5f0758856fe4e6c5130ba09daffffffff0207080300000000001976a914e5b68ea16eccc6ed19ad2f951708ba232d53ab4788acc0fb3900000000001976a91464d16ceaeed84be73fb0252d1841536637aa5aab88ac00000000", "vin": [{"sequence": 4294967295, "scriptSig": {"hex": "473044022054be872bf5d7049ac5554cbf13f93ab4c90ffa838f685f9dfd0b2d3159503bc202204159e404a93467055f41152d498920ffc10b8c68a867b778b0fb59b78d25f91d012103bda4cda78ee3f6ba6328cb1422c9cb165b231bc5f0758856fe4e6c5130ba09da", "asm": "3044022054be872bf5d7049ac5554cbf13f93ab4c90ffa838f685f9dfd0b2d3159503bc202204159e404a93467055f41152d498920ffc10b8c68a867b778b0fb59b78d25f91d[ALL] 03bda4cda78ee3f6ba6328cb1422c9cb165b231bc5f0758856fe4e6c5130ba09da"}, "vout": 1, "txid": "e9567df7dd6c5bdc0394acec91c0a25008fa2893f33bc88cbc3e13206edc691b"}], "txid": "5341e64be92e42dc73b97ccbe6041d155f0d32ec53880d65949a5b4ee7351b14", "blocktime": 1537873282, "version": 1, "confirmations": 11483, "time": 1537873282, "locktime": 0, "vsize": 225, "size": 225}