{"hash": "53451e0cbb4bd8f89f80f329ff151fb4ecd1ca593e15b1d6a14c484e556f886e", "blockhash": "0000000000000000000baef3f32e3676a92c3b2e5da21b426e4f302fc371ce76", "vout": [{"scriptPubKey": {"reqSigs": 1, "hex": "76a9146cd49dc429df53aa4fc5d522459a2a157fa3c31788ac", "addresses": ["1AvSgZDSEM33c9ytgH2zHS3YML2rtV1yMF"], "asm": "OP_DUP OP_HASH160 6cd49dc429df53aa4fc5d522459a2a157fa3c317 OP_EQUALVERIFY OP_CHECKSIG", "type": "pubkeyhash"}, "value": 0.327, "n": 0}, {"scriptPubKey": {"reqSigs": 1, "hex": "76a914e6319b0e466ba488af65b2aa658b4d16979b4cc688ac", "addresses": ["1Mz9qnW8x4F4Uq3W3XvocxKng67zsVkMVb"], "asm": "OP_DUP OP_HASH160 e6319b0e466ba488af65b2aa658b4d16979b4cc6 OP_EQUALVERIFY OP_CHECKSIG", "type": "pubkeyhash"}, "value": 0.16061988, "n": 1}], "hex": "02000000016fc71dcb24e74e132e87d75c7408bf0cce9ae03653e645ab0eb0425309e0d6ec000000006a4730440220137c2ce3084e1e6b16db05284de7e033d581d58ccc10cec5b7725d420208904802207f1687bb87c0c2b5c7a9baa15e2b9e2e33c2ccf3193d76adbeba7bbbb866728701210387df7875de7877e64fa8ccbee2f438a173f32e3dcb21d7dbaf720e2e5d5c3050feffffff0260f6f201000000001976a9146cd49dc429df53aa4fc5d522459a2a157fa3c31788ac2416f500000000001976a914e6319b0e466ba488af65b2aa658b4d16979b4cc688ac17490800", "vin": [{"sequence": 4294967294, "scriptSig": {"hex": "4730440220137c2ce3084e1e6b16db05284de7e033d581d58ccc10cec5b7725d420208904802207f1687bb87c0c2b5c7a9baa15e2b9e2e33c2ccf3193d76adbeba7bbbb866728701210387df7875de7877e64fa8ccbee2f438a173f32e3dcb21d7dbaf720e2e5d5c3050", "asm": "30440220137c2ce3084e1e6b16db05284de7e033d581d58ccc10cec5b7725d420208904802207f1687bb87c0c2b5c7a9baa15e2b9e2e33c2ccf3193d76adbeba7bbbb8667287[ALL] 0387df7875de7877e64fa8ccbee2f438a173f32e3dcb21d7dbaf720e2e5d5c3050"}, "vout": 0, "txid": "ecd6e0095342b00eab45e65336e09ace0cbf08745cd7872e134ee724cb1dc76f"}], "txid": "53451e0cbb4bd8f89f80f329ff151fb4ecd1ca593e15b1d6a14c484e556f886e", "blocktime": 1537876114, "version": 2, "confirmations": 11459, "time": 1537876114, "locktime": 542999, "vsize": 225, "size": 225}