{"hash": "4505d1d2e2e13a9f21f4f7cc0bb4e45941f62fd2354852c60f2d5be1c42e41b9", "blockhash": "0000000000000000000e13cef7c366c0283d82e591d1acd082e914b08063cdf1", "vout": [{"scriptPubKey": {"reqSigs": 1, "hex": "76a9144f150e87ca77805886e85097f8f285a4cf9454b688ac", "addresses": ["18D9cCpvppu3tubfTM8NZrEiwissaBVyrb"], "asm": "OP_DUP OP_HASH160 4f150e87ca77805886e85097f8f285a4cf9454b6 OP_EQUALVERIFY OP_CHECKSIG", "type": "pubkeyhash"}, "value": 0.00285722, "n": 0}, {"scriptPubKey": {"reqSigs": 1, "hex": "00140ffd9fffdcc878508433e1132ebd9492c17ae6d4", "addresses": ["bc1qpl7ell7uepu9pppnuyfja0v5jtqh4ek522zrhj"], "asm": "0 0ffd9fffdcc878508433e1132ebd9492c17ae6d4", "type": "witness_v0_keyhash"}, "value": 1.19e-05, "n": 1}], "hex": "010000000001011f598eef890b23f83bafb8c2050328990b1f235a92826b05a1f965503e610d11060000001716001429e77152e2dc8ec8ba2cff46b66d1f92b85beb6effffffff021a5c0400000000001976a9144f150e87ca77805886e85097f8f285a4cf9454b688aca6040000000000001600140ffd9fffdcc878508433e1132ebd9492c17ae6d402483045022100da89ad159daba4bc9f2d9e880b96257ca1414a92e72be0c44e7772d425136c65022031dfdf724f2572ddd5ef9dbaadd12def11054f541440290dcafad061f6bef72e01210345c0e38547661c7fd8cdda3f4c88545ef8881209762a960e673f451f6a81ff2700000000", "vin": [{"txinwitness": ["3045022100da89ad159daba4bc9f2d9e880b96257ca1414a92e72be0c44e7772d425136c65022031dfdf724f2572ddd5ef9dbaadd12def11054f541440290dcafad061f6bef72e01", "0345c0e38547661c7fd8cdda3f4c88545ef8881209762a960e673f451f6a81ff27"], "sequence": 4294967295, "scriptSig": {"hex": "16001429e77152e2dc8ec8ba2cff46b66d1f92b85beb6e", "asm": "001429e77152e2dc8ec8ba2cff46b66d1f92b85beb6e"}, "vout": 6, "txid": "110d613e5065f9a1056b82925a231f0b99280305c2b8af3bf8230b89ef8e591f"}], "txid": "5347d02d6e50ffae7bde4361912d0fc55612a2663c4dd5240d8fe1a5a52e0de5", "blocktime": 1537871767, "version": 1, "confirmations": 11495, "time": 1537871767, "locktime": 0, "vsize": 167, "size": 249}