{"hash": "dd440adc23980f325e3d74f9cd1a37765c73519272da186110a21562a314943a", "blockhash": "0000000000000000001cda96e906b7601b7a6fb1a3b62bca570a9e5d8f4b3de1", "vout": [{"scriptPubKey": {"reqSigs": 1, "hex": "76a9143d18cedc41a45b4c6764a52b76baae61e18b657788ac", "addresses": ["16a3wPv2VkrPhaLJvD48B1FXK6K1Yiuth4"], "asm": "OP_DUP OP_HASH160 3d18cedc41a45b4c6764a52b76baae61e18b6577 OP_EQUALVERIFY OP_CHECKSIG", "type": "pubkeyhash"}, "value": 0.00046526, "n": 0}], "hex": "0100000000010116d28ba26ffcfa3660eda2842623cbbde87e2e49267694c7b7a73b7620ee7abc0000000017160014aa1fe5aad071e015e2c7fc56828a0928a2f2dd76ffffffff01beb50000000000001976a9143d18cedc41a45b4c6764a52b76baae61e18b657788ac024730440220262e5e29aac00c09ea7bdee6f2436e3600cb2ac959945879fed7f64999f88c0b02204400a5e1614c0e471c37bc0b1f3265557ed1ae37c85058b8e602972e40aa1b07012103da1eeb80f12ade7e3c9637ab7a627e99c1bfe51ab6b08a534fc4104203e477b400000000", "vin": [{"txinwitness": ["30440220262e5e29aac00c09ea7bdee6f2436e3600cb2ac959945879fed7f64999f88c0b02204400a5e1614c0e471c37bc0b1f3265557ed1ae37c85058b8e602972e40aa1b0701", "03da1eeb80f12ade7e3c9637ab7a627e99c1bfe51ab6b08a534fc4104203e477b4"], "sequence": 4294967295, "scriptSig": {"hex": "160014aa1fe5aad071e015e2c7fc56828a0928a2f2dd76", "asm": "0014aa1fe5aad071e015e2c7fc56828a0928a2f2dd76"}, "vout": 0, "txid": "bc7aee20763ba7b7c7947626492e7ee8bdcb232684a2ed6036fafc6fa28bd216"}], "txid": "5347a59640d8721d1d598647ad5003e4788d813c4368926c88c81340828409c7", "blocktime": 1537873282, "version": 1, "confirmations": 11485, "time": 1537873282, "locktime": 0, "vsize": 136, "size": 217}