{"hash": "92d206cf4941c50468a0921d7d53ba15c8e3b209ebace39dc95da8d4086ced60", "blockhash": "00000000000000000004ffacab907a6b429b9a5745fa0b75af4234bf69dd7176", "vout": [{"scriptPubKey": {"reqSigs": 1, "hex": "a9140c429edd036e86b10ff5fdf9846869d0890a2cbc87", "addresses": ["32oqqiufrcmFZcmwkrGPZEsTB7qgmu6Qik"], "asm": "OP_HASH160 0c429edd036e86b10ff5fdf9846869d0890a2cbc OP_EQUAL", "type": "scripthash"}, "value": 0.01139099, "n": 0}, {"scriptPubKey": {"reqSigs": 1, "hex": "a914795d0475566b35f004af7149503e4262d771274c87", "addresses": ["3Ckj7idVikc9QwrXuwNcpk6AuqmYMS6uNJ"], "asm": "OP_HASH160 795d0475566b35f004af7149503e4262d771274c OP_EQUAL", "type": "scripthash"}, "value": 0.084842, "n": 1}], "hex": "020000000001012d862e775554d2f0b587dde3f06ee04ba71dbeab12c844180c907b72d0093cea0100000017160014f03b79bc1708baf5ccd0aba194e021f0e7dcdd59ffffffff029b6111000000000017a9140c429edd036e86b10ff5fdf9846869d0890a2cbc87687581000000000017a914795d0475566b35f004af7149503e4262d771274c870247304402201dc1575be89c23b77ce4bb1393344284279f6166361a0fb608b363233fbe003e022029b6093ec8d52b64987c4fbd0c4093e322b8470b033b91557b558441a7212b0e012102114ac056d834327b5da6df432f3c5e0d134053608632a4e8f19ce8e02992729b00000000", "vin": [{"txinwitness": ["304402201dc1575be89c23b77ce4bb1393344284279f6166361a0fb608b363233fbe003e022029b6093ec8d52b64987c4fbd0c4093e322b8470b033b91557b558441a7212b0e01", "02114ac056d834327b5da6df432f3c5e0d134053608632a4e8f19ce8e02992729b"], "sequence": 4294967295, "scriptSig": {"hex": "160014f03b79bc1708baf5ccd0aba194e021f0e7dcdd59", "asm": "0014f03b79bc1708baf5ccd0aba194e021f0e7dcdd59"}, "vout": 1, "txid": "ea3c09d0727b900c1844c812abbe1da74be06ef0e3dd87b5f0d25455772e862d"}], "txid": "534b2b8745147de5b42255c561e8b6089ffd371543e247a14a1620690f13ac22", "blocktime": 1537875543, "version": 2, "confirmations": 11464, "time": 1537875543, "locktime": 0, "vsize": 166, "size": 247}