{"hash": "534ea3fc6cff595dbefb23ac4c8773492f6185ee03a67b641274709692e7aad2", "blockhash": "0000000000000000001e0dab787dd257d1dbfcb92a98c2207d5e1078be1f4165", "vout": [{"scriptPubKey": {"reqSigs": 1, "hex": "76a9148d23a435dc28bf4452d87868f51f3d34f922297088ac", "addresses": ["1DsGyTdrGKX63TQhp1RmstzBBp2nujhJV3"], "asm": "OP_DUP OP_HASH160 8d23a435dc28bf4452d87868f51f3d34f9222970 OP_EQUALVERIFY OP_CHECKSIG", "type": "pubkeyhash"}, "value": 0.0123478, "n": 0}, {"scriptPubKey": {"reqSigs": 1, "hex": "a914ec2b09176c75081899c92ca59d2c4eff2f7b5b0c87", "addresses": ["3PDkwyYKQ4xjk7Rz2AdQTYAyExSpo9oL31"], "asm": "OP_HASH160 ec2b09176c75081899c92ca59d2c4eff2f7b5b0c OP_EQUAL", "type": "scripthash"}, "value": 0.02348704, "n": 1}], "hex": "01000000021c9b88def75270514a54f70d72966ba66e7af5c0de35673bb90c16d62ff8b303000000006b483045022100de8fc9e040a5d17c32636d4623c70dc4c7c95a06cba77f17c0799ddc501742fd0220639f1fbba9b2d3df636483f61eaf5f3d9ae02e1e0b17ebdc6a0d14f74ec6cddd0121021db0324c5d23e1a8d8eff9f081967bafa3eb29f210f58cf4523eadaa446f6810ffffffffa466c229a8b96cd7ade5a6911853d2388ca886142874e426e5d7b5175c7d7bc4010000006b483045022100cf3f5d98eefc489279c02f37cf3faa37d7a2545955126904102323647db541210220567ab12c7e74af86b49664ab16d90c26afb6486a5af21ac0c44e36642a58e593012103b3d5c37999e34033e42c93dc4f6138abfa663924bf6be89da5e5b4600a895f4fffffffff025cd71200000000001976a9148d23a435dc28bf4452d87868f51f3d34f922297088aca0d623000000000017a914ec2b09176c75081899c92ca59d2c4eff2f7b5b0c8700000000", "vin": [{"sequence": 4294967295, "scriptSig": {"hex": "483045022100de8fc9e040a5d17c32636d4623c70dc4c7c95a06cba77f17c0799ddc501742fd0220639f1fbba9b2d3df636483f61eaf5f3d9ae02e1e0b17ebdc6a0d14f74ec6cddd0121021db0324c5d23e1a8d8eff9f081967bafa3eb29f210f58cf4523eadaa446f6810", "asm": "3045022100de8fc9e040a5d17c32636d4623c70dc4c7c95a06cba77f17c0799ddc501742fd0220639f1fbba9b2d3df636483f61eaf5f3d9ae02e1e0b17ebdc6a0d14f74ec6cddd[ALL] 021db0324c5d23e1a8d8eff9f081967bafa3eb29f210f58cf4523eadaa446f6810"}, "vout": 0, "txid": "03b3f82fd6160cb93b6735dec0f57a6ea66b96720df7544a517052f7de889b1c"}, {"sequence": 4294967295, "scriptSig": {"hex": "483045022100cf3f5d98eefc489279c02f37cf3faa37d7a2545955126904102323647db541210220567ab12c7e74af86b49664ab16d90c26afb6486a5af21ac0c44e36642a58e593012103b3d5c37999e34033e42c93dc4f6138abfa663924bf6be89da5e5b4600a895f4f", "asm": "3045022100cf3f5d98eefc489279c02f37cf3faa37d7a2545955126904102323647db541210220567ab12c7e74af86b49664ab16d90c26afb6486a5af21ac0c44e36642a58e593[ALL] 03b3d5c37999e34033e42c93dc4f6138abfa663924bf6be89da5e5b4600a895f4f"}, "vout": 1, "txid": "c47b7d5c17b5d7e526e474281486a88c38d2531891a6e5add76cb9a829c266a4"}], "txid": "534ea3fc6cff595dbefb23ac4c8773492f6185ee03a67b641274709692e7aad2", "blocktime": 1537872475, "version": 1, "confirmations": 11486, "time": 1537872475, "locktime": 0, "vsize": 372, "size": 372}