{"hash": "9ac8ea675d60ae9032e6cfc38e77d0e82cb9665914cc9be909b0eaf5bf246f97", "blockhash": "0000000000000000001cda96e906b7601b7a6fb1a3b62bca570a9e5d8f4b3de1", "vout": [{"scriptPubKey": {"reqSigs": 1, "hex": "76a914827076be590fd5a2659b9add317dd6cf13bb4e0288ac", "addresses": ["1Ctha4dso7twjeAgLAAiAbZJJR29YicWMn"], "asm": "OP_DUP OP_HASH160 827076be590fd5a2659b9add317dd6cf13bb4e02 OP_EQUALVERIFY OP_CHECKSIG", "type": "pubkeyhash"}, "value": 0.15023463, "n": 0}, {"scriptPubKey": {"reqSigs": 1, "hex": "a91430a527acced0bcd238731b54af04e82d93a12bbb87", "addresses": ["368ECvMxJGCsq9d4Fg915aZxDrJZxW38r4"], "asm": "OP_HASH160 30a527acced0bcd238731b54af04e82d93a12bbb OP_EQUAL", "type": "scripthash"}, "value": 0.01021965, "n": 1}], "hex": "0200000000010543d899e5c1885283a262ec0e0283fc20867b895969ff28b6ed90e378acb68a1f0100000017160014982816b587ec9b2ac11b14d41100cfffbe8b738dfeffffff9c224ba22c568a270ce6586a3d17c8ab5765f582a1e2e30e0913763317a7a4030000000017160014f11e78b429d4e2da6abc3917f90e83d9d6e0d1bbfeffffff9d4861f575719bc63d19ec2c526d1a8228b20c50b0fa288262c977bbbf469d0a0100000017160014d1697c6f8d82620b31976f0f4462f2cd147fad5bfeffffffa6f77eeea65a546d21d0a7273ab8f4b3bac5075f3e76eaabda34d548e67c97f500000000171600149f7be8e11207283176ecab0222588b6caa8137eafeffffffdacf7361a00a6d6f228c33164e06ec18191ec1a71bcdef26afb5db186ba657f60c000000171600146a6efb638a48fe14392ccb21cec0e68a62b5ed0ffeffffff02673de500000000001976a914827076be590fd5a2659b9add317dd6cf13bb4e0288ac0d980f000000000017a91430a527acced0bcd238731b54af04e82d93a12bbb870247304402200495ba363aef74f0df99f268698f00f82f073e69ed79dffa0a3577023fec5a52022000b6f83d8c9a8dcef5a28eb2ca67cafca92f0d70d886e339b98d5890c35de02c0121028ebc5889b9868fca85892ab035eda55d677b9ef58e6f41b0432427618d22735302483045022100b7a7d7a5cd5c1f99c5d31bbafc07a9e1fd1beadc05a22b94a257b9a3ff0785f20220676de77db83dc6d49f7160d642ba8a76dc94eec2cfe813d10586044153d41e090121023d3102f8e7763f9f5c32b9128707fd7f77ea436aa03fbd5108f07889ef89154e02483045022100bccb2626eb836e3d9b16271ca9f46af12aeb4c9baa2bdd94bb197080b7a02c9f022055c92859e49b7090b02711c0c3a9fca9a8d74856627a2add86189c08958f8c68012103c1567c83fa202213bafd9c8e61ac183761dab71bf9159374bf3c809646188596024730440220778ae7b7d9043da3fe5b03657bb36306dd636195c75fb163d1190ad76337b5c402203f3b072971878b31bacd17cf39d9174dfb7b25f8afa8317fe81af667c429dca3012103973b934b47773de7c7c7e2f76fed9bd13b9a657f97e8fb9e094a7e10135482d302483045022100e18b6d4ff81c7b8f4ab985ab5d13a55b18fdf183747d6a67a439e27ea126761d022011043173c0d19d9acd5e0cca7ab2c7009b4705647aa553454935988b5ee8ae5a0121027ecdc67660fd8d5c7881671f015b940a52ed44d601d78880e34fc5428383849e13490800", "vin": [{"txinwitness": ["304402200495ba363aef74f0df99f268698f00f82f073e69ed79dffa0a3577023fec5a52022000b6f83d8c9a8dcef5a28eb2ca67cafca92f0d70d886e339b98d5890c35de02c01", "028ebc5889b9868fca85892ab035eda55d677b9ef58e6f41b0432427618d227353"], "sequence": 4294967294, "scriptSig": {"hex": "160014982816b587ec9b2ac11b14d41100cfffbe8b738d", "asm": "0014982816b587ec9b2ac11b14d41100cfffbe8b738d"}, "vout": 1, "txid": "1f8ab6ac78e390edb628ff6959897b8620fc83020eec62a2835288c1e599d843"}, {"txinwitness": ["3045022100b7a7d7a5cd5c1f99c5d31bbafc07a9e1fd1beadc05a22b94a257b9a3ff0785f20220676de77db83dc6d49f7160d642ba8a76dc94eec2cfe813d10586044153d41e0901", "023d3102f8e7763f9f5c32b9128707fd7f77ea436aa03fbd5108f07889ef89154e"], "sequence": 4294967294, "scriptSig": {"hex": "160014f11e78b429d4e2da6abc3917f90e83d9d6e0d1bb", "asm": "0014f11e78b429d4e2da6abc3917f90e83d9d6e0d1bb"}, "vout": 0, "txid": "03a4a717337613090ee3e2a182f56557abc8173d6a58e60c278a562ca24b229c"}, {"txinwitness": ["3045022100bccb2626eb836e3d9b16271ca9f46af12aeb4c9baa2bdd94bb197080b7a02c9f022055c92859e49b7090b02711c0c3a9fca9a8d74856627a2add86189c08958f8c6801", "03c1567c83fa202213bafd9c8e61ac183761dab71bf9159374bf3c809646188596"], "sequence": 4294967294, "scriptSig": {"hex": "160014d1697c6f8d82620b31976f0f4462f2cd147fad5b", "asm": "0014d1697c6f8d82620b31976f0f4462f2cd147fad5b"}, "vout": 1, "txid": "0a9d46bfbb77c9628228fab0500cb228821a6d522cec193dc69b7175f561489d"}, {"txinwitness": ["30440220778ae7b7d9043da3fe5b03657bb36306dd636195c75fb163d1190ad76337b5c402203f3b072971878b31bacd17cf39d9174dfb7b25f8afa8317fe81af667c429dca301", "03973b934b47773de7c7c7e2f76fed9bd13b9a657f97e8fb9e094a7e10135482d3"], "sequence": 4294967294, "scriptSig": {"hex": "1600149f7be8e11207283176ecab0222588b6caa8137ea", "asm": "00149f7be8e11207283176ecab0222588b6caa8137ea"}, "vout": 0, "txid": "f5977ce648d534daabea763e5f07c5bab3f4b83a27a7d0216d545aa6ee7ef7a6"}, {"txinwitness": ["3045022100e18b6d4ff81c7b8f4ab985ab5d13a55b18fdf183747d6a67a439e27ea126761d022011043173c0d19d9acd5e0cca7ab2c7009b4705647aa553454935988b5ee8ae5a01", "027ecdc67660fd8d5c7881671f015b940a52ed44d601d78880e34fc5428383849e"], "sequence": 4294967294, "scriptSig": {"hex": "1600146a6efb638a48fe14392ccb21cec0e68a62b5ed0f", "asm": "00146a6efb638a48fe14392ccb21cec0e68a62b5ed0f"}, "vout": 12, "txid": "f657a66b18dbb5af26efcd1ba7c11e1918ec064e16338c226f6d0aa06173cfda"}], "txid": "534f52574d7a9bd018998733ad1d2096dbbb2bd755ceaa2f25d9bfc73ba678e6", "blocktime": 1537873282, "version": 2, "confirmations": 11485, "time": 1537873282, "locktime": 542995, "vsize": 531, "size": 936}