{"hash": "5350805492a2f2233c753e52d46e4cb081fb92d42788617a245a3e2cbc7e6829", "blockhash": "0000000000000000000e13cef7c366c0283d82e591d1acd082e914b08063cdf1", "vout": [{"scriptPubKey": {"reqSigs": 1, "hex": "76a91412a021365671f662ebde745beb52a5337cc5cb4488ac", "addresses": ["12hUzToDQ3P2BJGFiWUsVmU4PXHZv5WAsW"], "asm": "OP_DUP OP_HASH160 12a021365671f662ebde745beb52a5337cc5cb44 OP_EQUALVERIFY OP_CHECKSIG", "type": "pubkeyhash"}, "value": 0.00023169, "n": 0}, {"scriptPubKey": {"type": "nulldata", "hex": "6a4c50000077a50001cbb205e5d82553f51ee4a0c3af6c953dd567cf27e7e3ef3236678a6250971726b13df038a3ece4a19bad472bfa265baa0efa0614574a5cb5650d4bbf23acfcfaac8058b692fe6808c31d", "asm": "OP_RETURN 000077a50001cbb205e5d82553f51ee4a0c3af6c953dd567cf27e7e3ef3236678a6250971726b13df038a3ece4a19bad472bfa265baa0efa0614574a5cb5650d4bbf23acfcfaac8058b692fe6808c31d"}, "value": 0.0, "n": 1}], "hex": "0100000001791a88c15f246f143f6be5d39024f3199f20645bbb5d8d5d8a07b2b545f26e65010000006b483045022100c11f0596d4d4b271d0191e05fff5511c388fd3c53f7290e9efbd13c36acd649602203f8986bba5a1720eab8b0020079eaa230f48843a9ea3d3825ce51fda93511b2e012102178326b31c23563e862742928ac3356cae13b1581ccb4ba2f18e4ea03b58a2b6ffffffff02815a0000000000001976a91412a021365671f662ebde745beb52a5337cc5cb4488ac0000000000000000536a4c50000077a50001cbb205e5d82553f51ee4a0c3af6c953dd567cf27e7e3ef3236678a6250971726b13df038a3ece4a19bad472bfa265baa0efa0614574a5cb5650d4bbf23acfcfaac8058b692fe6808c31d00000000", "vin": [{"sequence": 4294967295, "scriptSig": {"hex": "483045022100c11f0596d4d4b271d0191e05fff5511c388fd3c53f7290e9efbd13c36acd649602203f8986bba5a1720eab8b0020079eaa230f48843a9ea3d3825ce51fda93511b2e012102178326b31c23563e862742928ac3356cae13b1581ccb4ba2f18e4ea03b58a2b6", "asm": "3045022100c11f0596d4d4b271d0191e05fff5511c388fd3c53f7290e9efbd13c36acd649602203f8986bba5a1720eab8b0020079eaa230f48843a9ea3d3825ce51fda93511b2e[ALL] 02178326b31c23563e862742928ac3356cae13b1581ccb4ba2f18e4ea03b58a2b6"}, "vout": 1, "txid": "656ef245b5b2078a5d8d5dbb5b64209f19f32490d3e56b3f146f245fc1881a79"}], "txid": "5350805492a2f2233c753e52d46e4cb081fb92d42788617a245a3e2cbc7e6829", "blocktime": 1537871767, "version": 1, "confirmations": 11495, "time": 1537871767, "locktime": 0, "vsize": 284, "size": 284}