{"hash": "5351749e69e2d3498939c04c3dea1f9780d02afb8a7a7aa34034512bdc583077", "blockhash": "0000000000000000001cda96e906b7601b7a6fb1a3b62bca570a9e5d8f4b3de1", "vout": [{"scriptPubKey": {"reqSigs": 1, "hex": "a914b7e3c0c60e6255de6e590877b7ccc32fb4ef2ced87", "addresses": ["3JTLRCudxjGNTC7rNW5ouLqsYkYQZyap3x"], "asm": "OP_HASH160 b7e3c0c60e6255de6e590877b7ccc32fb4ef2ced OP_EQUAL", "type": "scripthash"}, "value": 0.02294, "n": 0}, {"scriptPubKey": {"reqSigs": 1, "hex": "a914e370231feecbfc25e2e2423a5a79bf79bfdca59887", "addresses": ["3NRbeX3vD5VaVE4TDU9ivCDsEf7NPPte6J"], "asm": "OP_HASH160 e370231feecbfc25e2e2423a5a79bf79bfdca598 OP_EQUAL", "type": "scripthash"}, "value": 11.49121658, "n": 1}], "hex": "0100000001719af6969352ea2dd298255239f9bfc7dd293b34cb4a6abc0ffef8fd80862ed001000000da0047304402203cd8b4c8b42ae3020860f0266362237ce4d137254bb3f11e4adc4dfc5617844402202eb89887199ae44277faa1b20951cfc0e78e2419ca9438913740abe4c9fe451c01483045022100c2c20afac70ea2688866e4f732816fed1b56cdbf721c37e96ba118436260172802207dda1e26126a1090b9bc71289a6e10dce76ccd16ba0011ff71e9d48d947d48e3014752210327881b6abce6535553a3ce21fad12a7d74fd237ce7c4cd270a267162344e3082210256141f8eb687f5a68c5cc65054652dc25116fa285e44d72b44368827ffe77d9a52aeffffffff02f00023000000000017a914b7e3c0c60e6255de6e590877b7ccc32fb4ef2ced877a347e440000000017a914e370231feecbfc25e2e2423a5a79bf79bfdca5988700000000", "vin": [{"sequence": 4294967295, "scriptSig": {"hex": "0047304402203cd8b4c8b42ae3020860f0266362237ce4d137254bb3f11e4adc4dfc5617844402202eb89887199ae44277faa1b20951cfc0e78e2419ca9438913740abe4c9fe451c01483045022100c2c20afac70ea2688866e4f732816fed1b56cdbf721c37e96ba118436260172802207dda1e26126a1090b9bc71289a6e10dce76ccd16ba0011ff71e9d48d947d48e3014752210327881b6abce6535553a3ce21fad12a7d74fd237ce7c4cd270a267162344e3082210256141f8eb687f5a68c5cc65054652dc25116fa285e44d72b44368827ffe77d9a52ae", "asm": "0 304402203cd8b4c8b42ae3020860f0266362237ce4d137254bb3f11e4adc4dfc5617844402202eb89887199ae44277faa1b20951cfc0e78e2419ca9438913740abe4c9fe451c[ALL] 3045022100c2c20afac70ea2688866e4f732816fed1b56cdbf721c37e96ba118436260172802207dda1e26126a1090b9bc71289a6e10dce76ccd16ba0011ff71e9d48d947d48e3[ALL] 52210327881b6abce6535553a3ce21fad12a7d74fd237ce7c4cd270a267162344e3082210256141f8eb687f5a68c5cc65054652dc25116fa285e44d72b44368827ffe77d9a52ae"}, "vout": 1, "txid": "d02e8680fdf8fe0fbc6a4acb343b29ddc7bff939522598d22dea529396f69a71"}], "txid": "5351749e69e2d3498939c04c3dea1f9780d02afb8a7a7aa34034512bdc583077", "blocktime": 1537873282, "version": 1, "confirmations": 11484, "time": 1537873282, "locktime": 0, "vsize": 333, "size": 333}