{"hash": "5353c26bf6d67be2f27e257c09dd469fcfc364a9e02ed8db47d0325a9e50b8fb", "blockhash": "0000000000000000001e0dab787dd257d1dbfcb92a98c2207d5e1078be1f4165", "vout": [{"scriptPubKey": {"reqSigs": 1, "hex": "76a91408fccd5bc73316a1512f4fc33422367d8785cbb288ac", "addresses": ["1pXFYDNi23FUDqNLs2ZGt28iuZJ3GdprM"], "asm": "OP_DUP OP_HASH160 08fccd5bc73316a1512f4fc33422367d8785cbb2 OP_EQUALVERIFY OP_CHECKSIG", "type": "pubkeyhash"}, "value": 0.00171854, "n": 0}, {"scriptPubKey": {"reqSigs": 1, "hex": "76a9140720bb6c6afa3791c93a70c4918261e49f224ad888ac", "addresses": ["1egwcR3Nqvu4PDYvYHoBeSFZjZSqmtEui"], "asm": "OP_DUP OP_HASH160 0720bb6c6afa3791c93a70c4918261e49f224ad8 OP_EQUALVERIFY OP_CHECKSIG", "type": "pubkeyhash"}, "value": 0.44338778, "n": 1}], "hex": "010000000190d569793b09068eca1b29fe4983a316ecf1c2f6dd6bca013b31290e4e06658f010000006b4830450221008283cdb9fce00b0ba98ec7b3391cf8503b7c30a289d2310b6956072c8490ac95022015c451ab94cbd969fa7608efbd672b4ed889ba4bb42559b629efc3cf6901c5d2012103f9708f4f32dabcffe34e59f437ffc3ec6f4f9c55cd68df45f0ffe8f720153595ffffffff024e9f0200000000001976a91408fccd5bc73316a1512f4fc33422367d8785cbb288ac5a8ea402000000001976a9140720bb6c6afa3791c93a70c4918261e49f224ad888ac00000000", "vin": [{"sequence": 4294967295, "scriptSig": {"hex": "4830450221008283cdb9fce00b0ba98ec7b3391cf8503b7c30a289d2310b6956072c8490ac95022015c451ab94cbd969fa7608efbd672b4ed889ba4bb42559b629efc3cf6901c5d2012103f9708f4f32dabcffe34e59f437ffc3ec6f4f9c55cd68df45f0ffe8f720153595", "asm": "30450221008283cdb9fce00b0ba98ec7b3391cf8503b7c30a289d2310b6956072c8490ac95022015c451ab94cbd969fa7608efbd672b4ed889ba4bb42559b629efc3cf6901c5d2[ALL] 03f9708f4f32dabcffe34e59f437ffc3ec6f4f9c55cd68df45f0ffe8f720153595"}, "vout": 1, "txid": "8f65064e0e29313b01ca6bddf6c2f1ec16a38349fe291bca8e06093b7969d590"}], "txid": "5353c26bf6d67be2f27e257c09dd469fcfc364a9e02ed8db47d0325a9e50b8fb", "blocktime": 1537872475, "version": 1, "confirmations": 11487, "time": 1537872475, "locktime": 0, "vsize": 226, "size": 226}