{"hash": "5353a1d9479b8543a0fef72a6ad5fa51aff82d3f01b445e88b8f79791a3ac7f4", "blockhash": "00000000000000000004ffacab907a6b429b9a5745fa0b75af4234bf69dd7176", "vout": [{"scriptPubKey": {"reqSigs": 1, "hex": "76a914bbe1bc3bbf9ad24b9a8797128fb44a8e48fdd6a888ac", "addresses": ["1J8RnEdT3mVMdRuFFrjfi5FLrt5EQfkXwz"], "asm": "OP_DUP OP_HASH160 bbe1bc3bbf9ad24b9a8797128fb44a8e48fdd6a8 OP_EQUALVERIFY OP_CHECKSIG", "type": "pubkeyhash"}, "value": 0.00740936, "n": 0}, {"scriptPubKey": {"reqSigs": 1, "hex": "76a9144a0f1e2f2b0d7daeec5265f10bbbbe08ed725e8988ac", "addresses": ["17kb7c9ndg7ioSuzMWEHWECdEVUegNkcGc"], "asm": "OP_DUP OP_HASH160 4a0f1e2f2b0d7daeec5265f10bbbbe08ed725e89 OP_EQUALVERIFY OP_CHECKSIG", "type": "pubkeyhash"}, "value": 0.00076583, "n": 1}], "hex": "0100000001c1546eb739c6d864e283f7a1d958ca709458aded88e7f4a041eaced9ef2e5f82010000006a473044022045e9637b2f8687112b3366a3669b9cfbaddffe3d9e6b25d727f0bdc39a16a40d0220100b2f5bf8deecde201ef2e2c946c79559eb33f389cca76d732b68273e95654c01210363e1776495149c5a4e92acf453a3caa19000fc804e4ba2024b600ba25e09c943ffffffff02484e0b00000000001976a914bbe1bc3bbf9ad24b9a8797128fb44a8e48fdd6a888ac272b0100000000001976a9144a0f1e2f2b0d7daeec5265f10bbbbe08ed725e8988ac00000000", "vin": [{"sequence": 4294967295, "scriptSig": {"hex": "473044022045e9637b2f8687112b3366a3669b9cfbaddffe3d9e6b25d727f0bdc39a16a40d0220100b2f5bf8deecde201ef2e2c946c79559eb33f389cca76d732b68273e95654c01210363e1776495149c5a4e92acf453a3caa19000fc804e4ba2024b600ba25e09c943", "asm": "3044022045e9637b2f8687112b3366a3669b9cfbaddffe3d9e6b25d727f0bdc39a16a40d0220100b2f5bf8deecde201ef2e2c946c79559eb33f389cca76d732b68273e95654c[ALL] 0363e1776495149c5a4e92acf453a3caa19000fc804e4ba2024b600ba25e09c943"}, "vout": 1, "txid": "825f2eefd9ceea41a0f4e788edad589470ca58d9a1f783e264d8c639b76e54c1"}], "txid": "5353a1d9479b8543a0fef72a6ad5fa51aff82d3f01b445e88b8f79791a3ac7f4", "blocktime": 1537875543, "version": 1, "confirmations": 11464, "time": 1537875543, "locktime": 0, "vsize": 225, "size": 225}