{"hash": "53683c761ae448d8c7b542bee5e80cd55cf6ec5a2495661f3cb000cacfd71767", "blockhash": "0000000000000000000e13cef7c366c0283d82e591d1acd082e914b08063cdf1", "vout": [{"scriptPubKey": {"reqSigs": 1, "hex": "a914699ed8e07d6f4fab7a96a3999ee68fffc0c169b987", "addresses": ["3BKVAafNKzeUJnaHwyk1u2Xrqg5CeRMHwh"], "asm": "OP_HASH160 699ed8e07d6f4fab7a96a3999ee68fffc0c169b9 OP_EQUAL", "type": "scripthash"}, "value": 0.00999, "n": 0}, {"scriptPubKey": {"reqSigs": 1, "hex": "76a91445243a1f88de0cbaa8b8e3c79175a2f1f3a85a3a88ac", "addresses": ["17Jb2LTMmyRX4NKBD8HZH8R5KPsp3KxM8F"], "asm": "OP_DUP OP_HASH160 45243a1f88de0cbaa8b8e3c79175a2f1f3a85a3a OP_EQUALVERIFY OP_CHECKSIG", "type": "pubkeyhash"}, "value": 0.01970362, "n": 1}], "hex": "0100000001f7533da22082251b436e60a114470ee950c528f340993f2cef559eb454ad9ead010000006a4730440220118f133fe41e6bb901c06486f6e3bfeed6524a49390f16cd6e78d76850e3272102202ff6250a9071bc60e7aa300973e2644d21c51a08ffcc22d7e47134e7dc47a22601210380c4921aab8b22f875035635a99b5053287925476c71fd259327de0bbe5f7383ffffffff02583e0f000000000017a914699ed8e07d6f4fab7a96a3999ee68fffc0c169b987ba101e00000000001976a91445243a1f88de0cbaa8b8e3c79175a2f1f3a85a3a88ac00000000", "vin": [{"sequence": 4294967295, "scriptSig": {"hex": "4730440220118f133fe41e6bb901c06486f6e3bfeed6524a49390f16cd6e78d76850e3272102202ff6250a9071bc60e7aa300973e2644d21c51a08ffcc22d7e47134e7dc47a22601210380c4921aab8b22f875035635a99b5053287925476c71fd259327de0bbe5f7383", "asm": "30440220118f133fe41e6bb901c06486f6e3bfeed6524a49390f16cd6e78d76850e3272102202ff6250a9071bc60e7aa300973e2644d21c51a08ffcc22d7e47134e7dc47a226[ALL] 0380c4921aab8b22f875035635a99b5053287925476c71fd259327de0bbe5f7383"}, "vout": 1, "txid": "ad9ead54b49e55ef2c3f9940f328c550e90e4714a1606e431b258220a23d53f7"}], "txid": "53683c761ae448d8c7b542bee5e80cd55cf6ec5a2495661f3cb000cacfd71767", "blocktime": 1537871767, "version": 1, "confirmations": 11491, "time": 1537871767, "locktime": 0, "vsize": 223, "size": 223}