{"hash": "536863929d0cefd7b0e77ceda9a6e3c0ddcb6061a0553294958a58b2fb86302b", "blockhash": "000000000000000000022b45ed06c6f4ccd3cf7fb5ba4856ebd2e58215665228", "vout": [{"scriptPubKey": {"reqSigs": 1, "hex": "76a914a85a0b2f265ba20fa192c671d6dc1c45391618fb88ac", "addresses": ["1GMAPaDPSJbXDRQnfk9qvqRVcHFb4niFLb"], "asm": "OP_DUP OP_HASH160 a85a0b2f265ba20fa192c671d6dc1c45391618fb OP_EQUALVERIFY OP_CHECKSIG", "type": "pubkeyhash"}, "value": 0.00496216, "n": 0}, {"scriptPubKey": {"reqSigs": 1, "hex": "76a914c075ceeeddf5b8549f0d4e77fc68d02f588ebc3188ac", "addresses": ["1JYdsJH3EbsRWSTS8ruUnLbcnJLYqPavfy"], "asm": "OP_DUP OP_HASH160 c075ceeeddf5b8549f0d4e77fc68d02f588ebc31 OP_EQUALVERIFY OP_CHECKSIG", "type": "pubkeyhash"}, "value": 0.0050055, "n": 1}], "hex": "010000000157b8666b688308eb33c904e83810855cfbdbe26b61ac5c1c1825e11cc332eabd010000006b483045022100b5652974b87ebaf3da77cb83fe99d60bb02b4f58657de73af159e1fc850a1a7202205e19b3d7482c6aa495bb61a199d0a170a98310865f16a921b97ecff0a24566270121022d8461faab14b938c285ea476d456381270adcdceb7640ab4423283920ad19b2ffffffff0258920700000000001976a914a85a0b2f265ba20fa192c671d6dc1c45391618fb88ac46a30700000000001976a914c075ceeeddf5b8549f0d4e77fc68d02f588ebc3188ac00000000", "vin": [{"sequence": 4294967295, "scriptSig": {"hex": "483045022100b5652974b87ebaf3da77cb83fe99d60bb02b4f58657de73af159e1fc850a1a7202205e19b3d7482c6aa495bb61a199d0a170a98310865f16a921b97ecff0a24566270121022d8461faab14b938c285ea476d456381270adcdceb7640ab4423283920ad19b2", "asm": "3045022100b5652974b87ebaf3da77cb83fe99d60bb02b4f58657de73af159e1fc850a1a7202205e19b3d7482c6aa495bb61a199d0a170a98310865f16a921b97ecff0a2456627[ALL] 022d8461faab14b938c285ea476d456381270adcdceb7640ab4423283920ad19b2"}, "vout": 1, "txid": "bdea32c31ce125181c5cac616be2dbfb5c851038e804c933eb0883686b66b857"}], "txid": "536863929d0cefd7b0e77ceda9a6e3c0ddcb6061a0553294958a58b2fb86302b", "blocktime": 1537869901, "version": 1, "confirmations": 11524, "time": 1537869901, "locktime": 0, "vsize": 226, "size": 226}