{"hash": "e275a26178d04b4d70a0daea197c260d538513b8e4e3d928187374df90b46ce1", "blockhash": "00000000000000000024a2167bbff67b0be802c0b01cdd79e6331c2be6459f87", "vout": [{"scriptPubKey": {"reqSigs": 1, "hex": "a91464f7419a3e24b5d5c58797623b827cdf33dab22187", "addresses": ["3AtshPjzXMsTZrVAyBYAyJba1z8i6JReND"], "asm": "OP_HASH160 64f7419a3e24b5d5c58797623b827cdf33dab221 OP_EQUAL", "type": "scripthash"}, "value": 12.6973478, "n": 0}, {"scriptPubKey": {"reqSigs": 1, "hex": "a91469f376c7c7a80fe9cb78b21b0646966544406fb187", "addresses": ["3BMEXrr8VCZmt2KNo1agEWgXCxQo37SPrX"], "asm": "OP_HASH160 69f376c7c7a80fe9cb78b21b0646966544406fb1 OP_EQUAL", "type": "scripthash"}, "value": 0.13609405, "n": 1}], "hex": "020000000001019ab6b89ce2f80d8b58ce25afde2e7a6773d60cb3a512780a442eca688c63598200000000171600149a01f3be8926b24836ff1726dade135f515eb864feffffff027c9dae4b0000000017a91464f7419a3e24b5d5c58797623b827cdf33dab22187bda9cf000000000017a91469f376c7c7a80fe9cb78b21b0646966544406fb18702473044022010915dc4d885db1e0982d0b5e434fd0cea845bce75d44ee6bd618c644284c7f60220425da96b888392fae32681021ffc329131ac560a8853cffc2f9e579f4f0e7bef012102adf458acab15b7a81069a39d7e1d3241ad9b010c58ccf09bd9eaabe77f2849a60d490800", "vin": [{"txinwitness": ["3044022010915dc4d885db1e0982d0b5e434fd0cea845bce75d44ee6bd618c644284c7f60220425da96b888392fae32681021ffc329131ac560a8853cffc2f9e579f4f0e7bef01", "02adf458acab15b7a81069a39d7e1d3241ad9b010c58ccf09bd9eaabe77f2849a6"], "sequence": 4294967294, "scriptSig": {"hex": "1600149a01f3be8926b24836ff1726dade135f515eb864", "asm": "00149a01f3be8926b24836ff1726dade135f515eb864"}, "vout": 0, "txid": "8259638c68ca2e440a7812a5b30cd673677a2edeaf25ce588b0df8e29cb8b69a"}], "txid": "536b73052badf11ab2f29586931875fd34ee1528fe21c79888e39eaaf47d3db8", "blocktime": 1537870564, "version": 2, "confirmations": 11515, "time": 1537870564, "locktime": 542989, "vsize": 166, "size": 247}