{"hash": "536bf6ce896bd78c2290ca123ccbff5de6152912617e8005774976962089b741", "blockhash": "0000000000000000001f76057863aec43deb6fa401d9628bb513d65a8098bfab", "vout": [{"scriptPubKey": {"reqSigs": 1, "hex": "a91433b9e2310304bb0c23084b30067310734efeb11687", "addresses": ["36QX4k4ihmMshKDeJhV6enSVfEBMWvtFdM"], "asm": "OP_HASH160 33b9e2310304bb0c23084b30067310734efeb116 OP_EQUAL", "type": "scripthash"}, "value": 0.00016, "n": 0}], "hex": "01000000014fb69b4b69f2fca5e0658d176d9b98cd32c3b590f4f8afebbc85bed6b51d03af000000006b483045022100bc455f8389e78325f089c8ef7fc68b61b66fbb449318db7010f1c2d6bbd2445e02204c057068af510e2a820c7e681498c98c6fdcbcdbef088f392ba6f3407bdc2a60012103c4875c6f60e680c879b454c21fc23cf76c5e8abe809763044d84987746656646ffffffff01803e00000000000017a91433b9e2310304bb0c23084b30067310734efeb1168700000000", "vin": [{"sequence": 4294967295, "scriptSig": {"hex": "483045022100bc455f8389e78325f089c8ef7fc68b61b66fbb449318db7010f1c2d6bbd2445e02204c057068af510e2a820c7e681498c98c6fdcbcdbef088f392ba6f3407bdc2a60012103c4875c6f60e680c879b454c21fc23cf76c5e8abe809763044d84987746656646", "asm": "3045022100bc455f8389e78325f089c8ef7fc68b61b66fbb449318db7010f1c2d6bbd2445e02204c057068af510e2a820c7e681498c98c6fdcbcdbef088f392ba6f3407bdc2a60[ALL] 03c4875c6f60e680c879b454c21fc23cf76c5e8abe809763044d84987746656646"}, "vout": 0, "txid": "af031db5d6be85bcebaff8f490b5c332cd989b6d178d65e0a5fcf2694b9bb64f"}], "txid": "536bf6ce896bd78c2290ca123ccbff5de6152912617e8005774976962089b741", "blocktime": 1537873891, "version": 1, "confirmations": 11477, "time": 1537873891, "locktime": 0, "vsize": 190, "size": 190}