{"hash": "537073f16893883ff95a6e150a06aea62e6a4b75bf1f7789bda2c8396fb33cfc", "blockhash": "0000000000000000001f0ddff1eddb255c1121bcd4da4f1bc9a0da00cae72433", "vout": [{"scriptPubKey": {"reqSigs": 1, "hex": "a914cb1519a22160cbca83539f05f83418a64f496a6f87", "addresses": ["3LCpNYjyaY9s6Wdhc3Jp6gM5Nq4eeYYhNW"], "asm": "OP_HASH160 cb1519a22160cbca83539f05f83418a64f496a6f OP_EQUAL", "type": "scripthash"}, "value": 0.1, "n": 0}, {"scriptPubKey": {"reqSigs": 1, "hex": "76a914409f65f974187043f421ff648cfb804f1252e9db88ac", "addresses": ["16thCU8hNbhvbCAnkgmDzaLhw6QZrGXKa5"], "asm": "OP_DUP OP_HASH160 409f65f974187043f421ff648cfb804f1252e9db OP_EQUALVERIFY OP_CHECKSIG", "type": "pubkeyhash"}, "value": 0.47391637, "n": 1}], "hex": "0100000001fdc788ca8d437ea8c42965f4dcca896ce671ed0f526976b5c7f015340de7cc3c010000006b483045022100917b6fe33fa0efffb332bb59e8df54f30970d852d47adea2d30ae57b5f2070b002203ba8d7d29b65a0dacc64b73e42e34ed1cb795f8c3a2ebb77d834ec3f72618ec20121028dfaf35e1f6fb292a7d2ffac2ef973e7851bdbc8b0781754b3e15b679ffc7cd4ffffffff02809698000000000017a914cb1519a22160cbca83539f05f83418a64f496a6f879523d302000000001976a914409f65f974187043f421ff648cfb804f1252e9db88ac00000000", "vin": [{"sequence": 4294967295, "scriptSig": {"hex": "483045022100917b6fe33fa0efffb332bb59e8df54f30970d852d47adea2d30ae57b5f2070b002203ba8d7d29b65a0dacc64b73e42e34ed1cb795f8c3a2ebb77d834ec3f72618ec20121028dfaf35e1f6fb292a7d2ffac2ef973e7851bdbc8b0781754b3e15b679ffc7cd4", "asm": "3045022100917b6fe33fa0efffb332bb59e8df54f30970d852d47adea2d30ae57b5f2070b002203ba8d7d29b65a0dacc64b73e42e34ed1cb795f8c3a2ebb77d834ec3f72618ec2[ALL] 028dfaf35e1f6fb292a7d2ffac2ef973e7851bdbc8b0781754b3e15b679ffc7cd4"}, "vout": 1, "txid": "3ccce70d3415f0c7b57669520fed71e66c89cadcf46529c4a87e438dca88c7fd"}], "txid": "537073f16893883ff95a6e150a06aea62e6a4b75bf1f7789bda2c8396fb33cfc", "blocktime": 1537872018, "version": 1, "confirmations": 11489, "time": 1537872018, "locktime": 0, "vsize": 224, "size": 224}