{"hash": "5376ee2458767fe522c04c5d64f557436e49241348b5cde64177bcdbf7cc336c", "blockhash": "0000000000000000001f0ddff1eddb255c1121bcd4da4f1bc9a0da00cae72433", "vout": [{"scriptPubKey": {"reqSigs": 1, "hex": "76a914d243e6abb9a60fbff430b421d2df4b7d59ec186088ac", "addresses": ["1LAnF8h3qMGx3TSwNUHVneBZUEpwE4gu3D"], "asm": "OP_DUP OP_HASH160 d243e6abb9a60fbff430b421d2df4b7d59ec1860 OP_EQUALVERIFY OP_CHECKSIG", "type": "pubkeyhash"}, "value": 0.00076972, "n": 0}, {"scriptPubKey": {"reqSigs": 1, "hex": "76a9143851f34d13937b673a7d24a1950bb5b21ce94af388ac", "addresses": ["168o1kqNquEJeR9vosUB5fw4eAwcVAgh8P"], "asm": "OP_DUP OP_HASH160 3851f34d13937b673a7d24a1950bb5b21ce94af3 OP_EQUALVERIFY OP_CHECKSIG", "type": "pubkeyhash"}, "value": 5.46e-06, "n": 1}, {"scriptPubKey": {"type": "nulldata", "hex": "6a146f6d6e69000000000000001f0000009b46566d00", "asm": "OP_RETURN 6f6d6e69000000000000001f0000009b46566d00"}, "value": 0.0, "n": 2}], "hex": "01000000027f096cf3dca7fbcb0694981ab048e96d9830f9bf36b89a6aa441acf3b1338360000000006b483045022100e4f09e3817921ffaf9dc56e4d50e69acc218567176971fcc2601e7047b4e69a00220693292cb5a902bc9ea3025d67ea7303cd0f926dbf7ae0488eef82e98fee31c6501210252796c2a25ca17c0c97c8b86ac12105e1f08692a4aacbca2db30b452263a458bffffffff133295b52404b06e9b67c3263dbfc80ec9f558dc962dd5e4fd9c492917578b26000000006a4730440220594d0a33afbfeb5403e902c1595bde9d2107f965e3d99b09857410c78450ccd40220332d114759b0c10a260198fbe7a9b92f576c6ce6a438c0ac62e42afc6b6eebc701210271977291b74f1f5f5c42157e8aae804664eaaeccfd097918450d37f28fb94d77ffffffff03ac2c0100000000001976a914d243e6abb9a60fbff430b421d2df4b7d59ec186088ac22020000000000001976a9143851f34d13937b673a7d24a1950bb5b21ce94af388ac0000000000000000166a146f6d6e69000000000000001f0000009b46566d0000000000", "vin": [{"sequence": 4294967295, "scriptSig": {"hex": "483045022100e4f09e3817921ffaf9dc56e4d50e69acc218567176971fcc2601e7047b4e69a00220693292cb5a902bc9ea3025d67ea7303cd0f926dbf7ae0488eef82e98fee31c6501210252796c2a25ca17c0c97c8b86ac12105e1f08692a4aacbca2db30b452263a458b", "asm": "3045022100e4f09e3817921ffaf9dc56e4d50e69acc218567176971fcc2601e7047b4e69a00220693292cb5a902bc9ea3025d67ea7303cd0f926dbf7ae0488eef82e98fee31c65[ALL] 0252796c2a25ca17c0c97c8b86ac12105e1f08692a4aacbca2db30b452263a458b"}, "vout": 0, "txid": "608333b1f3ac41a46a9ab836bff930986de948b01a989406cbfba7dcf36c097f"}, {"sequence": 4294967295, "scriptSig": {"hex": "4730440220594d0a33afbfeb5403e902c1595bde9d2107f965e3d99b09857410c78450ccd40220332d114759b0c10a260198fbe7a9b92f576c6ce6a438c0ac62e42afc6b6eebc701210271977291b74f1f5f5c42157e8aae804664eaaeccfd097918450d37f28fb94d77", "asm": "30440220594d0a33afbfeb5403e902c1595bde9d2107f965e3d99b09857410c78450ccd40220332d114759b0c10a260198fbe7a9b92f576c6ce6a438c0ac62e42afc6b6eebc7[ALL] 0271977291b74f1f5f5c42157e8aae804664eaaeccfd097918450d37f28fb94d77"}, "vout": 0, "txid": "268b571729499cfde4d52d96dc58f5c90ec8bf3d26c3679b6eb00424b5953213"}], "txid": "5376ee2458767fe522c04c5d64f557436e49241348b5cde64177bcdbf7cc336c", "blocktime": 1537872018, "version": 1, "confirmations": 11489, "time": 1537872018, "locktime": 0, "vsize": 404, "size": 404}