{"hash": "5378e8eed09e8712193b804bebe6c92a0fa76c773d172c534d0f064ce82af1f7", "blockhash": "00000000000000000004ffacab907a6b429b9a5745fa0b75af4234bf69dd7176", "vout": [{"scriptPubKey": {"reqSigs": 1, "hex": "76a914d7d3d37f8314782b0a2e0c63d056d757f335044188ac", "addresses": ["1LgC3BeBj9Mm7KZwK2KixRo3LqQ2cQE9Lu"], "asm": "OP_DUP OP_HASH160 d7d3d37f8314782b0a2e0c63d056d757f3350441 OP_EQUALVERIFY OP_CHECKSIG", "type": "pubkeyhash"}, "value": 1.1, "n": 0}, {"scriptPubKey": {"reqSigs": 1, "hex": "76a9149cd4874b8c9c1a20b4f771e9fe6ea01b6d381c2b88ac", "addresses": ["1FJF1fXvGiJMZysknQTVks8UEgpeWfWRF7"], "asm": "OP_DUP OP_HASH160 9cd4874b8c9c1a20b4f771e9fe6ea01b6d381c2b OP_EQUALVERIFY OP_CHECKSIG", "type": "pubkeyhash"}, "value": 0.33376, "n": 1}], "hex": "0100000002ea49f200419c8a8d862c46a3cac3d02865f1554ed7509c86f0b9b7330994c1a9010000006b483045022100c59811ea6674fc207a27a1b10d2f2ccea4f8a01b31854b15610f541207aee4820220744d18acb19b33085058d40504d270ea6b4b4eac6e14200bfef23dda8bb42838012103524e9e6bc571fa0e7f60fdd68c3bb8a33b0fc3542400a933349d961a31ff362cffffffffaaa78db340d071851ed466a237f24f486e93456e808ab5d38c0428efefd1f2af010000006b483045022100a0789fba8b184c85428a6cf976270478020a10138e6d806e9622025f9993ddac02204c97eaf7fab51d29b69ed76f4069fa6e283b6446261518565b826c69c99a99cb012103a7a7fd7fef24c85b15f346de0165e703a15f68829aba73e1c6d2556d84ad3f64ffffffff0280778e06000000001976a914d7d3d37f8314782b0a2e0c63d056d757f335044188ac0047fd01000000001976a9149cd4874b8c9c1a20b4f771e9fe6ea01b6d381c2b88ac00000000", "vin": [{"sequence": 4294967295, "scriptSig": {"hex": "483045022100c59811ea6674fc207a27a1b10d2f2ccea4f8a01b31854b15610f541207aee4820220744d18acb19b33085058d40504d270ea6b4b4eac6e14200bfef23dda8bb42838012103524e9e6bc571fa0e7f60fdd68c3bb8a33b0fc3542400a933349d961a31ff362c", "asm": "3045022100c59811ea6674fc207a27a1b10d2f2ccea4f8a01b31854b15610f541207aee4820220744d18acb19b33085058d40504d270ea6b4b4eac6e14200bfef23dda8bb42838[ALL] 03524e9e6bc571fa0e7f60fdd68c3bb8a33b0fc3542400a933349d961a31ff362c"}, "vout": 1, "txid": "a9c1940933b7b9f0869c50d74e55f16528d0c3caa3462c868d8a9c4100f249ea"}, {"sequence": 4294967295, "scriptSig": {"hex": "483045022100a0789fba8b184c85428a6cf976270478020a10138e6d806e9622025f9993ddac02204c97eaf7fab51d29b69ed76f4069fa6e283b6446261518565b826c69c99a99cb012103a7a7fd7fef24c85b15f346de0165e703a15f68829aba73e1c6d2556d84ad3f64", "asm": "3045022100a0789fba8b184c85428a6cf976270478020a10138e6d806e9622025f9993ddac02204c97eaf7fab51d29b69ed76f4069fa6e283b6446261518565b826c69c99a99cb[ALL] 03a7a7fd7fef24c85b15f346de0165e703a15f68829aba73e1c6d2556d84ad3f64"}, "vout": 1, "txid": "aff2d1efef28048cd3b58a806e45936e484ff237a266d41e8571d040b38da7aa"}], "txid": "5378e8eed09e8712193b804bebe6c92a0fa76c773d172c534d0f064ce82af1f7", "blocktime": 1537875543, "version": 1, "confirmations": 11464, "time": 1537875543, "locktime": 0, "vsize": 374, "size": 374}