{"hash": "c5e96695842f1d195187c583e0d03ea1b4bbb42f39111915d4a92ad7be8f45a0", "blockhash": "00000000000000000024a2167bbff67b0be802c0b01cdd79e6331c2be6459f87", "vout": [{"scriptPubKey": {"reqSigs": 1, "hex": "a91438b35f1e3232ca91f87f965c280a14b3b12e9b0687", "addresses": ["36rpeEtojJ2uCKjB3crQMosBWeaXrzygG4"], "asm": "OP_HASH160 38b35f1e3232ca91f87f965c280a14b3b12e9b06 OP_EQUAL", "type": "scripthash"}, "value": 0.02996417, "n": 0}, {"scriptPubKey": {"reqSigs": 1, "hex": "a9147a4ccdd8b419021f856b521869e5485d40d40b6287", "addresses": ["3CqgNPVf1Fzc6pnnr25YCNGDGftLgQhtx4"], "asm": "OP_HASH160 7a4ccdd8b419021f856b521869e5485d40d40b62 OP_EQUAL", "type": "scripthash"}, "value": 0.2794844, "n": 1}], "hex": "0200000000010138dbeea9662b35fe81aeb6dfb6c462c5aaf3ed5c6529ec93d85399bbb480003b01000000171600147be35bac3345c9ed92cd895aa81053c113adb97ffeffffff02c1b82d000000000017a91438b35f1e3232ca91f87f965c280a14b3b12e9b06879875aa010000000017a9147a4ccdd8b419021f856b521869e5485d40d40b628702483045022100adfa8fef97b1d8ee09c63323ddaab10767d9f26eea2189343a2181fd7fe6d31202201e6d4a4fd976ec107e6d61475953e7785070ff9da840a30d4aedc18cdca75b060121021827521f1500dcc9e2335fd874cca52a05df06dfece4f1d767d7ce1d3a22b3ad0c490800", "vin": [{"txinwitness": ["3045022100adfa8fef97b1d8ee09c63323ddaab10767d9f26eea2189343a2181fd7fe6d31202201e6d4a4fd976ec107e6d61475953e7785070ff9da840a30d4aedc18cdca75b0601", "021827521f1500dcc9e2335fd874cca52a05df06dfece4f1d767d7ce1d3a22b3ad"], "sequence": 4294967294, "scriptSig": {"hex": "1600147be35bac3345c9ed92cd895aa81053c113adb97f", "asm": "00147be35bac3345c9ed92cd895aa81053c113adb97f"}, "vout": 1, "txid": "3b0080b4bb9953d893ec29655cedf3aac562c4b6dfb6ae81fe352b66a9eedb38"}], "txid": "537baa989f46cb39afa775f28207e1919555532a2a4bb72928e89c1fb36b36e2", "blocktime": 1537870564, "version": 2, "confirmations": 11515, "time": 1537870564, "locktime": 542988, "vsize": 166, "size": 248}