{"hash": "539826ad26672145084a18fdfa1db17bcf8f31f757c599b32619950335a56bd1", "blockhash": "0000000000000000001e0dab787dd257d1dbfcb92a98c2207d5e1078be1f4165", "vout": [{"scriptPubKey": {"reqSigs": 1, "hex": "76a914a9f65a2c90d81682cd0cc45dba591cdcd64ca81888ac", "addresses": ["1GVgKGr9RBGd7T8FPVAZKuHzmLpwsmqWkp"], "asm": "OP_DUP OP_HASH160 a9f65a2c90d81682cd0cc45dba591cdcd64ca818 OP_EQUALVERIFY OP_CHECKSIG", "type": "pubkeyhash"}, "value": 0.0001, "n": 0}, {"scriptPubKey": {"reqSigs": 1, "hex": "76a9142ae3bbaea7808dcc01c69992ca9794b2aab46dca88ac", "addresses": ["14unCEUq4HVbzmKBGhD6VkBfAHAjsjDUtt"], "asm": "OP_DUP OP_HASH160 2ae3bbaea7808dcc01c69992ca9794b2aab46dca OP_EQUALVERIFY OP_CHECKSIG", "type": "pubkeyhash"}, "value": 0.00212393, "n": 1}], "hex": "01000000018d56faaf9ab125f4cfd9b7aa821b3e39e4f609a0bc31f3750f94e80cb024b8a2010000006b483045022100fc6ff903985c70b7cf41ad3607ea9e41dbd153968dfe04baf8a277fa9cc064e802202caa4b72ca3eb321ed3bffa10724725dd32927bcc73a3d74f8fbd41e62d37ac901210241fc50481f8cedd5eb86cebe26824bf5259ba0a0c775ad0985e55365b8d0ba5cffffffff0210270000000000001976a914a9f65a2c90d81682cd0cc45dba591cdcd64ca81888aca93d0300000000001976a9142ae3bbaea7808dcc01c69992ca9794b2aab46dca88ac00000000", "vin": [{"sequence": 4294967295, "scriptSig": {"hex": "483045022100fc6ff903985c70b7cf41ad3607ea9e41dbd153968dfe04baf8a277fa9cc064e802202caa4b72ca3eb321ed3bffa10724725dd32927bcc73a3d74f8fbd41e62d37ac901210241fc50481f8cedd5eb86cebe26824bf5259ba0a0c775ad0985e55365b8d0ba5c", "asm": "3045022100fc6ff903985c70b7cf41ad3607ea9e41dbd153968dfe04baf8a277fa9cc064e802202caa4b72ca3eb321ed3bffa10724725dd32927bcc73a3d74f8fbd41e62d37ac9[ALL] 0241fc50481f8cedd5eb86cebe26824bf5259ba0a0c775ad0985e55365b8d0ba5c"}, "vout": 1, "txid": "a2b824b00ce8940f75f331bca009f6e4393e1b82aab7d9cff425b19aaffa568d"}], "txid": "539826ad26672145084a18fdfa1db17bcf8f31f757c599b32619950335a56bd1", "blocktime": 1537872475, "version": 1, "confirmations": 11487, "time": 1537872475, "locktime": 0, "vsize": 226, "size": 226}