{"hash": "32884c4a0d5322ef19f2ffc9f4184900b722b710cb63fdd476893d0e923ef7f9", "blockhash": "00000000000000000004ffacab907a6b429b9a5745fa0b75af4234bf69dd7176", "vout": [{"scriptPubKey": {"reqSigs": 1, "hex": "76a914760175fee14c6410344cb667d6ff6d50c3c99efc88ac", "addresses": ["1BkxV9GSDBYLE2XdZfN4fMA5DrvrQJrKud"], "asm": "OP_DUP OP_HASH160 760175fee14c6410344cb667d6ff6d50c3c99efc OP_EQUALVERIFY OP_CHECKSIG", "type": "pubkeyhash"}, "value": 0.006441, "n": 0}, {"scriptPubKey": {"reqSigs": 1, "hex": "a914f2096030f880681a8f1d54cac411e1d599217f0d87", "addresses": ["3PkngQSrV1Tx7aXGkLV2wvf4EgKRhtpZ7Z"], "asm": "OP_HASH160 f2096030f880681a8f1d54cac411e1d599217f0d OP_EQUAL", "type": "scripthash"}, "value": 0.05728348, "n": 1}], "hex": "01000000000101b49f9eb9bda7c96c297f0ee84c108ba0f006087153183c28b82b19519f6eb42401000000232200203f878a465102930fc595cae8e0666bff44c11f396cf10ff492b4bd3d2c3a30cfffffffff0204d40900000000001976a914760175fee14c6410344cb667d6ff6d50c3c99efc88ac5c6857000000000017a914f2096030f880681a8f1d54cac411e1d599217f0d870400483045022100876fd23b62de51b6f0c21dde06de3f0a2cd10b396f9c46657bbb1039b47bb9a3022050a7430b65c845c6e24c3ef742069a5910d83279f694d8d25f53ecde8f94b42e0147304402206b6e5d1c6f32a5da1e600b4ab9c63abdae2499e15ec19f6832fc6d970201710502205b87a293a8c4c851a39aeed54b8e32cd864d1c4fd24306f279ab54e303393b940147522103e92ea6b688e65e3f8d2b9ab29d20bcf72cff27791a9e3e6b651970ec3ffa14fd2102dd2332c0512dee4ea813748993f8056f254166d97719c8c2e4e8f542e54e1af152ae00000000", "vin": [{"txinwitness": ["", "3045022100876fd23b62de51b6f0c21dde06de3f0a2cd10b396f9c46657bbb1039b47bb9a3022050a7430b65c845c6e24c3ef742069a5910d83279f694d8d25f53ecde8f94b42e01", "304402206b6e5d1c6f32a5da1e600b4ab9c63abdae2499e15ec19f6832fc6d970201710502205b87a293a8c4c851a39aeed54b8e32cd864d1c4fd24306f279ab54e303393b9401", "522103e92ea6b688e65e3f8d2b9ab29d20bcf72cff27791a9e3e6b651970ec3ffa14fd2102dd2332c0512dee4ea813748993f8056f254166d97719c8c2e4e8f542e54e1af152ae"], "sequence": 4294967295, "scriptSig": {"hex": "2200203f878a465102930fc595cae8e0666bff44c11f396cf10ff492b4bd3d2c3a30cf", "asm": "00203f878a465102930fc595cae8e0666bff44c11f396cf10ff492b4bd3d2c3a30cf"}, "vout": 1, "txid": "24b46e9f51192bb8283c1853710806f0a08b104ce80e7f296cc9a7bdb99e9fb4"}], "txid": "539b2bb5844a688a1f1daf76abd8ec170cf925a405556c7c69c0b99f738ca8a7", "blocktime": 1537875543, "version": 1, "confirmations": 11464, "time": 1537875543, "locktime": 0, "vsize": 208, "size": 373}