{"hash": "53a362e8c2721a5d83c9dbbed02a825763477782c11e8d4cb1b2bf7e3670f270", "blockhash": "0000000000000000000e13cef7c366c0283d82e591d1acd082e914b08063cdf1", "vout": [{"scriptPubKey": {"reqSigs": 1, "hex": "76a91447303204f544ca69a66d60a548d0ad6d5ccc19b588ac", "addresses": ["17VQiJ4omjs4wZiHE6PJi3AJtwWqjiuifn"], "asm": "OP_DUP OP_HASH160 47303204f544ca69a66d60a548d0ad6d5ccc19b5 OP_EQUALVERIFY OP_CHECKSIG", "type": "pubkeyhash"}, "value": 0.00060331, "n": 0}, {"scriptPubKey": {"reqSigs": 1, "hex": "a914bf670259391da3de67a1f3a06977100a5ed8e37087", "addresses": ["3K94PPMaMWJnTSBApG8Mbh29k2j39yo3S8"], "asm": "OP_HASH160 bf670259391da3de67a1f3a06977100a5ed8e370 OP_EQUAL", "type": "scripthash"}, "value": 0.02733118, "n": 1}], "hex": "01000000042c0b86d1435975d44ff3feff601ed84070e1be7bc632c77aa0f052f012f38110000000006a47304402206aa4b3c2a31c2de17a7119ab7457d029f2eda3b6e7615f49bdaa1ca0f31d8fdb02200b7b30ce3a539fe0e64893dd22a9b85e1a422921b91b4bf819f30684bba484ec0121037c076f7be270b1769382d908b2ec68b8d66dbe23e92a1078e5e97b88e76fa956ffffffff024f83240cb3ecb4452f6d1fcbbfb97fab77ae906f2e8e70fe9dddd0c2940563130000006b483045022100d29e4f64444aa809e7817dc3983c1118757cc7566d322f8f24f97c80ec27c163022061072a419e443bcbb260d0388878a352586715ed3ebea88f902e980e3fc947d7012102f6037ab533481d85ea5a40bf95e65d7a805a251c4e41737d6e3fe8601a9c57ceffffffffacb38fbd75941ba667c32ca61ce6a4f9fb7dc80c76c3511a3e8d17dda017a79a010000006b483045022100a64574096d9981a334cf28b7a42148c2645fc0858285ee8408457d1ddc666d7a0220686ab68268b8a3402e47bbd39d089a3d0829a516022ca0d237dac1442604ef1b0121038ce0331eab8cb08c240fa98b83e7fc9f198c27151a992eea9fee42f765778461ffffffffcba3058ba951f030c8f61d81c5ef56221cf159edd53cdf1bb89f4a61daf57da2000000006b48304502210095f7485d54894f907b36c90598ce071deb961c5c9362f49b50ba13565f6d243e022017715cc2062c92da89ecff979c4e73d9d3eb1054ce8c43dee31203788d1329c901210363a6b4b8c37afd776b460c5dd4f047fa8910a229736b32d66dc1fce0b202d774ffffffff02abeb0000000000001976a91447303204f544ca69a66d60a548d0ad6d5ccc19b588ac3eb429000000000017a914bf670259391da3de67a1f3a06977100a5ed8e3708700000000", "vin": [{"sequence": 4294967295, "scriptSig": {"hex": "47304402206aa4b3c2a31c2de17a7119ab7457d029f2eda3b6e7615f49bdaa1ca0f31d8fdb02200b7b30ce3a539fe0e64893dd22a9b85e1a422921b91b4bf819f30684bba484ec0121037c076f7be270b1769382d908b2ec68b8d66dbe23e92a1078e5e97b88e76fa956", "asm": "304402206aa4b3c2a31c2de17a7119ab7457d029f2eda3b6e7615f49bdaa1ca0f31d8fdb02200b7b30ce3a539fe0e64893dd22a9b85e1a422921b91b4bf819f30684bba484ec[ALL] 037c076f7be270b1769382d908b2ec68b8d66dbe23e92a1078e5e97b88e76fa956"}, "vout": 0, "txid": "1081f312f052f0a07ac732c67bbee17040d81e60fffef34fd4755943d1860b2c"}, {"sequence": 4294967295, "scriptSig": {"hex": "483045022100d29e4f64444aa809e7817dc3983c1118757cc7566d322f8f24f97c80ec27c163022061072a419e443bcbb260d0388878a352586715ed3ebea88f902e980e3fc947d7012102f6037ab533481d85ea5a40bf95e65d7a805a251c4e41737d6e3fe8601a9c57ce", "asm": "3045022100d29e4f64444aa809e7817dc3983c1118757cc7566d322f8f24f97c80ec27c163022061072a419e443bcbb260d0388878a352586715ed3ebea88f902e980e3fc947d7[ALL] 02f6037ab533481d85ea5a40bf95e65d7a805a251c4e41737d6e3fe8601a9c57ce"}, "vout": 19, "txid": "630594c2d0dd9dfe708e2e6f90ae77ab7fb9bfcb1f6d2f45b4ecb30c24834f02"}, {"sequence": 4294967295, "scriptSig": {"hex": "483045022100a64574096d9981a334cf28b7a42148c2645fc0858285ee8408457d1ddc666d7a0220686ab68268b8a3402e47bbd39d089a3d0829a516022ca0d237dac1442604ef1b0121038ce0331eab8cb08c240fa98b83e7fc9f198c27151a992eea9fee42f765778461", "asm": "3045022100a64574096d9981a334cf28b7a42148c2645fc0858285ee8408457d1ddc666d7a0220686ab68268b8a3402e47bbd39d089a3d0829a516022ca0d237dac1442604ef1b[ALL] 038ce0331eab8cb08c240fa98b83e7fc9f198c27151a992eea9fee42f765778461"}, "vout": 1, "txid": "9aa717a0dd178d3e1a51c3760cc87dfbf9a4e61ca62cc367a61b9475bd8fb3ac"}, {"sequence": 4294967295, "scriptSig": {"hex": "48304502210095f7485d54894f907b36c90598ce071deb961c5c9362f49b50ba13565f6d243e022017715cc2062c92da89ecff979c4e73d9d3eb1054ce8c43dee31203788d1329c901210363a6b4b8c37afd776b460c5dd4f047fa8910a229736b32d66dc1fce0b202d774", "asm": "304502210095f7485d54894f907b36c90598ce071deb961c5c9362f49b50ba13565f6d243e022017715cc2062c92da89ecff979c4e73d9d3eb1054ce8c43dee31203788d1329c9[ALL] 0363a6b4b8c37afd776b460c5dd4f047fa8910a229736b32d66dc1fce0b202d774"}, "vout": 0, "txid": "a27df5da614a9fb81bdf3cd5ed59f11c2256efc5811df6c830f051a98b05a3cb"}], "txid": "53a362e8c2721a5d83c9dbbed02a825763477782c11e8d4cb1b2bf7e3670f270", "blocktime": 1537871767, "version": 1, "confirmations": 11495, "time": 1537871767, "locktime": 0, "vsize": 667, "size": 667}