{"hash": "53abf40b19568b9ea2f501012bfc93192454562b1814c1144192c7f451382dd3", "blockhash": "00000000000000000004ffacab907a6b429b9a5745fa0b75af4234bf69dd7176", "vout": [{"scriptPubKey": {"reqSigs": 1, "hex": "76a914915067e881303f08553b4e65a2db9129902cceb688ac", "addresses": ["1EFMJWrRmcCr1qN4Jkfq6aPeVvXnnrdapS"], "asm": "OP_DUP OP_HASH160 915067e881303f08553b4e65a2db9129902cceb6 OP_EQUALVERIFY OP_CHECKSIG", "type": "pubkeyhash"}, "value": 0.0021, "n": 0}, {"scriptPubKey": {"reqSigs": 1, "hex": "76a914fca830242264e3b382ea65eafd20311d3647994c88ac", "addresses": ["1Q2vmFcXzuHrYedJ7AjLcDjSoNai1EpC2s"], "asm": "OP_DUP OP_HASH160 fca830242264e3b382ea65eafd20311d3647994c OP_EQUALVERIFY OP_CHECKSIG", "type": "pubkeyhash"}, "value": 0.22852348, "n": 1}], "hex": "0100000001dc438978b7bc4aa75f8c9b90cc98b0ff0d79b416c720408f53c29fe81d63e39a010000006a473044022017c1261c57ce79799a6dee07be7326a81ef47e34e0e0b31792f06bc1fcaa4619022011d9d48c99fd719740d0ceb040508ee58d87e623b21a4894e8e7c6d1a2414e2b012103e9f4d582c12dd623ed8fe91ff948572b8dafdc0be875e5a4de51f039cb48c278fdffffff0250340300000000001976a914915067e881303f08553b4e65a2db9129902cceb688acfcb25c01000000001976a914fca830242264e3b382ea65eafd20311d3647994c88ac16490800", "vin": [{"sequence": 4294967293, "scriptSig": {"hex": "473044022017c1261c57ce79799a6dee07be7326a81ef47e34e0e0b31792f06bc1fcaa4619022011d9d48c99fd719740d0ceb040508ee58d87e623b21a4894e8e7c6d1a2414e2b012103e9f4d582c12dd623ed8fe91ff948572b8dafdc0be875e5a4de51f039cb48c278", "asm": "3044022017c1261c57ce79799a6dee07be7326a81ef47e34e0e0b31792f06bc1fcaa4619022011d9d48c99fd719740d0ceb040508ee58d87e623b21a4894e8e7c6d1a2414e2b[ALL] 03e9f4d582c12dd623ed8fe91ff948572b8dafdc0be875e5a4de51f039cb48c278"}, "vout": 1, "txid": "9ae3631de89fc2538f4020c716b4790dffb098cc909b8c5fa74abcb7788943dc"}], "txid": "53abf40b19568b9ea2f501012bfc93192454562b1814c1144192c7f451382dd3", "blocktime": 1537875543, "version": 1, "confirmations": 11464, "time": 1537875543, "locktime": 542998, "vsize": 225, "size": 225}