{"hash": "3208c7d974c2005c692d3d4d509a2ee60f36083fa5e9d3c7f6f682a1e93f0f0b", "blockhash": "0000000000000000001f76057863aec43deb6fa401d9628bb513d65a8098bfab", "vout": [{"scriptPubKey": {"reqSigs": 1, "hex": "0014524a02c14890cf4764ad915349079af1199ff7e5", "addresses": ["bc1q2f9q9s2gjr85we9dj9f5jpu67yvelal9pw7srm"], "asm": "0 524a02c14890cf4764ad915349079af1199ff7e5", "type": "witness_v0_keyhash"}, "value": 5.818e-05, "n": 0}, {"scriptPubKey": {"reqSigs": 1, "hex": "76a9145414db65f06ac332c62125d5d40db09cda3d980b88ac", "addresses": ["18fakHYRe7jSX34tF55HVvmydgPRbmches"], "asm": "OP_DUP OP_HASH160 5414db65f06ac332c62125d5d40db09cda3d980b OP_EQUALVERIFY OP_CHECKSIG", "type": "pubkeyhash"}, "value": 0.01098, "n": 1}], "hex": "010000000001016aba3c000fb5763c765f98b2d1b95a1a79c02b1e5a08ecc14e43f5cda529ddf20100000000ffffffff02ba16000000000000160014524a02c14890cf4764ad915349079af1199ff7e510c11000000000001976a9145414db65f06ac332c62125d5d40db09cda3d980b88ac02483045022100be53ae25b89cec9324dff57588d2dfe1fb3fd0c73b18f93eee172a560fd3ff1902204f76781b33142fdb6494760c78b567b5c1326da93b886b266a9c3f2bdb0c0da9012102f77d9b2e18a9442abd9f381b0a6bff6ba686102d4bdeff41617631a9ae1e081c00000000", "vin": [{"txinwitness": ["3045022100be53ae25b89cec9324dff57588d2dfe1fb3fd0c73b18f93eee172a560fd3ff1902204f76781b33142fdb6494760c78b567b5c1326da93b886b266a9c3f2bdb0c0da901", "02f77d9b2e18a9442abd9f381b0a6bff6ba686102d4bdeff41617631a9ae1e081c"], "sequence": 4294967295, "scriptSig": {"hex": "", "asm": ""}, "vout": 1, "txid": "f2dd29a5cdf5434ec1ec085a1e2bc0791a5ab9d1b2985f763c76b50f003cba6a"}], "txid": "53ad09737a60108f8a29dbb7457bb7ad70da43438b382c36efc38053522b8fba", "blocktime": 1537873891, "version": 1, "confirmations": 11478, "time": 1537873891, "locktime": 0, "vsize": 144, "size": 226}