{"hash": "53b59a9777994a834edc676382670fc6b455fd7f4facb1967fc3842bc0ed10fe", "blockhash": "00000000000000000018f53835495a110e01622372bf6ae95dc86f2b0ab887b0", "vout": [{"scriptPubKey": {"reqSigs": 1, "hex": "76a914cd741b8efb00056061b1cd32992ee36d827a6a8688ac", "addresses": ["1KjLcdKbsxyLnRKHZgJNBc54Jp2rvsjNg8"], "asm": "OP_DUP OP_HASH160 cd741b8efb00056061b1cd32992ee36d827a6a86 OP_EQUALVERIFY OP_CHECKSIG", "type": "pubkeyhash"}, "value": 0.0045, "n": 0}, {"scriptPubKey": {"reqSigs": 1, "hex": "76a9144bd232b0f82cf78f11e96ed416c719e065d091e788ac", "addresses": ["17uuVCg1uJJRE3Tajh9eLmxzTmPTXH7Q7d"], "asm": "OP_DUP OP_HASH160 4bd232b0f82cf78f11e96ed416c719e065d091e7 OP_EQUALVERIFY OP_CHECKSIG", "type": "pubkeyhash"}, "value": 0.10869007, "n": 1}], "hex": "01000000011aa50523c1efe36a7e1dfbe3aa23b110d53b91ad0f301f24b3c76f55b9afb41d010000006a4730440220651babc12d2ff626d6926bfaa53d39c92c53d333d70a369231ad7db8dc42a84f02205e72e2d8e01d5d995e26c662f593c846ff0b76cf99547e463688703ed7cce0dc012103c73460934693fb43dc2905297a2f75c5078a01b79e7cb9e0506768f452424533feffffff02d0dd0600000000001976a914cd741b8efb00056061b1cd32992ee36d827a6a8688ac0fd9a500000000001976a9144bd232b0f82cf78f11e96ed416c719e065d091e788ac0e490800", "vin": [{"sequence": 4294967294, "scriptSig": {"hex": "4730440220651babc12d2ff626d6926bfaa53d39c92c53d333d70a369231ad7db8dc42a84f02205e72e2d8e01d5d995e26c662f593c846ff0b76cf99547e463688703ed7cce0dc012103c73460934693fb43dc2905297a2f75c5078a01b79e7cb9e0506768f452424533", "asm": "30440220651babc12d2ff626d6926bfaa53d39c92c53d333d70a369231ad7db8dc42a84f02205e72e2d8e01d5d995e26c662f593c846ff0b76cf99547e463688703ed7cce0dc[ALL] 03c73460934693fb43dc2905297a2f75c5078a01b79e7cb9e0506768f452424533"}, "vout": 1, "txid": "1db4afb9556fc7b3241f300fad913bd510b123aae3fb1d7e6ae3efc12305a51a"}], "txid": "53b59a9777994a834edc676382670fc6b455fd7f4facb1967fc3842bc0ed10fe", "blocktime": 1537870928, "version": 1, "confirmations": 11514, "time": 1537870928, "locktime": 542990, "vsize": 225, "size": 225}