{"hash": "53b5ddb175e12560f5c2850e15fa5cedcc1b34250905713a4af2426376a1585c", "blockhash": "000000000000000000205f8b0775d31398ef75b89a5e8ec8d2c57b4dc0ac4c20", "vout": [{"scriptPubKey": {"reqSigs": 1, "hex": "76a914b7ab2aefddf4e3a62ce208246854ba8f02aa049588ac", "addresses": ["1Hk9i3iXtZRT62QFMMZeMH2mDAHsKcrhwS"], "asm": "OP_DUP OP_HASH160 b7ab2aefddf4e3a62ce208246854ba8f02aa0495 OP_EQUALVERIFY OP_CHECKSIG", "type": "pubkeyhash"}, "value": 0.99407541, "n": 0}, {"scriptPubKey": {"reqSigs": 1, "hex": "76a914a7d0ba432b8858fe3659983ff7f631646071dc7d88ac", "addresses": ["1GJKtgbcdqUCBtepEQgMyBjx2Pwapujy4u"], "asm": "OP_DUP OP_HASH160 a7d0ba432b8858fe3659983ff7f631646071dc7d OP_EQUALVERIFY OP_CHECKSIG", "type": "pubkeyhash"}, "value": 2.34984693, "n": 1}], "hex": "0100000004b028a40d8de68e89f8ee5e72639a43d78ddb337caf64d27edf85b0b3d1faca0b000000006a4730440220194734ccbba7cdd69c9021c5fbe4003f3552b01c14e333bc15edc99c354cb2d902201b71a048bdbb3e509f7078679e936a727ea953d1e26db22b9e6ac9e77c613ee9012103907681b22fd64e5dbcc1c15d78eab86fd0aab2b1f6bbba3dc0b2845900b9de73ffffffffc6ddc3899f6f3f7dc2ae17620dae5ce8775f50d7580facd7da7ed91fad7dd92e000000006a47304402201ff231b168d57d01ad8edcd6872056fbbf7dff88a9eabe7e7cc8487d60642c870220118770a047ea5ffbffad23e949a3355a59f6e578cd062e4440674640162700b0012103907681b22fd64e5dbcc1c15d78eab86fd0aab2b1f6bbba3dc0b2845900b9de73ffffffff84f376532d38245f617e74e48c3a53f23be121939b1918d997e44d5c3d3f32a4010000006b483045022100c391c9d421dc208fb98aafaae373e37e6aa7c701c0f3ba99b769e0b7645d24ce02200a4020c71114ed67ec01a24705ef2a2caac9b4569ca353447625853ea3619e360121021bfcd17a1134da9408d4cc399602dabffa206759115a4e24ce9847a8f2e461feffffffffe15eeefde4c821b967c660831ff31cfe39e40832fa393b2326de4c92017d76b3290000006b483045022100ce66e1fc16abadd4c38e41bbd63a618c95553e4d940217b201f8e7d8c057db3e0220339a12b8de6c3b553ca8e3d53e58d1b81ad2a8c55f030a869f9d046e5b3210f2012103907681b22fd64e5dbcc1c15d78eab86fd0aab2b1f6bbba3dc0b2845900b9de73ffffffff02b5d6ec05000000001976a914b7ab2aefddf4e3a62ce208246854ba8f02aa049588acf594010e000000001976a914a7d0ba432b8858fe3659983ff7f631646071dc7d88ac00000000", "vin": [{"sequence": 4294967295, "scriptSig": {"hex": "4730440220194734ccbba7cdd69c9021c5fbe4003f3552b01c14e333bc15edc99c354cb2d902201b71a048bdbb3e509f7078679e936a727ea953d1e26db22b9e6ac9e77c613ee9012103907681b22fd64e5dbcc1c15d78eab86fd0aab2b1f6bbba3dc0b2845900b9de73", "asm": "30440220194734ccbba7cdd69c9021c5fbe4003f3552b01c14e333bc15edc99c354cb2d902201b71a048bdbb3e509f7078679e936a727ea953d1e26db22b9e6ac9e77c613ee9[ALL] 03907681b22fd64e5dbcc1c15d78eab86fd0aab2b1f6bbba3dc0b2845900b9de73"}, "vout": 0, "txid": "0bcafad1b3b085df7ed264af7c33db8dd7439a63725eeef8898ee68d0da428b0"}, {"sequence": 4294967295, "scriptSig": {"hex": "47304402201ff231b168d57d01ad8edcd6872056fbbf7dff88a9eabe7e7cc8487d60642c870220118770a047ea5ffbffad23e949a3355a59f6e578cd062e4440674640162700b0012103907681b22fd64e5dbcc1c15d78eab86fd0aab2b1f6bbba3dc0b2845900b9de73", "asm": "304402201ff231b168d57d01ad8edcd6872056fbbf7dff88a9eabe7e7cc8487d60642c870220118770a047ea5ffbffad23e949a3355a59f6e578cd062e4440674640162700b0[ALL] 03907681b22fd64e5dbcc1c15d78eab86fd0aab2b1f6bbba3dc0b2845900b9de73"}, "vout": 0, "txid": "2ed97dad1fd97edad7ac0f58d7505f77e85cae0d6217aec27d3f6f9f89c3ddc6"}, {"sequence": 4294967295, "scriptSig": {"hex": "483045022100c391c9d421dc208fb98aafaae373e37e6aa7c701c0f3ba99b769e0b7645d24ce02200a4020c71114ed67ec01a24705ef2a2caac9b4569ca353447625853ea3619e360121021bfcd17a1134da9408d4cc399602dabffa206759115a4e24ce9847a8f2e461fe", "asm": "3045022100c391c9d421dc208fb98aafaae373e37e6aa7c701c0f3ba99b769e0b7645d24ce02200a4020c71114ed67ec01a24705ef2a2caac9b4569ca353447625853ea3619e36[ALL] 021bfcd17a1134da9408d4cc399602dabffa206759115a4e24ce9847a8f2e461fe"}, "vout": 1, "txid": "a4323f3d5c4de497d918199b9321e13bf2533a8ce4747e615f24382d5376f384"}, {"sequence": 4294967295, "scriptSig": {"hex": "483045022100ce66e1fc16abadd4c38e41bbd63a618c95553e4d940217b201f8e7d8c057db3e0220339a12b8de6c3b553ca8e3d53e58d1b81ad2a8c55f030a869f9d046e5b3210f2012103907681b22fd64e5dbcc1c15d78eab86fd0aab2b1f6bbba3dc0b2845900b9de73", "asm": "3045022100ce66e1fc16abadd4c38e41bbd63a618c95553e4d940217b201f8e7d8c057db3e0220339a12b8de6c3b553ca8e3d53e58d1b81ad2a8c55f030a869f9d046e5b3210f2[ALL] 03907681b22fd64e5dbcc1c15d78eab86fd0aab2b1f6bbba3dc0b2845900b9de73"}, "vout": 41, "txid": "b3767d01924cde26233b39fa3208e439fe1cf31f8360c667b921c8e4fdee5ee1"}], "txid": "53b5ddb175e12560f5c2850e15fa5cedcc1b34250905713a4af2426376a1585c", "blocktime": 1537871175, "version": 1, "confirmations": 11511, "time": 1537871175, "locktime": 0, "vsize": 668, "size": 668}