{"hash": "1eb0f3ac41b3024601e7332797d4d54d2300b081b4426b40c75b83be36162d3b", "blockhash": "0000000000000000001cda96e906b7601b7a6fb1a3b62bca570a9e5d8f4b3de1", "vout": [{"scriptPubKey": {"reqSigs": 1, "hex": "76a9149a1b8f9b1fa2d2297863adb1cb11c71df455684888ac", "addresses": ["1F3r5We2zwNiSzG6GQUTTWnnPMCz2HJbJu"], "asm": "OP_DUP OP_HASH160 9a1b8f9b1fa2d2297863adb1cb11c71df4556848 OP_EQUALVERIFY OP_CHECKSIG", "type": "pubkeyhash"}, "value": 2.717e-05, "n": 0}, {"scriptPubKey": {"reqSigs": 1, "hex": "a9148ddb66c3371910a0ef8f38021cc4094e61e69f3a87", "addresses": ["3Ed62sPENkraPwpovPty9YMFGJ8FtTyv63"], "asm": "OP_HASH160 8ddb66c3371910a0ef8f38021cc4094e61e69f3a OP_EQUAL", "type": "scripthash"}, "value": 5.496e-05, "n": 1}], "hex": "0100000000010138fe750111fb87e47a8c3691c2ac0c5054455198b907ade007f095051f0a68a40100000023220020fdd23d707f55451c4e006c77b5e8df35a185a8e99f9bda70bf0ded7913bb1eb3ffffffff029d0a0000000000001976a9149a1b8f9b1fa2d2297863adb1cb11c71df455684888ac781500000000000017a9148ddb66c3371910a0ef8f38021cc4094e61e69f3a8704004730440220069c9de76cc0ac705bddb3cb38be31242f1da4387852ad9f31ae45820e258d6b02201881b7838bf795cfa71ff3d89bc02a0d48754ba148dec1e58263dc02e198906a01473044022041da6ca782ed4d41f3817719b6bc5179ad552ab50904dfc76cfa8ae77e0649a2022073f502dae7b9c366ca7baa898bdbe46e98309d61f4ee12f37992bfb977ca7cba014752210286c104577b978160849865bc23f9a6df9b53d41c8ffb486754b97b2a474a181c2103148c80a5bdfddb05ff5bcffc397c8ca748d8b435ec6a175bc9d7bfc7fc6f853752ae00000000", "vin": [{"txinwitness": ["", "30440220069c9de76cc0ac705bddb3cb38be31242f1da4387852ad9f31ae45820e258d6b02201881b7838bf795cfa71ff3d89bc02a0d48754ba148dec1e58263dc02e198906a01", "3044022041da6ca782ed4d41f3817719b6bc5179ad552ab50904dfc76cfa8ae77e0649a2022073f502dae7b9c366ca7baa898bdbe46e98309d61f4ee12f37992bfb977ca7cba01", "52210286c104577b978160849865bc23f9a6df9b53d41c8ffb486754b97b2a474a181c2103148c80a5bdfddb05ff5bcffc397c8ca748d8b435ec6a175bc9d7bfc7fc6f853752ae"], "sequence": 4294967295, "scriptSig": {"hex": "220020fdd23d707f55451c4e006c77b5e8df35a185a8e99f9bda70bf0ded7913bb1eb3", "asm": "0020fdd23d707f55451c4e006c77b5e8df35a185a8e99f9bda70bf0ded7913bb1eb3"}, "vout": 1, "txid": "a4680a1f0595f007e0ad07b998514554500cacc291368c7ae487fb110175fe38"}], "txid": "53b62b8b38155afd3846c3e88812fc08d1c96ccb7400d6d4371ae656fc65d493", "blocktime": 1537873282, "version": 1, "confirmations": 11484, "time": 1537873282, "locktime": 0, "vsize": 207, "size": 372}