{"hash": "8db63f0b0ac6b2e01ad5e8d45df1355f8d068851d3f5ae4850be61ca2da39157", "blockhash": "0000000000000000001f76057863aec43deb6fa401d9628bb513d65a8098bfab", "vout": [{"scriptPubKey": {"reqSigs": 1, "hex": "a91469f37699696ceb948e06a4b8b87dd60c8890b39f87", "addresses": ["3BMEXozkttLwqoGgMRPBMG5S4s87t6N8WW"], "asm": "OP_HASH160 69f37699696ceb948e06a4b8b87dd60c8890b39f OP_EQUAL", "type": "scripthash"}, "value": 0.12152501, "n": 0}, {"scriptPubKey": {"reqSigs": 1, "hex": "00140831a4c6cae7d0dab5ba334a4a685260dc73e5a2", "addresses": ["bc1qpqc6f3k2ulgd4dd6xd9y56zjvrw88edzg73qqs"], "asm": "0 0831a4c6cae7d0dab5ba334a4a685260dc73e5a2", "type": "witness_v0_keyhash"}, "value": 0.72711311, "n": 1}], "hex": "01000000000101179d42e718780692e7635b1a29cbd5d3a5c0f9b5ad6c95691c759f89a16e76440000000000ffffffff02b56eb9000000000017a91469f37699696ceb948e06a4b8b87dd60c8890b39f878f7c5504000000001600140831a4c6cae7d0dab5ba334a4a685260dc73e5a20247304402206e57e83d7716d6a54fbffa19a2cd5d5a51be2ac88f2d4469a77c56ed4e71bc7f0220023c4ebc5e1733ac187ea28b5ade46a1cf4cf6df513a02bef1d8c1d4afe36fd9012102c34dff22268ef713400c9d587a10ff1cd842bf0de295ff82eeacbcb3663851b600000000", "vin": [{"txinwitness": ["304402206e57e83d7716d6a54fbffa19a2cd5d5a51be2ac88f2d4469a77c56ed4e71bc7f0220023c4ebc5e1733ac187ea28b5ade46a1cf4cf6df513a02bef1d8c1d4afe36fd901", "02c34dff22268ef713400c9d587a10ff1cd842bf0de295ff82eeacbcb3663851b6"], "sequence": 4294967295, "scriptSig": {"hex": "", "asm": ""}, "vout": 0, "txid": "44766ea1899f751c69956cadb5f9c0a5d3d5cb291a5b63e792067818e7429d17"}], "txid": "53bca9aee4289aee1fde0e7ae6570c696d2a2afeb1a303c0430c7aa8f1a56cc5", "blocktime": 1537873891, "version": 1, "confirmations": 11478, "time": 1537873891, "locktime": 0, "vsize": 142, "size": 223}