{"hash": "72b9de10935c83c2621524e8395f89acde275d1e6cae83bbdacd2b15a30cdda1", "blockhash": "0000000000000000000e13cef7c366c0283d82e591d1acd082e914b08063cdf1", "vout": [{"scriptPubKey": {"reqSigs": 1, "hex": "76a914d7e605e8436924ee40929605c4d635dd68517fe788ac", "addresses": ["1LgZqXZqBWuAy55ZKyzSuNMjPTsgBcwqUg"], "asm": "OP_DUP OP_HASH160 d7e605e8436924ee40929605c4d635dd68517fe7 OP_EQUALVERIFY OP_CHECKSIG", "type": "pubkeyhash"}, "value": 0.03196908, "n": 0}, {"scriptPubKey": {"reqSigs": 1, "hex": "76a914f8edfa9d3cb71f5b99d61211ca6e9dd013534ce888ac", "addresses": ["1PhDfeEyc3adxXgHxmScgqgY3quDcBKkJy"], "asm": "OP_DUP OP_HASH160 f8edfa9d3cb71f5b99d61211ca6e9dd013534ce8 OP_EQUALVERIFY OP_CHECKSIG", "type": "pubkeyhash"}, "value": 0.00031292, "n": 1}], "hex": "02000000000101368015b8f5dfc5c9bd69819bf056f5979ae568733f70a1383c9dd487ace6ebd701000000171600149b9c14cb43b7de4765b0ee577ccfcca277902e5cfdffffff02ecc73000000000001976a914d7e605e8436924ee40929605c4d635dd68517fe788ac3c7a0000000000001976a914f8edfa9d3cb71f5b99d61211ca6e9dd013534ce888ac02483045022100b6144e1665f031c7e7838085ecbd794b6be834404a564ca56c6c40b4301a961d022070fc55d8de05738366a11fa2bd969e40325c0bdb20aa3f2946e94006a1829fc401210367a7c0009043ef4524f54293d913fe1d53dd1508079ff55ccd30aef0d09acd4100000000", "vin": [{"txinwitness": ["3045022100b6144e1665f031c7e7838085ecbd794b6be834404a564ca56c6c40b4301a961d022070fc55d8de05738366a11fa2bd969e40325c0bdb20aa3f2946e94006a1829fc401", "0367a7c0009043ef4524f54293d913fe1d53dd1508079ff55ccd30aef0d09acd41"], "sequence": 4294967293, "scriptSig": {"hex": "1600149b9c14cb43b7de4765b0ee577ccfcca277902e5c", "asm": "00149b9c14cb43b7de4765b0ee577ccfcca277902e5c"}, "vout": 1, "txid": "d7ebe6ac87d49d3c38a1703f7368e59a97f556f09b8169bdc9c5dff5b8158036"}], "txid": "53c4b8e7414b892967f78294e386ccea9331b4bff16e5ec70a50f5499ae612e2", "blocktime": 1537871767, "version": 2, "confirmations": 11493, "time": 1537871767, "locktime": 0, "vsize": 170, "size": 252}