{"hash": "f03352283280a39b642b7c4ec061bebb8d734c9736d2f9320a08f12819f0e270", "blockhash": "00000000000000000017f5eb5941039fbcee6240d03bc1f2f8e35350df66a1d8", "vout": [{"scriptPubKey": {"reqSigs": 1, "hex": "76a914e340f2a407404cf5a2935fdbefe6422d3aa7d82288ac", "addresses": ["1MicCCXs2j5EMyHAPfMEhSuzUBSC53Sszj"], "asm": "OP_DUP OP_HASH160 e340f2a407404cf5a2935fdbefe6422d3aa7d822 OP_EQUALVERIFY OP_CHECKSIG", "type": "pubkeyhash"}, "value": 0.0027496, "n": 0}, {"scriptPubKey": {"reqSigs": 1, "hex": "a9147d8b1772e3f2eacd0147fd3a87f89a97dcf741bd87", "addresses": ["3D8q1myA1HvjTystn78aii4MdoxW6h6LKa"], "asm": "OP_HASH160 7d8b1772e3f2eacd0147fd3a87f89a97dcf741bd OP_EQUAL", "type": "scripthash"}, "value": 0.01000316, "n": 1}], "hex": "020000000001023fe0668ea883c40c60aa7bea4776f7f520b31282e1fa44437cba9a1188ea5bd501000000171600145f84163ceb377ef4e2d548a3191d6d5c1647ed6dfeffffff87411bbf370b413f6c573b6a07490daaa2401274364cbe6a13cc73716a3e0ae90f0000001716001470f2436535ef11378cdc3ea794381f1bcaeb3a7bfeffffff0210320400000000001976a914e340f2a407404cf5a2935fdbefe6422d3aa7d82288ac7c430f000000000017a9147d8b1772e3f2eacd0147fd3a87f89a97dcf741bd87024830450221009a674687b64621e64e059fd50f6ed914837c0194791a2dbb3b5a54ed63f0354002204c4eb374e75a1c63aa13c34b5b6529dd9aba3505383f3c8e333bc8886135b7fd0121037cc183bb58fb996f363255023dbd19a2374020e00e1897ba2cc4348a5ec396290247304402204a5b4b9b1f2959ea6bb0cbaacb00941d96ea50317ed9c5dbdaa86d18eae176d002206b90a5d9bc4eb6ea8a41e2e8704c6f6240206d4dc57b5da427f26d608db20dfb012103b9ca7277f8dc02e08d2dc4e8fe22260d2547f64197852d88e1f479636125268115490800", "vin": [{"txinwitness": ["30450221009a674687b64621e64e059fd50f6ed914837c0194791a2dbb3b5a54ed63f0354002204c4eb374e75a1c63aa13c34b5b6529dd9aba3505383f3c8e333bc8886135b7fd01", "037cc183bb58fb996f363255023dbd19a2374020e00e1897ba2cc4348a5ec39629"], "sequence": 4294967294, "scriptSig": {"hex": "1600145f84163ceb377ef4e2d548a3191d6d5c1647ed6d", "asm": "00145f84163ceb377ef4e2d548a3191d6d5c1647ed6d"}, "vout": 1, "txid": "d55bea88119aba7c4344fae18212b320f5f77647ea7baa600cc483a88e66e03f"}, {"txinwitness": ["304402204a5b4b9b1f2959ea6bb0cbaacb00941d96ea50317ed9c5dbdaa86d18eae176d002206b90a5d9bc4eb6ea8a41e2e8704c6f6240206d4dc57b5da427f26d608db20dfb01", "03b9ca7277f8dc02e08d2dc4e8fe22260d2547f64197852d88e1f4796361252681"], "sequence": 4294967294, "scriptSig": {"hex": "16001470f2436535ef11378cdc3ea794381f1bcaeb3a7b", "asm": "001470f2436535ef11378cdc3ea794381f1bcaeb3a7b"}, "vout": 15, "txid": "e90a3e6a7173cc136abe4c36741240a2aa0d49076a3b576c3f410b37bf1b4187"}], "txid": "53c6c2b0704c9f9a6be2786fdb2ffc97a90d79c4e28a7a4d0672db0c2911cf1b", "blocktime": 1537874412, "version": 2, "confirmations": 11468, "time": 1537874412, "locktime": 542997, "vsize": 259, "size": 421}