{"hash": "53ca6acc5c8764de685d3664d2571a008b53d1c6a3790a02f84130d274a7c9ac", "blockhash": "0000000000000000000e13cef7c366c0283d82e591d1acd082e914b08063cdf1", "vout": [{"scriptPubKey": {"reqSigs": 1, "hex": "a914e854a656e6ad4eda0ff651b95e76ffae743fb86e87", "addresses": ["3NsU6ck9PRXsXfVhZ5FAtjbbGvPP8rcD3q"], "asm": "OP_HASH160 e854a656e6ad4eda0ff651b95e76ffae743fb86e OP_EQUAL", "type": "scripthash"}, "value": 0.00392004, "n": 0}, {"scriptPubKey": {"reqSigs": 1, "hex": "76a914e349bc52d6b8100b58d3fce45135a91c5c128a1d88ac", "addresses": ["1MiningDkXkhKaXBTMKXfLemnk1YY5rbkT"], "asm": "OP_DUP OP_HASH160 e349bc52d6b8100b58d3fce45135a91c5c128a1d OP_EQUALVERIFY OP_CHECKSIG", "type": "pubkeyhash"}, "value": 1.02636465, "n": 1}], "hex": "020000000159c2fac1e0fe99df4836d38bb23767a8f514e0e8910cb8f7ff6e4601dab6f175010000008a4730440220744383bc44ffdd92b4af02a261d5a063ca082e1bb98b11d7e5ece019a743700102204078f32aa9b39494758dc34ae22cc536aea1ac076db2a44ee50b72cdfddb0917014104ae414abde7876c34e01694b38b2341d10b9b4c8db18a66262bd8df26bcb57893885c9fe8b79aa25330d5f05bb5aa9ab636a908a72e27956572b44190b22809beffffffff0244fb05000000000017a914e854a656e6ad4eda0ff651b95e76ffae743fb86e87b11b1e06000000001976a914e349bc52d6b8100b58d3fce45135a91c5c128a1d88ac00000000", "vin": [{"sequence": 4294967295, "scriptSig": {"hex": "4730440220744383bc44ffdd92b4af02a261d5a063ca082e1bb98b11d7e5ece019a743700102204078f32aa9b39494758dc34ae22cc536aea1ac076db2a44ee50b72cdfddb0917014104ae414abde7876c34e01694b38b2341d10b9b4c8db18a66262bd8df26bcb57893885c9fe8b79aa25330d5f05bb5aa9ab636a908a72e27956572b44190b22809be", "asm": "30440220744383bc44ffdd92b4af02a261d5a063ca082e1bb98b11d7e5ece019a743700102204078f32aa9b39494758dc34ae22cc536aea1ac076db2a44ee50b72cdfddb0917[ALL] 04ae414abde7876c34e01694b38b2341d10b9b4c8db18a66262bd8df26bcb57893885c9fe8b79aa25330d5f05bb5aa9ab636a908a72e27956572b44190b22809be"}, "vout": 1, "txid": "75f1b6da01466efff7b80c91e8e014f5a86737b28bd33648df99fee0c1fac259"}], "txid": "53ca6acc5c8764de685d3664d2571a008b53d1c6a3790a02f84130d274a7c9ac", "blocktime": 1537871767, "version": 2, "confirmations": 11493, "time": 1537871767, "locktime": 0, "vsize": 255, "size": 255}