{"hash": "53caebe81a7beb2f75fdf55fd4f0fb3ad0c7ea1e58ebc4e5e78792333eb7e678", "blockhash": "0000000000000000001f0ddff1eddb255c1121bcd4da4f1bc9a0da00cae72433", "vout": [{"scriptPubKey": {"reqSigs": 1, "hex": "76a914abd4dcd7306a73b697fce4a4d1af1d5d9aa2354a88ac", "addresses": ["1GfZYm4yPFmFyvAgyyyqBn1xKbb24rndvw"], "asm": "OP_DUP OP_HASH160 abd4dcd7306a73b697fce4a4d1af1d5d9aa2354a OP_EQUALVERIFY OP_CHECKSIG", "type": "pubkeyhash"}, "value": 0.004699, "n": 0}, {"scriptPubKey": {"reqSigs": 1, "hex": "76a914196f0005c7dafc897bf842b7e4681e73387744ef88ac", "addresses": ["13KUsDbKD66Kit84GKKnVuookwNwoyUmfc"], "asm": "OP_DUP OP_HASH160 196f0005c7dafc897bf842b7e4681e73387744ef OP_EQUALVERIFY OP_CHECKSIG", "type": "pubkeyhash"}, "value": 0.084777, "n": 1}], "hex": "0100000001b2cc58e73d00bbc189d03fdadc29b0b928f60c4442879ed44c0d9ecb09b672f8010000006a4730440220732349b8b85b839925db48d2636b0481abff77407e7da571407533d3d6ee6d480220539ec996dbe3095138b57e6bf64b19ce83fd98dc98f0e938b57491b50e511e9c012103c6aede1472c30f68729fa3a3e7316ca0fb8c8cedec02bffe1850c75b600c3cd6feffffff028c2b0700000000001976a914abd4dcd7306a73b697fce4a4d1af1d5d9aa2354a88ac045c8100000000001976a914196f0005c7dafc897bf842b7e4681e73387744ef88ac11490800", "vin": [{"sequence": 4294967294, "scriptSig": {"hex": "4730440220732349b8b85b839925db48d2636b0481abff77407e7da571407533d3d6ee6d480220539ec996dbe3095138b57e6bf64b19ce83fd98dc98f0e938b57491b50e511e9c012103c6aede1472c30f68729fa3a3e7316ca0fb8c8cedec02bffe1850c75b600c3cd6", "asm": "30440220732349b8b85b839925db48d2636b0481abff77407e7da571407533d3d6ee6d480220539ec996dbe3095138b57e6bf64b19ce83fd98dc98f0e938b57491b50e511e9c[ALL] 03c6aede1472c30f68729fa3a3e7316ca0fb8c8cedec02bffe1850c75b600c3cd6"}, "vout": 1, "txid": "f872b609cb9e0d4cd49e8742440cf628b9b029dcda3fd089c1bb003de758ccb2"}], "txid": "53caebe81a7beb2f75fdf55fd4f0fb3ad0c7ea1e58ebc4e5e78792333eb7e678", "blocktime": 1537872018, "version": 1, "confirmations": 11489, "time": 1537872018, "locktime": 542993, "vsize": 225, "size": 225}