{"hash": "53cf95dce65e8c317714cef784de3ad1da3e05d07b4dc19d7ff52ecff42839ea", "blockhash": "00000000000000000017f5eb5941039fbcee6240d03bc1f2f8e35350df66a1d8", "vout": [{"scriptPubKey": {"reqSigs": 1, "hex": "76a91464d36f874cfb4cdf47ff45ff7398a34a6a693b3288ac", "addresses": ["1AC7rzRnUaXGFoANnX4EUiYKXSa8QgWcXm"], "asm": "OP_DUP OP_HASH160 64d36f874cfb4cdf47ff45ff7398a34a6a693b32 OP_EQUALVERIFY OP_CHECKSIG", "type": "pubkeyhash"}, "value": 0.002354, "n": 0}, {"scriptPubKey": {"reqSigs": 1, "hex": "76a914fe2285041556f62ee8b2466bbbfe4d0f0115072288ac", "addresses": ["1QAjzBvZPGgDxjT77bWJp9hTWgiaULBjJ4"], "asm": "OP_DUP OP_HASH160 fe2285041556f62ee8b2466bbbfe4d0f01150722 OP_EQUALVERIFY OP_CHECKSIG", "type": "pubkeyhash"}, "value": 9.57e-05, "n": 1}], "hex": "01000000019d75b9cb5d841735579b9721f164c0cdacc59c5203ce57b3d0b165f3607fc81d000000006a473044022060fd93a49a9eb306b2a280fa4f0a22b9b913620b93a34f188ba303c92e6afd77022077de705ec33fcf04743788df774ff26631e199de54f2e52aba6dc363fc11733e012102c434ef99597ce7029500985b6380e92277b50dbcebb85a58388266f35325a37affffffff0288970300000000001976a91464d36f874cfb4cdf47ff45ff7398a34a6a693b3288ac62250000000000001976a914fe2285041556f62ee8b2466bbbfe4d0f0115072288ac00000000", "vin": [{"sequence": 4294967295, "scriptSig": {"hex": "473044022060fd93a49a9eb306b2a280fa4f0a22b9b913620b93a34f188ba303c92e6afd77022077de705ec33fcf04743788df774ff26631e199de54f2e52aba6dc363fc11733e012102c434ef99597ce7029500985b6380e92277b50dbcebb85a58388266f35325a37a", "asm": "3044022060fd93a49a9eb306b2a280fa4f0a22b9b913620b93a34f188ba303c92e6afd77022077de705ec33fcf04743788df774ff26631e199de54f2e52aba6dc363fc11733e[ALL] 02c434ef99597ce7029500985b6380e92277b50dbcebb85a58388266f35325a37a"}, "vout": 0, "txid": "1dc87f60f365b1d0b357ce03529cc5accdc064f121979b573517845dcbb9759d"}], "txid": "53cf95dce65e8c317714cef784de3ad1da3e05d07b4dc19d7ff52ecff42839ea", "blocktime": 1537874412, "version": 1, "confirmations": 11468, "time": 1537874412, "locktime": 0, "vsize": 225, "size": 225}