{"hash": "4446d67c1f5a65f8500f2162371fdb3c116caeeccd319a1b4132325862759dee", "blockhash": "00000000000000000017f5eb5941039fbcee6240d03bc1f2f8e35350df66a1d8", "vout": [{"scriptPubKey": {"reqSigs": 1, "hex": "00144fccc65386ef670c957cb18c32df2019ce5ba503", "addresses": ["bc1qflxvv5uxaanse9tukxxr9heqr889hfgrzn05p3"], "asm": "0 4fccc65386ef670c957cb18c32df2019ce5ba503", "type": "witness_v0_keyhash"}, "value": 8.95e-06, "n": 0}, {"scriptPubKey": {"reqSigs": 1, "hex": "76a91495607d29653c95c6ab9b41d8d47c3f78b4c7d58588ac", "addresses": ["1EcqGkVmopUGhh2J5F59pNM3KYU4vhxPck"], "asm": "OP_DUP OP_HASH160 95607d29653c95c6ab9b41d8d47c3f78b4c7d585 OP_EQUALVERIFY OP_CHECKSIG", "type": "pubkeyhash"}, "value": 0.00072716, "n": 1}], "hex": "010000000001016955b9ca06ef9860b73acfdba1a7e555b69f4564cf0850f9280903b49b9ac4290100000000ffffffff027f030000000000001600144fccc65386ef670c957cb18c32df2019ce5ba5030c1c0100000000001976a91495607d29653c95c6ab9b41d8d47c3f78b4c7d58588ac024730440220532920c74918367f346797cae486b8105cc958e88dd6f491cb6a477c10601a5a0220267ce43d1d16b8e6396e9cdd01c0de30f090a45b7572063c8920eaf85ea3cc4a012102d60bb4ab0c63fe4e5c5894fd6d4d38347d802a2f604e357b56642cf1de92857600000000", "vin": [{"txinwitness": ["30440220532920c74918367f346797cae486b8105cc958e88dd6f491cb6a477c10601a5a0220267ce43d1d16b8e6396e9cdd01c0de30f090a45b7572063c8920eaf85ea3cc4a01", "02d60bb4ab0c63fe4e5c5894fd6d4d38347d802a2f604e357b56642cf1de928576"], "sequence": 4294967295, "scriptSig": {"hex": "", "asm": ""}, "vout": 1, "txid": "29c49a9bb4030928f95008cf64459fb655e5a7a1dbcf3ab76098ef06cab95569"}], "txid": "53d5e4668a3ce36839ad3fe6676037e29d8cf0d9042294075ab1dfaf1394f535", "blocktime": 1537874412, "version": 1, "confirmations": 11467, "time": 1537874412, "locktime": 0, "vsize": 144, "size": 225}