{"hash": "045998636dee75cdc03e137f77c2f08c73c875e53bbed66a2306bc44294fd3d4", "blockhash": "0000000000000000001f76057863aec43deb6fa401d9628bb513d65a8098bfab", "vout": [{"scriptPubKey": {"reqSigs": 1, "hex": "76a91416b8f7762c59681a5e6cca3751a8e122a8f2398b88ac", "addresses": ["1359SvqUeeYBhoBLGi1QXeAWJrsJWD4FP9"], "asm": "OP_DUP OP_HASH160 16b8f7762c59681a5e6cca3751a8e122a8f2398b OP_EQUALVERIFY OP_CHECKSIG", "type": "pubkeyhash"}, "value": 0.00510242, "n": 0}, {"scriptPubKey": {"reqSigs": 1, "hex": "a914c880e1d323b0b3d26a952194588afce3ab3615fb87", "addresses": ["3KyBToBdTYebWAMgbcbQSEKambZZCn6xit"], "asm": "OP_HASH160 c880e1d323b0b3d26a952194588afce3ab3615fb OP_EQUAL", "type": "scripthash"}, "value": 0.01259486, "n": 1}], "hex": "020000000001018734288fb82164aab51fa4e675251b4462cdf7196d7a50ab930c519d64b6d66300000000171600143cc6118873dc32397c911fa41c3a7d9a017ff1a4feffffff0222c90700000000001976a91416b8f7762c59681a5e6cca3751a8e122a8f2398b88acde3713000000000017a914c880e1d323b0b3d26a952194588afce3ab3615fb870247304402203e95a151bb61eacd5812c12fbd4f203d6d0aea414e6b2443b1f1b7a51eca6ec0022067cf82f4181d93ea69a846eeacae63839e2f1db3d71776208f1d2108faa7f508012103edb1a96444214e0494958fe10a4a03343ac46283d4146318dbf38009c7d08f7c14490800", "vin": [{"txinwitness": ["304402203e95a151bb61eacd5812c12fbd4f203d6d0aea414e6b2443b1f1b7a51eca6ec0022067cf82f4181d93ea69a846eeacae63839e2f1db3d71776208f1d2108faa7f50801", "03edb1a96444214e0494958fe10a4a03343ac46283d4146318dbf38009c7d08f7c"], "sequence": 4294967294, "scriptSig": {"hex": "1600143cc6118873dc32397c911fa41c3a7d9a017ff1a4", "asm": "00143cc6118873dc32397c911fa41c3a7d9a017ff1a4"}, "vout": 0, "txid": "63d6b6649d510c93ab507a6d19f7cd62441b2575e6a41fb5aa6421b88f283487"}], "txid": "53dd85816e8ef755c7e913099d00389d6372ab721825c2966ca39698fe3dfdf7", "blocktime": 1537873891, "version": 2, "confirmations": 11478, "time": 1537873891, "locktime": 542996, "vsize": 168, "size": 249}