{"hash": "53dde6860ffc0305a88681b5c6e0f61c1934792a6ee859033d24466e82fdf7d5", "blockhash": "00000000000000000024a2167bbff67b0be802c0b01cdd79e6331c2be6459f87", "vout": [{"scriptPubKey": {"reqSigs": 1, "hex": "76a9141508276fd4193e83f5fce7a810a40e8f983c161988ac", "addresses": ["12vCxak5xc1t6T275xbm6AJ4xsZCxkTSc5"], "asm": "OP_DUP OP_HASH160 1508276fd4193e83f5fce7a810a40e8f983c1619 OP_EQUALVERIFY OP_CHECKSIG", "type": "pubkeyhash"}, "value": 2.67253906, "n": 0}, {"scriptPubKey": {"type": "nulldata", "hex": "6a146f6d6e69000000000000001f000000a8ea5a4450", "asm": "OP_RETURN 6f6d6e69000000000000001f000000a8ea5a4450"}, "value": 0.0, "n": 1}, {"scriptPubKey": {"reqSigs": 1, "hex": "76a9141508276fd4193e83f5fce7a810a40e8f983c161988ac", "addresses": ["12vCxak5xc1t6T275xbm6AJ4xsZCxkTSc5"], "asm": "OP_DUP OP_HASH160 1508276fd4193e83f5fce7a810a40e8f983c1619 OP_EQUALVERIFY OP_CHECKSIG", "type": "pubkeyhash"}, "value": 5.46e-06, "n": 2}], "hex": "01000000030e5c88f540166d7532aac9e020056f745c09e39da6079c851e1e09e809307ea5010000006a4730440220169087f21076ac878ab761b33620b9174fb90b124a209e631e1de637b0f84fd00220376e9dc06a471565480e982cb6608b916b0c24670558b8db05fb1715d70add0d012103f8ee43d87f6d7b20a101e681bf81276614d006761bcce60173d593860f93b91cffffffff0881fe12829a7a7813f670a7f3a099537feb4a99d3558212951125187b7df030010000006a47304402202ec2b658522ceca1e7bb5374ce77cc1483380d4443e0779f62251186c9cbf8b0022020ec64862653db8a7189a2ab1595d945d102f4fdf9d6af61464a411b3877adbb012103f8ee43d87f6d7b20a101e681bf81276614d006761bcce60173d593860f93b91cffffffffef01ed6735fd808a0cc0b333c2e34b2e89943a9038e6618f7f4aee99fe1748f3010000006b483045022100edb294c001340222933881b760238e75c4bfbbe512bd2ed72483cd67e9da45000220701de9b15bbba6df56f4ac338044ad31c36bcd520b1536bdbe6cd7cc8e811e8f01210254ef949a01df7104df714e1f346fbd1683ff108e9df64dd39d0e80a23d7e9a9affffffff0392f8ed0f000000001976a9141508276fd4193e83f5fce7a810a40e8f983c161988ac0000000000000000166a146f6d6e69000000000000001f000000a8ea5a445022020000000000001976a9141508276fd4193e83f5fce7a810a40e8f983c161988ac00000000", "vin": [{"sequence": 4294967295, "scriptSig": {"hex": "4730440220169087f21076ac878ab761b33620b9174fb90b124a209e631e1de637b0f84fd00220376e9dc06a471565480e982cb6608b916b0c24670558b8db05fb1715d70add0d012103f8ee43d87f6d7b20a101e681bf81276614d006761bcce60173d593860f93b91c", "asm": "30440220169087f21076ac878ab761b33620b9174fb90b124a209e631e1de637b0f84fd00220376e9dc06a471565480e982cb6608b916b0c24670558b8db05fb1715d70add0d[ALL] 03f8ee43d87f6d7b20a101e681bf81276614d006761bcce60173d593860f93b91c"}, "vout": 1, "txid": "a57e3009e8091e1e859c07a69de3095c746f0520e0c9aa32756d1640f5885c0e"}, {"sequence": 4294967295, "scriptSig": {"hex": "47304402202ec2b658522ceca1e7bb5374ce77cc1483380d4443e0779f62251186c9cbf8b0022020ec64862653db8a7189a2ab1595d945d102f4fdf9d6af61464a411b3877adbb012103f8ee43d87f6d7b20a101e681bf81276614d006761bcce60173d593860f93b91c", "asm": "304402202ec2b658522ceca1e7bb5374ce77cc1483380d4443e0779f62251186c9cbf8b0022020ec64862653db8a7189a2ab1595d945d102f4fdf9d6af61464a411b3877adbb[ALL] 03f8ee43d87f6d7b20a101e681bf81276614d006761bcce60173d593860f93b91c"}, "vout": 1, "txid": "30f07d7b18251195128255d3994aeb7f5399a0f3a770f613787a9a8212fe8108"}, {"sequence": 4294967295, "scriptSig": {"hex": "483045022100edb294c001340222933881b760238e75c4bfbbe512bd2ed72483cd67e9da45000220701de9b15bbba6df56f4ac338044ad31c36bcd520b1536bdbe6cd7cc8e811e8f01210254ef949a01df7104df714e1f346fbd1683ff108e9df64dd39d0e80a23d7e9a9a", "asm": "3045022100edb294c001340222933881b760238e75c4bfbbe512bd2ed72483cd67e9da45000220701de9b15bbba6df56f4ac338044ad31c36bcd520b1536bdbe6cd7cc8e811e8f[ALL] 0254ef949a01df7104df714e1f346fbd1683ff108e9df64dd39d0e80a23d7e9a9a"}, "vout": 1, "txid": "f34817fe99ee4a7f8f61e638903a94892e4be3c233b3c00c8a80fd3567ed01ef"}], "txid": "53dde6860ffc0305a88681b5c6e0f61c1934792a6ee859033d24466e82fdf7d5", "blocktime": 1537870564, "version": 1, "confirmations": 11515, "time": 1537870564, "locktime": 0, "vsize": 551, "size": 551}