{"hash": "74f8b79dc4d7d725822a06fa19100bd8dc93005ba5fb43ef5cf2e3a4bec233c6", "blockhash": "0000000000000000001f76057863aec43deb6fa401d9628bb513d65a8098bfab", "vout": [{"scriptPubKey": {"reqSigs": 1, "hex": "a914e6c401fabe1981926d470f1ec67dc041ba12655687", "addresses": ["3NjC9XA2yrYdQ4ps4qQvgTrjQuBZEddNTp"], "asm": "OP_HASH160 e6c401fabe1981926d470f1ec67dc041ba126556 OP_EQUAL", "type": "scripthash"}, "value": 0.03351178, "n": 0}, {"scriptPubKey": {"reqSigs": 1, "hex": "a91471f1c703ae3026f96da7be23d31898f380648f1387", "addresses": ["3C5VvD4oRN8JxC8Bzh8mXkgqYz5yz5btig"], "asm": "OP_HASH160 71f1c703ae3026f96da7be23d31898f380648f13 OP_EQUAL", "type": "scripthash"}, "value": 0.00462879, "n": 1}], "hex": "020000000001038f68384f2978d4d312753dbdb79d9f903eee64ed9816097923ad0e49706a3df60100000017160014941abbebff3cbb4215a16150ff655795c7577362ffffffffadf2c47d66ada33902510655e7e3bc169d771d9f3e7b5b9673227dc1aaa08a590100000017160014f14312f3108dc9bd67a3ce6399f424b01d30ff22ffffffffaec2aeae8565ea1e4c394cb0bb595ddc2da437a78e4272ba80f02d42505e622b00000000171600148c107a6792f1c3f3aa03afe074625c72931659f6ffffffff028a2233000000000017a914e6c401fabe1981926d470f1ec67dc041ba126556871f1007000000000017a91471f1c703ae3026f96da7be23d31898f380648f138702483045022100b2df1715b4b71ebbbba846c3f18de868f5dd7fcc48b22afd5532b927d40b4c0302203ce2ab2dbfdf61c98f21bbefae2978ebeaa616183e77281444692fed590426b4012102c8158f8d8e76bbad8f0c75865cf0446b689af412571dd281e8101f4bcc4c583602483045022100e2fca27603c0ecb409f27f8f3e6454d342eda48a55e1feac5cc2d1925372bf9c02200910622e5b0dd0cc7ddcd4467b1b275047bcda88f0f906ceb7c274afb838372601210309efd6553d8aa3352b6c53904454913dc8349fdcd8d7894975dd6f4b51f685da02483045022100a8b747f7b24038775cee0cc03d9bcad6f1a96f732640d35df1ad8a26b6ba9eed02206e8b86c7a9c92594d62872242af034d4bc813d0afcd103d5318b1c11e862be9b0121024c37d4a10fc50869e3846b6bc19124d53a7d756fdb6789051808dd3111d0fffc00000000", "vin": [{"txinwitness": ["3045022100b2df1715b4b71ebbbba846c3f18de868f5dd7fcc48b22afd5532b927d40b4c0302203ce2ab2dbfdf61c98f21bbefae2978ebeaa616183e77281444692fed590426b401", "02c8158f8d8e76bbad8f0c75865cf0446b689af412571dd281e8101f4bcc4c5836"], "sequence": 4294967295, "scriptSig": {"hex": "160014941abbebff3cbb4215a16150ff655795c7577362", "asm": "0014941abbebff3cbb4215a16150ff655795c7577362"}, "vout": 1, "txid": "f63d6a70490ead2379091698ed64ee3e909f9db7bd3d7512d3d478294f38688f"}, {"txinwitness": ["3045022100e2fca27603c0ecb409f27f8f3e6454d342eda48a55e1feac5cc2d1925372bf9c02200910622e5b0dd0cc7ddcd4467b1b275047bcda88f0f906ceb7c274afb838372601", "0309efd6553d8aa3352b6c53904454913dc8349fdcd8d7894975dd6f4b51f685da"], "sequence": 4294967295, "scriptSig": {"hex": "160014f14312f3108dc9bd67a3ce6399f424b01d30ff22", "asm": "0014f14312f3108dc9bd67a3ce6399f424b01d30ff22"}, "vout": 1, "txid": "598aa0aac17d2273965b7b3e9f1d779d16bce3e75506510239a3ad667dc4f2ad"}, {"txinwitness": ["3045022100a8b747f7b24038775cee0cc03d9bcad6f1a96f732640d35df1ad8a26b6ba9eed02206e8b86c7a9c92594d62872242af034d4bc813d0afcd103d5318b1c11e862be9b01", "024c37d4a10fc50869e3846b6bc19124d53a7d756fdb6789051808dd3111d0fffc"], "sequence": 4294967295, "scriptSig": {"hex": "1600148c107a6792f1c3f3aa03afe074625c72931659f6", "asm": "00148c107a6792f1c3f3aa03afe074625c72931659f6"}, "vout": 0, "txid": "2b625e50422df080ba72428ea737a42ddc5d59bbb04c394c1eea6585aeaec2ae"}], "txid": "53de5a6df0f1671c0b697bbc5288df25233f20d1e1729fb6df77a426237746e1", "blocktime": 1537873891, "version": 2, "confirmations": 11475, "time": 1537873891, "locktime": 0, "vsize": 348, "size": 592}