{"hash": "53e5a60edf73e1693b71d9574f1d0d1965f953f2be3efaee3580960b47854402", "blockhash": "0000000000000000001e0dab787dd257d1dbfcb92a98c2207d5e1078be1f4165", "vout": [{"scriptPubKey": {"reqSigs": 1, "hex": "76a914944cdcffea851ffe9f2133e31a1c59e9611ec40d88ac", "addresses": ["1EX95wpitDYF9Gw8GHh3y3HVyjm1QZebUS"], "asm": "OP_DUP OP_HASH160 944cdcffea851ffe9f2133e31a1c59e9611ec40d OP_EQUALVERIFY OP_CHECKSIG", "type": "pubkeyhash"}, "value": 0.0147834, "n": 0}, {"scriptPubKey": {"type": "nulldata", "hex": "6a4c50000077ac0001822e42dd8bd1a4fd87de89c8af6c953dd567cf27e7e3ef3236678a625097a1e44d6c54af0dabd960e864e2dc6a695baa10a50612e85f7aeb84a5bc9a9526289ac0f6612cd74e33776ee4", "asm": "OP_RETURN 000077ac0001822e42dd8bd1a4fd87de89c8af6c953dd567cf27e7e3ef3236678a625097a1e44d6c54af0dabd960e864e2dc6a695baa10a50612e85f7aeb84a5bc9a9526289ac0f6612cd74e33776ee4"}, "value": 0.0, "n": 1}], "hex": "010000000140048bde67d2ae6d576cac1477d18928f397ee0ed00f6c7cf06ddf924017014d000000006b483045022100a444e2ed43ca6345345bd8504b4a18f96bb8d5ba686cc2332154630001b58991022039fd3d824e67b27acdee8973fc23ec53746e421bc58d1baeb7516fac8e033fda012103d2d8254f803bc959da1d0577365623042d4826955065346b0420b267ca0b491dffffffff02c48e1600000000001976a914944cdcffea851ffe9f2133e31a1c59e9611ec40d88ac0000000000000000536a4c50000077ac0001822e42dd8bd1a4fd87de89c8af6c953dd567cf27e7e3ef3236678a625097a1e44d6c54af0dabd960e864e2dc6a695baa10a50612e85f7aeb84a5bc9a9526289ac0f6612cd74e33776ee400000000", "vin": [{"sequence": 4294967295, "scriptSig": {"hex": "483045022100a444e2ed43ca6345345bd8504b4a18f96bb8d5ba686cc2332154630001b58991022039fd3d824e67b27acdee8973fc23ec53746e421bc58d1baeb7516fac8e033fda012103d2d8254f803bc959da1d0577365623042d4826955065346b0420b267ca0b491d", "asm": "3045022100a444e2ed43ca6345345bd8504b4a18f96bb8d5ba686cc2332154630001b58991022039fd3d824e67b27acdee8973fc23ec53746e421bc58d1baeb7516fac8e033fda[ALL] 03d2d8254f803bc959da1d0577365623042d4826955065346b0420b267ca0b491d"}, "vout": 0, "txid": "4d01174092df6df07c6c0fd00eee97f32889d17714ac6c576daed267de8b0440"}], "txid": "53e5a60edf73e1693b71d9574f1d0d1965f953f2be3efaee3580960b47854402", "blocktime": 1537872475, "version": 1, "confirmations": 11486, "time": 1537872475, "locktime": 0, "vsize": 284, "size": 284}