{"hash": "cb58de2ee8e777464e02d47cfccbfcd488690a9bb4a9102d423fdb6c01b38f9a", "blockhash": "0000000000000000001f76057863aec43deb6fa401d9628bb513d65a8098bfab", "vout": [{"scriptPubKey": {"reqSigs": 1, "hex": "76a914c6d86116cf54da39f7896c9014ab7efb2bef050e88ac", "addresses": ["1K8Q1H3REmW4c6LWZguDAbCiUpxwj8aNqa"], "asm": "OP_DUP OP_HASH160 c6d86116cf54da39f7896c9014ab7efb2bef050e OP_EQUALVERIFY OP_CHECKSIG", "type": "pubkeyhash"}, "value": 0.00029883, "n": 0}, {"scriptPubKey": {"reqSigs": 1, "hex": "a914bfe3b9b006bd60d821de4768216fbcf3cb0629a487", "addresses": ["3KBdnpNRSUC6xH7oL58GWg3f1QzPQs9FWq"], "asm": "OP_HASH160 bfe3b9b006bd60d821de4768216fbcf3cb0629a4 OP_EQUAL", "type": "scripthash"}, "value": 0.01041446, "n": 1}], "hex": "010000000001016a68f7e25d58319e65e7132cf7b39629ff36b80e63df03dc1019719f5ad0818401000000232200204ac72bc93353695ed44de9eabe5eab31fde46c3e5524f6f6c253b37df4627817ffffffff02bb740000000000001976a914c6d86116cf54da39f7896c9014ab7efb2bef050e88ac26e40f000000000017a914bfe3b9b006bd60d821de4768216fbcf3cb0629a487040047304402204e31aa37a00d031915d4a2a05029ae294b3303b6e3dea62268c3679ad30860380220326ad2b5cfba0569680d4724c4a21f9b97e3e08686d5f6b56cdf2edd2928583801483045022100c14c13a8a639c7e56ac3742723eaad55dcc7e0c972645a3e6927b175b341f875022068a47d8c2d265b7196befe63f2de1e75c43a8bde4bfa36cf8d24696685c643a5014752210383dd989bbcdccf0b79b07f5bbd82921af5ac4762329b0aa9346994805e5cd8fc2103871fc2ca08e6950b38867e8e6a0e94ee625223d3aa0df5c65f414c6d784467e252ae00000000", "vin": [{"txinwitness": ["", "304402204e31aa37a00d031915d4a2a05029ae294b3303b6e3dea62268c3679ad30860380220326ad2b5cfba0569680d4724c4a21f9b97e3e08686d5f6b56cdf2edd2928583801", "3045022100c14c13a8a639c7e56ac3742723eaad55dcc7e0c972645a3e6927b175b341f875022068a47d8c2d265b7196befe63f2de1e75c43a8bde4bfa36cf8d24696685c643a501", "52210383dd989bbcdccf0b79b07f5bbd82921af5ac4762329b0aa9346994805e5cd8fc2103871fc2ca08e6950b38867e8e6a0e94ee625223d3aa0df5c65f414c6d784467e252ae"], "sequence": 4294967295, "scriptSig": {"hex": "2200204ac72bc93353695ed44de9eabe5eab31fde46c3e5524f6f6c253b37df4627817", "asm": "00204ac72bc93353695ed44de9eabe5eab31fde46c3e5524f6f6c253b37df4627817"}, "vout": 1, "txid": "8481d05a9f711910dc03df630eb836ff2996b3f72c13e7659e31585de2f7686a"}], "txid": "53f2fea70fe087b5c4816802ed44bbd7bff7d09e18487834e0b8dcb4198488aa", "blocktime": 1537873891, "version": 1, "confirmations": 11478, "time": 1537873891, "locktime": 0, "vsize": 208, "size": 373}