{"hash": "6e3b321f4fa83b867734daeee23bb9cd2b167ed96e8cc767ede1175e56c8263e", "blockhash": "0000000000000000001f76057863aec43deb6fa401d9628bb513d65a8098bfab", "vout": [{"scriptPubKey": {"reqSigs": 1, "hex": "a914f6e6065367ef5d3c2a27ee9c513bb97446ef379d87", "addresses": ["3QCVi8ZEvtJdk8Qdk37dsNLeeJWAt3N9fW"], "asm": "OP_HASH160 f6e6065367ef5d3c2a27ee9c513bb97446ef379d OP_EQUAL", "type": "scripthash"}, "value": 0.14114971, "n": 0}, {"scriptPubKey": {"reqSigs": 1, "hex": "a914b86c029fde9a7074e708f84feed97933e78a961287", "addresses": ["3JW9eXNQJh9VNVwyUQumFfU4vXJisey4Yh"], "asm": "OP_HASH160 b86c029fde9a7074e708f84feed97933e78a9612 OP_EQUAL", "type": "scripthash"}, "value": 0.13255993, "n": 1}], "hex": "0200000000010198b66598a10be417fe525f293dbe176a01fce5caa12549b75aa3fff4015e5969080000001716001462c25f1115af5d46d5035c28529e7a37b1654b59feffffff029b60d7000000000017a914f6e6065367ef5d3c2a27ee9c513bb97446ef379d873945ca000000000017a914b86c029fde9a7074e708f84feed97933e78a96128702473044022041281743d30e15c1cb0b43aff8c0b654a346ce1385c3a4a74f953ea1ac52693a022017fbd3be7c9676be0d2ecf1f20abb7efad3b4b9e458daaf783f19df97863f7e30121023dffaa80dcb6874cd2606b617b895a5c6b070c7c46ac57f4f79c777c6e63be0e14490800", "vin": [{"txinwitness": ["3044022041281743d30e15c1cb0b43aff8c0b654a346ce1385c3a4a74f953ea1ac52693a022017fbd3be7c9676be0d2ecf1f20abb7efad3b4b9e458daaf783f19df97863f7e301", "023dffaa80dcb6874cd2606b617b895a5c6b070c7c46ac57f4f79c777c6e63be0e"], "sequence": 4294967294, "scriptSig": {"hex": "16001462c25f1115af5d46d5035c28529e7a37b1654b59", "asm": "001462c25f1115af5d46d5035c28529e7a37b1654b59"}, "vout": 8, "txid": "69595e01f4ffa35ab74925a1cae5fc016a17be3d295f52fe17e40ba19865b698"}], "txid": "53f95c0d29682f167e92e6c33569f11aa96e1427f3844cd4e0ac4c8eb86a6333", "blocktime": 1537873891, "version": 2, "confirmations": 11479, "time": 1537873891, "locktime": 542996, "vsize": 166, "size": 247}