{"hash": "53fbc29e29c4ab7f65becb9e96f7f3e3e9e081adda42226d82a7b37a28ea08cf", "blockhash": "0000000000000000001cda96e906b7601b7a6fb1a3b62bca570a9e5d8f4b3de1", "vout": [{"scriptPubKey": {"reqSigs": 1, "hex": "76a914edcddd5309639d481c3f9de610e19dd92d3437fe88ac", "addresses": ["1NgPmBdujm3sgQwPESBzZrvVcj5afZPDfL"], "asm": "OP_DUP OP_HASH160 edcddd5309639d481c3f9de610e19dd92d3437fe OP_EQUALVERIFY OP_CHECKSIG", "type": "pubkeyhash"}, "value": 8.07e-06, "n": 0}, {"scriptPubKey": {"reqSigs": 1, "hex": "76a914a7e32aaf8d24bf138be271ade0e135328f6e335a88ac", "addresses": ["1GJhyrjrkUinNiS85XJiPpPfrYRjaXNwA8"], "asm": "OP_DUP OP_HASH160 a7e32aaf8d24bf138be271ade0e135328f6e335a OP_EQUALVERIFY OP_CHECKSIG", "type": "pubkeyhash"}, "value": 0.00764988, "n": 1}], "hex": "01000000020bb7df316278cfe2517041d54685df21c4ebd81e45a161667ee6a5ec6b4d0266010000006a47304402200291d824ba9988ebd9c75be3aa556a7a280cdd91c666c819c85de47ee5c9bc3a0220435fd287bb9660e5f31cb2d65f2c2fb3721b604ab4f3c2c00a6320187042ec430121030561dfc183dda10a684efc98169d21dba458a46db192c25ac03bec9eb6fa5417ffffffff4f691a2cd0276ecb402d33c8ed4e58b803f4f0de9e1375ab827f43499a2a0485010000006b483045022100d8d4fa7408b5d21e68daf5858a848427be15d593c3e8578a0bb20c0bc6ce2ac3022025ec60db5f69de6044f3821af41ecf551bada40fc2075d826872b023cf4d213f012103da448edfb6ec9006cef0651d2e8178987027f09f7be8887b9c14cc7e151c31eeffffffff0227030000000000001976a914edcddd5309639d481c3f9de610e19dd92d3437fe88ac3cac0b00000000001976a914a7e32aaf8d24bf138be271ade0e135328f6e335a88ac00000000", "vin": [{"sequence": 4294967295, "scriptSig": {"hex": "47304402200291d824ba9988ebd9c75be3aa556a7a280cdd91c666c819c85de47ee5c9bc3a0220435fd287bb9660e5f31cb2d65f2c2fb3721b604ab4f3c2c00a6320187042ec430121030561dfc183dda10a684efc98169d21dba458a46db192c25ac03bec9eb6fa5417", "asm": "304402200291d824ba9988ebd9c75be3aa556a7a280cdd91c666c819c85de47ee5c9bc3a0220435fd287bb9660e5f31cb2d65f2c2fb3721b604ab4f3c2c00a6320187042ec43[ALL] 030561dfc183dda10a684efc98169d21dba458a46db192c25ac03bec9eb6fa5417"}, "vout": 1, "txid": "66024d6beca5e67e6661a1451ed8ebc421df8546d5417051e2cf786231dfb70b"}, {"sequence": 4294967295, "scriptSig": {"hex": "483045022100d8d4fa7408b5d21e68daf5858a848427be15d593c3e8578a0bb20c0bc6ce2ac3022025ec60db5f69de6044f3821af41ecf551bada40fc2075d826872b023cf4d213f012103da448edfb6ec9006cef0651d2e8178987027f09f7be8887b9c14cc7e151c31ee", "asm": "3045022100d8d4fa7408b5d21e68daf5858a848427be15d593c3e8578a0bb20c0bc6ce2ac3022025ec60db5f69de6044f3821af41ecf551bada40fc2075d826872b023cf4d213f[ALL] 03da448edfb6ec9006cef0651d2e8178987027f09f7be8887b9c14cc7e151c31ee"}, "vout": 1, "txid": "85042a9a49437f82ab75139edef0f403b8584eedc8332d40cb6e27d02c1a694f"}], "txid": "53fbc29e29c4ab7f65becb9e96f7f3e3e9e081adda42226d82a7b37a28ea08cf", "blocktime": 1537873282, "version": 1, "confirmations": 11484, "time": 1537873282, "locktime": 0, "vsize": 373, "size": 373}