{"hash": "5400aaaaf62b8118038e771e5b20d5514de5632fd4b32f3e0c37504fc8c05237", "blockhash": "0000000000000000000e13cef7c366c0283d82e591d1acd082e914b08063cdf1", "vout": [{"scriptPubKey": {"reqSigs": 1, "hex": "76a914b4d1d36c3723bf31f0235e4478ba1b00a993299488ac", "addresses": ["1HV5zVDcdjmRiMCyzhtkykVNrttno3VxPZ"], "asm": "OP_DUP OP_HASH160 b4d1d36c3723bf31f0235e4478ba1b00a9932994 OP_EQUALVERIFY OP_CHECKSIG", "type": "pubkeyhash"}, "value": 0.03583481, "n": 0}, {"scriptPubKey": {"reqSigs": 1, "hex": "a914d69c4f9c4a37a76c6da395e3cf41cacf847d809d87", "addresses": ["3MFmnGmTbom58mybVbXmuTqNo71ZuaqFdg"], "asm": "OP_HASH160 d69c4f9c4a37a76c6da395e3cf41cacf847d809d OP_EQUAL", "type": "scripthash"}, "value": 0.140665, "n": 1}], "hex": "01000000013a4969a36a7bc843504f329d5cf90984d81e589bdd9aca5d711ef0cbbed7710a010000006b483045022100f3fba417e9b703bd807b2585aefbdd08a5d3d4949ebc8f950d38aa8b386dc944022069d3f3862f086bae2b784fc4210943cff899464dd7735a7425286fd5aa708c5b012103aabeaa3855107ef8feeacdfe8631ea5516ea11e76e6a5301192c49587c78fe93ffffffff02f9ad3600000000001976a914b4d1d36c3723bf31f0235e4478ba1b00a993299488ac44a3d6000000000017a914d69c4f9c4a37a76c6da395e3cf41cacf847d809d8700000000", "vin": [{"sequence": 4294967295, "scriptSig": {"hex": "483045022100f3fba417e9b703bd807b2585aefbdd08a5d3d4949ebc8f950d38aa8b386dc944022069d3f3862f086bae2b784fc4210943cff899464dd7735a7425286fd5aa708c5b012103aabeaa3855107ef8feeacdfe8631ea5516ea11e76e6a5301192c49587c78fe93", "asm": "3045022100f3fba417e9b703bd807b2585aefbdd08a5d3d4949ebc8f950d38aa8b386dc944022069d3f3862f086bae2b784fc4210943cff899464dd7735a7425286fd5aa708c5b[ALL] 03aabeaa3855107ef8feeacdfe8631ea5516ea11e76e6a5301192c49587c78fe93"}, "vout": 1, "txid": "0a71d7becbf01e715dca9add9b581ed88409f95c9d324f5043c87b6aa369493a"}], "txid": "5400aaaaf62b8118038e771e5b20d5514de5632fd4b32f3e0c37504fc8c05237", "blocktime": 1537871767, "version": 1, "confirmations": 11495, "time": 1537871767, "locktime": 0, "vsize": 224, "size": 224}