{"hash": "540137323d3ae2660e58e3e600c94ccaa222e337f227d371fc9ac26cab278665", "blockhash": "0000000000000000001f76057863aec43deb6fa401d9628bb513d65a8098bfab", "vout": [{"scriptPubKey": {"reqSigs": 1, "hex": "76a9144a007a17ff84f5fe504062992a755b961183e8b788ac", "addresses": ["17kHaLKLV4afHLQA17A4CbWSgTAHrtQpE1"], "asm": "OP_DUP OP_HASH160 4a007a17ff84f5fe504062992a755b961183e8b7 OP_EQUALVERIFY OP_CHECKSIG", "type": "pubkeyhash"}, "value": 0.00348593, "n": 0}, {"scriptPubKey": {"reqSigs": 1, "hex": "76a914b91bc019463e8d0bf93239047d75040ccf20292d88ac", "addresses": ["1HsmFcv5KNpyRRuTcydNXVk1yGFwfzVkzF"], "asm": "OP_DUP OP_HASH160 b91bc019463e8d0bf93239047d75040ccf20292d OP_EQUALVERIFY OP_CHECKSIG", "type": "pubkeyhash"}, "value": 0.02200459, "n": 1}], "hex": "01000000016433d29c4a81a1c1bc18a390ce0a7846f4d8fd33853d1e9c54ac743d52f424a7010000006b483045022100d29b5fc6792db086570b44c22b6e9e30b8a93d07816ffda68a2a11e96502d1470220080295074c063eb117994bf052da77de3ebc482b1c35edf4752510e40c2615f9012103e9213aa183d323b1da2327d7f0a53f481cd44752f7f7e09d25672d7ccdf58a4effffffff02b1510500000000001976a9144a007a17ff84f5fe504062992a755b961183e8b788ac8b932100000000001976a914b91bc019463e8d0bf93239047d75040ccf20292d88ac00000000", "vin": [{"sequence": 4294967295, "scriptSig": {"hex": "483045022100d29b5fc6792db086570b44c22b6e9e30b8a93d07816ffda68a2a11e96502d1470220080295074c063eb117994bf052da77de3ebc482b1c35edf4752510e40c2615f9012103e9213aa183d323b1da2327d7f0a53f481cd44752f7f7e09d25672d7ccdf58a4e", "asm": "3045022100d29b5fc6792db086570b44c22b6e9e30b8a93d07816ffda68a2a11e96502d1470220080295074c063eb117994bf052da77de3ebc482b1c35edf4752510e40c2615f9[ALL] 03e9213aa183d323b1da2327d7f0a53f481cd44752f7f7e09d25672d7ccdf58a4e"}, "vout": 1, "txid": "a724f4523d74ac549c1e3d8533fdd8f446780ace90a318bcc1a1814a9cd23364"}], "txid": "540137323d3ae2660e58e3e600c94ccaa222e337f227d371fc9ac26cab278665", "blocktime": 1537873891, "version": 1, "confirmations": 11478, "time": 1537873891, "locktime": 0, "vsize": 226, "size": 226}