{"hash": "54076da119df403b3b579885acba46332a7b759b917c542b653aa38f52fd5b7a", "blockhash": "0000000000000000000e13cef7c366c0283d82e591d1acd082e914b08063cdf1", "vout": [{"scriptPubKey": {"reqSigs": 1, "hex": "76a9146b24c679d510acb66e58534f5a5443ce74ef061388ac", "addresses": ["1AmXMifCcmXqTgpxYvMiWXF1hDop1QRUcK"], "asm": "OP_DUP OP_HASH160 6b24c679d510acb66e58534f5a5443ce74ef0613 OP_EQUALVERIFY OP_CHECKSIG", "type": "pubkeyhash"}, "value": 0.12, "n": 0}, {"scriptPubKey": {"reqSigs": 1, "hex": "76a91447f319d188a48558daa509f6e23392b5c410202688ac", "addresses": ["17ZSCZgCmnjotqTpwYW3bdugAkNxxT2hYb"], "asm": "OP_DUP OP_HASH160 47f319d188a48558daa509f6e23392b5c4102026 OP_EQUALVERIFY OP_CHECKSIG", "type": "pubkeyhash"}, "value": 0.01121656, "n": 1}], "hex": "02000000017ae4bbff3959daf66f1df925c9e50843144656b2e85fc1c730402d7555cdcb9e010000006b483045022100ff7afa1bfbed5f7f6f36faf7380c8721dc9d8bb594de9c3925601457cd17d4520220402147ec6b4e07a7a52a43cf2c4aa6fc2bdb719749a1db5c5d781d5e26d34665012103430ec9dc822fb4d76b96cc9980f4b1059108c5a4b6e0348447fa52b32468691fffffffff02001bb700000000001976a9146b24c679d510acb66e58534f5a5443ce74ef061388ac781d1100000000001976a91447f319d188a48558daa509f6e23392b5c410202688ac00000000", "vin": [{"sequence": 4294967295, "scriptSig": {"hex": "483045022100ff7afa1bfbed5f7f6f36faf7380c8721dc9d8bb594de9c3925601457cd17d4520220402147ec6b4e07a7a52a43cf2c4aa6fc2bdb719749a1db5c5d781d5e26d34665012103430ec9dc822fb4d76b96cc9980f4b1059108c5a4b6e0348447fa52b32468691f", "asm": "3045022100ff7afa1bfbed5f7f6f36faf7380c8721dc9d8bb594de9c3925601457cd17d4520220402147ec6b4e07a7a52a43cf2c4aa6fc2bdb719749a1db5c5d781d5e26d34665[ALL] 03430ec9dc822fb4d76b96cc9980f4b1059108c5a4b6e0348447fa52b32468691f"}, "vout": 1, "txid": "9ecbcd55752d4030c7c15fe8b25646144308e5c925f91d6ff6da5939ffbbe47a"}], "txid": "54076da119df403b3b579885acba46332a7b759b917c542b653aa38f52fd5b7a", "blocktime": 1537871767, "version": 2, "confirmations": 11490, "time": 1537871767, "locktime": 0, "vsize": 226, "size": 226}