{"hash": "540bc6b96b6d14deea9310a999c95123a87d15e5d4ba39380e239c45232e9498", "blockhash": "0000000000000000001cda96e906b7601b7a6fb1a3b62bca570a9e5d8f4b3de1", "vout": [{"scriptPubKey": {"reqSigs": 1, "hex": "a914c78b9fa80882db88a6c13e432021083058b1eab487", "addresses": ["3Kt7ewTov87sbdgJFNFTaU5yRmdeYC8F1m"], "asm": "OP_HASH160 c78b9fa80882db88a6c13e432021083058b1eab4 OP_EQUAL", "type": "scripthash"}, "value": 0.0006519, "n": 0}], "hex": "0100000003618a31eadc610ccd75a334d7585c7f7b6dba54bc762d7bf5e01b93ec3bbfb92e010000006b4830450221009a687aa0e4a6b065e380fd25ef88acac7ec4cdf9341f5b5741156b4b35684148022049fa587773839a406cddf7e1cea6b755eeeb64a0ddb88eeeb08922977dba4f7b012102ea695927d93459a957c95c76d0b1b207314c75ef29a6278a6de608e7a1f12a03ffffffffc19dbfb1a8e879ce3a0d0bfdf647b04f7fd6e08f0ed7bc06fa7ce152932efa4c000000006b483045022100d5b76a93d7706e117a54c5829b3206f08a9529bde0ee4b880f063c662c41b95b022037b1b0a53aa017211527d3b3459bc4e35b90431cf6f55f20602e3c44b4ff9aa201210240d01cf546c039a65bd436898351cdc57e78026f8fe8e12ecd1a0bfb2177bf6cffffffffd0371a3055a99511d25576029b640b1477820a927562e32a13b5e6f1b48743e9000000006b483045022100fc62a909d69d17ccd09feb94f47f9a17970ee3e91f9dc81af98655f9d28784c902202ab9d0e5b56767f5037f8f2ae585e87363e8b81e3ee0e63661fe4bd838f53e0c01210390ccba8c9a6af7179d4e3c4561bd717a5818c78f86ef09601eb7857c1b410022ffffffff01a6fe00000000000017a914c78b9fa80882db88a6c13e432021083058b1eab48700000000", "vin": [{"sequence": 4294967295, "scriptSig": {"hex": "4830450221009a687aa0e4a6b065e380fd25ef88acac7ec4cdf9341f5b5741156b4b35684148022049fa587773839a406cddf7e1cea6b755eeeb64a0ddb88eeeb08922977dba4f7b012102ea695927d93459a957c95c76d0b1b207314c75ef29a6278a6de608e7a1f12a03", "asm": "30450221009a687aa0e4a6b065e380fd25ef88acac7ec4cdf9341f5b5741156b4b35684148022049fa587773839a406cddf7e1cea6b755eeeb64a0ddb88eeeb08922977dba4f7b[ALL] 02ea695927d93459a957c95c76d0b1b207314c75ef29a6278a6de608e7a1f12a03"}, "vout": 1, "txid": "2eb9bf3bec931be0f57b2d76bc54ba6d7b7f5c58d734a375cd0c61dcea318a61"}, {"sequence": 4294967295, "scriptSig": {"hex": "483045022100d5b76a93d7706e117a54c5829b3206f08a9529bde0ee4b880f063c662c41b95b022037b1b0a53aa017211527d3b3459bc4e35b90431cf6f55f20602e3c44b4ff9aa201210240d01cf546c039a65bd436898351cdc57e78026f8fe8e12ecd1a0bfb2177bf6c", "asm": "3045022100d5b76a93d7706e117a54c5829b3206f08a9529bde0ee4b880f063c662c41b95b022037b1b0a53aa017211527d3b3459bc4e35b90431cf6f55f20602e3c44b4ff9aa2[ALL] 0240d01cf546c039a65bd436898351cdc57e78026f8fe8e12ecd1a0bfb2177bf6c"}, "vout": 0, "txid": "4cfa2e9352e17cfa06bcd70e8fe0d67f4fb047f6fd0b0d3ace79e8a8b1bf9dc1"}, {"sequence": 4294967295, "scriptSig": {"hex": "483045022100fc62a909d69d17ccd09feb94f47f9a17970ee3e91f9dc81af98655f9d28784c902202ab9d0e5b56767f5037f8f2ae585e87363e8b81e3ee0e63661fe4bd838f53e0c01210390ccba8c9a6af7179d4e3c4561bd717a5818c78f86ef09601eb7857c1b410022", "asm": "3045022100fc62a909d69d17ccd09feb94f47f9a17970ee3e91f9dc81af98655f9d28784c902202ab9d0e5b56767f5037f8f2ae585e87363e8b81e3ee0e63661fe4bd838f53e0c[ALL] 0390ccba8c9a6af7179d4e3c4561bd717a5818c78f86ef09601eb7857c1b410022"}, "vout": 0, "txid": "e94387b4f1e6b5132ae36275920a8277140b649b027655d21195a955301a37d0"}], "txid": "540bc6b96b6d14deea9310a999c95123a87d15e5d4ba39380e239c45232e9498", "blocktime": 1537873282, "version": 1, "confirmations": 11484, "time": 1537873282, "locktime": 0, "vsize": 486, "size": 486}