{"hash": "540e5574bc3a2a12f198951f052c236680fada8a90f5f4945040e58934f30990", "blockhash": "00000000000000000004ffacab907a6b429b9a5745fa0b75af4234bf69dd7176", "vout": [{"scriptPubKey": {"reqSigs": 1, "hex": "76a91479a60e5d679d53a00afa99a9b43bacb0048a15b988ac", "addresses": ["1C6DgzZeqyFd6KfYXeuT1FCQCtJa2Dbgfk"], "asm": "OP_DUP OP_HASH160 79a60e5d679d53a00afa99a9b43bacb0048a15b9 OP_EQUALVERIFY OP_CHECKSIG", "type": "pubkeyhash"}, "value": 0.01, "n": 0}, {"scriptPubKey": {"reqSigs": 1, "hex": "76a914e618412e123e55451fad45556032060d17303ffa88ac", "addresses": ["1MydUMvhdQa4w7vvPtRhDWhngDe7tSYntA"], "asm": "OP_DUP OP_HASH160 e618412e123e55451fad45556032060d17303ffa OP_EQUALVERIFY OP_CHECKSIG", "type": "pubkeyhash"}, "value": 1.09986, "n": 1}], "hex": "0100000001fd06c58aeee580c74709530d4ccd7b3dc1ad7c3d44ce256a35302cc9ac0c4238000000006b483045022100be7876053298e0a9c084c3df46450967ba1f84e919345a2f946a6bf832948f5e022058045162fd06b123103646d68944265b64a2cb49e02311bfd4bf2f1419e978f3012103efb7c50f3121b8e0bd1636876a6c871e87cd2f92dda3b224866d94629ce44186ffffffff0240420f00000000001976a91479a60e5d679d53a00afa99a9b43bacb0048a15b988acd0408e06000000001976a914e618412e123e55451fad45556032060d17303ffa88ac00000000", "vin": [{"sequence": 4294967295, "scriptSig": {"hex": "483045022100be7876053298e0a9c084c3df46450967ba1f84e919345a2f946a6bf832948f5e022058045162fd06b123103646d68944265b64a2cb49e02311bfd4bf2f1419e978f3012103efb7c50f3121b8e0bd1636876a6c871e87cd2f92dda3b224866d94629ce44186", "asm": "3045022100be7876053298e0a9c084c3df46450967ba1f84e919345a2f946a6bf832948f5e022058045162fd06b123103646d68944265b64a2cb49e02311bfd4bf2f1419e978f3[ALL] 03efb7c50f3121b8e0bd1636876a6c871e87cd2f92dda3b224866d94629ce44186"}, "vout": 0, "txid": "38420cacc92c30356a25ce443d7cadc13d7bcd4c0d530947c780e5ee8ac506fd"}], "txid": "540e5574bc3a2a12f198951f052c236680fada8a90f5f4945040e58934f30990", "blocktime": 1537875543, "version": 1, "confirmations": 11464, "time": 1537875543, "locktime": 0, "vsize": 226, "size": 226}