{"hash": "5417889959615e20ffd75933cfb6d6b6a18e10e9c97a125f41d6673aee971d86", "blockhash": "0000000000000000000e13cef7c366c0283d82e591d1acd082e914b08063cdf1", "vout": [{"scriptPubKey": {"reqSigs": 1, "hex": "76a91467e2091150ef1cf36feab6c6fc5614d4be4922be88ac", "addresses": ["1AUHNyYVXQp2rrwYDCvzsBLMVAasSXhDVN"], "asm": "OP_DUP OP_HASH160 67e2091150ef1cf36feab6c6fc5614d4be4922be OP_EQUALVERIFY OP_CHECKSIG", "type": "pubkeyhash"}, "value": 0.00090062, "n": 0}, {"scriptPubKey": {"reqSigs": 1, "hex": "a914d2837c59d529a40882f7adc1f633813201b8818e87", "addresses": ["3Lt7LcnvfheFJV3ND58g21HfeikVhR28p2"], "asm": "OP_HASH160 d2837c59d529a40882f7adc1f633813201b8818e OP_EQUAL", "type": "scripthash"}, "value": 0.01172666, "n": 1}], "hex": "0100000002fa48fb8b23fd4c32fd3e885556a6499880e79b58eac3530ee9374c3e21289621000000006b483045022100f25156ca66de044240dd6271520f622e8dfa378586a7bba781d671a02dd6b17c02205e197906a8e4668dc45afcf03e60b2830549d358f304ff9c887c915c248a359c012102b31d20270dc39ae3958516a73bb27f562cab44ec87ad78ae2895f508e6442549fffffffff11283df8475c648c7f0c035cbbba6be9d72e24879e891c1c5a52b5e46398183000000006b483045022100b579816067b245d4326dccbaab0552e19f6a34ec2ea9f2669c0a4b10083635140220261124d084a728e64ff5979ea78f2427ebcdfe6d86c8550dca606784092c210a01210243c4ba5795d813fb199d6d1f379bbb32a802f5d1e56e418a850ad3a9eeacc080ffffffff02ce5f0100000000001976a91467e2091150ef1cf36feab6c6fc5614d4be4922be88acbae411000000000017a914d2837c59d529a40882f7adc1f633813201b8818e8700000000", "vin": [{"sequence": 4294967295, "scriptSig": {"hex": "483045022100f25156ca66de044240dd6271520f622e8dfa378586a7bba781d671a02dd6b17c02205e197906a8e4668dc45afcf03e60b2830549d358f304ff9c887c915c248a359c012102b31d20270dc39ae3958516a73bb27f562cab44ec87ad78ae2895f508e6442549", "asm": "3045022100f25156ca66de044240dd6271520f622e8dfa378586a7bba781d671a02dd6b17c02205e197906a8e4668dc45afcf03e60b2830549d358f304ff9c887c915c248a359c[ALL] 02b31d20270dc39ae3958516a73bb27f562cab44ec87ad78ae2895f508e6442549"}, "vout": 0, "txid": "219628213e4c37e90e53c3ea589be7809849a65655883efd324cfd238bfb48fa"}, {"sequence": 4294967295, "scriptSig": {"hex": "483045022100b579816067b245d4326dccbaab0552e19f6a34ec2ea9f2669c0a4b10083635140220261124d084a728e64ff5979ea78f2427ebcdfe6d86c8550dca606784092c210a01210243c4ba5795d813fb199d6d1f379bbb32a802f5d1e56e418a850ad3a9eeacc080", "asm": "3045022100b579816067b245d4326dccbaab0552e19f6a34ec2ea9f2669c0a4b10083635140220261124d084a728e64ff5979ea78f2427ebcdfe6d86c8550dca606784092c210a[ALL] 0243c4ba5795d813fb199d6d1f379bbb32a802f5d1e56e418a850ad3a9eeacc080"}, "vout": 0, "txid": "838139465e2ba5c5c191e87948e2729dbea6bbcb35c0f0c748c67584df8312f1"}], "txid": "5417889959615e20ffd75933cfb6d6b6a18e10e9c97a125f41d6673aee971d86", "blocktime": 1537871767, "version": 1, "confirmations": 11495, "time": 1537871767, "locktime": 0, "vsize": 372, "size": 372}