{"hash": "54208df7e443bdb4a3c15620dcc7410d3ceb7a9c637505849af90782e02a2676", "blockhash": "00000000000000000004ffacab907a6b429b9a5745fa0b75af4234bf69dd7176", "vout": [{"scriptPubKey": {"reqSigs": 1, "hex": "a9140f56fc9ba0148ea9641d983945daa54de76ba4aa87", "addresses": ["3368GNDGkLShrzVDn3XQeGgZEGPowcXgEd"], "asm": "OP_HASH160 0f56fc9ba0148ea9641d983945daa54de76ba4aa OP_EQUAL", "type": "scripthash"}, "value": 0.0038, "n": 0}, {"scriptPubKey": {"reqSigs": 1, "hex": "76a914b7888cc82fdecaf88856880550ac43fe948b8cae88ac", "addresses": ["1HjSEm71Kqt31Va9JhJk2SvztwotZkQJFN"], "asm": "OP_DUP OP_HASH160 b7888cc82fdecaf88856880550ac43fe948b8cae OP_EQUALVERIFY OP_CHECKSIG", "type": "pubkeyhash"}, "value": 0.0041857, "n": 1}], "hex": "02000000017ad41ad2b07644584a5dd085c928cc05bebac506b42348bbc903884fae279090010000006a4730440220766601ac83a1cdea92bee3d67e219c80defaa3eea89ce74c1dbd30fbbe62cccf022014bb78a18964e9e0d9860f925ce0514a3746060bf97c6bb9a6af33d66cceee29012103f64d18070174a7d64ec0b63a2cf11fcf39cd553907cc09a47a94df2f3b817aecffffffff0260cc05000000000017a9140f56fc9ba0148ea9641d983945daa54de76ba4aa870a630600000000001976a914b7888cc82fdecaf88856880550ac43fe948b8cae88ac00000000", "vin": [{"sequence": 4294967295, "scriptSig": {"hex": "4730440220766601ac83a1cdea92bee3d67e219c80defaa3eea89ce74c1dbd30fbbe62cccf022014bb78a18964e9e0d9860f925ce0514a3746060bf97c6bb9a6af33d66cceee29012103f64d18070174a7d64ec0b63a2cf11fcf39cd553907cc09a47a94df2f3b817aec", "asm": "30440220766601ac83a1cdea92bee3d67e219c80defaa3eea89ce74c1dbd30fbbe62cccf022014bb78a18964e9e0d9860f925ce0514a3746060bf97c6bb9a6af33d66cceee29[ALL] 03f64d18070174a7d64ec0b63a2cf11fcf39cd553907cc09a47a94df2f3b817aec"}, "vout": 1, "txid": "909027ae4f8803c9bb4823b406c5babe05cc28c985d05d4a584476b0d21ad47a"}], "txid": "54208df7e443bdb4a3c15620dcc7410d3ceb7a9c637505849af90782e02a2676", "blocktime": 1537875543, "version": 2, "confirmations": 11464, "time": 1537875543, "locktime": 0, "vsize": 223, "size": 223}