{"hash": "33db9f514c8b164763582fd567f1bf61c954f0a1a7370f31d485be5fd0cc644c", "blockhash": "0000000000000000001f0ddff1eddb255c1121bcd4da4f1bc9a0da00cae72433", "vout": [{"scriptPubKey": {"reqSigs": 1, "hex": "a9140043726d9f134e3bc9a1a2955527f965f521222487", "addresses": ["31iQiqpE2fRRZeeTNj8pfb5u9m21stUjRR"], "asm": "OP_HASH160 0043726d9f134e3bc9a1a2955527f965f5212224 OP_EQUAL", "type": "scripthash"}, "value": 0.999, "n": 0}, {"scriptPubKey": {"reqSigs": 1, "hex": "a914a72f9bbf7e026714ef16703141cc1bf3d06dd3a987", "addresses": ["3Gw1oU7z731jVaTPzqvggW4Z6pduDukJ2K"], "asm": "OP_HASH160 a72f9bbf7e026714ef16703141cc1bf3d06dd3a9 OP_EQUAL", "type": "scripthash"}, "value": 6.20916625, "n": 1}], "hex": "02000000000101116f56f9eac455a003ab1236c17c36c7bbb41462fdf0023194b9eb5926f3acf801000000171600149ef12b360279622b2045d92dc3ca70a05b5266c7ffffffff02605af4050000000017a9140043726d9f134e3bc9a1a2955527f965f521222487916f02250000000017a914a72f9bbf7e026714ef16703141cc1bf3d06dd3a9870247304402201bc23c03c8e61756bfc1650e202d5309fa77666dec9cccc1ce01cf98f0e4889a02203e8962eb618a686ea27662a16138fcbc353fb0f4b6aa17f09c5835507bae90b001210261637828db715e65cd9bde4c8036d06ce1851775ff47454403feba0cefd0084e00000000", "vin": [{"txinwitness": ["304402201bc23c03c8e61756bfc1650e202d5309fa77666dec9cccc1ce01cf98f0e4889a02203e8962eb618a686ea27662a16138fcbc353fb0f4b6aa17f09c5835507bae90b001", "0261637828db715e65cd9bde4c8036d06ce1851775ff47454403feba0cefd0084e"], "sequence": 4294967295, "scriptSig": {"hex": "1600149ef12b360279622b2045d92dc3ca70a05b5266c7", "asm": "00149ef12b360279622b2045d92dc3ca70a05b5266c7"}, "vout": 1, "txid": "f8acf32659ebb9943102f0fd6214b4bbc7367cc13612ab03a055c4eaf9566f11"}], "txid": "54257bba21a4483106d0c3c9c9f505c297f6fcbca435f0ab7a626834cc054462", "blocktime": 1537872018, "version": 2, "confirmations": 11489, "time": 1537872018, "locktime": 0, "vsize": 166, "size": 247}