{"hash": "8d609354cfda9b7a4c12870cb628056527cd934472dad71cd39c76baaf916a0f", "blockhash": "0000000000000000001cda96e906b7601b7a6fb1a3b62bca570a9e5d8f4b3de1", "vout": [{"scriptPubKey": {"reqSigs": 1, "hex": "76a9147b063c71a4de1b0e612cbf0dfed48c9bbac42ded88ac", "addresses": ["1CDVatUscmuSxwL21hwcHZqG6WGTT9KPv7"], "asm": "OP_DUP OP_HASH160 7b063c71a4de1b0e612cbf0dfed48c9bbac42ded OP_EQUALVERIFY OP_CHECKSIG", "type": "pubkeyhash"}, "value": 2.33834258, "n": 0}, {"scriptPubKey": {"reqSigs": 1, "hex": "a914bedb2044c292374abfb4922f7d6a26fb01f2690187", "addresses": ["3K6Ap8rvTkynaHUoQW29SLU6UE7umHNP1T"], "asm": "OP_HASH160 bedb2044c292374abfb4922f7d6a26fb01f26901 OP_EQUAL", "type": "scripthash"}, "value": 0.09389912, "n": 1}], "hex": "02000000000102125f6e62f888e140d7246a5bac179582e49472c6a893e9ad04b8f254269844540000000017160014a3c9b6bed0bf3a9a311384a400346dd64e932719feffffffb2886f0975e88c8a8c902dfc19f63bb255c71ecb51f0d8e471c5b2079e74534000000000171600149f9f3747fc56d945362170726af4220818d0545bfeffffff021207f00d000000001976a9147b063c71a4de1b0e612cbf0dfed48c9bbac42ded88ac58478f000000000017a914bedb2044c292374abfb4922f7d6a26fb01f269018702473044022053b8cdefe0c610193cfef16aa985a3ea79ac35657269a131fdcfcf34fdd83b5602202d2959db8ff8b07bb9a118ab981fdca0a6931d07ad34a0ba9d23c2776eae030301210287598a4f67c091c395311ca766f994b50df6c7e3b085387a087709d165c306bd02473044022006a55611c471c3e49cd461f8f1d0c95f25a52e1dee3b881678af9ed9adb4070202202189039de2e6b053350b395710bdd51e346b68ee16165228bcc1ea30041137ec01210394b7940502c6080762e8da5aa1bb655a2709761de8d4b6b323dc03a0213c486913490800", "vin": [{"txinwitness": ["3044022053b8cdefe0c610193cfef16aa985a3ea79ac35657269a131fdcfcf34fdd83b5602202d2959db8ff8b07bb9a118ab981fdca0a6931d07ad34a0ba9d23c2776eae030301", "0287598a4f67c091c395311ca766f994b50df6c7e3b085387a087709d165c306bd"], "sequence": 4294967294, "scriptSig": {"hex": "160014a3c9b6bed0bf3a9a311384a400346dd64e932719", "asm": "0014a3c9b6bed0bf3a9a311384a400346dd64e932719"}, "vout": 0, "txid": "5444982654f2b804ade993a8c67294e4829517ac5b6a24d740e188f8626e5f12"}, {"txinwitness": ["3044022006a55611c471c3e49cd461f8f1d0c95f25a52e1dee3b881678af9ed9adb4070202202189039de2e6b053350b395710bdd51e346b68ee16165228bcc1ea30041137ec01", "0394b7940502c6080762e8da5aa1bb655a2709761de8d4b6b323dc03a0213c4869"], "sequence": 4294967294, "scriptSig": {"hex": "1600149f9f3747fc56d945362170726af4220818d0545b", "asm": "00149f9f3747fc56d945362170726af4220818d0545b"}, "vout": 0, "txid": "4053749e07b2c571e4d8f051cb1ec755b23bf619fc2d908c8a8ce875096f88b2"}], "txid": "5427451dc3932cabb8f81f68afc1fa33d1af7771b2b6ea413e0f59c1e64bb7bf", "blocktime": 1537873282, "version": 2, "confirmations": 11480, "time": 1537873282, "locktime": 542995, "vsize": 258, "size": 420}