{"hash": "7974f64131a9a9f9562e3aac53069ac4667740078658a4820ebf3d150a50f139", "blockhash": "0000000000000000001f76057863aec43deb6fa401d9628bb513d65a8098bfab", "vout": [{"scriptPubKey": {"reqSigs": 1, "hex": "a9140a9fdcbb6a1ac50408441a598093422437522c8987", "addresses": ["32fCBtGtyoqtBLMXffkWCtswB9TxeiZ3gC"], "asm": "OP_HASH160 0a9fdcbb6a1ac50408441a598093422437522c89 OP_EQUAL", "type": "scripthash"}, "value": 0.01287611, "n": 0}, {"scriptPubKey": {"reqSigs": 1, "hex": "a914f77f0097c0d6f1e77654b6c2656924d342764f2d87", "addresses": ["3QFeyCdwcW83a2LdSn8i5xyvP9AsnDxqkY"], "asm": "OP_HASH160 f77f0097c0d6f1e77654b6c2656924d342764f2d OP_EQUAL", "type": "scripthash"}, "value": 0.01451081, "n": 1}], "hex": "02000000000102175c6be9465bb36b12acbeb708a242aa4a7ba034a01b4da7e026180c4ddedbb800000000171600143b6fe4019a6112e8253dbe961b6ecaa94a1625a3feffffff89dfabf610bf22bf167dc1ea5d653fcf79b6427e8a494908b386ef86276e25fe01000000171600144d94e03ab94c32c5bf48a90fed032d24ab691608feffffff02bba513000000000017a9140a9fdcbb6a1ac50408441a598093422437522c8987492416000000000017a914f77f0097c0d6f1e77654b6c2656924d342764f2d8702483045022100a27f05607d6325e27fee7f46d174418ec6e8bef0d16ad26ee4bd45a37872666002203dfec422a510f8aa660e409c90b4c523bcae4a8b9921538c3dbd3e41aa58be4e012103dc61d30e42d1382e08fdc27940525b88ced393cc39fc1fa43d98631c742f95db02473044022100aa6db1e3923f414e6e5e6f9adbcf366c540094bae7f0cf2c122a1d29f3d6f2ff021f04c309960942eda64c0f548a42751d390be119c7f229a1d2ad1b62da310dc90121029f78cb14270fa0f4ccd1b49b56b038101db70fb5a93bea713466b5150f6795c614490800", "vin": [{"txinwitness": ["3045022100a27f05607d6325e27fee7f46d174418ec6e8bef0d16ad26ee4bd45a37872666002203dfec422a510f8aa660e409c90b4c523bcae4a8b9921538c3dbd3e41aa58be4e01", "03dc61d30e42d1382e08fdc27940525b88ced393cc39fc1fa43d98631c742f95db"], "sequence": 4294967294, "scriptSig": {"hex": "1600143b6fe4019a6112e8253dbe961b6ecaa94a1625a3", "asm": "00143b6fe4019a6112e8253dbe961b6ecaa94a1625a3"}, "vout": 0, "txid": "b8dbde4d0c1826e0a74d1ba034a07b4aaa42a208b7beac126bb35b46e96b5c17"}, {"txinwitness": ["3044022100aa6db1e3923f414e6e5e6f9adbcf366c540094bae7f0cf2c122a1d29f3d6f2ff021f04c309960942eda64c0f548a42751d390be119c7f229a1d2ad1b62da310dc901", "029f78cb14270fa0f4ccd1b49b56b038101db70fb5a93bea713466b5150f6795c6"], "sequence": 4294967294, "scriptSig": {"hex": "1600144d94e03ab94c32c5bf48a90fed032d24ab691608", "asm": "00144d94e03ab94c32c5bf48a90fed032d24ab691608"}, "vout": 1, "txid": "fe256e2786ef86b30849498a7e42b679cf3f655deac17d16bf22bf10f6abdf89"}], "txid": "542a6d6859be482c6620e287a9d1de13535d24cedff253b9eac133c9dad3bb23", "blocktime": 1537873891, "version": 2, "confirmations": 11479, "time": 1537873891, "locktime": 542996, "vsize": 257, "size": 419}