{"hash": "542ceb6f2c06d74ef1462eda846a47f15260028b7b4d595cfcb6c8a3bfaf137a", "blockhash": "0000000000000000001e0dab787dd257d1dbfcb92a98c2207d5e1078be1f4165", "vout": [{"scriptPubKey": {"reqSigs": 1, "hex": "76a9146d28a474f0e0fd65e6172ba57ad241fc0a1e729a88ac", "addresses": ["1AxBLo2kpCS71Rvm42a7VZiN9G5MhyMjhY"], "asm": "OP_DUP OP_HASH160 6d28a474f0e0fd65e6172ba57ad241fc0a1e729a OP_EQUALVERIFY OP_CHECKSIG", "type": "pubkeyhash"}, "value": 0.00075218, "n": 0}, {"scriptPubKey": {"reqSigs": 1, "hex": "76a9146e7035b56c7296ccb3284f3e587df4fc9178f61e88ac", "addresses": ["1B4wkaLy1ERXmGyGJ2iZDtBT1j8RL2Y9bA"], "asm": "OP_DUP OP_HASH160 6e7035b56c7296ccb3284f3e587df4fc9178f61e OP_EQUALVERIFY OP_CHECKSIG", "type": "pubkeyhash"}, "value": 0.00935749, "n": 1}], "hex": "01000000011c9aff1e6fbbf23339136caeddc94c4059fe824afeb0c5484674eb1a4ae66461000000006b483045022100f9b0284a733c317662fe41d827b63d090bab7df51e4151aadf9d3c0fda9648b902206f0892db27550a892732cac8a32141678fd05b260215f92efe0dbf973976c42c0121025ee305ca0c16f9c043489addab5073445d6dd4b7d8b731adf60e852f1c69105affffffff02d2250100000000001976a9146d28a474f0e0fd65e6172ba57ad241fc0a1e729a88ac45470e00000000001976a9146e7035b56c7296ccb3284f3e587df4fc9178f61e88ac00000000", "vin": [{"sequence": 4294967295, "scriptSig": {"hex": "483045022100f9b0284a733c317662fe41d827b63d090bab7df51e4151aadf9d3c0fda9648b902206f0892db27550a892732cac8a32141678fd05b260215f92efe0dbf973976c42c0121025ee305ca0c16f9c043489addab5073445d6dd4b7d8b731adf60e852f1c69105a", "asm": "3045022100f9b0284a733c317662fe41d827b63d090bab7df51e4151aadf9d3c0fda9648b902206f0892db27550a892732cac8a32141678fd05b260215f92efe0dbf973976c42c[ALL] 025ee305ca0c16f9c043489addab5073445d6dd4b7d8b731adf60e852f1c69105a"}, "vout": 0, "txid": "6164e64a1aeb744648c5b0fe4a82fe59404cc9ddae6c133933f2bb6f1eff9a1c"}], "txid": "542ceb6f2c06d74ef1462eda846a47f15260028b7b4d595cfcb6c8a3bfaf137a", "blocktime": 1537872475, "version": 1, "confirmations": 11487, "time": 1537872475, "locktime": 0, "vsize": 226, "size": 226}