{"hash": "542d5ae359fd0d2c72b74bd39ce315bcf132a232c41d765a0ea81bb1f5976b66", "blockhash": "0000000000000000001f76057863aec43deb6fa401d9628bb513d65a8098bfab", "vout": [{"scriptPubKey": {"reqSigs": 1, "hex": "76a9148bbb119570588c80bd4356f0c59dc9b83272922788ac", "addresses": ["1Djq2RdTxR4DWZYAmPRZsGn8eeUmL42aa3"], "asm": "OP_DUP OP_HASH160 8bbb119570588c80bd4356f0c59dc9b832729227 OP_EQUALVERIFY OP_CHECKSIG", "type": "pubkeyhash"}, "value": 0.00233174, "n": 0}], "hex": "01000000010cfe5b0f71a1a2946ece9dc830775a7e10f1e8f7523353b8732d244f29894f5f000000006a47304402204154ba38088f7a55014a37729fcd58fd3c328f0716723ff6c2452fa9d522cfda02203dabb76169d925f576a175ef15b21fe31e542cbf16996b2501e5e1a2c907a4da01210225b88d9cec8efad7461f25c1b67084b3931b4e2c9c35d2694a980e800999e4e0ffffffff01d68e0300000000001976a9148bbb119570588c80bd4356f0c59dc9b83272922788ac00000000", "vin": [{"sequence": 4294967295, "scriptSig": {"hex": "47304402204154ba38088f7a55014a37729fcd58fd3c328f0716723ff6c2452fa9d522cfda02203dabb76169d925f576a175ef15b21fe31e542cbf16996b2501e5e1a2c907a4da01210225b88d9cec8efad7461f25c1b67084b3931b4e2c9c35d2694a980e800999e4e0", "asm": "304402204154ba38088f7a55014a37729fcd58fd3c328f0716723ff6c2452fa9d522cfda02203dabb76169d925f576a175ef15b21fe31e542cbf16996b2501e5e1a2c907a4da[ALL] 0225b88d9cec8efad7461f25c1b67084b3931b4e2c9c35d2694a980e800999e4e0"}, "vout": 0, "txid": "5f4f89294f242d73b8533352f7e8f1107e5a7730c89dce6e94a2a1710f5bfe0c"}], "txid": "542d5ae359fd0d2c72b74bd39ce315bcf132a232c41d765a0ea81bb1f5976b66", "blocktime": 1537873891, "version": 1, "confirmations": 11478, "time": 1537873891, "locktime": 0, "vsize": 191, "size": 191}