{"hash": "a424309b680a7e536bbbab92ee4ea1f4f9712bbd79a4cd567f379bf3d95a0ae7", "blockhash": "0000000000000000001e0dab787dd257d1dbfcb92a98c2207d5e1078be1f4165", "vout": [{"scriptPubKey": {"reqSigs": 1, "hex": "a914d10614897806401e9bd376d9eb4c157fd0c7f31287", "addresses": ["3LkES6cXaUVFstAQ7ezrWcebQx86KMVurm"], "asm": "OP_HASH160 d10614897806401e9bd376d9eb4c157fd0c7f312 OP_EQUAL", "type": "scripthash"}, "value": 2.39187114, "n": 0}, {"scriptPubKey": {"reqSigs": 1, "hex": "a914c824b677a9b5284b6ddf140ed7c955722734c1cc87", "addresses": ["3KwH3kt1UC8snuzwzmhFF6Ukk5yQ2QoC6L"], "asm": "OP_HASH160 c824b677a9b5284b6ddf140ed7c955722734c1cc OP_EQUAL", "type": "scripthash"}, "value": 0.0029946, "n": 1}, {"scriptPubKey": {"reqSigs": 1, "hex": "a914d834aa35f820b4eb5f9b24b89c6ac84907c5be5687", "addresses": ["3MQCyCXZ9LpVQUgAfpmu7w3URLfGQQy2BM"], "asm": "OP_HASH160 d834aa35f820b4eb5f9b24b89c6ac84907c5be56 OP_EQUAL", "type": "scripthash"}, "value": 0.0042806, "n": 2}, {"scriptPubKey": {"reqSigs": 1, "hex": "a914708eb36b1d2849e71dd8a61bb43f519c3dd796aa87", "addresses": ["3BxAZ4JuBey4rVxfmcakdE1LjhznBJRgTe"], "asm": "OP_HASH160 708eb36b1d2849e71dd8a61bb43f519c3dd796aa OP_EQUAL", "type": "scripthash"}, "value": 0.00412168, "n": 3}, {"scriptPubKey": {"reqSigs": 1, "hex": "a914176d201e0f6fe403dd7710bf1d7bc1628307e77987", "addresses": ["33ptC8Evvs4dAbJxZ8HJiUmRdv1ogCMKGU"], "asm": "OP_HASH160 176d201e0f6fe403dd7710bf1d7bc1628307e779 OP_EQUAL", "type": "scripthash"}, "value": 0.0021386, "n": 4}, {"scriptPubKey": {"reqSigs": 1, "hex": "a914baa39d17ee3a21fd51d8633fe8a45f5b4ae594d087", "addresses": ["3JhscJLJqh5dpSd9kcujZxR39dvkLbR8e8"], "asm": "OP_HASH160 baa39d17ee3a21fd51d8633fe8a45f5b4ae594d0 OP_EQUAL", "type": "scripthash"}, "value": 0.00324797, "n": 5}, {"scriptPubKey": {"reqSigs": 1, "hex": "a91425b74fc44cb5d579107401c127f5dd5c1f8891ad87", "addresses": ["358SXMV2aEKdUWRNTVP31EKKczt4tCMyP8"], "asm": "OP_HASH160 25b74fc44cb5d579107401c127f5dd5c1f8891ad OP_EQUAL", "type": "scripthash"}, "value": 0.00278, "n": 6}, {"scriptPubKey": {"reqSigs": 1, "hex": "76a914a32c0eb8f22bba84d3f47caed3b4d0a2a97a3edd88ac", "addresses": ["1FsmvSPigfiXtFv4h88nWUHDmjgGchMTcc"], "asm": "OP_DUP OP_HASH160 a32c0eb8f22bba84d3f47caed3b4d0a2a97a3edd OP_EQUALVERIFY OP_CHECKSIG", "type": "pubkeyhash"}, "value": 0.00243215, "n": 7}, {"scriptPubKey": {"reqSigs": 1, "hex": "a914851831a209be5668582a687acabb931e10d7424087", "addresses": ["3Dpkn5SWeKpgZBpwHNwEHCwLFfUHmqLWt2"], "asm": "OP_HASH160 851831a209be5668582a687acabb931e10d74240 OP_EQUAL", "type": "scripthash"}, "value": 0.00713, "n": 8}, {"scriptPubKey": {"reqSigs": 1, "hex": "a91428dc225414d19b66b477abfa4254b63e3755907f87", "addresses": ["35R4fQGommMy4zPnJvmqoynKppgx6b4tQR"], "asm": "OP_HASH160 28dc225414d19b66b477abfa4254b63e3755907f OP_EQUAL", "type": "scripthash"}, "value": 0.0034146, "n": 9}, {"scriptPubKey": {"reqSigs": 1, "hex": "76a914ebd9c347cfa97312b8d0b2a7f94145c5fb252c8188ac", "addresses": ["1NW4fWLMkGs8SFF6GjT78dhpjVuyCJ46oE"], "asm": "OP_DUP OP_HASH160 ebd9c347cfa97312b8d0b2a7f94145c5fb252c81 OP_EQUALVERIFY OP_CHECKSIG", "type": "pubkeyhash"}, "value": 0.0022989, "n": 10}, {"scriptPubKey": {"reqSigs": 1, "hex": "a914721b8d2b94b412add88c36fc3b842cfbe880219e87", "addresses": ["3C6MxijuLAGETtiq3DLBcUVUu1JNAcgVFe"], "asm": "OP_HASH160 721b8d2b94b412add88c36fc3b842cfbe880219e OP_EQUAL", "type": "scripthash"}, "value": 0.00412168, "n": 11}], "hex": "020000000001015e8de6414fd19cdbd5947a2de15446af0ec63cfd15e9c265c05808f61723a20a0100000017160014f19344f5a0cf62dd2271edd96236c6285cd2bb08feffffff0caab4410e0000000017a914d10614897806401e9bd376d9eb4c157fd0c7f31287c49104000000000017a914c824b677a9b5284b6ddf140ed7c955722734c1cc871c8806000000000017a914d834aa35f820b4eb5f9b24b89c6ac84907c5be5687084a06000000000017a914708eb36b1d2849e71dd8a61bb43f519c3dd796aa87644303000000000017a914176d201e0f6fe403dd7710bf1d7bc1628307e77987bdf404000000000017a914baa39d17ee3a21fd51d8633fe8a45f5b4ae594d087f03d04000000000017a91425b74fc44cb5d579107401c127f5dd5c1f8891ad870fb60300000000001976a914a32c0eb8f22bba84d3f47caed3b4d0a2a97a3edd88ac28e10a000000000017a914851831a209be5668582a687acabb931e10d7424087d43505000000000017a91428dc225414d19b66b477abfa4254b63e3755907f8702820300000000001976a914ebd9c347cfa97312b8d0b2a7f94145c5fb252c8188ac084a06000000000017a914721b8d2b94b412add88c36fc3b842cfbe880219e8702473044022071c42bf6f93570455bd254e09a35b370ad21b5efa407d4882eea568f9c3549e102204ca6ca19264b9fd5f07d0ce3f1a5d70a4bdc7d497d25d2ff61a6c3634d451566012102d7eeb329b7929e31a9756a3d9241546548f3bb9a779705c7659486d0e575b77b12490800", "vin": [{"txinwitness": ["3044022071c42bf6f93570455bd254e09a35b370ad21b5efa407d4882eea568f9c3549e102204ca6ca19264b9fd5f07d0ce3f1a5d70a4bdc7d497d25d2ff61a6c3634d45156601", "02d7eeb329b7929e31a9756a3d9241546548f3bb9a779705c7659486d0e575b77b"], "sequence": 4294967294, "scriptSig": {"hex": "160014f19344f5a0cf62dd2271edd96236c6285cd2bb08", "asm": "0014f19344f5a0cf62dd2271edd96236c6285cd2bb08"}, "vout": 1, "txid": "0aa22317f60858c065c2e915fd3cc60eaf4654e12d7a94d5db9cd14f41e68d5e"}], "txid": "543773fe523a174d83cc80b09511c3073f3376a2a8d65d354c4cea4b8596a474", "blocktime": 1537872475, "version": 2, "confirmations": 11486, "time": 1537872475, "locktime": 542994, "vsize": 490, "size": 571}