{"hash": "54429fd162019764a13ae4c32000d47c98679c51e2558c6d36b24f4b6eeda46e", "blockhash": "00000000000000000004ffacab907a6b429b9a5745fa0b75af4234bf69dd7176", "vout": [{"scriptPubKey": {"reqSigs": 1, "hex": "76a914f35eb8f9ae09c48ce5ce966c9bee6ebf865fd50088ac", "addresses": ["1PBpg47QUx61QJAKRrJ56zMT7TnGXG1ed2"], "asm": "OP_DUP OP_HASH160 f35eb8f9ae09c48ce5ce966c9bee6ebf865fd500 OP_EQUALVERIFY OP_CHECKSIG", "type": "pubkeyhash"}, "value": 0.02345278, "n": 0}, {"scriptPubKey": {"reqSigs": 1, "hex": "76a91404ec25a0fb8e15b19f97f457aaecbcec80e3f67188ac", "addresses": ["1T2bYmNFJ2j572gznTdCqoU9qgPG25jhQ"], "asm": "OP_DUP OP_HASH160 04ec25a0fb8e15b19f97f457aaecbcec80e3f671 OP_EQUALVERIFY OP_CHECKSIG", "type": "pubkeyhash"}, "value": 0.11447593, "n": 1}], "hex": "0100000001212725ffb5a9d2dfe6ad42c1d53d5ed3f94d4f11bbbe477fc829b50c87181618010000006a47304402206236822344ae49dc1bcf37f458c40a971658f8ed8bba313f9fddb84a292fe1d1022006e711bfb922da91989b70dd8077c37162dd1a72c9cf6487df631a6de7a16011012103a7fbbbe88681a8f0d0b550f48346ef7c96603533104380ea290b54f0a1ff3d8cffffffff023ec92300000000001976a914f35eb8f9ae09c48ce5ce966c9bee6ebf865fd50088ac29adae00000000001976a91404ec25a0fb8e15b19f97f457aaecbcec80e3f67188ac00000000", "vin": [{"sequence": 4294967295, "scriptSig": {"hex": "47304402206236822344ae49dc1bcf37f458c40a971658f8ed8bba313f9fddb84a292fe1d1022006e711bfb922da91989b70dd8077c37162dd1a72c9cf6487df631a6de7a16011012103a7fbbbe88681a8f0d0b550f48346ef7c96603533104380ea290b54f0a1ff3d8c", "asm": "304402206236822344ae49dc1bcf37f458c40a971658f8ed8bba313f9fddb84a292fe1d1022006e711bfb922da91989b70dd8077c37162dd1a72c9cf6487df631a6de7a16011[ALL] 03a7fbbbe88681a8f0d0b550f48346ef7c96603533104380ea290b54f0a1ff3d8c"}, "vout": 1, "txid": "181618870cb529c87f47bebb114f4df9d35e3dd5c142ade6dfd2a9b5ff252721"}], "txid": "54429fd162019764a13ae4c32000d47c98679c51e2558c6d36b24f4b6eeda46e", "blocktime": 1537875543, "version": 1, "confirmations": 11464, "time": 1537875543, "locktime": 0, "vsize": 225, "size": 225}