{"hash": "f3ed7a999c11dd504b4bc45a0f1da25dcca09dc602caa9229d2033373d451b01", "blockhash": "0000000000000000001f76057863aec43deb6fa401d9628bb513d65a8098bfab", "vout": [{"scriptPubKey": {"reqSigs": 1, "hex": "00147d20de44286304b741969db365d6645de2df62bf", "addresses": ["bc1q05sdu3pgvvztwsvknkekt4nyth3d7c4lfnt03n"], "asm": "0 7d20de44286304b741969db365d6645de2df62bf", "type": "witness_v0_keyhash"}, "value": 7.95e-06, "n": 0}, {"scriptPubKey": {"reqSigs": 1, "hex": "0014cde551b8c928e517ad3e112a09f70dfa6840fc69", "addresses": ["bc1qehj4rwxf9rj30tf7zy4qnacdlf5yplrf37p02m"], "asm": "0 cde551b8c928e517ad3e112a09f70dfa6840fc69", "type": "witness_v0_keyhash"}, "value": 0.00896, "n": 1}], "hex": "010000000001011759aeacfcd2038aeba4b04c194f5ebf5ccd782fa53af04a2ef6468830fbe7dd0000000000ffffffff021b030000000000001600147d20de44286304b741969db365d6645de2df62bf00ac0d0000000000160014cde551b8c928e517ad3e112a09f70dfa6840fc690248304502210086d00713d5c59bad1a0182a6760f94aa7eb27fab4c59eb61f262e11c5bfc959502205286014a90363b036daac3f37f3632745a228efa8a8f97efd617a21581ddda180121029ced1f845b72fd1fde5642bd83427ea7223c023dec3c33fb9427ff6a802acd6e00000000", "vin": [{"txinwitness": ["304502210086d00713d5c59bad1a0182a6760f94aa7eb27fab4c59eb61f262e11c5bfc959502205286014a90363b036daac3f37f3632745a228efa8a8f97efd617a21581ddda1801", "029ced1f845b72fd1fde5642bd83427ea7223c023dec3c33fb9427ff6a802acd6e"], "sequence": 4294967295, "scriptSig": {"hex": "", "asm": ""}, "vout": 0, "txid": "dde7fb308846f62e4af03aa52f78cd5cbf5e4f194cb0a4eb8a03d2fcacae5917"}], "txid": "54486ebb5d1470a49169e008733353ceea657fb52362fc97534292c2b18d5ed8", "blocktime": 1537873891, "version": 1, "confirmations": 11479, "time": 1537873891, "locktime": 0, "vsize": 141, "size": 223}