{"hash": "544dc631ccad4d222e537bcb5acbd4a82fa4e2b56595391a56b4038518214596", "blockhash": "00000000000000000024a2167bbff67b0be802c0b01cdd79e6331c2be6459f87", "vout": [{"scriptPubKey": {"reqSigs": 1, "hex": "76a91453fda8dc6aa2d4b3bfc09270521c82c36aa7b8cf88ac", "addresses": ["18f6xW3p5Vds9smdug5TiXZYQTsbZMECVJ"], "asm": "OP_DUP OP_HASH160 53fda8dc6aa2d4b3bfc09270521c82c36aa7b8cf OP_EQUALVERIFY OP_CHECKSIG", "type": "pubkeyhash"}, "value": 0.00214559, "n": 0}, {"scriptPubKey": {"reqSigs": 1, "hex": "a914ff7aa8d9a49b69fcb6ddaafe03c53d82f374ab6b87", "addresses": ["3QysAzms7dfF5jT3bXobYpbBPNWgvDNJ5C"], "asm": "OP_HASH160 ff7aa8d9a49b69fcb6ddaafe03c53d82f374ab6b OP_EQUAL", "type": "scripthash"}, "value": 0.00779948, "n": 1}], "hex": "0100000001d28063c9cea737e82ab0312c8f2476e2aa37131307c2aebd3a0bbd45fd95748c010000006b483045022100ce873e51425bbde398a793e6cb38d6e608bb09d04628d8a6c738928eab0da506022044179d326f2b03dde003232a82399d99d4d55de9dfc206b80099e3614619d811012103ef16e9179bb0a5908ab9500718d97a45ed8ea0c99f1c61a1b5b5678fd46b5be5ffffffff021f460300000000001976a91453fda8dc6aa2d4b3bfc09270521c82c36aa7b8cf88acace60b000000000017a914ff7aa8d9a49b69fcb6ddaafe03c53d82f374ab6b8700000000", "vin": [{"sequence": 4294967295, "scriptSig": {"hex": "483045022100ce873e51425bbde398a793e6cb38d6e608bb09d04628d8a6c738928eab0da506022044179d326f2b03dde003232a82399d99d4d55de9dfc206b80099e3614619d811012103ef16e9179bb0a5908ab9500718d97a45ed8ea0c99f1c61a1b5b5678fd46b5be5", "asm": "3045022100ce873e51425bbde398a793e6cb38d6e608bb09d04628d8a6c738928eab0da506022044179d326f2b03dde003232a82399d99d4d55de9dfc206b80099e3614619d811[ALL] 03ef16e9179bb0a5908ab9500718d97a45ed8ea0c99f1c61a1b5b5678fd46b5be5"}, "vout": 1, "txid": "8c7495fd45bd0b3abdaec207131337aae276248f2c31b02ae837a7cec96380d2"}], "txid": "544dc631ccad4d222e537bcb5acbd4a82fa4e2b56595391a56b4038518214596", "blocktime": 1537870564, "version": 1, "confirmations": 11515, "time": 1537870564, "locktime": 0, "vsize": 224, "size": 224}