{"hash": "54508b18a3794e239f1b8aaa54c936ca05bd19b24be06fa8d387f9034f1db69a", "blockhash": "0000000000000000001cda96e906b7601b7a6fb1a3b62bca570a9e5d8f4b3de1", "vout": [{"scriptPubKey": {"reqSigs": 1, "hex": "76a914ca94260f06cb91b5dfe4cb2f5815bc1c2b6c49f388ac", "addresses": ["1KU8yJNkvvdsRgmyJeUQxKPm326bj3YhHB"], "asm": "OP_DUP OP_HASH160 ca94260f06cb91b5dfe4cb2f5815bc1c2b6c49f3 OP_EQUALVERIFY OP_CHECKSIG", "type": "pubkeyhash"}, "value": 0.01164095, "n": 0}, {"scriptPubKey": {"reqSigs": 1, "hex": "a9144a184d97095c9112591a277f2ee961977780952187", "addresses": ["38So3M6HZLPg3oG7xA22zqqm6KAoNKUP8o"], "asm": "OP_HASH160 4a184d97095c9112591a277f2ee9619777809521 OP_EQUAL", "type": "scripthash"}, "value": 0.0246, "n": 1}], "hex": "02000000020258802285995f6b8ed3fc28849124cc6103458883d96656e821ce6839599345010000006a47304402201c063ec5f1fc01aabd739706901d607e42b295af49b5f7209fe48ceb917414ad02200123b5a59a7c1d65c367e5e020f443040deab8232786714d55f29db5247171c1012103cdc7e579acfda4b3d146f5187c3ade0fcfe53323abc2599379f27340628bc135fdfffffff2468152a0b37bbbd762be64a97a081af6390a7bb799ae9e8133657a1ca6135c010000006a47304402204de6ea320409894f5cdd1a77bec5dc98cc92e17cae669b0fbdd1fa8011d9544802205aafe3aebb04aced98c262984ae619c766c9c5fe04e926b24b2d150d09be8f7101210366de3b74a29b764a2eada3d2d97358963a445eeddf2c271468e7a9bac00215b8fdffffff023fc31100000000001976a914ca94260f06cb91b5dfe4cb2f5815bc1c2b6c49f388ac608925000000000017a9144a184d97095c9112591a277f2ee96197778095218712490800", "vin": [{"sequence": 4294967293, "scriptSig": {"hex": "47304402201c063ec5f1fc01aabd739706901d607e42b295af49b5f7209fe48ceb917414ad02200123b5a59a7c1d65c367e5e020f443040deab8232786714d55f29db5247171c1012103cdc7e579acfda4b3d146f5187c3ade0fcfe53323abc2599379f27340628bc135", "asm": "304402201c063ec5f1fc01aabd739706901d607e42b295af49b5f7209fe48ceb917414ad02200123b5a59a7c1d65c367e5e020f443040deab8232786714d55f29db5247171c1[ALL] 03cdc7e579acfda4b3d146f5187c3ade0fcfe53323abc2599379f27340628bc135"}, "vout": 1, "txid": "4593593968ce21e85666d98388450361cc24918428fcd38e6b5f998522805802"}, {"sequence": 4294967293, "scriptSig": {"hex": "47304402204de6ea320409894f5cdd1a77bec5dc98cc92e17cae669b0fbdd1fa8011d9544802205aafe3aebb04aced98c262984ae619c766c9c5fe04e926b24b2d150d09be8f7101210366de3b74a29b764a2eada3d2d97358963a445eeddf2c271468e7a9bac00215b8", "asm": "304402204de6ea320409894f5cdd1a77bec5dc98cc92e17cae669b0fbdd1fa8011d9544802205aafe3aebb04aced98c262984ae619c766c9c5fe04e926b24b2d150d09be8f71[ALL] 0366de3b74a29b764a2eada3d2d97358963a445eeddf2c271468e7a9bac00215b8"}, "vout": 1, "txid": "5c13a61c7a6533819eae99b77b0a39f61a087aa964be62d7bb7bb3a0528146f2"}], "txid": "54508b18a3794e239f1b8aaa54c936ca05bd19b24be06fa8d387f9034f1db69a", "blocktime": 1537873282, "version": 2, "confirmations": 11480, "time": 1537873282, "locktime": 542994, "vsize": 370, "size": 370}