{"hash": "54516cd2977b8efa44983d774614b6fe96e60a424e1c809c02c68f4c191fb0bf", "blockhash": "00000000000000000004ffacab907a6b429b9a5745fa0b75af4234bf69dd7176", "vout": [{"scriptPubKey": {"reqSigs": 1, "hex": "76a9142d80cafc9d9e966f0658cdc1d61288c4f18d158e88ac", "addresses": ["159bhKdHTUwthxdqwfwRgETgtzzqGeW9Yz"], "asm": "OP_DUP OP_HASH160 2d80cafc9d9e966f0658cdc1d61288c4f18d158e OP_EQUALVERIFY OP_CHECKSIG", "type": "pubkeyhash"}, "value": 0.00187496, "n": 0}, {"scriptPubKey": {"reqSigs": 1, "hex": "76a91470939a8373b16f9104c39102f9b5d0183335aaac88ac", "addresses": ["1BGFWAKgeEnLkMdzWAAk3odgHn5hnwzJ4V"], "asm": "OP_DUP OP_HASH160 70939a8373b16f9104c39102f9b5d0183335aaac OP_EQUALVERIFY OP_CHECKSIG", "type": "pubkeyhash"}, "value": 0.00015792, "n": 1}], "hex": "0200000003d9c404e751e787331ab5b5bffacb2a1c89cb14874c9adccb37191b2a8f58f3f0000000006a47304402203c83551a728e22dced4747fb26850c9a90055f25a087a48c3f13abec78bb3c220220328258b409f8d3067381d6bdf9f9ac2fd3dac739fd4d07c94d22c68a38a560310121037d5ec9b8496699328627d2ca9295503a42eb202496f921b541354cc75dfe5e59fffffffff240fa8dd7c1a87ab9ab16eaa04d572ade1efc5e8ca0ed5da8b607eeaf1b70f2010000006a47304402205cfdfb8f8aa80cb4f96a9a71db760ec82e3f056544e3481edc95a2c1c355376d02206132bbbbce9b11632ee3f4a722ecf6aa6605ecd28b699a04fa63ed19d9b562520121037d5ec9b8496699328627d2ca9295503a42eb202496f921b541354cc75dfe5e59ffffffff98198d0e41f22ea2ca68827444256bbad6ff29f5ae2f3bc55ae6b8efb400ee96010000006a4730440221008655335e3a3a38f582cd95f007cf5018a06655dba272da9e5fe0466e438abcd5021f0668143107006cb9cadc73686bde4e38c06ede157be55c9676cc56f90513e60121037d5ec9b8496699328627d2ca9295503a42eb202496f921b541354cc75dfe5e59ffffffff0268dc0200000000001976a9142d80cafc9d9e966f0658cdc1d61288c4f18d158e88acb03d0000000000001976a91470939a8373b16f9104c39102f9b5d0183335aaac88ac00000000", "vin": [{"sequence": 4294967295, "scriptSig": {"hex": "47304402203c83551a728e22dced4747fb26850c9a90055f25a087a48c3f13abec78bb3c220220328258b409f8d3067381d6bdf9f9ac2fd3dac739fd4d07c94d22c68a38a560310121037d5ec9b8496699328627d2ca9295503a42eb202496f921b541354cc75dfe5e59", "asm": "304402203c83551a728e22dced4747fb26850c9a90055f25a087a48c3f13abec78bb3c220220328258b409f8d3067381d6bdf9f9ac2fd3dac739fd4d07c94d22c68a38a56031[ALL] 037d5ec9b8496699328627d2ca9295503a42eb202496f921b541354cc75dfe5e59"}, "vout": 0, "txid": "f0f3588f2a1b1937cbdc9a4c8714cb891c2acbfabfb5b51a3387e751e704c4d9"}, {"sequence": 4294967295, "scriptSig": {"hex": "47304402205cfdfb8f8aa80cb4f96a9a71db760ec82e3f056544e3481edc95a2c1c355376d02206132bbbbce9b11632ee3f4a722ecf6aa6605ecd28b699a04fa63ed19d9b562520121037d5ec9b8496699328627d2ca9295503a42eb202496f921b541354cc75dfe5e59", "asm": "304402205cfdfb8f8aa80cb4f96a9a71db760ec82e3f056544e3481edc95a2c1c355376d02206132bbbbce9b11632ee3f4a722ecf6aa6605ecd28b699a04fa63ed19d9b56252[ALL] 037d5ec9b8496699328627d2ca9295503a42eb202496f921b541354cc75dfe5e59"}, "vout": 1, "txid": "f2701bafee07b6a85deda08c5efc1ede2a574da0ea16abb97aa8c1d78dfa40f2"}, {"sequence": 4294967295, "scriptSig": {"hex": "4730440221008655335e3a3a38f582cd95f007cf5018a06655dba272da9e5fe0466e438abcd5021f0668143107006cb9cadc73686bde4e38c06ede157be55c9676cc56f90513e60121037d5ec9b8496699328627d2ca9295503a42eb202496f921b541354cc75dfe5e59", "asm": "30440221008655335e3a3a38f582cd95f007cf5018a06655dba272da9e5fe0466e438abcd5021f0668143107006cb9cadc73686bde4e38c06ede157be55c9676cc56f90513e6[ALL] 037d5ec9b8496699328627d2ca9295503a42eb202496f921b541354cc75dfe5e59"}, "vout": 1, "txid": "96ee00b4efb8e65ac53b2faef529ffd6ba6b2544748268caa22ef2410e8d1998"}], "txid": "54516cd2977b8efa44983d774614b6fe96e60a424e1c809c02c68f4c191fb0bf", "blocktime": 1537875543, "version": 2, "confirmations": 11464, "time": 1537875543, "locktime": 0, "vsize": 519, "size": 519}