{"hash": "e906ccbce155efed8ced3d5b8fcf3e451e7519d5d23bc99ae765fd2ca8fb039b", "blockhash": "000000000000000000205f8b0775d31398ef75b89a5e8ec8d2c57b4dc0ac4c20", "vout": [{"scriptPubKey": {"reqSigs": 1, "hex": "a914938a6c522797a904bb94730caface56d4911ea1287", "addresses": ["3F995YsqQMiqHmLi9U2tqY2fd37efMBde9"], "asm": "OP_HASH160 938a6c522797a904bb94730caface56d4911ea12 OP_EQUAL", "type": "scripthash"}, "value": 15.40320366, "n": 0}, {"scriptPubKey": {"reqSigs": 1, "hex": "a914ca5798e773cd4b6609b6a53445c68e617e9b61a287", "addresses": ["3L8uMfCF4DPwx81hQaKWkWGpCmd6GLwg5B"], "asm": "OP_HASH160 ca5798e773cd4b6609b6a53445c68e617e9b61a2 OP_EQUAL", "type": "scripthash"}, "value": 0.27553986, "n": 1}], "hex": "02000000000101046a30e9e81fa0ad0fe38b4bd843f5421a2bc750b8fc9627d35b720e8e4a27340100000017160014d0e62856aac4db33ab4551da458631167e1b5c69ffffffff026e6ccf5b0000000017a914938a6c522797a904bb94730caface56d4911ea1287c270a4010000000017a914ca5798e773cd4b6609b6a53445c68e617e9b61a28702483045022100fefdf6579a37f710709c7b371dfa2b8f67087bbd2f98f955985b84c1684bebdc022021827adaa02025c771065b16c6c14182be015494d844d81ea33d47e3a74a30ca01210208b9d155be84c6b4e09628cec49389992c4e8db2e11608edcfb120a30bbde91b00000000", "vin": [{"txinwitness": ["3045022100fefdf6579a37f710709c7b371dfa2b8f67087bbd2f98f955985b84c1684bebdc022021827adaa02025c771065b16c6c14182be015494d844d81ea33d47e3a74a30ca01", "0208b9d155be84c6b4e09628cec49389992c4e8db2e11608edcfb120a30bbde91b"], "sequence": 4294967295, "scriptSig": {"hex": "160014d0e62856aac4db33ab4551da458631167e1b5c69", "asm": "0014d0e62856aac4db33ab4551da458631167e1b5c69"}, "vout": 1, "txid": "34274a8e0e725bd32796fcb850c72b1a42f543d84b8be30fada01fe8e9306a04"}], "txid": "54563f978e6374379e1f156b0e3a7e42f321a914f361c9981ec4ba3308079cd0", "blocktime": 1537871175, "version": 2, "confirmations": 11511, "time": 1537871175, "locktime": 0, "vsize": 166, "size": 248}