{"hash": "49d0f5abe6455913e3d29bdc8f828751304c7ad11b3167becc5a4bd4ab3b7a80", "blockhash": "0000000000000000001f76057863aec43deb6fa401d9628bb513d65a8098bfab", "vout": [{"scriptPubKey": {"reqSigs": 1, "hex": "a914804205069a517035b8edc2dc2ea4c7fba9af3c9f87", "addresses": ["3DPBWDrjRM7FwCKRS7NbU1ZYjQKXtxGVkb"], "asm": "OP_HASH160 804205069a517035b8edc2dc2ea4c7fba9af3c9f OP_EQUAL", "type": "scripthash"}, "value": 0.06841638, "n": 0}, {"scriptPubKey": {"reqSigs": 1, "hex": "a914022003bd7ef25ada479ef79dc1e35dc3e565124587", "addresses": ["31tFdLmAEWyvFeFnD4BLYSryNuMLnN6XQF"], "asm": "OP_HASH160 022003bd7ef25ada479ef79dc1e35dc3e5651245 OP_EQUAL", "type": "scripthash"}, "value": 0.00065313, "n": 1}], "hex": "02000000000101c71b5db1ddf918a7749d0acda4a634552e46cf6420e5107b62a52f939130530a0000000017160014dfdcfa901b839f33002f6cb7c37d58317d09e380ffffffff02266568000000000017a914804205069a517035b8edc2dc2ea4c7fba9af3c9f8721ff00000000000017a914022003bd7ef25ada479ef79dc1e35dc3e5651245870247304402205df5107ac44123a70ce51cbb843aa1aa54b9eece2979f6922b1654214cb4c792022035ab2cda76cdb9ccc85fdc754ed6307e4008e14d807147183d6c4d55c9042e460121028f3ff5c17e1b9f7cc1f8ef4a6fddd588c2d12fd3ee1a864cfe45d70b936c1e9000000000", "vin": [{"txinwitness": ["304402205df5107ac44123a70ce51cbb843aa1aa54b9eece2979f6922b1654214cb4c792022035ab2cda76cdb9ccc85fdc754ed6307e4008e14d807147183d6c4d55c9042e4601", "028f3ff5c17e1b9f7cc1f8ef4a6fddd588c2d12fd3ee1a864cfe45d70b936c1e90"], "sequence": 4294967295, "scriptSig": {"hex": "160014dfdcfa901b839f33002f6cb7c37d58317d09e380", "asm": "0014dfdcfa901b839f33002f6cb7c37d58317d09e380"}, "vout": 0, "txid": "0a533091932fa5627b10e52064cf462e5534a6a4cd0a9d74a718f9ddb15d1bc7"}], "txid": "5458e58889a40b4a9bfbf1e111a0b3ace3ad9e371b329e88e8af561aa18d30a1", "blocktime": 1537873891, "version": 2, "confirmations": 11475, "time": 1537873891, "locktime": 0, "vsize": 166, "size": 247}