{"hash": "545871988dfb1872dceb34eeb11c585344a8b3c0ee5dddf6898ad1bda43432f2", "blockhash": "0000000000000000000e13cef7c366c0283d82e591d1acd082e914b08063cdf1", "vout": [{"scriptPubKey": {"type": "nulldata", "hex": "6a4c500000779c000114a898f23fe1bc665f662dbfe3ef3236678a625097bcbefa6b8351586b4eba21a813ee8def98f42073a9709d8c795baa0d99061567b421566cf6bc9a9526289ac0f6612cd74e33776ee4", "asm": "OP_RETURN 0000779c000114a898f23fe1bc665f662dbfe3ef3236678a625097bcbefa6b8351586b4eba21a813ee8def98f42073a9709d8c795baa0d99061567b421566cf6bc9a9526289ac0f6612cd74e33776ee4"}, "value": 0.0, "n": 0}, {"scriptPubKey": {"reqSigs": 1, "hex": "76a914efd88cd0f2cfa6efdcd7bace8da7fea1e965e7b588ac", "addresses": ["1NsBv1ZSvqbcLBC822RLowxgZHFXen8YVs"], "asm": "OP_DUP OP_HASH160 efd88cd0f2cfa6efdcd7bace8da7fea1e965e7b5 OP_EQUALVERIFY OP_CHECKSIG", "type": "pubkeyhash"}, "value": 0.0014236, "n": 1}], "hex": "010000000144279f56ab998483fa1eb442107566dbfbf457c4490edfa74b25a2eab990b08e000000006b483045022100d6f38c84085cca74a6dca187a5a22d19b0eb723b28d99ca1692c5448dfe043e302205650aea0efcda56292f3fe2c2598539b1b4088473229b4d91e2c48c091a401a0012103c0019fda686ee604199fb1b23d535c5f9df1674473d8b3b3fdd4fe9cb5621a69ffffffff020000000000000000536a4c500000779c000114a898f23fe1bc665f662dbfe3ef3236678a625097bcbefa6b8351586b4eba21a813ee8def98f42073a9709d8c795baa0d99061567b421566cf6bc9a9526289ac0f6612cd74e33776ee4182c0200000000001976a914efd88cd0f2cfa6efdcd7bace8da7fea1e965e7b588ac00000000", "vin": [{"sequence": 4294967295, "scriptSig": {"hex": "483045022100d6f38c84085cca74a6dca187a5a22d19b0eb723b28d99ca1692c5448dfe043e302205650aea0efcda56292f3fe2c2598539b1b4088473229b4d91e2c48c091a401a0012103c0019fda686ee604199fb1b23d535c5f9df1674473d8b3b3fdd4fe9cb5621a69", "asm": "3045022100d6f38c84085cca74a6dca187a5a22d19b0eb723b28d99ca1692c5448dfe043e302205650aea0efcda56292f3fe2c2598539b1b4088473229b4d91e2c48c091a401a0[ALL] 03c0019fda686ee604199fb1b23d535c5f9df1674473d8b3b3fdd4fe9cb5621a69"}, "vout": 0, "txid": "8eb090b9eaa2254ba7df0e49c457f4fbdb66751042b41efa838499ab569f2744"}], "txid": "545871988dfb1872dceb34eeb11c585344a8b3c0ee5dddf6898ad1bda43432f2", "blocktime": 1537871767, "version": 1, "confirmations": 11493, "time": 1537871767, "locktime": 0, "vsize": 284, "size": 284}