{"hash": "54593162fed8ad4a4005cda11fafb92ce301db021de73179b462ba32d969f436", "blockhash": "0000000000000000000e13cef7c366c0283d82e591d1acd082e914b08063cdf1", "vout": [{"scriptPubKey": {"reqSigs": 1, "hex": "76a9140e98e1266e47bffa28f82fefadf71410ee831a4d88ac", "addresses": ["12LBbwTnSxrWC9wWTzR8RRZJ4qTai3seoQ"], "asm": "OP_DUP OP_HASH160 0e98e1266e47bffa28f82fefadf71410ee831a4d OP_EQUALVERIFY OP_CHECKSIG", "type": "pubkeyhash"}, "value": 0.005445, "n": 0}, {"scriptPubKey": {"reqSigs": 1, "hex": "76a914a5999b3735fc834cb21f7d1955b44e19e5f5475988ac", "addresses": ["1G6cWQXXnKM4D7YrrSNjCJPzL9crsWgKX6"], "asm": "OP_DUP OP_HASH160 a5999b3735fc834cb21f7d1955b44e19e5f54759 OP_EQUALVERIFY OP_CHECKSIG", "type": "pubkeyhash"}, "value": 0.10711385, "n": 1}], "hex": "01000000011560fce8004998ebee0863e80473400fa4561a12ba0c0aa6a3d5c9ad286a84b6010000006b483045022100ddf8d1dc646c91131d56d9c8735e45c9bc2c7fd5f4a3d88c1f1fc2009884948e0220216ab5a12e08ad52e0b0f5ed7af03af195500eabf6cde0ddc7a0d887d605cba5012102381acfbb01dacf4b0715fd5ee9ada38bf6c414f624c58a71e1b3d2cdd427ab29ffffffff02f44e0800000000001976a9140e98e1266e47bffa28f82fefadf71410ee831a4d88ac5971a300000000001976a914a5999b3735fc834cb21f7d1955b44e19e5f5475988ac00000000", "vin": [{"sequence": 4294967295, "scriptSig": {"hex": "483045022100ddf8d1dc646c91131d56d9c8735e45c9bc2c7fd5f4a3d88c1f1fc2009884948e0220216ab5a12e08ad52e0b0f5ed7af03af195500eabf6cde0ddc7a0d887d605cba5012102381acfbb01dacf4b0715fd5ee9ada38bf6c414f624c58a71e1b3d2cdd427ab29", "asm": "3045022100ddf8d1dc646c91131d56d9c8735e45c9bc2c7fd5f4a3d88c1f1fc2009884948e0220216ab5a12e08ad52e0b0f5ed7af03af195500eabf6cde0ddc7a0d887d605cba5[ALL] 02381acfbb01dacf4b0715fd5ee9ada38bf6c414f624c58a71e1b3d2cdd427ab29"}, "vout": 1, "txid": "b6846a28adc9d5a3a60a0cba121a56a40f407304e86308eeeb984900e8fc6015"}], "txid": "54593162fed8ad4a4005cda11fafb92ce301db021de73179b462ba32d969f436", "blocktime": 1537871767, "version": 1, "confirmations": 11492, "time": 1537871767, "locktime": 0, "vsize": 226, "size": 226}