{"hash": "545af313a05aaa8e2af528dbd682fc60114e0dc6e9c68b019c6d82fd0f4fd464", "blockhash": "0000000000000000001f0ddff1eddb255c1121bcd4da4f1bc9a0da00cae72433", "vout": [{"scriptPubKey": {"reqSigs": 1, "hex": "a914f6e5f217f5e125801fe60bb7b98ab46661ab66fa87", "addresses": ["3QCVce4hH5hMCqssNtFuw3BSDNWGPFykff"], "asm": "OP_HASH160 f6e5f217f5e125801fe60bb7b98ab46661ab66fa OP_EQUAL", "type": "scripthash"}, "value": 0.06968711, "n": 0}], "hex": "0100000001795d394f09ea541e9dbc76b74b9781e33a99c89f25c83a64ec1f85326a2ee1c5120000006b483045022100a1503c91d92ec11b6871f8042178640febcc8dad772d5c93cf60b69fb84b7de4022001b98896f1829439e37909629c93c22e3d1d81855db88b50cdeef14ae13be667012102ba852bef2d680224db949bb16bd23ed74b4c1ba220da0666c263e89680c9e73cfdffffff0187556a000000000017a914f6e5f217f5e125801fe60bb7b98ab46661ab66fa8711490800", "vin": [{"sequence": 4294967293, "scriptSig": {"hex": "483045022100a1503c91d92ec11b6871f8042178640febcc8dad772d5c93cf60b69fb84b7de4022001b98896f1829439e37909629c93c22e3d1d81855db88b50cdeef14ae13be667012102ba852bef2d680224db949bb16bd23ed74b4c1ba220da0666c263e89680c9e73c", "asm": "3045022100a1503c91d92ec11b6871f8042178640febcc8dad772d5c93cf60b69fb84b7de4022001b98896f1829439e37909629c93c22e3d1d81855db88b50cdeef14ae13be667[ALL] 02ba852bef2d680224db949bb16bd23ed74b4c1ba220da0666c263e89680c9e73c"}, "vout": 18, "txid": "c5e12e6a32851fec643ac8259fc8993ae381974bb776bc9d1e54ea094f395d79"}], "txid": "545af313a05aaa8e2af528dbd682fc60114e0dc6e9c68b019c6d82fd0f4fd464", "blocktime": 1537872018, "version": 1, "confirmations": 11489, "time": 1537872018, "locktime": 542993, "vsize": 190, "size": 190}