{"hash": "66bbcc779df5089b640051b8b04b541ef37730f8c8389f8835db99aa9d532395", "blockhash": "00000000000000000018f53835495a110e01622372bf6ae95dc86f2b0ab887b0", "vout": [{"scriptPubKey": {"reqSigs": 1, "hex": "76a91462f9a19bb360a0c3c690c954a73ac93b0defb7bb88ac", "addresses": ["1A2LGV8JrkBhHwfUaMMLy55eF2uQ2wYnWE"], "asm": "OP_DUP OP_HASH160 62f9a19bb360a0c3c690c954a73ac93b0defb7bb OP_EQUALVERIFY OP_CHECKSIG", "type": "pubkeyhash"}, "value": 0.010557, "n": 0}, {"scriptPubKey": {"reqSigs": 1, "hex": "00141d4c11868f3bddab4b557e7d16e6d6312be017af", "addresses": ["bc1qr4xprp5080w6kj640e73dekkxy47q9a06w4q7v"], "asm": "0 1d4c11868f3bddab4b557e7d16e6d6312be017af", "type": "witness_v0_keyhash"}, "value": 0.00048814, "n": 1}], "hex": "01000000000101b0da176e3937420e70f05f88725054dcc348d7b3c1930d7234f0b8737f2a5db50000000000ffffffff02d41b1000000000001976a91462f9a19bb360a0c3c690c954a73ac93b0defb7bb88acaebe0000000000001600141d4c11868f3bddab4b557e7d16e6d6312be017af02473044022015b7fb72448bcc737a720b121c9a3423d319b1b2282c6b2b375f349e6a2c67e102207bf702746032da400d0eaa9465dc15b9150a16aa9e807ec09f9953178129529901210304af3f894e41f4c728ab76f7a48a8a6ad696c57c6db18c2a4fea1b0ebbfced7300000000", "vin": [{"txinwitness": ["3044022015b7fb72448bcc737a720b121c9a3423d319b1b2282c6b2b375f349e6a2c67e102207bf702746032da400d0eaa9465dc15b9150a16aa9e807ec09f9953178129529901", "0304af3f894e41f4c728ab76f7a48a8a6ad696c57c6db18c2a4fea1b0ebbfced73"], "sequence": 4294967295, "scriptSig": {"hex": "", "asm": ""}, "vout": 0, "txid": "b55d2a7f73b8f034720d93c1b3d748c3dc545072885ff0700e4237396e17dab0"}], "txid": "545cd05e5d1b46b6ef01f1de275ac10fedbb1176aeb73afcc9a0bd6bb019a0b1", "blocktime": 1537870928, "version": 1, "confirmations": 11514, "time": 1537870928, "locktime": 0, "vsize": 144, "size": 225}