{"hash": "2cba2ce6ff12fcf26240018672cc893dfcc690154a777d6ca6fa2fbb7f110d5c", "blockhash": "00000000000000000018f53835495a110e01622372bf6ae95dc86f2b0ab887b0", "vout": [{"scriptPubKey": {"reqSigs": 1, "hex": "a914a91967891b4d509064a44040473c47004df8634a87", "addresses": ["3H78Z6RHEPPpEChy3jnGNFLc8xLHd8Jauz"], "asm": "OP_HASH160 a91967891b4d509064a44040473c47004df8634a OP_EQUAL", "type": "scripthash"}, "value": 0.0002, "n": 0}, {"scriptPubKey": {"reqSigs": 1, "hex": "a91420d07e6f01f76a7cf0f1fd364bbc591cfc68568487", "addresses": ["34gXK6EwPAUb7CSY8cvsFEkDQr5iHZSEKy"], "asm": "OP_HASH160 20d07e6f01f76a7cf0f1fd364bbc591cfc685684 OP_EQUAL", "type": "scripthash"}, "value": 0.00252797, "n": 1}], "hex": "01000000000103c42385fc62c4c95de73b8e61eb6842944dadcafb56fd1921daafcb0eb9a11a7e0000000017160014b6dc8fcbccd290b8ed70b497451fb5a6df9672b1ffffffff0501f29ce66596ae8b93b77b01e557d468833535b24c4de3e3f16afe5f354713010000001716001495f2273f0daa43cf63539d582d8540cc06e46434ffffffff56eeb0599b123dba70cc3b6d1d70bfad927bec44ff793b782aa23ca181bb1f0401000000171600141aaced857a04e0db4c80c769610355103d932292ffffffff02204e00000000000017a914a91967891b4d509064a44040473c47004df8634a877ddb03000000000017a91420d07e6f01f76a7cf0f1fd364bbc591cfc6856848702483045022100da70fd55bcf4f940e3e2515362302aa3a6c9157480bdf799b36a82a5236dfa4002206ad209db24b15c4cffa80f79243874f4375a9b7f0017a5285fcd65a56beaa8b90121032228e117d8d66d3aa9c12aaf501258f8e087def3d01f836fb777660e8da65b3102483045022100e417ff7d441fe21161b4af2c92ae85b648d9ce65a94c54b8560eb7ccb60b465c0220172ee7184dc51eb95507d16b5166a05777a80820de94e4c98359f70d3823d0ea012102872541c5f82e14641bed2ed62c59056f0a068ee9095097b4dcd3bc9e36c72b6c02483045022100d75724c130ad35bbcd48457c0f253ee18a2a64a9decbb236e4bc2821f5cf64fc0220412e92462602317dc904723eb8b759c667c09c3e9410569e4edaea9d306bf3b90121026fc24d642f402bf28a71e7b3eebf5d47cc2dcda58d45ecdcd690693f309ed95700000000", "vin": [{"txinwitness": ["3045022100da70fd55bcf4f940e3e2515362302aa3a6c9157480bdf799b36a82a5236dfa4002206ad209db24b15c4cffa80f79243874f4375a9b7f0017a5285fcd65a56beaa8b901", "032228e117d8d66d3aa9c12aaf501258f8e087def3d01f836fb777660e8da65b31"], "sequence": 4294967295, "scriptSig": {"hex": "160014b6dc8fcbccd290b8ed70b497451fb5a6df9672b1", "asm": "0014b6dc8fcbccd290b8ed70b497451fb5a6df9672b1"}, "vout": 0, "txid": "7e1aa1b90ecbafda2119fd56fbcaad4d944268eb618e3be75dc9c462fc8523c4"}, {"txinwitness": ["3045022100e417ff7d441fe21161b4af2c92ae85b648d9ce65a94c54b8560eb7ccb60b465c0220172ee7184dc51eb95507d16b5166a05777a80820de94e4c98359f70d3823d0ea01", "02872541c5f82e14641bed2ed62c59056f0a068ee9095097b4dcd3bc9e36c72b6c"], "sequence": 4294967295, "scriptSig": {"hex": "16001495f2273f0daa43cf63539d582d8540cc06e46434", "asm": "001495f2273f0daa43cf63539d582d8540cc06e46434"}, "vout": 1, "txid": "1347355ffe6af1e3e34d4cb235358368d457e5017bb7938bae9665e69cf20105"}, {"txinwitness": ["3045022100d75724c130ad35bbcd48457c0f253ee18a2a64a9decbb236e4bc2821f5cf64fc0220412e92462602317dc904723eb8b759c667c09c3e9410569e4edaea9d306bf3b901", "026fc24d642f402bf28a71e7b3eebf5d47cc2dcda58d45ecdcd690693f309ed957"], "sequence": 4294967295, "scriptSig": {"hex": "1600141aaced857a04e0db4c80c769610355103d932292", "asm": "00141aaced857a04e0db4c80c769610355103d932292"}, "vout": 1, "txid": "041fbb81a13ca22a783b79ff44ec7b92adbf701d6d3bcc70ba3d129b59b0ee56"}], "txid": "545e1f63c6642b9396be493ac4c896df9fa9e7762cd0ec7d5d334d6eeb6c4fcd", "blocktime": 1537870928, "version": 1, "confirmations": 11512, "time": 1537870928, "locktime": 0, "vsize": 348, "size": 592}