{"hash": "545ec64b30959f5300c9cfb794f4865e3c9569143733c651900c308818b21245", "blockhash": "0000000000000000000e13cef7c366c0283d82e591d1acd082e914b08063cdf1", "vout": [{"scriptPubKey": {"reqSigs": 1, "hex": "a91439d19afb007c0ccbdc559225a8dc99b056371e6a87", "addresses": ["36xjY7gjLqXYZ14ZruwqEjuu9HkuuidhG3"], "asm": "OP_HASH160 39d19afb007c0ccbdc559225a8dc99b056371e6a OP_EQUAL", "type": "scripthash"}, "value": 0.719932, "n": 0}], "hex": "01000000023db60c1e8285019ebd3e04bd8bc34772f37c0a563527b74e0df8d8ebe7cf343a010000006a4730440220220ce4daa60e7d96a02eb3d66539705786eefd1a78e0685e222a48f049ca7d6902207ef3e206101c8991310990526233a3898417df210f60d67eef35509a98c91a670121036e59608d37af5562a9d3f006472da2a45138ca2f612013d0ec7e59d4a9e3dbd1ffffffff0a7e2a5e876b9f9270bd9421de3a1f3ea85c692184d0e218c5e98724fe2862ce010000006a47304402205b54fde24fca0f3f9f460e590f1001d40b695c785b06b5612601f3ea9e9eb7e102201e3b1889577ff2652656ddbefe516974fcb6961072ea1b3eb535cbdebdb774f5012102bfd737a258fff41d9c947a711bd4141e7a93190f0db894dcb917c7577a5ff938ffffffff0170874a040000000017a91439d19afb007c0ccbdc559225a8dc99b056371e6a8700000000", "vin": [{"sequence": 4294967295, "scriptSig": {"hex": "4730440220220ce4daa60e7d96a02eb3d66539705786eefd1a78e0685e222a48f049ca7d6902207ef3e206101c8991310990526233a3898417df210f60d67eef35509a98c91a670121036e59608d37af5562a9d3f006472da2a45138ca2f612013d0ec7e59d4a9e3dbd1", "asm": "30440220220ce4daa60e7d96a02eb3d66539705786eefd1a78e0685e222a48f049ca7d6902207ef3e206101c8991310990526233a3898417df210f60d67eef35509a98c91a67[ALL] 036e59608d37af5562a9d3f006472da2a45138ca2f612013d0ec7e59d4a9e3dbd1"}, "vout": 1, "txid": "3a34cfe7ebd8f80d4eb72735560a7cf37247c38bbd043ebd9e0185821e0cb63d"}, {"sequence": 4294967295, "scriptSig": {"hex": "47304402205b54fde24fca0f3f9f460e590f1001d40b695c785b06b5612601f3ea9e9eb7e102201e3b1889577ff2652656ddbefe516974fcb6961072ea1b3eb535cbdebdb774f5012102bfd737a258fff41d9c947a711bd4141e7a93190f0db894dcb917c7577a5ff938", "asm": "304402205b54fde24fca0f3f9f460e590f1001d40b695c785b06b5612601f3ea9e9eb7e102201e3b1889577ff2652656ddbefe516974fcb6961072ea1b3eb535cbdebdb774f5[ALL] 02bfd737a258fff41d9c947a711bd4141e7a93190f0db894dcb917c7577a5ff938"}, "vout": 1, "txid": "ce6228fe2487e9c518e2d08421695ca83e1f3ade2194bd70929f6b875e2a7e0a"}], "txid": "545ec64b30959f5300c9cfb794f4865e3c9569143733c651900c308818b21245", "blocktime": 1537871767, "version": 1, "confirmations": 11490, "time": 1537871767, "locktime": 0, "vsize": 336, "size": 336}