{"hash": "7da658f1d16f0cd3eadda87bcda7176e54b77387b7043bc23445ce98ae1fdee9", "blockhash": "0000000000000000000e13cef7c366c0283d82e591d1acd082e914b08063cdf1", "vout": [{"scriptPubKey": {"reqSigs": 1, "hex": "76a9145ff22c39d49c9299e9c4dfbeff8e2dec8e2b643888ac", "addresses": ["19kKJgZTjSdRKsogEqRxty1VrCR7pfACzh"], "asm": "OP_DUP OP_HASH160 5ff22c39d49c9299e9c4dfbeff8e2dec8e2b6438 OP_EQUALVERIFY OP_CHECKSIG", "type": "pubkeyhash"}, "value": 0.00932431, "n": 0}, {"scriptPubKey": {"reqSigs": 1, "hex": "a914200ae354a55be9d08a7b9659ff85d01a6b44b0e087", "addresses": ["34cSbCEiQeGwUfRUqXqQbWLEGhHy8nEYaC"], "asm": "OP_HASH160 200ae354a55be9d08a7b9659ff85d01a6b44b0e0 OP_EQUAL", "type": "scripthash"}, "value": 0.20254112, "n": 1}], "hex": "010000000001010d35e3cd066160aa78197cdfb74ba0e4a97afd45c6305c7862e4f1ac6e9277b20100000023220020a4f731a19bb976308a45f46f5b9f29ee6100ddea68ce01bb181127a75f91b6b0ffffffff024f3a0e00000000001976a9145ff22c39d49c9299e9c4dfbeff8e2dec8e2b643888aca00d35010000000017a914200ae354a55be9d08a7b9659ff85d01a6b44b0e0870400483045022100ce6e09c8259a0a92e67186256fc656f3e12cdce278c4e2eee1aed738895a15d8022009b3a7eba562bd1c723e44864d3b8b903bcf62d6600f9a4a86dd4e7aacdfdd7301483045022100beaa5f998bb1e48ba8a9025ca15e809713133aab9708d62f0a65065ad753831a0220016043056b66a00c4eee41881e77d59ba436a48463db057012736da1136553d10169522102f1ef107d74b916981ca6b1b929eec28d57cde23eb098f34d25a3887d8908929921036a9b44f71f82f94108dbf96c18086fbb621cf90d4750e8a663fb3346fe2a1dd82103f737b602f3530fc5662de1d9a5f25e8189c1c568d8ee8be227b7021affc8703d53ae00000000", "vin": [{"txinwitness": ["", "3045022100ce6e09c8259a0a92e67186256fc656f3e12cdce278c4e2eee1aed738895a15d8022009b3a7eba562bd1c723e44864d3b8b903bcf62d6600f9a4a86dd4e7aacdfdd7301", "3045022100beaa5f998bb1e48ba8a9025ca15e809713133aab9708d62f0a65065ad753831a0220016043056b66a00c4eee41881e77d59ba436a48463db057012736da1136553d101", "522102f1ef107d74b916981ca6b1b929eec28d57cde23eb098f34d25a3887d8908929921036a9b44f71f82f94108dbf96c18086fbb621cf90d4750e8a663fb3346fe2a1dd82103f737b602f3530fc5662de1d9a5f25e8189c1c568d8ee8be227b7021affc8703d53ae"], "sequence": 4294967295, "scriptSig": {"hex": "220020a4f731a19bb976308a45f46f5b9f29ee6100ddea68ce01bb181127a75f91b6b0", "asm": "0020a4f731a19bb976308a45f46f5b9f29ee6100ddea68ce01bb181127a75f91b6b0"}, "vout": 1, "txid": "b277926eacf1e462785c30c645fd7aa9e4a04bb7df7c1978aa606106cde3350d"}], "txid": "545e23ed513b8f9400311e1bd7cd1aae073e9a71cee5270ee5b6b274a38c6ed7", "blocktime": 1537871767, "version": 1, "confirmations": 11493, "time": 1537871767, "locktime": 0, "vsize": 216, "size": 408}