{"hash": "beb3b4f64c11323c871b28de02df6fa0ee573d4ea96a3f43f4744f5aaa02797a", "blockhash": "0000000000000000000e13cef7c366c0283d82e591d1acd082e914b08063cdf1", "vout": [{"scriptPubKey": {"reqSigs": 1, "hex": "76a91492f152c3282904a066a3b59c55df05286d10864a88ac", "addresses": ["1EPxkSidGHvv3h5tjoVy17inZyeKyjseUd"], "asm": "OP_DUP OP_HASH160 92f152c3282904a066a3b59c55df05286d10864a OP_EQUALVERIFY OP_CHECKSIG", "type": "pubkeyhash"}, "value": 0.00131607, "n": 0}, {"scriptPubKey": {"reqSigs": 1, "hex": "00145766796b2bb57e5b190aead96ebdb769bf950f17", "addresses": ["bc1q2an8j6etk4l9kxg2atvka0dhdxle2rchj2a8ch"], "asm": "0 5766796b2bb57e5b190aead96ebdb769bf950f17", "type": "witness_v0_keyhash"}, "value": 1.066e-05, "n": 1}], "hex": "01000000000101fecc3781a2859a84d0f8cf2e9f08d182c8c947149a1eadd195295a1c58717dda0000000000ffffffff0217020200000000001976a91492f152c3282904a066a3b59c55df05286d10864a88ac2a040000000000001600145766796b2bb57e5b190aead96ebdb769bf950f1702473044022078db07b84d6d03987875048e221314ecd6bc868161d279793c53ccf2990ea4c202200fd216e3867581f0fd01ddbf3de58b72df41dc1625a799757ae5cc26b0ccccce01210352327bd99f7c36acd9a58ebb0cbfb53767d7c37fd8618638688b98ddd905eed000000000", "vin": [{"txinwitness": ["3044022078db07b84d6d03987875048e221314ecd6bc868161d279793c53ccf2990ea4c202200fd216e3867581f0fd01ddbf3de58b72df41dc1625a799757ae5cc26b0ccccce01", "0352327bd99f7c36acd9a58ebb0cbfb53767d7c37fd8618638688b98ddd905eed0"], "sequence": 4294967295, "scriptSig": {"hex": "", "asm": ""}, "vout": 0, "txid": "da7d71581c5a2995d1ad1e9a1447c9c882d1089f2ecff8d0849a85a28137ccfe"}], "txid": "546ccb5407b019f60c5ab78ac4e6cea2a602867e070f52e086ccd8cba69acc92", "blocktime": 1537871767, "version": 1, "confirmations": 11495, "time": 1537871767, "locktime": 0, "vsize": 144, "size": 225}