{"hash": "5470b61fa953eacca71d7680a86dbbb39041dde4219a2ce171c36f6371af3548", "blockhash": "000000000000000000022b45ed06c6f4ccd3cf7fb5ba4856ebd2e58215665228", "vout": [{"scriptPubKey": {"type": "nulldata", "hex": "6a4c50000077630001749bbac1187ac65c4f552a3886aeaeacb577c031fc3a016b46dc7dc7d0963749a92fdba98ac8b9f5e7b29ec4091d5baa07d40612b3915962d87c1d100759d4ba30d2c37bb011d97e02cf", "asm": "OP_RETURN 000077630001749bbac1187ac65c4f552a3886aeaeacb577c031fc3a016b46dc7dc7d0963749a92fdba98ac8b9f5e7b29ec4091d5baa07d40612b3915962d87c1d100759d4ba30d2c37bb011d97e02cf"}, "value": 0.0, "n": 0}, {"scriptPubKey": {"reqSigs": 1, "hex": "76a914e6d212d1a1b700737f440cb2bf7c43815cf77f2c88ac", "addresses": ["1N3U5HVsXBkNaSiyNmau8cYWXDJb68viME"], "asm": "OP_DUP OP_HASH160 e6d212d1a1b700737f440cb2bf7c43815cf77f2c OP_EQUALVERIFY OP_CHECKSIG", "type": "pubkeyhash"}, "value": 0.0065182, "n": 1}], "hex": "0100000001803f7899bfeb0728b08fba3cecc52f79fb9f017f76b83a744e7264158cf66949010000006b483045022100ed7905ddf268f0c79c29dd6abdaabee2662ac68c598c6db92c42699c3ab00efd02200e22443a012f7627d603a810922528f72efbf49210584c98ca6e29f79da21ef90121028155432b666a1f4b458aaea338567605ec53f300e6a06dec8bae227c3d266745ffffffff020000000000000000536a4c50000077630001749bbac1187ac65c4f552a3886aeaeacb577c031fc3a016b46dc7dc7d0963749a92fdba98ac8b9f5e7b29ec4091d5baa07d40612b3915962d87c1d100759d4ba30d2c37bb011d97e02cf2cf20900000000001976a914e6d212d1a1b700737f440cb2bf7c43815cf77f2c88ac00000000", "vin": [{"sequence": 4294967295, "scriptSig": {"hex": "483045022100ed7905ddf268f0c79c29dd6abdaabee2662ac68c598c6db92c42699c3ab00efd02200e22443a012f7627d603a810922528f72efbf49210584c98ca6e29f79da21ef90121028155432b666a1f4b458aaea338567605ec53f300e6a06dec8bae227c3d266745", "asm": "3045022100ed7905ddf268f0c79c29dd6abdaabee2662ac68c598c6db92c42699c3ab00efd02200e22443a012f7627d603a810922528f72efbf49210584c98ca6e29f79da21ef9[ALL] 028155432b666a1f4b458aaea338567605ec53f300e6a06dec8bae227c3d266745"}, "vout": 1, "txid": "4969f68c1564724e743ab8767f019ffb792fc5ec3cba8fb02807ebbf99783f80"}], "txid": "5470b61fa953eacca71d7680a86dbbb39041dde4219a2ce171c36f6371af3548", "blocktime": 1537869901, "version": 1, "confirmations": 11523, "time": 1537869901, "locktime": 0, "vsize": 284, "size": 284}