{"hash": "5474e3feca5392b99a1f4270248abc6a0462bff1f9fc3e7b67d9da68f9ee4dba", "blockhash": "0000000000000000001cda96e906b7601b7a6fb1a3b62bca570a9e5d8f4b3de1", "vout": [{"scriptPubKey": {"reqSigs": 1, "hex": "76a914daa40b2d6c206b58306c5983499800c33d7e13e188ac", "addresses": ["1Lw4pmocH7dpRg8wkCtVHvYGpG47V11yb1"], "asm": "OP_DUP OP_HASH160 daa40b2d6c206b58306c5983499800c33d7e13e1 OP_EQUALVERIFY OP_CHECKSIG", "type": "pubkeyhash"}, "value": 0.00178789, "n": 0}, {"scriptPubKey": {"reqSigs": 1, "hex": "a9148712ad0da316b5a6a74a997b3b252b957e9cb47587", "addresses": ["3E1DX56GbatBQp5Udbbut2n1QbhF41L2SN"], "asm": "OP_HASH160 8712ad0da316b5a6a74a997b3b252b957e9cb475 OP_EQUAL", "type": "scripthash"}, "value": 0.00451687, "n": 1}], "hex": "0100000001d06addb3e74508b6e378b4542705f3373710da8250f120657142ae1b43b062ee010000006a4730440220509399bceba1e25f91fba775b2f4972c4612d8693c03f1402aae52908bc7b24102203820a650a45a917fb6fcbfd5d2f18e4a06c690410bc53c169e9da64b63f1a915012103d1466d62eab202bdee60664b17de991c05837263a479fccd8960586becd76c20feffffff0265ba0200000000001976a914daa40b2d6c206b58306c5983499800c33d7e13e188ac67e406000000000017a9148712ad0da316b5a6a74a997b3b252b957e9cb4758713490800", "vin": [{"sequence": 4294967294, "scriptSig": {"hex": "4730440220509399bceba1e25f91fba775b2f4972c4612d8693c03f1402aae52908bc7b24102203820a650a45a917fb6fcbfd5d2f18e4a06c690410bc53c169e9da64b63f1a915012103d1466d62eab202bdee60664b17de991c05837263a479fccd8960586becd76c20", "asm": "30440220509399bceba1e25f91fba775b2f4972c4612d8693c03f1402aae52908bc7b24102203820a650a45a917fb6fcbfd5d2f18e4a06c690410bc53c169e9da64b63f1a915[ALL] 03d1466d62eab202bdee60664b17de991c05837263a479fccd8960586becd76c20"}, "vout": 1, "txid": "ee62b0431bae42716520f15082da103737f3052754b478e3b60845e7b3dd6ad0"}], "txid": "5474e3feca5392b99a1f4270248abc6a0462bff1f9fc3e7b67d9da68f9ee4dba", "blocktime": 1537873282, "version": 1, "confirmations": 11484, "time": 1537873282, "locktime": 542995, "vsize": 223, "size": 223}