{"hash": "54757b8068775d8cb6fa417da2443285133e66999634ad792ba8a14f78d80827", "blockhash": "0000000000000000001f76057863aec43deb6fa401d9628bb513d65a8098bfab", "vout": [{"scriptPubKey": {"reqSigs": 1, "hex": "76a9148871d028213cc894c2b1976788ce0cde81c9134888ac", "addresses": ["1DSTExqEzJxkH17tCUAFcXwt3218qrgg37"], "asm": "OP_DUP OP_HASH160 8871d028213cc894c2b1976788ce0cde81c91348 OP_EQUALVERIFY OP_CHECKSIG", "type": "pubkeyhash"}, "value": 0.00027133, "n": 0}, {"scriptPubKey": {"reqSigs": 1, "hex": "a91418e5d12fd8e6564612fa0837387307b0da3424c587", "addresses": ["33xfT83Ww6fNjq5NE4XYWae5NsL2kZLc48"], "asm": "OP_HASH160 18e5d12fd8e6564612fa0837387307b0da3424c5 OP_EQUAL", "type": "scripthash"}, "value": 0.020183, "n": 1}], "hex": "010000000144b21c6db018ad71838d1db65af7cface438e1043acdf4d680d56264f82cb180060000006b483045022100f2bd64b114c94f4d7bd19a89d550f8294466bebe27a12feff36732d487458603022064e65584667878db732d4e77aedef6b12a55142b99e45c1db03d5d7865f8e945012103116bf3bc9287070463353fd60b8327da3c33f7fb29f9a86ebf1f71dd367e1f71ffffffff02fd690000000000001976a9148871d028213cc894c2b1976788ce0cde81c9134888acfccb1e000000000017a91418e5d12fd8e6564612fa0837387307b0da3424c58700000000", "vin": [{"sequence": 4294967295, "scriptSig": {"hex": "483045022100f2bd64b114c94f4d7bd19a89d550f8294466bebe27a12feff36732d487458603022064e65584667878db732d4e77aedef6b12a55142b99e45c1db03d5d7865f8e945012103116bf3bc9287070463353fd60b8327da3c33f7fb29f9a86ebf1f71dd367e1f71", "asm": "3045022100f2bd64b114c94f4d7bd19a89d550f8294466bebe27a12feff36732d487458603022064e65584667878db732d4e77aedef6b12a55142b99e45c1db03d5d7865f8e945[ALL] 03116bf3bc9287070463353fd60b8327da3c33f7fb29f9a86ebf1f71dd367e1f71"}, "vout": 6, "txid": "80b12cf86462d580d6f4cd3a04e138e4accff75ab61d8d8371ad18b06d1cb244"}], "txid": "54757b8068775d8cb6fa417da2443285133e66999634ad792ba8a14f78d80827", "blocktime": 1537873891, "version": 1, "confirmations": 11478, "time": 1537873891, "locktime": 0, "vsize": 224, "size": 224}