{"hash": "3f3a15ed3690b024ccc0c3f5123e980970f316cd3682c3b30ef4e086f8e3f39c", "blockhash": "00000000000000000017f5eb5941039fbcee6240d03bc1f2f8e35350df66a1d8", "vout": [{"scriptPubKey": {"reqSigs": 1, "hex": "a914e5b4efaebbb1ac333549b76bde920a2ed7f5c99987", "addresses": ["3NdbR9LtHcrdjwSRNKiKeuFVrVzS5EVJLa"], "asm": "OP_HASH160 e5b4efaebbb1ac333549b76bde920a2ed7f5c999 OP_EQUAL", "type": "scripthash"}, "value": 1.468865, "n": 0}, {"scriptPubKey": {"reqSigs": 1, "hex": "a91472907ee49d36d0179e80549433ea7e7f9428953087", "addresses": ["3C8n49Y6F6uszroknXZdeR1fxaaXZPcvnH"], "asm": "OP_HASH160 72907ee49d36d0179e80549433ea7e7f94289530 OP_EQUAL", "type": "scripthash"}, "value": 0.01006922, "n": 1}], "hex": "02000000000104022c539aa02c3a54bd01333eb983d23425ff2fc30b00bf385f5c618d99d85db5010000001716001455330fc87fdbd141b38932bcd23348e0b21210f3feffffff0dbb6abd8e8b7f324c5340ae9cba0d41b5b8288c49c82db2a13f5cfe99c2bffb000000001716001407d82596f851ac9115f75765d36765afac3d9305feffffff1b21c32abe21e52854717991d805cba6b7c115f52c6cdbf99b614adef14babca00000000171600143b56774af0e5d693dc80d399d97cd90d3cdba45ffeffffff41e783f4a277f4d195fffd4ee5df96c2a212a7a192c51ddfbdfd3703b2d202c101000000171600142427f8fc51d6e8d8f42ae7f8886456677d2f26c0feffffff02644fc1080000000017a914e5b4efaebbb1ac333549b76bde920a2ed7f5c999874a5d0f000000000017a91472907ee49d36d0179e80549433ea7e7f942895308702483045022100a0011754864a73b9c967d1403332d06a159ad6ba85f280e78a441119e65876fe02203fb1e92897ddd974a085752398c1a76ac65293b01103cd24d66ced900d188f09012102903a75e446387324dda00d64313bd2ae6c1c778b419ef6c60e53c796093ba66e024830450221008a7918a458cd863a95d312236b1cf98b7ff273bb02f88f7aa2e8f0201ff9b57d022001fcfe6bd3abcaaf6d5bdac9a79ee8f0e289a5262715ed4602ec295ad26eadfe01210388f6c02bb23c3cecd9fc4314ce8c099fa5a331bc56600d1185bf39aed639e1aa02473044022062e8b3ec6df621a82204540a7457fef3c44809bef662a397024f9a3036e4dd57022025e40ad34278da35458838093519d834889eb403b81e0b281a621026586702ca01210266ac26fdf06a44e0e73cf8eeed969ee3748cfa6d3ca0b86b277481fc3269fa6702483045022100bd07cfd5ab9897b2ed12d14e4585d1f93d1c969bb58142057170b42579ee7c2202205947ff30635178b4d29747589a41050fb556b953b7f6d32bfc0b57e5e1be77d0012102e03db48bef61118e4a222afe31b3b240172e5e9f22e48dab5f1b8aaff21d71cb15490800", "vin": [{"txinwitness": ["3045022100a0011754864a73b9c967d1403332d06a159ad6ba85f280e78a441119e65876fe02203fb1e92897ddd974a085752398c1a76ac65293b01103cd24d66ced900d188f0901", "02903a75e446387324dda00d64313bd2ae6c1c778b419ef6c60e53c796093ba66e"], "sequence": 4294967294, "scriptSig": {"hex": "16001455330fc87fdbd141b38932bcd23348e0b21210f3", "asm": "001455330fc87fdbd141b38932bcd23348e0b21210f3"}, "vout": 1, "txid": "b55dd8998d615c5f38bf000bc32fff2534d283b93e3301bd543a2ca09a532c02"}, {"txinwitness": ["30450221008a7918a458cd863a95d312236b1cf98b7ff273bb02f88f7aa2e8f0201ff9b57d022001fcfe6bd3abcaaf6d5bdac9a79ee8f0e289a5262715ed4602ec295ad26eadfe01", "0388f6c02bb23c3cecd9fc4314ce8c099fa5a331bc56600d1185bf39aed639e1aa"], "sequence": 4294967294, "scriptSig": {"hex": "16001407d82596f851ac9115f75765d36765afac3d9305", "asm": "001407d82596f851ac9115f75765d36765afac3d9305"}, "vout": 0, "txid": "fbbfc299fe5c3fa1b22dc8498c28b8b5410dba9cae40534c327f8b8ebd6abb0d"}, {"txinwitness": ["3044022062e8b3ec6df621a82204540a7457fef3c44809bef662a397024f9a3036e4dd57022025e40ad34278da35458838093519d834889eb403b81e0b281a621026586702ca01", "0266ac26fdf06a44e0e73cf8eeed969ee3748cfa6d3ca0b86b277481fc3269fa67"], "sequence": 4294967294, "scriptSig": {"hex": "1600143b56774af0e5d693dc80d399d97cd90d3cdba45f", "asm": "00143b56774af0e5d693dc80d399d97cd90d3cdba45f"}, "vout": 0, "txid": "caab4bf1de4a619bf9db6c2cf515c1b7a6cb05d89179715428e521be2ac3211b"}, {"txinwitness": ["3045022100bd07cfd5ab9897b2ed12d14e4585d1f93d1c969bb58142057170b42579ee7c2202205947ff30635178b4d29747589a41050fb556b953b7f6d32bfc0b57e5e1be77d001", "02e03db48bef61118e4a222afe31b3b240172e5e9f22e48dab5f1b8aaff21d71cb"], "sequence": 4294967294, "scriptSig": {"hex": "1600142427f8fc51d6e8d8f42ae7f8886456677d2f26c0", "asm": "00142427f8fc51d6e8d8f42ae7f8886456677d2f26c0"}, "vout": 1, "txid": "c102d2b20337fdbddf1dc592a1a712a2c296dfe54efdff95d1f477a2f483e741"}], "txid": "54798c36ab439b9356b52ae930c9749678431c0827115ec77ac57580c8faff25", "blocktime": 1537874412, "version": 2, "confirmations": 11466, "time": 1537874412, "locktime": 542997, "vsize": 439, "size": 763}