{"hash": "547fb562188fce4cdda45003795454666f1bdad5f6d5128d3a14417b61b588d5", "blockhash": "00000000000000000004ffacab907a6b429b9a5745fa0b75af4234bf69dd7176", "vout": [{"scriptPubKey": {"reqSigs": 1, "hex": "76a914e67734a139fb20da449bff1dbff2df3535a6eec688ac", "addresses": ["1N1bDfsjWmtFw2rYpKWqEZ4ktbxYzRsuGW"], "asm": "OP_DUP OP_HASH160 e67734a139fb20da449bff1dbff2df3535a6eec6 OP_EQUALVERIFY OP_CHECKSIG", "type": "pubkeyhash"}, "value": 0.01, "n": 0}, {"scriptPubKey": {"reqSigs": 1, "hex": "76a9146023992cd16b71951c179abe3c079f75e57bed0b88ac", "addresses": ["19mLWqF27vefHXZY7YWjfFzSmdmA9XZhU9"], "asm": "OP_DUP OP_HASH160 6023992cd16b71951c179abe3c079f75e57bed0b OP_EQUALVERIFY OP_CHECKSIG", "type": "pubkeyhash"}, "value": 1.57414162, "n": 1}], "hex": "01000000027e341e3187b8073374be3412844864793b6f2cacf17d777c31337bb772429070000000006b483045022100fb3281594c481fa21ed7b132dcc1cbc7c54f8b1f3d3015e54188b913a1c8793c02200b1e6364b6aa3f965c5b69b1b01bbc74a36183b1a41f39bffa6b67ecac4abb87012102faab64335d5c5217362f0784d7ed052c97d2e95dd9fe506c03f9011425f07e19ffffffff7e02a37421bfe0a8f7469b25731005fca460b54e0524f235030e79ce856791e9010000006b483045022100f4912143a61b0bd786c8af434db73283997267a37cce5dc30ca8f679be57106702207928d3fd3df3c59763c361114310a62917aaefb260170ae5a4993b08c815eb03012103337174fec6fa63ad9694b78d6b2e5970afc29ed3a2e04f9b7ca92e7149875d38ffffffff0240420f00000000001976a914e67734a139fb20da449bff1dbff2df3535a6eec688ac12f36109000000001976a9146023992cd16b71951c179abe3c079f75e57bed0b88ac00000000", "vin": [{"sequence": 4294967295, "scriptSig": {"hex": "483045022100fb3281594c481fa21ed7b132dcc1cbc7c54f8b1f3d3015e54188b913a1c8793c02200b1e6364b6aa3f965c5b69b1b01bbc74a36183b1a41f39bffa6b67ecac4abb87012102faab64335d5c5217362f0784d7ed052c97d2e95dd9fe506c03f9011425f07e19", "asm": "3045022100fb3281594c481fa21ed7b132dcc1cbc7c54f8b1f3d3015e54188b913a1c8793c02200b1e6364b6aa3f965c5b69b1b01bbc74a36183b1a41f39bffa6b67ecac4abb87[ALL] 02faab64335d5c5217362f0784d7ed052c97d2e95dd9fe506c03f9011425f07e19"}, "vout": 0, "txid": "70904272b77b33317c777df1ac2c6f3b796448841234be743307b887311e347e"}, {"sequence": 4294967295, "scriptSig": {"hex": "483045022100f4912143a61b0bd786c8af434db73283997267a37cce5dc30ca8f679be57106702207928d3fd3df3c59763c361114310a62917aaefb260170ae5a4993b08c815eb03012103337174fec6fa63ad9694b78d6b2e5970afc29ed3a2e04f9b7ca92e7149875d38", "asm": "3045022100f4912143a61b0bd786c8af434db73283997267a37cce5dc30ca8f679be57106702207928d3fd3df3c59763c361114310a62917aaefb260170ae5a4993b08c815eb03[ALL] 03337174fec6fa63ad9694b78d6b2e5970afc29ed3a2e04f9b7ca92e7149875d38"}, "vout": 1, "txid": "e9916785ce790e0335f224054eb560a4fc051073259b46f7a8e0bf2174a3027e"}], "txid": "547fb562188fce4cdda45003795454666f1bdad5f6d5128d3a14417b61b588d5", "blocktime": 1537875543, "version": 1, "confirmations": 11464, "time": 1537875543, "locktime": 0, "vsize": 374, "size": 374}