{"hash": "05e77f5d573f9601202464ba0272325b20186110206a165f3aa8e1700df45b5f", "blockhash": "0000000000000000000baef3f32e3676a92c3b2e5da21b426e4f302fc371ce76", "vout": [{"scriptPubKey": {"reqSigs": 1, "hex": "76a914111518f5886aff5c0c26e606e92ce23ad49371c788ac", "addresses": ["12ZKm9AuPmnStrShmpiTBX2W7UUrMokDDR"], "asm": "OP_DUP OP_HASH160 111518f5886aff5c0c26e606e92ce23ad49371c7 OP_EQUALVERIFY OP_CHECKSIG", "type": "pubkeyhash"}, "value": 0.6659, "n": 0}, {"scriptPubKey": {"reqSigs": 1, "hex": "76a914a108fe67b26065602e79632270f52cd88333410788ac", "addresses": ["1FgUZnQGJQvujjndpMhFqHdfXRjWEPSmuD"], "asm": "OP_DUP OP_HASH160 a108fe67b26065602e79632270f52cd883334107 OP_EQUALVERIFY OP_CHECKSIG", "type": "pubkeyhash"}, "value": 0.007821, "n": 1}, {"scriptPubKey": {"reqSigs": 1, "hex": "76a914fee5a47c24d909d6326acd33f380085df77fb6c788ac", "addresses": ["1QEmjZt2HzzMpkNuiGEziEZz6kXAem2SkH"], "asm": "OP_DUP OP_HASH160 fee5a47c24d909d6326acd33f380085df77fb6c7 OP_EQUALVERIFY OP_CHECKSIG", "type": "pubkeyhash"}, "value": 0.003, "n": 2}, {"scriptPubKey": {"reqSigs": 1, "hex": "a914fed567d02a2062741f25c6f39b7cdd20437a359787", "addresses": ["3QvTCwiR9cgsVSqiEoeKZaecKsVXisMYH4"], "asm": "OP_HASH160 fed567d02a2062741f25c6f39b7cdd20437a3597 OP_EQUAL", "type": "scripthash"}, "value": 8.63319553, "n": 3}], "hex": "02000000000101bad4870b00616c5791b547aa25c6a7ec789e06250118bd7ad7cd774409b0d2cd05000000171600147b0be42cfaed6955fce90fb88458a26f51bca5dcfdffffff043015f803000000001976a914111518f5886aff5c0c26e606e92ce23ad49371c788ac14ef0b00000000001976a914a108fe67b26065602e79632270f52cd88333410788ace0930400000000001976a914fee5a47c24d909d6326acd33f380085df77fb6c788ac013675330000000017a914fed567d02a2062741f25c6f39b7cdd20437a35978702483045022100912213e9b113ef9292b6c5aa3f0b49ffd0c9ac8de54e6ee49e72348c72acb40e02202a381937a8fa49587902396df3f91618b400542c15277aa9cb92dc38c800d354012103cdefe4fcf5f19be566fbeac75793dde74074d90fbdd7cfef58ba6b260980f66216490800", "vin": [{"txinwitness": ["3045022100912213e9b113ef9292b6c5aa3f0b49ffd0c9ac8de54e6ee49e72348c72acb40e02202a381937a8fa49587902396df3f91618b400542c15277aa9cb92dc38c800d35401", "03cdefe4fcf5f19be566fbeac75793dde74074d90fbdd7cfef58ba6b260980f662"], "sequence": 4294967293, "scriptSig": {"hex": "1600147b0be42cfaed6955fce90fb88458a26f51bca5dc", "asm": "00147b0be42cfaed6955fce90fb88458a26f51bca5dc"}, "vout": 5, "txid": "cdd2b0094477cdd77abd180125069e78eca7c625aa47b591576c61000b87d4ba"}], "txid": "5480591b53f7963aa710d72200c196fd57b9345edb0e492882c5e24561533bab", "blocktime": 1537876114, "version": 2, "confirmations": 11462, "time": 1537876114, "locktime": 542998, "vsize": 236, "size": 318}