{"hash": "5484c0a82f8c8360ded17cdbe2e87c79052a76328c2d9ad89344688741c09256", "blockhash": "000000000000000000205f8b0775d31398ef75b89a5e8ec8d2c57b4dc0ac4c20", "vout": [{"scriptPubKey": {"reqSigs": 1, "hex": "a9142b9b36b059e6587927ab4516f6c4d9a20d4f645087", "addresses": ["35favDyE79SuMmCXvrMDZ8SJa2r7biX6jd"], "asm": "OP_HASH160 2b9b36b059e6587927ab4516f6c4d9a20d4f6450 OP_EQUAL", "type": "scripthash"}, "value": 0.0414, "n": 0}, {"scriptPubKey": {"reqSigs": 1, "hex": "76a9142e701e894c9c973fdffd71a7f661c377d46a1d6a88ac", "addresses": ["15EYQ1VfLo8rRTAe8SzRMJct5KrHFo67zW"], "asm": "OP_DUP OP_HASH160 2e701e894c9c973fdffd71a7f661c377d46a1d6a OP_EQUALVERIFY OP_CHECKSIG", "type": "pubkeyhash"}, "value": 0.09789939, "n": 1}], "hex": "0100000001d7b78a8e7ac0e46b87cf7bda38d26a771c5d0c9748c388793ea43c40f0e4dd86010000006b483045022100a16ea5776f262e83bc545f9977d44a6af179bb58699ab6b268ce9504fd5cb4b102206251adb3f09fc9939d81bfb334060217dca04bcb321cf3c8477c80d6ae2ae0e40121027f917037eff805d6e283efcaf656c0cd5d74659e3dd9eaa338f451884b258beeffffffff02e02b3f000000000017a9142b9b36b059e6587927ab4516f6c4d9a20d4f645087f3619500000000001976a9142e701e894c9c973fdffd71a7f661c377d46a1d6a88ac00000000", "vin": [{"sequence": 4294967295, "scriptSig": {"hex": "483045022100a16ea5776f262e83bc545f9977d44a6af179bb58699ab6b268ce9504fd5cb4b102206251adb3f09fc9939d81bfb334060217dca04bcb321cf3c8477c80d6ae2ae0e40121027f917037eff805d6e283efcaf656c0cd5d74659e3dd9eaa338f451884b258bee", "asm": "3045022100a16ea5776f262e83bc545f9977d44a6af179bb58699ab6b268ce9504fd5cb4b102206251adb3f09fc9939d81bfb334060217dca04bcb321cf3c8477c80d6ae2ae0e4[ALL] 027f917037eff805d6e283efcaf656c0cd5d74659e3dd9eaa338f451884b258bee"}, "vout": 1, "txid": "86dde4f0403ca43e7988c348970c5d1c776ad238da7bcf876be4c07a8e8ab7d7"}], "txid": "5484c0a82f8c8360ded17cdbe2e87c79052a76328c2d9ad89344688741c09256", "blocktime": 1537871175, "version": 1, "confirmations": 11511, "time": 1537871175, "locktime": 0, "vsize": 224, "size": 224}