{"hash": "9c7b693bb832c8ce8283f0cec8c02008ac82d0882d5fc87d8ce24eb113bd5d6e", "blockhash": "00000000000000000017f5eb5941039fbcee6240d03bc1f2f8e35350df66a1d8", "vout": [{"scriptPubKey": {"reqSigs": 1, "hex": "001433206f5edc646e0f9ba2116b551bb3b0e16ce090", "addresses": ["bc1qxvsx7hkuv3hqlxazz9442xankrskecysl9uss0"], "asm": "0 33206f5edc646e0f9ba2116b551bb3b0e16ce090", "type": "witness_v0_keyhash"}, "value": 0.01397443, "n": 0}], "hex": "0200000000010132f1270d5bdeffefe68fe71ff12a922774f45b157bda4b7c004b9ce07602557000000000000000000001c35215000000000016001433206f5edc646e0f9ba2116b551bb3b0e16ce09002473044022040fd8afad98181cb2b8aa54dc28416d15ded2ea1a5dda5054da595494d3b9c1702203a7d3200f833142cd99f88d8084ca3d0d8aa511d840e893911fd00323125e0e001210270701a5aee8e85b67fa0dbd83b77150bf74a29bb9f36a1e3eb7b85184611d83400000000", "vin": [{"txinwitness": ["3044022040fd8afad98181cb2b8aa54dc28416d15ded2ea1a5dda5054da595494d3b9c1702203a7d3200f833142cd99f88d8084ca3d0d8aa511d840e893911fd00323125e0e001", "0270701a5aee8e85b67fa0dbd83b77150bf74a29bb9f36a1e3eb7b85184611d834"], "sequence": 0, "scriptSig": {"hex": "", "asm": ""}, "vout": 0, "txid": "70550276e09c4b007c4bda7b155bf47427922af11fe78fe6efffde5b0d27f132"}], "txid": "548874507e79a406cbeeb9baf4679b9a4ea94e8a072c4ef934e47cbcc5e37800", "blocktime": 1537874412, "version": 2, "confirmations": 11468, "time": 1537874412, "locktime": 0, "vsize": 110, "size": 191}