{"hash": "e33f1e2cde035db1860da3e515a1283552b70c572df47e5f31ed8513773a1af0", "blockhash": "0000000000000000000baef3f32e3676a92c3b2e5da21b426e4f302fc371ce76", "vout": [{"scriptPubKey": {"reqSigs": 1, "hex": "a91430897cc6c9d69f6a2c2f1c651d51f22219f1a4f687", "addresses": ["367f4YWz1VCFaqBqwbTrzwi2b1h2U3w1AF"], "asm": "OP_HASH160 30897cc6c9d69f6a2c2f1c651d51f22219f1a4f6 OP_EQUAL", "type": "scripthash"}, "value": 19.32626907, "n": 0}, {"scriptPubKey": {"reqSigs": 1, "hex": "a91469f3761033c9c883e28562214d6155a28046772487", "addresses": ["3BMEXfZQ4esyusnmsiXVnSDjnW38YxWseX"], "asm": "OP_HASH160 69f3761033c9c883e28562214d6155a280467724 OP_EQUAL", "type": "scripthash"}, "value": 0.07499985, "n": 1}], "hex": "01000000000101dea42cdaa8d95f475082451b2334e6d778502119481be6b35c7604913b5d81d50000000023220020bcf9f822194145acea0f3235f4107b5bf1a91b6b9f8489f63bf79ec29b360913ffffffff02db8b31730000000017a91430897cc6c9d69f6a2c2f1c651d51f22219f1a4f687d17072000000000017a91469f3761033c9c883e28562214d6155a280467724870400483045022100944de07cb684c1a09f5bd81b291aebd9b9fb4718c8fab92a7c9f4ddf8d89c2530220373b97a8b924ebd19b2f5fd92b60c6ce3cb53f5966be501a60a589a013d9628601473044022002129fbf0659e03a669229e9bdc04f1196bd28cdbad8d7119e9be27fc1fb1e1302200b8a3506f2d5156f663a30d21cc2032ca3f138a0921d8aec10466e3a2355e38d01695221026c8f72b9e63db63907115e65d4da86eaae595b22fdc85ec75301bb4adbf203582103806535be3e3920e5eedee92de5714188fd6a784f2bf7b04f87de0b9c3ae1ecdb21024b23bfdce2afcae7e28c42f7f79aa100f22931712c52d7414a526ba494d44a2553ae00000000", "vin": [{"txinwitness": ["", "3045022100944de07cb684c1a09f5bd81b291aebd9b9fb4718c8fab92a7c9f4ddf8d89c2530220373b97a8b924ebd19b2f5fd92b60c6ce3cb53f5966be501a60a589a013d9628601", "3044022002129fbf0659e03a669229e9bdc04f1196bd28cdbad8d7119e9be27fc1fb1e1302200b8a3506f2d5156f663a30d21cc2032ca3f138a0921d8aec10466e3a2355e38d01", "5221026c8f72b9e63db63907115e65d4da86eaae595b22fdc85ec75301bb4adbf203582103806535be3e3920e5eedee92de5714188fd6a784f2bf7b04f87de0b9c3ae1ecdb21024b23bfdce2afcae7e28c42f7f79aa100f22931712c52d7414a526ba494d44a2553ae"], "sequence": 4294967295, "scriptSig": {"hex": "220020bcf9f822194145acea0f3235f4107b5bf1a91b6b9f8489f63bf79ec29b360913", "asm": "0020bcf9f822194145acea0f3235f4107b5bf1a91b6b9f8489f63bf79ec29b360913"}, "vout": 0, "txid": "d5815d3b9104765cb3e61b4819215078d7e634231b458250475fd9a8da2ca4de"}], "txid": "548f49f7f43a969f944c5318e60c67f2467f35a014646c81ef9edc9f8de3af8c", "blocktime": 1537876114, "version": 1, "confirmations": 11460, "time": 1537876114, "locktime": 0, "vsize": 214, "size": 405}