{"hash": "5491053e1dfef6f197eb65a3c82d418bb944de0eca83d146df669a98e4722bd1", "blockhash": "0000000000000000001f0ddff1eddb255c1121bcd4da4f1bc9a0da00cae72433", "vout": [{"scriptPubKey": {"reqSigs": 1, "hex": "a914ef4c500cbb32573705b19f020e0429358cf6c4d587", "addresses": ["3PWJqgz1V1keYB13SvktsDsyXHBV8EZehQ"], "asm": "OP_HASH160 ef4c500cbb32573705b19f020e0429358cf6c4d5 OP_EQUAL", "type": "scripthash"}, "value": 0.00166383, "n": 0}], "hex": "01000000012d86202d2171b6b3fcfa71421322b08eddb5a69908bed1ce5ecaa4330e2a3028020000006b483045022100ec0498b5d829eab88cdea13d67dd46d16e40b9cd82502dea164444806bc2bdbc02201cb208b0bfaffb68700b53b8a343244dd4708393052ec15b7c03d52d12a0fc29012103417839bc0cfa83c017679337747fbda942e298aac22885c11132bcdf24386194ffffffff01ef8902000000000017a914ef4c500cbb32573705b19f020e0429358cf6c4d58700000000", "vin": [{"sequence": 4294967295, "scriptSig": {"hex": "483045022100ec0498b5d829eab88cdea13d67dd46d16e40b9cd82502dea164444806bc2bdbc02201cb208b0bfaffb68700b53b8a343244dd4708393052ec15b7c03d52d12a0fc29012103417839bc0cfa83c017679337747fbda942e298aac22885c11132bcdf24386194", "asm": "3045022100ec0498b5d829eab88cdea13d67dd46d16e40b9cd82502dea164444806bc2bdbc02201cb208b0bfaffb68700b53b8a343244dd4708393052ec15b7c03d52d12a0fc29[ALL] 03417839bc0cfa83c017679337747fbda942e298aac22885c11132bcdf24386194"}, "vout": 2, "txid": "28302a0e33a4ca5eced1be0899a6b5dd8eb022134271fafcb3b671212d20862d"}], "txid": "5491053e1dfef6f197eb65a3c82d418bb944de0eca83d146df669a98e4722bd1", "blocktime": 1537872018, "version": 1, "confirmations": 11489, "time": 1537872018, "locktime": 0, "vsize": 190, "size": 190}