{"hash": "5492377a9b4dda9a547dd4c6cde23bbfb762a905c431a9ff8414fc2ae55ed87d", "blockhash": "00000000000000000017f5eb5941039fbcee6240d03bc1f2f8e35350df66a1d8", "vout": [{"scriptPubKey": {"type": "nulldata", "hex": "6a4c50000077f800016fdf60cfe1aed5a74fc8f433d19ed074892d00f8e87af8e8e963c7cfd5b9979d7f90799e901e330ae05f3d60b6755baa18d70613e4f2c29aa45f1d100759d4ba30d2c37bb011d97e02cf", "asm": "OP_RETURN 000077f800016fdf60cfe1aed5a74fc8f433d19ed074892d00f8e87af8e8e963c7cfd5b9979d7f90799e901e330ae05f3d60b6755baa18d70613e4f2c29aa45f1d100759d4ba30d2c37bb011d97e02cf"}, "value": 0.0, "n": 0}, {"scriptPubKey": {"reqSigs": 1, "hex": "76a914997f0e8e0d397bf3df85db599b97d3c0c975707c88ac", "addresses": ["1EzcbR5Rei2rwiksSQqLMVu2EjbFBtHaPg"], "asm": "OP_DUP OP_HASH160 997f0e8e0d397bf3df85db599b97d3c0c975707c OP_EQUALVERIFY OP_CHECKSIG", "type": "pubkeyhash"}, "value": 0.00632756, "n": 1}], "hex": "01000000010db0e0aa2d3b5920497f926795a5f771cc47360f78bd318e36e44df3ec41b4d7000000006b483045022100af00b4fd3d520ea83b922994b7b4aa085909c8040398a57b060f22f2eb5b5ad2022039d686657a1507a78d02e79be546981e265c17d18f26a6eb1ebeec8d1be95223012102b6173b28934026352b5ac4c2c0a9aedf4acc84a17a10842ef79a89d659bd777affffffff020000000000000000536a4c50000077f800016fdf60cfe1aed5a74fc8f433d19ed074892d00f8e87af8e8e963c7cfd5b9979d7f90799e901e330ae05f3d60b6755baa18d70613e4f2c29aa45f1d100759d4ba30d2c37bb011d97e02cfb4a70900000000001976a914997f0e8e0d397bf3df85db599b97d3c0c975707c88ac00000000", "vin": [{"sequence": 4294967295, "scriptSig": {"hex": "483045022100af00b4fd3d520ea83b922994b7b4aa085909c8040398a57b060f22f2eb5b5ad2022039d686657a1507a78d02e79be546981e265c17d18f26a6eb1ebeec8d1be95223012102b6173b28934026352b5ac4c2c0a9aedf4acc84a17a10842ef79a89d659bd777a", "asm": "3045022100af00b4fd3d520ea83b922994b7b4aa085909c8040398a57b060f22f2eb5b5ad2022039d686657a1507a78d02e79be546981e265c17d18f26a6eb1ebeec8d1be95223[ALL] 02b6173b28934026352b5ac4c2c0a9aedf4acc84a17a10842ef79a89d659bd777a"}, "vout": 0, "txid": "d7b441ecf34de4368e31bd780f3647cc71f7a59567927f4920593b2daae0b00d"}], "txid": "5492377a9b4dda9a547dd4c6cde23bbfb762a905c431a9ff8414fc2ae55ed87d", "blocktime": 1537874412, "version": 1, "confirmations": 11467, "time": 1537874412, "locktime": 0, "vsize": 284, "size": 284}