{"hash": "aabcc44a61c885810f25eb131a7a7ffb043655abfbd677ca0ad77ccaffac1e7f", "blockhash": "0000000000000000000baef3f32e3676a92c3b2e5da21b426e4f302fc371ce76", "vout": [{"scriptPubKey": {"reqSigs": 1, "hex": "a9141988a27e3c2df4ddee7fad5a2303d086179b2a3087", "addresses": ["3422VtS7UtCvXYxoXMVp6eZupR252z85oC"], "asm": "OP_HASH160 1988a27e3c2df4ddee7fad5a2303d086179b2a30 OP_EQUAL", "type": "scripthash"}, "value": 0.65485857, "n": 0}, {"scriptPubKey": {"reqSigs": 1, "hex": "a914daa338ad36d18836522da71854f9655d9b975ced87", "addresses": ["3Md4mBdCcN8SNfcdgmoPvrCS97Bze1s8HF"], "asm": "OP_HASH160 daa338ad36d18836522da71854f9655d9b975ced OP_EQUAL", "type": "scripthash"}, "value": 0.00829114, "n": 1}, {"scriptPubKey": {"reqSigs": 1, "hex": "76a91420ed29993d1ea940f3c07e1885b2251c11541af788ac", "addresses": ["1416jUhZdzjX4Bp8NCyEcsB77wKdQVx4AR"], "asm": "OP_DUP OP_HASH160 20ed29993d1ea940f3c07e1885b2251c11541af7 OP_EQUALVERIFY OP_CHECKSIG", "type": "pubkeyhash"}, "value": 0.00313929, "n": 2}], "hex": "01000000000101a36d76d446c447285834d915ea15525d763bd37ce8d487dabe8f842810a25be6000000002322002065d416c48a8072e0ac51c2d111eb194f009caef0332446c1bf2097316cf07fa9ffffffff03213ce7030000000017a9141988a27e3c2df4ddee7fad5a2303d086179b2a3087baa60c000000000017a914daa338ad36d18836522da71854f9655d9b975ced8749ca0400000000001976a91420ed29993d1ea940f3c07e1885b2251c11541af788ac040047304402203cab8e7dd930be8f0ad6fabfd8b7c23ad755b820270e0c185535460bb76aa477022050b7d74656623701938dbb13a513d63883d2181529203b28756e0aff06440a4e01473044022032f7506653c28328e3e94584bedc005f40e2e744cb7f9f898cf3e14cbb4ffd12022020973dd927017560ff665303692ae6dfa8f7655e14685b820b04abdb326aef4d0169522102f44abcf9e23c9a460da309ccca56c619c04eed3bde2c2cff5e7d78fbcd980b9c2103c9443cf3047bb6c2c82f1b0c44c36109cdc3d0d601d16d1189a1602bf8d1a0a02103bfe867059274412412e088af5572b92168c2ef495cfe6c9b7a753a009eb37c4853ae00000000", "vin": [{"txinwitness": ["", "304402203cab8e7dd930be8f0ad6fabfd8b7c23ad755b820270e0c185535460bb76aa477022050b7d74656623701938dbb13a513d63883d2181529203b28756e0aff06440a4e01", "3044022032f7506653c28328e3e94584bedc005f40e2e744cb7f9f898cf3e14cbb4ffd12022020973dd927017560ff665303692ae6dfa8f7655e14685b820b04abdb326aef4d01", "522102f44abcf9e23c9a460da309ccca56c619c04eed3bde2c2cff5e7d78fbcd980b9c2103c9443cf3047bb6c2c82f1b0c44c36109cdc3d0d601d16d1189a1602bf8d1a0a02103bfe867059274412412e088af5572b92168c2ef495cfe6c9b7a753a009eb37c4853ae"], "sequence": 4294967295, "scriptSig": {"hex": "22002065d416c48a8072e0ac51c2d111eb194f009caef0332446c1bf2097316cf07fa9", "asm": "002065d416c48a8072e0ac51c2d111eb194f009caef0332446c1bf2097316cf07fa9"}, "vout": 0, "txid": "e65ba21028848fbeda87d4e87cd33b765d5215ea15d934582847c446d4766da3"}], "txid": "54960da0cd9601634416465bb9bd11830d2582379fb075202b0cd598125215de", "blocktime": 1537876114, "version": 1, "confirmations": 11460, "time": 1537876114, "locktime": 0, "vsize": 248, "size": 438}