{"hash": "549dde1785abfa046611658eaf7121c17a77666cfadbf6376f5f798abc7daa78", "blockhash": "0000000000000000001cda96e906b7601b7a6fb1a3b62bca570a9e5d8f4b3de1", "vout": [{"scriptPubKey": {"reqSigs": 1, "hex": "76a914561d0591ff75e52944a2a793551828db96edafca88ac", "addresses": ["18rKsxwrdHxrfPjzAqNuxYr37wNNrxgrqy"], "asm": "OP_DUP OP_HASH160 561d0591ff75e52944a2a793551828db96edafca OP_EQUALVERIFY OP_CHECKSIG", "type": "pubkeyhash"}, "value": 0.49396197, "n": 0}, {"scriptPubKey": {"type": "nulldata", "hex": "6a146f6d6e690000000000000038000000000000a7f9", "asm": "OP_RETURN 6f6d6e690000000000000038000000000000a7f9"}, "value": 0.0, "n": 1}, {"scriptPubKey": {"reqSigs": 1, "hex": "76a914f57f587677d321381bcb650b48ef58078ef140ef88ac", "addresses": ["1PP5788Vrdpxng8iFd9bPgzTuKVFydjcb5"], "asm": "OP_DUP OP_HASH160 f57f587677d321381bcb650b48ef58078ef140ef OP_EQUALVERIFY OP_CHECKSIG", "type": "pubkeyhash"}, "value": 5.46e-06, "n": 2}], "hex": "01000000013cd2503c203647bb768689e9a98c27e8322a78dc3822b36078f4b5c9d999a773010000006b483045022100b3b8199b0cc175b9323ea05a54200870c1969e3e4c2d5971186641644f5b357f0220295b0e1b1a3f40ee70507edc1a34a31d3b4af46fea0b4fd824d092feb2dc72db012103e4e63979270921650f85910d4831da23f8ba6a3e61988a1886d263f30208f696feffffff03e5b9f102000000001976a914561d0591ff75e52944a2a793551828db96edafca88ac0000000000000000166a146f6d6e690000000000000038000000000000a7f922020000000000001976a914f57f587677d321381bcb650b48ef58078ef140ef88ac13490800", "vin": [{"sequence": 4294967294, "scriptSig": {"hex": "483045022100b3b8199b0cc175b9323ea05a54200870c1969e3e4c2d5971186641644f5b357f0220295b0e1b1a3f40ee70507edc1a34a31d3b4af46fea0b4fd824d092feb2dc72db012103e4e63979270921650f85910d4831da23f8ba6a3e61988a1886d263f30208f696", "asm": "3045022100b3b8199b0cc175b9323ea05a54200870c1969e3e4c2d5971186641644f5b357f0220295b0e1b1a3f40ee70507edc1a34a31d3b4af46fea0b4fd824d092feb2dc72db[ALL] 03e4e63979270921650f85910d4831da23f8ba6a3e61988a1886d263f30208f696"}, "vout": 1, "txid": "73a799d9c9b5f47860b32238dc782a32e8278ca9e9898676bb4736203c50d23c"}], "txid": "549dde1785abfa046611658eaf7121c17a77666cfadbf6376f5f798abc7daa78", "blocktime": 1537873282, "version": 1, "confirmations": 11484, "time": 1537873282, "locktime": 542995, "vsize": 257, "size": 257}