{"hash": "328a2551ed8ae2f7d9d8c384041ee4135569df99e5339561a508d8fb39b831da", "blockhash": "0000000000000000000baef3f32e3676a92c3b2e5da21b426e4f302fc371ce76", "vout": [{"scriptPubKey": {"reqSigs": 1, "hex": "76a91434111f806b5337463e359beff275ba1a55c14d5688ac", "addresses": ["15kJehwFFhBpch55fjodaypnebaw7VZh2V"], "asm": "OP_DUP OP_HASH160 34111f806b5337463e359beff275ba1a55c14d56 OP_EQUALVERIFY OP_CHECKSIG", "type": "pubkeyhash"}, "value": 0.00158023, "n": 0}, {"scriptPubKey": {"reqSigs": 1, "hex": "a914b2e6a8e553bd7e11c1392f8d61e19b5888e139c087", "addresses": ["3HzxXD8PhqJETjkWrQYD4nYc6yKx3mGLXi"], "asm": "OP_HASH160 b2e6a8e553bd7e11c1392f8d61e19b5888e139c0 OP_EQUAL", "type": "scripthash"}, "value": 0.00499529, "n": 1}], "hex": "010000000001029a6d0ff1a4b2d1b4436172dd2f199fb61121f28df6f5f080a05f6c492e45a24b010000002322002039744a2f3510259a53fbe46414508cda472a20a8ad07f4c51b81be30d3d27658ffffffffb3ac7338e4166f949055b3b602c606510d5bddf0c77d2550b3a2e74e68383275010000002322002045dc4a8e7a7ed593d2ea538a381c31e2607ee08f052e914f99311fee2a8f4d56ffffffff0247690200000000001976a91434111f806b5337463e359beff275ba1a55c14d5688ac499f07000000000017a914b2e6a8e553bd7e11c1392f8d61e19b5888e139c0870400483045022100e97096d92b25c06bbbb30eb445202a1527c7fbffe6517259e93682fa286e11c902203c52eae67406d1d176bf363689e536a8b50f5a7b45d3df74f0565476d0615b6a01483045022100926f5fd4d00715e13df326e82c79d487545d4f7c6e4b5c39165bb76f9030fefa02203518f72de7edbab5a06d82f61ea93d2d621f74fc09ff408e96245ddc8ff5b8600147522102290fe25cef5d799372634190479f379598790e79f62bfcc07e21a6a1d28781c32103871fc2ca08e6950b38867e8e6a0e94ee625223d3aa0df5c65f414c6d784467e252ae04004730440220081941d4bf1c9d92dafc4da2a7825c9ac33a5db9588b86919aab4d3849676af8022055e0da9828fd95ff89aa1a16a5acd177d798c19f6487e542b42864479855424b014830450221009195983dd91196edff59611199a3226d32ed2071bf5d2258c913265cad40b677022054a9deb7cf0eba633ba7ae30aa50bca66bba1407dae481bcd3d5232bc09e02ce014752210333a2cce5556afb7a9431cdacaea04e945b9daa974227ab5f4aca265bc268c7952103871fc2ca08e6950b38867e8e6a0e94ee625223d3aa0df5c65f414c6d784467e252ae00000000", "vin": [{"txinwitness": ["", "3045022100e97096d92b25c06bbbb30eb445202a1527c7fbffe6517259e93682fa286e11c902203c52eae67406d1d176bf363689e536a8b50f5a7b45d3df74f0565476d0615b6a01", "3045022100926f5fd4d00715e13df326e82c79d487545d4f7c6e4b5c39165bb76f9030fefa02203518f72de7edbab5a06d82f61ea93d2d621f74fc09ff408e96245ddc8ff5b86001", "522102290fe25cef5d799372634190479f379598790e79f62bfcc07e21a6a1d28781c32103871fc2ca08e6950b38867e8e6a0e94ee625223d3aa0df5c65f414c6d784467e252ae"], "sequence": 4294967295, "scriptSig": {"hex": "22002039744a2f3510259a53fbe46414508cda472a20a8ad07f4c51b81be30d3d27658", "asm": "002039744a2f3510259a53fbe46414508cda472a20a8ad07f4c51b81be30d3d27658"}, "vout": 1, "txid": "4ba2452e496c5fa080f0f5f68df22111b69f192fdd726143b4d1b2a4f10f6d9a"}, {"txinwitness": ["", "30440220081941d4bf1c9d92dafc4da2a7825c9ac33a5db9588b86919aab4d3849676af8022055e0da9828fd95ff89aa1a16a5acd177d798c19f6487e542b42864479855424b01", "30450221009195983dd91196edff59611199a3226d32ed2071bf5d2258c913265cad40b677022054a9deb7cf0eba633ba7ae30aa50bca66bba1407dae481bcd3d5232bc09e02ce01", "52210333a2cce5556afb7a9431cdacaea04e945b9daa974227ab5f4aca265bc268c7952103871fc2ca08e6950b38867e8e6a0e94ee625223d3aa0df5c65f414c6d784467e252ae"], "sequence": 4294967295, "scriptSig": {"hex": "22002045dc4a8e7a7ed593d2ea538a381c31e2607ee08f052e914f99311fee2a8f4d56", "asm": "002045dc4a8e7a7ed593d2ea538a381c31e2607ee08f052e914f99311fee2a8f4d56"}, "vout": 1, "txid": "753238684ee7a2b350257dc7f0dd5b0d5106c602b6b35590946f16e43873acb3"}], "txid": "549e5820ba573deb849135e1dc5810b4b8ca431e117e629ebb445787025d9103", "blocktime": 1537876114, "version": 1, "confirmations": 11460, "time": 1537876114, "locktime": 0, "vsize": 339, "size": 669}