{"hash": "549f2c5a797f3fb9478c8748ea19034413e595a3c04e624fde02146084d2fc85", "blockhash": "00000000000000000024a2167bbff67b0be802c0b01cdd79e6331c2be6459f87", "vout": [{"scriptPubKey": {"reqSigs": 1, "hex": "a9147a36898e727562740a766d91402882eacc86c87587", "addresses": ["3CqDhGT29pLLqGRUHkgQZZ9zC881jWk1SU"], "asm": "OP_HASH160 7a36898e727562740a766d91402882eacc86c875 OP_EQUAL", "type": "scripthash"}, "value": 0.0646994, "n": 0}], "hex": "01000000013bed1a4218c164c56f29c4e532442aa8f6ca7c13b3d07b1f49a02ca635ae1402010000006b483045022100c21f6acedd771061a1c634030508becbd2a9f6e2b31fb15e8a027a3d1042472c0220623dca70f81fd2170aea6b5b24fee3c413d95292b811c4aa7c09480af41b501101210271c2de1f9cf0789a6af709c752a4f48dcc5cdc9e7cb28b58afc2924b26b808b1ffffffff0134b962000000000017a9147a36898e727562740a766d91402882eacc86c8758700000000", "vin": [{"sequence": 4294967295, "scriptSig": {"hex": "483045022100c21f6acedd771061a1c634030508becbd2a9f6e2b31fb15e8a027a3d1042472c0220623dca70f81fd2170aea6b5b24fee3c413d95292b811c4aa7c09480af41b501101210271c2de1f9cf0789a6af709c752a4f48dcc5cdc9e7cb28b58afc2924b26b808b1", "asm": "3045022100c21f6acedd771061a1c634030508becbd2a9f6e2b31fb15e8a027a3d1042472c0220623dca70f81fd2170aea6b5b24fee3c413d95292b811c4aa7c09480af41b5011[ALL] 0271c2de1f9cf0789a6af709c752a4f48dcc5cdc9e7cb28b58afc2924b26b808b1"}, "vout": 1, "txid": "0214ae35a62ca0491f7bd0b3137ccaf6a82a4432e5c4296fc564c118421aed3b"}], "txid": "549f2c5a797f3fb9478c8748ea19034413e595a3c04e624fde02146084d2fc85", "blocktime": 1537870564, "version": 1, "confirmations": 11515, "time": 1537870564, "locktime": 0, "vsize": 190, "size": 190}