{"hash": "54a2090b456d596e17464b8b4ca707c0449fe7702a87e8169cba8772332e6b1c", "blockhash": "0000000000000000000baef3f32e3676a92c3b2e5da21b426e4f302fc371ce76", "vout": [{"scriptPubKey": {"reqSigs": 1, "hex": "76a914208c4c4a4a27795d6717957b9b51c70819eec9b388ac", "addresses": ["13y6hDUcQKVNfUc1rmqR7jvpQLVj11FwFA"], "asm": "OP_DUP OP_HASH160 208c4c4a4a27795d6717957b9b51c70819eec9b3 OP_EQUALVERIFY OP_CHECKSIG", "type": "pubkeyhash"}, "value": 2.732e-05, "n": 0}, {"scriptPubKey": {"reqSigs": 1, "hex": "76a9143a86bec71f4d2a0cd915bcb2e18cefcb253cbe4488ac", "addresses": ["16LTcPYDMoZXEvYiaQw76xwR4UjQp7VntX"], "asm": "OP_DUP OP_HASH160 3a86bec71f4d2a0cd915bcb2e18cefcb253cbe44 OP_EQUALVERIFY OP_CHECKSIG", "type": "pubkeyhash"}, "value": 0.0018, "n": 1}], "hex": "0100000001fe5ea1ff17686ea444c4bcad1d0521e0ee206e4fb42fb102271c608d2ce73bb7000000006a4730440220761e0691d5c89a4414900468a7abc500b5d85805111de98a6e56daf541798fb702207d77cd7b739caefaf9f0db11c6c4c78223bdbdcf0074e8089e063b3293b57a41012102da3375a91b73b4646bc506bc6be267f27ba3eb54679710a8db83b95da46fa8a6fdffffff02ac0a0000000000001976a914208c4c4a4a27795d6717957b9b51c70819eec9b388ac20bf0200000000001976a9143a86bec71f4d2a0cd915bcb2e18cefcb253cbe4488ac16490800", "vin": [{"sequence": 4294967293, "scriptSig": {"hex": "4730440220761e0691d5c89a4414900468a7abc500b5d85805111de98a6e56daf541798fb702207d77cd7b739caefaf9f0db11c6c4c78223bdbdcf0074e8089e063b3293b57a41012102da3375a91b73b4646bc506bc6be267f27ba3eb54679710a8db83b95da46fa8a6", "asm": "30440220761e0691d5c89a4414900468a7abc500b5d85805111de98a6e56daf541798fb702207d77cd7b739caefaf9f0db11c6c4c78223bdbdcf0074e8089e063b3293b57a41[ALL] 02da3375a91b73b4646bc506bc6be267f27ba3eb54679710a8db83b95da46fa8a6"}, "vout": 0, "txid": "b73be72c8d601c2702b12fb44f6e20eee021051dadbcc444a46e6817ffa15efe"}], "txid": "54a2090b456d596e17464b8b4ca707c0449fe7702a87e8169cba8772332e6b1c", "blocktime": 1537876114, "version": 1, "confirmations": 11461, "time": 1537876114, "locktime": 542998, "vsize": 225, "size": 225}