{"hash": "d79a778c473ed9e34691da5b25cd97e479aa04944d3b54a09876da22c7885cb6", "blockhash": "0000000000000000000e13cef7c366c0283d82e591d1acd082e914b08063cdf1", "vout": [{"scriptPubKey": {"reqSigs": 1, "hex": "a9145213b5c5c238b00b470af36676d6940c7c24000387", "addresses": ["39Azwka9EqYdeLGB2jofBNiduJzGhiFMg4"], "asm": "OP_HASH160 5213b5c5c238b00b470af36676d6940c7c240003 OP_EQUAL", "type": "scripthash"}, "value": 0.04, "n": 0}, {"scriptPubKey": {"reqSigs": 1, "hex": "a914356d2c9d7648b23cccc5db1e2f19d7f8a3f34fe587", "addresses": ["36ZWXGm9zJwwNBGbdk5AwC3on49ZHsRiYx"], "asm": "OP_HASH160 356d2c9d7648b23cccc5db1e2f19d7f8a3f34fe5 OP_EQUAL", "type": "scripthash"}, "value": 0.15254258, "n": 1}], "hex": "0100000000010136a2f321f218982305ad4a0601130b1f192477e389d3ed30e49e48a9409b3f5c0100000023220020f02106df819c0c079c5a1301424987bb2223d70b61998b41dc48ac495ee36ff0ffffffff0200093d000000000017a9145213b5c5c238b00b470af36676d6940c7c24000387f2c2e8000000000017a914356d2c9d7648b23cccc5db1e2f19d7f8a3f34fe587040047304402203b2389761aa1f4476fcfd227325ffa8fd01c710ab1b55f04ede7fc6b763f2b16022029b4672ea6a8f1a045be3a618e2b6c50a0a03e03300ced1ed65392b021f6f7500147304402203217e338d0e32245e707ddfcea98d121623791f142b82fa56192953ac65dfc00022023377f9076e7b4fdbedf249ffd0c0af61e450170b0e278f2d17d98143aafd5410147522103276a6941cb6b56ad46991c0386ea82997b17623fa39c5ae259bfb10244544a3d21038f2c7ecee34c843be9d886e50ce79e5dc40a1694c0417d60b35340f292ff73fc52ae00000000", "vin": [{"txinwitness": ["", "304402203b2389761aa1f4476fcfd227325ffa8fd01c710ab1b55f04ede7fc6b763f2b16022029b4672ea6a8f1a045be3a618e2b6c50a0a03e03300ced1ed65392b021f6f75001", "304402203217e338d0e32245e707ddfcea98d121623791f142b82fa56192953ac65dfc00022023377f9076e7b4fdbedf249ffd0c0af61e450170b0e278f2d17d98143aafd54101", "522103276a6941cb6b56ad46991c0386ea82997b17623fa39c5ae259bfb10244544a3d21038f2c7ecee34c843be9d886e50ce79e5dc40a1694c0417d60b35340f292ff73fc52ae"], "sequence": 4294967295, "scriptSig": {"hex": "220020f02106df819c0c079c5a1301424987bb2223d70b61998b41dc48ac495ee36ff0", "asm": "0020f02106df819c0c079c5a1301424987bb2223d70b61998b41dc48ac495ee36ff0"}, "vout": 1, "txid": "5c3f9b40a9489ee430edd389e37724191f0b1301064aad05239818f221f3a236"}], "txid": "54a9a494865f1bcb963af21c2637b5fd0e9ed92be31faf2f64bf0822232e90e6", "blocktime": 1537871767, "version": 1, "confirmations": 11495, "time": 1537871767, "locktime": 0, "vsize": 205, "size": 370}