{"hash": "54a961a6267ce671e723e4971db39da07b19b42cf72255e670ad7aa46f2a7bec", "blockhash": "0000000000000000001cda96e906b7601b7a6fb1a3b62bca570a9e5d8f4b3de1", "vout": [{"scriptPubKey": {"reqSigs": 1, "hex": "76a914cd202257b40dddb305bca045858e6019735745d588ac", "addresses": ["1Khc23cxd5Z6cKUJ57Js1SVi7T7W6kNpWf"], "asm": "OP_DUP OP_HASH160 cd202257b40dddb305bca045858e6019735745d5 OP_EQUALVERIFY OP_CHECKSIG", "type": "pubkeyhash"}, "value": 0.00358423, "n": 0}, {"scriptPubKey": {"reqSigs": 1, "hex": "76a914647d821323062584926f953701955fab03e7e53788ac", "addresses": ["1AALve4g221pRo5fsim4E6mozDDofbFbmx"], "asm": "OP_DUP OP_HASH160 647d821323062584926f953701955fab03e7e537 OP_EQUALVERIFY OP_CHECKSIG", "type": "pubkeyhash"}, "value": 0.00780343, "n": 1}], "hex": "0100000001eeea2def861af647d6b072d3e77be1fbf6dd3628063e7ca6f7b7cd2427975155000000006b483045022100f646cc0411818d09c9e1b1036cb78522ac8290a90fc0117df387b5ee86521ab902205fab41ece21f9cfa4963cb2bd9895be97af902d1cb688678675df1e192de90d201210391a639c923cae7dfc4a6982cb827bf38ea63e39bddf3fe70aa80b29a6dc5ab11fdffffff0217780500000000001976a914cd202257b40dddb305bca045858e6019735745d588ac37e80b00000000001976a914647d821323062584926f953701955fab03e7e53788ac13490800", "vin": [{"sequence": 4294967293, "scriptSig": {"hex": "483045022100f646cc0411818d09c9e1b1036cb78522ac8290a90fc0117df387b5ee86521ab902205fab41ece21f9cfa4963cb2bd9895be97af902d1cb688678675df1e192de90d201210391a639c923cae7dfc4a6982cb827bf38ea63e39bddf3fe70aa80b29a6dc5ab11", "asm": "3045022100f646cc0411818d09c9e1b1036cb78522ac8290a90fc0117df387b5ee86521ab902205fab41ece21f9cfa4963cb2bd9895be97af902d1cb688678675df1e192de90d2[ALL] 0391a639c923cae7dfc4a6982cb827bf38ea63e39bddf3fe70aa80b29a6dc5ab11"}, "vout": 0, "txid": "5551972724cdb7f7a67c3e062836ddf6fbe17be7d372b0d647f61a86ef2deaee"}], "txid": "54a961a6267ce671e723e4971db39da07b19b42cf72255e670ad7aa46f2a7bec", "blocktime": 1537873282, "version": 1, "confirmations": 11485, "time": 1537873282, "locktime": 542995, "vsize": 226, "size": 226}