{"hash": "54ab8e3d594829c9004f05c4e5aebeaf06410890e854ab2f7489e9a1c4ef0e9a", "blockhash": "00000000000000000004ffacab907a6b429b9a5745fa0b75af4234bf69dd7176", "vout": [{"scriptPubKey": {"reqSigs": 1, "hex": "a914d838ecaac10e6a65f461971c73df038d5811331a87", "addresses": ["3MQJ5AK6d589S2FgdPwWEg7iVU87f4ZJDH"], "asm": "OP_HASH160 d838ecaac10e6a65f461971c73df038d5811331a OP_EQUAL", "type": "scripthash"}, "value": 27.30187901, "n": 0}, {"scriptPubKey": {"reqSigs": 1, "hex": "76a914e4313402ec3b78454818211f9c2baf8973f290db88ac", "addresses": ["1Moa1S9GiCpAQGjeZBtcHpt5tEakfPnaZP"], "asm": "OP_DUP OP_HASH160 e4313402ec3b78454818211f9c2baf8973f290db OP_EQUALVERIFY OP_CHECKSIG", "type": "pubkeyhash"}, "value": 0.13304314, "n": 1}, {"scriptPubKey": {"reqSigs": 1, "hex": "a914a1b40860532284c12fbd543e60612c01c98f105987", "addresses": ["3GS2PKaVkhmDYkRLLPcQzAUTiUDHZz1cmU"], "asm": "OP_HASH160 a1b40860532284c12fbd543e60612c01c98f1059 OP_EQUAL", "type": "scripthash"}, "value": 0.01595109, "n": 2}, {"scriptPubKey": {"reqSigs": 1, "hex": "a9142d4d0d2481360469f326154285cc0bdc380b1d2c87", "addresses": ["35pYdoBEH9D93N7MhaHREUBHMuh8QDXeXp"], "asm": "OP_HASH160 2d4d0d2481360469f326154285cc0bdc380b1d2c OP_EQUAL", "type": "scripthash"}, "value": 0.0012, "n": 3}, {"scriptPubKey": {"reqSigs": 1, "hex": "76a91402c5041e6a9a9eb34f4cab93bf90e7d226eb95b988ac", "addresses": ["1FeNJVJJzYLbobAigcfeKEBH4zPYpaSU6"], "asm": "OP_DUP OP_HASH160 02c5041e6a9a9eb34f4cab93bf90e7d226eb95b9 OP_EQUALVERIFY OP_CHECKSIG", "type": "pubkeyhash"}, "value": 1.50189782, "n": 4}], "hex": "020000000174d02a3a0acd26350acbaac97e3601a46de4e3a371c64f41d369d34c3ff051cb000000006b4830450221009b2bee51c4d7ceb7ec50b16fed66ab645d4e09de2ddf984953e3d435a028fa52022022dc84aad0f50744adc1144aff757d615d79e2163c1e19382f964f20d87e6adc0121027ebc1070fc6d694ad9128ce3dfb800e10035463d60016b5f9641b9e133f02222feffffff057d5cbba20000000017a914d838ecaac10e6a65f461971c73df038d5811331a87fa01cb00000000001976a914e4313402ec3b78454818211f9c2baf8973f290db88ace55618000000000017a914a1b40860532284c12fbd543e60612c01c98f105987c0d401000000000017a9142d4d0d2481360469f326154285cc0bdc380b1d2c87d6b6f308000000001976a91402c5041e6a9a9eb34f4cab93bf90e7d226eb95b988ac16490800", "vin": [{"sequence": 4294967294, "scriptSig": {"hex": "4830450221009b2bee51c4d7ceb7ec50b16fed66ab645d4e09de2ddf984953e3d435a028fa52022022dc84aad0f50744adc1144aff757d615d79e2163c1e19382f964f20d87e6adc0121027ebc1070fc6d694ad9128ce3dfb800e10035463d60016b5f9641b9e133f02222", "asm": "30450221009b2bee51c4d7ceb7ec50b16fed66ab645d4e09de2ddf984953e3d435a028fa52022022dc84aad0f50744adc1144aff757d615d79e2163c1e19382f964f20d87e6adc[ALL] 027ebc1070fc6d694ad9128ce3dfb800e10035463d60016b5f9641b9e133f02222"}, "vout": 0, "txid": "cb51f03f4cd369d3414fc671a3e3e46da401367ec9aacb0a3526cd0a3a2ad074"}], "txid": "54ab8e3d594829c9004f05c4e5aebeaf06410890e854ab2f7489e9a1c4ef0e9a", "blocktime": 1537875543, "version": 2, "confirmations": 11464, "time": 1537875543, "locktime": 542998, "vsize": 322, "size": 322}