{"hash": "aacf0adbe0f7f5c11aef7b2ba2ca2874751db3b8a9f21eeedb2e5e56f000df52", "blockhash": "0000000000000000000dcc0f55137456b1a82d3642486a52398922ac4d620174", "vout": [{"scriptPubKey": {"reqSigs": 1, "hex": "76a914c266e7c2fc2f86d14f9237303d55389c7896164188ac", "addresses": ["1JiuNCia2C9gY6JAWPtaegjzUcLVAgnu5D"], "asm": "OP_DUP OP_HASH160 c266e7c2fc2f86d14f9237303d55389c78961641 OP_EQUALVERIFY OP_CHECKSIG", "type": "pubkeyhash"}, "value": 1.80633934, "n": 0}, {"scriptPubKey": {"reqSigs": 1, "hex": "a9141c17a77d15da53acedef9dcade17d2b0c09a450a87", "addresses": ["34FZBSYhmkLi8g8NKaNnPN7zgLeZ4XbaJJ"], "asm": "OP_HASH160 1c17a77d15da53acedef9dcade17d2b0c09a450a OP_EQUAL", "type": "scripthash"}, "value": 0.00999642, "n": 1}], "hex": "020000000001052b409a308eb00e6f19d3e123ff4cae360558caaea7135f9ab687e25e93b075e6000000001716001448b67c9c6387b9af5b1bffa8fad39c479a791feffeffffff72ff1285858da81e93285266e5e5b9772e1a13957647b2033185cbddadc26fec01000000171600145ec66a87c60db4124a318f0732ce316c6444213afeffffffa10f1db2283351c9ca1f02c74915cde9870122403675b2095f9a5a997a8018fa00000000171600143ba996f38431bde2947663fd1e3954dcc2335ba3feffffffe48e11d212b77473b4d614be778fe3fb80c7077353cd8a00edfdf010dc783ac20000000017160014e59e1b09273208825ead1ec807c4be600641d7ccfeffffffed24bf93b3a1fa87bd0a915faf7bd6d898c4cd9634f8c96ab41bf327cc33f0f6a000000017160014b38320a1396e120188998fc6d4202108b77e78a6feffffff024e41c40a000000001976a914c266e7c2fc2f86d14f9237303d55389c7896164188acda400f000000000017a9141c17a77d15da53acedef9dcade17d2b0c09a450a8702473044022075917fbd4e016c8054e9e7c7b573d68758345e75b0013047046d6ffe91c4c7ce02202882b62b6c31caf79a7caee628af8409e2f16c4a14cbbe1e427b7970d32e9fdf012103cfd61aed8676abeb4ab3838fea6daadd862e1ba3eabdf704ca614abd43672a930247304402207c5ddce89c8056e239d9a8bfaa30b450f680c8770dcf4ea76a6477f009954fc102205328b3ec6a266d5845332f7b7a5056b7b3d55cf8c5e0792fd6cfc88e029e3eab012102a20e5017119d526756f8642a4ce24dc18bd8b7cea313c7ca4636df0ad6ccc9e202473044022002585210cabc961b7fc003e5e731eec79862a0836bbf922ca9355945cfbdbb3102205f3f090e4ae2a5ab94470095813db35bdb39e403ae0457e2342bd466f475ec1b0121020cf8737386ab2a30ebf7da48b626aca686378b8d3f2f251340ca3ce70f7892fc02483045022100ffc0fe988e027d32cc493afad7b5fccda12b9c0839833ac72b7531b6a26013cc0220294b2eeb5b98ecb5012a15f8bd51b76e1b47cf0e7e1bdb449acb5fbf7dc928ba0121027ee757e610f29f95773b9882cdaca6d2dbd0b7d99686daf34d63768b9ef2c5300247304402206b8497841df36015d2cd3af4856450fa95e217df607c6b606ebda7c39767950e02202d01c9149b01d280961e89a4f8f94defd860ce9bb2f3420f512088425f1277a60121035851ede8deb36d190282bfbc861a274010c1d82aecb0a6e4a4045ffa826f9a9c0c490800", "vin": [{"txinwitness": ["3044022075917fbd4e016c8054e9e7c7b573d68758345e75b0013047046d6ffe91c4c7ce02202882b62b6c31caf79a7caee628af8409e2f16c4a14cbbe1e427b7970d32e9fdf01", "03cfd61aed8676abeb4ab3838fea6daadd862e1ba3eabdf704ca614abd43672a93"], "sequence": 4294967294, "scriptSig": {"hex": "16001448b67c9c6387b9af5b1bffa8fad39c479a791fef", "asm": "001448b67c9c6387b9af5b1bffa8fad39c479a791fef"}, "vout": 0, "txid": "e675b0935ee287b69a5f13a7aeca580536ae4cff23e1d3196f0eb08e309a402b"}, {"txinwitness": ["304402207c5ddce89c8056e239d9a8bfaa30b450f680c8770dcf4ea76a6477f009954fc102205328b3ec6a266d5845332f7b7a5056b7b3d55cf8c5e0792fd6cfc88e029e3eab01", "02a20e5017119d526756f8642a4ce24dc18bd8b7cea313c7ca4636df0ad6ccc9e2"], "sequence": 4294967294, "scriptSig": {"hex": "1600145ec66a87c60db4124a318f0732ce316c6444213a", "asm": "00145ec66a87c60db4124a318f0732ce316c6444213a"}, "vout": 1, "txid": "ec6fc2adddcb853103b2477695131a2e77b9e5e5665228931ea88d858512ff72"}, {"txinwitness": ["3044022002585210cabc961b7fc003e5e731eec79862a0836bbf922ca9355945cfbdbb3102205f3f090e4ae2a5ab94470095813db35bdb39e403ae0457e2342bd466f475ec1b01", "020cf8737386ab2a30ebf7da48b626aca686378b8d3f2f251340ca3ce70f7892fc"], "sequence": 4294967294, "scriptSig": {"hex": "1600143ba996f38431bde2947663fd1e3954dcc2335ba3", "asm": "00143ba996f38431bde2947663fd1e3954dcc2335ba3"}, "vout": 0, "txid": "fa18807a995a9a5f09b2753640220187e9cd1549c7021fcac9513328b21d0fa1"}, {"txinwitness": ["3045022100ffc0fe988e027d32cc493afad7b5fccda12b9c0839833ac72b7531b6a26013cc0220294b2eeb5b98ecb5012a15f8bd51b76e1b47cf0e7e1bdb449acb5fbf7dc928ba01", "027ee757e610f29f95773b9882cdaca6d2dbd0b7d99686daf34d63768b9ef2c530"], "sequence": 4294967294, "scriptSig": {"hex": "160014e59e1b09273208825ead1ec807c4be600641d7cc", "asm": "0014e59e1b09273208825ead1ec807c4be600641d7cc"}, "vout": 0, "txid": "c23a78dc10f0fded008acd537307c780fbe38f77be14d6b47374b712d2118ee4"}, {"txinwitness": ["304402206b8497841df36015d2cd3af4856450fa95e217df607c6b606ebda7c39767950e02202d01c9149b01d280961e89a4f8f94defd860ce9bb2f3420f512088425f1277a601", "035851ede8deb36d190282bfbc861a274010c1d82aecb0a6e4a4045ffa826f9a9c"], "sequence": 4294967294, "scriptSig": {"hex": "160014b38320a1396e120188998fc6d4202108b77e78a6", "asm": "0014b38320a1396e120188998fc6d4202108b77e78a6"}, "vout": 160, "txid": "f6f033cc27f31bb46ac9f83496cdc498d8d67baf5f910abd87faa1b393bf24ed"}], "txid": "54af8e1052701fefb16d37041be9954daef2053be3b8fbbd6017400159438256", "blocktime": 1537870268, "version": 2, "confirmations": 11518, "time": 1537870268, "locktime": 542988, "vsize": 531, "size": 934}