{"hash": "54b2de8a8115987d38b288fe7bd1310d707a3676d03ed5abac624343bac7337c", "blockhash": "0000000000000000000e13cef7c366c0283d82e591d1acd082e914b08063cdf1", "vout": [{"scriptPubKey": {"reqSigs": 1, "hex": "76a914b564b7614b7044017ef3eb73fec42ce50bdc9af588ac", "addresses": ["1HY7xce7cF9EJaiiXquQZcoLghHh3LCcow"], "asm": "OP_DUP OP_HASH160 b564b7614b7044017ef3eb73fec42ce50bdc9af5 OP_EQUALVERIFY OP_CHECKSIG", "type": "pubkeyhash"}, "value": 0.00079, "n": 0}, {"scriptPubKey": {"type": "nulldata", "hex": "6a4c50000077950001150e348d29002203bd591c78e3ef3236678a625097bcbefa6b8351586b4e45122b622407314aa32800f435de17b75baa0cee0614b29531213609bc9a9526289ac0f6612cd74e33776ee4", "asm": "OP_RETURN 000077950001150e348d29002203bd591c78e3ef3236678a625097bcbefa6b8351586b4e45122b622407314aa32800f435de17b75baa0cee0614b29531213609bc9a9526289ac0f6612cd74e33776ee4"}, "value": 0.0, "n": 1}], "hex": "01000000019f99b17545215db117a199cf6795c0dfb1b1e5d7a246f824a3a09416b55721d3000000006b483045022100f07feb2fc89001d04c1165587a736dd7021b5381e6b92b921fe0b962971e6f8102206bf7a7290880793403d518485fa2fb0a54c93578e118a90cf742e58f2acf62c30121026a211fc084ba3784b59ab8b1ce371d1c02e4e14faa984f1dfe5690f080e8e061ffffffff0298340100000000001976a914b564b7614b7044017ef3eb73fec42ce50bdc9af588ac0000000000000000536a4c50000077950001150e348d29002203bd591c78e3ef3236678a625097bcbefa6b8351586b4e45122b622407314aa32800f435de17b75baa0cee0614b29531213609bc9a9526289ac0f6612cd74e33776ee400000000", "vin": [{"sequence": 4294967295, "scriptSig": {"hex": "483045022100f07feb2fc89001d04c1165587a736dd7021b5381e6b92b921fe0b962971e6f8102206bf7a7290880793403d518485fa2fb0a54c93578e118a90cf742e58f2acf62c30121026a211fc084ba3784b59ab8b1ce371d1c02e4e14faa984f1dfe5690f080e8e061", "asm": "3045022100f07feb2fc89001d04c1165587a736dd7021b5381e6b92b921fe0b962971e6f8102206bf7a7290880793403d518485fa2fb0a54c93578e118a90cf742e58f2acf62c3[ALL] 026a211fc084ba3784b59ab8b1ce371d1c02e4e14faa984f1dfe5690f080e8e061"}, "vout": 0, "txid": "d32157b51694a0a324f846a2d7e5b1b1dfc09567cf99a117b15d214575b1999f"}], "txid": "54b2de8a8115987d38b288fe7bd1310d707a3676d03ed5abac624343bac7337c", "blocktime": 1537871767, "version": 1, "confirmations": 11493, "time": 1537871767, "locktime": 0, "vsize": 284, "size": 284}