{"hash": "54b5de2cba26cfb8b6531e93d085e76b22e997d40c85f13e5195f71dc98667d0", "blockhash": "00000000000000000004ffacab907a6b429b9a5745fa0b75af4234bf69dd7176", "vout": [{"scriptPubKey": {"reqSigs": 1, "hex": "76a914ebd9de71dfb5cb1cc3ac7ee0de0587cbb8e43d6f88ac", "addresses": ["1NW4nsx6SNpKGBkLs2hUDVuAkmxvHikp5n"], "asm": "OP_DUP OP_HASH160 ebd9de71dfb5cb1cc3ac7ee0de0587cbb8e43d6f OP_EQUALVERIFY OP_CHECKSIG", "type": "pubkeyhash"}, "value": 0.008108, "n": 0}, {"scriptPubKey": {"reqSigs": 1, "hex": "76a914fe8d0ef5a5a9bbfec154aff8a81ae54ce525157488ac", "addresses": ["1QCwcdwRBuVRps8UyBm9qQZEvN6mKvrCBg"], "asm": "OP_DUP OP_HASH160 fe8d0ef5a5a9bbfec154aff8a81ae54ce5251574 OP_EQUALVERIFY OP_CHECKSIG", "type": "pubkeyhash"}, "value": 0.01002847, "n": 1}], "hex": "0100000001f51d669c6bedee9a5feee510d4917bb116503422f4186d9b973058a8e8626d75010000006b483045022100d13bd240c6334a733b8d5fd17a99acb31678d257fcd90e1193673e3febe5e2260220490448812fe0f09204937ee5d962cd207d8f5d24334bf8041ffb57f206094a2b0121036cebfb7e3d11294f6fb516254d07db6d73d5ffd99bff8d6ef75c57dac067bae9fdffffff02305f0c00000000001976a914ebd9de71dfb5cb1cc3ac7ee0de0587cbb8e43d6f88ac5f4d0f00000000001976a914fe8d0ef5a5a9bbfec154aff8a81ae54ce525157488ac16490800", "vin": [{"sequence": 4294967293, "scriptSig": {"hex": "483045022100d13bd240c6334a733b8d5fd17a99acb31678d257fcd90e1193673e3febe5e2260220490448812fe0f09204937ee5d962cd207d8f5d24334bf8041ffb57f206094a2b0121036cebfb7e3d11294f6fb516254d07db6d73d5ffd99bff8d6ef75c57dac067bae9", "asm": "3045022100d13bd240c6334a733b8d5fd17a99acb31678d257fcd90e1193673e3febe5e2260220490448812fe0f09204937ee5d962cd207d8f5d24334bf8041ffb57f206094a2b[ALL] 036cebfb7e3d11294f6fb516254d07db6d73d5ffd99bff8d6ef75c57dac067bae9"}, "vout": 1, "txid": "756d62e8a85830979b6d18f422345016b17b91d410e5ee5f9aeeed6b9c661df5"}], "txid": "54b5de2cba26cfb8b6531e93d085e76b22e997d40c85f13e5195f71dc98667d0", "blocktime": 1537875543, "version": 1, "confirmations": 11464, "time": 1537875543, "locktime": 542998, "vsize": 226, "size": 226}