{"hash": "54b54357bc2e198db6bc5c52bbb142bb22e398de1e0b2f6ee96edfd4205acafb", "blockhash": "0000000000000000000dcc0f55137456b1a82d3642486a52398922ac4d620174", "vout": [{"scriptPubKey": {"reqSigs": 1, "hex": "76a914324c76cdc0a07063dcde0673910e134c1ca2391788ac", "addresses": ["15axPQhykXKNcVLkmqpxK32vMxkcwmDFpb"], "asm": "OP_DUP OP_HASH160 324c76cdc0a07063dcde0673910e134c1ca23917 OP_EQUALVERIFY OP_CHECKSIG", "type": "pubkeyhash"}, "value": 0.0017, "n": 0}, {"scriptPubKey": {"reqSigs": 1, "hex": "76a914330bdde655e629dcf81a22572962883e9b7dd9ed88ac", "addresses": ["15eugJZZwGZuwBgQ1L8E95pzX1aDUcmNzS"], "asm": "OP_DUP OP_HASH160 330bdde655e629dcf81a22572962883e9b7dd9ed OP_EQUALVERIFY OP_CHECKSIG", "type": "pubkeyhash"}, "value": 0.072437, "n": 1}], "hex": "01000000018ae53ade0ca5414f55f285f00dadefc9843a84fcb7b295225b0dd85facdb24cc010000006b483045022100980742bb5a124e7d5e78207ce932199fa5c90da982f0ab2991a2764d71468e66022047a63b0a755788637a8cc41d28210af3d8b6cd41db603148a4fcb1f0fbcac365012103229250943e00a070890c07a1a9348c58ab25a7b2f793ecfcdd5e7c58f5968c7ffeffffff0210980200000000001976a914324c76cdc0a07063dcde0673910e134c1ca2391788acb4876e00000000001976a914330bdde655e629dcf81a22572962883e9b7dd9ed88ac00000000", "vin": [{"sequence": 4294967294, "scriptSig": {"hex": "483045022100980742bb5a124e7d5e78207ce932199fa5c90da982f0ab2991a2764d71468e66022047a63b0a755788637a8cc41d28210af3d8b6cd41db603148a4fcb1f0fbcac365012103229250943e00a070890c07a1a9348c58ab25a7b2f793ecfcdd5e7c58f5968c7f", "asm": "3045022100980742bb5a124e7d5e78207ce932199fa5c90da982f0ab2991a2764d71468e66022047a63b0a755788637a8cc41d28210af3d8b6cd41db603148a4fcb1f0fbcac365[ALL] 03229250943e00a070890c07a1a9348c58ab25a7b2f793ecfcdd5e7c58f5968c7f"}, "vout": 1, "txid": "cc24dbac5fd80d5b2295b2b7fc843a84c9efad0df085f2554f41a50cde3ae58a"}], "txid": "54b54357bc2e198db6bc5c52bbb142bb22e398de1e0b2f6ee96edfd4205acafb", "blocktime": 1537870268, "version": 1, "confirmations": 11516, "time": 1537870268, "locktime": 0, "vsize": 226, "size": 226}