{"hash": "54b53ff8a58bee279237a047199b56382de0579931ed6b61898abf216df33361", "blockhash": "000000000000000000022b45ed06c6f4ccd3cf7fb5ba4856ebd2e58215665228", "vout": [{"scriptPubKey": {"type": "nulldata", "hex": "6a146f6d6e69000000000000001f00000012d790c380", "asm": "OP_RETURN 6f6d6e69000000000000001f00000012d790c380"}, "value": 0.0, "n": 0}, {"scriptPubKey": {"reqSigs": 1, "hex": "76a91451a45bb04a401f746c748f6354dd43d362736d6988ac", "addresses": ["18SgdLuyiMgwTCLt6rtUBrnKRw1BTzkCqS"], "asm": "OP_DUP OP_HASH160 51a45bb04a401f746c748f6354dd43d362736d69 OP_EQUALVERIFY OP_CHECKSIG", "type": "pubkeyhash"}, "value": 0.00499385, "n": 1}, {"scriptPubKey": {"reqSigs": 1, "hex": "76a914a25dec4d0011064ef106a983c39c7a540699f22088ac", "addresses": ["1FoWyxwPXuj4C6abqwhjDWdz6D4PZgYRjA"], "asm": "OP_DUP OP_HASH160 a25dec4d0011064ef106a983c39c7a540699f220 OP_EQUALVERIFY OP_CHECKSIG", "type": "pubkeyhash"}, "value": 5.46e-06, "n": 2}], "hex": "010000000262d789fa1aa47cf585106f1615a97acddd7475ffd20a1f4c69867e4a8f106cb2020000006b483045022100c5bbe4d7a380b4423d021a49bd26bbe92dc67261a214ed14706dcd58c0d6125b022040e2827a8ba317a014bfc486f7ebc4a7e1cddd154c203559631a579170869a07012102823b80f6df237ed605521a7da369e5e540f8bb508dec4257b7eaefabb4a77b41feffffff912557e17582ceb1e81d6f8ffb4f018df417ac78d3254cd8c0dfa44a279b8e730b0000006a4730440220775ec50f25515c2e216646f427c9b60226ce01433c2c6290cd09458e0d4ec5c102204a33bcfb8c05cb24ce753989a104bbeff91b2ad6c15cb52d90b13be04ec19c73012102823b80f6df237ed605521a7da369e5e540f8bb508dec4257b7eaefabb4a77b41feffffff030000000000000000166a146f6d6e69000000000000001f00000012d790c380b99e0700000000001976a91451a45bb04a401f746c748f6354dd43d362736d6988ac22020000000000001976a914a25dec4d0011064ef106a983c39c7a540699f22088ac0b490800", "vin": [{"sequence": 4294967294, "scriptSig": {"hex": "483045022100c5bbe4d7a380b4423d021a49bd26bbe92dc67261a214ed14706dcd58c0d6125b022040e2827a8ba317a014bfc486f7ebc4a7e1cddd154c203559631a579170869a07012102823b80f6df237ed605521a7da369e5e540f8bb508dec4257b7eaefabb4a77b41", "asm": "3045022100c5bbe4d7a380b4423d021a49bd26bbe92dc67261a214ed14706dcd58c0d6125b022040e2827a8ba317a014bfc486f7ebc4a7e1cddd154c203559631a579170869a07[ALL] 02823b80f6df237ed605521a7da369e5e540f8bb508dec4257b7eaefabb4a77b41"}, "vout": 2, "txid": "b26c108f4a7e86694c1f0ad2ff7574ddcd7aa915166f1085f57ca41afa89d762"}, {"sequence": 4294967294, "scriptSig": {"hex": "4730440220775ec50f25515c2e216646f427c9b60226ce01433c2c6290cd09458e0d4ec5c102204a33bcfb8c05cb24ce753989a104bbeff91b2ad6c15cb52d90b13be04ec19c73012102823b80f6df237ed605521a7da369e5e540f8bb508dec4257b7eaefabb4a77b41", "asm": "30440220775ec50f25515c2e216646f427c9b60226ce01433c2c6290cd09458e0d4ec5c102204a33bcfb8c05cb24ce753989a104bbeff91b2ad6c15cb52d90b13be04ec19c73[ALL] 02823b80f6df237ed605521a7da369e5e540f8bb508dec4257b7eaefabb4a77b41"}, "vout": 11, "txid": "738e9b274aa4dfc0d84c25d378ac17f48d014ffb8f6f1de8b1ce8275e1572591"}], "txid": "54b53ff8a58bee279237a047199b56382de0579931ed6b61898abf216df33361", "blocktime": 1537869901, "version": 1, "confirmations": 11524, "time": 1537869901, "locktime": 542987, "vsize": 404, "size": 404}