{"hash": "63ef4c526c478b14741773b34b9b017d2ad0066f180a7d44f42e4c6e4dee76da", "blockhash": "0000000000000000001cda96e906b7601b7a6fb1a3b62bca570a9e5d8f4b3de1", "vout": [{"scriptPubKey": {"reqSigs": 1, "hex": "a91438a971a74930e3af23588da14861f5051de6b1f087", "addresses": ["36rckTa3NHKTLUM6BoPex1m8cUJHkG3jAD"], "asm": "OP_HASH160 38a971a74930e3af23588da14861f5051de6b1f0 OP_EQUAL", "type": "scripthash"}, "value": 0.0103235, "n": 0}, {"scriptPubKey": {"reqSigs": 1, "hex": "a9147605103aeedc5d3bb0e60d53ccf105f265976c7587", "addresses": ["3CT3izRcKQ8a5hSXExkPqmqg8uwreKR3Pu"], "asm": "OP_HASH160 7605103aeedc5d3bb0e60d53ccf105f265976c75 OP_EQUAL", "type": "scripthash"}, "value": 0.0015, "n": 1}], "hex": "020000000001020a91021ae0f6a11e03cd7dbc728e1d4b7fc4778dddf01795c5218fc7d1c64c8000000000171600141e326fea5b14d08bb38088845488035132d49de5feffffff1af3afa797b216cbca6fd0b5a09e143df3e764de56b050cd74bb03423bac19a101000000171600144cc7b11f68c5d6f9d127cffc8f8813cd71d9908bfeffffff029ec00f000000000017a91438a971a74930e3af23588da14861f5051de6b1f087f04902000000000017a9147605103aeedc5d3bb0e60d53ccf105f265976c7587024730440220193393ebd3025f158176a4d3c38ed870a52f84f301b263d5ac9fea7e8937bcf002207007af8f7952a65e63a3c4a2aa1b44ed9ab65218f7c9360857b99cb3ad459a3e012102341f4c5ce2df99f626228c80943ae9b43556eea1149bda2a70dbcff0a70fdbf302483045022100e38fa1aedbfa3c791c6335699fd9e55987aa0e9fe9dba47a737f919dc0a50042022027c42d77b60ef38006d5c19737e24f852950c5cf26d310a0309721a431615c0c012102e1103675d1ddacaa61f4c6d46fb5b495c6112b0b3c256b84d71dbd9c79efa72d13490800", "vin": [{"txinwitness": ["30440220193393ebd3025f158176a4d3c38ed870a52f84f301b263d5ac9fea7e8937bcf002207007af8f7952a65e63a3c4a2aa1b44ed9ab65218f7c9360857b99cb3ad459a3e01", "02341f4c5ce2df99f626228c80943ae9b43556eea1149bda2a70dbcff0a70fdbf3"], "sequence": 4294967294, "scriptSig": {"hex": "1600141e326fea5b14d08bb38088845488035132d49de5", "asm": "00141e326fea5b14d08bb38088845488035132d49de5"}, "vout": 0, "txid": "804cc6d1c78f21c59517f0dd8d77c47f4b1d8e72bc7dcd031ea1f6e01a02910a"}, {"txinwitness": ["3045022100e38fa1aedbfa3c791c6335699fd9e55987aa0e9fe9dba47a737f919dc0a50042022027c42d77b60ef38006d5c19737e24f852950c5cf26d310a0309721a431615c0c01", "02e1103675d1ddacaa61f4c6d46fb5b495c6112b0b3c256b84d71dbd9c79efa72d"], "sequence": 4294967294, "scriptSig": {"hex": "1600144cc7b11f68c5d6f9d127cffc8f8813cd71d9908b", "asm": "00144cc7b11f68c5d6f9d127cffc8f8813cd71d9908b"}, "vout": 1, "txid": "a119ac3b4203bb74cd50b056de64e7f33d149ea0b5d06fcacb16b297a7aff31a"}], "txid": "54c4d6fb9e8d741cf2da007572c2e912cc08142252176a1766f944681b0a9be7", "blocktime": 1537873282, "version": 2, "confirmations": 11485, "time": 1537873282, "locktime": 542995, "vsize": 257, "size": 419}