{"hash": "d427f3fe6539290c5567c7887cbcdd7d257bc0491e4137856f2723975a931647", "blockhash": "0000000000000000000e13cef7c366c0283d82e591d1acd082e914b08063cdf1", "vout": [{"scriptPubKey": {"reqSigs": 1, "hex": "a91493c791cc7c99a723e7d0bf987c38064c45c49a9f87", "addresses": ["3FAQL5PzhpAGRzVBXUNBYy96ihZAkEqgf8"], "asm": "OP_HASH160 93c791cc7c99a723e7d0bf987c38064c45c49a9f OP_EQUAL", "type": "scripthash"}, "value": 10.82101391, "n": 0}, {"scriptPubKey": {"reqSigs": 1, "hex": "a9140b99882731fa96f34823e68edb04628902c5c33d87", "addresses": ["32kMHEWSqCXs65BHTgeJxLjyByTMVWNJZE"], "asm": "OP_HASH160 0b99882731fa96f34823e68edb04628902c5c33d OP_EQUAL", "type": "scripthash"}, "value": 0.0067053, "n": 1}], "hex": "02000000000101b1846a8d36b66e11ea4618645993f35716945350b3dda73b4bd683e2f558ce730000000017160014ffc3f2bc18f832981e601ba369ba1ac07fd02971feffffff028f8e7f400000000017a91493c791cc7c99a723e7d0bf987c38064c45c49a9f87423b0a000000000017a9140b99882731fa96f34823e68edb04628902c5c33d8702483045022100c985b9c885bb5e0d2bcff3dd9f34df77c7094d495c0aaf875ceb8d6c9ba058630220065547d6ef5ebce665d068d6907f85877141944e5b2fd97fbf184767bb5ca4fb0121031fd2e5499822ca7a2501fdbe0f04bf4409e0ebf1405cb8a4ea98e82fbe53e7ce10490800", "vin": [{"txinwitness": ["3045022100c985b9c885bb5e0d2bcff3dd9f34df77c7094d495c0aaf875ceb8d6c9ba058630220065547d6ef5ebce665d068d6907f85877141944e5b2fd97fbf184767bb5ca4fb01", "031fd2e5499822ca7a2501fdbe0f04bf4409e0ebf1405cb8a4ea98e82fbe53e7ce"], "sequence": 4294967294, "scriptSig": {"hex": "160014ffc3f2bc18f832981e601ba369ba1ac07fd02971", "asm": "0014ffc3f2bc18f832981e601ba369ba1ac07fd02971"}, "vout": 0, "txid": "73ce58f5e283d64b3ba7ddb35053941657f39359641846ea116eb6368d6a84b1"}], "txid": "54cbccde16f41444eb020ef94340d48935950bbe1f207857a205616cddd06b24", "blocktime": 1537871767, "version": 2, "confirmations": 11493, "time": 1537871767, "locktime": 542992, "vsize": 166, "size": 248}