{"hash": "54cc4b4a6651951ed439e51916e988a3855fb8af21323596ee85505e4bc0a7ed", "blockhash": "0000000000000000001cda96e906b7601b7a6fb1a3b62bca570a9e5d8f4b3de1", "vout": [{"scriptPubKey": {"reqSigs": 1, "hex": "76a9140bd237d3a54df7ea8ecebc21bcdebc1dedecb9b088ac", "addresses": ["125WGKSW11mdLFqgLZp2FMNUGLSB7Vd2nR"], "asm": "OP_DUP OP_HASH160 0bd237d3a54df7ea8ecebc21bcdebc1dedecb9b0 OP_EQUALVERIFY OP_CHECKSIG", "type": "pubkeyhash"}, "value": 5.286e-05, "n": 0}, {"scriptPubKey": {"reqSigs": 1, "hex": "76a914a6dc7629fdb9d7bb6eadc77ca1d24d30c3d5b56c88ac", "addresses": ["1GDHGnQVp8MNUpVixahFG1VV3fKuZD6MGQ"], "asm": "OP_DUP OP_HASH160 a6dc7629fdb9d7bb6eadc77ca1d24d30c3d5b56c OP_EQUALVERIFY OP_CHECKSIG", "type": "pubkeyhash"}, "value": 0.0035984, "n": 1}], "hex": "01000000030536d2f841e35ff8f34947241474714c99876c412bf6e8abfd9ed09988793d21010000006b483045022100aaba5e920c9e7be09f02a3aeb156d81825682cc73ab5eb669371eaf669576ef902204d5c9a808a46a1576f62473cdd5c820e300875b2d6fd98ab014aaf031363155201210318e4e23aa46ea9edb0d719941f6b2ff61a7df503976db6bd3932600dbda0f688ffffffff445c01691c575a38cfa8e2d5a8e11b034b6a33c74d31d69a4d683487417c6b38220000006a47304402205aa59ded367728ea72b0bce16c6926873a47073b10d92d4082f333c5ccf15764022058188b137d733944ed542b9f55d961bb1191b396672797a4073747bc10ccc8650121021b0180598be10f8dc606fa563325b8df612f7c95093448aeac7bc98a6c3f1483ffffffffb08885ca4d21897145dbd33b8773993f7b9403911387f112d0e24dd6a07df0aa000000006a47304402204cd31bf5e11294d0c951e6bab88e6868600307d80dc5d364c7f74f3dc54433d10220543ad4e5375ca75c3fce727a3ccdc0c25f171427a3f3391430c23db9e872097e012102602677a27807f439762de244c5865138c26878def870ba54a38865e6b7e2568bffffffff02a6140000000000001976a9140bd237d3a54df7ea8ecebc21bcdebc1dedecb9b088aca07d0500000000001976a914a6dc7629fdb9d7bb6eadc77ca1d24d30c3d5b56c88ac00000000", "vin": [{"sequence": 4294967295, "scriptSig": {"hex": "483045022100aaba5e920c9e7be09f02a3aeb156d81825682cc73ab5eb669371eaf669576ef902204d5c9a808a46a1576f62473cdd5c820e300875b2d6fd98ab014aaf031363155201210318e4e23aa46ea9edb0d719941f6b2ff61a7df503976db6bd3932600dbda0f688", "asm": "3045022100aaba5e920c9e7be09f02a3aeb156d81825682cc73ab5eb669371eaf669576ef902204d5c9a808a46a1576f62473cdd5c820e300875b2d6fd98ab014aaf0313631552[ALL] 0318e4e23aa46ea9edb0d719941f6b2ff61a7df503976db6bd3932600dbda0f688"}, "vout": 1, "txid": "213d798899d09efdabe8f62b416c87994c717414244749f3f85fe341f8d23605"}, {"sequence": 4294967295, "scriptSig": {"hex": "47304402205aa59ded367728ea72b0bce16c6926873a47073b10d92d4082f333c5ccf15764022058188b137d733944ed542b9f55d961bb1191b396672797a4073747bc10ccc8650121021b0180598be10f8dc606fa563325b8df612f7c95093448aeac7bc98a6c3f1483", "asm": "304402205aa59ded367728ea72b0bce16c6926873a47073b10d92d4082f333c5ccf15764022058188b137d733944ed542b9f55d961bb1191b396672797a4073747bc10ccc865[ALL] 021b0180598be10f8dc606fa563325b8df612f7c95093448aeac7bc98a6c3f1483"}, "vout": 34, "txid": "386b7c418734684d9ad6314dc7336a4b031be1a8d5e2a8cf385a571c69015c44"}, {"sequence": 4294967295, "scriptSig": {"hex": "47304402204cd31bf5e11294d0c951e6bab88e6868600307d80dc5d364c7f74f3dc54433d10220543ad4e5375ca75c3fce727a3ccdc0c25f171427a3f3391430c23db9e872097e012102602677a27807f439762de244c5865138c26878def870ba54a38865e6b7e2568b", "asm": "304402204cd31bf5e11294d0c951e6bab88e6868600307d80dc5d364c7f74f3dc54433d10220543ad4e5375ca75c3fce727a3ccdc0c25f171427a3f3391430c23db9e872097e[ALL] 02602677a27807f439762de244c5865138c26878def870ba54a38865e6b7e2568b"}, "vout": 0, "txid": "aaf07da0d64de2d012f187139103947b3f9973873bd3db457189214dca8588b0"}], "txid": "54cc4b4a6651951ed439e51916e988a3855fb8af21323596ee85505e4bc0a7ed", "blocktime": 1537873282, "version": 1, "confirmations": 11484, "time": 1537873282, "locktime": 0, "vsize": 520, "size": 520}