{"hash": "54d4226bff8c4209cf2f280af56018627d0b0cc73d8fb2b736261ea5b0b8f027", "blockhash": "0000000000000000001cda96e906b7601b7a6fb1a3b62bca570a9e5d8f4b3de1", "vout": [{"scriptPubKey": {"reqSigs": 1, "hex": "76a914afc6b1db791a525500e4912af7388cc739d3cbc388ac", "addresses": ["1H2RH8BvsJwoF4omAjXiRnfy3EGYR9LQT9"], "asm": "OP_DUP OP_HASH160 afc6b1db791a525500e4912af7388cc739d3cbc3 OP_EQUALVERIFY OP_CHECKSIG", "type": "pubkeyhash"}, "value": 0.01314473, "n": 0}, {"scriptPubKey": {"reqSigs": 1, "hex": "76a914b7a836eedafe2fc92d15862e4af14b7fe66af90f88ac", "addresses": ["1Hk6ArpnuHpksAeueGCjXKqhVW93QSGpf9"], "asm": "OP_DUP OP_HASH160 b7a836eedafe2fc92d15862e4af14b7fe66af90f OP_EQUALVERIFY OP_CHECKSIG", "type": "pubkeyhash"}, "value": 1.24, "n": 1}], "hex": "0100000007ec9366471bd51d2f6b655544625505eaad10a96ed75361ee72bd97ac10cbe611010000006b483045022100c5e4d9375d17dea0ee56575971ab5bf572e537dad94a3e1e1aa7e8fbdda30ae20220416ca1e49985fc774748d2e352e525f8a90f09f3ca77beab6fc5f2141ef097760121027ba9c882b87c947265e95a0c584db2b20cba54369c4f4d185a43d6110a22cedbfdfffffff4a01f5390dfa96666325f00d1ce5aa6b689c20e157050ae9b3abde4dd3c3948020000006a473044022059e232d5fca6207f668f8f3f6ca8a21138f26701553081cc57bd51c5dc4ebaa202203451816e1884262c826f54c8c22f7f1fa221fecfda05c438d4dc5ce7a24c77c50121027ba9c882b87c947265e95a0c584db2b20cba54369c4f4d185a43d6110a22cedbfdffffffc3198827f6876a749e0c5c6ee3ec8083eef6680fc9b6667c15cc72f719abb149010000006b483045022100dc8757d1cddc480c0bba7af1836f56f8dc5723fc9079a226342588d7ec59267e02200f1b226200f905008035a2164f2a1d1b884a234e20cee3dcf7f0845e9ab5e40e0121027ba9c882b87c947265e95a0c584db2b20cba54369c4f4d185a43d6110a22cedbfdffffff25f38f64b18d114ab872df20eaefa6cda22a99386f510a9ef0ee42e47f89c783000000006a47304402205c2528acab2248ff32d0e8f772a56dca9d2c4d556be0e4b7c5f4cfd05ef1f8070220446455f2707eaeeebf6bbeed5a4caf1e1c2e4332cade501f4ebae18d5c995fa9012102fd0da5a332170bb17330434b4a0b303fb621bee556a04bde92a443c1a252cd08fdffffff1be2b2bd12c7a36c6acda0f021b4fb874721aeddd3cc2956fcbf5c477852c49f010000006a473044022078b333a2dc448e3dc398bf1fa1e618b9b42742ccab8bc32f4e2818ccb50ab8d802207417556e5d0bfa0ce418c76bb0c81550153e9745cea09cdad36888b845981a2f012102fd0da5a332170bb17330434b4a0b303fb621bee556a04bde92a443c1a252cd08fdffffff0a4bfa1fc5f13631d5f129ab9d9ef92695b9e662866df54a67742d19494af7e6000000006b4830450221009c52601beaed64fd0532a556a92abab0ebf28bd07baca56bd8e77fc2f182280802201f4f5b0e522ced08bc4de5c51c9b9f2b25a3d54af19e786d104c73d2571321720121027ba9c882b87c947265e95a0c584db2b20cba54369c4f4d185a43d6110a22cedbfdfffffff71d8661c81d13d48c4403b333f81f35d962b870f4e8cfba34240d18258134fa010000006b48304502210088386a9bc4205091780e6b4a1f163e18920d8546ba530da95571e4ff4680be5502206e6b6385c4646bbc2a11fa8e58966e3dce14d47b2542afb1f8b27035cace0d4c0121027ba9c882b87c947265e95a0c584db2b20cba54369c4f4d185a43d6110a22cedbfdffffff02a90e1400000000001976a914afc6b1db791a525500e4912af7388cc739d3cbc388ac00176407000000001976a914b7a836eedafe2fc92d15862e4af14b7fe66af90f88ac13490800", "vin": [{"sequence": 4294967293, "scriptSig": {"hex": "483045022100c5e4d9375d17dea0ee56575971ab5bf572e537dad94a3e1e1aa7e8fbdda30ae20220416ca1e49985fc774748d2e352e525f8a90f09f3ca77beab6fc5f2141ef097760121027ba9c882b87c947265e95a0c584db2b20cba54369c4f4d185a43d6110a22cedb", "asm": "3045022100c5e4d9375d17dea0ee56575971ab5bf572e537dad94a3e1e1aa7e8fbdda30ae20220416ca1e49985fc774748d2e352e525f8a90f09f3ca77beab6fc5f2141ef09776[ALL] 027ba9c882b87c947265e95a0c584db2b20cba54369c4f4d185a43d6110a22cedb"}, "vout": 1, "txid": "11e6cb10ac97bd72ee6153d76ea910adea0555624455656b2f1dd51b476693ec"}, {"sequence": 4294967293, "scriptSig": {"hex": "473044022059e232d5fca6207f668f8f3f6ca8a21138f26701553081cc57bd51c5dc4ebaa202203451816e1884262c826f54c8c22f7f1fa221fecfda05c438d4dc5ce7a24c77c50121027ba9c882b87c947265e95a0c584db2b20cba54369c4f4d185a43d6110a22cedb", "asm": "3044022059e232d5fca6207f668f8f3f6ca8a21138f26701553081cc57bd51c5dc4ebaa202203451816e1884262c826f54c8c22f7f1fa221fecfda05c438d4dc5ce7a24c77c5[ALL] 027ba9c882b87c947265e95a0c584db2b20cba54369c4f4d185a43d6110a22cedb"}, "vout": 2, "txid": "48393cdde4bd3a9bae5070150ec289b6a65aced1005f326666a9df90531fa0f4"}, {"sequence": 4294967293, "scriptSig": {"hex": "483045022100dc8757d1cddc480c0bba7af1836f56f8dc5723fc9079a226342588d7ec59267e02200f1b226200f905008035a2164f2a1d1b884a234e20cee3dcf7f0845e9ab5e40e0121027ba9c882b87c947265e95a0c584db2b20cba54369c4f4d185a43d6110a22cedb", "asm": "3045022100dc8757d1cddc480c0bba7af1836f56f8dc5723fc9079a226342588d7ec59267e02200f1b226200f905008035a2164f2a1d1b884a234e20cee3dcf7f0845e9ab5e40e[ALL] 027ba9c882b87c947265e95a0c584db2b20cba54369c4f4d185a43d6110a22cedb"}, "vout": 1, "txid": "49b1ab19f772cc157c66b6c90f68f6ee8380ece36e5c0c9e746a87f6278819c3"}, {"sequence": 4294967293, "scriptSig": {"hex": "47304402205c2528acab2248ff32d0e8f772a56dca9d2c4d556be0e4b7c5f4cfd05ef1f8070220446455f2707eaeeebf6bbeed5a4caf1e1c2e4332cade501f4ebae18d5c995fa9012102fd0da5a332170bb17330434b4a0b303fb621bee556a04bde92a443c1a252cd08", "asm": "304402205c2528acab2248ff32d0e8f772a56dca9d2c4d556be0e4b7c5f4cfd05ef1f8070220446455f2707eaeeebf6bbeed5a4caf1e1c2e4332cade501f4ebae18d5c995fa9[ALL] 02fd0da5a332170bb17330434b4a0b303fb621bee556a04bde92a443c1a252cd08"}, "vout": 0, "txid": "83c7897fe442eef09e0a516f38992aa2cda6efea20df72b84a118db1648ff325"}, {"sequence": 4294967293, "scriptSig": {"hex": "473044022078b333a2dc448e3dc398bf1fa1e618b9b42742ccab8bc32f4e2818ccb50ab8d802207417556e5d0bfa0ce418c76bb0c81550153e9745cea09cdad36888b845981a2f012102fd0da5a332170bb17330434b4a0b303fb621bee556a04bde92a443c1a252cd08", "asm": "3044022078b333a2dc448e3dc398bf1fa1e618b9b42742ccab8bc32f4e2818ccb50ab8d802207417556e5d0bfa0ce418c76bb0c81550153e9745cea09cdad36888b845981a2f[ALL] 02fd0da5a332170bb17330434b4a0b303fb621bee556a04bde92a443c1a252cd08"}, "vout": 1, "txid": "9fc45278475cbffc5629ccd3ddae214787fbb421f0a0cd6a6ca3c712bdb2e21b"}, {"sequence": 4294967293, "scriptSig": {"hex": "4830450221009c52601beaed64fd0532a556a92abab0ebf28bd07baca56bd8e77fc2f182280802201f4f5b0e522ced08bc4de5c51c9b9f2b25a3d54af19e786d104c73d2571321720121027ba9c882b87c947265e95a0c584db2b20cba54369c4f4d185a43d6110a22cedb", "asm": "30450221009c52601beaed64fd0532a556a92abab0ebf28bd07baca56bd8e77fc2f182280802201f4f5b0e522ced08bc4de5c51c9b9f2b25a3d54af19e786d104c73d257132172[ALL] 027ba9c882b87c947265e95a0c584db2b20cba54369c4f4d185a43d6110a22cedb"}, "vout": 0, "txid": "e6f74a49192d74674af56d8662e6b99526f99e9dab29f1d53136f1c51ffa4b0a"}, {"sequence": 4294967293, "scriptSig": {"hex": "48304502210088386a9bc4205091780e6b4a1f163e18920d8546ba530da95571e4ff4680be5502206e6b6385c4646bbc2a11fa8e58966e3dce14d47b2542afb1f8b27035cace0d4c0121027ba9c882b87c947265e95a0c584db2b20cba54369c4f4d185a43d6110a22cedb", "asm": "304502210088386a9bc4205091780e6b4a1f163e18920d8546ba530da95571e4ff4680be5502206e6b6385c4646bbc2a11fa8e58966e3dce14d47b2542afb1f8b27035cace0d4c[ALL] 027ba9c882b87c947265e95a0c584db2b20cba54369c4f4d185a43d6110a22cedb"}, "vout": 1, "txid": "fa348125180d2434bacfe8f470b862d9351ff833b303448cd4131dc861861df7"}], "txid": "54d4226bff8c4209cf2f280af56018627d0b0cc73d8fb2b736261ea5b0b8f027", "blocktime": 1537873282, "version": 1, "confirmations": 11484, "time": 1537873282, "locktime": 542995, "vsize": 1111, "size": 1111}