{"hash": "54d680823589f8f5f221b6863ef922916665834eef2b86172eb5968879725387", "blockhash": "000000000000000000022b45ed06c6f4ccd3cf7fb5ba4856ebd2e58215665228", "vout": [{"scriptPubKey": {"reqSigs": 1, "hex": "76a9145273bbe21b50368ee45c310e3a5256bb5ebae98988ac", "addresses": ["18Wy44hTcfRgDwSYvurqjafmmJpXvriSxf"], "asm": "OP_DUP OP_HASH160 5273bbe21b50368ee45c310e3a5256bb5ebae989 OP_EQUALVERIFY OP_CHECKSIG", "type": "pubkeyhash"}, "value": 0.0274, "n": 0}, {"scriptPubKey": {"reqSigs": 1, "hex": "76a914a967746a0499a09103821b8facf7eacffd6d9e3a88ac", "addresses": ["1GSj8ah5s9fFBLjotSSSy8yLY5NrjgSzdc"], "asm": "OP_DUP OP_HASH160 a967746a0499a09103821b8facf7eacffd6d9e3a OP_EQUALVERIFY OP_CHECKSIG", "type": "pubkeyhash"}, "value": 0.00880857, "n": 1}], "hex": "020000000172fdbe4b70e15095c8c8a34c3e7167c49c6c6b435d4791eced58a07abd4b6cd3010000006b483045022100edcc50c3f81cf54d82912f089de983feb3d9e48aa9f8ba8cb8ba8282b5056725022006d91174747b5b043c1312b7e2e95629849873d925670a9dec6a1a626b772e03012102ab785a698a08e294afa264fa9692831da6d80bee335f8c58d35c821a3c9e1837feffffff0220cf2900000000001976a9145273bbe21b50368ee45c310e3a5256bb5ebae98988acd9700d00000000001976a914a967746a0499a09103821b8facf7eacffd6d9e3a88ac0b490800", "vin": [{"sequence": 4294967294, "scriptSig": {"hex": "483045022100edcc50c3f81cf54d82912f089de983feb3d9e48aa9f8ba8cb8ba8282b5056725022006d91174747b5b043c1312b7e2e95629849873d925670a9dec6a1a626b772e03012102ab785a698a08e294afa264fa9692831da6d80bee335f8c58d35c821a3c9e1837", "asm": "3045022100edcc50c3f81cf54d82912f089de983feb3d9e48aa9f8ba8cb8ba8282b5056725022006d91174747b5b043c1312b7e2e95629849873d925670a9dec6a1a626b772e03[ALL] 02ab785a698a08e294afa264fa9692831da6d80bee335f8c58d35c821a3c9e1837"}, "vout": 1, "txid": "d36c4bbd7aa058edec91475d436b6c9cc467713e4ca3c8c89550e1704bbefd72"}], "txid": "54d680823589f8f5f221b6863ef922916665834eef2b86172eb5968879725387", "blocktime": 1537869901, "version": 2, "confirmations": 11523, "time": 1537869901, "locktime": 542987, "vsize": 226, "size": 226}