{"hash": "54df6ad68f9f61485e33f583ed0460efbe3682c7e9173ffc3a6a73f504b71139", "blockhash": "00000000000000000017f5eb5941039fbcee6240d03bc1f2f8e35350df66a1d8", "vout": [{"scriptPubKey": {"reqSigs": 1, "hex": "76a914a682b714d38ad193bb779952593702ac1bde842988ac", "addresses": ["1GBRm6NA18T3GBzU5uebJpxdqy19WohHas"], "asm": "OP_DUP OP_HASH160 a682b714d38ad193bb779952593702ac1bde8429 OP_EQUALVERIFY OP_CHECKSIG", "type": "pubkeyhash"}, "value": 0.00031644, "n": 0}, {"scriptPubKey": {"reqSigs": 1, "hex": "a9142652692e600444c83fa84dfb4c6a44f6780edb7587", "addresses": ["35BeKqhkLYdELM1WaAsSP82xwGrpLwT2Nw"], "asm": "OP_HASH160 2652692e600444c83fa84dfb4c6a44f6780edb75 OP_EQUAL", "type": "scripthash"}, "value": 0.00138, "n": 1}], "hex": "0100000001426724bb758bb88c2208dba6ef5b1702c32ec8cb6c3b9b78f15f457c05b5bc04000000006b4830450221008d80d2a550700e148b876ee4f94a9e6b07aa0c599ece130d98e4b5dd2852337a0220058659f045cbf34cb7d5fcc77c67443230fff402965841b8b20e04e690e3b1c20121036ca9beded437f52e217da57e3c2203afb214e7f271f49df0cb8a8325eadb02d8ffffffff029c7b0000000000001976a914a682b714d38ad193bb779952593702ac1bde842988ac101b02000000000017a9142652692e600444c83fa84dfb4c6a44f6780edb758700000000", "vin": [{"sequence": 4294967295, "scriptSig": {"hex": "4830450221008d80d2a550700e148b876ee4f94a9e6b07aa0c599ece130d98e4b5dd2852337a0220058659f045cbf34cb7d5fcc77c67443230fff402965841b8b20e04e690e3b1c20121036ca9beded437f52e217da57e3c2203afb214e7f271f49df0cb8a8325eadb02d8", "asm": "30450221008d80d2a550700e148b876ee4f94a9e6b07aa0c599ece130d98e4b5dd2852337a0220058659f045cbf34cb7d5fcc77c67443230fff402965841b8b20e04e690e3b1c2[ALL] 036ca9beded437f52e217da57e3c2203afb214e7f271f49df0cb8a8325eadb02d8"}, "vout": 0, "txid": "04bcb5057c455ff1789b3b6ccbc82ec302175befa6db08228cb88b75bb246742"}], "txid": "54df6ad68f9f61485e33f583ed0460efbe3682c7e9173ffc3a6a73f504b71139", "blocktime": 1537874412, "version": 1, "confirmations": 11467, "time": 1537874412, "locktime": 0, "vsize": 224, "size": 224}