{"hash": "54df9ad93a346e65c6433985d3e48c0eb165401f19f37fb402327243353a0992", "blockhash": "000000000000000000022b45ed06c6f4ccd3cf7fb5ba4856ebd2e58215665228", "vout": [{"scriptPubKey": {"reqSigs": 1, "hex": "76a9149c1234f2830fbe62270db8723cb35142ca62580088ac", "addresses": ["1FEEDxZZQpm18ooHtnZcsBjfn4NXVwMWqL"], "asm": "OP_DUP OP_HASH160 9c1234f2830fbe62270db8723cb35142ca625800 OP_EQUALVERIFY OP_CHECKSIG", "type": "pubkeyhash"}, "value": 0.1, "n": 0}, {"scriptPubKey": {"reqSigs": 1, "hex": "76a9148081937faf0056f767e31837c3bfd640e99232a888ac", "addresses": ["1CiUifXRNPrQH8J5MynetZWEKyHreJ3Zje"], "asm": "OP_DUP OP_HASH160 8081937faf0056f767e31837c3bfd640e99232a8 OP_EQUALVERIFY OP_CHECKSIG", "type": "pubkeyhash"}, "value": 0.134995, "n": 1}], "hex": "0100000001e35b438519bb3f84ca65095c1c33eae31a31e8207283135a6f4e8bbef49f5af3000000006a473044022075dd0c622ac457ad7c6746861461e51f5bcf86f4dc02c11f229483cf9d48d7fd02200986f581da0df0691808faaf897a08e7a36b5e2a4a831c8fcae12c665b5a12a2012102d49323b2b08785bf1864e5c2bf80d807f6606f320e1876e86443b7f51d5c571affffffff0280969800000000001976a9149c1234f2830fbe62270db8723cb35142ca62580088ac6cfccd00000000001976a9148081937faf0056f767e31837c3bfd640e99232a888ac00000000", "vin": [{"sequence": 4294967295, "scriptSig": {"hex": "473044022075dd0c622ac457ad7c6746861461e51f5bcf86f4dc02c11f229483cf9d48d7fd02200986f581da0df0691808faaf897a08e7a36b5e2a4a831c8fcae12c665b5a12a2012102d49323b2b08785bf1864e5c2bf80d807f6606f320e1876e86443b7f51d5c571a", "asm": "3044022075dd0c622ac457ad7c6746861461e51f5bcf86f4dc02c11f229483cf9d48d7fd02200986f581da0df0691808faaf897a08e7a36b5e2a4a831c8fcae12c665b5a12a2[ALL] 02d49323b2b08785bf1864e5c2bf80d807f6606f320e1876e86443b7f51d5c571a"}, "vout": 0, "txid": "f35a9ff4be8b4e6f5a13837220e8311ae3ea331c5c0965ca843fbb1985435be3"}], "txid": "54df9ad93a346e65c6433985d3e48c0eb165401f19f37fb402327243353a0992", "blocktime": 1537869901, "version": 1, "confirmations": 11524, "time": 1537869901, "locktime": 0, "vsize": 225, "size": 225}