{"hash": "54e0c335834326be1adda572648df05edf0499a8fe78b8dbb537725444d13985", "blockhash": "0000000000000000000e13cef7c366c0283d82e591d1acd082e914b08063cdf1", "vout": [{"scriptPubKey": {"type": "nulldata", "hex": "6a4c500000778f0001e7a456ce0cb83b3484133e3ee3ef3236678a625097bcbefa6b8351586b4ef3d5191c4765e120d4619b974c49561c5baa0c760613d73ccb0eebaebc9a9526289ac0f6612cd74e33776ee4", "asm": "OP_RETURN 0000778f0001e7a456ce0cb83b3484133e3ee3ef3236678a625097bcbefa6b8351586b4ef3d5191c4765e120d4619b974c49561c5baa0c760613d73ccb0eebaebc9a9526289ac0f6612cd74e33776ee4"}, "value": 0.0, "n": 0}, {"scriptPubKey": {"reqSigs": 1, "hex": "76a9147a7f10eb19c6405ebbc25ebd3e095476669a0a8888ac", "addresses": ["1CAhf7NViTA41VF7AfLMfuew1gzGcV8qbS"], "asm": "OP_DUP OP_HASH160 7a7f10eb19c6405ebbc25ebd3e095476669a0a88 OP_EQUALVERIFY OP_CHECKSIG", "type": "pubkeyhash"}, "value": 0.0223952, "n": 1}], "hex": "010000000117ab612c4f9c6007e9fc752de7ad2490c6ff438d74a5eb883e3a59c45903e715010000006a4730440220469ab3c430eee98e126dcc44857b6c13229939303d5b07e6fcd8cf0f7cda7a79022018fe5c5eff14fd77dc134946d79b8495e60422e877f48a847486b1c62f42afdd012103c9618bfc0a6c951be75653859857e1eef0848f7cd598b366439343405ff63b94ffffffff020000000000000000536a4c500000778f0001e7a456ce0cb83b3484133e3ee3ef3236678a625097bcbefa6b8351586b4ef3d5191c4765e120d4619b974c49561c5baa0c760613d73ccb0eebaebc9a9526289ac0f6612cd74e33776ee4202c2200000000001976a9147a7f10eb19c6405ebbc25ebd3e095476669a0a8888ac00000000", "vin": [{"sequence": 4294967295, "scriptSig": {"hex": "4730440220469ab3c430eee98e126dcc44857b6c13229939303d5b07e6fcd8cf0f7cda7a79022018fe5c5eff14fd77dc134946d79b8495e60422e877f48a847486b1c62f42afdd012103c9618bfc0a6c951be75653859857e1eef0848f7cd598b366439343405ff63b94", "asm": "30440220469ab3c430eee98e126dcc44857b6c13229939303d5b07e6fcd8cf0f7cda7a79022018fe5c5eff14fd77dc134946d79b8495e60422e877f48a847486b1c62f42afdd[ALL] 03c9618bfc0a6c951be75653859857e1eef0848f7cd598b366439343405ff63b94"}, "vout": 1, "txid": "15e70359c4593a3e88eba5748d43ffc69024ade72d75fce907609c4f2c61ab17"}], "txid": "54e0c335834326be1adda572648df05edf0499a8fe78b8dbb537725444d13985", "blocktime": 1537871767, "version": 1, "confirmations": 11493, "time": 1537871767, "locktime": 0, "vsize": 283, "size": 283}