{"hash": "7d07025d9db6efb6c74519c672620c666d73cadcdce2d9ad6361fbb0bc42d5f1", "blockhash": "0000000000000000001f0ddff1eddb255c1121bcd4da4f1bc9a0da00cae72433", "vout": [{"scriptPubKey": {"reqSigs": 1, "hex": "a9141cb4cbb9977c9e3c3da0436d483ada64db69dd7787", "addresses": ["34JoRpwq5DvvSQZUdBQAyd4BjwgAGpqmWM"], "asm": "OP_HASH160 1cb4cbb9977c9e3c3da0436d483ada64db69dd77 OP_EQUAL", "type": "scripthash"}, "value": 0.01120031, "n": 0}, {"scriptPubKey": {"reqSigs": 1, "hex": "76a91434a7ae13e9d64e63f55f432b3c9c2298762819bd88ac", "addresses": ["15oR1awiQgwa8hidUpa7aME66VvBbguxaa"], "asm": "OP_DUP OP_HASH160 34a7ae13e9d64e63f55f432b3c9c2298762819bd OP_EQUALVERIFY OP_CHECKSIG", "type": "pubkeyhash"}, "value": 0.01160427, "n": 1}], "hex": "020000000001020464fa81d42e80a9611b6298c85dfe8bd4d1c79452b7ee57f8c77a7f7e4f7f600000000017160014782d40c0fc44cb430dff6d4d34633bac52421891fefffffff19d6c867a59622158200e1e45c779117f74c3563d732e9ef190562a818ffff700000000171600141070eaede93ee2ed5b29785927738fc461f2b325feffffff021f1711000000000017a9141cb4cbb9977c9e3c3da0436d483ada64db69dd7787ebb41100000000001976a91434a7ae13e9d64e63f55f432b3c9c2298762819bd88ac024730440220311aa001c4adfed67b6fa050ed3aa832fcfb75bcf8dee507dd1eeb4f1015594e02200fc347a31c1e367df7e3b3a273a902d175c960bba31fca3dd8e195fb428b58d8012103fb24cde85626aaff9a71e3d1959867a8d96e08b74819f94008b688936438f51a024730440220057f45e88d1fcedec49cb04e287ab2d05c1adc73a0f1afcc50a46d5250f5dd23022063cdedbae2931e845d52200bc16f82b47b5d021bc5cbd146420e2c462ab764b8012102e59f38527be2c6e5f029aeb9a683d75ca4b4f72a4807008f91db28d5cfaf15c711490800", "vin": [{"txinwitness": ["30440220311aa001c4adfed67b6fa050ed3aa832fcfb75bcf8dee507dd1eeb4f1015594e02200fc347a31c1e367df7e3b3a273a902d175c960bba31fca3dd8e195fb428b58d801", "03fb24cde85626aaff9a71e3d1959867a8d96e08b74819f94008b688936438f51a"], "sequence": 4294967294, "scriptSig": {"hex": "160014782d40c0fc44cb430dff6d4d34633bac52421891", "asm": "0014782d40c0fc44cb430dff6d4d34633bac52421891"}, "vout": 0, "txid": "607f4f7e7f7ac7f857eeb75294c7d1d48bfe5dc898621b61a9802ed481fa6404"}, {"txinwitness": ["30440220057f45e88d1fcedec49cb04e287ab2d05c1adc73a0f1afcc50a46d5250f5dd23022063cdedbae2931e845d52200bc16f82b47b5d021bc5cbd146420e2c462ab764b801", "02e59f38527be2c6e5f029aeb9a683d75ca4b4f72a4807008f91db28d5cfaf15c7"], "sequence": 4294967294, "scriptSig": {"hex": "1600141070eaede93ee2ed5b29785927738fc461f2b325", "asm": "00141070eaede93ee2ed5b29785927738fc461f2b325"}, "vout": 0, "txid": "f7ff8f812a5690f19e2e733d56c3747f1179c7451e0e20582162597a866c9df1"}], "txid": "54e4fe985887ff0e975daa5a7c1744b75ae274f33bf5e058cf6b2fd5e8b89486", "blocktime": 1537872018, "version": 2, "confirmations": 11489, "time": 1537872018, "locktime": 542993, "vsize": 258, "size": 420}