{"hash": "6fd6bcc959270d3be9b701ca0771e2b7c868c27cfabe2f1b7798856b5c554004", "blockhash": "0000000000000000000baef3f32e3676a92c3b2e5da21b426e4f302fc371ce76", "vout": [{"scriptPubKey": {"reqSigs": 1, "hex": "76a9140196c79c19a27825e393ae17499429497723ab1d88ac", "addresses": ["19QJYwzpd6QNjFsU8yaZ4b4ALaYtqTDKi"], "asm": "OP_DUP OP_HASH160 0196c79c19a27825e393ae17499429497723ab1d OP_EQUALVERIFY OP_CHECKSIG", "type": "pubkeyhash"}, "value": 0.00174031, "n": 0}, {"scriptPubKey": {"reqSigs": 1, "hex": "a9140be7846be16b05bea00dbec2fcd7e045a793cb1787", "addresses": ["32mxhko5mJHfkbkDPpz7SfdJwEJi21P1WK"], "asm": "OP_HASH160 0be7846be16b05bea00dbec2fcd7e045a793cb17 OP_EQUAL", "type": "scripthash"}, "value": 0.17522096, "n": 1}], "hex": "01000000000101336e5d1fa0e1835ca797fdf9a60b467e07f8469e4d74736d3cbaa2162e31a9d001000000232200202c66ece6da72bcbfeadf83a91236f4891c13e14d8ecebdcaa81666fc1aa73a31ffffffff02cfa70200000000001976a9140196c79c19a27825e393ae17499429497723ab1d88acb05d0b010000000017a9140be7846be16b05bea00dbec2fcd7e045a793cb17870400483045022100b23599c58d32785b847cb7d1e7f2c331367c8e812b65a07f467527544412377502206ff443fe5636093c42a7b228b872e7e5a951ec8834f3fc38021d1306a2d6959c01473044022018c3da2dc26ddbd1f1fa2ad80a51eca7044474da3fd344e905e2d3ae76a88fdc0220303fa65117633775cd58206ff05973142a01f736d498e4dd7e42da6a0537b4c201475221029e6fbb942d34a473faaa5557c1bfe08d72102f0b9754ad140fd369d7a3ba3cdc2103871fc2ca08e6950b38867e8e6a0e94ee625223d3aa0df5c65f414c6d784467e252ae00000000", "vin": [{"txinwitness": ["", "3045022100b23599c58d32785b847cb7d1e7f2c331367c8e812b65a07f467527544412377502206ff443fe5636093c42a7b228b872e7e5a951ec8834f3fc38021d1306a2d6959c01", "3044022018c3da2dc26ddbd1f1fa2ad80a51eca7044474da3fd344e905e2d3ae76a88fdc0220303fa65117633775cd58206ff05973142a01f736d498e4dd7e42da6a0537b4c201", "5221029e6fbb942d34a473faaa5557c1bfe08d72102f0b9754ad140fd369d7a3ba3cdc2103871fc2ca08e6950b38867e8e6a0e94ee625223d3aa0df5c65f414c6d784467e252ae"], "sequence": 4294967295, "scriptSig": {"hex": "2200202c66ece6da72bcbfeadf83a91236f4891c13e14d8ecebdcaa81666fc1aa73a31", "asm": "00202c66ece6da72bcbfeadf83a91236f4891c13e14d8ecebdcaa81666fc1aa73a31"}, "vout": 1, "txid": "d0a9312e16a2ba3c6d73744d9e46f8077e460ba6f9fd97a75c83e1a01f5d6e33"}], "txid": "54e8da9622e5e25deba48bcf290e14b0d872f3153fa61d0188120a831efb9e8a", "blocktime": 1537876114, "version": 1, "confirmations": 11462, "time": 1537876114, "locktime": 0, "vsize": 208, "size": 373}