{"hash": "54ebbc8e6d0307dba98594624f4c09e0989f3d0162b1f7dea0193237040dbc8f", "blockhash": "0000000000000000001f0ddff1eddb255c1121bcd4da4f1bc9a0da00cae72433", "vout": [{"scriptPubKey": {"reqSigs": 1, "hex": "a914b7e3c0c60e6255de6e590877b7ccc32fb4ef2ced87", "addresses": ["3JTLRCudxjGNTC7rNW5ouLqsYkYQZyap3x"], "asm": "OP_HASH160 b7e3c0c60e6255de6e590877b7ccc32fb4ef2ced OP_EQUAL", "type": "scripthash"}, "value": 0.03437, "n": 0}, {"scriptPubKey": {"reqSigs": 1, "hex": "a914e370231feecbfc25e2e2423a5a79bf79bfdca59887", "addresses": ["3NRbeX3vD5VaVE4TDU9ivCDsEf7NPPte6J"], "asm": "OP_HASH160 e370231feecbfc25e2e2423a5a79bf79bfdca598 OP_EQUAL", "type": "scripthash"}, "value": 3.35521389, "n": 1}], "hex": "01000000019a257ab194409d35caecd8dacb2511c3df810398e5e99b86bbc9d864c07e29ae01000000db00483045022100e8178df64e2aa3b3b7d4a9cc33a2c72b62f4f9b29ca3e1e874389c4f8fa2e65202204913320e78a229fd4aa03b0efbeff2316a1fa7f05c6dfff11e6e748ef140c081014830450221009eec8b93076fe30cdb0f81fd3c1e0fd6452dbe75296f69e343df4b6613ddecf902200f6e11640c7c6138563c14725e17bf7d711bfb648f3cc71521c504ee395e25b1014752210327881b6abce6535553a3ce21fad12a7d74fd237ce7c4cd270a267162344e3082210256141f8eb687f5a68c5cc65054652dc25116fa285e44d72b44368827ffe77d9a52aeffffffff02c87134000000000017a914b7e3c0c60e6255de6e590877b7ccc32fb4ef2ced876da6ff130000000017a914e370231feecbfc25e2e2423a5a79bf79bfdca5988700000000", "vin": [{"sequence": 4294967295, "scriptSig": {"hex": "00483045022100e8178df64e2aa3b3b7d4a9cc33a2c72b62f4f9b29ca3e1e874389c4f8fa2e65202204913320e78a229fd4aa03b0efbeff2316a1fa7f05c6dfff11e6e748ef140c081014830450221009eec8b93076fe30cdb0f81fd3c1e0fd6452dbe75296f69e343df4b6613ddecf902200f6e11640c7c6138563c14725e17bf7d711bfb648f3cc71521c504ee395e25b1014752210327881b6abce6535553a3ce21fad12a7d74fd237ce7c4cd270a267162344e3082210256141f8eb687f5a68c5cc65054652dc25116fa285e44d72b44368827ffe77d9a52ae", "asm": "0 3045022100e8178df64e2aa3b3b7d4a9cc33a2c72b62f4f9b29ca3e1e874389c4f8fa2e65202204913320e78a229fd4aa03b0efbeff2316a1fa7f05c6dfff11e6e748ef140c081[ALL] 30450221009eec8b93076fe30cdb0f81fd3c1e0fd6452dbe75296f69e343df4b6613ddecf902200f6e11640c7c6138563c14725e17bf7d711bfb648f3cc71521c504ee395e25b1[ALL] 52210327881b6abce6535553a3ce21fad12a7d74fd237ce7c4cd270a267162344e3082210256141f8eb687f5a68c5cc65054652dc25116fa285e44d72b44368827ffe77d9a52ae"}, "vout": 1, "txid": "ae297ec064d8c9bb869be9e5980381dfc31125cbdad8ecca359d4094b17a259a"}], "txid": "54ebbc8e6d0307dba98594624f4c09e0989f3d0162b1f7dea0193237040dbc8f", "blocktime": 1537872018, "version": 1, "confirmations": 11489, "time": 1537872018, "locktime": 0, "vsize": 334, "size": 334}