{"hash": "c27911b1285266cf402170770238329164d21a74f02d2192fb41d0ae4ec18bfe", "blockhash": "0000000000000000001cda96e906b7601b7a6fb1a3b62bca570a9e5d8f4b3de1", "vout": [{"scriptPubKey": {"reqSigs": 1, "hex": "a914148df6d6e325be9d9f3f026d6c8a7ca69305481887", "addresses": ["33ZhWE82eYEhxJ5xcsoK6AYBDY3dE4BQtM"], "asm": "OP_HASH160 148df6d6e325be9d9f3f026d6c8a7ca693054818 OP_EQUAL", "type": "scripthash"}, "value": 38.3576104, "n": 0}, {"scriptPubKey": {"reqSigs": 1, "hex": "a914f5f8aae699a90f7a6a3263f0ccf002669445421f87", "addresses": ["3Q7bNGXyhbzDDgsqFe9Xp7wufVR5tiKjgW"], "asm": "OP_HASH160 f5f8aae699a90f7a6a3263f0ccf002669445421f OP_EQUAL", "type": "scripthash"}, "value": 0.02170505, "n": 1}], "hex": "020000000001018491edcf87173e33dddcec4c3b79cf7ffb08083302edf590fa272444db3f035a000000001716001498e4ae6188df7711ffcf1e79b4556c5ca246550afeffffff029011a1e40000000017a914148df6d6e325be9d9f3f026d6c8a7ca69305481887891e21000000000017a914f5f8aae699a90f7a6a3263f0ccf002669445421f8702473044022019db73e505f93e69ccb8b1f322b28607fd846783b9342092de46bbdf22487a8302207db2958d245be41c8f69a725d1db5a3a4cd7956c7b6359c49216e676fc7e1601012103178ceb9faf9e5bd9624b0336c15f078b5664a5b8d66c320a3dddc2268a2cb0a513490800", "vin": [{"txinwitness": ["3044022019db73e505f93e69ccb8b1f322b28607fd846783b9342092de46bbdf22487a8302207db2958d245be41c8f69a725d1db5a3a4cd7956c7b6359c49216e676fc7e160101", "03178ceb9faf9e5bd9624b0336c15f078b5664a5b8d66c320a3dddc2268a2cb0a5"], "sequence": 4294967294, "scriptSig": {"hex": "16001498e4ae6188df7711ffcf1e79b4556c5ca246550a", "asm": "001498e4ae6188df7711ffcf1e79b4556c5ca246550a"}, "vout": 0, "txid": "5a033fdb442427fa90f5ed02330808fb7fcf793b4cecdcdd333e1787cfed9184"}], "txid": "54f1bf1a5daa06754de7425d8ad21b08a260c574181c089e0a58cdeba355ac0f", "blocktime": 1537873282, "version": 2, "confirmations": 11480, "time": 1537873282, "locktime": 542995, "vsize": 166, "size": 247}