{"hash": "54fbafc477796d4d73ee92b3a83f8986acf19183252cf35ac105ff4c3925b1cb", "blockhash": "0000000000000000000e13cef7c366c0283d82e591d1acd082e914b08063cdf1", "vout": [{"scriptPubKey": {"reqSigs": 1, "hex": "76a914335187a4b59070a5fe789cab1b3efce5a3ff9f6688ac", "addresses": ["15gM8aUTShBrNfu9Yay8Mw3sFaJYwAu2Ka"], "asm": "OP_DUP OP_HASH160 335187a4b59070a5fe789cab1b3efce5a3ff9f66 OP_EQUALVERIFY OP_CHECKSIG", "type": "pubkeyhash"}, "value": 0.04205602, "n": 0}], "hex": "01000000081cf0ae3dd68c23edc40f035c7a388d35c6f2ffa7bf3c1c281ea4b4656d9d534c010000006b483045022100eee3b5effd325afcd7e01c949b3288660ef84f4ea7b93d99a8070aff942a2f340220241ec81633bf480637db3cdbd0dbf878c8243161f52af50463cd3b0e1a43c19d012103828a7e541cfa6ef6456f0dd123f4b7a15e647f6e9b2c0b39d91abd79fda980f3ffffffff6afb4504927c3b7a89184cbf34e41030d4176dbd4e89e1032d91d515029186f3010000006b483045022100c99e47acd09fca22294f2dc336ce58595b6150011243043f6cfca173c94b28d302207532a37421d2a7be71bfaafa129adfdedecb97aa59c8ecfa64fd949457ab005f012103677dcd308fa5ff9a55b1565c800097a1c6d259e1d08816afe08823eb230dc3b0ffffffffc02265e3952888c2f025217374df0b33c625c0e7bb45b1436016f8175c2b3417000000006b483045022100df609ebae4e211cae683c39b20a851bb86c6407adaa4b072b65739f6930f55b802203321b17db39d002abefb64ff1983204618a75fa6cafc0ae45bf156c613125b9f0121032e15f0e1a68c87aab5ed8f50907534e473ba11a384279f81032087d52d8c7f19ffffffffa91937105d1b8c947ed3e256fb80906daba7f2bed4f55fa6b2219d6b657e8be1050000006b483045022100d1fc5b78a63a79ab910050ab8d5598f9ab62fe5dd53c33aa9bdcf210647cd3b40220778441d02357d85d9c00d2943517e86ea2f25137cd16bb888144a31acda0ca6f012103521f1224182e5b7c2fed09fdad7e16b611019fa585d2bb23701fa09e5c0d3828ffffffff4210b7499dd72553291745982eb679d8e71173b7d34f59e965cc6acec4c88e10040000006a473044022010a90edf5ea7a4a7b8fa1f67c2c8f6daaef16f8143d9d195067cec218f82dee302205072c6a6cebd33abc354a76c507945dd5a66b113b57d745c1a622bfc61963713012102db232f3ad723564f03098f5982ae0ddf8e2d5860120dace691c04aa420fd1b77ffffffffc9b408922267f5b3a117bcec60a752c6b7289fd1380266090b5696574c0e260d060000006b483045022100a1c68cc489ace1d785485f727f0d4bdefcc79b66c561c533b3914c612d736792022059130fd5a005455b236118bb3e3aa0721f7d3b076e7e6e64497a1f2c33dcfe2b012103c38cafcc2e3273bc70fc27adedad6640d359674cc9c8a5d22669ecd2fc2e877dffffffffef2050cc964280e19cf146d3157616ce2fd85aaf06f9edbddaf9a31e30d028b5000000006a47304402203bf1c246fd1cf1b7a491d1766133b82c63433b7f8158fa5e17e5e029afa5b174022064bae4613f0de106e8cbaef8b2a3e4f87a41243b162e8b36a3278294eab90b890121021c86fbf19a7d85a0b071de0c9fcaaf17574a6ecc3d4454a6230d076392eb270effffffff6025283162f36e7b775e7ddaea546d7f8f7b6963d39881d76b4045ea1376e787010000006a473044022009f77029e31fae509e5cc19c1210d158f67004d02b40dd6b8cdb6a0320725de802204d79ba854f68d8bddcae951460c642a31bc1e98a71d3e1a0aa93f05f0fdd16600121027925bd46ebcc14f1d816ef99cced8a4fe09674302232e63e9b9898d420edd22affffffff01222c4000000000001976a914335187a4b59070a5fe789cab1b3efce5a3ff9f6688ac00000000", "vin": [{"sequence": 4294967295, "scriptSig": {"hex": "483045022100eee3b5effd325afcd7e01c949b3288660ef84f4ea7b93d99a8070aff942a2f340220241ec81633bf480637db3cdbd0dbf878c8243161f52af50463cd3b0e1a43c19d012103828a7e541cfa6ef6456f0dd123f4b7a15e647f6e9b2c0b39d91abd79fda980f3", "asm": "3045022100eee3b5effd325afcd7e01c949b3288660ef84f4ea7b93d99a8070aff942a2f340220241ec81633bf480637db3cdbd0dbf878c8243161f52af50463cd3b0e1a43c19d[ALL] 03828a7e541cfa6ef6456f0dd123f4b7a15e647f6e9b2c0b39d91abd79fda980f3"}, "vout": 1, "txid": "4c539d6d65b4a41e281c3cbfa7fff2c6358d387a5c030fc4ed238cd63daef01c"}, {"sequence": 4294967295, "scriptSig": {"hex": "483045022100c99e47acd09fca22294f2dc336ce58595b6150011243043f6cfca173c94b28d302207532a37421d2a7be71bfaafa129adfdedecb97aa59c8ecfa64fd949457ab005f012103677dcd308fa5ff9a55b1565c800097a1c6d259e1d08816afe08823eb230dc3b0", "asm": "3045022100c99e47acd09fca22294f2dc336ce58595b6150011243043f6cfca173c94b28d302207532a37421d2a7be71bfaafa129adfdedecb97aa59c8ecfa64fd949457ab005f[ALL] 03677dcd308fa5ff9a55b1565c800097a1c6d259e1d08816afe08823eb230dc3b0"}, "vout": 1, "txid": "f386910215d5912d03e1894ebd6d17d43010e434bf4c18897a3b7c920445fb6a"}, {"sequence": 4294967295, "scriptSig": {"hex": "483045022100df609ebae4e211cae683c39b20a851bb86c6407adaa4b072b65739f6930f55b802203321b17db39d002abefb64ff1983204618a75fa6cafc0ae45bf156c613125b9f0121032e15f0e1a68c87aab5ed8f50907534e473ba11a384279f81032087d52d8c7f19", "asm": "3045022100df609ebae4e211cae683c39b20a851bb86c6407adaa4b072b65739f6930f55b802203321b17db39d002abefb64ff1983204618a75fa6cafc0ae45bf156c613125b9f[ALL] 032e15f0e1a68c87aab5ed8f50907534e473ba11a384279f81032087d52d8c7f19"}, "vout": 0, "txid": "17342b5c17f8166043b145bbe7c025c6330bdf74732125f0c2882895e36522c0"}, {"sequence": 4294967295, "scriptSig": {"hex": "483045022100d1fc5b78a63a79ab910050ab8d5598f9ab62fe5dd53c33aa9bdcf210647cd3b40220778441d02357d85d9c00d2943517e86ea2f25137cd16bb888144a31acda0ca6f012103521f1224182e5b7c2fed09fdad7e16b611019fa585d2bb23701fa09e5c0d3828", "asm": "3045022100d1fc5b78a63a79ab910050ab8d5598f9ab62fe5dd53c33aa9bdcf210647cd3b40220778441d02357d85d9c00d2943517e86ea2f25137cd16bb888144a31acda0ca6f[ALL] 03521f1224182e5b7c2fed09fdad7e16b611019fa585d2bb23701fa09e5c0d3828"}, "vout": 5, "txid": "e18b7e656b9d21b2a65ff5d4bef2a7ab6d9080fb56e2d37e948c1b5d103719a9"}, {"sequence": 4294967295, "scriptSig": {"hex": "473044022010a90edf5ea7a4a7b8fa1f67c2c8f6daaef16f8143d9d195067cec218f82dee302205072c6a6cebd33abc354a76c507945dd5a66b113b57d745c1a622bfc61963713012102db232f3ad723564f03098f5982ae0ddf8e2d5860120dace691c04aa420fd1b77", "asm": "3044022010a90edf5ea7a4a7b8fa1f67c2c8f6daaef16f8143d9d195067cec218f82dee302205072c6a6cebd33abc354a76c507945dd5a66b113b57d745c1a622bfc61963713[ALL] 02db232f3ad723564f03098f5982ae0ddf8e2d5860120dace691c04aa420fd1b77"}, "vout": 4, "txid": "108ec8c4ce6acc65e9594fd3b77311e7d879b62e984517295325d79d49b71042"}, {"sequence": 4294967295, "scriptSig": {"hex": "483045022100a1c68cc489ace1d785485f727f0d4bdefcc79b66c561c533b3914c612d736792022059130fd5a005455b236118bb3e3aa0721f7d3b076e7e6e64497a1f2c33dcfe2b012103c38cafcc2e3273bc70fc27adedad6640d359674cc9c8a5d22669ecd2fc2e877d", "asm": "3045022100a1c68cc489ace1d785485f727f0d4bdefcc79b66c561c533b3914c612d736792022059130fd5a005455b236118bb3e3aa0721f7d3b076e7e6e64497a1f2c33dcfe2b[ALL] 03c38cafcc2e3273bc70fc27adedad6640d359674cc9c8a5d22669ecd2fc2e877d"}, "vout": 6, "txid": "0d260e4c5796560b09660238d19f28b7c652a760ecbc17a1b3f567229208b4c9"}, {"sequence": 4294967295, "scriptSig": {"hex": "47304402203bf1c246fd1cf1b7a491d1766133b82c63433b7f8158fa5e17e5e029afa5b174022064bae4613f0de106e8cbaef8b2a3e4f87a41243b162e8b36a3278294eab90b890121021c86fbf19a7d85a0b071de0c9fcaaf17574a6ecc3d4454a6230d076392eb270e", "asm": "304402203bf1c246fd1cf1b7a491d1766133b82c63433b7f8158fa5e17e5e029afa5b174022064bae4613f0de106e8cbaef8b2a3e4f87a41243b162e8b36a3278294eab90b89[ALL] 021c86fbf19a7d85a0b071de0c9fcaaf17574a6ecc3d4454a6230d076392eb270e"}, "vout": 0, "txid": "b528d0301ea3f9dabdedf906af5ad82fce167615d346f19ce1804296cc5020ef"}, {"sequence": 4294967295, "scriptSig": {"hex": "473044022009f77029e31fae509e5cc19c1210d158f67004d02b40dd6b8cdb6a0320725de802204d79ba854f68d8bddcae951460c642a31bc1e98a71d3e1a0aa93f05f0fdd16600121027925bd46ebcc14f1d816ef99cced8a4fe09674302232e63e9b9898d420edd22a", "asm": "3044022009f77029e31fae509e5cc19c1210d158f67004d02b40dd6b8cdb6a0320725de802204d79ba854f68d8bddcae951460c642a31bc1e98a71d3e1a0aa93f05f0fdd1660[ALL] 027925bd46ebcc14f1d816ef99cced8a4fe09674302232e63e9b9898d420edd22a"}, "vout": 1, "txid": "87e77613ea45406bd78198d363697b8f7f6d54eada7d5e777b6ef36231282560"}], "txid": "54fbafc477796d4d73ee92b3a83f8986acf19183252cf35ac105ff4c3925b1cb", "blocktime": 1537871767, "version": 1, "confirmations": 11492, "time": 1537871767, "locktime": 0, "vsize": 1225, "size": 1225}