{"hash": "5503439b2a62700a0325627b706e6399fd55909a7e6e969451f0004033c94281", "blockhash": "0000000000000000000baef3f32e3676a92c3b2e5da21b426e4f302fc371ce76", "vout": [{"scriptPubKey": {"reqSigs": 1, "hex": "76a914227a54c7e665f73fed46b2d92c2e69d84d55e64a88ac", "addresses": ["149JXEzjRNmj2LVZqrWRCzmpHbtCrL6nNH"], "asm": "OP_DUP OP_HASH160 227a54c7e665f73fed46b2d92c2e69d84d55e64a OP_EQUALVERIFY OP_CHECKSIG", "type": "pubkeyhash"}, "value": 0.01374664, "n": 0}, {"scriptPubKey": {"type": "nulldata", "hex": "6a4c500000781d0001ad42223ae4f35bb39ba81a5c019d6ddc0f1b8ff117702940d64fa54d8eb2e23c00c15bb4cc6028b3d7279f80780a5baa1cff0614a1619937fb38bc9a9526289ac0f6612cd74e33776ee4", "asm": "OP_RETURN 0000781d0001ad42223ae4f35bb39ba81a5c019d6ddc0f1b8ff117702940d64fa54d8eb2e23c00c15bb4cc6028b3d7279f80780a5baa1cff0614a1619937fb38bc9a9526289ac0f6612cd74e33776ee4"}, "value": 0.0, "n": 1}], "hex": "01000000010bfc255a7d20fe4c58a6298ce6ed382b98c4e55d1a3f805e02f838ec0f710d05010000006b483045022100ab61402b9c7090fce6a1ee0d81af522a246326e84d027dee798ea3711944446702205bde8d3e897372b1ec99528dae532d2a2f32c1e3fe7c78d876bc17fb9fbd4b0601210243d48196b4a227771805c341138663170efd7105e1b5c33e3fd82cbac70b3906ffffffff02c8f91400000000001976a914227a54c7e665f73fed46b2d92c2e69d84d55e64a88ac0000000000000000536a4c500000781d0001ad42223ae4f35bb39ba81a5c019d6ddc0f1b8ff117702940d64fa54d8eb2e23c00c15bb4cc6028b3d7279f80780a5baa1cff0614a1619937fb38bc9a9526289ac0f6612cd74e33776ee400000000", "vin": [{"sequence": 4294967295, "scriptSig": {"hex": "483045022100ab61402b9c7090fce6a1ee0d81af522a246326e84d027dee798ea3711944446702205bde8d3e897372b1ec99528dae532d2a2f32c1e3fe7c78d876bc17fb9fbd4b0601210243d48196b4a227771805c341138663170efd7105e1b5c33e3fd82cbac70b3906", "asm": "3045022100ab61402b9c7090fce6a1ee0d81af522a246326e84d027dee798ea3711944446702205bde8d3e897372b1ec99528dae532d2a2f32c1e3fe7c78d876bc17fb9fbd4b06[ALL] 0243d48196b4a227771805c341138663170efd7105e1b5c33e3fd82cbac70b3906"}, "vout": 1, "txid": "050d710fec38f8025e803f1a5de5c4982b38ede68c29a6584cfe207d5a25fc0b"}], "txid": "5503439b2a62700a0325627b706e6399fd55909a7e6e969451f0004033c94281", "blocktime": 1537876114, "version": 1, "confirmations": 11460, "time": 1537876114, "locktime": 0, "vsize": 284, "size": 284}