{"hash": "5507b99afc7efd577b094da529a79aeba7ba6b772e5215e468620b1112bcbbeb", "blockhash": "00000000000000000018f53835495a110e01622372bf6ae95dc86f2b0ab887b0", "vout": [{"scriptPubKey": {"reqSigs": 1, "hex": "76a91425f3044d1a358d0e893b34cdc13fa2b02dfcbba088ac", "addresses": ["14Tf8CfXj61E13UHJX4rYZur7hVtndgVw3"], "asm": "OP_DUP OP_HASH160 25f3044d1a358d0e893b34cdc13fa2b02dfcbba0 OP_EQUALVERIFY OP_CHECKSIG", "type": "pubkeyhash"}, "value": 0.11622118, "n": 0}, {"scriptPubKey": {"reqSigs": 1, "hex": "76a91451d1e30e1f00d560813b7f1693966696803ae9d888ac", "addresses": ["18TdAjp1xt7VKhTh9LCV6URJ5XfbjdyzpQ"], "asm": "OP_DUP OP_HASH160 51d1e30e1f00d560813b7f1693966696803ae9d8 OP_EQUALVERIFY OP_CHECKSIG", "type": "pubkeyhash"}, "value": 0.0154431, "n": 1}], "hex": "01000000013d854b5d15b6480baf5734b6068340fc03f970cc6ad1151587417780dbbdd94f000000006b483045022100e4c187a2f6ff84c12eb46e06f5d5c56a9d00b255fd670d15b5d14c9145c35eff022037a36deaa4823c798c8f4d509bfad326a222e6cc87ba79e8a131b44314f076a2012103e43f1e2615bf54ecf3acecb3847282b3eb54b1c4115641b07516ee593c2b4389ffffffff02e656b100000000001976a91425f3044d1a358d0e893b34cdc13fa2b02dfcbba088ac76901700000000001976a91451d1e30e1f00d560813b7f1693966696803ae9d888ac00000000", "vin": [{"sequence": 4294967295, "scriptSig": {"hex": "483045022100e4c187a2f6ff84c12eb46e06f5d5c56a9d00b255fd670d15b5d14c9145c35eff022037a36deaa4823c798c8f4d509bfad326a222e6cc87ba79e8a131b44314f076a2012103e43f1e2615bf54ecf3acecb3847282b3eb54b1c4115641b07516ee593c2b4389", "asm": "3045022100e4c187a2f6ff84c12eb46e06f5d5c56a9d00b255fd670d15b5d14c9145c35eff022037a36deaa4823c798c8f4d509bfad326a222e6cc87ba79e8a131b44314f076a2[ALL] 03e43f1e2615bf54ecf3acecb3847282b3eb54b1c4115641b07516ee593c2b4389"}, "vout": 0, "txid": "4fd9bddb807741871515d16acc70f903fc408306b63457af0b48b6155d4b853d"}], "txid": "5507b99afc7efd577b094da529a79aeba7ba6b772e5215e468620b1112bcbbeb", "blocktime": 1537870928, "version": 1, "confirmations": 11512, "time": 1537870928, "locktime": 0, "vsize": 226, "size": 226}