{"hash": "550a5f7526492acf6d7c91ced9d639380531e8921f694c39477487971d3b3c0b", "blockhash": "00000000000000000024a2167bbff67b0be802c0b01cdd79e6331c2be6459f87", "vout": [{"scriptPubKey": {"reqSigs": 1, "hex": "76a914e8cea30989bd15530f819b766684b00dc7ba7cfa88ac", "addresses": ["1NDyJtNTjmwk5xPNhjgAMu4HDHigtobu1s"], "asm": "OP_DUP OP_HASH160 e8cea30989bd15530f819b766684b00dc7ba7cfa OP_EQUALVERIFY OP_CHECKSIG", "type": "pubkeyhash"}, "value": 1.71229969, "n": 0}, {"scriptPubKey": {"reqSigs": 1, "hex": "76a9140120031037f86991f56130af6390707fb9db7b8a88ac", "addresses": ["16x2RVQYvsouEhmwSyNhvaaCnS1JcmZ5b"], "asm": "OP_DUP OP_HASH160 0120031037f86991f56130af6390707fb9db7b8a OP_EQUALVERIFY OP_CHECKSIG", "type": "pubkeyhash"}, "value": 0.00903454, "n": 1}], "hex": "02000000060c422872b43e2f30c39fdcf29426744f233468365c0577d1e83ec228ca8814aa030000006b483045022100b785cde3978b9f8da69738716034a6ab216d5da5634816baece01f0bd0b20b5f022018eff4b8f6263a9c247b26a78b8b81ba695113b7dfa77d0a866b72a1020ce21d0121024f5c5995752d7eb720bd720eb672762b87eda4f193e4128c2b40cc76af6370eefeffffff24d57e2b25dd4b0f83b7deb34dd071c9b96eab7f4c13b70d71ddd3aa9373f248010000006a47304402203dd95643b98986ece50a54c020e8edeed35d811b2fd4d5b65a92006c83645b8502207a0a1e5a6ad3896ebc4d1942e25c63b3da0feb037d13fc4527e25d3154724cea012102c6f53ecdfe5f10a3d518b058afde50f113958b259621cda3332b71a1b8903354feffffff28c1a03391e4b22e85e8c70533f3e301e11fad0d4e266d3a36e406dccacc5e41020000006b4830450221009ffee324fc94307791872f43458a4a43dd358f1874f78b2fcdca247a67f510fe0220647a9d2150dc3dab392a058d1fe161a1745636fbb2c6ed63e8ba9aa133dfbfa6012102fd5154f91309efd55cb83211addf3b601e32eb2c5b3b402605981e05814cfeeafeffffff60d382a0e327c5723b6662337f53a68a9bb5ae22d913d51f533442171db080e8000000006a473044022053e35b3cf6bb8aa0514395154a611e6f9493962b84b4f713c01d17a2f469766802201d43f5810db2866d56a3932c16d513ddbba6a8f165d6076e66d63c39f1434a560121035bc4d63345d67984d92fa97bf3bcafd3ef7863408e141d074aa10da68d457c6afeffffff99ce6c642e4c8177c23bce3bda038d6562e8bf7535da9e79b4c75ffbfe33ed79000000006a473044022051c5ccd4d3137200628672c2f8ca5b88360168571b6fe259729bed83daf197a802205cdb0a93c543c2bc328beb42b4cdc32c6023f07f8e5d60c1c863266d901f6b3a012103fcb2fba8b2f80571f2739327b87503822619547d0db29a553337412642ee03abfeffffffb7ad33cc3ba552348136d3154dd19d51a8c7bd3390da380e3cafd1fa797b7385590000006a473044022001832da97dc5225eb6e181cc883da5ef3ef896f3f3fff935963442a2c7838f90022075e4ab3de0d4e897c61890b528bffe5d1af5ad6e8846da3b89bb1f2c214f147b012103ccd71869849d757bebf744e587b4d700400a33168687cb4899ff308a32f33426feffffff0211c3340a000000001976a914e8cea30989bd15530f819b766684b00dc7ba7cfa88ac1ec90d00000000001976a9140120031037f86991f56130af6390707fb9db7b8a88ac0d490800", "vin": [{"sequence": 4294967294, "scriptSig": {"hex": "483045022100b785cde3978b9f8da69738716034a6ab216d5da5634816baece01f0bd0b20b5f022018eff4b8f6263a9c247b26a78b8b81ba695113b7dfa77d0a866b72a1020ce21d0121024f5c5995752d7eb720bd720eb672762b87eda4f193e4128c2b40cc76af6370ee", "asm": "3045022100b785cde3978b9f8da69738716034a6ab216d5da5634816baece01f0bd0b20b5f022018eff4b8f6263a9c247b26a78b8b81ba695113b7dfa77d0a866b72a1020ce21d[ALL] 024f5c5995752d7eb720bd720eb672762b87eda4f193e4128c2b40cc76af6370ee"}, "vout": 3, "txid": "aa1488ca28c23ee8d177055c366834234f742694f2dc9fc3302f3eb47228420c"}, {"sequence": 4294967294, "scriptSig": {"hex": "47304402203dd95643b98986ece50a54c020e8edeed35d811b2fd4d5b65a92006c83645b8502207a0a1e5a6ad3896ebc4d1942e25c63b3da0feb037d13fc4527e25d3154724cea012102c6f53ecdfe5f10a3d518b058afde50f113958b259621cda3332b71a1b8903354", "asm": "304402203dd95643b98986ece50a54c020e8edeed35d811b2fd4d5b65a92006c83645b8502207a0a1e5a6ad3896ebc4d1942e25c63b3da0feb037d13fc4527e25d3154724cea[ALL] 02c6f53ecdfe5f10a3d518b058afde50f113958b259621cda3332b71a1b8903354"}, "vout": 1, "txid": "48f27393aad3dd710db7134c7fab6eb9c971d04db3deb7830f4bdd252b7ed524"}, {"sequence": 4294967294, "scriptSig": {"hex": "4830450221009ffee324fc94307791872f43458a4a43dd358f1874f78b2fcdca247a67f510fe0220647a9d2150dc3dab392a058d1fe161a1745636fbb2c6ed63e8ba9aa133dfbfa6012102fd5154f91309efd55cb83211addf3b601e32eb2c5b3b402605981e05814cfeea", "asm": "30450221009ffee324fc94307791872f43458a4a43dd358f1874f78b2fcdca247a67f510fe0220647a9d2150dc3dab392a058d1fe161a1745636fbb2c6ed63e8ba9aa133dfbfa6[ALL] 02fd5154f91309efd55cb83211addf3b601e32eb2c5b3b402605981e05814cfeea"}, "vout": 2, "txid": "415ecccadc06e4363a6d264e0dad1fe101e3f33305c7e8852eb2e49133a0c128"}, {"sequence": 4294967294, "scriptSig": {"hex": "473044022053e35b3cf6bb8aa0514395154a611e6f9493962b84b4f713c01d17a2f469766802201d43f5810db2866d56a3932c16d513ddbba6a8f165d6076e66d63c39f1434a560121035bc4d63345d67984d92fa97bf3bcafd3ef7863408e141d074aa10da68d457c6a", "asm": "3044022053e35b3cf6bb8aa0514395154a611e6f9493962b84b4f713c01d17a2f469766802201d43f5810db2866d56a3932c16d513ddbba6a8f165d6076e66d63c39f1434a56[ALL] 035bc4d63345d67984d92fa97bf3bcafd3ef7863408e141d074aa10da68d457c6a"}, "vout": 0, "txid": "e880b01d174234531fd513d922aeb59b8aa6537f3362663b72c527e3a082d360"}, {"sequence": 4294967294, "scriptSig": {"hex": "473044022051c5ccd4d3137200628672c2f8ca5b88360168571b6fe259729bed83daf197a802205cdb0a93c543c2bc328beb42b4cdc32c6023f07f8e5d60c1c863266d901f6b3a012103fcb2fba8b2f80571f2739327b87503822619547d0db29a553337412642ee03ab", "asm": "3044022051c5ccd4d3137200628672c2f8ca5b88360168571b6fe259729bed83daf197a802205cdb0a93c543c2bc328beb42b4cdc32c6023f07f8e5d60c1c863266d901f6b3a[ALL] 03fcb2fba8b2f80571f2739327b87503822619547d0db29a553337412642ee03ab"}, "vout": 0, "txid": "79ed33fefb5fc7b4799eda3575bfe862658d03da3bce3bc277814c2e646cce99"}, {"sequence": 4294967294, "scriptSig": {"hex": "473044022001832da97dc5225eb6e181cc883da5ef3ef896f3f3fff935963442a2c7838f90022075e4ab3de0d4e897c61890b528bffe5d1af5ad6e8846da3b89bb1f2c214f147b012103ccd71869849d757bebf744e587b4d700400a33168687cb4899ff308a32f33426", "asm": "3044022001832da97dc5225eb6e181cc883da5ef3ef896f3f3fff935963442a2c7838f90022075e4ab3de0d4e897c61890b528bffe5d1af5ad6e8846da3b89bb1f2c214f147b[ALL] 03ccd71869849d757bebf744e587b4d700400a33168687cb4899ff308a32f33426"}, "vout": 89, "txid": "85737b79fad1af3c0e38da9033bdc7a8519dd14d15d336813452a53bcc33adb7"}], "txid": "550a5f7526492acf6d7c91ced9d639380531e8921f694c39477487971d3b3c0b", "blocktime": 1537870564, "version": 2, "confirmations": 11515, "time": 1537870564, "locktime": 542989, "vsize": 962, "size": 962}