{"hash": "550d5a32d8042e402191f2b4d24bb7edf68e43fa2b4a64dcef2fe035ff66c29a", "blockhash": "00000000000000000004ffacab907a6b429b9a5745fa0b75af4234bf69dd7176", "vout": [{"scriptPubKey": {"reqSigs": 1, "hex": "76a914c6a731657b6fe085bc275506c6333d5e8582b56288ac", "addresses": ["1K7P5kefJdpmA75xemSXicsmBgw8tpZdRu"], "asm": "OP_DUP OP_HASH160 c6a731657b6fe085bc275506c6333d5e8582b562 OP_EQUALVERIFY OP_CHECKSIG", "type": "pubkeyhash"}, "value": 0.42559069, "n": 0}], "hex": "0100000001f6ea47468073b6eefae74296fb7f29f10a26d4cc3a230b7542ff7b8502b1c7f6010000006b48304502210081db0c124f97cc242fd21b5779480744211cafb9d3de068823cc1084ad9355a702205d5dd42574070bacacbe5c0b3b18f2f8df8ccfd5f95f81e609295abb8d293c3a0121038d8a885ffe361b0633ca702e029364ef4bf1dac08b3fdd5e3282ded3622751dfffffffff015d668902000000001976a914c6a731657b6fe085bc275506c6333d5e8582b56288ac00000000", "vin": [{"sequence": 4294967295, "scriptSig": {"hex": "48304502210081db0c124f97cc242fd21b5779480744211cafb9d3de068823cc1084ad9355a702205d5dd42574070bacacbe5c0b3b18f2f8df8ccfd5f95f81e609295abb8d293c3a0121038d8a885ffe361b0633ca702e029364ef4bf1dac08b3fdd5e3282ded3622751df", "asm": "304502210081db0c124f97cc242fd21b5779480744211cafb9d3de068823cc1084ad9355a702205d5dd42574070bacacbe5c0b3b18f2f8df8ccfd5f95f81e609295abb8d293c3a[ALL] 038d8a885ffe361b0633ca702e029364ef4bf1dac08b3fdd5e3282ded3622751df"}, "vout": 1, "txid": "f6c7b102857bff42750b233accd4260af1297ffb9642e7faeeb673804647eaf6"}], "txid": "550d5a32d8042e402191f2b4d24bb7edf68e43fa2b4a64dcef2fe035ff66c29a", "blocktime": 1537875543, "version": 1, "confirmations": 11464, "time": 1537875543, "locktime": 0, "vsize": 192, "size": 192}