{"hash": "551308b99b9abe6ac936d8e829acdffcb38fda66e7d6706c16287b9a8c789370", "blockhash": "00000000000000000018f53835495a110e01622372bf6ae95dc86f2b0ab887b0", "vout": [{"scriptPubKey": {"reqSigs": 1, "hex": "76a91481a563961c04a26ce3e0b03fb5499602172ef54f88ac", "addresses": ["1CpWJBCsr7BoYXhu2m8WPMzP48HtCw432s"], "asm": "OP_DUP OP_HASH160 81a563961c04a26ce3e0b03fb5499602172ef54f OP_EQUALVERIFY OP_CHECKSIG", "type": "pubkeyhash"}, "value": 0.00117174, "n": 0}, {"scriptPubKey": {"reqSigs": 1, "hex": "76a914fdd7d6dc11623192c8061d8d90c6276734ac501d88ac", "addresses": ["1Q9CXJzhnE9orvVPyCJY6s2xCNjqXR7r74"], "asm": "OP_DUP OP_HASH160 fdd7d6dc11623192c8061d8d90c6276734ac501d OP_EQUALVERIFY OP_CHECKSIG", "type": "pubkeyhash"}, "value": 0.02889169, "n": 1}], "hex": "010000000123374804f23aa0aafddc9a1d89f7ea9098c0b3cf5009f46cc663e647a2d0c797010000006b483045022100dbb4704959610c7f3ae898e21f7c1010c1900f2021d01861c19f9b8e4a34b71e02204da93c07d93620a37d8391a7c4b9ce76491bb4e1c183c63f237bfb0a0b2d3b360121033d538fc8cda0285ec0e8cd06c791fca20e6667bc6d89e2c0195bf78a6a410794ffffffff02b6c90100000000001976a91481a563961c04a26ce3e0b03fb5499602172ef54f88acd1152c00000000001976a914fdd7d6dc11623192c8061d8d90c6276734ac501d88ac00000000", "vin": [{"sequence": 4294967295, "scriptSig": {"hex": "483045022100dbb4704959610c7f3ae898e21f7c1010c1900f2021d01861c19f9b8e4a34b71e02204da93c07d93620a37d8391a7c4b9ce76491bb4e1c183c63f237bfb0a0b2d3b360121033d538fc8cda0285ec0e8cd06c791fca20e6667bc6d89e2c0195bf78a6a410794", "asm": "3045022100dbb4704959610c7f3ae898e21f7c1010c1900f2021d01861c19f9b8e4a34b71e02204da93c07d93620a37d8391a7c4b9ce76491bb4e1c183c63f237bfb0a0b2d3b36[ALL] 033d538fc8cda0285ec0e8cd06c791fca20e6667bc6d89e2c0195bf78a6a410794"}, "vout": 1, "txid": "97c7d0a247e663c66cf40950cfb3c09890eaf7891d9adcfdaaa03af204483723"}], "txid": "551308b99b9abe6ac936d8e829acdffcb38fda66e7d6706c16287b9a8c789370", "blocktime": 1537870928, "version": 1, "confirmations": 11514, "time": 1537870928, "locktime": 0, "vsize": 226, "size": 226}