{"hash": "5515af2fabeb7f59a86f54cf8366a61d13fb7a03788114f1983841f2315faf42", "blockhash": "00000000000000000004ffacab907a6b429b9a5745fa0b75af4234bf69dd7176", "vout": [{"scriptPubKey": {"reqSigs": 1, "hex": "76a9148bcbc720f4db2f5477cf3fbbc79f434f45c1bb2788ac", "addresses": ["1DkB3Q3xb53dwhvTVPRC8EBdR1B8XiNFP1"], "asm": "OP_DUP OP_HASH160 8bcbc720f4db2f5477cf3fbbc79f434f45c1bb27 OP_EQUALVERIFY OP_CHECKSIG", "type": "pubkeyhash"}, "value": 7.609e-05, "n": 0}, {"scriptPubKey": {"reqSigs": 1, "hex": "76a9146e6c633129e7b4bfb4244226af59047a6819617788ac", "addresses": ["1B4sAzhDPgervnFt4L2DMWQ83EjnwkRhMX"], "asm": "OP_DUP OP_HASH160 6e6c633129e7b4bfb4244226af59047a68196177 OP_EQUALVERIFY OP_CHECKSIG", "type": "pubkeyhash"}, "value": 0.14280536, "n": 1}], "hex": "0100000001ff8fe3f9c5b6e87fa5636f4c879342c581e3594afe48c27e7219355bf44c1da0010000006a47304402201365769a5da4ad313a1acdaf550846b0e354b57d0f354060566d9c9971aaafbf022013a37f77d2c59ccb59e705fc8692dcae0583347d61ed00c1b171b81674fd68dc0121036c33e2cc85593c4f31e0dd9df0540c7e44a9a4c296e03c873063faf8c66e5a1affffffff02b91d0000000000001976a9148bcbc720f4db2f5477cf3fbbc79f434f45c1bb2788ac58e7d900000000001976a9146e6c633129e7b4bfb4244226af59047a6819617788ac00000000", "vin": [{"sequence": 4294967295, "scriptSig": {"hex": "47304402201365769a5da4ad313a1acdaf550846b0e354b57d0f354060566d9c9971aaafbf022013a37f77d2c59ccb59e705fc8692dcae0583347d61ed00c1b171b81674fd68dc0121036c33e2cc85593c4f31e0dd9df0540c7e44a9a4c296e03c873063faf8c66e5a1a", "asm": "304402201365769a5da4ad313a1acdaf550846b0e354b57d0f354060566d9c9971aaafbf022013a37f77d2c59ccb59e705fc8692dcae0583347d61ed00c1b171b81674fd68dc[ALL] 036c33e2cc85593c4f31e0dd9df0540c7e44a9a4c296e03c873063faf8c66e5a1a"}, "vout": 1, "txid": "a01d4cf45b3519727ec248fe4a59e381c54293874c6f63a57fe8b6c5f9e38fff"}], "txid": "5515af2fabeb7f59a86f54cf8366a61d13fb7a03788114f1983841f2315faf42", "blocktime": 1537875543, "version": 1, "confirmations": 11464, "time": 1537875543, "locktime": 0, "vsize": 225, "size": 225}