{"hash": "551dd6217511388cfec0fbb19870da8ce254f82de90f4d709414e2434c42cca9", "blockhash": "0000000000000000001cda96e906b7601b7a6fb1a3b62bca570a9e5d8f4b3de1", "vout": [{"scriptPubKey": {"type": "nulldata", "hex": "6a4c50000077c700016c535a3287fb36221fb713d25b23cc0f42c2fc38c5e5bf9ae76da98a211aa106f2130baf7bfe3da336a60ae474bc5baa139006128acde03ca004c288b2720c27cdda35b5f050e1b42260", "asm": "OP_RETURN 000077c700016c535a3287fb36221fb713d25b23cc0f42c2fc38c5e5bf9ae76da98a211aa106f2130baf7bfe3da336a60ae474bc5baa139006128acde03ca004c288b2720c27cdda35b5f050e1b42260"}, "value": 0.0, "n": 0}, {"scriptPubKey": {"reqSigs": 1, "hex": "76a9147073dbc18d853e9663dc1151d94c3aa328fa9bd188ac", "addresses": ["1BFbUUDjXns4rgdibBn1KUapjQite7czy6"], "asm": "OP_DUP OP_HASH160 7073dbc18d853e9663dc1151d94c3aa328fa9bd1 OP_EQUALVERIFY OP_CHECKSIG", "type": "pubkeyhash"}, "value": 0.0018999, "n": 1}], "hex": "010000000143f8317ff0fea40dcb9ee6fafcba380c3e1a77f96bb3032a2484f764ea3912f4010000006b483045022100f371a19e82ccf7a14ecf5bd81013a07091ba7a3dc0ce0d768202954f6057ed62022030404e7863bfe78104cdc02072386f0b17169e51ef83e14af9f299562dcaf93c012103eb7d8e968024933290f65b5800afb2c8f40f1e14ec1590cc8ba3382901f9897affffffff020000000000000000536a4c50000077c700016c535a3287fb36221fb713d25b23cc0f42c2fc38c5e5bf9ae76da98a211aa106f2130baf7bfe3da336a60ae474bc5baa139006128acde03ca004c288b2720c27cdda35b5f050e1b4226026e60200000000001976a9147073dbc18d853e9663dc1151d94c3aa328fa9bd188ac00000000", "vin": [{"sequence": 4294967295, "scriptSig": {"hex": "483045022100f371a19e82ccf7a14ecf5bd81013a07091ba7a3dc0ce0d768202954f6057ed62022030404e7863bfe78104cdc02072386f0b17169e51ef83e14af9f299562dcaf93c012103eb7d8e968024933290f65b5800afb2c8f40f1e14ec1590cc8ba3382901f9897a", "asm": "3045022100f371a19e82ccf7a14ecf5bd81013a07091ba7a3dc0ce0d768202954f6057ed62022030404e7863bfe78104cdc02072386f0b17169e51ef83e14af9f299562dcaf93c[ALL] 03eb7d8e968024933290f65b5800afb2c8f40f1e14ec1590cc8ba3382901f9897a"}, "vout": 1, "txid": "f41239ea64f784242a03b36bf9771a3e0c38bafcfae69ecb0da4fef07f31f843"}], "txid": "551dd6217511388cfec0fbb19870da8ce254f82de90f4d709414e2434c42cca9", "blocktime": 1537873282, "version": 1, "confirmations": 11483, "time": 1537873282, "locktime": 0, "vsize": 284, "size": 284}