{"hash": "5526e4a237da2f4551807cb3eba592da9133764d390b720b8d751d475fe81d7d", "blockhash": "00000000000000000018f53835495a110e01622372bf6ae95dc86f2b0ab887b0", "vout": [{"scriptPubKey": {"reqSigs": 1, "hex": "76a914572cbe4416435bbc3583a6757e5510022b5ba8c388ac", "addresses": ["18wwPWBVgdP8EU2sYxzJ2gQTfaYj8HeaCm"], "asm": "OP_DUP OP_HASH160 572cbe4416435bbc3583a6757e5510022b5ba8c3 OP_EQUALVERIFY OP_CHECKSIG", "type": "pubkeyhash"}, "value": 50.0, "n": 0}, {"scriptPubKey": {"reqSigs": 1, "hex": "76a914c634ddf2e9886d026955c70aa6ad26464361f3ed88ac", "addresses": ["1K528FDdADv3aEP42tb7QDE9frBqEPkFVF"], "asm": "OP_DUP OP_HASH160 c634ddf2e9886d026955c70aa6ad26464361f3ed OP_EQUALVERIFY OP_CHECKSIG", "type": "pubkeyhash"}, "value": 149.999997, "n": 1}], "hex": "01000000010ae9ee3ee44bc81cc82d1ac09c5de1bf7b9db69b071ed0293042b193d5857b07000000006b483045022100cdd1502a4ba4150f4f92b2b0200bb983f867ccb07e23f829b6cf5f9f2ac6be430220236b5d636f16573c698809ea0b74cd932e53676851ce223a22e51310f98b8d8b012103ee0c3e885d36ba527d7f4d5177b3cbb1109b778c6b33e8daccc20c3f49997177feffffff0200f2052a010000001976a914572cbe4416435bbc3583a6757e5510022b5ba8c388acd4d4117e030000001976a914c634ddf2e9886d026955c70aa6ad26464361f3ed88ac0e490800", "vin": [{"sequence": 4294967294, "scriptSig": {"hex": "483045022100cdd1502a4ba4150f4f92b2b0200bb983f867ccb07e23f829b6cf5f9f2ac6be430220236b5d636f16573c698809ea0b74cd932e53676851ce223a22e51310f98b8d8b012103ee0c3e885d36ba527d7f4d5177b3cbb1109b778c6b33e8daccc20c3f49997177", "asm": "3045022100cdd1502a4ba4150f4f92b2b0200bb983f867ccb07e23f829b6cf5f9f2ac6be430220236b5d636f16573c698809ea0b74cd932e53676851ce223a22e51310f98b8d8b[ALL] 03ee0c3e885d36ba527d7f4d5177b3cbb1109b778c6b33e8daccc20c3f49997177"}, "vout": 0, "txid": "077b85d593b1423029d01e079bb69d7bbfe15d9cc01a2dc81cc84be43eeee90a"}], "txid": "5526e4a237da2f4551807cb3eba592da9133764d390b720b8d751d475fe81d7d", "blocktime": 1537870928, "version": 1, "confirmations": 11514, "time": 1537870928, "locktime": 542990, "vsize": 226, "size": 226}