{"hash": "5528ed5661b595142adae4f112bd345db886ca125ed42ee2d3be8adfd829c273", "blockhash": "0000000000000000000baef3f32e3676a92c3b2e5da21b426e4f302fc371ce76", "vout": [{"scriptPubKey": {"reqSigs": 1, "hex": "76a9140bce2054a40e50eee72bf4113d19ddf5e7c08bc288ac", "addresses": ["125RN1verfKvQddy2nrutvqDYr7dSUjwwQ"], "asm": "OP_DUP OP_HASH160 0bce2054a40e50eee72bf4113d19ddf5e7c08bc2 OP_EQUALVERIFY OP_CHECKSIG", "type": "pubkeyhash"}, "value": 0.004933, "n": 0}, {"scriptPubKey": {"reqSigs": 1, "hex": "76a9144003b2a0170eedf7eda6817831f8744909fcecff88ac", "addresses": ["16qUgChUjpcW1eiMKyMwQxdrbfi5hk7K9u"], "asm": "OP_DUP OP_HASH160 4003b2a0170eedf7eda6817831f8744909fcecff OP_EQUALVERIFY OP_CHECKSIG", "type": "pubkeyhash"}, "value": 0.00606262, "n": 1}], "hex": "01000000010e6c30902968ce7942566185749d6798c065ce4274b5cc00b44fcdbc99d61b20010000006a473044022038754ffca0c06451538c21958afe1aac8b4dc1c5619ff2e2de7d3386023dd93402200ecf3b8e17ada7c6920b57f8db150f277c85ebbd38e2d75a4021718b5eb97488012103a444b9a23e387a09f729eb9fae415700e54241944271f733938c0eb89f396f1efdffffff02f4860700000000001976a9140bce2054a40e50eee72bf4113d19ddf5e7c08bc288ac36400900000000001976a9144003b2a0170eedf7eda6817831f8744909fcecff88ac15490800", "vin": [{"sequence": 4294967293, "scriptSig": {"hex": "473044022038754ffca0c06451538c21958afe1aac8b4dc1c5619ff2e2de7d3386023dd93402200ecf3b8e17ada7c6920b57f8db150f277c85ebbd38e2d75a4021718b5eb97488012103a444b9a23e387a09f729eb9fae415700e54241944271f733938c0eb89f396f1e", "asm": "3044022038754ffca0c06451538c21958afe1aac8b4dc1c5619ff2e2de7d3386023dd93402200ecf3b8e17ada7c6920b57f8db150f277c85ebbd38e2d75a4021718b5eb97488[ALL] 03a444b9a23e387a09f729eb9fae415700e54241944271f733938c0eb89f396f1e"}, "vout": 1, "txid": "201bd699bccd4fb400ccb57442ce65c098679d748561564279ce682990306c0e"}], "txid": "5528ed5661b595142adae4f112bd345db886ca125ed42ee2d3be8adfd829c273", "blocktime": 1537876114, "version": 1, "confirmations": 11460, "time": 1537876114, "locktime": 542997, "vsize": 225, "size": 225}