{"hash": "552af5d4c8439eccb183fb95e3a46116fedc1848ac40521cd3787937eae55207", "blockhash": "0000000000000000000dcc0f55137456b1a82d3642486a52398922ac4d620174", "vout": [{"scriptPubKey": {"reqSigs": 1, "hex": "76a914a520c86a08366941cd90d22e11ac1c7eefa2db3788ac", "addresses": ["1G47mSr3oANXMafVrR8UC4pzV7FEAzo3r9"], "asm": "OP_DUP OP_HASH160 a520c86a08366941cd90d22e11ac1c7eefa2db37 OP_EQUALVERIFY OP_CHECKSIG", "type": "pubkeyhash"}, "value": 1.10015193, "n": 0}, {"scriptPubKey": {"reqSigs": 1, "hex": "76a9145bdd62745e38f6cafdbe03c27d8e04add1a7b55e88ac", "addresses": ["19NjhXbEWvGrQi7nDBkJALpSu2e7HHVNDn"], "asm": "OP_DUP OP_HASH160 5bdd62745e38f6cafdbe03c27d8e04add1a7b55e OP_EQUALVERIFY OP_CHECKSIG", "type": "pubkeyhash"}, "value": 5.46e-06, "n": 1}, {"scriptPubKey": {"type": "nulldata", "hex": "6a146f6d6e69000000000000001f0000062c3c2e8790", "asm": "OP_RETURN 6f6d6e69000000000000001f0000062c3c2e8790"}, "value": 0.0, "n": 2}], "hex": "0100000001777b6b8aa86cee4d0974eb960d2729a8c18f6bea9aee4ce0aabea7d0642c7c62010000006b4830450221009fc2aa0ebf568766d065c1567861420d9a34f77f983a86026ec19bcf7f0b67ff022078628ea2fea95cc11e277a9dab3fd4dd0fb176bf50cebda78227010e0eb17689012103f3f44c9e80e2cedc1a2909631a3adea8866ee32187f74d0912387359b0ff36a2ffffffff03d9b28e06000000001976a914a520c86a08366941cd90d22e11ac1c7eefa2db3788ac22020000000000001976a9145bdd62745e38f6cafdbe03c27d8e04add1a7b55e88ac0000000000000000166a146f6d6e69000000000000001f0000062c3c2e879000000000", "vin": [{"sequence": 4294967295, "scriptSig": {"hex": "4830450221009fc2aa0ebf568766d065c1567861420d9a34f77f983a86026ec19bcf7f0b67ff022078628ea2fea95cc11e277a9dab3fd4dd0fb176bf50cebda78227010e0eb17689012103f3f44c9e80e2cedc1a2909631a3adea8866ee32187f74d0912387359b0ff36a2", "asm": "30450221009fc2aa0ebf568766d065c1567861420d9a34f77f983a86026ec19bcf7f0b67ff022078628ea2fea95cc11e277a9dab3fd4dd0fb176bf50cebda78227010e0eb17689[ALL] 03f3f44c9e80e2cedc1a2909631a3adea8866ee32187f74d0912387359b0ff36a2"}, "vout": 1, "txid": "627c2c64d0a7beaae04cee9aea6b8fc1a829270d96eb74094dee6ca88a6b7b77"}], "txid": "552af5d4c8439eccb183fb95e3a46116fedc1848ac40521cd3787937eae55207", "blocktime": 1537870268, "version": 1, "confirmations": 11516, "time": 1537870268, "locktime": 0, "vsize": 257, "size": 257}