{"hash": "425ec59ae1cd6e4136e1ac9c6c287f2ddd1a0c91cbe8a0973e201893f6541c68", "blockhash": "0000000000000000001e0dab787dd257d1dbfcb92a98c2207d5e1078be1f4165", "vout": [{"scriptPubKey": {"reqSigs": 1, "hex": "a9149ef709c42d1c569a98f909b12bf95288ea8125a987", "addresses": ["3GBYdN6UTWQWUaLSq7QJtS3ZutJS7iwG3Q"], "asm": "OP_HASH160 9ef709c42d1c569a98f909b12bf95288ea8125a9 OP_EQUAL", "type": "scripthash"}, "value": 0.01481026, "n": 0}, {"scriptPubKey": {"reqSigs": 1, "hex": "0014745d755c594ce247c3b6021a3468e38387bc7797", "addresses": ["bc1qw3wh2hzefn3y0sakqgdrg68rswrmcauhrdxe3m"], "asm": "0 745d755c594ce247c3b6021a3468e38387bc7797", "type": "witness_v0_keyhash"}, "value": 0.00086411, "n": 1}], "hex": "01000000000101b2e28eba8a5b9aa1787c0f2c6c2b454a6a1c6909f1570bb4df8904b6b14a28850000000017160014f24666f17d92a5106dd898b6dd58054828207acaffffffff02429916000000000017a9149ef709c42d1c569a98f909b12bf95288ea8125a9878b51010000000000160014745d755c594ce247c3b6021a3468e38387bc77970247304402205bcbdb70e65c88c394be8f522ea0072b02d3b7eb6053487dad9fc3fcc3f854be0220656d04a2a4b27c259dea990545c57f699583188bb95b2a450eea208d6b77436d012103a1edb69458b485e1760f5fd152e9e19d435a58d101e7f9a66dd8aee72e4587c200000000", "vin": [{"txinwitness": ["304402205bcbdb70e65c88c394be8f522ea0072b02d3b7eb6053487dad9fc3fcc3f854be0220656d04a2a4b27c259dea990545c57f699583188bb95b2a450eea208d6b77436d01", "03a1edb69458b485e1760f5fd152e9e19d435a58d101e7f9a66dd8aee72e4587c2"], "sequence": 4294967295, "scriptSig": {"hex": "160014f24666f17d92a5106dd898b6dd58054828207aca", "asm": "0014f24666f17d92a5106dd898b6dd58054828207aca"}, "vout": 0, "txid": "85284ab1b60489dfb40b57f109691c6a4a452b6c2c0f7c78a19a5b8aba8ee2b2"}], "txid": "552c7d706ad24fbfb752b912682c386da5efc65146595e0c9de2d2e77f17551c", "blocktime": 1537872475, "version": 1, "confirmations": 11486, "time": 1537872475, "locktime": 0, "vsize": 165, "size": 246}