{"hash": "ec0fda981f844edc02065a68f5f89ec0a3cafaa0098a6720fb516743bafe41b9", "blockhash": "00000000000000000004ffacab907a6b429b9a5745fa0b75af4234bf69dd7176", "vout": [{"scriptPubKey": {"reqSigs": 1, "hex": "a914e68cc801993779544964f8209ca70c5fedddb72d87", "addresses": ["3Ni3zKTyJPYXfGgo8kc5iFAq3pqEvwPtS5"], "asm": "OP_HASH160 e68cc801993779544964f8209ca70c5fedddb72d OP_EQUAL", "type": "scripthash"}, "value": 0.18461072, "n": 0}, {"scriptPubKey": {"reqSigs": 1, "hex": "a91427f2ced49644037c633a5ddd3e90c41d9d04873c87", "addresses": ["35LF9cgNicZvcvJVFAs19bMV3fmf5CodW2"], "asm": "OP_HASH160 27f2ced49644037c633a5ddd3e90c41d9d04873c OP_EQUAL", "type": "scripthash"}, "value": 0.49416809, "n": 1}], "hex": "0100000000010140e30647a6d5ea5c01fcf9d2b775ca18f405f68a8646522cded805bba18354990100000017160014756cd5df5a84b24bdd34a1438a6fbc4cc5de3ea9ffffffff0290b119010000000017a914e68cc801993779544964f8209ca70c5fedddb72d87690af2020000000017a91427f2ced49644037c633a5ddd3e90c41d9d04873c8702473044022063feb78f2be7754d522447f96d93294ab66e7544df7db6c5cc0a00dbbc12877602207ef4ca34d2f415113b86ac4056ea5cb734950d156b5570c67afb32bda25cc78b0121025316316bf4c8049c72e9172307ad7321e0fc91a08e6afdde3c9aa887a75a1a0800000000", "vin": [{"txinwitness": ["3044022063feb78f2be7754d522447f96d93294ab66e7544df7db6c5cc0a00dbbc12877602207ef4ca34d2f415113b86ac4056ea5cb734950d156b5570c67afb32bda25cc78b01", "025316316bf4c8049c72e9172307ad7321e0fc91a08e6afdde3c9aa887a75a1a08"], "sequence": 4294967295, "scriptSig": {"hex": "160014756cd5df5a84b24bdd34a1438a6fbc4cc5de3ea9", "asm": "0014756cd5df5a84b24bdd34a1438a6fbc4cc5de3ea9"}, "vout": 1, "txid": "995483a1bb05d8de2c5246868af605f418ca75b7d2f9fc015cead5a64706e340"}], "txid": "552d230ff85765c638202ed9aeb82d5358ae81ca74bca67b5a7b7e65754d2313", "blocktime": 1537875543, "version": 1, "confirmations": 11464, "time": 1537875543, "locktime": 0, "vsize": 166, "size": 247}