{"hash": "55312714d87b0c2d71c3269d7d3df027139188726b84862e46c9fab8fd7b92c7", "blockhash": "0000000000000000001e0dab787dd257d1dbfcb92a98c2207d5e1078be1f4165", "vout": [{"scriptPubKey": {"reqSigs": 1, "hex": "0014fbbd3c91da03c8965de9f34fc2bbd2d5f843dc8e", "addresses": ["bc1qlw7neyw6q0yfvh0f7d8u9w7j6huy8hywqquar5"], "asm": "0 fbbd3c91da03c8965de9f34fc2bbd2d5f843dc8e", "type": "witness_v0_keyhash"}, "value": 9.379e-05, "n": 0}, {"scriptPubKey": {"reqSigs": 1, "hex": "76a9143b5c6bfe4f0b804635657e5919549172e348d77c88ac", "addresses": ["16QsauEoXoEHdPCYGcq2kmj4hb5TudyZdr"], "asm": "OP_DUP OP_HASH160 3b5c6bfe4f0b804635657e5919549172e348d77c OP_EQUALVERIFY OP_CHECKSIG", "type": "pubkeyhash"}, "value": 0.00156, "n": 1}], "hex": "01000000015b854db59ca707975119f16c8ddb4accaec8064000a29ab372a8dce9a8f32409460000006a4730440220202d2447020719e85a6dad22bc44751c090db0a772ba839b71018e11e3a22476022057aeb03c32cbe2e71ded0b5141761f95cdb986a59c7bebf93f1deef99a58ace90121030791ab078ed56b137c7f0f33371bd411ac63e4bdb97316e00dd20d6d3f6505e9ffffffff02a324000000000000160014fbbd3c91da03c8965de9f34fc2bbd2d5f843dc8e60610200000000001976a9143b5c6bfe4f0b804635657e5919549172e348d77c88ac00000000", "vin": [{"sequence": 4294967295, "scriptSig": {"hex": "4730440220202d2447020719e85a6dad22bc44751c090db0a772ba839b71018e11e3a22476022057aeb03c32cbe2e71ded0b5141761f95cdb986a59c7bebf93f1deef99a58ace90121030791ab078ed56b137c7f0f33371bd411ac63e4bdb97316e00dd20d6d3f6505e9", "asm": "30440220202d2447020719e85a6dad22bc44751c090db0a772ba839b71018e11e3a22476022057aeb03c32cbe2e71ded0b5141761f95cdb986a59c7bebf93f1deef99a58ace9[ALL] 030791ab078ed56b137c7f0f33371bd411ac63e4bdb97316e00dd20d6d3f6505e9"}, "vout": 70, "txid": "0924f3a8e9dca872b39aa2004006c8aecc4adb8d6cf119519707a79cb54d855b"}], "txid": "55312714d87b0c2d71c3269d7d3df027139188726b84862e46c9fab8fd7b92c7", "blocktime": 1537872475, "version": 1, "confirmations": 11486, "time": 1537872475, "locktime": 0, "vsize": 222, "size": 222}