{"hash": "5535a79669c7bdd61a23b4a66a0125c470a76b84ad562f6410d2e738c933f29a", "blockhash": "0000000000000000001cda96e906b7601b7a6fb1a3b62bca570a9e5d8f4b3de1", "vout": [{"scriptPubKey": {"reqSigs": 1, "hex": "76a914129919602389285c3ca6d613bd59d5f8ceb8475188ac", "addresses": ["12hLZy4Mxa2T3jTvwm8y3w8nULK6RUyyzM"], "asm": "OP_DUP OP_HASH160 129919602389285c3ca6d613bd59d5f8ceb84751 OP_EQUALVERIFY OP_CHECKSIG", "type": "pubkeyhash"}, "value": 0.00123, "n": 0}, {"scriptPubKey": {"reqSigs": 1, "hex": "76a914430f294c70ab5719598f560ea2105974b0968f6288ac", "addresses": ["177aSHEFq3qeN5XESYubqzFTZozBdXSdYW"], "asm": "OP_DUP OP_HASH160 430f294c70ab5719598f560ea2105974b0968f62 OP_EQUALVERIFY OP_CHECKSIG", "type": "pubkeyhash"}, "value": 0.00999032, "n": 1}], "hex": "0100000001725bfbf481a49418d23f9e589c5c26f508ed8d1f13700b13aa51d290b6cc20d5010000006b4830450221008935dbd7c03570ae5db9b155ba7640d39a87287b30833ee3625abae569cca2e70220408160b7b8bd07e62f61aacee03f89fb228f2a5c2463d9e32eea407e45a78b1c012103f53e0b8428f5436a63406a99add9f5051d46b6f621b40ee2269f0dc1eb835be2ffffffff0278e00100000000001976a914129919602389285c3ca6d613bd59d5f8ceb8475188ac783e0f00000000001976a914430f294c70ab5719598f560ea2105974b0968f6288ac00000000", "vin": [{"sequence": 4294967295, "scriptSig": {"hex": "4830450221008935dbd7c03570ae5db9b155ba7640d39a87287b30833ee3625abae569cca2e70220408160b7b8bd07e62f61aacee03f89fb228f2a5c2463d9e32eea407e45a78b1c012103f53e0b8428f5436a63406a99add9f5051d46b6f621b40ee2269f0dc1eb835be2", "asm": "30450221008935dbd7c03570ae5db9b155ba7640d39a87287b30833ee3625abae569cca2e70220408160b7b8bd07e62f61aacee03f89fb228f2a5c2463d9e32eea407e45a78b1c[ALL] 03f53e0b8428f5436a63406a99add9f5051d46b6f621b40ee2269f0dc1eb835be2"}, "vout": 1, "txid": "d520ccb690d251aa130b70131f8ded08f5265c9c589e3fd21894a481f4fb5b72"}], "txid": "5535a79669c7bdd61a23b4a66a0125c470a76b84ad562f6410d2e738c933f29a", "blocktime": 1537873282, "version": 1, "confirmations": 11485, "time": 1537873282, "locktime": 0, "vsize": 226, "size": 226}