{"hash": "553cf8527fe72a75e8ac56ff9a262f9289261a45311063a000d57c78bcbcdff7", "blockhash": "0000000000000000001f0ddff1eddb255c1121bcd4da4f1bc9a0da00cae72433", "vout": [{"scriptPubKey": {"reqSigs": 1, "hex": "76a91451da0f9155cf305ac940ce99029c112955cb41bf88ac", "addresses": ["18TnxfohwqEpgTDBvLGV83SCjmVNEGfyrF"], "asm": "OP_DUP OP_HASH160 51da0f9155cf305ac940ce99029c112955cb41bf OP_EQUALVERIFY OP_CHECKSIG", "type": "pubkeyhash"}, "value": 0.00044963, "n": 0}, {"scriptPubKey": {"reqSigs": 1, "hex": "a914d9c3d51f300a98a4b1bb8df130e7ae88820d919487", "addresses": ["3MYT9rNgzmbPc4DEvvJrA3Y2tCczrRjnNx"], "asm": "OP_HASH160 d9c3d51f300a98a4b1bb8df130e7ae88820d9194 OP_EQUAL", "type": "scripthash"}, "value": 0.01124, "n": 1}], "hex": "0100000001df3b8b3c08da4c3ce0e30a926425b32a8da5cf57399db8dc1a06c4764a1235c5000000006a47304402202ec8efcaeca8fc9fdf7cfb0b1ee2b5c72cfed677e19d99ce6fe031fa3a123da3022055becbaa3c1189bb18e089e6b299b1c38f09f97319bce0d4e5ef6cb8138075020121030140cfe0fdabd30bd0eda1e4d3dc91c87f434712b488f4ab5e7929520cbada17ffffffff02a3af0000000000001976a91451da0f9155cf305ac940ce99029c112955cb41bf88aca02611000000000017a914d9c3d51f300a98a4b1bb8df130e7ae88820d91948700000000", "vin": [{"sequence": 4294967295, "scriptSig": {"hex": "47304402202ec8efcaeca8fc9fdf7cfb0b1ee2b5c72cfed677e19d99ce6fe031fa3a123da3022055becbaa3c1189bb18e089e6b299b1c38f09f97319bce0d4e5ef6cb8138075020121030140cfe0fdabd30bd0eda1e4d3dc91c87f434712b488f4ab5e7929520cbada17", "asm": "304402202ec8efcaeca8fc9fdf7cfb0b1ee2b5c72cfed677e19d99ce6fe031fa3a123da3022055becbaa3c1189bb18e089e6b299b1c38f09f97319bce0d4e5ef6cb813807502[ALL] 030140cfe0fdabd30bd0eda1e4d3dc91c87f434712b488f4ab5e7929520cbada17"}, "vout": 0, "txid": "c535124a76c4061adcb89d3957cfa58d2ab32564920ae3e03c4cda083c8b3bdf"}], "txid": "553cf8527fe72a75e8ac56ff9a262f9289261a45311063a000d57c78bcbcdff7", "blocktime": 1537872018, "version": 1, "confirmations": 11489, "time": 1537872018, "locktime": 0, "vsize": 223, "size": 223}