{"hash": "553df4347949fb735e841a19d2d3c427f13407e2964f58108083a56d7b9c6ffb", "blockhash": "0000000000000000001f0ddff1eddb255c1121bcd4da4f1bc9a0da00cae72433", "vout": [{"scriptPubKey": {"reqSigs": 1, "hex": "76a9148975e81d2a0e0a4ddd8face008aecab26e703fb588ac", "addresses": ["1DXppajMrwsd553rKACEeZDgsyFjHZESWM"], "asm": "OP_DUP OP_HASH160 8975e81d2a0e0a4ddd8face008aecab26e703fb5 OP_EQUALVERIFY OP_CHECKSIG", "type": "pubkeyhash"}, "value": 0.02372882, "n": 0}, {"scriptPubKey": {"reqSigs": 1, "hex": "76a914d828f5f4681ed1268b66f7af3ffc31840053236388ac", "addresses": ["1Lhx2STVoAhXb413euFxJvMeXkwzRCYDcz"], "asm": "OP_DUP OP_HASH160 d828f5f4681ed1268b66f7af3ffc318400532363 OP_EQUALVERIFY OP_CHECKSIG", "type": "pubkeyhash"}, "value": 0.06427525, "n": 1}], "hex": "0100000003e848b575a3f60c5b60e5c0a3d24b49a03f6bf0049a4757319e8f113345d9bf26000000006b483045022100e00c9b5524c7099a937828df94df4cc769b2d80119a0ddc9569e93c90c42fc5402206bf8d7a0e9cdd1998d34d22454d830387938c0d4dfae04d3aa86d2e4ed4bcf66012103e75f5947d1cd08dcb5ae887cc04d79cae31aaa16b4f549c48a13ff3be080e13fffffffffbaa58aff020602dbb8d1593c00de13c0e2796e3d330d8e815c7c09b75ee6533b010000006b483045022100bd9ea620bff78851d7c4a1d62a088db5ff5fdbcec3bd07dd07326a704b0d8a23022003c782ac1910a9b067df28ab95ee1994a39cc33c338febf8c4e5f9dd08dff87e012102f7a9cbedd02c60d957ed0b118240060b3be1d10ff14cb18e15e37510660a494cffffffffbf8184568ef8585fd9fbf99d3f881c095dcaf36ab51b0e07159e468aae07de9d010000006b483045022100c4c626554d249c19ca6f0583ecbae32606b73f9043ebc074e868a063ba1f973802202fdf53cc3f3bb0fb1a44a40e391b9a54eee5766502d3cb2b99f4776187af715b012103a36f2f0f5c58e652a56c072c6b6e5ef48a1866795cc1849c644291e27d7aa3deffffffff0212352400000000001976a9148975e81d2a0e0a4ddd8face008aecab26e703fb588ac85136200000000001976a914d828f5f4681ed1268b66f7af3ffc31840053236388ac00000000", "vin": [{"sequence": 4294967295, "scriptSig": {"hex": "483045022100e00c9b5524c7099a937828df94df4cc769b2d80119a0ddc9569e93c90c42fc5402206bf8d7a0e9cdd1998d34d22454d830387938c0d4dfae04d3aa86d2e4ed4bcf66012103e75f5947d1cd08dcb5ae887cc04d79cae31aaa16b4f549c48a13ff3be080e13f", "asm": "3045022100e00c9b5524c7099a937828df94df4cc769b2d80119a0ddc9569e93c90c42fc5402206bf8d7a0e9cdd1998d34d22454d830387938c0d4dfae04d3aa86d2e4ed4bcf66[ALL] 03e75f5947d1cd08dcb5ae887cc04d79cae31aaa16b4f549c48a13ff3be080e13f"}, "vout": 0, "txid": "26bfd94533118f9e3157479a04f06b3fa0494bd2a3c0e5605b0cf6a375b548e8"}, {"sequence": 4294967295, "scriptSig": {"hex": "483045022100bd9ea620bff78851d7c4a1d62a088db5ff5fdbcec3bd07dd07326a704b0d8a23022003c782ac1910a9b067df28ab95ee1994a39cc33c338febf8c4e5f9dd08dff87e012102f7a9cbedd02c60d957ed0b118240060b3be1d10ff14cb18e15e37510660a494c", "asm": "3045022100bd9ea620bff78851d7c4a1d62a088db5ff5fdbcec3bd07dd07326a704b0d8a23022003c782ac1910a9b067df28ab95ee1994a39cc33c338febf8c4e5f9dd08dff87e[ALL] 02f7a9cbedd02c60d957ed0b118240060b3be1d10ff14cb18e15e37510660a494c"}, "vout": 1, "txid": "3b53e65eb7097c5c818e0d333d6e79e2c013de003c59d1b8db020602ff8aa5ba"}, {"sequence": 4294967295, "scriptSig": {"hex": "483045022100c4c626554d249c19ca6f0583ecbae32606b73f9043ebc074e868a063ba1f973802202fdf53cc3f3bb0fb1a44a40e391b9a54eee5766502d3cb2b99f4776187af715b012103a36f2f0f5c58e652a56c072c6b6e5ef48a1866795cc1849c644291e27d7aa3de", "asm": "3045022100c4c626554d249c19ca6f0583ecbae32606b73f9043ebc074e868a063ba1f973802202fdf53cc3f3bb0fb1a44a40e391b9a54eee5766502d3cb2b99f4776187af715b[ALL] 03a36f2f0f5c58e652a56c072c6b6e5ef48a1866795cc1849c644291e27d7aa3de"}, "vout": 1, "txid": "9dde07ae8a469e15070e1bb56af3ca5d091c883f9df9fbd95f58f88e568481bf"}], "txid": "553df4347949fb735e841a19d2d3c427f13407e2964f58108083a56d7b9c6ffb", "blocktime": 1537872018, "version": 1, "confirmations": 11489, "time": 1537872018, "locktime": 0, "vsize": 522, "size": 522}