{"hash": "55419c7457419bbdc200be1346e4bd93e4cc9f7fbbe267f59219314397717726", "blockhash": "0000000000000000001f76057863aec43deb6fa401d9628bb513d65a8098bfab", "vout": [{"scriptPubKey": {"reqSigs": 1, "hex": "a9141ae09a4039077a301e75724a226c8e67bf2aa34387", "addresses": ["3498ZBx16MerZzqWyMAEyvqsBu82659ovf"], "asm": "OP_HASH160 1ae09a4039077a301e75724a226c8e67bf2aa343 OP_EQUAL", "type": "scripthash"}, "value": 0.0031853, "n": 0}, {"scriptPubKey": {"reqSigs": 1, "hex": "76a914b9baf3ab7a51f11de8d98943989a9a8b9cf0d03488ac", "addresses": ["1Hw3y8XsidmTV9gMm7mNLJzFaavwWGY8kG"], "asm": "OP_DUP OP_HASH160 b9baf3ab7a51f11de8d98943989a9a8b9cf0d034 OP_EQUALVERIFY OP_CHECKSIG", "type": "pubkeyhash"}, "value": 0.01387792, "n": 1}], "hex": "0100000001ce5338ef25c823b5799e8e997ad32e14cc5d24779d49d1d81a94555b3fd61b13010000006b483045022100ba150f48e5e6d6645b54facb121a7bfbdb3bc74ac09838c766aa03be01651ba90220034dadc032ea93fb4c3ef15af1b9e460999b83ef7e43f38554eabdc8fe8ab92e012103a9c87a4c66d46bc298afa142b9627a7d4651ea19f26df2784b8b10716743ff78ffffffff0242dc04000000000017a9141ae09a4039077a301e75724a226c8e67bf2aa34387102d1500000000001976a914b9baf3ab7a51f11de8d98943989a9a8b9cf0d03488ac00000000", "vin": [{"sequence": 4294967295, "scriptSig": {"hex": "483045022100ba150f48e5e6d6645b54facb121a7bfbdb3bc74ac09838c766aa03be01651ba90220034dadc032ea93fb4c3ef15af1b9e460999b83ef7e43f38554eabdc8fe8ab92e012103a9c87a4c66d46bc298afa142b9627a7d4651ea19f26df2784b8b10716743ff78", "asm": "3045022100ba150f48e5e6d6645b54facb121a7bfbdb3bc74ac09838c766aa03be01651ba90220034dadc032ea93fb4c3ef15af1b9e460999b83ef7e43f38554eabdc8fe8ab92e[ALL] 03a9c87a4c66d46bc298afa142b9627a7d4651ea19f26df2784b8b10716743ff78"}, "vout": 1, "txid": "131bd63f5b55941ad8d1499d77245dcc142ed37a998e9e79b523c825ef3853ce"}], "txid": "55419c7457419bbdc200be1346e4bd93e4cc9f7fbbe267f59219314397717726", "blocktime": 1537873891, "version": 1, "confirmations": 11474, "time": 1537873891, "locktime": 0, "vsize": 224, "size": 224}