{"hash": "0f0d8c8796ad467ff13ac3ebcc6ca1811541c523b9e3a29e4e4310384cb875bd", "blockhash": "0000000000000000000e13cef7c366c0283d82e591d1acd082e914b08063cdf1", "vout": [{"scriptPubKey": {"reqSigs": 1, "hex": "76a9140b67850c9f11b756b53836a35c2b393dd5f081eb88ac", "addresses": ["123JSndGU2Q1v9gc3k2qTnUtuHakTGfc9B"], "asm": "OP_DUP OP_HASH160 0b67850c9f11b756b53836a35c2b393dd5f081eb OP_EQUALVERIFY OP_CHECKSIG", "type": "pubkeyhash"}, "value": 0.00221966, "n": 0}, {"scriptPubKey": {"reqSigs": 1, "hex": "0014b298502e2abc4339f1f66c561f175d33804b26bf", "addresses": ["bc1qk2v9qt32h3pnnu0kd3tp796axwqykf4l23cay5"], "asm": "0 b298502e2abc4339f1f66c561f175d33804b26bf", "type": "witness_v0_keyhash"}, "value": 1.846e-05, "n": 1}], "hex": "010000000001011f598eef890b23f83bafb8c2050328990b1f235a92826b05a1f965503e610d1105000000171600143fcf92ef9f90cc3f739bf27b91e277a6d0b1f51affffffff020e630300000000001976a9140b67850c9f11b756b53836a35c2b393dd5f081eb88ac3607000000000000160014b298502e2abc4339f1f66c561f175d33804b26bf0247304402201bd580fafedb896fc2a865f67fa7a2ffa7bb9e7a4ecd039dc08bbdc9cc79e1a802203752e50e334772de06477827bfcea01fe5c93450b910d96abfa0cb458056c85a0121021939789d90db1fb06178b64c16097adf5f21550bccdcfef06ed5f204db62f69b00000000", "vin": [{"txinwitness": ["304402201bd580fafedb896fc2a865f67fa7a2ffa7bb9e7a4ecd039dc08bbdc9cc79e1a802203752e50e334772de06477827bfcea01fe5c93450b910d96abfa0cb458056c85a01", "021939789d90db1fb06178b64c16097adf5f21550bccdcfef06ed5f204db62f69b"], "sequence": 4294967295, "scriptSig": {"hex": "1600143fcf92ef9f90cc3f739bf27b91e277a6d0b1f51a", "asm": "00143fcf92ef9f90cc3f739bf27b91e277a6d0b1f51a"}, "vout": 5, "txid": "110d613e5065f9a1056b82925a231f0b99280305c2b8af3bf8230b89ef8e591f"}], "txid": "55427bb282d413d696fde301a697b57f57d2de159e08678b528775d977b20085", "blocktime": 1537871767, "version": 1, "confirmations": 11495, "time": 1537871767, "locktime": 0, "vsize": 167, "size": 248}