{"hash": "703b872d1396aac636b808377d3771946f9b511e7f2c487e2189329fb8a0a2ef", "blockhash": "0000000000000000001f0ddff1eddb255c1121bcd4da4f1bc9a0da00cae72433", "vout": [{"scriptPubKey": {"reqSigs": 1, "hex": "a914e91645a051953453795ff19bde9de8f7901c5b1b87", "addresses": ["3NwU3iy2hxq8Ej1znXh6jTK5iVS351rWVW"], "asm": "OP_HASH160 e91645a051953453795ff19bde9de8f7901c5b1b OP_EQUAL", "type": "scripthash"}, "value": 18.96781168, "n": 0}, {"scriptPubKey": {"reqSigs": 1, "hex": "a9149f1294ae39f4a6d1298a3bbd1d1abba841720f1987", "addresses": ["3GC7d4Sy7AeK9rBMzrcabhArRasnLSXRxh"], "asm": "OP_HASH160 9f1294ae39f4a6d1298a3bbd1d1abba841720f19 OP_EQUAL", "type": "scripthash"}, "value": 0.014, "n": 1}], "hex": "020000000001014a53082cd1eec0d4d09a7819f06ca413aa5118f52d46e8142143508507590a0700000000171600140b0149db9fc1fa49eb2d4bc85f3d3b0ef70c3be8fdffffff0270950e710000000017a914e91645a051953453795ff19bde9de8f7901c5b1b87c05c15000000000017a9149f1294ae39f4a6d1298a3bbd1d1abba841720f1987024730440220208c47af065ca4258c4f21cb33e60a5009aed6b38c11d75883d9b1dbec7590a4022064a1b14576896ae6adecb0e922fba1061237a7b02077806f3c1eedba2b72dbcd012102903f5af86d225f54bae4cbe14c33f4bef9580a33f8ac0de03c9d0f6074e381df10490800", "vin": [{"txinwitness": ["30440220208c47af065ca4258c4f21cb33e60a5009aed6b38c11d75883d9b1dbec7590a4022064a1b14576896ae6adecb0e922fba1061237a7b02077806f3c1eedba2b72dbcd01", "02903f5af86d225f54bae4cbe14c33f4bef9580a33f8ac0de03c9d0f6074e381df"], "sequence": 4294967293, "scriptSig": {"hex": "1600140b0149db9fc1fa49eb2d4bc85f3d3b0ef70c3be8", "asm": "00140b0149db9fc1fa49eb2d4bc85f3d3b0ef70c3be8"}, "vout": 0, "txid": "070a59078550432114e8462df51851aa13a46cf019789ad0d4c0eed12c08534a"}], "txid": "554820635adada6bef5da9a7d5928cae416ad41e5cb092248d31d86c5dc1a2d1", "blocktime": 1537872018, "version": 2, "confirmations": 11489, "time": 1537872018, "locktime": 542992, "vsize": 166, "size": 247}