{"hash": "5553dace1b694f9105123d21996aff9572ad773403205c541fe1803d07106e12", "blockhash": "0000000000000000001cda96e906b7601b7a6fb1a3b62bca570a9e5d8f4b3de1", "vout": [{"scriptPubKey": {"reqSigs": 1, "hex": "a91465b7c39eeea1399bda1fb292fd85924a54bd8b3587", "addresses": ["3AxrK5KAg9wG7v8S5FQQdxrLyAwJNkZvG8"], "asm": "OP_HASH160 65b7c39eeea1399bda1fb292fd85924a54bd8b35 OP_EQUAL", "type": "scripthash"}, "value": 0.00407759, "n": 0}, {"scriptPubKey": {"reqSigs": 1, "hex": "76a914ebd174fa853087a9805225951104bcb65cf3a3de88ac", "addresses": ["1NVtiQS5fdq4Mua3q34cyAcC4ZHPV3D57x"], "asm": "OP_DUP OP_HASH160 ebd174fa853087a9805225951104bcb65cf3a3de OP_EQUALVERIFY OP_CHECKSIG", "type": "pubkeyhash"}, "value": 0.00012645, "n": 1}], "hex": "01000000037613a1c041eb3a41f40764c0b21a910d058efc2347c81c03d85129f1f0cf09fd010000006b483045022100e30758364b330bef2a9c16d1ed8c8921c5fa0cef8d370ad5dc7c388b479f202402206b75472c139c77cd88e1d4fa681a9d04de22dedee8e09e0dc62932e4087e276a012102f8e819a8022a4f8262bc36dfd133dbc909f579b0fda0f569116e304c323d3addffffffffec5624833812dd2c07688fd0441b0f0817312b1c961dfb6ade943ae3137ece05000000006b483045022100d29f1af5505129f948153355334648db7f2804ee2a7d7693751dc01315e439b0022073b628e4c79b7cb2e7098f38da026fd6f8302287f42f81d93a491584dff8340d012103574b572ccb70dfb0f038766813bdc50d0a2fd4e491ee2a0825d491d30f5c7759ffffffffa45ed24cb154359ceffaccb46b3a5cedd702540102128089ac342754c0cd2995020000006a47304402207c2b3feeb11a46a51a5bcf3170aae7177cc2ffc9d2727aadf72664f04eaf147e02205cc9f715bb2d7a64ba829d97c3261b9423486c766dd35b1b003354dc0d1b7be0012102db944538591213c3198cfd1cb6f41921bbe3e79765814da67ea6afdd587528dbffffffff02cf3806000000000017a91465b7c39eeea1399bda1fb292fd85924a54bd8b358765310000000000001976a914ebd174fa853087a9805225951104bcb65cf3a3de88ac00000000", "vin": [{"sequence": 4294967295, "scriptSig": {"hex": "483045022100e30758364b330bef2a9c16d1ed8c8921c5fa0cef8d370ad5dc7c388b479f202402206b75472c139c77cd88e1d4fa681a9d04de22dedee8e09e0dc62932e4087e276a012102f8e819a8022a4f8262bc36dfd133dbc909f579b0fda0f569116e304c323d3add", "asm": "3045022100e30758364b330bef2a9c16d1ed8c8921c5fa0cef8d370ad5dc7c388b479f202402206b75472c139c77cd88e1d4fa681a9d04de22dedee8e09e0dc62932e4087e276a[ALL] 02f8e819a8022a4f8262bc36dfd133dbc909f579b0fda0f569116e304c323d3add"}, "vout": 1, "txid": "fd09cff0f12951d8031cc84723fc8e050d911ab2c06407f4413aeb41c0a11376"}, {"sequence": 4294967295, "scriptSig": {"hex": "483045022100d29f1af5505129f948153355334648db7f2804ee2a7d7693751dc01315e439b0022073b628e4c79b7cb2e7098f38da026fd6f8302287f42f81d93a491584dff8340d012103574b572ccb70dfb0f038766813bdc50d0a2fd4e491ee2a0825d491d30f5c7759", "asm": "3045022100d29f1af5505129f948153355334648db7f2804ee2a7d7693751dc01315e439b0022073b628e4c79b7cb2e7098f38da026fd6f8302287f42f81d93a491584dff8340d[ALL] 03574b572ccb70dfb0f038766813bdc50d0a2fd4e491ee2a0825d491d30f5c7759"}, "vout": 0, "txid": "05ce7e13e33a94de6afb1d961c2b3117080f1b44d08f68072cdd1238832456ec"}, {"sequence": 4294967295, "scriptSig": {"hex": "47304402207c2b3feeb11a46a51a5bcf3170aae7177cc2ffc9d2727aadf72664f04eaf147e02205cc9f715bb2d7a64ba829d97c3261b9423486c766dd35b1b003354dc0d1b7be0012102db944538591213c3198cfd1cb6f41921bbe3e79765814da67ea6afdd587528db", "asm": "304402207c2b3feeb11a46a51a5bcf3170aae7177cc2ffc9d2727aadf72664f04eaf147e02205cc9f715bb2d7a64ba829d97c3261b9423486c766dd35b1b003354dc0d1b7be0[ALL] 02db944538591213c3198cfd1cb6f41921bbe3e79765814da67ea6afdd587528db"}, "vout": 2, "txid": "9529cdc0542734ac89801202015402d7ed5c3a6bb4ccfaef9c3554b14cd25ea4"}], "txid": "5553dace1b694f9105123d21996aff9572ad773403205c541fe1803d07106e12", "blocktime": 1537873282, "version": 1, "confirmations": 11484, "time": 1537873282, "locktime": 0, "vsize": 519, "size": 519}