{"hash": "06e0a850aa9cc50539113dde90da34bca49b3a90f92c2f2e9b41b2d07fb17024", "blockhash": "0000000000000000000e13cef7c366c0283d82e591d1acd082e914b08063cdf1", "vout": [{"scriptPubKey": {"reqSigs": 1, "hex": "a9149ba6a23ab31f922519e91a994345aaf4a91f95d087", "addresses": ["3Ft2HC14AobwkAhQjquymGKcvdjy9vUHKW"], "asm": "OP_HASH160 9ba6a23ab31f922519e91a994345aaf4a91f95d0 OP_EQUAL", "type": "scripthash"}, "value": 0.05366984, "n": 0}, {"scriptPubKey": {"reqSigs": 1, "hex": "76a914ee682fb2d9762b89544cdd28e07a70bbd9e1961d88ac", "addresses": ["1NjadebjDdnAHiuTAkRdSQQTPkQFHHqXau"], "asm": "OP_DUP OP_HASH160 ee682fb2d9762b89544cdd28e07a70bbd9e1961d OP_EQUALVERIFY OP_CHECKSIG", "type": "pubkeyhash"}, "value": 0.0908, "n": 1}], "hex": "010000000001048117b3f75f5201c5ded2a9803b513423ddb7588e96686bdba2f2e164634c59c000000000fc004730440220496322177d0b0be1549484e3c8b9fbe049aa7e01bfa62f387a88756157b8529602200dbbb67032e619d07da1ba5ad08a1b338e340f0435be7384906ce529e14ee10d0147304402207440021963a6eb2febf7fe59a619f63321d4eae9f9773bd349106ee4204bcf40022059c695be52117c8354491bba453946fbaf49b21dfffd5fae2dc20dea9f039ff9014c69522103b47396196e047594c12cfeaa8ddad7c21a128b01b45da23cc3d6743a9260db9021035eb25bde7c14edc9b6cfb48f8cffa959944734735ab1d032fa0fba8673e82e562102abbf9e39a7d31f3cdc6d7f8c00a4aa1e012b693f2fdf113fcefce463a44cbf3c53aeffffffffc6c5f612586f4839589e1a5db6112ee016e1d6e656d39d61ac64d4b1630d003400000000232200208a760e5ce0bf8b8a1dc24aae9dc494702bcfdec3114481c8d79825725c913c95ffffffffaf5c1e1fbd5854d05f731bd0ff55f4cdff0e17a35651977a6684cc5e47ef42b101000000232200203b61cc3d33ae6fea27e5b6a2e2f8dc54c11013e74a4e2b7695c80bf9f9b3babaffffffff45289ebd911ec4815531cfab1690fbbf26a6e81444b00b8a1a469f666ac22c400100000023220020cf3170f33bd73124fab83ac60982a005ad97f7cd6e3f9d76a7a83d8937c0a0d0ffffffff02c8e451000000000017a9149ba6a23ab31f922519e91a994345aaf4a91f95d087c08c8a00000000001976a914ee682fb2d9762b89544cdd28e07a70bbd9e1961d88ac000400483045022100cc9615220d3cfdf089c2576f91b9bc26c71e2851d98ab9da8dda9cfabb8e3b6502206842cc2ba076f971813dc89751ce34464f48d5476127c4df3af2182dadd706e10147304402205ac60faff4a069106ac63942a7f09c500c491ad0398e589c7245c1d0b6b3bc3d0220100ffb30e2ab41412f234a9944fba1435c99a96af4a790b082f1bc7a1e33f4a9016952210221ca7ac10e510738dbcbd268fbe892fefc0b6b6de081362585533401d2f39bec21033995537fb5463c61bc95c7d74e40bf2e2062636760941a040e4f8d64a50221bf210233bedd60cc4c991b4d9feec0407a2a5bd4828d9d1403fb50b08cda0e8d0667a553ae0400473044022034a5bdc7b603785ee1cac68e9cc9dedb259ea3ca120bbc4504ebe498fbb4caf7022064a068356701aeae41cb6a1ee4c4e1911e281a50d65d36228b4f1d6d670e347e0147304402205b0866778831b2914dc5f6044e641f4561ac6425bd3208e4b5527016bf52736702202aa282ef8b793bfed7fd451333dba683b372c88682c9531032246f057f33612b016952210211377c843e942b81799ffdc1bb2e8cde34676e22ab33e7ebc2763a72affc189c2103994d152b475560b9eb8a44e72bc19f9e11fa75e06275364f3aaa1399967deaf72103451e86b3e85ccfa48dd87052f7b1bd5d1c4503fb61a237fbb20ce128a1d0d5b053ae040047304402201a428798430505fe03607a29e6dd00c4d047e4d935ba002b90960b6b1ebe097b02204da4d8fbbef95570e33028161bed703a447e029b98645258e9ae8a11f330158c01483045022100a9d399a832afcc0861e6f378d28eed66ac6e2da1ef5e980de728d75bf650e60a022036807d5c044e9e79a89a28767425711a28034b48af8270eb736e154b53a03e5e016952210386ce8921e5dd01d248426dd1c219305c29febab9bef9fa21a9bb3c808da82f1821036b34061649026769149b55f1c549673b9088e6ee75ac7a3bdfa5469795c1530321025fa2e9f9486fce04420afb34a2ea17e609817ce8b32cd46b374035b098f0203f53ae00000000", "vin": [{"sequence": 4294967295, "scriptSig": {"hex": "004730440220496322177d0b0be1549484e3c8b9fbe049aa7e01bfa62f387a88756157b8529602200dbbb67032e619d07da1ba5ad08a1b338e340f0435be7384906ce529e14ee10d0147304402207440021963a6eb2febf7fe59a619f63321d4eae9f9773bd349106ee4204bcf40022059c695be52117c8354491bba453946fbaf49b21dfffd5fae2dc20dea9f039ff9014c69522103b47396196e047594c12cfeaa8ddad7c21a128b01b45da23cc3d6743a9260db9021035eb25bde7c14edc9b6cfb48f8cffa959944734735ab1d032fa0fba8673e82e562102abbf9e39a7d31f3cdc6d7f8c00a4aa1e012b693f2fdf113fcefce463a44cbf3c53ae", "asm": "0 30440220496322177d0b0be1549484e3c8b9fbe049aa7e01bfa62f387a88756157b8529602200dbbb67032e619d07da1ba5ad08a1b338e340f0435be7384906ce529e14ee10d[ALL] 304402207440021963a6eb2febf7fe59a619f63321d4eae9f9773bd349106ee4204bcf40022059c695be52117c8354491bba453946fbaf49b21dfffd5fae2dc20dea9f039ff9[ALL] 522103b47396196e047594c12cfeaa8ddad7c21a128b01b45da23cc3d6743a9260db9021035eb25bde7c14edc9b6cfb48f8cffa959944734735ab1d032fa0fba8673e82e562102abbf9e39a7d31f3cdc6d7f8c00a4aa1e012b693f2fdf113fcefce463a44cbf3c53ae"}, "vout": 0, "txid": "c0594c6364e1f2a2db6b68968e58b7dd2334513b80a9d2dec501525ff7b31781"}, {"txinwitness": ["", "3045022100cc9615220d3cfdf089c2576f91b9bc26c71e2851d98ab9da8dda9cfabb8e3b6502206842cc2ba076f971813dc89751ce34464f48d5476127c4df3af2182dadd706e101", "304402205ac60faff4a069106ac63942a7f09c500c491ad0398e589c7245c1d0b6b3bc3d0220100ffb30e2ab41412f234a9944fba1435c99a96af4a790b082f1bc7a1e33f4a901", "52210221ca7ac10e510738dbcbd268fbe892fefc0b6b6de081362585533401d2f39bec21033995537fb5463c61bc95c7d74e40bf2e2062636760941a040e4f8d64a50221bf210233bedd60cc4c991b4d9feec0407a2a5bd4828d9d1403fb50b08cda0e8d0667a553ae"], "sequence": 4294967295, "scriptSig": {"hex": "2200208a760e5ce0bf8b8a1dc24aae9dc494702bcfdec3114481c8d79825725c913c95", "asm": "00208a760e5ce0bf8b8a1dc24aae9dc494702bcfdec3114481c8d79825725c913c95"}, "vout": 0, "txid": "34000d63b1d464ac619dd356e6d6e116e02e11b65d1a9e5839486f5812f6c5c6"}, {"txinwitness": ["", "3044022034a5bdc7b603785ee1cac68e9cc9dedb259ea3ca120bbc4504ebe498fbb4caf7022064a068356701aeae41cb6a1ee4c4e1911e281a50d65d36228b4f1d6d670e347e01", "304402205b0866778831b2914dc5f6044e641f4561ac6425bd3208e4b5527016bf52736702202aa282ef8b793bfed7fd451333dba683b372c88682c9531032246f057f33612b01", "52210211377c843e942b81799ffdc1bb2e8cde34676e22ab33e7ebc2763a72affc189c2103994d152b475560b9eb8a44e72bc19f9e11fa75e06275364f3aaa1399967deaf72103451e86b3e85ccfa48dd87052f7b1bd5d1c4503fb61a237fbb20ce128a1d0d5b053ae"], "sequence": 4294967295, "scriptSig": {"hex": "2200203b61cc3d33ae6fea27e5b6a2e2f8dc54c11013e74a4e2b7695c80bf9f9b3baba", "asm": "00203b61cc3d33ae6fea27e5b6a2e2f8dc54c11013e74a4e2b7695c80bf9f9b3baba"}, "vout": 1, "txid": "b142ef475ecc84667a975156a3170effcdf455ffd01b735fd05458bd1f1e5caf"}, {"txinwitness": ["", "304402201a428798430505fe03607a29e6dd00c4d047e4d935ba002b90960b6b1ebe097b02204da4d8fbbef95570e33028161bed703a447e029b98645258e9ae8a11f330158c01", "3045022100a9d399a832afcc0861e6f378d28eed66ac6e2da1ef5e980de728d75bf650e60a022036807d5c044e9e79a89a28767425711a28034b48af8270eb736e154b53a03e5e01", "52210386ce8921e5dd01d248426dd1c219305c29febab9bef9fa21a9bb3c808da82f1821036b34061649026769149b55f1c549673b9088e6ee75ac7a3bdfa5469795c1530321025fa2e9f9486fce04420afb34a2ea17e609817ce8b32cd46b374035b098f0203f53ae"], "sequence": 4294967295, "scriptSig": {"hex": "220020cf3170f33bd73124fab83ac60982a005ad97f7cd6e3f9d76a7a83d8937c0a0d0", "asm": "0020cf3170f33bd73124fab83ac60982a005ad97f7cd6e3f9d76a7a83d8937c0a0d0"}, "vout": 1, "txid": "402cc26a669f461a8a0bb04414e8a626bffb9016abcf315581c41e91bd9e2845"}], "txid": "55573a4078f7a18d17042fa7a27abcc3c1c62387a6c57b7d1c5fb7a9ad41553a", "blocktime": 1537871767, "version": 1, "confirmations": 11495, "time": 1537871767, "locktime": 0, "vsize": 788, "size": 1358}