{"hash": "e654b97156b2fd220e42747cf7e7eeee034c14f0d3ff71018a28a859813b25e6", "blockhash": "0000000000000000001cda96e906b7601b7a6fb1a3b62bca570a9e5d8f4b3de1", "vout": [{"scriptPubKey": {"reqSigs": 1, "hex": "a9141cdf5336591e6f067aaaa5a3c145a77578a5d4b787", "addresses": ["34KgNp1iBuM9FF7dX5TjfHEuF1kMmR36HH"], "asm": "OP_HASH160 1cdf5336591e6f067aaaa5a3c145a77578a5d4b7 OP_EQUAL", "type": "scripthash"}, "value": 17.83151929, "n": 0}, {"scriptPubKey": {"reqSigs": 1, "hex": "a914b22bc223499c06822f81b11e082f710efa118b9987", "addresses": ["3Hw6d5C97M8NoLW12RoD5qzysQHukEvRKM"], "asm": "OP_HASH160 b22bc223499c06822f81b11e082f710efa118b99 OP_EQUAL", "type": "scripthash"}, "value": 0.01584044, "n": 1}], "hex": "02000000000101d62831aca7096cca2a2a18310e426640d85e83537fbe54bc3bb5617dd434ae0a00000000171600145dbba6a819669b811251150cd34578eafbee4505feffffff0239bd486a0000000017a9141cdf5336591e6f067aaaa5a3c145a77578a5d4b787ac2b18000000000017a914b22bc223499c06822f81b11e082f710efa118b998702473044022014f566cdc32240946eac804c6dd0794d2542cecbf6787d67013b36a935f2edd402207e213b80cc2b8a9893844d6b3881d5b5dd697fcebad3908154f29515ae03bf06012103386e5e8fa974f7a2ec7fe07376d8f2d9e836d3cd221d31f6b5d9d8b73f659f78ea480800", "vin": [{"txinwitness": ["3044022014f566cdc32240946eac804c6dd0794d2542cecbf6787d67013b36a935f2edd402207e213b80cc2b8a9893844d6b3881d5b5dd697fcebad3908154f29515ae03bf0601", "03386e5e8fa974f7a2ec7fe07376d8f2d9e836d3cd221d31f6b5d9d8b73f659f78"], "sequence": 4294967294, "scriptSig": {"hex": "1600145dbba6a819669b811251150cd34578eafbee4505", "asm": "00145dbba6a819669b811251150cd34578eafbee4505"}, "vout": 0, "txid": "0aae34d47d61b53bbc54be7f53835ed84066420e31182a2aca6c09a7ac3128d6"}], "txid": "556066c8721165bc8f910d1d832f23cd8d6c5a11f7639878203423ee123770ab", "blocktime": 1537873282, "version": 2, "confirmations": 11480, "time": 1537873282, "locktime": 542954, "vsize": 166, "size": 247}