{"hash": "5562ad49b4af019900c82f280f89a721d3940649802bc346b0040588c510f9da", "blockhash": "0000000000000000001cda96e906b7601b7a6fb1a3b62bca570a9e5d8f4b3de1", "vout": [{"scriptPubKey": {"type": "nulldata", "hex": "6a4c50000077c4000198821ccaf0374b3a05f819d1e5bf9ae76da98a211aaf6c953dd567cf27e7178290483b5de464d458b0b2bf01bb335baa12f606131900bbc367911d100759d4ba30d2c37bb011d97e02cf", "asm": "OP_RETURN 000077c4000198821ccaf0374b3a05f819d1e5bf9ae76da98a211aaf6c953dd567cf27e7178290483b5de464d458b0b2bf01bb335baa12f606131900bbc367911d100759d4ba30d2c37bb011d97e02cf"}, "value": 0.0, "n": 0}, {"scriptPubKey": {"reqSigs": 1, "hex": "76a914898d578d37e1e101e12ec823de8886937fd3ff0e88ac", "addresses": ["1DYJttumHApVH3Gmp7Hgj8QjEo1ZokdFx6"], "asm": "OP_DUP OP_HASH160 898d578d37e1e101e12ec823de8886937fd3ff0e OP_EQUALVERIFY OP_CHECKSIG", "type": "pubkeyhash"}, "value": 0.00641332, "n": 1}], "hex": "010000000124c4d415f04217a737d894630351123a3f0b25cd1da7ef521fd17668268ee3c3000000006b483045022100e9d583df14406eeeafce6863431df108ac776c936b827f3f09c182d66deb8a2602207582425e161d21008b11792edc79f5697f6c1f4776d7a6a6d9950f5bf064704c01210240c75de8b97d19c1e6ac2560b38cfafd7f2282f2cd7710cf4f0332ee68001023ffffffff020000000000000000536a4c50000077c4000198821ccaf0374b3a05f819d1e5bf9ae76da98a211aaf6c953dd567cf27e7178290483b5de464d458b0b2bf01bb335baa12f606131900bbc367911d100759d4ba30d2c37bb011d97e02cf34c90900000000001976a914898d578d37e1e101e12ec823de8886937fd3ff0e88ac00000000", "vin": [{"sequence": 4294967295, "scriptSig": {"hex": "483045022100e9d583df14406eeeafce6863431df108ac776c936b827f3f09c182d66deb8a2602207582425e161d21008b11792edc79f5697f6c1f4776d7a6a6d9950f5bf064704c01210240c75de8b97d19c1e6ac2560b38cfafd7f2282f2cd7710cf4f0332ee68001023", "asm": "3045022100e9d583df14406eeeafce6863431df108ac776c936b827f3f09c182d66deb8a2602207582425e161d21008b11792edc79f5697f6c1f4776d7a6a6d9950f5bf064704c[ALL] 0240c75de8b97d19c1e6ac2560b38cfafd7f2282f2cd7710cf4f0332ee68001023"}, "vout": 0, "txid": "c3e38e266876d11f52efa71dcd250b3f3a1251036394d837a71742f015d4c424"}], "txid": "5562ad49b4af019900c82f280f89a721d3940649802bc346b0040588c510f9da", "blocktime": 1537873282, "version": 1, "confirmations": 11484, "time": 1537873282, "locktime": 0, "vsize": 284, "size": 284}