{"hash": "556b46e611d636b767be714439ad912dee790b64448d18d64c56417781931142", "blockhash": "00000000000000000017f5eb5941039fbcee6240d03bc1f2f8e35350df66a1d8", "vout": [{"scriptPubKey": {"reqSigs": 1, "hex": "a91453bb6651f71d7fa53bfe47d225bb0233fd7cbeb787", "addresses": ["39KkWDxk3BxqRrCGFqSkAdFpzCmFY973Cz"], "asm": "OP_HASH160 53bb6651f71d7fa53bfe47d225bb0233fd7cbeb7 OP_EQUAL", "type": "scripthash"}, "value": 0.01563, "n": 0}, {"scriptPubKey": {"reqSigs": 1, "hex": "a91422c13828c696b919bd834559b884f4817fb31b9a87", "addresses": ["34rnNBaxjFeBiUCzBXMeivcCiaz4Hd76YN"], "asm": "OP_HASH160 22c13828c696b919bd834559b884f4817fb31b9a OP_EQUAL", "type": "scripthash"}, "value": 1.23430162, "n": 1}], "hex": "010000000570872150478d9fff43aae2ba3d10543cc1d9bb93d3a24c6c0d8ba7bd45af330300000000fdfe0000483045022100d8944170b58d2fcdcfcfeea567d94833bac96d78ed54e50f2b8d2c40268969c702204eb608c083b02a009cbf97b64e82a8ec8bb6098f84723e87dc1d5c2024024ac901483045022100f097a18ff77e1973e911a1af24a63540c878e5e9e42e3ac4bb7fdb54da856ac102206b662fc488c598ab102245c646525fe0edb66098bf3cf181c86c0494950a4215014c695221022d30ee73980f1345b1d779b26acdb221499f121b4ca6c7ac7aea56f041729e3f21033d6541812df658b0cd84c3a2c570071915b7a103a3ed57232c3419d20cf0fc992103e76c59dcc0a242323d9d5036cfe725a3af7267be85873ebe44e6e7959634853453aefdffffffe1c55935915186bd90842a0ae4b868b1c6975e04fec7fe4f3a577f8cf9d8ee2b01000000fdfd0000483045022100c59cb95721c294d20251c1b45a89f555b3d497645aea3f0190e01f71aae66f45022056c3fea8d9d8fbe7df1db1df55c855ac94e4499a5647bce7763bdde469a41f390147304402207da02a1f4a28a179d897bef3997f5b3dfe4a5c94c7ac798775435dcae4fcbddd0220526bbfbe635cd0e1018afd6e0ba0ba058f3bff222f0faf3726d11c2736bd0345014c695221022d30ee73980f1345b1d779b26acdb221499f121b4ca6c7ac7aea56f041729e3f21033d6541812df658b0cd84c3a2c570071915b7a103a3ed57232c3419d20cf0fc992103e76c59dcc0a242323d9d5036cfe725a3af7267be85873ebe44e6e7959634853453aefdffffff7712eacd57d35a6acf6f723654265a4fb218cc7c29d13b20182fa05de0c3576100000000fdfd0000483045022100991625953fe32f8b9ffdf94fa4ee0f898cd3bd2c0b2c7d70f2c50289996ee8ea022044efd482d2964ea591c8c21ee30022cac0b1670989fa3f981aee8275b7f7d9200147304402201404347f79c6f5c86f2023f17351e7c2080696eba373745872addaf8298da3450220112a7a4aab86db715bb3b8c645315e6632e628fde5a53f0e9dce73ba4f0afae2014c695221022d30ee73980f1345b1d779b26acdb221499f121b4ca6c7ac7aea56f041729e3f21033d6541812df658b0cd84c3a2c570071915b7a103a3ed57232c3419d20cf0fc992103e76c59dcc0a242323d9d5036cfe725a3af7267be85873ebe44e6e7959634853453aefdffffffac2935fcc616045a238e98af18d3e33e9ec25dc6d3611b5159c49410cf4e0c7300000000fc0047304402201dfa018a357dc43b1b58345e91d3c1f55fc6bf66cf3e0e0d001631e5e03b360002204b748bf58dcf7830878359488bc003d2fa1e27b05b330eac29aa6adbc43db8710147304402206b744ec710530708d87ccd1cb1f905b7199136f8ea810ccb5211b20ecf51108e02204ed49e542a71eec7ca5ab0f1109362efe71e4f18191bb34930c925841f13b944014c695221022d30ee73980f1345b1d779b26acdb221499f121b4ca6c7ac7aea56f041729e3f21033d6541812df658b0cd84c3a2c570071915b7a103a3ed57232c3419d20cf0fc992103e76c59dcc0a242323d9d5036cfe725a3af7267be85873ebe44e6e7959634853453aefdffffffcc64eb8e186ed56b6fa1bda047f77574446883b98650244bc9f5cc48f02c697701000000fdfd0000483045022100caddcd0266ad3b4dbcef56db06dcc7c4be3efd3a01d49609e4fd99636cf8ffc5022023edb4697049697f089b0873b9db586495513a7f1bd7323bce0a0cc6eb2fb76c014730440220168bf0a22a18c1ba0e915b83ae6d272764eea782395bc5ec6a91b827ea63763002203e1e253ded624ad6ce5cb8293a8d9d87ef1a4d5d98fb4394b4b7b2033fa37fbc014c695221022d30ee73980f1345b1d779b26acdb221499f121b4ca6c7ac7aea56f041729e3f21033d6541812df658b0cd84c3a2c570071915b7a103a3ed57232c3419d20cf0fc992103e76c59dcc0a242323d9d5036cfe725a3af7267be85873ebe44e6e7959634853453aefdffffff0278d917000000000017a91453bb6651f71d7fa53bfe47d225bb0233fd7cbeb78712655b070000000017a91422c13828c696b919bd834559b884f4817fb31b9a8715490800", "vin": [{"sequence": 4294967293, "scriptSig": {"hex": "00483045022100d8944170b58d2fcdcfcfeea567d94833bac96d78ed54e50f2b8d2c40268969c702204eb608c083b02a009cbf97b64e82a8ec8bb6098f84723e87dc1d5c2024024ac901483045022100f097a18ff77e1973e911a1af24a63540c878e5e9e42e3ac4bb7fdb54da856ac102206b662fc488c598ab102245c646525fe0edb66098bf3cf181c86c0494950a4215014c695221022d30ee73980f1345b1d779b26acdb221499f121b4ca6c7ac7aea56f041729e3f21033d6541812df658b0cd84c3a2c570071915b7a103a3ed57232c3419d20cf0fc992103e76c59dcc0a242323d9d5036cfe725a3af7267be85873ebe44e6e7959634853453ae", "asm": "0 3045022100d8944170b58d2fcdcfcfeea567d94833bac96d78ed54e50f2b8d2c40268969c702204eb608c083b02a009cbf97b64e82a8ec8bb6098f84723e87dc1d5c2024024ac9[ALL] 3045022100f097a18ff77e1973e911a1af24a63540c878e5e9e42e3ac4bb7fdb54da856ac102206b662fc488c598ab102245c646525fe0edb66098bf3cf181c86c0494950a4215[ALL] 5221022d30ee73980f1345b1d779b26acdb221499f121b4ca6c7ac7aea56f041729e3f21033d6541812df658b0cd84c3a2c570071915b7a103a3ed57232c3419d20cf0fc992103e76c59dcc0a242323d9d5036cfe725a3af7267be85873ebe44e6e7959634853453ae"}, "vout": 0, "txid": "0333af45bda78b0d6c4ca2d393bbd9c13c54103dbae2aa43ff9f8d4750218770"}, {"sequence": 4294967293, "scriptSig": {"hex": "00483045022100c59cb95721c294d20251c1b45a89f555b3d497645aea3f0190e01f71aae66f45022056c3fea8d9d8fbe7df1db1df55c855ac94e4499a5647bce7763bdde469a41f390147304402207da02a1f4a28a179d897bef3997f5b3dfe4a5c94c7ac798775435dcae4fcbddd0220526bbfbe635cd0e1018afd6e0ba0ba058f3bff222f0faf3726d11c2736bd0345014c695221022d30ee73980f1345b1d779b26acdb221499f121b4ca6c7ac7aea56f041729e3f21033d6541812df658b0cd84c3a2c570071915b7a103a3ed57232c3419d20cf0fc992103e76c59dcc0a242323d9d5036cfe725a3af7267be85873ebe44e6e7959634853453ae", "asm": "0 3045022100c59cb95721c294d20251c1b45a89f555b3d497645aea3f0190e01f71aae66f45022056c3fea8d9d8fbe7df1db1df55c855ac94e4499a5647bce7763bdde469a41f39[ALL] 304402207da02a1f4a28a179d897bef3997f5b3dfe4a5c94c7ac798775435dcae4fcbddd0220526bbfbe635cd0e1018afd6e0ba0ba058f3bff222f0faf3726d11c2736bd0345[ALL] 5221022d30ee73980f1345b1d779b26acdb221499f121b4ca6c7ac7aea56f041729e3f21033d6541812df658b0cd84c3a2c570071915b7a103a3ed57232c3419d20cf0fc992103e76c59dcc0a242323d9d5036cfe725a3af7267be85873ebe44e6e7959634853453ae"}, "vout": 1, "txid": "2beed8f98c7f573a4ffec7fe045e97c6b168b8e40a2a8490bd8651913559c5e1"}, {"sequence": 4294967293, "scriptSig": {"hex": "00483045022100991625953fe32f8b9ffdf94fa4ee0f898cd3bd2c0b2c7d70f2c50289996ee8ea022044efd482d2964ea591c8c21ee30022cac0b1670989fa3f981aee8275b7f7d9200147304402201404347f79c6f5c86f2023f17351e7c2080696eba373745872addaf8298da3450220112a7a4aab86db715bb3b8c645315e6632e628fde5a53f0e9dce73ba4f0afae2014c695221022d30ee73980f1345b1d779b26acdb221499f121b4ca6c7ac7aea56f041729e3f21033d6541812df658b0cd84c3a2c570071915b7a103a3ed57232c3419d20cf0fc992103e76c59dcc0a242323d9d5036cfe725a3af7267be85873ebe44e6e7959634853453ae", "asm": "0 3045022100991625953fe32f8b9ffdf94fa4ee0f898cd3bd2c0b2c7d70f2c50289996ee8ea022044efd482d2964ea591c8c21ee30022cac0b1670989fa3f981aee8275b7f7d920[ALL] 304402201404347f79c6f5c86f2023f17351e7c2080696eba373745872addaf8298da3450220112a7a4aab86db715bb3b8c645315e6632e628fde5a53f0e9dce73ba4f0afae2[ALL] 5221022d30ee73980f1345b1d779b26acdb221499f121b4ca6c7ac7aea56f041729e3f21033d6541812df658b0cd84c3a2c570071915b7a103a3ed57232c3419d20cf0fc992103e76c59dcc0a242323d9d5036cfe725a3af7267be85873ebe44e6e7959634853453ae"}, "vout": 0, "txid": "6157c3e05da02f18203bd1297ccc18b24f5a265436726fcf6a5ad357cdea1277"}, {"sequence": 4294967293, "scriptSig": {"hex": "0047304402201dfa018a357dc43b1b58345e91d3c1f55fc6bf66cf3e0e0d001631e5e03b360002204b748bf58dcf7830878359488bc003d2fa1e27b05b330eac29aa6adbc43db8710147304402206b744ec710530708d87ccd1cb1f905b7199136f8ea810ccb5211b20ecf51108e02204ed49e542a71eec7ca5ab0f1109362efe71e4f18191bb34930c925841f13b944014c695221022d30ee73980f1345b1d779b26acdb221499f121b4ca6c7ac7aea56f041729e3f21033d6541812df658b0cd84c3a2c570071915b7a103a3ed57232c3419d20cf0fc992103e76c59dcc0a242323d9d5036cfe725a3af7267be85873ebe44e6e7959634853453ae", "asm": "0 304402201dfa018a357dc43b1b58345e91d3c1f55fc6bf66cf3e0e0d001631e5e03b360002204b748bf58dcf7830878359488bc003d2fa1e27b05b330eac29aa6adbc43db871[ALL] 304402206b744ec710530708d87ccd1cb1f905b7199136f8ea810ccb5211b20ecf51108e02204ed49e542a71eec7ca5ab0f1109362efe71e4f18191bb34930c925841f13b944[ALL] 5221022d30ee73980f1345b1d779b26acdb221499f121b4ca6c7ac7aea56f041729e3f21033d6541812df658b0cd84c3a2c570071915b7a103a3ed57232c3419d20cf0fc992103e76c59dcc0a242323d9d5036cfe725a3af7267be85873ebe44e6e7959634853453ae"}, "vout": 0, "txid": "730c4ecf1094c459511b61d3c65dc29e3ee3d318af988e235a0416c6fc3529ac"}, {"sequence": 4294967293, "scriptSig": {"hex": "00483045022100caddcd0266ad3b4dbcef56db06dcc7c4be3efd3a01d49609e4fd99636cf8ffc5022023edb4697049697f089b0873b9db586495513a7f1bd7323bce0a0cc6eb2fb76c014730440220168bf0a22a18c1ba0e915b83ae6d272764eea782395bc5ec6a91b827ea63763002203e1e253ded624ad6ce5cb8293a8d9d87ef1a4d5d98fb4394b4b7b2033fa37fbc014c695221022d30ee73980f1345b1d779b26acdb221499f121b4ca6c7ac7aea56f041729e3f21033d6541812df658b0cd84c3a2c570071915b7a103a3ed57232c3419d20cf0fc992103e76c59dcc0a242323d9d5036cfe725a3af7267be85873ebe44e6e7959634853453ae", "asm": "0 3045022100caddcd0266ad3b4dbcef56db06dcc7c4be3efd3a01d49609e4fd99636cf8ffc5022023edb4697049697f089b0873b9db586495513a7f1bd7323bce0a0cc6eb2fb76c[ALL] 30440220168bf0a22a18c1ba0e915b83ae6d272764eea782395bc5ec6a91b827ea63763002203e1e253ded624ad6ce5cb8293a8d9d87ef1a4d5d98fb4394b4b7b2033fa37fbc[ALL] 5221022d30ee73980f1345b1d779b26acdb221499f121b4ca6c7ac7aea56f041729e3f21033d6541812df658b0cd84c3a2c570071915b7a103a3ed57232c3419d20cf0fc992103e76c59dcc0a242323d9d5036cfe725a3af7267be85873ebe44e6e7959634853453ae"}, "vout": 1, "txid": "77692cf048ccf5c94b245086b98368447475f747a0bda16f6bd56e188eeb64cc"}], "txid": "556b46e611d636b767be714439ad912dee790b64448d18d64c56417781931142", "blocktime": 1537874412, "version": 1, "confirmations": 11467, "time": 1537874412, "locktime": 542997, "vsize": 1552, "size": 1552}