{"hash": "be7231ff9046f11ceeb5147e1cff41406c9da70ddc6fec4de2a6b42efcaf29ed", "blockhash": "0000000000000000000baef3f32e3676a92c3b2e5da21b426e4f302fc371ce76", "vout": [{"scriptPubKey": {"reqSigs": 1, "hex": "a914a1cccbc154e9ceb47c2fead1ec2ef9147fa9953487", "addresses": ["3GSY3u4Hk6N3wBgiuVAvstfyFsmN31myPT"], "asm": "OP_HASH160 a1cccbc154e9ceb47c2fead1ec2ef9147fa99534 OP_EQUAL", "type": "scripthash"}, "value": 0.00300812, "n": 0}, {"scriptPubKey": {"reqSigs": 1, "hex": "a91408c364340a91e77e4376b26fdad3b5aedc5661f787", "addresses": ["32VMQ7Th4qGhbDYY68FZrfSF9hTbsPivgt"], "asm": "OP_HASH160 08c364340a91e77e4376b26fdad3b5aedc5661f7 OP_EQUAL", "type": "scripthash"}, "value": 0.0163001, "n": 1}], "hex": "010000000001016a667c3fecb7be8d28fdcb70f415cda5d3f17fd8408214f965edb26e9130c3c2010000002322002027561ef61439ff4994ea3793249bbb358319edb59fff63c1eeada48f299e81b5ffffffff020c9704000000000017a914a1cccbc154e9ceb47c2fead1ec2ef9147fa99534873adf18000000000017a91408c364340a91e77e4376b26fdad3b5aedc5661f7870400483045022100aa6255d84ee81452922bcf790dd63c6da1492a28c9ae598c98a32b366bfe965c02202c0e490b06e61a26d7fe761b8d03570e5ba2621f658517593016256fd281739a014830450221009488d6afedc39ee08191c2eead2d237669e4f638e76678754f2b3e4a3794adb702202e230261b961cf2358fd428f24bf8a97164b31d0c5fe1dcd98e6d01a0389dfb60147522102f484437eae67e7d1f9cf7235bd52510c99f379408a1f6fe737011d4bc259358a2103871fc2ca08e6950b38867e8e6a0e94ee625223d3aa0df5c65f414c6d784467e252ae00000000", "vin": [{"txinwitness": ["", "3045022100aa6255d84ee81452922bcf790dd63c6da1492a28c9ae598c98a32b366bfe965c02202c0e490b06e61a26d7fe761b8d03570e5ba2621f658517593016256fd281739a01", "30450221009488d6afedc39ee08191c2eead2d237669e4f638e76678754f2b3e4a3794adb702202e230261b961cf2358fd428f24bf8a97164b31d0c5fe1dcd98e6d01a0389dfb601", "522102f484437eae67e7d1f9cf7235bd52510c99f379408a1f6fe737011d4bc259358a2103871fc2ca08e6950b38867e8e6a0e94ee625223d3aa0df5c65f414c6d784467e252ae"], "sequence": 4294967295, "scriptSig": {"hex": "22002027561ef61439ff4994ea3793249bbb358319edb59fff63c1eeada48f299e81b5", "asm": "002027561ef61439ff4994ea3793249bbb358319edb59fff63c1eeada48f299e81b5"}, "vout": 1, "txid": "c2c330916eb2ed65f9148240d87ff1d3a5cd15f470cbfd288dbeb7ec3f7c666a"}], "txid": "5571bc6b45d0b5568aad06e6dcd1d3884dcdbc5653d928df73121dbe3fa9a11b", "blocktime": 1537876114, "version": 1, "confirmations": 11462, "time": 1537876114, "locktime": 0, "vsize": 206, "size": 372}