{"hash": "558628614954064ad5dc70d408cf30394057029bd723e117cae3f8f376d0c274", "blockhash": "0000000000000000001e0dab787dd257d1dbfcb92a98c2207d5e1078be1f4165", "vout": [{"scriptPubKey": {"reqSigs": 1, "hex": "76a914b71a957db12aefa8991da0fcd7e87159444db99488ac", "addresses": ["1HhAWC2coKSGUsnCELFzVFuo2ckydMDGnx"], "asm": "OP_DUP OP_HASH160 b71a957db12aefa8991da0fcd7e87159444db994 OP_EQUALVERIFY OP_CHECKSIG", "type": "pubkeyhash"}, "value": 0.00018, "n": 0}, {"scriptPubKey": {"reqSigs": 1, "hex": "a914d5af18b1d9b087973ec4b514e67cc39e5309118087", "addresses": ["3MAscKU7DXYby4UT773vVKY6uP1dcE98i8"], "asm": "OP_HASH160 d5af18b1d9b087973ec4b514e67cc39e53091180 OP_EQUAL", "type": "scripthash"}, "value": 0.02, "n": 1}], "hex": "010000000773609c68a3085dde187daf39bbeaf71914f52a7b01066db2799d55487f43f011000000006a473044022036a3821d1bdfa059476acdf713faa8bb3db7f04f8c728edea9ef7e19fae35b8102200df157c0d0454989771afd35a14db0ed50b97f729c310e2c4d8aca95718096e7012102b11829658623c006bacbfb88926e90885787bfcc8036517a34e0abf79580c9a0fdffffff57a16e74b48b5241c470aae941ea1870c5953c7fae50617293933c347905a55d000000006a4730440220497ec71bd0225d56c4768f14d80202e74e13e6d3ae6ddba5ef27e7e1b8d6bc1d022076c103c14a5beaaaa19fbca6b453e36c90ee96e651b22f2da41b01f43c3251a80121023c0f3a01232f8c13cb4032bd3a6c612a462c49a349c0aa246d960855be0c4a79fdffffff14366ae6fe68b3425dd4b827a316b90957e583b412a8ff9ce78176c58cd07660000000006b483045022100d89836f0d1016c327dc4d253381df50f0a21bc7887f53a4450e4fc82688793d9022032a3cdb25ed1ca93422bbe0f500fbb2596d269fab347c93970a1527c34966a870121023c0f3a01232f8c13cb4032bd3a6c612a462c49a349c0aa246d960855be0c4a79fdffffffabfd24e6abcf611a3a6800ee3d1251d2d21cdaa999435c47a2b6634d2978ee86000000006b483045022100da3ce59048dcc6d1d402c9d8ef9037e1e98c2aa847d9a5a99d94e92beedbd5440220473f4e47020f26ff07d03729fa2520782ca5a538b8ed74f7509fd1663a2c03f70121023c0f3a01232f8c13cb4032bd3a6c612a462c49a349c0aa246d960855be0c4a79fdffffffbe23dacb5f5658b492417f8c86a5b02b6fd91199f6ddb604a0fa4c1444ba07a8000000006b483045022100eb928c4d83f8bfd74933f71ce1b4f598bf95b9dc7033532d68ee8cc5810c1d14022011e76678221d7740302c18f9ae743ed06280bd3566f6eff1346b515705ff94820121023c0f3a01232f8c13cb4032bd3a6c612a462c49a349c0aa246d960855be0c4a79fdffffff08223dd7ad9234e5da2072d46ae05c7b2fdedafa134900d674b9ea40e43235c8000000006b483045022100dfabac2ec5a9b674382f93599a48ccca8c9f4d546252a4765c99a1e42bd467bf02205282516a3cb969edab0edc2afa5b390951f4ed47e798c40c03c8a37f6370a95d0121023c0f3a01232f8c13cb4032bd3a6c612a462c49a349c0aa246d960855be0c4a79fdffffff85ccb37e14f1878f7b4e6772873fcc73d08c15ec62788e881ecb46a191b674cb000000006a47304402205a0aed4a0bcbedefba56edd1e25799bee18a539c5bc55579763020a88eb3d00b02203888666b3a6950222d54c27d02bdc2c5758e3466dd5ebf0bb9c7af3e16f6900c0121030c8d6c73493b15db5663d35360b63b35a468147cc9fea74c1d14708bf14fdfcbfdffffff0250460000000000001976a914b71a957db12aefa8991da0fcd7e87159444db99488ac80841e000000000017a914d5af18b1d9b087973ec4b514e67cc39e530911808700000000", "vin": [{"sequence": 4294967293, "scriptSig": {"hex": "473044022036a3821d1bdfa059476acdf713faa8bb3db7f04f8c728edea9ef7e19fae35b8102200df157c0d0454989771afd35a14db0ed50b97f729c310e2c4d8aca95718096e7012102b11829658623c006bacbfb88926e90885787bfcc8036517a34e0abf79580c9a0", "asm": "3044022036a3821d1bdfa059476acdf713faa8bb3db7f04f8c728edea9ef7e19fae35b8102200df157c0d0454989771afd35a14db0ed50b97f729c310e2c4d8aca95718096e7[ALL] 02b11829658623c006bacbfb88926e90885787bfcc8036517a34e0abf79580c9a0"}, "vout": 0, "txid": "11f0437f48559d79b26d06017b2af51419f7eabb39af7d18de5d08a3689c6073"}, {"sequence": 4294967293, "scriptSig": {"hex": "4730440220497ec71bd0225d56c4768f14d80202e74e13e6d3ae6ddba5ef27e7e1b8d6bc1d022076c103c14a5beaaaa19fbca6b453e36c90ee96e651b22f2da41b01f43c3251a80121023c0f3a01232f8c13cb4032bd3a6c612a462c49a349c0aa246d960855be0c4a79", "asm": "30440220497ec71bd0225d56c4768f14d80202e74e13e6d3ae6ddba5ef27e7e1b8d6bc1d022076c103c14a5beaaaa19fbca6b453e36c90ee96e651b22f2da41b01f43c3251a8[ALL] 023c0f3a01232f8c13cb4032bd3a6c612a462c49a349c0aa246d960855be0c4a79"}, "vout": 0, "txid": "5da50579343c9393726150ae7f3c95c57018ea41e9aa70c441528bb4746ea157"}, {"sequence": 4294967293, "scriptSig": {"hex": "483045022100d89836f0d1016c327dc4d253381df50f0a21bc7887f53a4450e4fc82688793d9022032a3cdb25ed1ca93422bbe0f500fbb2596d269fab347c93970a1527c34966a870121023c0f3a01232f8c13cb4032bd3a6c612a462c49a349c0aa246d960855be0c4a79", "asm": "3045022100d89836f0d1016c327dc4d253381df50f0a21bc7887f53a4450e4fc82688793d9022032a3cdb25ed1ca93422bbe0f500fbb2596d269fab347c93970a1527c34966a87[ALL] 023c0f3a01232f8c13cb4032bd3a6c612a462c49a349c0aa246d960855be0c4a79"}, "vout": 0, "txid": "6076d08cc57681e79cffa812b483e55709b916a327b8d45d42b368fee66a3614"}, {"sequence": 4294967293, "scriptSig": {"hex": "483045022100da3ce59048dcc6d1d402c9d8ef9037e1e98c2aa847d9a5a99d94e92beedbd5440220473f4e47020f26ff07d03729fa2520782ca5a538b8ed74f7509fd1663a2c03f70121023c0f3a01232f8c13cb4032bd3a6c612a462c49a349c0aa246d960855be0c4a79", "asm": "3045022100da3ce59048dcc6d1d402c9d8ef9037e1e98c2aa847d9a5a99d94e92beedbd5440220473f4e47020f26ff07d03729fa2520782ca5a538b8ed74f7509fd1663a2c03f7[ALL] 023c0f3a01232f8c13cb4032bd3a6c612a462c49a349c0aa246d960855be0c4a79"}, "vout": 0, "txid": "86ee78294d63b6a2475c4399a9da1cd2d251123dee00683a1a61cfabe624fdab"}, {"sequence": 4294967293, "scriptSig": {"hex": "483045022100eb928c4d83f8bfd74933f71ce1b4f598bf95b9dc7033532d68ee8cc5810c1d14022011e76678221d7740302c18f9ae743ed06280bd3566f6eff1346b515705ff94820121023c0f3a01232f8c13cb4032bd3a6c612a462c49a349c0aa246d960855be0c4a79", "asm": "3045022100eb928c4d83f8bfd74933f71ce1b4f598bf95b9dc7033532d68ee8cc5810c1d14022011e76678221d7740302c18f9ae743ed06280bd3566f6eff1346b515705ff9482[ALL] 023c0f3a01232f8c13cb4032bd3a6c612a462c49a349c0aa246d960855be0c4a79"}, "vout": 0, "txid": "a807ba44144cfaa004b6ddf69911d96f2bb0a5868c7f4192b458565fcbda23be"}, {"sequence": 4294967293, "scriptSig": {"hex": "483045022100dfabac2ec5a9b674382f93599a48ccca8c9f4d546252a4765c99a1e42bd467bf02205282516a3cb969edab0edc2afa5b390951f4ed47e798c40c03c8a37f6370a95d0121023c0f3a01232f8c13cb4032bd3a6c612a462c49a349c0aa246d960855be0c4a79", "asm": "3045022100dfabac2ec5a9b674382f93599a48ccca8c9f4d546252a4765c99a1e42bd467bf02205282516a3cb969edab0edc2afa5b390951f4ed47e798c40c03c8a37f6370a95d[ALL] 023c0f3a01232f8c13cb4032bd3a6c612a462c49a349c0aa246d960855be0c4a79"}, "vout": 0, "txid": "c83532e440eab974d6004913fadade2f7b5ce06ad47220dae53492add73d2208"}, {"sequence": 4294967293, "scriptSig": {"hex": "47304402205a0aed4a0bcbedefba56edd1e25799bee18a539c5bc55579763020a88eb3d00b02203888666b3a6950222d54c27d02bdc2c5758e3466dd5ebf0bb9c7af3e16f6900c0121030c8d6c73493b15db5663d35360b63b35a468147cc9fea74c1d14708bf14fdfcb", "asm": "304402205a0aed4a0bcbedefba56edd1e25799bee18a539c5bc55579763020a88eb3d00b02203888666b3a6950222d54c27d02bdc2c5758e3466dd5ebf0bb9c7af3e16f6900c[ALL] 030c8d6c73493b15db5663d35360b63b35a468147cc9fea74c1d14708bf14fdfcb"}, "vout": 0, "txid": "cb74b691a146cb1e888e7862ec158cd073cc3f8772674e7b8f87f1147eb3cc85"}], "txid": "558628614954064ad5dc70d408cf30394057029bd723e117cae3f8f376d0c274", "blocktime": 1537872475, "version": 1, "confirmations": 11487, "time": 1537872475, "locktime": 0, "vsize": 1109, "size": 1109}