{"hash": "55876a8d689e86c88b7e5d864c68516d5ca0c7ea6df3ee9b642b7fb13b43fca4", "blockhash": "00000000000000000024a2167bbff67b0be802c0b01cdd79e6331c2be6459f87", "vout": [{"scriptPubKey": {"reqSigs": 1, "hex": "76a914a384e17e7cbae7f3e0fe118d6bfb1ee1aa958b0688ac", "addresses": ["1FucKzToENjZgqF319MQCNKpoyR1RcTPdq"], "asm": "OP_DUP OP_HASH160 a384e17e7cbae7f3e0fe118d6bfb1ee1aa958b06 OP_EQUALVERIFY OP_CHECKSIG", "type": "pubkeyhash"}, "value": 0.08284194, "n": 0}, {"scriptPubKey": {"reqSigs": 1, "hex": "a914fcdd1ef5c8bca666adfd95f404eb15d13b7ceaf087", "addresses": ["3Qk36duYqhWQxMssvQm4fct6HPCsbnaYGf"], "asm": "OP_HASH160 fcdd1ef5c8bca666adfd95f404eb15d13b7ceaf0 OP_EQUAL", "type": "scripthash"}, "value": 0.10555285, "n": 1}], "hex": "02000000010ba044be61c6d588bd915cf02f43a50e94c04894da59a8093da84531cb70944a000000006a47304402200915b1dc64a6836254113f54dc5194fc21d074c34a005d48f37d914f27f08d4802201bae5be87c978a40b5fc0e30c956fa7f687b473d87e50fb2a9b76722fdf04cc50121032cc0beecff23f8b7d8593e19f6f444e84cb954d024e2fd2fc28f923a4fc9ec8afdffffff0222687e00000000001976a914a384e17e7cbae7f3e0fe118d6bfb1ee1aa958b0688ac950fa1000000000017a914fcdd1ef5c8bca666adfd95f404eb15d13b7ceaf0870d490800", "vin": [{"sequence": 4294967293, "scriptSig": {"hex": "47304402200915b1dc64a6836254113f54dc5194fc21d074c34a005d48f37d914f27f08d4802201bae5be87c978a40b5fc0e30c956fa7f687b473d87e50fb2a9b76722fdf04cc50121032cc0beecff23f8b7d8593e19f6f444e84cb954d024e2fd2fc28f923a4fc9ec8a", "asm": "304402200915b1dc64a6836254113f54dc5194fc21d074c34a005d48f37d914f27f08d4802201bae5be87c978a40b5fc0e30c956fa7f687b473d87e50fb2a9b76722fdf04cc5[ALL] 032cc0beecff23f8b7d8593e19f6f444e84cb954d024e2fd2fc28f923a4fc9ec8a"}, "vout": 0, "txid": "4a9470cb3145a83d09a859da9448c0940ea5432ff05c91bd88d5c661be44a00b"}], "txid": "55876a8d689e86c88b7e5d864c68516d5ca0c7ea6df3ee9b642b7fb13b43fca4", "blocktime": 1537870564, "version": 2, "confirmations": 11515, "time": 1537870564, "locktime": 542989, "vsize": 223, "size": 223}