{"hash": "55922cf6067d2d985f0ffdbaea8d59ad92631c82a38594875dbee8255ace630d", "blockhash": "00000000000000000004ffacab907a6b429b9a5745fa0b75af4234bf69dd7176", "vout": [{"scriptPubKey": {"reqSigs": 1, "hex": "a9147076d40084b30d02dfac788412697ae237159b6687", "addresses": ["3BwfxMNytvb6vSEScQp7ovDCfgvzTHs74v"], "asm": "OP_HASH160 7076d40084b30d02dfac788412697ae237159b66 OP_EQUAL", "type": "scripthash"}, "value": 0.00108689, "n": 0}, {"scriptPubKey": {"reqSigs": 1, "hex": "76a9148b15e5c97ca2a5e6f42b51d48a327af4a37d012488ac", "addresses": ["1DgRA8w1e5eHAiFcQcoZAT35TotMpLrUem"], "asm": "OP_DUP OP_HASH160 8b15e5c97ca2a5e6f42b51d48a327af4a37d0124 OP_EQUALVERIFY OP_CHECKSIG", "type": "pubkeyhash"}, "value": 0.00236705, "n": 1}], "hex": "010000000107fe40c0561f411935b9777368b0fe3d4f7dfa5a433a69bf56bec4f7d9109382010000006a47304402206cff5b395d072310ad5ca0767ba438d58eb7883596aeaf7ed44713c85e654f9e022022b96fae971b9eb73ea2eb3c8045e196702f275c5891002114bd9d472fe6b0ea01210306026c3b601f2e7d8db67cf834f6e22ddf003e2afca5604bcbbbd4b904b4fdb4ffffffff0291a801000000000017a9147076d40084b30d02dfac788412697ae237159b6687a19c0300000000001976a9148b15e5c97ca2a5e6f42b51d48a327af4a37d012488ac00000000", "vin": [{"sequence": 4294967295, "scriptSig": {"hex": "47304402206cff5b395d072310ad5ca0767ba438d58eb7883596aeaf7ed44713c85e654f9e022022b96fae971b9eb73ea2eb3c8045e196702f275c5891002114bd9d472fe6b0ea01210306026c3b601f2e7d8db67cf834f6e22ddf003e2afca5604bcbbbd4b904b4fdb4", "asm": "304402206cff5b395d072310ad5ca0767ba438d58eb7883596aeaf7ed44713c85e654f9e022022b96fae971b9eb73ea2eb3c8045e196702f275c5891002114bd9d472fe6b0ea[ALL] 0306026c3b601f2e7d8db67cf834f6e22ddf003e2afca5604bcbbbd4b904b4fdb4"}, "vout": 1, "txid": "829310d9f7c4be56bf693a435afa7d4f3dfeb0687377b93519411f56c040fe07"}], "txid": "55922cf6067d2d985f0ffdbaea8d59ad92631c82a38594875dbee8255ace630d", "blocktime": 1537875543, "version": 1, "confirmations": 11464, "time": 1537875543, "locktime": 0, "vsize": 223, "size": 223}