{"hash": "559617a21dc56fb0204e0bb23a5e09bc75811c93dc903cae3715aee53ba71064", "blockhash": "0000000000000000001cda96e906b7601b7a6fb1a3b62bca570a9e5d8f4b3de1", "vout": [{"scriptPubKey": {"reqSigs": 1, "hex": "76a914c73af6b96fb08402e57f1c5a671dbf9834c3e87b88ac", "addresses": ["1KAS73pXPwDccbhN9NXcqm3QA4pLq5qSJo"], "asm": "OP_DUP OP_HASH160 c73af6b96fb08402e57f1c5a671dbf9834c3e87b OP_EQUALVERIFY OP_CHECKSIG", "type": "pubkeyhash"}, "value": 0.00907494, "n": 0}, {"scriptPubKey": {"reqSigs": 1, "hex": "76a914fa19d7eab1c81be2adfbf22c54bfae7a6ec696d688ac", "addresses": ["1PoQtbEbDtoYHX6UtbRJGGymqduvaXetsc"], "asm": "OP_DUP OP_HASH160 fa19d7eab1c81be2adfbf22c54bfae7a6ec696d6 OP_EQUALVERIFY OP_CHECKSIG", "type": "pubkeyhash"}, "value": 0.10152594, "n": 1}], "hex": "0100000001add2ae8870797017f1a8c2e97f6a39231d07974bee9b37efe3372275060ed3d1010000006a473044022007a8da0b9375d0013819e7908fc18fc1401b705dabe53a621edd67b77144373402207f165e96c46e50363ea943936eb0b4dfe450b2daaa9f2678c7906d564f514f7f012103f94d44c41018f2c44cf44ecd8f535a12c28686876eac9eda87f3215af4276d7afdffffff02e6d80d00000000001976a914c73af6b96fb08402e57f1c5a671dbf9834c3e87b88ac92ea9a00000000001976a914fa19d7eab1c81be2adfbf22c54bfae7a6ec696d688ac13490800", "vin": [{"sequence": 4294967293, "scriptSig": {"hex": "473044022007a8da0b9375d0013819e7908fc18fc1401b705dabe53a621edd67b77144373402207f165e96c46e50363ea943936eb0b4dfe450b2daaa9f2678c7906d564f514f7f012103f94d44c41018f2c44cf44ecd8f535a12c28686876eac9eda87f3215af4276d7a", "asm": "3044022007a8da0b9375d0013819e7908fc18fc1401b705dabe53a621edd67b77144373402207f165e96c46e50363ea943936eb0b4dfe450b2daaa9f2678c7906d564f514f7f[ALL] 03f94d44c41018f2c44cf44ecd8f535a12c28686876eac9eda87f3215af4276d7a"}, "vout": 1, "txid": "d1d30e06752237e3ef379bee4b97071d23396a7fe9c2a8f11770797088aed2ad"}], "txid": "559617a21dc56fb0204e0bb23a5e09bc75811c93dc903cae3715aee53ba71064", "blocktime": 1537873282, "version": 1, "confirmations": 11485, "time": 1537873282, "locktime": 542995, "vsize": 225, "size": 225}