{"hash": "55964c0b50ed1bfc9c94f6f0a4c4cad92086671cbfdf0e8f1f205a2eab3cbec0", "blockhash": "00000000000000000004ffacab907a6b429b9a5745fa0b75af4234bf69dd7176", "vout": [{"scriptPubKey": {"reqSigs": 1, "hex": "76a9142ca706239e35b916ba13b24d4e5861c6865b0f8f88ac", "addresses": ["1556pUGiBxYnreefT2Vo35FosGSXajPddp"], "asm": "OP_DUP OP_HASH160 2ca706239e35b916ba13b24d4e5861c6865b0f8f OP_EQUALVERIFY OP_CHECKSIG", "type": "pubkeyhash"}, "value": 0.01406551, "n": 0}], "hex": "01000000026778e25e00caa19a1c50208f68b69f1fe03bbe974a9ea9a94ed4aa8c777c193f000000006b483045022100c2bda28563c69ac68622126ac26d7931bba02b30e279896a3cab192ebe2743e5022055bf2dca4caf6cdc905e8433fc8e79c384bad62450785d5f9360d459af9d6369012102778a9bf5f1ecf6e7564d0e48ddaff9a918d08cd20cfce51890757792ed8b6debffffffff3de786a4ac70d98a4eeb30638321bfe70405eb92fa28d9c030e4a0a18757f86b010000006a4730440220386f9db92bacf945c18304dfe113fec72312beb639fc9ae6e6a9f3e23e08713f02200ae6079a3f74f4b797d4237c79c808e2434b890be600b4bdd35a389c97729d90012102e0e6101ef8484433c4a565d89033b3a849684a88c158a99a479bdbfda327780dffffffff0157761500000000001976a9142ca706239e35b916ba13b24d4e5861c6865b0f8f88ac00000000", "vin": [{"sequence": 4294967295, "scriptSig": {"hex": "483045022100c2bda28563c69ac68622126ac26d7931bba02b30e279896a3cab192ebe2743e5022055bf2dca4caf6cdc905e8433fc8e79c384bad62450785d5f9360d459af9d6369012102778a9bf5f1ecf6e7564d0e48ddaff9a918d08cd20cfce51890757792ed8b6deb", "asm": "3045022100c2bda28563c69ac68622126ac26d7931bba02b30e279896a3cab192ebe2743e5022055bf2dca4caf6cdc905e8433fc8e79c384bad62450785d5f9360d459af9d6369[ALL] 02778a9bf5f1ecf6e7564d0e48ddaff9a918d08cd20cfce51890757792ed8b6deb"}, "vout": 0, "txid": "3f197c778caad44ea9a99e4a97be3be01f9fb6688f20501c9aa1ca005ee27867"}, {"sequence": 4294967295, "scriptSig": {"hex": "4730440220386f9db92bacf945c18304dfe113fec72312beb639fc9ae6e6a9f3e23e08713f02200ae6079a3f74f4b797d4237c79c808e2434b890be600b4bdd35a389c97729d90012102e0e6101ef8484433c4a565d89033b3a849684a88c158a99a479bdbfda327780d", "asm": "30440220386f9db92bacf945c18304dfe113fec72312beb639fc9ae6e6a9f3e23e08713f02200ae6079a3f74f4b797d4237c79c808e2434b890be600b4bdd35a389c97729d90[ALL] 02e0e6101ef8484433c4a565d89033b3a849684a88c158a99a479bdbfda327780d"}, "vout": 1, "txid": "6bf85787a1a0e430c0d928fa92eb0504e7bf21836330eb4e8ad970aca486e73d"}], "txid": "55964c0b50ed1bfc9c94f6f0a4c4cad92086671cbfdf0e8f1f205a2eab3cbec0", "blocktime": 1537875543, "version": 1, "confirmations": 11464, "time": 1537875543, "locktime": 0, "vsize": 339, "size": 339}