{"hash": "559763c0dc8490ced11906b67eebde268a9cc4dc127e01f02f463ddf92ccfcad", "blockhash": "0000000000000000000dcc0f55137456b1a82d3642486a52398922ac4d620174", "vout": [{"scriptPubKey": {"reqSigs": 1, "hex": "76a914f8c5b2e5b3b5e24340437c3d126aaa72412b4f1388ac", "addresses": ["1PgPQvroMLktey9QXwuNyk7AnCvj3doXmh"], "asm": "OP_DUP OP_HASH160 f8c5b2e5b3b5e24340437c3d126aaa72412b4f13 OP_EQUALVERIFY OP_CHECKSIG", "type": "pubkeyhash"}, "value": 0.00648375, "n": 0}, {"scriptPubKey": {"type": "nulldata", "hex": "6a4c500000776b000177f8f35dee0fd5696a71a70386aeaeacb577c031fc3a016b46dc7dc7d0961d4bb8387fa775beb3700d9f6d26550a5baa086c0613b9a1dfdf035a1d100759d4ba30d2c37bb011d97e02cf", "asm": "OP_RETURN 0000776b000177f8f35dee0fd5696a71a70386aeaeacb577c031fc3a016b46dc7dc7d0961d4bb8387fa775beb3700d9f6d26550a5baa086c0613b9a1dfdf035a1d100759d4ba30d2c37bb011d97e02cf"}, "value": 0.0, "n": 1}], "hex": "0100000001724aaf6d6acd2589eb75348e49da42ebb8d73627c3a24cad26b144e681b8dcf6000000006a473044022017da576d19d2eeeb384963f0d700882cb42fa079e6300ce25992af7dc77e8cdd022018e94dc7eb8b8854b9ebd96065ddd9620aae707de5d7633f2b154f08a888d927012102627dc8e288b226b5e106f9f0858c8bdcc0e9d46bf37ac89366b50bc94fc23e5dffffffff02b7e40900000000001976a914f8c5b2e5b3b5e24340437c3d126aaa72412b4f1388ac0000000000000000536a4c500000776b000177f8f35dee0fd5696a71a70386aeaeacb577c031fc3a016b46dc7dc7d0961d4bb8387fa775beb3700d9f6d26550a5baa086c0613b9a1dfdf035a1d100759d4ba30d2c37bb011d97e02cf00000000", "vin": [{"sequence": 4294967295, "scriptSig": {"hex": "473044022017da576d19d2eeeb384963f0d700882cb42fa079e6300ce25992af7dc77e8cdd022018e94dc7eb8b8854b9ebd96065ddd9620aae707de5d7633f2b154f08a888d927012102627dc8e288b226b5e106f9f0858c8bdcc0e9d46bf37ac89366b50bc94fc23e5d", "asm": "3044022017da576d19d2eeeb384963f0d700882cb42fa079e6300ce25992af7dc77e8cdd022018e94dc7eb8b8854b9ebd96065ddd9620aae707de5d7633f2b154f08a888d927[ALL] 02627dc8e288b226b5e106f9f0858c8bdcc0e9d46bf37ac89366b50bc94fc23e5d"}, "vout": 0, "txid": "f6dcb881e644b126ad4ca2c32736d7b8eb42da498e3475eb8925cd6a6daf4a72"}], "txid": "559763c0dc8490ced11906b67eebde268a9cc4dc127e01f02f463ddf92ccfcad", "blocktime": 1537870268, "version": 1, "confirmations": 11518, "time": 1537870268, "locktime": 0, "vsize": 283, "size": 283}