{"hash": "7015d27a1e1541e63ed28110d12e8bfed9f0dd262287e3b98beb114531244580", "blockhash": "0000000000000000001f76057863aec43deb6fa401d9628bb513d65a8098bfab", "vout": [{"scriptPubKey": {"reqSigs": 1, "hex": "a9144f04383f8680896ebbf37e660a9d30a470dd5e5487", "addresses": ["38tpMtYrPHhtw6sznq7nvdioe4e1gJE8es"], "asm": "OP_HASH160 4f04383f8680896ebbf37e660a9d30a470dd5e54 OP_EQUAL", "type": "scripthash"}, "value": 0.00444663, "n": 0}, {"scriptPubKey": {"reqSigs": 1, "hex": "a914679d97260f20e9c3b5cda655c54b11af6112c5f487", "addresses": ["3B8tJspH2UEkDQvytfkoAiy6LNcKkDRqMZ"], "asm": "OP_HASH160 679d97260f20e9c3b5cda655c54b11af6112c5f4 OP_EQUAL", "type": "scripthash"}, "value": 0.00103172, "n": 1}, {"scriptPubKey": {"reqSigs": 1, "hex": "a91485ead42e411b7af299034ecd6617365ecbc7b4fb87", "addresses": ["3Du77FUccFCnoBHBUaSBxtzRGhHdjx4Kkp"], "asm": "OP_HASH160 85ead42e411b7af299034ecd6617365ecbc7b4fb OP_EQUAL", "type": "scripthash"}, "value": 0.00084279, "n": 2}], "hex": "010000000001014c635070b923bcebec1755546c2db2c77a88ca523cdced37d9358fd41630f2d40100000023220020dd141d8c5995ccdfc1412cf5f53010aca5b3e5553dadaa536cf393f776547e53ffffffff03f7c806000000000017a9144f04383f8680896ebbf37e660a9d30a470dd5e5487049301000000000017a914679d97260f20e9c3b5cda655c54b11af6112c5f487374901000000000017a91485ead42e411b7af299034ecd6617365ecbc7b4fb870400483045022100c80e504be71fdaa7dbe5b25382270866f0362fdb0159022f7979a19b9e8ab1b90220440b0f140438a442879e28ccf6b88800acfd7066b0773c0c92023b0fc607698b01483045022100ee09669ef2cfeb244a88a4af5e5448f67819e6ad13707b4280e6e6fb63a6b8be02207111e041790b35df10891cfc0ed99299b03ee2bdc03c1616104a90c7ce5b15f20169522103645153a87e79aa391ba789fc83ba44004f76227a84b73b2c7fbe1f2139e18ae42102eb6e9abb9f975a4548d7c1aaf5f350b9cfabdd51b85d514258ce463b5dc07de1210342d6305f6f44facfcf60b8b90ead22cf0b127b28c35647bbf282c00697f7287d53ae00000000", "vin": [{"txinwitness": ["", "3045022100c80e504be71fdaa7dbe5b25382270866f0362fdb0159022f7979a19b9e8ab1b90220440b0f140438a442879e28ccf6b88800acfd7066b0773c0c92023b0fc607698b01", "3045022100ee09669ef2cfeb244a88a4af5e5448f67819e6ad13707b4280e6e6fb63a6b8be02207111e041790b35df10891cfc0ed99299b03ee2bdc03c1616104a90c7ce5b15f201", "522103645153a87e79aa391ba789fc83ba44004f76227a84b73b2c7fbe1f2139e18ae42102eb6e9abb9f975a4548d7c1aaf5f350b9cfabdd51b85d514258ce463b5dc07de1210342d6305f6f44facfcf60b8b90ead22cf0b127b28c35647bbf282c00697f7287d53ae"], "sequence": 4294967295, "scriptSig": {"hex": "220020dd141d8c5995ccdfc1412cf5f53010aca5b3e5553dadaa536cf393f776547e53", "asm": "0020dd141d8c5995ccdfc1412cf5f53010aca5b3e5553dadaa536cf393f776547e53"}, "vout": 1, "txid": "d4f23016d48f35d937eddc3c52ca887ac7b22d6c545517ecebbc23b97050634c"}], "txid": "559c9a9249c084319da13211962d608ee4ef1f5f0faa2489928d9fd4b05a86fe", "blocktime": 1537873891, "version": 1, "confirmations": 11478, "time": 1537873891, "locktime": 0, "vsize": 246, "size": 438}