{"hash": "55a122a856cd6308b1cc8443a72f8d1b70979f0dcbaa2bffb8c7bcf59afd1d08", "blockhash": "0000000000000000001e0dab787dd257d1dbfcb92a98c2207d5e1078be1f4165", "vout": [{"scriptPubKey": {"reqSigs": 1, "hex": "76a91404804e0773fa686554b392f4e01180294d07601f88ac", "addresses": ["1QoQYPb5JiKyeK2jj47Rv9YTRGn6FVFCX"], "asm": "OP_DUP OP_HASH160 04804e0773fa686554b392f4e01180294d07601f OP_EQUALVERIFY OP_CHECKSIG", "type": "pubkeyhash"}, "value": 0.00991, "n": 0}], "hex": "01000000011529639b137cfb5427f173713346286b0830d765bb32d10c7f44c1b945d52069000000006b483045022100c053b6b39d8e71df49ccc9f6a07f284f0ea881721673704ee2b1e9c3c1faddb302207f25b95789a54616d1377d980c2f38c80d318e4fd7efbca8fce9c8c0d96e3504012103bd088ea3a3d8cf90f2063746118d5323342714500a0d51ef4ff6ed490931cc2fffffffff01181f0f00000000001976a91404804e0773fa686554b392f4e01180294d07601f88ac00000000", "vin": [{"sequence": 4294967295, "scriptSig": {"hex": "483045022100c053b6b39d8e71df49ccc9f6a07f284f0ea881721673704ee2b1e9c3c1faddb302207f25b95789a54616d1377d980c2f38c80d318e4fd7efbca8fce9c8c0d96e3504012103bd088ea3a3d8cf90f2063746118d5323342714500a0d51ef4ff6ed490931cc2f", "asm": "3045022100c053b6b39d8e71df49ccc9f6a07f284f0ea881721673704ee2b1e9c3c1faddb302207f25b95789a54616d1377d980c2f38c80d318e4fd7efbca8fce9c8c0d96e3504[ALL] 03bd088ea3a3d8cf90f2063746118d5323342714500a0d51ef4ff6ed490931cc2f"}, "vout": 0, "txid": "6920d545b9c1447f0cd132bb65d730086b2846337173f12754fb7c139b632915"}], "txid": "55a122a856cd6308b1cc8443a72f8d1b70979f0dcbaa2bffb8c7bcf59afd1d08", "blocktime": 1537872475, "version": 1, "confirmations": 11486, "time": 1537872475, "locktime": 0, "vsize": 192, "size": 192}