{"hash": "407fac3a0063838b1452ca6275e96d9d25afeb2b0557f6732c4504dd93b8d2df", "blockhash": "00000000000000000017f5eb5941039fbcee6240d03bc1f2f8e35350df66a1d8", "vout": [{"scriptPubKey": {"reqSigs": 1, "hex": "76a9149a1b8f9b1fa2d2297863adb1cb11c71df455684888ac", "addresses": ["1F3r5We2zwNiSzG6GQUTTWnnPMCz2HJbJu"], "asm": "OP_DUP OP_HASH160 9a1b8f9b1fa2d2297863adb1cb11c71df4556848 OP_EQUALVERIFY OP_CHECKSIG", "type": "pubkeyhash"}, "value": 2.673e-05, "n": 0}, {"scriptPubKey": {"reqSigs": 1, "hex": "a914e8db75c900cf08f06518e96d167331f2a4abfb3387", "addresses": ["3NvFbQMAkkqEFj4i1sYPPLkSWzxTFUchjA"], "asm": "OP_HASH160 e8db75c900cf08f06518e96d167331f2a4abfb33 OP_EQUAL", "type": "scripthash"}, "value": 0.00047011, "n": 1}], "hex": "010000000001025c192d8be36dc6e347bd67a3c301d08709d674b238c768ee5190a142fb5fa58b0100000023220020fdd23d707f55451c4e006c77b5e8df35a185a8e99f9bda70bf0ded7913bb1eb3ffffffff852b1bb9e0a5d548c3e3399f84826a3ffe8cbf106ac6703d3f81f0c0bc8201e20000000023220020941cfaff8837763dc1f69ff82b6d6553fdea17a41cfc29a04403293eedd8ccc7ffffffff02710a0000000000001976a9149a1b8f9b1fa2d2297863adb1cb11c71df455684888aca3b700000000000017a914e8db75c900cf08f06518e96d167331f2a4abfb33870400483045022100fb65929e80f57548c10565ab4c14576e3f656e00f2edf7916aa3d1a5d512f446022035e4e7f4dfa593deb242d4b0b6590d2b1a6bed94a9eef1496905475204dd2ad201483045022100b48a20eac7580cec1509b7fa57627ddf6bff2b6f594b20d06c19db1eeccbc7ed0220549ddec63e16c60b0812e1a2487edc41661e848810182b0d6f0cced5e6a72316014752210286c104577b978160849865bc23f9a6df9b53d41c8ffb486754b97b2a474a181c2103148c80a5bdfddb05ff5bcffc397c8ca748d8b435ec6a175bc9d7bfc7fc6f853752ae040047304402204218f3b7da695c619f0e723aaa115915ea39bc95dfa11ea65c7dff428b1a6e15022011bf4eedf3e50f50659eeefa1ca9aa15b260c561339cb9b6cf281399f7fd125d01483045022100f512e495c23829c6e192ee6e78c9e90b5106082ad89a33dfe4bb967e9483a1980220596e2e138f5f47b56f57db09ddf5713f1a75649f0fc1c2c5ef84c7012aac6ed50147522102531db3a5883f29bab4241dd0cd726936667bcda445d89bdd22244e828b6993342103148c80a5bdfddb05ff5bcffc397c8ca748d8b435ec6a175bc9d7bfc7fc6f853752ae00000000", "vin": [{"txinwitness": ["", "3045022100fb65929e80f57548c10565ab4c14576e3f656e00f2edf7916aa3d1a5d512f446022035e4e7f4dfa593deb242d4b0b6590d2b1a6bed94a9eef1496905475204dd2ad201", "3045022100b48a20eac7580cec1509b7fa57627ddf6bff2b6f594b20d06c19db1eeccbc7ed0220549ddec63e16c60b0812e1a2487edc41661e848810182b0d6f0cced5e6a7231601", "52210286c104577b978160849865bc23f9a6df9b53d41c8ffb486754b97b2a474a181c2103148c80a5bdfddb05ff5bcffc397c8ca748d8b435ec6a175bc9d7bfc7fc6f853752ae"], "sequence": 4294967295, "scriptSig": {"hex": "220020fdd23d707f55451c4e006c77b5e8df35a185a8e99f9bda70bf0ded7913bb1eb3", "asm": "0020fdd23d707f55451c4e006c77b5e8df35a185a8e99f9bda70bf0ded7913bb1eb3"}, "vout": 1, "txid": "8ba55ffb42a19051ee68c738b274d60987d001c3a367bd47e3c66de38b2d195c"}, {"txinwitness": ["", "304402204218f3b7da695c619f0e723aaa115915ea39bc95dfa11ea65c7dff428b1a6e15022011bf4eedf3e50f50659eeefa1ca9aa15b260c561339cb9b6cf281399f7fd125d01", "3045022100f512e495c23829c6e192ee6e78c9e90b5106082ad89a33dfe4bb967e9483a1980220596e2e138f5f47b56f57db09ddf5713f1a75649f0fc1c2c5ef84c7012aac6ed501", "522102531db3a5883f29bab4241dd0cd726936667bcda445d89bdd22244e828b6993342103148c80a5bdfddb05ff5bcffc397c8ca748d8b435ec6a175bc9d7bfc7fc6f853752ae"], "sequence": 4294967295, "scriptSig": {"hex": "220020941cfaff8837763dc1f69ff82b6d6553fdea17a41cfc29a04403293eedd8ccc7", "asm": "0020941cfaff8837763dc1f69ff82b6d6553fdea17a41cfc29a04403293eedd8ccc7"}, "vout": 0, "txid": "e20182bcc0f0813f3d70c66a10bf8cfe3f6a82849f39e3c348d5a5e0b91b2b85"}], "txid": "55acf7aabcba52caacae4d0b52e6c7e1823ad68eb6d55bc3ac5b09c633bf92f9", "blocktime": 1537874412, "version": 1, "confirmations": 11468, "time": 1537874412, "locktime": 0, "vsize": 339, "size": 669}