{"hash": "55b1684d427c9cc990ba7437dac054a56e011c6604632d075f6baaaf9a83ec54", "blockhash": "0000000000000000001cda96e906b7601b7a6fb1a3b62bca570a9e5d8f4b3de1", "vout": [{"scriptPubKey": {"reqSigs": 1, "hex": "76a9145e10b6b321d393834d8e261bccc9cd347071dcf088ac", "addresses": ["19aNYKTevXJmXmGctocdiCy1HueXHtCzBq"], "asm": "OP_DUP OP_HASH160 5e10b6b321d393834d8e261bccc9cd347071dcf0 OP_EQUALVERIFY OP_CHECKSIG", "type": "pubkeyhash"}, "value": 0.00998399, "n": 0}, {"scriptPubKey": {"reqSigs": 1, "hex": "76a9146e06f5d0e4dd86e37474ab9737edd86119b2d27b88ac", "addresses": ["1B2mfhwP8yELvCQc7cGdxPwzafWyVEqea5"], "asm": "OP_DUP OP_HASH160 6e06f5d0e4dd86e37474ab9737edd86119b2d27b OP_EQUALVERIFY OP_CHECKSIG", "type": "pubkeyhash"}, "value": 0.01449034, "n": 1}], "hex": "0200000003c693dc7098dec60df4b5ab02b46471ed54abf7fb5838fbdfad3efcf717dec1bb010000006b483045022100a0571efa4a9a6ba3f3e13a7059655203c3a0907bf393a081935ebd1dfe638b4d02207089f41978fbc97eb51609cfce11af10fdca4d55e09079f5daac39a33207332c0121035bd23a57d4ed04ed111a3b60fbdbdcc11b3708d58161df7ca27b9cca63a57f30feffffff713ff37fd5818c8e131a1a19bc0875fe25044cfa648759bb1ff35ede795ff174000000006a47304402207d973a62aa4faecba105e931183fc69048ae296fe077107af03e16458e066f6802205f42e303fe4ac56e2d4cf4691fffc5da7222e41bd086b8bea81850069d60a273012102959867903d4cc9be8b70617f1961cc8a3babfcc2e49bcee198ccfcdffdf2b926feffffff17e529a0520357cf2b8ca1b03c32ca5f86d64e541675630406d61b16dbd7db94000000006a4730440220745ad4e0d706bcf6606c203f182d82580567b1a5604720b59a78dd45d7033efe022048e3a6c7819770332fcf339d8d7537f4e8b459695a707580c88864767c5f7e4a0121024569ef95871b1cd69d9c0ff000f506828a6eb6e58dcd39323225c904d9d36219feffffff02ff3b0f00000000001976a9145e10b6b321d393834d8e261bccc9cd347071dcf088ac4a1c1600000000001976a9146e06f5d0e4dd86e37474ab9737edd86119b2d27b88ac13490800", "vin": [{"sequence": 4294967294, "scriptSig": {"hex": "483045022100a0571efa4a9a6ba3f3e13a7059655203c3a0907bf393a081935ebd1dfe638b4d02207089f41978fbc97eb51609cfce11af10fdca4d55e09079f5daac39a33207332c0121035bd23a57d4ed04ed111a3b60fbdbdcc11b3708d58161df7ca27b9cca63a57f30", "asm": "3045022100a0571efa4a9a6ba3f3e13a7059655203c3a0907bf393a081935ebd1dfe638b4d02207089f41978fbc97eb51609cfce11af10fdca4d55e09079f5daac39a33207332c[ALL] 035bd23a57d4ed04ed111a3b60fbdbdcc11b3708d58161df7ca27b9cca63a57f30"}, "vout": 1, "txid": "bbc1de17f7fc3eaddffb3858fbf7ab54ed7164b402abb5f40dc6de9870dc93c6"}, {"sequence": 4294967294, "scriptSig": {"hex": "47304402207d973a62aa4faecba105e931183fc69048ae296fe077107af03e16458e066f6802205f42e303fe4ac56e2d4cf4691fffc5da7222e41bd086b8bea81850069d60a273012102959867903d4cc9be8b70617f1961cc8a3babfcc2e49bcee198ccfcdffdf2b926", "asm": "304402207d973a62aa4faecba105e931183fc69048ae296fe077107af03e16458e066f6802205f42e303fe4ac56e2d4cf4691fffc5da7222e41bd086b8bea81850069d60a273[ALL] 02959867903d4cc9be8b70617f1961cc8a3babfcc2e49bcee198ccfcdffdf2b926"}, "vout": 0, "txid": "74f15f79de5ef31fbb598764fa4c0425fe7508bc191a1a138e8c81d57ff33f71"}, {"sequence": 4294967294, "scriptSig": {"hex": "4730440220745ad4e0d706bcf6606c203f182d82580567b1a5604720b59a78dd45d7033efe022048e3a6c7819770332fcf339d8d7537f4e8b459695a707580c88864767c5f7e4a0121024569ef95871b1cd69d9c0ff000f506828a6eb6e58dcd39323225c904d9d36219", "asm": "30440220745ad4e0d706bcf6606c203f182d82580567b1a5604720b59a78dd45d7033efe022048e3a6c7819770332fcf339d8d7537f4e8b459695a707580c88864767c5f7e4a[ALL] 024569ef95871b1cd69d9c0ff000f506828a6eb6e58dcd39323225c904d9d36219"}, "vout": 0, "txid": "94dbd7db161bd60604637516544ed6865fca323cb0a18c2bcf570352a029e517"}], "txid": "55b1684d427c9cc990ba7437dac054a56e011c6604632d075f6baaaf9a83ec54", "blocktime": 1537873282, "version": 2, "confirmations": 11484, "time": 1537873282, "locktime": 542995, "vsize": 520, "size": 520}