{"hash": "55b30a5bf30d5715407fe64bec0532bc1f313a0a36cb0475b71bd253548eb39b", "blockhash": "000000000000000000022b45ed06c6f4ccd3cf7fb5ba4856ebd2e58215665228", "vout": [{"scriptPubKey": {"reqSigs": 1, "hex": "76a914ec362461c7fcdc86953a896868d7918adb9acaee88ac", "addresses": ["1NXyL8fndjUF3UC52G2AMVXUPmMcDNJTgr"], "asm": "OP_DUP OP_HASH160 ec362461c7fcdc86953a896868d7918adb9acaee OP_EQUALVERIFY OP_CHECKSIG", "type": "pubkeyhash"}, "value": 0.0154351, "n": 0}, {"scriptPubKey": {"reqSigs": 1, "hex": "76a9144c5b267eb482adb30b810399ca458cb5904dd4cf88ac", "addresses": ["17xjYpSSqAHYpw686LvX9stc482ua68QfT"], "asm": "OP_DUP OP_HASH160 4c5b267eb482adb30b810399ca458cb5904dd4cf OP_EQUALVERIFY OP_CHECKSIG", "type": "pubkeyhash"}, "value": 0.20969622, "n": 1}], "hex": "0100000001b0c890b8ee505bade62bb4fbc86c97ffc71e5449d0556ce3f75f47c5aec3cdc6010000006a473044022018855884e638bc9c85f75660117f8ae89931f76c845df5742a43b4d2924ef95802203d11442f8d5b10f030d49d1faf75343b34ba4b7ab6c6ba00b27bf3783d6923060121030f4eddb926bf544607cc65558e7f34706194dd26872282a7d059a06866cddbe3ffffffff02568d1700000000001976a914ec362461c7fcdc86953a896868d7918adb9acaee88ac96f83f01000000001976a9144c5b267eb482adb30b810399ca458cb5904dd4cf88ac00000000", "vin": [{"sequence": 4294967295, "scriptSig": {"hex": "473044022018855884e638bc9c85f75660117f8ae89931f76c845df5742a43b4d2924ef95802203d11442f8d5b10f030d49d1faf75343b34ba4b7ab6c6ba00b27bf3783d6923060121030f4eddb926bf544607cc65558e7f34706194dd26872282a7d059a06866cddbe3", "asm": "3044022018855884e638bc9c85f75660117f8ae89931f76c845df5742a43b4d2924ef95802203d11442f8d5b10f030d49d1faf75343b34ba4b7ab6c6ba00b27bf3783d692306[ALL] 030f4eddb926bf544607cc65558e7f34706194dd26872282a7d059a06866cddbe3"}, "vout": 1, "txid": "c6cdc3aec5475ff7e36c55d049541ec7ff976cc8fbb42be6ad5b50eeb890c8b0"}], "txid": "55b30a5bf30d5715407fe64bec0532bc1f313a0a36cb0475b71bd253548eb39b", "blocktime": 1537869901, "version": 1, "confirmations": 11522, "time": 1537869901, "locktime": 0, "vsize": 225, "size": 225}