{"hash": "55b8e11af96b07add7cb6f7e752bd042b7f5621461597e5c8eefbd9fb3c22520", "blockhash": "0000000000000000001f0ddff1eddb255c1121bcd4da4f1bc9a0da00cae72433", "vout": [{"scriptPubKey": {"reqSigs": 1, "hex": "76a914cbdb8bd3ce636869343eae49feead27eb251b1ef88ac", "addresses": ["1KauBHBdnov8XXmfS9ejj5QRwixfGmWBGS"], "asm": "OP_DUP OP_HASH160 cbdb8bd3ce636869343eae49feead27eb251b1ef OP_EQUALVERIFY OP_CHECKSIG", "type": "pubkeyhash"}, "value": 5.46e-06, "n": 0}, {"scriptPubKey": {"reqSigs": 1, "hex": "a9143f4eecba122ad73039d481c8d37f99cb4f887cd887", "addresses": ["37Tm3Qz8Zw2VJrheUUhArDAoq58S6YrS3g"], "asm": "OP_HASH160 3f4eecba122ad73039d481c8d37f99cb4f887cd8 OP_EQUAL", "type": "scripthash"}, "value": 0.99966902, "n": 1}, {"scriptPubKey": {"type": "nulldata", "hex": "6a146f6d6e69000000000000001f000000ab2169f600", "asm": "OP_RETURN 6f6d6e69000000000000001f000000ab2169f600"}, "value": 0.0, "n": 2}], "hex": "0100000001360aff357c168f1a3e12fd5841f02b21d6dcf8b0f1fd45d28b387328c5ccfa5d01000000fc004730440220063890747b342d01e13cff43a806b222cc5c15247c6146f53f57a08b24f4f9c6022061cab9a15bd5504567cecfa227906968c92e45f812db10ec4788f7d0d75f1618014730440220429b36cd7ce0390c8c838b75d0741c811d86d37d8642c017d371d48967b725c8022066d090e164e026dc69f36a1733c7f82124c16102f215a16a2827d0f2250f171a014c6952210246ccf4de0c54cc7f3354cdd993c2c50cf965fd82238b89659fbd73a1b4bf05a121024fc59f72272a897fe43803374969f396058152fe4765a8d15216f94624257b1b21022593bc69ecbf3bbcc3c58082267cb49dadaf4ca8dbf1b2297338a9d628c4297653aeffffffff0322020000000000001976a914cbdb8bd3ce636869343eae49feead27eb251b1ef88acb65ff5050000000017a9143f4eecba122ad73039d481c8d37f99cb4f887cd8870000000000000000166a146f6d6e69000000000000001f000000ab2169f60000000000", "vin": [{"sequence": 4294967295, "scriptSig": {"hex": "004730440220063890747b342d01e13cff43a806b222cc5c15247c6146f53f57a08b24f4f9c6022061cab9a15bd5504567cecfa227906968c92e45f812db10ec4788f7d0d75f1618014730440220429b36cd7ce0390c8c838b75d0741c811d86d37d8642c017d371d48967b725c8022066d090e164e026dc69f36a1733c7f82124c16102f215a16a2827d0f2250f171a014c6952210246ccf4de0c54cc7f3354cdd993c2c50cf965fd82238b89659fbd73a1b4bf05a121024fc59f72272a897fe43803374969f396058152fe4765a8d15216f94624257b1b21022593bc69ecbf3bbcc3c58082267cb49dadaf4ca8dbf1b2297338a9d628c4297653ae", "asm": "0 30440220063890747b342d01e13cff43a806b222cc5c15247c6146f53f57a08b24f4f9c6022061cab9a15bd5504567cecfa227906968c92e45f812db10ec4788f7d0d75f1618[ALL] 30440220429b36cd7ce0390c8c838b75d0741c811d86d37d8642c017d371d48967b725c8022066d090e164e026dc69f36a1733c7f82124c16102f215a16a2827d0f2250f171a[ALL] 52210246ccf4de0c54cc7f3354cdd993c2c50cf965fd82238b89659fbd73a1b4bf05a121024fc59f72272a897fe43803374969f396058152fe4765a8d15216f94624257b1b21022593bc69ecbf3bbcc3c58082267cb49dadaf4ca8dbf1b2297338a9d628c4297653ae"}, "vout": 1, "txid": "5dfaccc52873388bd245fdf1b0f8dcd6212bf04158fd123e1a8f167c35ff0a36"}], "txid": "55b8e11af96b07add7cb6f7e752bd042b7f5621461597e5c8eefbd9fb3c22520", "blocktime": 1537872018, "version": 1, "confirmations": 11489, "time": 1537872018, "locktime": 0, "vsize": 400, "size": 400}