{"hash": "e7a4911af65830d03f8668842fde2a116d7838c82e9efc3fe63c70c2e9b8c0a9", "blockhash": "0000000000000000001f0ddff1eddb255c1121bcd4da4f1bc9a0da00cae72433", "vout": [{"scriptPubKey": {"reqSigs": 1, "hex": "76a9147363bf9f05ff49bf02ef0c69beffe8d104d59e7d88ac", "addresses": ["1BX8Ci8i6CsJRWydgGqsePkQxMre6TgfNB"], "asm": "OP_DUP OP_HASH160 7363bf9f05ff49bf02ef0c69beffe8d104d59e7d OP_EQUALVERIFY OP_CHECKSIG", "type": "pubkeyhash"}, "value": 0.49, "n": 0}, {"scriptPubKey": {"reqSigs": 1, "hex": "a91483bf2d89d6ea164bce3fb01a36f4db32a4fca48087", "addresses": ["3DhdTwp1hjTuArnLXTgwvUd4d58tb6QHNL"], "asm": "OP_HASH160 83bf2d89d6ea164bce3fb01a36f4db32a4fca480 OP_EQUAL", "type": "scripthash"}, "value": 0.00987897, "n": 1}], "hex": "0200000000010901978eb8989bfe533582c12c8d743365a3bb7675fa00dbf892304ec4b02f7d530200000017160014bef2e4cd1acfac5a8ab9a54b4b8192feeaf8998afeffffff02b387acda6bc2fb41a324fcbe07d2901fcfc5799051ee9e8e0855c5a8fd39e10b000000171600145ccf97c9fee03ea1ee2f4c1646d7fcaa19f23fc6feffffff053d975d7ef3d47f9c58906876ddf2902195b88fc482311d8cea88f70f2bc3880200000017160014bef2e4cd1acfac5a8ab9a54b4b8192feeaf8998afeffffff19e3df1eaf5bf70e62cf0308062789cb841f2bdcb46f3cc989c190185f0b02070400000017160014715e2ef290a379b7293744fa94859d261eaab142feffffff30971d0082d13a2d13934b4367bbe702c1c9c668d46a030b19ae1c917540eb990700000017160014bef2e4cd1acfac5a8ab9a54b4b8192feeaf8998afeffffff30971d0082d13a2d13934b4367bbe702c1c9c668d46a030b19ae1c917540eb990a0000001716001431b1db097d4f002fb35c53a68a8b62b75d210ff2feffffff775922ce5cf2b5cd6901a1a34f82d10a53e96168bafb41e0289fb1df1edcf9ec0c000000171600145f5aa6b255466cd0191214cc33fde274f6856a3bfeffffffa5c63c5a83273c758e1d15992acb55bb6c4f2e2cbe81565914cf07de871fcb260b00000017160014bef2e4cd1acfac5a8ab9a54b4b8192feeaf8998afeffffffe8d57eefd330085df58ce29afbadbaab56ca1ce13e054af9b0b3c1c814d4eb2f0100000017160014a6247ef6d9342b1fdffe823dbccdb236bc5e8381feffffff0240aeeb02000000001976a9147363bf9f05ff49bf02ef0c69beffe8d104d59e7d88acf9120f000000000017a91483bf2d89d6ea164bce3fb01a36f4db32a4fca480870247304402200b2be7b525ea852eaced453a89b5c2dba0995d7c763f99fca202c7ba7fe137f202200a55d4aa3e99db60acf4fd36cc3202e386d50bcdcc53268de2d7d93680539227012102cb40d7285be606241dc4d9b24c84fbc3dbcb6e1e1f7aec4b821ba600d54d80cd024830450221009f5f1747ee51b09e40c3662501787131da48e3479cba5b7a99e42201cc2163fb02206848b2530442cfc36d2eaa383e2ff5f1a7cbb55461b74316d3bb77e143bddadb012102336ac8417fb828291edb4b0d854737456954618d0059e0d5e251d830e5d252ee024830450221009bb877bbcf0cdbf41726399036293881571b11edc4c8ac6caf70990cfd8de41802200dbbc70e8c8837a7fc5484476cc415280bb8dfc83cbffac89a2aef4d558f145d012102cb40d7285be606241dc4d9b24c84fbc3dbcb6e1e1f7aec4b821ba600d54d80cd02473044022008607ad0310c4ecad120e78469e252b5e10975cf7dda68d2ccb2f5a8908493d8022002b8e47d35c8b6f58eb7ad20de3e201bade75a1d4baf786fd99a44ca616d10b5012102176c1bdda7774a03c34cccae4c22c8d45d092e574cae3b166384f014332ac97f02473044022055fa565c5332c57a56ba236d1c473c0c4b710eb2733f545e4d3ebf14118a66f80220286f7fe0a33a8ce58a60ce9eeb817df37e79e2305b62bb8023ce803eb170bae1012102cb40d7285be606241dc4d9b24c84fbc3dbcb6e1e1f7aec4b821ba600d54d80cd024730440220616a2fb6294530bed2505ad19a8b73f067f51b3b176eb615b084ab39f31499c80220303ee05a878d3c6eeba8ebe65dfbbfe400496f42f964a1eaa700cfcd5debc0360121037f7be0e0561b2dce3a5194197d1ade046c38c762c1511046318b350e4bf7dd0b0247304402200160984cb35cdcd99d10420d8281140f484be87f041b9683022f629d1141e728022016e3cbff90cefc3d0be5c32aa6f10ce3c7bb97054d7e0c6e899df10d254591be012102e2881cd075243336608768ebca482c5370c1c9751aca7577d1f15d1a75c8f529024830450221008e50424d62c9334b01edcd5249d97d7318e6f82489983a96aa9d3bfe2661c35c022005075d46b97227444cff4f440ec06589d7634271d360424c319bd079cf61281f012102cb40d7285be606241dc4d9b24c84fbc3dbcb6e1e1f7aec4b821ba600d54d80cd0247304402203b632429c5c5bd6cb5d49ceaa409b664093d1d9f1260e022ca5bf6d45bd84090022018aa7a6b99e111907492c5cfe5dc6f7097bee2d9ffd8405a967dca199e79944d01210339c989946b235bdd62da23567212734ae9a25cba10ca39f7bd340ff96333543d11490800", "vin": [{"txinwitness": ["304402200b2be7b525ea852eaced453a89b5c2dba0995d7c763f99fca202c7ba7fe137f202200a55d4aa3e99db60acf4fd36cc3202e386d50bcdcc53268de2d7d9368053922701", "02cb40d7285be606241dc4d9b24c84fbc3dbcb6e1e1f7aec4b821ba600d54d80cd"], "sequence": 4294967294, "scriptSig": {"hex": "160014bef2e4cd1acfac5a8ab9a54b4b8192feeaf8998a", "asm": "0014bef2e4cd1acfac5a8ab9a54b4b8192feeaf8998a"}, "vout": 2, "txid": "537d2fb0c44e3092f8db00fa7576bba36533748d2cc1823553fe9b98b88e9701"}, {"txinwitness": ["30450221009f5f1747ee51b09e40c3662501787131da48e3479cba5b7a99e42201cc2163fb02206848b2530442cfc36d2eaa383e2ff5f1a7cbb55461b74316d3bb77e143bddadb01", "02336ac8417fb828291edb4b0d854737456954618d0059e0d5e251d830e5d252ee"], "sequence": 4294967294, "scriptSig": {"hex": "1600145ccf97c9fee03ea1ee2f4c1646d7fcaa19f23fc6", "asm": "00145ccf97c9fee03ea1ee2f4c1646d7fcaa19f23fc6"}, "vout": 11, "txid": "e139fda8c555088e9eee519079c5cf1f90d207befc24a341fbc26bdaac87b302"}, {"txinwitness": ["30450221009bb877bbcf0cdbf41726399036293881571b11edc4c8ac6caf70990cfd8de41802200dbbc70e8c8837a7fc5484476cc415280bb8dfc83cbffac89a2aef4d558f145d01", "02cb40d7285be606241dc4d9b24c84fbc3dbcb6e1e1f7aec4b821ba600d54d80cd"], "sequence": 4294967294, "scriptSig": {"hex": "160014bef2e4cd1acfac5a8ab9a54b4b8192feeaf8998a", "asm": "0014bef2e4cd1acfac5a8ab9a54b4b8192feeaf8998a"}, "vout": 2, "txid": "88c32b0ff788ea8c1d3182c48fb8952190f2dd766890589c7fd4f37e5d973d05"}, {"txinwitness": ["3044022008607ad0310c4ecad120e78469e252b5e10975cf7dda68d2ccb2f5a8908493d8022002b8e47d35c8b6f58eb7ad20de3e201bade75a1d4baf786fd99a44ca616d10b501", "02176c1bdda7774a03c34cccae4c22c8d45d092e574cae3b166384f014332ac97f"], "sequence": 4294967294, "scriptSig": {"hex": "160014715e2ef290a379b7293744fa94859d261eaab142", "asm": "0014715e2ef290a379b7293744fa94859d261eaab142"}, "vout": 4, "txid": "07020b5f1890c189c93c6fb4dc2b1f84cb8927060803cf620ef75baf1edfe319"}, {"txinwitness": ["3044022055fa565c5332c57a56ba236d1c473c0c4b710eb2733f545e4d3ebf14118a66f80220286f7fe0a33a8ce58a60ce9eeb817df37e79e2305b62bb8023ce803eb170bae101", "02cb40d7285be606241dc4d9b24c84fbc3dbcb6e1e1f7aec4b821ba600d54d80cd"], "sequence": 4294967294, "scriptSig": {"hex": "160014bef2e4cd1acfac5a8ab9a54b4b8192feeaf8998a", "asm": "0014bef2e4cd1acfac5a8ab9a54b4b8192feeaf8998a"}, "vout": 7, "txid": "99eb4075911cae190b036ad468c6c9c102e7bb67434b93132d3ad182001d9730"}, {"txinwitness": ["30440220616a2fb6294530bed2505ad19a8b73f067f51b3b176eb615b084ab39f31499c80220303ee05a878d3c6eeba8ebe65dfbbfe400496f42f964a1eaa700cfcd5debc03601", "037f7be0e0561b2dce3a5194197d1ade046c38c762c1511046318b350e4bf7dd0b"], "sequence": 4294967294, "scriptSig": {"hex": "16001431b1db097d4f002fb35c53a68a8b62b75d210ff2", "asm": "001431b1db097d4f002fb35c53a68a8b62b75d210ff2"}, "vout": 10, "txid": "99eb4075911cae190b036ad468c6c9c102e7bb67434b93132d3ad182001d9730"}, {"txinwitness": ["304402200160984cb35cdcd99d10420d8281140f484be87f041b9683022f629d1141e728022016e3cbff90cefc3d0be5c32aa6f10ce3c7bb97054d7e0c6e899df10d254591be01", "02e2881cd075243336608768ebca482c5370c1c9751aca7577d1f15d1a75c8f529"], "sequence": 4294967294, "scriptSig": {"hex": "1600145f5aa6b255466cd0191214cc33fde274f6856a3b", "asm": "00145f5aa6b255466cd0191214cc33fde274f6856a3b"}, "vout": 12, "txid": "ecf9dc1edfb19f28e041fbba6861e9530ad1824fa3a10169cdb5f25cce225977"}, {"txinwitness": ["30450221008e50424d62c9334b01edcd5249d97d7318e6f82489983a96aa9d3bfe2661c35c022005075d46b97227444cff4f440ec06589d7634271d360424c319bd079cf61281f01", "02cb40d7285be606241dc4d9b24c84fbc3dbcb6e1e1f7aec4b821ba600d54d80cd"], "sequence": 4294967294, "scriptSig": {"hex": "160014bef2e4cd1acfac5a8ab9a54b4b8192feeaf8998a", "asm": "0014bef2e4cd1acfac5a8ab9a54b4b8192feeaf8998a"}, "vout": 11, "txid": "26cb1f87de07cf14595681be2c2e4f6cbb55cb2a99151d8e753c27835a3cc6a5"}, {"txinwitness": ["304402203b632429c5c5bd6cb5d49ceaa409b664093d1d9f1260e022ca5bf6d45bd84090022018aa7a6b99e111907492c5cfe5dc6f7097bee2d9ffd8405a967dca199e79944d01", "0339c989946b235bdd62da23567212734ae9a25cba10ca39f7bd340ff96333543d"], "sequence": 4294967294, "scriptSig": {"hex": "160014a6247ef6d9342b1fdffe823dbccdb236bc5e8381", "asm": "0014a6247ef6d9342b1fdffe823dbccdb236bc5e8381"}, "vout": 1, "txid": "2febd414c8c1b3b0f94a053ee11cca56abbaadfb9ae28cf55d0830d3ef7ed5e8"}], "txid": "55b843af960b6fa52421834d49120bb5f2e165779a112e746688c99f0b3d1e4d", "blocktime": 1537872018, "version": 2, "confirmations": 11489, "time": 1537872018, "locktime": 542993, "vsize": 894, "size": 1620}