{"hash": "33250658502fe7fb32382f94a8615c6ab9359374538c9b2f6a578774a4d0604d", "blockhash": "000000000000000000205f8b0775d31398ef75b89a5e8ec8d2c57b4dc0ac4c20", "vout": [{"scriptPubKey": {"reqSigs": 1, "hex": "76a9141a0136d716c3d108b7288425b0f6bda90dfe97e388ac", "addresses": ["13NW2MUdT3Jx3ZXBCrWGPNEkghWGvzem5U"], "asm": "OP_DUP OP_HASH160 1a0136d716c3d108b7288425b0f6bda90dfe97e3 OP_EQUALVERIFY OP_CHECKSIG", "type": "pubkeyhash"}, "value": 0.0172952, "n": 0}, {"scriptPubKey": {"reqSigs": 1, "hex": "a91439370e4a3095bc10ca15c92be15795e98900950a87", "addresses": ["36uYPpiUwxpBudpTNN7Aewwn74xy4prSeQ"], "asm": "OP_HASH160 39370e4a3095bc10ca15c92be15795e98900950a OP_EQUAL", "type": "scripthash"}, "value": 0.0099815, "n": 1}], "hex": "02000000000101741828bbac8f596e18508e5adb9fbe9415f04a30356eccf536c76cf30e8cfe090e0000001716001417f889b90493a525173588998a38fead80374fbcfeffffff02f0631a00000000001976a9141a0136d716c3d108b7288425b0f6bda90dfe97e388ac063b0f000000000017a91439370e4a3095bc10ca15c92be15795e98900950a870247304402205975c76bb4f5caf9a6f1a08e1fe6278cf14497aea9116c5bd0599eea50d68263022037b57fdf2261b8df668aca7bc510197475409f67c0b05e9d2595ced22c413b2801210220ba3fecce93b42f46504242a8cbcb671f29da00cb4c8fe930d6483160581c6c0f490800", "vin": [{"txinwitness": ["304402205975c76bb4f5caf9a6f1a08e1fe6278cf14497aea9116c5bd0599eea50d68263022037b57fdf2261b8df668aca7bc510197475409f67c0b05e9d2595ced22c413b2801", "0220ba3fecce93b42f46504242a8cbcb671f29da00cb4c8fe930d6483160581c6c"], "sequence": 4294967294, "scriptSig": {"hex": "16001417f889b90493a525173588998a38fead80374fbc", "asm": "001417f889b90493a525173588998a38fead80374fbc"}, "vout": 14, "txid": "09fe8c0ef36cc736f5cc6e35304af01594be9fdb5a8e50186e598facbb281874"}], "txid": "55bb07e2f5626a2f864d62c997eee8b0092d0589668e189c22a39b2ce3226f4d", "blocktime": 1537871175, "version": 2, "confirmations": 11511, "time": 1537871175, "locktime": 542991, "vsize": 168, "size": 249}