{"hash": "55bb2d559b6701d7e3aecf3baf023778d8809fa8e2cd945813fd9e2d7cda5199", "blockhash": "0000000000000000000dcc0f55137456b1a82d3642486a52398922ac4d620174", "vout": [{"scriptPubKey": {"reqSigs": 1, "hex": "a91401c48be3fe61ed10c900a2e0e9fa64864912209087", "addresses": ["31rN42EruGBUSbtTHNkppJXUiMjLJ6qTXB"], "asm": "OP_HASH160 01c48be3fe61ed10c900a2e0e9fa648649122090 OP_EQUAL", "type": "scripthash"}, "value": 0.0027286, "n": 0}, {"scriptPubKey": {"reqSigs": 1, "hex": "76a914d49799d37432dd72ec702af2da0d3ff4fea3e5ce88ac", "addresses": ["1LP5s5m1VVXd59AYzdjcDLm4Rz1Duw1s2v"], "asm": "OP_DUP OP_HASH160 d49799d37432dd72ec702af2da0d3ff4fea3e5ce OP_EQUALVERIFY OP_CHECKSIG", "type": "pubkeyhash"}, "value": 0.00299515, "n": 1}], "hex": "01000000018cf573c88cd74266273333088b32b6622e0dc806b872226dac26244954d325e0010000006a47304402205cb9ed5d97b5bc43f18570383cfa71df30678100b4429d9f673fa1de5c44a31002205eff03c477ccc7e0e8a33d9cb73f87b6b84fc8ee502082b8e2a4012bd3238aa70121039e485f30a70a82249e49d029c89df6d46f3e5e8268574d966a47c4248cc3c0e20000000002dc2904000000000017a91401c48be3fe61ed10c900a2e0e9fa64864912209087fb910400000000001976a914d49799d37432dd72ec702af2da0d3ff4fea3e5ce88ac00000000", "vin": [{"sequence": 0, "scriptSig": {"hex": "47304402205cb9ed5d97b5bc43f18570383cfa71df30678100b4429d9f673fa1de5c44a31002205eff03c477ccc7e0e8a33d9cb73f87b6b84fc8ee502082b8e2a4012bd3238aa70121039e485f30a70a82249e49d029c89df6d46f3e5e8268574d966a47c4248cc3c0e2", "asm": "304402205cb9ed5d97b5bc43f18570383cfa71df30678100b4429d9f673fa1de5c44a31002205eff03c477ccc7e0e8a33d9cb73f87b6b84fc8ee502082b8e2a4012bd3238aa7[ALL] 039e485f30a70a82249e49d029c89df6d46f3e5e8268574d966a47c4248cc3c0e2"}, "vout": 1, "txid": "e025d354492426ac6d2272b806c80d2e62b6328b083333276642d78cc873f58c"}], "txid": "55bb2d559b6701d7e3aecf3baf023778d8809fa8e2cd945813fd9e2d7cda5199", "blocktime": 1537870268, "version": 1, "confirmations": 11516, "time": 1537870268, "locktime": 0, "vsize": 223, "size": 223}