{"hash": "55beb60f0d4cfa36d17b456aea28afdfbdec289afc08a4ab45c7ce8e1d73a864", "blockhash": "0000000000000000001cda96e906b7601b7a6fb1a3b62bca570a9e5d8f4b3de1", "vout": [{"scriptPubKey": {"reqSigs": 1, "hex": "76a914fad67de46bbdcefea4aea0b97944ac596eea9da388ac", "addresses": ["1PsJt7CMWSebvgKqSWiVG8XMWoQC9M8LPh"], "asm": "OP_DUP OP_HASH160 fad67de46bbdcefea4aea0b97944ac596eea9da3 OP_EQUALVERIFY OP_CHECKSIG", "type": "pubkeyhash"}, "value": 0.16090881, "n": 0}, {"scriptPubKey": {"reqSigs": 1, "hex": "76a9147f38c88ca5217b87f5779d45cf2ac5da222c16cd88ac", "addresses": ["1Cbgqk345JwHee7aPaPnWSGWSF1vrrhXgg"], "asm": "OP_DUP OP_HASH160 7f38c88ca5217b87f5779d45cf2ac5da222c16cd OP_EQUALVERIFY OP_CHECKSIG", "type": "pubkeyhash"}, "value": 0.76260227, "n": 1}], "hex": "01000000014415bf55261ddf9b8d8e90d70b8b4b1f6c63f7231b14ccc1dc37627bc96195d9010000006a4730440220311ded6f94e267d77783fad214831dddd786c19ee966adfc2c3e814ec77dde0c0220289b76d5563764a4592e200b4965891252c0e6fe0ee7cc65901001d8c57f53110121020ad48bb9b21bf9a72ba73688f9b89d3d237972abc2219823d99902a5256ec985ffffffff020187f500000000001976a914fad67de46bbdcefea4aea0b97944ac596eea9da388ac83a38b04000000001976a9147f38c88ca5217b87f5779d45cf2ac5da222c16cd88ac00000000", "vin": [{"sequence": 4294967295, "scriptSig": {"hex": "4730440220311ded6f94e267d77783fad214831dddd786c19ee966adfc2c3e814ec77dde0c0220289b76d5563764a4592e200b4965891252c0e6fe0ee7cc65901001d8c57f53110121020ad48bb9b21bf9a72ba73688f9b89d3d237972abc2219823d99902a5256ec985", "asm": "30440220311ded6f94e267d77783fad214831dddd786c19ee966adfc2c3e814ec77dde0c0220289b76d5563764a4592e200b4965891252c0e6fe0ee7cc65901001d8c57f5311[ALL] 020ad48bb9b21bf9a72ba73688f9b89d3d237972abc2219823d99902a5256ec985"}, "vout": 1, "txid": "d99561c97b6237dcc1cc141b23f7636c1f4b8b0bd7908e8d9bdf1d2655bf1544"}], "txid": "55beb60f0d4cfa36d17b456aea28afdfbdec289afc08a4ab45c7ce8e1d73a864", "blocktime": 1537873282, "version": 1, "confirmations": 11482, "time": 1537873282, "locktime": 0, "vsize": 225, "size": 225}