{"hash": "22f53c15f3b800bc4407c6a63ae9ded06ad6be89ebf6065bdadb2460be406bc7", "blockhash": "0000000000000000000baef3f32e3676a92c3b2e5da21b426e4f302fc371ce76", "vout": [{"scriptPubKey": {"reqSigs": 1, "hex": "a91482e7e273ec4e0dff2590e50d5fec2ebc665cd1f787", "addresses": ["3DdBZ734DjaqBf29PvjxWv9mvU6VaQEs8H"], "asm": "OP_HASH160 82e7e273ec4e0dff2590e50d5fec2ebc665cd1f7 OP_EQUAL", "type": "scripthash"}, "value": 4.4119914, "n": 0}, {"scriptPubKey": {"reqSigs": 1, "hex": "a9144136217ad6a844e1b4542f33167faae071a7127687", "addresses": ["37dph5uDZiGCGxJ59DYpcYbFrP1yzdtWGd"], "asm": "OP_HASH160 4136217ad6a844e1b4542f33167faae071a71276 OP_EQUAL", "type": "scripthash"}, "value": 0.2, "n": 1}, {"scriptPubKey": {"reqSigs": 1, "hex": "76a914baa10a0ee052310f167313e73792852770b4647d88ac", "addresses": ["1J1obtR2RpX1iNhft45estsf3C5h2iNY9h"], "asm": "OP_DUP OP_HASH160 baa10a0ee052310f167313e73792852770b4647d OP_EQUALVERIFY OP_CHECKSIG", "type": "pubkeyhash"}, "value": 0.01011168, "n": 2}, {"scriptPubKey": {"reqSigs": 1, "hex": "a9145abd7c45fa1bc7e503a6a9cced752f202f37082b87", "addresses": ["39xojVFRutSbdjSjZWehqj7AL6khcgn17i"], "asm": "OP_HASH160 5abd7c45fa1bc7e503a6a9cced752f202f37082b OP_EQUAL", "type": "scripthash"}, "value": 0.2, "n": 3}, {"scriptPubKey": {"reqSigs": 1, "hex": "76a91470964f3b7b164ed579924fab6b658311f20a570a88ac", "addresses": ["1BGJkAzTJ2TkPeEpfW8RtPhFGDq4E4yu63"], "asm": "OP_DUP OP_HASH160 70964f3b7b164ed579924fab6b658311f20a570a OP_EQUALVERIFY OP_CHECKSIG", "type": "pubkeyhash"}, "value": 0.10705548, "n": 4}], "hex": "010000000001015f417cf1f6bf95c0cc997e2b0d2d8a7db4d3d5ca0d8c6173176af0a76539fc430000000023220020396e410c1f0faa6cf44962c0624cd22732a29701c600c1d906e0db9f939fa239ffffffff05242a4c1a0000000017a91482e7e273ec4e0dff2590e50d5fec2ebc665cd1f787002d31010000000017a9144136217ad6a844e1b4542f33167faae071a7127687e06d0f00000000001976a914baa10a0ee052310f167313e73792852770b4647d88ac002d31010000000017a9145abd7c45fa1bc7e503a6a9cced752f202f37082b878c5aa300000000001976a91470964f3b7b164ed579924fab6b658311f20a570a88ac03473044022001b3d0836103399115ddde485d5d43e682790cf58c85337ac092451460f421d602206984e900443da4d8661829aa72e290bee6702382daeb1426911807f6d90662cb012102d941dfddbc2339802d015e0777dc30cd416ff591acd587c3e34824c6583b4dac1976a914d1cd43434d93559101682b017ed06e55a1c7119e88ac00000000", "vin": [{"txinwitness": ["3044022001b3d0836103399115ddde485d5d43e682790cf58c85337ac092451460f421d602206984e900443da4d8661829aa72e290bee6702382daeb1426911807f6d90662cb01", "02d941dfddbc2339802d015e0777dc30cd416ff591acd587c3e34824c6583b4dac", "76a914d1cd43434d93559101682b017ed06e55a1c7119e88ac"], "sequence": 4294967295, "scriptSig": {"hex": "220020396e410c1f0faa6cf44962c0624cd22732a29701c600c1d906e0db9f939fa239", "asm": "0020396e410c1f0faa6cf44962c0624cd22732a29701c600c1d906e0db9f939fa239"}, "vout": 0, "txid": "43fc3965a7f06a1773618c0dcad5d3b47d8a2d0d2b7e99ccc095bff6f17c415f"}], "txid": "55c2f8197873d37399549c77fa6bf79420ebffbf49e9ae98dc09de00847d13ef", "blocktime": 1537876114, "version": 1, "confirmations": 11460, "time": 1537876114, "locktime": 0, "vsize": 284, "size": 385}