{"hash": "55c43f276f20ba11161961e8c69f846bd2a495d97a8e3f52ce9adab048a4c464", "blockhash": "000000000000000000022b45ed06c6f4ccd3cf7fb5ba4856ebd2e58215665228", "vout": [{"scriptPubKey": {"reqSigs": 1, "hex": "a9147145831daaacc73df3e0d91cc1a53e3becb6a96187", "addresses": ["3C1wZ1b317Gaqq6YRpc1UgmY43yqXK9JD7"], "asm": "OP_HASH160 7145831daaacc73df3e0d91cc1a53e3becb6a961 OP_EQUAL", "type": "scripthash"}, "value": 1.1999, "n": 0}, {"scriptPubKey": {"reqSigs": 1, "hex": "76a914ba2fca9ccb7b29560ec90af071ce9e6a4e361c9588ac", "addresses": ["1HyTwHm5f1du2sM1vkF6vXFEXXKfrPduoQ"], "asm": "OP_DUP OP_HASH160 ba2fca9ccb7b29560ec90af071ce9e6a4e361c95 OP_EQUALVERIFY OP_CHECKSIG", "type": "pubkeyhash"}, "value": 6.26738668, "n": 1}], "hex": "0200000001825513d788e0bb25ab2ad84aa2c0c9169ee8c060837a9d0431a8542cab39bff7010000006a47304402207aea4ab40f6898502ba58e022f031c27df4dc46f21e292b77864b41823a3d2f902202bcfc99b4f0a616eff4d88a9ebcd5433c0d68128807f67da85d183ddc1c325b401210232a47db17528d86a31fd1c9e1383595516ecdc9a0a5dbd1fd43ba0ee028b02b3ffffffff02f0e626070000000017a9147145831daaacc73df3e0d91cc1a53e3becb6a96187ec455b25000000001976a914ba2fca9ccb7b29560ec90af071ce9e6a4e361c9588ac00000000", "vin": [{"sequence": 4294967295, "scriptSig": {"hex": "47304402207aea4ab40f6898502ba58e022f031c27df4dc46f21e292b77864b41823a3d2f902202bcfc99b4f0a616eff4d88a9ebcd5433c0d68128807f67da85d183ddc1c325b401210232a47db17528d86a31fd1c9e1383595516ecdc9a0a5dbd1fd43ba0ee028b02b3", "asm": "304402207aea4ab40f6898502ba58e022f031c27df4dc46f21e292b77864b41823a3d2f902202bcfc99b4f0a616eff4d88a9ebcd5433c0d68128807f67da85d183ddc1c325b4[ALL] 0232a47db17528d86a31fd1c9e1383595516ecdc9a0a5dbd1fd43ba0ee028b02b3"}, "vout": 1, "txid": "f7bf39ab2c54a831049d7a8360c0e89e16c9c0a24ad82aab25bbe088d7135582"}], "txid": "55c43f276f20ba11161961e8c69f846bd2a495d97a8e3f52ce9adab048a4c464", "blocktime": 1537869901, "version": 2, "confirmations": 11524, "time": 1537869901, "locktime": 0, "vsize": 223, "size": 223}