{"hash": "55c61f1937b75bf932f77856648bc6e307a63a0adf76cd78940018655ab17f96", "blockhash": "00000000000000000017f5eb5941039fbcee6240d03bc1f2f8e35350df66a1d8", "vout": [{"scriptPubKey": {"reqSigs": 1, "hex": "76a914b2e457429718c233d9a5feff3156232830443a1c88ac", "addresses": ["1HJtpYikqCBGr6m2uazJebvqWqbYRDVQEY"], "asm": "OP_DUP OP_HASH160 b2e457429718c233d9a5feff3156232830443a1c OP_EQUALVERIFY OP_CHECKSIG", "type": "pubkeyhash"}, "value": 0.41372516, "n": 0}, {"scriptPubKey": {"reqSigs": 1, "hex": "76a914dfbe7bc5ac9fd33e418ab413702aef35a1d02d1688ac", "addresses": ["1MQ3soZSqqdv6HiY9T8TXRjDDp5UY9tz1j"], "asm": "OP_DUP OP_HASH160 dfbe7bc5ac9fd33e418ab413702aef35a1d02d16 OP_EQUALVERIFY OP_CHECKSIG", "type": "pubkeyhash"}, "value": 0.54991209, "n": 1}], "hex": "010000000298be28bed1cc27b8f45d2460161c9769efbdb08a10640743339737045745a186010000006b483045022100ea0215c2539e79cec5e06dd0af23ef8e5a31dee9ed0e046894015e88ccc7bd0402204d26d47f4145fc48ad01140aa2a50d0e51da956e4d1a6e62052e4aa0d9203c58012103cab79fab6a9fdd323ad376200241c951d204d355fb4d6e0eac30facd72f3c717ffffffff8b7a7f80d34e7d6d8e3f6df81123f536fe3b78f2fb42824a7a52bcb128d21396000000006a473044022072226b50bb16f086c8f3bea14b11f8f9c94fbe9955f54188d45068be974e528902200ef45e8cf2a165d9b7065336fe1cba7e92830b38347b5bb37d0b6792e455a4960121035a35184abbe77f598e5da06284d3cf978b6d5b8350a85a93684a9a2a0c6325e6ffffffff02644b7702000000001976a914b2e457429718c233d9a5feff3156232830443a1c88ac69194703000000001976a914dfbe7bc5ac9fd33e418ab413702aef35a1d02d1688ac00000000", "vin": [{"sequence": 4294967295, "scriptSig": {"hex": "483045022100ea0215c2539e79cec5e06dd0af23ef8e5a31dee9ed0e046894015e88ccc7bd0402204d26d47f4145fc48ad01140aa2a50d0e51da956e4d1a6e62052e4aa0d9203c58012103cab79fab6a9fdd323ad376200241c951d204d355fb4d6e0eac30facd72f3c717", "asm": "3045022100ea0215c2539e79cec5e06dd0af23ef8e5a31dee9ed0e046894015e88ccc7bd0402204d26d47f4145fc48ad01140aa2a50d0e51da956e4d1a6e62052e4aa0d9203c58[ALL] 03cab79fab6a9fdd323ad376200241c951d204d355fb4d6e0eac30facd72f3c717"}, "vout": 1, "txid": "86a1455704379733430764108ab0bdef69971c1660245df4b827ccd1be28be98"}, {"sequence": 4294967295, "scriptSig": {"hex": "473044022072226b50bb16f086c8f3bea14b11f8f9c94fbe9955f54188d45068be974e528902200ef45e8cf2a165d9b7065336fe1cba7e92830b38347b5bb37d0b6792e455a4960121035a35184abbe77f598e5da06284d3cf978b6d5b8350a85a93684a9a2a0c6325e6", "asm": "3044022072226b50bb16f086c8f3bea14b11f8f9c94fbe9955f54188d45068be974e528902200ef45e8cf2a165d9b7065336fe1cba7e92830b38347b5bb37d0b6792e455a496[ALL] 035a35184abbe77f598e5da06284d3cf978b6d5b8350a85a93684a9a2a0c6325e6"}, "vout": 0, "txid": "9613d228b1bc527a4a8242fbf2783bfe36f52311f86d3f8e6d7d4ed3807f7a8b"}], "txid": "55c61f1937b75bf932f77856648bc6e307a63a0adf76cd78940018655ab17f96", "blocktime": 1537874412, "version": 1, "confirmations": 11468, "time": 1537874412, "locktime": 0, "vsize": 373, "size": 373}