{"hash": "55c73a60f6ef66439467427eaca598699e47715fa25d432b8c2a4709486634aa", "blockhash": "00000000000000000017f5eb5941039fbcee6240d03bc1f2f8e35350df66a1d8", "vout": [{"scriptPubKey": {"reqSigs": 1, "hex": "76a91426b33bf91772f1c63788107bcb8761f0bdd4864188ac", "addresses": ["14XdPhtPGb2CB2srTmW4taXBgAWHvEDMaj"], "asm": "OP_DUP OP_HASH160 26b33bf91772f1c63788107bcb8761f0bdd48641 OP_EQUALVERIFY OP_CHECKSIG", "type": "pubkeyhash"}, "value": 0.0024082, "n": 0}, {"scriptPubKey": {"reqSigs": 1, "hex": "76a9148d87c7aa9ff586de112af3061fc4fb77524eea2c88ac", "addresses": ["1DuLwCqzNXMXG2g9ESKcaTJs3WHhJC3GpC"], "asm": "OP_DUP OP_HASH160 8d87c7aa9ff586de112af3061fc4fb77524eea2c OP_EQUALVERIFY OP_CHECKSIG", "type": "pubkeyhash"}, "value": 0.0470639, "n": 1}], "hex": "0100000002b26e04960849a875c2b7a392653dd1148befd077f68d0aca27476c60dde3c2f0020000006a47304402207eac1b0bd2a5b8f3ab8410381913c9798ca8be9fd4ef963388c95eb17e8fe8a602204d61989ea5afd42eaa2574c810ca50fed175e165ce6fc5a808e55e54b40ae69001210312dd4e9d12660d96f27635f107678f5d5133f2f2046ae981302627d209d7a3b6ffffffff92ef94f287bb75f505e78a7a252cebbe77242c76d1f9f1230338d132da5987f9010000006a47304402204cca6be5288d2b0292c35c6faccaeec32ff199a36fe42fc4ae339e2ddaeec08302200453718efe3274d6d3a1550f8bf1afcd588becac097eb50166add08e985c8126012102eb7f283db9a8c1bde552faa2b623cd19fb8d41ec8e2afdb612e1f0a73de8ba1dffffffff02b4ac0300000000001976a91426b33bf91772f1c63788107bcb8761f0bdd4864188ac56d04700000000001976a9148d87c7aa9ff586de112af3061fc4fb77524eea2c88ac00000000", "vin": [{"sequence": 4294967295, "scriptSig": {"hex": "47304402207eac1b0bd2a5b8f3ab8410381913c9798ca8be9fd4ef963388c95eb17e8fe8a602204d61989ea5afd42eaa2574c810ca50fed175e165ce6fc5a808e55e54b40ae69001210312dd4e9d12660d96f27635f107678f5d5133f2f2046ae981302627d209d7a3b6", "asm": "304402207eac1b0bd2a5b8f3ab8410381913c9798ca8be9fd4ef963388c95eb17e8fe8a602204d61989ea5afd42eaa2574c810ca50fed175e165ce6fc5a808e55e54b40ae690[ALL] 0312dd4e9d12660d96f27635f107678f5d5133f2f2046ae981302627d209d7a3b6"}, "vout": 2, "txid": "f0c2e3dd606c4727ca0a8df677d0ef8b14d13d6592a3b7c275a8490896046eb2"}, {"sequence": 4294967295, "scriptSig": {"hex": "47304402204cca6be5288d2b0292c35c6faccaeec32ff199a36fe42fc4ae339e2ddaeec08302200453718efe3274d6d3a1550f8bf1afcd588becac097eb50166add08e985c8126012102eb7f283db9a8c1bde552faa2b623cd19fb8d41ec8e2afdb612e1f0a73de8ba1d", "asm": "304402204cca6be5288d2b0292c35c6faccaeec32ff199a36fe42fc4ae339e2ddaeec08302200453718efe3274d6d3a1550f8bf1afcd588becac097eb50166add08e985c8126[ALL] 02eb7f283db9a8c1bde552faa2b623cd19fb8d41ec8e2afdb612e1f0a73de8ba1d"}, "vout": 1, "txid": "f98759da32d1380323f1f9d1762c2477beeb2c257a8ae705f575bb87f294ef92"}], "txid": "55c73a60f6ef66439467427eaca598699e47715fa25d432b8c2a4709486634aa", "blocktime": 1537874412, "version": 1, "confirmations": 11468, "time": 1537874412, "locktime": 0, "vsize": 372, "size": 372}