{"hash": "55cc22c63c8c023c851cdfad70dd5ede2dbbe6ec6a40dc7b67ef4945607029ed", "blockhash": "0000000000000000001cda96e906b7601b7a6fb1a3b62bca570a9e5d8f4b3de1", "vout": [{"scriptPubKey": {"reqSigs": 1, "hex": "76a91461e4b8d758633697accd09752b9f3c30ea4df58188ac", "addresses": ["19vcYVcA1MZG2A6K2FVLonYhXfUMuUZJUY"], "asm": "OP_DUP OP_HASH160 61e4b8d758633697accd09752b9f3c30ea4df581 OP_EQUALVERIFY OP_CHECKSIG", "type": "pubkeyhash"}, "value": 8.76320905, "n": 0}], "hex": "0100000002fe32051765e0b5a2b546309deb2b1c02fe5f29360165d464c74b23cf222c3b19010000006a473044022075d1c02a34d875d1e48e525134fdc73a62dbd76267b397f6c6fff91e3faec857022046f6e128e91a12eeabc5ac69217eeeaed6efe581d4bdfa771c781b92b6e43b2f012102c416908ca26f6bb20c78eb266b86d3df631c469aab371a33fd991f7dee609befffffffff3a8a8541d2915a7de70720d5347c93a90a5196f8a0774f3ed3d38b9449edfdb6000000006b483045022100c075f195aaab01798846f961b06f68b73a3d360638fb7ea4e43a365e0f618b1c0220431b87abd6eff6858650ed00189cb3d9d718d95b9db3882c5708e781ac95324e01210339a41c2779fe8f47cf58fd50cca376453d5e435b06ab86213bae5e419e3affceffffffff0189983b34000000001976a91461e4b8d758633697accd09752b9f3c30ea4df58188ac00000000", "vin": [{"sequence": 4294967295, "scriptSig": {"hex": "473044022075d1c02a34d875d1e48e525134fdc73a62dbd76267b397f6c6fff91e3faec857022046f6e128e91a12eeabc5ac69217eeeaed6efe581d4bdfa771c781b92b6e43b2f012102c416908ca26f6bb20c78eb266b86d3df631c469aab371a33fd991f7dee609bef", "asm": "3044022075d1c02a34d875d1e48e525134fdc73a62dbd76267b397f6c6fff91e3faec857022046f6e128e91a12eeabc5ac69217eeeaed6efe581d4bdfa771c781b92b6e43b2f[ALL] 02c416908ca26f6bb20c78eb266b86d3df631c469aab371a33fd991f7dee609bef"}, "vout": 1, "txid": "193b2c22cf234bc764d4650136295ffe021c2beb9d3046b5a2b5e065170532fe"}, {"sequence": 4294967295, "scriptSig": {"hex": "483045022100c075f195aaab01798846f961b06f68b73a3d360638fb7ea4e43a365e0f618b1c0220431b87abd6eff6858650ed00189cb3d9d718d95b9db3882c5708e781ac95324e01210339a41c2779fe8f47cf58fd50cca376453d5e435b06ab86213bae5e419e3affce", "asm": "3045022100c075f195aaab01798846f961b06f68b73a3d360638fb7ea4e43a365e0f618b1c0220431b87abd6eff6858650ed00189cb3d9d718d95b9db3882c5708e781ac95324e[ALL] 0339a41c2779fe8f47cf58fd50cca376453d5e435b06ab86213bae5e419e3affce"}, "vout": 0, "txid": "b6fded49948bd3d33e4f77a0f896510aa9937c34d52007e77d5a91d241858a3a"}], "txid": "55cc22c63c8c023c851cdfad70dd5ede2dbbe6ec6a40dc7b67ef4945607029ed", "blocktime": 1537873282, "version": 1, "confirmations": 11481, "time": 1537873282, "locktime": 0, "vsize": 339, "size": 339}