{"hash": "a21813624d6c049405e2e5a565e66be2ddc4007a31e1231b69cccaf744b1ec9c", "blockhash": "0000000000000000001cda96e906b7601b7a6fb1a3b62bca570a9e5d8f4b3de1", "vout": [{"scriptPubKey": {"reqSigs": 1, "hex": "a914c7ed4cb2c66dca33303afd12da7737ba1c89f34d87", "addresses": ["3Kv8fao3Fd4yM4vjkKtTELWVWBMcMpRdAN"], "asm": "OP_HASH160 c7ed4cb2c66dca33303afd12da7737ba1c89f34d OP_EQUAL", "type": "scripthash"}, "value": 0.18141117, "n": 0}, {"scriptPubKey": {"reqSigs": 1, "hex": "a9144e08596769dcd8191bb48702ccf5634a51944c4687", "addresses": ["38ocdczwoBC676siWVz2eXy2qm3jtyg3Hd"], "asm": "OP_HASH160 4e08596769dcd8191bb48702ccf5634a51944c46 OP_EQUAL", "type": "scripthash"}, "value": 0.00288, "n": 1}, {"scriptPubKey": {"reqSigs": 1, "hex": "a914e3a816c0eef74cfe9a06cfe4ce82a2319c9cd0a787", "addresses": ["3NSkg7Ja48jTpPuGppLpNLF2cMfRpYoyB6"], "asm": "OP_HASH160 e3a816c0eef74cfe9a06cfe4ce82a2319c9cd0a7 OP_EQUAL", "type": "scripthash"}, "value": 0.004, "n": 2}], "hex": "010000000001016967418c3d76c7130405989abb8ead93fd8462f2e0b218a5838c979144aa49810500000023220020be633ac29c0d7df34b13aed8f32971c7bb0b4f5f7cbb054747e27eadb54fb81effffffff03bdcf14010000000017a914c7ed4cb2c66dca33303afd12da7737ba1c89f34d87006504000000000017a9144e08596769dcd8191bb48702ccf5634a51944c4687801a06000000000017a914e3a816c0eef74cfe9a06cfe4ce82a2319c9cd0a7870400483045022100de0e483b900ed08256a85f4654b1d36241e4ad114bab1de62fe882fefd154cdc022006b9a802ba9c9038ca40817b64c6967676f6fcfe0c258d1928a00806dcae5b1b01483045022100fc5c8f64965a985e94a79911a5fde2d29ef589d1ac70f2d334a52d9d8f34bc6402203d843368015459eda76c28dde77114889608b87d715c33a52dc5f1acf51e6fc4016952210266aa76a8e2f4671f159aeca8206c21057b9651ef74379d30181f8d59ff2dd79f2102cfa2aead72311306e658d26a352f162a8158ff674f73cd9bbc3c2257c4d8a6a22103b0819c69ba6e39bec10f2e2b36ba0e232b99a0c6b89fa1bcd7a75dc14f5fd6e453ae00000000", "vin": [{"txinwitness": ["", "3045022100de0e483b900ed08256a85f4654b1d36241e4ad114bab1de62fe882fefd154cdc022006b9a802ba9c9038ca40817b64c6967676f6fcfe0c258d1928a00806dcae5b1b01", "3045022100fc5c8f64965a985e94a79911a5fde2d29ef589d1ac70f2d334a52d9d8f34bc6402203d843368015459eda76c28dde77114889608b87d715c33a52dc5f1acf51e6fc401", "52210266aa76a8e2f4671f159aeca8206c21057b9651ef74379d30181f8d59ff2dd79f2102cfa2aead72311306e658d26a352f162a8158ff674f73cd9bbc3c2257c4d8a6a22103b0819c69ba6e39bec10f2e2b36ba0e232b99a0c6b89fa1bcd7a75dc14f5fd6e453ae"], "sequence": 4294967295, "scriptSig": {"hex": "220020be633ac29c0d7df34b13aed8f32971c7bb0b4f5f7cbb054747e27eadb54fb81e", "asm": "0020be633ac29c0d7df34b13aed8f32971c7bb0b4f5f7cbb054747e27eadb54fb81e"}, "vout": 5, "txid": "8149aa4491978c83a518b2e0f26284fd93ad8ebb9a98050413c7763d8c416769"}], "txid": "55d578c42251c4ac361671e2fb73594454fe0adcff2b39c9a0c64bc4fd5b6573", "blocktime": 1537873282, "version": 1, "confirmations": 11484, "time": 1537873282, "locktime": 0, "vsize": 246, "size": 438}