{"hash": "55d6704db56547278483f76162086c3071cc7798c07312dd53b47b23113710ef", "blockhash": "000000000000000000022b45ed06c6f4ccd3cf7fb5ba4856ebd2e58215665228", "vout": [{"scriptPubKey": {"reqSigs": 1, "hex": "76a91483fc7d1db876b206fb6acf63092299e2c6a605a288ac", "addresses": ["1D2szMZyL9JKhpp5VgapvUMzjNxeVxuS3X"], "asm": "OP_DUP OP_HASH160 83fc7d1db876b206fb6acf63092299e2c6a605a2 OP_EQUALVERIFY OP_CHECKSIG", "type": "pubkeyhash"}, "value": 0.00268742, "n": 0}, {"scriptPubKey": {"reqSigs": 1, "hex": "a9143c5d9fd1290e29a1da3ff95a10f0dd5ca1491c2c87", "addresses": ["37CCdBZjxGaCLQuxJTr3JJDisd5oah137J"], "asm": "OP_HASH160 3c5d9fd1290e29a1da3ff95a10f0dd5ca1491c2c OP_EQUAL", "type": "scripthash"}, "value": 0.00284508, "n": 1}], "hex": "01000000015ca1daab66eda4a26efcaaf1f45712fb8acbe17546afcf28ab9fc6891cb0f1a2010000006a4730440220631553884420d266485efde4b7aa91a94088802e2350ae5849b825f7aba3c062022023451fa559fa59bcf901d8a2270ebb1986ac786dc491a1e16faaef25fd0fcd1c012103b6acb0973cb3ec2f62d49c0c8a9eae53a86b2dc5baa2c3de347e329dcde37099ffffffff02c6190400000000001976a91483fc7d1db876b206fb6acf63092299e2c6a605a288ac5c5704000000000017a9143c5d9fd1290e29a1da3ff95a10f0dd5ca1491c2c8700000000", "vin": [{"sequence": 4294967295, "scriptSig": {"hex": "4730440220631553884420d266485efde4b7aa91a94088802e2350ae5849b825f7aba3c062022023451fa559fa59bcf901d8a2270ebb1986ac786dc491a1e16faaef25fd0fcd1c012103b6acb0973cb3ec2f62d49c0c8a9eae53a86b2dc5baa2c3de347e329dcde37099", "asm": "30440220631553884420d266485efde4b7aa91a94088802e2350ae5849b825f7aba3c062022023451fa559fa59bcf901d8a2270ebb1986ac786dc491a1e16faaef25fd0fcd1c[ALL] 03b6acb0973cb3ec2f62d49c0c8a9eae53a86b2dc5baa2c3de347e329dcde37099"}, "vout": 1, "txid": "a2f1b01c89c69fab28cfaf4675e1cb8afb1257f4f1aafc6ea2a4ed66abdaa15c"}], "txid": "55d6704db56547278483f76162086c3071cc7798c07312dd53b47b23113710ef", "blocktime": 1537869901, "version": 1, "confirmations": 11522, "time": 1537869901, "locktime": 0, "vsize": 223, "size": 223}