{"hash": "e11391c318d3ba13bf4ea914fa091cb4e2d8fa73a29240b968f05a4fc8310627", "blockhash": "0000000000000000001f76057863aec43deb6fa401d9628bb513d65a8098bfab", "vout": [{"scriptPubKey": {"reqSigs": 1, "hex": "a914b5a24bd7816032c31cedc21e2f172395eb92437987", "addresses": ["3JFQeojyNmNKEUThgfEph82ninY8Cyvhws"], "asm": "OP_HASH160 b5a24bd7816032c31cedc21e2f172395eb924379 OP_EQUAL", "type": "scripthash"}, "value": 0.0123822, "n": 0}, {"scriptPubKey": {"reqSigs": 1, "hex": "a91478221cb35cde13048902e3e27e37eff4658c3b6487", "addresses": ["3CeDsiPnmc1SaR3retv3vF9CUWA85WsKv8"], "asm": "OP_HASH160 78221cb35cde13048902e3e27e37eff4658c3b64 OP_EQUAL", "type": "scripthash"}, "value": 0.02637611, "n": 1}], "hex": "0100000000010199c90ec9ee81ebb8a8d2df5aecb6001a73dffa07d2febbed0dc1493839898608010000002322002093ab7f18272ef781eb7546d707fb21eb658b6175a35d7dca92fe57ac598e5ef5ffffffff02cce412000000000017a914b5a24bd7816032c31cedc21e2f172395eb924379872b3f28000000000017a91478221cb35cde13048902e3e27e37eff4658c3b64870400483045022100e30a488c442805aebd435f760c5604d78d6e2287238d04bdcea6417d6a8a2b3202205c67f077083db8d5ba0a90d3b18b5926f0c7ee8f756197ef55a8ee6c6c25e1d001473044022026817f15e6bfd6c63b09d39620d1eee40e230b1daeedbd5337a09fd979fb6a5b02207314d5348e7540d472b6efc509109bbef30bbd3445ef938d89f7e2d0ad1737280147522103571bd17b524db5fecb5639d1eca39f0a67de1ec6c16afba97148ffc0061076c621038f2c7ecee34c843be9d886e50ce79e5dc40a1694c0417d60b35340f292ff73fc52ae00000000", "vin": [{"txinwitness": ["", "3045022100e30a488c442805aebd435f760c5604d78d6e2287238d04bdcea6417d6a8a2b3202205c67f077083db8d5ba0a90d3b18b5926f0c7ee8f756197ef55a8ee6c6c25e1d001", "3044022026817f15e6bfd6c63b09d39620d1eee40e230b1daeedbd5337a09fd979fb6a5b02207314d5348e7540d472b6efc509109bbef30bbd3445ef938d89f7e2d0ad17372801", "522103571bd17b524db5fecb5639d1eca39f0a67de1ec6c16afba97148ffc0061076c621038f2c7ecee34c843be9d886e50ce79e5dc40a1694c0417d60b35340f292ff73fc52ae"], "sequence": 4294967295, "scriptSig": {"hex": "22002093ab7f18272ef781eb7546d707fb21eb658b6175a35d7dca92fe57ac598e5ef5", "asm": "002093ab7f18272ef781eb7546d707fb21eb658b6175a35d7dca92fe57ac598e5ef5"}, "vout": 1, "txid": "088689393849c10dedbbfed207fadf731a00b6ec5adfd2a8b8eb81eec90ec999"}], "txid": "55da74e1de2fbf1de5d5fcf5684b857cb1fdf17afefb1977b6c93f62105beb26", "blocktime": 1537873891, "version": 1, "confirmations": 11478, "time": 1537873891, "locktime": 0, "vsize": 206, "size": 371}