{"hash": "fa95939233c2a6efb4ce77ff2deaaba21bb23d26fd78410b35ebad491dbe6f82", "blockhash": "0000000000000000001cda96e906b7601b7a6fb1a3b62bca570a9e5d8f4b3de1", "vout": [{"scriptPubKey": {"reqSigs": 1, "hex": "a91490e99e8d26d05ead3c05430c292a887bbff695f587", "addresses": ["3EuF6KjJawxTiUsea3Sc8hsLUGmVEf7Xg5"], "asm": "OP_HASH160 90e99e8d26d05ead3c05430c292a887bbff695f5 OP_EQUAL", "type": "scripthash"}, "value": 0.00146131, "n": 0}, {"scriptPubKey": {"type": "nulldata", "hex": "6a146f6d6e69000000000000001f0000000005f5e100", "asm": "OP_RETURN 6f6d6e69000000000000001f0000000005f5e100"}, "value": 0.0, "n": 1}, {"scriptPubKey": {"reqSigs": 1, "hex": "a91490e99e8d26d05ead3c05430c292a887bbff695f587", "addresses": ["3EuF6KjJawxTiUsea3Sc8hsLUGmVEf7Xg5"], "asm": "OP_HASH160 90e99e8d26d05ead3c05430c292a887bbff695f5 OP_EQUAL", "type": "scripthash"}, "value": 5.4e-06, "n": 2}], "hex": "010000000001020c6b47fe64a9f44aae404a113fa20301c4553711a3b9457f9decbff37504f8d60000000017160014f6e1792e7852ebd5ae795c2a25d579acdfadec2dffffffff0c6b47fe64a9f44aae404a113fa20301c4553711a3b9457f9decbff37504f8d60200000017160014f6e1792e7852ebd5ae795c2a25d579acdfadec2dffffffff03d33a02000000000017a91490e99e8d26d05ead3c05430c292a887bbff695f5870000000000000000166a146f6d6e69000000000000001f0000000005f5e1001c0200000000000017a91490e99e8d26d05ead3c05430c292a887bbff695f5870247304402200b171e3267c381a2fc2f45f0dfd4d9e6f9f872a60964acf12eeba509b3b762440220736c0f0f7e0b3f3760e5359066103706d9e091402eb9f460c9a7f6a7081ccd12012103f1cf988013a33e053d1e9bd54c4798c1a6dc362a5b2798b5344049fca40e2db0024730440220217677d38e0f65b1f19b6ba2057092b8b11679966596e9ae2e570e65a9e7b09a0220076839c7afd62659ad6601ac28cb305318f28bee927eecadc73d67c4df22cd2d012103f1cf988013a33e053d1e9bd54c4798c1a6dc362a5b2798b5344049fca40e2db000000000", "vin": [{"txinwitness": ["304402200b171e3267c381a2fc2f45f0dfd4d9e6f9f872a60964acf12eeba509b3b762440220736c0f0f7e0b3f3760e5359066103706d9e091402eb9f460c9a7f6a7081ccd1201", "03f1cf988013a33e053d1e9bd54c4798c1a6dc362a5b2798b5344049fca40e2db0"], "sequence": 4294967295, "scriptSig": {"hex": "160014f6e1792e7852ebd5ae795c2a25d579acdfadec2d", "asm": "0014f6e1792e7852ebd5ae795c2a25d579acdfadec2d"}, "vout": 0, "txid": "d6f80475f3bfec9d7f45b9a3113755c40103a23f114a40ae4af4a964fe476b0c"}, {"txinwitness": ["30440220217677d38e0f65b1f19b6ba2057092b8b11679966596e9ae2e570e65a9e7b09a0220076839c7afd62659ad6601ac28cb305318f28bee927eecadc73d67c4df22cd2d01", "03f1cf988013a33e053d1e9bd54c4798c1a6dc362a5b2798b5344049fca40e2db0"], "sequence": 4294967295, "scriptSig": {"hex": "160014f6e1792e7852ebd5ae795c2a25d579acdfadec2d", "asm": "0014f6e1792e7852ebd5ae795c2a25d579acdfadec2d"}, "vout": 2, "txid": "d6f80475f3bfec9d7f45b9a3113755c40103a23f114a40ae4af4a964fe476b0c"}], "txid": "55e04327d9e422e5ccaee6545ac74dc1ee58926b1fdb2b28d2366ef4ae1471ae", "blocktime": 1537873282, "version": 1, "confirmations": 11484, "time": 1537873282, "locktime": 0, "vsize": 287, "size": 449}