{"hash": "55e2d6beccca11bbb1c7e750de2a89c6f8fedf18797dd3fd2972721483f59a57", "blockhash": "0000000000000000001e0dab787dd257d1dbfcb92a98c2207d5e1078be1f4165", "vout": [{"scriptPubKey": {"reqSigs": 1, "hex": "76a914d9a2bb36b663218dac2e8c9456813d988a3889fd88ac", "addresses": ["1LqkaPzUbJLApET4qEoncHRpaagSqNJZqj"], "asm": "OP_DUP OP_HASH160 d9a2bb36b663218dac2e8c9456813d988a3889fd OP_EQUALVERIFY OP_CHECKSIG", "type": "pubkeyhash"}, "value": 2.831e-05, "n": 0}, {"scriptPubKey": {"reqSigs": 1, "hex": "a914fe037e9e565003b7bc866728d89201038354f7a887", "addresses": ["3Qr7k5UcZg9xfQjT5JiF3Gesfdoxqmht99"], "asm": "OP_HASH160 fe037e9e565003b7bc866728d89201038354f7a8 OP_EQUAL", "type": "scripthash"}, "value": 0.01874936, "n": 1}], "hex": "010000000180a0d066277a565e63f76dc62b376298575dfd9fe1eec0792144bf58bc5fb54e000000006b483045022100a6c4f2e87047f0e59a8ba2f8db4f6f0d220ca317a637328cd1fe13e4a141f9b30220094844e56612dc655b7b6200ac2b40bb2933132868c50ac4126295f76134c89f0121028be7a876325a78995d2c9f6aabf0b538146efd2af0fe89c7ada1b22ec38edb7effffffff020f0b0000000000001976a914d9a2bb36b663218dac2e8c9456813d988a3889fd88acf89b1c000000000017a914fe037e9e565003b7bc866728d89201038354f7a88700000000", "vin": [{"sequence": 4294967295, "scriptSig": {"hex": "483045022100a6c4f2e87047f0e59a8ba2f8db4f6f0d220ca317a637328cd1fe13e4a141f9b30220094844e56612dc655b7b6200ac2b40bb2933132868c50ac4126295f76134c89f0121028be7a876325a78995d2c9f6aabf0b538146efd2af0fe89c7ada1b22ec38edb7e", "asm": "3045022100a6c4f2e87047f0e59a8ba2f8db4f6f0d220ca317a637328cd1fe13e4a141f9b30220094844e56612dc655b7b6200ac2b40bb2933132868c50ac4126295f76134c89f[ALL] 028be7a876325a78995d2c9f6aabf0b538146efd2af0fe89c7ada1b22ec38edb7e"}, "vout": 0, "txid": "4eb55fbc58bf442179c0eee19ffd5d579862372bc66df7635e567a2766d0a080"}], "txid": "55e2d6beccca11bbb1c7e750de2a89c6f8fedf18797dd3fd2972721483f59a57", "blocktime": 1537872475, "version": 1, "confirmations": 11487, "time": 1537872475, "locktime": 0, "vsize": 224, "size": 224}