{"hash": "975e95d46d130a4eae6d2f94c2dcc62f39ab5048671174aabe3faea802c8cd26", "blockhash": "0000000000000000000dcc0f55137456b1a82d3642486a52398922ac4d620174", "vout": [{"scriptPubKey": {"reqSigs": 1, "hex": "a91418eda52024b7a03a4f86abb7a861f9c04ec233f287", "addresses": ["33xpq1isu9ujUkE75HMg8nScS4XNSkf4Nh"], "asm": "OP_HASH160 18eda52024b7a03a4f86abb7a861f9c04ec233f2 OP_EQUAL", "type": "scripthash"}, "value": 0.17, "n": 0}, {"scriptPubKey": {"reqSigs": 1, "hex": "a9141e5cff4ecb11b6b95854edc78e52686b897f616687", "addresses": ["34TZbs4zspw7ukH1BLk4kJwY4zCuyVNBbL"], "asm": "OP_HASH160 1e5cff4ecb11b6b95854edc78e52686b897f6166 OP_EQUAL", "type": "scripthash"}, "value": 0.18924623, "n": 1}], "hex": "0100000000010609d9b75c38852e9f178c69f4ccb653a7979c3fe8690ec1daafe421fa8361668b0000000017160014315c6db3d432fdc6d195850732be3be7124c56fdffffffffc3f689a6c0fd3e7e13755bdc36b370a553b35b7780f10081165cef178e0b73c60000000017160014315c6db3d432fdc6d195850732be3be7124c56fdffffffff5e9451076709fee85bf6ab5ff2c8184b9942933fee94ec1e1986190b306f69b30100000017160014d9c55f647fa64efba873e45a30f60475430f0c73ffffffff27eb2258173ebcf32df0cb5e60103cfd423eb0555b45877c4bb2b2875e9c43d701000000171600141ea7c96e2f850383489d3e20275de2221aaa4a27ffffffff0f7d66c5b398f8c737f530ebee5aeec7a0f1c1130c99984b50b341b1f4e9b2a600000000171600141ea7c96e2f850383489d3e20275de2221aaa4a27ffffffff38f2abf9bb5a51aba6006903c585f0d23e45146370fa8fcf852ea3f31bd726e001000000171600141ea7c96e2f850383489d3e20275de2221aaa4a27ffffffff02406603010000000017a91418eda52024b7a03a4f86abb7a861f9c04ec233f2874fc420010000000017a9141e5cff4ecb11b6b95854edc78e52686b897f61668702483045022100a04615c0233efbdeba9d080e7c94a428d9d66e276c90729937ebb933c6f69ae102201b042040e21b23d064215d9971cd27fd0ac105d8f3d60f42d5f60cdcda7d15d90121035a13abc2c85085fa6943a2541d09d38510826472445a5bd8d471a308b8d8fd4c0247304402202665ab7cb8562cae3e26e6dc7ec6ef51ea5bfb2eeaf37358336b56651d4e57e202207a6ed78b3ff51fa89be0c3051346cbb71bb34395f54af5394c6d9b0d02d11de90121035a13abc2c85085fa6943a2541d09d38510826472445a5bd8d471a308b8d8fd4c0247304402200a5addd24b62f6812c0db6b15ace54e6282c7630e7ebf3ddfa1d9dc7eac95ac802202b0344e8a962b82e31886960e8f4f57ed883f7e067ad8e10dff5574f36d18ce601210384c05ec1bb39dfb835555fb46130a04c4a905655be82f3ba49bd2fd19851b3b40247304402207fa0efe33fbaed6a22db0230d34e676036d07fd5faa898c4abec8b3ead713e3702204c80037ae7209a5b79467cf292e937ae4c8a961c88635f7496a252114d82ee330121025e4be5c4c598fc5369d4c8bc1009573af8120c1432bbdc89021cd7790a1b3394024730440220186ff8c426e5aec76f983598debe7165db9c665ca9a94114a4ff41abc0baf66b02206b4ef86b2f97cb1a3c8e426d5857385a5280e7caec117ac9b927b224dd6f3ef60121025e4be5c4c598fc5369d4c8bc1009573af8120c1432bbdc89021cd7790a1b3394024730440220305ad3ba22fefc574b4871e12c919149b9bec7dea6aeba4c3a639550939b442902203948c126c61e5ba0cbc97450252c200db95f146a72efbe509d6c1f7ae54deb030121025e4be5c4c598fc5369d4c8bc1009573af8120c1432bbdc89021cd7790a1b339400000000", "vin": [{"txinwitness": ["3045022100a04615c0233efbdeba9d080e7c94a428d9d66e276c90729937ebb933c6f69ae102201b042040e21b23d064215d9971cd27fd0ac105d8f3d60f42d5f60cdcda7d15d901", "035a13abc2c85085fa6943a2541d09d38510826472445a5bd8d471a308b8d8fd4c"], "sequence": 4294967295, "scriptSig": {"hex": "160014315c6db3d432fdc6d195850732be3be7124c56fd", "asm": "0014315c6db3d432fdc6d195850732be3be7124c56fd"}, "vout": 0, "txid": "8b666183fa21e4afdac10e69e83f9c97a753b6ccf4698c179f2e85385cb7d909"}, {"txinwitness": ["304402202665ab7cb8562cae3e26e6dc7ec6ef51ea5bfb2eeaf37358336b56651d4e57e202207a6ed78b3ff51fa89be0c3051346cbb71bb34395f54af5394c6d9b0d02d11de901", "035a13abc2c85085fa6943a2541d09d38510826472445a5bd8d471a308b8d8fd4c"], "sequence": 4294967295, "scriptSig": {"hex": "160014315c6db3d432fdc6d195850732be3be7124c56fd", "asm": "0014315c6db3d432fdc6d195850732be3be7124c56fd"}, "vout": 0, "txid": "c6730b8e17ef5c168100f180775bb353a570b336dc5b75137e3efdc0a689f6c3"}, {"txinwitness": ["304402200a5addd24b62f6812c0db6b15ace54e6282c7630e7ebf3ddfa1d9dc7eac95ac802202b0344e8a962b82e31886960e8f4f57ed883f7e067ad8e10dff5574f36d18ce601", "0384c05ec1bb39dfb835555fb46130a04c4a905655be82f3ba49bd2fd19851b3b4"], "sequence": 4294967295, "scriptSig": {"hex": "160014d9c55f647fa64efba873e45a30f60475430f0c73", "asm": "0014d9c55f647fa64efba873e45a30f60475430f0c73"}, "vout": 1, "txid": "b3696f300b1986191eec94ee3f9342994b18c8f25fabf65be8fe09670751945e"}, {"txinwitness": ["304402207fa0efe33fbaed6a22db0230d34e676036d07fd5faa898c4abec8b3ead713e3702204c80037ae7209a5b79467cf292e937ae4c8a961c88635f7496a252114d82ee3301", "025e4be5c4c598fc5369d4c8bc1009573af8120c1432bbdc89021cd7790a1b3394"], "sequence": 4294967295, "scriptSig": {"hex": "1600141ea7c96e2f850383489d3e20275de2221aaa4a27", "asm": "00141ea7c96e2f850383489d3e20275de2221aaa4a27"}, "vout": 1, "txid": "d7439c5e87b2b24b7c87455b55b03e42fd3c10605ecbf02df3bc3e175822eb27"}, {"txinwitness": ["30440220186ff8c426e5aec76f983598debe7165db9c665ca9a94114a4ff41abc0baf66b02206b4ef86b2f97cb1a3c8e426d5857385a5280e7caec117ac9b927b224dd6f3ef601", "025e4be5c4c598fc5369d4c8bc1009573af8120c1432bbdc89021cd7790a1b3394"], "sequence": 4294967295, "scriptSig": {"hex": "1600141ea7c96e2f850383489d3e20275de2221aaa4a27", "asm": "00141ea7c96e2f850383489d3e20275de2221aaa4a27"}, "vout": 0, "txid": "a6b2e9f4b141b3504b98990c13c1f1a0c7ee5aeeeb30f537c7f898b3c5667d0f"}, {"txinwitness": ["30440220305ad3ba22fefc574b4871e12c919149b9bec7dea6aeba4c3a639550939b442902203948c126c61e5ba0cbc97450252c200db95f146a72efbe509d6c1f7ae54deb0301", "025e4be5c4c598fc5369d4c8bc1009573af8120c1432bbdc89021cd7790a1b3394"], "sequence": 4294967295, "scriptSig": {"hex": "1600141ea7c96e2f850383489d3e20275de2221aaa4a27", "asm": "00141ea7c96e2f850383489d3e20275de2221aaa4a27"}, "vout": 1, "txid": "e026d71bf3a32e85cf8ffa706314453ed2f085c5036900a6ab515abbf9abf238"}], "txid": "55e5a01e45ebdf4428fb3c23198a130f92bd2296c428f681383b45f204f38411", "blocktime": 1537870268, "version": 1, "confirmations": 11518, "time": 1537870268, "locktime": 0, "vsize": 620, "size": 1103}