{"hash": "6abb4a2918895d4115fe9a7fdb7f2e6f273df0035e5905c33f62960afc67da04", "blockhash": "000000000000000000022b45ed06c6f4ccd3cf7fb5ba4856ebd2e58215665228", "vout": [{"scriptPubKey": {"reqSigs": 1, "hex": "a914d5bedd3758a9c05e003d6cdfa98313887f90ed7e87", "addresses": ["3MBCVsjhyWZJG5CcfSkg7C1d7djUiKoqhc"], "asm": "OP_HASH160 d5bedd3758a9c05e003d6cdfa98313887f90ed7e OP_EQUAL", "type": "scripthash"}, "value": 0.00463074, "n": 0}], "hex": "01000000000101538c8a44de78cf22d253f3d978482cc09e3710583849a770362bb42d03675b560000000017160014ff03f9c02880f96dc014624352abaf556cc88f29ffffffff01e21007000000000017a914d5bedd3758a9c05e003d6cdfa98313887f90ed7e870247304402201ca61a887038f4c21c10125dce340953853da9615d28816ea26299ce75620a540220540653fff7fed0bd46fabea85fa17340beec0a7788ddef0b5ab205a94bcf9b7c0121031aed2e575a2c74d1607e3fbbce12636ea537bb5c8e1196073092f39a1c15d37100000000", "vin": [{"txinwitness": ["304402201ca61a887038f4c21c10125dce340953853da9615d28816ea26299ce75620a540220540653fff7fed0bd46fabea85fa17340beec0a7788ddef0b5ab205a94bcf9b7c01", "031aed2e575a2c74d1607e3fbbce12636ea537bb5c8e1196073092f39a1c15d371"], "sequence": 4294967295, "scriptSig": {"hex": "160014ff03f9c02880f96dc014624352abaf556cc88f29", "asm": "0014ff03f9c02880f96dc014624352abaf556cc88f29"}, "vout": 0, "txid": "565b67032db42b3670a749385810379ec02c4878d9f353d222cf78de448a8c53"}], "txid": "55e57698d969945452949d91f98c248c11d8b2c68586fc21dbfe9f949d37065c", "blocktime": 1537869901, "version": 1, "confirmations": 11523, "time": 1537869901, "locktime": 0, "vsize": 134, "size": 215}