{"hash": "55e8bb36df3f874f4916390cea6fb6b6da135ae198542d6ec928273a8907856b", "blockhash": "00000000000000000024a2167bbff67b0be802c0b01cdd79e6331c2be6459f87", "vout": [{"scriptPubKey": {"reqSigs": 1, "hex": "76a9149d0f52e7d713001c522fba5530a9b86a506fd8f188ac", "addresses": ["1FKTSqZAMAT9TuPNDvqda4V2jE4Uv3LFot"], "asm": "OP_DUP OP_HASH160 9d0f52e7d713001c522fba5530a9b86a506fd8f1 OP_EQUALVERIFY OP_CHECKSIG", "type": "pubkeyhash"}, "value": 0.00052118, "n": 0}, {"scriptPubKey": {"reqSigs": 1, "hex": "76a914f1c328289864ead4733be8ea6940261a852b429c88ac", "addresses": ["1P3Kdy9pGdxWcewermchcFZaFedmjJ14qG"], "asm": "OP_DUP OP_HASH160 f1c328289864ead4733be8ea6940261a852b429c OP_EQUALVERIFY OP_CHECKSIG", "type": "pubkeyhash"}, "value": 0.012, "n": 1}], "hex": "0100000001a361462f7aa780f4044c0288e4f7e418432fbe93e76d98394f5016f4e0573973010000006b483045022100cc45a0f348ab5e3e8d135966ab087a3bc91b4e2f85204a6169372dfc699df27c02204ed648edb8cec03ad97b392fb436f3c0844e1db27f9806f5e84095e12b92e26a012103ac912a8db4ceeaabbb1baa2d67296fa0431e463a48f5cba80f07b7ff9457a655ffffffff0296cb0000000000001976a9149d0f52e7d713001c522fba5530a9b86a506fd8f188ac804f1200000000001976a914f1c328289864ead4733be8ea6940261a852b429c88ac00000000", "vin": [{"sequence": 4294967295, "scriptSig": {"hex": "483045022100cc45a0f348ab5e3e8d135966ab087a3bc91b4e2f85204a6169372dfc699df27c02204ed648edb8cec03ad97b392fb436f3c0844e1db27f9806f5e84095e12b92e26a012103ac912a8db4ceeaabbb1baa2d67296fa0431e463a48f5cba80f07b7ff9457a655", "asm": "3045022100cc45a0f348ab5e3e8d135966ab087a3bc91b4e2f85204a6169372dfc699df27c02204ed648edb8cec03ad97b392fb436f3c0844e1db27f9806f5e84095e12b92e26a[ALL] 03ac912a8db4ceeaabbb1baa2d67296fa0431e463a48f5cba80f07b7ff9457a655"}, "vout": 1, "txid": "733957e0f416504f39986de793be2f4318e4f7e488024c04f480a77a2f4661a3"}], "txid": "55e8bb36df3f874f4916390cea6fb6b6da135ae198542d6ec928273a8907856b", "blocktime": 1537870564, "version": 1, "confirmations": 11515, "time": 1537870564, "locktime": 0, "vsize": 226, "size": 226}