{"hash": "8b50fc26c60ad3136c8c90465d313cc68605e0c38718b6da8097674ffedf5086", "blockhash": "0000000000000000000baef3f32e3676a92c3b2e5da21b426e4f302fc371ce76", "vout": [{"scriptPubKey": {"reqSigs": 1, "hex": "a914f5ffe191dbdc96d48894997b3413d780bdb2739287", "addresses": ["3Q7k1UVwDYbmvgbjnAMSgigjLtPZw4hvey"], "asm": "OP_HASH160 f5ffe191dbdc96d48894997b3413d780bdb27392 OP_EQUAL", "type": "scripthash"}, "value": 0.000396, "n": 0}, {"scriptPubKey": {"reqSigs": 1, "hex": "a91408c364340a91e77e4376b26fdad3b5aedc5661f787", "addresses": ["32VMQ7Th4qGhbDYY68FZrfSF9hTbsPivgt"], "asm": "OP_HASH160 08c364340a91e77e4376b26fdad3b5aedc5661f7 OP_EQUAL", "type": "scripthash"}, "value": 0.01969539, "n": 1}], "hex": "01000000000101a97545c98189268eed74bb41a085c3106585f7f34c8d23a6700da53dbea0c532010000002322002027561ef61439ff4994ea3793249bbb358319edb59fff63c1eeada48f299e81b5ffffffff02b09a00000000000017a914f5ffe191dbdc96d48894997b3413d780bdb2739287830d1e000000000017a91408c364340a91e77e4376b26fdad3b5aedc5661f787040047304402203a1007a7654f6126ad9cf6f01b86432d059126cfbb3574132383488fc293634902207371f5d8846c250013d31e2b4e0bccfaa40c68104a35587ec401fb1114a8220501473044022003c6092c5c98dac6f5391ff5f9ba534e12aee8c8f1b667d26f5677f22c611c27022007929c3e07c6828e2e4e4f416a10dc799d99a6e82844cb30f23a2918705779750147522102f484437eae67e7d1f9cf7235bd52510c99f379408a1f6fe737011d4bc259358a2103871fc2ca08e6950b38867e8e6a0e94ee625223d3aa0df5c65f414c6d784467e252ae00000000", "vin": [{"txinwitness": ["", "304402203a1007a7654f6126ad9cf6f01b86432d059126cfbb3574132383488fc293634902207371f5d8846c250013d31e2b4e0bccfaa40c68104a35587ec401fb1114a8220501", "3044022003c6092c5c98dac6f5391ff5f9ba534e12aee8c8f1b667d26f5677f22c611c27022007929c3e07c6828e2e4e4f416a10dc799d99a6e82844cb30f23a29187057797501", "522102f484437eae67e7d1f9cf7235bd52510c99f379408a1f6fe737011d4bc259358a2103871fc2ca08e6950b38867e8e6a0e94ee625223d3aa0df5c65f414c6d784467e252ae"], "sequence": 4294967295, "scriptSig": {"hex": "22002027561ef61439ff4994ea3793249bbb358319edb59fff63c1eeada48f299e81b5", "asm": "002027561ef61439ff4994ea3793249bbb358319edb59fff63c1eeada48f299e81b5"}, "vout": 1, "txid": "32c5a0be3da50d70a6238d4cf3f7856510c385a041bb74ed8e268981c94575a9"}], "txid": "55e95295a732477ba587a33a3d83be19a39bdec4e60cef2142fb44273ac45431", "blocktime": 1537876114, "version": 1, "confirmations": 11460, "time": 1537876114, "locktime": 0, "vsize": 205, "size": 370}