{"hash": "55ea7c06482a17d8bf6e4d598351dfdad44d06b7f9c12f8386ff85c590b221cf", "blockhash": "00000000000000000004ffacab907a6b429b9a5745fa0b75af4234bf69dd7176", "vout": [{"scriptPubKey": {"reqSigs": 1, "hex": "76a914c622d6e65b22aeb2dbc3dc5c07fecc7aa5d27a1388ac", "addresses": ["1K4eXfrwNTauuLJ4Nr4VeXq7wo9SwcukJC"], "asm": "OP_DUP OP_HASH160 c622d6e65b22aeb2dbc3dc5c07fecc7aa5d27a13 OP_EQUALVERIFY OP_CHECKSIG", "type": "pubkeyhash"}, "value": 0.00082464, "n": 0}, {"scriptPubKey": {"reqSigs": 1, "hex": "76a914d1e0bc22a927b5162eb716fb0699e4039c84265088ac", "addresses": ["1L8jSwx9DSeZu6ceWQyHgcDw9vUHFo6npA"], "asm": "OP_DUP OP_HASH160 d1e0bc22a927b5162eb716fb0699e4039c842650 OP_EQUALVERIFY OP_CHECKSIG", "type": "pubkeyhash"}, "value": 0.01562493, "n": 1}], "hex": "01000000012db4de9962b5051be4451684c2c679cf2fde9e75bc9e4047a0a3741216e4699c010000006b483045022100acd7a1584a1c8f42f53f73a6b185c99e7a2340486ea01c5b63fb2e15f4b1067402202a8be80dbbd1ccec89e82474958cbcd35686b42bd0c8534470e4264ba316999d0121031cad461d7a1fd5c500ff37af8550b657a65a9ae2070cafb774f8945b9b0f169dffffffff0220420100000000001976a914c622d6e65b22aeb2dbc3dc5c07fecc7aa5d27a1388ac7dd71700000000001976a914d1e0bc22a927b5162eb716fb0699e4039c84265088ac00000000", "vin": [{"sequence": 4294967295, "scriptSig": {"hex": "483045022100acd7a1584a1c8f42f53f73a6b185c99e7a2340486ea01c5b63fb2e15f4b1067402202a8be80dbbd1ccec89e82474958cbcd35686b42bd0c8534470e4264ba316999d0121031cad461d7a1fd5c500ff37af8550b657a65a9ae2070cafb774f8945b9b0f169d", "asm": "3045022100acd7a1584a1c8f42f53f73a6b185c99e7a2340486ea01c5b63fb2e15f4b1067402202a8be80dbbd1ccec89e82474958cbcd35686b42bd0c8534470e4264ba316999d[ALL] 031cad461d7a1fd5c500ff37af8550b657a65a9ae2070cafb774f8945b9b0f169d"}, "vout": 1, "txid": "9c69e4161274a3a047409ebc759ede2fcf79c6c2841645e41b05b56299deb42d"}], "txid": "55ea7c06482a17d8bf6e4d598351dfdad44d06b7f9c12f8386ff85c590b221cf", "blocktime": 1537875543, "version": 1, "confirmations": 11464, "time": 1537875543, "locktime": 0, "vsize": 226, "size": 226}