{"hash": "55ec97cea39ae36cbb3387517744b3bc62f3bc743cb0cf36ba36342ad3421b9d", "blockhash": "000000000000000000022b45ed06c6f4ccd3cf7fb5ba4856ebd2e58215665228", "vout": [{"scriptPubKey": {"reqSigs": 1, "hex": "a9148fa9e6dcf0cb802fde3fcfcc9efe0c5cd548319287", "addresses": ["3Ene5xe9Eex6a2nQz3R5ZPRSfgcnQfctSV"], "asm": "OP_HASH160 8fa9e6dcf0cb802fde3fcfcc9efe0c5cd5483192 OP_EQUAL", "type": "scripthash"}, "value": 0.001607, "n": 0}], "hex": "010000000bc18a0db65bd0dfd11ced01f4fab3fd54239a4565d67ba3826281608304c80553000000006a47304402206c0f41f6199263000d42aa0b983a9c6645ce3b1e7e4f990f52435349db0131df022040a8fb52c1db4d5e4ead23017837120cda398a22c012c586f142168bea0a277d0121030fb9ae49f614a00a19e04c167e30696b5b04051001c5e687c30bc22c330f8948ffffffff0901da7ec3963c6c5ac99c8ad06a2b97f4717d1fd67fd45bf894aec4bc839b59000000006b483045022100e00c358aee4229e19aed4bb24c22432c92268c84008c476a588c96fe21e17bcc02205fc9f709a62ffeeb030f3d83e9055ab9844178e165d82441a5a59a327cf63d270121036b956a73dd9880ac7ffc18f185792127ac196e0999e38e9201e5b21a782ecb6effffffff8783019d508064cc49a5a6ccd64364927f305e7d9635a3bd5483e1619f9fdb89000000006b483045022100c88175d55d5625b68bb286a66a9e9dad017996734d6a3808ead091cdae9b1ce20220566f30a44eb3123056c5c411661a5ae2163c8bfd07479dad0d07f8a266d2f192012103583becb8024f3aa47e786ee201954f0a2b4a6ed6782da877746da0204eeedab9ffffffff4e2bf6f2433bc17427e509d704f43380c67966f0842396869361fa3557fe808a000000006a4730440220580d68779fce308c501ca449fbd214571d8103ebf38291f400834c89dcc056a202201091106a4d8bb53a8514e46948a14c8e5590ce826289b46a899cb4a263987f43012102f09dfec8416bcab7fad39059c3d059a2cbe6a4e4f246a825186f8ef09d062d05ffffffff45df84f0d9bd976577773c8fbb04cb4ee14657c4ab8998f875ab066963841c93010000006b483045022100c602cddd053b0b2e563cd5d319400ea644595b74c118bab6f2ec4f5d1d0a93af0220506d9dbeec17e0591b64ec977b6d3b76d17b2ec69db214456c82ecc858dd30830121022463c95681470cb2a109fa4aa7c1747dbb610dcfc1b856e928f0751ba8a0887dffffffff484f69ba28c4044e4309c0fa46ff7e085bbb7681425ec608f70a965d71594a94000000006a47304402203ab955869a6ccda17f3c684115b5b8a6c8687e0d88263d5198b6b03ad949d004022044a63da7de3b14c1765a7235f27855baad0ff9f53dc0105ad82b1a17a0b3a585012103d65304170d19f6c0a1c6aa67d68cfd1816259852a2db0a2fb05bf6fc26138b69ffffffffd853ec61c885e0c6220bdd9c74a694e635cdf0445e908bb15b034caa80e7c1b7000000006b483045022100acc9a05319347919e1e8a253ecc12522428214a8b0fe201e5b6a83df9d3cec8d022030386e2b274f2b46c7ddf30eae423d52893ae409390fe86ef82953a4003bb3400121027c63d504a49aa2de6d32b14982953769b3018e68e2a0d38636839d5b6ccd7077fffffffff50c8d81d65798526832570255471a3cf8b88d8a53a60c3aa6f4e3da79d929bb000000006a47304402206bc09b5ba949c50a83550cd7943693bbff9f97676a70a9363bd47e7e3b02584b02203ecd28ab404a9c6872f2a6cb36be9b6f6946398e7235b78008847d06a19fd87f012103b3dcfa6ce0a9a58690d521f11dfbd9fc2cb4aee067c08e757497e25b78457984ffffffff4364583b0c30f084c759cb25849f1c0b32992264da8c9f1e4b3f72fb4dc42cd1000000006b483045022100c9096b34365928a3ca0647f5e03350a1db57129c1b3cde96c0a2e5c8fbb7bb970220113188fd185cec2dfa05b4b5f71352580bddb0185b64452d0aee29db1631a5d1012103583becb8024f3aa47e786ee201954f0a2b4a6ed6782da877746da0204eeedab9ffffffff96de87b48ab1a8b6b76dd7e1ac4d1169609e55f282e90ebd1887139d7c2930d5000000006a47304402201b93ee0fdaa78ae625744fd393a8816f42884c888541ff27ccb7a00d0fe7e30d02201e8b4c0a4651e2b3114ac26acf7d0fba3467d1fe86f87b08df5a6738fd18b54d012103583becb8024f3aa47e786ee201954f0a2b4a6ed6782da877746da0204eeedab9ffffffffc1432b80f7af300f896652ff07ce309dff4c017b4062d99e3eb8b4a2f084dbe9000000006b483045022100b41d65bc7703b72dce4a497cd3b2f5f17ddab20c5b7baa65774568a5ab571b7802200d944ba8b41b530b0b53edbed08c54d7924536e4f5a8562b964fb8cb1a0cb7aa012103dce3db87209149bfd87f704d8d318552035d21c0363fbbb5e2e3ed6cca7e6e80ffffffff01bc7302000000000017a9148fa9e6dcf0cb802fde3fcfcc9efe0c5cd54831928700000000", "vin": [{"sequence": 4294967295, "scriptSig": {"hex": "47304402206c0f41f6199263000d42aa0b983a9c6645ce3b1e7e4f990f52435349db0131df022040a8fb52c1db4d5e4ead23017837120cda398a22c012c586f142168bea0a277d0121030fb9ae49f614a00a19e04c167e30696b5b04051001c5e687c30bc22c330f8948", "asm": "304402206c0f41f6199263000d42aa0b983a9c6645ce3b1e7e4f990f52435349db0131df022040a8fb52c1db4d5e4ead23017837120cda398a22c012c586f142168bea0a277d[ALL] 030fb9ae49f614a00a19e04c167e30696b5b04051001c5e687c30bc22c330f8948"}, "vout": 0, "txid": "5305c8048360816282a37bd665459a2354fdb3faf401ed1cd1dfd05bb60d8ac1"}, {"sequence": 4294967295, "scriptSig": {"hex": "483045022100e00c358aee4229e19aed4bb24c22432c92268c84008c476a588c96fe21e17bcc02205fc9f709a62ffeeb030f3d83e9055ab9844178e165d82441a5a59a327cf63d270121036b956a73dd9880ac7ffc18f185792127ac196e0999e38e9201e5b21a782ecb6e", "asm": "3045022100e00c358aee4229e19aed4bb24c22432c92268c84008c476a588c96fe21e17bcc02205fc9f709a62ffeeb030f3d83e9055ab9844178e165d82441a5a59a327cf63d27[ALL] 036b956a73dd9880ac7ffc18f185792127ac196e0999e38e9201e5b21a782ecb6e"}, "vout": 0, "txid": "599b83bcc4ae94f85bd47fd61f7d71f4972b6ad08a9cc95a6c3c96c37eda0109"}, {"sequence": 4294967295, "scriptSig": {"hex": "483045022100c88175d55d5625b68bb286a66a9e9dad017996734d6a3808ead091cdae9b1ce20220566f30a44eb3123056c5c411661a5ae2163c8bfd07479dad0d07f8a266d2f192012103583becb8024f3aa47e786ee201954f0a2b4a6ed6782da877746da0204eeedab9", "asm": "3045022100c88175d55d5625b68bb286a66a9e9dad017996734d6a3808ead091cdae9b1ce20220566f30a44eb3123056c5c411661a5ae2163c8bfd07479dad0d07f8a266d2f192[ALL] 03583becb8024f3aa47e786ee201954f0a2b4a6ed6782da877746da0204eeedab9"}, "vout": 0, "txid": "89db9f9f61e18354bda335967d5e307f926443d6cca6a549cc6480509d018387"}, {"sequence": 4294967295, "scriptSig": {"hex": "4730440220580d68779fce308c501ca449fbd214571d8103ebf38291f400834c89dcc056a202201091106a4d8bb53a8514e46948a14c8e5590ce826289b46a899cb4a263987f43012102f09dfec8416bcab7fad39059c3d059a2cbe6a4e4f246a825186f8ef09d062d05", "asm": "30440220580d68779fce308c501ca449fbd214571d8103ebf38291f400834c89dcc056a202201091106a4d8bb53a8514e46948a14c8e5590ce826289b46a899cb4a263987f43[ALL] 02f09dfec8416bcab7fad39059c3d059a2cbe6a4e4f246a825186f8ef09d062d05"}, "vout": 0, "txid": "8a80fe5735fa619386962384f06679c68033f404d709e52774c13b43f2f62b4e"}, {"sequence": 4294967295, "scriptSig": {"hex": "483045022100c602cddd053b0b2e563cd5d319400ea644595b74c118bab6f2ec4f5d1d0a93af0220506d9dbeec17e0591b64ec977b6d3b76d17b2ec69db214456c82ecc858dd30830121022463c95681470cb2a109fa4aa7c1747dbb610dcfc1b856e928f0751ba8a0887d", "asm": "3045022100c602cddd053b0b2e563cd5d319400ea644595b74c118bab6f2ec4f5d1d0a93af0220506d9dbeec17e0591b64ec977b6d3b76d17b2ec69db214456c82ecc858dd3083[ALL] 022463c95681470cb2a109fa4aa7c1747dbb610dcfc1b856e928f0751ba8a0887d"}, "vout": 1, "txid": "931c84636906ab75f89889abc45746e14ecb04bb8f3c77776597bdd9f084df45"}, {"sequence": 4294967295, "scriptSig": {"hex": "47304402203ab955869a6ccda17f3c684115b5b8a6c8687e0d88263d5198b6b03ad949d004022044a63da7de3b14c1765a7235f27855baad0ff9f53dc0105ad82b1a17a0b3a585012103d65304170d19f6c0a1c6aa67d68cfd1816259852a2db0a2fb05bf6fc26138b69", "asm": "304402203ab955869a6ccda17f3c684115b5b8a6c8687e0d88263d5198b6b03ad949d004022044a63da7de3b14c1765a7235f27855baad0ff9f53dc0105ad82b1a17a0b3a585[ALL] 03d65304170d19f6c0a1c6aa67d68cfd1816259852a2db0a2fb05bf6fc26138b69"}, "vout": 0, "txid": "944a59715d960af708c65e428176bb5b087eff46fac009434e04c428ba694f48"}, {"sequence": 4294967295, "scriptSig": {"hex": "483045022100acc9a05319347919e1e8a253ecc12522428214a8b0fe201e5b6a83df9d3cec8d022030386e2b274f2b46c7ddf30eae423d52893ae409390fe86ef82953a4003bb3400121027c63d504a49aa2de6d32b14982953769b3018e68e2a0d38636839d5b6ccd7077", "asm": "3045022100acc9a05319347919e1e8a253ecc12522428214a8b0fe201e5b6a83df9d3cec8d022030386e2b274f2b46c7ddf30eae423d52893ae409390fe86ef82953a4003bb340[ALL] 027c63d504a49aa2de6d32b14982953769b3018e68e2a0d38636839d5b6ccd7077"}, "vout": 0, "txid": "b7c1e780aa4c035bb18b905e44f0cd35e694a6749cdd0b22c6e085c861ec53d8"}, {"sequence": 4294967295, "scriptSig": {"hex": "47304402206bc09b5ba949c50a83550cd7943693bbff9f97676a70a9363bd47e7e3b02584b02203ecd28ab404a9c6872f2a6cb36be9b6f6946398e7235b78008847d06a19fd87f012103b3dcfa6ce0a9a58690d521f11dfbd9fc2cb4aee067c08e757497e25b78457984", "asm": "304402206bc09b5ba949c50a83550cd7943693bbff9f97676a70a9363bd47e7e3b02584b02203ecd28ab404a9c6872f2a6cb36be9b6f6946398e7235b78008847d06a19fd87f[ALL] 03b3dcfa6ce0a9a58690d521f11dfbd9fc2cb4aee067c08e757497e25b78457984"}, "vout": 0, "txid": "bb29d979dae3f4a63a0ca6538a8db8f83c1a475502573268529857d6818d0cf5"}, {"sequence": 4294967295, "scriptSig": {"hex": "483045022100c9096b34365928a3ca0647f5e03350a1db57129c1b3cde96c0a2e5c8fbb7bb970220113188fd185cec2dfa05b4b5f71352580bddb0185b64452d0aee29db1631a5d1012103583becb8024f3aa47e786ee201954f0a2b4a6ed6782da877746da0204eeedab9", "asm": "3045022100c9096b34365928a3ca0647f5e03350a1db57129c1b3cde96c0a2e5c8fbb7bb970220113188fd185cec2dfa05b4b5f71352580bddb0185b64452d0aee29db1631a5d1[ALL] 03583becb8024f3aa47e786ee201954f0a2b4a6ed6782da877746da0204eeedab9"}, "vout": 0, "txid": "d12cc44dfb723f4b1e9f8cda642299320b1c9f8425cb59c784f0300c3b586443"}, {"sequence": 4294967295, "scriptSig": {"hex": "47304402201b93ee0fdaa78ae625744fd393a8816f42884c888541ff27ccb7a00d0fe7e30d02201e8b4c0a4651e2b3114ac26acf7d0fba3467d1fe86f87b08df5a6738fd18b54d012103583becb8024f3aa47e786ee201954f0a2b4a6ed6782da877746da0204eeedab9", "asm": "304402201b93ee0fdaa78ae625744fd393a8816f42884c888541ff27ccb7a00d0fe7e30d02201e8b4c0a4651e2b3114ac26acf7d0fba3467d1fe86f87b08df5a6738fd18b54d[ALL] 03583becb8024f3aa47e786ee201954f0a2b4a6ed6782da877746da0204eeedab9"}, "vout": 0, "txid": "d530297c9d138718bd0ee982f2559e6069114dace1d76db7b6a8b18ab487de96"}, {"sequence": 4294967295, "scriptSig": {"hex": "483045022100b41d65bc7703b72dce4a497cd3b2f5f17ddab20c5b7baa65774568a5ab571b7802200d944ba8b41b530b0b53edbed08c54d7924536e4f5a8562b964fb8cb1a0cb7aa012103dce3db87209149bfd87f704d8d318552035d21c0363fbbb5e2e3ed6cca7e6e80", "asm": "3045022100b41d65bc7703b72dce4a497cd3b2f5f17ddab20c5b7baa65774568a5ab571b7802200d944ba8b41b530b0b53edbed08c54d7924536e4f5a8562b964fb8cb1a0cb7aa[ALL] 03dce3db87209149bfd87f704d8d318552035d21c0363fbbb5e2e3ed6cca7e6e80"}, "vout": 0, "txid": "e9db84f0a2b4b83e9ed962407b014cff9d30ce07ff5266890f30aff7802b43c1"}], "txid": "55ec97cea39ae36cbb3387517744b3bc62f3bc743cb0cf36ba36342ad3421b9d", "blocktime": 1537869901, "version": 1, "confirmations": 11524, "time": 1537869901, "locktime": 0, "vsize": 1665, "size": 1665}