{"hash": "55efffb49a245935e12e45f8f10b783824cb755000e74c924590151640d8caad", "blockhash": "0000000000000000001f76057863aec43deb6fa401d9628bb513d65a8098bfab", "vout": [{"scriptPubKey": {"reqSigs": 1, "hex": "76a914115b6a6d4015189c9cf9d80d76a1e17ac929e45588ac", "addresses": ["12amzwNGccaQE1NM4ZX3MhBJzek81gpHnV"], "asm": "OP_DUP OP_HASH160 115b6a6d4015189c9cf9d80d76a1e17ac929e455 OP_EQUALVERIFY OP_CHECKSIG", "type": "pubkeyhash"}, "value": 0.45475182, "n": 0}, {"scriptPubKey": {"reqSigs": 1, "hex": "76a914ce213f53487609b6a95b9a4dec164ed4534dd3b788ac", "addresses": ["1Knv2au6tSHPTw5ouZD9t898MNUYdH8gE7"], "asm": "OP_DUP OP_HASH160 ce213f53487609b6a95b9a4dec164ed4534dd3b7 OP_EQUALVERIFY OP_CHECKSIG", "type": "pubkeyhash"}, "value": 0.00242876, "n": 1}, {"scriptPubKey": {"reqSigs": 1, "hex": "76a914d733a750a16cb73eea6f4a7d70edf9494fdc6dd788ac", "addresses": ["1LctACQzDVNSiJUgc2uDfQ9nTRnNibXzBS"], "asm": "OP_DUP OP_HASH160 d733a750a16cb73eea6f4a7d70edf9494fdc6dd7 OP_EQUALVERIFY OP_CHECKSIG", "type": "pubkeyhash"}, "value": 0.00093005, "n": 2}, {"scriptPubKey": {"reqSigs": 1, "hex": "a9144d659891581a19c79fac466f7fd3bcb1fd4147db87", "addresses": ["38kFfKstkA3gFrCwyLVyjU21vvdzD9Z2Y3"], "asm": "OP_HASH160 4d659891581a19c79fac466f7fd3bcb1fd4147db OP_EQUAL", "type": "scripthash"}, "value": 0.00549635, "n": 3}], "hex": "02000000012eb90f56558c1956cfa790e94029cf6b3c2819006ea15e7c9484a23fb98a19e1060000006b483045022100ab47cced89b1c3e8d6e3122eb9af61ec7452b8aabb84fe8022951aa24fde9ea00220727feb7635405ded16d7460b6a27669684d0d493978cb0908ddc4ced324ddb57012103b49be99861a11e6ed30305eac6364bb0b22342024a60f3231e51c4ce7fe97342feffffff046ee5b502000000001976a914115b6a6d4015189c9cf9d80d76a1e17ac929e45588acbcb40300000000001976a914ce213f53487609b6a95b9a4dec164ed4534dd3b788ac4d6b0100000000001976a914d733a750a16cb73eea6f4a7d70edf9494fdc6dd788ac036308000000000017a9144d659891581a19c79fac466f7fd3bcb1fd4147db8714490800", "vin": [{"sequence": 4294967294, "scriptSig": {"hex": "483045022100ab47cced89b1c3e8d6e3122eb9af61ec7452b8aabb84fe8022951aa24fde9ea00220727feb7635405ded16d7460b6a27669684d0d493978cb0908ddc4ced324ddb57012103b49be99861a11e6ed30305eac6364bb0b22342024a60f3231e51c4ce7fe97342", "asm": "3045022100ab47cced89b1c3e8d6e3122eb9af61ec7452b8aabb84fe8022951aa24fde9ea00220727feb7635405ded16d7460b6a27669684d0d493978cb0908ddc4ced324ddb57[ALL] 03b49be99861a11e6ed30305eac6364bb0b22342024a60f3231e51c4ce7fe97342"}, "vout": 6, "txid": "e1198ab93fa284947c5ea16e0019283c6bcf2940e990a7cf56198c55560fb92e"}], "txid": "55efffb49a245935e12e45f8f10b783824cb755000e74c924590151640d8caad", "blocktime": 1537873891, "version": 2, "confirmations": 11474, "time": 1537873891, "locktime": 542996, "vsize": 292, "size": 292}