{"hash": "55f0b92c62f894b095745520cb08444d3ea0c73c67c8db854c2177d16a376b67", "blockhash": "00000000000000000017f5eb5941039fbcee6240d03bc1f2f8e35350df66a1d8", "vout": [{"scriptPubKey": {"reqSigs": 1, "hex": "a9147436016235d7581a2789756de6081243d4ad069a87", "addresses": ["3CHV1A5isHMW1Reo2hYKYnottvGVsUxo98"], "asm": "OP_HASH160 7436016235d7581a2789756de6081243d4ad069a OP_EQUAL", "type": "scripthash"}, "value": 0.00609378, "n": 0}, {"scriptPubKey": {"reqSigs": 1, "hex": "76a9146814aa992c4781c2c0b4e8d1a6e6ecee916b6a2b88ac", "addresses": ["1AVL2ssCQ7YDQQXaxuaKpRNRhvu6nA6hp8"], "asm": "OP_DUP OP_HASH160 6814aa992c4781c2c0b4e8d1a6e6ecee916b6a2b OP_EQUALVERIFY OP_CHECKSIG", "type": "pubkeyhash"}, "value": 0.26199321, "n": 1}], "hex": "02000000017ad1462e17891e163a0ea3624c678eed93925a245ea4f4cabcc0b31d8a2d3039000000006b483045022100ebde5f33f51fd22ecf94ef677c2f212d11cceda0b54e71c1fe1bd882f15fbd9e02202113f229def91789d64f90ad99300eca338d678e30cb98eac5e50d46f466f8f701210370853bbf697c550a74d219b64388c7d5cd8583e9194be358afd25fec4a997db9ffffffff02624c09000000000017a9147436016235d7581a2789756de6081243d4ad069a8719c58f01000000001976a9146814aa992c4781c2c0b4e8d1a6e6ecee916b6a2b88ac00000000", "vin": [{"sequence": 4294967295, "scriptSig": {"hex": "483045022100ebde5f33f51fd22ecf94ef677c2f212d11cceda0b54e71c1fe1bd882f15fbd9e02202113f229def91789d64f90ad99300eca338d678e30cb98eac5e50d46f466f8f701210370853bbf697c550a74d219b64388c7d5cd8583e9194be358afd25fec4a997db9", "asm": "3045022100ebde5f33f51fd22ecf94ef677c2f212d11cceda0b54e71c1fe1bd882f15fbd9e02202113f229def91789d64f90ad99300eca338d678e30cb98eac5e50d46f466f8f7[ALL] 0370853bbf697c550a74d219b64388c7d5cd8583e9194be358afd25fec4a997db9"}, "vout": 0, "txid": "39302d8a1db3c0bccaf4a45e245a9293ed8e674c62a30e3a161e89172e46d17a"}], "txid": "55f0b92c62f894b095745520cb08444d3ea0c73c67c8db854c2177d16a376b67", "blocktime": 1537874412, "version": 2, "confirmations": 11467, "time": 1537874412, "locktime": 0, "vsize": 224, "size": 224}