{"hash": "55fb4ec5f10c03aaa5dceb9bb686fe750fcb317e103af78ec4e4041e805f6226", "blockhash": "0000000000000000001f76057863aec43deb6fa401d9628bb513d65a8098bfab", "vout": [{"scriptPubKey": {"reqSigs": 1, "hex": "a9141a6c6535ea90c52e6f9e01a34f966a776d6c4fdb87", "addresses": ["346jLyMz8A2ZeeqK9dNynZywxUFkxNw7bQ"], "asm": "OP_HASH160 1a6c6535ea90c52e6f9e01a34f966a776d6c4fdb OP_EQUAL", "type": "scripthash"}, "value": 1.0, "n": 0}, {"scriptPubKey": {"reqSigs": 1, "hex": "76a9141a8066cca8e81e362c3378bf99f8bdb9b14cf80188ac", "addresses": ["13R8PV6Z2ks7RfVpyv7cJjjy3D1PWPJi2D"], "asm": "OP_DUP OP_HASH160 1a8066cca8e81e362c3378bf99f8bdb9b14cf801 OP_EQUALVERIFY OP_CHECKSIG", "type": "pubkeyhash"}, "value": 1.03888496, "n": 1}], "hex": "010000000202beaefc10bfecc5d02949eaeb68afba6c2f0eebaa47c5384c3d2b03a99de10e010000006b483045022100d3a85e66a6801922711167f34258c688994c1c016ac21908dd04570711d7e3a9022062f85c288e6c5862a33f7b7e037f401aec17ee82759b70adb4660e7ab6e96df60121023225cbbb1a8c5f2b5e5c0ee265561955aa742d3194046a3e4ffa71d217eb6d6effffffff3327a324bded43449d9d634eb5b1c7d03ef829daefeb56fbc1c8b7d8c11f9fa2010000006b483045022100e4e7a480f07d435df08154c04feb3e490d62304215d42a2b50d221f06ca97c7802201e52489731b86282d91019621c8149d6134ddc96fef929358b703cea4aa9d9b60121030bb069499690e130645d311be3e8e551adeea906cb8cdf977420d8e07ffebdddffffffff0200e1f5050000000017a9141a6c6535ea90c52e6f9e01a34f966a776d6c4fdb8770363106000000001976a9141a8066cca8e81e362c3378bf99f8bdb9b14cf80188ac00000000", "vin": [{"sequence": 4294967295, "scriptSig": {"hex": "483045022100d3a85e66a6801922711167f34258c688994c1c016ac21908dd04570711d7e3a9022062f85c288e6c5862a33f7b7e037f401aec17ee82759b70adb4660e7ab6e96df60121023225cbbb1a8c5f2b5e5c0ee265561955aa742d3194046a3e4ffa71d217eb6d6e", "asm": "3045022100d3a85e66a6801922711167f34258c688994c1c016ac21908dd04570711d7e3a9022062f85c288e6c5862a33f7b7e037f401aec17ee82759b70adb4660e7ab6e96df6[ALL] 023225cbbb1a8c5f2b5e5c0ee265561955aa742d3194046a3e4ffa71d217eb6d6e"}, "vout": 1, "txid": "0ee19da9032b3d4c38c547aaeb0e2f6cbaaf68ebea4929d0c5ecbf10fcaebe02"}, {"sequence": 4294967295, "scriptSig": {"hex": "483045022100e4e7a480f07d435df08154c04feb3e490d62304215d42a2b50d221f06ca97c7802201e52489731b86282d91019621c8149d6134ddc96fef929358b703cea4aa9d9b60121030bb069499690e130645d311be3e8e551adeea906cb8cdf977420d8e07ffebddd", "asm": "3045022100e4e7a480f07d435df08154c04feb3e490d62304215d42a2b50d221f06ca97c7802201e52489731b86282d91019621c8149d6134ddc96fef929358b703cea4aa9d9b6[ALL] 030bb069499690e130645d311be3e8e551adeea906cb8cdf977420d8e07ffebddd"}, "vout": 1, "txid": "a29f1fc1d8b7c8c1fb56ebefda29f83ed0c7b1b54e639d9d4443edbd24a32733"}], "txid": "55fb4ec5f10c03aaa5dceb9bb686fe750fcb317e103af78ec4e4041e805f6226", "blocktime": 1537873891, "version": 1, "confirmations": 11475, "time": 1537873891, "locktime": 0, "vsize": 372, "size": 372}