{"hash": "5605eae586164e1b9c1034427c7e5a40f8c8da7328d1cd509b05900b8ed7feed", "blockhash": "00000000000000000018f53835495a110e01622372bf6ae95dc86f2b0ab887b0", "vout": [{"scriptPubKey": {"reqSigs": 1, "hex": "76a91420717de9a7aaaf0c780e273ee8ca14d474e6fa9488ac", "addresses": ["13xYah3DaFyu8aHULiew1Pi6KhMREaGk1p"], "asm": "OP_DUP OP_HASH160 20717de9a7aaaf0c780e273ee8ca14d474e6fa94 OP_EQUALVERIFY OP_CHECKSIG", "type": "pubkeyhash"}, "value": 0.0781, "n": 0}, {"scriptPubKey": {"reqSigs": 1, "hex": "76a914d5ba2eb2d52670fbe9522748bf642da754eb0d6f88ac", "addresses": ["1LV5y3NkVkmdWnF6xRCEXrAnUkRgge4KSq"], "asm": "OP_DUP OP_HASH160 d5ba2eb2d52670fbe9522748bf642da754eb0d6f OP_EQUALVERIFY OP_CHECKSIG", "type": "pubkeyhash"}, "value": 16.96654439, "n": 1}], "hex": "01000000010384087e1195ac9a631761c776abb927c3d802986c3bbbce9b16b6c5abb8b071010000006a47304402206ebee16fca47a2fa972ad4c5ca5080a5e385689abd0c25e945a9b1aa4e3020140220438fc1bee9f133d06c85105c84e734ff8982b6fdde3a379fc5ab6f64b7535726012102c19ebc0e7fe714e24c55adaeebc7dbab2dc9a208b511bd1b6e83db85506d4d19ffffffff02d02b7700000000001976a91420717de9a7aaaf0c780e273ee8ca14d474e6fa9488ac67e42065000000001976a914d5ba2eb2d52670fbe9522748bf642da754eb0d6f88ac00000000", "vin": [{"sequence": 4294967295, "scriptSig": {"hex": "47304402206ebee16fca47a2fa972ad4c5ca5080a5e385689abd0c25e945a9b1aa4e3020140220438fc1bee9f133d06c85105c84e734ff8982b6fdde3a379fc5ab6f64b7535726012102c19ebc0e7fe714e24c55adaeebc7dbab2dc9a208b511bd1b6e83db85506d4d19", "asm": "304402206ebee16fca47a2fa972ad4c5ca5080a5e385689abd0c25e945a9b1aa4e3020140220438fc1bee9f133d06c85105c84e734ff8982b6fdde3a379fc5ab6f64b7535726[ALL] 02c19ebc0e7fe714e24c55adaeebc7dbab2dc9a208b511bd1b6e83db85506d4d19"}, "vout": 1, "txid": "71b0b8abc5b6169bcebb3b6c9802d8c327b9ab76c76117639aac95117e088403"}], "txid": "5605eae586164e1b9c1034427c7e5a40f8c8da7328d1cd509b05900b8ed7feed", "blocktime": 1537870928, "version": 1, "confirmations": 11512, "time": 1537870928, "locktime": 0, "vsize": 225, "size": 225}