{"hash": "5608ce57e2acd8cfb0a8095d608d477bdcb03cec2fe822dbb5a1e444fa355b4a", "blockhash": "0000000000000000001cda96e906b7601b7a6fb1a3b62bca570a9e5d8f4b3de1", "vout": [{"scriptPubKey": {"reqSigs": 1, "hex": "a914f5ee5686760132d1ec9e3786184010725bd07fe287", "addresses": ["3Q7NzZCgaRgJ36EsdwozecxWMoJHsxAJpF"], "asm": "OP_HASH160 f5ee5686760132d1ec9e3786184010725bd07fe2 OP_EQUAL", "type": "scripthash"}, "value": 0.78, "n": 0}, {"scriptPubKey": {"reqSigs": 1, "hex": "76a914896fb01973325dde94c6fb21ff53d7b2ac26886488ac", "addresses": ["1DXhNVViVYu4xPGUu4pYH2cTr72UPMqKAt"], "asm": "OP_DUP OP_HASH160 896fb01973325dde94c6fb21ff53d7b2ac268864 OP_EQUALVERIFY OP_CHECKSIG", "type": "pubkeyhash"}, "value": 7.39256376, "n": 1}], "hex": "0100000001e31aad1e10f2cceba495620bb86d0ebe453595432a5db371491d473b89a16323010000008a473044022074cf887ab4e65df15bba4923b1c8a8f4343d8b744e1d693f0ca9f69ba99f27d602201f018c31fb9b8527ecb25be7cdf77cbf292e9ca8d417f7af227f888b11f0c59901410424cd257f85c56042860458a0e9231a11cf13c66d0a7ae7552540935dc6d92b7251da37f7117c0548805b1ef30cabcff10a66dc54ce0e328d32d7000c78ce4be4fdffffff02802fa6040000000017a914f5ee5686760132d1ec9e3786184010725bd07fe2873828102c000000001976a914896fb01973325dde94c6fb21ff53d7b2ac26886488ac13490800", "vin": [{"sequence": 4294967293, "scriptSig": {"hex": "473044022074cf887ab4e65df15bba4923b1c8a8f4343d8b744e1d693f0ca9f69ba99f27d602201f018c31fb9b8527ecb25be7cdf77cbf292e9ca8d417f7af227f888b11f0c59901410424cd257f85c56042860458a0e9231a11cf13c66d0a7ae7552540935dc6d92b7251da37f7117c0548805b1ef30cabcff10a66dc54ce0e328d32d7000c78ce4be4", "asm": "3044022074cf887ab4e65df15bba4923b1c8a8f4343d8b744e1d693f0ca9f69ba99f27d602201f018c31fb9b8527ecb25be7cdf77cbf292e9ca8d417f7af227f888b11f0c599[ALL] 0424cd257f85c56042860458a0e9231a11cf13c66d0a7ae7552540935dc6d92b7251da37f7117c0548805b1ef30cabcff10a66dc54ce0e328d32d7000c78ce4be4"}, "vout": 1, "txid": "2363a1893b471d4971b35d2a43953545be0e6db80b6295a4ebccf2101ead1ae3"}], "txid": "5608ce57e2acd8cfb0a8095d608d477bdcb03cec2fe822dbb5a1e444fa355b4a", "blocktime": 1537873282, "version": 1, "confirmations": 11484, "time": 1537873282, "locktime": 542995, "vsize": 255, "size": 255}