{"hash": "5609e7ecf86d00ee5aa775bce6c3f9f7a7ff8662af376da7b699801432e0d0f6", "blockhash": "000000000000000000022b45ed06c6f4ccd3cf7fb5ba4856ebd2e58215665228", "vout": [{"scriptPubKey": {"reqSigs": 1, "hex": "76a914d243e6abb9a60fbff430b421d2df4b7d59ec186088ac", "addresses": ["1LAnF8h3qMGx3TSwNUHVneBZUEpwE4gu3D"], "asm": "OP_DUP OP_HASH160 d243e6abb9a60fbff430b421d2df4b7d59ec1860 OP_EQUALVERIFY OP_CHECKSIG", "type": "pubkeyhash"}, "value": 0.00076972, "n": 0}, {"scriptPubKey": {"reqSigs": 1, "hex": "76a9143851f34d13937b673a7d24a1950bb5b21ce94af388ac", "addresses": ["168o1kqNquEJeR9vosUB5fw4eAwcVAgh8P"], "asm": "OP_DUP OP_HASH160 3851f34d13937b673a7d24a1950bb5b21ce94af3 OP_EQUALVERIFY OP_CHECKSIG", "type": "pubkeyhash"}, "value": 5.46e-06, "n": 1}, {"scriptPubKey": {"type": "nulldata", "hex": "6a146f6d6e69000000000000001f00000021ca6c0e80", "asm": "OP_RETURN 6f6d6e69000000000000001f00000021ca6c0e80"}, "value": 0.0, "n": 2}], "hex": "0100000002afd0028ca5269fe2a7c28513ac2dace4687f0921fb4148bb77e36fbb20f7e7f7000000006a47304402200eae84a148644131153c882f805dd106063fa38ee964c9a263195b28b6c473550220762121afc733cb0759524039898fadd29b7bf522c3c2451a94dc4e7595e203d101210287c9e9a5c41db7dd8875d8dac92710dd34cb4f453897d8d2b24a59818c404e38ffffffff1c86f8f7fba91595b7e7a6290e15982b092fa8d86608bafec7516e37b7aa7a9f000000006b483045022100dc3857ae4b68aa036d300e28b7fee960df67e235db22893d0857076c614c471702203891c20886113c07363db04efa35a22689dc9b5762f093b19e88343a66969d4801210271977291b74f1f5f5c42157e8aae804664eaaeccfd097918450d37f28fb94d77ffffffff03ac2c0100000000001976a914d243e6abb9a60fbff430b421d2df4b7d59ec186088ac22020000000000001976a9143851f34d13937b673a7d24a1950bb5b21ce94af388ac0000000000000000166a146f6d6e69000000000000001f00000021ca6c0e8000000000", "vin": [{"sequence": 4294967295, "scriptSig": {"hex": "47304402200eae84a148644131153c882f805dd106063fa38ee964c9a263195b28b6c473550220762121afc733cb0759524039898fadd29b7bf522c3c2451a94dc4e7595e203d101210287c9e9a5c41db7dd8875d8dac92710dd34cb4f453897d8d2b24a59818c404e38", "asm": "304402200eae84a148644131153c882f805dd106063fa38ee964c9a263195b28b6c473550220762121afc733cb0759524039898fadd29b7bf522c3c2451a94dc4e7595e203d1[ALL] 0287c9e9a5c41db7dd8875d8dac92710dd34cb4f453897d8d2b24a59818c404e38"}, "vout": 0, "txid": "f7e7f720bb6fe377bb4841fb21097f68e4ac2dac1385c2a7e29f26a58c02d0af"}, {"sequence": 4294967295, "scriptSig": {"hex": "483045022100dc3857ae4b68aa036d300e28b7fee960df67e235db22893d0857076c614c471702203891c20886113c07363db04efa35a22689dc9b5762f093b19e88343a66969d4801210271977291b74f1f5f5c42157e8aae804664eaaeccfd097918450d37f28fb94d77", "asm": "3045022100dc3857ae4b68aa036d300e28b7fee960df67e235db22893d0857076c614c471702203891c20886113c07363db04efa35a22689dc9b5762f093b19e88343a66969d48[ALL] 0271977291b74f1f5f5c42157e8aae804664eaaeccfd097918450d37f28fb94d77"}, "vout": 0, "txid": "9f7aaab7376e51c7feba0866d8a82f092b98150e29a6e7b79515a9fbf7f8861c"}], "txid": "5609e7ecf86d00ee5aa775bce6c3f9f7a7ff8662af376da7b699801432e0d0f6", "blocktime": 1537869901, "version": 1, "confirmations": 11522, "time": 1537869901, "locktime": 0, "vsize": 404, "size": 404}