{"hash": "34b3c1e7eb66066f92fe876cbaeaff9d14d4a84085e5bbae27e4ee6894909757", "blockhash": "0000000000000000001f76057863aec43deb6fa401d9628bb513d65a8098bfab", "vout": [{"scriptPubKey": {"reqSigs": 1, "hex": "00140c948f9b31ca7fc3fe5638535a5a9b1961027148", "addresses": ["bc1qpj2glxe3eflu8ljk8pf45k5mr9ssyu2gvycw03"], "asm": "0 0c948f9b31ca7fc3fe5638535a5a9b1961027148", "type": "witness_v0_keyhash"}, "value": 0.00026593, "n": 0}, {"scriptPubKey": {"reqSigs": 1, "hex": "a914926710779d1502a1def577d1b0a9ce7def77c26887", "addresses": ["3F383aw3j42kdeh2ucVGf2tWCb7Gp2d8gW"], "asm": "OP_HASH160 926710779d1502a1def577d1b0a9ce7def77c268 OP_EQUAL", "type": "scripthash"}, "value": 0.0140197, "n": 1}], "hex": "01000000000101a50647dfa6ba3ea3bea5c190c90e75531355541074b1f8250a8c7444d2b8904a0000000000ffffffff02e1670000000000001600140c948f9b31ca7fc3fe5638535a5a9b1961027148726415000000000017a914926710779d1502a1def577d1b0a9ce7def77c268870248304502210089a304c1b5893cd910356e0c0f29e7b92a33bbfc678a212bcb4d0380616f8ef902207885cd4b077e62c6453a8286d8a9944eea8bcde92bc8897c8f6fba02a18f65ce01210335d6143e2b33177ca10fc02af63bb2dcae30424f25f33e64e89a6b55fcc554d900000000", "vin": [{"txinwitness": ["304502210089a304c1b5893cd910356e0c0f29e7b92a33bbfc678a212bcb4d0380616f8ef902207885cd4b077e62c6453a8286d8a9944eea8bcde92bc8897c8f6fba02a18f65ce01", "0335d6143e2b33177ca10fc02af63bb2dcae30424f25f33e64e89a6b55fcc554d9"], "sequence": 4294967295, "scriptSig": {"hex": "", "asm": ""}, "vout": 0, "txid": "4a90b8d244748c0a25f8b1741054551353750ec990c1a5bea33ebaa6df4706a5"}], "txid": "5612c6f24e621792461b4578ecb1a8a558b4b2482ce643739d47d536ce39e910", "blocktime": 1537873891, "version": 1, "confirmations": 11478, "time": 1537873891, "locktime": 0, "vsize": 142, "size": 224}