{"hash": "56197137ccc17154ae53344fa58581c93d8c03636698474de0557051fdd6aab8", "blockhash": "0000000000000000000baef3f32e3676a92c3b2e5da21b426e4f302fc371ce76", "vout": [{"scriptPubKey": {"type": "nulldata", "hex": "6a4c5000007824000162b613240aa35eef2c67b99f019d6ddc0f1b8ff117702940d64fa54d8eb2217dc4a4bc545d7f596347ecf581bbe05baa1e010613f1c9edb6d2e7bc9a9526289ac0f6612cd74e33776ee4", "asm": "OP_RETURN 00007824000162b613240aa35eef2c67b99f019d6ddc0f1b8ff117702940d64fa54d8eb2217dc4a4bc545d7f596347ecf581bbe05baa1e010613f1c9edb6d2e7bc9a9526289ac0f6612cd74e33776ee4"}, "value": 0.0, "n": 0}, {"scriptPubKey": {"reqSigs": 1, "hex": "76a9149b0804aeaa167b09dfafcc9575a1788b6216ab8a88ac", "addresses": ["1F8jLrYoqSUZQhJ5WcdbKsLwPVKpJazVqy"], "asm": "OP_DUP OP_HASH160 9b0804aeaa167b09dfafcc9575a1788b6216ab8a OP_EQUALVERIFY OP_CHECKSIG", "type": "pubkeyhash"}, "value": 0.0007444, "n": 1}], "hex": "01000000010c720855940e89efc325e0b7f7e726b8b653a40f9f9f26c178947502113c7e24000000006b483045022100c05ea6f978f94d2fa98ff94308696a04fdc20567ee1128d9d2960234607c11dd0220275873b92312b974cc147ea4a4c686f0f98b66ec36344dbd802ec02581dac1cc01210384e9a011bfd53d30ba986996eea577756ca3f7f5e3c32da9144141c5560c9db1ffffffff020000000000000000536a4c5000007824000162b613240aa35eef2c67b99f019d6ddc0f1b8ff117702940d64fa54d8eb2217dc4a4bc545d7f596347ecf581bbe05baa1e010613f1c9edb6d2e7bc9a9526289ac0f6612cd74e33776ee4c8220100000000001976a9149b0804aeaa167b09dfafcc9575a1788b6216ab8a88ac00000000", "vin": [{"sequence": 4294967295, "scriptSig": {"hex": "483045022100c05ea6f978f94d2fa98ff94308696a04fdc20567ee1128d9d2960234607c11dd0220275873b92312b974cc147ea4a4c686f0f98b66ec36344dbd802ec02581dac1cc01210384e9a011bfd53d30ba986996eea577756ca3f7f5e3c32da9144141c5560c9db1", "asm": "3045022100c05ea6f978f94d2fa98ff94308696a04fdc20567ee1128d9d2960234607c11dd0220275873b92312b974cc147ea4a4c686f0f98b66ec36344dbd802ec02581dac1cc[ALL] 0384e9a011bfd53d30ba986996eea577756ca3f7f5e3c32da9144141c5560c9db1"}, "vout": 0, "txid": "247e3c1102759478c1269f9f0fa453b6b826e7f7b7e025c3ef890e945508720c"}], "txid": "56197137ccc17154ae53344fa58581c93d8c03636698474de0557051fdd6aab8", "blocktime": 1537876114, "version": 1, "confirmations": 11461, "time": 1537876114, "locktime": 0, "vsize": 284, "size": 284}