{"hash": "0d23ea925a7f516042e2459f83c6e312a5355c1195fdc3dbd743046a884830e6", "blockhash": "00000000000000000004ffacab907a6b429b9a5745fa0b75af4234bf69dd7176", "vout": [{"scriptPubKey": {"reqSigs": 1, "hex": "00201a5dea3dd87aa0e1703e461f86150dbdbd0696679e192a7ff2f577cbfa007ec9", "addresses": ["bc1qrfw750wc02swzup7gc0cv9gdhk7sd9n8ncvj5llj74muh7sq0mys6p8u8u"], "asm": "0 1a5dea3dd87aa0e1703e461f86150dbdbd0696679e192a7ff2f577cbfa007ec9", "type": "witness_v0_scripthash"}, "value": 0.00999, "n": 0}, {"scriptPubKey": {"type": "nulldata", "hex": "6a14de70b19493550187c53f41e557994a5a7a20d5c4", "asm": "OP_RETURN de70b19493550187c53f41e557994a5a7a20d5c4"}, "value": 0.0, "n": 1}], "hex": "01000000000101b9595a307641a8f663c5a10cb1abd2efd6cd5c13f4f3f8dd71bed1d57201d9dd0000000000ffffffff02583e0f00000000002200201a5dea3dd87aa0e1703e461f86150dbdbd0696679e192a7ff2f577cbfa007ec90000000000000000166a14de70b19493550187c53f41e557994a5a7a20d5c402483045022100d64a0ce287d43588f80850ef6993eadab4b4f63a3e331ed14dbd506b4783788402202ac19e0f6f6f4a1c9253b59f114180f48c30a5e162bf8f9b41313958631c6177012103c88ad25abdcfcd0459d11eb05673a145c4b92549e55c45aa759149a28753db5e00000000", "vin": [{"txinwitness": ["3045022100d64a0ce287d43588f80850ef6993eadab4b4f63a3e331ed14dbd506b4783788402202ac19e0f6f6f4a1c9253b59f114180f48c30a5e162bf8f9b41313958631c617701", "03c88ad25abdcfcd0459d11eb05673a145c4b92549e55c45aa759149a28753db5e"], "sequence": 4294967295, "scriptSig": {"hex": "", "asm": ""}, "vout": 0, "txid": "ddd90172d5d1be71ddf8f3f4135ccdd6efd2abb10ca1c563f6a84176305a59b9"}], "txid": "561ecbbca6814afc2f62212814133384d8a2bbc80be984d8c84a553614fdea01", "blocktime": 1537875543, "version": 1, "confirmations": 11464, "time": 1537875543, "locktime": 0, "vsize": 153, "size": 235}