{"hash": "1456debfa21f405847cdf593bc5dbc7850b5a3eee8223f82a5e4692104ff768f", "blockhash": "00000000000000000024a2167bbff67b0be802c0b01cdd79e6331c2be6459f87", "vout": [{"scriptPubKey": {"reqSigs": 1, "hex": "a91426c21cf54f14a3a5ecbb9aeea3b523646b3c512a87", "addresses": ["35Dx93omoz1z2A1Bf4B6SfW9A9xpcSnhB2"], "asm": "OP_HASH160 26c21cf54f14a3a5ecbb9aeea3b523646b3c512a OP_EQUAL", "type": "scripthash"}, "value": 0.08928373, "n": 0}, {"scriptPubKey": {"reqSigs": 1, "hex": "00147c72dc65d4cb2d15203d4f6edf269116c44a1fb2", "addresses": ["bc1q03edcew5evk32gpafahd7f53zmzy58ajvecslv"], "asm": "0 7c72dc65d4cb2d15203d4f6edf269116c44a1fb2", "type": "witness_v0_keyhash"}, "value": 0.05008153, "n": 1}], "hex": "01000000000101cf841838acb9f4d9528b728f124084c6613aff3ff35011cec1969883055a597a1500000017160014a0bf091216e3d288e17ed4b93190d86acae2dd3cffffffff02753c88000000000017a91426c21cf54f14a3a5ecbb9aeea3b523646b3c512a87196b4c00000000001600147c72dc65d4cb2d15203d4f6edf269116c44a1fb2024730440220412f3dd5e7dc696fca3fa76648699ce00c5ca6833941da5375a73cd5c5bfc2c602206f89740a2843ff2e2d3c102822a2c48b2d6b716ae166737cea18017fb4c735b9012102a7bce5d2e70c71772bb52a1737b9811f9e3da7a23f12478daf1719422d5ac92600000000", "vin": [{"txinwitness": ["30440220412f3dd5e7dc696fca3fa76648699ce00c5ca6833941da5375a73cd5c5bfc2c602206f89740a2843ff2e2d3c102822a2c48b2d6b716ae166737cea18017fb4c735b901", "02a7bce5d2e70c71772bb52a1737b9811f9e3da7a23f12478daf1719422d5ac926"], "sequence": 4294967295, "scriptSig": {"hex": "160014a0bf091216e3d288e17ed4b93190d86acae2dd3c", "asm": "0014a0bf091216e3d288e17ed4b93190d86acae2dd3c"}, "vout": 21, "txid": "7a595a05839896c1ce1150f33fff3a61c68440128f728b52d9f4b9ac381884cf"}], "txid": "56209dbe5200abd42aeebbbb169e78e88dec09b7b6d8792db63c530f98b8f5d2", "blocktime": 1537870564, "version": 1, "confirmations": 11515, "time": 1537870564, "locktime": 0, "vsize": 165, "size": 246}