{"hash": "56202881ef7e6eb21f5de19ec4fd57f539500540ba23b40d6625220619a3952b", "blockhash": "00000000000000000018f53835495a110e01622372bf6ae95dc86f2b0ab887b0", "vout": [{"scriptPubKey": {"reqSigs": 1, "hex": "76a914d243e6abb9a60fbff430b421d2df4b7d59ec186088ac", "addresses": ["1LAnF8h3qMGx3TSwNUHVneBZUEpwE4gu3D"], "asm": "OP_DUP OP_HASH160 d243e6abb9a60fbff430b421d2df4b7d59ec1860 OP_EQUALVERIFY OP_CHECKSIG", "type": "pubkeyhash"}, "value": 0.00077314, "n": 0}, {"scriptPubKey": {"reqSigs": 1, "hex": "76a914a5b99c715e503ea821eb2e00017fc2de3e9aa72988ac", "addresses": ["1G7Gr8z9CreGvyj7DbEdVcyRUsmWQMNnrk"], "asm": "OP_DUP OP_HASH160 a5b99c715e503ea821eb2e00017fc2de3e9aa729 OP_EQUALVERIFY OP_CHECKSIG", "type": "pubkeyhash"}, "value": 5.46e-06, "n": 1}, {"scriptPubKey": {"type": "nulldata", "hex": "6a146f6d6e69000000000000001f00000022cee4f700", "asm": "OP_RETURN 6f6d6e69000000000000001f00000022cee4f700"}, "value": 0.0, "n": 2}], "hex": "0100000001a12ceb48b82f1be23f3be7f0206d1e63f24e136c3226e90a78a4f2193d7adeff000000006b483045022100b700b667699c907823e92b8ea4916b3a66a624a5c0606f7889921cd0d2bb2c4d0220387c0ba792537dbb6c723c8eb00bb369f97c56279e0725e5400be4ea1fe9f59201210271977291b74f1f5f5c42157e8aae804664eaaeccfd097918450d37f28fb94d77ffffffff03022e0100000000001976a914d243e6abb9a60fbff430b421d2df4b7d59ec186088ac22020000000000001976a914a5b99c715e503ea821eb2e00017fc2de3e9aa72988ac0000000000000000166a146f6d6e69000000000000001f00000022cee4f70000000000", "vin": [{"sequence": 4294967295, "scriptSig": {"hex": "483045022100b700b667699c907823e92b8ea4916b3a66a624a5c0606f7889921cd0d2bb2c4d0220387c0ba792537dbb6c723c8eb00bb369f97c56279e0725e5400be4ea1fe9f59201210271977291b74f1f5f5c42157e8aae804664eaaeccfd097918450d37f28fb94d77", "asm": "3045022100b700b667699c907823e92b8ea4916b3a66a624a5c0606f7889921cd0d2bb2c4d0220387c0ba792537dbb6c723c8eb00bb369f97c56279e0725e5400be4ea1fe9f592[ALL] 0271977291b74f1f5f5c42157e8aae804664eaaeccfd097918450d37f28fb94d77"}, "vout": 0, "txid": "ffde7a3d19f2a4780ae926326c134ef2631e6d20f0e73b3fe21b2fb848eb2ca1"}], "txid": "56202881ef7e6eb21f5de19ec4fd57f539500540ba23b40d6625220619a3952b", "blocktime": 1537870928, "version": 1, "confirmations": 11512, "time": 1537870928, "locktime": 0, "vsize": 257, "size": 257}