{"hash": "562d6ffc22c050634d9488aaa0f86185678640c517578e33814f58b464fad302", "blockhash": "0000000000000000001f76057863aec43deb6fa401d9628bb513d65a8098bfab", "vout": [{"scriptPubKey": {"reqSigs": 1, "hex": "76a9149301650e7412ee2555652a5773ac8877f851b65688ac", "addresses": ["1EQJ17GjWDffNP9iKnor5L7zkGZwninKr1"], "asm": "OP_DUP OP_HASH160 9301650e7412ee2555652a5773ac8877f851b656 OP_EQUALVERIFY OP_CHECKSIG", "type": "pubkeyhash"}, "value": 0.11080148, "n": 0}, {"scriptPubKey": {"reqSigs": 1, "hex": "76a914d5ba2eb2d52670fbe9522748bf642da754eb0d6f88ac", "addresses": ["1LV5y3NkVkmdWnF6xRCEXrAnUkRgge4KSq"], "asm": "OP_DUP OP_HASH160 d5ba2eb2d52670fbe9522748bf642da754eb0d6f OP_EQUALVERIFY OP_CHECKSIG", "type": "pubkeyhash"}, "value": 16.85372701, "n": 1}], "hex": "010000000170ff173bad269349cf8fa84da0216c3d98f19af69e55e3313d8988bedfd6ee1a010000006b483045022100f3a8553fed8bcab28bc3779fd014a0653f0e24b2d0c8b08a7e0c9b0a6a55a5a102205a34e167b3f3dff9dcaceaed4904b0e36d9f063cc641a2688ff2821fb2072648012102c19ebc0e7fe714e24c55adaeebc7dbab2dc9a208b511bd1b6e83db85506d4d19ffffffff02d411a900000000001976a9149301650e7412ee2555652a5773ac8877f851b65688ac1dbf7464000000001976a914d5ba2eb2d52670fbe9522748bf642da754eb0d6f88ac00000000", "vin": [{"sequence": 4294967295, "scriptSig": {"hex": "483045022100f3a8553fed8bcab28bc3779fd014a0653f0e24b2d0c8b08a7e0c9b0a6a55a5a102205a34e167b3f3dff9dcaceaed4904b0e36d9f063cc641a2688ff2821fb2072648012102c19ebc0e7fe714e24c55adaeebc7dbab2dc9a208b511bd1b6e83db85506d4d19", "asm": "3045022100f3a8553fed8bcab28bc3779fd014a0653f0e24b2d0c8b08a7e0c9b0a6a55a5a102205a34e167b3f3dff9dcaceaed4904b0e36d9f063cc641a2688ff2821fb2072648[ALL] 02c19ebc0e7fe714e24c55adaeebc7dbab2dc9a208b511bd1b6e83db85506d4d19"}, "vout": 1, "txid": "1aeed6dfbe88893d31e3559ef69af1983d6c21a04da88fcf499326ad3b17ff70"}], "txid": "562d6ffc22c050634d9488aaa0f86185678640c517578e33814f58b464fad302", "blocktime": 1537873891, "version": 1, "confirmations": 11478, "time": 1537873891, "locktime": 0, "vsize": 226, "size": 226}