{"hash": "56305772d157f8508c5bc4c57c3ff3e912fad1fc6f9e25970517fa55a65d4716", "blockhash": "0000000000000000001f0ddff1eddb255c1121bcd4da4f1bc9a0da00cae72433", "vout": [{"scriptPubKey": {"reqSigs": 1, "hex": "76a914fb1ff57c227624d8e8758c5ee9a6f3bffc84542388ac", "addresses": ["1PtpthHJNm8kSd6PdxDGAzBZBqaQaphYsX"], "asm": "OP_DUP OP_HASH160 fb1ff57c227624d8e8758c5ee9a6f3bffc845423 OP_EQUALVERIFY OP_CHECKSIG", "type": "pubkeyhash"}, "value": 0.00296835, "n": 0}, {"scriptPubKey": {"reqSigs": 1, "hex": "76a9140f00b67b2536bd400770767730c4ecd7361d865a88ac", "addresses": ["12NKzQUovrFMihLWuHibJebnbBHzRLLwEB"], "asm": "OP_DUP OP_HASH160 0f00b67b2536bd400770767730c4ecd7361d865a OP_EQUALVERIFY OP_CHECKSIG", "type": "pubkeyhash"}, "value": 0.08046404, "n": 1}], "hex": "01000000017ca0216c6443da9001e9ef491a940fbcb88cfec98fcb9ad4a84a0ed043af822d010000008a47304402202f44d7ce5b5614336e809288862b238cc56fe6be9227d38165373cac9486d4730220550e9016fcf654d599237214b25dfa3bdadd83cc4741404501d9262832e6cb680141047c1acc9348839993f47c752674625b5b22df993f870ed8d8e02f875e2a7c2a70e2c645c89dc4c897681ff2f381b48e534c1b72105693d9ffcb7a7b2630887db2ffffffff0283870400000000001976a914fb1ff57c227624d8e8758c5ee9a6f3bffc84542388ac44c77a00000000001976a9140f00b67b2536bd400770767730c4ecd7361d865a88ac00000000", "vin": [{"sequence": 4294967295, "scriptSig": {"hex": "47304402202f44d7ce5b5614336e809288862b238cc56fe6be9227d38165373cac9486d4730220550e9016fcf654d599237214b25dfa3bdadd83cc4741404501d9262832e6cb680141047c1acc9348839993f47c752674625b5b22df993f870ed8d8e02f875e2a7c2a70e2c645c89dc4c897681ff2f381b48e534c1b72105693d9ffcb7a7b2630887db2", "asm": "304402202f44d7ce5b5614336e809288862b238cc56fe6be9227d38165373cac9486d4730220550e9016fcf654d599237214b25dfa3bdadd83cc4741404501d9262832e6cb68[ALL] 047c1acc9348839993f47c752674625b5b22df993f870ed8d8e02f875e2a7c2a70e2c645c89dc4c897681ff2f381b48e534c1b72105693d9ffcb7a7b2630887db2"}, "vout": 1, "txid": "2d82af43d00e4aa8d49acb8fc9fe8cb8bc0f941a49efe90190da43646c21a07c"}], "txid": "56305772d157f8508c5bc4c57c3ff3e912fad1fc6f9e25970517fa55a65d4716", "blocktime": 1537872018, "version": 1, "confirmations": 11489, "time": 1537872018, "locktime": 0, "vsize": 257, "size": 257}