{"hash": "94f9b273448086a42199e696cec9260e7b62894cf5a087e08786aec70611d3e0", "blockhash": "00000000000000000004ffacab907a6b429b9a5745fa0b75af4234bf69dd7176", "vout": [{"scriptPubKey": {"reqSigs": 1, "hex": "76a9147c2dd123f47d102727f7f40a68c8ae63bfaedfe288ac", "addresses": ["1CKbgCsy9K27qiqU6xygvQqRXTpLSFLi3s"], "asm": "OP_DUP OP_HASH160 7c2dd123f47d102727f7f40a68c8ae63bfaedfe2 OP_EQUALVERIFY OP_CHECKSIG", "type": "pubkeyhash"}, "value": 0.01561341, "n": 0}, {"scriptPubKey": {"reqSigs": 1, "hex": "76a9144df097daf6948937e31b13d53c0d5b22619e61cf88ac", "addresses": ["1877FUkeBHK8HhzgWixAGm3qDFeGmGZDVm"], "asm": "OP_DUP OP_HASH160 4df097daf6948937e31b13d53c0d5b22619e61cf OP_EQUALVERIFY OP_CHECKSIG", "type": "pubkeyhash"}, "value": 0.01562655, "n": 1}, {"scriptPubKey": {"reqSigs": 1, "hex": "a914e488a9b1352428a2a084ae60be7f2b0d30f4858b87", "addresses": ["3NXPhnNYxjsE4Y7V27AvkoPzZGWVx7azdN"], "asm": "OP_HASH160 e488a9b1352428a2a084ae60be7f2b0d30f4858b OP_EQUAL", "type": "scripthash"}, "value": 0.00022622, "n": 2}], "hex": "010000000001010ad7b2345fa3a5136ffdadc4af39e2134fadca498e6c356254a5a23b9b5c0a070000000017160014e9bc2a5213a9b99c5ad4a17b177c2a23c81ed112ffffffff03fdd21700000000001976a9147c2dd123f47d102727f7f40a68c8ae63bfaedfe288ac1fd81700000000001976a9144df097daf6948937e31b13d53c0d5b22619e61cf88ac5e5800000000000017a914e488a9b1352428a2a084ae60be7f2b0d30f4858b8702473044022076d6268bec8d1fbb37df7324d6415b73fef90d1c2c28e1ef378d1e4390a8b3d802206d5d009a81e7336d39f1750554ecf1e262e302c23a1ba9f131f7e3038eb5d788012103948b156d41ed0ad478eb73e03d5dec6fcda2240c9129ed27de427434a51b92ad00000000", "vin": [{"txinwitness": ["3044022076d6268bec8d1fbb37df7324d6415b73fef90d1c2c28e1ef378d1e4390a8b3d802206d5d009a81e7336d39f1750554ecf1e262e302c23a1ba9f131f7e3038eb5d78801", "03948b156d41ed0ad478eb73e03d5dec6fcda2240c9129ed27de427434a51b92ad"], "sequence": 4294967295, "scriptSig": {"hex": "160014e9bc2a5213a9b99c5ad4a17b177c2a23c81ed112", "asm": "0014e9bc2a5213a9b99c5ad4a17b177c2a23c81ed112"}, "vout": 0, "txid": "070a5c9b3ba2a55462356c8e49caad4f13e239afc4adfd6f13a5a35f34b2d70a"}], "txid": "5633b67456b48e2ef49f07877cedc9790479b592da3447a5d7e0606a11386007", "blocktime": 1537875543, "version": 1, "confirmations": 11464, "time": 1537875543, "locktime": 0, "vsize": 202, "size": 283}