{"hash": "e6552611f0a755e7929bfe4dab5cc6b2a2f950e4265fc772597d26a7f3c68439", "blockhash": "00000000000000000017f5eb5941039fbcee6240d03bc1f2f8e35350df66a1d8", "vout": [{"scriptPubKey": {"reqSigs": 1, "hex": "a9143abb96b61fbc4e567fde7e13c2b794348c28f3ff87", "addresses": ["373ZqZaJLnYpFDPVyWK8iZSXF6PGnNPd86"], "asm": "OP_HASH160 3abb96b61fbc4e567fde7e13c2b794348c28f3ff OP_EQUAL", "type": "scripthash"}, "value": 1.15469628, "n": 0}, {"scriptPubKey": {"reqSigs": 1, "hex": "a91469f374e503b8153c48ad5b9d738b04abe8f8976387", "addresses": ["3BMEXMALoQPgVvCu3L3YPPzRkWWUirTxXy"], "asm": "OP_HASH160 69f374e503b8153c48ad5b9d738b04abe8f89763 OP_EQUAL", "type": "scripthash"}, "value": 0.84280295, "n": 1}], "hex": "0200000000010172a2dc1aae5aba23ab7bb042e79ef385668a52f9533065dee4d8c4da70e8a3c6290000001716001439f0f5fef907db337e2e7cf401ae6ee155f85e62feffffff023cede1060000000017a9143abb96b61fbc4e567fde7e13c2b794348c28f3ff87e70306050000000017a91469f374e503b8153c48ad5b9d738b04abe8f89763870247304402200794e55d3a051d5cdbdf5f024f76f9abe152f25a13358d912cfa29f7cd97b6ca02204265c4c0e7eeeaca1666adf3d8417f665bff215a07bdc8f387ba5a0c668b65d5012102d1cd0a796983d1c70e166732a0b41fc572d364938391d453706526f3d566254813490800", "vin": [{"txinwitness": ["304402200794e55d3a051d5cdbdf5f024f76f9abe152f25a13358d912cfa29f7cd97b6ca02204265c4c0e7eeeaca1666adf3d8417f665bff215a07bdc8f387ba5a0c668b65d501", "02d1cd0a796983d1c70e166732a0b41fc572d364938391d453706526f3d5662548"], "sequence": 4294967294, "scriptSig": {"hex": "16001439f0f5fef907db337e2e7cf401ae6ee155f85e62", "asm": "001439f0f5fef907db337e2e7cf401ae6ee155f85e62"}, "vout": 41, "txid": "c6a3e870dac4d8e4de653053f9528a6685f39ee742b07bab23ba5aae1adca272"}], "txid": "56379a3f95df76419c30ff373a24700473b0e0b647a2f495e7eb5e8eedc76566", "blocktime": 1537874412, "version": 2, "confirmations": 11468, "time": 1537874412, "locktime": 542995, "vsize": 166, "size": 247}