{"hash": "80b9eafe766feab2fee166919095313e6e7f4dd8fedb72eca8dabd8a5f686371", "blockhash": "0000000000000000000baef3f32e3676a92c3b2e5da21b426e4f302fc371ce76", "vout": [{"scriptPubKey": {"reqSigs": 1, "hex": "76a914e47b3b505565256badc941c19af55c0b320a05e988ac", "addresses": ["1Mq6h2V3sbkoVeJ56KixhwWezTKmAHEDaN"], "asm": "OP_DUP OP_HASH160 e47b3b505565256badc941c19af55c0b320a05e9 OP_EQUALVERIFY OP_CHECKSIG", "type": "pubkeyhash"}, "value": 0.08444335, "n": 0}, {"scriptPubKey": {"reqSigs": 1, "hex": "a914cfaabfe8c271f99a4364b5197ba50c6cddb7adb987", "addresses": ["3Ld4M9RPwEG3VeQbHcC1PsKUndQL7VYLZP"], "asm": "OP_HASH160 cfaabfe8c271f99a4364b5197ba50c6cddb7adb9 OP_EQUAL", "type": "scripthash"}, "value": 0.49035091, "n": 1}], "hex": "010000000001017b72351f28ba3be2ee90853bd88a1c2092f727cfa2095ef5ed209ab33593904201000000232200202f7b4024602241b47d3306a6733d9889e4b6761d9f1cb82a18aa8b9ac4506e51ffffffff02afd98000000000001976a914e47b3b505565256badc941c19af55c0b320a05e988ac5337ec020000000017a914cfaabfe8c271f99a4364b5197ba50c6cddb7adb987040047304402206096f31ba58b431572c79f05c11e69059b73883c72ae3550c027c3ee00260f1c02204c12e17512061803b1ac5f492c8daab840a99e414f76de4d79e4521689e2d92101483045022100cfa2f92e630c339b1d3210cd9557c68aa6d3c9ef123099a898fbe9d20388a6060220743644b62c664121184bc0222a64fb520eca3b519293dd6c5568c829aaabea5d0147522102973cd851fecff3a20f08377b072729f303801eee1b7678668338adcaec770ec221033e4af03ed09dbd8a417ba042650d5bd1db7f14f271a8f660974e3abf1fdfa4da52ae00000000", "vin": [{"txinwitness": ["", "304402206096f31ba58b431572c79f05c11e69059b73883c72ae3550c027c3ee00260f1c02204c12e17512061803b1ac5f492c8daab840a99e414f76de4d79e4521689e2d92101", "3045022100cfa2f92e630c339b1d3210cd9557c68aa6d3c9ef123099a898fbe9d20388a6060220743644b62c664121184bc0222a64fb520eca3b519293dd6c5568c829aaabea5d01", "522102973cd851fecff3a20f08377b072729f303801eee1b7678668338adcaec770ec221033e4af03ed09dbd8a417ba042650d5bd1db7f14f271a8f660974e3abf1fdfa4da52ae"], "sequence": 4294967295, "scriptSig": {"hex": "2200202f7b4024602241b47d3306a6733d9889e4b6761d9f1cb82a18aa8b9ac4506e51", "asm": "00202f7b4024602241b47d3306a6733d9889e4b6761d9f1cb82a18aa8b9ac4506e51"}, "vout": 1, "txid": "42909335b39a20edf55e09a2cf27f792201c8ad83b8590eee23bba281f35727b"}], "txid": "563b4018ace66f18823765a8fcdd4dd5b47250e42b3a0b5a6c9a267ad023f309", "blocktime": 1537876114, "version": 1, "confirmations": 11462, "time": 1537876114, "locktime": 0, "vsize": 208, "size": 373}