{"hash": "563bfda835ccb3e8408dbf42709e6e08a2a0c9a58d11828c1250e01c4fafc797", "blockhash": "0000000000000000000dcc0f55137456b1a82d3642486a52398922ac4d620174", "vout": [{"scriptPubKey": {"reqSigs": 1, "hex": "76a914c8ff6155deef6bdb1434d2244c7e07e0b6df8e4888ac", "addresses": ["1KKn5VgrE2nUwWZWp9qdAuxX9nddqfRXLa"], "asm": "OP_DUP OP_HASH160 c8ff6155deef6bdb1434d2244c7e07e0b6df8e48 OP_EQUALVERIFY OP_CHECKSIG", "type": "pubkeyhash"}, "value": 0.03279185, "n": 0}, {"scriptPubKey": {"reqSigs": 1, "hex": "76a9145dd57749e22e36be2f6737e3b2a9ac03508e4f2088ac", "addresses": ["19Z9ZiXN9e4GfdBwnghF6UPbAQjQMUkiTV"], "asm": "OP_DUP OP_HASH160 5dd57749e22e36be2f6737e3b2a9ac03508e4f20 OP_EQUALVERIFY OP_CHECKSIG", "type": "pubkeyhash"}, "value": 0.00765538, "n": 1}], "hex": "0100000003b2ebea2346749ccfb5515b0e477cb4f9223c719423bf4e03250ca9df7f69db2e010000006a473044022051759b569378dc7a214fdc05db706cef27e11fbfc8880ed52f45cf962433070a022012d314af7a254c6eb35d54326dd89c847963d1b3a9ad4ff9e578a6be14554ff10121036c4c09a15c4695eba4aa56a79fb68e17bc9fdd52a7307c75f80c78eac24adf4effffffff41c802af96a4c0c3b63f6456690d9cd18a1f117da0fcd68af107b99b2eacd8c1010000006b4830450221009b59e8d33d6b5f5ec623cca018a26b33e163300b6ecd815bb481f96b8713d91c02206ccb1fc55bca09770796947384cd3adebff498934d5ff48cdb3e03401066944d0121027e3eaca483b4bf61cdd2c494b0dc302edfe988b617423b55d58b416ccefebfd8ffffffff4e6cae4c955f6c1df09e1309f27b4832e92586e781dd4d109229fccf30f9029a000000006b483045022100e2635461c3375336aab51822f046d7b59de33f2320cd318d9bf375946c06e6cd02205f391e602ecdfcd15bba0e103f40aba200725c68e21377732a3c98249851763e012102148b7ad7e0335ee30c3484e21cb03715c00c2f008351dcc5506b72c9a3f1a9d3ffffffff0251093200000000001976a914c8ff6155deef6bdb1434d2244c7e07e0b6df8e4888ac62ae0b00000000001976a9145dd57749e22e36be2f6737e3b2a9ac03508e4f2088ac00000000", "vin": [{"sequence": 4294967295, "scriptSig": {"hex": "473044022051759b569378dc7a214fdc05db706cef27e11fbfc8880ed52f45cf962433070a022012d314af7a254c6eb35d54326dd89c847963d1b3a9ad4ff9e578a6be14554ff10121036c4c09a15c4695eba4aa56a79fb68e17bc9fdd52a7307c75f80c78eac24adf4e", "asm": "3044022051759b569378dc7a214fdc05db706cef27e11fbfc8880ed52f45cf962433070a022012d314af7a254c6eb35d54326dd89c847963d1b3a9ad4ff9e578a6be14554ff1[ALL] 036c4c09a15c4695eba4aa56a79fb68e17bc9fdd52a7307c75f80c78eac24adf4e"}, "vout": 1, "txid": "2edb697fdfa90c25034ebf2394713c22f9b47c470e5b51b5cf9c744623eaebb2"}, {"sequence": 4294967295, "scriptSig": {"hex": "4830450221009b59e8d33d6b5f5ec623cca018a26b33e163300b6ecd815bb481f96b8713d91c02206ccb1fc55bca09770796947384cd3adebff498934d5ff48cdb3e03401066944d0121027e3eaca483b4bf61cdd2c494b0dc302edfe988b617423b55d58b416ccefebfd8", "asm": "30450221009b59e8d33d6b5f5ec623cca018a26b33e163300b6ecd815bb481f96b8713d91c02206ccb1fc55bca09770796947384cd3adebff498934d5ff48cdb3e03401066944d[ALL] 027e3eaca483b4bf61cdd2c494b0dc302edfe988b617423b55d58b416ccefebfd8"}, "vout": 1, "txid": "c1d8ac2e9bb907f18ad6fca07d111f8ad19c0d6956643fb6c3c0a496af02c841"}, {"sequence": 4294967295, "scriptSig": {"hex": "483045022100e2635461c3375336aab51822f046d7b59de33f2320cd318d9bf375946c06e6cd02205f391e602ecdfcd15bba0e103f40aba200725c68e21377732a3c98249851763e012102148b7ad7e0335ee30c3484e21cb03715c00c2f008351dcc5506b72c9a3f1a9d3", "asm": "3045022100e2635461c3375336aab51822f046d7b59de33f2320cd318d9bf375946c06e6cd02205f391e602ecdfcd15bba0e103f40aba200725c68e21377732a3c98249851763e[ALL] 02148b7ad7e0335ee30c3484e21cb03715c00c2f008351dcc5506b72c9a3f1a9d3"}, "vout": 0, "txid": "9a02f930cffc2992104ddd81e78625e932487bf209139ef01d6c5f954cae6c4e"}], "txid": "563bfda835ccb3e8408dbf42709e6e08a2a0c9a58d11828c1250e01c4fafc797", "blocktime": 1537870268, "version": 1, "confirmations": 11516, "time": 1537870268, "locktime": 0, "vsize": 521, "size": 521}