{"hash": "83f822cbd23e78cc130ccdb72b7b414ecd55991085caa5b83bf664387ebf407e", "blockhash": "0000000000000000000e13cef7c366c0283d82e591d1acd082e914b08063cdf1", "vout": [{"scriptPubKey": {"reqSigs": 1, "hex": "a914e0274975f9d826a9792a0d96061866c2f54abc2087", "addresses": ["3N8EMDgAREJV2QCwsGgiWWF6Vy24Knv2PR"], "asm": "OP_HASH160 e0274975f9d826a9792a0d96061866c2f54abc20 OP_EQUAL", "type": "scripthash"}, "value": 0.00066214, "n": 0}, {"scriptPubKey": {"reqSigs": 1, "hex": "a914414cec0fc72a9410f6836edaf08de1aa3b2a321c87", "addresses": ["37eHzewnAFRR2SVZu8rZM3nBsmuE2XBU7D"], "asm": "OP_HASH160 414cec0fc72a9410f6836edaf08de1aa3b2a321c OP_EQUAL", "type": "scripthash"}, "value": 0.26461464, "n": 1}], "hex": "010000000001018b0374a409e029b708fc3c147671d74aab75c38b9b416639b82bebeac40ac7b10100000023220020ce74cde37cfb8dd71d0179287e12fc721ee236ce3c89c2745bcd365b39807eb3ffffffff02a60201000000000017a914e0274975f9d826a9792a0d96061866c2f54abc208718c593010000000017a914414cec0fc72a9410f6836edaf08de1aa3b2a321c870400483045022100b617658ded17c8c508dfe6ca121128bb27798c4f00f1e215a48543852fcb205102207e77fc35ccbef50763e3133e9c37b66f5e4b227763804a11896c7b7618a5ab0501473044022027fd348a205346275003388ce02b6818c2873426c0d38646a7537ced6bb9751b0220775f5bd91bb94480935b8c738e6030e9cec95b801350c4ff648f5eaf344458850147522103ada901d90d5a76319a60f228e0b1bbc84b1d9a87238550bae5d5d190067b66712103871fc2ca08e6950b38867e8e6a0e94ee625223d3aa0df5c65f414c6d784467e252ae00000000", "vin": [{"txinwitness": ["", "3045022100b617658ded17c8c508dfe6ca121128bb27798c4f00f1e215a48543852fcb205102207e77fc35ccbef50763e3133e9c37b66f5e4b227763804a11896c7b7618a5ab0501", "3044022027fd348a205346275003388ce02b6818c2873426c0d38646a7537ced6bb9751b0220775f5bd91bb94480935b8c738e6030e9cec95b801350c4ff648f5eaf3444588501", "522103ada901d90d5a76319a60f228e0b1bbc84b1d9a87238550bae5d5d190067b66712103871fc2ca08e6950b38867e8e6a0e94ee625223d3aa0df5c65f414c6d784467e252ae"], "sequence": 4294967295, "scriptSig": {"hex": "220020ce74cde37cfb8dd71d0179287e12fc721ee236ce3c89c2745bcd365b39807eb3", "asm": "0020ce74cde37cfb8dd71d0179287e12fc721ee236ce3c89c2745bcd365b39807eb3"}, "vout": 1, "txid": "b1c70ac4eaeb2bb83966419b8bc375ab4ad77176143cfc08b729e009a474038b"}], "txid": "5647a828161cdcf21e787fec4db44e18f030dd3984cb737599f416195a97a9bc", "blocktime": 1537871767, "version": 1, "confirmations": 11495, "time": 1537871767, "locktime": 0, "vsize": 206, "size": 371}