{"hash": "47263951dab7e024ad07f64fda81dcf0dde5043ae36909be2d11a966562bd952", "blockhash": "0000000000000000001e0dab787dd257d1dbfcb92a98c2207d5e1078be1f4165", "vout": [{"scriptPubKey": {"reqSigs": 1, "hex": "a914620f5785a34f15f7cc1fa03f0603401410076fe387", "addresses": ["3AdWXKGm9yZFHXwjQ7sVzh5TMfsv4pESv7"], "asm": "OP_HASH160 620f5785a34f15f7cc1fa03f0603401410076fe3 OP_EQUAL", "type": "scripthash"}, "value": 0.01100507, "n": 0}, {"scriptPubKey": {"reqSigs": 1, "hex": "76a914f97d3a1583b167219f81b9ccf97f10b71520836988ac", "addresses": ["1PkBGgbYjxL27facVgei2xn4Q7EWTDc3za"], "asm": "OP_DUP OP_HASH160 f97d3a1583b167219f81b9ccf97f10b715208369 OP_EQUALVERIFY OP_CHECKSIG", "type": "pubkeyhash"}, "value": 0.0066295, "n": 1}], "hex": "020000000001011df074b1616f6d6409cda7f38c5153d3ce5e80b3d7aa30276ca3e0df685ebfe300000000171600149f7b4f671fdea04882d6022b955268283ad1c6b2feffffff02dbca10000000000017a914620f5785a34f15f7cc1fa03f0603401410076fe387a61d0a00000000001976a914f97d3a1583b167219f81b9ccf97f10b71520836988ac0247304402201f7636be06fedf4999106479b0fb2c9ebef5cf34ba1df232e13f264a3399b13702201783c92b49bc66f81c601659816676105e85339c7391df7aee958abc7742059801210345a6e26d441bd96a36ef535e3082172f90bc1ca3206264fb79e45cc08ac9b68711490800", "vin": [{"txinwitness": ["304402201f7636be06fedf4999106479b0fb2c9ebef5cf34ba1df232e13f264a3399b13702201783c92b49bc66f81c601659816676105e85339c7391df7aee958abc7742059801", "0345a6e26d441bd96a36ef535e3082172f90bc1ca3206264fb79e45cc08ac9b687"], "sequence": 4294967294, "scriptSig": {"hex": "1600149f7b4f671fdea04882d6022b955268283ad1c6b2", "asm": "00149f7b4f671fdea04882d6022b955268283ad1c6b2"}, "vout": 0, "txid": "e3bf5e68dfe0a36c2730aad7b3805eced353518cf3a7cd09646d6f61b174f01d"}], "txid": "5647d89d79016d9adb1531d267efa0309d95fe5c1bd3c1add0d75f506ff7260c", "blocktime": 1537872475, "version": 2, "confirmations": 11487, "time": 1537872475, "locktime": 542993, "vsize": 168, "size": 249}