{"hash": "a72199a7d1c8d4ebdea40034860ea0890e120bb2fee17550ca4bc3f7a113cffc", "blockhash": "00000000000000000004ffacab907a6b429b9a5745fa0b75af4234bf69dd7176", "vout": [{"scriptPubKey": {"reqSigs": 1, "hex": "76a9143e044aa851fcbab786af66a691365c9cdf61153f88ac", "addresses": ["16ev35iFAZasjtMqRA3N3gbj57RYJfoZdU"], "asm": "OP_DUP OP_HASH160 3e044aa851fcbab786af66a691365c9cdf61153f OP_EQUALVERIFY OP_CHECKSIG", "type": "pubkeyhash"}, "value": 0.069089, "n": 0}, {"scriptPubKey": {"reqSigs": 1, "hex": "a914dee0a1cc9f055700143e0f4ecee53180ab3530dc87", "addresses": ["3N1V2qWA5hpScEmS72pMooYRmXUiLmwPQQ"], "asm": "OP_HASH160 dee0a1cc9f055700143e0f4ecee53180ab3530dc OP_EQUAL", "type": "scripthash"}, "value": 0.36353798, "n": 1}], "hex": "02000000000101daeb24be5b4d86dc2510702229eee3f878bc9b871775ff4964974ea689f981de0100000017160014cb5dbe423de4d42b6425c6921084c6197a5d2937ffffffff02e46b6900000000001976a9143e044aa851fcbab786af66a691365c9cdf61153f88ac06b72a020000000017a914dee0a1cc9f055700143e0f4ecee53180ab3530dc8702483045022100b915cebb2aa1b15a91f5d6113e9ff52b568a0f66e8729637d98c8d8d9418691d02205d0c17c4c208a3a13f79d594a51edc3f4b4c586e1aabe0ec47c955c258086270012102acecad485eda786cbe0422823b7594aea6854abb5ec85e267f1c4b87f3f758f700000000", "vin": [{"txinwitness": ["3045022100b915cebb2aa1b15a91f5d6113e9ff52b568a0f66e8729637d98c8d8d9418691d02205d0c17c4c208a3a13f79d594a51edc3f4b4c586e1aabe0ec47c955c25808627001", "02acecad485eda786cbe0422823b7594aea6854abb5ec85e267f1c4b87f3f758f7"], "sequence": 4294967295, "scriptSig": {"hex": "160014cb5dbe423de4d42b6425c6921084c6197a5d2937", "asm": "0014cb5dbe423de4d42b6425c6921084c6197a5d2937"}, "vout": 1, "txid": "de81f989a64e976449ff7517879bbc78f8e3ee2922701025dc864d5bbe24ebda"}], "txid": "564cb5cf74744d03e302a485ff725d8cac05ab9ac79132bb6b0e6967aef95104", "blocktime": 1537875543, "version": 2, "confirmations": 11464, "time": 1537875543, "locktime": 0, "vsize": 168, "size": 250}