{"hash": "564d7ee864bb5251288fd3122be4289c1867232d7846964eaae458d181b9eb11", "blockhash": "0000000000000000000dcc0f55137456b1a82d3642486a52398922ac4d620174", "vout": [{"scriptPubKey": {"reqSigs": 1, "hex": "76a91438f6bdef42a4a594a7708883372a8887abf27e9b88ac", "addresses": ["16CCRg1HGtqB8iZgzGbqaFtneu6fgaGiCd"], "asm": "OP_DUP OP_HASH160 38f6bdef42a4a594a7708883372a8887abf27e9b OP_EQUALVERIFY OP_CHECKSIG", "type": "pubkeyhash"}, "value": 3.85, "n": 0}, {"scriptPubKey": {"reqSigs": 1, "hex": "76a9146867da8fbad898bdbb60987bf018ac336560e22888ac", "addresses": ["1AX3gqUfKExm5ipNNJbA927asTzF5nGNat"], "asm": "OP_DUP OP_HASH160 6867da8fbad898bdbb60987bf018ac336560e228 OP_EQUALVERIFY OP_CHECKSIG", "type": "pubkeyhash"}, "value": 1.04984, "n": 1}], "hex": "01000000020bd8bb28e9cbebd50e0b0a478faf9c33ff5b98651b8cde8ba6b13c3f8cbc213b010000006b4830450221009bba42335ffea7c3ad15bd97222e44916fb9c5aff611e5e47b80c54e922167b60220260e9fba20d9d6b67077c81dc953c2757ac56ed261fdbed687b88992012049b60121031745d8d4eb7897557ff7b662d3dd31660f7912507eb52c87165602efba97b0beffffffff0bd8bb28e9cbebd50e0b0a478faf9c33ff5b98651b8cde8ba6b13c3f8cbc213b000000006a473044022057a6f24b55d1573575209ad5b6eec0377c5b25ce1cc9c630413c0e35489cc11802205250f99ae152a0e0875c35545c9526bfa84fc959f25b2852b7e821b8445ce124012102b5aaea56fc090febf35c69e910dc7c38bac3024706b796984405f1606af6e2adffffffff0240a2f216000000001976a91438f6bdef42a4a594a7708883372a8887abf27e9b88acc0ed4106000000001976a9146867da8fbad898bdbb60987bf018ac336560e22888ac00000000", "vin": [{"sequence": 4294967295, "scriptSig": {"hex": "4830450221009bba42335ffea7c3ad15bd97222e44916fb9c5aff611e5e47b80c54e922167b60220260e9fba20d9d6b67077c81dc953c2757ac56ed261fdbed687b88992012049b60121031745d8d4eb7897557ff7b662d3dd31660f7912507eb52c87165602efba97b0be", "asm": "30450221009bba42335ffea7c3ad15bd97222e44916fb9c5aff611e5e47b80c54e922167b60220260e9fba20d9d6b67077c81dc953c2757ac56ed261fdbed687b88992012049b6[ALL] 031745d8d4eb7897557ff7b662d3dd31660f7912507eb52c87165602efba97b0be"}, "vout": 1, "txid": "3b21bc8c3f3cb1a68bde8c1b65985bff339caf8f470a0b0ed5ebcbe928bbd80b"}, {"sequence": 4294967295, "scriptSig": {"hex": "473044022057a6f24b55d1573575209ad5b6eec0377c5b25ce1cc9c630413c0e35489cc11802205250f99ae152a0e0875c35545c9526bfa84fc959f25b2852b7e821b8445ce124012102b5aaea56fc090febf35c69e910dc7c38bac3024706b796984405f1606af6e2ad", "asm": "3044022057a6f24b55d1573575209ad5b6eec0377c5b25ce1cc9c630413c0e35489cc11802205250f99ae152a0e0875c35545c9526bfa84fc959f25b2852b7e821b8445ce124[ALL] 02b5aaea56fc090febf35c69e910dc7c38bac3024706b796984405f1606af6e2ad"}, "vout": 0, "txid": "3b21bc8c3f3cb1a68bde8c1b65985bff339caf8f470a0b0ed5ebcbe928bbd80b"}], "txid": "564d7ee864bb5251288fd3122be4289c1867232d7846964eaae458d181b9eb11", "blocktime": 1537870268, "version": 1, "confirmations": 11516, "time": 1537870268, "locktime": 0, "vsize": 373, "size": 373}