{"hash": "564f68ea54df61288f2d2bd8ac9928249e132361ca2bec8ac90fb3fb582043ea", "blockhash": "00000000000000000017f5eb5941039fbcee6240d03bc1f2f8e35350df66a1d8", "vout": [{"scriptPubKey": {"reqSigs": 1, "hex": "76a914bd2edbbbb777707c74807276273a9480ba49803588ac", "addresses": ["1JFJr2jx9vru7LDNvmzUrB6pmhMsdaSiRM"], "asm": "OP_DUP OP_HASH160 bd2edbbbb777707c74807276273a9480ba498035 OP_EQUALVERIFY OP_CHECKSIG", "type": "pubkeyhash"}, "value": 0.0006174, "n": 0}, {"scriptPubKey": {"type": "nulldata", "hex": "6a4c50000077f20001596859dfde0f563f482be460d19ed074892d00f8e87af8e8e963c7cfd5b93b2237ed0cfe80dc76cc27ea3ab239d65baa1846061386fb9eb5023fc288b2720c27cdda35b5f050e1b42260", "asm": "OP_RETURN 000077f20001596859dfde0f563f482be460d19ed074892d00f8e87af8e8e963c7cfd5b93b2237ed0cfe80dc76cc27ea3ab239d65baa1846061386fb9eb5023fc288b2720c27cdda35b5f050e1b42260"}, "value": 0.0, "n": 1}], "hex": "01000000019954db5daf1bdd708d08e497e7ae20e79eeb1564467a4a98bb0f03cdb792d778010000006a473044022046a52524c02a53d1d4cca8277ef458ddf59e62bc8139351c4fcd611fe9b34394022043cccbeac69e006844c1593e6e8c6c3e71001130fb9a2eb2b9725c4ae48b54e40121031a78a8b0e0422cf852daeb68bcdd82b0c8eff87e8a7c19ac6cf3fafd7cb15f42ffffffff022cf10000000000001976a914bd2edbbbb777707c74807276273a9480ba49803588ac0000000000000000536a4c50000077f20001596859dfde0f563f482be460d19ed074892d00f8e87af8e8e963c7cfd5b93b2237ed0cfe80dc76cc27ea3ab239d65baa1846061386fb9eb5023fc288b2720c27cdda35b5f050e1b4226000000000", "vin": [{"sequence": 4294967295, "scriptSig": {"hex": "473044022046a52524c02a53d1d4cca8277ef458ddf59e62bc8139351c4fcd611fe9b34394022043cccbeac69e006844c1593e6e8c6c3e71001130fb9a2eb2b9725c4ae48b54e40121031a78a8b0e0422cf852daeb68bcdd82b0c8eff87e8a7c19ac6cf3fafd7cb15f42", "asm": "3044022046a52524c02a53d1d4cca8277ef458ddf59e62bc8139351c4fcd611fe9b34394022043cccbeac69e006844c1593e6e8c6c3e71001130fb9a2eb2b9725c4ae48b54e4[ALL] 031a78a8b0e0422cf852daeb68bcdd82b0c8eff87e8a7c19ac6cf3fafd7cb15f42"}, "vout": 1, "txid": "78d792b7cd030fbb984a7a466415eb9ee720aee797e4088d70dd1baf5ddb5499"}], "txid": "564f68ea54df61288f2d2bd8ac9928249e132361ca2bec8ac90fb3fb582043ea", "blocktime": 1537874412, "version": 1, "confirmations": 11467, "time": 1537874412, "locktime": 0, "vsize": 283, "size": 283}