{"hash": "392c9d63775dab7324429fbc5b5f03c339ff6f763fbe4cfe4b0f33a0f98d00b9", "blockhash": "00000000000000000024a2167bbff67b0be802c0b01cdd79e6331c2be6459f87", "vout": [{"scriptPubKey": {"reqSigs": 1, "hex": "a91466a05e1822d33cf9caab78f3f184ac4ead2e1eae87", "addresses": ["3B3exeHEkCGHq93A7SA5SVuDBvyR9rHVKJ"], "asm": "OP_HASH160 66a05e1822d33cf9caab78f3f184ac4ead2e1eae OP_EQUAL", "type": "scripthash"}, "value": 0.095, "n": 0}, {"scriptPubKey": {"reqSigs": 1, "hex": "0020701a8d401c84fb13e6baf169d59684e17abd9fa216c8cc5b9fc63d622ff8c58d", "addresses": ["bc1qwqdg6squsna38e46795at95yu9atm8azzmyvckulcc7kytlcckxswvvzej"], "asm": "0 701a8d401c84fb13e6baf169d59684e17abd9fa216c8cc5b9fc63d622ff8c58d", "type": "witness_v0_scripthash"}, "value": 0.1169, "n": 1}], "hex": "0100000000010141e055e16fd1ab08d34974c1f0df07764b7b2c3cf4596236fb0f72ab6879589c0100000000ffffffff0260f590000000000017a91466a05e1822d33cf9caab78f3f184ac4ead2e1eae871060b20000000000220020701a8d401c84fb13e6baf169d59684e17abd9fa216c8cc5b9fc63d622ff8c58d0400483045022100b4b45fb6c1397ddf5109772783e73fafd02457db9d10a864462b8afda6daf26a022016155e5c695fe89a596947a8ad1eeeb5b3e4724ffa8388b7ac642d6d36ca289101473044022052307e80acf84c2e021b17d76bc900ba3cc7c28106a5c11e3460157d94f060df022044d7b33bc4b191dd9f0129df9630d19cd579b73f4d39ee6e5a088c01ef463023016952210375e00eb72e29da82b89367947f29ef34afb75e8654f6ea368e0acdfd92976b7c2103a1b26313f430c4b15bb1fdce663207659d8cac749a0e53d70eff01874496feff2103c96d495bfdd5ba4145e3e046fee45e84a8a48ad05bd8dbb395c011a32cf9f88053ae00000000", "vin": [{"txinwitness": ["", "3045022100b4b45fb6c1397ddf5109772783e73fafd02457db9d10a864462b8afda6daf26a022016155e5c695fe89a596947a8ad1eeeb5b3e4724ffa8388b7ac642d6d36ca289101", "3044022052307e80acf84c2e021b17d76bc900ba3cc7c28106a5c11e3460157d94f060df022044d7b33bc4b191dd9f0129df9630d19cd579b73f4d39ee6e5a088c01ef46302301", "52210375e00eb72e29da82b89367947f29ef34afb75e8654f6ea368e0acdfd92976b7c2103a1b26313f430c4b15bb1fdce663207659d8cac749a0e53d70eff01874496feff2103c96d495bfdd5ba4145e3e046fee45e84a8a48ad05bd8dbb395c011a32cf9f88053ae"], "sequence": 4294967295, "scriptSig": {"hex": "", "asm": ""}, "vout": 1, "txid": "9c587968ab720ffb366259f43c2c7b4b7607dff0c17449d308abd16fe155e041"}], "txid": "565692afbd9520d36a551498213093be901a5d39e91c25b7ad8a57b2c82208b9", "blocktime": 1537870564, "version": 1, "confirmations": 11515, "time": 1537870564, "locktime": 0, "vsize": 190, "size": 381}