{"hash": "5658ad9c8e9d4a686ae33c7eb6d6b986043276e7484614535f95738d0d4fd56c", "blockhash": "0000000000000000001e0dab787dd257d1dbfcb92a98c2207d5e1078be1f4165", "vout": [{"scriptPubKey": {"reqSigs": 1, "hex": "a9146ab26ad209b8d581c68af20ee6bd5e3c59b35da087", "addresses": ["3BRBHXWZoMa1vecTBKEnNcEAd95Q1qKniQ"], "asm": "OP_HASH160 6ab26ad209b8d581c68af20ee6bd5e3c59b35da0 OP_EQUAL", "type": "scripthash"}, "value": 0.26687671, "n": 0}, {"scriptPubKey": {"reqSigs": 1, "hex": "76a914bdfb518c66eb1c4151192dede0e89a573cb1c49788ac", "addresses": ["1JKXnB99RRqQJC6ak7BvSMQGpt65EuWwgP"], "asm": "OP_DUP OP_HASH160 bdfb518c66eb1c4151192dede0e89a573cb1c497 OP_EQUALVERIFY OP_CHECKSIG", "type": "pubkeyhash"}, "value": 2.03310973, "n": 1}], "hex": "01000000012c1e17ff1faec3c2dd0889c31e54c7e1a19101d69ac4b1177c5f8c73974856c6010000006b483045022100dcf048f2127556cc910fe5282a955d43e01338419d2b87465c2724e6348bbb8f02204ffaa3bb3026611e65c87646af7d62d9ea53c25a48ab34f40f71567106bfbdcf0121039522614f584ee401028e8b23a11ec04c686b0950f9635cd970b24e658e242c5fffffffff02b73897010000000017a9146ab26ad209b8d581c68af20ee6bd5e3c59b35da0877d471e0c000000001976a914bdfb518c66eb1c4151192dede0e89a573cb1c49788ac00000000", "vin": [{"sequence": 4294967295, "scriptSig": {"hex": "483045022100dcf048f2127556cc910fe5282a955d43e01338419d2b87465c2724e6348bbb8f02204ffaa3bb3026611e65c87646af7d62d9ea53c25a48ab34f40f71567106bfbdcf0121039522614f584ee401028e8b23a11ec04c686b0950f9635cd970b24e658e242c5f", "asm": "3045022100dcf048f2127556cc910fe5282a955d43e01338419d2b87465c2724e6348bbb8f02204ffaa3bb3026611e65c87646af7d62d9ea53c25a48ab34f40f71567106bfbdcf[ALL] 039522614f584ee401028e8b23a11ec04c686b0950f9635cd970b24e658e242c5f"}, "vout": 1, "txid": "c6564897738c5f7c17b1c49ad60191a1e1c7541ec38908ddc2c3ae1fff171e2c"}], "txid": "5658ad9c8e9d4a686ae33c7eb6d6b986043276e7484614535f95738d0d4fd56c", "blocktime": 1537872475, "version": 1, "confirmations": 11486, "time": 1537872475, "locktime": 0, "vsize": 224, "size": 224}