{"hash": "5659f0429040a7d18127b988a660c075bd0a4660731b6f9572ea304af882053b", "blockhash": "000000000000000000022b45ed06c6f4ccd3cf7fb5ba4856ebd2e58215665228", "vout": [{"scriptPubKey": {"reqSigs": 1, "hex": "76a914d48a2b2448f96b3b17d1aab6e3040382e6916eef88ac", "addresses": ["1LNomnYi57V6HuWSQxNeeqgoNjusyYMFWe"], "asm": "OP_DUP OP_HASH160 d48a2b2448f96b3b17d1aab6e3040382e6916eef OP_EQUALVERIFY OP_CHECKSIG", "type": "pubkeyhash"}, "value": 0.00411238, "n": 0}], "hex": "0200000001b33b89fc79408925f63ca0f9903eb27031d5ac58e37376a91b8cd17647a90001000000006a47304402206a91f12ec2c1ad3dd29b3b59ea05cb21e942db2ed7e04b642036739d572573d302207c115e9192886755867038842782fccb4598557236e9fb08d75cbbc5e78f19f30121024a433e3804d4e26290a40249eea9c21fe789d6d2802e8434ef86879c1f71ad64ffffffff0166460600000000001976a914d48a2b2448f96b3b17d1aab6e3040382e6916eef88ac00000000", "vin": [{"sequence": 4294967295, "scriptSig": {"hex": "47304402206a91f12ec2c1ad3dd29b3b59ea05cb21e942db2ed7e04b642036739d572573d302207c115e9192886755867038842782fccb4598557236e9fb08d75cbbc5e78f19f30121024a433e3804d4e26290a40249eea9c21fe789d6d2802e8434ef86879c1f71ad64", "asm": "304402206a91f12ec2c1ad3dd29b3b59ea05cb21e942db2ed7e04b642036739d572573d302207c115e9192886755867038842782fccb4598557236e9fb08d75cbbc5e78f19f3[ALL] 024a433e3804d4e26290a40249eea9c21fe789d6d2802e8434ef86879c1f71ad64"}, "vout": 0, "txid": "0100a94776d18c1ba97673e358acd53170b23e90f9a03cf625894079fc893bb3"}], "txid": "5659f0429040a7d18127b988a660c075bd0a4660731b6f9572ea304af882053b", "blocktime": 1537869901, "version": 2, "confirmations": 11522, "time": 1537869901, "locktime": 0, "vsize": 191, "size": 191}