{"hash": "565b67032db42b3670a749385810379ec02c4878d9f353d222cf78de448a8c53", "blockhash": "000000000000000000022b45ed06c6f4ccd3cf7fb5ba4856ebd2e58215665228", "vout": [{"scriptPubKey": {"reqSigs": 1, "hex": "a914b61034e5fe5a5febf9a12e8989bbd6afbbd8d18387", "addresses": ["3JHgKWjyRmDbiSGSUEA2mcimzt6r4iiCVj"], "asm": "OP_HASH160 b61034e5fe5a5febf9a12e8989bbd6afbbd8d183 OP_EQUAL", "type": "scripthash"}, "value": 0.004635, "n": 0}, {"scriptPubKey": {"reqSigs": 1, "hex": "76a91465c956503d504a2264b67f9f20ec3f7682e94b3788ac", "addresses": ["1AHCSXWtDPUpijXbmJ91ZRtLDs999cVDoB"], "asm": "OP_DUP OP_HASH160 65c956503d504a2264b67f9f20ec3f7682e94b37 OP_EQUALVERIFY OP_CHECKSIG", "type": "pubkeyhash"}, "value": 0.00946288, "n": 1}], "hex": "0100000001afa00554c1e732c24a33800bbf8207032a65cdd86051b0cb827e585ba03b81a4010000006a473044022069402f1809c6690328af67ea10a3af8950a8859624ee38774cdc1bc1860d52ae02207f474657bda8cf80ee04bbd9945a0a263425c1f64d80900af23453ce839f237301210233ff6737e15ab3ea3fb799fe4c2ae55741795bd18ae8a864e99a78d4d0598a55ffffffff028c1207000000000017a914b61034e5fe5a5febf9a12e8989bbd6afbbd8d1838770700e00000000001976a91465c956503d504a2264b67f9f20ec3f7682e94b3788ac00000000", "vin": [{"sequence": 4294967295, "scriptSig": {"hex": "473044022069402f1809c6690328af67ea10a3af8950a8859624ee38774cdc1bc1860d52ae02207f474657bda8cf80ee04bbd9945a0a263425c1f64d80900af23453ce839f237301210233ff6737e15ab3ea3fb799fe4c2ae55741795bd18ae8a864e99a78d4d0598a55", "asm": "3044022069402f1809c6690328af67ea10a3af8950a8859624ee38774cdc1bc1860d52ae02207f474657bda8cf80ee04bbd9945a0a263425c1f64d80900af23453ce839f2373[ALL] 0233ff6737e15ab3ea3fb799fe4c2ae55741795bd18ae8a864e99a78d4d0598a55"}, "vout": 1, "txid": "a4813ba05b587e82cbb05160d8cd652a030782bf0b80334ac232e7c15405a0af"}], "txid": "565b67032db42b3670a749385810379ec02c4878d9f353d222cf78de448a8c53", "blocktime": 1537869901, "version": 1, "confirmations": 11522, "time": 1537869901, "locktime": 0, "vsize": 223, "size": 223}