{"hash": "39ee9a5550a681951c730281e8a475970a468450ed87c3b98cc68795e7d2b83a", "blockhash": "0000000000000000001f0ddff1eddb255c1121bcd4da4f1bc9a0da00cae72433", "vout": [{"scriptPubKey": {"reqSigs": 1, "hex": "a9148bf7888f13db267bbe3514661d3484890ae7f75b87", "addresses": ["3ET6P8eSr1UTmhshuCShqsZdHYERFevHR1"], "asm": "OP_HASH160 8bf7888f13db267bbe3514661d3484890ae7f75b OP_EQUAL", "type": "scripthash"}, "value": 0.01655781, "n": 0}, {"scriptPubKey": {"reqSigs": 1, "hex": "76a9143c8814cc6e1d220d52c713d787761915fccb3e5488ac", "addresses": ["16X4ZbptRduSA2mWGH2PZsnZXWXCv5spGt"], "asm": "OP_DUP OP_HASH160 3c8814cc6e1d220d52c713d787761915fccb3e54 OP_EQUALVERIFY OP_CHECKSIG", "type": "pubkeyhash"}, "value": 0.00377346, "n": 1}], "hex": "02000000000102c3175e4b42fa89aa8e9f17f139a205636ee778e32492c29d401d0a2a032acdb501000000171600147775c18efb6209bbca91f842fddb683fa18e9124feffffffd6231d6df9bca6bad5f81d30295f896b495ad919b21d26e25a177eb7759d82960000000017160014160a04307bb89efa8f2cc2ca93ff4741757b5ffbfeffffff02e54319000000000017a9148bf7888f13db267bbe3514661d3484890ae7f75b8702c20500000000001976a9143c8814cc6e1d220d52c713d787761915fccb3e5488ac02483045022100af210d4b80d2605b1fa720e52b9dd2457f0d356cd59a600c2c35e932bbad3d3802206a87a8e61f15f126c4107e9d16c64adffa7924e1225a7f581bdef601b3757cb801210310f2af4daa899cf71341ac419664f6c916e30c985a85cdec5440c899e80bea3802483045022100c12250052c493cc39df0e3355d628a7542c0ffa631eaa7edccc10c6c27e485f402207c8b457ccdaa01dd9495b79af2372d7ae2163249b65ff1c158d4626702fe25770121039f2c19e5a664c721f6e5640cdd393bd9f3618b6ceb7736fa3ab215484c96b7c111490800", "vin": [{"txinwitness": ["3045022100af210d4b80d2605b1fa720e52b9dd2457f0d356cd59a600c2c35e932bbad3d3802206a87a8e61f15f126c4107e9d16c64adffa7924e1225a7f581bdef601b3757cb801", "0310f2af4daa899cf71341ac419664f6c916e30c985a85cdec5440c899e80bea38"], "sequence": 4294967294, "scriptSig": {"hex": "1600147775c18efb6209bbca91f842fddb683fa18e9124", "asm": "00147775c18efb6209bbca91f842fddb683fa18e9124"}, "vout": 1, "txid": "b5cd2a032a0a1d409dc29224e378e76e6305a239f1179f8eaa89fa424b5e17c3"}, {"txinwitness": ["3045022100c12250052c493cc39df0e3355d628a7542c0ffa631eaa7edccc10c6c27e485f402207c8b457ccdaa01dd9495b79af2372d7ae2163249b65ff1c158d4626702fe257701", "039f2c19e5a664c721f6e5640cdd393bd9f3618b6ceb7736fa3ab215484c96b7c1"], "sequence": 4294967294, "scriptSig": {"hex": "160014160a04307bb89efa8f2cc2ca93ff4741757b5ffb", "asm": "0014160a04307bb89efa8f2cc2ca93ff4741757b5ffb"}, "vout": 0, "txid": "96829d75b77e175ae2261db219d95a496b895f29301df8d5baa6bcf96d1d23d6"}], "txid": "56644972545963344b4d8edd9de9688aa440352895da0660af61dfa10143ffa4", "blocktime": 1537872018, "version": 2, "confirmations": 11489, "time": 1537872018, "locktime": 542993, "vsize": 259, "size": 422}