{"hash": "5e52a3df88171062102e6c554222c837243ef849a707567ddd63e50e25c02b6b", "blockhash": "0000000000000000001e0dab787dd257d1dbfcb92a98c2207d5e1078be1f4165", "vout": [{"scriptPubKey": {"reqSigs": 1, "hex": "a91400bbc5ae0fb0a43653a04eaa1335aef00a41cadf87", "addresses": ["31ktsBdNwGpVUCdtfeXB2ahHUetZRpDtC9"], "asm": "OP_HASH160 00bbc5ae0fb0a43653a04eaa1335aef00a41cadf OP_EQUAL", "type": "scripthash"}, "value": 0.01053955, "n": 0}, {"scriptPubKey": {"reqSigs": 1, "hex": "76a91431f1a4bb4540390e0f237b537be2855dd5925be388ac", "addresses": ["15Z5b5pt8qsQS2qibw9r8sH8W2RfzfPL73"], "asm": "OP_DUP OP_HASH160 31f1a4bb4540390e0f237b537be2855dd5925be3 OP_EQUALVERIFY OP_CHECKSIG", "type": "pubkeyhash"}, "value": 0.00984972, "n": 1}], "hex": "02000000000102013dad832d1bb2465444f61bb6d0c0329710dc37a7a882091007f819629713ac010000001716001468808a24ec2d1dc1758fdb53aa549f63f1d84c9cfeffffffdb613c5ffb9b237ba0ae83e2516e8d98bc14a45455774c97d720a054f2e3ee2200000000171600145aea8e0e76dfbfe9323afbc734c80275b58f4e2efeffffff02031510000000000017a91400bbc5ae0fb0a43653a04eaa1335aef00a41cadf878c070f00000000001976a91431f1a4bb4540390e0f237b537be2855dd5925be388ac024830450221009ece3ab119e933954a4a09e989e8062fc4374d399dab0677c474f410976ef5c902203a25e55df3cb073657c8745cb3fa0785145a6067a945598531772c1a538a43c3012102a2830a74a2770efcee2eb52cd783f4c2a4fcc90c7dcb192a9bbe0b354b082ca7024830450221008c033b7d1e9c6d1d2d1785326bae528d453a7d3642e5dd3ad7effc8d81d50ca002202390f1843284dfa893dd438a2b9d727881e6d7baf06a07ed2e60ecc47e47b98901210399dac57147d4cdca5222dccd4d25a296c170b43de9b40e036c5b284a1dbab60212490800", "vin": [{"txinwitness": ["30450221009ece3ab119e933954a4a09e989e8062fc4374d399dab0677c474f410976ef5c902203a25e55df3cb073657c8745cb3fa0785145a6067a945598531772c1a538a43c301", "02a2830a74a2770efcee2eb52cd783f4c2a4fcc90c7dcb192a9bbe0b354b082ca7"], "sequence": 4294967294, "scriptSig": {"hex": "16001468808a24ec2d1dc1758fdb53aa549f63f1d84c9c", "asm": "001468808a24ec2d1dc1758fdb53aa549f63f1d84c9c"}, "vout": 1, "txid": "ac13976219f807100982a8a737dc109732c0d0b61bf6445446b21b2d83ad3d01"}, {"txinwitness": ["30450221008c033b7d1e9c6d1d2d1785326bae528d453a7d3642e5dd3ad7effc8d81d50ca002202390f1843284dfa893dd438a2b9d727881e6d7baf06a07ed2e60ecc47e47b98901", "0399dac57147d4cdca5222dccd4d25a296c170b43de9b40e036c5b284a1dbab602"], "sequence": 4294967294, "scriptSig": {"hex": "1600145aea8e0e76dfbfe9323afbc734c80275b58f4e2e", "asm": "00145aea8e0e76dfbfe9323afbc734c80275b58f4e2e"}, "vout": 0, "txid": "22eee3f254a020d7974c775554a414bc988d6e51e283aea07b239bfb5f3c61db"}], "txid": "56694d3dd03d7b5f735c5fe76dd353faaa1a4707c19cb3dbebf7cd088496e8c3", "blocktime": 1537872475, "version": 2, "confirmations": 11487, "time": 1537872475, "locktime": 542994, "vsize": 259, "size": 422}