{"hash": "566ed9da705f1369366d6c09a8122f9d3f9e0a326cec8c685155b3fe24ec8264", "blockhash": "0000000000000000000baef3f32e3676a92c3b2e5da21b426e4f302fc371ce76", "vout": [{"scriptPubKey": {"reqSigs": 1, "hex": "a9141fc9cd2b27c09ff667aa58b324f2b1a18a9f139d87", "addresses": ["34b6cuB1F2rjVAhkuV68Ta2tg5V6BVgm2W"], "asm": "OP_HASH160 1fc9cd2b27c09ff667aa58b324f2b1a18a9f139d OP_EQUAL", "type": "scripthash"}, "value": 0.0028311, "n": 0}, {"scriptPubKey": {"reqSigs": 1, "hex": "a914419e2979d240776e06c31518ef0e251584dbf63787", "addresses": ["37fyKJUqYnDupqAVGhJUQngNYxxde9Kfr9"], "asm": "OP_HASH160 419e2979d240776e06c31518ef0e251584dbf637 OP_EQUAL", "type": "scripthash"}, "value": 9.922e-05, "n": 1}], "hex": "01000000014ee286b739be241b3f95cfc9c1de7ce48828f2bf470792b06a325857322a6c0700000000fc004730440220757b98c70740ae888b7d18dde0bad05878c7eee5669acfe320fd36332a53f0b802200d3342e35684900916566a651d00821797000dab8d3a468fd57408f58499995b0147304402203582bd20ad3e8724e90e3142171c1d7687d2bef810aa4d7740481961020a190502200a2daa8c9b532d3824fa2c7a0e67b7a8d21dc2d87f5795c17d298fcceb7b398c014c695221027ec4f18bee33ff8eba230560a8354cae2ebbf246be12e352f43ac81a013256022103c7bd98fbff03736fe4f8a227d8e48441116e804e1013f5ea2073cf33da98748321033894358034cb452ba632f01f3623d663c76ea31024417da19ab9f432cffddcf453aeffffffff02e65104000000000017a9141fc9cd2b27c09ff667aa58b324f2b1a18a9f139d87c22600000000000017a914419e2979d240776e06c31518ef0e251584dbf6378700000000", "vin": [{"sequence": 4294967295, "scriptSig": {"hex": "004730440220757b98c70740ae888b7d18dde0bad05878c7eee5669acfe320fd36332a53f0b802200d3342e35684900916566a651d00821797000dab8d3a468fd57408f58499995b0147304402203582bd20ad3e8724e90e3142171c1d7687d2bef810aa4d7740481961020a190502200a2daa8c9b532d3824fa2c7a0e67b7a8d21dc2d87f5795c17d298fcceb7b398c014c695221027ec4f18bee33ff8eba230560a8354cae2ebbf246be12e352f43ac81a013256022103c7bd98fbff03736fe4f8a227d8e48441116e804e1013f5ea2073cf33da98748321033894358034cb452ba632f01f3623d663c76ea31024417da19ab9f432cffddcf453ae", "asm": "0 30440220757b98c70740ae888b7d18dde0bad05878c7eee5669acfe320fd36332a53f0b802200d3342e35684900916566a651d00821797000dab8d3a468fd57408f58499995b[ALL] 304402203582bd20ad3e8724e90e3142171c1d7687d2bef810aa4d7740481961020a190502200a2daa8c9b532d3824fa2c7a0e67b7a8d21dc2d87f5795c17d298fcceb7b398c[ALL] 5221027ec4f18bee33ff8eba230560a8354cae2ebbf246be12e352f43ac81a013256022103c7bd98fbff03736fe4f8a227d8e48441116e804e1013f5ea2073cf33da98748321033894358034cb452ba632f01f3623d663c76ea31024417da19ab9f432cffddcf453ae"}, "vout": 0, "txid": "076c2a325758326ab0920747bff22888e47cdec1c9cf953f1b24be39b786e24e"}], "txid": "566ed9da705f1369366d6c09a8122f9d3f9e0a326cec8c685155b3fe24ec8264", "blocktime": 1537876114, "version": 1, "confirmations": 11462, "time": 1537876114, "locktime": 0, "vsize": 367, "size": 367}