{"hash": "5670ae8c3e26386992231281a4688493a465af706cf54456e6264259650b1ed3", "blockhash": "0000000000000000001cda96e906b7601b7a6fb1a3b62bca570a9e5d8f4b3de1", "vout": [{"scriptPubKey": {"reqSigs": 1, "hex": "76a914e0c76689d97203d89ddebf3b4a12a0bc497b415e88ac", "addresses": ["1MVXEZdCPtbBZUGycxnG3BjMWb62voAJfQ"], "asm": "OP_DUP OP_HASH160 e0c76689d97203d89ddebf3b4a12a0bc497b415e OP_EQUALVERIFY OP_CHECKSIG", "type": "pubkeyhash"}, "value": 0.00246354, "n": 0}, {"scriptPubKey": {"reqSigs": 1, "hex": "76a914cfebbdd3390a6f7eb1da6f6f9bf5cec01b09f99488ac", "addresses": ["1KxPHKKEnauQrAWQSKbvw3uFYfsiQgXiQs"], "asm": "OP_DUP OP_HASH160 cfebbdd3390a6f7eb1da6f6f9bf5cec01b09f994 OP_EQUALVERIFY OP_CHECKSIG", "type": "pubkeyhash"}, "value": 0.04282842, "n": 1}], "hex": "010000000106c68f2d86a4135ec4554768dc6399ce07330dede3cf9121b5339db744f6302d010000006b4830450221008113f395d531316a60cdd77752e3e265cba0c140228e7b139ee03a0536a961b60220138e93a9b2ba4a2598a5970840ff287753e91f5e6e34f248809a5157d3448603012102d97589e611a2a9bf2902b206db918be29d0623850c15cb4a26c9942d5f91eb33ffffffff0252c20300000000001976a914e0c76689d97203d89ddebf3b4a12a0bc497b415e88acda594100000000001976a914cfebbdd3390a6f7eb1da6f6f9bf5cec01b09f99488ac00000000", "vin": [{"sequence": 4294967295, "scriptSig": {"hex": "4830450221008113f395d531316a60cdd77752e3e265cba0c140228e7b139ee03a0536a961b60220138e93a9b2ba4a2598a5970840ff287753e91f5e6e34f248809a5157d3448603012102d97589e611a2a9bf2902b206db918be29d0623850c15cb4a26c9942d5f91eb33", "asm": "30450221008113f395d531316a60cdd77752e3e265cba0c140228e7b139ee03a0536a961b60220138e93a9b2ba4a2598a5970840ff287753e91f5e6e34f248809a5157d3448603[ALL] 02d97589e611a2a9bf2902b206db918be29d0623850c15cb4a26c9942d5f91eb33"}, "vout": 1, "txid": "2d30f644b79d33b52191cfe3ed0d3307ce9963dc684755c45e13a4862d8fc606"}], "txid": "5670ae8c3e26386992231281a4688493a465af706cf54456e6264259650b1ed3", "blocktime": 1537873282, "version": 1, "confirmations": 11481, "time": 1537873282, "locktime": 0, "vsize": 226, "size": 226}