{"hash": "5671950c7546a1970cfb0ca3abed115e626dd39ff2d6eefbfcc1a46726dc14ee", "blockhash": "0000000000000000001e0dab787dd257d1dbfcb92a98c2207d5e1078be1f4165", "vout": [{"scriptPubKey": {"reqSigs": 1, "hex": "a914dd52b06b49fc9a860ed5329de02c4a1fe84a32d087", "addresses": ["3MsGKHCzoKLYptTsT5GRprEVD8MbEnNqhc"], "asm": "OP_HASH160 dd52b06b49fc9a860ed5329de02c4a1fe84a32d0 OP_EQUAL", "type": "scripthash"}, "value": 0.00016701, "n": 0}, {"scriptPubKey": {"reqSigs": 1, "hex": "76a9146438611929060118ea682dd0559e0e906367360688ac", "addresses": ["1A8v7V7rpN5KFF94X2nFWBPBsecbUBbYpa"], "asm": "OP_DUP OP_HASH160 6438611929060118ea682dd0559e0e9063673606 OP_EQUALVERIFY OP_CHECKSIG", "type": "pubkeyhash"}, "value": 1.42206313, "n": 1}], "hex": "0100000001cc1dec649e0d5f07aea9801070336562adf2df8c02635bb52290069cdff51afe010000006b4830450221009ce7d180fa80dd69416d37f7927d56407afe57618770cda2f0410d7139ddc31f022064cdbb6582b05cd8768d52cd718a28c7e963d9fb4cf195126fbc45e770e840310121024610d836d662dded124c10c466f9be04c3ec0d4aeae25513d2fd1a49dac2196affffffff023d4100000000000017a914dd52b06b49fc9a860ed5329de02c4a1fe84a32d08769e57908000000001976a9146438611929060118ea682dd0559e0e906367360688ac00000000", "vin": [{"sequence": 4294967295, "scriptSig": {"hex": "4830450221009ce7d180fa80dd69416d37f7927d56407afe57618770cda2f0410d7139ddc31f022064cdbb6582b05cd8768d52cd718a28c7e963d9fb4cf195126fbc45e770e840310121024610d836d662dded124c10c466f9be04c3ec0d4aeae25513d2fd1a49dac2196a", "asm": "30450221009ce7d180fa80dd69416d37f7927d56407afe57618770cda2f0410d7139ddc31f022064cdbb6582b05cd8768d52cd718a28c7e963d9fb4cf195126fbc45e770e84031[ALL] 024610d836d662dded124c10c466f9be04c3ec0d4aeae25513d2fd1a49dac2196a"}, "vout": 1, "txid": "fe1af5df9c069022b55b63028cdff2ad626533701080a9ae075f0d9e64ec1dcc"}], "txid": "5671950c7546a1970cfb0ca3abed115e626dd39ff2d6eefbfcc1a46726dc14ee", "blocktime": 1537872475, "version": 1, "confirmations": 11487, "time": 1537872475, "locktime": 0, "vsize": 224, "size": 224}