{"hash": "56743a41932ab840c92b93142225b5f597b88b250f259f6a2b1a2deeac66166b", "blockhash": "000000000000000000022b45ed06c6f4ccd3cf7fb5ba4856ebd2e58215665228", "vout": [{"scriptPubKey": {"reqSigs": 1, "hex": "76a914d243e6abb9a60fbff430b421d2df4b7d59ec186088ac", "addresses": ["1LAnF8h3qMGx3TSwNUHVneBZUEpwE4gu3D"], "asm": "OP_DUP OP_HASH160 d243e6abb9a60fbff430b421d2df4b7d59ec1860 OP_EQUALVERIFY OP_CHECKSIG", "type": "pubkeyhash"}, "value": 0.00076972, "n": 0}, {"scriptPubKey": {"reqSigs": 1, "hex": "76a9143851f34d13937b673a7d24a1950bb5b21ce94af388ac", "addresses": ["168o1kqNquEJeR9vosUB5fw4eAwcVAgh8P"], "asm": "OP_DUP OP_HASH160 3851f34d13937b673a7d24a1950bb5b21ce94af3 OP_EQUALVERIFY OP_CHECKSIG", "type": "pubkeyhash"}, "value": 5.46e-06, "n": 1}, {"scriptPubKey": {"type": "nulldata", "hex": "6a146f6d6e69000000000000001f0000002a5fe88dbd", "asm": "OP_RETURN 6f6d6e69000000000000001f0000002a5fe88dbd"}, "value": 0.0, "n": 2}], "hex": "0100000002436ed6812cc93f364d8de0485029ba22282e937e3a3b9b47149b917efb9f4f7a010000006b483045022100ccbb128d2021b338903544774ccf837af195b328b1d63b8e61f359dbd07fb952022026062e1c0b702f0ab7fb767f52da9407984fd942974460a2ad78f5f48181e9dd012102b28f2d8d6ce4729d0a141ea96e933767aacdfb25904e09fd178f14f2f518c73fffffffff7e0658e1fc9131a408a992423063a4b43f9afa1fbe2e3efaf13864f5a13db234000000006b483045022100dc27d1897423a4031f0cbccbeda13994f6258ed846fa5cd2bc205ab767f4986502200cae10b04c5a26112684330a93770af3cfe9b5f287fa38cca0be133aa94a8fe401210271977291b74f1f5f5c42157e8aae804664eaaeccfd097918450d37f28fb94d77ffffffff03ac2c0100000000001976a914d243e6abb9a60fbff430b421d2df4b7d59ec186088ac22020000000000001976a9143851f34d13937b673a7d24a1950bb5b21ce94af388ac0000000000000000166a146f6d6e69000000000000001f0000002a5fe88dbd00000000", "vin": [{"sequence": 4294967295, "scriptSig": {"hex": "483045022100ccbb128d2021b338903544774ccf837af195b328b1d63b8e61f359dbd07fb952022026062e1c0b702f0ab7fb767f52da9407984fd942974460a2ad78f5f48181e9dd012102b28f2d8d6ce4729d0a141ea96e933767aacdfb25904e09fd178f14f2f518c73f", "asm": "3045022100ccbb128d2021b338903544774ccf837af195b328b1d63b8e61f359dbd07fb952022026062e1c0b702f0ab7fb767f52da9407984fd942974460a2ad78f5f48181e9dd[ALL] 02b28f2d8d6ce4729d0a141ea96e933767aacdfb25904e09fd178f14f2f518c73f"}, "vout": 1, "txid": "7a4f9ffb7e919b14479b3b3a7e932e2822ba295048e08d4d363fc92c81d66e43"}, {"sequence": 4294967295, "scriptSig": {"hex": "483045022100dc27d1897423a4031f0cbccbeda13994f6258ed846fa5cd2bc205ab767f4986502200cae10b04c5a26112684330a93770af3cfe9b5f287fa38cca0be133aa94a8fe401210271977291b74f1f5f5c42157e8aae804664eaaeccfd097918450d37f28fb94d77", "asm": "3045022100dc27d1897423a4031f0cbccbeda13994f6258ed846fa5cd2bc205ab767f4986502200cae10b04c5a26112684330a93770af3cfe9b5f287fa38cca0be133aa94a8fe4[ALL] 0271977291b74f1f5f5c42157e8aae804664eaaeccfd097918450d37f28fb94d77"}, "vout": 0, "txid": "34b23da1f56438f1fa3e2ebe1ffa9a3fb4a463304292a908a43191fce158067e"}], "txid": "56743a41932ab840c92b93142225b5f597b88b250f259f6a2b1a2deeac66166b", "blocktime": 1537869901, "version": 1, "confirmations": 11522, "time": 1537869901, "locktime": 0, "vsize": 405, "size": 405}