{"hash": "567658a5e9159b14c9ca4dc0c18e8b337b5772b8873452a98f9a72e884c4fe7e", "blockhash": "0000000000000000001f0ddff1eddb255c1121bcd4da4f1bc9a0da00cae72433", "vout": [{"scriptPubKey": {"reqSigs": 1, "hex": "76a91427c53708323d47fea0a1b9f4467828cbf903e54888ac", "addresses": ["14dHcDdA6dbbqZbCrz8SGQFKHhu6zmCaq2"], "asm": "OP_DUP OP_HASH160 27c53708323d47fea0a1b9f4467828cbf903e548 OP_EQUALVERIFY OP_CHECKSIG", "type": "pubkeyhash"}, "value": 0.00026035, "n": 0}, {"scriptPubKey": {"reqSigs": 1, "hex": "a91428aed08a0d119483e22f174006b7f1da10cba90187", "addresses": ["35Q8NYnK6y7nEqiq3T8chFTPR6hTzyJhZD"], "asm": "OP_HASH160 28aed08a0d119483e22f174006b7f1da10cba901 OP_EQUAL", "type": "scripthash"}, "value": 0.013036, "n": 1}], "hex": "01000000011ebc7ea3e7381a8a3a961baea28bf99031f7df07bba3e54c0b2b353bdeaf92ee010000006b483045022100ffb5b1314d8634480d63542dc7ddbf100ef3be4fab41d1e1e9e5c9f650597fb10220212ae98eb7ca9c2d1e8bbd8c27c9976c80c1ebe6c5be888b75aeaef1eebbc657012103ad14dcb4db633c511dc2c59187b4f3a14be887cd8cf64bb5a1b0ef8b346ef2edffffffff02b3650000000000001976a91427c53708323d47fea0a1b9f4467828cbf903e54888ac30e413000000000017a91428aed08a0d119483e22f174006b7f1da10cba9018700000000", "vin": [{"sequence": 4294967295, "scriptSig": {"hex": "483045022100ffb5b1314d8634480d63542dc7ddbf100ef3be4fab41d1e1e9e5c9f650597fb10220212ae98eb7ca9c2d1e8bbd8c27c9976c80c1ebe6c5be888b75aeaef1eebbc657012103ad14dcb4db633c511dc2c59187b4f3a14be887cd8cf64bb5a1b0ef8b346ef2ed", "asm": "3045022100ffb5b1314d8634480d63542dc7ddbf100ef3be4fab41d1e1e9e5c9f650597fb10220212ae98eb7ca9c2d1e8bbd8c27c9976c80c1ebe6c5be888b75aeaef1eebbc657[ALL] 03ad14dcb4db633c511dc2c59187b4f3a14be887cd8cf64bb5a1b0ef8b346ef2ed"}, "vout": 1, "txid": "ee92afde3b352b0b4ce5a3bb07dff73190f98ba2ae1b963a8a1a38e7a37ebc1e"}], "txid": "567658a5e9159b14c9ca4dc0c18e8b337b5772b8873452a98f9a72e884c4fe7e", "blocktime": 1537872018, "version": 1, "confirmations": 11489, "time": 1537872018, "locktime": 0, "vsize": 224, "size": 224}