{"hash": "567d988a92d2d84a29b15536d9c31761d0591c604f488e12c7f45442a8187388", "blockhash": "000000000000000000022b45ed06c6f4ccd3cf7fb5ba4856ebd2e58215665228", "vout": [{"scriptPubKey": {"reqSigs": 1, "hex": "76a9149970aedd30af7da5dd54f6fe6cbdde41e017620088ac", "addresses": ["1EzKNhyfqneUHCbZyWGC3Ekm4cjb2LmU6p"], "asm": "OP_DUP OP_HASH160 9970aedd30af7da5dd54f6fe6cbdde41e0176200 OP_EQUALVERIFY OP_CHECKSIG", "type": "pubkeyhash"}, "value": 0.01191589, "n": 0}, {"scriptPubKey": {"reqSigs": 1, "hex": "76a914dc98025256d83861919e040deecb4aec0a1e09a088ac", "addresses": ["1M7PkyirfQnR5kwjLSuweCRRc4ApidPdNW"], "asm": "OP_DUP OP_HASH160 dc98025256d83861919e040deecb4aec0a1e09a0 OP_EQUALVERIFY OP_CHECKSIG", "type": "pubkeyhash"}, "value": 0.01462324, "n": 1}], "hex": "010000000121852fea098db1c088857cd3d796d0aab52fcdfae089d1946c52f9f40d44066c010000006a47304402200425d8268c9b4b3e62425ff9f890d646857f8bcb1d21443ff1c1cc8f93dc036e022079f4a82242a45536a140c14d8644a946bae44c60ab61868b370556c07a4a5b30012103d15e986f687c800251e84895656b201046938073252fa59c51d9834ea06e3803ffffffff02a52e1200000000001976a9149970aedd30af7da5dd54f6fe6cbdde41e017620088ac34501600000000001976a914dc98025256d83861919e040deecb4aec0a1e09a088ac00000000", "vin": [{"sequence": 4294967295, "scriptSig": {"hex": "47304402200425d8268c9b4b3e62425ff9f890d646857f8bcb1d21443ff1c1cc8f93dc036e022079f4a82242a45536a140c14d8644a946bae44c60ab61868b370556c07a4a5b30012103d15e986f687c800251e84895656b201046938073252fa59c51d9834ea06e3803", "asm": "304402200425d8268c9b4b3e62425ff9f890d646857f8bcb1d21443ff1c1cc8f93dc036e022079f4a82242a45536a140c14d8644a946bae44c60ab61868b370556c07a4a5b30[ALL] 03d15e986f687c800251e84895656b201046938073252fa59c51d9834ea06e3803"}, "vout": 1, "txid": "6c06440df4f9526c94d189e0facd2fb5aad096d7d37c8588c0b18d09ea2f8521"}], "txid": "567d988a92d2d84a29b15536d9c31761d0591c604f488e12c7f45442a8187388", "blocktime": 1537869901, "version": 1, "confirmations": 11522, "time": 1537869901, "locktime": 0, "vsize": 225, "size": 225}