{"hash": "765c1c4ff29e5709f7ab6d3351ba48ca064d1f9833c7d02f687bddf5fbeec33b", "blockhash": "0000000000000000000dcc0f55137456b1a82d3642486a52398922ac4d620174", "vout": [{"scriptPubKey": {"reqSigs": 1, "hex": "a914b44337f216fcdcf0a5895a72e8c4169a68ef293e87", "addresses": ["3J8A5VuG2KUQmCweiwHBDfv67VqWTciCM2"], "asm": "OP_HASH160 b44337f216fcdcf0a5895a72e8c4169a68ef293e OP_EQUAL", "type": "scripthash"}, "value": 0.00116057, "n": 0}], "hex": "0100000000010118ae191283e85cd6b8d146b17751e9a8608062ede5d82e9e3455b80949a83ccd0000000017160014fe1dca8eaa34b0119db535476a5de09025976026ffffffff0159c501000000000017a914b44337f216fcdcf0a5895a72e8c4169a68ef293e870247304402201c17b3bc629a5141751ebeabddcca0580bebab1d724109e355123a9085db17ab02204e17732e158893495081765d930168cb783c91d9d60637d8d5532aa8a2589ba6012103fe048d3122ecda31ce10cda966d369620465bdf72a8bb4f8b505d7f6f72188c000000000", "vin": [{"txinwitness": ["304402201c17b3bc629a5141751ebeabddcca0580bebab1d724109e355123a9085db17ab02204e17732e158893495081765d930168cb783c91d9d60637d8d5532aa8a2589ba601", "03fe048d3122ecda31ce10cda966d369620465bdf72a8bb4f8b505d7f6f72188c0"], "sequence": 4294967295, "scriptSig": {"hex": "160014fe1dca8eaa34b0119db535476a5de09025976026", "asm": "0014fe1dca8eaa34b0119db535476a5de09025976026"}, "vout": 0, "txid": "cd3ca84909b855349e2ed8e5ed628060a8e95177b146d1b8d65ce8831219ae18"}], "txid": "568193fa60737885fcecc3f573898cf525bd4cf2b2302af1dcc5009c53b2dee7", "blocktime": 1537870268, "version": 1, "confirmations": 11518, "time": 1537870268, "locktime": 0, "vsize": 134, "size": 215}