{"hash": "56937656c042732ed1cb26e20e07fdd463b828aba9f023fb961f5c9d4c958597", "blockhash": "0000000000000000001e0dab787dd257d1dbfcb92a98c2207d5e1078be1f4165", "vout": [{"scriptPubKey": {"reqSigs": 1, "hex": "76a914c738b17de876a91e9c949cfb55e4c2992c6eea2288ac", "addresses": ["1KAPPJ9k71SsZHBDKwiv6ePJXhZqFX5Bim"], "asm": "OP_DUP OP_HASH160 c738b17de876a91e9c949cfb55e4c2992c6eea22 OP_EQUALVERIFY OP_CHECKSIG", "type": "pubkeyhash"}, "value": 0.04534, "n": 0}, {"scriptPubKey": {"reqSigs": 1, "hex": "76a914596915f66c3dbb2dde2ff26f059ccbe53e17643c88ac", "addresses": ["199m2ZaYSDxQY4t6TTnxEmU2aYq5NtuXLW"], "asm": "OP_DUP OP_HASH160 596915f66c3dbb2dde2ff26f059ccbe53e17643c OP_EQUALVERIFY OP_CHECKSIG", "type": "pubkeyhash"}, "value": 0.0229862, "n": 1}], "hex": "0100000001d8c8104a9be621ef1faac78a1e20227cb1527ec2bcc385eb3c38d97d560f5984000000006b4830450221008fec6aea17f7c42a1ca844d5e27ad9c83523f22920c0e9d6010878e25ffa1da0022014a592af98595332ecf98ce4a1277f5dedc979104aa0bb7439075c6dad89c47e012102b193a4533b0d52ac45eed183fcf6f7262cc47fba3ce622ea5839e1a02cd4ef8bffffffff02f02e4500000000001976a914c738b17de876a91e9c949cfb55e4c2992c6eea2288acfc122300000000001976a914596915f66c3dbb2dde2ff26f059ccbe53e17643c88ac00000000", "vin": [{"sequence": 4294967295, "scriptSig": {"hex": "4830450221008fec6aea17f7c42a1ca844d5e27ad9c83523f22920c0e9d6010878e25ffa1da0022014a592af98595332ecf98ce4a1277f5dedc979104aa0bb7439075c6dad89c47e012102b193a4533b0d52ac45eed183fcf6f7262cc47fba3ce622ea5839e1a02cd4ef8b", "asm": "30450221008fec6aea17f7c42a1ca844d5e27ad9c83523f22920c0e9d6010878e25ffa1da0022014a592af98595332ecf98ce4a1277f5dedc979104aa0bb7439075c6dad89c47e[ALL] 02b193a4533b0d52ac45eed183fcf6f7262cc47fba3ce622ea5839e1a02cd4ef8b"}, "vout": 0, "txid": "84590f567dd9383ceb85c3bcc27e52b17c22201e8ac7aa1fef21e69b4a10c8d8"}], "txid": "56937656c042732ed1cb26e20e07fdd463b828aba9f023fb961f5c9d4c958597", "blocktime": 1537872475, "version": 1, "confirmations": 11486, "time": 1537872475, "locktime": 0, "vsize": 226, "size": 226}