{"hash": "5693871e6c60992a90708181ea0047260fe1cb14577221758764a31c16c7ee53", "blockhash": "00000000000000000018f53835495a110e01622372bf6ae95dc86f2b0ab887b0", "vout": [{"scriptPubKey": {"reqSigs": 1, "hex": "76a914ce8c74326fc2bcc9cfaf983a1b7ce3280c99dfe588ac", "addresses": ["1Kq8TRdrXFbQhwnediLPNZKUfiDHRP1WsM"], "asm": "OP_DUP OP_HASH160 ce8c74326fc2bcc9cfaf983a1b7ce3280c99dfe5 OP_EQUALVERIFY OP_CHECKSIG", "type": "pubkeyhash"}, "value": 0.0011472, "n": 0}, {"scriptPubKey": {"reqSigs": 1, "hex": "a914eb103104b02aac0ce2cea86df8256035c5fbef8787", "addresses": ["3P7v7dMAkRmJAWPz4WPQYoG9dM62LZah8q"], "asm": "OP_HASH160 eb103104b02aac0ce2cea86df8256035c5fbef87 OP_EQUAL", "type": "scripthash"}, "value": 0.0032866, "n": 1}], "hex": "01000000016cd8a021e17cc17e1d00bb5a4368d5dbf928e907f7d44eca2275c334c55823a9010000006a47304402205a8f717678b217d610105e88cdd887eb0466f2887e28a478442aba2860c818c402201198cbac37a32ff4edeb8f524e68062ee77849106943af2ffaa80d3da630ed38012103086c7a3402a214b9fae6f54dfde9fcff288bd68d11e68b8d60b69a96b8ed6a16ffffffff0220c00100000000001976a914ce8c74326fc2bcc9cfaf983a1b7ce3280c99dfe588acd40305000000000017a914eb103104b02aac0ce2cea86df8256035c5fbef878700000000", "vin": [{"sequence": 4294967295, "scriptSig": {"hex": "47304402205a8f717678b217d610105e88cdd887eb0466f2887e28a478442aba2860c818c402201198cbac37a32ff4edeb8f524e68062ee77849106943af2ffaa80d3da630ed38012103086c7a3402a214b9fae6f54dfde9fcff288bd68d11e68b8d60b69a96b8ed6a16", "asm": "304402205a8f717678b217d610105e88cdd887eb0466f2887e28a478442aba2860c818c402201198cbac37a32ff4edeb8f524e68062ee77849106943af2ffaa80d3da630ed38[ALL] 03086c7a3402a214b9fae6f54dfde9fcff288bd68d11e68b8d60b69a96b8ed6a16"}, "vout": 1, "txid": "a92358c534c37522ca4ed4f707e928f9dbd568435abb001d7ec17ce121a0d86c"}], "txid": "5693871e6c60992a90708181ea0047260fe1cb14577221758764a31c16c7ee53", "blocktime": 1537870928, "version": 1, "confirmations": 11512, "time": 1537870928, "locktime": 0, "vsize": 223, "size": 223}