{"hash": "56956f955698d079580c549f14be6247ef764fd72d4b7486dfe64d8c40ada7dd", "blockhash": "0000000000000000000e13cef7c366c0283d82e591d1acd082e914b08063cdf1", "vout": [{"scriptPubKey": {"reqSigs": 1, "hex": "76a91458b719dfdbe1f414b0c9f7ca610f6baaa5f7cd9c88ac", "addresses": ["1965oy4diWGLJKvUsHtcuKqWFdnTzC9h94"], "asm": "OP_DUP OP_HASH160 58b719dfdbe1f414b0c9f7ca610f6baaa5f7cd9c OP_EQUALVERIFY OP_CHECKSIG", "type": "pubkeyhash"}, "value": 0.000788, "n": 0}, {"scriptPubKey": {"reqSigs": 1, "hex": "76a91409becc61c94f2cca1c174376fdd2d6dc160151bd88ac", "addresses": ["1tXedWQB1MkwhLSMib6wiCFxDJtykULJP"], "asm": "OP_DUP OP_HASH160 09becc61c94f2cca1c174376fdd2d6dc160151bd OP_EQUALVERIFY OP_CHECKSIG", "type": "pubkeyhash"}, "value": 0.01297345, "n": 1}], "hex": "0100000001c4be779ea6b5087ffffdad7b0d60b69f15e6153d0b478e76b516b6fea2211711010000006b483045022100c611d7bc9b0f7a47194d6b7e08c229507500ad82f4097000e7722804549972aa0220669b6fe1d666efd902b9874f71088f17e1391376bfa98c51c89cf4ed40330f7a012103322c50d0fd1f1c9fd38319597bfa6d8707d00c81637bbc45bb651571632e5f2fffffffff02d0330100000000001976a91458b719dfdbe1f414b0c9f7ca610f6baaa5f7cd9c88acc1cb1300000000001976a91409becc61c94f2cca1c174376fdd2d6dc160151bd88ac00000000", "vin": [{"sequence": 4294967295, "scriptSig": {"hex": "483045022100c611d7bc9b0f7a47194d6b7e08c229507500ad82f4097000e7722804549972aa0220669b6fe1d666efd902b9874f71088f17e1391376bfa98c51c89cf4ed40330f7a012103322c50d0fd1f1c9fd38319597bfa6d8707d00c81637bbc45bb651571632e5f2f", "asm": "3045022100c611d7bc9b0f7a47194d6b7e08c229507500ad82f4097000e7722804549972aa0220669b6fe1d666efd902b9874f71088f17e1391376bfa98c51c89cf4ed40330f7a[ALL] 03322c50d0fd1f1c9fd38319597bfa6d8707d00c81637bbc45bb651571632e5f2f"}, "vout": 1, "txid": "111721a2feb616b5768e470b3d15e6159fb6600d7badfdff7f08b5a69e77bec4"}], "txid": "56956f955698d079580c549f14be6247ef764fd72d4b7486dfe64d8c40ada7dd", "blocktime": 1537871767, "version": 1, "confirmations": 11495, "time": 1537871767, "locktime": 0, "vsize": 226, "size": 226}