{"hash": "379f267f062195787e36fb7946e6a3419e0464d28a1d53277696ead4c89bec57", "blockhash": "00000000000000000018f53835495a110e01622372bf6ae95dc86f2b0ab887b0", "vout": [{"scriptPubKey": {"reqSigs": 1, "hex": "76a9142a572e7b5036a4d1ee8f8458bfaf42238b4268b888ac", "addresses": ["14rspYEVhrUYoxGhMs5swG9D1MttazFovM"], "asm": "OP_DUP OP_HASH160 2a572e7b5036a4d1ee8f8458bfaf42238b4268b8 OP_EQUALVERIFY OP_CHECKSIG", "type": "pubkeyhash"}, "value": 0.00105, "n": 0}, {"scriptPubKey": {"reqSigs": 1, "hex": "a914a4f99882640c990cb0a3c7b28b3633f15e0b4d7f87", "addresses": ["3GjKkDiCUgC5KB3NXBN3U6pM7AMh1QBgkV"], "asm": "OP_HASH160 a4f99882640c990cb0a3c7b28b3633f15e0b4d7f OP_EQUAL", "type": "scripthash"}, "value": 0.09894376, "n": 1}], "hex": "01000000000101c4835fd92533b608310d1f108e059eac375651c68bf66516aaf5af5c86eb066a0800000023220020e49e05ffba77aca8d6eb14cf1e86ce323e2ccfd2c85bfbab80386ec80e508137ffffffff02289a0100000000001976a9142a572e7b5036a4d1ee8f8458bfaf42238b4268b888ace8f996000000000017a914a4f99882640c990cb0a3c7b28b3633f15e0b4d7f8704004730440220717f97cf30c13711d3edec27d80bdcec90b1d9ea18ab85e2e0d3735aa24395c002202db7c48336ac1f7af29a315254048c55430d7e79f5903960e83ee62da42cf83b01483045022100c9892c89cd9ae04a57f2696d2033f191edc32e2a6d3007b7ad37a1ae7f0eb7e2022033c368fd77edbd8fb9f7a69169f22aa3c1e92d3ef79416c20cd13f19dc09a32f0147522103cb7d6630f9b8022919a729c12f4143296fb2068343395e88e0e9e28612e1adf7210236912f09424642e5e1323cc60709095cc9d6b3cf78408de56fbe62ce05311f2152ae00000000", "vin": [{"txinwitness": ["", "30440220717f97cf30c13711d3edec27d80bdcec90b1d9ea18ab85e2e0d3735aa24395c002202db7c48336ac1f7af29a315254048c55430d7e79f5903960e83ee62da42cf83b01", "3045022100c9892c89cd9ae04a57f2696d2033f191edc32e2a6d3007b7ad37a1ae7f0eb7e2022033c368fd77edbd8fb9f7a69169f22aa3c1e92d3ef79416c20cd13f19dc09a32f01", "522103cb7d6630f9b8022919a729c12f4143296fb2068343395e88e0e9e28612e1adf7210236912f09424642e5e1323cc60709095cc9d6b3cf78408de56fbe62ce05311f2152ae"], "sequence": 4294967295, "scriptSig": {"hex": "220020e49e05ffba77aca8d6eb14cf1e86ce323e2ccfd2c85bfbab80386ec80e508137", "asm": "0020e49e05ffba77aca8d6eb14cf1e86ce323e2ccfd2c85bfbab80386ec80e508137"}, "vout": 8, "txid": "6a06eb865caff5aa1665f68bc6515637ac9e058e101f0d3108b63325d95f83c4"}], "txid": "5695e6e532f3c9b6bc068a50248ad210a2c187534ae94c979ccc6ea9758ae45a", "blocktime": 1537870928, "version": 1, "confirmations": 11514, "time": 1537870928, "locktime": 0, "vsize": 208, "size": 373}