{"hash": "d77af51f58b25f13da8425f494908725a31a439a7a4da48d5dac209ac47a29f9", "blockhash": "0000000000000000001f76057863aec43deb6fa401d9628bb513d65a8098bfab", "vout": [{"scriptPubKey": {"reqSigs": 1, "hex": "76a9140198ba43941f06ecc674f300305bf5353004fec588ac", "addresses": ["19SdtgaEfibVnDFh3cok6Z9CVRkZFGnoK"], "asm": "OP_DUP OP_HASH160 0198ba43941f06ecc674f300305bf5353004fec5 OP_EQUALVERIFY OP_CHECKSIG", "type": "pubkeyhash"}, "value": 0.0313265, "n": 0}, {"scriptPubKey": {"reqSigs": 1, "hex": "a914c6718d048c3e013c5332b84b77f873c1e797cc7587", "addresses": ["3KnHkBFgUzY5NBmjmWJTicPHsUvSsiWY1B"], "asm": "OP_HASH160 c6718d048c3e013c5332b84b77f873c1e797cc75 OP_EQUAL", "type": "scripthash"}, "value": 0.00998703, "n": 1}], "hex": "02000000000101d3845c4e69594072e1649a5c32853f0f318d1bf89bc4ee398ac23afa15d84afa01000000171600143316c15e75a80f3d16e46414a083e92f72724827feffffff02eacc2f00000000001976a9140198ba43941f06ecc674f300305bf5353004fec588ac2f3d0f000000000017a914c6718d048c3e013c5332b84b77f873c1e797cc758702483045022100b8b4d26a15c66e94f1b91a22d0a16a19745253c9c76a2a73b394fe821b616f5f022041d9c16d96745ce786a534dc8d0bb36097edc6addccd4773d3af56a32ce5033f01210227d8d92f0c15d642e4c8cc638bda3907968f162b0c91b89722a058ae4731397513490800", "vin": [{"txinwitness": ["3045022100b8b4d26a15c66e94f1b91a22d0a16a19745253c9c76a2a73b394fe821b616f5f022041d9c16d96745ce786a534dc8d0bb36097edc6addccd4773d3af56a32ce5033f01", "0227d8d92f0c15d642e4c8cc638bda3907968f162b0c91b89722a058ae47313975"], "sequence": 4294967294, "scriptSig": {"hex": "1600143316c15e75a80f3d16e46414a083e92f72724827", "asm": "00143316c15e75a80f3d16e46414a083e92f72724827"}, "vout": 1, "txid": "fa4ad815fa3ac28a39eec49bf81b8d310f3f85325c9a64e1724059694e5c84d3"}], "txid": "5697fb39e1ec5b6572d4a1e57a20b844b30da2bd4cad6eee7a5d0d254c3815c0", "blocktime": 1537873891, "version": 2, "confirmations": 11475, "time": 1537873891, "locktime": 542995, "vsize": 168, "size": 250}