{"hash": "569cb7d137e885ea8d1eb44f6d7bf8327d4c8da156ecc843d41e6b9da48a46a6", "blockhash": "00000000000000000017f5eb5941039fbcee6240d03bc1f2f8e35350df66a1d8", "vout": [{"scriptPubKey": {"reqSigs": 1, "hex": "76a9145a610e2aeeb166492977e12a06a48e9153adbd3c88ac", "addresses": ["19Et5niP7UhHRBdGzZu2PgFBBqMLSRAejB"], "asm": "OP_DUP OP_HASH160 5a610e2aeeb166492977e12a06a48e9153adbd3c OP_EQUALVERIFY OP_CHECKSIG", "type": "pubkeyhash"}, "value": 0.00437874, "n": 0}, {"scriptPubKey": {"reqSigs": 1, "hex": "76a91471bfce609a5079b9cc512db73f959a39eac3a44788ac", "addresses": ["1BNT8bx5CtUYy2UFBLvTDDG1Ni9RScKfFC"], "asm": "OP_DUP OP_HASH160 71bfce609a5079b9cc512db73f959a39eac3a447 OP_EQUALVERIFY OP_CHECKSIG", "type": "pubkeyhash"}, "value": 0.00257926, "n": 1}], "hex": "0100000001fe4c87afaddf72cfd3821b94c9b5a294bd729527be2971bcaa4969d350894b63000000006b483045022100a7935a9637f47b254715cbf8a9661d55f84e5c133381efc9881cca7808df3be50220762cacf7c3909c15f9eeede042fa3d896d7944988517174638e39ceece4ddbea012102055dcc5815c0a01ebb2cbc655f597efe8f889efe4d82242b22798e6d506b75f2ffffffff0272ae0600000000001976a9145a610e2aeeb166492977e12a06a48e9153adbd3c88ac86ef0300000000001976a91471bfce609a5079b9cc512db73f959a39eac3a44788ac00000000", "vin": [{"sequence": 4294967295, "scriptSig": {"hex": "483045022100a7935a9637f47b254715cbf8a9661d55f84e5c133381efc9881cca7808df3be50220762cacf7c3909c15f9eeede042fa3d896d7944988517174638e39ceece4ddbea012102055dcc5815c0a01ebb2cbc655f597efe8f889efe4d82242b22798e6d506b75f2", "asm": "3045022100a7935a9637f47b254715cbf8a9661d55f84e5c133381efc9881cca7808df3be50220762cacf7c3909c15f9eeede042fa3d896d7944988517174638e39ceece4ddbea[ALL] 02055dcc5815c0a01ebb2cbc655f597efe8f889efe4d82242b22798e6d506b75f2"}, "vout": 0, "txid": "634b8950d36949aabc7129be279572bd94a2b5c9941b82d3cf72dfadaf874cfe"}], "txid": "569cb7d137e885ea8d1eb44f6d7bf8327d4c8da156ecc843d41e6b9da48a46a6", "blocktime": 1537874412, "version": 1, "confirmations": 11467, "time": 1537874412, "locktime": 0, "vsize": 226, "size": 226}