{"hash": "56a13f1a499078e548574ab09964e6dc79fd39bb263b9fe0fea980876a349f65", "blockhash": "0000000000000000000baef3f32e3676a92c3b2e5da21b426e4f302fc371ce76", "vout": [{"scriptPubKey": {"reqSigs": 1, "hex": "76a9148d82a93b58a6b5cd5808dabf60a7570a973eb97388ac", "addresses": ["1DuEoYCE6w31UvSYAgGgSpMBJhXBznGu5m"], "asm": "OP_DUP OP_HASH160 8d82a93b58a6b5cd5808dabf60a7570a973eb973 OP_EQUALVERIFY OP_CHECKSIG", "type": "pubkeyhash"}, "value": 0.1827309, "n": 0}, {"scriptPubKey": {"reqSigs": 1, "hex": "76a914dddb57612c1841ebdbdd0a20fe369516a146d7d988ac", "addresses": ["1ME56Vq84u7TE7UDbxeoKtRJQeJ529bVqj"], "asm": "OP_DUP OP_HASH160 dddb57612c1841ebdbdd0a20fe369516a146d7d9 OP_EQUALVERIFY OP_CHECKSIG", "type": "pubkeyhash"}, "value": 0.00396, "n": 1}], "hex": "0200000001d07c2ddb782111ad23b63ddb023f8877889e1afddca8cac7ca241ccb65ebb762010000006a4730440220660baaa52eca5df61d172a62895a0aab42ecf8a6657376160a536ee0ca90dd7802205343202dc782f21a6cdcaf1115d57429a8222f84593a81f54c8f6ca9a3fce66b012102c996795e4200be79851aed99b6ee5f8b8aeeac1cb5b7cc91f0bc9e0e228956ccfeffffff0242d31601000000001976a9148d82a93b58a6b5cd5808dabf60a7570a973eb97388ace00a0600000000001976a914dddb57612c1841ebdbdd0a20fe369516a146d7d988ac16490800", "vin": [{"sequence": 4294967294, "scriptSig": {"hex": "4730440220660baaa52eca5df61d172a62895a0aab42ecf8a6657376160a536ee0ca90dd7802205343202dc782f21a6cdcaf1115d57429a8222f84593a81f54c8f6ca9a3fce66b012102c996795e4200be79851aed99b6ee5f8b8aeeac1cb5b7cc91f0bc9e0e228956cc", "asm": "30440220660baaa52eca5df61d172a62895a0aab42ecf8a6657376160a536ee0ca90dd7802205343202dc782f21a6cdcaf1115d57429a8222f84593a81f54c8f6ca9a3fce66b[ALL] 02c996795e4200be79851aed99b6ee5f8b8aeeac1cb5b7cc91f0bc9e0e228956cc"}, "vout": 1, "txid": "62b7eb65cb1c24cac7caa8dcfd1a9e8877883f02db3db623ad112178db2d7cd0"}], "txid": "56a13f1a499078e548574ab09964e6dc79fd39bb263b9fe0fea980876a349f65", "blocktime": 1537876114, "version": 2, "confirmations": 11460, "time": 1537876114, "locktime": 542998, "vsize": 225, "size": 225}