{"hash": "56a394d976826200042f901b57b72cbd893b4a9a89b42b52e8b558ada01453f7", "blockhash": "00000000000000000017f5eb5941039fbcee6240d03bc1f2f8e35350df66a1d8", "vout": [{"scriptPubKey": {"reqSigs": 1, "hex": "76a914248ff0c836205caccf3ca30e7f8368ad338e7e5088ac", "addresses": ["14LKm57oXrfRZVyP9wmYPAeQq4jKTDjCfA"], "asm": "OP_DUP OP_HASH160 248ff0c836205caccf3ca30e7f8368ad338e7e50 OP_EQUALVERIFY OP_CHECKSIG", "type": "pubkeyhash"}, "value": 0.00167442, "n": 0}, {"scriptPubKey": {"reqSigs": 1, "hex": "76a914cb4bc84275adeafaed8fd2e7951736598510da7a88ac", "addresses": ["1KXvxPN8zkgsPwFhAedwVX4N9jv9P32654"], "asm": "OP_DUP OP_HASH160 cb4bc84275adeafaed8fd2e7951736598510da7a OP_EQUALVERIFY OP_CHECKSIG", "type": "pubkeyhash"}, "value": 0.07778, "n": 1}], "hex": "01000000059b8abd9b2e55f289848f7996ff5914c9115cc7c1f79c840597eff9d4e68ea71b000000006a47304402206ce309a52950e5dc1d77e233b8ed1cf257a4f0dceff0d3b3791eb0dd7e5a16ad0220453a86d1c0091d1467775e10eb6feb38b169de4160a6c05fb5eddc69c4097a46012102708c31f2da0b523797f801c868a3ab7dff07dcc55aeb5919ef4afa61c45ac4b0ffffffff3ae618b73992eb222a7e451c6c52901eb13fd8e448daad0a4dc4bf1f7df7995e000000006b483045022100cfef7d5016d2c3ba93fb28957825a0f26fd1fc912afb2a635f2c8f58395af3e1022016b8197872338cc804470d291e2dda0abd91562807e243094d7383935bf2850d01210288a489b1963878b01f8ce3fff2573715c0229cad8411be8a59d4ec6d51ffc282ffffffff31bc3350faf0feb4e4b22b3a81f7f83c77d82a26697954240a69f79ed5c3578b000000006a47304402205b8395d977fdec16c5353e52e3f5a6f4c4d49ee6097dfebccb57aa3bc8c06927022012aa899d6b656ffc7507655065d27b8e502f9c3a35424e42c59af8e31777faff012103f201c42a89b1efc153e75f5f41b40e2daabd96e550e74fcbf431dfa9c907b822ffffffff327bd790ab8a893c5ae88d2f628a08c9b1c07fe851ac28ef435e6879c29baec8000000006a473044022039962d4a6b0e2b75fe8ce54fe1f48ac45aa8bf79bdf2ff89eab590b98badc54202206d1f262f0f90a44031d8df6c71450fd7d0d7609fae0aff01a08d1a9e77ebdecb012102554d809dcdb3e5342170667bd9d6f56c207f68f9b5e3ccbe45377bd09e978c5dffffffffacacad2a48e1cf0efd1c199e48b72f0699dd472c66a7276513397331238d09f6000000006b483045022100e228809b5643ce4ac7f3d7b0d0166af1cecf35c8337248b9d0878a78f7ad5b4a022066a5cac6dbbc6b9c0d0c65e31b58e985e13346dae39f8d40dda0c15cc61770c60121037d581ca1a91aaf05367dc5bf054a6796c49d9a9cc34d0b5a68288e9ecfff7d1affffffff02128e0200000000001976a914248ff0c836205caccf3ca30e7f8368ad338e7e5088acd0ae7600000000001976a914cb4bc84275adeafaed8fd2e7951736598510da7a88ac00000000", "vin": [{"sequence": 4294967295, "scriptSig": {"hex": "47304402206ce309a52950e5dc1d77e233b8ed1cf257a4f0dceff0d3b3791eb0dd7e5a16ad0220453a86d1c0091d1467775e10eb6feb38b169de4160a6c05fb5eddc69c4097a46012102708c31f2da0b523797f801c868a3ab7dff07dcc55aeb5919ef4afa61c45ac4b0", "asm": "304402206ce309a52950e5dc1d77e233b8ed1cf257a4f0dceff0d3b3791eb0dd7e5a16ad0220453a86d1c0091d1467775e10eb6feb38b169de4160a6c05fb5eddc69c4097a46[ALL] 02708c31f2da0b523797f801c868a3ab7dff07dcc55aeb5919ef4afa61c45ac4b0"}, "vout": 0, "txid": "1ba78ee6d4f9ef9705849cf7c1c75c11c91459ff96798f8489f2552e9bbd8a9b"}, {"sequence": 4294967295, "scriptSig": {"hex": "483045022100cfef7d5016d2c3ba93fb28957825a0f26fd1fc912afb2a635f2c8f58395af3e1022016b8197872338cc804470d291e2dda0abd91562807e243094d7383935bf2850d01210288a489b1963878b01f8ce3fff2573715c0229cad8411be8a59d4ec6d51ffc282", "asm": "3045022100cfef7d5016d2c3ba93fb28957825a0f26fd1fc912afb2a635f2c8f58395af3e1022016b8197872338cc804470d291e2dda0abd91562807e243094d7383935bf2850d[ALL] 0288a489b1963878b01f8ce3fff2573715c0229cad8411be8a59d4ec6d51ffc282"}, "vout": 0, "txid": "5e99f77d1fbfc44d0aadda48e4d83fb11e90526c1c457e2a22eb9239b718e63a"}, {"sequence": 4294967295, "scriptSig": {"hex": "47304402205b8395d977fdec16c5353e52e3f5a6f4c4d49ee6097dfebccb57aa3bc8c06927022012aa899d6b656ffc7507655065d27b8e502f9c3a35424e42c59af8e31777faff012103f201c42a89b1efc153e75f5f41b40e2daabd96e550e74fcbf431dfa9c907b822", "asm": "304402205b8395d977fdec16c5353e52e3f5a6f4c4d49ee6097dfebccb57aa3bc8c06927022012aa899d6b656ffc7507655065d27b8e502f9c3a35424e42c59af8e31777faff[ALL] 03f201c42a89b1efc153e75f5f41b40e2daabd96e550e74fcbf431dfa9c907b822"}, "vout": 0, "txid": "8b57c3d59ef7690a24547969262ad8773cf8f7813a2bb2e4b4fef0fa5033bc31"}, {"sequence": 4294967295, "scriptSig": {"hex": "473044022039962d4a6b0e2b75fe8ce54fe1f48ac45aa8bf79bdf2ff89eab590b98badc54202206d1f262f0f90a44031d8df6c71450fd7d0d7609fae0aff01a08d1a9e77ebdecb012102554d809dcdb3e5342170667bd9d6f56c207f68f9b5e3ccbe45377bd09e978c5d", "asm": "3044022039962d4a6b0e2b75fe8ce54fe1f48ac45aa8bf79bdf2ff89eab590b98badc54202206d1f262f0f90a44031d8df6c71450fd7d0d7609fae0aff01a08d1a9e77ebdecb[ALL] 02554d809dcdb3e5342170667bd9d6f56c207f68f9b5e3ccbe45377bd09e978c5d"}, "vout": 0, "txid": "c8ae9bc279685e43ef28ac51e87fc0b1c9088a622f8de85a3c898aab90d77b32"}, {"sequence": 4294967295, "scriptSig": {"hex": "483045022100e228809b5643ce4ac7f3d7b0d0166af1cecf35c8337248b9d0878a78f7ad5b4a022066a5cac6dbbc6b9c0d0c65e31b58e985e13346dae39f8d40dda0c15cc61770c60121037d581ca1a91aaf05367dc5bf054a6796c49d9a9cc34d0b5a68288e9ecfff7d1a", "asm": "3045022100e228809b5643ce4ac7f3d7b0d0166af1cecf35c8337248b9d0878a78f7ad5b4a022066a5cac6dbbc6b9c0d0c65e31b58e985e13346dae39f8d40dda0c15cc61770c6[ALL] 037d581ca1a91aaf05367dc5bf054a6796c49d9a9cc34d0b5a68288e9ecfff7d1a"}, "vout": 0, "txid": "f6098d23317339136527a7662c47dd99062fb7489e191cfd0ecfe1482aadacac"}], "txid": "56a394d976826200042f901b57b72cbd893b4a9a89b42b52e8b558ada01453f7", "blocktime": 1537874412, "version": 1, "confirmations": 11468, "time": 1537874412, "locktime": 0, "vsize": 815, "size": 815}