{"hash": "b49cf9909cabf141e9edba682eaf89d2900dbb2f7d7f871258cf7c6badeb1278", "blockhash": "0000000000000000001cda96e906b7601b7a6fb1a3b62bca570a9e5d8f4b3de1", "vout": [{"scriptPubKey": {"reqSigs": 1, "hex": "a914c3e8909f13be897c18ea7aaead71de0c9ad82dff87", "addresses": ["3KYtHqyEpm4QX7AtfkMHQx1nrRy6zPKnZm"], "asm": "OP_HASH160 c3e8909f13be897c18ea7aaead71de0c9ad82dff OP_EQUAL", "type": "scripthash"}, "value": 0.00358, "n": 0}, {"scriptPubKey": {"reqSigs": 1, "hex": "a91480f5ea765f6581b1c6d6de4930fd84124c9d611387", "addresses": ["3DSu1dcpPMczhuy7eQeR1n6TX7cCoqXRP1"], "asm": "OP_HASH160 80f5ea765f6581b1c6d6de4930fd84124c9d6113 OP_EQUAL", "type": "scripthash"}, "value": 0.00059183, "n": 1}], "hex": "0100000000010171efc12d54237b5449b1448a77fc2bffdffbbcc8b81ce79f616f76554a6aabce0000000023220020102a3f2d72bfab25782c10564f83eee9a215889eb549e7aec289f5e46b651b2dffffffff02707605000000000017a914c3e8909f13be897c18ea7aaead71de0c9ad82dff872fe700000000000017a91480f5ea765f6581b1c6d6de4930fd84124c9d6113870400483045022100a1a25c7108e8ebb198601c09400f64573abf8759727cc44b87e680db784562550220376b956c112f3fc486be80b77df45997b7dbaeb4b0e0c778676fe658c79f0dae0148304502210096b94daab214ce8979c6f4c53dfb169d6099b16b2c81bdb348fa6ad4147ac6fa022047e2b2f62e61caf35621e4017e676e1de79c71a80be7427d37956abf096a0c0f016952210203e465d3f0b767951b11aba6e77861ec50294059c82f33d0700498cb75a3d5f621022a14d69c1760a18f137f7b303fdeb41e577963bac71178247bb82387a2aeb9a721033eca472eb2cbafedd2c381aec5b2a7e287bbb5258d102b0124d5e204235cebd053ae00000000", "vin": [{"txinwitness": ["", "3045022100a1a25c7108e8ebb198601c09400f64573abf8759727cc44b87e680db784562550220376b956c112f3fc486be80b77df45997b7dbaeb4b0e0c778676fe658c79f0dae01", "304502210096b94daab214ce8979c6f4c53dfb169d6099b16b2c81bdb348fa6ad4147ac6fa022047e2b2f62e61caf35621e4017e676e1de79c71a80be7427d37956abf096a0c0f01", "52210203e465d3f0b767951b11aba6e77861ec50294059c82f33d0700498cb75a3d5f621022a14d69c1760a18f137f7b303fdeb41e577963bac71178247bb82387a2aeb9a721033eca472eb2cbafedd2c381aec5b2a7e287bbb5258d102b0124d5e204235cebd053ae"], "sequence": 4294967295, "scriptSig": {"hex": "220020102a3f2d72bfab25782c10564f83eee9a215889eb549e7aec289f5e46b651b2d", "asm": "0020102a3f2d72bfab25782c10564f83eee9a215889eb549e7aec289f5e46b651b2d"}, "vout": 0, "txid": "ceab6a4a55766f619fe71cb8c8bcfbdfff2bfc778a44b149547b23542dc1ef71"}], "txid": "56a6d41741714b61e9c02644ad0f9c871ba8b97fddf63a02ab452cb585403674", "blocktime": 1537873282, "version": 1, "confirmations": 11484, "time": 1537873282, "locktime": 0, "vsize": 214, "size": 406}