{"hash": "b27107eafd2dcd718b3b4eb54690652306528512d9856ab8158a2a7744eda978", "blockhash": "000000000000000000022b45ed06c6f4ccd3cf7fb5ba4856ebd2e58215665228", "vout": [{"scriptPubKey": {"reqSigs": 1, "hex": "76a914428a741be06d3fee70010674ce3eb8fa743dfa5788ac", "addresses": ["174qTamJdcTDdui5fexEKfMfqyU1dNPnYV"], "asm": "OP_DUP OP_HASH160 428a741be06d3fee70010674ce3eb8fa743dfa57 OP_EQUALVERIFY OP_CHECKSIG", "type": "pubkeyhash"}, "value": 0.00105, "n": 0}, {"scriptPubKey": {"reqSigs": 1, "hex": "a914627aa52932456d89054bd84f86246af3b71b93a887", "addresses": ["3Afj4stdiLG9EktGrMbm252ySonnhYaz8v"], "asm": "OP_HASH160 627aa52932456d89054bd84f86246af3b71b93a8 OP_EQUAL", "type": "scripthash"}, "value": 0.74507496, "n": 1}], "hex": "01000000000101a0f1916180a4af7cdb2d7cedbc002038e11258ba86b4fcf2ff9bb3e21bfbbbca01000000232200205fdd641234b13964b223bd85ad2a4a667ca2099df3d42a1d3b45706a8d81abf0ffffffff02289a0100000000001976a914428a741be06d3fee70010674ce3eb8fa743dfa5788ace8e470040000000017a914627aa52932456d89054bd84f86246af3b71b93a8870400483045022100dbbdfe588fe06324795a5390d4a7df37f347d55b62951bb2590d966855da0053022070a3039635adb62d89b8cab4eb64df5626dbebff17c4fe0aba992958804b7a3201483045022100afc30560bc9b71aa4a06635ac8d517670bcf7279b5e051047d613197039e6f4302205f5e88d2223a59a988dec6bbc06e68f4476e388e17e05a82d4c5e9f7ad438ee90147522103dcde3832fa56def7b4e783faad1b8af85c3cdd74a5ff4f3c7c216b1075c18da12103c70ae8ded79be1afda73b9ce5ea14a3878908ee160d66a9a717e792bb6db276952ae00000000", "vin": [{"txinwitness": ["", "3045022100dbbdfe588fe06324795a5390d4a7df37f347d55b62951bb2590d966855da0053022070a3039635adb62d89b8cab4eb64df5626dbebff17c4fe0aba992958804b7a3201", "3045022100afc30560bc9b71aa4a06635ac8d517670bcf7279b5e051047d613197039e6f4302205f5e88d2223a59a988dec6bbc06e68f4476e388e17e05a82d4c5e9f7ad438ee901", "522103dcde3832fa56def7b4e783faad1b8af85c3cdd74a5ff4f3c7c216b1075c18da12103c70ae8ded79be1afda73b9ce5ea14a3878908ee160d66a9a717e792bb6db276952ae"], "sequence": 4294967295, "scriptSig": {"hex": "2200205fdd641234b13964b223bd85ad2a4a667ca2099df3d42a1d3b45706a8d81abf0", "asm": "00205fdd641234b13964b223bd85ad2a4a667ca2099df3d42a1d3b45706a8d81abf0"}, "vout": 1, "txid": "cabbfb1be2b39bfff2fcb486ba5812e1382000bced7c2ddb7cafa4806191f1a0"}], "txid": "56aac552616dcda496d94f7f919161078d14311716674b2da946bc29ade841ff", "blocktime": 1537869901, "version": 1, "confirmations": 11524, "time": 1537869901, "locktime": 0, "vsize": 208, "size": 374}