{"hash": "56acf8edff5ac3ee9ffcc4f884caed796c2c16493a9216d92f6d245738f625f3", "blockhash": "0000000000000000001f76057863aec43deb6fa401d9628bb513d65a8098bfab", "vout": [{"scriptPubKey": {"reqSigs": 1, "hex": "a91405ad77d0e951ac9409ba315f68ee3668847fe2d487", "addresses": ["32D37Gnjd1uiCMcCn4m4v8Hr7134xH1Qqw"], "asm": "OP_HASH160 05ad77d0e951ac9409ba315f68ee3668847fe2d4 OP_EQUAL", "type": "scripthash"}, "value": 0.00458116, "n": 0}], "hex": "0100000001e08c1c9856f2ddb8342ac4b78b4fecb8a61a5fe32a611363e9193fb71c89ae78060000006a47304402202cd6133a742e7246e7078325838427418721529efd3ebcc2f22cfa27413f999e02204c0e2de87fe1fdba80bf32c5cdf4883e640e933e16cab3eb21b44d2eb464534c0121033b96daa2165f0829d15f6f494e4ff97b3296d346aeec9223620e7f41d218ca46fdffffff0184fd06000000000017a91405ad77d0e951ac9409ba315f68ee3668847fe2d48714490800", "vin": [{"sequence": 4294967293, "scriptSig": {"hex": "47304402202cd6133a742e7246e7078325838427418721529efd3ebcc2f22cfa27413f999e02204c0e2de87fe1fdba80bf32c5cdf4883e640e933e16cab3eb21b44d2eb464534c0121033b96daa2165f0829d15f6f494e4ff97b3296d346aeec9223620e7f41d218ca46", "asm": "304402202cd6133a742e7246e7078325838427418721529efd3ebcc2f22cfa27413f999e02204c0e2de87fe1fdba80bf32c5cdf4883e640e933e16cab3eb21b44d2eb464534c[ALL] 033b96daa2165f0829d15f6f494e4ff97b3296d346aeec9223620e7f41d218ca46"}, "vout": 6, "txid": "78ae891cb73f19e96313612ae35f1aa6b8ec4f8bb7c42a34b8ddf256981c8ce0"}], "txid": "56acf8edff5ac3ee9ffcc4f884caed796c2c16493a9216d92f6d245738f625f3", "blocktime": 1537873891, "version": 1, "confirmations": 11478, "time": 1537873891, "locktime": 542996, "vsize": 189, "size": 189}