{"hash": "409326efe1c5894dc3b431c75ed0c17c33691d7c9cb6af5579568f39bd561252", "blockhash": "000000000000000000205f8b0775d31398ef75b89a5e8ec8d2c57b4dc0ac4c20", "vout": [{"scriptPubKey": {"reqSigs": 1, "hex": "a91466e63caeb7161d4bd00b4769075f372761243a6487", "addresses": ["3B56fG4cK9NxSvKWeeHQeovarKyvfN56c8"], "asm": "OP_HASH160 66e63caeb7161d4bd00b4769075f372761243a64 OP_EQUAL", "type": "scripthash"}, "value": 0.00207263, "n": 0}, {"scriptPubKey": {"reqSigs": 1, "hex": "a914eca75ab6ae4bf9c7f5a392354b49c1de971a081d87", "addresses": ["3PGKsoLrawtEdJz2vYUA1Ay24Z5f1EZPmx"], "asm": "OP_HASH160 eca75ab6ae4bf9c7f5a392354b49c1de971a081d OP_EQUAL", "type": "scripthash"}, "value": 0.00492399, "n": 1}], "hex": "010000000001019fbbb3e4a3ef323e3716105e41e4f1122514695745c3073900332f95bc6176440100000023220020a56e4dfb913bd88b0ed23fd7affba06553e77694f99c0d4e9515895e9150d872ffffffff029f2903000000000017a91466e63caeb7161d4bd00b4769075f372761243a64876f8307000000000017a914eca75ab6ae4bf9c7f5a392354b49c1de971a081d870400483045022100a04f7baf0b0ed1cbb5a3727dfb6fef13cf1bb0ef01bac6ecf5dc40fc1624764602203f50a71afceb1998566d8038ef0684ac0184cde39a16a77afdc9402aad88909301483045022100bebe0554a6aaf0b662659e7806e112eabf6505f066b59df839df0706f0268d7a02205aad3c1dccd96fb5fe24c4304be84d0bf076644db0c6a724584551ea423bfaec014752210379350b1276b513d5540050bc7536aaa9bd9405202e04fe46b7738f8ebf26c243210292d679353fa4a760eaad69284c09d063a1fd1a15ad8c70e83dbf86f7063f8c1852ae00000000", "vin": [{"txinwitness": ["", "3045022100a04f7baf0b0ed1cbb5a3727dfb6fef13cf1bb0ef01bac6ecf5dc40fc1624764602203f50a71afceb1998566d8038ef0684ac0184cde39a16a77afdc9402aad88909301", "3045022100bebe0554a6aaf0b662659e7806e112eabf6505f066b59df839df0706f0268d7a02205aad3c1dccd96fb5fe24c4304be84d0bf076644db0c6a724584551ea423bfaec01", "52210379350b1276b513d5540050bc7536aaa9bd9405202e04fe46b7738f8ebf26c243210292d679353fa4a760eaad69284c09d063a1fd1a15ad8c70e83dbf86f7063f8c1852ae"], "sequence": 4294967295, "scriptSig": {"hex": "220020a56e4dfb913bd88b0ed23fd7affba06553e77694f99c0d4e9515895e9150d872", "asm": "0020a56e4dfb913bd88b0ed23fd7affba06553e77694f99c0d4e9515895e9150d872"}, "vout": 1, "txid": "447661bc952f33003907c3455769142512f1e4415e1016373e32efa3e4b3bb9f"}], "txid": "56adf42e34f5a732afff0740660a8c3b32ddcfacd44c1b5bcefd76851f46d2f5", "blocktime": 1537871175, "version": 1, "confirmations": 11511, "time": 1537871175, "locktime": 0, "vsize": 206, "size": 372}