{"hash": "81955c91a78a6461e78ff61a187877b26cf9bdeb202e588422e81378cef6b490", "blockhash": "0000000000000000000baef3f32e3676a92c3b2e5da21b426e4f302fc371ce76", "vout": [{"scriptPubKey": {"reqSigs": 1, "hex": "a91461859aaee476506321eccea137f1f28c784238a987", "addresses": ["3AafX8qr1WPkycNKD9thQuLDLVs6WRD5eG"], "asm": "OP_HASH160 61859aaee476506321eccea137f1f28c784238a9 OP_EQUAL", "type": "scripthash"}, "value": 0.00196053, "n": 0}, {"scriptPubKey": {"reqSigs": 1, "hex": "a9140136c10502ae5684e49b302f1af10f145f74b6b787", "addresses": ["31oSC7GvQMTZoouyNLBEHVRDhXEFbVhSmh"], "asm": "OP_HASH160 0136c10502ae5684e49b302f1af10f145f74b6b7 OP_EQUAL", "type": "scripthash"}, "value": 0.03845247, "n": 1}], "hex": "01000000000102e3a5347c540cbce9d4a171805d380b30759b689021de11b02bebc67d0e7be1be0100000023220020fdb54f5f326ec4446e557471395428cdb580c76c812975b69b1b31565c138426ffffffffd9810b3ea3946b05546a475e661b60ede38831b70bc98bdfb8ada96e782935390100000023220020efd02f10cc1074c68ec89b458572a71ce6bfc8a17595d8fde80232e47279444bffffffff02d5fd02000000000017a91461859aaee476506321eccea137f1f28c784238a9877fac3a000000000017a9140136c10502ae5684e49b302f1af10f145f74b6b7870400483045022100b8cff02d0e9c9b111f5e89da0c31b1513b3766e7ad05846422e7831b9f630384022030cd0665dc4dbe749f1643f19b7ac81dbbe97521184e35191dba5ba5f959f73001483045022100b48acb13098c23d7a4334e71343e61ff7360f5345405cfa9061c0d1e5a4f26a7022041e8d809a256f5abe3c3cf350f5cb65a25bc12ead8be818e964dc250d3499ba001475221029964f3b47ee23e51374c0c7e064cfcf62b2b67290faa60b6de1f42bc78f7dbc62103871fc2ca08e6950b38867e8e6a0e94ee625223d3aa0df5c65f414c6d784467e252ae0400473044022068986a751ddadebdb08dd6891860227433707202b6a727438db9381dc393ddf902205856d3e9ab1816bf23d8297584a612f7e1714d01f1fe90874ca82201b476afac01483045022100d2e670ffcc6f05916afb182e1c74a5cf7894c29ee9758232c9c495b8de5cde67022075ccc99e5bab2b31569a8bdbd5ee418f2cc485009fd4fc669ab46432a76a5abb0147522103f985ea61f461801f3abc09ebed98ce7e20804639a64616f639f492883ea4e8d62103871fc2ca08e6950b38867e8e6a0e94ee625223d3aa0df5c65f414c6d784467e252ae00000000", "vin": [{"txinwitness": ["", "3045022100b8cff02d0e9c9b111f5e89da0c31b1513b3766e7ad05846422e7831b9f630384022030cd0665dc4dbe749f1643f19b7ac81dbbe97521184e35191dba5ba5f959f73001", "3045022100b48acb13098c23d7a4334e71343e61ff7360f5345405cfa9061c0d1e5a4f26a7022041e8d809a256f5abe3c3cf350f5cb65a25bc12ead8be818e964dc250d3499ba001", "5221029964f3b47ee23e51374c0c7e064cfcf62b2b67290faa60b6de1f42bc78f7dbc62103871fc2ca08e6950b38867e8e6a0e94ee625223d3aa0df5c65f414c6d784467e252ae"], "sequence": 4294967295, "scriptSig": {"hex": "220020fdb54f5f326ec4446e557471395428cdb580c76c812975b69b1b31565c138426", "asm": "0020fdb54f5f326ec4446e557471395428cdb580c76c812975b69b1b31565c138426"}, "vout": 1, "txid": "bee17b0e7dc6eb2bb011de2190689b75300b385d8071a1d4e9bc0c547c34a5e3"}, {"txinwitness": ["", "3044022068986a751ddadebdb08dd6891860227433707202b6a727438db9381dc393ddf902205856d3e9ab1816bf23d8297584a612f7e1714d01f1fe90874ca82201b476afac01", "3045022100d2e670ffcc6f05916afb182e1c74a5cf7894c29ee9758232c9c495b8de5cde67022075ccc99e5bab2b31569a8bdbd5ee418f2cc485009fd4fc669ab46432a76a5abb01", "522103f985ea61f461801f3abc09ebed98ce7e20804639a64616f639f492883ea4e8d62103871fc2ca08e6950b38867e8e6a0e94ee625223d3aa0df5c65f414c6d784467e252ae"], "sequence": 4294967295, "scriptSig": {"hex": "220020efd02f10cc1074c68ec89b458572a71ce6bfc8a17595d8fde80232e47279444b", "asm": "0020efd02f10cc1074c68ec89b458572a71ce6bfc8a17595d8fde80232e47279444b"}, "vout": 1, "txid": "393529786ea9adb8df8bc90bb73188e3ed601b665e476a54056b94a33e0b81d9"}], "txid": "56b58ffd30b7c871b4b76e02c3a670e76636d70ca3f77911e25941b17eb21794", "blocktime": 1537876114, "version": 1, "confirmations": 11460, "time": 1537876114, "locktime": 0, "vsize": 337, "size": 667}