{"hash": "e2280c34ee2548f525cc0c40fd411a534c036e2bf5fb63266fa174478f107ceb", "blockhash": "0000000000000000001cda96e906b7601b7a6fb1a3b62bca570a9e5d8f4b3de1", "vout": [{"scriptPubKey": {"reqSigs": 1, "hex": "76a9146faf06debfcf73619e66077694532d4859c07ca588ac", "addresses": ["1BBXgNWw2WAZ5TmCvhs1s8cGuDU83UJWbz"], "asm": "OP_DUP OP_HASH160 6faf06debfcf73619e66077694532d4859c07ca5 OP_EQUALVERIFY OP_CHECKSIG", "type": "pubkeyhash"}, "value": 0.0009369, "n": 0}, {"scriptPubKey": {"reqSigs": 1, "hex": "a914925eb188f98f8584a93f57d845bf833da647ad5287", "addresses": ["3F2x1yEtuP2cTnYynZjufKvMbx6qggWVYx"], "asm": "OP_HASH160 925eb188f98f8584a93f57d845bf833da647ad52 OP_EQUAL", "type": "scripthash"}, "value": 0.00202479, "n": 1}], "hex": "0200000000010469c6a001a6213e0a4bf8c8c144b745fd601cd053110ab54a0b7a3170759e31c201000000171600141de93968e69160e09077abe7d66e9ed3ac0d2502ffffffff38a8f892d34b14810605870e9864d3977145879ac6a37aca8dcfb29374546f3c01000000171600140207fd64311bbd5b3b0733a4944d24c1426d3e2cffffffffad655861ad328a6b9d61a0b89be0d582621c951162f790090b728c23cd4f801a00000000171600149fbcec88e32fba06804e6c926db15e3c459c0cddffffffff49ad413be24ac937f7ce882267566a43c612c9f761983da2c573d18deefc18070100000017160014c1036203e22a7b015dee973dcf0536ff9b7feacaffffffff02fa6d0100000000001976a9146faf06debfcf73619e66077694532d4859c07ca588acef1603000000000017a914925eb188f98f8584a93f57d845bf833da647ad52870247304402206962dff77c351f0204c9517faa8a97d81e66c248bdd382e92cc0f76b5078f76c02205d04ebb7b7de6668cb7fc0a0134f9318600d77a994bf815760da58ec63c93c1a012102d6f861ac8d3d9ea462808e8fe4a598e2d88b74be794eab0deb9addbefb84957002483045022100be38f6b491513c5d8cb10c44f1a25ad80886ab58a451ab65a122d1830524634902202a31266f34c399d09d68f9310de2316f5f27df21866ce66d858c9cefc6fc253101210282fda423e52e5c020283c6e73d895531ff6de2afa5d5ac4f4fc3a40776d8b36b02473044022043274bac8e3614032ba38bfeaade1f906cf81a685df8dab1b9e5c7fd5f93705002207d482a161f2283c9825ff1537c6fe14ff18748e8ffa3c1ac091e1551c53b65dd0121020756766b6b5d4c25b8104f64c3a4fac4c6c30cc92fbdf328df7d75d5dc12a11802483045022100e4130ab82b5e6a5d50b46d00ec3729fe0d8a15aaafefa605dc2bf31318d27c30022043e899d728a1dfea2783c0ddd809ea4349a6afd34d1cfb48e978ef358cb934240121039c6083d823c528eda64cb51c10ad326f3e99d6041f33b9bfe7189f60d7726d9900000000", "vin": [{"txinwitness": ["304402206962dff77c351f0204c9517faa8a97d81e66c248bdd382e92cc0f76b5078f76c02205d04ebb7b7de6668cb7fc0a0134f9318600d77a994bf815760da58ec63c93c1a01", "02d6f861ac8d3d9ea462808e8fe4a598e2d88b74be794eab0deb9addbefb849570"], "sequence": 4294967295, "scriptSig": {"hex": "1600141de93968e69160e09077abe7d66e9ed3ac0d2502", "asm": "00141de93968e69160e09077abe7d66e9ed3ac0d2502"}, "vout": 1, "txid": "c2319e7570317a0b4ab50a1153d01c60fd45b744c1c8f84b0a3e21a601a0c669"}, {"txinwitness": ["3045022100be38f6b491513c5d8cb10c44f1a25ad80886ab58a451ab65a122d1830524634902202a31266f34c399d09d68f9310de2316f5f27df21866ce66d858c9cefc6fc253101", "0282fda423e52e5c020283c6e73d895531ff6de2afa5d5ac4f4fc3a40776d8b36b"], "sequence": 4294967295, "scriptSig": {"hex": "1600140207fd64311bbd5b3b0733a4944d24c1426d3e2c", "asm": "00140207fd64311bbd5b3b0733a4944d24c1426d3e2c"}, "vout": 1, "txid": "3c6f547493b2cf8dca7aa3c69a87457197d364980e87050681144bd392f8a838"}, {"txinwitness": ["3044022043274bac8e3614032ba38bfeaade1f906cf81a685df8dab1b9e5c7fd5f93705002207d482a161f2283c9825ff1537c6fe14ff18748e8ffa3c1ac091e1551c53b65dd01", "020756766b6b5d4c25b8104f64c3a4fac4c6c30cc92fbdf328df7d75d5dc12a118"], "sequence": 4294967295, "scriptSig": {"hex": "1600149fbcec88e32fba06804e6c926db15e3c459c0cdd", "asm": "00149fbcec88e32fba06804e6c926db15e3c459c0cdd"}, "vout": 0, "txid": "1a804fcd238c720b0990f76211951c6282d5e09bb8a0619d6b8a32ad615865ad"}, {"txinwitness": ["3045022100e4130ab82b5e6a5d50b46d00ec3729fe0d8a15aaafefa605dc2bf31318d27c30022043e899d728a1dfea2783c0ddd809ea4349a6afd34d1cfb48e978ef358cb9342401", "039c6083d823c528eda64cb51c10ad326f3e99d6041f33b9bfe7189f60d7726d99"], "sequence": 4294967295, "scriptSig": {"hex": "160014c1036203e22a7b015dee973dcf0536ff9b7feaca", "asm": "0014c1036203e22a7b015dee973dcf0536ff9b7feaca"}, "vout": 1, "txid": "0718fcee8dd173c5a23d9861f7c912c6436a56672288cef737c94ae23b41ad49"}], "txid": "56b6d166ad24e03db4fef8f40e2b9a2e7c88237b841289af1dbf39495a7e0a1e", "blocktime": 1537873282, "version": 2, "confirmations": 11480, "time": 1537873282, "locktime": 0, "vsize": 440, "size": 764}