{"hash": "56b703d73759a0fda32d120421d674b22948afc8de31b14dacf783cdc026fcd8", "blockhash": "00000000000000000024a2167bbff67b0be802c0b01cdd79e6331c2be6459f87", "vout": [{"scriptPubKey": {"reqSigs": 1, "hex": "76a914346ca9c83ebd54e35612139179cf3050408c20f488ac", "addresses": ["15nCK2bVfsquTFrkperQFkxfUmfjvrx1mu"], "asm": "OP_DUP OP_HASH160 346ca9c83ebd54e35612139179cf3050408c20f4 OP_EQUALVERIFY OP_CHECKSIG", "type": "pubkeyhash"}, "value": 0.01408826, "n": 0}], "hex": "0100000001d354fc629dc7c8bfcb9a5d44d99defc6ba8fbadc163f1db1523ac4fbf777bb72000000006a473044022052fbbc65eb10eeb6b122c26c82248ed8e6511f7f2d1e124896f8e25223b3b4650220590bdcbc7cbb70791b038eedb75f649b0c94bbf6f5025613dc5c594b3be3be0a0121020ad9eaa6807009e485a9ef9bed959e625ca04bf41fa981ca9a3fc83fe4194680ffffffff013a7f1500000000001976a914346ca9c83ebd54e35612139179cf3050408c20f488ac00000000", "vin": [{"sequence": 4294967295, "scriptSig": {"hex": "473044022052fbbc65eb10eeb6b122c26c82248ed8e6511f7f2d1e124896f8e25223b3b4650220590bdcbc7cbb70791b038eedb75f649b0c94bbf6f5025613dc5c594b3be3be0a0121020ad9eaa6807009e485a9ef9bed959e625ca04bf41fa981ca9a3fc83fe4194680", "asm": "3044022052fbbc65eb10eeb6b122c26c82248ed8e6511f7f2d1e124896f8e25223b3b4650220590bdcbc7cbb70791b038eedb75f649b0c94bbf6f5025613dc5c594b3be3be0a[ALL] 020ad9eaa6807009e485a9ef9bed959e625ca04bf41fa981ca9a3fc83fe4194680"}, "vout": 0, "txid": "72bb77f7fbc43a52b11d3f16dcba8fbac6ef9dd9445d9acbbfc8c79d62fc54d3"}], "txid": "56b703d73759a0fda32d120421d674b22948afc8de31b14dacf783cdc026fcd8", "blocktime": 1537870564, "version": 1, "confirmations": 11515, "time": 1537870564, "locktime": 0, "vsize": 191, "size": 191}