{"hash": "82840d10976b4e9ce1da24c7f7f3946611a7dc5d6ea1b95b607b8c24cd512ff6", "blockhash": "00000000000000000017f5eb5941039fbcee6240d03bc1f2f8e35350df66a1d8", "vout": [{"scriptPubKey": {"reqSigs": 1, "hex": "0014ad0f4973f043af2a139f7e5f60ef28da25a2a439", "addresses": ["bc1q4585julsgwhj5yul0e0kpmegmgj69fpeudk0t6"], "asm": "0 ad0f4973f043af2a139f7e5f60ef28da25a2a439", "type": "witness_v0_keyhash"}, "value": 0.00669741, "n": 0}, {"scriptPubKey": {"reqSigs": 1, "hex": "a914db91a37f19671ee5faaba6f056e8172b5ef0361587", "addresses": ["3MhzNhuBTfifmSB3xbgHvjNjvFU2MjDtvz"], "asm": "OP_HASH160 db91a37f19671ee5faaba6f056e8172b5ef03615 OP_EQUAL", "type": "scripthash"}, "value": 0.02329762, "n": 1}], "hex": "01000000000101968a1a1b8b208cc417b022d9f7d41c2ea498a7ced5a76a32826ba55aa968b1d80000000017160014347ea9037ead5ce3c2d5aa2b87e50786aa617e39ffffffff022d380a0000000000160014ad0f4973f043af2a139f7e5f60ef28da25a2a439a28c23000000000017a914db91a37f19671ee5faaba6f056e8172b5ef036158702483045022100da1bb22a581a4d0e72f51ecf1cb74ab47dbf05cbcd33db60d63d7baf93845c3d02207780a648fdd359bd6e796fce4c378bc83f31d9622c85d7b724c6bcab9c8918bc012103c1ee7b3a1a5d2133137f7376ad747030167a52472b685657a8cc1becde13c02700000000", "vin": [{"txinwitness": ["3045022100da1bb22a581a4d0e72f51ecf1cb74ab47dbf05cbcd33db60d63d7baf93845c3d02207780a648fdd359bd6e796fce4c378bc83f31d9622c85d7b724c6bcab9c8918bc01", "03c1ee7b3a1a5d2133137f7376ad747030167a52472b685657a8cc1becde13c027"], "sequence": 4294967295, "scriptSig": {"hex": "160014347ea9037ead5ce3c2d5aa2b87e50786aa617e39", "asm": "0014347ea9037ead5ce3c2d5aa2b87e50786aa617e39"}, "vout": 0, "txid": "d8b168a95aa56b82326aa7d5cea798a42e1cd4f7d922b017c48c208b1b1a8a96"}], "txid": "56b979b9c52ff55117aa04dd12dcf753402b584f047da993ab4e0bf8a84f108f", "blocktime": 1537874412, "version": 1, "confirmations": 11468, "time": 1537874412, "locktime": 0, "vsize": 165, "size": 247}