{"hash": "bcf4a314b0e122f85ffab168049d7ded291de64f55846114f4d232705f1c81d5", "blockhash": "0000000000000000000dcc0f55137456b1a82d3642486a52398922ac4d620174", "vout": [{"scriptPubKey": {"reqSigs": 1, "hex": "a91469f3744cfc308777d5a8acd249f81b6e7d85009e87", "addresses": ["3BMEXBp8MxTW393buSq3MTezVVC8C8hub2"], "asm": "OP_HASH160 69f3744cfc308777d5a8acd249f81b6e7d85009e OP_EQUAL", "type": "scripthash"}, "value": 0.00904, "n": 0}, {"scriptPubKey": {"reqSigs": 1, "hex": "a914af6bd1208a3d22f8ba49d01441cf371a7357a98687", "addresses": ["3HgZLN47nPjUwyaMUKyyUYtDvZaneTn2iL"], "asm": "OP_HASH160 af6bd1208a3d22f8ba49d01441cf371a7357a986 OP_EQUAL", "type": "scripthash"}, "value": 0.0015585, "n": 1}], "hex": "02000000000101f3d3d0b611f870c1e964bebe8f0baad5c7662ec131495d73f03ce8aec36ffee00100000017160014e9dbb0984499160ebae2a30ccb7b2dbcd5df6aaffdffffff0240cb0d000000000017a91469f3744cfc308777d5a8acd249f81b6e7d85009e87ca6002000000000017a914af6bd1208a3d22f8ba49d01441cf371a7357a98687024830450221008a2293c61f7593bab04bac272e38b5c08ddfa0b5f0bf209f2fb84a158ce1b96a02201270298d1b4011e414374e5cc34d494619e4fa06ba90b1e543c7e6788031dbb20121034a5078f51a346344bdf21b8408d642841f051720fcd9a3245ca957799863986c0c490800", "vin": [{"txinwitness": ["30450221008a2293c61f7593bab04bac272e38b5c08ddfa0b5f0bf209f2fb84a158ce1b96a02201270298d1b4011e414374e5cc34d494619e4fa06ba90b1e543c7e6788031dbb201", "034a5078f51a346344bdf21b8408d642841f051720fcd9a3245ca957799863986c"], "sequence": 4294967293, "scriptSig": {"hex": "160014e9dbb0984499160ebae2a30ccb7b2dbcd5df6aaf", "asm": "0014e9dbb0984499160ebae2a30ccb7b2dbcd5df6aaf"}, "vout": 1, "txid": "e0fe6fc3aee83cf0735d4931c12e66c7d5aa0b8fbebe64e9c170f811b6d0d3f3"}], "txid": "56bef5198c873c3db3686a7e6481a9b2e140ea64f4799c7cadb5cfd7d8b979d4", "blocktime": 1537870268, "version": 2, "confirmations": 11516, "time": 1537870268, "locktime": 542988, "vsize": 166, "size": 248}