{"hash": "56bf755b4869a2164efd0c29bbc0c38f15ae9e5b469fce44ab1d6e7b501feba8", "blockhash": "0000000000000000001f76057863aec43deb6fa401d9628bb513d65a8098bfab", "vout": [{"scriptPubKey": {"type": "nulldata", "hex": "6a4c50000077ea0001814f99a93273efe365e63dda7af8e8e963c7cfd5b95b23cc0f42c2fc38c5f95a17fe4d9a42fd821436f134d7ed095baa178f0612d4ae1d00a910bc9a9526289ac0f6612cd74e33776ee4", "asm": "OP_RETURN 000077ea0001814f99a93273efe365e63dda7af8e8e963c7cfd5b95b23cc0f42c2fc38c5f95a17fe4d9a42fd821436f134d7ed095baa178f0612d4ae1d00a910bc9a9526289ac0f6612cd74e33776ee4"}, "value": 0.0, "n": 0}, {"scriptPubKey": {"reqSigs": 1, "hex": "76a914539fb304db471850c9a42d4d5ee9e40c54406bda88ac", "addresses": ["18dAQ2MT39ETkjLQVviYFk6j7xq8a5yHyq"], "asm": "OP_DUP OP_HASH160 539fb304db471850c9a42d4d5ee9e40c54406bda OP_EQUALVERIFY OP_CHECKSIG", "type": "pubkeyhash"}, "value": 0.00127944, "n": 1}], "hex": "0100000001e67d49acf08f95f383176694ad0183cdce65b2c9141db2adf37323b9a46fcbf6000000006a473044022014b2f57be9c0d82483d72ba6f0428d8ce20c804f7c1ca6f0c4fbd2105dd1dabe022036ef70320553586dee61d8e1bed7caa7ebe8fc643f1a06b2b3aede7e2853fa5b012103769dbb873d69fed918d20f898fb5e7f5674ba813e928140bf4cdac246b665c89ffffffff020000000000000000536a4c50000077ea0001814f99a93273efe365e63dda7af8e8e963c7cfd5b95b23cc0f42c2fc38c5f95a17fe4d9a42fd821436f134d7ed095baa178f0612d4ae1d00a910bc9a9526289ac0f6612cd74e33776ee4c8f30100000000001976a914539fb304db471850c9a42d4d5ee9e40c54406bda88ac00000000", "vin": [{"sequence": 4294967295, "scriptSig": {"hex": "473044022014b2f57be9c0d82483d72ba6f0428d8ce20c804f7c1ca6f0c4fbd2105dd1dabe022036ef70320553586dee61d8e1bed7caa7ebe8fc643f1a06b2b3aede7e2853fa5b012103769dbb873d69fed918d20f898fb5e7f5674ba813e928140bf4cdac246b665c89", "asm": "3044022014b2f57be9c0d82483d72ba6f0428d8ce20c804f7c1ca6f0c4fbd2105dd1dabe022036ef70320553586dee61d8e1bed7caa7ebe8fc643f1a06b2b3aede7e2853fa5b[ALL] 03769dbb873d69fed918d20f898fb5e7f5674ba813e928140bf4cdac246b665c89"}, "vout": 0, "txid": "f6cb6fa4b92373f3adb21d14c9b265cecd8301ad94661783f3958ff0ac497de6"}], "txid": "56bf755b4869a2164efd0c29bbc0c38f15ae9e5b469fce44ab1d6e7b501feba8", "blocktime": 1537873891, "version": 1, "confirmations": 11478, "time": 1537873891, "locktime": 0, "vsize": 283, "size": 283}