{"hash": "9125c6051a357fe71accdf14a0cd7759b27e4d37d924ae28c98849d7768266f5", "blockhash": "0000000000000000001f76057863aec43deb6fa401d9628bb513d65a8098bfab", "vout": [{"scriptPubKey": {"reqSigs": 1, "hex": "001449c6022b4318db04408fe5337458408325754067", "addresses": ["bc1qf8rqy26rrrdsgsy0u5ehgkzqsvjh2sr8wg2004"], "asm": "0 49c6022b4318db04408fe5337458408325754067", "type": "witness_v0_keyhash"}, "value": 0.0006297, "n": 0}, {"scriptPubKey": {"reqSigs": 1, "hex": "76a9148c1a2c005bfd78ab74783e4d467d07fe4eef24cb88ac", "addresses": ["1DmnxK1AfTLcctq5WCkxrDupUk8fWwpU2C"], "asm": "OP_DUP OP_HASH160 8c1a2c005bfd78ab74783e4d467d07fe4eef24cb OP_EQUALVERIFY OP_CHECKSIG", "type": "pubkeyhash"}, "value": 0.00312244, "n": 1}], "hex": "01000000000101763e696169ff04fd2f029ad4ebda8379221d47dc81481ee9bbc90ffb0582211c0000000017160014a3bb2781cbf971a76fbf825a338a78334e374b25ffffffff02faf500000000000016001449c6022b4318db04408fe5337458408325754067b4c30400000000001976a9148c1a2c005bfd78ab74783e4d467d07fe4eef24cb88ac02473044022077d9b0c231f769f145edb66b75eb4c0246c961aefa016f3ca6babe51c4ee89550220318e0286eaaca83bd9e82dd543ade065d0ed515d828befff6953cdd4659c53440121034a2b000bdd9e575cd1a0fc48006230c5c75321441f0f0f116b8b0ad865e279e800000000", "vin": [{"txinwitness": ["3044022077d9b0c231f769f145edb66b75eb4c0246c961aefa016f3ca6babe51c4ee89550220318e0286eaaca83bd9e82dd543ade065d0ed515d828befff6953cdd4659c534401", "034a2b000bdd9e575cd1a0fc48006230c5c75321441f0f0f116b8b0ad865e279e8"], "sequence": 4294967295, "scriptSig": {"hex": "160014a3bb2781cbf971a76fbf825a338a78334e374b25", "asm": "0014a3bb2781cbf971a76fbf825a338a78334e374b25"}, "vout": 0, "txid": "1c218205fb0fc9bbe91e4881dc471d227983daebd49a022ffd04ff6961693e76"}], "txid": "56d20e584ad20fc07e5992c3b107b30684473f80446631a6a918ac10bfcc41ac", "blocktime": 1537873891, "version": 1, "confirmations": 11479, "time": 1537873891, "locktime": 0, "vsize": 167, "size": 248}