{"hash": "56e2257f7de9b8e294d168aa032bc6182b571fc295f81eff720411c33aad6a32", "blockhash": "00000000000000000017f5eb5941039fbcee6240d03bc1f2f8e35350df66a1d8", "vout": [{"scriptPubKey": {"reqSigs": 1, "hex": "76a914e9db6fd89fef3e21503447a7c34761d8fcdb653188ac", "addresses": ["1NKXKSVboEE86agxEo3eHXX1DDV6qz9BJR"], "asm": "OP_DUP OP_HASH160 e9db6fd89fef3e21503447a7c34761d8fcdb6531 OP_EQUALVERIFY OP_CHECKSIG", "type": "pubkeyhash"}, "value": 25.9733174, "n": 0}, {"scriptPubKey": {"reqSigs": 1, "hex": "a91458082d6119b35c2e27aa72e609460dc930cad95187", "addresses": ["39iVBbES5jNiATe2L2RTnBgstktqxgLXpK"], "asm": "OP_HASH160 58082d6119b35c2e27aa72e609460dc930cad951 OP_EQUAL", "type": "scripthash"}, "value": 0.03126246, "n": 1}], "hex": "010000000164c84462355deb44f72a4f9df3941ee7ca3a593c20537f5624c0c3b7e41161b2000000006b483045022100a6f512129fbae3bf2c53d2cd3e3bd1eaf44dcaa795e75339731cac72865ef945022009b696d0b81f5c8934c3d07391c6283ca3065b0bcb2e91a612dcddc38aedbff901210259898255b2ad1959dbf9d6c155c5f9ec30b1130d66c0dcaea4262e55da007feeffffffff021c23d09a000000001976a914e9db6fd89fef3e21503447a7c34761d8fcdb653188ace6b32f000000000017a91458082d6119b35c2e27aa72e609460dc930cad9518700000000", "vin": [{"sequence": 4294967295, "scriptSig": {"hex": "483045022100a6f512129fbae3bf2c53d2cd3e3bd1eaf44dcaa795e75339731cac72865ef945022009b696d0b81f5c8934c3d07391c6283ca3065b0bcb2e91a612dcddc38aedbff901210259898255b2ad1959dbf9d6c155c5f9ec30b1130d66c0dcaea4262e55da007fee", "asm": "3045022100a6f512129fbae3bf2c53d2cd3e3bd1eaf44dcaa795e75339731cac72865ef945022009b696d0b81f5c8934c3d07391c6283ca3065b0bcb2e91a612dcddc38aedbff9[ALL] 0259898255b2ad1959dbf9d6c155c5f9ec30b1130d66c0dcaea4262e55da007fee"}, "vout": 0, "txid": "b26111e4b7c3c024567f53203c593acae71e94f39d4f2af744eb5d356244c864"}], "txid": "56e2257f7de9b8e294d168aa032bc6182b571fc295f81eff720411c33aad6a32", "blocktime": 1537874412, "version": 1, "confirmations": 11467, "time": 1537874412, "locktime": 0, "vsize": 224, "size": 224}