{"hash": "db1727e2f647b4892021ac89df00f1f500c3f46b5c4c5ecc80f681a8019b68f6", "blockhash": "0000000000000000000baef3f32e3676a92c3b2e5da21b426e4f302fc371ce76", "vout": [{"scriptPubKey": {"reqSigs": 1, "hex": "76a9146ca5fef8d474c85c091514c75dc7fd7288eebbdf88ac", "addresses": ["1AuUqKcRb3eMyqpShDdFJ5tZn3v4MTyTJy"], "asm": "OP_DUP OP_HASH160 6ca5fef8d474c85c091514c75dc7fd7288eebbdf OP_EQUALVERIFY OP_CHECKSIG", "type": "pubkeyhash"}, "value": 0.0057182, "n": 0}, {"scriptPubKey": {"reqSigs": 1, "hex": "a914339ce96aab3a59cf01dc4edd4702f0d4560e336787", "addresses": ["36PvMkPq36ZNbUgsSbmbjoUBagkC1MVaBG"], "asm": "OP_HASH160 339ce96aab3a59cf01dc4edd4702f0d4560e3367 OP_EQUAL", "type": "scripthash"}, "value": 0.01112265, "n": 1}], "hex": "0200000000010154ffe86f0f70e447545111962d5aa3d7205c6d5bd4555459ff567677692b6fd30100000017160014d2477734b1b5f99b4d58b9aa235cbd5d24d1adc7fdffffff02acb90800000000001976a9146ca5fef8d474c85c091514c75dc7fd7288eebbdf88acc9f810000000000017a914339ce96aab3a59cf01dc4edd4702f0d4560e33678702483045022100caeabb6876d3eabeb60f37e9b55a7a3f83cb76d155e2be081cf96b31c2ecd93e022006ea882ad4303f9775146867fdf44730fd4849958e04b98ee41dfabb96f83b9d01210338071ff0866191f3630677c7a2e7554b2d1254559763c283ffc594cead6d001c17490800", "vin": [{"txinwitness": ["3045022100caeabb6876d3eabeb60f37e9b55a7a3f83cb76d155e2be081cf96b31c2ecd93e022006ea882ad4303f9775146867fdf44730fd4849958e04b98ee41dfabb96f83b9d01", "0338071ff0866191f3630677c7a2e7554b2d1254559763c283ffc594cead6d001c"], "sequence": 4294967293, "scriptSig": {"hex": "160014d2477734b1b5f99b4d58b9aa235cbd5d24d1adc7", "asm": "0014d2477734b1b5f99b4d58b9aa235cbd5d24d1adc7"}, "vout": 1, "txid": "d36f2b69777656ff595455d45b6d5c20d7a35a2d9611515447e4700f6fe8ff54"}], "txid": "56e911a100bbea594e76b2dbb34e0cc112a5f0e689f8fd1616ceb5b474bf8afc", "blocktime": 1537876114, "version": 2, "confirmations": 11459, "time": 1537876114, "locktime": 542999, "vsize": 168, "size": 250}