{"hash": "56eadaccfd9560ee583d8617cb3ca025d2ebfdb96a850e0266b5161863f490a4", "blockhash": "00000000000000000024a2167bbff67b0be802c0b01cdd79e6331c2be6459f87", "vout": [{"scriptPubKey": {"reqSigs": 1, "hex": "a9148078456a8844eb3cfe6e83f086a962656e152e5787", "addresses": ["3DQJVgezKaKdAQFinSjkTsqG9mAhBLkTR9"], "asm": "OP_HASH160 8078456a8844eb3cfe6e83f086a962656e152e57 OP_EQUAL", "type": "scripthash"}, "value": 0.00383941, "n": 0}, {"scriptPubKey": {"reqSigs": 1, "hex": "76a914cf01a9a7e9878ba8d04346ac9b5c20e25cfdb15c88ac", "addresses": ["1KsYsEiufoSV5prvTMuvZH1V7ntN6KSRvh"], "asm": "OP_DUP OP_HASH160 cf01a9a7e9878ba8d04346ac9b5c20e25cfdb15c OP_EQUALVERIFY OP_CHECKSIG", "type": "pubkeyhash"}, "value": 0.06257156, "n": 1}], "hex": "01000000011d4a3a56e309e530b7b361fde4d3e55b210c2333e5505e03d50e4c0018f1cfa7010000006b483045022100a1050fdce99d61090d2cc8c297f191754d44eb098e9061cef8d53b0b4608c3580220238d973c7279c1c153dd6fa8f9bffef9f7334173a39d0eddea24dce2da8dac2e0121026508f0629b893528b322f0fc545f7b2db278e0160618584be9eb4ac48209505bffffffff02c5db05000000000017a9148078456a8844eb3cfe6e83f086a962656e152e5787047a5f00000000001976a914cf01a9a7e9878ba8d04346ac9b5c20e25cfdb15c88ac00000000", "vin": [{"sequence": 4294967295, "scriptSig": {"hex": "483045022100a1050fdce99d61090d2cc8c297f191754d44eb098e9061cef8d53b0b4608c3580220238d973c7279c1c153dd6fa8f9bffef9f7334173a39d0eddea24dce2da8dac2e0121026508f0629b893528b322f0fc545f7b2db278e0160618584be9eb4ac48209505b", "asm": "3045022100a1050fdce99d61090d2cc8c297f191754d44eb098e9061cef8d53b0b4608c3580220238d973c7279c1c153dd6fa8f9bffef9f7334173a39d0eddea24dce2da8dac2e[ALL] 026508f0629b893528b322f0fc545f7b2db278e0160618584be9eb4ac48209505b"}, "vout": 1, "txid": "a7cff118004c0ed5035e50e533230c215be5d3e4fd61b3b730e509e3563a4a1d"}], "txid": "56eadaccfd9560ee583d8617cb3ca025d2ebfdb96a850e0266b5161863f490a4", "blocktime": 1537870564, "version": 1, "confirmations": 11515, "time": 1537870564, "locktime": 0, "vsize": 224, "size": 224}