{"hash": "56ea1ea144509bd912f2c2ac9f350c6d00f5d524c8e2bb6c0ac5ac788a6aa957", "blockhash": "0000000000000000000baef3f32e3676a92c3b2e5da21b426e4f302fc371ce76", "vout": [{"scriptPubKey": {"reqSigs": 1, "hex": "76a9147f2e8029672aa1d9cc40d38f57566b3247cefa9288ac", "addresses": ["1CbUXHR1ezDH6mY7qBKgjtPBNGdqGJAZ2x"], "asm": "OP_DUP OP_HASH160 7f2e8029672aa1d9cc40d38f57566b3247cefa92 OP_EQUALVERIFY OP_CHECKSIG", "type": "pubkeyhash"}, "value": 0.01379224, "n": 0}, {"scriptPubKey": {"type": "nulldata", "hex": "6a4c500000780d0001c78d17027948b65dd7fe9479702940d64fa54d8eb2d19ed074892d00f8e8f7d41f3189e6396d7460ecffa621c2e45baa1b3506145033477435ecbc9a9526289ac0f6612cd74e33776ee4", "asm": "OP_RETURN 0000780d0001c78d17027948b65dd7fe9479702940d64fa54d8eb2d19ed074892d00f8e8f7d41f3189e6396d7460ecffa621c2e45baa1b3506145033477435ecbc9a9526289ac0f6612cd74e33776ee4"}, "value": 0.0, "n": 1}], "hex": "0100000001ffb685b8525a698bb968e5d58f85d6f044102c1245852e6db72a29cd4efddc92010000006b483045022100b44154b2bb023d8ad3e33b0a82a3cd398d418e9b0cb1a04072f039adc9289cf702200a8281428fbea80b2490316ccf98a41a4079f881fa6e305fa1f3516a86a49ba00121031997f754b98610d5a76176b02cd511bedbc175d99651f99a0d4b04a5807ddb5cffffffff02980b1500000000001976a9147f2e8029672aa1d9cc40d38f57566b3247cefa9288ac0000000000000000536a4c500000780d0001c78d17027948b65dd7fe9479702940d64fa54d8eb2d19ed074892d00f8e8f7d41f3189e6396d7460ecffa621c2e45baa1b3506145033477435ecbc9a9526289ac0f6612cd74e33776ee400000000", "vin": [{"sequence": 4294967295, "scriptSig": {"hex": "483045022100b44154b2bb023d8ad3e33b0a82a3cd398d418e9b0cb1a04072f039adc9289cf702200a8281428fbea80b2490316ccf98a41a4079f881fa6e305fa1f3516a86a49ba00121031997f754b98610d5a76176b02cd511bedbc175d99651f99a0d4b04a5807ddb5c", "asm": "3045022100b44154b2bb023d8ad3e33b0a82a3cd398d418e9b0cb1a04072f039adc9289cf702200a8281428fbea80b2490316ccf98a41a4079f881fa6e305fa1f3516a86a49ba0[ALL] 031997f754b98610d5a76176b02cd511bedbc175d99651f99a0d4b04a5807ddb5c"}, "vout": 1, "txid": "92dcfd4ecd292ab76d2e8545122c1044f0d6858fd5e568b98b695a52b885b6ff"}], "txid": "56ea1ea144509bd912f2c2ac9f350c6d00f5d524c8e2bb6c0ac5ac788a6aa957", "blocktime": 1537876114, "version": 1, "confirmations": 11460, "time": 1537876114, "locktime": 0, "vsize": 284, "size": 284}