{"hash": "56ec6b552f7eaedffbcdb2eac871a3b9a2acb45e6de7fe205461d370686049aa", "blockhash": "0000000000000000001cda96e906b7601b7a6fb1a3b62bca570a9e5d8f4b3de1", "vout": [{"scriptPubKey": {"reqSigs": 1, "hex": "76a9144798aba11642f4b73e8fcf664622141e5b3a62cc88ac", "addresses": ["17XZsM8uAFhhmijyAWQyAtJmLoQhiSddMX"], "asm": "OP_DUP OP_HASH160 4798aba11642f4b73e8fcf664622141e5b3a62cc OP_EQUALVERIFY OP_CHECKSIG", "type": "pubkeyhash"}, "value": 0.05481973, "n": 0}, {"scriptPubKey": {"reqSigs": 1, "hex": "76a914991eac7f42cefb2a22de055422a22dd183c241c988ac", "addresses": ["1Exd8c3a4AutouL4Tjz5MS557xtRanWTSK"], "asm": "OP_DUP OP_HASH160 991eac7f42cefb2a22de055422a22dd183c241c9 OP_EQUALVERIFY OP_CHECKSIG", "type": "pubkeyhash"}, "value": 0.25626571, "n": 1}], "hex": "0100000001e06689002187244263a2dc29cc67106c43a473454303e4bbce09911c51a62749010000006a47304402206237411db403b7bfe2494e0b4b5bcd39a12cc7abea9f15e341ca95970d65cc6b02200eaf3f8965d57b3b6c3d7e09953d5780de8259006d046e9a3458023612eec91301210303e556774f86c74632efe4bcfbe5b254bd816410a8a4e22219026b95bfc4105dfdffffff02f5a55300000000001976a9144798aba11642f4b73e8fcf664622141e5b3a62cc88accb078701000000001976a914991eac7f42cefb2a22de055422a22dd183c241c988ac13490800", "vin": [{"sequence": 4294967293, "scriptSig": {"hex": "47304402206237411db403b7bfe2494e0b4b5bcd39a12cc7abea9f15e341ca95970d65cc6b02200eaf3f8965d57b3b6c3d7e09953d5780de8259006d046e9a3458023612eec91301210303e556774f86c74632efe4bcfbe5b254bd816410a8a4e22219026b95bfc4105d", "asm": "304402206237411db403b7bfe2494e0b4b5bcd39a12cc7abea9f15e341ca95970d65cc6b02200eaf3f8965d57b3b6c3d7e09953d5780de8259006d046e9a3458023612eec913[ALL] 0303e556774f86c74632efe4bcfbe5b254bd816410a8a4e22219026b95bfc4105d"}, "vout": 1, "txid": "4927a6511c9109cebbe403434573a4436c1067cc29dca26342248721008966e0"}], "txid": "56ec6b552f7eaedffbcdb2eac871a3b9a2acb45e6de7fe205461d370686049aa", "blocktime": 1537873282, "version": 1, "confirmations": 11485, "time": 1537873282, "locktime": 542995, "vsize": 225, "size": 225}