{"hash": "56f02bd20ed9eacb3e2ed0983c731774350dad4aa98aa22396ae998b4cec9474", "blockhash": "0000000000000000000dcc0f55137456b1a82d3642486a52398922ac4d620174", "vout": [{"scriptPubKey": {"reqSigs": 1, "hex": "76a9147846a831ff2c428bdced87ce31d591ae285e846088ac", "addresses": ["1BxxjMb8Ng6o4seBg2Yp5qtobCxr6vhTgg"], "asm": "OP_DUP OP_HASH160 7846a831ff2c428bdced87ce31d591ae285e8460 OP_EQUALVERIFY OP_CHECKSIG", "type": "pubkeyhash"}, "value": 0.00846902, "n": 0}], "hex": "0100000001938335b696416107160165400f143ec15c408f767a8046a7c028a05fea8e4f4e000000006a4730440220380fee90ebaacd20a6c18faa247f862b3202dbb8318994ae0c4e018c536fb4d602200d69ee12773ea0d904fe2a3bb25718dd947d68aba767f776309a05df0ac1c2b50121026d66457038cad9d41de399f6abb8322c44ce4cef1cfac7f6a93d94dfbf4e78b9ffffffff0136ec0c00000000001976a9147846a831ff2c428bdced87ce31d591ae285e846088ac00000000", "vin": [{"sequence": 4294967295, "scriptSig": {"hex": "4730440220380fee90ebaacd20a6c18faa247f862b3202dbb8318994ae0c4e018c536fb4d602200d69ee12773ea0d904fe2a3bb25718dd947d68aba767f776309a05df0ac1c2b50121026d66457038cad9d41de399f6abb8322c44ce4cef1cfac7f6a93d94dfbf4e78b9", "asm": "30440220380fee90ebaacd20a6c18faa247f862b3202dbb8318994ae0c4e018c536fb4d602200d69ee12773ea0d904fe2a3bb25718dd947d68aba767f776309a05df0ac1c2b5[ALL] 026d66457038cad9d41de399f6abb8322c44ce4cef1cfac7f6a93d94dfbf4e78b9"}, "vout": 0, "txid": "4e4f8eea5fa028c0a746807a768f405cc13e140f4065011607614196b6358393"}], "txid": "56f02bd20ed9eacb3e2ed0983c731774350dad4aa98aa22396ae998b4cec9474", "blocktime": 1537870268, "version": 1, "confirmations": 11518, "time": 1537870268, "locktime": 0, "vsize": 191, "size": 191}