{"hash": "5ae89d5a2e21b52d5feda7d5baf5f715ad7de33a347e9b8c54c899d904f06f10", "blockhash": "00000000000000000017f5eb5941039fbcee6240d03bc1f2f8e35350df66a1d8", "vout": [{"scriptPubKey": {"reqSigs": 1, "hex": "a914f26bd9828232a056de02bd02bce48c82d55bb00f87", "addresses": ["3PnpeVU1ceQ4HsFFXhn5Emvucbc3V3zU4S"], "asm": "OP_HASH160 f26bd9828232a056de02bd02bce48c82d55bb00f OP_EQUAL", "type": "scripthash"}, "value": 0.01245973, "n": 0}, {"scriptPubKey": {"reqSigs": 1, "hex": "0014637bac11392525d987eb2b2efeadc30fa71fac94", "addresses": ["bc1qvda6cyfey5janplt9vh0atwrp7n3lty54wfd30"], "asm": "0 637bac11392525d987eb2b2efeadc30fa71fac94", "type": "witness_v0_keyhash"}, "value": 0.00143094, "n": 1}], "hex": "010000000001019197f23ddc1686594edb10d4af50509a56b6460940828abed97f71a543b317b60000000000ffffffff02150313000000000017a914f26bd9828232a056de02bd02bce48c82d55bb00f87f62e020000000000160014637bac11392525d987eb2b2efeadc30fa71fac9402483045022100957d20ea4e57d4d9016133ebe28e7ce27ae01fc7cb2a5de9754d3e10926051bb02206a520d4a8cb538a029c87eb62f1d10e4cfe1481e67f3731e2aaf5d4ee58f3205012102dace3c597a501be9428a0f1523b6342fbfbc14841fd5ad02091ad7f3e7d78d4f00000000", "vin": [{"txinwitness": ["3045022100957d20ea4e57d4d9016133ebe28e7ce27ae01fc7cb2a5de9754d3e10926051bb02206a520d4a8cb538a029c87eb62f1d10e4cfe1481e67f3731e2aaf5d4ee58f320501", "02dace3c597a501be9428a0f1523b6342fbfbc14841fd5ad02091ad7f3e7d78d4f"], "sequence": 4294967295, "scriptSig": {"hex": "", "asm": ""}, "vout": 0, "txid": "b617b343a5717fd9be8a82400946b6569a5050afd410db4e598616dc3df29791"}], "txid": "56f4ae78f9300eff4ea6e054620b61cf84f2007aebe93b3ca4b1ef95cfe13097", "blocktime": 1537874412, "version": 1, "confirmations": 11467, "time": 1537874412, "locktime": 0, "vsize": 142, "size": 224}