{"hash": "56f485c4fe64c0c09e8e73e3d5dc2dfc04a714e2664c629129afbf16c2af0182", "blockhash": "000000000000000000022b45ed06c6f4ccd3cf7fb5ba4856ebd2e58215665228", "vout": [{"scriptPubKey": {"type": "nulldata", "hex": "6a146f6d6e69000000000000001f0000001405ffdc00", "asm": "OP_RETURN 6f6d6e69000000000000001f0000001405ffdc00"}, "value": 0.0, "n": 0}, {"scriptPubKey": {"reqSigs": 1, "hex": "76a914284b1f894ca72430de8f19952125b6016a9dc7c688ac", "addresses": ["14g42KnXkRFfR8cUtS5tReprjeNvGQKW9v"], "asm": "OP_DUP OP_HASH160 284b1f894ca72430de8f19952125b6016a9dc7c6 OP_EQUALVERIFY OP_CHECKSIG", "type": "pubkeyhash"}, "value": 0.14517619, "n": 1}, {"scriptPubKey": {"reqSigs": 1, "hex": "76a914d1763339f9e597c84b288eca0188ea67aa6b011988ac", "addresses": ["1L6XpnDygG2VySVEVmaqHtYTYwJAHhvRYZ"], "asm": "OP_DUP OP_HASH160 d1763339f9e597c84b288eca0188ea67aa6b0119 OP_EQUALVERIFY OP_CHECKSIG", "type": "pubkeyhash"}, "value": 5.46e-06, "n": 2}], "hex": "0100000001742901fbb9ce60243c627b5759209716a03f7f430ea9377142ab7532cda3ec32000000006a473044022026b7541acad2a11269a1232849255d3e3e16620e517799a1a256cb75dbb3d4850220011fad1da6a88d86c598c930530fcf4159aa014e7c676d281d26cc8f5b7347aa01210392260b2475e9dec1855e89404d00787579055270f3f1619ec29bd64ed6a6dd7dfeffffff030000000000000000166a146f6d6e69000000000000001f0000001405ffdc007385dd00000000001976a914284b1f894ca72430de8f19952125b6016a9dc7c688ac22020000000000001976a914d1763339f9e597c84b288eca0188ea67aa6b011988ac0b490800", "vin": [{"sequence": 4294967294, "scriptSig": {"hex": "473044022026b7541acad2a11269a1232849255d3e3e16620e517799a1a256cb75dbb3d4850220011fad1da6a88d86c598c930530fcf4159aa014e7c676d281d26cc8f5b7347aa01210392260b2475e9dec1855e89404d00787579055270f3f1619ec29bd64ed6a6dd7d", "asm": "3044022026b7541acad2a11269a1232849255d3e3e16620e517799a1a256cb75dbb3d4850220011fad1da6a88d86c598c930530fcf4159aa014e7c676d281d26cc8f5b7347aa[ALL] 0392260b2475e9dec1855e89404d00787579055270f3f1619ec29bd64ed6a6dd7d"}, "vout": 0, "txid": "32eca3cd3275ab427137a90e437f3fa016972059577b623c2460ceb9fb012974"}], "txid": "56f485c4fe64c0c09e8e73e3d5dc2dfc04a714e2664c629129afbf16c2af0182", "blocktime": 1537869901, "version": 1, "confirmations": 11522, "time": 1537869901, "locktime": 542987, "vsize": 256, "size": 256}