{"hash": "56f5fbe82caf08e186e06419ea3244b71a66137fd5023e87e0298dca4f8c12e5", "blockhash": "0000000000000000000dcc0f55137456b1a82d3642486a52398922ac4d620174", "vout": [{"scriptPubKey": {"reqSigs": 1, "hex": "76a91478a6db4e1644e322e1d07dada27129dc8acb90c988ac", "addresses": ["1BzwyRaAUuKbwFPLjPTn5j192Rq65vgXRx"], "asm": "OP_DUP OP_HASH160 78a6db4e1644e322e1d07dada27129dc8acb90c9 OP_EQUALVERIFY OP_CHECKSIG", "type": "pubkeyhash"}, "value": 1.67249066, "n": 0}, {"scriptPubKey": {"reqSigs": 1, "hex": "76a9144a0f1e2f2b0d7daeec5265f10bbbbe08ed725e8988ac", "addresses": ["17kb7c9ndg7ioSuzMWEHWECdEVUegNkcGc"], "asm": "OP_DUP OP_HASH160 4a0f1e2f2b0d7daeec5265f10bbbbe08ed725e89 OP_EQUALVERIFY OP_CHECKSIG", "type": "pubkeyhash"}, "value": 27.55731161, "n": 1}], "hex": "0100000001d417c44adf796e2ff9bd5884a41322968eab7d23590897133da812f40e2dd2a8010000006b483045022100d1e98aa955f2697e06cec7b5330053d01b733ce263389ef811fd7ee6e76f2c62022030d8a567ce2b0d3fd5b46abcf9875f2da4a7be7e491914a461b6ed90344510c101210363e1776495149c5a4e92acf453a3caa19000fc804e4ba2024b600ba25e09c943ffffffff02aa04f809000000001976a91478a6db4e1644e322e1d07dada27129dc8acb90c988acd91e41a4000000001976a9144a0f1e2f2b0d7daeec5265f10bbbbe08ed725e8988ac00000000", "vin": [{"sequence": 4294967295, "scriptSig": {"hex": "483045022100d1e98aa955f2697e06cec7b5330053d01b733ce263389ef811fd7ee6e76f2c62022030d8a567ce2b0d3fd5b46abcf9875f2da4a7be7e491914a461b6ed90344510c101210363e1776495149c5a4e92acf453a3caa19000fc804e4ba2024b600ba25e09c943", "asm": "3045022100d1e98aa955f2697e06cec7b5330053d01b733ce263389ef811fd7ee6e76f2c62022030d8a567ce2b0d3fd5b46abcf9875f2da4a7be7e491914a461b6ed90344510c1[ALL] 0363e1776495149c5a4e92acf453a3caa19000fc804e4ba2024b600ba25e09c943"}, "vout": 1, "txid": "a8d22d0ef412a83d13970859237dab8e962213a48458bdf92f6e79df4ac417d4"}], "txid": "56f5fbe82caf08e186e06419ea3244b71a66137fd5023e87e0298dca4f8c12e5", "blocktime": 1537870268, "version": 1, "confirmations": 11516, "time": 1537870268, "locktime": 0, "vsize": 226, "size": 226}