{"hash": "6b69d57c7f99f6c3e5154f2363ed1082d13c42984a57c271e71c721f89936245", "blockhash": "00000000000000000004ffacab907a6b429b9a5745fa0b75af4234bf69dd7176", "vout": [{"scriptPubKey": {"reqSigs": 1, "hex": "a91431c9e6a45cd4a4c9a3f217bce99cfc115d5b3fb487", "addresses": ["36EGuGSg26UKCxT4UbFRm1WfMNHTNFipjW"], "asm": "OP_HASH160 31c9e6a45cd4a4c9a3f217bce99cfc115d5b3fb4 OP_EQUAL", "type": "scripthash"}, "value": 0.0951, "n": 0}, {"scriptPubKey": {"reqSigs": 1, "hex": "a914c84e93fe630841759aa79c21785d0f0ee9c2d40f87", "addresses": ["3Kx9CcSurxKXhvncHfmTNm1wsgy8Zthm8Q"], "asm": "OP_HASH160 c84e93fe630841759aa79c21785d0f0ee9c2d40f OP_EQUAL", "type": "scripthash"}, "value": 1.11700778, "n": 1}], "hex": "020000000001010d758d3d136f226ae4a7ead41ba9800045d63109b37526771404467ddd005dca0000000017160014cdee8cc6386321cb850702166207e4c17104b4bdfeffffff02701c91000000000017a91431c9e6a45cd4a4c9a3f217bce99cfc115d5b3fb4872a6ba8060000000017a914c84e93fe630841759aa79c21785d0f0ee9c2d40f8702473044022049c1083ab061fa1fcb00e8e75025a0e93331754ecc07003d5740dc19c64a266e02204ffb8f987cd85a58ebe3c8e9c3854c537d6569419ded9a2ecd938cfd66301207012103f9b8d1f8a50d2151248a3b33afe45c359b745dd0afee32159e142165a944668716490800", "vin": [{"txinwitness": ["3044022049c1083ab061fa1fcb00e8e75025a0e93331754ecc07003d5740dc19c64a266e02204ffb8f987cd85a58ebe3c8e9c3854c537d6569419ded9a2ecd938cfd6630120701", "03f9b8d1f8a50d2151248a3b33afe45c359b745dd0afee32159e142165a9446687"], "sequence": 4294967294, "scriptSig": {"hex": "160014cdee8cc6386321cb850702166207e4c17104b4bd", "asm": "0014cdee8cc6386321cb850702166207e4c17104b4bd"}, "vout": 0, "txid": "ca5d00dd7d460414772675b30931d6450080a91bd4eaa7e46a226f133d8d750d"}], "txid": "56f5bf7aa4591f3589b8a76c4f4cc6b737897b8b27b068f42952ec0fe4f6c99b", "blocktime": 1537875543, "version": 2, "confirmations": 11464, "time": 1537875543, "locktime": 542998, "vsize": 166, "size": 247}