{"hash": "c7cfd31f6e5a7acdaebcadd43a5d3bda19304c222aa74e530c5360d30b21db80", "blockhash": "0000000000000000001e0dab787dd257d1dbfcb92a98c2207d5e1078be1f4165", "vout": [{"scriptPubKey": {"reqSigs": 1, "hex": "a914f8cd125fcdef83fac3070691f075be73ee79a72487", "addresses": ["3QNZAkhyRUqDmQSxUnJi3g5zBrHH2PXFBt"], "asm": "OP_HASH160 f8cd125fcdef83fac3070691f075be73ee79a724 OP_EQUAL", "type": "scripthash"}, "value": 7.55453145, "n": 0}, {"scriptPubKey": {"reqSigs": 1, "hex": "76a9143e5de10cc52b2a4fb9099df01b268a97e49dc11988ac", "addresses": ["16gmMjDGP5N5KBr8N6LgYCa9bjkwZBUk1J"], "asm": "OP_DUP OP_HASH160 3e5de10cc52b2a4fb9099df01b268a97e49dc119 OP_EQUALVERIFY OP_CHECKSIG", "type": "pubkeyhash"}, "value": 0.005161, "n": 1}], "hex": "02000000000101a75d60b6766eda849a5723b33084bdbf7c9d60d670f3fa4df95b6121597fd3bf0000000017160014ff78b8504313c9e23c25a44e3168e51b51b15aadfeffffff02d94c072d0000000017a914f8cd125fcdef83fac3070691f075be73ee79a7248704e00700000000001976a9143e5de10cc52b2a4fb9099df01b268a97e49dc11988ac0247304402203ac3dfefe3d6d30beedd0fac40e58fa0081ac658997f7045969dc806d2db8f02022024e9980472e825003ae2cf208fb2afe7bcc08e36747117c5c43d34067f7365f3012103fa31881caf1611146f954f0a6ec1839ad807f6a890edaacab289976e5cd5750e12490800", "vin": [{"txinwitness": ["304402203ac3dfefe3d6d30beedd0fac40e58fa0081ac658997f7045969dc806d2db8f02022024e9980472e825003ae2cf208fb2afe7bcc08e36747117c5c43d34067f7365f301", "03fa31881caf1611146f954f0a6ec1839ad807f6a890edaacab289976e5cd5750e"], "sequence": 4294967294, "scriptSig": {"hex": "160014ff78b8504313c9e23c25a44e3168e51b51b15aad", "asm": "0014ff78b8504313c9e23c25a44e3168e51b51b15aad"}, "vout": 0, "txid": "bfd37f5921615bf94dfaf370d6609d7cbfbd8430b323579a84da6e76b6605da7"}], "txid": "56f5bf54de86b753d4a5ddcfcd3bbefb73112767c4b5e12511145284b4630556", "blocktime": 1537872475, "version": 2, "confirmations": 11486, "time": 1537872475, "locktime": 542994, "vsize": 168, "size": 249}