{"hash": "56f660f35d7d6f3e1757d7ee9bdfeca0c5ece6abbf4e33249bc88a4d89add794", "blockhash": "000000000000000000022b45ed06c6f4ccd3cf7fb5ba4856ebd2e58215665228", "vout": [{"scriptPubKey": {"reqSigs": 1, "hex": "76a914f3d8ab5cf169b526db9c5404df305c795a6834f688ac", "addresses": ["1PELm4vosLhmR9Z9SznW9UqqymvewWWW1t"], "asm": "OP_DUP OP_HASH160 f3d8ab5cf169b526db9c5404df305c795a6834f6 OP_EQUALVERIFY OP_CHECKSIG", "type": "pubkeyhash"}, "value": 0.00290802, "n": 0}, {"scriptPubKey": {"reqSigs": 1, "hex": "76a914ba48d3090f0bcc93b34873ba6450d4ac90d408dd88ac", "addresses": ["1Hyyvc7rpHsg1tgDw9ojbGkvVLTDU6sDkU"], "asm": "OP_DUP OP_HASH160 ba48d3090f0bcc93b34873ba6450d4ac90d408dd OP_EQUALVERIFY OP_CHECKSIG", "type": "pubkeyhash"}, "value": 5.46e-06, "n": 1}, {"scriptPubKey": {"type": "nulldata", "hex": "6a146f6d6e69000000000000001f0000007c574cfb63", "asm": "OP_RETURN 6f6d6e69000000000000001f0000007c574cfb63"}, "value": 0.0, "n": 2}], "hex": "0100000002ee017eb8d2a32063463085becbb0696f1cd2d9915b16ce014c6854b16f162cca010000008a4730440220575c8ae676fa009cb6923a1d39583e2a0106d9dacb9ab76ad05fbfb43f581e6302204234566c1e842f4ac62a267e560c8ca92e63d4d566bbd7238c96c44447427fc9014104932e850d7b2dab4cbd44644437d8e86fef51a578dff64f5afabbf964f99b40129d8eee354a1dcfc703ba089b3b65022fbd71e232598f68ed16c5ea75c70f7b5dffffffff4b2166361317306e76168926e8f4287b7d18ade25c5dce56013f48ef1aaac5e2000000008b483045022100f1791ae75ff5e0c105cb96b8b9441171e619cb1682868dccab927eb98b9dc5e402201b9f0b26aefd06bc6d5f9c6059256d9166525885a60a82786a4cc76dce6bb50e014104932e850d7b2dab4cbd44644437d8e86fef51a578dff64f5afabbf964f99b40129d8eee354a1dcfc703ba089b3b65022fbd71e232598f68ed16c5ea75c70f7b5dffffffff03f26f0400000000001976a914f3d8ab5cf169b526db9c5404df305c795a6834f688ac22020000000000001976a914ba48d3090f0bcc93b34873ba6450d4ac90d408dd88ac0000000000000000166a146f6d6e69000000000000001f0000007c574cfb6300000000", "vin": [{"sequence": 4294967295, "scriptSig": {"hex": "4730440220575c8ae676fa009cb6923a1d39583e2a0106d9dacb9ab76ad05fbfb43f581e6302204234566c1e842f4ac62a267e560c8ca92e63d4d566bbd7238c96c44447427fc9014104932e850d7b2dab4cbd44644437d8e86fef51a578dff64f5afabbf964f99b40129d8eee354a1dcfc703ba089b3b65022fbd71e232598f68ed16c5ea75c70f7b5d", "asm": "30440220575c8ae676fa009cb6923a1d39583e2a0106d9dacb9ab76ad05fbfb43f581e6302204234566c1e842f4ac62a267e560c8ca92e63d4d566bbd7238c96c44447427fc9[ALL] 04932e850d7b2dab4cbd44644437d8e86fef51a578dff64f5afabbf964f99b40129d8eee354a1dcfc703ba089b3b65022fbd71e232598f68ed16c5ea75c70f7b5d"}, "vout": 1, "txid": "ca2c166fb154684c01ce165b91d9d21c6f69b0cbbe8530466320a3d2b87e01ee"}, {"sequence": 4294967295, "scriptSig": {"hex": "483045022100f1791ae75ff5e0c105cb96b8b9441171e619cb1682868dccab927eb98b9dc5e402201b9f0b26aefd06bc6d5f9c6059256d9166525885a60a82786a4cc76dce6bb50e014104932e850d7b2dab4cbd44644437d8e86fef51a578dff64f5afabbf964f99b40129d8eee354a1dcfc703ba089b3b65022fbd71e232598f68ed16c5ea75c70f7b5d", "asm": "3045022100f1791ae75ff5e0c105cb96b8b9441171e619cb1682868dccab927eb98b9dc5e402201b9f0b26aefd06bc6d5f9c6059256d9166525885a60a82786a4cc76dce6bb50e[ALL] 04932e850d7b2dab4cbd44644437d8e86fef51a578dff64f5afabbf964f99b40129d8eee354a1dcfc703ba089b3b65022fbd71e232598f68ed16c5ea75c70f7b5d"}, "vout": 0, "txid": "e2c5aa1aef483f0156ce5d5ce2ad187d7b28f4e8268916766e3017133666214b"}], "txid": "56f660f35d7d6f3e1757d7ee9bdfeca0c5ece6abbf4e33249bc88a4d89add794", "blocktime": 1537869901, "version": 1, "confirmations": 11522, "time": 1537869901, "locktime": 0, "vsize": 468, "size": 468}