{"hash": "d031965fff8677728d5fe0c9cbb7e0963b62a22fc0c3b0ab8bc8f3b37e33b823", "blockhash": "0000000000000000000e13cef7c366c0283d82e591d1acd082e914b08063cdf1", "vout": [{"scriptPubKey": {"reqSigs": 1, "hex": "a9143f316078252399e03929bcfd7693314053a4e8e187", "addresses": ["37T9ePfZmWnTmpTF9UcE2PsyTJaSZYPf99"], "asm": "OP_HASH160 3f316078252399e03929bcfd7693314053a4e8e1 OP_EQUAL", "type": "scripthash"}, "value": 0.01001301, "n": 0}, {"scriptPubKey": {"reqSigs": 1, "hex": "76a9146bf5d825fdc826a564706de3e597daf6a5aaf14b88ac", "addresses": ["1Aqqp6BYo68MNUBoX7myFDEicK2Xk7yxRH"], "asm": "OP_DUP OP_HASH160 6bf5d825fdc826a564706de3e597daf6a5aaf14b OP_EQUALVERIFY OP_CHECKSIG", "type": "pubkeyhash"}, "value": 0.00290066, "n": 1}], "hex": "020000000001020bed50bfb1b10dbde50bbf9920166ce0dd618de4d68559c5fb65fcc7e42673af0100000017160014d133914dd6b912eee925eeaa5de252d83b525ec5feffffffdf01e1088aea1506d73b11bd39bebaf85e1fa2c770a0bb06be26aee1869dfcc10000000017160014ce9f08c419622e562f2cc5427f1691e4de22b29efeffffff0255470f000000000017a9143f316078252399e03929bcfd7693314053a4e8e187126d0400000000001976a9146bf5d825fdc826a564706de3e597daf6a5aaf14b88ac02473044022034694b29989ccad9c18a017f680abb4d7da88802781812579dc741e981e12e6d0220516c268fc3834213ea32c2acfaac8d7aad7318a94b312a5646e78d7811373533012103131e3ca296d1b8c5ed075fa68927034a686ad917f0bd360b455be7edc981361702483045022100c8024c43ed6fa32fac43906462b3b734f38ac91f5a95f51e8d55ad2f034fdb0802201829cd4b4715228b1380dec5dfbe7aa2cf590c1c7adbe4c481eced3177ed9f6501210299ea522af413becda551ddb916303e449ed6ee9790a9e2b504f5572ca994fac910490800", "vin": [{"txinwitness": ["3044022034694b29989ccad9c18a017f680abb4d7da88802781812579dc741e981e12e6d0220516c268fc3834213ea32c2acfaac8d7aad7318a94b312a5646e78d781137353301", "03131e3ca296d1b8c5ed075fa68927034a686ad917f0bd360b455be7edc9813617"], "sequence": 4294967294, "scriptSig": {"hex": "160014d133914dd6b912eee925eeaa5de252d83b525ec5", "asm": "0014d133914dd6b912eee925eeaa5de252d83b525ec5"}, "vout": 1, "txid": "af7326e4c7fc65fbc55985d6e48d61dde06c162099bf0be5bd0db1b1bf50ed0b"}, {"txinwitness": ["3045022100c8024c43ed6fa32fac43906462b3b734f38ac91f5a95f51e8d55ad2f034fdb0802201829cd4b4715228b1380dec5dfbe7aa2cf590c1c7adbe4c481eced3177ed9f6501", "0299ea522af413becda551ddb916303e449ed6ee9790a9e2b504f5572ca994fac9"], "sequence": 4294967294, "scriptSig": {"hex": "160014ce9f08c419622e562f2cc5427f1691e4de22b29e", "asm": "0014ce9f08c419622e562f2cc5427f1691e4de22b29e"}, "vout": 0, "txid": "c1fc9d86e1ae26be06bba070c7a21f5ef8babe39bd113bd70615ea8a08e101df"}], "txid": "56f7d0e748f7de2a9bd1050fadf1bc42f0543ff3790b71dd62d35d60af4ba4ba", "blocktime": 1537871767, "version": 2, "confirmations": 11495, "time": 1537871767, "locktime": 542992, "vsize": 259, "size": 421}