{"hash": "4771d8e76e50ac49eb343aea19017e0deb4d271f9d0ef844fc2e778ad1ce0bf4", "blockhash": "0000000000000000001e0dab787dd257d1dbfcb92a98c2207d5e1078be1f4165", "vout": [{"scriptPubKey": {"reqSigs": 1, "hex": "a91496d833946ee0e579157f391492f778be3d37f27d87", "addresses": ["3FScHG5Rr5PR5msLn5gcQj4wZySfXn1XLs"], "asm": "OP_HASH160 96d833946ee0e579157f391492f778be3d37f27d OP_EQUAL", "type": "scripthash"}, "value": 0.01002321, "n": 0}, {"scriptPubKey": {"reqSigs": 1, "hex": "76a9143c8814cc6e1d220d52c713d787761915fccb3e5488ac", "addresses": ["16X4ZbptRduSA2mWGH2PZsnZXWXCv5spGt"], "asm": "OP_DUP OP_HASH160 3c8814cc6e1d220d52c713d787761915fccb3e54 OP_EQUALVERIFY OP_CHECKSIG", "type": "pubkeyhash"}, "value": 0.00417201, "n": 1}], "hex": "020000000001023cf9dfa643a64d5a07f506be3ec5192b9a7f40c9ece633d72f23e5c470e0063c01000000171600146e3fa743f5f31a671b4775a9921453fb5336df73fefffffff9eda444024818d120713fe351d7bd3f73422c36216e775b39591f1bf4c544f80800000017160014c9f62bbd8e62cf500699f6a3cbb92db8880e4fe2feffffff02514b0f000000000017a91496d833946ee0e579157f391492f778be3d37f27d87b15d0600000000001976a9143c8814cc6e1d220d52c713d787761915fccb3e5488ac0247304402200897a49a4361b4683ad94ed0bc8a78643f57f41c871a7219f60462563dc4c0ff0220711bc01e4832ffb606c0544fbd1cb48872a177ad90c44d5f53930869a6f74d0c012102923463cf1a4c4a74664a4ffc4b70c841463f10ab1f1a6cdcbe6683df32c0d923024830450221008ca8bab90b5b010b651fe5b08322dbd3968297a71cf8b3f41a5a515e6d93c78702202608b1b338ca07f5e57d7c9d0c4435501cbe72868b38114dfed6a7e9058ff90b0121025f5739e5e24570ebe89c3c6ca65beec5ae1cb2f179b229ae6619fa057cc7bf5b12490800", "vin": [{"txinwitness": ["304402200897a49a4361b4683ad94ed0bc8a78643f57f41c871a7219f60462563dc4c0ff0220711bc01e4832ffb606c0544fbd1cb48872a177ad90c44d5f53930869a6f74d0c01", "02923463cf1a4c4a74664a4ffc4b70c841463f10ab1f1a6cdcbe6683df32c0d923"], "sequence": 4294967294, "scriptSig": {"hex": "1600146e3fa743f5f31a671b4775a9921453fb5336df73", "asm": "00146e3fa743f5f31a671b4775a9921453fb5336df73"}, "vout": 1, "txid": "3c06e070c4e5232fd733e6ecc9407f9a2b19c53ebe06f5075a4da643a6dff93c"}, {"txinwitness": ["30450221008ca8bab90b5b010b651fe5b08322dbd3968297a71cf8b3f41a5a515e6d93c78702202608b1b338ca07f5e57d7c9d0c4435501cbe72868b38114dfed6a7e9058ff90b01", "025f5739e5e24570ebe89c3c6ca65beec5ae1cb2f179b229ae6619fa057cc7bf5b"], "sequence": 4294967294, "scriptSig": {"hex": "160014c9f62bbd8e62cf500699f6a3cbb92db8880e4fe2", "asm": "0014c9f62bbd8e62cf500699f6a3cbb92db8880e4fe2"}, "vout": 8, "txid": "f844c5f41b1f59395b776e21362c42733fbdd751e33f7120d118480244a4edf9"}], "txid": "56fd1c2ef3e738e14a64b0c46285d69ca9b39a35b6ead41c9fdc73c177c151b7", "blocktime": 1537872475, "version": 2, "confirmations": 11487, "time": 1537872475, "locktime": 542994, "vsize": 259, "size": 421}