{"hash": "f5628155ee9e44a1ab211cd8c526e87d1ecdd9f3e35a9317300907385ddef04f", "blockhash": "0000000000000000000baef3f32e3676a92c3b2e5da21b426e4f302fc371ce76", "vout": [{"scriptPubKey": {"reqSigs": 1, "hex": "a914b5a92babf47a54a59a24e7742c5c7308412140ab87", "addresses": ["3JFYtShXBhLkRPApxYSNrmnAHY2G2nRw68"], "asm": "OP_HASH160 b5a92babf47a54a59a24e7742c5c7308412140ab OP_EQUAL", "type": "scripthash"}, "value": 2.43713305, "n": 0}, {"scriptPubKey": {"reqSigs": 1, "hex": "a91441308550882af8634bcf8a115a55ed4af18aaa2e87", "addresses": ["37dhyJ263YQornQY68fuXizXqvCkZAgfxk"], "asm": "OP_HASH160 41308550882af8634bcf8a115a55ed4af18aaa2e OP_EQUAL", "type": "scripthash"}, "value": 2.56522285, "n": 1}], "hex": "010000000001023c34b77cbbb8805f8146b7b56ef6a5bdf4e5635385e7ac3a90c7381f9d29e2420100000017160014a59d95024cea709c2be091e6bb111553ff47f8c1ffffff00a1037901c783039e93d22c258e2f56886128083ff9b44373e8da430d4182c24200000000171600147dc9f2596b400708511a2c23aea8794903cafb1effffff000219c5860e0000000017a914b5a92babf47a54a59a24e7742c5c7308412140ab872d384a0f0000000017a91441308550882af8634bcf8a115a55ed4af18aaa2e8702483045022100f54c1685b481ce78080743733614c10a79ee7a07f7a667db650f0902cf28edf902201be0c5513384ec6e0b339af01cc302c65deb26ad3efa107d69bbb9a76c6cab4201210338c9dfe8952dabc5fb6de42cd2483fd87c03c28a7ec47b0b3b4336b6c688cb78024730440220495f16690e3f2e2c972186b88738a7f066e7b72cc48e642d0e8e1c531bb4a1bc022002e3f597629ba1c02882c06d8f59e207b27b70e7719d936e816009429126a8ca01210254554b493b223fc419169153fc87bec8c3dd8483e523c504a04fe8add827824200000000", "vin": [{"txinwitness": ["3045022100f54c1685b481ce78080743733614c10a79ee7a07f7a667db650f0902cf28edf902201be0c5513384ec6e0b339af01cc302c65deb26ad3efa107d69bbb9a76c6cab4201", "0338c9dfe8952dabc5fb6de42cd2483fd87c03c28a7ec47b0b3b4336b6c688cb78"], "sequence": 16777215, "scriptSig": {"hex": "160014a59d95024cea709c2be091e6bb111553ff47f8c1", "asm": "0014a59d95024cea709c2be091e6bb111553ff47f8c1"}, "vout": 1, "txid": "42e2299d1f38c7903aace7855363e5f4bda5f66eb5b746815f80b8bb7cb7343c"}, {"txinwitness": ["30440220495f16690e3f2e2c972186b88738a7f066e7b72cc48e642d0e8e1c531bb4a1bc022002e3f597629ba1c02882c06d8f59e207b27b70e7719d936e816009429126a8ca01", "0254554b493b223fc419169153fc87bec8c3dd8483e523c504a04fe8add8278242"], "sequence": 16777215, "scriptSig": {"hex": "1600147dc9f2596b400708511a2c23aea8794903cafb1e", "asm": "00147dc9f2596b400708511a2c23aea8794903cafb1e"}, "vout": 0, "txid": "42c282410d43dae87343b4f93f08286188562f8e252cd2939e0383c7017903a1"}], "txid": "57007591940a0da692a0812df20b9fa15d1829b4afdaffbd3df3c22313495345", "blocktime": 1537876114, "version": 1, "confirmations": 11460, "time": 1537876114, "locktime": 0, "vsize": 257, "size": 419}