{"hash": "57021485ee498938f6696e1453e0c259475e1a46b5714840210394c147458b90", "blockhash": "00000000000000000017f5eb5941039fbcee6240d03bc1f2f8e35350df66a1d8", "vout": [{"scriptPubKey": {"reqSigs": 1, "hex": "76a9144fe498dcc6714db4721b5a8b2f261a4feb8790b488ac", "addresses": ["18HSEMvxHvHz1afh8TYkCqxKQyYd5nJJf5"], "asm": "OP_DUP OP_HASH160 4fe498dcc6714db4721b5a8b2f261a4feb8790b4 OP_EQUALVERIFY OP_CHECKSIG", "type": "pubkeyhash"}, "value": 0.00286947, "n": 0}, {"scriptPubKey": {"reqSigs": 1, "hex": "76a9147e773270964e4ca7044cb7f8ffd8cc436233291e88ac", "addresses": ["1CXgw8HBesQ4d2jgcaZu99akkZmzMPvKe9"], "asm": "OP_DUP OP_HASH160 7e773270964e4ca7044cb7f8ffd8cc436233291e OP_EQUALVERIFY OP_CHECKSIG", "type": "pubkeyhash"}, "value": 0.00655586, "n": 1}], "hex": "010000000263e67f0d2771864f5e0ccc9f005267da15d39863f23b40d73556b4e892abc4370f0000006a47304402206621a8bfecad4c8663c7f0bc3257826a7837a4bd82e293a9eec76514bbc1dba402206317852f2efba6e48a9473d7a996eb500da7cdcbbfcf9249d5892b19c43708fa0121029e9b40cdaced322aa93187e1af4dbf843f71dbf244e35ba6474befcc16e8b748ffffffff02a802780435235edaa19354a98e0e2bec550ad0723f61d839103c7a023f98f7000000006a4730440220413b474d591d5b333287a02152c947bed83c4907eccbb4b2a10d8fe84795b3d5022006c3516ce916f5680f006cf59445faaf5da1032f310ab08b679258b59959629f0121029e9b40cdaced322aa93187e1af4dbf843f71dbf244e35ba6474befcc16e8b748ffffffff02e3600400000000001976a9144fe498dcc6714db4721b5a8b2f261a4feb8790b488ace2000a00000000001976a9147e773270964e4ca7044cb7f8ffd8cc436233291e88ac00000000", "vin": [{"sequence": 4294967295, "scriptSig": {"hex": "47304402206621a8bfecad4c8663c7f0bc3257826a7837a4bd82e293a9eec76514bbc1dba402206317852f2efba6e48a9473d7a996eb500da7cdcbbfcf9249d5892b19c43708fa0121029e9b40cdaced322aa93187e1af4dbf843f71dbf244e35ba6474befcc16e8b748", "asm": "304402206621a8bfecad4c8663c7f0bc3257826a7837a4bd82e293a9eec76514bbc1dba402206317852f2efba6e48a9473d7a996eb500da7cdcbbfcf9249d5892b19c43708fa[ALL] 029e9b40cdaced322aa93187e1af4dbf843f71dbf244e35ba6474befcc16e8b748"}, "vout": 15, "txid": "37c4ab92e8b45635d7403bf26398d315da6752009fcc0c5e4f8671270d7fe663"}, {"sequence": 4294967295, "scriptSig": {"hex": "4730440220413b474d591d5b333287a02152c947bed83c4907eccbb4b2a10d8fe84795b3d5022006c3516ce916f5680f006cf59445faaf5da1032f310ab08b679258b59959629f0121029e9b40cdaced322aa93187e1af4dbf843f71dbf244e35ba6474befcc16e8b748", "asm": "30440220413b474d591d5b333287a02152c947bed83c4907eccbb4b2a10d8fe84795b3d5022006c3516ce916f5680f006cf59445faaf5da1032f310ab08b679258b59959629f[ALL] 029e9b40cdaced322aa93187e1af4dbf843f71dbf244e35ba6474befcc16e8b748"}, "vout": 0, "txid": "f7983f027a3c1039d8613f72d00a55ec2b0e8ea95493a1da5e2335047802a802"}], "txid": "57021485ee498938f6696e1453e0c259475e1a46b5714840210394c147458b90", "blocktime": 1537874412, "version": 1, "confirmations": 11468, "time": 1537874412, "locktime": 0, "vsize": 372, "size": 372}