{"hash": "57071ea03e1c5f3ce5d1c3f15d44ebd9027511d7765f6aba28841252aaa56429", "blockhash": "00000000000000000024a2167bbff67b0be802c0b01cdd79e6331c2be6459f87", "vout": [{"scriptPubKey": {"reqSigs": 1, "hex": "76a9143fd3709a272d26261f01279d6311ec0670707df188ac", "addresses": ["16pUsBfJLvGLvjFaVcfCJ5Qsb5eE1QcZHn"], "asm": "OP_DUP OP_HASH160 3fd3709a272d26261f01279d6311ec0670707df1 OP_EQUALVERIFY OP_CHECKSIG", "type": "pubkeyhash"}, "value": 0.010188, "n": 0}, {"scriptPubKey": {"reqSigs": 1, "hex": "76a9146d2c9c5530d60beb62b7026d704cbf8fc322b91588ac", "addresses": ["1AxG6WnaPUj1qU9AoRq8o1zP1j3jVuf8tR"], "asm": "OP_DUP OP_HASH160 6d2c9c5530d60beb62b7026d704cbf8fc322b915 OP_EQUALVERIFY OP_CHECKSIG", "type": "pubkeyhash"}, "value": 0.00029917, "n": 1}], "hex": "010000000151eefc7445e995d8c01e18aed3f01cef0b984cd0f1c72e905f8c25f5846a456a000000006b4830450221009a9e4bb78ecf6eaad23b212daa67eed0065a8298bed09cf0aa090abdec8a35c70220237edaa68c17489cbb2002ff1a3076f5a8c01e3cb41968d26eb7994df13abd6f012102deb6105bda1a45496114484284a75bb017896dacabb00636cecc82ebe9a3a316ffffffff02b08b0f00000000001976a9143fd3709a272d26261f01279d6311ec0670707df188acdd740000000000001976a9146d2c9c5530d60beb62b7026d704cbf8fc322b91588ac00000000", "vin": [{"sequence": 4294967295, "scriptSig": {"hex": "4830450221009a9e4bb78ecf6eaad23b212daa67eed0065a8298bed09cf0aa090abdec8a35c70220237edaa68c17489cbb2002ff1a3076f5a8c01e3cb41968d26eb7994df13abd6f012102deb6105bda1a45496114484284a75bb017896dacabb00636cecc82ebe9a3a316", "asm": "30450221009a9e4bb78ecf6eaad23b212daa67eed0065a8298bed09cf0aa090abdec8a35c70220237edaa68c17489cbb2002ff1a3076f5a8c01e3cb41968d26eb7994df13abd6f[ALL] 02deb6105bda1a45496114484284a75bb017896dacabb00636cecc82ebe9a3a316"}, "vout": 0, "txid": "6a456a84f5258c5f902ec7f1d04c980bef1cf0d3ae181ec0d895e94574fcee51"}], "txid": "57071ea03e1c5f3ce5d1c3f15d44ebd9027511d7765f6aba28841252aaa56429", "blocktime": 1537870564, "version": 1, "confirmations": 11515, "time": 1537870564, "locktime": 0, "vsize": 226, "size": 226}