{"hash": "20a162f7acac03b070982eb3c61b030b71cbe53ca1d433222eb40fce3fd68338", "blockhash": "0000000000000000001e0dab787dd257d1dbfcb92a98c2207d5e1078be1f4165", "vout": [{"scriptPubKey": {"reqSigs": 1, "hex": "a9145cc391931306d8381e034dbc25d4e68a341c015787", "addresses": ["3A9WNYHVtpL3x7T2k6PWSBexbUxLvRnAC7"], "asm": "OP_HASH160 5cc391931306d8381e034dbc25d4e68a341c0157 OP_EQUAL", "type": "scripthash"}, "value": 0.09999382, "n": 0}], "hex": "010000000001010cef9a908625e8398721cd7bc90b5d99da2b57d4e2430cf882cf3276b7a67e750100000023220020c7ffd808cb3c37975869225eff07b6937e0c7865815c131ba91b0f587c030b49ffffffff01169498000000000017a9145cc391931306d8381e034dbc25d4e68a341c0157870400483045022100915d94ffdbad49716aa88fda1607074981febac718ed15e3b1b3b149d56da31f02202286bd47f780d6243ced1ae7c133670c5c2655eb1fa748b4173fd76f47354ee601483045022100efbd171a4e8550f389b463815bdec078ccfcbbb9e2ed58898c34836bb3fc0632022010d0a13ebef730439a0a6a5fe6d987a9cc0e325b30ed04db9d6fc6b5a86c91f50147522102dab10070deffb3a0ea287133ed714be9c100162edfa91bd1035de427f173cc4121033cd5fcc68f940f6921c548e8539485080ee4267f6a52c9ffdc268036306f5cff52ae00000000", "vin": [{"txinwitness": ["", "3045022100915d94ffdbad49716aa88fda1607074981febac718ed15e3b1b3b149d56da31f02202286bd47f780d6243ced1ae7c133670c5c2655eb1fa748b4173fd76f47354ee601", "3045022100efbd171a4e8550f389b463815bdec078ccfcbbb9e2ed58898c34836bb3fc0632022010d0a13ebef730439a0a6a5fe6d987a9cc0e325b30ed04db9d6fc6b5a86c91f501", "522102dab10070deffb3a0ea287133ed714be9c100162edfa91bd1035de427f173cc4121033cd5fcc68f940f6921c548e8539485080ee4267f6a52c9ffdc268036306f5cff52ae"], "sequence": 4294967295, "scriptSig": {"hex": "220020c7ffd808cb3c37975869225eff07b6937e0c7865815c131ba91b0f587c030b49", "asm": "0020c7ffd808cb3c37975869225eff07b6937e0c7865815c131ba91b0f587c030b49"}, "vout": 1, "txid": "757ea6b77632cf82f80c43e2d4572bda995d0bc97bcd218739e82586909aef0c"}], "txid": "570b9dad881195fb36da1be0aa9737f9651f04b3f0747c18b2841d834f1a4f91", "blocktime": 1537872475, "version": 1, "confirmations": 11486, "time": 1537872475, "locktime": 0, "vsize": 174, "size": 340}