{"hash": "570df327449384d386f14b90aa0631d55e8da78e2ee6cc80516c3facb6f8e5f7", "blockhash": "00000000000000000004ffacab907a6b429b9a5745fa0b75af4234bf69dd7176", "vout": [{"scriptPubKey": {"reqSigs": 1, "hex": "a914fb68fc52d4a6205ade7e7e74c171ae6145baa0c287", "addresses": ["3QcMJDuJckbSDbNeWQWYMQkmN58yRAYRt2"], "asm": "OP_HASH160 fb68fc52d4a6205ade7e7e74c171ae6145baa0c2 OP_EQUAL", "type": "scripthash"}, "value": 0.004245, "n": 0}], "hex": "010000000189540d162e2c64892a2b954b83a8fa3e5bf118f7e664a8f422dba9efcdc4bfd2010000006b48304502210098bb6205ab2891676296b86d064c630c0132da7b5db0cf4a51b3b32bf98b36ec022025fe57d8adbbdfba817461d306dee15122453838cea150c17c2d7f35dcb96af701210266423ff883261c12fc050a7748569c6d8a6d73182280e5ab80ba25121a6bb223ffffffff01347a06000000000017a914fb68fc52d4a6205ade7e7e74c171ae6145baa0c28700000000", "vin": [{"sequence": 4294967295, "scriptSig": {"hex": "48304502210098bb6205ab2891676296b86d064c630c0132da7b5db0cf4a51b3b32bf98b36ec022025fe57d8adbbdfba817461d306dee15122453838cea150c17c2d7f35dcb96af701210266423ff883261c12fc050a7748569c6d8a6d73182280e5ab80ba25121a6bb223", "asm": "304502210098bb6205ab2891676296b86d064c630c0132da7b5db0cf4a51b3b32bf98b36ec022025fe57d8adbbdfba817461d306dee15122453838cea150c17c2d7f35dcb96af7[ALL] 0266423ff883261c12fc050a7748569c6d8a6d73182280e5ab80ba25121a6bb223"}, "vout": 1, "txid": "d2bfc4cdefa9db22f4a864e6f718f15b3efaa8834b952b2a89642c2e160d5489"}], "txid": "570df327449384d386f14b90aa0631d55e8da78e2ee6cc80516c3facb6f8e5f7", "blocktime": 1537875543, "version": 1, "confirmations": 11464, "time": 1537875543, "locktime": 0, "vsize": 190, "size": 190}