{"hash": "c302a1419342ae8b5504a4055ffea3fffd321dde05ebf3c6fcc82e29b01ca30c", "blockhash": "0000000000000000000e13cef7c366c0283d82e591d1acd082e914b08063cdf1", "vout": [{"scriptPubKey": {"reqSigs": 1, "hex": "76a914cd8d775ea05fe823c0f7529f38c759e3d91bf9e188ac", "addresses": ["1KjrzaN3BLazVADZNQF9HEKeM13rLhXu5e"], "asm": "OP_DUP OP_HASH160 cd8d775ea05fe823c0f7529f38c759e3d91bf9e1 OP_EQUALVERIFY OP_CHECKSIG", "type": "pubkeyhash"}, "value": 0.0057, "n": 0}, {"scriptPubKey": {"reqSigs": 1, "hex": "a9145228b4e541cd0aa414528ba8464f489c33c903ee87", "addresses": ["39BS6ctdGCSJhaYrr3vBD3aTMVnr9z7k4W"], "asm": "OP_HASH160 5228b4e541cd0aa414528ba8464f489c33c903ee OP_EQUAL", "type": "scripthash"}, "value": 1.40913451, "n": 1}], "hex": "02000000000101829db75550a5837ce2462d5b8e9fe503820d8faedc52e86058b0c20a40e60ded00000000171600144113c25f2b7da337e5cc4e4555456083fc2e894effffffff0290b20800000000001976a914cd8d775ea05fe823c0f7529f38c759e3d91bf9e188ac2b2b66080000000017a9145228b4e541cd0aa414528ba8464f489c33c903ee87024730440220732c5dc8f9947baf83abda9e5d4c12eab45cdcb08d36e68fd330e5992cf26b05022016170b4da1003ef1ca59a96f49b142ab8141f991c2c52ea7af380af15d7ea5a20121038c9665c87a81aeef839eadf6dd9b3e5f7ff71a0469fa763d3fe0c1c178f19c9400000000", "vin": [{"txinwitness": ["30440220732c5dc8f9947baf83abda9e5d4c12eab45cdcb08d36e68fd330e5992cf26b05022016170b4da1003ef1ca59a96f49b142ab8141f991c2c52ea7af380af15d7ea5a201", "038c9665c87a81aeef839eadf6dd9b3e5f7ff71a0469fa763d3fe0c1c178f19c94"], "sequence": 4294967295, "scriptSig": {"hex": "1600144113c25f2b7da337e5cc4e4555456083fc2e894e", "asm": "00144113c25f2b7da337e5cc4e4555456083fc2e894e"}, "vout": 0, "txid": "ed0de6400ac2b05860e852dcae8f0d8203e59f8e5b2d46e27c83a55055b79d82"}], "txid": "57147121fb69ae63e608aed24d1adb3359f4d4d71bb07b9156f16418d7ec62f3", "blocktime": 1537871767, "version": 2, "confirmations": 11493, "time": 1537871767, "locktime": 0, "vsize": 168, "size": 249}