{"hash": "ff91e57baff69a80ebc239cdd21fbc179a862189ed04b767879d55e9d382a459", "blockhash": "00000000000000000004ffacab907a6b429b9a5745fa0b75af4234bf69dd7176", "vout": [{"scriptPubKey": {"reqSigs": 1, "hex": "a914bbad1c43d6aefe3ac58b59a13bdfce268594169287", "addresses": ["3JoMfLZxwpbpeRXG9FRSp8V9MEGWqHdHq3"], "asm": "OP_HASH160 bbad1c43d6aefe3ac58b59a13bdfce2685941692 OP_EQUAL", "type": "scripthash"}, "value": 0.0071296, "n": 0}, {"scriptPubKey": {"reqSigs": 1, "hex": "a9146bdd7701136458a6ecb1af46dae2a66353dc6b2387", "addresses": ["3BXMXib85oqoUYjaZXZDo6JGVgKCzBkzd2"], "asm": "OP_HASH160 6bdd7701136458a6ecb1af46dae2a66353dc6b23 OP_EQUAL", "type": "scripthash"}, "value": 0.0031966, "n": 1}, {"scriptPubKey": {"reqSigs": 1, "hex": "a9140fecb7dba0471146c20b9b8ef7f00cf363c1747587", "addresses": ["339DdtZLjspLkxBLsZevPr5x7CGP8K3hPY"], "asm": "OP_HASH160 0fecb7dba0471146c20b9b8ef7f00cf363c17475 OP_EQUAL", "type": "scripthash"}, "value": 0.00047146, "n": 2}, {"scriptPubKey": {"reqSigs": 1, "hex": "a9145d8d947e2787d66252bc3bd777f50856ca00e7c887", "addresses": ["3ADgNYB8djPbeSVJqdQZSDEZPDo2H57j99"], "asm": "OP_HASH160 5d8d947e2787d66252bc3bd777f50856ca00e7c8 OP_EQUAL", "type": "scripthash"}, "value": 0.00023482, "n": 3}, {"scriptPubKey": {"reqSigs": 1, "hex": "a914c8a1b99e6e74e95313ec9b0320b9a21e6834a2d387", "addresses": ["3KyromKZcNZk8vizLCzJMsvTX5JoJ1kzhF"], "asm": "OP_HASH160 c8a1b99e6e74e95313ec9b0320b9a21e6834a2d3 OP_EQUAL", "type": "scripthash"}, "value": 2.67588246, "n": 4}, {"scriptPubKey": {"reqSigs": 1, "hex": "a914913a72f7a3f7bdc482f2b10b3db85e0b608bdc8887", "addresses": ["3EvuvUQ9xfnUKvS75PdfYSLiwW8QdQWakD"], "asm": "OP_HASH160 913a72f7a3f7bdc482f2b10b3db85e0b608bdc88 OP_EQUAL", "type": "scripthash"}, "value": 0.0047566, "n": 5}, {"scriptPubKey": {"reqSigs": 1, "hex": "a914e71098535de51fa51f5bdf52dfecd4f5b3adf43f87", "addresses": ["3Nkmtu6FT3gmg4P6HKrsqpLXZiQLUXjGHu"], "asm": "OP_HASH160 e71098535de51fa51f5bdf52dfecd4f5b3adf43f OP_EQUAL", "type": "scripthash"}, "value": 0.0024, "n": 6}, {"scriptPubKey": {"reqSigs": 1, "hex": "a914b12a27cd2ff2c63c8bde44bf7400cc2f6a5de03787", "addresses": ["3Hqn2Wcpuhtx3pbNZXSDaHFqftU6bjfaFX"], "asm": "OP_HASH160 b12a27cd2ff2c63c8bde44bf7400cc2f6a5de037 OP_EQUAL", "type": "scripthash"}, "value": 0.0032056, "n": 7}, {"scriptPubKey": {"reqSigs": 1, "hex": "76a9149fd1351d1e9b5cfa603ad84363e3fb03c78c88e188ac", "addresses": ["1Fa34VVeFqvzMhXU4pvNX9wfAYoJ3pAdJj"], "asm": "OP_DUP OP_HASH160 9fd1351d1e9b5cfa603ad84363e3fb03c78c88e1 OP_EQUALVERIFY OP_CHECKSIG", "type": "pubkeyhash"}, "value": 0.00241129, "n": 8}, {"scriptPubKey": {"reqSigs": 1, "hex": "76a9147b41911f1d5ce37c15e845033a5675863d40fae788ac", "addresses": ["1CEifGC35gH9QCFFgcg8HvprZd2h51vjGp"], "asm": "OP_DUP OP_HASH160 7b41911f1d5ce37c15e845033a5675863d40fae7 OP_EQUALVERIFY OP_CHECKSIG", "type": "pubkeyhash"}, "value": 0.00307876, "n": 9}, {"scriptPubKey": {"reqSigs": 1, "hex": "a9140f4a2ff0a60ff4c57af0fae1871157760858f15087", "addresses": ["335rw3SEkK8q8zypPbnax7a8677311dPzM"], "asm": "OP_HASH160 0f4a2ff0a60ff4c57af0fae1871157760858f150 OP_EQUAL", "type": "scripthash"}, "value": 0.0019026, "n": 10}, {"scriptPubKey": {"reqSigs": 1, "hex": "a9140407d9260f3b4e1333893f5726b4993d6ec99ffe87", "addresses": ["324L2cgxGAjGS5b5i8is511zEHS96eYHEE"], "asm": "OP_HASH160 0407d9260f3b4e1333893f5726b4993d6ec99ffe OP_EQUAL", "type": "scripthash"}, "value": 0.0027826, "n": 11}, {"scriptPubKey": {"reqSigs": 1, "hex": "a914ad2ffaca3ee70e3fdd803806910d89c66b96b67f87", "addresses": ["3HUkJR1mnYBaTm3nGi1FTAgDEms3ftf4d8"], "asm": "OP_HASH160 ad2ffaca3ee70e3fdd803806910d89c66b96b67f OP_EQUAL", "type": "scripthash"}, "value": 0.00318305, "n": 12}, {"scriptPubKey": {"reqSigs": 1, "hex": "a914439c049082592d64df2b18c1c0faa8832c419e2387", "addresses": ["37rW6hrmYWVK2RrndsViimVA2ErmSwkLKs"], "asm": "OP_HASH160 439c049082592d64df2b18c1c0faa8832c419e23 OP_EQUAL", "type": "scripthash"}, "value": 0.0047526, "n": 13}, {"scriptPubKey": {"reqSigs": 1, "hex": "a914ec3210e03119c5672c5d9a48004a88fdc6ad92ff87", "addresses": ["3PDuNTTGbB1Amx2Bgh5TE8iugneVaHfETn"], "asm": "OP_HASH160 ec3210e03119c5672c5d9a48004a88fdc6ad92ff OP_EQUAL", "type": "scripthash"}, "value": 0.00265441, "n": 14}, {"scriptPubKey": {"reqSigs": 1, "hex": "a91448d8fd3a1e948b8446b825b11bba2444b9c60ea487", "addresses": ["38LCX2XwHC1LeHCqHzR1bEtoyGSMJgaDzo"], "asm": "OP_HASH160 48d8fd3a1e948b8446b825b11bba2444b9c60ea4 OP_EQUAL", "type": "scripthash"}, "value": 0.0030916, "n": 15}, {"scriptPubKey": {"reqSigs": 1, "hex": "76a9140e6be6d10459a1ba7896c816dcf514721939dfa888ac", "addresses": ["12KFipgXAfBWFsAZBZFMeEGggZ85KKwEGb"], "asm": "OP_DUP OP_HASH160 0e6be6d10459a1ba7896c816dcf514721939dfa8 OP_EQUALVERIFY OP_CHECKSIG", "type": "pubkeyhash"}, "value": 0.00099292, "n": 16}, {"scriptPubKey": {"reqSigs": 1, "hex": "a914110bef7a346b2d7e05b34433548d65feb25642c987", "addresses": ["33F9i6U3Sg9gJSrVpu1NPqToyuZpSvQXR1"], "asm": "OP_HASH160 110bef7a346b2d7e05b34433548d65feb25642c9 OP_EQUAL", "type": "scripthash"}, "value": 0.0047496, "n": 17}, {"scriptPubKey": {"reqSigs": 1, "hex": "a91483c13618615dd8611f2b79ed4ffe4a0263625c1087", "addresses": ["3DhfuELEZT62deB9swad5T9kz4f2GuXFf8"], "asm": "OP_HASH160 83c13618615dd8611f2b79ed4ffe4a0263625c10 OP_EQUAL", "type": "scripthash"}, "value": 0.0032966, "n": 18}], "hex": "02000000000101b752da1b153d880722095d24fb7e6fd82207e2a157b5bfe86771f79f02d380a20c0000001716001457c10517c1e257d5869e1767fc65b4a1c8b6d669feffffff1300e10a000000000017a914bbad1c43d6aefe3ac58b59a13bdfce268594169287ace004000000000017a9146bdd7701136458a6ecb1af46dae2a66353dc6b23872ab800000000000017a9140fecb7dba0471146c20b9b8ef7f00cf363c1747587ba5b00000000000017a9145d8d947e2787d66252bc3bd777f50856ca00e7c8879612f30f0000000017a914c8a1b99e6e74e95313ec9b0320b9a21e6834a2d3870c4207000000000017a914913a72f7a3f7bdc482f2b10b3db85e0b608bdc888780a903000000000017a914e71098535de51fa51f5bdf52dfecd4f5b3adf43f8730e404000000000017a914b12a27cd2ff2c63c8bde44bf7400cc2f6a5de03787e9ad0300000000001976a9149fd1351d1e9b5cfa603ad84363e3fb03c78c88e188aca4b20400000000001976a9147b41911f1d5ce37c15e845033a5675863d40fae788ac34e702000000000017a9140f4a2ff0a60ff4c57af0fae1871157760858f15087f43e04000000000017a9140407d9260f3b4e1333893f5726b4993d6ec99ffe8761db04000000000017a914ad2ffaca3ee70e3fdd803806910d89c66b96b67f877c4007000000000017a914439c049082592d64df2b18c1c0faa8832c419e2387e10c04000000000017a914ec3210e03119c5672c5d9a48004a88fdc6ad92ff87a8b704000000000017a91448d8fd3a1e948b8446b825b11bba2444b9c60ea487dc830100000000001976a9140e6be6d10459a1ba7896c816dcf514721939dfa888ac503f07000000000017a914110bef7a346b2d7e05b34433548d65feb25642c987bc0705000000000017a91483c13618615dd8611f2b79ed4ffe4a0263625c108702483045022100a77c21b927e5d7f659d44afd5e4b58069721465be7ccecb9a6b2c1701c67e0bf022073922cf14d2f290d20d232a85ae1b2e5c4a9aff0506a5d5d54000fc373922916012102722122ff1c7586357868ebf76b9e97aaa10f9df3a201004c4a1b20a4ff287ad916490800", "vin": [{"txinwitness": ["3045022100a77c21b927e5d7f659d44afd5e4b58069721465be7ccecb9a6b2c1701c67e0bf022073922cf14d2f290d20d232a85ae1b2e5c4a9aff0506a5d5d54000fc37392291601", "02722122ff1c7586357868ebf76b9e97aaa10f9df3a201004c4a1b20a4ff287ad9"], "sequence": 4294967294, "scriptSig": {"hex": "16001457c10517c1e257d5869e1767fc65b4a1c8b6d669", "asm": "001457c10517c1e257d5869e1767fc65b4a1c8b6d669"}, "vout": 12, "txid": "a280d3029ff77167e8bfb557a1e20722d86f7efb245d092207883d151bda52b7"}], "txid": "5723fdc77bd6379e39d560840c46865aee48f8f9385962be70af204fe6a9667f", "blocktime": 1537875543, "version": 2, "confirmations": 11464, "time": 1537875543, "locktime": 542998, "vsize": 716, "size": 798}