{"hash": "b448184f4da2d6f7b937e7860bbdb0bd588cf02ff9ff65e1333bd3aa0682fb09", "blockhash": "0000000000000000001cda96e906b7601b7a6fb1a3b62bca570a9e5d8f4b3de1", "vout": [{"scriptPubKey": {"reqSigs": 1, "hex": "a91486a56420a47acd5f7341ac26653aa8086509483387", "addresses": ["3Dxxbpqz6XNqVjg4PdNiMh9S5E9qV3Z8rn"], "asm": "OP_HASH160 86a56420a47acd5f7341ac26653aa80865094833 OP_EQUAL", "type": "scripthash"}, "value": 0.011595, "n": 0}, {"scriptPubKey": {"reqSigs": 1, "hex": "a914ea645e5e20987adfaa9d5fa4a915d008965f102387", "addresses": ["3P4NHAbib3uvj6QNYmPWqEJMZnx4HzszTp"], "asm": "OP_HASH160 ea645e5e20987adfaa9d5fa4a915d008965f1023 OP_EQUAL", "type": "scripthash"}, "value": 0.01001073, "n": 1}], "hex": "0200000000010262427f0ba53ec60b32f2fdfb2d8fcff9ea05486d9e0a8d9399ed51ad6faa8e711a0000001716001486b2d4f2e7a4f42a99579bda2e5d75d1e3e0e04bffffffff0cd717ee9682138626bf272cb4722e364b4fd062bd807d98e5e8b31ef5651b980100000017160014466ef63a115b0d6ceec4bff1f676278931b991e9ffffffff024cb111000000000017a91486a56420a47acd5f7341ac26653aa808650948338771460f000000000017a914ea645e5e20987adfaa9d5fa4a915d008965f1023870247304402206459a7b06ab4c317483877919c8a246b1a112ed4cf3b52d8e33bc7b6963279e402202193d66f38b92e663a21ec4b320da3c72e76a8e8856777efdda1f20099c3a99801210297d952c4d780ec4894edaa20f0cf9a87e4efd53e0e396b6f99a35cb39bc2b97a0247304402204fbe074ecfcfaf7825c4420a11a5b0e7bf203993556473594416e9c09609b54c02202f462cc84dbc17abec89a8678b35ee58f63d7a0c91402cca00d9d24863f361ad012102cbd520d6056890b89b093cd8896fbb76f88449df096441d8373150ba289206e300000000", "vin": [{"txinwitness": ["304402206459a7b06ab4c317483877919c8a246b1a112ed4cf3b52d8e33bc7b6963279e402202193d66f38b92e663a21ec4b320da3c72e76a8e8856777efdda1f20099c3a99801", "0297d952c4d780ec4894edaa20f0cf9a87e4efd53e0e396b6f99a35cb39bc2b97a"], "sequence": 4294967295, "scriptSig": {"hex": "16001486b2d4f2e7a4f42a99579bda2e5d75d1e3e0e04b", "asm": "001486b2d4f2e7a4f42a99579bda2e5d75d1e3e0e04b"}, "vout": 26, "txid": "718eaa6fad51ed99938d0a9e6d4805eaf9cf8f2dfbfdf2320bc63ea50b7f4262"}, {"txinwitness": ["304402204fbe074ecfcfaf7825c4420a11a5b0e7bf203993556473594416e9c09609b54c02202f462cc84dbc17abec89a8678b35ee58f63d7a0c91402cca00d9d24863f361ad01", "02cbd520d6056890b89b093cd8896fbb76f88449df096441d8373150ba289206e3"], "sequence": 4294967295, "scriptSig": {"hex": "160014466ef63a115b0d6ceec4bff1f676278931b991e9", "asm": "0014466ef63a115b0d6ceec4bff1f676278931b991e9"}, "vout": 1, "txid": "981b65f51eb3e8e5987d80bd62d04f4b362e72b42c27bf2686138296ee17d70c"}], "txid": "5723669285da2299f0d9121ab4c1e51851d0413962a4065a749b32e62be80ec3", "blocktime": 1537873282, "version": 2, "confirmations": 11485, "time": 1537873282, "locktime": 0, "vsize": 256, "size": 418}