{"hash": "64c92502fe2a7083581a3a6c1385d376f3e792b0ccfa273df44ee39eda223b3a", "blockhash": "00000000000000000017f5eb5941039fbcee6240d03bc1f2f8e35350df66a1d8", "vout": [{"scriptPubKey": {"reqSigs": 1, "hex": "a91469f376c69bda8cb726ee71f76d2ed159271da98a87", "addresses": ["3BMEXrmxEbDcNUBfwiztxzK836PUas9DbX"], "asm": "OP_HASH160 69f376c69bda8cb726ee71f76d2ed159271da98a OP_EQUAL", "type": "scripthash"}, "value": 0.0202023, "n": 0}, {"scriptPubKey": {"reqSigs": 1, "hex": "a914726789b4b67274cba09ff5ca733f1c18c9cf615a87", "addresses": ["3C7vzMR26WMvvMJcevwGYMXcHcTGt7d2X2"], "asm": "OP_HASH160 726789b4b67274cba09ff5ca733f1c18c9cf615a OP_EQUAL", "type": "scripthash"}, "value": 221.65244648, "n": 1}], "hex": "02000000000101bea46d00dc6e0216cc276f973adef7eb138c5aec6ebd4c22d7a8b6d3b947ad850000000017160014aaf095ae71787a25067fadbacbeeff0623781baafeffffff0286d31e000000000017a91469f376c69bda8cb726ee71f76d2ed159271da98a87e8ca26290500000017a914726789b4b67274cba09ff5ca733f1c18c9cf615a870247304402206039f89b677d739a447b7e00b7ca60f19cb22097213ce3a7ee568c4a9ff1d076022060c8f6fb59b66e1a27f71db40840f80d6878fc506bbeba8c905bac1e70897d41012102fe75fcdeef6b640562d38b663adf8f0d8da0021e90bd226ee4279b6e0c31277c15490800", "vin": [{"txinwitness": ["304402206039f89b677d739a447b7e00b7ca60f19cb22097213ce3a7ee568c4a9ff1d076022060c8f6fb59b66e1a27f71db40840f80d6878fc506bbeba8c905bac1e70897d4101", "02fe75fcdeef6b640562d38b663adf8f0d8da0021e90bd226ee4279b6e0c31277c"], "sequence": 4294967294, "scriptSig": {"hex": "160014aaf095ae71787a25067fadbacbeeff0623781baa", "asm": "0014aaf095ae71787a25067fadbacbeeff0623781baa"}, "vout": 0, "txid": "85ad47b9d3b6a8d7224cbd6eec5a8c13ebf7de3a976f27cc16026edc006da4be"}], "txid": "57293f7533a245ddf044621ff3dfc780da9ead36e708a0b11f9218e7b449f3f2", "blocktime": 1537874412, "version": 2, "confirmations": 11466, "time": 1537874412, "locktime": 542997, "vsize": 166, "size": 247}