{"hash": "572a260401c0c529b3d1548d8fdc8bfe89c930035dc8e9db8196e1080a8c718b", "blockhash": "0000000000000000000baef3f32e3676a92c3b2e5da21b426e4f302fc371ce76", "vout": [{"scriptPubKey": {"reqSigs": 1, "hex": "76a914190a25b7e759e0f7a94ea7c79d81d0dc8cad4d3f88ac", "addresses": ["13HQ3r1zgsYYemPgcJyKc4gjiw7mgddxFw"], "asm": "OP_DUP OP_HASH160 190a25b7e759e0f7a94ea7c79d81d0dc8cad4d3f OP_EQUALVERIFY OP_CHECKSIG", "type": "pubkeyhash"}, "value": 0.01245824, "n": 0}, {"scriptPubKey": {"reqSigs": 1, "hex": "76a9147189ffc89dd31dbbb3326e46c122c20b62235f1888ac", "addresses": ["1BMLg2XC3q6Wu9PWoWJKtBRwquhKpu4w33"], "asm": "OP_DUP OP_HASH160 7189ffc89dd31dbbb3326e46c122c20b62235f18 OP_EQUALVERIFY OP_CHECKSIG", "type": "pubkeyhash"}, "value": 0.09057464, "n": 1}], "hex": "01000000022f556da31a31be35bcf356b4aa37e3b561c9dd00a4e50bfe97687371531f8c5d010000006a47304402203cfdba4cf00638883bfc2b956a8dc90e304981333f16d94a48507ea200a63c36022067cf602cdc7959445a7d1dc468a8fbca4d5dda4a53b4bcde2db852c34838283d01210237bd564ae51154f47aae094e02f371ee557757dc4b20696beb0cc78750b11c21feffffff836142c920b805e5aa52b6dd794c3da9e9c6ba9a7d9ecb639114921dd3ee5fd6000000006b483045022100fdc6fd05829440ec7b6a1421ba7bbcce64db0397c16362901fd5544a87c4d958022050261064090fdedca88887a880135006c1ecb17f29bd41aafdb0a09fa4d3dde9012103271baaf07f0c7d3c60d2c599d28f2573ab80a9d5c26fb3da5f3705fb03fa36befeffffff0280021300000000001976a914190a25b7e759e0f7a94ea7c79d81d0dc8cad4d3f88acb8348a00000000001976a9147189ffc89dd31dbbb3326e46c122c20b62235f1888ac00000000", "vin": [{"sequence": 4294967294, "scriptSig": {"hex": "47304402203cfdba4cf00638883bfc2b956a8dc90e304981333f16d94a48507ea200a63c36022067cf602cdc7959445a7d1dc468a8fbca4d5dda4a53b4bcde2db852c34838283d01210237bd564ae51154f47aae094e02f371ee557757dc4b20696beb0cc78750b11c21", "asm": "304402203cfdba4cf00638883bfc2b956a8dc90e304981333f16d94a48507ea200a63c36022067cf602cdc7959445a7d1dc468a8fbca4d5dda4a53b4bcde2db852c34838283d[ALL] 0237bd564ae51154f47aae094e02f371ee557757dc4b20696beb0cc78750b11c21"}, "vout": 1, "txid": "5d8c1f5371736897fe0be5a400ddc961b5e337aab456f3bc35be311aa36d552f"}, {"sequence": 4294967294, "scriptSig": {"hex": "483045022100fdc6fd05829440ec7b6a1421ba7bbcce64db0397c16362901fd5544a87c4d958022050261064090fdedca88887a880135006c1ecb17f29bd41aafdb0a09fa4d3dde9012103271baaf07f0c7d3c60d2c599d28f2573ab80a9d5c26fb3da5f3705fb03fa36be", "asm": "3045022100fdc6fd05829440ec7b6a1421ba7bbcce64db0397c16362901fd5544a87c4d958022050261064090fdedca88887a880135006c1ecb17f29bd41aafdb0a09fa4d3dde9[ALL] 03271baaf07f0c7d3c60d2c599d28f2573ab80a9d5c26fb3da5f3705fb03fa36be"}, "vout": 0, "txid": "d65feed31d92149163cb9e7d9abac6e9a93d4c79ddb652aae505b820c9426183"}], "txid": "572a260401c0c529b3d1548d8fdc8bfe89c930035dc8e9db8196e1080a8c718b", "blocktime": 1537876114, "version": 1, "confirmations": 11460, "time": 1537876114, "locktime": 0, "vsize": 373, "size": 373}