{"hash": "572c12de80bb88fb8af1b3eec0f178f0898c7e07d5bb7e860967e851b4ff8bde", "blockhash": "0000000000000000000e13cef7c366c0283d82e591d1acd082e914b08063cdf1", "vout": [{"scriptPubKey": {"reqSigs": 1, "hex": "a91436afc7137336c88d936b2441579e179a24ac6c0b87", "addresses": ["36gAz9VLwjvTcjvxruQpeGBhiV4y9WMaiA"], "asm": "OP_HASH160 36afc7137336c88d936b2441579e179a24ac6c0b OP_EQUAL", "type": "scripthash"}, "value": 0.00781207, "n": 0}, {"scriptPubKey": {"reqSigs": 1, "hex": "76a914353bc360f16bbf6a40b3bf30cd979172bf3b68f988ac", "addresses": ["15rUQb31gqb8sqbf1TwGSkELKKay6QrnyF"], "asm": "OP_DUP OP_HASH160 353bc360f16bbf6a40b3bf30cd979172bf3b68f9 OP_EQUALVERIFY OP_CHECKSIG", "type": "pubkeyhash"}, "value": 0.19213476, "n": 1}], "hex": "01000000017ed4c6d78c75a7702ee0a9340411bf7532ba4002ef9647d34ad931e7a61a0000010000006b483045022100f68cddb9fc42b1a721e49d32919d9e17476c672957996bfb609985ecc760b0b7022038865bc635db5b56e655535ad7a2c2dd1f140327908a8fe84ecc18dd062d7166012103fae75ed55bbcb222995f4c408068e61b219f63cf65e808a7b36215d1420f6541ffffffff0297eb0b000000000017a91436afc7137336c88d936b2441579e179a24ac6c0b87a42c2501000000001976a914353bc360f16bbf6a40b3bf30cd979172bf3b68f988ac00000000", "vin": [{"sequence": 4294967295, "scriptSig": {"hex": "483045022100f68cddb9fc42b1a721e49d32919d9e17476c672957996bfb609985ecc760b0b7022038865bc635db5b56e655535ad7a2c2dd1f140327908a8fe84ecc18dd062d7166012103fae75ed55bbcb222995f4c408068e61b219f63cf65e808a7b36215d1420f6541", "asm": "3045022100f68cddb9fc42b1a721e49d32919d9e17476c672957996bfb609985ecc760b0b7022038865bc635db5b56e655535ad7a2c2dd1f140327908a8fe84ecc18dd062d7166[ALL] 03fae75ed55bbcb222995f4c408068e61b219f63cf65e808a7b36215d1420f6541"}, "vout": 1, "txid": "00001aa6e731d94ad34796ef0240ba3275bf110434a9e02e70a7758cd7c6d47e"}], "txid": "572c12de80bb88fb8af1b3eec0f178f0898c7e07d5bb7e860967e851b4ff8bde", "blocktime": 1537871767, "version": 1, "confirmations": 11495, "time": 1537871767, "locktime": 0, "vsize": 224, "size": 224}