{"hash": "bf34aad044eef4f37ff96cf2724cdc96fe400e81aaa20902bf9c36f8b08270e7", "blockhash": "0000000000000000000dcc0f55137456b1a82d3642486a52398922ac4d620174", "vout": [{"scriptPubKey": {"reqSigs": 1, "hex": "00149150c047f29eafc5ced231f01fde8d8be9a8a1f1", "addresses": ["bc1qj9gvq3ljn6hutnkjx8cplh5d30563g03y7xme3"], "asm": "0 9150c047f29eafc5ced231f01fde8d8be9a8a1f1", "type": "witness_v0_keyhash"}, "value": 0.52399112, "n": 0}, {"scriptPubKey": {"reqSigs": 1, "hex": "a9149d6c5f791462cf55fc84eaae6affe369df74802287", "addresses": ["3G3PqYZxiLAycXuoDqEy3eWRhnhVVVxvTr"], "asm": "OP_HASH160 9d6c5f791462cf55fc84eaae6affe369df748022 OP_EQUAL", "type": "scripthash"}, "value": 12.0, "n": 1}], "hex": "010000000001021c8aaff8a257c70026e9c7962ae5726b4edbd6cc15e48837debe84918799193f0100000000ffffffff9c966d38f4987f876668b6cebe4e959175fb7e9721867dc97f1e154d12386c9b0b0000006b4830450221009aa3a6f6404289e2a22dcd916063c975ecdfc84e59f4f7cc62897a6ab2f91a980220685e08f935653401f1cffd0f657fc690ce065124749d6e106d7e47129f7a2a7a012102d75dba6582a1e18000ed6d684283166e394a325cdeeedce912b773c3221aa48affffffff02088c1f03000000001600149150c047f29eafc5ced231f01fde8d8be9a8a1f1008c86470000000017a9149d6c5f791462cf55fc84eaae6affe369df7480228702463043021f76a2ef057a8b3bc40c78be7f92edfe80638338b98e5fc3224fdeeffbf598c60220162080da20efcd2184f53622740781a9fcda673e77e3c63837ce465425d296050121020e43c0e13504899e17b4b6959327e2ee9bca23d1ac68e6e1e28bbc0656f015d80000000000", "vin": [{"txinwitness": ["3043021f76a2ef057a8b3bc40c78be7f92edfe80638338b98e5fc3224fdeeffbf598c60220162080da20efcd2184f53622740781a9fcda673e77e3c63837ce465425d2960501", "020e43c0e13504899e17b4b6959327e2ee9bca23d1ac68e6e1e28bbc0656f015d8"], "sequence": 4294967295, "scriptSig": {"hex": "", "asm": ""}, "vout": 1, "txid": "3f1999879184bede3788e415ccd6db4e6b72e52a96c7e92600c757a2f8af8a1c"}, {"sequence": 4294967295, "scriptSig": {"hex": "4830450221009aa3a6f6404289e2a22dcd916063c975ecdfc84e59f4f7cc62897a6ab2f91a980220685e08f935653401f1cffd0f657fc690ce065124749d6e106d7e47129f7a2a7a012102d75dba6582a1e18000ed6d684283166e394a325cdeeedce912b773c3221aa48a", "asm": "30450221009aa3a6f6404289e2a22dcd916063c975ecdfc84e59f4f7cc62897a6ab2f91a980220685e08f935653401f1cffd0f657fc690ce065124749d6e106d7e47129f7a2a7a[ALL] 02d75dba6582a1e18000ed6d684283166e394a325cdeeedce912b773c3221aa48a"}, "vout": 11, "txid": "9b6c38124d151e7fc97d8621977efb7591954ebeceb66866877f98f4386d969c"}], "txid": "572d724b15cc857fa88a48b5393af35d6eab33c824f650e0845d5406094983f2", "blocktime": 1537870268, "version": 1, "confirmations": 11518, "time": 1537870268, "locktime": 0, "vsize": 290, "size": 371}