{"hash": "87edaa5dbb6df0acef68ac425926b5b772994e0317541e67c72925766802e509", "blockhash": "0000000000000000001f0ddff1eddb255c1121bcd4da4f1bc9a0da00cae72433", "vout": [{"scriptPubKey": {"reqSigs": 1, "hex": "a9149bb178b2591c395b8cf29a8654442f56bc3502de87", "addresses": ["3FtFGDDf8bgD1CUBtvkqfc4NuUCinAwPZZ"], "asm": "OP_HASH160 9bb178b2591c395b8cf29a8654442f56bc3502de OP_EQUAL", "type": "scripthash"}, "value": 5.0, "n": 0}, {"scriptPubKey": {"reqSigs": 1, "hex": "a91484656531b0377acc76a70358f2b49cc07e6c2fa887", "addresses": ["3Dm4aw6qmNgngEjxWmGQPMjJLFShrfi3wq"], "asm": "OP_HASH160 84656531b0377acc76a70358f2b49cc07e6c2fa8 OP_EQUAL", "type": "scripthash"}, "value": 0.0171874, "n": 1}], "hex": "0200000000010207803117643aa6573005d1a6d989b7470c4ab4d6d308e2eb0b1e8a77f5e6d99c0c00000017160014472ca67f4b44a687d7bbc892ac78e6c39e57f718feffffff8ea8fb61558c4007011cbffad8f32ab67721faf6ff0c11bf162c782d6a47ea2701000000171600143fd99d2b49f8156126e965f17904097c266fda4efeffffff020065cd1d0000000017a9149bb178b2591c395b8cf29a8654442f56bc3502de87d4391a000000000017a91484656531b0377acc76a70358f2b49cc07e6c2fa8870247304402206b78039607912ac5647a0e02ce026ce57848a91a9914f43ed29f72e84da40fa002206ea4c77be96526546f324f45a19e181c6c6ca7211b90e648912a3767bf44c7810121030c94577906227015124ac2a8d6aad3338082d45df47b8204be77f2ecb323687202483045022100d6774337a0a8b7421d387761a5810d1fa5c479ab3efe049e4c5272be35800f4f02206f124fd6efb66060846ce3025e97086a710c46149f107a183345455760b4b5e7012103869d988e620642fb78c86cd076a8aaba50b1d42a6b122a68031f9a6ede4cc42ef7480800", "vin": [{"txinwitness": ["304402206b78039607912ac5647a0e02ce026ce57848a91a9914f43ed29f72e84da40fa002206ea4c77be96526546f324f45a19e181c6c6ca7211b90e648912a3767bf44c78101", "030c94577906227015124ac2a8d6aad3338082d45df47b8204be77f2ecb3236872"], "sequence": 4294967294, "scriptSig": {"hex": "160014472ca67f4b44a687d7bbc892ac78e6c39e57f718", "asm": "0014472ca67f4b44a687d7bbc892ac78e6c39e57f718"}, "vout": 12, "txid": "9cd9e6f5778a1e0bebe208d3d6b44a0c47b789d9a6d1053057a63a6417318007"}, {"txinwitness": ["3045022100d6774337a0a8b7421d387761a5810d1fa5c479ab3efe049e4c5272be35800f4f02206f124fd6efb66060846ce3025e97086a710c46149f107a183345455760b4b5e701", "03869d988e620642fb78c86cd076a8aaba50b1d42a6b122a68031f9a6ede4cc42e"], "sequence": 4294967294, "scriptSig": {"hex": "1600143fd99d2b49f8156126e965f17904097c266fda4e", "asm": "00143fd99d2b49f8156126e965f17904097c266fda4e"}, "vout": 1, "txid": "27ea476a2d782c16bf110cfff6fa2177b62af3d8fabf1c0107408c5561fba88e"}], "txid": "572d344b99bc5840cf834eaffe6e78986391ccdf6eb28bfc9debe51c99a127a6", "blocktime": 1537872018, "version": 2, "confirmations": 11489, "time": 1537872018, "locktime": 542967, "vsize": 257, "size": 419}