{"hash": "30c81c14fbbd7ac81c0b0eaa83afe2b4368eb05f92f476b57691018513cb0b37", "blockhash": "000000000000000000022b45ed06c6f4ccd3cf7fb5ba4856ebd2e58215665228", "vout": [{"scriptPubKey": {"reqSigs": 1, "hex": "a9140a920d296ff349a0a050f596631ae2df7c8a364d87", "addresses": ["32eueHu8Fb1DkZTR8dQL5asp5AR4aVrUCx"], "asm": "OP_HASH160 0a920d296ff349a0a050f596631ae2df7c8a364d OP_EQUAL", "type": "scripthash"}, "value": 0.03958948, "n": 0}, {"scriptPubKey": {"reqSigs": 1, "hex": "a914c52fe0957a59c8ea9b7ed87214091e6acd6cf1cd87", "addresses": ["3KfePuWWDLf57C6ppV5NXbJD81xwY98mHj"], "asm": "OP_HASH160 c52fe0957a59c8ea9b7ed87214091e6acd6cf1cd OP_EQUAL", "type": "scripthash"}, "value": 0.00698948, "n": 1}, {"scriptPubKey": {"reqSigs": 1, "hex": "76a9146fe884ea066111661a0c5ec67d7bb819b9c5512b88ac", "addresses": ["1BCiZ1b7F9WrYGitX868LZrAqG7H9Zcayc"], "asm": "OP_DUP OP_HASH160 6fe884ea066111661a0c5ec67d7bb819b9c5512b OP_EQUALVERIFY OP_CHECKSIG", "type": "pubkeyhash"}, "value": 0.05, "n": 2}, {"scriptPubKey": {"reqSigs": 1, "hex": "a9147c92f5797bdd1bbc0daae5b3be112cf861b11dee87", "addresses": ["3D3hmDJzMjYhtPxuUSg8NKeiFB8Cm66mc6"], "asm": "OP_HASH160 7c92f5797bdd1bbc0daae5b3be112cf861b11dee OP_EQUAL", "type": "scripthash"}, "value": 0.04665903, "n": 3}], "hex": "020000000001017c2f72ee63a27c177dcf5354cd57fb84e3a94b53dab1eb55a93072f6f9b43e2a0300000017160014a3c84d22e9c7b6184ece9d88bfdaeed2b73ad263feffffff04a4683c000000000017a9140a920d296ff349a0a050f596631ae2df7c8a364d8744aa0a000000000017a914c52fe0957a59c8ea9b7ed87214091e6acd6cf1cd87404b4c00000000001976a9146fe884ea066111661a0c5ec67d7bb819b9c5512b88ac2f3247000000000017a9147c92f5797bdd1bbc0daae5b3be112cf861b11dee8702483045022100fa4c71e751638a11338a7e36ac1eea1561bf33769b0ac9670e08162da7433cc102201f049fc3237a67eb17af666fba4c871b06bb02f1e2a581ad49aa6165288252df012103a3192ae4fee6d1c07f2bb56260852e4f2e87adf18d14eef5a784c5b93416b8da0b490800", "vin": [{"txinwitness": ["3045022100fa4c71e751638a11338a7e36ac1eea1561bf33769b0ac9670e08162da7433cc102201f049fc3237a67eb17af666fba4c871b06bb02f1e2a581ad49aa6165288252df01", "03a3192ae4fee6d1c07f2bb56260852e4f2e87adf18d14eef5a784c5b93416b8da"], "sequence": 4294967294, "scriptSig": {"hex": "160014a3c84d22e9c7b6184ece9d88bfdaeed2b73ad263", "asm": "0014a3c84d22e9c7b6184ece9d88bfdaeed2b73ad263"}, "vout": 3, "txid": "2a3eb4f9f67230a955ebb1da534ba9e384fb57cd5453cf7d177ca263ee722f7c"}], "txid": "573145c9e018ea529bc79050132b8187150820b0caa6bd2d66f934282d2e68dd", "blocktime": 1537869901, "version": 2, "confirmations": 11522, "time": 1537869901, "locktime": 542987, "vsize": 232, "size": 314}