{"hash": "57332a508416199e6c0e1991a2e1473ea2e430c65763097992ce44263ea3b0bc", "blockhash": "0000000000000000000dcc0f55137456b1a82d3642486a52398922ac4d620174", "vout": [{"scriptPubKey": {"reqSigs": 1, "hex": "76a914546185e6d115a6ee2d1f4eb4677adc1ec5b7328b88ac", "addresses": ["18hAb8njj1DsYSyhJpxxPMRRse4PxoP9tK"], "asm": "OP_DUP OP_HASH160 546185e6d115a6ee2d1f4eb4677adc1ec5b7328b OP_EQUALVERIFY OP_CHECKSIG", "type": "pubkeyhash"}, "value": 0.00031191, "n": 0}, {"scriptPubKey": {"reqSigs": 1, "hex": "76a914c53e8e368b87d64b51b6cbe512f047552d17266288ac", "addresses": ["1Jyw4E1ZmTaeJdwyELwUH4LFStj2wBNxHN"], "asm": "OP_DUP OP_HASH160 c53e8e368b87d64b51b6cbe512f047552d172662 OP_EQUALVERIFY OP_CHECKSIG", "type": "pubkeyhash"}, "value": 0.00088095, "n": 1}], "hex": "01000000016d9d9d5e7980f0d4313c0600ba1aa8e235eddff929de761c0cade0286efbc340010000006a473044022051f8ba985c167765cd12f947848497ee8adc42bf5b4ea5d498f32f1bfa659d8802201b3b889c992bc42ad02d9b6b2abb38eaab629a00624180c5f7e4cc01d3ff1f4e012102bc3a5a40ff0b76cd1f98c6adc3566f7f3e63bd6f4c00c06955348d108adf2be3ffffffff02d7790000000000001976a914546185e6d115a6ee2d1f4eb4677adc1ec5b7328b88ac1f580100000000001976a914c53e8e368b87d64b51b6cbe512f047552d17266288ac00000000", "vin": [{"sequence": 4294967295, "scriptSig": {"hex": "473044022051f8ba985c167765cd12f947848497ee8adc42bf5b4ea5d498f32f1bfa659d8802201b3b889c992bc42ad02d9b6b2abb38eaab629a00624180c5f7e4cc01d3ff1f4e012102bc3a5a40ff0b76cd1f98c6adc3566f7f3e63bd6f4c00c06955348d108adf2be3", "asm": "3044022051f8ba985c167765cd12f947848497ee8adc42bf5b4ea5d498f32f1bfa659d8802201b3b889c992bc42ad02d9b6b2abb38eaab629a00624180c5f7e4cc01d3ff1f4e[ALL] 02bc3a5a40ff0b76cd1f98c6adc3566f7f3e63bd6f4c00c06955348d108adf2be3"}, "vout": 1, "txid": "40c3fb6e28e0ad0c1c76de29f9dfed35e2a81aba00063c31d4f080795e9d9d6d"}], "txid": "57332a508416199e6c0e1991a2e1473ea2e430c65763097992ce44263ea3b0bc", "blocktime": 1537870268, "version": 1, "confirmations": 11518, "time": 1537870268, "locktime": 0, "vsize": 225, "size": 225}