{"hash": "38c4cb200c7c1121033db7a61845cf202e7a7f390e1c9f21f86b8b124e8a1d21", "blockhash": "0000000000000000001e0dab787dd257d1dbfcb92a98c2207d5e1078be1f4165", "vout": [{"scriptPubKey": {"reqSigs": 1, "hex": "76a91412185a55202ecb95dafb2ef4c2f54fa0f71f919188ac", "addresses": ["12egLX8Larqc8hVt72vXhzvCqkuG5K6Cyo"], "asm": "OP_DUP OP_HASH160 12185a55202ecb95dafb2ef4c2f54fa0f71f9191 OP_EQUALVERIFY OP_CHECKSIG", "type": "pubkeyhash"}, "value": 0.001, "n": 0}, {"scriptPubKey": {"reqSigs": 1, "hex": "a914a547a8ed256ac0e13092ac1ddb04d37cf97f684f87", "addresses": ["3GkwGDB9NvdxuGsHGpoZc3eyB3ohKhWvHJ"], "asm": "OP_HASH160 a547a8ed256ac0e13092ac1ddb04d37cf97f684f OP_EQUAL", "type": "scripthash"}, "value": 0.00019345, "n": 1}], "hex": "0200000000010234dae26849d3789e6f3821098876c84e1b671619327c7ca835913e36f5058da000000000171600144d2d0aa6ca052203a6bdc2793d5bbb6c827d1d8dfeffffff995c028ce9313d9d0ecca6164a0e3ea34976bc5098bca8611b76806c2b2dc463010000006b483045022100f1c53d73aafa1445714defc85a29c0f961d13b359730922bb176fb185f0ecb5502202ce22971ad64c6f4f8c6f9c2b89ae1cd8373b9bb425873aaf0ccd9683b6f68a0012102fe455dbd0047b66d895fa5cca83b02800ada23fb5acecf618b6335e8d6fb3d34feffffff02a0860100000000001976a91412185a55202ecb95dafb2ef4c2f54fa0f71f919188ac914b00000000000017a914a547a8ed256ac0e13092ac1ddb04d37cf97f684f87024730440220071d59b181eaf7765c91b246bc0992c8e1268166e6502b2de961b57fb1dd396002200ceb05a779d8f2d47ffb33a2950b9d94c1f7eae4e7cd032a991632d52e521efd0121027d7c89666835ca2d23e2e25aa97dcc10e24a98a5f6ccc896d37e85f511fe0be80000000000", "vin": [{"txinwitness": ["30440220071d59b181eaf7765c91b246bc0992c8e1268166e6502b2de961b57fb1dd396002200ceb05a779d8f2d47ffb33a2950b9d94c1f7eae4e7cd032a991632d52e521efd01", "027d7c89666835ca2d23e2e25aa97dcc10e24a98a5f6ccc896d37e85f511fe0be8"], "sequence": 4294967294, "scriptSig": {"hex": "1600144d2d0aa6ca052203a6bdc2793d5bbb6c827d1d8d", "asm": "00144d2d0aa6ca052203a6bdc2793d5bbb6c827d1d8d"}, "vout": 0, "txid": "a08d05f5363e9135a87c7c321916671b4ec876880921386f9e78d34968e2da34"}, {"sequence": 4294967294, "scriptSig": {"hex": "483045022100f1c53d73aafa1445714defc85a29c0f961d13b359730922bb176fb185f0ecb5502202ce22971ad64c6f4f8c6f9c2b89ae1cd8373b9bb425873aaf0ccd9683b6f68a0012102fe455dbd0047b66d895fa5cca83b02800ada23fb5acecf618b6335e8d6fb3d34", "asm": "3045022100f1c53d73aafa1445714defc85a29c0f961d13b359730922bb176fb185f0ecb5502202ce22971ad64c6f4f8c6f9c2b89ae1cd8373b9bb425873aaf0ccd9683b6f68a0[ALL] 02fe455dbd0047b66d895fa5cca83b02800ada23fb5acecf618b6335e8d6fb3d34"}, "vout": 1, "txid": "63c42d2b6c80761b61a8bc9850bc7649a33e0e4a16a6cc0e9d3d31e98c025c99"}], "txid": "573826bd3725e7f8669f384af8d9ed75d5dc3def0801e70efe80c6c550c23093", "blocktime": 1537872475, "version": 2, "confirmations": 11487, "time": 1537872475, "locktime": 0, "vsize": 316, "size": 398}