{"hash": "232f9471b617deec9e595ba605c4352021b8e8ed279e64cfa90bf610f5aefe3b", "blockhash": "0000000000000000000baef3f32e3676a92c3b2e5da21b426e4f302fc371ce76", "vout": [{"scriptPubKey": {"reqSigs": 1, "hex": "a9143ab11e6cda58525a94b4e3969e1cd4ef9c1c06b687", "addresses": ["373MJ6wc5Sn7dEdDyGPkr74cnyqo7FgC5g"], "asm": "OP_HASH160 3ab11e6cda58525a94b4e3969e1cd4ef9c1c06b6 OP_EQUAL", "type": "scripthash"}, "value": 0.30738795, "n": 0}, {"scriptPubKey": {"reqSigs": 1, "hex": "76a9149f09ea958847dba9cc6667999f49c59f74ba5b1788ac", "addresses": ["1FVvKW3PS4CaQZHnpv9beTM7rnEsSR65Zw"], "asm": "OP_DUP OP_HASH160 9f09ea958847dba9cc6667999f49c59f74ba5b17 OP_EQUALVERIFY OP_CHECKSIG", "type": "pubkeyhash"}, "value": 0.05, "n": 1}, {"scriptPubKey": {"reqSigs": 1, "hex": "76a914cba3b9e3565dd00d599270df69b876ea0802b05488ac", "addresses": ["1KZkJqGTsD6xHt2pMJQgc9P2cuECfXGYug"], "asm": "OP_DUP OP_HASH160 cba3b9e3565dd00d599270df69b876ea0802b054 OP_EQUALVERIFY OP_CHECKSIG", "type": "pubkeyhash"}, "value": 0.0148, "n": 2}], "hex": "01000000000101e2daf1e2337d803b41ab017573fac5b5f29cfe23596cdd1709c8bd49e1cf5d6900000000171600149220e6c3d92eef0b42273c4fe0df1ee8c40b2cccffffffff036b09d5010000000017a9143ab11e6cda58525a94b4e3969e1cd4ef9c1c06b687404b4c00000000001976a9149f09ea958847dba9cc6667999f49c59f74ba5b1788ac40951600000000001976a914cba3b9e3565dd00d599270df69b876ea0802b05488ac02483045022100fd30f209353a2532501d04ba455631c4431a2035764278749263e19ef4436b81022001d889e4f2af52889b52225b42f53335e98e38b1871ec24127e6af06f49653ff01210397c81de524616c21fb8f669c9bc1aa2123410f127d0eb1f8c32461f7708ab4cd00000000", "vin": [{"txinwitness": ["3045022100fd30f209353a2532501d04ba455631c4431a2035764278749263e19ef4436b81022001d889e4f2af52889b52225b42f53335e98e38b1871ec24127e6af06f49653ff01", "0397c81de524616c21fb8f669c9bc1aa2123410f127d0eb1f8c32461f7708ab4cd"], "sequence": 4294967295, "scriptSig": {"hex": "1600149220e6c3d92eef0b42273c4fe0df1ee8c40b2ccc", "asm": "00149220e6c3d92eef0b42273c4fe0df1ee8c40b2ccc"}, "vout": 0, "txid": "695dcfe149bdc80917dd6c5923fe9cf2b5c5fa737501ab413b807d33e2f1dae2"}], "txid": "573d5757c210ef44f6a5e73fbbc46935f8f8768ccc350aac523ed7d1fe737da2", "blocktime": 1537876114, "version": 1, "confirmations": 11459, "time": 1537876114, "locktime": 0, "vsize": 202, "size": 284}