{"hash": "573ed7ecf1276e22285da64ba316ab3dcadb36348680d1b772866ecdbcc30bec", "blockhash": "0000000000000000001f76057863aec43deb6fa401d9628bb513d65a8098bfab", "vout": [{"scriptPubKey": {"type": "nulldata", "hex": "6a4c50000077d800010e0e7dff8cbfd771d8f827995b23cc0f42c2fc38c5e5bf9ae76da98a211a9b9a00f305af959bb1524a8c64273df45baa15970612b77f0da053e21d100759d4ba30d2c37bb011d97e02cf", "asm": "OP_RETURN 000077d800010e0e7dff8cbfd771d8f827995b23cc0f42c2fc38c5e5bf9ae76da98a211a9b9a00f305af959bb1524a8c64273df45baa15970612b77f0da053e21d100759d4ba30d2c37bb011d97e02cf"}, "value": 0.0, "n": 0}, {"scriptPubKey": {"reqSigs": 1, "hex": "76a91440018746a26b5f5c8a117ee19ad307d2c1d9281888ac", "addresses": ["16qS5UUeu5K8UQdcZLdDLK7t9V48yZ5eRD"], "asm": "OP_DUP OP_HASH160 40018746a26b5f5c8a117ee19ad307d2c1d92818 OP_EQUALVERIFY OP_CHECKSIG", "type": "pubkeyhash"}, "value": 0.00637784, "n": 1}], "hex": "01000000018830c1f4c78a606f4f07ef4454696e8688ed6b89e47170bcdaf9b3b3cdb60a37000000006a47304402204724280aa05e6bb836bdfd2d749a89747058bc6f8ba46f3eea0a68f04022613e02206e8e621fedcc00f94a145763c4d0c6343579c7ba5322979e1a396ac7383f84f30121030e3cca47002189b2078ad6b7ed67654b6a6ffd16412bcfc11b90d4d95bb3e73bffffffff020000000000000000536a4c50000077d800010e0e7dff8cbfd771d8f827995b23cc0f42c2fc38c5e5bf9ae76da98a211a9b9a00f305af959bb1524a8c64273df45baa15970612b77f0da053e21d100759d4ba30d2c37bb011d97e02cf58bb0900000000001976a91440018746a26b5f5c8a117ee19ad307d2c1d9281888ac00000000", "vin": [{"sequence": 4294967295, "scriptSig": {"hex": "47304402204724280aa05e6bb836bdfd2d749a89747058bc6f8ba46f3eea0a68f04022613e02206e8e621fedcc00f94a145763c4d0c6343579c7ba5322979e1a396ac7383f84f30121030e3cca47002189b2078ad6b7ed67654b6a6ffd16412bcfc11b90d4d95bb3e73b", "asm": "304402204724280aa05e6bb836bdfd2d749a89747058bc6f8ba46f3eea0a68f04022613e02206e8e621fedcc00f94a145763c4d0c6343579c7ba5322979e1a396ac7383f84f3[ALL] 030e3cca47002189b2078ad6b7ed67654b6a6ffd16412bcfc11b90d4d95bb3e73b"}, "vout": 0, "txid": "370ab6cdb3b3f9dabc7071e4896bed88866e695444ef074f6f608ac7f4c13088"}], "txid": "573ed7ecf1276e22285da64ba316ab3dcadb36348680d1b772866ecdbcc30bec", "blocktime": 1537873891, "version": 1, "confirmations": 11478, "time": 1537873891, "locktime": 0, "vsize": 283, "size": 283}