{"hash": "573f36856dde9e881d4f3702c63ae1adc903b90cf6e8f60a0dc1898f132b8b4a", "blockhash": "000000000000000000022b45ed06c6f4ccd3cf7fb5ba4856ebd2e58215665228", "vout": [{"scriptPubKey": {"reqSigs": 1, "hex": "76a9148e2baa7cdbb82d3e5d8d6d3b8b2914a302bf26e088ac", "addresses": ["1DxjGCs5sWAVzsVpfkwFPYRkAR1RtQPz8C"], "asm": "OP_DUP OP_HASH160 8e2baa7cdbb82d3e5d8d6d3b8b2914a302bf26e0 OP_EQUALVERIFY OP_CHECKSIG", "type": "pubkeyhash"}, "value": 0.002347, "n": 0}, {"scriptPubKey": {"reqSigs": 1, "hex": "76a914783bd849cf720ed102723b0cf262521af9d5e37688ac", "addresses": ["1Bxjn7eLsgjsGrac6itewqh4ZsGGpZzk7f"], "asm": "OP_DUP OP_HASH160 783bd849cf720ed102723b0cf262521af9d5e376 OP_EQUALVERIFY OP_CHECKSIG", "type": "pubkeyhash"}, "value": 0.0047416, "n": 1}], "hex": "0100000001277634bc89a25a7e5177fe511703a59f2afccfd3be8eae7d9725bf47c9b52b27000000006a47304402203aec062d5b1758b0f4b579a03ab7d40d4a760d9037736785a0c9ecf1b148288f02207ea26dcdbc8446c00b9912ccef3f08fde8d22459812726b839981b60fed693940121036bebd6f031542e6144428c163d0252d6fff14c851bcbe819f15ae82661d8c2f3ffffffff02cc940300000000001976a9148e2baa7cdbb82d3e5d8d6d3b8b2914a302bf26e088ac303c0700000000001976a914783bd849cf720ed102723b0cf262521af9d5e37688ac00000000", "vin": [{"sequence": 4294967295, "scriptSig": {"hex": "47304402203aec062d5b1758b0f4b579a03ab7d40d4a760d9037736785a0c9ecf1b148288f02207ea26dcdbc8446c00b9912ccef3f08fde8d22459812726b839981b60fed693940121036bebd6f031542e6144428c163d0252d6fff14c851bcbe819f15ae82661d8c2f3", "asm": "304402203aec062d5b1758b0f4b579a03ab7d40d4a760d9037736785a0c9ecf1b148288f02207ea26dcdbc8446c00b9912ccef3f08fde8d22459812726b839981b60fed69394[ALL] 036bebd6f031542e6144428c163d0252d6fff14c851bcbe819f15ae82661d8c2f3"}, "vout": 0, "txid": "272bb5c947bf25977dae8ebed3cffc2a9fa5031751fe77517e5aa289bc347627"}], "txid": "573f36856dde9e881d4f3702c63ae1adc903b90cf6e8f60a0dc1898f132b8b4a", "blocktime": 1537869901, "version": 1, "confirmations": 11524, "time": 1537869901, "locktime": 0, "vsize": 225, "size": 225}