{"hash": "f0f7d3da72bd0b6c199926a7aef6947dff9ee1528ffe218a7a7ffff29028f3c8", "blockhash": "0000000000000000000e13cef7c366c0283d82e591d1acd082e914b08063cdf1", "vout": [{"scriptPubKey": {"reqSigs": 1, "hex": "a9145332ae80f5579a9a72c74085e86a25cbdc73215187", "addresses": ["39GvitWF76ETCL1YuMjPVPUrfyW3Ckxuav"], "asm": "OP_HASH160 5332ae80f5579a9a72c74085e86a25cbdc732151 OP_EQUAL", "type": "scripthash"}, "value": 0.012, "n": 0}, {"scriptPubKey": {"reqSigs": 1, "hex": "a91411757407040cfa4b159bcb1d5dbee08226b5647f87", "addresses": ["33HL7bfce3YvDkMNkPURxSHFBLekR2C2eD"], "asm": "OP_HASH160 11757407040cfa4b159bcb1d5dbee08226b5647f OP_EQUAL", "type": "scripthash"}, "value": 0.154242, "n": 1}], "hex": "01000000000101f76abfe7bbd93b5b46ce4ede69a0033561862834bfc60033139cbe602839fbbe00000000232200200cbf0a981c57d6f491628e35da14bdbc82bf405b707169a533cc285a0fcb6b20ffffffff02804f12000000000017a9145332ae80f5579a9a72c74085e86a25cbdc73215187c85aeb000000000017a91411757407040cfa4b159bcb1d5dbee08226b5647f870400483045022100ec193f1d2db772a260848a2bb4cbd32e7f32cf07f8ab73ee71c67a02a6a874ec02204f421e1ab6602970a35df430d89092d61721652304f3ee8ad7349cb47c892a3f014730440220153188c3ce291cc7e143e422d89a6bf45f69ec663e3f7596c0fdf12e29fda670022028544e486cde96856a5bb8303833509e3e3c792af104c32f22f2d5110d5ff5b30169522102926f092eddfbec71bc484e1bcc0ca8f176e15aaa3f99b961914dcf95b5166a8321031f1c484778c9a652bb4492c20c08b9828e1b2f9bfb6072e257cb7a8277b7ee752102ecdf3f27f91e5e1f041f3e85592978cbafe6cd1b1d08721ba5ae3195877555e053ae00000000", "vin": [{"txinwitness": ["", "3045022100ec193f1d2db772a260848a2bb4cbd32e7f32cf07f8ab73ee71c67a02a6a874ec02204f421e1ab6602970a35df430d89092d61721652304f3ee8ad7349cb47c892a3f01", "30440220153188c3ce291cc7e143e422d89a6bf45f69ec663e3f7596c0fdf12e29fda670022028544e486cde96856a5bb8303833509e3e3c792af104c32f22f2d5110d5ff5b301", "522102926f092eddfbec71bc484e1bcc0ca8f176e15aaa3f99b961914dcf95b5166a8321031f1c484778c9a652bb4492c20c08b9828e1b2f9bfb6072e257cb7a8277b7ee752102ecdf3f27f91e5e1f041f3e85592978cbafe6cd1b1d08721ba5ae3195877555e053ae"], "sequence": 4294967295, "scriptSig": {"hex": "2200200cbf0a981c57d6f491628e35da14bdbc82bf405b707169a533cc285a0fcb6b20", "asm": "00200cbf0a981c57d6f491628e35da14bdbc82bf405b707169a533cc285a0fcb6b20"}, "vout": 0, "txid": "befb392860be9c133300c6bf342886613503a069de4ece465b3bd9bbe7bf6af7"}], "txid": "57434ed8683d377d488217383cb0b35149174528b41660c04074afeff44fb282", "blocktime": 1537871767, "version": 1, "confirmations": 11495, "time": 1537871767, "locktime": 0, "vsize": 214, "size": 405}