{"hash": "5743e8413fd2b33b01fb601e1b89ade6d15e0ef4d7a7d6a6edabe8b5c69a305d", "blockhash": "00000000000000000024a2167bbff67b0be802c0b01cdd79e6331c2be6459f87", "vout": [{"scriptPubKey": {"reqSigs": 1, "hex": "a914915a3681926b887a027502caf736d2cee8be177287", "addresses": ["3EwZyTmdTd2krkwh2sAa975f2nv4sLZkrq"], "asm": "OP_HASH160 915a3681926b887a027502caf736d2cee8be1772 OP_EQUAL", "type": "scripthash"}, "value": 1.2e-05, "n": 0}, {"scriptPubKey": {"reqSigs": 1, "hex": "76a91472ef5b602538acbcb3669fec9be996875991ef7288ac", "addresses": ["1BUimgSwhmBGD1rZCCUxXo9GERe4Zb3gwj"], "asm": "OP_DUP OP_HASH160 72ef5b602538acbcb3669fec9be996875991ef72 OP_EQUALVERIFY OP_CHECKSIG", "type": "pubkeyhash"}, "value": 0.00834175, "n": 1}], "hex": "0100000001f7a8edd514b7d934ec1c5d0d84da227a8382bdfde9f6626d66d90dfb1e4ba89f010000006b4830450221008979076ac44c745c351a8b1a67334625f4c9cb9cb33448aae0c45352ea7ebe8a02206f05ce39915cc32f3a68b51ad39f0c2e134598061327ef6de433fe64fd146c5b01210228fbd745dd94894d6ed4a41751ba1a713348af616087b03410793334d391dcadffffffff02b00400000000000017a914915a3681926b887a027502caf736d2cee8be1772877fba0c00000000001976a91472ef5b602538acbcb3669fec9be996875991ef7288ac00000000", "vin": [{"sequence": 4294967295, "scriptSig": {"hex": "4830450221008979076ac44c745c351a8b1a67334625f4c9cb9cb33448aae0c45352ea7ebe8a02206f05ce39915cc32f3a68b51ad39f0c2e134598061327ef6de433fe64fd146c5b01210228fbd745dd94894d6ed4a41751ba1a713348af616087b03410793334d391dcad", "asm": "30450221008979076ac44c745c351a8b1a67334625f4c9cb9cb33448aae0c45352ea7ebe8a02206f05ce39915cc32f3a68b51ad39f0c2e134598061327ef6de433fe64fd146c5b[ALL] 0228fbd745dd94894d6ed4a41751ba1a713348af616087b03410793334d391dcad"}, "vout": 1, "txid": "9fa84b1efb0dd9666d62f6e9fdbd82837a22da840d5d1cec34d9b714d5eda8f7"}], "txid": "5743e8413fd2b33b01fb601e1b89ade6d15e0ef4d7a7d6a6edabe8b5c69a305d", "blocktime": 1537870564, "version": 1, "confirmations": 11515, "time": 1537870564, "locktime": 0, "vsize": 224, "size": 224}