{"hash": "5743cc4ade184d225e4b8fb1160d90ae7aaf29634edc9e169756ba0a3bb9c8b0", "blockhash": "0000000000000000000dcc0f55137456b1a82d3642486a52398922ac4d620174", "vout": [{"scriptPubKey": {"reqSigs": 1, "hex": "76a914867380b9c9c74268686adf8fc1fa5ac47f9e9b7388ac", "addresses": ["1DFuuz1byHUvjhLAQFz6UDMW6FtY9tdNAZ"], "asm": "OP_DUP OP_HASH160 867380b9c9c74268686adf8fc1fa5ac47f9e9b73 OP_EQUALVERIFY OP_CHECKSIG", "type": "pubkeyhash"}, "value": 0.00035458, "n": 0}, {"scriptPubKey": {"reqSigs": 1, "hex": "a91400c28522f6d719e607b5ebdbb0a843161d72a96687", "addresses": ["31m2x2yJm2BQxSRCwbCrT8sDxKWkyyAi2a"], "asm": "OP_HASH160 00c28522f6d719e607b5ebdbb0a843161d72a966 OP_EQUAL", "type": "scripthash"}, "value": 0.00063, "n": 1}], "hex": "010000000119f5bde7b4e5e226d707d23c6023d4d045970c01560adae8b0c0461396bfe1c8000000006b4830450221009d354e1a4cfbb30d57c4568665cc471cb76f09861dbf2c947ccbb61b036770230220141b199b32c8ec30d99c028851d1da150201c20a5b00fdf409c9b02e5c021609012102808e236e6c0aa873973119a8ec96e8a53be5aac2d71234ebd114b12d9e93284ffdffffff02828a0000000000001976a914867380b9c9c74268686adf8fc1fa5ac47f9e9b7388ac18f600000000000017a91400c28522f6d719e607b5ebdbb0a843161d72a966870c490800", "vin": [{"sequence": 4294967293, "scriptSig": {"hex": "4830450221009d354e1a4cfbb30d57c4568665cc471cb76f09861dbf2c947ccbb61b036770230220141b199b32c8ec30d99c028851d1da150201c20a5b00fdf409c9b02e5c021609012102808e236e6c0aa873973119a8ec96e8a53be5aac2d71234ebd114b12d9e93284f", "asm": "30450221009d354e1a4cfbb30d57c4568665cc471cb76f09861dbf2c947ccbb61b036770230220141b199b32c8ec30d99c028851d1da150201c20a5b00fdf409c9b02e5c021609[ALL] 02808e236e6c0aa873973119a8ec96e8a53be5aac2d71234ebd114b12d9e93284f"}, "vout": 0, "txid": "c8e1bf961346c0b0e8da0a56010c9745d0d423603cd207d726e2e5b4e7bdf519"}], "txid": "5743cc4ade184d225e4b8fb1160d90ae7aaf29634edc9e169756ba0a3bb9c8b0", "blocktime": 1537870268, "version": 1, "confirmations": 11516, "time": 1537870268, "locktime": 542988, "vsize": 224, "size": 224}