{"hash": "5752bf12d24908a6b9bfa91e32b892d3732b16d9ec70d67c3d05e7daed1a4f42", "blockhash": "0000000000000000001cda96e906b7601b7a6fb1a3b62bca570a9e5d8f4b3de1", "vout": [{"scriptPubKey": {"reqSigs": 1, "hex": "76a914f423dfee34e4833104508103d89e316b4a49314088ac", "addresses": ["1PFtrRjbq4aLfM7k4tyLZ3ZAuTsgLr6Q8Q"], "asm": "OP_DUP OP_HASH160 f423dfee34e4833104508103d89e316b4a493140 OP_EQUALVERIFY OP_CHECKSIG", "type": "pubkeyhash"}, "value": 0.00531139, "n": 0}, {"scriptPubKey": {"reqSigs": 1, "hex": "76a914930db2158623ebd418dbc2f4326cfa791807dbb588ac", "addresses": ["1EQYjnkp89eB1WNqQ9z5FRtVBVbWqoiXwT"], "asm": "OP_DUP OP_HASH160 930db2158623ebd418dbc2f4326cfa791807dbb5 OP_EQUALVERIFY OP_CHECKSIG", "type": "pubkeyhash"}, "value": 5.46e-06, "n": 1}, {"scriptPubKey": {"type": "nulldata", "hex": "6a146f6d6e69000000000000001f000000a2dd72f300", "asm": "OP_RETURN 6f6d6e69000000000000001f000000a2dd72f300"}, "value": 0.0, "n": 2}], "hex": "0100000001128bdb837b1c27484062a19bed02e21e68c80a0dd8e042229a7b8c97197863f8000000006a473044022044e52076a78d86057e155eef990a1bde1acd2dff69278795d8afd952fddc30ba02203951aadd656335c1b9bf0f49d8cce6001aaecab38a703b8b317fdc7fd8f615910121039a403b4eeaf8f7a9c5cc655cf2d17310fcd606a75b1392f7892f6b514a67d23cffffffff03c31a0800000000001976a914f423dfee34e4833104508103d89e316b4a49314088ac22020000000000001976a914930db2158623ebd418dbc2f4326cfa791807dbb588ac0000000000000000166a146f6d6e69000000000000001f000000a2dd72f30000000000", "vin": [{"sequence": 4294967295, "scriptSig": {"hex": "473044022044e52076a78d86057e155eef990a1bde1acd2dff69278795d8afd952fddc30ba02203951aadd656335c1b9bf0f49d8cce6001aaecab38a703b8b317fdc7fd8f615910121039a403b4eeaf8f7a9c5cc655cf2d17310fcd606a75b1392f7892f6b514a67d23c", "asm": "3044022044e52076a78d86057e155eef990a1bde1acd2dff69278795d8afd952fddc30ba02203951aadd656335c1b9bf0f49d8cce6001aaecab38a703b8b317fdc7fd8f61591[ALL] 039a403b4eeaf8f7a9c5cc655cf2d17310fcd606a75b1392f7892f6b514a67d23c"}, "vout": 0, "txid": "f8637819978c7b9a2242e0d80d0ac8681ee202ed9ba1624048271c7b83db8b12"}], "txid": "5752bf12d24908a6b9bfa91e32b892d3732b16d9ec70d67c3d05e7daed1a4f42", "blocktime": 1537873282, "version": 1, "confirmations": 11480, "time": 1537873282, "locktime": 0, "vsize": 256, "size": 256}