{"hash": "57576ad1812f75fa388010c7093c3a65e653f8385cce30123b25233e32f420b7", "blockhash": "0000000000000000000baef3f32e3676a92c3b2e5da21b426e4f302fc371ce76", "vout": [{"scriptPubKey": {"reqSigs": 1, "hex": "76a914146adbf9e6396eef969d92e5f4b23e68acdcafff88ac", "addresses": ["12rxXYt85AmYwYnfqJh1fYYnd4TaprDgwq"], "asm": "OP_DUP OP_HASH160 146adbf9e6396eef969d92e5f4b23e68acdcafff OP_EQUALVERIFY OP_CHECKSIG", "type": "pubkeyhash"}, "value": 0.003, "n": 0}, {"scriptPubKey": {"reqSigs": 1, "hex": "76a914f5259f5d6de67f87d5ddcdda09182128e8b2b03b88ac", "addresses": ["1PMDd4JVx5N8MwKFKnjuJjK9LHi7CqLAHY"], "asm": "OP_DUP OP_HASH160 f5259f5d6de67f87d5ddcdda09182128e8b2b03b OP_EQUALVERIFY OP_CHECKSIG", "type": "pubkeyhash"}, "value": 0.00840556, "n": 1}], "hex": "0100000001e7ed6bc01653294de2f2db66b444bec5451d4d3dae26c1aa33042dadadf71157000000006b483045022100aa35aaafe2937deee6a3eeacd2405edf6e2ed15c3618d39ac9c199b033abdad102201049549151c89e0206ee2a30847bb34c310d215ad0859642ccd2b87170da1b87012102b9fbe38a0c242da7c7211e0afeba259b766bb56fa0f7810f66b2314794cddf78ffffffff02e0930400000000001976a914146adbf9e6396eef969d92e5f4b23e68acdcafff88ac6cd30c00000000001976a914f5259f5d6de67f87d5ddcdda09182128e8b2b03b88ac00000000", "vin": [{"sequence": 4294967295, "scriptSig": {"hex": "483045022100aa35aaafe2937deee6a3eeacd2405edf6e2ed15c3618d39ac9c199b033abdad102201049549151c89e0206ee2a30847bb34c310d215ad0859642ccd2b87170da1b87012102b9fbe38a0c242da7c7211e0afeba259b766bb56fa0f7810f66b2314794cddf78", "asm": "3045022100aa35aaafe2937deee6a3eeacd2405edf6e2ed15c3618d39ac9c199b033abdad102201049549151c89e0206ee2a30847bb34c310d215ad0859642ccd2b87170da1b87[ALL] 02b9fbe38a0c242da7c7211e0afeba259b766bb56fa0f7810f66b2314794cddf78"}, "vout": 0, "txid": "5711f7adad2d0433aac126ae3d4d1d45c5be44b466dbf2e24d295316c06bede7"}], "txid": "57576ad1812f75fa388010c7093c3a65e653f8385cce30123b25233e32f420b7", "blocktime": 1537876114, "version": 1, "confirmations": 11459, "time": 1537876114, "locktime": 0, "vsize": 226, "size": 226}