{"hash": "3739ce7f43c1c536fb962d560affa6cd53559f212a959bd1bb997f973c9950b6", "blockhash": "0000000000000000001f76057863aec43deb6fa401d9628bb513d65a8098bfab", "vout": [{"scriptPubKey": {"reqSigs": 1, "hex": "a91408565b05b7b6f3a777d74974b9f03e4e1683b86f87", "addresses": ["32T6nAg7byXdhTmBaEGN3RnRRgxnW3iSkp"], "asm": "OP_HASH160 08565b05b7b6f3a777d74974b9f03e4e1683b86f OP_EQUAL", "type": "scripthash"}, "value": 0.01002225, "n": 0}, {"scriptPubKey": {"reqSigs": 1, "hex": "76a914060eb97599559af4fbc1247e4e909db967e316b588ac", "addresses": ["1Z2hDyhRbQVcbfzvjuq4FySJ86CskyikK"], "asm": "OP_DUP OP_HASH160 060eb97599559af4fbc1247e4e909db967e316b5 OP_EQUALVERIFY OP_CHECKSIG", "type": "pubkeyhash"}, "value": 0.0025216, "n": 1}], "hex": "02000000000102c5e7d239ea1a4bd3d0e355383c37c63e61eefc6884acc11bc14298818bd4707900000000171600149c76d292e085624516d173eb1901cb33c29287d2feffffffebbd4e6e8a9751f30d8f19bb049ab9bee8509cd2eca730b6b75a0cd1d54b132a0100000017160014c0617f6239aa19f147118aeee808d08f7f7ac131feffffff02f14a0f000000000017a91408565b05b7b6f3a777d74974b9f03e4e1683b86f8700d90300000000001976a914060eb97599559af4fbc1247e4e909db967e316b588ac02483045022100e93b28212225d070e64b215a56f8edb6101a00f436cc0712c435d0c627db36f502200886e6073645cee656a46c10d640c27f4ebb90d05a0bc32b1587fa46caccbb350121025924809bf0737aad4e7cbcf35800dca17253fcfe9c78b318bd9f18b7bee5be1d02483045022100be096971d53fd5ac224c03d92d8f76dc9d22f829c92499fff2d9c11c036b86e302203bbab1e6051d2a44fdf45c204522a07202ce19bcf3e56ac78ea4198f80f3ec7c012102cc346ebea9207922e247c3dbf042c29127c6d5cd52b433c6f82fccae2a4a955014490800", "vin": [{"txinwitness": ["3045022100e93b28212225d070e64b215a56f8edb6101a00f436cc0712c435d0c627db36f502200886e6073645cee656a46c10d640c27f4ebb90d05a0bc32b1587fa46caccbb3501", "025924809bf0737aad4e7cbcf35800dca17253fcfe9c78b318bd9f18b7bee5be1d"], "sequence": 4294967294, "scriptSig": {"hex": "1600149c76d292e085624516d173eb1901cb33c29287d2", "asm": "00149c76d292e085624516d173eb1901cb33c29287d2"}, "vout": 0, "txid": "7970d48b819842c11bc1ac8468fcee613ec6373c3855e3d0d34b1aea39d2e7c5"}, {"txinwitness": ["3045022100be096971d53fd5ac224c03d92d8f76dc9d22f829c92499fff2d9c11c036b86e302203bbab1e6051d2a44fdf45c204522a07202ce19bcf3e56ac78ea4198f80f3ec7c01", "02cc346ebea9207922e247c3dbf042c29127c6d5cd52b433c6f82fccae2a4a9550"], "sequence": 4294967294, "scriptSig": {"hex": "160014c0617f6239aa19f147118aeee808d08f7f7ac131", "asm": "0014c0617f6239aa19f147118aeee808d08f7f7ac131"}, "vout": 1, "txid": "2a134bd5d10c5ab7b630a7ecd29c50e8beb99a04bb198f0df351978a6e4ebdeb"}], "txid": "576277dec158eab986a6e4429054f9ffa197106967a7540e9f4091d281682259", "blocktime": 1537873891, "version": 2, "confirmations": 11478, "time": 1537873891, "locktime": 542996, "vsize": 259, "size": 422}