{"hash": "5766734a745ef8609da396f18f32f51ed66cfa82bbe2b9b320058191aa04c80d", "blockhash": "0000000000000000001f76057863aec43deb6fa401d9628bb513d65a8098bfab", "vout": [{"scriptPubKey": {"reqSigs": 1, "hex": "76a9147fda8107ddb939a8e6c7fc239bd46916ab76783f88ac", "addresses": ["1Cf2aHj4gaSp6XVd5Y2tGhdSEq4shaaehU"], "asm": "OP_DUP OP_HASH160 7fda8107ddb939a8e6c7fc239bd46916ab76783f OP_EQUALVERIFY OP_CHECKSIG", "type": "pubkeyhash"}, "value": 0.00042201, "n": 0}, {"scriptPubKey": {"reqSigs": 1, "hex": "a914c52863e4568c2375b5a5fea3726acaf591bdc37787", "addresses": ["3KfVRhFhzRRiREy46sLMAt74Ez8ruh2wmp"], "asm": "OP_HASH160 c52863e4568c2375b5a5fea3726acaf591bdc377 OP_EQUAL", "type": "scripthash"}, "value": 0.00312338, "n": 1}], "hex": "010000000224eacb7ea0a18cb5ec8ce55813da6cfc599e92c89a7e56216a8e237db1426963560000006a47304402201f2bfa5875fb897c0f7ddc9e817cabafdef1eee97e87657e873369004d4bba0c0220713f5661c5333e488d86f1c350a7103500ddf8feeeb571e6663f42b727cc2f080121033ad50d7c7f972551b2e83deb2e816e54a4f0a5837ed5279e168883954b2bdc6dffffffffc0219b08461fe6e52f7134e88e5113497454c7590880868ae9fd841c225a9cf45b00000069463043022079bd1c0c29d8c32198ec9f04798b9782da92b9b62c1367f8abef092a5ef792ca021f773d0280c0a150c2293e2850db85ef1c3c6b1a707b04c2a5ac3272ae66b6890121033ad50d7c7f972551b2e83deb2e816e54a4f0a5837ed5279e168883954b2bdc6dffffffff02d9a40000000000001976a9147fda8107ddb939a8e6c7fc239bd46916ab76783f88ac12c404000000000017a914c52863e4568c2375b5a5fea3726acaf591bdc3778700000000", "vin": [{"sequence": 4294967295, "scriptSig": {"hex": "47304402201f2bfa5875fb897c0f7ddc9e817cabafdef1eee97e87657e873369004d4bba0c0220713f5661c5333e488d86f1c350a7103500ddf8feeeb571e6663f42b727cc2f080121033ad50d7c7f972551b2e83deb2e816e54a4f0a5837ed5279e168883954b2bdc6d", "asm": "304402201f2bfa5875fb897c0f7ddc9e817cabafdef1eee97e87657e873369004d4bba0c0220713f5661c5333e488d86f1c350a7103500ddf8feeeb571e6663f42b727cc2f08[ALL] 033ad50d7c7f972551b2e83deb2e816e54a4f0a5837ed5279e168883954b2bdc6d"}, "vout": 86, "txid": "636942b17d238e6a21567e9ac8929e59fc6cda1358e58cecb58ca1a07ecbea24"}, {"sequence": 4294967295, "scriptSig": {"hex": "463043022079bd1c0c29d8c32198ec9f04798b9782da92b9b62c1367f8abef092a5ef792ca021f773d0280c0a150c2293e2850db85ef1c3c6b1a707b04c2a5ac3272ae66b6890121033ad50d7c7f972551b2e83deb2e816e54a4f0a5837ed5279e168883954b2bdc6d", "asm": "3043022079bd1c0c29d8c32198ec9f04798b9782da92b9b62c1367f8abef092a5ef792ca021f773d0280c0a150c2293e2850db85ef1c3c6b1a707b04c2a5ac3272ae66b689[ALL] 033ad50d7c7f972551b2e83deb2e816e54a4f0a5837ed5279e168883954b2bdc6d"}, "vout": 91, "txid": "f49c5a221c84fde98a86800859c754744913518ee834712fe5e61f46089b21c0"}], "txid": "5766734a745ef8609da396f18f32f51ed66cfa82bbe2b9b320058191aa04c80d", "blocktime": 1537873891, "version": 1, "confirmations": 11478, "time": 1537873891, "locktime": 0, "vsize": 369, "size": 369}