{"hash": "5776710bdff61d31a3637eb0240737faf0a67db5f984cd9d0201ab6e8521b56a", "blockhash": "00000000000000000018f53835495a110e01622372bf6ae95dc86f2b0ab887b0", "vout": [{"scriptPubKey": {"reqSigs": 1, "hex": "a9149776650507d385fb4980b10137f28e5a238d0eb187", "addresses": ["3FVsniEW5uB2LNmPEvRpGx9hpn21qe4ji3"], "asm": "OP_HASH160 9776650507d385fb4980b10137f28e5a238d0eb1 OP_EQUAL", "type": "scripthash"}, "value": 0.00281066, "n": 0}, {"scriptPubKey": {"reqSigs": 1, "hex": "76a914655e4569cdc45ab59b1fba578593f05dbe6f8c9188ac", "addresses": ["1AEzBT37ocwNADTtbmNb6KxxTLnmPd4CY8"], "asm": "OP_DUP OP_HASH160 655e4569cdc45ab59b1fba578593f05dbe6f8c91 OP_EQUALVERIFY OP_CHECKSIG", "type": "pubkeyhash"}, "value": 0.01341354, "n": 1}], "hex": "0200000001cb9fc2697b081d82c9c71d881e92a372823a9795076637cc3a9e0e0067fc7ee3010000006a4730440220011ec1ce70615e4d89c00432c567b9da4ac4cd21f763d69c825abe83fc84a5220220268dc068b57dce1fbeddb4a3660c3f564acab07a4d814d359324740551a2d429012103d662ccef07b70424d49d1e1281e3bb83de4882a11e9f57591e20311691b52ab9ffffffff02ea4904000000000017a9149776650507d385fb4980b10137f28e5a238d0eb187aa771400000000001976a914655e4569cdc45ab59b1fba578593f05dbe6f8c9188ac00000000", "vin": [{"sequence": 4294967295, "scriptSig": {"hex": "4730440220011ec1ce70615e4d89c00432c567b9da4ac4cd21f763d69c825abe83fc84a5220220268dc068b57dce1fbeddb4a3660c3f564acab07a4d814d359324740551a2d429012103d662ccef07b70424d49d1e1281e3bb83de4882a11e9f57591e20311691b52ab9", "asm": "30440220011ec1ce70615e4d89c00432c567b9da4ac4cd21f763d69c825abe83fc84a5220220268dc068b57dce1fbeddb4a3660c3f564acab07a4d814d359324740551a2d429[ALL] 03d662ccef07b70424d49d1e1281e3bb83de4882a11e9f57591e20311691b52ab9"}, "vout": 1, "txid": "e37efc67000e9e3acc37660795973a8272a3921e881dc7c9821d087b69c29fcb"}], "txid": "5776710bdff61d31a3637eb0240737faf0a67db5f984cd9d0201ab6e8521b56a", "blocktime": 1537870928, "version": 2, "confirmations": 11512, "time": 1537870928, "locktime": 0, "vsize": 223, "size": 223}