{"hash": "5776bb86e5d33df2578b9c8bb050e8afcb977e5983c6f12c02bbfa819e87323c", "blockhash": "0000000000000000000e13cef7c366c0283d82e591d1acd082e914b08063cdf1", "vout": [{"scriptPubKey": {"reqSigs": 1, "hex": "a914f688bcf30d3e4a6a38b09f79108f4c8d28e6268f87", "addresses": ["3QAZxTncB78RfsGyFjfKUGaSuLXyK3rk24"], "asm": "OP_HASH160 f688bcf30d3e4a6a38b09f79108f4c8d28e6268f OP_EQUAL", "type": "scripthash"}, "value": 0.00088594, "n": 0}, {"scriptPubKey": {"reqSigs": 1, "hex": "76a914e29c9f4a4a3ab3ca5866e6ba2dfaa99600b46a6788ac", "addresses": ["1MfDLf6WJuQnj7nTHXqde2nay6UJpeoiNJ"], "asm": "OP_DUP OP_HASH160 e29c9f4a4a3ab3ca5866e6ba2dfaa99600b46a67 OP_EQUALVERIFY OP_CHECKSIG", "type": "pubkeyhash"}, "value": 0.02090611, "n": 1}], "hex": "0100000001196d5fa6843fee7ed147b9f09f30e8f49557937d8dd302ec4a0d22719b8bb744010000006a47304402205f2c294d27d33c3ad200e3e02cfd4c83aad560080e154400f417f1b0881bfef802207570713c25fa2e5451744114082fd00115c1b258bd9993b4756c8fff39b872a601210364d739a8b1082d230f488540fd86439355eae77d9112b6d786904e05279620feffffffff02125a01000000000017a914f688bcf30d3e4a6a38b09f79108f4c8d28e6268f8773e61f00000000001976a914e29c9f4a4a3ab3ca5866e6ba2dfaa99600b46a6788ac00000000", "vin": [{"sequence": 4294967295, "scriptSig": {"hex": "47304402205f2c294d27d33c3ad200e3e02cfd4c83aad560080e154400f417f1b0881bfef802207570713c25fa2e5451744114082fd00115c1b258bd9993b4756c8fff39b872a601210364d739a8b1082d230f488540fd86439355eae77d9112b6d786904e05279620fe", "asm": "304402205f2c294d27d33c3ad200e3e02cfd4c83aad560080e154400f417f1b0881bfef802207570713c25fa2e5451744114082fd00115c1b258bd9993b4756c8fff39b872a6[ALL] 0364d739a8b1082d230f488540fd86439355eae77d9112b6d786904e05279620fe"}, "vout": 1, "txid": "44b78b9b71220d4aec02d38d7d935795f4e8309ff0b947d17eee3f84a65f6d19"}], "txid": "5776bb86e5d33df2578b9c8bb050e8afcb977e5983c6f12c02bbfa819e87323c", "blocktime": 1537871767, "version": 1, "confirmations": 11495, "time": 1537871767, "locktime": 0, "vsize": 223, "size": 223}