{"hash": "577a2e73594a16dfeafd6c79ce303b058ea9b0db4733816f8778c2ba02ab782b", "blockhash": "0000000000000000001e0dab787dd257d1dbfcb92a98c2207d5e1078be1f4165", "vout": [{"scriptPubKey": {"reqSigs": 1, "hex": "a914873cac3beb995603b7e6d42f1f2fa9290b2dc95b87", "addresses": ["3E25q4SesziPPkCu36bBhcsKd27X9XCtQV"], "asm": "OP_HASH160 873cac3beb995603b7e6d42f1f2fa9290b2dc95b OP_EQUAL", "type": "scripthash"}, "value": 0.0343706, "n": 0}, {"scriptPubKey": {"reqSigs": 1, "hex": "76a9140571f220383384df0ee360688f5e7bb7c13deabb88ac", "addresses": ["1Vnt43LbVJefv5TGYj3WXj15cAaedDiVg"], "asm": "OP_DUP OP_HASH160 0571f220383384df0ee360688f5e7bb7c13deabb OP_EQUALVERIFY OP_CHECKSIG", "type": "pubkeyhash"}, "value": 0.29644468, "n": 1}], "hex": "010000000135ea917769ae83b1900c06a6f34d4fcdb9902f15ec1853af47740da7ba82d67e010000006b483045022100f966e5ba7453fdd378d46ee81dba848ce1850994ec9be1e5585e4aa85250140002207108a8be68efbfb74444de0493c79f1b4330cdb1583ec4cee89225331bd22573012103b8acbff219853c4044658b82aabc6b3d754af621d04492e8f6913c061180c07fffffffff02047234000000000017a914873cac3beb995603b7e6d42f1f2fa9290b2dc95b87b456c401000000001976a9140571f220383384df0ee360688f5e7bb7c13deabb88ac00000000", "vin": [{"sequence": 4294967295, "scriptSig": {"hex": "483045022100f966e5ba7453fdd378d46ee81dba848ce1850994ec9be1e5585e4aa85250140002207108a8be68efbfb74444de0493c79f1b4330cdb1583ec4cee89225331bd22573012103b8acbff219853c4044658b82aabc6b3d754af621d04492e8f6913c061180c07f", "asm": "3045022100f966e5ba7453fdd378d46ee81dba848ce1850994ec9be1e5585e4aa85250140002207108a8be68efbfb74444de0493c79f1b4330cdb1583ec4cee89225331bd22573[ALL] 03b8acbff219853c4044658b82aabc6b3d754af621d04492e8f6913c061180c07f"}, "vout": 1, "txid": "7ed682baa70d7447af5318ec152f90b9cd4f4df3a6060c90b183ae697791ea35"}], "txid": "577a2e73594a16dfeafd6c79ce303b058ea9b0db4733816f8778c2ba02ab782b", "blocktime": 1537872475, "version": 1, "confirmations": 11487, "time": 1537872475, "locktime": 0, "vsize": 224, "size": 224}