{"hash": "577bd01d1496581b4f567f74310cb26d91e44d92ed853f77221b42a3a41fc91f", "blockhash": "0000000000000000000dcc0f55137456b1a82d3642486a52398922ac4d620174", "vout": [{"scriptPubKey": {"type": "nulldata", "hex": "6a4c500000776d000121ddf512e147afdd739e12c986aeaeacb577c031fc3a016b46dc7dc7d096a8db51c8fa9c1a99480b4f2b1b5892065baa08b30613ca0b1d1fe2a91d100759d4ba30d2c37bb011d97e02cf", "asm": "OP_RETURN 0000776d000121ddf512e147afdd739e12c986aeaeacb577c031fc3a016b46dc7dc7d096a8db51c8fa9c1a99480b4f2b1b5892065baa08b30613ca0b1d1fe2a91d100759d4ba30d2c37bb011d97e02cf"}, "value": 0.0, "n": 0}, {"scriptPubKey": {"reqSigs": 1, "hex": "76a9149eab749b76b0f0f3d1e8934bf1ef9e95438cb44f88ac", "addresses": ["1FTyAFGYHohYx8C2qpdUHSgTwFoR7gnmCg"], "asm": "OP_DUP OP_HASH160 9eab749b76b0f0f3d1e8934bf1ef9e95438cb44f OP_EQUALVERIFY OP_CHECKSIG", "type": "pubkeyhash"}, "value": 0.0065082, "n": 1}], "hex": "01000000014835af71636fc371e12c9a21e4dd4190b3bb6da880761da7ccea53a91fb67054010000006b483045022100fd092fa420d8cb100abd24debaa67833e83061552ee32f303f4b6e84028dea39022072757374ba24a6a628297c0951b04acc3d1147bf9bc2a0c0c5c9553c6ebdd6ea01210351af87aed6acb19a842319d9c68ce52cfc3294964ee1bd239572810ebabaf925ffffffff020000000000000000536a4c500000776d000121ddf512e147afdd739e12c986aeaeacb577c031fc3a016b46dc7dc7d096a8db51c8fa9c1a99480b4f2b1b5892065baa08b30613ca0b1d1fe2a91d100759d4ba30d2c37bb011d97e02cf44ee0900000000001976a9149eab749b76b0f0f3d1e8934bf1ef9e95438cb44f88ac00000000", "vin": [{"sequence": 4294967295, "scriptSig": {"hex": "483045022100fd092fa420d8cb100abd24debaa67833e83061552ee32f303f4b6e84028dea39022072757374ba24a6a628297c0951b04acc3d1147bf9bc2a0c0c5c9553c6ebdd6ea01210351af87aed6acb19a842319d9c68ce52cfc3294964ee1bd239572810ebabaf925", "asm": "3045022100fd092fa420d8cb100abd24debaa67833e83061552ee32f303f4b6e84028dea39022072757374ba24a6a628297c0951b04acc3d1147bf9bc2a0c0c5c9553c6ebdd6ea[ALL] 0351af87aed6acb19a842319d9c68ce52cfc3294964ee1bd239572810ebabaf925"}, "vout": 1, "txid": "5470b61fa953eacca71d7680a86dbbb39041dde4219a2ce171c36f6371af3548"}], "txid": "577bd01d1496581b4f567f74310cb26d91e44d92ed853f77221b42a3a41fc91f", "blocktime": 1537870268, "version": 1, "confirmations": 11518, "time": 1537870268, "locktime": 0, "vsize": 284, "size": 284}