{"hash": "83f3ff1e4aa63b9ee5b62199f0eb82e026db47b931b9f437f75d7f8706c92e03", "blockhash": "0000000000000000000e13cef7c366c0283d82e591d1acd082e914b08063cdf1", "vout": [{"scriptPubKey": {"reqSigs": 1, "hex": "76a91422eb608dfb356d3ff946faeaadf31d4e0759d47788ac", "addresses": ["14BdwpEstRZNVXZC7aXGcMXyQgFWbUrk8R"], "asm": "OP_DUP OP_HASH160 22eb608dfb356d3ff946faeaadf31d4e0759d477 OP_EQUALVERIFY OP_CHECKSIG", "type": "pubkeyhash"}, "value": 0.00163099, "n": 0}, {"scriptPubKey": {"reqSigs": 1, "hex": "a914623bc71aae031839add7304b814c43bfc2e9051487", "addresses": ["3AeRkmrFg14XjcZxLiKsxWCsmmwrcjXezc"], "asm": "OP_HASH160 623bc71aae031839add7304b814c43bfc2e90514 OP_EQUAL", "type": "scripthash"}, "value": 0.17034598, "n": 1}], "hex": "01000000000101d56580989ab51626b124de965ff96ecd8ed27a952d9e73e0da2976257bade25001000000232200208b29cdff4436c9fd09e2bb3722ba65a440fbfc66964301c4902832d27a4f2b12ffffffff021b7d0200000000001976a91422eb608dfb356d3ff946faeaadf31d4e0759d47788ac66ed03010000000017a914623bc71aae031839add7304b814c43bfc2e90514870400473044022046132c2c78076738ff7fed4cab711fe7b537040d35d918a7248f5666567d06ca022030b89796b8f8ba61c1e53f74836b56dea2de0f1bca83ee849220a33b01e4db840147304402201e50ea38c10dc1142d168c00c15f269a73aaf56ebebca67c485e058c1336d94402203d4c37c91e55d654700e732b655ddf0a0250334f7c636d2ac5d2a9dfdaac5e2701475221036b4dd4bc8657eba03286a3a3f74fb599cc514153059dbb023dfb32b0268d8daf21032f41ceae151fd1826ff863e0017da5158aa4c8f6dc701d11b13794695089210b52ae00000000", "vin": [{"txinwitness": ["", "3044022046132c2c78076738ff7fed4cab711fe7b537040d35d918a7248f5666567d06ca022030b89796b8f8ba61c1e53f74836b56dea2de0f1bca83ee849220a33b01e4db8401", "304402201e50ea38c10dc1142d168c00c15f269a73aaf56ebebca67c485e058c1336d94402203d4c37c91e55d654700e732b655ddf0a0250334f7c636d2ac5d2a9dfdaac5e2701", "5221036b4dd4bc8657eba03286a3a3f74fb599cc514153059dbb023dfb32b0268d8daf21032f41ceae151fd1826ff863e0017da5158aa4c8f6dc701d11b13794695089210b52ae"], "sequence": 4294967295, "scriptSig": {"hex": "2200208b29cdff4436c9fd09e2bb3722ba65a440fbfc66964301c4902832d27a4f2b12", "asm": "00208b29cdff4436c9fd09e2bb3722ba65a440fbfc66964301c4902832d27a4f2b12"}, "vout": 1, "txid": "50e2ad7b257629dae0739e2d957ad28ecd6ef95f96de24b12616b59a988065d5"}], "txid": "577cd71cffc1f11b0fbff25e95668e7d1f48692199ec24ba26d0c7389dadcc64", "blocktime": 1537871767, "version": 1, "confirmations": 11495, "time": 1537871767, "locktime": 0, "vsize": 207, "size": 372}