{"hash": "577eba587197439db3e7927c2c4b7f5cad5836e20be6c7cf84be63049ee46d8c", "blockhash": "0000000000000000000dcc0f55137456b1a82d3642486a52398922ac4d620174", "vout": [{"scriptPubKey": {"reqSigs": 1, "hex": "a91417f043620ec2953c4a6f3787a9eaaa55c2929f4387", "addresses": ["33sbHjgVErjdHFU9XABUg8zXtEzJbGnXde"], "asm": "OP_HASH160 17f043620ec2953c4a6f3787a9eaaa55c2929f43 OP_EQUAL", "type": "scripthash"}, "value": 0.0708, "n": 0}, {"scriptPubKey": {"reqSigs": 1, "hex": "76a914fd32c945a773e4d55ba651eb78349e53dc11d28f88ac", "addresses": ["1Q5noDqzazeM6dtdMxq5Hd2aPBhYwGL8vT"], "asm": "OP_DUP OP_HASH160 fd32c945a773e4d55ba651eb78349e53dc11d28f OP_EQUALVERIFY OP_CHECKSIG", "type": "pubkeyhash"}, "value": 0.60699559, "n": 1}], "hex": "01000000019c62173d645dfd78df0f61df0c53d27bef71a04da709cb5c3436440d220cb68f000000006b483045022100a76c593fba605564f126ab8b45aba9b3d513dd53383c148aaf5927448d1210490220520c6387a252c34ad60bf38a27b7d8f2bcebc35b4957d1bcc208f376ef29df0f01210303923428e3ee62492ae6bf6e0491bc2a34a7cd3847a062232a34f2fdf3231ef3ffffffff0240086c000000000017a91417f043620ec2953c4a6f3787a9eaaa55c2929f4387a7339e03000000001976a914fd32c945a773e4d55ba651eb78349e53dc11d28f88ac00000000", "vin": [{"sequence": 4294967295, "scriptSig": {"hex": "483045022100a76c593fba605564f126ab8b45aba9b3d513dd53383c148aaf5927448d1210490220520c6387a252c34ad60bf38a27b7d8f2bcebc35b4957d1bcc208f376ef29df0f01210303923428e3ee62492ae6bf6e0491bc2a34a7cd3847a062232a34f2fdf3231ef3", "asm": "3045022100a76c593fba605564f126ab8b45aba9b3d513dd53383c148aaf5927448d1210490220520c6387a252c34ad60bf38a27b7d8f2bcebc35b4957d1bcc208f376ef29df0f[ALL] 0303923428e3ee62492ae6bf6e0491bc2a34a7cd3847a062232a34f2fdf3231ef3"}, "vout": 0, "txid": "8fb60c220d4436345ccb09a74da071ef7bd2530cdf610fdf78fd5d643d17629c"}], "txid": "577eba587197439db3e7927c2c4b7f5cad5836e20be6c7cf84be63049ee46d8c", "blocktime": 1537870268, "version": 1, "confirmations": 11516, "time": 1537870268, "locktime": 0, "vsize": 224, "size": 224}