{"hash": "5783795e0e45b00fbd1859967ff8a2691eaf8e9b54b936c67e9fa79878b350ca", "blockhash": "0000000000000000001e0dab787dd257d1dbfcb92a98c2207d5e1078be1f4165", "vout": [{"scriptPubKey": {"reqSigs": 1, "hex": "76a9146de31afc56cb5c5e0fa39af0f50f203ec15fc24388ac", "addresses": ["1B22iUGsyih3T8hoFz45GzTdu61W9P2hSr"], "asm": "OP_DUP OP_HASH160 6de31afc56cb5c5e0fa39af0f50f203ec15fc243 OP_EQUALVERIFY OP_CHECKSIG", "type": "pubkeyhash"}, "value": 0.154567, "n": 0}, {"scriptPubKey": {"reqSigs": 1, "hex": "76a91406c06f6d936703ef10a4f0043109c54252c9851b88ac", "addresses": ["1changerPHuUgXPdSHRxBd2wWT2TdQB1y"], "asm": "OP_DUP OP_HASH160 06c06f6d936703ef10a4f0043109c54252c9851b OP_EQUALVERIFY OP_CHECKSIG", "type": "pubkeyhash"}, "value": 0.84541581, "n": 1}], "hex": "0100000001388a1be06f4b5cd99203a77a790f5259e6964935704032218c6c4220fe574944010000008b48304502210093595c784f1b34ebdbef90fb030648daf48e86cab329d284ed2a71cec8244858022025282ffc13239b547985ab1e326e20e84f6694e643948e32c64a4143e4e9bd7901410450bd5aa1f8c0a7ea014c4ed766e39ed72e6e50160d4dc0726aab6e7f7f52365f2bd72c2a733b6873dd97102424ba25b29d3199074706f6aeec3719bb8890cf7affffffff02bcd9eb00000000001976a9146de31afc56cb5c5e0fa39af0f50f203ec15fc24388ac8d000a05000000001976a91406c06f6d936703ef10a4f0043109c54252c9851b88ac00000000", "vin": [{"sequence": 4294967295, "scriptSig": {"hex": "48304502210093595c784f1b34ebdbef90fb030648daf48e86cab329d284ed2a71cec8244858022025282ffc13239b547985ab1e326e20e84f6694e643948e32c64a4143e4e9bd7901410450bd5aa1f8c0a7ea014c4ed766e39ed72e6e50160d4dc0726aab6e7f7f52365f2bd72c2a733b6873dd97102424ba25b29d3199074706f6aeec3719bb8890cf7a", "asm": "304502210093595c784f1b34ebdbef90fb030648daf48e86cab329d284ed2a71cec8244858022025282ffc13239b547985ab1e326e20e84f6694e643948e32c64a4143e4e9bd79[ALL] 0450bd5aa1f8c0a7ea014c4ed766e39ed72e6e50160d4dc0726aab6e7f7f52365f2bd72c2a733b6873dd97102424ba25b29d3199074706f6aeec3719bb8890cf7a"}, "vout": 1, "txid": "444957fe20426c8c21324070354996e659520f797aa70392d95c4b6fe01b8a38"}], "txid": "5783795e0e45b00fbd1859967ff8a2691eaf8e9b54b936c67e9fa79878b350ca", "blocktime": 1537872475, "version": 1, "confirmations": 11486, "time": 1537872475, "locktime": 0, "vsize": 258, "size": 258}