{"hash": "57874489ee79821f294b2f07a0c6b696ca1515d7206a3285614dd767dc409f81", "blockhash": "0000000000000000001f0ddff1eddb255c1121bcd4da4f1bc9a0da00cae72433", "vout": [{"scriptPubKey": {"reqSigs": 1, "hex": "a91469f3754aea3c120784d3522774cbe7e6b115367787", "addresses": ["3BMEXTRmgavVpWCW7mk1kefLyH9kK7yHtd"], "asm": "OP_HASH160 69f3754aea3c120784d3522774cbe7e6b1153677 OP_EQUAL", "type": "scripthash"}, "value": 0.00043504, "n": 0}, {"scriptPubKey": {"reqSigs": 1, "hex": "76a91421ddfcc2778eb31e4273c658b751fd177c7660cc88ac", "addresses": ["1465EHKTaNVzbtSGGdRamRgTpHgud2A2XA"], "asm": "OP_DUP OP_HASH160 21ddfcc2778eb31e4273c658b751fd177c7660cc OP_EQUALVERIFY OP_CHECKSIG", "type": "pubkeyhash"}, "value": 0.0142156, "n": 1}], "hex": "0100000001eafa853c1d87b7767c1e98fa7df13be01934a91f38f0a1d87963ebc39409ecd6010000006a4730440220798eaa4243444c4a1a30190ef1f16c0335813d16b82ca942050b93cfb8004f36022058e87a64ab391141bcf8f49b2cd32c4faa2f22b1f07e4e1379038f8e6017cf180121028d9062415a5a20ce5c16bfca284a070e015523584bbe7617eb5bd88a6792439affffffff02f0a900000000000017a91469f3754aea3c120784d3522774cbe7e6b115367787f8b01500000000001976a91421ddfcc2778eb31e4273c658b751fd177c7660cc88ac00000000", "vin": [{"sequence": 4294967295, "scriptSig": {"hex": "4730440220798eaa4243444c4a1a30190ef1f16c0335813d16b82ca942050b93cfb8004f36022058e87a64ab391141bcf8f49b2cd32c4faa2f22b1f07e4e1379038f8e6017cf180121028d9062415a5a20ce5c16bfca284a070e015523584bbe7617eb5bd88a6792439a", "asm": "30440220798eaa4243444c4a1a30190ef1f16c0335813d16b82ca942050b93cfb8004f36022058e87a64ab391141bcf8f49b2cd32c4faa2f22b1f07e4e1379038f8e6017cf18[ALL] 028d9062415a5a20ce5c16bfca284a070e015523584bbe7617eb5bd88a6792439a"}, "vout": 1, "txid": "d6ec0994c3eb6379d8a1f0381fa93419e03bf17dfa981e7c76b7871d3c85faea"}], "txid": "57874489ee79821f294b2f07a0c6b696ca1515d7206a3285614dd767dc409f81", "blocktime": 1537872018, "version": 1, "confirmations": 11489, "time": 1537872018, "locktime": 0, "vsize": 223, "size": 223}