{"hash": "578e313bc833fe35028009a2bd7a7e0e7cb9ce4bc000b1715d1d4c521c40d5f4", "blockhash": "00000000000000000017f5eb5941039fbcee6240d03bc1f2f8e35350df66a1d8", "vout": [{"scriptPubKey": {"type": "nulldata", "hex": "6a146f6d6e69000000000000001f0000005d21dba000", "asm": "OP_RETURN 6f6d6e69000000000000001f0000005d21dba000"}, "value": 0.0, "n": 0}, {"scriptPubKey": {"reqSigs": 1, "hex": "76a914323743d64bd348d52e7b2258bd6d9884ba5858d788ac", "addresses": ["15aWzUGvRLFT61phtAECV6c8NgbVqkfdAj"], "asm": "OP_DUP OP_HASH160 323743d64bd348d52e7b2258bd6d9884ba5858d7 OP_EQUALVERIFY OP_CHECKSIG", "type": "pubkeyhash"}, "value": 0.00657129, "n": 1}, {"scriptPubKey": {"reqSigs": 1, "hex": "76a914a25dec4d0011064ef106a983c39c7a540699f22088ac", "addresses": ["1FoWyxwPXuj4C6abqwhjDWdz6D4PZgYRjA"], "asm": "OP_DUP OP_HASH160 a25dec4d0011064ef106a983c39c7a540699f220 OP_EQUALVERIFY OP_CHECKSIG", "type": "pubkeyhash"}, "value": 5.46e-06, "n": 2}], "hex": "010000000260b9a5dbad86344034321b6738a86eb7a0fd80da6cc719065d25a9b90473db4c020000006a47304402207ec1089aec83880403a41ab2e8431d1ed02ac1762207ac743e899bde36fc38950220569c163f547430a161e99193e945165dd49ae2b44735d980d0c920265fba63550121026816b7f9c3076399df90132deba50592700c9c6afd82b36543c358f16ef41c8efeffffff78a7a9db5c935913c46cfbf3f98e804f6ff0621a68a0f12222ee0ca26d8371a3000000006b483045022100877f93fc4afc0891d7e101a735c86372c44a25f03f0a676f14e6ab3340e640a102202c380c7cbf5f101d1c5f8079c071b40d2008f53908c8a05abf35653856d703440121026816b7f9c3076399df90132deba50592700c9c6afd82b36543c358f16ef41c8efeffffff030000000000000000166a146f6d6e69000000000000001f0000005d21dba000e9060a00000000001976a914323743d64bd348d52e7b2258bd6d9884ba5858d788ac22020000000000001976a914a25dec4d0011064ef106a983c39c7a540699f22088ac15490800", "vin": [{"sequence": 4294967294, "scriptSig": {"hex": "47304402207ec1089aec83880403a41ab2e8431d1ed02ac1762207ac743e899bde36fc38950220569c163f547430a161e99193e945165dd49ae2b44735d980d0c920265fba63550121026816b7f9c3076399df90132deba50592700c9c6afd82b36543c358f16ef41c8e", "asm": "304402207ec1089aec83880403a41ab2e8431d1ed02ac1762207ac743e899bde36fc38950220569c163f547430a161e99193e945165dd49ae2b44735d980d0c920265fba6355[ALL] 026816b7f9c3076399df90132deba50592700c9c6afd82b36543c358f16ef41c8e"}, "vout": 2, "txid": "4cdb7304b9a9255d0619c76cda80fda0b76ea838671b3234403486addba5b960"}, {"sequence": 4294967294, "scriptSig": {"hex": "483045022100877f93fc4afc0891d7e101a735c86372c44a25f03f0a676f14e6ab3340e640a102202c380c7cbf5f101d1c5f8079c071b40d2008f53908c8a05abf35653856d703440121026816b7f9c3076399df90132deba50592700c9c6afd82b36543c358f16ef41c8e", "asm": "3045022100877f93fc4afc0891d7e101a735c86372c44a25f03f0a676f14e6ab3340e640a102202c380c7cbf5f101d1c5f8079c071b40d2008f53908c8a05abf35653856d70344[ALL] 026816b7f9c3076399df90132deba50592700c9c6afd82b36543c358f16ef41c8e"}, "vout": 0, "txid": "a371836da20cee2222f1a0681a62f06f4f808ef9f3fb6cc41359935cdba9a778"}], "txid": "578e313bc833fe35028009a2bd7a7e0e7cb9ce4bc000b1715d1d4c521c40d5f4", "blocktime": 1537874412, "version": 1, "confirmations": 11468, "time": 1537874412, "locktime": 542997, "vsize": 404, "size": 404}