{"hash": "579329d5d0baf4627e7f7a3a7ffaaba1a195abf91fecf7cd3f2bb88312dd79b0", "blockhash": "000000000000000000022b45ed06c6f4ccd3cf7fb5ba4856ebd2e58215665228", "vout": [{"scriptPubKey": {"reqSigs": 1, "hex": "76a914a024bc573edf6a6a5c6a5d5e4ce08f697a9f295788ac", "addresses": ["1Fbm88oQk7krPh7NZFXNFX77a1W3Vvq1RU"], "asm": "OP_DUP OP_HASH160 a024bc573edf6a6a5c6a5d5e4ce08f697a9f2957 OP_EQUALVERIFY OP_CHECKSIG", "type": "pubkeyhash"}, "value": 0.00649784, "n": 0}, {"scriptPubKey": {"type": "nulldata", "hex": "6a4c500000776500018bffff623cfe112441cdc70386aeaeacb577c031fc3a016b46dc7dc7d0968359b37dcedfd75b87abd0b05dc9b8465baa07fa0612c6675664fc4c1d100759d4ba30d2c37bb011d97e02cf", "asm": "OP_RETURN 0000776500018bffff623cfe112441cdc70386aeaeacb577c031fc3a016b46dc7dc7d0968359b37dcedfd75b87abd0b05dc9b8465baa07fa0612c6675664fc4c1d100759d4ba30d2c37bb011d97e02cf"}, "value": 0.0, "n": 1}], "hex": "0100000001958ee43375d318dfb1e196dcca5c140300bcad5ea289f87c8d6481cbb796ddac010000006b483045022100eb8b3516c032b68a552ccf7ed930f64dd13529ad4428a182a3ddcbfa7e25500302203b3be0e3b7d1f1980dea4cdaf12ae6912ae3e50df60c03100b88e59dac926f35012102ea7cdc5b552ac870fed144534cdbda14be6594661939f4eb4fb9fcaf11600eeeffffffff0238ea0900000000001976a914a024bc573edf6a6a5c6a5d5e4ce08f697a9f295788ac0000000000000000536a4c500000776500018bffff623cfe112441cdc70386aeaeacb577c031fc3a016b46dc7dc7d0968359b37dcedfd75b87abd0b05dc9b8465baa07fa0612c6675664fc4c1d100759d4ba30d2c37bb011d97e02cf00000000", "vin": [{"sequence": 4294967295, "scriptSig": {"hex": "483045022100eb8b3516c032b68a552ccf7ed930f64dd13529ad4428a182a3ddcbfa7e25500302203b3be0e3b7d1f1980dea4cdaf12ae6912ae3e50df60c03100b88e59dac926f35012102ea7cdc5b552ac870fed144534cdbda14be6594661939f4eb4fb9fcaf11600eee", "asm": "3045022100eb8b3516c032b68a552ccf7ed930f64dd13529ad4428a182a3ddcbfa7e25500302203b3be0e3b7d1f1980dea4cdaf12ae6912ae3e50df60c03100b88e59dac926f35[ALL] 02ea7cdc5b552ac870fed144534cdbda14be6594661939f4eb4fb9fcaf11600eee"}, "vout": 1, "txid": "acdd96b7cb81648d7cf889a25eadbc0003145ccadc96e1b1df18d37533e48e95"}], "txid": "579329d5d0baf4627e7f7a3a7ffaaba1a195abf91fecf7cd3f2bb88312dd79b0", "blocktime": 1537869901, "version": 1, "confirmations": 11523, "time": 1537869901, "locktime": 0, "vsize": 284, "size": 284}