{"hash": "57974b32a7378fddebc750e638d3e3a104902565c5065b3fb95dedc65d2d31ec", "blockhash": "0000000000000000001e0dab787dd257d1dbfcb92a98c2207d5e1078be1f4165", "vout": [{"scriptPubKey": {"reqSigs": 1, "hex": "76a91449f7a57178d5f0dca8b8b49d395a94998d7e005788ac", "addresses": ["17k6zmXESpweJNhyqhaicdVqKD7nwmYsUD"], "asm": "OP_DUP OP_HASH160 49f7a57178d5f0dca8b8b49d395a94998d7e0057 OP_EQUALVERIFY OP_CHECKSIG", "type": "pubkeyhash"}, "value": 0.002202, "n": 0}, {"scriptPubKey": {"reqSigs": 1, "hex": "76a9148ad75a52b3cc797332e22b696b96a97804c91ffb88ac", "addresses": ["1Df8ET3yCab7p4tjiLLPrz5fmrnVxHVQQL"], "asm": "OP_DUP OP_HASH160 8ad75a52b3cc797332e22b696b96a97804c91ffb OP_EQUALVERIFY OP_CHECKSIG", "type": "pubkeyhash"}, "value": 0.00054754, "n": 1}], "hex": "0100000001b3ceca9f1c0b5f71a9f6f6870c155e9b6bad43bb9c5195f345f5cba2912a4bd4030000006a4730440220494a34bb69ef8dfcb501d6fe7b56760f088a40f279e7d8cf7ad8226e7dd5328c022074580d9364888d2b7a7c0d51044c2433e7b0ac8d5107603a04b224bb5e42ca13012103b1f07823253d759c2d5f6bb0ff6dc764319b02775a83ca2cbdfe8f15d1ac90aaffffffff02285c0300000000001976a91449f7a57178d5f0dca8b8b49d395a94998d7e005788ace2d50000000000001976a9148ad75a52b3cc797332e22b696b96a97804c91ffb88ac00000000", "vin": [{"sequence": 4294967295, "scriptSig": {"hex": "4730440220494a34bb69ef8dfcb501d6fe7b56760f088a40f279e7d8cf7ad8226e7dd5328c022074580d9364888d2b7a7c0d51044c2433e7b0ac8d5107603a04b224bb5e42ca13012103b1f07823253d759c2d5f6bb0ff6dc764319b02775a83ca2cbdfe8f15d1ac90aa", "asm": "30440220494a34bb69ef8dfcb501d6fe7b56760f088a40f279e7d8cf7ad8226e7dd5328c022074580d9364888d2b7a7c0d51044c2433e7b0ac8d5107603a04b224bb5e42ca13[ALL] 03b1f07823253d759c2d5f6bb0ff6dc764319b02775a83ca2cbdfe8f15d1ac90aa"}, "vout": 3, "txid": "d44b2a91a2cbf545f395519cbb43ad6b9b5e150c87f6f6a9715f0b1c9fcaceb3"}], "txid": "57974b32a7378fddebc750e638d3e3a104902565c5065b3fb95dedc65d2d31ec", "blocktime": 1537872475, "version": 1, "confirmations": 11487, "time": 1537872475, "locktime": 0, "vsize": 225, "size": 225}