{"hash": "579de189180cbd2ab528b2467ea55138a3489558640509d0538d151dd9a209ca", "blockhash": "0000000000000000001e0dab787dd257d1dbfcb92a98c2207d5e1078be1f4165", "vout": [{"scriptPubKey": {"reqSigs": 1, "hex": "76a91406ea940a3468c382640a17b69e355f16a9d44a5e88ac", "addresses": ["1da4wGa8WuXy9LVNutvbe6b83zwjqoPrV"], "asm": "OP_DUP OP_HASH160 06ea940a3468c382640a17b69e355f16a9d44a5e OP_EQUALVERIFY OP_CHECKSIG", "type": "pubkeyhash"}, "value": 0.0027622, "n": 0}, {"scriptPubKey": {"reqSigs": 1, "hex": "a914ce0909ab2991193638d7cd16b01e5e6dbf5dbe9387", "addresses": ["3LURx1suNLTYe1sNKhpdbMaxEffhbBzG67"], "asm": "OP_HASH160 ce0909ab2991193638d7cd16b01e5e6dbf5dbe93 OP_EQUAL", "type": "scripthash"}, "value": 0.031244, "n": 1}], "hex": "010000000429f485878a60328878343e33d984eb8ebc3766ceb0dcac4c2e36e968927d7026020000006b48304502210084901f340148bc2c9c69fbe0e78fef1f53286e76ddf8d402b64256f1808e25cc022017b472e38d53e09de12a93e3c6f1574c3be28772557fd4fc3a0f05809a306b400121035146ddb25876b8c91358850fd73d32307df85be0bda5b462bcd9de5f2b9115b8ffffffffd0d0deba5a25dce24586d8278987ddaccf7aa999595bcbfe32f73f7e1cf19171010000006b483045022100a1203398f742430fdde906c9177c5c5aae2711114d4162e627c95e6ac585ae32022023143af0e6d9df3ba1d0b542e823d877862540cde2468486666b513c3b52da1201210227f2276e2019755cbd2bad54b2a36404230e4e0c63c5d0e608075ae259e1e396ffffffff6dadc457de4493a4aa5bc85d39779283c890b0ac865fe946702a346972db5f80010000006b483045022100a84e4edabd55dbb6a5d5c00bbb051bad31dfe83f21ae65da8f29d9fa92d3eba2022030f79ed7f6346b320c12d94af3ba935e5e596176347c74b1cadeccca59219a710121035146ddb25876b8c91358850fd73d32307df85be0bda5b462bcd9de5f2b9115b8ffffffff4d075d4c298773f5835af4870e09ac25f7ea1533314321a1903143adc9ef5f92000000006a4730440220466af193491824a9649e7429dfc3fd272de2b7d56096b9238c05651b8636c9c7022066628e9e51a5144b326e02dc9e07ac3f35d419503245113fb4ed17049fc0e6c101210224952e0e2ad9b12eaf04aeea4e4430360177fe04dc420bc1159fb2ee692a8538ffffffff02fc360400000000001976a91406ea940a3468c382640a17b69e355f16a9d44a5e88acb0ac2f000000000017a914ce0909ab2991193638d7cd16b01e5e6dbf5dbe938700000000", "vin": [{"sequence": 4294967295, "scriptSig": {"hex": "48304502210084901f340148bc2c9c69fbe0e78fef1f53286e76ddf8d402b64256f1808e25cc022017b472e38d53e09de12a93e3c6f1574c3be28772557fd4fc3a0f05809a306b400121035146ddb25876b8c91358850fd73d32307df85be0bda5b462bcd9de5f2b9115b8", "asm": "304502210084901f340148bc2c9c69fbe0e78fef1f53286e76ddf8d402b64256f1808e25cc022017b472e38d53e09de12a93e3c6f1574c3be28772557fd4fc3a0f05809a306b40[ALL] 035146ddb25876b8c91358850fd73d32307df85be0bda5b462bcd9de5f2b9115b8"}, "vout": 2, "txid": "26707d9268e9362e4cacdcb0ce6637bc8eeb84d9333e34788832608a8785f429"}, {"sequence": 4294967295, "scriptSig": {"hex": "483045022100a1203398f742430fdde906c9177c5c5aae2711114d4162e627c95e6ac585ae32022023143af0e6d9df3ba1d0b542e823d877862540cde2468486666b513c3b52da1201210227f2276e2019755cbd2bad54b2a36404230e4e0c63c5d0e608075ae259e1e396", "asm": "3045022100a1203398f742430fdde906c9177c5c5aae2711114d4162e627c95e6ac585ae32022023143af0e6d9df3ba1d0b542e823d877862540cde2468486666b513c3b52da12[ALL] 0227f2276e2019755cbd2bad54b2a36404230e4e0c63c5d0e608075ae259e1e396"}, "vout": 1, "txid": "7191f11c7e3ff732fecb5b5999a97acfacdd878927d88645e2dc255abaded0d0"}, {"sequence": 4294967295, "scriptSig": {"hex": "483045022100a84e4edabd55dbb6a5d5c00bbb051bad31dfe83f21ae65da8f29d9fa92d3eba2022030f79ed7f6346b320c12d94af3ba935e5e596176347c74b1cadeccca59219a710121035146ddb25876b8c91358850fd73d32307df85be0bda5b462bcd9de5f2b9115b8", "asm": "3045022100a84e4edabd55dbb6a5d5c00bbb051bad31dfe83f21ae65da8f29d9fa92d3eba2022030f79ed7f6346b320c12d94af3ba935e5e596176347c74b1cadeccca59219a71[ALL] 035146ddb25876b8c91358850fd73d32307df85be0bda5b462bcd9de5f2b9115b8"}, "vout": 1, "txid": "805fdb7269342a7046e95f86acb090c8839277395dc85baaa49344de57c4ad6d"}, {"sequence": 4294967295, "scriptSig": {"hex": "4730440220466af193491824a9649e7429dfc3fd272de2b7d56096b9238c05651b8636c9c7022066628e9e51a5144b326e02dc9e07ac3f35d419503245113fb4ed17049fc0e6c101210224952e0e2ad9b12eaf04aeea4e4430360177fe04dc420bc1159fb2ee692a8538", "asm": "30440220466af193491824a9649e7429dfc3fd272de2b7d56096b9238c05651b8636c9c7022066628e9e51a5144b326e02dc9e07ac3f35d419503245113fb4ed17049fc0e6c1[ALL] 0224952e0e2ad9b12eaf04aeea4e4430360177fe04dc420bc1159fb2ee692a8538"}, "vout": 0, "txid": "925fefc9ad433190a12143313315eaf725ac090e87f45a83f57387294c5d074d"}], "txid": "579de189180cbd2ab528b2467ea55138a3489558640509d0538d151dd9a209ca", "blocktime": 1537872475, "version": 1, "confirmations": 11487, "time": 1537872475, "locktime": 0, "vsize": 667, "size": 667}