{"hash": "579fc52b77a468d22dc14b65e1ccf6133bf0f5a3c0b2929572d7f567c4b6dc41", "blockhash": "0000000000000000000e13cef7c366c0283d82e591d1acd082e914b08063cdf1", "vout": [{"scriptPubKey": {"reqSigs": 1, "hex": "76a914f98e37b957a3580b2f1a7abee52119c0d01d9ce988ac", "addresses": ["1PkXdDvfMXvfCZX5fWzEnHbo52vUeNB777"], "asm": "OP_DUP OP_HASH160 f98e37b957a3580b2f1a7abee52119c0d01d9ce9 OP_EQUALVERIFY OP_CHECKSIG", "type": "pubkeyhash"}, "value": 0.002206, "n": 0}, {"scriptPubKey": {"reqSigs": 1, "hex": "a9144fe36d84cf539ea6ef1445f17968741603c0a1ee87", "addresses": ["38yRkfChiAB3nxG71DSh43Ysea27UFf2dD"], "asm": "OP_HASH160 4fe36d84cf539ea6ef1445f17968741603c0a1ee OP_EQUAL", "type": "scripthash"}, "value": 0.23229451, "n": 1}], "hex": "0100000001944bd6bc1443fb787ce49e8eb39e5e4891abb1a8e08d8ab3713ea64b5bf8a925000000006a47304402203e57b28a10c0705ba6cca3d4d3697167e66c8ce2b8892ccb9dfebfb5d3357d3d02200349896cfb42240aa746118adb4021b0f9a74062eb5844cfe68de30f9f5a108c012102fe54e8eb0a9f4ac90a9966459b985d490cc861f5fe73b1ac9076598eb3144cdaffffffff02b85d0300000000001976a914f98e37b957a3580b2f1a7abee52119c0d01d9ce988ac0b7462010000000017a9144fe36d84cf539ea6ef1445f17968741603c0a1ee8700000000", "vin": [{"sequence": 4294967295, "scriptSig": {"hex": "47304402203e57b28a10c0705ba6cca3d4d3697167e66c8ce2b8892ccb9dfebfb5d3357d3d02200349896cfb42240aa746118adb4021b0f9a74062eb5844cfe68de30f9f5a108c012102fe54e8eb0a9f4ac90a9966459b985d490cc861f5fe73b1ac9076598eb3144cda", "asm": "304402203e57b28a10c0705ba6cca3d4d3697167e66c8ce2b8892ccb9dfebfb5d3357d3d02200349896cfb42240aa746118adb4021b0f9a74062eb5844cfe68de30f9f5a108c[ALL] 02fe54e8eb0a9f4ac90a9966459b985d490cc861f5fe73b1ac9076598eb3144cda"}, "vout": 0, "txid": "25a9f85b4ba63e71b38a8de0a8b1ab91485e9eb38e9ee47c78fb4314bcd64b94"}], "txid": "579fc52b77a468d22dc14b65e1ccf6133bf0f5a3c0b2929572d7f567c4b6dc41", "blocktime": 1537871767, "version": 1, "confirmations": 11495, "time": 1537871767, "locktime": 0, "vsize": 223, "size": 223}