{"hash": "579fd9e6c706b24d6ac668a45920953ee7cfea82437d94811048012b92ce3b1d", "blockhash": "0000000000000000000dcc0f55137456b1a82d3642486a52398922ac4d620174", "vout": [{"scriptPubKey": {"reqSigs": 1, "hex": "76a914e513c23170460df2b0ec410fb98cbbce1fb6392b88ac", "addresses": ["1MtFQn9juLgaBpZxJaTtwhfSpUAYKqydGJ"], "asm": "OP_DUP OP_HASH160 e513c23170460df2b0ec410fb98cbbce1fb6392b OP_EQUALVERIFY OP_CHECKSIG", "type": "pubkeyhash"}, "value": 0.0148518, "n": 0}, {"scriptPubKey": {"type": "nulldata", "hex": "6a4c500000776c0001ab806348ac0458a304e2218a86aeaeacb577c031fc3a016b46dc7dc7d096c53662e1a68b38bd2bb20a9e62968ad45baa0878061399fb5ed936abbc9a9526289ac0f6612cd74e33776ee4", "asm": "OP_RETURN 0000776c0001ab806348ac0458a304e2218a86aeaeacb577c031fc3a016b46dc7dc7d096c53662e1a68b38bd2bb20a9e62968ad45baa0878061399fb5ed936abbc9a9526289ac0f6612cd74e33776ee4"}, "value": 0.0, "n": 1}], "hex": "0100000001a2576aa0fedb6e165ff275beb5f3c7005cc8329f3650507fffec4c22a3bf388f000000006a47304402204b19b10b1caa1b12cc20d3b003b0a322928a537ab66e21399d0b12fd73dc9634022040cfdb6722f2d5591fc591c1cebfad70c9de9309bd46b384ff93984e22c660f40121023071573159af9e515b577bbe1ae74c192292a826fdb8acdf7b325fcccce7945dffffffff027ca91600000000001976a914e513c23170460df2b0ec410fb98cbbce1fb6392b88ac0000000000000000536a4c500000776c0001ab806348ac0458a304e2218a86aeaeacb577c031fc3a016b46dc7dc7d096c53662e1a68b38bd2bb20a9e62968ad45baa0878061399fb5ed936abbc9a9526289ac0f6612cd74e33776ee400000000", "vin": [{"sequence": 4294967295, "scriptSig": {"hex": "47304402204b19b10b1caa1b12cc20d3b003b0a322928a537ab66e21399d0b12fd73dc9634022040cfdb6722f2d5591fc591c1cebfad70c9de9309bd46b384ff93984e22c660f40121023071573159af9e515b577bbe1ae74c192292a826fdb8acdf7b325fcccce7945d", "asm": "304402204b19b10b1caa1b12cc20d3b003b0a322928a537ab66e21399d0b12fd73dc9634022040cfdb6722f2d5591fc591c1cebfad70c9de9309bd46b384ff93984e22c660f4[ALL] 023071573159af9e515b577bbe1ae74c192292a826fdb8acdf7b325fcccce7945d"}, "vout": 0, "txid": "8f38bfa3224cecff7f5050369f32c85c00c7f3b5be75f25f166edbfea06a57a2"}], "txid": "579fd9e6c706b24d6ac668a45920953ee7cfea82437d94811048012b92ce3b1d", "blocktime": 1537870268, "version": 1, "confirmations": 11518, "time": 1537870268, "locktime": 0, "vsize": 283, "size": 283}