{"hash": "57a1a5aa83de722a2f46fc4f9564478930117d9a12867cd01f94d1a493c55090", "blockhash": "0000000000000000000baef3f32e3676a92c3b2e5da21b426e4f302fc371ce76", "vout": [{"scriptPubKey": {"type": "nulldata", "hex": "6a4c500000782c0001fcfeadaa728f5215ef12a2dc27b7256b4774d339f6019d6ddc0f1b8ff1172c36cb050dad65be226da76cb408f2565baa1f120614ffc1f48162ddbc9a9526289ac0f6612cd74e33776ee4", "asm": "OP_RETURN 0000782c0001fcfeadaa728f5215ef12a2dc27b7256b4774d339f6019d6ddc0f1b8ff1172c36cb050dad65be226da76cb408f2565baa1f120614ffc1f48162ddbc9a9526289ac0f6612cd74e33776ee4"}, "value": 0.0, "n": 0}, {"scriptPubKey": {"reqSigs": 1, "hex": "76a91492f0369f3ab5cf0f2aefa08e03867bbfc706e96488ac", "addresses": ["1EPwRKpvhy2996Er7qgkeqCrFNuheiiQ37"], "asm": "OP_DUP OP_HASH160 92f0369f3ab5cf0f2aefa08e03867bbfc706e964 OP_EQUALVERIFY OP_CHECKSIG", "type": "pubkeyhash"}, "value": 0.01370104, "n": 1}], "hex": "010000000173c6a79f00abdcaf0238d469864220b62f4dc5df8208d4784a9d090cbcf66706010000006a473044022019689c7703b981c38f5ba4c1b3b162c253d605a8eda41d389a5a0acf2bfe4fdb022070c1fe7332a90b303d5fb64ba23cf5063a7da1b603056271025850210fbb39a7012102ce5a15c7d1f5522055b3d084b4b9aa42a543040205aaae1df51551ed833e7650ffffffff020000000000000000536a4c500000782c0001fcfeadaa728f5215ef12a2dc27b7256b4774d339f6019d6ddc0f1b8ff1172c36cb050dad65be226da76cb408f2565baa1f120614ffc1f48162ddbc9a9526289ac0f6612cd74e33776ee4f8e71400000000001976a91492f0369f3ab5cf0f2aefa08e03867bbfc706e96488ac00000000", "vin": [{"sequence": 4294967295, "scriptSig": {"hex": "473044022019689c7703b981c38f5ba4c1b3b162c253d605a8eda41d389a5a0acf2bfe4fdb022070c1fe7332a90b303d5fb64ba23cf5063a7da1b603056271025850210fbb39a7012102ce5a15c7d1f5522055b3d084b4b9aa42a543040205aaae1df51551ed833e7650", "asm": "3044022019689c7703b981c38f5ba4c1b3b162c253d605a8eda41d389a5a0acf2bfe4fdb022070c1fe7332a90b303d5fb64ba23cf5063a7da1b603056271025850210fbb39a7[ALL] 02ce5a15c7d1f5522055b3d084b4b9aa42a543040205aaae1df51551ed833e7650"}, "vout": 1, "txid": "0667f6bc0c099d4a78d40882dfc54d2fb620428669d43802afdcab009fa7c673"}], "txid": "57a1a5aa83de722a2f46fc4f9564478930117d9a12867cd01f94d1a493c55090", "blocktime": 1537876114, "version": 1, "confirmations": 11460, "time": 1537876114, "locktime": 0, "vsize": 283, "size": 283}