{"hash": "57a4dd688019960f96c0e4efb51aea94e5eccd05ad965ae382758f57ad7d1d54", "blockhash": "0000000000000000000dcc0f55137456b1a82d3642486a52398922ac4d620174", "vout": [{"scriptPubKey": {"reqSigs": 1, "hex": "76a914382ce655e1cdd01af2d9e46573e9fbd0bb749d3688ac", "addresses": ["1682dS3BbTDCgAgnRYMNhDwEGYjRpaS3h3"], "asm": "OP_DUP OP_HASH160 382ce655e1cdd01af2d9e46573e9fbd0bb749d36 OP_EQUALVERIFY OP_CHECKSIG", "type": "pubkeyhash"}, "value": 0.0033557, "n": 0}, {"scriptPubKey": {"type": "nulldata", "hex": "6a146f6d6e69000000000000001f00000006a969b0b8", "asm": "OP_RETURN 6f6d6e69000000000000001f00000006a969b0b8"}, "value": 0.0, "n": 1}, {"scriptPubKey": {"reqSigs": 1, "hex": "76a914d046767d15f6ddafe4c664bd6564fea4c19a98dc88ac", "addresses": ["1KzFxkDYZVLTVbJCmByxtegMqU8rqF2NUj"], "asm": "OP_DUP OP_HASH160 d046767d15f6ddafe4c664bd6564fea4c19a98dc OP_EQUALVERIFY OP_CHECKSIG", "type": "pubkeyhash"}, "value": 5.46e-06, "n": 2}], "hex": "0100000004c4f5fd809cfa85763493162c43c0d2bdc275d6344aed5487ded26d1b2607f178020000006a473044022069b1859a9eaa4caabd48580cc82a8644d00e8519605d2fb4ba749f8b38c80f09022044907342be792759dec64e1087d6f272b21aa4dc9fd0c60b79a7f6e2614e9f780121034d5e3be71a20e61a6d961afba2c8625358ded3003f653de852b83e8d21c91d38ffffffff9c00f2df43a20d0fa7ddcabce130421ffcd6668e993b9f22a1c95a14d30cc830010000006b483045022100fe44c0a16377082ead899b37c6c33fce57a1dca179ce8ab81d7e2ea3520464e702203f8356ceda303d1b1a6d903ab35c7b9c1cea49f0c454c982850239fb241808e80121034d5e3be71a20e61a6d961afba2c8625358ded3003f653de852b83e8d21c91d38ffffffffdcab2f6084722409c33c2e2eb22b8baff02f943316885f37a6496c2ffbe84d38000000006a4730440220369b4d1fc8e7fb6f9fbbfecf035ce3dda419920ea8d6cea45adff07975483e5b02205bbbd8eb3353f7fcc326e84e496a76366ada355ce9726a272ae98260cc4926e90121039000d0616967dd25f800d8a8f45648c89fb366c2caeefd348010ea3a8f9a69ffffffffffe61f6a7ee57adcdd22b33eec449f30e937eea45335b6e38645e33ce897211163000000006b48304502210097dddffa733bab8495b2040ab40f39ff1a1ab08a6aca2f8775d2371c952e6da6022047dc7b6f8e4c73b03c44eacd4cd6b7c3beb368c1dc30dbd8e322edc9a0ef66b20121039000d0616967dd25f800d8a8f45648c89fb366c2caeefd348010ea3a8f9a69ffffffffff03d21e0500000000001976a914382ce655e1cdd01af2d9e46573e9fbd0bb749d3688ac0000000000000000166a146f6d6e69000000000000001f00000006a969b0b822020000000000001976a914d046767d15f6ddafe4c664bd6564fea4c19a98dc88ac00000000", "vin": [{"sequence": 4294967295, "scriptSig": {"hex": "473044022069b1859a9eaa4caabd48580cc82a8644d00e8519605d2fb4ba749f8b38c80f09022044907342be792759dec64e1087d6f272b21aa4dc9fd0c60b79a7f6e2614e9f780121034d5e3be71a20e61a6d961afba2c8625358ded3003f653de852b83e8d21c91d38", "asm": "3044022069b1859a9eaa4caabd48580cc82a8644d00e8519605d2fb4ba749f8b38c80f09022044907342be792759dec64e1087d6f272b21aa4dc9fd0c60b79a7f6e2614e9f78[ALL] 034d5e3be71a20e61a6d961afba2c8625358ded3003f653de852b83e8d21c91d38"}, "vout": 2, "txid": "78f107261b6dd2de8754ed4a34d675c2bdd2c0432c1693347685fa9c80fdf5c4"}, {"sequence": 4294967295, "scriptSig": {"hex": "483045022100fe44c0a16377082ead899b37c6c33fce57a1dca179ce8ab81d7e2ea3520464e702203f8356ceda303d1b1a6d903ab35c7b9c1cea49f0c454c982850239fb241808e80121034d5e3be71a20e61a6d961afba2c8625358ded3003f653de852b83e8d21c91d38", "asm": "3045022100fe44c0a16377082ead899b37c6c33fce57a1dca179ce8ab81d7e2ea3520464e702203f8356ceda303d1b1a6d903ab35c7b9c1cea49f0c454c982850239fb241808e8[ALL] 034d5e3be71a20e61a6d961afba2c8625358ded3003f653de852b83e8d21c91d38"}, "vout": 1, "txid": "30c80cd3145ac9a1229f3b998e66d6fc1f4230e1bccadda70f0da243dff2009c"}, {"sequence": 4294967295, "scriptSig": {"hex": "4730440220369b4d1fc8e7fb6f9fbbfecf035ce3dda419920ea8d6cea45adff07975483e5b02205bbbd8eb3353f7fcc326e84e496a76366ada355ce9726a272ae98260cc4926e90121039000d0616967dd25f800d8a8f45648c89fb366c2caeefd348010ea3a8f9a69ff", "asm": "30440220369b4d1fc8e7fb6f9fbbfecf035ce3dda419920ea8d6cea45adff07975483e5b02205bbbd8eb3353f7fcc326e84e496a76366ada355ce9726a272ae98260cc4926e9[ALL] 039000d0616967dd25f800d8a8f45648c89fb366c2caeefd348010ea3a8f9a69ff"}, "vout": 0, "txid": "384de8fb2f6c49a6375f881633942ff0af8b2bb22e2e3cc309247284602fabdc"}, {"sequence": 4294967295, "scriptSig": {"hex": "48304502210097dddffa733bab8495b2040ab40f39ff1a1ab08a6aca2f8775d2371c952e6da6022047dc7b6f8e4c73b03c44eacd4cd6b7c3beb368c1dc30dbd8e322edc9a0ef66b20121039000d0616967dd25f800d8a8f45648c89fb366c2caeefd348010ea3a8f9a69ff", "asm": "304502210097dddffa733bab8495b2040ab40f39ff1a1ab08a6aca2f8775d2371c952e6da6022047dc7b6f8e4c73b03c44eacd4cd6b7c3beb368c1dc30dbd8e322edc9a0ef66b2[ALL] 039000d0616967dd25f800d8a8f45648c89fb366c2caeefd348010ea3a8f9a69ff"}, "vout": 0, "txid": "63112197e83ce34586e3b63553a4ee37e9309f44ec3eb322dddc7ae57e6a1fe6"}], "txid": "57a4dd688019960f96c0e4efb51aea94e5eccd05ad965ae382758f57ad7d1d54", "blocktime": 1537870268, "version": 1, "confirmations": 11517, "time": 1537870268, "locktime": 0, "vsize": 699, "size": 699}