{"hash": "431d21efd090fcd31346697b31c24dcd58adc68b8ef3ee1f5c9581b7e3e5081e", "blockhash": "00000000000000000004ffacab907a6b429b9a5745fa0b75af4234bf69dd7176", "vout": [{"scriptPubKey": {"reqSigs": 1, "hex": "76a9148ff5858265cd5fb7f02826ae19470469dbcced3f88ac", "addresses": ["1E8BkZqLYoHSzs5TYrkNeSzXoiFYoUTcyh"], "asm": "OP_DUP OP_HASH160 8ff5858265cd5fb7f02826ae19470469dbcced3f OP_EQUALVERIFY OP_CHECKSIG", "type": "pubkeyhash"}, "value": 0.00466921, "n": 0}, {"scriptPubKey": {"reqSigs": 1, "hex": "001464ad45972c46230e813b42b13c2b75e6d8f62ed8", "addresses": ["bc1qvjk5t9evgc3saqfmg2cnc2m4umv0vtkcugqlfy"], "asm": "0 64ad45972c46230e813b42b13c2b75e6d8f62ed8", "type": "witness_v0_keyhash"}, "value": 0.07083909, "n": 1}], "hex": "01000000000101471fbbefb3e05c5539888428a58521f29509c261c8d5982d7b66846f09c39d3c0100000017160014ae0a32c39a3a9ad49be64c44035b065fe4a5e2f0ffffffff02e91f0700000000001976a9148ff5858265cd5fb7f02826ae19470469dbcced3f88ac85176c000000000016001464ad45972c46230e813b42b13c2b75e6d8f62ed80248304502210096ba2f9eb9e6a37b8a7802eb5695c7657159f593dbf324fe4f71a207f19db8070220327f48199d2c9d4db9a69952cfec76bd758e9ae864e4dc12be50de578e7e9f1f0121039d00f482cbc442657d17da3bcf12cb319ebeea7cb41685a12820d092fe71a20e00000000", "vin": [{"txinwitness": ["304502210096ba2f9eb9e6a37b8a7802eb5695c7657159f593dbf324fe4f71a207f19db8070220327f48199d2c9d4db9a69952cfec76bd758e9ae864e4dc12be50de578e7e9f1f01", "039d00f482cbc442657d17da3bcf12cb319ebeea7cb41685a12820d092fe71a20e"], "sequence": 4294967295, "scriptSig": {"hex": "160014ae0a32c39a3a9ad49be64c44035b065fe4a5e2f0", "asm": "0014ae0a32c39a3a9ad49be64c44035b065fe4a5e2f0"}, "vout": 1, "txid": "3c9dc3096f84667b2d98d5c861c20995f22185a528848839555ce0b3efbb1f47"}], "txid": "57a45c57879e11f7e17837f770731205dde690c1c297a7208cc8cbed43e4cbed", "blocktime": 1537875543, "version": 1, "confirmations": 11464, "time": 1537875543, "locktime": 0, "vsize": 167, "size": 249}