{"hash": "4520fec8491ec7942b9ddb5a3061f5e0c3e0bce83187bc5190d97a1fb8279b55", "blockhash": "0000000000000000000baef3f32e3676a92c3b2e5da21b426e4f302fc371ce76", "vout": [{"scriptPubKey": {"reqSigs": 1, "hex": "76a914eaf8d67dfe4bf89842ac8b10c3884fdac6b6dfd788ac", "addresses": ["1NRRDSs8oKVKJw99CwypT93Y9d9U8rucwb"], "asm": "OP_DUP OP_HASH160 eaf8d67dfe4bf89842ac8b10c3884fdac6b6dfd7 OP_EQUALVERIFY OP_CHECKSIG", "type": "pubkeyhash"}, "value": 0.73389109, "n": 0}, {"scriptPubKey": {"reqSigs": 1, "hex": "a914c9931a3b5708b89ce8dc5f4e30e0cfd68675b7cf87", "addresses": ["3L4qxxeng72p1ELcacoshrShZyPYin2Y6t"], "asm": "OP_HASH160 c9931a3b5708b89ce8dc5f4e30e0cfd68675b7cf OP_EQUAL", "type": "scripthash"}, "value": 2.41589248, "n": 1}], "hex": "010000000001027d72ed0d30ad927073163e80906c700eb843f7562746937aff5535aeff36884f00000000232200204b7304136b27c14362bf7054573b715164bf799ef8bd3955ed2fded923f5aab1ffffffff8d4757d8511eb75db58cd38273cb956f5562bc5cb0c2794d5b6235f2a5299b7401000000da0048304502210091d354eb9b5df4a2633c19f705f3a71ceb1412e134abe071306742350e35facd02205cc4a109bb7418c54f2ce5c39b6a6905bee78ea1704f585264d67245c4e7f6f401473044022067187bf808b09cb4fc5b08e5e7fc49dc5849ffd268b289374266e9815e76e39602203c750c8071ff1e1d3422e187b5076b7e6824e02aa1f998849955197d8e62b67401475221028bf222341544cf38700d069613abdea42fd0979906c95d23f6856ff11b3df6f2210229339b0dea29368e40de076e9a87775313a0b6984988e15609ad7fe5e57cb4fc52aeffffffff0235d45f04000000001976a914eaf8d67dfe4bf89842ac8b10c3884fdac6b6dfd788ac005c660e0000000017a914c9931a3b5708b89ce8dc5f4e30e0cfd68675b7cf870400483045022100db6cf4961506fc26e30a9802b8b216220a2a7180154e9264c4914ab3fa56567802205869ac90374eaabb6aebcbe061319b82883cfd4ee71184026121f66a0557965701483045022100b1a1059a10b62b31b41361a70de3010dc9d0212a556714b910ccd72fb0c496b4022038bf7d60faa43cb96f17cadab1c473b4aa2a903f1b2f1f7b17780a78e3979c1a014752210344b9426ae81ea1cbda1308c138fa3ade7b09452fe002b770f2cc6428bae72dbc2103a4b89cf836a3a648ccbf600d42fb4c8b2f193dfc54692cadb8b7a4afd6b5109752ae0000000000", "vin": [{"txinwitness": ["", "3045022100db6cf4961506fc26e30a9802b8b216220a2a7180154e9264c4914ab3fa56567802205869ac90374eaabb6aebcbe061319b82883cfd4ee71184026121f66a0557965701", "3045022100b1a1059a10b62b31b41361a70de3010dc9d0212a556714b910ccd72fb0c496b4022038bf7d60faa43cb96f17cadab1c473b4aa2a903f1b2f1f7b17780a78e3979c1a01", "52210344b9426ae81ea1cbda1308c138fa3ade7b09452fe002b770f2cc6428bae72dbc2103a4b89cf836a3a648ccbf600d42fb4c8b2f193dfc54692cadb8b7a4afd6b5109752ae"], "sequence": 4294967295, "scriptSig": {"hex": "2200204b7304136b27c14362bf7054573b715164bf799ef8bd3955ed2fded923f5aab1", "asm": "00204b7304136b27c14362bf7054573b715164bf799ef8bd3955ed2fded923f5aab1"}, "vout": 0, "txid": "4f8836ffae3555ff7a93462756f743b80e706c90803e16737092ad300ded727d"}, {"sequence": 4294967295, "scriptSig": {"hex": "0048304502210091d354eb9b5df4a2633c19f705f3a71ceb1412e134abe071306742350e35facd02205cc4a109bb7418c54f2ce5c39b6a6905bee78ea1704f585264d67245c4e7f6f401473044022067187bf808b09cb4fc5b08e5e7fc49dc5849ffd268b289374266e9815e76e39602203c750c8071ff1e1d3422e187b5076b7e6824e02aa1f998849955197d8e62b67401475221028bf222341544cf38700d069613abdea42fd0979906c95d23f6856ff11b3df6f2210229339b0dea29368e40de076e9a87775313a0b6984988e15609ad7fe5e57cb4fc52ae", "asm": "0 304502210091d354eb9b5df4a2633c19f705f3a71ceb1412e134abe071306742350e35facd02205cc4a109bb7418c54f2ce5c39b6a6905bee78ea1704f585264d67245c4e7f6f4[ALL] 3044022067187bf808b09cb4fc5b08e5e7fc49dc5849ffd268b289374266e9815e76e39602203c750c8071ff1e1d3422e187b5076b7e6824e02aa1f998849955197d8e62b674[ALL] 5221028bf222341544cf38700d069613abdea42fd0979906c95d23f6856ff11b3df6f2210229339b0dea29368e40de076e9a87775313a0b6984988e15609ad7fe5e57cb4fc52ae"}, "vout": 1, "txid": "749b29a5f235625b4d79c2b05cbc62556f95cb7382d38cb55db71e51d857478d"}], "txid": "57a5f61dc313d7de78fb6dc4de3a1c7ef13f87d87939bd3a1238fa45fd155454", "blocktime": 1537876114, "version": 1, "confirmations": 11460, "time": 1537876114, "locktime": 0, "vsize": 467, "size": 634}