{"hash": "57a84e32eeecc5125d8a75b66654c46c5b69fc766eea9d32959d4e6184730fb7", "blockhash": "0000000000000000001f0ddff1eddb255c1121bcd4da4f1bc9a0da00cae72433", "vout": [{"scriptPubKey": {"reqSigs": 1, "hex": "76a914a85f476ae308e3866d37426029c06012e7362bf188ac", "addresses": ["1GMGfKx8HfK3GLjzLTTcMTUDDffbouBamJ"], "asm": "OP_DUP OP_HASH160 a85f476ae308e3866d37426029c06012e7362bf1 OP_EQUALVERIFY OP_CHECKSIG", "type": "pubkeyhash"}, "value": 0.01028884, "n": 0}, {"scriptPubKey": {"reqSigs": 1, "hex": "a91437855dc08c708baad4972060f06037753671b9ac87", "addresses": ["36karYNrbGc1kfKa1g48bvGFodTdSo2bBs"], "asm": "OP_HASH160 37855dc08c708baad4972060f06037753671b9ac OP_EQUAL", "type": "scripthash"}, "value": 0.0020511, "n": 1}], "hex": "02000000016dd43f965a188eccc11b504f5e0c45378cc2809be2f3238424be0b281250d01c010000006b483045022100e788c2d5a8fd6c47663c884b125b4e8f997127d8afd0e0a691987a0018a866bc02205015f717eec5a887367fbce3e4aeddb6ab2597a2bb97d85777a03a2bc2b626a8012102499d1d926b3ad293d589788201fea8501627f6c6b016a36e1e00fcbc223494b8feffffff0214b30f00000000001976a914a85f476ae308e3866d37426029c06012e7362bf188ac362103000000000017a91437855dc08c708baad4972060f06037753671b9ac8704490800", "vin": [{"sequence": 4294967294, "scriptSig": {"hex": "483045022100e788c2d5a8fd6c47663c884b125b4e8f997127d8afd0e0a691987a0018a866bc02205015f717eec5a887367fbce3e4aeddb6ab2597a2bb97d85777a03a2bc2b626a8012102499d1d926b3ad293d589788201fea8501627f6c6b016a36e1e00fcbc223494b8", "asm": "3045022100e788c2d5a8fd6c47663c884b125b4e8f997127d8afd0e0a691987a0018a866bc02205015f717eec5a887367fbce3e4aeddb6ab2597a2bb97d85777a03a2bc2b626a8[ALL] 02499d1d926b3ad293d589788201fea8501627f6c6b016a36e1e00fcbc223494b8"}, "vout": 1, "txid": "1cd05012280bbe248423f3e29b80c28c37450c5e4f501bc1cc8e185a963fd46d"}], "txid": "57a84e32eeecc5125d8a75b66654c46c5b69fc766eea9d32959d4e6184730fb7", "blocktime": 1537872018, "version": 2, "confirmations": 11489, "time": 1537872018, "locktime": 542980, "vsize": 224, "size": 224}