{"hash": "57aeeaa410465ed58a36414f8508dbf7ae72141571b32c69ba4e33d4c4252654", "blockhash": "0000000000000000000baef3f32e3676a92c3b2e5da21b426e4f302fc371ce76", "vout": [{"scriptPubKey": {"reqSigs": 1, "hex": "76a914e9a56c191d27edf4372a0535cff0f564588677f188ac", "addresses": ["1NJQcSKLpWZsx8QucPW6BQtD8UzM33xg9z"], "asm": "OP_DUP OP_HASH160 e9a56c191d27edf4372a0535cff0f564588677f1 OP_EQUALVERIFY OP_CHECKSIG", "type": "pubkeyhash"}, "value": 0.00630621, "n": 0}, {"scriptPubKey": {"type": "nulldata", "hex": "6a4c500000781400015db435de848d4898009fffa1702940d64fa54d8eb2d19ed074892d00f8e8966f861419e591b40a61c2bfa2d1b1055baa1bca06151c4efe29a49f1d100759d4ba30d2c37bb011d97e02cf", "asm": "OP_RETURN 0000781400015db435de848d4898009fffa1702940d64fa54d8eb2d19ed074892d00f8e8966f861419e591b40a61c2bfa2d1b1055baa1bca06151c4efe29a49f1d100759d4ba30d2c37bb011d97e02cf"}, "value": 0.0, "n": 1}], "hex": "0100000001552e8d8e1343b5b5b37547298631dfbfa0dfe87f24ba06c4828411fd45cb63b9000000006b483045022100c93e60db0ef3b2d60cdab63be39d895b3e259a74bbb1f4f462a5a6a36870773b022021d45a0f9d17b65bc1c827df75f857c06a2dca9862a5fc006f44772d319519f0012102667728b8f0c1e51d738543b61b10d41518c26195632b136ea666e613c3fad39effffffff025d9f0900000000001976a914e9a56c191d27edf4372a0535cff0f564588677f188ac0000000000000000536a4c500000781400015db435de848d4898009fffa1702940d64fa54d8eb2d19ed074892d00f8e8966f861419e591b40a61c2bfa2d1b1055baa1bca06151c4efe29a49f1d100759d4ba30d2c37bb011d97e02cf00000000", "vin": [{"sequence": 4294967295, "scriptSig": {"hex": "483045022100c93e60db0ef3b2d60cdab63be39d895b3e259a74bbb1f4f462a5a6a36870773b022021d45a0f9d17b65bc1c827df75f857c06a2dca9862a5fc006f44772d319519f0012102667728b8f0c1e51d738543b61b10d41518c26195632b136ea666e613c3fad39e", "asm": "3045022100c93e60db0ef3b2d60cdab63be39d895b3e259a74bbb1f4f462a5a6a36870773b022021d45a0f9d17b65bc1c827df75f857c06a2dca9862a5fc006f44772d319519f0[ALL] 02667728b8f0c1e51d738543b61b10d41518c26195632b136ea666e613c3fad39e"}, "vout": 0, "txid": "b963cb45fd118482c406ba247fe8dfa0bfdf3186294775b3b5b543138e8d2e55"}], "txid": "57aeeaa410465ed58a36414f8508dbf7ae72141571b32c69ba4e33d4c4252654", "blocktime": 1537876114, "version": 1, "confirmations": 11463, "time": 1537876114, "locktime": 0, "vsize": 284, "size": 284}