{"hash": "57b1315f73c0210b362ec1a7062d9f99bbf79d65a7622fe4c92ab215cd5f713c", "blockhash": "0000000000000000001f76057863aec43deb6fa401d9628bb513d65a8098bfab", "vout": [{"scriptPubKey": {"reqSigs": 1, "hex": "76a9141869ce24f5e592d15262d049597e459ccaa6a50688ac", "addresses": ["13E5y5jnERrr7bof2vZey4vLwY8D2zAiuo"], "asm": "OP_DUP OP_HASH160 1869ce24f5e592d15262d049597e459ccaa6a506 OP_EQUALVERIFY OP_CHECKSIG", "type": "pubkeyhash"}, "value": 0.01662734, "n": 0}, {"scriptPubKey": {"reqSigs": 1, "hex": "a91455f9b540c906f49c5d71d0a048d59827b17539a287", "addresses": ["39XcVsDuLMyvfXnC8E4Rcwa1MvpMgyChy7"], "asm": "OP_HASH160 55f9b540c906f49c5d71d0a048d59827b17539a2 OP_EQUAL", "type": "scripthash"}, "value": 0.00544565, "n": 1}], "hex": "01000000010a88038beab7cc42c40851288e50512a340d19f6dff681e93961252c36490018010000006b483045022100949831c8a0a253f9d80bbd8772ff4b5294e2a0057bc2926ee2197aba2bbb9b2402204a7fd3efe77b9e1e3d8f194d8a8f2efdce6f2a802bfe6161b898f2de47f05156012103c7db609806716e4fca8d39200df6fbed2af3dc5278ea1dee91c3c1d12444fcedffffffff020e5f1900000000001976a9141869ce24f5e592d15262d049597e459ccaa6a50688ac354f08000000000017a91455f9b540c906f49c5d71d0a048d59827b17539a28700000000", "vin": [{"sequence": 4294967295, "scriptSig": {"hex": "483045022100949831c8a0a253f9d80bbd8772ff4b5294e2a0057bc2926ee2197aba2bbb9b2402204a7fd3efe77b9e1e3d8f194d8a8f2efdce6f2a802bfe6161b898f2de47f05156012103c7db609806716e4fca8d39200df6fbed2af3dc5278ea1dee91c3c1d12444fced", "asm": "3045022100949831c8a0a253f9d80bbd8772ff4b5294e2a0057bc2926ee2197aba2bbb9b2402204a7fd3efe77b9e1e3d8f194d8a8f2efdce6f2a802bfe6161b898f2de47f05156[ALL] 03c7db609806716e4fca8d39200df6fbed2af3dc5278ea1dee91c3c1d12444fced"}, "vout": 1, "txid": "180049362c256139e981f6dff6190d342a51508e285108c442ccb7ea8b03880a"}], "txid": "57b1315f73c0210b362ec1a7062d9f99bbf79d65a7622fe4c92ab215cd5f713c", "blocktime": 1537873891, "version": 1, "confirmations": 11479, "time": 1537873891, "locktime": 0, "vsize": 224, "size": 224}