{"hash": "3c947c503bac9255a6f509a1c7c7bcab4e05c24c2cee85537a822eecaa49d353", "blockhash": "0000000000000000000baef3f32e3676a92c3b2e5da21b426e4f302fc371ce76", "vout": [{"scriptPubKey": {"reqSigs": 1, "hex": "a91440d3ab76dbdd2ddf005c3420d78ba63b2cb1367e87", "addresses": ["37bnjtskaB4e3x32ofxw2hQc6sWmUjKp1C"], "asm": "OP_HASH160 40d3ab76dbdd2ddf005c3420d78ba63b2cb1367e OP_EQUAL", "type": "scripthash"}, "value": 0.0001, "n": 0}, {"scriptPubKey": {"reqSigs": 1, "hex": "a914147b70643b636ff451ccbad7839f1c21dee8a5fb87", "addresses": ["33ZKK5GpiwcjH4AMQnJPqzhJcsYRxWUJUs"], "asm": "OP_HASH160 147b70643b636ff451ccbad7839f1c21dee8a5fb OP_EQUAL", "type": "scripthash"}, "value": 0.02646598, "n": 1}], "hex": "010000000001016ab922855fb49748ecf47f22269f339cb51e03ff4404da3f24dc5a708242c62c0100000017160014a554dab0aab3bcce9ba9b954dccdbca7bb1dfeccffffffff02102700000000000017a91440d3ab76dbdd2ddf005c3420d78ba63b2cb1367e87466228000000000017a914147b70643b636ff451ccbad7839f1c21dee8a5fb870247304402205a5ccedf99517893b1285f8e2702b6d8dbed91f69f9b0d50b45262396063d6d50220712e4042929123b2b67c53f8811b02533c984d504e84484503ab02856efaeb550121036aea7abad03b6ecb0c7c8d78ed80b244cb1489374375650589874a40e89f181000000000", "vin": [{"txinwitness": ["304402205a5ccedf99517893b1285f8e2702b6d8dbed91f69f9b0d50b45262396063d6d50220712e4042929123b2b67c53f8811b02533c984d504e84484503ab02856efaeb5501", "036aea7abad03b6ecb0c7c8d78ed80b244cb1489374375650589874a40e89f1810"], "sequence": 4294967295, "scriptSig": {"hex": "160014a554dab0aab3bcce9ba9b954dccdbca7bb1dfecc", "asm": "0014a554dab0aab3bcce9ba9b954dccdbca7bb1dfecc"}, "vout": 1, "txid": "2cc64282705adc243fda0444ff031eb59c339f26227ff4ec4897b45f8522b96a"}], "txid": "57b5a2f365bd3d7bbe15d91950201d7aace194fbf2c304462897456f011811ba", "blocktime": 1537876114, "version": 1, "confirmations": 11459, "time": 1537876114, "locktime": 0, "vsize": 166, "size": 247}