{"hash": "57b6fe608f994de8a9b74412670829e7782c5fd641755c7a4480398d40c10b81", "blockhash": "0000000000000000000e13cef7c366c0283d82e591d1acd082e914b08063cdf1", "vout": [{"scriptPubKey": {"reqSigs": 1, "hex": "76a9141a9fac3a5e9eb5bcac98d4645fd2f61375460dfb88ac", "addresses": ["13RmrFG23j2EPdTWjagg5h7TDQgUivBnyH"], "asm": "OP_DUP OP_HASH160 1a9fac3a5e9eb5bcac98d4645fd2f61375460dfb OP_EQUALVERIFY OP_CHECKSIG", "type": "pubkeyhash"}, "value": 0.0003124, "n": 0}, {"scriptPubKey": {"reqSigs": 1, "hex": "76a914cdc23d33f7115c3832e8ec935616d2c6ee1d806988ac", "addresses": ["1KkxDHygDD2nL6dydB8RUpybuqMrzaiYJi"], "asm": "OP_DUP OP_HASH160 cdc23d33f7115c3832e8ec935616d2c6ee1d8069 OP_EQUALVERIFY OP_CHECKSIG", "type": "pubkeyhash"}, "value": 0.00576272, "n": 1}], "hex": "0100000001fa15610b0df542a46e421b60d571c5ec0a38dc33f6738a464c9f0b614fb98120010000006b48304502210093c24ff652ab35875ecab3978077399530dfd4159b031ae3d10c0f7e25a97769022008b8dd4f8c00c95acdbdfd46d009ba10b510f1ab6ad99aa91c026f4e8ab3e80001210230a86450c4371b7bbeaa2545faf1ebd7dbfe0173b0912228d2170f8421de8b84ffffffff02087a0000000000001976a9141a9fac3a5e9eb5bcac98d4645fd2f61375460dfb88ac10cb0800000000001976a914cdc23d33f7115c3832e8ec935616d2c6ee1d806988ac00000000", "vin": [{"sequence": 4294967295, "scriptSig": {"hex": "48304502210093c24ff652ab35875ecab3978077399530dfd4159b031ae3d10c0f7e25a97769022008b8dd4f8c00c95acdbdfd46d009ba10b510f1ab6ad99aa91c026f4e8ab3e80001210230a86450c4371b7bbeaa2545faf1ebd7dbfe0173b0912228d2170f8421de8b84", "asm": "304502210093c24ff652ab35875ecab3978077399530dfd4159b031ae3d10c0f7e25a97769022008b8dd4f8c00c95acdbdfd46d009ba10b510f1ab6ad99aa91c026f4e8ab3e800[ALL] 0230a86450c4371b7bbeaa2545faf1ebd7dbfe0173b0912228d2170f8421de8b84"}, "vout": 1, "txid": "2081b94f610b9f4c468a73f633dc380aecc571d5601b426ea442f50d0b6115fa"}], "txid": "57b6fe608f994de8a9b74412670829e7782c5fd641755c7a4480398d40c10b81", "blocktime": 1537871767, "version": 1, "confirmations": 11495, "time": 1537871767, "locktime": 0, "vsize": 226, "size": 226}