{"hash": "57b91115b44bc32292337307d20766b601780e8e1cb2d4bd338a4e54762fa92f", "blockhash": "0000000000000000001e0dab787dd257d1dbfcb92a98c2207d5e1078be1f4165", "vout": [{"scriptPubKey": {"reqSigs": 1, "hex": "a9142b46f3fe06546070611818f42ca5fccd21bc332687", "addresses": ["35dqyhYnQancmGf8jWGTVr1gZkd24vrB2A"], "asm": "OP_HASH160 2b46f3fe06546070611818f42ca5fccd21bc3326 OP_EQUAL", "type": "scripthash"}, "value": 0.15331719, "n": 0}, {"scriptPubKey": {"reqSigs": 1, "hex": "76a91457a74b2cc0c80e8b86c7425e2c72d5198596b5c688ac", "addresses": ["18zUCTSnM2u3SFrw4cUdttd6tok2b3yk7A"], "asm": "OP_DUP OP_HASH160 57a74b2cc0c80e8b86c7425e2c72d5198596b5c6 OP_EQUALVERIFY OP_CHECKSIG", "type": "pubkeyhash"}, "value": 0.03688733, "n": 1}], "hex": "0100000003d51a7ace4175f1139b26f1294230fdbbe46781baef31a601ede3b312031483bf000000006a473044022010d6aab76e09cbb592d54c77a01e4f509becea05d6c966286b087655d569fba202205c91b0d8c03b0893dd6fae4eec4a078a2bd8468dbbb051e85eda1b12939326a1012102280fca44969a526bc84632356d4288d1c6ceccabf706f360a0e083bd3e702301ffffffff8901dbb8caa6660b6164cb7325f2bf789c010d3d76af250923acfffaf5921a0d010000006a473044022056cd37a94365bae243aa0c42d81593ff6cbafddc5287882e39a90f4da715a3980220014593ed875f127864f8ac9fcbca66c9cfe58c9187ac8d19f610f9dec49fb94a0121032519e9e700b1a6040c1386e4dccba20c4887800c288b17a209e05e7c49313e33ffffffffac52c1480546945005dc6b5816d2a02d65cb00057d063902737301fbfcd83834010000006b483045022100e4588e8ea10e5255a58c860bf8120459cd7e4e7d6e1e54898aa3907ec7e5528e0220037d491829c05e7a0c97522295aad4f4f9253c82b3fad12471de35049249cae2012103f1eaf68e0a02fe17aebf5f3f2c1ee8b48d373e86bafea87d61930a85c37024e3ffffffff0287f1e9000000000017a9142b46f3fe06546070611818f42ca5fccd21bc3326871d493800000000001976a91457a74b2cc0c80e8b86c7425e2c72d5198596b5c688ac00000000", "vin": [{"sequence": 4294967295, "scriptSig": {"hex": "473044022010d6aab76e09cbb592d54c77a01e4f509becea05d6c966286b087655d569fba202205c91b0d8c03b0893dd6fae4eec4a078a2bd8468dbbb051e85eda1b12939326a1012102280fca44969a526bc84632356d4288d1c6ceccabf706f360a0e083bd3e702301", "asm": "3044022010d6aab76e09cbb592d54c77a01e4f509becea05d6c966286b087655d569fba202205c91b0d8c03b0893dd6fae4eec4a078a2bd8468dbbb051e85eda1b12939326a1[ALL] 02280fca44969a526bc84632356d4288d1c6ceccabf706f360a0e083bd3e702301"}, "vout": 0, "txid": "bf83140312b3e3ed01a631efba8167e4bbfd304229f1269b13f17541ce7a1ad5"}, {"sequence": 4294967295, "scriptSig": {"hex": "473044022056cd37a94365bae243aa0c42d81593ff6cbafddc5287882e39a90f4da715a3980220014593ed875f127864f8ac9fcbca66c9cfe58c9187ac8d19f610f9dec49fb94a0121032519e9e700b1a6040c1386e4dccba20c4887800c288b17a209e05e7c49313e33", "asm": "3044022056cd37a94365bae243aa0c42d81593ff6cbafddc5287882e39a90f4da715a3980220014593ed875f127864f8ac9fcbca66c9cfe58c9187ac8d19f610f9dec49fb94a[ALL] 032519e9e700b1a6040c1386e4dccba20c4887800c288b17a209e05e7c49313e33"}, "vout": 1, "txid": "0d1a92f5faffac230925af763d0d019c78bff22573cb64610b66a6cab8db0189"}, {"sequence": 4294967295, "scriptSig": {"hex": "483045022100e4588e8ea10e5255a58c860bf8120459cd7e4e7d6e1e54898aa3907ec7e5528e0220037d491829c05e7a0c97522295aad4f4f9253c82b3fad12471de35049249cae2012103f1eaf68e0a02fe17aebf5f3f2c1ee8b48d373e86bafea87d61930a85c37024e3", "asm": "3045022100e4588e8ea10e5255a58c860bf8120459cd7e4e7d6e1e54898aa3907ec7e5528e0220037d491829c05e7a0c97522295aad4f4f9253c82b3fad12471de35049249cae2[ALL] 03f1eaf68e0a02fe17aebf5f3f2c1ee8b48d373e86bafea87d61930a85c37024e3"}, "vout": 1, "txid": "3438d8fcfb0173730239067d0500cb652da0d216586bdc055094460548c152ac"}], "txid": "57b91115b44bc32292337307d20766b601780e8e1cb2d4bd338a4e54762fa92f", "blocktime": 1537872475, "version": 1, "confirmations": 11486, "time": 1537872475, "locktime": 0, "vsize": 518, "size": 518}