{"hash": "57bcc881f26be1af4a96c427addc2122a0ef8f6be58bb60d88ded012f0d724b3", "blockhash": "0000000000000000001f76057863aec43deb6fa401d9628bb513d65a8098bfab", "vout": [{"scriptPubKey": {"reqSigs": 1, "hex": "76a914fef1f89e6e46d6796724b49f43e17c56e8f6856588ac", "addresses": ["1QF2WBEMcg3Hi6tawQcMsmBDhJKrMugE5E"], "asm": "OP_DUP OP_HASH160 fef1f89e6e46d6796724b49f43e17c56e8f68565 OP_EQUALVERIFY OP_CHECKSIG", "type": "pubkeyhash"}, "value": 0.0078035, "n": 0}, {"scriptPubKey": {"reqSigs": 1, "hex": "76a9149c7c02e179f9ec21ea0d7004c5b5a00799c9288f88ac", "addresses": ["1FGQyNx99jbT1scN1DVse9kSagZFXcAFeT"], "asm": "OP_DUP OP_HASH160 9c7c02e179f9ec21ea0d7004c5b5a00799c9288f OP_EQUALVERIFY OP_CHECKSIG", "type": "pubkeyhash"}, "value": 0.0356415, "n": 1}], "hex": "01000000017933cb53e534a08edcb4ee14f0d09ed25e279f46fae160aae25211006d5dce29010000006b483045022100cd0c226563d506b60b551c32e04d29a80315e7d9e6d08ee0047b7d903e861a9e0220632b2cc6d6f00a7db71da7be2cfb6d6c232c1dd7a5894340812f550e4b92fb41012102e7696b0de58f492d8fd0904ec69682d3186213994c9ea95d5c0b0bd3b31ddac4ffffffff023ee80b00000000001976a914fef1f89e6e46d6796724b49f43e17c56e8f6856588ac76623600000000001976a9149c7c02e179f9ec21ea0d7004c5b5a00799c9288f88ac00000000", "vin": [{"sequence": 4294967295, "scriptSig": {"hex": "483045022100cd0c226563d506b60b551c32e04d29a80315e7d9e6d08ee0047b7d903e861a9e0220632b2cc6d6f00a7db71da7be2cfb6d6c232c1dd7a5894340812f550e4b92fb41012102e7696b0de58f492d8fd0904ec69682d3186213994c9ea95d5c0b0bd3b31ddac4", "asm": "3045022100cd0c226563d506b60b551c32e04d29a80315e7d9e6d08ee0047b7d903e861a9e0220632b2cc6d6f00a7db71da7be2cfb6d6c232c1dd7a5894340812f550e4b92fb41[ALL] 02e7696b0de58f492d8fd0904ec69682d3186213994c9ea95d5c0b0bd3b31ddac4"}, "vout": 1, "txid": "29ce5d6d001152e2aa60e1fa469f275ed29ed0f014eeb4dc8ea034e553cb3379"}], "txid": "57bcc881f26be1af4a96c427addc2122a0ef8f6be58bb60d88ded012f0d724b3", "blocktime": 1537873891, "version": 1, "confirmations": 11478, "time": 1537873891, "locktime": 0, "vsize": 226, "size": 226}