{"hash": "b852227bfe3f7a5af3b2c0a78243fd34b2dd5e38db708366fdbbe0ebea55309d", "blockhash": "0000000000000000001e0dab787dd257d1dbfcb92a98c2207d5e1078be1f4165", "vout": [{"scriptPubKey": {"reqSigs": 1, "hex": "76a91488fbcb9e6a7a7eed137a5fa2b910e3d1aa050ca288ac", "addresses": ["1DVJY94p61LfyS18gBkQkJorkWoiXrhZSj"], "asm": "OP_DUP OP_HASH160 88fbcb9e6a7a7eed137a5fa2b910e3d1aa050ca2 OP_EQUALVERIFY OP_CHECKSIG", "type": "pubkeyhash"}, "value": 0.2745, "n": 0}, {"scriptPubKey": {"reqSigs": 1, "hex": "76a9140bd20f5b4a1a9e7b0f5b014a541b09c7718ee26788ac", "addresses": ["125W5LNBcPxpc47CZGG2LahbDCZiedRw42"], "asm": "OP_DUP OP_HASH160 0bd20f5b4a1a9e7b0f5b014a541b09c7718ee267 OP_EQUALVERIFY OP_CHECKSIG", "type": "pubkeyhash"}, "value": 0.0048, "n": 1}, {"scriptPubKey": {"reqSigs": 1, "hex": "a9141be4b40bea1880d03c89677f18d6de9a4d6d3c3287", "addresses": ["34EW9JnizFrAq6UougWE8t1sccKGAurq6G"], "asm": "OP_HASH160 1be4b40bea1880d03c89677f18d6de9a4d6d3c32 OP_EQUAL", "type": "scripthash"}, "value": 0.55794872, "n": 2}, {"scriptPubKey": {"reqSigs": 1, "hex": "76a914822538c686a8b0dd7e97394a7919c7001206089088ac", "addresses": ["1Cs9S9r4yJUDk1N8cTQLcQMTkE5iaH78Tm"], "asm": "OP_DUP OP_HASH160 822538c686a8b0dd7e97394a7919c70012060890 OP_EQUALVERIFY OP_CHECKSIG", "type": "pubkeyhash"}, "value": 0.001, "n": 3}], "hex": "02000000000101098e05e903ab69f96d06500ba36c0259e61774dd529b0c7baa7d8154a6ea37eb02000000171600143ddd0dfdf8fc916cfc26c4015d26656eb13a0ee3feffffff0490daa201000000001976a91488fbcb9e6a7a7eed137a5fa2b910e3d1aa050ca288ac00530700000000001976a9140bd20f5b4a1a9e7b0f5b014a541b09c7718ee26788acb85c53030000000017a9141be4b40bea1880d03c89677f18d6de9a4d6d3c3287a0860100000000001976a914822538c686a8b0dd7e97394a7919c7001206089088ac0248304502210091a46e801c787c21aea43307f111cdc4c1b27f9f91e76d5d8c85b65743fdf03402201f101177867800d25c6c066292f92dc209fa29a04a62d562968ef4fbbb9c5b140121038cf0359bc05dd4f0c7cd22c269a57ea2083c57133d91b141c361afbc361316e1dc480800", "vin": [{"txinwitness": ["304502210091a46e801c787c21aea43307f111cdc4c1b27f9f91e76d5d8c85b65743fdf03402201f101177867800d25c6c066292f92dc209fa29a04a62d562968ef4fbbb9c5b1401", "038cf0359bc05dd4f0c7cd22c269a57ea2083c57133d91b141c361afbc361316e1"], "sequence": 4294967294, "scriptSig": {"hex": "1600143ddd0dfdf8fc916cfc26c4015d26656eb13a0ee3", "asm": "00143ddd0dfdf8fc916cfc26c4015d26656eb13a0ee3"}, "vout": 2, "txid": "eb37eaa654817daa7b0c9b52dd7417e659026ca30b50066df969ab03e9058e09"}], "txid": "57c00218a0f4ecbc4ffdbc54e903fe390906ea51fc6314b15541beb2972ec210", "blocktime": 1537872475, "version": 2, "confirmations": 11486, "time": 1537872475, "locktime": 542940, "vsize": 236, "size": 318}