{"hash": "97710308008575e781da2fcc0bcccb42bda4a562e775c5bda3dcfb77cbf33c55", "blockhash": "0000000000000000001cda96e906b7601b7a6fb1a3b62bca570a9e5d8f4b3de1", "vout": [{"scriptPubKey": {"reqSigs": 1, "hex": "001484439d1da6108f8fab352fa7481217409430da1a", "addresses": ["bc1qs3pe68dxzz8cl2e497n5syshgz2rpks60c4fz8"], "asm": "0 84439d1da6108f8fab352fa7481217409430da1a", "type": "witness_v0_keyhash"}, "value": 0.36668569, "n": 0}, {"scriptPubKey": {"reqSigs": 1, "hex": "a91454cdd84e469ecb60fdfa3470221addfea95d481487", "addresses": ["39RRH1peygoqKmadRjkwUR3kYkt2FNGC7B"], "asm": "OP_HASH160 54cdd84e469ecb60fdfa3470221addfea95d4814 OP_EQUAL", "type": "scripthash"}, "value": 0.10523488, "n": 1}], "hex": "010000000001014c14fcc61072c30087efc514a403e6d84d26fbee9c20b40aa872e67f226495200000000000ffffffff0299842f020000000016001484439d1da6108f8fab352fa7481217409430da1a6093a0000000000017a91454cdd84e469ecb60fdfa3470221addfea95d48148702473044022033f1e65f5bb21e70eb9f7c2a5cdc5fd3db6a95ffc7804dbb36cb9beb8686940502200958cbf625f206c11a25a93c0c51244e43dcb1fc360bf99b385cc7164e26c3d2012103819cc9d54aac0ac1952478487d3702f521960ce667ed00ffa11a23f841991f9500000000", "vin": [{"txinwitness": ["3044022033f1e65f5bb21e70eb9f7c2a5cdc5fd3db6a95ffc7804dbb36cb9beb8686940502200958cbf625f206c11a25a93c0c51244e43dcb1fc360bf99b385cc7164e26c3d201", "03819cc9d54aac0ac1952478487d3702f521960ce667ed00ffa11a23f841991f95"], "sequence": 4294967295, "scriptSig": {"hex": "", "asm": ""}, "vout": 0, "txid": "209564227fe672a80ab4209ceefb264dd8e603a414c5ef8700c37210c6fc144c"}], "txid": "57c1b4807fb200360a3ed2583077940b3abc6608e438d3f8cd9d0f75c33ea5d8", "blocktime": 1537873282, "version": 1, "confirmations": 11484, "time": 1537873282, "locktime": 0, "vsize": 142, "size": 223}