{"hash": "d0a115ce740f94a331d70413a3f75d7218c68b35692d83a9d2a9d97624d77b40", "blockhash": "0000000000000000000e13cef7c366c0283d82e591d1acd082e914b08063cdf1", "vout": [{"scriptPubKey": {"reqSigs": 1, "hex": "76a914c3d6b60b4e486a9d240cf3c4ca06a37f521c97f988ac", "addresses": ["1JrVyoC4iwjJdsNaqoqJSqsY5qTBfbujpV"], "asm": "OP_DUP OP_HASH160 c3d6b60b4e486a9d240cf3c4ca06a37f521c97f9 OP_EQUALVERIFY OP_CHECKSIG", "type": "pubkeyhash"}, "value": 0.00012576, "n": 0}, {"scriptPubKey": {"reqSigs": 1, "hex": "a9141a99cc236663c58bfc21c8cb2f6fc5bb40e2a54187", "addresses": ["347fjZcV3B6HBJSSC7D8dejonC7h9SPpeM"], "asm": "OP_HASH160 1a99cc236663c58bfc21c8cb2f6fc5bb40e2a541 OP_EQUAL", "type": "scripthash"}, "value": 0.0935, "n": 1}, {"scriptPubKey": {"reqSigs": 1, "hex": "a9140c905d83563ab480c3d9f00eb19c87b2d94478bf87", "addresses": ["32qSyXCtD5467fnLqu2JGAXw2Ei5732VaH"], "asm": "OP_HASH160 0c905d83563ab480c3d9f00eb19c87b2d94478bf OP_EQUAL", "type": "scripthash"}, "value": 0.10354486, "n": 2}, {"scriptPubKey": {"reqSigs": 1, "hex": "a914571ac8e6c7e11cd345244f0d894060a5a2120ee887", "addresses": ["39daoGhjWSXJPAEkGyFmB2ouZKxatqwjPb"], "asm": "OP_HASH160 571ac8e6c7e11cd345244f0d894060a5a2120ee8 OP_EQUAL", "type": "scripthash"}, "value": 0.00130913, "n": 3}, {"scriptPubKey": {"reqSigs": 1, "hex": "a914b8a9a8ba8cf965b7df6b05afd948e53c351b2c0d87", "addresses": ["3JXRVxhrk2o9f4w3cQchBLwUeegJBj6BEp"], "asm": "OP_HASH160 b8a9a8ba8cf965b7df6b05afd948e53c351b2c0d OP_EQUAL", "type": "scripthash"}, "value": 2.73976128, "n": 4}], "hex": "01000000000101eb282b42e949181f2d407623ec0530fc4de9eaa20b7300d59f3d1dfa8eb14026010000002322002065d416c48a8072e0ac51c2d111eb194f009caef0332446c1bf2097316cf07fa9ffffffff0520310000000000001976a914c3d6b60b4e486a9d240cf3c4ca06a37f521c97f988ac70ab8e000000000017a9141a99cc236663c58bfc21c8cb2f6fc5bb40e2a5418736ff9d000000000017a9140c905d83563ab480c3d9f00eb19c87b2d94478bf8761ff01000000000017a914571ac8e6c7e11cd345244f0d894060a5a2120ee887408b54100000000017a914b8a9a8ba8cf965b7df6b05afd948e53c351b2c0d87040047304402205b2d8174bb2fe940fb2638e76b647c85112db931303abf2a542cd000dbde6d43022076c37d2586e268511f7794583d65d0836d35505a9da439a1320b3b656a55b52e01473044022076f8b6a80a060cdd36d8b8f1a62ffe5c32ffb5fed8ed0c78c436939ec2120f940220442bbd0c10bc5a68d11da78fe071f05d729c229a76488bad84feb4b1844224400169522102f44abcf9e23c9a460da309ccca56c619c04eed3bde2c2cff5e7d78fbcd980b9c2103c9443cf3047bb6c2c82f1b0c44c36109cdc3d0d601d16d1189a1602bf8d1a0a02103bfe867059274412412e088af5572b92168c2ef495cfe6c9b7a753a009eb37c4853ae00000000", "vin": [{"txinwitness": ["", "304402205b2d8174bb2fe940fb2638e76b647c85112db931303abf2a542cd000dbde6d43022076c37d2586e268511f7794583d65d0836d35505a9da439a1320b3b656a55b52e01", "3044022076f8b6a80a060cdd36d8b8f1a62ffe5c32ffb5fed8ed0c78c436939ec2120f940220442bbd0c10bc5a68d11da78fe071f05d729c229a76488bad84feb4b18442244001", "522102f44abcf9e23c9a460da309ccca56c619c04eed3bde2c2cff5e7d78fbcd980b9c2103c9443cf3047bb6c2c82f1b0c44c36109cdc3d0d601d16d1189a1602bf8d1a0a02103bfe867059274412412e088af5572b92168c2ef495cfe6c9b7a753a009eb37c4853ae"], "sequence": 4294967295, "scriptSig": {"hex": "22002065d416c48a8072e0ac51c2d111eb194f009caef0332446c1bf2097316cf07fa9", "asm": "002065d416c48a8072e0ac51c2d111eb194f009caef0332446c1bf2097316cf07fa9"}, "vout": 1, "txid": "2640b18efa1d3d9fd500730ba2eae94dfc3005ec2376402d1f1849e9422b28eb"}], "txid": "57c501abaf81483df7249f3ff98af2a4aa4dbcc9bf8067c042ce6cb6809a97af", "blocktime": 1537871767, "version": 1, "confirmations": 11491, "time": 1537871767, "locktime": 0, "vsize": 312, "size": 502}