{"hash": "57c7b5721b37d7b8c7c14c99dbf5feac881fe5c882d5d4c40e521fd221caa78f", "blockhash": "0000000000000000000dcc0f55137456b1a82d3642486a52398922ac4d620174", "vout": [{"scriptPubKey": {"reqSigs": 1, "hex": "76a914d39761a236efb12efcc4a0ec3fa28f3ac9aa266f88ac", "addresses": ["1LHnve4b3xXKfvK5nqYrRnM28PUHmst32F"], "asm": "OP_DUP OP_HASH160 d39761a236efb12efcc4a0ec3fa28f3ac9aa266f OP_EQUALVERIFY OP_CHECKSIG", "type": "pubkeyhash"}, "value": 0.009, "n": 0}, {"scriptPubKey": {"reqSigs": 1, "hex": "76a9145bee782f891c8081dc999366528f98c13732746988ac", "addresses": ["19P6AcAEBNGh12cg7g1s2vTGoujWqvj6zP"], "asm": "OP_DUP OP_HASH160 5bee782f891c8081dc999366528f98c137327469 OP_EQUALVERIFY OP_CHECKSIG", "type": "pubkeyhash"}, "value": 0.1954754, "n": 1}], "hex": "010000000191b84bb1f33c895adac9c57fb62ad288162b9e934de8e6c6b040472a14f2c80f010000006a47304402201d481726b2153bf941b0c80fb7ce1591ae611cdb88ce95a0c0388d84150258f6022017f1943fbcdcd55604386664ffccad958142d266735cdeb71f9539e6370f6f360121035e426cfb2603f0854ba9f77bf2c617efd5a45712213970f4d23100951a70deeaffffffff02a0bb0d00000000001976a914d39761a236efb12efcc4a0ec3fa28f3ac9aa266f88ac94452a01000000001976a9145bee782f891c8081dc999366528f98c13732746988ac00000000", "vin": [{"sequence": 4294967295, "scriptSig": {"hex": "47304402201d481726b2153bf941b0c80fb7ce1591ae611cdb88ce95a0c0388d84150258f6022017f1943fbcdcd55604386664ffccad958142d266735cdeb71f9539e6370f6f360121035e426cfb2603f0854ba9f77bf2c617efd5a45712213970f4d23100951a70deea", "asm": "304402201d481726b2153bf941b0c80fb7ce1591ae611cdb88ce95a0c0388d84150258f6022017f1943fbcdcd55604386664ffccad958142d266735cdeb71f9539e6370f6f36[ALL] 035e426cfb2603f0854ba9f77bf2c617efd5a45712213970f4d23100951a70deea"}, "vout": 1, "txid": "0fc8f2142a4740b0c6e6e84d939e2b1688d22ab67fc5c9da5a893cf3b14bb891"}], "txid": "57c7b5721b37d7b8c7c14c99dbf5feac881fe5c882d5d4c40e521fd221caa78f", "blocktime": 1537870268, "version": 1, "confirmations": 11518, "time": 1537870268, "locktime": 0, "vsize": 225, "size": 225}