{"hash": "57c8e6477df1d3e8edabf451b892662842dae9a875a5151e9df2bb7ab48464db", "blockhash": "0000000000000000001cda96e906b7601b7a6fb1a3b62bca570a9e5d8f4b3de1", "vout": [{"scriptPubKey": {"reqSigs": 1, "hex": "76a914f6a27275c7c8ef4af90741806894ba56405f25d288ac", "addresses": ["1PV5qDNg1W6JFYPR1moAsskHwSKmoZNobS"], "asm": "OP_DUP OP_HASH160 f6a27275c7c8ef4af90741806894ba56405f25d2 OP_EQUALVERIFY OP_CHECKSIG", "type": "pubkeyhash"}, "value": 0.00213858, "n": 0}, {"scriptPubKey": {"reqSigs": 1, "hex": "76a914c7770c8bc9728bc4393c923a2ee969737837a5a188ac", "addresses": ["1KBg5qyMsD9KeixoHQCAJyGiMEZHBqTcCa"], "asm": "OP_DUP OP_HASH160 c7770c8bc9728bc4393c923a2ee969737837a5a1 OP_EQUALVERIFY OP_CHECKSIG", "type": "pubkeyhash"}, "value": 0.0046824, "n": 1}], "hex": "01000000014055cb096fb45cbcc071927bbb8b6dca7c9e731481e054a505ceec6158408ded000000006b483045022100ea9c809469818770f8d6e7296b8f9ee0f839312e4298ce5b56ae6a68b3c622a8022050dc743f737d0de0740a498ef0706d31df0b1df95c1f16821a8ffa7ecbb1a7c20121020af97fc037c1003b9e9c13e1f46b83166b816774b71c7052f36b38c47277018cffffffff0262430300000000001976a914f6a27275c7c8ef4af90741806894ba56405f25d288ac10250700000000001976a914c7770c8bc9728bc4393c923a2ee969737837a5a188ac00000000", "vin": [{"sequence": 4294967295, "scriptSig": {"hex": "483045022100ea9c809469818770f8d6e7296b8f9ee0f839312e4298ce5b56ae6a68b3c622a8022050dc743f737d0de0740a498ef0706d31df0b1df95c1f16821a8ffa7ecbb1a7c20121020af97fc037c1003b9e9c13e1f46b83166b816774b71c7052f36b38c47277018c", "asm": "3045022100ea9c809469818770f8d6e7296b8f9ee0f839312e4298ce5b56ae6a68b3c622a8022050dc743f737d0de0740a498ef0706d31df0b1df95c1f16821a8ffa7ecbb1a7c2[ALL] 020af97fc037c1003b9e9c13e1f46b83166b816774b71c7052f36b38c47277018c"}, "vout": 0, "txid": "ed8d405861ecce05a554e08114739e7cca6d8bbb7b9271c0bc5cb46f09cb5540"}], "txid": "57c8e6477df1d3e8edabf451b892662842dae9a875a5151e9df2bb7ab48464db", "blocktime": 1537873282, "version": 1, "confirmations": 11485, "time": 1537873282, "locktime": 0, "vsize": 226, "size": 226}