{"hash": "57ca7dd5231e19fdbff6fe1d94e132035ad38c578dc1b83514539c82f8e35d3b", "blockhash": "0000000000000000001cda96e906b7601b7a6fb1a3b62bca570a9e5d8f4b3de1", "vout": [{"scriptPubKey": {"reqSigs": 1, "hex": "a91499d91601d7337c48a59922bbfd37d18e620b434487", "addresses": ["3FiVNHqbxT3TSF9ify6Ft3gzNSraixvbzS"], "asm": "OP_HASH160 99d91601d7337c48a59922bbfd37d18e620b4344 OP_EQUAL", "type": "scripthash"}, "value": 0.000461, "n": 0}, {"scriptPubKey": {"reqSigs": 1, "hex": "76a9144bb4c7290fcf51fd2d20430065040f8b121e00eb88ac", "addresses": ["17uJF4XjoxiKB4mFdRDPcRihac1S6Y3fDS"], "asm": "OP_DUP OP_HASH160 4bb4c7290fcf51fd2d20430065040f8b121e00eb OP_EQUALVERIFY OP_CHECKSIG", "type": "pubkeyhash"}, "value": 0.66247531, "n": 1}], "hex": "01000000016c74d3831641e2a37917048d5492dc4c9389ade2056424900b3ad4762b84880e010000006b483045022100fc04dfc30ee770f66d493286915a5185c859cd7a1b060c45b920a3dd70b70eaf02201f6740b995cb11a9a95fb653508b7bdef096faa09386d481d5f8e830b2dfd9d60121020425027b620cc3c5142a5f379db5c5c9c1f24456eef5ef2cb58a8c740719ece1ffffffff0214b400000000000017a91499d91601d7337c48a59922bbfd37d18e620b4344876bdbf203000000001976a9144bb4c7290fcf51fd2d20430065040f8b121e00eb88ac00000000", "vin": [{"sequence": 4294967295, "scriptSig": {"hex": "483045022100fc04dfc30ee770f66d493286915a5185c859cd7a1b060c45b920a3dd70b70eaf02201f6740b995cb11a9a95fb653508b7bdef096faa09386d481d5f8e830b2dfd9d60121020425027b620cc3c5142a5f379db5c5c9c1f24456eef5ef2cb58a8c740719ece1", "asm": "3045022100fc04dfc30ee770f66d493286915a5185c859cd7a1b060c45b920a3dd70b70eaf02201f6740b995cb11a9a95fb653508b7bdef096faa09386d481d5f8e830b2dfd9d6[ALL] 020425027b620cc3c5142a5f379db5c5c9c1f24456eef5ef2cb58a8c740719ece1"}, "vout": 1, "txid": "0e88842b76d43a0b90246405e2ad89934cdc92548d041779a3e2411683d3746c"}], "txid": "57ca7dd5231e19fdbff6fe1d94e132035ad38c578dc1b83514539c82f8e35d3b", "blocktime": 1537873282, "version": 1, "confirmations": 11484, "time": 1537873282, "locktime": 0, "vsize": 224, "size": 224}