{"hash": "57cd04617c66c1b1ea82edb7da834fb21dbe0cafd22ba74cb4e542e8131ca310", "blockhash": "0000000000000000000dcc0f55137456b1a82d3642486a52398922ac4d620174", "vout": [{"scriptPubKey": {"reqSigs": 1, "hex": "76a91435aa51760838a8996075f89d334b8390d44b771f88ac", "addresses": ["15tkr5qx3RfjTDw4FaUvPkzJ79bLo7cREc"], "asm": "OP_DUP OP_HASH160 35aa51760838a8996075f89d334b8390d44b771f OP_EQUALVERIFY OP_CHECKSIG", "type": "pubkeyhash"}, "value": 0.59949, "n": 0}], "hex": "01000000013f8f56f13efaf8612f2e264b2700fe833b3ef0fb5ec76bed5de1592b9033016f020000006b483045022100c2a3a13ec898fee8db4d22ccfb811866815014898ba9265cf56f3b58bbfa2fbc0220025fb7ec2a46c2f73d3a37bc97c7c91a9e9680f09e745bdf7cca304086c828b0012103c13d0458b544b6f4c1ad188f85c4eb075de23ca758e1855ee2daceaeb888ee4fffffffff01c8bf9203000000001976a91435aa51760838a8996075f89d334b8390d44b771f88ac00000000", "vin": [{"sequence": 4294967295, "scriptSig": {"hex": "483045022100c2a3a13ec898fee8db4d22ccfb811866815014898ba9265cf56f3b58bbfa2fbc0220025fb7ec2a46c2f73d3a37bc97c7c91a9e9680f09e745bdf7cca304086c828b0012103c13d0458b544b6f4c1ad188f85c4eb075de23ca758e1855ee2daceaeb888ee4f", "asm": "3045022100c2a3a13ec898fee8db4d22ccfb811866815014898ba9265cf56f3b58bbfa2fbc0220025fb7ec2a46c2f73d3a37bc97c7c91a9e9680f09e745bdf7cca304086c828b0[ALL] 03c13d0458b544b6f4c1ad188f85c4eb075de23ca758e1855ee2daceaeb888ee4f"}, "vout": 2, "txid": "6f0133902b59e15ded6bc75efbf03e3b83fe00274b262e2f61f8fa3ef1568f3f"}], "txid": "57cd04617c66c1b1ea82edb7da834fb21dbe0cafd22ba74cb4e542e8131ca310", "blocktime": 1537870268, "version": 1, "confirmations": 11516, "time": 1537870268, "locktime": 0, "vsize": 192, "size": 192}