{"hash": "2de80cd72c8a2e2b01765a3c1db4cdea6c43830daa4d22557f7d80433061e1a7", "blockhash": "0000000000000000000e13cef7c366c0283d82e591d1acd082e914b08063cdf1", "vout": [{"scriptPubKey": {"reqSigs": 1, "hex": "76a914989ed7a09524089a66a0f9119aec7f90cba53e3988ac", "addresses": ["1EuyziRu6QhUSj7poT5SXM82fqGK8nmvS3"], "asm": "OP_DUP OP_HASH160 989ed7a09524089a66a0f9119aec7f90cba53e39 OP_EQUALVERIFY OP_CHECKSIG", "type": "pubkeyhash"}, "value": 0.00156816, "n": 0}, {"scriptPubKey": {"reqSigs": 1, "hex": "a9140be7846be16b05bea00dbec2fcd7e045a793cb1787", "addresses": ["32mxhko5mJHfkbkDPpz7SfdJwEJi21P1WK"], "asm": "OP_HASH160 0be7846be16b05bea00dbec2fcd7e045a793cb17 OP_EQUAL", "type": "scripthash"}, "value": 0.19643533, "n": 1}], "hex": "01000000000101b96d655bc17a7fe9993878abc54da95007170478b57a0ec8a518d048cec1526901000000232200202c66ece6da72bcbfeadf83a91236f4891c13e14d8ecebdcaa81666fc1aa73a31ffffffff0290640200000000001976a914989ed7a09524089a66a0f9119aec7f90cba53e3988ac8dbc2b010000000017a9140be7846be16b05bea00dbec2fcd7e045a793cb17870400483045022100de427e8f1dc4fc5f36e44d912255087e7bf84e8f22000bc7325dd94c4467305c02205f7a59b71bee4be3766a91cc9d6a010d76be566b80d6834ff8a4460cbc45790601473044022049a1bd73d50fa4d9a3b671aa7f98d73aa4ca108809b7308007874bde79b58ad5022005252aa4a01c968d5b19b74cfd399aea8956e92a006a159c9d2ca470ba7f0f7f01475221029e6fbb942d34a473faaa5557c1bfe08d72102f0b9754ad140fd369d7a3ba3cdc2103871fc2ca08e6950b38867e8e6a0e94ee625223d3aa0df5c65f414c6d784467e252ae00000000", "vin": [{"txinwitness": ["", "3045022100de427e8f1dc4fc5f36e44d912255087e7bf84e8f22000bc7325dd94c4467305c02205f7a59b71bee4be3766a91cc9d6a010d76be566b80d6834ff8a4460cbc45790601", "3044022049a1bd73d50fa4d9a3b671aa7f98d73aa4ca108809b7308007874bde79b58ad5022005252aa4a01c968d5b19b74cfd399aea8956e92a006a159c9d2ca470ba7f0f7f01", "5221029e6fbb942d34a473faaa5557c1bfe08d72102f0b9754ad140fd369d7a3ba3cdc2103871fc2ca08e6950b38867e8e6a0e94ee625223d3aa0df5c65f414c6d784467e252ae"], "sequence": 4294967295, "scriptSig": {"hex": "2200202c66ece6da72bcbfeadf83a91236f4891c13e14d8ecebdcaa81666fc1aa73a31", "asm": "00202c66ece6da72bcbfeadf83a91236f4891c13e14d8ecebdcaa81666fc1aa73a31"}, "vout": 1, "txid": "6952c1ce48d018a5c80e7ab57804170750a94dc5ab783899e97f7ac15b656db9"}], "txid": "57d5861a7126e279bcf1a9b25474f108ab860e101642b80ffbd7945c7cfab616", "blocktime": 1537871767, "version": 1, "confirmations": 11495, "time": 1537871767, "locktime": 0, "vsize": 208, "size": 373}