{"hash": "57dc879965e353cc16896099e8e1201ddd4065c6345fb9912c313922ace201b7", "blockhash": "0000000000000000001f76057863aec43deb6fa401d9628bb513d65a8098bfab", "vout": [{"scriptPubKey": {"reqSigs": 1, "hex": "76a914374f97c545ca25039b1cee7b9e6b978363ce6c3288ac", "addresses": ["163TWm2exg7EjYr2VFM8tRDJPYcJ1128fu"], "asm": "OP_DUP OP_HASH160 374f97c545ca25039b1cee7b9e6b978363ce6c32 OP_EQUALVERIFY OP_CHECKSIG", "type": "pubkeyhash"}, "value": 0.21041284, "n": 0}], "hex": "01000000027a2e9a9d601dc8cc6f00d0e9890e9943b5df2224b6a5cb06e612faee7a4eda9e010000006a47304402203c628e823bf2db4f7b1fd64681a4e115a1851d466f83710e8c2a4ca2242eb0980220515ce89b6de8054e1ee183a3104290fa2e7d7b95a8a9a886deb78aa607fd0f60012103cacca25688c39d304c32bf1e71d50418425f270f94f6ed5a5a591ac219a1b8ebffffffff06f1c3e2760665273b5b0ebba2600c6897fd8781f7a3f6e5721f25edf3ae57b4000000006b483045022100e1de320cc1542671b877859068b5b34da181560bf80530a501e677af31c2f8a70220041f9a066ddd5de070dffee28f3f4a9bdd57ebef402b7419c50e4e0c32e492e701210379765713c145aa09268d7d46caf097c21829aeb7c7f12bef9317bcba3f618b68ffffffff0184104101000000001976a914374f97c545ca25039b1cee7b9e6b978363ce6c3288ac00000000", "vin": [{"sequence": 4294967295, "scriptSig": {"hex": "47304402203c628e823bf2db4f7b1fd64681a4e115a1851d466f83710e8c2a4ca2242eb0980220515ce89b6de8054e1ee183a3104290fa2e7d7b95a8a9a886deb78aa607fd0f60012103cacca25688c39d304c32bf1e71d50418425f270f94f6ed5a5a591ac219a1b8eb", "asm": "304402203c628e823bf2db4f7b1fd64681a4e115a1851d466f83710e8c2a4ca2242eb0980220515ce89b6de8054e1ee183a3104290fa2e7d7b95a8a9a886deb78aa607fd0f60[ALL] 03cacca25688c39d304c32bf1e71d50418425f270f94f6ed5a5a591ac219a1b8eb"}, "vout": 1, "txid": "9eda4e7aeefa12e606cba5b62422dfb543990e89e9d0006fccc81d609d9a2e7a"}, {"sequence": 4294967295, "scriptSig": {"hex": "483045022100e1de320cc1542671b877859068b5b34da181560bf80530a501e677af31c2f8a70220041f9a066ddd5de070dffee28f3f4a9bdd57ebef402b7419c50e4e0c32e492e701210379765713c145aa09268d7d46caf097c21829aeb7c7f12bef9317bcba3f618b68", "asm": "3045022100e1de320cc1542671b877859068b5b34da181560bf80530a501e677af31c2f8a70220041f9a066ddd5de070dffee28f3f4a9bdd57ebef402b7419c50e4e0c32e492e7[ALL] 0379765713c145aa09268d7d46caf097c21829aeb7c7f12bef9317bcba3f618b68"}, "vout": 0, "txid": "b457aef3ed251f72e5f6a3f78187fd97680c60a2bb0e5b3b27650676e2c3f106"}], "txid": "57dc879965e353cc16896099e8e1201ddd4065c6345fb9912c313922ace201b7", "blocktime": 1537873891, "version": 1, "confirmations": 11478, "time": 1537873891, "locktime": 0, "vsize": 339, "size": 339}