{"hash": "6f21d7a3eb7784b177bf3c7c16309110acad559775f9bb4ea40895514adba14f", "blockhash": "000000000000000000022b45ed06c6f4ccd3cf7fb5ba4856ebd2e58215665228", "vout": [{"scriptPubKey": {"reqSigs": 1, "hex": "76a914d0430806eb302f8b228134837de30c7309323d0688ac", "addresses": ["1KzBrKcicxtn8fWwYMj7PSD6rKSvhLbKN7"], "asm": "OP_DUP OP_HASH160 d0430806eb302f8b228134837de30c7309323d06 OP_EQUALVERIFY OP_CHECKSIG", "type": "pubkeyhash"}, "value": 0.000161, "n": 0}, {"scriptPubKey": {"reqSigs": 1, "hex": "76a9140a7152c7e9c383243cc1209287da42a9bc7367b488ac", "addresses": ["1xDWmHkEctw6SyrFsfVicRCQkv3wtyTLW"], "asm": "OP_DUP OP_HASH160 0a7152c7e9c383243cc1209287da42a9bc7367b4 OP_EQUALVERIFY OP_CHECKSIG", "type": "pubkeyhash"}, "value": 0.00281, "n": 1}, {"scriptPubKey": {"reqSigs": 1, "hex": "76a91412ab9f6ab6ff66789f28498c86cafbb1672fdeba88ac", "addresses": ["12him1WNHu3sAYGPFEzYyGnuuJoSt1nDvD"], "asm": "OP_DUP OP_HASH160 12ab9f6ab6ff66789f28498c86cafbb1672fdeba OP_EQUALVERIFY OP_CHECKSIG", "type": "pubkeyhash"}, "value": 0.00311473, "n": 2}, {"scriptPubKey": {"reqSigs": 1, "hex": "a91492ab2ca72ed65f0d83ed6c12312583102514247587", "addresses": ["3F4XdxZ3rcrfoLpcmHN6bu4HViZv2kuESi"], "asm": "OP_HASH160 92ab2ca72ed65f0d83ed6c123125831025142475 OP_EQUAL", "type": "scripthash"}, "value": 0.00061093, "n": 3}, {"scriptPubKey": {"reqSigs": 1, "hex": "76a9142c4a47867ca63b0e8fd18184a8113030c8a5467c88ac", "addresses": ["153BiTt1zGummVas9FjkpdhmNWdmdsaH1d"], "asm": "OP_DUP OP_HASH160 2c4a47867ca63b0e8fd18184a8113030c8a5467c OP_EQUALVERIFY OP_CHECKSIG", "type": "pubkeyhash"}, "value": 0.1, "n": 4}, {"scriptPubKey": {"reqSigs": 1, "hex": "a9141988a27e3c2df4ddee7fad5a2303d086179b2a3087", "addresses": ["3422VtS7UtCvXYxoXMVp6eZupR252z85oC"], "asm": "OP_HASH160 1988a27e3c2df4ddee7fad5a2303d086179b2a30 OP_EQUAL", "type": "scripthash"}, "value": 2.73935635, "n": 5}], "hex": "010000000001017c40c821b7513379b83aa6352732db29e744c9447bce369263e251f09e8c5442000000002322002065d416c48a8072e0ac51c2d111eb194f009caef0332446c1bf2097316cf07fa9ffffffff06e43e0000000000001976a914d0430806eb302f8b228134837de30c7309323d0688aca8490400000000001976a9140a7152c7e9c383243cc1209287da42a9bc7367b488acb1c00400000000001976a91412ab9f6ab6ff66789f28498c86cafbb1672fdeba88aca5ee00000000000017a91492ab2ca72ed65f0d83ed6c1231258310251424758780969800000000001976a9142c4a47867ca63b0e8fd18184a8113030c8a5467c88ac13ed53100000000017a9141988a27e3c2df4ddee7fad5a2303d086179b2a30870400483045022100ea0d09e56e72efcb2d684129825ba032e42134672c4e4f26188c65224dcfc5c702207a8783e0dfd89464142d8cd8675d82616d93204e4d12b58d4f78927ae316f4980147304402200dd9365a095ce392905d33a49bee2c5439bdc2e379659bb1ece12f5b371cb1ea02201e3dc36943b773098cb9f3beec9addc5669a417a92553eade82220c34a53c6b70169522102f44abcf9e23c9a460da309ccca56c619c04eed3bde2c2cff5e7d78fbcd980b9c2103c9443cf3047bb6c2c82f1b0c44c36109cdc3d0d601d16d1189a1602bf8d1a0a02103bfe867059274412412e088af5572b92168c2ef495cfe6c9b7a753a009eb37c4853ae00000000", "vin": [{"txinwitness": ["", "3045022100ea0d09e56e72efcb2d684129825ba032e42134672c4e4f26188c65224dcfc5c702207a8783e0dfd89464142d8cd8675d82616d93204e4d12b58d4f78927ae316f49801", "304402200dd9365a095ce392905d33a49bee2c5439bdc2e379659bb1ece12f5b371cb1ea02201e3dc36943b773098cb9f3beec9addc5669a417a92553eade82220c34a53c6b701", "522102f44abcf9e23c9a460da309ccca56c619c04eed3bde2c2cff5e7d78fbcd980b9c2103c9443cf3047bb6c2c82f1b0c44c36109cdc3d0d601d16d1189a1602bf8d1a0a02103bfe867059274412412e088af5572b92168c2ef495cfe6c9b7a753a009eb37c4853ae"], "sequence": 4294967295, "scriptSig": {"hex": "22002065d416c48a8072e0ac51c2d111eb194f009caef0332446c1bf2097316cf07fa9", "asm": "002065d416c48a8072e0ac51c2d111eb194f009caef0332446c1bf2097316cf07fa9"}, "vout": 0, "txid": "42548c9ef051e2639236ce7b44c944e729db322735a63ab8793351b721c8407c"}], "txid": "57def9c177c72424f69617c77473b950b9113fe8b0372b1b94182eabf5f5c153", "blocktime": 1537869901, "version": 1, "confirmations": 11522, "time": 1537869901, "locktime": 0, "vsize": 350, "size": 541}