{"hash": "57e74828c5ed8e137a0135c9e2c9494bf5b6f3e0b959517ae95d6ad6791ac9e9", "blockhash": "00000000000000000017f5eb5941039fbcee6240d03bc1f2f8e35350df66a1d8", "vout": [{"scriptPubKey": {"reqSigs": 1, "hex": "76a9146cca51f83e5bc1a6d2e63059d74a03a2016cbd5288ac", "addresses": ["1AvEMAvykdS1chbqsfFk32dKqpiTSWYo77"], "asm": "OP_DUP OP_HASH160 6cca51f83e5bc1a6d2e63059d74a03a2016cbd52 OP_EQUALVERIFY OP_CHECKSIG", "type": "pubkeyhash"}, "value": 0.12247651, "n": 0}, {"scriptPubKey": {"reqSigs": 1, "hex": "a914d46382c5d1fd3fb8df44bfcd38fd3285958c57d887", "addresses": ["3M42PLzhGpRLHPJefbeDtEABkQyAtEZYnM"], "asm": "OP_HASH160 d46382c5d1fd3fb8df44bfcd38fd3285958c57d8 OP_EQUAL", "type": "scripthash"}, "value": 0.15625594, "n": 1}], "hex": "010000000259663748c31960b8009fb74ef6e3c0a791951be242f0de0f45aeeecbe71e84cc010000006a47304402204fbeb18009c8f14e3265f5154703495b4351ea8aea7b602ef40973eb15580a1802206f460c36d1bdc055e68f5a5b99a9b578a4c6f143c0a926f56714f1190f6bf08a0121036578ecfff07830b24692c6fd6b7632067d9f6c8769e08bc666d2b9902222e9a9ffffffff50b86ba6520382973e09b803936aad6cef041df060041a9d3d671ac9e502c7e4010000006a47304402201bfa44699241c39c096b686b327dfe6e1c65cb1161812ad4fd834bb21fda371402203489571b7531cb20b5a97b9ddc1e6c036e7557b791105881267662931162b6190121024f3b9856b3862a12331be5466098143b203ee2a1c58492c5339975d0275a9168ffffffff0263e2ba00000000001976a9146cca51f83e5bc1a6d2e63059d74a03a2016cbd5288ac7a6dee000000000017a914d46382c5d1fd3fb8df44bfcd38fd3285958c57d88700000000", "vin": [{"sequence": 4294967295, "scriptSig": {"hex": "47304402204fbeb18009c8f14e3265f5154703495b4351ea8aea7b602ef40973eb15580a1802206f460c36d1bdc055e68f5a5b99a9b578a4c6f143c0a926f56714f1190f6bf08a0121036578ecfff07830b24692c6fd6b7632067d9f6c8769e08bc666d2b9902222e9a9", "asm": "304402204fbeb18009c8f14e3265f5154703495b4351ea8aea7b602ef40973eb15580a1802206f460c36d1bdc055e68f5a5b99a9b578a4c6f143c0a926f56714f1190f6bf08a[ALL] 036578ecfff07830b24692c6fd6b7632067d9f6c8769e08bc666d2b9902222e9a9"}, "vout": 1, "txid": "cc841ee7cbeeae450fdef042e21b9591a7c0e3f64eb79f00b86019c348376659"}, {"sequence": 4294967295, "scriptSig": {"hex": "47304402201bfa44699241c39c096b686b327dfe6e1c65cb1161812ad4fd834bb21fda371402203489571b7531cb20b5a97b9ddc1e6c036e7557b791105881267662931162b6190121024f3b9856b3862a12331be5466098143b203ee2a1c58492c5339975d0275a9168", "asm": "304402201bfa44699241c39c096b686b327dfe6e1c65cb1161812ad4fd834bb21fda371402203489571b7531cb20b5a97b9ddc1e6c036e7557b791105881267662931162b619[ALL] 024f3b9856b3862a12331be5466098143b203ee2a1c58492c5339975d0275a9168"}, "vout": 1, "txid": "e4c702e5c91a673d9d1a0460f01d04ef6cad6a9303b8093e97820352a66bb850"}], "txid": "57e74828c5ed8e137a0135c9e2c9494bf5b6f3e0b959517ae95d6ad6791ac9e9", "blocktime": 1537874412, "version": 1, "confirmations": 11467, "time": 1537874412, "locktime": 0, "vsize": 370, "size": 370}