{"hash": "57e7cc770908324b1bc75ee7df1f7129026d2399249f603a2a95b78ec14be5d3", "blockhash": "00000000000000000018f53835495a110e01622372bf6ae95dc86f2b0ab887b0", "vout": [{"scriptPubKey": {"reqSigs": 1, "hex": "76a91460337c5bd92cca4c1b8e3ffb87a8b0ed36f6b82788ac", "addresses": ["19mfYiC4g9W8oVGPhyMUe1mpBy3xc4hVXL"], "asm": "OP_DUP OP_HASH160 60337c5bd92cca4c1b8e3ffb87a8b0ed36f6b827 OP_EQUALVERIFY OP_CHECKSIG", "type": "pubkeyhash"}, "value": 0.00646106, "n": 0}, {"scriptPubKey": {"type": "nulldata", "hex": "6a4c500000778300018d0e4b8480c3760be3482f9fbcbefa6b8351586b4e86aeaeacb577c031fcbf9685f44edba6d090cfe8b93772ae485baa0b330613e474811138c01d100759d4ba30d2c37bb011d97e02cf", "asm": "OP_RETURN 0000778300018d0e4b8480c3760be3482f9fbcbefa6b8351586b4e86aeaeacb577c031fcbf9685f44edba6d090cfe8b93772ae485baa0b330613e474811138c01d100759d4ba30d2c37bb011d97e02cf"}, "value": 0.0, "n": 1}], "hex": "010000000163a07d3a3c6152bc62712257ebb7745fc2332e44da222dc1fadb8da0099eb704010000006b4830450221008ba5a7e6816bd3c48022f19fa34ae61615f68145e00544255fcc8b08fe1ad99f02200aa5369566dd0c813afc1e6b67673b993345ab620a0731e64784ab39bddfbb87012102b9ce992e67262abb1b0e7c6d3c0550e19559556ad7c423a59a5848371b972551ffffffff02dadb0900000000001976a91460337c5bd92cca4c1b8e3ffb87a8b0ed36f6b82788ac0000000000000000536a4c500000778300018d0e4b8480c3760be3482f9fbcbefa6b8351586b4e86aeaeacb577c031fcbf9685f44edba6d090cfe8b93772ae485baa0b330613e474811138c01d100759d4ba30d2c37bb011d97e02cf00000000", "vin": [{"sequence": 4294967295, "scriptSig": {"hex": "4830450221008ba5a7e6816bd3c48022f19fa34ae61615f68145e00544255fcc8b08fe1ad99f02200aa5369566dd0c813afc1e6b67673b993345ab620a0731e64784ab39bddfbb87012102b9ce992e67262abb1b0e7c6d3c0550e19559556ad7c423a59a5848371b972551", "asm": "30450221008ba5a7e6816bd3c48022f19fa34ae61615f68145e00544255fcc8b08fe1ad99f02200aa5369566dd0c813afc1e6b67673b993345ab620a0731e64784ab39bddfbb87[ALL] 02b9ce992e67262abb1b0e7c6d3c0550e19559556ad7c423a59a5848371b972551"}, "vout": 1, "txid": "04b79e09a08ddbfac12d22da442e33c25f74b7eb57227162bc52613c3a7da063"}], "txid": "57e7cc770908324b1bc75ee7df1f7129026d2399249f603a2a95b78ec14be5d3", "blocktime": 1537870928, "version": 1, "confirmations": 11512, "time": 1537870928, "locktime": 0, "vsize": 284, "size": 284}