{"hash": "65ba256209a8fcefac2c7228ad7da0581ffbdb7e6429cf232612b8e24bd75eef", "blockhash": "0000000000000000001f0ddff1eddb255c1121bcd4da4f1bc9a0da00cae72433", "vout": [{"scriptPubKey": {"reqSigs": 1, "hex": "76a914749384752c719179a8ee7acafe073efd23e27b2188ac", "addresses": ["1BdQ6wdSkSrbHyzwGakB6XsejXKFaTbjGK"], "asm": "OP_DUP OP_HASH160 749384752c719179a8ee7acafe073efd23e27b21 OP_EQUALVERIFY OP_CHECKSIG", "type": "pubkeyhash"}, "value": 0.00143919, "n": 0}, {"scriptPubKey": {"reqSigs": 1, "hex": "a9140fabe9e57527aa806ddbc480ef3edd6fea31ad1287", "addresses": ["337t1C4bB64hL6Z7S55CJxtKmRXwmnMBWd"], "asm": "OP_HASH160 0fabe9e57527aa806ddbc480ef3edd6fea31ad12 OP_EQUAL", "type": "scripthash"}, "value": 0.00076589, "n": 1}], "hex": "0200000000010105e29ecdccf3d5a5fc495cb8680bf25968a3960d521220fac8cd5557ba033c540100000017160014de83e2ef397196e9f5734183666c3ba5d0ce636bfeffffff022f320200000000001976a914749384752c719179a8ee7acafe073efd23e27b2188ac2d2b01000000000017a9140fabe9e57527aa806ddbc480ef3edd6fea31ad128702473044022028d281494bcda66f1f757872e6ac71ababaf6b7199cad129ec32a6b1d6baf7cd02205e71366f9e85989b518cca415836a4982a326a62c8fcc05c7da2a52f4524f78b012103b7651cf3edaa74e72ba87ef2fe872793ed28a4110ad27b9fb335b51008446cb2f2480800", "vin": [{"txinwitness": ["3044022028d281494bcda66f1f757872e6ac71ababaf6b7199cad129ec32a6b1d6baf7cd02205e71366f9e85989b518cca415836a4982a326a62c8fcc05c7da2a52f4524f78b01", "03b7651cf3edaa74e72ba87ef2fe872793ed28a4110ad27b9fb335b51008446cb2"], "sequence": 4294967294, "scriptSig": {"hex": "160014de83e2ef397196e9f5734183666c3ba5d0ce636b", "asm": "0014de83e2ef397196e9f5734183666c3ba5d0ce636b"}, "vout": 1, "txid": "543c03ba5755cdc8fa2012520d96a36859f20b68b85c49fca5d5f3cccd9ee205"}], "txid": "57e824ea9ed122c6c3c7520bb8da5541e14e40342229401fd653ee604b78c1a8", "blocktime": 1537872018, "version": 2, "confirmations": 11489, "time": 1537872018, "locktime": 542962, "vsize": 168, "size": 249}