{"hash": "57ecc4a79ce874dfaa6726e0025d1b83d66b4d51ac4271f8e23788fc9e32a542", "blockhash": "0000000000000000001cda96e906b7601b7a6fb1a3b62bca570a9e5d8f4b3de1", "vout": [{"scriptPubKey": {"reqSigs": 1, "hex": "a914cab20e1f4920a8c41da0e53301396f6a244f851f87", "addresses": ["3LAminP5SCgbUgfuvhoAAuHXPLjwETnLMm"], "asm": "OP_HASH160 cab20e1f4920a8c41da0e53301396f6a244f851f OP_EQUAL", "type": "scripthash"}, "value": 0.01776279, "n": 0}, {"scriptPubKey": {"reqSigs": 1, "hex": "76a9149bb40bc07322233dd3016f8f34d5424caef04e7e88ac", "addresses": ["1FCHRYU4XFUtfwqZd97iY6RiUsjEQpmdxd"], "asm": "OP_DUP OP_HASH160 9bb40bc07322233dd3016f8f34d5424caef04e7e OP_EQUALVERIFY OP_CHECKSIG", "type": "pubkeyhash"}, "value": 0.00299955, "n": 1}], "hex": "01000000019c113d139fc705a40dc9a358eb0034fc0956b4d4025d7f3daca5b7f3b6da31a4020000006b483045022100d9b37519a9322d9576f46ec7e9508f6be578c8d270f9789916559d3863ec71f6022073c095f58da83b286e2a788aae0ff3df4d720a7b0f59d47f265a22e946d12858012103a754c78de733da4cd1bf38fae8f96110431f72ccb19534156f036321dc622c79ffffffff02971a1b000000000017a914cab20e1f4920a8c41da0e53301396f6a244f851f87b3930400000000001976a9149bb40bc07322233dd3016f8f34d5424caef04e7e88ac00000000", "vin": [{"sequence": 4294967295, "scriptSig": {"hex": "483045022100d9b37519a9322d9576f46ec7e9508f6be578c8d270f9789916559d3863ec71f6022073c095f58da83b286e2a788aae0ff3df4d720a7b0f59d47f265a22e946d12858012103a754c78de733da4cd1bf38fae8f96110431f72ccb19534156f036321dc622c79", "asm": "3045022100d9b37519a9322d9576f46ec7e9508f6be578c8d270f9789916559d3863ec71f6022073c095f58da83b286e2a788aae0ff3df4d720a7b0f59d47f265a22e946d12858[ALL] 03a754c78de733da4cd1bf38fae8f96110431f72ccb19534156f036321dc622c79"}, "vout": 2, "txid": "a431dab6f3b7a5ac3d7f5d02d4b45609fc3400eb58a3c90da405c79f133d119c"}], "txid": "57ecc4a79ce874dfaa6726e0025d1b83d66b4d51ac4271f8e23788fc9e32a542", "blocktime": 1537873282, "version": 1, "confirmations": 11483, "time": 1537873282, "locktime": 0, "vsize": 224, "size": 224}