{"hash": "afdc904de35fd984a2be7164ceff641c9210805e2da7fb66c2c474d0e7855c3f", "blockhash": "0000000000000000001f76057863aec43deb6fa401d9628bb513d65a8098bfab", "vout": [{"scriptPubKey": {"reqSigs": 1, "hex": "a914a6555c89386e93027ced04b5f224a80f8a63b09e87", "addresses": ["3GrWMQXVwPQqRZmQRZkfAigcoW89XHiUY4"], "asm": "OP_HASH160 a6555c89386e93027ced04b5f224a80f8a63b09e OP_EQUAL", "type": "scripthash"}, "value": 0.14702, "n": 0}, {"scriptPubKey": {"reqSigs": 1, "hex": "a91432ffca811e4edbd0ea12362745d94d087203956687", "addresses": ["36Lg8oohX6oLNVAHRGwJsrneCq5CED3wPo"], "asm": "OP_HASH160 32ffca811e4edbd0ea12362745d94d0872039566 OP_EQUAL", "type": "scripthash"}, "value": 0.00995952, "n": 1}], "hex": "02000000000103209f22f329ac910c8a679f4edea34a85faf908fdd8a6d748c78b8bf715aa68a20d0000006a4730440220762c7195450ba3b73204b63e5386d3ea3c932f6f99a78d2f30c78e7b2ebf935e0220073e602e4fd63f0afb3a2d3418c8e44f8c3ff911d1a7102a8e63e7125f97a5570121020c888d5002f181593b147a41b741080a3f39533fbba06b30dbe5400807443ff7feffffff6e9feb07c640eb6843e9c6544e3978281660c851c91582cfa938c28167b53147010000001716001479cec9b87024b289c093712b2bac5703ef23fdd1feffffff7b4dcc68ef7d7a36bb5f0b6a391ca4d2eae0e4ff8dbe7ef626e1b8ad7836062f08000000171600142db2a47bbde6bbd32cbc943ccf33887be78f02defeffffff02b055e0000000000017a914a6555c89386e93027ced04b5f224a80f8a63b09e8770320f000000000017a91432ffca811e4edbd0ea12362745d94d08720395668700024830450221008ae54723325884b8b29ad80b561f36c4cd133bdde78c33b2bcedc5da70250e60022002698c1ea7ac91b3d78998800db8f5633c74991d30c8f4bd998c7d01761053f9012103b7a753331dc5aa5f4987061f828db6ac66b6d5b98835b87bab32a25feec906ef0247304402200e47f9995c9c64b443bc2ef1b9b571cb809f6e7229d8af6a61f359b32fdbe6850220559478a189bf5adb8ad62950e51e3769ee7fc5e5b28f7fda2dfcd47d3cf3976c01210336980cb7c6484d82592acc9c739bd629cf2189d548009ec27935e3fdbc346b1cd6480800", "vin": [{"sequence": 4294967294, "scriptSig": {"hex": "4730440220762c7195450ba3b73204b63e5386d3ea3c932f6f99a78d2f30c78e7b2ebf935e0220073e602e4fd63f0afb3a2d3418c8e44f8c3ff911d1a7102a8e63e7125f97a5570121020c888d5002f181593b147a41b741080a3f39533fbba06b30dbe5400807443ff7", "asm": "30440220762c7195450ba3b73204b63e5386d3ea3c932f6f99a78d2f30c78e7b2ebf935e0220073e602e4fd63f0afb3a2d3418c8e44f8c3ff911d1a7102a8e63e7125f97a557[ALL] 020c888d5002f181593b147a41b741080a3f39533fbba06b30dbe5400807443ff7"}, "vout": 13, "txid": "a268aa15f78b8bc748d7a6d8fd08f9fa854aa3de4e9f678a0c91ac29f3229f20"}, {"txinwitness": ["30450221008ae54723325884b8b29ad80b561f36c4cd133bdde78c33b2bcedc5da70250e60022002698c1ea7ac91b3d78998800db8f5633c74991d30c8f4bd998c7d01761053f901", "03b7a753331dc5aa5f4987061f828db6ac66b6d5b98835b87bab32a25feec906ef"], "sequence": 4294967294, "scriptSig": {"hex": "16001479cec9b87024b289c093712b2bac5703ef23fdd1", "asm": "001479cec9b87024b289c093712b2bac5703ef23fdd1"}, "vout": 1, "txid": "4731b56781c238a9cf8215c951c860162878394e54c6e94368eb40c607eb9f6e"}, {"txinwitness": ["304402200e47f9995c9c64b443bc2ef1b9b571cb809f6e7229d8af6a61f359b32fdbe6850220559478a189bf5adb8ad62950e51e3769ee7fc5e5b28f7fda2dfcd47d3cf3976c01", "0336980cb7c6484d82592acc9c739bd629cf2189d548009ec27935e3fdbc346b1c"], "sequence": 4294967294, "scriptSig": {"hex": "1600142db2a47bbde6bbd32cbc943ccf33887be78f02de", "asm": "00142db2a47bbde6bbd32cbc943ccf33887be78f02de"}, "vout": 8, "txid": "2f063678adb8e126f67ebe8dffe4e0ead2a41c396a0b5fbb367a7def68cc4d7b"}], "txid": "57f039f2a415faeca4880de558f482cac29a70da365c17325ea25f365678c077", "blocktime": 1537873891, "version": 2, "confirmations": 11475, "time": 1537873891, "locktime": 542934, "vsize": 404, "size": 567}