{"hash": "7d9962447e14ed61f67c8f471ad7ccd9223bf25fff208ed5c2f5fcdf4a70406f", "blockhash": "0000000000000000001f76057863aec43deb6fa401d9628bb513d65a8098bfab", "vout": [{"scriptPubKey": {"reqSigs": 1, "hex": "76a914eddfb9395db2e6affa76766037458aec634cff2e88ac", "addresses": ["1NgmA3k7ak5B7WydLVVsmQE7dDb7uSwh3W"], "asm": "OP_DUP OP_HASH160 eddfb9395db2e6affa76766037458aec634cff2e OP_EQUALVERIFY OP_CHECKSIG", "type": "pubkeyhash"}, "value": 0.07020701, "n": 0}, {"scriptPubKey": {"reqSigs": 1, "hex": "a91443fdecd1a51b0d3b5202abae92ae345d0c4e0b5287", "addresses": ["37tXPRJZofdNVPWcazyjHGnMivm9syV13W"], "asm": "OP_HASH160 43fdecd1a51b0d3b5202abae92ae345d0c4e0b52 OP_EQUAL", "type": "scripthash"}, "value": 0.04122279, "n": 1}], "hex": "01000000000101f9d2dbdba3ce2443f0eda3c981d19393f41411833bf89cfeffe9560be7224bc70000000023220020f13e8733f2ff770cdd9ce4388ef98c8b1645d20c60772b2d543a0604b733b9cdffffffff029d206b00000000001976a914eddfb9395db2e6affa76766037458aec634cff2e88aca7e63e000000000017a91443fdecd1a51b0d3b5202abae92ae345d0c4e0b5287040047304402200782e3ba129b3f6787af71c2f1eaa231bb1c9eed7cc51d48f0800cdda1da47f702200531bd4e7909cbf381e10c5e31abd84591e064aa79b57c0f68e5154f31e1952001483045022100eedbdd3f47789dcc18ab88c2a6b8f184bbbb74f7f8bdfc8d97e24034c0b942b7022012b05f077774b1f316b1e741eb65966b2df6ae24b46a3aadd4db8c1a3f25a5fd016952210325f5be00654707438ff44cb9df7f4a22848b99a53ad3dcceb237187fadc8be8c2102e873068cd8efe9f01a4b3573770940d684c29ee6e685ea5fcfd2ba2d92d540ff2103222031ac649af3768668204681b839242eabddb2d1b27d324024e64bec9d445d53ae00000000", "vin": [{"txinwitness": ["", "304402200782e3ba129b3f6787af71c2f1eaa231bb1c9eed7cc51d48f0800cdda1da47f702200531bd4e7909cbf381e10c5e31abd84591e064aa79b57c0f68e5154f31e1952001", "3045022100eedbdd3f47789dcc18ab88c2a6b8f184bbbb74f7f8bdfc8d97e24034c0b942b7022012b05f077774b1f316b1e741eb65966b2df6ae24b46a3aadd4db8c1a3f25a5fd01", "52210325f5be00654707438ff44cb9df7f4a22848b99a53ad3dcceb237187fadc8be8c2102e873068cd8efe9f01a4b3573770940d684c29ee6e685ea5fcfd2ba2d92d540ff2103222031ac649af3768668204681b839242eabddb2d1b27d324024e64bec9d445d53ae"], "sequence": 4294967295, "scriptSig": {"hex": "220020f13e8733f2ff770cdd9ce4388ef98c8b1645d20c60772b2d543a0604b733b9cd", "asm": "0020f13e8733f2ff770cdd9ce4388ef98c8b1645d20c60772b2d543a0604b733b9cd"}, "vout": 0, "txid": "c74b22e70b56e9fffe9cf83b831114f49393d181c9a3edf04324cea3dbdbd2f9"}], "txid": "57f2414ea2f61bf507d0d70b56dc934632ec60617b21f3ed0693c9395153a521", "blocktime": 1537873891, "version": 1, "confirmations": 11478, "time": 1537873891, "locktime": 0, "vsize": 216, "size": 407}