{"hash": "57f317c9c7ba0a92f6c2191d04f4a8967de49a5debc13af2b22ea5280d104d26", "blockhash": "000000000000000000022b45ed06c6f4ccd3cf7fb5ba4856ebd2e58215665228", "vout": [{"scriptPubKey": {"reqSigs": 1, "hex": "76a914464d1d652e0696f8f07bf652b356190fa9f2435488ac", "addresses": ["17QigTgpPdDazSWukQdTXTdukrUfhXXw9D"], "asm": "OP_DUP OP_HASH160 464d1d652e0696f8f07bf652b356190fa9f24354 OP_EQUALVERIFY OP_CHECKSIG", "type": "pubkeyhash"}, "value": 0.00499387, "n": 0}, {"scriptPubKey": {"type": "nulldata", "hex": "6a146f6d6e69000000000000001f000000025ff7a600", "asm": "OP_RETURN 6f6d6e69000000000000001f000000025ff7a600"}, "value": 0.0, "n": 1}, {"scriptPubKey": {"reqSigs": 1, "hex": "76a914a25dec4d0011064ef106a983c39c7a540699f22088ac", "addresses": ["1FoWyxwPXuj4C6abqwhjDWdz6D4PZgYRjA"], "asm": "OP_DUP OP_HASH160 a25dec4d0011064ef106a983c39c7a540699f220 OP_EQUALVERIFY OP_CHECKSIG", "type": "pubkeyhash"}, "value": 5.46e-06, "n": 2}], "hex": "010000000254c46788dbeaee78f901c7f98d53cbfbbf7afbc09dcf95eb60f0312497d333fb010000006a473044022062a1120740522c860385c00e3173f8d2706eeb871c877f33ecd91dd53f88069802204a19aec14f16a285d42bdd2b596a8f701e59eb0c565387aca9712219c8f3ca7701210316dc487975538e6c723c48e04b7fefaeabfcb6aff880634cf9138d70513692cefeffffff912557e17582ceb1e81d6f8ffb4f018df417ac78d3254cd8c0dfa44a279b8e73050000006b483045022100e242855f1742e3e68d1cde550ccd129b0dfdd614724a034ca7adee2d6a319084022065c9bc0f79dbced408b8b6430b4d141b957a52e913fcaf32590ee1da02fb63f101210316dc487975538e6c723c48e04b7fefaeabfcb6aff880634cf9138d70513692cefeffffff03bb9e0700000000001976a914464d1d652e0696f8f07bf652b356190fa9f2435488ac0000000000000000166a146f6d6e69000000000000001f000000025ff7a60022020000000000001976a914a25dec4d0011064ef106a983c39c7a540699f22088ac0b490800", "vin": [{"sequence": 4294967294, "scriptSig": {"hex": "473044022062a1120740522c860385c00e3173f8d2706eeb871c877f33ecd91dd53f88069802204a19aec14f16a285d42bdd2b596a8f701e59eb0c565387aca9712219c8f3ca7701210316dc487975538e6c723c48e04b7fefaeabfcb6aff880634cf9138d70513692ce", "asm": "3044022062a1120740522c860385c00e3173f8d2706eeb871c877f33ecd91dd53f88069802204a19aec14f16a285d42bdd2b596a8f701e59eb0c565387aca9712219c8f3ca77[ALL] 0316dc487975538e6c723c48e04b7fefaeabfcb6aff880634cf9138d70513692ce"}, "vout": 1, "txid": "fb33d3972431f060eb95cf9dc0fb7abffbcb538df9c701f978eeeadb8867c454"}, {"sequence": 4294967294, "scriptSig": {"hex": "483045022100e242855f1742e3e68d1cde550ccd129b0dfdd614724a034ca7adee2d6a319084022065c9bc0f79dbced408b8b6430b4d141b957a52e913fcaf32590ee1da02fb63f101210316dc487975538e6c723c48e04b7fefaeabfcb6aff880634cf9138d70513692ce", "asm": "3045022100e242855f1742e3e68d1cde550ccd129b0dfdd614724a034ca7adee2d6a319084022065c9bc0f79dbced408b8b6430b4d141b957a52e913fcaf32590ee1da02fb63f1[ALL] 0316dc487975538e6c723c48e04b7fefaeabfcb6aff880634cf9138d70513692ce"}, "vout": 5, "txid": "738e9b274aa4dfc0d84c25d378ac17f48d014ffb8f6f1de8b1ce8275e1572591"}], "txid": "57f317c9c7ba0a92f6c2191d04f4a8967de49a5debc13af2b22ea5280d104d26", "blocktime": 1537869901, "version": 1, "confirmations": 11524, "time": 1537869901, "locktime": 542987, "vsize": 404, "size": 404}