{"hash": "57f6fb517dfe2d562bef0e4493f856866c5d815f89faf6105e9b6b042cca5427", "blockhash": "00000000000000000018f53835495a110e01622372bf6ae95dc86f2b0ab887b0", "vout": [{"scriptPubKey": {"reqSigs": 1, "hex": "76a9147db9d89746d26beaf4155149a3cec9b4c80fa0db88ac", "addresses": ["1CTn6nnEpGfhN3oYBjtckLB6avznpc3xZj"], "asm": "OP_DUP OP_HASH160 7db9d89746d26beaf4155149a3cec9b4c80fa0db OP_EQUALVERIFY OP_CHECKSIG", "type": "pubkeyhash"}, "value": 7.82e-06, "n": 0}, {"scriptPubKey": {"reqSigs": 1, "hex": "a914b61dbab9b401849746f5501b50b187bef21d7f3f87", "addresses": ["3JHxX6GD6woKknETCe2aJnWrsZVsqTbLuN"], "asm": "OP_HASH160 b61dbab9b401849746f5501b50b187bef21d7f3f OP_EQUAL", "type": "scripthash"}, "value": 0.02117719, "n": 1}], "hex": "020000000138d66fa790d7c20046dd9dcf475960aaeb1c698184fcec4155cab6a6fb6e5262000000006b483045022100b1a41144ca2d18e368bef327651de9ff33f84403d5340ab39716d9bd97b9c8c1022052a137a343812ebc81e16a4988cc5f14047feb00bbc6c1f865d1a9925f95961a012102a331ab9d5aed645a8d095967258a81b538238139793de666252551504936c1b0feffffff020e030000000000001976a9147db9d89746d26beaf4155149a3cec9b4c80fa0db88ac575020000000000017a914b61dbab9b401849746f5501b50b187bef21d7f3f870e490800", "vin": [{"sequence": 4294967294, "scriptSig": {"hex": "483045022100b1a41144ca2d18e368bef327651de9ff33f84403d5340ab39716d9bd97b9c8c1022052a137a343812ebc81e16a4988cc5f14047feb00bbc6c1f865d1a9925f95961a012102a331ab9d5aed645a8d095967258a81b538238139793de666252551504936c1b0", "asm": "3045022100b1a41144ca2d18e368bef327651de9ff33f84403d5340ab39716d9bd97b9c8c1022052a137a343812ebc81e16a4988cc5f14047feb00bbc6c1f865d1a9925f95961a[ALL] 02a331ab9d5aed645a8d095967258a81b538238139793de666252551504936c1b0"}, "vout": 0, "txid": "62526efba6b6ca5541ecfc8481691cebaa605947cf9ddd4600c2d790a76fd638"}], "txid": "57f6fb517dfe2d562bef0e4493f856866c5d815f89faf6105e9b6b042cca5427", "blocktime": 1537870928, "version": 2, "confirmations": 11514, "time": 1537870928, "locktime": 542990, "vsize": 224, "size": 224}