{"hash": "9f4ccf87d388daa518380bbc9a3e49aebb9506fa211a0ad15bf43a6dcfc15258", "blockhash": "00000000000000000018f53835495a110e01622372bf6ae95dc86f2b0ab887b0", "vout": [{"scriptPubKey": {"reqSigs": 1, "hex": "002058c8797f181e000075cb9a18a9662013b795012e86acc04d56a2d229e7b8d7c4", "addresses": ["bc1qtry8jlccrcqqqawtngv2je3qzwme2qfws6kvqn2k5tfzneac6lzqpgummp"], "asm": "0 58c8797f181e000075cb9a18a9662013b795012e86acc04d56a2d229e7b8d7c4", "type": "witness_v0_scripthash"}, "value": 0.16409221, "n": 0}], "hex": "01000000000101023d56885ca3cc39c9ee4d3d97100c714a8681882c41235a273ae550cd1b66670b00000017160014aa353a972f3028c5fd39e28727adfa5451218c76ffffffff018562fa000000000022002058c8797f181e000075cb9a18a9662013b795012e86acc04d56a2d229e7b8d7c402473044022072568dabd98ce5dad59d8c7f1ee5c52dad5c33922ccfed6bfee0d4f00a581f6d02204618ca9db50cb94a2160e8ad3f95efc79b5684c0b168e32d7a4afefa0537e9140121020230e037c27720260bd777db1f33668a8aacdb876b8185b2f683ea46755d287800000000", "vin": [{"txinwitness": ["3044022072568dabd98ce5dad59d8c7f1ee5c52dad5c33922ccfed6bfee0d4f00a581f6d02204618ca9db50cb94a2160e8ad3f95efc79b5684c0b168e32d7a4afefa0537e91401", "020230e037c27720260bd777db1f33668a8aacdb876b8185b2f683ea46755d2878"], "sequence": 4294967295, "scriptSig": {"hex": "160014aa353a972f3028c5fd39e28727adfa5451218c76", "asm": "0014aa353a972f3028c5fd39e28727adfa5451218c76"}, "vout": 11, "txid": "67661bcd50e53a275a23412c8881864a710c10973d4deec939cca35c88563d02"}], "txid": "57fe58aef8333f33356ccc110ccd8e0ae5a30f38ebd3bf6f9ebe1586b98dd9b3", "blocktime": 1537870928, "version": 1, "confirmations": 11514, "time": 1537870928, "locktime": 0, "vsize": 145, "size": 226}