{"hash": "b6394d8f8cfca41bbded979cf6b8cd9c47d3b9c251ee2ed6ec9f3d229a4112c6", "blockhash": "00000000000000000018f53835495a110e01622372bf6ae95dc86f2b0ab887b0", "vout": [{"scriptPubKey": {"reqSigs": 1, "hex": "0014c4bd396fd2ec5545daf8860494276896541998eb", "addresses": ["bc1qcj7njm7ja325tkhcsczfgfmgje2pnx8tz07ltp"], "asm": "0 c4bd396fd2ec5545daf8860494276896541998eb", "type": "witness_v0_keyhash"}, "value": 0.00024717, "n": 0}, {"scriptPubKey": {"reqSigs": 1, "hex": "76a9145e9499deabc8fef7aa3a8bd57fa016f23246e6dd88ac", "addresses": ["19d6Y1q6PFMdgZiJTSJCvazLjwaEQzdiKA"], "asm": "OP_DUP OP_HASH160 5e9499deabc8fef7aa3a8bd57fa016f23246e6dd OP_EQUALVERIFY OP_CHECKSIG", "type": "pubkeyhash"}, "value": 0.0016, "n": 1}], "hex": "0100000000010113ef6c132391c3ccb430f8742983cb74b061da47045cde783ebfc5fbb40e62670000000017160014a09a0d532ffee0408e05bbaaac165e6796b31847ffffffff028d60000000000000160014c4bd396fd2ec5545daf8860494276896541998eb00710200000000001976a9145e9499deabc8fef7aa3a8bd57fa016f23246e6dd88ac0248304502210099c55a28a65e030799be4a3ae7eafa213ab761e14a28ed5f55bd93a8b97130cf02204295960c1a7807ce1760b0ba1a2be293698f3d31ffbce2b6923dbc34a59e4e02012103d14b01f65eaba560e3ede6ace41904b7ebb9a65e4f2ae7e3256174314f6a3a2000000000", "vin": [{"txinwitness": ["304502210099c55a28a65e030799be4a3ae7eafa213ab761e14a28ed5f55bd93a8b97130cf02204295960c1a7807ce1760b0ba1a2be293698f3d31ffbce2b6923dbc34a59e4e0201", "03d14b01f65eaba560e3ede6ace41904b7ebb9a65e4f2ae7e3256174314f6a3a20"], "sequence": 4294967295, "scriptSig": {"hex": "160014a09a0d532ffee0408e05bbaaac165e6796b31847", "asm": "0014a09a0d532ffee0408e05bbaaac165e6796b31847"}, "vout": 0, "txid": "67620eb4fbc5bf3e78de5c0447da61b074cb832974f830b4ccc39123136cef13"}], "txid": "5803e1cfe8b40cf44fdb2a78c83afe2b5709550e2068c11cd4a65f9e9c03040d", "blocktime": 1537870928, "version": 1, "confirmations": 11514, "time": 1537870928, "locktime": 0, "vsize": 167, "size": 249}