{"hash": "5804b4998742d22356aae9d7f35ff21302b23f8127240afa9d1b7c0437fe20b9", "blockhash": "0000000000000000001f76057863aec43deb6fa401d9628bb513d65a8098bfab", "vout": [{"scriptPubKey": {"reqSigs": 1, "hex": "a914b4d38fe1b585005c1e22f5265954baec9a230e7d87", "addresses": ["3JB8zfJvTN2XbxQvJq5vhE1VZEG6CuiGWM"], "asm": "OP_HASH160 b4d38fe1b585005c1e22f5265954baec9a230e7d OP_EQUAL", "type": "scripthash"}, "value": 0.00105, "n": 0}, {"scriptPubKey": {"reqSigs": 1, "hex": "a9148d2aeadec96658493dd9fd321311f84c0693089c87", "addresses": ["3EZScYpMgK1WNF2DKXp8a2nMNskyXoGPNP"], "asm": "OP_HASH160 8d2aeadec96658493dd9fd321311f84c0693089c OP_EQUAL", "type": "scripthash"}, "value": 0.01917489, "n": 1}, {"scriptPubKey": {"reqSigs": 1, "hex": "a91491e422402a0f337a11f942588afa2f6c191e46fd87", "addresses": ["3EzRCNaewTRWD8DRqdVh3ocG8XmprjQP3k"], "asm": "OP_HASH160 91e422402a0f337a11f942588afa2f6c191e46fd OP_EQUAL", "type": "scripthash"}, "value": 0.0985, "n": 2}, {"scriptPubKey": {"reqSigs": 1, "hex": "76a914d3dca5371c65155c79e4ca651a26b0972fe15f5f88ac", "addresses": ["1LKDuBkq6g35d6J7tfjKgGdmSngmtLp2LM"], "asm": "OP_DUP OP_HASH160 d3dca5371c65155c79e4ca651a26b0972fe15f5f OP_EQUALVERIFY OP_CHECKSIG", "type": "pubkeyhash"}, "value": 0.1557, "n": 3}, {"scriptPubKey": {"reqSigs": 1, "hex": "76a91453f3fa8652b7a6b2af5cc42bdc71624ed956dd6a88ac", "addresses": ["18euMrUmRRX7E4hciWK8DFZ23mTjDBYhaZ"], "asm": "OP_DUP OP_HASH160 53f3fa8652b7a6b2af5cc42bdc71624ed956dd6a OP_EQUALVERIFY OP_CHECKSIG", "type": "pubkeyhash"}, "value": 0.1558, "n": 4}, {"scriptPubKey": {"reqSigs": 1, "hex": "a91469f376f4556a671b5a24276d8497e7bead01dc8d87", "addresses": ["3BMEXub2mVdGGtjCRM6qCL6iQfijxewvjS"], "asm": "OP_HASH160 69f376f4556a671b5a24276d8497e7bead01dc8d OP_EQUAL", "type": "scripthash"}, "value": 0.7399642, "n": 5}, {"scriptPubKey": {"reqSigs": 1, "hex": "76a91443849383122ebb8a28268a89700c9f723663b5b888ac", "addresses": ["17A16QmavnUfCW11DAApiJxp7ARnxN5pGX"], "asm": "OP_DUP OP_HASH160 43849383122ebb8a28268a89700c9f723663b5b8 OP_EQUALVERIFY OP_CHECKSIG", "type": "pubkeyhash"}, "value": 130.99919706, "n": 6}], "hex": "0200000001e31ea6a575bcaa5d96d87d4cb94bebd6343b1efcefe178a8576a7a557fc81dc6010000008a47304402202361408c3f78efc8ac1e10a86fd19e8b4dcd17c90aaaf6f99b4d5c231bf1754502204d00fb1f2c230ad6af13996c228752fa24bce317d70ac8842ac7561c2b240b160141047146f0e0fcb3139947cf0beb870fe251930ca10d4545793d31033e801b5219abf56c11a3cf3406ca590e4c14b0dab749d20862b3adc4709153c280c2a78be10cffffffff07289a01000000000017a914b4d38fe1b585005c1e22f5265954baec9a230e7d8731421d000000000017a9148d2aeadec96658493dd9fd321311f84c0693089c87904c96000000000017a91491e422402a0f337a11f942588afa2f6c191e46fd875094ed00000000001976a914d3dca5371c65155c79e4ca651a26b0972fe15f5f88ac60bbed00000000001976a91453f3fa8652b7a6b2af5cc42bdc71624ed956dd6a88ac841869040000000017a91469f376f4556a671b5a24276d8497e7bead01dc8d875ae9d00c030000001976a91443849383122ebb8a28268a89700c9f723663b5b888ac00000000", "vin": [{"sequence": 4294967295, "scriptSig": {"hex": "47304402202361408c3f78efc8ac1e10a86fd19e8b4dcd17c90aaaf6f99b4d5c231bf1754502204d00fb1f2c230ad6af13996c228752fa24bce317d70ac8842ac7561c2b240b160141047146f0e0fcb3139947cf0beb870fe251930ca10d4545793d31033e801b5219abf56c11a3cf3406ca590e4c14b0dab749d20862b3adc4709153c280c2a78be10c", "asm": "304402202361408c3f78efc8ac1e10a86fd19e8b4dcd17c90aaaf6f99b4d5c231bf1754502204d00fb1f2c230ad6af13996c228752fa24bce317d70ac8842ac7561c2b240b16[ALL] 047146f0e0fcb3139947cf0beb870fe251930ca10d4545793d31033e801b5219abf56c11a3cf3406ca590e4c14b0dab749d20862b3adc4709153c280c2a78be10c"}, "vout": 1, "txid": "c61dc87f557a6a57a878e1effc1e3b34d6eb4bb94c7dd8965daabc75a5a61ee3"}], "txid": "5804b4998742d22356aae9d7f35ff21302b23f8127240afa9d1b7c0437fe20b9", "blocktime": 1537873891, "version": 2, "confirmations": 11474, "time": 1537873891, "locktime": 0, "vsize": 419, "size": 419}