{"hash": "58088742fa3ce748492a58470150dd2e12c5e5233165f53986500d81c761ec53", "blockhash": "000000000000000000022b45ed06c6f4ccd3cf7fb5ba4856ebd2e58215665228", "vout": [{"scriptPubKey": {"type": "nulldata", "hex": "6a4c50000077620001ab72021cbf7a9755e6aa0aff86aeaeacb577c031fc3a016b46dc7dc7d0965ece4a7c5dd9de064fcf302c11a0c4e25baa07b906127d475b09230fbc9a9526289ac0f6612cd74e33776ee4", "asm": "OP_RETURN 000077620001ab72021cbf7a9755e6aa0aff86aeaeacb577c031fc3a016b46dc7dc7d0965ece4a7c5dd9de064fcf302c11a0c4e25baa07b906127d475b09230fbc9a9526289ac0f6612cd74e33776ee4"}, "value": 0.0, "n": 0}, {"scriptPubKey": {"reqSigs": 1, "hex": "76a9140babe3971c736fc52904c61bbc3cd6d77b60463e88ac", "addresses": ["124iMAoJ7y6wULs5T3u6H6rwwgxG4umH49"], "asm": "OP_DUP OP_HASH160 0babe3971c736fc52904c61bbc3cd6d77b60463e OP_EQUALVERIFY OP_CHECKSIG", "type": "pubkeyhash"}, "value": 0.0010978, "n": 1}], "hex": "01000000019023b8965db1d0b5b35eadbba37195ad12eb264cc711737e794a71cca18d4bef000000006b483045022100e61d8ae22dd8e876ee276c0dd3ad1148ca876b213d2a3d6c91762e883412f6e0022027452943743b2ffabd98ad311b2aa4bf1456fd83380a7ef257057be7951199170121037a39e25defbc958a61bc5be249f9ccf9fdceb10fba9c84fd2e93750fccd80f62ffffffff020000000000000000536a4c50000077620001ab72021cbf7a9755e6aa0aff86aeaeacb577c031fc3a016b46dc7dc7d0965ece4a7c5dd9de064fcf302c11a0c4e25baa07b906127d475b09230fbc9a9526289ac0f6612cd74e33776ee4d4ac0100000000001976a9140babe3971c736fc52904c61bbc3cd6d77b60463e88ac00000000", "vin": [{"sequence": 4294967295, "scriptSig": {"hex": "483045022100e61d8ae22dd8e876ee276c0dd3ad1148ca876b213d2a3d6c91762e883412f6e0022027452943743b2ffabd98ad311b2aa4bf1456fd83380a7ef257057be7951199170121037a39e25defbc958a61bc5be249f9ccf9fdceb10fba9c84fd2e93750fccd80f62", "asm": "3045022100e61d8ae22dd8e876ee276c0dd3ad1148ca876b213d2a3d6c91762e883412f6e0022027452943743b2ffabd98ad311b2aa4bf1456fd83380a7ef257057be795119917[ALL] 037a39e25defbc958a61bc5be249f9ccf9fdceb10fba9c84fd2e93750fccd80f62"}, "vout": 0, "txid": "ef4b8da1cc714a797e7311c74c26eb12ad9571a3bbad5eb3b5d0b15d96b82390"}], "txid": "58088742fa3ce748492a58470150dd2e12c5e5233165f53986500d81c761ec53", "blocktime": 1537869901, "version": 1, "confirmations": 11523, "time": 1537869901, "locktime": 0, "vsize": 284, "size": 284}