{"hash": "58090081d8492c9b6ddc3a34501224e893819ee4db715012aaf0c22573b467ae", "blockhash": "0000000000000000001f0ddff1eddb255c1121bcd4da4f1bc9a0da00cae72433", "vout": [{"scriptPubKey": {"reqSigs": 1, "hex": "76a91403cfe6ef14589f3ab1986926f6c49e156394feaf88ac", "addresses": ["1MA5sD1avn2QXNRqUWCERy36HrbrVco8q"], "asm": "OP_DUP OP_HASH160 03cfe6ef14589f3ab1986926f6c49e156394feaf OP_EQUALVERIFY OP_CHECKSIG", "type": "pubkeyhash"}, "value": 0.03862963, "n": 0}, {"scriptPubKey": {"reqSigs": 1, "hex": "76a914d4704a60a5aa6ecf0799996dc5ae67411a86a93b88ac", "addresses": ["1LNGmkaZJELio9JznreBwoxhexFMrtTa3r"], "asm": "OP_DUP OP_HASH160 d4704a60a5aa6ecf0799996dc5ae67411a86a93b OP_EQUALVERIFY OP_CHECKSIG", "type": "pubkeyhash"}, "value": 0.13762611, "n": 1}], "hex": "0100000001e0deb58896eb1e8e18b065c02b261b83fdaf2a4e0dea6f5755a892c2806d3f5e000000006b483045022100973dc232b5cae4ec88320424fbb798e31c706924983c47c2b4735a3da738076b022050826c6f3b05db3c4710dbd7adb85a020b3013f8f69d385f42fbeaa562826eba01210290c943c83a5930e8e7a86585bfbc729b996796ea80bffa5fb27e71e28e30f4affdffffff02b3f13a00000000001976a91403cfe6ef14589f3ab1986926f6c49e156394feaf88ac3300d200000000001976a914d4704a60a5aa6ecf0799996dc5ae67411a86a93b88ac11490800", "vin": [{"sequence": 4294967293, "scriptSig": {"hex": "483045022100973dc232b5cae4ec88320424fbb798e31c706924983c47c2b4735a3da738076b022050826c6f3b05db3c4710dbd7adb85a020b3013f8f69d385f42fbeaa562826eba01210290c943c83a5930e8e7a86585bfbc729b996796ea80bffa5fb27e71e28e30f4af", "asm": "3045022100973dc232b5cae4ec88320424fbb798e31c706924983c47c2b4735a3da738076b022050826c6f3b05db3c4710dbd7adb85a020b3013f8f69d385f42fbeaa562826eba[ALL] 0290c943c83a5930e8e7a86585bfbc729b996796ea80bffa5fb27e71e28e30f4af"}, "vout": 0, "txid": "5e3f6d80c292a855576fea0d4e2aaffd831b262bc065b0188e1eeb9688b5dee0"}], "txid": "58090081d8492c9b6ddc3a34501224e893819ee4db715012aaf0c22573b467ae", "blocktime": 1537872018, "version": 1, "confirmations": 11489, "time": 1537872018, "locktime": 542993, "vsize": 226, "size": 226}