{"hash": "222da0cfe24ebeffbca2a61f46a4ffa7434583f65e96418542b3cdcccf49685e", "blockhash": "0000000000000000001e0dab787dd257d1dbfcb92a98c2207d5e1078be1f4165", "vout": [{"scriptPubKey": {"reqSigs": 1, "hex": "76a9148dce5fc1e415529841e6909824fe9dd3e626a72788ac", "addresses": ["1DvoWAnFa6f76tfTdUcuDP1yttsDhg2XCw"], "asm": "OP_DUP OP_HASH160 8dce5fc1e415529841e6909824fe9dd3e626a727 OP_EQUALVERIFY OP_CHECKSIG", "type": "pubkeyhash"}, "value": 0.0027456, "n": 0}, {"scriptPubKey": {"reqSigs": 1, "hex": "a914ddb6fa1b0d5bd9a8a09a87b599c019f2cafa16d887", "addresses": ["3MuLTQEZrWeqEdNCVBzrKgjS8g1SX3w9Ca"], "asm": "OP_HASH160 ddb6fa1b0d5bd9a8a09a87b599c019f2cafa16d8 OP_EQUAL", "type": "scripthash"}, "value": 0.00999514, "n": 1}], "hex": "02000000000102093503a18869faa9353069952992d17c9a0dd59de53240af23d702a0c51ef51608000000171600141acd955e82955e49f9c44fc7a6a841745f1e68edfeffffff5d933dbf070a4f14215a075015139d5ba005da00bd83ddec1a61b8d3b43613430100000017160014fed81700b95f4903c46373d6836302455897dba3feffffff0280300400000000001976a9148dce5fc1e415529841e6909824fe9dd3e626a72788ac5a400f000000000017a914ddb6fa1b0d5bd9a8a09a87b599c019f2cafa16d887024730440220322b21652fc5cd80136aedf8d3a4c62e6a978c78bc0ef30b7884ff8b48171ff002207a961455adf5b5fe2043fb9b76753cdd13c4cd1052ee05ab5e36f5c99af9a764012102921e60e9faa5c063a8b1c1928bc19226de6325738ebd5d536fd38880a20ab3cb02483045022100eb3bf28b25f73fc2997ca5ff2f55ed5813437ce196ea73a04ad2f3bd8fb5d0ec02205a858da46abb78242c74df2be00d39e916223a633bce6910018d07bb720e7d74012102b19d9bfedbd1e5c0e6a13b5545449735e2829e6767021de8eee3ef8c46c462f5e4480800", "vin": [{"txinwitness": ["30440220322b21652fc5cd80136aedf8d3a4c62e6a978c78bc0ef30b7884ff8b48171ff002207a961455adf5b5fe2043fb9b76753cdd13c4cd1052ee05ab5e36f5c99af9a76401", "02921e60e9faa5c063a8b1c1928bc19226de6325738ebd5d536fd38880a20ab3cb"], "sequence": 4294967294, "scriptSig": {"hex": "1600141acd955e82955e49f9c44fc7a6a841745f1e68ed", "asm": "00141acd955e82955e49f9c44fc7a6a841745f1e68ed"}, "vout": 8, "txid": "16f51ec5a002d723af4032e59dd50d9a7cd1922995693035a9fa6988a1033509"}, {"txinwitness": ["3045022100eb3bf28b25f73fc2997ca5ff2f55ed5813437ce196ea73a04ad2f3bd8fb5d0ec02205a858da46abb78242c74df2be00d39e916223a633bce6910018d07bb720e7d7401", "02b19d9bfedbd1e5c0e6a13b5545449735e2829e6767021de8eee3ef8c46c462f5"], "sequence": 4294967294, "scriptSig": {"hex": "160014fed81700b95f4903c46373d6836302455897dba3", "asm": "0014fed81700b95f4903c46373d6836302455897dba3"}, "vout": 1, "txid": "431336b4d3b8611aecdd83bd00da05a05b9d131550075a21144f0a07bf3d935d"}], "txid": "580b0e65eb188b9df2cfc7a124d792fb19f9e76a15043f8a4042f1db2e554372", "blocktime": 1537872475, "version": 2, "confirmations": 11487, "time": 1537872475, "locktime": 542948, "vsize": 259, "size": 421}