{"hash": "580c11ef96269c73c5091df3f66ff70e6cd92982f01ce2dda98be4237b04f610", "blockhash": "0000000000000000001e0dab787dd257d1dbfcb92a98c2207d5e1078be1f4165", "vout": [{"scriptPubKey": {"reqSigs": 1, "hex": "76a914f2495cb48fd1e0a425da9d2425880b781327947f88ac", "addresses": ["1P66QiMxUXCMP62T2WAi5Qeokfj5XWiGZq"], "asm": "OP_DUP OP_HASH160 f2495cb48fd1e0a425da9d2425880b781327947f OP_EQUALVERIFY OP_CHECKSIG", "type": "pubkeyhash"}, "value": 0.00125007, "n": 0}, {"scriptPubKey": {"reqSigs": 1, "hex": "76a914e7bfd702a0753e592a5f7a25a0dbb775db01598a88ac", "addresses": ["1N8NuajceKZ8JyaEdtP9s1ThGku6Y6rqEQ"], "asm": "OP_DUP OP_HASH160 e7bfd702a0753e592a5f7a25a0dbb775db01598a OP_EQUALVERIFY OP_CHECKSIG", "type": "pubkeyhash"}, "value": 0.00780186, "n": 1}], "hex": "01000000016c5dbff5b442e96021fa5e2b26d1a6e85abedf8d5c2a84fb2d68c02c6acd59e40b0000006a4730440220652c9ba089554a27289a8bce0f689a3e2512ff8149f6c98fc09beef5a82ecd03022078cccb6f92f4ac5e235cf0aaedb9c16db647a39ee68efe9201736f14350a808a012103fd2ebe6a6ccc0951815e5ec2171c5b4c7caafbdaea665b0e4aef5e7eeaa7186bffffffff024fe80100000000001976a914f2495cb48fd1e0a425da9d2425880b781327947f88ac9ae70b00000000001976a914e7bfd702a0753e592a5f7a25a0dbb775db01598a88ac00000000", "vin": [{"sequence": 4294967295, "scriptSig": {"hex": "4730440220652c9ba089554a27289a8bce0f689a3e2512ff8149f6c98fc09beef5a82ecd03022078cccb6f92f4ac5e235cf0aaedb9c16db647a39ee68efe9201736f14350a808a012103fd2ebe6a6ccc0951815e5ec2171c5b4c7caafbdaea665b0e4aef5e7eeaa7186b", "asm": "30440220652c9ba089554a27289a8bce0f689a3e2512ff8149f6c98fc09beef5a82ecd03022078cccb6f92f4ac5e235cf0aaedb9c16db647a39ee68efe9201736f14350a808a[ALL] 03fd2ebe6a6ccc0951815e5ec2171c5b4c7caafbdaea665b0e4aef5e7eeaa7186b"}, "vout": 11, "txid": "e459cd6a2cc0682dfb842a5c8ddfbe5ae8a6d1262b5efa2160e942b4f5bf5d6c"}], "txid": "580c11ef96269c73c5091df3f66ff70e6cd92982f01ce2dda98be4237b04f610", "blocktime": 1537872475, "version": 1, "confirmations": 11487, "time": 1537872475, "locktime": 0, "vsize": 225, "size": 225}