{"hash": "580e50d31c54eadf9d197012673ad4d717bd678330d493d7b65ccbc79ee13207", "blockhash": "00000000000000000004ffacab907a6b429b9a5745fa0b75af4234bf69dd7176", "vout": [{"scriptPubKey": {"reqSigs": 1, "hex": "76a9147b39e83bde93dfbc353382ff14c4f04fff48102f88ac", "addresses": ["1CEZV4DNDKCFpa95wHadhjxUMYZJQQSPKv"], "asm": "OP_DUP OP_HASH160 7b39e83bde93dfbc353382ff14c4f04fff48102f OP_EQUALVERIFY OP_CHECKSIG", "type": "pubkeyhash"}, "value": 0.302, "n": 0}, {"scriptPubKey": {"reqSigs": 1, "hex": "76a914ab114549eb090c3581bbe8e123133f245a10e7be88ac", "addresses": ["1GbXEnnfac3zAtUpZgnthGgznwBmKrcTmY"], "asm": "OP_DUP OP_HASH160 ab114549eb090c3581bbe8e123133f245a10e7be OP_EQUALVERIFY OP_CHECKSIG", "type": "pubkeyhash"}, "value": 9.38698658, "n": 1}], "hex": "0100000001726985c950207e898431a6ebb058dd3e0af1a7655d3910d1782dfa777bafbd5c000000006b483045022100c16bdc3ca0e2ccdbb76b97d50f9ba51f1a06b3103f65dc1b22dc7184ad89824e0220117a291383fbfd8daf5016ab343b46762700481dbf92c9cee0eccf3006d81b000121027394d75238ae81078e55a09a5765a114980129a1ddbb7cb8ce7d24ce014d3da0ffffffff02c0d0cc01000000001976a9147b39e83bde93dfbc353382ff14c4f04fff48102f88aca267f337000000001976a914ab114549eb090c3581bbe8e123133f245a10e7be88ac00000000", "vin": [{"sequence": 4294967295, "scriptSig": {"hex": "483045022100c16bdc3ca0e2ccdbb76b97d50f9ba51f1a06b3103f65dc1b22dc7184ad89824e0220117a291383fbfd8daf5016ab343b46762700481dbf92c9cee0eccf3006d81b000121027394d75238ae81078e55a09a5765a114980129a1ddbb7cb8ce7d24ce014d3da0", "asm": "3045022100c16bdc3ca0e2ccdbb76b97d50f9ba51f1a06b3103f65dc1b22dc7184ad89824e0220117a291383fbfd8daf5016ab343b46762700481dbf92c9cee0eccf3006d81b00[ALL] 027394d75238ae81078e55a09a5765a114980129a1ddbb7cb8ce7d24ce014d3da0"}, "vout": 0, "txid": "5cbdaf7b77fa2d78d110395d65a7f10a3edd58b0eba63184897e2050c9856972"}], "txid": "580e50d31c54eadf9d197012673ad4d717bd678330d493d7b65ccbc79ee13207", "blocktime": 1537875543, "version": 1, "confirmations": 11464, "time": 1537875543, "locktime": 0, "vsize": 226, "size": 226}