{"hash": "86730305118f3262c1ac3d9c7c91e992cea7ff858a4c277a32544af61b3bf693", "blockhash": "0000000000000000001cda96e906b7601b7a6fb1a3b62bca570a9e5d8f4b3de1", "vout": [{"scriptPubKey": {"reqSigs": 1, "hex": "001409126f0899c251aed051480e1a7696e836641f04", "addresses": ["bc1qpyfx7zyecfg6a5z3fq8p5a5kaqmxg8cy393epx"], "asm": "0 09126f0899c251aed051480e1a7696e836641f04", "type": "witness_v0_keyhash"}, "value": 0.01229667, "n": 0}, {"scriptPubKey": {"reqSigs": 1, "hex": "76a9149c9ab4d5c4814cfceeae3aee9f06792a2743982f88ac", "addresses": ["1FH3k7bejK7dsSg7eViorQ8nThJSaKDCTP"], "asm": "OP_DUP OP_HASH160 9c9ab4d5c4814cfceeae3aee9f06792a2743982f OP_EQUALVERIFY OP_CHECKSIG", "type": "pubkeyhash"}, "value": 1e-05, "n": 1}], "hex": "02000000000101284c4a8770fb71a2a6f84d45e43332d03e80cd2185b3397bdc5423d4c5e6d0a10100000000feffffff0263c312000000000016001409126f0899c251aed051480e1a7696e836641f04e8030000000000001976a9149c9ab4d5c4814cfceeae3aee9f06792a2743982f88ac024830450221009e126c90302267e68ec93080ff73f588237755b8b4ce4cb7f464dcf1c17bbec102200abb3be8f6f4b8dedcba261facf8ca95de90fc0eda37184b20e8a207073e5d3a0121033aca10eaeec55af0ee2f57bab2c09f9cb2c027d4b9a7913cc99996e62d03540513490800", "vin": [{"txinwitness": ["30450221009e126c90302267e68ec93080ff73f588237755b8b4ce4cb7f464dcf1c17bbec102200abb3be8f6f4b8dedcba261facf8ca95de90fc0eda37184b20e8a207073e5d3a01", "033aca10eaeec55af0ee2f57bab2c09f9cb2c027d4b9a7913cc99996e62d035405"], "sequence": 4294967294, "scriptSig": {"hex": "", "asm": ""}, "vout": 1, "txid": "a1d0e6c5d42354dc7b39b38521cd803ed03233e4454df8a6a271fb70874a4c28"}], "txid": "580e4e00bcbaa1c73bebf611824bc97c85c5d20883cefb371a6e721d8d1b2c5a", "blocktime": 1537873282, "version": 2, "confirmations": 11485, "time": 1537873282, "locktime": 542995, "vsize": 144, "size": 226}