{"hash": "5812633f005c2c2a379bc6a6aa03129199c548e23560709f62d1e6050241940e", "blockhash": "0000000000000000000dcc0f55137456b1a82d3642486a52398922ac4d620174", "vout": [{"scriptPubKey": {"reqSigs": 1, "hex": "76a9149be04c4840609bda0e05ea14fab0c91c470d838788ac", "addresses": ["1FDCSEN5demskGkUBARG9nmaiAGikVSkcS"], "asm": "OP_DUP OP_HASH160 9be04c4840609bda0e05ea14fab0c91c470d8387 OP_EQUALVERIFY OP_CHECKSIG", "type": "pubkeyhash"}, "value": 5.9, "n": 0}, {"scriptPubKey": {"reqSigs": 1, "hex": "76a914fe8ebd917124784a4e72b7bb2b376c9ee8f1750288ac", "addresses": ["1QCydWWWitziPWrawkCF5hbnvGpiuGdXh7"], "asm": "OP_DUP OP_HASH160 fe8ebd917124784a4e72b7bb2b376c9ee8f17502 OP_EQUALVERIFY OP_CHECKSIG", "type": "pubkeyhash"}, "value": 1.00122, "n": 1}], "hex": "01000000033b257ea41331aa4964191410bbf1b3591d4dd14562611fa2c5d6343747525cf9010000006a47304402202dd2cc278cd71beb61d2cb94d669d918d92ad09c42917b30bc90b08bdc64202e02202fd2f0c5e020295265b98d8b60f303e72ece9941aecf6c15d2d6c74db4098abd012103086f734877657cc15b4d5c7d27217f18b627ee9b31bff5f5b516ed824b3f3682ffffffff3b257ea41331aa4964191410bbf1b3591d4dd14562611fa2c5d6343747525cf9000000006a47304402205c7b7053afd418c8ef9bab00643d75a348319d84a08f37d71a515bd02f13698b0220680019b6773f32d27ace7e32fef17549600569414ccec2487c33c7f1e5bf229f0121034d30464eab10081c61bd13f5bec65e29ab38bb5bbd43f78c6d0147fe10995d6effffffffb83195168c2786288bd8e8a2173d1b482e1d9a2a846a2e1e939b5622f29e98be010000006b483045022100cbd9bdb00682b4ff140bb81ed4cc7cc8d73d2fb864c15a070ce4b6b7d61e0edd02203c519299cf219bf6554ff1cf3cc70d2cd6f5f566dc0c12194dc485f2cc3fc1c00121038678ae53bffa3cd3e7cd98e6be523cd069548d827b13b23be7ed8a36fe0df4b5ffffffff0280af2a23000000001976a9149be04c4840609bda0e05ea14fab0c91c470d838788ac90bdf705000000001976a914fe8ebd917124784a4e72b7bb2b376c9ee8f1750288ac00000000", "vin": [{"sequence": 4294967295, "scriptSig": {"hex": "47304402202dd2cc278cd71beb61d2cb94d669d918d92ad09c42917b30bc90b08bdc64202e02202fd2f0c5e020295265b98d8b60f303e72ece9941aecf6c15d2d6c74db4098abd012103086f734877657cc15b4d5c7d27217f18b627ee9b31bff5f5b516ed824b3f3682", "asm": "304402202dd2cc278cd71beb61d2cb94d669d918d92ad09c42917b30bc90b08bdc64202e02202fd2f0c5e020295265b98d8b60f303e72ece9941aecf6c15d2d6c74db4098abd[ALL] 03086f734877657cc15b4d5c7d27217f18b627ee9b31bff5f5b516ed824b3f3682"}, "vout": 1, "txid": "f95c52473734d6c5a21f616245d14d1d59b3f1bb1014196449aa3113a47e253b"}, {"sequence": 4294967295, "scriptSig": {"hex": "47304402205c7b7053afd418c8ef9bab00643d75a348319d84a08f37d71a515bd02f13698b0220680019b6773f32d27ace7e32fef17549600569414ccec2487c33c7f1e5bf229f0121034d30464eab10081c61bd13f5bec65e29ab38bb5bbd43f78c6d0147fe10995d6e", "asm": "304402205c7b7053afd418c8ef9bab00643d75a348319d84a08f37d71a515bd02f13698b0220680019b6773f32d27ace7e32fef17549600569414ccec2487c33c7f1e5bf229f[ALL] 034d30464eab10081c61bd13f5bec65e29ab38bb5bbd43f78c6d0147fe10995d6e"}, "vout": 0, "txid": "f95c52473734d6c5a21f616245d14d1d59b3f1bb1014196449aa3113a47e253b"}, {"sequence": 4294967295, "scriptSig": {"hex": "483045022100cbd9bdb00682b4ff140bb81ed4cc7cc8d73d2fb864c15a070ce4b6b7d61e0edd02203c519299cf219bf6554ff1cf3cc70d2cd6f5f566dc0c12194dc485f2cc3fc1c00121038678ae53bffa3cd3e7cd98e6be523cd069548d827b13b23be7ed8a36fe0df4b5", "asm": "3045022100cbd9bdb00682b4ff140bb81ed4cc7cc8d73d2fb864c15a070ce4b6b7d61e0edd02203c519299cf219bf6554ff1cf3cc70d2cd6f5f566dc0c12194dc485f2cc3fc1c0[ALL] 038678ae53bffa3cd3e7cd98e6be523cd069548d827b13b23be7ed8a36fe0df4b5"}, "vout": 1, "txid": "be989ef222569b931e2e6a842a9a1d2e481b3d17a2e8d88b2886278c169531b8"}], "txid": "5812633f005c2c2a379bc6a6aa03129199c548e23560709f62d1e6050241940e", "blocktime": 1537870268, "version": 1, "confirmations": 11516, "time": 1537870268, "locktime": 0, "vsize": 520, "size": 520}