{"hash": "5817fb9ef2dbc878407abac7b5654f5fcb2afe2f2b4f65dee694856c53b921d8", "blockhash": "0000000000000000001e0dab787dd257d1dbfcb92a98c2207d5e1078be1f4165", "vout": [{"scriptPubKey": {"reqSigs": 1, "hex": "76a9140259e4c16df963c0421da0ebfbc54136c45161b288ac", "addresses": ["1DS3JLM5aE3UYpEDxzqbkpgPsXpWh7siL"], "asm": "OP_DUP OP_HASH160 0259e4c16df963c0421da0ebfbc54136c45161b2 OP_EQUALVERIFY OP_CHECKSIG", "type": "pubkeyhash"}, "value": 1.289e-05, "n": 0}, {"scriptPubKey": {"reqSigs": 1, "hex": "76a914b95349983e89c85ed25b8b8faa096e3019dfe3cd88ac", "addresses": ["1HtunQSXupkzmyaNsNFc6wLw9gqYU4qpw2"], "asm": "OP_DUP OP_HASH160 b95349983e89c85ed25b8b8faa096e3019dfe3cd OP_EQUALVERIFY OP_CHECKSIG", "type": "pubkeyhash"}, "value": 0.00015624, "n": 1}], "hex": "0100000001f8b96857ef2ae14c727fc5b46fdf56097ad5e43977637667b0f5babfe9b354c5000000006a473044022065443d30046358015275980d1e82fe889751b2bddd54f84ecec6477fa56f554e02201ed8490e3b221e9eb6d961a02da84d5b0ed0aa487de1b193857fe897b07d4da7012102e03841d6ec7c22efc2e5b4e29f0541cf0cebcd41b4408ff8666f814680bd523cffffffff0209050000000000001976a9140259e4c16df963c0421da0ebfbc54136c45161b288ac083d0000000000001976a914b95349983e89c85ed25b8b8faa096e3019dfe3cd88ac00000000", "vin": [{"sequence": 4294967295, "scriptSig": {"hex": "473044022065443d30046358015275980d1e82fe889751b2bddd54f84ecec6477fa56f554e02201ed8490e3b221e9eb6d961a02da84d5b0ed0aa487de1b193857fe897b07d4da7012102e03841d6ec7c22efc2e5b4e29f0541cf0cebcd41b4408ff8666f814680bd523c", "asm": "3044022065443d30046358015275980d1e82fe889751b2bddd54f84ecec6477fa56f554e02201ed8490e3b221e9eb6d961a02da84d5b0ed0aa487de1b193857fe897b07d4da7[ALL] 02e03841d6ec7c22efc2e5b4e29f0541cf0cebcd41b4408ff8666f814680bd523c"}, "vout": 0, "txid": "c554b3e9bfbaf5b06776637739e4d57a0956df6fb4c57f724ce12aef5768b9f8"}], "txid": "5817fb9ef2dbc878407abac7b5654f5fcb2afe2f2b4f65dee694856c53b921d8", "blocktime": 1537872475, "version": 1, "confirmations": 11487, "time": 1537872475, "locktime": 0, "vsize": 225, "size": 225}