{"hash": "581c6aaeedc5e0a097e7739f7526101ba161ee27d4aa2b7f90a3a184359d0c10", "blockhash": "00000000000000000004ffacab907a6b429b9a5745fa0b75af4234bf69dd7176", "vout": [{"scriptPubKey": {"reqSigs": 1, "hex": "a9143e6f15908582f42917ec31e39bf8722fc9d5db3f87", "addresses": ["37P8thrtDXb6Di5E7f4FL3bpzum3fhUvT7"], "asm": "OP_HASH160 3e6f15908582f42917ec31e39bf8722fc9d5db3f OP_EQUAL", "type": "scripthash"}, "value": 0.0002, "n": 0}, {"scriptPubKey": {"reqSigs": 1, "hex": "76a9141bd99f87dbf5c1bab319ffaa366b9b32d05814b488ac", "addresses": ["13YFwuKnG9qDZAzyve8xztGAgPxwZYwb5X"], "asm": "OP_DUP OP_HASH160 1bd99f87dbf5c1bab319ffaa366b9b32d05814b4 OP_EQUALVERIFY OP_CHECKSIG", "type": "pubkeyhash"}, "value": 0.00212208, "n": 1}], "hex": "0100000001f71be4e340b34c51e1322e7e47198ed2f5322e7335045337b2812127e4b0ba4f000000006b483045022100d1d367b41cf676a4bf6cdae04bcf88239cf631cb1b1bb34b9924675891e6e0d8022013ac989055a5fff273f0a8c741cb2376650968b26bdedeeb1faadf56f83927650121035c40159a3696218a51c5d735b00b13ba6ec1ddc5db0e82db9de32e02b18223f6ffffffff02204e00000000000017a9143e6f15908582f42917ec31e39bf8722fc9d5db3f87f03c0300000000001976a9141bd99f87dbf5c1bab319ffaa366b9b32d05814b488ac00000000", "vin": [{"sequence": 4294967295, "scriptSig": {"hex": "483045022100d1d367b41cf676a4bf6cdae04bcf88239cf631cb1b1bb34b9924675891e6e0d8022013ac989055a5fff273f0a8c741cb2376650968b26bdedeeb1faadf56f83927650121035c40159a3696218a51c5d735b00b13ba6ec1ddc5db0e82db9de32e02b18223f6", "asm": "3045022100d1d367b41cf676a4bf6cdae04bcf88239cf631cb1b1bb34b9924675891e6e0d8022013ac989055a5fff273f0a8c741cb2376650968b26bdedeeb1faadf56f8392765[ALL] 035c40159a3696218a51c5d735b00b13ba6ec1ddc5db0e82db9de32e02b18223f6"}, "vout": 0, "txid": "4fbab0e4272181b237530435732e32f5d28e19477e2e32e1514cb340e3e41bf7"}], "txid": "581c6aaeedc5e0a097e7739f7526101ba161ee27d4aa2b7f90a3a184359d0c10", "blocktime": 1537875543, "version": 1, "confirmations": 11464, "time": 1537875543, "locktime": 0, "vsize": 224, "size": 224}