{"hash": "d86be24f005b122e6195c3f3788fd8fa6fbd4273ce894ea2528b65e88cbfec30", "blockhash": "000000000000000000022b45ed06c6f4ccd3cf7fb5ba4856ebd2e58215665228", "vout": [{"scriptPubKey": {"reqSigs": 1, "hex": "76a914135cbb4e64f12312a975f0de271670a3e6143bcd88ac", "addresses": ["12mNvkiqBgDQf7qgQG3n69jWP2WKW8WoGt"], "asm": "OP_DUP OP_HASH160 135cbb4e64f12312a975f0de271670a3e6143bcd OP_EQUALVERIFY OP_CHECKSIG", "type": "pubkeyhash"}, "value": 0.01326, "n": 0}, {"scriptPubKey": {"reqSigs": 1, "hex": "00145e821da0c53d9f811a08d3447879bada266180d4", "addresses": ["bc1qt6ppmgx98k0czxsg6dz8s7d6mgnxrqx5r9wgn6"], "asm": "0 5e821da0c53d9f811a08d3447879bada266180d4", "type": "witness_v0_keyhash"}, "value": 0.00117412, "n": 1}], "hex": "010000000001016b89733263e063ea4d0c9c240ecd3051ec78af83a7aa50c7b3345d004dcb28c000000000171600144ebace1a08bf3e71d1fba44da01e24bec8e9fbd9ffffffff02b03b1400000000001976a914135cbb4e64f12312a975f0de271670a3e6143bcd88aca4ca0100000000001600145e821da0c53d9f811a08d3447879bada266180d402473044022039667070ee7ead96eab23e9c0aab5d8688e5795e90c7bbf54a3922f7ea58e19a02206f989a82ccc91167e4b26a07cf777e8e8cd8029857ddb4424c8e45671ab6b5a8012102adb513147a69e4fdc60f882d7cf1fea2ede521a84d2d144ad97f193c20c7305400000000", "vin": [{"txinwitness": ["3044022039667070ee7ead96eab23e9c0aab5d8688e5795e90c7bbf54a3922f7ea58e19a02206f989a82ccc91167e4b26a07cf777e8e8cd8029857ddb4424c8e45671ab6b5a801", "02adb513147a69e4fdc60f882d7cf1fea2ede521a84d2d144ad97f193c20c73054"], "sequence": 4294967295, "scriptSig": {"hex": "1600144ebace1a08bf3e71d1fba44da01e24bec8e9fbd9", "asm": "00144ebace1a08bf3e71d1fba44da01e24bec8e9fbd9"}, "vout": 0, "txid": "c028cb4d005d34b3c750aaa783af78ec5130cd0e249c0c4dea63e0633273896b"}], "txid": "581c59e2d554061d808ece606dce3af39cb6f42604faee918e3e4ffba36eae5d", "blocktime": 1537869901, "version": 1, "confirmations": 11523, "time": 1537869901, "locktime": 0, "vsize": 167, "size": 248}