{"hash": "581d8473b06b6b0e97d4094a8712ba0062d850f51505cb528a71d601645479c0", "blockhash": "0000000000000000000e13cef7c366c0283d82e591d1acd082e914b08063cdf1", "vout": [{"scriptPubKey": {"reqSigs": 1, "hex": "76a914d6e0e459ee0bdc39d4e905a7e18d97cbf4f60a8b88ac", "addresses": ["1LbB1peuvFVunN6HNjdcnPQZqLVsYsnmpz"], "asm": "OP_DUP OP_HASH160 d6e0e459ee0bdc39d4e905a7e18d97cbf4f60a8b OP_EQUALVERIFY OP_CHECKSIG", "type": "pubkeyhash"}, "value": 0.00078132, "n": 0}, {"scriptPubKey": {"reqSigs": 1, "hex": "76a914225e2f871b363b59f5b3404da8731de6639b35f888ac", "addresses": ["148iof4mLsoUYhZeNLJBRNMPNit8qUqQzk"], "asm": "OP_DUP OP_HASH160 225e2f871b363b59f5b3404da8731de6639b35f8 OP_EQUALVERIFY OP_CHECKSIG", "type": "pubkeyhash"}, "value": 0.447867, "n": 1}], "hex": "0100000001437319aedb0345e31b2b547971dfe41e168f474785f5fd303780c63ad4dc880b010000006a47304402206367dd10338236cc6c7151ee98936f8457c741e52268bb39595488f4315ef5980220209dfcd79d01780d0291486fa434223b7d5bfb6f1b5f704b193e517b8b90c4a8012103859a62d692046c08f373cf237498c3eba27342fef13f28838f077af2786cd324ffffffff0234310100000000001976a914d6e0e459ee0bdc39d4e905a7e18d97cbf4f60a8b88ac0c64ab02000000001976a914225e2f871b363b59f5b3404da8731de6639b35f888ac00000000", "vin": [{"sequence": 4294967295, "scriptSig": {"hex": "47304402206367dd10338236cc6c7151ee98936f8457c741e52268bb39595488f4315ef5980220209dfcd79d01780d0291486fa434223b7d5bfb6f1b5f704b193e517b8b90c4a8012103859a62d692046c08f373cf237498c3eba27342fef13f28838f077af2786cd324", "asm": "304402206367dd10338236cc6c7151ee98936f8457c741e52268bb39595488f4315ef5980220209dfcd79d01780d0291486fa434223b7d5bfb6f1b5f704b193e517b8b90c4a8[ALL] 03859a62d692046c08f373cf237498c3eba27342fef13f28838f077af2786cd324"}, "vout": 1, "txid": "0b88dcd43ac6803730fdf58547478f161ee4df7179542b1be34503dbae197343"}], "txid": "581d8473b06b6b0e97d4094a8712ba0062d850f51505cb528a71d601645479c0", "blocktime": 1537871767, "version": 1, "confirmations": 11495, "time": 1537871767, "locktime": 0, "vsize": 225, "size": 225}