{"hash": "58302ebac86d72c31db48283651dd1f448451af2db71bcdcf55e4895006b707e", "blockhash": "0000000000000000001cda96e906b7601b7a6fb1a3b62bca570a9e5d8f4b3de1", "vout": [{"scriptPubKey": {"reqSigs": 1, "hex": "76a91400ea5543491292468152a7836d2fd51b27134bcb88ac", "addresses": ["115qikHZu2b4oj1EehGBDV7HQyzpMT8JYL"], "asm": "OP_DUP OP_HASH160 00ea5543491292468152a7836d2fd51b27134bcb OP_EQUALVERIFY OP_CHECKSIG", "type": "pubkeyhash"}, "value": 0.00639784, "n": 0}, {"scriptPubKey": {"type": "nulldata", "hex": "6a4c50000077c4000198821ccaf0374b3a05f819d1e5bf9ae76da98a211aaf6c953dd567cf27e7178290483b5de464d458b0b2bf01bb335baa12f606131900bbc367911d100759d4ba30d2c37bb011d97e02cf", "asm": "OP_RETURN 000077c4000198821ccaf0374b3a05f819d1e5bf9ae76da98a211aaf6c953dd567cf27e7178290483b5de464d458b0b2bf01bb335baa12f606131900bbc367911d100759d4ba30d2c37bb011d97e02cf"}, "value": 0.0, "n": 1}], "hex": "0100000001a74a0c20c63f480867b06acfde902a63f4f80e163d9b9581b839448f4aa20543010000006b483045022100d78dc72d43c709eec324a159aa3927d5cde048cfb752460aedb124f950f77dae02203bf6861c638231e86bdefb6a201f0480a8e25efbca219ecf8ebf8a20ce51915f012102787c7779f4f2727f8192122b989da1e4ed320be5b3768c7f44777554423d6663ffffffff0228c30900000000001976a91400ea5543491292468152a7836d2fd51b27134bcb88ac0000000000000000536a4c50000077c4000198821ccaf0374b3a05f819d1e5bf9ae76da98a211aaf6c953dd567cf27e7178290483b5de464d458b0b2bf01bb335baa12f606131900bbc367911d100759d4ba30d2c37bb011d97e02cf00000000", "vin": [{"sequence": 4294967295, "scriptSig": {"hex": "483045022100d78dc72d43c709eec324a159aa3927d5cde048cfb752460aedb124f950f77dae02203bf6861c638231e86bdefb6a201f0480a8e25efbca219ecf8ebf8a20ce51915f012102787c7779f4f2727f8192122b989da1e4ed320be5b3768c7f44777554423d6663", "asm": "3045022100d78dc72d43c709eec324a159aa3927d5cde048cfb752460aedb124f950f77dae02203bf6861c638231e86bdefb6a201f0480a8e25efbca219ecf8ebf8a20ce51915f[ALL] 02787c7779f4f2727f8192122b989da1e4ed320be5b3768c7f44777554423d6663"}, "vout": 1, "txid": "4305a24a8f4439b881959b3d160ef8f4632a90decf6ab06708483fc6200c4aa7"}], "txid": "58302ebac86d72c31db48283651dd1f448451af2db71bcdcf55e4895006b707e", "blocktime": 1537873282, "version": 1, "confirmations": 11484, "time": 1537873282, "locktime": 0, "vsize": 284, "size": 284}