{"hash": "58312e915d290abe86a06ebbc2907be7951b53dabe5a0ba266aa5f354c69b04a", "blockhash": "00000000000000000018f53835495a110e01622372bf6ae95dc86f2b0ab887b0", "vout": [{"scriptPubKey": {"reqSigs": 1, "hex": "76a9144b83d6cbaddddea514e3e6af2eaa2d8d2c5a9b7488ac", "addresses": ["17tHcj33sgPk9NBYY13dzxAfhzNH92UUUp"], "asm": "OP_DUP OP_HASH160 4b83d6cbaddddea514e3e6af2eaa2d8d2c5a9b74 OP_EQUALVERIFY OP_CHECKSIG", "type": "pubkeyhash"}, "value": 0.25, "n": 0}, {"scriptPubKey": {"reqSigs": 1, "hex": "76a914958140b6f3c42dde4d7c443156c8db13dec242c988ac", "addresses": ["1EdWXDzzembrw7kkFSZUN2aBFiMGyRHpSv"], "asm": "OP_DUP OP_HASH160 958140b6f3c42dde4d7c443156c8db13dec242c9 OP_EQUALVERIFY OP_CHECKSIG", "type": "pubkeyhash"}, "value": 16.17233396, "n": 1}], "hex": "0100000001ce98ae79d118ee2629096fb52851cad2d7946c8d81e21afeb7f99f0a3357297a010000006a47304402205dee2404d1385b3b77289dadf1df20082f9b181b113d8878c092034f84a802a8022001d10dab19b44dddc593b21b4bb8c8735391a13cbb4ab6d7180d8d24f4cea982012103ac65c211427edcdce68e25f786b150adca70d641ea69b5c8d34629763e5ffb1bffffffff0240787d01000000001976a9144b83d6cbaddddea514e3e6af2eaa2d8d2c5a9b7488acf4056560000000001976a914958140b6f3c42dde4d7c443156c8db13dec242c988ac00000000", "vin": [{"sequence": 4294967295, "scriptSig": {"hex": "47304402205dee2404d1385b3b77289dadf1df20082f9b181b113d8878c092034f84a802a8022001d10dab19b44dddc593b21b4bb8c8735391a13cbb4ab6d7180d8d24f4cea982012103ac65c211427edcdce68e25f786b150adca70d641ea69b5c8d34629763e5ffb1b", "asm": "304402205dee2404d1385b3b77289dadf1df20082f9b181b113d8878c092034f84a802a8022001d10dab19b44dddc593b21b4bb8c8735391a13cbb4ab6d7180d8d24f4cea982[ALL] 03ac65c211427edcdce68e25f786b150adca70d641ea69b5c8d34629763e5ffb1b"}, "vout": 1, "txid": "7a2957330a9ff9b7fe1ae2818d6c94d7d2ca5128b56f092926ee18d179ae98ce"}], "txid": "58312e915d290abe86a06ebbc2907be7951b53dabe5a0ba266aa5f354c69b04a", "blocktime": 1537870928, "version": 1, "confirmations": 11512, "time": 1537870928, "locktime": 0, "vsize": 225, "size": 225}