{"hash": "ef854ecdf37fe5884e73485458aba1e6dfac3ef7638e7a393652702bf4181d22", "blockhash": "00000000000000000024a2167bbff67b0be802c0b01cdd79e6331c2be6459f87", "vout": [{"scriptPubKey": {"reqSigs": 1, "hex": "a9140083b90d424c95cbb9f48e12e62eb2ce74177e0187", "addresses": ["31jjioqmWJSri3dEfun65p4gDuR9xXi8Pk"], "asm": "OP_HASH160 0083b90d424c95cbb9f48e12e62eb2ce74177e01 OP_EQUAL", "type": "scripthash"}, "value": 0.00075414, "n": 0}, {"scriptPubKey": {"reqSigs": 1, "hex": "a9140be7846be16b05bea00dbec2fcd7e045a793cb1787", "addresses": ["32mxhko5mJHfkbkDPpz7SfdJwEJi21P1WK"], "asm": "OP_HASH160 0be7846be16b05bea00dbec2fcd7e045a793cb17 OP_EQUAL", "type": "scripthash"}, "value": 0.20153753, "n": 1}], "hex": "01000000000101c20c959aa0e7791a9f975acd3d3325e9673a551dd13ec5e1095413740e7298b601000000232200202c66ece6da72bcbfeadf83a91236f4891c13e14d8ecebdcaa81666fc1aa73a31ffffffff02962601000000000017a9140083b90d424c95cbb9f48e12e62eb2ce74177e0187998533010000000017a9140be7846be16b05bea00dbec2fcd7e045a793cb17870400483045022100d67b6d23801622384b9595ad16ea28de223ba26948f83c0da39c684379962377022072fa26b7a82dbd7f15b56dd853cfae2e33a7591e347338d42c247c9bf7539b5b0147304402203a4825ed4c141e7bd5b081859712d56b15e5b10b0fca1d99ccafa177d5eb767d02205a9b7d0b33e71ff5af164b7c68c933693869844b62444bc4ce1eeecb3feceb7301475221029e6fbb942d34a473faaa5557c1bfe08d72102f0b9754ad140fd369d7a3ba3cdc2103871fc2ca08e6950b38867e8e6a0e94ee625223d3aa0df5c65f414c6d784467e252ae00000000", "vin": [{"txinwitness": ["", "3045022100d67b6d23801622384b9595ad16ea28de223ba26948f83c0da39c684379962377022072fa26b7a82dbd7f15b56dd853cfae2e33a7591e347338d42c247c9bf7539b5b01", "304402203a4825ed4c141e7bd5b081859712d56b15e5b10b0fca1d99ccafa177d5eb767d02205a9b7d0b33e71ff5af164b7c68c933693869844b62444bc4ce1eeecb3feceb7301", "5221029e6fbb942d34a473faaa5557c1bfe08d72102f0b9754ad140fd369d7a3ba3cdc2103871fc2ca08e6950b38867e8e6a0e94ee625223d3aa0df5c65f414c6d784467e252ae"], "sequence": 4294967295, "scriptSig": {"hex": "2200202c66ece6da72bcbfeadf83a91236f4891c13e14d8ecebdcaa81666fc1aa73a31", "asm": "00202c66ece6da72bcbfeadf83a91236f4891c13e14d8ecebdcaa81666fc1aa73a31"}, "vout": 1, "txid": "b698720e74135409e1c53ed11d553a67e925333dcd5a979f1a79e7a09a950cc2"}], "txid": "5833b30cbb4dbd28e3e0d9a201a8dbc274427cefbfb423847593dcf7fd0550ce", "blocktime": 1537870564, "version": 1, "confirmations": 11515, "time": 1537870564, "locktime": 0, "vsize": 206, "size": 371}