{"hash": "5837b5728a8cce4ad92cd6274ea81f9c8d45cc59fb68139a110fd069484fc5b6", "blockhash": "0000000000000000001f76057863aec43deb6fa401d9628bb513d65a8098bfab", "vout": [{"scriptPubKey": {"reqSigs": 1, "hex": "76a914e2aaf9d74a15383e63f68fe0388d5d1af709416f88ac", "addresses": ["1MfWXyHE4HFo3kwamAHPUHv4tpJjScih8P"], "asm": "OP_DUP OP_HASH160 e2aaf9d74a15383e63f68fe0388d5d1af709416f OP_EQUALVERIFY OP_CHECKSIG", "type": "pubkeyhash"}, "value": 1.076e-05, "n": 0}, {"scriptPubKey": {"reqSigs": 1, "hex": "76a914b4fe09285b21fedd24566190e788ba89d166b8c188ac", "addresses": ["1HVzxFB1SnCw7BbfDTmE6RqyDuMTzMvmQY"], "asm": "OP_DUP OP_HASH160 b4fe09285b21fedd24566190e788ba89d166b8c1 OP_EQUALVERIFY OP_CHECKSIG", "type": "pubkeyhash"}, "value": 0.12976597, "n": 1}], "hex": "010000000390b3192188f877476175aa7f5225e761c8188f2d71b6df7613af4a3541ba990b160000006b483045022100bf65e8f6ac875f218faf3c3438d06ae5d80534ec0eeb6d963c3cb736b3afd8150220635f5b776807cca5c925ee56f26d33fa1b987046b80f5a822cd18af078ee8059012103edd1613bb338fc461edf055992b216664eafc138dc104b6a4b7b598be97c540afdffffffba09f011786566cca5269a7eb52ba2cfcd3ab70920eab9b0f53349b952e7df52000000006a47304402207358199516c6ea1a46ccff60470f342a5ac1361f5fd9972e3cd6b1f583d5768c02201acc4fb83ed6dead70f8bb410585b852003536ac8b2725e3c46716736334da16012102bdadabc987a0f078802a999ccfb4e0b5e1b377d3c0d3b1cdc4f869f8d09778d9fdffffffe80fe32e16689d1d88bdd2ecca87ab72af95e1d50da698492197da3672378e7b1a0000006a47304402204a0417e687e611597ac37938f87a3e719b33448d0b07a4edc12eda7c0cbae897022046274e50214c1cdde2459c0ff946e4410e051d17a781fcb6e13cfead7ffaccf4012103edd1613bb338fc461edf055992b216664eafc138dc104b6a4b7b598be97c540afdffffff0234040000000000001976a914e2aaf9d74a15383e63f68fe0388d5d1af709416f88acd501c600000000001976a914b4fe09285b21fedd24566190e788ba89d166b8c188ac14490800", "vin": [{"sequence": 4294967293, "scriptSig": {"hex": "483045022100bf65e8f6ac875f218faf3c3438d06ae5d80534ec0eeb6d963c3cb736b3afd8150220635f5b776807cca5c925ee56f26d33fa1b987046b80f5a822cd18af078ee8059012103edd1613bb338fc461edf055992b216664eafc138dc104b6a4b7b598be97c540a", "asm": "3045022100bf65e8f6ac875f218faf3c3438d06ae5d80534ec0eeb6d963c3cb736b3afd8150220635f5b776807cca5c925ee56f26d33fa1b987046b80f5a822cd18af078ee8059[ALL] 03edd1613bb338fc461edf055992b216664eafc138dc104b6a4b7b598be97c540a"}, "vout": 22, "txid": "0b99ba41354aaf1376dfb6712d8f18c861e725527faa75614777f8882119b390"}, {"sequence": 4294967293, "scriptSig": {"hex": "47304402207358199516c6ea1a46ccff60470f342a5ac1361f5fd9972e3cd6b1f583d5768c02201acc4fb83ed6dead70f8bb410585b852003536ac8b2725e3c46716736334da16012102bdadabc987a0f078802a999ccfb4e0b5e1b377d3c0d3b1cdc4f869f8d09778d9", "asm": "304402207358199516c6ea1a46ccff60470f342a5ac1361f5fd9972e3cd6b1f583d5768c02201acc4fb83ed6dead70f8bb410585b852003536ac8b2725e3c46716736334da16[ALL] 02bdadabc987a0f078802a999ccfb4e0b5e1b377d3c0d3b1cdc4f869f8d09778d9"}, "vout": 0, "txid": "52dfe752b94933f5b0b9ea2009b73acdcfa22bb57e9a26a5cc66657811f009ba"}, {"sequence": 4294967293, "scriptSig": {"hex": "47304402204a0417e687e611597ac37938f87a3e719b33448d0b07a4edc12eda7c0cbae897022046274e50214c1cdde2459c0ff946e4410e051d17a781fcb6e13cfead7ffaccf4012103edd1613bb338fc461edf055992b216664eafc138dc104b6a4b7b598be97c540a", "asm": "304402204a0417e687e611597ac37938f87a3e719b33448d0b07a4edc12eda7c0cbae897022046274e50214c1cdde2459c0ff946e4410e051d17a781fcb6e13cfead7ffaccf4[ALL] 03edd1613bb338fc461edf055992b216664eafc138dc104b6a4b7b598be97c540a"}, "vout": 26, "txid": "7b8e377236da97214998a60dd5e195af72ab87caecd2bd881d9d68162ee30fe8"}], "txid": "5837b5728a8cce4ad92cd6274ea81f9c8d45cc59fb68139a110fd069484fc5b6", "blocktime": 1537873891, "version": 1, "confirmations": 11475, "time": 1537873891, "locktime": 542996, "vsize": 520, "size": 520}