{"hash": "58383159d9a12d2977e455133a080a318e4278df29d8705d37d2123c59717562", "blockhash": "00000000000000000018f53835495a110e01622372bf6ae95dc86f2b0ab887b0", "vout": [{"scriptPubKey": {"reqSigs": 1, "hex": "76a914d243e6abb9a60fbff430b421d2df4b7d59ec186088ac", "addresses": ["1LAnF8h3qMGx3TSwNUHVneBZUEpwE4gu3D"], "asm": "OP_DUP OP_HASH160 d243e6abb9a60fbff430b421d2df4b7d59ec1860 OP_EQUALVERIFY OP_CHECKSIG", "type": "pubkeyhash"}, "value": 0.00076972, "n": 0}, {"scriptPubKey": {"reqSigs": 1, "hex": "76a9143851f34d13937b673a7d24a1950bb5b21ce94af388ac", "addresses": ["168o1kqNquEJeR9vosUB5fw4eAwcVAgh8P"], "asm": "OP_DUP OP_HASH160 3851f34d13937b673a7d24a1950bb5b21ce94af3 OP_EQUALVERIFY OP_CHECKSIG", "type": "pubkeyhash"}, "value": 5.46e-06, "n": 1}, {"scriptPubKey": {"type": "nulldata", "hex": "6a146f6d6e69000000000000001f0000007fa93a0b00", "asm": "OP_RETURN 6f6d6e69000000000000001f0000007fa93a0b00"}, "value": 0.0, "n": 2}], "hex": "0100000002742901fbb9ce60243c627b5759209716a03f7f430ea9377142ab7532cda3ec32020000006b48304502210093e1618b81b04ae621b9c111b9b5ea15ac6004b0f67e71310ddc4a5fb1ef04950220086888ff51c4e09ba9b34994c1fc72d1164d9d07a9e9ef11b7b43f3e570b59960121024c5c3397aeffaf2c7b97be23b9f7d5938b2c408234c4b604d80d51af844e5135ffffffffa238f75a671174725c30aba64e413be76d60643da7c5436bbfb2732716ad272d0000000069463043021f182cb1af761b5d1d6a5f21c9f38bc2319dfbe7f346adc4b44c40d43b20827002200b8d88b6e3e756864e71a3a672b76b65ae5a388f976e00f029c34882c7f105af01210271977291b74f1f5f5c42157e8aae804664eaaeccfd097918450d37f28fb94d77ffffffff03ac2c0100000000001976a914d243e6abb9a60fbff430b421d2df4b7d59ec186088ac22020000000000001976a9143851f34d13937b673a7d24a1950bb5b21ce94af388ac0000000000000000166a146f6d6e69000000000000001f0000007fa93a0b0000000000", "vin": [{"sequence": 4294967295, "scriptSig": {"hex": "48304502210093e1618b81b04ae621b9c111b9b5ea15ac6004b0f67e71310ddc4a5fb1ef04950220086888ff51c4e09ba9b34994c1fc72d1164d9d07a9e9ef11b7b43f3e570b59960121024c5c3397aeffaf2c7b97be23b9f7d5938b2c408234c4b604d80d51af844e5135", "asm": "304502210093e1618b81b04ae621b9c111b9b5ea15ac6004b0f67e71310ddc4a5fb1ef04950220086888ff51c4e09ba9b34994c1fc72d1164d9d07a9e9ef11b7b43f3e570b5996[ALL] 024c5c3397aeffaf2c7b97be23b9f7d5938b2c408234c4b604d80d51af844e5135"}, "vout": 2, "txid": "32eca3cd3275ab427137a90e437f3fa016972059577b623c2460ceb9fb012974"}, {"sequence": 4294967295, "scriptSig": {"hex": "463043021f182cb1af761b5d1d6a5f21c9f38bc2319dfbe7f346adc4b44c40d43b20827002200b8d88b6e3e756864e71a3a672b76b65ae5a388f976e00f029c34882c7f105af01210271977291b74f1f5f5c42157e8aae804664eaaeccfd097918450d37f28fb94d77", "asm": "3043021f182cb1af761b5d1d6a5f21c9f38bc2319dfbe7f346adc4b44c40d43b20827002200b8d88b6e3e756864e71a3a672b76b65ae5a388f976e00f029c34882c7f105af[ALL] 0271977291b74f1f5f5c42157e8aae804664eaaeccfd097918450d37f28fb94d77"}, "vout": 0, "txid": "2d27ad162773b2bf6b43c5a73d64606de73b414ea6ab305c727411675af738a2"}], "txid": "58383159d9a12d2977e455133a080a318e4278df29d8705d37d2123c59717562", "blocktime": 1537870928, "version": 1, "confirmations": 11512, "time": 1537870928, "locktime": 0, "vsize": 403, "size": 403}