{"hash": "583f84e787ffde28ec2f42c112da688d88fea724b39a8f8ee4a12ff82dc785a0", "blockhash": "0000000000000000001f0ddff1eddb255c1121bcd4da4f1bc9a0da00cae72433", "vout": [{"scriptPubKey": {"reqSigs": 1, "hex": "a914ceea4fb885879164ce27bc83edfe4cf95e65424187", "addresses": ["3LZ5pJXPEo2JmDtvJMm5Wf4drjHKngDnsA"], "asm": "OP_HASH160 ceea4fb885879164ce27bc83edfe4cf95e654241 OP_EQUAL", "type": "scripthash"}, "value": 0.0137596, "n": 0}, {"scriptPubKey": {"reqSigs": 1, "hex": "a914a147d5eb8af1a145f7190048595f9e390293c7f487", "addresses": ["3GPnmexMYP1RKeyPreqgcDHK8pAxaLqwNN"], "asm": "OP_HASH160 a147d5eb8af1a145f7190048595f9e390293c7f4 OP_EQUAL", "type": "scripthash"}, "value": 0.00312915, "n": 1}], "hex": "0100000001fc8ae62287437e9acf05030043ed24d1219bc54500253625ca5486e913a7e26700000000fc0047304402204c7f020ea546b0914053c160e1ea836cb97322e99149c7d12788aaaefcd7326002203604e23d8f379a8a21df3e34cf751010e272bbeede12f19f69d69e63d0b91d0501473044022046a0baa10ebd8fb8def05c08be92e6fa9b45f00fce2debf602e6dc284ac7ce7302201865fe5a2419770e471cb07590d7b7e40cbbb3da6066e26ceffe06a83e1ecca3014c6952210307b546f689c9fe8a1af1edb9313d7126112479dccd8900a6a80dda3dbd20dab321031dcc90e68df54dfe32f8af858d0d5dd565b67a5d44563ea5a5b584405fd53c402103709fb608a4ab8a7b1c12d42e860e5031cfaffe172fc3053c03410a689c71643453aeffffffff02d8fe14000000000017a914ceea4fb885879164ce27bc83edfe4cf95e6542418753c604000000000017a914a147d5eb8af1a145f7190048595f9e390293c7f48700000000", "vin": [{"sequence": 4294967295, "scriptSig": {"hex": "0047304402204c7f020ea546b0914053c160e1ea836cb97322e99149c7d12788aaaefcd7326002203604e23d8f379a8a21df3e34cf751010e272bbeede12f19f69d69e63d0b91d0501473044022046a0baa10ebd8fb8def05c08be92e6fa9b45f00fce2debf602e6dc284ac7ce7302201865fe5a2419770e471cb07590d7b7e40cbbb3da6066e26ceffe06a83e1ecca3014c6952210307b546f689c9fe8a1af1edb9313d7126112479dccd8900a6a80dda3dbd20dab321031dcc90e68df54dfe32f8af858d0d5dd565b67a5d44563ea5a5b584405fd53c402103709fb608a4ab8a7b1c12d42e860e5031cfaffe172fc3053c03410a689c71643453ae", "asm": "0 304402204c7f020ea546b0914053c160e1ea836cb97322e99149c7d12788aaaefcd7326002203604e23d8f379a8a21df3e34cf751010e272bbeede12f19f69d69e63d0b91d05[ALL] 3044022046a0baa10ebd8fb8def05c08be92e6fa9b45f00fce2debf602e6dc284ac7ce7302201865fe5a2419770e471cb07590d7b7e40cbbb3da6066e26ceffe06a83e1ecca3[ALL] 52210307b546f689c9fe8a1af1edb9313d7126112479dccd8900a6a80dda3dbd20dab321031dcc90e68df54dfe32f8af858d0d5dd565b67a5d44563ea5a5b584405fd53c402103709fb608a4ab8a7b1c12d42e860e5031cfaffe172fc3053c03410a689c71643453ae"}, "vout": 0, "txid": "67e2a713e98654ca2536250045c59b21d124ed43000305cf9a7e438722e68afc"}], "txid": "583f84e787ffde28ec2f42c112da688d88fea724b39a8f8ee4a12ff82dc785a0", "blocktime": 1537872018, "version": 1, "confirmations": 11489, "time": 1537872018, "locktime": 0, "vsize": 367, "size": 367}