{"hash": "5840d3b547d97010dd4b1ada1fa5fbc765a5c04b11530d6214e45d3bc8d77c52", "blockhash": "0000000000000000000e13cef7c366c0283d82e591d1acd082e914b08063cdf1", "vout": [{"scriptPubKey": {"reqSigs": 1, "hex": "76a914a009d972ab554c1f5b24d1ada1d5140e9fe80c5388ac", "addresses": ["1FbCv3Quu6C5h1G3jY3F6T8Nsojd991qmt"], "asm": "OP_DUP OP_HASH160 a009d972ab554c1f5b24d1ada1d5140e9fe80c53 OP_EQUALVERIFY OP_CHECKSIG", "type": "pubkeyhash"}, "value": 0.00041229, "n": 0}], "hex": "010000000192f497be891c79d02939712e9bb7056e13fa0516b35533d6f09e77ad74c0a9c3000000006b483045022100c4b34e07ced013318b0132ff7fad1ffa0f9dcb17b29bab6cd0a74241f60db92202200ed7bcd224bc95dfe7bcaba7c34ec92a106f37518b8ca83b2a5155650d73125f01210223305893533d38919e63213586947aef3e4fcbd7a7aeea8efb0971dea9271767ffffffff010da10000000000001976a914a009d972ab554c1f5b24d1ada1d5140e9fe80c5388ac00000000", "vin": [{"sequence": 4294967295, "scriptSig": {"hex": "483045022100c4b34e07ced013318b0132ff7fad1ffa0f9dcb17b29bab6cd0a74241f60db92202200ed7bcd224bc95dfe7bcaba7c34ec92a106f37518b8ca83b2a5155650d73125f01210223305893533d38919e63213586947aef3e4fcbd7a7aeea8efb0971dea9271767", "asm": "3045022100c4b34e07ced013318b0132ff7fad1ffa0f9dcb17b29bab6cd0a74241f60db92202200ed7bcd224bc95dfe7bcaba7c34ec92a106f37518b8ca83b2a5155650d73125f[ALL] 0223305893533d38919e63213586947aef3e4fcbd7a7aeea8efb0971dea9271767"}, "vout": 0, "txid": "c3a9c074ad779ef0d63355b31605fa136e05b79b2e713929d0791c89be97f492"}], "txid": "5840d3b547d97010dd4b1ada1fa5fbc765a5c04b11530d6214e45d3bc8d77c52", "blocktime": 1537871767, "version": 1, "confirmations": 11495, "time": 1537871767, "locktime": 0, "vsize": 192, "size": 192}