{"hash": "584020c8ccaa504e092d1048444cdbfdf15f95fb3062495d49088a8fc277adc7", "blockhash": "0000000000000000001f0ddff1eddb255c1121bcd4da4f1bc9a0da00cae72433", "vout": [{"scriptPubKey": {"reqSigs": 1, "hex": "a91444c419ff39ef07f72f62fc3bc9af84e759ec36a887", "addresses": ["37xcnxoE1yJfH72qySofDw8ie5WXf5RdPj"], "asm": "OP_HASH160 44c419ff39ef07f72f62fc3bc9af84e759ec36a8 OP_EQUAL", "type": "scripthash"}, "value": 0.005, "n": 0}, {"scriptPubKey": {"reqSigs": 1, "hex": "76a9145bcd4f2c7fef9150e8ce7e423f3c6b53d2a1828b88ac", "addresses": ["19NQSbWKtRcaaAD4ScJntEKtGKJXXSFLx9"], "asm": "OP_DUP OP_HASH160 5bcd4f2c7fef9150e8ce7e423f3c6b53d2a1828b OP_EQUALVERIFY OP_CHECKSIG", "type": "pubkeyhash"}, "value": 0.00015482, "n": 1}], "hex": "0200000002a8534c4c1075e1ccbe2bb77366e31edf6d85b45e29885681cfcf0da23efc1026010000006b483045022100ef8c5c8a2d936d86ff667d0cf69565bea1df71fec2a872fc03460ae28de3dd92022015b0b7ac3fffd2b1ebd967bdec2c6212b3fbabdb6cafa541b6588f4a952ed6a10121026e5122a660a6052a95adb506d7a33f3b1f1d06b41e1af9873fb858406c82b111fefffffff8736a3aa06ff1512bc73873c5981f1472aa8ed0d5e8b217918098e101ff71e3010000006b483045022100d4052537db01a1f0e7fcb1e9ce1896affde828dbfc4cbe2c06cd8aac8d061d3f022018b0201756a6257ac9be7b8421b74be8fb8c7a4ffc8e17585ba2596177b3fc820121035c9cc91b22c7cfa485a1faecda7fa4fe878dc0ee06fc0aa93efe37ff1797e4ccfeffffff0220a107000000000017a91444c419ff39ef07f72f62fc3bc9af84e759ec36a8877a3c0000000000001976a9145bcd4f2c7fef9150e8ce7e423f3c6b53d2a1828b88ac11490800", "vin": [{"sequence": 4294967294, "scriptSig": {"hex": "483045022100ef8c5c8a2d936d86ff667d0cf69565bea1df71fec2a872fc03460ae28de3dd92022015b0b7ac3fffd2b1ebd967bdec2c6212b3fbabdb6cafa541b6588f4a952ed6a10121026e5122a660a6052a95adb506d7a33f3b1f1d06b41e1af9873fb858406c82b111", "asm": "3045022100ef8c5c8a2d936d86ff667d0cf69565bea1df71fec2a872fc03460ae28de3dd92022015b0b7ac3fffd2b1ebd967bdec2c6212b3fbabdb6cafa541b6588f4a952ed6a1[ALL] 026e5122a660a6052a95adb506d7a33f3b1f1d06b41e1af9873fb858406c82b111"}, "vout": 1, "txid": "2610fc3ea20dcfcf815688295eb4856ddf1ee36673b72bbecce175104c4c53a8"}, {"sequence": 4294967294, "scriptSig": {"hex": "483045022100d4052537db01a1f0e7fcb1e9ce1896affde828dbfc4cbe2c06cd8aac8d061d3f022018b0201756a6257ac9be7b8421b74be8fb8c7a4ffc8e17585ba2596177b3fc820121035c9cc91b22c7cfa485a1faecda7fa4fe878dc0ee06fc0aa93efe37ff1797e4cc", "asm": "3045022100d4052537db01a1f0e7fcb1e9ce1896affde828dbfc4cbe2c06cd8aac8d061d3f022018b0201756a6257ac9be7b8421b74be8fb8c7a4ffc8e17585ba2596177b3fc82[ALL] 035c9cc91b22c7cfa485a1faecda7fa4fe878dc0ee06fc0aa93efe37ff1797e4cc"}, "vout": 1, "txid": "e371ff01e198809117b2e8d5d08eaa72141f98c57338c72b51f16fa03a6a73f8"}], "txid": "584020c8ccaa504e092d1048444cdbfdf15f95fb3062495d49088a8fc277adc7", "blocktime": 1537872018, "version": 2, "confirmations": 11489, "time": 1537872018, "locktime": 542993, "vsize": 372, "size": 372}