{"hash": "584cc4485518a971a08c4c4c87264130e0a31435b38340ec51fb8b660b728f8c", "blockhash": "0000000000000000001e0dab787dd257d1dbfcb92a98c2207d5e1078be1f4165", "vout": [{"scriptPubKey": {"reqSigs": 1, "hex": "76a91405dc2ec7d7a03f55c792221ddafcc7a3d8639b1488ac", "addresses": ["1Xz9XPSCn74ep9jo2nfJuM4ds7tvC9FUd"], "asm": "OP_DUP OP_HASH160 05dc2ec7d7a03f55c792221ddafcc7a3d8639b14 OP_EQUALVERIFY OP_CHECKSIG", "type": "pubkeyhash"}, "value": 0.1766167, "n": 0}], "hex": "010000000178be94642e78eb60d47fe12ea03eccce5ac37683a1a603d8cf7618c2fe772f97000000006a47304402204880dec7b00dbf62fc5a912b86fd499cde3d9d417d05398d8f4e7348f65a4e88022030afb97b95e6cb6cc4d14127a5c90b2eed4d51749ad59533a9fd461049b4b9ee012102b3d592f8a2e25f1011cacad00091fe8f7dd31cb7c042834c749569df4e3abaa5ffffffff01e67e0d01000000001976a91405dc2ec7d7a03f55c792221ddafcc7a3d8639b1488ac00000000", "vin": [{"sequence": 4294967295, "scriptSig": {"hex": "47304402204880dec7b00dbf62fc5a912b86fd499cde3d9d417d05398d8f4e7348f65a4e88022030afb97b95e6cb6cc4d14127a5c90b2eed4d51749ad59533a9fd461049b4b9ee012102b3d592f8a2e25f1011cacad00091fe8f7dd31cb7c042834c749569df4e3abaa5", "asm": "304402204880dec7b00dbf62fc5a912b86fd499cde3d9d417d05398d8f4e7348f65a4e88022030afb97b95e6cb6cc4d14127a5c90b2eed4d51749ad59533a9fd461049b4b9ee[ALL] 02b3d592f8a2e25f1011cacad00091fe8f7dd31cb7c042834c749569df4e3abaa5"}, "vout": 0, "txid": "972f77fec21876cfd803a6a18376c35acecc3ea02ee17fd460eb782e6494be78"}], "txid": "584cc4485518a971a08c4c4c87264130e0a31435b38340ec51fb8b660b728f8c", "blocktime": 1537872475, "version": 1, "confirmations": 11486, "time": 1537872475, "locktime": 0, "vsize": 191, "size": 191}