{"hash": "fd602813a15e5092c6cda41b34299f293acb902cc1f78ce6f53162e7a33286be", "blockhash": "0000000000000000000baef3f32e3676a92c3b2e5da21b426e4f302fc371ce76", "vout": [{"scriptPubKey": {"reqSigs": 1, "hex": "76a914635078c29f34379a4920b5f093b9502a420420bc88ac", "addresses": ["1A48JGLAX4KHEmH8FvDxT7tZgWBKEyMtSo"], "asm": "OP_DUP OP_HASH160 635078c29f34379a4920b5f093b9502a420420bc OP_EQUALVERIFY OP_CHECKSIG", "type": "pubkeyhash"}, "value": 0.044, "n": 0}, {"scriptPubKey": {"reqSigs": 1, "hex": "a914f2d33f150cc04fbb07c049763d52f8a0dd82130887", "addresses": ["3PpxWdCZQei2hf11MnEhkoBs1VxNnSfP6F"], "asm": "OP_HASH160 f2d33f150cc04fbb07c049763d52f8a0dd821308 OP_EQUAL", "type": "scripthash"}, "value": 1.06049818, "n": 1}], "hex": "02000000000101c7985f5a445dc66ce71e19f9764aa2077d0ef07aa4ed8f6e76ba61212ba0b09b0000000017160014f4ca1ec86f297e69def379ab83779cee947eb37effffffff0280234300000000001976a914635078c29f34379a4920b5f093b9502a420420bc88ac1a3152060000000017a914f2d33f150cc04fbb07c049763d52f8a0dd82130887024730440220590396a705e525a4bee43eaa99277550bf3237bf11ae47840ec77a6a46f2e946022023961c04693fa0af163a3aab0d4bfab5c898271a7cdff732d95dc3615a98af0e012102154c65a8b5519e0a981bf05a271710a41e60aa840e06c2d31b57d16d777dad5e00000000", "vin": [{"txinwitness": ["30440220590396a705e525a4bee43eaa99277550bf3237bf11ae47840ec77a6a46f2e946022023961c04693fa0af163a3aab0d4bfab5c898271a7cdff732d95dc3615a98af0e01", "02154c65a8b5519e0a981bf05a271710a41e60aa840e06c2d31b57d16d777dad5e"], "sequence": 4294967295, "scriptSig": {"hex": "160014f4ca1ec86f297e69def379ab83779cee947eb37e", "asm": "0014f4ca1ec86f297e69def379ab83779cee947eb37e"}, "vout": 0, "txid": "9bb0a02b2161ba766e8feda47af00e7d07a24a76f9191ee76cc65d445a5f98c7"}], "txid": "5851d32389f660abf86ca24723ca77f78fbf3b0b0525ba13fe9b808ff9ed39cb", "blocktime": 1537876114, "version": 2, "confirmations": 11460, "time": 1537876114, "locktime": 0, "vsize": 168, "size": 249}