{"hash": "528d63b4ba0d2498347406e45ce722985daacdf75a75248d154b5d4c3ea9a34a", "blockhash": "0000000000000000001cda96e906b7601b7a6fb1a3b62bca570a9e5d8f4b3de1", "vout": [{"scriptPubKey": {"reqSigs": 1, "hex": "a9146cb09a7c48ce654d2629fba82b5c78151051914787", "addresses": ["3BbiTtH19e2Si95NPeR7y3oyzdZhEhGtqX"], "asm": "OP_HASH160 6cb09a7c48ce654d2629fba82b5c781510519147 OP_EQUAL", "type": "scripthash"}, "value": 0.0028856, "n": 0}, {"scriptPubKey": {"reqSigs": 1, "hex": "a91493b2ce377c864f7c7b3eef6a89fca75d8e95e1aa87", "addresses": ["3F9yTNN3ByZkoETcfu8YVRjjL2HPTgxAbJ"], "asm": "OP_HASH160 93b2ce377c864f7c7b3eef6a89fca75d8e95e1aa OP_EQUAL", "type": "scripthash"}, "value": 0.00574194, "n": 1}, {"scriptPubKey": {"reqSigs": 1, "hex": "76a9143d3d40565888362187f3e4da8a3e22989c58dcbb88ac", "addresses": ["16aobX2uQcQYfDk1r8SBbr2mXtzFbPcfPq"], "asm": "OP_DUP OP_HASH160 3d3d40565888362187f3e4da8a3e22989c58dcbb OP_EQUALVERIFY OP_CHECKSIG", "type": "pubkeyhash"}, "value": 0.04640372, "n": 2}, {"scriptPubKey": {"reqSigs": 1, "hex": "a914e3962fbd8c652bb3430bb9149690e4969ceb7c7887", "addresses": ["3NSPEEFSpqjz5bKXqjTzRn2mCi4wuLvBD5"], "asm": "OP_HASH160 e3962fbd8c652bb3430bb9149690e4969ceb7c78 OP_EQUAL", "type": "scripthash"}, "value": 0.00440432, "n": 3}, {"scriptPubKey": {"reqSigs": 1, "hex": "a91448021413cc9e1027a66c95825e408deaabbae78c87", "addresses": ["38Fm4mT5wCv2sQvfihkkCcTbrdmND3dZVC"], "asm": "OP_HASH160 48021413cc9e1027a66c95825e408deaabbae78c OP_EQUAL", "type": "scripthash"}, "value": 0.003, "n": 4}, {"scriptPubKey": {"reqSigs": 1, "hex": "a914d9fc1e75f618f836b8b1a14d03248fa64865e7a287", "addresses": ["3MZcahruG4mtEZ5S24peRBgdYpGLNUMEGu"], "asm": "OP_HASH160 d9fc1e75f618f836b8b1a14d03248fa64865e7a2 OP_EQUAL", "type": "scripthash"}, "value": 0.00260487, "n": 5}, {"scriptPubKey": {"reqSigs": 1, "hex": "76a914a4224ba4b84adbac5bbf409f16eacb05afb6b3e688ac", "addresses": ["1FxruMRMAjnjVDCJgAkS175Vkt8op4SXgV"], "asm": "OP_DUP OP_HASH160 a4224ba4b84adbac5bbf409f16eacb05afb6b3e6 OP_EQUALVERIFY OP_CHECKSIG", "type": "pubkeyhash"}, "value": 0.0020987, "n": 6}, {"scriptPubKey": {"reqSigs": 1, "hex": "a914f4bbb5ed1f3eacb1ab9715f5721a8e8fa4ab603487", "addresses": ["3Q13fiRLXaRks4oa17Har1DuwNUhrFnc2V"], "asm": "OP_HASH160 f4bbb5ed1f3eacb1ab9715f5721a8e8fa4ab6034 OP_EQUAL", "type": "scripthash"}, "value": 0.00358438, "n": 7}, {"scriptPubKey": {"reqSigs": 1, "hex": "a9143e0352b383acd0a38f665ad63fd0baa7025a38e687", "addresses": ["37LuoKv1ERzBC2UvzJcXg8Voftgwdzfs9R"], "asm": "OP_HASH160 3e0352b383acd0a38f665ad63fd0baa7025a38e6 OP_EQUAL", "type": "scripthash"}, "value": 0.00216484, "n": 8}, {"scriptPubKey": {"reqSigs": 1, "hex": "a91411060faa7d7aa7dbc8c9e6ae25507d1e8340c73d87", "addresses": ["33F2fwiCXjF3yEztcKuj5kaJbspnruq9dz"], "asm": "OP_HASH160 11060faa7d7aa7dbc8c9e6ae25507d1e8340c73d OP_EQUAL", "type": "scripthash"}, "value": 0.0026244, "n": 9}, {"scriptPubKey": {"reqSigs": 1, "hex": "a914ab9dedc2ef8184b072dcefaf639e4e77413f4c5787", "addresses": ["3HLSfRqfJHnP4HqPgaSEAFYEGtAgAP5Qnn"], "asm": "OP_HASH160 ab9dedc2ef8184b072dcefaf639e4e77413f4c57 OP_EQUAL", "type": "scripthash"}, "value": 0.00303112, "n": 10}, {"scriptPubKey": {"reqSigs": 1, "hex": "76a914bfa9875ed42756490dd092846bf8c5b444a1e5f788ac", "addresses": ["1JUR9hydkjQeDEiBcrbyGru2djQnNMYxaQ"], "asm": "OP_DUP OP_HASH160 bfa9875ed42756490dd092846bf8c5b444a1e5f7 OP_EQUALVERIFY OP_CHECKSIG", "type": "pubkeyhash"}, "value": 0.13426767, "n": 11}, {"scriptPubKey": {"reqSigs": 1, "hex": "a9149878c70423eb60cd9c33a88e9e312b0154d4bdc287", "addresses": ["3FbDKTptZiifK52Ms4ZEVn6voXtokA5tk7"], "asm": "OP_HASH160 9878c70423eb60cd9c33a88e9e312b0154d4bdc2 OP_EQUAL", "type": "scripthash"}, "value": 0.01249998, "n": 12}, {"scriptPubKey": {"reqSigs": 1, "hex": "a914083852239876877f1a32e232a7521f58be262c5a87", "addresses": ["32SUoKWuUMkZVKhNAPbX8UzMmVTTJ2rGks"], "asm": "OP_HASH160 083852239876877f1a32e232a7521f58be262c5a OP_EQUAL", "type": "scripthash"}, "value": 0.00166158, "n": 13}, {"scriptPubKey": {"reqSigs": 1, "hex": "a914609e03ac0c6377b476cf40193b4696faf5c4366987", "addresses": ["3AVt5zHodaRXMgn78EGYDawQeNtEwDsY8g"], "asm": "OP_HASH160 609e03ac0c6377b476cf40193b4696faf5c43669 OP_EQUAL", "type": "scripthash"}, "value": 0.0064116, "n": 14}, {"scriptPubKey": {"reqSigs": 1, "hex": "76a9148045be62b578cb76d8aaa49ff4de2e1400f2ce7888ac", "addresses": ["1ChF3S1AjfYqKAeqoKWKf9TaqBfM1tMNYZ"], "asm": "OP_DUP OP_HASH160 8045be62b578cb76d8aaa49ff4de2e1400f2ce78 OP_EQUALVERIFY OP_CHECKSIG", "type": "pubkeyhash"}, "value": 0.00457003, "n": 15}, {"scriptPubKey": {"reqSigs": 1, "hex": "a914a837ca55f6773e68b828f0783f0b269c45c7c27487", "addresses": ["3H2UH9uiwBxbZyJsWS5YVH1gnwcKvp3wkq"], "asm": "OP_HASH160 a837ca55f6773e68b828f0783f0b269c45c7c274 OP_EQUAL", "type": "scripthash"}, "value": 0.00456361, "n": 16}, {"scriptPubKey": {"reqSigs": 1, "hex": "a914c3e08224c92acd315e29ff8ca3dea5893ce71fd987", "addresses": ["3KYie4nAvXYZWMKWoeuGR2kn9ikjm8LuJ9"], "asm": "OP_HASH160 c3e08224c92acd315e29ff8ca3dea5893ce71fd9 OP_EQUAL", "type": "scripthash"}, "value": 0.0036, "n": 17}, {"scriptPubKey": {"reqSigs": 1, "hex": "a9143e66ec342b4187c1c8b298c0905e35b8c443563f87", "addresses": ["37Ny7dUsfqr6Cw3KtU3E8Dhyr4ipGr5uww"], "asm": "OP_HASH160 3e66ec342b4187c1c8b298c0905e35b8c443563f OP_EQUAL", "type": "scripthash"}, "value": 0.02904131, "n": 18}, {"scriptPubKey": {"reqSigs": 1, "hex": "76a9141a8fd90a06897a460f3683e6a69583e27fae144088ac", "addresses": ["13RSti6iSXFUhfSrRYVtGuFq2fxsLK26iS"], "asm": "OP_DUP OP_HASH160 1a8fd90a06897a460f3683e6a69583e27fae1440 OP_EQUALVERIFY OP_CHECKSIG", "type": "pubkeyhash"}, "value": 0.00457428, "n": 19}, {"scriptPubKey": {"reqSigs": 1, "hex": "a91484bfb651acae575f615bb6ca800b75fb8bc8ba5287", "addresses": ["3DnvnG7fahFevAVWZ9h7DHtU8WMNGyqhvG"], "asm": "OP_HASH160 84bfb651acae575f615bb6ca800b75fb8bc8ba52 OP_EQUAL", "type": "scripthash"}, "value": 46.39788133, "n": 20}, {"scriptPubKey": {"reqSigs": 1, "hex": "a914f6f8f919b07a8e56aa7258d73ae4ef72b95bc66c87", "addresses": ["3QCtQgfamqGw2XE6vATteHjiHLRX7B3e57"], "asm": "OP_HASH160 f6f8f919b07a8e56aa7258d73ae4ef72b95bc66c OP_EQUAL", "type": "scripthash"}, "value": 0.00192157, "n": 21}, {"scriptPubKey": {"reqSigs": 1, "hex": "a914eb7bbeb54eac801b968c964d98264bb7e9220cab87", "addresses": ["3PA8xaFKsagiLMGxfNbZSyBC7jxPVmY63g"], "asm": "OP_HASH160 eb7bbeb54eac801b968c964d98264bb7e9220cab OP_EQUAL", "type": "scripthash"}, "value": 0.0026084, "n": 22}, {"scriptPubKey": {"reqSigs": 1, "hex": "a914e6e6f746f8663275a3594a23ac7c6927fee769b287", "addresses": ["3Njv2TZE6fBaKqw1jsju7GQHP3GyyjosuC"], "asm": "OP_HASH160 e6e6f746f8663275a3594a23ac7c6927fee769b2 OP_EQUAL", "type": "scripthash"}, "value": 0.00400679, "n": 23}, {"scriptPubKey": {"reqSigs": 1, "hex": "a91412024775a8dc83d4cea02b43bd21f4731df98b1887", "addresses": ["33LEpMVKMVsSbiLT3beP6JvWQygZYbecT3"], "asm": "OP_HASH160 12024775a8dc83d4cea02b43bd21f4731df98b18 OP_EQUAL", "type": "scripthash"}, "value": 0.00374854, "n": 24}, {"scriptPubKey": {"reqSigs": 1, "hex": "76a9148c7c3a862e70d0a7a423f642e827811f2938f54688ac", "addresses": ["1DopRQrwuPdeyjsnjwEDQ6truvKTqUeVMc"], "asm": "OP_DUP OP_HASH160 8c7c3a862e70d0a7a423f642e827811f2938f546 OP_EQUALVERIFY OP_CHECKSIG", "type": "pubkeyhash"}, "value": 0.03321404, "n": 25}, {"scriptPubKey": {"reqSigs": 1, "hex": "a91400319c890e93eea1c67650bba77db49a90f240f787", "addresses": ["31i3McGUXv6t33EQEDJGRbRSb3uY7Ef7Mc"], "asm": "OP_HASH160 00319c890e93eea1c67650bba77db49a90f240f7 OP_EQUAL", "type": "scripthash"}, "value": 0.00016934, "n": 26}, {"scriptPubKey": {"reqSigs": 1, "hex": "76a914c7b7554e7d5fc45d1e2c899cd8fe2b6db82e1d9f88ac", "addresses": ["1KD16Pe1wkDaaP9eKgEyhk4rjR7gQxdTwe"], "asm": "OP_DUP OP_HASH160 c7b7554e7d5fc45d1e2c899cd8fe2b6db82e1d9f OP_EQUALVERIFY OP_CHECKSIG", "type": "pubkeyhash"}, "value": 0.347715, "n": 27}, {"scriptPubKey": {"reqSigs": 1, "hex": "a91475ea990cb83829a32fc71ac30a88cf8f96bd89be87", "addresses": ["3CSW28dMtsHSzq8yWL6XKnLdCrcfj8UDjk"], "asm": "OP_HASH160 75ea990cb83829a32fc71ac30a88cf8f96bd89be OP_EQUAL", "type": "scripthash"}, "value": 0.0207406, "n": 28}], "hex": "02000000000101455fca6a38cd7680c11b9f09234be14b64537978c73ce4998e33dd308873e22e04000000171600145b211cb745969610a0c5106a0df11b5ef5e7d701feffffff1d306704000000000017a9146cb09a7c48ce654d2629fba82b5c78151051914787f2c208000000000017a91493b2ce377c864f7c7b3eef6a89fca75d8e95e1aa8774ce4600000000001976a9143d3d40565888362187f3e4da8a3e22989c58dcbb88ac70b806000000000017a914e3962fbd8c652bb3430bb9149690e4969ceb7c7887e09304000000000017a91448021413cc9e1027a66c95825e408deaabbae78c8787f903000000000017a914d9fc1e75f618f836b8b1a14d03248fa64865e7a287ce330300000000001976a914a4224ba4b84adbac5bbf409f16eacb05afb6b3e688ac267805000000000017a914f4bbb5ed1f3eacb1ab9715f5721a8e8fa4ab603487a44d03000000000017a9143e0352b383acd0a38f665ad63fd0baa7025a38e687280104000000000017a91411060faa7d7aa7dbc8c9e6ae25507d1e8340c73d8708a004000000000017a914ab9dedc2ef8184b072dcefaf639e4e77413f4c57874fe0cc00000000001976a914bfa9875ed42756490dd092846bf8c5b444a1e5f788acce1213000000000017a9149878c70423eb60cd9c33a88e9e312b0154d4bdc2870e8902000000000017a914083852239876877f1a32e232a7521f58be262c5a8788c809000000000017a914609e03ac0c6377b476cf40193b4696faf5c43669872bf90600000000001976a9148045be62b578cb76d8aaa49ff4de2e1400f2ce7888aca9f606000000000017a914a837ca55f6773e68b828f0783f0b269c45c7c27487407e05000000000017a914c3e08224c92acd315e29ff8ca3dea5893ce71fd98743502c000000000017a9143e66ec342b4187c1c8b298c0905e35b8c443563f87d4fa0600000000001976a9141a8fd90a06897a460f3683e6a69583e27fae144088ac658c8d140100000017a91484bfb651acae575f615bb6ca800b75fb8bc8ba52879dee02000000000017a914f6f8f919b07a8e56aa7258d73ae4ef72b95bc66c87e8fa03000000000017a914eb7bbeb54eac801b968c964d98264bb7e9220cab87271d06000000000017a914e6e6f746f8663275a3594a23ac7c6927fee769b28746b805000000000017a91412024775a8dc83d4cea02b43bd21f4731df98b18873cae3200000000001976a9148c7c3a862e70d0a7a423f642e827811f2938f54688ac264200000000000017a91400319c890e93eea1c67650bba77db49a90f240f7872c921202000000001976a914c7b7554e7d5fc45d1e2c899cd8fe2b6db82e1d9f88accca51f000000000017a91475ea990cb83829a32fc71ac30a88cf8f96bd89be870247304402204e1ec7cc86ae394b1667fbee5fab6efc909766e407c4073cfda3b9e9f707625b02207250e31e3f2dcdf8f4494c88be97931a55b25d84d8ad59f8de52d1d6ad0d5789012102da3b7cc2ab56e40043baf9acc8eadd973e339e64a3bc5c4177e5489ecb69e08813490800", "vin": [{"txinwitness": ["304402204e1ec7cc86ae394b1667fbee5fab6efc909766e407c4073cfda3b9e9f707625b02207250e31e3f2dcdf8f4494c88be97931a55b25d84d8ad59f8de52d1d6ad0d578901", "02da3b7cc2ab56e40043baf9acc8eadd973e339e64a3bc5c4177e5489ecb69e088"], "sequence": 4294967294, "scriptSig": {"hex": "1600145b211cb745969610a0c5106a0df11b5ef5e7d701", "asm": "00145b211cb745969610a0c5106a0df11b5ef5e7d701"}, "vout": 4, "txid": "2ee2738830dd338e99e43cc7787953644be14b23099f1bc18076cd386aca5f45"}], "txid": "585f5bac35d9bf71f7c5ae318d8cd0b265c52bb92b3f79a98fad333d35566818", "blocktime": 1537873282, "version": 2, "confirmations": 11481, "time": 1537873282, "locktime": 542995, "vsize": 1044, "size": 1125}