{"hash": "e9f27549b61160a30c9bca997ee9272f0029e6222c6b50ae0a0d759c2ccc6ef7", "blockhash": "00000000000000000017f5eb5941039fbcee6240d03bc1f2f8e35350df66a1d8", "vout": [{"scriptPubKey": {"reqSigs": 1, "hex": "a914e097bf872d683ca11187b974604c4715fb812ed987", "addresses": ["3NAZ5AGEMrGSfK9MrFWRxZq4vn3M37eyE3"], "asm": "OP_HASH160 e097bf872d683ca11187b974604c4715fb812ed9 OP_EQUAL", "type": "scripthash"}, "value": 0.014, "n": 0}, {"scriptPubKey": {"reqSigs": 1, "hex": "0014545a3076e47b9f1e1e65a72cbbd0c99decc66756", "addresses": ["bc1q23drqahy0w03u8n95ukth5xfnhkvve6k48lcm7"], "asm": "0 545a3076e47b9f1e1e65a72cbbd0c99decc66756", "type": "witness_v0_keyhash"}, "value": 0.00030703, "n": 1}], "hex": "01000000000101cc58fd250bce64ddf40a269960cd0fac5aa5a212d7a98dd54e4fbd0c4e1796470000000000ffffffff02c05c15000000000017a914e097bf872d683ca11187b974604c4715fb812ed987ef77000000000000160014545a3076e47b9f1e1e65a72cbbd0c99decc6675602483045022100f089db0fee4ba703f0253b604520b3f76247a3b6f8d22582bde527b1001d7fed02205ae48e447e53390b263a37255c4c904ac2b12574a6d513574acaec9caa0d3f2c012102e4c9afebc3923ff2b34619ca51765f98a7c3015196d03a8c3dce0ca2151d68d400000000", "vin": [{"txinwitness": ["3045022100f089db0fee4ba703f0253b604520b3f76247a3b6f8d22582bde527b1001d7fed02205ae48e447e53390b263a37255c4c904ac2b12574a6d513574acaec9caa0d3f2c01", "02e4c9afebc3923ff2b34619ca51765f98a7c3015196d03a8c3dce0ca2151d68d4"], "sequence": 4294967295, "scriptSig": {"hex": "", "asm": ""}, "vout": 0, "txid": "4796174e0cbd4f4ed58da9d712a2a55aac0fcd6099260af4dd64ce0b25fd58cc"}], "txid": "586590ec7604e41e1885bf2c102fbc4bae26392e0b0416faf6e678fa7562375e", "blocktime": 1537874412, "version": 1, "confirmations": 11467, "time": 1537874412, "locktime": 0, "vsize": 142, "size": 224}