{"hash": "586adc29f655e88831c095eca4ff55a3db4b5e6841b18d9c2ca4ec6d52ba6a28", "blockhash": "0000000000000000001e0dab787dd257d1dbfcb92a98c2207d5e1078be1f4165", "vout": [{"scriptPubKey": {"type": "nulldata", "hex": "6a4c50000077bc0001c3bd13c224aaea86eb8b9a95e5bf9ae76da98a211aaf6c953dd567cf27e717bec04e98f481516d0dd5eb94374f945baa121906130c1b5edcf4b41d100759d4ba30d2c37bb011d97e02cf", "asm": "OP_RETURN 000077bc0001c3bd13c224aaea86eb8b9a95e5bf9ae76da98a211aaf6c953dd567cf27e717bec04e98f481516d0dd5eb94374f945baa121906130c1b5edcf4b41d100759d4ba30d2c37bb011d97e02cf"}, "value": 0.0, "n": 0}, {"scriptPubKey": {"reqSigs": 1, "hex": "76a9149c7546e2b55ef24a933f75414e3276f16fbf771088ac", "addresses": ["1FGGuU6d58EvE8mVrTWBzwJxUAsp33xvUx"], "asm": "OP_DUP OP_HASH160 9c7546e2b55ef24a933f75414e3276f16fbf7710 OP_EQUALVERIFY OP_CHECKSIG", "type": "pubkeyhash"}, "value": 0.00640106, "n": 1}], "hex": "0100000001548b9fc1fd1dd24432d007dd0112dce0a28cd74fb077babb0e6f65f4bb9f09ab010000006b483045022100ab9ae99b5c1cd7a524b647123d6328d3dd92a3e51ff9cb5204e0cf65de3c4b970220157e4d4dba282378f76d9339d9fd5f438b33a2117338c365803ef7c0620da7f601210384d85555def22a14f09d7a08c20e967e7f301c71a15e20b5a467b8908adda38bffffffff020000000000000000536a4c50000077bc0001c3bd13c224aaea86eb8b9a95e5bf9ae76da98a211aaf6c953dd567cf27e717bec04e98f481516d0dd5eb94374f945baa121906130c1b5edcf4b41d100759d4ba30d2c37bb011d97e02cf6ac40900000000001976a9149c7546e2b55ef24a933f75414e3276f16fbf771088ac00000000", "vin": [{"sequence": 4294967295, "scriptSig": {"hex": "483045022100ab9ae99b5c1cd7a524b647123d6328d3dd92a3e51ff9cb5204e0cf65de3c4b970220157e4d4dba282378f76d9339d9fd5f438b33a2117338c365803ef7c0620da7f601210384d85555def22a14f09d7a08c20e967e7f301c71a15e20b5a467b8908adda38b", "asm": "3045022100ab9ae99b5c1cd7a524b647123d6328d3dd92a3e51ff9cb5204e0cf65de3c4b970220157e4d4dba282378f76d9339d9fd5f438b33a2117338c365803ef7c0620da7f6[ALL] 0384d85555def22a14f09d7a08c20e967e7f301c71a15e20b5a467b8908adda38b"}, "vout": 1, "txid": "ab099fbbf4656f0ebbba77b04fd78ca2e0dc1201dd07d03244d21dfdc19f8b54"}], "txid": "586adc29f655e88831c095eca4ff55a3db4b5e6841b18d9c2ca4ec6d52ba6a28", "blocktime": 1537872475, "version": 1, "confirmations": 11486, "time": 1537872475, "locktime": 0, "vsize": 284, "size": 284}