{"hash": "aee9a074ae2c9f65ade88ab96b65fbb670351fad1f7e76ca7e4bb3f86e2c2865", "blockhash": "0000000000000000000baef3f32e3676a92c3b2e5da21b426e4f302fc371ce76", "vout": [{"scriptPubKey": {"reqSigs": 1, "hex": "76a914c8e01e2df7b3ee1f4deb7fe5bd30a9595a35814088ac", "addresses": ["1KK8dMJQKJo2G7GnCg46UnYB4QSAdk8wWd"], "asm": "OP_DUP OP_HASH160 c8e01e2df7b3ee1f4deb7fe5bd30a9595a358140 OP_EQUALVERIFY OP_CHECKSIG", "type": "pubkeyhash"}, "value": 0.0079344, "n": 0}, {"scriptPubKey": {"reqSigs": 1, "hex": "a9146640a2661fad109970e930c82cdca4ab4a8106c787", "addresses": ["3B1gGz6hUJNg6V2T87221H2Ls7yjEVZZuN"], "asm": "OP_HASH160 6640a2661fad109970e930c82cdca4ab4a8106c7 OP_EQUAL", "type": "scripthash"}, "value": 0.119263, "n": 1}], "hex": "02000000000101fbfeb0518634897552b264f7ce238bca787fc238a73b78150a3d3f2979c1077d000000001716001420ed400071410674405118b653f982c58576f2c0fdffffff02601b0c00000000001976a914c8e01e2df7b3ee1f4deb7fe5bd30a9595a35814088ac1cfbb5000000000017a9146640a2661fad109970e930c82cdca4ab4a8106c78702483045022100bdd262042b81665ccb156b643c98d7f23ce04856c7c870174271eb7a57cd10ea0220251191650d8af132ff9522679cddc9de1c1464d0cba024e2e174743d19392cd7012103b34282b4b48c78b55cd21c2cccfb2e1e7736e3c09167b084ec85e1e67646e40417490800", "vin": [{"txinwitness": ["3045022100bdd262042b81665ccb156b643c98d7f23ce04856c7c870174271eb7a57cd10ea0220251191650d8af132ff9522679cddc9de1c1464d0cba024e2e174743d19392cd701", "03b34282b4b48c78b55cd21c2cccfb2e1e7736e3c09167b084ec85e1e67646e404"], "sequence": 4294967293, "scriptSig": {"hex": "16001420ed400071410674405118b653f982c58576f2c0", "asm": "001420ed400071410674405118b653f982c58576f2c0"}, "vout": 0, "txid": "7d07c179293f3d0a15783ba738c27f78ca8b23cef764b2527589348651b0fefb"}], "txid": "586d07157e4f55c3b923e94df713a303908e2d22321c12e1b14945b5bee6902e", "blocktime": 1537876114, "version": 2, "confirmations": 11459, "time": 1537876114, "locktime": 542999, "vsize": 168, "size": 250}