{"hash": "5873be43a05bd8716bf1e51749c2ccbb0497ad57616a83864ca82cda933ad0ce", "blockhash": "00000000000000000024a2167bbff67b0be802c0b01cdd79e6331c2be6459f87", "vout": [{"scriptPubKey": {"reqSigs": 1, "hex": "76a914f1bb28b56725a70ae590810ece7fb2fedd2875a888ac", "addresses": ["1P3A4GXU1XfqU2ZD8FYWp1ecteXb72Lk2C"], "asm": "OP_DUP OP_HASH160 f1bb28b56725a70ae590810ece7fb2fedd2875a8 OP_EQUALVERIFY OP_CHECKSIG", "type": "pubkeyhash"}, "value": 0.01390597, "n": 0}, {"scriptPubKey": {"reqSigs": 1, "hex": "76a914e45e974120ad02c9404662def9896d6cb992dc5588ac", "addresses": ["1MpWP2PZEWvCqvEFCyb1cwkFKvWGdwW8s4"], "asm": "OP_DUP OP_HASH160 e45e974120ad02c9404662def9896d6cb992dc55 OP_EQUALVERIFY OP_CHECKSIG", "type": "pubkeyhash"}, "value": 0.012683, "n": 1}], "hex": "01000000013ff044c1d0c8100e776e649d93bb8c349a9d63ab4681a0db667b229d284ea95d010000006b483045022100c8323e1ed9c398b2f0df94258792275b93bea3e6b38aa0623da2bf7fc0071fef02200e02ae9d0bc52710e8291e43213864d9d9940ad38115bb7965da2c2a0ca82b130121027be14a25292dc87e6a1d8004999f29963cdf627b3755632dd69e711baa0a543effffffff0205381500000000001976a914f1bb28b56725a70ae590810ece7fb2fedd2875a888ac4c5a1300000000001976a914e45e974120ad02c9404662def9896d6cb992dc5588ac00000000", "vin": [{"sequence": 4294967295, "scriptSig": {"hex": "483045022100c8323e1ed9c398b2f0df94258792275b93bea3e6b38aa0623da2bf7fc0071fef02200e02ae9d0bc52710e8291e43213864d9d9940ad38115bb7965da2c2a0ca82b130121027be14a25292dc87e6a1d8004999f29963cdf627b3755632dd69e711baa0a543e", "asm": "3045022100c8323e1ed9c398b2f0df94258792275b93bea3e6b38aa0623da2bf7fc0071fef02200e02ae9d0bc52710e8291e43213864d9d9940ad38115bb7965da2c2a0ca82b13[ALL] 027be14a25292dc87e6a1d8004999f29963cdf627b3755632dd69e711baa0a543e"}, "vout": 1, "txid": "5da94e289d227b66dba08146ab639d9a348cbb939d646e770e10c8d0c144f03f"}], "txid": "5873be43a05bd8716bf1e51749c2ccbb0497ad57616a83864ca82cda933ad0ce", "blocktime": 1537870564, "version": 1, "confirmations": 11515, "time": 1537870564, "locktime": 0, "vsize": 226, "size": 226}