{"hash": "62cf84bd7f24ba114cf78888bbfd6020db7d71d308b3a412ef8afe827e408f5c", "blockhash": "000000000000000000022b45ed06c6f4ccd3cf7fb5ba4856ebd2e58215665228", "vout": [{"scriptPubKey": {"reqSigs": 1, "hex": "76a91430632ab5aff2b145bb4fecebb88db4081bda79e588ac", "addresses": ["15QrESYJCz5DbadpNrVzy1bjp91RAqeTeP"], "asm": "OP_DUP OP_HASH160 30632ab5aff2b145bb4fecebb88db4081bda79e5 OP_EQUALVERIFY OP_CHECKSIG", "type": "pubkeyhash"}, "value": 0.01574584, "n": 0}, {"scriptPubKey": {"reqSigs": 1, "hex": "76a9147f4dd6c9442e31e0b16bc669ffb3691425c4afb788ac", "addresses": ["1Cc84iGoZrXC1JmagmKPLgRswx3UQzCWaE"], "asm": "OP_DUP OP_HASH160 7f4dd6c9442e31e0b16bc669ffb3691425c4afb7 OP_EQUALVERIFY OP_CHECKSIG", "type": "pubkeyhash"}, "value": 0.11577398, "n": 1}], "hex": "0200000000010355d1f0561d43abd01dc2625c61dbb2b9ce099e40e8bc87c82bc648f8d7973c29000000006b483045022100b4cff18e0803d8e7eb60dece4f61e2789968951ffa9ae6f41acedadb1ae0d3b702200ace36b98895a47254d3a004f1df92b37c70cf803dc6ffeb50fb6a13f12363430121033387493a1221c181b149110994d56f20a0883ba32ac0ebecdf4eb212bf9cf334feffffff967c0cbe22edb8da0c718bd7562b08b1cf53d141b3ac077cbe42b5ad4476d0430000000017160014c65081b74e16de0a6ddad651e55fc9cfe65b0ff8feffffffad7e403f61caf25c6e152a4b63d5600b4cce2971183d016885fa62cffdc0e8fc010000006a47304402205d127692f16f8270a557d5b59ad69603ce7e6d396d41fe243faa32832a73572b0220520eb4ed3f9be228688a60beaf34e22c5c175b1ed17afe4867fd5090b0694f970121025d571fe6c828fbfe0265efe97059c37346ae1f417c5763ce74bb86fc53a325d9feffffff02b8061800000000001976a91430632ab5aff2b145bb4fecebb88db4081bda79e588ac36a8b000000000001976a9147f4dd6c9442e31e0b16bc669ffb3691425c4afb788ac00024830450221008769341f32bc52576bd1f1bb252d57d5fd804e2ca29fc3f233dc31c2b132669502202af059bb985619fa386ddaf8ee510a2542d16312dabfcd69946e722bfe29276b012102092b845cbfe6046bf83592162821b1936728e1471f70725036e022ce8b81bbaa000b490800", "vin": [{"sequence": 4294967294, "scriptSig": {"hex": "483045022100b4cff18e0803d8e7eb60dece4f61e2789968951ffa9ae6f41acedadb1ae0d3b702200ace36b98895a47254d3a004f1df92b37c70cf803dc6ffeb50fb6a13f12363430121033387493a1221c181b149110994d56f20a0883ba32ac0ebecdf4eb212bf9cf334", "asm": "3045022100b4cff18e0803d8e7eb60dece4f61e2789968951ffa9ae6f41acedadb1ae0d3b702200ace36b98895a47254d3a004f1df92b37c70cf803dc6ffeb50fb6a13f1236343[ALL] 033387493a1221c181b149110994d56f20a0883ba32ac0ebecdf4eb212bf9cf334"}, "vout": 0, "txid": "293c97d7f848c62bc887bce8409e09ceb9b2db615c62c21dd0ab431d56f0d155"}, {"txinwitness": ["30450221008769341f32bc52576bd1f1bb252d57d5fd804e2ca29fc3f233dc31c2b132669502202af059bb985619fa386ddaf8ee510a2542d16312dabfcd69946e722bfe29276b01", "02092b845cbfe6046bf83592162821b1936728e1471f70725036e022ce8b81bbaa"], "sequence": 4294967294, "scriptSig": {"hex": "160014c65081b74e16de0a6ddad651e55fc9cfe65b0ff8", "asm": "0014c65081b74e16de0a6ddad651e55fc9cfe65b0ff8"}, "vout": 0, "txid": "43d07644adb542be7c07acb341d153cfb1082b56d78b710cdab8ed22be0c7c96"}, {"sequence": 4294967294, "scriptSig": {"hex": "47304402205d127692f16f8270a557d5b59ad69603ce7e6d396d41fe243faa32832a73572b0220520eb4ed3f9be228688a60beaf34e22c5c175b1ed17afe4867fd5090b0694f970121025d571fe6c828fbfe0265efe97059c37346ae1f417c5763ce74bb86fc53a325d9", "asm": "304402205d127692f16f8270a557d5b59ad69603ce7e6d396d41fe243faa32832a73572b0220520eb4ed3f9be228688a60beaf34e22c5c175b1ed17afe4867fd5090b0694f97[ALL] 025d571fe6c828fbfe0265efe97059c37346ae1f417c5763ce74bb86fc53a325d9"}, "vout": 1, "txid": "fce8c0fdcf62fa8568013d187129ce4c0b60d5634b2a156e5cf2ca613f407ead"}], "txid": "587c3ae6af4afc6c981e312ae6113b9da4a4f61e4c2c7aef03848af7dc337275", "blocktime": 1537869901, "version": 2, "confirmations": 11522, "time": 1537869901, "locktime": 542987, "vsize": 465, "size": 549}