{"hash": "587f9f975e955044360eeb7cc3e05f01f89e68e9d4a69d56188e83eb3aec7bb5", "blockhash": "0000000000000000001f76057863aec43deb6fa401d9628bb513d65a8098bfab", "vout": [{"scriptPubKey": {"reqSigs": 1, "hex": "76a914618abd0173a4cc21d5cbd0801236e62c66439bc188ac", "addresses": ["19tkkKCr7X1oZU2fTTjjxTFpKBDggwh47s"], "asm": "OP_DUP OP_HASH160 618abd0173a4cc21d5cbd0801236e62c66439bc1 OP_EQUALVERIFY OP_CHECKSIG", "type": "pubkeyhash"}, "value": 0.00034697, "n": 0}, {"scriptPubKey": {"reqSigs": 1, "hex": "76a9149e8b5e48e4494609000b6accf55d7386841932c088ac", "addresses": ["1FTJinjJ8gFHWnxmpL27WhqDmEGVHCucmP"], "asm": "OP_DUP OP_HASH160 9e8b5e48e4494609000b6accf55d7386841932c0 OP_EQUALVERIFY OP_CHECKSIG", "type": "pubkeyhash"}, "value": 0.003424, "n": 1}], "hex": "010000000105ac0b473c9bd6e8cd185403d75db6ee6eac0aa3d239239511152d6bd677ab18000000006a47304402202c7a4213f1d30255168e38c591787aa03a9ac890f98bf581731718e504f23c730220346ef90337671b973edb78f050ed4a8285a4dd0a57f384d90a083acea5634c0e0121039c248e87e3a2641a826e4c90e91eff43cf1a7f49a753acc37e4f2995239a5c43ffffffff0289870000000000001976a914618abd0173a4cc21d5cbd0801236e62c66439bc188ac80390500000000001976a9149e8b5e48e4494609000b6accf55d7386841932c088ac00000000", "vin": [{"sequence": 4294967295, "scriptSig": {"hex": "47304402202c7a4213f1d30255168e38c591787aa03a9ac890f98bf581731718e504f23c730220346ef90337671b973edb78f050ed4a8285a4dd0a57f384d90a083acea5634c0e0121039c248e87e3a2641a826e4c90e91eff43cf1a7f49a753acc37e4f2995239a5c43", "asm": "304402202c7a4213f1d30255168e38c591787aa03a9ac890f98bf581731718e504f23c730220346ef90337671b973edb78f050ed4a8285a4dd0a57f384d90a083acea5634c0e[ALL] 039c248e87e3a2641a826e4c90e91eff43cf1a7f49a753acc37e4f2995239a5c43"}, "vout": 0, "txid": "18ab77d66b2d1511952339d2a30aac6eeeb65dd7035418cde8d69b3c470bac05"}], "txid": "587f9f975e955044360eeb7cc3e05f01f89e68e9d4a69d56188e83eb3aec7bb5", "blocktime": 1537873891, "version": 1, "confirmations": 11478, "time": 1537873891, "locktime": 0, "vsize": 225, "size": 225}