{"hash": "5881caf7c65a59ebdf463cb4177c9b908df1e2b329b8c0c9c1b8d2ad3795de24", "blockhash": "0000000000000000000e13cef7c366c0283d82e591d1acd082e914b08063cdf1", "vout": [{"scriptPubKey": {"type": "nulldata", "hex": "6a4c500000779900017c038179860f3e5d945bd11ae3ef3236678a625097bcbefa6b8351586b4ed902b191a16717d951b634efeebbfc6b5baa0d420614f81402a269edbc9a9526289ac0f6612cd74e33776ee4", "asm": "OP_RETURN 0000779900017c038179860f3e5d945bd11ae3ef3236678a625097bcbefa6b8351586b4ed902b191a16717d951b634efeebbfc6b5baa0d420614f81402a269edbc9a9526289ac0f6612cd74e33776ee4"}, "value": 0.0, "n": 0}, {"scriptPubKey": {"reqSigs": 1, "hex": "76a91467ba00109e4b920cb7c7aeed722fe508cca5c48c88ac", "addresses": ["1ATTRHQ4LUJqjkdhQKH2WUpRJVqgmsUKSj"], "asm": "OP_DUP OP_HASH160 67ba00109e4b920cb7c7aeed722fe508cca5c48c OP_EQUALVERIFY OP_CHECKSIG", "type": "pubkeyhash"}, "value": 0.0010066, "n": 1}], "hex": "0100000001077a6e3d36a2f5dd3d392b404537d64d10df7092f9a03bd47f170f2c2514120d010000006a473044022005070982373feb77ca7c39084b6f5185a29a6a19de1216b0529b5f1f8605bf0a0220781be4baa3e7b1a8ddfae24353d81d9e4c9db6465ca982bc8d41e5462eb1700101210397ef578685a83875b852a829361b3b60ad1155d50072dd987b3b29c501f78e4bffffffff020000000000000000536a4c500000779900017c038179860f3e5d945bd11ae3ef3236678a625097bcbefa6b8351586b4ed902b191a16717d951b634efeebbfc6b5baa0d420614f81402a269edbc9a9526289ac0f6612cd74e33776ee434890100000000001976a91467ba00109e4b920cb7c7aeed722fe508cca5c48c88ac00000000", "vin": [{"sequence": 4294967295, "scriptSig": {"hex": "473044022005070982373feb77ca7c39084b6f5185a29a6a19de1216b0529b5f1f8605bf0a0220781be4baa3e7b1a8ddfae24353d81d9e4c9db6465ca982bc8d41e5462eb1700101210397ef578685a83875b852a829361b3b60ad1155d50072dd987b3b29c501f78e4b", "asm": "3044022005070982373feb77ca7c39084b6f5185a29a6a19de1216b0529b5f1f8605bf0a0220781be4baa3e7b1a8ddfae24353d81d9e4c9db6465ca982bc8d41e5462eb17001[ALL] 0397ef578685a83875b852a829361b3b60ad1155d50072dd987b3b29c501f78e4b"}, "vout": 1, "txid": "0d1214252c0f177fd43ba0f99270df104dd63745402b393dddf5a2363d6e7a07"}], "txid": "5881caf7c65a59ebdf463cb4177c9b908df1e2b329b8c0c9c1b8d2ad3795de24", "blocktime": 1537871767, "version": 1, "confirmations": 11493, "time": 1537871767, "locktime": 0, "vsize": 283, "size": 283}