{"hash": "588595bddf53427ea55bfd77986a656c106a19f37ce260a5eb8950e497eaff58", "blockhash": "0000000000000000001f76057863aec43deb6fa401d9628bb513d65a8098bfab", "vout": [{"scriptPubKey": {"reqSigs": 1, "hex": "a914f8288a7c391f56e0f66785e4bb4a8eaf19061e3987", "addresses": ["3QKA4xDcXJXDaZsoYVGcsHgtANFbqe6cRP"], "asm": "OP_HASH160 f8288a7c391f56e0f66785e4bb4a8eaf19061e39 OP_EQUAL", "type": "scripthash"}, "value": 0.19879, "n": 0}], "hex": "01000000091f75dfc6d0dc67fa1ef06a04881c8c30ba3e14800b07d4b72723a4f61438f48a140000006a473044022058891d3f9c7df8a33af516cae1ddff25ef9eed4fd32b5dfe92d662bb9523b5a502204150fab9e3431716a337e3cfd7770cee6f9f01cb873f77c3643892b752b4d48901210394c29f4148660a6e945e1e2292c3aeb31185e028d37e346f3e5c97b3cc0639b7ffffffffdaceb93d12c15f5ec81fddc23bf5122061353dcee6abe7e6a875c08cfc1b6229260000006b483045022100da52411c40e44a980a81863dbcb164201a6a5a46c121d65c37d05bfe114fb11302200879195f45445d9456503c892ef1d521541e4c83f2151ebfb7fea0a9b23d845201210394c29f4148660a6e945e1e2292c3aeb31185e028d37e346f3e5c97b3cc0639b7ffffffffb6b97a6c903d5dbf76ab0707b827a60b651a69268c89facf75bff4e38a717c82000000006b483045022100c21e58843201e99d4efe25e78d18bd63071e24d3b3aaeb268f8b7053767d86310220609b9a8ee7bf7f870d9d809577e50a46f9bf58b37c8a5f4c232b1fb0a0bbe9900121036c2dabc7dfb61bf34a238b14070487c2da118569a4ee0b7e69200329d826fe4cffffffffcc6edd66c638811d4de9f0d3fab2deac00633976f827aab51cfb6e14839446d32f0000006b483045022100890624f68aad2ddc005d62cb30dfbf60412d2059089d8c77a57849bdd9ddde5a0220093aa24ecd61a6acadc9c6651bb011430268c61d047aab6970533774094b502001210394c29f4148660a6e945e1e2292c3aeb31185e028d37e346f3e5c97b3cc0639b7ffffffff0b02111bcdc0a6f4d93b17b66752abc70cc2a15530698b19a8e32446c068e543900500006b4830450221009dcc073e989fd2fb17ec7659bab93ff507e7a915c4d3385eb16ac326aef610c4022020a521f858a566563f241c95eb512f0d65e2ddfbd8e0c6c2b367c2af05de3e2e01210394c29f4148660a6e945e1e2292c3aeb31185e028d37e346f3e5c97b3cc0639b7ffffffff9bb7c53fbffddf616c8b6037cbd499ccdc8c2715e1317944f015dec954bcdfb3370000006a47304402203de536b6d80ed2c5e9fb943378bf0cf4b3f611699d5c8eeda182f758890c8e55022022d05a161d22e326e95ae2e11fd6d81cea14184732dcc743030979d629128b0501210394c29f4148660a6e945e1e2292c3aeb31185e028d37e346f3e5c97b3cc0639b7ffffffff60b1f3ae566a034f7cc4b9ef92d4cd22fa6b17f5b5022fa9198578dd42dd51842f0000006a47304402201b7c8f7bb288cbb491afe9c71fdd7896225e257121f7f0040b167cc6f63ff937022069873e6a312baee0fbf51b57ea8c6614e1ad9062dbd6a59a4ef7bf38d7fd92de01210394c29f4148660a6e945e1e2292c3aeb31185e028d37e346f3e5c97b3cc0639b7ffffffff865fd783233279d7f76ea07eb2c84eb438f0da216f22205fd2b046b2003d75c93a0000006a473044022006972b787c3ac94704a0bd4a92a67b93579dfbf43c9c6c99eb01c67ec3c84d6902200e0b9b7f0cfcff150ed0708aeaa0763e411ac4de755e1031f1b4c41399ab00ad01210394c29f4148660a6e945e1e2292c3aeb31185e028d37e346f3e5c97b3cc0639b7ffffffffca8d41c2424d85e395e0913c02c1e43f370c0e75c23e51fadff7f53e32ea5b58300500006a47304402207f2d4e4cbee643c93290bf6751fe3944a47cf5f716ae7b581eaee7d061c6e80e022030ae5b28b401dd68fbb8ebb93b7bdbf65e8249b6604400fa5a9e574d6fac9c7501210394c29f4148660a6e945e1e2292c3aeb31185e028d37e346f3e5c97b3cc0639b7ffffffff0158542f010000000017a914f8288a7c391f56e0f66785e4bb4a8eaf19061e398700000000", "vin": [{"sequence": 4294967295, "scriptSig": {"hex": "473044022058891d3f9c7df8a33af516cae1ddff25ef9eed4fd32b5dfe92d662bb9523b5a502204150fab9e3431716a337e3cfd7770cee6f9f01cb873f77c3643892b752b4d48901210394c29f4148660a6e945e1e2292c3aeb31185e028d37e346f3e5c97b3cc0639b7", "asm": "3044022058891d3f9c7df8a33af516cae1ddff25ef9eed4fd32b5dfe92d662bb9523b5a502204150fab9e3431716a337e3cfd7770cee6f9f01cb873f77c3643892b752b4d489[ALL] 0394c29f4148660a6e945e1e2292c3aeb31185e028d37e346f3e5c97b3cc0639b7"}, "vout": 20, "txid": "8af43814f6a42327b7d4070b80143eba308c1c88046af01efa67dcd0c6df751f"}, {"sequence": 4294967295, "scriptSig": {"hex": "483045022100da52411c40e44a980a81863dbcb164201a6a5a46c121d65c37d05bfe114fb11302200879195f45445d9456503c892ef1d521541e4c83f2151ebfb7fea0a9b23d845201210394c29f4148660a6e945e1e2292c3aeb31185e028d37e346f3e5c97b3cc0639b7", "asm": "3045022100da52411c40e44a980a81863dbcb164201a6a5a46c121d65c37d05bfe114fb11302200879195f45445d9456503c892ef1d521541e4c83f2151ebfb7fea0a9b23d8452[ALL] 0394c29f4148660a6e945e1e2292c3aeb31185e028d37e346f3e5c97b3cc0639b7"}, "vout": 38, "txid": "29621bfc8cc075a8e6e7abe6ce3d35612012f53bc2dd1fc85e5fc1123db9ceda"}, {"sequence": 4294967295, "scriptSig": {"hex": "483045022100c21e58843201e99d4efe25e78d18bd63071e24d3b3aaeb268f8b7053767d86310220609b9a8ee7bf7f870d9d809577e50a46f9bf58b37c8a5f4c232b1fb0a0bbe9900121036c2dabc7dfb61bf34a238b14070487c2da118569a4ee0b7e69200329d826fe4c", "asm": "3045022100c21e58843201e99d4efe25e78d18bd63071e24d3b3aaeb268f8b7053767d86310220609b9a8ee7bf7f870d9d809577e50a46f9bf58b37c8a5f4c232b1fb0a0bbe990[ALL] 036c2dabc7dfb61bf34a238b14070487c2da118569a4ee0b7e69200329d826fe4c"}, "vout": 0, "txid": "827c718ae3f4bf75cffa898c26691a650ba627b80707ab76bf5d3d906c7ab9b6"}, {"sequence": 4294967295, "scriptSig": {"hex": "483045022100890624f68aad2ddc005d62cb30dfbf60412d2059089d8c77a57849bdd9ddde5a0220093aa24ecd61a6acadc9c6651bb011430268c61d047aab6970533774094b502001210394c29f4148660a6e945e1e2292c3aeb31185e028d37e346f3e5c97b3cc0639b7", "asm": "3045022100890624f68aad2ddc005d62cb30dfbf60412d2059089d8c77a57849bdd9ddde5a0220093aa24ecd61a6acadc9c6651bb011430268c61d047aab6970533774094b5020[ALL] 0394c29f4148660a6e945e1e2292c3aeb31185e028d37e346f3e5c97b3cc0639b7"}, "vout": 47, "txid": "d3469483146efb1cb5aa27f876396300acdeb2fad3f0e94d1d8138c666dd6ecc"}, {"sequence": 4294967295, "scriptSig": {"hex": "4830450221009dcc073e989fd2fb17ec7659bab93ff507e7a915c4d3385eb16ac326aef610c4022020a521f858a566563f241c95eb512f0d65e2ddfbd8e0c6c2b367c2af05de3e2e01210394c29f4148660a6e945e1e2292c3aeb31185e028d37e346f3e5c97b3cc0639b7", "asm": "30450221009dcc073e989fd2fb17ec7659bab93ff507e7a915c4d3385eb16ac326aef610c4022020a521f858a566563f241c95eb512f0d65e2ddfbd8e0c6c2b367c2af05de3e2e[ALL] 0394c29f4148660a6e945e1e2292c3aeb31185e028d37e346f3e5c97b3cc0639b7"}, "vout": 1424, "txid": "43e568c04624e3a8198b693055a1c20cc7ab5267b6173bd9f4a6c0cd1b11020b"}, {"sequence": 4294967295, "scriptSig": {"hex": "47304402203de536b6d80ed2c5e9fb943378bf0cf4b3f611699d5c8eeda182f758890c8e55022022d05a161d22e326e95ae2e11fd6d81cea14184732dcc743030979d629128b0501210394c29f4148660a6e945e1e2292c3aeb31185e028d37e346f3e5c97b3cc0639b7", "asm": "304402203de536b6d80ed2c5e9fb943378bf0cf4b3f611699d5c8eeda182f758890c8e55022022d05a161d22e326e95ae2e11fd6d81cea14184732dcc743030979d629128b05[ALL] 0394c29f4148660a6e945e1e2292c3aeb31185e028d37e346f3e5c97b3cc0639b7"}, "vout": 55, "txid": "b3dfbc54c9de15f0447931e115278cdccc99d4cb37608b6c61dffdbf3fc5b79b"}, {"sequence": 4294967295, "scriptSig": {"hex": "47304402201b7c8f7bb288cbb491afe9c71fdd7896225e257121f7f0040b167cc6f63ff937022069873e6a312baee0fbf51b57ea8c6614e1ad9062dbd6a59a4ef7bf38d7fd92de01210394c29f4148660a6e945e1e2292c3aeb31185e028d37e346f3e5c97b3cc0639b7", "asm": "304402201b7c8f7bb288cbb491afe9c71fdd7896225e257121f7f0040b167cc6f63ff937022069873e6a312baee0fbf51b57ea8c6614e1ad9062dbd6a59a4ef7bf38d7fd92de[ALL] 0394c29f4148660a6e945e1e2292c3aeb31185e028d37e346f3e5c97b3cc0639b7"}, "vout": 47, "txid": "8451dd42dd788519a92f02b5f5176bfa22cdd492efb9c47c4f036a56aef3b160"}, {"sequence": 4294967295, "scriptSig": {"hex": "473044022006972b787c3ac94704a0bd4a92a67b93579dfbf43c9c6c99eb01c67ec3c84d6902200e0b9b7f0cfcff150ed0708aeaa0763e411ac4de755e1031f1b4c41399ab00ad01210394c29f4148660a6e945e1e2292c3aeb31185e028d37e346f3e5c97b3cc0639b7", "asm": "3044022006972b787c3ac94704a0bd4a92a67b93579dfbf43c9c6c99eb01c67ec3c84d6902200e0b9b7f0cfcff150ed0708aeaa0763e411ac4de755e1031f1b4c41399ab00ad[ALL] 0394c29f4148660a6e945e1e2292c3aeb31185e028d37e346f3e5c97b3cc0639b7"}, "vout": 58, "txid": "c9753d00b246b0d25f20226f21daf038b44ec8b27ea06ef7d779322383d75f86"}, {"sequence": 4294967295, "scriptSig": {"hex": "47304402207f2d4e4cbee643c93290bf6751fe3944a47cf5f716ae7b581eaee7d061c6e80e022030ae5b28b401dd68fbb8ebb93b7bdbf65e8249b6604400fa5a9e574d6fac9c7501210394c29f4148660a6e945e1e2292c3aeb31185e028d37e346f3e5c97b3cc0639b7", "asm": "304402207f2d4e4cbee643c93290bf6751fe3944a47cf5f716ae7b581eaee7d061c6e80e022030ae5b28b401dd68fbb8ebb93b7bdbf65e8249b6604400fa5a9e574d6fac9c75[ALL] 0394c29f4148660a6e945e1e2292c3aeb31185e028d37e346f3e5c97b3cc0639b7"}, "vout": 1328, "txid": "585bea323ef5f7dffa513ec2750e0c373fe4c1023c91e095e3854d42c2418dca"}], "txid": "588595bddf53427ea55bfd77986a656c106a19f37ce260a5eb8950e497eaff58", "blocktime": 1537873891, "version": 1, "confirmations": 11478, "time": 1537873891, "locktime": 0, "vsize": 1369, "size": 1369}