{"hash": "58861ee92e6384ebcc781c0d8a8e8354c25c75aeff0f41dbfe089313ff31f95d", "blockhash": "0000000000000000000e13cef7c366c0283d82e591d1acd082e914b08063cdf1", "vout": [{"scriptPubKey": {"type": "nulldata", "hex": "6a4c5000007797000144fd5e8b98484afb498bd9f9e3ef3236678a625097bcbefa6b8351586b4e5cbc6b76b6c6463e17086ba364ac9d375baa0d1d0614b7d3d1638a7a1d100759d4ba30d2c37bb011d97e02cf", "asm": "OP_RETURN 00007797000144fd5e8b98484afb498bd9f9e3ef3236678a625097bcbefa6b8351586b4e5cbc6b76b6c6463e17086ba364ac9d375baa0d1d0614b7d3d1638a7a1d100759d4ba30d2c37bb011d97e02cf"}, "value": 0.0, "n": 0}, {"scriptPubKey": {"reqSigs": 1, "hex": "76a914eedfe92aa671928196004f1472b844c4dea43cc088ac", "addresses": ["1Nn44FaE4K6Jh6NYqwUEYxu9aUmbmBYHdh"], "asm": "OP_DUP OP_HASH160 eedfe92aa671928196004f1472b844c4dea43cc0 OP_EQUALVERIFY OP_CHECKSIG", "type": "pubkeyhash"}, "value": 0.00643344, "n": 1}], "hex": "010000000158ad3e7a115a3665584c426153ab1477b0c23070925011b035650f19e1afa633010000006b483045022100e2395739e7336b8b1c91e7800ca03f94265d52af6ded73371167389ead53f0d202204e7d4b2749cf91fb0c666cf2d3490c0a6d66d721e318cccfbaf14be83b488d35012102194b8ad0527dea4d90234cae87aea0728b615c56f0ec9bdf0f18d73173974689ffffffff020000000000000000536a4c5000007797000144fd5e8b98484afb498bd9f9e3ef3236678a625097bcbefa6b8351586b4e5cbc6b76b6c6463e17086ba364ac9d375baa0d1d0614b7d3d1638a7a1d100759d4ba30d2c37bb011d97e02cf10d10900000000001976a914eedfe92aa671928196004f1472b844c4dea43cc088ac00000000", "vin": [{"sequence": 4294967295, "scriptSig": {"hex": "483045022100e2395739e7336b8b1c91e7800ca03f94265d52af6ded73371167389ead53f0d202204e7d4b2749cf91fb0c666cf2d3490c0a6d66d721e318cccfbaf14be83b488d35012102194b8ad0527dea4d90234cae87aea0728b615c56f0ec9bdf0f18d73173974689", "asm": "3045022100e2395739e7336b8b1c91e7800ca03f94265d52af6ded73371167389ead53f0d202204e7d4b2749cf91fb0c666cf2d3490c0a6d66d721e318cccfbaf14be83b488d35[ALL] 02194b8ad0527dea4d90234cae87aea0728b615c56f0ec9bdf0f18d73173974689"}, "vout": 1, "txid": "33a6afe1190f6535b01150927030c2b07714ab5361424c5865365a117a3ead58"}], "txid": "58861ee92e6384ebcc781c0d8a8e8354c25c75aeff0f41dbfe089313ff31f95d", "blocktime": 1537871767, "version": 1, "confirmations": 11495, "time": 1537871767, "locktime": 0, "vsize": 284, "size": 284}