{"hash": "588cc18ffc00f1118efd8f5af4545af2847ea0a70479423473f4ff53be3afa58", "blockhash": "00000000000000000018f53835495a110e01622372bf6ae95dc86f2b0ab887b0", "vout": [{"scriptPubKey": {"reqSigs": 1, "hex": "76a91423244cf0a835b076ff3317cdacd9f417da918aac88ac", "addresses": ["14Cp8vNsyEemDj4ZFwUQCvmb4dtJfmXLEa"], "asm": "OP_DUP OP_HASH160 23244cf0a835b076ff3317cdacd9f417da918aac OP_EQUALVERIFY OP_CHECKSIG", "type": "pubkeyhash"}, "value": 0.00225579, "n": 0}], "hex": "010000000261753b21b369be5f8fbd1e450b9598ce1b018ea5b6002c7a6045b3a743c7413d000000006b483045022100bd02f7320c467c86d4141299203c8d6329ca6156ce625e0da1be18456d489e7e022001c4f1e0af6c06a65f2fdfdb8e9c38b1e309244aea4753fec3c42142bd33997a0121032f37a74f8d4bfb9b4796e5862e4faee12fe026f60784eaf93a6177b5f436d350ffffffff676f2dfc67cb86379faa77c19c5bf2336d6a0f30f9fc4b3126817e100945e2f8000000006a47304402201154316c286085d91d69cc30580c8e698ed738974533e801a26a004f92cf88a7022047f8bfe2b65bbefe1f739731483989e96ac74b2d7ec8a79bd7a24431e5b4bab9012103287142a465d42202e0f2711d553e03cbd14eefa4d90bb88a37a2487af3674885ffffffff012b710300000000001976a91423244cf0a835b076ff3317cdacd9f417da918aac88ac00000000", "vin": [{"sequence": 4294967295, "scriptSig": {"hex": "483045022100bd02f7320c467c86d4141299203c8d6329ca6156ce625e0da1be18456d489e7e022001c4f1e0af6c06a65f2fdfdb8e9c38b1e309244aea4753fec3c42142bd33997a0121032f37a74f8d4bfb9b4796e5862e4faee12fe026f60784eaf93a6177b5f436d350", "asm": "3045022100bd02f7320c467c86d4141299203c8d6329ca6156ce625e0da1be18456d489e7e022001c4f1e0af6c06a65f2fdfdb8e9c38b1e309244aea4753fec3c42142bd33997a[ALL] 032f37a74f8d4bfb9b4796e5862e4faee12fe026f60784eaf93a6177b5f436d350"}, "vout": 0, "txid": "3d41c743a7b345607a2c00b6a58e011bce98950b451ebd8f5fbe69b3213b7561"}, {"sequence": 4294967295, "scriptSig": {"hex": "47304402201154316c286085d91d69cc30580c8e698ed738974533e801a26a004f92cf88a7022047f8bfe2b65bbefe1f739731483989e96ac74b2d7ec8a79bd7a24431e5b4bab9012103287142a465d42202e0f2711d553e03cbd14eefa4d90bb88a37a2487af3674885", "asm": "304402201154316c286085d91d69cc30580c8e698ed738974533e801a26a004f92cf88a7022047f8bfe2b65bbefe1f739731483989e96ac74b2d7ec8a79bd7a24431e5b4bab9[ALL] 03287142a465d42202e0f2711d553e03cbd14eefa4d90bb88a37a2487af3674885"}, "vout": 0, "txid": "f8e24509107e8126314bfcf9300f6a6d33f25b9cc177aa9f3786cb67fc2d6f67"}], "txid": "588cc18ffc00f1118efd8f5af4545af2847ea0a70479423473f4ff53be3afa58", "blocktime": 1537870928, "version": 1, "confirmations": 11514, "time": 1537870928, "locktime": 0, "vsize": 339, "size": 339}