{"hash": "589059c67b391635e872587711f191acf68227ee4388237a76acce68871d5c9a", "blockhash": "0000000000000000000dcc0f55137456b1a82d3642486a52398922ac4d620174", "vout": [{"scriptPubKey": {"reqSigs": 1, "hex": "76a91464163a2c528dd0343a1adf055985ab9a2cf3316a88ac", "addresses": ["1A8DCZQN2j1oNitzq9k48RQ3wQaFdE5rcE"], "asm": "OP_DUP OP_HASH160 64163a2c528dd0343a1adf055985ab9a2cf3316a OP_EQUALVERIFY OP_CHECKSIG", "type": "pubkeyhash"}, "value": 0.00255649, "n": 0}, {"scriptPubKey": {"reqSigs": 1, "hex": "76a91404eb33b73e1cbc076e6d0dee1cffdb73307593e088ac", "addresses": ["1T1TtcK6YJEXqstu7qzFiEgzXR4DTsqeV"], "asm": "OP_DUP OP_HASH160 04eb33b73e1cbc076e6d0dee1cffdb73307593e0 OP_EQUALVERIFY OP_CHECKSIG", "type": "pubkeyhash"}, "value": 0.003, "n": 1}], "hex": "0100000001a4509202df48d3ca59970680ef678511f1c905d6a36cbed1736549e20a5fa9a3000000006b4830450221009f6f6038b1d7f5b20ef7117aa5ee1dbf8cf1a9d472f896a6ec50f973a946490a0220390a5a9db20d84f8ee5c7d3f55f1aa95f87dc72188b03c1e1cda3c08af7aa27201210270bde9c6a495174878999be2d0ebe646dcb93496d1627205c40f2a0590614c43ffffffff02a1e60300000000001976a91464163a2c528dd0343a1adf055985ab9a2cf3316a88ace0930400000000001976a91404eb33b73e1cbc076e6d0dee1cffdb73307593e088ac00000000", "vin": [{"sequence": 4294967295, "scriptSig": {"hex": "4830450221009f6f6038b1d7f5b20ef7117aa5ee1dbf8cf1a9d472f896a6ec50f973a946490a0220390a5a9db20d84f8ee5c7d3f55f1aa95f87dc72188b03c1e1cda3c08af7aa27201210270bde9c6a495174878999be2d0ebe646dcb93496d1627205c40f2a0590614c43", "asm": "30450221009f6f6038b1d7f5b20ef7117aa5ee1dbf8cf1a9d472f896a6ec50f973a946490a0220390a5a9db20d84f8ee5c7d3f55f1aa95f87dc72188b03c1e1cda3c08af7aa272[ALL] 0270bde9c6a495174878999be2d0ebe646dcb93496d1627205c40f2a0590614c43"}, "vout": 0, "txid": "a3a95f0ae2496573d1be6ca3d605c9f1118567ef80069759cad348df029250a4"}], "txid": "589059c67b391635e872587711f191acf68227ee4388237a76acce68871d5c9a", "blocktime": 1537870268, "version": 1, "confirmations": 11518, "time": 1537870268, "locktime": 0, "vsize": 226, "size": 226}