{"hash": "5892d3041866efdc6e48a4e0b18aec4e0c2738df2d9b70912edc966045fae0cf", "blockhash": "00000000000000000018f53835495a110e01622372bf6ae95dc86f2b0ab887b0", "vout": [{"scriptPubKey": {"reqSigs": 1, "hex": "76a9146c61ccfe261b166cbd2ccc0c093965547198af2b88ac", "addresses": ["1At592vTpej6sVRe2k4qAUqWDMrWqdFCnJ"], "asm": "OP_DUP OP_HASH160 6c61ccfe261b166cbd2ccc0c093965547198af2b OP_EQUALVERIFY OP_CHECKSIG", "type": "pubkeyhash"}, "value": 0.1371, "n": 0}, {"scriptPubKey": {"reqSigs": 1, "hex": "a914eed1302b5e05ab937d265ef82e8f82a15ff370ad87", "addresses": ["3PTmLr7rG9Ug9paFvRgrwmQRt6KaNBWtTU"], "asm": "OP_HASH160 eed1302b5e05ab937d265ef82e8f82a15ff370ad OP_EQUAL", "type": "scripthash"}, "value": 1.8628692, "n": 1}], "hex": "0200000001bba521a82f52ac8073420fbe4eef6b3c17efb8783a9d7d6e9c3ed7ecc64e1b191c000000fc00473044022076b4ff1a44eed458d3305f405eec910f1d101083adf986917c60f445d759147602200cacc1ab9bdc7dbf4f097b6993c45e30cdeb87e91f2fd293966f801f0cd174e90147304402200d40d45fb93c5f5d1e1510e308ea317d787ff8a14022aeedd00b0e270b062a03022053752f20ca3fcae8e57912878ff97e19b6569bd298ec0b137c2b00574588ea5b014c6952210381102c38e511ecce7f2411fbfeba3758ab32d169c84aede8f7f29ff1373f1e4d2102b5d8fc5a51db7ec7d973199f02e3cae93083f85bbde9ca29cf631f41f8d6d2d12102cfc25d635c9c0aa3961ab37da97e753542aedd89e4145cc1ec656e0163fdf66a53ae0000000002b032d100000000001976a9146c61ccfe261b166cbd2ccc0c093965547198af2b88ac48831a0b0000000017a914eed1302b5e05ab937d265ef82e8f82a15ff370ad8700000000", "vin": [{"sequence": 0, "scriptSig": {"hex": "00473044022076b4ff1a44eed458d3305f405eec910f1d101083adf986917c60f445d759147602200cacc1ab9bdc7dbf4f097b6993c45e30cdeb87e91f2fd293966f801f0cd174e90147304402200d40d45fb93c5f5d1e1510e308ea317d787ff8a14022aeedd00b0e270b062a03022053752f20ca3fcae8e57912878ff97e19b6569bd298ec0b137c2b00574588ea5b014c6952210381102c38e511ecce7f2411fbfeba3758ab32d169c84aede8f7f29ff1373f1e4d2102b5d8fc5a51db7ec7d973199f02e3cae93083f85bbde9ca29cf631f41f8d6d2d12102cfc25d635c9c0aa3961ab37da97e753542aedd89e4145cc1ec656e0163fdf66a53ae", "asm": "0 3044022076b4ff1a44eed458d3305f405eec910f1d101083adf986917c60f445d759147602200cacc1ab9bdc7dbf4f097b6993c45e30cdeb87e91f2fd293966f801f0cd174e9[ALL] 304402200d40d45fb93c5f5d1e1510e308ea317d787ff8a14022aeedd00b0e270b062a03022053752f20ca3fcae8e57912878ff97e19b6569bd298ec0b137c2b00574588ea5b[ALL] 52210381102c38e511ecce7f2411fbfeba3758ab32d169c84aede8f7f29ff1373f1e4d2102b5d8fc5a51db7ec7d973199f02e3cae93083f85bbde9ca29cf631f41f8d6d2d12102cfc25d635c9c0aa3961ab37da97e753542aedd89e4145cc1ec656e0163fdf66a53ae"}, "vout": 28, "txid": "191b4ec6ecd73e9c6e7d9d3a78b8ef173c6bef4ebe0f427380ac522fa821a5bb"}], "txid": "5892d3041866efdc6e48a4e0b18aec4e0c2738df2d9b70912edc966045fae0cf", "blocktime": 1537870928, "version": 2, "confirmations": 11512, "time": 1537870928, "locktime": 0, "vsize": 369, "size": 369}