{"hash": "58949f3a3a2c1b19eb6185b20f7b7edb9facd74e8e189886f556fb30b54388e3", "blockhash": "00000000000000000017f5eb5941039fbcee6240d03bc1f2f8e35350df66a1d8", "vout": [{"scriptPubKey": {"reqSigs": 1, "hex": "76a914e8cea30989bd15530f819b766684b00dc7ba7cfa88ac", "addresses": ["1NDyJtNTjmwk5xPNhjgAMu4HDHigtobu1s"], "asm": "OP_DUP OP_HASH160 e8cea30989bd15530f819b766684b00dc7ba7cfa OP_EQUALVERIFY OP_CHECKSIG", "type": "pubkeyhash"}, "value": 28.72525589, "n": 0}, {"scriptPubKey": {"reqSigs": 1, "hex": "76a914233064a8bb7bff829d95e3dc383867ef3ce1268288ac", "addresses": ["14D4d8gox7jUwDehexqqabtifpBAydTW9d"], "asm": "OP_DUP OP_HASH160 233064a8bb7bff829d95e3dc383867ef3ce12682 OP_EQUALVERIFY OP_CHECKSIG", "type": "pubkeyhash"}, "value": 0.00667003, "n": 1}], "hex": "020000001610e160ba6c4eeb3fad3f8045053487ee878a19197683228e3b7a251ccef5dbc9010000006a4730440220560891eadd2a5c564f1d556fc2a5849b7c4dec6e214a7ef7a2b5090bf21be5ce02207f69fa955a722205baecf7445e66b06941df08ae494dfa1849098430ed37fe47012102b7dac8aa231df38d80793c033ca3f2f809b342519c8ae6f9ac362f888ef7c818feffffff116f2feff7b270fe838306cba5d3026671e73210c4e29d7fcb08c013e8cd49770e0000006b48304502210083fc9e10747c522427c0d1870f53d345c7c5aa48c5177b565ac2dac899058f7402200c219a57ca004447757d7ee257f93c6c0f2a78a525a390e0a4a1414a95b21520012102acb9ca2fd3bd8516f383c7f3e4520eeaaef9d3d0fd848b91faf054150762b7eefeffffff19498923ce6e621f6944b550b0f16ec46eb86c57b72a9ae31b293c43e6c41de4070000006a47304402207511fab5106e7855c2289bb4a3f63383bea03aa2b5da61947693ceb0789db0fd02200510fb3366c8ce79078ff7d802fcdcd46d019740b2a412f5b8bf289d21f498ae012103979063230093952b5aff149a15b9a4f04019fdc67a64fef98daf33dd093168c9feffffff342760a09179619a843a29e035924b81dc8e591d15bdd22dae10f9c80b8a41f8000000006a473044022026dc63a9e379e429b4c3d7c39dc6d1b0ce6f97cba636ac044e549a05c182da22022033b79cd4f355bcb14dfe110e35d8fe53d9575fa266328aaffdbc57df589ed8f6012103783317a2d2e2bf5e98dd20ce8a0b4ad1d280d8f09c0dfb6fe8191363c961d8e3feffffff533e2ad2087e25b30a3335cffb0756e5a4fe555d9a7f78fa5ddd0e631ce11182080000006a47304402206967e217fd20b6ba02484c6f60624a5ace6afec4bfbf9fde80477e2a4348870402201579c9e02c45ac110fbdfae87483e98ba45829d55ed04185a2afffe2247d44f20121026f598deaedb4415a0df1e2a728db9e3fe09df1cd8251ccd5b758f0a70b86939ffeffffff5b854db59ca707975119f16c8ddb4accaec8064000a29ab372a8dce9a8f32409480000006a4730440220542c122b3ee3b0c7cc25356d3d5ef0adc84f3b4d36063c675bbd080b0956836c0220212a5499309cdfb66b30900ac43355964aaeb2af52e062a4c3985ac116e1db4701210219f34d74df70564e0b4b381b01ec03cb48007b60b684eef476ade45e9e452695feffffff649658ca991f398c44580e70e06f52a8bb83780dfbe7207411943dc794243e2e010000006b483045022100d6726433ff9cdae643220201683e505e75eec22ab3ce350427c9c1633fcda0d802206a49a9b583f908ebf24fc5871326e495a2867931faf62d260b479511e131a46c012103b0cbf12abbfe8ee31027c6551545715c8ac42963a8d626ea49f4ac56d7d8b86ffeffffff7050fc7768dd8d4e5f1e2b85579357fb19e5209193fa7042621eb8e102af9e0a000000006b483045022100ff4775887ce796971c1f3ee740ff7fc450d00d5263d2d51adcf8431d0013c9e7022060457f6e6ea34bd9d981c780984d31add4bf02370098a1a7827946ea74e46fdf0121024a9a6dd1c0c6ca769e0f49a41e547a273a2f4dc52871aadbc7f7a0b8c7382f1bfeffffff78a7b6e590f623df2232b9fd7399c4b5f3f8521a2bb748532daf9aa38f6adf14000000006a47304402200628bac743764638c5e2f576b4e54e93d06bc1d52ddcf7ad0f03c26728306db90220429e764574c4bb3472a241af3ba4baac1aef823888df7e7399aab55fdd8a54eb012103ff7417b607b7a1349f1dc8016996661302a78c44d65465d3b9dfc7b61cf8fff6feffffff8c657c8e30ea7eda4d4a22c09dbbc204ba8e59a110513ece7b79b203561ddad5170000006b48304502210087ab6d3398b0544b2af43ef787eace0381c577e979394cee4b3b73c69243888d02200542392225eb8c3534609337c4af0373d4b78f2315837979599b1533d0a50e1e01210302f3cde48eba1dc801866367894a70c70227cb74586b0e28c745c9b779ae4f4ffeffffff8c93987eeb8ff81c20e6fe25c4c191f5895761edf51c8d8ab71613d591b79050010000006a473044022066283b7fb885a4dd35ae58baf6a77c0010a6804071889fc310abe6df0456a63602203cd9d18634e5436a34259d03b578a09b120d97b2144c560e9347b7b8f4c8cc690121027c5280bc30c6020fe7c2bf3665af69473b2173feb3b8374cbd2aff7480c195d6feffffff9362411b0068f0ed90da581e6d60dba36cef54a0edefe19bb3d7a9bea1f50664000000006a47304402202fb1dfe045a25eb6ad379482bcdc2d9ee73894c7ec5051f4dd9ecdadcd7f141902207df71482d0dc7cc7816b49b97aad19a9f31b1f4cd0c25f4b716c0b0b9415c73e012103eac6ce39a7cc2635515a4c27e5d09ff458463f9d04e4b38073d066649e4ac88dfeffffff9818f2f6fce8691457024435a322156c5a2fd88525a1472843e56769674e8af4010000006a47304402206a3caf5a9ac122a27575aa4789566ad52af5a62ca366ac94b6bef0b16fc79bd502203bc62b7b2082de9994e90e53ccfe9b75335ef0b03115ae05fe1455093204ad410121025108347be8941d0b3925e2bb054223bd6c116c4558f444a490a6883d3851f649feffffffa8217f50a41cd8b1009c4d269fd2656a8b335d68d3d79e9fc4bb248127ad0b4d010000006a47304402206f15a7b223e76a29615fe546800f4c5023f49aebf596efd5c2dc4482a46bf9c1022010d86d674e41745b6f754ff5aeac362eef7d0d02e6f920ca2336a867e88169dd0121023bf4638c6131e40ff237f88b0172bc06b08fa0dde7fb9656ebeb78aa2ebb825ffeffffffae719ac613f2633187aafc480a5f86404170e865742d47b53d444d85503da478010000006a47304402201df68c13cba2ba3ca882db08b965755034d3b40ed434c0cb6db838871c695dc202203855c4b1025d84083792dbe180b227459ecd9d4e785b1bb1130605fcae426cd601210240be2daabe5e480044b87b6afe192780eba9bcb142fb87d45e4995db0e065749feffffffb3ab12c41315e865d449b50e9c61ce7cf3b52ca21f0a8bda53691850d0d0ad12000000006a4730440220258d213ca049762b8fae820da292eb5d250b49d6a47505154a0d6b42ab5f6bb7022059cfbab6a50447640138af6674b763e65828bfbb546b91eb8b3d4441989a39f7012103aff8a156102910bc69bc6edd8aaa4c3e4ac1d930412416937815f9f274b609dafeffffffc9e51ee594d9cbcdbbdc0214eab54d3a89d21b458a020bd91dd4fa163b6560a5010000006a47304402201c1ebe67c835f70b52e6a52a7d5d0f1cc0ddaba992364772dc5cd047fbf26065022052ece00e2cfd71b62d7d8d060122d806204d5becdc9b1e0a67378585cfda8c58012102932a3bf8f56f4efc080931a8aa5a8606d120737a3a5f60db4810bb7ea8a990e4feffffffdca60866e5006c69be5e07bbe23f1e39c37ed5889dc32f2a76b411d8b6a167f1010000006b483045022100e215e49fa6271c2372e40188a539f4305d17b49874b3e9842b22e1cd87c05bc1022058da11c7066e974e016ea3cb68eb376cc6253cc23b05e0172ef2f9bcdbea3f7d0121028ff9b19151e16315652574dd4f64c1e32303313ea849bb91cd90aa98e9e05b41feffffffe1599924edea0942e8586ddde20f462512c7473de0744d6ae231b9f9f3512e79010000006a47304402206153070999fc790e8e8ba12ae4058d3d8927587009114277208c6218e25b09ef02200cf0a2364feddc780b9d61953a42446667ff83f9ff8c232bab9b4481347bb709012102ba6adaf858f0bb5b400dc749e9fbd0aa8555e735d29bd94a6adea4fa480bfb43feffffffef808ac6206d8beb1b225387851de0b24fe60e72e1a57468afd3d488741dcc5e000000006b483045022100eb1ab680809a5daaefb69007f3f9e1a3099d0f8996cd65e285cbd50573f508d6022024e9718665d0b6d21d6680333a8e82525b7a9f759dcde7090771de1fb55ce9ff01210230c008f2298c5d54f8381eb04f61dfdd5ded7139ed3382ad9401b3a8f32ed83dfeffffffefdc1e10c966b73b32a57a0bc2ab33f8978488f8c4cc73ce72e6fc56ef846bbe430200006a4730440220547155504dd51c7957d79286e832656b404e7e7afd3ef923fe33babdb0eec29a022038f0c13960cc0e570743b675e04773b1d09fd3b31f65117b08e94adaf81f578e012102554595aba41ad15ae04388cf13928d7e8ad1dc077e501a621cb873959823f2cffefffffffaf21284168b089fb05c227bf4118c761b2c0c98de5ae58a9f582c963cdbd71e000000006b483045022100fbeb078f6cc2c16b8a82976fe180dcf0ca683e1d6365358ab4e071750c1a62d702206326c40b97581420b1d7268e58588e0987e5fe37b5991370748878c268be8a0f01210295b05d99fd934b5858248355e24b9e619e25100b163221d2bd9193018ee108befeffffff02154337ab000000001976a914e8cea30989bd15530f819b766684b00dc7ba7cfa88ac7b2d0a00000000001976a914233064a8bb7bff829d95e3dc383867ef3ce1268288ac15490800", "vin": [{"sequence": 4294967294, "scriptSig": {"hex": "4730440220560891eadd2a5c564f1d556fc2a5849b7c4dec6e214a7ef7a2b5090bf21be5ce02207f69fa955a722205baecf7445e66b06941df08ae494dfa1849098430ed37fe47012102b7dac8aa231df38d80793c033ca3f2f809b342519c8ae6f9ac362f888ef7c818", "asm": "30440220560891eadd2a5c564f1d556fc2a5849b7c4dec6e214a7ef7a2b5090bf21be5ce02207f69fa955a722205baecf7445e66b06941df08ae494dfa1849098430ed37fe47[ALL] 02b7dac8aa231df38d80793c033ca3f2f809b342519c8ae6f9ac362f888ef7c818"}, "vout": 1, "txid": "c9dbf5ce1c257a3b8e22837619198a87ee87340545803fad3feb4e6cba60e110"}, {"sequence": 4294967294, "scriptSig": {"hex": "48304502210083fc9e10747c522427c0d1870f53d345c7c5aa48c5177b565ac2dac899058f7402200c219a57ca004447757d7ee257f93c6c0f2a78a525a390e0a4a1414a95b21520012102acb9ca2fd3bd8516f383c7f3e4520eeaaef9d3d0fd848b91faf054150762b7ee", "asm": "304502210083fc9e10747c522427c0d1870f53d345c7c5aa48c5177b565ac2dac899058f7402200c219a57ca004447757d7ee257f93c6c0f2a78a525a390e0a4a1414a95b21520[ALL] 02acb9ca2fd3bd8516f383c7f3e4520eeaaef9d3d0fd848b91faf054150762b7ee"}, "vout": 14, "txid": "7749cde813c008cb7f9de2c41032e7716602d3a5cb068383fe70b2f7ef2f6f11"}, {"sequence": 4294967294, "scriptSig": {"hex": "47304402207511fab5106e7855c2289bb4a3f63383bea03aa2b5da61947693ceb0789db0fd02200510fb3366c8ce79078ff7d802fcdcd46d019740b2a412f5b8bf289d21f498ae012103979063230093952b5aff149a15b9a4f04019fdc67a64fef98daf33dd093168c9", "asm": "304402207511fab5106e7855c2289bb4a3f63383bea03aa2b5da61947693ceb0789db0fd02200510fb3366c8ce79078ff7d802fcdcd46d019740b2a412f5b8bf289d21f498ae[ALL] 03979063230093952b5aff149a15b9a4f04019fdc67a64fef98daf33dd093168c9"}, "vout": 7, "txid": "e41dc4e6433c291be39a2ab7576cb86ec46ef1b050b544691f626ece23894919"}, {"sequence": 4294967294, "scriptSig": {"hex": "473044022026dc63a9e379e429b4c3d7c39dc6d1b0ce6f97cba636ac044e549a05c182da22022033b79cd4f355bcb14dfe110e35d8fe53d9575fa266328aaffdbc57df589ed8f6012103783317a2d2e2bf5e98dd20ce8a0b4ad1d280d8f09c0dfb6fe8191363c961d8e3", "asm": "3044022026dc63a9e379e429b4c3d7c39dc6d1b0ce6f97cba636ac044e549a05c182da22022033b79cd4f355bcb14dfe110e35d8fe53d9575fa266328aaffdbc57df589ed8f6[ALL] 03783317a2d2e2bf5e98dd20ce8a0b4ad1d280d8f09c0dfb6fe8191363c961d8e3"}, "vout": 0, "txid": "f8418a0bc8f910ae2dd2bd151d598edc814b9235e0293a849a617991a0602734"}, {"sequence": 4294967294, "scriptSig": {"hex": "47304402206967e217fd20b6ba02484c6f60624a5ace6afec4bfbf9fde80477e2a4348870402201579c9e02c45ac110fbdfae87483e98ba45829d55ed04185a2afffe2247d44f20121026f598deaedb4415a0df1e2a728db9e3fe09df1cd8251ccd5b758f0a70b86939f", "asm": "304402206967e217fd20b6ba02484c6f60624a5ace6afec4bfbf9fde80477e2a4348870402201579c9e02c45ac110fbdfae87483e98ba45829d55ed04185a2afffe2247d44f2[ALL] 026f598deaedb4415a0df1e2a728db9e3fe09df1cd8251ccd5b758f0a70b86939f"}, "vout": 8, "txid": "8211e11c630edd5dfa787f9a5d55fea4e55607fbcf35330ab3257e08d22a3e53"}, {"sequence": 4294967294, "scriptSig": {"hex": "4730440220542c122b3ee3b0c7cc25356d3d5ef0adc84f3b4d36063c675bbd080b0956836c0220212a5499309cdfb66b30900ac43355964aaeb2af52e062a4c3985ac116e1db4701210219f34d74df70564e0b4b381b01ec03cb48007b60b684eef476ade45e9e452695", "asm": "30440220542c122b3ee3b0c7cc25356d3d5ef0adc84f3b4d36063c675bbd080b0956836c0220212a5499309cdfb66b30900ac43355964aaeb2af52e062a4c3985ac116e1db47[ALL] 0219f34d74df70564e0b4b381b01ec03cb48007b60b684eef476ade45e9e452695"}, "vout": 72, "txid": "0924f3a8e9dca872b39aa2004006c8aecc4adb8d6cf119519707a79cb54d855b"}, {"sequence": 4294967294, "scriptSig": {"hex": "483045022100d6726433ff9cdae643220201683e505e75eec22ab3ce350427c9c1633fcda0d802206a49a9b583f908ebf24fc5871326e495a2867931faf62d260b479511e131a46c012103b0cbf12abbfe8ee31027c6551545715c8ac42963a8d626ea49f4ac56d7d8b86f", "asm": "3045022100d6726433ff9cdae643220201683e505e75eec22ab3ce350427c9c1633fcda0d802206a49a9b583f908ebf24fc5871326e495a2867931faf62d260b479511e131a46c[ALL] 03b0cbf12abbfe8ee31027c6551545715c8ac42963a8d626ea49f4ac56d7d8b86f"}, "vout": 1, "txid": "2e3e2494c73d94117420e7fb0d7883bba8526fe0700e58448c391f99ca589664"}, {"sequence": 4294967294, "scriptSig": {"hex": "483045022100ff4775887ce796971c1f3ee740ff7fc450d00d5263d2d51adcf8431d0013c9e7022060457f6e6ea34bd9d981c780984d31add4bf02370098a1a7827946ea74e46fdf0121024a9a6dd1c0c6ca769e0f49a41e547a273a2f4dc52871aadbc7f7a0b8c7382f1b", "asm": "3045022100ff4775887ce796971c1f3ee740ff7fc450d00d5263d2d51adcf8431d0013c9e7022060457f6e6ea34bd9d981c780984d31add4bf02370098a1a7827946ea74e46fdf[ALL] 024a9a6dd1c0c6ca769e0f49a41e547a273a2f4dc52871aadbc7f7a0b8c7382f1b"}, "vout": 0, "txid": "0a9eaf02e1b81e624270fa939120e519fb579357852b1e5f4e8ddd6877fc5070"}, {"sequence": 4294967294, "scriptSig": {"hex": "47304402200628bac743764638c5e2f576b4e54e93d06bc1d52ddcf7ad0f03c26728306db90220429e764574c4bb3472a241af3ba4baac1aef823888df7e7399aab55fdd8a54eb012103ff7417b607b7a1349f1dc8016996661302a78c44d65465d3b9dfc7b61cf8fff6", "asm": "304402200628bac743764638c5e2f576b4e54e93d06bc1d52ddcf7ad0f03c26728306db90220429e764574c4bb3472a241af3ba4baac1aef823888df7e7399aab55fdd8a54eb[ALL] 03ff7417b607b7a1349f1dc8016996661302a78c44d65465d3b9dfc7b61cf8fff6"}, "vout": 0, "txid": "14df6a8fa39aaf2d5348b72b1a52f8f3b5c49973fdb93222df23f690e5b6a778"}, {"sequence": 4294967294, "scriptSig": {"hex": "48304502210087ab6d3398b0544b2af43ef787eace0381c577e979394cee4b3b73c69243888d02200542392225eb8c3534609337c4af0373d4b78f2315837979599b1533d0a50e1e01210302f3cde48eba1dc801866367894a70c70227cb74586b0e28c745c9b779ae4f4f", "asm": "304502210087ab6d3398b0544b2af43ef787eace0381c577e979394cee4b3b73c69243888d02200542392225eb8c3534609337c4af0373d4b78f2315837979599b1533d0a50e1e[ALL] 0302f3cde48eba1dc801866367894a70c70227cb74586b0e28c745c9b779ae4f4f"}, "vout": 23, "txid": "d5da1d5603b2797bce3e5110a1598eba04c2bb9dc0224a4dda7eea308e7c658c"}, {"sequence": 4294967294, "scriptSig": {"hex": "473044022066283b7fb885a4dd35ae58baf6a77c0010a6804071889fc310abe6df0456a63602203cd9d18634e5436a34259d03b578a09b120d97b2144c560e9347b7b8f4c8cc690121027c5280bc30c6020fe7c2bf3665af69473b2173feb3b8374cbd2aff7480c195d6", "asm": "3044022066283b7fb885a4dd35ae58baf6a77c0010a6804071889fc310abe6df0456a63602203cd9d18634e5436a34259d03b578a09b120d97b2144c560e9347b7b8f4c8cc69[ALL] 027c5280bc30c6020fe7c2bf3665af69473b2173feb3b8374cbd2aff7480c195d6"}, "vout": 1, "txid": "5090b791d51316b78a8d1cf5ed615789f591c1c425fee6201cf88feb7e98938c"}, {"sequence": 4294967294, "scriptSig": {"hex": "47304402202fb1dfe045a25eb6ad379482bcdc2d9ee73894c7ec5051f4dd9ecdadcd7f141902207df71482d0dc7cc7816b49b97aad19a9f31b1f4cd0c25f4b716c0b0b9415c73e012103eac6ce39a7cc2635515a4c27e5d09ff458463f9d04e4b38073d066649e4ac88d", "asm": "304402202fb1dfe045a25eb6ad379482bcdc2d9ee73894c7ec5051f4dd9ecdadcd7f141902207df71482d0dc7cc7816b49b97aad19a9f31b1f4cd0c25f4b716c0b0b9415c73e[ALL] 03eac6ce39a7cc2635515a4c27e5d09ff458463f9d04e4b38073d066649e4ac88d"}, "vout": 0, "txid": "6406f5a1bea9d7b39be1efeda054ef6ca3db606d1e58da90edf068001b416293"}, {"sequence": 4294967294, "scriptSig": {"hex": "47304402206a3caf5a9ac122a27575aa4789566ad52af5a62ca366ac94b6bef0b16fc79bd502203bc62b7b2082de9994e90e53ccfe9b75335ef0b03115ae05fe1455093204ad410121025108347be8941d0b3925e2bb054223bd6c116c4558f444a490a6883d3851f649", "asm": "304402206a3caf5a9ac122a27575aa4789566ad52af5a62ca366ac94b6bef0b16fc79bd502203bc62b7b2082de9994e90e53ccfe9b75335ef0b03115ae05fe1455093204ad41[ALL] 025108347be8941d0b3925e2bb054223bd6c116c4558f444a490a6883d3851f649"}, "vout": 1, "txid": "f48a4e676967e5432847a12585d82f5a6c1522a3354402571469e8fcf6f21898"}, {"sequence": 4294967294, "scriptSig": {"hex": "47304402206f15a7b223e76a29615fe546800f4c5023f49aebf596efd5c2dc4482a46bf9c1022010d86d674e41745b6f754ff5aeac362eef7d0d02e6f920ca2336a867e88169dd0121023bf4638c6131e40ff237f88b0172bc06b08fa0dde7fb9656ebeb78aa2ebb825f", "asm": "304402206f15a7b223e76a29615fe546800f4c5023f49aebf596efd5c2dc4482a46bf9c1022010d86d674e41745b6f754ff5aeac362eef7d0d02e6f920ca2336a867e88169dd[ALL] 023bf4638c6131e40ff237f88b0172bc06b08fa0dde7fb9656ebeb78aa2ebb825f"}, "vout": 1, "txid": "4d0bad278124bbc49f9ed7d3685d338b6a65d29f264d9c00b1d81ca4507f21a8"}, {"sequence": 4294967294, "scriptSig": {"hex": "47304402201df68c13cba2ba3ca882db08b965755034d3b40ed434c0cb6db838871c695dc202203855c4b1025d84083792dbe180b227459ecd9d4e785b1bb1130605fcae426cd601210240be2daabe5e480044b87b6afe192780eba9bcb142fb87d45e4995db0e065749", "asm": "304402201df68c13cba2ba3ca882db08b965755034d3b40ed434c0cb6db838871c695dc202203855c4b1025d84083792dbe180b227459ecd9d4e785b1bb1130605fcae426cd6[ALL] 0240be2daabe5e480044b87b6afe192780eba9bcb142fb87d45e4995db0e065749"}, "vout": 1, "txid": "78a43d50854d443db5472d7465e8704140865f0a48fcaa873163f213c69a71ae"}, {"sequence": 4294967294, "scriptSig": {"hex": "4730440220258d213ca049762b8fae820da292eb5d250b49d6a47505154a0d6b42ab5f6bb7022059cfbab6a50447640138af6674b763e65828bfbb546b91eb8b3d4441989a39f7012103aff8a156102910bc69bc6edd8aaa4c3e4ac1d930412416937815f9f274b609da", "asm": "30440220258d213ca049762b8fae820da292eb5d250b49d6a47505154a0d6b42ab5f6bb7022059cfbab6a50447640138af6674b763e65828bfbb546b91eb8b3d4441989a39f7[ALL] 03aff8a156102910bc69bc6edd8aaa4c3e4ac1d930412416937815f9f274b609da"}, "vout": 0, "txid": "12add0d050186953da8b0a1fa22cb5f37cce619c0eb549d465e81513c412abb3"}, {"sequence": 4294967294, "scriptSig": {"hex": "47304402201c1ebe67c835f70b52e6a52a7d5d0f1cc0ddaba992364772dc5cd047fbf26065022052ece00e2cfd71b62d7d8d060122d806204d5becdc9b1e0a67378585cfda8c58012102932a3bf8f56f4efc080931a8aa5a8606d120737a3a5f60db4810bb7ea8a990e4", "asm": "304402201c1ebe67c835f70b52e6a52a7d5d0f1cc0ddaba992364772dc5cd047fbf26065022052ece00e2cfd71b62d7d8d060122d806204d5becdc9b1e0a67378585cfda8c58[ALL] 02932a3bf8f56f4efc080931a8aa5a8606d120737a3a5f60db4810bb7ea8a990e4"}, "vout": 1, "txid": "a560653b16fad41dd90b028a451bd2893a4db5ea1402dcbbcdcbd994e51ee5c9"}, {"sequence": 4294967294, "scriptSig": {"hex": "483045022100e215e49fa6271c2372e40188a539f4305d17b49874b3e9842b22e1cd87c05bc1022058da11c7066e974e016ea3cb68eb376cc6253cc23b05e0172ef2f9bcdbea3f7d0121028ff9b19151e16315652574dd4f64c1e32303313ea849bb91cd90aa98e9e05b41", "asm": "3045022100e215e49fa6271c2372e40188a539f4305d17b49874b3e9842b22e1cd87c05bc1022058da11c7066e974e016ea3cb68eb376cc6253cc23b05e0172ef2f9bcdbea3f7d[ALL] 028ff9b19151e16315652574dd4f64c1e32303313ea849bb91cd90aa98e9e05b41"}, "vout": 1, "txid": "f167a1b6d811b4762a2fc39d88d57ec3391e3fe2bb075ebe696c00e56608a6dc"}, {"sequence": 4294967294, "scriptSig": {"hex": "47304402206153070999fc790e8e8ba12ae4058d3d8927587009114277208c6218e25b09ef02200cf0a2364feddc780b9d61953a42446667ff83f9ff8c232bab9b4481347bb709012102ba6adaf858f0bb5b400dc749e9fbd0aa8555e735d29bd94a6adea4fa480bfb43", "asm": "304402206153070999fc790e8e8ba12ae4058d3d8927587009114277208c6218e25b09ef02200cf0a2364feddc780b9d61953a42446667ff83f9ff8c232bab9b4481347bb709[ALL] 02ba6adaf858f0bb5b400dc749e9fbd0aa8555e735d29bd94a6adea4fa480bfb43"}, "vout": 1, "txid": "792e51f3f9b931e26a4d74e03d47c71225460fe2dd6d58e84209eaed249959e1"}, {"sequence": 4294967294, "scriptSig": {"hex": "483045022100eb1ab680809a5daaefb69007f3f9e1a3099d0f8996cd65e285cbd50573f508d6022024e9718665d0b6d21d6680333a8e82525b7a9f759dcde7090771de1fb55ce9ff01210230c008f2298c5d54f8381eb04f61dfdd5ded7139ed3382ad9401b3a8f32ed83d", "asm": "3045022100eb1ab680809a5daaefb69007f3f9e1a3099d0f8996cd65e285cbd50573f508d6022024e9718665d0b6d21d6680333a8e82525b7a9f759dcde7090771de1fb55ce9ff[ALL] 0230c008f2298c5d54f8381eb04f61dfdd5ded7139ed3382ad9401b3a8f32ed83d"}, "vout": 0, "txid": "5ecc1d7488d4d3af6874a5e1720ee64fb2e01d858753221beb8b6d20c68a80ef"}, {"sequence": 4294967294, "scriptSig": {"hex": "4730440220547155504dd51c7957d79286e832656b404e7e7afd3ef923fe33babdb0eec29a022038f0c13960cc0e570743b675e04773b1d09fd3b31f65117b08e94adaf81f578e012102554595aba41ad15ae04388cf13928d7e8ad1dc077e501a621cb873959823f2cf", "asm": "30440220547155504dd51c7957d79286e832656b404e7e7afd3ef923fe33babdb0eec29a022038f0c13960cc0e570743b675e04773b1d09fd3b31f65117b08e94adaf81f578e[ALL] 02554595aba41ad15ae04388cf13928d7e8ad1dc077e501a621cb873959823f2cf"}, "vout": 579, "txid": "be6b84ef56fce672ce73ccc4f8888497f833abc20b7aa5323bb766c9101edcef"}, {"sequence": 4294967294, "scriptSig": {"hex": "483045022100fbeb078f6cc2c16b8a82976fe180dcf0ca683e1d6365358ab4e071750c1a62d702206326c40b97581420b1d7268e58588e0987e5fe37b5991370748878c268be8a0f01210295b05d99fd934b5858248355e24b9e619e25100b163221d2bd9193018ee108be", "asm": "3045022100fbeb078f6cc2c16b8a82976fe180dcf0ca683e1d6365358ab4e071750c1a62d702206326c40b97581420b1d7268e58588e0987e5fe37b5991370748878c268be8a0f[ALL] 0295b05d99fd934b5858248355e24b9e619e25100b163221d2bd9193018ee108be"}, "vout": 0, "txid": "1ed7db3c962c589f8ae55ade980c2c1b768c11f47b225cb09f088b168412f2fa"}], "txid": "58949f3a3a2c1b19eb6185b20f7b7edb9facd74e8e189886f556fb30b54388e3", "blocktime": 1537874412, "version": 2, "confirmations": 11466, "time": 1537874412, "locktime": 542997, "vsize": 3319, "size": 3319}