{"hash": "9ed231d08077da662acce8ced70ff69067dc8cf156cbf8d806c615d92a85ee6d", "blockhash": "000000000000000000022b45ed06c6f4ccd3cf7fb5ba4856ebd2e58215665228", "vout": [{"scriptPubKey": {"reqSigs": 1, "hex": "76a914b1714545e7e250995495594872500fbf1ffcc01788ac", "addresses": ["1HBEJ8ikm5WW3Y7qMe4UVe643XX2nhJyGM"], "asm": "OP_DUP OP_HASH160 b1714545e7e250995495594872500fbf1ffcc017 OP_EQUALVERIFY OP_CHECKSIG", "type": "pubkeyhash"}, "value": 0.1499, "n": 0}, {"scriptPubKey": {"reqSigs": 1, "hex": "a91496428f3ab84bc24d633171472f22839cc3a8e9b387", "addresses": ["3FPX1xDGZrBUkUHZdu23FfWNRmfscXQt3g"], "asm": "OP_HASH160 96428f3ab84bc24d633171472f22839cc3a8e9b3 OP_EQUAL", "type": "scripthash"}, "value": 0.01506443, "n": 1}], "hex": "02000000000102782ff351a31bca5c4ce096f508110bf5da5cef4b4e4923846d56d793ad8b40d60200000017160014f26f6c7c5544b4ce2e9bd2a1a84ab1a29d42710afefffffff6748172c76da162be2fe6c81e1218a4f683726f2e94c5551d71dbe2c3a6659b0000000017160014c9fc2c20dc83f6bf995ec220ad136ade7b4d9689feffffff02b0bae400000000001976a914b1714545e7e250995495594872500fbf1ffcc01788ac8bfc16000000000017a91496428f3ab84bc24d633171472f22839cc3a8e9b387024730440220352f761141318d80ede82226b24761c999bda0d107af6323557fae1e88a3ba0d022033e1d370f4ea64ffeb517442426731ac00a3c7126472d675220565cb6c736ad6012102f02aefbd59d3201491ca633fe225f678285e628566f71b7b1ed2e89925d54740024830450221009b634e10239644f723e86ae98c75d4a7d010e726e19ab36cb0a3fffa14e2161f02201fe0884973a974e2136d7a79f1d5d2f0f0ae8cfb35873b79293ccb5409126402012102e1d14a68ba4417634d891a3ddf6aa4f50a22d6979f52794788c6ac27b4a4ec460b490800", "vin": [{"txinwitness": ["30440220352f761141318d80ede82226b24761c999bda0d107af6323557fae1e88a3ba0d022033e1d370f4ea64ffeb517442426731ac00a3c7126472d675220565cb6c736ad601", "02f02aefbd59d3201491ca633fe225f678285e628566f71b7b1ed2e89925d54740"], "sequence": 4294967294, "scriptSig": {"hex": "160014f26f6c7c5544b4ce2e9bd2a1a84ab1a29d42710a", "asm": "0014f26f6c7c5544b4ce2e9bd2a1a84ab1a29d42710a"}, "vout": 2, "txid": "d6408bad93d7566d8423494e4bef5cdaf50b1108f596e04c5cca1ba351f32f78"}, {"txinwitness": ["30450221009b634e10239644f723e86ae98c75d4a7d010e726e19ab36cb0a3fffa14e2161f02201fe0884973a974e2136d7a79f1d5d2f0f0ae8cfb35873b79293ccb540912640201", "02e1d14a68ba4417634d891a3ddf6aa4f50a22d6979f52794788c6ac27b4a4ec46"], "sequence": 4294967294, "scriptSig": {"hex": "160014c9fc2c20dc83f6bf995ec220ad136ade7b4d9689", "asm": "0014c9fc2c20dc83f6bf995ec220ad136ade7b4d9689"}, "vout": 0, "txid": "9b65a6c3e2db711d55c5942e6f7283f6a418121ec8e62fbe62a16dc7728174f6"}], "txid": "58978aa7ad065ef011d68150d04cdfa05fbb15e6855ddb061d39dcbfcc1ee828", "blocktime": 1537869901, "version": 2, "confirmations": 11524, "time": 1537869901, "locktime": 542987, "vsize": 259, "size": 421}