{"hash": "58988a5838e410ed875e140c896c0b913e9cdbc4fd799ec211fd8facf90a2ea7", "blockhash": "00000000000000000004ffacab907a6b429b9a5745fa0b75af4234bf69dd7176", "vout": [{"scriptPubKey": {"reqSigs": 1, "hex": "a914a1638380213323c2a2f2683644e8a88f8b262af887", "addresses": ["3GQMvm1yXrmNygaw8YwhwkyomZc7PxtPKx"], "asm": "OP_HASH160 a1638380213323c2a2f2683644e8a88f8b262af8 OP_EQUAL", "type": "scripthash"}, "value": 0.00203124, "n": 0}, {"scriptPubKey": {"reqSigs": 1, "hex": "76a914ac1ea2860f3622d3b12f59e413ec18d42d9c2df788ac", "addresses": ["1Gh5vYSaqftK3QBNggHzjZnkJcLQeceE95"], "asm": "OP_DUP OP_HASH160 ac1ea2860f3622d3b12f59e413ec18d42d9c2df7 OP_EQUALVERIFY OP_CHECKSIG", "type": "pubkeyhash"}, "value": 0.0180847, "n": 1}], "hex": "0100000001bec3259cea78b2e7f874e6c91a032ac66d39c25e52df1e2516fdc9b19724cc7e010000006a4730440220410b2167e22e1c9d069d66d2a4101be1fa3d7d614f416fbcfe5e822224021ce00220532cb345f1edede26d024dcf5c2f6d74cebd72a353f8416e3d58e47aa002a289012102da0bc80fd50c6e5b48f7b058ca000b9ebdc0ed22093a1280ddf05ac09e90ced2ffffffff02741903000000000017a914a1638380213323c2a2f2683644e8a88f8b262af88756981b00000000001976a914ac1ea2860f3622d3b12f59e413ec18d42d9c2df788ac00000000", "vin": [{"sequence": 4294967295, "scriptSig": {"hex": "4730440220410b2167e22e1c9d069d66d2a4101be1fa3d7d614f416fbcfe5e822224021ce00220532cb345f1edede26d024dcf5c2f6d74cebd72a353f8416e3d58e47aa002a289012102da0bc80fd50c6e5b48f7b058ca000b9ebdc0ed22093a1280ddf05ac09e90ced2", "asm": "30440220410b2167e22e1c9d069d66d2a4101be1fa3d7d614f416fbcfe5e822224021ce00220532cb345f1edede26d024dcf5c2f6d74cebd72a353f8416e3d58e47aa002a289[ALL] 02da0bc80fd50c6e5b48f7b058ca000b9ebdc0ed22093a1280ddf05ac09e90ced2"}, "vout": 1, "txid": "7ecc2497b1c9fd16251edf525ec2396dc62a031ac9e674f8e7b278ea9c25c3be"}], "txid": "58988a5838e410ed875e140c896c0b913e9cdbc4fd799ec211fd8facf90a2ea7", "blocktime": 1537875543, "version": 1, "confirmations": 11464, "time": 1537875543, "locktime": 0, "vsize": 223, "size": 223}