{"hash": "74eef0f5537ea7f8601aaefa163093ae03b68af7908da4edfff79cb922ba7546", "blockhash": "0000000000000000000e13cef7c366c0283d82e591d1acd082e914b08063cdf1", "vout": [{"scriptPubKey": {"reqSigs": 1, "hex": "00149e4c00b7e236876dbc0740d1d2cdb3f2a4362eec", "addresses": ["bc1qnexqpdlzx6rkm0q8grga9ndn72jrvthvtp5dck"], "asm": "0 9e4c00b7e236876dbc0740d1d2cdb3f2a4362eec", "type": "witness_v0_keyhash"}, "value": 0.12327302, "n": 0}, {"scriptPubKey": {"reqSigs": 1, "hex": "a91469f376cbb188a8a2671eb958f4bc809ae5bb749f87", "addresses": ["3BMEXs663MhMag4eaUgdhsDSyswEDye28M"], "asm": "OP_HASH160 69f376cbb188a8a2671eb958f4bc809ae5bb749f OP_EQUAL", "type": "scripthash"}, "value": 0.05259092, "n": 1}], "hex": "01000000000101527dfde726282a419a7abcb01aa4a58c48385ca26c9b1bf08d8a2003f44947fd0000000000ffffffff028619bc00000000001600149e4c00b7e236876dbc0740d1d2cdb3f2a4362eec543f50000000000017a91469f376cbb188a8a2671eb958f4bc809ae5bb749f87024730440220209006cde8c0dd32f6ef3d1d5a975183fca2028cf0b6b4401316cb864a10beaa022046fc3a36646890fb539baa131901ed2b0f6c56bdd293478e3a4d6b66c767dd350121035fa127555f83005ee192066bef9970861089cc25923acf973c14ac22547a016500000000", "vin": [{"txinwitness": ["30440220209006cde8c0dd32f6ef3d1d5a975183fca2028cf0b6b4401316cb864a10beaa022046fc3a36646890fb539baa131901ed2b0f6c56bdd293478e3a4d6b66c767dd3501", "035fa127555f83005ee192066bef9970861089cc25923acf973c14ac22547a0165"], "sequence": 4294967295, "scriptSig": {"hex": "", "asm": ""}, "vout": 0, "txid": "fd4749f403208a8df01b9b6ca25c38488ca5a41ab0bc7a9a412a2826e7fd7d52"}], "txid": "589c0006b11dd44060158224d8d3c0c32e95123d0100df3bc2b824c56026ddfe", "blocktime": 1537871767, "version": 1, "confirmations": 11495, "time": 1537871767, "locktime": 0, "vsize": 142, "size": 223}