{"hash": "2013c78ec06abd84ce30fd0c8d348191a80a343ef2b564a5c57a7bfa06de66cb", "blockhash": "0000000000000000000e13cef7c366c0283d82e591d1acd082e914b08063cdf1", "vout": [{"scriptPubKey": {"reqSigs": 1, "hex": "0014a3f6701f82dfab8eb78658e303be6d8f309c7cd8", "addresses": ["bc1q50m8q8uzm74caduxtr3s80nd3ucfclxcamvn29"], "asm": "0 a3f6701f82dfab8eb78658e303be6d8f309c7cd8", "type": "witness_v0_keyhash"}, "value": 0.00609467, "n": 0}, {"scriptPubKey": {"reqSigs": 1, "hex": "76a91462f9a19bb360a0c3c690c954a73ac93b0defb7bb88ac", "addresses": ["1A2LGV8JrkBhHwfUaMMLy55eF2uQ2wYnWE"], "asm": "OP_DUP OP_HASH160 62f9a19bb360a0c3c690c954a73ac93b0defb7bb OP_EQUALVERIFY OP_CHECKSIG", "type": "pubkeyhash"}, "value": 0.010552, "n": 1}], "hex": "010000000001015737fa303db68538f01c26b2c9df9e4bd9a63a42efaf0b93ac5c2deb37285d950c0000001716001448009801ae914d8951df8aa3d8aeaa7970d40f19ffffffff02bb4c090000000000160014a3f6701f82dfab8eb78658e303be6d8f309c7cd8e0191000000000001976a91462f9a19bb360a0c3c690c954a73ac93b0defb7bb88ac02473044022100d8835a9e5f2c528c7be20ce0e3476fe85f9b763ba16548745c72421e69c09bc0021f6d0d46f4c70b54400d15edd3fa65208c28ce89b74d75a92de752ab3135ac92012102478591ea2787deff61b1a1c7477338a990c32cbedc642a9bf73f191cfc9f68fd00000000", "vin": [{"txinwitness": ["3044022100d8835a9e5f2c528c7be20ce0e3476fe85f9b763ba16548745c72421e69c09bc0021f6d0d46f4c70b54400d15edd3fa65208c28ce89b74d75a92de752ab3135ac9201", "02478591ea2787deff61b1a1c7477338a990c32cbedc642a9bf73f191cfc9f68fd"], "sequence": 4294967295, "scriptSig": {"hex": "16001448009801ae914d8951df8aa3d8aeaa7970d40f19", "asm": "001448009801ae914d8951df8aa3d8aeaa7970d40f19"}, "vout": 12, "txid": "955d2837eb2d5cac930bafef423aa6d94b9edfc9b2261cf03885b63d30fa3757"}], "txid": "589eaa0f60c84538ae8affb791857c306d61e9f04691c6d19fb69e2ad63389bf", "blocktime": 1537871767, "version": 1, "confirmations": 11495, "time": 1537871767, "locktime": 0, "vsize": 167, "size": 248}