{"hash": "589f13b91c1db85a84478bc4324113895eb8c0cfd238ade2b59e82630f48d81a", "blockhash": "00000000000000000018f53835495a110e01622372bf6ae95dc86f2b0ab887b0", "vout": [{"scriptPubKey": {"reqSigs": 1, "hex": "76a9144e1dfedd64b02e47b7dedfce36b507984eace14b88ac", "addresses": ["1883e6Hr22QQdLq6WwzXfbnrBNaVJvGKfn"], "asm": "OP_DUP OP_HASH160 4e1dfedd64b02e47b7dedfce36b507984eace14b OP_EQUALVERIFY OP_CHECKSIG", "type": "pubkeyhash"}, "value": 0.16794234, "n": 0}], "hex": "0100000003e4ad8402e325e9c696cb36978168ee68a36730c12bfff86c07faccce7032cb00000000006a47304402202dd789ceca41c1f089f19ffa89a5047419b3d1d4b36f04fdcb27023af519cccc02200b8e48168e9f0800defe3b1b72e1c835b87cd75cb2f5b2e696cd419dda4ca371012103e8b49d5a27f0fca5ce9b5b9a2c50cbda34ddf32c00f2a55cc38d733a7918f6f3fdffffff104239a8429dc9aaee784c6f8b158c2686b277dc191a777a1f74f2375d213d44000000006a4730440220135f808ec84a897b61dd574ca8625505898764649f38bafa8cbc11b3e245e53e02205cf9f985f0622bbd7c657121ec04fe8eeeadb47adddc4bd0b32d220e9282b0350121036e6ed1e3d578f341df9b9b8e1f830a7666faca9c7bf6a37eae145d24f925514afdffffff3a3b497cd838c9f63e0fcf4e33452c8a44d33dbb0f183059cd13431f350076f0000000006a473044022018d3c0c8af484e4dcd2ea5c0de2a64a1f1e244cf763684436aa47a190c125acb022020067f7eccc04e1daf2ff972352b814e65d58313ee826f7da95d80099299f9d00121022ed9d56e313dbebbfbe13ab81af8504224023b04586955ca77c9bce61d5ccfacfdffffff017a420001000000001976a9144e1dfedd64b02e47b7dedfce36b507984eace14b88ac0d490800", "vin": [{"sequence": 4294967293, "scriptSig": {"hex": "47304402202dd789ceca41c1f089f19ffa89a5047419b3d1d4b36f04fdcb27023af519cccc02200b8e48168e9f0800defe3b1b72e1c835b87cd75cb2f5b2e696cd419dda4ca371012103e8b49d5a27f0fca5ce9b5b9a2c50cbda34ddf32c00f2a55cc38d733a7918f6f3", "asm": "304402202dd789ceca41c1f089f19ffa89a5047419b3d1d4b36f04fdcb27023af519cccc02200b8e48168e9f0800defe3b1b72e1c835b87cd75cb2f5b2e696cd419dda4ca371[ALL] 03e8b49d5a27f0fca5ce9b5b9a2c50cbda34ddf32c00f2a55cc38d733a7918f6f3"}, "vout": 0, "txid": "00cb3270ceccfa076cf8ff2bc13067a368ee68819736cb96c6e925e30284ade4"}, {"sequence": 4294967293, "scriptSig": {"hex": "4730440220135f808ec84a897b61dd574ca8625505898764649f38bafa8cbc11b3e245e53e02205cf9f985f0622bbd7c657121ec04fe8eeeadb47adddc4bd0b32d220e9282b0350121036e6ed1e3d578f341df9b9b8e1f830a7666faca9c7bf6a37eae145d24f925514a", "asm": "30440220135f808ec84a897b61dd574ca8625505898764649f38bafa8cbc11b3e245e53e02205cf9f985f0622bbd7c657121ec04fe8eeeadb47adddc4bd0b32d220e9282b035[ALL] 036e6ed1e3d578f341df9b9b8e1f830a7666faca9c7bf6a37eae145d24f925514a"}, "vout": 0, "txid": "443d215d37f2741f7a771a19dc77b286268c158b6f4c78eeaac99d42a8394210"}, {"sequence": 4294967293, "scriptSig": {"hex": "473044022018d3c0c8af484e4dcd2ea5c0de2a64a1f1e244cf763684436aa47a190c125acb022020067f7eccc04e1daf2ff972352b814e65d58313ee826f7da95d80099299f9d00121022ed9d56e313dbebbfbe13ab81af8504224023b04586955ca77c9bce61d5ccfac", "asm": "3044022018d3c0c8af484e4dcd2ea5c0de2a64a1f1e244cf763684436aa47a190c125acb022020067f7eccc04e1daf2ff972352b814e65d58313ee826f7da95d80099299f9d0[ALL] 022ed9d56e313dbebbfbe13ab81af8504224023b04586955ca77c9bce61d5ccfac"}, "vout": 0, "txid": "f07600351f4313cd5930180fbb3dd3448a2c45334ecf0f3ef6c938d87c493b3a"}], "txid": "589f13b91c1db85a84478bc4324113895eb8c0cfd238ade2b59e82630f48d81a", "blocktime": 1537870928, "version": 1, "confirmations": 11514, "time": 1537870928, "locktime": 542989, "vsize": 485, "size": 485}