{"hash": "58a04762de1daede9da27fa8f48566963ed9e1bec6875bcfa6db06419d06f726", "blockhash": "00000000000000000018f53835495a110e01622372bf6ae95dc86f2b0ab887b0", "vout": [{"scriptPubKey": {"reqSigs": 1, "hex": "76a914ef3ebdb8193635178f863eb275f610461ef2d43688ac", "addresses": ["1Np1fB9Cz6q4GddxQ2uVWitpZVUCrkgfuj"], "asm": "OP_DUP OP_HASH160 ef3ebdb8193635178f863eb275f610461ef2d436 OP_EQUALVERIFY OP_CHECKSIG", "type": "pubkeyhash"}, "value": 0.0122469, "n": 0}, {"scriptPubKey": {"reqSigs": 1, "hex": "76a9149b53515888470cb47acd3360b003f2069cfadf4288ac", "addresses": ["1FAHYkfzTiagCBPADZvyqYWrh7RjydF2fx"], "asm": "OP_DUP OP_HASH160 9b53515888470cb47acd3360b003f2069cfadf42 OP_EQUALVERIFY OP_CHECKSIG", "type": "pubkeyhash"}, "value": 0.01447961, "n": 1}], "hex": "02000000023490581efe0cb28a7be14179fbfefd57b7c0800760ed059da0b7bd866e800a42010000006a47304402204d0d3de6575e4a9b4f012f068200fcfb8458ac28d7c79440cb4ce2bca6003ade02207a406df50472c4edefd7cc933611df0c52f211f822a63f9fda4edebb93837915012103bddae9db850bd2f187b8959701ca104a2362b593a1153cc8467a1f3de4b9330afeffffff5d500b81072d828b3e8679e89099ca64f4286111edd7f47f90bb2e06f9fd459c1b0100006a4730440220155895276270c936c79445e5077baee79a54595c0b7911b3ffdeb1d3112836c802203ca50b52687b0ab139a46d515c95697a8cb001b82325811b189ee3b1bdc310280121027da1743dbd57ed83167ac671397da3bde226277e940f4ee6a454941d77afd6c3feffffff02f2af1200000000001976a914ef3ebdb8193635178f863eb275f610461ef2d43688ac19181600000000001976a9149b53515888470cb47acd3360b003f2069cfadf4288ac0e490800", "vin": [{"sequence": 4294967294, "scriptSig": {"hex": "47304402204d0d3de6575e4a9b4f012f068200fcfb8458ac28d7c79440cb4ce2bca6003ade02207a406df50472c4edefd7cc933611df0c52f211f822a63f9fda4edebb93837915012103bddae9db850bd2f187b8959701ca104a2362b593a1153cc8467a1f3de4b9330a", "asm": "304402204d0d3de6575e4a9b4f012f068200fcfb8458ac28d7c79440cb4ce2bca6003ade02207a406df50472c4edefd7cc933611df0c52f211f822a63f9fda4edebb93837915[ALL] 03bddae9db850bd2f187b8959701ca104a2362b593a1153cc8467a1f3de4b9330a"}, "vout": 1, "txid": "420a806e86bdb7a09d05ed600780c0b757fdfefb7941e17b8ab20cfe1e589034"}, {"sequence": 4294967294, "scriptSig": {"hex": "4730440220155895276270c936c79445e5077baee79a54595c0b7911b3ffdeb1d3112836c802203ca50b52687b0ab139a46d515c95697a8cb001b82325811b189ee3b1bdc310280121027da1743dbd57ed83167ac671397da3bde226277e940f4ee6a454941d77afd6c3", "asm": "30440220155895276270c936c79445e5077baee79a54595c0b7911b3ffdeb1d3112836c802203ca50b52687b0ab139a46d515c95697a8cb001b82325811b189ee3b1bdc31028[ALL] 027da1743dbd57ed83167ac671397da3bde226277e940f4ee6a454941d77afd6c3"}, "vout": 283, "txid": "9c45fdf9062ebb907ff4d7ed116128f464ca9990e879863e8b822d07810b505d"}], "txid": "58a04762de1daede9da27fa8f48566963ed9e1bec6875bcfa6db06419d06f726", "blocktime": 1537870928, "version": 2, "confirmations": 11512, "time": 1537870928, "locktime": 542990, "vsize": 372, "size": 372}