{"hash": "768799bafb4d48bbea2494dc0596890b83a6b5116611855178b19666d37bd09e", "blockhash": "0000000000000000000baef3f32e3676a92c3b2e5da21b426e4f302fc371ce76", "vout": [{"scriptPubKey": {"reqSigs": 1, "hex": "76a914888f4b5fe02c55f17a4774e14435c93bdfcb012588ac", "addresses": ["1DT4ZMv3i9JCqzktWHb9URmRMLpULv1d3U"], "asm": "OP_DUP OP_HASH160 888f4b5fe02c55f17a4774e14435c93bdfcb0125 OP_EQUALVERIFY OP_CHECKSIG", "type": "pubkeyhash"}, "value": 0.004704, "n": 0}, {"scriptPubKey": {"reqSigs": 1, "hex": "a914b8a9a8ba8cf965b7df6b05afd948e53c351b2c0d87", "addresses": ["3JXRVxhrk2o9f4w3cQchBLwUeegJBj6BEp"], "asm": "OP_HASH160 b8a9a8ba8cf965b7df6b05afd948e53c351b2c0d OP_EQUAL", "type": "scripthash"}, "value": 0.53262569, "n": 1}], "hex": "01000000000101b3d5c9c4355457284e1b0848142e92e793fc2259ffa8ed14f51a6f85f05cb2c8020000002322002065d416c48a8072e0ac51c2d111eb194f009caef0332446c1bf2097316cf07fa9ffffffff02802d0700000000001976a914888f4b5fe02c55f17a4774e14435c93bdfcb012588ace9b82c030000000017a914b8a9a8ba8cf965b7df6b05afd948e53c351b2c0d87040048304502210092b6295e100ff9d8b3c15e8222171e51984a82d44e1017f1bee7af413d7559f10220044708c0cca0d0c6da47e14f5a9c09a4435f4b6f8a9c2d526ea81bc7934f574101483045022100f98e21a4cd62990464fbef5da1e797fce4dee0201e206ee5db40446967879b1d02202541831f52523aebbe55de8528f200014f57fefb75b0893b0cd44580614d1f510169522102f44abcf9e23c9a460da309ccca56c619c04eed3bde2c2cff5e7d78fbcd980b9c2103c9443cf3047bb6c2c82f1b0c44c36109cdc3d0d601d16d1189a1602bf8d1a0a02103bfe867059274412412e088af5572b92168c2ef495cfe6c9b7a753a009eb37c4853ae00000000", "vin": [{"txinwitness": ["", "304502210092b6295e100ff9d8b3c15e8222171e51984a82d44e1017f1bee7af413d7559f10220044708c0cca0d0c6da47e14f5a9c09a4435f4b6f8a9c2d526ea81bc7934f574101", "3045022100f98e21a4cd62990464fbef5da1e797fce4dee0201e206ee5db40446967879b1d02202541831f52523aebbe55de8528f200014f57fefb75b0893b0cd44580614d1f5101", "522102f44abcf9e23c9a460da309ccca56c619c04eed3bde2c2cff5e7d78fbcd980b9c2103c9443cf3047bb6c2c82f1b0c44c36109cdc3d0d601d16d1189a1602bf8d1a0a02103bfe867059274412412e088af5572b92168c2ef495cfe6c9b7a753a009eb37c4853ae"], "sequence": 4294967295, "scriptSig": {"hex": "22002065d416c48a8072e0ac51c2d111eb194f009caef0332446c1bf2097316cf07fa9", "asm": "002065d416c48a8072e0ac51c2d111eb194f009caef0332446c1bf2097316cf07fa9"}, "vout": 2, "txid": "c8b25cf0856f1af514eda8ff5922fc93e7922e1448081b4e28575435c4c9d5b3"}], "txid": "58a1378bd580c4b5cdfe5f3060f387b603230369e9f8a50beb931c63eceda963", "blocktime": 1537876114, "version": 1, "confirmations": 11460, "time": 1537876114, "locktime": 0, "vsize": 216, "size": 408}