{"hash": "58a1859f89c0aacb2bd89e094d2ea987960e5d14021b9adf53907639387308f0", "blockhash": "0000000000000000001cda96e906b7601b7a6fb1a3b62bca570a9e5d8f4b3de1", "vout": [{"scriptPubKey": {"reqSigs": 1, "hex": "a914559a0aeac5ec8e2495758b1df457ee745e89276487", "addresses": ["39VdtvJwFkjPGiQuCVB1RaHgRbxCudEFzm"], "asm": "OP_HASH160 559a0aeac5ec8e2495758b1df457ee745e892764 OP_EQUAL", "type": "scripthash"}, "value": 0.00011677, "n": 0}, {"scriptPubKey": {"reqSigs": 1, "hex": "76a914227d91346ba5d0d16661b112b21c98171c54d4ee88ac", "addresses": ["149NQ5upfE6uuRRRXzVWJ442jUj4oQNNHZ"], "asm": "OP_DUP OP_HASH160 227d91346ba5d0d16661b112b21c98171c54d4ee OP_EQUALVERIFY OP_CHECKSIG", "type": "pubkeyhash"}, "value": 0.00998738, "n": 1}], "hex": "0200000001fe77addaf8169c314801cb54e3441f81a6377fefff0ecd89a78ba978bfe92a96000000006a47304402205273369ecd6eb7a8a4e5875aabee8be82acac75e8c32cfaeb60d4c383e39149702204db0383662a987d20b33f011c661a3e110cacba1b58f650b2df4f022533891db012102908c942d556ad9071baffb6c0e4287e422339ea7dbb1a42288132b13d141c50cfeffffff029d2d00000000000017a914559a0aeac5ec8e2495758b1df457ee745e89276487523d0f00000000001976a914227d91346ba5d0d16661b112b21c98171c54d4ee88ac13490800", "vin": [{"sequence": 4294967294, "scriptSig": {"hex": "47304402205273369ecd6eb7a8a4e5875aabee8be82acac75e8c32cfaeb60d4c383e39149702204db0383662a987d20b33f011c661a3e110cacba1b58f650b2df4f022533891db012102908c942d556ad9071baffb6c0e4287e422339ea7dbb1a42288132b13d141c50c", "asm": "304402205273369ecd6eb7a8a4e5875aabee8be82acac75e8c32cfaeb60d4c383e39149702204db0383662a987d20b33f011c661a3e110cacba1b58f650b2df4f022533891db[ALL] 02908c942d556ad9071baffb6c0e4287e422339ea7dbb1a42288132b13d141c50c"}, "vout": 0, "txid": "962ae9bf78a98ba789cd0effef7f37a6811f44e354cb0148319c16f8daad77fe"}], "txid": "58a1859f89c0aacb2bd89e094d2ea987960e5d14021b9adf53907639387308f0", "blocktime": 1537873282, "version": 2, "confirmations": 11480, "time": 1537873282, "locktime": 542995, "vsize": 223, "size": 223}