{"hash": "58a578ba0bb576f3eac7bad35346ca34f21499fb562dcb26b8ec36b1dc5b1a95", "blockhash": "0000000000000000000dcc0f55137456b1a82d3642486a52398922ac4d620174", "vout": [{"scriptPubKey": {"reqSigs": 1, "hex": "76a914610ab760e561490fa634cacf22e6057c84e3962d88ac", "addresses": ["19r7PC4S1e77bZojMugCAzaRaXmKXbXSaJ"], "asm": "OP_DUP OP_HASH160 610ab760e561490fa634cacf22e6057c84e3962d OP_EQUALVERIFY OP_CHECKSIG", "type": "pubkeyhash"}, "value": 0.0255962, "n": 0}, {"scriptPubKey": {"reqSigs": 1, "hex": "76a9146ddb7bc628c4965fd99a54068f316022db49c91688ac", "addresses": ["1B1satcgvBsEHCrrx4D7qnndKXPgro457Z"], "asm": "OP_DUP OP_HASH160 6ddb7bc628c4965fd99a54068f316022db49c916 OP_EQUALVERIFY OP_CHECKSIG", "type": "pubkeyhash"}, "value": 2.97439807, "n": 1}], "hex": "0100000001714e4a94cc9b7350211cb082916d578e8b367fb9fed486fcd638d8b4aa618a3c010000006b4830450221008c0e4a5545901a0616aee2f24104a28843f15853ee925973ce9bbbceeab230e002207430385b4812bf15cbef96f3e7533a008c3828a788ded288cbf9008bf7fe82cf012103fd0a3ab37a9eb6ef80c14e945e3c45c33cc639c1beabfaf710e1c989e932ffa4ffffffff02840e2700000000001976a914610ab760e561490fa634cacf22e6057c84e3962d88ac3f92ba11000000001976a9146ddb7bc628c4965fd99a54068f316022db49c91688ac00000000", "vin": [{"sequence": 4294967295, "scriptSig": {"hex": "4830450221008c0e4a5545901a0616aee2f24104a28843f15853ee925973ce9bbbceeab230e002207430385b4812bf15cbef96f3e7533a008c3828a788ded288cbf9008bf7fe82cf012103fd0a3ab37a9eb6ef80c14e945e3c45c33cc639c1beabfaf710e1c989e932ffa4", "asm": "30450221008c0e4a5545901a0616aee2f24104a28843f15853ee925973ce9bbbceeab230e002207430385b4812bf15cbef96f3e7533a008c3828a788ded288cbf9008bf7fe82cf[ALL] 03fd0a3ab37a9eb6ef80c14e945e3c45c33cc639c1beabfaf710e1c989e932ffa4"}, "vout": 1, "txid": "3c8a61aab4d838d6fc86d4feb97f368b8e576d9182b01c2150739bcc944a4e71"}], "txid": "58a578ba0bb576f3eac7bad35346ca34f21499fb562dcb26b8ec36b1dc5b1a95", "blocktime": 1537870268, "version": 1, "confirmations": 11518, "time": 1537870268, "locktime": 0, "vsize": 226, "size": 226}