{"hash": "4e911ecb5158a3f232e6aae64e250c3269a84ffd03db9c3ce8e8ce5f5c7213ce", "blockhash": "00000000000000000024a2167bbff67b0be802c0b01cdd79e6331c2be6459f87", "vout": [{"scriptPubKey": {"reqSigs": 1, "hex": "76a91452637ed448c1855f5a4f8737f56950c379b7607088ac", "addresses": ["18Wdbo2TL8SJYrzCRAC4Cv72E18Zyy8bGo"], "asm": "OP_DUP OP_HASH160 52637ed448c1855f5a4f8737f56950c379b76070 OP_EQUALVERIFY OP_CHECKSIG", "type": "pubkeyhash"}, "value": 0.42519482, "n": 0}], "hex": "01000000000101db38e990675f2249143b7901055c2a2338bae64512dfd90c4be891a51471ac673c00000017160014e12c80419ab4a23277f4cfba5b29f3251b8a8ddeffffffff01bacb8802000000001976a91452637ed448c1855f5a4f8737f56950c379b7607088ac02483045022100a3bc3713149716b4cdb16edb6ecd8526c94b8167e958c8a31d491cec28e9a7e302201248b3180f35d950636039f19bbaee0ccf438b033a788f704a93ce074270aa50012103a4c8135484e572e85869109d333888996be9704ee8c462801ef3fa11936855d700000000", "vin": [{"txinwitness": ["3045022100a3bc3713149716b4cdb16edb6ecd8526c94b8167e958c8a31d491cec28e9a7e302201248b3180f35d950636039f19bbaee0ccf438b033a788f704a93ce074270aa5001", "03a4c8135484e572e85869109d333888996be9704ee8c462801ef3fa11936855d7"], "sequence": 4294967295, "scriptSig": {"hex": "160014e12c80419ab4a23277f4cfba5b29f3251b8a8dde", "asm": "0014e12c80419ab4a23277f4cfba5b29f3251b8a8dde"}, "vout": 60, "txid": "67ac7114a591e84b0cd9df1245e6ba38232a5c0501793b1449225f6790e938db"}], "txid": "58aa81a9120d1625db2341c3aedb3184fc150e2d6e900f67d5144c38cf79bcce", "blocktime": 1537870564, "version": 1, "confirmations": 11515, "time": 1537870564, "locktime": 0, "vsize": 136, "size": 218}