{"hash": "58ac8a24725bb1fca1fb9a179b20d6387475c07b28d48ebd2168f1be71444388", "blockhash": "0000000000000000001cda96e906b7601b7a6fb1a3b62bca570a9e5d8f4b3de1", "vout": [{"scriptPubKey": {"reqSigs": 1, "hex": "76a9143dac46888addc73ccbaea31cf847f11fc0cb0eb088ac", "addresses": ["16d6bcerEf2uTkELMbWto27xKWBHiBbva4"], "asm": "OP_DUP OP_HASH160 3dac46888addc73ccbaea31cf847f11fc0cb0eb0 OP_EQUALVERIFY OP_CHECKSIG", "type": "pubkeyhash"}, "value": 0.005, "n": 0}, {"scriptPubKey": {"reqSigs": 1, "hex": "76a914fc0bec598d2ca60bbc0b98bafcbf0e9db0a7c82988ac", "addresses": ["1PyhZnPgdgnP1LN46rBDfoCDcXd6hbonxg"], "asm": "OP_DUP OP_HASH160 fc0bec598d2ca60bbc0b98bafcbf0e9db0a7c829 OP_EQUALVERIFY OP_CHECKSIG", "type": "pubkeyhash"}, "value": 0.00981259, "n": 1}], "hex": "0100000001445c01691c575a38cfa8e2d5a8e11b034b6a33c74d31d69a4d683487417c6b38240000006a47304402203d0b2a9747e41dbad681b6eb6b4a044b4e2faf9452805580bf1b0db6e5685f8002201f4bc8532af16d7cf9b6da4641827dc637c6a648b69755cc430ebee5409ec3e7012103b600c4a78393496531569a4b01439d6571848608c6a55e675bdb8cc38c13c5c1ffffffff0220a10700000000001976a9143dac46888addc73ccbaea31cf847f11fc0cb0eb088ac0bf90e00000000001976a914fc0bec598d2ca60bbc0b98bafcbf0e9db0a7c82988ac00000000", "vin": [{"sequence": 4294967295, "scriptSig": {"hex": "47304402203d0b2a9747e41dbad681b6eb6b4a044b4e2faf9452805580bf1b0db6e5685f8002201f4bc8532af16d7cf9b6da4641827dc637c6a648b69755cc430ebee5409ec3e7012103b600c4a78393496531569a4b01439d6571848608c6a55e675bdb8cc38c13c5c1", "asm": "304402203d0b2a9747e41dbad681b6eb6b4a044b4e2faf9452805580bf1b0db6e5685f8002201f4bc8532af16d7cf9b6da4641827dc637c6a648b69755cc430ebee5409ec3e7[ALL] 03b600c4a78393496531569a4b01439d6571848608c6a55e675bdb8cc38c13c5c1"}, "vout": 36, "txid": "386b7c418734684d9ad6314dc7336a4b031be1a8d5e2a8cf385a571c69015c44"}], "txid": "58ac8a24725bb1fca1fb9a179b20d6387475c07b28d48ebd2168f1be71444388", "blocktime": 1537873282, "version": 1, "confirmations": 11485, "time": 1537873282, "locktime": 0, "vsize": 225, "size": 225}