{"hash": "58ad72f39185831902795f87d32fb9e7a49272297d3556ce648db7ad66295ece", "blockhash": "0000000000000000000baef3f32e3676a92c3b2e5da21b426e4f302fc371ce76", "vout": [{"scriptPubKey": {"reqSigs": 1, "hex": "a914ee2c07c44be95ca9f325ef991b13b64f23566d5287", "addresses": ["3PQMVUrGdeCB59cLuJW5XUz6HbmX9sYa1y"], "asm": "OP_HASH160 ee2c07c44be95ca9f325ef991b13b64f23566d52 OP_EQUAL", "type": "scripthash"}, "value": 0.00313322, "n": 0}, {"scriptPubKey": {"reqSigs": 1, "hex": "76a914be804b5d67b36c4b9fd8b67b3856b57ace35441088ac", "addresses": ["1JNH5Vv7ofjS8dhWuYHcSEKJ16XW4CTUTQ"], "asm": "OP_DUP OP_HASH160 be804b5d67b36c4b9fd8b67b3856b57ace354410 OP_EQUALVERIFY OP_CHECKSIG", "type": "pubkeyhash"}, "value": 0.23804969, "n": 1}], "hex": "0100000001b9247cd59db582d722413b77bf3b3390f815684a609261b5f8d8f0f43d707440010000006a47304402206524fd4f399f9ac01644737e54ff39c5d112ee88d92dad2951822a0c505d436c022008780b1fa3e97abf77359ff843807cea89d3d9d3777a081ed017cb6d543b91cb012103ab1f3d73a6433541852946f2cd510a848bd61f01c7000ba9201b1ce7f7bdc04bffffffff02eac704000000000017a914ee2c07c44be95ca9f325ef991b13b64f23566d5287293c6b01000000001976a914be804b5d67b36c4b9fd8b67b3856b57ace35441088ac00000000", "vin": [{"sequence": 4294967295, "scriptSig": {"hex": "47304402206524fd4f399f9ac01644737e54ff39c5d112ee88d92dad2951822a0c505d436c022008780b1fa3e97abf77359ff843807cea89d3d9d3777a081ed017cb6d543b91cb012103ab1f3d73a6433541852946f2cd510a848bd61f01c7000ba9201b1ce7f7bdc04b", "asm": "304402206524fd4f399f9ac01644737e54ff39c5d112ee88d92dad2951822a0c505d436c022008780b1fa3e97abf77359ff843807cea89d3d9d3777a081ed017cb6d543b91cb[ALL] 03ab1f3d73a6433541852946f2cd510a848bd61f01c7000ba9201b1ce7f7bdc04b"}, "vout": 1, "txid": "4074703df4f0d8f8b56192604a6815f890333bbf773b4122d782b59dd57c24b9"}], "txid": "58ad72f39185831902795f87d32fb9e7a49272297d3556ce648db7ad66295ece", "blocktime": 1537876114, "version": 1, "confirmations": 11460, "time": 1537876114, "locktime": 0, "vsize": 223, "size": 223}