{"hash": "58b0a1c8b18da537f1a5df30d50b721102d1a4432b61bee0ed94557759d134ac", "blockhash": "0000000000000000001e0dab787dd257d1dbfcb92a98c2207d5e1078be1f4165", "vout": [{"scriptPubKey": {"reqSigs": 1, "hex": "a91410d4125c56562f9537c5b77726e089e6ca1b9ad287", "addresses": ["33DzncbfU7RcCLjoL6tuGDzWf1Zk9oK9o8"], "asm": "OP_HASH160 10d4125c56562f9537c5b77726e089e6ca1b9ad2 OP_EQUAL", "type": "scripthash"}, "value": 0.00029464, "n": 0}, {"scriptPubKey": {"reqSigs": 1, "hex": "76a91484737030a8d92492c9dcf4c7134c5c2a00018d6088ac", "addresses": ["1D5LV7TUKkcS2hiVjqf6aDqJjZYkYwTp2q"], "asm": "OP_DUP OP_HASH160 84737030a8d92492c9dcf4c7134c5c2a00018d60 OP_EQUALVERIFY OP_CHECKSIG", "type": "pubkeyhash"}, "value": 0.02628067, "n": 1}], "hex": "0100000001422266badbdd19b9a527f939c090f215f8174a809199de9fc2f30e11baad36e6010000006a473044022046ff325ed5ba53861dd8195094e8b55ffc06babd1a0cfd235dd6540a84e6b60c0220227e8f23903a7ddcfe36499039bb267db53b94b8a9296ecf4b8d462cf09e2b5a01210314e51cebf044e28c0f6b3d220e5b13ec981b1135792f5ecfacadb92caeb6a0b2ffffffff02187300000000000017a91410d4125c56562f9537c5b77726e089e6ca1b9ad287e3192800000000001976a91484737030a8d92492c9dcf4c7134c5c2a00018d6088ac00000000", "vin": [{"sequence": 4294967295, "scriptSig": {"hex": "473044022046ff325ed5ba53861dd8195094e8b55ffc06babd1a0cfd235dd6540a84e6b60c0220227e8f23903a7ddcfe36499039bb267db53b94b8a9296ecf4b8d462cf09e2b5a01210314e51cebf044e28c0f6b3d220e5b13ec981b1135792f5ecfacadb92caeb6a0b2", "asm": "3044022046ff325ed5ba53861dd8195094e8b55ffc06babd1a0cfd235dd6540a84e6b60c0220227e8f23903a7ddcfe36499039bb267db53b94b8a9296ecf4b8d462cf09e2b5a[ALL] 0314e51cebf044e28c0f6b3d220e5b13ec981b1135792f5ecfacadb92caeb6a0b2"}, "vout": 1, "txid": "e636adba110ef3c29fde9991804a17f815f290c039f927a5b919dddbba662242"}], "txid": "58b0a1c8b18da537f1a5df30d50b721102d1a4432b61bee0ed94557759d134ac", "blocktime": 1537872475, "version": 1, "confirmations": 11487, "time": 1537872475, "locktime": 0, "vsize": 223, "size": 223}