{"hash": "bece423a29c12d8654393c871de9b9ebb5a5635e308f13a55abd9510db94558a", "blockhash": "0000000000000000000baef3f32e3676a92c3b2e5da21b426e4f302fc371ce76", "vout": [{"scriptPubKey": {"reqSigs": 1, "hex": "a914c8948f84ab8bc2187580e4fb86ecf2a0a06e11cf87", "addresses": ["3Kyb35jwJ7YCiAF7JRfW5VZdpyywKap5YB"], "asm": "OP_HASH160 c8948f84ab8bc2187580e4fb86ecf2a0a06e11cf OP_EQUAL", "type": "scripthash"}, "value": 8.51e-05, "n": 0}, {"scriptPubKey": {"reqSigs": 1, "hex": "a914d303b012fd5bace55c9e1eecd8544fa009e066ec87", "addresses": ["3LvkvFaJnbgHkBLLALpbmpCoqhxjnChTS6"], "asm": "OP_HASH160 d303b012fd5bace55c9e1eecd8544fa009e066ec OP_EQUAL", "type": "scripthash"}, "value": 0.00955219, "n": 1}], "hex": "010000000001012864cee6bd39ef6305d777e415efd4b38690fabc78dd428ecf1ace57fa15cc8f01000000232200205d6499f7200492ec9507ce8f2964f6bc783b27e872ac6ff833364b07b881828cffffffff023e2100000000000017a914c8948f84ab8bc2187580e4fb86ecf2a0a06e11cf8753930e000000000017a914d303b012fd5bace55c9e1eecd8544fa009e066ec870400483045022100d6b5f4daf69c046db31e4681d53a57fea554ae88fca5fe83649037e8cbe68973022034e7a58ad86849e90671455a858f03bcb21b16fcf23d4096c1edc9731d7a55a9014730440220218935a54cb1168bc70109a2c8d28d2993964da0d52bfe397630e0d29b8ed7ef022012f3b833907b2f11616317dd011fa6451e3bde844b83ec59e9adc82738e6d5ac0147522102e4c6107243fb30e2c7b68867cb2ba9b88f255fd888815db5b6b304be2776f30b2103338f346cab6ba87fe940591a03ac234be06520c5ab386d4b6632e8eef0d0db7652ae00000000", "vin": [{"txinwitness": ["", "3045022100d6b5f4daf69c046db31e4681d53a57fea554ae88fca5fe83649037e8cbe68973022034e7a58ad86849e90671455a858f03bcb21b16fcf23d4096c1edc9731d7a55a901", "30440220218935a54cb1168bc70109a2c8d28d2993964da0d52bfe397630e0d29b8ed7ef022012f3b833907b2f11616317dd011fa6451e3bde844b83ec59e9adc82738e6d5ac01", "522102e4c6107243fb30e2c7b68867cb2ba9b88f255fd888815db5b6b304be2776f30b2103338f346cab6ba87fe940591a03ac234be06520c5ab386d4b6632e8eef0d0db7652ae"], "sequence": 4294967295, "scriptSig": {"hex": "2200205d6499f7200492ec9507ce8f2964f6bc783b27e872ac6ff833364b07b881828c", "asm": "00205d6499f7200492ec9507ce8f2964f6bc783b27e872ac6ff833364b07b881828c"}, "vout": 1, "txid": "8fcc15fa57ce1acf8e42dd78bcfa9086b3d4ef15e477d70563ef39bde6ce6428"}], "txid": "58bbef8ad91df838c3f03bd2746f67b28fea2e676d9d824cf63d75b4b32d39a1", "blocktime": 1537876114, "version": 1, "confirmations": 11462, "time": 1537876114, "locktime": 0, "vsize": 206, "size": 371}