{"hash": "c51d1e162a442daabe2fe45c1fb67a3def7b84a86b341612d0bcc5be599df3b0", "blockhash": "0000000000000000000e13cef7c366c0283d82e591d1acd082e914b08063cdf1", "vout": [{"scriptPubKey": {"reqSigs": 1, "hex": "a9148820fc0d4b0baec5de3cc1a2b92c0f8ff615bd3f87", "addresses": ["3E6oLSYupsEjnAXHTgbcJeAjRTzWMSdnTA"], "asm": "OP_HASH160 8820fc0d4b0baec5de3cc1a2b92c0f8ff615bd3f OP_EQUAL", "type": "scripthash"}, "value": 0.10151805, "n": 0}], "hex": "0100000000010142b64e6f8d4b31ae2d4c040bf48e9e58c2aa38970055f8b88a7a400df089748b00000000171600146805b7f59bf9ceafca4b5a76ee5f9d590d8e3ad9fdffffff017de79a000000000017a9148820fc0d4b0baec5de3cc1a2b92c0f8ff615bd3f870247304402200811802181ced671ae37c3f4e606360541ddaaf6d026a4c6af655204d5bf59dc02207faf2f1b80917505161f085c8e5e3e8b1c36c99e97e4a12e849382ba1a899246012103c1283e053ee93e0c4a8e7224af525b1387570ebc754f9563492733748de12ebd10490800", "vin": [{"txinwitness": ["304402200811802181ced671ae37c3f4e606360541ddaaf6d026a4c6af655204d5bf59dc02207faf2f1b80917505161f085c8e5e3e8b1c36c99e97e4a12e849382ba1a89924601", "03c1283e053ee93e0c4a8e7224af525b1387570ebc754f9563492733748de12ebd"], "sequence": 4294967293, "scriptSig": {"hex": "1600146805b7f59bf9ceafca4b5a76ee5f9d590d8e3ad9", "asm": "00146805b7f59bf9ceafca4b5a76ee5f9d590d8e3ad9"}, "vout": 0, "txid": "8b7489f00d407a8ab8f855009738aac2589e8ef40b044c2dae314b8d6f4eb642"}], "txid": "58bea9138fe9efba20a86905780ff3e2a2f69d9b0dd1913e9638db55fc8588ee", "blocktime": 1537871767, "version": 1, "confirmations": 11493, "time": 1537871767, "locktime": 542992, "vsize": 134, "size": 215}