{"hash": "d6ca8f04709b27dc974af1c6bee881c415848961400f486c88eff2c05bff5f50", "blockhash": "0000000000000000001cda96e906b7601b7a6fb1a3b62bca570a9e5d8f4b3de1", "vout": [{"scriptPubKey": {"reqSigs": 1, "hex": "a9143d43cb0b62edba1ccd7945dcd6853f949109f6c687", "addresses": ["37GxMbVcHM3bwqtU888EobTLSHAcNUPeN8"], "asm": "OP_HASH160 3d43cb0b62edba1ccd7945dcd6853f949109f6c6 OP_EQUAL", "type": "scripthash"}, "value": 0.50299382, "n": 0}], "hex": "01000000000101ac37b96bb9a965f6ed48306e760367bfbd00acb9f30725792b61ea71c16ce74f000000002322002090312915c7b0b5f59a0a2050fa672fdb4c5bb1a817d07fb6b37ea88519a954caffffffff01f681ff020000000017a9143d43cb0b62edba1ccd7945dcd6853f949109f6c6870400483045022100c7c3415306cbdc7ed3e595ab382a0afad3f1356ade499428ce906e2b635203e202200a578e2c7987acc3dc539c080de8059b0ccf70f768f2749eaca9bb1fba5a946b01473044022078f4412ed5029c42a66b2bb200f81d7502b9a1218dc94a85262789abeff5c6b60220499d3b9fb1abfc1ea10588d1154a97eb0cbfdec16e13780db3baac4dc2d94cd801475221033ccd5d32e0a9df0e58dbe073dc23cc95d71f777a481521effd52e82749ccc3792102a83a83cc44fc8f2171e120dbc4d090fb6585d9afe6952280a1854a72c910553352ae00000000", "vin": [{"txinwitness": ["", "3045022100c7c3415306cbdc7ed3e595ab382a0afad3f1356ade499428ce906e2b635203e202200a578e2c7987acc3dc539c080de8059b0ccf70f768f2749eaca9bb1fba5a946b01", "3044022078f4412ed5029c42a66b2bb200f81d7502b9a1218dc94a85262789abeff5c6b60220499d3b9fb1abfc1ea10588d1154a97eb0cbfdec16e13780db3baac4dc2d94cd801", "5221033ccd5d32e0a9df0e58dbe073dc23cc95d71f777a481521effd52e82749ccc3792102a83a83cc44fc8f2171e120dbc4d090fb6585d9afe6952280a1854a72c910553352ae"], "sequence": 4294967295, "scriptSig": {"hex": "22002090312915c7b0b5f59a0a2050fa672fdb4c5bb1a817d07fb6b37ea88519a954ca", "asm": "002090312915c7b0b5f59a0a2050fa672fdb4c5bb1a817d07fb6b37ea88519a954ca"}, "vout": 0, "txid": "4fe76cc171ea612b792507f3b9ac00bdbf6703766e3048edf665a9b96bb937ac"}], "txid": "58c19fc9d0b7c22e67283c21dc6830df2429c800f780adb6025f9adb85f0defb", "blocktime": 1537873282, "version": 1, "confirmations": 11484, "time": 1537873282, "locktime": 0, "vsize": 174, "size": 339}