{"hash": "58c1d9031a6349cc62281915e35a599a145079a17d59a7321a92828eea063eae", "blockhash": "0000000000000000000baef3f32e3676a92c3b2e5da21b426e4f302fc371ce76", "vout": [{"scriptPubKey": {"reqSigs": 1, "hex": "76a914628dd1c1e14ca672ee31ef5527d589e2ee44f3f488ac", "addresses": ["19z77ajSxUoX8qvhxkAog9KRPShWaTcdfR"], "asm": "OP_DUP OP_HASH160 628dd1c1e14ca672ee31ef5527d589e2ee44f3f4 OP_EQUALVERIFY OP_CHECKSIG", "type": "pubkeyhash"}, "value": 0.00013979, "n": 0}, {"scriptPubKey": {"reqSigs": 1, "hex": "76a91456e978999f516241a7b5bbea0f39a077b8c016c988ac", "addresses": ["18vYoMVupuazGX2yTraAWzcsG2jRaxim6z"], "asm": "OP_DUP OP_HASH160 56e978999f516241a7b5bbea0f39a077b8c016c9 OP_EQUALVERIFY OP_CHECKSIG", "type": "pubkeyhash"}, "value": 0.00282002, "n": 1}], "hex": "0100000001417e6d0051abedadb265ae73722de360ef7e7359db89057ecef54438bf601874000000006b483045022100819e01da71b428cb7184e08f9ec239892a0b8331b355b716a3bb6d6f7d84b7f80220330a06f964fb972201cd11889b5dde4ede699a34f6b030a9d647b6f1cb6df552012102de37e4a89beb5a6ee759cd231f38d52e3838522fd4505ea5decf4670c355cf98ffffffff029b360000000000001976a914628dd1c1e14ca672ee31ef5527d589e2ee44f3f488ac924d0400000000001976a91456e978999f516241a7b5bbea0f39a077b8c016c988ac00000000", "vin": [{"sequence": 4294967295, "scriptSig": {"hex": "483045022100819e01da71b428cb7184e08f9ec239892a0b8331b355b716a3bb6d6f7d84b7f80220330a06f964fb972201cd11889b5dde4ede699a34f6b030a9d647b6f1cb6df552012102de37e4a89beb5a6ee759cd231f38d52e3838522fd4505ea5decf4670c355cf98", "asm": "3045022100819e01da71b428cb7184e08f9ec239892a0b8331b355b716a3bb6d6f7d84b7f80220330a06f964fb972201cd11889b5dde4ede699a34f6b030a9d647b6f1cb6df552[ALL] 02de37e4a89beb5a6ee759cd231f38d52e3838522fd4505ea5decf4670c355cf98"}, "vout": 0, "txid": "741860bf3844f5ce7e0589db59737eef60e32d7273ae65b2adedab51006d7e41"}], "txid": "58c1d9031a6349cc62281915e35a599a145079a17d59a7321a92828eea063eae", "blocktime": 1537876114, "version": 1, "confirmations": 11460, "time": 1537876114, "locktime": 0, "vsize": 226, "size": 226}