{"hash": "58cbceb57be1fbed84994808bce6399de8285f593427bf33a53bd64f13378372", "blockhash": "0000000000000000001cda96e906b7601b7a6fb1a3b62bca570a9e5d8f4b3de1", "vout": [{"scriptPubKey": {"reqSigs": 1, "hex": "76a91441545cbc9bbc47ca648e1bf4f3e8f7d0183e3d2d88ac", "addresses": ["16xRz4YSqqsXpNmdbkoaooVxCQdmMApydj"], "asm": "OP_DUP OP_HASH160 41545cbc9bbc47ca648e1bf4f3e8f7d0183e3d2d OP_EQUALVERIFY OP_CHECKSIG", "type": "pubkeyhash"}, "value": 0.002573, "n": 0}], "hex": "0100000001e3cb4ee65956d638e4eee68656c2d7c404bd4f416fd2d94dc52338f655a08e2c000000006a47304402205ec7c06330c200429fd14f1bad00726d047243aa1eef0224ddbe32a9f2e87795022050e73937edb1e43b73ed02a858c9cacd7da864c0dc6413e1821e1282668fb83301210281f3664dd0acce9326a3a276d4d389ff6cb5ed2c6bdd3fe04aba208b9cc0e4d2ffffffff0114ed0300000000001976a91441545cbc9bbc47ca648e1bf4f3e8f7d0183e3d2d88ac00000000", "vin": [{"sequence": 4294967295, "scriptSig": {"hex": "47304402205ec7c06330c200429fd14f1bad00726d047243aa1eef0224ddbe32a9f2e87795022050e73937edb1e43b73ed02a858c9cacd7da864c0dc6413e1821e1282668fb83301210281f3664dd0acce9326a3a276d4d389ff6cb5ed2c6bdd3fe04aba208b9cc0e4d2", "asm": "304402205ec7c06330c200429fd14f1bad00726d047243aa1eef0224ddbe32a9f2e87795022050e73937edb1e43b73ed02a858c9cacd7da864c0dc6413e1821e1282668fb833[ALL] 0281f3664dd0acce9326a3a276d4d389ff6cb5ed2c6bdd3fe04aba208b9cc0e4d2"}, "vout": 0, "txid": "2c8ea055f63823c54dd9d26f414fbd04c4d7c25686e6eee438d65659e64ecbe3"}], "txid": "58cbceb57be1fbed84994808bce6399de8285f593427bf33a53bd64f13378372", "blocktime": 1537873282, "version": 1, "confirmations": 11484, "time": 1537873282, "locktime": 0, "vsize": 191, "size": 191}