{"hash": "58ce00c4042bbcd0f2421eaa6414ffc503d57cc8206ae2243fa48bde6d01c0e2", "blockhash": "00000000000000000017f5eb5941039fbcee6240d03bc1f2f8e35350df66a1d8", "vout": [{"scriptPubKey": {"reqSigs": 1, "hex": "76a9149fb65eca368f1d94589d3dabb5c9093cc19a29c988ac", "addresses": ["1FZUuoxzsRCeZ6sNnatavwLidbLcpjFhpe"], "asm": "OP_DUP OP_HASH160 9fb65eca368f1d94589d3dabb5c9093cc19a29c9 OP_EQUALVERIFY OP_CHECKSIG", "type": "pubkeyhash"}, "value": 0.00635332, "n": 0}, {"scriptPubKey": {"type": "nulldata", "hex": "6a4c50000077fd000111e85041433989018c4eec9bd19ed074892d00f8e87af8e8e963c7cfd5b9c612cb83320704831df896aeb96185b45baa19830613cebbf6251a091d100759d4ba30d2c37bb011d97e02cf", "asm": "OP_RETURN 000077fd000111e85041433989018c4eec9bd19ed074892d00f8e87af8e8e963c7cfd5b9c612cb83320704831df896aeb96185b45baa19830613cebbf6251a091d100759d4ba30d2c37bb011d97e02cf"}, "value": 0.0, "n": 1}], "hex": "010000000165361ab8c087943a861f1857de73d182edf67647cc2841b23d5ce3c03abb8c92010000006a473044022004b7b70156396068fd77e974dba79ae503c3f6259445dde90e6b27659f4a2c750220743d50e5091efd99784f72ca2f6309e35ed4274a991c2dfd36c42967dad714a10121034020011059795323ff040c24ebc16caa7e1cb6a529796b02a6369acc3e0f06ecffffffff02c4b10900000000001976a9149fb65eca368f1d94589d3dabb5c9093cc19a29c988ac0000000000000000536a4c50000077fd000111e85041433989018c4eec9bd19ed074892d00f8e87af8e8e963c7cfd5b9c612cb83320704831df896aeb96185b45baa19830613cebbf6251a091d100759d4ba30d2c37bb011d97e02cf00000000", "vin": [{"sequence": 4294967295, "scriptSig": {"hex": "473044022004b7b70156396068fd77e974dba79ae503c3f6259445dde90e6b27659f4a2c750220743d50e5091efd99784f72ca2f6309e35ed4274a991c2dfd36c42967dad714a10121034020011059795323ff040c24ebc16caa7e1cb6a529796b02a6369acc3e0f06ec", "asm": "3044022004b7b70156396068fd77e974dba79ae503c3f6259445dde90e6b27659f4a2c750220743d50e5091efd99784f72ca2f6309e35ed4274a991c2dfd36c42967dad714a1[ALL] 034020011059795323ff040c24ebc16caa7e1cb6a529796b02a6369acc3e0f06ec"}, "vout": 1, "txid": "928cbb3ac0e35c3db24128cc4776f6ed82d173de57181f863a9487c0b81a3665"}], "txid": "58ce00c4042bbcd0f2421eaa6414ffc503d57cc8206ae2243fa48bde6d01c0e2", "blocktime": 1537874412, "version": 1, "confirmations": 11467, "time": 1537874412, "locktime": 0, "vsize": 283, "size": 283}