{"hash": "58d1e5b7e53cc8b58e9418ac15547f495fa45c1fd893b444874fc1f09f0b4078", "blockhash": "000000000000000000022b45ed06c6f4ccd3cf7fb5ba4856ebd2e58215665228", "vout": [{"scriptPubKey": {"type": "nulldata", "hex": "6a4c500000775b0001a9e71dbfbef22a481e62ef5b3a016b46dc7dc7d0968d120d670c1906f999566d65c4d41d9faf1aabdcd89cb4ce7f5baa06f80612a03d5b6b33471d100759d4ba30d2c37bb011d97e02cf", "asm": "OP_RETURN 0000775b0001a9e71dbfbef22a481e62ef5b3a016b46dc7dc7d0968d120d670c1906f999566d65c4d41d9faf1aabdcd89cb4ce7f5baa06f80612a03d5b6b33471d100759d4ba30d2c37bb011d97e02cf"}, "value": 0.0, "n": 0}, {"scriptPubKey": {"reqSigs": 1, "hex": "76a914a31487f46a678298237c3caf2fb19342af748b2688ac", "addresses": ["1FsHjnxRAtuUb9oASZiXXmR7N3ErnPhsfw"], "asm": "OP_DUP OP_HASH160 a31487f46a678298237c3caf2fb19342af748b26 OP_EQUALVERIFY OP_CHECKSIG", "type": "pubkeyhash"}, "value": 0.0065381, "n": 1}], "hex": "01000000015319db4843f219dfde37e9c0d984c0ce3c57a4d80ca5acbc90ed9a1c1a7644ad010000006b483045022100aef4b34ec2b94b6da8e1ff1da8515e482cba5c2b283511184706226a398d9ece02200572bdbc0605298184466ed78493b612a37a319739ec572df4f5f5e9cec0f5ad012103badd0c24eb187a89bce0a008f1fc0d4ed02235cdf7579ac62590e00e41053b67ffffffff020000000000000000536a4c500000775b0001a9e71dbfbef22a481e62ef5b3a016b46dc7dc7d0968d120d670c1906f999566d65c4d41d9faf1aabdcd89cb4ce7f5baa06f80612a03d5b6b33471d100759d4ba30d2c37bb011d97e02cff2f90900000000001976a914a31487f46a678298237c3caf2fb19342af748b2688ac00000000", "vin": [{"sequence": 4294967295, "scriptSig": {"hex": "483045022100aef4b34ec2b94b6da8e1ff1da8515e482cba5c2b283511184706226a398d9ece02200572bdbc0605298184466ed78493b612a37a319739ec572df4f5f5e9cec0f5ad012103badd0c24eb187a89bce0a008f1fc0d4ed02235cdf7579ac62590e00e41053b67", "asm": "3045022100aef4b34ec2b94b6da8e1ff1da8515e482cba5c2b283511184706226a398d9ece02200572bdbc0605298184466ed78493b612a37a319739ec572df4f5f5e9cec0f5ad[ALL] 03badd0c24eb187a89bce0a008f1fc0d4ed02235cdf7579ac62590e00e41053b67"}, "vout": 1, "txid": "ad44761a1c9aed90bcaca50cd8a4573ccec084d9c0e937dedf19f24348db1953"}], "txid": "58d1e5b7e53cc8b58e9418ac15547f495fa45c1fd893b444874fc1f09f0b4078", "blocktime": 1537869901, "version": 1, "confirmations": 11523, "time": 1537869901, "locktime": 0, "vsize": 284, "size": 284}