{"hash": "8b6b6e38449918746ad378d50956cee352545d85cc0f34efde296c6b44a3ca82", "blockhash": "0000000000000000000e13cef7c366c0283d82e591d1acd082e914b08063cdf1", "vout": [{"scriptPubKey": {"reqSigs": 1, "hex": "a914af30802299f21c0f643379086148506bfba461ae87", "addresses": ["3HfLGzN568VzGP5k2fwyJR4pBrpWQr2CWU"], "asm": "OP_HASH160 af30802299f21c0f643379086148506bfba461ae OP_EQUAL", "type": "scripthash"}, "value": 3.114e-05, "n": 0}, {"scriptPubKey": {"reqSigs": 1, "hex": "a9141d7370ccde4590204155e4074f69743a8e4fac0287", "addresses": ["34Njp4ZKtmCDfqqps26wHBYQQGUo2pGkLi"], "asm": "OP_HASH160 1d7370ccde4590204155e4074f69743a8e4fac02 OP_EQUAL", "type": "scripthash"}, "value": 0.00037411, "n": 1}], "hex": "0100000000010196a596fecb161ec19d0aa2270c20b0c90b5badc54eaaf189bd06ec9af8de6d6c0100000023220020f63dfc12340f6360d0251c22746d6b56093e3243e96ca012a65484a5d9cf0ec0ffffffff022a0c00000000000017a914af30802299f21c0f643379086148506bfba461ae87239200000000000017a9141d7370ccde4590204155e4074f69743a8e4fac02870400483045022100c2b2d2580da6472ed46b607ddb72d06ca58dd6850a2e9123c3ded4509561fc7802200992f5c2bc677163245fcb0fda9ae2d2ec02259eb256c0b1765a378bd6888ac4014730440220789c16cb98bd88453430a1247e79007fa4f9e18a2ea4a71bcf1981d617a78f64022045f572cfe7a623b5e0987874a17b009304a2c48b87edfab4389859192cff42cf0147522102097067a6a0cc130a9a6f6577b47bf369b840a79de31cd7457187994266b1bb7c2103338f346cab6ba87fe940591a03ac234be06520c5ab386d4b6632e8eef0d0db7652ae00000000", "vin": [{"txinwitness": ["", "3045022100c2b2d2580da6472ed46b607ddb72d06ca58dd6850a2e9123c3ded4509561fc7802200992f5c2bc677163245fcb0fda9ae2d2ec02259eb256c0b1765a378bd6888ac401", "30440220789c16cb98bd88453430a1247e79007fa4f9e18a2ea4a71bcf1981d617a78f64022045f572cfe7a623b5e0987874a17b009304a2c48b87edfab4389859192cff42cf01", "522102097067a6a0cc130a9a6f6577b47bf369b840a79de31cd7457187994266b1bb7c2103338f346cab6ba87fe940591a03ac234be06520c5ab386d4b6632e8eef0d0db7652ae"], "sequence": 4294967295, "scriptSig": {"hex": "220020f63dfc12340f6360d0251c22746d6b56093e3243e96ca012a65484a5d9cf0ec0", "asm": "0020f63dfc12340f6360d0251c22746d6b56093e3243e96ca012a65484a5d9cf0ec0"}, "vout": 1, "txid": "6c6ddef89aec06bd89f1aa4ec5ad5b0bc9b0200c27a20a9dc11e16cbfe96a596"}], "txid": "58d495916c53cc57a8621d425ef6dd684c852c6c820dc5e9146c1184948b8be1", "blocktime": 1537871767, "version": 1, "confirmations": 11495, "time": 1537871767, "locktime": 0, "vsize": 206, "size": 371}