{"hash": "58d6beefe91946620cab58b2e04029fbc1c262401a6f5ad76801da5a5aa75bfc", "blockhash": "000000000000000000022b45ed06c6f4ccd3cf7fb5ba4856ebd2e58215665228", "vout": [{"scriptPubKey": {"reqSigs": 1, "hex": "a91401a00abda3057ca4ef6c3aa372557a743bc9be8d87", "addresses": ["31qcKeQBzEN94za615JKhaAcY65ynKSMr9"], "asm": "OP_HASH160 01a00abda3057ca4ef6c3aa372557a743bc9be8d OP_EQUAL", "type": "scripthash"}, "value": 0.0078, "n": 0}, {"scriptPubKey": {"reqSigs": 1, "hex": "76a91435c04a339eb3d03c58f390c7fe2eb7bdef0425ea88ac", "addresses": ["15uDAhbtgZ1io3tpnFb5KvgukvT4bhYYWF"], "asm": "OP_DUP OP_HASH160 35c04a339eb3d03c58f390c7fe2eb7bdef0425ea OP_EQUALVERIFY OP_CHECKSIG", "type": "pubkeyhash"}, "value": 0.00926323, "n": 1}], "hex": "02000000025d500b81072d828b3e8679e89099ca64f4286111edd7f47f90bb2e06f9fd459c350000006b483045022100b86635b52c3857f0082a29c31bf805dead9072dc17c79758f50fd018697bf02102201aed4f25a34919530ddee2fa6d06ad2867ef7d784604e6bd86e3ee436833998d012103f65d673de909ba55e82b7f14b5ee02e15019b52112eb83ad083067c277b76a7bfeffffff5d500b81072d828b3e8679e89099ca64f4286111edd7f47f90bb2e06f9fd459c390000006b4830450221008b0c44825f14ad32bd7d5d707b9022d76a7a97aa7e49f45035fc5466b6b6ad9902203235e7ef3a3908a4b34e0d7547d054fc54ca83dd170adc938e02aeef79aebd23012103c3cf24868f36ec62156bab60d5e145608a2a8be6c4166ae7b4730f78fa4a6b7ffeffffff02e0e60b000000000017a91401a00abda3057ca4ef6c3aa372557a743bc9be8d8773220e00000000001976a91435c04a339eb3d03c58f390c7fe2eb7bdef0425ea88ac0b490800", "vin": [{"sequence": 4294967294, "scriptSig": {"hex": "483045022100b86635b52c3857f0082a29c31bf805dead9072dc17c79758f50fd018697bf02102201aed4f25a34919530ddee2fa6d06ad2867ef7d784604e6bd86e3ee436833998d012103f65d673de909ba55e82b7f14b5ee02e15019b52112eb83ad083067c277b76a7b", "asm": "3045022100b86635b52c3857f0082a29c31bf805dead9072dc17c79758f50fd018697bf02102201aed4f25a34919530ddee2fa6d06ad2867ef7d784604e6bd86e3ee436833998d[ALL] 03f65d673de909ba55e82b7f14b5ee02e15019b52112eb83ad083067c277b76a7b"}, "vout": 53, "txid": "9c45fdf9062ebb907ff4d7ed116128f464ca9990e879863e8b822d07810b505d"}, {"sequence": 4294967294, "scriptSig": {"hex": "4830450221008b0c44825f14ad32bd7d5d707b9022d76a7a97aa7e49f45035fc5466b6b6ad9902203235e7ef3a3908a4b34e0d7547d054fc54ca83dd170adc938e02aeef79aebd23012103c3cf24868f36ec62156bab60d5e145608a2a8be6c4166ae7b4730f78fa4a6b7f", "asm": "30450221008b0c44825f14ad32bd7d5d707b9022d76a7a97aa7e49f45035fc5466b6b6ad9902203235e7ef3a3908a4b34e0d7547d054fc54ca83dd170adc938e02aeef79aebd23[ALL] 03c3cf24868f36ec62156bab60d5e145608a2a8be6c4166ae7b4730f78fa4a6b7f"}, "vout": 57, "txid": "9c45fdf9062ebb907ff4d7ed116128f464ca9990e879863e8b822d07810b505d"}], "txid": "58d6beefe91946620cab58b2e04029fbc1c262401a6f5ad76801da5a5aa75bfc", "blocktime": 1537869901, "version": 2, "confirmations": 11522, "time": 1537869901, "locktime": 542987, "vsize": 372, "size": 372}