{"hash": "f49e5565cded51b6b2b915f1783c37c5f93d2a86e9233af382d07d7166c8cac0", "blockhash": "0000000000000000001cda96e906b7601b7a6fb1a3b62bca570a9e5d8f4b3de1", "vout": [{"scriptPubKey": {"reqSigs": 1, "hex": "76a914bfdc6721da430fdfdb9fd83e1727c5790fee6feb88ac", "addresses": ["1JVU6Vw1YjPSTwsqSECpk9sBLKTZEdqHU5"], "asm": "OP_DUP OP_HASH160 bfdc6721da430fdfdb9fd83e1727c5790fee6feb OP_EQUALVERIFY OP_CHECKSIG", "type": "pubkeyhash"}, "value": 0.5777, "n": 0}, {"scriptPubKey": {"reqSigs": 1, "hex": "a9143112bbe0f6e06c99396ab535b003561e3cf9ebf087", "addresses": ["36AVUbd32iw3c7D5qUJEqqHyZD6d5m84Uq"], "asm": "OP_HASH160 3112bbe0f6e06c99396ab535b003561e3cf9ebf0 OP_EQUAL", "type": "scripthash"}, "value": 0.05599478, "n": 1}], "hex": "01000000000102427604b524391e285a31485567941ddd07f4e12214f620abbd0ef701ce4888bf0500000017160014ec9eccd2c3cdd90c16b630fbce3c06fe51cdf410ffffffff74a8564540da6c6cbff7f36738514beb00103e27b86ae81c44657828325184090100000017160014a631a8904e68c3f4537cddd2693ed91e52e84bdbffffffff0210807103000000001976a914bfdc6721da430fdfdb9fd83e1727c5790fee6feb88acf67055000000000017a9143112bbe0f6e06c99396ab535b003561e3cf9ebf0870247304402207950b6ca23a732e62e2f134b6956ae3f2f3b81987b4475ac1a8850d13303b621022022666547c45e90db6f187b1fd675ea93dcff9add6745163f6d015b78d3bd6016012102a4fe832de1f9118d27c6fc04875e5d11b735307e13bbc82b40d17f95c2d4df920247304402203d4892b2c08e1e66d44bbe135c6e86751382439343a4492b1bd55430e15128f402200a857e89b162334077c47474225b7a31f9436e089fb43e83f76614fd539e861801210296c061fff0940972cc05869c4160f28ecc83f39ee57ecb9e6059b052e613bb2900000000", "vin": [{"txinwitness": ["304402207950b6ca23a732e62e2f134b6956ae3f2f3b81987b4475ac1a8850d13303b621022022666547c45e90db6f187b1fd675ea93dcff9add6745163f6d015b78d3bd601601", "02a4fe832de1f9118d27c6fc04875e5d11b735307e13bbc82b40d17f95c2d4df92"], "sequence": 4294967295, "scriptSig": {"hex": "160014ec9eccd2c3cdd90c16b630fbce3c06fe51cdf410", "asm": "0014ec9eccd2c3cdd90c16b630fbce3c06fe51cdf410"}, "vout": 5, "txid": "bf8848ce01f70ebdab20f61422e1f407dd1d94675548315a281e3924b5047642"}, {"txinwitness": ["304402203d4892b2c08e1e66d44bbe135c6e86751382439343a4492b1bd55430e15128f402200a857e89b162334077c47474225b7a31f9436e089fb43e83f76614fd539e861801", "0296c061fff0940972cc05869c4160f28ecc83f39ee57ecb9e6059b052e613bb29"], "sequence": 4294967295, "scriptSig": {"hex": "160014a631a8904e68c3f4537cddd2693ed91e52e84bdb", "asm": "0014a631a8904e68c3f4537cddd2693ed91e52e84bdb"}, "vout": 1, "txid": "09845132287865441ce86ab8273e1000eb4b513867f3f7bf6c6cda404556a874"}], "txid": "58d75c54a9ec47ab6df5b9e67a8a3d6794a81fb1dcd04a907620be125b51424c", "blocktime": 1537873282, "version": 1, "confirmations": 11480, "time": 1537873282, "locktime": 0, "vsize": 258, "size": 420}