{"hash": "58d93b4f1970520b721c49b53f8f0503ea9a39faf8c76c9c2df4aa7be8cd7064", "blockhash": "00000000000000000017f5eb5941039fbcee6240d03bc1f2f8e35350df66a1d8", "vout": [{"scriptPubKey": {"reqSigs": 1, "hex": "76a91497cde801c030e3aab824fd6a5ef0d29eeb9b571988ac", "addresses": ["1EqfhawzGYkChfx3k9tfE2Y7iW4X5BZ6iB"], "asm": "OP_DUP OP_HASH160 97cde801c030e3aab824fd6a5ef0d29eeb9b5719 OP_EQUALVERIFY OP_CHECKSIG", "type": "pubkeyhash"}, "value": 0.00901082, "n": 0}, {"scriptPubKey": {"reqSigs": 1, "hex": "76a91492a8ec7d5788f547fd348d9826ebf6f9859f09f688ac", "addresses": ["1ENU23C3UBmsGTFKVMgZZqEiq1wNCpYMrg"], "asm": "OP_DUP OP_HASH160 92a8ec7d5788f547fd348d9826ebf6f9859f09f6 OP_EQUALVERIFY OP_CHECKSIG", "type": "pubkeyhash"}, "value": 1.29177945, "n": 1}], "hex": "01000000015625553764a6dae037254d665bf76c035d274d169a474fd4bf746ee1869105cd010000006a47304402207d7e3ee000e539b5f9c180ac4e5c2eaedcb8f970c403ba22da0bd3e6e298537502203938517141c7578a7dcce8608f122b6e1d9cbefa045bc9bcb8ae0ac45cb6b34f0121039b45e69ae45550bdbdce378f09299bebba90d763048c2c37dc9a951eefff7dddffffffff02dabf0d00000000001976a91497cde801c030e3aab824fd6a5ef0d29eeb9b571988ac5919b307000000001976a91492a8ec7d5788f547fd348d9826ebf6f9859f09f688ac00000000", "vin": [{"sequence": 4294967295, "scriptSig": {"hex": "47304402207d7e3ee000e539b5f9c180ac4e5c2eaedcb8f970c403ba22da0bd3e6e298537502203938517141c7578a7dcce8608f122b6e1d9cbefa045bc9bcb8ae0ac45cb6b34f0121039b45e69ae45550bdbdce378f09299bebba90d763048c2c37dc9a951eefff7ddd", "asm": "304402207d7e3ee000e539b5f9c180ac4e5c2eaedcb8f970c403ba22da0bd3e6e298537502203938517141c7578a7dcce8608f122b6e1d9cbefa045bc9bcb8ae0ac45cb6b34f[ALL] 039b45e69ae45550bdbdce378f09299bebba90d763048c2c37dc9a951eefff7ddd"}, "vout": 1, "txid": "cd059186e16e74bfd44f479a164d275d036cf75b664d2537e0daa66437552556"}], "txid": "58d93b4f1970520b721c49b53f8f0503ea9a39faf8c76c9c2df4aa7be8cd7064", "blocktime": 1537874412, "version": 1, "confirmations": 11468, "time": 1537874412, "locktime": 0, "vsize": 225, "size": 225}