{"hash": "58da68aab019c2ec0f4a76e3079ea63975f2d4f21c2278ceead1327535b414d7", "blockhash": "000000000000000000022b45ed06c6f4ccd3cf7fb5ba4856ebd2e58215665228", "vout": [{"scriptPubKey": {"reqSigs": 1, "hex": "a914dc20948c9c24528e308080dd73bdaa0081a0222f87", "addresses": ["3MkwcTpteFSyPPDiomra2oEEUSsr7wByLF"], "asm": "OP_HASH160 dc20948c9c24528e308080dd73bdaa0081a0222f OP_EQUAL", "type": "scripthash"}, "value": 0.01798252, "n": 0}, {"scriptPubKey": {"reqSigs": 1, "hex": "76a914f6f03b2fc05e37acf410293114ff2a7a02125c6488ac", "addresses": ["1PWh1kJE4eFTVCoUUbos8iY1psoQCsx1fe"], "asm": "OP_DUP OP_HASH160 f6f03b2fc05e37acf410293114ff2a7a02125c64 OP_EQUALVERIFY OP_CHECKSIG", "type": "pubkeyhash"}, "value": 0.000794, "n": 1}], "hex": "01000000026ee3ec1fc91f513a18ac35764523792642142be6c225b50baa4d23d5e685d059000000006b483045022100b56ca905b3e08d39869269772f9e58c37e84f063a26eb11217eaff9a6c060deb0220014e57fe4fec99abaeadd75f6a477bfb799fb14f381f9cbede597b95a897ca1601210292fa3db4c36b999a8c647160f799681c2453b0eec2891f06a24383210a60074effffffff457d90f449633845503842609f4960ae06dad39e5612eec05b55700fbe03b0df010000006b483045022100ad9bd162b5d0277b8ff17cd6637bb8fcf1c3b7c0c1e578a07705b3c7704e6ee902206f286ab67e8b2de52d35a4827cde9c6dd7daaa16f2234de54abfebcca6f7d75a012103647c789cc583fad27a7a7bf0fc782c2c1661588bc55a479a82b363c22980983affffffff026c701b000000000017a914dc20948c9c24528e308080dd73bdaa0081a0222f8728360100000000001976a914f6f03b2fc05e37acf410293114ff2a7a02125c6488ac00000000", "vin": [{"sequence": 4294967295, "scriptSig": {"hex": "483045022100b56ca905b3e08d39869269772f9e58c37e84f063a26eb11217eaff9a6c060deb0220014e57fe4fec99abaeadd75f6a477bfb799fb14f381f9cbede597b95a897ca1601210292fa3db4c36b999a8c647160f799681c2453b0eec2891f06a24383210a60074e", "asm": "3045022100b56ca905b3e08d39869269772f9e58c37e84f063a26eb11217eaff9a6c060deb0220014e57fe4fec99abaeadd75f6a477bfb799fb14f381f9cbede597b95a897ca16[ALL] 0292fa3db4c36b999a8c647160f799681c2453b0eec2891f06a24383210a60074e"}, "vout": 0, "txid": "59d085e6d5234daa0bb525c2e62b1442267923457635ac183a511fc91fece36e"}, {"sequence": 4294967295, "scriptSig": {"hex": "483045022100ad9bd162b5d0277b8ff17cd6637bb8fcf1c3b7c0c1e578a07705b3c7704e6ee902206f286ab67e8b2de52d35a4827cde9c6dd7daaa16f2234de54abfebcca6f7d75a012103647c789cc583fad27a7a7bf0fc782c2c1661588bc55a479a82b363c22980983a", "asm": "3045022100ad9bd162b5d0277b8ff17cd6637bb8fcf1c3b7c0c1e578a07705b3c7704e6ee902206f286ab67e8b2de52d35a4827cde9c6dd7daaa16f2234de54abfebcca6f7d75a[ALL] 03647c789cc583fad27a7a7bf0fc782c2c1661588bc55a479a82b363c22980983a"}, "vout": 1, "txid": "dfb003be0f70555bc0ee12569ed3da06ae60499f6042385045386349f4907d45"}], "txid": "58da68aab019c2ec0f4a76e3079ea63975f2d4f21c2278ceead1327535b414d7", "blocktime": 1537869901, "version": 1, "confirmations": 11524, "time": 1537869901, "locktime": 0, "vsize": 372, "size": 372}