{"hash": "daf82ab54e08ff819114af722b78c5cf79a1ea58b131f84de53539f40e17e078", "blockhash": "0000000000000000000e13cef7c366c0283d82e591d1acd082e914b08063cdf1", "vout": [{"scriptPubKey": {"reqSigs": 1, "hex": "76a914bfdd16ccd4d4d72d3eebb60dc7bcb6360dbf12ce88ac", "addresses": ["1JVUvBGU7nWMkhHQeJ2MadV77DQ4d47mTz"], "asm": "OP_DUP OP_HASH160 bfdd16ccd4d4d72d3eebb60dc7bcb6360dbf12ce OP_EQUALVERIFY OP_CHECKSIG", "type": "pubkeyhash"}, "value": 0.00349992, "n": 0}, {"scriptPubKey": {"reqSigs": 1, "hex": "a914e7cd09d7737e3ae1e651c046c9d35b45ab43759087", "addresses": ["3NpfeBF4GMvpGbNTKfYzSUKi8X2YtrXyWv"], "asm": "OP_HASH160 e7cd09d7737e3ae1e651c046c9d35b45ab437590 OP_EQUAL", "type": "scripthash"}, "value": 9.158e-05, "n": 1}], "hex": "010000000001015fc188f837f71ad0402c81bbc14cda99bf41aa6cdbcafbc237ace493ae0a960a0100000017160014d410aa350b10ad34106779f9856001762db32db7ffffffff0228570500000000001976a914bfdd16ccd4d4d72d3eebb60dc7bcb6360dbf12ce88acc62300000000000017a914e7cd09d7737e3ae1e651c046c9d35b45ab4375908702473044022078d14205e95d9edfb16bca3f2bd2fa4c225bb440bc09851ead5087932b87d1b0022030cfd8098d66a20c8a6c1e7d0c02e024a76b36b35ce05018b8a89a57a31241ac0121023664d0bf08536c6e2e2e7a29e552b98a42698b33835a2b396e14ff0bbfe4a11e00000000", "vin": [{"txinwitness": ["3044022078d14205e95d9edfb16bca3f2bd2fa4c225bb440bc09851ead5087932b87d1b0022030cfd8098d66a20c8a6c1e7d0c02e024a76b36b35ce05018b8a89a57a31241ac01", "023664d0bf08536c6e2e2e7a29e552b98a42698b33835a2b396e14ff0bbfe4a11e"], "sequence": 4294967295, "scriptSig": {"hex": "160014d410aa350b10ad34106779f9856001762db32db7", "asm": "0014d410aa350b10ad34106779f9856001762db32db7"}, "vout": 1, "txid": "0a960aae93e4ac37c2fbcadb6caa41bf99da4cc1bb812c40d01af737f888c15f"}], "txid": "58ddb0d62106c90f2587321f0b97402d337ab3b4a67b958bcd56d142c017efe5", "blocktime": 1537871767, "version": 1, "confirmations": 11490, "time": 1537871767, "locktime": 0, "vsize": 168, "size": 249}