{"hash": "58e7858c69a19484d25185cb0bcbd69927d27c9e72f1a48b46991e82fa44bab6", "blockhash": "0000000000000000001f76057863aec43deb6fa401d9628bb513d65a8098bfab", "vout": [{"scriptPubKey": {"reqSigs": 1, "hex": "a9142eab3e9526eab8d7bbaaaf5f50eb46433c3bf4aa87", "addresses": ["35wn9eBU92GifjdrXzg1kPKkh7LZWyRxJU"], "asm": "OP_HASH160 2eab3e9526eab8d7bbaaaf5f50eb46433c3bf4aa OP_EQUAL", "type": "scripthash"}, "value": 0.00906885, "n": 0}, {"scriptPubKey": {"reqSigs": 1, "hex": "76a914b3b1cd314083b05f19c9497662dff3e5b7ea46c588ac", "addresses": ["1HP8xCsgNgBmKqgS8x4a57GsUL1AoZBvTv"], "asm": "OP_DUP OP_HASH160 b3b1cd314083b05f19c9497662dff3e5b7ea46c5 OP_EQUALVERIFY OP_CHECKSIG", "type": "pubkeyhash"}, "value": 0.01049512, "n": 1}], "hex": "0200000002ac97b509fd43c4b2743808ba8045d543f3229fd2e7d734eec174516675ca4b60000000006a473044022055d190c2d349fb65044c530aa7bef2fa35a66dd8737d5a0ab2eca3eae54c8833022074d3171913729e6b1f2392f793bd0567ef7236ad443922bfc886ce80d5f618fb0121027b3faa38ba9b3202729c14451cde35045f25e9f1e2901ce3da135748606a339dfeffffffa2ee2004350b1195670f8f866b8314da3acbbcd435191c9973029ac9c0bc54f1000000006a47304402207f69afa28e1fd4f45c17b751841f06416b1129aac84aa8cb73ffde25b50196420220375df3f1846738997f61d577339eac6df58ae7e672b175b8fe95c4f4c47d5769012103895183b9f7223c1fa3c44ba0a6471749751a6b7d86de50dc1e487d56226ea884feffffff0285d60d000000000017a9142eab3e9526eab8d7bbaaaf5f50eb46433c3bf4aa87a8031000000000001976a914b3b1cd314083b05f19c9497662dff3e5b7ea46c588ac14490800", "vin": [{"sequence": 4294967294, "scriptSig": {"hex": "473044022055d190c2d349fb65044c530aa7bef2fa35a66dd8737d5a0ab2eca3eae54c8833022074d3171913729e6b1f2392f793bd0567ef7236ad443922bfc886ce80d5f618fb0121027b3faa38ba9b3202729c14451cde35045f25e9f1e2901ce3da135748606a339d", "asm": "3044022055d190c2d349fb65044c530aa7bef2fa35a66dd8737d5a0ab2eca3eae54c8833022074d3171913729e6b1f2392f793bd0567ef7236ad443922bfc886ce80d5f618fb[ALL] 027b3faa38ba9b3202729c14451cde35045f25e9f1e2901ce3da135748606a339d"}, "vout": 0, "txid": "604bca75665174c1ee34d7e7d29f22f343d54580ba083874b2c443fd09b597ac"}, {"sequence": 4294967294, "scriptSig": {"hex": "47304402207f69afa28e1fd4f45c17b751841f06416b1129aac84aa8cb73ffde25b50196420220375df3f1846738997f61d577339eac6df58ae7e672b175b8fe95c4f4c47d5769012103895183b9f7223c1fa3c44ba0a6471749751a6b7d86de50dc1e487d56226ea884", "asm": "304402207f69afa28e1fd4f45c17b751841f06416b1129aac84aa8cb73ffde25b50196420220375df3f1846738997f61d577339eac6df58ae7e672b175b8fe95c4f4c47d5769[ALL] 03895183b9f7223c1fa3c44ba0a6471749751a6b7d86de50dc1e487d56226ea884"}, "vout": 0, "txid": "f154bcc0c99a0273991c1935d4bccb3ada14836b868f0f6795110b350420eea2"}], "txid": "58e7858c69a19484d25185cb0bcbd69927d27c9e72f1a48b46991e82fa44bab6", "blocktime": 1537873891, "version": 2, "confirmations": 11474, "time": 1537873891, "locktime": 542996, "vsize": 370, "size": 370}