{"hash": "58e77d3662c54ba4437e50b3a2d7b808b32fe8825481fbbafb9e7f424781be83", "blockhash": "0000000000000000001f76057863aec43deb6fa401d9628bb513d65a8098bfab", "vout": [{"scriptPubKey": {"reqSigs": 1, "hex": "76a914888e936443eda0f025520b3151da3c53cb58e96e88ac", "addresses": ["1DT3hRgoY2VFTEWFeA2jFtEuFjx4bKAE3z"], "asm": "OP_DUP OP_HASH160 888e936443eda0f025520b3151da3c53cb58e96e OP_EQUALVERIFY OP_CHECKSIG", "type": "pubkeyhash"}, "value": 0.022133, "n": 0}, {"scriptPubKey": {"type": "nulldata", "hex": "6a4c50000077e4000167df72fb503605953f25f60a7af8e8e963c7cfd5b95b23cc0f42c2fc38c5f5201554d03010031cbc1a7f37323a855baa17330612509c148db582bc9a9526289ac0f6612cd74e33776ee4", "asm": "OP_RETURN 000077e4000167df72fb503605953f25f60a7af8e8e963c7cfd5b95b23cc0f42c2fc38c5f5201554d03010031cbc1a7f37323a855baa17330612509c148db582bc9a9526289ac0f6612cd74e33776ee4"}, "value": 0.0, "n": 1}], "hex": "01000000015087a35b4ea88814fbbc8f8c3a7c9f73befb0e67391e110d18f4651af2daca38010000006a4730440220064ff65a4d68da15699dba1440959a322c8ef7ddf1cbce1cfcb7b46ea86b65b3022033a382f10f37af3ca92c9f85e09afd2d8c152c1f9370af7df3ef131c274570fd0121035adc6e8d1225d8854231b63fc9589fb41227a3b6f868e8e0c45bc0f414513cfbffffffff02b4c52100000000001976a914888e936443eda0f025520b3151da3c53cb58e96e88ac0000000000000000536a4c50000077e4000167df72fb503605953f25f60a7af8e8e963c7cfd5b95b23cc0f42c2fc38c5f5201554d03010031cbc1a7f37323a855baa17330612509c148db582bc9a9526289ac0f6612cd74e33776ee400000000", "vin": [{"sequence": 4294967295, "scriptSig": {"hex": "4730440220064ff65a4d68da15699dba1440959a322c8ef7ddf1cbce1cfcb7b46ea86b65b3022033a382f10f37af3ca92c9f85e09afd2d8c152c1f9370af7df3ef131c274570fd0121035adc6e8d1225d8854231b63fc9589fb41227a3b6f868e8e0c45bc0f414513cfb", "asm": "30440220064ff65a4d68da15699dba1440959a322c8ef7ddf1cbce1cfcb7b46ea86b65b3022033a382f10f37af3ca92c9f85e09afd2d8c152c1f9370af7df3ef131c274570fd[ALL] 035adc6e8d1225d8854231b63fc9589fb41227a3b6f868e8e0c45bc0f414513cfb"}, "vout": 1, "txid": "38cadaf21a65f4180d111e39670efbbe739f7c3a8c8fbcfb1488a84e5ba38750"}], "txid": "58e77d3662c54ba4437e50b3a2d7b808b32fe8825481fbbafb9e7f424781be83", "blocktime": 1537873891, "version": 1, "confirmations": 11478, "time": 1537873891, "locktime": 0, "vsize": 283, "size": 283}