{"hash": "006b566259d09e678d119cc7ff505492534e2a569ae8f95371f0ee617cc3dfc8", "blockhash": "0000000000000000001f76057863aec43deb6fa401d9628bb513d65a8098bfab", "vout": [{"scriptPubKey": {"reqSigs": 1, "hex": "76a9149c0f79845a6fc2c43d249dc99a292ef935761df188ac", "addresses": ["1FEAx8F4ZKMhmEasJjRfjCj5xXK2FPSacT"], "asm": "OP_DUP OP_HASH160 9c0f79845a6fc2c43d249dc99a292ef935761df1 OP_EQUALVERIFY OP_CHECKSIG", "type": "pubkeyhash"}, "value": 0.00463275, "n": 0}, {"scriptPubKey": {"reqSigs": 1, "hex": "a914dddd9b4911915bc24d44240a3d68e831567da18187", "addresses": ["3Mv8jS73UvvUVVk5vfbeQKjxn5C8Wxw5kd"], "asm": "OP_HASH160 dddd9b4911915bc24d44240a3d68e831567da181 OP_EQUAL", "type": "scripthash"}, "value": 0.00998455, "n": 1}], "hex": "02000000000101f7993c3d714c84bec9d7439f8c97ed14c423eba694314fb024d2af594a8e923504000000171600140d656e872d5d05388435ff1ce4be66fe14aded0bfeffffff02ab110700000000001976a9149c0f79845a6fc2c43d249dc99a292ef935761df188ac373c0f000000000017a914dddd9b4911915bc24d44240a3d68e831567da18187024730440220729a49e1d83dcbd5b88a49d366895178a64a421284ef6227a3892e3c67a2efa002203a92863f8f1cc7bfc534788ec7f76f4ee9c42fda0afd010d5e49e2b07484aa0b01210275f51dcca002f1220641f43b22ffdd84023b6382bdb70c6dc0fc215163fde7c414490800", "vin": [{"txinwitness": ["30440220729a49e1d83dcbd5b88a49d366895178a64a421284ef6227a3892e3c67a2efa002203a92863f8f1cc7bfc534788ec7f76f4ee9c42fda0afd010d5e49e2b07484aa0b01", "0275f51dcca002f1220641f43b22ffdd84023b6382bdb70c6dc0fc215163fde7c4"], "sequence": 4294967294, "scriptSig": {"hex": "1600140d656e872d5d05388435ff1ce4be66fe14aded0b", "asm": "00140d656e872d5d05388435ff1ce4be66fe14aded0b"}, "vout": 4, "txid": "35928e4a59afd224b04f3194a6eb23c414ed978c9f43d7c9be844c713d3c99f7"}], "txid": "58e8dc4ef33a7bc8c8deb89577ee40229931732a6bc418452b7bf85f6cd1ef0b", "blocktime": 1537873891, "version": 2, "confirmations": 11475, "time": 1537873891, "locktime": 542996, "vsize": 168, "size": 249}