{"hash": "120c6ae9f3697a2d9d05cb16ad514346ac60ad46e819e9e56088aea4d6ff9ca7", "blockhash": "0000000000000000001f76057863aec43deb6fa401d9628bb513d65a8098bfab", "vout": [{"scriptPubKey": {"reqSigs": 1, "hex": "a91448c54ff31ad85a5df5b88464e91c7f8f141c527b87", "addresses": ["38KnwrXX77LbrT6udCmLMJkCaHJNrUp58j"], "asm": "OP_HASH160 48c54ff31ad85a5df5b88464e91c7f8f141c527b OP_EQUAL", "type": "scripthash"}, "value": 0.0107148, "n": 0}, {"scriptPubKey": {"reqSigs": 1, "hex": "76a914503e65fbe9cbac8ae63b9f386bb8c614592140f588ac", "addresses": ["18KHoryEnRtZUCcfYGWJ4u6tLLPvJuAXGo"], "asm": "OP_DUP OP_HASH160 503e65fbe9cbac8ae63b9f386bb8c614592140f5 OP_EQUALVERIFY OP_CHECKSIG", "type": "pubkeyhash"}, "value": 0.0022535, "n": 1}], "hex": "02000000000102264783699f6b2417f2ed48581e179b6110ccf57f5f4669fee6f5ab2491db6c870000000017160014b203ba1c4d817c181c75197cfee6f8e4451802d7feffffff9a8e422e3f8670373611d4cee096feb44c7747aaf907bd6720d181f461487d040000000017160014794b7ad22535877a222dd778a4520807f58bea3ffeffffff02785910000000000017a91448c54ff31ad85a5df5b88464e91c7f8f141c527b8746700300000000001976a914503e65fbe9cbac8ae63b9f386bb8c614592140f588ac0247304402205d2d156f98eb93f3408dc204c9cc442454a22e77fa4504f7704c5ca9855b44d5022013808057698d41b5d62ad758ca113dd991cb6f5d938c700935a148ba09c44e49012102bed667a45733e94df5e4d19c97c944e3f48e28de0be207970d7fa6db7b8cdc3702483045022100c44848d8bd53a5bc16441c2ebb66446832f69230f45053fa6491fe1a6ee228ef022013e5bb3f8e1d34ee0a5cd6c294428f4dc258c90218e783e82839418fc18492e4012103c048d01c431e8fbc337b620a25cd9fb1b5b4c74269baa3885ade34fed659845414490800", "vin": [{"txinwitness": ["304402205d2d156f98eb93f3408dc204c9cc442454a22e77fa4504f7704c5ca9855b44d5022013808057698d41b5d62ad758ca113dd991cb6f5d938c700935a148ba09c44e4901", "02bed667a45733e94df5e4d19c97c944e3f48e28de0be207970d7fa6db7b8cdc37"], "sequence": 4294967294, "scriptSig": {"hex": "160014b203ba1c4d817c181c75197cfee6f8e4451802d7", "asm": "0014b203ba1c4d817c181c75197cfee6f8e4451802d7"}, "vout": 0, "txid": "876cdb9124abf5e6fe69465f7ff5cc10619b171e5848edf217246b9f69834726"}, {"txinwitness": ["3045022100c44848d8bd53a5bc16441c2ebb66446832f69230f45053fa6491fe1a6ee228ef022013e5bb3f8e1d34ee0a5cd6c294428f4dc258c90218e783e82839418fc18492e401", "03c048d01c431e8fbc337b620a25cd9fb1b5b4c74269baa3885ade34fed6598454"], "sequence": 4294967294, "scriptSig": {"hex": "160014794b7ad22535877a222dd778a4520807f58bea3f", "asm": "0014794b7ad22535877a222dd778a4520807f58bea3f"}, "vout": 0, "txid": "047d4861f481d12067bd07f9aa47774cb4fe96e0ced411363770863f2e428e9a"}], "txid": "58ed582b1ff9efc2810c86da89771fe48cca8027e1dd2b744b6baba9bf6f2ef7", "blocktime": 1537873891, "version": 2, "confirmations": 11478, "time": 1537873891, "locktime": 542996, "vsize": 259, "size": 421}