{"hash": "58ed8d36fcfee7a98a7b927e08c43b2d0e8a5f6f3563d367375115bf6e440ec6", "blockhash": "000000000000000000022b45ed06c6f4ccd3cf7fb5ba4856ebd2e58215665228", "vout": [{"scriptPubKey": {"reqSigs": 1, "hex": "76a914afd5c190a340194ba3054ba2757f3385e248917d88ac", "addresses": ["1H2jKc7ifvKP2gb4YshLwTVPmXeaVRKusz"], "asm": "OP_DUP OP_HASH160 afd5c190a340194ba3054ba2757f3385e248917d OP_EQUALVERIFY OP_CHECKSIG", "type": "pubkeyhash"}, "value": 1.69, "n": 0}, {"scriptPubKey": {"reqSigs": 1, "hex": "76a9141afac6f2783ca90cb28eb3e13b10186b3fa36be788ac", "addresses": ["13TezHjiF6zSwpXsBPgN3DucMmEwCatzvz"], "asm": "OP_DUP OP_HASH160 1afac6f2783ca90cb28eb3e13b10186b3fa36be7 OP_EQUALVERIFY OP_CHECKSIG", "type": "pubkeyhash"}, "value": 0.33194, "n": 1}], "hex": "0100000002c7a846a14c93a5668ec61e110d0d375bbc5f0632698c6ada0ebe905db972a669010000006b483045022100c8a6c6fd398f4745baa039b887a7715f4dec45b34f586b51efde97499684942302204f4e352d4ae4d92eb66eec1e5d141ae73d8eb1665b93b8def0ce311082af3ae9012103f14c74df403514f9592c3a3b0c888ffcdd75d6637f4851c437888219a7dbade0ffffffff56d2d2bb12e6b75ceb70a5380fa6a9f38a18b33ab7378575e46d68b19d7788e2000000006b48304502210098839521e0cfe8667e276dff9375bc40c3f21f940ec00a933b7b3c34aaf27a68022026a8f127e7053ff25702b350c40578786767987ac7a567f29d759673d7caaaab012103b9f6679fd4b3b033aa8ebd4431c255f7f2dbb23238bfa20466bd5d29d37ed62affffffff0240bc120a000000001976a914afd5c190a340194ba3054ba2757f3385e248917d88ac1080fa01000000001976a9141afac6f2783ca90cb28eb3e13b10186b3fa36be788ac00000000", "vin": [{"sequence": 4294967295, "scriptSig": {"hex": "483045022100c8a6c6fd398f4745baa039b887a7715f4dec45b34f586b51efde97499684942302204f4e352d4ae4d92eb66eec1e5d141ae73d8eb1665b93b8def0ce311082af3ae9012103f14c74df403514f9592c3a3b0c888ffcdd75d6637f4851c437888219a7dbade0", "asm": "3045022100c8a6c6fd398f4745baa039b887a7715f4dec45b34f586b51efde97499684942302204f4e352d4ae4d92eb66eec1e5d141ae73d8eb1665b93b8def0ce311082af3ae9[ALL] 03f14c74df403514f9592c3a3b0c888ffcdd75d6637f4851c437888219a7dbade0"}, "vout": 1, "txid": "69a672b95d90be0eda6a8c6932065fbc5b370d0d111ec68e66a5934ca146a8c7"}, {"sequence": 4294967295, "scriptSig": {"hex": "48304502210098839521e0cfe8667e276dff9375bc40c3f21f940ec00a933b7b3c34aaf27a68022026a8f127e7053ff25702b350c40578786767987ac7a567f29d759673d7caaaab012103b9f6679fd4b3b033aa8ebd4431c255f7f2dbb23238bfa20466bd5d29d37ed62a", "asm": "304502210098839521e0cfe8667e276dff9375bc40c3f21f940ec00a933b7b3c34aaf27a68022026a8f127e7053ff25702b350c40578786767987ac7a567f29d759673d7caaaab[ALL] 03b9f6679fd4b3b033aa8ebd4431c255f7f2dbb23238bfa20466bd5d29d37ed62a"}, "vout": 0, "txid": "e288779db1686de4758537b73ab3188af3a9a60f38a570eb5cb7e612bbd2d256"}], "txid": "58ed8d36fcfee7a98a7b927e08c43b2d0e8a5f6f3563d367375115bf6e440ec6", "blocktime": 1537869901, "version": 1, "confirmations": 11522, "time": 1537869901, "locktime": 0, "vsize": 374, "size": 374}