{"hash": "96e106ce33998aac55113d730357fb5fdbf9269023f7b4bc33d11a12c530cc9a", "blockhash": "00000000000000000018f53835495a110e01622372bf6ae95dc86f2b0ab887b0", "vout": [{"scriptPubKey": {"reqSigs": 1, "hex": "76a9141e2fcd4ce8411649271b8d950f84755ad91be90f88ac", "addresses": ["13kcY6PhuV7A2b3AeQ7UNb9wABBQZi5nue"], "asm": "OP_DUP OP_HASH160 1e2fcd4ce8411649271b8d950f84755ad91be90f OP_EQUALVERIFY OP_CHECKSIG", "type": "pubkeyhash"}, "value": 21.5, "n": 0}, {"scriptPubKey": {"reqSigs": 1, "hex": "a914d115006845df690a47b6bfd4d3660b60eb38f8b487", "addresses": ["3LkYJrPsDJSZHjiH3r2HfWSnnQ2Mpd6Km9"], "asm": "OP_HASH160 d115006845df690a47b6bfd4d3660b60eb38f8b4 OP_EQUAL", "type": "scripthash"}, "value": 0.0099736, "n": 1}], "hex": "01000000000102429af24d31f259c0ca13a96989eef462236c941075d85415b4698fab2e915c420100000017160014e2af3a4af069f5458498aa8e2c66afd1f4ffbc15ffffff008c657c8e30ea7eda4d4a22c09dbbc204ba8e59a110513ece7b79b203561ddad501000000171600144f6acf0c59d06edcf3d88b4d711faaa441187508ffffff000280652680000000001976a9141e2fcd4ce8411649271b8d950f84755ad91be90f88acf0370f000000000017a914d115006845df690a47b6bfd4d3660b60eb38f8b48702473044022023e16a2d59701318e032b21f5be73feedff8894b834f60cf40526b97840510b702204ff5edf5cf2c40d5e0d2e7de4bcf06fc3b93743dff047e968ef468312bb314a7012103fcbafb0ffe817a8882032b38ed2063ee3caf88827e74be906d6d4f7fccf7524102483045022100ba198438772b473990010a64e87d448e6a02646386ff075a2ef6009fe4638acc02200991e4b608dd882e65e9e0abf85ee0aeffbfdac0a0c5946a144b094a6fd68b00012102af1261afaa4f150a882567567d8c7df3322e0b44cc0cf82eca432bbef2effd0700000000", "vin": [{"txinwitness": ["3044022023e16a2d59701318e032b21f5be73feedff8894b834f60cf40526b97840510b702204ff5edf5cf2c40d5e0d2e7de4bcf06fc3b93743dff047e968ef468312bb314a701", "03fcbafb0ffe817a8882032b38ed2063ee3caf88827e74be906d6d4f7fccf75241"], "sequence": 16777215, "scriptSig": {"hex": "160014e2af3a4af069f5458498aa8e2c66afd1f4ffbc15", "asm": "0014e2af3a4af069f5458498aa8e2c66afd1f4ffbc15"}, "vout": 1, "txid": "425c912eab8f69b41554d87510946c2362f4ee8969a913cac059f2314df29a42"}, {"txinwitness": ["3045022100ba198438772b473990010a64e87d448e6a02646386ff075a2ef6009fe4638acc02200991e4b608dd882e65e9e0abf85ee0aeffbfdac0a0c5946a144b094a6fd68b0001", "02af1261afaa4f150a882567567d8c7df3322e0b44cc0cf82eca432bbef2effd07"], "sequence": 16777215, "scriptSig": {"hex": "1600144f6acf0c59d06edcf3d88b4d711faaa441187508", "asm": "00144f6acf0c59d06edcf3d88b4d711faaa441187508"}, "vout": 1, "txid": "d5da1d5603b2797bce3e5110a1598eba04c2bb9dc0224a4dda7eea308e7c658c"}], "txid": "58f80e855fa8b1b4abaca6cc4d2f99331b672a3f64f653be5d6273644b341b50", "blocktime": 1537870928, "version": 1, "confirmations": 11512, "time": 1537870928, "locktime": 0, "vsize": 259, "size": 421}