{"hash": "58f9a235f8a3798f7d95601371b85056ab685f2b4f288cf9868990aa115c6b5e", "blockhash": "000000000000000000022b45ed06c6f4ccd3cf7fb5ba4856ebd2e58215665228", "vout": [{"scriptPubKey": {"reqSigs": 1, "hex": "76a91417f30bdd6fc65d07529e4f083fdf5f48875ff5eb88ac", "addresses": ["13BdhZy3LWfibRmzrY5aKgve6eTGyvqiPw"], "asm": "OP_DUP OP_HASH160 17f30bdd6fc65d07529e4f083fdf5f48875ff5eb OP_EQUALVERIFY OP_CHECKSIG", "type": "pubkeyhash"}, "value": 0.00651766, "n": 0}, {"scriptPubKey": {"reqSigs": 1, "hex": "76a914af1099db9b70cfc5168e1173b0be1df48327de4988ac", "addresses": ["1Gxf92exTygpCdpPRabLdmWioRmq5PvebK"], "asm": "OP_DUP OP_HASH160 af1099db9b70cfc5168e1173b0be1df48327de49 OP_EQUALVERIFY OP_CHECKSIG", "type": "pubkeyhash"}, "value": 0.00779234, "n": 1}], "hex": "0100000001a95cbd49188a2bc99af4d332f47e20cbdd8c1622222fbed2cc1d787e9e300550010000006b483045022100b79a3eb69cb12cca24f29fc3da5d216b683ca6cdbe5cb5c7cd150498bfcd0534022068c2c5df4fd1d549fd78b99e02c83a0555f9fbd98fd9c6d0a38c2e83be71d562012102af495c8f35d85c027ccb143ce04b1bdfb381cc281334433fc50862596019f738ffffffff02f6f10900000000001976a91417f30bdd6fc65d07529e4f083fdf5f48875ff5eb88ace2e30b00000000001976a914af1099db9b70cfc5168e1173b0be1df48327de4988ac00000000", "vin": [{"sequence": 4294967295, "scriptSig": {"hex": "483045022100b79a3eb69cb12cca24f29fc3da5d216b683ca6cdbe5cb5c7cd150498bfcd0534022068c2c5df4fd1d549fd78b99e02c83a0555f9fbd98fd9c6d0a38c2e83be71d562012102af495c8f35d85c027ccb143ce04b1bdfb381cc281334433fc50862596019f738", "asm": "3045022100b79a3eb69cb12cca24f29fc3da5d216b683ca6cdbe5cb5c7cd150498bfcd0534022068c2c5df4fd1d549fd78b99e02c83a0555f9fbd98fd9c6d0a38c2e83be71d562[ALL] 02af495c8f35d85c027ccb143ce04b1bdfb381cc281334433fc50862596019f738"}, "vout": 1, "txid": "5005309e7e781dccd2be2f2222168cddcb207ef432d3f49ac92b8a1849bd5ca9"}], "txid": "58f9a235f8a3798f7d95601371b85056ab685f2b4f288cf9868990aa115c6b5e", "blocktime": 1537869901, "version": 1, "confirmations": 11522, "time": 1537869901, "locktime": 0, "vsize": 226, "size": 226}