{"hash": "a8f705f8fc8728425603f100f5564fdffdcd51d92d2867f7eef92358fc0d10d9", "blockhash": "0000000000000000001cda96e906b7601b7a6fb1a3b62bca570a9e5d8f4b3de1", "vout": [{"scriptPubKey": {"reqSigs": 1, "hex": "76a91460251b77a6857a36d79bc4ce2e958924aae5fc8088ac", "addresses": ["19mNKgCC11aZjpe8oFZUB9qCzk6oiHwfnn"], "asm": "OP_DUP OP_HASH160 60251b77a6857a36d79bc4ce2e958924aae5fc80 OP_EQUALVERIFY OP_CHECKSIG", "type": "pubkeyhash"}, "value": 0.01699338, "n": 0}, {"scriptPubKey": {"reqSigs": 1, "hex": "a91455b6b060ec5e574f4d5b2b7b22bae0deeb02743e87", "addresses": ["39WEDJUcEhawAGqqnT4VbzERcpZpQrwBvc"], "asm": "OP_HASH160 55b6b060ec5e574f4d5b2b7b22bae0deeb02743e OP_EQUAL", "type": "scripthash"}, "value": 0.00043757, "n": 1}], "hex": "010000000001016665a9ac490767319dc90d626b45ae4478b8e916e846ffed6cf0206a431a7c50010000001716001431d79aa5c08b984dff51d66d75610a14d64e2c62ffffffff020aee1900000000001976a91460251b77a6857a36d79bc4ce2e958924aae5fc8088acedaa00000000000017a91455b6b060ec5e574f4d5b2b7b22bae0deeb02743e8702483045022100bdd8fbe683c7ec8bec8f4d75739d9193ec33602ce810659ea82f840ad41e5a0e022057050d1684fc4a86b5b007448cce575a20f3c68c8f023da14863897baffc0be10121020ea6c7b4768c16160c041a4feb9df23e9f28372d1e7ef64575a2a12a00a1865300000000", "vin": [{"txinwitness": ["3045022100bdd8fbe683c7ec8bec8f4d75739d9193ec33602ce810659ea82f840ad41e5a0e022057050d1684fc4a86b5b007448cce575a20f3c68c8f023da14863897baffc0be101", "020ea6c7b4768c16160c041a4feb9df23e9f28372d1e7ef64575a2a12a00a18653"], "sequence": 4294967295, "scriptSig": {"hex": "16001431d79aa5c08b984dff51d66d75610a14d64e2c62", "asm": "001431d79aa5c08b984dff51d66d75610a14d64e2c62"}, "vout": 1, "txid": "507c1a436a20f06cedff46e816e9b87844ae456b620dc99d31670749aca96566"}], "txid": "58fc69d442e8bc6054fa69e9f378ca8196c6d665873ba432e3e463072c0c2220", "blocktime": 1537873282, "version": 1, "confirmations": 11480, "time": 1537873282, "locktime": 0, "vsize": 168, "size": 250}