{"hash": "5906f4e45185addaaf6b35a83fdbe2f602b91ddb1fbb00898cb35d99d1d443fd", "blockhash": "0000000000000000001f76057863aec43deb6fa401d9628bb513d65a8098bfab", "vout": [{"scriptPubKey": {"reqSigs": 1, "hex": "76a914d0a272f53c65422cee732164e188b8f5e6b4ecde88ac", "addresses": ["1L2AA4RBJwhjo1Z2T6HD3nTvyNz8NaJ3E2"], "asm": "OP_DUP OP_HASH160 d0a272f53c65422cee732164e188b8f5e6b4ecde OP_EQUALVERIFY OP_CHECKSIG", "type": "pubkeyhash"}, "value": 0.00015001, "n": 0}], "hex": "0100000001c21c4c53c0453cd8a2f90f0f7857c4ba6c76ed5f77f9abb95d286f80a15ec228000000006a4730440220264786344ea0da81715801e48d7833b0989a99817d69571a640aa34f1dbd0da6022062c9ba719f7e2b65e0acc2a24c0446302d9b04623a25e27c6e721869426d298a0121035c78cda00805c0e32464463005f91a7c56449319ad37995253656f085e5c7952fdffffff01993a0000000000001976a914d0a272f53c65422cee732164e188b8f5e6b4ecde88ac14490800", "vin": [{"sequence": 4294967293, "scriptSig": {"hex": "4730440220264786344ea0da81715801e48d7833b0989a99817d69571a640aa34f1dbd0da6022062c9ba719f7e2b65e0acc2a24c0446302d9b04623a25e27c6e721869426d298a0121035c78cda00805c0e32464463005f91a7c56449319ad37995253656f085e5c7952", "asm": "30440220264786344ea0da81715801e48d7833b0989a99817d69571a640aa34f1dbd0da6022062c9ba719f7e2b65e0acc2a24c0446302d9b04623a25e27c6e721869426d298a[ALL] 035c78cda00805c0e32464463005f91a7c56449319ad37995253656f085e5c7952"}, "vout": 0, "txid": "28c25ea1806f285db9abf9775fed766cbac457780f0ff9a2d83c45c0534c1cc2"}], "txid": "5906f4e45185addaaf6b35a83fdbe2f602b91ddb1fbb00898cb35d99d1d443fd", "blocktime": 1537873891, "version": 1, "confirmations": 11479, "time": 1537873891, "locktime": 542996, "vsize": 191, "size": 191}