{"hash": "5907748d6fd49ff4a96134acd37bdd23e7fe2faeeb0fa01866e1dfbee3b4d616", "blockhash": "0000000000000000001e0dab787dd257d1dbfcb92a98c2207d5e1078be1f4165", "vout": [{"scriptPubKey": {"reqSigs": 1, "hex": "76a9143693dbda6068c3feec35746cdec29745e76b603288ac", "addresses": ["15yacma1tuBEt9wDBFarHPCLHqLXfxzAUR"], "asm": "OP_DUP OP_HASH160 3693dbda6068c3feec35746cdec29745e76b6032 OP_EQUALVERIFY OP_CHECKSIG", "type": "pubkeyhash"}, "value": 0.00125865, "n": 0}, {"scriptPubKey": {"reqSigs": 1, "hex": "a914bf329d49c1a5440c479659b2bf01b589c17a1e3687", "addresses": ["3K7ycw8CvbdgHpEhx6STUSXdQLKvWPXQhs"], "asm": "OP_HASH160 bf329d49c1a5440c479659b2bf01b589c17a1e36 OP_EQUAL", "type": "scripthash"}, "value": 0.00304864, "n": 1}], "hex": "01000000013a84d9c2ef2cb097f8dbd5565e3c988d02a9376732c1ac36553e31d0641b1d3c010000006a473044022013fbdd9dbfc22622322fbc3258eba40ca2bdfa9945ced1485f03d12ea7a47897022078d4436fc98ecd3d71325c28c5364656444b6c826a244bff857d9e6e66493b9e0121021dacce9d88a587c39eaca5e4b37debf2faf7e1f135914be36ae28ca2a580aac3ffffffff02a9eb0100000000001976a9143693dbda6068c3feec35746cdec29745e76b603288ace0a604000000000017a914bf329d49c1a5440c479659b2bf01b589c17a1e368700000000", "vin": [{"sequence": 4294967295, "scriptSig": {"hex": "473044022013fbdd9dbfc22622322fbc3258eba40ca2bdfa9945ced1485f03d12ea7a47897022078d4436fc98ecd3d71325c28c5364656444b6c826a244bff857d9e6e66493b9e0121021dacce9d88a587c39eaca5e4b37debf2faf7e1f135914be36ae28ca2a580aac3", "asm": "3044022013fbdd9dbfc22622322fbc3258eba40ca2bdfa9945ced1485f03d12ea7a47897022078d4436fc98ecd3d71325c28c5364656444b6c826a244bff857d9e6e66493b9e[ALL] 021dacce9d88a587c39eaca5e4b37debf2faf7e1f135914be36ae28ca2a580aac3"}, "vout": 1, "txid": "3c1d1b64d0313e5536acc1326737a9028d983c5e56d5dbf897b02cefc2d9843a"}], "txid": "5907748d6fd49ff4a96134acd37bdd23e7fe2faeeb0fa01866e1dfbee3b4d616", "blocktime": 1537872475, "version": 1, "confirmations": 11486, "time": 1537872475, "locktime": 0, "vsize": 223, "size": 223}