{"hash": "590b75fc58b6ff5f03f7388819e6dc57b2df0d19cdea13ce7c860b38b5597d4e", "blockhash": "0000000000000000000dcc0f55137456b1a82d3642486a52398922ac4d620174", "vout": [{"scriptPubKey": {"reqSigs": 1, "hex": "76a9146ae3eb3cd21cbd6d841d5299b653a0903956358988ac", "addresses": ["1AkBfRASYMgRXAYExXJ74EfBK2zYttCoVw"], "asm": "OP_DUP OP_HASH160 6ae3eb3cd21cbd6d841d5299b653a09039563589 OP_EQUALVERIFY OP_CHECKSIG", "type": "pubkeyhash"}, "value": 5.46e-06, "n": 0}, {"scriptPubKey": {"reqSigs": 1, "hex": "a9143f4eecba122ad73039d481c8d37f99cb4f887cd887", "addresses": ["37Tm3Qz8Zw2VJrheUUhArDAoq58S6YrS3g"], "asm": "OP_HASH160 3f4eecba122ad73039d481c8d37f99cb4f887cd8 OP_EQUAL", "type": "scripthash"}, "value": 0.99992362, "n": 1}, {"scriptPubKey": {"type": "nulldata", "hex": "6a146f6d6e69000000000000001f0000000db168a4c0", "asm": "OP_RETURN 6f6d6e69000000000000001f0000000db168a4c0"}, "value": 0.0, "n": 2}], "hex": "0100000001cc0d74824bcf2e0cd3a0f8289b7933a4dac018bfc8cc5bca41f3585532288d9601000000fdfe0000483045022100f5df31a0ab5b69b35181e8a051491c38fc3b18f525fe4a52449c84bceead5fc302201af076b40d1c98d4e52f938a371fc9f82134ab457ced570fa138059ee9ae8a0c01483045022100812d76b52ed4bd3cb4bc8200d1b0b576f164fa002be225694a3a6e7f9f95906302202b72f3acbac306226d370b25dca41a3d12be7eec6bbcd93308f30b13fcbe7a35014c6952210246ccf4de0c54cc7f3354cdd993c2c50cf965fd82238b89659fbd73a1b4bf05a121024fc59f72272a897fe43803374969f396058152fe4765a8d15216f94624257b1b21022593bc69ecbf3bbcc3c58082267cb49dadaf4ca8dbf1b2297338a9d628c4297653aeffffffff0322020000000000001976a9146ae3eb3cd21cbd6d841d5299b653a0903956358988ac2ac3f5050000000017a9143f4eecba122ad73039d481c8d37f99cb4f887cd8870000000000000000166a146f6d6e69000000000000001f0000000db168a4c000000000", "vin": [{"sequence": 4294967295, "scriptSig": {"hex": "00483045022100f5df31a0ab5b69b35181e8a051491c38fc3b18f525fe4a52449c84bceead5fc302201af076b40d1c98d4e52f938a371fc9f82134ab457ced570fa138059ee9ae8a0c01483045022100812d76b52ed4bd3cb4bc8200d1b0b576f164fa002be225694a3a6e7f9f95906302202b72f3acbac306226d370b25dca41a3d12be7eec6bbcd93308f30b13fcbe7a35014c6952210246ccf4de0c54cc7f3354cdd993c2c50cf965fd82238b89659fbd73a1b4bf05a121024fc59f72272a897fe43803374969f396058152fe4765a8d15216f94624257b1b21022593bc69ecbf3bbcc3c58082267cb49dadaf4ca8dbf1b2297338a9d628c4297653ae", "asm": "0 3045022100f5df31a0ab5b69b35181e8a051491c38fc3b18f525fe4a52449c84bceead5fc302201af076b40d1c98d4e52f938a371fc9f82134ab457ced570fa138059ee9ae8a0c[ALL] 3045022100812d76b52ed4bd3cb4bc8200d1b0b576f164fa002be225694a3a6e7f9f95906302202b72f3acbac306226d370b25dca41a3d12be7eec6bbcd93308f30b13fcbe7a35[ALL] 52210246ccf4de0c54cc7f3354cdd993c2c50cf965fd82238b89659fbd73a1b4bf05a121024fc59f72272a897fe43803374969f396058152fe4765a8d15216f94624257b1b21022593bc69ecbf3bbcc3c58082267cb49dadaf4ca8dbf1b2297338a9d628c4297653ae"}, "vout": 1, "txid": "968d28325558f341ca5bccc8bf18c0daa433799b28f8a0d30c2ecf4b82740dcc"}], "txid": "590b75fc58b6ff5f03f7388819e6dc57b2df0d19cdea13ce7c860b38b5597d4e", "blocktime": 1537870268, "version": 1, "confirmations": 11517, "time": 1537870268, "locktime": 0, "vsize": 404, "size": 404}