{"hash": "590c8430c59ae2364af4d1614881ac862b2b026aaef2b233e20ab39edab9ad37", "blockhash": "00000000000000000017f5eb5941039fbcee6240d03bc1f2f8e35350df66a1d8", "vout": [{"scriptPubKey": {"reqSigs": 1, "hex": "76a914124eb6fe6304a3c770e51cdf69b9a56316ddfd4f88ac", "addresses": ["12foTexcVrYQT5kPTKEioGzvxgjtTesyfr"], "asm": "OP_DUP OP_HASH160 124eb6fe6304a3c770e51cdf69b9a56316ddfd4f OP_EQUALVERIFY OP_CHECKSIG", "type": "pubkeyhash"}, "value": 0.00860796, "n": 0}, {"scriptPubKey": {"reqSigs": 1, "hex": "76a914a4bf2943e7f02159f05d7ae456fae31a1289489f88ac", "addresses": ["1G26paDXTHxbwfpwwGxdqEeSPxJAtWdZVb"], "asm": "OP_DUP OP_HASH160 a4bf2943e7f02159f05d7ae456fae31a1289489f OP_EQUALVERIFY OP_CHECKSIG", "type": "pubkeyhash"}, "value": 0.01555526, "n": 1}], "hex": "0100000001b57d9012436abef0a62fe64aa9d6bc1d5182e762327aa54e98938b7d1b72c48c000000006b483045022100c903f00400d29ab4370345034d852c152c15ceb01e3083d035717d162fe2938402201a36a11c7f40dc4eac4138bbf1ef16752df87ad883a47e88be18e6d55dc1a8c5012103471420fc854c46e67fabf407ebc58c142e71a351da1e2e381538a78ba0b9c771ffffffff027c220d00000000001976a914124eb6fe6304a3c770e51cdf69b9a56316ddfd4f88ac46bc1700000000001976a914a4bf2943e7f02159f05d7ae456fae31a1289489f88ac00000000", "vin": [{"sequence": 4294967295, "scriptSig": {"hex": "483045022100c903f00400d29ab4370345034d852c152c15ceb01e3083d035717d162fe2938402201a36a11c7f40dc4eac4138bbf1ef16752df87ad883a47e88be18e6d55dc1a8c5012103471420fc854c46e67fabf407ebc58c142e71a351da1e2e381538a78ba0b9c771", "asm": "3045022100c903f00400d29ab4370345034d852c152c15ceb01e3083d035717d162fe2938402201a36a11c7f40dc4eac4138bbf1ef16752df87ad883a47e88be18e6d55dc1a8c5[ALL] 03471420fc854c46e67fabf407ebc58c142e71a351da1e2e381538a78ba0b9c771"}, "vout": 0, "txid": "8cc4721b7d8b93984ea57a3262e782511dbcd6a94ae62fa6f0be6a4312907db5"}], "txid": "590c8430c59ae2364af4d1614881ac862b2b026aaef2b233e20ab39edab9ad37", "blocktime": 1537874412, "version": 1, "confirmations": 11468, "time": 1537874412, "locktime": 0, "vsize": 226, "size": 226}