{"hash": "59113b0706e3fc0fb2aa1dfe640e2eb7b95d3e25e0481d823c2463ff585abcea", "blockhash": "0000000000000000000dcc0f55137456b1a82d3642486a52398922ac4d620174", "vout": [{"scriptPubKey": {"reqSigs": 1, "hex": "76a914c841687c1872f0c54377e40ab3d305218f12eb3c88ac", "addresses": ["1KFrW1D1djWpi2vFVFr3HCtATfc7FMtcJL"], "asm": "OP_DUP OP_HASH160 c841687c1872f0c54377e40ab3d305218f12eb3c OP_EQUALVERIFY OP_CHECKSIG", "type": "pubkeyhash"}, "value": 5.16, "n": 0}, {"scriptPubKey": {"reqSigs": 1, "hex": "76a914309a6d8fa3c66a295a7371f01eaacf2faa6bacce88ac", "addresses": ["15RzS3zMZiumikvRf8DpTJEyXbkzCZnYzy"], "asm": "OP_DUP OP_HASH160 309a6d8fa3c66a295a7371f01eaacf2faa6bacce OP_EQUALVERIFY OP_CHECKSIG", "type": "pubkeyhash"}, "value": 2.44996, "n": 1}], "hex": "0100000002c7a846a14c93a5668ec61e110d0d375bbc5f0632698c6ada0ebe905db972a669000000006b483045022100c603b9cadfeed25f215e7dce0c1a45151dc33307b30bddf480e1b17430d0b88b02200a76b65b2219ba4c961bf491641887866f8bcbbad8f871309732d9cc9df779c8012102780790bb023de7a685424cad81210e3564da70a9a70e54dda3ed9b68c3023df2ffffffffeaf2e2af06221ef1316248b76e12915bb24f25ebc748edf4aeaf1c06c704c03f000000006a47304402203cae22f381fe8565dc87d31a386fa32fe52eb56f001e9b534944b5a1e987089502206980aa8966fa4f2e28d6adffe4717459acd2713f56aa0bf7205f13111adc00850121029efc3b2b30653ceb44421ded691c7395f4a7d95a6a06f7febad946387025706bffffffff020089c11e000000001976a914c841687c1872f0c54377e40ab3d305218f12eb3c88aca0579a0e000000001976a914309a6d8fa3c66a295a7371f01eaacf2faa6bacce88ac00000000", "vin": [{"sequence": 4294967295, "scriptSig": {"hex": "483045022100c603b9cadfeed25f215e7dce0c1a45151dc33307b30bddf480e1b17430d0b88b02200a76b65b2219ba4c961bf491641887866f8bcbbad8f871309732d9cc9df779c8012102780790bb023de7a685424cad81210e3564da70a9a70e54dda3ed9b68c3023df2", "asm": "3045022100c603b9cadfeed25f215e7dce0c1a45151dc33307b30bddf480e1b17430d0b88b02200a76b65b2219ba4c961bf491641887866f8bcbbad8f871309732d9cc9df779c8[ALL] 02780790bb023de7a685424cad81210e3564da70a9a70e54dda3ed9b68c3023df2"}, "vout": 0, "txid": "69a672b95d90be0eda6a8c6932065fbc5b370d0d111ec68e66a5934ca146a8c7"}, {"sequence": 4294967295, "scriptSig": {"hex": "47304402203cae22f381fe8565dc87d31a386fa32fe52eb56f001e9b534944b5a1e987089502206980aa8966fa4f2e28d6adffe4717459acd2713f56aa0bf7205f13111adc00850121029efc3b2b30653ceb44421ded691c7395f4a7d95a6a06f7febad946387025706b", "asm": "304402203cae22f381fe8565dc87d31a386fa32fe52eb56f001e9b534944b5a1e987089502206980aa8966fa4f2e28d6adffe4717459acd2713f56aa0bf7205f13111adc0085[ALL] 029efc3b2b30653ceb44421ded691c7395f4a7d95a6a06f7febad946387025706b"}, "vout": 0, "txid": "3fc004c7061cafaef4ed48c7eb254fb25b91126eb7486231f11e2206afe2f2ea"}], "txid": "59113b0706e3fc0fb2aa1dfe640e2eb7b95d3e25e0481d823c2463ff585abcea", "blocktime": 1537870268, "version": 1, "confirmations": 11516, "time": 1537870268, "locktime": 0, "vsize": 373, "size": 373}