{"hash": "5912a92c81c4ed4f27809c7b92d0e74eb8f79b8cc4691ea4bce9c38f5395baeb", "blockhash": "00000000000000000004ffacab907a6b429b9a5745fa0b75af4234bf69dd7176", "vout": [{"scriptPubKey": {"reqSigs": 1, "hex": "76a914ec0d85c46ced7c86b12d00ea1783297c82a443f188ac", "addresses": ["1NX8fqMfRNYpowYMQXgcom2cmN9wnbqHBn"], "asm": "OP_DUP OP_HASH160 ec0d85c46ced7c86b12d00ea1783297c82a443f1 OP_EQUALVERIFY OP_CHECKSIG", "type": "pubkeyhash"}, "value": 0.00275, "n": 0}, {"scriptPubKey": {"reqSigs": 1, "hex": "76a9142cb3bb3d584afce7f9bb445dee25705f9ee1c2af88ac", "addresses": ["155N3Q46egiQhGjZ4bZQ1cYUfTJWQxWsZ2"], "asm": "OP_DUP OP_HASH160 2cb3bb3d584afce7f9bb445dee25705f9ee1c2af OP_EQUALVERIFY OP_CHECKSIG", "type": "pubkeyhash"}, "value": 0.0002, "n": 1}], "hex": "0100000002c272de84fec70faa260aa3814dae8bfd1cb05c37b51000c8c6d21fe9bbde479a000000006a47304402201438e53920952deff76187b2370616ee43043ea765eda218b434b37c6a47d7f8022066afa3e42b85f0f06f4ac5d36af2ac1319d299345f234751d5506d2112315f7f012103643cf32abf37359e84c02dafba799cd2ca56ef33a305a2fca3083d43fe571050ffffffffd866a419f7fa4b9018df2f39927f38e671d538b7d64f90919fbeffaf501a3719000000006a4730440220716e92c1fa0a3dda52528b1c8a1522b546b17e54216c239a4290813c95c087090220652bdd048cd4cf0d6490d2f540c5b43110e093aad3d2719c9dbc0fa0af9e0142012103643cf32abf37359e84c02dafba799cd2ca56ef33a305a2fca3083d43fe571050ffffffff0238320400000000001976a914ec0d85c46ced7c86b12d00ea1783297c82a443f188ac204e0000000000001976a9142cb3bb3d584afce7f9bb445dee25705f9ee1c2af88ac00000000", "vin": [{"sequence": 4294967295, "scriptSig": {"hex": "47304402201438e53920952deff76187b2370616ee43043ea765eda218b434b37c6a47d7f8022066afa3e42b85f0f06f4ac5d36af2ac1319d299345f234751d5506d2112315f7f012103643cf32abf37359e84c02dafba799cd2ca56ef33a305a2fca3083d43fe571050", "asm": "304402201438e53920952deff76187b2370616ee43043ea765eda218b434b37c6a47d7f8022066afa3e42b85f0f06f4ac5d36af2ac1319d299345f234751d5506d2112315f7f[ALL] 03643cf32abf37359e84c02dafba799cd2ca56ef33a305a2fca3083d43fe571050"}, "vout": 0, "txid": "9a47debbe91fd2c6c80010b5375cb01cfd8bae4d81a30a26aa0fc7fe84de72c2"}, {"sequence": 4294967295, "scriptSig": {"hex": "4730440220716e92c1fa0a3dda52528b1c8a1522b546b17e54216c239a4290813c95c087090220652bdd048cd4cf0d6490d2f540c5b43110e093aad3d2719c9dbc0fa0af9e0142012103643cf32abf37359e84c02dafba799cd2ca56ef33a305a2fca3083d43fe571050", "asm": "30440220716e92c1fa0a3dda52528b1c8a1522b546b17e54216c239a4290813c95c087090220652bdd048cd4cf0d6490d2f540c5b43110e093aad3d2719c9dbc0fa0af9e0142[ALL] 03643cf32abf37359e84c02dafba799cd2ca56ef33a305a2fca3083d43fe571050"}, "vout": 0, "txid": "19371a50afffbe9f91904fd6b738d571e6387f92392fdf18904bfaf719a466d8"}], "txid": "5912a92c81c4ed4f27809c7b92d0e74eb8f79b8cc4691ea4bce9c38f5395baeb", "blocktime": 1537875543, "version": 1, "confirmations": 11464, "time": 1537875543, "locktime": 0, "vsize": 372, "size": 372}