{"hash": "6a6172647d17c0fb38906abf5312964b386c2f4c1de4eda80b3b5a531a084a79", "blockhash": "0000000000000000001f76057863aec43deb6fa401d9628bb513d65a8098bfab", "vout": [{"scriptPubKey": {"reqSigs": 1, "hex": "001438539cb9a876a82722d62dc04ae975c46bc2f751", "addresses": ["bc1q8pfeewdgw65zwgkk9hqy46t4c34u9a63ha3z8c"], "asm": "0 38539cb9a876a82722d62dc04ae975c46bc2f751", "type": "witness_v0_keyhash"}, "value": 0.00449315, "n": 0}, {"scriptPubKey": {"reqSigs": 1, "hex": "a91442c05b53dddcdb89c52423c579a2a62aebf2a7b587", "addresses": ["37mxxPKvPXdVYWHgk9rtBfNcV44VwvFsSJ"], "asm": "OP_HASH160 42c05b53dddcdb89c52423c579a2a62aebf2a7b5 OP_EQUAL", "type": "scripthash"}, "value": 0.07354677, "n": 1}], "hex": "0100000000010119498923ce6e621f6944b550b0f16ec46eb86c57b72a9ae31b293c43e6c41de40500000017160014420f3465a9b3c25dc466b13bf2294befdf4b27c3ffffffff0223db06000000000016001438539cb9a876a82722d62dc04ae975c46bc2f751353970000000000017a91442c05b53dddcdb89c52423c579a2a62aebf2a7b587024730440220630ed2cbdcc8b502a9ea6b84aa4fcb4b70904c2e0f06763dacb700ed83094c8f02203de792bc92855b54941d8c6a7276f179f0d63b8ad29f1037aa8b65c094ede879012102e5cb4e60bba4d605af80ff2d0c22edb93a661e1c50e0bcf8f40834d9af4302ed00000000", "vin": [{"txinwitness": ["30440220630ed2cbdcc8b502a9ea6b84aa4fcb4b70904c2e0f06763dacb700ed83094c8f02203de792bc92855b54941d8c6a7276f179f0d63b8ad29f1037aa8b65c094ede87901", "02e5cb4e60bba4d605af80ff2d0c22edb93a661e1c50e0bcf8f40834d9af4302ed"], "sequence": 4294967295, "scriptSig": {"hex": "160014420f3465a9b3c25dc466b13bf2294befdf4b27c3", "asm": "0014420f3465a9b3c25dc466b13bf2294befdf4b27c3"}, "vout": 5, "txid": "e41dc4e6433c291be39a2ab7576cb86ec46ef1b050b544691f626ece23894919"}], "txid": "591349cccc5f99b9383054b26b719bc467ce5a3e85ddf0490f747584f5800234", "blocktime": 1537873891, "version": 1, "confirmations": 11478, "time": 1537873891, "locktime": 0, "vsize": 165, "size": 246}