{"hash": "64badb4e4a50079719035ee60a5508094e3c609be89adc34b2e20795a22987cd", "blockhash": "000000000000000000205f8b0775d31398ef75b89a5e8ec8d2c57b4dc0ac4c20", "vout": [{"scriptPubKey": {"reqSigs": 1, "hex": "a914dd9dc6a441b75c3a3cf7d52601fba93d55728ce687", "addresses": ["3MtpGQL5k6tYHku7eJBRa35C5DZGaJGvFy"], "asm": "OP_HASH160 dd9dc6a441b75c3a3cf7d52601fba93d55728ce6 OP_EQUAL", "type": "scripthash"}, "value": 0.22750776, "n": 0}, {"scriptPubKey": {"reqSigs": 1, "hex": "a914e775697faedcc5aeade4cf5620dbd5b44d1b563987", "addresses": ["3NnrfnvdnW9seLG4DzzTuiTqAEsssgjx6V"], "asm": "OP_HASH160 e775697faedcc5aeade4cf5620dbd5b44d1b5639 OP_EQUAL", "type": "scripthash"}, "value": 0.07870849, "n": 1}, {"scriptPubKey": {"reqSigs": 1, "hex": "a9146dd8d88bad78362f9405af13dc7380d4e1e9ed9787", "addresses": ["3BhqMAmaUd3SCHkpRkbqpLYt1LVjVKzZaA"], "asm": "OP_HASH160 6dd8d88bad78362f9405af13dc7380d4e1e9ed97 OP_EQUAL", "type": "scripthash"}, "value": 0.00224941, "n": 2}], "hex": "010000000001044524825e5349c8cbf262ef352929abd49ec8e6a8a18c3234363382dc7300c705010000002322002025eebc3395409c0a3658ca9d22bc8bed6e00f043e95a03be952e1e9a9675a180ffffffff753700619e7f89bfd3d2ee2ba7f9bd78f4677e27d3aebc5500b5351ea7d70de4010000002322002019f19f5673b5f1e67de34ffc90adb939b86e7fb812d3399723833bf89dcc4f1affffffff426bd39369930067cc76e9dbd6a578a70bb34ef05421ac3b7b4fe2c6385c0a7c0100000023220020c4f22ef8831998933fd143638ba71d0d63c1a2183d412189884c1a3f2b702dfbffffffff11989a75d1283961091ffe7de27120bd28d9302fab40d8584cbf109355609a8b01000000232200200c387bf1625af801b038a608cbfcdf55e02db37dd87200ef7fecbc38328aed4effffffff0338265b010000000017a914dd9dc6a441b75c3a3cf7d52601fba93d55728ce687811978000000000017a914e775697faedcc5aeade4cf5620dbd5b44d1b563987ad6e03000000000017a9146dd8d88bad78362f9405af13dc7380d4e1e9ed97870400473044022019f3e436383cd04ec9422829b8a1e51fe038644ee48fea50b479658330372f4902204dd53bdd5e7005946b1cd88e2f5593c4ca565908edabefa964995605336d2db901483045022100c280ebc6116300bd3071630c4a98fac850e36bb1a57ab9968dc0985d0386f49802201859cd53abb55b029e352af817998dd64b98e67b890a70dda5c88f60f3f426c0014752210361169621deb6debec3d191578e6d019cc4b9dc3a64b92d1562349093d479c62321038407424ead2b88063db2d589e50c34e1572f6b82eb9e266dec536939ee0db9eb52ae0400473044022075f53fecd83cc1a5ede155324acc087aaf9e395245af43c4c6546e77274c174202203db3e801c1666a02bb41042f2e674db6f6ae538f4dfabc45acbfa95b37b18d96014830450221008b54ff06b708cfee1267a1d37d323c45de4cb030fe7209a2a4ebaa83f370dd5e022009db0bf8c04abd6d2fa8b640a4e275b3f6bb56ac9dcfed5f049bbc7482e0f0d401475221028b3c90cf34b0cd97cbff056fd3dd75f6ab394c083af2b84a19007b8a66b4bd7421038407424ead2b88063db2d589e50c34e1572f6b82eb9e266dec536939ee0db9eb52ae0400483045022100fc6dcee839e751f7ead6d18800b83197a7713a828494e29394bf77e7e757f0d102204d518337df96bfdff83376934bc48422923116004307d1c2fbc31ae967d8895601483045022100afe511e25c66ff50e21a0e8c55360bec2b9237f5abde74cd0251823419092ded02200692720af02779202059b7d14e124315292e3a888ff6b4e5fbaf702bd86e1a76014752210244ecdc88696954adc945bd6dc07dc1961b7006339e4a03426b8f9283e213f8f321038407424ead2b88063db2d589e50c34e1572f6b82eb9e266dec536939ee0db9eb52ae040047304402204fd72a0105551685fab92cc715e453692734505000bd7277f53bb779a57a2ac102204a626ace554254f5d99b1790174da662e15d8bffb094742be710653fb4ce6ca301473044022040b6999395f9e346f394055651ce6a0e86705489d7a9c1e5318ecca5d7a05aba022070c9bfb39aa507b914fc6ff1a2a78abb6d75d8dce05c17a89079ee590f428ff701475221036f755f66f44d03441868d1d85a38654e16b4df5111ad2677e69fc1b83e3f664121038407424ead2b88063db2d589e50c34e1572f6b82eb9e266dec536939ee0db9eb52ae00000000", "vin": [{"txinwitness": ["", "3044022019f3e436383cd04ec9422829b8a1e51fe038644ee48fea50b479658330372f4902204dd53bdd5e7005946b1cd88e2f5593c4ca565908edabefa964995605336d2db901", "3045022100c280ebc6116300bd3071630c4a98fac850e36bb1a57ab9968dc0985d0386f49802201859cd53abb55b029e352af817998dd64b98e67b890a70dda5c88f60f3f426c001", "52210361169621deb6debec3d191578e6d019cc4b9dc3a64b92d1562349093d479c62321038407424ead2b88063db2d589e50c34e1572f6b82eb9e266dec536939ee0db9eb52ae"], "sequence": 4294967295, "scriptSig": {"hex": "22002025eebc3395409c0a3658ca9d22bc8bed6e00f043e95a03be952e1e9a9675a180", "asm": "002025eebc3395409c0a3658ca9d22bc8bed6e00f043e95a03be952e1e9a9675a180"}, "vout": 1, "txid": "05c70073dc82333634328ca1a8e6c89ed4ab292935ef62f2cbc849535e822445"}, {"txinwitness": ["", "3044022075f53fecd83cc1a5ede155324acc087aaf9e395245af43c4c6546e77274c174202203db3e801c1666a02bb41042f2e674db6f6ae538f4dfabc45acbfa95b37b18d9601", "30450221008b54ff06b708cfee1267a1d37d323c45de4cb030fe7209a2a4ebaa83f370dd5e022009db0bf8c04abd6d2fa8b640a4e275b3f6bb56ac9dcfed5f049bbc7482e0f0d401", "5221028b3c90cf34b0cd97cbff056fd3dd75f6ab394c083af2b84a19007b8a66b4bd7421038407424ead2b88063db2d589e50c34e1572f6b82eb9e266dec536939ee0db9eb52ae"], "sequence": 4294967295, "scriptSig": {"hex": "22002019f19f5673b5f1e67de34ffc90adb939b86e7fb812d3399723833bf89dcc4f1a", "asm": "002019f19f5673b5f1e67de34ffc90adb939b86e7fb812d3399723833bf89dcc4f1a"}, "vout": 1, "txid": "e40dd7a71e35b50055bcaed3277e67f478bdf9a72beed2d3bf897f9e61003775"}, {"txinwitness": ["", "3045022100fc6dcee839e751f7ead6d18800b83197a7713a828494e29394bf77e7e757f0d102204d518337df96bfdff83376934bc48422923116004307d1c2fbc31ae967d8895601", "3045022100afe511e25c66ff50e21a0e8c55360bec2b9237f5abde74cd0251823419092ded02200692720af02779202059b7d14e124315292e3a888ff6b4e5fbaf702bd86e1a7601", "52210244ecdc88696954adc945bd6dc07dc1961b7006339e4a03426b8f9283e213f8f321038407424ead2b88063db2d589e50c34e1572f6b82eb9e266dec536939ee0db9eb52ae"], "sequence": 4294967295, "scriptSig": {"hex": "220020c4f22ef8831998933fd143638ba71d0d63c1a2183d412189884c1a3f2b702dfb", "asm": "0020c4f22ef8831998933fd143638ba71d0d63c1a2183d412189884c1a3f2b702dfb"}, "vout": 1, "txid": "7c0a5c38c6e24f7b3bac2154f04eb30ba778a5d6dbe976cc6700936993d36b42"}, {"txinwitness": ["", "304402204fd72a0105551685fab92cc715e453692734505000bd7277f53bb779a57a2ac102204a626ace554254f5d99b1790174da662e15d8bffb094742be710653fb4ce6ca301", "3044022040b6999395f9e346f394055651ce6a0e86705489d7a9c1e5318ecca5d7a05aba022070c9bfb39aa507b914fc6ff1a2a78abb6d75d8dce05c17a89079ee590f428ff701", "5221036f755f66f44d03441868d1d85a38654e16b4df5111ad2677e69fc1b83e3f664121038407424ead2b88063db2d589e50c34e1572f6b82eb9e266dec536939ee0db9eb52ae"], "sequence": 4294967295, "scriptSig": {"hex": "2200200c387bf1625af801b038a608cbfcdf55e02db37dd87200ef7fecbc38328aed4e", "asm": "00200c387bf1625af801b038a608cbfcdf55e02db37dd87200ef7fecbc38328aed4e"}, "vout": 1, "txid": "8b9a60559310bf4c58d840ab2f30d928bd2071e27dfe1f09613928d1759a9811"}], "txid": "591bc27f74b2672b9957bd5323d9c699925848dc73da48dedcc7faa872a16ac5", "blocktime": 1537871175, "version": 1, "confirmations": 11511, "time": 1537871175, "locktime": 0, "vsize": 630, "size": 1288}