{"hash": "5924f075318355680b6ba46e2b0129f76b3d44ada49da1e5a012bed0107a7031", "blockhash": "0000000000000000001cda96e906b7601b7a6fb1a3b62bca570a9e5d8f4b3de1", "vout": [{"scriptPubKey": {"type": "nulldata", "hex": "6a4c50000077c90001db65804adc182e8cd795d1175b23cc0f42c2fc38c5e5bf9ae76da98a211a634654a82f0f016ba6b57aabdf94f9705baa13ce0612e741fbc5b96f1d100759d4ba30d2c37bb011d97e02cf", "asm": "OP_RETURN 000077c90001db65804adc182e8cd795d1175b23cc0f42c2fc38c5e5bf9ae76da98a211a634654a82f0f016ba6b57aabdf94f9705baa13ce0612e741fbc5b96f1d100759d4ba30d2c37bb011d97e02cf"}, "value": 0.0, "n": 0}, {"scriptPubKey": {"reqSigs": 1, "hex": "76a914c91b56a7d540ab63e779f3da4e393c329f89bc9088ac", "addresses": ["1KLMa54mbGgnR3yX5w6Ybf3XeHHEkbZvca"], "asm": "OP_DUP OP_HASH160 c91b56a7d540ab63e779f3da4e393c329f89bc90 OP_EQUALVERIFY OP_CHECKSIG", "type": "pubkeyhash"}, "value": 0.0063852, "n": 1}], "hex": "010000000122cd5a9db44fb146ea2d7511c7581efb30fa217aacd0688f5023e013830c6c73010000006a473044022041691b4a51e6c551559b8448d262232afa9e625047851d823c74a1e40eeb843202207f4124139c5a95df747b5210d6484a7cf3eb4d74689efbaaa5e7202b633bfa960121020bb1f5806d9e3ddfc22abfc9c867768ba625441c56ecffbeaaeb910c54a3619cffffffff020000000000000000536a4c50000077c90001db65804adc182e8cd795d1175b23cc0f42c2fc38c5e5bf9ae76da98a211a634654a82f0f016ba6b57aabdf94f9705baa13ce0612e741fbc5b96f1d100759d4ba30d2c37bb011d97e02cf38be0900000000001976a914c91b56a7d540ab63e779f3da4e393c329f89bc9088ac00000000", "vin": [{"sequence": 4294967295, "scriptSig": {"hex": "473044022041691b4a51e6c551559b8448d262232afa9e625047851d823c74a1e40eeb843202207f4124139c5a95df747b5210d6484a7cf3eb4d74689efbaaa5e7202b633bfa960121020bb1f5806d9e3ddfc22abfc9c867768ba625441c56ecffbeaaeb910c54a3619c", "asm": "3044022041691b4a51e6c551559b8448d262232afa9e625047851d823c74a1e40eeb843202207f4124139c5a95df747b5210d6484a7cf3eb4d74689efbaaa5e7202b633bfa96[ALL] 020bb1f5806d9e3ddfc22abfc9c867768ba625441c56ecffbeaaeb910c54a3619c"}, "vout": 1, "txid": "736c0c8313e023508f68d0ac7a21fa30fb1e58c711752dea46b14fb49d5acd22"}], "txid": "5924f075318355680b6ba46e2b0129f76b3d44ada49da1e5a012bed0107a7031", "blocktime": 1537873282, "version": 1, "confirmations": 11484, "time": 1537873282, "locktime": 0, "vsize": 283, "size": 283}