{"hash": "5929a1e486f00ada2f7ff9708d546764afacdc82eeec9713725fcd91a06e75c4", "blockhash": "0000000000000000001cda96e906b7601b7a6fb1a3b62bca570a9e5d8f4b3de1", "vout": [{"scriptPubKey": {"reqSigs": 1, "hex": "76a914ca5418cfa9b7feed3818e781851cf0ea5e0e994e88ac", "addresses": ["1KSpEuZ6WSa7T8QQBCu8gzgWg4M1W5YpHV"], "asm": "OP_DUP OP_HASH160 ca5418cfa9b7feed3818e781851cf0ea5e0e994e OP_EQUALVERIFY OP_CHECKSIG", "type": "pubkeyhash"}, "value": 0.0024486, "n": 0}, {"scriptPubKey": {"reqSigs": 1, "hex": "76a914dab47e251e9ce021ef994c9b8ae547e29cf8e85c88ac", "addresses": ["1LwQXgB9C4ScvBNk1xh6Cuqzyiia8ZrXL1"], "asm": "OP_DUP OP_HASH160 dab47e251e9ce021ef994c9b8ae547e29cf8e85c OP_EQUALVERIFY OP_CHECKSIG", "type": "pubkeyhash"}, "value": 0.005015, "n": 1}], "hex": "010000000199ce3e44c5479a55c5a87625ae3a154e6ae269de491377d3e53251acebfada7d000000006b483045022100b4ea5f67040f1c10ffec97a083995a18c9db5c53399c793fa3e59c54ff03946502201005277a20efb2efce5ba48ba9ad320b4545add31bb3a1821de2dd52f03ddd840121031d3be278b27a75ca8b2c92aadc7056c2bdfc50b517574021d7301259929a6a2fffffffff027cbc0300000000001976a914ca5418cfa9b7feed3818e781851cf0ea5e0e994e88acfca60700000000001976a914dab47e251e9ce021ef994c9b8ae547e29cf8e85c88ac00000000", "vin": [{"sequence": 4294967295, "scriptSig": {"hex": "483045022100b4ea5f67040f1c10ffec97a083995a18c9db5c53399c793fa3e59c54ff03946502201005277a20efb2efce5ba48ba9ad320b4545add31bb3a1821de2dd52f03ddd840121031d3be278b27a75ca8b2c92aadc7056c2bdfc50b517574021d7301259929a6a2f", "asm": "3045022100b4ea5f67040f1c10ffec97a083995a18c9db5c53399c793fa3e59c54ff03946502201005277a20efb2efce5ba48ba9ad320b4545add31bb3a1821de2dd52f03ddd84[ALL] 031d3be278b27a75ca8b2c92aadc7056c2bdfc50b517574021d7301259929a6a2f"}, "vout": 0, "txid": "7ddafaebac5132e5d3771349de69e26a4e153aae2576a8c5559a47c5443ece99"}], "txid": "5929a1e486f00ada2f7ff9708d546764afacdc82eeec9713725fcd91a06e75c4", "blocktime": 1537873282, "version": 1, "confirmations": 11485, "time": 1537873282, "locktime": 0, "vsize": 226, "size": 226}