{"hash": "59295bf7f32f9b918b6112ba42f76bc969568fe9be1a185d5185736a2da9f956", "blockhash": "00000000000000000024a2167bbff67b0be802c0b01cdd79e6331c2be6459f87", "vout": [{"scriptPubKey": {"reqSigs": 1, "hex": "76a914f479312b3169ffa9c4f9e407bf2658088c491de788ac", "addresses": ["1PHf4NymSikpnMYepXHwDM77rEwnwzmSwV"], "asm": "OP_DUP OP_HASH160 f479312b3169ffa9c4f9e407bf2658088c491de7 OP_EQUALVERIFY OP_CHECKSIG", "type": "pubkeyhash"}, "value": 0.0154431, "n": 0}, {"scriptPubKey": {"reqSigs": 1, "hex": "76a91470779835cc3b85e38264fede7e486dc0533da36688ac", "addresses": ["1BFfx4ZnM2jshm8JDBPwTCt4qhdL8MsiQi"], "asm": "OP_DUP OP_HASH160 70779835cc3b85e38264fede7e486dc0533da366 OP_EQUALVERIFY OP_CHECKSIG", "type": "pubkeyhash"}, "value": 0.09048712, "n": 1}], "hex": "01000000019a0a79008cef1d0ce276ee0f22016c2b3e8f64b70c8130793a16194bad7b553b000000006b483045022100950a44c27653d5fea52c072d12b8864ec7862b3441314c50f0ccc6469627704802206bfbc765e0d0abbe99ae6c1ca2f23f90d0cf84bf330f45afb588a662eb70c4f0012103bd201ea8109c972e9864dc1134a210fd60826f2517c2d2459526115d7f1637f3ffffffff0276901700000000001976a914f479312b3169ffa9c4f9e407bf2658088c491de788ac88128a00000000001976a91470779835cc3b85e38264fede7e486dc0533da36688ac00000000", "vin": [{"sequence": 4294967295, "scriptSig": {"hex": "483045022100950a44c27653d5fea52c072d12b8864ec7862b3441314c50f0ccc6469627704802206bfbc765e0d0abbe99ae6c1ca2f23f90d0cf84bf330f45afb588a662eb70c4f0012103bd201ea8109c972e9864dc1134a210fd60826f2517c2d2459526115d7f1637f3", "asm": "3045022100950a44c27653d5fea52c072d12b8864ec7862b3441314c50f0ccc6469627704802206bfbc765e0d0abbe99ae6c1ca2f23f90d0cf84bf330f45afb588a662eb70c4f0[ALL] 03bd201ea8109c972e9864dc1134a210fd60826f2517c2d2459526115d7f1637f3"}, "vout": 0, "txid": "3b557bad4b19163a7930810cb7648f3e2b6c01220fee76e20c1def8c00790a9a"}], "txid": "59295bf7f32f9b918b6112ba42f76bc969568fe9be1a185d5185736a2da9f956", "blocktime": 1537870564, "version": 1, "confirmations": 11515, "time": 1537870564, "locktime": 0, "vsize": 226, "size": 226}