{"hash": "fa01f2301580bcef8e6178aee130164a865ff99a41686c056ef4b5476d896dfa", "blockhash": "00000000000000000017f5eb5941039fbcee6240d03bc1f2f8e35350df66a1d8", "vout": [{"scriptPubKey": {"reqSigs": 1, "hex": "76a914ede75d0178acbf886b81145b020bbf614a901d4288ac", "addresses": ["1NgvJsLrdvndzCt7mooN3UNv7T3pzhWCC7"], "asm": "OP_DUP OP_HASH160 ede75d0178acbf886b81145b020bbf614a901d42 OP_EQUALVERIFY OP_CHECKSIG", "type": "pubkeyhash"}, "value": 0.72, "n": 0}, {"scriptPubKey": {"reqSigs": 1, "hex": "0020701a8d401c84fb13e6baf169d59684e17abd9fa216c8cc5b9fc63d622ff8c58d", "addresses": ["bc1qwqdg6squsna38e46795at95yu9atm8azzmyvckulcc7kytlcckxswvvzej"], "asm": "0 701a8d401c84fb13e6baf169d59684e17abd9fa216c8cc5b9fc63d622ff8c58d", "type": "witness_v0_scripthash"}, "value": 0.656685, "n": 1}], "hex": "0100000000010196704b6b94cadaf68d08ad000c54fb6510ad37eb176cdd7cdc4f0c5cadff5a890400000000ffffffff0200a24a04000000001976a914ede75d0178acbf886b81145b020bbf614a901d4288ac9405ea0300000000220020701a8d401c84fb13e6baf169d59684e17abd9fa216c8cc5b9fc63d622ff8c58d0400483045022100d10ce71546acc379171f4b1e507c4f83ca7d6e5fdf5cd4e072ef32ecc5c4a1450220151b7d23bc5f0566460cb4b1290f07638dbf5bc35a033984c5b83dcc5cc0d0c801483045022100fac90d4c332be970bfdc7b92c539f2382e33a12d8ed4a4e793b674e2e39eb9cc02201f6ce04f5cea32fd9e99d03dbdf89d0613e7440f8ec69d1b1e204a76469e7cee016952210375e00eb72e29da82b89367947f29ef34afb75e8654f6ea368e0acdfd92976b7c2103a1b26313f430c4b15bb1fdce663207659d8cac749a0e53d70eff01874496feff2103c96d495bfdd5ba4145e3e046fee45e84a8a48ad05bd8dbb395c011a32cf9f88053ae00000000", "vin": [{"txinwitness": ["", "3045022100d10ce71546acc379171f4b1e507c4f83ca7d6e5fdf5cd4e072ef32ecc5c4a1450220151b7d23bc5f0566460cb4b1290f07638dbf5bc35a033984c5b83dcc5cc0d0c801", "3045022100fac90d4c332be970bfdc7b92c539f2382e33a12d8ed4a4e793b674e2e39eb9cc02201f6ce04f5cea32fd9e99d03dbdf89d0613e7440f8ec69d1b1e204a76469e7cee01", "52210375e00eb72e29da82b89367947f29ef34afb75e8654f6ea368e0acdfd92976b7c2103a1b26313f430c4b15bb1fdce663207659d8cac749a0e53d70eff01874496feff2103c96d495bfdd5ba4145e3e046fee45e84a8a48ad05bd8dbb395c011a32cf9f88053ae"], "sequence": 4294967295, "scriptSig": {"hex": "", "asm": ""}, "vout": 4, "txid": "895affad5c0c4fdc7cdd6c17eb37ad1065fb540c00ad088df6daca946b4b7096"}], "txid": "592f59c55ee3cce8c8781eda1e9be0f000beba73691ae8c00d478b7f262055a7", "blocktime": 1537874412, "version": 1, "confirmations": 11466, "time": 1537874412, "locktime": 0, "vsize": 192, "size": 384}