{"hash": "35c99d780076da39c4319b0543209a2bbb783aecc5de8f63bb88891198eb6da1", "blockhash": "0000000000000000001f76057863aec43deb6fa401d9628bb513d65a8098bfab", "vout": [{"scriptPubKey": {"reqSigs": 1, "hex": "76a914315301321ebaa564f3636eaafba6b2b328e5a48688ac", "addresses": ["15VoYfbCqAXjRvTdDEAQbfsomRensGxQ9s"], "asm": "OP_DUP OP_HASH160 315301321ebaa564f3636eaafba6b2b328e5a486 OP_EQUALVERIFY OP_CHECKSIG", "type": "pubkeyhash"}, "value": 0.0918479, "n": 0}, {"scriptPubKey": {"reqSigs": 1, "hex": "a9146d96a71d3f2dfa0ea2d422c802b0957e8019c62887", "addresses": ["3BgU3zXTPJMELXEymDYfB3hY1XvUZB7gC6"], "asm": "OP_HASH160 6d96a71d3f2dfa0ea2d422c802b0957e8019c628 OP_EQUAL", "type": "scripthash"}, "value": 0.00997734, "n": 1}], "hex": "020000000001029e54303e5c46e2dc9ac3d5192b4d90b6189fea813d58799861c15180ddf2e1210000000017160014a75346097e7de4fecb6393d28d04a28a5e9abd3bfeffffffe2632687ee644d7418b28770db43be17823b7a82bf800e273c9ab0d1a28d7de6000000001716001455cc138e559ffce77a9cbee5faf24eea924815cdfeffffff0216268c00000000001976a914315301321ebaa564f3636eaafba6b2b328e5a48688ac66390f000000000017a9146d96a71d3f2dfa0ea2d422c802b0957e8019c6288702483045022100b4a1edc76584497d85f36e7972abd5281cfae2bc94caa896ad4acace70822c6d02203ed90a5d4e81f823c53855a08faba1b60a6573ba5fd1e93e33cb7433951b7c0c012103079bb3cf2edbb74f08e1473b40702f37335d0b48a3884d5104b3bae7c4fab10e02483045022100e9c3ee8c368458061c9825631afb6384d908ba98d9b9672d51684b603a1c065a02200daa24b999db3a2a140e3b1432f873e37a26cccb54fb531f52840442ea9843be012102c2dd1207f83aeb9e8d67ab7336ec5d02f4b627d4c47e606fee6bbd499ef2461b14490800", "vin": [{"txinwitness": ["3045022100b4a1edc76584497d85f36e7972abd5281cfae2bc94caa896ad4acace70822c6d02203ed90a5d4e81f823c53855a08faba1b60a6573ba5fd1e93e33cb7433951b7c0c01", "03079bb3cf2edbb74f08e1473b40702f37335d0b48a3884d5104b3bae7c4fab10e"], "sequence": 4294967294, "scriptSig": {"hex": "160014a75346097e7de4fecb6393d28d04a28a5e9abd3b", "asm": "0014a75346097e7de4fecb6393d28d04a28a5e9abd3b"}, "vout": 0, "txid": "21e1f2dd8051c1619879583d81ea9f18b6904d2b19d5c39adce2465c3e30549e"}, {"txinwitness": ["3045022100e9c3ee8c368458061c9825631afb6384d908ba98d9b9672d51684b603a1c065a02200daa24b999db3a2a140e3b1432f873e37a26cccb54fb531f52840442ea9843be01", "02c2dd1207f83aeb9e8d67ab7336ec5d02f4b627d4c47e606fee6bbd499ef2461b"], "sequence": 4294967294, "scriptSig": {"hex": "16001455cc138e559ffce77a9cbee5faf24eea924815cd", "asm": "001455cc138e559ffce77a9cbee5faf24eea924815cd"}, "vout": 0, "txid": "e67d8da2d1b09a3c270e80bf827a3b8217be43db7087b218744d64ee872663e2"}], "txid": "5931ee8523c88050d45b5c0aece3f4f056048af9bde751059ca7f9c70afda97c", "blocktime": 1537873891, "version": 2, "confirmations": 11475, "time": 1537873891, "locktime": 542996, "vsize": 259, "size": 422}