{"hash": "1600db8cd548988b75e0eef06c6d031e0733b7406cc30c62d91d0037cb7ae76d", "blockhash": "0000000000000000000baef3f32e3676a92c3b2e5da21b426e4f302fc371ce76", "vout": [{"scriptPubKey": {"reqSigs": 1, "hex": "a91490e99e8d26d05ead3c05430c292a887bbff695f587", "addresses": ["3EuF6KjJawxTiUsea3Sc8hsLUGmVEf7Xg5"], "asm": "OP_HASH160 90e99e8d26d05ead3c05430c292a887bbff695f5 OP_EQUAL", "type": "scripthash"}, "value": 0.00111383, "n": 0}, {"scriptPubKey": {"type": "nulldata", "hex": "6a146f6d6e69000000000000001f0000000005f5e100", "asm": "OP_RETURN 6f6d6e69000000000000001f0000000005f5e100"}, "value": 0.0, "n": 1}, {"scriptPubKey": {"reqSigs": 1, "hex": "a91490e99e8d26d05ead3c05430c292a887bbff695f587", "addresses": ["3EuF6KjJawxTiUsea3Sc8hsLUGmVEf7Xg5"], "asm": "OP_HASH160 90e99e8d26d05ead3c05430c292a887bbff695f5 OP_EQUAL", "type": "scripthash"}, "value": 5.4e-06, "n": 2}], "hex": "010000000001029a6fd70a10ef4efdc02b548d767c744f8f4c09e86ece464f1075d18f838a6cc70000000017160014f6e1792e7852ebd5ae795c2a25d579acdfadec2dffffffff9a6fd70a10ef4efdc02b548d767c744f8f4c09e86ece464f1075d18f838a6cc70200000017160014f6e1792e7852ebd5ae795c2a25d579acdfadec2dffffffff0317b301000000000017a91490e99e8d26d05ead3c05430c292a887bbff695f5870000000000000000166a146f6d6e69000000000000001f0000000005f5e1001c0200000000000017a91490e99e8d26d05ead3c05430c292a887bbff695f58702483045022100de2c531b4c1dde3b04f285ae725b76806d2a7a4c2328bf34466c4da9adc4a5ce02205cb7c6b8d7369b05cf57b92fa9a7f54937deb9d7d6cc330b10196f4c25919e41012103f1cf988013a33e053d1e9bd54c4798c1a6dc362a5b2798b5344049fca40e2db002473044022001dba13e0c13b8c4fb4d4aeb818f3b8215db0da27add027e8a59691ea4fec63a02201660a1242b7101487c15496f904bff801d8f582a35bf02987bcb0d6f4e5adb00012103f1cf988013a33e053d1e9bd54c4798c1a6dc362a5b2798b5344049fca40e2db000000000", "vin": [{"txinwitness": ["3045022100de2c531b4c1dde3b04f285ae725b76806d2a7a4c2328bf34466c4da9adc4a5ce02205cb7c6b8d7369b05cf57b92fa9a7f54937deb9d7d6cc330b10196f4c25919e4101", "03f1cf988013a33e053d1e9bd54c4798c1a6dc362a5b2798b5344049fca40e2db0"], "sequence": 4294967295, "scriptSig": {"hex": "160014f6e1792e7852ebd5ae795c2a25d579acdfadec2d", "asm": "0014f6e1792e7852ebd5ae795c2a25d579acdfadec2d"}, "vout": 0, "txid": "c76c8a838fd175104f46ce6ee8094c8f4f747c768d542bc0fd4eef100ad76f9a"}, {"txinwitness": ["3044022001dba13e0c13b8c4fb4d4aeb818f3b8215db0da27add027e8a59691ea4fec63a02201660a1242b7101487c15496f904bff801d8f582a35bf02987bcb0d6f4e5adb0001", "03f1cf988013a33e053d1e9bd54c4798c1a6dc362a5b2798b5344049fca40e2db0"], "sequence": 4294967295, "scriptSig": {"hex": "160014f6e1792e7852ebd5ae795c2a25d579acdfadec2d", "asm": "0014f6e1792e7852ebd5ae795c2a25d579acdfadec2d"}, "vout": 2, "txid": "c76c8a838fd175104f46ce6ee8094c8f4f747c768d542bc0fd4eef100ad76f9a"}], "txid": "59323f3a4443374ff21d61471429d961233432f37fef52ff768ebf83518ecd68", "blocktime": 1537876114, "version": 1, "confirmations": 11460, "time": 1537876114, "locktime": 0, "vsize": 288, "size": 450}