{"hash": "59391b099af9eb8b0391e39ef3892bf4d718fbf6405c4b134d7442763ae84112", "blockhash": "0000000000000000001cda96e906b7601b7a6fb1a3b62bca570a9e5d8f4b3de1", "vout": [{"scriptPubKey": {"reqSigs": 1, "hex": "76a914a13f045576c698b1d7bff45315192c897791790c88ac", "addresses": ["1FhbHNuYqmEk4WJCPa1HaTq1m7byVXZgJ9"], "asm": "OP_DUP OP_HASH160 a13f045576c698b1d7bff45315192c897791790c OP_EQUALVERIFY OP_CHECKSIG", "type": "pubkeyhash"}, "value": 0.00282737, "n": 0}], "hex": "0100000001d58ff6481aa0c9b75ce3e08faff7add7f97aef1b2f9644837cbb77925ed9a484010000008b483045022100d99ff5e526459ef9ec0e197ecab9c8aee60c7b8b7f9dbcbad96606495cbb49e9022034bbb0613cb487a767fc456157aca4d354496d4a96c689e1c481e38a8fa80353014104a6228ee9111848e67e47928e465de091549decfe244a6752ef813612654b870a844bfa6447daea85979c271e2a9ed351000699a2c52f4ca43140de5048c2f859ffffffff0171500400000000001976a914a13f045576c698b1d7bff45315192c897791790c88ac00000000", "vin": [{"sequence": 4294967295, "scriptSig": {"hex": "483045022100d99ff5e526459ef9ec0e197ecab9c8aee60c7b8b7f9dbcbad96606495cbb49e9022034bbb0613cb487a767fc456157aca4d354496d4a96c689e1c481e38a8fa80353014104a6228ee9111848e67e47928e465de091549decfe244a6752ef813612654b870a844bfa6447daea85979c271e2a9ed351000699a2c52f4ca43140de5048c2f859", "asm": "3045022100d99ff5e526459ef9ec0e197ecab9c8aee60c7b8b7f9dbcbad96606495cbb49e9022034bbb0613cb487a767fc456157aca4d354496d4a96c689e1c481e38a8fa80353[ALL] 04a6228ee9111848e67e47928e465de091549decfe244a6752ef813612654b870a844bfa6447daea85979c271e2a9ed351000699a2c52f4ca43140de5048c2f859"}, "vout": 1, "txid": "84a4d95e9277bb7c8344962f1bef7af9d7adf7af8fe0e35cb7c9a01a48f68fd5"}], "txid": "59391b099af9eb8b0391e39ef3892bf4d718fbf6405c4b134d7442763ae84112", "blocktime": 1537873282, "version": 1, "confirmations": 11482, "time": 1537873282, "locktime": 0, "vsize": 224, "size": 224}