{"hash": "02fb1c286d6948130cb4a7ceba9499e22c6abc9919e10352cdc72312231cf886", "blockhash": "00000000000000000018f53835495a110e01622372bf6ae95dc86f2b0ab887b0", "vout": [{"scriptPubKey": {"reqSigs": 1, "hex": "76a914658bc2e4001cfacc64a3e041943e921b3086737588ac", "addresses": ["1AFvgAG4FN8fhtp3ZtSF8hsmKvPTDiB4RV"], "asm": "OP_DUP OP_HASH160 658bc2e4001cfacc64a3e041943e921b30867375 OP_EQUALVERIFY OP_CHECKSIG", "type": "pubkeyhash"}, "value": 3.308e-05, "n": 0}, {"scriptPubKey": {"reqSigs": 1, "hex": "a914e8db75c900cf08f06518e96d167331f2a4abfb3387", "addresses": ["3NvFbQMAkkqEFj4i1sYPPLkSWzxTFUchjA"], "asm": "OP_HASH160 e8db75c900cf08f06518e96d167331f2a4abfb33 OP_EQUAL", "type": "scripthash"}, "value": 0.00045642, "n": 1}], "hex": "010000000001017fe18ab4c4caedeb17cc94e5d858ff9c5d0bf24448a9a59196d39988eef810ef0000000023220020941cfaff8837763dc1f69ff82b6d6553fdea17a41cfc29a04403293eedd8ccc7ffffffff02ec0c0000000000001976a914658bc2e4001cfacc64a3e041943e921b3086737588ac4ab200000000000017a914e8db75c900cf08f06518e96d167331f2a4abfb3387040047304402203e611e4bc70800520e52502ba806b46343c40782211e9b63761486e73f60118c02201d396995f09681b49e0021e26ef96dd14231f177b84453a8aff165f736f5a43c01473044022041044b79d4fb979d85e26066190b8209e60fe077e1d0633faefb9ed505f8172602201dd7b324e1ac4f2597bfbdd43ce4307168b316abb2c4f6a5a4bf9618ea9116030147522102531db3a5883f29bab4241dd0cd726936667bcda445d89bdd22244e828b6993342103148c80a5bdfddb05ff5bcffc397c8ca748d8b435ec6a175bc9d7bfc7fc6f853752ae00000000", "vin": [{"txinwitness": ["", "304402203e611e4bc70800520e52502ba806b46343c40782211e9b63761486e73f60118c02201d396995f09681b49e0021e26ef96dd14231f177b84453a8aff165f736f5a43c01", "3044022041044b79d4fb979d85e26066190b8209e60fe077e1d0633faefb9ed505f8172602201dd7b324e1ac4f2597bfbdd43ce4307168b316abb2c4f6a5a4bf9618ea91160301", "522102531db3a5883f29bab4241dd0cd726936667bcda445d89bdd22244e828b6993342103148c80a5bdfddb05ff5bcffc397c8ca748d8b435ec6a175bc9d7bfc7fc6f853752ae"], "sequence": 4294967295, "scriptSig": {"hex": "220020941cfaff8837763dc1f69ff82b6d6553fdea17a41cfc29a04403293eedd8ccc7", "asm": "0020941cfaff8837763dc1f69ff82b6d6553fdea17a41cfc29a04403293eedd8ccc7"}, "vout": 0, "txid": "ef10f8ee8899d39691a5a94844f20b5d9cff58d8e594cc17ebedcac4b48ae17f"}], "txid": "59467abd46b459012c27f9baab16a49a11904e71437c4130623abeea4b318d6c", "blocktime": 1537870928, "version": 1, "confirmations": 11514, "time": 1537870928, "locktime": 0, "vsize": 207, "size": 372}