{"hash": "5948e8439e80a81de2df92c019e5f0a18e8da6cdb5250c2149796087b8c9a9ff", "blockhash": "0000000000000000001cda96e906b7601b7a6fb1a3b62bca570a9e5d8f4b3de1", "vout": [{"scriptPubKey": {"reqSigs": 1, "hex": "a91402dc64a8c8ceb6025c594cd63401ab001f1e5b4187", "addresses": ["31x9J7ebMTz2Gn37XPZoosbMieVHBRbTgQ"], "asm": "OP_HASH160 02dc64a8c8ceb6025c594cd63401ab001f1e5b41 OP_EQUAL", "type": "scripthash"}, "value": 0.02499, "n": 0}], "hex": "0100000001c28a4d64986f70257fd056f3dd56a7b3f294aefb01e66a5446256e5bb2a58ae2000000006a47304402201a3d716e9b8c95c43709e89bf9558a2c5dc17522559505473aed9dbe86f835e202206f2841a0e8cbb59c6c64acc62c3f68d6d20e8bf0427bf490ac83c1378995f4b30121024dd8e0b45b69f806dfe1697b7b445810e23808e2ae53af31cbbfff324b546cd4ffffffff01b82126000000000017a91402dc64a8c8ceb6025c594cd63401ab001f1e5b418700000000", "vin": [{"sequence": 4294967295, "scriptSig": {"hex": "47304402201a3d716e9b8c95c43709e89bf9558a2c5dc17522559505473aed9dbe86f835e202206f2841a0e8cbb59c6c64acc62c3f68d6d20e8bf0427bf490ac83c1378995f4b30121024dd8e0b45b69f806dfe1697b7b445810e23808e2ae53af31cbbfff324b546cd4", "asm": "304402201a3d716e9b8c95c43709e89bf9558a2c5dc17522559505473aed9dbe86f835e202206f2841a0e8cbb59c6c64acc62c3f68d6d20e8bf0427bf490ac83c1378995f4b3[ALL] 024dd8e0b45b69f806dfe1697b7b445810e23808e2ae53af31cbbfff324b546cd4"}, "vout": 0, "txid": "e28aa5b25b6e2546546ae601fbae94f2b3a756ddf356d07f25706f98644d8ac2"}], "txid": "5948e8439e80a81de2df92c019e5f0a18e8da6cdb5250c2149796087b8c9a9ff", "blocktime": 1537873282, "version": 1, "confirmations": 11484, "time": 1537873282, "locktime": 0, "vsize": 189, "size": 189}