{"hash": "59512a9439e9821ef84a15b93be447498dd6b3690de12f6d2438b3d4b6a27e49", "blockhash": "0000000000000000000e13cef7c366c0283d82e591d1acd082e914b08063cdf1", "vout": [{"scriptPubKey": {"reqSigs": 1, "hex": "a914a7aedd0d1e77300fb06aa154c9a517b74c08d24587", "addresses": ["3GyeFJmQynJWd8DeACm4cdEnZcckAtrfcN"], "asm": "OP_HASH160 a7aedd0d1e77300fb06aa154c9a517b74c08d245 OP_EQUAL", "type": "scripthash"}, "value": 0.08448267, "n": 0}, {"scriptPubKey": {"reqSigs": 1, "hex": "76a914e1a72c909b24eda51d7815fc41b2ce3b65469baa88ac", "addresses": ["1Ma9JczuLJT1b9Y9qBvNo7wjJMkTRyg4TL"], "asm": "OP_DUP OP_HASH160 e1a72c909b24eda51d7815fc41b2ce3b65469baa OP_EQUALVERIFY OP_CHECKSIG", "type": "pubkeyhash"}, "value": 2.73e-05, "n": 1}, {"scriptPubKey": {"type": "nulldata", "hex": "6a146f6d6e69000000000000001f0000005316631dc0", "asm": "OP_RETURN 6f6d6e69000000000000001f0000005316631dc0"}, "value": 0.0, "n": 2}], "hex": "01000000019070ff8d20352fb222d28a85a0c8aa1d2cc11227a520cc5b44f5454f94aa32ec00000000fdfd0000483045022100f07acf5be7793e600773c063b7aad7d67c7007c566670474c3b83ffcc9c9b57202204f26803a0586f1d9dd24e9d97df9cc73e4ae693bbc2f44a52a41dbf390ce9ce40147304402202d39b3e12d5c0dd3ba6db03dd8a2f1f5c616a05de21d8c222b13c3135c0394630220318d0243dee4e3ec5ce81f451bc52ed96b139cc74654c5ce229f27bffbcbc8f9014c695221035c037a36e4ec9aa1aefcef02ff742bec63c098c0a7f1c9a1b822b6294afbb7102102a1ccf15bc58870240578a2922b3f0e922260f37098adbd988e15be36943816912102af3be4803e51fef309a51f0332f399026e99dae117dc2d22a71f4eacc1f3f4f153aeffffffff030be980000000000017a914a7aedd0d1e77300fb06aa154c9a517b74c08d24587aa0a0000000000001976a914e1a72c909b24eda51d7815fc41b2ce3b65469baa88ac0000000000000000166a146f6d6e69000000000000001f0000005316631dc000000000", "vin": [{"sequence": 4294967295, "scriptSig": {"hex": "00483045022100f07acf5be7793e600773c063b7aad7d67c7007c566670474c3b83ffcc9c9b57202204f26803a0586f1d9dd24e9d97df9cc73e4ae693bbc2f44a52a41dbf390ce9ce40147304402202d39b3e12d5c0dd3ba6db03dd8a2f1f5c616a05de21d8c222b13c3135c0394630220318d0243dee4e3ec5ce81f451bc52ed96b139cc74654c5ce229f27bffbcbc8f9014c695221035c037a36e4ec9aa1aefcef02ff742bec63c098c0a7f1c9a1b822b6294afbb7102102a1ccf15bc58870240578a2922b3f0e922260f37098adbd988e15be36943816912102af3be4803e51fef309a51f0332f399026e99dae117dc2d22a71f4eacc1f3f4f153ae", "asm": "0 3045022100f07acf5be7793e600773c063b7aad7d67c7007c566670474c3b83ffcc9c9b57202204f26803a0586f1d9dd24e9d97df9cc73e4ae693bbc2f44a52a41dbf390ce9ce4[ALL] 304402202d39b3e12d5c0dd3ba6db03dd8a2f1f5c616a05de21d8c222b13c3135c0394630220318d0243dee4e3ec5ce81f451bc52ed96b139cc74654c5ce229f27bffbcbc8f9[ALL] 5221035c037a36e4ec9aa1aefcef02ff742bec63c098c0a7f1c9a1b822b6294afbb7102102a1ccf15bc58870240578a2922b3f0e922260f37098adbd988e15be36943816912102af3be4803e51fef309a51f0332f399026e99dae117dc2d22a71f4eacc1f3f4f153ae"}, "vout": 0, "txid": "ec32aa944f45f5445bcc20a52712c12c1daac8a0858ad222b22f35208dff7090"}], "txid": "59512a9439e9821ef84a15b93be447498dd6b3690de12f6d2438b3d4b6a27e49", "blocktime": 1537871767, "version": 1, "confirmations": 11493, "time": 1537871767, "locktime": 0, "vsize": 403, "size": 403}