{"hash": "b432bf681f9e0ca7b97a0bd75189b82dfd731e82eeba0f6205c9452e53ff1269", "blockhash": "0000000000000000001cda96e906b7601b7a6fb1a3b62bca570a9e5d8f4b3de1", "vout": [{"scriptPubKey": {"reqSigs": 1, "hex": "76a91462f9a19bb360a0c3c690c954a73ac93b0defb7bb88ac", "addresses": ["1A2LGV8JrkBhHwfUaMMLy55eF2uQ2wYnWE"], "asm": "OP_DUP OP_HASH160 62f9a19bb360a0c3c690c954a73ac93b0defb7bb OP_EQUALVERIFY OP_CHECKSIG", "type": "pubkeyhash"}, "value": 0.010549, "n": 0}, {"scriptPubKey": {"reqSigs": 1, "hex": "00140e59f66a9ef6711ff8f3f44cf7087c2c903351ac", "addresses": ["bc1qpevlv6577ec3l78n73x0wzru9jgrx5dv97za69"], "asm": "0 0e59f66a9ef6711ff8f3f44cf7087c2c903351ac", "type": "witness_v0_keyhash"}, "value": 0.00034522, "n": 1}], "hex": "01000000000101b41c843e27f5fb428b40e4ec26b178a8dc98a6261707b657836f801eb24ed1b53f0000001716001442f6b3c792f5a9b9714186c14ae414d17d5910e5ffffffff02b4181000000000001976a91462f9a19bb360a0c3c690c954a73ac93b0defb7bb88acda860000000000001600140e59f66a9ef6711ff8f3f44cf7087c2c903351ac02483045022100831166d5b5ddc0a01d86c68352d8fb082657f5de74e9bdebd7a4120a1f4fe7b702206172ddb05af6104a508316a0dbb8ac1b8a9af019f6ccb9e2495a055179fb0fdb012102a53b7e406528bfba49ef541e8e71adee75a366b6fff89d598f2a30b27e42c14000000000", "vin": [{"txinwitness": ["3045022100831166d5b5ddc0a01d86c68352d8fb082657f5de74e9bdebd7a4120a1f4fe7b702206172ddb05af6104a508316a0dbb8ac1b8a9af019f6ccb9e2495a055179fb0fdb01", "02a53b7e406528bfba49ef541e8e71adee75a366b6fff89d598f2a30b27e42c140"], "sequence": 4294967295, "scriptSig": {"hex": "16001442f6b3c792f5a9b9714186c14ae414d17d5910e5", "asm": "001442f6b3c792f5a9b9714186c14ae414d17d5910e5"}, "vout": 63, "txid": "b5d14eb21e806f8357b6071726a698dca878b126ece4408b42fbf5273e841cb4"}], "txid": "59557b46cd4d04916d53e0767702378e1718720adaf01df8947bfcfeabae4a27", "blocktime": 1537873282, "version": 1, "confirmations": 11484, "time": 1537873282, "locktime": 0, "vsize": 167, "size": 249}