{"hash": "595754e19290ac67f0938ba949466508955f1ff3e05a9e31c2e05c0caea6254f", "blockhash": "00000000000000000018f53835495a110e01622372bf6ae95dc86f2b0ab887b0", "vout": [{"scriptPubKey": {"reqSigs": 1, "hex": "a9145b183cff929761e6dc96de9f3c8e0b364f659c0487", "addresses": ["39zgT744TnohbRXvFkaoM74BAWffB2zVoy"], "asm": "OP_HASH160 5b183cff929761e6dc96de9f3c8e0b364f659c04 OP_EQUAL", "type": "scripthash"}, "value": 0.465, "n": 0}, {"scriptPubKey": {"reqSigs": 1, "hex": "76a91430b0c0149fa55a5935639ccca2ebd8b8870ddeca88ac", "addresses": ["15STB32pGKYFtutGfMfd2unW4DZcMc99NP"], "asm": "OP_DUP OP_HASH160 30b0c0149fa55a5935639ccca2ebd8b8870ddeca OP_EQUALVERIFY OP_CHECKSIG", "type": "pubkeyhash"}, "value": 0.00361264, "n": 1}], "hex": "010000000481d3f7bc0357197f62c545e07903b972bffbff701536b582cdcbdadf8a666212010000006b4830450221009f3679d5510f3b26a256e19f748ec8f81a8f4d8ff9b28fe633cf8f122c036988022065e89f03472c4cb8c82ee627cde56f848cf46fa7bcc55c14f4685ede44ed66f20121035e46d88bd6d4132b3ccb80cd9572ba2d2d4674c74759bfb5a6b11e850b2861dbffffffff0620e4d3fce21ae1bc7e39861669b2a0336565fd508803c6a3658cef1eadc235020000006a47304402205595d8c288cfda8e0eb9d6f006a27ce94ea54eef253704b1aacd56db0e1a8b5e022056d774800fe3888a985b0b8cc899858be3a2857dbc8b4e26c6c9ae1568569a4c01210344a2dbae51afe4174ca64b8725e6e0eebdaac501fb4ce0193607f34c6138a902ffffffffb442b11f8d54d28e33b77a3555008d47e5e5cdabd3767eebb5562599445322ac010000006b483045022100d1b1944ce237b8bcd18a698b051a1ded8823b70120401e561355aa08878516b802207abee683e43edce239e05495374f2484e16f0a8b6f607475c9b5114ca57463280121034e1c0aebf69f02b504c10c800975e8e7f4ea3eab0a77a2a2d16638dc48523879ffffffff55cbd9f986faf7c8d46c7ab5542378bc5a9d1cecd81184ce1a05c75f05b73edf010000006a47304402204b2e9239b6959ccd986c76cdd4b1ed76ac87b9cefb20ce7bc411d18bc5d47d220220116df85872aeac051edb4fdd4cfe19b18cf66a08d40b4e7e706d7a610b5b53f60121025a5f59079f8c835ae4fa4ba4bb931a1610ddc526d312b63bb70b68552363ae86ffffffff02a088c5020000000017a9145b183cff929761e6dc96de9f3c8e0b364f659c048730830500000000001976a91430b0c0149fa55a5935639ccca2ebd8b8870ddeca88ac00000000", "vin": [{"sequence": 4294967295, "scriptSig": {"hex": "4830450221009f3679d5510f3b26a256e19f748ec8f81a8f4d8ff9b28fe633cf8f122c036988022065e89f03472c4cb8c82ee627cde56f848cf46fa7bcc55c14f4685ede44ed66f20121035e46d88bd6d4132b3ccb80cd9572ba2d2d4674c74759bfb5a6b11e850b2861db", "asm": "30450221009f3679d5510f3b26a256e19f748ec8f81a8f4d8ff9b28fe633cf8f122c036988022065e89f03472c4cb8c82ee627cde56f848cf46fa7bcc55c14f4685ede44ed66f2[ALL] 035e46d88bd6d4132b3ccb80cd9572ba2d2d4674c74759bfb5a6b11e850b2861db"}, "vout": 1, "txid": "1262668adfdacbcd82b5361570fffbbf72b90379e045c5627f195703bcf7d381"}, {"sequence": 4294967295, "scriptSig": {"hex": "47304402205595d8c288cfda8e0eb9d6f006a27ce94ea54eef253704b1aacd56db0e1a8b5e022056d774800fe3888a985b0b8cc899858be3a2857dbc8b4e26c6c9ae1568569a4c01210344a2dbae51afe4174ca64b8725e6e0eebdaac501fb4ce0193607f34c6138a902", "asm": "304402205595d8c288cfda8e0eb9d6f006a27ce94ea54eef253704b1aacd56db0e1a8b5e022056d774800fe3888a985b0b8cc899858be3a2857dbc8b4e26c6c9ae1568569a4c[ALL] 0344a2dbae51afe4174ca64b8725e6e0eebdaac501fb4ce0193607f34c6138a902"}, "vout": 2, "txid": "35c2ad1eef8c65a3c6038850fd656533a0b2691686397ebce11ae2fcd3e42006"}, {"sequence": 4294967295, "scriptSig": {"hex": "483045022100d1b1944ce237b8bcd18a698b051a1ded8823b70120401e561355aa08878516b802207abee683e43edce239e05495374f2484e16f0a8b6f607475c9b5114ca57463280121034e1c0aebf69f02b504c10c800975e8e7f4ea3eab0a77a2a2d16638dc48523879", "asm": "3045022100d1b1944ce237b8bcd18a698b051a1ded8823b70120401e561355aa08878516b802207abee683e43edce239e05495374f2484e16f0a8b6f607475c9b5114ca5746328[ALL] 034e1c0aebf69f02b504c10c800975e8e7f4ea3eab0a77a2a2d16638dc48523879"}, "vout": 1, "txid": "ac225344992556b5eb7e76d3abcde5e5478d0055357ab7338ed2548d1fb142b4"}, {"sequence": 4294967295, "scriptSig": {"hex": "47304402204b2e9239b6959ccd986c76cdd4b1ed76ac87b9cefb20ce7bc411d18bc5d47d220220116df85872aeac051edb4fdd4cfe19b18cf66a08d40b4e7e706d7a610b5b53f60121025a5f59079f8c835ae4fa4ba4bb931a1610ddc526d312b63bb70b68552363ae86", "asm": "304402204b2e9239b6959ccd986c76cdd4b1ed76ac87b9cefb20ce7bc411d18bc5d47d220220116df85872aeac051edb4fdd4cfe19b18cf66a08d40b4e7e706d7a610b5b53f6[ALL] 025a5f59079f8c835ae4fa4ba4bb931a1610ddc526d312b63bb70b68552363ae86"}, "vout": 1, "txid": "df3eb7055fc7051ace8411d8ec1c9d5abc782354b57a6cd4c8f7fa86f9d9cb55"}], "txid": "595754e19290ac67f0938ba949466508955f1ff3e05a9e31c2e05c0caea6254f", "blocktime": 1537870928, "version": 1, "confirmations": 11512, "time": 1537870928, "locktime": 0, "vsize": 666, "size": 666}