{"hash": "5909f36054289cdec0697428961821ef5256c7bcb2a6540e346b4114ef9b91ff", "blockhash": "0000000000000000000dcc0f55137456b1a82d3642486a52398922ac4d620174", "vout": [{"scriptPubKey": {"reqSigs": 1, "hex": "a91463bb9d471d97ed4cced618d92a0ab9785d3ab9c887", "addresses": ["3AnMaD7bKYRCYUt882g2AoGJPSDsDJCqUw"], "asm": "OP_HASH160 63bb9d471d97ed4cced618d92a0ab9785d3ab9c8 OP_EQUAL", "type": "scripthash"}, "value": 0.001248, "n": 0}, {"scriptPubKey": {"reqSigs": 1, "hex": "001455b295310b16e1c57a4b6d437f57b646772f0999", "addresses": ["bc1q2kef2vgtzmsu27jtd4ph74akgemj7zvemwahqh"], "asm": "0 55b295310b16e1c57a4b6d437f57b646772f0999", "type": "witness_v0_keyhash"}, "value": 1.216e-05, "n": 1}], "hex": "010000000001011c481d9332f069da9bb79be6fce7ad6de100d006e695ca3fe1097047d761d13a0100000000ffffffff0280e701000000000017a91463bb9d471d97ed4cced618d92a0ab9785d3ab9c887c00400000000000016001455b295310b16e1c57a4b6d437f57b646772f099902483045022100c02f18946708e9bed19a2693f29f213d7a082dbb621f0a0e4433670ce88633a902202c33cd94c74232c21078392e6a6ce7c55a264212bc92d2cd142996f9c8deebcb0121028f454a7ec3e8a6b54baf04fba04bea3b1c880f4d77fbcad344f57858765994e800000000", "vin": [{"txinwitness": ["3045022100c02f18946708e9bed19a2693f29f213d7a082dbb621f0a0e4433670ce88633a902202c33cd94c74232c21078392e6a6ce7c55a264212bc92d2cd142996f9c8deebcb01", "028f454a7ec3e8a6b54baf04fba04bea3b1c880f4d77fbcad344f57858765994e8"], "sequence": 4294967295, "scriptSig": {"hex": "", "asm": ""}, "vout": 1, "txid": "3ad161d7477009e13fca95e606d000e16dade7fce69bb79bda69f032931d481c"}], "txid": "595d1129491aaf5611f0fb36d2c507f528e2cc9e671824a1e73d455e2615f883", "blocktime": 1537870268, "version": 1, "confirmations": 11518, "time": 1537870268, "locktime": 0, "vsize": 142, "size": 224}