{"hash": "59643221492444a9199fcb541d0c0c0bb02312969bdcba58bea87e1f4d39cdba", "blockhash": "00000000000000000004ffacab907a6b429b9a5745fa0b75af4234bf69dd7176", "vout": [{"scriptPubKey": {"reqSigs": 1, "hex": "76a9140aac059bf866db769d492b12388d0e17c002333488ac", "addresses": ["1yRqDCDP1JSmcZtT2cxpyf6dB6sHwPfmg"], "asm": "OP_DUP OP_HASH160 0aac059bf866db769d492b12388d0e17c0023334 OP_EQUALVERIFY OP_CHECKSIG", "type": "pubkeyhash"}, "value": 0.002321, "n": 0}, {"scriptPubKey": {"reqSigs": 1, "hex": "76a9148241e661055b565e2c75eba9536ef139239cfd9688ac", "addresses": ["1CsjnkBaViCXqkicfhXpMXJzy2u9Uh6gyq"], "asm": "OP_DUP OP_HASH160 8241e661055b565e2c75eba9536ef139239cfd96 OP_EQUALVERIFY OP_CHECKSIG", "type": "pubkeyhash"}, "value": 0.00843712, "n": 1}], "hex": "010000000193c18ded6da5597fef11bfee14ef99955b681d4b3c8d93050adcc14df1e4e3b9010000006a473044022019bc293035e3f1882e52aabe047735049806fae843e2f8229ad1b609fd54233f0220275649c69aea0159fddc027408a6a6d5e1d7b56a066c93d4286c0f031ad5d245012102b74f8b3b756ebe3acec9e04b9779153dccf0cff637d4fb0b478a0ebacf0c2c7dffffffff02a48a0300000000001976a9140aac059bf866db769d492b12388d0e17c002333488acc0df0c00000000001976a9148241e661055b565e2c75eba9536ef139239cfd9688ac00000000", "vin": [{"sequence": 4294967295, "scriptSig": {"hex": "473044022019bc293035e3f1882e52aabe047735049806fae843e2f8229ad1b609fd54233f0220275649c69aea0159fddc027408a6a6d5e1d7b56a066c93d4286c0f031ad5d245012102b74f8b3b756ebe3acec9e04b9779153dccf0cff637d4fb0b478a0ebacf0c2c7d", "asm": "3044022019bc293035e3f1882e52aabe047735049806fae843e2f8229ad1b609fd54233f0220275649c69aea0159fddc027408a6a6d5e1d7b56a066c93d4286c0f031ad5d245[ALL] 02b74f8b3b756ebe3acec9e04b9779153dccf0cff637d4fb0b478a0ebacf0c2c7d"}, "vout": 1, "txid": "b9e3e4f14dc1dc0a05938d3c4b1d685b9599ef14eebf11ef7f59a56ded8dc193"}], "txid": "59643221492444a9199fcb541d0c0c0bb02312969bdcba58bea87e1f4d39cdba", "blocktime": 1537875543, "version": 1, "confirmations": 11464, "time": 1537875543, "locktime": 0, "vsize": 225, "size": 225}