{"hash": "38c77f9388518ff3fff16aea0ee95d312c22edeebda0f9d6e7cf19cb9413c075", "blockhash": "000000000000000000205f8b0775d31398ef75b89a5e8ec8d2c57b4dc0ac4c20", "vout": [{"scriptPubKey": {"reqSigs": 1, "hex": "a914358d6eea48da3993c3f23de2f43f408731638e7387", "addresses": ["36aBAfb4oyL6HdZfqpAVZxgaYA7ra7gBSs"], "asm": "OP_HASH160 358d6eea48da3993c3f23de2f43f408731638e73 OP_EQUAL", "type": "scripthash"}, "value": 0.175, "n": 0}, {"scriptPubKey": {"reqSigs": 1, "hex": "76a91497b9f7954662fa00dcdb460f41776b3ba3cb984788ac", "addresses": ["1EqFpBwBUD36Xpc58ChMLgzebZoKNk3eog"], "asm": "OP_DUP OP_HASH160 97b9f7954662fa00dcdb460f41776b3ba3cb9847 OP_EQUALVERIFY OP_CHECKSIG", "type": "pubkeyhash"}, "value": 0.02079934, "n": 1}, {"scriptPubKey": {"reqSigs": 1, "hex": "a914b95554cd8e77c94f167778be751b40057bdf508587", "addresses": ["3Jay9xC3La8vzgaoBixrqme2jNpXjed6ue"], "asm": "OP_HASH160 b95554cd8e77c94f167778be751b40057bdf5085 OP_EQUAL", "type": "scripthash"}, "value": 0.05937, "n": 2}, {"scriptPubKey": {"reqSigs": 1, "hex": "a914c926418a78ae7adc252bced00cdfb371c5b7fee987", "addresses": ["3L2baBBvh69gXiLtCX1wEDPk9WB8QTJLpn"], "asm": "OP_HASH160 c926418a78ae7adc252bced00cdfb371c5b7fee9 OP_EQUAL", "type": "scripthash"}, "value": 0.36274731, "n": 3}, {"scriptPubKey": {"reqSigs": 1, "hex": "76a914f2736cdcc47d45a00d567646b7cb30940501b03d88ac", "addresses": ["1P6xoJx7qdKxtb2abbVbYEqfQHXeCC26NU"], "asm": "OP_DUP OP_HASH160 f2736cdcc47d45a00d567646b7cb30940501b03d OP_EQUALVERIFY OP_CHECKSIG", "type": "pubkeyhash"}, "value": 0.00379491, "n": 4}, {"scriptPubKey": {"reqSigs": 1, "hex": "a914b47f1a40911f772303ac28207cde67e411bf3ea987", "addresses": ["3J9PpK7QgErJzm2oNpQ5CYtFG43vuATo2j"], "asm": "OP_HASH160 b47f1a40911f772303ac28207cde67e411bf3ea9 OP_EQUAL", "type": "scripthash"}, "value": 0.00167288, "n": 5}], "hex": "010000000001037b32ecf22fa606de6b8b72d3769e7dd2aef08b094ee5abbc51015c84eefaaec00000000023220020953a8594b8ef04a5a8d9696f65cb3f55b3b070683d65ea33b645f78eed03156fffffffff15669653df932432af6de911e4ee06b041825795a9454334097a5aa36657af820500000023220020cdded892f6ed4be909537ea9a644315a8306aa3a6be1b31d67bbdb1053ce8d8effffffff42bae5a931167442acd1783fc75e58ed4a01c6d43d9469c65e1ff599fe57cb3f00000000232200200dd7cd53527ab681af19b18caa4ce07fba995e94dbe7de50534e66ea3308d450ffffffff0660070b010000000017a914358d6eea48da3993c3f23de2f43f408731638e7387bebc1f00000000001976a91497b9f7954662fa00dcdb460f41776b3ba3cb984788ac68975a000000000017a914b95554cd8e77c94f167778be751b40057bdf5085872b8229020000000017a914c926418a78ae7adc252bced00cdfb371c5b7fee98763ca0500000000001976a914f2736cdcc47d45a00d567646b7cb30940501b03d88ac788d02000000000017a914b47f1a40911f772303ac28207cde67e411bf3ea9870400483045022100d3329fca6633c09f247ccc738e698f87b7a8e4eccb0bcbe64b34552965727a7402201811b203ab450617a597406af983530f26bee785b174797542009342d20a140e01473044022008db0304e797259aebd05ae77b5efb62f7a07df827a33d376b9562629d5253f10220488982325a5a1550d7eed8866d3d8c0c6c3780b21fecd156931fedf3c25e20e70169522102dfd4d0c5dd1d77afa54c47bc85584a59a960621762b3e38d141d32a289375c302102d3c81a61f2f6949439c0fe1b5dd14acc4271d2491c509524ccd862f5db9fc2542102f6fc9882e82ecac1ec74beee46ab412544417b9ebc7752fb96733da7648d74c953ae0400483045022100fcac4ca4d9ee7b110280415c45c3ab57a8405c157473639ff78aa5edefeb75f802203b14aa8563cad918a4b09725ac51ef5e1468cfe1305d796d7a0ce3878a700f4c01483045022100ae517ebde4f9ce03b0c3ffcd2b1951e9259d71c3a217933c83dabb4444708224022047cc4cf950a1930d88f7445f048d0c2dde6bba388802f3870d3be7a0fcbd46b40169522103b25f60c92e7200cf25bef15ddfc69b6df83704442a467170ca7606dacd1d8614210201dfee414225770fdbb0377dc74b28e3efbaef2af0f26d362baf6aaee932443d21037352627922d967ae93f6dba4f8cf3d02d7b71b2afbc53536f768f43ffc63515453ae0400473044022003054242af35fe6e7d0aa5c1a149e5b4b8c3f3d2f9e6643c7287735a476f6fd802202235b47c5ca36559b871e8e8cb1fbf1808737bc9850404b0198c13069ee795770147304402206dfbd22d1ebfc16ad3ce4cafec77eeaf1a046790990898eafe457c4e1fa4484e02205ba1cef9d5e51f15356c3404e4b465a7399674638e606f1ba446644af5e4353f01695221038e59e3e7c4d19613280816269a0a739f0c1f76934a9b23813f7fd3608cfaa7be21026713af3f9426535f99ccc9d18e87078d08d28098209496d1bf50a17196c5e963210282a77006327106333e7cddb69bf3c1dd7c78d321a2ae8dad5e1a59cabbfc699753ae00000000", "vin": [{"txinwitness": ["", "3045022100d3329fca6633c09f247ccc738e698f87b7a8e4eccb0bcbe64b34552965727a7402201811b203ab450617a597406af983530f26bee785b174797542009342d20a140e01", "3044022008db0304e797259aebd05ae77b5efb62f7a07df827a33d376b9562629d5253f10220488982325a5a1550d7eed8866d3d8c0c6c3780b21fecd156931fedf3c25e20e701", "522102dfd4d0c5dd1d77afa54c47bc85584a59a960621762b3e38d141d32a289375c302102d3c81a61f2f6949439c0fe1b5dd14acc4271d2491c509524ccd862f5db9fc2542102f6fc9882e82ecac1ec74beee46ab412544417b9ebc7752fb96733da7648d74c953ae"], "sequence": 4294967295, "scriptSig": {"hex": "220020953a8594b8ef04a5a8d9696f65cb3f55b3b070683d65ea33b645f78eed03156f", "asm": "0020953a8594b8ef04a5a8d9696f65cb3f55b3b070683d65ea33b645f78eed03156f"}, "vout": 0, "txid": "c0aefaee845c0151bcabe54e098bf0aed27d9e76d3728b6bde06a62ff2ec327b"}, {"txinwitness": ["", "3045022100fcac4ca4d9ee7b110280415c45c3ab57a8405c157473639ff78aa5edefeb75f802203b14aa8563cad918a4b09725ac51ef5e1468cfe1305d796d7a0ce3878a700f4c01", "3045022100ae517ebde4f9ce03b0c3ffcd2b1951e9259d71c3a217933c83dabb4444708224022047cc4cf950a1930d88f7445f048d0c2dde6bba388802f3870d3be7a0fcbd46b401", "522103b25f60c92e7200cf25bef15ddfc69b6df83704442a467170ca7606dacd1d8614210201dfee414225770fdbb0377dc74b28e3efbaef2af0f26d362baf6aaee932443d21037352627922d967ae93f6dba4f8cf3d02d7b71b2afbc53536f768f43ffc63515453ae"], "sequence": 4294967295, "scriptSig": {"hex": "220020cdded892f6ed4be909537ea9a644315a8306aa3a6be1b31d67bbdb1053ce8d8e", "asm": "0020cdded892f6ed4be909537ea9a644315a8306aa3a6be1b31d67bbdb1053ce8d8e"}, "vout": 5, "txid": "82af5766a35a7a09344345a995578241b006eee411e96daf322493df53966615"}, {"txinwitness": ["", "3044022003054242af35fe6e7d0aa5c1a149e5b4b8c3f3d2f9e6643c7287735a476f6fd802202235b47c5ca36559b871e8e8cb1fbf1808737bc9850404b0198c13069ee7957701", "304402206dfbd22d1ebfc16ad3ce4cafec77eeaf1a046790990898eafe457c4e1fa4484e02205ba1cef9d5e51f15356c3404e4b465a7399674638e606f1ba446644af5e4353f01", "5221038e59e3e7c4d19613280816269a0a739f0c1f76934a9b23813f7fd3608cfaa7be21026713af3f9426535f99ccc9d18e87078d08d28098209496d1bf50a17196c5e963210282a77006327106333e7cddb69bf3c1dd7c78d321a2ae8dad5e1a59cabbfc699753ae"], "sequence": 4294967295, "scriptSig": {"hex": "2200200dd7cd53527ab681af19b18caa4ce07fba995e94dbe7de50534e66ea3308d450", "asm": "00200dd7cd53527ab681af19b18caa4ce07fba995e94dbe7de50534e66ea3308d450"}, "vout": 0, "txid": "3fcb57fe99f51f5ec669943dd4c6014aed585ec73f78d1ac42741631a9e5ba42"}], "txid": "59650743d6d6f2fd066fee4411dd2f77209dee86cc1fdfd9e1d49fad13a5716d", "blocktime": 1537871175, "version": 1, "confirmations": 11511, "time": 1537871175, "locktime": 0, "vsize": 625, "size": 1195}