{"hash": "596bad5f49275622863e02dc940d284716543a60dadaf368aa8c3c34418b6a57", "blockhash": "000000000000000000022b45ed06c6f4ccd3cf7fb5ba4856ebd2e58215665228", "vout": [{"scriptPubKey": {"reqSigs": 1, "hex": "0014eb4a78cffb61678fb6f6f0ae4d7d35bec936efae", "addresses": ["bc1qad983nlmv9ncldhk7zhy6lf4hmyndmawezfaxc"], "asm": "0 eb4a78cffb61678fb6f6f0ae4d7d35bec936efae", "type": "witness_v0_keyhash"}, "value": 0.00095418, "n": 0}, {"scriptPubKey": {"reqSigs": 1, "hex": "76a9146d91beca835b6c6ec39aa30b9b045d8824d10a1288ac", "addresses": ["1AzMFUCVhSzvUdhNjKhPNS6C2TuGidcTk6"], "asm": "OP_DUP OP_HASH160 6d91beca835b6c6ec39aa30b9b045d8824d10a12 OP_EQUALVERIFY OP_CHECKSIG", "type": "pubkeyhash"}, "value": 0.00639842, "n": 1}], "hex": "01000000013aa483993fd55fb12d4ed23af2961a07810c634ffb4c36459b2a64fe8213f241000000006a473044022058651d4ff99d59c171bef584b11831236fe924fadf9dd7136c1d57f5be87f85302203247778e1a3a7a79f9bea7ba93397ba7201c3dcdeab127029ec5ce9d89bc18ce012103d6f14ab405dcc2215d21a692e10b3ba20d5dbdb246e0f5778a64077ce9fec87fffffffff02ba74010000000000160014eb4a78cffb61678fb6f6f0ae4d7d35bec936efae62c30900000000001976a9146d91beca835b6c6ec39aa30b9b045d8824d10a1288ac00000000", "vin": [{"sequence": 4294967295, "scriptSig": {"hex": "473044022058651d4ff99d59c171bef584b11831236fe924fadf9dd7136c1d57f5be87f85302203247778e1a3a7a79f9bea7ba93397ba7201c3dcdeab127029ec5ce9d89bc18ce012103d6f14ab405dcc2215d21a692e10b3ba20d5dbdb246e0f5778a64077ce9fec87f", "asm": "3044022058651d4ff99d59c171bef584b11831236fe924fadf9dd7136c1d57f5be87f85302203247778e1a3a7a79f9bea7ba93397ba7201c3dcdeab127029ec5ce9d89bc18ce[ALL] 03d6f14ab405dcc2215d21a692e10b3ba20d5dbdb246e0f5778a64077ce9fec87f"}, "vout": 0, "txid": "41f21382fe642a9b45364cfb4f630c81071a96f23ad24e2db15fd53f9983a43a"}], "txid": "596bad5f49275622863e02dc940d284716543a60dadaf368aa8c3c34418b6a57", "blocktime": 1537869901, "version": 1, "confirmations": 11523, "time": 1537869901, "locktime": 0, "vsize": 222, "size": 222}