{"hash": "596e1d4000b51c03729c0615bcc6478f864d4d540ab8ff4cb09742625f78b9a7", "blockhash": "0000000000000000001f0ddff1eddb255c1121bcd4da4f1bc9a0da00cae72433", "vout": [{"scriptPubKey": {"reqSigs": 1, "hex": "76a914adad8917e919aad487bb80ef9d6f8b195203419188ac", "addresses": ["1GqKneUK56C3Mj29Vr8x6tyiY9Uq4cxZuu"], "asm": "OP_DUP OP_HASH160 adad8917e919aad487bb80ef9d6f8b1952034191 OP_EQUALVERIFY OP_CHECKSIG", "type": "pubkeyhash"}, "value": 0.18662338, "n": 0}, {"scriptPubKey": {"reqSigs": 1, "hex": "76a91455fb9c026f0de023c5226d6e754c574a77e7562f88ac", "addresses": ["18qdrSB49H897nyb1CeRi2VwbhYUEpdVoJ"], "asm": "OP_DUP OP_HASH160 55fb9c026f0de023c5226d6e754c574a77e7562f OP_EQUALVERIFY OP_CHECKSIG", "type": "pubkeyhash"}, "value": 0.81336984, "n": 1}], "hex": "010000000197251c3757091647038712d0fb3791f3ef0fffc45f7b5db14355718fa03a4b78000000006b4830450221008c0ca3e1533e8aa1bf5192a5d6accf2e50f311e7a5ef6a446a34868ab565054a0220326d7504fcec9338f9502a2ed65f3d0b10018db29fba5ded4ab108a7b940b629012103dfc5decd09c264e723c86556c35f97af4829920fb4185f964240eae1e440433dffffffff02c2c31c01000000001976a914adad8917e919aad487bb80ef9d6f8b195203419188ac981ad904000000001976a91455fb9c026f0de023c5226d6e754c574a77e7562f88ac00000000", "vin": [{"sequence": 4294967295, "scriptSig": {"hex": "4830450221008c0ca3e1533e8aa1bf5192a5d6accf2e50f311e7a5ef6a446a34868ab565054a0220326d7504fcec9338f9502a2ed65f3d0b10018db29fba5ded4ab108a7b940b629012103dfc5decd09c264e723c86556c35f97af4829920fb4185f964240eae1e440433d", "asm": "30450221008c0ca3e1533e8aa1bf5192a5d6accf2e50f311e7a5ef6a446a34868ab565054a0220326d7504fcec9338f9502a2ed65f3d0b10018db29fba5ded4ab108a7b940b629[ALL] 03dfc5decd09c264e723c86556c35f97af4829920fb4185f964240eae1e440433d"}, "vout": 0, "txid": "784b3aa08f715543b15d7b5fc4ff0feff39137fbd012870347160957371c2597"}], "txid": "596e1d4000b51c03729c0615bcc6478f864d4d540ab8ff4cb09742625f78b9a7", "blocktime": 1537872018, "version": 1, "confirmations": 11489, "time": 1537872018, "locktime": 0, "vsize": 226, "size": 226}