{"hash": "c79a57a25b4bbb3c4a3509c0d6e752aae8671998cf756e1c5ab6dffde291c34a", "blockhash": "000000000000000000022b45ed06c6f4ccd3cf7fb5ba4856ebd2e58215665228", "vout": [{"scriptPubKey": {"reqSigs": 1, "hex": "76a914b55649c194881389dbf1b54b81a544272554d14d88ac", "addresses": ["1HXpg8D9AMGFVZ9FEU2tkZYvAZ8xBhVudo"], "asm": "OP_DUP OP_HASH160 b55649c194881389dbf1b54b81a544272554d14d OP_EQUALVERIFY OP_CHECKSIG", "type": "pubkeyhash"}, "value": 0.0027296, "n": 0}, {"scriptPubKey": {"reqSigs": 1, "hex": "a914ee6dfc68e1322e2fe58af11a48c869ca8bf1529b87", "addresses": ["3PRiWAAuKbo3v6LhvnS5SXs1AfEEMiCA7h"], "asm": "OP_HASH160 ee6dfc68e1322e2fe58af11a48c869ca8bf1529b OP_EQUAL", "type": "scripthash"}, "value": 0.01003261, "n": 1}], "hex": "02000000000102020bf8bbc806ed32fdb6ca3dc15288fef7c238adc10080d2a38c60ff8c5aca1e000000001716001434d7570e557d0fde376f88dcc3fa9c47a02eb681feffffffcdd42ad4d644138c9c686671130ae0dc6a60879885a2a683255c46e3afe85f430000000017160014e685135e7d0271e3af921652c5dcaa9117affefffeffffff02402a0400000000001976a914b55649c194881389dbf1b54b81a544272554d14d88acfd4e0f000000000017a914ee6dfc68e1322e2fe58af11a48c869ca8bf1529b870247304402202a46a95f7246fb1fa631ee2475101f57ae86364b7a1521d66b8348ce6f8f71a30220554643a5fdde310f007ebf542a39320610f9e0530d0e7c7c82a5af1b372654f9012103782dae4e5b71e5010feee98d849c5e3c3bae8a4289a8c6fc20cc32b6cf3eab510247304402207e2b81e2bf09b2de30e1eec41ed69ab9fd5b5e657c20fb0724bc4197921bdfa802202e8d89b97eb4d15a794d53407d11d6fb2910ebd5b5058d8d793c8573b71aee290121021f3dbf23af88b8e1dd4578ae99dc34e02dc53b2789e460ee1815c6bedb3d5bb10b490800", "vin": [{"txinwitness": ["304402202a46a95f7246fb1fa631ee2475101f57ae86364b7a1521d66b8348ce6f8f71a30220554643a5fdde310f007ebf542a39320610f9e0530d0e7c7c82a5af1b372654f901", "03782dae4e5b71e5010feee98d849c5e3c3bae8a4289a8c6fc20cc32b6cf3eab51"], "sequence": 4294967294, "scriptSig": {"hex": "16001434d7570e557d0fde376f88dcc3fa9c47a02eb681", "asm": "001434d7570e557d0fde376f88dcc3fa9c47a02eb681"}, "vout": 0, "txid": "1eca5a8cff608ca3d28000c1ad38c2f7fe8852c13dcab6fd32ed06c8bbf80b02"}, {"txinwitness": ["304402207e2b81e2bf09b2de30e1eec41ed69ab9fd5b5e657c20fb0724bc4197921bdfa802202e8d89b97eb4d15a794d53407d11d6fb2910ebd5b5058d8d793c8573b71aee2901", "021f3dbf23af88b8e1dd4578ae99dc34e02dc53b2789e460ee1815c6bedb3d5bb1"], "sequence": 4294967294, "scriptSig": {"hex": "160014e685135e7d0271e3af921652c5dcaa9117affeff", "asm": "0014e685135e7d0271e3af921652c5dcaa9117affeff"}, "vout": 0, "txid": "435fe8afe3465c2583a6a2859887606adce00a137166689c8c1344d6d42ad4cd"}], "txid": "5972d231533f39afaef858114ecfaef72130b1180d8b0207de95b76aaf78385a", "blocktime": 1537869901, "version": 2, "confirmations": 11524, "time": 1537869901, "locktime": 542987, "vsize": 258, "size": 420}