{"hash": "59726ccb35bdd95a4123f0c090cac9a42716da993912c5e1225a4b003ae62079", "blockhash": "0000000000000000000baef3f32e3676a92c3b2e5da21b426e4f302fc371ce76", "vout": [{"scriptPubKey": {"type": "nulldata", "hex": "6a4c50000078030001a99ec61c5201a28268bddf0c702940d64fa54d8eb2d19ed074892d00f8e815cbf327745e21a685d95b10283cbb475baa1a510613761282ee025fbc9a9526289ac0f6612cd74e33776ee4", "asm": "OP_RETURN 000078030001a99ec61c5201a28268bddf0c702940d64fa54d8eb2d19ed074892d00f8e815cbf327745e21a685d95b10283cbb475baa1a510613761282ee025fbc9a9526289ac0f6612cd74e33776ee4"}, "value": 0.0, "n": 0}, {"scriptPubKey": {"reqSigs": 1, "hex": "76a914cee8f7d13ecca59841ae24ee5ead50836828b67f88ac", "addresses": ["1Ks3HRMxdEcKfVU2tcKSixQxNqNFUYhWLx"], "asm": "OP_DUP OP_HASH160 cee8f7d13ecca59841ae24ee5ead50836828b67f OP_EQUALVERIFY OP_CHECKSIG", "type": "pubkeyhash"}, "value": 0.0146922, "n": 1}], "hex": "0100000001c1c5c2a52712f01e91ba77e94a2c564bc0f1d1544c9707365c8f166e244c0c85000000006b483045022100c4c311fd01dd97eaa1ea35eec1e1376ff0d64d6efcd03acc97f88c84a8e7371002200d1a70be2a93c116076c84769fdf120d3cbb60698790be4af5cb8e7b35a5c498012103185955b4a0c7e01390ab6be66c082ac433b1c8ea4c9bdb5ef4ec575174c0c4c2ffffffff020000000000000000536a4c50000078030001a99ec61c5201a28268bddf0c702940d64fa54d8eb2d19ed074892d00f8e815cbf327745e21a685d95b10283cbb475baa1a510613761282ee025fbc9a9526289ac0f6612cd74e33776ee4246b1600000000001976a914cee8f7d13ecca59841ae24ee5ead50836828b67f88ac00000000", "vin": [{"sequence": 4294967295, "scriptSig": {"hex": "483045022100c4c311fd01dd97eaa1ea35eec1e1376ff0d64d6efcd03acc97f88c84a8e7371002200d1a70be2a93c116076c84769fdf120d3cbb60698790be4af5cb8e7b35a5c498012103185955b4a0c7e01390ab6be66c082ac433b1c8ea4c9bdb5ef4ec575174c0c4c2", "asm": "3045022100c4c311fd01dd97eaa1ea35eec1e1376ff0d64d6efcd03acc97f88c84a8e7371002200d1a70be2a93c116076c84769fdf120d3cbb60698790be4af5cb8e7b35a5c498[ALL] 03185955b4a0c7e01390ab6be66c082ac433b1c8ea4c9bdb5ef4ec575174c0c4c2"}, "vout": 0, "txid": "850c4c246e168f5c3607974c54d1f1c04b562c4ae977ba911ef01227a5c2c5c1"}], "txid": "59726ccb35bdd95a4123f0c090cac9a42716da993912c5e1225a4b003ae62079", "blocktime": 1537876114, "version": 1, "confirmations": 11462, "time": 1537876114, "locktime": 0, "vsize": 284, "size": 284}