{"hash": "5974882e004c9c3f7045c6e73183dc974843c2bc313b3389ea3f72a9c738df9e", "blockhash": "00000000000000000018f53835495a110e01622372bf6ae95dc86f2b0ab887b0", "vout": [{"scriptPubKey": {"reqSigs": 1, "hex": "76a9140874dbff5631fec1ca612669b3ddd186ffacc7e788ac", "addresses": ["1miQ4ot533GSHJM76McFzE6DyBquY8YFa"], "asm": "OP_DUP OP_HASH160 0874dbff5631fec1ca612669b3ddd186ffacc7e7 OP_EQUALVERIFY OP_CHECKSIG", "type": "pubkeyhash"}, "value": 0.0154599, "n": 0}, {"scriptPubKey": {"reqSigs": 1, "hex": "76a914d5ba2eb2d52670fbe9522748bf642da754eb0d6f88ac", "addresses": ["1LV5y3NkVkmdWnF6xRCEXrAnUkRgge4KSq"], "asm": "OP_DUP OP_HASH160 d5ba2eb2d52670fbe9522748bf642da754eb0d6f OP_EQUALVERIFY OP_CHECKSIG", "type": "pubkeyhash"}, "value": 16.91075441, "n": 1}], "hex": "010000000104566ea0fdc5311ed10215dc0bcaf29d4115a9dcec9c4bb8f1f59c6d5bb46ae9010000006b483045022100f3e93ee557ccdc1b791170147b73680cd2c944e16077c89d17f44322ea51a7f5022024a36448d5b1ba8086c822b376418f319607d37d2a1edb3d248c11ab7e0caf51012102c19ebc0e7fe714e24c55adaeebc7dbab2dc9a208b511bd1b6e83db85506d4d19ffffffff0206971700000000001976a9140874dbff5631fec1ca612669b3ddd186ffacc7e788ac71c3cb64000000001976a914d5ba2eb2d52670fbe9522748bf642da754eb0d6f88ac00000000", "vin": [{"sequence": 4294967295, "scriptSig": {"hex": "483045022100f3e93ee557ccdc1b791170147b73680cd2c944e16077c89d17f44322ea51a7f5022024a36448d5b1ba8086c822b376418f319607d37d2a1edb3d248c11ab7e0caf51012102c19ebc0e7fe714e24c55adaeebc7dbab2dc9a208b511bd1b6e83db85506d4d19", "asm": "3045022100f3e93ee557ccdc1b791170147b73680cd2c944e16077c89d17f44322ea51a7f5022024a36448d5b1ba8086c822b376418f319607d37d2a1edb3d248c11ab7e0caf51[ALL] 02c19ebc0e7fe714e24c55adaeebc7dbab2dc9a208b511bd1b6e83db85506d4d19"}, "vout": 1, "txid": "e96ab45b6d9cf5f1b84b9cecdca915419df2ca0bdc1502d11e31c5fda06e5604"}], "txid": "5974882e004c9c3f7045c6e73183dc974843c2bc313b3389ea3f72a9c738df9e", "blocktime": 1537870928, "version": 1, "confirmations": 11514, "time": 1537870928, "locktime": 0, "vsize": 226, "size": 226}