{"hash": "b18a2653ab78ded91e6e471e55ae6cad500dd515e7c680d9b81a0bef444383fe", "blockhash": "000000000000000000022b45ed06c6f4ccd3cf7fb5ba4856ebd2e58215665228", "vout": [{"scriptPubKey": {"reqSigs": 1, "hex": "a914cfaabfe8c271f99a4364b5197ba50c6cddb7adb987", "addresses": ["3Ld4M9RPwEG3VeQbHcC1PsKUndQL7VYLZP"], "asm": "OP_HASH160 cfaabfe8c271f99a4364b5197ba50c6cddb7adb9 OP_EQUAL", "type": "scripthash"}, "value": 0.21462049, "n": 0}, {"scriptPubKey": {"reqSigs": 1, "hex": "a914edb728cee7b2d4007384abb34b30a0f77ee581a787", "addresses": ["3PMwV9SKWhiazv21UE8Aro69YFv5BusFiL"], "asm": "OP_HASH160 edb728cee7b2d4007384abb34b30a0f77ee581a7 OP_EQUAL", "type": "scripthash"}, "value": 0.15221416, "n": 1}], "hex": "0100000000010285933359a1d34c2bbae6bac394cda7cd8c771b6c68ec244ca7a92c030fa5c5fd0100000023220020896c1610d3041a8b742f7683612d6025e6b172c527a06246c3902d32c8006ba5ffffffff1e88e04c14b780e24f5e98168d9dccba7963614216591e71a3dd0038ac0ec3c701000000232200203075c4b0e0c2308536416f38b02874da8d7b7d03534463e32cea1686cee3163affffffff02217c47010000000017a914cfaabfe8c271f99a4364b5197ba50c6cddb7adb987a842e8000000000017a914edb728cee7b2d4007384abb34b30a0f77ee581a7870400483045022100da8108746d5c02a474b05a4877ab2c209e3670824950ce017816523d77289fc10220210782d21fdf54eceddeee0e837ff1abcc16910aad6bdca93c9f5668916fb54e014830450221009e3fe760696f113496994b8650f90b403683d473d0ca064202e2a41ff4bd527f02205c1b35b4cae20f2529d4166fda5cd8abb679c4fd325d2323d6e147976e1755dc014752210325b4e7a3a116994910c8a8badb713040217020c717ec83c32eb1a46747b7b61921033e4af03ed09dbd8a417ba042650d5bd1db7f14f271a8f660974e3abf1fdfa4da52ae0400473044022025b6f943a37d6946838d35494efa12fcc83b22d2acb48cede7f9773a7549079d02205c136bb3cdeac3e5eacdee7e57b7e04a15c3b52a83dd2ac3bda75627e8a2996a0147304402203cb5c1b424b6f17c86cee2bfb5aa329b752d540eac05456278e01a98c6c0755302202a165fcd5a6c93b9fd1aa640d37dbb15383bdc92a23617d11ee7ddf6489dc5a9014752210262c386d440fa950bd96ff8eaeb60ab72d5606963da5fbb732b4971b2228a261821033e4af03ed09dbd8a417ba042650d5bd1db7f14f271a8f660974e3abf1fdfa4da52ae00000000", "vin": [{"txinwitness": ["", "3045022100da8108746d5c02a474b05a4877ab2c209e3670824950ce017816523d77289fc10220210782d21fdf54eceddeee0e837ff1abcc16910aad6bdca93c9f5668916fb54e01", "30450221009e3fe760696f113496994b8650f90b403683d473d0ca064202e2a41ff4bd527f02205c1b35b4cae20f2529d4166fda5cd8abb679c4fd325d2323d6e147976e1755dc01", "52210325b4e7a3a116994910c8a8badb713040217020c717ec83c32eb1a46747b7b61921033e4af03ed09dbd8a417ba042650d5bd1db7f14f271a8f660974e3abf1fdfa4da52ae"], "sequence": 4294967295, "scriptSig": {"hex": "220020896c1610d3041a8b742f7683612d6025e6b172c527a06246c3902d32c8006ba5", "asm": "0020896c1610d3041a8b742f7683612d6025e6b172c527a06246c3902d32c8006ba5"}, "vout": 1, "txid": "fdc5a50f032ca9a74c24ec686c1b778ccda7cd94c3bae6ba2b4cd3a159339385"}, {"txinwitness": ["", "3044022025b6f943a37d6946838d35494efa12fcc83b22d2acb48cede7f9773a7549079d02205c136bb3cdeac3e5eacdee7e57b7e04a15c3b52a83dd2ac3bda75627e8a2996a01", "304402203cb5c1b424b6f17c86cee2bfb5aa329b752d540eac05456278e01a98c6c0755302202a165fcd5a6c93b9fd1aa640d37dbb15383bdc92a23617d11ee7ddf6489dc5a901", "52210262c386d440fa950bd96ff8eaeb60ab72d5606963da5fbb732b4971b2228a261821033e4af03ed09dbd8a417ba042650d5bd1db7f14f271a8f660974e3abf1fdfa4da52ae"], "sequence": 4294967295, "scriptSig": {"hex": "2200203075c4b0e0c2308536416f38b02874da8d7b7d03534463e32cea1686cee3163a", "asm": "00203075c4b0e0c2308536416f38b02874da8d7b7d03534463e32cea1686cee3163a"}, "vout": 1, "txid": "c7c30eac3800dda3711e591642616379bacc9d8d16985e4fe280b7144ce0881e"}], "txid": "597c39574210385b787c36dab078f3e10f3d8aec618013696f56324047be9ad2", "blocktime": 1537869901, "version": 1, "confirmations": 11524, "time": 1537869901, "locktime": 0, "vsize": 336, "size": 666}