{"hash": "597c3054bec65f2901810e977fc1f38ac92fa7566f57ae8724a297ecd79f2c95", "blockhash": "00000000000000000004ffacab907a6b429b9a5745fa0b75af4234bf69dd7176", "vout": [{"scriptPubKey": {"reqSigs": 1, "hex": "a91471814ab2355b4f80bb27b49bb7135e2222d82b4787", "addresses": ["3C3BAa5MMTyXGcwquFaL7KaqRomYJFErYY"], "asm": "OP_HASH160 71814ab2355b4f80bb27b49bb7135e2222d82b47 OP_EQUAL", "type": "scripthash"}, "value": 0.00156439, "n": 0}, {"scriptPubKey": {"reqSigs": 1, "hex": "76a914d2ed184a1c73669e3252cbf26a1c8c3c29b885e188ac", "addresses": ["1LEGvvgRRqTZNrgJoxXPP3nWZcCbYtJubj"], "asm": "OP_DUP OP_HASH160 d2ed184a1c73669e3252cbf26a1c8c3c29b885e1 OP_EQUALVERIFY OP_CHECKSIG", "type": "pubkeyhash"}, "value": 0.28220296, "n": 1}], "hex": "020000000104103e4994cff309a7fc26771ddf3bc06c5ff1a12947167befc3cdfe797b0605010000006a47304402202cf996e4306d3ce527dddd39a5ff4d957ab5ad56aba118492e9375437eb5d7a30220692350661ff60a9062225452f21814a640491fe2e5c9337f13f553b1ac0450d9012102d7f6ef95788231d1131282b62ee6e23d7663df32756dc18a03fbdb075c04cdd3ffffffff02176302000000000017a91471814ab2355b4f80bb27b49bb7135e2222d82b4787889bae01000000001976a914d2ed184a1c73669e3252cbf26a1c8c3c29b885e188ac00000000", "vin": [{"sequence": 4294967295, "scriptSig": {"hex": "47304402202cf996e4306d3ce527dddd39a5ff4d957ab5ad56aba118492e9375437eb5d7a30220692350661ff60a9062225452f21814a640491fe2e5c9337f13f553b1ac0450d9012102d7f6ef95788231d1131282b62ee6e23d7663df32756dc18a03fbdb075c04cdd3", "asm": "304402202cf996e4306d3ce527dddd39a5ff4d957ab5ad56aba118492e9375437eb5d7a30220692350661ff60a9062225452f21814a640491fe2e5c9337f13f553b1ac0450d9[ALL] 02d7f6ef95788231d1131282b62ee6e23d7663df32756dc18a03fbdb075c04cdd3"}, "vout": 1, "txid": "05067b79fecdc3ef7b164729a1f15f6cc03bdf1d7726fca709f3cf94493e1004"}], "txid": "597c3054bec65f2901810e977fc1f38ac92fa7566f57ae8724a297ecd79f2c95", "blocktime": 1537875543, "version": 2, "confirmations": 11464, "time": 1537875543, "locktime": 0, "vsize": 223, "size": 223}