{"hash": "5987c151c6f864ef83807d36ea048862263bf8b567d928f7439aea848b81c3e9", "blockhash": "0000000000000000001cda96e906b7601b7a6fb1a3b62bca570a9e5d8f4b3de1", "vout": [{"scriptPubKey": {"type": "nulldata", "hex": "6a2ee7426d6e942cc66e5d285263a93f21c82b6109eb5d8e5266fb2c0f0c4c94ecb12a41d31a44ab5a7e68db7a8b2b3b", "asm": "OP_RETURN e7426d6e942cc66e5d285263a93f21c82b6109eb5d8e5266fb2c0f0c4c94ecb12a41d31a44ab5a7e68db7a8b2b3b"}, "value": 0.0, "n": 0}, {"scriptPubKey": {"reqSigs": 1, "hex": "76a914b50c4ba04c950501fa25ce7c6871d0de00a6f35288ac", "addresses": ["1HWJ32FzUR6ocV25HcS9EhKt9kTqCkVEqC"], "asm": "OP_DUP OP_HASH160 b50c4ba04c950501fa25ce7c6871d0de00a6f352 OP_EQUALVERIFY OP_CHECKSIG", "type": "pubkeyhash"}, "value": 0.03839784, "n": 1}], "hex": "0100000001284b7429463981119f7487d57dcb820b23efb0b1603eeba45faa8b9a5d3362c6010000006b483045022100a543a7fa5668116ad7307d44e0e830002284bd4521546a5d4f0accddc03b679c022024aedb4f704a1215f9766da50c797fb69a9278d2e3bb45ed1f06a1824dbb4e1c012103f945e3755c477ef7c051c8812b501778524beea6a88cb4791e49e8585471a1a3ffffffff020000000000000000306a2ee7426d6e942cc66e5d285263a93f21c82b6109eb5d8e5266fb2c0f0c4c94ecb12a41d31a44ab5a7e68db7a8b2b3b28973a00000000001976a914b50c4ba04c950501fa25ce7c6871d0de00a6f35288ac00000000", "vin": [{"sequence": 4294967295, "scriptSig": {"hex": "483045022100a543a7fa5668116ad7307d44e0e830002284bd4521546a5d4f0accddc03b679c022024aedb4f704a1215f9766da50c797fb69a9278d2e3bb45ed1f06a1824dbb4e1c012103f945e3755c477ef7c051c8812b501778524beea6a88cb4791e49e8585471a1a3", "asm": "3045022100a543a7fa5668116ad7307d44e0e830002284bd4521546a5d4f0accddc03b679c022024aedb4f704a1215f9766da50c797fb69a9278d2e3bb45ed1f06a1824dbb4e1c[ALL] 03f945e3755c477ef7c051c8812b501778524beea6a88cb4791e49e8585471a1a3"}, "vout": 1, "txid": "c662335d9a8baa5fa4eb3e60b1b0ef230b82cb7dd587749f1181394629744b28"}], "txid": "5987c151c6f864ef83807d36ea048862263bf8b567d928f7439aea848b81c3e9", "blocktime": 1537873282, "version": 1, "confirmations": 11484, "time": 1537873282, "locktime": 0, "vsize": 249, "size": 249}