{"hash": "598b91fe93f38a106f8379ec9e3875824f9de9245544ce6f60b44f102702d5b5", "blockhash": "0000000000000000000baef3f32e3676a92c3b2e5da21b426e4f302fc371ce76", "vout": [{"scriptPubKey": {"reqSigs": 1, "hex": "a914ad444ea7138b6544c75d97fbb2422553cf86f7cd87", "addresses": ["3HVAeoNvxG215H5CwNimbDBhQpkcye31nD"], "asm": "OP_HASH160 ad444ea7138b6544c75d97fbb2422553cf86f7cd OP_EQUAL", "type": "scripthash"}, "value": 0.03359333, "n": 0}, {"scriptPubKey": {"reqSigs": 1, "hex": "76a9140a907e4ae29cd72753ffdf594c2ec23f9cf2f96588ac", "addresses": ["1xrrVUMMExFv91rF6fH9qhNqJR4oB7Ezm"], "asm": "OP_DUP OP_HASH160 0a907e4ae29cd72753ffdf594c2ec23f9cf2f965 OP_EQUALVERIFY OP_CHECKSIG", "type": "pubkeyhash"}, "value": 0.2224084, "n": 1}], "hex": "0100000001010d3e1ce14894329284f165e9c237ae61655622861b7d4dbe7665a831359569010000006a47304402202aa8aff130c63f53a8b1e023b664d4ff9cdd8bcccf499aa306b542be071a40cf02201eef73530d60ba8e0e75aaa81f80cdeb5c8d83781a5b5baab765d5e712457474012102999abc9647289395bb99a7d0e3e65660f2ec7cb3858ec9f63c75b18140f9fd90ffffffff02654233000000000017a914ad444ea7138b6544c75d97fbb2422553cf86f7cd87485e5301000000001976a9140a907e4ae29cd72753ffdf594c2ec23f9cf2f96588ac00000000", "vin": [{"sequence": 4294967295, "scriptSig": {"hex": "47304402202aa8aff130c63f53a8b1e023b664d4ff9cdd8bcccf499aa306b542be071a40cf02201eef73530d60ba8e0e75aaa81f80cdeb5c8d83781a5b5baab765d5e712457474012102999abc9647289395bb99a7d0e3e65660f2ec7cb3858ec9f63c75b18140f9fd90", "asm": "304402202aa8aff130c63f53a8b1e023b664d4ff9cdd8bcccf499aa306b542be071a40cf02201eef73530d60ba8e0e75aaa81f80cdeb5c8d83781a5b5baab765d5e712457474[ALL] 02999abc9647289395bb99a7d0e3e65660f2ec7cb3858ec9f63c75b18140f9fd90"}, "vout": 1, "txid": "69953531a86576be4d7d1b8622566561ae37c2e965f18492329448e11c3e0d01"}], "txid": "598b91fe93f38a106f8379ec9e3875824f9de9245544ce6f60b44f102702d5b5", "blocktime": 1537876114, "version": 1, "confirmations": 11460, "time": 1537876114, "locktime": 0, "vsize": 223, "size": 223}