{"hash": "76de73ffd7e648e8eb866e566f7f309b05006dbe2bad7af95b517ebfc0e21f6b", "blockhash": "0000000000000000000e13cef7c366c0283d82e591d1acd082e914b08063cdf1", "vout": [{"scriptPubKey": {"reqSigs": 1, "hex": "76a91436435b475cd214a7ffdded037ae36b713fcbe41088ac", "addresses": ["15wvBNisLWmVRZXCEZX4jM4yrNMzg7r9eR"], "asm": "OP_DUP OP_HASH160 36435b475cd214a7ffdded037ae36b713fcbe410 OP_EQUALVERIFY OP_CHECKSIG", "type": "pubkeyhash"}, "value": 0.00303457, "n": 0}, {"scriptPubKey": {"reqSigs": 1, "hex": "a914879b0f63911edd120c78b14b644d8ceb12a69cf987", "addresses": ["3E42uCvYoQbTuj1Tm9dcwaqxyUDJgYTShE"], "asm": "OP_HASH160 879b0f63911edd120c78b14b644d8ceb12a69cf9 OP_EQUAL", "type": "scripthash"}, "value": 0.13857783, "n": 1}], "hex": "01000000000101be9b2366968fd6a9e2177753a4e3323100d48aa7500c0ae7acba5cbd1a5299ba00000000232200203b9994cc18b1d1022107898d026af18c4ce75d2c65ba687cf7d304d87a661844ffffffff0261a10400000000001976a91436435b475cd214a7ffdded037ae36b713fcbe41088acf773d3000000000017a914879b0f63911edd120c78b14b644d8ceb12a69cf98704004830450221008610dd22fde71c334fc569c46576ae746e8d22250d79c1091bbc0e9a8bc7c3ec0220204a77eaac60ae6cbf2c908d86448f9daa2a7c3fbf4e57bc84fea98271bc0dff01473044022005ab508715bad272deaee97f343b5f7ee464eab1c3214e39393d0dbdf01158d502204a4ce0bba76299675ed78e3e39360137e887cbec2dc641401b0577a8b078def1016952210253202b1b1d17d69fb2c314314567ddd458a587013fef4eb9ec791883847443fb21026b126972185de69ed210a79161dd77403b4f5a935ff28ca7312c620bc3c98f432102ea8c58550f0dbb5fc362a5d5117d47acbcdf55222b62407d2d1810fdcb83f52653ae00000000", "vin": [{"txinwitness": ["", "30450221008610dd22fde71c334fc569c46576ae746e8d22250d79c1091bbc0e9a8bc7c3ec0220204a77eaac60ae6cbf2c908d86448f9daa2a7c3fbf4e57bc84fea98271bc0dff01", "3044022005ab508715bad272deaee97f343b5f7ee464eab1c3214e39393d0dbdf01158d502204a4ce0bba76299675ed78e3e39360137e887cbec2dc641401b0577a8b078def101", "52210253202b1b1d17d69fb2c314314567ddd458a587013fef4eb9ec791883847443fb21026b126972185de69ed210a79161dd77403b4f5a935ff28ca7312c620bc3c98f432102ea8c58550f0dbb5fc362a5d5117d47acbcdf55222b62407d2d1810fdcb83f52653ae"], "sequence": 4294967295, "scriptSig": {"hex": "2200203b9994cc18b1d1022107898d026af18c4ce75d2c65ba687cf7d304d87a661844", "asm": "00203b9994cc18b1d1022107898d026af18c4ce75d2c65ba687cf7d304d87a661844"}, "vout": 0, "txid": "ba99521abd5cbaace70a0c50a78ad4003132e3a4537717e2a9d68f9666239bbe"}], "txid": "598d33fef80eb00200e58458021cf0499d8cf785dcb9e8ba2501ef4b53eb1a9e", "blocktime": 1537871767, "version": 1, "confirmations": 11495, "time": 1537871767, "locktime": 0, "vsize": 216, "size": 407}