{"hash": "59968bc58c0b79609e6969d6f22b878ade8e1e2ed734b847187ac1ae02d5dcc5", "blockhash": "00000000000000000017f5eb5941039fbcee6240d03bc1f2f8e35350df66a1d8", "vout": [{"scriptPubKey": {"reqSigs": 1, "hex": "a914e824b495d130e800c093f64c9fb8f75cf1f029bd87", "addresses": ["3NrUfPHfMKLs7YAUsQiK4XkUrNkdVeisvV"], "asm": "OP_HASH160 e824b495d130e800c093f64c9fb8f75cf1f029bd OP_EQUAL", "type": "scripthash"}, "value": 0.00293542, "n": 0}, {"scriptPubKey": {"reqSigs": 1, "hex": "76a914cba62c5cd7d09934367c03fd8a66f2e3c2278cf288ac", "addresses": ["1KZoEs8VAk6v8mKJJS8ymS3DPjrGdg3ed5"], "asm": "OP_DUP OP_HASH160 cba62c5cd7d09934367c03fd8a66f2e3c2278cf2 OP_EQUALVERIFY OP_CHECKSIG", "type": "pubkeyhash"}, "value": 0.02686445, "n": 1}], "hex": "0100000001410b327f6f6b1a27e9015a50cada14d8078ec67a7ddc2c2d2c24ec67914d89ad010000006b483045022100f68a08b08d42efd1209de8f76b4f8a0701bb3533cd775d855018a5d89884625502207248d1619665eadff13cee4a57d0055e055de7c822e5ce140492a5be0cb36ed20121022ef9ef5ccf3d9fc43e837a8c3fb6b41f06031d2e2e14a1e7b443e1f1ebb44280ffffffff02a67a04000000000017a914e824b495d130e800c093f64c9fb8f75cf1f029bd87edfd2800000000001976a914cba62c5cd7d09934367c03fd8a66f2e3c2278cf288ac00000000", "vin": [{"sequence": 4294967295, "scriptSig": {"hex": "483045022100f68a08b08d42efd1209de8f76b4f8a0701bb3533cd775d855018a5d89884625502207248d1619665eadff13cee4a57d0055e055de7c822e5ce140492a5be0cb36ed20121022ef9ef5ccf3d9fc43e837a8c3fb6b41f06031d2e2e14a1e7b443e1f1ebb44280", "asm": "3045022100f68a08b08d42efd1209de8f76b4f8a0701bb3533cd775d855018a5d89884625502207248d1619665eadff13cee4a57d0055e055de7c822e5ce140492a5be0cb36ed2[ALL] 022ef9ef5ccf3d9fc43e837a8c3fb6b41f06031d2e2e14a1e7b443e1f1ebb44280"}, "vout": 1, "txid": "ad894d9167ec242c2d2cdc7d7ac68e07d814daca505a01e9271a6b6f7f320b41"}], "txid": "59968bc58c0b79609e6969d6f22b878ade8e1e2ed734b847187ac1ae02d5dcc5", "blocktime": 1537874412, "version": 1, "confirmations": 11468, "time": 1537874412, "locktime": 0, "vsize": 224, "size": 224}