{"hash": "5997eb87a8683f9f4365a44f76140a15065aea5955ade456f73fd74906c423e1", "blockhash": "0000000000000000001f76057863aec43deb6fa401d9628bb513d65a8098bfab", "vout": [{"scriptPubKey": {"reqSigs": 1, "hex": "76a914025576b2f9e305a773a833bbd348ca208676bf8c88ac", "addresses": ["1DLjWCbfgn4yq5LyZJ4FGjyp2E4ucWWxD"], "asm": "OP_DUP OP_HASH160 025576b2f9e305a773a833bbd348ca208676bf8c OP_EQUALVERIFY OP_CHECKSIG", "type": "pubkeyhash"}, "value": 8.909e-05, "n": 0}, {"scriptPubKey": {"reqSigs": 1, "hex": "76a9140e18160b22fd5dae726537bbd10e8d990c277a4d88ac", "addresses": ["12HXKDdNguarBdmYTVYCDLw5PZhtvDAxwU"], "asm": "OP_DUP OP_HASH160 0e18160b22fd5dae726537bbd10e8d990c277a4d OP_EQUALVERIFY OP_CHECKSIG", "type": "pubkeyhash"}, "value": 0.051231, "n": 1}], "hex": "0100000002abc155f44e1bb8369d96963a1b9bc146c4365f6a75743d3dca8b331083ffd4b8020000006b483045022100b15007a2c2a5ce613e952f26b12d1a9f66ad05f67881ce48e9929dba9451e6af0220151eff8b3f77629e1f600d235c41df610b0e2b8b8e05b6ee3cb2ecec1c8d809b01210220dce8586f9424581b592b88d793c88ff614d29f74b1202203bdd149676c0737ffffffffba4bcd1e8039386eef0a328c16da9d41d20551872e4868d8cc2fe6f9e71022f3000000006b483045022100e45328f23f652e092cd2299abc3f28083214aeb71156784a44b28c18d1171c640220167bd60b532aed8aaea8079795ed97fa663ed7a0ec6b5f03d4aeec52abf06357012103b5afe318f82aa4f28a80ed9b03dbae9624a367025934cab563cb1dbc3f62e5e8ffffffff02cd220000000000001976a914025576b2f9e305a773a833bbd348ca208676bf8c88ac1c2c4e00000000001976a9140e18160b22fd5dae726537bbd10e8d990c277a4d88ac00000000", "vin": [{"sequence": 4294967295, "scriptSig": {"hex": "483045022100b15007a2c2a5ce613e952f26b12d1a9f66ad05f67881ce48e9929dba9451e6af0220151eff8b3f77629e1f600d235c41df610b0e2b8b8e05b6ee3cb2ecec1c8d809b01210220dce8586f9424581b592b88d793c88ff614d29f74b1202203bdd149676c0737", "asm": "3045022100b15007a2c2a5ce613e952f26b12d1a9f66ad05f67881ce48e9929dba9451e6af0220151eff8b3f77629e1f600d235c41df610b0e2b8b8e05b6ee3cb2ecec1c8d809b[ALL] 0220dce8586f9424581b592b88d793c88ff614d29f74b1202203bdd149676c0737"}, "vout": 2, "txid": "b8d4ff8310338bca3d3d74756a5f36c446c19b1b3a96969d36b81b4ef455c1ab"}, {"sequence": 4294967295, "scriptSig": {"hex": "483045022100e45328f23f652e092cd2299abc3f28083214aeb71156784a44b28c18d1171c640220167bd60b532aed8aaea8079795ed97fa663ed7a0ec6b5f03d4aeec52abf06357012103b5afe318f82aa4f28a80ed9b03dbae9624a367025934cab563cb1dbc3f62e5e8", "asm": "3045022100e45328f23f652e092cd2299abc3f28083214aeb71156784a44b28c18d1171c640220167bd60b532aed8aaea8079795ed97fa663ed7a0ec6b5f03d4aeec52abf06357[ALL] 03b5afe318f82aa4f28a80ed9b03dbae9624a367025934cab563cb1dbc3f62e5e8"}, "vout": 0, "txid": "f32210e7f9e62fccd868482e875105d2419dda168c320aef6e3839801ecd4bba"}], "txid": "5997eb87a8683f9f4365a44f76140a15065aea5955ade456f73fd74906c423e1", "blocktime": 1537873891, "version": 1, "confirmations": 11478, "time": 1537873891, "locktime": 0, "vsize": 374, "size": 374}