{"hash": "eecfd17e6b3b5f86b066959e991887c022b555809e879bb0f93154a82a723ae7", "blockhash": "0000000000000000000e13cef7c366c0283d82e591d1acd082e914b08063cdf1", "vout": [{"scriptPubKey": {"reqSigs": 1, "hex": "a91449d7e96499e76d96ef877a2fcb98823c8bccba2187", "addresses": ["38RTuMXR3rjgmqC2TwiJHrCLzc9nbGoNw7"], "asm": "OP_HASH160 49d7e96499e76d96ef877a2fcb98823c8bccba21 OP_EQUAL", "type": "scripthash"}, "value": 1.235e-05, "n": 0}], "hex": "01000000000101f72f007c0e000c04464c1fae2138029a1dd680f64644ca4808638ddeaa9337dc00000000171600149bd40f2c098e71e8c9bba8d6fc0f7816ef174e92ffffffff01d30400000000000017a91449d7e96499e76d96ef877a2fcb98823c8bccba218702473044022045d748d13e7fdd45998873bca9b2f158b0b3a96c9eb755d57d476c1754be681002204edc8ae109a476cc7fd5a98b9b7cc22d240f47ff36dd4aecea4e822f00968ba8012103d6b971332ac42a95f71b2f144e9065c39f34dea62dbc8e0605c99a85797775cc00000000", "vin": [{"txinwitness": ["3044022045d748d13e7fdd45998873bca9b2f158b0b3a96c9eb755d57d476c1754be681002204edc8ae109a476cc7fd5a98b9b7cc22d240f47ff36dd4aecea4e822f00968ba801", "03d6b971332ac42a95f71b2f144e9065c39f34dea62dbc8e0605c99a85797775cc"], "sequence": 4294967295, "scriptSig": {"hex": "1600149bd40f2c098e71e8c9bba8d6fc0f7816ef174e92", "asm": "00149bd40f2c098e71e8c9bba8d6fc0f7816ef174e92"}, "vout": 0, "txid": "dc3793aade8d630848ca4446f680d61d9a023821ae1f4c46040c000e7c002ff7"}], "txid": "599da0c81d276dfa1a45f1393ff4c2b6b9e1f908b5e3445ace2c66801f98a127", "blocktime": 1537871767, "version": 1, "confirmations": 11495, "time": 1537871767, "locktime": 0, "vsize": 134, "size": 215}