{"hash": "599ff23658a88ac68b139d3cd4bd34ae9f8c08d5907a3f2c08d33b6617456e15", "blockhash": "0000000000000000000baef3f32e3676a92c3b2e5da21b426e4f302fc371ce76", "vout": [{"scriptPubKey": {"reqSigs": 1, "hex": "76a9146976102c80285feb71173313b90e9de3c2b3b2fc88ac", "addresses": ["1AcdPKJxkFCN7K6j1xKaRGssUMjdRUkbxM"], "asm": "OP_DUP OP_HASH160 6976102c80285feb71173313b90e9de3c2b3b2fc OP_EQUALVERIFY OP_CHECKSIG", "type": "pubkeyhash"}, "value": 4.57432372, "n": 0}], "hex": "0100000013b551bb8abdf47b3954154e13be427fa93b46cdfe1d82eda1406eecaf30e2f932000000006a47304402202134b1a8478143e8f80d69a7357fd9aa044292c164e720bcf60bd2965adfb39302204cd3c1040ce7e2b59bb3794a78bf7524784e12b8e3751f3830deb860ba83f69d012103d5c4603769cf5cd47f926bf5f19458214e27b824dd783fd2af5659c400f9f0d2ffffffff13b62c014a508ada942d852e124201b1cc0a98cf1c8b87f332ba58b018b6c833000000006a473044022031831741ab29ffc2166af81bdc3b1fdd665e3a3867c9c56899aa2f667a35d3980220353c9677e662a2701895ea2b252b317bc8a82ec0bcb6cffda251fd04bd30b2ff0121038273884eb8c564488d86dea6dbed016d521e85354105df8e4ab7baf4fff67f85ffffffff41e1f1670b741c16b92d8a50d32c9cb4be0299a79b3298115fd7c91c9021c834440000006b483045022100e9eede146b2b23d2395a5c07a74d1c0e089c51ef64d7a9880ca30186bcab9b1802200124eb846b369c4e9c898c504578b89780eeac8cdc6227eeac2dcc18f15b672f01210349585bcf55013a7613f7d21cbc625a2538311cf067d835d5ee540ea3be9fd94bfffffffff9bc82fbcfff9a53e8965eecda7bc2f92ba732c9f5fb235537541b31da5efd36010000006a47304402204fda8e244a3b913e6cfff532b2faf2a00b34512786baca78ad739a718548618a0220529396b4d746b8ef594c09fe6d8160c0157580c7beae0cb24390819bc3e22ae5012103ca8fc8f8274cd87135f083db42ba7abc9f888c6b4eb1b3db3a297a69afce583dffffffffae4e249d500298b937b5df84a82ee910b4f5b24c1af0574f91a99ba35d6afe3b000000006b483045022100f34803d83ff93189ef4412deb53fa8dd2e44779c28172142b89884138c904c8f0220602ef32b352127a3bf3a1fe5966f147c08cd73ab0a4ce1ecdd41577ca3815179012103abf9d29277335374d0acc927603657d16f4c207162c5464f3521be111f464494ffffffff69ae32157f46cf2c91d41a431f53cce2dc32fa82ff3bd2aa2187aab6951ff565010000006a47304402206f4164c499543ca62fcb4cbdcfe6f46d653bc4f816e96ffde7f70b270848efc5022075840b1b91a26b95d69d0b13aaca06bf4fd6051d722237f2836a7706b02b45700121023021c50257fb8a17303b6e1257823ee4d41479569651981862fdd9c8e8bb3c38ffffffffcd0c8394d40d6ca98ced050dd05ff07821533ee7864f51b774b7163b54ae2b6a0d0000006a473044022063741f2b2910ba3fe93c30328398b89974a5312d291e3c36673b56a7b7288eca022003eb1b8d3338150fc0ef3f242acba32d445cda0acd67b6a60eb47948736a48f8012103e656fe4ff58001b692664484ae7b88d255fa6624ed455855fc6076c76d7eba24ffffffffc0db86618a427e400b2ae201f48eeb2ba74426b527ab6930f9793c08e044fd6c010000006b483045022100e04352d8602f221df388475c0f383a4bac92edfcdcc251ef3cf41ca251404d9e02203a444ac2fe73a266ffb0f191b4cf3e3c606d7648919f515dab88aed2969be6eb012103b1525ea04769acdd98684333b7cfd15d1f5f80828c763f80551634275a732fc8ffffffffcf463c97a0f0864d8c9f47c3f2ea9216dc9a5389d7ed079341edc859014d916f010000006b483045022100f9eff8c3b9a3f18c510fa218e517ae1e2c09c8f0b1afd8292043c43259d11054022068d6faded99c240ef961dd606e054394789e1f9c3a378fc4374db75dc839a31a012102ac5c46dbc5085d981e11ffcbe15d28fbbd0945ec320a69847279eba3b55e2eadfffffffff10c7e1f6f8e8f02b2d0097c78a2993d11ecfd73a12a6ed7a48d4bcfd2954d73010000006a47304402203a3985a4727c0109dd81d75a6dce18815cc369fffb36302a2da64cf7a2b3ff9602207ce72c7fd75d110e9ead32c86bc33705ee2374591b6cdc55c08be9c9a70b91fe012103b1525ea04769acdd98684333b7cfd15d1f5f80828c763f80551634275a732fc8fffffffffd62514bd5c4f41a7393972e40c1e936e191798c0fa4970c383f8def1235f178010000006b483045022100fca8adfc0a172bdc86a8e18bb45d8b155930fbb7ffec1de394df8f4aa4755bd302205ba2b3e6ee9504e6b67314d30472d4986f9c8cb99439cf13e2f567d1f905d93d012102d57949c9bb9dc9e5941c77c4f38ab8bb645331e6bffb35445690c6992f95452cffffffff87529fec7ea027f871c87663ecdef74a3899926dbb9f7278097d7be2fd03837e870000006b483045022100db2f21fe3cfab71e908af30a83df084033d12a8e4c90e0ad6b11a8b6c2b2906f02205021bec936d2be1e9925374f795aff550700e8f4e7ceb95150f7287c4b28a6330121035068fbebf8a486d6b954fc0f01a96e98dd8c83ad58ff894c05866a05f4de2eedffffffffdd5c869175bfbb14aafc2cb2177f88e16ae55b649e86c4796a1b8a124217f389000000006b4830450221008267cb08fcb5a0569d678678e0e9ed447f2ea26e9192d67d71504f60ceade81402206b2e8f0ebd63bf223e1fbfdb3eb11ad50cfc86a76e79813c09852fa4f22967f1012103b1525ea04769acdd98684333b7cfd15d1f5f80828c763f80551634275a732fc8ffffffff2c670d54bcec941dc472fa64970f65b176317deb3d8732c7393da88df97b01ae000000006a473044022064033a5428d6604ca9fd9dfd793dd7bcd3359cafc0a1dead0d8742a2f0cc6b97022010b48db1232264e077cf366f8fea0240acdea357af60fdf61563326d50c161680121038273884eb8c564488d86dea6dbed016d521e85354105df8e4ab7baf4fff67f85ffffffffcbbd0c0a1b5e28333f18c2a751edf5f6254307eff1ae9d8b08e05d47428ae5af000000006b483045022100d9dc490dc296c4eef17e82a34703f3eb3736e2c021582a559df250353abe3fcd022042f094cdcdfcdf844a179c9e84f2338acda246722127d0b2da3203601ece55f3012103b1525ea04769acdd98684333b7cfd15d1f5f80828c763f80551634275a732fc8ffffffff1e5524ee8b119733d60f339ba9eb43cf979aca61317484fb3a162dea57102bb4010000006a4730440220281980fddc16c72b183b46170dacb207a8d3a8d0eeb9114ea5f2c5e4c05c562402204eba0427769cb26e306983811d279af8e24575bc2db4e7cdffeb1e8704eaae700121028dcef013b1983546035c186ae2fceb5eb7ed85bfbabbc3ed3d08f19aa7bcc02affffffff3a83a24b77de12123ca886d628f379e256e193bec8f7f2d897d4b14e17edcdbd000000006b483045022100db32d26cf501387723969638c52786503c30c11ee274486247071fcc1d9ccdd80220636e20b212d9e7301f86153832267552e37254ce50bdf8d6fed851774b7ed5ad012103ad82a4d92c5f7d973e79018c2a15c8b42d78848976c291d7ecb35af33ba65be5ffffffff761cd82d37ac42398a1621976b792c09e376e5dbee7c27c3a516bb899e808ac61a0000006b483045022100953c06f70ea14654c152c8203ef81c2157212f796bbed878ca24a7934c2ad79802204deb16271ab803310e1856dc97eb039e1cd2ce1c66654cc54e8ee0a10c97e0f2012103f8a35b5b7ebaa1a3f12a09ed6bf8b4b8536ace2e076ca8f975928a1345dbcd0cffffffffc24e4618c470bb998595691347a73047dd484d0110588bf88e94e2cdac8882c7000000006b483045022100c4c32fd5a87c332d052aaac6970917a5068344485c206737adf17b22a71f035502206b83b8e06854d8e67bda9c238477c623efe6757d2184effa39da6080b7c91159012103b1525ea04769acdd98684333b7cfd15d1f5f80828c763f80551634275a732fc8ffffffff0134dd431b000000001976a9146976102c80285feb71173313b90e9de3c2b3b2fc88ac00000000", "vin": [{"sequence": 4294967295, "scriptSig": {"hex": "47304402202134b1a8478143e8f80d69a7357fd9aa044292c164e720bcf60bd2965adfb39302204cd3c1040ce7e2b59bb3794a78bf7524784e12b8e3751f3830deb860ba83f69d012103d5c4603769cf5cd47f926bf5f19458214e27b824dd783fd2af5659c400f9f0d2", "asm": "304402202134b1a8478143e8f80d69a7357fd9aa044292c164e720bcf60bd2965adfb39302204cd3c1040ce7e2b59bb3794a78bf7524784e12b8e3751f3830deb860ba83f69d[ALL] 03d5c4603769cf5cd47f926bf5f19458214e27b824dd783fd2af5659c400f9f0d2"}, "vout": 0, "txid": "32f9e230afec6e40a1ed821dfecd463ba97f42be134e1554397bf4bd8abb51b5"}, {"sequence": 4294967295, "scriptSig": {"hex": "473044022031831741ab29ffc2166af81bdc3b1fdd665e3a3867c9c56899aa2f667a35d3980220353c9677e662a2701895ea2b252b317bc8a82ec0bcb6cffda251fd04bd30b2ff0121038273884eb8c564488d86dea6dbed016d521e85354105df8e4ab7baf4fff67f85", "asm": "3044022031831741ab29ffc2166af81bdc3b1fdd665e3a3867c9c56899aa2f667a35d3980220353c9677e662a2701895ea2b252b317bc8a82ec0bcb6cffda251fd04bd30b2ff[ALL] 038273884eb8c564488d86dea6dbed016d521e85354105df8e4ab7baf4fff67f85"}, "vout": 0, "txid": "33c8b618b058ba32f3878b1ccf980accb10142122e852d94da8a504a012cb613"}, {"sequence": 4294967295, "scriptSig": {"hex": "483045022100e9eede146b2b23d2395a5c07a74d1c0e089c51ef64d7a9880ca30186bcab9b1802200124eb846b369c4e9c898c504578b89780eeac8cdc6227eeac2dcc18f15b672f01210349585bcf55013a7613f7d21cbc625a2538311cf067d835d5ee540ea3be9fd94b", "asm": "3045022100e9eede146b2b23d2395a5c07a74d1c0e089c51ef64d7a9880ca30186bcab9b1802200124eb846b369c4e9c898c504578b89780eeac8cdc6227eeac2dcc18f15b672f[ALL] 0349585bcf55013a7613f7d21cbc625a2538311cf067d835d5ee540ea3be9fd94b"}, "vout": 68, "txid": "34c821901cc9d75f1198329ba79902beb49c2cd3508a2db9161c740b67f1e141"}, {"sequence": 4294967295, "scriptSig": {"hex": "47304402204fda8e244a3b913e6cfff532b2faf2a00b34512786baca78ad739a718548618a0220529396b4d746b8ef594c09fe6d8160c0157580c7beae0cb24390819bc3e22ae5012103ca8fc8f8274cd87135f083db42ba7abc9f888c6b4eb1b3db3a297a69afce583d", "asm": "304402204fda8e244a3b913e6cfff532b2faf2a00b34512786baca78ad739a718548618a0220529396b4d746b8ef594c09fe6d8160c0157580c7beae0cb24390819bc3e22ae5[ALL] 03ca8fc8f8274cd87135f083db42ba7abc9f888c6b4eb1b3db3a297a69afce583d"}, "vout": 1, "txid": "36fd5eda311b54375523fbf5c932a72bf9c27bdaec5e96e8539affcffb82bcf9"}, {"sequence": 4294967295, "scriptSig": {"hex": "483045022100f34803d83ff93189ef4412deb53fa8dd2e44779c28172142b89884138c904c8f0220602ef32b352127a3bf3a1fe5966f147c08cd73ab0a4ce1ecdd41577ca3815179012103abf9d29277335374d0acc927603657d16f4c207162c5464f3521be111f464494", "asm": "3045022100f34803d83ff93189ef4412deb53fa8dd2e44779c28172142b89884138c904c8f0220602ef32b352127a3bf3a1fe5966f147c08cd73ab0a4ce1ecdd41577ca3815179[ALL] 03abf9d29277335374d0acc927603657d16f4c207162c5464f3521be111f464494"}, "vout": 0, "txid": "3bfe6a5da39ba9914f57f01a4cb2f5b410e92ea884dfb537b99802509d244eae"}, {"sequence": 4294967295, "scriptSig": {"hex": "47304402206f4164c499543ca62fcb4cbdcfe6f46d653bc4f816e96ffde7f70b270848efc5022075840b1b91a26b95d69d0b13aaca06bf4fd6051d722237f2836a7706b02b45700121023021c50257fb8a17303b6e1257823ee4d41479569651981862fdd9c8e8bb3c38", "asm": "304402206f4164c499543ca62fcb4cbdcfe6f46d653bc4f816e96ffde7f70b270848efc5022075840b1b91a26b95d69d0b13aaca06bf4fd6051d722237f2836a7706b02b4570[ALL] 023021c50257fb8a17303b6e1257823ee4d41479569651981862fdd9c8e8bb3c38"}, "vout": 1, "txid": "65f51f95b6aa8721aad23bff82fa32dce2cc531f431ad4912ccf467f1532ae69"}, {"sequence": 4294967295, "scriptSig": {"hex": "473044022063741f2b2910ba3fe93c30328398b89974a5312d291e3c36673b56a7b7288eca022003eb1b8d3338150fc0ef3f242acba32d445cda0acd67b6a60eb47948736a48f8012103e656fe4ff58001b692664484ae7b88d255fa6624ed455855fc6076c76d7eba24", "asm": "3044022063741f2b2910ba3fe93c30328398b89974a5312d291e3c36673b56a7b7288eca022003eb1b8d3338150fc0ef3f242acba32d445cda0acd67b6a60eb47948736a48f8[ALL] 03e656fe4ff58001b692664484ae7b88d255fa6624ed455855fc6076c76d7eba24"}, "vout": 13, "txid": "6a2bae543b16b774b7514f86e73e532178f05fd00d05ed8ca96c0dd494830ccd"}, {"sequence": 4294967295, "scriptSig": {"hex": "483045022100e04352d8602f221df388475c0f383a4bac92edfcdcc251ef3cf41ca251404d9e02203a444ac2fe73a266ffb0f191b4cf3e3c606d7648919f515dab88aed2969be6eb012103b1525ea04769acdd98684333b7cfd15d1f5f80828c763f80551634275a732fc8", "asm": "3045022100e04352d8602f221df388475c0f383a4bac92edfcdcc251ef3cf41ca251404d9e02203a444ac2fe73a266ffb0f191b4cf3e3c606d7648919f515dab88aed2969be6eb[ALL] 03b1525ea04769acdd98684333b7cfd15d1f5f80828c763f80551634275a732fc8"}, "vout": 1, "txid": "6cfd44e0083c79f93069ab27b52644a72beb8ef401e22a0b407e428a6186dbc0"}, {"sequence": 4294967295, "scriptSig": {"hex": "483045022100f9eff8c3b9a3f18c510fa218e517ae1e2c09c8f0b1afd8292043c43259d11054022068d6faded99c240ef961dd606e054394789e1f9c3a378fc4374db75dc839a31a012102ac5c46dbc5085d981e11ffcbe15d28fbbd0945ec320a69847279eba3b55e2ead", "asm": "3045022100f9eff8c3b9a3f18c510fa218e517ae1e2c09c8f0b1afd8292043c43259d11054022068d6faded99c240ef961dd606e054394789e1f9c3a378fc4374db75dc839a31a[ALL] 02ac5c46dbc5085d981e11ffcbe15d28fbbd0945ec320a69847279eba3b55e2ead"}, "vout": 1, "txid": "6f914d0159c8ed419307edd789539adc1692eaf2c3479f8c4d86f0a0973c46cf"}, {"sequence": 4294967295, "scriptSig": {"hex": "47304402203a3985a4727c0109dd81d75a6dce18815cc369fffb36302a2da64cf7a2b3ff9602207ce72c7fd75d110e9ead32c86bc33705ee2374591b6cdc55c08be9c9a70b91fe012103b1525ea04769acdd98684333b7cfd15d1f5f80828c763f80551634275a732fc8", "asm": "304402203a3985a4727c0109dd81d75a6dce18815cc369fffb36302a2da64cf7a2b3ff9602207ce72c7fd75d110e9ead32c86bc33705ee2374591b6cdc55c08be9c9a70b91fe[ALL] 03b1525ea04769acdd98684333b7cfd15d1f5f80828c763f80551634275a732fc8"}, "vout": 1, "txid": "734d95d2cf4b8da4d76e2aa173fdec113d99a2787c09d0b2028f8e6f1f7e0cf1"}, {"sequence": 4294967295, "scriptSig": {"hex": "483045022100fca8adfc0a172bdc86a8e18bb45d8b155930fbb7ffec1de394df8f4aa4755bd302205ba2b3e6ee9504e6b67314d30472d4986f9c8cb99439cf13e2f567d1f905d93d012102d57949c9bb9dc9e5941c77c4f38ab8bb645331e6bffb35445690c6992f95452c", "asm": "3045022100fca8adfc0a172bdc86a8e18bb45d8b155930fbb7ffec1de394df8f4aa4755bd302205ba2b3e6ee9504e6b67314d30472d4986f9c8cb99439cf13e2f567d1f905d93d[ALL] 02d57949c9bb9dc9e5941c77c4f38ab8bb645331e6bffb35445690c6992f95452c"}, "vout": 1, "txid": "78f13512ef8d3f380c97a40f8c7991e136e9c1402e9793731af4c4d54b5162fd"}, {"sequence": 4294967295, "scriptSig": {"hex": "483045022100db2f21fe3cfab71e908af30a83df084033d12a8e4c90e0ad6b11a8b6c2b2906f02205021bec936d2be1e9925374f795aff550700e8f4e7ceb95150f7287c4b28a6330121035068fbebf8a486d6b954fc0f01a96e98dd8c83ad58ff894c05866a05f4de2eed", "asm": "3045022100db2f21fe3cfab71e908af30a83df084033d12a8e4c90e0ad6b11a8b6c2b2906f02205021bec936d2be1e9925374f795aff550700e8f4e7ceb95150f7287c4b28a633[ALL] 035068fbebf8a486d6b954fc0f01a96e98dd8c83ad58ff894c05866a05f4de2eed"}, "vout": 135, "txid": "7e8303fde27b7d0978729fbb6d9299384af7deec6376c871f827a07eec9f5287"}, {"sequence": 4294967295, "scriptSig": {"hex": "4830450221008267cb08fcb5a0569d678678e0e9ed447f2ea26e9192d67d71504f60ceade81402206b2e8f0ebd63bf223e1fbfdb3eb11ad50cfc86a76e79813c09852fa4f22967f1012103b1525ea04769acdd98684333b7cfd15d1f5f80828c763f80551634275a732fc8", "asm": "30450221008267cb08fcb5a0569d678678e0e9ed447f2ea26e9192d67d71504f60ceade81402206b2e8f0ebd63bf223e1fbfdb3eb11ad50cfc86a76e79813c09852fa4f22967f1[ALL] 03b1525ea04769acdd98684333b7cfd15d1f5f80828c763f80551634275a732fc8"}, "vout": 0, "txid": "89f31742128a1b6a79c4869e645be56ae1887f17b22cfcaa14bbbf7591865cdd"}, {"sequence": 4294967295, "scriptSig": {"hex": "473044022064033a5428d6604ca9fd9dfd793dd7bcd3359cafc0a1dead0d8742a2f0cc6b97022010b48db1232264e077cf366f8fea0240acdea357af60fdf61563326d50c161680121038273884eb8c564488d86dea6dbed016d521e85354105df8e4ab7baf4fff67f85", "asm": "3044022064033a5428d6604ca9fd9dfd793dd7bcd3359cafc0a1dead0d8742a2f0cc6b97022010b48db1232264e077cf366f8fea0240acdea357af60fdf61563326d50c16168[ALL] 038273884eb8c564488d86dea6dbed016d521e85354105df8e4ab7baf4fff67f85"}, "vout": 0, "txid": "ae017bf98da83d39c732873deb7d3176b1650f9764fa72c41d94ecbc540d672c"}, {"sequence": 4294967295, "scriptSig": {"hex": "483045022100d9dc490dc296c4eef17e82a34703f3eb3736e2c021582a559df250353abe3fcd022042f094cdcdfcdf844a179c9e84f2338acda246722127d0b2da3203601ece55f3012103b1525ea04769acdd98684333b7cfd15d1f5f80828c763f80551634275a732fc8", "asm": "3045022100d9dc490dc296c4eef17e82a34703f3eb3736e2c021582a559df250353abe3fcd022042f094cdcdfcdf844a179c9e84f2338acda246722127d0b2da3203601ece55f3[ALL] 03b1525ea04769acdd98684333b7cfd15d1f5f80828c763f80551634275a732fc8"}, "vout": 0, "txid": "afe58a42475de0088b9daef1ef074325f6f5ed51a7c2183f33285e1b0a0cbdcb"}, {"sequence": 4294967295, "scriptSig": {"hex": "4730440220281980fddc16c72b183b46170dacb207a8d3a8d0eeb9114ea5f2c5e4c05c562402204eba0427769cb26e306983811d279af8e24575bc2db4e7cdffeb1e8704eaae700121028dcef013b1983546035c186ae2fceb5eb7ed85bfbabbc3ed3d08f19aa7bcc02a", "asm": "30440220281980fddc16c72b183b46170dacb207a8d3a8d0eeb9114ea5f2c5e4c05c562402204eba0427769cb26e306983811d279af8e24575bc2db4e7cdffeb1e8704eaae70[ALL] 028dcef013b1983546035c186ae2fceb5eb7ed85bfbabbc3ed3d08f19aa7bcc02a"}, "vout": 1, "txid": "b42b1057ea2d163afb84743161ca9a97cf43eba99b330fd63397118bee24551e"}, {"sequence": 4294967295, "scriptSig": {"hex": "483045022100db32d26cf501387723969638c52786503c30c11ee274486247071fcc1d9ccdd80220636e20b212d9e7301f86153832267552e37254ce50bdf8d6fed851774b7ed5ad012103ad82a4d92c5f7d973e79018c2a15c8b42d78848976c291d7ecb35af33ba65be5", "asm": "3045022100db32d26cf501387723969638c52786503c30c11ee274486247071fcc1d9ccdd80220636e20b212d9e7301f86153832267552e37254ce50bdf8d6fed851774b7ed5ad[ALL] 03ad82a4d92c5f7d973e79018c2a15c8b42d78848976c291d7ecb35af33ba65be5"}, "vout": 0, "txid": "bdcded174eb1d497d8f2f7c8be93e156e279f328d686a83c1212de774ba2833a"}, {"sequence": 4294967295, "scriptSig": {"hex": "483045022100953c06f70ea14654c152c8203ef81c2157212f796bbed878ca24a7934c2ad79802204deb16271ab803310e1856dc97eb039e1cd2ce1c66654cc54e8ee0a10c97e0f2012103f8a35b5b7ebaa1a3f12a09ed6bf8b4b8536ace2e076ca8f975928a1345dbcd0c", "asm": "3045022100953c06f70ea14654c152c8203ef81c2157212f796bbed878ca24a7934c2ad79802204deb16271ab803310e1856dc97eb039e1cd2ce1c66654cc54e8ee0a10c97e0f2[ALL] 03f8a35b5b7ebaa1a3f12a09ed6bf8b4b8536ace2e076ca8f975928a1345dbcd0c"}, "vout": 26, "txid": "c68a809e89bb16a5c3277ceedbe576e3092c796b9721168a3942ac372dd81c76"}, {"sequence": 4294967295, "scriptSig": {"hex": "483045022100c4c32fd5a87c332d052aaac6970917a5068344485c206737adf17b22a71f035502206b83b8e06854d8e67bda9c238477c623efe6757d2184effa39da6080b7c91159012103b1525ea04769acdd98684333b7cfd15d1f5f80828c763f80551634275a732fc8", "asm": "3045022100c4c32fd5a87c332d052aaac6970917a5068344485c206737adf17b22a71f035502206b83b8e06854d8e67bda9c238477c623efe6757d2184effa39da6080b7c91159[ALL] 03b1525ea04769acdd98684333b7cfd15d1f5f80828c763f80551634275a732fc8"}, "vout": 0, "txid": "c78288accde2948ef88b5810014d48dd4730a7471369958599bb70c418464ec2"}], "txid": "599ff23658a88ac68b139d3cd4bd34ae9f8c08d5907a3f2c08d33b6617456e15", "blocktime": 1537876114, "version": 1, "confirmations": 11460, "time": 1537876114, "locktime": 0, "vsize": 2848, "size": 2848}