{"hash": "59a54fb01dd10b64c0daf25b7642e6e9f595f8bfbb19861b17954a4730cef712", "blockhash": "0000000000000000001f0ddff1eddb255c1121bcd4da4f1bc9a0da00cae72433", "vout": [{"scriptPubKey": {"reqSigs": 1, "hex": "76a91423a3a0a6f18add99d142c5a302d3abc92c3d7c6588ac", "addresses": ["14FSfkp4JBjuCfKrKA1R2bAG8oudmg5K4G"], "asm": "OP_DUP OP_HASH160 23a3a0a6f18add99d142c5a302d3abc92c3d7c65 OP_EQUALVERIFY OP_CHECKSIG", "type": "pubkeyhash"}, "value": 0.00069485, "n": 0}, {"scriptPubKey": {"reqSigs": 1, "hex": "76a914e618347720b9eaacefb0207f2aa0cde4630f9e6688ac", "addresses": ["1MydQumuraHS2XGTgxUyFx2fBUNtBM8FpU"], "asm": "OP_DUP OP_HASH160 e618347720b9eaacefb0207f2aa0cde4630f9e66 OP_EQUALVERIFY OP_CHECKSIG", "type": "pubkeyhash"}, "value": 0.0499776, "n": 1}], "hex": "010000000bed2025a4142e4c41363ae8ba22ea3f80a3e7fbe881e5335ef5af9fc8592ad31e000000006b483045022100995a3252d76c94d14f80ee79cc2baea2c2f6a3141cf8411568e29ddd5892201002205c7186c404993329dab1f4c75b6a27790775d12d6770451a39228f7c71661366012102351a5d9df06ac98fce59b2150c02098ae268d48a64ba8e7d519a0db58f0456e5ffffffffa17e4a041b55920088f81203dc747f235a257e8c56c9908fce7e9c99a4950223000000006b483045022100b8f81f4aee5f9a24a3e57b39d06160d9e2e5e2d582a1a43bc15916690d4b1e9a02201032da6ff7ba4cb429b4cc7ab06dfd5209327b29e88f86c6a37e56c32ad831e6012102351a5d9df06ac98fce59b2150c02098ae268d48a64ba8e7d519a0db58f0456e5ffffffffb66c7f1249600f4c1a622e02261d82b8a9c2641968e4948e0655d81f350f992a000000006b483045022100dd6bce8c8a376dd5a9b87200cd0b6bab1600da1d4ec9b5ebc41edd55f645a1bf022061a84c7d5294bd7369cc0c8270079a0f7bdf4e960e0703c57fadf27bc563bc3b01210384043ba82872fafb4f5b5474d42d4c7c5f087d6c4d3c414d68e614dc23b08ae6ffffffffdb6837dd16432c248aedb43d04e4e1fd905c61c229056b3f6f4a7a812c4dad44000000006a473044022053e1b2e3d3721c8f00ef5801a98a161494115335b3e6e3f7a087a850e26a55ca02205d8081c82b1e37e642598d317ef6a3e7f0b1a2fb10163893e1daec1da05eaebe012102351a5d9df06ac98fce59b2150c02098ae268d48a64ba8e7d519a0db58f0456e5ffffffffdc94161f041bd39121153710299778dc99c95d8a5c646ff11d49142067be599e000000006b4830450221008261c38b606440237ffb1196db7eb31319efa1257abd87ec948267d4276f7a43022044a1095f4168a85abef42d9ff595484bed35bda2a5ca9601f669c228a85b0da501210384043ba82872fafb4f5b5474d42d4c7c5f087d6c4d3c414d68e614dc23b08ae6ffffffffb5637b60993bac3d85c9cd8199fcafa44a6bcb878b6309ab13a1c2d17db9eeb8000000006a4730440220683f81bc7ec3bf7dca517aca6c459473b02c137dc02dd176b4bd81e56d68a9b50220559ef73bfe846339e384e2d90f503decaba864da8c59985960ffbca948b6dafc012102351a5d9df06ac98fce59b2150c02098ae268d48a64ba8e7d519a0db58f0456e5ffffffff35cd8bad9528729d9283f29711f7e71e7bdf0d8eb4e40c2f5b6cc98dbc419fcd000000006a4730440220732c7446e5c9e0f2ba75ffed5f3bee0814496a62555eac8cdd7fa58be8cf9c8c022079cf034656fc6c9d0d331d982db1cdaca09bc20eda49ad48b47746f7711f8b63012102b88d8bd1c5430e72dbca06034844db1422e5ddd48a444b915e63cdc9b74d1b5bffffffff59c5cb18dca9561b43c55e50a575b32eef8f5f36f61d99d01404e0339bfba5d9000000006a4730440220485d82eff1a1427ac9e80db57a122db14b835026d1ea15e5df7e1b483e4df587022059b8e8a733f1504769c8895e445db8be3fae4b162c9b13157454b99dcdba4b23012103693f1cf53218642194c88f366e0017e724467a97c745d4df96756f670e8a765affffffff259b96bff884f697bc15473c83151ec2b9b5ce881a671111002af02fb32534f3000000006b483045022100ac5a7d5eec44d482d365d0dde38691eaa09da174a25725bbed3b27b4ae2745fe022073d9a61bceede3a4cc9d1c647518324fe6c56ee543776ef954f98777fcac6018012102351a5d9df06ac98fce59b2150c02098ae268d48a64ba8e7d519a0db58f0456e5ffffffff77f06aa0fa64f7516b7ae1221b5c1fc55f6234b19fdfa13dc76ef239e99b00fb000000006a47304402201d220df06c80d46f7dca1f2c3496cde74acfc3e9ea6752dd3405f4e1d23e40de0220793360338fe7df0f89cd46eda21ee25060d46b07f23c972b089b36d6ace7cd1b012103693f1cf53218642194c88f366e0017e724467a97c745d4df96756f670e8a765afffffffff5538424db2f3354ecd18b7b1809ccf1a2340990f579501b9e120ed87123dbfc000000006a47304402202977bc772529501bce71a10fd9f322457f9f77f0d149af4076219b8a7fa59ece022066400bb140df7b774b246bff0881e87779a2e2ea29c9eca1eec38e6d0c974d3601210384043ba82872fafb4f5b5474d42d4c7c5f087d6c4d3c414d68e614dc23b08ae6ffffffff026d0f0100000000001976a91423a3a0a6f18add99d142c5a302d3abc92c3d7c6588ac80424c00000000001976a914e618347720b9eaacefb0207f2aa0cde4630f9e6688ac00000000", "vin": [{"sequence": 4294967295, "scriptSig": {"hex": "483045022100995a3252d76c94d14f80ee79cc2baea2c2f6a3141cf8411568e29ddd5892201002205c7186c404993329dab1f4c75b6a27790775d12d6770451a39228f7c71661366012102351a5d9df06ac98fce59b2150c02098ae268d48a64ba8e7d519a0db58f0456e5", "asm": "3045022100995a3252d76c94d14f80ee79cc2baea2c2f6a3141cf8411568e29ddd5892201002205c7186c404993329dab1f4c75b6a27790775d12d6770451a39228f7c71661366[ALL] 02351a5d9df06ac98fce59b2150c02098ae268d48a64ba8e7d519a0db58f0456e5"}, "vout": 0, "txid": "1ed32a59c89faff55e33e581e8fbe7a3803fea22bae83a36414c2e14a42520ed"}, {"sequence": 4294967295, "scriptSig": {"hex": "483045022100b8f81f4aee5f9a24a3e57b39d06160d9e2e5e2d582a1a43bc15916690d4b1e9a02201032da6ff7ba4cb429b4cc7ab06dfd5209327b29e88f86c6a37e56c32ad831e6012102351a5d9df06ac98fce59b2150c02098ae268d48a64ba8e7d519a0db58f0456e5", "asm": "3045022100b8f81f4aee5f9a24a3e57b39d06160d9e2e5e2d582a1a43bc15916690d4b1e9a02201032da6ff7ba4cb429b4cc7ab06dfd5209327b29e88f86c6a37e56c32ad831e6[ALL] 02351a5d9df06ac98fce59b2150c02098ae268d48a64ba8e7d519a0db58f0456e5"}, "vout": 0, "txid": "230295a4999c7ece8f90c9568c7e255a237f74dc0312f8880092551b044a7ea1"}, {"sequence": 4294967295, "scriptSig": {"hex": "483045022100dd6bce8c8a376dd5a9b87200cd0b6bab1600da1d4ec9b5ebc41edd55f645a1bf022061a84c7d5294bd7369cc0c8270079a0f7bdf4e960e0703c57fadf27bc563bc3b01210384043ba82872fafb4f5b5474d42d4c7c5f087d6c4d3c414d68e614dc23b08ae6", "asm": "3045022100dd6bce8c8a376dd5a9b87200cd0b6bab1600da1d4ec9b5ebc41edd55f645a1bf022061a84c7d5294bd7369cc0c8270079a0f7bdf4e960e0703c57fadf27bc563bc3b[ALL] 0384043ba82872fafb4f5b5474d42d4c7c5f087d6c4d3c414d68e614dc23b08ae6"}, "vout": 0, "txid": "2a990f351fd855068e94e4681964c2a9b8821d26022e621a4c0f6049127f6cb6"}, {"sequence": 4294967295, "scriptSig": {"hex": "473044022053e1b2e3d3721c8f00ef5801a98a161494115335b3e6e3f7a087a850e26a55ca02205d8081c82b1e37e642598d317ef6a3e7f0b1a2fb10163893e1daec1da05eaebe012102351a5d9df06ac98fce59b2150c02098ae268d48a64ba8e7d519a0db58f0456e5", "asm": "3044022053e1b2e3d3721c8f00ef5801a98a161494115335b3e6e3f7a087a850e26a55ca02205d8081c82b1e37e642598d317ef6a3e7f0b1a2fb10163893e1daec1da05eaebe[ALL] 02351a5d9df06ac98fce59b2150c02098ae268d48a64ba8e7d519a0db58f0456e5"}, "vout": 0, "txid": "44ad4d2c817a4a6f3f6b0529c2615c90fde1e4043db4ed8a242c4316dd3768db"}, {"sequence": 4294967295, "scriptSig": {"hex": "4830450221008261c38b606440237ffb1196db7eb31319efa1257abd87ec948267d4276f7a43022044a1095f4168a85abef42d9ff595484bed35bda2a5ca9601f669c228a85b0da501210384043ba82872fafb4f5b5474d42d4c7c5f087d6c4d3c414d68e614dc23b08ae6", "asm": "30450221008261c38b606440237ffb1196db7eb31319efa1257abd87ec948267d4276f7a43022044a1095f4168a85abef42d9ff595484bed35bda2a5ca9601f669c228a85b0da5[ALL] 0384043ba82872fafb4f5b5474d42d4c7c5f087d6c4d3c414d68e614dc23b08ae6"}, "vout": 0, "txid": "9e59be672014491df16f645c8a5dc999dc7897291037152191d31b041f1694dc"}, {"sequence": 4294967295, "scriptSig": {"hex": "4730440220683f81bc7ec3bf7dca517aca6c459473b02c137dc02dd176b4bd81e56d68a9b50220559ef73bfe846339e384e2d90f503decaba864da8c59985960ffbca948b6dafc012102351a5d9df06ac98fce59b2150c02098ae268d48a64ba8e7d519a0db58f0456e5", "asm": "30440220683f81bc7ec3bf7dca517aca6c459473b02c137dc02dd176b4bd81e56d68a9b50220559ef73bfe846339e384e2d90f503decaba864da8c59985960ffbca948b6dafc[ALL] 02351a5d9df06ac98fce59b2150c02098ae268d48a64ba8e7d519a0db58f0456e5"}, "vout": 0, "txid": "b8eeb97dd1c2a113ab09638b87cb6b4aa4affc9981cdc9853dac3b99607b63b5"}, {"sequence": 4294967295, "scriptSig": {"hex": "4730440220732c7446e5c9e0f2ba75ffed5f3bee0814496a62555eac8cdd7fa58be8cf9c8c022079cf034656fc6c9d0d331d982db1cdaca09bc20eda49ad48b47746f7711f8b63012102b88d8bd1c5430e72dbca06034844db1422e5ddd48a444b915e63cdc9b74d1b5b", "asm": "30440220732c7446e5c9e0f2ba75ffed5f3bee0814496a62555eac8cdd7fa58be8cf9c8c022079cf034656fc6c9d0d331d982db1cdaca09bc20eda49ad48b47746f7711f8b63[ALL] 02b88d8bd1c5430e72dbca06034844db1422e5ddd48a444b915e63cdc9b74d1b5b"}, "vout": 0, "txid": "cd9f41bc8dc96c5b2f0ce4b48e0ddf7b1ee7f71197f283929d722895ad8bcd35"}, {"sequence": 4294967295, "scriptSig": {"hex": "4730440220485d82eff1a1427ac9e80db57a122db14b835026d1ea15e5df7e1b483e4df587022059b8e8a733f1504769c8895e445db8be3fae4b162c9b13157454b99dcdba4b23012103693f1cf53218642194c88f366e0017e724467a97c745d4df96756f670e8a765a", "asm": "30440220485d82eff1a1427ac9e80db57a122db14b835026d1ea15e5df7e1b483e4df587022059b8e8a733f1504769c8895e445db8be3fae4b162c9b13157454b99dcdba4b23[ALL] 03693f1cf53218642194c88f366e0017e724467a97c745d4df96756f670e8a765a"}, "vout": 0, "txid": "d9a5fb9b33e00414d0991df6365f8fef2eb375a5505ec5431b56a9dc18cbc559"}, {"sequence": 4294967295, "scriptSig": {"hex": "483045022100ac5a7d5eec44d482d365d0dde38691eaa09da174a25725bbed3b27b4ae2745fe022073d9a61bceede3a4cc9d1c647518324fe6c56ee543776ef954f98777fcac6018012102351a5d9df06ac98fce59b2150c02098ae268d48a64ba8e7d519a0db58f0456e5", "asm": "3045022100ac5a7d5eec44d482d365d0dde38691eaa09da174a25725bbed3b27b4ae2745fe022073d9a61bceede3a4cc9d1c647518324fe6c56ee543776ef954f98777fcac6018[ALL] 02351a5d9df06ac98fce59b2150c02098ae268d48a64ba8e7d519a0db58f0456e5"}, "vout": 0, "txid": "f33425b32ff02a001111671a88ceb5b9c21e15833c4715bc97f684f8bf969b25"}, {"sequence": 4294967295, "scriptSig": {"hex": "47304402201d220df06c80d46f7dca1f2c3496cde74acfc3e9ea6752dd3405f4e1d23e40de0220793360338fe7df0f89cd46eda21ee25060d46b07f23c972b089b36d6ace7cd1b012103693f1cf53218642194c88f366e0017e724467a97c745d4df96756f670e8a765a", "asm": "304402201d220df06c80d46f7dca1f2c3496cde74acfc3e9ea6752dd3405f4e1d23e40de0220793360338fe7df0f89cd46eda21ee25060d46b07f23c972b089b36d6ace7cd1b[ALL] 03693f1cf53218642194c88f366e0017e724467a97c745d4df96756f670e8a765a"}, "vout": 0, "txid": "fb009be939f26ec73da1df9fb134625fc51f5c1b22e17a6b51f764faa06af077"}, {"sequence": 4294967295, "scriptSig": {"hex": "47304402202977bc772529501bce71a10fd9f322457f9f77f0d149af4076219b8a7fa59ece022066400bb140df7b774b246bff0881e87779a2e2ea29c9eca1eec38e6d0c974d3601210384043ba82872fafb4f5b5474d42d4c7c5f087d6c4d3c414d68e614dc23b08ae6", "asm": "304402202977bc772529501bce71a10fd9f322457f9f77f0d149af4076219b8a7fa59ece022066400bb140df7b774b246bff0881e87779a2e2ea29c9eca1eec38e6d0c974d36[ALL] 0384043ba82872fafb4f5b5474d42d4c7c5f087d6c4d3c414d68e614dc23b08ae6"}, "vout": 0, "txid": "fcdb2371d80e129e1b5079f5900934a2f1cc09187b8bd1ec54332fdb248453f5"}], "txid": "59a54fb01dd10b64c0daf25b7642e6e9f595f8bfbb19861b17954a4730cef712", "blocktime": 1537872018, "version": 1, "confirmations": 11489, "time": 1537872018, "locktime": 0, "vsize": 1700, "size": 1700}