{"hash": "59aa70cbca9a43d7d8c8d8a73e88d9b0e4838b485375763e971c389c57995dfb", "blockhash": "0000000000000000001f0ddff1eddb255c1121bcd4da4f1bc9a0da00cae72433", "vout": [{"scriptPubKey": {"reqSigs": 1, "hex": "a91416a2eb0c74c8380454ea3d9595e0534820bb09ec87", "addresses": ["33khxWtZyFZgFUrhXyKgcy7nSsg5EqfFsR"], "asm": "OP_HASH160 16a2eb0c74c8380454ea3d9595e0534820bb09ec OP_EQUAL", "type": "scripthash"}, "value": 0.00421794, "n": 0}, {"scriptPubKey": {"reqSigs": 1, "hex": "76a914674ffc2833bd01042fc058407c32c5abf947776a88ac", "addresses": ["1ARGRDMPkHELYSPvJck4ubbzoyp86izGhc"], "asm": "OP_DUP OP_HASH160 674ffc2833bd01042fc058407c32c5abf947776a OP_EQUALVERIFY OP_CHECKSIG", "type": "pubkeyhash"}, "value": 0.0083092, "n": 1}], "hex": "0100000001f5974e0be28f07cfc16896f1fa050ce6382992790664671d004538daff113f78010000008b483045022100e4a4c73e022132e67184cfbc2bd53aef821b779d2ddcea400c2885b739216d2502202738c6f36083a9a5ad7f5a57f175fd0c60ac9cf0a9f5d7690f2f18af6ef1db9d014104fc89f537f9b2cda2690f9f290306467189e59367f72c74901c7691107c77504161954d67cdc249cc7ef6074d09667ea8c14861210186a1487170f08a963d2ab7ffffffff02a26f06000000000017a91416a2eb0c74c8380454ea3d9595e0534820bb09ec87c8ad0c00000000001976a914674ffc2833bd01042fc058407c32c5abf947776a88ac00000000", "vin": [{"sequence": 4294967295, "scriptSig": {"hex": "483045022100e4a4c73e022132e67184cfbc2bd53aef821b779d2ddcea400c2885b739216d2502202738c6f36083a9a5ad7f5a57f175fd0c60ac9cf0a9f5d7690f2f18af6ef1db9d014104fc89f537f9b2cda2690f9f290306467189e59367f72c74901c7691107c77504161954d67cdc249cc7ef6074d09667ea8c14861210186a1487170f08a963d2ab7", "asm": "3045022100e4a4c73e022132e67184cfbc2bd53aef821b779d2ddcea400c2885b739216d2502202738c6f36083a9a5ad7f5a57f175fd0c60ac9cf0a9f5d7690f2f18af6ef1db9d[ALL] 04fc89f537f9b2cda2690f9f290306467189e59367f72c74901c7691107c77504161954d67cdc249cc7ef6074d09667ea8c14861210186a1487170f08a963d2ab7"}, "vout": 1, "txid": "783f11ffda3845001d67640679922938e60c05faf19668c1cf078fe20b4e97f5"}], "txid": "59aa70cbca9a43d7d8c8d8a73e88d9b0e4838b485375763e971c389c57995dfb", "blocktime": 1537872018, "version": 1, "confirmations": 11489, "time": 1537872018, "locktime": 0, "vsize": 256, "size": 256}