{"hash": "59adfa4946e65ebade3ab234b9f1c60f6fb1dbceb0534898ef7335a360b036b0", "blockhash": "0000000000000000000e13cef7c366c0283d82e591d1acd082e914b08063cdf1", "vout": [{"scriptPubKey": {"reqSigs": 1, "hex": "76a914ec6ed1f1659909e4500d797a3ea1dcaa8652f6a588ac", "addresses": ["1NZ9EBqPZW8VfPVHB5UsWZ6oGAtnvpf4x1"], "asm": "OP_DUP OP_HASH160 ec6ed1f1659909e4500d797a3ea1dcaa8652f6a5 OP_EQUALVERIFY OP_CHECKSIG", "type": "pubkeyhash"}, "value": 0.11997385, "n": 0}, {"scriptPubKey": {"reqSigs": 1, "hex": "a914c47a749e69198095c03f425a67d8ce18371730f787", "addresses": ["3Kbu4W7VX4BCNi9Bjt6nt7g9bFekdtAQuF"], "asm": "OP_HASH160 c47a749e69198095c03f425a67d8ce18371730f7 OP_EQUAL", "type": "scripthash"}, "value": 0.03598906, "n": 1}], "hex": "0200000001895d8ba1e40c42734d9abce12dafdda2f07e1ab20e6fd0be01c65e2d6dc8029c000000006a4730440220455074610f4499ea8e87f61a278f814b350e379b13a2c410f798ff4f6c2523720220419f2ef38d543ef31cc4ab7d75fdc4e15aad4af4addbc72450f8f625d2c5aab3012102f0cca580258acda0d8cd2ce4dd5af385607927570caa9f2659df1dfedd8c3d9cfeffffff02c910b700000000001976a914ec6ed1f1659909e4500d797a3ea1dcaa8652f6a588ac3aea36000000000017a914c47a749e69198095c03f425a67d8ce18371730f78710490800", "vin": [{"sequence": 4294967294, "scriptSig": {"hex": "4730440220455074610f4499ea8e87f61a278f814b350e379b13a2c410f798ff4f6c2523720220419f2ef38d543ef31cc4ab7d75fdc4e15aad4af4addbc72450f8f625d2c5aab3012102f0cca580258acda0d8cd2ce4dd5af385607927570caa9f2659df1dfedd8c3d9c", "asm": "30440220455074610f4499ea8e87f61a278f814b350e379b13a2c410f798ff4f6c2523720220419f2ef38d543ef31cc4ab7d75fdc4e15aad4af4addbc72450f8f625d2c5aab3[ALL] 02f0cca580258acda0d8cd2ce4dd5af385607927570caa9f2659df1dfedd8c3d9c"}, "vout": 0, "txid": "9c02c86d2d5ec601bed06f0eb21a7ef0a2ddaf2de1bc9a4d73420ce4a18b5d89"}], "txid": "59adfa4946e65ebade3ab234b9f1c60f6fb1dbceb0534898ef7335a360b036b0", "blocktime": 1537871767, "version": 2, "confirmations": 11491, "time": 1537871767, "locktime": 542992, "vsize": 223, "size": 223}