{"hash": "94a7d8f373f138cd3c3e0207c576c6aaebc634f5b152b852c5a6ab4d1cc2491b", "blockhash": "0000000000000000001e0dab787dd257d1dbfcb92a98c2207d5e1078be1f4165", "vout": [{"scriptPubKey": {"reqSigs": 1, "hex": "0014e21019ec2b90d8b52a70cfaf840168567c4fbbd8", "addresses": ["bc1quggpnmptjrvt22nse7hcgqtg2e7ylw7c234kw0"], "asm": "0 e21019ec2b90d8b52a70cfaf840168567c4fbbd8", "type": "witness_v0_keyhash"}, "value": 0.00099387, "n": 0}, {"scriptPubKey": {"reqSigs": 1, "hex": "a914d773d3a3b05f6c387cda8860eb99d659d63c2ee287", "addresses": ["3MLDxZwA6Lk45Rs8jBAbF3xdwjwJZZD7eF"], "asm": "OP_HASH160 d773d3a3b05f6c387cda8860eb99d659d63c2ee2 OP_EQUAL", "type": "scripthash"}, "value": 0.01131032, "n": 1}], "hex": "010000000001013a7b69a7e292ed6b9bbe00f2fb0bc88e06e73dec217b38ab14ef9671ae70cac300000000171600149478ed4f6e6e06a2eab82ec84d171f80d0bb8ba6ffffffff023b84010000000000160014e21019ec2b90d8b52a70cfaf840168567c4fbbd8184211000000000017a914d773d3a3b05f6c387cda8860eb99d659d63c2ee28702473044022018519a1df3d0e7c71ad988488a44ef893988d529eee798f1fed17ef6d17c3fe802206f38e70b3d3d43b8aa87033a97286381b565169f0afbe5422520b7d9c4a1e34d012102abfb2fae03ca617ff91c85b68454024923f7aabe1ecc3445d987263a83a2969300000000", "vin": [{"txinwitness": ["3044022018519a1df3d0e7c71ad988488a44ef893988d529eee798f1fed17ef6d17c3fe802206f38e70b3d3d43b8aa87033a97286381b565169f0afbe5422520b7d9c4a1e34d01", "02abfb2fae03ca617ff91c85b68454024923f7aabe1ecc3445d987263a83a29693"], "sequence": 4294967295, "scriptSig": {"hex": "1600149478ed4f6e6e06a2eab82ec84d171f80d0bb8ba6", "asm": "00149478ed4f6e6e06a2eab82ec84d171f80d0bb8ba6"}, "vout": 0, "txid": "c3ca70ae7196ef14ab387b21ec3de7068ec80bfbf200be9b6bed92e2a7697b3a"}], "txid": "59b4fc5c2b5895233cbca6017af2a34c49ca5ceda0ab131a894d67cf2ef19856", "blocktime": 1537872475, "version": 1, "confirmations": 11486, "time": 1537872475, "locktime": 0, "vsize": 165, "size": 246}