{"hash": "b5ef52efa6992a7d77632afff11f39f2305c9652109e6829d51d0d0f382ef051", "blockhash": "0000000000000000001f76057863aec43deb6fa401d9628bb513d65a8098bfab", "vout": [{"scriptPubKey": {"reqSigs": 1, "hex": "a9147d506a305d61cd55b748ce5e52bd9b69df9b09a987", "addresses": ["3D7ciqirtNJBoLW6K2oYJcFZxqsT7R98R3"], "asm": "OP_HASH160 7d506a305d61cd55b748ce5e52bd9b69df9b09a9 OP_EQUAL", "type": "scripthash"}, "value": 0.01003331, "n": 0}, {"scriptPubKey": {"reqSigs": 1, "hex": "a914c89be9e57ee3fc5b6ba5f27e84904f750cd112ee87", "addresses": ["3KyjqyqPNzs1q1bM3mdAmiCNBMeCCCearn"], "asm": "OP_HASH160 c89be9e57ee3fc5b6ba5f27e84904f750cd112ee OP_EQUAL", "type": "scripthash"}, "value": 0.00252648, "n": 1}], "hex": "020000000001030d56a5a25a69a5b06775eae7cc27f96f245d17cd895c8e72ccd9b496c77d1b8d010000001716001426dbba2d8570e04d2ae8d06ae3382b24afce5157feffffff8983e5b562a379603fbed1844f194eeac23314c5d527b1ea0586a2bcd9c265d6000000001716001480a81d225d2261aca682517a38230033149985fefeffffffa6c9d68dc26b36458b1a51f7737044ae404f067d22a138329887d08990377c0f01000000171600147207a6dcea2318358b39959c7e11bdbfe00f2b0cfeffffff02434f0f000000000017a9147d506a305d61cd55b748ce5e52bd9b69df9b09a987e8da03000000000017a914c89be9e57ee3fc5b6ba5f27e84904f750cd112ee8702483045022100fdc0ff1117a6759be7de09d7dab25b98186008810bde3b164007ab2c842f3e1502206e5c31e305bcf2bdb70f27e2aa4caef79fecc849d819b2544a28945c71692f480121031871a2cb389aa8d95616b20f9c53d993d403ec65374b21e285137c27ce44b6b80247304402207d83cc8034bee33056a60ac82e736cc9a7c7a7f720f3f2643029aa214857283402207eb9ec19a4d97e8a5c9c3ea95e6f023df3d102041b14032f2527b88258fb2b37012103c2492d6732efa90d89bbf94346b90172e90c00cd7778f10cac99e16a337700ab0248304502210093667f2b872091e1c10221f6dea3da73a3d0a5ad951a97fab4a6e95d08dfb2f3022045365fa918cc205966de643ab5c8100aeda0cf61cd329f955db930af23f4ee86012102d5c2375bb8eeb6669e2ebc670b3120ade955fa54ba27133637f6c53153b4732414490800", "vin": [{"txinwitness": ["3045022100fdc0ff1117a6759be7de09d7dab25b98186008810bde3b164007ab2c842f3e1502206e5c31e305bcf2bdb70f27e2aa4caef79fecc849d819b2544a28945c71692f4801", "031871a2cb389aa8d95616b20f9c53d993d403ec65374b21e285137c27ce44b6b8"], "sequence": 4294967294, "scriptSig": {"hex": "16001426dbba2d8570e04d2ae8d06ae3382b24afce5157", "asm": "001426dbba2d8570e04d2ae8d06ae3382b24afce5157"}, "vout": 1, "txid": "8d1b7dc796b4d9cc728e5c89cd175d246ff927cce7ea7567b0a5695aa2a5560d"}, {"txinwitness": ["304402207d83cc8034bee33056a60ac82e736cc9a7c7a7f720f3f2643029aa214857283402207eb9ec19a4d97e8a5c9c3ea95e6f023df3d102041b14032f2527b88258fb2b3701", "03c2492d6732efa90d89bbf94346b90172e90c00cd7778f10cac99e16a337700ab"], "sequence": 4294967294, "scriptSig": {"hex": "16001480a81d225d2261aca682517a38230033149985fe", "asm": "001480a81d225d2261aca682517a38230033149985fe"}, "vout": 0, "txid": "d665c2d9bca28605eab127d5c51433c2ea4e194f84d1be3f6079a362b5e58389"}, {"txinwitness": ["304502210093667f2b872091e1c10221f6dea3da73a3d0a5ad951a97fab4a6e95d08dfb2f3022045365fa918cc205966de643ab5c8100aeda0cf61cd329f955db930af23f4ee8601", "02d5c2375bb8eeb6669e2ebc670b3120ade955fa54ba27133637f6c53153b47324"], "sequence": 4294967294, "scriptSig": {"hex": "1600147207a6dcea2318358b39959c7e11bdbfe00f2b0c", "asm": "00147207a6dcea2318358b39959c7e11bdbfe00f2b0c"}, "vout": 1, "txid": "0f7c379089d087983238a1227d064f40ae447073f7511a8b45366bc28dd6c9a6"}], "txid": "59b500103e2f409b18d479844c6ae5c1ce1738835b964ad867950ee93521acb9", "blocktime": 1537873891, "version": 2, "confirmations": 11478, "time": 1537873891, "locktime": 542996, "vsize": 348, "size": 591}