{"hash": "59b68f0fd219989d6b47b26d59ffc420c48230cf81dafc0d94f906fda7293d44", "blockhash": "00000000000000000018f53835495a110e01622372bf6ae95dc86f2b0ab887b0", "vout": [{"scriptPubKey": {"reqSigs": 1, "hex": "76a91430adec8f61983a33e28eef69d97c18ce210111d588ac", "addresses": ["15SPnfVMJVdREPZ7duX8WBDPLoddZGhPwS"], "asm": "OP_DUP OP_HASH160 30adec8f61983a33e28eef69d97c18ce210111d5 OP_EQUALVERIFY OP_CHECKSIG", "type": "pubkeyhash"}, "value": 5.589e-05, "n": 0}, {"scriptPubKey": {"reqSigs": 1, "hex": "a914aaa5a8306458fb467a28b29934653efb6c3b7ab787", "addresses": ["3HFKFCoQ36QBuA8w5mjQsy7BEqqBfFX7jp"], "asm": "OP_HASH160 aaa5a8306458fb467a28b29934653efb6c3b7ab7 OP_EQUAL", "type": "scripthash"}, "value": 0.00905733, "n": 1}], "hex": "010000000185b9851cc32ac6e3b25df98196a733d726ef8c4f2d8d52f90fdf430ae937252c000000006b483045022100d9bf3b0b26bb636fc0a5143f899e5e3b48401abd4d8ad9faaf01cc3539683a0102207c00c9f795d5c746d3baa241b25605e32039f203ab2fd67eb850f445f6d2a656012103ce5ae293410e4fa4065fe3a6277f309aa0c716cbc573224952712030514d5d46ffffffff02d5150000000000001976a91430adec8f61983a33e28eef69d97c18ce210111d588ac05d20d000000000017a914aaa5a8306458fb467a28b29934653efb6c3b7ab78700000000", "vin": [{"sequence": 4294967295, "scriptSig": {"hex": "483045022100d9bf3b0b26bb636fc0a5143f899e5e3b48401abd4d8ad9faaf01cc3539683a0102207c00c9f795d5c746d3baa241b25605e32039f203ab2fd67eb850f445f6d2a656012103ce5ae293410e4fa4065fe3a6277f309aa0c716cbc573224952712030514d5d46", "asm": "3045022100d9bf3b0b26bb636fc0a5143f899e5e3b48401abd4d8ad9faaf01cc3539683a0102207c00c9f795d5c746d3baa241b25605e32039f203ab2fd67eb850f445f6d2a656[ALL] 03ce5ae293410e4fa4065fe3a6277f309aa0c716cbc573224952712030514d5d46"}, "vout": 0, "txid": "2c2537e90a43df0ff9528d2d4f8cef26d733a79681f95db2e3c62ac31c85b985"}], "txid": "59b68f0fd219989d6b47b26d59ffc420c48230cf81dafc0d94f906fda7293d44", "blocktime": 1537870928, "version": 1, "confirmations": 11514, "time": 1537870928, "locktime": 0, "vsize": 224, "size": 224}