{"hash": "59b8b7661c231ce912d99dd22f80c1219c5f96cd8229139e8d5dac9791d9caec", "blockhash": "0000000000000000001e0dab787dd257d1dbfcb92a98c2207d5e1078be1f4165", "vout": [{"scriptPubKey": {"reqSigs": 1, "hex": "76a9141766428de936f8c56bd7f9401d1c7b38ae7cb55888ac", "addresses": ["138j3ZUb6dH5G4smawtLAUNHp71SnXhG1C"], "asm": "OP_DUP OP_HASH160 1766428de936f8c56bd7f9401d1c7b38ae7cb558 OP_EQUALVERIFY OP_CHECKSIG", "type": "pubkeyhash"}, "value": 0.08915504, "n": 0}, {"scriptPubKey": {"reqSigs": 1, "hex": "76a914eb2f38c44d7c02209579e42ee7aed56fad83b4dc88ac", "addresses": ["1NSYN74f4Rzi9hoQKZLqeGEWJsR2ukkiTh"], "asm": "OP_DUP OP_HASH160 eb2f38c44d7c02209579e42ee7aed56fad83b4dc OP_EQUALVERIFY OP_CHECKSIG", "type": "pubkeyhash"}, "value": 0.7887595, "n": 1}], "hex": "01000000024254f8ecb9683bda38600147af0cbc4db02b76bf761fc56c66174b6135936d8a010000006b4830450221008b4a960f28268bbea84e125a5521a5692ee02a1acec50c5f27ee7bc81dd850410220505da9f94459f801295a50bbf597e47eaa4051721f25a9ffa687909174d4c92b0121022370f42313b54e4de22b90d9f18a2746541146229f6fae23fc00a409d8ea49d6ffffffffeb6f76db85e11457ed791692795ddf6e1cf8b0e26c62f7d79eb22f33d2526b91010000006b4830450221009abfa29234eec01e46c373eea4414487936163c0ad3eb88e9bb07e3c9065b59802200154b1b0b225a3588ad538e388ea130fa1e9067287f66b161ca0e027f6fddb890121022370f42313b54e4de22b90d9f18a2746541146229f6fae23fc00a409d8ea49d6ffffffff02300a8800000000001976a9141766428de936f8c56bd7f9401d1c7b38ae7cb55888ac2e8db304000000001976a914eb2f38c44d7c02209579e42ee7aed56fad83b4dc88ac00000000", "vin": [{"sequence": 4294967295, "scriptSig": {"hex": "4830450221008b4a960f28268bbea84e125a5521a5692ee02a1acec50c5f27ee7bc81dd850410220505da9f94459f801295a50bbf597e47eaa4051721f25a9ffa687909174d4c92b0121022370f42313b54e4de22b90d9f18a2746541146229f6fae23fc00a409d8ea49d6", "asm": "30450221008b4a960f28268bbea84e125a5521a5692ee02a1acec50c5f27ee7bc81dd850410220505da9f94459f801295a50bbf597e47eaa4051721f25a9ffa687909174d4c92b[ALL] 022370f42313b54e4de22b90d9f18a2746541146229f6fae23fc00a409d8ea49d6"}, "vout": 1, "txid": "8a6d9335614b17666cc51f76bf762bb04dbc0caf47016038da3b68b9ecf85442"}, {"sequence": 4294967295, "scriptSig": {"hex": "4830450221009abfa29234eec01e46c373eea4414487936163c0ad3eb88e9bb07e3c9065b59802200154b1b0b225a3588ad538e388ea130fa1e9067287f66b161ca0e027f6fddb890121022370f42313b54e4de22b90d9f18a2746541146229f6fae23fc00a409d8ea49d6", "asm": "30450221009abfa29234eec01e46c373eea4414487936163c0ad3eb88e9bb07e3c9065b59802200154b1b0b225a3588ad538e388ea130fa1e9067287f66b161ca0e027f6fddb89[ALL] 022370f42313b54e4de22b90d9f18a2746541146229f6fae23fc00a409d8ea49d6"}, "vout": 1, "txid": "916b52d2332fb29ed7f7626ce2b0f81c6edf5d79921679ed5714e185db766feb"}], "txid": "59b8b7661c231ce912d99dd22f80c1219c5f96cd8229139e8d5dac9791d9caec", "blocktime": 1537872475, "version": 1, "confirmations": 11487, "time": 1537872475, "locktime": 0, "vsize": 374, "size": 374}