{"hash": "59b9d8f95e801bdcae3861b308c9b7705c19a8c69bace1b0b615c492cdbc0087", "blockhash": "00000000000000000017f5eb5941039fbcee6240d03bc1f2f8e35350df66a1d8", "vout": [{"scriptPubKey": {"reqSigs": 1, "hex": "a914006cf303c6d1ba874f7e0c594f6784aa26d8cccd87", "addresses": ["31jGSULgrmGo6eu3upcyTmEbNeSgvhHq1P"], "asm": "OP_HASH160 006cf303c6d1ba874f7e0c594f6784aa26d8cccd OP_EQUAL", "type": "scripthash"}, "value": 0.1588522, "n": 0}, {"scriptPubKey": {"reqSigs": 1, "hex": "76a91438be279678575f92fc97ae2bcb41c4fbdc75ae4f88ac", "addresses": ["16B2dvGpvrHf2m5CyT7XsZppjSWeShGutU"], "asm": "OP_DUP OP_HASH160 38be279678575f92fc97ae2bcb41c4fbdc75ae4f OP_EQUALVERIFY OP_CHECKSIG", "type": "pubkeyhash"}, "value": 0.84112739, "n": 1}], "hex": "01000000011d84c9dd86814ed61a4da89ad669e1ee239e1fe1535773434d665755db64d3ec00000000fc00473044022037179edc8eb35431d07fd9e4075a11ef20f0833f2b2a5eb8c0a0dfedc573760a022006e3234aacdd41125779aabcb64cd0b979791a4636aee45e088a0591ef690e9901473044022022bc91b0dc759643bec32d27fc92481128226942fccf33e8bbbe8741f94bb0c90220579af759751d8acc639387ae084506727bc6d27a0bc584d6adf073332c21b9bc014c6952210311a6b01c19fdf0fa99998be569d715bef97caf00815bccfa10353ff9376f2e292102250a5ce1d0efbf27c5ef63cd932aa8ccbfab651ca74912e11e68cb0e57f2d98d21023b77fbe46d927e4d8f6cb97d77a0de203d890f08c7083b90728c6c13f1d8ca6053aeffffffff02a463f2000000000017a914006cf303c6d1ba874f7e0c594f6784aa26d8cccd8763750305000000001976a91438be279678575f92fc97ae2bcb41c4fbdc75ae4f88ac00000000", "vin": [{"sequence": 4294967295, "scriptSig": {"hex": "00473044022037179edc8eb35431d07fd9e4075a11ef20f0833f2b2a5eb8c0a0dfedc573760a022006e3234aacdd41125779aabcb64cd0b979791a4636aee45e088a0591ef690e9901473044022022bc91b0dc759643bec32d27fc92481128226942fccf33e8bbbe8741f94bb0c90220579af759751d8acc639387ae084506727bc6d27a0bc584d6adf073332c21b9bc014c6952210311a6b01c19fdf0fa99998be569d715bef97caf00815bccfa10353ff9376f2e292102250a5ce1d0efbf27c5ef63cd932aa8ccbfab651ca74912e11e68cb0e57f2d98d21023b77fbe46d927e4d8f6cb97d77a0de203d890f08c7083b90728c6c13f1d8ca6053ae", "asm": "0 3044022037179edc8eb35431d07fd9e4075a11ef20f0833f2b2a5eb8c0a0dfedc573760a022006e3234aacdd41125779aabcb64cd0b979791a4636aee45e088a0591ef690e99[ALL] 3044022022bc91b0dc759643bec32d27fc92481128226942fccf33e8bbbe8741f94bb0c90220579af759751d8acc639387ae084506727bc6d27a0bc584d6adf073332c21b9bc[ALL] 52210311a6b01c19fdf0fa99998be569d715bef97caf00815bccfa10353ff9376f2e292102250a5ce1d0efbf27c5ef63cd932aa8ccbfab651ca74912e11e68cb0e57f2d98d21023b77fbe46d927e4d8f6cb97d77a0de203d890f08c7083b90728c6c13f1d8ca6053ae"}, "vout": 0, "txid": "ecd364db5557664d43735753e11f9e23eee169d69aa84d1ad64e8186ddc9841d"}], "txid": "59b9d8f95e801bdcae3861b308c9b7705c19a8c69bace1b0b615c492cdbc0087", "blocktime": 1537874412, "version": 1, "confirmations": 11467, "time": 1537874412, "locktime": 0, "vsize": 369, "size": 369}