{"hash": "59be4347564f5c41ab0d8655675a756272f3246d9181fd54d9a478095acd95d8", "blockhash": "0000000000000000000dcc0f55137456b1a82d3642486a52398922ac4d620174", "vout": [{"scriptPubKey": {"reqSigs": 1, "hex": "a914c9d7bc4b8de73f287dab8d8749c696d99ec5981987", "addresses": ["3L6GBfkXm3Jo3QPtFRU8vnsZikm5Ej6Hvd"], "asm": "OP_HASH160 c9d7bc4b8de73f287dab8d8749c696d99ec59819 OP_EQUAL", "type": "scripthash"}, "value": 0.00277152, "n": 0}, {"scriptPubKey": {"reqSigs": 1, "hex": "a914720c6da9ab6d731f6e2aa0cbdf9f2453e09a45b187", "addresses": ["3C63qx6UyCSji9GDTPFu3JFTSnLKtZo91r"], "asm": "OP_HASH160 720c6da9ab6d731f6e2aa0cbdf9f2453e09a45b1 OP_EQUAL", "type": "scripthash"}, "value": 0.07162999, "n": 1}], "hex": "01000000018d66b4565f9c1d852b4c3349913d0761cad6e4c8cc1d2002c3ca159acb83987201000000da0047304402201d8725b534600144156ba1501bf7a1474945e04a7dbd67c9afdff7d397c2707202201b51cc0487d0802113b13377d4ac058d429faab1686f1779a9450aa50d9ab97701483045022100cba5f477e325c4c5b7f3dfd0fd6219efc8ccd50f3bb5556486e2d9189f7589da02201dc373b359558736d0f45cea9e23e2a964689da8ea5df6b46d538189856118c20147522103f2d250ed5140d655fe49f9b9f857ff223c9290b9bbe8b68a50d522cf45e633702102045f2de7b3abee8ca375163a8879a6719ef3e6d7ffc88aa3008e11b5b89eb7ee52aeffffffff02a03a04000000000017a914c9d7bc4b8de73f287dab8d8749c696d99ec5981987774c6d000000000017a914720c6da9ab6d731f6e2aa0cbdf9f2453e09a45b18700000000", "vin": [{"sequence": 4294967295, "scriptSig": {"hex": "0047304402201d8725b534600144156ba1501bf7a1474945e04a7dbd67c9afdff7d397c2707202201b51cc0487d0802113b13377d4ac058d429faab1686f1779a9450aa50d9ab97701483045022100cba5f477e325c4c5b7f3dfd0fd6219efc8ccd50f3bb5556486e2d9189f7589da02201dc373b359558736d0f45cea9e23e2a964689da8ea5df6b46d538189856118c20147522103f2d250ed5140d655fe49f9b9f857ff223c9290b9bbe8b68a50d522cf45e633702102045f2de7b3abee8ca375163a8879a6719ef3e6d7ffc88aa3008e11b5b89eb7ee52ae", "asm": "0 304402201d8725b534600144156ba1501bf7a1474945e04a7dbd67c9afdff7d397c2707202201b51cc0487d0802113b13377d4ac058d429faab1686f1779a9450aa50d9ab977[ALL] 3045022100cba5f477e325c4c5b7f3dfd0fd6219efc8ccd50f3bb5556486e2d9189f7589da02201dc373b359558736d0f45cea9e23e2a964689da8ea5df6b46d538189856118c2[ALL] 522103f2d250ed5140d655fe49f9b9f857ff223c9290b9bbe8b68a50d522cf45e633702102045f2de7b3abee8ca375163a8879a6719ef3e6d7ffc88aa3008e11b5b89eb7ee52ae"}, "vout": 1, "txid": "729883cb9a15cac302201dccc8e4d6ca61073d9149334c2b851d9c5f56b4668d"}], "txid": "59be4347564f5c41ab0d8655675a756272f3246d9181fd54d9a478095acd95d8", "blocktime": 1537870268, "version": 1, "confirmations": 11516, "time": 1537870268, "locktime": 0, "vsize": 333, "size": 333}