{"hash": "59c360f763165b56e3929a609ffa852d6cc31e1cf5940f83b58318c3b686b91c", "blockhash": "000000000000000000205f8b0775d31398ef75b89a5e8ec8d2c57b4dc0ac4c20", "vout": [{"scriptPubKey": {"reqSigs": 1, "hex": "a914c2706fc9c3c20f4b7057203c178374491bdc591987", "addresses": ["3KR7hziArngx9dmsqGig9iW2N3Xq5oS2t9"], "asm": "OP_HASH160 c2706fc9c3c20f4b7057203c178374491bdc5919 OP_EQUAL", "type": "scripthash"}, "value": 0.0112, "n": 0}, {"scriptPubKey": {"reqSigs": 1, "hex": "76a914d5ba2eb2d52670fbe9522748bf642da754eb0d6f88ac", "addresses": ["1LV5y3NkVkmdWnF6xRCEXrAnUkRgge4KSq"], "asm": "OP_DUP OP_HASH160 d5ba2eb2d52670fbe9522748bf642da754eb0d6f OP_EQUALVERIFY OP_CHECKSIG", "type": "pubkeyhash"}, "value": 16.03361411, "n": 1}], "hex": "010000000132e12aa2d143762f98f0439c07a18a1f3af3b08d4f8672651fafce1a29861515010000006a47304402205fa287254e8b265b9ead43328c456694785a9e47245627bbcd1bf91935a6d59f02201ec20570c9d0f587d79c2a4b19608ea454cd6971303bb152a58cdfade07aa060012102c19ebc0e7fe714e24c55adaeebc7dbab2dc9a208b511bd1b6e83db85506d4d19ffffffff02001711000000000017a914c2706fc9c3c20f4b7057203c178374491bdc591987835a915f000000001976a914d5ba2eb2d52670fbe9522748bf642da754eb0d6f88ac00000000", "vin": [{"sequence": 4294967295, "scriptSig": {"hex": "47304402205fa287254e8b265b9ead43328c456694785a9e47245627bbcd1bf91935a6d59f02201ec20570c9d0f587d79c2a4b19608ea454cd6971303bb152a58cdfade07aa060012102c19ebc0e7fe714e24c55adaeebc7dbab2dc9a208b511bd1b6e83db85506d4d19", "asm": "304402205fa287254e8b265b9ead43328c456694785a9e47245627bbcd1bf91935a6d59f02201ec20570c9d0f587d79c2a4b19608ea454cd6971303bb152a58cdfade07aa060[ALL] 02c19ebc0e7fe714e24c55adaeebc7dbab2dc9a208b511bd1b6e83db85506d4d19"}, "vout": 1, "txid": "151586291aceaf1f6572864f8db0f33a1f8aa1079c43f0982f7643d1a22ae132"}], "txid": "59c360f763165b56e3929a609ffa852d6cc31e1cf5940f83b58318c3b686b91c", "blocktime": 1537871175, "version": 1, "confirmations": 11511, "time": 1537871175, "locktime": 0, "vsize": 223, "size": 223}