{"hash": "59c7b03d9f3ecf60ec9e3f6eb407be591a2cfa94e16b9d13f4bbc5315c9b5ef0", "blockhash": "0000000000000000000e13cef7c366c0283d82e591d1acd082e914b08063cdf1", "vout": [{"scriptPubKey": {"reqSigs": 1, "hex": "76a9149c5deadf5a2b2a1cc9e3cb661e55106a6fd9fb2b88ac", "addresses": ["1FFnvRhPxYHmyTPTws2DroZSiVubZg7j3m"], "asm": "OP_DUP OP_HASH160 9c5deadf5a2b2a1cc9e3cb661e55106a6fd9fb2b OP_EQUALVERIFY OP_CHECKSIG", "type": "pubkeyhash"}, "value": 0.06563487, "n": 0}, {"scriptPubKey": {"reqSigs": 1, "hex": "76a914fdb30c8eeb0c730a923210b5c832d9ec4add6ab888ac", "addresses": ["1Q8ST5cjWWgPcoXdaCDPyjhQzg1KvCQQrm"], "asm": "OP_DUP OP_HASH160 fdb30c8eeb0c730a923210b5c832d9ec4add6ab8 OP_EQUALVERIFY OP_CHECKSIG", "type": "pubkeyhash"}, "value": 0.1039007, "n": 1}], "hex": "0100000001970ba818ee6ff6c67b236a8c49107851401f9d2686d050db71de2abefd09c7cb010000006b483045022100db13da53967097a64ba161415860d2236a8ddb43acd27fd78cd44b8a11c2741c02206140643caf95ff12e8a890f6fea1baa417cc433d0d48825221cee3a536ec96c1012103edb758e0d94ab781c40299179774be578fac07d47179cf433eecd5bfe905ba20fdffffff029f266400000000001976a9149c5deadf5a2b2a1cc9e3cb661e55106a6fd9fb2b88ac368a9e00000000001976a914fdb30c8eeb0c730a923210b5c832d9ec4add6ab888ac0f490800", "vin": [{"sequence": 4294967293, "scriptSig": {"hex": "483045022100db13da53967097a64ba161415860d2236a8ddb43acd27fd78cd44b8a11c2741c02206140643caf95ff12e8a890f6fea1baa417cc433d0d48825221cee3a536ec96c1012103edb758e0d94ab781c40299179774be578fac07d47179cf433eecd5bfe905ba20", "asm": "3045022100db13da53967097a64ba161415860d2236a8ddb43acd27fd78cd44b8a11c2741c02206140643caf95ff12e8a890f6fea1baa417cc433d0d48825221cee3a536ec96c1[ALL] 03edb758e0d94ab781c40299179774be578fac07d47179cf433eecd5bfe905ba20"}, "vout": 1, "txid": "cbc709fdbe2ade71db50d086269d1f40517810498c6a237bc6f66fee18a80b97"}], "txid": "59c7b03d9f3ecf60ec9e3f6eb407be591a2cfa94e16b9d13f4bbc5315c9b5ef0", "blocktime": 1537871767, "version": 1, "confirmations": 11493, "time": 1537871767, "locktime": 542991, "vsize": 226, "size": 226}