{"hash": "7e72fed0d86fdbddf91b43d11eacb99f8c932d51b1e02cf3aed883aac1c0a345", "blockhash": "0000000000000000001f76057863aec43deb6fa401d9628bb513d65a8098bfab", "vout": [{"scriptPubKey": {"reqSigs": 1, "hex": "76a91445c30f7293864a8b149b1093e230e6e13e96909288ac", "addresses": ["17MsJGTPVAGwYRP6mhugVZ5a3JZeYriesC"], "asm": "OP_DUP OP_HASH160 45c30f7293864a8b149b1093e230e6e13e969092 OP_EQUALVERIFY OP_CHECKSIG", "type": "pubkeyhash"}, "value": 0.0040586, "n": 0}, {"scriptPubKey": {"reqSigs": 1, "hex": "a91487cf10c11ea462425495bfe2311ecc3be1e383fa87", "addresses": ["3E57CbmkUjGpL4SJ2QQgUZaHQUuvUsGDma"], "asm": "OP_HASH160 87cf10c11ea462425495bfe2311ecc3be1e383fa OP_EQUAL", "type": "scripthash"}, "value": 0.0102776, "n": 1}], "hex": "02000000000102e038c8aec7a6e2527bf2530af5347e6e641e811289242167002806d03e89e0ac0000000017160014d743e3bae267507c145074be8fd22bacbce94e70fefffffff5a194308526f031e7240c4b3d29830c501e2d410e662aa31c56720b9cd79da50700000017160014acf0375eb493534da368ccc174d22c306501a445feffffff0264310600000000001976a91445c30f7293864a8b149b1093e230e6e13e96909288acb0ae0f000000000017a91487cf10c11ea462425495bfe2311ecc3be1e383fa87024730440220204a6ca38281d98792ee2a5be2edb1fc2b894f0bed09b16830ccd355094d1d6702204dae3f6e8d859e92c7b8ea7a96bbb79efbe4f8d0eeee46641fac947e7c739302012102999aceac75b0fb539df9f2745760441c6029c65f3bbe6cb2e7a8949ef5e09f9002483045022100dbeb4fdc1177d9b0f60ceb5cc80928878b1497113e99c9db94cc99dde9a3a14a02206af1a49e361ae8b5384dbd7a9bb5d42227d9ade4c92e9d547c220f2a123626d0012103ed2e5bead08adf7fa7f3f10fa946fffee9e2955b915970878b59a2412d4a70fc13490800", "vin": [{"txinwitness": ["30440220204a6ca38281d98792ee2a5be2edb1fc2b894f0bed09b16830ccd355094d1d6702204dae3f6e8d859e92c7b8ea7a96bbb79efbe4f8d0eeee46641fac947e7c73930201", "02999aceac75b0fb539df9f2745760441c6029c65f3bbe6cb2e7a8949ef5e09f90"], "sequence": 4294967294, "scriptSig": {"hex": "160014d743e3bae267507c145074be8fd22bacbce94e70", "asm": "0014d743e3bae267507c145074be8fd22bacbce94e70"}, "vout": 0, "txid": "ace0893ed00628006721248912811e646e7e34f50a53f27b52e2a6c7aec838e0"}, {"txinwitness": ["3045022100dbeb4fdc1177d9b0f60ceb5cc80928878b1497113e99c9db94cc99dde9a3a14a02206af1a49e361ae8b5384dbd7a9bb5d42227d9ade4c92e9d547c220f2a123626d001", "03ed2e5bead08adf7fa7f3f10fa946fffee9e2955b915970878b59a2412d4a70fc"], "sequence": 4294967294, "scriptSig": {"hex": "160014acf0375eb493534da368ccc174d22c306501a445", "asm": "0014acf0375eb493534da368ccc174d22c306501a445"}, "vout": 7, "txid": "a59dd79c0b72561ca32a660e412d1e500c83293d4b0c24e731f026853094a1f5"}], "txid": "59c8bd6045c35a62dfb7bba92d876594e15f088ca247442a96eaacc497ecd219", "blocktime": 1537873891, "version": 2, "confirmations": 11478, "time": 1537873891, "locktime": 542995, "vsize": 259, "size": 421}