{"hash": "59c96323675b8ee1bfc244042c011d8929e92778c8cd75a5c66ef0d021ddf854", "blockhash": "0000000000000000001f76057863aec43deb6fa401d9628bb513d65a8098bfab", "vout": [{"scriptPubKey": {"reqSigs": 1, "hex": "a91480e537c7db22d3469c8f7e154e9ba0fe07088ca787", "addresses": ["3DSZ1SGaaFftkapfCf6rgUSMhxzEes2SZ2"], "asm": "OP_HASH160 80e537c7db22d3469c8f7e154e9ba0fe07088ca7 OP_EQUAL", "type": "scripthash"}, "value": 0.200323, "n": 0}, {"scriptPubKey": {"reqSigs": 1, "hex": "76a914b2e57ffb8e4c61fce7bf479af1ee7e7ae2112b9888ac", "addresses": ["1HJvD5gKawjqZtmfkXPUD1FkcFCj653uQ9"], "asm": "OP_DUP OP_HASH160 b2e57ffb8e4c61fce7bf479af1ee7e7ae2112b98 OP_EQUALVERIFY OP_CHECKSIG", "type": "pubkeyhash"}, "value": 0.008, "n": 1}], "hex": "0200000001a25f80d2af1e423a93c130cc944819520eda60ca724d1bd34561f46ae7d1fc1900000000fdfd0000483045022100f3804f61adfce2d63e97c4026002efb58ebab5db17d280108a733ee49d90f6d702202f62d3b73584f96fafdd73483699bb108f36b347a7e75ee9453401987a1eaf120147304402202245c5596afb7e163a045e8c7e9d75d2bc4a475894e579786c95a03b2d60d0db0220148a872fb8b69ae9ebb7f0f6c0dcffe6dd276d23123ce591c0dc3298c538cde8014c695221025ed55eeb1981792cd856879ec3c23cbbb41a3234a4cf739a4b59e6ebc6e2dd782103966be3a27b04fbc92782f966fdf28b2ea63a190f0a6418c9a28da646954b338c210291a3483448daa251b672a74f17f80f2b84d76be6063fcf1c3f564660bd7b2f2153ae00000000022cab31010000000017a91480e537c7db22d3469c8f7e154e9ba0fe07088ca78700350c00000000001976a914b2e57ffb8e4c61fce7bf479af1ee7e7ae2112b9888ac00000000", "vin": [{"sequence": 0, "scriptSig": {"hex": "00483045022100f3804f61adfce2d63e97c4026002efb58ebab5db17d280108a733ee49d90f6d702202f62d3b73584f96fafdd73483699bb108f36b347a7e75ee9453401987a1eaf120147304402202245c5596afb7e163a045e8c7e9d75d2bc4a475894e579786c95a03b2d60d0db0220148a872fb8b69ae9ebb7f0f6c0dcffe6dd276d23123ce591c0dc3298c538cde8014c695221025ed55eeb1981792cd856879ec3c23cbbb41a3234a4cf739a4b59e6ebc6e2dd782103966be3a27b04fbc92782f966fdf28b2ea63a190f0a6418c9a28da646954b338c210291a3483448daa251b672a74f17f80f2b84d76be6063fcf1c3f564660bd7b2f2153ae", "asm": "0 3045022100f3804f61adfce2d63e97c4026002efb58ebab5db17d280108a733ee49d90f6d702202f62d3b73584f96fafdd73483699bb108f36b347a7e75ee9453401987a1eaf12[ALL] 304402202245c5596afb7e163a045e8c7e9d75d2bc4a475894e579786c95a03b2d60d0db0220148a872fb8b69ae9ebb7f0f6c0dcffe6dd276d23123ce591c0dc3298c538cde8[ALL] 5221025ed55eeb1981792cd856879ec3c23cbbb41a3234a4cf739a4b59e6ebc6e2dd782103966be3a27b04fbc92782f966fdf28b2ea63a190f0a6418c9a28da646954b338c210291a3483448daa251b672a74f17f80f2b84d76be6063fcf1c3f564660bd7b2f2153ae"}, "vout": 0, "txid": "19fcd1e76af46145d31b4d72ca60da0e52194894cc30c1933a421eafd2805fa2"}], "txid": "59c96323675b8ee1bfc244042c011d8929e92778c8cd75a5c66ef0d021ddf854", "blocktime": 1537873891, "version": 2, "confirmations": 11475, "time": 1537873891, "locktime": 0, "vsize": 372, "size": 372}