{"hash": "59ce3c9a369c8a0d5854aea0b04ab94ff0dba6da85c471c6b8958a9631e485fe", "blockhash": "0000000000000000000dcc0f55137456b1a82d3642486a52398922ac4d620174", "vout": [{"scriptPubKey": {"reqSigs": 1, "hex": "76a914686275f4882d1b5e2b34766393a33a0864cf054888ac", "addresses": ["1AWwE8CPs7qMxAuBqdhBFQEoeodsnWM2Ju"], "asm": "OP_DUP OP_HASH160 686275f4882d1b5e2b34766393a33a0864cf0548 OP_EQUALVERIFY OP_CHECKSIG", "type": "pubkeyhash"}, "value": 0.0008584, "n": 0}, {"scriptPubKey": {"type": "nulldata", "hex": "6a4c50000077690001e16adf787b9c776d180ae71886aeaeacb577c031fc3a016b46dc7dc7d096767c5c8e047d65f6f2e17fb8c48d12e95baa083406136613f5d78da1bc9a9526289ac0f6612cd74e33776ee4", "asm": "OP_RETURN 000077690001e16adf787b9c776d180ae71886aeaeacb577c031fc3a016b46dc7dc7d096767c5c8e047d65f6f2e17fb8c48d12e95baa083406136613f5d78da1bc9a9526289ac0f6612cd74e33776ee4"}, "value": 0.0, "n": 1}], "hex": "01000000017ba6d5f1508f7d79de395727f9f02d06599c2ddc303fefd6da2641b53e40f93b000000006a47304402206868358aeb8e593e66ee640cdbfb7717abe295d23c1d4e7b581918baf592f36a02204650e04cc63e57a4464c572ce32d60c4e063c95e6769145b5459b62ed65336fb012103660694527e854e884284f3e62b34c8523d3ecb1e69b186661e69a6424fece1dfffffffff02504f0100000000001976a914686275f4882d1b5e2b34766393a33a0864cf054888ac0000000000000000536a4c50000077690001e16adf787b9c776d180ae71886aeaeacb577c031fc3a016b46dc7dc7d096767c5c8e047d65f6f2e17fb8c48d12e95baa083406136613f5d78da1bc9a9526289ac0f6612cd74e33776ee400000000", "vin": [{"sequence": 4294967295, "scriptSig": {"hex": "47304402206868358aeb8e593e66ee640cdbfb7717abe295d23c1d4e7b581918baf592f36a02204650e04cc63e57a4464c572ce32d60c4e063c95e6769145b5459b62ed65336fb012103660694527e854e884284f3e62b34c8523d3ecb1e69b186661e69a6424fece1df", "asm": "304402206868358aeb8e593e66ee640cdbfb7717abe295d23c1d4e7b581918baf592f36a02204650e04cc63e57a4464c572ce32d60c4e063c95e6769145b5459b62ed65336fb[ALL] 03660694527e854e884284f3e62b34c8523d3ecb1e69b186661e69a6424fece1df"}, "vout": 0, "txid": "3bf9403eb54126dad6ef3f30dc2d9c59062df0f9275739de797d8f50f1d5a67b"}], "txid": "59ce3c9a369c8a0d5854aea0b04ab94ff0dba6da85c471c6b8958a9631e485fe", "blocktime": 1537870268, "version": 1, "confirmations": 11518, "time": 1537870268, "locktime": 0, "vsize": 283, "size": 283}