{"hash": "bd651fe7f0bd06b2babbb10ddb9526e622471d2059704c225e93045583139424", "blockhash": "0000000000000000001f76057863aec43deb6fa401d9628bb513d65a8098bfab", "vout": [{"scriptPubKey": {"reqSigs": 1, "hex": "a91472c09c91c47b864dc00cd1d735d96d521d246d9b87", "addresses": ["3C9mhJQfTfvMnqnFX73jNdVFWUD49qerEJ"], "asm": "OP_HASH160 72c09c91c47b864dc00cd1d735d96d521d246d9b OP_EQUAL", "type": "scripthash"}, "value": 0.01060878, "n": 0}, {"scriptPubKey": {"reqSigs": 1, "hex": "76a9145765d151ed725076ca70edb9a867a436b6c7233a88ac", "addresses": ["18y7m72yCMavcJEG7DPQstZkUSUV5vt2hB"], "asm": "OP_DUP OP_HASH160 5765d151ed725076ca70edb9a867a436b6c7233a OP_EQUALVERIFY OP_CHECKSIG", "type": "pubkeyhash"}, "value": 0.0027856, "n": 1}], "hex": "02000000000102059a8e798591317fd2a38e9073ff03ef950f2d5008075af4a1654279f9f9bda7010000001716001452fa69930ff5a85f69ec7194df355fbbd58ac5b7feffffff52c298678100b57858ba91fcda59d0bf3ee25acffca8082183ff0c2ba163a0f20100000017160014d167cfdae0e5fde4b622321eaeb8a4e0c31aca84feffffff020e3010000000000017a91472c09c91c47b864dc00cd1d735d96d521d246d9b8720400400000000001976a9145765d151ed725076ca70edb9a867a436b6c7233a88ac024730440220350c0533f0f169a54f7307211c8e096f77b0ec078c898f987c2c1222b4047bb3022003113344c07a51b03e1812a97790db607393d5aa0890d8856670a388c55e2071012102b449bfcfe839af01129430c12e80ac864d69a6e3ca31f2c46f8649305b20325d02483045022100e9789219f9c9e460aa776bfada957179c7f618f19a6b2c577a52782e7a9f935f02203734efe95cd4e9cc39b6188d6ed5710fc197b7d3b78a1d45392983a5a78762bc01210233278cf0c82cebf320b1a4eb05caecc1d313d5416e65001df7fe542cc9355a5714490800", "vin": [{"txinwitness": ["30440220350c0533f0f169a54f7307211c8e096f77b0ec078c898f987c2c1222b4047bb3022003113344c07a51b03e1812a97790db607393d5aa0890d8856670a388c55e207101", "02b449bfcfe839af01129430c12e80ac864d69a6e3ca31f2c46f8649305b20325d"], "sequence": 4294967294, "scriptSig": {"hex": "16001452fa69930ff5a85f69ec7194df355fbbd58ac5b7", "asm": "001452fa69930ff5a85f69ec7194df355fbbd58ac5b7"}, "vout": 1, "txid": "a7bdf9f9794265a1f45a0708502d0f95ef03ff73908ea3d27f319185798e9a05"}, {"txinwitness": ["3045022100e9789219f9c9e460aa776bfada957179c7f618f19a6b2c577a52782e7a9f935f02203734efe95cd4e9cc39b6188d6ed5710fc197b7d3b78a1d45392983a5a78762bc01", "0233278cf0c82cebf320b1a4eb05caecc1d313d5416e65001df7fe542cc9355a57"], "sequence": 4294967294, "scriptSig": {"hex": "160014d167cfdae0e5fde4b622321eaeb8a4e0c31aca84", "asm": "0014d167cfdae0e5fde4b622321eaeb8a4e0c31aca84"}, "vout": 1, "txid": "f2a063a12b0cff832108a8fccf5ae23ebfd059dafc91ba5878b500816798c252"}], "txid": "59e0bd91aaa1cd5a07e96eb05730b7ae6acddce25ab0b0d02410be4bcb465cea", "blocktime": 1537873891, "version": 2, "confirmations": 11478, "time": 1537873891, "locktime": 542996, "vsize": 259, "size": 421}