{"hash": "59e5a07ac1b0daa2bab8cd35e7bdff400df4a00e0e931403b02ec1515b5d8618", "blockhash": "0000000000000000001cda96e906b7601b7a6fb1a3b62bca570a9e5d8f4b3de1", "vout": [{"scriptPubKey": {"reqSigs": 1, "hex": "a9149d1c92bbce0cdca860491b6be8ed779d3681e72087", "addresses": ["3G1kExetEXJPwyDeVHBE58b8CZVJNMrjPJ"], "asm": "OP_HASH160 9d1c92bbce0cdca860491b6be8ed779d3681e720 OP_EQUAL", "type": "scripthash"}, "value": 0.00041767, "n": 0}], "hex": "0100000001f7b5f016728d761cc47ccf894ee28fa8c9452c8b5f5488ebdff0a753a78d4fd1130000006a473044022058cbffe30efaf98fe066344dd10ae7e76ed0b6075332f75af38c8c53db7ffa0302207548ed74193bd64b766a0801aea2c5bbc686c52a2fcb5ff681d3808b870e94c0012102c0a019bb090e31b7efebae0bd5d0d8cf5f2a4ca9361abffd76c276d20fdd42d6fdffffff0127a300000000000017a9149d1c92bbce0cdca860491b6be8ed779d3681e7208713490800", "vin": [{"sequence": 4294967293, "scriptSig": {"hex": "473044022058cbffe30efaf98fe066344dd10ae7e76ed0b6075332f75af38c8c53db7ffa0302207548ed74193bd64b766a0801aea2c5bbc686c52a2fcb5ff681d3808b870e94c0012102c0a019bb090e31b7efebae0bd5d0d8cf5f2a4ca9361abffd76c276d20fdd42d6", "asm": "3044022058cbffe30efaf98fe066344dd10ae7e76ed0b6075332f75af38c8c53db7ffa0302207548ed74193bd64b766a0801aea2c5bbc686c52a2fcb5ff681d3808b870e94c0[ALL] 02c0a019bb090e31b7efebae0bd5d0d8cf5f2a4ca9361abffd76c276d20fdd42d6"}, "vout": 19, "txid": "d14f8da753a7f0dfeb88545f8b2c45c9a88fe24e89cf7cc41c768d7216f0b5f7"}], "txid": "59e5a07ac1b0daa2bab8cd35e7bdff400df4a00e0e931403b02ec1515b5d8618", "blocktime": 1537873282, "version": 1, "confirmations": 11485, "time": 1537873282, "locktime": 542995, "vsize": 189, "size": 189}