{"hash": "993dce8df418ffa493eb99c5c4ddf741f977e9a34836344093c096a6bda3892e", "blockhash": "0000000000000000000dcc0f55137456b1a82d3642486a52398922ac4d620174", "vout": [{"scriptPubKey": {"reqSigs": 1, "hex": "a914af894f8ce80015a4398cc73254b00e90396c2c8687", "addresses": ["3HhAfdbg54EYuGaHA5s2dpYq7jmEKBo2M4"], "asm": "OP_HASH160 af894f8ce80015a4398cc73254b00e90396c2c86 OP_EQUAL", "type": "scripthash"}, "value": 0.001, "n": 0}, {"scriptPubKey": {"reqSigs": 1, "hex": "a9149649ad6d2730bb28020a268d9d80df10a9f74ad487", "addresses": ["3FPfYWwfMfKMGY7fuPHvz2b73RhTNGzsm3"], "asm": "OP_HASH160 9649ad6d2730bb28020a268d9d80df10a9f74ad4 OP_EQUAL", "type": "scripthash"}, "value": 13.97965667, "n": 1}], "hex": "010000000001010bceb1ca0781aef3e7d9a6508aa8420eb575c2ffee8712aa906e589995ad2bbb01000000232200207768efcc1e5eb3d28410fac3f45831004c860cc24cddd940a616b34324823fceffffffff02a08601000000000017a914af894f8ce80015a4398cc73254b00e90396c2c8687634353530000000017a9149649ad6d2730bb28020a268d9d80df10a9f74ad487040047304402207456c20ec6f5d784753a45a2d9d03c95878c517bb1465f5eb88d913ddd21944902204a8c01f092ce2091c0d4f4a17cb4939c04a1531eee339fd011a0ec77c305edcf014830450221009ab012f4895ebca11b14a32bb937fe522fd6179f87e19af1d10507559bc50eb9022048ca71cc7238a8cf5a7101c274a255482a4036b1cc46a7c38b2f944da9f37a8e0147522102529d5d1f6733ab45d9d50e07db42c7f6b967ae321c38b726c2247f149959b8262103d0c936a5988dd8421c63240496b723b0ec42400c38b9350e32c2eb4f47d8796952ae00000000", "vin": [{"txinwitness": ["", "304402207456c20ec6f5d784753a45a2d9d03c95878c517bb1465f5eb88d913ddd21944902204a8c01f092ce2091c0d4f4a17cb4939c04a1531eee339fd011a0ec77c305edcf01", "30450221009ab012f4895ebca11b14a32bb937fe522fd6179f87e19af1d10507559bc50eb9022048ca71cc7238a8cf5a7101c274a255482a4036b1cc46a7c38b2f944da9f37a8e01", "522102529d5d1f6733ab45d9d50e07db42c7f6b967ae321c38b726c2247f149959b8262103d0c936a5988dd8421c63240496b723b0ec42400c38b9350e32c2eb4f47d8796952ae"], "sequence": 4294967295, "scriptSig": {"hex": "2200207768efcc1e5eb3d28410fac3f45831004c860cc24cddd940a616b34324823fce", "asm": "00207768efcc1e5eb3d28410fac3f45831004c860cc24cddd940a616b34324823fce"}, "vout": 1, "txid": "bb2bad9599586e90aa1287eeffc275b50e42a88a50a6d9e7f3ae8107cab1ce0b"}], "txid": "59e815994ecde4259a7650d6cc1c34d81863ae32b631f6bbe9f8f5046bfa9237", "blocktime": 1537870268, "version": 1, "confirmations": 11518, "time": 1537870268, "locktime": 0, "vsize": 206, "size": 371}