{"hash": "59ea9bdfd4101983b29e7382ecfea1611de0181d4c072a6f4604025abd9a2715", "blockhash": "0000000000000000001e0dab787dd257d1dbfcb92a98c2207d5e1078be1f4165", "vout": [{"scriptPubKey": {"reqSigs": 1, "hex": "a91412fd088e829d297ce0926f321f8ee3a126bad15a87", "addresses": ["33RRD4rVsoq6uzPsF1bDKGn8m4vJkWytVb"], "asm": "OP_HASH160 12fd088e829d297ce0926f321f8ee3a126bad15a OP_EQUAL", "type": "scripthash"}, "value": 0.011639, "n": 0}, {"scriptPubKey": {"reqSigs": 1, "hex": "76a914e6b33a32b365a81e35f0f2395f990419a038d2cc88ac", "addresses": ["1N2q84Am7CYuvoEcYUt1N59xzbwg9gUDCD"], "asm": "OP_DUP OP_HASH160 e6b33a32b365a81e35f0f2395f990419a038d2cc OP_EQUALVERIFY OP_CHECKSIG", "type": "pubkeyhash"}, "value": 0.038339, "n": 1}], "hex": "010000000152f51adbe9aa22e417b6cdf52f8993649403dabb5cf1abf806a539ff77d11ba3000000006a4730440220063e642ba569347fbd2ddabda08f167ed1a1b71bee545be4b5192b10264b5e2102205560ad1683968866a3e995333b07b7c011c46edc3b30ce0f729d462df3f05b56012102f9507343153f7f8e27c5eca686c59a2787ee1a4cedaf9b378ef2f1ba14ddcbd2ffffffff027cc211000000000017a91412fd088e829d297ce0926f321f8ee3a126bad15a872c803a00000000001976a914e6b33a32b365a81e35f0f2395f990419a038d2cc88ac00000000", "vin": [{"sequence": 4294967295, "scriptSig": {"hex": "4730440220063e642ba569347fbd2ddabda08f167ed1a1b71bee545be4b5192b10264b5e2102205560ad1683968866a3e995333b07b7c011c46edc3b30ce0f729d462df3f05b56012102f9507343153f7f8e27c5eca686c59a2787ee1a4cedaf9b378ef2f1ba14ddcbd2", "asm": "30440220063e642ba569347fbd2ddabda08f167ed1a1b71bee545be4b5192b10264b5e2102205560ad1683968866a3e995333b07b7c011c46edc3b30ce0f729d462df3f05b56[ALL] 02f9507343153f7f8e27c5eca686c59a2787ee1a4cedaf9b378ef2f1ba14ddcbd2"}, "vout": 0, "txid": "a31bd177ff39a506f8abf15cbbda03946493892ff5cdb617e422aae9db1af552"}], "txid": "59ea9bdfd4101983b29e7382ecfea1611de0181d4c072a6f4604025abd9a2715", "blocktime": 1537872475, "version": 1, "confirmations": 11486, "time": 1537872475, "locktime": 0, "vsize": 223, "size": 223}