{"hash": "59ec23d8ecdcf50f6f1da67c265c0e1fb1540cc352b30983e119ab7e951bf8d1", "blockhash": "0000000000000000001f76057863aec43deb6fa401d9628bb513d65a8098bfab", "vout": [{"scriptPubKey": {"reqSigs": 1, "hex": "a9140a2be017c07111264e8eb70455040bbdc4528ba387", "addresses": ["32coEyYT9fZXAm6wYE89st5hmteeQGsCA7"], "asm": "OP_HASH160 0a2be017c07111264e8eb70455040bbdc4528ba3 OP_EQUAL", "type": "scripthash"}, "value": 0.0034096, "n": 0}, {"scriptPubKey": {"reqSigs": 1, "hex": "76a9143dfdd95dcd4f2d232cac5fde32acd81a3c26546288ac", "addresses": ["16enKSqZQp9E1rZcf7SuK36noXKwuLeiRv"], "asm": "OP_DUP OP_HASH160 3dfdd95dcd4f2d232cac5fde32acd81a3c265462 OP_EQUALVERIFY OP_CHECKSIG", "type": "pubkeyhash"}, "value": 0.03044087, "n": 1}], "hex": "010000000148956d8f6672afb865da13826d439e5803544c6eb4bd88a43b29981225295130010000006a47304402204eaee8eb064ba9560066d4062a78c572d3cbd41d74034cf7c1b210cc7b7923d2022055fc95269fc3885ba5ad532d95cfbdd5f7e91aa08405c465d578bec943a4fc51012103ed9e550a7618a9fc00513ea639967cd206501dc52ac7ccd59942c44374cb64deffffffff02e03305000000000017a9140a2be017c07111264e8eb70455040bbdc4528ba387f7722e00000000001976a9143dfdd95dcd4f2d232cac5fde32acd81a3c26546288ac00000000", "vin": [{"sequence": 4294967295, "scriptSig": {"hex": "47304402204eaee8eb064ba9560066d4062a78c572d3cbd41d74034cf7c1b210cc7b7923d2022055fc95269fc3885ba5ad532d95cfbdd5f7e91aa08405c465d578bec943a4fc51012103ed9e550a7618a9fc00513ea639967cd206501dc52ac7ccd59942c44374cb64de", "asm": "304402204eaee8eb064ba9560066d4062a78c572d3cbd41d74034cf7c1b210cc7b7923d2022055fc95269fc3885ba5ad532d95cfbdd5f7e91aa08405c465d578bec943a4fc51[ALL] 03ed9e550a7618a9fc00513ea639967cd206501dc52ac7ccd59942c44374cb64de"}, "vout": 1, "txid": "305129251298293ba488bdb46e4c5403589e436d8213da65b8af72668f6d9548"}], "txid": "59ec23d8ecdcf50f6f1da67c265c0e1fb1540cc352b30983e119ab7e951bf8d1", "blocktime": 1537873891, "version": 1, "confirmations": 11475, "time": 1537873891, "locktime": 0, "vsize": 223, "size": 223}