{"hash": "59f49a09fef41bebf1cd30161f0b3418c0c7dd47c18bdd9ea61ec5653e41d97a", "blockhash": "0000000000000000000dcc0f55137456b1a82d3642486a52398922ac4d620174", "vout": [{"scriptPubKey": {"reqSigs": 1, "hex": "76a914ca6403bf1afa4d85bd6da313affa8a5cafb7fd5588ac", "addresses": ["1KT9JtXZnXcMmZ9UGZCVZVdDw6qMsqLLkY"], "asm": "OP_DUP OP_HASH160 ca6403bf1afa4d85bd6da313affa8a5cafb7fd55 OP_EQUALVERIFY OP_CHECKSIG", "type": "pubkeyhash"}, "value": 0.0002, "n": 0}, {"scriptPubKey": {"reqSigs": 1, "hex": "76a914c57e2f044d15f6213b6eed074089c625c82a4eb288ac", "addresses": ["1K1FHBjAo3v9taUvYSYssg5ZG827qGaypk"], "asm": "OP_DUP OP_HASH160 c57e2f044d15f6213b6eed074089c625c82a4eb2 OP_EQUALVERIFY OP_CHECKSIG", "type": "pubkeyhash"}, "value": 0.01013784, "n": 1}], "hex": "01000000038073977dd9a24f981cc7611af0b461685988274560bea3aa85d7a40351cfa26b000000006b483045022100936867a11332bc685f3a2cdbed4390662db7f8997355c04487e81697f3c5437e02203624feb80ebea2fee8faf7d2642bac43056c89c1e8c0738eba0fc57af88abe650121029b8d87406af2f9f8efead06f581d8cf9c6cbba2b8025250bac1aefc9874b885ffeffffff8073977dd9a24f981cc7611af0b461685988274560bea3aa85d7a40351cfa26b010000006b483045022100a0dd2ddbef8a67a264b99fe2671bb0305b99e3b044592f98a6af7e9bc71d706502202c09b63e32d6a36d7a0598c10dc82ce06c77be4b73ffa194264ccaa2109a7a5601210324f35cf245806dacda6ab2b296e2bfa4a1a486dfa30b607f2db7a117be9a03bcfeffffff4f654895eebe3c5091983a5cb10a21013a2d897a1c471841b7934818ac9dae29000000006a4730440220052d4870bb2f4fca7c1cba509947b8d423f3189dfc5602f1ec425183ed1cb71c022048ba4c1fe2a8c405d015166df6a543433bde0b5fe3f26828a61f3087a6b5c91801210324f35cf245806dacda6ab2b296e2bfa4a1a486dfa30b607f2db7a117be9a03bcfeffffff02204e0000000000001976a914ca6403bf1afa4d85bd6da313affa8a5cafb7fd5588ac18780f00000000001976a914c57e2f044d15f6213b6eed074089c625c82a4eb288ac0c490800", "vin": [{"sequence": 4294967294, "scriptSig": {"hex": "483045022100936867a11332bc685f3a2cdbed4390662db7f8997355c04487e81697f3c5437e02203624feb80ebea2fee8faf7d2642bac43056c89c1e8c0738eba0fc57af88abe650121029b8d87406af2f9f8efead06f581d8cf9c6cbba2b8025250bac1aefc9874b885f", "asm": "3045022100936867a11332bc685f3a2cdbed4390662db7f8997355c04487e81697f3c5437e02203624feb80ebea2fee8faf7d2642bac43056c89c1e8c0738eba0fc57af88abe65[ALL] 029b8d87406af2f9f8efead06f581d8cf9c6cbba2b8025250bac1aefc9874b885f"}, "vout": 0, "txid": "6ba2cf5103a4d785aaa3be60452788596861b4f01a61c71c984fa2d97d977380"}, {"sequence": 4294967294, "scriptSig": {"hex": "483045022100a0dd2ddbef8a67a264b99fe2671bb0305b99e3b044592f98a6af7e9bc71d706502202c09b63e32d6a36d7a0598c10dc82ce06c77be4b73ffa194264ccaa2109a7a5601210324f35cf245806dacda6ab2b296e2bfa4a1a486dfa30b607f2db7a117be9a03bc", "asm": "3045022100a0dd2ddbef8a67a264b99fe2671bb0305b99e3b044592f98a6af7e9bc71d706502202c09b63e32d6a36d7a0598c10dc82ce06c77be4b73ffa194264ccaa2109a7a56[ALL] 0324f35cf245806dacda6ab2b296e2bfa4a1a486dfa30b607f2db7a117be9a03bc"}, "vout": 1, "txid": "6ba2cf5103a4d785aaa3be60452788596861b4f01a61c71c984fa2d97d977380"}, {"sequence": 4294967294, "scriptSig": {"hex": "4730440220052d4870bb2f4fca7c1cba509947b8d423f3189dfc5602f1ec425183ed1cb71c022048ba4c1fe2a8c405d015166df6a543433bde0b5fe3f26828a61f3087a6b5c91801210324f35cf245806dacda6ab2b296e2bfa4a1a486dfa30b607f2db7a117be9a03bc", "asm": "30440220052d4870bb2f4fca7c1cba509947b8d423f3189dfc5602f1ec425183ed1cb71c022048ba4c1fe2a8c405d015166df6a543433bde0b5fe3f26828a61f3087a6b5c918[ALL] 0324f35cf245806dacda6ab2b296e2bfa4a1a486dfa30b607f2db7a117be9a03bc"}, "vout": 0, "txid": "29ae9dac184893b74118471c7a892d3a01210ab15c3a9891503cbeee9548654f"}], "txid": "59f49a09fef41bebf1cd30161f0b3418c0c7dd47c18bdd9ea61ec5653e41d97a", "blocktime": 1537870268, "version": 1, "confirmations": 11516, "time": 1537870268, "locktime": 542988, "vsize": 521, "size": 521}