{"hash": "59f7a46cab13d8bc6250f1da7909a14b0dab6b4757f542c298795dbaadd8a7d0", "blockhash": "000000000000000000022b45ed06c6f4ccd3cf7fb5ba4856ebd2e58215665228", "vout": [{"scriptPubKey": {"reqSigs": 1, "hex": "a9147c0618423a8a6e416e95fbad7e7f29435b9dbe2c87", "addresses": ["3Czo1oUZkjuAKqG1cpvgeZVbQmV7cu4oxQ"], "asm": "OP_HASH160 7c0618423a8a6e416e95fbad7e7f29435b9dbe2c OP_EQUAL", "type": "scripthash"}, "value": 0.00235464, "n": 0}], "hex": "01000000025f1b9c964da8d4522d5956cb9d605d51cd85fbc4762a99fbd473f7e465910972000000006a473044022046d2a9aef0f499155d80849510374c62481954249c7348d9943bce624f4425610220556ebd1c95d7dee9958ded8681a6ee1e5aba376c021f927d55b0bf0d7ca1598601210381791df74aa85f278292d9e84328b3b92418a2c46fa6aadd5319af2e0d47dd9dffffffff5a2a7ee48507f806488499c453826fed42a939b356e39e04a31c6f1a282c6ea8010000006a47304402206a88a43222b92f326893ca95aa479ba418adc519c351fdd7ca3a0a2152ec6fe00220049a20842ba1688ec661ef0dbc257c2eb9c22ffc3722cb236e5715c949d5b13f012103e51bdf92db9b96c2aa3eee6e13d9af2a03f96add7cabd14fd48defef289d8769ffffffff01c89703000000000017a9147c0618423a8a6e416e95fbad7e7f29435b9dbe2c8700000000", "vin": [{"sequence": 4294967295, "scriptSig": {"hex": "473044022046d2a9aef0f499155d80849510374c62481954249c7348d9943bce624f4425610220556ebd1c95d7dee9958ded8681a6ee1e5aba376c021f927d55b0bf0d7ca1598601210381791df74aa85f278292d9e84328b3b92418a2c46fa6aadd5319af2e0d47dd9d", "asm": "3044022046d2a9aef0f499155d80849510374c62481954249c7348d9943bce624f4425610220556ebd1c95d7dee9958ded8681a6ee1e5aba376c021f927d55b0bf0d7ca15986[ALL] 0381791df74aa85f278292d9e84328b3b92418a2c46fa6aadd5319af2e0d47dd9d"}, "vout": 0, "txid": "72099165e4f773d4fb992a76c4fb85cd515d609dcb56592d52d4a84d969c1b5f"}, {"sequence": 4294967295, "scriptSig": {"hex": "47304402206a88a43222b92f326893ca95aa479ba418adc519c351fdd7ca3a0a2152ec6fe00220049a20842ba1688ec661ef0dbc257c2eb9c22ffc3722cb236e5715c949d5b13f012103e51bdf92db9b96c2aa3eee6e13d9af2a03f96add7cabd14fd48defef289d8769", "asm": "304402206a88a43222b92f326893ca95aa479ba418adc519c351fdd7ca3a0a2152ec6fe00220049a20842ba1688ec661ef0dbc257c2eb9c22ffc3722cb236e5715c949d5b13f[ALL] 03e51bdf92db9b96c2aa3eee6e13d9af2a03f96add7cabd14fd48defef289d8769"}, "vout": 1, "txid": "a86e2c281a6f1ca3049ee356b339a942ed6f8253c499844806f80785e47e2a5a"}], "txid": "59f7a46cab13d8bc6250f1da7909a14b0dab6b4757f542c298795dbaadd8a7d0", "blocktime": 1537869901, "version": 1, "confirmations": 11522, "time": 1537869901, "locktime": 0, "vsize": 336, "size": 336}