{"hash": "59ff95153cd0df1ddba1b34da75b4c79e7f638d714a49e00f922ae59fceef711", "blockhash": "0000000000000000000baef3f32e3676a92c3b2e5da21b426e4f302fc371ce76", "vout": [{"scriptPubKey": {"reqSigs": 1, "hex": "a9145654e0d32a88be6550a49440588d048cc288d88f87", "addresses": ["39ZViUzXHojUanchsawrXGNTq8gqA4KC1F"], "asm": "OP_HASH160 5654e0d32a88be6550a49440588d048cc288d88f OP_EQUAL", "type": "scripthash"}, "value": 0.00765147, "n": 0}, {"scriptPubKey": {"reqSigs": 1, "hex": "76a91498c0c8466b5144114bd4c513bc15705ed0f499d388ac", "addresses": ["1EvgeuijLz695HkjygrjdERgUwyQanqVXN"], "asm": "OP_DUP OP_HASH160 98c0c8466b5144114bd4c513bc15705ed0f499d3 OP_EQUALVERIFY OP_CHECKSIG", "type": "pubkeyhash"}, "value": 0.02258826, "n": 1}], "hex": "01000000015f47ff1e8fe173c71a77067dbf3f67eadc1ff081e51d87f6393d67c529ddc498010000006a47304402205548fd5304e964b410eeb631e150874f405b3f410aeb555c839a6589c31d7bda022034ca09313278fe26fc931d91ca3e261c587ddc0553d490dc9cf0c0c29a4fe56f0121022b4bcc21ff71ab005d3fd283b3377337181b9dd97e3b31aea97fcf7d83f95368ffffffff02dbac0b000000000017a9145654e0d32a88be6550a49440588d048cc288d88f878a772200000000001976a91498c0c8466b5144114bd4c513bc15705ed0f499d388ac00000000", "vin": [{"sequence": 4294967295, "scriptSig": {"hex": "47304402205548fd5304e964b410eeb631e150874f405b3f410aeb555c839a6589c31d7bda022034ca09313278fe26fc931d91ca3e261c587ddc0553d490dc9cf0c0c29a4fe56f0121022b4bcc21ff71ab005d3fd283b3377337181b9dd97e3b31aea97fcf7d83f95368", "asm": "304402205548fd5304e964b410eeb631e150874f405b3f410aeb555c839a6589c31d7bda022034ca09313278fe26fc931d91ca3e261c587ddc0553d490dc9cf0c0c29a4fe56f[ALL] 022b4bcc21ff71ab005d3fd283b3377337181b9dd97e3b31aea97fcf7d83f95368"}, "vout": 1, "txid": "98c4dd29c5673d39f6871de581f01fdcea673fbf7d06771ac773e18f1eff475f"}], "txid": "59ff95153cd0df1ddba1b34da75b4c79e7f638d714a49e00f922ae59fceef711", "blocktime": 1537876114, "version": 1, "confirmations": 11460, "time": 1537876114, "locktime": 0, "vsize": 223, "size": 223}