{"hash": "5ea4647fb6ebd2d370493b8abe39a65d342323c2e8b84d1c953221ee4339ad89", "blockhash": "0000000000000000001cda96e906b7601b7a6fb1a3b62bca570a9e5d8f4b3de1", "vout": [{"scriptPubKey": {"type": "nulldata", "hex": "6a146f6d6e69000000000000001f0000048c138de980", "asm": "OP_RETURN 6f6d6e69000000000000001f0000048c138de980"}, "value": 0.0, "n": 0}, {"scriptPubKey": {"reqSigs": 1, "hex": "a914e818e90b8e6b38dba66f74b35cb708bbc73e2ea787", "addresses": ["3NrEXrB9qAxXYfRt6jKtBD8QzoU2qtNWDR"], "asm": "OP_HASH160 e818e90b8e6b38dba66f74b35cb708bbc73e2ea7 OP_EQUAL", "type": "scripthash"}, "value": 2.73e-05, "n": 1}, {"scriptPubKey": {"reqSigs": 1, "hex": "a914e818e90b8e6b38dba66f74b35cb708bbc73e2ea787", "addresses": ["3NrEXrB9qAxXYfRt6jKtBD8QzoU2qtNWDR"], "asm": "OP_HASH160 e818e90b8e6b38dba66f74b35cb708bbc73e2ea7 OP_EQUAL", "type": "scripthash"}, "value": 0.01355421, "n": 2}], "hex": "010000000001022795a2be00e213b8e75d371e2ff49288e023c0e52c709326e260840e22dc36a80200000017160014deee019fdc9562dc9d819a60c6bb71dc963b350dffffffff35c12ac2cbc8beeb6c94b711cb3a0e79a9eef6c7af5f9ab052550bc0012aa0ee0100000017160014601ffb97d2737e45db3ad09e198b9f98f6b246acffffffff030000000000000000166a146f6d6e69000000000000001f0000048c138de980aa0a00000000000017a914e818e90b8e6b38dba66f74b35cb708bbc73e2ea7879dae14000000000017a914e818e90b8e6b38dba66f74b35cb708bbc73e2ea7870247304402207dc499e6858732baf0a09ddbfd37a802ffa1ca78e7d53bb3dc01972bd9e17a0202207dfa278730dd29f876d55f0d924330dbc62a1a433b583c95cc5e58f5c0a9a9ed012102852fab71ae5b49fe6379783926890548770d054fe4f77c4b0abf5832b5f5da38024730440220081f26a037f416d2980eac1e6883a23f04f939a5ef71ac583bfeb862aadecc7602204f43b8c63dc00e742b5f04a2c7d655b23a5c5f666318f624e84fc891eb76b4af012103c4ba6759cf44e866c7a53050ce5a2dad6e73a8ed18b12d195c939e5163cf5a6300000000", "vin": [{"txinwitness": ["304402207dc499e6858732baf0a09ddbfd37a802ffa1ca78e7d53bb3dc01972bd9e17a0202207dfa278730dd29f876d55f0d924330dbc62a1a433b583c95cc5e58f5c0a9a9ed01", "02852fab71ae5b49fe6379783926890548770d054fe4f77c4b0abf5832b5f5da38"], "sequence": 4294967295, "scriptSig": {"hex": "160014deee019fdc9562dc9d819a60c6bb71dc963b350d", "asm": "0014deee019fdc9562dc9d819a60c6bb71dc963b350d"}, "vout": 2, "txid": "a836dc220e8460e22693702ce5c023e08892f42f1e375de7b813e200bea29527"}, {"txinwitness": ["30440220081f26a037f416d2980eac1e6883a23f04f939a5ef71ac583bfeb862aadecc7602204f43b8c63dc00e742b5f04a2c7d655b23a5c5f666318f624e84fc891eb76b4af01", "03c4ba6759cf44e866c7a53050ce5a2dad6e73a8ed18b12d195c939e5163cf5a63"], "sequence": 4294967295, "scriptSig": {"hex": "160014601ffb97d2737e45db3ad09e198b9f98f6b246ac", "asm": "0014601ffb97d2737e45db3ad09e198b9f98f6b246ac"}, "vout": 1, "txid": "eea02a01c00b5552b09a5fafc7f6eea9790e3acb11b7946cebbec8cbc22ac135"}], "txid": "5a009f78a5dc29c489ca5fb6e7001025e078f4932fa958e32f42ba857665dcd4", "blocktime": 1537873282, "version": 1, "confirmations": 11484, "time": 1537873282, "locktime": 0, "vsize": 287, "size": 449}