{"hash": "5a0482122cff79166a897b29c4f586cb536befd70d4016a62450a85a41646ee4", "blockhash": "0000000000000000001e0dab787dd257d1dbfcb92a98c2207d5e1078be1f4165", "vout": [{"scriptPubKey": {"reqSigs": 1, "hex": "a91416f1d660173ed9e20609477e7ff3f22c0e36919287", "addresses": ["33nLVvPtSu7gfGxQh3a59abgDu3eLdsYWd"], "asm": "OP_HASH160 16f1d660173ed9e20609477e7ff3f22c0e369192 OP_EQUAL", "type": "scripthash"}, "value": 0.00244821, "n": 0}, {"scriptPubKey": {"reqSigs": 1, "hex": "76a914368881afa709e61662eda6a10fecccef767b7dd688ac", "addresses": ["15yM21AFR4NyiLEhHu5suGeGUzrMja4MNM"], "asm": "OP_DUP OP_HASH160 368881afa709e61662eda6a10fecccef767b7dd6 OP_EQUALVERIFY OP_CHECKSIG", "type": "pubkeyhash"}, "value": 0.01035509, "n": 1}], "hex": "0100000001511ed9e42ba4a525b3bb99cb6ca78dd859fb5298af1e8263f43de230282ac009000000006a47304402201c4d088c738b0e7a366dddd82a02dd8377e76db56fff570ff122a1e07f8133c102203ecbb56506b7052ab058b6b40516cb8bcdde97f25eb9fb95175b07003856e4b30121038fdb30db0004831f212e1fa3a6d0e29b775bf50cc6b8596d517a5e38f992aa0ffeffffff0255bc03000000000017a91416f1d660173ed9e20609477e7ff3f22c0e36919287f5cc0f00000000001976a914368881afa709e61662eda6a10fecccef767b7dd688ac12490800", "vin": [{"sequence": 4294967294, "scriptSig": {"hex": "47304402201c4d088c738b0e7a366dddd82a02dd8377e76db56fff570ff122a1e07f8133c102203ecbb56506b7052ab058b6b40516cb8bcdde97f25eb9fb95175b07003856e4b30121038fdb30db0004831f212e1fa3a6d0e29b775bf50cc6b8596d517a5e38f992aa0f", "asm": "304402201c4d088c738b0e7a366dddd82a02dd8377e76db56fff570ff122a1e07f8133c102203ecbb56506b7052ab058b6b40516cb8bcdde97f25eb9fb95175b07003856e4b3[ALL] 038fdb30db0004831f212e1fa3a6d0e29b775bf50cc6b8596d517a5e38f992aa0f"}, "vout": 0, "txid": "09c02a2830e23df463821eaf9852fb59d88da76ccb99bbb325a5a42be4d91e51"}], "txid": "5a0482122cff79166a897b29c4f586cb536befd70d4016a62450a85a41646ee4", "blocktime": 1537872475, "version": 1, "confirmations": 11486, "time": 1537872475, "locktime": 542994, "vsize": 223, "size": 223}