{"hash": "5a04e67593a7a3bdf43e10e6900e6e052acf4af7e290079ef55cf75a40cf9ba2", "blockhash": "0000000000000000000e13cef7c366c0283d82e591d1acd082e914b08063cdf1", "vout": [{"scriptPubKey": {"reqSigs": 1, "hex": "a914813988180f24575713bd4a88fded92d35c08f86587", "addresses": ["3DUJ1f3SMBFSoKz7UJqVeAqeh6jSKyjhRU"], "asm": "OP_HASH160 813988180f24575713bd4a88fded92d35c08f865 OP_EQUAL", "type": "scripthash"}, "value": 0.0008072, "n": 0}, {"scriptPubKey": {"reqSigs": 1, "hex": "76a9149234812d13a196ede547cba98a9462127528686e88ac", "addresses": ["1EL4Z6F5bHieAejVRCXVkdsKM944gCCVwz"], "asm": "OP_DUP OP_HASH160 9234812d13a196ede547cba98a9462127528686e OP_EQUALVERIFY OP_CHECKSIG", "type": "pubkeyhash"}, "value": 0.002265, "n": 1}], "hex": "0100000001541ba722a84b9ab75eb519b0413469b666a7e071205d7cfd4fe5ada144af4241010000006b483045022100d48f2eca69114e9a9f88134f0de16e9d72b82813f3bbd0ecad0aac036478afde022046582092bf3ec9422e86c3861727907d1b856c3d002904a2138ad426286cc9df012102cb75911935f43f1d80119ed60a3e357b15e4bb5ca72baa4ed7be11e88fe74e03ffffffff02503b01000000000017a914813988180f24575713bd4a88fded92d35c08f86587c4740300000000001976a9149234812d13a196ede547cba98a9462127528686e88ac00000000", "vin": [{"sequence": 4294967295, "scriptSig": {"hex": "483045022100d48f2eca69114e9a9f88134f0de16e9d72b82813f3bbd0ecad0aac036478afde022046582092bf3ec9422e86c3861727907d1b856c3d002904a2138ad426286cc9df012102cb75911935f43f1d80119ed60a3e357b15e4bb5ca72baa4ed7be11e88fe74e03", "asm": "3045022100d48f2eca69114e9a9f88134f0de16e9d72b82813f3bbd0ecad0aac036478afde022046582092bf3ec9422e86c3861727907d1b856c3d002904a2138ad426286cc9df[ALL] 02cb75911935f43f1d80119ed60a3e357b15e4bb5ca72baa4ed7be11e88fe74e03"}, "vout": 1, "txid": "4142af44a1ade54ffd7c5d2071e0a766b6693441b019b55eb79a4ba822a71b54"}], "txid": "5a04e67593a7a3bdf43e10e6900e6e052acf4af7e290079ef55cf75a40cf9ba2", "blocktime": 1537871767, "version": 1, "confirmations": 11491, "time": 1537871767, "locktime": 0, "vsize": 224, "size": 224}