{"hash": "5a0aaf80dfb2dadc455e3edb48cb494a395fa497afe3c2a899318929e9fdab9a", "blockhash": "0000000000000000000baef3f32e3676a92c3b2e5da21b426e4f302fc371ce76", "vout": [{"scriptPubKey": {"reqSigs": 1, "hex": "76a914751a68d12bb4f856ab62ab4711a4d482704a2ec488ac", "addresses": ["1BgBhQTBycfSXHCxUtwhzdFxi8UjCv3we2"], "asm": "OP_DUP OP_HASH160 751a68d12bb4f856ab62ab4711a4d482704a2ec4 OP_EQUALVERIFY OP_CHECKSIG", "type": "pubkeyhash"}, "value": 0.00115, "n": 0}, {"scriptPubKey": {"type": "nulldata", "hex": "6a4c500000781d0001ad42223ae4f35bb39ba81a5c019d6ddc0f1b8ff117702940d64fa54d8eb2e23c00c15bb4cc6028b3d7279f80780a5baa1cff0614a1619937fb38bc9a9526289ac0f6612cd74e33776ee4", "asm": "OP_RETURN 0000781d0001ad42223ae4f35bb39ba81a5c019d6ddc0f1b8ff117702940d64fa54d8eb2e23c00c15bb4cc6028b3d7279f80780a5baa1cff0614a1619937fb38bc9a9526289ac0f6612cd74e33776ee4"}, "value": 0.0, "n": 1}], "hex": "01000000018c9ba4345dfc070c3693c26567a7fcefc77b89cd2b7a453fc5036179ad203cc2010000006b48304502210083d13ebea91c9d256f0f7b6f1a6433ce689f179f5db89215118d3bc2b55a9e0c02205582ddae911300df47a759d19d3aeb66a0f556f50f7a38a2e5569e8fe0bfe8090121030a66971dfadc8cf190ea32e21cac8e965c75b6243c5012484d4f2b70e43bdb4bffffffff0238c10100000000001976a914751a68d12bb4f856ab62ab4711a4d482704a2ec488ac0000000000000000536a4c500000781d0001ad42223ae4f35bb39ba81a5c019d6ddc0f1b8ff117702940d64fa54d8eb2e23c00c15bb4cc6028b3d7279f80780a5baa1cff0614a1619937fb38bc9a9526289ac0f6612cd74e33776ee400000000", "vin": [{"sequence": 4294967295, "scriptSig": {"hex": "48304502210083d13ebea91c9d256f0f7b6f1a6433ce689f179f5db89215118d3bc2b55a9e0c02205582ddae911300df47a759d19d3aeb66a0f556f50f7a38a2e5569e8fe0bfe8090121030a66971dfadc8cf190ea32e21cac8e965c75b6243c5012484d4f2b70e43bdb4b", "asm": "304502210083d13ebea91c9d256f0f7b6f1a6433ce689f179f5db89215118d3bc2b55a9e0c02205582ddae911300df47a759d19d3aeb66a0f556f50f7a38a2e5569e8fe0bfe809[ALL] 030a66971dfadc8cf190ea32e21cac8e965c75b6243c5012484d4f2b70e43bdb4b"}, "vout": 1, "txid": "c23c20ad796103c53f457a2bcd897bc7effca76765c293360c07fc5d34a49b8c"}], "txid": "5a0aaf80dfb2dadc455e3edb48cb494a395fa497afe3c2a899318929e9fdab9a", "blocktime": 1537876114, "version": 1, "confirmations": 11461, "time": 1537876114, "locktime": 0, "vsize": 284, "size": 284}