{"hash": "5a0ed778cbd8e26068ea36e73dd8b9b7a83bcf4adb66b33da01ca799245926f5", "blockhash": "0000000000000000001cda96e906b7601b7a6fb1a3b62bca570a9e5d8f4b3de1", "vout": [{"scriptPubKey": {"reqSigs": 1, "hex": "76a9141e055f2c0d36c857a4d51c5c08890a711caa091b88ac", "addresses": ["13jjhzXFmrnhQFmkTrG8pPPVdpvsPNJH7B"], "asm": "OP_DUP OP_HASH160 1e055f2c0d36c857a4d51c5c08890a711caa091b OP_EQUALVERIFY OP_CHECKSIG", "type": "pubkeyhash"}, "value": 0.00591625, "n": 0}, {"scriptPubKey": {"type": "nulldata", "hex": "6a4c50000077d100018db13301a1b9b350ec67fd425b23cc0f42c2fc38c5e5bf9ae76da98a211a3cc616770e89ddbb7fc9a7f4c6f763565baa14480613be1a3ec7129e1d100759d4ba30d2c37bb011d97e02cf", "asm": "OP_RETURN 000077d100018db13301a1b9b350ec67fd425b23cc0f42c2fc38c5e5bf9ae76da98a211a3cc616770e89ddbb7fc9a7f4c6f763565baa14480613be1a3ec7129e1d100759d4ba30d2c37bb011d97e02cf"}, "value": 0.0, "n": 1}], "hex": "0100000001ada68996ad0a2a7ee9d4141488577f4fd346d2346fab422d2bea415c3d03ef82010000006a473044022025cc95e2a129322818cf68dcfb31abcf1ac34c14eca4b3032f1e877e8aef2fbe022055a86f22f409b53fa8245419ee781bcf78f75de570b165d8bef91737150a6d3301210237dcf7f5c8515a835f64e047a92dc661c697797feea284900d990288ccac38faffffffff0209070900000000001976a9141e055f2c0d36c857a4d51c5c08890a711caa091b88ac0000000000000000536a4c50000077d100018db13301a1b9b350ec67fd425b23cc0f42c2fc38c5e5bf9ae76da98a211a3cc616770e89ddbb7fc9a7f4c6f763565baa14480613be1a3ec7129e1d100759d4ba30d2c37bb011d97e02cf00000000", "vin": [{"sequence": 4294967295, "scriptSig": {"hex": "473044022025cc95e2a129322818cf68dcfb31abcf1ac34c14eca4b3032f1e877e8aef2fbe022055a86f22f409b53fa8245419ee781bcf78f75de570b165d8bef91737150a6d3301210237dcf7f5c8515a835f64e047a92dc661c697797feea284900d990288ccac38fa", "asm": "3044022025cc95e2a129322818cf68dcfb31abcf1ac34c14eca4b3032f1e877e8aef2fbe022055a86f22f409b53fa8245419ee781bcf78f75de570b165d8bef91737150a6d33[ALL] 0237dcf7f5c8515a835f64e047a92dc661c697797feea284900d990288ccac38fa"}, "vout": 1, "txid": "82ef033d5c41ea2b2d42ab6f34d246d34f7f57881414d4e97e2a0aad9689a6ad"}], "txid": "5a0ed778cbd8e26068ea36e73dd8b9b7a83bcf4adb66b33da01ca799245926f5", "blocktime": 1537873282, "version": 1, "confirmations": 11484, "time": 1537873282, "locktime": 0, "vsize": 283, "size": 283}