{"hash": "5a0f27a854956d5b0e24459984f387cdc6a1648b2753963feb6b7062085547f0", "blockhash": "0000000000000000001f76057863aec43deb6fa401d9628bb513d65a8098bfab", "vout": [{"scriptPubKey": {"reqSigs": 1, "hex": "76a91401907487dd527dec012ded6f51343a1fe019eaea88ac", "addresses": ["19Gj7fiC1F4Hsxu3CKDEKh3NtQo35RED9"], "asm": "OP_DUP OP_HASH160 01907487dd527dec012ded6f51343a1fe019eaea OP_EQUALVERIFY OP_CHECKSIG", "type": "pubkeyhash"}, "value": 8.8046825, "n": 0}, {"scriptPubKey": {"reqSigs": 1, "hex": "76a914bfdd3cc3ed9b566e9ebd17596c4289f2b4b1d9a788ac", "addresses": ["1JVV6Uuj7bZRCQSusd2xmBydpHMYEyKLDZ"], "asm": "OP_DUP OP_HASH160 bfdd3cc3ed9b566e9ebd17596c4289f2b4b1d9a7 OP_EQUALVERIFY OP_CHECKSIG", "type": "pubkeyhash"}, "value": 0.002, "n": 1}], "hex": "02000000014419b77f45d5df11636ef5cb3ce75e9baf659d0cc91dc8de4b8a7cb340556d1d010000006b483045022100c4002f8cc58c66f23b5d975c3e31cd878197c0b406e2de2022c3db544af8ed2d02203744b19f9fa90f4d9de1698228923d5ea5d5c997c123ffa6e1ac68a308346faf0121025011f4bc1d82bb4cf7f9d1fcb1aacf47f7cc6318e9589bd096a3265a23cb6fb5feffffff021ae17a34000000001976a91401907487dd527dec012ded6f51343a1fe019eaea88ac400d0300000000001976a914bfdd3cc3ed9b566e9ebd17596c4289f2b4b1d9a788ac14490800", "vin": [{"sequence": 4294967294, "scriptSig": {"hex": "483045022100c4002f8cc58c66f23b5d975c3e31cd878197c0b406e2de2022c3db544af8ed2d02203744b19f9fa90f4d9de1698228923d5ea5d5c997c123ffa6e1ac68a308346faf0121025011f4bc1d82bb4cf7f9d1fcb1aacf47f7cc6318e9589bd096a3265a23cb6fb5", "asm": "3045022100c4002f8cc58c66f23b5d975c3e31cd878197c0b406e2de2022c3db544af8ed2d02203744b19f9fa90f4d9de1698228923d5ea5d5c997c123ffa6e1ac68a308346faf[ALL] 025011f4bc1d82bb4cf7f9d1fcb1aacf47f7cc6318e9589bd096a3265a23cb6fb5"}, "vout": 1, "txid": "1d6d5540b37c8a4bdec81dc90c9d65af9b5ee73ccbf56e6311dfd5457fb71944"}], "txid": "5a0f27a854956d5b0e24459984f387cdc6a1648b2753963feb6b7062085547f0", "blocktime": 1537873891, "version": 2, "confirmations": 11474, "time": 1537873891, "locktime": 542996, "vsize": 226, "size": 226}