{"hash": "5a103c3d35a54c2466cc389631949ce32cd9e9a7a92ab9f75d0bb0e709a08d9f", "blockhash": "0000000000000000000e13cef7c366c0283d82e591d1acd082e914b08063cdf1", "vout": [{"scriptPubKey": {"reqSigs": 1, "hex": "a9147ae7eb946650e71ebf1f1fdab1a355e4a035e6fe87", "addresses": ["3CttC3hapWWKsMnJ64HswCt4uuPo1ongeS"], "asm": "OP_HASH160 7ae7eb946650e71ebf1f1fdab1a355e4a035e6fe OP_EQUAL", "type": "scripthash"}, "value": 0.78, "n": 0}, {"scriptPubKey": {"reqSigs": 1, "hex": "76a914896fb01973325dde94c6fb21ff53d7b2ac26886488ac", "addresses": ["1DXhNVViVYu4xPGUu4pYH2cTr72UPMqKAt"], "asm": "OP_DUP OP_HASH160 896fb01973325dde94c6fb21ff53d7b2ac268864 OP_EQUALVERIFY OP_CHECKSIG", "type": "pubkeyhash"}, "value": 8.95258936, "n": 1}], "hex": "0100000001ac4036b56567691c62869d83c20d87404bc512bb0c4feb7ae11f9031c854bdac010000008b483045022100cfe71baa36de9de8421060ee0deec017a97b050605e0ced420002357fda32365022035e3e37113c4a5d8d5ca3e254eaf0dd9317bacdf6528a5c3a3fab1efb78f573e01410424cd257f85c56042860458a0e9231a11cf13c66d0a7ae7552540935dc6d92b7251da37f7117c0548805b1ef30cabcff10a66dc54ce0e328d32d7000c78ce4be4fdffffff02802fa6040000000017a9147ae7eb946650e71ebf1f1fdab1a355e4a035e6fe8738915c35000000001976a914896fb01973325dde94c6fb21ff53d7b2ac26886488ac10490800", "vin": [{"sequence": 4294967293, "scriptSig": {"hex": "483045022100cfe71baa36de9de8421060ee0deec017a97b050605e0ced420002357fda32365022035e3e37113c4a5d8d5ca3e254eaf0dd9317bacdf6528a5c3a3fab1efb78f573e01410424cd257f85c56042860458a0e9231a11cf13c66d0a7ae7552540935dc6d92b7251da37f7117c0548805b1ef30cabcff10a66dc54ce0e328d32d7000c78ce4be4", "asm": "3045022100cfe71baa36de9de8421060ee0deec017a97b050605e0ced420002357fda32365022035e3e37113c4a5d8d5ca3e254eaf0dd9317bacdf6528a5c3a3fab1efb78f573e[ALL] 0424cd257f85c56042860458a0e9231a11cf13c66d0a7ae7552540935dc6d92b7251da37f7117c0548805b1ef30cabcff10a66dc54ce0e328d32d7000c78ce4be4"}, "vout": 1, "txid": "acbd54c831901fe17aeb4f0cbb12c54b40870dc2839d86621c696765b53640ac"}], "txid": "5a103c3d35a54c2466cc389631949ce32cd9e9a7a92ab9f75d0bb0e709a08d9f", "blocktime": 1537871767, "version": 1, "confirmations": 11493, "time": 1537871767, "locktime": 542992, "vsize": 256, "size": 256}