{"hash": "5a11ea7babc20cca912595f5d3f4bab812e4b61d7f04c47b0ee76f3c8a7c8842", "blockhash": "00000000000000000024a2167bbff67b0be802c0b01cdd79e6331c2be6459f87", "vout": [{"scriptPubKey": {"reqSigs": 1, "hex": "a914a3a72fb9c79bd747652253193f8a1bfc1d9de2e187", "addresses": ["3GcLM8RamGfCRgdqvuvWa4SE2DgXtguLUD"], "asm": "OP_HASH160 a3a72fb9c79bd747652253193f8a1bfc1d9de2e1 OP_EQUAL", "type": "scripthash"}, "value": 0.01871511, "n": 0}, {"scriptPubKey": {"reqSigs": 1, "hex": "76a9143c3e1f5781b421edde2f0242a50f31f870f80d7d88ac", "addresses": ["16VXxrQfZtDSsJgw9vyfY5V6aU9NbJQhYo"], "asm": "OP_DUP OP_HASH160 3c3e1f5781b421edde2f0242a50f31f870f80d7d OP_EQUALVERIFY OP_CHECKSIG", "type": "pubkeyhash"}, "value": 0.03470353, "n": 1}], "hex": "0100000001a64977b035fcea1c4fc2b8baba0f9cbef850efecfe6c163d6be94a1ea53b4976010000006a47304402207f28bf2d49b4cf6d2bad2b3d9117e64858106e1525d077e36b7fe202c80423d3022040a93c3e5b7aeed5eaa04ec444c33dbe61cb17d712c104f38dacafaa4f8f8f7001210278eb3fe518eca6b7eaef7fecb75e3a56493b23a329da19f1af5c450211233824fdffffff02978e1c000000000017a914a3a72fb9c79bd747652253193f8a1bfc1d9de2e18711f43400000000001976a9143c3e1f5781b421edde2f0242a50f31f870f80d7d88ac0d490800", "vin": [{"sequence": 4294967293, "scriptSig": {"hex": "47304402207f28bf2d49b4cf6d2bad2b3d9117e64858106e1525d077e36b7fe202c80423d3022040a93c3e5b7aeed5eaa04ec444c33dbe61cb17d712c104f38dacafaa4f8f8f7001210278eb3fe518eca6b7eaef7fecb75e3a56493b23a329da19f1af5c450211233824", "asm": "304402207f28bf2d49b4cf6d2bad2b3d9117e64858106e1525d077e36b7fe202c80423d3022040a93c3e5b7aeed5eaa04ec444c33dbe61cb17d712c104f38dacafaa4f8f8f70[ALL] 0278eb3fe518eca6b7eaef7fecb75e3a56493b23a329da19f1af5c450211233824"}, "vout": 1, "txid": "76493ba51e4ae96b3d166cfeecef50f8be9c0fbabab8c24f1ceafc35b07749a6"}], "txid": "5a11ea7babc20cca912595f5d3f4bab812e4b61d7f04c47b0ee76f3c8a7c8842", "blocktime": 1537870564, "version": 1, "confirmations": 11515, "time": 1537870564, "locktime": 542989, "vsize": 223, "size": 223}