{"hash": "77ca2a93857e023c943129fcc09ec048b48d30140e6f60fe498bc3995956e247", "blockhash": "0000000000000000000dcc0f55137456b1a82d3642486a52398922ac4d620174", "vout": [{"scriptPubKey": {"reqSigs": 1, "hex": "a914317981c9495ae22ea0634f927273710cf2cdbb4287", "addresses": ["36CcbPwG8HrhfbF7HDn1EiajrXtFo8ckW4"], "asm": "OP_HASH160 317981c9495ae22ea0634f927273710cf2cdbb42 OP_EQUAL", "type": "scripthash"}, "value": 0.0126, "n": 0}], "hex": "010000000001035a6c730d22e875572a9ee5ffa5223d740d5df771229ccc68a6d2f46dda6f8c690100000017160014b0b5150f3d656dd05b8db6cc2ecca062681b6a96fdffffff27c8a21218eab5a6050b6a8e20d32b7c0a786a14e13be2dfe724c64f84e3881100000000171600140c8efd8bcff40ca5e65ba30b30a577c8dc805cb6fdffffff15226566e6fc6f0249dde1b692f82218a8cbe0c32ae4ffd8e35ea46d40e9cd7c0000000017160014a667f98728857aa1cbb24c58519fb2bb41bd27fafdffffff01e03913000000000017a914317981c9495ae22ea0634f927273710cf2cdbb428702473044022018b8a2f59cc831331e51e9a30d24e6a6546b2478d25a6d7aee04a81c99c6abf202207e5ed3e1a3f39e17e138724833215d6609b6169d2322e5fe8b97bfc0dc1dfdd501210234d2ae69f9d923ecdc10e2f077b8562a1a6fcc6d4e4661b14caa5cff31741c1f024830450221008041c3535db4a95a54935e4710fc56b61548fa6db7a8403eafaf3f29ea07da18022070cd52ae41aab9e14b9ff0f1722c5bca6f027c11f7c2aef2a8af2f3a4f9d0775012102be15f2be239b384401abca11cbd67f34cf1cbe162137a76ff62b311c4c9ef304024830450221009979119cb75eb09fde37c79c13f330a5eb18530b9d3cab5646e4d879d05fbcfc02205bb43fec15de694e9dde66b7abd648bfa84385b5a2cee738b39659bea94e27f9012102f40994e1a1887811c2cadbd31a1dd7d324f23a36be4d15a5503d9efa9799732f0c490800", "vin": [{"txinwitness": ["3044022018b8a2f59cc831331e51e9a30d24e6a6546b2478d25a6d7aee04a81c99c6abf202207e5ed3e1a3f39e17e138724833215d6609b6169d2322e5fe8b97bfc0dc1dfdd501", "0234d2ae69f9d923ecdc10e2f077b8562a1a6fcc6d4e4661b14caa5cff31741c1f"], "sequence": 4294967293, "scriptSig": {"hex": "160014b0b5150f3d656dd05b8db6cc2ecca062681b6a96", "asm": "0014b0b5150f3d656dd05b8db6cc2ecca062681b6a96"}, "vout": 1, "txid": "698c6fda6df4d2a668cc9c2271f75d0d743d22a5ffe59e2a5775e8220d736c5a"}, {"txinwitness": ["30450221008041c3535db4a95a54935e4710fc56b61548fa6db7a8403eafaf3f29ea07da18022070cd52ae41aab9e14b9ff0f1722c5bca6f027c11f7c2aef2a8af2f3a4f9d077501", "02be15f2be239b384401abca11cbd67f34cf1cbe162137a76ff62b311c4c9ef304"], "sequence": 4294967293, "scriptSig": {"hex": "1600140c8efd8bcff40ca5e65ba30b30a577c8dc805cb6", "asm": "00140c8efd8bcff40ca5e65ba30b30a577c8dc805cb6"}, "vout": 0, "txid": "1188e3844fc624e7dfe23be1146a780a7c2bd3208e6a0b05a6b5ea1812a2c827"}, {"txinwitness": ["30450221009979119cb75eb09fde37c79c13f330a5eb18530b9d3cab5646e4d879d05fbcfc02205bb43fec15de694e9dde66b7abd648bfa84385b5a2cee738b39659bea94e27f901", "02f40994e1a1887811c2cadbd31a1dd7d324f23a36be4d15a5503d9efa9799732f"], "sequence": 4294967293, "scriptSig": {"hex": "160014a667f98728857aa1cbb24c58519fb2bb41bd27fa", "asm": "0014a667f98728857aa1cbb24c58519fb2bb41bd27fa"}, "vout": 0, "txid": "7ccde9406da45ee3d8ffe42ac3e0cba81822f892b6e1dd49026ffce666652215"}], "txid": "5a177d583e9703f2fc5046f46ac46171454d50a13a48695c8610a039ce4c6da2", "blocktime": 1537870268, "version": 1, "confirmations": 11518, "time": 1537870268, "locktime": 542988, "vsize": 316, "size": 559}