{"hash": "5a187c1042eb966ac271de6602eda1f15578c33f0de6ebdd418362292bc65044", "blockhash": "00000000000000000024a2167bbff67b0be802c0b01cdd79e6331c2be6459f87", "vout": [{"scriptPubKey": {"reqSigs": 1, "hex": "a914d26444f23d07782296f2366128afe0bb6bd33ee287", "addresses": ["3LsTwfPeKhdD6fBNVwgSHmvLTcvkd5og3K"], "asm": "OP_HASH160 d26444f23d07782296f2366128afe0bb6bd33ee2 OP_EQUAL", "type": "scripthash"}, "value": 0.00031216, "n": 0}, {"scriptPubKey": {"reqSigs": 1, "hex": "76a914852ea35f071813ecf9751abe65049de61cbf8c5788ac", "addresses": ["1D9CjzS6u5ArSoEGqkqUEz4j55iA3rsFCL"], "asm": "OP_DUP OP_HASH160 852ea35f071813ecf9751abe65049de61cbf8c57 OP_EQUALVERIFY OP_CHECKSIG", "type": "pubkeyhash"}, "value": 0.13015682, "n": 1}], "hex": "0200000001d0d93ae36eb7e778266a8aaa48644f52e7778bc0dd52ba332eeb8bdc1d937831010000006a47304402201c1fc2722b186a9947b022f2ad3046134bdb865d3223f65b635c220fde949c7e02205f42265d95121a36d20730d72bbc248bc60afe4996ec29f098889b0ecb1a03a2012103ad9345c23921567f0abf3339bb67fe7dde30c759d2837f65e6d4230853bddca5ffffffff02f07900000000000017a914d26444f23d07782296f2366128afe0bb6bd33ee287829ac600000000001976a914852ea35f071813ecf9751abe65049de61cbf8c5788ac00000000", "vin": [{"sequence": 4294967295, "scriptSig": {"hex": "47304402201c1fc2722b186a9947b022f2ad3046134bdb865d3223f65b635c220fde949c7e02205f42265d95121a36d20730d72bbc248bc60afe4996ec29f098889b0ecb1a03a2012103ad9345c23921567f0abf3339bb67fe7dde30c759d2837f65e6d4230853bddca5", "asm": "304402201c1fc2722b186a9947b022f2ad3046134bdb865d3223f65b635c220fde949c7e02205f42265d95121a36d20730d72bbc248bc60afe4996ec29f098889b0ecb1a03a2[ALL] 03ad9345c23921567f0abf3339bb67fe7dde30c759d2837f65e6d4230853bddca5"}, "vout": 1, "txid": "3178931ddc8beb2e33ba52ddc08b77e7524f6448aa8a6a2678e7b76ee33ad9d0"}], "txid": "5a187c1042eb966ac271de6602eda1f15578c33f0de6ebdd418362292bc65044", "blocktime": 1537870564, "version": 2, "confirmations": 11515, "time": 1537870564, "locktime": 0, "vsize": 223, "size": 223}