{"hash": "176f16e1fa0fe2c016413c4ef74cd6af38ddcc9576cb800b4973cac5af105905", "blockhash": "0000000000000000000e13cef7c366c0283d82e591d1acd082e914b08063cdf1", "vout": [{"scriptPubKey": {"reqSigs": 1, "hex": "a914d6c2461db4720b9419ecd9a0e78690fec25eb46587", "addresses": ["3MGZFyupiNAS81HfatiyvqExnTHNmBbFsn"], "asm": "OP_HASH160 d6c2461db4720b9419ecd9a0e78690fec25eb465 OP_EQUAL", "type": "scripthash"}, "value": 0.0104278, "n": 0}, {"scriptPubKey": {"reqSigs": 1, "hex": "76a91427b10fa81ea5bb69ff9089d01e39011cc0895f8988ac", "addresses": ["14csTua7E8hT8tQui8upiQ57bgwYn46Nz2"], "asm": "OP_DUP OP_HASH160 27b10fa81ea5bb69ff9089d01e39011cc0895f89 OP_EQUALVERIFY OP_CHECKSIG", "type": "pubkeyhash"}, "value": 0.0014786, "n": 1}], "hex": "02000000000102365d53356305f558c9d7b3c4d9a22e253cdc03ee05848938fa615dea7131ab271800000017160014275cd6cb42da3bc111316793ef8495fb64431921feffffffc5ba6267bc24825e702803acd895f724786b7c4800cbfa91b5e56f2ad39a6e220100000017160014b13dadfc2915233629cf38fe69bc502de7dfd462feffffff025ce90f000000000017a914d6c2461db4720b9419ecd9a0e78690fec25eb4658794410200000000001976a91427b10fa81ea5bb69ff9089d01e39011cc0895f8988ac0247304402203fd5d114a6654001aa31e2c7dec4d4865f2eae793474b117754b906d3d63b11102202caa716596b357b28893a180756479b147ad15df5ec19ff72f53f70fadcf10750121027e650233e132343e9ce403cc8fd4aa0fff6b2662b56ee1dc4468330d2dff0fad02483045022100cd36f5af62dde19fd2ab8e5ca674ad6e1ee6638abee6810c63abdd042cdd397d022017a52723396350fab0055fbfa471a982b4098160a10c911ae206837f9f9470b801210254e284c372682071f0533e88ef5c72ffcba9fa0f491cf482b5548f5fa29d44b310490800", "vin": [{"txinwitness": ["304402203fd5d114a6654001aa31e2c7dec4d4865f2eae793474b117754b906d3d63b11102202caa716596b357b28893a180756479b147ad15df5ec19ff72f53f70fadcf107501", "027e650233e132343e9ce403cc8fd4aa0fff6b2662b56ee1dc4468330d2dff0fad"], "sequence": 4294967294, "scriptSig": {"hex": "160014275cd6cb42da3bc111316793ef8495fb64431921", "asm": "0014275cd6cb42da3bc111316793ef8495fb64431921"}, "vout": 24, "txid": "27ab3171ea5d61fa38898405ee03dc3c252ea2d9c4b3d7c958f5056335535d36"}, {"txinwitness": ["3045022100cd36f5af62dde19fd2ab8e5ca674ad6e1ee6638abee6810c63abdd042cdd397d022017a52723396350fab0055fbfa471a982b4098160a10c911ae206837f9f9470b801", "0254e284c372682071f0533e88ef5c72ffcba9fa0f491cf482b5548f5fa29d44b3"], "sequence": 4294967294, "scriptSig": {"hex": "160014b13dadfc2915233629cf38fe69bc502de7dfd462", "asm": "0014b13dadfc2915233629cf38fe69bc502de7dfd462"}, "vout": 1, "txid": "226e9ad32a6fe5b591facb00487c6b7824f795d8ac0328705e8224bc6762bac5"}], "txid": "5a1af15ca759340e4054cfabf5371643e0d99cb0e6c07f8ea291117b71e760e4", "blocktime": 1537871767, "version": 2, "confirmations": 11495, "time": 1537871767, "locktime": 542992, "vsize": 259, "size": 421}