{"hash": "2eadad6d77ba9c6f02ad554e80888cd9ac3b93ad89e4e0d9a67fac49072c3c71", "blockhash": "0000000000000000001f76057863aec43deb6fa401d9628bb513d65a8098bfab", "vout": [{"scriptPubKey": {"reqSigs": 1, "hex": "76a9143cff1d7503e945863f228c973856b47d4864d35688ac", "addresses": ["16ZXADVfJDBBxUBkcc1MsNr46ZfZNXRMTW"], "asm": "OP_DUP OP_HASH160 3cff1d7503e945863f228c973856b47d4864d356 OP_EQUALVERIFY OP_CHECKSIG", "type": "pubkeyhash"}, "value": 0.00156, "n": 0}, {"scriptPubKey": {"reqSigs": 1, "hex": "0014e27917688ac063a7d767928c6e779e62e83e8ec0", "addresses": ["bc1qufu3w6y2cp3604m8j2xxuau7vt5rarkquppv5n"], "asm": "0 e27917688ac063a7d767928c6e779e62e83e8ec0", "type": "witness_v0_keyhash"}, "value": 4.365e-05, "n": 1}], "hex": "01000000000101b2a354af59abc8a9f26b260d2d7ed911e8bdb5e9777bec325c93d10657be40a00100000000ffffffff0260610200000000001976a9143cff1d7503e945863f228c973856b47d4864d35688ac0d11000000000000160014e27917688ac063a7d767928c6e779e62e83e8ec002483045022100a64423d11dbe49c2718bd3ee02542b901af0867e5930bbb7452e54b0d5f51dd902200360b4659c5d4b92da318232bfb1271fe4886c53f039086b60fedd0b2cdcbd95012102d1dcf55b4e99d2549196a7e23620ce797d61da16ecb486bb5ecf74fcbe91532d00000000", "vin": [{"txinwitness": ["3045022100a64423d11dbe49c2718bd3ee02542b901af0867e5930bbb7452e54b0d5f51dd902200360b4659c5d4b92da318232bfb1271fe4886c53f039086b60fedd0b2cdcbd9501", "02d1dcf55b4e99d2549196a7e23620ce797d61da16ecb486bb5ecf74fcbe91532d"], "sequence": 4294967295, "scriptSig": {"hex": "", "asm": ""}, "vout": 1, "txid": "a040be5706d1935c32ec7b77e9b5bde811d97e2d0d266bf2a9c8ab59af54a3b2"}], "txid": "5a1b295d22cbb67f3419244d6b7ccbe6b55b7db85205e6540f38b8ed346a7832", "blocktime": 1537873891, "version": 1, "confirmations": 11478, "time": 1537873891, "locktime": 0, "vsize": 144, "size": 226}