{"hash": "5a1ba973026f01fd75e02853989c8c8ea7d5086a7c42be65d12cd2a991084964", "blockhash": "0000000000000000000dcc0f55137456b1a82d3642486a52398922ac4d620174", "vout": [{"scriptPubKey": {"reqSigs": 1, "hex": "a914b61034e5fe5a5febf9a12e8989bbd6afbbd8d18387", "addresses": ["3JHgKWjyRmDbiSGSUEA2mcimzt6r4iiCVj"], "asm": "OP_HASH160 b61034e5fe5a5febf9a12e8989bbd6afbbd8d183 OP_EQUAL", "type": "scripthash"}, "value": 0.004635, "n": 0}, {"scriptPubKey": {"reqSigs": 1, "hex": "76a9144d08491a9372881079950f8583473e8bd169421888ac", "addresses": ["182JxTnigaan8VAVhiUTrFQqq3eM9vVnzm"], "asm": "OP_DUP OP_HASH160 4d08491a9372881079950f8583473e8bd1694218 OP_EQUALVERIFY OP_CHECKSIG", "type": "pubkeyhash"}, "value": 0.00011426, "n": 1}], "hex": "0100000001c83d28006587a6b06bc92ccb7783e3c6184dd97a89fa4b79530f5f4aa3644ec2010000006a4730440220280ea3255b7db79f0073d5806fc4bd8fbb4d9672a0357a60ad512a3c5c4d9c2c022053d62ba18f564f2517bdbf4b35e45d3a16445aecb40a64c0c8030dbab069678f012103815daf458a93784252ef28dd3747fb22eea5a36b7ab378242e9b0826d319d9f2ffffffff028c1207000000000017a914b61034e5fe5a5febf9a12e8989bbd6afbbd8d18387a22c0000000000001976a9144d08491a9372881079950f8583473e8bd169421888ac00000000", "vin": [{"sequence": 4294967295, "scriptSig": {"hex": "4730440220280ea3255b7db79f0073d5806fc4bd8fbb4d9672a0357a60ad512a3c5c4d9c2c022053d62ba18f564f2517bdbf4b35e45d3a16445aecb40a64c0c8030dbab069678f012103815daf458a93784252ef28dd3747fb22eea5a36b7ab378242e9b0826d319d9f2", "asm": "30440220280ea3255b7db79f0073d5806fc4bd8fbb4d9672a0357a60ad512a3c5c4d9c2c022053d62ba18f564f2517bdbf4b35e45d3a16445aecb40a64c0c8030dbab069678f[ALL] 03815daf458a93784252ef28dd3747fb22eea5a36b7ab378242e9b0826d319d9f2"}, "vout": 1, "txid": "c24e64a34a5f0f53794bfa897ad94d18c6e38377cb2cc96bb0a6876500283dc8"}], "txid": "5a1ba973026f01fd75e02853989c8c8ea7d5086a7c42be65d12cd2a991084964", "blocktime": 1537870268, "version": 1, "confirmations": 11516, "time": 1537870268, "locktime": 0, "vsize": 223, "size": 223}