{"hash": "5a1c0afcb1742e1a05a0a10a471cfcbee46414d6b56b0fdc049d31e937d9bc5f", "blockhash": "0000000000000000000e13cef7c366c0283d82e591d1acd082e914b08063cdf1", "vout": [{"scriptPubKey": {"reqSigs": 1, "hex": "76a914350bef183afb857bca5f07abd139b286bc17b70f88ac", "addresses": ["15qV7MVcAAyTWcBBbFooMEwWYpZPEn3oAp"], "asm": "OP_DUP OP_HASH160 350bef183afb857bca5f07abd139b286bc17b70f OP_EQUALVERIFY OP_CHECKSIG", "type": "pubkeyhash"}, "value": 0.40144412, "n": 0}, {"scriptPubKey": {"reqSigs": 1, "hex": "a914e204b2b4be235998a37c6b25d71f6353552c150387", "addresses": ["3NJ6GKoqQ5WwrhWctpic9jQctmRC5xGUJH"], "asm": "OP_HASH160 e204b2b4be235998a37c6b25d71f6353552c1503 OP_EQUAL", "type": "scripthash"}, "value": 0.02441115, "n": 1}], "hex": "020000000146ca5898b9bd08ea350285153a88b520cca4ba0284a1f7183f920ea4edf4bb30010000006a473044022051e741d783bd64aef08ed76314b1b458d9dc8e9f14b9f59a234350b3ad81e661022058daee68ca08fc05c72ce993f4081e6ccea9fd15b7db98521fc8b403dab92d400121027d0a1683f30d0f260fedba4128ab1c52254043e9b1acf8e44ef2938d4d69e156feffffff021c8e6402000000001976a914350bef183afb857bca5f07abd139b286bc17b70f88ac9b3f25000000000017a914e204b2b4be235998a37c6b25d71f6353552c15038710490800", "vin": [{"sequence": 4294967294, "scriptSig": {"hex": "473044022051e741d783bd64aef08ed76314b1b458d9dc8e9f14b9f59a234350b3ad81e661022058daee68ca08fc05c72ce993f4081e6ccea9fd15b7db98521fc8b403dab92d400121027d0a1683f30d0f260fedba4128ab1c52254043e9b1acf8e44ef2938d4d69e156", "asm": "3044022051e741d783bd64aef08ed76314b1b458d9dc8e9f14b9f59a234350b3ad81e661022058daee68ca08fc05c72ce993f4081e6ccea9fd15b7db98521fc8b403dab92d40[ALL] 027d0a1683f30d0f260fedba4128ab1c52254043e9b1acf8e44ef2938d4d69e156"}, "vout": 1, "txid": "30bbf4eda40e923f18f7a18402baa4cc20b5883a15850235ea08bdb99858ca46"}], "txid": "5a1c0afcb1742e1a05a0a10a471cfcbee46414d6b56b0fdc049d31e937d9bc5f", "blocktime": 1537871767, "version": 2, "confirmations": 11490, "time": 1537871767, "locktime": 542992, "vsize": 223, "size": 223}