{"hash": "5a21abb95c26ba50de9bcaacbe2c6342b761f0e7607ec9a03333596522d51abe", "blockhash": "0000000000000000001cda96e906b7601b7a6fb1a3b62bca570a9e5d8f4b3de1", "vout": [{"scriptPubKey": {"reqSigs": 1, "hex": "a914bcd433d76cff352dafd25d94be7de3f10bc1ffa687", "addresses": ["3JuTAhM9vxxtGXSAc2CMSqPWSURyCjjXGP"], "asm": "OP_HASH160 bcd433d76cff352dafd25d94be7de3f10bc1ffa6 OP_EQUAL", "type": "scripthash"}, "value": 200.0, "n": 0}, {"scriptPubKey": {"reqSigs": 1, "hex": "a9143b3274469a66c06282e19020c98d94b3cd1660bd87", "addresses": ["3762EUrxHjwBdWkhsXzWH3FfuAQNnc1V2V"], "asm": "OP_HASH160 3b3274469a66c06282e19020c98d94b3cd1660bd OP_EQUAL", "type": "scripthash"}, "value": 8.60305372, "n": 1}], "hex": "0100000006f8c015dbd82ffff32b8e4f952899b6fbab7b47c493b019817c49998c4b72a60200000000fd200100483045022100c45c63b63a7fdc6faf1017beb561149e81a50bcef2cd29d42c39cc5d32e5c43002205118e58a3cbe0fca42c4efa0df046c90a2bb1d0decdb122d5468c456166d134201483045022100ee15d2718d556a3e2bae4d368db27194833790e3fedb5370cf8933f2152cc1d502201021a4a4b0c50dda247ee2a787464c2ce27c8cfe3f5e9be912bf20a44410b56b014c8b52210376da3d5e1f40fd761daa7c2a066c0bc65bc49097a8841a0efa029df10c365d42210382ba01eae1948eb59c5274e872d936a908095a5bba533a3fa162b0ed942af00f210395be0bdb8f10b2812e8d599250bba6623acb6c90b3bb5c592ac6c6e33a9420e62103b6e37a2e90b631c797c89a202f7f48061ffd067e990570ec689c1c46e0d4195d54aeffffffff54e7855c0886e963a7f3bbedb2b98090ad2e46cd7e38b0fc5de6c85651b68aa400000000fd1f0100473044022038c84cc7b0f628ab2db0b7f57c785ba4ab4d7f6701d39bb33a2b32d283bd721602207181bc5933343096a8c2b93d17498c40637ccff24e4ae74b0783bae49516630e01483045022100c8cbf94a096d41222ee2a14b7bbcc3c4fede228fa2402be8c3594a394e84a5cb022058333c1eebc559b01f694137d9e4b69652825c665951c33e8b0d6dcf2d366f7e014c8b52210376da3d5e1f40fd761daa7c2a066c0bc65bc49097a8841a0efa029df10c365d42210382ba01eae1948eb59c5274e872d936a908095a5bba533a3fa162b0ed942af00f210395be0bdb8f10b2812e8d599250bba6623acb6c90b3bb5c592ac6c6e33a9420e62103b6e37a2e90b631c797c89a202f7f48061ffd067e990570ec689c1c46e0d4195d54aeffffffff72b37e6e4ad975f1ad39267aa75c000081359f7ad98d0971ef627b404521ab1a06000000fd1f0100483045022100a3262396558d3992654b9b78ee3244aa47b5d396e0168d7359fbb711e6b8498502201d3e7fca7cbbb73707c2ec57d502d2619d314658ec51709f50bbb7f9896e93fc0147304402204ce58524bd34ea1752bf9200422ec550a7a64dbe74e3db7398e8b50c031d8f4202207f37dec1c00c969bb7dd856708164c10e7ac6f37f59daf76c94be92c753bcf05014c8b52210376da3d5e1f40fd761daa7c2a066c0bc65bc49097a8841a0efa029df10c365d42210382ba01eae1948eb59c5274e872d936a908095a5bba533a3fa162b0ed942af00f210395be0bdb8f10b2812e8d599250bba6623acb6c90b3bb5c592ac6c6e33a9420e62103b6e37a2e90b631c797c89a202f7f48061ffd067e990570ec689c1c46e0d4195d54aefffffffff517c1e6ecf5e1da2c16afd1f7c11321589d0bfcb0c7e915218b2f8c2ceba05b01000000fd1e01004730440220344fc9c885704fbd2d79c5f77fed33bf6b07b22c1a6a055cb48db9cde32392fe02203bf2d0a1fe2ceaff088aa6bc375db0dc54cb2e8fe930f89363beff3221b4781c014730440220253d19b80a0505b28504a3342f3e484de111de68ab6d0c4e0d82723f93262f1d0220406b4fa8420b1ec11d9ddcc3529b65b3747684b212f8793204dbf3b16dfcdf91014c8b52210376da3d5e1f40fd761daa7c2a066c0bc65bc49097a8841a0efa029df10c365d42210382ba01eae1948eb59c5274e872d936a908095a5bba533a3fa162b0ed942af00f210395be0bdb8f10b2812e8d599250bba6623acb6c90b3bb5c592ac6c6e33a9420e62103b6e37a2e90b631c797c89a202f7f48061ffd067e990570ec689c1c46e0d4195d54aeffffffff9de266e8d76852c3bfb1fe46d5e17afeb2c535a7f2bb72ec61fad9874cc89b1501000000fd2001004830450221009cbb4c874b767ed691dd516c4cdde74bbf1fe574f5121c5c6e2b9949481a16d802204933f15aa10b657fbe6e45883199a0c856bf8c5d3a4d2edca8ef33d0349e0f3c01483045022100bb06bf71a9dcfa45a11116e8251c5b4b93275b9e880ccc4a6a327102228e8ec502206bf29edff348d83ecb82ba852448ca97f324758776de7b4d33101211fc7332b5014c8b52210376da3d5e1f40fd761daa7c2a066c0bc65bc49097a8841a0efa029df10c365d42210382ba01eae1948eb59c5274e872d936a908095a5bba533a3fa162b0ed942af00f210395be0bdb8f10b2812e8d599250bba6623acb6c90b3bb5c592ac6c6e33a9420e62103b6e37a2e90b631c797c89a202f7f48061ffd067e990570ec689c1c46e0d4195d54aeffffffff6274ae1334155555edeb51ef8a63b605c84eb68a47e2063b0ff2997ffd23f00005000000fd1f010047304402207eb54f33c7dab476f0b78f6905e2d5f65c672162b5f20df977c97a111f44f332022071e209c9e1bf403e30a111438ed615bc7f0b492daa979a35a106dcc2dc9c39b401483045022100f49f600f7032f38d13d31c91d7715ed04575033d9de1389221fba6965c044439022012d84252a4f2013d170d5d01cebe5499890e811a92b66dafd808c313c8a38a7c014c8b52210376da3d5e1f40fd761daa7c2a066c0bc65bc49097a8841a0efa029df10c365d42210382ba01eae1948eb59c5274e872d936a908095a5bba533a3fa162b0ed942af00f210395be0bdb8f10b2812e8d599250bba6623acb6c90b3bb5c592ac6c6e33a9420e62103b6e37a2e90b631c797c89a202f7f48061ffd067e990570ec689c1c46e0d4195d54aeffffffff0200c817a80400000017a914bcd433d76cff352dafd25d94be7de3f10bc1ffa687dc3747330000000017a9143b3274469a66c06282e19020c98d94b3cd1660bd8700000000", "vin": [{"sequence": 4294967295, "scriptSig": {"hex": "00483045022100c45c63b63a7fdc6faf1017beb561149e81a50bcef2cd29d42c39cc5d32e5c43002205118e58a3cbe0fca42c4efa0df046c90a2bb1d0decdb122d5468c456166d134201483045022100ee15d2718d556a3e2bae4d368db27194833790e3fedb5370cf8933f2152cc1d502201021a4a4b0c50dda247ee2a787464c2ce27c8cfe3f5e9be912bf20a44410b56b014c8b52210376da3d5e1f40fd761daa7c2a066c0bc65bc49097a8841a0efa029df10c365d42210382ba01eae1948eb59c5274e872d936a908095a5bba533a3fa162b0ed942af00f210395be0bdb8f10b2812e8d599250bba6623acb6c90b3bb5c592ac6c6e33a9420e62103b6e37a2e90b631c797c89a202f7f48061ffd067e990570ec689c1c46e0d4195d54ae", "asm": "0 3045022100c45c63b63a7fdc6faf1017beb561149e81a50bcef2cd29d42c39cc5d32e5c43002205118e58a3cbe0fca42c4efa0df046c90a2bb1d0decdb122d5468c456166d1342[ALL] 3045022100ee15d2718d556a3e2bae4d368db27194833790e3fedb5370cf8933f2152cc1d502201021a4a4b0c50dda247ee2a787464c2ce27c8cfe3f5e9be912bf20a44410b56b[ALL] 52210376da3d5e1f40fd761daa7c2a066c0bc65bc49097a8841a0efa029df10c365d42210382ba01eae1948eb59c5274e872d936a908095a5bba533a3fa162b0ed942af00f210395be0bdb8f10b2812e8d599250bba6623acb6c90b3bb5c592ac6c6e33a9420e62103b6e37a2e90b631c797c89a202f7f48061ffd067e990570ec689c1c46e0d4195d54ae"}, "vout": 0, "txid": "02a6724b8c99497c8119b093c4477babfbb69928954f8e2bf3ff2fd8db15c0f8"}, {"sequence": 4294967295, "scriptSig": {"hex": "00473044022038c84cc7b0f628ab2db0b7f57c785ba4ab4d7f6701d39bb33a2b32d283bd721602207181bc5933343096a8c2b93d17498c40637ccff24e4ae74b0783bae49516630e01483045022100c8cbf94a096d41222ee2a14b7bbcc3c4fede228fa2402be8c3594a394e84a5cb022058333c1eebc559b01f694137d9e4b69652825c665951c33e8b0d6dcf2d366f7e014c8b52210376da3d5e1f40fd761daa7c2a066c0bc65bc49097a8841a0efa029df10c365d42210382ba01eae1948eb59c5274e872d936a908095a5bba533a3fa162b0ed942af00f210395be0bdb8f10b2812e8d599250bba6623acb6c90b3bb5c592ac6c6e33a9420e62103b6e37a2e90b631c797c89a202f7f48061ffd067e990570ec689c1c46e0d4195d54ae", "asm": "0 3044022038c84cc7b0f628ab2db0b7f57c785ba4ab4d7f6701d39bb33a2b32d283bd721602207181bc5933343096a8c2b93d17498c40637ccff24e4ae74b0783bae49516630e[ALL] 3045022100c8cbf94a096d41222ee2a14b7bbcc3c4fede228fa2402be8c3594a394e84a5cb022058333c1eebc559b01f694137d9e4b69652825c665951c33e8b0d6dcf2d366f7e[ALL] 52210376da3d5e1f40fd761daa7c2a066c0bc65bc49097a8841a0efa029df10c365d42210382ba01eae1948eb59c5274e872d936a908095a5bba533a3fa162b0ed942af00f210395be0bdb8f10b2812e8d599250bba6623acb6c90b3bb5c592ac6c6e33a9420e62103b6e37a2e90b631c797c89a202f7f48061ffd067e990570ec689c1c46e0d4195d54ae"}, "vout": 0, "txid": "a48ab65156c8e65dfcb0387ecd462ead9080b9b2edbbf3a763e986085c85e754"}, {"sequence": 4294967295, "scriptSig": {"hex": "00483045022100a3262396558d3992654b9b78ee3244aa47b5d396e0168d7359fbb711e6b8498502201d3e7fca7cbbb73707c2ec57d502d2619d314658ec51709f50bbb7f9896e93fc0147304402204ce58524bd34ea1752bf9200422ec550a7a64dbe74e3db7398e8b50c031d8f4202207f37dec1c00c969bb7dd856708164c10e7ac6f37f59daf76c94be92c753bcf05014c8b52210376da3d5e1f40fd761daa7c2a066c0bc65bc49097a8841a0efa029df10c365d42210382ba01eae1948eb59c5274e872d936a908095a5bba533a3fa162b0ed942af00f210395be0bdb8f10b2812e8d599250bba6623acb6c90b3bb5c592ac6c6e33a9420e62103b6e37a2e90b631c797c89a202f7f48061ffd067e990570ec689c1c46e0d4195d54ae", "asm": "0 3045022100a3262396558d3992654b9b78ee3244aa47b5d396e0168d7359fbb711e6b8498502201d3e7fca7cbbb73707c2ec57d502d2619d314658ec51709f50bbb7f9896e93fc[ALL] 304402204ce58524bd34ea1752bf9200422ec550a7a64dbe74e3db7398e8b50c031d8f4202207f37dec1c00c969bb7dd856708164c10e7ac6f37f59daf76c94be92c753bcf05[ALL] 52210376da3d5e1f40fd761daa7c2a066c0bc65bc49097a8841a0efa029df10c365d42210382ba01eae1948eb59c5274e872d936a908095a5bba533a3fa162b0ed942af00f210395be0bdb8f10b2812e8d599250bba6623acb6c90b3bb5c592ac6c6e33a9420e62103b6e37a2e90b631c797c89a202f7f48061ffd067e990570ec689c1c46e0d4195d54ae"}, "vout": 6, "txid": "1aab2145407b62ef71098dd97a9f358100005ca77a2639adf175d94a6e7eb372"}, {"sequence": 4294967295, "scriptSig": {"hex": "004730440220344fc9c885704fbd2d79c5f77fed33bf6b07b22c1a6a055cb48db9cde32392fe02203bf2d0a1fe2ceaff088aa6bc375db0dc54cb2e8fe930f89363beff3221b4781c014730440220253d19b80a0505b28504a3342f3e484de111de68ab6d0c4e0d82723f93262f1d0220406b4fa8420b1ec11d9ddcc3529b65b3747684b212f8793204dbf3b16dfcdf91014c8b52210376da3d5e1f40fd761daa7c2a066c0bc65bc49097a8841a0efa029df10c365d42210382ba01eae1948eb59c5274e872d936a908095a5bba533a3fa162b0ed942af00f210395be0bdb8f10b2812e8d599250bba6623acb6c90b3bb5c592ac6c6e33a9420e62103b6e37a2e90b631c797c89a202f7f48061ffd067e990570ec689c1c46e0d4195d54ae", "asm": "0 30440220344fc9c885704fbd2d79c5f77fed33bf6b07b22c1a6a055cb48db9cde32392fe02203bf2d0a1fe2ceaff088aa6bc375db0dc54cb2e8fe930f89363beff3221b4781c[ALL] 30440220253d19b80a0505b28504a3342f3e484de111de68ab6d0c4e0d82723f93262f1d0220406b4fa8420b1ec11d9ddcc3529b65b3747684b212f8793204dbf3b16dfcdf91[ALL] 52210376da3d5e1f40fd761daa7c2a066c0bc65bc49097a8841a0efa029df10c365d42210382ba01eae1948eb59c5274e872d936a908095a5bba533a3fa162b0ed942af00f210395be0bdb8f10b2812e8d599250bba6623acb6c90b3bb5c592ac6c6e33a9420e62103b6e37a2e90b631c797c89a202f7f48061ffd067e990570ec689c1c46e0d4195d54ae"}, "vout": 1, "txid": "5ba0eb2c8c2f8b2115e9c7b0fc0b9d582113c1f7d1af162cdae1f5ece6c117f5"}, {"sequence": 4294967295, "scriptSig": {"hex": "004830450221009cbb4c874b767ed691dd516c4cdde74bbf1fe574f5121c5c6e2b9949481a16d802204933f15aa10b657fbe6e45883199a0c856bf8c5d3a4d2edca8ef33d0349e0f3c01483045022100bb06bf71a9dcfa45a11116e8251c5b4b93275b9e880ccc4a6a327102228e8ec502206bf29edff348d83ecb82ba852448ca97f324758776de7b4d33101211fc7332b5014c8b52210376da3d5e1f40fd761daa7c2a066c0bc65bc49097a8841a0efa029df10c365d42210382ba01eae1948eb59c5274e872d936a908095a5bba533a3fa162b0ed942af00f210395be0bdb8f10b2812e8d599250bba6623acb6c90b3bb5c592ac6c6e33a9420e62103b6e37a2e90b631c797c89a202f7f48061ffd067e990570ec689c1c46e0d4195d54ae", "asm": "0 30450221009cbb4c874b767ed691dd516c4cdde74bbf1fe574f5121c5c6e2b9949481a16d802204933f15aa10b657fbe6e45883199a0c856bf8c5d3a4d2edca8ef33d0349e0f3c[ALL] 3045022100bb06bf71a9dcfa45a11116e8251c5b4b93275b9e880ccc4a6a327102228e8ec502206bf29edff348d83ecb82ba852448ca97f324758776de7b4d33101211fc7332b5[ALL] 52210376da3d5e1f40fd761daa7c2a066c0bc65bc49097a8841a0efa029df10c365d42210382ba01eae1948eb59c5274e872d936a908095a5bba533a3fa162b0ed942af00f210395be0bdb8f10b2812e8d599250bba6623acb6c90b3bb5c592ac6c6e33a9420e62103b6e37a2e90b631c797c89a202f7f48061ffd067e990570ec689c1c46e0d4195d54ae"}, "vout": 1, "txid": "159bc84c87d9fa61ec72bbf2a735c5b2fe7ae1d546feb1bfc35268d7e866e29d"}, {"sequence": 4294967295, "scriptSig": {"hex": "0047304402207eb54f33c7dab476f0b78f6905e2d5f65c672162b5f20df977c97a111f44f332022071e209c9e1bf403e30a111438ed615bc7f0b492daa979a35a106dcc2dc9c39b401483045022100f49f600f7032f38d13d31c91d7715ed04575033d9de1389221fba6965c044439022012d84252a4f2013d170d5d01cebe5499890e811a92b66dafd808c313c8a38a7c014c8b52210376da3d5e1f40fd761daa7c2a066c0bc65bc49097a8841a0efa029df10c365d42210382ba01eae1948eb59c5274e872d936a908095a5bba533a3fa162b0ed942af00f210395be0bdb8f10b2812e8d599250bba6623acb6c90b3bb5c592ac6c6e33a9420e62103b6e37a2e90b631c797c89a202f7f48061ffd067e990570ec689c1c46e0d4195d54ae", "asm": "0 304402207eb54f33c7dab476f0b78f6905e2d5f65c672162b5f20df977c97a111f44f332022071e209c9e1bf403e30a111438ed615bc7f0b492daa979a35a106dcc2dc9c39b4[ALL] 3045022100f49f600f7032f38d13d31c91d7715ed04575033d9de1389221fba6965c044439022012d84252a4f2013d170d5d01cebe5499890e811a92b66dafd808c313c8a38a7c[ALL] 52210376da3d5e1f40fd761daa7c2a066c0bc65bc49097a8841a0efa029df10c365d42210382ba01eae1948eb59c5274e872d936a908095a5bba533a3fa162b0ed942af00f210395be0bdb8f10b2812e8d599250bba6623acb6c90b3bb5c592ac6c6e33a9420e62103b6e37a2e90b631c797c89a202f7f48061ffd067e990570ec689c1c46e0d4195d54ae"}, "vout": 5, "txid": "00f023fd7f99f20f3b06e2478ab64ec805b6638aef51ebed5555153413ae7462"}], "txid": "5a21abb95c26ba50de9bcaacbe2c6342b761f0e7607ec9a03333596522d51abe", "blocktime": 1537873282, "version": 1, "confirmations": 11481, "time": 1537873282, "locktime": 0, "vsize": 2055, "size": 2055}