{"hash": "5a2ad9bc22f5bbb80647f89435461c2fe7cd20f23b475f6167fc4951916392c0", "blockhash": "0000000000000000000baef3f32e3676a92c3b2e5da21b426e4f302fc371ce76", "vout": [{"scriptPubKey": {"type": "nulldata", "hex": "6a4c500000781200019ea81852a3ac197c827451f0702940d64fa54d8eb2d19ed074892d00f8e88d9486b3bde175d74214236408f9cfe15baa1b9c0614b4f305b025301d100759d4ba30d2c37bb011d97e02cf", "asm": "OP_RETURN 0000781200019ea81852a3ac197c827451f0702940d64fa54d8eb2d19ed074892d00f8e88d9486b3bde175d74214236408f9cfe15baa1b9c0614b4f305b025301d100759d4ba30d2c37bb011d97e02cf"}, "value": 0.0, "n": 0}, {"scriptPubKey": {"reqSigs": 1, "hex": "76a91484c3a780a4d10aee63e5a02df0abcb9269339bed88ac", "addresses": ["1D6zad2cWTHxEESYFC8356M2HMV3t4gyFc"], "asm": "OP_DUP OP_HASH160 84c3a780a4d10aee63e5a02df0abcb9269339bed OP_EQUALVERIFY OP_CHECKSIG", "type": "pubkeyhash"}, "value": 0.00630966, "n": 1}], "hex": "010000000101127299ce1bc68cf9ceed23c8ced2014ab709ca95e53c398709c8cc4857fd02000000006b483045022100d7676226bd1c14126744dbef6706b6d0285cc2101cc169fa3edb163c559e17c90220290be2c63875854ec9d04ffd994cfed7f54f7496f8bfa130d44df53615ad093f012103c7353c22ca326ecb0dbab1f34ed24e292c77fa67086fa69ecbc823d2f449ae73ffffffff020000000000000000536a4c500000781200019ea81852a3ac197c827451f0702940d64fa54d8eb2d19ed074892d00f8e88d9486b3bde175d74214236408f9cfe15baa1b9c0614b4f305b025301d100759d4ba30d2c37bb011d97e02cfb6a00900000000001976a91484c3a780a4d10aee63e5a02df0abcb9269339bed88ac00000000", "vin": [{"sequence": 4294967295, "scriptSig": {"hex": "483045022100d7676226bd1c14126744dbef6706b6d0285cc2101cc169fa3edb163c559e17c90220290be2c63875854ec9d04ffd994cfed7f54f7496f8bfa130d44df53615ad093f012103c7353c22ca326ecb0dbab1f34ed24e292c77fa67086fa69ecbc823d2f449ae73", "asm": "3045022100d7676226bd1c14126744dbef6706b6d0285cc2101cc169fa3edb163c559e17c90220290be2c63875854ec9d04ffd994cfed7f54f7496f8bfa130d44df53615ad093f[ALL] 03c7353c22ca326ecb0dbab1f34ed24e292c77fa67086fa69ecbc823d2f449ae73"}, "vout": 0, "txid": "02fd5748ccc80987393ce595ca09b74a01d2cec823edcef98cc61bce99721201"}], "txid": "5a2ad9bc22f5bbb80647f89435461c2fe7cd20f23b475f6167fc4951916392c0", "blocktime": 1537876114, "version": 1, "confirmations": 11460, "time": 1537876114, "locktime": 0, "vsize": 284, "size": 284}