{"hash": "5a302ba07d398cf8758a8b3270f6872ee5b596ec29d88964849f46702d957833", "blockhash": "0000000000000000001f76057863aec43deb6fa401d9628bb513d65a8098bfab", "vout": [{"scriptPubKey": {"reqSigs": 1, "hex": "76a91461bf7d4f49fca7c8c09e664f573936a2ddf34cf688ac", "addresses": ["19uqwXn5wCMfKT8JQtfWcbSea2WCY6ewum"], "asm": "OP_DUP OP_HASH160 61bf7d4f49fca7c8c09e664f573936a2ddf34cf6 OP_EQUALVERIFY OP_CHECKSIG", "type": "pubkeyhash"}, "value": 0.022, "n": 0}, {"scriptPubKey": {"reqSigs": 1, "hex": "76a9149cd167b8ee5fb2dbcd329276b42d47b45f291e1888ac", "addresses": ["1FJBGenj3kd8MAisFTHXbNRBKPYQcfeZoH"], "asm": "OP_DUP OP_HASH160 9cd167b8ee5fb2dbcd329276b42d47b45f291e18 OP_EQUALVERIFY OP_CHECKSIG", "type": "pubkeyhash"}, "value": 0.05269992, "n": 1}], "hex": "0100000001987dcfa9b63ab0f0e6a6ceb56ee31e198ed97f17f931a5b4225129641efa8e3c010000006b483045022100bd2304507707fbdab878432e9aec1381e1e1b64d1b7a857531dbd9d83c4c7c500220472d667fef5677da093e4340e8e17fbf9a108178cbbb35fc94025a4682200c12012102db561f4aec0b86daf216c669f422569f1cbe93665283973772a630d4c65bc186ffffffff02c0912100000000001976a91461bf7d4f49fca7c8c09e664f573936a2ddf34cf688ace8695000000000001976a9149cd167b8ee5fb2dbcd329276b42d47b45f291e1888ac00000000", "vin": [{"sequence": 4294967295, "scriptSig": {"hex": "483045022100bd2304507707fbdab878432e9aec1381e1e1b64d1b7a857531dbd9d83c4c7c500220472d667fef5677da093e4340e8e17fbf9a108178cbbb35fc94025a4682200c12012102db561f4aec0b86daf216c669f422569f1cbe93665283973772a630d4c65bc186", "asm": "3045022100bd2304507707fbdab878432e9aec1381e1e1b64d1b7a857531dbd9d83c4c7c500220472d667fef5677da093e4340e8e17fbf9a108178cbbb35fc94025a4682200c12[ALL] 02db561f4aec0b86daf216c669f422569f1cbe93665283973772a630d4c65bc186"}, "vout": 1, "txid": "3c8efa1e64295122b4a531f9177fd98e191ee36eb5cea6e6f0b03ab6a9cf7d98"}], "txid": "5a302ba07d398cf8758a8b3270f6872ee5b596ec29d88964849f46702d957833", "blocktime": 1537873891, "version": 1, "confirmations": 11474, "time": 1537873891, "locktime": 0, "vsize": 226, "size": 226}