{"hash": "5a309155298e86dd0a5f62b7d1c11e27511fdd431163cc6a611692ec63a25c59", "blockhash": "0000000000000000001cda96e906b7601b7a6fb1a3b62bca570a9e5d8f4b3de1", "vout": [{"scriptPubKey": {"reqSigs": 1, "hex": "76a914df156859e325899a8f73adaf81782b3e9a084bde88ac", "addresses": ["1MLZLCwLMkmowjX4zjC5DzVfyD576bpffa"], "asm": "OP_DUP OP_HASH160 df156859e325899a8f73adaf81782b3e9a084bde OP_EQUALVERIFY OP_CHECKSIG", "type": "pubkeyhash"}, "value": 0.00496655, "n": 0}, {"scriptPubKey": {"reqSigs": 1, "hex": "76a914524a7257ea6bbf9069498b1d07fefb44cef5180288ac", "addresses": ["18W7bNi8e36pXKpZsohnMGBdWAimvYvSfD"], "asm": "OP_DUP OP_HASH160 524a7257ea6bbf9069498b1d07fefb44cef51802 OP_EQUALVERIFY OP_CHECKSIG", "type": "pubkeyhash"}, "value": 0.13509, "n": 1}], "hex": "0100000003df3b91e66e74f966f9e002ed0da2255a4dace9c58a24bfa1041d90cfd0358f47010000006a47304402202d9c66d44792212ab04cc02241cc471779bc5cbf8cdab9c8114fbe332cc3a0d9022062dcfadef2105f3da39195881439718bf226a939a16fcaa8a0e0bd1fc63193e10121033d92b0b2b946a98f1e28e5eb47c7c8f85e43f707ada9a5e4500df5b6a620df5bffffffff7a2a61aeaa7216613199187df919cc876a5dd94479d880c5fde9ca48fc5b0c5b030000006b483045022100cb5876e57f4f1f86d495b12eab8e1509cd9acc59ee4b55bdd5d7f5f37817cd5a02204241516bdad609f13d562cddde42f2bacb6581c4fe1f72e260ccc15b8672c1650121033d92b0b2b946a98f1e28e5eb47c7c8f85e43f707ada9a5e4500df5b6a620df5bffffffff954b8f3e21fdf585a8442a853cf6378650e7c86685db64ff5373802336f0f35e030000006a47304402207c629ac13d6f488ee197583a256a96ba24e94a34d24d8637df8af2a0684422ca0220633b96b73549bb950bfb97e04aaae7ff32fb826206bc1b1cc73a7304a30965a00121033d92b0b2b946a98f1e28e5eb47c7c8f85e43f707ada9a5e4500df5b6a620df5bffffffff020f940700000000001976a914df156859e325899a8f73adaf81782b3e9a084bde88ac8821ce00000000001976a914524a7257ea6bbf9069498b1d07fefb44cef5180288ac00000000", "vin": [{"sequence": 4294967295, "scriptSig": {"hex": "47304402202d9c66d44792212ab04cc02241cc471779bc5cbf8cdab9c8114fbe332cc3a0d9022062dcfadef2105f3da39195881439718bf226a939a16fcaa8a0e0bd1fc63193e10121033d92b0b2b946a98f1e28e5eb47c7c8f85e43f707ada9a5e4500df5b6a620df5b", "asm": "304402202d9c66d44792212ab04cc02241cc471779bc5cbf8cdab9c8114fbe332cc3a0d9022062dcfadef2105f3da39195881439718bf226a939a16fcaa8a0e0bd1fc63193e1[ALL] 033d92b0b2b946a98f1e28e5eb47c7c8f85e43f707ada9a5e4500df5b6a620df5b"}, "vout": 1, "txid": "478f35d0cf901d04a1bf248ac5e9ac4d5a25a20ded02e0f966f9746ee6913bdf"}, {"sequence": 4294967295, "scriptSig": {"hex": "483045022100cb5876e57f4f1f86d495b12eab8e1509cd9acc59ee4b55bdd5d7f5f37817cd5a02204241516bdad609f13d562cddde42f2bacb6581c4fe1f72e260ccc15b8672c1650121033d92b0b2b946a98f1e28e5eb47c7c8f85e43f707ada9a5e4500df5b6a620df5b", "asm": "3045022100cb5876e57f4f1f86d495b12eab8e1509cd9acc59ee4b55bdd5d7f5f37817cd5a02204241516bdad609f13d562cddde42f2bacb6581c4fe1f72e260ccc15b8672c165[ALL] 033d92b0b2b946a98f1e28e5eb47c7c8f85e43f707ada9a5e4500df5b6a620df5b"}, "vout": 3, "txid": "5b0c5bfc48cae9fdc580d87944d95d6a87cc19f97d189931611672aaae612a7a"}, {"sequence": 4294967295, "scriptSig": {"hex": "47304402207c629ac13d6f488ee197583a256a96ba24e94a34d24d8637df8af2a0684422ca0220633b96b73549bb950bfb97e04aaae7ff32fb826206bc1b1cc73a7304a30965a00121033d92b0b2b946a98f1e28e5eb47c7c8f85e43f707ada9a5e4500df5b6a620df5b", "asm": "304402207c629ac13d6f488ee197583a256a96ba24e94a34d24d8637df8af2a0684422ca0220633b96b73549bb950bfb97e04aaae7ff32fb826206bc1b1cc73a7304a30965a0[ALL] 033d92b0b2b946a98f1e28e5eb47c7c8f85e43f707ada9a5e4500df5b6a620df5b"}, "vout": 3, "txid": "5ef3f03623807353ff64db8566c8e7508637f63c852a44a885f5fd213e8f4b95"}], "txid": "5a309155298e86dd0a5f62b7d1c11e27511fdd431163cc6a611692ec63a25c59", "blocktime": 1537873282, "version": 1, "confirmations": 11484, "time": 1537873282, "locktime": 0, "vsize": 520, "size": 520}