{"hash": "cc3d632a674a3e9a7ebf5f01c011fe054285c8cdb2614da5b5a889f3d49be094", "blockhash": "00000000000000000017f5eb5941039fbcee6240d03bc1f2f8e35350df66a1d8", "vout": [{"scriptPubKey": {"reqSigs": 1, "hex": "a91467d231542a89da3746c032025c6696eb0f94014487", "addresses": ["3B9yKkFLWzcP1s9BP1H6dqnDf5MFo4Qryz"], "asm": "OP_HASH160 67d231542a89da3746c032025c6696eb0f940144 OP_EQUAL", "type": "scripthash"}, "value": 0.00167, "n": 0}, {"scriptPubKey": {"reqSigs": 1, "hex": "00142c1da24b432c94fadeec15b507e24775a322c7d1", "addresses": ["bc1q9sw6yj6r9j204hhvzk6s0cj8wk3j9373fhlqtr"], "asm": "0 2c1da24b432c94fadeec15b507e24775a322c7d1", "type": "witness_v0_keyhash"}, "value": 1.668e-05, "n": 1}], "hex": "010000000001015b854db59ca707975119f16c8ddb4accaec8064000a29ab372a8dce9a8f3240943000000171600147b05dbfe522653de6176259ad8989d761bf6e74dffffffff02588c02000000000017a91467d231542a89da3746c032025c6696eb0f9401448784060000000000001600142c1da24b432c94fadeec15b507e24775a322c7d102483045022100c5ab6beba06e8a6c69d95b9699267e5170b4a0f147eab02ec54de5aa06ebac3702201a386b35da85b1e4d48d5e07de5d51f9dfb76b03fdc2ce7546f001d302d452280121038f2015382e1b6d843103fed3ec9cac6448f8b1c17ac5301b17f51758c04a4b1100000000", "vin": [{"txinwitness": ["3045022100c5ab6beba06e8a6c69d95b9699267e5170b4a0f147eab02ec54de5aa06ebac3702201a386b35da85b1e4d48d5e07de5d51f9dfb76b03fdc2ce7546f001d302d4522801", "038f2015382e1b6d843103fed3ec9cac6448f8b1c17ac5301b17f51758c04a4b11"], "sequence": 4294967295, "scriptSig": {"hex": "1600147b05dbfe522653de6176259ad8989d761bf6e74d", "asm": "00147b05dbfe522653de6176259ad8989d761bf6e74d"}, "vout": 67, "txid": "0924f3a8e9dca872b39aa2004006c8aecc4adb8d6cf119519707a79cb54d855b"}], "txid": "5a342de5145361eb81c691c2b8e12af4b44af00e460d65203987aed9fba1f11e", "blocktime": 1537874412, "version": 1, "confirmations": 11468, "time": 1537874412, "locktime": 0, "vsize": 165, "size": 247}