{"hash": "5a37cb33739b0381e762d2074b4bd2b7d7dad55bd7436bc08e8fd8ccc61d7082", "blockhash": "00000000000000000004ffacab907a6b429b9a5745fa0b75af4234bf69dd7176", "vout": [{"scriptPubKey": {"reqSigs": 1, "hex": "a9142f0323412578394731b3e4a858816970e088e64587", "addresses": ["35ybSa86Vfg1w5W2whkGpAUH1zdeiU6Kcj"], "asm": "OP_HASH160 2f0323412578394731b3e4a858816970e088e645 OP_EQUAL", "type": "scripthash"}, "value": 0.10012, "n": 0}, {"scriptPubKey": {"reqSigs": 1, "hex": "76a91462c7ecef52421762d959040479ff24dfd725fbe588ac", "addresses": ["1A1JisNf6J6Wm1Ea8ECfT4NZsqQ4pjv7C8"], "asm": "OP_DUP OP_HASH160 62c7ecef52421762d959040479ff24dfd725fbe5 OP_EQUALVERIFY OP_CHECKSIG", "type": "pubkeyhash"}, "value": 0.23900687, "n": 1}], "hex": "010000000183d0d9bb965bb28dc575bb5188f7dbf6201c293210dbbbf6e4ddfd4e4f3f8df5010000006a473044022010e23f831ca0c9d8adc9c286e7246032f5e9096151eb52941859de3afc66b7ee02202708ad66128759330df9b438a748c083e1134b5e174b1cd78842f3f1909afe0d01210366f64e8cc3892a0b9f1819af685e914c42bca1c20db3272cef090bbdcfeed87cffffffff0260c598000000000017a9142f0323412578394731b3e4a858816970e088e645870fb26c01000000001976a91462c7ecef52421762d959040479ff24dfd725fbe588ac00000000", "vin": [{"sequence": 4294967295, "scriptSig": {"hex": "473044022010e23f831ca0c9d8adc9c286e7246032f5e9096151eb52941859de3afc66b7ee02202708ad66128759330df9b438a748c083e1134b5e174b1cd78842f3f1909afe0d01210366f64e8cc3892a0b9f1819af685e914c42bca1c20db3272cef090bbdcfeed87c", "asm": "3044022010e23f831ca0c9d8adc9c286e7246032f5e9096151eb52941859de3afc66b7ee02202708ad66128759330df9b438a748c083e1134b5e174b1cd78842f3f1909afe0d[ALL] 0366f64e8cc3892a0b9f1819af685e914c42bca1c20db3272cef090bbdcfeed87c"}, "vout": 1, "txid": "f58d3f4f4efddde4f6bbdb1032291c20f6dbf78851bb75c58db25b96bbd9d083"}], "txid": "5a37cb33739b0381e762d2074b4bd2b7d7dad55bd7436bc08e8fd8ccc61d7082", "blocktime": 1537875543, "version": 1, "confirmations": 11464, "time": 1537875543, "locktime": 0, "vsize": 223, "size": 223}