{"hash": "66722a52919bf87ad9c9b1a2ecf2553dbce9e5685deff34663e5c551a2db4fdf", "blockhash": "000000000000000000022b45ed06c6f4ccd3cf7fb5ba4856ebd2e58215665228", "vout": [{"scriptPubKey": {"reqSigs": 1, "hex": "a91414e99a38aba6f7faec43e3294cdf64592a907b7987", "addresses": ["33bbHMvXAPEYSzkmBUvUfNzzs8vg2hfZu5"], "asm": "OP_HASH160 14e99a38aba6f7faec43e3294cdf64592a907b79 OP_EQUAL", "type": "scripthash"}, "value": 0.0002, "n": 0}, {"scriptPubKey": {"reqSigs": 1, "hex": "a91428e42e79f32d6f93a620f8ef44bfa40984adab7d87", "addresses": ["35REJYnj6qDRLsTVb28cJcNRjTR4G3dk1B"], "asm": "OP_HASH160 28e42e79f32d6f93a620f8ef44bfa40984adab7d OP_EQUAL", "type": "scripthash"}, "value": 0.00077058, "n": 1}], "hex": "01000000000102114efe3a90d11d12bf25c51d866cfca8d13c242437b975bd988e3e80514cb5890100000023220020202fa72f644a3faaf39a637e301b278f8a42081091df9fb116de7dd86cde53b5ffffffff59e32dd172b2f2e6539a2176462522543b17c474d0d1e03b7c2f8963cb0623730100000023220020f731a2185cb80898bccca8280b0426dc820585b60575910bf776117f77af1935ffffffff02204e00000000000017a91414e99a38aba6f7faec43e3294cdf64592a907b7987022d01000000000017a91428e42e79f32d6f93a620f8ef44bfa40984adab7d87040047304402206a49a7e3338c598da198c9128f57d2f20805b41e6fb5ff16c10fc0facc691dd802202d54e8880929d334cca7f14216a1ab133367b4dc4d1900c5daf43f19eefb69ef014830450221009c2c9f19f20e9b057fe0f0811a5d0c36d7a1a0c7067f4789d8a0419f996123a5022039462e0d9ff3a4a1e7a0ecfca4ffda5ff9215cd905225bd8c86dfdc6b63eb9690147522102f94d8c5184fe1b2795189d123fe4f0228c98c53605e02334584c255683b39c5b2102726ff74b232948bf3b0b4302934f660ce5f3375e3c0ec0ccd022a4260517f25a52ae0400473044022007ede60fc659516b299558b838c0e6117443b526ed3e912261ceeddbaf025884022007e3166cddb6266594b89456906c293a82c0b0f27826b437ca86e583fcfe046601483045022100c60e942228322e1671b34e58dc5aac6cac83b45963389c70079fe0d7e8de599b022014ab6979658d3b93c6c19803b3874bd913d6c7039309d61df7d452c018ad14970147522102ce1dbc4f9e78847656b4cc1f366b6634f99eb649b9bacbce337b68dcf66ba8762102726ff74b232948bf3b0b4302934f660ce5f3375e3c0ec0ccd022a4260517f25a52ae00000000", "vin": [{"txinwitness": ["", "304402206a49a7e3338c598da198c9128f57d2f20805b41e6fb5ff16c10fc0facc691dd802202d54e8880929d334cca7f14216a1ab133367b4dc4d1900c5daf43f19eefb69ef01", "30450221009c2c9f19f20e9b057fe0f0811a5d0c36d7a1a0c7067f4789d8a0419f996123a5022039462e0d9ff3a4a1e7a0ecfca4ffda5ff9215cd905225bd8c86dfdc6b63eb96901", "522102f94d8c5184fe1b2795189d123fe4f0228c98c53605e02334584c255683b39c5b2102726ff74b232948bf3b0b4302934f660ce5f3375e3c0ec0ccd022a4260517f25a52ae"], "sequence": 4294967295, "scriptSig": {"hex": "220020202fa72f644a3faaf39a637e301b278f8a42081091df9fb116de7dd86cde53b5", "asm": "0020202fa72f644a3faaf39a637e301b278f8a42081091df9fb116de7dd86cde53b5"}, "vout": 1, "txid": "89b54c51803e8e98bd75b93724243cd1a8fc6c861dc525bf121dd1903afe4e11"}, {"txinwitness": ["", "3044022007ede60fc659516b299558b838c0e6117443b526ed3e912261ceeddbaf025884022007e3166cddb6266594b89456906c293a82c0b0f27826b437ca86e583fcfe046601", "3045022100c60e942228322e1671b34e58dc5aac6cac83b45963389c70079fe0d7e8de599b022014ab6979658d3b93c6c19803b3874bd913d6c7039309d61df7d452c018ad149701", "522102ce1dbc4f9e78847656b4cc1f366b6634f99eb649b9bacbce337b68dcf66ba8762102726ff74b232948bf3b0b4302934f660ce5f3375e3c0ec0ccd022a4260517f25a52ae"], "sequence": 4294967295, "scriptSig": {"hex": "220020f731a2185cb80898bccca8280b0426dc820585b60575910bf776117f77af1935", "asm": "0020f731a2185cb80898bccca8280b0426dc820585b60575910bf776117f77af1935"}, "vout": 1, "txid": "732306cb63892f7c3be0d1d074c4173b5422254676219a53e6f2b272d12de359"}], "txid": "5a3ac48b2163128e55826e1d92b667fff2166f6a92d051c9b78b61bc343deb4f", "blocktime": 1537869901, "version": 1, "confirmations": 11524, "time": 1537869901, "locktime": 0, "vsize": 336, "size": 666}