{"hash": "5a3e5fad2c09d1c7c5d04f62208063e3699630b52875804d437b496b60d4fd43", "blockhash": "0000000000000000000e13cef7c366c0283d82e591d1acd082e914b08063cdf1", "vout": [{"scriptPubKey": {"reqSigs": 1, "hex": "76a9148de7d55c0eb9e6823e78c0915ec1d20530f0f6d188ac", "addresses": ["1DwL17peQYjn339vkatLUgKh4YAmD9YACy"], "asm": "OP_DUP OP_HASH160 8de7d55c0eb9e6823e78c0915ec1d20530f0f6d1 OP_EQUALVERIFY OP_CHECKSIG", "type": "pubkeyhash"}, "value": 0.00549509, "n": 0}, {"scriptPubKey": {"reqSigs": 1, "hex": "a914c988dad4ecf350715821882a42ce287f6db6629187", "addresses": ["3L4dgwWfw9XPkH4CU4oM31DuEFuWsNDBS3"], "asm": "OP_HASH160 c988dad4ecf350715821882a42ce287f6db66291 OP_EQUAL", "type": "scripthash"}, "value": 0.00811309, "n": 1}, {"scriptPubKey": {"reqSigs": 1, "hex": "76a9146834495ea577674bbaaf6cd1feef267d40871b3088ac", "addresses": ["1AVyutT3Sy5Y6XiLKkPGvyde3snd23yjsL"], "asm": "OP_DUP OP_HASH160 6834495ea577674bbaaf6cd1feef267d40871b30 OP_EQUALVERIFY OP_CHECKSIG", "type": "pubkeyhash"}, "value": 0.01699509, "n": 2}, {"scriptPubKey": {"reqSigs": 1, "hex": "76a9144a2242ffa84ff1575fd3ed66290ade1298b3595488ac", "addresses": ["17kz3jyrt2UiuThTHVghjEw8rkmkQc8pgv"], "asm": "OP_DUP OP_HASH160 4a2242ffa84ff1575fd3ed66290ade1298b35954 OP_EQUALVERIFY OP_CHECKSIG", "type": "pubkeyhash"}, "value": 0.02564017, "n": 3}, {"scriptPubKey": {"reqSigs": 1, "hex": "a9143f9d33dc1d256b02ec2c4307a9c2b7c957b90b5287", "addresses": ["37VNpFnDJLJpqC5ajka2Kpi9Z1whA5DZvs"], "asm": "OP_HASH160 3f9d33dc1d256b02ec2c4307a9c2b7c957b90b52 OP_EQUAL", "type": "scripthash"}, "value": 0.0905883, "n": 4}, {"scriptPubKey": {"reqSigs": 1, "hex": "a914a56a696a0539625a608a2a0dc9c1e69b08b3918d87", "addresses": ["3GmetpFRXp7Zoac2FTxcK8D6uJYrXQXh9z"], "asm": "OP_HASH160 a56a696a0539625a608a2a0dc9c1e69b08b3918d OP_EQUAL", "type": "scripthash"}, "value": 0.15999509, "n": 5}, {"scriptPubKey": {"reqSigs": 1, "hex": "76a914b2e04f47d2e93b6d888e4b8c330fde1793043cbe88ac", "addresses": ["1HJozTTwQD2x8FVWqzgbbZ8HbSphkbCdTm"], "asm": "OP_DUP OP_HASH160 b2e04f47d2e93b6d888e4b8c330fde1793043cbe OP_EQUALVERIFY OP_CHECKSIG", "type": "pubkeyhash"}, "value": 0.17099509, "n": 6}, {"scriptPubKey": {"reqSigs": 1, "hex": "76a91430eeff0a7b13da264ff5619626702a7f2a07a64888ac", "addresses": ["15Tjjxc1i4mhbTpTFk2jPWGumYkee7qeFt"], "asm": "OP_DUP OP_HASH160 30eeff0a7b13da264ff5619626702a7f2a07a648 OP_EQUALVERIFY OP_CHECKSIG", "type": "pubkeyhash"}, "value": 0.35437409, "n": 7}], "hex": "0100000002f6f1ce10ec0bcfca01d82d86ba0d09229447563d2a9db54347c6596047ec61150a0000006a473044022011a7da781c53195524f5012e81dc6f72daf8aed91d67f52276232fe7e498e61d022046efebbdef69166377c70f71e32f9e92de12a506962ab88eac1d5501f56fe529012103423cebd6284f5ac936efa313ba0571155c791ff7499817b1bdac47f593d0ff92fdffffff0dee7d9a303ae202ad4d59350e45ac1f143e8e7d5e9bb9ff3c136152762b4da7080000006a4730440220185f09a34233f96ebb09c8f39571318d2bea2b266488ae60e4bc946e352b7d5002207170f4b2d2843ac90d10d1537318f2bd5bbff3dfeb3774239574111abb28523a0121034df978bb0443629305f857a9178f1208ae99c34795d8a73dd16a882a4b2a6efffdffffff0885620800000000001976a9148de7d55c0eb9e6823e78c0915ec1d20530f0f6d188ac2d610c000000000017a914c988dad4ecf350715821882a42ce287f6db6629187b5ee1900000000001976a9146834495ea577674bbaaf6cd1feef267d40871b3088acb11f2700000000001976a9144a2242ffa84ff1575fd3ed66290ade1298b3595488ac0e3a8a000000000017a9143f9d33dc1d256b02ec2c4307a9c2b7c957b90b52871522f4000000000017a914a56a696a0539625a608a2a0dc9c1e69b08b3918d87f5ea0401000000001976a914b2e04f47d2e93b6d888e4b8c330fde1793043cbe88ac61bb1c02000000001976a91430eeff0a7b13da264ff5619626702a7f2a07a64888ac10490800", "vin": [{"sequence": 4294967293, "scriptSig": {"hex": "473044022011a7da781c53195524f5012e81dc6f72daf8aed91d67f52276232fe7e498e61d022046efebbdef69166377c70f71e32f9e92de12a506962ab88eac1d5501f56fe529012103423cebd6284f5ac936efa313ba0571155c791ff7499817b1bdac47f593d0ff92", "asm": "3044022011a7da781c53195524f5012e81dc6f72daf8aed91d67f52276232fe7e498e61d022046efebbdef69166377c70f71e32f9e92de12a506962ab88eac1d5501f56fe529[ALL] 03423cebd6284f5ac936efa313ba0571155c791ff7499817b1bdac47f593d0ff92"}, "vout": 10, "txid": "1561ec476059c64743b59d2a3d56479422090dba862dd801cacf0bec10cef1f6"}, {"sequence": 4294967293, "scriptSig": {"hex": "4730440220185f09a34233f96ebb09c8f39571318d2bea2b266488ae60e4bc946e352b7d5002207170f4b2d2843ac90d10d1537318f2bd5bbff3dfeb3774239574111abb28523a0121034df978bb0443629305f857a9178f1208ae99c34795d8a73dd16a882a4b2a6eff", "asm": "30440220185f09a34233f96ebb09c8f39571318d2bea2b266488ae60e4bc946e352b7d5002207170f4b2d2843ac90d10d1537318f2bd5bbff3dfeb3774239574111abb28523a[ALL] 034df978bb0443629305f857a9178f1208ae99c34795d8a73dd16a882a4b2a6eff"}, "vout": 8, "txid": "a74d2b765261133cffb99b5e7d8e3e141fac450e35594dad02e23a309a7dee0d"}], "txid": "5a3e5fad2c09d1c7c5d04f62208063e3699630b52875804d437b496b60d4fd43", "blocktime": 1537871767, "version": 1, "confirmations": 11492, "time": 1537871767, "locktime": 542992, "vsize": 570, "size": 570}