{"hash": "5a4023d68f96f150b98b82802d8edea781acdc75db66e6048a36c45f9bf512b0", "blockhash": "0000000000000000001cda96e906b7601b7a6fb1a3b62bca570a9e5d8f4b3de1", "vout": [{"scriptPubKey": {"reqSigs": 1, "hex": "76a914eed7ce0881e19195661aa60183a16de70ff9178f88ac", "addresses": ["1NmtM3ACGCi66SiE4EzAut88jZg4S2QW9e"], "asm": "OP_DUP OP_HASH160 eed7ce0881e19195661aa60183a16de70ff9178f OP_EQUALVERIFY OP_CHECKSIG", "type": "pubkeyhash"}, "value": 0.00178075, "n": 0}, {"scriptPubKey": {"reqSigs": 1, "hex": "a914237afe76dca645d5c7d4b2084afece9228d1ba2587", "addresses": ["34vcv2jzdZZRWam1ji4XvQq4DZpiN85bag"], "asm": "OP_HASH160 237afe76dca645d5c7d4b2084afece9228d1ba25 OP_EQUAL", "type": "scripthash"}, "value": 0.00270206, "n": 1}], "hex": "010000000102fff415c04723d6c604403a28fba20b33efb68309d9d470e9e1e248e280b25c000000006a47304402202bdd4c0aac0d55beb209d807f0a5880aabfe88cbd18dfe0c5a9c85eb4ceeaf7502206d6cceee4d6e5cd6d5cd9a1c6f373b022e173a6297877b1ef4e57bb7a89ea33001210335c1d3027ac18dc1386bf28f481e5dceed9eb449f98ee1540101fe4771ff6a9fffffffff029bb70200000000001976a914eed7ce0881e19195661aa60183a16de70ff9178f88ac7e1f04000000000017a914237afe76dca645d5c7d4b2084afece9228d1ba258700000000", "vin": [{"sequence": 4294967295, "scriptSig": {"hex": "47304402202bdd4c0aac0d55beb209d807f0a5880aabfe88cbd18dfe0c5a9c85eb4ceeaf7502206d6cceee4d6e5cd6d5cd9a1c6f373b022e173a6297877b1ef4e57bb7a89ea33001210335c1d3027ac18dc1386bf28f481e5dceed9eb449f98ee1540101fe4771ff6a9f", "asm": "304402202bdd4c0aac0d55beb209d807f0a5880aabfe88cbd18dfe0c5a9c85eb4ceeaf7502206d6cceee4d6e5cd6d5cd9a1c6f373b022e173a6297877b1ef4e57bb7a89ea330[ALL] 0335c1d3027ac18dc1386bf28f481e5dceed9eb449f98ee1540101fe4771ff6a9f"}, "vout": 0, "txid": "5cb280e248e2e1e970d4d90983b6ef330ba2fb283a4004c6d62347c015f4ff02"}], "txid": "5a4023d68f96f150b98b82802d8edea781acdc75db66e6048a36c45f9bf512b0", "blocktime": 1537873282, "version": 1, "confirmations": 11485, "time": 1537873282, "locktime": 0, "vsize": 223, "size": 223}