{"hash": "5a478f3673137348335a0eecf36e87cc2dd428ea14946c4ff89678f59dbe4bbb", "blockhash": "000000000000000000022b45ed06c6f4ccd3cf7fb5ba4856ebd2e58215665228", "vout": [{"scriptPubKey": {"reqSigs": 1, "hex": "76a9148061bf3197d7c30bd426f7a1057ceb61f3911e1188ac", "addresses": ["1Chpb8DvB8nXGxhidW2ABiLnzhQoG7fNAM"], "asm": "OP_DUP OP_HASH160 8061bf3197d7c30bd426f7a1057ceb61f3911e11 OP_EQUALVERIFY OP_CHECKSIG", "type": "pubkeyhash"}, "value": 0.01424824, "n": 0}, {"scriptPubKey": {"type": "nulldata", "hex": "6a4c500000775f0001f76f0f71b697c2d4765c059d3a016b46dc7dc7d0968d120d670c1906f999d5071489fc5a0da764ec84b34e3d7cba5baa077e06125119424c35b7bc9a9526289ac0f6612cd74e33776ee4", "asm": "OP_RETURN 0000775f0001f76f0f71b697c2d4765c059d3a016b46dc7dc7d0968d120d670c1906f999d5071489fc5a0da764ec84b34e3d7cba5baa077e06125119424c35b7bc9a9526289ac0f6612cd74e33776ee4"}, "value": 0.0, "n": 1}], "hex": "01000000017558f5833fa16c51c3ee57a90d42565c5e4a0bef42e04817187f3abf598901f5010000006a47304402201a579ce3c521d2438583790526284f3ee003cc1eee021f2fdf738ab6b658c37a0220678d522a3d0d37dda418651b365595abd37583c5218c7b84d0dd69d4d35fd2690121033edf72e64f9557e91afaf659c2857bbef1f2de9ee4aaa5adc60609c27bc35416ffffffff02b8bd1500000000001976a9148061bf3197d7c30bd426f7a1057ceb61f3911e1188ac0000000000000000536a4c500000775f0001f76f0f71b697c2d4765c059d3a016b46dc7dc7d0968d120d670c1906f999d5071489fc5a0da764ec84b34e3d7cba5baa077e06125119424c35b7bc9a9526289ac0f6612cd74e33776ee400000000", "vin": [{"sequence": 4294967295, "scriptSig": {"hex": "47304402201a579ce3c521d2438583790526284f3ee003cc1eee021f2fdf738ab6b658c37a0220678d522a3d0d37dda418651b365595abd37583c5218c7b84d0dd69d4d35fd2690121033edf72e64f9557e91afaf659c2857bbef1f2de9ee4aaa5adc60609c27bc35416", "asm": "304402201a579ce3c521d2438583790526284f3ee003cc1eee021f2fdf738ab6b658c37a0220678d522a3d0d37dda418651b365595abd37583c5218c7b84d0dd69d4d35fd269[ALL] 033edf72e64f9557e91afaf659c2857bbef1f2de9ee4aaa5adc60609c27bc35416"}, "vout": 1, "txid": "f5018959bf3a7f181748e042ef0b4a5e5c56420da957eec3516ca13f83f55875"}], "txid": "5a478f3673137348335a0eecf36e87cc2dd428ea14946c4ff89678f59dbe4bbb", "blocktime": 1537869901, "version": 1, "confirmations": 11523, "time": 1537869901, "locktime": 0, "vsize": 283, "size": 283}