{"hash": "5a47fb17f4c945f083791f43009a758c4f72d909e83c9a24b0b76175179b3824", "blockhash": "00000000000000000018f53835495a110e01622372bf6ae95dc86f2b0ab887b0", "vout": [{"scriptPubKey": {"reqSigs": 1, "hex": "a914448e2021a86062ac763e3daa7c3c19f72df7226887", "addresses": ["37wW8eC2pJHkaW8RgzWMR2hvtDjBuqhQx4"], "asm": "OP_HASH160 448e2021a86062ac763e3daa7c3c19f72df72268 OP_EQUAL", "type": "scripthash"}, "value": 0.35715687, "n": 0}, {"scriptPubKey": {"reqSigs": 1, "hex": "a91469f3769b111d27c2c90060124f62a333c1d58acc87", "addresses": ["3BMEXp6fFYM1MJsYACJEemiZiLKBaKrSPg"], "asm": "OP_HASH160 69f3769b111d27c2c90060124f62a333c1d58acc OP_EQUAL", "type": "scripthash"}, "value": 0.2, "n": 1}], "hex": "02000000013eb7cc909b6cb204746861aa18ee1ffd42ae7d976c6cac34552179d832e58c9200000000fdfd0000483045022100a42b2db0a6512c2cddb9e8f543a4fded9f04a63adb39a0e18a5d9714b365ea5602205ff951447fa9f95936e79a31288e77746761ca7e852d2ea549f0409059fa7d56014730440220461c030f63b848df976063d25436a934c938bcf60d534561a46f80f2681b5bce02202b6c5aeedf5156b1bf7477b646e1cab27562000a83c8eac6e7eb7ec1e5b3fd01014c695221034df85114a0bc676cdbebd1d4cb0db121f18a6775acce95618a200ba325cf8d6421034cd1b0b774da6940243aff0971a69ad2bfdf081a02cf7d889a85375c512eaee7210336cbc99e2390e091faed8bd070ee33b6dbdf6f6de67af8159638743461259c8b53ae000000000267fa20020000000017a914448e2021a86062ac763e3daa7c3c19f72df7226887002d31010000000017a91469f3769b111d27c2c90060124f62a333c1d58acc8700000000", "vin": [{"sequence": 0, "scriptSig": {"hex": "00483045022100a42b2db0a6512c2cddb9e8f543a4fded9f04a63adb39a0e18a5d9714b365ea5602205ff951447fa9f95936e79a31288e77746761ca7e852d2ea549f0409059fa7d56014730440220461c030f63b848df976063d25436a934c938bcf60d534561a46f80f2681b5bce02202b6c5aeedf5156b1bf7477b646e1cab27562000a83c8eac6e7eb7ec1e5b3fd01014c695221034df85114a0bc676cdbebd1d4cb0db121f18a6775acce95618a200ba325cf8d6421034cd1b0b774da6940243aff0971a69ad2bfdf081a02cf7d889a85375c512eaee7210336cbc99e2390e091faed8bd070ee33b6dbdf6f6de67af8159638743461259c8b53ae", "asm": "0 3045022100a42b2db0a6512c2cddb9e8f543a4fded9f04a63adb39a0e18a5d9714b365ea5602205ff951447fa9f95936e79a31288e77746761ca7e852d2ea549f0409059fa7d56[ALL] 30440220461c030f63b848df976063d25436a934c938bcf60d534561a46f80f2681b5bce02202b6c5aeedf5156b1bf7477b646e1cab27562000a83c8eac6e7eb7ec1e5b3fd01[ALL] 5221034df85114a0bc676cdbebd1d4cb0db121f18a6775acce95618a200ba325cf8d6421034cd1b0b774da6940243aff0971a69ad2bfdf081a02cf7d889a85375c512eaee7210336cbc99e2390e091faed8bd070ee33b6dbdf6f6de67af8159638743461259c8b53ae"}, "vout": 0, "txid": "928ce532d879215534ac6c6c977dae42fd1fee18aa61687404b26c9b90ccb73e"}], "txid": "5a47fb17f4c945f083791f43009a758c4f72d909e83c9a24b0b76175179b3824", "blocktime": 1537870928, "version": 2, "confirmations": 11512, "time": 1537870928, "locktime": 0, "vsize": 370, "size": 370}