{"hash": "cc96c7c191f968478488ceac7b52b43826e16099cef66772840710b28e9f8a19", "blockhash": "000000000000000000022b45ed06c6f4ccd3cf7fb5ba4856ebd2e58215665228", "vout": [{"scriptPubKey": {"reqSigs": 1, "hex": "a91432e297903d04469c5f1b3e48973d69382a819ad387", "addresses": ["36L5A2VZ95ZRFU6Hh5kVuHShYFNFchhfgr"], "asm": "OP_HASH160 32e297903d04469c5f1b3e48973d69382a819ad3 OP_EQUAL", "type": "scripthash"}, "value": 0.0358, "n": 0}, {"scriptPubKey": {"reqSigs": 1, "hex": "a9141988a27e3c2df4ddee7fad5a2303d086179b2a3087", "addresses": ["3422VtS7UtCvXYxoXMVp6eZupR252z85oC"], "asm": "OP_HASH160 1988a27e3c2df4ddee7fad5a2303d086179b2a30 OP_EQUAL", "type": "scripthash"}, "value": 2.41473382, "n": 1}], "hex": "0100000000010100bddd1b1cb2a3101bfcdb7f8b660df70196d03fb721246f21433a5a529c87f2020000002322002065d416c48a8072e0ac51c2d111eb194f009caef0332446c1bf2097316cf07fa9ffffffff0260a036000000000017a91432e297903d04469c5f1b3e48973d69382a819ad3876697640e0000000017a9141988a27e3c2df4ddee7fad5a2303d086179b2a30870400473044022043e73194788dd477b53b74c13471718d94fa3d089da091c770a0d0eab3d72dba02201d96c9c2702f86a48279a4dfc71ab739323106a5bd33ef1052b9abe836bf0f2501483045022100a96774ab9f11453c7e3cebb878b6d404ae9a6ad2ff37461bbc2c5835b214f0b702200104d001ce57204a8c6d07f3062535277c2aef7ef18fc0c76e527d2e9295708c0169522102f44abcf9e23c9a460da309ccca56c619c04eed3bde2c2cff5e7d78fbcd980b9c2103c9443cf3047bb6c2c82f1b0c44c36109cdc3d0d601d16d1189a1602bf8d1a0a02103bfe867059274412412e088af5572b92168c2ef495cfe6c9b7a753a009eb37c4853ae00000000", "vin": [{"txinwitness": ["", "3044022043e73194788dd477b53b74c13471718d94fa3d089da091c770a0d0eab3d72dba02201d96c9c2702f86a48279a4dfc71ab739323106a5bd33ef1052b9abe836bf0f2501", "3045022100a96774ab9f11453c7e3cebb878b6d404ae9a6ad2ff37461bbc2c5835b214f0b702200104d001ce57204a8c6d07f3062535277c2aef7ef18fc0c76e527d2e9295708c01", "522102f44abcf9e23c9a460da309ccca56c619c04eed3bde2c2cff5e7d78fbcd980b9c2103c9443cf3047bb6c2c82f1b0c44c36109cdc3d0d601d16d1189a1602bf8d1a0a02103bfe867059274412412e088af5572b92168c2ef495cfe6c9b7a753a009eb37c4853ae"], "sequence": 4294967295, "scriptSig": {"hex": "22002065d416c48a8072e0ac51c2d111eb194f009caef0332446c1bf2097316cf07fa9", "asm": "002065d416c48a8072e0ac51c2d111eb194f009caef0332446c1bf2097316cf07fa9"}, "vout": 2, "txid": "f2879c525a3a43216f2421b73fd09601f70d668b7fdbfc1b10a3b21c1bddbd00"}], "txid": "5a4c79e4e8f91a1ab573be21c0d96575e3eb81ec0249a2afcd1b2604b8e10577", "blocktime": 1537869901, "version": 1, "confirmations": 11522, "time": 1537869901, "locktime": 0, "vsize": 214, "size": 405}