{"hash": "5a4f46c3389419c23582c10332353b118badc77047ce8eca43b831666a7cbdbc", "blockhash": "0000000000000000000baef3f32e3676a92c3b2e5da21b426e4f302fc371ce76", "vout": [{"scriptPubKey": {"type": "nulldata", "hex": "6a4c50000077ff00012533861044c31a0a135228d8d19ed074892d00f8e87af8e8e963c7cfd5b97e925cd52729aae585e0367d49bae3dd5baa19f10613be5d6e0b7f46bc9a9526289ac0f6612cd74e33776ee4", "asm": "OP_RETURN 000077ff00012533861044c31a0a135228d8d19ed074892d00f8e87af8e8e963c7cfd5b97e925cd52729aae585e0367d49bae3dd5baa19f10613be5d6e0b7f46bc9a9526289ac0f6612cd74e33776ee4"}, "value": 0.0, "n": 0}, {"scriptPubKey": {"reqSigs": 1, "hex": "76a914764bce7c656bf65f839b4ab56fe1ca3781a4428788ac", "addresses": ["1BnVYmewSJTXNJX5qRPGvL4hCDAQ8G3r8M"], "asm": "OP_DUP OP_HASH160 764bce7c656bf65f839b4ab56fe1ca3781a44287 OP_EQUALVERIFY OP_CHECKSIG", "type": "pubkeyhash"}, "value": 0.01382644, "n": 1}], "hex": "010000000171053b568795c266260ca2a55a92d0c5f3d2d80550186c292989a6c853f7190f000000006a473044022018be1e9055dcf77a8bb709ecfbf23a268181fe9ac0e691b2fd0ea1f40980124f0220562f7690a02c784a93ea1a383556a9034ae3a6ed19938ceaf28eab075e5d2518012103ba6a23a68e0c04841224c2d205b22934d77dcc237c410a76b5a24e438d0d6ff3ffffffff020000000000000000536a4c50000077ff00012533861044c31a0a135228d8d19ed074892d00f8e87af8e8e963c7cfd5b97e925cd52729aae585e0367d49bae3dd5baa19f10613be5d6e0b7f46bc9a9526289ac0f6612cd74e33776ee4f4181500000000001976a914764bce7c656bf65f839b4ab56fe1ca3781a4428788ac00000000", "vin": [{"sequence": 4294967295, "scriptSig": {"hex": "473044022018be1e9055dcf77a8bb709ecfbf23a268181fe9ac0e691b2fd0ea1f40980124f0220562f7690a02c784a93ea1a383556a9034ae3a6ed19938ceaf28eab075e5d2518012103ba6a23a68e0c04841224c2d205b22934d77dcc237c410a76b5a24e438d0d6ff3", "asm": "3044022018be1e9055dcf77a8bb709ecfbf23a268181fe9ac0e691b2fd0ea1f40980124f0220562f7690a02c784a93ea1a383556a9034ae3a6ed19938ceaf28eab075e5d2518[ALL] 03ba6a23a68e0c04841224c2d205b22934d77dcc237c410a76b5a24e438d0d6ff3"}, "vout": 0, "txid": "0f19f753c8a68929296c185005d8d2f3c5d0925aa5a20c2666c29587563b0571"}], "txid": "5a4f46c3389419c23582c10332353b118badc77047ce8eca43b831666a7cbdbc", "blocktime": 1537876114, "version": 1, "confirmations": 11460, "time": 1537876114, "locktime": 0, "vsize": 283, "size": 283}