{"hash": "5a5528ed44a6dc207456b2fa46250c1aeff6c3a565c305db092b5256f08e5f47", "blockhash": "0000000000000000000e13cef7c366c0283d82e591d1acd082e914b08063cdf1", "vout": [{"scriptPubKey": {"reqSigs": 1, "hex": "76a914e26bd2da0e39952fcb5ed1b23231d9a7ccd4f8fb88ac", "addresses": ["1MeCt59YLmgD588XmijvRCdyyS2DV9fCGt"], "asm": "OP_DUP OP_HASH160 e26bd2da0e39952fcb5ed1b23231d9a7ccd4f8fb OP_EQUALVERIFY OP_CHECKSIG", "type": "pubkeyhash"}, "value": 0.04895663, "n": 0}], "hex": "0100000001b778a0ac0ada1d4a6b754668bebd3251b0993ba6057d178c4fee7bb8e339637b000000006a47304402202988c2a148cd11d4f42ab895bd98e025af161bee0dbc85f3d7fa47f19b22a17b02207881c6767d37122e9be8b12a9a21414efaee10bf9c5ebe67ec903abe148c969f01210209cf88d8d0fb8249a31fe385e4182e1ff8c6913c6aae93abdab876fc28668c37ffffffff01afb34a00000000001976a914e26bd2da0e39952fcb5ed1b23231d9a7ccd4f8fb88ac00000000", "vin": [{"sequence": 4294967295, "scriptSig": {"hex": "47304402202988c2a148cd11d4f42ab895bd98e025af161bee0dbc85f3d7fa47f19b22a17b02207881c6767d37122e9be8b12a9a21414efaee10bf9c5ebe67ec903abe148c969f01210209cf88d8d0fb8249a31fe385e4182e1ff8c6913c6aae93abdab876fc28668c37", "asm": "304402202988c2a148cd11d4f42ab895bd98e025af161bee0dbc85f3d7fa47f19b22a17b02207881c6767d37122e9be8b12a9a21414efaee10bf9c5ebe67ec903abe148c969f[ALL] 0209cf88d8d0fb8249a31fe385e4182e1ff8c6913c6aae93abdab876fc28668c37"}, "vout": 0, "txid": "7b6339e3b87bee4f8c177d05a63b99b05132bdbe6846756b4a1dda0aaca078b7"}], "txid": "5a5528ed44a6dc207456b2fa46250c1aeff6c3a565c305db092b5256f08e5f47", "blocktime": 1537871767, "version": 1, "confirmations": 11495, "time": 1537871767, "locktime": 0, "vsize": 191, "size": 191}