{"hash": "5a560017dc786e8faad7108e4b3e2e7074872fa3fa58f5bd28876d87df4e0d23", "blockhash": "000000000000000000022b45ed06c6f4ccd3cf7fb5ba4856ebd2e58215665228", "vout": [{"scriptPubKey": {"reqSigs": 1, "hex": "76a9142588b19b418c5c328508046fc8a155b43d97341a88ac", "addresses": ["14RTkkNPK1dqhGocaEjFQvniKB8q4QrCgJ"], "asm": "OP_DUP OP_HASH160 2588b19b418c5c328508046fc8a155b43d97341a OP_EQUALVERIFY OP_CHECKSIG", "type": "pubkeyhash"}, "value": 0.00387049, "n": 0}, {"scriptPubKey": {"reqSigs": 1, "hex": "76a914ba48d3090f0bcc93b34873ba6450d4ac90d408dd88ac", "addresses": ["1Hyyvc7rpHsg1tgDw9ojbGkvVLTDU6sDkU"], "asm": "OP_DUP OP_HASH160 ba48d3090f0bcc93b34873ba6450d4ac90d408dd OP_EQUALVERIFY OP_CHECKSIG", "type": "pubkeyhash"}, "value": 5.46e-06, "n": 1}, {"scriptPubKey": {"type": "nulldata", "hex": "6a146f6d6e69000000000000001f000000ee507bd5b6", "asm": "OP_RETURN 6f6d6e69000000000000001f000000ee507bd5b6"}, "value": 0.0, "n": 2}], "hex": "01000000015025d228d49e98d0949a026c4ee8f1bc80ca967916e8df8950681ac990f174b2000000008b483045022100a6b94a9cc5baaee1e2d6f1b577751e5ae71adcf68011dd0331b0b3a92ba6da6e022004e1a3f826915c85c59742bfa9e016d0e86ffbcbd1713ba7cd1a6b117aed7e24014104630f9f7c8319a071b2911216abfaaacfcb485e44eac3a32917395da87717b1517c5b3c3572146eaf7990a397666103d434eb119f17af8f6ac3ad1270ffed9976ffffffff03e9e70500000000001976a9142588b19b418c5c328508046fc8a155b43d97341a88ac22020000000000001976a914ba48d3090f0bcc93b34873ba6450d4ac90d408dd88ac0000000000000000166a146f6d6e69000000000000001f000000ee507bd5b600000000", "vin": [{"sequence": 4294967295, "scriptSig": {"hex": "483045022100a6b94a9cc5baaee1e2d6f1b577751e5ae71adcf68011dd0331b0b3a92ba6da6e022004e1a3f826915c85c59742bfa9e016d0e86ffbcbd1713ba7cd1a6b117aed7e24014104630f9f7c8319a071b2911216abfaaacfcb485e44eac3a32917395da87717b1517c5b3c3572146eaf7990a397666103d434eb119f17af8f6ac3ad1270ffed9976", "asm": "3045022100a6b94a9cc5baaee1e2d6f1b577751e5ae71adcf68011dd0331b0b3a92ba6da6e022004e1a3f826915c85c59742bfa9e016d0e86ffbcbd1713ba7cd1a6b117aed7e24[ALL] 04630f9f7c8319a071b2911216abfaaacfcb485e44eac3a32917395da87717b1517c5b3c3572146eaf7990a397666103d434eb119f17af8f6ac3ad1270ffed9976"}, "vout": 0, "txid": "b274f190c91a685089dfe8167996ca80bcf1e84e6c029a94d0989ed428d22550"}], "txid": "5a560017dc786e8faad7108e4b3e2e7074872fa3fa58f5bd28876d87df4e0d23", "blocktime": 1537869901, "version": 1, "confirmations": 11522, "time": 1537869901, "locktime": 0, "vsize": 289, "size": 289}