{"hash": "5a5b6156a7fd0385180a8df0c408f4306c2743324cfea0e73ff804b68c1e2b7a", "blockhash": "00000000000000000024a2167bbff67b0be802c0b01cdd79e6331c2be6459f87", "vout": [{"scriptPubKey": {"reqSigs": 1, "hex": "76a914b8498790e7f5592f4faa6cf6cb3f7566ee1a90e088ac", "addresses": ["1HoRRDkX4da5JtxSxxVinscTq8UzQoYo53"], "asm": "OP_DUP OP_HASH160 b8498790e7f5592f4faa6cf6cb3f7566ee1a90e0 OP_EQUALVERIFY OP_CHECKSIG", "type": "pubkeyhash"}, "value": 0.02942202, "n": 0}, {"scriptPubKey": {"reqSigs": 1, "hex": "76a914a6417ab48b96d7c26c080c638c0cebf51024f6e688ac", "addresses": ["1GA5cRk2KyVivH5vSZCvUvCYesJ5hLE21b"], "asm": "OP_DUP OP_HASH160 a6417ab48b96d7c26c080c638c0cebf51024f6e6 OP_EQUALVERIFY OP_CHECKSIG", "type": "pubkeyhash"}, "value": 0.1338748, "n": 1}], "hex": "01000000016bd27a3704274f1e03af13c234bb11b71959d9800ed007ac06157e4d00eda2ea010000006a473044022062c63bdcaf92c7190142a525e48f2f5b996e4d65a6696ad8c8612113798f37bb02203231e233fa6aa7f0e191cc7c9cf42068508621b95c8d4f5c3efae5bddccd98930121022198e0b54521588575e3a310d6f2351432ac19cf6d8943a4be9ff80d8cf5c519ffffffff02fae42c00000000001976a914b8498790e7f5592f4faa6cf6cb3f7566ee1a90e088acd846cc00000000001976a914a6417ab48b96d7c26c080c638c0cebf51024f6e688ac00000000", "vin": [{"sequence": 4294967295, "scriptSig": {"hex": "473044022062c63bdcaf92c7190142a525e48f2f5b996e4d65a6696ad8c8612113798f37bb02203231e233fa6aa7f0e191cc7c9cf42068508621b95c8d4f5c3efae5bddccd98930121022198e0b54521588575e3a310d6f2351432ac19cf6d8943a4be9ff80d8cf5c519", "asm": "3044022062c63bdcaf92c7190142a525e48f2f5b996e4d65a6696ad8c8612113798f37bb02203231e233fa6aa7f0e191cc7c9cf42068508621b95c8d4f5c3efae5bddccd9893[ALL] 022198e0b54521588575e3a310d6f2351432ac19cf6d8943a4be9ff80d8cf5c519"}, "vout": 1, "txid": "eaa2ed004d7e1506ac07d00e80d95919b711bb34c213af031e4f2704377ad26b"}], "txid": "5a5b6156a7fd0385180a8df0c408f4306c2743324cfea0e73ff804b68c1e2b7a", "blocktime": 1537870564, "version": 1, "confirmations": 11515, "time": 1537870564, "locktime": 0, "vsize": 225, "size": 225}