{"hash": "5a5c1f0da58b7b62dff212cc3b12d2569b586de22b957cb6c27518625011050b", "blockhash": "0000000000000000001e0dab787dd257d1dbfcb92a98c2207d5e1078be1f4165", "vout": [{"scriptPubKey": {"reqSigs": 1, "hex": "76a9140f3b5026cb0d3978ed9764d12097672c53900db688ac", "addresses": ["12PYC2MVUKiyPGLV6nK3xoHtFeLHD3opAB"], "asm": "OP_DUP OP_HASH160 0f3b5026cb0d3978ed9764d12097672c53900db6 OP_EQUALVERIFY OP_CHECKSIG", "type": "pubkeyhash"}, "value": 0.00014216, "n": 0}, {"scriptPubKey": {"reqSigs": 1, "hex": "76a914e6456661e37c75dc8f31b9b59de3b6a3813649a888ac", "addresses": ["1MzZZ7YHegi1f4P64wwzLtTDgmMYwdtCq3"], "asm": "OP_DUP OP_HASH160 e6456661e37c75dc8f31b9b59de3b6a3813649a8 OP_EQUALVERIFY OP_CHECKSIG", "type": "pubkeyhash"}, "value": 2.81750685, "n": 1}], "hex": "0100000001a5fc80a6b5d3a1d26b3e85de3f0c9064b6a2411421d5fa80cac526dc6ab6f9c9010000006a47304402204624a655b75232b571cbf2dbe267a81fe69563a75a79f99608163d65ee24c30c02202eb2a7744a19eb6058163cb87c8e9086214a84fa5081598da5b030d40f91be93012103ba749813b9769419f4217a8a06afd8bf1e7449c2a7701a284d56250ffebcb28affffffff0288370000000000001976a9140f3b5026cb0d3978ed9764d12097672c53900db688ac9d2ccb10000000001976a914e6456661e37c75dc8f31b9b59de3b6a3813649a888ac00000000", "vin": [{"sequence": 4294967295, "scriptSig": {"hex": "47304402204624a655b75232b571cbf2dbe267a81fe69563a75a79f99608163d65ee24c30c02202eb2a7744a19eb6058163cb87c8e9086214a84fa5081598da5b030d40f91be93012103ba749813b9769419f4217a8a06afd8bf1e7449c2a7701a284d56250ffebcb28a", "asm": "304402204624a655b75232b571cbf2dbe267a81fe69563a75a79f99608163d65ee24c30c02202eb2a7744a19eb6058163cb87c8e9086214a84fa5081598da5b030d40f91be93[ALL] 03ba749813b9769419f4217a8a06afd8bf1e7449c2a7701a284d56250ffebcb28a"}, "vout": 1, "txid": "c9f9b66adc26c5ca80fad5211441a2b664900c3fde853e6bd2a1d3b5a680fca5"}], "txid": "5a5c1f0da58b7b62dff212cc3b12d2569b586de22b957cb6c27518625011050b", "blocktime": 1537872475, "version": 1, "confirmations": 11487, "time": 1537872475, "locktime": 0, "vsize": 225, "size": 225}