{"hash": "a04bb4927cf493bca48b706e0b3522009a3af99e6d98cb1ad815cf7548945bc1", "blockhash": "00000000000000000018f53835495a110e01622372bf6ae95dc86f2b0ab887b0", "vout": [{"scriptPubKey": {"reqSigs": 1, "hex": "a9142a923a27aaa1c0fb8e514439ab76189af1b0634187", "addresses": ["35a7UeDAoQ1MXpyhy32iSNVv6f8nGzoAcE"], "asm": "OP_HASH160 2a923a27aaa1c0fb8e514439ab76189af1b06341 OP_EQUAL", "type": "scripthash"}, "value": 0.00064129, "n": 0}, {"scriptPubKey": {"reqSigs": 1, "hex": "0014c1fc813f63e51b9f7f4fdaad660f8f9e0d64c995", "addresses": ["bc1qc87gz0mru5de7l60m2kkvru0ncxkfjv4qzfdvn"], "asm": "0 c1fc813f63e51b9f7f4fdaad660f8f9e0d64c995", "type": "witness_v0_keyhash"}, "value": 0.00262705, "n": 1}], "hex": "01000000000101631b0b8c877d5092ab5785a816f61d1d7059b2963f67de4ebd637e41901f6b390000000017160014aec903a469898b6708f7ccf54421f50a1807a6d6ffffffff0281fa00000000000017a9142a923a27aaa1c0fb8e514439ab76189af1b06341873102040000000000160014c1fc813f63e51b9f7f4fdaad660f8f9e0d64c99502483045022100c6d171eead1b8db8330de597d8f843a09d02fa63349eeafa1f499ff5a57858a30220764a6d9abcfbc45665b67e99d47752b9171a3ba3f3eca1c1a904c2292c947a950121026fddf8054b9e5b1c6d610e09d219fea0f3fd5d9b7a3859b03ca3f5934bc5831600000000", "vin": [{"txinwitness": ["3045022100c6d171eead1b8db8330de597d8f843a09d02fa63349eeafa1f499ff5a57858a30220764a6d9abcfbc45665b67e99d47752b9171a3ba3f3eca1c1a904c2292c947a9501", "026fddf8054b9e5b1c6d610e09d219fea0f3fd5d9b7a3859b03ca3f5934bc58316"], "sequence": 4294967295, "scriptSig": {"hex": "160014aec903a469898b6708f7ccf54421f50a1807a6d6", "asm": "0014aec903a469898b6708f7ccf54421f50a1807a6d6"}, "vout": 0, "txid": "396b1f90417e63bd4ede673f96b259701d1df616a88557ab92507d878c0b1b63"}], "txid": "5a61624a4429c7bf334a0abf72cd6f40a22623838c1b40719bc266c3468b4aac", "blocktime": 1537870928, "version": 1, "confirmations": 11514, "time": 1537870928, "locktime": 0, "vsize": 165, "size": 247}