{"hash": "d5edb06617d5bb9c04802f0a8b6a33e35af32cb1b83b559fce7ef2c2caa5cd02", "blockhash": "0000000000000000000e13cef7c366c0283d82e591d1acd082e914b08063cdf1", "vout": [{"scriptPubKey": {"reqSigs": 1, "hex": "a9145d23bbc92a88b13a08af7f4872058bf57d0d82eb87", "addresses": ["3ABVaCC2jGaSUk6H39SPjzTjta1Z5LDBvk"], "asm": "OP_HASH160 5d23bbc92a88b13a08af7f4872058bf57d0d82eb OP_EQUAL", "type": "scripthash"}, "value": 0.024249, "n": 0}, {"scriptPubKey": {"reqSigs": 1, "hex": "001448cc9c96dde5a0fa095cae92f1c3bd327f8e4861", "addresses": ["bc1qfrxfe9kauks05z2u46f0rsaaxflcujrpmn7kfp"], "asm": "0 48cc9c96dde5a0fa095cae92f1c3bd327f8e4861", "type": "witness_v0_keyhash"}, "value": 0.21723672, "n": 1}], "hex": "01000000000101e29c2a211735290439df4b5da1a9c9cfbcc81a196ec2568b7140a53af7c04c2a1200000017160014bd51a7823ea2e827fca30da99cb9b3bad9e30b65ffffffff02440025000000000017a9145d23bbc92a88b13a08af7f4872058bf57d0d82eb87187a4b010000000016001448cc9c96dde5a0fa095cae92f1c3bd327f8e4861024830450221009385cae62b4828c28117c80db60111c2278128a55b92324b82b64974584d726502203cc92c36e2985100a61c83e278b14cbe0c62114af5bc5ef0eb7a59249ed658bc012102ced3dff380a2107e9aeb4a738ff94cfc7d4adf610b4dd8526a35a150759bcad600000000", "vin": [{"txinwitness": ["30450221009385cae62b4828c28117c80db60111c2278128a55b92324b82b64974584d726502203cc92c36e2985100a61c83e278b14cbe0c62114af5bc5ef0eb7a59249ed658bc01", "02ced3dff380a2107e9aeb4a738ff94cfc7d4adf610b4dd8526a35a150759bcad6"], "sequence": 4294967295, "scriptSig": {"hex": "160014bd51a7823ea2e827fca30da99cb9b3bad9e30b65", "asm": "0014bd51a7823ea2e827fca30da99cb9b3bad9e30b65"}, "vout": 18, "txid": "2a4cc0f73aa540718b56c26e191ac8bccfc9a9a15d4bdf3904293517212a9ce2"}], "txid": "5a644afa2f4009dba7104ec6e73e5c88a492530db9389c2921ca5ce19eb15e4b", "blocktime": 1537871767, "version": 1, "confirmations": 11495, "time": 1537871767, "locktime": 0, "vsize": 165, "size": 247}