{"hash": "5a68a4c3a4dbc654510165f78da5290993deb0d2704188737eff3e0bb07ea71b", "blockhash": "00000000000000000018f53835495a110e01622372bf6ae95dc86f2b0ab887b0", "vout": [{"scriptPubKey": {"reqSigs": 1, "hex": "76a91458f32143a95cd11ee5f37e5d1dff6f9fbafa660b88ac", "addresses": ["197Kir2psnjrTFwx8R9cUnmVCUFeUgCNxS"], "asm": "OP_DUP OP_HASH160 58f32143a95cd11ee5f37e5d1dff6f9fbafa660b OP_EQUALVERIFY OP_CHECKSIG", "type": "pubkeyhash"}, "value": 0.91703225, "n": 0}, {"scriptPubKey": {"type": "nulldata", "hex": "6a146f6d6e69000000000000001f000000245459e480", "asm": "OP_RETURN 6f6d6e69000000000000001f000000245459e480"}, "value": 0.0, "n": 1}, {"scriptPubKey": {"reqSigs": 1, "hex": "76a914c45a0e7124331d1350a074a8b9e63c39226bd6d088ac", "addresses": ["1JuDKq2ibjmEaVnyxuK2rFAjp2wNzWjmXT"], "asm": "OP_DUP OP_HASH160 c45a0e7124331d1350a074a8b9e63c39226bd6d0 OP_EQUALVERIFY OP_CHECKSIG", "type": "pubkeyhash"}, "value": 5.46e-06, "n": 2}], "hex": "0100000001dc352617cc46568593e63d24a301d1ff8d94a2e7af77a795aef6a20e784311ce010000006a47304402201dd6e23cdb2cd8c4150da91815f1ec1f630832331d0f6c2246601e265ba213130220434eee40b8f94959ccb6075ac5ad528fb6b17de1b074ea025871e58441d0740c01210251e12972b557d5dbac73bfd2470adeac64ac46202389f0ef2db7231f645a0aeafeffffff03b9477705000000001976a91458f32143a95cd11ee5f37e5d1dff6f9fbafa660b88ac0000000000000000166a146f6d6e69000000000000001f000000245459e48022020000000000001976a914c45a0e7124331d1350a074a8b9e63c39226bd6d088ac0e490800", "vin": [{"sequence": 4294967294, "scriptSig": {"hex": "47304402201dd6e23cdb2cd8c4150da91815f1ec1f630832331d0f6c2246601e265ba213130220434eee40b8f94959ccb6075ac5ad528fb6b17de1b074ea025871e58441d0740c01210251e12972b557d5dbac73bfd2470adeac64ac46202389f0ef2db7231f645a0aea", "asm": "304402201dd6e23cdb2cd8c4150da91815f1ec1f630832331d0f6c2246601e265ba213130220434eee40b8f94959ccb6075ac5ad528fb6b17de1b074ea025871e58441d0740c[ALL] 0251e12972b557d5dbac73bfd2470adeac64ac46202389f0ef2db7231f645a0aea"}, "vout": 1, "txid": "ce1143780ea2f6ae95a777afe7a2948dffd101a3243de693855646cc172635dc"}], "txid": "5a68a4c3a4dbc654510165f78da5290993deb0d2704188737eff3e0bb07ea71b", "blocktime": 1537870928, "version": 1, "confirmations": 11512, "time": 1537870928, "locktime": 542990, "vsize": 256, "size": 256}