{"hash": "c278f129f25afe7f9ad76c03411e95cc63ddc237fdfbcc4d6bacb5da90f7a0d8", "blockhash": "00000000000000000024a2167bbff67b0be802c0b01cdd79e6331c2be6459f87", "vout": [{"scriptPubKey": {"reqSigs": 1, "hex": "a914bce814ac1e101dd13f3155009f65043d810f8aae87", "addresses": ["3JuryruDrpX3i42hxkG9etMrqmCRZ4YWVs"], "asm": "OP_HASH160 bce814ac1e101dd13f3155009f65043d810f8aae OP_EQUAL", "type": "scripthash"}, "value": 0.01003917, "n": 0}, {"scriptPubKey": {"reqSigs": 1, "hex": "76a9146f4b18ea32188c2c6c117c6be7d98ca1c5ea3b4288ac", "addresses": ["1B9Ty9WUG3Typ6tQDdnR6nVr6zQML7R3kK"], "asm": "OP_DUP OP_HASH160 6f4b18ea32188c2c6c117c6be7d98ca1c5ea3b42 OP_EQUALVERIFY OP_CHECKSIG", "type": "pubkeyhash"}, "value": 0.0022786, "n": 1}], "hex": "020000000001027503acac32f3cac67fc48146db782cb88376cef369810f7b3a3bfadc295885d10000000017160014939b6e56e1ba59bc66a4d69bd21766fd912a6508feffffffadaf18455bebd2af8012b6426f13db2c3b2a804f8244c9a8efd508f4188a522e0e00000017160014572211e86aaa406cbb3427179a015bfc56177037feffffff028d510f000000000017a914bce814ac1e101dd13f3155009f65043d810f8aae87147a0300000000001976a9146f4b18ea32188c2c6c117c6be7d98ca1c5ea3b4288ac02483045022100df5b1d752a05b68f7c967c7f095fa40ab2fdedc7f6c462df2e4f2050a6c2d5f4022068010da5e920551ba32c8f72196cb0e0a100aa6d43ead8ed742ae1e272b56e68012102d3713b33880918ac1dedb48d19f86472dd1f712338f930c5cf1c5f8189451d46024830450221008878950bf14c5d3af977ff8113be6a71f0dbb2d1d0c8d4d26dbe42570b0b3ebd022019b5caf9f9139dd37afbb56c25cb8ee8eac7ad93ef7ec54fd194266a7f2166a50121027e9a633cf3cadf36e58a62996666481f7608d3ea305a0963d8451633590b5dae0d490800", "vin": [{"txinwitness": ["3045022100df5b1d752a05b68f7c967c7f095fa40ab2fdedc7f6c462df2e4f2050a6c2d5f4022068010da5e920551ba32c8f72196cb0e0a100aa6d43ead8ed742ae1e272b56e6801", "02d3713b33880918ac1dedb48d19f86472dd1f712338f930c5cf1c5f8189451d46"], "sequence": 4294967294, "scriptSig": {"hex": "160014939b6e56e1ba59bc66a4d69bd21766fd912a6508", "asm": "0014939b6e56e1ba59bc66a4d69bd21766fd912a6508"}, "vout": 0, "txid": "d1855829dcfa3b3a7b0f8169f3ce7683b82c78db4681c47fc6caf332acac0375"}, {"txinwitness": ["30450221008878950bf14c5d3af977ff8113be6a71f0dbb2d1d0c8d4d26dbe42570b0b3ebd022019b5caf9f9139dd37afbb56c25cb8ee8eac7ad93ef7ec54fd194266a7f2166a501", "027e9a633cf3cadf36e58a62996666481f7608d3ea305a0963d8451633590b5dae"], "sequence": 4294967294, "scriptSig": {"hex": "160014572211e86aaa406cbb3427179a015bfc56177037", "asm": "0014572211e86aaa406cbb3427179a015bfc56177037"}, "vout": 14, "txid": "2e528a18f408d5efa8c944824f802a3b2cdb136f42b61280afd2eb5b4518afad"}], "txid": "5a718eb864e821cd33f036dccec548936ad341b3fb0ce2d405571319b1fb61ab", "blocktime": 1537870564, "version": 2, "confirmations": 11515, "time": 1537870564, "locktime": 542989, "vsize": 259, "size": 422}