{"hash": "b321738f2b56bec88490bfdbb3f10b1275411f028cfa4a05571c3ccf6cbbb740", "blockhash": "0000000000000000001f0ddff1eddb255c1121bcd4da4f1bc9a0da00cae72433", "vout": [{"scriptPubKey": {"reqSigs": 1, "hex": "a914ba7810eddf083c19606089ea1e6d05cb5ed315da87", "addresses": ["3JgySZjR5uNBzuenyi3u63GKKzM2L65QyE"], "asm": "OP_HASH160 ba7810eddf083c19606089ea1e6d05cb5ed315da OP_EQUAL", "type": "scripthash"}, "value": 0.01009885, "n": 0}, {"scriptPubKey": {"reqSigs": 1, "hex": "76a914ab3979182df32bcea9f66091722753f10d3c303d88ac", "addresses": ["1GcMQ6jN2iTgapCBfDddooXE8PQFuwPTw3"], "asm": "OP_DUP OP_HASH160 ab3979182df32bcea9f66091722753f10d3c303d OP_EQUALVERIFY OP_CHECKSIG", "type": "pubkeyhash"}, "value": 0.0020346, "n": 1}], "hex": "020000000001029ef32be16b608b9d302d67db5ca6ba711ba3446420e038a8475255f925416bf50500000017160014c199adf97061129b159b1ad3068ddf94c9d63cabfefffffffb1621b184d9ca67a8d59697489bea31762245eab20426584f8689a81998b0ed00000000171600145930056ad2ae6db410d1fb0e043cb3c72f1ddfb9feffffff02dd680f000000000017a914ba7810eddf083c19606089ea1e6d05cb5ed315da87c41a0300000000001976a914ab3979182df32bcea9f66091722753f10d3c303d88ac02473044022003e38c34d11e2a5a350463852de1ce2c917034decba47620af7a7a277019509102202564fb4190575c020e786855ab5fcd9845d460c7c88694fc5b7373a03c0b82df012103ceb4eb058d4441aad569c55c71be9232a18167d8a559da29ef5470398b702fb4024730440220648cac476d2af578d4ba4555ba094663783427e3749d7646362ad9569b1ec0a002207fc409ed5be017744b593ea90d6f44755ab8be23ca34b6e8f0f73c499bfca45e0121023399cfe88bd811d29064108fa0553e32c940f5d7641e7fd3b369556e866cb7b3d1480800", "vin": [{"txinwitness": ["3044022003e38c34d11e2a5a350463852de1ce2c917034decba47620af7a7a277019509102202564fb4190575c020e786855ab5fcd9845d460c7c88694fc5b7373a03c0b82df01", "03ceb4eb058d4441aad569c55c71be9232a18167d8a559da29ef5470398b702fb4"], "sequence": 4294967294, "scriptSig": {"hex": "160014c199adf97061129b159b1ad3068ddf94c9d63cab", "asm": "0014c199adf97061129b159b1ad3068ddf94c9d63cab"}, "vout": 5, "txid": "f56b4125f9555247a838e0206444a31b71baa65cdb672d309d8b606be12bf39e"}, {"txinwitness": ["30440220648cac476d2af578d4ba4555ba094663783427e3749d7646362ad9569b1ec0a002207fc409ed5be017744b593ea90d6f44755ab8be23ca34b6e8f0f73c499bfca45e01", "023399cfe88bd811d29064108fa0553e32c940f5d7641e7fd3b369556e866cb7b3"], "sequence": 4294967294, "scriptSig": {"hex": "1600145930056ad2ae6db410d1fb0e043cb3c72f1ddfb9", "asm": "00145930056ad2ae6db410d1fb0e043cb3c72f1ddfb9"}, "vout": 0, "txid": "edb09819a889864f582604b2ea45227631ea9b489796d5a867cad984b12116fb"}], "txid": "5a76bae623b433ed8e1c21d911ed2a6e72bf5a88b124efd81433bafe2c69d44b", "blocktime": 1537872018, "version": 2, "confirmations": 11489, "time": 1537872018, "locktime": 542929, "vsize": 258, "size": 420}