{"hash": "5a78ceaf3334ddbe3b1b539e639ed7a8d659b05099ef9591fb3200fbb9bee832", "blockhash": "0000000000000000001e0dab787dd257d1dbfcb92a98c2207d5e1078be1f4165", "vout": [{"scriptPubKey": {"reqSigs": 1, "hex": "76a914ff911b587c7ade9d52ea72570f452ed7504f786688ac", "addresses": ["1QJK97gqTcknVPGPZ4YvWW7NfurcMeF5Zb"], "asm": "OP_DUP OP_HASH160 ff911b587c7ade9d52ea72570f452ed7504f7866 OP_EQUALVERIFY OP_CHECKSIG", "type": "pubkeyhash"}, "value": 0.00030361, "n": 0}, {"scriptPubKey": {"reqSigs": 1, "hex": "76a914bbd16184ffc72d7dc15df8a8717374c55b1ba4e888ac", "addresses": ["1J86Bv4CArVHsvqpBwCAMLEBcpuN5UGues"], "asm": "OP_DUP OP_HASH160 bbd16184ffc72d7dc15df8a8717374c55b1ba4e8 OP_EQUALVERIFY OP_CHECKSIG", "type": "pubkeyhash"}, "value": 0.00780998, "n": 1}], "hex": "0100000001e13d2e471f7af07a95195df185926e64168e7b7c10d8930cf67b9e772010fee5010000006b483045022100bc6401e1c4e5722e2d4defac102bceda005ae51d93187e986c6d37d4605302f702203ae9b1846763262c8d9ffb66317ab13fba8e7736e75160afc81bcaeb6078dd86012103747f4018bb46cd9456a153ffd917490be7fdab2d368a3169a78634e24ba19028ffffffff0299760000000000001976a914ff911b587c7ade9d52ea72570f452ed7504f786688acc6ea0b00000000001976a914bbd16184ffc72d7dc15df8a8717374c55b1ba4e888ac00000000", "vin": [{"sequence": 4294967295, "scriptSig": {"hex": "483045022100bc6401e1c4e5722e2d4defac102bceda005ae51d93187e986c6d37d4605302f702203ae9b1846763262c8d9ffb66317ab13fba8e7736e75160afc81bcaeb6078dd86012103747f4018bb46cd9456a153ffd917490be7fdab2d368a3169a78634e24ba19028", "asm": "3045022100bc6401e1c4e5722e2d4defac102bceda005ae51d93187e986c6d37d4605302f702203ae9b1846763262c8d9ffb66317ab13fba8e7736e75160afc81bcaeb6078dd86[ALL] 03747f4018bb46cd9456a153ffd917490be7fdab2d368a3169a78634e24ba19028"}, "vout": 1, "txid": "e5fe1020779e7bf60c93d8107c7b8e16646e9285f15d19957af07a1f472e3de1"}], "txid": "5a78ceaf3334ddbe3b1b539e639ed7a8d659b05099ef9591fb3200fbb9bee832", "blocktime": 1537872475, "version": 1, "confirmations": 11487, "time": 1537872475, "locktime": 0, "vsize": 226, "size": 226}