{"hash": "b616ee2851eb08945875c187d597296bbc3108e1f0f7424ee5d6afaa665721af", "blockhash": "00000000000000000018f53835495a110e01622372bf6ae95dc86f2b0ab887b0", "vout": [{"scriptPubKey": {"reqSigs": 1, "hex": "a914c9b9f5cadf50dd5c8076e1010ecc73c61734f2a287", "addresses": ["3L5eWqYboDbMbVg9gN8s9pyhkaAb1E4frb"], "asm": "OP_HASH160 c9b9f5cadf50dd5c8076e1010ecc73c61734f2a2 OP_EQUAL", "type": "scripthash"}, "value": 0.01004724, "n": 0}, {"scriptPubKey": {"reqSigs": 1, "hex": "76a914fcf9fcf215d93ba64c6407658dbf31f19066e6b988ac", "addresses": ["1Q4ckpNiw6gikRWnpXR97J3xfYB5XSkwtG"], "asm": "OP_DUP OP_HASH160 fcf9fcf215d93ba64c6407658dbf31f19066e6b9 OP_EQUALVERIFY OP_CHECKSIG", "type": "pubkeyhash"}, "value": 0.0023186, "n": 1}], "hex": "020000000001025fac39f75d58594b9ffc98c2eb4d88dbeec4f507f192d646f80df4b53e62cb9d0700000017160014870de9e43382dc704a2515acdaa8402f9133f036feffffffd7e1cf345d2fce4e880095872593f4eb7bd04bcab422680d0f1ac497e91344e500000000171600144a5343ea61e7a78e40a7b610e80316db830ad35ffeffffff02b4540f000000000017a914c9b9f5cadf50dd5c8076e1010ecc73c61734f2a287b4890300000000001976a914fcf9fcf215d93ba64c6407658dbf31f19066e6b988ac02483045022100f93b6d29a49bcb13b27ac88d9118dc40ce5e67e521f587ea34ffda62250f796602200446bcf4eae190b7d4639189a3f0f881055beebc871c9a04d611196a741a33ad012102904c9dbeed0a53149e0c7fce80502f696f53e0d3d2c1462e2f2dd0fa5e89d0f5024730440220343739d8a820be8328f48bacfdce66f61e44e5aad48b2b30c8ee61473ab2ed95022023404b13e5e5a1cbbf55ee8d7f6e664d033bd9392b0360590307695cc9283d5b012102685406f53f3a79cd2d908c415d617dfefd226f825376f9068ae4bb3b78e4ea890e490800", "vin": [{"txinwitness": ["3045022100f93b6d29a49bcb13b27ac88d9118dc40ce5e67e521f587ea34ffda62250f796602200446bcf4eae190b7d4639189a3f0f881055beebc871c9a04d611196a741a33ad01", "02904c9dbeed0a53149e0c7fce80502f696f53e0d3d2c1462e2f2dd0fa5e89d0f5"], "sequence": 4294967294, "scriptSig": {"hex": "160014870de9e43382dc704a2515acdaa8402f9133f036", "asm": "0014870de9e43382dc704a2515acdaa8402f9133f036"}, "vout": 7, "txid": "9dcb623eb5f40df846d692f107f5c4eedb884debc298fc9f4b59585df739ac5f"}, {"txinwitness": ["30440220343739d8a820be8328f48bacfdce66f61e44e5aad48b2b30c8ee61473ab2ed95022023404b13e5e5a1cbbf55ee8d7f6e664d033bd9392b0360590307695cc9283d5b01", "02685406f53f3a79cd2d908c415d617dfefd226f825376f9068ae4bb3b78e4ea89"], "sequence": 4294967294, "scriptSig": {"hex": "1600144a5343ea61e7a78e40a7b610e80316db830ad35f", "asm": "00144a5343ea61e7a78e40a7b610e80316db830ad35f"}, "vout": 0, "txid": "e54413e997c41a0f0d6822b4ca4bd07bebf49325879500884ece2f5d34cfe1d7"}], "txid": "5a7d8b3bae34c8ef844f4a9589ad801d83039a2de8fde51f8897f75f53cf9814", "blocktime": 1537870928, "version": 2, "confirmations": 11514, "time": 1537870928, "locktime": 542990, "vsize": 259, "size": 421}