{"hash": "a22566780fc288ca1b698bc492842d044f58be9a300b8a192db648a14a0baad5", "blockhash": "0000000000000000000e13cef7c366c0283d82e591d1acd082e914b08063cdf1", "vout": [{"scriptPubKey": {"reqSigs": 1, "hex": "a914960917fe0a8c6325a8102aa70a37696b78e7463087", "addresses": ["3FNLBAJ5mSYJ2N5ZMATeUzcYSRgySrob9T"], "asm": "OP_HASH160 960917fe0a8c6325a8102aa70a37696b78e74630 OP_EQUAL", "type": "scripthash"}, "value": 0.00857844, "n": 0}, {"scriptPubKey": {"reqSigs": 1, "hex": "a914042bf2ed72f0c4c7fc81cc024431a0d237d695b287", "addresses": ["3255GwHBMVbsKnHYq8UGuWuWYbFdNczo9D"], "asm": "OP_HASH160 042bf2ed72f0c4c7fc81cc024431a0d237d695b2 OP_EQUAL", "type": "scripthash"}, "value": 0.01277575, "n": 1}], "hex": "0200000000010146f4a9f5b314dc7dd402d57b69c35e511f91727ab2e3bd538d018a15ad18037b010000001716001491c8defc96fe8a05a428a8bcb038a5c1c44639a8ffffffff02f4160d000000000017a914960917fe0a8c6325a8102aa70a37696b78e7463087877e13000000000017a914042bf2ed72f0c4c7fc81cc024431a0d237d695b28702473044022029b6eb6c80354e05f72030abbbf21d777887ac34a49163d6a784a786ea862fb1022036a68e9fcc60bb03f7459b02b752674ea60673f6449d805c97fd7d49dc9e90550121039084712bdd42d547e843cec81044608a275d7c9cbfc6f17740c3f5de1f646a0b00000000", "vin": [{"txinwitness": ["3044022029b6eb6c80354e05f72030abbbf21d777887ac34a49163d6a784a786ea862fb1022036a68e9fcc60bb03f7459b02b752674ea60673f6449d805c97fd7d49dc9e905501", "039084712bdd42d547e843cec81044608a275d7c9cbfc6f17740c3f5de1f646a0b"], "sequence": 4294967295, "scriptSig": {"hex": "16001491c8defc96fe8a05a428a8bcb038a5c1c44639a8", "asm": "001491c8defc96fe8a05a428a8bcb038a5c1c44639a8"}, "vout": 1, "txid": "7b0318ad158a018d53bde3b27a72911f515ec3697bd502d47ddc14b3f5a9f446"}], "txid": "5a7ea5d6f52a82325b9eef862df768ffe5cb3c4ed58f5a928949d8c60283bd41", "blocktime": 1537871767, "version": 2, "confirmations": 11491, "time": 1537871767, "locktime": 0, "vsize": 166, "size": 247}