{"hash": "5a85b4caf4f180d8c68d972be9d873ac8c8dddbdb9cb0c989ccebe6a0c4068d9", "blockhash": "0000000000000000001e0dab787dd257d1dbfcb92a98c2207d5e1078be1f4165", "vout": [{"scriptPubKey": {"type": "nulldata", "hex": "6a146f6d6e69000000000000001f000000174876e800", "asm": "OP_RETURN 6f6d6e69000000000000001f000000174876e800"}, "value": 0.0, "n": 0}, {"scriptPubKey": {"reqSigs": 1, "hex": "76a914a25dec4d0011064ef106a983c39c7a540699f22088ac", "addresses": ["1FoWyxwPXuj4C6abqwhjDWdz6D4PZgYRjA"], "asm": "OP_DUP OP_HASH160 a25dec4d0011064ef106a983c39c7a540699f220 OP_EQUALVERIFY OP_CHECKSIG", "type": "pubkeyhash"}, "value": 0.01995204, "n": 1}, {"scriptPubKey": {"reqSigs": 1, "hex": "76a91455305d43476ef601a59a1512835c62f6c260c4d688ac", "addresses": ["18mSNiZfbAQ8WzmnAZuCEQyseYFQsRSsGJ"], "asm": "OP_DUP OP_HASH160 55305d43476ef601a59a1512835c62f6c260c4d6 OP_EQUALVERIFY OP_CHECKSIG", "type": "pubkeyhash"}, "value": 5.46e-06, "n": 2}], "hex": "0100000001a44813c76173a4fe9689194c29809e35be05f1741d9b5e1e9e8bd44070ac1fea760000006a47304402204f64c8ded271266472cd46d42e36edf37cca2c48a3bb6c375e5566d77c7d78320220656ee7db3e11f0e5ca332e39482148c221b2b2512ca9e032b8e32a58cfb89d1f012103da5bac7b36d5aa38f531c6b9601e21bb598a4b6716ebed38b009a55dabde9440feffffff030000000000000000166a146f6d6e69000000000000001f000000174876e800c4711e00000000001976a914a25dec4d0011064ef106a983c39c7a540699f22088ac22020000000000001976a91455305d43476ef601a59a1512835c62f6c260c4d688ac12490800", "vin": [{"sequence": 4294967294, "scriptSig": {"hex": "47304402204f64c8ded271266472cd46d42e36edf37cca2c48a3bb6c375e5566d77c7d78320220656ee7db3e11f0e5ca332e39482148c221b2b2512ca9e032b8e32a58cfb89d1f012103da5bac7b36d5aa38f531c6b9601e21bb598a4b6716ebed38b009a55dabde9440", "asm": "304402204f64c8ded271266472cd46d42e36edf37cca2c48a3bb6c375e5566d77c7d78320220656ee7db3e11f0e5ca332e39482148c221b2b2512ca9e032b8e32a58cfb89d1f[ALL] 03da5bac7b36d5aa38f531c6b9601e21bb598a4b6716ebed38b009a55dabde9440"}, "vout": 118, "txid": "ea1fac7040d48b9e1e5e9b1d74f105be359e80294c198996fea47361c71348a4"}], "txid": "5a85b4caf4f180d8c68d972be9d873ac8c8dddbdb9cb0c989ccebe6a0c4068d9", "blocktime": 1537872475, "version": 1, "confirmations": 11486, "time": 1537872475, "locktime": 542994, "vsize": 256, "size": 256}