{"hash": "5a8c023178584d818578fd3f9b8b8e0a2d1593ebe799f83776815312c1c85e60", "blockhash": "0000000000000000000e13cef7c366c0283d82e591d1acd082e914b08063cdf1", "vout": [{"scriptPubKey": {"reqSigs": 1, "hex": "a914d0be0f6edc4cf550b8c346ca0b68bc08b0e89ac987", "addresses": ["3LikA4hdEYtxkR2GRQHkzPEsMMbu7UsZcA"], "asm": "OP_HASH160 d0be0f6edc4cf550b8c346ca0b68bc08b0e89ac9 OP_EQUAL", "type": "scripthash"}, "value": 0.08439097, "n": 0}, {"scriptPubKey": {"reqSigs": 1, "hex": "76a914d8f195e5a822530f70dd4e11ff61ff66f6a0381788ac", "addresses": ["1Ln6N6NgVsnm4ZDevKy7tRDfTte5fyHZPv"], "asm": "OP_DUP OP_HASH160 d8f195e5a822530f70dd4e11ff61ff66f6a03817 OP_EQUALVERIFY OP_CHECKSIG", "type": "pubkeyhash"}, "value": 0.00580509, "n": 1}], "hex": "010000000197de4e6215cbae1659dcdfbcf52bee7befcb365b12cefdffe45e85fc700bf305010000006b483045022100c4c7f22c584734fc2d168e6781cbbc859d26999a3b400ee7bcdabfacc86fff4c022010cd2b7c5e51f5a49fe65889fe83dd99526ed72f7df526193d9e06c13118e43b01210338ae0ba164ebfea676bce989a54d32bd17a5addc61d0ce09d829e654c8edda8fffffffff0239c580000000000017a914d0be0f6edc4cf550b8c346ca0b68bc08b0e89ac9879ddb0800000000001976a914d8f195e5a822530f70dd4e11ff61ff66f6a0381788ac00000000", "vin": [{"sequence": 4294967295, "scriptSig": {"hex": "483045022100c4c7f22c584734fc2d168e6781cbbc859d26999a3b400ee7bcdabfacc86fff4c022010cd2b7c5e51f5a49fe65889fe83dd99526ed72f7df526193d9e06c13118e43b01210338ae0ba164ebfea676bce989a54d32bd17a5addc61d0ce09d829e654c8edda8f", "asm": "3045022100c4c7f22c584734fc2d168e6781cbbc859d26999a3b400ee7bcdabfacc86fff4c022010cd2b7c5e51f5a49fe65889fe83dd99526ed72f7df526193d9e06c13118e43b[ALL] 0338ae0ba164ebfea676bce989a54d32bd17a5addc61d0ce09d829e654c8edda8f"}, "vout": 1, "txid": "05f30b70fc855ee4fffdce125b36cbef7bee2bf5bcdfdc5916aecb15624ede97"}], "txid": "5a8c023178584d818578fd3f9b8b8e0a2d1593ebe799f83776815312c1c85e60", "blocktime": 1537871767, "version": 1, "confirmations": 11491, "time": 1537871767, "locktime": 0, "vsize": 224, "size": 224}