{"hash": "5a927d82a8e886a12b7912ebfec33357e2795a67a56ec20f732b0c9a02a8000a", "blockhash": "00000000000000000004ffacab907a6b429b9a5745fa0b75af4234bf69dd7176", "vout": [{"scriptPubKey": {"reqSigs": 1, "hex": "76a914560c1a1639546a48b9f426410fe17ab2e2e5a37288ac", "addresses": ["18qycMS5HM5qGdwgoS6m2goUDAczemCjxQ"], "asm": "OP_DUP OP_HASH160 560c1a1639546a48b9f426410fe17ab2e2e5a372 OP_EQUALVERIFY OP_CHECKSIG", "type": "pubkeyhash"}, "value": 0.01562468, "n": 0}, {"scriptPubKey": {"reqSigs": 1, "hex": "76a914ed7425acf313c462389ff83d75442dc63dfe5de988ac", "addresses": ["1NeYHWcuzQ22kmaDNPVje1KjNwuwDLKrEA"], "asm": "OP_DUP OP_HASH160 ed7425acf313c462389ff83d75442dc63dfe5de9 OP_EQUALVERIFY OP_CHECKSIG", "type": "pubkeyhash"}, "value": 0.10565256, "n": 1}], "hex": "01000000010e5608be9f4a4081e37ac9a5e88c2351b9e7cf3f595c40ea00b4f6fcd890f4a8010000006a47304402206ec3a314ad430332306873540eebb3c9246903bbea8a0a8bb73ffe2ad8852830022079fe3e2ced5db76a8cbd2c898a21b068bd14698436e27ce7d17d74c113678e6f0121038027e47411f0d2e7b913467f54dd5381b433dd7bc5a3b104108fd056f3a39ebfffffffff0264d71700000000001976a914560c1a1639546a48b9f426410fe17ab2e2e5a37288ac8836a100000000001976a914ed7425acf313c462389ff83d75442dc63dfe5de988ac00000000", "vin": [{"sequence": 4294967295, "scriptSig": {"hex": "47304402206ec3a314ad430332306873540eebb3c9246903bbea8a0a8bb73ffe2ad8852830022079fe3e2ced5db76a8cbd2c898a21b068bd14698436e27ce7d17d74c113678e6f0121038027e47411f0d2e7b913467f54dd5381b433dd7bc5a3b104108fd056f3a39ebf", "asm": "304402206ec3a314ad430332306873540eebb3c9246903bbea8a0a8bb73ffe2ad8852830022079fe3e2ced5db76a8cbd2c898a21b068bd14698436e27ce7d17d74c113678e6f[ALL] 038027e47411f0d2e7b913467f54dd5381b433dd7bc5a3b104108fd056f3a39ebf"}, "vout": 1, "txid": "a8f490d8fcf6b400ea405c593fcfe7b951238ce8a5c97ae381404a9fbe08560e"}], "txid": "5a927d82a8e886a12b7912ebfec33357e2795a67a56ec20f732b0c9a02a8000a", "blocktime": 1537875543, "version": 1, "confirmations": 11464, "time": 1537875543, "locktime": 0, "vsize": 225, "size": 225}