{"hash": "5a9549d2e89db8ee7748a881006ff914e023da4b967aff265330061a5e3871ef", "blockhash": "00000000000000000024a2167bbff67b0be802c0b01cdd79e6331c2be6459f87", "vout": [{"scriptPubKey": {"reqSigs": 1, "hex": "76a9144498d66352481f5447945f62c5e7dcc91e546e7e88ac", "addresses": ["17Fi3Nrof1qDFvEHUHj8seGLAkaRAfUu7K"], "asm": "OP_DUP OP_HASH160 4498d66352481f5447945f62c5e7dcc91e546e7e OP_EQUALVERIFY OP_CHECKSIG", "type": "pubkeyhash"}, "value": 0.03179714, "n": 0}, {"scriptPubKey": {"reqSigs": 1, "hex": "76a914740a99daa2236775873f0b4307fa50a8b401cbc788ac", "addresses": ["1Baa5pgqtLZ5xL2Rbqh7TAxvswYNzJQcwE"], "asm": "OP_DUP OP_HASH160 740a99daa2236775873f0b4307fa50a8b401cbc7 OP_EQUALVERIFY OP_CHECKSIG", "type": "pubkeyhash"}, "value": 0.01003747, "n": 1}], "hex": "0200000003d8ee8261420937a7d37274d2a30daac8226c849070d351458091a803118f1a36000000006b483045022100a9646a3ddbaad22ff3f669b0b6f92e92b70961429e472e5c1dd457cdd52dbf6802207a4ba02449428b560700872b117428ed2106d319a95adfec995647306ffeeda40121037341ac1c17dc87bd766258177a596662b4da7e22dda3bddaab89e7e697c72c53feffffff38d66fa790d7c20046dd9dcf475960aaeb1c698184fcec4155cab6a6fb6e5262010000006b4830450221009e326bd82ee020ad9914322c7e05e9aa21748932c63f5bed80dfa5d98b8e30b002207b88191ccad31488a50767969a894b7aa2913365a4a88ccf584c1389e0afb44c0121022c842f613eb56ad6558eb3ba6396b6e2dc820a7784c3e8fc1a96b8c166ffce8bfeffffff63d7bcfb90d58806a96e1d8473e26f498677f0abd93a2466e769c2bf2b80fb63010000006a4730440220073d2326b2dfdc2fb0da0b057b290cdcaf487c12c3c415bb271a37cea9bc7c0502204959e5883db9ba705df876c91bc1e01ddb8494e907031863912a9a36b97c78180121037341ac1c17dc87bd766258177a596662b4da7e22dda3bddaab89e7e697c72c53feffffff02c2843000000000001976a9144498d66352481f5447945f62c5e7dcc91e546e7e88ace3500f00000000001976a914740a99daa2236775873f0b4307fa50a8b401cbc788ac0d490800", "vin": [{"sequence": 4294967294, "scriptSig": {"hex": "483045022100a9646a3ddbaad22ff3f669b0b6f92e92b70961429e472e5c1dd457cdd52dbf6802207a4ba02449428b560700872b117428ed2106d319a95adfec995647306ffeeda40121037341ac1c17dc87bd766258177a596662b4da7e22dda3bddaab89e7e697c72c53", "asm": "3045022100a9646a3ddbaad22ff3f669b0b6f92e92b70961429e472e5c1dd457cdd52dbf6802207a4ba02449428b560700872b117428ed2106d319a95adfec995647306ffeeda4[ALL] 037341ac1c17dc87bd766258177a596662b4da7e22dda3bddaab89e7e697c72c53"}, "vout": 0, "txid": "361a8f1103a891804551d37090846c22c8aa0da3d27472d3a73709426182eed8"}, {"sequence": 4294967294, "scriptSig": {"hex": "4830450221009e326bd82ee020ad9914322c7e05e9aa21748932c63f5bed80dfa5d98b8e30b002207b88191ccad31488a50767969a894b7aa2913365a4a88ccf584c1389e0afb44c0121022c842f613eb56ad6558eb3ba6396b6e2dc820a7784c3e8fc1a96b8c166ffce8b", "asm": "30450221009e326bd82ee020ad9914322c7e05e9aa21748932c63f5bed80dfa5d98b8e30b002207b88191ccad31488a50767969a894b7aa2913365a4a88ccf584c1389e0afb44c[ALL] 022c842f613eb56ad6558eb3ba6396b6e2dc820a7784c3e8fc1a96b8c166ffce8b"}, "vout": 1, "txid": "62526efba6b6ca5541ecfc8481691cebaa605947cf9ddd4600c2d790a76fd638"}, {"sequence": 4294967294, "scriptSig": {"hex": "4730440220073d2326b2dfdc2fb0da0b057b290cdcaf487c12c3c415bb271a37cea9bc7c0502204959e5883db9ba705df876c91bc1e01ddb8494e907031863912a9a36b97c78180121037341ac1c17dc87bd766258177a596662b4da7e22dda3bddaab89e7e697c72c53", "asm": "30440220073d2326b2dfdc2fb0da0b057b290cdcaf487c12c3c415bb271a37cea9bc7c0502204959e5883db9ba705df876c91bc1e01ddb8494e907031863912a9a36b97c7818[ALL] 037341ac1c17dc87bd766258177a596662b4da7e22dda3bddaab89e7e697c72c53"}, "vout": 1, "txid": "63fb802bbfc269e766243ad9abf07786496fe273841d6ea90688d590fbbcd763"}], "txid": "5a9549d2e89db8ee7748a881006ff914e023da4b967aff265330061a5e3871ef", "blocktime": 1537870564, "version": 2, "confirmations": 11515, "time": 1537870564, "locktime": 542989, "vsize": 521, "size": 521}