{"hash": "5a96a9b04b0b02f2c9ce619fa5117a2f842c75347a7e1c4f1c438ac7a5e5a026", "blockhash": "0000000000000000001f0ddff1eddb255c1121bcd4da4f1bc9a0da00cae72433", "vout": [{"scriptPubKey": {"reqSigs": 1, "hex": "a91468587ac610c9350c6a6a387a7a8119bf492fddda87", "addresses": ["3BCkCAS4yu7kWvYWQQogg7YvE3vscDZmNs"], "asm": "OP_HASH160 68587ac610c9350c6a6a387a7a8119bf492fddda OP_EQUAL", "type": "scripthash"}, "value": 0.0029546, "n": 0}, {"scriptPubKey": {"reqSigs": 1, "hex": "76a91497fbb5bb8e2047c842368f933bf54de28641269c88ac", "addresses": ["1Erca5Rv2rj6ACtL4zqCrMDpGY6eSh4cR4"], "asm": "OP_DUP OP_HASH160 97fbb5bb8e2047c842368f933bf54de28641269c OP_EQUALVERIFY OP_CHECKSIG", "type": "pubkeyhash"}, "value": 0.09356067, "n": 1}], "hex": "01000000019a37f51b328af0b02767b5bfc29b0ae33fe1c862507586a4d1c3700436b7dc49010000006a47304402205b3b6b601b97add292373a62b02c61d34ac4e911741af8fbb2ae5af7be355d3802202e1fa24ca577dafc4c67e7c9c2070d6acf1be1a52b90b472cc52a076b934c641012102ae3acd454b97a6aa4a57b8dd10d2f7f625cf911d82fab67155103783a6a32d72ffffffff02248204000000000017a91468587ac610c9350c6a6a387a7a8119bf492fddda8723c38e00000000001976a91497fbb5bb8e2047c842368f933bf54de28641269c88ac00000000", "vin": [{"sequence": 4294967295, "scriptSig": {"hex": "47304402205b3b6b601b97add292373a62b02c61d34ac4e911741af8fbb2ae5af7be355d3802202e1fa24ca577dafc4c67e7c9c2070d6acf1be1a52b90b472cc52a076b934c641012102ae3acd454b97a6aa4a57b8dd10d2f7f625cf911d82fab67155103783a6a32d72", "asm": "304402205b3b6b601b97add292373a62b02c61d34ac4e911741af8fbb2ae5af7be355d3802202e1fa24ca577dafc4c67e7c9c2070d6acf1be1a52b90b472cc52a076b934c641[ALL] 02ae3acd454b97a6aa4a57b8dd10d2f7f625cf911d82fab67155103783a6a32d72"}, "vout": 1, "txid": "49dcb7360470c3d1a486755062c8e13fe30a9bc2bfb56727b0f08a321bf5379a"}], "txid": "5a96a9b04b0b02f2c9ce619fa5117a2f842c75347a7e1c4f1c438ac7a5e5a026", "blocktime": 1537872018, "version": 1, "confirmations": 11489, "time": 1537872018, "locktime": 0, "vsize": 223, "size": 223}