{"hash": "226759f5ea15fe3f58233542bc0a9db75c0573a6b18f86c8a6b66251203b7f94", "blockhash": "000000000000000000022b45ed06c6f4ccd3cf7fb5ba4856ebd2e58215665228", "vout": [{"scriptPubKey": {"reqSigs": 1, "hex": "76a914a0b6f8dd7cafb17b603aa10d17f98b724e02d1df88ac", "addresses": ["1FenJpXA7qP2ZeHfVSAQeUsBcqFziz45iP"], "asm": "OP_DUP OP_HASH160 a0b6f8dd7cafb17b603aa10d17f98b724e02d1df OP_EQUALVERIFY OP_CHECKSIG", "type": "pubkeyhash"}, "value": 0.04963, "n": 0}, {"scriptPubKey": {"reqSigs": 1, "hex": "a914627aa52932456d89054bd84f86246af3b71b93a887", "addresses": ["3Afj4stdiLG9EktGrMbm252ySonnhYaz8v"], "asm": "OP_HASH160 627aa52932456d89054bd84f86246af3b71b93a8 OP_EQUAL", "type": "scripthash"}, "value": 0.88499317, "n": 1}], "hex": "010000000001014f846ef3d67890c8bb4700b2f75e7a60a3dbc9e5ff9a49e42fcd574166cdced701000000232200205fdd641234b13964b223bd85ad2a4a667ca2099df3d42a1d3b45706a8d81abf0ffffffff02b8ba4b00000000001976a914a0b6f8dd7cafb17b603aa10d17f98b724e02d1df88ac756446050000000017a914627aa52932456d89054bd84f86246af3b71b93a8870400483045022100d0dc02935a71b4e0a12dfd8ba8952665f884e67cdd41dbbd0eb0f4b3620a40bc022039fdb248739109af02bdd2ad2904f97e15002a89da75b678a35483bfc9f986750147304402205e9cfe25b112007c01446e7707aa151f80aebdd1721f9ffc167a29f728f8990a0220327ed00b085585b62bfc68eea1c9256462a7edbb59dcd73556ec73a302e658130147522103dcde3832fa56def7b4e783faad1b8af85c3cdd74a5ff4f3c7c216b1075c18da12103c70ae8ded79be1afda73b9ce5ea14a3878908ee160d66a9a717e792bb6db276952ae00000000", "vin": [{"txinwitness": ["", "3045022100d0dc02935a71b4e0a12dfd8ba8952665f884e67cdd41dbbd0eb0f4b3620a40bc022039fdb248739109af02bdd2ad2904f97e15002a89da75b678a35483bfc9f9867501", "304402205e9cfe25b112007c01446e7707aa151f80aebdd1721f9ffc167a29f728f8990a0220327ed00b085585b62bfc68eea1c9256462a7edbb59dcd73556ec73a302e6581301", "522103dcde3832fa56def7b4e783faad1b8af85c3cdd74a5ff4f3c7c216b1075c18da12103c70ae8ded79be1afda73b9ce5ea14a3878908ee160d66a9a717e792bb6db276952ae"], "sequence": 4294967295, "scriptSig": {"hex": "2200205fdd641234b13964b223bd85ad2a4a667ca2099df3d42a1d3b45706a8d81abf0", "asm": "00205fdd641234b13964b223bd85ad2a4a667ca2099df3d42a1d3b45706a8d81abf0"}, "vout": 1, "txid": "d7cecd664157cd2fe4499affe5c9dba3607a5ef7b20047bbc89078d6f36e844f"}], "txid": "5a98c35f1140e34956e2ced546df68ac6bb43e9b6c473662a2cabda52969ecf0", "blocktime": 1537869901, "version": 1, "confirmations": 11523, "time": 1537869901, "locktime": 0, "vsize": 208, "size": 373}