{"hash": "5a9a03fbcc607cb326f685c53186b30bcb86d970d3cf084db37acd7a3647b848", "blockhash": "0000000000000000000e13cef7c366c0283d82e591d1acd082e914b08063cdf1", "vout": [{"scriptPubKey": {"reqSigs": 1, "hex": "76a914a51bfc2865427a91a8cd0cfee6bd558f7927af8c88ac", "addresses": ["1G4225qFapDKQk6CbAtkq3HxV6tJrWTSWn"], "asm": "OP_DUP OP_HASH160 a51bfc2865427a91a8cd0cfee6bd558f7927af8c OP_EQUALVERIFY OP_CHECKSIG", "type": "pubkeyhash"}, "value": 0.00035221, "n": 0}, {"scriptPubKey": {"reqSigs": 1, "hex": "a9147b003b90563bfa6c85b1bfb8b8530ae8b37ac42887", "addresses": ["3CuPKJer8RcvgoRCHpLEDciYgdcgNSKnUL"], "asm": "OP_HASH160 7b003b90563bfa6c85b1bfb8b8530ae8b37ac428 OP_EQUAL", "type": "scripthash"}, "value": 0.00390708, "n": 1}], "hex": "0100000001dcc9bff8edc6dd6692ace0a9d62c56948db1562b00ce73e33f76d69a81faa048010000006a473044022070d3b8a012ce6e109120f72e0dcc9f8ee0adbef5693ee6c787b2b10e92efe06002207ffbcbe095b64bf2bcd4f1de979f7d7f62fc07eedaf52b0925e29a659498995a0121028b38cc30c9b299fd6dd6dc90dc554a160a5d137da8d33865534302347f857372ffffffff0295890000000000001976a914a51bfc2865427a91a8cd0cfee6bd558f7927af8c88ac34f605000000000017a9147b003b90563bfa6c85b1bfb8b8530ae8b37ac4288700000000", "vin": [{"sequence": 4294967295, "scriptSig": {"hex": "473044022070d3b8a012ce6e109120f72e0dcc9f8ee0adbef5693ee6c787b2b10e92efe06002207ffbcbe095b64bf2bcd4f1de979f7d7f62fc07eedaf52b0925e29a659498995a0121028b38cc30c9b299fd6dd6dc90dc554a160a5d137da8d33865534302347f857372", "asm": "3044022070d3b8a012ce6e109120f72e0dcc9f8ee0adbef5693ee6c787b2b10e92efe06002207ffbcbe095b64bf2bcd4f1de979f7d7f62fc07eedaf52b0925e29a659498995a[ALL] 028b38cc30c9b299fd6dd6dc90dc554a160a5d137da8d33865534302347f857372"}, "vout": 1, "txid": "48a0fa819ad6763fe373ce002b56b18d94562cd6a9e0ac9266ddc6edf8bfc9dc"}], "txid": "5a9a03fbcc607cb326f685c53186b30bcb86d970d3cf084db37acd7a3647b848", "blocktime": 1537871767, "version": 1, "confirmations": 11495, "time": 1537871767, "locktime": 0, "vsize": 223, "size": 223}