{"hash": "5a9a30732238432f12bf530ce81738923e547f285bd59962cec2241c7cdd5c26", "blockhash": "0000000000000000000e13cef7c366c0283d82e591d1acd082e914b08063cdf1", "vout": [{"scriptPubKey": {"reqSigs": 1, "hex": "a91439be6106c1e84e418b08f5cb294b1f43e6399c0a87", "addresses": ["36xLWF5aSAK5dqZDFyggL4DEVYkDcJion2"], "asm": "OP_HASH160 39be6106c1e84e418b08f5cb294b1f43e6399c0a OP_EQUAL", "type": "scripthash"}, "value": 0.00700304, "n": 0}, {"scriptPubKey": {"reqSigs": 1, "hex": "76a9145497254c509af4be7eed6b7b09fd08e56eb533d388ac", "addresses": ["18iGpuFJRaFp6F917kHUsaH7KhMx1PThpX"], "asm": "OP_DUP OP_HASH160 5497254c509af4be7eed6b7b09fd08e56eb533d3 OP_EQUALVERIFY OP_CHECKSIG", "type": "pubkeyhash"}, "value": 0.00742827, "n": 1}, {"scriptPubKey": {"reqSigs": 1, "hex": "76a914488fb8c94650f5586602f6f792af8920ef333e2188ac", "addresses": ["17cfpnBXymfGWYqF9fBMPfUFtiuKFFEyJa"], "asm": "OP_DUP OP_HASH160 488fb8c94650f5586602f6f792af8920ef333e21 OP_EQUALVERIFY OP_CHECKSIG", "type": "pubkeyhash"}, "value": 0.00707779, "n": 2}, {"scriptPubKey": {"reqSigs": 1, "hex": "76a91439e95619beafdd783a251ef72d221c877219ae1488ac", "addresses": ["16HD3Rkio9UA8KoS6sgVwFWTZqEEYNAbdv"], "asm": "OP_DUP OP_HASH160 39e95619beafdd783a251ef72d221c877219ae14 OP_EQUALVERIFY OP_CHECKSIG", "type": "pubkeyhash"}, "value": 0.00676097, "n": 3}, {"scriptPubKey": {"reqSigs": 1, "hex": "a91476717227cb396a64fb0c88b91148c38f1069f5d787", "addresses": ["3CVHZYJGLeGJLWw3WdyPfAs5XATaveyMen"], "asm": "OP_HASH160 76717227cb396a64fb0c88b91148c38f1069f5d7 OP_EQUAL", "type": "scripthash"}, "value": 0.00685977, "n": 4}, {"scriptPubKey": {"reqSigs": 1, "hex": "a9146110d4b09e8d8eb17930c184e7ea8d3f8fc5ff6b87", "addresses": ["3AYFdaRtGq8EJenRY4oPyWSEgXyLGwSmgb"], "asm": "OP_HASH160 6110d4b09e8d8eb17930c184e7ea8d3f8fc5ff6b OP_EQUAL", "type": "scripthash"}, "value": 0.00723258, "n": 5}, {"scriptPubKey": {"reqSigs": 1, "hex": "76a914a71ddd626f6324a700f6b8f24677fd4cc2afb58488ac", "addresses": ["1GEdd5UhJf4oJzg4M3aan8WEuN78sPg9JN"], "asm": "OP_DUP OP_HASH160 a71ddd626f6324a700f6b8f24677fd4cc2afb584 OP_EQUALVERIFY OP_CHECKSIG", "type": "pubkeyhash"}, "value": 0.00687722, "n": 6}, {"scriptPubKey": {"reqSigs": 1, "hex": "a9146aa2c1fcca7f2a1d413bb1d659cc359eff3fc05f87", "addresses": ["3BQrXV7HCELHHiSTYq2uYitj7cWf5Qabp4"], "asm": "OP_HASH160 6aa2c1fcca7f2a1d413bb1d659cc359eff3fc05f OP_EQUAL", "type": "scripthash"}, "value": 0.00659138, "n": 7}, {"scriptPubKey": {"reqSigs": 1, "hex": "a914cb7250bc77d76bafa507d80dd96d868c72d4ff3687", "addresses": ["3LEk3FrR5izem82yvsWKECS6XLo2RoVTyD"], "asm": "OP_HASH160 cb7250bc77d76bafa507d80dd96d868c72d4ff36 OP_EQUAL", "type": "scripthash"}, "value": 0.00706431, "n": 8}, {"scriptPubKey": {"reqSigs": 1, "hex": "76a91446ace0ee6f8d789b7f6811dbd77c7bb60dec783688ac", "addresses": ["17ShQFJDGGXX9VJBW1kAxBmAcJcgn7VAop"], "asm": "OP_DUP OP_HASH160 46ace0ee6f8d789b7f6811dbd77c7bb60dec7836 OP_EQUALVERIFY OP_CHECKSIG", "type": "pubkeyhash"}, "value": 0.00669491, "n": 9}, {"scriptPubKey": {"reqSigs": 1, "hex": "a914635aee944fc433cb2a1a29140d9bd06b42fcb18487", "addresses": ["3AkMkbckvzSAFYGU2WLamUcQSYvm34fwxL"], "asm": "OP_HASH160 635aee944fc433cb2a1a29140d9bd06b42fcb184 OP_EQUAL", "type": "scripthash"}, "value": 0.00663963, "n": 10}, {"scriptPubKey": {"reqSigs": 1, "hex": "a914c3387d63a84e72b9550b1711a280cfdb4f294fd787", "addresses": ["3KVFMvwuXZz4RDWEgYheAhEDk6JZswH7Sp"], "asm": "OP_HASH160 c3387d63a84e72b9550b1711a280cfdb4f294fd7 OP_EQUAL", "type": "scripthash"}, "value": 0.007303, "n": 11}, {"scriptPubKey": {"reqSigs": 1, "hex": "76a914433c05699d6ecc40b227b5e753642423a5e8f6d888ac", "addresses": ["178WBCJ9KbFisURLnUtqcpSrDb98bEXyWR"], "asm": "OP_DUP OP_HASH160 433c05699d6ecc40b227b5e753642423a5e8f6d8 OP_EQUALVERIFY OP_CHECKSIG", "type": "pubkeyhash"}, "value": 0.00676332, "n": 12}, {"scriptPubKey": {"reqSigs": 1, "hex": "76a914bedaf54cd1e5637c6c789527960c644e7306123688ac", "addresses": ["1JQ9gvy5jiBgQ1JH5vVrtk3syKc1sX7pWf"], "asm": "OP_DUP OP_HASH160 bedaf54cd1e5637c6c789527960c644e73061236 OP_EQUALVERIFY OP_CHECKSIG", "type": "pubkeyhash"}, "value": 0.00711747, "n": 13}, {"scriptPubKey": {"reqSigs": 1, "hex": "a91480cb1a898f82457b919ae5ce223170ba39b1c62e87", "addresses": ["3DS1izFNVHNmtKmNYeHku5SvdRSqpVGVRh"], "asm": "OP_HASH160 80cb1a898f82457b919ae5ce223170ba39b1c62e OP_EQUAL", "type": "scripthash"}, "value": 0.00661059, "n": 14}, {"scriptPubKey": {"reqSigs": 1, "hex": "76a9145c5b156ab2150421a3a8c4950c6e029787b5789088ac", "addresses": ["19RLHFci8NCufimPjYtcWmxCV3ngp6YXse"], "asm": "OP_DUP OP_HASH160 5c5b156ab2150421a3a8c4950c6e029787b57890 OP_EQUALVERIFY OP_CHECKSIG", "type": "pubkeyhash"}, "value": 0.00701721, "n": 15}, {"scriptPubKey": {"reqSigs": 1, "hex": "76a9145f8d24eea8f84ad0807bd1f84d65b5c35bd4746688ac", "addresses": ["19iEH6mbZaaRstMQSf2vREDQwHfhBZggCX"], "asm": "OP_DUP OP_HASH160 5f8d24eea8f84ad0807bd1f84d65b5c35bd47466 OP_EQUALVERIFY OP_CHECKSIG", "type": "pubkeyhash"}, "value": 0.00697331, "n": 16}, {"scriptPubKey": {"reqSigs": 1, "hex": "a914e2bacd86c7aa9b9a2e55a569638165bdf37b8cd987", "addresses": ["3NMrRBkSRx2iCqbU8fkfJ4QSTkWcXu3z21"], "asm": "OP_HASH160 e2bacd86c7aa9b9a2e55a569638165bdf37b8cd9 OP_EQUAL", "type": "scripthash"}, "value": 0.00657062, "n": 17}, {"scriptPubKey": {"reqSigs": 1, "hex": "a914b6269c96a72391d9715fa717b15f3009e3abac4f87", "addresses": ["3JJ9AF3mARXBJWRQQxUwVocqLudSiPsmJV"], "asm": "OP_HASH160 b6269c96a72391d9715fa717b15f3009e3abac4f OP_EQUAL", "type": "scripthash"}, "value": 0.0065784, "n": 18}, {"scriptPubKey": {"reqSigs": 1, "hex": "76a9142af333452853578df95a2739b9cdf38722cc884e88ac", "addresses": ["14v6iug2xGUf1eF3bwuaW3w7cvqsh7CoH4"], "asm": "OP_DUP OP_HASH160 2af333452853578df95a2739b9cdf38722cc884e OP_EQUALVERIFY OP_CHECKSIG", "type": "pubkeyhash"}, "value": 0.00664948, "n": 19}, {"scriptPubKey": {"reqSigs": 1, "hex": "a914f166c88eccc8d0c18e7c9b957e3fc1ffa2a3a53787", "addresses": ["3PhRuHvzP8iov2QsJUNcdtHSJBixF1KnhP"], "asm": "OP_HASH160 f166c88eccc8d0c18e7c9b957e3fc1ffa2a3a537 OP_EQUAL", "type": "scripthash"}, "value": 0.00650015, "n": 20}, {"scriptPubKey": {"reqSigs": 1, "hex": "76a914a72fd0e352365d14ffe8a1f6361403186a7d34d488ac", "addresses": ["1GF18M9juND9g8XQJpmi7foNiVE2j2jxqJ"], "asm": "OP_DUP OP_HASH160 a72fd0e352365d14ffe8a1f6361403186a7d34d4 OP_EQUALVERIFY OP_CHECKSIG", "type": "pubkeyhash"}, "value": 0.0065456, "n": 21}, {"scriptPubKey": {"reqSigs": 1, "hex": "76a914ab046225a63e46b357007ebaf1532eeec8cfa75e88ac", "addresses": ["1GbFoNETQf5pJYgbyAHPkvUpL17TpVCvgN"], "asm": "OP_DUP OP_HASH160 ab046225a63e46b357007ebaf1532eeec8cfa75e OP_EQUALVERIFY OP_CHECKSIG", "type": "pubkeyhash"}, "value": 0.00706492, "n": 22}, {"scriptPubKey": {"reqSigs": 1, "hex": "76a9145c2f0067f9796911efb1457f7929cdc5286032e088ac", "addresses": ["19QRUNoUAtdy1EU4B8yA2sfgy6sLjfwxzq"], "asm": "OP_DUP OP_HASH160 5c2f0067f9796911efb1457f7929cdc5286032e0 OP_EQUALVERIFY OP_CHECKSIG", "type": "pubkeyhash"}, "value": 0.00688521, "n": 23}, {"scriptPubKey": {"reqSigs": 1, "hex": "a91400206af5026726a1357d258113da30c291e2a8e187", "addresses": ["31hgkyLFtKqJnKSDxMZaLdtuKo3J71spPf"], "asm": "OP_HASH160 00206af5026726a1357d258113da30c291e2a8e1 OP_EQUAL", "type": "scripthash"}, "value": 0.00664541, "n": 24}, {"scriptPubKey": {"reqSigs": 1, "hex": "76a914f83819e6ab6d307e8b63f51092f8576ad183cb7e88ac", "addresses": ["1PdTnZ1tUT2v6AmwTU2UsLtjsbkC5RWwv1"], "asm": "OP_DUP OP_HASH160 f83819e6ab6d307e8b63f51092f8576ad183cb7e OP_EQUALVERIFY OP_CHECKSIG", "type": "pubkeyhash"}, "value": 0.00691859, "n": 25}, {"scriptPubKey": {"reqSigs": 1, "hex": "76a914bd2a0ca132e0852d2e871d951ecbf2c781d0db7588ac", "addresses": ["1JFD5tubHiKiT42rTETZS6UCVvEJcdEWbU"], "asm": "OP_DUP OP_HASH160 bd2a0ca132e0852d2e871d951ecbf2c781d0db75 OP_EQUALVERIFY OP_CHECKSIG", "type": "pubkeyhash"}, "value": 0.00661343, "n": 26}, {"scriptPubKey": {"reqSigs": 1, "hex": "76a9148a44b3e5c4be5b391441e7cc88dc6e7d5a0c554988ac", "addresses": ["1Dc6Z2FfB97fntakXF5izfk394ixLmYxdM"], "asm": "OP_DUP OP_HASH160 8a44b3e5c4be5b391441e7cc88dc6e7d5a0c5549 OP_EQUALVERIFY OP_CHECKSIG", "type": "pubkeyhash"}, "value": 0.00652855, "n": 27}, {"scriptPubKey": {"reqSigs": 1, "hex": "a9142849666b990616d631c839cd34c6fd3dc611733787", "addresses": ["35N2t9JJ6wr4EajbrbLxYbap3sNemuUqET"], "asm": "OP_HASH160 2849666b990616d631c839cd34c6fd3dc6117337 OP_EQUAL", "type": "scripthash"}, "value": 0.00733365, "n": 28}, {"scriptPubKey": {"reqSigs": 1, "hex": "76a914b3c53bb799c329661d3b68c4f8cfe9e05650c10088ac", "addresses": ["1HPYEM3JN24sjBWMXUERTSaCkU9wN3JSKf"], "asm": "OP_DUP OP_HASH160 b3c53bb799c329661d3b68c4f8cfe9e05650c100 OP_EQUALVERIFY OP_CHECKSIG", "type": "pubkeyhash"}, "value": 0.00693206, "n": 29}, {"scriptPubKey": {"reqSigs": 1, "hex": "76a914e0f4e8425aee56d6a55145d3ad516e191e86f90e88ac", "addresses": ["1MWTkReU8sDcBZj6eqVG8P4WV1qDiip5ij"], "asm": "OP_DUP OP_HASH160 e0f4e8425aee56d6a55145d3ad516e191e86f90e OP_EQUALVERIFY OP_CHECKSIG", "type": "pubkeyhash"}, "value": 0.00719741, "n": 30}, {"scriptPubKey": {"reqSigs": 1, "hex": "76a91414f24cbb42db1557c033b29632bb72db5e82467a88ac", "addresses": ["12ukn7o7cHSjnvU8pvREthNGadqaPT3wSD"], "asm": "OP_DUP OP_HASH160 14f24cbb42db1557c033b29632bb72db5e82467a OP_EQUALVERIFY OP_CHECKSIG", "type": "pubkeyhash"}, "value": 0.0068729, "n": 31}, {"scriptPubKey": {"reqSigs": 1, "hex": "a91432cbaf93cda0552ade925e8c6cac7796266b1d9287", "addresses": ["36KbiUa6tm8UFo1BsyHMZytXQNMqk3E8YE"], "asm": "OP_HASH160 32cbaf93cda0552ade925e8c6cac7796266b1d92 OP_EQUAL", "type": "scripthash"}, "value": 0.00713395, "n": 32}, {"scriptPubKey": {"reqSigs": 1, "hex": "76a9142a78a3fd43f7450d2f6faa5e915fc2f11a3ed91d88ac", "addresses": ["14sZuK54zXiL9FnnXK38M82kxxUzWu5b3E"], "asm": "OP_DUP OP_HASH160 2a78a3fd43f7450d2f6faa5e915fc2f11a3ed91d OP_EQUALVERIFY OP_CHECKSIG", "type": "pubkeyhash"}, "value": 0.00719043, "n": 33}, {"scriptPubKey": {"reqSigs": 1, "hex": "76a91464850eb0fab0e3fa8423047965b58cb2d7ffc33e88ac", "addresses": ["1AAVyB1594E66jeJJeAvZSbRBEPWP3tQRM"], "asm": "OP_DUP OP_HASH160 64850eb0fab0e3fa8423047965b58cb2d7ffc33e OP_EQUALVERIFY OP_CHECKSIG", "type": "pubkeyhash"}, "value": 0.00733433, "n": 34}, {"scriptPubKey": {"reqSigs": 1, "hex": "76a914d3101c360daebd034f9624e976970a8ec1306fac88ac", "addresses": ["1LEzsqHcLxbDK8NaGkyULziVcWT8mqewA2"], "asm": "OP_DUP OP_HASH160 d3101c360daebd034f9624e976970a8ec1306fac OP_EQUALVERIFY OP_CHECKSIG", "type": "pubkeyhash"}, "value": 0.00686711, "n": 35}, {"scriptPubKey": {"reqSigs": 1, "hex": "76a91404949603ab47d66f52f69eedf1de5bb4a08f657b88ac", "addresses": ["1RDhhnN1mWrJAZt9i52bff9j7xxUcu7bM"], "asm": "OP_DUP OP_HASH160 04949603ab47d66f52f69eedf1de5bb4a08f657b OP_EQUALVERIFY OP_CHECKSIG", "type": "pubkeyhash"}, "value": 0.00680272, "n": 36}, {"scriptPubKey": {"reqSigs": 1, "hex": "76a9148bcbe15a81e9f20c31d6e37da486e970a42b37c688ac", "addresses": ["1DkBAWsucQcVF2B3L7ZFVpz8gJB25wVhNM"], "asm": "OP_DUP OP_HASH160 8bcbe15a81e9f20c31d6e37da486e970a42b37c6 OP_EQUALVERIFY OP_CHECKSIG", "type": "pubkeyhash"}, "value": 0.00677089, "n": 37}, {"scriptPubKey": {"reqSigs": 1, "hex": "76a9145267f1faa4eadc527adda1244abc0b237bd455cd88ac", "addresses": ["18WivyLbiR4eNdRuQWCgHVqhkQ3mf51jMt"], "asm": "OP_DUP OP_HASH160 5267f1faa4eadc527adda1244abc0b237bd455cd OP_EQUALVERIFY OP_CHECKSIG", "type": "pubkeyhash"}, "value": 0.00694126, "n": 38}, {"scriptPubKey": {"reqSigs": 1, "hex": "76a914262314603c8f344adb2d6e96346d82448943ee6188ac", "addresses": ["14UehfRSpTsrC2jjiswt4DciwWStBERuFK"], "asm": "OP_DUP OP_HASH160 262314603c8f344adb2d6e96346d82448943ee61 OP_EQUALVERIFY OP_CHECKSIG", "type": "pubkeyhash"}, "value": 0.00683997, "n": 39}, {"scriptPubKey": {"reqSigs": 1, "hex": "a914d6cf8c1d4028ab8dd0b60da63f965ccf671ac99a87", "addresses": ["3MGqAEehNwvPjEn9BuXcKReHH7QDXKY8Us"], "asm": "OP_HASH160 d6cf8c1d4028ab8dd0b60da63f965ccf671ac99a OP_EQUAL", "type": "scripthash"}, "value": 0.00675284, "n": 40}, {"scriptPubKey": {"reqSigs": 1, "hex": "76a914ae273748d2a9550f60e9ffca3297ae76df3a763588ac", "addresses": ["1GsqZ9kKyEqWwioU93mK7oLWLARvv6z8gD"], "asm": "OP_DUP OP_HASH160 ae273748d2a9550f60e9ffca3297ae76df3a7635 OP_EQUALVERIFY OP_CHECKSIG", "type": "pubkeyhash"}, "value": 0.00717853, "n": 41}, {"scriptPubKey": {"reqSigs": 1, "hex": "76a914e1d0474a0191d0f006ea506340ec2e612ed45c4a88ac", "addresses": ["1MazYc2MGyWCgx92Li6guQXm5P3cgDxzRx"], "asm": "OP_DUP OP_HASH160 e1d0474a0191d0f006ea506340ec2e612ed45c4a OP_EQUALVERIFY OP_CHECKSIG", "type": "pubkeyhash"}, "value": 0.00738861, "n": 42}, {"scriptPubKey": {"reqSigs": 1, "hex": "76a9145aef0f7d5029f446b187e50d34dd8646ff2ad1a588ac", "addresses": ["19HpCUqKsray6T7pDkiDRw2GVaJngxoETK"], "asm": "OP_DUP OP_HASH160 5aef0f7d5029f446b187e50d34dd8646ff2ad1a5 OP_EQUALVERIFY OP_CHECKSIG", "type": "pubkeyhash"}, "value": 0.00662658, "n": 43}, {"scriptPubKey": {"reqSigs": 1, "hex": "a914d13f5b12972567a791e19ebb6e2d77be594fe21b87", "addresses": ["3LmR3ft3Um3uBpUNvVNmsCDeGc85P9oA6e"], "asm": "OP_HASH160 d13f5b12972567a791e19ebb6e2d77be594fe21b OP_EQUAL", "type": "scripthash"}, "value": 0.00652913, "n": 44}, {"scriptPubKey": {"reqSigs": 1, "hex": "76a914553cc54f417944de7fcae43f022285af363baf0c88ac", "addresses": ["18mhEjNxnfVRcA3b2TjjgBpMLFXA6T2v1f"], "asm": "OP_DUP OP_HASH160 553cc54f417944de7fcae43f022285af363baf0c OP_EQUALVERIFY OP_CHECKSIG", "type": "pubkeyhash"}, "value": 0.00700171, "n": 45}, {"scriptPubKey": {"reqSigs": 1, "hex": "76a9147e10c7e1f0cade956150aaa18e37544696d6195588ac", "addresses": ["1CVaF7zDCwUCfYQAhCg3sUGBjEjJkVZPUZ"], "asm": "OP_DUP OP_HASH160 7e10c7e1f0cade956150aaa18e37544696d61955 OP_EQUALVERIFY OP_CHECKSIG", "type": "pubkeyhash"}, "value": 0.00691338, "n": 46}, {"scriptPubKey": {"reqSigs": 1, "hex": "76a914bb7a48794c4d33fb5c99ab12577f97dfffca37a188ac", "addresses": ["1J6HrFZfFdauUnwgLUwK85oCvY8FjYCa7d"], "asm": "OP_DUP OP_HASH160 bb7a48794c4d33fb5c99ab12577f97dfffca37a1 OP_EQUALVERIFY OP_CHECKSIG", "type": "pubkeyhash"}, "value": 0.00684585, "n": 47}, {"scriptPubKey": {"reqSigs": 1, "hex": "76a9143689ced3bd55d83e09a1e484af2e0f66416f6c5e88ac", "addresses": ["15yNaRQpfXdptzKM9f4atL5vrmU21y9rCo"], "asm": "OP_DUP OP_HASH160 3689ced3bd55d83e09a1e484af2e0f66416f6c5e OP_EQUALVERIFY OP_CHECKSIG", "type": "pubkeyhash"}, "value": 0.00691467, "n": 48}, {"scriptPubKey": {"reqSigs": 1, "hex": "a914a2174069e5b193daccf85ee4a0f2765190ef1dc487", "addresses": ["3GU5FAs5KiEEL1M7bkzVKHfz9FS1mVyCcX"], "asm": "OP_HASH160 a2174069e5b193daccf85ee4a0f2765190ef1dc4 OP_EQUAL", "type": "scripthash"}, "value": 0.00660466, "n": 49}, {"scriptPubKey": {"reqSigs": 1, "hex": "76a9144a9c5a4502fbf4da742ce2a85e60e36a2fbbefe688ac", "addresses": ["17oWJmQaWosMf5fV5ny3DywbHUR1ALpyrt"], "asm": "OP_DUP OP_HASH160 4a9c5a4502fbf4da742ce2a85e60e36a2fbbefe6 OP_EQUALVERIFY OP_CHECKSIG", "type": "pubkeyhash"}, "value": 0.00688037, "n": 50}, {"scriptPubKey": {"reqSigs": 1, "hex": "76a9146fb0acc18238bdd81674f751d3ac4313169c893a88ac", "addresses": ["1BBZesmtDnzZiRTd6cMSqkJ3ispP67qxsq"], "asm": "OP_DUP OP_HASH160 6fb0acc18238bdd81674f751d3ac4313169c893a OP_EQUALVERIFY OP_CHECKSIG", "type": "pubkeyhash"}, "value": 0.00654221, "n": 51}, {"scriptPubKey": {"reqSigs": 1, "hex": "76a9141336633bcc85db92aabc1aa211b407b8cc33622188ac", "addresses": ["12kazZh6Ztdd6Q7iBqrpapXtRHiZ2cbWhz"], "asm": "OP_DUP OP_HASH160 1336633bcc85db92aabc1aa211b407b8cc336221 OP_EQUALVERIFY OP_CHECKSIG", "type": "pubkeyhash"}, "value": 0.00740122, "n": 52}, {"scriptPubKey": {"reqSigs": 1, "hex": "76a91447aa5467f2275245435452af46db694a5951760d88ac", "addresses": ["17Xw2LUWLmaYUDvDRDWe8Ru9JUjVmLUbYJ"], "asm": "OP_DUP OP_HASH160 47aa5467f2275245435452af46db694a5951760d OP_EQUALVERIFY OP_CHECKSIG", "type": "pubkeyhash"}, "value": 0.00652746, "n": 53}, {"scriptPubKey": {"reqSigs": 1, "hex": "76a9146be6ae5b6219faaf03d93551728e7ea79155e8ee88ac", "addresses": ["1AqXeXeb5nfHevMc3QCF4bjcTPkcLjQp33"], "asm": "OP_DUP OP_HASH160 6be6ae5b6219faaf03d93551728e7ea79155e8ee OP_EQUALVERIFY OP_CHECKSIG", "type": "pubkeyhash"}, "value": 0.00667752, "n": 54}, {"scriptPubKey": {"reqSigs": 1, "hex": "76a9142c3422e2516e4fc1a14b6d7f9f7e8eb8bbdd551d88ac", "addresses": ["152jBw3ZVmsVkgeB9ADcu1mFuWFm6aiwUm"], "asm": "OP_DUP OP_HASH160 2c3422e2516e4fc1a14b6d7f9f7e8eb8bbdd551d OP_EQUALVERIFY OP_CHECKSIG", "type": "pubkeyhash"}, "value": 0.00659667, "n": 55}, {"scriptPubKey": {"reqSigs": 1, "hex": "76a914025187d23230480e96d52afaa3958734b8626f1888ac", "addresses": ["1DG2E68K3GJoQenXuUoGwRMLn4TvcyiUd"], "asm": "OP_DUP OP_HASH160 025187d23230480e96d52afaa3958734b8626f18 OP_EQUALVERIFY OP_CHECKSIG", "type": "pubkeyhash"}, "value": 0.00714943, "n": 56}, {"scriptPubKey": {"reqSigs": 1, "hex": "76a914442bad425bb9f8a60d9f79c945f3d6cf481ad8b188ac", "addresses": ["17DTGmA2ViJ1tHGwVahYeXvr9GG4HK6yDz"], "asm": "OP_DUP OP_HASH160 442bad425bb9f8a60d9f79c945f3d6cf481ad8b1 OP_EQUALVERIFY OP_CHECKSIG", "type": "pubkeyhash"}, "value": 0.00732409, "n": 57}, {"scriptPubKey": {"reqSigs": 1, "hex": "a914bf5508a0a5cb8c9e70ff86143b3b2e0c7592a8a487", "addresses": ["3K8grRokhs1qyKbe9TuXxF7RWMmZDnkPoP"], "asm": "OP_HASH160 bf5508a0a5cb8c9e70ff86143b3b2e0c7592a8a4 OP_EQUAL", "type": "scripthash"}, "value": 0.00713495, "n": 58}, {"scriptPubKey": {"reqSigs": 1, "hex": "76a91461f350f3cca2ded2eb3a87c73c737680046a917188ac", "addresses": ["19vv2Ws8fW8D7fXdHNJtLJ7RcxAqor7bue"], "asm": "OP_DUP OP_HASH160 61f350f3cca2ded2eb3a87c73c737680046a9171 OP_EQUALVERIFY OP_CHECKSIG", "type": "pubkeyhash"}, "value": 0.00685166, "n": 59}, {"scriptPubKey": {"reqSigs": 1, "hex": "76a914a2f855bc361df6af3288db8aa06276684aa52c2e88ac", "addresses": ["1FrhxgujojyrUQFitGidWvNjtzDQ18Xg9A"], "asm": "OP_DUP OP_HASH160 a2f855bc361df6af3288db8aa06276684aa52c2e OP_EQUALVERIFY OP_CHECKSIG", "type": "pubkeyhash"}, "value": 0.00720887, "n": 60}, {"scriptPubKey": {"reqSigs": 1, "hex": "a914495e83599def8b0e091b51ce030169c7719ec96a87", "addresses": ["38NxURzb5XUwvMwFjPss98LddpyQVztHvg"], "asm": "OP_HASH160 495e83599def8b0e091b51ce030169c7719ec96a OP_EQUAL", "type": "scripthash"}, "value": 0.00697816, "n": 61}, {"scriptPubKey": {"reqSigs": 1, "hex": "76a91448c6a8e425f7c98cf2ebf6e152cdbdbc231bcc3088ac", "addresses": ["17dodw3vaHjwt2vrySe1GF4yQxmATADzCz"], "asm": "OP_DUP OP_HASH160 48c6a8e425f7c98cf2ebf6e152cdbdbc231bcc30 OP_EQUALVERIFY OP_CHECKSIG", "type": "pubkeyhash"}, "value": 0.00663354, "n": 62}, {"scriptPubKey": {"reqSigs": 1, "hex": "a914df5ae34736120ca128d0215067b734be0cbe643787", "addresses": ["3N41VKMrq7TrBtvHCHvUX1hs1vwqX4fnMe"], "asm": "OP_HASH160 df5ae34736120ca128d0215067b734be0cbe6437 OP_EQUAL", "type": "scripthash"}, "value": 0.00718894, "n": 63}, {"scriptPubKey": {"reqSigs": 1, "hex": "76a91447b4ddc68461a3c11bb37244cd0c40e56cd81e4f88ac", "addresses": ["17Y9eS2cxjCPdvtbnstyPsDUWcrYsFj7AA"], "asm": "OP_DUP OP_HASH160 47b4ddc68461a3c11bb37244cd0c40e56cd81e4f OP_EQUALVERIFY OP_CHECKSIG", "type": "pubkeyhash"}, "value": 0.00673901, "n": 64}, {"scriptPubKey": {"reqSigs": 1, "hex": "76a91437098facb382cb865b0c10c14ec5c6d4c5020ce488ac", "addresses": ["1621csqaBFRAWoSvw1nC8ecBBpd5REptg8"], "asm": "OP_DUP OP_HASH160 37098facb382cb865b0c10c14ec5c6d4c5020ce4 OP_EQUALVERIFY OP_CHECKSIG", "type": "pubkeyhash"}, "value": 0.00706348, "n": 65}, {"scriptPubKey": {"reqSigs": 1, "hex": "76a914c5277ac8dfa3ce4e0f929f18229b00401ea82e7b88ac", "addresses": ["1JyTQtE7JkF4JswGGXFPJYrD21b6iisjVd"], "asm": "OP_DUP OP_HASH160 c5277ac8dfa3ce4e0f929f18229b00401ea82e7b OP_EQUALVERIFY OP_CHECKSIG", "type": "pubkeyhash"}, "value": 0.00783986, "n": 66}, {"scriptPubKey": {"reqSigs": 1, "hex": "76a914270c5d72af4841d8f8ff860f76c00dbb01c5d11588ac", "addresses": ["14ZUActhPaDPuEXzqAHtSmog7yKDE1K845"], "asm": "OP_DUP OP_HASH160 270c5d72af4841d8f8ff860f76c00dbb01c5d115 OP_EQUALVERIFY OP_CHECKSIG", "type": "pubkeyhash"}, "value": 0.00709785, "n": 67}, {"scriptPubKey": {"reqSigs": 1, "hex": "a914235f67583af782d560e404b6f00314348602637e87", "addresses": ["34v3s2Feat7g4RH1F419gL9QLi9x6wAtXB"], "asm": "OP_HASH160 235f67583af782d560e404b6f00314348602637e OP_EQUAL", "type": "scripthash"}, "value": 0.00766905, "n": 68}, {"scriptPubKey": {"reqSigs": 1, "hex": "a91487aff86a68580eac4e8e977a14276972dd143bcb87", "addresses": ["3E4Tx5QWDrBpAh74AQMWd7CBe3Y6rH3xTy"], "asm": "OP_HASH160 87aff86a68580eac4e8e977a14276972dd143bcb OP_EQUAL", "type": "scripthash"}, "value": 0.00709576, "n": 69}, {"scriptPubKey": {"reqSigs": 1, "hex": "76a914e0757677d1d1c0ae3419617625174b0410cf77d988ac", "addresses": ["1MTq5RiGnPLXXxUXrHAd1fKQrykfzfUBZ9"], "asm": "OP_DUP OP_HASH160 e0757677d1d1c0ae3419617625174b0410cf77d9 OP_EQUALVERIFY OP_CHECKSIG", "type": "pubkeyhash"}, "value": 0.00696554, "n": 70}, {"scriptPubKey": {"reqSigs": 1, "hex": "76a9149c8bdd5d83ffc8eaae2b0e712e44fd70c79def4888ac", "addresses": ["1FGjxtxbfxrGrGgbigTggoSb5vaKH16fWK"], "asm": "OP_DUP OP_HASH160 9c8bdd5d83ffc8eaae2b0e712e44fd70c79def48 OP_EQUALVERIFY OP_CHECKSIG", "type": "pubkeyhash"}, "value": 173.27692131, "n": 71}, {"scriptPubKey": {"reqSigs": 1, "hex": "76a914e1a8d2bf2d7fa23f11fb6bed6126db066ffb8c1f88ac", "addresses": ["1MaBHCvEsdT2WjedRqb44x3hv7XWSyPnYx"], "asm": "OP_DUP OP_HASH160 e1a8d2bf2d7fa23f11fb6bed6126db066ffb8c1f OP_EQUALVERIFY OP_CHECKSIG", "type": "pubkeyhash"}, "value": 0.0073941, "n": 72}, {"scriptPubKey": {"reqSigs": 1, "hex": "a914362baab093031b1c816ffb0cd724d457ad6f51b287", "addresses": ["36dSivS2asWQwdHyMg5t7dfxgFPPCqChoc"], "asm": "OP_HASH160 362baab093031b1c816ffb0cd724d457ad6f51b2 OP_EQUAL", "type": "scripthash"}, "value": 0.00690334, "n": 73}, {"scriptPubKey": {"reqSigs": 1, "hex": "76a914c1ae2ab3491aa3a60c49fdc81b2d3b88f501177d88ac", "addresses": ["1Jf64Lz6bRvTS1BRz1YVFmTi5KWk5HJPWV"], "asm": "OP_DUP OP_HASH160 c1ae2ab3491aa3a60c49fdc81b2d3b88f501177d OP_EQUALVERIFY OP_CHECKSIG", "type": "pubkeyhash"}, "value": 0.00701084, "n": 74}, {"scriptPubKey": {"reqSigs": 1, "hex": "76a9140309f81af06ea5565ecadefd09c43dd4db78b6dc88ac", "addresses": ["1H4yFCzhrFVVPQc6SqRWReQbbxiV9EoD1"], "asm": "OP_DUP OP_HASH160 0309f81af06ea5565ecadefd09c43dd4db78b6dc OP_EQUALVERIFY OP_CHECKSIG", "type": "pubkeyhash"}, "value": 0.00718882, "n": 75}, {"scriptPubKey": {"reqSigs": 1, "hex": "76a91485f237fca895d1761eecf77365b8fcddef399bd688ac", "addresses": ["1DDF3AVgDgaqQkpX2iYvCij5L5CrYNBNbU"], "asm": "OP_DUP OP_HASH160 85f237fca895d1761eecf77365b8fcddef399bd6 OP_EQUALVERIFY OP_CHECKSIG", "type": "pubkeyhash"}, "value": 0.00665089, "n": 76}, {"scriptPubKey": {"reqSigs": 1, "hex": "76a9147e5f7e8784c44f98f2932aecc10f6f23a247a6c588ac", "addresses": ["1CXCYEDNS6ewHG4FYjyimG6YxvojoBmB9h"], "asm": "OP_DUP OP_HASH160 7e5f7e8784c44f98f2932aecc10f6f23a247a6c5 OP_EQUALVERIFY OP_CHECKSIG", "type": "pubkeyhash"}, "value": 0.00654764, "n": 77}, {"scriptPubKey": {"reqSigs": 1, "hex": "a914f3af80e6fd82c5f047d348d904f496f7dd1bb3ce87", "addresses": ["3PuWNMfvm3YEmC5jLZxZFmzsCNqTXEnqKU"], "asm": "OP_HASH160 f3af80e6fd82c5f047d348d904f496f7dd1bb3ce OP_EQUAL", "type": "scripthash"}, "value": 0.00721425, "n": 78}, {"scriptPubKey": {"reqSigs": 1, "hex": "a914a425bb0af480fe7340e12b75fd1493b20810362387", "addresses": ["3GewwaGpa2uAoMm9sWmaVbBd3PzrW1XPnq"], "asm": "OP_HASH160 a425bb0af480fe7340e12b75fd1493b208103623 OP_EQUAL", "type": "scripthash"}, "value": 0.00654041, "n": 79}, {"scriptPubKey": {"reqSigs": 1, "hex": "a914abc9d30442791655c77b71df7f9739e69dc735d487", "addresses": ["3HMMFLtu1gEwBJKSECNtVkNsyyXfMAETGV"], "asm": "OP_HASH160 abc9d30442791655c77b71df7f9739e69dc735d4 OP_EQUAL", "type": "scripthash"}, "value": 0.00714284, "n": 80}, {"scriptPubKey": {"reqSigs": 1, "hex": "76a914ddcef8bcd8431555831ec0233f32130977313ffc88ac", "addresses": ["1MDpH34jQUxATRBAoRuqd4VDHkyMFXF38A"], "asm": "OP_DUP OP_HASH160 ddcef8bcd8431555831ec0233f32130977313ffc OP_EQUALVERIFY OP_CHECKSIG", "type": "pubkeyhash"}, "value": 0.00692432, "n": 81}, {"scriptPubKey": {"reqSigs": 1, "hex": "a9141b5a0832422106eb784585a62ff6e9ab9e0ca9bb87", "addresses": ["34Be2Ft4bJWvfE1r1kNy6DY7EJbopEuvtX"], "asm": "OP_HASH160 1b5a0832422106eb784585a62ff6e9ab9e0ca9bb OP_EQUAL", "type": "scripthash"}, "value": 0.00741542, "n": 82}, {"scriptPubKey": {"reqSigs": 1, "hex": "76a9144c1eacab8f6d097f547409fe0fbf616458b832ec88ac", "addresses": ["17wV6t47bw334CW5e41v1Kxqu9EPkVd58c"], "asm": "OP_DUP OP_HASH160 4c1eacab8f6d097f547409fe0fbf616458b832ec OP_EQUALVERIFY OP_CHECKSIG", "type": "pubkeyhash"}, "value": 0.0068236, "n": 83}, {"scriptPubKey": {"reqSigs": 1, "hex": "76a914009ee55957dd89c76a9a37770dba443c85154ba688ac", "addresses": ["114HMHFvxVcNDqNjCEbiwUWJSn2ovgamrS"], "asm": "OP_DUP OP_HASH160 009ee55957dd89c76a9a37770dba443c85154ba6 OP_EQUALVERIFY OP_CHECKSIG", "type": "pubkeyhash"}, "value": 0.00682189, "n": 84}, {"scriptPubKey": {"reqSigs": 1, "hex": "76a9147e2e4c1155a14b7fc7a139aa223406443c8a7c5688ac", "addresses": ["1CWBbxEUAaxT28YHcyLYfzUPbNbXUioVze"], "asm": "OP_DUP OP_HASH160 7e2e4c1155a14b7fc7a139aa223406443c8a7c56 OP_EQUALVERIFY OP_CHECKSIG", "type": "pubkeyhash"}, "value": 0.00662133, "n": 85}, {"scriptPubKey": {"reqSigs": 1, "hex": "76a914953b455687a2d46e3383b99c18d8c7a6d551077a88ac", "addresses": ["1Ec4go312YFNDJ4yELcwWjVx2tBWdCKspK"], "asm": "OP_DUP OP_HASH160 953b455687a2d46e3383b99c18d8c7a6d551077a OP_EQUALVERIFY OP_CHECKSIG", "type": "pubkeyhash"}, "value": 0.00723698, "n": 86}, {"scriptPubKey": {"reqSigs": 1, "hex": "76a914eb097f0c16d4b9b0adda7d7c6089ef4d956decdf88ac", "addresses": ["1NRmAtoUg88hAFZjeUNJnULPogGNeV2zYb"], "asm": "OP_DUP OP_HASH160 eb097f0c16d4b9b0adda7d7c6089ef4d956decdf OP_EQUALVERIFY OP_CHECKSIG", "type": "pubkeyhash"}, "value": 0.00683742, "n": 87}, {"scriptPubKey": {"reqSigs": 1, "hex": "76a91486ec0a0d1b8832069ea757119ae9d501b8f738cc88ac", "addresses": ["1DJQK13XePfoHfrjmw4UxL5Yp8rkLDjQMi"], "asm": "OP_DUP OP_HASH160 86ec0a0d1b8832069ea757119ae9d501b8f738cc OP_EQUALVERIFY OP_CHECKSIG", "type": "pubkeyhash"}, "value": 0.00655143, "n": 88}, {"scriptPubKey": {"reqSigs": 1, "hex": "76a914b304c93611d85ebaf2d3553933ed14c1b2dfb57488ac", "addresses": ["1HKZgsfJWPRib9awRU3K2HefXMbUBQjgNM"], "asm": "OP_DUP OP_HASH160 b304c93611d85ebaf2d3553933ed14c1b2dfb574 OP_EQUALVERIFY OP_CHECKSIG", "type": "pubkeyhash"}, "value": 0.00688456, "n": 89}, {"scriptPubKey": {"reqSigs": 1, "hex": "a9149ce5c4dce41bc25aff2ee0ea0fb783fec19c086287", "addresses": ["3Fzcb6hFJBDEejYc9kUSFHbFjtNA4yTM2u"], "asm": "OP_HASH160 9ce5c4dce41bc25aff2ee0ea0fb783fec19c0862 OP_EQUAL", "type": "scripthash"}, "value": 0.00680604, "n": 90}, {"scriptPubKey": {"reqSigs": 1, "hex": "76a9140026457e523b559326dccabef35728155227c12b88ac", "addresses": ["11nr9ZSBBgqnvEyZB5PHva2SyQtPteoKi"], "asm": "OP_DUP OP_HASH160 0026457e523b559326dccabef35728155227c12b OP_EQUALVERIFY OP_CHECKSIG", "type": "pubkeyhash"}, "value": 0.00659667, "n": 91}, {"scriptPubKey": {"reqSigs": 1, "hex": "76a91459f80e6b42fdec054d92b7c33119a9cee7c33cfa88ac", "addresses": ["19CiJL3xeWRZ8LkCpJXoQuTsZ93wyDngBQ"], "asm": "OP_DUP OP_HASH160 59f80e6b42fdec054d92b7c33119a9cee7c33cfa OP_EQUALVERIFY OP_CHECKSIG", "type": "pubkeyhash"}, "value": 0.00717179, "n": 92}, {"scriptPubKey": {"reqSigs": 1, "hex": "a9149b9b8a23fab78300334d6864e407c817f3b5348887", "addresses": ["3FsnzMnPZmu9tcRxzTNRMqGSrorLqFDL1n"], "asm": "OP_HASH160 9b9b8a23fab78300334d6864e407c817f3b53488 OP_EQUAL", "type": "scripthash"}, "value": 0.0068245, "n": 93}, {"scriptPubKey": {"reqSigs": 1, "hex": "a9142f436c333840713f76f84bbc4d4e3634cd96391387", "addresses": ["35zvTAhhXXHdFMA7jXNPN2ZY4cQtLjqf68"], "asm": "OP_HASH160 2f436c333840713f76f84bbc4d4e3634cd963913 OP_EQUAL", "type": "scripthash"}, "value": 0.00654411, "n": 94}, {"scriptPubKey": {"reqSigs": 1, "hex": "76a9142f2975871072772027daf0c180df485e0ddf6c8d88ac", "addresses": ["15JNReNGjzQwbjTpty1up29t3bWfYqwQJ3"], "asm": "OP_DUP OP_HASH160 2f2975871072772027daf0c180df485e0ddf6c8d OP_EQUALVERIFY OP_CHECKSIG", "type": "pubkeyhash"}, "value": 0.00728436, "n": 95}, {"scriptPubKey": {"reqSigs": 1, "hex": "76a9149946d0c858341eefb70f4287928760b3a1f3ce1888ac", "addresses": ["1EyTDhftVe4qNmYtnU6nt5pUqSSwHaaxZ1"], "asm": "OP_DUP OP_HASH160 9946d0c858341eefb70f4287928760b3a1f3ce18 OP_EQUALVERIFY OP_CHECKSIG", "type": "pubkeyhash"}, "value": 0.00661805, "n": 96}, {"scriptPubKey": {"reqSigs": 1, "hex": "a9141ec739bb574351b605284982d4ca97a0cf0f0d8987", "addresses": ["34VkrjJMFxx9VAaJp1JTVi79isXtVvBm2h"], "asm": "OP_HASH160 1ec739bb574351b605284982d4ca97a0cf0f0d89 OP_EQUAL", "type": "scripthash"}, "value": 0.00723938, "n": 97}, {"scriptPubKey": {"reqSigs": 1, "hex": "76a914ede1bb6aa047b87318775a8ecf4e8adf3365d98288ac", "addresses": ["1NgoZc5VLkFK4BGNZ8E5c5s7Qvr6Pq7UPP"], "asm": "OP_DUP OP_HASH160 ede1bb6aa047b87318775a8ecf4e8adf3365d982 OP_EQUALVERIFY OP_CHECKSIG", "type": "pubkeyhash"}, "value": 0.00657924, "n": 98}, {"scriptPubKey": {"reqSigs": 1, "hex": "76a91443bc9d8b9f5185be68c93b5f2b54aea552a3076288ac", "addresses": ["17BAE5i8zdSUMC2QmeqasD2wtBJcdM3x1A"], "asm": "OP_DUP OP_HASH160 43bc9d8b9f5185be68c93b5f2b54aea552a30762 OP_EQUALVERIFY OP_CHECKSIG", "type": "pubkeyhash"}, "value": 0.00676466, "n": 99}, {"scriptPubKey": {"reqSigs": 1, "hex": "76a9143817ba9b197fd4799b094443415e38fccdc1af8e88ac", "addresses": ["167bGTXhv5R9d4aYAQvwMsQU6sFdbBBfNY"], "asm": "OP_DUP OP_HASH160 3817ba9b197fd4799b094443415e38fccdc1af8e OP_EQUALVERIFY OP_CHECKSIG", "type": "pubkeyhash"}, "value": 0.00694367, "n": 100}], "hex": "02000000012f56a5f8e2dc93d6be06931c29baecd0c5a5ea885bd4699158c728085ca9bd46230000006b483045022100e41d9be37673c008c5a9b077177776f453494710eeff02c4672619dc98d82b2f022021548e5f42d69ba210a95d76b5ad24e390cf8252e70493c0ee3291828452df5301210389b655b727b18f86514cbcc999a822341c9b1bfd0c548d97731b8efd67cba0c6feffffff6590af0a000000000017a91439be6106c1e84e418b08f5cb294b1f43e6399c0a87ab550b00000000001976a9145497254c509af4be7eed6b7b09fd08e56eb533d388acc3cc0a00000000001976a914488fb8c94650f5586602f6f792af8920ef333e2188ac01510a00000000001976a91439e95619beafdd783a251ef72d221c877219ae1488ac99770a000000000017a91476717227cb396a64fb0c88b91148c38f1069f5d7873a090b000000000017a9146110d4b09e8d8eb17930c184e7ea8d3f8fc5ff6b876a7e0a00000000001976a914a71ddd626f6324a700f6b8f24677fd4cc2afb58488acc20e0a000000000017a9146aa2c1fcca7f2a1d413bb1d659cc359eff3fc05f877fc70a000000000017a914cb7250bc77d76bafa507d80dd96d868c72d4ff368733370a00000000001976a91446ace0ee6f8d789b7f6811dbd77c7bb60dec783688ac9b210a000000000017a914635aee944fc433cb2a1a29140d9bd06b42fcb18487bc240b000000000017a914c3387d63a84e72b9550b1711a280cfdb4f294fd787ec510a00000000001976a914433c05699d6ecc40b227b5e753642423a5e8f6d888ac43dc0a00000000001976a914bedaf54cd1e5637c6c789527960c644e7306123688ac43160a000000000017a91480cb1a898f82457b919ae5ce223170ba39b1c62e8719b50a00000000001976a9145c5b156ab2150421a3a8c4950c6e029787b5789088acf3a30a00000000001976a9145f8d24eea8f84ad0807bd1f84d65b5c35bd4746688aca6060a000000000017a914e2bacd86c7aa9b9a2e55a569638165bdf37b8cd987b0090a000000000017a914b6269c96a72391d9715fa717b15f3009e3abac4f8774250a00000000001976a9142af333452853578df95a2739b9cdf38722cc884e88ac1feb09000000000017a914f166c88eccc8d0c18e7c9b957e3fc1ffa2a3a53787e0fc0900000000001976a914a72fd0e352365d14ffe8a1f6361403186a7d34d488acbcc70a00000000001976a914ab046225a63e46b357007ebaf1532eeec8cfa75e88ac89810a00000000001976a9145c2f0067f9796911efb1457f7929cdc5286032e088acdd230a000000000017a91400206af5026726a1357d258113da30c291e2a8e187938e0a00000000001976a914f83819e6ab6d307e8b63f51092f8576ad183cb7e88ac5f170a00000000001976a914bd2a0ca132e0852d2e871d951ecbf2c781d0db7588ac37f60900000000001976a9148a44b3e5c4be5b391441e7cc88dc6e7d5a0c554988acb5300b000000000017a9142849666b990616d631c839cd34c6fd3dc611733787d6930a00000000001976a914b3c53bb799c329661d3b68c4f8cfe9e05650c10088ac7dfb0a00000000001976a914e0f4e8425aee56d6a55145d3ad516e191e86f90e88acba7c0a00000000001976a91414f24cbb42db1557c033b29632bb72db5e82467a88acb3e20a000000000017a91432cbaf93cda0552ade925e8c6cac7796266b1d9287c3f80a00000000001976a9142a78a3fd43f7450d2f6faa5e915fc2f11a3ed91d88acf9300b00000000001976a91464850eb0fab0e3fa8423047965b58cb2d7ffc33e88ac777a0a00000000001976a914d3101c360daebd034f9624e976970a8ec1306fac88ac50610a00000000001976a91404949603ab47d66f52f69eedf1de5bb4a08f657b88ace1540a00000000001976a9148bcbe15a81e9f20c31d6e37da486e970a42b37c688ac6e970a00000000001976a9145267f1faa4eadc527adda1244abc0b237bd455cd88acdd6f0a00000000001976a914262314603c8f344adb2d6e96346d82448943ee6188acd44d0a000000000017a914d6cf8c1d4028ab8dd0b60da63f965ccf671ac99a871df40a00000000001976a914ae273748d2a9550f60e9ffca3297ae76df3a763588ac2d460b00000000001976a914e1d0474a0191d0f006ea506340ec2e612ed45c4a88ac821c0a00000000001976a9145aef0f7d5029f446b187e50d34dd8646ff2ad1a588ac71f609000000000017a914d13f5b12972567a791e19ebb6e2d77be594fe21b870baf0a00000000001976a914553cc54f417944de7fcae43f022285af363baf0c88ac8a8c0a00000000001976a9147e10c7e1f0cade956150aaa18e37544696d6195588ac29720a00000000001976a914bb7a48794c4d33fb5c99ab12577f97dfffca37a188ac0b8d0a00000000001976a9143689ced3bd55d83e09a1e484af2e0f66416f6c5e88acf2130a000000000017a914a2174069e5b193daccf85ee4a0f2765190ef1dc487a57f0a00000000001976a9144a9c5a4502fbf4da742ce2a85e60e36a2fbbefe688ac8dfb0900000000001976a9146fb0acc18238bdd81674f751d3ac4313169c893a88ac1a4b0b00000000001976a9141336633bcc85db92aabc1aa211b407b8cc33622188accaf50900000000001976a91447aa5467f2275245435452af46db694a5951760d88ac68300a00000000001976a9146be6ae5b6219faaf03d93551728e7ea79155e8ee88acd3100a00000000001976a9142c3422e2516e4fc1a14b6d7f9f7e8eb8bbdd551d88acbfe80a00000000001976a914025187d23230480e96d52afaa3958734b8626f1888acf92c0b00000000001976a914442bad425bb9f8a60d9f79c945f3d6cf481ad8b188ac17e30a000000000017a914bf5508a0a5cb8c9e70ff86143b3b2e0c7592a8a4876e740a00000000001976a91461f350f3cca2ded2eb3a87c73c737680046a917188acf7ff0a00000000001976a914a2f855bc361df6af3288db8aa06276684aa52c2e88acd8a50a000000000017a914495e83599def8b0e091b51ce030169c7719ec96a873a1f0a00000000001976a91448c6a8e425f7c98cf2ebf6e152cdbdbc231bcc3088ac2ef80a000000000017a914df5ae34736120ca128d0215067b734be0cbe6437876d480a00000000001976a91447b4ddc68461a3c11bb37244cd0c40e56cd81e4f88ac2cc70a00000000001976a91437098facb382cb865b0c10c14ec5c6d4c5020ce488ac72f60b00000000001976a914c5277ac8dfa3ce4e0f929f18229b00401ea82e7b88ac99d40a00000000001976a914270c5d72af4841d8f8ff860f76c00dbb01c5d11588acb9b30b000000000017a914235f67583af782d560e404b6f00314348602637e87c8d30a000000000017a91487aff86a68580eac4e8e977a14276972dd143bcb87eaa00a00000000001976a914e0757677d1d1c0ae3419617625174b0410cf77d988ac6399cf08040000001976a9149c8bdd5d83ffc8eaae2b0e712e44fd70c79def4888ac52480b00000000001976a914e1a8d2bf2d7fa23f11fb6bed6126db066ffb8c1f88ac9e880a000000000017a914362baab093031b1c816ffb0cd724d457ad6f51b2879cb20a00000000001976a914c1ae2ab3491aa3a60c49fdc81b2d3b88f501177d88ac22f80a00000000001976a9140309f81af06ea5565ecadefd09c43dd4db78b6dc88ac01260a00000000001976a91485f237fca895d1761eecf77365b8fcddef399bd688acacfd0900000000001976a9147e5f7e8784c44f98f2932aecc10f6f23a247a6c588ac11020b000000000017a914f3af80e6fd82c5f047d348d904f496f7dd1bb3ce87d9fa09000000000017a914a425bb0af480fe7340e12b75fd1493b208103623872ce60a000000000017a914abc9d30442791655c77b71df7f9739e69dc735d487d0900a00000000001976a914ddcef8bcd8431555831ec0233f32130977313ffc88aca6500b000000000017a9141b5a0832422106eb784585a62ff6e9ab9e0ca9bb8778690a00000000001976a9144c1eacab8f6d097f547409fe0fbf616458b832ec88accd680a00000000001976a914009ee55957dd89c76a9a37770dba443c85154ba688ac751a0a00000000001976a9147e2e4c1155a14b7fc7a139aa223406443c8a7c5688acf20a0b00000000001976a914953b455687a2d46e3383b99c18d8c7a6d551077a88acde6e0a00000000001976a914eb097f0c16d4b9b0adda7d7c6089ef4d956decdf88ac27ff0900000000001976a91486ec0a0d1b8832069ea757119ae9d501b8f738cc88ac48810a00000000001976a914b304c93611d85ebaf2d3553933ed14c1b2dfb57488ac9c620a000000000017a9149ce5c4dce41bc25aff2ee0ea0fb783fec19c086287d3100a00000000001976a9140026457e523b559326dccabef35728155227c12b88ac7bf10a00000000001976a91459f80e6b42fdec054d92b7c33119a9cee7c33cfa88acd2690a000000000017a9149b9b8a23fab78300334d6864e407c817f3b53488874bfc09000000000017a9142f436c333840713f76f84bbc4d4e3634cd96391387741d0b00000000001976a9142f2975871072772027daf0c180df485e0ddf6c8d88ac2d190a00000000001976a9149946d0c858341eefb70f4287928760b3a1f3ce1888ace20b0b000000000017a9141ec739bb574351b605284982d4ca97a0cf0f0d8987040a0a00000000001976a914ede1bb6aa047b87318775a8ecf4e8adf3365d98288ac72520a00000000001976a91443bc9d8b9f5185be68c93b5f2b54aea552a3076288ac5f980a00000000001976a9143817ba9b197fd4799b094443415e38fccdc1af8e88ac10490800", "vin": [{"sequence": 4294967294, "scriptSig": {"hex": "483045022100e41d9be37673c008c5a9b077177776f453494710eeff02c4672619dc98d82b2f022021548e5f42d69ba210a95d76b5ad24e390cf8252e70493c0ee3291828452df5301210389b655b727b18f86514cbcc999a822341c9b1bfd0c548d97731b8efd67cba0c6", "asm": "3045022100e41d9be37673c008c5a9b077177776f453494710eeff02c4672619dc98d82b2f022021548e5f42d69ba210a95d76b5ad24e390cf8252e70493c0ee3291828452df53[ALL] 0389b655b727b18f86514cbcc999a822341c9b1bfd0c548d97731b8efd67cba0c6"}, "vout": 35, "txid": "46bda95c0828c7589169d45b88eaa5c5d0ecba291c9306bed693dce2f8a5562f"}], "txid": "5a9a30732238432f12bf530ce81738923e547f285bd59962cec2241c7cdd5c26", "blocktime": 1537871767, "version": 2, "confirmations": 11495, "time": 1537871767, "locktime": 542992, "vsize": 3530, "size": 3530}