{"hash": "5ac190195a2c7d6102563bdd061ad276706d051b3718548ef7dc4d95f251d8ba", "blockhash": "0000000000000000001cda96e906b7601b7a6fb1a3b62bca570a9e5d8f4b3de1", "vout": [{"scriptPubKey": {"reqSigs": 1, "hex": "76a914d574697a2195b1e20597f2fa7e602570bd96edc488ac", "addresses": ["1LTePJurs1sbQYP6qx8mApyv8GaBBH5aWG"], "asm": "OP_DUP OP_HASH160 d574697a2195b1e20597f2fa7e602570bd96edc4 OP_EQUALVERIFY OP_CHECKSIG", "type": "pubkeyhash"}, "value": 0.00030669, "n": 0}, {"scriptPubKey": {"reqSigs": 1, "hex": "76a914fb43257fc7988d8c84c65c4cf74c266c1a0de8c788ac", "addresses": ["1PuZ3ZzCM9HjyhVK3354GHqkqwigJpiLQJ"], "asm": "OP_DUP OP_HASH160 fb43257fc7988d8c84c65c4cf74c266c1a0de8c7 OP_EQUALVERIFY OP_CHECKSIG", "type": "pubkeyhash"}, "value": 0.00234183, "n": 1}], "hex": "0100000001b608b206aa1fae5ddba70ce22f8f6dde1f6dbea1dda7bdce6cd2be462c88c849000000006a4730440220156cc34c7efe86ad62ff483405bee847ab6a4bc91e70ef1747065bb992f767f10220045452c79514eddab75fe4b09fccd8594b2cce96c6f95b504dd8498183c7ddc301210311f8f75dfe199905a0c1258e7656d11f60908880d3a6e69d4627245102636545ffffffff02cd770000000000001976a914d574697a2195b1e20597f2fa7e602570bd96edc488acc7920300000000001976a914fb43257fc7988d8c84c65c4cf74c266c1a0de8c788ac00000000", "vin": [{"sequence": 4294967295, "scriptSig": {"hex": "4730440220156cc34c7efe86ad62ff483405bee847ab6a4bc91e70ef1747065bb992f767f10220045452c79514eddab75fe4b09fccd8594b2cce96c6f95b504dd8498183c7ddc301210311f8f75dfe199905a0c1258e7656d11f60908880d3a6e69d4627245102636545", "asm": "30440220156cc34c7efe86ad62ff483405bee847ab6a4bc91e70ef1747065bb992f767f10220045452c79514eddab75fe4b09fccd8594b2cce96c6f95b504dd8498183c7ddc3[ALL] 0311f8f75dfe199905a0c1258e7656d11f60908880d3a6e69d4627245102636545"}, "vout": 0, "txid": "49c8882c46bed26ccebda7dda1be6d1fde6d8f2fe20ca7db5dae1faa06b208b6"}], "txid": "5ac190195a2c7d6102563bdd061ad276706d051b3718548ef7dc4d95f251d8ba", "blocktime": 1537873282, "version": 1, "confirmations": 11482, "time": 1537873282, "locktime": 0, "vsize": 225, "size": 225}