{"hash": "5ac72d0c1b000be1336f6ff186faaa3bd2f8e2a578f3af060d38b3257e51c7e2", "blockhash": "00000000000000000018f53835495a110e01622372bf6ae95dc86f2b0ab887b0", "vout": [{"scriptPubKey": {"reqSigs": 1, "hex": "76a9147ef4846982dcdd4b91a8803e02492543993b759988ac", "addresses": ["1CaH4XWLY63BbYv6bkWogDGvWZi5msy15e"], "asm": "OP_DUP OP_HASH160 7ef4846982dcdd4b91a8803e02492543993b7599 OP_EQUALVERIFY OP_CHECKSIG", "type": "pubkeyhash"}, "value": 0.00075924, "n": 0}, {"scriptPubKey": {"reqSigs": 1, "hex": "76a914a7e10f5f55234ab790a17cf471a2109f4fc3ac4d88ac", "addresses": ["1GJfTUxQLTJePFjMU7qvA9wbkN1rvgDHMT"], "asm": "OP_DUP OP_HASH160 a7e10f5f55234ab790a17cf471a2109f4fc3ac4d OP_EQUALVERIFY OP_CHECKSIG", "type": "pubkeyhash"}, "value": 0.02420495, "n": 1}], "hex": "0100000003e91d9b533a3e6410a98545c8e55e4c48c8f1c694cf661c1305c30faca8963224010000006b48304502210090236be0574bd4ad89798e4bd985b5d6e504b54d89178217d0fae31097e137e1022064702942a84873e35cd74fd55f24fc4a96e1556580b7f7d590e2f1f5a16495c4012102b8bb24796c37e0a820fe59235fd2feae11deb98c4579b3211d745b1221c075bcfffffffff3d3163aca6d7abefc38dee9ee4a7f7d3574a1e74483218f418b67880854ce70000000006a47304402200ae720b0c1741ab20af294be6347a0250ad63767390d76becbdead70e35fec500220687b989b3812b69961514c69fb0af0b732d71b02bb23836b4877ee8212ac85ce012102b8bb24796c37e0a820fe59235fd2feae11deb98c4579b3211d745b1221c075bcffffffffb699e69b6cd41aeb7aee11e72425d4869b56e0b7fd843d9bb58ea6aed44c68db000000006b483045022100dec2dd3a4d16b8f44f8f5dd9c466a5478182dc74af5c18ed507439a4768e978c0220034f85882efd5e29de98b689abe0afc610bd052b9dd78f464dbd5ab6f067117e012102b8bb24796c37e0a820fe59235fd2feae11deb98c4579b3211d745b1221c075bcffffffff0294280100000000001976a9147ef4846982dcdd4b91a8803e02492543993b759988ac0fef2400000000001976a914a7e10f5f55234ab790a17cf471a2109f4fc3ac4d88ac00000000", "vin": [{"sequence": 4294967295, "scriptSig": {"hex": "48304502210090236be0574bd4ad89798e4bd985b5d6e504b54d89178217d0fae31097e137e1022064702942a84873e35cd74fd55f24fc4a96e1556580b7f7d590e2f1f5a16495c4012102b8bb24796c37e0a820fe59235fd2feae11deb98c4579b3211d745b1221c075bc", "asm": "304502210090236be0574bd4ad89798e4bd985b5d6e504b54d89178217d0fae31097e137e1022064702942a84873e35cd74fd55f24fc4a96e1556580b7f7d590e2f1f5a16495c4[ALL] 02b8bb24796c37e0a820fe59235fd2feae11deb98c4579b3211d745b1221c075bc"}, "vout": 1, "txid": "243296a8ac0fc305131c66cf94c6f1c8484c5ee5c84585a910643e3a539b1de9"}, {"sequence": 4294967295, "scriptSig": {"hex": "47304402200ae720b0c1741ab20af294be6347a0250ad63767390d76becbdead70e35fec500220687b989b3812b69961514c69fb0af0b732d71b02bb23836b4877ee8212ac85ce012102b8bb24796c37e0a820fe59235fd2feae11deb98c4579b3211d745b1221c075bc", "asm": "304402200ae720b0c1741ab20af294be6347a0250ad63767390d76becbdead70e35fec500220687b989b3812b69961514c69fb0af0b732d71b02bb23836b4877ee8212ac85ce[ALL] 02b8bb24796c37e0a820fe59235fd2feae11deb98c4579b3211d745b1221c075bc"}, "vout": 0, "txid": "70ce540888678b418f218344e7a174357d7f4aeee9de38fcbe7a6dca3a16d3f3"}, {"sequence": 4294967295, "scriptSig": {"hex": "483045022100dec2dd3a4d16b8f44f8f5dd9c466a5478182dc74af5c18ed507439a4768e978c0220034f85882efd5e29de98b689abe0afc610bd052b9dd78f464dbd5ab6f067117e012102b8bb24796c37e0a820fe59235fd2feae11deb98c4579b3211d745b1221c075bc", "asm": "3045022100dec2dd3a4d16b8f44f8f5dd9c466a5478182dc74af5c18ed507439a4768e978c0220034f85882efd5e29de98b689abe0afc610bd052b9dd78f464dbd5ab6f067117e[ALL] 02b8bb24796c37e0a820fe59235fd2feae11deb98c4579b3211d745b1221c075bc"}, "vout": 0, "txid": "db684cd4aea68eb59b3d84fdb7e0569b86d42524e711ee7aeb1ad46c9be699b6"}], "txid": "5ac72d0c1b000be1336f6ff186faaa3bd2f8e2a578f3af060d38b3257e51c7e2", "blocktime": 1537870928, "version": 1, "confirmations": 11514, "time": 1537870928, "locktime": 0, "vsize": 521, "size": 521}