{"hash": "5ac94edceb267ef01ac20402d342966efa59915740dc2abf24a7781f9e908c2e", "blockhash": "000000000000000000022b45ed06c6f4ccd3cf7fb5ba4856ebd2e58215665228", "vout": [{"scriptPubKey": {"reqSigs": 1, "hex": "76a914acff1cf4370b7277eebabf3d0978df81431af2c688ac", "addresses": ["1GmiqZhrfseEzDa5pXa9jM4TUVFNVvkDsY"], "asm": "OP_DUP OP_HASH160 acff1cf4370b7277eebabf3d0978df81431af2c6 OP_EQUALVERIFY OP_CHECKSIG", "type": "pubkeyhash"}, "value": 0.00021549, "n": 0}, {"scriptPubKey": {"reqSigs": 1, "hex": "a914b438eb97e47849e385a65d958dc14889d2dbd59687", "addresses": ["3J7wjxsNPktzcLeabQwsxtdoCEKqYTbmnT"], "asm": "OP_HASH160 b438eb97e47849e385a65d958dc14889d2dbd596 OP_EQUAL", "type": "scripthash"}, "value": 0.00187, "n": 1}], "hex": "010000000258fad8aabc6486e547931538b3e7149191bf267c4952f1e56fe25a8d5058364e000000006a47304402205ea19fa2beaa07997d0465645d5785c58cfc2f4d9847fbeaf775a4844f02d17a02206acf0add328c433f8d549e5d4399655cebb0d7a9ca67eb3b4e4ce7c9db2f46d2012103f35b958997eba4a2281f9e89eacf19bb0eb93ded47996b3799b2c1a124b78a41ffffffffa4598533a56125f5c65c340a400e4a9f79bf82c5420e7aaa358572858e7be09c000000006a47304402204986e9848189fd2a66a7759379a3d13ada164d3d7be4ab285c49a24d92d0b9af0220183d2bcf8294d0be9c0169d082011553b1dac910e5c408cfc5d676bf6bd19b9b012102202f7326504eb4236f33327e8d05c207723bd13d4bb224b4a536ca2e581e89f0ffffffff022d540000000000001976a914acff1cf4370b7277eebabf3d0978df81431af2c688ac78da02000000000017a914b438eb97e47849e385a65d958dc14889d2dbd5968700000000", "vin": [{"sequence": 4294967295, "scriptSig": {"hex": "47304402205ea19fa2beaa07997d0465645d5785c58cfc2f4d9847fbeaf775a4844f02d17a02206acf0add328c433f8d549e5d4399655cebb0d7a9ca67eb3b4e4ce7c9db2f46d2012103f35b958997eba4a2281f9e89eacf19bb0eb93ded47996b3799b2c1a124b78a41", "asm": "304402205ea19fa2beaa07997d0465645d5785c58cfc2f4d9847fbeaf775a4844f02d17a02206acf0add328c433f8d549e5d4399655cebb0d7a9ca67eb3b4e4ce7c9db2f46d2[ALL] 03f35b958997eba4a2281f9e89eacf19bb0eb93ded47996b3799b2c1a124b78a41"}, "vout": 0, "txid": "4e3658508d5ae26fe5f152497c26bf919114e7b338159347e58664bcaad8fa58"}, {"sequence": 4294967295, "scriptSig": {"hex": "47304402204986e9848189fd2a66a7759379a3d13ada164d3d7be4ab285c49a24d92d0b9af0220183d2bcf8294d0be9c0169d082011553b1dac910e5c408cfc5d676bf6bd19b9b012102202f7326504eb4236f33327e8d05c207723bd13d4bb224b4a536ca2e581e89f0", "asm": "304402204986e9848189fd2a66a7759379a3d13ada164d3d7be4ab285c49a24d92d0b9af0220183d2bcf8294d0be9c0169d082011553b1dac910e5c408cfc5d676bf6bd19b9b[ALL] 02202f7326504eb4236f33327e8d05c207723bd13d4bb224b4a536ca2e581e89f0"}, "vout": 0, "txid": "9ce07b8e85728535aa7a0e42c582bf799f4a0e400a345cc6f52561a5338559a4"}], "txid": "5ac94edceb267ef01ac20402d342966efa59915740dc2abf24a7781f9e908c2e", "blocktime": 1537869901, "version": 1, "confirmations": 11522, "time": 1537869901, "locktime": 0, "vsize": 370, "size": 370}