{"hash": "a4b64f98c08589289ca6545c9310fd89e80e3a723cc32011118b99a12eb03614", "blockhash": "0000000000000000001e0dab787dd257d1dbfcb92a98c2207d5e1078be1f4165", "vout": [{"scriptPubKey": {"reqSigs": 1, "hex": "a9142ee549560fc788639c20ac6ea46bed2c4eae799187", "addresses": ["35xygUHAy8stCKDr9qnUmjbbuKWjCL7SQx"], "asm": "OP_HASH160 2ee549560fc788639c20ac6ea46bed2c4eae7991 OP_EQUAL", "type": "scripthash"}, "value": 0.00999802, "n": 0}, {"scriptPubKey": {"reqSigs": 1, "hex": "76a9140a3195c50a139c1268b517078c4818eb7c3cee7288ac", "addresses": ["1vuA9XxA95fff3zonS6wemPTWBvQ16vN9"], "asm": "OP_DUP OP_HASH160 0a3195c50a139c1268b517078c4818eb7c3cee72 OP_EQUALVERIFY OP_CHECKSIG", "type": "pubkeyhash"}, "value": 0.0027677, "n": 1}], "hex": "020000000001027f4879c30486cef99dfad64acafb903a4378e9e336fce44f787128027836f1280000000017160014477fd40783330a62b842226cdefce77faae6d987feffffff9759338cd305638b8dd3d208b257acb00037ed433aebef4057a24f1973b4d3960000000017160014acbff448be05bf925c5467898cc905e4c2b97783feffffff027a410f000000000017a9142ee549560fc788639c20ac6ea46bed2c4eae79918722390400000000001976a9140a3195c50a139c1268b517078c4818eb7c3cee7288ac024730440220154bbcd3d0eb626f1f581831e37ebc2b308dcb489aae537bba9a7c448b26e73b0220220298ed52e5e238c66ba66ce85d79b343613405d07bfca9e354ed3ba12fe50d012102b5f0d83e9709f8d9332178218a59a412b626be945dc66798d01bc45bdde3b7ef0247304402206dce3fb472883ab85284c181d2670a9db5352eda4ca6d91f50549755e5aaec46022030a8fef16c66eecc637d8f8b7395c7d3e0d1fe5cb0763bcff5f8635bdc23fbfe012103b95d9eadcd8480cc27f41125eabf3873a35bc53a8a9d1ab7f3d86f8477c1b7b612490800", "vin": [{"txinwitness": ["30440220154bbcd3d0eb626f1f581831e37ebc2b308dcb489aae537bba9a7c448b26e73b0220220298ed52e5e238c66ba66ce85d79b343613405d07bfca9e354ed3ba12fe50d01", "02b5f0d83e9709f8d9332178218a59a412b626be945dc66798d01bc45bdde3b7ef"], "sequence": 4294967294, "scriptSig": {"hex": "160014477fd40783330a62b842226cdefce77faae6d987", "asm": "0014477fd40783330a62b842226cdefce77faae6d987"}, "vout": 0, "txid": "28f13678022871784fe4fc36e3e978433a90fbca4ad6fa9df9ce8604c379487f"}, {"txinwitness": ["304402206dce3fb472883ab85284c181d2670a9db5352eda4ca6d91f50549755e5aaec46022030a8fef16c66eecc637d8f8b7395c7d3e0d1fe5cb0763bcff5f8635bdc23fbfe01", "03b95d9eadcd8480cc27f41125eabf3873a35bc53a8a9d1ab7f3d86f8477c1b7b6"], "sequence": 4294967294, "scriptSig": {"hex": "160014acbff448be05bf925c5467898cc905e4c2b97783", "asm": "0014acbff448be05bf925c5467898cc905e4c2b97783"}, "vout": 0, "txid": "96d3b473194fa25740efeb3a43ed3700b0ac57b208d2d38d8b6305d38c335997"}], "txid": "5accc6a6d2671cabf2a53ec290fe8c31f0f7837a685e993a0be3799752a9a316", "blocktime": 1537872475, "version": 2, "confirmations": 11487, "time": 1537872475, "locktime": 542994, "vsize": 258, "size": 420}