{"hash": "5acc59a41a34c24ee38f6c5a5c32299d779fed77abe46278f713e84c2edb0239", "blockhash": "0000000000000000001e0dab787dd257d1dbfcb92a98c2207d5e1078be1f4165", "vout": [{"scriptPubKey": {"reqSigs": 1, "hex": "76a914deaeabe483b6d803566997f51c5fcd6569adb2d988ac", "addresses": ["1MJSFyNKKYMBzDqaCax1y9CmMLdPUmFHfs"], "asm": "OP_DUP OP_HASH160 deaeabe483b6d803566997f51c5fcd6569adb2d9 OP_EQUALVERIFY OP_CHECKSIG", "type": "pubkeyhash"}, "value": 0.002321, "n": 0}, {"scriptPubKey": {"reqSigs": 1, "hex": "76a9145fd3563936017d992c7bb75170f504c8f0bbced188ac", "addresses": ["19jgNAT2KSRC6uRM9v73R4NsiUXjQ68NRF"], "asm": "OP_DUP OP_HASH160 5fd3563936017d992c7bb75170f504c8f0bbced1 OP_EQUALVERIFY OP_CHECKSIG", "type": "pubkeyhash"}, "value": 0.01980226, "n": 1}], "hex": "0100000001a02e6ce28ff90de5be12bc68c7c471d2bb186f0a6d817b3dccdb3a93a780736b040000006a47304402203be028d9fbf854eb6ae6c8f6c34a73371cba935bc02082f6c068e8cde2073a75022030fb9306b368405fc42e7feff92038c13ee368277cc872f39c2321a7a9a71bc7012102a00cc02cc526566bd2df2c748c2b2afc3f7f6aa9a00d9a8528d8312b14b92ad4ffffffff02a48a0300000000001976a914deaeabe483b6d803566997f51c5fcd6569adb2d988ac42371e00000000001976a9145fd3563936017d992c7bb75170f504c8f0bbced188ac00000000", "vin": [{"sequence": 4294967295, "scriptSig": {"hex": "47304402203be028d9fbf854eb6ae6c8f6c34a73371cba935bc02082f6c068e8cde2073a75022030fb9306b368405fc42e7feff92038c13ee368277cc872f39c2321a7a9a71bc7012102a00cc02cc526566bd2df2c748c2b2afc3f7f6aa9a00d9a8528d8312b14b92ad4", "asm": "304402203be028d9fbf854eb6ae6c8f6c34a73371cba935bc02082f6c068e8cde2073a75022030fb9306b368405fc42e7feff92038c13ee368277cc872f39c2321a7a9a71bc7[ALL] 02a00cc02cc526566bd2df2c748c2b2afc3f7f6aa9a00d9a8528d8312b14b92ad4"}, "vout": 4, "txid": "6b7380a7933adbcc3d7b816d0a6f18bbd271c4c768bc12bee50df98fe26c2ea0"}], "txid": "5acc59a41a34c24ee38f6c5a5c32299d779fed77abe46278f713e84c2edb0239", "blocktime": 1537872475, "version": 1, "confirmations": 11486, "time": 1537872475, "locktime": 0, "vsize": 225, "size": 225}