{"hash": "5acdbb1779e3d1948039da7d1c4105c09d3a3ca73c067f44961fa4bbdd86e258", "blockhash": "0000000000000000001f76057863aec43deb6fa401d9628bb513d65a8098bfab", "vout": [{"scriptPubKey": {"reqSigs": 1, "hex": "76a914814d096f85d161317cc7654b0853cb70ddb9403788ac", "addresses": ["1CngTMvucAQnQs6NGkBZZgcPHW2HyiXgQd"], "asm": "OP_DUP OP_HASH160 814d096f85d161317cc7654b0853cb70ddb94037 OP_EQUALVERIFY OP_CHECKSIG", "type": "pubkeyhash"}, "value": 0.0297, "n": 0}, {"scriptPubKey": {"reqSigs": 1, "hex": "a9140827a39f8c933d7b31053af76db487bbc9a7376687", "addresses": ["32S8pFkF87krUQ3p9VGgbN5A4qcY24maFj"], "asm": "OP_HASH160 0827a39f8c933d7b31053af76db487bbc9a73766 OP_EQUAL", "type": "scripthash"}, "value": 0.0002, "n": 1}], "hex": "01000000016e8eaec0f9adac2ad0ff925f823ea6978efa920adcef505a8812b8da7b00c2b401000000fdfe000048304502210084328f9b7fc1573b1c5b6bb8a412b556597fe50d214425f9a91b9d7df3d57b8302200689eb5b72e8ed0533336c6d6a5d990b83e31bfd7c097c47f791fad0aaa4b4880148304502210091186985073c326a53c37bb4442a8dcfa534683d03419620501d68ed3d14da720220383b27f6f8c8d21e58971a15e5b6a1af1fa37d49959ac7cf838b4a96b16f2ab2014c69522102ba2180885a911438b04f59c653f8c7b1545a8470355318e6556efd37fd35a80d210337deeb9fce8a0552d40c51fd3690d63cdea5be9ab3db5f41df997fc3764afa432103eba0a423298ad97e19e923a01e1f33e297c577245ffd00c4fd9c9e141ca83bc653aeffffffff0290512d00000000001976a914814d096f85d161317cc7654b0853cb70ddb9403788ac204e00000000000017a9140827a39f8c933d7b31053af76db487bbc9a737668700000000", "vin": [{"sequence": 4294967295, "scriptSig": {"hex": "0048304502210084328f9b7fc1573b1c5b6bb8a412b556597fe50d214425f9a91b9d7df3d57b8302200689eb5b72e8ed0533336c6d6a5d990b83e31bfd7c097c47f791fad0aaa4b4880148304502210091186985073c326a53c37bb4442a8dcfa534683d03419620501d68ed3d14da720220383b27f6f8c8d21e58971a15e5b6a1af1fa37d49959ac7cf838b4a96b16f2ab2014c69522102ba2180885a911438b04f59c653f8c7b1545a8470355318e6556efd37fd35a80d210337deeb9fce8a0552d40c51fd3690d63cdea5be9ab3db5f41df997fc3764afa432103eba0a423298ad97e19e923a01e1f33e297c577245ffd00c4fd9c9e141ca83bc653ae", "asm": "0 304502210084328f9b7fc1573b1c5b6bb8a412b556597fe50d214425f9a91b9d7df3d57b8302200689eb5b72e8ed0533336c6d6a5d990b83e31bfd7c097c47f791fad0aaa4b488[ALL] 304502210091186985073c326a53c37bb4442a8dcfa534683d03419620501d68ed3d14da720220383b27f6f8c8d21e58971a15e5b6a1af1fa37d49959ac7cf838b4a96b16f2ab2[ALL] 522102ba2180885a911438b04f59c653f8c7b1545a8470355318e6556efd37fd35a80d210337deeb9fce8a0552d40c51fd3690d63cdea5be9ab3db5f41df997fc3764afa432103eba0a423298ad97e19e923a01e1f33e297c577245ffd00c4fd9c9e141ca83bc653ae"}, "vout": 1, "txid": "b4c2007bdab812885a50efdc0a92fa8e97a63e825f92ffd02aacadf9c0ae8e6e"}], "txid": "5acdbb1779e3d1948039da7d1c4105c09d3a3ca73c067f44961fa4bbdd86e258", "blocktime": 1537873891, "version": 1, "confirmations": 11474, "time": 1537873891, "locktime": 0, "vsize": 373, "size": 373}