{"hash": "5ad0b18b8c663c07d04a23b414be3a4f181e9686d748862cc4cb31110d26964d", "blockhash": "0000000000000000001e0dab787dd257d1dbfcb92a98c2207d5e1078be1f4165", "vout": [{"scriptPubKey": {"reqSigs": 1, "hex": "76a914a25dec4d0011064ef106a983c39c7a540699f22088ac", "addresses": ["1FoWyxwPXuj4C6abqwhjDWdz6D4PZgYRjA"], "asm": "OP_DUP OP_HASH160 a25dec4d0011064ef106a983c39c7a540699f220 OP_EQUALVERIFY OP_CHECKSIG", "type": "pubkeyhash"}, "value": 0.01980807, "n": 0}, {"scriptPubKey": {"type": "nulldata", "hex": "6a146f6d6e69000000000000001f000000e8d4a51000", "asm": "OP_RETURN 6f6d6e69000000000000001f000000e8d4a51000"}, "value": 0.0, "n": 1}, {"scriptPubKey": {"reqSigs": 1, "hex": "76a9140d588c978760459b6520464f7b71fe4022201d9388ac", "addresses": ["12DZrzxEpad8uP413qWyesNt26hSpbJnxk"], "asm": "OP_DUP OP_HASH160 0d588c978760459b6520464f7b71fe4022201d93 OP_EQUALVERIFY OP_CHECKSIG", "type": "pubkeyhash"}, "value": 5.46e-06, "n": 2}], "hex": "0100000001293560a3c15756e739c2dab83c5102c719cc9756c4afb1cb8d9864f53ef4e01f000000006b483045022100accc5f307cae0a61b4bc8d3389f7e4a13efcc4bf85fbd98e4f92c3526369a20b022067b2a468df7a6b7240593903cb5e965d92cb4e96dedf53f441a9a669c755ccdf012103da5bac7b36d5aa38f531c6b9601e21bb598a4b6716ebed38b009a55dabde9440feffffff0387391e00000000001976a914a25dec4d0011064ef106a983c39c7a540699f22088ac0000000000000000166a146f6d6e69000000000000001f000000e8d4a5100022020000000000001976a9140d588c978760459b6520464f7b71fe4022201d9388acea480800", "vin": [{"sequence": 4294967294, "scriptSig": {"hex": "483045022100accc5f307cae0a61b4bc8d3389f7e4a13efcc4bf85fbd98e4f92c3526369a20b022067b2a468df7a6b7240593903cb5e965d92cb4e96dedf53f441a9a669c755ccdf012103da5bac7b36d5aa38f531c6b9601e21bb598a4b6716ebed38b009a55dabde9440", "asm": "3045022100accc5f307cae0a61b4bc8d3389f7e4a13efcc4bf85fbd98e4f92c3526369a20b022067b2a468df7a6b7240593903cb5e965d92cb4e96dedf53f441a9a669c755ccdf[ALL] 03da5bac7b36d5aa38f531c6b9601e21bb598a4b6716ebed38b009a55dabde9440"}, "vout": 0, "txid": "1fe0f43ef564988dcbb1afc45697cc19c702513cb8dac239e75657c1a3603529"}], "txid": "5ad0b18b8c663c07d04a23b414be3a4f181e9686d748862cc4cb31110d26964d", "blocktime": 1537872475, "version": 1, "confirmations": 11486, "time": 1537872475, "locktime": 542954, "vsize": 257, "size": 257}