{"hash": "4b4cbb6a3a4d0350186077566325ed6dc6d1f61f059aecabe3e556aa96e7934d", "blockhash": "00000000000000000018f53835495a110e01622372bf6ae95dc86f2b0ab887b0", "vout": [{"scriptPubKey": {"reqSigs": 1, "hex": "a914e6f1ea796aa1f4fdd3c88482b60dee66c15bcefc87", "addresses": ["3Nk99H2nrvQEV45Q7uT8tUq6rBnZuiKQ7R"], "asm": "OP_HASH160 e6f1ea796aa1f4fdd3c88482b60dee66c15bcefc OP_EQUAL", "type": "scripthash"}, "value": 0.27967684, "n": 0}, {"scriptPubKey": {"reqSigs": 1, "hex": "a9142e3264b441031015508ddca1c10ffe0fda99ce5e87", "addresses": ["35uHNm6UGAGVXKScyUrkR4hxPkExqokwes"], "asm": "OP_HASH160 2e3264b441031015508ddca1c10ffe0fda99ce5e OP_EQUAL", "type": "scripthash"}, "value": 0.0297, "n": 1}], "hex": "0200000000010196389c9974a8210907ce194553c134e28766c0299642d7b13441f4521bb79d2801000000171600142a63847b2226f435fc7ea67d374bcfda45424c6cfeffffff02c4c0aa010000000017a914e6f1ea796aa1f4fdd3c88482b60dee66c15bcefc8790512d000000000017a9142e3264b441031015508ddca1c10ffe0fda99ce5e8702483045022100801e8750168fe8b9851b7b03540921ebc5e3ba8cad60ca2451b062cef75f0c710220123d582457a4da3b24f044301d55a3ff9f6691a87d4a3fc86aaa03b17afa6e09012102da875717f00b5feb437e2148284527f9cc69cff636c8121247a2278d67b94bd40e490800", "vin": [{"txinwitness": ["3045022100801e8750168fe8b9851b7b03540921ebc5e3ba8cad60ca2451b062cef75f0c710220123d582457a4da3b24f044301d55a3ff9f6691a87d4a3fc86aaa03b17afa6e0901", "02da875717f00b5feb437e2148284527f9cc69cff636c8121247a2278d67b94bd4"], "sequence": 4294967294, "scriptSig": {"hex": "1600142a63847b2226f435fc7ea67d374bcfda45424c6c", "asm": "00142a63847b2226f435fc7ea67d374bcfda45424c6c"}, "vout": 1, "txid": "289db71b52f44134b1d7429629c06687e234c1534519ce070921a874999c3896"}], "txid": "5ad13a39247940c214498059bca4392fe43c9f578d76d06c7e8014e5cb09895e", "blocktime": 1537870928, "version": 2, "confirmations": 11514, "time": 1537870928, "locktime": 542990, "vsize": 166, "size": 248}