{"hash": "5ad246b01cbff997ea5b6c4de7b8960e383a11afc9e29f6f062c71fc7abf9003", "blockhash": "00000000000000000017f5eb5941039fbcee6240d03bc1f2f8e35350df66a1d8", "vout": [{"scriptPubKey": {"reqSigs": 1, "hex": "76a91423120fbd5806246124fdbde16c0be87f8ffdbac588ac", "addresses": ["14CSHeaXbTJx9KcxnAsDa7Do6EBQHAhaJR"], "asm": "OP_DUP OP_HASH160 23120fbd5806246124fdbde16c0be87f8ffdbac5 OP_EQUALVERIFY OP_CHECKSIG", "type": "pubkeyhash"}, "value": 0.0063682, "n": 0}, {"scriptPubKey": {"type": "nulldata", "hex": "6a4c50000077f20001596859dfde0f563f482be460d19ed074892d00f8e87af8e8e963c7cfd5b93b2237ed0cfe80dc76cc27ea3ab239d65baa1846061386fb9eb5023f1d100759d4ba30d2c37bb011d97e02cf", "asm": "OP_RETURN 000077f20001596859dfde0f563f482be460d19ed074892d00f8e87af8e8e963c7cfd5b93b2237ed0cfe80dc76cc27ea3ab239d65baa1846061386fb9eb5023f1d100759d4ba30d2c37bb011d97e02cf"}, "value": 0.0, "n": 1}], "hex": "01000000013ef9c6b9de1c871573e10b607a0804923bdc719c2d97de21068fd3b5a011fd5b000000006a473044022005fabbef6c46440a53e207d7c86a8e9e7526571c3263b5d1f9d8535d55d7e5cc0220233d82acaa6fba70a1236e64ccafaa02faff88ac4d5f763fb9ecab98776d9e350121026d45e27abee0cee48c2a1ec2d9e17e0dfc8e515485836de347a251efc7db0780ffffffff0294b70900000000001976a91423120fbd5806246124fdbde16c0be87f8ffdbac588ac0000000000000000536a4c50000077f20001596859dfde0f563f482be460d19ed074892d00f8e87af8e8e963c7cfd5b93b2237ed0cfe80dc76cc27ea3ab239d65baa1846061386fb9eb5023f1d100759d4ba30d2c37bb011d97e02cf00000000", "vin": [{"sequence": 4294967295, "scriptSig": {"hex": "473044022005fabbef6c46440a53e207d7c86a8e9e7526571c3263b5d1f9d8535d55d7e5cc0220233d82acaa6fba70a1236e64ccafaa02faff88ac4d5f763fb9ecab98776d9e350121026d45e27abee0cee48c2a1ec2d9e17e0dfc8e515485836de347a251efc7db0780", "asm": "3044022005fabbef6c46440a53e207d7c86a8e9e7526571c3263b5d1f9d8535d55d7e5cc0220233d82acaa6fba70a1236e64ccafaa02faff88ac4d5f763fb9ecab98776d9e35[ALL] 026d45e27abee0cee48c2a1ec2d9e17e0dfc8e515485836de347a251efc7db0780"}, "vout": 0, "txid": "5bfd11a0b5d38f0621de972d9c71dc3b9204087a600be17315871cdeb9c6f93e"}], "txid": "5ad246b01cbff997ea5b6c4de7b8960e383a11afc9e29f6f062c71fc7abf9003", "blocktime": 1537874412, "version": 1, "confirmations": 11467, "time": 1537874412, "locktime": 0, "vsize": 283, "size": 283}