{"hash": "3887a733cbd11b3fdb8ead987c4311a80a54284739051038e523c775a57f4d75", "blockhash": "0000000000000000001f76057863aec43deb6fa401d9628bb513d65a8098bfab", "vout": [{"scriptPubKey": {"reqSigs": 1, "hex": "0014dbe1a7cda3fcaef7cefc003adfbbbb93abedb61e", "addresses": ["bc1qm0s60ndrljh00nhuqqadlwamjw47mds7lnj7e7"], "asm": "0 dbe1a7cda3fcaef7cefc003adfbbbb93abedb61e", "type": "witness_v0_keyhash"}, "value": 0.00016856, "n": 0}, {"scriptPubKey": {"reqSigs": 1, "hex": "a914c8f8e6aa5422e833a323bcf7139b46fda7037d2c87", "addresses": ["3L1fErfKzByfVBfXXA76eQNqKm4SRkgbpT"], "asm": "OP_HASH160 c8f8e6aa5422e833a323bcf7139b46fda7037d2c OP_EQUAL", "type": "scripthash"}, "value": 0.00478948, "n": 1}], "hex": "01000000000101b3ab12c41315e865d449b50e9c61ce7cf3b52ca21f0a8bda53691850d0d0ad120100000000ffffffff02d841000000000000160014dbe1a7cda3fcaef7cefc003adfbbbb93abedb61ee44e07000000000017a914c8f8e6aa5422e833a323bcf7139b46fda7037d2c8702473044022068cc46aca7c123474cc371b1f0f00cf18fd72ec702751a3c6e1ab3fe8ea5abb1022043af02fcec0d637d0ef88238224a4759017c4629fd96249f1df4f21b2546a7800121038a562f07f029b645c3c81653b7e4af71175af58c083f0f1e394b2be6c62d869000000000", "vin": [{"txinwitness": ["3044022068cc46aca7c123474cc371b1f0f00cf18fd72ec702751a3c6e1ab3fe8ea5abb1022043af02fcec0d637d0ef88238224a4759017c4629fd96249f1df4f21b2546a78001", "038a562f07f029b645c3c81653b7e4af71175af58c083f0f1e394b2be6c62d8690"], "sequence": 4294967295, "scriptSig": {"hex": "", "asm": ""}, "vout": 1, "txid": "12add0d050186953da8b0a1fa22cb5f37cce619c0eb549d465e81513c412abb3"}], "txid": "5ad367b2a83cb01e1717837399d32c97a9d0853ff2664b607fdf96d1e7313509", "blocktime": 1537873891, "version": 1, "confirmations": 11478, "time": 1537873891, "locktime": 0, "vsize": 142, "size": 223}