{"hash": "5ada56724557db725585daa546041f5def16ff8dbf6e34f3a9292bfe7e29ba59", "blockhash": "0000000000000000001f0ddff1eddb255c1121bcd4da4f1bc9a0da00cae72433", "vout": [{"scriptPubKey": {"reqSigs": 1, "hex": "76a9147f9e80239eb6de869bdaf67f06102469bb7d57fb88ac", "addresses": ["1CdnhB3xpw7oJS7VcYedntKApoPZCwSE8K"], "asm": "OP_DUP OP_HASH160 7f9e80239eb6de869bdaf67f06102469bb7d57fb OP_EQUALVERIFY OP_CHECKSIG", "type": "pubkeyhash"}, "value": 0.0019687, "n": 0}, {"scriptPubKey": {"reqSigs": 1, "hex": "76a914cca89f35bb24ccc5655ef00006e338f5cfcca61088ac", "addresses": ["1Kf8rBz1T6Wh3bCJNzCymEDPzN8oRgn9p9"], "asm": "OP_DUP OP_HASH160 cca89f35bb24ccc5655ef00006e338f5cfcca610 OP_EQUALVERIFY OP_CHECKSIG", "type": "pubkeyhash"}, "value": 0.00011765, "n": 1}], "hex": "0100000002803b5618c4ad00ee421b0c1fcdb2a3df3749f21b2a49de54f3964f6b4107f803000000006b483045022100a7aa530faf44bff861881fd2b59a0540e85822836d5d809b7447952c64ee044a02207a334fbd1590e9eee91e896214fae29b7338244cbcf46ef21ea01eae2cdeae0c012102042f82669e01461f16941d3fa4c519dec301a984baa8d02270be1901c1415315ffffffff0c05a19d0d448da976b80537aa2de8606789d61c9af6e98ef0ab55174763b126000000006a47304402207b5ebc62e6e59960feb5d7ba6922e9dedf2b887ebb38fad8e948b5496692bf0402202921f629d64fbe2b952563c823071aaa835c3ef37e826d27a5c260d3d872647f012103f266a38fbcb6531b1d8012718987a0474a0a029ef775ea4fff397db417aa5226ffffffff0206010300000000001976a9147f9e80239eb6de869bdaf67f06102469bb7d57fb88acf52d0000000000001976a914cca89f35bb24ccc5655ef00006e338f5cfcca61088ac00000000", "vin": [{"sequence": 4294967295, "scriptSig": {"hex": "483045022100a7aa530faf44bff861881fd2b59a0540e85822836d5d809b7447952c64ee044a02207a334fbd1590e9eee91e896214fae29b7338244cbcf46ef21ea01eae2cdeae0c012102042f82669e01461f16941d3fa4c519dec301a984baa8d02270be1901c1415315", "asm": "3045022100a7aa530faf44bff861881fd2b59a0540e85822836d5d809b7447952c64ee044a02207a334fbd1590e9eee91e896214fae29b7338244cbcf46ef21ea01eae2cdeae0c[ALL] 02042f82669e01461f16941d3fa4c519dec301a984baa8d02270be1901c1415315"}, "vout": 0, "txid": "03f807416b4f96f354de492a1bf24937dfa3b2cd1f0c1b42ee00adc418563b80"}, {"sequence": 4294967295, "scriptSig": {"hex": "47304402207b5ebc62e6e59960feb5d7ba6922e9dedf2b887ebb38fad8e948b5496692bf0402202921f629d64fbe2b952563c823071aaa835c3ef37e826d27a5c260d3d872647f012103f266a38fbcb6531b1d8012718987a0474a0a029ef775ea4fff397db417aa5226", "asm": "304402207b5ebc62e6e59960feb5d7ba6922e9dedf2b887ebb38fad8e948b5496692bf0402202921f629d64fbe2b952563c823071aaa835c3ef37e826d27a5c260d3d872647f[ALL] 03f266a38fbcb6531b1d8012718987a0474a0a029ef775ea4fff397db417aa5226"}, "vout": 0, "txid": "26b163471755abf08ee9f69a1cd6896760e82daa3705b876a98d440d9da1050c"}], "txid": "5ada56724557db725585daa546041f5def16ff8dbf6e34f3a9292bfe7e29ba59", "blocktime": 1537872018, "version": 1, "confirmations": 11489, "time": 1537872018, "locktime": 0, "vsize": 373, "size": 373}