{"hash": "dedb5ecd5312e85cbed7f2d7bf09c21da8d74c316e31da2f505dfda957281d78", "blockhash": "0000000000000000001cda96e906b7601b7a6fb1a3b62bca570a9e5d8f4b3de1", "vout": [{"scriptPubKey": {"reqSigs": 1, "hex": "76a9141a875f5e8a6be4c7bc961170d0257dd1c91afb8888ac", "addresses": ["13RGjqWMDPfx5VC5JTz1bFogbzyEwqfkmM"], "asm": "OP_DUP OP_HASH160 1a875f5e8a6be4c7bc961170d0257dd1c91afb88 OP_EQUALVERIFY OP_CHECKSIG", "type": "pubkeyhash"}, "value": 0.0162, "n": 0}, {"scriptPubKey": {"reqSigs": 1, "hex": "a9144cb6ec03551c57855403f69e20086e34c5845d4987", "addresses": ["38geQm6ZBeksRXMEP9ZUF7vMDiDsvd2yPe"], "asm": "OP_HASH160 4cb6ec03551c57855403f69e20086e34c5845d49 OP_EQUAL", "type": "scripthash"}, "value": 0.0099348, "n": 1}], "hex": "0200000000010510cc6406f21dcec964d4d61ce058c09113a13637a3afdc085a120622382b271601000000171600142359cfd07025709abc5261f80edd7bdd3e528d67feffffff18a00ecaf660f17e7ce1198bd079e26e24f563224852937c8d3e5f41a7df9dbd000000001716001487cf9b72f580c8b0309978075d261a48d3983ab8feffffffb3f6c2f8012ad754a210fbbfce44f34b4e5468123e98858e3d7b721f05bc47a8090000001716001433b2e6eaffeec89f2d3468e72a815ee319de8096feffffffb3f6c2f8012ad754a210fbbfce44f34b4e5468123e98858e3d7b721f05bc47a80d00000017160014fab8c02c92cd4a348506d23175cc8441ab130374feffffffd241cbb4dcd3e55ec9f78c120d192b7da2caae4e622a8a9dc26f3379ed9682d7050000001716001433b2e6eaffeec89f2d3468e72a815ee319de8096feffffff0220b81800000000001976a9141a875f5e8a6be4c7bc961170d0257dd1c91afb8888acc8280f000000000017a9144cb6ec03551c57855403f69e20086e34c5845d498702483045022100f2ac8c8ca927f913211d470780c1fdda24addb3f501e0be25e0dd582aec8e8e90220325037b25444181e74ab563d3433a469ec97c8a3562e559a2ab413dc295bb9b1012103e941dc58df577ff3643ada0070ec97f4035ff2d4f7990cbc29f1c384fc28c83c0247304402200b3fd339c2ec190177f0b54c1942c9211427b8b70c40ea8e67caca09bd2880a002201e0426f502a3be8aef8eb856386aa8aeea10a90baadf06d5d45108e86286bd94012103327a9c88abc6bfec7c3b2a94509f1266d8d6541d2edd1e402c93de0172acfd0c02473044022013efa3129af07a37779d26d2c520689447dd3f82d3d3ec457a3f37a9f997a8120220638669961d6391fc4508f438e041eb2549a93ab8612d2a01a4169bacc159b529012103daa9b4166f33d016879880cf034cc10e7ee07601066581d497d45af08cc4274b02473044022030287725905c814eb65a64237a9cc0b614140268f79d2a0530b553c7b7e65701022023eef105f0778d6c69054cc15e28fd9fad789b4cf56503a20c67cb95c04f7b44012102cf0424184814615ed03ef7af03eb01c399448fe2fd873e27bcb4bbce83f8326802483045022100f9da7c18751a4b1e1660df6d12bd2d85e2280e797e822f2bcaff3e5a4f348bfa022017a5a6ca34d16cc637dc3cbd30959869130f08fd8e5cfde12752291193e15018012103daa9b4166f33d016879880cf034cc10e7ee07601066581d497d45af08cc4274b13490800", "vin": [{"txinwitness": ["3045022100f2ac8c8ca927f913211d470780c1fdda24addb3f501e0be25e0dd582aec8e8e90220325037b25444181e74ab563d3433a469ec97c8a3562e559a2ab413dc295bb9b101", "03e941dc58df577ff3643ada0070ec97f4035ff2d4f7990cbc29f1c384fc28c83c"], "sequence": 4294967294, "scriptSig": {"hex": "1600142359cfd07025709abc5261f80edd7bdd3e528d67", "asm": "00142359cfd07025709abc5261f80edd7bdd3e528d67"}, "vout": 1, "txid": "16272b382206125a08dcafa33736a11391c058e01cd6d464c9ce1df20664cc10"}, {"txinwitness": ["304402200b3fd339c2ec190177f0b54c1942c9211427b8b70c40ea8e67caca09bd2880a002201e0426f502a3be8aef8eb856386aa8aeea10a90baadf06d5d45108e86286bd9401", "03327a9c88abc6bfec7c3b2a94509f1266d8d6541d2edd1e402c93de0172acfd0c"], "sequence": 4294967294, "scriptSig": {"hex": "16001487cf9b72f580c8b0309978075d261a48d3983ab8", "asm": "001487cf9b72f580c8b0309978075d261a48d3983ab8"}, "vout": 0, "txid": "bd9ddfa7415f3e8d7c9352482263f5246ee279d08b19e17c7ef160f6ca0ea018"}, {"txinwitness": ["3044022013efa3129af07a37779d26d2c520689447dd3f82d3d3ec457a3f37a9f997a8120220638669961d6391fc4508f438e041eb2549a93ab8612d2a01a4169bacc159b52901", "03daa9b4166f33d016879880cf034cc10e7ee07601066581d497d45af08cc4274b"], "sequence": 4294967294, "scriptSig": {"hex": "16001433b2e6eaffeec89f2d3468e72a815ee319de8096", "asm": "001433b2e6eaffeec89f2d3468e72a815ee319de8096"}, "vout": 9, "txid": "a847bc051f727b3d8e85983e1268544e4bf344cebffb10a254d72a01f8c2f6b3"}, {"txinwitness": ["3044022030287725905c814eb65a64237a9cc0b614140268f79d2a0530b553c7b7e65701022023eef105f0778d6c69054cc15e28fd9fad789b4cf56503a20c67cb95c04f7b4401", "02cf0424184814615ed03ef7af03eb01c399448fe2fd873e27bcb4bbce83f83268"], "sequence": 4294967294, "scriptSig": {"hex": "160014fab8c02c92cd4a348506d23175cc8441ab130374", "asm": "0014fab8c02c92cd4a348506d23175cc8441ab130374"}, "vout": 13, "txid": "a847bc051f727b3d8e85983e1268544e4bf344cebffb10a254d72a01f8c2f6b3"}, {"txinwitness": ["3045022100f9da7c18751a4b1e1660df6d12bd2d85e2280e797e822f2bcaff3e5a4f348bfa022017a5a6ca34d16cc637dc3cbd30959869130f08fd8e5cfde12752291193e1501801", "03daa9b4166f33d016879880cf034cc10e7ee07601066581d497d45af08cc4274b"], "sequence": 4294967294, "scriptSig": {"hex": "16001433b2e6eaffeec89f2d3468e72a815ee319de8096", "asm": "001433b2e6eaffeec89f2d3468e72a815ee319de8096"}, "vout": 5, "txid": "d78296ed79336fc29d8a2a624eaecaa27d2b190d128cf7c95ee5d3dcb4cb41d2"}], "txid": "5ada94ce922142730824a2b7a716b138fb89d9efe66b5c504b90229d53e5b499", "blocktime": 1537873282, "version": 2, "confirmations": 11481, "time": 1537873282, "locktime": 542995, "vsize": 531, "size": 935}