{"hash": "5ada0524e061262813d2b13391ee1ca65ea4f06e381b99d085a5e089eab6afd0", "blockhash": "00000000000000000024a2167bbff67b0be802c0b01cdd79e6331c2be6459f87", "vout": [{"scriptPubKey": {"type": "nulldata", "hex": "6a4c500000777d0001de4215b43db0a279af8825cebcbefa6b8351586b4e86aeaeacb577c031fc9c1e8c6132e0f3bf2d685b9279d73f765baa0a7f0614a37d269892c01d100759d4ba30d2c37bb011d97e02cf", "asm": "OP_RETURN 0000777d0001de4215b43db0a279af8825cebcbefa6b8351586b4e86aeaeacb577c031fc9c1e8c6132e0f3bf2d685b9279d73f765baa0a7f0614a37d269892c01d100759d4ba30d2c37bb011d97e02cf"}, "value": 0.0, "n": 0}, {"scriptPubKey": {"reqSigs": 1, "hex": "76a91466783291acc6a8c092ab4fecedc70c015b21ee2f88ac", "addresses": ["1ALov3CPXj6TRnixYtVbX4odvibGHhr3Jx"], "asm": "OP_DUP OP_HASH160 66783291acc6a8c092ab4fecedc70c015b21ee2f OP_EQUALVERIFY OP_CHECKSIG", "type": "pubkeyhash"}, "value": 0.0064652, "n": 1}], "hex": "0100000001ea23923c252530ebb058aec0b260d2b486f55edbdfd414f0ef36ee2066419309000000006b483045022100bc4503105323b15a769844144fa31b5eb617bf31b31874ce6fc1706b17ddfef402207a8052cb0be0ea6bb7a467781cc79fbc52b1a30ca3391c1ba4b4226b407f5c7c012102701ae7a265fa33c11bdd95add147e1f7da9e5c5d84f163631ef51f392226301dffffffff020000000000000000536a4c500000777d0001de4215b43db0a279af8825cebcbefa6b8351586b4e86aeaeacb577c031fc9c1e8c6132e0f3bf2d685b9279d73f765baa0a7f0614a37d269892c01d100759d4ba30d2c37bb011d97e02cf78dd0900000000001976a91466783291acc6a8c092ab4fecedc70c015b21ee2f88ac00000000", "vin": [{"sequence": 4294967295, "scriptSig": {"hex": "483045022100bc4503105323b15a769844144fa31b5eb617bf31b31874ce6fc1706b17ddfef402207a8052cb0be0ea6bb7a467781cc79fbc52b1a30ca3391c1ba4b4226b407f5c7c012102701ae7a265fa33c11bdd95add147e1f7da9e5c5d84f163631ef51f392226301d", "asm": "3045022100bc4503105323b15a769844144fa31b5eb617bf31b31874ce6fc1706b17ddfef402207a8052cb0be0ea6bb7a467781cc79fbc52b1a30ca3391c1ba4b4226b407f5c7c[ALL] 02701ae7a265fa33c11bdd95add147e1f7da9e5c5d84f163631ef51f392226301d"}, "vout": 0, "txid": "0993416620ee36eff014d4dfdb5ef586b4d260b2c0ae58b0eb3025253c9223ea"}], "txid": "5ada0524e061262813d2b13391ee1ca65ea4f06e381b99d085a5e089eab6afd0", "blocktime": 1537870564, "version": 1, "confirmations": 11515, "time": 1537870564, "locktime": 0, "vsize": 284, "size": 284}