{"hash": "5f0747716b31e1076456396b4b030854bd0929d5bcfd8104da9f977e6b3d900a", "blockhash": "00000000000000000024a2167bbff67b0be802c0b01cdd79e6331c2be6459f87", "vout": [{"scriptPubKey": {"reqSigs": 1, "hex": "a914069ebf8d9c989c8bbb1a3223e153b2af3a3157ba87", "addresses": ["32J29iXgSmEQsZpcqRYGothpW6DZBjtYyU"], "asm": "OP_HASH160 069ebf8d9c989c8bbb1a3223e153b2af3a3157ba OP_EQUAL", "type": "scripthash"}, "value": 0.007, "n": 0}, {"scriptPubKey": {"reqSigs": 1, "hex": "a914627aa52932456d89054bd84f86246af3b71b93a887", "addresses": ["3Afj4stdiLG9EktGrMbm252ySonnhYaz8v"], "asm": "OP_HASH160 627aa52932456d89054bd84f86246af3b71b93a8 OP_EQUAL", "type": "scripthash"}, "value": 0.50406719, "n": 1}], "hex": "010000000001019d385cc0c83b0a901d7da8f3d8f6ebbaea77ad13873227a1967db47dd635327601000000232200205fdd641234b13964b223bd85ad2a4a667ca2099df3d42a1d3b45706a8d81abf0ffffffff0260ae0a000000000017a914069ebf8d9c989c8bbb1a3223e153b2af3a3157ba873f2501030000000017a914627aa52932456d89054bd84f86246af3b71b93a887040047304402203dca06953d958118a384ddc0ce0430b04f94b06c4716a08462cf4f48bf3b16f502201f283f15cb53ab5b0fc5f77315f638427fd52c4248159bd6caad4b1cfdcfb73a0147304402203b0f61fd205fe035c7251c67c1b550ef8a313eec10eedbe54857b58ff4b01e3002207d2c2a546b8f14df45120ca68d19b98359e1d2486234ee71aead9ecff4e56c560147522103dcde3832fa56def7b4e783faad1b8af85c3cdd74a5ff4f3c7c216b1075c18da12103c70ae8ded79be1afda73b9ce5ea14a3878908ee160d66a9a717e792bb6db276952ae00000000", "vin": [{"txinwitness": ["", "304402203dca06953d958118a384ddc0ce0430b04f94b06c4716a08462cf4f48bf3b16f502201f283f15cb53ab5b0fc5f77315f638427fd52c4248159bd6caad4b1cfdcfb73a01", "304402203b0f61fd205fe035c7251c67c1b550ef8a313eec10eedbe54857b58ff4b01e3002207d2c2a546b8f14df45120ca68d19b98359e1d2486234ee71aead9ecff4e56c5601", "522103dcde3832fa56def7b4e783faad1b8af85c3cdd74a5ff4f3c7c216b1075c18da12103c70ae8ded79be1afda73b9ce5ea14a3878908ee160d66a9a717e792bb6db276952ae"], "sequence": 4294967295, "scriptSig": {"hex": "2200205fdd641234b13964b223bd85ad2a4a667ca2099df3d42a1d3b45706a8d81abf0", "asm": "00205fdd641234b13964b223bd85ad2a4a667ca2099df3d42a1d3b45706a8d81abf0"}, "vout": 1, "txid": "763235d67db47d96a127328713ad77eabaebf6d8f3a87d1d900a3bc8c05c389d"}], "txid": "5ae2af41ce0f4f8083163530d0112fdfe4489bd766ae722e52658ecde2ac4285", "blocktime": 1537870564, "version": 1, "confirmations": 11515, "time": 1537870564, "locktime": 0, "vsize": 205, "size": 370}