{"hash": "5ae866877fd2b75fc8bd19faba4797dfceee55a1372b779c01c3dcf3ce7e1a25", "blockhash": "0000000000000000001cda96e906b7601b7a6fb1a3b62bca570a9e5d8f4b3de1", "vout": [{"scriptPubKey": {"type": "nulldata", "hex": "6a4c50000077d200012ce9c442b200aff379bfb7e25b23cc0f42c2fc38c5e5bf9ae76da98a211a673ac5ea5c8ec9686083e0aacbeee2815baa14c20613fff26d9e1817bc9a9526289ac0f6612cd74e33776ee4", "asm": "OP_RETURN 000077d200012ce9c442b200aff379bfb7e25b23cc0f42c2fc38c5e5bf9ae76da98a211a673ac5ea5c8ec9686083e0aacbeee2815baa14c20613fff26d9e1817bc9a9526289ac0f6612cd74e33776ee4"}, "value": 0.0, "n": 0}, {"scriptPubKey": {"reqSigs": 1, "hex": "76a9148ebdda38aae98506cb06c2f8a29f8aeb122790f688ac", "addresses": ["1E1kPREY6C3fQuGLUWFy6xn6FZ9UhCfpmw"], "asm": "OP_DUP OP_HASH160 8ebdda38aae98506cb06c2f8a29f8aeb122790f6 OP_EQUALVERIFY OP_CHECKSIG", "type": "pubkeyhash"}, "value": 0.0008584, "n": 1}], "hex": "01000000013699dae2a4760170deff80b01d68a69119e67bf0f66d12288a16e058bdd37e25010000006a4730440220377ebd2aa1cabad931176e2b3bd98e0f26d3def17ba5ae8d14817436f1fa4ae4022002272af389fb62fe1eb31246ae5bec0ffecf92b05357c1476ec87c4e0ba88ca5012102fbd25f151e838e4efa6eb8b1289980e16c24c0ba69112e9b1fdf07e3189b93c7ffffffff020000000000000000536a4c50000077d200012ce9c442b200aff379bfb7e25b23cc0f42c2fc38c5e5bf9ae76da98a211a673ac5ea5c8ec9686083e0aacbeee2815baa14c20613fff26d9e1817bc9a9526289ac0f6612cd74e33776ee4504f0100000000001976a9148ebdda38aae98506cb06c2f8a29f8aeb122790f688ac00000000", "vin": [{"sequence": 4294967295, "scriptSig": {"hex": "4730440220377ebd2aa1cabad931176e2b3bd98e0f26d3def17ba5ae8d14817436f1fa4ae4022002272af389fb62fe1eb31246ae5bec0ffecf92b05357c1476ec87c4e0ba88ca5012102fbd25f151e838e4efa6eb8b1289980e16c24c0ba69112e9b1fdf07e3189b93c7", "asm": "30440220377ebd2aa1cabad931176e2b3bd98e0f26d3def17ba5ae8d14817436f1fa4ae4022002272af389fb62fe1eb31246ae5bec0ffecf92b05357c1476ec87c4e0ba88ca5[ALL] 02fbd25f151e838e4efa6eb8b1289980e16c24c0ba69112e9b1fdf07e3189b93c7"}, "vout": 1, "txid": "257ed3bd58e0168a28126df6f07be61991a6681db080ffde700176a4e2da9936"}], "txid": "5ae866877fd2b75fc8bd19faba4797dfceee55a1372b779c01c3dcf3ce7e1a25", "blocktime": 1537873282, "version": 1, "confirmations": 11484, "time": 1537873282, "locktime": 0, "vsize": 283, "size": 283}