{"hash": "057a502e717ae831f2e9e04bc2ddd617e66ac58787385df35a2bae442d6648dc", "blockhash": "0000000000000000000baef3f32e3676a92c3b2e5da21b426e4f302fc371ce76", "vout": [{"scriptPubKey": {"reqSigs": 1, "hex": "a914963cf05ae0b5cee915f06add0559862fc68ce92c87", "addresses": ["3FPQHRgdxH8k6ATX2Bga3XEYfChb1u9Hps"], "asm": "OP_HASH160 963cf05ae0b5cee915f06add0559862fc68ce92c OP_EQUAL", "type": "scripthash"}, "value": 0.00012419, "n": 0}, {"scriptPubKey": {"reqSigs": 1, "hex": "a91435a60583b429462b6073f8d0aebaf3728b015c7c87", "addresses": ["36agd69rbAoyqAJN3b9JXTXbd6bqnGteis"], "asm": "OP_HASH160 35a60583b429462b6073f8d0aebaf3728b015c7c OP_EQUAL", "type": "scripthash"}, "value": 0.00206963, "n": 1}], "hex": "01000000000101dca7d51c96fb7b027a63d77f0d7873abb0b6769bf2df326ec643cd12578a5e6f060000002322002039744a2f3510259a53fbe46414508cda472a20a8ad07f4c51b81be30d3d27658ffffffff02833000000000000017a914963cf05ae0b5cee915f06add0559862fc68ce92c87732803000000000017a91435a60583b429462b6073f8d0aebaf3728b015c7c870400483045022100e5b866d4572367ed825c25c4c2e1da4a8bfde4fbead55c525c46499daaea313c0220573753881bdb8fdc01a8f8aff0430427b4db741faca5cf05c209351f2d8f95e90147304402207e915c462055e926a0ca586419e2552cdbe7b7337594378b20e0d8a7c3504aef02203ff125e6615e9303011e573915dc43c4c9fcd02e6e5b88702939ef744884fcb50147522102290fe25cef5d799372634190479f379598790e79f62bfcc07e21a6a1d28781c32103871fc2ca08e6950b38867e8e6a0e94ee625223d3aa0df5c65f414c6d784467e252ae00000000", "vin": [{"txinwitness": ["", "3045022100e5b866d4572367ed825c25c4c2e1da4a8bfde4fbead55c525c46499daaea313c0220573753881bdb8fdc01a8f8aff0430427b4db741faca5cf05c209351f2d8f95e901", "304402207e915c462055e926a0ca586419e2552cdbe7b7337594378b20e0d8a7c3504aef02203ff125e6615e9303011e573915dc43c4c9fcd02e6e5b88702939ef744884fcb501", "522102290fe25cef5d799372634190479f379598790e79f62bfcc07e21a6a1d28781c32103871fc2ca08e6950b38867e8e6a0e94ee625223d3aa0df5c65f414c6d784467e252ae"], "sequence": 4294967295, "scriptSig": {"hex": "22002039744a2f3510259a53fbe46414508cda472a20a8ad07f4c51b81be30d3d27658", "asm": "002039744a2f3510259a53fbe46414508cda472a20a8ad07f4c51b81be30d3d27658"}, "vout": 6, "txid": "6f5e8a5712cd43c66e32dff29b76b6b0ab73780d7fd7637a027bfb961cd5a7dc"}], "txid": "5ae9fdd8310fda5c7d7e98657af68aa1015f09c1291a10e166cc23844ec93c52", "blocktime": 1537876114, "version": 1, "confirmations": 11460, "time": 1537876114, "locktime": 0, "vsize": 206, "size": 371}