{"hash": "5b004cb57f2be6e72593e485d7c1d1e4033ff918b59090e646d34a9a39988d4e", "blockhash": "0000000000000000000e13cef7c366c0283d82e591d1acd082e914b08063cdf1", "vout": [{"scriptPubKey": {"reqSigs": 1, "hex": "76a9147de0276cda5550e17639ee2c240ec266a031ae0388ac", "addresses": ["1CUZzUP7FadenJ8F2nxobihusV7LNRn7rm"], "asm": "OP_DUP OP_HASH160 7de0276cda5550e17639ee2c240ec266a031ae03 OP_EQUALVERIFY OP_CHECKSIG", "type": "pubkeyhash"}, "value": 0.00081865, "n": 0}, {"scriptPubKey": {"reqSigs": 1, "hex": "a914a81a7edd7490ab18eddfd38cd27e9c6a341e024987", "addresses": ["3H1sBiTDvvrgXiTHpG7hs4Gw2yzBcXLLko"], "asm": "OP_HASH160 a81a7edd7490ab18eddfd38cd27e9c6a341e0249 OP_EQUAL", "type": "scripthash"}, "value": 0.14557, "n": 1}], "hex": "0100000002fd8ae388ffbe6e9fdc4fc5ab6987d7895f1a8a75aca8da0880ba67026ff3bd87010000006b483045022100885fe0640a2dcafcbdd2741aa61021db2ddba1269443cb96d1d0cdd746f530af022058b540fe71b3dfa8fd540013742ee0cd008caf0302c3a1024d55491795410ec801210223ba1e6fc2065596a0817c959e65874ea0cf44fbd94d4307b8d0fbb0a4dcc6d9ffffffffee563d3765e08e673984100b3fff7736112f34ac7cb47847d4f9d2213c595291000000006b483045022100c1ee4f528f0d13e54d4042fb55786898b2b4f31ce644c505de49541e8cd113030220292e1551f779933287c4bd41491d02d88cd56ebdfed8860badd93c037d755b870121031c22e6d39d48d89a2af85fdd022490e00bfed74ace75a899363e2cff042e2d12ffffffff02c93f0100000000001976a9147de0276cda5550e17639ee2c240ec266a031ae0388ac481fde000000000017a914a81a7edd7490ab18eddfd38cd27e9c6a341e02498700000000", "vin": [{"sequence": 4294967295, "scriptSig": {"hex": "483045022100885fe0640a2dcafcbdd2741aa61021db2ddba1269443cb96d1d0cdd746f530af022058b540fe71b3dfa8fd540013742ee0cd008caf0302c3a1024d55491795410ec801210223ba1e6fc2065596a0817c959e65874ea0cf44fbd94d4307b8d0fbb0a4dcc6d9", "asm": "3045022100885fe0640a2dcafcbdd2741aa61021db2ddba1269443cb96d1d0cdd746f530af022058b540fe71b3dfa8fd540013742ee0cd008caf0302c3a1024d55491795410ec8[ALL] 0223ba1e6fc2065596a0817c959e65874ea0cf44fbd94d4307b8d0fbb0a4dcc6d9"}, "vout": 1, "txid": "87bdf36f0267ba8008daa8ac758a1a5f89d78769abc54fdc9f6ebeff88e38afd"}, {"sequence": 4294967295, "scriptSig": {"hex": "483045022100c1ee4f528f0d13e54d4042fb55786898b2b4f31ce644c505de49541e8cd113030220292e1551f779933287c4bd41491d02d88cd56ebdfed8860badd93c037d755b870121031c22e6d39d48d89a2af85fdd022490e00bfed74ace75a899363e2cff042e2d12", "asm": "3045022100c1ee4f528f0d13e54d4042fb55786898b2b4f31ce644c505de49541e8cd113030220292e1551f779933287c4bd41491d02d88cd56ebdfed8860badd93c037d755b87[ALL] 031c22e6d39d48d89a2af85fdd022490e00bfed74ace75a899363e2cff042e2d12"}, "vout": 0, "txid": "9152593c21d2f9d44778b47cac342f113677ff3f0b108439678ee065373d56ee"}], "txid": "5b004cb57f2be6e72593e485d7c1d1e4033ff918b59090e646d34a9a39988d4e", "blocktime": 1537871767, "version": 1, "confirmations": 11495, "time": 1537871767, "locktime": 0, "vsize": 372, "size": 372}