{"hash": "33d3ca5c141b75ea55c634b4acd9292fdfcebb78580c707f44c1361390576886", "blockhash": "0000000000000000000baef3f32e3676a92c3b2e5da21b426e4f302fc371ce76", "vout": [{"scriptPubKey": {"reqSigs": 1, "hex": "76a914161c5d736361bce97c1a3b33ec7c768c6370cd0c88ac", "addresses": ["131ur4MtcAFi3j5ocWDjwA75H1PfrwiiiA"], "asm": "OP_DUP OP_HASH160 161c5d736361bce97c1a3b33ec7c768c6370cd0c OP_EQUALVERIFY OP_CHECKSIG", "type": "pubkeyhash"}, "value": 0.004661, "n": 0}, {"scriptPubKey": {"reqSigs": 1, "hex": "a914ea645e5e20987adfaa9d5fa4a915d008965f102387", "addresses": ["3P4NHAbib3uvj6QNYmPWqEJMZnx4HzszTp"], "asm": "OP_HASH160 ea645e5e20987adfaa9d5fa4a915d008965f1023 OP_EQUAL", "type": "scripthash"}, "value": 0.01754163, "n": 1}], "hex": "0200000000010221a3cdc7f3ad47ffec50b0087c554e846e2b7f2c051ff93fc1ae011113d4dad700000000171600143d035b0e51395b86a66d4209ac5ae9182befeb96ffffffff51b4723a1d16e29d43c9e5006b894d078333f1a11201519dd28941e3c3066adb0700000017160014cb001325c4e67c39f2d85b010e9d38eabe67e897ffffffff02b41c0700000000001976a914161c5d736361bce97c1a3b33ec7c768c6370cd0c88ac33c41a000000000017a914ea645e5e20987adfaa9d5fa4a915d008965f10238702473044022014d6a9fc01546cc7a2d3db579b04f449116d7757cd1d2886bea4cc204ccdd5290220402e8d3b1ded0c189226726bdeefa9f9472af552fc1b036d388fcd6938895bab0121037a9b3e893b4afeadfe57077e1e8755d479c3a363965ba05841c3e043477b71870247304402203f0db09e5fb26b37d30993498e4c4538e98bfa7421db47c333e51091c8a5d78a0220304811019029f22d2350f6c1619f3992d7a0b36cb017c3365eb6e02969f9bfc30121021221ccc7cd09af606a357a60de7e44e7af95ba2e1e16e273b7d62e4ee6cf5de500000000", "vin": [{"txinwitness": ["3044022014d6a9fc01546cc7a2d3db579b04f449116d7757cd1d2886bea4cc204ccdd5290220402e8d3b1ded0c189226726bdeefa9f9472af552fc1b036d388fcd6938895bab01", "037a9b3e893b4afeadfe57077e1e8755d479c3a363965ba05841c3e043477b7187"], "sequence": 4294967295, "scriptSig": {"hex": "1600143d035b0e51395b86a66d4209ac5ae9182befeb96", "asm": "00143d035b0e51395b86a66d4209ac5ae9182befeb96"}, "vout": 0, "txid": "d7dad4131101aec13ff91f052c7f2b6e844e557c08b050ecff47adf3c7cda321"}, {"txinwitness": ["304402203f0db09e5fb26b37d30993498e4c4538e98bfa7421db47c333e51091c8a5d78a0220304811019029f22d2350f6c1619f3992d7a0b36cb017c3365eb6e02969f9bfc301", "021221ccc7cd09af606a357a60de7e44e7af95ba2e1e16e273b7d62e4ee6cf5de5"], "sequence": 4294967295, "scriptSig": {"hex": "160014cb001325c4e67c39f2d85b010e9d38eabe67e897", "asm": "0014cb001325c4e67c39f2d85b010e9d38eabe67e897"}, "vout": 7, "txid": "db6a06c3e34189d29d510112a1f13383074d896b00e5c9439de2161d3a72b451"}], "txid": "5b03145a85d28fe1570f94640bd76896ac69afdfd61ad9b46764775fe284aae6", "blocktime": 1537876114, "version": 2, "confirmations": 11459, "time": 1537876114, "locktime": 0, "vsize": 258, "size": 420}