{"hash": "5ec68e7c24e9580c1c92ce20d8c400d1ee93d1e2f31e6ada51ec803ef13a660a", "blockhash": "00000000000000000017f5eb5941039fbcee6240d03bc1f2f8e35350df66a1d8", "vout": [{"scriptPubKey": {"reqSigs": 1, "hex": "a91430897cc6c9d69f6a2c2f1c651d51f22219f1a4f687", "addresses": ["367f4YWz1VCFaqBqwbTrzwi2b1h2U3w1AF"], "asm": "OP_HASH160 30897cc6c9d69f6a2c2f1c651d51f22219f1a4f6 OP_EQUAL", "type": "scripthash"}, "value": 0.32120913, "n": 0}, {"scriptPubKey": {"reqSigs": 1, "hex": "a91481bf3a0a3661e707cf231513e8421f29d0518d1d87", "addresses": ["3DX4AxMYKTE1JyGwGvn7dUXYff5Ssq2g6D"], "asm": "OP_HASH160 81bf3a0a3661e707cf231513e8421f29d0518d1d OP_EQUAL", "type": "scripthash"}, "value": 0.44948845, "n": 1}], "hex": "01000000000102018118d922109c4c4de78690fc178af0ef7f5fb40288fab2f5e40894bc051a1c0000000023220020bcf9f822194145acea0f3235f4107b5bf1a91b6b9f8489f63bf79ec29b360913ffffffffefdc1e10c966b73b32a57a0bc2ab33f8978488f8c4cc73ce72e6fc56ef846bbe9c0000006a473044022066aa92b82c4b27f7dd1c0e89e22755a3807ad1562c17db8334a43db68cea0ddc0220695ee8d5ed2d1b82b3216e5161249a412a0bf5ecbc2c5c833a42a81b0bc7f5ae0121038be2bb4a60f826c1175ea14cc4f462df0147a447f9dfbc318974ce5e625fe5dcffffffff025120ea010000000017a91430897cc6c9d69f6a2c2f1c651d51f22219f1a4f6876dddad020000000017a91481bf3a0a3661e707cf231513e8421f29d0518d1d870400483045022100cf15500194adaabce8fb1337018ef48189ff9bdcd0ace965445fad9950f604d402203c849b5530e3f0e394b7bdcc3919a4cfe6b9077b15b8a9195a20124c0943b9f40147304402203900f6509195190fb7eb0fe0b5c0b7b45edadb3080f50ec1a798f361d89623c702201146ca8e4e841ac66adff3552019be284399259a4c0adf5a1a9e23ee208127d601695221026c8f72b9e63db63907115e65d4da86eaae595b22fdc85ec75301bb4adbf203582103806535be3e3920e5eedee92de5714188fd6a784f2bf7b04f87de0b9c3ae1ecdb21024b23bfdce2afcae7e28c42f7f79aa100f22931712c52d7414a526ba494d44a2553ae0000000000", "vin": [{"txinwitness": ["", "3045022100cf15500194adaabce8fb1337018ef48189ff9bdcd0ace965445fad9950f604d402203c849b5530e3f0e394b7bdcc3919a4cfe6b9077b15b8a9195a20124c0943b9f401", "304402203900f6509195190fb7eb0fe0b5c0b7b45edadb3080f50ec1a798f361d89623c702201146ca8e4e841ac66adff3552019be284399259a4c0adf5a1a9e23ee208127d601", "5221026c8f72b9e63db63907115e65d4da86eaae595b22fdc85ec75301bb4adbf203582103806535be3e3920e5eedee92de5714188fd6a784f2bf7b04f87de0b9c3ae1ecdb21024b23bfdce2afcae7e28c42f7f79aa100f22931712c52d7414a526ba494d44a2553ae"], "sequence": 4294967295, "scriptSig": {"hex": "220020bcf9f822194145acea0f3235f4107b5bf1a91b6b9f8489f63bf79ec29b360913", "asm": "0020bcf9f822194145acea0f3235f4107b5bf1a91b6b9f8489f63bf79ec29b360913"}, "vout": 0, "txid": "1c1a05bc9408e4f5b2fa8802b45f7feff08a17fc9086e74d4c9c1022d9188101"}, {"sequence": 4294967295, "scriptSig": {"hex": "473044022066aa92b82c4b27f7dd1c0e89e22755a3807ad1562c17db8334a43db68cea0ddc0220695ee8d5ed2d1b82b3216e5161249a412a0bf5ecbc2c5c833a42a81b0bc7f5ae0121038be2bb4a60f826c1175ea14cc4f462df0147a447f9dfbc318974ce5e625fe5dc", "asm": "3044022066aa92b82c4b27f7dd1c0e89e22755a3807ad1562c17db8334a43db68cea0ddc0220695ee8d5ed2d1b82b3216e5161249a412a0bf5ecbc2c5c833a42a81b0bc7f5ae[ALL] 038be2bb4a60f826c1175ea14cc4f462df0147a447f9dfbc318974ce5e625fe5dc"}, "vout": 156, "txid": "be6b84ef56fce672ce73ccc4f8888497f833abc20b7aa5323bb766c9101edcef"}], "txid": "5b0351e08988b9d0f124fd9c442516e83b3a0d3f0595821ef3844e75291ff710", "blocktime": 1537874412, "version": 1, "confirmations": 11467, "time": 1537874412, "locktime": 0, "vsize": 361, "size": 553}