{"hash": "4438796cf5a3ca73d79118429d7546057fe582919375c4e0be624c667e8f132e", "blockhash": "0000000000000000000baef3f32e3676a92c3b2e5da21b426e4f302fc371ce76", "vout": [{"scriptPubKey": {"reqSigs": 1, "hex": "a91490e99e8d26d05ead3c05430c292a887bbff695f587", "addresses": ["3EuF6KjJawxTiUsea3Sc8hsLUGmVEf7Xg5"], "asm": "OP_HASH160 90e99e8d26d05ead3c05430c292a887bbff695f5 OP_EQUAL", "type": "scripthash"}, "value": 0.00103937, "n": 0}, {"scriptPubKey": {"type": "nulldata", "hex": "6a146f6d6e69000000000000001f0000000005f5e100", "asm": "OP_RETURN 6f6d6e69000000000000001f0000000005f5e100"}, "value": 0.0, "n": 1}, {"scriptPubKey": {"reqSigs": 1, "hex": "a91490e99e8d26d05ead3c05430c292a887bbff695f587", "addresses": ["3EuF6KjJawxTiUsea3Sc8hsLUGmVEf7Xg5"], "asm": "OP_HASH160 90e99e8d26d05ead3c05430c292a887bbff695f5 OP_EQUAL", "type": "scripthash"}, "value": 5.4e-06, "n": 2}], "hex": "01000000000102e1e96680f94a5994d9e41459cf9297efdda7d3f623fe2c0dc814d27f77020aac0000000017160014f6e1792e7852ebd5ae795c2a25d579acdfadec2dffffffffe1e96680f94a5994d9e41459cf9297efdda7d3f623fe2c0dc814d27f77020aac0200000017160014f6e1792e7852ebd5ae795c2a25d579acdfadec2dffffffff03019601000000000017a91490e99e8d26d05ead3c05430c292a887bbff695f5870000000000000000166a146f6d6e69000000000000001f0000000005f5e1001c0200000000000017a91490e99e8d26d05ead3c05430c292a887bbff695f58702483045022100b7d0f83f93cc56a1875af92e7728a831a746e89361b2f6d5d690f9299ab61e7f02205095eb2b277ceeb2db137f6dccc599e802d1d29b747f70c7ae909039f5ae99c7012103f1cf988013a33e053d1e9bd54c4798c1a6dc362a5b2798b5344049fca40e2db00247304402200a472c8afef0c3260ec8bc75236d4dc566f625000ded8646e3786fbf2e5925650220745c5ea4b8dde24ade78e58d2e3f2b8a01f1f416ae08c725fe296ab59e490a4f012103f1cf988013a33e053d1e9bd54c4798c1a6dc362a5b2798b5344049fca40e2db000000000", "vin": [{"txinwitness": ["3045022100b7d0f83f93cc56a1875af92e7728a831a746e89361b2f6d5d690f9299ab61e7f02205095eb2b277ceeb2db137f6dccc599e802d1d29b747f70c7ae909039f5ae99c701", "03f1cf988013a33e053d1e9bd54c4798c1a6dc362a5b2798b5344049fca40e2db0"], "sequence": 4294967295, "scriptSig": {"hex": "160014f6e1792e7852ebd5ae795c2a25d579acdfadec2d", "asm": "0014f6e1792e7852ebd5ae795c2a25d579acdfadec2d"}, "vout": 0, "txid": "ac0a02777fd214c80d2cfe23f6d3a7ddef9792cf5914e4d994594af98066e9e1"}, {"txinwitness": ["304402200a472c8afef0c3260ec8bc75236d4dc566f625000ded8646e3786fbf2e5925650220745c5ea4b8dde24ade78e58d2e3f2b8a01f1f416ae08c725fe296ab59e490a4f01", "03f1cf988013a33e053d1e9bd54c4798c1a6dc362a5b2798b5344049fca40e2db0"], "sequence": 4294967295, "scriptSig": {"hex": "160014f6e1792e7852ebd5ae795c2a25d579acdfadec2d", "asm": "0014f6e1792e7852ebd5ae795c2a25d579acdfadec2d"}, "vout": 2, "txid": "ac0a02777fd214c80d2cfe23f6d3a7ddef9792cf5914e4d994594af98066e9e1"}], "txid": "5b05c36d762e15f781566e327d4fa64db796def34aa71abde754f69f57c41558", "blocktime": 1537876114, "version": 1, "confirmations": 11460, "time": 1537876114, "locktime": 0, "vsize": 288, "size": 450}