{"hash": "5b0877d287113661142a733d290a96768978b56f9610c75f0f5161756f2f645a", "blockhash": "0000000000000000001f0ddff1eddb255c1121bcd4da4f1bc9a0da00cae72433", "vout": [{"scriptPubKey": {"type": "nulldata", "hex": "6a4c50000077a900013f28305dd15bb3407afe8d20af6c953dd567cf27e7e3ef3236678a6250975e4d5b8dfd28209081d9196931d189995baa10040612fa8b53ccfddcbc9a9526289ac0f6612cd74e33776ee4", "asm": "OP_RETURN 000077a900013f28305dd15bb3407afe8d20af6c953dd567cf27e7e3ef3236678a6250975e4d5b8dfd28209081d9196931d189995baa10040612fa8b53ccfddcbc9a9526289ac0f6612cd74e33776ee4"}, "value": 0.0, "n": 0}, {"scriptPubKey": {"reqSigs": 1, "hex": "76a9140328de53406489d3601069daced0889ec9c5477d88ac", "addresses": ["1HhzAcVJw5YQdQyYLcRXZvuTGKaTNGKP7"], "asm": "OP_DUP OP_HASH160 0328de53406489d3601069daced0889ec9c5477d OP_EQUALVERIFY OP_CHECKSIG", "type": "pubkeyhash"}, "value": 0.0009724, "n": 1}], "hex": "01000000019ff15e4c70ea23841acc405951fa3b4ce52b41d45ddd1f6f66ddcef0d8c0b03d010000006a47304402203fbc07c22ac2a08aa637ada243357b7947407611d1443cdcca0192f9ff75f2810220642dc83887403c876c66747d295b6f958669aba9769d58fc335e321511b6fda6012103a9a9fd8814881678821920378684c12c89d179703a237953f32025a5db8b2746ffffffff020000000000000000536a4c50000077a900013f28305dd15bb3407afe8d20af6c953dd567cf27e7e3ef3236678a6250975e4d5b8dfd28209081d9196931d189995baa10040612fa8b53ccfddcbc9a9526289ac0f6612cd74e33776ee4d87b0100000000001976a9140328de53406489d3601069daced0889ec9c5477d88ac00000000", "vin": [{"sequence": 4294967295, "scriptSig": {"hex": "47304402203fbc07c22ac2a08aa637ada243357b7947407611d1443cdcca0192f9ff75f2810220642dc83887403c876c66747d295b6f958669aba9769d58fc335e321511b6fda6012103a9a9fd8814881678821920378684c12c89d179703a237953f32025a5db8b2746", "asm": "304402203fbc07c22ac2a08aa637ada243357b7947407611d1443cdcca0192f9ff75f2810220642dc83887403c876c66747d295b6f958669aba9769d58fc335e321511b6fda6[ALL] 03a9a9fd8814881678821920378684c12c89d179703a237953f32025a5db8b2746"}, "vout": 1, "txid": "3db0c0d8f0cedd666f1fdd5dd4412be54c3bfa515940cc1a8423ea704c5ef19f"}], "txid": "5b0877d287113661142a733d290a96768978b56f9610c75f0f5161756f2f645a", "blocktime": 1537872018, "version": 1, "confirmations": 11489, "time": 1537872018, "locktime": 0, "vsize": 283, "size": 283}