{"hash": "5b14ec66cd8479eb50154b62f609f9b8c80d2414df2a71cc90cfe253f118ca84", "blockhash": "00000000000000000017f5eb5941039fbcee6240d03bc1f2f8e35350df66a1d8", "vout": [{"scriptPubKey": {"reqSigs": 1, "hex": "0014c9a12abece4a8dccc7948c2118e437f6e132aea2", "addresses": ["bc1qexsj40kwf2xue3u53ss33eph7msn9t4znad7dm"], "asm": "0 c9a12abece4a8dccc7948c2118e437f6e132aea2", "type": "witness_v0_keyhash"}, "value": 0.73972928, "n": 0}, {"scriptPubKey": {"reqSigs": 1, "hex": "76a9147a7aa03fd2b6535525d902417f3005c401ab97c888ac", "addresses": ["1CAcLc7NxGtUmiXnfdejbQn2epbM5oLS4H"], "asm": "OP_DUP OP_HASH160 7a7aa03fd2b6535525d902417f3005c401ab97c8 OP_EQUALVERIFY OP_CHECKSIG", "type": "pubkeyhash"}, "value": 0.030264, "n": 1}], "hex": "0100000001f3e9fb6cad8edff0cc9c869c7c984d05d06973c5213cd39e2e2bbca5548fb88a000000006b483045022100c78c3f04837d1a58df65f6fdd997c3b7699788243f238fb3358e824a1b9d45e70220363bd54e0c6673bfd0cc448957086cf6b8f9ff9273c6c5aa5bfeee8ad3487ce10121034805152a229d014954671362e3f4674d2736b550d8a469c4613119d31bb1ed60ffffffff02c0bc680400000000160014c9a12abece4a8dccc7948c2118e437f6e132aea2e02d2e00000000001976a9147a7aa03fd2b6535525d902417f3005c401ab97c888ac00000000", "vin": [{"sequence": 4294967295, "scriptSig": {"hex": "483045022100c78c3f04837d1a58df65f6fdd997c3b7699788243f238fb3358e824a1b9d45e70220363bd54e0c6673bfd0cc448957086cf6b8f9ff9273c6c5aa5bfeee8ad3487ce10121034805152a229d014954671362e3f4674d2736b550d8a469c4613119d31bb1ed60", "asm": "3045022100c78c3f04837d1a58df65f6fdd997c3b7699788243f238fb3358e824a1b9d45e70220363bd54e0c6673bfd0cc448957086cf6b8f9ff9273c6c5aa5bfeee8ad3487ce1[ALL] 034805152a229d014954671362e3f4674d2736b550d8a469c4613119d31bb1ed60"}, "vout": 0, "txid": "8ab88f54a5bc2b2e9ed33c21c57369d0054d987c9c869cccf0df8ead6cfbe9f3"}], "txid": "5b14ec66cd8479eb50154b62f609f9b8c80d2414df2a71cc90cfe253f118ca84", "blocktime": 1537874412, "version": 1, "confirmations": 11467, "time": 1537874412, "locktime": 0, "vsize": 223, "size": 223}