{"hash": "5b14b48728aa866f057e2456c16345b4f4df0ab2c7586817e8ba2938129d4e58", "blockhash": "0000000000000000001cda96e906b7601b7a6fb1a3b62bca570a9e5d8f4b3de1", "vout": [{"scriptPubKey": {"reqSigs": 1, "hex": "a914256de8441d1b6d7b69c9671bfd188a48d9eabf9487", "addresses": ["356vb8iRKmVf6FCQtipBDoBE647WweoR35"], "asm": "OP_HASH160 256de8441d1b6d7b69c9671bfd188a48d9eabf94 OP_EQUAL", "type": "scripthash"}, "value": 0.005, "n": 0}, {"scriptPubKey": {"reqSigs": 1, "hex": "76a9142905c419f20f43091f8e4dfd328625c58d82ce1e88ac", "addresses": ["14jucVirzFU4YNPiuFdsGbQEvsSkpb8kKh"], "asm": "OP_DUP OP_HASH160 2905c419f20f43091f8e4dfd328625c58d82ce1e OP_EQUALVERIFY OP_CHECKSIG", "type": "pubkeyhash"}, "value": 0.01796262, "n": 1}], "hex": "0200000001091d259a5904d20c5d9c90fc27dd1517fa2c682b0edcad3610b93ccdc9b3d1fc010000006a473044022076241a6b37add13dbb621e927dd804a9a33e90304d38cdb82bb790fedad3df7b022010c996b7954d5784b4fa605e9831a9fbdda5916dee2f199e138da965ca6781a4012102553619577d3b092e0dbd1d1f75ca7faa85e1f576ca2891c8ff3bc04d72904356ffffffff0220a107000000000017a914256de8441d1b6d7b69c9671bfd188a48d9eabf9487a6681b00000000001976a9142905c419f20f43091f8e4dfd328625c58d82ce1e88ac00000000", "vin": [{"sequence": 4294967295, "scriptSig": {"hex": "473044022076241a6b37add13dbb621e927dd804a9a33e90304d38cdb82bb790fedad3df7b022010c996b7954d5784b4fa605e9831a9fbdda5916dee2f199e138da965ca6781a4012102553619577d3b092e0dbd1d1f75ca7faa85e1f576ca2891c8ff3bc04d72904356", "asm": "3044022076241a6b37add13dbb621e927dd804a9a33e90304d38cdb82bb790fedad3df7b022010c996b7954d5784b4fa605e9831a9fbdda5916dee2f199e138da965ca6781a4[ALL] 02553619577d3b092e0dbd1d1f75ca7faa85e1f576ca2891c8ff3bc04d72904356"}, "vout": 1, "txid": "fcd1b3c9cd3cb91036addc0e2b682cfa1715dd27fc909c5d0cd204599a251d09"}], "txid": "5b14b48728aa866f057e2456c16345b4f4df0ab2c7586817e8ba2938129d4e58", "blocktime": 1537873282, "version": 2, "confirmations": 11482, "time": 1537873282, "locktime": 0, "vsize": 223, "size": 223}