{"hash": "5b15c894bd3c4e13a8081a640cef5628a8fa220fac328d3e1b7eff071a48e496", "blockhash": "0000000000000000001f76057863aec43deb6fa401d9628bb513d65a8098bfab", "vout": [{"scriptPubKey": {"reqSigs": 1, "hex": "76a914e4a91153ff0e27f0fde654cbcfb84267da18d83688ac", "addresses": ["1Mr3bmSc9MJqwbo8Kc3eKwPnckGmUeta6A"], "asm": "OP_DUP OP_HASH160 e4a91153ff0e27f0fde654cbcfb84267da18d836 OP_EQUALVERIFY OP_CHECKSIG", "type": "pubkeyhash"}, "value": 0.03446114, "n": 0}], "hex": "01000000017cdbc459379ac764f91325243bc8fe7b6568ead75dda5db243b18962b48d6ed2010000006b483045022100dd94f62a5e7ad32ea18e4c2200bfa853e91f8ba6c9b31e87d0e8ce61b9b8a38502200106ef1cf98e2ec75825706f59ee6ce221c6fec4077e488eabf3c3a6d03a0e1e01210228aa16cc287a17b60cea1ff85ee0f2b443cd966b586f78526ea03fe0e7347ce6ffffffff0162953400000000001976a914e4a91153ff0e27f0fde654cbcfb84267da18d83688ac00000000", "vin": [{"sequence": 4294967295, "scriptSig": {"hex": "483045022100dd94f62a5e7ad32ea18e4c2200bfa853e91f8ba6c9b31e87d0e8ce61b9b8a38502200106ef1cf98e2ec75825706f59ee6ce221c6fec4077e488eabf3c3a6d03a0e1e01210228aa16cc287a17b60cea1ff85ee0f2b443cd966b586f78526ea03fe0e7347ce6", "asm": "3045022100dd94f62a5e7ad32ea18e4c2200bfa853e91f8ba6c9b31e87d0e8ce61b9b8a38502200106ef1cf98e2ec75825706f59ee6ce221c6fec4077e488eabf3c3a6d03a0e1e[ALL] 0228aa16cc287a17b60cea1ff85ee0f2b443cd966b586f78526ea03fe0e7347ce6"}, "vout": 1, "txid": "d26e8db46289b143b25dda5dd7ea68657bfec83b242513f964c79a3759c4db7c"}], "txid": "5b15c894bd3c4e13a8081a640cef5628a8fa220fac328d3e1b7eff071a48e496", "blocktime": 1537873891, "version": 1, "confirmations": 11475, "time": 1537873891, "locktime": 0, "vsize": 192, "size": 192}