{"hash": "5b1a0151a4d96367b3a9250f090f8388bb27dd90238fdbd19f50ee0a56ce3a28", "blockhash": "00000000000000000018f53835495a110e01622372bf6ae95dc86f2b0ab887b0", "vout": [{"scriptPubKey": {"type": "nulldata", "hex": "6a146f6d6e69000000000000001f0000002e73206b00", "asm": "OP_RETURN 6f6d6e69000000000000001f0000002e73206b00"}, "value": 0.0, "n": 0}, {"scriptPubKey": {"reqSigs": 1, "hex": "76a914bbf676c726d241beafc244296f7969827012eec788ac", "addresses": ["1J8rcVPwRjJdi1jhk95AsjMfsLBbP7x7pS"], "asm": "OP_DUP OP_HASH160 bbf676c726d241beafc244296f7969827012eec7 OP_EQUALVERIFY OP_CHECKSIG", "type": "pubkeyhash"}, "value": 0.02644666, "n": 1}], "hex": "01000000029eae34c5f65d023c44f5674717e94dbe77035a1ea7ac2cb3b10c5daea3b11233010000006b483045022100a79f6b8e050a60dd1c43f5e63328e79bb619376ece0139115bce2e0387a1ac4002200acc81614e52d72f8ab6fe9dfeeff28a2fdc6946a53853bbfd68fd9d7b497284012102951594aade8da4d1891a650cd1929c32e0f21d2fcdf0d5a9266f1070025f87f6ffffffffdd5bc7385e43920bc190a06701cf5b1fa9bd294afa032c09d850cd2930b5d779010000006a47304402207ca9ea12f9a84cc69078f76560e328bc1241e16d627c0059a8eb70e0536d38e302206cacb13ef45ddaeeb82fd529790c45bd8d95fd47e282635a25fd53a4843388b7012102061af1d6ec220f4ce39a77205368245c29cd0d340edeb4ced8fd2bd0bc788d42ffffffff020000000000000000166a146f6d6e69000000000000001f0000002e73206b00ba5a2800000000001976a914bbf676c726d241beafc244296f7969827012eec788ac00000000", "vin": [{"sequence": 4294967295, "scriptSig": {"hex": "483045022100a79f6b8e050a60dd1c43f5e63328e79bb619376ece0139115bce2e0387a1ac4002200acc81614e52d72f8ab6fe9dfeeff28a2fdc6946a53853bbfd68fd9d7b497284012102951594aade8da4d1891a650cd1929c32e0f21d2fcdf0d5a9266f1070025f87f6", "asm": "3045022100a79f6b8e050a60dd1c43f5e63328e79bb619376ece0139115bce2e0387a1ac4002200acc81614e52d72f8ab6fe9dfeeff28a2fdc6946a53853bbfd68fd9d7b497284[ALL] 02951594aade8da4d1891a650cd1929c32e0f21d2fcdf0d5a9266f1070025f87f6"}, "vout": 1, "txid": "3312b1a3ae5d0cb1b32caca71e5a0377be4de9174767f5443c025df6c534ae9e"}, {"sequence": 4294967295, "scriptSig": {"hex": "47304402207ca9ea12f9a84cc69078f76560e328bc1241e16d627c0059a8eb70e0536d38e302206cacb13ef45ddaeeb82fd529790c45bd8d95fd47e282635a25fd53a4843388b7012102061af1d6ec220f4ce39a77205368245c29cd0d340edeb4ced8fd2bd0bc788d42", "asm": "304402207ca9ea12f9a84cc69078f76560e328bc1241e16d627c0059a8eb70e0536d38e302206cacb13ef45ddaeeb82fd529790c45bd8d95fd47e282635a25fd53a4843388b7[ALL] 02061af1d6ec220f4ce39a77205368245c29cd0d340edeb4ced8fd2bd0bc788d42"}, "vout": 1, "txid": "79d7b53029cd50d8092c03fa4a29bda91f5bcf0167a090c10b92435e38c75bdd"}], "txid": "5b1a0151a4d96367b3a9250f090f8388bb27dd90238fdbd19f50ee0a56ce3a28", "blocktime": 1537870928, "version": 1, "confirmations": 11512, "time": 1537870928, "locktime": 0, "vsize": 370, "size": 370}