{"hash": "0958f3f9ff38a1d201c903d080e53f8298208ee678284600481c0fd56c68bcb6", "blockhash": "0000000000000000001cda96e906b7601b7a6fb1a3b62bca570a9e5d8f4b3de1", "vout": [{"scriptPubKey": {"reqSigs": 1, "hex": "a914a366b3205310160f1676366827bb0033b187017387", "addresses": ["3Gb16WiejvmXkBTHdwt7ZfhHw8sNKAFS9q"], "asm": "OP_HASH160 a366b3205310160f1676366827bb0033b1870173 OP_EQUAL", "type": "scripthash"}, "value": 0.1523582, "n": 0}, {"scriptPubKey": {"reqSigs": 1, "hex": "a9149ada2ec65eb2e786c9101421a31f116a774e35c587", "addresses": ["3FooMgmJSid45RLohSQyfjKJcynq9VTrfb"], "asm": "OP_HASH160 9ada2ec65eb2e786c9101421a31f116a774e35c5 OP_EQUAL", "type": "scripthash"}, "value": 0.01001179, "n": 1}], "hex": "020000000001053d415d7b0a503b43be3c9409f671cd254b3e140d327d34142288d736f7159f7401000000171600147d841358e1e4f9cc9ce9575e63eff62f013919c2feffffff7498ea579bc0c3d06d62f6961cf09d110330ba239e4a654f351d606b59a67903010000001716001490d63a3b60a9a64258796b8f912242e185bad9c2feffffff7f803f7e022f5381cb54a48f56fb174bb943e9639b68b1fe02838007b741ee9e5e03000017160014e0e2f877f6e857b1b94860766aff7ab5d2031756feffffff8103ddbe41ee9534cef232055bf95a4c5ef4a79113652450000f16c6c88db38d000000001716001459969d8345ca5876fcb64d7bdbc82ec46a956543feffffff92379ffd19c756896ed0a80a18c5ed78c5cade1ecfea6b68522d8e1e11101b7c0100000017160014c3db18957109eb49598ac7f3bf9240e0ba04395cfeffffff02ec7ae8000000000017a914a366b3205310160f1676366827bb0033b187017387db460f000000000017a9149ada2ec65eb2e786c9101421a31f116a774e35c587024830450221008d86ba12c2718b4f19761d2224edd7ed7b1f4620ad72bf7b4108ea47231d67120220756a732efcf2cfc1f7fe8bbe472b2c02d260908553243c978c260d8b1e79cb79012103f999a0f27046cdfe24e926bf6b4e8c969bab24718bdfbfef190c7f46bb176917024730440220238f5f378bec02153ee080473b2249557d738f830cc585c29280e6ec77d6fb6602201edeb85aaa34d2ec27be7f3d5dd39a2b41ba218bf4c1fa7ad0e33d128b8ce555012102d15f61474852266941718782bc915ee7879e42ed03abb048b8acaaa94a6a389902483045022100addd3db990dc3e5b0c004996355f15a3099a7ea8b5f8fab28792c0aa81b42b5802201019910d521711c5cdd342b2e710733b026efd1ebf4c8e1f0d388ef13622d328012103bd6284d1c763e4d868b59ef77a45da7d9f3004a3f88351f3fe5b014f5a489e8b0247304402204ac26e05a063c2f8a7426873be356c373598c738c112fe2e2e1f600c9b901ade0220390a240094dd136c7870ddb014ab67001caa1b1fef88aa4d5d771f6937e0d1640121021ec754ddb7a780c47d0c99cf721cef3b1a330254645dff1bf008a95b95b6593502483045022100a2fb32cad300353da1783188b3019dd2d3c529cc9c6cdc260d89c332bd01049e02206cfc6babb2fbce49e14199da4551383c2a2f0952d8e5f1955f9f09048f7a88a301210353a5b3bb379534b6343d38347bdcbec81c2f82bf36361779e2f010fea668458913490800", "vin": [{"txinwitness": ["30450221008d86ba12c2718b4f19761d2224edd7ed7b1f4620ad72bf7b4108ea47231d67120220756a732efcf2cfc1f7fe8bbe472b2c02d260908553243c978c260d8b1e79cb7901", "03f999a0f27046cdfe24e926bf6b4e8c969bab24718bdfbfef190c7f46bb176917"], "sequence": 4294967294, "scriptSig": {"hex": "1600147d841358e1e4f9cc9ce9575e63eff62f013919c2", "asm": "00147d841358e1e4f9cc9ce9575e63eff62f013919c2"}, "vout": 1, "txid": "749f15f736d7882214347d320d143e4b25cd71f609943cbe433b500a7b5d413d"}, {"txinwitness": ["30440220238f5f378bec02153ee080473b2249557d738f830cc585c29280e6ec77d6fb6602201edeb85aaa34d2ec27be7f3d5dd39a2b41ba218bf4c1fa7ad0e33d128b8ce55501", "02d15f61474852266941718782bc915ee7879e42ed03abb048b8acaaa94a6a3899"], "sequence": 4294967294, "scriptSig": {"hex": "16001490d63a3b60a9a64258796b8f912242e185bad9c2", "asm": "001490d63a3b60a9a64258796b8f912242e185bad9c2"}, "vout": 1, "txid": "0379a6596b601d354f654a9e23ba3003119df01c96f6626dd0c3c09b57ea9874"}, {"txinwitness": ["3045022100addd3db990dc3e5b0c004996355f15a3099a7ea8b5f8fab28792c0aa81b42b5802201019910d521711c5cdd342b2e710733b026efd1ebf4c8e1f0d388ef13622d32801", "03bd6284d1c763e4d868b59ef77a45da7d9f3004a3f88351f3fe5b014f5a489e8b"], "sequence": 4294967294, "scriptSig": {"hex": "160014e0e2f877f6e857b1b94860766aff7ab5d2031756", "asm": "0014e0e2f877f6e857b1b94860766aff7ab5d2031756"}, "vout": 862, "txid": "9eee41b707808302feb1689b63e943b94b17fb568fa454cb81532f027e3f807f"}, {"txinwitness": ["304402204ac26e05a063c2f8a7426873be356c373598c738c112fe2e2e1f600c9b901ade0220390a240094dd136c7870ddb014ab67001caa1b1fef88aa4d5d771f6937e0d16401", "021ec754ddb7a780c47d0c99cf721cef3b1a330254645dff1bf008a95b95b65935"], "sequence": 4294967294, "scriptSig": {"hex": "16001459969d8345ca5876fcb64d7bdbc82ec46a956543", "asm": "001459969d8345ca5876fcb64d7bdbc82ec46a956543"}, "vout": 0, "txid": "8db38dc8c6160f005024651391a7f45e4c5af95b0532f2ce3495ee41bedd0381"}, {"txinwitness": ["3045022100a2fb32cad300353da1783188b3019dd2d3c529cc9c6cdc260d89c332bd01049e02206cfc6babb2fbce49e14199da4551383c2a2f0952d8e5f1955f9f09048f7a88a301", "0353a5b3bb379534b6343d38347bdcbec81c2f82bf36361779e2f010fea6684589"], "sequence": 4294967294, "scriptSig": {"hex": "160014c3db18957109eb49598ac7f3bf9240e0ba04395c", "asm": "0014c3db18957109eb49598ac7f3bf9240e0ba04395c"}, "vout": 1, "txid": "7c1b10111e8e2d52686beacf1edecac578edc5180aa8d06e8956c719fd9f3792"}], "txid": "5b1d56c48cc4b7567f0594548b81f7b8b14c98e0ea3686cd5cea3b68f14cdb45", "blocktime": 1537873282, "version": 2, "confirmations": 11485, "time": 1537873282, "locktime": 542995, "vsize": 529, "size": 934}