{"hash": "9b97981435df617ac3df0d0f53fbe4dcb8d50b99e3c10ad6787dc43a70ab5f8d", "blockhash": "0000000000000000001f76057863aec43deb6fa401d9628bb513d65a8098bfab", "vout": [{"scriptPubKey": {"reqSigs": 1, "hex": "a91462f2c04ef895fae0a3e70566656134e9ac49388c87", "addresses": ["3AiCwzXCDSpZRXnaLLJC1bHqxwbxG1Mvsz"], "asm": "OP_HASH160 62f2c04ef895fae0a3e70566656134e9ac49388c OP_EQUAL", "type": "scripthash"}, "value": 0.01045738, "n": 0}, {"scriptPubKey": {"reqSigs": 1, "hex": "76a914875b7bbba9f793be0d40659d3687371a51d8842888ac", "addresses": ["1DLhpGgrWcXhRkQWVF41Y2g8k5BnKJPnk4"], "asm": "OP_DUP OP_HASH160 875b7bbba9f793be0d40659d3687371a51d88428 OP_EQUALVERIFY OP_CHECKSIG", "type": "pubkeyhash"}, "value": 0.0027496, "n": 1}], "hex": "02000000000102093503a18869faa9353069952992d17c9a0dd59de53240af23d702a0c51ef51604000000171600141f7b6672d06d7eab061253521fe67ba11e9da68efeffffffaedd1a0d67bcf8978b35d2d273ae10d1512ec30bd7cac136523b315402ff8a000100000017160014bd34d946dd4899c9e362b6beef02dfce23ad94a7feffffff02eaf40f000000000017a91462f2c04ef895fae0a3e70566656134e9ac49388c8710320400000000001976a914875b7bbba9f793be0d40659d3687371a51d8842888ac0247304402205d7feb95a812d741d4477f0278393fa73aabdb17c09a158f056be053f56c62ed02206569489a97b5a46ba83927580d6eb34d7496c131c5eb847afd3603d2e67fd914012103990128be18949908aa8ee658535164a671c38d417899f3e4b56e3747f88de4c702483045022100c975884041b08c79fd727238d787e9729f65a224b1301f11cf7423dd982da42e02200428afd5995680a4753eeb4e70e998f40e613888b6f4b8244f71532f13adb9d40121030a78db0bd75e8af0ee5b98ca4845e9a2466d87a4a4bc733e63f8f5509bb3a75ab8480800", "vin": [{"txinwitness": ["304402205d7feb95a812d741d4477f0278393fa73aabdb17c09a158f056be053f56c62ed02206569489a97b5a46ba83927580d6eb34d7496c131c5eb847afd3603d2e67fd91401", "03990128be18949908aa8ee658535164a671c38d417899f3e4b56e3747f88de4c7"], "sequence": 4294967294, "scriptSig": {"hex": "1600141f7b6672d06d7eab061253521fe67ba11e9da68e", "asm": "00141f7b6672d06d7eab061253521fe67ba11e9da68e"}, "vout": 4, "txid": "16f51ec5a002d723af4032e59dd50d9a7cd1922995693035a9fa6988a1033509"}, {"txinwitness": ["3045022100c975884041b08c79fd727238d787e9729f65a224b1301f11cf7423dd982da42e02200428afd5995680a4753eeb4e70e998f40e613888b6f4b8244f71532f13adb9d401", "030a78db0bd75e8af0ee5b98ca4845e9a2466d87a4a4bc733e63f8f5509bb3a75a"], "sequence": 4294967294, "scriptSig": {"hex": "160014bd34d946dd4899c9e362b6beef02dfce23ad94a7", "asm": "0014bd34d946dd4899c9e362b6beef02dfce23ad94a7"}, "vout": 1, "txid": "008aff0254313b5236c1cad70bc32e51d110ae73d2d2358b97f8bc670d1addae"}], "txid": "5b2c7344aad82d8dc1be0b980ee0226fd0298d98a721b059d801f616eca9e955", "blocktime": 1537873891, "version": 2, "confirmations": 11478, "time": 1537873891, "locktime": 542904, "vsize": 259, "size": 421}