{"hash": "5b2f5e6f0dfa794c0580634eeeabc70f583f2de108d1d52c3ad6ab50611b560f", "blockhash": "0000000000000000001f76057863aec43deb6fa401d9628bb513d65a8098bfab", "vout": [{"scriptPubKey": {"type": "nulldata", "hex": "6a4c50000077e00001b15f0a0b270be8f1c94f23bb7af8e8e963c7cfd5b95b23cc0f42c2fc38c5da02c0d93ca171c0d941a9a1deb0e2735baa169c0612408b743db2c7bc9a9526289ac0f6612cd74e33776ee4", "asm": "OP_RETURN 000077e00001b15f0a0b270be8f1c94f23bb7af8e8e963c7cfd5b95b23cc0f42c2fc38c5da02c0d93ca171c0d941a9a1deb0e2735baa169c0612408b743db2c7bc9a9526289ac0f6612cd74e33776ee4"}, "value": 0.0, "n": 0}, {"scriptPubKey": {"reqSigs": 1, "hex": "76a91427675639b95a5a225cf0ac9634316fb4df3d463688ac", "addresses": ["14bM9T4mNU761aVcYt6RnyHjUiSmoeC1eF"], "asm": "OP_DUP OP_HASH160 27675639b95a5a225cf0ac9634316fb4df3d4636 OP_EQUALVERIFY OP_CHECKSIG", "type": "pubkeyhash"}, "value": 0.00130224, "n": 1}], "hex": "01000000013daf6b323838d3283e054b7d5261aff7fc55dbc807bb890c6e3dcfcc90d131a0010000006a47304402200ed982e68d9682c4bc19e18df2460dffd3d580eb48b7a472762bca8c75a61dbf0220716f348c5f8cb86015364fc363f80ad20b2667396649f20da2fbb588b03dea630121030a0eaddda757d467263d9be9b3fb724f5afe38605d6706ba02cb1001d3c77bf8ffffffff020000000000000000536a4c50000077e00001b15f0a0b270be8f1c94f23bb7af8e8e963c7cfd5b95b23cc0f42c2fc38c5da02c0d93ca171c0d941a9a1deb0e2735baa169c0612408b743db2c7bc9a9526289ac0f6612cd74e33776ee4b0fc0100000000001976a91427675639b95a5a225cf0ac9634316fb4df3d463688ac00000000", "vin": [{"sequence": 4294967295, "scriptSig": {"hex": "47304402200ed982e68d9682c4bc19e18df2460dffd3d580eb48b7a472762bca8c75a61dbf0220716f348c5f8cb86015364fc363f80ad20b2667396649f20da2fbb588b03dea630121030a0eaddda757d467263d9be9b3fb724f5afe38605d6706ba02cb1001d3c77bf8", "asm": "304402200ed982e68d9682c4bc19e18df2460dffd3d580eb48b7a472762bca8c75a61dbf0220716f348c5f8cb86015364fc363f80ad20b2667396649f20da2fbb588b03dea63[ALL] 030a0eaddda757d467263d9be9b3fb724f5afe38605d6706ba02cb1001d3c77bf8"}, "vout": 1, "txid": "a031d190cccf3d6e0c89bb07c8db55fcf7af61527d4b053e28d33838326baf3d"}], "txid": "5b2f5e6f0dfa794c0580634eeeabc70f583f2de108d1d52c3ad6ab50611b560f", "blocktime": 1537873891, "version": 1, "confirmations": 11478, "time": 1537873891, "locktime": 0, "vsize": 283, "size": 283}