{"hash": "5b325289504cf62879a3d52eca8ba393f2b171c5f6b6ee3de11919de68f39052", "blockhash": "000000000000000000022b45ed06c6f4ccd3cf7fb5ba4856ebd2e58215665228", "vout": [{"scriptPubKey": {"reqSigs": 1, "hex": "76a9148d872c1aa35cf79229ca1e2ce869a19aed45cb2888ac", "addresses": ["1DuLCz1LDFjvhZisVWptKCWhZUHpTX3L62"], "asm": "OP_DUP OP_HASH160 8d872c1aa35cf79229ca1e2ce869a19aed45cb28 OP_EQUALVERIFY OP_CHECKSIG", "type": "pubkeyhash"}, "value": 89.28293308, "n": 0}, {"scriptPubKey": {"reqSigs": 1, "hex": "76a91453763dcd069b34a9766120c4132c9e8dbeb0ca3588ac", "addresses": ["18cJjUngwQobKzgr23XJ9nFDMUEaLEK2Pv"], "asm": "OP_DUP OP_HASH160 53763dcd069b34a9766120c4132c9e8dbeb0ca35 OP_EQUALVERIFY OP_CHECKSIG", "type": "pubkeyhash"}, "value": 0.00395935, "n": 1}], "hex": "0100000001577bdb2935ddf350188bf553530b19b29544280abafbbc8da1f95da72f157918000000006a4730440220398a872bf7986018b7892ca2c16692eee5dfa573282c78ffd6a62f7993ec84430220723c991f439952c1b88182526549d9740a59057e39ff3a294154f4353ea415d7012102ce38ce8d338b56eff2b1aad2914e5769795ab0735c7682d1773935f740f14305ffffffff02bcf12a14020000001976a9148d872c1aa35cf79229ca1e2ce869a19aed45cb2888ac9f0a0600000000001976a91453763dcd069b34a9766120c4132c9e8dbeb0ca3588ac00000000", "vin": [{"sequence": 4294967295, "scriptSig": {"hex": "4730440220398a872bf7986018b7892ca2c16692eee5dfa573282c78ffd6a62f7993ec84430220723c991f439952c1b88182526549d9740a59057e39ff3a294154f4353ea415d7012102ce38ce8d338b56eff2b1aad2914e5769795ab0735c7682d1773935f740f14305", "asm": "30440220398a872bf7986018b7892ca2c16692eee5dfa573282c78ffd6a62f7993ec84430220723c991f439952c1b88182526549d9740a59057e39ff3a294154f4353ea415d7[ALL] 02ce38ce8d338b56eff2b1aad2914e5769795ab0735c7682d1773935f740f14305"}, "vout": 0, "txid": "1879152fa75df9a18dbcfbba0a284495b2190b5353f58b1850f3dd3529db7b57"}], "txid": "5b325289504cf62879a3d52eca8ba393f2b171c5f6b6ee3de11919de68f39052", "blocktime": 1537869901, "version": 1, "confirmations": 11522, "time": 1537869901, "locktime": 0, "vsize": 225, "size": 225}