{"hash": "5b335e8f5c50ee5ce9653e4161ed58e15350ed4f9a59b932c1a9086284ab8753", "blockhash": "0000000000000000001f76057863aec43deb6fa401d9628bb513d65a8098bfab", "vout": [{"scriptPubKey": {"reqSigs": 1, "hex": "a914362f497c67751bd3b801f5f93d6b10b7420a9b6087", "addresses": ["36dX4TuefKjsZ3rLR9nwyC6jbnbU4si6BZ"], "asm": "OP_HASH160 362f497c67751bd3b801f5f93d6b10b7420a9b60 OP_EQUAL", "type": "scripthash"}, "value": 0.00580162, "n": 0}, {"scriptPubKey": {"reqSigs": 1, "hex": "a914720c6da9ab6d731f6e2aa0cbdf9f2453e09a45b187", "addresses": ["3C63qx6UyCSji9GDTPFu3JFTSnLKtZo91r"], "asm": "OP_HASH160 720c6da9ab6d731f6e2aa0cbdf9f2453e09a45b1 OP_EQUAL", "type": "scripthash"}, "value": 0.07412804, "n": 1}], "hex": "010000000102f5608e8a73382175e63058594766cf607d3ad17bbb2eccb639230aa188eebb01000000da004830450221008ba74ffeeb79386541d1fcfe4777d3ab47a38585d7c69c310bd6e1e63ebc83e902206a7560830f99e2cb310d74b174fce174e058b2ecdc29929a08d6d84a1e00318c014730440220008796ca85567440f707c3f171b0eede673d3311d51533411df4a6a84d63622202200318268ff4fcf853727ecf143dee0e866d001f190d2b0794271bae2617dafa600147522103f2d250ed5140d655fe49f9b9f857ff223c9290b9bbe8b68a50d522cf45e633702102045f2de7b3abee8ca375163a8879a6719ef3e6d7ffc88aa3008e11b5b89eb7ee52aeffffffff0242da08000000000017a914362f497c67751bd3b801f5f93d6b10b7420a9b6087441c71000000000017a914720c6da9ab6d731f6e2aa0cbdf9f2453e09a45b18700000000", "vin": [{"sequence": 4294967295, "scriptSig": {"hex": "004830450221008ba74ffeeb79386541d1fcfe4777d3ab47a38585d7c69c310bd6e1e63ebc83e902206a7560830f99e2cb310d74b174fce174e058b2ecdc29929a08d6d84a1e00318c014730440220008796ca85567440f707c3f171b0eede673d3311d51533411df4a6a84d63622202200318268ff4fcf853727ecf143dee0e866d001f190d2b0794271bae2617dafa600147522103f2d250ed5140d655fe49f9b9f857ff223c9290b9bbe8b68a50d522cf45e633702102045f2de7b3abee8ca375163a8879a6719ef3e6d7ffc88aa3008e11b5b89eb7ee52ae", "asm": "0 30450221008ba74ffeeb79386541d1fcfe4777d3ab47a38585d7c69c310bd6e1e63ebc83e902206a7560830f99e2cb310d74b174fce174e058b2ecdc29929a08d6d84a1e00318c[ALL] 30440220008796ca85567440f707c3f171b0eede673d3311d51533411df4a6a84d63622202200318268ff4fcf853727ecf143dee0e866d001f190d2b0794271bae2617dafa60[ALL] 522103f2d250ed5140d655fe49f9b9f857ff223c9290b9bbe8b68a50d522cf45e633702102045f2de7b3abee8ca375163a8879a6719ef3e6d7ffc88aa3008e11b5b89eb7ee52ae"}, "vout": 1, "txid": "bbee88a10a2339b6cc2ebb7bd13a7d60cf6647595830e6752138738a8e60f502"}], "txid": "5b335e8f5c50ee5ce9653e4161ed58e15350ed4f9a59b932c1a9086284ab8753", "blocktime": 1537873891, "version": 1, "confirmations": 11475, "time": 1537873891, "locktime": 0, "vsize": 333, "size": 333}