{"hash": "4b282e5f4248115572e336c423f29813db9b13b74582514074cc535420f1a704", "blockhash": "0000000000000000001cda96e906b7601b7a6fb1a3b62bca570a9e5d8f4b3de1", "vout": [{"scriptPubKey": {"reqSigs": 1, "hex": "76a914ac9c24d1185f8d50195d890d4fb2eda0ce09a73688ac", "addresses": ["1GjgH4KsJSz4jSMBn9Dx2UgX1TxUtd4qBt"], "asm": "OP_DUP OP_HASH160 ac9c24d1185f8d50195d890d4fb2eda0ce09a736 OP_EQUALVERIFY OP_CHECKSIG", "type": "pubkeyhash"}, "value": 0.011093, "n": 0}, {"scriptPubKey": {"reqSigs": 1, "hex": "a914c26e83ece7f65beff0e252ecd2fd5403e10ca99587", "addresses": ["3KR5QVtQB6sCqdUacdb3vb8QTkauyqsbut"], "asm": "OP_HASH160 c26e83ece7f65beff0e252ecd2fd5403e10ca995 OP_EQUAL", "type": "scripthash"}, "value": 0.27660383, "n": 1}], "hex": "01000000000101a59377d94cc36ff6325766f44c5ac098bd5c074c6409fcb9056ec72ecd001286010000002322002061b7e0679c39feb972a76917fed8b59a2af28b216dde6dcf6b3205156948ce58ffffffff0234ed1000000000001976a914ac9c24d1185f8d50195d890d4fb2eda0ce09a73688ac5f10a6010000000017a914c26e83ece7f65beff0e252ecd2fd5403e10ca99587040047304402207b204582fdeeaf27a863da509b75371bb16f6a638d6d1085284b2f589c2b2b670220616188566b124860cd31162eea0ea1ac7535be28e513291cdc29223666c081cc014730440220566cf4df7052e0ad79a25ddc51d2e1ead02a2209a6501dbaa0d36d8e27700eb4022028a72dda18c5ae02555993f0632928484c386a4d10aad5514a0995db3a5daf0f014752210334016f8ee34d545e41a39e49929d1d9d91db6b3d60e6e69635ba210692b768a42102dd2332c0512dee4ea813748993f8056f254166d97719c8c2e4e8f542e54e1af152ae00000000", "vin": [{"txinwitness": ["", "304402207b204582fdeeaf27a863da509b75371bb16f6a638d6d1085284b2f589c2b2b670220616188566b124860cd31162eea0ea1ac7535be28e513291cdc29223666c081cc01", "30440220566cf4df7052e0ad79a25ddc51d2e1ead02a2209a6501dbaa0d36d8e27700eb4022028a72dda18c5ae02555993f0632928484c386a4d10aad5514a0995db3a5daf0f01", "52210334016f8ee34d545e41a39e49929d1d9d91db6b3d60e6e69635ba210692b768a42102dd2332c0512dee4ea813748993f8056f254166d97719c8c2e4e8f542e54e1af152ae"], "sequence": 4294967295, "scriptSig": {"hex": "22002061b7e0679c39feb972a76917fed8b59a2af28b216dde6dcf6b3205156948ce58", "asm": "002061b7e0679c39feb972a76917fed8b59a2af28b216dde6dcf6b3205156948ce58"}, "vout": 1, "txid": "861200cd2ec76e05b9fc09644c075cbd98c05a4cf4665732f66fc34cd97793a5"}], "txid": "5b34f6f806d4710408284ea352a0ca46bb74feba3bb27d0954173f32fa1bb550", "blocktime": 1537873282, "version": 1, "confirmations": 11484, "time": 1537873282, "locktime": 0, "vsize": 207, "size": 372}