{"hash": "5b3837a752f9a79e21d263b540e8a959876d6b8f93fab908f8eebd40030d8e7f", "blockhash": "00000000000000000017f5eb5941039fbcee6240d03bc1f2f8e35350df66a1d8", "vout": [{"scriptPubKey": {"reqSigs": 1, "hex": "76a9142d137edd32a9cf186ecafb3cb3b8b10a202ba67288ac", "addresses": ["157LmD45tp4oAZRifSVRNfzV8eG56dm2P6"], "asm": "OP_DUP OP_HASH160 2d137edd32a9cf186ecafb3cb3b8b10a202ba672 OP_EQUALVERIFY OP_CHECKSIG", "type": "pubkeyhash"}, "value": 7.59e-05, "n": 0}, {"scriptPubKey": {"reqSigs": 1, "hex": "a914d9853168cfb61d7d40b6b52980365c24c747a9ba87", "addresses": ["3MXA7anD3agEXaGfSAKSnVTniQ2kA5mJgS"], "asm": "OP_HASH160 d9853168cfb61d7d40b6b52980365c24c747a9ba OP_EQUAL", "type": "scripthash"}, "value": 0.00125135, "n": 1}], "hex": "010000000115afe69824067240e1e35b804603d07cb47b8981dafb67ba2c703d9a0f4d81fe000000006b4830450221008dbbabd070031f9f48e54a8b912bc4df3ba1553ea3f0a92e86eb1602c9e97ae5022001c62ddb0b912edb0a2bd63750b86e0b60afce18af1879d9a875ed0ff5c2b7a90121025632c5cabae991eca90b86d00e712d47e9be843a0d7adba088a04349b15de056ffffffff02a61d0000000000001976a9142d137edd32a9cf186ecafb3cb3b8b10a202ba67288accfe801000000000017a914d9853168cfb61d7d40b6b52980365c24c747a9ba8700000000", "vin": [{"sequence": 4294967295, "scriptSig": {"hex": "4830450221008dbbabd070031f9f48e54a8b912bc4df3ba1553ea3f0a92e86eb1602c9e97ae5022001c62ddb0b912edb0a2bd63750b86e0b60afce18af1879d9a875ed0ff5c2b7a90121025632c5cabae991eca90b86d00e712d47e9be843a0d7adba088a04349b15de056", "asm": "30450221008dbbabd070031f9f48e54a8b912bc4df3ba1553ea3f0a92e86eb1602c9e97ae5022001c62ddb0b912edb0a2bd63750b86e0b60afce18af1879d9a875ed0ff5c2b7a9[ALL] 025632c5cabae991eca90b86d00e712d47e9be843a0d7adba088a04349b15de056"}, "vout": 0, "txid": "fe814d0f9a3d702cba67fbda81897bb47cd00346805be3e14072062498e6af15"}], "txid": "5b3837a752f9a79e21d263b540e8a959876d6b8f93fab908f8eebd40030d8e7f", "blocktime": 1537874412, "version": 1, "confirmations": 11467, "time": 1537874412, "locktime": 0, "vsize": 224, "size": 224}