{"hash": "5b38c923a24010c4d31607834b55e12bbccdd1fcb4ff82af3fd6b4f2e5b4face", "blockhash": "0000000000000000001cda96e906b7601b7a6fb1a3b62bca570a9e5d8f4b3de1", "vout": [{"scriptPubKey": {"reqSigs": 1, "hex": "76a914f9d282cb40b7568e883ba2b75cc6b5f3ae2202c588ac", "addresses": ["1PmwSKb8v1XmtUjtmZw2x64c3AwBmkukQE"], "asm": "OP_DUP OP_HASH160 f9d282cb40b7568e883ba2b75cc6b5f3ae2202c5 OP_EQUALVERIFY OP_CHECKSIG", "type": "pubkeyhash"}, "value": 0.00042934, "n": 0}, {"scriptPubKey": {"reqSigs": 1, "hex": "a914f1ed497048703233e1d3d73cf2fef3134a2eeffe87", "addresses": ["3PkD2kn9ihGToY1oz7Y7fSu8KjehNwGMtF"], "asm": "OP_HASH160 f1ed497048703233e1d3d73cf2fef3134a2eeffe OP_EQUAL", "type": "scripthash"}, "value": 0.02734663, "n": 1}], "hex": "010000000116a7359c86092337b6d77e0ae54f26bd82f515864d4677176ecc4c594c610fe8020000006b483045022100f51f6a91c69e5f8f3b986b44ebb8c49a4bf2eee5c76bb5fd1ffe45bff0af50ca02200526ff5c9ca5df3d7efe9512c15e2af98bbf4cb62b97b3cc6021a51f3519fecd012102e4a102586b9c953dd4c48f7d1e84fd9a7fa44da27e924242817282d51977feeeffffffff02b6a70000000000001976a914f9d282cb40b7568e883ba2b75cc6b5f3ae2202c588ac47ba29000000000017a914f1ed497048703233e1d3d73cf2fef3134a2eeffe8700000000", "vin": [{"sequence": 4294967295, "scriptSig": {"hex": "483045022100f51f6a91c69e5f8f3b986b44ebb8c49a4bf2eee5c76bb5fd1ffe45bff0af50ca02200526ff5c9ca5df3d7efe9512c15e2af98bbf4cb62b97b3cc6021a51f3519fecd012102e4a102586b9c953dd4c48f7d1e84fd9a7fa44da27e924242817282d51977feee", "asm": "3045022100f51f6a91c69e5f8f3b986b44ebb8c49a4bf2eee5c76bb5fd1ffe45bff0af50ca02200526ff5c9ca5df3d7efe9512c15e2af98bbf4cb62b97b3cc6021a51f3519fecd[ALL] 02e4a102586b9c953dd4c48f7d1e84fd9a7fa44da27e924242817282d51977feee"}, "vout": 2, "txid": "e80f614c594ccc6e1777464d8615f582bd264fe50a7ed7b6372309869c35a716"}], "txid": "5b38c923a24010c4d31607834b55e12bbccdd1fcb4ff82af3fd6b4f2e5b4face", "blocktime": 1537873282, "version": 1, "confirmations": 11485, "time": 1537873282, "locktime": 0, "vsize": 224, "size": 224}