{"hash": "5f08208eb47caba7e7696b5c70efa97dd2bf3b9350461c325fe7e6758da5420b", "blockhash": "0000000000000000001f0ddff1eddb255c1121bcd4da4f1bc9a0da00cae72433", "vout": [{"scriptPubKey": {"reqSigs": 1, "hex": "a91469f375c6a8cc52abc133d1eb247ae7713f1dee8e87", "addresses": ["3BMEXb379f96Y2scsKarGsmqZPrZ7exFHi"], "asm": "OP_HASH160 69f375c6a8cc52abc133d1eb247ae7713f1dee8e OP_EQUAL", "type": "scripthash"}, "value": 0.002, "n": 0}, {"scriptPubKey": {"reqSigs": 1, "hex": "a914de5f92ef335daee7253920b254746065514643ec87", "addresses": ["3MxpRj2cJn4DcrKohQyfnHCxN2P2nHANo8"], "asm": "OP_HASH160 de5f92ef335daee7253920b254746065514643ec OP_EQUAL", "type": "scripthash"}, "value": 0.01086612, "n": 1}], "hex": "020000000001013554c1487c3b7f5c9ef969786d56dae89d19b98135a32b1c456277209901a6a70100000017160014b73c4dfeed03a28aa840a21102e585272cf70322fdffffff02400d03000000000017a91469f375c6a8cc52abc133d1eb247ae7713f1dee8e87949410000000000017a914de5f92ef335daee7253920b254746065514643ec8702473044022027f49d5516823d948d2b48507a97529a411398ff76845b357c8a2ec52401eb9a0220060c2a711b569cf46d83e03997bc1a156c39247f2e317f7bcae64ce35f997df801210369410cd38bedf4e29fb0600af0793e6902d68ecd90d6093a1625276b550d6c3d10490800", "vin": [{"txinwitness": ["3044022027f49d5516823d948d2b48507a97529a411398ff76845b357c8a2ec52401eb9a0220060c2a711b569cf46d83e03997bc1a156c39247f2e317f7bcae64ce35f997df801", "0369410cd38bedf4e29fb0600af0793e6902d68ecd90d6093a1625276b550d6c3d"], "sequence": 4294967293, "scriptSig": {"hex": "160014b73c4dfeed03a28aa840a21102e585272cf70322", "asm": "0014b73c4dfeed03a28aa840a21102e585272cf70322"}, "vout": 1, "txid": "a7a60199207762451c2ba33581b9199de8da566d7869f99e5c7f3b7c48c15435"}], "txid": "5b40c09c298c19bd6be0df104a14935b48707c621acaad261d5ea71b79581315", "blocktime": 1537872018, "version": 2, "confirmations": 11489, "time": 1537872018, "locktime": 542992, "vsize": 166, "size": 247}