{"hash": "5635bb25333cc3608e488879fc05a0012a817797d755d84d18f8c0d904ad87d9", "blockhash": "00000000000000000017f5eb5941039fbcee6240d03bc1f2f8e35350df66a1d8", "vout": [{"scriptPubKey": {"reqSigs": 1, "hex": "76a914ed8151bf5c944438fde924bc6dd6649dcd9fdb2188ac", "addresses": ["1Nep4jEP9QBB3duyS6TLDje5sMAtGsm1vS"], "asm": "OP_DUP OP_HASH160 ed8151bf5c944438fde924bc6dd6649dcd9fdb21 OP_EQUALVERIFY OP_CHECKSIG", "type": "pubkeyhash"}, "value": 0.00970013, "n": 0}, {"scriptPubKey": {"reqSigs": 1, "hex": "a914cfaabfe8c271f99a4364b5197ba50c6cddb7adb987", "addresses": ["3Ld4M9RPwEG3VeQbHcC1PsKUndQL7VYLZP"], "asm": "OP_HASH160 cfaabfe8c271f99a4364b5197ba50c6cddb7adb9 OP_EQUAL", "type": "scripthash"}, "value": 0.02081032, "n": 1}], "hex": "01000000000101b4f0d0b9705189c2e636a6a69baf2c1469f7af47230f1cac6dda37c56330b1ac01000000232200202f7b4024602241b47d3306a6733d9889e4b6761d9f1cb82a18aa8b9ac4506e51ffffffff021dcd0e00000000001976a914ed8151bf5c944438fde924bc6dd6649dcd9fdb2188ac08c11f000000000017a914cfaabfe8c271f99a4364b5197ba50c6cddb7adb9870400473044022049c1aa3da7001c15a3260b4193c74118eb6a384ecc2d80b77253fd7df744042a02202f57ae593062edca9c6a0cc9d241b4b1333fd27e898d5315ae43158ff306a3c601473044022003c2300e0a7dd247041b183218d59f2505a58eee5b2acd51a3d517d74685ff1d02206d357765e1fc7f30deeb38b854c620e002fa2d903a4712423e97324829d128300147522102973cd851fecff3a20f08377b072729f303801eee1b7678668338adcaec770ec221033e4af03ed09dbd8a417ba042650d5bd1db7f14f271a8f660974e3abf1fdfa4da52ae00000000", "vin": [{"txinwitness": ["", "3044022049c1aa3da7001c15a3260b4193c74118eb6a384ecc2d80b77253fd7df744042a02202f57ae593062edca9c6a0cc9d241b4b1333fd27e898d5315ae43158ff306a3c601", "3044022003c2300e0a7dd247041b183218d59f2505a58eee5b2acd51a3d517d74685ff1d02206d357765e1fc7f30deeb38b854c620e002fa2d903a4712423e97324829d1283001", "522102973cd851fecff3a20f08377b072729f303801eee1b7678668338adcaec770ec221033e4af03ed09dbd8a417ba042650d5bd1db7f14f271a8f660974e3abf1fdfa4da52ae"], "sequence": 4294967295, "scriptSig": {"hex": "2200202f7b4024602241b47d3306a6733d9889e4b6761d9f1cb82a18aa8b9ac4506e51", "asm": "00202f7b4024602241b47d3306a6733d9889e4b6761d9f1cb82a18aa8b9ac4506e51"}, "vout": 1, "txid": "acb13063c537da6dac1c0f2347aff769142caf9ba6a636e6c2895170b9d0f0b4"}], "txid": "5b4797fdb8d228aa0998804073c6d872b75b1a2328d7c40030a99dada241e37c", "blocktime": 1537874412, "version": 1, "confirmations": 11467, "time": 1537874412, "locktime": 0, "vsize": 207, "size": 372}