{"hash": "5b503933369c0cf39585c6ab88069182d279cb6dcd719cb347cd79c5059d2805", "blockhash": "00000000000000000017f5eb5941039fbcee6240d03bc1f2f8e35350df66a1d8", "vout": [{"scriptPubKey": {"reqSigs": 1, "hex": "76a91484c05707575e21c99757a1db4a1e6c10db18673588ac", "addresses": ["1D6vcLVQKNVNtfrik6fmmgXKuqqabfsSCW"], "asm": "OP_DUP OP_HASH160 84c05707575e21c99757a1db4a1e6c10db186735 OP_EQUALVERIFY OP_CHECKSIG", "type": "pubkeyhash"}, "value": 0.00327324, "n": 0}, {"scriptPubKey": {"reqSigs": 1, "hex": "76a91405f5bbd0b77c15bc98307e66537e5360ba32b5c588ac", "addresses": ["1YWkqJHL7W9bMhwXrA1spHyVqyt8eMBtN"], "asm": "OP_DUP OP_HASH160 05f5bbd0b77c15bc98307e66537e5360ba32b5c5 OP_EQUALVERIFY OP_CHECKSIG", "type": "pubkeyhash"}, "value": 0.04, "n": 1}], "hex": "01000000036d1e454af01f35ceb1f824045123e7e0e2ea5134a04dedeb39af8c1c386af58a000000006b483045022100abae9a140a77ee1f5d776466ecf845ec8cb9031181d9aca4ed897839a6415a670220242d297bed01752c8890b47dd6af5ed8f45af4942e83a3c992347bb1e81a8560012102a596793b4cae4ac51cf376af5936ce3d016c714c163fdfb12625b9a0dfd4e18dffffffffce57bb020d63700036a78bfccd097f9f808e00dbf8c3408058efe948ffc0ed8c010000006b483045022100e4c197899081414c529dd59ffff894108bf59445c9299e2ccb81468533a7cfa1022041ea52dd265147feb3e6813b11f41ba7738aead701bf14cddb9e3393c62381dc012103e4f6e50739fd829de9a7951d3422d89cb78c69256046458b33458edf576be285ffffffff39a45fd40b7183cd0808271c607c62a0e627c5b5a4738ebe409a621a80f64d91010000006b483045022100ac4e3f232906c984904b081e254686e89cd9604425428158218598a3de1585ca0220530863b5374bbed47cc2c257dcc072216aea40636aa54220c0e69838de9046e0012102ec42261c21026933eb1b4b6a2fc91d006e95e53dc51f9e7def36311a640758f8ffffffff029cfe0400000000001976a91484c05707575e21c99757a1db4a1e6c10db18673588ac00093d00000000001976a91405f5bbd0b77c15bc98307e66537e5360ba32b5c588ac00000000", "vin": [{"sequence": 4294967295, "scriptSig": {"hex": "483045022100abae9a140a77ee1f5d776466ecf845ec8cb9031181d9aca4ed897839a6415a670220242d297bed01752c8890b47dd6af5ed8f45af4942e83a3c992347bb1e81a8560012102a596793b4cae4ac51cf376af5936ce3d016c714c163fdfb12625b9a0dfd4e18d", "asm": "3045022100abae9a140a77ee1f5d776466ecf845ec8cb9031181d9aca4ed897839a6415a670220242d297bed01752c8890b47dd6af5ed8f45af4942e83a3c992347bb1e81a8560[ALL] 02a596793b4cae4ac51cf376af5936ce3d016c714c163fdfb12625b9a0dfd4e18d"}, "vout": 0, "txid": "8af56a381c8caf39ebed4da03451eae2e0e723510424f8b1ce351ff04a451e6d"}, {"sequence": 4294967295, "scriptSig": {"hex": "483045022100e4c197899081414c529dd59ffff894108bf59445c9299e2ccb81468533a7cfa1022041ea52dd265147feb3e6813b11f41ba7738aead701bf14cddb9e3393c62381dc012103e4f6e50739fd829de9a7951d3422d89cb78c69256046458b33458edf576be285", "asm": "3045022100e4c197899081414c529dd59ffff894108bf59445c9299e2ccb81468533a7cfa1022041ea52dd265147feb3e6813b11f41ba7738aead701bf14cddb9e3393c62381dc[ALL] 03e4f6e50739fd829de9a7951d3422d89cb78c69256046458b33458edf576be285"}, "vout": 1, "txid": "8cedc0ff48e9ef588040c3f8db008e809f7f09cdfc8ba7360070630d02bb57ce"}, {"sequence": 4294967295, "scriptSig": {"hex": "483045022100ac4e3f232906c984904b081e254686e89cd9604425428158218598a3de1585ca0220530863b5374bbed47cc2c257dcc072216aea40636aa54220c0e69838de9046e0012102ec42261c21026933eb1b4b6a2fc91d006e95e53dc51f9e7def36311a640758f8", "asm": "3045022100ac4e3f232906c984904b081e254686e89cd9604425428158218598a3de1585ca0220530863b5374bbed47cc2c257dcc072216aea40636aa54220c0e69838de9046e0[ALL] 02ec42261c21026933eb1b4b6a2fc91d006e95e53dc51f9e7def36311a640758f8"}, "vout": 1, "txid": "914df6801a629a40be8e73a4b5c527e6a0627c601c270808cd83710bd45fa439"}], "txid": "5b503933369c0cf39585c6ab88069182d279cb6dcd719cb347cd79c5059d2805", "blocktime": 1537874412, "version": 1, "confirmations": 11468, "time": 1537874412, "locktime": 0, "vsize": 522, "size": 522}