{"hash": "5b526b3a0c9a6b1a07afb2110f3a2195e181e309fdd5366b800c2f2aa918ec23", "blockhash": "0000000000000000001f76057863aec43deb6fa401d9628bb513d65a8098bfab", "vout": [{"scriptPubKey": {"reqSigs": 1, "hex": "a9142d4869f020a73ba333f2819487d7d3eb8103e6be87", "addresses": ["35pT5aPpCDkmkPATyupNjAyHR9hWpsskdS"], "asm": "OP_HASH160 2d4869f020a73ba333f2819487d7d3eb8103e6be OP_EQUAL", "type": "scripthash"}, "value": 1.8441218, "n": 0}, {"scriptPubKey": {"reqSigs": 1, "hex": "a914384a929eab58449c267321c5b365760fda527dc487", "addresses": ["36pf6h1WhciezLfdkTBTdF7eVYY2kUaN8x"], "asm": "OP_HASH160 384a929eab58449c267321c5b365760fda527dc4 OP_EQUAL", "type": "scripthash"}, "value": 0.01, "n": 1}], "hex": "020000000176c384e893c9c105fc36d42f9910c33d88c218d83d6b2bd9279763ee423b332700000000fc0047304402205a86f5320e218410a92b552231a077d222dda66260ab08dfe4fb414aa4cef6bb022061e776a7bea723e56b41b62c5097e8dadaaaf233861a7be276b5a8ec0c3eaa030147304402205e34cb9c071fb31c181f83ff8a83360c90cc3024b3fa0ec6932cd2952d6fe6b80220316f00e4418369a7803e16a3264ae4f21898d620c1d418364b494c5e34158c58014c69522102fb7d0c8c8b80911f0af02acf1ba87eb4b0c9e5028b5b9a40c2a002f4a90c76ba210274e0508a16e02ce0217d492e21bc004b58968d9b8c1b87fd7958b0cc58a5d23021036995f6974ec93cbdb6d9ca8f243499449135d736e408062b6e9c2734962d1df353ae000000000214e8fd0a0000000017a9142d4869f020a73ba333f2819487d7d3eb8103e6be8740420f000000000017a914384a929eab58449c267321c5b365760fda527dc48700000000", "vin": [{"sequence": 0, "scriptSig": {"hex": "0047304402205a86f5320e218410a92b552231a077d222dda66260ab08dfe4fb414aa4cef6bb022061e776a7bea723e56b41b62c5097e8dadaaaf233861a7be276b5a8ec0c3eaa030147304402205e34cb9c071fb31c181f83ff8a83360c90cc3024b3fa0ec6932cd2952d6fe6b80220316f00e4418369a7803e16a3264ae4f21898d620c1d418364b494c5e34158c58014c69522102fb7d0c8c8b80911f0af02acf1ba87eb4b0c9e5028b5b9a40c2a002f4a90c76ba210274e0508a16e02ce0217d492e21bc004b58968d9b8c1b87fd7958b0cc58a5d23021036995f6974ec93cbdb6d9ca8f243499449135d736e408062b6e9c2734962d1df353ae", "asm": "0 304402205a86f5320e218410a92b552231a077d222dda66260ab08dfe4fb414aa4cef6bb022061e776a7bea723e56b41b62c5097e8dadaaaf233861a7be276b5a8ec0c3eaa03[ALL] 304402205e34cb9c071fb31c181f83ff8a83360c90cc3024b3fa0ec6932cd2952d6fe6b80220316f00e4418369a7803e16a3264ae4f21898d620c1d418364b494c5e34158c58[ALL] 522102fb7d0c8c8b80911f0af02acf1ba87eb4b0c9e5028b5b9a40c2a002f4a90c76ba210274e0508a16e02ce0217d492e21bc004b58968d9b8c1b87fd7958b0cc58a5d23021036995f6974ec93cbdb6d9ca8f243499449135d736e408062b6e9c2734962d1df353ae"}, "vout": 0, "txid": "27333b42ee639727d92b6b3dd818c2883dc310992fd436fc05c1c993e884c376"}], "txid": "5b526b3a0c9a6b1a07afb2110f3a2195e181e309fdd5366b800c2f2aa918ec23", "blocktime": 1537873891, "version": 2, "confirmations": 11475, "time": 1537873891, "locktime": 0, "vsize": 367, "size": 367}