{"hash": "5b55c922508629dba41d5d7583da0c32916db75f7bf4be2678dd3fdc31dc6b84", "blockhash": "0000000000000000001e0dab787dd257d1dbfcb92a98c2207d5e1078be1f4165", "vout": [{"scriptPubKey": {"reqSigs": 1, "hex": "76a914454349c07f64f20d0f19a1f720aa953f8281243088ac", "addresses": ["17KEEViBVXCXahZc833yq1fZg5oUZmPeBj"], "asm": "OP_DUP OP_HASH160 454349c07f64f20d0f19a1f720aa953f82812430 OP_EQUALVERIFY OP_CHECKSIG", "type": "pubkeyhash"}, "value": 0.00313582, "n": 0}, {"scriptPubKey": {"reqSigs": 1, "hex": "76a914839571157222102b5e76b032a6f4ae9a2ac92aae88ac", "addresses": ["1CzkYXMvV2XnYV4DTgaGY4eGoRS8bqTkiJ"], "asm": "OP_DUP OP_HASH160 839571157222102b5e76b032a6f4ae9a2ac92aae OP_EQUALVERIFY OP_CHECKSIG", "type": "pubkeyhash"}, "value": 0.00039024, "n": 1}], "hex": "0100000001f3d0932341588ee05ab4ae77a719c9a9fe3bff57f4e00cf4660864fac9a897b1010000006b483045022100a37ac5a7021481ba4f8b4f585d0c34cf6805bd51c557535e2a89546a7938fbfd022053950366c31a6e829869facaa322548311333d551b73ffd1c21ea3c5b393428e012103126333264ac6ed49ad2afe921101d74b9927dabc64d490f184af8c336c0a4f8bffffffff02eec80400000000001976a914454349c07f64f20d0f19a1f720aa953f8281243088ac70980000000000001976a914839571157222102b5e76b032a6f4ae9a2ac92aae88ac00000000", "vin": [{"sequence": 4294967295, "scriptSig": {"hex": "483045022100a37ac5a7021481ba4f8b4f585d0c34cf6805bd51c557535e2a89546a7938fbfd022053950366c31a6e829869facaa322548311333d551b73ffd1c21ea3c5b393428e012103126333264ac6ed49ad2afe921101d74b9927dabc64d490f184af8c336c0a4f8b", "asm": "3045022100a37ac5a7021481ba4f8b4f585d0c34cf6805bd51c557535e2a89546a7938fbfd022053950366c31a6e829869facaa322548311333d551b73ffd1c21ea3c5b393428e[ALL] 03126333264ac6ed49ad2afe921101d74b9927dabc64d490f184af8c336c0a4f8b"}, "vout": 1, "txid": "b197a8c9fa640866f40ce0f457ff3bfea9c919a777aeb45ae08e58412393d0f3"}], "txid": "5b55c922508629dba41d5d7583da0c32916db75f7bf4be2678dd3fdc31dc6b84", "blocktime": 1537872475, "version": 1, "confirmations": 11486, "time": 1537872475, "locktime": 0, "vsize": 226, "size": 226}