{"hash": "5b5ba512d6b997348af6ae4a63c25e375a5f40c7d4350a693d76a452921acb32", "blockhash": "0000000000000000001cda96e906b7601b7a6fb1a3b62bca570a9e5d8f4b3de1", "vout": [{"scriptPubKey": {"reqSigs": 1, "hex": "76a914e8910b2780744d1df5f284d78532949a0401a9ea88ac", "addresses": ["1NChXJuQM81trv7bR7NyoAbMw8WXG6kam1"], "asm": "OP_DUP OP_HASH160 e8910b2780744d1df5f284d78532949a0401a9ea OP_EQUALVERIFY OP_CHECKSIG", "type": "pubkeyhash"}, "value": 0.00406, "n": 0}, {"scriptPubKey": {"reqSigs": 1, "hex": "76a91467fd4e0b5edd6ce288017b26152036f02501894188ac", "addresses": ["1AUr3gxCeeHzS1xMfA16zLtkbBL9MaAdwK"], "asm": "OP_DUP OP_HASH160 67fd4e0b5edd6ce288017b26152036f025018941 OP_EQUALVERIFY OP_CHECKSIG", "type": "pubkeyhash"}, "value": 0.02485631, "n": 1}], "hex": "01000000017c5975f5ed46f246cec2de21243e245a94aed4bf15bf3bfb05b34c2cd06480a9010000006b483045022100defeb53972d62dd8e55dd0f601ae26cd00698de989ff128e99056e01e8904b7602206f4ce73bd2e0aaf436d454e87bb8ea93466e1f5d8d9c4ef795204b9af84475790121032c06e650370998fc313ee9ba15efc2baefa5746791d56a8c7a4e95b667567b0fffffffff02f0310600000000001976a914e8910b2780744d1df5f284d78532949a0401a9ea88ac7fed2500000000001976a91467fd4e0b5edd6ce288017b26152036f02501894188ac00000000", "vin": [{"sequence": 4294967295, "scriptSig": {"hex": "483045022100defeb53972d62dd8e55dd0f601ae26cd00698de989ff128e99056e01e8904b7602206f4ce73bd2e0aaf436d454e87bb8ea93466e1f5d8d9c4ef795204b9af84475790121032c06e650370998fc313ee9ba15efc2baefa5746791d56a8c7a4e95b667567b0f", "asm": "3045022100defeb53972d62dd8e55dd0f601ae26cd00698de989ff128e99056e01e8904b7602206f4ce73bd2e0aaf436d454e87bb8ea93466e1f5d8d9c4ef795204b9af8447579[ALL] 032c06e650370998fc313ee9ba15efc2baefa5746791d56a8c7a4e95b667567b0f"}, "vout": 1, "txid": "a98064d02c4cb305fb3bbf15bfd4ae945a243e2421dec2ce46f246edf575597c"}], "txid": "5b5ba512d6b997348af6ae4a63c25e375a5f40c7d4350a693d76a452921acb32", "blocktime": 1537873282, "version": 1, "confirmations": 11485, "time": 1537873282, "locktime": 0, "vsize": 226, "size": 226}