{"hash": "5b5d3a93d1bc890a7cac1286884fef79f8f091b3a6495ebc1028d5a40600fc7f", "blockhash": "0000000000000000000baef3f32e3676a92c3b2e5da21b426e4f302fc371ce76", "vout": [{"scriptPubKey": {"reqSigs": 1, "hex": "76a914d41a78521a1509d4a47304e3a3c191eb47d0734d88ac", "addresses": ["1LLVxqVb8jZyQAFjssiPJYKpxMeW8N8ocQ"], "asm": "OP_DUP OP_HASH160 d41a78521a1509d4a47304e3a3c191eb47d0734d OP_EQUALVERIFY OP_CHECKSIG", "type": "pubkeyhash"}, "value": 0.00055667, "n": 0}, {"scriptPubKey": {"reqSigs": 1, "hex": "76a9140d670e08b8b539eec5c1eb4dae50998b23cefb8c88ac", "addresses": ["12DsEsMpn1rSsMn9tgxxDUWFFZVMhMTniB"], "asm": "OP_DUP OP_HASH160 0d670e08b8b539eec5c1eb4dae50998b23cefb8c OP_EQUALVERIFY OP_CHECKSIG", "type": "pubkeyhash"}, "value": 0.01206814, "n": 1}], "hex": "01000000011c18b5726e4146a5b0535558fa7b2d749a96e8c48bd39d5e375b8fb5c1cf28fb000000006a47304402201dcafc50241e22bb6151b8161f9e0ebb9edc4e49a7bf7044adada28b4731eed90220327acc388d64ee29ca30ca681cccc2032ab44ffb6daa12999150021e012ec6e90121039eef3949fba3499bd87c4a03534ecdf32b9bef5d68feb2045457a897a61f36caffffffff0273d90000000000001976a914d41a78521a1509d4a47304e3a3c191eb47d0734d88ac1e6a1200000000001976a9140d670e08b8b539eec5c1eb4dae50998b23cefb8c88ac00000000", "vin": [{"sequence": 4294967295, "scriptSig": {"hex": "47304402201dcafc50241e22bb6151b8161f9e0ebb9edc4e49a7bf7044adada28b4731eed90220327acc388d64ee29ca30ca681cccc2032ab44ffb6daa12999150021e012ec6e90121039eef3949fba3499bd87c4a03534ecdf32b9bef5d68feb2045457a897a61f36ca", "asm": "304402201dcafc50241e22bb6151b8161f9e0ebb9edc4e49a7bf7044adada28b4731eed90220327acc388d64ee29ca30ca681cccc2032ab44ffb6daa12999150021e012ec6e9[ALL] 039eef3949fba3499bd87c4a03534ecdf32b9bef5d68feb2045457a897a61f36ca"}, "vout": 0, "txid": "fb28cfc1b58f5b375e9dd38bc4e8969a742d7bfa585553b0a546416e72b5181c"}], "txid": "5b5d3a93d1bc890a7cac1286884fef79f8f091b3a6495ebc1028d5a40600fc7f", "blocktime": 1537876114, "version": 1, "confirmations": 11460, "time": 1537876114, "locktime": 0, "vsize": 225, "size": 225}