{"hash": "5b63b9f63c157c6476144e9b3fe867e9cd55d56aa73b6dbcfabdaf8dc2d56bef", "blockhash": "0000000000000000001cda96e906b7601b7a6fb1a3b62bca570a9e5d8f4b3de1", "vout": [{"scriptPubKey": {"reqSigs": 1, "hex": "a914c78cdb885f8f58d764572310aa7ef3e875f5055e87", "addresses": ["3Kt98fwJuvKQTKdjCSUvsY7RXiaPtVXTj3"], "asm": "OP_HASH160 c78cdb885f8f58d764572310aa7ef3e875f5055e OP_EQUAL", "type": "scripthash"}, "value": 1.2e-05, "n": 0}, {"scriptPubKey": {"reqSigs": 1, "hex": "76a91407cfbc2b6564900a71a6431b9048e07479eb461088ac", "addresses": ["1iJb2XFn8CDq1P6aXoreyfvec65i2jaL3"], "asm": "OP_DUP OP_HASH160 07cfbc2b6564900a71a6431b9048e07479eb4610 OP_EQUALVERIFY OP_CHECKSIG", "type": "pubkeyhash"}, "value": 0.0001125, "n": 1}], "hex": "01000000012a41fbaccc706146f6815e315336c246d48651920ed88681e0847ba73b61a24e000000006a47304402200356298e32f2b2e39b31cb65c143393b861ce2ae9e118b31fb328346e56290a102201d0f6eacd15f65538d29ed272e7f5f3caecbbe23938130ad6470755022e48d62012102ce1719333bdb7a3802c8c69d460ee111239a5b62a4d2ac7649d203b77f5a58c4ffffffff02b00400000000000017a914c78cdb885f8f58d764572310aa7ef3e875f5055e87f22b0000000000001976a91407cfbc2b6564900a71a6431b9048e07479eb461088ac00000000", "vin": [{"sequence": 4294967295, "scriptSig": {"hex": "47304402200356298e32f2b2e39b31cb65c143393b861ce2ae9e118b31fb328346e56290a102201d0f6eacd15f65538d29ed272e7f5f3caecbbe23938130ad6470755022e48d62012102ce1719333bdb7a3802c8c69d460ee111239a5b62a4d2ac7649d203b77f5a58c4", "asm": "304402200356298e32f2b2e39b31cb65c143393b861ce2ae9e118b31fb328346e56290a102201d0f6eacd15f65538d29ed272e7f5f3caecbbe23938130ad6470755022e48d62[ALL] 02ce1719333bdb7a3802c8c69d460ee111239a5b62a4d2ac7649d203b77f5a58c4"}, "vout": 0, "txid": "4ea2613ba77b84e08186d80e925186d446c23653315e81f6466170ccacfb412a"}], "txid": "5b63b9f63c157c6476144e9b3fe867e9cd55d56aa73b6dbcfabdaf8dc2d56bef", "blocktime": 1537873282, "version": 1, "confirmations": 11484, "time": 1537873282, "locktime": 0, "vsize": 223, "size": 223}