{"hash": "5b678ca5f7a8ec2c13786024dac1be232393646ac566d145175917fbd3e36b3b", "blockhash": "0000000000000000001f0ddff1eddb255c1121bcd4da4f1bc9a0da00cae72433", "vout": [{"scriptPubKey": {"reqSigs": 1, "hex": "a91469f373c6b3f4fa84355a277ca82c94f8f26814ec87", "addresses": ["3BMEX3ZD5TDpzxo1zR6Uc4QDGTnjuuADzr"], "asm": "OP_HASH160 69f373c6b3f4fa84355a277ca82c94f8f26814ec OP_EQUAL", "type": "scripthash"}, "value": 0.01037274, "n": 0}], "hex": "010000000147bdf96a9dad0cdf8d766aa2bfbde430e46da00de7e3e6b02aee132467081aed030000006b483045022100fa210ba3d089aa8961ff96303956b9432fc02222cb81c00cfaadc19455ef08af022036be95a7b25a32f2d102605bf5f0308b7395e30ee72f68ca06f38717bf39c9c3012102202888e9161c8b96b9ab5ef9262aea1cf526e4e9599e23b2041ed3346ad8576effffffff01dad30f000000000017a91469f373c6b3f4fa84355a277ca82c94f8f26814ec8700000000", "vin": [{"sequence": 4294967295, "scriptSig": {"hex": "483045022100fa210ba3d089aa8961ff96303956b9432fc02222cb81c00cfaadc19455ef08af022036be95a7b25a32f2d102605bf5f0308b7395e30ee72f68ca06f38717bf39c9c3012102202888e9161c8b96b9ab5ef9262aea1cf526e4e9599e23b2041ed3346ad8576e", "asm": "3045022100fa210ba3d089aa8961ff96303956b9432fc02222cb81c00cfaadc19455ef08af022036be95a7b25a32f2d102605bf5f0308b7395e30ee72f68ca06f38717bf39c9c3[ALL] 02202888e9161c8b96b9ab5ef9262aea1cf526e4e9599e23b2041ed3346ad8576e"}, "vout": 3, "txid": "ed1a08672413ee2ab0e6e3e70da06de430e4bdbfa26a768ddf0cad9d6af9bd47"}], "txid": "5b678ca5f7a8ec2c13786024dac1be232393646ac566d145175917fbd3e36b3b", "blocktime": 1537872018, "version": 1, "confirmations": 11489, "time": 1537872018, "locktime": 0, "vsize": 190, "size": 190}