{"hash": "5b6a845571f661a0874084bac580974958f75972b54ddc8533e1ba5ffd20f44c", "blockhash": "0000000000000000000baef3f32e3676a92c3b2e5da21b426e4f302fc371ce76", "vout": [{"scriptPubKey": {"type": "nulldata", "hex": "6a4c500000782c0001fcfeadaa728f5215ef12a2dc27b7256b4774d339f6019d6ddc0f1b8ff1172c36cb050dad65be226da76cb408f2565baa1f120614ffc1f48162ddbc9a9526289ac0f6612cd74e33776ee4", "asm": "OP_RETURN 0000782c0001fcfeadaa728f5215ef12a2dc27b7256b4774d339f6019d6ddc0f1b8ff1172c36cb050dad65be226da76cb408f2565baa1f120614ffc1f48162ddbc9a9526289ac0f6612cd74e33776ee4"}, "value": 0.0, "n": 0}, {"scriptPubKey": {"reqSigs": 1, "hex": "76a914139e24197b782bf62b17e40d659542fe7bb49c8c88ac", "addresses": ["12njHUZ4eZi89rDow58JRacwpABgXdAkTW"], "asm": "OP_DUP OP_HASH160 139e24197b782bf62b17e40d659542fe7bb49c8c OP_EQUALVERIFY OP_CHECKSIG", "type": "pubkeyhash"}, "value": 0.0004138, "n": 1}], "hex": "010000000139c81c7fd15e2354bd303c01c90037422c3204bad44562f4bfaf03638f4ae467000000006a473044022071d2b840ae70ab6e43021ef97bf55503c24d5b12eb1971630079dbdc59495468022074883ad9c80f53075af74bd507cb15e9844f49b6ec18ca05eeb738b54d0b892e0121036fdbaa446b60b46051eaa877f70ca65d3ab06cd9783ad779615437791b591ba6ffffffff020000000000000000536a4c500000782c0001fcfeadaa728f5215ef12a2dc27b7256b4774d339f6019d6ddc0f1b8ff1172c36cb050dad65be226da76cb408f2565baa1f120614ffc1f48162ddbc9a9526289ac0f6612cd74e33776ee4a4a10000000000001976a914139e24197b782bf62b17e40d659542fe7bb49c8c88ac00000000", "vin": [{"sequence": 4294967295, "scriptSig": {"hex": "473044022071d2b840ae70ab6e43021ef97bf55503c24d5b12eb1971630079dbdc59495468022074883ad9c80f53075af74bd507cb15e9844f49b6ec18ca05eeb738b54d0b892e0121036fdbaa446b60b46051eaa877f70ca65d3ab06cd9783ad779615437791b591ba6", "asm": "3044022071d2b840ae70ab6e43021ef97bf55503c24d5b12eb1971630079dbdc59495468022074883ad9c80f53075af74bd507cb15e9844f49b6ec18ca05eeb738b54d0b892e[ALL] 036fdbaa446b60b46051eaa877f70ca65d3ab06cd9783ad779615437791b591ba6"}, "vout": 0, "txid": "67e44a8f6303afbff46245d4ba04322c423700c9013c30bd54235ed17f1cc839"}], "txid": "5b6a845571f661a0874084bac580974958f75972b54ddc8533e1ba5ffd20f44c", "blocktime": 1537876114, "version": 1, "confirmations": 11460, "time": 1537876114, "locktime": 0, "vsize": 283, "size": 283}