{"hash": "74bbc97442c02c0afc12376640b4d83b9a32a779e74e894538304f76b9a9ba4f", "blockhash": "0000000000000000001f76057863aec43deb6fa401d9628bb513d65a8098bfab", "vout": [{"scriptPubKey": {"reqSigs": 1, "hex": "a91407b450ab49307daa65f2d26252beafe323d9883a87", "addresses": ["32PkfQAs4JwxxnsgU7Vop9y4EQx5y9Jn8V"], "asm": "OP_HASH160 07b450ab49307daa65f2d26252beafe323d9883a OP_EQUAL", "type": "scripthash"}, "value": 0.00997553, "n": 0}, {"scriptPubKey": {"reqSigs": 1, "hex": "76a914c46364de51acc1ae97e2f590b7d22290ce59993188ac", "addresses": ["1JuQWcjkUMegBFvXPBo9FhXzSUJLSBEnkN"], "asm": "OP_DUP OP_HASH160 c46364de51acc1ae97e2f590b7d22290ce599931 OP_EQUALVERIFY OP_CHECKSIG", "type": "pubkeyhash"}, "value": 0.11086, "n": 1}], "hex": "0200000000010209800c8588f706bb2f889954c1762723170b99333055c0f6a97705d76f9ac3780100000017160014e3f41c734aace95778d521d82f478cbdc9ef566efeffffff578a9758364d037840661e201edf9274d4ce9d65eaaf7867abdc21da5d71cf540100000017160014906fee0c39b54a7f4952cce1cebfd9923b6739c6feffffff02b1380f000000000017a91407b450ab49307daa65f2d26252beafe323d9883a87b028a900000000001976a914c46364de51acc1ae97e2f590b7d22290ce59993188ac02483045022100dab25813ac33f8d3dde40ea38a094f0da75949568a71f16a3b657de83f17e86b02205d70a75b5f74dc83ebe599aaa85b47176ef2c227e09acd1832dbb696fd7b4d710121033bf6606c938262ab8064013d2d72f0f760266daa005e70bbb612498aff15d3570247304402207c079fec3f12c5f6dfb5631c40402df6032d6a5feedfe6cda447c1eea00dd6b402204d96fd712c0209011c99ba19b0f75471007c3d33f81155796552c861a316ddcd0121038130e492c4c5e430458907698fcdd4b9209a72d6f07ad1392735e526f8b8b40114490800", "vin": [{"txinwitness": ["3045022100dab25813ac33f8d3dde40ea38a094f0da75949568a71f16a3b657de83f17e86b02205d70a75b5f74dc83ebe599aaa85b47176ef2c227e09acd1832dbb696fd7b4d7101", "033bf6606c938262ab8064013d2d72f0f760266daa005e70bbb612498aff15d357"], "sequence": 4294967294, "scriptSig": {"hex": "160014e3f41c734aace95778d521d82f478cbdc9ef566e", "asm": "0014e3f41c734aace95778d521d82f478cbdc9ef566e"}, "vout": 1, "txid": "78c39a6fd70577a9f6c0553033990b17232776c15499882fbb06f788850c8009"}, {"txinwitness": ["304402207c079fec3f12c5f6dfb5631c40402df6032d6a5feedfe6cda447c1eea00dd6b402204d96fd712c0209011c99ba19b0f75471007c3d33f81155796552c861a316ddcd01", "038130e492c4c5e430458907698fcdd4b9209a72d6f07ad1392735e526f8b8b401"], "sequence": 4294967294, "scriptSig": {"hex": "160014906fee0c39b54a7f4952cce1cebfd9923b6739c6", "asm": "0014906fee0c39b54a7f4952cce1cebfd9923b6739c6"}, "vout": 1, "txid": "54cf715dda21dcab6778afea659dced47492df1e201e664078034d3658978a57"}], "txid": "5b6c8bd619b743c423e94abb7545cd5c9e2decb0d3509cd1d17a75214a4347ae", "blocktime": 1537873891, "version": 2, "confirmations": 11475, "time": 1537873891, "locktime": 542996, "vsize": 259, "size": 421}