{"hash": "5b7312eea6400a2942a5b9ac3f6e716768f1f977d7405311aeb3c21441ffb657", "blockhash": "0000000000000000000e13cef7c366c0283d82e591d1acd082e914b08063cdf1", "vout": [{"scriptPubKey": {"type": "nulldata", "hex": "6a4c500000779f00011bbada52bea64deb80d417c6af6c953dd567cf27e7e3ef3236678a6250976338b0447b36ee276d347b71a7e1b8ac5baa0e0e061705ecdd3a27bcbc9a9526289ac0f6612cd74e33776ee4", "asm": "OP_RETURN 0000779f00011bbada52bea64deb80d417c6af6c953dd567cf27e7e3ef3236678a6250976338b0447b36ee276d347b71a7e1b8ac5baa0e0e061705ecdd3a27bcbc9a9526289ac0f6612cd74e33776ee4"}, "value": 0.0, "n": 0}, {"scriptPubKey": {"reqSigs": 1, "hex": "76a914b665a774f8b2af1b1b37b8da5c6b031c9155359f88ac", "addresses": ["1HdRky212eoJqR6FfdcAGgGJDgeowjyVAY"], "asm": "OP_DUP OP_HASH160 b665a774f8b2af1b1b37b8da5c6b031c9155359f OP_EQUALVERIFY OP_CHECKSIG", "type": "pubkeyhash"}, "value": 0.00146184, "n": 1}], "hex": "0100000001370470bb5bc01c191c25f139ab1fab22b8da35c961d6129ce4ea1677bd22fd60000000006a4730440220212a71bbcad2b3bce13c20b9da03c06e94ce506c336273197ee9e6450c6bab9302207cd11c93094778e8ab9c7634fb2ba90f09e262ac2e81fe9c460e8e3bed4766690121027cdad6efed672689ce073b8d4dc1d16390aaadf2239b494bc62c9adb2f656247ffffffff020000000000000000536a4c500000779f00011bbada52bea64deb80d417c6af6c953dd567cf27e7e3ef3236678a6250976338b0447b36ee276d347b71a7e1b8ac5baa0e0e061705ecdd3a27bcbc9a9526289ac0f6612cd74e33776ee4083b0200000000001976a914b665a774f8b2af1b1b37b8da5c6b031c9155359f88ac00000000", "vin": [{"sequence": 4294967295, "scriptSig": {"hex": "4730440220212a71bbcad2b3bce13c20b9da03c06e94ce506c336273197ee9e6450c6bab9302207cd11c93094778e8ab9c7634fb2ba90f09e262ac2e81fe9c460e8e3bed4766690121027cdad6efed672689ce073b8d4dc1d16390aaadf2239b494bc62c9adb2f656247", "asm": "30440220212a71bbcad2b3bce13c20b9da03c06e94ce506c336273197ee9e6450c6bab9302207cd11c93094778e8ab9c7634fb2ba90f09e262ac2e81fe9c460e8e3bed476669[ALL] 027cdad6efed672689ce073b8d4dc1d16390aaadf2239b494bc62c9adb2f656247"}, "vout": 0, "txid": "60fd22bd7716eae49c12d661c935dab822ab1fab39f1251c191cc05bbb700437"}], "txid": "5b7312eea6400a2942a5b9ac3f6e716768f1f977d7405311aeb3c21441ffb657", "blocktime": 1537871767, "version": 1, "confirmations": 11493, "time": 1537871767, "locktime": 0, "vsize": 283, "size": 283}