{"hash": "5b77890691bd19bc16421013d645ac961dc811d8d37656c2b252884ba1c311dc", "blockhash": "0000000000000000000baef3f32e3676a92c3b2e5da21b426e4f302fc371ce76", "vout": [{"scriptPubKey": {"reqSigs": 1, "hex": "76a914cc977ed1cdbebf87d0d36b22235a35b8757ad91e88ac", "addresses": ["1KenLDcs6RCHNJRtrF27T9VEn5wczpHRkJ"], "asm": "OP_DUP OP_HASH160 cc977ed1cdbebf87d0d36b22235a35b8757ad91e OP_EQUALVERIFY OP_CHECKSIG", "type": "pubkeyhash"}, "value": 0.00306, "n": 0}], "hex": "010000000259bff63e60e39a9bd04d7a3c1235304892522d138dd6590d7e8ae78e3bbed87c010000006b4830450221009bbade376c435921256ca4dc702a139980d609213610451dcff2f5a7eb60f82202204d1acf63d5918432c05ceb20efdbb3c3196e0688d3e2ea6db1e62a44e7f4f40401210282abd585868c8b7bc712b4fbf38c8fab25fefc5a3d7a02684780ec952c0962d0ffffffff36b4a41857e3d6e3f004e1ce1dce4497ec5576305932cd31aebe760338906a8a000000006b48304502210091fc0c97e306ce06a2e819ee735b4de800180a24ab49945ff8b74444d5ee3f8102200c58476f78d5fbe800fd8334a4f49a923ca25575b29a244612b4a25dcfe4845d0121039e8235282d4d8028ae4a12e2237333334f1312c88c56926d67d4ec6b8779aa6cffffffff0150ab0400000000001976a914cc977ed1cdbebf87d0d36b22235a35b8757ad91e88ac00000000", "vin": [{"sequence": 4294967295, "scriptSig": {"hex": "4830450221009bbade376c435921256ca4dc702a139980d609213610451dcff2f5a7eb60f82202204d1acf63d5918432c05ceb20efdbb3c3196e0688d3e2ea6db1e62a44e7f4f40401210282abd585868c8b7bc712b4fbf38c8fab25fefc5a3d7a02684780ec952c0962d0", "asm": "30450221009bbade376c435921256ca4dc702a139980d609213610451dcff2f5a7eb60f82202204d1acf63d5918432c05ceb20efdbb3c3196e0688d3e2ea6db1e62a44e7f4f404[ALL] 0282abd585868c8b7bc712b4fbf38c8fab25fefc5a3d7a02684780ec952c0962d0"}, "vout": 1, "txid": "7cd8be3b8ee78a7e0d59d68d132d5292483035123c7a4dd09b9ae3603ef6bf59"}, {"sequence": 4294967295, "scriptSig": {"hex": "48304502210091fc0c97e306ce06a2e819ee735b4de800180a24ab49945ff8b74444d5ee3f8102200c58476f78d5fbe800fd8334a4f49a923ca25575b29a244612b4a25dcfe4845d0121039e8235282d4d8028ae4a12e2237333334f1312c88c56926d67d4ec6b8779aa6c", "asm": "304502210091fc0c97e306ce06a2e819ee735b4de800180a24ab49945ff8b74444d5ee3f8102200c58476f78d5fbe800fd8334a4f49a923ca25575b29a244612b4a25dcfe4845d[ALL] 039e8235282d4d8028ae4a12e2237333334f1312c88c56926d67d4ec6b8779aa6c"}, "vout": 0, "txid": "8a6a90380376beae31cd3259307655ec9744ce1dcee104f0e3d6e35718a4b436"}], "txid": "5b77890691bd19bc16421013d645ac961dc811d8d37656c2b252884ba1c311dc", "blocktime": 1537876114, "version": 1, "confirmations": 11462, "time": 1537876114, "locktime": 0, "vsize": 340, "size": 340}