{"hash": "5b77f9143374c9ac2eca6e08252472a40bacac6929beeed847c5139cf7b6bced", "blockhash": "000000000000000000022b45ed06c6f4ccd3cf7fb5ba4856ebd2e58215665228", "vout": [{"scriptPubKey": {"reqSigs": 1, "hex": "76a9147a855009c2d0ff65783d24af18e3f10ba844ddc588ac", "addresses": ["1CAq98TRtT9isDVZDCytekyXHAaMSVYsYd"], "asm": "OP_DUP OP_HASH160 7a855009c2d0ff65783d24af18e3f10ba844ddc5 OP_EQUALVERIFY OP_CHECKSIG", "type": "pubkeyhash"}, "value": 0.00999799, "n": 0}, {"scriptPubKey": {"reqSigs": 1, "hex": "76a914f5aeb2528c1b1f67cb7f53c810e83286ece0eedb88ac", "addresses": ["1PQ3q8VDHt2GAnbfaoz1aW4aqDLzdcFfqA"], "asm": "OP_DUP OP_HASH160 f5aeb2528c1b1f67cb7f53c810e83286ece0eedb OP_EQUALVERIFY OP_CHECKSIG", "type": "pubkeyhash"}, "value": 0.04541566, "n": 1}], "hex": "0200000002278766284d8ffa2971e1cac4fc489322c7ad0e1a0b54175df74ab758d555a2b90000000069463043021f5218eb4b08757bbc2555864ea320c1f3a51bc4c2979a7f590bbb6cf9331c3602203e6a9432962058dd094ba3df3ff456322c66a8c1499f430e4fdca24c3f8f1980012103ba884e6d69599fc73b92914afbb67a96b21e7a27b0b970347f9a0c87d9bbf0dafefffffff617ffb4951068109740a2fcf51d63a4002bb3325a6067c253134a69cdb471b2010000006a47304402203eb60cf971bc4d0ec7f8563e6ce91451ffc1ded139a428442c0f8e526692ef4f0220363120a4a36ec68bac1dd7262eebe8269001e25287a0d339a0f222d82a927e3b012102ec8943d5078b294298161ec9057db7d0b02f1e3bf20a333076517d0a7dc5e20afeffffff0277410f00000000001976a9147a855009c2d0ff65783d24af18e3f10ba844ddc588ac7e4c4500000000001976a914f5aeb2528c1b1f67cb7f53c810e83286ece0eedb88ac0b490800", "vin": [{"sequence": 4294967294, "scriptSig": {"hex": "463043021f5218eb4b08757bbc2555864ea320c1f3a51bc4c2979a7f590bbb6cf9331c3602203e6a9432962058dd094ba3df3ff456322c66a8c1499f430e4fdca24c3f8f1980012103ba884e6d69599fc73b92914afbb67a96b21e7a27b0b970347f9a0c87d9bbf0da", "asm": "3043021f5218eb4b08757bbc2555864ea320c1f3a51bc4c2979a7f590bbb6cf9331c3602203e6a9432962058dd094ba3df3ff456322c66a8c1499f430e4fdca24c3f8f1980[ALL] 03ba884e6d69599fc73b92914afbb67a96b21e7a27b0b970347f9a0c87d9bbf0da"}, "vout": 0, "txid": "b9a255d558b74af75d17540b1a0eadc7229348fcc4cae17129fa8f4d28668727"}, {"sequence": 4294967294, "scriptSig": {"hex": "47304402203eb60cf971bc4d0ec7f8563e6ce91451ffc1ded139a428442c0f8e526692ef4f0220363120a4a36ec68bac1dd7262eebe8269001e25287a0d339a0f222d82a927e3b012102ec8943d5078b294298161ec9057db7d0b02f1e3bf20a333076517d0a7dc5e20a", "asm": "304402203eb60cf971bc4d0ec7f8563e6ce91451ffc1ded139a428442c0f8e526692ef4f0220363120a4a36ec68bac1dd7262eebe8269001e25287a0d339a0f222d82a927e3b[ALL] 02ec8943d5078b294298161ec9057db7d0b02f1e3bf20a333076517d0a7dc5e20a"}, "vout": 1, "txid": "b271b4cd694a1353c267605a32b32b00a4631df5fca2409710681095b4ff17f6"}], "txid": "5b77f9143374c9ac2eca6e08252472a40bacac6929beeed847c5139cf7b6bced", "blocktime": 1537869901, "version": 2, "confirmations": 11524, "time": 1537869901, "locktime": 542987, "vsize": 371, "size": 371}