{"hash": "5b7842f9e5a205cbca1343a2068db1045bb4c5303289941d29d7318002e91c9d", "blockhash": "0000000000000000000e13cef7c366c0283d82e591d1acd082e914b08063cdf1", "vout": [{"scriptPubKey": {"reqSigs": 1, "hex": "76a914dbca8c7f5fdf09fcf02e3504f004740ac40f942f88ac", "addresses": ["1M39dMGiTvhqZgpzqo3gCR9dCD9v7pVX3r"], "asm": "OP_DUP OP_HASH160 dbca8c7f5fdf09fcf02e3504f004740ac40f942f OP_EQUALVERIFY OP_CHECKSIG", "type": "pubkeyhash"}, "value": 0.00019281, "n": 0}, {"scriptPubKey": {"reqSigs": 1, "hex": "76a91480e84b7eaf34b8e5e86eb9bf0b7b63a645180e1d88ac", "addresses": ["1CkbmgrA5uXxCYjWkQBPwmkfcuU9GsSHQS"], "asm": "OP_DUP OP_HASH160 80e84b7eaf34b8e5e86eb9bf0b7b63a645180e1d OP_EQUALVERIFY OP_CHECKSIG", "type": "pubkeyhash"}, "value": 0.446, "n": 1}], "hex": "01000000092941d071b55c7c44b6e0a9060e8d59b75cef5c0445b407a169c3d1794bd32c1e450000006b4830450221009d879321093fd4d7b9eb2d326e6fc2a6a5b3ee6782d64382f4dfc4374e2c3c7a022016a809f520c44962547c037de212faadd7dda57b2985eb9ca1106240725c16d70121031b34edb0c86ab226cf6d9727ad64476b868ab5978fd784e743e7fba6be5c9b3cffffffff138e8b9d1e4c6621c822dae63bda6103cce3bce62c7cf2d1f5e97ff3dc807842580000006b483045022100ab8aa5c4098bf269872189c35ce2807ff447991fa83e01ab8d74e89948d5964b022061d0dcea32e9a53d81eb9c446715dc497a3344612d1c355b7af0414f11fa3e0901210265d3495d7e897ebb9182a911e1eb1a30ae690126dc313a809cfa56dd878c8f4fffffffff3f433b48875177ce02ba8165f35449c609bedea226e35c58e249561175ec7254000000006a4730440220306fd72e490636d462b247f48b28654cb54da3bf92aa443f98d7632dfd24ff75022022294ecd605d73da5afd49741bb7c3752386439083e86324087b2d7fd0f1c675012102ce8b4f0ec655e455565e99040a6bc56c35c27967b555e15fe533f9ddad8e461bffffffff819a9ed6d3f114951f24b0b72f5550390a150a8721fc13938f607403f4437c62000000006a473044022054261c848a0669a69dda6c8e6587cb331e8da1155df9f3139c8394bd8e222e8d022047292c5c2a6cf011493fb04b9afaafcf5ace79788f40df68b5cc366d8f66df1a01210255923ba0a42215c4c2548c5bce8427b33c89a806870e0cfb53ac49ef59decbeafffffffff651e219b52be72ff415091bb1b02c82609035ff6c7cf7cd366a955e2c73d6784d0000006a473044022012b9fae57f7f9f38277ec7f2d6109a2b1a196a33fb2e3531b70a2a60b613401002204480762dba0c2d201c4fd24a45b385227ba173a075ea580871279bde6614f0c601210347aa147dbdc2de951a8abadbd01438d2cfcd870cd212a1ba711aab0f409ec12dffffffff1a3c773f5b7236dbcef9d368bfb9eee5bd2fbc9c7f9311d05760c0695b8e7cb6000000006a4730440220794697e166714e242fa289360335ea0618ea1dbf3271a6f82b49a78d5cdad0fe0220558aeef7f2aab96395220f44053cc41da9a5c30077ad44faac495033c63784ec01210332999f1e77cb4126437c4fde900471289f444eda4d9b85180f0f2cdc4f659fc8ffffffff3a86bd14377f02efdfaf9fe0ce029e958e3e712853be854bbd602f8d0ea3d1c6300000006a47304402201713c775f1ea804ac5ccf1ae472b9b920f09b5f3527db8865178b8aeb0c0ff1502201c854400b598ba59b6cfed087d29b657788f61535f1281012370945e4490985d0121026f16d12d6d1780e34a824404fc512caee7114d4ce7d49315fbc61e094da4d0f5ffffffffdad65c4f90bd428aa5ce8a6c108eb2ca47c848cff8cfa1f744e302d69b5e84f2000000006b483045022100fe085b0463216158d740f6a932cdf40cd938ecd42697e29de6ffeb556ef8b64002200e448b30e48de444dd2ee02dfba75b0f1fe37ddac37f32fe98c026b12643303d012102b72f2f4e019ca74d50f3f5f85276316d26befb8d656942578946d723ae9427b5ffffffff2c8e40201f8ee25ab0ab2c0cd4acceedb9b378b1e9c0e9220a8e50c508299ffd4a0000006a4730440220147982b1acef57530d91f4fcc308d7b5cf35195c6d0f62ac3c799e2f25e2648f02202ef56ccea3be580d5e0c4a360a4e0d6c23cd552a6cc6e4ed39948592851b1ca601210347aa147dbdc2de951a8abadbd01438d2cfcd870cd212a1ba711aab0f409ec12dffffffff02514b0000000000001976a914dbca8c7f5fdf09fcf02e3504f004740ac40f942f88acc08aa802000000001976a91480e84b7eaf34b8e5e86eb9bf0b7b63a645180e1d88ac00000000", "vin": [{"sequence": 4294967295, "scriptSig": {"hex": "4830450221009d879321093fd4d7b9eb2d326e6fc2a6a5b3ee6782d64382f4dfc4374e2c3c7a022016a809f520c44962547c037de212faadd7dda57b2985eb9ca1106240725c16d70121031b34edb0c86ab226cf6d9727ad64476b868ab5978fd784e743e7fba6be5c9b3c", "asm": "30450221009d879321093fd4d7b9eb2d326e6fc2a6a5b3ee6782d64382f4dfc4374e2c3c7a022016a809f520c44962547c037de212faadd7dda57b2985eb9ca1106240725c16d7[ALL] 031b34edb0c86ab226cf6d9727ad64476b868ab5978fd784e743e7fba6be5c9b3c"}, "vout": 69, "txid": "1e2cd34b79d1c369a107b445045cef5cb7598d0e06a9e0b6447c5cb571d04129"}, {"sequence": 4294967295, "scriptSig": {"hex": "483045022100ab8aa5c4098bf269872189c35ce2807ff447991fa83e01ab8d74e89948d5964b022061d0dcea32e9a53d81eb9c446715dc497a3344612d1c355b7af0414f11fa3e0901210265d3495d7e897ebb9182a911e1eb1a30ae690126dc313a809cfa56dd878c8f4f", "asm": "3045022100ab8aa5c4098bf269872189c35ce2807ff447991fa83e01ab8d74e89948d5964b022061d0dcea32e9a53d81eb9c446715dc497a3344612d1c355b7af0414f11fa3e09[ALL] 0265d3495d7e897ebb9182a911e1eb1a30ae690126dc313a809cfa56dd878c8f4f"}, "vout": 88, "txid": "427880dcf37fe9f5d1f27c2ce6bce3cc0361da3be6da22c821664c1e9d8b8e13"}, {"sequence": 4294967295, "scriptSig": {"hex": "4730440220306fd72e490636d462b247f48b28654cb54da3bf92aa443f98d7632dfd24ff75022022294ecd605d73da5afd49741bb7c3752386439083e86324087b2d7fd0f1c675012102ce8b4f0ec655e455565e99040a6bc56c35c27967b555e15fe533f9ddad8e461b", "asm": "30440220306fd72e490636d462b247f48b28654cb54da3bf92aa443f98d7632dfd24ff75022022294ecd605d73da5afd49741bb7c3752386439083e86324087b2d7fd0f1c675[ALL] 02ce8b4f0ec655e455565e99040a6bc56c35c27967b555e15fe533f9ddad8e461b"}, "vout": 0, "txid": "5472ec75115649e2585ce326a2debe09c64954f36581ba02ce775187483b433f"}, {"sequence": 4294967295, "scriptSig": {"hex": "473044022054261c848a0669a69dda6c8e6587cb331e8da1155df9f3139c8394bd8e222e8d022047292c5c2a6cf011493fb04b9afaafcf5ace79788f40df68b5cc366d8f66df1a01210255923ba0a42215c4c2548c5bce8427b33c89a806870e0cfb53ac49ef59decbea", "asm": "3044022054261c848a0669a69dda6c8e6587cb331e8da1155df9f3139c8394bd8e222e8d022047292c5c2a6cf011493fb04b9afaafcf5ace79788f40df68b5cc366d8f66df1a[ALL] 0255923ba0a42215c4c2548c5bce8427b33c89a806870e0cfb53ac49ef59decbea"}, "vout": 0, "txid": "627c43f40374608f9313fc21870a150a3950552fb7b0241f9514f1d3d69e9a81"}, {"sequence": 4294967295, "scriptSig": {"hex": "473044022012b9fae57f7f9f38277ec7f2d6109a2b1a196a33fb2e3531b70a2a60b613401002204480762dba0c2d201c4fd24a45b385227ba173a075ea580871279bde6614f0c601210347aa147dbdc2de951a8abadbd01438d2cfcd870cd212a1ba711aab0f409ec12d", "asm": "3044022012b9fae57f7f9f38277ec7f2d6109a2b1a196a33fb2e3531b70a2a60b613401002204480762dba0c2d201c4fd24a45b385227ba173a075ea580871279bde6614f0c6[ALL] 0347aa147dbdc2de951a8abadbd01438d2cfcd870cd212a1ba711aab0f409ec12d"}, "vout": 77, "txid": "78d6732c5e956a36cdf77c6cff359060822cb0b11b0915f42fe72bb519e251f6"}, {"sequence": 4294967295, "scriptSig": {"hex": "4730440220794697e166714e242fa289360335ea0618ea1dbf3271a6f82b49a78d5cdad0fe0220558aeef7f2aab96395220f44053cc41da9a5c30077ad44faac495033c63784ec01210332999f1e77cb4126437c4fde900471289f444eda4d9b85180f0f2cdc4f659fc8", "asm": "30440220794697e166714e242fa289360335ea0618ea1dbf3271a6f82b49a78d5cdad0fe0220558aeef7f2aab96395220f44053cc41da9a5c30077ad44faac495033c63784ec[ALL] 0332999f1e77cb4126437c4fde900471289f444eda4d9b85180f0f2cdc4f659fc8"}, "vout": 0, "txid": "b67c8e5b69c06057d011937f9cbc2fbde5eeb9bf68d3f9cedb36725b3f773c1a"}, {"sequence": 4294967295, "scriptSig": {"hex": "47304402201713c775f1ea804ac5ccf1ae472b9b920f09b5f3527db8865178b8aeb0c0ff1502201c854400b598ba59b6cfed087d29b657788f61535f1281012370945e4490985d0121026f16d12d6d1780e34a824404fc512caee7114d4ce7d49315fbc61e094da4d0f5", "asm": "304402201713c775f1ea804ac5ccf1ae472b9b920f09b5f3527db8865178b8aeb0c0ff1502201c854400b598ba59b6cfed087d29b657788f61535f1281012370945e4490985d[ALL] 026f16d12d6d1780e34a824404fc512caee7114d4ce7d49315fbc61e094da4d0f5"}, "vout": 48, "txid": "c6d1a30e8d2f60bd4b85be5328713e8e959e02cee09fafdfef027f3714bd863a"}, {"sequence": 4294967295, "scriptSig": {"hex": "483045022100fe085b0463216158d740f6a932cdf40cd938ecd42697e29de6ffeb556ef8b64002200e448b30e48de444dd2ee02dfba75b0f1fe37ddac37f32fe98c026b12643303d012102b72f2f4e019ca74d50f3f5f85276316d26befb8d656942578946d723ae9427b5", "asm": "3045022100fe085b0463216158d740f6a932cdf40cd938ecd42697e29de6ffeb556ef8b64002200e448b30e48de444dd2ee02dfba75b0f1fe37ddac37f32fe98c026b12643303d[ALL] 02b72f2f4e019ca74d50f3f5f85276316d26befb8d656942578946d723ae9427b5"}, "vout": 0, "txid": "f2845e9bd602e344f7a1cff8cf48c847cab28e106c8acea58a42bd904f5cd6da"}, {"sequence": 4294967295, "scriptSig": {"hex": "4730440220147982b1acef57530d91f4fcc308d7b5cf35195c6d0f62ac3c799e2f25e2648f02202ef56ccea3be580d5e0c4a360a4e0d6c23cd552a6cc6e4ed39948592851b1ca601210347aa147dbdc2de951a8abadbd01438d2cfcd870cd212a1ba711aab0f409ec12d", "asm": "30440220147982b1acef57530d91f4fcc308d7b5cf35195c6d0f62ac3c799e2f25e2648f02202ef56ccea3be580d5e0c4a360a4e0d6c23cd552a6cc6e4ed39948592851b1ca6[ALL] 0347aa147dbdc2de951a8abadbd01438d2cfcd870cd212a1ba711aab0f409ec12d"}, "vout": 74, "txid": "fd9f2908c5508e0a22e9c0e9b178b3b9edceacd40c2cabb05ae28e1f20408e2c"}], "txid": "5b7842f9e5a205cbca1343a2068db1045bb4c5303289941d29d7318002e91c9d", "blocktime": 1537871767, "version": 1, "confirmations": 11495, "time": 1537871767, "locktime": 0, "vsize": 1404, "size": 1404}