{"hash": "5b789534817143603087173b981a57fa368054827fc57ba0df97403c29edf936", "blockhash": "0000000000000000000e13cef7c366c0283d82e591d1acd082e914b08063cdf1", "vout": [{"scriptPubKey": {"reqSigs": 1, "hex": "76a914c4f388f88855f15c5fb35d8640a1f242496cee6488ac", "addresses": ["1JxPBiBwXdXcsfrG8npZiyfRnL4KX5RH9P"], "asm": "OP_DUP OP_HASH160 c4f388f88855f15c5fb35d8640a1f242496cee64 OP_EQUALVERIFY OP_CHECKSIG", "type": "pubkeyhash"}, "value": 0.04222695, "n": 0}, {"scriptPubKey": {"reqSigs": 1, "hex": "76a91441ab3418098328aa7c5bd7f18161b1c510badb7488ac", "addresses": ["16zE1tya6waPBW9YDVHCBX49WejEWWnevd"], "asm": "OP_DUP OP_HASH160 41ab3418098328aa7c5bd7f18161b1c510badb74 OP_EQUALVERIFY OP_CHECKSIG", "type": "pubkeyhash"}, "value": 0.05781806, "n": 1}], "hex": "0100000001fb1b32e64e5c547341e24db46e84ebed0509fb2d25b265ad3706d737f69dd9d0070000006a4730440220192c0c989b210aefc65f0b1d85676db321adf017be2e0e958724d72a70db356402204e22e97845de01a521108aee4be96729dff0da7311179b2142ea3e09075638c301210356542ab4eb20cd9ce83c7a6bb93fc11491e6b012e17ab3cd6212fe0271bba465ffffffff02e76e4000000000001976a914c4f388f88855f15c5fb35d8640a1f242496cee6488ac2e395800000000001976a91441ab3418098328aa7c5bd7f18161b1c510badb7488ac00000000", "vin": [{"sequence": 4294967295, "scriptSig": {"hex": "4730440220192c0c989b210aefc65f0b1d85676db321adf017be2e0e958724d72a70db356402204e22e97845de01a521108aee4be96729dff0da7311179b2142ea3e09075638c301210356542ab4eb20cd9ce83c7a6bb93fc11491e6b012e17ab3cd6212fe0271bba465", "asm": "30440220192c0c989b210aefc65f0b1d85676db321adf017be2e0e958724d72a70db356402204e22e97845de01a521108aee4be96729dff0da7311179b2142ea3e09075638c3[ALL] 0356542ab4eb20cd9ce83c7a6bb93fc11491e6b012e17ab3cd6212fe0271bba465"}, "vout": 7, "txid": "d0d99df637d70637ad65b2252dfb0905edeb846eb44de24173545c4ee6321bfb"}], "txid": "5b789534817143603087173b981a57fa368054827fc57ba0df97403c29edf936", "blocktime": 1537871767, "version": 1, "confirmations": 11495, "time": 1537871767, "locktime": 0, "vsize": 225, "size": 225}