{"hash": "65e862f5daecd2b5c2566d5924a8f835c66253f92ea59c22ee9d9f28d609e009", "blockhash": "0000000000000000001cda96e906b7601b7a6fb1a3b62bca570a9e5d8f4b3de1", "vout": [{"scriptPubKey": {"reqSigs": 1, "hex": "76a91454edd71d4b8e28122d1f33fb37b921a2d4671e3588ac", "addresses": ["18k4gYifQDTicE2pvueYeJXYrbFthxnXAg"], "asm": "OP_DUP OP_HASH160 54edd71d4b8e28122d1f33fb37b921a2d4671e35 OP_EQUALVERIFY OP_CHECKSIG", "type": "pubkeyhash"}, "value": 0.00257795, "n": 0}, {"scriptPubKey": {"reqSigs": 1, "hex": "a9149649ad6d2730bb28020a268d9d80df10a9f74ad487", "addresses": ["3FPfYWwfMfKMGY7fuPHvz2b73RhTNGzsm3"], "asm": "OP_HASH160 9649ad6d2730bb28020a268d9d80df10a9f74ad4 OP_EQUAL", "type": "scripthash"}, "value": 13.86748229, "n": 1}], "hex": "01000000000101812a6c9bb852e074194e85b5baae71e813ad9085c6a8d0867f0cd5770eb16efc01000000232200207768efcc1e5eb3d28410fac3f45831004c860cc24cddd940a616b34324823fceffffffff0203ef0300000000001976a91454edd71d4b8e28122d1f33fb37b921a2d4671e3588ac4519a8520000000017a9149649ad6d2730bb28020a268d9d80df10a9f74ad48704004830450221009131d76d08dba4f2ed677bf4f2339e887f9f96045e114f9abfcffa94ed9f6b1f02202386d100eb5556fe34c747046ca014e6e7d9597c72670ba69ee029047db89f3001483045022100f4c536a92d5d01386a30863b0c559fd1d1efa8e447503fd7cf0ae1c4a8c2730a0220463c58405f8e27aa02e8fb4f9ef643a30149a64424d21b71a8982d03d72def300147522102529d5d1f6733ab45d9d50e07db42c7f6b967ae321c38b726c2247f149959b8262103d0c936a5988dd8421c63240496b723b0ec42400c38b9350e32c2eb4f47d8796952ae00000000", "vin": [{"txinwitness": ["", "30450221009131d76d08dba4f2ed677bf4f2339e887f9f96045e114f9abfcffa94ed9f6b1f02202386d100eb5556fe34c747046ca014e6e7d9597c72670ba69ee029047db89f3001", "3045022100f4c536a92d5d01386a30863b0c559fd1d1efa8e447503fd7cf0ae1c4a8c2730a0220463c58405f8e27aa02e8fb4f9ef643a30149a64424d21b71a8982d03d72def3001", "522102529d5d1f6733ab45d9d50e07db42c7f6b967ae321c38b726c2247f149959b8262103d0c936a5988dd8421c63240496b723b0ec42400c38b9350e32c2eb4f47d8796952ae"], "sequence": 4294967295, "scriptSig": {"hex": "2200207768efcc1e5eb3d28410fac3f45831004c860cc24cddd940a616b34324823fce", "asm": "00207768efcc1e5eb3d28410fac3f45831004c860cc24cddd940a616b34324823fce"}, "vout": 1, "txid": "fc6eb10e77d50c7f86d0a8c68590ad13e871aebab5854e1974e052b89b6c2a81"}], "txid": "5b7c32e04f77f1f8d2a8b9ab2f3164b87030cac6644502a9e8b488931585e9fb", "blocktime": 1537873282, "version": 1, "confirmations": 11484, "time": 1537873282, "locktime": 0, "vsize": 208, "size": 374}