{"hash": "5b7ff92d017f5143a14520fad97b1ed0dfc9f24b34629c8a517a857606ae47e7", "blockhash": "0000000000000000001cda96e906b7601b7a6fb1a3b62bca570a9e5d8f4b3de1", "vout": [{"scriptPubKey": {"reqSigs": 1, "hex": "76a914272f4c8368848a66f1c14ba45880c628102be62e88ac", "addresses": ["14aC1sBWMQzDfG3MvyTkA3KY7oDif5hwUM"], "asm": "OP_DUP OP_HASH160 272f4c8368848a66f1c14ba45880c628102be62e OP_EQUALVERIFY OP_CHECKSIG", "type": "pubkeyhash"}, "value": 0.00663271, "n": 0}, {"scriptPubKey": {"reqSigs": 1, "hex": "a914e853bf510e39778f978e0ee5213d01e8cd02490687", "addresses": ["3NsT1v29PZTTCgsRGz2psN6T28gTyoViRZ"], "asm": "OP_HASH160 e853bf510e39778f978e0ee5213d01e8cd024906 OP_EQUAL", "type": "scripthash"}, "value": 0.07142757, "n": 1}], "hex": "0100000001ae0ffc761400601ecd277226ef6a8ba01dc7c1b1c0bbbbe443ab19545a79a6a1010000006a47304402202b66193dab0428a75ed0819a463e48107c2f6be64cfc315ac77768d26ce8546002202063ba50b6abbdbdc7cf8c04cd26136b3cba2fcc134b4238d9e78a42374597e601210311c0c8fa59c32bc39cb73b5ba2d8d1932ff468843fdd3278eda0b393d37c8674ffffffff02e71e0a00000000001976a914272f4c8368848a66f1c14ba45880c628102be62e88ac65fd6c000000000017a914e853bf510e39778f978e0ee5213d01e8cd0249068700000000", "vin": [{"sequence": 4294967295, "scriptSig": {"hex": "47304402202b66193dab0428a75ed0819a463e48107c2f6be64cfc315ac77768d26ce8546002202063ba50b6abbdbdc7cf8c04cd26136b3cba2fcc134b4238d9e78a42374597e601210311c0c8fa59c32bc39cb73b5ba2d8d1932ff468843fdd3278eda0b393d37c8674", "asm": "304402202b66193dab0428a75ed0819a463e48107c2f6be64cfc315ac77768d26ce8546002202063ba50b6abbdbdc7cf8c04cd26136b3cba2fcc134b4238d9e78a42374597e6[ALL] 0311c0c8fa59c32bc39cb73b5ba2d8d1932ff468843fdd3278eda0b393d37c8674"}, "vout": 1, "txid": "a1a6795a5419ab43e4bbbbc0b1c1c71da08b6aef267227cd1e60001476fc0fae"}], "txid": "5b7ff92d017f5143a14520fad97b1ed0dfc9f24b34629c8a517a857606ae47e7", "blocktime": 1537873282, "version": 1, "confirmations": 11484, "time": 1537873282, "locktime": 0, "vsize": 223, "size": 223}