{"hash": "5b88559654b705c06a100cb8f2a49f56df0a56a79291021eef148a5b726bea5d", "blockhash": "0000000000000000001e0dab787dd257d1dbfcb92a98c2207d5e1078be1f4165", "vout": [{"scriptPubKey": {"reqSigs": 1, "hex": "76a9147c9afa1b19e9bcec12aa475d034127e143cfbb9988ac", "addresses": ["1CMrSn1cA6F9BLZxT1rv8sNVREA1Q4wys7"], "asm": "OP_DUP OP_HASH160 7c9afa1b19e9bcec12aa475d034127e143cfbb99 OP_EQUALVERIFY OP_CHECKSIG", "type": "pubkeyhash"}, "value": 0.14068428, "n": 0}, {"scriptPubKey": {"reqSigs": 1, "hex": "a914dfc882d4b7fe3cab6f863c26c979c5edd402d0f887", "addresses": ["3N6Gp5GuVQnZ6z1upsBsQGDGnPxWGQYyNU"], "asm": "OP_HASH160 dfc882d4b7fe3cab6f863c26c979c5edd402d0f8 OP_EQUAL", "type": "scripthash"}, "value": 0.01989608, "n": 1}, {"scriptPubKey": {"reqSigs": 1, "hex": "a91469f374a8ff5da1fa9dc8f198e52a84553b3b93a387", "addresses": ["3BMEXHUHpwpCizpBqDGsRVHkum1HEvb8p2"], "asm": "OP_HASH160 69f374a8ff5da1fa9dc8f198e52a84553b3b93a3 OP_EQUAL", "type": "scripthash"}, "value": 0.1495, "n": 2}, {"scriptPubKey": {"reqSigs": 1, "hex": "76a91474cea5f63f12f4eb7b9bef01ed957d3f1ba5d50088ac", "addresses": ["1BecwRmuPkiq43o9nCpbCxwqepBD87534H"], "asm": "OP_DUP OP_HASH160 74cea5f63f12f4eb7b9bef01ed957d3f1ba5d500 OP_EQUALVERIFY OP_CHECKSIG", "type": "pubkeyhash"}, "value": 0.6995, "n": 3}, {"scriptPubKey": {"reqSigs": 1, "hex": "76a91493025cc91c237a9a9574c90dd60bfec08d5f922a88ac", "addresses": ["1EQKALz2LnQNC8WgzbsRoS9vjpqebh8YKJ"], "asm": "OP_DUP OP_HASH160 93025cc91c237a9a9574c90dd60bfec08d5f922a OP_EQUALVERIFY OP_CHECKSIG", "type": "pubkeyhash"}, "value": 0.24794566, "n": 4}, {"scriptPubKey": {"reqSigs": 1, "hex": "76a914b1323ad319ce19139e1c4cceed633b8622e3a15288ac", "addresses": ["1H9vmysXMA5M1G88kyFbeGzKu1QdJ7TUkg"], "asm": "OP_DUP OP_HASH160 b1323ad319ce19139e1c4cceed633b8622e3a152 OP_EQUALVERIFY OP_CHECKSIG", "type": "pubkeyhash"}, "value": 0.0039056, "n": 5}, {"scriptPubKey": {"reqSigs": 1, "hex": "76a914661a584eb7e212fefbe0b4cdd9e88164cb123d2288ac", "addresses": ["1AJsV3fjw4ffkSJUbmV9RGuaHGYrTXwf1Q"], "asm": "OP_DUP OP_HASH160 661a584eb7e212fefbe0b4cdd9e88164cb123d22 OP_EQUALVERIFY OP_CHECKSIG", "type": "pubkeyhash"}, "value": 3.0, "n": 6}, {"scriptPubKey": {"reqSigs": 1, "hex": "76a914ae659540217a51520432aaddba278098da8165e588ac", "addresses": ["1Gu8GVQXPbcWN4XDQDisfUYt6sti6RfXvf"], "asm": "OP_DUP OP_HASH160 ae659540217a51520432aaddba278098da8165e5 OP_EQUALVERIFY OP_CHECKSIG", "type": "pubkeyhash"}, "value": 58.6995, "n": 7}, {"scriptPubKey": {"reqSigs": 1, "hex": "76a9149db238188deb5caec48e9afc2d3f6f07bf94d19188ac", "addresses": ["1FNpazxTatH98vqjaWmAAMBL76SpF4jeKW"], "asm": "OP_DUP OP_HASH160 9db238188deb5caec48e9afc2d3f6f07bf94d191 OP_EQUALVERIFY OP_CHECKSIG", "type": "pubkeyhash"}, "value": 0.92562669, "n": 8}, {"scriptPubKey": {"reqSigs": 1, "hex": "a91469f375fc4d5b96aca66bd57edf454b8a8fb7e77b87", "addresses": ["3BMEXeLRaBwQxMXuZDVw8pJ5k73z5mhrzZ"], "asm": "OP_HASH160 69f375fc4d5b96aca66bd57edf454b8a8fb7e77b OP_EQUAL", "type": "scripthash"}, "value": 0.005, "n": 9}, {"scriptPubKey": {"reqSigs": 1, "hex": "76a914e71debe251bb26c7e757d9ae265da6e5d00f31b988ac", "addresses": ["1N52wHoVR79PMDishab2XmRHsbekCdGquK"], "asm": "OP_DUP OP_HASH160 e71debe251bb26c7e757d9ae265da6e5d00f31b9 OP_EQUALVERIFY OP_CHECKSIG", "type": "pubkeyhash"}, "value": 1.11092415, "n": 10}], "hex": "01000000012ed1d2aa38d97ee2668b7076f253aad6315a6fe757db32ba6c478d20a92ac07a080000008a473044022074e05095256a7b55756b9293407007d065923d71498c00122965ff5e5fafeb1e02206ba4cc1dd0b0275e0cda3dbb5f023257c07d83ed3cb9f0d7ac54f5a3cb1752680141046a11580e919a254797f72a42c52777fef4f7a2e0dbee4eabbb5790c52427f0986cdfe390b11d12a79f072389d37fb753222b23c5ccda336995b22de7733b60baffffffff0bccaad600000000001976a9147c9afa1b19e9bcec12aa475d034127e143cfbb9988ace85b1e000000000017a914dfc882d4b7fe3cab6f863c26c979c5edd402d0f887701ee4000000000017a91469f374a8ff5da1fa9dc8f198e52a84553b3b93a387305a2b04000000001976a91474cea5f63f12f4eb7b9bef01ed957d3f1ba5d50088acc6557a01000000001976a91493025cc91c237a9a9574c90dd60bfec08d5f922a88aca0f50500000000001976a914b1323ad319ce19139e1c4cceed633b8622e3a15288ac00a3e111000000001976a914661a584eb7e212fefbe0b4cdd9e88164cb123d2288ac3054e05d010000001976a914ae659540217a51520432aaddba278098da8165e588aced648405000000001976a9149db238188deb5caec48e9afc2d3f6f07bf94d19188ac20a107000000000017a91469f375fc4d5b96aca66bd57edf454b8a8fb7e77b87bf229f06000000001976a914e71debe251bb26c7e757d9ae265da6e5d00f31b988ac00000000", "vin": [{"sequence": 4294967295, "scriptSig": {"hex": "473044022074e05095256a7b55756b9293407007d065923d71498c00122965ff5e5fafeb1e02206ba4cc1dd0b0275e0cda3dbb5f023257c07d83ed3cb9f0d7ac54f5a3cb1752680141046a11580e919a254797f72a42c52777fef4f7a2e0dbee4eabbb5790c52427f0986cdfe390b11d12a79f072389d37fb753222b23c5ccda336995b22de7733b60ba", "asm": "3044022074e05095256a7b55756b9293407007d065923d71498c00122965ff5e5fafeb1e02206ba4cc1dd0b0275e0cda3dbb5f023257c07d83ed3cb9f0d7ac54f5a3cb175268[ALL] 046a11580e919a254797f72a42c52777fef4f7a2e0dbee4eabbb5790c52427f0986cdfe390b11d12a79f072389d37fb753222b23c5ccda336995b22de7733b60ba"}, "vout": 8, "txid": "7ac02aa9208d476cba32db57e76f5a31d6aa53f276708b66e27ed938aad2d12e"}], "txid": "5b88559654b705c06a100cb8f2a49f56df0a56a79291021eef148a5b726bea5d", "blocktime": 1537872475, "version": 1, "confirmations": 11486, "time": 1537872475, "locktime": 0, "vsize": 557, "size": 557}