{"hash": "5b8c3d5a73e242a01f32a1032984bffaa297846c66ebd7b2629927cb64639f6b", "blockhash": "0000000000000000000baef3f32e3676a92c3b2e5da21b426e4f302fc371ce76", "vout": [{"scriptPubKey": {"reqSigs": 1, "hex": "76a9146fbef55e448c2e5b21f7f0f93a1e36c6d54c0c6b88ac", "addresses": ["1BBrmKaLAsHM4DgdkQ8HuRjFEs67tQFumQ"], "asm": "OP_DUP OP_HASH160 6fbef55e448c2e5b21f7f0f93a1e36c6d54c0c6b OP_EQUALVERIFY OP_CHECKSIG", "type": "pubkeyhash"}, "value": 0.10632537, "n": 0}], "hex": "02000000019e99858fe9cb135473e9c677a9e1602e0ef7fa5d4033b29df4ea97fa03c4bb66010000008b483045022100e50514d023391699c3d0632fe80b9229ef034853273e6eadec958b099fb2361d02202b247a102d531d57ec4612a61006567b1b2d03a9ce5aab15b8d2e19883d5c7ee014104846b16c6921ef7cd802991b849421e0570bb3d27ebd1341fa46ee048c470e35cac2e1eb16912a02357a2d3c1aa7b724e4ab0895b5431548f9650db604e3299a0ffffffff01593da200000000001976a9146fbef55e448c2e5b21f7f0f93a1e36c6d54c0c6b88ac00000000", "vin": [{"sequence": 4294967295, "scriptSig": {"hex": "483045022100e50514d023391699c3d0632fe80b9229ef034853273e6eadec958b099fb2361d02202b247a102d531d57ec4612a61006567b1b2d03a9ce5aab15b8d2e19883d5c7ee014104846b16c6921ef7cd802991b849421e0570bb3d27ebd1341fa46ee048c470e35cac2e1eb16912a02357a2d3c1aa7b724e4ab0895b5431548f9650db604e3299a0", "asm": "3045022100e50514d023391699c3d0632fe80b9229ef034853273e6eadec958b099fb2361d02202b247a102d531d57ec4612a61006567b1b2d03a9ce5aab15b8d2e19883d5c7ee[ALL] 04846b16c6921ef7cd802991b849421e0570bb3d27ebd1341fa46ee048c470e35cac2e1eb16912a02357a2d3c1aa7b724e4ab0895b5431548f9650db604e3299a0"}, "vout": 1, "txid": "66bbc403fa97eaf49db233405dfaf70e2e60e1a977c6e9735413cbe98f85999e"}], "txid": "5b8c3d5a73e242a01f32a1032984bffaa297846c66ebd7b2629927cb64639f6b", "blocktime": 1537876114, "version": 2, "confirmations": 11460, "time": 1537876114, "locktime": 0, "vsize": 224, "size": 224}