{"hash": "e91854dbaa606089eb24eabfafe2dc3725fdb26f0a8d7ea83f8b860e0d0290f9", "blockhash": "0000000000000000001f76057863aec43deb6fa401d9628bb513d65a8098bfab", "vout": [{"scriptPubKey": {"reqSigs": 1, "hex": "001441f496380edccabe2b250f2af3e6674ad4e81760", "addresses": ["bc1qg86fvwqwmn9tu2e9pu408en8ft2ws9mq65kq0n"], "asm": "0 41f496380edccabe2b250f2af3e6674ad4e81760", "type": "witness_v0_keyhash"}, "value": 3.955e-05, "n": 0}, {"scriptPubKey": {"reqSigs": 1, "hex": "76a9140d33d68e92755228533a7704a9ef4052ce6df31e88ac", "addresses": ["12CotGc1gyqsbVuuVbMrnfgr4bHLNhTusA"], "asm": "OP_DUP OP_HASH160 0d33d68e92755228533a7704a9ef4052ce6df31e OP_EQUALVERIFY OP_CHECKSIG", "type": "pubkeyhash"}, "value": 0.0006004, "n": 1}], "hex": "01000000000101da6a6d89b31cfb42fdb0507cf8ba7fc151211404a6c7ffcad777cebd8404ddcd0000000000ffffffff02730f00000000000016001441f496380edccabe2b250f2af3e6674ad4e8176088ea0000000000001976a9140d33d68e92755228533a7704a9ef4052ce6df31e88ac0247304402206be8ade37f1244204d62489d693f9665aec927ab40f4e01d68ef79d25adfffb602206f98f4b638e157cd8160eca0d704b8ff1d1e2e86e263709907eea9c4620b3c68012102a889147a24eb493c55c494049915a3a6f4ba0de7cf46471faf5948153014f39c00000000", "vin": [{"txinwitness": ["304402206be8ade37f1244204d62489d693f9665aec927ab40f4e01d68ef79d25adfffb602206f98f4b638e157cd8160eca0d704b8ff1d1e2e86e263709907eea9c4620b3c6801", "02a889147a24eb493c55c494049915a3a6f4ba0de7cf46471faf5948153014f39c"], "sequence": 4294967295, "scriptSig": {"hex": "", "asm": ""}, "vout": 0, "txid": "cddd0484bdce77d7caffc7a604142151c17fbaf87c50b0fd42fb1cb3896d6ada"}], "txid": "5b9078c10e65686a86476a80eb0bd51b8354459533f1e5de619d556237d7c2a7", "blocktime": 1537873891, "version": 1, "confirmations": 11478, "time": 1537873891, "locktime": 0, "vsize": 144, "size": 225}