{"hash": "46f55ba5c2c30616f56fe44aae997c521c23366ce591d1f5838dd258a1d9946c", "blockhash": "000000000000000000022b45ed06c6f4ccd3cf7fb5ba4856ebd2e58215665228", "vout": [{"scriptPubKey": {"reqSigs": 1, "hex": "76a9149ce07589f698a50fd364d83409c93bc6a537b38d88ac", "addresses": ["1FJVJcwrMyuxcxtWjwhek2a8UTTL7UdXYG"], "asm": "OP_DUP OP_HASH160 9ce07589f698a50fd364d83409c93bc6a537b38d OP_EQUALVERIFY OP_CHECKSIG", "type": "pubkeyhash"}, "value": 0.0117, "n": 0}, {"scriptPubKey": {"reqSigs": 1, "hex": "0014b1f5668536e84cb5e5a75cf4f31a0f38e125b39f", "addresses": ["bc1qk86kdpfkapxtted8tn60xxs08rsjtvul79dqua"], "asm": "0 b1f5668536e84cb5e5a75cf4f31a0f38e125b39f", "type": "witness_v0_keyhash"}, "value": 0.00063289, "n": 1}], "hex": "010000000001015cfc4658b1c39769c33bd3dc1b226f15cc9723f7dd2cdc92f187b6f61243cddc0000000000ffffffff0250da1100000000001976a9149ce07589f698a50fd364d83409c93bc6a537b38d88ac39f7000000000000160014b1f5668536e84cb5e5a75cf4f31a0f38e125b39f0247304402206947eb0fabc7c60b3b56e32cbeefe82dedb41d79ca733eafb905a5dd08821aa1022059909e0fa5c02954b7975b99a787e0e26f378eb9b7361dadc97ea95ae86e8baf012102a7e72f39f90c477df0dd5346df1a23d4a823caacc675f129eebcb8c3582951aa00000000", "vin": [{"txinwitness": ["304402206947eb0fabc7c60b3b56e32cbeefe82dedb41d79ca733eafb905a5dd08821aa1022059909e0fa5c02954b7975b99a787e0e26f378eb9b7361dadc97ea95ae86e8baf01", "02a7e72f39f90c477df0dd5346df1a23d4a823caacc675f129eebcb8c3582951aa"], "sequence": 4294967295, "scriptSig": {"hex": "", "asm": ""}, "vout": 0, "txid": "dccd4312f6b687f192dc2cddf72397cc156f221bdcd33bc36997c3b15846fc5c"}], "txid": "5b90e9805f405f338bf8d73bdbfd228c95bd369c42fdd95604e168cf3430870d", "blocktime": 1537869901, "version": 1, "confirmations": 11523, "time": 1537869901, "locktime": 0, "vsize": 144, "size": 225}