{"hash": "5b99b4ca88d7bebba34288fd208b3c85a5506bd3d03109d711871ba75219b2f1", "blockhash": "0000000000000000001e0dab787dd257d1dbfcb92a98c2207d5e1078be1f4165", "vout": [{"scriptPubKey": {"reqSigs": 1, "hex": "a91472fdd488c70c24cae5e2f40da9dd93a6c03bf00287", "addresses": ["3CB32qwy9WEQug7VPrtqy8qhJ1piRWgbVR"], "asm": "OP_HASH160 72fdd488c70c24cae5e2f40da9dd93a6c03bf002 OP_EQUAL", "type": "scripthash"}, "value": 0.0056, "n": 0}, {"scriptPubKey": {"reqSigs": 1, "hex": "76a9146bc575bd49ff1bcdfc74c70ee017166e2e50531f88ac", "addresses": ["1ApqrHLGdYkeLqMfCKn8QRuiVqz211WfVJ"], "asm": "OP_DUP OP_HASH160 6bc575bd49ff1bcdfc74c70ee017166e2e50531f OP_EQUALVERIFY OP_CHECKSIG", "type": "pubkeyhash"}, "value": 0.98512153, "n": 1}], "hex": "0100000001ff873a1ad3458b80553746edcecf1cd1820d91930f9e6f261c711701b0d0de9f010000006a4730440220488a57e2046afbf315168485b12c895ae083439231932c78734d5c3174eee2d80220164b2ac77dd24cb1c48f10cf16ff4ab4205d1fe79cb2e18823b9b5a8ab06634e012103d8cf708da95a93e150c3c8e86b60c07b69283ba5dc06f7c40ed66331788f0582ffffffff02808b08000000000017a91472fdd488c70c24cae5e2f40da9dd93a6c03bf00287192ddf05000000001976a9146bc575bd49ff1bcdfc74c70ee017166e2e50531f88ac00000000", "vin": [{"sequence": 4294967295, "scriptSig": {"hex": "4730440220488a57e2046afbf315168485b12c895ae083439231932c78734d5c3174eee2d80220164b2ac77dd24cb1c48f10cf16ff4ab4205d1fe79cb2e18823b9b5a8ab06634e012103d8cf708da95a93e150c3c8e86b60c07b69283ba5dc06f7c40ed66331788f0582", "asm": "30440220488a57e2046afbf315168485b12c895ae083439231932c78734d5c3174eee2d80220164b2ac77dd24cb1c48f10cf16ff4ab4205d1fe79cb2e18823b9b5a8ab06634e[ALL] 03d8cf708da95a93e150c3c8e86b60c07b69283ba5dc06f7c40ed66331788f0582"}, "vout": 1, "txid": "9fded0b00117711c266f9e0f93910d82d11ccfceed463755808b45d31a3a87ff"}], "txid": "5b99b4ca88d7bebba34288fd208b3c85a5506bd3d03109d711871ba75219b2f1", "blocktime": 1537872475, "version": 1, "confirmations": 11486, "time": 1537872475, "locktime": 0, "vsize": 223, "size": 223}