{"hash": "5b990b4eed626cbb446197689e998d6edb3c75eb1f666f1353ecd11073f62f07", "blockhash": "0000000000000000001f76057863aec43deb6fa401d9628bb513d65a8098bfab", "vout": [{"scriptPubKey": {"reqSigs": 1, "hex": "a914c30b08f83edbcf2a958dbcc7562a92c6de6b6e8987", "addresses": ["3KUJugJwKpnoUQpk7fuvp8AnXuutYLRjGq"], "asm": "OP_HASH160 c30b08f83edbcf2a958dbcc7562a92c6de6b6e89 OP_EQUAL", "type": "scripthash"}, "value": 0.0037904, "n": 0}, {"scriptPubKey": {"reqSigs": 1, "hex": "a91412da6274a81ff90ce1d46ef328c488c544b7ba8887", "addresses": ["33QhhdA55mcbw1Bi7Kyjuji4RKAn2ZAmb8"], "asm": "OP_HASH160 12da6274a81ff90ce1d46ef328c488c544b7ba88 OP_EQUAL", "type": "scripthash"}, "value": 0.0043159, "n": 1}, {"scriptPubKey": {"reqSigs": 1, "hex": "76a914de102f0c6580691ed49c9ce504bc55b8a1ac771188ac", "addresses": ["1MFAQ4D3DiJioQtj8kGs16jytJDwQg4ZZP"], "asm": "OP_DUP OP_HASH160 de102f0c6580691ed49c9ce504bc55b8a1ac7711 OP_EQUALVERIFY OP_CHECKSIG", "type": "pubkeyhash"}, "value": 0.0061422, "n": 2}, {"scriptPubKey": {"reqSigs": 1, "hex": "a91468faef493f72375b2cbfa8cad91e02e407e1fb1f87", "addresses": ["3BG6ok5UpAG4SW2RL9t8mWShqBcaoCTAhJ"], "asm": "OP_HASH160 68faef493f72375b2cbfa8cad91e02e407e1fb1f OP_EQUAL", "type": "scripthash"}, "value": 0.0049685, "n": 3}, {"scriptPubKey": {"reqSigs": 1, "hex": "76a914d5727f30c2e05e6301d381ff0a8b09421b7a07b988ac", "addresses": ["1LTc6Eu8s9fy2zpsJRUjRHBF12th43N9je"], "asm": "OP_DUP OP_HASH160 d5727f30c2e05e6301d381ff0a8b09421b7a07b9 OP_EQUALVERIFY OP_CHECKSIG", "type": "pubkeyhash"}, "value": 0.04296769, "n": 4}], "hex": "010000000338301c9f590a3156be7f0304e79f6d193fa0348522899bff15cc25e6079c91e4020000006b483045022100a8711e757a0b0906f56e549760ea36e66c0223b6e4667910c16a235b2a8f22d9022072bac3258e2519f569250284f7c537b9a829b79ccb5f32962b5471e27300aa93012102a54b6c425a974cba19782ff7ae9d2f63c388b8d4e48e0f78cadae72bc48cb5f1fffffffff2fd40a49256999476d040ca20ed3ae3d747b02878d3904860bb1bccfd0c598d030000006a47304402204275270d4f7607d80f9605ec0ce7efd3a92f915ed19d8163af59c9b462c4d9a702204e9d9cd00e6df5a10c5879cee7acb0028cad2ca8e1551ed77ce6c831bd7560f7012102a54b6c425a974cba19782ff7ae9d2f63c388b8d4e48e0f78cadae72bc48cb5f1fffffffff42cb80039a459d2c9b6f75d92c833b5c08fd2ddb94017130db08ab09baebf21000000006b483045022100d8cebd21c8e1d2ccafe88b4532315795eff8fd167860a6d1453bc060edaf3b7a022075e899a67921dc83847c6811279fbd1444ef2c27f912a0e960c4231ddb0ac9f6012102a54b6c425a974cba19782ff7ae9d2f63c388b8d4e48e0f78cadae72bc48cb5f1ffffffff05a0c805000000000017a914c30b08f83edbcf2a958dbcc7562a92c6de6b6e8987e69506000000000017a91412da6274a81ff90ce1d46ef328c488c544b7ba88874c5f0900000000001976a914de102f0c6580691ed49c9ce504bc55b8a1ac771188acd29407000000000017a91468faef493f72375b2cbfa8cad91e02e407e1fb1f8741904100000000001976a914d5727f30c2e05e6301d381ff0a8b09421b7a07b988ac00000000", "vin": [{"sequence": 4294967295, "scriptSig": {"hex": "483045022100a8711e757a0b0906f56e549760ea36e66c0223b6e4667910c16a235b2a8f22d9022072bac3258e2519f569250284f7c537b9a829b79ccb5f32962b5471e27300aa93012102a54b6c425a974cba19782ff7ae9d2f63c388b8d4e48e0f78cadae72bc48cb5f1", "asm": "3045022100a8711e757a0b0906f56e549760ea36e66c0223b6e4667910c16a235b2a8f22d9022072bac3258e2519f569250284f7c537b9a829b79ccb5f32962b5471e27300aa93[ALL] 02a54b6c425a974cba19782ff7ae9d2f63c388b8d4e48e0f78cadae72bc48cb5f1"}, "vout": 2, "txid": "e4919c07e625cc15ff9b89228534a03f196d9fe704037fbe56310a599f1c3038"}, {"sequence": 4294967295, "scriptSig": {"hex": "47304402204275270d4f7607d80f9605ec0ce7efd3a92f915ed19d8163af59c9b462c4d9a702204e9d9cd00e6df5a10c5879cee7acb0028cad2ca8e1551ed77ce6c831bd7560f7012102a54b6c425a974cba19782ff7ae9d2f63c388b8d4e48e0f78cadae72bc48cb5f1", "asm": "304402204275270d4f7607d80f9605ec0ce7efd3a92f915ed19d8163af59c9b462c4d9a702204e9d9cd00e6df5a10c5879cee7acb0028cad2ca8e1551ed77ce6c831bd7560f7[ALL] 02a54b6c425a974cba19782ff7ae9d2f63c388b8d4e48e0f78cadae72bc48cb5f1"}, "vout": 3, "txid": "8d590cfdcc1bbb604890d37828b047d7e33aed20ca40d07694995692a440fdf2"}, {"sequence": 4294967295, "scriptSig": {"hex": "483045022100d8cebd21c8e1d2ccafe88b4532315795eff8fd167860a6d1453bc060edaf3b7a022075e899a67921dc83847c6811279fbd1444ef2c27f912a0e960c4231ddb0ac9f6012102a54b6c425a974cba19782ff7ae9d2f63c388b8d4e48e0f78cadae72bc48cb5f1", "asm": "3045022100d8cebd21c8e1d2ccafe88b4532315795eff8fd167860a6d1453bc060edaf3b7a022075e899a67921dc83847c6811279fbd1444ef2c27f912a0e960c4231ddb0ac9f6[ALL] 02a54b6c425a974cba19782ff7ae9d2f63c388b8d4e48e0f78cadae72bc48cb5f1"}, "vout": 0, "txid": "21bfae9bb08ab00d131740b9ddd28fc0b533c8925df7b6c9d259a43900b82cf4"}], "txid": "5b990b4eed626cbb446197689e998d6edb3c75eb1f666f1353ecd11073f62f07", "blocktime": 1537873891, "version": 1, "confirmations": 11474, "time": 1537873891, "locktime": 0, "vsize": 617, "size": 617}