{"hash": "5b9bfb94c4aac42eef9cf0dbb3964a95a3d99328ece5a99f76c7c8e77bdb9ce2", "blockhash": "000000000000000000022b45ed06c6f4ccd3cf7fb5ba4856ebd2e58215665228", "vout": [{"scriptPubKey": {"reqSigs": 1, "hex": "76a91499142800b6c749252ecb6406ad0adbfe90548e0988ac", "addresses": ["1ExQXqEYivHiz3RuVaYo3drcPRqzeGaCNv"], "asm": "OP_DUP OP_HASH160 99142800b6c749252ecb6406ad0adbfe90548e09 OP_EQUALVERIFY OP_CHECKSIG", "type": "pubkeyhash"}, "value": 0.00078972, "n": 0}, {"scriptPubKey": {"reqSigs": 1, "hex": "a91461dacb2aeab91067d18b2dc0351dc7afb42ee42187", "addresses": ["3AcRaCUxYriqGRBSNTHhoL9CvMTdL3vrQH"], "asm": "OP_HASH160 61dacb2aeab91067d18b2dc0351dc7afb42ee421 OP_EQUAL", "type": "scripthash"}, "value": 2.893, "n": 1}], "hex": "0100000005727422c01b6f034fda7c6bdffa491581732941621a987329663ca5e70dd62b1b000000006a47304402202c406963b42eac7852f24773c5995fba6a4e26de775223deb85ba7dd2cbbecc402207f2f549852a00a10a634a934e9276ff6e5f36d551993db5a25e78aa97c3712bf0121031502a96af6eedef4649f535eb2d80f72a5979da2a4829092aad07f33e4158a81fdffffff45d4634bc2313652c1ddbc42f5cedd05a39aa8efecd7c6c16324e24bded4a12b010000006b483045022100cf499288554a001a4b97678bf56b80f80f13d9ddd0c32fc2a00b808f1052c42b02201c3569b4675f69c583b5452d278988ef54a3fe0ec289d26e09622665e1d7fcd80121031502a96af6eedef4649f535eb2d80f72a5979da2a4829092aad07f33e4158a81fdffffff13d1df9f0377dc65bc14c7dd41a3f35739f36218198dc8781584ed62bfa8d655000000006a47304402207176dd4614713f6c6056961dcec5b3730368f239304ac21c5386bf3b225a259002203cc34fee68e180655b86c8e0fd962165416be6fd30641dbcd6aee58f16f43e290121031502a96af6eedef4649f535eb2d80f72a5979da2a4829092aad07f33e4158a81fdffffff9d922e6eab7341220151647e82a1305ae982da277bfdf9b5b17aeced60d16b6a000000006a47304402200593faa7a6a8ca494a44a4104d6fba4407b2da954af4acb172260ce4139c4b920220575ca105157db0754f1bfc2ded13f666aa65b55a3f29158b040fa4991b6d33c90121039e8e8a3edf349eed08158d299bea64837cfd90b20771bc6f7c5e9a08b43c7546fdffffffa46590a15a4e18289ba7891c9d52d91d92ba18f948e4476421b7f5185ca35281010000006b483045022100cf12f47554ea02893cff9d4784acbb57959320fe99abf1c58db01839ca128d4f02202aba8eb33aef9a2cfb114494faf0c9ae9181e52fd8e926c42e2069100b7aff000121031502a96af6eedef4649f535eb2d80f72a5979da2a4829092aad07f33e4158a81fdffffff027c340100000000001976a91499142800b6c749252ecb6406ad0adbfe90548e0988ac205e3e110000000017a91461dacb2aeab91067d18b2dc0351dc7afb42ee421870a490800", "vin": [{"sequence": 4294967293, "scriptSig": {"hex": "47304402202c406963b42eac7852f24773c5995fba6a4e26de775223deb85ba7dd2cbbecc402207f2f549852a00a10a634a934e9276ff6e5f36d551993db5a25e78aa97c3712bf0121031502a96af6eedef4649f535eb2d80f72a5979da2a4829092aad07f33e4158a81", "asm": "304402202c406963b42eac7852f24773c5995fba6a4e26de775223deb85ba7dd2cbbecc402207f2f549852a00a10a634a934e9276ff6e5f36d551993db5a25e78aa97c3712bf[ALL] 031502a96af6eedef4649f535eb2d80f72a5979da2a4829092aad07f33e4158a81"}, "vout": 0, "txid": "1b2bd60de7a53c662973981a62412973811549fadf6b7cda4f036f1bc0227472"}, {"sequence": 4294967293, "scriptSig": {"hex": "483045022100cf499288554a001a4b97678bf56b80f80f13d9ddd0c32fc2a00b808f1052c42b02201c3569b4675f69c583b5452d278988ef54a3fe0ec289d26e09622665e1d7fcd80121031502a96af6eedef4649f535eb2d80f72a5979da2a4829092aad07f33e4158a81", "asm": "3045022100cf499288554a001a4b97678bf56b80f80f13d9ddd0c32fc2a00b808f1052c42b02201c3569b4675f69c583b5452d278988ef54a3fe0ec289d26e09622665e1d7fcd8[ALL] 031502a96af6eedef4649f535eb2d80f72a5979da2a4829092aad07f33e4158a81"}, "vout": 1, "txid": "2ba1d4de4be22463c1c6d7ecefa89aa305ddcef542bcddc1523631c24b63d445"}, {"sequence": 4294967293, "scriptSig": {"hex": "47304402207176dd4614713f6c6056961dcec5b3730368f239304ac21c5386bf3b225a259002203cc34fee68e180655b86c8e0fd962165416be6fd30641dbcd6aee58f16f43e290121031502a96af6eedef4649f535eb2d80f72a5979da2a4829092aad07f33e4158a81", "asm": "304402207176dd4614713f6c6056961dcec5b3730368f239304ac21c5386bf3b225a259002203cc34fee68e180655b86c8e0fd962165416be6fd30641dbcd6aee58f16f43e29[ALL] 031502a96af6eedef4649f535eb2d80f72a5979da2a4829092aad07f33e4158a81"}, "vout": 0, "txid": "55d6a8bf62ed841578c88d191862f33957f3a341ddc714bc65dc77039fdfd113"}, {"sequence": 4294967293, "scriptSig": {"hex": "47304402200593faa7a6a8ca494a44a4104d6fba4407b2da954af4acb172260ce4139c4b920220575ca105157db0754f1bfc2ded13f666aa65b55a3f29158b040fa4991b6d33c90121039e8e8a3edf349eed08158d299bea64837cfd90b20771bc6f7c5e9a08b43c7546", "asm": "304402200593faa7a6a8ca494a44a4104d6fba4407b2da954af4acb172260ce4139c4b920220575ca105157db0754f1bfc2ded13f666aa65b55a3f29158b040fa4991b6d33c9[ALL] 039e8e8a3edf349eed08158d299bea64837cfd90b20771bc6f7c5e9a08b43c7546"}, "vout": 0, "txid": "6a6bd160edec7ab1b5f9fd7b27da82e95a30a1827e645101224173ab6e2e929d"}, {"sequence": 4294967293, "scriptSig": {"hex": "483045022100cf12f47554ea02893cff9d4784acbb57959320fe99abf1c58db01839ca128d4f02202aba8eb33aef9a2cfb114494faf0c9ae9181e52fd8e926c42e2069100b7aff000121031502a96af6eedef4649f535eb2d80f72a5979da2a4829092aad07f33e4158a81", "asm": "3045022100cf12f47554ea02893cff9d4784acbb57959320fe99abf1c58db01839ca128d4f02202aba8eb33aef9a2cfb114494faf0c9ae9181e52fd8e926c42e2069100b7aff00[ALL] 031502a96af6eedef4649f535eb2d80f72a5979da2a4829092aad07f33e4158a81"}, "vout": 1, "txid": "8152a35c18f5b7216447e448f918ba921dd9529d1c89a79b28184e5aa19065a4"}], "txid": "5b9bfb94c4aac42eef9cf0dbb3964a95a3d99328ece5a99f76c7c8e77bdb9ce2", "blocktime": 1537869901, "version": 1, "confirmations": 11524, "time": 1537869901, "locktime": 542986, "vsize": 813, "size": 813}