{"hash": "5ba2f1fdf98a107041ca226ac4c75a7c52f3e9e687ba23719cb936f9f743bbbf", "blockhash": "00000000000000000018f53835495a110e01622372bf6ae95dc86f2b0ab887b0", "vout": [{"scriptPubKey": {"reqSigs": 1, "hex": "76a91467e3d76d6ebb1e25e8946f6d6a33133743ac3f4388ac", "addresses": ["1AUKYTwL7jKbD8ckoZd2QMYMbaAdp64b6j"], "asm": "OP_DUP OP_HASH160 67e3d76d6ebb1e25e8946f6d6a33133743ac3f43 OP_EQUALVERIFY OP_CHECKSIG", "type": "pubkeyhash"}, "value": 0.4589, "n": 0}, {"scriptPubKey": {"reqSigs": 1, "hex": "76a914e23c180fb287908a8f6b6c1671dfb8884a400c9188ac", "addresses": ["1MdDhkvSou6FSsJEANEh5mSkckNSawwg1s"], "asm": "OP_DUP OP_HASH160 e23c180fb287908a8f6b6c1671dfb8884a400c91 OP_EQUALVERIFY OP_CHECKSIG", "type": "pubkeyhash"}, "value": 2.42108192, "n": 1}], "hex": "01000000013852572f999d64f7b702054b0ec710f122ac0182b1a3680620dbdd458fd8016e000000006b483045022100a06916bddae601a09156441ff535ddb20f5024dbcf2937b0f12ae6e0c7eeb39102204068a91d1400cfbd17abed04e9867a7baacc1e79b2204aae9c42383492f4e54f0121038c44375023b7fd4361371dfb37e5db07776ba4c264853339b1982ea666ac3bd4ffffffff02d039bc02000000001976a91467e3d76d6ebb1e25e8946f6d6a33133743ac3f4388ac20476e0e000000001976a914e23c180fb287908a8f6b6c1671dfb8884a400c9188ac00000000", "vin": [{"sequence": 4294967295, "scriptSig": {"hex": "483045022100a06916bddae601a09156441ff535ddb20f5024dbcf2937b0f12ae6e0c7eeb39102204068a91d1400cfbd17abed04e9867a7baacc1e79b2204aae9c42383492f4e54f0121038c44375023b7fd4361371dfb37e5db07776ba4c264853339b1982ea666ac3bd4", "asm": "3045022100a06916bddae601a09156441ff535ddb20f5024dbcf2937b0f12ae6e0c7eeb39102204068a91d1400cfbd17abed04e9867a7baacc1e79b2204aae9c42383492f4e54f[ALL] 038c44375023b7fd4361371dfb37e5db07776ba4c264853339b1982ea666ac3bd4"}, "vout": 0, "txid": "6e01d88f45dddb200668a3b18201ac22f110c70e4b0502b7f7649d992f575238"}], "txid": "5ba2f1fdf98a107041ca226ac4c75a7c52f3e9e687ba23719cb936f9f743bbbf", "blocktime": 1537870928, "version": 1, "confirmations": 11512, "time": 1537870928, "locktime": 0, "vsize": 226, "size": 226}