{"hash": "5ba4154a16974759f5b0a1146c9fff0471f231735716b91963b6a90f7142999b", "blockhash": "0000000000000000001cda96e906b7601b7a6fb1a3b62bca570a9e5d8f4b3de1", "vout": [{"scriptPubKey": {"reqSigs": 1, "hex": "76a9140661a01cd92a3dfa8cad5ed32ee09fafce0ddf4988ac", "addresses": ["1ak1HZNDDjedzpsZgbXuUsm5RLGVPiyE1"], "asm": "OP_DUP OP_HASH160 0661a01cd92a3dfa8cad5ed32ee09fafce0ddf49 OP_EQUALVERIFY OP_CHECKSIG", "type": "pubkeyhash"}, "value": 2.057e-05, "n": 0}, {"scriptPubKey": {"reqSigs": 1, "hex": "76a9142d4e8bb44f2b20ed59563fb7f31dfa359339de8888ac", "addresses": ["158ZW5uqqFTXCTQ81w8RdtKYXibfMZ3tmJ"], "asm": "OP_DUP OP_HASH160 2d4e8bb44f2b20ed59563fb7f31dfa359339de88 OP_EQUALVERIFY OP_CHECKSIG", "type": "pubkeyhash"}, "value": 0.1308, "n": 1}], "hex": "0100000002685e5650ef3786f44d562ba79086365bfa8d6757c7c29a7f0eaefad4417df4c7000000006b483045022100a963e2e8a5601d4258658138a6e4767bca41e6cfa8ae3291fc8ee0599a430c8402200230c87fc3af9ef9e068914d1a2f5e8b440ae7ebd93887614613efbbd021fb84012103803857b070d550a7af63e37a7450c1cd5bb6092aef218c07f997f6a15a989c18ffffffff8b44480a7307fc8eded269a2722b13ef52651940c0637dfd24efa0269395bafe000000006a4730440220240872b4bd8f058e25a70b2778bf89dd4e5fe35bd90607a29d79113c288808ff02201c5bcb9dcadbea3fa1330075c2ff0129f9d925d452e885490a623bf2d0cde0a401210351ce13a7c099d7ddeaadfe3c1727627657bccd58d18ed469b3f49f6ec8682e7cffffffff0209080000000000001976a9140661a01cd92a3dfa8cad5ed32ee09fafce0ddf4988acc095c700000000001976a9142d4e8bb44f2b20ed59563fb7f31dfa359339de8888ac00000000", "vin": [{"sequence": 4294967295, "scriptSig": {"hex": "483045022100a963e2e8a5601d4258658138a6e4767bca41e6cfa8ae3291fc8ee0599a430c8402200230c87fc3af9ef9e068914d1a2f5e8b440ae7ebd93887614613efbbd021fb84012103803857b070d550a7af63e37a7450c1cd5bb6092aef218c07f997f6a15a989c18", "asm": "3045022100a963e2e8a5601d4258658138a6e4767bca41e6cfa8ae3291fc8ee0599a430c8402200230c87fc3af9ef9e068914d1a2f5e8b440ae7ebd93887614613efbbd021fb84[ALL] 03803857b070d550a7af63e37a7450c1cd5bb6092aef218c07f997f6a15a989c18"}, "vout": 0, "txid": "c7f47d41d4faae0e7f9ac2c757678dfa5b368690a72b564df48637ef50565e68"}, {"sequence": 4294967295, "scriptSig": {"hex": "4730440220240872b4bd8f058e25a70b2778bf89dd4e5fe35bd90607a29d79113c288808ff02201c5bcb9dcadbea3fa1330075c2ff0129f9d925d452e885490a623bf2d0cde0a401210351ce13a7c099d7ddeaadfe3c1727627657bccd58d18ed469b3f49f6ec8682e7c", "asm": "30440220240872b4bd8f058e25a70b2778bf89dd4e5fe35bd90607a29d79113c288808ff02201c5bcb9dcadbea3fa1330075c2ff0129f9d925d452e885490a623bf2d0cde0a4[ALL] 0351ce13a7c099d7ddeaadfe3c1727627657bccd58d18ed469b3f49f6ec8682e7c"}, "vout": 0, "txid": "feba959326a0ef24fd7d63c040196552ef132b72a269d2de8efc07730a48448b"}], "txid": "5ba4154a16974759f5b0a1146c9fff0471f231735716b91963b6a90f7142999b", "blocktime": 1537873282, "version": 1, "confirmations": 11484, "time": 1537873282, "locktime": 0, "vsize": 373, "size": 373}