{"hash": "5bad16a0ba6210b2ac8e25150434af18707373e98b84eb952e1ec4d9d2ffe10e", "blockhash": "000000000000000000022b45ed06c6f4ccd3cf7fb5ba4856ebd2e58215665228", "vout": [{"scriptPubKey": {"reqSigs": 1, "hex": "76a914311afddd7a1538b7d0bb77aa11b4adc1f6a7cb3988ac", "addresses": ["15UeSpATQKJzTdokw9u1iL4uuoi4yUB8GZ"], "asm": "OP_DUP OP_HASH160 311afddd7a1538b7d0bb77aa11b4adc1f6a7cb39 OP_EQUALVERIFY OP_CHECKSIG", "type": "pubkeyhash"}, "value": 0.00138593, "n": 0}, {"scriptPubKey": {"reqSigs": 1, "hex": "76a9143cee2c05d0cf0c74bec527e05f93d625a4f82e4688ac", "addresses": ["16ZArzJZnH8BqjaeoU7iGwDhPLQ53YpSd3"], "asm": "OP_DUP OP_HASH160 3cee2c05d0cf0c74bec527e05f93d625a4f82e46 OP_EQUALVERIFY OP_CHECKSIG", "type": "pubkeyhash"}, "value": 0.00720011, "n": 1}], "hex": "0200000001e0a7202f2c60d2792b9df10bc552175f6f3d7a12d88dc2e17509a02c1bc4bbd9010000006b483045022100df4388b02336add233ca7c8e4f5dcff474b384152372bbe2f6b747ea39f86682022017943c5b08aac4406333100912d2c8212e5197a2768e2c7fae10a4328267e48d012103e0fc33b41c16c1c688cee78cd465228136a4f34ac28641efb4416ae055427e9bffffffff02611d0200000000001976a914311afddd7a1538b7d0bb77aa11b4adc1f6a7cb3988ac8bfc0a00000000001976a9143cee2c05d0cf0c74bec527e05f93d625a4f82e4688ac00000000", "vin": [{"sequence": 4294967295, "scriptSig": {"hex": "483045022100df4388b02336add233ca7c8e4f5dcff474b384152372bbe2f6b747ea39f86682022017943c5b08aac4406333100912d2c8212e5197a2768e2c7fae10a4328267e48d012103e0fc33b41c16c1c688cee78cd465228136a4f34ac28641efb4416ae055427e9b", "asm": "3045022100df4388b02336add233ca7c8e4f5dcff474b384152372bbe2f6b747ea39f86682022017943c5b08aac4406333100912d2c8212e5197a2768e2c7fae10a4328267e48d[ALL] 03e0fc33b41c16c1c688cee78cd465228136a4f34ac28641efb4416ae055427e9b"}, "vout": 1, "txid": "d9bbc41b2ca00975e1c28dd8127a3d6f5f1752c50bf19d2b79d2602c2f20a7e0"}], "txid": "5bad16a0ba6210b2ac8e25150434af18707373e98b84eb952e1ec4d9d2ffe10e", "blocktime": 1537869901, "version": 2, "confirmations": 11524, "time": 1537869901, "locktime": 0, "vsize": 226, "size": 226}