{"hash": "c537ecb257d57bf7fea1b91896f7e55f2c78c9d9d6cd648bd7059a07000d88ce", "blockhash": "0000000000000000001f0ddff1eddb255c1121bcd4da4f1bc9a0da00cae72433", "vout": [{"scriptPubKey": {"reqSigs": 1, "hex": "a9144dc684ca57bdd0211b235209ee27165d04cc070c87", "addresses": ["38nFmdsxXLk244mG4Ng2EEHT1RVQa8Ku51"], "asm": "OP_HASH160 4dc684ca57bdd0211b235209ee27165d04cc070c OP_EQUAL", "type": "scripthash"}, "value": 0.0061, "n": 0}, {"scriptPubKey": {"reqSigs": 1, "hex": "a914889b53038bb6320691d9fec7ee8dc8718131ae6387", "addresses": ["3E9KtkbDYzLLVULz9dXvNYmsRcrM3L6YNm"], "asm": "OP_HASH160 889b53038bb6320691d9fec7ee8dc8718131ae63 OP_EQUAL", "type": "scripthash"}, "value": 0.00999774, "n": 1}], "hex": "020000000001029331e1651db2a714cf082579ab9a64f9053565861a1cc7b7cc377420dd347d030100000017160014a6c88c40ce3e25d1841d6f165a7ca7898ac072edfeffffffa7ed2014cfd007fd8f721e17cd6b2de2160cbcb8c2af027deb4bd7a7361c795902000000171600142ee53f67c012c8fc745f2f7008b1fec5944b8cabfeffffff02d04e09000000000017a9144dc684ca57bdd0211b235209ee27165d04cc070c875e410f000000000017a914889b53038bb6320691d9fec7ee8dc8718131ae638702483045022100ecccb381ef994b41035aa1e7a674cc875742117653d1672853549cc0d1dbbfc802204f92cd01d42b3bfddf35b4260f7a18371d577e5300d69df7934f2f5cbb9b67fb01210236dd549f23226a8bf44568f3df4ceef28fc3d5ba85081fdd6ea170e216a696dd02473044022028990ad6fe71cfbe8601590f38a20ab967f95feac6f30ccdca101dd7a1d6addf0220044832e61af35ffe4f3da751b48d6ea3d61b81beed5cec1a104150d6f4736841012102156dd4593b4adc5fd951f2721c2f44bb75a75bc6cb428809cb567d6e72d1f007b3480800", "vin": [{"txinwitness": ["3045022100ecccb381ef994b41035aa1e7a674cc875742117653d1672853549cc0d1dbbfc802204f92cd01d42b3bfddf35b4260f7a18371d577e5300d69df7934f2f5cbb9b67fb01", "0236dd549f23226a8bf44568f3df4ceef28fc3d5ba85081fdd6ea170e216a696dd"], "sequence": 4294967294, "scriptSig": {"hex": "160014a6c88c40ce3e25d1841d6f165a7ca7898ac072ed", "asm": "0014a6c88c40ce3e25d1841d6f165a7ca7898ac072ed"}, "vout": 1, "txid": "037d34dd207437ccb7c71c1a86653505f9649aab792508cf14a7b21d65e13193"}, {"txinwitness": ["3044022028990ad6fe71cfbe8601590f38a20ab967f95feac6f30ccdca101dd7a1d6addf0220044832e61af35ffe4f3da751b48d6ea3d61b81beed5cec1a104150d6f473684101", "02156dd4593b4adc5fd951f2721c2f44bb75a75bc6cb428809cb567d6e72d1f007"], "sequence": 4294967294, "scriptSig": {"hex": "1600142ee53f67c012c8fc745f2f7008b1fec5944b8cab", "asm": "00142ee53f67c012c8fc745f2f7008b1fec5944b8cab"}, "vout": 2, "txid": "59791c36a7d74beb7d02afc2b8bc0c16e22d6bcd171e728ffd07d0cf1420eda7"}], "txid": "5baf63aa6146cbddfb345067ebf6382a97191519e0248ccc4737734f9fc4f16f", "blocktime": 1537872018, "version": 2, "confirmations": 11489, "time": 1537872018, "locktime": 542899, "vsize": 257, "size": 419}