{"hash": "5bb1713c358ea20eb1069e01d226902910fc1658d10179865ba05abc3f51687d", "blockhash": "00000000000000000024a2167bbff67b0be802c0b01cdd79e6331c2be6459f87", "vout": [{"scriptPubKey": {"reqSigs": 1, "hex": "76a91410911630f3c7af3d8df3493ac48197f9e4cf30cb88ac", "addresses": ["12WbcsPpD1ZxnTWe39sFPivN83s1nkRZsj"], "asm": "OP_DUP OP_HASH160 10911630f3c7af3d8df3493ac48197f9e4cf30cb OP_EQUALVERIFY OP_CHECKSIG", "type": "pubkeyhash"}, "value": 0.00237045, "n": 0}, {"scriptPubKey": {"reqSigs": 1, "hex": "a91422b197f78e5b014e9daa8583f030ea6e5f05e40f87", "addresses": ["34rTeVCtmybpreqz86oDnwLPGAj7RJycJH"], "asm": "OP_HASH160 22b197f78e5b014e9daa8583f030ea6e5f05e40f OP_EQUAL", "type": "scripthash"}, "value": 0.00311979, "n": 1}], "hex": "01000000017429635f3d9565353d45142762225ebbf1a59d8f546b2285e5c524865b7381c8010000006a473044022024b88aa7fa6382f11c125f52aa5b16f5fff07e4c393352ca165ca0b75d67cfe20220154e4000a7e368ee617b3f457124ec5a5da91b0bfcf7312a028b22990d48d6e7012102305a9e7d964a31e4e83c8b84b66543c1c486f90c2f95d64391ded98dc0bf8779ffffffff02f59d0300000000001976a91410911630f3c7af3d8df3493ac48197f9e4cf30cb88acabc204000000000017a91422b197f78e5b014e9daa8583f030ea6e5f05e40f8700000000", "vin": [{"sequence": 4294967295, "scriptSig": {"hex": "473044022024b88aa7fa6382f11c125f52aa5b16f5fff07e4c393352ca165ca0b75d67cfe20220154e4000a7e368ee617b3f457124ec5a5da91b0bfcf7312a028b22990d48d6e7012102305a9e7d964a31e4e83c8b84b66543c1c486f90c2f95d64391ded98dc0bf8779", "asm": "3044022024b88aa7fa6382f11c125f52aa5b16f5fff07e4c393352ca165ca0b75d67cfe20220154e4000a7e368ee617b3f457124ec5a5da91b0bfcf7312a028b22990d48d6e7[ALL] 02305a9e7d964a31e4e83c8b84b66543c1c486f90c2f95d64391ded98dc0bf8779"}, "vout": 1, "txid": "c881735b8624c5e585226b548f9da5f1bb5e22622714453d3565953d5f632974"}], "txid": "5bb1713c358ea20eb1069e01d226902910fc1658d10179865ba05abc3f51687d", "blocktime": 1537870564, "version": 1, "confirmations": 11515, "time": 1537870564, "locktime": 0, "vsize": 223, "size": 223}