{"hash": "5bb3dc1f53f9283414d07dea56b8c33ed4c83e116ad80eb0d891a72ac1315e37", "blockhash": "0000000000000000001cda96e906b7601b7a6fb1a3b62bca570a9e5d8f4b3de1", "vout": [{"scriptPubKey": {"reqSigs": 1, "hex": "76a9148645cae0d9df617ba7cdc123a3fce004dc74142688ac", "addresses": ["1DEy9yRHF4JRaBS7ZVxy5nbRazNHxyg8g6"], "asm": "OP_DUP OP_HASH160 8645cae0d9df617ba7cdc123a3fce004dc741426 OP_EQUALVERIFY OP_CHECKSIG", "type": "pubkeyhash"}, "value": 0.00353225, "n": 0}, {"scriptPubKey": {"reqSigs": 1, "hex": "76a91425c7e0405cd72ac358e244ef72d936d51f5f4cdb88ac", "addresses": ["14SmSj1ybpknSoRcnpw1Fvn3maaadEayUn"], "asm": "OP_DUP OP_HASH160 25c7e0405cd72ac358e244ef72d936d51f5f4cdb OP_EQUALVERIFY OP_CHECKSIG", "type": "pubkeyhash"}, "value": 0.00625394, "n": 1}], "hex": "0100000001a18b0864127cfcdd7df67f526c8c5c01217e8d04118d5727dca93e3877ae8fa1000000006b483045022100faba3c24a58663502625c1897555933671e366a0c356fa8d7103d1cbf4ac5761022065305df6c51087592e19e6a03d45fedcb00de1b7fc2563332d2b41e0d72d325b012103e98fb4053cc3e7dd077042c875835f30b13b4a3a0bc95d326e5d730606d902daffffffff02c9630500000000001976a9148645cae0d9df617ba7cdc123a3fce004dc74142688acf28a0900000000001976a91425c7e0405cd72ac358e244ef72d936d51f5f4cdb88ac00000000", "vin": [{"sequence": 4294967295, "scriptSig": {"hex": "483045022100faba3c24a58663502625c1897555933671e366a0c356fa8d7103d1cbf4ac5761022065305df6c51087592e19e6a03d45fedcb00de1b7fc2563332d2b41e0d72d325b012103e98fb4053cc3e7dd077042c875835f30b13b4a3a0bc95d326e5d730606d902da", "asm": "3045022100faba3c24a58663502625c1897555933671e366a0c356fa8d7103d1cbf4ac5761022065305df6c51087592e19e6a03d45fedcb00de1b7fc2563332d2b41e0d72d325b[ALL] 03e98fb4053cc3e7dd077042c875835f30b13b4a3a0bc95d326e5d730606d902da"}, "vout": 0, "txid": "a18fae77383ea9dc27578d11048d7e21015c8c6c527ff67dddfc7c1264088ba1"}], "txid": "5bb3dc1f53f9283414d07dea56b8c33ed4c83e116ad80eb0d891a72ac1315e37", "blocktime": 1537873282, "version": 1, "confirmations": 11481, "time": 1537873282, "locktime": 0, "vsize": 226, "size": 226}