{"hash": "b452160c98ed194ade65da8d2b6057d44c988405061dff1452147f2a6883f99e", "blockhash": "0000000000000000000dcc0f55137456b1a82d3642486a52398922ac4d620174", "vout": [{"scriptPubKey": {"reqSigs": 1, "hex": "76a91458320b0f8c9d535b1b09f478851d9f62b615984288ac", "addresses": ["193LQwkaLLQTdvCjVpxLyH5rp1UP1eKMhp"], "asm": "OP_DUP OP_HASH160 58320b0f8c9d535b1b09f478851d9f62b6159842 OP_EQUALVERIFY OP_CHECKSIG", "type": "pubkeyhash"}, "value": 0.01561961, "n": 0}, {"scriptPubKey": {"reqSigs": 1, "hex": "a914854ae20b8496b971087ad5d3403b9918cba3895f87", "addresses": ["3DqoW22Gz3aAXhwkdi8ypX2xc2HZZecsnq"], "asm": "OP_HASH160 854ae20b8496b971087ad5d3403b9918cba3895f OP_EQUAL", "type": "scripthash"}, "value": 0.25, "n": 1}, {"scriptPubKey": {"reqSigs": 1, "hex": "a914e488a9b1352428a2a084ae60be7f2b0d30f4858b87", "addresses": ["3NXPhnNYxjsE4Y7V27AvkoPzZGWVx7azdN"], "asm": "OP_HASH160 e488a9b1352428a2a084ae60be7f2b0d30f4858b OP_EQUAL", "type": "scripthash"}, "value": 0.03416821, "n": 2}], "hex": "0100000000010170573014fad89d07fe025f16242c6ca618c9313437f4f15050399500e4837dec090000001716001496bc42f5e47819491750be62abf3108c41af3dd5ffffffff0369d51700000000001976a91458320b0f8c9d535b1b09f478851d9f62b615984288ac40787d010000000017a914854ae20b8496b971087ad5d3403b9918cba3895f87f52234000000000017a914e488a9b1352428a2a084ae60be7f2b0d30f4858b8702483045022100d766e00760e8e42c7d019051f77edbfa8aef56a17f544741f78bcde245e79a41022011a22ee2bf5e603b06bfc62ab06ffd3e273e1b9925833197be528e70668da6240121033beb1f8bec16e595ea3bc989a9395eebbedb57f3b91bf501bac817419afea59100000000", "vin": [{"txinwitness": ["3045022100d766e00760e8e42c7d019051f77edbfa8aef56a17f544741f78bcde245e79a41022011a22ee2bf5e603b06bfc62ab06ffd3e273e1b9925833197be528e70668da62401", "033beb1f8bec16e595ea3bc989a9395eebbedb57f3b91bf501bac817419afea591"], "sequence": 4294967295, "scriptSig": {"hex": "16001496bc42f5e47819491750be62abf3108c41af3dd5", "asm": "001496bc42f5e47819491750be62abf3108c41af3dd5"}, "vout": 9, "txid": "ec7d83e40095395050f1f4373431c918a66c2c24165f02fe079dd8fa14305770"}], "txid": "5bb39012abcbe3e0264bf1013f929d61e71efc96c184e4fe21874522475c0eda", "blocktime": 1537870268, "version": 1, "confirmations": 11516, "time": 1537870268, "locktime": 0, "vsize": 200, "size": 282}