{"hash": "5bb7fb7540918dd4ff99cbc9450c11131e9fd546b3143e60e043b8f20a9f0b93", "blockhash": "00000000000000000004ffacab907a6b429b9a5745fa0b75af4234bf69dd7176", "vout": [{"scriptPubKey": {"reqSigs": 1, "hex": "76a9141a8e5ce884b285fcf9c29be19d3d25c62d7bdad388ac", "addresses": ["13RR7Y96GW7GxJSiUSHUXDhsuyweSs13iZ"], "asm": "OP_DUP OP_HASH160 1a8e5ce884b285fcf9c29be19d3d25c62d7bdad3 OP_EQUALVERIFY OP_CHECKSIG", "type": "pubkeyhash"}, "value": 0.00707094, "n": 0}, {"scriptPubKey": {"reqSigs": 1, "hex": "76a914d30db4aaae69473e3448452098270a0f6d4fd22288ac", "addresses": ["1LEwzmVADK2aWEn6ND4rsvs8VwuWubkpin"], "asm": "OP_DUP OP_HASH160 d30db4aaae69473e3448452098270a0f6d4fd222 OP_EQUALVERIFY OP_CHECKSIG", "type": "pubkeyhash"}, "value": 0.000214, "n": 1}], "hex": "01000000014937b550ff7e62fb8cab42be9b6f5a830232be08e48a96960c686fb9f730b94e070000006b483045022100e71ccef12dcf289500a926b23bc5423ad23394d39a1845b08d9ee4235bc1d0c70220721e6a4197a581006704e2221ccf0e54e5da112933df43dd059991169de748e201210248c7fa006d81c0d358e9b676a65fa11aeadc4ae3755589ff1d9ba5b2eee6b7c8f0ffffff0216ca0a00000000001976a9141a8e5ce884b285fcf9c29be19d3d25c62d7bdad388ac98530000000000001976a914d30db4aaae69473e3448452098270a0f6d4fd22288ac00000000", "vin": [{"sequence": 4294967280, "scriptSig": {"hex": "483045022100e71ccef12dcf289500a926b23bc5423ad23394d39a1845b08d9ee4235bc1d0c70220721e6a4197a581006704e2221ccf0e54e5da112933df43dd059991169de748e201210248c7fa006d81c0d358e9b676a65fa11aeadc4ae3755589ff1d9ba5b2eee6b7c8", "asm": "3045022100e71ccef12dcf289500a926b23bc5423ad23394d39a1845b08d9ee4235bc1d0c70220721e6a4197a581006704e2221ccf0e54e5da112933df43dd059991169de748e2[ALL] 0248c7fa006d81c0d358e9b676a65fa11aeadc4ae3755589ff1d9ba5b2eee6b7c8"}, "vout": 7, "txid": "4eb930f7b96f680c96968ae408be3202835a6f9bbe42ab8cfb627eff50b53749"}], "txid": "5bb7fb7540918dd4ff99cbc9450c11131e9fd546b3143e60e043b8f20a9f0b93", "blocktime": 1537875543, "version": 1, "confirmations": 11464, "time": 1537875543, "locktime": 0, "vsize": 226, "size": 226}