{"hash": "33d29e7d88dedaa9f66d400126422b96993e06ba16e051ae245994ea6868893b", "blockhash": "00000000000000000017f5eb5941039fbcee6240d03bc1f2f8e35350df66a1d8", "vout": [{"scriptPubKey": {"reqSigs": 1, "hex": "76a914b55649c194881389dbf1b54b81a544272554d14d88ac", "addresses": ["1HXpg8D9AMGFVZ9FEU2tkZYvAZ8xBhVudo"], "asm": "OP_DUP OP_HASH160 b55649c194881389dbf1b54b81a544272554d14d OP_EQUALVERIFY OP_CHECKSIG", "type": "pubkeyhash"}, "value": 0.00319016, "n": 0}, {"scriptPubKey": {"reqSigs": 1, "hex": "a91449e166f6ec73f5a1ed47e735b2214cb27b935c5187", "addresses": ["38RfGmSxrKeAhpPBjGihKPJxB4ZF2o8gFy"], "asm": "OP_HASH160 49e166f6ec73f5a1ed47e735b2214cb27b935c51 OP_EQUAL", "type": "scripthash"}, "value": 0.01678164, "n": 1}], "hex": "02000000000102d821a12046500be2461439d29df92537f387a029e6ae2f47652086252f0599010100000017160014cd9de0315f254cada8b519c208e06fb724326e75fefffffff50996dd998fe1e7ef8ca70739a3787f3a764392ee5b899baea8a02ca18d1e450100000017160014a44de9cff2cf986d5a9130fe9257ed707eee1c2ffeffffff0228de0400000000001976a914b55649c194881389dbf1b54b81a544272554d14d88ac549b19000000000017a91449e166f6ec73f5a1ed47e735b2214cb27b935c518702483045022100e1ed7c2e9610b2003c6df00bc3ca4a7bce359fc9efb45936928b7fd8f5ae7a5e0220732078600f10d258cc8f00ec9e8131e7502949eec9305151f6cdcc6403f56f4801210313496e16064779206757d47436b3a6ffcfc45ea0fae756c0460b6b8b74b9e2d1024730440220533d38b7feaeba630473f13fd7da8038ec9381856323cf380728070eedd70f6b02207cfff1fba679db2f43f381d35e7bbdbf3055978fbcd325eb7b94e978630da9c601210367218bdefad21e86d860cf5d2d11adb4b3d5ad010eb74d126c503723cb01b2c915490800", "vin": [{"txinwitness": ["3045022100e1ed7c2e9610b2003c6df00bc3ca4a7bce359fc9efb45936928b7fd8f5ae7a5e0220732078600f10d258cc8f00ec9e8131e7502949eec9305151f6cdcc6403f56f4801", "0313496e16064779206757d47436b3a6ffcfc45ea0fae756c0460b6b8b74b9e2d1"], "sequence": 4294967294, "scriptSig": {"hex": "160014cd9de0315f254cada8b519c208e06fb724326e75", "asm": "0014cd9de0315f254cada8b519c208e06fb724326e75"}, "vout": 1, "txid": "0199052f25862065472faee629a087f33725f99dd2391446e20b504620a121d8"}, {"txinwitness": ["30440220533d38b7feaeba630473f13fd7da8038ec9381856323cf380728070eedd70f6b02207cfff1fba679db2f43f381d35e7bbdbf3055978fbcd325eb7b94e978630da9c601", "0367218bdefad21e86d860cf5d2d11adb4b3d5ad010eb74d126c503723cb01b2c9"], "sequence": 4294967294, "scriptSig": {"hex": "160014a44de9cff2cf986d5a9130fe9257ed707eee1c2f", "asm": "0014a44de9cff2cf986d5a9130fe9257ed707eee1c2f"}, "vout": 1, "txid": "451e8da12ca0a8ae9b895bee9243763a7f78a33907a78cefe7e18f99dd9609f5"}], "txid": "5bb83438b684045e97b564e7dfff96d334cef3ab7fe441606a9396455198272d", "blocktime": 1537874412, "version": 2, "confirmations": 11468, "time": 1537874412, "locktime": 542997, "vsize": 259, "size": 421}