{"hash": "5bc7ac259ff837bc12c548aead5b7f5dc887ed024298cce2ec3f324f88c5861e", "blockhash": "0000000000000000001e0dab787dd257d1dbfcb92a98c2207d5e1078be1f4165", "vout": [{"scriptPubKey": {"reqSigs": 1, "hex": "76a914c163e259d6e6170b6fb97d24036f87fe976fee7588ac", "addresses": ["1JdZ56gfS8feaQHfLuaTh6PZpa8kUhxeoh"], "asm": "OP_DUP OP_HASH160 c163e259d6e6170b6fb97d24036f87fe976fee75 OP_EQUALVERIFY OP_CHECKSIG", "type": "pubkeyhash"}, "value": 0.00635706, "n": 0}, {"scriptPubKey": {"reqSigs": 1, "hex": "a914efc907135df3d7429c9eb82dd3d42d960cf888b187", "addresses": ["3PYtF34wKfby1FZC44i1au1mGB474fXpZP"], "asm": "OP_HASH160 efc907135df3d7429c9eb82dd3d42d960cf888b1 OP_EQUAL", "type": "scripthash"}, "value": 0.01749587, "n": 1}], "hex": "0100000002718432aca0ce3b6892705a257e0737c01ff1dfbed0504b85501594d215b7277e0b0000006a4730440220548af84ea2b40b2c690124cfb1a8ca2794c9c95c0bb28f116a73579c739ca4eb02201703eb3c5a501cf5f730953bf69ce5bbfd30d9fba9293d178f94416b359eee2e01210399722be03199438b96d8761423152fb3e20f48738c925795d853169eb5946031ffffffffad3b2eb152f74ec2ad5de0bdd668073337edfbead0f9ee62513e7e1bdf4a31ee000000006b483045022100fb055d7f9fa8be1b3902b891d42e35feb6d2f685a04f90230080b4c529d5a27c022052f7e1c3d5399d6710f2086d3d25549793b5a17c8529ff6e79fd63d8c0aaae53012102a8f0ddfe646c521ecc64e8762b65da2e393927a13d4568f281383076497ea3cfffffffff023ab30900000000001976a914c163e259d6e6170b6fb97d24036f87fe976fee7588ac53b21a000000000017a914efc907135df3d7429c9eb82dd3d42d960cf888b18700000000", "vin": [{"sequence": 4294967295, "scriptSig": {"hex": "4730440220548af84ea2b40b2c690124cfb1a8ca2794c9c95c0bb28f116a73579c739ca4eb02201703eb3c5a501cf5f730953bf69ce5bbfd30d9fba9293d178f94416b359eee2e01210399722be03199438b96d8761423152fb3e20f48738c925795d853169eb5946031", "asm": "30440220548af84ea2b40b2c690124cfb1a8ca2794c9c95c0bb28f116a73579c739ca4eb02201703eb3c5a501cf5f730953bf69ce5bbfd30d9fba9293d178f94416b359eee2e[ALL] 0399722be03199438b96d8761423152fb3e20f48738c925795d853169eb5946031"}, "vout": 11, "txid": "7e27b715d2941550854b50d0bedff11fc037077e255a7092683bcea0ac328471"}, {"sequence": 4294967295, "scriptSig": {"hex": "483045022100fb055d7f9fa8be1b3902b891d42e35feb6d2f685a04f90230080b4c529d5a27c022052f7e1c3d5399d6710f2086d3d25549793b5a17c8529ff6e79fd63d8c0aaae53012102a8f0ddfe646c521ecc64e8762b65da2e393927a13d4568f281383076497ea3cf", "asm": "3045022100fb055d7f9fa8be1b3902b891d42e35feb6d2f685a04f90230080b4c529d5a27c022052f7e1c3d5399d6710f2086d3d25549793b5a17c8529ff6e79fd63d8c0aaae53[ALL] 02a8f0ddfe646c521ecc64e8762b65da2e393927a13d4568f281383076497ea3cf"}, "vout": 0, "txid": "ee314adf1b7e3e5162eef9d0eafbed37330768d6bde05dadc24ef752b12e3bad"}], "txid": "5bc7ac259ff837bc12c548aead5b7f5dc887ed024298cce2ec3f324f88c5861e", "blocktime": 1537872475, "version": 1, "confirmations": 11487, "time": 1537872475, "locktime": 0, "vsize": 371, "size": 371}