{"hash": "5bc82ad0e8c9f60306909d701409c1c999a46c038a488ea1e2ada671877d6820", "blockhash": "0000000000000000000baef3f32e3676a92c3b2e5da21b426e4f302fc371ce76", "vout": [{"scriptPubKey": {"reqSigs": 1, "hex": "a9141e8f727605e7b57811408b5921dd4947df51818487", "addresses": ["34Uc3BKrfvHR6cbSmnXs7mcRYpCu4jxuby"], "asm": "OP_HASH160 1e8f727605e7b57811408b5921dd4947df518184 OP_EQUAL", "type": "scripthash"}, "value": 0.01149, "n": 0}, {"scriptPubKey": {"reqSigs": 1, "hex": "a914e370231feecbfc25e2e2423a5a79bf79bfdca59887", "addresses": ["3NRbeX3vD5VaVE4TDU9ivCDsEf7NPPte6J"], "asm": "OP_HASH160 e370231feecbfc25e2e2423a5a79bf79bfdca598 OP_EQUAL", "type": "scripthash"}, "value": 9.32141128, "n": 1}], "hex": "0100000001dc167799fdffa75cf09cb7764922e678b3a65e47bef7246ff4c819b5beab457c01000000d90047304402204f3fb72855f52b6963fb6c62a5eb7709e1da97942f81774a076ef86844f6d4f602207724cbe943fc8b189d62853b2dff08af08bf7a8ffcda441b9f74abb3e8721ac10147304402207e0ee755f7558e4080066f387e6bcb43c28788b1fc6a7d08c4805898983f168d02200bd859b7c71925f56800c0f8594b019862c584e601ab8a4f04cc973310a550c6014752210327881b6abce6535553a3ce21fad12a7d74fd237ce7c4cd270a267162344e3082210256141f8eb687f5a68c5cc65054652dc25116fa285e44d72b44368827ffe77d9a52aeffffffff02488811000000000017a9141e8f727605e7b57811408b5921dd4947df5181848748588f370000000017a914e370231feecbfc25e2e2423a5a79bf79bfdca5988700000000", "vin": [{"sequence": 4294967295, "scriptSig": {"hex": "0047304402204f3fb72855f52b6963fb6c62a5eb7709e1da97942f81774a076ef86844f6d4f602207724cbe943fc8b189d62853b2dff08af08bf7a8ffcda441b9f74abb3e8721ac10147304402207e0ee755f7558e4080066f387e6bcb43c28788b1fc6a7d08c4805898983f168d02200bd859b7c71925f56800c0f8594b019862c584e601ab8a4f04cc973310a550c6014752210327881b6abce6535553a3ce21fad12a7d74fd237ce7c4cd270a267162344e3082210256141f8eb687f5a68c5cc65054652dc25116fa285e44d72b44368827ffe77d9a52ae", "asm": "0 304402204f3fb72855f52b6963fb6c62a5eb7709e1da97942f81774a076ef86844f6d4f602207724cbe943fc8b189d62853b2dff08af08bf7a8ffcda441b9f74abb3e8721ac1[ALL] 304402207e0ee755f7558e4080066f387e6bcb43c28788b1fc6a7d08c4805898983f168d02200bd859b7c71925f56800c0f8594b019862c584e601ab8a4f04cc973310a550c6[ALL] 52210327881b6abce6535553a3ce21fad12a7d74fd237ce7c4cd270a267162344e3082210256141f8eb687f5a68c5cc65054652dc25116fa285e44d72b44368827ffe77d9a52ae"}, "vout": 1, "txid": "7c45abbeb519c8f46f24f7be475ea6b378e6224976b79cf05ca7fffd997716dc"}], "txid": "5bc82ad0e8c9f60306909d701409c1c999a46c038a488ea1e2ada671877d6820", "blocktime": 1537876114, "version": 1, "confirmations": 11460, "time": 1537876114, "locktime": 0, "vsize": 332, "size": 332}