{"hash": "675214cff402d95310371d2b0f7256f37576928c81f7751097bc5411d583d768", "blockhash": "00000000000000000018f53835495a110e01622372bf6ae95dc86f2b0ab887b0", "vout": [{"scriptPubKey": {"reqSigs": 1, "hex": "76a914658bc2e4001cfacc64a3e041943e921b3086737588ac", "addresses": ["1AFvgAG4FN8fhtp3ZtSF8hsmKvPTDiB4RV"], "asm": "OP_DUP OP_HASH160 658bc2e4001cfacc64a3e041943e921b30867375 OP_EQUALVERIFY OP_CHECKSIG", "type": "pubkeyhash"}, "value": 3.295e-05, "n": 0}, {"scriptPubKey": {"reqSigs": 1, "hex": "a914e8db75c900cf08f06518e96d167331f2a4abfb3387", "addresses": ["3NvFbQMAkkqEFj4i1sYPPLkSWzxTFUchjA"], "asm": "OP_HASH160 e8db75c900cf08f06518e96d167331f2a4abfb33 OP_EQUAL", "type": "scripthash"}, "value": 0.00045655, "n": 1}], "hex": "01000000000101ed16ec7ca54241fa2086984d4d6b262ed53f1f255bcb049de8831390751249030000000023220020941cfaff8837763dc1f69ff82b6d6553fdea17a41cfc29a04403293eedd8ccc7ffffffff02df0c0000000000001976a914658bc2e4001cfacc64a3e041943e921b3086737588ac57b200000000000017a914e8db75c900cf08f06518e96d167331f2a4abfb338704004730440220403c0eef0b7286512d2fe0aaf861ac50c30c6ad304f560b04259c24b22bd4eee02203410d656d2d27ee416fdf54349bf08542445178c8581bd11825d12a10d8ae575014830450221008acf693223ded470de86768441da2f8466cba299177b83fb90f1e6f50380602802207f5976f5ba7edb4346ad175d9de99beb8b04d99f3b92701ac0a5250357626e160147522102531db3a5883f29bab4241dd0cd726936667bcda445d89bdd22244e828b6993342103148c80a5bdfddb05ff5bcffc397c8ca748d8b435ec6a175bc9d7bfc7fc6f853752ae00000000", "vin": [{"txinwitness": ["", "30440220403c0eef0b7286512d2fe0aaf861ac50c30c6ad304f560b04259c24b22bd4eee02203410d656d2d27ee416fdf54349bf08542445178c8581bd11825d12a10d8ae57501", "30450221008acf693223ded470de86768441da2f8466cba299177b83fb90f1e6f50380602802207f5976f5ba7edb4346ad175d9de99beb8b04d99f3b92701ac0a5250357626e1601", "522102531db3a5883f29bab4241dd0cd726936667bcda445d89bdd22244e828b6993342103148c80a5bdfddb05ff5bcffc397c8ca748d8b435ec6a175bc9d7bfc7fc6f853752ae"], "sequence": 4294967295, "scriptSig": {"hex": "220020941cfaff8837763dc1f69ff82b6d6553fdea17a41cfc29a04403293eedd8ccc7", "asm": "0020941cfaff8837763dc1f69ff82b6d6553fdea17a41cfc29a04403293eedd8ccc7"}, "vout": 0, "txid": "03491275901383e89d04cb5b251f3fd52e266b4d4d988620fa4142a57cec16ed"}], "txid": "5bcc57e07c026ae9507e2070dc00d23ea7344580be8ff92c10c6d59a52162ee9", "blocktime": 1537870928, "version": 1, "confirmations": 11514, "time": 1537870928, "locktime": 0, "vsize": 208, "size": 373}