{"hash": "902456b516ac2d2e4fb84b8d057002453147560d685fc4c8420233e8c5f0e6d6", "blockhash": "0000000000000000001e0dab787dd257d1dbfcb92a98c2207d5e1078be1f4165", "vout": [{"scriptPubKey": {"reqSigs": 1, "hex": "001485a41631db08ab1a123319d0b204f342ab289c70", "addresses": ["bc1qskjpvvwmpz435y3nr8gtyp8ng24j38rs4ufj0j"], "asm": "0 85a41631db08ab1a123319d0b204f342ab289c70", "type": "witness_v0_keyhash"}, "value": 0.00624713, "n": 0}, {"scriptPubKey": {"reqSigs": 1, "hex": "a91461ec1b87d3fb7d4efb4a3f6851071f5fc344850287", "addresses": ["3AcnKC2MhbW6Airf3LmzT4wEUY6tS7VrtP"], "asm": "OP_HASH160 61ec1b87d3fb7d4efb4a3f6851071f5fc3448502 OP_EQUAL", "type": "scripthash"}, "value": 0.04386379, "n": 1}], "hex": "01000000000101be795fa392319d181564ba6e6803334ccd9bf1eed929f709ce5f3f01311fcc40480000001716001480d980644b0a214ad2187c185b3db525bd8a6bfdffffffff02498809000000000016001485a41631db08ab1a123319d0b204f342ab289c704bee42000000000017a91461ec1b87d3fb7d4efb4a3f6851071f5fc344850287024830450221008cae918e0ebdb828392032ccf44a4cb84b5d3f68089096eec6103f7334a1cb300220704b1dfb83d644b4f09e7271d0bb9b78efe5edc764ab60fd71e0014faa6b9843012102cb84530902c7a87a0cf4952e9c3e26b17a7a886627c072166bf745b318986b5800000000", "vin": [{"txinwitness": ["30450221008cae918e0ebdb828392032ccf44a4cb84b5d3f68089096eec6103f7334a1cb300220704b1dfb83d644b4f09e7271d0bb9b78efe5edc764ab60fd71e0014faa6b984301", "02cb84530902c7a87a0cf4952e9c3e26b17a7a886627c072166bf745b318986b58"], "sequence": 4294967295, "scriptSig": {"hex": "16001480d980644b0a214ad2187c185b3db525bd8a6bfd", "asm": "001480d980644b0a214ad2187c185b3db525bd8a6bfd"}, "vout": 72, "txid": "40cc1f31013f5fce09f729d9eef19bcd4c3303686eba6415189d3192a35f79be"}], "txid": "5bcfd892eff9eead02386ce24766ed1b1b318f335fb015ea6c165d94c6071f3d", "blocktime": 1537872475, "version": 1, "confirmations": 11486, "time": 1537872475, "locktime": 0, "vsize": 165, "size": 247}