{"hash": "5bd8a0423a94c1562da424fae9395897477816c44f1071f853fc7ea91b7cb667", "blockhash": "0000000000000000001cda96e906b7601b7a6fb1a3b62bca570a9e5d8f4b3de1", "vout": [{"scriptPubKey": {"reqSigs": 1, "hex": "76a9146d3d4a880438381d19e74dd9e3ebfbd42ba0b14888ac", "addresses": ["1Axc5VZZcbB3RjRNvhvmpxSdkyvHG6yhJz"], "asm": "OP_DUP OP_HASH160 6d3d4a880438381d19e74dd9e3ebfbd42ba0b148 OP_EQUALVERIFY OP_CHECKSIG", "type": "pubkeyhash"}, "value": 0.00998507, "n": 0}, {"scriptPubKey": {"reqSigs": 1, "hex": "76a91420bf7593ed0edb83d9fbd7f61197d2ac108bb1b788ac", "addresses": ["13z9yxs2Zu2tx17jLtnhT4sz4SU5tFqnDV"], "asm": "OP_DUP OP_HASH160 20bf7593ed0edb83d9fbd7f61197d2ac108bb1b7 OP_EQUALVERIFY OP_CHECKSIG", "type": "pubkeyhash"}, "value": 0.02707393, "n": 1}], "hex": "0200000003f69a36a4dea30425b8b1a36d8f8a7c13419019697c654d16af192e46efb04a6d010000006a4730440220362343f41dc633363a4140635b7dedd8b669a51da3a0963b4236e7330a76fbd502205062350aee6b3ed5241bb1bba3b688b5bf0e339c6beda30be7e9cb3b127e5fad0121025e45872ea9a51fc2b996637b9aaa3da2ab41df1e97b031ee8636009c8ad2389bfeffffffd0ed8670076196cd51eaefd05993a6fa6ffdaf911ccac4a46dd7dc762379277c020000006a47304402200357223d9dd401c213e33c265788fbdd236627844428d8e18cc792045bcf9ea5022039e6978f9678f79b9d35bf927a739cb35a88f0f4f427eef279b7d3e93360a5130121036fd4bda3303adbb2708f0c4d678c4c63627634a11e2a49e03e627599939a0781feffffffe3fb7bc23aa32dd773cd9722c522ccc4431f929947e9e11ec9fe86244bdf5713010000006b483045022100e9b79502e8b32a9d7f2104751cfdaaf2ca16e10c41b432469c07866bc487b12402202d332d27cdbf99c8768d70a60f568f31b59d154b39d499b9716d6248834b6919012102e387ded30e198c361ee6406be0933bfcd715e7eb77e3bc1d7e56a3d94e504f01feffffff026b3c0f00000000001976a9146d3d4a880438381d19e74dd9e3ebfbd42ba0b14888acc14f2900000000001976a91420bf7593ed0edb83d9fbd7f61197d2ac108bb1b788ac13490800", "vin": [{"sequence": 4294967294, "scriptSig": {"hex": "4730440220362343f41dc633363a4140635b7dedd8b669a51da3a0963b4236e7330a76fbd502205062350aee6b3ed5241bb1bba3b688b5bf0e339c6beda30be7e9cb3b127e5fad0121025e45872ea9a51fc2b996637b9aaa3da2ab41df1e97b031ee8636009c8ad2389b", "asm": "30440220362343f41dc633363a4140635b7dedd8b669a51da3a0963b4236e7330a76fbd502205062350aee6b3ed5241bb1bba3b688b5bf0e339c6beda30be7e9cb3b127e5fad[ALL] 025e45872ea9a51fc2b996637b9aaa3da2ab41df1e97b031ee8636009c8ad2389b"}, "vout": 1, "txid": "6d4ab0ef462e19af164d657c69199041137c8a8f6da3b1b82504a3dea4369af6"}, {"sequence": 4294967294, "scriptSig": {"hex": "47304402200357223d9dd401c213e33c265788fbdd236627844428d8e18cc792045bcf9ea5022039e6978f9678f79b9d35bf927a739cb35a88f0f4f427eef279b7d3e93360a5130121036fd4bda3303adbb2708f0c4d678c4c63627634a11e2a49e03e627599939a0781", "asm": "304402200357223d9dd401c213e33c265788fbdd236627844428d8e18cc792045bcf9ea5022039e6978f9678f79b9d35bf927a739cb35a88f0f4f427eef279b7d3e93360a513[ALL] 036fd4bda3303adbb2708f0c4d678c4c63627634a11e2a49e03e627599939a0781"}, "vout": 2, "txid": "7c27792376dcd76da4c4ca1c91affd6ffaa69359d0efea51cd9661077086edd0"}, {"sequence": 4294967294, "scriptSig": {"hex": "483045022100e9b79502e8b32a9d7f2104751cfdaaf2ca16e10c41b432469c07866bc487b12402202d332d27cdbf99c8768d70a60f568f31b59d154b39d499b9716d6248834b6919012102e387ded30e198c361ee6406be0933bfcd715e7eb77e3bc1d7e56a3d94e504f01", "asm": "3045022100e9b79502e8b32a9d7f2104751cfdaaf2ca16e10c41b432469c07866bc487b12402202d332d27cdbf99c8768d70a60f568f31b59d154b39d499b9716d6248834b6919[ALL] 02e387ded30e198c361ee6406be0933bfcd715e7eb77e3bc1d7e56a3d94e504f01"}, "vout": 1, "txid": "1357df4b2486fec91ee1e94799921f43c4cc22c52297cd73d72da33ac27bfbe3"}], "txid": "5bd8a0423a94c1562da424fae9395897477816c44f1071f853fc7ea91b7cb667", "blocktime": 1537873282, "version": 2, "confirmations": 11484, "time": 1537873282, "locktime": 542995, "vsize": 520, "size": 520}