{"hash": "5bdc49a18368eb171fd330f5eb1374b4f7eb6d12a6e495ce71332b1c94039153", "blockhash": "0000000000000000000e13cef7c366c0283d82e591d1acd082e914b08063cdf1", "vout": [{"scriptPubKey": {"reqSigs": 1, "hex": "a914acee3bb14bb19668fa440b99a61e45b1fdc2d6cf87", "addresses": ["3HTPYGbZ8Z6dGYzWzYxW2yueE6cwdpmDh5"], "asm": "OP_HASH160 acee3bb14bb19668fa440b99a61e45b1fdc2d6cf OP_EQUAL", "type": "scripthash"}, "value": 0.00998234, "n": 0}], "hex": "0100000002d474bfb466d0a01c0b445f9d99722261d2d0f20ee065c7c08fbe142ee6c51014000000006b483045022100e3af4318b8121f65f6c2b522b0a0a82e9113f9255c0fcb3e56d34eee4521ca71022077a3463cb770641e519d61bb16a446122b430c75858293f1689bca9a80d5f530012102b664c991765313d3777685d3d77952562695dc3d098856a7159b895aac30ec67ffffffff8c9c4de8e0001b6473d6731b0b54c806d7a9b82f9c2d5418b12fe32adfeb8665000000006a473044022005fcf9bc4ec0801db691de2e34249b8c56e6074a8454236f6ee5f66acde1d3b70220163783fd45c737ded1a7059db38acb6fd73172a21e7b8e0911e5d414bba7aae0012102373ab75330e58b8c0c15f5fce9c6d3bea4885cf5cfd456462dae78746ee042ebffffffff015a3b0f000000000017a914acee3bb14bb19668fa440b99a61e45b1fdc2d6cf8700000000", "vin": [{"sequence": 4294967295, "scriptSig": {"hex": "483045022100e3af4318b8121f65f6c2b522b0a0a82e9113f9255c0fcb3e56d34eee4521ca71022077a3463cb770641e519d61bb16a446122b430c75858293f1689bca9a80d5f530012102b664c991765313d3777685d3d77952562695dc3d098856a7159b895aac30ec67", "asm": "3045022100e3af4318b8121f65f6c2b522b0a0a82e9113f9255c0fcb3e56d34eee4521ca71022077a3463cb770641e519d61bb16a446122b430c75858293f1689bca9a80d5f530[ALL] 02b664c991765313d3777685d3d77952562695dc3d098856a7159b895aac30ec67"}, "vout": 0, "txid": "1410c5e62e14be8fc0c765e00ef2d0d2612272999d5f440b1ca0d066b4bf74d4"}, {"sequence": 4294967295, "scriptSig": {"hex": "473044022005fcf9bc4ec0801db691de2e34249b8c56e6074a8454236f6ee5f66acde1d3b70220163783fd45c737ded1a7059db38acb6fd73172a21e7b8e0911e5d414bba7aae0012102373ab75330e58b8c0c15f5fce9c6d3bea4885cf5cfd456462dae78746ee042eb", "asm": "3044022005fcf9bc4ec0801db691de2e34249b8c56e6074a8454236f6ee5f66acde1d3b70220163783fd45c737ded1a7059db38acb6fd73172a21e7b8e0911e5d414bba7aae0[ALL] 02373ab75330e58b8c0c15f5fce9c6d3bea4885cf5cfd456462dae78746ee042eb"}, "vout": 0, "txid": "6586ebdf2ae32fb118542d9c2fb8a9d706c8540b1b73d673641b00e0e84d9c8c"}], "txid": "5bdc49a18368eb171fd330f5eb1374b4f7eb6d12a6e495ce71332b1c94039153", "blocktime": 1537871767, "version": 1, "confirmations": 11495, "time": 1537871767, "locktime": 0, "vsize": 337, "size": 337}