{"hash": "f8be71d57a017329c30ac035255951d0049cc52a666bb80b41055c5ec0064086", "blockhash": "0000000000000000001f76057863aec43deb6fa401d9628bb513d65a8098bfab", "vout": [{"scriptPubKey": {"reqSigs": 1, "hex": "a9140d25366c2ceb201ad55dc4b1c5f622f005eabcbd87", "addresses": ["32tXHcY4xw69FrR49UBhqyQ5SiLa5C1oH2"], "asm": "OP_HASH160 0d25366c2ceb201ad55dc4b1c5f622f005eabcbd OP_EQUAL", "type": "scripthash"}, "value": 2.033e-05, "n": 0}, {"scriptPubKey": {"reqSigs": 1, "hex": "a914d0a5764aefe806e7872a64b72d56f4465d697b4787", "addresses": ["3LiEgx8oiEYCLCx86dtVTaggVTkYgYkzEW"], "asm": "OP_HASH160 d0a5764aefe806e7872a64b72d56f4465d697b47 OP_EQUAL", "type": "scripthash"}, "value": 0.01001978, "n": 1}], "hex": "020000000001019346bd3e1537807d7e2d1b840b5109f534b6c5f4ffc30cc0274d8152a9d8ff850100000017160014975adea3a1bf95fc37c4946f71a481080a617a1dfeffffff02f10700000000000017a9140d25366c2ceb201ad55dc4b1c5f622f005eabcbd87fa490f000000000017a914d0a5764aefe806e7872a64b72d56f4465d697b47870247304402206d4710b200b8cb55c5d313cad4687afca91918f13666fbe72665552fc3c17f6b02200a41c124250a7509edc2c867e91a92c70070d226cee90642ff9446eafd440d1d0121022283596a083abe3882fdc8ae82c836c90bda222e589ce93f3dd1b2744de7576414490800", "vin": [{"txinwitness": ["304402206d4710b200b8cb55c5d313cad4687afca91918f13666fbe72665552fc3c17f6b02200a41c124250a7509edc2c867e91a92c70070d226cee90642ff9446eafd440d1d01", "022283596a083abe3882fdc8ae82c836c90bda222e589ce93f3dd1b2744de75764"], "sequence": 4294967294, "scriptSig": {"hex": "160014975adea3a1bf95fc37c4946f71a481080a617a1d", "asm": "0014975adea3a1bf95fc37c4946f71a481080a617a1d"}, "vout": 1, "txid": "85ffd8a952814d27c00cc3fff4c5b634f509510b841b2d7e7d8037153ebd4693"}], "txid": "5be21e0e7748ab0ae4471ede033e5ab4d658974f9d262dafa0b33626690c994b", "blocktime": 1537873891, "version": 2, "confirmations": 11479, "time": 1537873891, "locktime": 542996, "vsize": 166, "size": 247}