{"hash": "5be6e406480b8fb1a163abb01aa1047b1707ffbf84d108a12c0df5f45fd362c9", "blockhash": "000000000000000000022b45ed06c6f4ccd3cf7fb5ba4856ebd2e58215665228", "vout": [{"scriptPubKey": {"reqSigs": 1, "hex": "76a914284b1f894ca72430de8f19952125b6016a9dc7c688ac", "addresses": ["14g42KnXkRFfR8cUtS5tReprjeNvGQKW9v"], "asm": "OP_DUP OP_HASH160 284b1f894ca72430de8f19952125b6016a9dc7c6 OP_EQUALVERIFY OP_CHECKSIG", "type": "pubkeyhash"}, "value": 0.14480868, "n": 0}, {"scriptPubKey": {"type": "nulldata", "hex": "6a146f6d6e69000000000000001f00000010d56a7300", "asm": "OP_RETURN 6f6d6e69000000000000001f00000010d56a7300"}, "value": 0.0, "n": 1}, {"scriptPubKey": {"reqSigs": 1, "hex": "76a914f35276d5f0a104911ebadbb6ebd9b4fe8141731d88ac", "addresses": ["1PBZzL2NPa6RxTkxk6Q3Q9oRYnJRMv1Dij"], "asm": "OP_DUP OP_HASH160 f35276d5f0a104911ebadbb6ebd9b4fe8141731d OP_EQUALVERIFY OP_CHECKSIG", "type": "pubkeyhash"}, "value": 5.46e-06, "n": 2}], "hex": "0100000001356b0eb644394e44183c0bb611184bb02f7f9cac17310094d47c07cd4b415fc5010000006a473044022004462ba4e10eebfece80a1b894fa41c639dda21eae39c9cddb87d2b67c91ad070220607e1ee2f63daa02e1ba83dcad1b36326fe21e0490c176f90ea98c3ca586c4b801210392260b2475e9dec1855e89404d00787579055270f3f1619ec29bd64ed6a6dd7dfeffffff03e4f5dc00000000001976a914284b1f894ca72430de8f19952125b6016a9dc7c688ac0000000000000000166a146f6d6e69000000000000001f00000010d56a730022020000000000001976a914f35276d5f0a104911ebadbb6ebd9b4fe8141731d88ac0b490800", "vin": [{"sequence": 4294967294, "scriptSig": {"hex": "473044022004462ba4e10eebfece80a1b894fa41c639dda21eae39c9cddb87d2b67c91ad070220607e1ee2f63daa02e1ba83dcad1b36326fe21e0490c176f90ea98c3ca586c4b801210392260b2475e9dec1855e89404d00787579055270f3f1619ec29bd64ed6a6dd7d", "asm": "3044022004462ba4e10eebfece80a1b894fa41c639dda21eae39c9cddb87d2b67c91ad070220607e1ee2f63daa02e1ba83dcad1b36326fe21e0490c176f90ea98c3ca586c4b8[ALL] 0392260b2475e9dec1855e89404d00787579055270f3f1619ec29bd64ed6a6dd7d"}, "vout": 1, "txid": "c55f414bcd077cd494003117ac9c7f2fb04b1811b60b3c18444e3944b60e6b35"}], "txid": "5be6e406480b8fb1a163abb01aa1047b1707ffbf84d108a12c0df5f45fd362c9", "blocktime": 1537869901, "version": 1, "confirmations": 11522, "time": 1537869901, "locktime": 542987, "vsize": 256, "size": 256}