{"hash": "55946b76a041b0e158e302c3ab2703b6b416079d4e701c6a015a8e572526856b", "blockhash": "0000000000000000001f76057863aec43deb6fa401d9628bb513d65a8098bfab", "vout": [{"scriptPubKey": {"reqSigs": 1, "hex": "a9141413754f654f21daf1becb7b59642f5e35cefe8887", "addresses": ["33XAkMzcGRPgoQg523cXsqpzwHVS4UTtfH"], "asm": "OP_HASH160 1413754f654f21daf1becb7b59642f5e35cefe88 OP_EQUAL", "type": "scripthash"}, "value": 0.00012375, "n": 0}, {"scriptPubKey": {"reqSigs": 1, "hex": "a91408c364340a91e77e4376b26fdad3b5aedc5661f787", "addresses": ["32VMQ7Th4qGhbDYY68FZrfSF9hTbsPivgt"], "asm": "OP_HASH160 08c364340a91e77e4376b26fdad3b5aedc5661f7 OP_EQUAL", "type": "scripthash"}, "value": 0.02646848, "n": 1}], "hex": "010000000001013bb15a5e8b61137d32d2bf6f2c35548267ed2ee91660fd76e02a1ab8f237989a010000002322002027561ef61439ff4994ea3793249bbb358319edb59fff63c1eeada48f299e81b5ffffffff02573000000000000017a9141413754f654f21daf1becb7b59642f5e35cefe8887406328000000000017a91408c364340a91e77e4376b26fdad3b5aedc5661f7870400483045022100e08adb0721b713753d54f4a442927f7aaf659bd233c7ff057cd7218e412af05c0220679e17274734c425de7668ad2e1fc66a822dca3660a3d48930d1fb4d1d6407f0014830450221009e359ba99c16484f15a34b409811da5484734a36e2fec02844c19fa13b6461a0022073a067533ae41b04b7312ca4e6e4de8b065d8fda7aa02b3ffe5fd205dbdd102b0147522102f484437eae67e7d1f9cf7235bd52510c99f379408a1f6fe737011d4bc259358a2103871fc2ca08e6950b38867e8e6a0e94ee625223d3aa0df5c65f414c6d784467e252ae00000000", "vin": [{"txinwitness": ["", "3045022100e08adb0721b713753d54f4a442927f7aaf659bd233c7ff057cd7218e412af05c0220679e17274734c425de7668ad2e1fc66a822dca3660a3d48930d1fb4d1d6407f001", "30450221009e359ba99c16484f15a34b409811da5484734a36e2fec02844c19fa13b6461a0022073a067533ae41b04b7312ca4e6e4de8b065d8fda7aa02b3ffe5fd205dbdd102b01", "522102f484437eae67e7d1f9cf7235bd52510c99f379408a1f6fe737011d4bc259358a2103871fc2ca08e6950b38867e8e6a0e94ee625223d3aa0df5c65f414c6d784467e252ae"], "sequence": 4294967295, "scriptSig": {"hex": "22002027561ef61439ff4994ea3793249bbb358319edb59fff63c1eeada48f299e81b5", "asm": "002027561ef61439ff4994ea3793249bbb358319edb59fff63c1eeada48f299e81b5"}, "vout": 1, "txid": "9a9837f2b81a2ae076fd6016e92eed678254352c6fbfd2327d13618b5e5ab13b"}], "txid": "5be9a456e2c6bfa079672d9b1eb6425a9c756223d78074b43b9e07af614665c7", "blocktime": 1537873891, "version": 1, "confirmations": 11478, "time": 1537873891, "locktime": 0, "vsize": 206, "size": 372}