{"hash": "5bec2c3cc57f7daae6b8b03dac81bfd889a9d2aafaca8c83984911e1c2ca4bce", "blockhash": "0000000000000000000dcc0f55137456b1a82d3642486a52398922ac4d620174", "vout": [{"scriptPubKey": {"reqSigs": 1, "hex": "76a9145852406b10a4ee392345ab3c6bdac9af8dac34f088ac", "addresses": ["193zzpqYUeaBjhKgchG6wTURaXZkfMRemz"], "asm": "OP_DUP OP_HASH160 5852406b10a4ee392345ab3c6bdac9af8dac34f0 OP_EQUALVERIFY OP_CHECKSIG", "type": "pubkeyhash"}, "value": 0.00097021, "n": 0}, {"scriptPubKey": {"reqSigs": 1, "hex": "76a914970dce9f2975a9305b8e7c775cefc4ac78399fb988ac", "addresses": ["1EmhaJViVw6GZT2BCvVzNXckP18wY6Q7hW"], "asm": "OP_DUP OP_HASH160 970dce9f2975a9305b8e7c775cefc4ac78399fb9 OP_EQUALVERIFY OP_CHECKSIG", "type": "pubkeyhash"}, "value": 0.002027, "n": 1}], "hex": "0100000001b5f48a0d87448d5f4cafb95ddc27170cfd4f4608454513984e55eba3f8cc9863000000006a47304402207b847ccdf2af1a670a3792866faf6c455c79ea5734c3386226bc7b727153e8dc022014d4edecfd0504710b817090e062c221dd5d3540247ff115d8cbfb6f98ce65dc012102108f3ea5f88d05788398bec03c843a12d92462d40e9396ee104cc910f6c1769cffffffff02fd7a0100000000001976a9145852406b10a4ee392345ab3c6bdac9af8dac34f088accc170300000000001976a914970dce9f2975a9305b8e7c775cefc4ac78399fb988ac00000000", "vin": [{"sequence": 4294967295, "scriptSig": {"hex": "47304402207b847ccdf2af1a670a3792866faf6c455c79ea5734c3386226bc7b727153e8dc022014d4edecfd0504710b817090e062c221dd5d3540247ff115d8cbfb6f98ce65dc012102108f3ea5f88d05788398bec03c843a12d92462d40e9396ee104cc910f6c1769c", "asm": "304402207b847ccdf2af1a670a3792866faf6c455c79ea5734c3386226bc7b727153e8dc022014d4edecfd0504710b817090e062c221dd5d3540247ff115d8cbfb6f98ce65dc[ALL] 02108f3ea5f88d05788398bec03c843a12d92462d40e9396ee104cc910f6c1769c"}, "vout": 0, "txid": "6398ccf8a3eb554e9813454508464ffd0c1727dc5db9af4c5f8d44870d8af4b5"}], "txid": "5bec2c3cc57f7daae6b8b03dac81bfd889a9d2aafaca8c83984911e1c2ca4bce", "blocktime": 1537870268, "version": 1, "confirmations": 11518, "time": 1537870268, "locktime": 0, "vsize": 225, "size": 225}