{"hash": "953de3a9870a604f5a0fdcad69f94c6121d1efa9e1b62dd82aef1b032c1ffcd2", "blockhash": "00000000000000000024a2167bbff67b0be802c0b01cdd79e6331c2be6459f87", "vout": [{"scriptPubKey": {"reqSigs": 1, "hex": "76a914022bf9dcf6452746062caca54f64bc949afea18c88ac", "addresses": ["1CV2tiVKgaq5kYr6KPz3EAGEszyg9428W"], "asm": "OP_DUP OP_HASH160 022bf9dcf6452746062caca54f64bc949afea18c OP_EQUALVERIFY OP_CHECKSIG", "type": "pubkeyhash"}, "value": 0.01494, "n": 0}, {"scriptPubKey": {"reqSigs": 1, "hex": "a9140155874553c527f049c0ae3d5a778b0e04e347bb87", "addresses": ["31p54MS7MSBGATPf7L9k6okpqGURCLuP5X"], "asm": "OP_HASH160 0155874553c527f049c0ae3d5a778b0e04e347bb OP_EQUAL", "type": "scripthash"}, "value": 0.34119385, "n": 1}], "hex": "010000000001015667cc911a4e9934f10e5001d470db1a5e676ae8231bed9e3060c3f88b48a2e20100000023220020ead9813ef71a14a1fc550cfb5c5dd853d1e6bbccfde25f8f3c1124c6b47fda22ffffffff02f0cb1600000000001976a914022bf9dcf6452746062caca54f64bc949afea18c88acd99e08020000000017a9140155874553c527f049c0ae3d5a778b0e04e347bb87040048304502210097fd82977eeb929360053c1eac471ed04f8c097636fb2d20a5113026c228e5e5022026285f6ffbe6d01c127d88f09c7228ad5da3ccefd8f0a0ed196d4451c144b39801483045022100ae1c9297dc8091ab7ad908d3f90587611418ad5568a798a8b19a50f2ae5818f402202f5f5c657ac652e2b70d1dca468c69109c1b58078fea5f3729b3f833f5fb104f0147522103baf82ab85653fe1a4c26c826d6e71ff0f794cef0ba8d4b9c350b7cd8a099295c210374d34c43195a03910cd16cba2c089b5a40de35ab5857ec656bdacade80fb67c052ae00000000", "vin": [{"txinwitness": ["", "304502210097fd82977eeb929360053c1eac471ed04f8c097636fb2d20a5113026c228e5e5022026285f6ffbe6d01c127d88f09c7228ad5da3ccefd8f0a0ed196d4451c144b39801", "3045022100ae1c9297dc8091ab7ad908d3f90587611418ad5568a798a8b19a50f2ae5818f402202f5f5c657ac652e2b70d1dca468c69109c1b58078fea5f3729b3f833f5fb104f01", "522103baf82ab85653fe1a4c26c826d6e71ff0f794cef0ba8d4b9c350b7cd8a099295c210374d34c43195a03910cd16cba2c089b5a40de35ab5857ec656bdacade80fb67c052ae"], "sequence": 4294967295, "scriptSig": {"hex": "220020ead9813ef71a14a1fc550cfb5c5dd853d1e6bbccfde25f8f3c1124c6b47fda22", "asm": "0020ead9813ef71a14a1fc550cfb5c5dd853d1e6bbccfde25f8f3c1124c6b47fda22"}, "vout": 1, "txid": "e2a2488bf8c360309eed1b23e86a675e1adb70d401500ef134994e1a91cc6756"}], "txid": "5bf3ffa7c75e97c5833a780ec8d4a379fce2b0f2df54dcd014a1f667396f3153", "blocktime": 1537870564, "version": 1, "confirmations": 11515, "time": 1537870564, "locktime": 0, "vsize": 208, "size": 374}