{"hash": "5bf427c5b4252621f4e5a8b6487d583eddd9f1542fcbbf5ac5580b4c8ab06fd3", "blockhash": "0000000000000000000baef3f32e3676a92c3b2e5da21b426e4f302fc371ce76", "vout": [{"scriptPubKey": {"reqSigs": 1, "hex": "76a914a56415e30e1fa094a2d1f862ac853e74d83e0a6a88ac", "addresses": ["1G5WPiRWepSCwnMb78pEPL84C8uVr4ebBu"], "asm": "OP_DUP OP_HASH160 a56415e30e1fa094a2d1f862ac853e74d83e0a6a OP_EQUALVERIFY OP_CHECKSIG", "type": "pubkeyhash"}, "value": 0.01408753, "n": 0}, {"scriptPubKey": {"reqSigs": 1, "hex": "76a9143e4a2c3b7fe468cb2f48350a958926c8e47d7ee488ac", "addresses": ["16gMkWWa61ZDFqBRMGKfJPN2ZsnDrRegVV"], "asm": "OP_DUP OP_HASH160 3e4a2c3b7fe468cb2f48350a958926c8e47d7ee4 OP_EQUALVERIFY OP_CHECKSIG", "type": "pubkeyhash"}, "value": 0.04948436, "n": 1}], "hex": "010000000152b68d2e0576afc3367d28d584e48c524ff62fbb21eebdda0edceedcb7900fa0010000006a47304402202e6c83652d6fa032820859ae603169442d5797b456efea9bfc2e17cf34ae9ce5022004950504ec752285f2945c4bc70d3b69bc963a3b55f2acb8e982e2c5945d38350121024b6bb171ec394ac99fc29b1d1a891ae8e9c13d3db5df78c976aa1dcb8bf5d578fdffffff02f17e1500000000001976a914a56415e30e1fa094a2d1f862ac853e74d83e0a6a88acd4814b00000000001976a9143e4a2c3b7fe468cb2f48350a958926c8e47d7ee488ac16490800", "vin": [{"sequence": 4294967293, "scriptSig": {"hex": "47304402202e6c83652d6fa032820859ae603169442d5797b456efea9bfc2e17cf34ae9ce5022004950504ec752285f2945c4bc70d3b69bc963a3b55f2acb8e982e2c5945d38350121024b6bb171ec394ac99fc29b1d1a891ae8e9c13d3db5df78c976aa1dcb8bf5d578", "asm": "304402202e6c83652d6fa032820859ae603169442d5797b456efea9bfc2e17cf34ae9ce5022004950504ec752285f2945c4bc70d3b69bc963a3b55f2acb8e982e2c5945d3835[ALL] 024b6bb171ec394ac99fc29b1d1a891ae8e9c13d3db5df78c976aa1dcb8bf5d578"}, "vout": 1, "txid": "a00f90b7dceedc0edabdee21bb2ff64f528ce484d5287d36c3af76052e8db652"}], "txid": "5bf427c5b4252621f4e5a8b6487d583eddd9f1542fcbbf5ac5580b4c8ab06fd3", "blocktime": 1537876114, "version": 1, "confirmations": 11460, "time": 1537876114, "locktime": 542998, "vsize": 225, "size": 225}