{"hash": "4b999e49f7b408b18f00d77190495b9b684f7763288a794bcd3b0cefad512587", "blockhash": "0000000000000000001cda96e906b7601b7a6fb1a3b62bca570a9e5d8f4b3de1", "vout": [{"scriptPubKey": {"reqSigs": 1, "hex": "a914b44337f216fcdcf0a5895a72e8c4169a68ef293e87", "addresses": ["3J8A5VuG2KUQmCweiwHBDfv67VqWTciCM2"], "asm": "OP_HASH160 b44337f216fcdcf0a5895a72e8c4169a68ef293e OP_EQUAL", "type": "scripthash"}, "value": 0.01170569, "n": 0}], "hex": "01000000000101eaff69795fdaa8bc94bb88ecee659052cc7ab17f1abe5e687ef7936630625dd4010000001716001466b23056dc8fffb699c8a04e149f9bb4084a1357ffffffff0189dc11000000000017a914b44337f216fcdcf0a5895a72e8c4169a68ef293e8702483045022100816d905c2dc268ea5013739d4a3b238f1055a024eef8bae8d7fe9fa0ffa960b30220544501d905e73502ede6f232f5fb994f4d87881f93af0b3fa2ffdbe62ffa9a3b0121035f757dc51baffcaf705753458c546dc6032412e3a1d7b6db135951b673e8fd1d00000000", "vin": [{"txinwitness": ["3045022100816d905c2dc268ea5013739d4a3b238f1055a024eef8bae8d7fe9fa0ffa960b30220544501d905e73502ede6f232f5fb994f4d87881f93af0b3fa2ffdbe62ffa9a3b01", "035f757dc51baffcaf705753458c546dc6032412e3a1d7b6db135951b673e8fd1d"], "sequence": 4294967295, "scriptSig": {"hex": "16001466b23056dc8fffb699c8a04e149f9bb4084a1357", "asm": "001466b23056dc8fffb699c8a04e149f9bb4084a1357"}, "vout": 1, "txid": "d45d62306693f77e685ebe1a7fb17acc529065eeec88bb94bca8da5f7969ffea"}], "txid": "5bf937a50ea2b8159acef1b03e2dd0ff81f07d017f42891d19e189cd6e01a647", "blocktime": 1537873282, "version": 1, "confirmations": 11485, "time": 1537873282, "locktime": 0, "vsize": 134, "size": 216}