{"hash": "5bfbb24a34d5926c9b6ad98a3d54d077288145ff9f489db565e133f728d34a58", "blockhash": "0000000000000000000e13cef7c366c0283d82e591d1acd082e914b08063cdf1", "vout": [{"scriptPubKey": {"reqSigs": 1, "hex": "76a914d243e6abb9a60fbff430b421d2df4b7d59ec186088ac", "addresses": ["1LAnF8h3qMGx3TSwNUHVneBZUEpwE4gu3D"], "asm": "OP_DUP OP_HASH160 d243e6abb9a60fbff430b421d2df4b7d59ec1860 OP_EQUALVERIFY OP_CHECKSIG", "type": "pubkeyhash"}, "value": 0.00076972, "n": 0}, {"scriptPubKey": {"reqSigs": 1, "hex": "76a9143851f34d13937b673a7d24a1950bb5b21ce94af388ac", "addresses": ["168o1kqNquEJeR9vosUB5fw4eAwcVAgh8P"], "asm": "OP_DUP OP_HASH160 3851f34d13937b673a7d24a1950bb5b21ce94af3 OP_EQUALVERIFY OP_CHECKSIG", "type": "pubkeyhash"}, "value": 5.46e-06, "n": 1}, {"scriptPubKey": {"type": "nulldata", "hex": "6a146f6d6e69000000000000001f00000f145502a800", "asm": "OP_RETURN 6f6d6e69000000000000001f00000f145502a800"}, "value": 0.0, "n": 2}], "hex": "01000000022eb80351c878363073cbdcf2b26c8385174d26fa81bd0ac2311422738f227e24020000006b483045022100b3f86225ed08a93e986d45ced4a19ea357c99c5f634122df7cc88c639530bdf20220362aa3cbf820c6c9a7775dd03cdd624c9080e8f8a13ae99cfdb57c4723331ad7012103b487189b8715e34a732a1dc706ba209abfaf8fe43d018bd627e237734dd2f360ffffffff568e7bc3d7fc5b5781959b0d8668f028a470a6ed893c2ead8e941d4888ee5b9f000000006b483045022100ced0363fa859cd38d189a6dde27f3a1c1c4cac5ee942b1e77de4c53fe1ec7b3f02204af05412ce9e51b4efdadd5713696e758b009431d1ea1d8ac44e22ab63d1258801210271977291b74f1f5f5c42157e8aae804664eaaeccfd097918450d37f28fb94d77ffffffff03ac2c0100000000001976a914d243e6abb9a60fbff430b421d2df4b7d59ec186088ac22020000000000001976a9143851f34d13937b673a7d24a1950bb5b21ce94af388ac0000000000000000166a146f6d6e69000000000000001f00000f145502a80000000000", "vin": [{"sequence": 4294967295, "scriptSig": {"hex": "483045022100b3f86225ed08a93e986d45ced4a19ea357c99c5f634122df7cc88c639530bdf20220362aa3cbf820c6c9a7775dd03cdd624c9080e8f8a13ae99cfdb57c4723331ad7012103b487189b8715e34a732a1dc706ba209abfaf8fe43d018bd627e237734dd2f360", "asm": "3045022100b3f86225ed08a93e986d45ced4a19ea357c99c5f634122df7cc88c639530bdf20220362aa3cbf820c6c9a7775dd03cdd624c9080e8f8a13ae99cfdb57c4723331ad7[ALL] 03b487189b8715e34a732a1dc706ba209abfaf8fe43d018bd627e237734dd2f360"}, "vout": 2, "txid": "247e228f73221431c20abd81fa264d1785836cb2f2dccb73303678c85103b82e"}, {"sequence": 4294967295, "scriptSig": {"hex": "483045022100ced0363fa859cd38d189a6dde27f3a1c1c4cac5ee942b1e77de4c53fe1ec7b3f02204af05412ce9e51b4efdadd5713696e758b009431d1ea1d8ac44e22ab63d1258801210271977291b74f1f5f5c42157e8aae804664eaaeccfd097918450d37f28fb94d77", "asm": "3045022100ced0363fa859cd38d189a6dde27f3a1c1c4cac5ee942b1e77de4c53fe1ec7b3f02204af05412ce9e51b4efdadd5713696e758b009431d1ea1d8ac44e22ab63d12588[ALL] 0271977291b74f1f5f5c42157e8aae804664eaaeccfd097918450d37f28fb94d77"}, "vout": 0, "txid": "9f5bee88481d948ead2e3c89eda670a428f068860d9b9581575bfcd7c37b8e56"}], "txid": "5bfbb24a34d5926c9b6ad98a3d54d077288145ff9f489db565e133f728d34a58", "blocktime": 1537871767, "version": 1, "confirmations": 11491, "time": 1537871767, "locktime": 0, "vsize": 405, "size": 405}