{"hash": "5bfd11a0b5d38f0621de972d9c71dc3b9204087a600be17315871cdeb9c6f93e", "blockhash": "0000000000000000001f76057863aec43deb6fa401d9628bb513d65a8098bfab", "vout": [{"scriptPubKey": {"reqSigs": 1, "hex": "76a914379f0b7ab2d055ac40d1339e250b6f6baa8fb52c88ac", "addresses": ["1656hBSNNPnyzz8rggmhdzGXu2MKiNY9fk"], "asm": "OP_DUP OP_HASH160 379f0b7ab2d055ac40d1339e250b6f6baa8fb52c OP_EQUALVERIFY OP_CHECKSIG", "type": "pubkeyhash"}, "value": 0.0063782, "n": 0}, {"scriptPubKey": {"type": "nulldata", "hex": "6a4c50000077e90001e6cb055a0cd0d97262528f377af8e8e963c7cfd5b95b23cc0f42c2fc38c53e1d25bfea397bdee8c5d381e60a94c05baa178806129f2b6cbbe94b1d100759d4ba30d2c37bb011d97e02cf", "asm": "OP_RETURN 000077e90001e6cb055a0cd0d97262528f377af8e8e963c7cfd5b95b23cc0f42c2fc38c53e1d25bfea397bdee8c5d381e60a94c05baa178806129f2b6cbbe94b1d100759d4ba30d2c37bb011d97e02cf"}, "value": 0.0, "n": 1}], "hex": "01000000015e88af8a3a96625e5b5c378c38451c758b539f959737e712a04b58d0542451d3010000006a4730440220126942a8ec761323af4663a458a49e7432a60c0ee6e2c48b0a2d743350750ff4022038059848e102a87e7983db431e63364e4b9c92bee51da240f60e038bb71bf8f1012102390b7aa08a249f21895dcc28e0f22870fb6de95dbdd06daf6f1432ac1896086fffffffff027cbb0900000000001976a914379f0b7ab2d055ac40d1339e250b6f6baa8fb52c88ac0000000000000000536a4c50000077e90001e6cb055a0cd0d97262528f377af8e8e963c7cfd5b95b23cc0f42c2fc38c53e1d25bfea397bdee8c5d381e60a94c05baa178806129f2b6cbbe94b1d100759d4ba30d2c37bb011d97e02cf00000000", "vin": [{"sequence": 4294967295, "scriptSig": {"hex": "4730440220126942a8ec761323af4663a458a49e7432a60c0ee6e2c48b0a2d743350750ff4022038059848e102a87e7983db431e63364e4b9c92bee51da240f60e038bb71bf8f1012102390b7aa08a249f21895dcc28e0f22870fb6de95dbdd06daf6f1432ac1896086f", "asm": "30440220126942a8ec761323af4663a458a49e7432a60c0ee6e2c48b0a2d743350750ff4022038059848e102a87e7983db431e63364e4b9c92bee51da240f60e038bb71bf8f1[ALL] 02390b7aa08a249f21895dcc28e0f22870fb6de95dbdd06daf6f1432ac1896086f"}, "vout": 1, "txid": "d3512454d0584ba012e73797959f538b751c45388c375c5b5e62963a8aaf885e"}], "txid": "5bfd11a0b5d38f0621de972d9c71dc3b9204087a600be17315871cdeb9c6f93e", "blocktime": 1537873891, "version": 1, "confirmations": 11478, "time": 1537873891, "locktime": 0, "vsize": 283, "size": 283}