{"hash": "4cd9ce169526846b83a119e87e627bd6c67bf40c293b67f314f3d86a9f8457a1", "blockhash": "0000000000000000001cda96e906b7601b7a6fb1a3b62bca570a9e5d8f4b3de1", "vout": [{"scriptPubKey": {"type": "nulldata", "hex": "6a146f6d6e69000000000000001f0000000826299e00", "asm": "OP_RETURN 6f6d6e69000000000000001f0000000826299e00"}, "value": 0.0, "n": 0}, {"scriptPubKey": {"reqSigs": 1, "hex": "76a914ed22b967ed4e1fecf1cbf52e58acb66140b3bfb688ac", "addresses": ["1Ncrk9Ve2eV5x1EiP6wVoR45fK7VQ8R49N"], "asm": "OP_DUP OP_HASH160 ed22b967ed4e1fecf1cbf52e58acb66140b3bfb6 OP_EQUALVERIFY OP_CHECKSIG", "type": "pubkeyhash"}, "value": 2.73e-05, "n": 1}, {"scriptPubKey": {"reqSigs": 1, "hex": "a914e818e90b8e6b38dba66f74b35cb708bbc73e2ea787", "addresses": ["3NrEXrB9qAxXYfRt6jKtBD8QzoU2qtNWDR"], "asm": "OP_HASH160 e818e90b8e6b38dba66f74b35cb708bbc73e2ea7 OP_EQUAL", "type": "scripthash"}, "value": 25.05461169, "n": 2}], "hex": "010000000001023da37fe8dadd8ef6c6ca50c607b7b2ea8b6b1d3ec188e6b7308af5182f6456d50100000017160014000b814f2c1a19852357ed615a08ec572a781ed1ffffffffb8869d33d78b187e6c76ddb2788bc99fe14f117256ca4f8fd4da90891f4050ae0300000017160014f86ab39884f82e684126e1e87aef50ebac1dd49bffffffff030000000000000000166a146f6d6e69000000000000001f0000000826299e00aa0a0000000000001976a914ed22b967ed4e1fecf1cbf52e58acb66140b3bfb688acb14d56950000000017a914e818e90b8e6b38dba66f74b35cb708bbc73e2ea7870247304402200d1715c16ea278d325f1363a0a83b93b3d1dbc046f730533defbb3b4596b7c5a022066852dae80212fe08015173d49dd64004c11455b608bf524d8d55c8673e39ce1012102aad79950b2c2af3689e8644c89e9d10dff06c2d8926200496b92e9f7ccb0304c0247304402201a5a7857e0e8d235b8a8a4c2a8ac5a4a6015cbd78245e22108322d7d419a987302200745fbfb8b7ad42fe2ec19d0bac027d2379c8222dcc04f1e9a52cfa4246d0008012103d22381018772b2fd8d3e3cd570790cba07f50716d9ea91593c1a2868c5e5cc3e00000000", "vin": [{"txinwitness": ["304402200d1715c16ea278d325f1363a0a83b93b3d1dbc046f730533defbb3b4596b7c5a022066852dae80212fe08015173d49dd64004c11455b608bf524d8d55c8673e39ce101", "02aad79950b2c2af3689e8644c89e9d10dff06c2d8926200496b92e9f7ccb0304c"], "sequence": 4294967295, "scriptSig": {"hex": "160014000b814f2c1a19852357ed615a08ec572a781ed1", "asm": "0014000b814f2c1a19852357ed615a08ec572a781ed1"}, "vout": 1, "txid": "d556642f18f58a30b7e688c13e1d6b8beab2b707c650cac6f68edddae87fa33d"}, {"txinwitness": ["304402201a5a7857e0e8d235b8a8a4c2a8ac5a4a6015cbd78245e22108322d7d419a987302200745fbfb8b7ad42fe2ec19d0bac027d2379c8222dcc04f1e9a52cfa4246d000801", "03d22381018772b2fd8d3e3cd570790cba07f50716d9ea91593c1a2868c5e5cc3e"], "sequence": 4294967295, "scriptSig": {"hex": "160014f86ab39884f82e684126e1e87aef50ebac1dd49b", "asm": "0014f86ab39884f82e684126e1e87aef50ebac1dd49b"}, "vout": 3, "txid": "ae50401f8990dad48f4fca5672114fe19fc98b78b2dd766c7e188bd7339d86b8"}], "txid": "5c099442ecd8720c89bccaa691ff6bcf425cdd9400713452021e387f9ad65863", "blocktime": 1537873282, "version": 1, "confirmations": 11484, "time": 1537873282, "locktime": 0, "vsize": 289, "size": 451}