{"hash": "5c0d6d6a8eaa23078ad3b04f6be7de09dfc9c65f97f6340b7586992bd18dd4b7", "blockhash": "0000000000000000001cda96e906b7601b7a6fb1a3b62bca570a9e5d8f4b3de1", "vout": [{"scriptPubKey": {"reqSigs": 1, "hex": "a91480d882eeac06216e99a9e2bf97e48a18d7c9b80287", "addresses": ["3DSHnaTPHxjpM2QB1BF1ycsnDgQMFCHiud"], "asm": "OP_HASH160 80d882eeac06216e99a9e2bf97e48a18d7c9b802 OP_EQUAL", "type": "scripthash"}, "value": 0.000324, "n": 0}, {"scriptPubKey": {"reqSigs": 1, "hex": "76a9140396c750f15f6e2aea1495bee284490a42c197e788ac", "addresses": ["1KyeraaoWhQ64rPgxTRNfHXJkNRkoxqhi"], "asm": "OP_DUP OP_HASH160 0396c750f15f6e2aea1495bee284490a42c197e7 OP_EQUALVERIFY OP_CHECKSIG", "type": "pubkeyhash"}, "value": 0.2110761, "n": 1}], "hex": "02000000019f1f2c8c1c2275c5d47c4f7ff2a43fc56bdabe63dfe5afad2d4156c40974dcc8010000006a4730440220481dcefb92ffcf1c1fd04c9c3a152f1da84c55bab7e37080988dd155386b81a20220685655c479217118113c3228e9787b0881810e0541e45c1c02870a92084a155c0121037aed202cc0420c61a4ecd5ba5d8ff2b6263caec8e7242e78157405b8890aaf5dffffffff02907e00000000000017a91480d882eeac06216e99a9e2bf97e48a18d7c9b802879a134201000000001976a9140396c750f15f6e2aea1495bee284490a42c197e788ac00000000", "vin": [{"sequence": 4294967295, "scriptSig": {"hex": "4730440220481dcefb92ffcf1c1fd04c9c3a152f1da84c55bab7e37080988dd155386b81a20220685655c479217118113c3228e9787b0881810e0541e45c1c02870a92084a155c0121037aed202cc0420c61a4ecd5ba5d8ff2b6263caec8e7242e78157405b8890aaf5d", "asm": "30440220481dcefb92ffcf1c1fd04c9c3a152f1da84c55bab7e37080988dd155386b81a20220685655c479217118113c3228e9787b0881810e0541e45c1c02870a92084a155c[ALL] 037aed202cc0420c61a4ecd5ba5d8ff2b6263caec8e7242e78157405b8890aaf5d"}, "vout": 1, "txid": "c8dc7409c456412dadafe5df63beda6bc53fa4f27f4f7cd4c575221c8c2c1f9f"}], "txid": "5c0d6d6a8eaa23078ad3b04f6be7de09dfc9c65f97f6340b7586992bd18dd4b7", "blocktime": 1537873282, "version": 2, "confirmations": 11484, "time": 1537873282, "locktime": 0, "vsize": 223, "size": 223}