{"hash": "5c0edcfc586a8eb389e4321c3a68ecd628b74ef385432fb8baf097c0b75bd64d", "blockhash": "00000000000000000024a2167bbff67b0be802c0b01cdd79e6331c2be6459f87", "vout": [{"scriptPubKey": {"reqSigs": 1, "hex": "76a914cc3b623d2d98b735f644f525388c0979f19d04d688ac", "addresses": ["1KcszBvpYypncCG41L5GorCkmAXLrq46x4"], "asm": "OP_DUP OP_HASH160 cc3b623d2d98b735f644f525388c0979f19d04d6 OP_EQUALVERIFY OP_CHECKSIG", "type": "pubkeyhash"}, "value": 0.0164682, "n": 0}, {"scriptPubKey": {"reqSigs": 1, "hex": "76a91406e89f0192e0a157aab54e181caaacdeee0ee0e288ac", "addresses": ["1dXix5StZN6kddd7RtcvXnn1NE3w3QMiE"], "asm": "OP_DUP OP_HASH160 06e89f0192e0a157aab54e181caaacdeee0ee0e2 OP_EQUALVERIFY OP_CHECKSIG", "type": "pubkeyhash"}, "value": 0.02580601, "n": 1}], "hex": "0100000001c792753034cebf2a972cb87713b998f7b70933169f51f6a84d05b1825cfca2e1010000006a47304402200762e4adbd658b45b346f5408edfa765e7d11cd3cfaad8f6e4d4766c90f63da802203a9bb039606322f2f13d5ba662ea85a7085784ac5ebc1fa865d3d22c3fb877ef012103aa79eae0562bdb7aa67bcc7d47418179a94da1fc5dee92f251974efbb36d66b3ffffffff02e4201900000000001976a914cc3b623d2d98b735f644f525388c0979f19d04d688ac79602700000000001976a91406e89f0192e0a157aab54e181caaacdeee0ee0e288ac00000000", "vin": [{"sequence": 4294967295, "scriptSig": {"hex": "47304402200762e4adbd658b45b346f5408edfa765e7d11cd3cfaad8f6e4d4766c90f63da802203a9bb039606322f2f13d5ba662ea85a7085784ac5ebc1fa865d3d22c3fb877ef012103aa79eae0562bdb7aa67bcc7d47418179a94da1fc5dee92f251974efbb36d66b3", "asm": "304402200762e4adbd658b45b346f5408edfa765e7d11cd3cfaad8f6e4d4766c90f63da802203a9bb039606322f2f13d5ba662ea85a7085784ac5ebc1fa865d3d22c3fb877ef[ALL] 03aa79eae0562bdb7aa67bcc7d47418179a94da1fc5dee92f251974efbb36d66b3"}, "vout": 1, "txid": "e1a2fc5c82b1054da8f6519f163309b7f798b91377b82c972abfce34307592c7"}], "txid": "5c0edcfc586a8eb389e4321c3a68ecd628b74ef385432fb8baf097c0b75bd64d", "blocktime": 1537870564, "version": 1, "confirmations": 11515, "time": 1537870564, "locktime": 0, "vsize": 225, "size": 225}