{"hash": "5c13a61c7a6533819eae99b77b0a39f61a087aa964be62d7bb7bb3a0528146f2", "blockhash": "000000000000000000022b45ed06c6f4ccd3cf7fb5ba4856ebd2e58215665228", "vout": [{"scriptPubKey": {"reqSigs": 1, "hex": "a914296bcfdca293c5d91e7180a828b2d9bcdab8f55487", "addresses": ["35U2nKEMjSkwU4sgqgSZQBTyvXAL2CSqr5"], "asm": "OP_HASH160 296bcfdca293c5d91e7180a828b2d9bcdab8f554 OP_EQUAL", "type": "scripthash"}, "value": 0.01461016, "n": 0}, {"scriptPubKey": {"reqSigs": 1, "hex": "76a914c7afb2b7a60aeca0323cd1ae7848f983adbd98c088ac", "addresses": ["1KCqwtp17gKwWV3ByFHMoH3XjqkpQsz3F8"], "asm": "OP_DUP OP_HASH160 c7afb2b7a60aeca0323cd1ae7848f983adbd98c0 OP_EQUALVERIFY OP_CHECKSIG", "type": "pubkeyhash"}, "value": 0.01683895, "n": 1}], "hex": "02000000024e5d1de0f3c7a58a682854f8e4311ccb5c8223bde2ee9923eb088c1331b8f021010000006a4730440220751859d0d7a9f2ce978448ac811f86ee5f46a46d7f03dee432786783264853d7022059d0bcee2a2b3946aea89554e7e289bf9182f9e00b8b44ada22a16d48241b956012103531ff0c9478457ecf93cdaddb3549cd4f77e700b90bb25fb422fb60791e0e288fdffffff64da28de974a7c80d7879a069d7cf17585efa9fc3966b86672732b2dac5306cb010000006b483045022100f0537f2e72696ee4447e20d5ac3bf53d661c2f150be32128660612f77bdf783d02205567155b20391a8bdde483b4196a5e03529a102530d7e9cb7cb5734d32144e6d012102a81572f93929db50c19f5a63a6ceb96661ef7afbc5069ba021ab6d9231a4577bfdffffff02184b16000000000017a914296bcfdca293c5d91e7180a828b2d9bcdab8f55487b7b11900000000001976a914c7afb2b7a60aeca0323cd1ae7848f983adbd98c088acee480800", "vin": [{"sequence": 4294967293, "scriptSig": {"hex": "4730440220751859d0d7a9f2ce978448ac811f86ee5f46a46d7f03dee432786783264853d7022059d0bcee2a2b3946aea89554e7e289bf9182f9e00b8b44ada22a16d48241b956012103531ff0c9478457ecf93cdaddb3549cd4f77e700b90bb25fb422fb60791e0e288", "asm": "30440220751859d0d7a9f2ce978448ac811f86ee5f46a46d7f03dee432786783264853d7022059d0bcee2a2b3946aea89554e7e289bf9182f9e00b8b44ada22a16d48241b956[ALL] 03531ff0c9478457ecf93cdaddb3549cd4f77e700b90bb25fb422fb60791e0e288"}, "vout": 1, "txid": "21f0b831138c08eb2399eee2bd23825ccb1c31e4f85428688aa5c7f3e01d5d4e"}, {"sequence": 4294967293, "scriptSig": {"hex": "483045022100f0537f2e72696ee4447e20d5ac3bf53d661c2f150be32128660612f77bdf783d02205567155b20391a8bdde483b4196a5e03529a102530d7e9cb7cb5734d32144e6d012102a81572f93929db50c19f5a63a6ceb96661ef7afbc5069ba021ab6d9231a4577b", "asm": "3045022100f0537f2e72696ee4447e20d5ac3bf53d661c2f150be32128660612f77bdf783d02205567155b20391a8bdde483b4196a5e03529a102530d7e9cb7cb5734d32144e6d[ALL] 02a81572f93929db50c19f5a63a6ceb96661ef7afbc5069ba021ab6d9231a4577b"}, "vout": 1, "txid": "cb0653ac2d2b737266b86639fca9ef8575f17c9d069a87d7807c4a97de28da64"}], "txid": "5c13a61c7a6533819eae99b77b0a39f61a087aa964be62d7bb7bb3a0528146f2", "blocktime": 1537869901, "version": 2, "confirmations": 11522, "time": 1537869901, "locktime": 542958, "vsize": 371, "size": 371}