{"hash": "21f07504e563cd81344deaf402cb4c3324d0c6e283fd366158918d6e7aa9c71f", "blockhash": "000000000000000000022b45ed06c6f4ccd3cf7fb5ba4856ebd2e58215665228", "vout": [{"scriptPubKey": {"reqSigs": 1, "hex": "a914df4f15d3d0789315fadee47a4ab8210e7655b75e87", "addresses": ["3N3mMGAqobscdQqCvj8NXuNGzEAhptysST"], "asm": "OP_HASH160 df4f15d3d0789315fadee47a4ab8210e7655b75e OP_EQUAL", "type": "scripthash"}, "value": 0.00764873, "n": 0}, {"scriptPubKey": {"reqSigs": 1, "hex": "00149db7ed6b6ddfdbd8bf12e4dc247c7b21829e9530", "addresses": ["bc1qnkm766mdmlda30cjunwzglrmyxpfa9fs5eur26"], "asm": "0 9db7ed6b6ddfdbd8bf12e4dc247c7b21829e9530", "type": "witness_v0_keyhash"}, "value": 0.00014547, "n": 1}], "hex": "010000000001016a70a7c0c83ca82e2d53a6d7ba5a56aee398e3b50da77a1800ee5f49ee9cdc810200000017160014f096bf66b76d3fa28d32d33c2fdf4a5c812d7cf1ffffffff02c9ab0b000000000017a914df4f15d3d0789315fadee47a4ab8210e7655b75e87d3380000000000001600149db7ed6b6ddfdbd8bf12e4dc247c7b21829e9530024730440220300942aa348ceaf552b707a9927fda8c58fc7739986f8111f23f1adb93f6867902206473d59d3a1bd6aea641718f3786067879e8e8bd35ce9e8cb6510c9c71e7523901210398826d869fb9954110d421359a9a92e0991afffdd8b9e2ba740a87aa54d2491400000000", "vin": [{"txinwitness": ["30440220300942aa348ceaf552b707a9927fda8c58fc7739986f8111f23f1adb93f6867902206473d59d3a1bd6aea641718f3786067879e8e8bd35ce9e8cb6510c9c71e7523901", "0398826d869fb9954110d421359a9a92e0991afffdd8b9e2ba740a87aa54d24914"], "sequence": 4294967295, "scriptSig": {"hex": "160014f096bf66b76d3fa28d32d33c2fdf4a5c812d7cf1", "asm": "0014f096bf66b76d3fa28d32d33c2fdf4a5c812d7cf1"}, "vout": 2, "txid": "81dc9cee495fee00187aa70db5e398e3ae565abad7a6532d2ea83cc8c0a7706a"}], "txid": "5c1c7e861fb7d70731ff9dcee03705f9d2f10c49f569206c476c96913e69e80c", "blocktime": 1537869901, "version": 1, "confirmations": 11523, "time": 1537869901, "locktime": 0, "vsize": 165, "size": 246}