{"hash": "152ffbb8638ca8a90d7ada643085a0ae0ebdf18b7df94aeb0fdb2b7f13de433e", "blockhash": "0000000000000000001f76057863aec43deb6fa401d9628bb513d65a8098bfab", "vout": [{"scriptPubKey": {"reqSigs": 1, "hex": "001464527c3ea54c5e5e71481d41072cf82d8e631a80", "addresses": ["bc1qv3f8c049f309uu2gr4qswt8c9k8xxx5q88ls79"], "asm": "0 64527c3ea54c5e5e71481d41072cf82d8e631a80", "type": "witness_v0_keyhash"}, "value": 0.04031682, "n": 0}, {"scriptPubKey": {"reqSigs": 1, "hex": "a914e856c5aafe2f5acf220f75326d7acd526d3077a787", "addresses": ["3NsWe5jX9im6B6P3ARmchKgbZrio358xUt"], "asm": "OP_HASH160 e856c5aafe2f5acf220f75326d7acd526d3077a7 OP_EQUAL", "type": "scripthash"}, "value": 0.09133363, "n": 1}], "hex": "01000000000101ad0c9793e3566cd4ec1a85dc5a61ab8e9bd501e6105837e1b070822b6701e08c0100000000ffffffff02c2843d000000000016001464527c3ea54c5e5e71481d41072cf82d8e631a80335d8b000000000017a914e856c5aafe2f5acf220f75326d7acd526d3077a7870247304402200084a55b05e86da484a4900f526bb366fbded564eb0a6d93d681f3ecc8e204ef02203646b5d916815144e6e0ff8bbd864ce79da36cc6a10ff7ae905b680acd14f24e012103cb8a588418b2c3e989a076fabe43fbd00d2de8378cea144c6357ec1bdcc1f72400000000", "vin": [{"txinwitness": ["304402200084a55b05e86da484a4900f526bb366fbded564eb0a6d93d681f3ecc8e204ef02203646b5d916815144e6e0ff8bbd864ce79da36cc6a10ff7ae905b680acd14f24e01", "03cb8a588418b2c3e989a076fabe43fbd00d2de8378cea144c6357ec1bdcc1f724"], "sequence": 4294967295, "scriptSig": {"hex": "", "asm": ""}, "vout": 1, "txid": "8ce001672b8270b0e1375810e601d59b8eab615adc851aecd46c56e393970cad"}], "txid": "5c261dbb818a318251537fe7fa16d6949e3a0e7b4819806e6428ce3f8aee20c8", "blocktime": 1537873891, "version": 1, "confirmations": 11478, "time": 1537873891, "locktime": 0, "vsize": 142, "size": 223}