{"hash": "b928acf72deacd1ac85289d217cf1bac7d278b3ebb1a4663a5247e704c220f2e", "blockhash": "0000000000000000001cda96e906b7601b7a6fb1a3b62bca570a9e5d8f4b3de1", "vout": [{"scriptPubKey": {"reqSigs": 1, "hex": "76a914883fe0be9662047d4a1248d8c3c10ca371a6adda88ac", "addresses": ["1DRRRQRPpokYDJbynwXanFBvxGRZKn9Hdp"], "asm": "OP_DUP OP_HASH160 883fe0be9662047d4a1248d8c3c10ca371a6adda OP_EQUALVERIFY OP_CHECKSIG", "type": "pubkeyhash"}, "value": 0.013, "n": 0}, {"scriptPubKey": {"reqSigs": 1, "hex": "a914b73f3b34be73cb47df8597847f3d0348ca7d5b3587", "addresses": ["3JPwL2xk8fNx67631ZuiRfU42ZTx5jbRqC"], "asm": "OP_HASH160 b73f3b34be73cb47df8597847f3d0348ca7d5b35 OP_EQUAL", "type": "scripthash"}, "value": 0.28513392, "n": 1}], "hex": "01000000000101720bf763d1fd7d7ff7f928da3e6684a5f18bf72d1f1b42309b62f35d84bddd7401000000232200207e2a26fca423d11498c0984b284eea124b9ba90b912b4b6defa94ec6b2d06831ffffffff0220d61300000000001976a914883fe0be9662047d4a1248d8c3c10ca371a6adda88ac7014b3010000000017a914b73f3b34be73cb47df8597847f3d0348ca7d5b35870400483045022100e4e63d47f84dc7a9b8e287d8253fab0ec42030f726930d19a0c5fac909a6977202202ae01d14672ef4c26f068b98e879dc747f03f03b736b793f2a2552eeb81ec52e0147304402207164483888bcd233a06b64f36f978dcc47e961201116b235baa6dbb0b813e816022076cd451e88a4eb6154f1d7442e78e86cf90fb68bbcdcf79b0c7892bbfdf4eb290147522102f4844214cdb38a4363093650bfb7b36f5c9ef122d83b73adc2dbbc1a73fe41d621038f2c7ecee34c843be9d886e50ce79e5dc40a1694c0417d60b35340f292ff73fc52ae00000000", "vin": [{"txinwitness": ["", "3045022100e4e63d47f84dc7a9b8e287d8253fab0ec42030f726930d19a0c5fac909a6977202202ae01d14672ef4c26f068b98e879dc747f03f03b736b793f2a2552eeb81ec52e01", "304402207164483888bcd233a06b64f36f978dcc47e961201116b235baa6dbb0b813e816022076cd451e88a4eb6154f1d7442e78e86cf90fb68bbcdcf79b0c7892bbfdf4eb2901", "522102f4844214cdb38a4363093650bfb7b36f5c9ef122d83b73adc2dbbc1a73fe41d621038f2c7ecee34c843be9d886e50ce79e5dc40a1694c0417d60b35340f292ff73fc52ae"], "sequence": 4294967295, "scriptSig": {"hex": "2200207e2a26fca423d11498c0984b284eea124b9ba90b912b4b6defa94ec6b2d06831", "asm": "00207e2a26fca423d11498c0984b284eea124b9ba90b912b4b6defa94ec6b2d06831"}, "vout": 1, "txid": "74ddbd845df3629b30421b1f2df78bf1a584663eda28f9f77f7dfdd163f70b72"}], "txid": "5c2d9e524a982c4ae8ceee10911551392ba6af660b87fec2cf9410450ebbc0bd", "blocktime": 1537873282, "version": 1, "confirmations": 11485, "time": 1537873282, "locktime": 0, "vsize": 208, "size": 373}