{"hash": "ce613e8460d1012b18e27fd22131e49f216d8ffb3e14b7cc8c2658f40a929735", "blockhash": "00000000000000000018f53835495a110e01622372bf6ae95dc86f2b0ab887b0", "vout": [{"scriptPubKey": {"reqSigs": 1, "hex": "a914d1fcb5b93a8d72dab5e4d5379566ee6451ac2db487", "addresses": ["3LqKtE1HwJfHbwQarzq2Ji9BMMY5XZCyuQ"], "asm": "OP_HASH160 d1fcb5b93a8d72dab5e4d5379566ee6451ac2db4 OP_EQUAL", "type": "scripthash"}, "value": 0.00517325, "n": 0}, {"scriptPubKey": {"reqSigs": 1, "hex": "76a914bf87d5bdaba5f9ea0fcad4adc4001952f7d687bf88ac", "addresses": ["1JTinciAaV2d6c5zKAN6G6PpNbu3UcMqUe"], "asm": "OP_DUP OP_HASH160 bf87d5bdaba5f9ea0fcad4adc4001952f7d687bf OP_EQUALVERIFY OP_CHECKSIG", "type": "pubkeyhash"}, "value": 0.0075, "n": 1}], "hex": "01000000000102580f662b35df34d482a9e7d57c3852ffdca0c45a1c6fe7c4fcc584529589959c6c0000002322002082c7bd0a68a4ca4bcde3168ded754999b6696d9e4876317269767462fbbb61a3ffffffff580f662b35df34d482a9e7d57c3852ffdca0c45a1c6fe7c4fcc584529589959c6b000000232200209de58e69c68d0c59593a22a9693c49856bb7710fc34e76a31781cd28deadfdb2ffffffff02cde407000000000017a914d1fcb5b93a8d72dab5e4d5379566ee6451ac2db487b0710b00000000001976a914bf87d5bdaba5f9ea0fcad4adc4001952f7d687bf88ac040047304402206a08e246e02fc742b089d21e9153ca56d28ddf1a52453496af17bb31ff37c255022078b20fb11012b80888378cb5f8846b690883139eef571d5be75e5abad68027590147304402200759cdf168fc9769445c367f5bf20e8992ffda4366c90c8499c13ee1557d4c0302202b2d88daca667b54db6d1140d93a864df3b5acef923e337f60404c5c6bf4bd4e016952210390bdfaee5798326ba7cd06cad6dbd8293172ae971ee570dc1965c03b7cff71042103106a2be9f48cc845ba3e1d91054974c1de9a169cf3b07d3f57399c527a13f5452103ca1e0ba36a03d7e96c82b6813642a2a526f7017460aaf6e6edaa4d29d2eea77e53ae0400483045022100ba4df2f542249a655b4429a2ea620d49b5a3a0d23a88aca5869d810adbaa5336022024bc0fa05dab625ce9f220eefeb01abb7156636cd39d1a7e58e95a65630b5eee01483045022100d640091535f7dd7af6918cc255e1e9f9a84cc98827c703e871e134f80bb7b55002202be07e4a25500dbe6a3bb5055de08c332e5360577bed0943c7469123c7eb199f0169522103e7b07950651c1da55bda6abce228d4e9c3a6bccfc69a84d72009502bdc03b760210208165ca7782dacc024ab64d3369cd97680a9a7db7511ee34d415669f7f1da8d521039e5ffae3544f75614fbbf15f870e9693f5b22f58fb76aebebf2b5b22e6ffce1f53ae00000000", "vin": [{"txinwitness": ["", "304402206a08e246e02fc742b089d21e9153ca56d28ddf1a52453496af17bb31ff37c255022078b20fb11012b80888378cb5f8846b690883139eef571d5be75e5abad680275901", "304402200759cdf168fc9769445c367f5bf20e8992ffda4366c90c8499c13ee1557d4c0302202b2d88daca667b54db6d1140d93a864df3b5acef923e337f60404c5c6bf4bd4e01", "52210390bdfaee5798326ba7cd06cad6dbd8293172ae971ee570dc1965c03b7cff71042103106a2be9f48cc845ba3e1d91054974c1de9a169cf3b07d3f57399c527a13f5452103ca1e0ba36a03d7e96c82b6813642a2a526f7017460aaf6e6edaa4d29d2eea77e53ae"], "sequence": 4294967295, "scriptSig": {"hex": "22002082c7bd0a68a4ca4bcde3168ded754999b6696d9e4876317269767462fbbb61a3", "asm": "002082c7bd0a68a4ca4bcde3168ded754999b6696d9e4876317269767462fbbb61a3"}, "vout": 108, "txid": "9c9589955284c5fcc4e76f1c5ac4a0dcff52387cd5e7a982d434df352b660f58"}, {"txinwitness": ["", "3045022100ba4df2f542249a655b4429a2ea620d49b5a3a0d23a88aca5869d810adbaa5336022024bc0fa05dab625ce9f220eefeb01abb7156636cd39d1a7e58e95a65630b5eee01", "3045022100d640091535f7dd7af6918cc255e1e9f9a84cc98827c703e871e134f80bb7b55002202be07e4a25500dbe6a3bb5055de08c332e5360577bed0943c7469123c7eb199f01", "522103e7b07950651c1da55bda6abce228d4e9c3a6bccfc69a84d72009502bdc03b760210208165ca7782dacc024ab64d3369cd97680a9a7db7511ee34d415669f7f1da8d521039e5ffae3544f75614fbbf15f870e9693f5b22f58fb76aebebf2b5b22e6ffce1f53ae"], "sequence": 4294967295, "scriptSig": {"hex": "2200209de58e69c68d0c59593a22a9693c49856bb7710fc34e76a31781cd28deadfdb2", "asm": "00209de58e69c68d0c59593a22a9693c49856bb7710fc34e76a31781cd28deadfdb2"}, "vout": 107, "txid": "9c9589955284c5fcc4e76f1c5ac4a0dcff52387cd5e7a982d434df352b660f58"}], "txid": "5c370ec7185d3f927bbb9a41ed0ad27dd1f48cc44f706637a821c3330f63e3b7", "blocktime": 1537870928, "version": 1, "confirmations": 11514, "time": 1537870928, "locktime": 0, "vsize": 355, "size": 736}