{"hash": "215995f8290e44985e7f20fd92691966b850fe52b8153366c63d0e1cc814af25", "blockhash": "00000000000000000004ffacab907a6b429b9a5745fa0b75af4234bf69dd7176", "vout": [{"scriptPubKey": {"reqSigs": 1, "hex": "a914c7caee623314bbb05c11e405387ccf7580c90d9287", "addresses": ["3KuRVd9MzK2wrQZjLwKg2i96tLqisfBYRb"], "asm": "OP_HASH160 c7caee623314bbb05c11e405387ccf7580c90d92 OP_EQUAL", "type": "scripthash"}, "value": 0.00907061, "n": 0}, {"scriptPubKey": {"reqSigs": 1, "hex": "a91469f374e099eb400b5ed59e64359e82030f6e349587", "addresses": ["3BMEXLtbszdzZhQpTvRp5E4jJQp1mvLR3G"], "asm": "OP_HASH160 69f374e099eb400b5ed59e64359e82030f6e3495 OP_EQUAL", "type": "scripthash"}, "value": 0.00115431, "n": 1}, {"scriptPubKey": {"reqSigs": 1, "hex": "a9146de71e09de451cd64e653afdd7945d7f368b4b6787", "addresses": ["3Bi8SmTvUVKTZiNY3phWKRG1wPiAqMnTKW"], "asm": "OP_HASH160 6de71e09de451cd64e653afdd7945d7f368b4b67 OP_EQUAL", "type": "scripthash"}, "value": 0.05210808, "n": 2}, {"scriptPubKey": {"reqSigs": 1, "hex": "a9148c823cf96f4021526be0fcbef7d2b604d853fdd587", "addresses": ["3EVxYWPQ5QMhtUiJ9n8SAPvMoe9NQCFy8z"], "asm": "OP_HASH160 8c823cf96f4021526be0fcbef7d2b604d853fdd5 OP_EQUAL", "type": "scripthash"}, "value": 0.022, "n": 3}], "hex": "0200000000010336766c80b756e71847d3ff2266b0eead8ea46929e4b29739bdf1f23a65c98f24000000001716001459d71fa70586b117ba504b3deee31d3fb4346399feffffff36f8356999361e599a7d4d9472ed7f4e5435513d0a6b04b70c3ef9221b296c87000000006b483045022100e5b56f5ba198808c20a0e64e1fc53e26a9eaea0f8be7f202982458b82ed2d8bb022015fc8c229fb7d56485629ac6beed05e30b9077fd8df799a207659ba083056783012103bbd2690f2f1b5347310fe350418b760a6ca3304197ee6565cad3aaf5909dfbe5feffffff9b47ca52c7f9fbb1eee9e8fcf84e255dec72a131c7595dc18aad52ca9575036701000000171600142e781f06b55e94b3df17b033fd1b3e0739506b9cfeffffff0435d70d000000000017a914c7caee623314bbb05c11e405387ccf7580c90d9287e7c201000000000017a91469f374e099eb400b5ed59e64359e82030f6e349587b8824f000000000017a9146de71e09de451cd64e653afdd7945d7f368b4b6787c09121000000000017a9148c823cf96f4021526be0fcbef7d2b604d853fdd5870247304402206b9b8b3414fc527dd23b513ec9fe5126ad505c6c2abf9af5b5dc7e33d9240a14022076e5b3298e3cbe6177b05389e79d227f70665b8e69fbe593d68a1e85c4a45fda0121031258dd9592b5b94148c93271f01cf4321135d5d5e4c57af8947e9f682cee15b30002483045022100fbdc257ad44a99e2592c62b0caf5db75654c4d21d39fc70772f102d7d5bdef5d022046357eb91a3b85aaa46fabb93838d44315268df7bd0b3b7cc58e33da8d9204d601210253599a1433e07c20d60558ee3177504a9569b9be907e66c2efc69341849a352e16490800", "vin": [{"txinwitness": ["304402206b9b8b3414fc527dd23b513ec9fe5126ad505c6c2abf9af5b5dc7e33d9240a14022076e5b3298e3cbe6177b05389e79d227f70665b8e69fbe593d68a1e85c4a45fda01", "031258dd9592b5b94148c93271f01cf4321135d5d5e4c57af8947e9f682cee15b3"], "sequence": 4294967294, "scriptSig": {"hex": "16001459d71fa70586b117ba504b3deee31d3fb4346399", "asm": "001459d71fa70586b117ba504b3deee31d3fb4346399"}, "vout": 0, "txid": "248fc9653af2f1bd3997b2e42969a48eadeeb06622ffd34718e756b7806c7636"}, {"sequence": 4294967294, "scriptSig": {"hex": "483045022100e5b56f5ba198808c20a0e64e1fc53e26a9eaea0f8be7f202982458b82ed2d8bb022015fc8c229fb7d56485629ac6beed05e30b9077fd8df799a207659ba083056783012103bbd2690f2f1b5347310fe350418b760a6ca3304197ee6565cad3aaf5909dfbe5", "asm": "3045022100e5b56f5ba198808c20a0e64e1fc53e26a9eaea0f8be7f202982458b82ed2d8bb022015fc8c229fb7d56485629ac6beed05e30b9077fd8df799a207659ba083056783[ALL] 03bbd2690f2f1b5347310fe350418b760a6ca3304197ee6565cad3aaf5909dfbe5"}, "vout": 0, "txid": "876c291b22f93e0cb7046b0a3d5135544e7fed72944d7d9a591e36996935f836"}, {"txinwitness": ["3045022100fbdc257ad44a99e2592c62b0caf5db75654c4d21d39fc70772f102d7d5bdef5d022046357eb91a3b85aaa46fabb93838d44315268df7bd0b3b7cc58e33da8d9204d601", "0253599a1433e07c20d60558ee3177504a9569b9be907e66c2efc69341849a352e"], "sequence": 4294967294, "scriptSig": {"hex": "1600142e781f06b55e94b3df17b033fd1b3e0739506b9c", "asm": "00142e781f06b55e94b3df17b033fd1b3e0739506b9c"}, "vout": 1, "txid": "67037595ca52ad8ac15d59c731a172ec5d254ef8fce8e9eeb1fbf9c752ca479b"}], "txid": "5c39ae597e41f8ac090a56e18d3b079f1eb57f0d179da8eaf6e723b204ce6ea5", "blocktime": 1537875543, "version": 2, "confirmations": 11464, "time": 1537875543, "locktime": 542998, "vsize": 469, "size": 632}