{"hash": "5c3a1123f165c6b64a621c177c4cbc8fa5f2844edf4456ee6cd80ef8a7d171fe", "blockhash": "0000000000000000000dcc0f55137456b1a82d3642486a52398922ac4d620174", "vout": [{"scriptPubKey": {"reqSigs": 1, "hex": "a9146d56a8861fd6e4092dc79f8081172714b60d5a0487", "addresses": ["3Bf9PaSCYoxPquEHze59WXHKvcRyqnd3Ht"], "asm": "OP_HASH160 6d56a8861fd6e4092dc79f8081172714b60d5a04 OP_EQUAL", "type": "scripthash"}, "value": 0.00460981, "n": 0}], "hex": "01000000011d8f07b87f1250ad5a85dfe88a8e2e47ce6fa1225804ecb6b1632f84a2b3a7d4000000006a47304402203a55767a55304649f4ed2a81880d62630bfeb3b4123cbd8c4465568625583c9e02206a6551fe49cc8b707dc223f0117aa017de3a71c3cc1fa5e7fe5586cddd2241370121028298a1ef2a42828a1c749023890afad5fef86f2f80af20d6d2780266c59eb208ffffffff01b50807000000000017a9146d56a8861fd6e4092dc79f8081172714b60d5a048700000000", "vin": [{"sequence": 4294967295, "scriptSig": {"hex": "47304402203a55767a55304649f4ed2a81880d62630bfeb3b4123cbd8c4465568625583c9e02206a6551fe49cc8b707dc223f0117aa017de3a71c3cc1fa5e7fe5586cddd2241370121028298a1ef2a42828a1c749023890afad5fef86f2f80af20d6d2780266c59eb208", "asm": "304402203a55767a55304649f4ed2a81880d62630bfeb3b4123cbd8c4465568625583c9e02206a6551fe49cc8b707dc223f0117aa017de3a71c3cc1fa5e7fe5586cddd224137[ALL] 028298a1ef2a42828a1c749023890afad5fef86f2f80af20d6d2780266c59eb208"}, "vout": 0, "txid": "d4a7b3a2842f63b1b6ec045822a16fce472e8e8ae8df855aad50127fb8078f1d"}], "txid": "5c3a1123f165c6b64a621c177c4cbc8fa5f2844edf4456ee6cd80ef8a7d171fe", "blocktime": 1537870268, "version": 1, "confirmations": 11516, "time": 1537870268, "locktime": 0, "vsize": 189, "size": 189}