{"hash": "5c3ad3c9fd03eaca2fd414783865caaf9436cc2a2f3701cf555cc8cb80cf57bc", "blockhash": "0000000000000000000e13cef7c366c0283d82e591d1acd082e914b08063cdf1", "vout": [{"scriptPubKey": {"reqSigs": 1, "hex": "76a91486cafb76da531a1e462d5dc1d928ac9b6e59d29488ac", "addresses": ["1DHiiANHiTtrnfeCkHfuknCXrx8PXkRaoC"], "asm": "OP_DUP OP_HASH160 86cafb76da531a1e462d5dc1d928ac9b6e59d294 OP_EQUALVERIFY OP_CHECKSIG", "type": "pubkeyhash"}, "value": 9.87e-06, "n": 0}, {"scriptPubKey": {"reqSigs": 1, "hex": "76a914d0a272f53c65422cee732164e188b8f5e6b4ecde88ac", "addresses": ["1L2AA4RBJwhjo1Z2T6HD3nTvyNz8NaJ3E2"], "asm": "OP_DUP OP_HASH160 d0a272f53c65422cee732164e188b8f5e6b4ecde OP_EQUALVERIFY OP_CHECKSIG", "type": "pubkeyhash"}, "value": 0.003, "n": 1}], "hex": "01000000030620e4d3fce21ae1bc7e39861669b2a0336565fd508803c6a3658cef1eadc235000000006a47304402207359f4cb352fb3f088ecc7a91140935c2890e40c90b929c552b5625bd46bffa5022058fd22b7ece25022dc64a868f20d8e2b9597abdc777d23d795ac8a16f1543d2f012103941fc5f6b0ff016b99ca662b1c12a0dacee48aa42a8f87b4798991519296d0a6ffffffff5884e42d836a145c666143eb0770af0936b2d9c212e1a35a18d3bb3b47bfe675000000006b483045022100ebc0950d1abd60a4f303448d87ab719f4b144f327e5995348e58cadbf2242f1a0220778c0671040a7230212c263e10f1e03f6bab721977e7d020fb6e57dbd29b06dd0121036d88dd87f762371385730c6ba759f369c6503c14182d74072466eeaea94fb3cbfffffffffc9edc580c9b89c50d91860336b847f9799a16a4124fa0cada6f20effc9fbeb6000000006a47304402204c2be71b4b97699a90dfa15de190c4aa72a6b79667ac83def4bee473b3e09bc6022079a3d82efbb1b4cb9e089d161c4a11085b9f0b0536f5d615674a65ae1066db5e012102f9eb0a850f03d4aba10ff7f2add412720562687f96d315966bfaf34486dd3026ffffffff02db030000000000001976a91486cafb76da531a1e462d5dc1d928ac9b6e59d29488ace0930400000000001976a914d0a272f53c65422cee732164e188b8f5e6b4ecde88ac00000000", "vin": [{"sequence": 4294967295, "scriptSig": {"hex": "47304402207359f4cb352fb3f088ecc7a91140935c2890e40c90b929c552b5625bd46bffa5022058fd22b7ece25022dc64a868f20d8e2b9597abdc777d23d795ac8a16f1543d2f012103941fc5f6b0ff016b99ca662b1c12a0dacee48aa42a8f87b4798991519296d0a6", "asm": "304402207359f4cb352fb3f088ecc7a91140935c2890e40c90b929c552b5625bd46bffa5022058fd22b7ece25022dc64a868f20d8e2b9597abdc777d23d795ac8a16f1543d2f[ALL] 03941fc5f6b0ff016b99ca662b1c12a0dacee48aa42a8f87b4798991519296d0a6"}, "vout": 0, "txid": "35c2ad1eef8c65a3c6038850fd656533a0b2691686397ebce11ae2fcd3e42006"}, {"sequence": 4294967295, "scriptSig": {"hex": "483045022100ebc0950d1abd60a4f303448d87ab719f4b144f327e5995348e58cadbf2242f1a0220778c0671040a7230212c263e10f1e03f6bab721977e7d020fb6e57dbd29b06dd0121036d88dd87f762371385730c6ba759f369c6503c14182d74072466eeaea94fb3cb", "asm": "3045022100ebc0950d1abd60a4f303448d87ab719f4b144f327e5995348e58cadbf2242f1a0220778c0671040a7230212c263e10f1e03f6bab721977e7d020fb6e57dbd29b06dd[ALL] 036d88dd87f762371385730c6ba759f369c6503c14182d74072466eeaea94fb3cb"}, "vout": 0, "txid": "75e6bf473bbbd3185aa3e112c2d9b23609af7007eb4361665c146a832de48458"}, {"sequence": 4294967295, "scriptSig": {"hex": "47304402204c2be71b4b97699a90dfa15de190c4aa72a6b79667ac83def4bee473b3e09bc6022079a3d82efbb1b4cb9e089d161c4a11085b9f0b0536f5d615674a65ae1066db5e012102f9eb0a850f03d4aba10ff7f2add412720562687f96d315966bfaf34486dd3026", "asm": "304402204c2be71b4b97699a90dfa15de190c4aa72a6b79667ac83def4bee473b3e09bc6022079a3d82efbb1b4cb9e089d161c4a11085b9f0b0536f5d615674a65ae1066db5e[ALL] 02f9eb0a850f03d4aba10ff7f2add412720562687f96d315966bfaf34486dd3026"}, "vout": 0, "txid": "b6be9ffcef206fdacaa04f12a4169a79f947b8360386910dc5899b0c58dc9efc"}], "txid": "5c3ad3c9fd03eaca2fd414783865caaf9436cc2a2f3701cf555cc8cb80cf57bc", "blocktime": 1537871767, "version": 1, "confirmations": 11495, "time": 1537871767, "locktime": 0, "vsize": 520, "size": 520}