{"hash": "5c3b6f8979fd40e027b943519ed9d490baac4878c878ec798c8d16b892523351", "blockhash": "00000000000000000017f5eb5941039fbcee6240d03bc1f2f8e35350df66a1d8", "vout": [{"scriptPubKey": {"reqSigs": 1, "hex": "76a9140843d7eaf5ac22999793e55026ac0dd0bd20cd8088ac", "addresses": ["1khgNy2zcjkCzk3Tbb16NoJ1yYjqFK9Bu"], "asm": "OP_DUP OP_HASH160 0843d7eaf5ac22999793e55026ac0dd0bd20cd80 OP_EQUALVERIFY OP_CHECKSIG", "type": "pubkeyhash"}, "value": 0.0060036, "n": 0}, {"scriptPubKey": {"reqSigs": 1, "hex": "76a91483322157da9164ede4802afc94793a33bea903f388ac", "addresses": ["1CxhaEwgyZZguf7rrtrkbXszxYvzLLhDgi"], "asm": "OP_DUP OP_HASH160 83322157da9164ede4802afc94793a33bea903f3 OP_EQUALVERIFY OP_CHECKSIG", "type": "pubkeyhash"}, "value": 0.19728549, "n": 1}], "hex": "0100000001cbde1f2c0b3ad8b1bbdb4d5306a4cbcce2c8c0d172756bda656e70b5f636d92e010000006b4830450221008879682c8f45cd13f512dbec51a67550f8f66f6d830472a84e818687e1962be6022058b89cf7b3b8fd6b9027137c4bfbee51be2b089566d423bfa064c527b934b090012102e4c04ca16f1803de6ff35f797ec2b51bac7e067f53153990a292bef1b271de5bfeffffff0228290900000000001976a9140843d7eaf5ac22999793e55026ac0dd0bd20cd8088aca5082d01000000001976a91483322157da9164ede4802afc94793a33bea903f388ac15490800", "vin": [{"sequence": 4294967294, "scriptSig": {"hex": "4830450221008879682c8f45cd13f512dbec51a67550f8f66f6d830472a84e818687e1962be6022058b89cf7b3b8fd6b9027137c4bfbee51be2b089566d423bfa064c527b934b090012102e4c04ca16f1803de6ff35f797ec2b51bac7e067f53153990a292bef1b271de5b", "asm": "30450221008879682c8f45cd13f512dbec51a67550f8f66f6d830472a84e818687e1962be6022058b89cf7b3b8fd6b9027137c4bfbee51be2b089566d423bfa064c527b934b090[ALL] 02e4c04ca16f1803de6ff35f797ec2b51bac7e067f53153990a292bef1b271de5b"}, "vout": 1, "txid": "2ed936f6b5706e65da6b7572d1c0c8e2cccba406534ddbbbb1d83a0b2c1fdecb"}], "txid": "5c3b6f8979fd40e027b943519ed9d490baac4878c878ec798c8d16b892523351", "blocktime": 1537874412, "version": 1, "confirmations": 11467, "time": 1537874412, "locktime": 542997, "vsize": 226, "size": 226}