{"hash": "f5b2de6cbe2a4140991a93b9bd8f83cd29111086f40d3233aa63ec076ca10774", "blockhash": "0000000000000000001cda96e906b7601b7a6fb1a3b62bca570a9e5d8f4b3de1", "vout": [{"scriptPubKey": {"reqSigs": 1, "hex": "76a9148f4ada2e46c0fc4c5c6c45cddc377efb6254a34888ac", "addresses": ["1E4fJFzmJA4ukxJ3uophtyPpDbkbrY621J"], "asm": "OP_DUP OP_HASH160 8f4ada2e46c0fc4c5c6c45cddc377efb6254a348 OP_EQUALVERIFY OP_CHECKSIG", "type": "pubkeyhash"}, "value": 0.218865, "n": 0}, {"scriptPubKey": {"reqSigs": 1, "hex": "a914d4a10c63cb5944f2fbf255587eeb3b5d2d6f936c87", "addresses": ["3M5J73tdrYQQqkS3oGacrgLvNDKrSYSgN5"], "asm": "OP_HASH160 d4a10c63cb5944f2fbf255587eeb3b5d2d6f936c OP_EQUAL", "type": "scripthash"}, "value": 1.0742325, "n": 1}], "hex": "020000000001017c8402a855c39f0915cc5ec71006ccffba74168470394f940b760543694115af0100000017160014e6b8852bb7e2f00ec02d9903db7e0bf8eb2924a4feffffff0224f64d01000000001976a9148f4ada2e46c0fc4c5c6c45cddc377efb6254a34888ac122667060000000017a914d4a10c63cb5944f2fbf255587eeb3b5d2d6f936c870247304402202533f0e33667bd4b2e330b2598fac7d48ac5f44b000d965a8f99f49d7ffe1ece0220061afc0cb89eb009396076c83038c2c8e86d121bde5bbd6565adf0620949a75e012102045174becf1f1f805cfd8d09b58409689e87335efae7281e666f5d0e6cd6670f13490800", "vin": [{"txinwitness": ["304402202533f0e33667bd4b2e330b2598fac7d48ac5f44b000d965a8f99f49d7ffe1ece0220061afc0cb89eb009396076c83038c2c8e86d121bde5bbd6565adf0620949a75e01", "02045174becf1f1f805cfd8d09b58409689e87335efae7281e666f5d0e6cd6670f"], "sequence": 4294967294, "scriptSig": {"hex": "160014e6b8852bb7e2f00ec02d9903db7e0bf8eb2924a4", "asm": "0014e6b8852bb7e2f00ec02d9903db7e0bf8eb2924a4"}, "vout": 1, "txid": "af1541694305760b944f3970841674baffcc0610c75ecc15099fc355a802847c"}], "txid": "5c3d57e616dcc504f2ba892d502c40fef4e71dc19ad048a820af0729b244e507", "blocktime": 1537873282, "version": 2, "confirmations": 11484, "time": 1537873282, "locktime": 542995, "vsize": 168, "size": 249}