{"hash": "88942aab83ded3948e315f5b900948df819b9e0cb68aa9905fa386728c0342b6", "blockhash": "0000000000000000000e13cef7c366c0283d82e591d1acd082e914b08063cdf1", "vout": [{"scriptPubKey": {"reqSigs": 1, "hex": "76a914ea6867ccd5ae2a6cb693498914d61069d496e64788ac", "addresses": ["1NNSC7EdHuWksfQyiPMppYCRdRfMkT9EXc"], "asm": "OP_DUP OP_HASH160 ea6867ccd5ae2a6cb693498914d61069d496e647 OP_EQUALVERIFY OP_CHECKSIG", "type": "pubkeyhash"}, "value": 0.01, "n": 0}, {"scriptPubKey": {"reqSigs": 1, "hex": "a914356d2c9d7648b23cccc5db1e2f19d7f8a3f34fe587", "addresses": ["36ZWXGm9zJwwNBGbdk5AwC3on49ZHsRiYx"], "asm": "OP_HASH160 356d2c9d7648b23cccc5db1e2f19d7f8a3f34fe5 OP_EQUAL", "type": "scripthash"}, "value": 0.19254876, "n": 1}], "hex": "01000000000101ed7bb5159e3c652bac62bd065c7df4b83e53e66e841d6ba28d56114d33253e970000000023220020f02106df819c0c079c5a1301424987bb2223d70b61998b41dc48ac495ee36ff0ffffffff0240420f00000000001976a914ea6867ccd5ae2a6cb693498914d61069d496e64788ac5cce25010000000017a914356d2c9d7648b23cccc5db1e2f19d7f8a3f34fe5870400483045022100dff61714e8f8701a1c5dfbec6fe96a319add422193e07899f4f2d17ddc95bfe202200e4d90ff307a09fcf9b726121ebc1eeb3bf85455f724b8ece2092ae2e2b6223c0147304402202aec0887cdf88056bc48ccdb9f01fe1a703f62f05f7c61f41741c3f8bbdc82d602203831be2a77e171b6bdbd031a2a611991384dd06bab63231da4f0b8c98a1e74a30147522103276a6941cb6b56ad46991c0386ea82997b17623fa39c5ae259bfb10244544a3d21038f2c7ecee34c843be9d886e50ce79e5dc40a1694c0417d60b35340f292ff73fc52ae00000000", "vin": [{"txinwitness": ["", "3045022100dff61714e8f8701a1c5dfbec6fe96a319add422193e07899f4f2d17ddc95bfe202200e4d90ff307a09fcf9b726121ebc1eeb3bf85455f724b8ece2092ae2e2b6223c01", "304402202aec0887cdf88056bc48ccdb9f01fe1a703f62f05f7c61f41741c3f8bbdc82d602203831be2a77e171b6bdbd031a2a611991384dd06bab63231da4f0b8c98a1e74a301", "522103276a6941cb6b56ad46991c0386ea82997b17623fa39c5ae259bfb10244544a3d21038f2c7ecee34c843be9d886e50ce79e5dc40a1694c0417d60b35340f292ff73fc52ae"], "sequence": 4294967295, "scriptSig": {"hex": "220020f02106df819c0c079c5a1301424987bb2223d70b61998b41dc48ac495ee36ff0", "asm": "0020f02106df819c0c079c5a1301424987bb2223d70b61998b41dc48ac495ee36ff0"}, "vout": 0, "txid": "973e25334d11568da26b1d846ee6533eb8f47d5c06bd62ac2b653c9e15b57bed"}], "txid": "5c3f9b40a9489ee430edd389e37724191f0b1301064aad05239818f221f3a236", "blocktime": 1537871767, "version": 1, "confirmations": 11493, "time": 1537871767, "locktime": 0, "vsize": 208, "size": 373}