{"hash": "5c408dfb273867913b56e792e2af7aec64a931b4b69548439156a1e357508027", "blockhash": "0000000000000000001e0dab787dd257d1dbfcb92a98c2207d5e1078be1f4165", "vout": [{"scriptPubKey": {"reqSigs": 1, "hex": "76a914cbc83e3558599a4627f364435429aaae0cf80f1288ac", "addresses": ["1KaW451tvonh6FuQCJS3Hhg5hHYRej4Qf1"], "asm": "OP_DUP OP_HASH160 cbc83e3558599a4627f364435429aaae0cf80f12 OP_EQUALVERIFY OP_CHECKSIG", "type": "pubkeyhash"}, "value": 0.34357714, "n": 0}, {"scriptPubKey": {"reqSigs": 1, "hex": "76a914b08093956699bf0ba3a35323c61595427f54681288ac", "addresses": ["1H6FxR1JKT1ZKZW41xYPcMeu1bPYG6ULrY"], "asm": "OP_DUP OP_HASH160 b08093956699bf0ba3a35323c61595427f546812 OP_EQUALVERIFY OP_CHECKSIG", "type": "pubkeyhash"}, "value": 2.0, "n": 1}], "hex": "0100000002cdb9698f0db284bc9a45219a4943d9736732ea44465b29177bab054d75b7e944000000006b483045022100f0e2528a178f37ee4d5a5a7a209cb4d0c7d94abf7e32f5d7d33fe725620a9a8b02201279bc87e92a36d4f141eea40dc786a30b1664bb26fe0189f21f13149309fe01012103b83e000613665fa513b2148aaeafd043eec6e95067b276cb0726b46d37a9efa4ffffffff5620349cfc75d61f3b32d838c208cd2e6e855062402b48b4f020cf76800df575010000006b483045022100fec6aee9a94a9e25a1a9fab21402553f8688094168483058461b2e2c58a67a5b022021c5d5b756932a5bb263b50d83a552e1c553ddac9f0d1020454035729417d5c301210288c66e749c70ac66f6c6be576d6bcaecbeee6a05501f61e85de9e3412e9f81bdffffffff02d2410c02000000001976a914cbc83e3558599a4627f364435429aaae0cf80f1288ac00c2eb0b000000001976a914b08093956699bf0ba3a35323c61595427f54681288ac00000000", "vin": [{"sequence": 4294967295, "scriptSig": {"hex": "483045022100f0e2528a178f37ee4d5a5a7a209cb4d0c7d94abf7e32f5d7d33fe725620a9a8b02201279bc87e92a36d4f141eea40dc786a30b1664bb26fe0189f21f13149309fe01012103b83e000613665fa513b2148aaeafd043eec6e95067b276cb0726b46d37a9efa4", "asm": "3045022100f0e2528a178f37ee4d5a5a7a209cb4d0c7d94abf7e32f5d7d33fe725620a9a8b02201279bc87e92a36d4f141eea40dc786a30b1664bb26fe0189f21f13149309fe01[ALL] 03b83e000613665fa513b2148aaeafd043eec6e95067b276cb0726b46d37a9efa4"}, "vout": 0, "txid": "44e9b7754d05ab7b17295b4644ea326773d943499a21459abc84b20d8f69b9cd"}, {"sequence": 4294967295, "scriptSig": {"hex": "483045022100fec6aee9a94a9e25a1a9fab21402553f8688094168483058461b2e2c58a67a5b022021c5d5b756932a5bb263b50d83a552e1c553ddac9f0d1020454035729417d5c301210288c66e749c70ac66f6c6be576d6bcaecbeee6a05501f61e85de9e3412e9f81bd", "asm": "3045022100fec6aee9a94a9e25a1a9fab21402553f8688094168483058461b2e2c58a67a5b022021c5d5b756932a5bb263b50d83a552e1c553ddac9f0d1020454035729417d5c3[ALL] 0288c66e749c70ac66f6c6be576d6bcaecbeee6a05501f61e85de9e3412e9f81bd"}, "vout": 1, "txid": "75f50d8076cf20f0b4482b406250856e2ecd08c238d8323b1fd675fc9c342056"}], "txid": "5c408dfb273867913b56e792e2af7aec64a931b4b69548439156a1e357508027", "blocktime": 1537872475, "version": 1, "confirmations": 11486, "time": 1537872475, "locktime": 0, "vsize": 374, "size": 374}