{"hash": "bdc3485a9fdd87b62d6729ac3ef507622d6839b7f34a7a3d9f61035ec52571d1", "blockhash": "0000000000000000000dcc0f55137456b1a82d3642486a52398922ac4d620174", "vout": [{"scriptPubKey": {"reqSigs": 1, "hex": "a9149e8e2c0543c84bfb9d9c25703ec08fe3c1e2d07387", "addresses": ["3G9P18hfa3V6W68kk62NpoGc3HVZx2hSB9"], "asm": "OP_HASH160 9e8e2c0543c84bfb9d9c25703ec08fe3c1e2d073 OP_EQUAL", "type": "scripthash"}, "value": 8.265e-05, "n": 0}, {"scriptPubKey": {"reqSigs": 1, "hex": "a91450678668ab99a763ab4d0f2dd2025c66f917770387", "addresses": ["3929zwDwM77Nd1rs1VVrEBNdgFWnLswMsG"], "asm": "OP_HASH160 50678668ab99a763ab4d0f2dd2025c66f9177703 OP_EQUAL", "type": "scripthash"}, "value": 0.02364931, "n": 1}], "hex": "01000000000101076c7dea4d5be1b18c68a14d0b68d194d1884d4ae93cc6391222e65d5979ac6601000000232200201d26fb121924b578ce3226a7a6d4709ed28a2df80f20e28460a64397ad22186dffffffff02492000000000000017a9149e8e2c0543c84bfb9d9c25703ec08fe3c1e2d07387031624000000000017a91450678668ab99a763ab4d0f2dd2025c66f917770387040047304402207761231f4a74be33752ed26048e2cf02832136de726b1fc5f7b12ecf7af53a70022006d272cdcec6dea2bc4c74615a8d62591ecbc8a1b160d6b128636e677a69007001483045022100811deae0fece9266bb60a040e25f462c74454e5e646ed5727647848d64b0dadb02203082f6ac11b759d2a7f23d2d4c1d51e420e19f2e5ec85782a9374f3d0d8a8bf7014752210203bec87cf8cdf8862c1604693fdf36c549ae2120d921513ba1685f581492a66e21030580d373ab00643a581abb399b43fa66d7b6fc29624eb75b2d5ec8d99faa163f52ae00000000", "vin": [{"txinwitness": ["", "304402207761231f4a74be33752ed26048e2cf02832136de726b1fc5f7b12ecf7af53a70022006d272cdcec6dea2bc4c74615a8d62591ecbc8a1b160d6b128636e677a69007001", "3045022100811deae0fece9266bb60a040e25f462c74454e5e646ed5727647848d64b0dadb02203082f6ac11b759d2a7f23d2d4c1d51e420e19f2e5ec85782a9374f3d0d8a8bf701", "52210203bec87cf8cdf8862c1604693fdf36c549ae2120d921513ba1685f581492a66e21030580d373ab00643a581abb399b43fa66d7b6fc29624eb75b2d5ec8d99faa163f52ae"], "sequence": 4294967295, "scriptSig": {"hex": "2200201d26fb121924b578ce3226a7a6d4709ed28a2df80f20e28460a64397ad22186d", "asm": "00201d26fb121924b578ce3226a7a6d4709ed28a2df80f20e28460a64397ad22186d"}, "vout": 1, "txid": "66ac79595de6221239c63ce94a4d88d194d1680b4da1688cb1e15b4dea7d6c07"}], "txid": "5c42fd0bda689f761bf0ad80c3f0c80f7426ed77b3e3f80c80226ce0d9ab945c", "blocktime": 1537870268, "version": 1, "confirmations": 11518, "time": 1537870268, "locktime": 0, "vsize": 206, "size": 371}