{"hash": "5c4763a1ceea577f4700ecb69396178c54fcc40e388752631354468979017a2d", "blockhash": "000000000000000000205f8b0775d31398ef75b89a5e8ec8d2c57b4dc0ac4c20", "vout": [{"scriptPubKey": {"reqSigs": 1, "hex": "a9144534cbec9ded7300147e09f55f0947309ffdc19587", "addresses": ["37zwo9hAtzcMJP7stgvcizBmkz4gdnxdAV"], "asm": "OP_HASH160 4534cbec9ded7300147e09f55f0947309ffdc195 OP_EQUAL", "type": "scripthash"}, "value": 0.0149626, "n": 0}], "hex": "010000000296787fd54cad178562e1a5a0ed6c2ad0dce65ec5cb7391fe9f1ddd6d2ca266a5000000006b483045022100baa89330dbd5fdf053b71b2c360e350474208bfe49ac5d3ea0b959858e31994c02205757276e56ad341c8b4493f3214b7640c8915efd2c95e8287d123e3dd3f64e8101210252ea5168921ba055107fcf90d1d39d9b3d3af8e6a439a6a7177c7e881d8003bafffffffffbab9422c79673842ee97b66009f247083e082a3b7a7fa7f05e09f6116277b6d000000006b483045022100dd57557ef007571de99cf70aea47e78d8d8ab4bf550df7f8731dfc60bceb9a6b02202257359d113a71a60a8225cc893ec6986c5f63d14bd800b364f853bed547792101210252ea5168921ba055107fcf90d1d39d9b3d3af8e6a439a6a7177c7e881d8003baffffffff01c4d416000000000017a9144534cbec9ded7300147e09f55f0947309ffdc1958700000000", "vin": [{"sequence": 4294967295, "scriptSig": {"hex": "483045022100baa89330dbd5fdf053b71b2c360e350474208bfe49ac5d3ea0b959858e31994c02205757276e56ad341c8b4493f3214b7640c8915efd2c95e8287d123e3dd3f64e8101210252ea5168921ba055107fcf90d1d39d9b3d3af8e6a439a6a7177c7e881d8003ba", "asm": "3045022100baa89330dbd5fdf053b71b2c360e350474208bfe49ac5d3ea0b959858e31994c02205757276e56ad341c8b4493f3214b7640c8915efd2c95e8287d123e3dd3f64e81[ALL] 0252ea5168921ba055107fcf90d1d39d9b3d3af8e6a439a6a7177c7e881d8003ba"}, "vout": 0, "txid": "a566a22c6ddd1d9ffe9173cbc55ee6dcd02a6ceda0a5e1628517ad4cd57f7896"}, {"sequence": 4294967295, "scriptSig": {"hex": "483045022100dd57557ef007571de99cf70aea47e78d8d8ab4bf550df7f8731dfc60bceb9a6b02202257359d113a71a60a8225cc893ec6986c5f63d14bd800b364f853bed547792101210252ea5168921ba055107fcf90d1d39d9b3d3af8e6a439a6a7177c7e881d8003ba", "asm": "3045022100dd57557ef007571de99cf70aea47e78d8d8ab4bf550df7f8731dfc60bceb9a6b02202257359d113a71a60a8225cc893ec6986c5f63d14bd800b364f853bed5477921[ALL] 0252ea5168921ba055107fcf90d1d39d9b3d3af8e6a439a6a7177c7e881d8003ba"}, "vout": 0, "txid": "6d7b2716619fe0057ffaa7b7a382e08370249f00667be92e847396c72294abfb"}], "txid": "5c4763a1ceea577f4700ecb69396178c54fcc40e388752631354468979017a2d", "blocktime": 1537871175, "version": 1, "confirmations": 11511, "time": 1537871175, "locktime": 0, "vsize": 338, "size": 338}