{"hash": "5c4ae9b8bd48824ebef42eb9470ec4037b1f66bbac7d0445d0463cb60b12be94", "blockhash": "0000000000000000000baef3f32e3676a92c3b2e5da21b426e4f302fc371ce76", "vout": [{"scriptPubKey": {"reqSigs": 1, "hex": "76a914f03e295d57468026df602525715e6d9a12bd08a588ac", "addresses": ["1NuHe6ttuXV51ZHgyBXksL2oJivbKoz96Z"], "asm": "OP_DUP OP_HASH160 f03e295d57468026df602525715e6d9a12bd08a5 OP_EQUALVERIFY OP_CHECKSIG", "type": "pubkeyhash"}, "value": 0.0032742, "n": 0}, {"scriptPubKey": {"reqSigs": 1, "hex": "76a914e163d073e054266d0f5e025eebd6100b0c946b5b88ac", "addresses": ["1MYkcNyCtPmxivKoMy5v5VBkv6LuBrgrAy"], "asm": "OP_DUP OP_HASH160 e163d073e054266d0f5e025eebd6100b0c946b5b OP_EQUALVERIFY OP_CHECKSIG", "type": "pubkeyhash"}, "value": 0.06029904, "n": 1}], "hex": "010000000110d0d1f5dc0abe32e6ff3dccc972d0d04f418a48acd406db15ba433c8a9405d3010000006a47304402203c47a740b57923b7ccc12899f057fbf0c6e3af774b6f03acf9d7d855d5ee9164022006b31517cf0da53d56c36230af36de050b83b9bf375f9ab46d427e40660ca5bb0121033387315522fd785dc6a3184e4f2acbd937f90409a105c06583c94e6554220085ffffffff02fcfe0400000000001976a914f03e295d57468026df602525715e6d9a12bd08a588ac50025c00000000001976a914e163d073e054266d0f5e025eebd6100b0c946b5b88ac00000000", "vin": [{"sequence": 4294967295, "scriptSig": {"hex": "47304402203c47a740b57923b7ccc12899f057fbf0c6e3af774b6f03acf9d7d855d5ee9164022006b31517cf0da53d56c36230af36de050b83b9bf375f9ab46d427e40660ca5bb0121033387315522fd785dc6a3184e4f2acbd937f90409a105c06583c94e6554220085", "asm": "304402203c47a740b57923b7ccc12899f057fbf0c6e3af774b6f03acf9d7d855d5ee9164022006b31517cf0da53d56c36230af36de050b83b9bf375f9ab46d427e40660ca5bb[ALL] 033387315522fd785dc6a3184e4f2acbd937f90409a105c06583c94e6554220085"}, "vout": 1, "txid": "d305948a3c43ba15db06d4ac488a414fd0d072c9cc3dffe632be0adcf5d1d010"}], "txid": "5c4ae9b8bd48824ebef42eb9470ec4037b1f66bbac7d0445d0463cb60b12be94", "blocktime": 1537876114, "version": 1, "confirmations": 11459, "time": 1537876114, "locktime": 0, "vsize": 225, "size": 225}