{"hash": "5c4d094d959c03caaa0c4a985af436056fa443d7aae2bf501b5123e37cf2b7f3", "blockhash": "0000000000000000000e13cef7c366c0283d82e591d1acd082e914b08063cdf1", "vout": [{"scriptPubKey": {"reqSigs": 1, "hex": "76a914d243e6abb9a60fbff430b421d2df4b7d59ec186088ac", "addresses": ["1LAnF8h3qMGx3TSwNUHVneBZUEpwE4gu3D"], "asm": "OP_DUP OP_HASH160 d243e6abb9a60fbff430b421d2df4b7d59ec1860 OP_EQUALVERIFY OP_CHECKSIG", "type": "pubkeyhash"}, "value": 0.00077314, "n": 0}, {"scriptPubKey": {"reqSigs": 1, "hex": "76a91456c79b767208b8bdf59c242d99b684740898c0ad88ac", "addresses": ["18urETLat9GiSfCDjaba1QzDuhJrpDBqSj"], "asm": "OP_DUP OP_HASH160 56c79b767208b8bdf59c242d99b684740898c0ad OP_EQUALVERIFY OP_CHECKSIG", "type": "pubkeyhash"}, "value": 5.46e-06, "n": 1}, {"scriptPubKey": {"type": "nulldata", "hex": "6a146f6d6e69000000000000001f00000040f5b22600", "asm": "OP_RETURN 6f6d6e69000000000000001f00000040f5b22600"}, "value": 0.0, "n": 2}], "hex": "0100000001769c172764f212b3afca86dea5e550ec1fd463f2020392594c74cca4da63b939000000006a47304402200112293817b458fdc9cb53e43642117c4bdab05cd4cd9dea3024ffaebdc6da6602204cf0182b2292c5eed623a4375c58bae307224a229ad326a01aa761d7fdaafefd01210271977291b74f1f5f5c42157e8aae804664eaaeccfd097918450d37f28fb94d77ffffffff03022e0100000000001976a914d243e6abb9a60fbff430b421d2df4b7d59ec186088ac22020000000000001976a91456c79b767208b8bdf59c242d99b684740898c0ad88ac0000000000000000166a146f6d6e69000000000000001f00000040f5b2260000000000", "vin": [{"sequence": 4294967295, "scriptSig": {"hex": "47304402200112293817b458fdc9cb53e43642117c4bdab05cd4cd9dea3024ffaebdc6da6602204cf0182b2292c5eed623a4375c58bae307224a229ad326a01aa761d7fdaafefd01210271977291b74f1f5f5c42157e8aae804664eaaeccfd097918450d37f28fb94d77", "asm": "304402200112293817b458fdc9cb53e43642117c4bdab05cd4cd9dea3024ffaebdc6da6602204cf0182b2292c5eed623a4375c58bae307224a229ad326a01aa761d7fdaafefd[ALL] 0271977291b74f1f5f5c42157e8aae804664eaaeccfd097918450d37f28fb94d77"}, "vout": 0, "txid": "39b963daa4cc744c59920302f263d41fec50e5a5de86caafb312f26427179c76"}], "txid": "5c4d094d959c03caaa0c4a985af436056fa443d7aae2bf501b5123e37cf2b7f3", "blocktime": 1537871767, "version": 1, "confirmations": 11491, "time": 1537871767, "locktime": 0, "vsize": 256, "size": 256}