{"hash": "5c5a83ad7a2c60ce24a4ef2ce057e84a60b85881a93f237b14b2854c65e0b1e4", "blockhash": "0000000000000000001cda96e906b7601b7a6fb1a3b62bca570a9e5d8f4b3de1", "vout": [{"scriptPubKey": {"reqSigs": 1, "hex": "a914ae98a5301cdb0c8ca031934fa8639f7f471831f187", "addresses": ["3HcCMuDxoAHxZYZQ64dAnga5wRHRb3QHsq"], "asm": "OP_HASH160 ae98a5301cdb0c8ca031934fa8639f7f471831f1 OP_EQUAL", "type": "scripthash"}, "value": 1.09358938, "n": 0}, {"scriptPubKey": {"reqSigs": 1, "hex": "76a914060a0b65be8deb343bbca894180e652b975f478888ac", "addresses": ["1Yw64HFKWkwV2A8ntZfHQ5sXgpp3qE7TJ"], "asm": "OP_DUP OP_HASH160 060a0b65be8deb343bbca894180e652b975f4788 OP_EQUALVERIFY OP_CHECKSIG", "type": "pubkeyhash"}, "value": 0.46175483, "n": 1}, {"scriptPubKey": {"reqSigs": 1, "hex": "76a91408f063a346dcfc300d371c53577cea3d9189aea988ac", "addresses": ["1pGP53jwc7ettj68zasQ97DmaNaJqYuEz"], "asm": "OP_DUP OP_HASH160 08f063a346dcfc300d371c53577cea3d9189aea9 OP_EQUALVERIFY OP_CHECKSIG", "type": "pubkeyhash"}, "value": 0.00106052, "n": 2}], "hex": "0100000001669069c4e308330a90fb0f2af2796ede7de1b628a5687e4845545ff21e2740eb01000000da0047304402207945be57b29306029a3b3325ff5fc11f394fc9ca5bb2b09bbb33ddb396561f74022046d0de09556cfe8c71a379b4f0abc44ba4e3e20e7f6ead32d8568d8a1df467bf01483045022100d6e965181745e2789de8c14cdfc78f3e52c05a4aee218edbaf1d6d9efa14116802201a672e10b7a01f12c852323589e6a21eb5453810892aafb37bb0ad403dffbae90147522102907a54bed8ad74b3f35638c60114ca240a308cb986f3f2f306178869a8880b612103b54d39c76f0a1a6a90ba102cbb12c7073fb815fe8a7b992dd0a031cb6eaf2d9e52aeffffffff035aaf84060000000017a914ae98a5301cdb0c8ca031934fa8639f7f471831f187fb94c002000000001976a914060a0b65be8deb343bbca894180e652b975f478888ac449e0100000000001976a91408f063a346dcfc300d371c53577cea3d9189aea988ac00000000", "vin": [{"sequence": 4294967295, "scriptSig": {"hex": "0047304402207945be57b29306029a3b3325ff5fc11f394fc9ca5bb2b09bbb33ddb396561f74022046d0de09556cfe8c71a379b4f0abc44ba4e3e20e7f6ead32d8568d8a1df467bf01483045022100d6e965181745e2789de8c14cdfc78f3e52c05a4aee218edbaf1d6d9efa14116802201a672e10b7a01f12c852323589e6a21eb5453810892aafb37bb0ad403dffbae90147522102907a54bed8ad74b3f35638c60114ca240a308cb986f3f2f306178869a8880b612103b54d39c76f0a1a6a90ba102cbb12c7073fb815fe8a7b992dd0a031cb6eaf2d9e52ae", "asm": "0 304402207945be57b29306029a3b3325ff5fc11f394fc9ca5bb2b09bbb33ddb396561f74022046d0de09556cfe8c71a379b4f0abc44ba4e3e20e7f6ead32d8568d8a1df467bf[ALL] 3045022100d6e965181745e2789de8c14cdfc78f3e52c05a4aee218edbaf1d6d9efa14116802201a672e10b7a01f12c852323589e6a21eb5453810892aafb37bb0ad403dffbae9[ALL] 522102907a54bed8ad74b3f35638c60114ca240a308cb986f3f2f306178869a8880b612103b54d39c76f0a1a6a90ba102cbb12c7073fb815fe8a7b992dd0a031cb6eaf2d9e52ae"}, "vout": 1, "txid": "eb40271ef25f5445487e68a528b6e17dde6e79f22a0ffb900a3308e3c4699066"}], "txid": "5c5a83ad7a2c60ce24a4ef2ce057e84a60b85881a93f237b14b2854c65e0b1e4", "blocktime": 1537873282, "version": 1, "confirmations": 11484, "time": 1537873282, "locktime": 0, "vsize": 369, "size": 369}