{"hash": "5c5c95df0045bddbf8a2b871319c24b78810bde363ba05a14f314f706e3a04f5", "blockhash": "0000000000000000000e13cef7c366c0283d82e591d1acd082e914b08063cdf1", "vout": [{"scriptPubKey": {"reqSigs": 1, "hex": "a91469f376b9470523615759a0f9e31d656b51bec7ac87", "addresses": ["3BMEXqxQY8nyZwZ1t94JYk4TxbCeA4C9Sy"], "asm": "OP_HASH160 69f376b9470523615759a0f9e31d656b51bec7ac OP_EQUAL", "type": "scripthash"}, "value": 0.1276, "n": 0}, {"scriptPubKey": {"reqSigs": 1, "hex": "76a91412fc4d6ca139d181d790d52c2565a90a962aee3788ac", "addresses": ["12jPQjZF4Qh4aH9wnbMLzo2fvLHGiGusKK"], "asm": "OP_DUP OP_HASH160 12fc4d6ca139d181d790d52c2565a90a962aee37 OP_EQUALVERIFY OP_CHECKSIG", "type": "pubkeyhash"}, "value": 0.0502901, "n": 1}], "hex": "0200000001d690a2084d5e6c2dc93ba883897a4030aeeb996c0e8208b62bfb5f30398a98b9000000006a47304402203b8b836036d549746fd57eee0b916169043d2e1d3e76ba9fb3cc3d7145d5c12102206ce999312fae5566594b421c0db46305fdb07ba1d090aa335658565ae5e74f8801210281a3c56ad78e3e84d5a1d64f454321c28b5f3014c38e90d5aad6d657f06a1f59feffffff02c0b3c2000000000017a91469f376b9470523615759a0f9e31d656b51bec7ac8792bc4c00000000001976a91412fc4d6ca139d181d790d52c2565a90a962aee3788ac10490800", "vin": [{"sequence": 4294967294, "scriptSig": {"hex": "47304402203b8b836036d549746fd57eee0b916169043d2e1d3e76ba9fb3cc3d7145d5c12102206ce999312fae5566594b421c0db46305fdb07ba1d090aa335658565ae5e74f8801210281a3c56ad78e3e84d5a1d64f454321c28b5f3014c38e90d5aad6d657f06a1f59", "asm": "304402203b8b836036d549746fd57eee0b916169043d2e1d3e76ba9fb3cc3d7145d5c12102206ce999312fae5566594b421c0db46305fdb07ba1d090aa335658565ae5e74f88[ALL] 0281a3c56ad78e3e84d5a1d64f454321c28b5f3014c38e90d5aad6d657f06a1f59"}, "vout": 0, "txid": "b9988a39305ffb2bb608820e6c99ebae30407a8983a83bc92d6c5e4d08a290d6"}], "txid": "5c5c95df0045bddbf8a2b871319c24b78810bde363ba05a14f314f706e3a04f5", "blocktime": 1537871767, "version": 2, "confirmations": 11490, "time": 1537871767, "locktime": 542992, "vsize": 223, "size": 223}