{"hash": "e74d9b4ea749753510719c3c67d6b2893e434133f807aba977f11a7d1454c32c", "blockhash": "000000000000000000022b45ed06c6f4ccd3cf7fb5ba4856ebd2e58215665228", "vout": [{"scriptPubKey": {"reqSigs": 1, "hex": "76a9144a01e6127d594522b5370491110581b665096dbd88ac", "addresses": ["17kKH81PFqhmr1kyJLAdCNdUVnyua22KrC"], "asm": "OP_DUP OP_HASH160 4a01e6127d594522b5370491110581b665096dbd OP_EQUALVERIFY OP_CHECKSIG", "type": "pubkeyhash"}, "value": 0.01485917, "n": 0}, {"scriptPubKey": {"reqSigs": 1, "hex": "a914587eea9e18c65bf8e86fc0293de8ca148ba594dd87", "addresses": ["39kwRjeVZ8fsVLzKZvUgSiQgM7gue58u7H"], "asm": "OP_HASH160 587eea9e18c65bf8e86fc0293de8ca148ba594dd OP_EQUAL", "type": "scripthash"}, "value": 0.52259425, "n": 1}], "hex": "02000000000101ffb4e9ad00ce97e7d6dbef4f1de9704ffe40fc7f9df1b8ed385a04147764776b010000001716001428c2ca08b99764228382beca2ddeeb17a49bd030fdffffff025dac1600000000001976a9144a01e6127d594522b5370491110581b665096dbd88ac616a1d030000000017a914587eea9e18c65bf8e86fc0293de8ca148ba594dd870248304502210086046dc231e13f4db7d3377be4bf849ad08496d90625419b1c437f723a9a89ad022056ab3633f3eed536094648e7f8760fb7eeb0c819e3e5626bad4070eb39e7ae5801210252573f7ebf3378a5e9e8f174208bce1426457da19ac468b37cd6a69d0b717eb30b490800", "vin": [{"txinwitness": ["304502210086046dc231e13f4db7d3377be4bf849ad08496d90625419b1c437f723a9a89ad022056ab3633f3eed536094648e7f8760fb7eeb0c819e3e5626bad4070eb39e7ae5801", "0252573f7ebf3378a5e9e8f174208bce1426457da19ac468b37cd6a69d0b717eb3"], "sequence": 4294967293, "scriptSig": {"hex": "16001428c2ca08b99764228382beca2ddeeb17a49bd030", "asm": "001428c2ca08b99764228382beca2ddeeb17a49bd030"}, "vout": 1, "txid": "6b77647714045a38edb8f19d7ffc40fe4f70e91d4fefdbd6e797ce00ade9b4ff"}], "txid": "5c608622a45f6810425415accd8ca5bad0e6ac2fa5cf8422ae25bda88b37c22c", "blocktime": 1537869901, "version": 2, "confirmations": 11523, "time": 1537869901, "locktime": 542987, "vsize": 168, "size": 250}