{"hash": "5c6be42cc4b0e8c0245e10aae79176c353a9c7f4657c60bddcd6307fa092a1fa", "blockhash": "0000000000000000000e13cef7c366c0283d82e591d1acd082e914b08063cdf1", "vout": [{"scriptPubKey": {"reqSigs": 1, "hex": "a914c9843c82ac1dcec8e7697cd6d6292197fa38412c87", "addresses": ["3L4YA3bqUihtfrkLpeaKhutnimDAUeCNrn"], "asm": "OP_HASH160 c9843c82ac1dcec8e7697cd6d6292197fa38412c OP_EQUAL", "type": "scripthash"}, "value": 0.24893188, "n": 0}, {"scriptPubKey": {"reqSigs": 1, "hex": "76a914e8012b25d5f89ee3edf4f0918bf301fbac05d0b188ac", "addresses": ["1N9jAhQaBDA1NNQkxKabn58dkf1MwNyBho"], "asm": "OP_DUP OP_HASH160 e8012b25d5f89ee3edf4f0918bf301fbac05d0b1 OP_EQUALVERIFY OP_CHECKSIG", "type": "pubkeyhash"}, "value": 0.03427, "n": 1}], "hex": "0100000001211e12587578e0998876e7887da634d3463d09f6b31acbeb9b38e6cffdcd736d00000000fdfd0000483045022100b6a78ba8801a34d1a76ed2398e41f2fb527fc25e01385bc743fa8fb2cb4feeb502200e643e5f93e460ddf89b011f2120d8172b53b99f61e60be80d80adb56b9af90601473044022075d86c034899a4d861d937c12e6531898921cb086d6230f358c2a5471e9ceb7b022041d9f1bd3e3d7e649eaf2d78d83084d88453e5af265ff4f53d9078f32c87c9fa014c695221031fda8584cfcec24910deee40a8d631fd83a0fb5eed2344f558f0b8a14ea0e9502102722df65c1ff1eaba7439d83883872e875e13312e075ef092ba3eef12d17d74d821020672b58ca258da7f598b2574a19d00f57163cf859b6c0cbb1f5fd7289cd76f7953aeffffffff0204d77b010000000017a914c9843c82ac1dcec8e7697cd6d6292197fa38412c87b84a3400000000001976a914e8012b25d5f89ee3edf4f0918bf301fbac05d0b188ac00000000", "vin": [{"sequence": 4294967295, "scriptSig": {"hex": "00483045022100b6a78ba8801a34d1a76ed2398e41f2fb527fc25e01385bc743fa8fb2cb4feeb502200e643e5f93e460ddf89b011f2120d8172b53b99f61e60be80d80adb56b9af90601473044022075d86c034899a4d861d937c12e6531898921cb086d6230f358c2a5471e9ceb7b022041d9f1bd3e3d7e649eaf2d78d83084d88453e5af265ff4f53d9078f32c87c9fa014c695221031fda8584cfcec24910deee40a8d631fd83a0fb5eed2344f558f0b8a14ea0e9502102722df65c1ff1eaba7439d83883872e875e13312e075ef092ba3eef12d17d74d821020672b58ca258da7f598b2574a19d00f57163cf859b6c0cbb1f5fd7289cd76f7953ae", "asm": "0 3045022100b6a78ba8801a34d1a76ed2398e41f2fb527fc25e01385bc743fa8fb2cb4feeb502200e643e5f93e460ddf89b011f2120d8172b53b99f61e60be80d80adb56b9af906[ALL] 3044022075d86c034899a4d861d937c12e6531898921cb086d6230f358c2a5471e9ceb7b022041d9f1bd3e3d7e649eaf2d78d83084d88453e5af265ff4f53d9078f32c87c9fa[ALL] 5221031fda8584cfcec24910deee40a8d631fd83a0fb5eed2344f558f0b8a14ea0e9502102722df65c1ff1eaba7439d83883872e875e13312e075ef092ba3eef12d17d74d821020672b58ca258da7f598b2574a19d00f57163cf859b6c0cbb1f5fd7289cd76f7953ae"}, "vout": 0, "txid": "6d73cdfdcfe6389bebcb1ab3f6093d46d334a67d88e7768899e0787558121e21"}], "txid": "5c6be42cc4b0e8c0245e10aae79176c353a9c7f4657c60bddcd6307fa092a1fa", "blocktime": 1537871767, "version": 1, "confirmations": 11495, "time": 1537871767, "locktime": 0, "vsize": 372, "size": 372}