{"hash": "d2af7c8edc518ec771e7d9d5930e86ee9c29cefbc1b8391efa5b4863e2213dd7", "blockhash": "0000000000000000000e13cef7c366c0283d82e591d1acd082e914b08063cdf1", "vout": [{"scriptPubKey": {"reqSigs": 1, "hex": "76a914658bc2e4001cfacc64a3e041943e921b3086737588ac", "addresses": ["1AFvgAG4FN8fhtp3ZtSF8hsmKvPTDiB4RV"], "asm": "OP_DUP OP_HASH160 658bc2e4001cfacc64a3e041943e921b30867375 OP_EQUALVERIFY OP_CHECKSIG", "type": "pubkeyhash"}, "value": 3.282e-05, "n": 0}, {"scriptPubKey": {"reqSigs": 1, "hex": "a914e8db75c900cf08f06518e96d167331f2a4abfb3387", "addresses": ["3NvFbQMAkkqEFj4i1sYPPLkSWzxTFUchjA"], "asm": "OP_HASH160 e8db75c900cf08f06518e96d167331f2a4abfb33 OP_EQUAL", "type": "scripthash"}, "value": 0.00045668, "n": 1}], "hex": "010000000001015df799173baeec68e1a4d466b3876873b80f36f91ec172ab5d6769af7229a81c0000000023220020941cfaff8837763dc1f69ff82b6d6553fdea17a41cfc29a04403293eedd8ccc7ffffffff02d20c0000000000001976a914658bc2e4001cfacc64a3e041943e921b3086737588ac64b200000000000017a914e8db75c900cf08f06518e96d167331f2a4abfb33870400473044022020a909328d4a23ada65832c7fbed137842036d5e0c1545f329c4bbebc3e23848022041b3b86312598b7b4b41d9f10822a06942b1d5e51708067ca5a5809654f4b1f901473044022022a38452d0bdbf50fdcb25b16687bfaf67870294992dc1aded00a1571d99af760220095d83bb7cfe607ede51620c19cc8931cde2e3b61aa7f766b738818458643a030147522102531db3a5883f29bab4241dd0cd726936667bcda445d89bdd22244e828b6993342103148c80a5bdfddb05ff5bcffc397c8ca748d8b435ec6a175bc9d7bfc7fc6f853752ae00000000", "vin": [{"txinwitness": ["", "3044022020a909328d4a23ada65832c7fbed137842036d5e0c1545f329c4bbebc3e23848022041b3b86312598b7b4b41d9f10822a06942b1d5e51708067ca5a5809654f4b1f901", "3044022022a38452d0bdbf50fdcb25b16687bfaf67870294992dc1aded00a1571d99af760220095d83bb7cfe607ede51620c19cc8931cde2e3b61aa7f766b738818458643a0301", "522102531db3a5883f29bab4241dd0cd726936667bcda445d89bdd22244e828b6993342103148c80a5bdfddb05ff5bcffc397c8ca748d8b435ec6a175bc9d7bfc7fc6f853752ae"], "sequence": 4294967295, "scriptSig": {"hex": "220020941cfaff8837763dc1f69ff82b6d6553fdea17a41cfc29a04403293eedd8ccc7", "asm": "0020941cfaff8837763dc1f69ff82b6d6553fdea17a41cfc29a04403293eedd8ccc7"}, "vout": 0, "txid": "1ca82972af69675dab72c11ef9360fb8736887b366d4a4e168ecae3b1799f75d"}], "txid": "5c6e5c2ff9c003bf84a5ccbed61e198283d55360df35eaa9398697ff9ba3228e", "blocktime": 1537871767, "version": 1, "confirmations": 11495, "time": 1537871767, "locktime": 0, "vsize": 207, "size": 372}