{"hash": "5c70b472ba71e5e8086cf88453c30e17388ee0ce6a1b8e3477b1c9ac9b7a4134", "blockhash": "00000000000000000017f5eb5941039fbcee6240d03bc1f2f8e35350df66a1d8", "vout": [{"scriptPubKey": {"reqSigs": 1, "hex": "76a914d243e6abb9a60fbff430b421d2df4b7d59ec186088ac", "addresses": ["1LAnF8h3qMGx3TSwNUHVneBZUEpwE4gu3D"], "asm": "OP_DUP OP_HASH160 d243e6abb9a60fbff430b421d2df4b7d59ec1860 OP_EQUALVERIFY OP_CHECKSIG", "type": "pubkeyhash"}, "value": 0.00077314, "n": 0}, {"scriptPubKey": {"reqSigs": 1, "hex": "76a91447ad76830f8089ba290acff8633e2f98a990d11788ac", "addresses": ["17Xzn36ZzuLxS7Vsw1YQrkg6EJMGrtdALB"], "asm": "OP_DUP OP_HASH160 47ad76830f8089ba290acff8633e2f98a990d117 OP_EQUALVERIFY OP_CHECKSIG", "type": "pubkeyhash"}, "value": 5.46e-06, "n": 1}, {"scriptPubKey": {"type": "nulldata", "hex": "6a146f6d6e69000000000000001f0000079ae8144300", "asm": "OP_RETURN 6f6d6e69000000000000001f0000079ae8144300"}, "value": 0.0, "n": 2}], "hex": "0100000001e488702f975fe369c81a0d019dbd4bb9cc05224743035aecb56734db0b81c48e000000006a47304402200a356c74ac4e1de8f1be9fa0f55cf4f9ed43c763af8f2c34b6fb57cc6773e78202204f3ae89ae65688e51180655ffc3ae588955a43466c55491afcab2ec427dcbb5e01210271977291b74f1f5f5c42157e8aae804664eaaeccfd097918450d37f28fb94d77ffffffff03022e0100000000001976a914d243e6abb9a60fbff430b421d2df4b7d59ec186088ac22020000000000001976a91447ad76830f8089ba290acff8633e2f98a990d11788ac0000000000000000166a146f6d6e69000000000000001f0000079ae814430000000000", "vin": [{"sequence": 4294967295, "scriptSig": {"hex": "47304402200a356c74ac4e1de8f1be9fa0f55cf4f9ed43c763af8f2c34b6fb57cc6773e78202204f3ae89ae65688e51180655ffc3ae588955a43466c55491afcab2ec427dcbb5e01210271977291b74f1f5f5c42157e8aae804664eaaeccfd097918450d37f28fb94d77", "asm": "304402200a356c74ac4e1de8f1be9fa0f55cf4f9ed43c763af8f2c34b6fb57cc6773e78202204f3ae89ae65688e51180655ffc3ae588955a43466c55491afcab2ec427dcbb5e[ALL] 0271977291b74f1f5f5c42157e8aae804664eaaeccfd097918450d37f28fb94d77"}, "vout": 0, "txid": "8ec4810bdb3467b5ec5a0343472205ccb94bbd9d010d1ac869e35f972f7088e4"}], "txid": "5c70b472ba71e5e8086cf88453c30e17388ee0ce6a1b8e3477b1c9ac9b7a4134", "blocktime": 1537874412, "version": 1, "confirmations": 11467, "time": 1537874412, "locktime": 0, "vsize": 256, "size": 256}