{"hash": "bdc0202bfe32271c50e7d7bbfe94ba41bcf3e53909943584b32139a3ed93a739", "blockhash": "0000000000000000001e0dab787dd257d1dbfcb92a98c2207d5e1078be1f4165", "vout": [{"scriptPubKey": {"reqSigs": 1, "hex": "76a9149a1b8f9b1fa2d2297863adb1cb11c71df455684888ac", "addresses": ["1F3r5We2zwNiSzG6GQUTTWnnPMCz2HJbJu"], "asm": "OP_DUP OP_HASH160 9a1b8f9b1fa2d2297863adb1cb11c71df4556848 OP_EQUALVERIFY OP_CHECKSIG", "type": "pubkeyhash"}, "value": 2.725e-05, "n": 0}, {"scriptPubKey": {"reqSigs": 1, "hex": "a9148ddb66c3371910a0ef8f38021cc4094e61e69f3a87", "addresses": ["3Ed62sPENkraPwpovPty9YMFGJ8FtTyv63"], "asm": "OP_HASH160 8ddb66c3371910a0ef8f38021cc4094e61e69f3a OP_EQUAL", "type": "scripthash"}, "value": 0.00021627, "n": 1}], "hex": "010000000001010813661b1bae8b4fbdb1719c15897f9567e0d7f3979732bbd7922eafea17db380100000023220020fdd23d707f55451c4e006c77b5e8df35a185a8e99f9bda70bf0ded7913bb1eb3ffffffff02a50a0000000000001976a9149a1b8f9b1fa2d2297863adb1cb11c71df455684888ac7b5400000000000017a9148ddb66c3371910a0ef8f38021cc4094e61e69f3a87040047304402206815b27c7fcbd9fb8f791b65ab0663701161299165c00955bf25823fdbd8b765022042b8d4854fd3c64c7dd09c69a7794b42cb2bbe59d06cba05f354b5c4f6fad7a701483045022100f91905822130b936bd0da5315b9c3615f472391144c11803fdfea83ea5d55d38022079a1c52bcff60e519dcea40c8fe58149c7a720b49b8008ff597129c0b52e8567014752210286c104577b978160849865bc23f9a6df9b53d41c8ffb486754b97b2a474a181c2103148c80a5bdfddb05ff5bcffc397c8ca748d8b435ec6a175bc9d7bfc7fc6f853752ae00000000", "vin": [{"txinwitness": ["", "304402206815b27c7fcbd9fb8f791b65ab0663701161299165c00955bf25823fdbd8b765022042b8d4854fd3c64c7dd09c69a7794b42cb2bbe59d06cba05f354b5c4f6fad7a701", "3045022100f91905822130b936bd0da5315b9c3615f472391144c11803fdfea83ea5d55d38022079a1c52bcff60e519dcea40c8fe58149c7a720b49b8008ff597129c0b52e856701", "52210286c104577b978160849865bc23f9a6df9b53d41c8ffb486754b97b2a474a181c2103148c80a5bdfddb05ff5bcffc397c8ca748d8b435ec6a175bc9d7bfc7fc6f853752ae"], "sequence": 4294967295, "scriptSig": {"hex": "220020fdd23d707f55451c4e006c77b5e8df35a185a8e99f9bda70bf0ded7913bb1eb3", "asm": "0020fdd23d707f55451c4e006c77b5e8df35a185a8e99f9bda70bf0ded7913bb1eb3"}, "vout": 1, "txid": "38db17eaaf2e92d7bb329797f3d7e067957f89159c71b1bd4f8bae1b1b661308"}], "txid": "5c79b3d6e4655740e5db088e830acfdf7e864e3dba33efb8ed658d7cc12aed31", "blocktime": 1537872475, "version": 1, "confirmations": 11487, "time": 1537872475, "locktime": 0, "vsize": 208, "size": 373}