{"hash": "64d1aed197c8c936453cdee671e587eafe065171510b4383a1dc775f2be4dc2c", "blockhash": "00000000000000000017f5eb5941039fbcee6240d03bc1f2f8e35350df66a1d8", "vout": [{"scriptPubKey": {"reqSigs": 1, "hex": "a9148d4f492831a56f13c0388bc15fe0e66823f08c1a87", "addresses": ["3EaCBTr6xZjW32zvb1VQ7Xue2mwJTDKs9p"], "asm": "OP_HASH160 8d4f492831a56f13c0388bc15fe0e66823f08c1a OP_EQUAL", "type": "scripthash"}, "value": 0.01038104, "n": 0}, {"scriptPubKey": {"reqSigs": 1, "hex": "76a9140a3195c50a139c1268b517078c4818eb7c3cee7288ac", "addresses": ["1vuA9XxA95fff3zonS6wemPTWBvQ16vN9"], "asm": "OP_DUP OP_HASH160 0a3195c50a139c1268b517078c4818eb7c3cee72 OP_EQUALVERIFY OP_CHECKSIG", "type": "pubkeyhash"}, "value": 0.01018285, "n": 1}], "hex": "0200000000010228479f020865028cdb9a34b2df077a79d7e2806dc87bc996d629818bafc54b7d0100000017160014c6325afe01526b104f002125bd63d62914a6c987feffffff848fa87a85a139fdf9c1ac6c21ecbdb50edb510b5400e5e7aa4092a96a4090b5010000001716001497ae2bc74771bb8cd4ffa70428f70e502ffaf2cefeffffff0218d70f000000000017a9148d4f492831a56f13c0388bc15fe0e66823f08c1a87ad890f00000000001976a9140a3195c50a139c1268b517078c4818eb7c3cee7288ac0247304402203db58dd669129cf9ad41e11133f00129a84eac2f399c11a49f0067913c1fd7e502206842fa6e5c68e1e8c61cd21506e05f3fa8f526ff8eba7ed04398fbc9e28094ee01210332fdb8c5b0dc58b24167d44904d7fc18736922645234ce765a928d1d71fb6d2302483045022100c5356facd7f75ac3cec6b0e4bf1aef09b02e6e732dd02f76fc074fb298e5514c02205b1f855944d3d936d0f3020d762810d91fd0c12f45daf3a5d71d1632228e571f012103e8d5f6d2b3b4b32ba42272f549af887a5c414c974a197b7f13a30f6e76369a2515490800", "vin": [{"txinwitness": ["304402203db58dd669129cf9ad41e11133f00129a84eac2f399c11a49f0067913c1fd7e502206842fa6e5c68e1e8c61cd21506e05f3fa8f526ff8eba7ed04398fbc9e28094ee01", "0332fdb8c5b0dc58b24167d44904d7fc18736922645234ce765a928d1d71fb6d23"], "sequence": 4294967294, "scriptSig": {"hex": "160014c6325afe01526b104f002125bd63d62914a6c987", "asm": "0014c6325afe01526b104f002125bd63d62914a6c987"}, "vout": 1, "txid": "7d4bc5af8b8129d696c97bc86d80e2d7797a07dfb2349adb8c026508029f4728"}, {"txinwitness": ["3045022100c5356facd7f75ac3cec6b0e4bf1aef09b02e6e732dd02f76fc074fb298e5514c02205b1f855944d3d936d0f3020d762810d91fd0c12f45daf3a5d71d1632228e571f01", "03e8d5f6d2b3b4b32ba42272f549af887a5c414c974a197b7f13a30f6e76369a25"], "sequence": 4294967294, "scriptSig": {"hex": "16001497ae2bc74771bb8cd4ffa70428f70e502ffaf2ce", "asm": "001497ae2bc74771bb8cd4ffa70428f70e502ffaf2ce"}, "vout": 1, "txid": "b590406aa99240aae7e500540b51db0eb5bdec216cacc1f9fd39a1857aa88f84"}], "txid": "5c81600d0215509654fe32c012774fe6e846d9f75bcc0a792f8f7dcb99cb7988", "blocktime": 1537874412, "version": 2, "confirmations": 11468, "time": 1537874412, "locktime": 542997, "vsize": 259, "size": 421}