{"hash": "5c82436e385f3b8a1f6c934ab79eb083d1b8a21c678c2d543f5b0a039be61c3b", "blockhash": "0000000000000000001f0ddff1eddb255c1121bcd4da4f1bc9a0da00cae72433", "vout": [{"scriptPubKey": {"reqSigs": 1, "hex": "76a914f46d1099161748bc4faf24f32e33cb9a3dff7e8488ac", "addresses": ["1PHQXmL1eVGiK6UWLG6hNFJpevYPfmKWfu"], "asm": "OP_DUP OP_HASH160 f46d1099161748bc4faf24f32e33cb9a3dff7e84 OP_EQUALVERIFY OP_CHECKSIG", "type": "pubkeyhash"}, "value": 0.0781, "n": 0}, {"scriptPubKey": {"reqSigs": 1, "hex": "76a9146345120b46bf88f4617f6a00281701d828a6613a88ac", "addresses": ["1A3te6NYtmBNqVv2r3FmPBTViCKb7HYBT2"], "asm": "OP_DUP OP_HASH160 6345120b46bf88f4617f6a00281701d828a6613a OP_EQUALVERIFY OP_CHECKSIG", "type": "pubkeyhash"}, "value": 0.6930241, "n": 1}], "hex": "01000000015ec7fb6fde0e2933a5c87456e0e478a9ebf7a20a916867bb0b830ff2ca8a3578010000006a47304402206a658950d3265cba41988037486ca06bdd7b915ccb631e24e9ff3bd28f37cd1c02206e3f7eedfe166140d8f77a38fa582695affca14cce3c2673f02269ecfa01f10401210344f6beafda9933c01a06e6384088e81b5139c347d0c7f374c7eac5b6704d5839ffffffff02d02b7700000000001976a914f46d1099161748bc4faf24f32e33cb9a3dff7e8488ac8a782104000000001976a9146345120b46bf88f4617f6a00281701d828a6613a88ac00000000", "vin": [{"sequence": 4294967295, "scriptSig": {"hex": "47304402206a658950d3265cba41988037486ca06bdd7b915ccb631e24e9ff3bd28f37cd1c02206e3f7eedfe166140d8f77a38fa582695affca14cce3c2673f02269ecfa01f10401210344f6beafda9933c01a06e6384088e81b5139c347d0c7f374c7eac5b6704d5839", "asm": "304402206a658950d3265cba41988037486ca06bdd7b915ccb631e24e9ff3bd28f37cd1c02206e3f7eedfe166140d8f77a38fa582695affca14cce3c2673f02269ecfa01f104[ALL] 0344f6beafda9933c01a06e6384088e81b5139c347d0c7f374c7eac5b6704d5839"}, "vout": 1, "txid": "78358acaf20f830bbb6768910aa2f7eba978e4e05674c8a533290ede6ffbc75e"}], "txid": "5c82436e385f3b8a1f6c934ab79eb083d1b8a21c678c2d543f5b0a039be61c3b", "blocktime": 1537872018, "version": 1, "confirmations": 11489, "time": 1537872018, "locktime": 0, "vsize": 225, "size": 225}