{"hash": "219ce7fd26e8aef274bfdec662626ec0a87643307789e95c25af26860702a125", "blockhash": "00000000000000000024a2167bbff67b0be802c0b01cdd79e6331c2be6459f87", "vout": [{"scriptPubKey": {"reqSigs": 1, "hex": "001448792e789f479ea9ae4849bf35ba468351566961", "addresses": ["bc1qfpuju7ylg702ntjgfxlntwjxsdg4v6tpce4p66"], "asm": "0 48792e789f479ea9ae4849bf35ba468351566961", "type": "witness_v0_keyhash"}, "value": 1.477e-05, "n": 0}, {"scriptPubKey": {"reqSigs": 1, "hex": "76a914ba3cdfdc73d70956acdcb54ca9473c5f06dbce9288ac", "addresses": ["1HyjcK6JfgFLjk1WPS5WTSadcrMgzTUaZk"], "asm": "OP_DUP OP_HASH160 ba3cdfdc73d70956acdcb54ca9473c5f06dbce92 OP_EQUALVERIFY OP_CHECKSIG", "type": "pubkeyhash"}, "value": 0.00139464, "n": 1}], "hex": "01000000000101d7513696938cf9c201e878ef38510e57ad36ecc8b6a997b82c955d8b745f3f1a0100000000ffffffff02c50500000000000016001448792e789f479ea9ae4849bf35ba468351566961c8200200000000001976a914ba3cdfdc73d70956acdcb54ca9473c5f06dbce9288ac0247304402200cebb35acbcb5a9f7e0ed34e0a6f337ac2e4621283f8cb59935dab548dccd27d0220175f52f3bddfd344cec4f311bde8264ac95fe1c84507e26065a364d5af14af65012102b2f2c7c496afbcb2b3ac95bde7e9ab6ef34f47b5d336d4b3613e275060a0250c00000000", "vin": [{"txinwitness": ["304402200cebb35acbcb5a9f7e0ed34e0a6f337ac2e4621283f8cb59935dab548dccd27d0220175f52f3bddfd344cec4f311bde8264ac95fe1c84507e26065a364d5af14af6501", "02b2f2c7c496afbcb2b3ac95bde7e9ab6ef34f47b5d336d4b3613e275060a0250c"], "sequence": 4294967295, "scriptSig": {"hex": "", "asm": ""}, "vout": 1, "txid": "1a3f5f748b5d952cb897a9b6c8ec36ad570e5138ef78e801c2f98c93963651d7"}], "txid": "5c87a16fc268bae81e3a1715b52f5ce82b045c763c299db1d77a867cb4d62d97", "blocktime": 1537870564, "version": 1, "confirmations": 11515, "time": 1537870564, "locktime": 0, "vsize": 144, "size": 225}