{"hash": "5c8a783450d16cec93cdde5c2880d057cb6c568d04b6f7974f2911a2ae8ab537", "blockhash": "00000000000000000004ffacab907a6b429b9a5745fa0b75af4234bf69dd7176", "vout": [{"scriptPubKey": {"reqSigs": 1, "hex": "a91469f3758e39cfd8746c259c571e194a51117aed2187", "addresses": ["3BMEXXZqSgiRvxRQiEpkEc6i31kHN28BMR"], "asm": "OP_HASH160 69f3758e39cfd8746c259c571e194a51117aed21 OP_EQUAL", "type": "scripthash"}, "value": 0.01562358, "n": 0}, {"scriptPubKey": {"reqSigs": 1, "hex": "76a91418dea980c3126ee3d07c8a0c6da64eee8e9a437b88ac", "addresses": ["13GVxSUsTjRuhkbfzmoqsgQvSN7o1rpTf5"], "asm": "OP_DUP OP_HASH160 18dea980c3126ee3d07c8a0c6da64eee8e9a437b OP_EQUALVERIFY OP_CHECKSIG", "type": "pubkeyhash"}, "value": 0.07503361, "n": 1}], "hex": "0100000001e870d7501a9ab56e413138377aa4039a765001ea02bb585e9a40dfa8ff8ef64d000000006b483045022100c49675548a3f8f77cd3b302075c957d4e01dee0335edaf29b797fee125c0711f0220111991b7c67e64e91c3943ea3d006eb561ec066fad8983b6ab670aa5adccf0f7012102fc1fd54f2aa160e5ef71b09fe4bc0f40d1b784ca02e0725c2ec58c54c156cb33ffffffff02f6d617000000000017a91469f3758e39cfd8746c259c571e194a51117aed2187017e7200000000001976a91418dea980c3126ee3d07c8a0c6da64eee8e9a437b88ac00000000", "vin": [{"sequence": 4294967295, "scriptSig": {"hex": "483045022100c49675548a3f8f77cd3b302075c957d4e01dee0335edaf29b797fee125c0711f0220111991b7c67e64e91c3943ea3d006eb561ec066fad8983b6ab670aa5adccf0f7012102fc1fd54f2aa160e5ef71b09fe4bc0f40d1b784ca02e0725c2ec58c54c156cb33", "asm": "3045022100c49675548a3f8f77cd3b302075c957d4e01dee0335edaf29b797fee125c0711f0220111991b7c67e64e91c3943ea3d006eb561ec066fad8983b6ab670aa5adccf0f7[ALL] 02fc1fd54f2aa160e5ef71b09fe4bc0f40d1b784ca02e0725c2ec58c54c156cb33"}, "vout": 0, "txid": "4df68effa8df409a5e58bb02ea0150769a03a47a373831416eb59a1a50d770e8"}], "txid": "5c8a783450d16cec93cdde5c2880d057cb6c568d04b6f7974f2911a2ae8ab537", "blocktime": 1537875543, "version": 1, "confirmations": 11464, "time": 1537875543, "locktime": 0, "vsize": 224, "size": 224}