{"hash": "e96e23217506afbb650707612048bb4320609458ce1a426864ebc6bceec6a015", "blockhash": "0000000000000000001cda96e906b7601b7a6fb1a3b62bca570a9e5d8f4b3de1", "vout": [{"scriptPubKey": {"reqSigs": 1, "hex": "76a91428e80d5564b37d56cb4ba6413de67fa08406be8488ac", "addresses": ["14jJ1wDJGntHAUZE9F9wbP1Hfz1NofpaiW"], "asm": "OP_DUP OP_HASH160 28e80d5564b37d56cb4ba6413de67fa08406be84 OP_EQUALVERIFY OP_CHECKSIG", "type": "pubkeyhash"}, "value": 0.003909, "n": 0}, {"scriptPubKey": {"reqSigs": 1, "hex": "0014842917fadccaf1fec14ba297952a661791e01a77", "addresses": ["bc1qss5307kuetclas2t52te22nxz7g7qxnhqe8zdt"], "asm": "0 842917fadccaf1fec14ba297952a661791e01a77", "type": "witness_v0_keyhash"}, "value": 4.548e-05, "n": 1}], "hex": "010000000001017e8b395917437b8e0d38a31c579d9b7e1c33203d12db6568d991fd446c87b6c90200000017160014c7cad04814c8bdfc2df8a726c8af6ebd6fc27918ffffffff02f4f60500000000001976a91428e80d5564b37d56cb4ba6413de67fa08406be8488acc411000000000000160014842917fadccaf1fec14ba297952a661791e01a7702483045022100f89ecc0ab06d713a9d7e206f211183accf5878f22a0d344e19ab518da8ca86f50220108f750d069a39250a08e871e7a9800bcb8d647b26fb0719798779d60f818c6c012102a17fabfdf5fa7fca0ff92589abb1961c3cda136d32a0d34f46bfd0960202342a00000000", "vin": [{"txinwitness": ["3045022100f89ecc0ab06d713a9d7e206f211183accf5878f22a0d344e19ab518da8ca86f50220108f750d069a39250a08e871e7a9800bcb8d647b26fb0719798779d60f818c6c01", "02a17fabfdf5fa7fca0ff92589abb1961c3cda136d32a0d34f46bfd0960202342a"], "sequence": 4294967295, "scriptSig": {"hex": "160014c7cad04814c8bdfc2df8a726c8af6ebd6fc27918", "asm": "0014c7cad04814c8bdfc2df8a726c8af6ebd6fc27918"}, "vout": 2, "txid": "c9b6876c44fd91d96865db123d20331c7e9b9d571ca3380d8e7b431759398b7e"}], "txid": "5c8faa7cd079d5c819a9e4d606d6836e55228edd742dca0321f5f3984a615aa4", "blocktime": 1537873282, "version": 1, "confirmations": 11484, "time": 1537873282, "locktime": 0, "vsize": 167, "size": 249}