{"hash": "5ca768f12c40b81b2289d5c224864fe67cb568ef86f771e123767fc410be7a0e", "blockhash": "00000000000000000018f53835495a110e01622372bf6ae95dc86f2b0ab887b0", "vout": [{"scriptPubKey": {"type": "nulldata", "hex": "6a146f6d6e69000000000000001f00000045bb975300", "asm": "OP_RETURN 6f6d6e69000000000000001f00000045bb975300"}, "value": 0.0, "n": 0}, {"scriptPubKey": {"reqSigs": 1, "hex": "76a914bbf676c726d241beafc244296f7969827012eec788ac", "addresses": ["1J8rcVPwRjJdi1jhk95AsjMfsLBbP7x7pS"], "asm": "OP_DUP OP_HASH160 bbf676c726d241beafc244296f7969827012eec7 OP_EQUALVERIFY OP_CHECKSIG", "type": "pubkeyhash"}, "value": 0.02231611, "n": 1}], "hex": "010000000281fe111a6098c6752c8215f2b30fa5a101339f674561841dfbaa4267fd2b8885010000006b4830450221008b9b8f0b0357338b7f7de218ac66b188146e8125765f6036cf572a483f60eccc02206e092d47616388069990af0aa4b76ac84a8d24f91c2cca3be840c53004f01ce901210225cf0319636d32f9b23ce467cc1ca4808b8071fe0cb87ac5898338c0f4f33269ffffffffcff00d53c61019ca8346361eb0bd1b74e9349859c2858a18da0faec82bb14c25010000006a47304402203426e49030533b033e57d41f651f2e43b6304bcf722a3e01e67a38465625a2da022015987f00c2c33965cb83b4601dabd54bf3ee4b53cfb283f5e457ef2e3783c384012102061af1d6ec220f4ce39a77205368245c29cd0d340edeb4ced8fd2bd0bc788d42ffffffff020000000000000000166a146f6d6e69000000000000001f00000045bb9753003b0d2200000000001976a914bbf676c726d241beafc244296f7969827012eec788ac00000000", "vin": [{"sequence": 4294967295, "scriptSig": {"hex": "4830450221008b9b8f0b0357338b7f7de218ac66b188146e8125765f6036cf572a483f60eccc02206e092d47616388069990af0aa4b76ac84a8d24f91c2cca3be840c53004f01ce901210225cf0319636d32f9b23ce467cc1ca4808b8071fe0cb87ac5898338c0f4f33269", "asm": "30450221008b9b8f0b0357338b7f7de218ac66b188146e8125765f6036cf572a483f60eccc02206e092d47616388069990af0aa4b76ac84a8d24f91c2cca3be840c53004f01ce9[ALL] 0225cf0319636d32f9b23ce467cc1ca4808b8071fe0cb87ac5898338c0f4f33269"}, "vout": 1, "txid": "85882bfd6742aafb1d846145679f3301a1a50fb3f215822c75c698601a11fe81"}, {"sequence": 4294967295, "scriptSig": {"hex": "47304402203426e49030533b033e57d41f651f2e43b6304bcf722a3e01e67a38465625a2da022015987f00c2c33965cb83b4601dabd54bf3ee4b53cfb283f5e457ef2e3783c384012102061af1d6ec220f4ce39a77205368245c29cd0d340edeb4ced8fd2bd0bc788d42", "asm": "304402203426e49030533b033e57d41f651f2e43b6304bcf722a3e01e67a38465625a2da022015987f00c2c33965cb83b4601dabd54bf3ee4b53cfb283f5e457ef2e3783c384[ALL] 02061af1d6ec220f4ce39a77205368245c29cd0d340edeb4ced8fd2bd0bc788d42"}, "vout": 1, "txid": "254cb12bc8ae0fda188a85c2599834e9741bbdb01e364683ca1910c6530df0cf"}], "txid": "5ca768f12c40b81b2289d5c224864fe67cb568ef86f771e123767fc410be7a0e", "blocktime": 1537870928, "version": 1, "confirmations": 11512, "time": 1537870928, "locktime": 0, "vsize": 370, "size": 370}