{"hash": "5ca8a1a2e55174728d18e469e1154b84b1b95ec9025edcea8dcddfc40ea4dcbe", "blockhash": "0000000000000000000e13cef7c366c0283d82e591d1acd082e914b08063cdf1", "vout": [{"scriptPubKey": {"reqSigs": 1, "hex": "76a914a700cdc87ccefe1628a75f20d5e3c75a771d48bd88ac", "addresses": ["1GE2otUXdTWJFNKiH16jcafgc47BmMypzB"], "asm": "OP_DUP OP_HASH160 a700cdc87ccefe1628a75f20d5e3c75a771d48bd OP_EQUALVERIFY OP_CHECKSIG", "type": "pubkeyhash"}, "value": 0.00249492, "n": 0}, {"scriptPubKey": {"reqSigs": 1, "hex": "76a914b8ea4ea3469f7e424f659da627635ca8ab70350388ac", "addresses": ["1Hrk2FDA8gQzU3Y5djzKSdH8uFKFR3dUYE"], "asm": "OP_DUP OP_HASH160 b8ea4ea3469f7e424f659da627635ca8ab703503 OP_EQUALVERIFY OP_CHECKSIG", "type": "pubkeyhash"}, "value": 8.414e-05, "n": 1}], "hex": "01000000023e30e5819a76e359c384822a5154ef270bbaaf37ff564446b13b78989bb7c3ec00000000db0048304502210084094f0dbb77745e7ff038743f94c25116575c54c643a76e472f97e2505876460220192dc78de8d221d370a0a5a0607409af07ac0530151d86cf5f83048a1cb0ed3601483045022100a727748175bc0511dc3c304bb4a914380118ca19cce3931c7257bbd6371803a30220581e2bc5a2cf053c2c487b4d3688e18b4b79a8e38290c5c5c32b1521d7b62e150147522102907a54bed8ad74b3f35638c60114ca240a308cb986f3f2f306178869a8880b61210295bd839cd0d0253c35fe00da99f9e8bb7dfdbf56c4168aee373142204a6c4bcd52aeffffffff586be0e7100f30108f9213f858dfc5c67d797d4ce1acfc5189d20146f2a7d61f010000006a473044022001a2bbe4c390a46671b79b408d39f1eaa25ef445604b11c7ace30fe7b92b012902205b917ab8bbedb7641fa2c6d609d3bae55ee52735fb0226a424528681fec2c44b012102d896539cff8012bf2c4b6a3ec51fda75a1367cd1dca212e87436ca037ac0e7d5ffffffff0294ce0300000000001976a914a700cdc87ccefe1628a75f20d5e3c75a771d48bd88acde200000000000001976a914b8ea4ea3469f7e424f659da627635ca8ab70350388ac00000000", "vin": [{"sequence": 4294967295, "scriptSig": {"hex": "0048304502210084094f0dbb77745e7ff038743f94c25116575c54c643a76e472f97e2505876460220192dc78de8d221d370a0a5a0607409af07ac0530151d86cf5f83048a1cb0ed3601483045022100a727748175bc0511dc3c304bb4a914380118ca19cce3931c7257bbd6371803a30220581e2bc5a2cf053c2c487b4d3688e18b4b79a8e38290c5c5c32b1521d7b62e150147522102907a54bed8ad74b3f35638c60114ca240a308cb986f3f2f306178869a8880b61210295bd839cd0d0253c35fe00da99f9e8bb7dfdbf56c4168aee373142204a6c4bcd52ae", "asm": "0 304502210084094f0dbb77745e7ff038743f94c25116575c54c643a76e472f97e2505876460220192dc78de8d221d370a0a5a0607409af07ac0530151d86cf5f83048a1cb0ed36[ALL] 3045022100a727748175bc0511dc3c304bb4a914380118ca19cce3931c7257bbd6371803a30220581e2bc5a2cf053c2c487b4d3688e18b4b79a8e38290c5c5c32b1521d7b62e15[ALL] 522102907a54bed8ad74b3f35638c60114ca240a308cb986f3f2f306178869a8880b61210295bd839cd0d0253c35fe00da99f9e8bb7dfdbf56c4168aee373142204a6c4bcd52ae"}, "vout": 0, "txid": "ecc3b79b98783bb1464456ff37afba0b27ef54512a8284c359e3769a81e5303e"}, {"sequence": 4294967295, "scriptSig": {"hex": "473044022001a2bbe4c390a46671b79b408d39f1eaa25ef445604b11c7ace30fe7b92b012902205b917ab8bbedb7641fa2c6d609d3bae55ee52735fb0226a424528681fec2c44b012102d896539cff8012bf2c4b6a3ec51fda75a1367cd1dca212e87436ca037ac0e7d5", "asm": "3044022001a2bbe4c390a46671b79b408d39f1eaa25ef445604b11c7ace30fe7b92b012902205b917ab8bbedb7641fa2c6d609d3bae55ee52735fb0226a424528681fec2c44b[ALL] 02d896539cff8012bf2c4b6a3ec51fda75a1367cd1dca212e87436ca037ac0e7d5"}, "vout": 1, "txid": "1fd6a7f24601d28951fcace14c7d797dc6c5df58f813928f10300f10e7e06b58"}], "txid": "5ca8a1a2e55174728d18e469e1154b84b1b95ec9025edcea8dcddfc40ea4dcbe", "blocktime": 1537871767, "version": 1, "confirmations": 11495, "time": 1537871767, "locktime": 0, "vsize": 485, "size": 485}