{"hash": "5caa68b7d791374883d6c862497f4dd89ce5568199b43274fc24029b6e4b7686", "blockhash": "0000000000000000001cda96e906b7601b7a6fb1a3b62bca570a9e5d8f4b3de1", "vout": [{"scriptPubKey": {"reqSigs": 1, "hex": "a91458fc7f9f9b9e3cab7e322e809bcdb84667c804b487", "addresses": ["39oXsL74E2bjWqCXzZX4SuNopYWuo8yc4q"], "asm": "OP_HASH160 58fc7f9f9b9e3cab7e322e809bcdb84667c804b4 OP_EQUAL", "type": "scripthash"}, "value": 0.00702369, "n": 0}, {"scriptPubKey": {"reqSigs": 1, "hex": "76a914afb9b5bd1d7bd659cd6e1205131cef793e383b0688ac", "addresses": ["1H29ivT8nHfoNMMq5WL4NvovwR7tG44gx2"], "asm": "OP_DUP OP_HASH160 afb9b5bd1d7bd659cd6e1205131cef793e383b06 OP_EQUALVERIFY OP_CHECKSIG", "type": "pubkeyhash"}, "value": 0.00806158, "n": 1}], "hex": "0100000001cf48f841fcc9f06ef4fdd9a6877892d7a0059a1d4dd3853cfac0f3a457cbb660010000006a473044022048b23f244aa08bc8754ce12592fa677be4244e5b7cb171d3eeb1e2a3f673777a02206c16cc5af44cf0f4e566bdd40c9f149acb20e17b1486e138ee3cb3640d90a29e012103e3199434e8ff8068062acbdae1844d7f4091d1ca7c67e22e0b6ac8b0860d2b03ffffffff02a1b70a000000000017a91458fc7f9f9b9e3cab7e322e809bcdb84667c804b4870e4d0c00000000001976a914afb9b5bd1d7bd659cd6e1205131cef793e383b0688ac00000000", "vin": [{"sequence": 4294967295, "scriptSig": {"hex": "473044022048b23f244aa08bc8754ce12592fa677be4244e5b7cb171d3eeb1e2a3f673777a02206c16cc5af44cf0f4e566bdd40c9f149acb20e17b1486e138ee3cb3640d90a29e012103e3199434e8ff8068062acbdae1844d7f4091d1ca7c67e22e0b6ac8b0860d2b03", "asm": "3044022048b23f244aa08bc8754ce12592fa677be4244e5b7cb171d3eeb1e2a3f673777a02206c16cc5af44cf0f4e566bdd40c9f149acb20e17b1486e138ee3cb3640d90a29e[ALL] 03e3199434e8ff8068062acbdae1844d7f4091d1ca7c67e22e0b6ac8b0860d2b03"}, "vout": 1, "txid": "60b6cb57a4f3c0fa3c85d34d1d9a05a0d7927887a6d9fdf46ef0c9fc41f848cf"}], "txid": "5caa68b7d791374883d6c862497f4dd89ce5568199b43274fc24029b6e4b7686", "blocktime": 1537873282, "version": 1, "confirmations": 11484, "time": 1537873282, "locktime": 0, "vsize": 223, "size": 223}