{"hash": "5caca6ca50b994f3c34d2f10ca4646b5054572e51ecc524ae4b56d9f5bd4c0e7", "blockhash": "0000000000000000000dcc0f55137456b1a82d3642486a52398922ac4d620174", "vout": [{"scriptPubKey": {"reqSigs": 1, "hex": "76a91460491ecc2b2310326821cb2e94585044b43d617e88ac", "addresses": ["19n7TuQ95SeaBXRSvtDiewf7ozcp3Ky3BB"], "asm": "OP_DUP OP_HASH160 60491ecc2b2310326821cb2e94585044b43d617e OP_EQUALVERIFY OP_CHECKSIG", "type": "pubkeyhash"}, "value": 0.01246776, "n": 0}, {"scriptPubKey": {"reqSigs": 1, "hex": "76a91491c10bcd9d0152867d69c6d6c3243706fe2ed97e88ac", "addresses": ["1EHgEtrTqoiyMyyfJmwn9VrCk6DZJCehRx"], "asm": "OP_DUP OP_HASH160 91c10bcd9d0152867d69c6d6c3243706fe2ed97e OP_EQUALVERIFY OP_CHECKSIG", "type": "pubkeyhash"}, "value": 0.06559285, "n": 1}], "hex": "01000000017f113cd0aebbae5df749de591f1a92d3fce6305b21a78ab447f9920dbae8b659010000006a473044022031a139baeb4e5c687c52f0cec4a19dd85158f64419af341528a6d1776603db580220102865f9432c13838f5f1a10af1659527800977dbe52f3b977147a3ee5b5c5aa012102a3175b27c565f5d57dddbe10e0a9e363cd9d6363e4368a8b87cf5d34cf46cc51ffffffff0238061300000000001976a91460491ecc2b2310326821cb2e94585044b43d617e88ac35166400000000001976a91491c10bcd9d0152867d69c6d6c3243706fe2ed97e88ac00000000", "vin": [{"sequence": 4294967295, "scriptSig": {"hex": "473044022031a139baeb4e5c687c52f0cec4a19dd85158f64419af341528a6d1776603db580220102865f9432c13838f5f1a10af1659527800977dbe52f3b977147a3ee5b5c5aa012102a3175b27c565f5d57dddbe10e0a9e363cd9d6363e4368a8b87cf5d34cf46cc51", "asm": "3044022031a139baeb4e5c687c52f0cec4a19dd85158f64419af341528a6d1776603db580220102865f9432c13838f5f1a10af1659527800977dbe52f3b977147a3ee5b5c5aa[ALL] 02a3175b27c565f5d57dddbe10e0a9e363cd9d6363e4368a8b87cf5d34cf46cc51"}, "vout": 1, "txid": "59b6e8ba0d92f947b48aa7215b30e6fcd3921a1f59de49f75daebbaed03c117f"}], "txid": "5caca6ca50b994f3c34d2f10ca4646b5054572e51ecc524ae4b56d9f5bd4c0e7", "blocktime": 1537870268, "version": 1, "confirmations": 11518, "time": 1537870268, "locktime": 0, "vsize": 225, "size": 225}