{"hash": "5cae3fb693b02d307bac2c7de2d2035ef48fc3ec38b716b474362c07d0f434dc", "blockhash": "0000000000000000001cda96e906b7601b7a6fb1a3b62bca570a9e5d8f4b3de1", "vout": [{"scriptPubKey": {"reqSigs": 1, "hex": "a914f9674a90fe3472c665d15ff0b90c76a3cc8e488087", "addresses": ["3QRjv7WpAdbmTGv7Udi5VhaJNXTviSSRtk"], "asm": "OP_HASH160 f9674a90fe3472c665d15ff0b90c76a3cc8e4880 OP_EQUAL", "type": "scripthash"}, "value": 0.3135426, "n": 0}], "hex": "01000000026900b4b1ae7d301b984eb65d1414e4773c9238eb133d5ce153ddac9bdf507c77010000006a473044022001330c4c3c4b1522f3b9efece1b7a5b0f5bebf32031318031c32f9cf33be38b90220166c1a2f3d01f24df328f657fe816359613e0b5377c8d61e485e628211a377de012102ee2d3ba71ae62bdd30a78c2ccb5b1be11a187ab4b003a99e31413e8828929353ffffffff3fe2612d88dca61ff9c12839a4718cd509948554f55317fefdb63c6bad99f9bd000000006a47304402206c2c6a21464bcdac7f1faa28d5ea8e7e14c497a93b9eef5af481289aa8b751f702205a555d24eb3d088ee8423bba217755af1582b381001710881e59b2cbdb5c46990121026adf16f5d94f02ebd0cb1e4a5f51fb413ce8c0cd8f175dd0e85fb2eaecaa01ceffffffff01946dde010000000017a914f9674a90fe3472c665d15ff0b90c76a3cc8e48808700000000", "vin": [{"sequence": 4294967295, "scriptSig": {"hex": "473044022001330c4c3c4b1522f3b9efece1b7a5b0f5bebf32031318031c32f9cf33be38b90220166c1a2f3d01f24df328f657fe816359613e0b5377c8d61e485e628211a377de012102ee2d3ba71ae62bdd30a78c2ccb5b1be11a187ab4b003a99e31413e8828929353", "asm": "3044022001330c4c3c4b1522f3b9efece1b7a5b0f5bebf32031318031c32f9cf33be38b90220166c1a2f3d01f24df328f657fe816359613e0b5377c8d61e485e628211a377de[ALL] 02ee2d3ba71ae62bdd30a78c2ccb5b1be11a187ab4b003a99e31413e8828929353"}, "vout": 1, "txid": "777c50df9bacdd53e15c3d13eb38923c77e414145db64e981b307daeb1b40069"}, {"sequence": 4294967295, "scriptSig": {"hex": "47304402206c2c6a21464bcdac7f1faa28d5ea8e7e14c497a93b9eef5af481289aa8b751f702205a555d24eb3d088ee8423bba217755af1582b381001710881e59b2cbdb5c46990121026adf16f5d94f02ebd0cb1e4a5f51fb413ce8c0cd8f175dd0e85fb2eaecaa01ce", "asm": "304402206c2c6a21464bcdac7f1faa28d5ea8e7e14c497a93b9eef5af481289aa8b751f702205a555d24eb3d088ee8423bba217755af1582b381001710881e59b2cbdb5c4699[ALL] 026adf16f5d94f02ebd0cb1e4a5f51fb413ce8c0cd8f175dd0e85fb2eaecaa01ce"}, "vout": 0, "txid": "bdf999ad6b3cb6fdfe1753f554859409d58c71a43928c1f91fa6dc882d61e23f"}], "txid": "5cae3fb693b02d307bac2c7de2d2035ef48fc3ec38b716b474362c07d0f434dc", "blocktime": 1537873282, "version": 1, "confirmations": 11484, "time": 1537873282, "locktime": 0, "vsize": 336, "size": 336}