{"hash": "5cb10df1d4f1ce6ac382836c6517e9f333c3eefc0caebfcd680d34a754ecf770", "blockhash": "00000000000000000004ffacab907a6b429b9a5745fa0b75af4234bf69dd7176", "vout": [{"scriptPubKey": {"reqSigs": 1, "hex": "76a9147b255a6803f644e81984d7eb158fe5ae6549268788ac", "addresses": ["1CE8rwNgMBXtLh1LC3osmqK6cCnJAeoKjd"], "asm": "OP_DUP OP_HASH160 7b255a6803f644e81984d7eb158fe5ae65492687 OP_EQUALVERIFY OP_CHECKSIG", "type": "pubkeyhash"}, "value": 5.596e-05, "n": 0}], "hex": "01000000010dc36930acfccfc1e29b7f0e5e7b1b96c4d2588683fe8f334a950f879fbc0244000000006b483045022100e28ef75669b85bc39f6f72ba369264564ab6098250a06739ad582ddf93c02afd02202efe527557261bdefdf237923641681b83a0e0cae15547c7424711f8c341eace012103c67322506a47bd107913025f84df4751cfac2aa420524107430cffc9ea18c99affffffff01dc150000000000001976a9147b255a6803f644e81984d7eb158fe5ae6549268788ac00000000", "vin": [{"sequence": 4294967295, "scriptSig": {"hex": "483045022100e28ef75669b85bc39f6f72ba369264564ab6098250a06739ad582ddf93c02afd02202efe527557261bdefdf237923641681b83a0e0cae15547c7424711f8c341eace012103c67322506a47bd107913025f84df4751cfac2aa420524107430cffc9ea18c99a", "asm": "3045022100e28ef75669b85bc39f6f72ba369264564ab6098250a06739ad582ddf93c02afd02202efe527557261bdefdf237923641681b83a0e0cae15547c7424711f8c341eace[ALL] 03c67322506a47bd107913025f84df4751cfac2aa420524107430cffc9ea18c99a"}, "vout": 0, "txid": "4402bc9f870f954a338ffe838658d2c4961b7b5e0e7f9be2c1cffcac3069c30d"}], "txid": "5cb10df1d4f1ce6ac382836c6517e9f333c3eefc0caebfcd680d34a754ecf770", "blocktime": 1537875543, "version": 1, "confirmations": 11464, "time": 1537875543, "locktime": 0, "vsize": 192, "size": 192}