{"hash": "47b58be228dfe0d59e953f1507eb59d85f9d45554b8b803387b575fc9c5748c7", "blockhash": "00000000000000000017f5eb5941039fbcee6240d03bc1f2f8e35350df66a1d8", "vout": [{"scriptPubKey": {"reqSigs": 1, "hex": "a91430897cc6c9d69f6a2c2f1c651d51f22219f1a4f687", "addresses": ["367f4YWz1VCFaqBqwbTrzwi2b1h2U3w1AF"], "asm": "OP_HASH160 30897cc6c9d69f6a2c2f1c651d51f22219f1a4f6 OP_EQUAL", "type": "scripthash"}, "value": 17.97684504, "n": 0}, {"scriptPubKey": {"reqSigs": 1, "hex": "a91469f3762d62cdf33443dc1ebf41ea6612785e083d87", "addresses": ["3BMEXhMUvby2sAHW5VshBSmDwiU2RWiX7y"], "asm": "OP_HASH160 69f3762d62cdf33443dc1ebf41ea6612785e083d OP_EQUAL", "type": "scripthash"}, "value": 0.06814442, "n": 1}], "hex": "01000000000101d02107535927273fef152e35eef688ddcfed6ecb04f5ddae3004f3b63f3aafb00000000023220020bcf9f822194145acea0f3235f4107b5bf1a91b6b9f8489f63bf79ec29b360913ffffffff02187d266b0000000017a91430897cc6c9d69f6a2c2f1c651d51f22219f1a4f687eafa67000000000017a91469f3762d62cdf33443dc1ebf41ea6612785e083d870400473044022042d173912346d6a70800d3fc134bf0d79df8882322034a2728e79cc77a8bdaca02206e04f931aeaa00204cac909f5dc0ce79cc8f509dff17b77b4e78169ac519b75e01473044022070481b71496a4af2c29ed64d7f4cf37b80d61b5ae651798a9266e3c8c3d8352f02204dfae74cb3822a011c44b90c4a6e6c9f1a1bb16a0788973923a5201c081a2c6701695221026c8f72b9e63db63907115e65d4da86eaae595b22fdc85ec75301bb4adbf203582103806535be3e3920e5eedee92de5714188fd6a784f2bf7b04f87de0b9c3ae1ecdb21024b23bfdce2afcae7e28c42f7f79aa100f22931712c52d7414a526ba494d44a2553ae00000000", "vin": [{"txinwitness": ["", "3044022042d173912346d6a70800d3fc134bf0d79df8882322034a2728e79cc77a8bdaca02206e04f931aeaa00204cac909f5dc0ce79cc8f509dff17b77b4e78169ac519b75e01", "3044022070481b71496a4af2c29ed64d7f4cf37b80d61b5ae651798a9266e3c8c3d8352f02204dfae74cb3822a011c44b90c4a6e6c9f1a1bb16a0788973923a5201c081a2c6701", "5221026c8f72b9e63db63907115e65d4da86eaae595b22fdc85ec75301bb4adbf203582103806535be3e3920e5eedee92de5714188fd6a784f2bf7b04f87de0b9c3ae1ecdb21024b23bfdce2afcae7e28c42f7f79aa100f22931712c52d7414a526ba494d44a2553ae"], "sequence": 4294967295, "scriptSig": {"hex": "220020bcf9f822194145acea0f3235f4107b5bf1a91b6b9f8489f63bf79ec29b360913", "asm": "0020bcf9f822194145acea0f3235f4107b5bf1a91b6b9f8489f63bf79ec29b360913"}, "vout": 0, "txid": "b0af3a3fb6f30430aeddf504cb6eedcfdd88f6ee352e15ef3f272759530721d0"}], "txid": "5cb2cb3c5ea7ff65ecddb7d684c1709e9fe3ffe66b018241b477e601ab6ac3c0", "blocktime": 1537874412, "version": 1, "confirmations": 11467, "time": 1537874412, "locktime": 0, "vsize": 214, "size": 404}