{"hash": "5cbc07447d5debc65882c8f41654d0e0a10e946feb501a71a1ef9caa28d93794", "blockhash": "0000000000000000001f0ddff1eddb255c1121bcd4da4f1bc9a0da00cae72433", "vout": [{"scriptPubKey": {"reqSigs": 1, "hex": "76a914a921f120eef34c26ddb26d191c33556d4b836b6488ac", "addresses": ["1GRHrkBXCYPWTfcfKfCE7fSDhHPkhRG29S"], "asm": "OP_DUP OP_HASH160 a921f120eef34c26ddb26d191c33556d4b836b64 OP_EQUALVERIFY OP_CHECKSIG", "type": "pubkeyhash"}, "value": 0.00158628, "n": 0}, {"scriptPubKey": {"reqSigs": 1, "hex": "76a9148989dab36886246f57ee2050ba480917a6dcc4d288ac", "addresses": ["1DYEiZoBpkfF6b2rzehfuUg1VTDxs1Zb3e"], "asm": "OP_DUP OP_HASH160 8989dab36886246f57ee2050ba480917a6dcc4d2 OP_EQUALVERIFY OP_CHECKSIG", "type": "pubkeyhash"}, "value": 0.022685, "n": 1}], "hex": "01000000012f4252b3c71f4e06c1e25cf8a6cc8a0867c21d120b068bfbb63a9727505cbd96030000006b483045022100a2e822d048e5b9411b523ccd929d5acacdb52a5c57188545806bb8c5cf8533aa02202f1875ecf280b79340b4680684b377e1c02464281fb4f8a9ba5633a9bcec0b65012103cb903c4ba0a7696edbd20038109552fbdfd50c5c5879613002d160ae2971c4f1ffffffff02a46b0200000000001976a914a921f120eef34c26ddb26d191c33556d4b836b6488ac549d2200000000001976a9148989dab36886246f57ee2050ba480917a6dcc4d288ac00000000", "vin": [{"sequence": 4294967295, "scriptSig": {"hex": "483045022100a2e822d048e5b9411b523ccd929d5acacdb52a5c57188545806bb8c5cf8533aa02202f1875ecf280b79340b4680684b377e1c02464281fb4f8a9ba5633a9bcec0b65012103cb903c4ba0a7696edbd20038109552fbdfd50c5c5879613002d160ae2971c4f1", "asm": "3045022100a2e822d048e5b9411b523ccd929d5acacdb52a5c57188545806bb8c5cf8533aa02202f1875ecf280b79340b4680684b377e1c02464281fb4f8a9ba5633a9bcec0b65[ALL] 03cb903c4ba0a7696edbd20038109552fbdfd50c5c5879613002d160ae2971c4f1"}, "vout": 3, "txid": "96bd5c5027973ab6fb8b060b121dc267088acca6f85ce2c1064e1fc7b352422f"}], "txid": "5cbc07447d5debc65882c8f41654d0e0a10e946feb501a71a1ef9caa28d93794", "blocktime": 1537872018, "version": 1, "confirmations": 11489, "time": 1537872018, "locktime": 0, "vsize": 226, "size": 226}