{"hash": "5cc1feffa3ff4df39e6b7ce05aab1aa192338df6440707109a7fffb9626417d1", "blockhash": "0000000000000000000e13cef7c366c0283d82e591d1acd082e914b08063cdf1", "vout": [{"scriptPubKey": {"reqSigs": 1, "hex": "76a9144703e7518831405cecdccc88bd626bf1cf148b6088ac", "addresses": ["17UVer4wBtD2BMJoPFKbegnGfDZUv3zySF"], "asm": "OP_DUP OP_HASH160 4703e7518831405cecdccc88bd626bf1cf148b60 OP_EQUALVERIFY OP_CHECKSIG", "type": "pubkeyhash"}, "value": 0.00787, "n": 0}], "hex": "0100000002bf120e74e53d86f1edd5312cbf1ff5e7b348fa84171d8392bf481bc56090bc7b000000006a4730440220565061463f75fdfd0a8844e7ed35f4661f2c8d90a3e9f629cf38eab32414175702203977e9985cf3f991470285a337341244fafc0c28210a3b6128cf996db30a625d0121025e120d9abbb0c7bba432a06a82304d50a1c8b3cbc1e0e9046e43f015dd6368c5ffffffff7fa7472665bedb1c78163e57e82c5421fd7375914c3f456c417ee471630ac1f7000000006a4730440220700bb886f8833dcb5ec0fcd103c86787dd9620e1d9d3c40cef508e0cbcbc023a02205b44f4b6a8380dfebbfff413a0a5bc8a099a2079df6cc3f7a04cbce1e67404e4012103f00829c3a76e6479fd1427bb1140c133109e86f0f9b472000cd93b366ad37f2dffffffff0138020c00000000001976a9144703e7518831405cecdccc88bd626bf1cf148b6088ac00000000", "vin": [{"sequence": 4294967295, "scriptSig": {"hex": "4730440220565061463f75fdfd0a8844e7ed35f4661f2c8d90a3e9f629cf38eab32414175702203977e9985cf3f991470285a337341244fafc0c28210a3b6128cf996db30a625d0121025e120d9abbb0c7bba432a06a82304d50a1c8b3cbc1e0e9046e43f015dd6368c5", "asm": "30440220565061463f75fdfd0a8844e7ed35f4661f2c8d90a3e9f629cf38eab32414175702203977e9985cf3f991470285a337341244fafc0c28210a3b6128cf996db30a625d[ALL] 025e120d9abbb0c7bba432a06a82304d50a1c8b3cbc1e0e9046e43f015dd6368c5"}, "vout": 0, "txid": "7bbc9060c51b48bf92831d1784fa48b3e7f51fbf2c31d5edf1863de5740e12bf"}, {"sequence": 4294967295, "scriptSig": {"hex": "4730440220700bb886f8833dcb5ec0fcd103c86787dd9620e1d9d3c40cef508e0cbcbc023a02205b44f4b6a8380dfebbfff413a0a5bc8a099a2079df6cc3f7a04cbce1e67404e4012103f00829c3a76e6479fd1427bb1140c133109e86f0f9b472000cd93b366ad37f2d", "asm": "30440220700bb886f8833dcb5ec0fcd103c86787dd9620e1d9d3c40cef508e0cbcbc023a02205b44f4b6a8380dfebbfff413a0a5bc8a099a2079df6cc3f7a04cbce1e67404e4[ALL] 03f00829c3a76e6479fd1427bb1140c133109e86f0f9b472000cd93b366ad37f2d"}, "vout": 0, "txid": "f7c10a6371e47e416c453f4c917573fd21542ce8573e16781cdbbe652647a77f"}], "txid": "5cc1feffa3ff4df39e6b7ce05aab1aa192338df6440707109a7fffb9626417d1", "blocktime": 1537871767, "version": 1, "confirmations": 11494, "time": 1537871767, "locktime": 0, "vsize": 338, "size": 338}