{"hash": "492c93f2ca9ba9064cb4366ac1370fcb1e5b496ada58f7a4acbbd5ff1b069542", "blockhash": "0000000000000000000e13cef7c366c0283d82e591d1acd082e914b08063cdf1", "vout": [{"scriptPubKey": {"reqSigs": 1, "hex": "a914c1f974d79c8e2ff39d91078125995f1123d3dc9c87", "addresses": ["3KNfB6uPWoPj68WPpUU7gPNnojGZxgC7p7"], "asm": "OP_HASH160 c1f974d79c8e2ff39d91078125995f1123d3dc9c OP_EQUAL", "type": "scripthash"}, "value": 0.03032229, "n": 0}, {"scriptPubKey": {"reqSigs": 1, "hex": "a914ee7873c4cbfa7a50c9f614db278908d5c17cf72b87", "addresses": ["3PRw3ND57y3Gsn2J8KudazqZrDRjRdi5JW"], "asm": "OP_HASH160 ee7873c4cbfa7a50c9f614db278908d5c17cf72b OP_EQUAL", "type": "scripthash"}, "value": 0.00055794, "n": 1}], "hex": "02000000000101830de9ded800cee49b1d94b0daf4f8d7b5f4de55781ac2d609fc08b4e3fcf3b101000000171600145e5eea32efb298b61d310bbac0cbe9b951831a36ffffffff02a5442e000000000017a914c1f974d79c8e2ff39d91078125995f1123d3dc9c87f2d900000000000017a914ee7873c4cbfa7a50c9f614db278908d5c17cf72b87024730440220774b36ddbc80343d1f889effa6f246485ee752a308099ff3cc1951e26ce23be6022039292438df0bd6a99a81ef6aadd41b9f3a3c78930bf0919c17ff94e3bf676bde012102eb850bb24fdb10c8b290b099a859d32476b8606d38c3a56cdb81da4816dc43d000000000", "vin": [{"txinwitness": ["30440220774b36ddbc80343d1f889effa6f246485ee752a308099ff3cc1951e26ce23be6022039292438df0bd6a99a81ef6aadd41b9f3a3c78930bf0919c17ff94e3bf676bde01", "02eb850bb24fdb10c8b290b099a859d32476b8606d38c3a56cdb81da4816dc43d0"], "sequence": 4294967295, "scriptSig": {"hex": "1600145e5eea32efb298b61d310bbac0cbe9b951831a36", "asm": "00145e5eea32efb298b61d310bbac0cbe9b951831a36"}, "vout": 1, "txid": "b1f3fce3b408fc09d6c21a7855def4b5d7f8f4dab0941d9be4ce00d8dee90d83"}], "txid": "5cc37827437082b0d3a4da2755b2b2b7dc269c2fb331831072f5fe36af087aaa", "blocktime": 1537871767, "version": 2, "confirmations": 11491, "time": 1537871767, "locktime": 0, "vsize": 166, "size": 247}