{"hash": "8e0e456fe87e29b9fd7bb61d15f98bba86fed43ae5f59dad1352e534c20c60c9", "blockhash": "0000000000000000000e13cef7c366c0283d82e591d1acd082e914b08063cdf1", "vout": [{"scriptPubKey": {"reqSigs": 1, "hex": "76a91452c03f162e23d316d0a853151446b6023cd0913088ac", "addresses": ["18YYiFHoxMRJabZw9aG9wB3zabC9RkLKrg"], "asm": "OP_DUP OP_HASH160 52c03f162e23d316d0a853151446b6023cd09130 OP_EQUALVERIFY OP_CHECKSIG", "type": "pubkeyhash"}, "value": 0.01048249, "n": 0}], "hex": "010000000001047de1bfa59867018e162637dde0bda2cf54ec0cbe3b6a49fe8238585fe753f983000000002322002076ed55addd8c2f83bc0ff2cad796d8aa4d1eca5752dcdde97a8a2e21ff791aaefffffffffaefd560b2a91c39316575b74379bfabe9c14ec3b88339324a88149f28c5471a0000000023220020282a67209e91a4aff01342cc1bb757349d132788e58507422d8477acebc1fa2fffffffff1715b7b148cb350bdd0b25a4fc89533e544c4ab3ad49a019aa54a1b3a17ba0c50f00000023220020eeaec3b783fc93f6721c8765be2ed5e01a42af7e8ff4d63d110fd37340f3cd32ffffffffad073fe5aa8122e7ed5fc5f77dfb35b6fe1a8528384bc154ead12fb18a4a63080000000023220020378e68208fb479fadcbacc3eef8867a1ce792141eac2829622b61cbe5b9f2c81ffffffff01b9fe0f00000000001976a91452c03f162e23d316d0a853151446b6023cd0913088ac04004730440220188ae03e3245d265a2865a85d7d81e169843e11d0e25bd37b7479f58cc44218b022021e1015053051df8e72933dc37498f04a103bb398e266497d021add364dbecd9014730440220225aa12deb850b4a0052e44fc97bdfbc80abac96bf78d9cd02b54e0aac3e379e02206dc17f0c0cd2eafbf4dd52b7f37a3f4978a70a58f247cf4fc2e213157dd42634014752210214fdf08a5c822cf34d78e869ef717117a5473974c64bc9ac64345c3ff95fc3332102883dd3471970bc4a40e11557e0e106afcfe461c50e6f016c0779320d7f7d576852ae0400483045022100fd6ab5fe1ab1ddd14dab17423a47200e2b94808a6410cf9c55741047989d81b40220551f95c769bab05841ebf501ac7c7a4e55785d2cf0a0adbcddae8ec4b7daeb6c0147304402204b4aff3a6f6b3b42c440cd09a8636e4663d96db744fd640e50433c4acd0d224b02204cbf9d199c68d5c3dede303fbde349292bbbeb97d85028210e73956dd5cabcc40147522103546d78e4bd087231ad3db36570627d6efa7d7aceeac7b61467e8e74fb4f286ee2102883dd3471970bc4a40e11557e0e106afcfe461c50e6f016c0779320d7f7d576852ae0400483045022100fd764ba6fd4b23dd5540b51594635985cb42d5ea5427f3843de22bf7123827300220374c26b1059aa102bf6dc1d2ff7e3e7348f6e6f1b33acc413cca24b8ff6deabd01473044022040208477e43edd128e479297f12af9b6f49ec3521cd7231bb9b28c8159494c9f02202ec3925dbcd6fcc24013fe6434b95e8b60a21b25c9a5722018762d8de6629422014752210354c152578d8d4d7bcf334aaa4514d35aa3b868a375d1c4659caf96d5fffe62a22102883dd3471970bc4a40e11557e0e106afcfe461c50e6f016c0779320d7f7d576852ae040047304402204ffe8f5169934786ec90f16ddc77a22d95d22cf4a127eeced96a45a4e931262e02202eea4abef6e5085273cff9a8c9ade50ab3095f8944244291aecb1b14ce8b243a01473044022013075bb8f0d1c57ec44a0db5cacd02b4500aa17416a1a14399c9af5a3d8dfc5c02202c7be7c172c33580b0b6f6ba8b3160ac9080e38ccc11e566578dca77afbff55b0147522102fe94c3acc92fdbf4a787a7f929eb8c91a57b5a7fa14bc6c34f6f06f078b248832102883dd3471970bc4a40e11557e0e106afcfe461c50e6f016c0779320d7f7d576852ae00000000", "vin": [{"txinwitness": ["", "30440220188ae03e3245d265a2865a85d7d81e169843e11d0e25bd37b7479f58cc44218b022021e1015053051df8e72933dc37498f04a103bb398e266497d021add364dbecd901", "30440220225aa12deb850b4a0052e44fc97bdfbc80abac96bf78d9cd02b54e0aac3e379e02206dc17f0c0cd2eafbf4dd52b7f37a3f4978a70a58f247cf4fc2e213157dd4263401", "52210214fdf08a5c822cf34d78e869ef717117a5473974c64bc9ac64345c3ff95fc3332102883dd3471970bc4a40e11557e0e106afcfe461c50e6f016c0779320d7f7d576852ae"], "sequence": 4294967295, "scriptSig": {"hex": "22002076ed55addd8c2f83bc0ff2cad796d8aa4d1eca5752dcdde97a8a2e21ff791aae", "asm": "002076ed55addd8c2f83bc0ff2cad796d8aa4d1eca5752dcdde97a8a2e21ff791aae"}, "vout": 0, "txid": "83f953e75f583882fe496a3bbe0cec54cfa2bde0dd3726168e016798a5bfe17d"}, {"txinwitness": ["", "3045022100fd6ab5fe1ab1ddd14dab17423a47200e2b94808a6410cf9c55741047989d81b40220551f95c769bab05841ebf501ac7c7a4e55785d2cf0a0adbcddae8ec4b7daeb6c01", "304402204b4aff3a6f6b3b42c440cd09a8636e4663d96db744fd640e50433c4acd0d224b02204cbf9d199c68d5c3dede303fbde349292bbbeb97d85028210e73956dd5cabcc401", "522103546d78e4bd087231ad3db36570627d6efa7d7aceeac7b61467e8e74fb4f286ee2102883dd3471970bc4a40e11557e0e106afcfe461c50e6f016c0779320d7f7d576852ae"], "sequence": 4294967295, "scriptSig": {"hex": "220020282a67209e91a4aff01342cc1bb757349d132788e58507422d8477acebc1fa2f", "asm": "0020282a67209e91a4aff01342cc1bb757349d132788e58507422d8477acebc1fa2f"}, "vout": 0, "txid": "1a47c5289f14884a323983b8c34ec1e9abbf7943b7756531391ca9b260d5effa"}, {"txinwitness": ["", "3045022100fd764ba6fd4b23dd5540b51594635985cb42d5ea5427f3843de22bf7123827300220374c26b1059aa102bf6dc1d2ff7e3e7348f6e6f1b33acc413cca24b8ff6deabd01", "3044022040208477e43edd128e479297f12af9b6f49ec3521cd7231bb9b28c8159494c9f02202ec3925dbcd6fcc24013fe6434b95e8b60a21b25c9a5722018762d8de662942201", "52210354c152578d8d4d7bcf334aaa4514d35aa3b868a375d1c4659caf96d5fffe62a22102883dd3471970bc4a40e11557e0e106afcfe461c50e6f016c0779320d7f7d576852ae"], "sequence": 4294967295, "scriptSig": {"hex": "220020eeaec3b783fc93f6721c8765be2ed5e01a42af7e8ff4d63d110fd37340f3cd32", "asm": "0020eeaec3b783fc93f6721c8765be2ed5e01a42af7e8ff4d63d110fd37340f3cd32"}, "vout": 15, "txid": "c5a07ba1b3a154aa19a049adb34a4c543e5389fca4250bdd0b35cb48b1b71517"}, {"txinwitness": ["", "304402204ffe8f5169934786ec90f16ddc77a22d95d22cf4a127eeced96a45a4e931262e02202eea4abef6e5085273cff9a8c9ade50ab3095f8944244291aecb1b14ce8b243a01", "3044022013075bb8f0d1c57ec44a0db5cacd02b4500aa17416a1a14399c9af5a3d8dfc5c02202c7be7c172c33580b0b6f6ba8b3160ac9080e38ccc11e566578dca77afbff55b01", "522102fe94c3acc92fdbf4a787a7f929eb8c91a57b5a7fa14bc6c34f6f06f078b248832102883dd3471970bc4a40e11557e0e106afcfe461c50e6f016c0779320d7f7d576852ae"], "sequence": 4294967295, "scriptSig": {"hex": "220020378e68208fb479fadcbacc3eef8867a1ce792141eac2829622b61cbe5b9f2c81", "asm": "0020378e68208fb479fadcbacc3eef8867a1ce792141eac2829622b61cbe5b9f2c81"}, "vout": 0, "txid": "08634a8ab12fd1ea54c14b3828851afeb635fb7df7c55fede72281aae53f07ad"}], "txid": "5cc7bbd1445353ddbfe11ac75ca7dd87ed6365d628a39cfb0ed1756bc31712a9", "blocktime": 1537871767, "version": 1, "confirmations": 11495, "time": 1537871767, "locktime": 0, "vsize": 567, "size": 1224}