{"hash": "3e469bd84cddf16ffef5ee5891ae17a7e65d3b04b34c9c4136f33f642f42aa4e", "blockhash": "0000000000000000000dcc0f55137456b1a82d3642486a52398922ac4d620174", "vout": [{"scriptPubKey": {"reqSigs": 1, "hex": "76a9148d3c107a0cfe66c84cb95b9d9d9ea1461700d63e88ac", "addresses": ["1DsnEPoZ2QT5HGDUuhRFyrN39G5yeZmWTG"], "asm": "OP_DUP OP_HASH160 8d3c107a0cfe66c84cb95b9d9d9ea1461700d63e OP_EQUALVERIFY OP_CHECKSIG", "type": "pubkeyhash"}, "value": 0.00119, "n": 0}, {"scriptPubKey": {"reqSigs": 1, "hex": "a914627aa52932456d89054bd84f86246af3b71b93a887", "addresses": ["3Afj4stdiLG9EktGrMbm252ySonnhYaz8v"], "asm": "OP_HASH160 627aa52932456d89054bd84f86246af3b71b93a8 OP_EQUAL", "type": "scripthash"}, "value": 0.58456817, "n": 1}], "hex": "01000000000101055d2d4734220094e192a7fcb8fd7fca3a46e3de503ad5c849508959835a082c01000000232200205fdd641234b13964b223bd85ad2a4a667ca2099df3d42a1d3b45706a8d81abf0ffffffff02d8d00100000000001976a9148d3c107a0cfe66c84cb95b9d9d9ea1461700d63e88acf1fa7b030000000017a914627aa52932456d89054bd84f86246af3b71b93a8870400483045022100bfd5fc423e9bc7d2f40e25ef8917af4a6cdf08c6dbd3ac80051493fac475a00f022018d84ead52d5dfc1c47c30ef9758c64f67ef8d24a45b391d9cad09ce5b1e2ce401483045022100fd9bb5aec038d73b0a6cb092030aeb4645a99fc23e5d75ab13982261afb1a4b802207a269937e4f64de672775b8701b895907264ce2a41b90be524010e844d77927e0147522103dcde3832fa56def7b4e783faad1b8af85c3cdd74a5ff4f3c7c216b1075c18da12103c70ae8ded79be1afda73b9ce5ea14a3878908ee160d66a9a717e792bb6db276952ae00000000", "vin": [{"txinwitness": ["", "3045022100bfd5fc423e9bc7d2f40e25ef8917af4a6cdf08c6dbd3ac80051493fac475a00f022018d84ead52d5dfc1c47c30ef9758c64f67ef8d24a45b391d9cad09ce5b1e2ce401", "3045022100fd9bb5aec038d73b0a6cb092030aeb4645a99fc23e5d75ab13982261afb1a4b802207a269937e4f64de672775b8701b895907264ce2a41b90be524010e844d77927e01", "522103dcde3832fa56def7b4e783faad1b8af85c3cdd74a5ff4f3c7c216b1075c18da12103c70ae8ded79be1afda73b9ce5ea14a3878908ee160d66a9a717e792bb6db276952ae"], "sequence": 4294967295, "scriptSig": {"hex": "2200205fdd641234b13964b223bd85ad2a4a667ca2099df3d42a1d3b45706a8d81abf0", "asm": "00205fdd641234b13964b223bd85ad2a4a667ca2099df3d42a1d3b45706a8d81abf0"}, "vout": 1, "txid": "2c085a8359895049c8d53a50dee3463aca7ffdb8fca792e194002234472d5d05"}], "txid": "5cd494cbc49712a18713acb2d5b2e72cf23e0b83eb0fed88db82ff965eb94074", "blocktime": 1537870268, "version": 1, "confirmations": 11518, "time": 1537870268, "locktime": 0, "vsize": 208, "size": 374}