{"hash": "02a90e99fb11eba82398d5369e48ef3aaf60d0939c5627e41331cb32af0213b9", "blockhash": "0000000000000000000dcc0f55137456b1a82d3642486a52398922ac4d620174", "vout": [{"scriptPubKey": {"reqSigs": 1, "hex": "76a914bb197f39495589433d948eb291e598b309376acd88ac", "addresses": ["1J4HuS6WqsyoWu8ShuioAZzZF55z6sbQBB"], "asm": "OP_DUP OP_HASH160 bb197f39495589433d948eb291e598b309376acd OP_EQUALVERIFY OP_CHECKSIG", "type": "pubkeyhash"}, "value": 0.006, "n": 0}, {"scriptPubKey": {"reqSigs": 1, "hex": "a914c9b2d03e291157c4b01afbae71dd1f2d6f1060f387", "addresses": ["3L5VxH53MZUnfMygJPhD7dSRkH2TN1DzG3"], "asm": "OP_HASH160 c9b2d03e291157c4b01afbae71dd1f2d6f1060f3 OP_EQUAL", "type": "scripthash"}, "value": 0.12499165, "n": 1}], "hex": "01000000000101291d5368c8a35322366de7fdf20475df32b516947bb821dafd982f8be205fefd0000000017160014a07aa81f2d38e939e846beee48620fd02b52578fffffffff02c0270900000000001976a914bb197f39495589433d948eb291e598b309376acd88acddb8be000000000017a914c9b2d03e291157c4b01afbae71dd1f2d6f1060f3870247304402200813bb946358b9a472f73f56d166d7ed4f66d58a41874f21ae10b2afbfcc343d02200bae2a005126e1a7fda19f59e1e57ebcadc24b62c278baca1bd95bef37658dbc012103f79624c22e32ac03497850bc71a9f669175723063d274fe423e21e968bd4dd2b00000000", "vin": [{"txinwitness": ["304402200813bb946358b9a472f73f56d166d7ed4f66d58a41874f21ae10b2afbfcc343d02200bae2a005126e1a7fda19f59e1e57ebcadc24b62c278baca1bd95bef37658dbc01", "03f79624c22e32ac03497850bc71a9f669175723063d274fe423e21e968bd4dd2b"], "sequence": 4294967295, "scriptSig": {"hex": "160014a07aa81f2d38e939e846beee48620fd02b52578f", "asm": "0014a07aa81f2d38e939e846beee48620fd02b52578f"}, "vout": 0, "txid": "fdfe05e28b2f98fdda21b87b9416b532df7504f2fde76d362253a3c868531d29"}], "txid": "5cd500d1ecd920484c45c90002afce38a8bdc69e1896e4e8a426b69ccf8c54c3", "blocktime": 1537870268, "version": 1, "confirmations": 11517, "time": 1537870268, "locktime": 0, "vsize": 168, "size": 249}