{"hash": "5cd6fd009105cf8f261d980ff5a64697c41b631cae88f50a4af79a946d230122", "blockhash": "000000000000000000022b45ed06c6f4ccd3cf7fb5ba4856ebd2e58215665228", "vout": [{"scriptPubKey": {"reqSigs": 1, "hex": "76a914d243e6abb9a60fbff430b421d2df4b7d59ec186088ac", "addresses": ["1LAnF8h3qMGx3TSwNUHVneBZUEpwE4gu3D"], "asm": "OP_DUP OP_HASH160 d243e6abb9a60fbff430b421d2df4b7d59ec1860 OP_EQUALVERIFY OP_CHECKSIG", "type": "pubkeyhash"}, "value": 0.00076972, "n": 0}, {"scriptPubKey": {"reqSigs": 1, "hex": "76a9143851f34d13937b673a7d24a1950bb5b21ce94af388ac", "addresses": ["168o1kqNquEJeR9vosUB5fw4eAwcVAgh8P"], "asm": "OP_DUP OP_HASH160 3851f34d13937b673a7d24a1950bb5b21ce94af3 OP_EQUALVERIFY OP_CHECKSIG", "type": "pubkeyhash"}, "value": 5.46e-06, "n": 1}, {"scriptPubKey": {"type": "nulldata", "hex": "6a146f6d6e69000000000000001f0000002918384500", "asm": "OP_RETURN 6f6d6e69000000000000001f0000002918384500"}, "value": 0.0, "n": 2}], "hex": "0100000002d5c78651bd452a99a429adb21fcb8fdac34c90f4fc44a07d86e545eef75724a3020000006a47304402202a742d9d53a58857eeec5a3d1bf855225a90d4a60f83f7f989fad67e46c1687002204fc796b5e521c9deb53a5550ab8478612d5a06bd98f07540947fae8c4388afc9012102b0dc599d23ca3d98161fc2cdf9d102f02ec56b0351784be605fc4136376612abffffffff2ab68f0f3365b6a529aa172a8d6441c00b11ed9f73a00901e9a2c9ef2d59f572000000006a47304402200b742bc12121aa7d789719febee323a716514eb00068d824bf32c36d9dcd99d00220369256d2d32cc9f64aead5e49be55f518cc26a75cb5f26d7f6a82a1bc4eb5c1b01210271977291b74f1f5f5c42157e8aae804664eaaeccfd097918450d37f28fb94d77ffffffff03ac2c0100000000001976a914d243e6abb9a60fbff430b421d2df4b7d59ec186088ac22020000000000001976a9143851f34d13937b673a7d24a1950bb5b21ce94af388ac0000000000000000166a146f6d6e69000000000000001f000000291838450000000000", "vin": [{"sequence": 4294967295, "scriptSig": {"hex": "47304402202a742d9d53a58857eeec5a3d1bf855225a90d4a60f83f7f989fad67e46c1687002204fc796b5e521c9deb53a5550ab8478612d5a06bd98f07540947fae8c4388afc9012102b0dc599d23ca3d98161fc2cdf9d102f02ec56b0351784be605fc4136376612ab", "asm": "304402202a742d9d53a58857eeec5a3d1bf855225a90d4a60f83f7f989fad67e46c1687002204fc796b5e521c9deb53a5550ab8478612d5a06bd98f07540947fae8c4388afc9[ALL] 02b0dc599d23ca3d98161fc2cdf9d102f02ec56b0351784be605fc4136376612ab"}, "vout": 2, "txid": "a32457f7ee45e5867da044fcf4904cc3da8fcb1fb2ad29a4992a45bd5186c7d5"}, {"sequence": 4294967295, "scriptSig": {"hex": "47304402200b742bc12121aa7d789719febee323a716514eb00068d824bf32c36d9dcd99d00220369256d2d32cc9f64aead5e49be55f518cc26a75cb5f26d7f6a82a1bc4eb5c1b01210271977291b74f1f5f5c42157e8aae804664eaaeccfd097918450d37f28fb94d77", "asm": "304402200b742bc12121aa7d789719febee323a716514eb00068d824bf32c36d9dcd99d00220369256d2d32cc9f64aead5e49be55f518cc26a75cb5f26d7f6a82a1bc4eb5c1b[ALL] 0271977291b74f1f5f5c42157e8aae804664eaaeccfd097918450d37f28fb94d77"}, "vout": 0, "txid": "72f5592defc9a2e90109a0739fed110bc041648d2a17aa29a5b665330f8fb62a"}], "txid": "5cd6fd009105cf8f261d980ff5a64697c41b631cae88f50a4af79a946d230122", "blocktime": 1537869901, "version": 1, "confirmations": 11522, "time": 1537869901, "locktime": 0, "vsize": 403, "size": 403}