{"hash": "5cd7e82a488aeb2ec723b2f1f5a00beeeeec4ed2d72345b9f9e4356b6acb840a", "blockhash": "0000000000000000001f0ddff1eddb255c1121bcd4da4f1bc9a0da00cae72433", "vout": [{"scriptPubKey": {"reqSigs": 1, "hex": "76a9146c81c05ebd606ee9ed7769aaf8b92b6f7d4928cb88ac", "addresses": ["1AtjR1MmrcNBYdRNF28j6oEEQC8XHw9HBT"], "asm": "OP_DUP OP_HASH160 6c81c05ebd606ee9ed7769aaf8b92b6f7d4928cb OP_EQUALVERIFY OP_CHECKSIG", "type": "pubkeyhash"}, "value": 0.02290623, "n": 0}, {"scriptPubKey": {"reqSigs": 1, "hex": "76a914a4430c8b283cd80ee00ee53adb3be36886f0a72688ac", "addresses": ["1FyY97AUzTkUyXLzLgsQBGCNjcqWU11GWy"], "asm": "OP_DUP OP_HASH160 a4430c8b283cd80ee00ee53adb3be36886f0a726 OP_EQUALVERIFY OP_CHECKSIG", "type": "pubkeyhash"}, "value": 0.002343, "n": 1}], "hex": "0100000001aaba2e7d937ad8a0dbe5befa5acc67c440f5e97d46992e158eb2791bedf9e53e000000006b483045022100e4e0dc09135fc50a95fa79171c37111dbd6b691ad1d2b602d76b918e1349bf1002202fa77d2eb40d70b2081c65066ff5947808a78fa6cb23e584ebcd97a8339f5511012103d6467917520196b20a005632d49a7fd65336f22800f34aac09c2f7e0f84f3692ffffffff02bff32200000000001976a9146c81c05ebd606ee9ed7769aaf8b92b6f7d4928cb88ac3c930300000000001976a914a4430c8b283cd80ee00ee53adb3be36886f0a72688ac00000000", "vin": [{"sequence": 4294967295, "scriptSig": {"hex": "483045022100e4e0dc09135fc50a95fa79171c37111dbd6b691ad1d2b602d76b918e1349bf1002202fa77d2eb40d70b2081c65066ff5947808a78fa6cb23e584ebcd97a8339f5511012103d6467917520196b20a005632d49a7fd65336f22800f34aac09c2f7e0f84f3692", "asm": "3045022100e4e0dc09135fc50a95fa79171c37111dbd6b691ad1d2b602d76b918e1349bf1002202fa77d2eb40d70b2081c65066ff5947808a78fa6cb23e584ebcd97a8339f5511[ALL] 03d6467917520196b20a005632d49a7fd65336f22800f34aac09c2f7e0f84f3692"}, "vout": 0, "txid": "3ee5f9ed1b79b28e152e99467de9f540c467cc5afabee5dba0d87a937d2ebaaa"}], "txid": "5cd7e82a488aeb2ec723b2f1f5a00beeeeec4ed2d72345b9f9e4356b6acb840a", "blocktime": 1537872018, "version": 1, "confirmations": 11489, "time": 1537872018, "locktime": 0, "vsize": 226, "size": 226}