{"hash": "3f14fb59adea9489f94adad7f8c8c07a216720a8e0a813d68dbc262100a75801", "blockhash": "0000000000000000000dcc0f55137456b1a82d3642486a52398922ac4d620174", "vout": [{"scriptPubKey": {"reqSigs": 1, "hex": "a914ff821e659910ced64779031d568b8ed8fc86131687", "addresses": ["3Qz27GYrYAZSTqrkJZL24qCVBwX7vnrWcy"], "asm": "OP_HASH160 ff821e659910ced64779031d568b8ed8fc861316 OP_EQUAL", "type": "scripthash"}, "value": 0.39151421, "n": 0}, {"scriptPubKey": {"reqSigs": 1, "hex": "a91461abf8ffb10fef8306bec12d9c191f862e606a2c87", "addresses": ["3AbTV29bEGDZfLqwV4gYeY9JZFMLhci67g"], "asm": "OP_HASH160 61abf8ffb10fef8306bec12d9c191f862e606a2c OP_EQUAL", "type": "scripthash"}, "value": 0.26868257, "n": 1}], "hex": "02000000000104b55fbb4c6af647d57be5ddc86bb67e11eff1572f1cdd24240ee66ec439fd81c3010000006b483045022100f5718cd723eb2469da8064a8a48d4a318a541b2877c7b96b91f5bbaf3dec5d890220032d11962cd6eb785d34c7bcffe9d8f55d952064a2e36a1d1228fc5cd29661050121032bc0a399f406ff57a6a5496747fff7fc78daf7bf60e5293c43985a8548dd088bffffffff9efcda31d0127d9fc50acb76c7dcc17b3f97436a96bc2e81174b2304a5116484010000001716001459dd0ffd18cb76a6a4027661426d2bdd06013f0dffffffffd12614bc29d5d551c2b1709f77b114968fbce0041ff1c466f1005663d679b0920100000017160014713f813f84a059f1f24c775e74b13a764a0c9600ffffffff3fff23d82139ed356308d25f8c0c3aa014a0e6dd6cd06c15da0cee42f7b343ea01000000171600143d477e57b3a697c5fa5d6d326051928d8a5895cfffffffff023d6755020000000017a914ff821e659910ced64779031d568b8ed8fc8613168721fa99010000000017a91461abf8ffb10fef8306bec12d9c191f862e606a2c870002483045022100801306bff21a0c6cb808e15978d90d9daaeed4d98240a65874c94cc6c4d6235a022049234fd8901c302241d11f91412cc371a1944878debda8911c8c3dbcd7affe1a01210338f87ad852fc08557f662d59a70698da1be8a8027dac701099a7a606a39f23e4024730440220625627f27567a825b0ba2e144d29588b79b3e2321006d13c9a9795eb0586b0d902207454e59adc9b38fb29e80ee9f008e069b713d1592a01f7fbbb06ee3f3fa69c4d012103c364cff6a5f59c6938f2ec5e29a2e5ff67bc704690aae235780bd7dec7e66b3102473044022046fa5a84894c4d842d21252af2630cc9165cf80913e853a3a0f9df4cff4c55f402201b011af028ab3803fe91acdc84b6f25a07b0c8e0a8fb591cb98675c9e6842ff7012102fae126fd7e561fc2d5821ae301c703da37320670f9a63caac6ac21e34d9517b500000000", "vin": [{"sequence": 4294967295, "scriptSig": {"hex": "483045022100f5718cd723eb2469da8064a8a48d4a318a541b2877c7b96b91f5bbaf3dec5d890220032d11962cd6eb785d34c7bcffe9d8f55d952064a2e36a1d1228fc5cd29661050121032bc0a399f406ff57a6a5496747fff7fc78daf7bf60e5293c43985a8548dd088b", "asm": "3045022100f5718cd723eb2469da8064a8a48d4a318a541b2877c7b96b91f5bbaf3dec5d890220032d11962cd6eb785d34c7bcffe9d8f55d952064a2e36a1d1228fc5cd2966105[ALL] 032bc0a399f406ff57a6a5496747fff7fc78daf7bf60e5293c43985a8548dd088b"}, "vout": 1, "txid": "c381fd39c46ee60e2424dd1c2f57f1ef117eb66bc8dde57bd547f66a4cbb5fb5"}, {"txinwitness": ["3045022100801306bff21a0c6cb808e15978d90d9daaeed4d98240a65874c94cc6c4d6235a022049234fd8901c302241d11f91412cc371a1944878debda8911c8c3dbcd7affe1a01", "0338f87ad852fc08557f662d59a70698da1be8a8027dac701099a7a606a39f23e4"], "sequence": 4294967295, "scriptSig": {"hex": "16001459dd0ffd18cb76a6a4027661426d2bdd06013f0d", "asm": "001459dd0ffd18cb76a6a4027661426d2bdd06013f0d"}, "vout": 1, "txid": "846411a504234b17812ebc966a43973f7bc1dcc776cb0ac59f7d12d031dafc9e"}, {"txinwitness": ["30440220625627f27567a825b0ba2e144d29588b79b3e2321006d13c9a9795eb0586b0d902207454e59adc9b38fb29e80ee9f008e069b713d1592a01f7fbbb06ee3f3fa69c4d01", "03c364cff6a5f59c6938f2ec5e29a2e5ff67bc704690aae235780bd7dec7e66b31"], "sequence": 4294967295, "scriptSig": {"hex": "160014713f813f84a059f1f24c775e74b13a764a0c9600", "asm": "0014713f813f84a059f1f24c775e74b13a764a0c9600"}, "vout": 1, "txid": "92b079d6635600f166c4f11f04e0bc8f9614b1779f70b1c251d5d529bc1426d1"}, {"txinwitness": ["3044022046fa5a84894c4d842d21252af2630cc9165cf80913e853a3a0f9df4cff4c55f402201b011af028ab3803fe91acdc84b6f25a07b0c8e0a8fb591cb98675c9e6842ff701", "02fae126fd7e561fc2d5821ae301c703da37320670f9a63caac6ac21e34d9517b5"], "sequence": 4294967295, "scriptSig": {"hex": "1600143d477e57b3a697c5fa5d6d326051928d8a5895cf", "asm": "00143d477e57b3a697c5fa5d6d326051928d8a5895cf"}, "vout": 1, "txid": "ea43b3f742ee0cda156cd06cdde6a014a03a0c8c5fd2086335ed3921d823ff3f"}], "txid": "5cdbd344a21605f9659f4a4d2a48ef7803e21bf57199fbde500975e050d1131f", "blocktime": 1537870268, "version": 2, "confirmations": 11516, "time": 1537870268, "locktime": 0, "vsize": 496, "size": 739}