{"hash": "e40c1a9a2390f852baf589e53358cca5c569696d0fc5254d0378b2f49aa5e767", "blockhash": "0000000000000000000dcc0f55137456b1a82d3642486a52398922ac4d620174", "vout": [{"scriptPubKey": {"reqSigs": 1, "hex": "a9140083b90d424c95cbb9f48e12e62eb2ce74177e0187", "addresses": ["31jjioqmWJSri3dEfun65p4gDuR9xXi8Pk"], "asm": "OP_HASH160 0083b90d424c95cbb9f48e12e62eb2ce74177e01 OP_EQUAL", "type": "scripthash"}, "value": 0.00120662, "n": 0}, {"scriptPubKey": {"reqSigs": 1, "hex": "a91408c364340a91e77e4376b26fdad3b5aedc5661f787", "addresses": ["32VMQ7Th4qGhbDYY68FZrfSF9hTbsPivgt"], "asm": "OP_HASH160 08c364340a91e77e4376b26fdad3b5aedc5661f7 OP_EQUAL", "type": "scripthash"}, "value": 0.08204635, "n": 1}], "hex": "0100000000010106d97055d540ba0e6eae90dc424a2ed373e0bf0a72395fe447bef7d2227c0cd3010000002322002027561ef61439ff4994ea3793249bbb358319edb59fff63c1eeada48f299e81b5ffffffff0256d701000000000017a9140083b90d424c95cbb9f48e12e62eb2ce74177e01875b317d000000000017a91408c364340a91e77e4376b26fdad3b5aedc5661f78704004730440220736ea32acdb9134c06bfc3787558244928024b4a84a794b36fe5bc43441106ed02201e7ae20b3ab9832e4aab3d422ba84d27d25bfecf48557a23d86a7febc2de319401483045022100de881ab72443329b4cac991f3cb8d60d0b010a3876e7e0f304d2bb8207f6f628022051e9671c7bcf8817c3b0ccff9e332254a903901bcac635a1957380890d7ecac00147522102f484437eae67e7d1f9cf7235bd52510c99f379408a1f6fe737011d4bc259358a2103871fc2ca08e6950b38867e8e6a0e94ee625223d3aa0df5c65f414c6d784467e252ae00000000", "vin": [{"txinwitness": ["", "30440220736ea32acdb9134c06bfc3787558244928024b4a84a794b36fe5bc43441106ed02201e7ae20b3ab9832e4aab3d422ba84d27d25bfecf48557a23d86a7febc2de319401", "3045022100de881ab72443329b4cac991f3cb8d60d0b010a3876e7e0f304d2bb8207f6f628022051e9671c7bcf8817c3b0ccff9e332254a903901bcac635a1957380890d7ecac001", "522102f484437eae67e7d1f9cf7235bd52510c99f379408a1f6fe737011d4bc259358a2103871fc2ca08e6950b38867e8e6a0e94ee625223d3aa0df5c65f414c6d784467e252ae"], "sequence": 4294967295, "scriptSig": {"hex": "22002027561ef61439ff4994ea3793249bbb358319edb59fff63c1eeada48f299e81b5", "asm": "002027561ef61439ff4994ea3793249bbb358319edb59fff63c1eeada48f299e81b5"}, "vout": 1, "txid": "d30c7c22d2f7be47e45f39720abfe073d32e4a42dc90ae6e0eba40d55570d906"}], "txid": "5cf99106552c56177c78b8c0a99f733d154eff671b80743ca4a6f4d9259cc721", "blocktime": 1537870268, "version": 1, "confirmations": 11518, "time": 1537870268, "locktime": 0, "vsize": 206, "size": 371}