{"hash": "5cfffd6a165e166edf4696733899d6f7ce1c1ce5b1502e2e47c55f35f78998a3", "blockhash": "0000000000000000000e13cef7c366c0283d82e591d1acd082e914b08063cdf1", "vout": [{"scriptPubKey": {"reqSigs": 1, "hex": "76a914d243e6abb9a60fbff430b421d2df4b7d59ec186088ac", "addresses": ["1LAnF8h3qMGx3TSwNUHVneBZUEpwE4gu3D"], "asm": "OP_DUP OP_HASH160 d243e6abb9a60fbff430b421d2df4b7d59ec1860 OP_EQUALVERIFY OP_CHECKSIG", "type": "pubkeyhash"}, "value": 0.00076972, "n": 0}, {"scriptPubKey": {"reqSigs": 1, "hex": "76a9143851f34d13937b673a7d24a1950bb5b21ce94af388ac", "addresses": ["168o1kqNquEJeR9vosUB5fw4eAwcVAgh8P"], "asm": "OP_DUP OP_HASH160 3851f34d13937b673a7d24a1950bb5b21ce94af3 OP_EQUALVERIFY OP_CHECKSIG", "type": "pubkeyhash"}, "value": 5.46e-06, "n": 1}, {"scriptPubKey": {"type": "nulldata", "hex": "6a146f6d6e69000000000000001f000000c93617693f", "asm": "OP_RETURN 6f6d6e69000000000000001f000000c93617693f"}, "value": 0.0, "n": 2}], "hex": "010000000203e3b6c73d0002499544baba8ad3f6f1ce2262715eec3d9dd632c5b393a692d3010000006b48304502210088087886c70a7c72f7d1a7429e9b861d2fbbab886752091092478136e2331b670220077d6312d38fa680916a272ca4707a38dc315bc3b35f60050b17f11758ab290e0121031d375742d8178d0c037ab1c787ce5c37fabc2cea0db9539b8884aac67bf641cbffffffff7fb49add222a79b6a31ddb0cab62cac9425ef7da535a12f494fe4e8856a68b20000000006a47304402206cc57b899e47efae52e5d51d6850c7013dd19a0832ddd796404e58367ca1465702201769b86ae066722ea877051ea71ab3ce24d838dbadd7286a6f45a2e5c9a3093101210271977291b74f1f5f5c42157e8aae804664eaaeccfd097918450d37f28fb94d77ffffffff03ac2c0100000000001976a914d243e6abb9a60fbff430b421d2df4b7d59ec186088ac22020000000000001976a9143851f34d13937b673a7d24a1950bb5b21ce94af388ac0000000000000000166a146f6d6e69000000000000001f000000c93617693f00000000", "vin": [{"sequence": 4294967295, "scriptSig": {"hex": "48304502210088087886c70a7c72f7d1a7429e9b861d2fbbab886752091092478136e2331b670220077d6312d38fa680916a272ca4707a38dc315bc3b35f60050b17f11758ab290e0121031d375742d8178d0c037ab1c787ce5c37fabc2cea0db9539b8884aac67bf641cb", "asm": "304502210088087886c70a7c72f7d1a7429e9b861d2fbbab886752091092478136e2331b670220077d6312d38fa680916a272ca4707a38dc315bc3b35f60050b17f11758ab290e[ALL] 031d375742d8178d0c037ab1c787ce5c37fabc2cea0db9539b8884aac67bf641cb"}, "vout": 1, "txid": "d392a693b3c532d69d3dec5e716222cef1f6d38ababa44954902003dc7b6e303"}, {"sequence": 4294967295, "scriptSig": {"hex": "47304402206cc57b899e47efae52e5d51d6850c7013dd19a0832ddd796404e58367ca1465702201769b86ae066722ea877051ea71ab3ce24d838dbadd7286a6f45a2e5c9a3093101210271977291b74f1f5f5c42157e8aae804664eaaeccfd097918450d37f28fb94d77", "asm": "304402206cc57b899e47efae52e5d51d6850c7013dd19a0832ddd796404e58367ca1465702201769b86ae066722ea877051ea71ab3ce24d838dbadd7286a6f45a2e5c9a30931[ALL] 0271977291b74f1f5f5c42157e8aae804664eaaeccfd097918450d37f28fb94d77"}, "vout": 0, "txid": "208ba656884efe94f4125a53daf75e42c9ca62ab0cdb1da3b6792a22dd9ab47f"}], "txid": "5cfffd6a165e166edf4696733899d6f7ce1c1ce5b1502e2e47c55f35f78998a3", "blocktime": 1537871767, "version": 1, "confirmations": 11491, "time": 1537871767, "locktime": 0, "vsize": 404, "size": 404}