{"hash": "5d068210cc42a967ffc79bc228a0a368f18f2ff133221f906130fb2e58e9abf1", "blockhash": "0000000000000000001cda96e906b7601b7a6fb1a3b62bca570a9e5d8f4b3de1", "vout": [{"scriptPubKey": {"reqSigs": 1, "hex": "76a9143e097dd66db7e4248126bcc09fd3ef39160b5ebc88ac", "addresses": ["16f2GNw8v6DfWaLBC3uZw3rkzKmEBNTo6A"], "asm": "OP_DUP OP_HASH160 3e097dd66db7e4248126bcc09fd3ef39160b5ebc OP_EQUALVERIFY OP_CHECKSIG", "type": "pubkeyhash"}, "value": 0.00079399, "n": 0}, {"scriptPubKey": {"reqSigs": 1, "hex": "76a91491e0ecb10dea5890f68bfc3026c1f6ad89e4462b88ac", "addresses": ["1EJLRrEwsnpSFnhpjF2D7iYaPiumuvBwDH"], "asm": "OP_DUP OP_HASH160 91e0ecb10dea5890f68bfc3026c1f6ad89e4462b OP_EQUALVERIFY OP_CHECKSIG", "type": "pubkeyhash"}, "value": 0.000318, "n": 1}], "hex": "01000000019a441e00dfcd52601e19f187f321aedbdc4f981f70704a86b39b6499d9210a3d000000006b483045022100f9ad5b175c2ca097ba817cdd76b0992188d38c50dc0a9e2e1b22d0374d85e11602205dd4110a4b163ae951947675ee82d4e7ec3191e97fbfd9f24550c9369e4674cc0121033e116d697780b6f74984e08afa63120743e22a8a3c17752774f2a25b828d4c0effffffff0227360100000000001976a9143e097dd66db7e4248126bcc09fd3ef39160b5ebc88ac387c0000000000001976a91491e0ecb10dea5890f68bfc3026c1f6ad89e4462b88ac00000000", "vin": [{"sequence": 4294967295, "scriptSig": {"hex": "483045022100f9ad5b175c2ca097ba817cdd76b0992188d38c50dc0a9e2e1b22d0374d85e11602205dd4110a4b163ae951947675ee82d4e7ec3191e97fbfd9f24550c9369e4674cc0121033e116d697780b6f74984e08afa63120743e22a8a3c17752774f2a25b828d4c0e", "asm": "3045022100f9ad5b175c2ca097ba817cdd76b0992188d38c50dc0a9e2e1b22d0374d85e11602205dd4110a4b163ae951947675ee82d4e7ec3191e97fbfd9f24550c9369e4674cc[ALL] 033e116d697780b6f74984e08afa63120743e22a8a3c17752774f2a25b828d4c0e"}, "vout": 0, "txid": "3d0a21d999649bb3864a70701f984fdcdbae21f387f1191e6052cddf001e449a"}], "txid": "5d068210cc42a967ffc79bc228a0a368f18f2ff133221f906130fb2e58e9abf1", "blocktime": 1537873282, "version": 1, "confirmations": 11484, "time": 1537873282, "locktime": 0, "vsize": 226, "size": 226}