{"hash": "f8661289411f2358dcf43c92bf2840021bea2bdcc7ae58633a14bd7da33069a8", "blockhash": "0000000000000000000baef3f32e3676a92c3b2e5da21b426e4f302fc371ce76", "vout": [{"scriptPubKey": {"reqSigs": 1, "hex": "a9148f93cb0221ef2978516be9d8b63212f7a7cba82f87", "addresses": ["3EnBbp847Anms2MxpMg3Bv1XoY3rhPohWb"], "asm": "OP_HASH160 8f93cb0221ef2978516be9d8b63212f7a7cba82f OP_EQUAL", "type": "scripthash"}, "value": 0.00997427, "n": 0}, {"scriptPubKey": {"reqSigs": 1, "hex": "76a914dfa9b3978b511e7949d4c9b14b6edd6a791c1a9888ac", "addresses": ["1MPcyr9F5tWb6w9uYzBMyyXshyPqyv77j9"], "asm": "OP_DUP OP_HASH160 dfa9b3978b511e7949d4c9b14b6edd6a791c1a98 OP_EQUALVERIFY OP_CHECKSIG", "type": "pubkeyhash"}, "value": 0.009, "n": 1}], "hex": "020000000001031125f8eccbb047b8c82d74d10d402a7482a01dc0e5b29ef4a5e639c5d97f8f88030000006b483045022100ad71048323530e035803c40bdf65fd8e5e9d5dcd7e927fbf3f050ccef7077abd0220761db953e66ff2d85f226210a768ac562e9b5c50b7a2d11ee8ddbc5fe525f6250121021be69eb522c26b22f6ec2288a87c3366e19531bc4510fde9785f414b5746cb7cfeffffffb7ad33cc3ba552348136d3154dd19d51a8c7bd3390da380e3cafd1fa797b73853508000017160014689c6845b69b9360c9cea4afa0bf4cb155a9db26feffffffbcacb200d70c07446a8f6f93266e753480f1f0805ffc9dffd708fbcdabfd227e000000006a4730440220622544cee1452d7238944bae55677f2e898310c72d538171999fa10b0d244cc00220620bf4c18c113afaefaeaebbeb161561a7ac08506c52ae2df13b427dbfc7a5f9012102eed57f19e96de1cae00ae31ff4d778252034a2de691a1d203019a09f21e1b87bfeffffff0233380f000000000017a9148f93cb0221ef2978516be9d8b63212f7a7cba82f87a0bb0d00000000001976a914dfa9b3978b511e7949d4c9b14b6edd6a791c1a9888ac000247304402207b4cc2c3a194bc0308d44ea8664382045e06b4b5a8e77aa4115e2488d041d090022044ef28a811376822d23d616a4eb0681225dbd693c63bbe63992ae1fab0e88526012102cf03def70c75cce4a296a178c533c7e825a32a252466745d4d8668c1ea9488660017490800", "vin": [{"sequence": 4294967294, "scriptSig": {"hex": "483045022100ad71048323530e035803c40bdf65fd8e5e9d5dcd7e927fbf3f050ccef7077abd0220761db953e66ff2d85f226210a768ac562e9b5c50b7a2d11ee8ddbc5fe525f6250121021be69eb522c26b22f6ec2288a87c3366e19531bc4510fde9785f414b5746cb7c", "asm": "3045022100ad71048323530e035803c40bdf65fd8e5e9d5dcd7e927fbf3f050ccef7077abd0220761db953e66ff2d85f226210a768ac562e9b5c50b7a2d11ee8ddbc5fe525f625[ALL] 021be69eb522c26b22f6ec2288a87c3366e19531bc4510fde9785f414b5746cb7c"}, "vout": 3, "txid": "888f7fd9c539e6a5f49eb2e5c01da082742a400dd1742dc8b847b0cbecf82511"}, {"txinwitness": ["304402207b4cc2c3a194bc0308d44ea8664382045e06b4b5a8e77aa4115e2488d041d090022044ef28a811376822d23d616a4eb0681225dbd693c63bbe63992ae1fab0e8852601", "02cf03def70c75cce4a296a178c533c7e825a32a252466745d4d8668c1ea948866"], "sequence": 4294967294, "scriptSig": {"hex": "160014689c6845b69b9360c9cea4afa0bf4cb155a9db26", "asm": "0014689c6845b69b9360c9cea4afa0bf4cb155a9db26"}, "vout": 2101, "txid": "85737b79fad1af3c0e38da9033bdc7a8519dd14d15d336813452a53bcc33adb7"}, {"sequence": 4294967294, "scriptSig": {"hex": "4730440220622544cee1452d7238944bae55677f2e898310c72d538171999fa10b0d244cc00220620bf4c18c113afaefaeaebbeb161561a7ac08506c52ae2df13b427dbfc7a5f9012102eed57f19e96de1cae00ae31ff4d778252034a2de691a1d203019a09f21e1b87b", "asm": "30440220622544cee1452d7238944bae55677f2e898310c72d538171999fa10b0d244cc00220620bf4c18c113afaefaeaebbeb161561a7ac08506c52ae2df13b427dbfc7a5f9[ALL] 02eed57f19e96de1cae00ae31ff4d778252034a2de691a1d203019a09f21e1b87b"}, "vout": 0, "txid": "7e22fdabcdfb08d7ff9dfc5f80f0f18034756e26936f8f6a44070cd700b2acbc"}], "txid": "5d06c974c8f92d8a1f414afea9e6e2d4e7d83e136bfe3eb0de57c189d89a4752", "blocktime": 1537876114, "version": 2, "confirmations": 11460, "time": 1537876114, "locktime": 542999, "vsize": 463, "size": 546}