{"hash": "a241603172478d46a6bee4a28672ee5e597ad28ad4dfb02ec534fc2c53716f93", "blockhash": "0000000000000000001e0dab787dd257d1dbfcb92a98c2207d5e1078be1f4165", "vout": [{"scriptPubKey": {"reqSigs": 1, "hex": "76a91490dc0343d096cccba0b7e9918ce4ff77118e828a88ac", "addresses": ["1ECwsNuYqUGarANXkApCToJyaEDhSa3Hyt"], "asm": "OP_DUP OP_HASH160 90dc0343d096cccba0b7e9918ce4ff77118e828a OP_EQUALVERIFY OP_CHECKSIG", "type": "pubkeyhash"}, "value": 0.06684969, "n": 0}, {"scriptPubKey": {"reqSigs": 1, "hex": "76a914d38f505e1e0950848308bf35d614010b6352c35388ac", "addresses": ["1LHdG6yiy8Zqy4GttgonzKEZo5JCJFMZZr"], "asm": "OP_DUP OP_HASH160 d38f505e1e0950848308bf35d614010b6352c353 OP_EQUALVERIFY OP_CHECKSIG", "type": "pubkeyhash"}, "value": 0.02932259, "n": 1}, {"scriptPubKey": {"reqSigs": 1, "hex": "a9148f474ca639ca6501a2d10568a8b89c4421a6cd3a87", "addresses": ["3EkbxwnmgBjCFRQcMa4pFy5KdycKNbFG3Z"], "asm": "OP_HASH160 8f474ca639ca6501a2d10568a8b89c4421a6cd3a OP_EQUAL", "type": "scripthash"}, "value": 0.98062211, "n": 2}, {"scriptPubKey": {"reqSigs": 1, "hex": "a91469f373a840f144680da2582fd73478382b98f52687", "addresses": ["3BMEX1gcQwprZagW8FCNZaTG8oFyiFTnxR"], "asm": "OP_HASH160 69f373a840f144680da2582fd73478382b98f526 OP_EQUAL", "type": "scripthash"}, "value": 0.06652657, "n": 3}, {"scriptPubKey": {"reqSigs": 1, "hex": "a91469f373d87e696613a04eb19fc54d372b5cb1423c87", "addresses": ["3BMEX4efFKh4ttaG1vtu1bkT1TEgC1JURP"], "asm": "OP_HASH160 69f373d87e696613a04eb19fc54d372b5cb1423c OP_EQUAL", "type": "scripthash"}, "value": 0.04068819, "n": 4}, {"scriptPubKey": {"reqSigs": 1, "hex": "a91469f37632953d6a4e9524a8981bc0628dd7bd49b287", "addresses": ["3BMEXhg1y2C21s6JGUSEenLXNSh5xi64cJ"], "asm": "OP_HASH160 69f37632953d6a4e9524a8981bc0628dd7bd49b2 OP_EQUAL", "type": "scripthash"}, "value": 0.01323505, "n": 5}, {"scriptPubKey": {"reqSigs": 1, "hex": "a91469f3766f4ce9cd91cb42ca78ffdacd04604f25ff87", "addresses": ["3BMEXmQZqXQjvcJNWeCqDUrWsHdPcCYT4z"], "asm": "OP_HASH160 69f3766f4ce9cd91cb42ca78ffdacd04604f25ff OP_EQUAL", "type": "scripthash"}, "value": 0.27416343, "n": 6}, {"scriptPubKey": {"reqSigs": 1, "hex": "a91469f3757ef9552e57e5edec62abbf6df0fd5afdd887", "addresses": ["3BMEXWdSUghyQGpHyNbELz5gBAmZWBAFAh"], "asm": "OP_HASH160 69f3757ef9552e57e5edec62abbf6df0fd5afdd8 OP_EQUAL", "type": "scripthash"}, "value": 0.01322751, "n": 7}, {"scriptPubKey": {"reqSigs": 1, "hex": "a914df77362416cf3949e4defb673492d40673e502e887", "addresses": ["3N4bRHGhch4R4WAifC9RfoDVdbAgLFQj3X"], "asm": "OP_HASH160 df77362416cf3949e4defb673492d40673e502e8 OP_EQUAL", "type": "scripthash"}, "value": 1.90566361, "n": 8}], "hex": "01000000000102c0723c2eb2935ecc9873a72653fa4fb9222cb9c74c403316cbf9634735ea3438000000002322002095fe7edbf2a293dfd5c0ffef75159a068da577d1e3cb540507f1b7447b90f7f4ffffffff6c8d5ed5c805909650ded467258e2e814cb5ff8a3732dcc38956642c578a623c0100000023220020341fb052fada0b340065435f0fd69fb6100bde5d69034447bcfc1a5d7500b884ffffffff0929016600000000001976a91490dc0343d096cccba0b7e9918ce4ff77118e828a88ac23be2c00000000001976a914d38f505e1e0950848308bf35d614010b6352c35388ac834fd8050000000017a9148f474ca639ca6501a2d10568a8b89c4421a6cd3a87f18265000000000017a91469f373a840f144680da2582fd73478382b98f52687d3153e000000000017a91469f373d87e696613a04eb19fc54d372b5cb1423c87f13114000000000017a91469f37632953d6a4e9524a8981bc0628dd7bd49b2871757a2010000000017a91469f3766f4ce9cd91cb42ca78ffdacd04604f25ff87ff2e14000000000017a91469f3757ef9552e57e5edec62abbf6df0fd5afdd887d9cf5b0b0000000017a914df77362416cf3949e4defb673492d40673e502e8870400483045022100f23fa762467be91559e7c9881e2ce9ae412b7492fa5200578ee09899dc423a76022046a3ef872368c7c3c3825134941dbbb19f6b4d0279feab64d8f70e9895699b1201483045022100c2826f30144e8324a6c5805f67dc09b0b04d8ffd14a2d6a14bd172887fb0d97d022068d7a6e8ca69f7522600597f729b167bf0bee590f8144b4711d52b7e54df73f60169522103e4e91957e59a00db12aceba45bfa269b498fd9bb3fee0b7cd16e5d1967210f962103b1c831cb700fd121038a8b5a6402dd9267dd9e3a4f14c7bff4d08a6460481f4e21021081dd148dc799c71768bb560c1f2f8165565819a1241d8b9fd35cbdea323ae353ae040047304402205609ecf14d4af7abd8cc106ee593f422029fe9ee6326cc4cc31831cca7a64fec022043319b40d64c3665fa656bb686f9a23e268aaadcc13a25d0d26c6356d7979e680147304402210088b0c08f36ed8bb7139b9e437fc3d0150e54676e06bbef1452ff91780d4cece3021f16d0a3e19b2a5f4228434adc79f0041d1eed6f1ce8664655c51dc8b4efe9c701695221022d61a9e47bf6f39f57c59d94de97eb12ed4215e14c53a2219024fbddfb26a5b32102343019c1bee20e0617ea3789a552958ef162ed82b4a5dc9440aefc0649be286521030754336d4fb5100ad79b86ef464b190245fd6b8d2ebcb3f8133be503ecebe52f53ae00000000", "vin": [{"txinwitness": ["", "3045022100f23fa762467be91559e7c9881e2ce9ae412b7492fa5200578ee09899dc423a76022046a3ef872368c7c3c3825134941dbbb19f6b4d0279feab64d8f70e9895699b1201", "3045022100c2826f30144e8324a6c5805f67dc09b0b04d8ffd14a2d6a14bd172887fb0d97d022068d7a6e8ca69f7522600597f729b167bf0bee590f8144b4711d52b7e54df73f601", "522103e4e91957e59a00db12aceba45bfa269b498fd9bb3fee0b7cd16e5d1967210f962103b1c831cb700fd121038a8b5a6402dd9267dd9e3a4f14c7bff4d08a6460481f4e21021081dd148dc799c71768bb560c1f2f8165565819a1241d8b9fd35cbdea323ae353ae"], "sequence": 4294967295, "scriptSig": {"hex": "22002095fe7edbf2a293dfd5c0ffef75159a068da577d1e3cb540507f1b7447b90f7f4", "asm": "002095fe7edbf2a293dfd5c0ffef75159a068da577d1e3cb540507f1b7447b90f7f4"}, "vout": 0, "txid": "3834ea354763f9cb1633404cc7b92c22b94ffa5326a77398cc5e93b22e3c72c0"}, {"txinwitness": ["", "304402205609ecf14d4af7abd8cc106ee593f422029fe9ee6326cc4cc31831cca7a64fec022043319b40d64c3665fa656bb686f9a23e268aaadcc13a25d0d26c6356d7979e6801", "304402210088b0c08f36ed8bb7139b9e437fc3d0150e54676e06bbef1452ff91780d4cece3021f16d0a3e19b2a5f4228434adc79f0041d1eed6f1ce8664655c51dc8b4efe9c701", "5221022d61a9e47bf6f39f57c59d94de97eb12ed4215e14c53a2219024fbddfb26a5b32102343019c1bee20e0617ea3789a552958ef162ed82b4a5dc9440aefc0649be286521030754336d4fb5100ad79b86ef464b190245fd6b8d2ebcb3f8133be503ecebe52f53ae"], "sequence": 4294967295, "scriptSig": {"hex": "220020341fb052fada0b340065435f0fd69fb6100bde5d69034447bcfc1a5d7500b884", "asm": "0020341fb052fada0b340065435f0fd69fb6100bde5d69034447bcfc1a5d7500b884"}, "vout": 1, "txid": "3c628a572c645689c3dc32378affb54c812e8e2567d4de50969005c8d55e8d6c"}], "txid": "5d07d86b0d22d0ce72d59f37e95fad80924eafca4f5027aa1d28410530116c94", "blocktime": 1537872475, "version": 1, "confirmations": 11486, "time": 1537872475, "locktime": 0, "vsize": 581, "size": 962}