{"hash": "5d0fe3073c71a258febb3622f06999d59f4fd4f19031c59eeae67c840ff96fe9", "blockhash": "0000000000000000001f76057863aec43deb6fa401d9628bb513d65a8098bfab", "vout": [{"scriptPubKey": {"reqSigs": 1, "hex": "76a914eadb075441f89b5ea0acbd624421c2665c8f271c88ac", "addresses": ["1NQoWGL4SmzmbbCfw9usr45Smgb3P9vePE"], "asm": "OP_DUP OP_HASH160 eadb075441f89b5ea0acbd624421c2665c8f271c OP_EQUALVERIFY OP_CHECKSIG", "type": "pubkeyhash"}, "value": 4.2261476, "n": 0}, {"scriptPubKey": {"reqSigs": 1, "hex": "76a9146f85194839d0a99b5bf1bd9f4edcbf1e4f23fc4c88ac", "addresses": ["1BAfTA7Fg6Hqb71Hw4UK7DMLC5ZywYRra8"], "asm": "OP_DUP OP_HASH160 6f85194839d0a99b5bf1bd9f4edcbf1e4f23fc4c OP_EQUALVERIFY OP_CHECKSIG", "type": "pubkeyhash"}, "value": 5.46e-06, "n": 1}, {"scriptPubKey": {"type": "nulldata", "hex": "6a146f6d6e69000000000000001f00000021c6463290", "asm": "OP_RETURN 6f6d6e69000000000000001f00000021c6463290"}, "value": 0.0, "n": 2}], "hex": "01000000029cf4c6025442dded86545d47e8478f8c64dad3b9501b00d94435c0cc4b37ca38010000006a473044022025481d8d3794061e94a1dab4417713a4f8e603eb0adb72eb79fa2011910f6db0022067a2326f3355fb652157f874a7851ade590a6fcfc45ba001577e6d256f7ac53b012103a197100954cf0b97ee5b4b4473ddd0bb3e6af89bed42db84518163403044c2fdffffffffeff3d36062fcc48d3b0732155c50cf5b1ba1a3c5c68fad36da14c4ceace615e6000000006b4830450221008f4931c320e03ec0e53a4fd3db70b4f133225e371399ba8351af188b49e2c38402206df21f97d552efe96765ea963793d6eb34d163bcc770b5d293431b52ca802ce801210379f59e95aae2e42172fb2819f25a529b5e2e176b3bfbe7b83ad79187e909e5aeffffffff03e8963019000000001976a914eadb075441f89b5ea0acbd624421c2665c8f271c88ac22020000000000001976a9146f85194839d0a99b5bf1bd9f4edcbf1e4f23fc4c88ac0000000000000000166a146f6d6e69000000000000001f00000021c646329000000000", "vin": [{"sequence": 4294967295, "scriptSig": {"hex": "473044022025481d8d3794061e94a1dab4417713a4f8e603eb0adb72eb79fa2011910f6db0022067a2326f3355fb652157f874a7851ade590a6fcfc45ba001577e6d256f7ac53b012103a197100954cf0b97ee5b4b4473ddd0bb3e6af89bed42db84518163403044c2fd", "asm": "3044022025481d8d3794061e94a1dab4417713a4f8e603eb0adb72eb79fa2011910f6db0022067a2326f3355fb652157f874a7851ade590a6fcfc45ba001577e6d256f7ac53b[ALL] 03a197100954cf0b97ee5b4b4473ddd0bb3e6af89bed42db84518163403044c2fd"}, "vout": 1, "txid": "38ca374bccc03544d9001b50b9d3da648c8f47e8475d5486eddd425402c6f49c"}, {"sequence": 4294967295, "scriptSig": {"hex": "4830450221008f4931c320e03ec0e53a4fd3db70b4f133225e371399ba8351af188b49e2c38402206df21f97d552efe96765ea963793d6eb34d163bcc770b5d293431b52ca802ce801210379f59e95aae2e42172fb2819f25a529b5e2e176b3bfbe7b83ad79187e909e5ae", "asm": "30450221008f4931c320e03ec0e53a4fd3db70b4f133225e371399ba8351af188b49e2c38402206df21f97d552efe96765ea963793d6eb34d163bcc770b5d293431b52ca802ce8[ALL] 0379f59e95aae2e42172fb2819f25a529b5e2e176b3bfbe7b83ad79187e909e5ae"}, "vout": 0, "txid": "e615e6accec414da36ad8fc6c5a3a11b5bcf505c1532073b8dc4fc6260d3f3ef"}], "txid": "5d0fe3073c71a258febb3622f06999d59f4fd4f19031c59eeae67c840ff96fe9", "blocktime": 1537873891, "version": 1, "confirmations": 11475, "time": 1537873891, "locktime": 0, "vsize": 404, "size": 404}