{"hash": "576918f1ea81ae1a77f185f9cc76e5652518dfc97f80908cc69163d7c1ae5816", "blockhash": "00000000000000000024a2167bbff67b0be802c0b01cdd79e6331c2be6459f87", "vout": [{"scriptPubKey": {"reqSigs": 1, "hex": "a914c2a218d5b72aa5bc90363bd49bbcfcfc83f459bd87", "addresses": ["3KS9CTSMmZ4wmxCGgdfBHbMFSJUzXSUWsM"], "asm": "OP_HASH160 c2a218d5b72aa5bc90363bd49bbcfcfc83f459bd OP_EQUAL", "type": "scripthash"}, "value": 0.01029275, "n": 0}, {"scriptPubKey": {"reqSigs": 1, "hex": "76a91477f0f47e315ff709108c59c8bddb50d688160fcd88ac", "addresses": ["1BwC4gLb5zoogUnzuK6ECeSY9GDDEDDWh3"], "asm": "OP_DUP OP_HASH160 77f0f47e315ff709108c59c8bddb50d688160fcd OP_EQUALVERIFY OP_CHECKSIG", "type": "pubkeyhash"}, "value": 0.01650253, "n": 1}], "hex": "0200000000010345173f1ccedf2b47ff339e6178fc924f42a8e5404b3315086d15a52a7389b25f0000000017160014b413dadb9a53c6b83d55e698f2da9444bebdbbb2feffffff9de3c08ea10c0728ace15aa76628c908e23c2ab154e16c572c49ebb714cc6d220000000017160014b5791be85e4f00e7303c699ec74233f93b6772b2feffffffc643589a0463d06ffa72179461cb15b47c12cba9839550e7a3482574c21c799601000000171600147002f76bcd836bed026ddabb68b0ff939d083b6dfeffffff029bb40f000000000017a914c2a218d5b72aa5bc90363bd49bbcfcfc83f459bd874d2e1900000000001976a91477f0f47e315ff709108c59c8bddb50d688160fcd88ac02473044022041cce2669801e81297b3d2aaebe3b46662a447d19a0d4d9a832a3ce1d280a1cc02207088c236b9497b3d1403b02ad91e806ff3da027b92f7ca2eea8a931f66694c5d0121022ff29828de45a4fe571726215c1bfeb7e5cad044c0e81662d84a001d7f42cd8a02483045022100b3b58770eda285ae4cb3ef86f1fef36b6b3d588a7d8ea2e340d3e381a698e23002207f9e692fdaa668542b9339bae52bf0bf8c252e56390893bf49a2fc1ec5a8b7700121027e11485151aae2757c7ae8cc1ce574e4d5620e6e712c489f2dfd03337131f18e0247304402205122c8372c133734aceb32955bb56e4f611721fb303759a0757a9470b87aceeb02203ca48ffb47968bea5a33ae2e79ab0657cb04304b95b9926c63d6ba76acf0cb95012103e07a986516d608517a50bb7a231d4afcdc74f422e87c90b0a2599b13a89fba4cef480800", "vin": [{"txinwitness": ["3044022041cce2669801e81297b3d2aaebe3b46662a447d19a0d4d9a832a3ce1d280a1cc02207088c236b9497b3d1403b02ad91e806ff3da027b92f7ca2eea8a931f66694c5d01", "022ff29828de45a4fe571726215c1bfeb7e5cad044c0e81662d84a001d7f42cd8a"], "sequence": 4294967294, "scriptSig": {"hex": "160014b413dadb9a53c6b83d55e698f2da9444bebdbbb2", "asm": "0014b413dadb9a53c6b83d55e698f2da9444bebdbbb2"}, "vout": 0, "txid": "5fb289732aa5156d0815334b40e5a8424f92fc78619e33ff472bdfce1c3f1745"}, {"txinwitness": ["3045022100b3b58770eda285ae4cb3ef86f1fef36b6b3d588a7d8ea2e340d3e381a698e23002207f9e692fdaa668542b9339bae52bf0bf8c252e56390893bf49a2fc1ec5a8b77001", "027e11485151aae2757c7ae8cc1ce574e4d5620e6e712c489f2dfd03337131f18e"], "sequence": 4294967294, "scriptSig": {"hex": "160014b5791be85e4f00e7303c699ec74233f93b6772b2", "asm": "0014b5791be85e4f00e7303c699ec74233f93b6772b2"}, "vout": 0, "txid": "226dcc14b7eb492c576ce154b12a3ce208c92866a75ae1ac28070ca18ec0e39d"}, {"txinwitness": ["304402205122c8372c133734aceb32955bb56e4f611721fb303759a0757a9470b87aceeb02203ca48ffb47968bea5a33ae2e79ab0657cb04304b95b9926c63d6ba76acf0cb9501", "03e07a986516d608517a50bb7a231d4afcdc74f422e87c90b0a2599b13a89fba4c"], "sequence": 4294967294, "scriptSig": {"hex": "1600147002f76bcd836bed026ddabb68b0ff939d083b6d", "asm": "00147002f76bcd836bed026ddabb68b0ff939d083b6d"}, "vout": 1, "txid": "96791cc2742548a3e7509583a9cb127cb415cb61941772fa6fd063049a5843c6"}], "txid": "5d12034a1b09a8fbbe0b4de51babcb8a791a78bfa5916a796c04e4e983d7987c", "blocktime": 1537870564, "version": 2, "confirmations": 11515, "time": 1537870564, "locktime": 542959, "vsize": 349, "size": 592}