{"hash": "5d12666fbd499da19c92066d74cba27b5941d1300d648531d563e98a5cf9a867", "blockhash": "00000000000000000004ffacab907a6b429b9a5745fa0b75af4234bf69dd7176", "vout": [{"scriptPubKey": {"reqSigs": 1, "hex": "76a9148e77be52b5965c18f44e953454796ba14d0740c488ac", "addresses": ["1DzJQAKS7rmnCn39m56fpwiNbA6QRX2fNo"], "asm": "OP_DUP OP_HASH160 8e77be52b5965c18f44e953454796ba14d0740c4 OP_EQUALVERIFY OP_CHECKSIG", "type": "pubkeyhash"}, "value": 0.078353, "n": 0}, {"scriptPubKey": {"reqSigs": 1, "hex": "76a914e9eeb36c844256047cf0b6c3233f7c1f47ebc61b88ac", "addresses": ["1NKvPvbNtu7rJU8yHxNRJ2fYhCVyofPyjT"], "asm": "OP_DUP OP_HASH160 e9eeb36c844256047cf0b6c3233f7c1f47ebc61b OP_EQUALVERIFY OP_CHECKSIG", "type": "pubkeyhash"}, "value": 0.21674487, "n": 1}], "hex": "0100000001be8aa6d53a4677f90cbebfbb6d9e8ac26d615eb6c7f7eba52904484b02e1c0f5010000006a47304402201d774759d95340b6dc2ba8df7e593d452b3be26e9368dfde104c2aeccf96f4d402204a9d5dea0e182d9bd3cdb2616acc36f5fe8a6f13e8f05216a993c68e196e73ed012102f706fd0028a5a1699ec2923723ab1bc9ec76965bb64ed3a4a7dbe0478fcce98bfcffffff02a48e7700000000001976a9148e77be52b5965c18f44e953454796ba14d0740c488acf7b94a01000000001976a914e9eeb36c844256047cf0b6c3233f7c1f47ebc61b88ac00000000", "vin": [{"sequence": 4294967292, "scriptSig": {"hex": "47304402201d774759d95340b6dc2ba8df7e593d452b3be26e9368dfde104c2aeccf96f4d402204a9d5dea0e182d9bd3cdb2616acc36f5fe8a6f13e8f05216a993c68e196e73ed012102f706fd0028a5a1699ec2923723ab1bc9ec76965bb64ed3a4a7dbe0478fcce98b", "asm": "304402201d774759d95340b6dc2ba8df7e593d452b3be26e9368dfde104c2aeccf96f4d402204a9d5dea0e182d9bd3cdb2616acc36f5fe8a6f13e8f05216a993c68e196e73ed[ALL] 02f706fd0028a5a1699ec2923723ab1bc9ec76965bb64ed3a4a7dbe0478fcce98b"}, "vout": 1, "txid": "f5c0e1024b480429a5ebf7c7b65e616dc28a9e6dbbbfbe0cf977463ad5a68abe"}], "txid": "5d12666fbd499da19c92066d74cba27b5941d1300d648531d563e98a5cf9a867", "blocktime": 1537875543, "version": 1, "confirmations": 11464, "time": 1537875543, "locktime": 0, "vsize": 225, "size": 225}