{"hash": "ba53e47b6b1886f1f4e2a7e50c978ac90c34fcf27139a088b71b0513a2c15399", "blockhash": "0000000000000000001cda96e906b7601b7a6fb1a3b62bca570a9e5d8f4b3de1", "vout": [{"scriptPubKey": {"reqSigs": 1, "hex": "a914fb97cbbdc51ce47fee76a4d1d366c7bcdfb3c70a87", "addresses": ["3QdKNevq3Xf4npE8RiXp2QFfpkDJi6WgaM"], "asm": "OP_HASH160 fb97cbbdc51ce47fee76a4d1d366c7bcdfb3c70a OP_EQUAL", "type": "scripthash"}, "value": 0.01890594, "n": 0}, {"scriptPubKey": {"reqSigs": 1, "hex": "76a9146ddfbae3aec648f891baabca16d1bc13c1982dd188ac", "addresses": ["1B1xfwow5MAZ2ETMDNghaamJVmDEMgPjaA"], "asm": "OP_DUP OP_HASH160 6ddfbae3aec648f891baabca16d1bc13c1982dd1 OP_EQUALVERIFY OP_CHECKSIG", "type": "pubkeyhash"}, "value": 0.00630039, "n": 1}], "hex": "02000000000102b76d71743ad81bbf3398c5e992fe83b7f370972276bdd9a2822be9698f0737ee000000001716001441bbe8c430bfafc377566f8fbe0b910629ac4a47fdffffffd6c842c0068876625e7fdd3c7c771660f3f04b8d54b6370d83cbe1a5642e45ae000000001716001457356a52ea83deea755dd6c93e25bb906e1f2b0efdffffff0222d91c000000000017a914fb97cbbdc51ce47fee76a4d1d366c7bcdfb3c70a87179d0900000000001976a9146ddfbae3aec648f891baabca16d1bc13c1982dd188ac02483045022100b38d5309eefcbe7e08c8be2bf7dbd992b8c3e19cdb3cc64004c86ff9bde2c231022033a71884746595ca8fa61a8a5d68db7986c24f559dbfb248ad6c794eea6b1a1b0121029c3fa4f35513f979de6a69a2f7d4ae53b73b85e92f671932ed63cec139cc63e602483045022100a3b3fca39ce79740184adf8f2cc0578ef3b2ee43c3ddf80b3791cfe3b5a7911902200f22c71f1a6d0857879bc986615e7755982b3bb310dc5d0801aa45c279a33b8c012102cbfc982d852f5a39ee7b36cfeed12cd326e513144b20714996d341a190800a9d13490800", "vin": [{"txinwitness": ["3045022100b38d5309eefcbe7e08c8be2bf7dbd992b8c3e19cdb3cc64004c86ff9bde2c231022033a71884746595ca8fa61a8a5d68db7986c24f559dbfb248ad6c794eea6b1a1b01", "029c3fa4f35513f979de6a69a2f7d4ae53b73b85e92f671932ed63cec139cc63e6"], "sequence": 4294967293, "scriptSig": {"hex": "16001441bbe8c430bfafc377566f8fbe0b910629ac4a47", "asm": "001441bbe8c430bfafc377566f8fbe0b910629ac4a47"}, "vout": 0, "txid": "ee37078f69e92b82a2d9bd76229770f3b783fe92e9c59833bf1bd83a74716db7"}, {"txinwitness": ["3045022100a3b3fca39ce79740184adf8f2cc0578ef3b2ee43c3ddf80b3791cfe3b5a7911902200f22c71f1a6d0857879bc986615e7755982b3bb310dc5d0801aa45c279a33b8c01", "02cbfc982d852f5a39ee7b36cfeed12cd326e513144b20714996d341a190800a9d"], "sequence": 4294967293, "scriptSig": {"hex": "16001457356a52ea83deea755dd6c93e25bb906e1f2b0e", "asm": "001457356a52ea83deea755dd6c93e25bb906e1f2b0e"}, "vout": 0, "txid": "ae452e64a5e1cb830d37b6548d4bf0f36016777c3cdd7f5e62768806c042c8d6"}], "txid": "5d162214d317fa747cd988264e4ceb8cbc4eb741b7ee17a4f4d9b82552829d34", "blocktime": 1537873282, "version": 2, "confirmations": 11485, "time": 1537873282, "locktime": 542995, "vsize": 259, "size": 422}