{"hash": "2c953ffe1752ca4d76d6b03447f67b5fd404de2b29df7fb6c60c7606ba5c689d", "blockhash": "0000000000000000000e13cef7c366c0283d82e591d1acd082e914b08063cdf1", "vout": [{"scriptPubKey": {"reqSigs": 1, "hex": "76a914875b7bbba9f793be0d40659d3687371a51d8842888ac", "addresses": ["1DLhpGgrWcXhRkQWVF41Y2g8k5BnKJPnk4"], "asm": "OP_DUP OP_HASH160 875b7bbba9f793be0d40659d3687371a51d88428 OP_EQUALVERIFY OP_CHECKSIG", "type": "pubkeyhash"}, "value": 0.0027476, "n": 0}, {"scriptPubKey": {"reqSigs": 1, "hex": "a9142e501b9630417c272ce0fb22e910ed7703f1abe887", "addresses": ["35utyMQpwcCEts2pApr7q2psJeLTNF6nsx"], "asm": "OP_HASH160 2e501b9630417c272ce0fb22e910ed7703f1abe8 OP_EQUAL", "type": "scripthash"}, "value": 0.01007527, "n": 1}], "hex": "02000000000102273ad91b550e8c3d2a93afed997a41b3d163d0869f922cd351610a63f2cec6b3000000001716001427ebe0838201927217241f3e528d8a416770126ffeffffffc404982c689642e5ef1bb38b19bd8ff3860812aee04bc9ed7092fa140c78075900000000171600140a4caf2e38591bd94dc4cce45fe323f6e3aa0720feffffff0248310400000000001976a914875b7bbba9f793be0d40659d3687371a51d8842888aca75f0f000000000017a9142e501b9630417c272ce0fb22e910ed7703f1abe8870247304402200a3ad1229a2be6478b837b6600ef109e6dd0d00c4b9b612c73e8d3165cd9461e022003c6e599cc5efc1123b55f062f51423c267ee8688de7f5ccb6272b2c816ee59a01210259e17f6c816b2f0f9a7339f48d60f2570ec84336a6dea2e027836dc245acd7ac024730440220671486aa4f42a1af5aeaf1db9141a6d84dbe40f32f977b730944ce3b9d3fff88022046679275ea64d1cb2e5e6abadb633963938fab219cd0c3ecc077e2e9f597a21c012102c66939276a01212279b2daf04e43e59fc8a3d35cac0d24fd3e7ba914ed16597cb8480800", "vin": [{"txinwitness": ["304402200a3ad1229a2be6478b837b6600ef109e6dd0d00c4b9b612c73e8d3165cd9461e022003c6e599cc5efc1123b55f062f51423c267ee8688de7f5ccb6272b2c816ee59a01", "0259e17f6c816b2f0f9a7339f48d60f2570ec84336a6dea2e027836dc245acd7ac"], "sequence": 4294967294, "scriptSig": {"hex": "16001427ebe0838201927217241f3e528d8a416770126f", "asm": "001427ebe0838201927217241f3e528d8a416770126f"}, "vout": 0, "txid": "b3c6cef2630a6151d32c929f86d063d1b3417a99edaf932a3d8c0e551bd93a27"}, {"txinwitness": ["30440220671486aa4f42a1af5aeaf1db9141a6d84dbe40f32f977b730944ce3b9d3fff88022046679275ea64d1cb2e5e6abadb633963938fab219cd0c3ecc077e2e9f597a21c01", "02c66939276a01212279b2daf04e43e59fc8a3d35cac0d24fd3e7ba914ed16597c"], "sequence": 4294967294, "scriptSig": {"hex": "1600140a4caf2e38591bd94dc4cce45fe323f6e3aa0720", "asm": "00140a4caf2e38591bd94dc4cce45fe323f6e3aa0720"}, "vout": 0, "txid": "5907780c14fa9270edc94be0ae120886f38fbd198bb31befe54296682c9804c4"}], "txid": "5d1717318389f40da6685615751f099979816747bd7223bcb07940ab8b21faca", "blocktime": 1537871767, "version": 2, "confirmations": 11495, "time": 1537871767, "locktime": 542904, "vsize": 258, "size": 420}