{"hash": "5d19fd3542bfa72ef72dfcbcce0cf7823172882496a80a4906d91b7707190c9c", "blockhash": "0000000000000000000e13cef7c366c0283d82e591d1acd082e914b08063cdf1", "vout": [{"scriptPubKey": {"reqSigs": 1, "hex": "76a9144ff6439dbfc981d8bed3a77041104cd59fb0312488ac", "addresses": ["18HoPtPdDVZXSey8gjo75iie4FB1WUkj5J"], "asm": "OP_DUP OP_HASH160 4ff6439dbfc981d8bed3a77041104cd59fb03124 OP_EQUALVERIFY OP_CHECKSIG", "type": "pubkeyhash"}, "value": 0.0095, "n": 0}, {"scriptPubKey": {"reqSigs": 1, "hex": "76a9149bf7f0409f73763cf4c1d5a58b0e8dcb7fffb34088ac", "addresses": ["1FDgkoW3escCuTb19zLgRfEdU3qVQaGnGL"], "asm": "OP_DUP OP_HASH160 9bf7f0409f73763cf4c1d5a58b0e8dcb7fffb340 OP_EQUALVERIFY OP_CHECKSIG", "type": "pubkeyhash"}, "value": 0.40532466, "n": 1}], "hex": "0100000001450664c4dfe7c75ec68919b1d65514b961f7d4e48e468d2f8ae03a58a3ab8c74010000006b483045022100fa5c613dcc277be1aecf65117b782b596724a961c6541ba233360111abeb937d022060b7ade0ee859bb9c1759dc07d03c02c697d4c145c64e80f466dcf6dd8c438580121031c5c48db6529cc94ceadb6c173e07978f345a47b073bac5aca66b73298d12d21ffffffff02f07e0e00000000001976a9144ff6439dbfc981d8bed3a77041104cd59fb0312488acf2796a02000000001976a9149bf7f0409f73763cf4c1d5a58b0e8dcb7fffb34088ac00000000", "vin": [{"sequence": 4294967295, "scriptSig": {"hex": "483045022100fa5c613dcc277be1aecf65117b782b596724a961c6541ba233360111abeb937d022060b7ade0ee859bb9c1759dc07d03c02c697d4c145c64e80f466dcf6dd8c438580121031c5c48db6529cc94ceadb6c173e07978f345a47b073bac5aca66b73298d12d21", "asm": "3045022100fa5c613dcc277be1aecf65117b782b596724a961c6541ba233360111abeb937d022060b7ade0ee859bb9c1759dc07d03c02c697d4c145c64e80f466dcf6dd8c43858[ALL] 031c5c48db6529cc94ceadb6c173e07978f345a47b073bac5aca66b73298d12d21"}, "vout": 1, "txid": "748caba3583ae08a2f8d468ee4d4f761b91455d6b11989c65ec7e7dfc4640645"}], "txid": "5d19fd3542bfa72ef72dfcbcce0cf7823172882496a80a4906d91b7707190c9c", "blocktime": 1537871767, "version": 1, "confirmations": 11495, "time": 1537871767, "locktime": 0, "vsize": 226, "size": 226}