{"hash": "5d1ca4e27dea85347e83ed2666210c1b04cf7ecaf79e3f8a0dd115c600dc7ffc", "blockhash": "0000000000000000000e13cef7c366c0283d82e591d1acd082e914b08063cdf1", "vout": [{"scriptPubKey": {"reqSigs": 1, "hex": "76a914207b7f44be257938c075aeeef8a4cec2a3164c8088ac", "addresses": ["13xkZsVHZQYxsB9sunVrNYwzDHrKXFHzyu"], "asm": "OP_DUP OP_HASH160 207b7f44be257938c075aeeef8a4cec2a3164c80 OP_EQUALVERIFY OP_CHECKSIG", "type": "pubkeyhash"}, "value": 0.01246034, "n": 0}], "hex": "0100000002e55e6a4f95e120ee6e05e5f69add53b8b770f9edd7b62853eb1229be5e87c312010000006a473044022043b6c33fa361e7d30c37de90b49af72ee9d8b9fda07803721d2f28efe83e211202202812dfc7431350b9b721184bac3d23b51c818d1e524ffeb5fc6a51b775bbb43e012103193e34a8f5e80a357a057fe61db423c02550cc906c35d89064f6b9386af54cc1fffffffff82df2ebbe8c0c3b3949de6d4769cb905d5bbdb73435d4a78545e33f46ccff59050000006a473044022011b5160223f080f511ba9b26c50ca2c7bab707f48e695cf7bdcaae6fd881640c02206b543216cadf241957669c85f0cccb86fe86aad7cc06d77d3b3c6162fa93d0d2012103193e34a8f5e80a357a057fe61db423c02550cc906c35d89064f6b9386af54cc1ffffffff0152031300000000001976a914207b7f44be257938c075aeeef8a4cec2a3164c8088ac00000000", "vin": [{"sequence": 4294967295, "scriptSig": {"hex": "473044022043b6c33fa361e7d30c37de90b49af72ee9d8b9fda07803721d2f28efe83e211202202812dfc7431350b9b721184bac3d23b51c818d1e524ffeb5fc6a51b775bbb43e012103193e34a8f5e80a357a057fe61db423c02550cc906c35d89064f6b9386af54cc1", "asm": "3044022043b6c33fa361e7d30c37de90b49af72ee9d8b9fda07803721d2f28efe83e211202202812dfc7431350b9b721184bac3d23b51c818d1e524ffeb5fc6a51b775bbb43e[ALL] 03193e34a8f5e80a357a057fe61db423c02550cc906c35d89064f6b9386af54cc1"}, "vout": 1, "txid": "12c3875ebe2912eb5328b6d7edf970b7b853dd9af6e5056eee20e1954f6a5ee5"}, {"sequence": 4294967295, "scriptSig": {"hex": "473044022011b5160223f080f511ba9b26c50ca2c7bab707f48e695cf7bdcaae6fd881640c02206b543216cadf241957669c85f0cccb86fe86aad7cc06d77d3b3c6162fa93d0d2012103193e34a8f5e80a357a057fe61db423c02550cc906c35d89064f6b9386af54cc1", "asm": "3044022011b5160223f080f511ba9b26c50ca2c7bab707f48e695cf7bdcaae6fd881640c02206b543216cadf241957669c85f0cccb86fe86aad7cc06d77d3b3c6162fa93d0d2[ALL] 03193e34a8f5e80a357a057fe61db423c02550cc906c35d89064f6b9386af54cc1"}, "vout": 5, "txid": "59ffcc463fe34585a7d43534b7bd5b5d90cb69476dde49393b0c8cbeebf22df8"}], "txid": "5d1ca4e27dea85347e83ed2666210c1b04cf7ecaf79e3f8a0dd115c600dc7ffc", "blocktime": 1537871767, "version": 1, "confirmations": 11493, "time": 1537871767, "locktime": 0, "vsize": 338, "size": 338}