{"hash": "5d1e8434041ca1e225251d1275835b2c333c014c6ff992d749c4e61da206274c", "blockhash": "0000000000000000000e13cef7c366c0283d82e591d1acd082e914b08063cdf1", "vout": [{"scriptPubKey": {"reqSigs": 1, "hex": "76a91426bb138363b487c90b06f38a0376edd705fe466a88ac", "addresses": ["14XnnaG5J1qWiXh7vyJnQjF16bFbiEmtTS"], "asm": "OP_DUP OP_HASH160 26bb138363b487c90b06f38a0376edd705fe466a OP_EQUALVERIFY OP_CHECKSIG", "type": "pubkeyhash"}, "value": 0.0043222, "n": 0}, {"scriptPubKey": {"reqSigs": 1, "hex": "76a91487e913b491eb39677d461ce261863b19f1695ad188ac", "addresses": ["1DPdSNQtaBkyto6qk8yUAaPwowjgxdCFrL"], "asm": "OP_DUP OP_HASH160 87e913b491eb39677d461ce261863b19f1695ad1 OP_EQUALVERIFY OP_CHECKSIG", "type": "pubkeyhash"}, "value": 0.03745454, "n": 1}], "hex": "01000000014b218283f5cec03bd1d3bb97efefaff584dec2a870f1c1d25a2b0b40b911a34d010000006b48304502210091a07a4a5ee2c98ec2b46462538bc90e7bca361ce7e8bea983f0922947d44b950220267639d45448bd9b5314fb81577e7f33d4dd8a88f7f80cf06ee76d5026555edf012103fcb43cb17759130e657e9d56ce244114d73e9e5de47f4178a78e0c6e822c3e34ffffffff025c980600000000001976a91426bb138363b487c90b06f38a0376edd705fe466a88acae263900000000001976a91487e913b491eb39677d461ce261863b19f1695ad188ac00000000", "vin": [{"sequence": 4294967295, "scriptSig": {"hex": "48304502210091a07a4a5ee2c98ec2b46462538bc90e7bca361ce7e8bea983f0922947d44b950220267639d45448bd9b5314fb81577e7f33d4dd8a88f7f80cf06ee76d5026555edf012103fcb43cb17759130e657e9d56ce244114d73e9e5de47f4178a78e0c6e822c3e34", "asm": "304502210091a07a4a5ee2c98ec2b46462538bc90e7bca361ce7e8bea983f0922947d44b950220267639d45448bd9b5314fb81577e7f33d4dd8a88f7f80cf06ee76d5026555edf[ALL] 03fcb43cb17759130e657e9d56ce244114d73e9e5de47f4178a78e0c6e822c3e34"}, "vout": 1, "txid": "4da311b9400b2b5ad2c1f170a8c2de84f5afefef97bbd3d13bc0cef58382214b"}], "txid": "5d1e8434041ca1e225251d1275835b2c333c014c6ff992d749c4e61da206274c", "blocktime": 1537871767, "version": 1, "confirmations": 11495, "time": 1537871767, "locktime": 0, "vsize": 226, "size": 226}