{"hash": "5d262e6c377491acbcf767d118a4aba6a24f73d07b5634ec0821f334017b9c5f", "blockhash": "00000000000000000018f53835495a110e01622372bf6ae95dc86f2b0ab887b0", "vout": [{"scriptPubKey": {"type": "nulldata", "hex": "6a146f6d6e69000000000000001f0000000826299e00", "asm": "OP_RETURN 6f6d6e69000000000000001f0000000826299e00"}, "value": 0.0, "n": 0}, {"scriptPubKey": {"reqSigs": 1, "hex": "76a914a25dec4d0011064ef106a983c39c7a540699f22088ac", "addresses": ["1FoWyxwPXuj4C6abqwhjDWdz6D4PZgYRjA"], "asm": "OP_DUP OP_HASH160 a25dec4d0011064ef106a983c39c7a540699f220 OP_EQUALVERIFY OP_CHECKSIG", "type": "pubkeyhash"}, "value": 5.46e-06, "n": 1}, {"scriptPubKey": {"reqSigs": 1, "hex": "76a9143971ed566d9fdf254baf7251239882bff7e7928d88ac", "addresses": ["16EjzjE42Te3hqSbbRgYVquCAtZpaGsJBD"], "asm": "OP_DUP OP_HASH160 3971ed566d9fdf254baf7251239882bff7e7928d OP_EQUALVERIFY OP_CHECKSIG", "type": "pubkeyhash"}, "value": 0.00498389, "n": 2}], "hex": "01000000031e29343465d2fe93bb2ff1aff820df0f9cc28340f2e1b1ecd4466080ffc87634020000006a4730440220329aa3f33f445465b093220f3a9cd746d087fcca8c7c9062c7ead8d6edb62fb902203be2c4754a326a6b4d9dc87701763c2bf4ce1b07eb0762dd29c94261d4360f1d01210388e5b0fe898c830e48e39ea155f2abcd0cdabdba616b80fe73f082f9f1df79a8feffffff87484bc10d34d9ea6835d1e79d8d3cc3252da601357e2a86de00501f47d8ee25020000006b483045022100a3452a2a38110913efd5059280d008a1c71a6efdd3c674ef9be72a2c516df4bc02206820b22dd2862aa26eef99d6481181d413b162c07c2279a8dbeb5920f3f53b4601210388e5b0fe898c830e48e39ea155f2abcd0cdabdba616b80fe73f082f9f1df79a8feffffffa97120329e3bdba1dad9d2f4fd532a14d6fcac3f8a9894c5ca773a7db46bf8bd020000006b483045022100a8c1f3c232a806870af393e2dde2a3c09e4d612152a2717e4f7e8db9572f9e750220093a895af3ae46a0f8e416552deebed8644df72f9be3340ea1029993d5d33cb101210388e5b0fe898c830e48e39ea155f2abcd0cdabdba616b80fe73f082f9f1df79a8feffffff030000000000000000166a146f6d6e69000000000000001f0000000826299e0022020000000000001976a914a25dec4d0011064ef106a983c39c7a540699f22088acd59a0700000000001976a9143971ed566d9fdf254baf7251239882bff7e7928d88ac0e490800", "vin": [{"sequence": 4294967294, "scriptSig": {"hex": "4730440220329aa3f33f445465b093220f3a9cd746d087fcca8c7c9062c7ead8d6edb62fb902203be2c4754a326a6b4d9dc87701763c2bf4ce1b07eb0762dd29c94261d4360f1d01210388e5b0fe898c830e48e39ea155f2abcd0cdabdba616b80fe73f082f9f1df79a8", "asm": "30440220329aa3f33f445465b093220f3a9cd746d087fcca8c7c9062c7ead8d6edb62fb902203be2c4754a326a6b4d9dc87701763c2bf4ce1b07eb0762dd29c94261d4360f1d[ALL] 0388e5b0fe898c830e48e39ea155f2abcd0cdabdba616b80fe73f082f9f1df79a8"}, "vout": 2, "txid": "3476c8ff806046d4ecb1e1f24083c29c0fdf20f8aff12fbb93fed2653434291e"}, {"sequence": 4294967294, "scriptSig": {"hex": "483045022100a3452a2a38110913efd5059280d008a1c71a6efdd3c674ef9be72a2c516df4bc02206820b22dd2862aa26eef99d6481181d413b162c07c2279a8dbeb5920f3f53b4601210388e5b0fe898c830e48e39ea155f2abcd0cdabdba616b80fe73f082f9f1df79a8", "asm": "3045022100a3452a2a38110913efd5059280d008a1c71a6efdd3c674ef9be72a2c516df4bc02206820b22dd2862aa26eef99d6481181d413b162c07c2279a8dbeb5920f3f53b46[ALL] 0388e5b0fe898c830e48e39ea155f2abcd0cdabdba616b80fe73f082f9f1df79a8"}, "vout": 2, "txid": "25eed8471f5000de862a7e3501a62d25c33c8d9de7d13568ead9340dc14b4887"}, {"sequence": 4294967294, "scriptSig": {"hex": "483045022100a8c1f3c232a806870af393e2dde2a3c09e4d612152a2717e4f7e8db9572f9e750220093a895af3ae46a0f8e416552deebed8644df72f9be3340ea1029993d5d33cb101210388e5b0fe898c830e48e39ea155f2abcd0cdabdba616b80fe73f082f9f1df79a8", "asm": "3045022100a8c1f3c232a806870af393e2dde2a3c09e4d612152a2717e4f7e8db9572f9e750220093a895af3ae46a0f8e416552deebed8644df72f9be3340ea1029993d5d33cb1[ALL] 0388e5b0fe898c830e48e39ea155f2abcd0cdabdba616b80fe73f082f9f1df79a8"}, "vout": 2, "txid": "bdf86bb47d3a77cac594988a3facfcd6142a53fdf4d2d9daa1db3b9e322071a9"}], "txid": "5d262e6c377491acbcf767d118a4aba6a24f73d07b5634ec0821f334017b9c5f", "blocktime": 1537870928, "version": 1, "confirmations": 11514, "time": 1537870928, "locktime": 542990, "vsize": 552, "size": 552}