{"hash": "b1556e7f5f018bf616435aca0b9e5a7817d0fb91cf6f8af1bbb7556bad8be75c", "blockhash": "00000000000000000004ffacab907a6b429b9a5745fa0b75af4234bf69dd7176", "vout": [{"scriptPubKey": {"reqSigs": 1, "hex": "76a91485db7cab769f93a69785c13cc1e0df51be1f9d8b88ac", "addresses": ["1DCmojk8DoVM3CmvYCzyJbGfcHzZstF2vU"], "asm": "OP_DUP OP_HASH160 85db7cab769f93a69785c13cc1e0df51be1f9d8b OP_EQUALVERIFY OP_CHECKSIG", "type": "pubkeyhash"}, "value": 2.603e-05, "n": 0}, {"scriptPubKey": {"reqSigs": 1, "hex": "a914e8db75c900cf08f06518e96d167331f2a4abfb3387", "addresses": ["3NvFbQMAkkqEFj4i1sYPPLkSWzxTFUchjA"], "asm": "OP_HASH160 e8db75c900cf08f06518e96d167331f2a4abfb33 OP_EQUAL", "type": "scripthash"}, "value": 0.00155057, "n": 1}], "hex": "010000000001013cfd594a11fa4ed02291ad130eab62c66de3d6c7b5f5a8ee8b576cff7311619d0100000023220020941cfaff8837763dc1f69ff82b6d6553fdea17a41cfc29a04403293eedd8ccc7ffffffff022b0a0000000000001976a91485db7cab769f93a69785c13cc1e0df51be1f9d8b88acb15d02000000000017a914e8db75c900cf08f06518e96d167331f2a4abfb33870400483045022100d038f69a693a71a1cf248e2bad760062deec77db8ccb0998738486c4a270289a02202552bb55daf1036b8148957012fab3f9cbee31ff3843e377bf7f856dfcb1212c01483045022100ee42cc41971b68532ab9f6d93accf9fec989a6252d0a5821f8859fd9db5214d102205e9b635fb6babd6a0b47907db6d62796bd0f4fb202b2e6329f820d513152c0fc0147522102531db3a5883f29bab4241dd0cd726936667bcda445d89bdd22244e828b6993342103148c80a5bdfddb05ff5bcffc397c8ca748d8b435ec6a175bc9d7bfc7fc6f853752ae00000000", "vin": [{"txinwitness": ["", "3045022100d038f69a693a71a1cf248e2bad760062deec77db8ccb0998738486c4a270289a02202552bb55daf1036b8148957012fab3f9cbee31ff3843e377bf7f856dfcb1212c01", "3045022100ee42cc41971b68532ab9f6d93accf9fec989a6252d0a5821f8859fd9db5214d102205e9b635fb6babd6a0b47907db6d62796bd0f4fb202b2e6329f820d513152c0fc01", "522102531db3a5883f29bab4241dd0cd726936667bcda445d89bdd22244e828b6993342103148c80a5bdfddb05ff5bcffc397c8ca748d8b435ec6a175bc9d7bfc7fc6f853752ae"], "sequence": 4294967295, "scriptSig": {"hex": "220020941cfaff8837763dc1f69ff82b6d6553fdea17a41cfc29a04403293eedd8ccc7", "asm": "0020941cfaff8837763dc1f69ff82b6d6553fdea17a41cfc29a04403293eedd8ccc7"}, "vout": 1, "txid": "9d611173ff6c578beea8f5b5c7d6e36dc662ab0e13ad9122d04efa114a59fd3c"}], "txid": "5d2837995355f92f546d3b32bd85852182af65d149e6c35574ad94f11ad25b61", "blocktime": 1537875543, "version": 1, "confirmations": 11464, "time": 1537875543, "locktime": 0, "vsize": 208, "size": 374}