{"hash": "5d2efd196b856c902c8a0524163b5422e3a61396ba15280f67a15cf9e605971d", "blockhash": "0000000000000000001f76057863aec43deb6fa401d9628bb513d65a8098bfab", "vout": [{"scriptPubKey": {"type": "nulldata", "hex": "6a146f6d6e69000000000000001f00000002540be400", "asm": "OP_RETURN 6f6d6e69000000000000001f00000002540be400"}, "value": 0.0, "n": 0}, {"scriptPubKey": {"reqSigs": 1, "hex": "76a914311501b7076dd9d5be36416376c217bafbd6bd7e88ac", "addresses": ["15UXGyJXomEF2FMFGNwa1yiBY4mRda62KQ"], "asm": "OP_DUP OP_HASH160 311501b7076dd9d5be36416376c217bafbd6bd7e OP_EQUALVERIFY OP_CHECKSIG", "type": "pubkeyhash"}, "value": 0.00214808, "n": 1}], "hex": "010000000254225757b568ad52a2a9b1ff78664653f9467da4663824e7f0524fabb5e21852010000006a473044022053ee25b3907e6506f02ed6bb5211c4a6c1d74864f7a8b50a161b3e4c1908c0cd022057d7e22a19383c3be597fe07907e0b7420ecb1cbacfadad546cb538c3dc48552012102385fe5bdecd29d2ccb706a3b243c337ad8fdc0741bbc404a8c75c25a2afdd1c0ffffffffc5ff8b50dfbcaead34abf9a7f0b0de083df9969e34244fb5bbabb8fdd5a704e0010000006b483045022100d7a33d55efc49070a1ffd5cc6885fb114130b4b437ffec15ae5dfa6ff7da7960022030540352a861500a4a2ad6a81e8b34d37a95fafd6db632e3a6f41c4099b32b8f012103ace9f4487b96c5599fbcabf506252f4a3512e1c0760a70ac1ebbd1a46e8d52daffffffff020000000000000000166a146f6d6e69000000000000001f00000002540be40018470300000000001976a914311501b7076dd9d5be36416376c217bafbd6bd7e88ac00000000", "vin": [{"sequence": 4294967295, "scriptSig": {"hex": "473044022053ee25b3907e6506f02ed6bb5211c4a6c1d74864f7a8b50a161b3e4c1908c0cd022057d7e22a19383c3be597fe07907e0b7420ecb1cbacfadad546cb538c3dc48552012102385fe5bdecd29d2ccb706a3b243c337ad8fdc0741bbc404a8c75c25a2afdd1c0", "asm": "3044022053ee25b3907e6506f02ed6bb5211c4a6c1d74864f7a8b50a161b3e4c1908c0cd022057d7e22a19383c3be597fe07907e0b7420ecb1cbacfadad546cb538c3dc48552[ALL] 02385fe5bdecd29d2ccb706a3b243c337ad8fdc0741bbc404a8c75c25a2afdd1c0"}, "vout": 1, "txid": "5218e2b5ab4f52f0e7243866a47d46f953466678ffb1a9a252ad68b557572254"}, {"sequence": 4294967295, "scriptSig": {"hex": "483045022100d7a33d55efc49070a1ffd5cc6885fb114130b4b437ffec15ae5dfa6ff7da7960022030540352a861500a4a2ad6a81e8b34d37a95fafd6db632e3a6f41c4099b32b8f012103ace9f4487b96c5599fbcabf506252f4a3512e1c0760a70ac1ebbd1a46e8d52da", "asm": "3045022100d7a33d55efc49070a1ffd5cc6885fb114130b4b437ffec15ae5dfa6ff7da7960022030540352a861500a4a2ad6a81e8b34d37a95fafd6db632e3a6f41c4099b32b8f[ALL] 03ace9f4487b96c5599fbcabf506252f4a3512e1c0760a70ac1ebbd1a46e8d52da"}, "vout": 1, "txid": "e004a7d5fdb8abbbb54f24349e96f93d08deb0f0a7f9ab34adaebcdf508bffc5"}], "txid": "5d2efd196b856c902c8a0524163b5422e3a61396ba15280f67a15cf9e605971d", "blocktime": 1537873891, "version": 1, "confirmations": 11475, "time": 1537873891, "locktime": 0, "vsize": 370, "size": 370}