{"hash": "ab8dd6c78c99dd28015e96e444880641c1cac7cf0323a1e9835b1475e4e70dff", "blockhash": "0000000000000000001f76057863aec43deb6fa401d9628bb513d65a8098bfab", "vout": [{"scriptPubKey": {"reqSigs": 1, "hex": "76a914272ec0d400c94b51dc6a702bad16e4cb570c826d88ac", "addresses": ["14aBMxHDkZpa4NHoiJnJjvFS2o9FGeTBgQ"], "asm": "OP_DUP OP_HASH160 272ec0d400c94b51dc6a702bad16e4cb570c826d OP_EQUALVERIFY OP_CHECKSIG", "type": "pubkeyhash"}, "value": 0.0031, "n": 0}, {"scriptPubKey": {"reqSigs": 1, "hex": "0014e3f9f73da861c7d67ed3179faf9a9975688c89cc", "addresses": ["bc1qu0ulw0dgv8ravlknz706lx5ew45gezwvxtunku"], "asm": "0 e3f9f73da861c7d67ed3179faf9a9975688c89cc", "type": "witness_v0_keyhash"}, "value": 1.107e-05, "n": 1}], "hex": "01000000000101180937ef1973dbed7531be3497bdccf40a035ed7d0577847335a13110c5127940000000000ffffffff02f0ba0400000000001976a914272ec0d400c94b51dc6a702bad16e4cb570c826d88ac5304000000000000160014e3f9f73da861c7d67ed3179faf9a9975688c89cc0247304402205e985119431ac8d2ce805309e83d728add52be4f70b3eb4454909fca6be5ffb002204e44dde5c6b860d711967112a9586d9ab121b21e0dd8d74952e0f75229ac8d36012102a61e727e81ae77a4d0e41670213fe50fac7e720673f9018d6fee8394657a064500000000", "vin": [{"txinwitness": ["304402205e985119431ac8d2ce805309e83d728add52be4f70b3eb4454909fca6be5ffb002204e44dde5c6b860d711967112a9586d9ab121b21e0dd8d74952e0f75229ac8d3601", "02a61e727e81ae77a4d0e41670213fe50fac7e720673f9018d6fee8394657a0645"], "sequence": 4294967295, "scriptSig": {"hex": "", "asm": ""}, "vout": 0, "txid": "9427510c11135a33477857d0d75e030af4ccbd9734be3175eddb7319ef370918"}], "txid": "5d2f3f52ddf1a0f948671b90716decb8529126988bf599080bac0bbcf25b4ff2", "blocktime": 1537873891, "version": 1, "confirmations": 11478, "time": 1537873891, "locktime": 0, "vsize": 144, "size": 225}