{"hash": "388540dccea1d38862cd5d24f3aad49a2068cdebe504f81b8c964973d7e2f2b3", "blockhash": "0000000000000000001cda96e906b7601b7a6fb1a3b62bca570a9e5d8f4b3de1", "vout": [{"scriptPubKey": {"reqSigs": 1, "hex": "76a914290054e0cc9c76b1e1f15ae3f195f755b87a509988ac", "addresses": ["14jo6uK1GscKxbWydhwbVHZwWGy2gEip9m"], "asm": "OP_DUP OP_HASH160 290054e0cc9c76b1e1f15ae3f195f755b87a5099 OP_EQUALVERIFY OP_CHECKSIG", "type": "pubkeyhash"}, "value": 0.00780884, "n": 0}, {"scriptPubKey": {"reqSigs": 1, "hex": "0014a523377aa755397895344136c963e77176e96605", "addresses": ["bc1q553nw74825uh39f5gymvjcl8w9mwjes9esvhmj"], "asm": "0 a523377aa755397895344136c963e77176e96605", "type": "witness_v0_keyhash"}, "value": 0.00337636, "n": 1}], "hex": "01000000000101180e3266a6ce73539884c00bc232a4619ad9e66de0dfed4d464655530af29d932b00000017160014971f439d5e87891567425af9150bb9ec49dac888ffffffff0254ea0b00000000001976a914290054e0cc9c76b1e1f15ae3f195f755b87a509988ace426050000000000160014a523377aa755397895344136c963e77176e9660502473044022027040c9a3ab585184f8ce63a82f858197c5634661e1f11f2d436475688f79e1102201dde7ca6797cb68ee302cb24347bf6d196e9be8a88af0bb27e40229600973df50121028d7036fc09257471c32fef3c488953a76d97f065d91431409ad68711b612432400000000", "vin": [{"txinwitness": ["3044022027040c9a3ab585184f8ce63a82f858197c5634661e1f11f2d436475688f79e1102201dde7ca6797cb68ee302cb24347bf6d196e9be8a88af0bb27e40229600973df501", "028d7036fc09257471c32fef3c488953a76d97f065d91431409ad68711b6124324"], "sequence": 4294967295, "scriptSig": {"hex": "160014971f439d5e87891567425af9150bb9ec49dac888", "asm": "0014971f439d5e87891567425af9150bb9ec49dac888"}, "vout": 43, "txid": "939df20a535546464deddfe06de6d99a61a432c20bc084985373cea666320e18"}], "txid": "5d2f58eeea21d6398216db4af515b7315baa29c8e56fb5a4f4954dce7fe30f21", "blocktime": 1537873282, "version": 1, "confirmations": 11484, "time": 1537873282, "locktime": 0, "vsize": 167, "size": 248}