{"hash": "5d34964ba9ea727bb89deb48f80a765afd89a05e4866b1b182d763a4e023a10d", "blockhash": "0000000000000000001f76057863aec43deb6fa401d9628bb513d65a8098bfab", "vout": [{"scriptPubKey": {"reqSigs": 1, "hex": "76a91438257398f2ec2310aeef3d521168756189b475c688ac", "addresses": ["167shvUbHmbmaMoNVgvPT92KiET3Bh3txo"], "asm": "OP_DUP OP_HASH160 38257398f2ec2310aeef3d521168756189b475c6 OP_EQUALVERIFY OP_CHECKSIG", "type": "pubkeyhash"}, "value": 0.02431722, "n": 0}, {"scriptPubKey": {"reqSigs": 1, "hex": "76a914712af7c2fac4a9743fa0dee077720dcdaf9e54ad88ac", "addresses": ["1BKNq8jCR5yKjFm5rZp29QbSCkkPMfwWQE"], "asm": "OP_DUP OP_HASH160 712af7c2fac4a9743fa0dee077720dcdaf9e54ad OP_EQUALVERIFY OP_CHECKSIG", "type": "pubkeyhash"}, "value": 0.03869859, "n": 1}], "hex": "0100000001ddbe01b92d78db8b0daa68b925d6e2e3fc6caa463930f74bb68ccc4eb0c9d883010000006b483045022100c36febc9f646cf9f4a611bc0b9623de99ba729414aaf8f43abc0a8edb961e56202201c9403aa65102c70c9dd6138ba91910b1d326e2bf9c56b86b5f3fa4fb140e0a40121033e227041a65f2d6cee4c27660a23b65736b05cee0feb8fc53c0ac0d49946ac8dffffffff02ea1a2500000000001976a91438257398f2ec2310aeef3d521168756189b475c688aca30c3b00000000001976a914712af7c2fac4a9743fa0dee077720dcdaf9e54ad88ac00000000", "vin": [{"sequence": 4294967295, "scriptSig": {"hex": "483045022100c36febc9f646cf9f4a611bc0b9623de99ba729414aaf8f43abc0a8edb961e56202201c9403aa65102c70c9dd6138ba91910b1d326e2bf9c56b86b5f3fa4fb140e0a40121033e227041a65f2d6cee4c27660a23b65736b05cee0feb8fc53c0ac0d49946ac8d", "asm": "3045022100c36febc9f646cf9f4a611bc0b9623de99ba729414aaf8f43abc0a8edb961e56202201c9403aa65102c70c9dd6138ba91910b1d326e2bf9c56b86b5f3fa4fb140e0a4[ALL] 033e227041a65f2d6cee4c27660a23b65736b05cee0feb8fc53c0ac0d49946ac8d"}, "vout": 1, "txid": "83d8c9b04ecc8cb64bf7303946aa6cfce3e2d625b968aa0d8bdb782db901bedd"}], "txid": "5d34964ba9ea727bb89deb48f80a765afd89a05e4866b1b182d763a4e023a10d", "blocktime": 1537873891, "version": 1, "confirmations": 11477, "time": 1537873891, "locktime": 0, "vsize": 226, "size": 226}