{"hash": "5d34f4298ae3a3008fe50459284377420da77a1d815d3b1c02061e7c4ade5a7c", "blockhash": "0000000000000000001e0dab787dd257d1dbfcb92a98c2207d5e1078be1f4165", "vout": [{"scriptPubKey": {"reqSigs": 1, "hex": "a9141f5564bd2e8f381d4b962d5f86cb2f2c262ba92387", "addresses": ["34YhAjdAe6FinZbB8wPKE8QdrReiNYpsZp"], "asm": "OP_HASH160 1f5564bd2e8f381d4b962d5f86cb2f2c262ba923 OP_EQUAL", "type": "scripthash"}, "value": 0.00049541, "n": 0}, {"scriptPubKey": {"reqSigs": 1, "hex": "76a91400ca451414a739a76d377b8b3f8673f8d6ed7ac088ac", "addresses": ["115BJxNcy6WC66z5s65o2SC9du9w5SuUAo"], "asm": "OP_DUP OP_HASH160 00ca451414a739a76d377b8b3f8673f8d6ed7ac0 OP_EQUALVERIFY OP_CHECKSIG", "type": "pubkeyhash"}, "value": 0.00719607, "n": 1}], "hex": "0100000001ef241870bdccc9fe103bd20f8e0584b0f34d352748a22a980490ce79415abc2000000000fc00473044022030d10b3f72bc3c86bd03cbdf930ca8fc2dedd26da5b8a0a1e2415ba1eaae467502200cdb1ea022b9c573c9c23b44e14cc34ef87cfd795b4d98202480c8cf7adbe32a0147304402202cd702fba415bf1b8da904cb5ed5be9a3f60f5136988916e46a44f686e40534f02202dcf1335cdd3a64a718722eb6626fab6526c81562c3a228ef0f7a2f8f2a1a4b8014c695221032f77e91cae84c0c91419f8e1363f4443397f97db3a9c32b8adc66d0153cb4cc621038edd386313be8ba627895bf8d991d1c4559db81610f2154c1c13cf10bc9c52a82103cc86313a805e176487ac8db122b33c207a1a0827089222c5c03718e3a3e038ef53aeffffffff0285c100000000000017a9141f5564bd2e8f381d4b962d5f86cb2f2c262ba92387f7fa0a00000000001976a91400ca451414a739a76d377b8b3f8673f8d6ed7ac088ac00000000", "vin": [{"sequence": 4294967295, "scriptSig": {"hex": "00473044022030d10b3f72bc3c86bd03cbdf930ca8fc2dedd26da5b8a0a1e2415ba1eaae467502200cdb1ea022b9c573c9c23b44e14cc34ef87cfd795b4d98202480c8cf7adbe32a0147304402202cd702fba415bf1b8da904cb5ed5be9a3f60f5136988916e46a44f686e40534f02202dcf1335cdd3a64a718722eb6626fab6526c81562c3a228ef0f7a2f8f2a1a4b8014c695221032f77e91cae84c0c91419f8e1363f4443397f97db3a9c32b8adc66d0153cb4cc621038edd386313be8ba627895bf8d991d1c4559db81610f2154c1c13cf10bc9c52a82103cc86313a805e176487ac8db122b33c207a1a0827089222c5c03718e3a3e038ef53ae", "asm": "0 3044022030d10b3f72bc3c86bd03cbdf930ca8fc2dedd26da5b8a0a1e2415ba1eaae467502200cdb1ea022b9c573c9c23b44e14cc34ef87cfd795b4d98202480c8cf7adbe32a[ALL] 304402202cd702fba415bf1b8da904cb5ed5be9a3f60f5136988916e46a44f686e40534f02202dcf1335cdd3a64a718722eb6626fab6526c81562c3a228ef0f7a2f8f2a1a4b8[ALL] 5221032f77e91cae84c0c91419f8e1363f4443397f97db3a9c32b8adc66d0153cb4cc621038edd386313be8ba627895bf8d991d1c4559db81610f2154c1c13cf10bc9c52a82103cc86313a805e176487ac8db122b33c207a1a0827089222c5c03718e3a3e038ef53ae"}, "vout": 0, "txid": "20bc5a4179ce9004982aa24827354df3b084058e0fd23b10fec9ccbd701824ef"}], "txid": "5d34f4298ae3a3008fe50459284377420da77a1d815d3b1c02061e7c4ade5a7c", "blocktime": 1537872475, "version": 1, "confirmations": 11486, "time": 1537872475, "locktime": 0, "vsize": 369, "size": 369}