{"hash": "e308967f3d7900f94d09b7c2cdabba6b2cc9925a6c8960651163930355a80f3c", "blockhash": "0000000000000000001cda96e906b7601b7a6fb1a3b62bca570a9e5d8f4b3de1", "vout": [{"scriptPubKey": {"reqSigs": 1, "hex": "a914fad464890293c2b7e806dddc823c3e683d338eae87", "addresses": ["3QZHHohUaUbHe9dp5QAREpwtp1JvUvavBE"], "asm": "OP_HASH160 fad464890293c2b7e806dddc823c3e683d338eae OP_EQUAL", "type": "scripthash"}, "value": 2.57205779, "n": 0}, {"scriptPubKey": {"reqSigs": 1, "hex": "76a9145f7e6b2970ddbfc0f8a74bc714ac69639480d84d88ac", "addresses": ["19hvdweqbdXb6RT36cLgkkdD8ubxyDUCD5"], "asm": "OP_DUP OP_HASH160 5f7e6b2970ddbfc0f8a74bc714ac69639480d84d OP_EQUALVERIFY OP_CHECKSIG", "type": "pubkeyhash"}, "value": 0.00577353, "n": 1}], "hex": "020000000001010058e1ff70ed7e7c8edf52b9623142a3857a76dc827b7778fbe102828eed1d250100000017160014bc49993f8c63704580449572b485d7c2c8b631c5feffffff0213a6540f0000000017a914fad464890293c2b7e806dddc823c3e683d338eae8749cf0800000000001976a9145f7e6b2970ddbfc0f8a74bc714ac69639480d84d88ac02483045022100d46d9db5ca700a010b1b22f1ea455d6e4bcfaac75e99478b19409ded49764b8502201e3981337ac3a3564e4489b0cba8a537cb773c6e936b492ac7d2bd5ef46563ec012102f50015e6d2c8e2ea3814d7e3b1763e30cb5d34ed08afa711e7bd72e68ac0d3e413490800", "vin": [{"txinwitness": ["3045022100d46d9db5ca700a010b1b22f1ea455d6e4bcfaac75e99478b19409ded49764b8502201e3981337ac3a3564e4489b0cba8a537cb773c6e936b492ac7d2bd5ef46563ec01", "02f50015e6d2c8e2ea3814d7e3b1763e30cb5d34ed08afa711e7bd72e68ac0d3e4"], "sequence": 4294967294, "scriptSig": {"hex": "160014bc49993f8c63704580449572b485d7c2c8b631c5", "asm": "0014bc49993f8c63704580449572b485d7c2c8b631c5"}, "vout": 1, "txid": "251ded8e8202e1fb78777b82dc767a85a3423162b952df8e7c7eed70ffe15800"}], "txid": "5d36191998e31050547b8bc1f46d7e41f4c99727a7bf4a802f3229fd634c6aed", "blocktime": 1537873282, "version": 2, "confirmations": 11484, "time": 1537873282, "locktime": 542995, "vsize": 168, "size": 250}