{"hash": "8669e763b9205f8281b8d06489bb7782979793198e50624bb365d7bcb1f6f958", "blockhash": "0000000000000000000e13cef7c366c0283d82e591d1acd082e914b08063cdf1", "vout": [{"scriptPubKey": {"reqSigs": 1, "hex": "002058c8797f181e000075cb9a18a9662013b795012e86acc04d56a2d229e7b8d7c4", "addresses": ["bc1qtry8jlccrcqqqawtngv2je3qzwme2qfws6kvqn2k5tfzneac6lzqpgummp"], "asm": "0 58c8797f181e000075cb9a18a9662013b795012e86acc04d56a2d229e7b8d7c4", "type": "witness_v0_scripthash"}, "value": 0.00119574, "n": 0}], "hex": "010000000001018d5daf1a7d0aa1a0e62f7fd5cdda544d187f49a4aed179c60aa5643bbb16fb1f0e0000001716001428f396f6c487f1bd0596cdcf21b079da3de203c4ffffffff0116d301000000000022002058c8797f181e000075cb9a18a9662013b795012e86acc04d56a2d229e7b8d7c402483045022100e3f1f0e05a56b01cf4f2816c94d9438abdf42a4192303824bf6b9dffa2cd7e41022046512e3af11f6a41a1c3ab9213ba7411dfccd9cf1f2e3445a38a7b7bcf79924601210281484deb7693ab013054465f928a3ed8d66b0b9ac8e1626e1bc4fb11e337761a00000000", "vin": [{"txinwitness": ["3045022100e3f1f0e05a56b01cf4f2816c94d9438abdf42a4192303824bf6b9dffa2cd7e41022046512e3af11f6a41a1c3ab9213ba7411dfccd9cf1f2e3445a38a7b7bcf79924601", "0281484deb7693ab013054465f928a3ed8d66b0b9ac8e1626e1bc4fb11e337761a"], "sequence": 4294967295, "scriptSig": {"hex": "16001428f396f6c487f1bd0596cdcf21b079da3de203c4", "asm": "001428f396f6c487f1bd0596cdcf21b079da3de203c4"}, "vout": 14, "txid": "1ffb16bb3b64a50ac679d1aea4497f184d54dacdd57f2fe6a0a10a7d1aaf5d8d"}], "txid": "5d39ec5fdb081456837ab9e1986b82da8481787432d34e46bc2aa83b7a548f33", "blocktime": 1537871767, "version": 1, "confirmations": 11495, "time": 1537871767, "locktime": 0, "vsize": 145, "size": 227}