{"hash": "64977a7ebf2d8438499feaee127383f8698c942d07ea582e5a2ed0a0055adb81", "blockhash": "0000000000000000001cda96e906b7601b7a6fb1a3b62bca570a9e5d8f4b3de1", "vout": [{"scriptPubKey": {"reqSigs": 1, "hex": "a9146c578217236de330de4f754e972b45cd5fae2ba987", "addresses": ["3BZsjSCrZtJK7q9fZc6kzuZcPU8jCSj9pd"], "asm": "OP_HASH160 6c578217236de330de4f754e972b45cd5fae2ba9 OP_EQUAL", "type": "scripthash"}, "value": 0.00999621, "n": 0}, {"scriptPubKey": {"reqSigs": 1, "hex": "76a914a8d14ccf350599411331bfc3c7a17d02dc078df988ac", "addresses": ["1GPdFeeGJHdEZWYKu2yStedN2EGhNbmSXs"], "asm": "OP_DUP OP_HASH160 a8d14ccf350599411331bfc3c7a17d02dc078df9 OP_EQUALVERIFY OP_CHECKSIG", "type": "pubkeyhash"}, "value": 0.0031106, "n": 1}], "hex": "0200000000010258487d0fb58018508d91aee6f923cbcd4f418b4ff0d151322f09772365b9d264060000001716001430d16a322213f00287298b6ca3b313b8a1864a99feffffff6a80c139f9fecfaf9305f9a9744dd1fee66c8c3e080ccb9a1fcb87487dbd48dd000000001716001415347e9afd35e2917b5875e9bc762467c9baff3ffeffffff02c5400f000000000017a9146c578217236de330de4f754e972b45cd5fae2ba98714bf0400000000001976a914a8d14ccf350599411331bfc3c7a17d02dc078df988ac02483045022100dfe9eff7ca13723e7e15fc31819e7e232b355cb311d35c3b45dbea684165768e0220120c4003e32048a95f4fa218a4c11fbe7e99a1952f5a53ee6372114fff8092450121030d7e531f3784ecada4f4e6881bf417ad276b5e4f16737ae7921d4d9a2b0e5a4e02483045022100b1cedde0c9a528a246bb696aaec886ac3134c8e8a29c953839d9f11e2f45790a02205e8b06f1ebe76a15e21f8b397edcb3cb6911c146c4b7c1502d41598b344edf5a012102daecca965b2f2fe4f97fa4a5a965a8c1d47a54d3b24ab01d2a0447c2d68d19f513490800", "vin": [{"txinwitness": ["3045022100dfe9eff7ca13723e7e15fc31819e7e232b355cb311d35c3b45dbea684165768e0220120c4003e32048a95f4fa218a4c11fbe7e99a1952f5a53ee6372114fff80924501", "030d7e531f3784ecada4f4e6881bf417ad276b5e4f16737ae7921d4d9a2b0e5a4e"], "sequence": 4294967294, "scriptSig": {"hex": "16001430d16a322213f00287298b6ca3b313b8a1864a99", "asm": "001430d16a322213f00287298b6ca3b313b8a1864a99"}, "vout": 6, "txid": "64d2b9652377092f3251d1f04f8b414fcdcb23f9e6ae918d501880b50f7d4858"}, {"txinwitness": ["3045022100b1cedde0c9a528a246bb696aaec886ac3134c8e8a29c953839d9f11e2f45790a02205e8b06f1ebe76a15e21f8b397edcb3cb6911c146c4b7c1502d41598b344edf5a01", "02daecca965b2f2fe4f97fa4a5a965a8c1d47a54d3b24ab01d2a0447c2d68d19f5"], "sequence": 4294967294, "scriptSig": {"hex": "16001415347e9afd35e2917b5875e9bc762467c9baff3f", "asm": "001415347e9afd35e2917b5875e9bc762467c9baff3f"}, "vout": 0, "txid": "dd48bd7d4887cb1f9acb0c083e8c6ce6fed14d74a9f90593afcffef939c1806a"}], "txid": "5d39752adf043224208dc1586708bb113a79917df0c77c5d259ea3f1f61f9e3a", "blocktime": 1537873282, "version": 2, "confirmations": 11484, "time": 1537873282, "locktime": 542995, "vsize": 259, "size": 422}