{"hash": "5d3e7554e4d0834ade42f6a2588bda1fa88df882d3f0d82133d672fce895ab2b", "blockhash": "0000000000000000000baef3f32e3676a92c3b2e5da21b426e4f302fc371ce76", "vout": [{"scriptPubKey": {"reqSigs": 1, "hex": "76a91429094251276a6ba9a6bb8112e15fa30c82c3a20288ac", "addresses": ["14jyoCKaANa1QPgzoaRZQfcsiunC4mL5Hh"], "asm": "OP_DUP OP_HASH160 29094251276a6ba9a6bb8112e15fa30c82c3a202 OP_EQUALVERIFY OP_CHECKSIG", "type": "pubkeyhash"}, "value": 0.00129013, "n": 0}, {"scriptPubKey": {"reqSigs": 1, "hex": "76a914e349bc52d6b8100b58d3fce45135a91c5c128a1d88ac", "addresses": ["1MiningDkXkhKaXBTMKXfLemnk1YY5rbkT"], "asm": "OP_DUP OP_HASH160 e349bc52d6b8100b58d3fce45135a91c5c128a1d OP_EQUALVERIFY OP_CHECKSIG", "type": "pubkeyhash"}, "value": 0.10251592, "n": 1}], "hex": "020000000120a7f7c810a91b6ead30e69ec82f4ecc55674faffd8e40d1d447af215ae76b9a010000008a47304402200765045990bf4d66b697fcd1a59eb00fbb906e819dbe99d1f0c8892ebcc8c3a702202dcf87b12804a466094826829e1b4a5bc5e5e493d02c1a82221c89fcfb42095a014104ae414abde7876c34e01694b38b2341d10b9b4c8db18a66262bd8df26bcb57893885c9fe8b79aa25330d5f05bb5aa9ab636a908a72e27956572b44190b22809beffffffff02f5f70100000000001976a91429094251276a6ba9a6bb8112e15fa30c82c3a20288ac486d9c00000000001976a914e349bc52d6b8100b58d3fce45135a91c5c128a1d88ac00000000", "vin": [{"sequence": 4294967295, "scriptSig": {"hex": "47304402200765045990bf4d66b697fcd1a59eb00fbb906e819dbe99d1f0c8892ebcc8c3a702202dcf87b12804a466094826829e1b4a5bc5e5e493d02c1a82221c89fcfb42095a014104ae414abde7876c34e01694b38b2341d10b9b4c8db18a66262bd8df26bcb57893885c9fe8b79aa25330d5f05bb5aa9ab636a908a72e27956572b44190b22809be", "asm": "304402200765045990bf4d66b697fcd1a59eb00fbb906e819dbe99d1f0c8892ebcc8c3a702202dcf87b12804a466094826829e1b4a5bc5e5e493d02c1a82221c89fcfb42095a[ALL] 04ae414abde7876c34e01694b38b2341d10b9b4c8db18a66262bd8df26bcb57893885c9fe8b79aa25330d5f05bb5aa9ab636a908a72e27956572b44190b22809be"}, "vout": 1, "txid": "9a6be75a21af47d4d1408efdaf4f6755cc4e2fc89ee630ad6e1ba910c8f7a720"}], "txid": "5d3e7554e4d0834ade42f6a2588bda1fa88df882d3f0d82133d672fce895ab2b", "blocktime": 1537876114, "version": 2, "confirmations": 11460, "time": 1537876114, "locktime": 0, "vsize": 257, "size": 257}