{"hash": "fe444b675283e136603794c5539f94e3281ee7495057326437e0f52deeb4dac7", "blockhash": "00000000000000000018f53835495a110e01622372bf6ae95dc86f2b0ab887b0", "vout": [{"scriptPubKey": {"reqSigs": 1, "hex": "a91485380b2532720d000a2b263953253cd36bb2d1b887", "addresses": ["3DqQw2iRByPj2mCwp9S5Sjti1uT2weNEtg"], "asm": "OP_HASH160 85380b2532720d000a2b263953253cd36bb2d1b8 OP_EQUAL", "type": "scripthash"}, "value": 0.00149965, "n": 0}, {"scriptPubKey": {"reqSigs": 1, "hex": "a91474cd529613d117dda31a1236e89936112e7c907187", "addresses": ["3CLcGrsL2sxGBpFrtD87KRwqHum1kmqpZw"], "asm": "OP_HASH160 74cd529613d117dda31a1236e89936112e7c9071 OP_EQUAL", "type": "scripthash"}, "value": 0.0012476, "n": 1}], "hex": "01000000000102db8c72081159191b43a80eec5d2f9f39101cc2cec434d070835ddd987ef44d7f010000002322002092f149c13e199c76d1d3fac2d7ef83bf02bd3b93b4fefaa50c160f0a37304ad8ffffffff12535962e7924e50f83a49aea402d699433ec4774403c462155feb61d61d2b60010000002322002048aa73a7b7633e620a1bd23cd12c6b43d6409feaca46d8c41a2ab9be45193571ffffffff02cd4902000000000017a91485380b2532720d000a2b263953253cd36bb2d1b88758e701000000000017a91474cd529613d117dda31a1236e89936112e7c9071870400483045022100ae1a87c6c6b338e4eb43c55e90084c7a393cf1bd928a7f342ec85ccacb39292102202d88b5010f28c3c803280329c0e69c53825770757ba04caa5768f17a2bd89f1e01483045022100e347125153f7d5f91fcd3f79e2119e052fc308bb338d2ac2775e8178fa487a910220548df020af6182cd1553790493710befa0ef7e4f2afc3621900fbaaebbc1aa310147522102b1cb24067d8838cbad364de2d5c7fad564c1553148968e48ad58ddbdf48fcb692103871fc2ca08e6950b38867e8e6a0e94ee625223d3aa0df5c65f414c6d784467e252ae04004730440220369451f2f0fc0a4c87103aa0d048ca91a8f72778d23ab5368e3387162607ee3c02200911db03cdb46d094bf019c82c7703d65f0626356141d431f7fa6412565efe1d0147304402204b423dce9bd2a9f8c8b526e7836a4a7a7e366813b4daadad71074fff987ef97802207d6719d451da988c2f067507d9039064ed3b2d6b554bcf3059f1e7f0564c641c0147522103d9627eca6b6a406d71acb9691965ad65ba1c0d8322fd66b4be1b8ef0e08b29d62103871fc2ca08e6950b38867e8e6a0e94ee625223d3aa0df5c65f414c6d784467e252ae00000000", "vin": [{"txinwitness": ["", "3045022100ae1a87c6c6b338e4eb43c55e90084c7a393cf1bd928a7f342ec85ccacb39292102202d88b5010f28c3c803280329c0e69c53825770757ba04caa5768f17a2bd89f1e01", "3045022100e347125153f7d5f91fcd3f79e2119e052fc308bb338d2ac2775e8178fa487a910220548df020af6182cd1553790493710befa0ef7e4f2afc3621900fbaaebbc1aa3101", "522102b1cb24067d8838cbad364de2d5c7fad564c1553148968e48ad58ddbdf48fcb692103871fc2ca08e6950b38867e8e6a0e94ee625223d3aa0df5c65f414c6d784467e252ae"], "sequence": 4294967295, "scriptSig": {"hex": "22002092f149c13e199c76d1d3fac2d7ef83bf02bd3b93b4fefaa50c160f0a37304ad8", "asm": "002092f149c13e199c76d1d3fac2d7ef83bf02bd3b93b4fefaa50c160f0a37304ad8"}, "vout": 1, "txid": "7f4df47e98dd5d8370d034c4cec21c10399f2f5dec0ea8431b19591108728cdb"}, {"txinwitness": ["", "30440220369451f2f0fc0a4c87103aa0d048ca91a8f72778d23ab5368e3387162607ee3c02200911db03cdb46d094bf019c82c7703d65f0626356141d431f7fa6412565efe1d01", "304402204b423dce9bd2a9f8c8b526e7836a4a7a7e366813b4daadad71074fff987ef97802207d6719d451da988c2f067507d9039064ed3b2d6b554bcf3059f1e7f0564c641c01", "522103d9627eca6b6a406d71acb9691965ad65ba1c0d8322fd66b4be1b8ef0e08b29d62103871fc2ca08e6950b38867e8e6a0e94ee625223d3aa0df5c65f414c6d784467e252ae"], "sequence": 4294967295, "scriptSig": {"hex": "22002048aa73a7b7633e620a1bd23cd12c6b43d6409feaca46d8c41a2ab9be45193571", "asm": "002048aa73a7b7633e620a1bd23cd12c6b43d6409feaca46d8c41a2ab9be45193571"}, "vout": 1, "txid": "602b1dd661eb5f1562c4034477c43e4399d602a4ae493af8504e92e762595312"}], "txid": "5d4075fd5b5073bc39b4bc2094e5cbcbaab339b9eb10b78cbfdbe03022d7231a", "blocktime": 1537870928, "version": 1, "confirmations": 11514, "time": 1537870928, "locktime": 0, "vsize": 336, "size": 666}