{"hash": "5d41ee96b66b46e699af1ca5dd97623f19bf8278a1844f8cb76107dd7c6a9027", "blockhash": "0000000000000000000dcc0f55137456b1a82d3642486a52398922ac4d620174", "vout": [{"scriptPubKey": {"reqSigs": 1, "hex": "76a914ffdcc8f69d2757011266f81c48a011fc9109f4d788ac", "addresses": ["1QKsoL3jLubKZTH2NMtigoQfupScAcSD89"], "asm": "OP_DUP OP_HASH160 ffdcc8f69d2757011266f81c48a011fc9109f4d7 OP_EQUALVERIFY OP_CHECKSIG", "type": "pubkeyhash"}, "value": 0.0095, "n": 0}, {"scriptPubKey": {"reqSigs": 1, "hex": "76a91408e800e702604e8b65d8a2b59e4e030c4d0ec22788ac", "addresses": ["1p6LRV8cWWi6Y1bsvs9pZqWuwZt8ZVYKX"], "asm": "OP_DUP OP_HASH160 08e800e702604e8b65d8a2b59e4e030c4d0ec227 OP_EQUALVERIFY OP_CHECKSIG", "type": "pubkeyhash"}, "value": 0.34482945, "n": 1}, {"scriptPubKey": {"reqSigs": 1, "hex": "76a91496ab00248349957872c7138a1df9f78e42843f1788ac", "addresses": ["1EjfD6tfuNywVbBBfUU7cr4ZZyXH48qAaw"], "asm": "OP_DUP OP_HASH160 96ab00248349957872c7138a1df9f78e42843f17 OP_EQUALVERIFY OP_CHECKSIG", "type": "pubkeyhash"}, "value": 0.93228909, "n": 2}], "hex": "0200000001465e8ea093a5953c5be5e4b4420476fb009063d8c3df4d044901a8198082afdb000000006a47304402202293e7d54839023971dd93a0692b0fcccecf2a64df38ae10c931e1a0fa093ec30220073c34945a0722a2adf8b2943510aebfc9bfac91a61de0bc3832aec4082b9e80012103f8a75a32712e996d6fc4b5776234b5a5ca8ec1d047c39d168e592c8a0f9df71dfeffffff03f07e0e00000000001976a914ffdcc8f69d2757011266f81c48a011fc9109f4d788ac012b0e02000000001976a91408e800e702604e8b65d8a2b59e4e030c4d0ec22788ac6d8f8e05000000001976a91496ab00248349957872c7138a1df9f78e42843f1788ac0c490800", "vin": [{"sequence": 4294967294, "scriptSig": {"hex": "47304402202293e7d54839023971dd93a0692b0fcccecf2a64df38ae10c931e1a0fa093ec30220073c34945a0722a2adf8b2943510aebfc9bfac91a61de0bc3832aec4082b9e80012103f8a75a32712e996d6fc4b5776234b5a5ca8ec1d047c39d168e592c8a0f9df71d", "asm": "304402202293e7d54839023971dd93a0692b0fcccecf2a64df38ae10c931e1a0fa093ec30220073c34945a0722a2adf8b2943510aebfc9bfac91a61de0bc3832aec4082b9e80[ALL] 03f8a75a32712e996d6fc4b5776234b5a5ca8ec1d047c39d168e592c8a0f9df71d"}, "vout": 0, "txid": "dbaf828019a80149044ddfc3d8639000fb760442b4e4e55b3c95a593a08e5e46"}], "txid": "5d41ee96b66b46e699af1ca5dd97623f19bf8278a1844f8cb76107dd7c6a9027", "blocktime": 1537870268, "version": 2, "confirmations": 11516, "time": 1537870268, "locktime": 542988, "vsize": 259, "size": 259}