{"hash": "a6fbb4cd58c146128320fe40fade9d105a698209eaefb21ad1262900bf756ab6", "blockhash": "00000000000000000018f53835495a110e01622372bf6ae95dc86f2b0ab887b0", "vout": [{"scriptPubKey": {"reqSigs": 1, "hex": "76a914bc443bbd8771a8be90f3f3b05a386bbab346857888ac", "addresses": ["1JATn14pptSbLEptwYZs16BNN5HT8grYLR"], "asm": "OP_DUP OP_HASH160 bc443bbd8771a8be90f3f3b05a386bbab3468578 OP_EQUALVERIFY OP_CHECKSIG", "type": "pubkeyhash"}, "value": 6.8, "n": 0}, {"scriptPubKey": {"reqSigs": 1, "hex": "a914979a7d4cbf37606dd59ef7e6291a3f6dac08243a87", "addresses": ["3FWd2dEMUfL5ndBxduKHYnLaMUTFuYC8cU"], "asm": "OP_HASH160 979a7d4cbf37606dd59ef7e6291a3f6dac08243a OP_EQUAL", "type": "scripthash"}, "value": 4.07139068, "n": 1}], "hex": "010000000001019789b5d08dce57bc91e67d91785b3b8de7528f3bf1427c2b9c8b14ba023583df010000001716001413b2761855f96a3fa323b719ae147300855be813ffffffff0200fa8728000000001976a914bc443bbd8771a8be90f3f3b05a386bbab346857888acfc7244180000000017a914979a7d4cbf37606dd59ef7e6291a3f6dac08243a8702483045022100b2a1e8a8cdb60b4e92e5c75bb34d6fd58181a0902dd0b16ab964239eafa016030220045263c695dc7914a34f282986f9dfb5bffa537c523cd9c78449c5ea70b411cf012103c84a43858a7040d9a5721ec0f496dc9c3ae35b456bed2ed8e8443000ea9d19a000000000", "vin": [{"txinwitness": ["3045022100b2a1e8a8cdb60b4e92e5c75bb34d6fd58181a0902dd0b16ab964239eafa016030220045263c695dc7914a34f282986f9dfb5bffa537c523cd9c78449c5ea70b411cf01", "03c84a43858a7040d9a5721ec0f496dc9c3ae35b456bed2ed8e8443000ea9d19a0"], "sequence": 4294967295, "scriptSig": {"hex": "16001413b2761855f96a3fa323b719ae147300855be813", "asm": "001413b2761855f96a3fa323b719ae147300855be813"}, "vout": 1, "txid": "df833502ba148b9c2b7c42f13b8f52e78d3b5b78917de691bc57ce8dd0b58997"}], "txid": "5d4246d592ae6fd9ca6a267c8229500547710b760c02b3f09350ef297cbb4877", "blocktime": 1537870928, "version": 1, "confirmations": 11512, "time": 1537870928, "locktime": 0, "vsize": 168, "size": 250}