{"hash": "58bc272e3df1974e938aac69cfaa09546a2798d051b93be7837428a5fd0b2215", "blockhash": "0000000000000000001cda96e906b7601b7a6fb1a3b62bca570a9e5d8f4b3de1", "vout": [{"scriptPubKey": {"reqSigs": 1, "hex": "76a91445991e4850cd362b22363b099fe59623dc2ec89788ac", "addresses": ["17M145jiwB4iJGpiWJbnqA2zhjLYtiHGFr"], "asm": "OP_DUP OP_HASH160 45991e4850cd362b22363b099fe59623dc2ec897 OP_EQUALVERIFY OP_CHECKSIG", "type": "pubkeyhash"}, "value": 2.5, "n": 0}, {"scriptPubKey": {"reqSigs": 1, "hex": "a914f28052bf4f55c724ebd29c933a0ca8017b894b1987", "addresses": ["3PoFB2BSCWWoH5DJVABQJF8QFk2AY4dJe6"], "asm": "OP_HASH160 f28052bf4f55c724ebd29c933a0ca8017b894b19 OP_EQUAL", "type": "scripthash"}, "value": 0.00399, "n": 1}], "hex": "010000000001011db2ec3d5324c30346a6d02ff5e32ef467fc206250329ed32c4cf344692631da000000001716001491d5022d50ede0977b29d61c0228884ee7f4e8d0ffffffff0280b2e60e000000001976a91445991e4850cd362b22363b099fe59623dc2ec89788ac981606000000000017a914f28052bf4f55c724ebd29c933a0ca8017b894b198702483045022100b1d63737cfb5eb1a3cdf3fb151d7fa5be8af811e8d2e3404171de32de2d05b7602207d23a54dfb24c1b83bf9a847917b0166ee80af98d6029788a69334760b94bfcc012102d3acb749262a17edcf76b6a534d700100a9da55be868ab39066079f6fb02dc3c00000000", "vin": [{"txinwitness": ["3045022100b1d63737cfb5eb1a3cdf3fb151d7fa5be8af811e8d2e3404171de32de2d05b7602207d23a54dfb24c1b83bf9a847917b0166ee80af98d6029788a69334760b94bfcc01", "02d3acb749262a17edcf76b6a534d700100a9da55be868ab39066079f6fb02dc3c"], "sequence": 4294967295, "scriptSig": {"hex": "16001491d5022d50ede0977b29d61c0228884ee7f4e8d0", "asm": "001491d5022d50ede0977b29d61c0228884ee7f4e8d0"}, "vout": 0, "txid": "da31266944f34c2cd39e32506220fc67f42ee3f52fd0a64603c324533decb21d"}], "txid": "5d465297d9f7f006ad0453e04456904393b41369ebadfc768b64fe6050535078", "blocktime": 1537873282, "version": 1, "confirmations": 11483, "time": 1537873282, "locktime": 0, "vsize": 168, "size": 250}