{"hash": "5d589c2eb933de208cd7e423d9b956d1a5298c22f9be24d6d0a98eea4ec25208", "blockhash": "0000000000000000000e13cef7c366c0283d82e591d1acd082e914b08063cdf1", "vout": [{"scriptPubKey": {"reqSigs": 1, "hex": "76a9142bce5c2542537ae14744483a022775ed83b2fe9988ac", "addresses": ["14zdGPZRbZqnsVENDXidB3dJcnhUpUf72r"], "asm": "OP_DUP OP_HASH160 2bce5c2542537ae14744483a022775ed83b2fe99 OP_EQUALVERIFY OP_CHECKSIG", "type": "pubkeyhash"}, "value": 3.636e-05, "n": 0}, {"scriptPubKey": {"reqSigs": 1, "hex": "76a9147214a221d380c81e51b0cc2c7c669de4c28a0f1288ac", "addresses": ["1BQCkVrWRSVSZbGMLdDJ4cmsgf7d1G1Fb2"], "asm": "OP_DUP OP_HASH160 7214a221d380c81e51b0cc2c7c669de4c28a0f12 OP_EQUALVERIFY OP_CHECKSIG", "type": "pubkeyhash"}, "value": 0.00312361, "n": 1}], "hex": "0100000002a417fa4950a7b00e6c91dc22c591b4d2e29eb53902381ab82adffb728b7feb38000000006b483045022100fb0aa55f924b27d3b45f1993a8e62df3fe2846852dd0833c971ef9c1236e6a55022063e545c90773a291a0d51f2a883f02f40c8b7d44071abc77ec1bfa6504151ed301210248d80f8579f33aebdf1f726021e194b022ca549c95511273b1c59eb6824f89d6ffffffffd804bda1a6d40f1c3e9e75835e5c5ee4c81c65eea7e9a58adc07ec04957e1f48000000006b4830450221008f8f75096d9399e846ab01ce6280f1c981fa9a22aa22298311eff308762589e5022043942a3b73752d633e6481e0245a8d2ae2dfecdecae58a22810097786e21f80b012103b06008c81e611d1e77f56ebdea5fb8b1d93ab439c4f0ec6564263574eafb8edcffffffff02340e0000000000001976a9142bce5c2542537ae14744483a022775ed83b2fe9988ac29c40400000000001976a9147214a221d380c81e51b0cc2c7c669de4c28a0f1288ac00000000", "vin": [{"sequence": 4294967295, "scriptSig": {"hex": "483045022100fb0aa55f924b27d3b45f1993a8e62df3fe2846852dd0833c971ef9c1236e6a55022063e545c90773a291a0d51f2a883f02f40c8b7d44071abc77ec1bfa6504151ed301210248d80f8579f33aebdf1f726021e194b022ca549c95511273b1c59eb6824f89d6", "asm": "3045022100fb0aa55f924b27d3b45f1993a8e62df3fe2846852dd0833c971ef9c1236e6a55022063e545c90773a291a0d51f2a883f02f40c8b7d44071abc77ec1bfa6504151ed3[ALL] 0248d80f8579f33aebdf1f726021e194b022ca549c95511273b1c59eb6824f89d6"}, "vout": 0, "txid": "38eb7f8b72fbdf2ab81a380239b59ee2d2b491c522dc916c0eb0a75049fa17a4"}, {"sequence": 4294967295, "scriptSig": {"hex": "4830450221008f8f75096d9399e846ab01ce6280f1c981fa9a22aa22298311eff308762589e5022043942a3b73752d633e6481e0245a8d2ae2dfecdecae58a22810097786e21f80b012103b06008c81e611d1e77f56ebdea5fb8b1d93ab439c4f0ec6564263574eafb8edc", "asm": "30450221008f8f75096d9399e846ab01ce6280f1c981fa9a22aa22298311eff308762589e5022043942a3b73752d633e6481e0245a8d2ae2dfecdecae58a22810097786e21f80b[ALL] 03b06008c81e611d1e77f56ebdea5fb8b1d93ab439c4f0ec6564263574eafb8edc"}, "vout": 0, "txid": "481f7e9504ec07dc8aa5e9a7ee651cc8e45e5c5e83759e3e1c0fd4a6a1bd04d8"}], "txid": "5d589c2eb933de208cd7e423d9b956d1a5298c22f9be24d6d0a98eea4ec25208", "blocktime": 1537871767, "version": 1, "confirmations": 11495, "time": 1537871767, "locktime": 0, "vsize": 374, "size": 374}