{"hash": "bd79768440ab9fa0b103d583545e81fe6c85d89db700071b029cc6d85dbd57c8", "blockhash": "0000000000000000001e0dab787dd257d1dbfcb92a98c2207d5e1078be1f4165", "vout": [{"scriptPubKey": {"reqSigs": 1, "hex": "a9142ee6a0142b8ce5fe2ae0d97f33a10d7dc273bece87", "addresses": ["35y1HVgJcWRtGf6s81bKvhRnwVGrzeoEUy"], "asm": "OP_HASH160 2ee6a0142b8ce5fe2ae0d97f33a10d7dc273bece OP_EQUAL", "type": "scripthash"}, "value": 0.00971323, "n": 0}, {"scriptPubKey": {"reqSigs": 1, "hex": "a914edd78a595967d23f9a4bd46d9b273e58c18e04c187", "addresses": ["3PNcH23q7zAMghQHn1fxyE2RfmNF9SWJv3"], "asm": "OP_HASH160 edd78a595967d23f9a4bd46d9b273e58c18e04c1 OP_EQUAL", "type": "scripthash"}, "value": 0.00464101, "n": 1}], "hex": "020000000001043ac21716325c203a307b7b76dfaa780db898fdbc1683833482651b310432a136000000001716001456c5a3d8db0c2723894a9cecd813534808a31790feffffff9e72a26bbe777587451ca6607b4e81aea9683726144f50e7759c35b5ad1d866a0000000017160014e44affcf437c74215be92c31b9b30b8bd4bf2b41feffffffc2b911407c17fc26c4872016ed1261cafdd2350921d83b10d9f93235c2dd2ee000000000171600148b7af96dbbb9b9f7db6dbe38499d7ac0efa11797feffffffee13e87af9a4149ed3d2d6f8bd14f8bc297fcf7586b1ddb60d4382715896d42b0a00000017160014775ad9998d22d5e559a61d12d9ff98adef4327d0feffffff023bd20e000000000017a9142ee6a0142b8ce5fe2ae0d97f33a10d7dc273bece87e51407000000000017a914edd78a595967d23f9a4bd46d9b273e58c18e04c1870247304402206ee396c107991e718d61b53d6b53142680846bd48391ba3973f6a6c2aede571302206b66233bfe4442338325b119eaeef0ea2cc8ab467b455e7906ba020df841b46c0121020c4acf9917e9dd233f90c5d935b25693e1abcc90e465230fa3033daa4471b9850247304402200e409942fc0378cdbb953abf2c9ae36bb5d05264bf177add23d14a98e997050202203ea472df9952850a10e35831f13ee37f11dbf3232e4f9f1f9069ecb53f390b8c012102113e0f4043f31430bcc581f73cae195758187ef97f606b0846032c82a83d7794024730440220362fff85239e54538e559ab5f0533efdc3450005987fb359443d2d15cc11c06a02201112b49d1ee0f4edc2d20ef8a0b7a6e27849349effda1488d3d48dc9a6eb00bc012103527a579b8ff1b20942076ca957832e11ff3229199f90317f44c3c45d4c5b6f5702483045022100b2881b86b30cb9c5f68b9e4203eaa6969dc1775a46cfb54be983c97b6ab6502b0220360348b65a7231b62655094fa4b9d4fe396f6052adc1165f330724ae757c3971012102fcdd40ee60ed6fc293c1154d21125b1fabcd046cb9f9ac495c20a7759fd3e91e12490800", "vin": [{"txinwitness": ["304402206ee396c107991e718d61b53d6b53142680846bd48391ba3973f6a6c2aede571302206b66233bfe4442338325b119eaeef0ea2cc8ab467b455e7906ba020df841b46c01", "020c4acf9917e9dd233f90c5d935b25693e1abcc90e465230fa3033daa4471b985"], "sequence": 4294967294, "scriptSig": {"hex": "16001456c5a3d8db0c2723894a9cecd813534808a31790", "asm": "001456c5a3d8db0c2723894a9cecd813534808a31790"}, "vout": 0, "txid": "36a13204311b658234838316bcfd98b80d78aadf767b7b303a205c321617c23a"}, {"txinwitness": ["304402200e409942fc0378cdbb953abf2c9ae36bb5d05264bf177add23d14a98e997050202203ea472df9952850a10e35831f13ee37f11dbf3232e4f9f1f9069ecb53f390b8c01", "02113e0f4043f31430bcc581f73cae195758187ef97f606b0846032c82a83d7794"], "sequence": 4294967294, "scriptSig": {"hex": "160014e44affcf437c74215be92c31b9b30b8bd4bf2b41", "asm": "0014e44affcf437c74215be92c31b9b30b8bd4bf2b41"}, "vout": 0, "txid": "6a861dadb5359c75e7504f14263768a9ae814e7b60a61c45877577be6ba2729e"}, {"txinwitness": ["30440220362fff85239e54538e559ab5f0533efdc3450005987fb359443d2d15cc11c06a02201112b49d1ee0f4edc2d20ef8a0b7a6e27849349effda1488d3d48dc9a6eb00bc01", "03527a579b8ff1b20942076ca957832e11ff3229199f90317f44c3c45d4c5b6f57"], "sequence": 4294967294, "scriptSig": {"hex": "1600148b7af96dbbb9b9f7db6dbe38499d7ac0efa11797", "asm": "00148b7af96dbbb9b9f7db6dbe38499d7ac0efa11797"}, "vout": 0, "txid": "e02eddc23532f9d9103bd8210935d2fdca6112ed162087c426fc177c4011b9c2"}, {"txinwitness": ["3045022100b2881b86b30cb9c5f68b9e4203eaa6969dc1775a46cfb54be983c97b6ab6502b0220360348b65a7231b62655094fa4b9d4fe396f6052adc1165f330724ae757c397101", "02fcdd40ee60ed6fc293c1154d21125b1fabcd046cb9f9ac495c20a7759fd3e91e"], "sequence": 4294967294, "scriptSig": {"hex": "160014775ad9998d22d5e559a61d12d9ff98adef4327d0", "asm": "0014775ad9998d22d5e559a61d12d9ff98adef4327d0"}, "vout": 10, "txid": "2bd496587182430db6ddb18675cf7f29bcf814bdf8d6d2d39e14a4f97ae813ee"}], "txid": "5d59cece69d7670e512b7512d45bf2c77fe69c653e8216f57ed2d35a2c5f4005", "blocktime": 1537872475, "version": 2, "confirmations": 11486, "time": 1537872475, "locktime": 542994, "vsize": 438, "size": 761}