{"hash": "5d5bb4974e2817978a3e0c4aebfc7c5d96dfa27bf9b3a08e0d4eb6dffa748ee2", "blockhash": "00000000000000000017f5eb5941039fbcee6240d03bc1f2f8e35350df66a1d8", "vout": [{"scriptPubKey": {"type": "nulldata", "hex": "6a4c50000077f20001596859dfde0f563f482be460d19ed074892d00f8e87af8e8e963c7cfd5b93b2237ed0cfe80dc76cc27ea3ab239d65baa1846061386fb9eb5023fbc9a9526289ac0f6612cd74e33776ee4", "asm": "OP_RETURN 000077f20001596859dfde0f563f482be460d19ed074892d00f8e87af8e8e963c7cfd5b93b2237ed0cfe80dc76cc27ea3ab239d65baa1846061386fb9eb5023fbc9a9526289ac0f6612cd74e33776ee4"}, "value": 0.0, "n": 0}, {"scriptPubKey": {"reqSigs": 1, "hex": "76a914ec9e3c90244cc67ebfd03a8a925aef56d52fb87588ac", "addresses": ["1Na82k2onocyJC4bmFbmRpqwFE3yE7JhZh"], "asm": "OP_DUP OP_HASH160 ec9e3c90244cc67ebfd03a8a925aef56d52fb875 OP_EQUALVERIFY OP_CHECKSIG", "type": "pubkeyhash"}, "value": 0.00103344, "n": 1}], "hex": "01000000013e7a0d744e99348ee0366b1f78ddf50892d4750db948db788c9138cb1765072d000000006b483045022100b46a7ed8d28090511ee788c38340d678ab60fcc4e932dd23d76a565e7196940d02205bfab648455dcdbadee4af9fe1fdd1e7213449a2b947ec98e1a60c1389b48a08012102a9a35d8b1c0d3d6dd31e6ae162700fc4aa24c25b2be609d38e8e9ac73483712fffffffff020000000000000000536a4c50000077f20001596859dfde0f563f482be460d19ed074892d00f8e87af8e8e963c7cfd5b93b2237ed0cfe80dc76cc27ea3ab239d65baa1846061386fb9eb5023fbc9a9526289ac0f6612cd74e33776ee4b0930100000000001976a914ec9e3c90244cc67ebfd03a8a925aef56d52fb87588ac00000000", "vin": [{"sequence": 4294967295, "scriptSig": {"hex": "483045022100b46a7ed8d28090511ee788c38340d678ab60fcc4e932dd23d76a565e7196940d02205bfab648455dcdbadee4af9fe1fdd1e7213449a2b947ec98e1a60c1389b48a08012102a9a35d8b1c0d3d6dd31e6ae162700fc4aa24c25b2be609d38e8e9ac73483712f", "asm": "3045022100b46a7ed8d28090511ee788c38340d678ab60fcc4e932dd23d76a565e7196940d02205bfab648455dcdbadee4af9fe1fdd1e7213449a2b947ec98e1a60c1389b48a08[ALL] 02a9a35d8b1c0d3d6dd31e6ae162700fc4aa24c25b2be609d38e8e9ac73483712f"}, "vout": 0, "txid": "2d076517cb38918c78db48b90d75d49208f5dd781f6b36e08e34994e740d7a3e"}], "txid": "5d5bb4974e2817978a3e0c4aebfc7c5d96dfa27bf9b3a08e0d4eb6dffa748ee2", "blocktime": 1537874412, "version": 1, "confirmations": 11467, "time": 1537874412, "locktime": 0, "vsize": 284, "size": 284}