{"hash": "5d631a7e10bb7a1cc68ec88dcb2b39b0f7bc57dc0ad21ac8c4a305df1084b53e", "blockhash": "000000000000000000022b45ed06c6f4ccd3cf7fb5ba4856ebd2e58215665228", "vout": [{"scriptPubKey": {"reqSigs": 1, "hex": "76a9144a0f1e2f2b0d7daeec5265f10bbbbe08ed725e8988ac", "addresses": ["17kb7c9ndg7ioSuzMWEHWECdEVUegNkcGc"], "asm": "OP_DUP OP_HASH160 4a0f1e2f2b0d7daeec5265f10bbbbe08ed725e89 OP_EQUALVERIFY OP_CHECKSIG", "type": "pubkeyhash"}, "value": 0.00088396, "n": 0}], "hex": "0100000001a2334b0299f4bb7a3a2b96e64b7edf8c63e259fa9cda76675e60b682a1718285000000006b483045022100a25b753c878b3c033f35e48001bfefdf5477d0c94d274fa4f85c006e6cea36fc022055d6d9b23100462c608ef4e63a41aaf441a520e9b1a10dc99a478eb4bdef7e6f0121030b3baee48ed997965f8ab24f3e6b8af4f6d5f34203080dddfe62944db0ecc097ffffffff014c590100000000001976a9144a0f1e2f2b0d7daeec5265f10bbbbe08ed725e8988ac00000000", "vin": [{"sequence": 4294967295, "scriptSig": {"hex": "483045022100a25b753c878b3c033f35e48001bfefdf5477d0c94d274fa4f85c006e6cea36fc022055d6d9b23100462c608ef4e63a41aaf441a520e9b1a10dc99a478eb4bdef7e6f0121030b3baee48ed997965f8ab24f3e6b8af4f6d5f34203080dddfe62944db0ecc097", "asm": "3045022100a25b753c878b3c033f35e48001bfefdf5477d0c94d274fa4f85c006e6cea36fc022055d6d9b23100462c608ef4e63a41aaf441a520e9b1a10dc99a478eb4bdef7e6f[ALL] 030b3baee48ed997965f8ab24f3e6b8af4f6d5f34203080dddfe62944db0ecc097"}, "vout": 0, "txid": "858271a182b6605e6776da9cfa59e2638cdf7e4be6962b3a7abbf499024b33a2"}], "txid": "5d631a7e10bb7a1cc68ec88dcb2b39b0f7bc57dc0ad21ac8c4a305df1084b53e", "blocktime": 1537869901, "version": 1, "confirmations": 11522, "time": 1537869901, "locktime": 0, "vsize": 192, "size": 192}