{"hash": "5d6945629a0c8fe2f54c01a2d027a19ecacec20d90463eb39d285489510b08c5", "blockhash": "0000000000000000001f76057863aec43deb6fa401d9628bb513d65a8098bfab", "vout": [{"scriptPubKey": {"reqSigs": 1, "hex": "a9146a3559db066acfa1f8a1538a4a76191eeffa785587", "addresses": ["3BNbTmcxejxJd4WA7TdSVUqu62a5XQ5hD1"], "asm": "OP_HASH160 6a3559db066acfa1f8a1538a4a76191eeffa7855 OP_EQUAL", "type": "scripthash"}, "value": 0.00046, "n": 0}, {"scriptPubKey": {"reqSigs": 1, "hex": "76a914d5cfced0f8c5c45405bb8cd2b49fc76be683278a88ac", "addresses": ["1LVXsc3g3PL1QgnrogDggBk8euBhtyuhtB"], "asm": "OP_DUP OP_HASH160 d5cfced0f8c5c45405bb8cd2b49fc76be683278a OP_EQUALVERIFY OP_CHECKSIG", "type": "pubkeyhash"}, "value": 0.0050834, "n": 1}], "hex": "01000000013210cf7cfe7b2acf42573ab0b71681eeaf23a8a11751479903101426108a15ef010000006a473044022010f3306c0913df2951bb36e7c41c003e0c3c8a35a6fe72bc930ee341f2717c170220155bcfb533e7681249ce1d14c6f9253e664d5e360f06396e0a2971b9de65c7e001210374db333e0cc5b01e3e73c4db53eea8eac3d2a2a9340ca0cf77f7e3ed6069a3d0ffffffff02b0b300000000000017a9146a3559db066acfa1f8a1538a4a76191eeffa785587b4c10700000000001976a914d5cfced0f8c5c45405bb8cd2b49fc76be683278a88ac00000000", "vin": [{"sequence": 4294967295, "scriptSig": {"hex": "473044022010f3306c0913df2951bb36e7c41c003e0c3c8a35a6fe72bc930ee341f2717c170220155bcfb533e7681249ce1d14c6f9253e664d5e360f06396e0a2971b9de65c7e001210374db333e0cc5b01e3e73c4db53eea8eac3d2a2a9340ca0cf77f7e3ed6069a3d0", "asm": "3044022010f3306c0913df2951bb36e7c41c003e0c3c8a35a6fe72bc930ee341f2717c170220155bcfb533e7681249ce1d14c6f9253e664d5e360f06396e0a2971b9de65c7e0[ALL] 0374db333e0cc5b01e3e73c4db53eea8eac3d2a2a9340ca0cf77f7e3ed6069a3d0"}, "vout": 1, "txid": "ef158a102614100399475117a1a823afee8116b7b03a5742cf2a7bfe7ccf1032"}], "txid": "5d6945629a0c8fe2f54c01a2d027a19ecacec20d90463eb39d285489510b08c5", "blocktime": 1537873891, "version": 1, "confirmations": 11476, "time": 1537873891, "locktime": 0, "vsize": 223, "size": 223}