{"hash": "5d6e7f33d831b636f4ee58be6815006a98ec9e6b23a034dd58f12f46b04cccad", "blockhash": "00000000000000000017f5eb5941039fbcee6240d03bc1f2f8e35350df66a1d8", "vout": [{"scriptPubKey": {"reqSigs": 1, "hex": "a914016dec4d8ddb740b6e2a6b9276211acc25c539c287", "addresses": ["31paHKimKbe5gteUkkZbajUpv4LPsVee2F"], "asm": "OP_HASH160 016dec4d8ddb740b6e2a6b9276211acc25c539c2 OP_EQUAL", "type": "scripthash"}, "value": 0.00536507, "n": 0}, {"scriptPubKey": {"reqSigs": 1, "hex": "76a91401f7733112f975fb2bd81abe0261e7d9ab89567a88ac", "addresses": ["1BQ7KPN1UBQontNxXgmL4utTGqbqzr6CV"], "asm": "OP_DUP OP_HASH160 01f7733112f975fb2bd81abe0261e7d9ab89567a OP_EQUALVERIFY OP_CHECKSIG", "type": "pubkeyhash"}, "value": 0.00013386, "n": 1}], "hex": "0100000002a103e19fe6050f4a256fd0f279fb5bcc0e8617bdadda0a0bf65978a1a3b59cc301000000db00483045022100ad96b45ac56737f6f2d0d884a5e43a79cd38b25558f3086826b5e50621ffb1ea022052c1d9f318cf404a3811954d7c05c0946bfc4ce1e6ab18f15d6a921be89e241701483045022100f6e033f18e04eef5529190625058e258453ff11dc26a1d7297ab4ef78ed1191402203294e37a116c779a44f8497db71ced19a1d7e47331b051a008c601d68da23f800147522102903b0da2620f9c81b6dc02ca4b3a4e6296544d1b996f158f667863605249b7ea2102907a54bed8ad74b3f35638c60114ca240a308cb986f3f2f306178869a8880b6152aeffffffffc1b70f112445fe2f55c5fc165d3ea482eca1ba1c21fb43021f10a1cce4d7d843020000006b4830450221008760c27b0e690aff6858c8f0163721ab90a9cd925ace704b493f5e0611273c1302201e68e341b854b60b4a7d52c24d4e48e047124a35e852714d5d234d4693264fe1012102acc3275f3ffefe0b7484bf794f556183b95e95d913da46150b767987f637c3c4ffffffff02bb2f08000000000017a914016dec4d8ddb740b6e2a6b9276211acc25c539c2874a340000000000001976a91401f7733112f975fb2bd81abe0261e7d9ab89567a88ac00000000", "vin": [{"sequence": 4294967295, "scriptSig": {"hex": "00483045022100ad96b45ac56737f6f2d0d884a5e43a79cd38b25558f3086826b5e50621ffb1ea022052c1d9f318cf404a3811954d7c05c0946bfc4ce1e6ab18f15d6a921be89e241701483045022100f6e033f18e04eef5529190625058e258453ff11dc26a1d7297ab4ef78ed1191402203294e37a116c779a44f8497db71ced19a1d7e47331b051a008c601d68da23f800147522102903b0da2620f9c81b6dc02ca4b3a4e6296544d1b996f158f667863605249b7ea2102907a54bed8ad74b3f35638c60114ca240a308cb986f3f2f306178869a8880b6152ae", "asm": "0 3045022100ad96b45ac56737f6f2d0d884a5e43a79cd38b25558f3086826b5e50621ffb1ea022052c1d9f318cf404a3811954d7c05c0946bfc4ce1e6ab18f15d6a921be89e2417[ALL] 3045022100f6e033f18e04eef5529190625058e258453ff11dc26a1d7297ab4ef78ed1191402203294e37a116c779a44f8497db71ced19a1d7e47331b051a008c601d68da23f80[ALL] 522102903b0da2620f9c81b6dc02ca4b3a4e6296544d1b996f158f667863605249b7ea2102907a54bed8ad74b3f35638c60114ca240a308cb986f3f2f306178869a8880b6152ae"}, "vout": 1, "txid": "c39cb5a3a17859f60b0adaadbd17860ecc5bfb79f2d06f254a0f05e69fe103a1"}, {"sequence": 4294967295, "scriptSig": {"hex": "4830450221008760c27b0e690aff6858c8f0163721ab90a9cd925ace704b493f5e0611273c1302201e68e341b854b60b4a7d52c24d4e48e047124a35e852714d5d234d4693264fe1012102acc3275f3ffefe0b7484bf794f556183b95e95d913da46150b767987f637c3c4", "asm": "30450221008760c27b0e690aff6858c8f0163721ab90a9cd925ace704b493f5e0611273c1302201e68e341b854b60b4a7d52c24d4e48e047124a35e852714d5d234d4693264fe1[ALL] 02acc3275f3ffefe0b7484bf794f556183b95e95d913da46150b767987f637c3c4"}, "vout": 2, "txid": "43d8d7e4cca1101f0243fb211cbaa1ec82a43e5d16fcc5552ffe4524110fb7c1"}], "txid": "5d6e7f33d831b636f4ee58be6815006a98ec9e6b23a034dd58f12f46b04cccad", "blocktime": 1537874412, "version": 1, "confirmations": 11467, "time": 1537874412, "locktime": 0, "vsize": 484, "size": 484}