{"hash": "9a2085d36a188bdbd3b8de2c1e961d8a9e68e239cfc00fc0e4e49087e7c2f467", "blockhash": "000000000000000000022b45ed06c6f4ccd3cf7fb5ba4856ebd2e58215665228", "vout": [{"scriptPubKey": {"reqSigs": 1, "hex": "a91477ba435339ac6786a999583bcd9c6cb3b79541b687", "addresses": ["3Cc5U9hvCTwWjcRwWeLy7XDT7eGTQkaHCm"], "asm": "OP_HASH160 77ba435339ac6786a999583bcd9c6cb3b79541b6 OP_EQUAL", "type": "scripthash"}, "value": 0.0024586, "n": 0}, {"scriptPubKey": {"reqSigs": 1, "hex": "a914c0cc54d4170441cfc3a49098af2ff82b82761ea787", "addresses": ["3KGSSZqs8nZXRgNnPivLJ7ehTWjxMkNfs6"], "asm": "OP_HASH160 c0cc54d4170441cfc3a49098af2ff82b82761ea7 OP_EQUAL", "type": "scripthash"}, "value": 0.01018935, "n": 1}], "hex": "02000000000102166b8f6b0a98faed303071e42e0e2c9027ebd2621575c9f47566d0ceae697e4c01000000171600147103134031298242b3f6698bac18a6a30f6c39d8feffffff58535fc7e487b408b19cf4228fb66dda23210995e373f055ae70bd9962b9f9f60600000017160014f44bca5db64ce67ebd014dc563a72d3f779a3795feffffff0264c003000000000017a91477ba435339ac6786a999583bcd9c6cb3b79541b687378c0f000000000017a914c0cc54d4170441cfc3a49098af2ff82b82761ea78702483045022100bbd18816781623d518922526ed3b75a16fa2f690769b03c7acfb5ae7ed6051800220206a85d22a2a807f23d6be10c43b1d5dbd3000352e0e3f13ca5cbbcd5fb796df012103a59a75cff73b7eb6ea10fd1730376a2f8f4182110e44bdc799aa8d04089cd23f0247304402205b90413757359822786162d5092c7242470a9850bea6df652ae0c383514e07d002200f387b464485d6cb0638f32bf1fe49f485128bed68f58767d526a3c016108bc4012103088c3c1b57eb243c34edef0550863311d15af050d1c91a25612082f4c688d3290b490800", "vin": [{"txinwitness": ["3045022100bbd18816781623d518922526ed3b75a16fa2f690769b03c7acfb5ae7ed6051800220206a85d22a2a807f23d6be10c43b1d5dbd3000352e0e3f13ca5cbbcd5fb796df01", "03a59a75cff73b7eb6ea10fd1730376a2f8f4182110e44bdc799aa8d04089cd23f"], "sequence": 4294967294, "scriptSig": {"hex": "1600147103134031298242b3f6698bac18a6a30f6c39d8", "asm": "00147103134031298242b3f6698bac18a6a30f6c39d8"}, "vout": 1, "txid": "4c7e69aeced06675f4c9751562d2eb27902c0e2ee4713030edfa980a6b8f6b16"}, {"txinwitness": ["304402205b90413757359822786162d5092c7242470a9850bea6df652ae0c383514e07d002200f387b464485d6cb0638f32bf1fe49f485128bed68f58767d526a3c016108bc401", "03088c3c1b57eb243c34edef0550863311d15af050d1c91a25612082f4c688d329"], "sequence": 4294967294, "scriptSig": {"hex": "160014f44bca5db64ce67ebd014dc563a72d3f779a3795", "asm": "0014f44bca5db64ce67ebd014dc563a72d3f779a3795"}, "vout": 6, "txid": "f6f9b96299bd70ae55f073e395092123da6db68f22f49cb108b487e4c75f5358"}], "txid": "5d72bd03cbdb6cca49abe2d2b10c738331720d20e8941dcc558a1035ad4e5685", "blocktime": 1537869901, "version": 2, "confirmations": 11524, "time": 1537869901, "locktime": 542987, "vsize": 257, "size": 419}