{"hash": "38e402eec0333dd51c3ef905b1056795763da8cf3f01e8e43cfc3a97e3823eec", "blockhash": "00000000000000000017f5eb5941039fbcee6240d03bc1f2f8e35350df66a1d8", "vout": [{"scriptPubKey": {"reqSigs": 1, "hex": "76a914ad9b580ed253f2386eba955665f8b971f7b4972688ac", "addresses": ["1GpwzgAseDVGtm2rUTjnM92Yz1uhMMpWUT"], "asm": "OP_DUP OP_HASH160 ad9b580ed253f2386eba955665f8b971f7b49726 OP_EQUALVERIFY OP_CHECKSIG", "type": "pubkeyhash"}, "value": 0.03397667, "n": 0}, {"scriptPubKey": {"reqSigs": 1, "hex": "a9149cb626ded1b37226ed43aea96f03f8017ab5a2b387", "addresses": ["3FydYboVBaGyjYDgqVpxfNbjcbJRRskQsP"], "asm": "OP_HASH160 9cb626ded1b37226ed43aea96f03f8017ab5a2b3 OP_EQUAL", "type": "scripthash"}, "value": 0.19485216, "n": 1}], "hex": "01000000000101ba1c74e82e246533a414a8da1a20565a0fbf70be911a2fbd927098fe035cd4ed01000000232200204424e1c9e98c5f2e17061827f94f28251ee51763904fb5d3b6cfda83630b9909ffffffff0223d83300000000001976a914ad9b580ed253f2386eba955665f8b971f7b4972688ac205229010000000017a9149cb626ded1b37226ed43aea96f03f8017ab5a2b387040046304302202968e750acffdbee7dc7f1d266c0ae592ed867de637e2bfbc4f8ff25c68f62cf021f6cf334a72fe8dff2f78d8cc2b8bef653de2a832a94486ccf7fb10b9292085f01483045022100b751b4e4c41e47b02870117dfa63b690614c78e6743df2492d350e4364649f3f02207ca3b15a18362fa3b731bf29819919c8e03fb6e7a92f172ae93061ea62f3a3f60147522103493a03b75d216b5167b49d8c6894f3d51bf6c70d8cc3ba51090b3f39b180cdda2103f62b1d27158b53be9caeae920614d9c61c0d4e3ab8a2b8afbc8e020933c6e68352ae00000000", "vin": [{"txinwitness": ["", "304302202968e750acffdbee7dc7f1d266c0ae592ed867de637e2bfbc4f8ff25c68f62cf021f6cf334a72fe8dff2f78d8cc2b8bef653de2a832a94486ccf7fb10b9292085f01", "3045022100b751b4e4c41e47b02870117dfa63b690614c78e6743df2492d350e4364649f3f02207ca3b15a18362fa3b731bf29819919c8e03fb6e7a92f172ae93061ea62f3a3f601", "522103493a03b75d216b5167b49d8c6894f3d51bf6c70d8cc3ba51090b3f39b180cdda2103f62b1d27158b53be9caeae920614d9c61c0d4e3ab8a2b8afbc8e020933c6e68352ae"], "sequence": 4294967295, "scriptSig": {"hex": "2200204424e1c9e98c5f2e17061827f94f28251ee51763904fb5d3b6cfda83630b9909", "asm": "00204424e1c9e98c5f2e17061827f94f28251ee51763904fb5d3b6cfda83630b9909"}, "vout": 1, "txid": "edd45c03fe987092bd2f1a91be70bf0f5a56201adaa814a43365242ee8741cba"}], "txid": "5d732c662bfb038d354be2f6cb01c010c249c802019e8120d543ea4150122ef1", "blocktime": 1537874412, "version": 1, "confirmations": 11467, "time": 1537874412, "locktime": 0, "vsize": 207, "size": 372}