{"hash": "f23e8f56a44520195a6019d88d170236367f5fc1656631f946168d521c4b023e", "blockhash": "00000000000000000004ffacab907a6b429b9a5745fa0b75af4234bf69dd7176", "vout": [{"scriptPubKey": {"reqSigs": 1, "hex": "76a91461620f1dd384a12b24a08ada852d88ea281d283188ac", "addresses": ["19sv1sShtevkfBBe3fy23GVv1w9E4Jqj6g"], "asm": "OP_DUP OP_HASH160 61620f1dd384a12b24a08ada852d88ea281d2831 OP_EQUALVERIFY OP_CHECKSIG", "type": "pubkeyhash"}, "value": 0.11145564, "n": 0}, {"scriptPubKey": {"reqSigs": 1, "hex": "0014c9511d1441dec33a67cd490e657d1494a9fbcd20", "addresses": ["bc1qe9g369zpmmpn5e7dfy8x2lg5jj5lhnfqrf0tfn"], "asm": "0 c9511d1441dec33a67cd490e657d1494a9fbcd20", "type": "witness_v0_keyhash"}, "value": 0.28747195, "n": 1}], "hex": "0200000000010118abe2e3d6d62785018224c4f7995d4c85c41b4f816ff6c1bfedd42ec54d1c3e0000000000ffffffff025c11aa00000000001976a91461620f1dd384a12b24a08ada852d88ea281d283188acbba5b60100000000160014c9511d1441dec33a67cd490e657d1494a9fbcd200247304402203554588a229ac14da68102dbbdefcf8e511ff0c65b512d28da220fb4c2fd0eb402203fbd95e652caf59ffef2c0a8903e2d20a010ba4299379399a6c0e2d1f94c14c8012103fa816b884299b6c1ff832a09ddd26f7ccd0ea4b405c92d6a23bb5ce1d24bae8800000000", "vin": [{"txinwitness": ["304402203554588a229ac14da68102dbbdefcf8e511ff0c65b512d28da220fb4c2fd0eb402203fbd95e652caf59ffef2c0a8903e2d20a010ba4299379399a6c0e2d1f94c14c801", "03fa816b884299b6c1ff832a09ddd26f7ccd0ea4b405c92d6a23bb5ce1d24bae88"], "sequence": 4294967295, "scriptSig": {"hex": "", "asm": ""}, "vout": 0, "txid": "3e1c4dc52ed4edbfc1f66f814f1bc4854c5d99f7c42482018527d6d6e3e2ab18"}], "txid": "5d7577c0287e7dfa909f7d5df3d561ccb7bd46ed3718d0ad6bc276bebdaa8328", "blocktime": 1537875543, "version": 2, "confirmations": 11464, "time": 1537875543, "locktime": 0, "vsize": 144, "size": 225}