{"hash": "6da589e56374bacc0dadab89eb81b4a314c8c4ba3cd808b6cdd08945c6fa8adc", "blockhash": "0000000000000000000e13cef7c366c0283d82e591d1acd082e914b08063cdf1", "vout": [{"scriptPubKey": {"reqSigs": 1, "hex": "a914c6047ef7c7d0585cf10a43bc4659b2e54631c2c087", "addresses": ["3Kk36upegdzjFwMPKcAP6gaNHy6mbTfDHm"], "asm": "OP_HASH160 c6047ef7c7d0585cf10a43bc4659b2e54631c2c0 OP_EQUAL", "type": "scripthash"}, "value": 0.01005427, "n": 0}, {"scriptPubKey": {"reqSigs": 1, "hex": "76a914ec10eddba18df61ff6413e3ae4062c9e89cdfed888ac", "addresses": ["1NXCkXfeagSmbnpCRQVNewL5uBNvLyXx7T"], "asm": "OP_DUP OP_HASH160 ec10eddba18df61ff6413e3ae4062c9e89cdfed8 OP_EQUALVERIFY OP_CHECKSIG", "type": "pubkeyhash"}, "value": 0.0032196, "n": 1}], "hex": "020000000001020c1dc12e81d60fd1255db911edc03dc8ddb530ea9d676bba7b54a6d3c307062f0000000017160014cfab19ba4736eabe7fd936ceef1044598a6d3e73feffffffd602aa87204cdacf06f65101cbe75331bc55c84ed7c40c16444f2ebf315fc8a80000000017160014a34dbf98f2b487d79f462a4840fddb2c023c1004feffffff0273570f000000000017a914c6047ef7c7d0585cf10a43bc4659b2e54631c2c087a8e90400000000001976a914ec10eddba18df61ff6413e3ae4062c9e89cdfed888ac0247304402205077bc5e2108b9d143bbf174e30403f333d8cb7a85fc08b89b5824fd66afb54702206bfa4eef0d3df3d122c5971e61e90cb8d7be8f4fac6997b83476ad1cf578779f0121026076912fec281f976643dc5aabf8974196821fc0ef252c26ba5f8eb29a732bac024730440220032f7339920c290c933fa29832dc1d13bcdc24dcd7f0e7f6f538e05e3e458fab02200e138060b5a4e981698b62578821cbefa1de2035905db2de21851143559dd14b0121030e53e47a9fdec4e59af38cb9d80f14dd7de322cf1fb53afca70522ec054d1b8d10490800", "vin": [{"txinwitness": ["304402205077bc5e2108b9d143bbf174e30403f333d8cb7a85fc08b89b5824fd66afb54702206bfa4eef0d3df3d122c5971e61e90cb8d7be8f4fac6997b83476ad1cf578779f01", "026076912fec281f976643dc5aabf8974196821fc0ef252c26ba5f8eb29a732bac"], "sequence": 4294967294, "scriptSig": {"hex": "160014cfab19ba4736eabe7fd936ceef1044598a6d3e73", "asm": "0014cfab19ba4736eabe7fd936ceef1044598a6d3e73"}, "vout": 0, "txid": "2f0607c3d3a6547bba6b679dea30b5ddc83dc0ed11b95d25d10fd6812ec11d0c"}, {"txinwitness": ["30440220032f7339920c290c933fa29832dc1d13bcdc24dcd7f0e7f6f538e05e3e458fab02200e138060b5a4e981698b62578821cbefa1de2035905db2de21851143559dd14b01", "030e53e47a9fdec4e59af38cb9d80f14dd7de322cf1fb53afca70522ec054d1b8d"], "sequence": 4294967294, "scriptSig": {"hex": "160014a34dbf98f2b487d79f462a4840fddb2c023c1004", "asm": "0014a34dbf98f2b487d79f462a4840fddb2c023c1004"}, "vout": 0, "txid": "a8c85f31bf2e4f44160cc4d74ec855bc3153e7cb0151f606cfda4c2087aa02d6"}], "txid": "5d78b358524fe25b7e28ea33be5631b96eb4695b7835b9d8766cb371b3381df3", "blocktime": 1537871767, "version": 2, "confirmations": 11495, "time": 1537871767, "locktime": 542992, "vsize": 258, "size": 420}