{"hash": "5d780a9ff4510a8276bd7e6ad834418b22a0e9c271a3c066775c84fd89024d85", "blockhash": "0000000000000000000baef3f32e3676a92c3b2e5da21b426e4f302fc371ce76", "vout": [{"scriptPubKey": {"type": "nulldata", "hex": "6a4c50000078160001a866cb9994d8243e6e7ae9c5019d6ddc0f1b8ff117702940d64fa54d8eb2005c72d44dae95c4c3b8196aa08f2acd5baa1bdb0615687d9ad1047abc9a9526289ac0f6612cd74e33776ee4", "asm": "OP_RETURN 000078160001a866cb9994d8243e6e7ae9c5019d6ddc0f1b8ff117702940d64fa54d8eb2005c72d44dae95c4c3b8196aa08f2acd5baa1bdb0615687d9ad1047abc9a9526289ac0f6612cd74e33776ee4"}, "value": 0.0, "n": 0}, {"scriptPubKey": {"reqSigs": 1, "hex": "76a914ef2d51e9410884125b76ab751ed9a25eed868c2c88ac", "addresses": ["1NoenjZkAaXGBjLf4gRzYeLyJVE9BLfZrN"], "asm": "OP_DUP OP_HASH160 ef2d51e9410884125b76ab751ed9a25eed868c2c OP_EQUALVERIFY OP_CHECKSIG", "type": "pubkeyhash"}, "value": 0.0007216, "n": 1}], "hex": "01000000019266ab2de44f315d3bb4813b840223b51769ebc17ce348aa694b36b606c040bc000000006a47304402204ae27a2a2ed32c1ef6f216f129678cb3a7a899381d8839c5ce6e8fb60ee106750220347acad5b75293991ca87a2e9f19183a785819869762a19702794a272bdd4c7b0121032e8bf08ee6a94d639618446a71e00f7584c7533f48ea8357518f9c6cdcc28eaeffffffff020000000000000000536a4c50000078160001a866cb9994d8243e6e7ae9c5019d6ddc0f1b8ff117702940d64fa54d8eb2005c72d44dae95c4c3b8196aa08f2acd5baa1bdb0615687d9ad1047abc9a9526289ac0f6612cd74e33776ee4e0190100000000001976a914ef2d51e9410884125b76ab751ed9a25eed868c2c88ac00000000", "vin": [{"sequence": 4294967295, "scriptSig": {"hex": "47304402204ae27a2a2ed32c1ef6f216f129678cb3a7a899381d8839c5ce6e8fb60ee106750220347acad5b75293991ca87a2e9f19183a785819869762a19702794a272bdd4c7b0121032e8bf08ee6a94d639618446a71e00f7584c7533f48ea8357518f9c6cdcc28eae", "asm": "304402204ae27a2a2ed32c1ef6f216f129678cb3a7a899381d8839c5ce6e8fb60ee106750220347acad5b75293991ca87a2e9f19183a785819869762a19702794a272bdd4c7b[ALL] 032e8bf08ee6a94d639618446a71e00f7584c7533f48ea8357518f9c6cdcc28eae"}, "vout": 0, "txid": "bc40c006b6364b69aa48e37cc1eb6917b52302843b81b43b5d314fe42dab6692"}], "txid": "5d780a9ff4510a8276bd7e6ad834418b22a0e9c271a3c066775c84fd89024d85", "blocktime": 1537876114, "version": 1, "confirmations": 11460, "time": 1537876114, "locktime": 0, "vsize": 283, "size": 283}