{"hash": "5d8243e7b095d0df5a56c6a59cd34ba2fed67d7d87059f3bdc1149085191bdb2", "blockhash": "00000000000000000017f5eb5941039fbcee6240d03bc1f2f8e35350df66a1d8", "vout": [{"scriptPubKey": {"reqSigs": 1, "hex": "76a914e3d6dd9e899003ef814954a16f8b916d786e7ec988ac", "addresses": ["1MmhngDNGc83e9KjZCg8ZmjuhBZSvNhtPN"], "asm": "OP_DUP OP_HASH160 e3d6dd9e899003ef814954a16f8b916d786e7ec9 OP_EQUALVERIFY OP_CHECKSIG", "type": "pubkeyhash"}, "value": 0.00022175, "n": 0}, {"scriptPubKey": {"reqSigs": 1, "hex": "76a914eef4d0f46bff8b0b854abc2588d7f6806ea7068a88ac", "addresses": ["1NnV6nZMLvHvYPhgYZfmHfWgSFsJML9RKa"], "asm": "OP_DUP OP_HASH160 eef4d0f46bff8b0b854abc2588d7f6806ea7068a OP_EQUALVERIFY OP_CHECKSIG", "type": "pubkeyhash"}, "value": 0.0204, "n": 1}], "hex": "010000000239f841057e1c1131ecb8eb7d427c7efec61c65ad48889a5805c55281367dce1a090000006b483045022100ea446546ac6b341cae95b49c58fbed2f6a663b977800b17dbd701889e28e8fc502202d90b37b75cfadcaee621b9d785f3b3e2e6f61ca916dcf5af460141c2e002bfb012102403c52770ad9f091b1a45c46301e75c5c147ce79819fea24edbb8881a262c3feffffffff74fcc9bdcaab07c0664d3d7af1663453fd9a4415a53d76791eb08b496c1bcce8100000006b483045022100c904e392d39b68866a76c523656f787044c57d4e61be1441e10d368ac5fc50270220070f1faecdd6fa2d4d2a8bf2e81be79b7757acd1f893b8c90ede5459fca67ed70121035afc1d723eaffdf8943c1b6ef9275522e31146df474fe88642653d7313b3b720ffffffff029f560000000000001976a914e3d6dd9e899003ef814954a16f8b916d786e7ec988acc0201f00000000001976a914eef4d0f46bff8b0b854abc2588d7f6806ea7068a88ac00000000", "vin": [{"sequence": 4294967295, "scriptSig": {"hex": "483045022100ea446546ac6b341cae95b49c58fbed2f6a663b977800b17dbd701889e28e8fc502202d90b37b75cfadcaee621b9d785f3b3e2e6f61ca916dcf5af460141c2e002bfb012102403c52770ad9f091b1a45c46301e75c5c147ce79819fea24edbb8881a262c3fe", "asm": "3045022100ea446546ac6b341cae95b49c58fbed2f6a663b977800b17dbd701889e28e8fc502202d90b37b75cfadcaee621b9d785f3b3e2e6f61ca916dcf5af460141c2e002bfb[ALL] 02403c52770ad9f091b1a45c46301e75c5c147ce79819fea24edbb8881a262c3fe"}, "vout": 9, "txid": "1ace7d368152c505589a8848ad651cc6fe7e7c427debb8ec31111c7e0541f839"}, {"sequence": 4294967295, "scriptSig": {"hex": "483045022100c904e392d39b68866a76c523656f787044c57d4e61be1441e10d368ac5fc50270220070f1faecdd6fa2d4d2a8bf2e81be79b7757acd1f893b8c90ede5459fca67ed70121035afc1d723eaffdf8943c1b6ef9275522e31146df474fe88642653d7313b3b720", "asm": "3045022100c904e392d39b68866a76c523656f787044c57d4e61be1441e10d368ac5fc50270220070f1faecdd6fa2d4d2a8bf2e81be79b7757acd1f893b8c90ede5459fca67ed7[ALL] 035afc1d723eaffdf8943c1b6ef9275522e31146df474fe88642653d7313b3b720"}, "vout": 16, "txid": "e8cc1b6c498bb01e79763da515449afd533466f17a3d4d66c007abcabdc9fc74"}], "txid": "5d8243e7b095d0df5a56c6a59cd34ba2fed67d7d87059f3bdc1149085191bdb2", "blocktime": 1537874412, "version": 1, "confirmations": 11468, "time": 1537874412, "locktime": 0, "vsize": 374, "size": 374}