{"hash": "5d83dda35ab1263fd194b3d27ca3754f1024493b255179c46f7df60ab7b523e8", "blockhash": "00000000000000000004ffacab907a6b429b9a5745fa0b75af4234bf69dd7176", "vout": [{"scriptPubKey": {"reqSigs": 1, "hex": "a91475ce5a1eccb7ef2d97d5dbbbd7891d578d33e8e687", "addresses": ["3CRvBaWGj6EMLfSvdBmLZ3PsuBoaSBsUYx"], "asm": "OP_HASH160 75ce5a1eccb7ef2d97d5dbbbd7891d578d33e8e6 OP_EQUAL", "type": "scripthash"}, "value": 0.031248, "n": 0}, {"scriptPubKey": {"reqSigs": 1, "hex": "76a9142fd98e534723fc4c576f61159c9884ae0e5f123288ac", "addresses": ["15N1P519VaTDeeRWZWAToKMgHzKfNNRsvu"], "asm": "OP_DUP OP_HASH160 2fd98e534723fc4c576f61159c9884ae0e5f1232 OP_EQUALVERIFY OP_CHECKSIG", "type": "pubkeyhash"}, "value": 0.15225454, "n": 1}], "hex": "010000000101c944588ca1317319a95595e7c0ea664bf9f420e7acf350174bf225e23958d6010000006b4830450221009e23764a41d6d32371caede56b2bde501019662e9e4507682e4f5383a6fea594022010be07f317f16f2d164d3ca1f10f00a491b8fbe5ffed3202c34afe2675961b90012102493edc45cbd7a28a9d235dead174b97c2441e4f597fa0bb2618a614c24e951eaffffffff0240ae2f000000000017a91475ce5a1eccb7ef2d97d5dbbbd7891d578d33e8e6876e52e800000000001976a9142fd98e534723fc4c576f61159c9884ae0e5f123288ac00000000", "vin": [{"sequence": 4294967295, "scriptSig": {"hex": "4830450221009e23764a41d6d32371caede56b2bde501019662e9e4507682e4f5383a6fea594022010be07f317f16f2d164d3ca1f10f00a491b8fbe5ffed3202c34afe2675961b90012102493edc45cbd7a28a9d235dead174b97c2441e4f597fa0bb2618a614c24e951ea", "asm": "30450221009e23764a41d6d32371caede56b2bde501019662e9e4507682e4f5383a6fea594022010be07f317f16f2d164d3ca1f10f00a491b8fbe5ffed3202c34afe2675961b90[ALL] 02493edc45cbd7a28a9d235dead174b97c2441e4f597fa0bb2618a614c24e951ea"}, "vout": 1, "txid": "d65839e225f24b1750f3ace720f4f94b66eac0e79555a9197331a18c5844c901"}], "txid": "5d83dda35ab1263fd194b3d27ca3754f1024493b255179c46f7df60ab7b523e8", "blocktime": 1537875543, "version": 1, "confirmations": 11464, "time": 1537875543, "locktime": 0, "vsize": 224, "size": 224}