{"hash": "5d875441aa3ecc9daa75d29a7fb6ea21697765e27e3393d048df6a0573a07ed5", "blockhash": "0000000000000000000dcc0f55137456b1a82d3642486a52398922ac4d620174", "vout": [{"scriptPubKey": {"reqSigs": 1, "hex": "76a91467cd05a24398447a4e9037ff14df7f621c78d14c88ac", "addresses": ["1ATrCwNB2TS6vYRnNDUrpaVFs2U92PAEjQ"], "asm": "OP_DUP OP_HASH160 67cd05a24398447a4e9037ff14df7f621c78d14c OP_EQUALVERIFY OP_CHECKSIG", "type": "pubkeyhash"}, "value": 7.67e-06, "n": 0}, {"scriptPubKey": {"reqSigs": 1, "hex": "76a914098f9d6f1728d21c116a42bc90f1cee3094be1c988ac", "addresses": ["1sZ8GfAj4ZSknWyCFvqFr5PeV21WpsEXA"], "asm": "OP_DUP OP_HASH160 098f9d6f1728d21c116a42bc90f1cee3094be1c9 OP_EQUALVERIFY OP_CHECKSIG", "type": "pubkeyhash"}, "value": 0.050211, "n": 1}], "hex": "0100000002f8b2e47dd5f7768224a3173b7f2c898506c2c3c222ee1406013f1f0553540d9f000000006b483045022100f3eb85020db6fc6c800f50ada65a46d6a7a053bc6472d96be1b610406006479102200c332dd2010299ca6c3dedfd62d99ed8254946ab657eaed945accbc13203b81e012102aa69d71d53b29333c17c91019af479a34f4708167b2e398ec1616c50b0f81037ffffffff6327f5dafe6bc650fbca09acd61662bd652370aa61015a1f489d59d8051d3336010000006a47304402203d3ae204c70a0f645168f31e3ecd5f4178ae903a11c1cc7f856a1f72a82ebe3e022055262a0972179dd17fcb71ed18f2d1b533cae0f3a57fce98ec7d316333faf6fd0121022d28c2c14028ab69db13b254a7beefd9b7e99eb0174d82125b9bad453cbee5adffffffff02ff020000000000001976a91467cd05a24398447a4e9037ff14df7f621c78d14c88acac9d4c00000000001976a914098f9d6f1728d21c116a42bc90f1cee3094be1c988ac00000000", "vin": [{"sequence": 4294967295, "scriptSig": {"hex": "483045022100f3eb85020db6fc6c800f50ada65a46d6a7a053bc6472d96be1b610406006479102200c332dd2010299ca6c3dedfd62d99ed8254946ab657eaed945accbc13203b81e012102aa69d71d53b29333c17c91019af479a34f4708167b2e398ec1616c50b0f81037", "asm": "3045022100f3eb85020db6fc6c800f50ada65a46d6a7a053bc6472d96be1b610406006479102200c332dd2010299ca6c3dedfd62d99ed8254946ab657eaed945accbc13203b81e[ALL] 02aa69d71d53b29333c17c91019af479a34f4708167b2e398ec1616c50b0f81037"}, "vout": 0, "txid": "9f0d5453051f3f010614ee22c2c3c20685892c7f3b17a3248276f7d57de4b2f8"}, {"sequence": 4294967295, "scriptSig": {"hex": "47304402203d3ae204c70a0f645168f31e3ecd5f4178ae903a11c1cc7f856a1f72a82ebe3e022055262a0972179dd17fcb71ed18f2d1b533cae0f3a57fce98ec7d316333faf6fd0121022d28c2c14028ab69db13b254a7beefd9b7e99eb0174d82125b9bad453cbee5ad", "asm": "304402203d3ae204c70a0f645168f31e3ecd5f4178ae903a11c1cc7f856a1f72a82ebe3e022055262a0972179dd17fcb71ed18f2d1b533cae0f3a57fce98ec7d316333faf6fd[ALL] 022d28c2c14028ab69db13b254a7beefd9b7e99eb0174d82125b9bad453cbee5ad"}, "vout": 1, "txid": "36331d05d8599d481f5a0161aa702365bd6216d6ac09cafb50c66bfedaf52763"}], "txid": "5d875441aa3ecc9daa75d29a7fb6ea21697765e27e3393d048df6a0573a07ed5", "blocktime": 1537870268, "version": 1, "confirmations": 11516, "time": 1537870268, "locktime": 0, "vsize": 373, "size": 373}