{"hash": "5d8eeeff8a21955beced3d37161674cc8e8f264580208af2288fdd71c5b29dff", "blockhash": "0000000000000000000e13cef7c366c0283d82e591d1acd082e914b08063cdf1", "vout": [{"scriptPubKey": {"reqSigs": 1, "hex": "76a914df08c70e9253743468245936e4538a72571521f388ac", "addresses": ["1MLJCewcy1WT2tty6N1S2P3eumaZn89DLU"], "asm": "OP_DUP OP_HASH160 df08c70e9253743468245936e4538a72571521f3 OP_EQUALVERIFY OP_CHECKSIG", "type": "pubkeyhash"}, "value": 0.00015633, "n": 0}, {"scriptPubKey": {"reqSigs": 1, "hex": "76a914641ad7bbc5964acdbe163f57f6b1a766fb341f1888ac", "addresses": ["1A8JjFLRpP2QspLDgKSw3J7MmCZnCo4uvY"], "asm": "OP_DUP OP_HASH160 641ad7bbc5964acdbe163f57f6b1a766fb341f18 OP_EQUALVERIFY OP_CHECKSIG", "type": "pubkeyhash"}, "value": 0.00337693, "n": 1}], "hex": "01000000013eee36c95070c0648fd5f45235fca3473dbc84f39ef80115a234bf01caf026ab010000006a4730440220768f18be092d585f057b05f4d5930c627a2aa71cb5800dd32418b341163336a7022002c471a8233c95eb35e13cfef04b8901f111f2dfd89ca1c544218706ec30f7d001210337ce3a168a26e727d4e7dde8b35bfd0a153b28e110fa2ee0a89cb5f1aae7426dffffffff02113d0000000000001976a914df08c70e9253743468245936e4538a72571521f388ac1d270500000000001976a914641ad7bbc5964acdbe163f57f6b1a766fb341f1888ac00000000", "vin": [{"sequence": 4294967295, "scriptSig": {"hex": "4730440220768f18be092d585f057b05f4d5930c627a2aa71cb5800dd32418b341163336a7022002c471a8233c95eb35e13cfef04b8901f111f2dfd89ca1c544218706ec30f7d001210337ce3a168a26e727d4e7dde8b35bfd0a153b28e110fa2ee0a89cb5f1aae7426d", "asm": "30440220768f18be092d585f057b05f4d5930c627a2aa71cb5800dd32418b341163336a7022002c471a8233c95eb35e13cfef04b8901f111f2dfd89ca1c544218706ec30f7d0[ALL] 0337ce3a168a26e727d4e7dde8b35bfd0a153b28e110fa2ee0a89cb5f1aae7426d"}, "vout": 1, "txid": "ab26f0ca01bf34a21501f89ef384bc3d47a3fc3552f4d58f64c07050c936ee3e"}], "txid": "5d8eeeff8a21955beced3d37161674cc8e8f264580208af2288fdd71c5b29dff", "blocktime": 1537871767, "version": 1, "confirmations": 11495, "time": 1537871767, "locktime": 0, "vsize": 225, "size": 225}