{"hash": "b42d526eab1ba50dcb4d33eb933fd0b6c676ff3b38989064ca5c842f257aba7f", "blockhash": "00000000000000000004ffacab907a6b429b9a5745fa0b75af4234bf69dd7176", "vout": [{"scriptPubKey": {"reqSigs": 1, "hex": "76a9142f162b3f7ab702786f69cbb2334021232ab8952088ac", "addresses": ["15HyKLmTWotNo95Kx8yyyKwVkM7CMsaY7X"], "asm": "OP_DUP OP_HASH160 2f162b3f7ab702786f69cbb2334021232ab89520 OP_EQUALVERIFY OP_CHECKSIG", "type": "pubkeyhash"}, "value": 0.02574609, "n": 0}, {"scriptPubKey": {"reqSigs": 1, "hex": "a9148bf4a6b7d95e7261fe859a1f13a9f3493ad61fb087", "addresses": ["3ET2vsgCpG1Riv85vXeK9mkQkQErNyWzff"], "asm": "OP_HASH160 8bf4a6b7d95e7261fe859a1f13a9f3493ad61fb0 OP_EQUAL", "type": "scripthash"}, "value": 0.36992733, "n": 1}, {"scriptPubKey": {"reqSigs": 1, "hex": "a914ca2a6d2e5db2a4bcbf3534f3e9198a23847d0b9d87", "addresses": ["3L7yF8wC4e2V4eLetVMoskERmCpao9nG9q"], "asm": "OP_HASH160 ca2a6d2e5db2a4bcbf3534f3e9198a23847d0b9d OP_EQUAL", "type": "scripthash"}, "value": 0.00047247, "n": 2}], "hex": "020000000001012caa34b005d3b15dafc7ba54942d898553850da41c7e2f8cdd4acf44fd2ed2430000000017160014546349dd251b89f27f1a69ab1145522c45c7b75bfeffffff0311492700000000001976a9142f162b3f7ab702786f69cbb2334021232ab8952088acdd7634020000000017a9148bf4a6b7d95e7261fe859a1f13a9f3493ad61fb0878fb800000000000017a914ca2a6d2e5db2a4bcbf3534f3e9198a23847d0b9d87024730440220435c6e97357e8fdaf3d0d8472bd96db09f0654d504efa9db532de8f673b19dc7022005c701d0e98f0bb7e46ed2e98743a92271ea5878f15f070ae918f10f1433312f012103623fd7c509fcd263f86a79f7f58c85cadf475321d859ff5e5e540543fdfb856f16490800", "vin": [{"txinwitness": ["30440220435c6e97357e8fdaf3d0d8472bd96db09f0654d504efa9db532de8f673b19dc7022005c701d0e98f0bb7e46ed2e98743a92271ea5878f15f070ae918f10f1433312f01", "03623fd7c509fcd263f86a79f7f58c85cadf475321d859ff5e5e540543fdfb856f"], "sequence": 4294967294, "scriptSig": {"hex": "160014546349dd251b89f27f1a69ab1145522c45c7b75b", "asm": "0014546349dd251b89f27f1a69ab1145522c45c7b75b"}, "vout": 0, "txid": "43d22efd44cf4add8c2f7e1ca40d855385892d9454bac7af5db1d305b034aa2c"}], "txid": "5d8f6ed980349d9e759d7cddf8ffc12d18089fafb38be9ceada2d73563050101", "blocktime": 1537875543, "version": 2, "confirmations": 11464, "time": 1537875543, "locktime": 542998, "vsize": 200, "size": 281}