{"hash": "5d8f39fd26e7fdad5d29e7eabbfe96f54459217b45c1e425a47431ad530efa80", "blockhash": "0000000000000000000baef3f32e3676a92c3b2e5da21b426e4f302fc371ce76", "vout": [{"scriptPubKey": {"reqSigs": 1, "hex": "76a9143bb09e0117d572422b0534be733e91e26686d5fc88ac", "addresses": ["16ScStzkJCVXzd2Hd82KV8RT9KBxFiYCts"], "asm": "OP_DUP OP_HASH160 3bb09e0117d572422b0534be733e91e26686d5fc OP_EQUALVERIFY OP_CHECKSIG", "type": "pubkeyhash"}, "value": 5.46e-06, "n": 0}, {"scriptPubKey": {"reqSigs": 1, "hex": "a9143f4eecba122ad73039d481c8d37f99cb4f887cd887", "addresses": ["37Tm3Qz8Zw2VJrheUUhArDAoq58S6YrS3g"], "asm": "OP_HASH160 3f4eecba122ad73039d481c8d37f99cb4f887cd8 OP_EQUAL", "type": "scripthash"}, "value": 0.9998727, "n": 1}, {"scriptPubKey": {"type": "nulldata", "hex": "6a146f6d6e69000000000000001f0000005b9281bd00", "asm": "OP_RETURN 6f6d6e69000000000000001f0000005b9281bd00"}, "value": 0.0, "n": 2}], "hex": "010000000105b5888671a0e041e9f202d48c08a6c7b92e578c354484c4eed138da68e00e3c01000000fdfe0000483045022100e3d661caec91e9e67bfcd33cdfebb95f979d971ab46c628da6c32b19a07a692902204b52ac50a78e3f96471ebbd7a82c504a84a5610ad818daf2011174ec8dc33f2a014830450221009debde4da535193a2b5f275946b86dadba5ea72c3f2d3ca2d0aa9fabf18cf0d302200d6284a37de98873de2604905ffe736a4269ec7afe207605ebeafd0d99ccca72014c6952210246ccf4de0c54cc7f3354cdd993c2c50cf965fd82238b89659fbd73a1b4bf05a121024fc59f72272a897fe43803374969f396058152fe4765a8d15216f94624257b1b21022593bc69ecbf3bbcc3c58082267cb49dadaf4ca8dbf1b2297338a9d628c4297653aeffffffff0322020000000000001976a9143bb09e0117d572422b0534be733e91e26686d5fc88ac46aff5050000000017a9143f4eecba122ad73039d481c8d37f99cb4f887cd8870000000000000000166a146f6d6e69000000000000001f0000005b9281bd0000000000", "vin": [{"sequence": 4294967295, "scriptSig": {"hex": "00483045022100e3d661caec91e9e67bfcd33cdfebb95f979d971ab46c628da6c32b19a07a692902204b52ac50a78e3f96471ebbd7a82c504a84a5610ad818daf2011174ec8dc33f2a014830450221009debde4da535193a2b5f275946b86dadba5ea72c3f2d3ca2d0aa9fabf18cf0d302200d6284a37de98873de2604905ffe736a4269ec7afe207605ebeafd0d99ccca72014c6952210246ccf4de0c54cc7f3354cdd993c2c50cf965fd82238b89659fbd73a1b4bf05a121024fc59f72272a897fe43803374969f396058152fe4765a8d15216f94624257b1b21022593bc69ecbf3bbcc3c58082267cb49dadaf4ca8dbf1b2297338a9d628c4297653ae", "asm": "0 3045022100e3d661caec91e9e67bfcd33cdfebb95f979d971ab46c628da6c32b19a07a692902204b52ac50a78e3f96471ebbd7a82c504a84a5610ad818daf2011174ec8dc33f2a[ALL] 30450221009debde4da535193a2b5f275946b86dadba5ea72c3f2d3ca2d0aa9fabf18cf0d302200d6284a37de98873de2604905ffe736a4269ec7afe207605ebeafd0d99ccca72[ALL] 52210246ccf4de0c54cc7f3354cdd993c2c50cf965fd82238b89659fbd73a1b4bf05a121024fc59f72272a897fe43803374969f396058152fe4765a8d15216f94624257b1b21022593bc69ecbf3bbcc3c58082267cb49dadaf4ca8dbf1b2297338a9d628c4297653ae"}, "vout": 1, "txid": "3c0ee068da38d1eec48444358c572eb9c7a6088cd402f2e941e0a0718688b505"}], "txid": "5d8f39fd26e7fdad5d29e7eabbfe96f54459217b45c1e425a47431ad530efa80", "blocktime": 1537876114, "version": 1, "confirmations": 11460, "time": 1537876114, "locktime": 0, "vsize": 404, "size": 404}