{"hash": "ed9dd51294aada36800133a2e9d057fdefb6c0e23979cad28f5f4596334c7be3", "blockhash": "00000000000000000018f53835495a110e01622372bf6ae95dc86f2b0ab887b0", "vout": [{"scriptPubKey": {"reqSigs": 1, "hex": "a91472cb40a545eec7eb7a8757ea79da0c0028df25a287", "addresses": ["3C9zSeNmufa7n2LKRbYEtDpcc5U8BdtG9s"], "asm": "OP_HASH160 72cb40a545eec7eb7a8757ea79da0c0028df25a2 OP_EQUAL", "type": "scripthash"}, "value": 0.70366125, "n": 0}, {"scriptPubKey": {"reqSigs": 1, "hex": "76a9146cd49dc429df53aa4fc5d522459a2a157fa3c31788ac", "addresses": ["1AvSgZDSEM33c9ytgH2zHS3YML2rtV1yMF"], "asm": "OP_DUP OP_HASH160 6cd49dc429df53aa4fc5d522459a2a157fa3c317 OP_EQUALVERIFY OP_CHECKSIG", "type": "pubkeyhash"}, "value": 0.295, "n": 1}, {"scriptPubKey": {"reqSigs": 1, "hex": "76a914da97fc4f1e0d363b805b1640994d206146499bd988ac", "addresses": ["1LvpNxpa6dsu4nTN2mdoJAEsTowK2XqXTB"], "asm": "OP_DUP OP_HASH160 da97fc4f1e0d363b805b1640994d206146499bd9 OP_EQUALVERIFY OP_CHECKSIG", "type": "pubkeyhash"}, "value": 0.00983069, "n": 2}], "hex": "020000000001052357a143005190e0f9b11b3e61c7b1920072fc4d72cbb3993ed38c054463bf2d000000006a47304402203092e676ecdff03de09f8978fe00868db90a7fbd79639954c98037c3c12b97b302201e17c116d9b92bbb8929d3cc8ede61f33cad97d5802020dd2afddc9a5211cd8d0121022c1f67b40ffe7ab4698d82b95f7d38e770981d71f8fa43ea6d40f92f69d49152feffffff961c6937423e04be598710f515753c0455a7e2919bbd2183ff6c9879b417ef280000000017160014e29302ca7a19021bcf7edac469a65fbf072d6790feffffffb64e682e5366f4d8d7f6dfeafe2e453d0009d1a48187b8a20632b542da0acb570000000017160014bd4e88407d6b7d56bcfd1de17910cb25702c4db9fefffffff60bd580e54ba6a9743b9cf49ea206cda215f9dda7e6ae1cc6521160946b27e7020000006b48304502210099a247a8756989b394a183f1c20477910f8b3d84032f4857ba3668a82da5308e02204a6f0d79c5c2a711d5665a36cee85fd1168324a11583b697366aed6edcd9894d01210314a03061e76017da1244f8ed12a44c25c93e21980808f6a2ffa6a58359c65964fefffffffdf7310879a76fa85d38b4787cf375084a29f218c9a4ec25b45438f78fb4137e020000006b483045022100c5f834a5d6326d524235e33555ed00fdfd6f8303f9a081a1c1000cf5b72960760220331fb5ab494c5e504312e23abd710ee8708204cc1c157b71ffc04ac1d3b02e70012102302dbb6bc534bcdad65431505ebb84ef2a36dba4dac86d475c27d7e0d36921fbfeffffff03adb331040000000017a91472cb40a545eec7eb7a8757ea79da0c0028df25a2876022c201000000001976a9146cd49dc429df53aa4fc5d522459a2a157fa3c31788ac1d000f00000000001976a914da97fc4f1e0d363b805b1640994d206146499bd988ac00024730440220668840e6294ff5de83ee01e3ac1966399d434acd4e6bd820360c56f9ee8ae93302204636f6fb5627746029233878b8cdc3436a6b822c9669f897bdf59808bffe3587012102d0fe3b89017b487f65a92fe6b247a7ab365a3f68988b1abde7024dce3106f84202483045022100a05e6bc84b0bef203240e3868122bb54128e3de775ea456bfa2295398de123950220620a3ce6e921aaaca241b34b0de7723ce1171798a6df63ebc333f60a16702565012103f504be3d9e7f53b64b94296db472c7dab923448f3557f82faabd3639861ff9c300000e490800", "vin": [{"sequence": 4294967294, "scriptSig": {"hex": "47304402203092e676ecdff03de09f8978fe00868db90a7fbd79639954c98037c3c12b97b302201e17c116d9b92bbb8929d3cc8ede61f33cad97d5802020dd2afddc9a5211cd8d0121022c1f67b40ffe7ab4698d82b95f7d38e770981d71f8fa43ea6d40f92f69d49152", "asm": "304402203092e676ecdff03de09f8978fe00868db90a7fbd79639954c98037c3c12b97b302201e17c116d9b92bbb8929d3cc8ede61f33cad97d5802020dd2afddc9a5211cd8d[ALL] 022c1f67b40ffe7ab4698d82b95f7d38e770981d71f8fa43ea6d40f92f69d49152"}, "vout": 0, "txid": "2dbf6344058cd33e99b3cb724dfc720092b1c7613e1bb1f9e090510043a15723"}, {"txinwitness": ["30440220668840e6294ff5de83ee01e3ac1966399d434acd4e6bd820360c56f9ee8ae93302204636f6fb5627746029233878b8cdc3436a6b822c9669f897bdf59808bffe358701", "02d0fe3b89017b487f65a92fe6b247a7ab365a3f68988b1abde7024dce3106f842"], "sequence": 4294967294, "scriptSig": {"hex": "160014e29302ca7a19021bcf7edac469a65fbf072d6790", "asm": "0014e29302ca7a19021bcf7edac469a65fbf072d6790"}, "vout": 0, "txid": "28ef17b479986cff8321bd9b91e2a755043c7515f5108759be043e4237691c96"}, {"txinwitness": ["3045022100a05e6bc84b0bef203240e3868122bb54128e3de775ea456bfa2295398de123950220620a3ce6e921aaaca241b34b0de7723ce1171798a6df63ebc333f60a1670256501", "03f504be3d9e7f53b64b94296db472c7dab923448f3557f82faabd3639861ff9c3"], "sequence": 4294967294, "scriptSig": {"hex": "160014bd4e88407d6b7d56bcfd1de17910cb25702c4db9", "asm": "0014bd4e88407d6b7d56bcfd1de17910cb25702c4db9"}, "vout": 0, "txid": "57cb0ada42b53206a2b88781a4d109003d452efeeadff6d7d8f466532e684eb6"}, {"sequence": 4294967294, "scriptSig": {"hex": "48304502210099a247a8756989b394a183f1c20477910f8b3d84032f4857ba3668a82da5308e02204a6f0d79c5c2a711d5665a36cee85fd1168324a11583b697366aed6edcd9894d01210314a03061e76017da1244f8ed12a44c25c93e21980808f6a2ffa6a58359c65964", "asm": "304502210099a247a8756989b394a183f1c20477910f8b3d84032f4857ba3668a82da5308e02204a6f0d79c5c2a711d5665a36cee85fd1168324a11583b697366aed6edcd9894d[ALL] 0314a03061e76017da1244f8ed12a44c25c93e21980808f6a2ffa6a58359c65964"}, "vout": 2, "txid": "e7276b94601152c61caee6a7ddf915a2cd06a29ef49c3b74a9a64be580d50bf6"}, {"sequence": 4294967294, "scriptSig": {"hex": "483045022100c5f834a5d6326d524235e33555ed00fdfd6f8303f9a081a1c1000cf5b72960760220331fb5ab494c5e504312e23abd710ee8708204cc1c157b71ffc04ac1d3b02e70012102302dbb6bc534bcdad65431505ebb84ef2a36dba4dac86d475c27d7e0d36921fb", "asm": "3045022100c5f834a5d6326d524235e33555ed00fdfd6f8303f9a081a1c1000cf5b72960760220331fb5ab494c5e504312e23abd710ee8708204cc1c157b71ffc04ac1d3b02e70[ALL] 02302dbb6bc534bcdad65431505ebb84ef2a36dba4dac86d475c27d7e0d36921fb"}, "vout": 2, "txid": "7e13b48ff73854b425eca4c918f2294a0875f37c78b4385da86fa7790831f7fd"}], "txid": "5d90aacd4c14d2e34e783f19f45b14b4cac3348252a783f0d179e0d58873dfdb", "blocktime": 1537870928, "version": 2, "confirmations": 11512, "time": 1537870928, "locktime": 542990, "vsize": 736, "size": 901}