{"hash": "5d93dcf6a7286d1433c046f18d43fdb5569f019384f53d74bf929f4671072ffe", "blockhash": "0000000000000000000e13cef7c366c0283d82e591d1acd082e914b08063cdf1", "vout": [{"scriptPubKey": {"reqSigs": 1, "hex": "76a9147d7d46fb9029f16dd92ed9c5b6d2a9b4ba4008fa88ac", "addresses": ["1CSXYPzxuvUM3RaK5K57DWE28FdApy4PrK"], "asm": "OP_DUP OP_HASH160 7d7d46fb9029f16dd92ed9c5b6d2a9b4ba4008fa OP_EQUALVERIFY OP_CHECKSIG", "type": "pubkeyhash"}, "value": 0.00642341, "n": 0}, {"scriptPubKey": {"type": "nulldata", "hex": "6a4c50000077a000016cc4a30cf5adfb3104be776caf6c953dd567cf27e7e3ef3236678a625097ed41c24f633076f6d60fb134714faf375baa0e4706150276c1383d2f1d100759d4ba30d2c37bb011d97e02cf", "asm": "OP_RETURN 000077a000016cc4a30cf5adfb3104be776caf6c953dd567cf27e7e3ef3236678a625097ed41c24f633076f6d60fb134714faf375baa0e4706150276c1383d2f1d100759d4ba30d2c37bb011d97e02cf"}, "value": 0.0, "n": 1}], "hex": "0100000001fc64cc4ab95e3d4184404c3971ccd183f5f826fd8a14e4cf3e395c1da1ce028b000000006a47304402205fe511fe9953417c6e9cc4949212bd32f2d2f2531468431b83e62da23c61b518022074ff31bac44b93400aa23e67ef01152b00091c8051d245b9a986e871e7f750a60121033a89f7145dac412adbeedd1a292d6cb25c66b655e8fff44d0a3dacb0b40c6aadffffffff0225cd0900000000001976a9147d7d46fb9029f16dd92ed9c5b6d2a9b4ba4008fa88ac0000000000000000536a4c50000077a000016cc4a30cf5adfb3104be776caf6c953dd567cf27e7e3ef3236678a625097ed41c24f633076f6d60fb134714faf375baa0e4706150276c1383d2f1d100759d4ba30d2c37bb011d97e02cf00000000", "vin": [{"sequence": 4294967295, "scriptSig": {"hex": "47304402205fe511fe9953417c6e9cc4949212bd32f2d2f2531468431b83e62da23c61b518022074ff31bac44b93400aa23e67ef01152b00091c8051d245b9a986e871e7f750a60121033a89f7145dac412adbeedd1a292d6cb25c66b655e8fff44d0a3dacb0b40c6aad", "asm": "304402205fe511fe9953417c6e9cc4949212bd32f2d2f2531468431b83e62da23c61b518022074ff31bac44b93400aa23e67ef01152b00091c8051d245b9a986e871e7f750a6[ALL] 033a89f7145dac412adbeedd1a292d6cb25c66b655e8fff44d0a3dacb0b40c6aad"}, "vout": 0, "txid": "8b02cea11d5c393ecfe4148afd26f8f583d1cc71394c4084413d5eb94acc64fc"}], "txid": "5d93dcf6a7286d1433c046f18d43fdb5569f019384f53d74bf929f4671072ffe", "blocktime": 1537871767, "version": 1, "confirmations": 11495, "time": 1537871767, "locktime": 0, "vsize": 283, "size": 283}