{"hash": "5d962fc07998bedc599c375464ebd553d39bd48aaf3dce4b8ef3c5b4d0b7006a", "blockhash": "0000000000000000001cda96e906b7601b7a6fb1a3b62bca570a9e5d8f4b3de1", "vout": [{"scriptPubKey": {"reqSigs": 1, "hex": "a914d50aabfd11983a1a1996e1bea8799ec61e2cad1987", "addresses": ["3M7UdttNtf5tRJ9xr45dJze5CCBVwA9zFY"], "asm": "OP_HASH160 d50aabfd11983a1a1996e1bea8799ec61e2cad19 OP_EQUAL", "type": "scripthash"}, "value": 0.001189, "n": 0}, {"scriptPubKey": {"reqSigs": 1, "hex": "76a9145e1d2c3db4a37d1c693f764fc508a2d0dc84386488ac", "addresses": ["19adTzhohpP4nbzro8jVLqgvReuWUJoA3R"], "asm": "OP_DUP OP_HASH160 5e1d2c3db4a37d1c693f764fc508a2d0dc843864 OP_EQUALVERIFY OP_CHECKSIG", "type": "pubkeyhash"}, "value": 0.005914, "n": 1}], "hex": "01000000019b83a6406cdd772e0a086786aa6dc5baf42cca6d8dd18b8565e763e82ce7dbc3010000006a47304402203187e01ec7e9026282b6d8acbc0ef517d98c2a1ab561b5c1afb95fd10eb16e5602200aa68c9b13b6986e9ee659fed44481eb4e1b5474016ca79fc6b65347a398f17401210304602e9ff5eef576eb7fde9ab49e48257037311344776cc64608c726040879deffffffff0274d001000000000017a914d50aabfd11983a1a1996e1bea8799ec61e2cad198728060900000000001976a9145e1d2c3db4a37d1c693f764fc508a2d0dc84386488ac00000000", "vin": [{"sequence": 4294967295, "scriptSig": {"hex": "47304402203187e01ec7e9026282b6d8acbc0ef517d98c2a1ab561b5c1afb95fd10eb16e5602200aa68c9b13b6986e9ee659fed44481eb4e1b5474016ca79fc6b65347a398f17401210304602e9ff5eef576eb7fde9ab49e48257037311344776cc64608c726040879de", "asm": "304402203187e01ec7e9026282b6d8acbc0ef517d98c2a1ab561b5c1afb95fd10eb16e5602200aa68c9b13b6986e9ee659fed44481eb4e1b5474016ca79fc6b65347a398f174[ALL] 0304602e9ff5eef576eb7fde9ab49e48257037311344776cc64608c726040879de"}, "vout": 1, "txid": "c3dbe72ce863e765858bd18d6dca2cf4bac56daa8667080a2e77dd6c40a6839b"}], "txid": "5d962fc07998bedc599c375464ebd553d39bd48aaf3dce4b8ef3c5b4d0b7006a", "blocktime": 1537873282, "version": 1, "confirmations": 11484, "time": 1537873282, "locktime": 0, "vsize": 223, "size": 223}