{"hash": "bd67b0094a3a747121a4cee90cce11fafe6a3306368c7940771576dbb3c79873", "blockhash": "0000000000000000001f76057863aec43deb6fa401d9628bb513d65a8098bfab", "vout": [{"scriptPubKey": {"reqSigs": 1, "hex": "a9142d4ee016c93b014087db86a35197a80999d250e887", "addresses": ["35papXmjoiFgwXV132FKxeo1bSPG7CHDp5"], "asm": "OP_HASH160 2d4ee016c93b014087db86a35197a80999d250e8 OP_EQUAL", "type": "scripthash"}, "value": 0.00374041, "n": 0}, {"scriptPubKey": {"reqSigs": 1, "hex": "a9147840ea1855b8635633b0ca9e403badfbc62634de87", "addresses": ["3CermtztxuQ4R1GDounZxgP5dARAnK2FUv"], "asm": "OP_HASH160 7840ea1855b8635633b0ca9e403badfbc62634de OP_EQUAL", "type": "scripthash"}, "value": 0.04297377, "n": 1}, {"scriptPubKey": {"reqSigs": 1, "hex": "a914fdd7f60decef1351802ad2da403422c2f71e6f6687", "addresses": ["3QqDbKYne8i4qtHr87osGUPzeakp4271jH"], "asm": "OP_HASH160 fdd7f60decef1351802ad2da403422c2f71e6f66 OP_EQUAL", "type": "scripthash"}, "value": 0.0041, "n": 2}, {"scriptPubKey": {"reqSigs": 1, "hex": "76a9142e252c71003a37b852359d53243907406ddf697988ac", "addresses": ["15Czch63uBJzbwunnqcLvkFBs4CEwaoFDM"], "asm": "OP_DUP OP_HASH160 2e252c71003a37b852359d53243907406ddf6979 OP_EQUALVERIFY OP_CHECKSIG", "type": "pubkeyhash"}, "value": 0.05766783, "n": 3}, {"scriptPubKey": {"reqSigs": 1, "hex": "a9143e42574952c28340bd98e60e46da4868ae03b32787", "addresses": ["37NDHtTvCt5skKhRDvP6mi18yL1XJSUvJm"], "asm": "OP_HASH160 3e42574952c28340bd98e60e46da4868ae03b327 OP_EQUAL", "type": "scripthash"}, "value": 0.0028536, "n": 4}, {"scriptPubKey": {"reqSigs": 1, "hex": "a91400f867bf5c2598ee30cdb68e41d40b5c8eadaccf87", "addresses": ["31n9W3WSwB1txfbJfhWg51bPJPusiUa7ES"], "asm": "OP_HASH160 00f867bf5c2598ee30cdb68e41d40b5c8eadaccf OP_EQUAL", "type": "scripthash"}, "value": 0.00774684, "n": 5}, {"scriptPubKey": {"reqSigs": 1, "hex": "a914f1c771d3b8c67dc7d3a128b790ba9182bd4bd0ac87", "addresses": ["3PjRhRxo5wqeeT4NhaSWugqszKGVJdQu13"], "asm": "OP_HASH160 f1c771d3b8c67dc7d3a128b790ba9182bd4bd0ac OP_EQUAL", "type": "scripthash"}, "value": 0.00754843, "n": 6}, {"scriptPubKey": {"reqSigs": 1, "hex": "a91481fa03363176c0f766094ea3982eeb48c057b5e487", "addresses": ["3DYGbTzB7QU8dwSPLeQ2AwJbYm1eetDhzk"], "asm": "OP_HASH160 81fa03363176c0f766094ea3982eeb48c057b5e4 OP_EQUAL", "type": "scripthash"}, "value": 0.00594769, "n": 7}, {"scriptPubKey": {"reqSigs": 1, "hex": "76a9145856ed07f2f297a7f67061086dd0fa78fb514f7088ac", "addresses": ["1946bbivVZgTZhrkcnoeTa6zpJAW5DLZxN"], "asm": "OP_DUP OP_HASH160 5856ed07f2f297a7f67061086dd0fa78fb514f70 OP_EQUALVERIFY OP_CHECKSIG", "type": "pubkeyhash"}, "value": 0.00413152, "n": 8}, {"scriptPubKey": {"reqSigs": 1, "hex": "76a914353d0155b80a35c7a888b2954f567ab16df801bc88ac", "addresses": ["15rVttFT5VUCESaTNztqfoQfgaPnZfRnoB"], "asm": "OP_DUP OP_HASH160 353d0155b80a35c7a888b2954f567ab16df801bc OP_EQUALVERIFY OP_CHECKSIG", "type": "pubkeyhash"}, "value": 0.00222153, "n": 9}, {"scriptPubKey": {"reqSigs": 1, "hex": "a91465236cf99460d7a48322378357a3274ad825d57887", "addresses": ["3AuncLa8jHVukWDpbFi7Bx2zusJgwSTEZ3"], "asm": "OP_HASH160 65236cf99460d7a48322378357a3274ad825d578 OP_EQUAL", "type": "scripthash"}, "value": 0.00396192, "n": 10}, {"scriptPubKey": {"reqSigs": 1, "hex": "a9148d29e41be8d2bf00e466c5946898489e415191f987", "addresses": ["3EZRPEUM9W8H1GihWfW5stqjF54FKnm1qF"], "asm": "OP_HASH160 8d29e41be8d2bf00e466c5946898489e415191f9 OP_EQUAL", "type": "scripthash"}, "value": 0.15642157, "n": 11}, {"scriptPubKey": {"reqSigs": 1, "hex": "76a914507f58bd029e64b78810d721f098d4730d381a3288ac", "addresses": ["18LdcYehG6jykyBtVCvnyEj4gNzmbf81S8"], "asm": "OP_DUP OP_HASH160 507f58bd029e64b78810d721f098d4730d381a32 OP_EQUALVERIFY OP_CHECKSIG", "type": "pubkeyhash"}, "value": 0.02499395, "n": 12}, {"scriptPubKey": {"reqSigs": 1, "hex": "a91402846e5c7956b950bb428305cba43259f590545a87", "addresses": ["31vKvQEk97GTigNjj8Y767VWB39MgwQD6D"], "asm": "OP_HASH160 02846e5c7956b950bb428305cba43259f590545a OP_EQUAL", "type": "scripthash"}, "value": 0.00284017, "n": 13}, {"scriptPubKey": {"reqSigs": 1, "hex": "a9141ac809ac05e8fb641f4b4f18e7d6f95410ac549987", "addresses": ["348d8Q9zGnVmQeKC3tk8xZCKZ9zvsBUr5o"], "asm": "OP_HASH160 1ac809ac05e8fb641f4b4f18e7d6f95410ac5499 OP_EQUAL", "type": "scripthash"}, "value": 0.00321625, "n": 14}, {"scriptPubKey": {"reqSigs": 1, "hex": "a91418b04a75adb979c4629610b670ba29dd07580c4887", "addresses": ["33wZL3ve7EUCwbzqohkh6HwiAN6ytkx4We"], "asm": "OP_HASH160 18b04a75adb979c4629610b670ba29dd07580c48 OP_EQUAL", "type": "scripthash"}, "value": 0.0133428, "n": 15}, {"scriptPubKey": {"reqSigs": 1, "hex": "76a9142d8839b867441d1ca9cddd48fab0df67caf922ff88ac", "addresses": ["159kbk9ge1fk5c6ym1RjvvBarjP7tcUXPj"], "asm": "OP_DUP OP_HASH160 2d8839b867441d1ca9cddd48fab0df67caf922ff OP_EQUALVERIFY OP_CHECKSIG", "type": "pubkeyhash"}, "value": 0.01508368, "n": 16}, {"scriptPubKey": {"reqSigs": 1, "hex": "a914964a8fc6c8b70b246b05036360e2b2042ae26ae487", "addresses": ["3FPgbx7MHXyBWdKkp92Xd457tL7GkHz3J9"], "asm": "OP_HASH160 964a8fc6c8b70b246b05036360e2b2042ae26ae4 OP_EQUAL", "type": "scripthash"}, "value": 0.00299569, "n": 17}, {"scriptPubKey": {"reqSigs": 1, "hex": "a914dd3520d416c2d74a2b62cba81d75e098f095055f87", "addresses": ["3MreuMRDkJaacvWeE3FQocsDa2vR87kKmc"], "asm": "OP_HASH160 dd3520d416c2d74a2b62cba81d75e098f095055f OP_EQUAL", "type": "scripthash"}, "value": 0.03025121, "n": 18}, {"scriptPubKey": {"reqSigs": 1, "hex": "a91494a356ce3c490a635a5f39f9ac7ac2fa0ac365d787", "addresses": ["3FEwbw5YVJZw898uZdm51BSXynj2j8xLK1"], "asm": "OP_HASH160 94a356ce3c490a635a5f39f9ac7ac2fa0ac365d7 OP_EQUAL", "type": "scripthash"}, "value": 19.1560074, "n": 19}, {"scriptPubKey": {"reqSigs": 1, "hex": "76a914be08f8553044d45a4057470d08d6201ad151faf988ac", "addresses": ["1JKp8hUJZ2HZjt2pDK1pu3Fvgsbc92NZWf"], "asm": "OP_DUP OP_HASH160 be08f8553044d45a4057470d08d6201ad151faf9 OP_EQUALVERIFY OP_CHECKSIG", "type": "pubkeyhash"}, "value": 0.002478, "n": 20}, {"scriptPubKey": {"reqSigs": 1, "hex": "a9140a172cb4e387372f77b92981cc2ad32c62552b5987", "addresses": ["32cNSfTjeBKr115iFhsmCFQ4zEZZqDHxLM"], "asm": "OP_HASH160 0a172cb4e387372f77b92981cc2ad32c62552b59 OP_EQUAL", "type": "scripthash"}, "value": 0.00440696, "n": 21}, {"scriptPubKey": {"reqSigs": 1, "hex": "a91462d6bee5d4bd9e68eb38b8d35017ac3e47f0283387", "addresses": ["3AhdQ8pHoQHNKvLwjuLeUuB7N3N776iD5V"], "asm": "OP_HASH160 62d6bee5d4bd9e68eb38b8d35017ac3e47f02833 OP_EQUAL", "type": "scripthash"}, "value": 0.01545666, "n": 22}, {"scriptPubKey": {"reqSigs": 1, "hex": "a91441b3ded55b05736c2b331582e866a9c1cf7d4e1287", "addresses": ["37gRKdWHaKDMfKqPqFWjoF4JL85yZPL9ui"], "asm": "OP_HASH160 41b3ded55b05736c2b331582e866a9c1cf7d4e12 OP_EQUAL", "type": "scripthash"}, "value": 0.0025646, "n": 23}, {"scriptPubKey": {"reqSigs": 1, "hex": "a9141e03ab64c7368821e9e9d536993277244962447887", "addresses": ["34RibG4QBsJqe5X2x6m533tchbSMsoXDiZ"], "asm": "OP_HASH160 1e03ab64c7368821e9e9d5369932772449624478 OP_EQUAL", "type": "scripthash"}, "value": 0.00260487, "n": 24}, {"scriptPubKey": {"reqSigs": 1, "hex": "a9144c4404341e4668513a85e39ca4e7097b635157af87", "addresses": ["38eGkzBAGMFusYXv8LaGh7mn6BKFjgCTLt"], "asm": "OP_HASH160 4c4404341e4668513a85e39ca4e7097b635157af OP_EQUAL", "type": "scripthash"}, "value": 1.0, "n": 25}, {"scriptPubKey": {"reqSigs": 1, "hex": "a914cf5dcab7a7f4c45e367c14489e75c54768df49bc87", "addresses": ["3LbUA2SbtbuAQBfvt5NHHAtXHFyYH4cLYW"], "asm": "OP_HASH160 cf5dcab7a7f4c45e367c14489e75c54768df49bc OP_EQUAL", "type": "scripthash"}, "value": 0.00314109, "n": 26}, {"scriptPubKey": {"reqSigs": 1, "hex": "76a914841bc37d5c43f379ea55f05e091a211b9fb7e39288ac", "addresses": ["1D3XTNcHQtaZopxqGFvveJg9VMiTH1d1L2"], "asm": "OP_DUP OP_HASH160 841bc37d5c43f379ea55f05e091a211b9fb7e392 OP_EQUALVERIFY OP_CHECKSIG", "type": "pubkeyhash"}, "value": 0.02262037, "n": 27}, {"scriptPubKey": {"reqSigs": 1, "hex": "76a9140e3b90f4789600bf37bd3c05be2fd959d909299588ac", "addresses": ["12JFpRMRwVey3NQPh4rxFiDXZscguy9gcr"], "asm": "OP_DUP OP_HASH160 0e3b90f4789600bf37bd3c05be2fd959d9092995 OP_EQUALVERIFY OP_CHECKSIG", "type": "pubkeyhash"}, "value": 0.777, "n": 28}, {"scriptPubKey": {"reqSigs": 1, "hex": "76a914ad5657397757a4a821918a52ceaecd4218a60f9888ac", "addresses": ["1GoXLFDXEU5pCGqUG4LFpVpV67RU9qeUsK"], "asm": "OP_DUP OP_HASH160 ad5657397757a4a821918a52ceaecd4218a60f98 OP_EQUALVERIFY OP_CHECKSIG", "type": "pubkeyhash"}, "value": 0.00225936, "n": 29}, {"scriptPubKey": {"reqSigs": 1, "hex": "a91403d11892f55c916b71d81baef04b7df3658f3e7887", "addresses": ["323CSN33rY9ZjSqSfSCPx9DKZZfCB6eU8w"], "asm": "OP_HASH160 03d11892f55c916b71d81baef04b7df3658f3e78 OP_EQUAL", "type": "scripthash"}, "value": 0.01826087, "n": 30}, {"scriptPubKey": {"reqSigs": 1, "hex": "76a9146782de4a8a606884312a71c7a8f81a8f52a5001d88ac", "addresses": ["1ASKNeemAwjGXydqwPTpG5hh2XatqRVbbm"], "asm": "OP_DUP OP_HASH160 6782de4a8a606884312a71c7a8f81a8f52a5001d OP_EQUALVERIFY OP_CHECKSIG", "type": "pubkeyhash"}, "value": 0.00218214, "n": 31}, {"scriptPubKey": {"reqSigs": 1, "hex": "a9141143c4e8a8f32855a2c16878d53966dfda8e8c6387", "addresses": ["33GJbVMdEkwFubkPRXhu5qxYaca3KWF2BD"], "asm": "OP_HASH160 1143c4e8a8f32855a2c16878d53966dfda8e8c63 OP_EQUAL", "type": "scripthash"}, "value": 0.01034506, "n": 32}, {"scriptPubKey": {"reqSigs": 1, "hex": "a914796051244608b09a4e06b865146124931f3311ac87", "addresses": ["3Cko4yVtDr4zQbwjc7C4uPzxhtdeZRe1ik"], "asm": "OP_HASH160 796051244608b09a4e06b865146124931f3311ac OP_EQUAL", "type": "scripthash"}, "value": 0.00025339, "n": 33}, {"scriptPubKey": {"reqSigs": 1, "hex": "76a9140dcca8796f5e136bed8f9f17701da9d7c76fdebe88ac", "addresses": ["12FxxPWW4yFwDwvEtGWnaDBM5gswpThLQq"], "asm": "OP_DUP OP_HASH160 0dcca8796f5e136bed8f9f17701da9d7c76fdebe OP_EQUALVERIFY OP_CHECKSIG", "type": "pubkeyhash"}, "value": 0.00218214, "n": 34}], "hex": "02000000000101140c38cf7229d849616a0385fd576447dc5bf53386e30fab447f3e4612afcbf211000000171600145ae14f60f46441e8c22b6d74c6df70de3c17a1abfeffffff2319b505000000000017a9142d4ee016c93b014087db86a35197a80999d250e887a19241000000000017a9147840ea1855b8635633b0ca9e403badfbc62634de87904106000000000017a914fdd7f60decef1351802ad2da403422c2f71e6f66877ffe5700000000001976a9142e252c71003a37b852359d53243907406ddf697988acb05a04000000000017a9143e42574952c28340bd98e60e46da4868ae03b327871cd20b000000000017a91400f867bf5c2598ee30cdb68e41d40b5c8eadaccf879b840b000000000017a914f1c771d3b8c67dc7d3a128b790ba9182bd4bd0ac87511309000000000017a91481fa03363176c0f766094ea3982eeb48c057b5e487e04d0600000000001976a9145856ed07f2f297a7f67061086dd0fa78fb514f7088acc9630300000000001976a914353d0155b80a35c7a888b2954f567ab16df801bc88aca00b06000000000017a91465236cf99460d7a48322378357a3274ad825d578872daeee000000000017a9148d29e41be8d2bf00e466c5946898489e415191f98743232600000000001976a914507f58bd029e64b78810d721f098d4730d381a3288ac715504000000000017a91402846e5c7956b950bb428305cba43259f590545a8759e804000000000017a9141ac809ac05e8fb641f4b4f18e7d6f95410ac549987085c14000000000017a91418b04a75adb979c4629610b670ba29dd07580c488710041700000000001976a9142d8839b867441d1ca9cddd48fab0df67caf922ff88ac319204000000000017a914964a8fc6c8b70b246b05036360e2b2042ae26ae487e1282e000000000017a914dd3520d416c2d74a2b62cba81d75e098f095055f8764bf2d720000000017a91494a356ce3c490a635a5f39f9ac7ac2fa0ac365d787f8c70300000000001976a914be08f8553044d45a4057470d08d6201ad151faf988ac78b906000000000017a9140a172cb4e387372f77b92981cc2ad32c62552b5987c29517000000000017a91462d6bee5d4bd9e68eb38b8d35017ac3e47f0283387cce903000000000017a91441b3ded55b05736c2b331582e866a9c1cf7d4e128787f903000000000017a9141e03ab64c7368821e9e9d53699327724496244788700e1f5050000000017a9144c4404341e4668513a85e39ca4e7097b635157af87fdca04000000000017a914cf5dcab7a7f4c45e367c14489e75c54768df49bc8715842200000000001976a914841bc37d5c43f379ea55f05e091a211b9fb7e39288aca09ba104000000001976a9140e3b90f4789600bf37bd3c05be2fd959d909299588ac90720300000000001976a914ad5657397757a4a821918a52ceaecd4218a60f9888ac27dd1b000000000017a91403d11892f55c916b71d81baef04b7df3658f3e788766540300000000001976a9146782de4a8a606884312a71c7a8f81a8f52a5001d88ac0ac90f000000000017a9141143c4e8a8f32855a2c16878d53966dfda8e8c6387fb6200000000000017a914796051244608b09a4e06b865146124931f3311ac8766540300000000001976a9140dcca8796f5e136bed8f9f17701da9d7c76fdebe88ac02483045022100d65516240e1f3bed5d8f46391e4288ac14d5a90ce86dee113730d77afb0f4788022006535a80a0093b9eecaaa9b06f650a3ce539bfd7ac0343f8540aae5a00df96040121025ab0b61499afae2a83530d10f7e6e80b85a2fe6911aa74d1fe6847f64617cae014490800", "vin": [{"txinwitness": ["3045022100d65516240e1f3bed5d8f46391e4288ac14d5a90ce86dee113730d77afb0f4788022006535a80a0093b9eecaaa9b06f650a3ce539bfd7ac0343f8540aae5a00df960401", "025ab0b61499afae2a83530d10f7e6e80b85a2fe6911aa74d1fe6847f64617cae0"], "sequence": 4294967294, "scriptSig": {"hex": "1600145ae14f60f46441e8c22b6d74c6df70de3c17a1ab", "asm": "00145ae14f60f46441e8c22b6d74c6df70de3c17a1ab"}, "vout": 17, "txid": "f2cbaf12463e7f44ab0fe38633f55bdc476457fd85036a6149d82972cf380c14"}], "txid": "5d9961c8e86069a340df4f4936ef79f963bb20e9ecdd1f346a78230582df6997", "blocktime": 1537873891, "version": 2, "confirmations": 11475, "time": 1537873891, "locktime": 542996, "vsize": 1244, "size": 1326}