{"hash": "d59c102b32c571cb21735070b8795545602d4a7e100d00beccd5aa41883f74cc", "blockhash": "0000000000000000001e0dab787dd257d1dbfcb92a98c2207d5e1078be1f4165", "vout": [{"scriptPubKey": {"reqSigs": 1, "hex": "a91413902fa490ec2a4b7e04bfcd6670f31fd520d2b787", "addresses": ["33UTVR1PoR8HavPWz55HauQeaevLKphjt8"], "asm": "OP_HASH160 13902fa490ec2a4b7e04bfcd6670f31fd520d2b7 OP_EQUAL", "type": "scripthash"}, "value": 0.145, "n": 0}, {"scriptPubKey": {"reqSigs": 1, "hex": "a914b96e4a9424c7568ecc28e4b5a5215b5c1f5cf5bb87", "addresses": ["3JbV4D1TCJjuvtZf6LLV56UqmGaiRkVMVD"], "asm": "OP_HASH160 b96e4a9424c7568ecc28e4b5a5215b5c1f5cf5bb OP_EQUAL", "type": "scripthash"}, "value": 0.07497727, "n": 1}], "hex": "02000000000101f605c918471960b9ee1488e37bb7395eb7abbcc7f3dff65c6b2cfa416f3aa3df000000001716001414660ae9cc8e4dc955778fb5b8dff23d92607b2dfeffffff02a040dd000000000017a91413902fa490ec2a4b7e04bfcd6670f31fd520d2b787ff6772000000000017a914b96e4a9424c7568ecc28e4b5a5215b5c1f5cf5bb8702483045022100d21988dda79bd9aaf35d69734e7b8be9e46790805c98dc4376d9e4df86e7ba7d02200ce422be6a49cbab066bd926e63eaa40653c26091c28b08fa704ffe28466ba74012102955ae5c11140a9e22fd5abf76e587691115f0c4267bd92b7bbffe3994344082912490800", "vin": [{"txinwitness": ["3045022100d21988dda79bd9aaf35d69734e7b8be9e46790805c98dc4376d9e4df86e7ba7d02200ce422be6a49cbab066bd926e63eaa40653c26091c28b08fa704ffe28466ba7401", "02955ae5c11140a9e22fd5abf76e587691115f0c4267bd92b7bbffe39943440829"], "sequence": 4294967294, "scriptSig": {"hex": "16001414660ae9cc8e4dc955778fb5b8dff23d92607b2d", "asm": "001414660ae9cc8e4dc955778fb5b8dff23d92607b2d"}, "vout": 0, "txid": "dfa33a6f41fa2c6b5cf6dff3c7bcabb75e39b77be38814eeb960194718c905f6"}], "txid": "5d9cca876f07e992518f61248388f9d1c32c0ac6cf716d0d79b4f2dcc9b1243d", "blocktime": 1537872475, "version": 2, "confirmations": 11486, "time": 1537872475, "locktime": 542994, "vsize": 166, "size": 248}