{"hash": "5d9cbe2822de248609c6de8edb5f922b37092df960807fa369be95f38aad7b4c", "blockhash": "00000000000000000018f53835495a110e01622372bf6ae95dc86f2b0ab887b0", "vout": [{"scriptPubKey": {"reqSigs": 1, "hex": "76a9143c55e95a587fd702fffb3d46bd9395e0341a5d1988ac", "addresses": ["16W2TkNybmyf57bzAhWYZdQLH3qdfxb5WD"], "asm": "OP_DUP OP_HASH160 3c55e95a587fd702fffb3d46bd9395e0341a5d19 OP_EQUALVERIFY OP_CHECKSIG", "type": "pubkeyhash"}, "value": 0.0148062, "n": 0}, {"scriptPubKey": {"type": "nulldata", "hex": "6a4c500000778600012f061448616686459b63732dbcbefa6b8351586b4e86aeaeacb577c031fc8103ac2eb340c5c4766774c5a44536ff5baa0b59061431619b2703debc9a9526289ac0f6612cd74e33776ee4", "asm": "OP_RETURN 0000778600012f061448616686459b63732dbcbefa6b8351586b4e86aeaeacb577c031fc8103ac2eb340c5c4766774c5a44536ff5baa0b59061431619b2703debc9a9526289ac0f6612cd74e33776ee4"}, "value": 0.0, "n": 1}], "hex": "010000000107e741313bb9dade6f216ad2966fa3889be0453ac70c8901b66a94bf9b85affe010000006a47304402202f2b6382309cb9596acc971bd27c16c72a75751c47c41b01d147e6abfe55aba8022026b4a4f3001d6af304300567652c9acd9015c0fea7b639d12be2a4a9b23698c601210257bb45d3032c50b9d548bde6d65b5ab75865d7293f4e89f30e79eeab5edd24a3ffffffff02ac971600000000001976a9143c55e95a587fd702fffb3d46bd9395e0341a5d1988ac0000000000000000536a4c500000778600012f061448616686459b63732dbcbefa6b8351586b4e86aeaeacb577c031fc8103ac2eb340c5c4766774c5a44536ff5baa0b59061431619b2703debc9a9526289ac0f6612cd74e33776ee400000000", "vin": [{"sequence": 4294967295, "scriptSig": {"hex": "47304402202f2b6382309cb9596acc971bd27c16c72a75751c47c41b01d147e6abfe55aba8022026b4a4f3001d6af304300567652c9acd9015c0fea7b639d12be2a4a9b23698c601210257bb45d3032c50b9d548bde6d65b5ab75865d7293f4e89f30e79eeab5edd24a3", "asm": "304402202f2b6382309cb9596acc971bd27c16c72a75751c47c41b01d147e6abfe55aba8022026b4a4f3001d6af304300567652c9acd9015c0fea7b639d12be2a4a9b23698c6[ALL] 0257bb45d3032c50b9d548bde6d65b5ab75865d7293f4e89f30e79eeab5edd24a3"}, "vout": 1, "txid": "feaf859bbf946ab601890cc73a45e09b88a36f96d26a216fdedab93b3141e707"}], "txid": "5d9cbe2822de248609c6de8edb5f922b37092df960807fa369be95f38aad7b4c", "blocktime": 1537870928, "version": 1, "confirmations": 11512, "time": 1537870928, "locktime": 0, "vsize": 283, "size": 283}