{"hash": "5da07f9eee4760063ace2c2e1bb266640bbd3609feea51e678d1e4893fe9a49d", "blockhash": "000000000000000000022b45ed06c6f4ccd3cf7fb5ba4856ebd2e58215665228", "vout": [{"scriptPubKey": {"reqSigs": 1, "hex": "76a914522af237de1fe5b83d913e54cb942e3e7633758688ac", "addresses": ["18VTrgZ5RKPVQ9pmeK4GBB39FpYduGdwea"], "asm": "OP_DUP OP_HASH160 522af237de1fe5b83d913e54cb942e3e76337586 OP_EQUALVERIFY OP_CHECKSIG", "type": "pubkeyhash"}, "value": 0.15545486, "n": 0}, {"scriptPubKey": {"reqSigs": 1, "hex": "76a9149ea1487812cfc4c755b8412c8782123342a8636688ac", "addresses": ["1FTkyTLyNQGW9umnPSDqrNtjp63mSdRMzr"], "asm": "OP_DUP OP_HASH160 9ea1487812cfc4c755b8412c8782123342a86366 OP_EQUALVERIFY OP_CHECKSIG", "type": "pubkeyhash"}, "value": 0.17117938, "n": 1}], "hex": "010000000230b0bf989647d16cc9d3b73465dc11a99dd2f7415450b518523fadbf72aa38ec000000006a4730440220087157a9197d7aed4658fadb11b4552067f510277fe1ecdbcc96ca3419103d55022039b60dcd1148c119d5e8dde103d51047f8297c3b69226988cf8ab719a0013518012102681a69ec3817d1adf08d2b72b267af3faea934861bfa8b7cfc6017365121c58dffffffff26ed1884b9104a50860a423f6e44fa539f216e1a71e1a953b74ed20cd176ae2f010000006a47304402206c7468547f990ce778051bfe7ed0840e8ee2314372dbeb932741cafda72a192f022076406b8501dd9d0436c707b5bc023e65e714fbd2912a3c0da1605a241b765b85012103024d023cfedc822d6092656479b8d1484e4811d73af0ffd20b939aba97adc99bffffffff028e34ed00000000001976a914522af237de1fe5b83d913e54cb942e3e7633758688acf2320501000000001976a9149ea1487812cfc4c755b8412c8782123342a8636688ac00000000", "vin": [{"sequence": 4294967295, "scriptSig": {"hex": "4730440220087157a9197d7aed4658fadb11b4552067f510277fe1ecdbcc96ca3419103d55022039b60dcd1148c119d5e8dde103d51047f8297c3b69226988cf8ab719a0013518012102681a69ec3817d1adf08d2b72b267af3faea934861bfa8b7cfc6017365121c58d", "asm": "30440220087157a9197d7aed4658fadb11b4552067f510277fe1ecdbcc96ca3419103d55022039b60dcd1148c119d5e8dde103d51047f8297c3b69226988cf8ab719a0013518[ALL] 02681a69ec3817d1adf08d2b72b267af3faea934861bfa8b7cfc6017365121c58d"}, "vout": 0, "txid": "ec38aa72bfad3f5218b5505441f7d29da911dc6534b7d3c96cd1479698bfb030"}, {"sequence": 4294967295, "scriptSig": {"hex": "47304402206c7468547f990ce778051bfe7ed0840e8ee2314372dbeb932741cafda72a192f022076406b8501dd9d0436c707b5bc023e65e714fbd2912a3c0da1605a241b765b85012103024d023cfedc822d6092656479b8d1484e4811d73af0ffd20b939aba97adc99b", "asm": "304402206c7468547f990ce778051bfe7ed0840e8ee2314372dbeb932741cafda72a192f022076406b8501dd9d0436c707b5bc023e65e714fbd2912a3c0da1605a241b765b85[ALL] 03024d023cfedc822d6092656479b8d1484e4811d73af0ffd20b939aba97adc99b"}, "vout": 1, "txid": "2fae76d10cd24eb753a9e1711a6e219f53fa446e3f420a86504a10b98418ed26"}], "txid": "5da07f9eee4760063ace2c2e1bb266640bbd3609feea51e678d1e4893fe9a49d", "blocktime": 1537869901, "version": 1, "confirmations": 11523, "time": 1537869901, "locktime": 0, "vsize": 372, "size": 372}