{"hash": "5da1568e9cc972197781be684d86e7933cc594a74e85cb40f18ceccf2e1067be", "blockhash": "00000000000000000018f53835495a110e01622372bf6ae95dc86f2b0ab887b0", "vout": [{"scriptPubKey": {"reqSigs": 1, "hex": "a9141d4158936df625ae68ea67078110b7b2ea65857e87", "addresses": ["34MhoRgx1izSKhoAsqBK8VTK1yrGcMPXW5"], "asm": "OP_HASH160 1d4158936df625ae68ea67078110b7b2ea65857e OP_EQUAL", "type": "scripthash"}, "value": 0.038, "n": 0}, {"scriptPubKey": {"reqSigs": 1, "hex": "76a914d5701897e4b5818544177fdbcd11ade0816dc55a88ac", "addresses": ["1LTZDS1abKzxHgiBp2J8yTD5arxW7anNu1"], "asm": "OP_DUP OP_HASH160 d5701897e4b5818544177fdbcd11ade0816dc55a OP_EQUALVERIFY OP_CHECKSIG", "type": "pubkeyhash"}, "value": 0.03273517, "n": 1}], "hex": "0100000001004d15ccb7b52b279b4aab54edbd170b82f23a57603638bda8b0057c22a07e25010000006b483045022100c4e3205cda1a35799195527df7630620f3ed82deb95b1757b6380523663b75980220723218aaedbe3364a8b2b969889cb04ee8ee36bd0a759ccc1eb072c2643689ec012103a37a7b46c1b58232b18cf4212c973fa95493b781ae521086aaffcb9463a1f248ffffffff02c0fb39000000000017a9141d4158936df625ae68ea67078110b7b2ea65857e872df33100000000001976a914d5701897e4b5818544177fdbcd11ade0816dc55a88ac00000000", "vin": [{"sequence": 4294967295, "scriptSig": {"hex": "483045022100c4e3205cda1a35799195527df7630620f3ed82deb95b1757b6380523663b75980220723218aaedbe3364a8b2b969889cb04ee8ee36bd0a759ccc1eb072c2643689ec012103a37a7b46c1b58232b18cf4212c973fa95493b781ae521086aaffcb9463a1f248", "asm": "3045022100c4e3205cda1a35799195527df7630620f3ed82deb95b1757b6380523663b75980220723218aaedbe3364a8b2b969889cb04ee8ee36bd0a759ccc1eb072c2643689ec[ALL] 03a37a7b46c1b58232b18cf4212c973fa95493b781ae521086aaffcb9463a1f248"}, "vout": 1, "txid": "257ea0227c05b0a8bd383660573af2820b17bded54ab4a9b272bb5b7cc154d00"}], "txid": "5da1568e9cc972197781be684d86e7933cc594a74e85cb40f18ceccf2e1067be", "blocktime": 1537870928, "version": 1, "confirmations": 11512, "time": 1537870928, "locktime": 0, "vsize": 224, "size": 224}