{"hash": "bc6db25388ea600f803ce3260a4749a56fec83f3b0580fcb95139cb31cfb7847", "blockhash": "0000000000000000001cda96e906b7601b7a6fb1a3b62bca570a9e5d8f4b3de1", "vout": [{"scriptPubKey": {"reqSigs": 1, "hex": "a914c30d0e0202843117b48c581ed9129c359e37455687", "addresses": ["3KUML1SXiHbbaRohjMFL1yF3GSjJg26fVg"], "asm": "OP_HASH160 c30d0e0202843117b48c581ed9129c359e374556 OP_EQUAL", "type": "scripthash"}, "value": 0.00154869, "n": 0}, {"scriptPubKey": {"reqSigs": 1, "hex": "76a914ea61b8e1befaa064df0b2e83c15a2898feac09c288ac", "addresses": ["1NNJBkEe7EM6GhT8Md4FHqT1Bbxw4aLwpn"], "asm": "OP_DUP OP_HASH160 ea61b8e1befaa064df0b2e83c15a2898feac09c2 OP_EQUALVERIFY OP_CHECKSIG", "type": "pubkeyhash"}, "value": 0.001535, "n": 1}], "hex": "020000000001026ca552892ef00c3864895cb0de30bea2b476caf33657e73696133ecc805c7c6000000000171600145c29579d6e320e3b85ef57e9b300a62f791553bafdffffff0fbadebf57fb16b4cd47555e09cfae40bf495ffc36e4e6fc214102b9b4796082000000001716001439668c23284c70a31e5cc09e1a09979f9da74899fdffffff02f55c02000000000017a914c30d0e0202843117b48c581ed9129c359e374556879c570200000000001976a914ea61b8e1befaa064df0b2e83c15a2898feac09c288ac02483045022100ca3fdd84d0449fba0f52882db806a5db178d7a2bcd52d3d6b4eddc094872e44402207ffdf4462a148846e8f59c98b446dc9466a0fcfd33b25c6ff1e30156e16c3701012103999dddbe2319f641101223b2b4a3a71abe4a2c4fe166aea5bff3d0e8170770a902483045022100b35a101d2d930dae6c2ae9464f03bc96713daa1981910a1bff510e0482d4859002200289d60a4f75403c98cb4e953cd16d1cee3b0002bf96b4878e6dee5856005636012103f5a6f86649872cc88eb8d1d07af3eb2f364b4a8fbafa6281126e8bc22b0c57b800000000", "vin": [{"txinwitness": ["3045022100ca3fdd84d0449fba0f52882db806a5db178d7a2bcd52d3d6b4eddc094872e44402207ffdf4462a148846e8f59c98b446dc9466a0fcfd33b25c6ff1e30156e16c370101", "03999dddbe2319f641101223b2b4a3a71abe4a2c4fe166aea5bff3d0e8170770a9"], "sequence": 4294967293, "scriptSig": {"hex": "1600145c29579d6e320e3b85ef57e9b300a62f791553ba", "asm": "00145c29579d6e320e3b85ef57e9b300a62f791553ba"}, "vout": 0, "txid": "607c5c80cc3e139636e75736f3ca76b4a2be30deb05c8964380cf02e8952a56c"}, {"txinwitness": ["3045022100b35a101d2d930dae6c2ae9464f03bc96713daa1981910a1bff510e0482d4859002200289d60a4f75403c98cb4e953cd16d1cee3b0002bf96b4878e6dee585600563601", "03f5a6f86649872cc88eb8d1d07af3eb2f364b4a8fbafa6281126e8bc22b0c57b8"], "sequence": 4294967293, "scriptSig": {"hex": "16001439668c23284c70a31e5cc09e1a09979f9da74899", "asm": "001439668c23284c70a31e5cc09e1a09979f9da74899"}, "vout": 0, "txid": "826079b4b9024121fce6e436fc5f49bf40aecf095e5547cdb416fb57bfdeba0f"}], "txid": "5da214eb219b11f6f0d2cb1d4744152ad5812134e4297b5aab5bda6e1901a007", "blocktime": 1537873282, "version": 2, "confirmations": 11480, "time": 1537873282, "locktime": 0, "vsize": 259, "size": 422}