{"hash": "f010a800a1d4cd84289e37b1f60c915bf5b0d5376baba804ffad1b2545a4dd2a", "blockhash": "0000000000000000001cda96e906b7601b7a6fb1a3b62bca570a9e5d8f4b3de1", "vout": [{"scriptPubKey": {"reqSigs": 1, "hex": "a91449020927b575638dcc5d8f3852721a7fde0cb7b387", "addresses": ["38M3gze7oMdYgkqqjZ7cJLD2LNhg8LEoMr"], "asm": "OP_HASH160 49020927b575638dcc5d8f3852721a7fde0cb7b3 OP_EQUAL", "type": "scripthash"}, "value": 0.03819301, "n": 0}, {"scriptPubKey": {"reqSigs": 1, "hex": "a914e14cb516a4237edad499d29a26fc058533fa9d9087", "addresses": ["3NEHrRkbbiBqgqmqNrwmd6kUy6DusNjNHf"], "asm": "OP_HASH160 e14cb516a4237edad499d29a26fc058533fa9d90 OP_EQUAL", "type": "scripthash"}, "value": 0.02286422, "n": 1}], "hex": "0100000000010202460a5c1366f33946cfd99b226558d727f88cf3e57df93db61c3646e4e111bf0100000017160014280e7353bd20f906ff209d51a7ce03f1fd97f01cfdffffffb847b2527ea145c2ba266ef96120ef26e36a0fd98a8a02d92060f2f0a92a4a480100000017160014a12efd4a04a1535684361ba1ad5c5537cb9b02bbfdffffff0225473a000000000017a91449020927b575638dcc5d8f3852721a7fde0cb7b38756e322000000000017a914e14cb516a4237edad499d29a26fc058533fa9d90870247304402203d81b0cb97b0eed6ea3d82e1f2c13a567dc280ee22f998459afa3b159fce43af022078c26f9b69b11aec33a4b9076be72e82595e192847263517efc68ea01842a5b70121021ae86f1267f88fb578358811f4656f88e3a46e243b820c4aa6427caa9fb705d60247304402204682a3099a21008a83d131fb6658f46a66c676619bf3ac7feeecaef108f440c1022070c39a5f5abd51565d19f72e39117d18e83faff1fea52d14b75cb2779128547d01210370a08b15ba0912e3a989959b017fa46b03f4eaf0523595a7b42f87504f77741000000000", "vin": [{"txinwitness": ["304402203d81b0cb97b0eed6ea3d82e1f2c13a567dc280ee22f998459afa3b159fce43af022078c26f9b69b11aec33a4b9076be72e82595e192847263517efc68ea01842a5b701", "021ae86f1267f88fb578358811f4656f88e3a46e243b820c4aa6427caa9fb705d6"], "sequence": 4294967293, "scriptSig": {"hex": "160014280e7353bd20f906ff209d51a7ce03f1fd97f01c", "asm": "0014280e7353bd20f906ff209d51a7ce03f1fd97f01c"}, "vout": 1, "txid": "bf11e1e446361cb63df97de5f38cf827d75865229bd9cf4639f366135c0a4602"}, {"txinwitness": ["304402204682a3099a21008a83d131fb6658f46a66c676619bf3ac7feeecaef108f440c1022070c39a5f5abd51565d19f72e39117d18e83faff1fea52d14b75cb2779128547d01", "0370a08b15ba0912e3a989959b017fa46b03f4eaf0523595a7b42f87504f777410"], "sequence": 4294967293, "scriptSig": {"hex": "160014a12efd4a04a1535684361ba1ad5c5537cb9b02bb", "asm": "0014a12efd4a04a1535684361ba1ad5c5537cb9b02bb"}, "vout": 1, "txid": "484a2aa9f0f26020d9028a8ad90f6ae326ef2061f96e26bac245a17e52b247b8"}], "txid": "5da69f6028e661ac20b251f319ef527410b4055464f67ddffdd1d46a26ac91bb", "blocktime": 1537873282, "version": 1, "confirmations": 11481, "time": 1537873282, "locktime": 0, "vsize": 256, "size": 418}