{"hash": "5da74a6c947aefcfff0243428539010baa88247c0c607f6defbee5495707973e", "blockhash": "0000000000000000001f76057863aec43deb6fa401d9628bb513d65a8098bfab", "vout": [{"scriptPubKey": {"reqSigs": 1, "hex": "76a914ecc215cc37a02cb79eae8d20375810a275f3052c88ac", "addresses": ["1NaryYaTsJUVVGNMbKFhNhofD44yUbUcq9"], "asm": "OP_DUP OP_HASH160 ecc215cc37a02cb79eae8d20375810a275f3052c OP_EQUALVERIFY OP_CHECKSIG", "type": "pubkeyhash"}, "value": 0.00075443, "n": 0}, {"scriptPubKey": {"reqSigs": 1, "hex": "a914c2948f406026c8a16f41f3a44ced97bd8f71014f87", "addresses": ["3KRryrnTZFGDP4VTpiyhz81L3G8q9i2h8S"], "asm": "OP_HASH160 c2948f406026c8a16f41f3a44ced97bd8f71014f OP_EQUAL", "type": "scripthash"}, "value": 0.00156247, "n": 1}], "hex": "01000000017a07968de10cac9cc2e7db06a17a00f3ba39b7e84298d06b082e061e23ac3b5c000000006b4830450221008dba6e0dab2ec3ed9c04e9a36b55394a0d0abd685d38609617cdfd7837f7e80e02205b5306e5268191a59c869fa47d47d2f881314ecb0bd16a624c53402f8b73db5e0121025d93a94b9607f5c455598288ba0ff146633dd9bbe33d716c091790b9c8c95aaffdffffff02b3260100000000001976a914ecc215cc37a02cb79eae8d20375810a275f3052c88ac576202000000000017a914c2948f406026c8a16f41f3a44ced97bd8f71014f8714490800", "vin": [{"sequence": 4294967293, "scriptSig": {"hex": "4830450221008dba6e0dab2ec3ed9c04e9a36b55394a0d0abd685d38609617cdfd7837f7e80e02205b5306e5268191a59c869fa47d47d2f881314ecb0bd16a624c53402f8b73db5e0121025d93a94b9607f5c455598288ba0ff146633dd9bbe33d716c091790b9c8c95aaf", "asm": "30450221008dba6e0dab2ec3ed9c04e9a36b55394a0d0abd685d38609617cdfd7837f7e80e02205b5306e5268191a59c869fa47d47d2f881314ecb0bd16a624c53402f8b73db5e[ALL] 025d93a94b9607f5c455598288ba0ff146633dd9bbe33d716c091790b9c8c95aaf"}, "vout": 0, "txid": "5c3bac231e062e086bd09842e8b739baf3007aa106dbe7c29cac0ce18d96077a"}], "txid": "5da74a6c947aefcfff0243428539010baa88247c0c607f6defbee5495707973e", "blocktime": 1537873891, "version": 1, "confirmations": 11475, "time": 1537873891, "locktime": 542996, "vsize": 224, "size": 224}