{"hash": "5da93f1032d74c0691f8c9d351ef2c8d953266324a089fd36e4a4044185202be", "blockhash": "0000000000000000001f0ddff1eddb255c1121bcd4da4f1bc9a0da00cae72433", "vout": [{"scriptPubKey": {"reqSigs": 1, "hex": "76a914f403cf0a1c6dcc582ab4245952062dfbc76392af88ac", "addresses": ["1PFESShWGFrc9rVFUNmtQak21QFYCYYBs5"], "asm": "OP_DUP OP_HASH160 f403cf0a1c6dcc582ab4245952062dfbc76392af OP_EQUALVERIFY OP_CHECKSIG", "type": "pubkeyhash"}, "value": 0.00641341, "n": 0}, {"scriptPubKey": {"type": "nulldata", "hex": "6a4c50000077aa0001cc3e71fd0089983f3f86dd1eaf6c953dd567cf27e7e3ef3236678a6250974d5fd9fc3590d6af0d317254c51eff475baa101e0612d889803a8ebc1d100759d4ba30d2c37bb011d97e02cf", "asm": "OP_RETURN 000077aa0001cc3e71fd0089983f3f86dd1eaf6c953dd567cf27e7e3ef3236678a6250974d5fd9fc3590d6af0d317254c51eff475baa101e0612d889803a8ebc1d100759d4ba30d2c37bb011d97e02cf"}, "value": 0.0, "n": 1}], "hex": "0100000001fe2f0771469f92bf743df58493019f56b5fd438df146c033146d28a7f6dc935d000000006b483045022100ad363144a98908acf4082ab47eafbc818af70ebf6d21b392358b46b8bea9dd500220710c5fa895c858e4f6a852a7c5f0a266184a72b739109abbff33e105dae04c970121034d6fdd8baa4870a2a333416a2c813712cddf38cbca6e29f0567463a126d8f63effffffff023dc90900000000001976a914f403cf0a1c6dcc582ab4245952062dfbc76392af88ac0000000000000000536a4c50000077aa0001cc3e71fd0089983f3f86dd1eaf6c953dd567cf27e7e3ef3236678a6250974d5fd9fc3590d6af0d317254c51eff475baa101e0612d889803a8ebc1d100759d4ba30d2c37bb011d97e02cf00000000", "vin": [{"sequence": 4294967295, "scriptSig": {"hex": "483045022100ad363144a98908acf4082ab47eafbc818af70ebf6d21b392358b46b8bea9dd500220710c5fa895c858e4f6a852a7c5f0a266184a72b739109abbff33e105dae04c970121034d6fdd8baa4870a2a333416a2c813712cddf38cbca6e29f0567463a126d8f63e", "asm": "3045022100ad363144a98908acf4082ab47eafbc818af70ebf6d21b392358b46b8bea9dd500220710c5fa895c858e4f6a852a7c5f0a266184a72b739109abbff33e105dae04c97[ALL] 034d6fdd8baa4870a2a333416a2c813712cddf38cbca6e29f0567463a126d8f63e"}, "vout": 0, "txid": "5d93dcf6a7286d1433c046f18d43fdb5569f019384f53d74bf929f4671072ffe"}], "txid": "5da93f1032d74c0691f8c9d351ef2c8d953266324a089fd36e4a4044185202be", "blocktime": 1537872018, "version": 1, "confirmations": 11489, "time": 1537872018, "locktime": 0, "vsize": 284, "size": 284}