{"hash": "5dabc75a79e24650891c0108eb5399e066e3f7140f8ad51e4a6036d156b63363", "blockhash": "00000000000000000017f5eb5941039fbcee6240d03bc1f2f8e35350df66a1d8", "vout": [{"scriptPubKey": {"reqSigs": 1, "hex": "a91454046949f67cb07872d659d4909288f76bb96f5a87", "addresses": ["39MFyAAyDhitT4gDc8zb1r6qEKyYJULUdN"], "asm": "OP_HASH160 54046949f67cb07872d659d4909288f76bb96f5a OP_EQUAL", "type": "scripthash"}, "value": 0.0023746, "n": 0}, {"scriptPubKey": {"reqSigs": 1, "hex": "76a91405f2b095877026c8349219fa29ebc7d8874a60b288ac", "addresses": ["1YT7LmSeVsqZojni7GJYcW5eaDbtyipTL"], "asm": "OP_DUP OP_HASH160 05f2b095877026c8349219fa29ebc7d8874a60b2 OP_EQUALVERIFY OP_CHECKSIG", "type": "pubkeyhash"}, "value": 0.04960498, "n": 1}], "hex": "0100000001c384d9e84473b1e815982f7fafd7f8c63450a121b10301016049556caf2cfffb010000006b483045022100fc8129ad889e99a96b5955a5dd886e9a3782e4249c8835f0a6cd91e6ce39e5d60220115e0f935e0e36595c3314a0482b558e53c327879dbaac9046ba8cf1f6f3a336012103d22b5cecdee32ff380b233f0dbebb478647234973b1da9029db78d927071da01ffffffff02949f03000000000017a91454046949f67cb07872d659d4909288f76bb96f5a87f2b04b00000000001976a91405f2b095877026c8349219fa29ebc7d8874a60b288ac00000000", "vin": [{"sequence": 4294967295, "scriptSig": {"hex": "483045022100fc8129ad889e99a96b5955a5dd886e9a3782e4249c8835f0a6cd91e6ce39e5d60220115e0f935e0e36595c3314a0482b558e53c327879dbaac9046ba8cf1f6f3a336012103d22b5cecdee32ff380b233f0dbebb478647234973b1da9029db78d927071da01", "asm": "3045022100fc8129ad889e99a96b5955a5dd886e9a3782e4249c8835f0a6cd91e6ce39e5d60220115e0f935e0e36595c3314a0482b558e53c327879dbaac9046ba8cf1f6f3a336[ALL] 03d22b5cecdee32ff380b233f0dbebb478647234973b1da9029db78d927071da01"}, "vout": 1, "txid": "fbff2caf6c554960010103b121a15034c6f8d7af7f2f9815e8b17344e8d984c3"}], "txid": "5dabc75a79e24650891c0108eb5399e066e3f7140f8ad51e4a6036d156b63363", "blocktime": 1537874412, "version": 1, "confirmations": 11467, "time": 1537874412, "locktime": 0, "vsize": 224, "size": 224}