{"hash": "5dab525c5a9d4c9a942aedf6d6e061b1585e03c019eabeb5d4de5120f381ceb0", "blockhash": "000000000000000000022b45ed06c6f4ccd3cf7fb5ba4856ebd2e58215665228", "vout": [{"scriptPubKey": {"reqSigs": 1, "hex": "a9145964b6a12aa691f1eae79a94428db24bb8f077d887", "addresses": ["39qgiJi7f5QB1XA82iStmFVKSzgbgCQy37"], "asm": "OP_HASH160 5964b6a12aa691f1eae79a94428db24bb8f077d8 OP_EQUAL", "type": "scripthash"}, "value": 5.46e-06, "n": 0}, {"scriptPubKey": {"reqSigs": 1, "hex": "a9143f4eecba122ad73039d481c8d37f99cb4f887cd887", "addresses": ["37Tm3Qz8Zw2VJrheUUhArDAoq58S6YrS3g"], "asm": "OP_HASH160 3f4eecba122ad73039d481c8d37f99cb4f887cd8 OP_EQUAL", "type": "scripthash"}, "value": 0.99997454, "n": 1}, {"scriptPubKey": {"type": "nulldata", "hex": "6a146f6d6e69000000000000001f000000202170e400", "asm": "OP_RETURN 6f6d6e69000000000000001f000000202170e400"}, "value": 0.0, "n": 2}], "hex": "0100000001bcda3cff45e81f610fcd6e2791011e7696d8587011aaf2da59eb187df9d13b0800000000fdfe0000483045022100a4d6e5a863763eddd86700a0022706c4f1a26b8ce9229a036c799c49d625ca09022016013783d58baf362afef53fcca1cd0d60a294e8a2a24d01c679291a73d252d5014830450221008bbb5a92ac904cb348ebc0f830ec3a6e280fdbb21267a835d5a11ba8369ceca202201977e4050e77474b7dbfbcfba770a5776b6438c645c34dfcc141fae323c559e6014c6952210246ccf4de0c54cc7f3354cdd993c2c50cf965fd82238b89659fbd73a1b4bf05a121024fc59f72272a897fe43803374969f396058152fe4765a8d15216f94624257b1b21022593bc69ecbf3bbcc3c58082267cb49dadaf4ca8dbf1b2297338a9d628c4297653aeffffffff03220200000000000017a9145964b6a12aa691f1eae79a94428db24bb8f077d8870ed7f5050000000017a9143f4eecba122ad73039d481c8d37f99cb4f887cd8870000000000000000166a146f6d6e69000000000000001f000000202170e40000000000", "vin": [{"sequence": 4294967295, "scriptSig": {"hex": "00483045022100a4d6e5a863763eddd86700a0022706c4f1a26b8ce9229a036c799c49d625ca09022016013783d58baf362afef53fcca1cd0d60a294e8a2a24d01c679291a73d252d5014830450221008bbb5a92ac904cb348ebc0f830ec3a6e280fdbb21267a835d5a11ba8369ceca202201977e4050e77474b7dbfbcfba770a5776b6438c645c34dfcc141fae323c559e6014c6952210246ccf4de0c54cc7f3354cdd993c2c50cf965fd82238b89659fbd73a1b4bf05a121024fc59f72272a897fe43803374969f396058152fe4765a8d15216f94624257b1b21022593bc69ecbf3bbcc3c58082267cb49dadaf4ca8dbf1b2297338a9d628c4297653ae", "asm": "0 3045022100a4d6e5a863763eddd86700a0022706c4f1a26b8ce9229a036c799c49d625ca09022016013783d58baf362afef53fcca1cd0d60a294e8a2a24d01c679291a73d252d5[ALL] 30450221008bbb5a92ac904cb348ebc0f830ec3a6e280fdbb21267a835d5a11ba8369ceca202201977e4050e77474b7dbfbcfba770a5776b6438c645c34dfcc141fae323c559e6[ALL] 52210246ccf4de0c54cc7f3354cdd993c2c50cf965fd82238b89659fbd73a1b4bf05a121024fc59f72272a897fe43803374969f396058152fe4765a8d15216f94624257b1b21022593bc69ecbf3bbcc3c58082267cb49dadaf4ca8dbf1b2297338a9d628c4297653ae"}, "vout": 0, "txid": "083bd1f97d18eb59daf2aa117058d896761e0191276ecd0f611fe845ff3cdabc"}], "txid": "5dab525c5a9d4c9a942aedf6d6e061b1585e03c019eabeb5d4de5120f381ceb0", "blocktime": 1537869901, "version": 1, "confirmations": 11522, "time": 1537869901, "locktime": 0, "vsize": 402, "size": 402}