{"hash": "5dad989b8b02013f361a1883f02e083ace8279a1779e1692ba1b49ee3fff680c", "blockhash": "0000000000000000001f0ddff1eddb255c1121bcd4da4f1bc9a0da00cae72433", "vout": [{"scriptPubKey": {"reqSigs": 1, "hex": "a9148165c6fe33bdc7dd4b7ef79a11871a6442bfd88987", "addresses": ["3DVD1uFsa2agpAUtrXZPva6zAUJi3nCRKP"], "asm": "OP_HASH160 8165c6fe33bdc7dd4b7ef79a11871a6442bfd889 OP_EQUAL", "type": "scripthash"}, "value": 0.005, "n": 0}, {"scriptPubKey": {"reqSigs": 1, "hex": "76a91488d6ddcb3af4c7078913bd8406b501b17eb47b7b88ac", "addresses": ["1DUYJGUsQtdhUXbjzh6kPxPHuDFuLiuXKY"], "asm": "OP_DUP OP_HASH160 88d6ddcb3af4c7078913bd8406b501b17eb47b7b OP_EQUALVERIFY OP_CHECKSIG", "type": "pubkeyhash"}, "value": 0.0182342, "n": 1}], "hex": "0100000001c5a86cf67210dba34da91b21c19256c4edd8737c72c7c5aa126611943892482d010000006a4730440220097620073c3e959965c8d5c1160409129571de257084a77ca5c9f3a5d96c097d02205c5be590c6d92bb14c9a49f4373f45ab58575f6765cfd09a7398b4f07e5d360701210363051dfb4904a2fc14627d6e5cf81b34f3eb396a2d62370bbd1b4917fe4fdcc6ffffffff0220a107000000000017a9148165c6fe33bdc7dd4b7ef79a11871a6442bfd88987bcd21b00000000001976a91488d6ddcb3af4c7078913bd8406b501b17eb47b7b88ac00000000", "vin": [{"sequence": 4294967295, "scriptSig": {"hex": "4730440220097620073c3e959965c8d5c1160409129571de257084a77ca5c9f3a5d96c097d02205c5be590c6d92bb14c9a49f4373f45ab58575f6765cfd09a7398b4f07e5d360701210363051dfb4904a2fc14627d6e5cf81b34f3eb396a2d62370bbd1b4917fe4fdcc6", "asm": "30440220097620073c3e959965c8d5c1160409129571de257084a77ca5c9f3a5d96c097d02205c5be590c6d92bb14c9a49f4373f45ab58575f6765cfd09a7398b4f07e5d3607[ALL] 0363051dfb4904a2fc14627d6e5cf81b34f3eb396a2d62370bbd1b4917fe4fdcc6"}, "vout": 1, "txid": "2d48923894116612aac5c7727c73d8edc45692c1211ba94da3db1072f66ca8c5"}], "txid": "5dad989b8b02013f361a1883f02e083ace8279a1779e1692ba1b49ee3fff680c", "blocktime": 1537872018, "version": 1, "confirmations": 11489, "time": 1537872018, "locktime": 0, "vsize": 223, "size": 223}