{"hash": "5daeeaa70488ff0fa249317ae54821d10b4c42b5c0664c54315db3328d6ae7ed", "blockhash": "0000000000000000001f0ddff1eddb255c1121bcd4da4f1bc9a0da00cae72433", "vout": [{"scriptPubKey": {"reqSigs": 1, "hex": "76a9142babe9750cc822b3c31afe5513e1f53a91a20df788ac", "addresses": ["14yuzuC8ucSob4ySysNRFwYdfhXJ2Z6jjr"], "asm": "OP_DUP OP_HASH160 2babe9750cc822b3c31afe5513e1f53a91a20df7 OP_EQUALVERIFY OP_CHECKSIG", "type": "pubkeyhash"}, "value": 0.00100588, "n": 0}, {"scriptPubKey": {"reqSigs": 1, "hex": "a914550170a80790a3351f278c7e74671acb31772d3b87", "addresses": ["39SV5uYWbJF3CZFQZQEqbKPByR6gzQKMDW"], "asm": "OP_HASH160 550170a80790a3351f278c7e74671acb31772d3b OP_EQUAL", "type": "scripthash"}, "value": 0.0028536, "n": 1}], "hex": "0100000001b24e52c84f61cf220a6f8d9734a6d25ac1e3e21fdb1a7be490a62eac6150a0cf010000006b483045022100f692af0326c3c25f9c621c8379800447a3f0ccf0d5d51933d8e7a0d08cb8e9cb02202c96457299d7f974db23777def3c299dc58560b555734e8c25c9e0f9fd08d8360121030657de68841d69a651a872d92698bb09157ba26b558d65e6c7a012722d73ce67ffffffff02ec880100000000001976a9142babe9750cc822b3c31afe5513e1f53a91a20df788acb05a04000000000017a914550170a80790a3351f278c7e74671acb31772d3b8700000000", "vin": [{"sequence": 4294967295, "scriptSig": {"hex": "483045022100f692af0326c3c25f9c621c8379800447a3f0ccf0d5d51933d8e7a0d08cb8e9cb02202c96457299d7f974db23777def3c299dc58560b555734e8c25c9e0f9fd08d8360121030657de68841d69a651a872d92698bb09157ba26b558d65e6c7a012722d73ce67", "asm": "3045022100f692af0326c3c25f9c621c8379800447a3f0ccf0d5d51933d8e7a0d08cb8e9cb02202c96457299d7f974db23777def3c299dc58560b555734e8c25c9e0f9fd08d836[ALL] 030657de68841d69a651a872d92698bb09157ba26b558d65e6c7a012722d73ce67"}, "vout": 1, "txid": "cfa05061ac2ea690e47b1adb1fe2e3c15ad2a634978d6f0a22cf614fc8524eb2"}], "txid": "5daeeaa70488ff0fa249317ae54821d10b4c42b5c0664c54315db3328d6ae7ed", "blocktime": 1537872018, "version": 1, "confirmations": 11489, "time": 1537872018, "locktime": 0, "vsize": 224, "size": 224}