{"hash": "5db114940a19d68e3c17083bb52d831358ec17e115415f5f54d5094cfe6f1646", "blockhash": "0000000000000000000dcc0f55137456b1a82d3642486a52398922ac4d620174", "vout": [{"scriptPubKey": {"reqSigs": 1, "hex": "76a914284b1f894ca72430de8f19952125b6016a9dc7c688ac", "addresses": ["14g42KnXkRFfR8cUtS5tReprjeNvGQKW9v"], "asm": "OP_DUP OP_HASH160 284b1f894ca72430de8f19952125b6016a9dc7c6 OP_EQUALVERIFY OP_CHECKSIG", "type": "pubkeyhash"}, "value": 0.14468641, "n": 0}, {"scriptPubKey": {"type": "nulldata", "hex": "6a146f6d6e69000000000000001f00000004b4038a00", "asm": "OP_RETURN 6f6d6e69000000000000001f00000004b4038a00"}, "value": 0.0, "n": 1}, {"scriptPubKey": {"reqSigs": 1, "hex": "76a914f5b7caa3a581bb1920c3a87d166789429ad7d9b088ac", "addresses": ["1PQEj4UTAVPfDiw2rFEeCAiigkGuSr7SKH"], "asm": "OP_DUP OP_HASH160 f5b7caa3a581bb1920c3a87d166789429ad7d9b0 OP_EQUALVERIFY OP_CHECKSIG", "type": "pubkeyhash"}, "value": 5.46e-06, "n": 2}], "hex": "0100000001a7b6ec629aea9a7003b3a97801cfdc797a6fee8b6a6161ae36ba358ba5af39c9000000006a473044022070e06a650a582c14a04e10a934fceac5e98569593662074a9eeb2a37f7f1b42802201ddf408afda2146bb3bbe68f4071b03af898df3f22074d4a99396e2e216d785d01210392260b2475e9dec1855e89404d00787579055270f3f1619ec29bd64ed6a6dd7dfeffffff0321c6dc00000000001976a914284b1f894ca72430de8f19952125b6016a9dc7c688ac0000000000000000166a146f6d6e69000000000000001f00000004b4038a0022020000000000001976a914f5b7caa3a581bb1920c3a87d166789429ad7d9b088ac0b490800", "vin": [{"sequence": 4294967294, "scriptSig": {"hex": "473044022070e06a650a582c14a04e10a934fceac5e98569593662074a9eeb2a37f7f1b42802201ddf408afda2146bb3bbe68f4071b03af898df3f22074d4a99396e2e216d785d01210392260b2475e9dec1855e89404d00787579055270f3f1619ec29bd64ed6a6dd7d", "asm": "3044022070e06a650a582c14a04e10a934fceac5e98569593662074a9eeb2a37f7f1b42802201ddf408afda2146bb3bbe68f4071b03af898df3f22074d4a99396e2e216d785d[ALL] 0392260b2475e9dec1855e89404d00787579055270f3f1619ec29bd64ed6a6dd7d"}, "vout": 0, "txid": "c939afa58b35ba36ae61616a8bee6f7a79dccf0178a9b303709aea9a62ecb6a7"}], "txid": "5db114940a19d68e3c17083bb52d831358ec17e115415f5f54d5094cfe6f1646", "blocktime": 1537870268, "version": 1, "confirmations": 11516, "time": 1537870268, "locktime": 542987, "vsize": 256, "size": 256}