{"hash": "5db4d57325ff510a325efb50901ca6323f7e249a0c52edb5e7a8fc7c13d6e4ad", "blockhash": "0000000000000000000dcc0f55137456b1a82d3642486a52398922ac4d620174", "vout": [{"scriptPubKey": {"type": "nulldata", "hex": "6a4c50000077700001f1e0f3fd498128f625bc77ac86aeaeacb577c031fc3a016b46dc7dc7d096a94c0b9d4a75be2925b3093b19e1bfd95baa08d806139b5fe17228381d100759d4ba30d2c37bb011d97e02cf", "asm": "OP_RETURN 000077700001f1e0f3fd498128f625bc77ac86aeaeacb577c031fc3a016b46dc7dc7d096a94c0b9d4a75be2925b3093b19e1bfd95baa08d806139b5fe17228381d100759d4ba30d2c37bb011d97e02cf"}, "value": 0.0, "n": 0}, {"scriptPubKey": {"reqSigs": 1, "hex": "76a914c2202ce883311baba4078e512630722ab544847488ac", "addresses": ["1JhSdoZCMQszjNsB8kXsoP6yL3bZxZR4Fw"], "asm": "OP_DUP OP_HASH160 c2202ce883311baba4078e512630722ab5448474 OP_EQUALVERIFY OP_CHECKSIG", "type": "pubkeyhash"}, "value": 0.00648106, "n": 1}], "hex": "0100000001799cd7294a05d1938ae678f83d49a67184a67d94f98b86568ad0aa92a35ae4bd000000006b483045022100ed5e2099649c51b0a1d133ab6f5074eefc956a466449db3b17088022fe4c6d76022044b456391fa607ec467acfb3429f0387cda61142efd66ede3a7677be94007d5c012102f50f1ac4ca36e7ac88a0d57efbb6363a3e88359474157e1594ef32a2f7ef2014ffffffff020000000000000000536a4c50000077700001f1e0f3fd498128f625bc77ac86aeaeacb577c031fc3a016b46dc7dc7d096a94c0b9d4a75be2925b3093b19e1bfd95baa08d806139b5fe17228381d100759d4ba30d2c37bb011d97e02cfaae30900000000001976a914c2202ce883311baba4078e512630722ab544847488ac00000000", "vin": [{"sequence": 4294967295, "scriptSig": {"hex": "483045022100ed5e2099649c51b0a1d133ab6f5074eefc956a466449db3b17088022fe4c6d76022044b456391fa607ec467acfb3429f0387cda61142efd66ede3a7677be94007d5c012102f50f1ac4ca36e7ac88a0d57efbb6363a3e88359474157e1594ef32a2f7ef2014", "asm": "3045022100ed5e2099649c51b0a1d133ab6f5074eefc956a466449db3b17088022fe4c6d76022044b456391fa607ec467acfb3429f0387cda61142efd66ede3a7677be94007d5c[ALL] 02f50f1ac4ca36e7ac88a0d57efbb6363a3e88359474157e1594ef32a2f7ef2014"}, "vout": 0, "txid": "bde45aa392aad08a56868bf9947da68471a6493df878e68a93d1054a29d79c79"}], "txid": "5db4d57325ff510a325efb50901ca6323f7e249a0c52edb5e7a8fc7c13d6e4ad", "blocktime": 1537870268, "version": 1, "confirmations": 11518, "time": 1537870268, "locktime": 0, "vsize": 284, "size": 284}