{"hash": "5db429bcee1f5ae3cc2a106d6693e7079ce9b059179410293e4e5cdc97f8e925", "blockhash": "0000000000000000001e0dab787dd257d1dbfcb92a98c2207d5e1078be1f4165", "vout": [{"scriptPubKey": {"reqSigs": 1, "hex": "76a914094c4fc1e3cf02c4adcc781f62773967c1dc3fcd88ac", "addresses": ["1rAVwscZJfP5X57MPvFQsF2o2mM4UoQTq"], "asm": "OP_DUP OP_HASH160 094c4fc1e3cf02c4adcc781f62773967c1dc3fcd OP_EQUALVERIFY OP_CHECKSIG", "type": "pubkeyhash"}, "value": 0.00710733, "n": 0}, {"scriptPubKey": {"reqSigs": 1, "hex": "a91477705784b6d27dd4756e9790c343a13fc119e44b87", "addresses": ["3CaYv2CSu5sXACyesQAdwUmHEs2pQAGBb8"], "asm": "OP_HASH160 77705784b6d27dd4756e9790c343a13fc119e44b OP_EQUAL", "type": "scripthash"}, "value": 0.07972863, "n": 1}, {"scriptPubKey": {"reqSigs": 1, "hex": "a9141046748818a6c4caa32e00510dc073d7f33a935387", "addresses": ["33B58vgEbQoYCb9hndYsyfn3Sz1v17SQDq"], "asm": "OP_HASH160 1046748818a6c4caa32e00510dc073d7f33a9353 OP_EQUAL", "type": "scripthash"}, "value": 0.257806, "n": 2}, {"scriptPubKey": {"reqSigs": 1, "hex": "76a91443849383122ebb8a28268a89700c9f723663b5b888ac", "addresses": ["17A16QmavnUfCW11DAApiJxp7ARnxN5pGX"], "asm": "OP_DUP OP_HASH160 43849383122ebb8a28268a89700c9f723663b5b8 OP_EQUALVERIFY OP_CHECKSIG", "type": "pubkeyhash"}, "value": 132.66906872, "n": 3}], "hex": "0200000001b6dcc9df05238ee2f29bc3d0ce9a73023c78fa0dcca5fc6afbcab78fe4363f56050000008b483045022100a88182ba135c41f3110422e1cf8dd12aa230c76b7c1df993bf9d60ab15b9444b022049a525543887cb79821dc13c7097d9b905ec2351531cc88bf66819fa0c51971e0141047146f0e0fcb3139947cf0beb870fe251930ca10d4545793d31033e801b5219abf56c11a3cf3406ca590e4c14b0dab749d20862b3adc4709153c280c2a78be10cffffffff044dd80a00000000001976a914094c4fc1e3cf02c4adcc781f62773967c1dc3fcd88acffa779000000000017a91477705784b6d27dd4756e9790c343a13fc119e44b87786189010000000017a9141046748818a6c4caa32e00510dc073d7f33a935387f8eec416030000001976a91443849383122ebb8a28268a89700c9f723663b5b888ac00000000", "vin": [{"sequence": 4294967295, "scriptSig": {"hex": "483045022100a88182ba135c41f3110422e1cf8dd12aa230c76b7c1df993bf9d60ab15b9444b022049a525543887cb79821dc13c7097d9b905ec2351531cc88bf66819fa0c51971e0141047146f0e0fcb3139947cf0beb870fe251930ca10d4545793d31033e801b5219abf56c11a3cf3406ca590e4c14b0dab749d20862b3adc4709153c280c2a78be10c", "asm": "3045022100a88182ba135c41f3110422e1cf8dd12aa230c76b7c1df993bf9d60ab15b9444b022049a525543887cb79821dc13c7097d9b905ec2351531cc88bf66819fa0c51971e[ALL] 047146f0e0fcb3139947cf0beb870fe251930ca10d4545793d31033e801b5219abf56c11a3cf3406ca590e4c14b0dab749d20862b3adc4709153c280c2a78be10c"}, "vout": 5, "txid": "563f36e48fb7cafb6afca5cc0dfa783c02739aced0c39bf2e28e2305dfc9dcb6"}], "txid": "5db429bcee1f5ae3cc2a106d6693e7079ce9b059179410293e4e5cdc97f8e925", "blocktime": 1537872475, "version": 2, "confirmations": 11486, "time": 1537872475, "locktime": 0, "vsize": 322, "size": 322}