{"hash": "5dc160ca3afc0c57010c55eeae06a6a890484f0cc0233836e9db25caa65b7290", "blockhash": "0000000000000000000dcc0f55137456b1a82d3642486a52398922ac4d620174", "vout": [{"scriptPubKey": {"reqSigs": 1, "hex": "76a914845b0a489fe9cee4e36616c1a65b1eabc29f2cf688ac", "addresses": ["1D4qFuQbyGvm9adACqnMSmrLGPh8jZTcYn"], "asm": "OP_DUP OP_HASH160 845b0a489fe9cee4e36616c1a65b1eabc29f2cf6 OP_EQUALVERIFY OP_CHECKSIG", "type": "pubkeyhash"}, "value": 0.02267851, "n": 0}, {"scriptPubKey": {"reqSigs": 1, "hex": "76a914d71bf6d3d6aba3db39963038537eb63cd57d076288ac", "addresses": ["1LcPnEERSsvtNLKcmg1mCqZ4Na3dXeWg3a"], "asm": "OP_DUP OP_HASH160 d71bf6d3d6aba3db39963038537eb63cd57d0762 OP_EQUALVERIFY OP_CHECKSIG", "type": "pubkeyhash"}, "value": 11.04330292, "n": 1}], "hex": "0200000001e315ccd253990f032955b5d51fba4ec217be19e441f03fe38840d674278d5de7010000006a47304402207376a614b8394dfac67fb7b4174503107f24314dca479dcdd6b200e18a52b101022029075ad7d45956118daca46e1a06289ed0bf78c022135b8c6221b951b5403e51012103247a05f9bcc02abe09b95502784ed7273908d180a315afa9f81667e14fb386f2ffffffff02cb9a2200000000001976a914845b0a489fe9cee4e36616c1a65b1eabc29f2cf688ac34bed241000000001976a914d71bf6d3d6aba3db39963038537eb63cd57d076288ac00000000", "vin": [{"sequence": 4294967295, "scriptSig": {"hex": "47304402207376a614b8394dfac67fb7b4174503107f24314dca479dcdd6b200e18a52b101022029075ad7d45956118daca46e1a06289ed0bf78c022135b8c6221b951b5403e51012103247a05f9bcc02abe09b95502784ed7273908d180a315afa9f81667e14fb386f2", "asm": "304402207376a614b8394dfac67fb7b4174503107f24314dca479dcdd6b200e18a52b101022029075ad7d45956118daca46e1a06289ed0bf78c022135b8c6221b951b5403e51[ALL] 03247a05f9bcc02abe09b95502784ed7273908d180a315afa9f81667e14fb386f2"}, "vout": 1, "txid": "e75d8d2774d64088e33ff041e419be17c24eba1fd5b55529030f9953d2cc15e3"}], "txid": "5dc160ca3afc0c57010c55eeae06a6a890484f0cc0233836e9db25caa65b7290", "blocktime": 1537870268, "version": 2, "confirmations": 11518, "time": 1537870268, "locktime": 0, "vsize": 225, "size": 225}