{"hash": "5dc4e505d606b6d6e5a269613f2949a00f2023ca9c471637d19beda3745a1149", "blockhash": "0000000000000000000e13cef7c366c0283d82e591d1acd082e914b08063cdf1", "vout": [{"scriptPubKey": {"reqSigs": 1, "hex": "a91452ae7b3947eaf69961df8f89ed78e5685505830387", "addresses": ["39ECMT4KQSHpW2ULn4gEQ37SiVuVN7RfpV"], "asm": "OP_HASH160 52ae7b3947eaf69961df8f89ed78e56855058303 OP_EQUAL", "type": "scripthash"}, "value": 0.0041288, "n": 0}, {"scriptPubKey": {"reqSigs": 1, "hex": "a914b7bcc097ae2c55e2fae953777acf5dc8dec1a10287", "addresses": ["3JSXhPYMFfERoVFrVpNEGAArhzeg34p3Mv"], "asm": "OP_HASH160 b7bcc097ae2c55e2fae953777acf5dc8dec1a102 OP_EQUAL", "type": "scripthash"}, "value": 0.01757207, "n": 1}, {"scriptPubKey": {"reqSigs": 1, "hex": "76a914ecea867baff65752ba80fcb7591a73a84509817288ac", "addresses": ["1NbhRNsy81z8Y62r5XGRdEevpJAfLXssos"], "asm": "OP_DUP OP_HASH160 ecea867baff65752ba80fcb7591a73a845098172 OP_EQUALVERIFY OP_CHECKSIG", "type": "pubkeyhash"}, "value": 9.835e-05, "n": 2}], "hex": "0100000002ee0a3d5b89bf5e678f14f483119598cbc5219792cde6ebf13a6689b875055d8701000000d90047304402206a6af5b82d817c1092721daa8d316763e3ccb733192a738789bc138e7d66887c022052a12734037dc7613e6ae21f48af1acfc34fbcb2cb7772e1781e4e59136f0ddf0147304402207d857f1aab743702c0bee6947c6c5be3564ee33f5870199e56fe183b8ae04f2f02205dd09fe5b253d8915e4e700c17e90e65b99971ea7b6db6cfeedfca837c99120e0147522102036d764bf410011db57fc447ac7cf8ca634f185a1941ef7b04c6819a47af96742102907a54bed8ad74b3f35638c60114ca240a308cb986f3f2f306178869a8880b6152aeffffffff5dbb728d2d81c2a09570552346c2c4a63f24e3b47051b191641a1823012319d9020000006b483045022100a4bc3cac156108a4a70ca34038fe33c3a1f73751251a946f2d93ed84563516a9022074f48d3477fbb0b85b0048334a2ede40294fdc5287d13a6b45855b555805ca4e012102753039013ff7c02883295d6915a2fdd16bec4761c199c6f34328097db746aa69ffffffff03d04c06000000000017a91452ae7b3947eaf69961df8f89ed78e568550583038717d01a000000000017a914b7bcc097ae2c55e2fae953777acf5dc8dec1a102876b260000000000001976a914ecea867baff65752ba80fcb7591a73a84509817288ac00000000", "vin": [{"sequence": 4294967295, "scriptSig": {"hex": "0047304402206a6af5b82d817c1092721daa8d316763e3ccb733192a738789bc138e7d66887c022052a12734037dc7613e6ae21f48af1acfc34fbcb2cb7772e1781e4e59136f0ddf0147304402207d857f1aab743702c0bee6947c6c5be3564ee33f5870199e56fe183b8ae04f2f02205dd09fe5b253d8915e4e700c17e90e65b99971ea7b6db6cfeedfca837c99120e0147522102036d764bf410011db57fc447ac7cf8ca634f185a1941ef7b04c6819a47af96742102907a54bed8ad74b3f35638c60114ca240a308cb986f3f2f306178869a8880b6152ae", "asm": "0 304402206a6af5b82d817c1092721daa8d316763e3ccb733192a738789bc138e7d66887c022052a12734037dc7613e6ae21f48af1acfc34fbcb2cb7772e1781e4e59136f0ddf[ALL] 304402207d857f1aab743702c0bee6947c6c5be3564ee33f5870199e56fe183b8ae04f2f02205dd09fe5b253d8915e4e700c17e90e65b99971ea7b6db6cfeedfca837c99120e[ALL] 522102036d764bf410011db57fc447ac7cf8ca634f185a1941ef7b04c6819a47af96742102907a54bed8ad74b3f35638c60114ca240a308cb986f3f2f306178869a8880b6152ae"}, "vout": 1, "txid": "875d0575b889663af1ebe6cd929721c5cb98951183f4148f675ebf895b3d0aee"}, {"sequence": 4294967295, "scriptSig": {"hex": "483045022100a4bc3cac156108a4a70ca34038fe33c3a1f73751251a946f2d93ed84563516a9022074f48d3477fbb0b85b0048334a2ede40294fdc5287d13a6b45855b555805ca4e012102753039013ff7c02883295d6915a2fdd16bec4761c199c6f34328097db746aa69", "asm": "3045022100a4bc3cac156108a4a70ca34038fe33c3a1f73751251a946f2d93ed84563516a9022074f48d3477fbb0b85b0048334a2ede40294fdc5287d13a6b45855b555805ca4e[ALL] 02753039013ff7c02883295d6915a2fdd16bec4761c199c6f34328097db746aa69"}, "vout": 2, "txid": "d919230123181a6491b15170b4e3243fa6c4c24623557095a0c2812d8d72bb5d"}], "txid": "5dc4e505d606b6d6e5a269613f2949a00f2023ca9c471637d19beda3745a1149", "blocktime": 1537871767, "version": 1, "confirmations": 11494, "time": 1537871767, "locktime": 0, "vsize": 514, "size": 514}