{"hash": "5dc7b943cbb73650121d9f22cdfdaacb7f1ab796cf69fa4e88c9c83be5d9e359", "blockhash": "000000000000000000022b45ed06c6f4ccd3cf7fb5ba4856ebd2e58215665228", "vout": [{"scriptPubKey": {"reqSigs": 1, "hex": "a9141f32d3297a66d58a232042f33869a65cabc40f3d87", "addresses": ["34Xyks1idVZg5hy2fAmKVwman2FTuYtMZJ"], "asm": "OP_HASH160 1f32d3297a66d58a232042f33869a65cabc40f3d OP_EQUAL", "type": "scripthash"}, "value": 0.00307578, "n": 0}, {"scriptPubKey": {"reqSigs": 1, "hex": "76a9149c92cd9fb70fd06589268bf959cb20f7691afa0388ac", "addresses": ["1FGtGzXznUzVRmynGKcayZEygXDGqm4tNH"], "asm": "OP_DUP OP_HASH160 9c92cd9fb70fd06589268bf959cb20f7691afa03 OP_EQUALVERIFY OP_CHECKSIG", "type": "pubkeyhash"}, "value": 0.13514428, "n": 1}], "hex": "0100000001a41fdb02d0dd131bdd2b178dbda5706f02006102b4e48e121a4ad79b947470d7010000006a47304402204778f0f3883fc5484572dde77bcaea1192bd189b23cf1a94dfd6d8772a14bfe2022041d055a0fb03301114bd0dabadc565eac3790981d1747509a923093fcc2316320121027c5549cfa5ebc3f691bbc9809336e412407f02994e080355d31a891a98cade14ffffffff027ab104000000000017a9141f32d3297a66d58a232042f33869a65cabc40f3d87bc36ce00000000001976a9149c92cd9fb70fd06589268bf959cb20f7691afa0388ac00000000", "vin": [{"sequence": 4294967295, "scriptSig": {"hex": "47304402204778f0f3883fc5484572dde77bcaea1192bd189b23cf1a94dfd6d8772a14bfe2022041d055a0fb03301114bd0dabadc565eac3790981d1747509a923093fcc2316320121027c5549cfa5ebc3f691bbc9809336e412407f02994e080355d31a891a98cade14", "asm": "304402204778f0f3883fc5484572dde77bcaea1192bd189b23cf1a94dfd6d8772a14bfe2022041d055a0fb03301114bd0dabadc565eac3790981d1747509a923093fcc231632[ALL] 027c5549cfa5ebc3f691bbc9809336e412407f02994e080355d31a891a98cade14"}, "vout": 1, "txid": "d77074949bd74a1a128ee4b4026100026f70a5bd8d172bdd1b13ddd002db1fa4"}], "txid": "5dc7b943cbb73650121d9f22cdfdaacb7f1ab796cf69fa4e88c9c83be5d9e359", "blocktime": 1537869901, "version": 1, "confirmations": 11522, "time": 1537869901, "locktime": 0, "vsize": 223, "size": 223}