{"hash": "5dc8616ef51793c6e95502138e1cc52f3d56aef1feac064bd4d01affc9fbf7e3", "blockhash": "0000000000000000000e13cef7c366c0283d82e591d1acd082e914b08063cdf1", "vout": [{"scriptPubKey": {"type": "nulldata", "hex": "6a4c500000779f00011bbada52bea64deb80d417c6af6c953dd567cf27e7e3ef3236678a6250976338b0447b36ee276d347b71a7e1b8ac5baa0e0e061705ecdd3a27bc4bbf23acfcfaac8058b692fe6808c31d", "asm": "OP_RETURN 0000779f00011bbada52bea64deb80d417c6af6c953dd567cf27e7e3ef3236678a6250976338b0447b36ee276d347b71a7e1b8ac5baa0e0e061705ecdd3a27bc4bbf23acfcfaac8058b692fe6808c31d"}, "value": 0.0, "n": 0}, {"scriptPubKey": {"reqSigs": 1, "hex": "76a9140872185d9f74ac8b6f39739ad874d011c196083488ac", "addresses": ["1mf61PJHgnPbzot6UwyeuZwbuvWb4JfHp"], "asm": "OP_DUP OP_HASH160 0872185d9f74ac8b6f39739ad874d011c1960834 OP_EQUALVERIFY OP_CHECKSIG", "type": "pubkeyhash"}, "value": 0.00025169, "n": 1}], "hex": "010000000135eb3c8e4ebab5287f917e3e618c95cc0927384bc2fbc7f0b9249c54c8e08c6f010000006a47304402202dbc12ddcc18f80026efc887bcd9240fdaf4542f910201fcd7c1d59d41f9af2a02203733fbc4c58713a4d2ef7ff0889b46293a7569329a500611eddd417299892634012102ea25f5d0bf010b397f4895dc77f38a507266da81bbc9ca1a240442f82f8a05adffffffff020000000000000000536a4c500000779f00011bbada52bea64deb80d417c6af6c953dd567cf27e7e3ef3236678a6250976338b0447b36ee276d347b71a7e1b8ac5baa0e0e061705ecdd3a27bc4bbf23acfcfaac8058b692fe6808c31d51620000000000001976a9140872185d9f74ac8b6f39739ad874d011c196083488ac00000000", "vin": [{"sequence": 4294967295, "scriptSig": {"hex": "47304402202dbc12ddcc18f80026efc887bcd9240fdaf4542f910201fcd7c1d59d41f9af2a02203733fbc4c58713a4d2ef7ff0889b46293a7569329a500611eddd417299892634012102ea25f5d0bf010b397f4895dc77f38a507266da81bbc9ca1a240442f82f8a05ad", "asm": "304402202dbc12ddcc18f80026efc887bcd9240fdaf4542f910201fcd7c1d59d41f9af2a02203733fbc4c58713a4d2ef7ff0889b46293a7569329a500611eddd417299892634[ALL] 02ea25f5d0bf010b397f4895dc77f38a507266da81bbc9ca1a240442f82f8a05ad"}, "vout": 1, "txid": "6f8ce0c8549c24b9f0c7fbc24b382709cc958c613e7e917f28b5ba4e8e3ceb35"}], "txid": "5dc8616ef51793c6e95502138e1cc52f3d56aef1feac064bd4d01affc9fbf7e3", "blocktime": 1537871767, "version": 1, "confirmations": 11495, "time": 1537871767, "locktime": 0, "vsize": 283, "size": 283}