{"hash": "5dc8ea5f5c5d31a7622e26ad70c25e330d0252bbc35d43d8c781892bf2afa484", "blockhash": "0000000000000000000e13cef7c366c0283d82e591d1acd082e914b08063cdf1", "vout": [{"scriptPubKey": {"reqSigs": 1, "hex": "76a914ea9c831b52c211f357fb7c93f7c6a07475d7664888ac", "addresses": ["1NPWcYSnykbysrSwLrzjZewZHubocrJ9XZ"], "asm": "OP_DUP OP_HASH160 ea9c831b52c211f357fb7c93f7c6a07475d76648 OP_EQUALVERIFY OP_CHECKSIG", "type": "pubkeyhash"}, "value": 0.002862, "n": 0}, {"scriptPubKey": {"reqSigs": 1, "hex": "76a914b81d4cdcc0b015a4d8e4b8a6dc683ba63574f49388ac", "addresses": ["1HnWS7aUjySPxZrhU8WFQPU1LG3qNDqAnv"], "asm": "OP_DUP OP_HASH160 b81d4cdcc0b015a4d8e4b8a6dc683ba63574f493 OP_EQUALVERIFY OP_CHECKSIG", "type": "pubkeyhash"}, "value": 0.06612139, "n": 1}], "hex": "010000000108804fb61fa9c2e4150d1894af6713e09afb02e2cf2b87e661647330eb1a2f36010000006b48304502210093b4558b03e4e3f50161ce13b26f30d7ab054b04e4c255708311447b22f94e98022054556e53c36a7226fabae539fe639bbd98330b546537f9b9188dde62f3abb437012102a7dfd29e53def5c2da9bb06455e19e776e1cdf44b0555d151b5b2c08ae914e0dffffffff02f85d0400000000001976a914ea9c831b52c211f357fb7c93f7c6a07475d7664888acabe46400000000001976a914b81d4cdcc0b015a4d8e4b8a6dc683ba63574f49388ac00000000", "vin": [{"sequence": 4294967295, "scriptSig": {"hex": "48304502210093b4558b03e4e3f50161ce13b26f30d7ab054b04e4c255708311447b22f94e98022054556e53c36a7226fabae539fe639bbd98330b546537f9b9188dde62f3abb437012102a7dfd29e53def5c2da9bb06455e19e776e1cdf44b0555d151b5b2c08ae914e0d", "asm": "304502210093b4558b03e4e3f50161ce13b26f30d7ab054b04e4c255708311447b22f94e98022054556e53c36a7226fabae539fe639bbd98330b546537f9b9188dde62f3abb437[ALL] 02a7dfd29e53def5c2da9bb06455e19e776e1cdf44b0555d151b5b2c08ae914e0d"}, "vout": 1, "txid": "362f1aeb30736461e6872bcfe202fb9ae01367af94180d15e4c2a91fb64f8008"}], "txid": "5dc8ea5f5c5d31a7622e26ad70c25e330d0252bbc35d43d8c781892bf2afa484", "blocktime": 1537871767, "version": 1, "confirmations": 11493, "time": 1537871767, "locktime": 0, "vsize": 226, "size": 226}