{"hash": "fb10914b174390138b778f3aa9494176250d464cdcd35fe4372dda030f5f33bb", "blockhash": "00000000000000000017f5eb5941039fbcee6240d03bc1f2f8e35350df66a1d8", "vout": [{"scriptPubKey": {"reqSigs": 1, "hex": "00140832c36cfa43207a8112df2a34a473b914db208d", "addresses": ["bc1qpqevxm86gvs84qgjmu4rffrnhy2dkgyd5gypf0"], "asm": "0 0832c36cfa43207a8112df2a34a473b914db208d", "type": "witness_v0_keyhash"}, "value": 1.011e-05, "n": 0}, {"scriptPubKey": {"reqSigs": 1, "hex": "a9142367c0f649fe98e8ad986f7408c923dd61bb33e387", "addresses": ["34vDsCHH62stF3bwjTn1DLpEnZ6kikzNCq"], "asm": "OP_HASH160 2367c0f649fe98e8ad986f7408c923dd61bb33e3 OP_EQUAL", "type": "scripthash"}, "value": 0.000112, "n": 1}], "hex": "01000000000101f1b59b28cfabef4ba8092f3e10387bee70912bb97734bbd91b7bffd62c18a8b30000000000ffffffff02f3030000000000001600140832c36cfa43207a8112df2a34a473b914db208dc02b00000000000017a9142367c0f649fe98e8ad986f7408c923dd61bb33e3870247304402204d0dac6db17159074b4fd7e8cd7c19b6c445c4bd3d5e518b2b3cb55bb3936b7c022004cc04b8d15d60c5eaca9489f2ec5664cb0088e7b8189e7f4361c38475dae65c012103fd377b60218d470facd460b64ff4d44cffab9ffda6e8554295fca75726025ffc00000000", "vin": [{"txinwitness": ["304402204d0dac6db17159074b4fd7e8cd7c19b6c445c4bd3d5e518b2b3cb55bb3936b7c022004cc04b8d15d60c5eaca9489f2ec5664cb0088e7b8189e7f4361c38475dae65c01", "03fd377b60218d470facd460b64ff4d44cffab9ffda6e8554295fca75726025ffc"], "sequence": 4294967295, "scriptSig": {"hex": "", "asm": ""}, "vout": 0, "txid": "b3a8182cd6ff7b1bd9bb3477b92b9170ee7b38103e2f09a84befabcf289bb5f1"}], "txid": "5dd0cccd14ef5be1d6d79fd55cd3225410697bcf50879d8a07b42689931e15af", "blocktime": 1537874412, "version": 1, "confirmations": 11467, "time": 1537874412, "locktime": 0, "vsize": 142, "size": 223}