{"hash": "5dd02eeef31fab9dd0560e0fb43b2903dd588e0b54bf91bf3b820b1f9ab8dea5", "blockhash": "00000000000000000017f5eb5941039fbcee6240d03bc1f2f8e35350df66a1d8", "vout": [{"scriptPubKey": {"reqSigs": 1, "hex": "76a9145bc8463be42c32f2205d64736d19158cb5aba3a488ac", "addresses": ["19NJQmDtj9BjqAZ4Tym6q2vQ8zx2oN82WF"], "asm": "OP_DUP OP_HASH160 5bc8463be42c32f2205d64736d19158cb5aba3a4 OP_EQUALVERIFY OP_CHECKSIG", "type": "pubkeyhash"}, "value": 0.07532623, "n": 0}, {"scriptPubKey": {"reqSigs": 1, "hex": "0014e99a1bae12f94afa0e1511667a305b205382740e", "addresses": ["bc1qaxdphtsjl9905rs4z9n85vzmypfcyaqwaj9xk2"], "asm": "0 e99a1bae12f94afa0e1511667a305b205382740e", "type": "witness_v0_keyhash"}, "value": 0.31466705, "n": 1}], "hex": "01000000016ea4240228179c2f719e03503da582741bb3803e0a9d97e0b4c16502f84a27e9010000006b483045022100f025bb20c3d7934e03a2452d533901a99a65721c3b5e0fd6f77b61f3d7e2670e02204cc60b26590db761c3813ecde9cfaa63857d5359d9f6750b86824836cba086dd0121023153e49c2bb03e12cfbd1ae190a6543789aea874bccbd34e681804fca9fa5659ffffffff024ff07200000000001976a9145bc8463be42c32f2205d64736d19158cb5aba3a488acd124e00100000000160014e99a1bae12f94afa0e1511667a305b205382740e00000000", "vin": [{"sequence": 4294967295, "scriptSig": {"hex": "483045022100f025bb20c3d7934e03a2452d533901a99a65721c3b5e0fd6f77b61f3d7e2670e02204cc60b26590db761c3813ecde9cfaa63857d5359d9f6750b86824836cba086dd0121023153e49c2bb03e12cfbd1ae190a6543789aea874bccbd34e681804fca9fa5659", "asm": "3045022100f025bb20c3d7934e03a2452d533901a99a65721c3b5e0fd6f77b61f3d7e2670e02204cc60b26590db761c3813ecde9cfaa63857d5359d9f6750b86824836cba086dd[ALL] 023153e49c2bb03e12cfbd1ae190a6543789aea874bccbd34e681804fca9fa5659"}, "vout": 1, "txid": "e9274af80265c1b4e0979d0a3e80b31b7482a53d50039e712f9c17280224a46e"}], "txid": "5dd02eeef31fab9dd0560e0fb43b2903dd588e0b54bf91bf3b820b1f9ab8dea5", "blocktime": 1537874412, "version": 1, "confirmations": 11467, "time": 1537874412, "locktime": 0, "vsize": 223, "size": 223}