{"hash": "5dd4c50d7dadd16e79c8322ec8194d26b8a92ed3d17fb7c9944c94045e9b8713", "blockhash": "0000000000000000001cda96e906b7601b7a6fb1a3b62bca570a9e5d8f4b3de1", "vout": [{"scriptPubKey": {"reqSigs": 1, "hex": "76a9147fe528d1983df1a62a9f19eefd06cf81e993fa8d88ac", "addresses": ["1CfFLe89xgyFK8rQBCTYndsGULvfUkhYpi"], "asm": "OP_DUP OP_HASH160 7fe528d1983df1a62a9f19eefd06cf81e993fa8d OP_EQUALVERIFY OP_CHECKSIG", "type": "pubkeyhash"}, "value": 0.0064182, "n": 0}, {"scriptPubKey": {"type": "nulldata", "hex": "6a4c50000077c300010b5e46bdc81f8d0f3b962b94e5bf9ae76da98a211aaf6c953dd567cf27e7601ec98dd929e2171bc9b1ec737f212d5baa12f7061341c2a4e4d7241d100759d4ba30d2c37bb011d97e02cf", "asm": "OP_RETURN 000077c300010b5e46bdc81f8d0f3b962b94e5bf9ae76da98a211aaf6c953dd567cf27e7601ec98dd929e2171bc9b1ec737f212d5baa12f7061341c2a4e4d7241d100759d4ba30d2c37bb011d97e02cf"}, "value": 0.0, "n": 1}], "hex": "0100000001b150290d50a3097372d206e4f77de8fe796bc07951727f62d516d3889145df9f000000006b483045022100e1afffd3f8a31271c2191117acc37ecefa689a332fb416b82a45ff6a0a2445130220630c8263d7c8f0d7e95fc089d6d61d197b4a0a891fa6d6638dc736dabfda40c50121020a84e4508bca8ffe834e9ed9ae890108e8cd7f35d67945f8f526b66d62dbd9bbffffffff021ccb0900000000001976a9147fe528d1983df1a62a9f19eefd06cf81e993fa8d88ac0000000000000000536a4c50000077c300010b5e46bdc81f8d0f3b962b94e5bf9ae76da98a211aaf6c953dd567cf27e7601ec98dd929e2171bc9b1ec737f212d5baa12f7061341c2a4e4d7241d100759d4ba30d2c37bb011d97e02cf00000000", "vin": [{"sequence": 4294967295, "scriptSig": {"hex": "483045022100e1afffd3f8a31271c2191117acc37ecefa689a332fb416b82a45ff6a0a2445130220630c8263d7c8f0d7e95fc089d6d61d197b4a0a891fa6d6638dc736dabfda40c50121020a84e4508bca8ffe834e9ed9ae890108e8cd7f35d67945f8f526b66d62dbd9bb", "asm": "3045022100e1afffd3f8a31271c2191117acc37ecefa689a332fb416b82a45ff6a0a2445130220630c8263d7c8f0d7e95fc089d6d61d197b4a0a891fa6d6638dc736dabfda40c5[ALL] 020a84e4508bca8ffe834e9ed9ae890108e8cd7f35d67945f8f526b66d62dbd9bb"}, "vout": 0, "txid": "9fdf459188d316d5627f725179c06b79fee87df7e406d2727309a3500d2950b1"}], "txid": "5dd4c50d7dadd16e79c8322ec8194d26b8a92ed3d17fb7c9944c94045e9b8713", "blocktime": 1537873282, "version": 1, "confirmations": 11484, "time": 1537873282, "locktime": 0, "vsize": 284, "size": 284}