{"hash": "ee2c17d3afd3d21a7007f837e9d915f63a3130e660ca65f1425d0371191924de", "blockhash": "0000000000000000001cda96e906b7601b7a6fb1a3b62bca570a9e5d8f4b3de1", "vout": [{"scriptPubKey": {"reqSigs": 1, "hex": "00142df6d146e36c57dfe98bc939a0cd7d369a897817", "addresses": ["bc1q9hmdz3hrd3tal6vteyu6pntax6dgj7qhtgy089"], "asm": "0 2df6d146e36c57dfe98bc939a0cd7d369a897817", "type": "witness_v0_keyhash"}, "value": 1.053e-05, "n": 0}, {"scriptPubKey": {"reqSigs": 1, "hex": "76a9149549683a65904f4e49bee3e3bb7e1378fad6324f88ac", "addresses": ["1EcMd123US2xBQy7pTAqzhumR9qETeGpUK"], "asm": "OP_DUP OP_HASH160 9549683a65904f4e49bee3e3bb7e1378fad6324f OP_EQUALVERIFY OP_CHECKSIG", "type": "pubkeyhash"}, "value": 0.00072598, "n": 1}], "hex": "010000000001012c8ad98666566892a2e09d1e66d1488d3437fb102ea3a1fe42644d790d3fb74a01000000171600145a5c94e96d3abffe3f1e6bfa5d33d290906411daffffffff021d040000000000001600142df6d146e36c57dfe98bc939a0cd7d369a897817961b0100000000001976a9149549683a65904f4e49bee3e3bb7e1378fad6324f88ac0247304402204405deda31c21705bb899c2fdd856a647fc47ca9cfb27e01f0401729b0641b4d0220294e128d1578b05460c1d1c2fbd42ef08abf1dd958c145e276a07f09b0cd6dd501210301faae7c9095e6f487e3e7d18e11f380ea882cd73ecc2ff6ac9d1b7a2a28376900000000", "vin": [{"txinwitness": ["304402204405deda31c21705bb899c2fdd856a647fc47ca9cfb27e01f0401729b0641b4d0220294e128d1578b05460c1d1c2fbd42ef08abf1dd958c145e276a07f09b0cd6dd501", "0301faae7c9095e6f487e3e7d18e11f380ea882cd73ecc2ff6ac9d1b7a2a283769"], "sequence": 4294967295, "scriptSig": {"hex": "1600145a5c94e96d3abffe3f1e6bfa5d33d290906411da", "asm": "00145a5c94e96d3abffe3f1e6bfa5d33d290906411da"}, "vout": 1, "txid": "4ab73f0d794d6442fea1a32e10fb37348d48d1661e9de0a29268566686d98a2c"}], "txid": "5ddcdecabbf28690ad4130573f8880e89569f89d61ad82035ce8671e4cba07b3", "blocktime": 1537873282, "version": 1, "confirmations": 11484, "time": 1537873282, "locktime": 0, "vsize": 167, "size": 248}