{"hash": "57bb26a1fdfd78c99394ace073be9b7e5ba51473793e5c7ae68e2205799b88f6", "blockhash": "00000000000000000024a2167bbff67b0be802c0b01cdd79e6331c2be6459f87", "vout": [{"scriptPubKey": {"reqSigs": 1, "hex": "a914cc4197c91e03d77beeeeee6c3a82ad4fb778e76e87", "addresses": ["3LK2M9ofysES5DQmH316jawHGugVkSkFbh"], "asm": "OP_HASH160 cc4197c91e03d77beeeeee6c3a82ad4fb778e76e OP_EQUAL", "type": "scripthash"}, "value": 0.00993306, "n": 0}, {"scriptPubKey": {"reqSigs": 1, "hex": "a914092b8c8d2df6f32fad4c16b14b1602569350188e87", "addresses": ["32XWB7Khpf2MuUaykhsZf69ST4Q2JmHMZE"], "asm": "OP_HASH160 092b8c8d2df6f32fad4c16b14b1602569350188e OP_EQUAL", "type": "scripthash"}, "value": 0.0237456, "n": 1}], "hex": "020000000001040f39b95c3df04fe57d57072edd552e7700e5181541b153c0e1c10f5deaa9acb900000000171600141e8a0bcb80897dbcf78b400a509166a891bfe59cfeffffff2a434cb5454e2e0b675fc3a416e228a8a79e6a0576fe3dccb6282deb38ae36acd000000017160014b5e0bbab690317e93743e5d835d70221d8c48734feffffffb5c531fa3eee49fdbcb24e4f30220bf114f8d629ff8ef4edf1cdf7ebc749974c0000000017160014586104a0964953308d2ad8a7cacb2f4873af804ffeffffffdeff19a8f198a5f6b1fc07ca52c5dcfb7524fe287aecca2a250e0fcbcd6d640500000000171600142395bb1f4603064c79a96eb401c0189675f93a73feffffff021a280f000000000017a914cc4197c91e03d77beeeeee6c3a82ad4fb778e76e87a03b24000000000017a914092b8c8d2df6f32fad4c16b14b1602569350188e8702473044022075cfe465f78953224856a72a78a176560b73fd545061e992458a2354ca0a740202206a2322864fcea870331f09da271d29e3b975b6afbc5b3bd924ad468136ad1890012102cfe177ec4cff279e946b698b2fa9480175661951c26d443b6e7bfeb6e94736e9024830450221009dc05da3e344611bbc217bc69b41be8548a3727466a114a5fc1d515763aa9f1c022032ec5118b5baabab85e4e3115a062cf98c4dea598ae086efc873e3f7b37623f5012103f40629bf75f31ca55dc08e6ebff4e7457f993fb188831cadecf1b65a0f561ec902473044022012fe9f4d5b130aafeac7acf960b6f04b7852bf61f6629875719d629fef506117022010d11883212892e1d98237d043d467c764c4309ef32ed3f1378fd2e64e0f57a90121021bf877b38830b2f0676c2a0132fb0d6b7ecc6db5d02a6cdb9fe743f80d55995702483045022100ceceb480380f727b749e27a441e0f0102ebe070a1039a6f5e9af6253db01634c022004c57cfd37b4ffea62acc64346d9da373dd757056ead67f40236d60ed333dc1f012103fc2c7970a5d2359b501a439d6d92bcb382e28355d14b0f48e17b2ea6bcd5942ef5480800", "vin": [{"txinwitness": ["3044022075cfe465f78953224856a72a78a176560b73fd545061e992458a2354ca0a740202206a2322864fcea870331f09da271d29e3b975b6afbc5b3bd924ad468136ad189001", "02cfe177ec4cff279e946b698b2fa9480175661951c26d443b6e7bfeb6e94736e9"], "sequence": 4294967294, "scriptSig": {"hex": "1600141e8a0bcb80897dbcf78b400a509166a891bfe59c", "asm": "00141e8a0bcb80897dbcf78b400a509166a891bfe59c"}, "vout": 0, "txid": "b9aca9ea5d0fc1e1c053b1411518e500772e55dd2e07577de54ff03d5cb9390f"}, {"txinwitness": ["30450221009dc05da3e344611bbc217bc69b41be8548a3727466a114a5fc1d515763aa9f1c022032ec5118b5baabab85e4e3115a062cf98c4dea598ae086efc873e3f7b37623f501", "03f40629bf75f31ca55dc08e6ebff4e7457f993fb188831cadecf1b65a0f561ec9"], "sequence": 4294967294, "scriptSig": {"hex": "160014b5e0bbab690317e93743e5d835d70221d8c48734", "asm": "0014b5e0bbab690317e93743e5d835d70221d8c48734"}, "vout": 208, "txid": "ac36ae38eb2d28b6cc3dfe76056a9ea7a828e216a4c35f670b2e4e45b54c432a"}, {"txinwitness": ["3044022012fe9f4d5b130aafeac7acf960b6f04b7852bf61f6629875719d629fef506117022010d11883212892e1d98237d043d467c764c4309ef32ed3f1378fd2e64e0f57a901", "021bf877b38830b2f0676c2a0132fb0d6b7ecc6db5d02a6cdb9fe743f80d559957"], "sequence": 4294967294, "scriptSig": {"hex": "160014586104a0964953308d2ad8a7cacb2f4873af804f", "asm": "0014586104a0964953308d2ad8a7cacb2f4873af804f"}, "vout": 0, "txid": "4c9749c7ebf7cdf1edf48eff29d6f814f10b22304f4eb2bcfd49ee3efa31c5b5"}, {"txinwitness": ["3045022100ceceb480380f727b749e27a441e0f0102ebe070a1039a6f5e9af6253db01634c022004c57cfd37b4ffea62acc64346d9da373dd757056ead67f40236d60ed333dc1f01", "03fc2c7970a5d2359b501a439d6d92bcb382e28355d14b0f48e17b2ea6bcd5942e"], "sequence": 4294967294, "scriptSig": {"hex": "1600142395bb1f4603064c79a96eb401c0189675f93a73", "asm": "00142395bb1f4603064c79a96eb401c0189675f93a73"}, "vout": 0, "txid": "05646dcdcb0f0e252acaec7a28fe2475fbdcc552ca07fcb1f6a598f1a819ffde"}], "txid": "5deb4859758803a2c2c14e32bcf4d10ac96ae38b54dd63ad2805c518ab90dae6", "blocktime": 1537870564, "version": 2, "confirmations": 11515, "time": 1537870564, "locktime": 542965, "vsize": 438, "size": 762}