{"hash": "cf98353429a4aecd311b1936a5cbc1073b207aa15189cc39765001ce6818249e", "blockhash": "0000000000000000001cda96e906b7601b7a6fb1a3b62bca570a9e5d8f4b3de1", "vout": [{"scriptPubKey": {"reqSigs": 1, "hex": "0014e1a919dfba806842a7538625d9ec186158773d3f", "addresses": ["bc1qux53nha6sp5y9f6nscjanmqcv9v8w0fluz4z7t"], "asm": "0 e1a919dfba806842a7538625d9ec186158773d3f", "type": "witness_v0_keyhash"}, "value": 0.00526269, "n": 0}, {"scriptPubKey": {"reqSigs": 1, "hex": "a914b6f6ba639c1ba6ad65e0d5bb1cde44b0bbd5887287", "addresses": ["3JNSURaawTs9Kb8uD4uhZHpqutUoE2HmRU"], "asm": "OP_HASH160 b6f6ba639c1ba6ad65e0d5bb1cde44b0bbd58872 OP_EQUAL", "type": "scripthash"}, "value": 0.12455567, "n": 1}], "hex": "01000000000101074b220c1a759c58c3b78d24184bbcb7ebaccbe46aab5d6361b5368e47c026060000000000ffffffff02bd07080000000000160014e1a919dfba806842a7538625d9ec186158773d3f8f0ebe000000000017a914b6f6ba639c1ba6ad65e0d5bb1cde44b0bbd58872870247304402202c42946be34338fcb68c6ee19b89ff83cac9b87e09461279f42aff83853f5f0602202365808a6180e89aa0ab09278252f544cde9ce1a01c2884e83d0edbe94cbd8a00121020ca2a04400745c7cf4da7fe0d64b0784a5c15e6ff948251adce33a6f99ebef2500000000", "vin": [{"txinwitness": ["304402202c42946be34338fcb68c6ee19b89ff83cac9b87e09461279f42aff83853f5f0602202365808a6180e89aa0ab09278252f544cde9ce1a01c2884e83d0edbe94cbd8a001", "020ca2a04400745c7cf4da7fe0d64b0784a5c15e6ff948251adce33a6f99ebef25"], "sequence": 4294967295, "scriptSig": {"hex": "", "asm": ""}, "vout": 0, "txid": "0626c0478e36b561635dab6ae4cbacebb7bc4b18248db7c3589c751a0c224b07"}], "txid": "5dee8c1b028306af1fc3b7907ae9b725114734577389e7a0d61758b401e9d43e", "blocktime": 1537873282, "version": 1, "confirmations": 11484, "time": 1537873282, "locktime": 0, "vsize": 142, "size": 223}