{"hash": "5df03534c4e3a06924c6c08cd0eb4f1f3026430c71b62b73bb0c08b8fc22345e", "blockhash": "0000000000000000000e13cef7c366c0283d82e591d1acd082e914b08063cdf1", "vout": [{"scriptPubKey": {"reqSigs": 1, "hex": "76a914d66c778ee1b34fa1308d7e07e6203f9a124251d888ac", "addresses": ["1LYmYUR1uTcS7GzC5Yt6cWFzLGNYvkp9wg"], "asm": "OP_DUP OP_HASH160 d66c778ee1b34fa1308d7e07e6203f9a124251d8 OP_EQUALVERIFY OP_CHECKSIG", "type": "pubkeyhash"}, "value": 0.00650145, "n": 0}, {"scriptPubKey": {"type": "nulldata", "hex": "6a4c500000779300017408c2422a3447f127938381e3ef3236678a625097bcbefa6b8351586b4e5e8873b762a885c851f2c443d8dabebe5baa0cd1061501fa992e3d731d100759d4ba30d2c37bb011d97e02cf", "asm": "OP_RETURN 0000779300017408c2422a3447f127938381e3ef3236678a625097bcbefa6b8351586b4e5e8873b762a885c851f2c443d8dabebe5baa0cd1061501fa992e3d731d100759d4ba30d2c37bb011d97e02cf"}, "value": 0.0, "n": 1}], "hex": "010000000153b97be147777f7ce5f8af2fc5302f94cd9994e94e0b1ac617feabdbc437b44c000000006a473044022026768038b60406f384b48a7c472fccfa331f4719605c7e22bb81e1a95d44995602203270073009089d88bc157902ee24f955e6b7c92265df47ae92410c9d52b707c901210371346db1278a453c1c98e79c26f53305c27d7a37400a91e4c132939b06e5a18dffffffff02a1eb0900000000001976a914d66c778ee1b34fa1308d7e07e6203f9a124251d888ac0000000000000000536a4c500000779300017408c2422a3447f127938381e3ef3236678a625097bcbefa6b8351586b4e5e8873b762a885c851f2c443d8dabebe5baa0cd1061501fa992e3d731d100759d4ba30d2c37bb011d97e02cf00000000", "vin": [{"sequence": 4294967295, "scriptSig": {"hex": "473044022026768038b60406f384b48a7c472fccfa331f4719605c7e22bb81e1a95d44995602203270073009089d88bc157902ee24f955e6b7c92265df47ae92410c9d52b707c901210371346db1278a453c1c98e79c26f53305c27d7a37400a91e4c132939b06e5a18d", "asm": "3044022026768038b60406f384b48a7c472fccfa331f4719605c7e22bb81e1a95d44995602203270073009089d88bc157902ee24f955e6b7c92265df47ae92410c9d52b707c9[ALL] 0371346db1278a453c1c98e79c26f53305c27d7a37400a91e4c132939b06e5a18d"}, "vout": 0, "txid": "4cb437c4dbabfe17c61a0b4ee99499cd942f30c52faff8e57c7f7747e17bb953"}], "txid": "5df03534c4e3a06924c6c08cd0eb4f1f3026430c71b62b73bb0c08b8fc22345e", "blocktime": 1537871767, "version": 1, "confirmations": 11495, "time": 1537871767, "locktime": 0, "vsize": 283, "size": 283}