{"hash": "9a324a00f812d28783aa45ee82eac907bc5e4bd596356176e44aee1e66827492", "blockhash": "0000000000000000000e13cef7c366c0283d82e591d1acd082e914b08063cdf1", "vout": [{"scriptPubKey": {"reqSigs": 1, "hex": "76a914acc95e2f01b18ca2ecef24341b7f4c3d204ffacf88ac", "addresses": ["1GkcTHN7h27CEYCNWTiXiuDy1jvaCumaqe"], "asm": "OP_DUP OP_HASH160 acc95e2f01b18ca2ecef24341b7f4c3d204ffacf OP_EQUALVERIFY OP_CHECKSIG", "type": "pubkeyhash"}, "value": 0.00587828, "n": 0}, {"scriptPubKey": {"reqSigs": 1, "hex": "a914f4ebf21cf3e1c659bc4bb84bd50fda5cb8b5ba8187", "addresses": ["3Q23T9amfCBEPhT4CKw9ZwWGXUPuij7SEQ"], "asm": "OP_HASH160 f4ebf21cf3e1c659bc4bb84bd50fda5cb8b5ba81 OP_EQUAL", "type": "scripthash"}, "value": 0.01016525, "n": 1}], "hex": "020000000001032c54850ab8c21c2749cf239ecf3c385be63b67be0ea27e0c6933b9e9339e4d6d0000000017160014488991bd2160aa1fb4cc436023e13c37879fbe29feffffff50307cbea0aa6435ba01675c8b6ddccefa6aa14b5873f3574a7743c41ff5db8b00000000171600141c64c6955289d615f8d06359c44d7ef273f7ee98feffffffed24bf93b3a1fa87bd0a915faf7bd6d898c4cd9634f8c96ab41bf327cc33f0f6030100006a4730440220684ece6294a38c70ae037f6df15f04ddd13c72bfd3c1339ada0025749edb594202207c4e04fdb8662d9a7b9abd90ba3ed1b53b957e32331e312a422cc502a49c144f01210241e9ff7cc769910ae18634622b02335256123903e9c1d0f7316986926decc99dfeffffff0234f80800000000001976a914acc95e2f01b18ca2ecef24341b7f4c3d204ffacf88accd820f000000000017a914f4ebf21cf3e1c659bc4bb84bd50fda5cb8b5ba818702483045022100e493ddb2a5c3f38f7e31a95f8ad9a50dbfee3e3010d665f2b6314103b8d6c2b5022036686802b74629d929a370dd3b52493bab1117bb15607f2061865cf720d251dd0121032b51840f943a7eff1190834c4af86e5dcd0aa2c86db447cb8e92b84436ad6b2402483045022100eaddc0849a0cb62f5693b7ebf619c6cfab1ab4a1e62f1e3501ffb85538b2e08302203eeb84631fe940a2ace8cc79f358ede9f710da16bd2d4340871fde94e940698f0121031af43857a5b8c3e1fffbe84f9f847881d5bf6f93551a53ccb7994e90c00e45c1000f490800", "vin": [{"txinwitness": ["3045022100e493ddb2a5c3f38f7e31a95f8ad9a50dbfee3e3010d665f2b6314103b8d6c2b5022036686802b74629d929a370dd3b52493bab1117bb15607f2061865cf720d251dd01", "032b51840f943a7eff1190834c4af86e5dcd0aa2c86db447cb8e92b84436ad6b24"], "sequence": 4294967294, "scriptSig": {"hex": "160014488991bd2160aa1fb4cc436023e13c37879fbe29", "asm": "0014488991bd2160aa1fb4cc436023e13c37879fbe29"}, "vout": 0, "txid": "6d4d9e33e9b933690c7ea20ebe673be65b383ccf9e23cf49271cc2b80a85542c"}, {"txinwitness": ["3045022100eaddc0849a0cb62f5693b7ebf619c6cfab1ab4a1e62f1e3501ffb85538b2e08302203eeb84631fe940a2ace8cc79f358ede9f710da16bd2d4340871fde94e940698f01", "031af43857a5b8c3e1fffbe84f9f847881d5bf6f93551a53ccb7994e90c00e45c1"], "sequence": 4294967294, "scriptSig": {"hex": "1600141c64c6955289d615f8d06359c44d7ef273f7ee98", "asm": "00141c64c6955289d615f8d06359c44d7ef273f7ee98"}, "vout": 0, "txid": "8bdbf51fc443774a57f373584ba16afacedc6d8b5c6701ba3564aaa0be7c3050"}, {"sequence": 4294967294, "scriptSig": {"hex": "4730440220684ece6294a38c70ae037f6df15f04ddd13c72bfd3c1339ada0025749edb594202207c4e04fdb8662d9a7b9abd90ba3ed1b53b957e32331e312a422cc502a49c144f01210241e9ff7cc769910ae18634622b02335256123903e9c1d0f7316986926decc99d", "asm": "30440220684ece6294a38c70ae037f6df15f04ddd13c72bfd3c1339ada0025749edb594202207c4e04fdb8662d9a7b9abd90ba3ed1b53b957e32331e312a422cc502a49c144f[ALL] 0241e9ff7cc769910ae18634622b02335256123903e9c1d0f7316986926decc99d"}, "vout": 259, "txid": "f6f033cc27f31bb46ac9f83496cdc498d8d67baf5f910abd87faa1b393bf24ed"}], "txid": "5df1f681ae707d9531dd2fa5853adb6a3921d43e6ee5f2ad39e316df4b18c83c", "blocktime": 1537871767, "version": 2, "confirmations": 11495, "time": 1537871767, "locktime": 542991, "vsize": 406, "size": 570}