{"hash": "5df4b0b8561617fed7add0adeddd91ed909393d38dfa7ae21904705eff6df265", "blockhash": "00000000000000000024a2167bbff67b0be802c0b01cdd79e6331c2be6459f87", "vout": [{"scriptPubKey": {"type": "nulldata", "hex": "6a4c500000777d0001de4215b43db0a279af8825cebcbefa6b8351586b4e86aeaeacb577c031fc9c1e8c6132e0f3bf2d685b9279d73f765baa0a7f0614a37d269892c01d100759d4ba30d2c37bb011d97e02cf", "asm": "OP_RETURN 0000777d0001de4215b43db0a279af8825cebcbefa6b8351586b4e86aeaeacb577c031fc9c1e8c6132e0f3bf2d685b9279d73f765baa0a7f0614a37d269892c01d100759d4ba30d2c37bb011d97e02cf"}, "value": 0.0, "n": 0}, {"scriptPubKey": {"reqSigs": 1, "hex": "76a914f29c02cc8aa316a76b4c4ac916ab1ab0ec72904688ac", "addresses": ["1P7oRFex1DCMMEhupz6a34zA8q6qRAT9ns"], "asm": "OP_DUP OP_HASH160 f29c02cc8aa316a76b4c4ac916ab1ab0ec729046 OP_EQUALVERIFY OP_CHECKSIG", "type": "pubkeyhash"}, "value": 0.0064652, "n": 1}], "hex": "010000000120772894c48ce38a6abd1c30bb363ab0c3a497c446982ad3c820c15fc0419798000000006b483045022100b0f36df141d59bc7247d8bbf838d7901f5aa97dbd25c0eafed173af5939fe0df02207d7f86ddcdb67f59c627e60210d92116b796f17dcce57aeb81157a9757c6871d01210351fe5d16e21dd30039e10fb0ed62ad1a47abecdff216e552742fc4ef61c46766ffffffff020000000000000000536a4c500000777d0001de4215b43db0a279af8825cebcbefa6b8351586b4e86aeaeacb577c031fc9c1e8c6132e0f3bf2d685b9279d73f765baa0a7f0614a37d269892c01d100759d4ba30d2c37bb011d97e02cf78dd0900000000001976a914f29c02cc8aa316a76b4c4ac916ab1ab0ec72904688ac00000000", "vin": [{"sequence": 4294967295, "scriptSig": {"hex": "483045022100b0f36df141d59bc7247d8bbf838d7901f5aa97dbd25c0eafed173af5939fe0df02207d7f86ddcdb67f59c627e60210d92116b796f17dcce57aeb81157a9757c6871d01210351fe5d16e21dd30039e10fb0ed62ad1a47abecdff216e552742fc4ef61c46766", "asm": "3045022100b0f36df141d59bc7247d8bbf838d7901f5aa97dbd25c0eafed173af5939fe0df02207d7f86ddcdb67f59c627e60210d92116b796f17dcce57aeb81157a9757c6871d[ALL] 0351fe5d16e21dd30039e10fb0ed62ad1a47abecdff216e552742fc4ef61c46766"}, "vout": 0, "txid": "989741c05fc120c8d32a9846c497a4c3b03a36bb301cbd6a8ae38cc494287720"}], "txid": "5df4b0b8561617fed7add0adeddd91ed909393d38dfa7ae21904705eff6df265", "blocktime": 1537870564, "version": 1, "confirmations": 11515, "time": 1537870564, "locktime": 0, "vsize": 284, "size": 284}