{"hash": "5df7a85bbc193d218de71eb3223c3df38e755f56db403226bb73260478b2ff5d", "blockhash": "00000000000000000017f5eb5941039fbcee6240d03bc1f2f8e35350df66a1d8", "vout": [{"scriptPubKey": {"reqSigs": 1, "hex": "76a91410e8122c382b36fb6a7814220c02007c0130d78988ac", "addresses": ["12YPpeMxr5Dp6i5g36UEtfKdG72zdz8pFg"], "asm": "OP_DUP OP_HASH160 10e8122c382b36fb6a7814220c02007c0130d789 OP_EQUALVERIFY OP_CHECKSIG", "type": "pubkeyhash"}, "value": 1.455e-05, "n": 0}, {"scriptPubKey": {"reqSigs": 1, "hex": "76a9147b21241ca8ef06993c39b7a7dc6d0bf1f786236188ac", "addresses": ["1CE3pH3DNUjNjqYGN3o5RrmGUmHoCfZ5rX"], "asm": "OP_DUP OP_HASH160 7b21241ca8ef06993c39b7a7dc6d0bf1f7862361 OP_EQUALVERIFY OP_CHECKSIG", "type": "pubkeyhash"}, "value": 0.00343863, "n": 1}], "hex": "0100000001993ed20064aafa8ce72917ea381cd897dc358890e23f4f676fd1735dce69540e000000006a47304402207b64eb092381226667bfc437d3e2c5609f4ccfb3a146ac40fd9c6fa59b6551c8022046695976b77e2a616c0e0f1415c4d9a573ea0d5e169deab2b233da97a239267c012102da705de042ebc8d487fa9a8f80f43ed6effbe7fa582431e3fadfbe036725cb61ffffffff02af050000000000001976a91410e8122c382b36fb6a7814220c02007c0130d78988ac373f0500000000001976a9147b21241ca8ef06993c39b7a7dc6d0bf1f786236188ac00000000", "vin": [{"sequence": 4294967295, "scriptSig": {"hex": "47304402207b64eb092381226667bfc437d3e2c5609f4ccfb3a146ac40fd9c6fa59b6551c8022046695976b77e2a616c0e0f1415c4d9a573ea0d5e169deab2b233da97a239267c012102da705de042ebc8d487fa9a8f80f43ed6effbe7fa582431e3fadfbe036725cb61", "asm": "304402207b64eb092381226667bfc437d3e2c5609f4ccfb3a146ac40fd9c6fa59b6551c8022046695976b77e2a616c0e0f1415c4d9a573ea0d5e169deab2b233da97a239267c[ALL] 02da705de042ebc8d487fa9a8f80f43ed6effbe7fa582431e3fadfbe036725cb61"}, "vout": 0, "txid": "0e5469ce5d73d16f674f3fe2908835dc97d81c38ea1729e78cfaaa6400d23e99"}], "txid": "5df7a85bbc193d218de71eb3223c3df38e755f56db403226bb73260478b2ff5d", "blocktime": 1537874412, "version": 1, "confirmations": 11467, "time": 1537874412, "locktime": 0, "vsize": 225, "size": 225}