{"hash": "5572448d06da91938a9432750be8c83e1f82876df79e038399ce9158729204c3", "blockhash": "0000000000000000000baef3f32e3676a92c3b2e5da21b426e4f302fc371ce76", "vout": [{"scriptPubKey": {"reqSigs": 1, "hex": "a914b73441d1f8723531cbcaeed0e78bf7f6027da9da87", "addresses": ["3JPiBY4fFDQrZNcGDSXC5r8EpSYMZ735EF"], "asm": "OP_HASH160 b73441d1f8723531cbcaeed0e78bf7f6027da9da OP_EQUAL", "type": "scripthash"}, "value": 0.031789, "n": 0}, {"scriptPubKey": {"reqSigs": 1, "hex": "a9144d293bcdc8b44f39bc0c92eb41ca5b5ef1480d4687", "addresses": ["38j1MGxv8M2EzE5QVWzavCTicpwByECqCv"], "asm": "OP_HASH160 4d293bcdc8b44f39bc0c92eb41ca5b5ef1480d46 OP_EQUAL", "type": "scripthash"}, "value": 8.6466356, "n": 1}], "hex": "020000000001012eb5efd55f71553c6a94518459dcf2b7ed2dfa907bc105f161d37e3c6355db3701000000171600143ff816c3a02e013cd7ea4b2c204674768da8a76dffffffff02948130000000000017a914b73441d1f8723531cbcaeed0e78bf7f6027da9da8708b889330000000017a9144d293bcdc8b44f39bc0c92eb41ca5b5ef1480d4687024730440220081b3d3c4ebcd27ef37204ff0f2a4ed20ab0e1281f6d654556d5a4c246d8a05602204fd89ac2af701dcbf36bd2888fe496399d7faf8b3366cc7da4225ee17df9c13a01210306f6e5c3dfeb94059c2c436c189768eff8f584c499fad5bb8e2f7ab65449bdeb00000000", "vin": [{"txinwitness": ["30440220081b3d3c4ebcd27ef37204ff0f2a4ed20ab0e1281f6d654556d5a4c246d8a05602204fd89ac2af701dcbf36bd2888fe496399d7faf8b3366cc7da4225ee17df9c13a01", "0306f6e5c3dfeb94059c2c436c189768eff8f584c499fad5bb8e2f7ab65449bdeb"], "sequence": 4294967295, "scriptSig": {"hex": "1600143ff816c3a02e013cd7ea4b2c204674768da8a76d", "asm": "00143ff816c3a02e013cd7ea4b2c204674768da8a76d"}, "vout": 1, "txid": "37db55633c7ed361f105c17b90fa2dedb7f2dc598451946a3c55715fd5efb52e"}], "txid": "5df9dbffc1ee3b67f426e9988854c1d8da14746619a5b5ab17f323f7c7d082aa", "blocktime": 1537876114, "version": 2, "confirmations": 11459, "time": 1537876114, "locktime": 0, "vsize": 166, "size": 247}