{"hash": "5dfe1dc4d02a05cd108970026afabcb516eba7243851fc04023a4b9062d25415", "blockhash": "0000000000000000000e13cef7c366c0283d82e591d1acd082e914b08063cdf1", "vout": [{"scriptPubKey": {"type": "nulldata", "hex": "6a4c50000077a000016cc4a30cf5adfb3104be776caf6c953dd567cf27e7e3ef3236678a625097ed41c24f633076f6d60fb134714faf375baa0e4706150276c1383d2f1d100759d4ba30d2c37bb011d97e02cf", "asm": "OP_RETURN 000077a000016cc4a30cf5adfb3104be776caf6c953dd567cf27e7e3ef3236678a625097ed41c24f633076f6d60fb134714faf375baa0e4706150276c1383d2f1d100759d4ba30d2c37bb011d97e02cf"}, "value": 0.0, "n": 0}, {"scriptPubKey": {"reqSigs": 1, "hex": "76a91420c1ed640431569bf41ac5749a52afca7d48ad4888ac", "addresses": ["13zCwSkzJHdKggvNMZenE85N7aHUv18D5r"], "asm": "OP_DUP OP_HASH160 20c1ed640431569bf41ac5749a52afca7d48ad48 OP_EQUALVERIFY OP_CHECKSIG", "type": "pubkeyhash"}, "value": 0.00642344, "n": 1}], "hex": "01000000015df931ff139308fedb410fffae755cc254838e8a0d1c78cceb84632ee91e8658010000006a47304402200e8df845e80696255a030f0b332d295b2b2cd6f01dc56134e63e34c8f168feda02205e2c314ef1d5f2c5d5cec2fe4d43b3007cff547bb4869fc792b5f3c4f52f18f0012102868bfa7282385614d23e36dd67bfc9d7872ec33b9aa4cc1834ff09e67838c829ffffffff020000000000000000536a4c50000077a000016cc4a30cf5adfb3104be776caf6c953dd567cf27e7e3ef3236678a625097ed41c24f633076f6d60fb134714faf375baa0e4706150276c1383d2f1d100759d4ba30d2c37bb011d97e02cf28cd0900000000001976a91420c1ed640431569bf41ac5749a52afca7d48ad4888ac00000000", "vin": [{"sequence": 4294967295, "scriptSig": {"hex": "47304402200e8df845e80696255a030f0b332d295b2b2cd6f01dc56134e63e34c8f168feda02205e2c314ef1d5f2c5d5cec2fe4d43b3007cff547bb4869fc792b5f3c4f52f18f0012102868bfa7282385614d23e36dd67bfc9d7872ec33b9aa4cc1834ff09e67838c829", "asm": "304402200e8df845e80696255a030f0b332d295b2b2cd6f01dc56134e63e34c8f168feda02205e2c314ef1d5f2c5d5cec2fe4d43b3007cff547bb4869fc792b5f3c4f52f18f0[ALL] 02868bfa7282385614d23e36dd67bfc9d7872ec33b9aa4cc1834ff09e67838c829"}, "vout": 1, "txid": "58861ee92e6384ebcc781c0d8a8e8354c25c75aeff0f41dbfe089313ff31f95d"}], "txid": "5dfe1dc4d02a05cd108970026afabcb516eba7243851fc04023a4b9062d25415", "blocktime": 1537871767, "version": 1, "confirmations": 11495, "time": 1537871767, "locktime": 0, "vsize": 283, "size": 283}