{"hash": "23a509fbf5a955b5a176c1cf31fba31d5a4b17bd3e5d60d7b1fa47eca475e925", "blockhash": "0000000000000000000e13cef7c366c0283d82e591d1acd082e914b08063cdf1", "vout": [{"scriptPubKey": {"reqSigs": 1, "hex": "a914bd260abc34d7fe129367ed2c3af2583a9187bd1387", "addresses": ["3Jw9Czw2oMRubLE8e3ti3K5i9GXnd1GK8X"], "asm": "OP_HASH160 bd260abc34d7fe129367ed2c3af2583a9187bd13 OP_EQUAL", "type": "scripthash"}, "value": 0.27277476, "n": 0}, {"scriptPubKey": {"reqSigs": 1, "hex": "76a9149df50866ecbf0ee352502972be91bb55191f34c988ac", "addresses": ["1FQCdJBULL2oZs1TDXQUQi9BN348tv7MZA"], "asm": "OP_DUP OP_HASH160 9df50866ecbf0ee352502972be91bb55191f34c9 OP_EQUALVERIFY OP_CHECKSIG", "type": "pubkeyhash"}, "value": 0.12992, "n": 1}], "hex": "010000000001011dd5bf73dd003753b3082d98cac309098d62eadde03e772e770625aed5f7f4ab0400000023220020ba4d8dd84f11b6a009099e2b034fbec3b425a802d79ff1bacbbd5499f096705effffffff02a438a0010000000017a914bd260abc34d7fe129367ed2c3af2583a9187bd1387003ec600000000001976a9149df50866ecbf0ee352502972be91bb55191f34c988ac0400483045022100905f520a47ecda03f3adaf54e2f63bacd973694eb36f13fb3e7d2a3e043b27c30220758fd19d70afeb15be54f6f9d3e33bc586ef5d0686f8e6abf4bb5fd8bd6529ad014830450221009048349e76176e1e2b58245da0a4dff761bee0d002d9cbfdd8466e2292c812df022017ada791e50f77e631e4cb129d5016de671864eda385a84f367cfe88a62e5150016952210376ec465e2756f8390d9e621e59e858e1b5cb994e9bb881306ea3da092dee9b072103019f521f6e4f9dae7507339c4d0ab8e08b5882fe54245ec2ad4aa162b87f09ac21024fc2aa7c9bb3bf030997a37b46050a4a51a8bbefb9f2f6d62904f26e4ddfb9f953ae00000000", "vin": [{"txinwitness": ["", "3045022100905f520a47ecda03f3adaf54e2f63bacd973694eb36f13fb3e7d2a3e043b27c30220758fd19d70afeb15be54f6f9d3e33bc586ef5d0686f8e6abf4bb5fd8bd6529ad01", "30450221009048349e76176e1e2b58245da0a4dff761bee0d002d9cbfdd8466e2292c812df022017ada791e50f77e631e4cb129d5016de671864eda385a84f367cfe88a62e515001", "52210376ec465e2756f8390d9e621e59e858e1b5cb994e9bb881306ea3da092dee9b072103019f521f6e4f9dae7507339c4d0ab8e08b5882fe54245ec2ad4aa162b87f09ac21024fc2aa7c9bb3bf030997a37b46050a4a51a8bbefb9f2f6d62904f26e4ddfb9f953ae"], "sequence": 4294967295, "scriptSig": {"hex": "220020ba4d8dd84f11b6a009099e2b034fbec3b425a802d79ff1bacbbd5499f096705e", "asm": "0020ba4d8dd84f11b6a009099e2b034fbec3b425a802d79ff1bacbbd5499f096705e"}, "vout": 4, "txid": "abf4f7d5ae2506772e773ee0ddea628d0909c3ca982d08b3533700dd73bfd51d"}], "txid": "5e000e726787a8e2143bdd06a30f95721a2fd8916d41b04dfc75875de2774f9b", "blocktime": 1537871767, "version": 1, "confirmations": 11495, "time": 1537871767, "locktime": 0, "vsize": 216, "size": 408}