{"hash": "8dcc5ab80596703cd7ce6b2ac8c07a972f29cafceb5fa6127a47f5d6158a0333", "blockhash": "00000000000000000018f53835495a110e01622372bf6ae95dc86f2b0ab887b0", "vout": [{"scriptPubKey": {"reqSigs": 1, "hex": "a914498524995ac6c58710bedf09a2234f13be6932d187", "addresses": ["38PkkUxGUWwKoYxEYEMXK92bToQrXeuc4w"], "asm": "OP_HASH160 498524995ac6c58710bedf09a2234f13be6932d1 OP_EQUAL", "type": "scripthash"}, "value": 0.27365405, "n": 0}, {"scriptPubKey": {"reqSigs": 1, "hex": "76a91492aa620c0b496b7de14a236513481c6973f0f34388ac", "addresses": ["1ENVmRfve19WQBwYZc2H5VT8SsSMPEJoki"], "asm": "OP_DUP OP_HASH160 92aa620c0b496b7de14a236513481c6973f0f343 OP_EQUALVERIFY OP_CHECKSIG", "type": "pubkeyhash"}, "value": 0.0863991, "n": 1}], "hex": "02000000000101b194655fef4e156bf5ebb2925395b0b8b8b16627f38209e501110e959fa9eaa3010000001716001430eafea79cc8374a4143d0c824ab217e91a5b336fdffffff021d90a1010000000017a914498524995ac6c58710bedf09a2234f13be6932d187a6d58300000000001976a91492aa620c0b496b7de14a236513481c6973f0f34388ac024730440220458f0bcf5f27cbf6bc7cff9add1d92430fb4bea83a690ece638b86d36434c8ce0220072e50811b89183ee92a9b5c9f889035015a0ada690e8b4b892d083fdd95225e01210296c846abd745ad4cf6b4d30ff12b753d00ed328213892c834616d0485ddb0f290e490800", "vin": [{"txinwitness": ["30440220458f0bcf5f27cbf6bc7cff9add1d92430fb4bea83a690ece638b86d36434c8ce0220072e50811b89183ee92a9b5c9f889035015a0ada690e8b4b892d083fdd95225e01", "0296c846abd745ad4cf6b4d30ff12b753d00ed328213892c834616d0485ddb0f29"], "sequence": 4294967293, "scriptSig": {"hex": "16001430eafea79cc8374a4143d0c824ab217e91a5b336", "asm": "001430eafea79cc8374a4143d0c824ab217e91a5b336"}, "vout": 1, "txid": "a3eaa99f950e1101e50982f32766b1b8b8b0955392b2ebf56b154eef5f6594b1"}], "txid": "5e024bac7ac778c8b5d19de1ebafb7b532d33fbcb1ad35b41ee5a67685ac4f8f", "blocktime": 1537870928, "version": 2, "confirmations": 11512, "time": 1537870928, "locktime": 542990, "vsize": 168, "size": 249}