{"hash": "5e04b4679e2a5a10a56641130ce614f87ae1a3de2b6d0ee0a2b16e1606a69309", "blockhash": "00000000000000000004ffacab907a6b429b9a5745fa0b75af4234bf69dd7176", "vout": [{"scriptPubKey": {"reqSigs": 1, "hex": "a9143c51798fd83a667a206245c95b84222be9f450ea87", "addresses": ["37Bx52Ry7xns5BALznCEN8w3pmRMa8d6No"], "asm": "OP_HASH160 3c51798fd83a667a206245c95b84222be9f450ea OP_EQUAL", "type": "scripthash"}, "value": 0.0059, "n": 0}, {"scriptPubKey": {"reqSigs": 1, "hex": "76a91415bc21b897e805727e301549dbeb0334e4756d5e88ac", "addresses": ["12yvZegctXiBHDQyCev5U8CR9wGZc6NDy9"], "asm": "OP_DUP OP_HASH160 15bc21b897e805727e301549dbeb0334e4756d5e OP_EQUALVERIFY OP_CHECKSIG", "type": "pubkeyhash"}, "value": 0.22260108, "n": 1}], "hex": "0100000001d32d3851f4c7924114c114182b5654241993fc2b0101f5a29e8b56190bf4ab53010000006a473044022050feff4ac55f95dbdc2b0d5a454ee0b6997cf7de3232ee89e93e59292db9a0b702205b03a023a1c3c8f7fc2dadb645cbfdffe464dd8356b0b4d98f214b1a76684e530121029d4953db7c91e2cc4df65c87ab18b08eafa58a450c116b188c48e7813dd9d8d8fdffffff02b00009000000000017a9143c51798fd83a667a206245c95b84222be9f450ea878ca95301000000001976a91415bc21b897e805727e301549dbeb0334e4756d5e88ac16490800", "vin": [{"sequence": 4294967293, "scriptSig": {"hex": "473044022050feff4ac55f95dbdc2b0d5a454ee0b6997cf7de3232ee89e93e59292db9a0b702205b03a023a1c3c8f7fc2dadb645cbfdffe464dd8356b0b4d98f214b1a76684e530121029d4953db7c91e2cc4df65c87ab18b08eafa58a450c116b188c48e7813dd9d8d8", "asm": "3044022050feff4ac55f95dbdc2b0d5a454ee0b6997cf7de3232ee89e93e59292db9a0b702205b03a023a1c3c8f7fc2dadb645cbfdffe464dd8356b0b4d98f214b1a76684e53[ALL] 029d4953db7c91e2cc4df65c87ab18b08eafa58a450c116b188c48e7813dd9d8d8"}, "vout": 1, "txid": "53abf40b19568b9ea2f501012bfc93192454562b1814c1144192c7f451382dd3"}], "txid": "5e04b4679e2a5a10a56641130ce614f87ae1a3de2b6d0ee0a2b16e1606a69309", "blocktime": 1537875543, "version": 1, "confirmations": 11464, "time": 1537875543, "locktime": 542998, "vsize": 223, "size": 223}