{"hash": "5e094e562f84cfcc56089582e5b57ab7b7c09536465316efd703307b22c9076f", "blockhash": "0000000000000000001e0dab787dd257d1dbfcb92a98c2207d5e1078be1f4165", "vout": [{"scriptPubKey": {"reqSigs": 1, "hex": "76a91462bdfd251886a66e91a2ddbe766d8bd8fd6eea9d88ac", "addresses": ["1A16pTShENtJHkLa2dUy5hkZNoUpSsFJxz"], "asm": "OP_DUP OP_HASH160 62bdfd251886a66e91a2ddbe766d8bd8fd6eea9d OP_EQUALVERIFY OP_CHECKSIG", "type": "pubkeyhash"}, "value": 0.01386435, "n": 0}, {"scriptPubKey": {"reqSigs": 1, "hex": "a9149e3c7637c69c1e78bc129f60eb92275d12f0297587", "addresses": ["3G7h7p2jjo2WGysF3MK8GCPpFBhuLKinac"], "asm": "OP_HASH160 9e3c7637c69c1e78bc129f60eb92275d12f02975 OP_EQUAL", "type": "scripthash"}, "value": 0.0146, "n": 1}], "hex": "0100000001352e0ef42099db0ac56d790bdd268d3eb7d95c2554b46798b5873c1bedbc125c060000006b483045022100f37e3bb1d067cf6d85ed814f19321caac172eeb5f4a36054348a00aa5b09ec1002200604592a34b3aa7f733939de2410cbe8552da6053c6df1d59a55818a029b7290012102a126471a70cbeed5984e9a1a15c135a51678ffc7588a92dc5d7408e41cc2de22ffffffff02c3271500000000001976a91462bdfd251886a66e91a2ddbe766d8bd8fd6eea9d88ac204716000000000017a9149e3c7637c69c1e78bc129f60eb92275d12f029758700000000", "vin": [{"sequence": 4294967295, "scriptSig": {"hex": "483045022100f37e3bb1d067cf6d85ed814f19321caac172eeb5f4a36054348a00aa5b09ec1002200604592a34b3aa7f733939de2410cbe8552da6053c6df1d59a55818a029b7290012102a126471a70cbeed5984e9a1a15c135a51678ffc7588a92dc5d7408e41cc2de22", "asm": "3045022100f37e3bb1d067cf6d85ed814f19321caac172eeb5f4a36054348a00aa5b09ec1002200604592a34b3aa7f733939de2410cbe8552da6053c6df1d59a55818a029b7290[ALL] 02a126471a70cbeed5984e9a1a15c135a51678ffc7588a92dc5d7408e41cc2de22"}, "vout": 6, "txid": "5c12bced1b3c87b59867b454255cd9b73e8d26dd0b796dc50adb9920f40e2e35"}], "txid": "5e094e562f84cfcc56089582e5b57ab7b7c09536465316efd703307b22c9076f", "blocktime": 1537872475, "version": 1, "confirmations": 11487, "time": 1537872475, "locktime": 0, "vsize": 224, "size": 224}