{"hash": "5e0a1f45eb9026467081b4a538a4270fd849595d67d265682ffaeb476f2f26e3", "blockhash": "0000000000000000001f0ddff1eddb255c1121bcd4da4f1bc9a0da00cae72433", "vout": [{"scriptPubKey": {"reqSigs": 1, "hex": "76a914a2261c22dcb92a74125d8ab4455f7cf20f75bf8388ac", "addresses": ["1FnN7zxbP6amy1SzVeTWQWvXxToEc6TxGy"], "asm": "OP_DUP OP_HASH160 a2261c22dcb92a74125d8ab4455f7cf20f75bf83 OP_EQUALVERIFY OP_CHECKSIG", "type": "pubkeyhash"}, "value": 8.546e-05, "n": 0}, {"scriptPubKey": {"reqSigs": 1, "hex": "a914c722cf6276442dd8608497956569da5873979f4a87", "addresses": ["3Kqx6NB7FBasWZkLj39KqceqC7qyA8AkJq"], "asm": "OP_HASH160 c722cf6276442dd8608497956569da5873979f4a OP_EQUAL", "type": "scripthash"}, "value": 0.00046872, "n": 1}], "hex": "0100000001590637f6d7d5a82f94ec35b8ee481456352a5377db0366465e6502df588afe8f000000006b483045022100faf853dfbdb2707e371fa08fcee0fcdfa03c4815944d03b997031879d534757802201612d3ce34a98329aa0bbbdb37cc6cf06d26b6b4d1e0d198ff07ebc3f4750aa4012102aa1a395fbd37ad4415d479b6fe215747ff3436182bee4ffcdc206cc1b9f92458ffffffff0262210000000000001976a914a2261c22dcb92a74125d8ab4455f7cf20f75bf8388ac18b700000000000017a914c722cf6276442dd8608497956569da5873979f4a8700000000", "vin": [{"sequence": 4294967295, "scriptSig": {"hex": "483045022100faf853dfbdb2707e371fa08fcee0fcdfa03c4815944d03b997031879d534757802201612d3ce34a98329aa0bbbdb37cc6cf06d26b6b4d1e0d198ff07ebc3f4750aa4012102aa1a395fbd37ad4415d479b6fe215747ff3436182bee4ffcdc206cc1b9f92458", "asm": "3045022100faf853dfbdb2707e371fa08fcee0fcdfa03c4815944d03b997031879d534757802201612d3ce34a98329aa0bbbdb37cc6cf06d26b6b4d1e0d198ff07ebc3f4750aa4[ALL] 02aa1a395fbd37ad4415d479b6fe215747ff3436182bee4ffcdc206cc1b9f92458"}, "vout": 0, "txid": "8ffe8a58df02655e466603db77532a35561448eeb835ec942fa8d5d7f6370659"}], "txid": "5e0a1f45eb9026467081b4a538a4270fd849595d67d265682ffaeb476f2f26e3", "blocktime": 1537872018, "version": 1, "confirmations": 11489, "time": 1537872018, "locktime": 0, "vsize": 224, "size": 224}