{"hash": "e8a5c94c2468c24f120a64d6e82f7bb0150134281f5d8be20dacd3b6a037de54", "blockhash": "000000000000000000022b45ed06c6f4ccd3cf7fb5ba4856ebd2e58215665228", "vout": [{"scriptPubKey": {"reqSigs": 1, "hex": "76a914b1d55f8c7b294084bafd6324dff2b0d7d94506ea88ac", "addresses": ["1HDJDPQvJqtVkAeuThLG7Y4HTDTTg2j5Y9"], "asm": "OP_DUP OP_HASH160 b1d55f8c7b294084bafd6324dff2b0d7d94506ea OP_EQUALVERIFY OP_CHECKSIG", "type": "pubkeyhash"}, "value": 0.00587477, "n": 0}, {"scriptPubKey": {"reqSigs": 1, "hex": "a914a1e544c08a6016c238037da7f34271ee8af853b087", "addresses": ["3GT3NHdK9bTt2DCE8NgFjKHGBpGey4xmKS"], "asm": "OP_HASH160 a1e544c08a6016c238037da7f34271ee8af853b0 OP_EQUAL", "type": "scripthash"}, "value": 3.16238482, "n": 1}], "hex": "0200000000010100e54ecf51adadce6787b21fbe8ed9622bac2b667f31d43ebddad481d5761ed5010000001716001478b09d5e533fed3649f899e559401cf90b7a7924ffffffff02d5f60800000000001976a914b1d55f8c7b294084bafd6324dff2b0d7d94506ea88ac926ad9120000000017a914a1e544c08a6016c238037da7f34271ee8af853b08702473044022100c33fff8a6075a983a7cf9423d9366046ad36b6b932ed3fee11c909ff0fea695b021f078d23ac26f0bdaa94bf2f1b060039d0b451d89ae9ca8af1caabadc653a4fa012102a212568e9874281a31f83a4103fbddb831b11aefa65e4d3c783f3b8543edf2ff00000000", "vin": [{"txinwitness": ["3044022100c33fff8a6075a983a7cf9423d9366046ad36b6b932ed3fee11c909ff0fea695b021f078d23ac26f0bdaa94bf2f1b060039d0b451d89ae9ca8af1caabadc653a4fa01", "02a212568e9874281a31f83a4103fbddb831b11aefa65e4d3c783f3b8543edf2ff"], "sequence": 4294967295, "scriptSig": {"hex": "16001478b09d5e533fed3649f899e559401cf90b7a7924", "asm": "001478b09d5e533fed3649f899e559401cf90b7a7924"}, "vout": 1, "txid": "d51e76d581d4dabd3ed4317f662bac2b62d98ebe1fb28767ceadad51cf4ee500"}], "txid": "5e0a082a30b036a0addcc5bd601d585f663da097e8888cfc62600af95841e609", "blocktime": 1537869901, "version": 2, "confirmations": 11522, "time": 1537869901, "locktime": 0, "vsize": 168, "size": 249}