{"hash": "49c3807cb920c2735853d86c991753f3b1e63f8aef88f70e497a19489588f0a8", "blockhash": "0000000000000000000dcc0f55137456b1a82d3642486a52398922ac4d620174", "vout": [{"scriptPubKey": {"reqSigs": 1, "hex": "a9141439003d4d94f3bd6e355c346f476b9913a2251d87", "addresses": ["33Xwish32g38gkdFa2VzTNbadCAEEmMhgC"], "asm": "OP_HASH160 1439003d4d94f3bd6e355c346f476b9913a2251d OP_EQUAL", "type": "scripthash"}, "value": 0.00997152, "n": 0}, {"scriptPubKey": {"reqSigs": 1, "hex": "a91409f4af8b65aa375907a8e7eff81419f001e183d087", "addresses": ["32bf8LDdJRGFuen16hRNrhcmr2KWDxeQte"], "asm": "OP_HASH160 09f4af8b65aa375907a8e7eff81419f001e183d0 OP_EQUAL", "type": "scripthash"}, "value": 1.25891152, "n": 1}], "hex": "020000000001070968ec87ca224dc2be0ff0f68ef2ef2c8df646b45cfa609fedce7b0fe9c97e24010000001716001418cc779a39e60c9b300b03c0fb3ffcc65dac6b79feffffff2c166cf415a64df60b42a9e6cd239b5ff981e18f00c6b4ebac2fbec4d803d5b200000000171600149198e28f5f6c28f888852f2f2dd55d4804c97ff5feffffff44047bc56759e2a0cd2e8ea54d332ec8669b149f1f3a76ef580dc98e230e08df000000001716001439d81b5b726730aa5296eded078d788bde5f14aafeffffff61a53dc891a809af81d6bb5b95b8a07b2a75a5bdf09e1cde2c38d73c78f598d600000000171600141723f461fc665e04e937f530e526c0b462cb6ea0feffffff64c4a448b0da9ace523f8e7ad995a4d26b849fc6e861191611ba206f273fc4550000000017160014dd19973f57c657e5bcf50ef8c7286bdaac78b10efeffffff77bc5cccec127eaf0ccd3e81af92b7b73e9fc1e29a587d0e079d6e8a0c75bb7000000000171600145d6bc478aba1744e544b6913b4d79c362e9e672bfefffffff35f1325fca0379fc8b3ca402b2e69ea849d270a6e67a11c92351fa1318f803703000000171600148923616bf4372176f88a297680ea9a2288ffd086feffffff0220370f000000000017a9141439003d4d94f3bd6e355c346f476b9913a2251d8750f280070000000017a91409f4af8b65aa375907a8e7eff81419f001e183d08702473044022035b34600bd6b41192ca5c8559c38471be0c7eae51140d2e6737007984bc7624b02205ac91142b5535388c57d2f6906b7b042ebab31f02fabcf1b0aa946d7c230a024012103080cea061f49b1730e13233210ead55753c596beeec437c5951262d54f1ab5ba02483045022100b2444f758517d64fb39985e300f9531470ae84cffbf4ac25cf9978e654c86ee302203261feb2b3d07e1ef24c96aad8a57f9f89627501762c7e492c80b6c26f4b6cfd012103f7afa92d65e531259561c00c564209412dcef758e1122a8b2490a94ec6c068a00247304402206617697b97be468fbc15bcb6bb61b351fd541fe6885a47bc07fcb314d7edc51e02205866677f0cce9c65c35e0c9dbc6fce04ac06b79c4a6a04f0b0ced9e9fa277a530121022c466583f7084ab898b91acb342d6e2096a97d074460a36afeaa920344534e4a02483045022100e73e54f4637498120d9a2d776848ccae8445fde848fa523f7e0fb7ea40237ba102202464f224ad88b7d91a7c071b38f820b946f50027bffbfa465a0cc446324d0c890121037af7e167ccd4afe19e740f5ef2bd28827c21de26b479be5c72fac374c67720250247304402201c1420a7b530f22de7e14f1cf2005c18faf30873c0e8ca0efafec9b56c7d4d8a02206bbfa74449aec48baacae3d396592ac7190f03979896c5bd6f7baa31834b844801210271943e419f2f8dddf583e1cafb064cea642b0914f1463475cef81014acc2522b024730440220129418a2a1a9d361c1ee745a02fb35da9ed701c0987fb4842a857c29df5169580220498f6687faff09f131d6c43748405806d1924a8347835a5703239b5776e22f300121024ea01b438e252434ac2d67959fb43a97057cc8807efa1ac571f49e14bd0bc8cf02473044022022c57cff281d555b32b39a85a6b79f42f373157eaaf7ffa90e49b7c7913fd7dd02207f31fcddb52906de959facf2b1c5c57499e1257ec66695de1e748a5656719774012102c017e9de04fd69214ce9f128991126dcbef7939c3bddd5ec419ae3d46c3bedbf0c490800", "vin": [{"txinwitness": ["3044022035b34600bd6b41192ca5c8559c38471be0c7eae51140d2e6737007984bc7624b02205ac91142b5535388c57d2f6906b7b042ebab31f02fabcf1b0aa946d7c230a02401", "03080cea061f49b1730e13233210ead55753c596beeec437c5951262d54f1ab5ba"], "sequence": 4294967294, "scriptSig": {"hex": "16001418cc779a39e60c9b300b03c0fb3ffcc65dac6b79", "asm": "001418cc779a39e60c9b300b03c0fb3ffcc65dac6b79"}, "vout": 1, "txid": "247ec9e90f7bceed9f60fa5cb446f68d2ceff28ef6f00fbec24d22ca87ec6809"}, {"txinwitness": ["3045022100b2444f758517d64fb39985e300f9531470ae84cffbf4ac25cf9978e654c86ee302203261feb2b3d07e1ef24c96aad8a57f9f89627501762c7e492c80b6c26f4b6cfd01", "03f7afa92d65e531259561c00c564209412dcef758e1122a8b2490a94ec6c068a0"], "sequence": 4294967294, "scriptSig": {"hex": "1600149198e28f5f6c28f888852f2f2dd55d4804c97ff5", "asm": "00149198e28f5f6c28f888852f2f2dd55d4804c97ff5"}, "vout": 0, "txid": "b2d503d8c4be2facebb4c6008fe181f95f9b23cde6a9420bf64da615f46c162c"}, {"txinwitness": ["304402206617697b97be468fbc15bcb6bb61b351fd541fe6885a47bc07fcb314d7edc51e02205866677f0cce9c65c35e0c9dbc6fce04ac06b79c4a6a04f0b0ced9e9fa277a5301", "022c466583f7084ab898b91acb342d6e2096a97d074460a36afeaa920344534e4a"], "sequence": 4294967294, "scriptSig": {"hex": "16001439d81b5b726730aa5296eded078d788bde5f14aa", "asm": "001439d81b5b726730aa5296eded078d788bde5f14aa"}, "vout": 0, "txid": "df080e238ec90d58ef763a1f9f149b66c82e334da58e2ecda0e25967c57b0444"}, {"txinwitness": ["3045022100e73e54f4637498120d9a2d776848ccae8445fde848fa523f7e0fb7ea40237ba102202464f224ad88b7d91a7c071b38f820b946f50027bffbfa465a0cc446324d0c8901", "037af7e167ccd4afe19e740f5ef2bd28827c21de26b479be5c72fac374c6772025"], "sequence": 4294967294, "scriptSig": {"hex": "1600141723f461fc665e04e937f530e526c0b462cb6ea0", "asm": "00141723f461fc665e04e937f530e526c0b462cb6ea0"}, "vout": 0, "txid": "d698f5783cd7382cde1c9ef0bda5752a7ba0b8955bbbd681af09a891c83da561"}, {"txinwitness": ["304402201c1420a7b530f22de7e14f1cf2005c18faf30873c0e8ca0efafec9b56c7d4d8a02206bbfa74449aec48baacae3d396592ac7190f03979896c5bd6f7baa31834b844801", "0271943e419f2f8dddf583e1cafb064cea642b0914f1463475cef81014acc2522b"], "sequence": 4294967294, "scriptSig": {"hex": "160014dd19973f57c657e5bcf50ef8c7286bdaac78b10e", "asm": "0014dd19973f57c657e5bcf50ef8c7286bdaac78b10e"}, "vout": 0, "txid": "55c43f276f20ba11161961e8c69f846bd2a495d97a8e3f52ce9adab048a4c464"}, {"txinwitness": ["30440220129418a2a1a9d361c1ee745a02fb35da9ed701c0987fb4842a857c29df5169580220498f6687faff09f131d6c43748405806d1924a8347835a5703239b5776e22f3001", "024ea01b438e252434ac2d67959fb43a97057cc8807efa1ac571f49e14bd0bc8cf"], "sequence": 4294967294, "scriptSig": {"hex": "1600145d6bc478aba1744e544b6913b4d79c362e9e672b", "asm": "00145d6bc478aba1744e544b6913b4d79c362e9e672b"}, "vout": 0, "txid": "70bb750c8a6e9d070e7d589ae2c19f3eb7b792af813ecd0caf7e12eccc5cbc77"}, {"txinwitness": ["3044022022c57cff281d555b32b39a85a6b79f42f373157eaaf7ffa90e49b7c7913fd7dd02207f31fcddb52906de959facf2b1c5c57499e1257ec66695de1e748a565671977401", "02c017e9de04fd69214ce9f128991126dcbef7939c3bddd5ec419ae3d46c3bedbf"], "sequence": 4294967294, "scriptSig": {"hex": "1600148923616bf4372176f88a297680ea9a2288ffd086", "asm": "00148923616bf4372176f88a297680ea9a2288ffd086"}, "vout": 3, "txid": "37808f31a11f35921ca1676e0a279d84ea692e2b40cab3c89f37a0fc25135ff3"}], "txid": "5e1368280c0c30d9bcfb62ee96ee717672e45c845a930c77acd4cf86d470fd5d", "blocktime": 1537870268, "version": 2, "confirmations": 11518, "time": 1537870268, "locktime": 542988, "vsize": 711, "size": 1275}