{"hash": "ee6f2045638372a3772c7201a7e4d682995d24e75b4dfb4d22c6014848f543b3", "blockhash": "0000000000000000001cda96e906b7601b7a6fb1a3b62bca570a9e5d8f4b3de1", "vout": [{"scriptPubKey": {"reqSigs": 1, "hex": "76a914e7fcf942e0205fbc394e65b3a93467143ca1a58488ac", "addresses": ["1N9e9ETYKy36uK9c7hrVz23buER2A5fZxD"], "asm": "OP_DUP OP_HASH160 e7fcf942e0205fbc394e65b3a93467143ca1a584 OP_EQUALVERIFY OP_CHECKSIG", "type": "pubkeyhash"}, "value": 0.02, "n": 0}, {"scriptPubKey": {"reqSigs": 1, "hex": "a91437420f3228825b39de8a0e657f9b3b082086764487", "addresses": ["36jCDykAD9DaavQrXJ4HJkFht3JJs5ZDBz"], "asm": "OP_HASH160 37420f3228825b39de8a0e657f9b3b0820867644 OP_EQUAL", "type": "scripthash"}, "value": 0.01658857, "n": 1}], "hex": "020000000001021ebba42b77431694a3f86332894921b8c80a5dca5c2cf994901094a360f36c6a00000000171600145bd17cfa6ad8981113b8746d36a403cc33a664b8fdffffff3d7553a4e734b05fe3fdcbbadb960b86535677e338d2da13589b75a4968f52c10000000017160014733d8f4874a0bb97466420fc573d8da32a91e58cfdffffff0280841e00000000001976a914e7fcf942e0205fbc394e65b3a93467143ca1a58488ace94f19000000000017a91437420f3228825b39de8a0e657f9b3b08208676448702473044022025eb8c4f711f753ca82b84b7b11da4cc3e177768d4070112928737ff3dee0c2602203a30f1c256ecf3043791b8996e5fc37039669f04fcd07227e36c4e9cf254ac0b0121039f01f0822f45a764ce8f445c8f8468e348e26318d9dc28e4b4ae2158fdd6db66024730440220381916e97dcf0fe5bb374f2dbef0e99b54b890f1d7b33f3b153fd40fb1d978a80220661bb69bcc933e026ebd14bc78b924b40ff577b4c99d1aeaeda912a87b15ebf8012103c8ca76f7a6ec371153bfdbf14c02bc2eabd0235c596e574f1bc379070132e05c13490800", "vin": [{"txinwitness": ["3044022025eb8c4f711f753ca82b84b7b11da4cc3e177768d4070112928737ff3dee0c2602203a30f1c256ecf3043791b8996e5fc37039669f04fcd07227e36c4e9cf254ac0b01", "039f01f0822f45a764ce8f445c8f8468e348e26318d9dc28e4b4ae2158fdd6db66"], "sequence": 4294967293, "scriptSig": {"hex": "1600145bd17cfa6ad8981113b8746d36a403cc33a664b8", "asm": "00145bd17cfa6ad8981113b8746d36a403cc33a664b8"}, "vout": 0, "txid": "6a6cf360a394109094f92c5cca5d0ac8b82149893263f8a3941643772ba4bb1e"}, {"txinwitness": ["30440220381916e97dcf0fe5bb374f2dbef0e99b54b890f1d7b33f3b153fd40fb1d978a80220661bb69bcc933e026ebd14bc78b924b40ff577b4c99d1aeaeda912a87b15ebf801", "03c8ca76f7a6ec371153bfdbf14c02bc2eabd0235c596e574f1bc379070132e05c"], "sequence": 4294967293, "scriptSig": {"hex": "160014733d8f4874a0bb97466420fc573d8da32a91e58c", "asm": "0014733d8f4874a0bb97466420fc573d8da32a91e58c"}, "vout": 0, "txid": "c1528f96a4759b5813dad238e3775653860b96dbbacbfde35fb034e7a453753d"}], "txid": "5e183d32fc1a7b82d0feae21878d58cd376dbe2cffe6d7ed9c0796b571ef4ae3", "blocktime": 1537873282, "version": 2, "confirmations": 11484, "time": 1537873282, "locktime": 542995, "vsize": 258, "size": 420}