{"hash": "be4d143e1e7594378f6c3a3de67399fa131be41d0f802c1e7cf129366d78c8fa", "blockhash": "0000000000000000001e0dab787dd257d1dbfcb92a98c2207d5e1078be1f4165", "vout": [{"scriptPubKey": {"reqSigs": 1, "hex": "a914b7d3ca90b37f4a75fd23c905bc832eb3071287b587", "addresses": ["3JT1JAUXjpzVmLQtvHCW7aY3yT9pQpvrK5"], "asm": "OP_HASH160 b7d3ca90b37f4a75fd23c905bc832eb3071287b5 OP_EQUAL", "type": "scripthash"}, "value": 0.00372, "n": 0}, {"scriptPubKey": {"reqSigs": 1, "hex": "a91469e8605e3eaf491a4badc964b755e8401733449587", "addresses": ["3BM1FV2A7xk2zheMsQaXzmK9PdmbrsS1br"], "asm": "OP_HASH160 69e8605e3eaf491a4badc964b755e84017334495 OP_EQUAL", "type": "scripthash"}, "value": 0.01264841, "n": 1}, {"scriptPubKey": {"reqSigs": 1, "hex": "76a914d98f64e26669ab1027e02b87a67417ed861978fa88ac", "addresses": ["1LqMQphx3iLCs1CPMGX1Fkr7x5ojsMtSVs"], "asm": "OP_DUP OP_HASH160 d98f64e26669ab1027e02b87a67417ed861978fa OP_EQUALVERIFY OP_CHECKSIG", "type": "pubkeyhash"}, "value": 0.00156321, "n": 2}, {"scriptPubKey": {"reqSigs": 1, "hex": "a914d32dd66bc20946a9c944ebfe43256ecfcbe0b6fe87", "addresses": ["3LwdQsUFfKknc3Dqu9ZL3rN1pAkmkSFFQC"], "asm": "OP_HASH160 d32dd66bc20946a9c944ebfe43256ecfcbe0b6fe OP_EQUAL", "type": "scripthash"}, "value": 0.00647309, "n": 3}, {"scriptPubKey": {"reqSigs": 1, "hex": "a914c84a27c1f9017af9e039bf4a4fc4cdf3ea9d5f7687", "addresses": ["3Kx3uJyJDhB2qqkSLzHSYwMng4P2jQMUsz"], "asm": "OP_HASH160 c84a27c1f9017af9e039bf4a4fc4cdf3ea9d5f76 OP_EQUAL", "type": "scripthash"}, "value": 0.0033641, "n": 4}, {"scriptPubKey": {"reqSigs": 1, "hex": "a9144557999660d148c9806839ad0d548b2356f2976587", "addresses": ["381fVLAtMchQiQaLWMU7ZeKQ6pU5arc819"], "asm": "OP_HASH160 4557999660d148c9806839ad0d548b2356f29765 OP_EQUAL", "type": "scripthash"}, "value": 0.00261, "n": 5}, {"scriptPubKey": {"reqSigs": 1, "hex": "a914b16968d6cf0f2f77d9a7262b32a41e2df556271d87", "addresses": ["3Hs5oUoPH1BS7qTYoAYXE7kmnrfjJRhsoy"], "asm": "OP_HASH160 b16968d6cf0f2f77d9a7262b32a41e2df556271d OP_EQUAL", "type": "scripthash"}, "value": 0.00416298, "n": 6}, {"scriptPubKey": {"reqSigs": 1, "hex": "a9146590960b764032c4283b6475b6f1e8a406a4004787", "addresses": ["3Ax3NwM8K9yaVtqQ3ubZXf3u9qNzGcRsfp"], "asm": "OP_HASH160 6590960b764032c4283b6475b6f1e8a406a40047 OP_EQUAL", "type": "scripthash"}, "value": 0.00438459, "n": 7}, {"scriptPubKey": {"reqSigs": 1, "hex": "a914e5d9b1787369802a6137977ff3269d102b4882bf87", "addresses": ["3NeMT4htURYz68qRatRQMZL9SwWGmzNTPJ"], "asm": "OP_HASH160 e5d9b1787369802a6137977ff3269d102b4882bf OP_EQUAL", "type": "scripthash"}, "value": 1.3, "n": 8}, {"scriptPubKey": {"reqSigs": 1, "hex": "a914731faf9dbc9dd5f4626bcf9607e4f6098a42440887", "addresses": ["3CBjbBkXyb5Zdw7wFzfNA9NxTMVe5Muo8i"], "asm": "OP_HASH160 731faf9dbc9dd5f4626bcf9607e4f6098a424408 OP_EQUAL", "type": "scripthash"}, "value": 0.00537349, "n": 9}, {"scriptPubKey": {"reqSigs": 1, "hex": "76a91453baeb1512cca5aafa6ebda98084fe430041905e88ac", "addresses": ["18dj1EUrZDtAZzaRp87GfHXdr5n4wdx2ja"], "asm": "OP_DUP OP_HASH160 53baeb1512cca5aafa6ebda98084fe430041905e OP_EQUALVERIFY OP_CHECKSIG", "type": "pubkeyhash"}, "value": 0.01539, "n": 10}, {"scriptPubKey": {"reqSigs": 1, "hex": "76a91448227eb52be53ee72f70493f437c9ec0b4fab15c88ac", "addresses": ["17aQyZfAjDiSH9DHneteDAgbhLa3CLLATA"], "asm": "OP_DUP OP_HASH160 48227eb52be53ee72f70493f437c9ec0b4fab15c OP_EQUALVERIFY OP_CHECKSIG", "type": "pubkeyhash"}, "value": 0.01245234, "n": 11}, {"scriptPubKey": {"reqSigs": 1, "hex": "76a9149e5766d9a1a27cdd792dc83fa19552b58191605588ac", "addresses": ["1FSEU6DCxnAUWP78h2hJR7c5hNXJCaKPpt"], "asm": "OP_DUP OP_HASH160 9e5766d9a1a27cdd792dc83fa19552b581916055 OP_EQUALVERIFY OP_CHECKSIG", "type": "pubkeyhash"}, "value": 0.01141497, "n": 12}, {"scriptPubKey": {"reqSigs": 1, "hex": "a9148ff82bd48cca2eb6c3f96ccf49ffcea1091ece6787", "addresses": ["3EpFrDLqBP7KjSnxs9vL1o5q3HWMCdLxmA"], "asm": "OP_HASH160 8ff82bd48cca2eb6c3f96ccf49ffcea1091ece67 OP_EQUAL", "type": "scripthash"}, "value": 0.0021386, "n": 13}, {"scriptPubKey": {"reqSigs": 1, "hex": "76a9142e1b4a208e901189bd2fbdb5a530e5638ff99a0388ac", "addresses": ["15CnmwHmYvAc8nEssbFFQxZopFhbidkm9t"], "asm": "OP_DUP OP_HASH160 2e1b4a208e901189bd2fbdb5a530e5638ff99a03 OP_EQUALVERIFY OP_CHECKSIG", "type": "pubkeyhash"}, "value": 0.01670019, "n": 14}, {"scriptPubKey": {"reqSigs": 1, "hex": "76a914778ad4d7a0099ac4c1a87297e8cade43a6a92ba688ac", "addresses": ["1Bu5j1DJCyhyVbaw93y4kJ32AKxbxirkdY"], "asm": "OP_DUP OP_HASH160 778ad4d7a0099ac4c1a87297e8cade43a6a92ba6 OP_EQUALVERIFY OP_CHECKSIG", "type": "pubkeyhash"}, "value": 0.0210517, "n": 15}, {"scriptPubKey": {"reqSigs": 1, "hex": "a914727441547b6a308a67b8c161f77755fdf312e8da87", "addresses": ["3C8CDxvXMmaWkSS3dGV3XqLzWcGs8tqZP9"], "asm": "OP_HASH160 727441547b6a308a67b8c161f77755fdf312e8da OP_EQUAL", "type": "scripthash"}, "value": 0.00487088, "n": 16}, {"scriptPubKey": {"reqSigs": 1, "hex": "a914e56d7222d917ee8d879002eda51e2f483574e74e87", "addresses": ["3Nc7muMbqGrPTXpvpgkxsDuEJUKP6o49eC"], "asm": "OP_HASH160 e56d7222d917ee8d879002eda51e2f483574e74e OP_EQUAL", "type": "scripthash"}, "value": 0.00222733, "n": 17}, {"scriptPubKey": {"reqSigs": 1, "hex": "a9147482c07f08df0ed3115b01a43fe7007e3c25314487", "addresses": ["3CK4wbkkcL8ATUYhdfNC8Xtt2qEcCAL6js"], "asm": "OP_HASH160 7482c07f08df0ed3115b01a43fe7007e3c253144 OP_EQUAL", "type": "scripthash"}, "value": 0.0025, "n": 18}, {"scriptPubKey": {"reqSigs": 1, "hex": "76a914606df381beacd0e30f498bccdf930fb39eb5312988ac", "addresses": ["19nsaxcpDzbXP6obz4p2LHrSGFRUviTVe4"], "asm": "OP_DUP OP_HASH160 606df381beacd0e30f498bccdf930fb39eb53129 OP_EQUALVERIFY OP_CHECKSIG", "type": "pubkeyhash"}, "value": 0.00350271, "n": 19}, {"scriptPubKey": {"reqSigs": 1, "hex": "a91449040555ab1f6b45d92dac36e73c917cebe7589287", "addresses": ["38M64vKZZoA7WVqMrAsfyaMf4vfxpN8Bjr"], "asm": "OP_HASH160 49040555ab1f6b45d92dac36e73c917cebe75892 OP_EQUAL", "type": "scripthash"}, "value": 0.01017745, "n": 20}, {"scriptPubKey": {"reqSigs": 1, "hex": "a9143552516c5265ff3f5d90f6cd4a0618d96ff5906987", "addresses": ["36YxMGbogkxd34PsMXoM6HTH6canC8YpF9"], "asm": "OP_HASH160 3552516c5265ff3f5d90f6cd4a0618d96ff59069 OP_EQUAL", "type": "scripthash"}, "value": 0.0121574, "n": 21}, {"scriptPubKey": {"reqSigs": 1, "hex": "a914b1048a4bf9cd4556573b904f99dae5a0810a02ee87", "addresses": ["3HpzxxWZMMdRBwveEiKaiQAC6ojVEyX5Fd"], "asm": "OP_HASH160 b1048a4bf9cd4556573b904f99dae5a0810a02ee OP_EQUAL", "type": "scripthash"}, "value": 0.00571621, "n": 22}, {"scriptPubKey": {"reqSigs": 1, "hex": "a914862254d718bf5400a2a0f900ee92ea804fae35a587", "addresses": ["3DvFbduAw9FqfWBGL61yUNStCFAg2pACuA"], "asm": "OP_HASH160 862254d718bf5400a2a0f900ee92ea804fae35a5 OP_EQUAL", "type": "scripthash"}, "value": 0.01545378, "n": 23}, {"scriptPubKey": {"reqSigs": 1, "hex": "a9142486cfcc11a79c880cf4e1de0e40171b94d63d4b87", "addresses": ["3529kLAmFxQ7JRAm6nbAPMK6rTnajsXEky"], "asm": "OP_HASH160 2486cfcc11a79c880cf4e1de0e40171b94d63d4b OP_EQUAL", "type": "scripthash"}, "value": 0.00546494, "n": 24}, {"scriptPubKey": {"reqSigs": 1, "hex": "a914c7776b9e6e6bfbcdc099ac9f38eb00907127b09387", "addresses": ["3KshTC5pu2sNjU4pPQKKt7GYUKZ7XDoTBT"], "asm": "OP_HASH160 c7776b9e6e6bfbcdc099ac9f38eb00907127b093 OP_EQUAL", "type": "scripthash"}, "value": 0.2693704, "n": 25}, {"scriptPubKey": {"reqSigs": 1, "hex": "76a9149fde3c6fd3794b3d8b5a5f5a32fc3053aaf57e2b88ac", "addresses": ["1FaJfjcS3Ytxxp3Yc3XUo1TBD3Y9tF5T4f"], "asm": "OP_DUP OP_HASH160 9fde3c6fd3794b3d8b5a5f5a32fc3053aaf57e2b OP_EQUALVERIFY OP_CHECKSIG", "type": "pubkeyhash"}, "value": 0.00511976, "n": 26}, {"scriptPubKey": {"reqSigs": 1, "hex": "a9147d6a0c8ef14bf266e9bc487f07de8434d141a90c87", "addresses": ["3D89RwUvqXsdkhWoQr6RtGfyd7skDxNwZK"], "asm": "OP_HASH160 7d6a0c8ef14bf266e9bc487f07de8434d141a90c OP_EQUAL", "type": "scripthash"}, "value": 13.59451483, "n": 27}, {"scriptPubKey": {"reqSigs": 1, "hex": "a9147aa2c7326f7a4bd03c2106ae48cd6782746191dd87", "addresses": ["3CsTMy8pMGocc1vuJQxt2qNoNq8yhEGbQW"], "asm": "OP_HASH160 7aa2c7326f7a4bd03c2106ae48cd6782746191dd OP_EQUAL", "type": "scripthash"}, "value": 0.00443771, "n": 28}, {"scriptPubKey": {"reqSigs": 1, "hex": "76a9146469e9cb1d7c1b09c1203e2af0295e32ff258ed488ac", "addresses": ["1A9wTAaDxzn73tCphrocNBmFTfh1UeAhgb"], "asm": "OP_DUP OP_HASH160 6469e9cb1d7c1b09c1203e2af0295e32ff258ed4 OP_EQUALVERIFY OP_CHECKSIG", "type": "pubkeyhash"}, "value": 0.00437383, "n": 29}, {"scriptPubKey": {"reqSigs": 1, "hex": "a9144d5c9ebf0ba644b196d247597d03e0286720541987", "addresses": ["38k4ufwgsead8cGNFvLD5hrLRbMv3Ei85r"], "asm": "OP_HASH160 4d5c9ebf0ba644b196d247597d03e02867205419 OP_EQUAL", "type": "scripthash"}, "value": 0.01841278, "n": 30}], "hex": "020000000001013a9b0476d9d2852bed43764a475eeca26f376c7b97b4b2c67f09ae66578b81ce0700000017160014b3ed71428b4f1059300af4e9774c7c2b2e7e31cdfeffffff1f20ad05000000000017a914b7d3ca90b37f4a75fd23c905bc832eb3071287b587c94c13000000000017a91469e8605e3eaf491a4badc964b755e8401733449587a1620200000000001976a914d98f64e26669ab1027e02b87a67417ed861978fa88ac8de009000000000017a914d32dd66bc20946a9c944ebfe43256ecfcbe0b6fe871a2205000000000017a914c84a27c1f9017af9e039bf4a4fc4cdf3ea9d5f768788fb03000000000017a9144557999660d148c9806839ad0d548b2356f29765872a5a06000000000017a914b16968d6cf0f2f77d9a7262b32a41e2df556271d87bbb006000000000017a9146590960b764032c4283b6475b6f1e8a406a400478780a4bf070000000017a914e5d9b1787369802a6137977ff3269d102b4882bf87053308000000000017a914731faf9dbc9dd5f4626bcf9607e4f6098a42440887b87b1700000000001976a91453baeb1512cca5aafa6ebda98084fe430041905e88ac32001300000000001976a91448227eb52be53ee72f70493f437c9ec0b4fab15c88acf96a1100000000001976a9149e5766d9a1a27cdd792dc83fa19552b58191605588ac644303000000000017a9148ff82bd48cca2eb6c3f96ccf49ffcea1091ece6787837b1900000000001976a9142e1b4a208e901189bd2fbdb5a530e5638ff99a0388ac521f2000000000001976a914778ad4d7a0099ac4c1a87297e8cade43a6a92ba688acb06e07000000000017a914727441547b6a308a67b8c161f77755fdf312e8da870d6603000000000017a914e56d7222d917ee8d879002eda51e2f483574e74e8790d003000000000017a9147482c07f08df0ed3115b01a43fe7007e3c253144873f580500000000001976a914606df381beacd0e30f498bccdf930fb39eb5312988ac91870f000000000017a91449040555ab1f6b45d92dac36e73c917cebe7589287fc8c12000000000017a9143552516c5265ff3f5d90f6cd4a0618d96ff5906987e5b808000000000017a914b1048a4bf9cd4556573b904f99dae5a0810a02ee87a29417000000000017a914862254d718bf5400a2a0f900ee92ea804fae35a587be5608000000000017a9142486cfcc11a79c880cf4e1de0e40171b94d63d4b87d0069b010000000017a914c7776b9e6e6bfbcdc099ac9f38eb00907127b09387e8cf0700000000001976a9149fde3c6fd3794b3d8b5a5f5a32fc3053aaf57e2b88ac5b9507510000000017a9147d6a0c8ef14bf266e9bc487f07de8434d141a90c877bc506000000000017a9147aa2c7326f7a4bd03c2106ae48cd6782746191dd8787ac0600000000001976a9146469e9cb1d7c1b09c1203e2af0295e32ff258ed488ac7e181c000000000017a9144d5c9ebf0ba644b196d247597d03e02867205419870247304402206281e55c28d41dc331af5b24c502a8af9da58b844fd76bdcf14367fffebd889b02204bf2d1c2458f171b0813d5f3af2242ba6a0af253dd8c0168d7abc59aa8da34cb01210224302249b13b24071e889d07928752aa7dd37d2f0281839bf5dac21f6b3126dc12490800", "vin": [{"txinwitness": ["304402206281e55c28d41dc331af5b24c502a8af9da58b844fd76bdcf14367fffebd889b02204bf2d1c2458f171b0813d5f3af2242ba6a0af253dd8c0168d7abc59aa8da34cb01", "0224302249b13b24071e889d07928752aa7dd37d2f0281839bf5dac21f6b3126dc"], "sequence": 4294967294, "scriptSig": {"hex": "160014b3ed71428b4f1059300af4e9774c7c2b2e7e31cd", "asm": "0014b3ed71428b4f1059300af4e9774c7c2b2e7e31cd"}, "vout": 7, "txid": "ce818b5766ae097fc6b2b4977b6c376fa2ec5e474a7643ed2b85d2d976049b3a"}], "txid": "5e1cfb3831352ed11e48306319d4303bc1478866f6256aed1e2ce8873bc8ac82", "blocktime": 1537872475, "version": 2, "confirmations": 11486, "time": 1537872475, "locktime": 542994, "vsize": 1112, "size": 1193}