{"hash": "d64700dee3f680418920a9b211625bb6bccae1897f639dd38c48cbb1e4275668", "blockhash": "0000000000000000001e0dab787dd257d1dbfcb92a98c2207d5e1078be1f4165", "vout": [{"scriptPubKey": {"reqSigs": 1, "hex": "76a9140a3195c50a139c1268b517078c4818eb7c3cee7288ac", "addresses": ["1vuA9XxA95fff3zonS6wemPTWBvQ16vN9"], "asm": "OP_DUP OP_HASH160 0a3195c50a139c1268b517078c4818eb7c3cee72 OP_EQUALVERIFY OP_CHECKSIG", "type": "pubkeyhash"}, "value": 0.00288751, "n": 0}, {"scriptPubKey": {"reqSigs": 1, "hex": "a9140e4a8c35dd634bc6a04b9280f4965560bb1f51b687", "addresses": ["32zagtpEKF1EaSc5ihBT5k6YWupYzxvXs2"], "asm": "OP_HASH160 0e4a8c35dd634bc6a04b9280f4965560bb1f51b6 OP_EQUAL", "type": "scripthash"}, "value": 0.01039442, "n": 1}], "hex": "020000000001018ee490a8a04884e271ac6469109d56aa4646092c283ab2206176135aab540f530000000017160014216d60a356c50d6e97a285b27a190f9a04dec3fafeffffff02ef670400000000001976a9140a3195c50a139c1268b517078c4818eb7c3cee7288ac52dc0f000000000017a9140e4a8c35dd634bc6a04b9280f4965560bb1f51b6870247304402207d314c79339114f02758156afb3fe9fc522326e5380c0321475037bb0b1794f9022019a18ff5c35456a6ec153069d9b46eeb982ff67bcc805e367df4dad9f1083b59012103388b5b66b605f43549e70ed64e0c2510d9e6265faab73a4d1910b271b2d95ce612490800", "vin": [{"txinwitness": ["304402207d314c79339114f02758156afb3fe9fc522326e5380c0321475037bb0b1794f9022019a18ff5c35456a6ec153069d9b46eeb982ff67bcc805e367df4dad9f1083b5901", "03388b5b66b605f43549e70ed64e0c2510d9e6265faab73a4d1910b271b2d95ce6"], "sequence": 4294967294, "scriptSig": {"hex": "160014216d60a356c50d6e97a285b27a190f9a04dec3fa", "asm": "0014216d60a356c50d6e97a285b27a190f9a04dec3fa"}, "vout": 0, "txid": "530f54ab5a13766120b23a282c094646aa569d106964ac71e28448a0a890e48e"}], "txid": "5e24851fc64918c5b7635854dd67461a6a0b296490157d9e0edc5a28f0dce935", "blocktime": 1537872475, "version": 2, "confirmations": 11487, "time": 1537872475, "locktime": 542994, "vsize": 168, "size": 249}