{"hash": "5e27a28834579be900d9f85f3ced8cf3801f6a38af23b2c7e2fd3497dda3f3cf", "blockhash": "0000000000000000001f76057863aec43deb6fa401d9628bb513d65a8098bfab", "vout": [{"scriptPubKey": {"reqSigs": 1, "hex": "76a91400912a29977e9441cb46e6edb1ec913aa48ccbbd88ac", "addresses": ["113zuDm1rhD11KR243fsiVKAiZsA6PgvH4"], "asm": "OP_DUP OP_HASH160 00912a29977e9441cb46e6edb1ec913aa48ccbbd OP_EQUALVERIFY OP_CHECKSIG", "type": "pubkeyhash"}, "value": 0.00316846, "n": 0}, {"scriptPubKey": {"reqSigs": 1, "hex": "a914128eb41bebb7607fc7f535be488b0c345a54714587", "addresses": ["33P93DKdr2yCErkutDYFT1Ah9gAGkyRu6W"], "asm": "OP_HASH160 128eb41bebb7607fc7f535be488b0c345a547145 OP_EQUAL", "type": "scripthash"}, "value": 0.00702228, "n": 1}], "hex": "0100000002d6832d1e4710dde31c82a0d45c4f1003a50c8862bc7e5c7335a6020a2b15e555000000006b483045022100e6ffa8a899b7162115d6292f58a269749dfd048068bb39b735f48757fa651fd402202cdf17b13cce01becd3cb411be5fe38fe9a0d2f0c15d131b8ee3f34b49c3c805012102fd3d02f3354e0f827b4fdf1a11e5e314d43dabfa10da7978f761efce6c954b6bffffffffd3b159e5a1f1f63923b2723eb3b2180f36bb86b6b11987adc908ec664c62acd1000000006b483045022100907685203313bf47a2ef677410140b3f176eaeeaf22b3e19b2353c8df77371a102204bff00a909f394802db74c7c39f09cc2a1a57120ffdaf94a3812e6b98f3a9fa70121032890b76b0da3970177a8f74350b1c9f303de35043ac5caf95b0f24dc42669096ffffffff02aed50400000000001976a91400912a29977e9441cb46e6edb1ec913aa48ccbbd88ac14b70a000000000017a914128eb41bebb7607fc7f535be488b0c345a5471458700000000", "vin": [{"sequence": 4294967295, "scriptSig": {"hex": "483045022100e6ffa8a899b7162115d6292f58a269749dfd048068bb39b735f48757fa651fd402202cdf17b13cce01becd3cb411be5fe38fe9a0d2f0c15d131b8ee3f34b49c3c805012102fd3d02f3354e0f827b4fdf1a11e5e314d43dabfa10da7978f761efce6c954b6b", "asm": "3045022100e6ffa8a899b7162115d6292f58a269749dfd048068bb39b735f48757fa651fd402202cdf17b13cce01becd3cb411be5fe38fe9a0d2f0c15d131b8ee3f34b49c3c805[ALL] 02fd3d02f3354e0f827b4fdf1a11e5e314d43dabfa10da7978f761efce6c954b6b"}, "vout": 0, "txid": "55e5152b0a02a635735c7ebc62880ca503104f5cd4a0821ce3dd10471e2d83d6"}, {"sequence": 4294967295, "scriptSig": {"hex": "483045022100907685203313bf47a2ef677410140b3f176eaeeaf22b3e19b2353c8df77371a102204bff00a909f394802db74c7c39f09cc2a1a57120ffdaf94a3812e6b98f3a9fa70121032890b76b0da3970177a8f74350b1c9f303de35043ac5caf95b0f24dc42669096", "asm": "3045022100907685203313bf47a2ef677410140b3f176eaeeaf22b3e19b2353c8df77371a102204bff00a909f394802db74c7c39f09cc2a1a57120ffdaf94a3812e6b98f3a9fa7[ALL] 032890b76b0da3970177a8f74350b1c9f303de35043ac5caf95b0f24dc42669096"}, "vout": 0, "txid": "d1ac624c66ec08c9ad8719b1b686bb360f18b2b33e72b22339f6f1a1e559b1d3"}], "txid": "5e27a28834579be900d9f85f3ced8cf3801f6a38af23b2c7e2fd3497dda3f3cf", "blocktime": 1537873891, "version": 1, "confirmations": 11478, "time": 1537873891, "locktime": 0, "vsize": 372, "size": 372}