{"hash": "5e2839b34ae7e16bde83613a74b27c438b4b6d8d588e69614c4c3043b99131c7", "blockhash": "0000000000000000001e0dab787dd257d1dbfcb92a98c2207d5e1078be1f4165", "vout": [{"scriptPubKey": {"reqSigs": 1, "hex": "a91494ef3bb683dd74e0ced7051048b01639e3cb52a787", "addresses": ["3FGWX9oNE815PWiV9K4ozhnMD2WyiedCHP"], "asm": "OP_HASH160 94ef3bb683dd74e0ced7051048b01639e3cb52a7 OP_EQUAL", "type": "scripthash"}, "value": 0.00187476, "n": 0}, {"scriptPubKey": {"reqSigs": 1, "hex": "76a914aff80c00a92484b2e2f98b941add84e0c7bd86e288ac", "addresses": ["1H3SQAs2Bgb56QUQJeWSTbpVAbnMcDw8pR"], "asm": "OP_DUP OP_HASH160 aff80c00a92484b2e2f98b941add84e0c7bd86e2 OP_EQUALVERIFY OP_CHECKSIG", "type": "pubkeyhash"}, "value": 0.0037463, "n": 1}], "hex": "01000000016ae3c2d2cebb35bcdc8697822a9e0a7af421acdd951c85cefb95ac6c85a7694b000000006b48304502210093dd473fc31497e356e491ecdaa4eb579e4c23ee71efd791e791b2bde825c94a022018b631d8bda7e344c13b28d7e001547c8fbe48a2cc330adfe77cdc68a3536f030121029e24e2222c4b2bfa4bd67937a54631dae52a878f781198a44a50821732b3f7d1ffffffff0254dc02000000000017a91494ef3bb683dd74e0ced7051048b01639e3cb52a78766b70500000000001976a914aff80c00a92484b2e2f98b941add84e0c7bd86e288ac00000000", "vin": [{"sequence": 4294967295, "scriptSig": {"hex": "48304502210093dd473fc31497e356e491ecdaa4eb579e4c23ee71efd791e791b2bde825c94a022018b631d8bda7e344c13b28d7e001547c8fbe48a2cc330adfe77cdc68a3536f030121029e24e2222c4b2bfa4bd67937a54631dae52a878f781198a44a50821732b3f7d1", "asm": "304502210093dd473fc31497e356e491ecdaa4eb579e4c23ee71efd791e791b2bde825c94a022018b631d8bda7e344c13b28d7e001547c8fbe48a2cc330adfe77cdc68a3536f03[ALL] 029e24e2222c4b2bfa4bd67937a54631dae52a878f781198a44a50821732b3f7d1"}, "vout": 0, "txid": "4b69a7856cac95fbce851c95ddac21f47a0a9e2a829786dcbc35bbced2c2e36a"}], "txid": "5e2839b34ae7e16bde83613a74b27c438b4b6d8d588e69614c4c3043b99131c7", "blocktime": 1537872475, "version": 1, "confirmations": 11487, "time": 1537872475, "locktime": 0, "vsize": 224, "size": 224}