{"hash": "4408870e0dbeed02975d6de99973193298b99398d86b177175b884bf8bb8e0b2", "blockhash": "00000000000000000017f5eb5941039fbcee6240d03bc1f2f8e35350df66a1d8", "vout": [{"scriptPubKey": {"reqSigs": 1, "hex": "a91490e99e8d26d05ead3c05430c292a887bbff695f587", "addresses": ["3EuF6KjJawxTiUsea3Sc8hsLUGmVEf7Xg5"], "asm": "OP_HASH160 90e99e8d26d05ead3c05430c292a887bbff695f5 OP_EQUAL", "type": "scripthash"}, "value": 0.0013248, "n": 0}, {"scriptPubKey": {"type": "nulldata", "hex": "6a146f6d6e69000000000000001f0000000005f5e100", "asm": "OP_RETURN 6f6d6e69000000000000001f0000000005f5e100"}, "value": 0.0, "n": 1}, {"scriptPubKey": {"reqSigs": 1, "hex": "a91490e99e8d26d05ead3c05430c292a887bbff695f587", "addresses": ["3EuF6KjJawxTiUsea3Sc8hsLUGmVEf7Xg5"], "asm": "OP_HASH160 90e99e8d26d05ead3c05430c292a887bbff695f5 OP_EQUAL", "type": "scripthash"}, "value": 5.4e-06, "n": 2}], "hex": "01000000000102d8a1cd3b6b573252f88fff606288f25c5359746663796a56190576e5518f5d2b0000000017160014f6e1792e7852ebd5ae795c2a25d579acdfadec2dffffffffd8a1cd3b6b573252f88fff606288f25c5359746663796a56190576e5518f5d2b0200000017160014f6e1792e7852ebd5ae795c2a25d579acdfadec2dffffffff03800502000000000017a91490e99e8d26d05ead3c05430c292a887bbff695f5870000000000000000166a146f6d6e69000000000000001f0000000005f5e1001c0200000000000017a91490e99e8d26d05ead3c05430c292a887bbff695f587024730440220215ef776c15d65f48bed9a7b0f0b4a7e2012d172a44bada657683edb9b954e31022013147b77b6d998443b03e1702c3a91e70bfff124cd8fbd202a3d098924c7d9dc012103f1cf988013a33e053d1e9bd54c4798c1a6dc362a5b2798b5344049fca40e2db00247304402203e63b1391bdcf8680a5b33eb87237d376b5075302a81a160508d77bff63d23d802207801b93f5e7f676ccf3aee966749b2036ddf33edb8f40c7075dec534dd82666b012103f1cf988013a33e053d1e9bd54c4798c1a6dc362a5b2798b5344049fca40e2db000000000", "vin": [{"txinwitness": ["30440220215ef776c15d65f48bed9a7b0f0b4a7e2012d172a44bada657683edb9b954e31022013147b77b6d998443b03e1702c3a91e70bfff124cd8fbd202a3d098924c7d9dc01", "03f1cf988013a33e053d1e9bd54c4798c1a6dc362a5b2798b5344049fca40e2db0"], "sequence": 4294967295, "scriptSig": {"hex": "160014f6e1792e7852ebd5ae795c2a25d579acdfadec2d", "asm": "0014f6e1792e7852ebd5ae795c2a25d579acdfadec2d"}, "vout": 0, "txid": "2b5d8f51e5760519566a7963667459535cf2886260ff8ff85232576b3bcda1d8"}, {"txinwitness": ["304402203e63b1391bdcf8680a5b33eb87237d376b5075302a81a160508d77bff63d23d802207801b93f5e7f676ccf3aee966749b2036ddf33edb8f40c7075dec534dd82666b01", "03f1cf988013a33e053d1e9bd54c4798c1a6dc362a5b2798b5344049fca40e2db0"], "sequence": 4294967295, "scriptSig": {"hex": "160014f6e1792e7852ebd5ae795c2a25d579acdfadec2d", "asm": "0014f6e1792e7852ebd5ae795c2a25d579acdfadec2d"}, "vout": 2, "txid": "2b5d8f51e5760519566a7963667459535cf2886260ff8ff85232576b3bcda1d8"}], "txid": "5e29265a223e9f980489c914dd20bd7a40c52748a60a7f989cce00b65cbc5bd0", "blocktime": 1537874412, "version": 1, "confirmations": 11467, "time": 1537874412, "locktime": 0, "vsize": 287, "size": 449}