{"hash": "5e2a55e2e6304c26d709b02f2076d1b477afda450a5bebbaac222cf988a6ebb7", "blockhash": "0000000000000000001e0dab787dd257d1dbfcb92a98c2207d5e1078be1f4165", "vout": [{"scriptPubKey": {"reqSigs": 1, "hex": "a914e8bd416f9ecb8d1567961761a64bd7bac12c64e687", "addresses": ["3NudQkxUCqsHmKkWdXsFdpD81U8ciBs1Kh"], "asm": "OP_HASH160 e8bd416f9ecb8d1567961761a64bd7bac12c64e6 OP_EQUAL", "type": "scripthash"}, "value": 0.00078296, "n": 0}, {"scriptPubKey": {"reqSigs": 1, "hex": "76a91448742b474ed9ccf9d2efac943e7e53779c7fbd3c88ac", "addresses": ["17c6pP1BALsFi2My2hK53STtuuRebR34PY"], "asm": "OP_DUP OP_HASH160 48742b474ed9ccf9d2efac943e7e53779c7fbd3c OP_EQUALVERIFY OP_CHECKSIG", "type": "pubkeyhash"}, "value": 0.007058, "n": 1}], "hex": "01000000020abe974c1e284c3684080d29cd98dea7d114be3e62aa62e12bd75b30ea507fac010000006b4830450221008af1b8c9695f7da4e4e8e10535fccaba03b7997f45383b16c5c3fce7ba19a0b7022049d09d8bf21ab31e2e1b05a8e25c1369919b58acb7f2f9ee71a0a1b2413b3aeb01210309b82ce00ddde3969fc0fce7b9cc94ef87a6d585f4feebbe52665944a428ba37ffffffffea7f72700d6f3f9c7fbb2d0519c939dd2428d22157ca42a0b963b89c937fcce5010000006b483045022100ce38d80933e53704fad132f269d146dbfc36652f0f931c2cf3d9600430f8559c022042978db02e583e370098a273b8f022ce85c08d15170d79ec587d699ba53e8b8d0121034cc60f9dda22be7f8f1ae6bba75b964e5653692243855d818d5756b8eb41b3aaffffffff02d83101000000000017a914e8bd416f9ecb8d1567961761a64bd7bac12c64e68708c50a00000000001976a91448742b474ed9ccf9d2efac943e7e53779c7fbd3c88ac00000000", "vin": [{"sequence": 4294967295, "scriptSig": {"hex": "4830450221008af1b8c9695f7da4e4e8e10535fccaba03b7997f45383b16c5c3fce7ba19a0b7022049d09d8bf21ab31e2e1b05a8e25c1369919b58acb7f2f9ee71a0a1b2413b3aeb01210309b82ce00ddde3969fc0fce7b9cc94ef87a6d585f4feebbe52665944a428ba37", "asm": "30450221008af1b8c9695f7da4e4e8e10535fccaba03b7997f45383b16c5c3fce7ba19a0b7022049d09d8bf21ab31e2e1b05a8e25c1369919b58acb7f2f9ee71a0a1b2413b3aeb[ALL] 0309b82ce00ddde3969fc0fce7b9cc94ef87a6d585f4feebbe52665944a428ba37"}, "vout": 1, "txid": "ac7f50ea305bd72be162aa623ebe14d1a7de98cd290d0884364c281e4c97be0a"}, {"sequence": 4294967295, "scriptSig": {"hex": "483045022100ce38d80933e53704fad132f269d146dbfc36652f0f931c2cf3d9600430f8559c022042978db02e583e370098a273b8f022ce85c08d15170d79ec587d699ba53e8b8d0121034cc60f9dda22be7f8f1ae6bba75b964e5653692243855d818d5756b8eb41b3aa", "asm": "3045022100ce38d80933e53704fad132f269d146dbfc36652f0f931c2cf3d9600430f8559c022042978db02e583e370098a273b8f022ce85c08d15170d79ec587d699ba53e8b8d[ALL] 034cc60f9dda22be7f8f1ae6bba75b964e5653692243855d818d5756b8eb41b3aa"}, "vout": 1, "txid": "e5cc7f939cb863b9a042ca5721d22824dd39c919052dbb7f9c3f6f0d70727fea"}], "txid": "5e2a55e2e6304c26d709b02f2076d1b477afda450a5bebbaac222cf988a6ebb7", "blocktime": 1537872475, "version": 1, "confirmations": 11487, "time": 1537872475, "locktime": 0, "vsize": 372, "size": 372}