{"hash": "5e2ca4047b7649ad63a395f0dfd5c350b3c537f4b1d0d357b14965b31c199b7d", "blockhash": "0000000000000000000dcc0f55137456b1a82d3642486a52398922ac4d620174", "vout": [{"scriptPubKey": {"reqSigs": 1, "hex": "76a914b42692dbdfab42261bbcc7d32c99c5beb808684f88ac", "addresses": ["1HRYqg9JBjVwSrjc7qFrvnt1u867awEW8G"], "asm": "OP_DUP OP_HASH160 b42692dbdfab42261bbcc7d32c99c5beb808684f OP_EQUALVERIFY OP_CHECKSIG", "type": "pubkeyhash"}, "value": 0.00066116, "n": 0}, {"scriptPubKey": {"reqSigs": 1, "hex": "76a914d2ed184a1c73669e3252cbf26a1c8c3c29b885e188ac", "addresses": ["1LEGvvgRRqTZNrgJoxXPP3nWZcCbYtJubj"], "asm": "OP_DUP OP_HASH160 d2ed184a1c73669e3252cbf26a1c8c3c29b885e1 OP_EQUALVERIFY OP_CHECKSIG", "type": "pubkeyhash"}, "value": 0.28527193, "n": 1}], "hex": "0200000001fc0140fb925408365da3be832b1915a8f8fa8291a996a9484809704770061cfd010000006b483045022100e189ced6ab24696cf3d74f00b42ab7c19bdc97e00c07f65d12f8e747538a9f6502204c353be8a018f969083b10fbb2502327be008e7f2003ccc286b862cc284afa6a012102d7f6ef95788231d1131282b62ee6e23d7663df32756dc18a03fbdb075c04cdd3ffffffff0244020100000000001976a914b42692dbdfab42261bbcc7d32c99c5beb808684f88ac594ab301000000001976a914d2ed184a1c73669e3252cbf26a1c8c3c29b885e188ac00000000", "vin": [{"sequence": 4294967295, "scriptSig": {"hex": "483045022100e189ced6ab24696cf3d74f00b42ab7c19bdc97e00c07f65d12f8e747538a9f6502204c353be8a018f969083b10fbb2502327be008e7f2003ccc286b862cc284afa6a012102d7f6ef95788231d1131282b62ee6e23d7663df32756dc18a03fbdb075c04cdd3", "asm": "3045022100e189ced6ab24696cf3d74f00b42ab7c19bdc97e00c07f65d12f8e747538a9f6502204c353be8a018f969083b10fbb2502327be008e7f2003ccc286b862cc284afa6a[ALL] 02d7f6ef95788231d1131282b62ee6e23d7663df32756dc18a03fbdb075c04cdd3"}, "vout": 1, "txid": "fd1c06704770094848a996a99182faf8a815192b83bea35d36085492fb4001fc"}], "txid": "5e2ca4047b7649ad63a395f0dfd5c350b3c537f4b1d0d357b14965b31c199b7d", "blocktime": 1537870268, "version": 2, "confirmations": 11516, "time": 1537870268, "locktime": 0, "vsize": 226, "size": 226}