{"hash": "5e348598e08449936c17355eb9b7d6a891bb0e29861d42747742aebe6a5dffcf", "blockhash": "0000000000000000001e0dab787dd257d1dbfcb92a98c2207d5e1078be1f4165", "vout": [{"scriptPubKey": {"reqSigs": 1, "hex": "a91493aa97704bf5612615434dc5536917156d1c98eb87", "addresses": ["3F9ocemeVE7joggmm8W7XsgvMvM6wT8c6R"], "asm": "OP_HASH160 93aa97704bf5612615434dc5536917156d1c98eb OP_EQUAL", "type": "scripthash"}, "value": 0.00092496, "n": 0}, {"scriptPubKey": {"reqSigs": 1, "hex": "76a91454f3e44b3a9a3c25c3780236d3e2a0b130c87d7488ac", "addresses": ["18kBw1ejmnyQUfCMuMbHi9jUtuvZhtqfyJ"], "asm": "OP_DUP OP_HASH160 54f3e44b3a9a3c25c3780236d3e2a0b130c87d74 OP_EQUALVERIFY OP_CHECKSIG", "type": "pubkeyhash"}, "value": 0.00419733, "n": 1}], "hex": "0100000001e80327919477fcf899b683ab7c2e3506a33b179c801763edb0fb3c258fdcfce4000000006a47304402203a1d8ba49a2ebf1d38e199cdc74efcd234fb3bb86b931d0e5af279dadc7b2836022012ef6546786db19098f76d40e177ff64c88a7f74c53784b13b2b2192903a43400121024fbf3fdcba8562f6735e390e170f081e7296769552fad97e3aa42c31e8b9d682ffffffff02506901000000000017a91493aa97704bf5612615434dc5536917156d1c98eb8795670600000000001976a91454f3e44b3a9a3c25c3780236d3e2a0b130c87d7488ac00000000", "vin": [{"sequence": 4294967295, "scriptSig": {"hex": "47304402203a1d8ba49a2ebf1d38e199cdc74efcd234fb3bb86b931d0e5af279dadc7b2836022012ef6546786db19098f76d40e177ff64c88a7f74c53784b13b2b2192903a43400121024fbf3fdcba8562f6735e390e170f081e7296769552fad97e3aa42c31e8b9d682", "asm": "304402203a1d8ba49a2ebf1d38e199cdc74efcd234fb3bb86b931d0e5af279dadc7b2836022012ef6546786db19098f76d40e177ff64c88a7f74c53784b13b2b2192903a4340[ALL] 024fbf3fdcba8562f6735e390e170f081e7296769552fad97e3aa42c31e8b9d682"}, "vout": 0, "txid": "e4fcdc8f253cfbb0ed6317809c173ba306352e7cab83b699f8fc7794912703e8"}], "txid": "5e348598e08449936c17355eb9b7d6a891bb0e29861d42747742aebe6a5dffcf", "blocktime": 1537872475, "version": 1, "confirmations": 11487, "time": 1537872475, "locktime": 0, "vsize": 223, "size": 223}