{"hash": "5e354cfeb5f1665d93ba55598fd5496db90386d6288e8d39bbef000c0531b048", "blockhash": "00000000000000000018f53835495a110e01622372bf6ae95dc86f2b0ab887b0", "vout": [{"scriptPubKey": {"reqSigs": 1, "hex": "76a91401082b0641cf9798db12ef7b480ce040965430c388ac", "addresses": ["16TTihKYiooNK2z4xnJMT5PnK5G7oMFbb"], "asm": "OP_DUP OP_HASH160 01082b0641cf9798db12ef7b480ce040965430c3 OP_EQUALVERIFY OP_CHECKSIG", "type": "pubkeyhash"}, "value": 0.01416844, "n": 0}, {"scriptPubKey": {"type": "nulldata", "hex": "6a4c50000077810001ff1c0bec365306f189a5c1f2bcbefa6b8351586b4e86aeaeacb577c031fca0890c5975127e9f5c77f48d6206b15c5baa0ad906143fe9098cd302bc9a9526289ac0f6612cd74e33776ee4", "asm": "OP_RETURN 000077810001ff1c0bec365306f189a5c1f2bcbefa6b8351586b4e86aeaeacb577c031fca0890c5975127e9f5c77f48d6206b15c5baa0ad906143fe9098cd302bc9a9526289ac0f6612cd74e33776ee4"}, "value": 0.0, "n": 1}], "hex": "01000000014803f94eef5d02e14950b05a08a99a9c48f5229b504b386633d62a8c7bb7047f010000006a473044022079b97ac2b4ac7fb7068972951a3af3dc6406b1f5ac96ed03c2ade333d02203a90220368478d776c143d25f39de2df23cc10faafafd5794b282c82bc3da1d3dd283de01210230e6328c937369148cc22c9b7b9418fa4e22ab7b94a95fecde3cceee157eb4d0ffffffff028c9e1500000000001976a91401082b0641cf9798db12ef7b480ce040965430c388ac0000000000000000536a4c50000077810001ff1c0bec365306f189a5c1f2bcbefa6b8351586b4e86aeaeacb577c031fca0890c5975127e9f5c77f48d6206b15c5baa0ad906143fe9098cd302bc9a9526289ac0f6612cd74e33776ee400000000", "vin": [{"sequence": 4294967295, "scriptSig": {"hex": "473044022079b97ac2b4ac7fb7068972951a3af3dc6406b1f5ac96ed03c2ade333d02203a90220368478d776c143d25f39de2df23cc10faafafd5794b282c82bc3da1d3dd283de01210230e6328c937369148cc22c9b7b9418fa4e22ab7b94a95fecde3cceee157eb4d0", "asm": "3044022079b97ac2b4ac7fb7068972951a3af3dc6406b1f5ac96ed03c2ade333d02203a90220368478d776c143d25f39de2df23cc10faafafd5794b282c82bc3da1d3dd283de[ALL] 0230e6328c937369148cc22c9b7b9418fa4e22ab7b94a95fecde3cceee157eb4d0"}, "vout": 1, "txid": "7f04b77b8c2ad63366384b509b22f5489c9aa9085ab05049e1025def4ef90348"}], "txid": "5e354cfeb5f1665d93ba55598fd5496db90386d6288e8d39bbef000c0531b048", "blocktime": 1537870928, "version": 1, "confirmations": 11512, "time": 1537870928, "locktime": 0, "vsize": 283, "size": 283}