{"hash": "5e3687322413e7e0e88ed44889964bf4d1d4bbf8951b3d65c00f63825522d446", "blockhash": "00000000000000000018f53835495a110e01622372bf6ae95dc86f2b0ab887b0", "vout": [{"scriptPubKey": {"reqSigs": 1, "hex": "76a9143d85426bb40acf4fc39b237f2f525dfefb7fbe5988ac", "addresses": ["16cHrjPzwcukXp13MQnCSRQmdsy5ukvAtY"], "asm": "OP_DUP OP_HASH160 3d85426bb40acf4fc39b237f2f525dfefb7fbe59 OP_EQUALVERIFY OP_CHECKSIG", "type": "pubkeyhash"}, "value": 0.006, "n": 0}, {"scriptPubKey": {"reqSigs": 1, "hex": "76a9146586ced214191eaee684bf8787713d2671eff5aa88ac", "addresses": ["1AFpjzWNNtmMamjbbSSNLiVdktzrYMspCQ"], "asm": "OP_DUP OP_HASH160 6586ced214191eaee684bf8787713d2671eff5aa OP_EQUALVERIFY OP_CHECKSIG", "type": "pubkeyhash"}, "value": 0.3419421, "n": 1}], "hex": "0200000001a7ee9532f5b64318b8387aeef706da61287d1cff90196cc60906ad806c5919de010000006b48304502210095575ec95d469ad469e75ae3bc7c5d6f32b634336a3c9c5d515a3129f069bb42022060ed4828bfc0f007d49ecfef21030ab9fb3df3eb23c10481e855ac9efd06780601210210dac65f236a05432a1dbd2f909aa1c6e1870304203e734e8d07db9b57443d46ffffffff02c0270900000000001976a9143d85426bb40acf4fc39b237f2f525dfefb7fbe5988ac22c30902000000001976a9146586ced214191eaee684bf8787713d2671eff5aa88ac00000000", "vin": [{"sequence": 4294967295, "scriptSig": {"hex": "48304502210095575ec95d469ad469e75ae3bc7c5d6f32b634336a3c9c5d515a3129f069bb42022060ed4828bfc0f007d49ecfef21030ab9fb3df3eb23c10481e855ac9efd06780601210210dac65f236a05432a1dbd2f909aa1c6e1870304203e734e8d07db9b57443d46", "asm": "304502210095575ec95d469ad469e75ae3bc7c5d6f32b634336a3c9c5d515a3129f069bb42022060ed4828bfc0f007d49ecfef21030ab9fb3df3eb23c10481e855ac9efd067806[ALL] 0210dac65f236a05432a1dbd2f909aa1c6e1870304203e734e8d07db9b57443d46"}, "vout": 1, "txid": "de19596c80ad0609c66c1990ff1c7d2861da06f7ee7a38b81843b6f53295eea7"}], "txid": "5e3687322413e7e0e88ed44889964bf4d1d4bbf8951b3d65c00f63825522d446", "blocktime": 1537870928, "version": 2, "confirmations": 11512, "time": 1537870928, "locktime": 0, "vsize": 226, "size": 226}