{"hash": "d76a2e84e3b26bf9799e0ef9710418d783e296d98774561a12e11f736b65a732", "blockhash": "0000000000000000001f76057863aec43deb6fa401d9628bb513d65a8098bfab", "vout": [{"scriptPubKey": {"reqSigs": 1, "hex": "a914e174755098eea0fc6c6cb7c3c3031109a47cdec887", "addresses": ["3NF7UNGJNLxrWovrdRsmshRz9K3TyYeVAk"], "asm": "OP_HASH160 e174755098eea0fc6c6cb7c3c3031109a47cdec8 OP_EQUAL", "type": "scripthash"}, "value": 0.003524, "n": 0}, {"scriptPubKey": {"reqSigs": 1, "hex": "a9145aa2c7f593fd9078aa413baa688fe1df0d32bf7487", "addresses": ["39xFk36dkFapjWyKFXegexjVxXambphgfc"], "asm": "OP_HASH160 5aa2c7f593fd9078aa413baa688fe1df0d32bf74 OP_EQUAL", "type": "scripthash"}, "value": 0.01155341, "n": 1}], "hex": "0100000000010252eb1e8856ac5cfc6d758850ea18b276fbc4900a593a57b289de32aaac0f2a540000000023220020d5961ff0a8a6f84d84df0da9842cd57cc827b1930e3c5c4e2f34d493910b6369ffffffffda208f48642041616ada31f7fd1c76ffdf4cd6add5c77b953dde53513325b3730000000023220020657d394cca67929af6ae6e784b793f8f1eedd8e0aee5f6634dedb1de3769a57effffffff02906005000000000017a914e174755098eea0fc6c6cb7c3c3031109a47cdec8870da111000000000017a9145aa2c7f593fd9078aa413baa688fe1df0d32bf74870400483045022100c0469ac236836f4033c496162112802c752f428343cc8ccb54d9ed0e3fbec09702204f42aa72e093ccde94df525a645ba480200ded5ba4d812e5c03d4515a3c3110501473044022051f13232ba4303d8d55b78e8ed41ea35ffa4a14cede72caf0c18692ff6386f63022047d0fd86e9f8489ab774b9eb628109b485b33fde412907e328593cad82fa20280169522103cc1b80eae78e4480b84cb26322413fce31a0d7dc88d9fc707a44fa7b7e5acf8b21029aa1845b24b75983f138d40cb395d7fbfbf43cfc387b6af00d0b57dd6203183321029af23ac6cb34127a2d65390736b73db0b701eb9faaf4f17bfd91818424caa1d953ae040047304402203e1295c0ac06908ceadd111e21cfda6eed6ce829d5069d3fc10fcce75e71488402206da3307c4b6bfc9f366b14c845c69d8e100e458632a6dcb816af3b2596cbdb7f014730440220157763d5218f69576b741be492f47689be04d8f9fd0211289472d3e7f72a7fc30220579cb96d621ae0035bb0da51a0cec1acfb21865f71dcf7ce50e6455302432cc401695221028a59d24e50d25893617819f8f0a31d2c0c3407c129c06efffe0c2e3363b3c5f32102a6942c90d5950f1238c84e412007457aa6d850fccc78a358ce36e16286aa05c221028e550cf15289564897e380848d1768d73890645f66551cc9985f83303cc54d9153ae15490800", "vin": [{"txinwitness": ["", "3045022100c0469ac236836f4033c496162112802c752f428343cc8ccb54d9ed0e3fbec09702204f42aa72e093ccde94df525a645ba480200ded5ba4d812e5c03d4515a3c3110501", "3044022051f13232ba4303d8d55b78e8ed41ea35ffa4a14cede72caf0c18692ff6386f63022047d0fd86e9f8489ab774b9eb628109b485b33fde412907e328593cad82fa202801", "522103cc1b80eae78e4480b84cb26322413fce31a0d7dc88d9fc707a44fa7b7e5acf8b21029aa1845b24b75983f138d40cb395d7fbfbf43cfc387b6af00d0b57dd6203183321029af23ac6cb34127a2d65390736b73db0b701eb9faaf4f17bfd91818424caa1d953ae"], "sequence": 4294967295, "scriptSig": {"hex": "220020d5961ff0a8a6f84d84df0da9842cd57cc827b1930e3c5c4e2f34d493910b6369", "asm": "0020d5961ff0a8a6f84d84df0da9842cd57cc827b1930e3c5c4e2f34d493910b6369"}, "vout": 0, "txid": "542a0facaa32de89b2573a590a90c4fb76b218ea5088756dfc5cac56881eeb52"}, {"txinwitness": ["", "304402203e1295c0ac06908ceadd111e21cfda6eed6ce829d5069d3fc10fcce75e71488402206da3307c4b6bfc9f366b14c845c69d8e100e458632a6dcb816af3b2596cbdb7f01", "30440220157763d5218f69576b741be492f47689be04d8f9fd0211289472d3e7f72a7fc30220579cb96d621ae0035bb0da51a0cec1acfb21865f71dcf7ce50e6455302432cc401", "5221028a59d24e50d25893617819f8f0a31d2c0c3407c129c06efffe0c2e3363b3c5f32102a6942c90d5950f1238c84e412007457aa6d850fccc78a358ce36e16286aa05c221028e550cf15289564897e380848d1768d73890645f66551cc9985f83303cc54d9153ae"], "sequence": 4294967295, "scriptSig": {"hex": "220020657d394cca67929af6ae6e784b793f8f1eedd8e0aee5f6634dedb1de3769a57e", "asm": "0020657d394cca67929af6ae6e784b793f8f1eedd8e0aee5f6634dedb1de3769a57e"}, "vout": 0, "txid": "73b325335153de3d957bc7d5add64cdfff761cfdf731da6a61412064488f20da"}], "txid": "5e398426f557100882dfcfb970d6f825728ef1e511753b82235d1a23803733ef", "blocktime": 1537873891, "version": 1, "confirmations": 11475, "time": 1537873891, "locktime": 542997, "vsize": 353, "size": 733}