{"hash": "5e45a82de3036a607bc275f8e9ede5d8a8e8cd2b6cb9e50c8e98cfc5831bd504", "blockhash": "0000000000000000001cda96e906b7601b7a6fb1a3b62bca570a9e5d8f4b3de1", "vout": [{"scriptPubKey": {"reqSigs": 1, "hex": "76a91487060e7443ed28c02da3f7df88a695a9885924ec88ac", "addresses": ["1DJwUi2oooCAeuRxwT1ESGfGC8Tkmr8fAe"], "asm": "OP_DUP OP_HASH160 87060e7443ed28c02da3f7df88a695a9885924ec OP_EQUALVERIFY OP_CHECKSIG", "type": "pubkeyhash"}, "value": 0.01187129, "n": 0}, {"scriptPubKey": {"reqSigs": 1, "hex": "76a91424ca23df0625f506100ef31d7857caa82af0f6d288ac", "addresses": ["14MXUrAwpzrav7x4q4e9bF6DHYEGV1PnUo"], "asm": "OP_DUP OP_HASH160 24ca23df0625f506100ef31d7857caa82af0f6d2 OP_EQUALVERIFY OP_CHECKSIG", "type": "pubkeyhash"}, "value": 0.07026261, "n": 1}], "hex": "0100000001cee4553235bf7173171fb9d3c3844a93a5468b8eeb1d1dd9412d27892b21bc7c010000006a4730440220688e0b57339c8efd9fecf65169a2b43b82b911ed43425a51fdaa8766b6381cf8022038c373a5d162144cb25e84505ed0a6ed5381d9b2e13c5ebdf0b30200c783de1f01210298875353fd113b687f83e590a363bdcc22b265bfd82b0e565eba29830646351fffffffff02391d1200000000001976a91487060e7443ed28c02da3f7df88a695a9885924ec88ac55366b00000000001976a91424ca23df0625f506100ef31d7857caa82af0f6d288ac00000000", "vin": [{"sequence": 4294967295, "scriptSig": {"hex": "4730440220688e0b57339c8efd9fecf65169a2b43b82b911ed43425a51fdaa8766b6381cf8022038c373a5d162144cb25e84505ed0a6ed5381d9b2e13c5ebdf0b30200c783de1f01210298875353fd113b687f83e590a363bdcc22b265bfd82b0e565eba29830646351f", "asm": "30440220688e0b57339c8efd9fecf65169a2b43b82b911ed43425a51fdaa8766b6381cf8022038c373a5d162144cb25e84505ed0a6ed5381d9b2e13c5ebdf0b30200c783de1f[ALL] 0298875353fd113b687f83e590a363bdcc22b265bfd82b0e565eba29830646351f"}, "vout": 1, "txid": "7cbc212b89272d41d91d1deb8e8b46a5934a84c3d3b91f177371bf353255e4ce"}], "txid": "5e45a82de3036a607bc275f8e9ede5d8a8e8cd2b6cb9e50c8e98cfc5831bd504", "blocktime": 1537873282, "version": 1, "confirmations": 11484, "time": 1537873282, "locktime": 0, "vsize": 225, "size": 225}