{"hash": "5e463d348baf84413ce5c072e69e141ee35e4266e636dd791ab53d9138064897", "blockhash": "00000000000000000024a2167bbff67b0be802c0b01cdd79e6331c2be6459f87", "vout": [{"scriptPubKey": {"reqSigs": 1, "hex": "76a914e66f222007fd84629bccce209eacb25b6a5bf13188ac", "addresses": ["1N1RYoHwJGzuX1xVC1BFvQvdgYu9W56dzq"], "asm": "OP_DUP OP_HASH160 e66f222007fd84629bccce209eacb25b6a5bf131 OP_EQUALVERIFY OP_CHECKSIG", "type": "pubkeyhash"}, "value": 0.0008047, "n": 0}, {"scriptPubKey": {"reqSigs": 1, "hex": "a914dc1d1a7a5c68610a841c662496c91b5e45ab723f87", "addresses": ["3MksStU6zW2JeVcykkxtMSfnjktbgzGimT"], "asm": "OP_HASH160 dc1d1a7a5c68610a841c662496c91b5e45ab723f OP_EQUAL", "type": "scripthash"}, "value": 0.048, "n": 1}], "hex": "0100000001d2d780604210f190daa080c36fe237f37f1be3089aa5f8b4ce5ae633d9098a701c0000006a47304402202c69bf79488685bad1c6ce1b282fef331ac2562a3c39818a6456525c3a4a423e022073a03c7cd15e71b868c923ccb7e44701ec410ae069f64dd1241f2729ead23d12012102afce4bb89be6112f6289ca60f0b2ada5796a0e53fb8a164bed74945f2d890a3dfdffffff02563a0100000000001976a914e66f222007fd84629bccce209eacb25b6a5bf13188ac003e49000000000017a914dc1d1a7a5c68610a841c662496c91b5e45ab723f870d490800", "vin": [{"sequence": 4294967293, "scriptSig": {"hex": "47304402202c69bf79488685bad1c6ce1b282fef331ac2562a3c39818a6456525c3a4a423e022073a03c7cd15e71b868c923ccb7e44701ec410ae069f64dd1241f2729ead23d12012102afce4bb89be6112f6289ca60f0b2ada5796a0e53fb8a164bed74945f2d890a3d", "asm": "304402202c69bf79488685bad1c6ce1b282fef331ac2562a3c39818a6456525c3a4a423e022073a03c7cd15e71b868c923ccb7e44701ec410ae069f64dd1241f2729ead23d12[ALL] 02afce4bb89be6112f6289ca60f0b2ada5796a0e53fb8a164bed74945f2d890a3d"}, "vout": 28, "txid": "708a09d933e65aceb4f8a59a08e31b7ff337e26fc380a0da90f110426080d7d2"}], "txid": "5e463d348baf84413ce5c072e69e141ee35e4266e636dd791ab53d9138064897", "blocktime": 1537870564, "version": 1, "confirmations": 11515, "time": 1537870564, "locktime": 542989, "vsize": 223, "size": 223}