{"hash": "5f415e8a552498d6a368a9e6590ea7af2d2094463d7e87c3fb4cda3d7d660034", "blockhash": "00000000000000000018f53835495a110e01622372bf6ae95dc86f2b0ab887b0", "vout": [{"scriptPubKey": {"reqSigs": 1, "hex": "76a914186ae3810bb5661c1f08a1e7a26535ec0f74bd2a88ac", "addresses": ["13E7GMtaciKS2KtxRruEypUSgTyenX4M8R"], "asm": "OP_DUP OP_HASH160 186ae3810bb5661c1f08a1e7a26535ec0f74bd2a OP_EQUALVERIFY OP_CHECKSIG", "type": "pubkeyhash"}, "value": 0.00154986, "n": 0}, {"scriptPubKey": {"reqSigs": 1, "hex": "a9143958a2315cd96307d7c052be0c9fdcaf90dbeed187", "addresses": ["36vEcr2rraJmwuPmJCcW76cMMhhG3KzAwS"], "asm": "OP_HASH160 3958a2315cd96307d7c052be0c9fdcaf90dbeed1 OP_EQUAL", "type": "scripthash"}, "value": 2.533e-05, "n": 1}], "hex": "020000000001018fb6f6b5db7eec0954bf41634b7c95692cdf03dca36ed3d88098020194cc9590190000001716001402a53292c0791fcb6902909b779dfa9295a7e036feffffff026a5d0200000000001976a914186ae3810bb5661c1f08a1e7a26535ec0f74bd2a88ace50900000000000017a9143958a2315cd96307d7c052be0c9fdcaf90dbeed1870247304402202a10b3cc2f627fc340a00544de86058940bd9b70d0b02d2a966c3052df985d34022024bbd355bd2e50fad239b40cf97687fa77f7e328ffdfb8244a3352cb7af916ed012102425b26fbd1404c6eff10ec4ef5904a7458093c6dbc4394b6c3589a8b20494df90e490800", "vin": [{"txinwitness": ["304402202a10b3cc2f627fc340a00544de86058940bd9b70d0b02d2a966c3052df985d34022024bbd355bd2e50fad239b40cf97687fa77f7e328ffdfb8244a3352cb7af916ed01", "02425b26fbd1404c6eff10ec4ef5904a7458093c6dbc4394b6c3589a8b20494df9"], "sequence": 4294967294, "scriptSig": {"hex": "16001402a53292c0791fcb6902909b779dfa9295a7e036", "asm": "001402a53292c0791fcb6902909b779dfa9295a7e036"}, "vout": 25, "txid": "9095cc9401029880d8d36ea3dc03df2c69957c4b6341bf5409ec7edbb5f6b68f"}], "txid": "5e4c84af215de9599ab44c6237149d9f49637fa748f7ada294a6140d8b41ad2a", "blocktime": 1537870928, "version": 2, "confirmations": 11514, "time": 1537870928, "locktime": 542990, "vsize": 168, "size": 249}