{"hash": "5e4f5485742e94ffdb2f385e9334d231cfc1487be1d52e15c7ccf748e8f00aa8", "blockhash": "0000000000000000001f0ddff1eddb255c1121bcd4da4f1bc9a0da00cae72433", "vout": [{"scriptPubKey": {"reqSigs": 1, "hex": "76a9142e9160932680817cbe51f359ca47af00a889c65e88ac", "addresses": ["15FEEp7Y3YkPDw1PM762UMUWGWTnnScadB"], "asm": "OP_DUP OP_HASH160 2e9160932680817cbe51f359ca47af00a889c65e OP_EQUALVERIFY OP_CHECKSIG", "type": "pubkeyhash"}, "value": 6.827e-05, "n": 0}, {"scriptPubKey": {"reqSigs": 1, "hex": "76a914f32ff9a2932850e8a15cbe151286e483bcd6ab9e88ac", "addresses": ["1PArfzB3eV62ybFbTMCruCEMDCg95eP5wp"], "asm": "OP_DUP OP_HASH160 f32ff9a2932850e8a15cbe151286e483bcd6ab9e OP_EQUALVERIFY OP_CHECKSIG", "type": "pubkeyhash"}, "value": 0.0511, "n": 1}], "hex": "0100000001438fb01342d0d98e44bfe1c580950999b6b95fa781280797e6af6bb8e9b0ab81040000006b4830450221009e4195b41b84f0078a8fc09a1a8d91d6a98609ad5fdb3cc6b86302825a795dec02201084cf6f99f56f26ce88724105f5823e2087bbf8225d049cab320eaf2103a801012102ba0b7c4f1c3b4214793e062ce5c7e0bfb6ef3b6c8d798578f45cb8408b04101affffffff02ab1a0000000000001976a9142e9160932680817cbe51f359ca47af00a889c65e88acf0f84d00000000001976a914f32ff9a2932850e8a15cbe151286e483bcd6ab9e88ac00000000", "vin": [{"sequence": 4294967295, "scriptSig": {"hex": "4830450221009e4195b41b84f0078a8fc09a1a8d91d6a98609ad5fdb3cc6b86302825a795dec02201084cf6f99f56f26ce88724105f5823e2087bbf8225d049cab320eaf2103a801012102ba0b7c4f1c3b4214793e062ce5c7e0bfb6ef3b6c8d798578f45cb8408b04101a", "asm": "30450221009e4195b41b84f0078a8fc09a1a8d91d6a98609ad5fdb3cc6b86302825a795dec02201084cf6f99f56f26ce88724105f5823e2087bbf8225d049cab320eaf2103a801[ALL] 02ba0b7c4f1c3b4214793e062ce5c7e0bfb6ef3b6c8d798578f45cb8408b04101a"}, "vout": 4, "txid": "81abb0e9b86bafe697072881a75fb9b699099580c5e1bf448ed9d04213b08f43"}], "txid": "5e4f5485742e94ffdb2f385e9334d231cfc1487be1d52e15c7ccf748e8f00aa8", "blocktime": 1537872018, "version": 1, "confirmations": 11489, "time": 1537872018, "locktime": 0, "vsize": 226, "size": 226}