{"hash": "f1eda2c0b60100977e25165db81cbb0755467110820efc0ccc227ed0cff5a642", "blockhash": "0000000000000000001f0ddff1eddb255c1121bcd4da4f1bc9a0da00cae72433", "vout": [{"scriptPubKey": {"reqSigs": 1, "hex": "a91441600cc1f5be3f554e938d217490514e1e87b59b87", "addresses": ["37egufwevUHxe5yuM9UA7EkpPtfQmvaFqt"], "asm": "OP_HASH160 41600cc1f5be3f554e938d217490514e1e87b59b OP_EQUAL", "type": "scripthash"}, "value": 0.12315782, "n": 0}, {"scriptPubKey": {"reqSigs": 1, "hex": "a9141e7ed7849c2ea80cc3107a09a1989a34641b247d87", "addresses": ["34UG9Rffv2gZfVPDzrUszaKiaLMMm9JrRA"], "asm": "OP_HASH160 1e7ed7849c2ea80cc3107a09a1989a34641b247d OP_EQUAL", "type": "scripthash"}, "value": 0.0197, "n": 1}], "hex": "01000000000101a47ed5dd22df7818a15fbe75c715d7709ba38b98fcfb5c5df448b0180c19110f01000000232200209639b6ae1198e3b9341fdc18d8d27d69aae34cad5f195cbab1fa1aaafac0e5cfffffffff0286ecbb000000000017a91441600cc1f5be3f554e938d217490514e1e87b59b87500f1e000000000017a9141e7ed7849c2ea80cc3107a09a1989a34641b247d870400483045022100e5cdb34403ae5f4fb15e4e282765dac2caadf719db31cb3c1eb87bd414e936f902203c4966fdaac307fb8b303bbf0129122b14dcbb9d4f05203795f1cab3d9342a0901473044022024c9ea4ed9b47487e8edbc9ef13e12ab35d5064f3f4a01b743a8d66040e63726022015962311f636a55c1511bf5430b9b271cec3d0dcae4070cbcc4733da28a6cc450169522102f6c8111af32461477a91aabe789b3d5c2217e477c577dd46b608ce4d389a289d210224bfade07dddb46bfbcdd00363c9476ecdcb4faab7941018a27e14e1f7b0f0a32102e03af4679ae5b7593750e51e9614f34e7f131b2785eefbc025f5306aed080c9f53ae00000000", "vin": [{"txinwitness": ["", "3045022100e5cdb34403ae5f4fb15e4e282765dac2caadf719db31cb3c1eb87bd414e936f902203c4966fdaac307fb8b303bbf0129122b14dcbb9d4f05203795f1cab3d9342a0901", "3044022024c9ea4ed9b47487e8edbc9ef13e12ab35d5064f3f4a01b743a8d66040e63726022015962311f636a55c1511bf5430b9b271cec3d0dcae4070cbcc4733da28a6cc4501", "522102f6c8111af32461477a91aabe789b3d5c2217e477c577dd46b608ce4d389a289d210224bfade07dddb46bfbcdd00363c9476ecdcb4faab7941018a27e14e1f7b0f0a32102e03af4679ae5b7593750e51e9614f34e7f131b2785eefbc025f5306aed080c9f53ae"], "sequence": 4294967295, "scriptSig": {"hex": "2200209639b6ae1198e3b9341fdc18d8d27d69aae34cad5f195cbab1fa1aaafac0e5cf", "asm": "00209639b6ae1198e3b9341fdc18d8d27d69aae34cad5f195cbab1fa1aaafac0e5cf"}, "vout": 1, "txid": "0f11190c18b048f45d5cfbfc988ba39b70d715c775be5fa11878df22ddd57ea4"}], "txid": "5e51bbfccf4999ccbcf8c7ac202e39d33f2c225e60fbc56ec17ca8ae3b1811e0", "blocktime": 1537872018, "version": 1, "confirmations": 11489, "time": 1537872018, "locktime": 0, "vsize": 214, "size": 405}