{"hash": "5e5749f27c5900cbc5d00dac3b44e576805968a4746c6b97b1f6289595fe6cc9", "blockhash": "0000000000000000000e13cef7c366c0283d82e591d1acd082e914b08063cdf1", "vout": [{"scriptPubKey": {"reqSigs": 1, "hex": "76a9146514912da9f8fb3dd63c8a63d63e34e6ff6af0c988ac", "addresses": ["1ADTtQL9UfFhpyQL6sLnHXWEUNT2MR9f7X"], "asm": "OP_DUP OP_HASH160 6514912da9f8fb3dd63c8a63d63e34e6ff6af0c9 OP_EQUALVERIFY OP_CHECKSIG", "type": "pubkeyhash"}, "value": 1.282e-05, "n": 0}, {"scriptPubKey": {"reqSigs": 1, "hex": "a914ceb6b2a7c00549a008e40c507b960fe6ea6df3ff87", "addresses": ["3LY1z8agpQ2xyPfdoSrngdgMqvBshNHwqp"], "asm": "OP_HASH160 ceb6b2a7c00549a008e40c507b960fe6ea6df3ff OP_EQUAL", "type": "scripthash"}, "value": 2e-05, "n": 1}], "hex": "0100000001446b935a13f9216e82506c87a7cbd0e0d0b2f9dbb9528e4006e389e3de9e65d5010000006b483045022100ad372a4ab5eea176a6d963c73de58f599125640273f725f193a52a064ae7dec2022055e8e0e3884f2d9c59de633029fc248056025bc8af40e0ca3659deb0dc8fafca012103f7979d5638756666e72a811019683ffb172de212ee3fa85c7605ad61256365a4ffffffff0202050000000000001976a9146514912da9f8fb3dd63c8a63d63e34e6ff6af0c988acd00700000000000017a914ceb6b2a7c00549a008e40c507b960fe6ea6df3ff8700000000", "vin": [{"sequence": 4294967295, "scriptSig": {"hex": "483045022100ad372a4ab5eea176a6d963c73de58f599125640273f725f193a52a064ae7dec2022055e8e0e3884f2d9c59de633029fc248056025bc8af40e0ca3659deb0dc8fafca012103f7979d5638756666e72a811019683ffb172de212ee3fa85c7605ad61256365a4", "asm": "3045022100ad372a4ab5eea176a6d963c73de58f599125640273f725f193a52a064ae7dec2022055e8e0e3884f2d9c59de633029fc248056025bc8af40e0ca3659deb0dc8fafca[ALL] 03f7979d5638756666e72a811019683ffb172de212ee3fa85c7605ad61256365a4"}, "vout": 1, "txid": "d5659edee389e306408e52b9dbf9b2d0e0d0cba7876c50826e21f9135a936b44"}], "txid": "5e5749f27c5900cbc5d00dac3b44e576805968a4746c6b97b1f6289595fe6cc9", "blocktime": 1537871767, "version": 1, "confirmations": 11493, "time": 1537871767, "locktime": 0, "vsize": 224, "size": 224}