{"hash": "f7900ec683e367ad1666733314242aed0509406b1936f6ceba19c02fe2b6cac3", "blockhash": "00000000000000000024a2167bbff67b0be802c0b01cdd79e6331c2be6459f87", "vout": [{"scriptPubKey": {"reqSigs": 1, "hex": "a91402ff2c6d1bdc1cc09e714b8a67c901fb0264a06987", "addresses": ["31xrxhJtL9qJDamAcFyh2WFpCJS1x7itHU"], "asm": "OP_HASH160 02ff2c6d1bdc1cc09e714b8a67c901fb0264a069 OP_EQUAL", "type": "scripthash"}, "value": 0.00022884, "n": 0}, {"scriptPubKey": {"reqSigs": 1, "hex": "a9146ddfe17aa6939f1c9ac9c57b0af2f9ff7c36017c87", "addresses": ["3BhymxmpCDsNoRR4rKRL1bGHcxxBx4utE6"], "asm": "OP_HASH160 6ddfe17aa6939f1c9ac9c57b0af2f9ff7c36017c OP_EQUAL", "type": "scripthash"}, "value": 0.01000824, "n": 1}], "hex": "02000000000101a1abb63f780ea9a2b1bb4615d28c2a22030a28a7ffb11b9ece3d6da4c9c2dd4200000000171600140c2a6fdfd330fcf24592abfcb00a243e6817ceb4feffffff02645900000000000017a91402ff2c6d1bdc1cc09e714b8a67c901fb0264a0698778450f000000000017a9146ddfe17aa6939f1c9ac9c57b0af2f9ff7c36017c8702483045022100b36a153aa7f67cc7a365bde3aa7b168fc453fd79c32f8f4840b5206e653a1ec4022075649440a46853b7a5244bdf7381926f58282b04ee2ae7fd5d7ef60056b1601e0121023d11021ddf2adcdde64478a6a6fdf9c7351c5935a093cf8e18997eceba3639f40d490800", "vin": [{"txinwitness": ["3045022100b36a153aa7f67cc7a365bde3aa7b168fc453fd79c32f8f4840b5206e653a1ec4022075649440a46853b7a5244bdf7381926f58282b04ee2ae7fd5d7ef60056b1601e01", "023d11021ddf2adcdde64478a6a6fdf9c7351c5935a093cf8e18997eceba3639f4"], "sequence": 4294967294, "scriptSig": {"hex": "1600140c2a6fdfd330fcf24592abfcb00a243e6817ceb4", "asm": "00140c2a6fdfd330fcf24592abfcb00a243e6817ceb4"}, "vout": 0, "txid": "42ddc2c9a46d3dce9e1bb1ffa7280a03222a8cd21546bbb1a2a90e783fb6aba1"}], "txid": "5e594980f452e216750da552179437ab5abc64577da4e10cfd320bc5aaef4a8f", "blocktime": 1537870564, "version": 2, "confirmations": 11515, "time": 1537870564, "locktime": 542989, "vsize": 166, "size": 248}