{"hash": "5e5dd648b8bd0d2e2b14b0a579a95ba0c08d5e54d62a428aa69dc3f608dc5c7e", "blockhash": "0000000000000000001cda96e906b7601b7a6fb1a3b62bca570a9e5d8f4b3de1", "vout": [{"scriptPubKey": {"reqSigs": 1, "hex": "a914bddce1db77593a7ac8d67f0d488c4311d5103ffa87", "addresses": ["3JzvEy64J63pDv7KjyKsVzupMgKcwdgQU4"], "asm": "OP_HASH160 bddce1db77593a7ac8d67f0d488c4311d5103ffa OP_EQUAL", "type": "scripthash"}, "value": 5.0, "n": 0}, {"scriptPubKey": {"reqSigs": 1, "hex": "76a9148135d82bda732a8adec785a7adc2a406cd10a71a88ac", "addresses": ["1CnCfvUTFQf11QNeBEpk29rRXfNFg75R9n"], "asm": "OP_DUP OP_HASH160 8135d82bda732a8adec785a7adc2a406cd10a71a OP_EQUALVERIFY OP_CHECKSIG", "type": "pubkeyhash"}, "value": 70.96278398, "n": 1}], "hex": "0200000001f80880f2bd172dabc7a3e78318676b496bd2c81890b5d54fd98dc558c1c4a707010000006a473044022061cd3abc8c1352ca8f870427fb12f019d5eafef1c7252ea01175432684cbe4a50220310d851cddf56a25933251ffde93a7c4d175bf4c3f501c740002164c14b79d51012103e2e0302a4f4615cb2d9d638eff9a986d3a921f75482913923bb96a92b7c199ebffffffff020065cd1d0000000017a914bddce1db77593a7ac8d67f0d488c4311d5103ffa877e9df8a6010000001976a9148135d82bda732a8adec785a7adc2a406cd10a71a88ac00000000", "vin": [{"sequence": 4294967295, "scriptSig": {"hex": "473044022061cd3abc8c1352ca8f870427fb12f019d5eafef1c7252ea01175432684cbe4a50220310d851cddf56a25933251ffde93a7c4d175bf4c3f501c740002164c14b79d51012103e2e0302a4f4615cb2d9d638eff9a986d3a921f75482913923bb96a92b7c199eb", "asm": "3044022061cd3abc8c1352ca8f870427fb12f019d5eafef1c7252ea01175432684cbe4a50220310d851cddf56a25933251ffde93a7c4d175bf4c3f501c740002164c14b79d51[ALL] 03e2e0302a4f4615cb2d9d638eff9a986d3a921f75482913923bb96a92b7c199eb"}, "vout": 1, "txid": "07a7c4c158c58dd94fd5b59018c8d26b496b671883e7a3c7ab2d17bdf28008f8"}], "txid": "5e5dd648b8bd0d2e2b14b0a579a95ba0c08d5e54d62a428aa69dc3f608dc5c7e", "blocktime": 1537873282, "version": 2, "confirmations": 11481, "time": 1537873282, "locktime": 0, "vsize": 223, "size": 223}