{"hash": "a7233323e0091a5f16c592401df1ad694a4d8ecc62fcd3c3536e1a8d3b980c9f", "blockhash": "0000000000000000001cda96e906b7601b7a6fb1a3b62bca570a9e5d8f4b3de1", "vout": [{"scriptPubKey": {"reqSigs": 1, "hex": "a914b44337f216fcdcf0a5895a72e8c4169a68ef293e87", "addresses": ["3J8A5VuG2KUQmCweiwHBDfv67VqWTciCM2"], "asm": "OP_HASH160 b44337f216fcdcf0a5895a72e8c4169a68ef293e OP_EQUAL", "type": "scripthash"}, "value": 0.04018685, "n": 0}], "hex": "010000000001015e68d0c7d118935d980806e433f15b3d3191fe156c4547d6c1db8e03743402ff040000001716001410ccac56a77f6999ab5c869ec291408416ad6ce4ffffffff01fd513d000000000017a914b44337f216fcdcf0a5895a72e8c4169a68ef293e8702483045022100b618016cdc0b96bd97d6b14dd970ca1ce80ac7a5386f2236106de05d63cce26d0220625b10da950d8c7451b7eea86ebc51c59a68789ddbb406126cf9f89c39041b4f012103247a70483209eaa4004732db38739be7ce5a306493f331594a090dac06bfd9e500000000", "vin": [{"txinwitness": ["3045022100b618016cdc0b96bd97d6b14dd970ca1ce80ac7a5386f2236106de05d63cce26d0220625b10da950d8c7451b7eea86ebc51c59a68789ddbb406126cf9f89c39041b4f01", "03247a70483209eaa4004732db38739be7ce5a306493f331594a090dac06bfd9e5"], "sequence": 4294967295, "scriptSig": {"hex": "16001410ccac56a77f6999ab5c869ec291408416ad6ce4", "asm": "001410ccac56a77f6999ab5c869ec291408416ad6ce4"}, "vout": 4, "txid": "ff023474038edbc1d647456c15fe91313d5bf133e40608985d9318d1c7d0685e"}], "txid": "5e61ed570a0355f061b3d9c5b39a60fded83bd8f8a9b8fe58cc1b0c9934886bd", "blocktime": 1537873282, "version": 1, "confirmations": 11484, "time": 1537873282, "locktime": 0, "vsize": 134, "size": 216}