{"hash": "5e6631480e4523fe8132996acde0c8a330bc63c048fa5cbc55cf6b44df88dbbc", "blockhash": "0000000000000000000e13cef7c366c0283d82e591d1acd082e914b08063cdf1", "vout": [{"scriptPubKey": {"reqSigs": 1, "hex": "a914a957e46dfda76d5e7938492d5d7be30cbf683ec587", "addresses": ["3H8RQpwbTLZCWzKUSZzK42zKurt66W3bnF"], "asm": "OP_HASH160 a957e46dfda76d5e7938492d5d7be30cbf683ec5 OP_EQUAL", "type": "scripthash"}, "value": 0.000273, "n": 0}], "hex": "0100000001387e29a7b3f8d395f1e285ad0c776dfcf90a4228fd8ccff67f5e6a072405ae7a010000006a47304402206fe79fcd3f7aa6e863236b68130b611976f42809059d01d0cf631ba2bccdfc5c022021c8f07366b9ea55fdb6ff586d68eca02ae7f5536050589efb660aab5d528ee5012103a90f26f6288583cfbe4a3062f3f7ff7c3cc1fde1980f234cd78469ac6f2c9454ffffffff01a46a00000000000017a914a957e46dfda76d5e7938492d5d7be30cbf683ec58700000000", "vin": [{"sequence": 4294967295, "scriptSig": {"hex": "47304402206fe79fcd3f7aa6e863236b68130b611976f42809059d01d0cf631ba2bccdfc5c022021c8f07366b9ea55fdb6ff586d68eca02ae7f5536050589efb660aab5d528ee5012103a90f26f6288583cfbe4a3062f3f7ff7c3cc1fde1980f234cd78469ac6f2c9454", "asm": "304402206fe79fcd3f7aa6e863236b68130b611976f42809059d01d0cf631ba2bccdfc5c022021c8f07366b9ea55fdb6ff586d68eca02ae7f5536050589efb660aab5d528ee5[ALL] 03a90f26f6288583cfbe4a3062f3f7ff7c3cc1fde1980f234cd78469ac6f2c9454"}, "vout": 1, "txid": "7aae0524076a5e7ff6cf8cfd28420af9fc6d770cad85e2f195d3f8b3a7297e38"}], "txid": "5e6631480e4523fe8132996acde0c8a330bc63c048fa5cbc55cf6b44df88dbbc", "blocktime": 1537871767, "version": 1, "confirmations": 11493, "time": 1537871767, "locktime": 0, "vsize": 189, "size": 189}