{"hash": "5e6b86ae228f4e421856ce615e565942645186012a9cf18ba245eeb01f85509b", "blockhash": "0000000000000000000e13cef7c366c0283d82e591d1acd082e914b08063cdf1", "vout": [{"scriptPubKey": {"type": "nulldata", "hex": "6a4c50000077a000016cc4a30cf5adfb3104be776caf6c953dd567cf27e7e3ef3236678a625097ed41c24f633076f6d60fb134714faf375baa0e4706150276c1383d2fbc9a9526289ac0f6612cd74e33776ee4", "asm": "OP_RETURN 000077a000016cc4a30cf5adfb3104be776caf6c953dd567cf27e7e3ef3236678a625097ed41c24f633076f6d60fb134714faf375baa0e4706150276c1383d2fbc9a9526289ac0f6612cd74e33776ee4"}, "value": 0.0, "n": 0}, {"scriptPubKey": {"reqSigs": 1, "hex": "76a914688a0e85aa8a5b5c8a5c0a3f47756a3815aa526588ac", "addresses": ["1AXkfJPxHPHmuPthMobwBGfoQDgq1y6spr"], "asm": "OP_DUP OP_HASH160 688a0e85aa8a5b5c8a5c0a3f47756a3815aa5265 OP_EQUALVERIFY OP_CHECKSIG", "type": "pubkeyhash"}, "value": 0.0223496, "n": 1}], "hex": "0100000001715b4f0effbecf60e30d7b54736bd1c02e0a27ce8857c966df4118c5cf12ea7b0000000069463043021f3fa02e068e3bb6d8e28cfa97e0a8bb04d8cad1a26fc88e9123aa10d3856497022001ae48e085c78c8f5e81a9cf7ccc849d561a2b5c92e9c3c3c00f025c69fa2745012102bccdbae5271d075610c2a9ae0c232028765c5274981776e0ef3bc645158dd9f7ffffffff020000000000000000536a4c50000077a000016cc4a30cf5adfb3104be776caf6c953dd567cf27e7e3ef3236678a625097ed41c24f633076f6d60fb134714faf375baa0e4706150276c1383d2fbc9a9526289ac0f6612cd74e33776ee4501a2200000000001976a914688a0e85aa8a5b5c8a5c0a3f47756a3815aa526588ac00000000", "vin": [{"sequence": 4294967295, "scriptSig": {"hex": "463043021f3fa02e068e3bb6d8e28cfa97e0a8bb04d8cad1a26fc88e9123aa10d3856497022001ae48e085c78c8f5e81a9cf7ccc849d561a2b5c92e9c3c3c00f025c69fa2745012102bccdbae5271d075610c2a9ae0c232028765c5274981776e0ef3bc645158dd9f7", "asm": "3043021f3fa02e068e3bb6d8e28cfa97e0a8bb04d8cad1a26fc88e9123aa10d3856497022001ae48e085c78c8f5e81a9cf7ccc849d561a2b5c92e9c3c3c00f025c69fa2745[ALL] 02bccdbae5271d075610c2a9ae0c232028765c5274981776e0ef3bc645158dd9f7"}, "vout": 0, "txid": "7bea12cfc51841df66c95788ce270a2ec0d16b73547b0de360cfbeff0e4f5b71"}], "txid": "5e6b86ae228f4e421856ce615e565942645186012a9cf18ba245eeb01f85509b", "blocktime": 1537871767, "version": 1, "confirmations": 11493, "time": 1537871767, "locktime": 0, "vsize": 282, "size": 282}