{"hash": "d761f0daa64a07c08d987d5a486cd051144df49df527521ebee76ea4eb45896c", "blockhash": "0000000000000000000dcc0f55137456b1a82d3642486a52398922ac4d620174", "vout": [{"scriptPubKey": {"reqSigs": 1, "hex": "a914cf5e54fc44e621df55190e139fc28d24d28274ec87", "addresses": ["3LbUoZ2zBSBZG3difE7SqbVbVrYJagPwet"], "asm": "OP_HASH160 cf5e54fc44e621df55190e139fc28d24d28274ec OP_EQUAL", "type": "scripthash"}, "value": 0.00313445, "n": 0}, {"scriptPubKey": {"reqSigs": 1, "hex": "a91480e0e78d86944174343e2d6f74309cb83a70e33687", "addresses": ["3DSTqjh9F8veBouwshCyUgmrBTvkYMfRw2"], "asm": "OP_HASH160 80e0e78d86944174343e2d6f74309cb83a70e336 OP_EQUAL", "type": "scripthash"}, "value": 0.01347795, "n": 1}], "hex": "0100000000010293cba1fbf436ab908de1376ec50bebde6728fe7c176649c8fe4348eb17f2434d01000000232200204829bc792b076773424b89afd43861be15bb23cbdd9b55ac87a3c1459768fddeffffffff2e1b488a20d8b64c5448a70afda61b771c2552b33cf8706e619d2f13507618f7010000002322002055c3a74731887599eaceebe056401a21934076effa1df1667b01ca8eb824efaaffffffff0265c804000000000017a914cf5e54fc44e621df55190e139fc28d24d28274ec87d39014000000000017a91480e0e78d86944174343e2d6f74309cb83a70e3368704004830450221008f573cf82633ef99386e6c44df43c292847ade86437089d6f9ca481913945b5602205b27d371a91e023be3fcec20e0dd394a98e1b8fa1b8b7136372d16faae3c059f014730440220103838abc09f22e04878ca5dc3ae1412e4b75e6d5358c00baa6623d09e8124f002206ca4cd98945ea622addb644a3459f304e090822ba19afc4be068e8ab9c7df15401475221020a4d2ead920db24bbe1677231c0bec7ed6c711f68b39dd0537a6b85ecafa8ae8210292d679353fa4a760eaad69284c09d063a1fd1a15ad8c70e83dbf86f7063f8c1852ae0400483045022100e0333194ac5556c033b87a13a3acadb45481b91ca92406df84ea6861dc8e3f1802201ba50dba8a46ce58215ab4df1c35ba048f69c08cded767f2fcd552e91394d4be0147304402200ae9f42c7e9b09189f7d65df86664318c25cf004c9c26d0db98f0b61498f57ff022008d48b0ede86805e6d0adafcf82ee3f519b2628e5a0337b1e7c5a8edbc8779420147522102ef930229f2f9d9bff6d039cb98da2f91134e9696f45450aaba29489c184b2714210292d679353fa4a760eaad69284c09d063a1fd1a15ad8c70e83dbf86f7063f8c1852ae00000000", "vin": [{"txinwitness": ["", "30450221008f573cf82633ef99386e6c44df43c292847ade86437089d6f9ca481913945b5602205b27d371a91e023be3fcec20e0dd394a98e1b8fa1b8b7136372d16faae3c059f01", "30440220103838abc09f22e04878ca5dc3ae1412e4b75e6d5358c00baa6623d09e8124f002206ca4cd98945ea622addb644a3459f304e090822ba19afc4be068e8ab9c7df15401", "5221020a4d2ead920db24bbe1677231c0bec7ed6c711f68b39dd0537a6b85ecafa8ae8210292d679353fa4a760eaad69284c09d063a1fd1a15ad8c70e83dbf86f7063f8c1852ae"], "sequence": 4294967295, "scriptSig": {"hex": "2200204829bc792b076773424b89afd43861be15bb23cbdd9b55ac87a3c1459768fdde", "asm": "00204829bc792b076773424b89afd43861be15bb23cbdd9b55ac87a3c1459768fdde"}, "vout": 1, "txid": "4d43f217eb4843fec84966177cfe2867deeb0bc56e37e18d90ab36f4fba1cb93"}, {"txinwitness": ["", "3045022100e0333194ac5556c033b87a13a3acadb45481b91ca92406df84ea6861dc8e3f1802201ba50dba8a46ce58215ab4df1c35ba048f69c08cded767f2fcd552e91394d4be01", "304402200ae9f42c7e9b09189f7d65df86664318c25cf004c9c26d0db98f0b61498f57ff022008d48b0ede86805e6d0adafcf82ee3f519b2628e5a0337b1e7c5a8edbc87794201", "522102ef930229f2f9d9bff6d039cb98da2f91134e9696f45450aaba29489c184b2714210292d679353fa4a760eaad69284c09d063a1fd1a15ad8c70e83dbf86f7063f8c1852ae"], "sequence": 4294967295, "scriptSig": {"hex": "22002055c3a74731887599eaceebe056401a21934076effa1df1667b01ca8eb824efaa", "asm": "002055c3a74731887599eaceebe056401a21934076effa1df1667b01ca8eb824efaa"}, "vout": 1, "txid": "f7187650132f9d616e70f83cb352251c771ba6fd0aa748544cb6d8208a481b2e"}], "txid": "5e6b9f9d8b4aac35c9c94196b6381c33ece2784524f56de6bda3907952e7984c", "blocktime": 1537870268, "version": 1, "confirmations": 11516, "time": 1537870268, "locktime": 0, "vsize": 336, "size": 666}