{"hash": "5e72c8502a1b9dbd4a8666dcd26630870d57ef8a36bd5c28400443b57957c943", "blockhash": "0000000000000000001cda96e906b7601b7a6fb1a3b62bca570a9e5d8f4b3de1", "vout": [{"scriptPubKey": {"type": "nulldata", "hex": "6a146f6d6e69000000000000001f00000000caa7e200", "asm": "OP_RETURN 6f6d6e69000000000000001f00000000caa7e200"}, "value": 0.0, "n": 0}, {"scriptPubKey": {"reqSigs": 1, "hex": "76a914c8e7d6f91caa886f9c5591b987734e4e9900be7288ac", "addresses": ["1KKHssfYT8euLYUWsAuN8zgzPoXJdurtGM"], "asm": "OP_DUP OP_HASH160 c8e7d6f91caa886f9c5591b987734e4e9900be72 OP_EQUALVERIFY OP_CHECKSIG", "type": "pubkeyhash"}, "value": 0.29330886, "n": 1}], "hex": "01000000020657ad93c137215b4ca8fb88db81d050709c88db3a00531ea541896e114be7390200000069463043021f5af73c033abfb4a5695d90d4ebc8c956dc413fdd0d013315f4ba07ccafdaa302207c5bae4cafba8f456c37cb06bcfc7cb45fecf124871ba010342087877028a6a50121030492f36c1c32f6bf88b14fdd6cca509096a2b4766b263ccc9eff7a243a07fda9ffffffff9ec8c057e797269b8ca3389e1b3c5abb9575b3f4cd3874a5ff22ea2091ce4d93010000006b483045022100def9e361949e652fa3e5653227319188a29d4f0a15da8ad7966ed83e7cc6e99b0220158112ae901e44fc1e39c1fb45ee5364d04c713b05f95099d8a1cc4636ee307e012103add9d401adcde9cd842e66677e0fc7ae925155ca5e5b62e4ae7908bceb189be7ffffffff020000000000000000166a146f6d6e69000000000000001f00000000caa7e200c68dbf01000000001976a914c8e7d6f91caa886f9c5591b987734e4e9900be7288ac00000000", "vin": [{"sequence": 4294967295, "scriptSig": {"hex": "463043021f5af73c033abfb4a5695d90d4ebc8c956dc413fdd0d013315f4ba07ccafdaa302207c5bae4cafba8f456c37cb06bcfc7cb45fecf124871ba010342087877028a6a50121030492f36c1c32f6bf88b14fdd6cca509096a2b4766b263ccc9eff7a243a07fda9", "asm": "3043021f5af73c033abfb4a5695d90d4ebc8c956dc413fdd0d013315f4ba07ccafdaa302207c5bae4cafba8f456c37cb06bcfc7cb45fecf124871ba010342087877028a6a5[ALL] 030492f36c1c32f6bf88b14fdd6cca509096a2b4766b263ccc9eff7a243a07fda9"}, "vout": 2, "txid": "39e74b116e8941a51e53003adb889c7050d081db88fba84c5b2137c193ad5706"}, {"sequence": 4294967295, "scriptSig": {"hex": "483045022100def9e361949e652fa3e5653227319188a29d4f0a15da8ad7966ed83e7cc6e99b0220158112ae901e44fc1e39c1fb45ee5364d04c713b05f95099d8a1cc4636ee307e012103add9d401adcde9cd842e66677e0fc7ae925155ca5e5b62e4ae7908bceb189be7", "asm": "3045022100def9e361949e652fa3e5653227319188a29d4f0a15da8ad7966ed83e7cc6e99b0220158112ae901e44fc1e39c1fb45ee5364d04c713b05f95099d8a1cc4636ee307e[ALL] 03add9d401adcde9cd842e66677e0fc7ae925155ca5e5b62e4ae7908bceb189be7"}, "vout": 1, "txid": "934dce9120ea22ffa57438cdf4b37595bb5a3c1b9e38a38c9b2697e757c0c89e"}], "txid": "5e72c8502a1b9dbd4a8666dcd26630870d57ef8a36bd5c28400443b57957c943", "blocktime": 1537873282, "version": 1, "confirmations": 11481, "time": 1537873282, "locktime": 0, "vsize": 369, "size": 369}