{"hash": "5e730177e4cbae4f7a0772df1b7528c222b1b54fa4679a455bb58c9e0e2ae332", "blockhash": "00000000000000000017f5eb5941039fbcee6240d03bc1f2f8e35350df66a1d8", "vout": [{"scriptPubKey": {"reqSigs": 1, "hex": "76a914836a533195a32ff8916473c6df79249608946fd288ac", "addresses": ["1CyrtigKdrffjQLfmo8fdVHXmT18Pk6Z4V"], "asm": "OP_DUP OP_HASH160 836a533195a32ff8916473c6df79249608946fd2 OP_EQUALVERIFY OP_CHECKSIG", "type": "pubkeyhash"}, "value": 0.00774946, "n": 0}, {"scriptPubKey": {"reqSigs": 1, "hex": "76a9140abddf216d1c7cc2c8bf37b41cd9c24c3129feea88ac", "addresses": ["1yoDRrs8Rv9fUkQVvZApriiJf4UfTzkUs"], "asm": "OP_DUP OP_HASH160 0abddf216d1c7cc2c8bf37b41cd9c24c3129feea OP_EQUALVERIFY OP_CHECKSIG", "type": "pubkeyhash"}, "value": 0.04282874, "n": 1}], "hex": "0100000001b9a065487741d127e23e9959d6fcb63b72b2a7102dbe0b155caff1e3c3e10130010000006a4730440220506429becb2f63ceafb9543b535d8461b2c959c8076be9d80b9cbc669f7f48a3022002914579c8f5ed56ca6e42faf93ba955a8f6b74d54f2159b2210667d614c476e012103049372d54ec164bba5364b2fe546790eea2938f13329f8d318e21508bbad0682ffffffff0222d30b00000000001976a914836a533195a32ff8916473c6df79249608946fd288acfa594100000000001976a9140abddf216d1c7cc2c8bf37b41cd9c24c3129feea88ac00000000", "vin": [{"sequence": 4294967295, "scriptSig": {"hex": "4730440220506429becb2f63ceafb9543b535d8461b2c959c8076be9d80b9cbc669f7f48a3022002914579c8f5ed56ca6e42faf93ba955a8f6b74d54f2159b2210667d614c476e012103049372d54ec164bba5364b2fe546790eea2938f13329f8d318e21508bbad0682", "asm": "30440220506429becb2f63ceafb9543b535d8461b2c959c8076be9d80b9cbc669f7f48a3022002914579c8f5ed56ca6e42faf93ba955a8f6b74d54f2159b2210667d614c476e[ALL] 03049372d54ec164bba5364b2fe546790eea2938f13329f8d318e21508bbad0682"}, "vout": 1, "txid": "3001e1c3e3f1af5c150bbe2d10a7b2723bb6fcd659993ee227d141774865a0b9"}], "txid": "5e730177e4cbae4f7a0772df1b7528c222b1b54fa4679a455bb58c9e0e2ae332", "blocktime": 1537874412, "version": 1, "confirmations": 11468, "time": 1537874412, "locktime": 0, "vsize": 225, "size": 225}