{"hash": "7f1d43a01a637353ef23561fb2d084bb521fe497e997df1c9237b193fd0a09ee", "blockhash": "0000000000000000000e13cef7c366c0283d82e591d1acd082e914b08063cdf1", "vout": [{"scriptPubKey": {"reqSigs": 1, "hex": "76a91482168d873b8c9e19881b518646c27b92279713f388ac", "addresses": ["1CrqrwMLC5zh1MySGmRpSw7EH7cp5TgMrg"], "asm": "OP_DUP OP_HASH160 82168d873b8c9e19881b518646c27b92279713f3 OP_EQUALVERIFY OP_CHECKSIG", "type": "pubkeyhash"}, "value": 2.5, "n": 0}, {"scriptPubKey": {"reqSigs": 1, "hex": "a91432e8707bf2029e3a98a92a81f4cddbc4a6b2bc1e87", "addresses": ["36LCAJn3gSemDomh6eiYEPbiaBprW1h3Pi"], "asm": "OP_HASH160 32e8707bf2029e3a98a92a81f4cddbc4a6b2bc1e OP_EQUAL", "type": "scripthash"}, "value": 65.40491292, "n": 1}], "hex": "01000000000101656d8f05a48319e66f1e57c79ab894086ea533724c025d1cfe7e4c40b6bdb711010000001716001468757041cd231237b4c3bd965f1176bf6c3813b0ffffffff0280b2e60e000000001976a91482168d873b8c9e19881b518646c27b92279713f388ac1cfad7850100000017a91432e8707bf2029e3a98a92a81f4cddbc4a6b2bc1e870247304402200f7992b55ae5d1c3760d9429c358c568d3872e9beef88e054164f865d6152568022052f50ae24ec15008333b322cbe44e0228aa938511be7f640991e2f1129e8ab0f0121035446d13484d6d47b70a69a79b2ee3cc0d5f01d271103cd814cc4a90fe46ea67500000000", "vin": [{"txinwitness": ["304402200f7992b55ae5d1c3760d9429c358c568d3872e9beef88e054164f865d6152568022052f50ae24ec15008333b322cbe44e0228aa938511be7f640991e2f1129e8ab0f01", "035446d13484d6d47b70a69a79b2ee3cc0d5f01d271103cd814cc4a90fe46ea675"], "sequence": 4294967295, "scriptSig": {"hex": "16001468757041cd231237b4c3bd965f1176bf6c3813b0", "asm": "001468757041cd231237b4c3bd965f1176bf6c3813b0"}, "vout": 1, "txid": "11b7bdb6404c7efe1c5d024c7233a56e0894b89ac7571e6fe61983a4058f6d65"}], "txid": "5e75754f9cc4438cbba5e2eeb78eaec651b59f37f8415429dc988ff5a84c1f25", "blocktime": 1537871767, "version": 1, "confirmations": 11493, "time": 1537871767, "locktime": 0, "vsize": 168, "size": 249}