{"hash": "023a1d9995191ea67f368fd8cbc238802618ffcc1043e178aac54d200dee94f0", "blockhash": "0000000000000000000e13cef7c366c0283d82e591d1acd082e914b08063cdf1", "vout": [{"scriptPubKey": {"reqSigs": 1, "hex": "001489aa9b3c62bac4c92aef8b767bfbcc3771ef805f", "addresses": ["bc1q3x4fk0rzhtzvj2h03dm8h77vxac7lqzlvyjr0z"], "asm": "0 89aa9b3c62bac4c92aef8b767bfbcc3771ef805f", "type": "witness_v0_keyhash"}, "value": 0.00078067, "n": 0}, {"scriptPubKey": {"reqSigs": 1, "hex": "0020ab89084471f26ffb04f7a94f5accf89c3996ccebd575242937bcd89d5663e689", "addresses": ["bc1q4wyss3r37fhlkp8h49844n8cnsuedn8t646jg2fhhnvf64nru6ysudwhv8"], "asm": "0 ab89084471f26ffb04f7a94f5accf89c3996ccebd575242937bcd89d5663e689", "type": "witness_v0_scripthash"}, "value": 0.01866331, "n": 1}], "hex": "01000000000103d85da1c428db642629c4b2a3df2c7b72aaae3d14682a41bd597eba73838bafb10000000000ffffffffd6f8ba82a02efd17997291f3a1b446ca6da828118e3c0f956211bf53708738b90000000000ffffffff4d7e2358814a02c8a31f8dacf4640b9be57e37a83a60217e0a63f70a21ba51d80000000000ffffffff02f33001000000000016001489aa9b3c62bac4c92aef8b767bfbcc3771ef805f5b7a1c0000000000220020ab89084471f26ffb04f7a94f5accf89c3996ccebd575242937bcd89d5663e68902483045022100c968248faa972bbb8dd2fe9ab8064b240b0d78e0b8272d319cb598a565c66215022050d3027453bf8b0959b007955a5f1519d6cf33ba710caba2293168e34be2f7a70121028bc666b3639be7164d901d05464b61c14add438f7106d94522630d5f86d24bfc02473044022055bbc7b10f729d40c40c54062f75669e76d40f558096f46bcfcd7147b44e860d02200f9ec0257bc78348104d83206715cdfad34629f1fe79f13f77f846a7b9eaf8df01210214ad0007b389ed557a8e565768a20782d4f8a256a5177879483794a9c5c6d2b602483045022100c77c6d6ea6984474418015d2d3931d5328da5d97cd2f374dbe741a11c735cc640220477d505b032cdc127d6faa6e9f309dbc9868f281ab73b1b168694cc73b0838f2012103aedf5c0ccef1c5ce093c3de68da0ffb4e532cad2f6addd36b312d7967a3c6d9a00000000", "vin": [{"txinwitness": ["3045022100c968248faa972bbb8dd2fe9ab8064b240b0d78e0b8272d319cb598a565c66215022050d3027453bf8b0959b007955a5f1519d6cf33ba710caba2293168e34be2f7a701", "028bc666b3639be7164d901d05464b61c14add438f7106d94522630d5f86d24bfc"], "sequence": 4294967295, "scriptSig": {"hex": "", "asm": ""}, "vout": 0, "txid": "b1af8b8373ba7e59bd412a68143daeaa727b2cdfa3b2c4292664db28c4a15dd8"}, {"txinwitness": ["3044022055bbc7b10f729d40c40c54062f75669e76d40f558096f46bcfcd7147b44e860d02200f9ec0257bc78348104d83206715cdfad34629f1fe79f13f77f846a7b9eaf8df01", "0214ad0007b389ed557a8e565768a20782d4f8a256a5177879483794a9c5c6d2b6"], "sequence": 4294967295, "scriptSig": {"hex": "", "asm": ""}, "vout": 0, "txid": "b938877053bf1162950f3c8e1128a86dca46b4a1f391729917fd2ea082baf8d6"}, {"txinwitness": ["3045022100c77c6d6ea6984474418015d2d3931d5328da5d97cd2f374dbe741a11c735cc640220477d505b032cdc127d6faa6e9f309dbc9868f281ab73b1b168694cc73b0838f201", "03aedf5c0ccef1c5ce093c3de68da0ffb4e532cad2f6addd36b312d7967a3c6d9a"], "sequence": 4294967295, "scriptSig": {"hex": "", "asm": ""}, "vout": 0, "txid": "d851ba210af7630a7e21603aa8377ee59b0b64f4ac8d1fa3c8024a8158237e4d"}], "txid": "5e7735a11e69e0469109ec00b6a9953008b9a97f975190a3efcc4b1e38b43959", "blocktime": 1537871767, "version": 1, "confirmations": 11495, "time": 1537871767, "locktime": 0, "vsize": 289, "size": 532}