{"hash": "5e7d852e10fd6b35e4db7b97cee6f254fd6e75989f4c44583c579d911dddb044", "blockhash": "0000000000000000001f76057863aec43deb6fa401d9628bb513d65a8098bfab", "vout": [{"scriptPubKey": {"reqSigs": 1, "hex": "76a914114b6ad7c7d13fbba64ca210d558e1298cb6b99088ac", "addresses": ["12aSqMM8RUzBhRk1MjtgbGcSEKLxwMoAde"], "asm": "OP_DUP OP_HASH160 114b6ad7c7d13fbba64ca210d558e1298cb6b990 OP_EQUALVERIFY OP_CHECKSIG", "type": "pubkeyhash"}, "value": 0.00074222, "n": 0}, {"scriptPubKey": {"reqSigs": 1, "hex": "76a9146438611929060118ea682dd0559e0e906367360688ac", "addresses": ["1A8v7V7rpN5KFF94X2nFWBPBsecbUBbYpa"], "asm": "OP_DUP OP_HASH160 6438611929060118ea682dd0559e0e9063673606 OP_EQUALVERIFY OP_CHECKSIG", "type": "pubkeyhash"}, "value": 1.4065891, "n": 1}], "hex": "01000000017c4cf34c78e2b906b470d511a37a0269a968605bbfe5c46cd03b2a2c63e9c775010000006a4730440220058e22912fd051f6fc62e968624a112b3c89d89a6ffd5873cbdb56bb583cc44b02201fefeb1aec1704694fd83ef9c31a7bfb5dfb8176519f31077cb17eb56d80bc9e0121024610d836d662dded124c10c466f9be04c3ec0d4aeae25513d2fd1a49dac2196affffffff02ee210100000000001976a914114b6ad7c7d13fbba64ca210d558e1298cb6b99088acde486208000000001976a9146438611929060118ea682dd0559e0e906367360688ac00000000", "vin": [{"sequence": 4294967295, "scriptSig": {"hex": "4730440220058e22912fd051f6fc62e968624a112b3c89d89a6ffd5873cbdb56bb583cc44b02201fefeb1aec1704694fd83ef9c31a7bfb5dfb8176519f31077cb17eb56d80bc9e0121024610d836d662dded124c10c466f9be04c3ec0d4aeae25513d2fd1a49dac2196a", "asm": "30440220058e22912fd051f6fc62e968624a112b3c89d89a6ffd5873cbdb56bb583cc44b02201fefeb1aec1704694fd83ef9c31a7bfb5dfb8176519f31077cb17eb56d80bc9e[ALL] 024610d836d662dded124c10c466f9be04c3ec0d4aeae25513d2fd1a49dac2196a"}, "vout": 1, "txid": "75c7e9632c2a3bd06cc4e5bf5b6068a969027aa311d570b406b9e2784cf34c7c"}], "txid": "5e7d852e10fd6b35e4db7b97cee6f254fd6e75989f4c44583c579d911dddb044", "blocktime": 1537873891, "version": 1, "confirmations": 11478, "time": 1537873891, "locktime": 0, "vsize": 225, "size": 225}