{"hash": "5e82f5002c3ed24f92a89e898b4d32bca25c35c0db59a8d6d77ef745fb1b18e8", "blockhash": "00000000000000000024a2167bbff67b0be802c0b01cdd79e6331c2be6459f87", "vout": [{"scriptPubKey": {"reqSigs": 1, "hex": "a914211b6260eeb05fc5eb167bbf6fd6d8ddce7142ff87", "addresses": ["34i52ZuKK71ZqxPsV3fDmp6fmRPu8N2kKi"], "asm": "OP_HASH160 211b6260eeb05fc5eb167bbf6fd6d8ddce7142ff OP_EQUAL", "type": "scripthash"}, "value": 0.00344801, "n": 0}], "hex": "010000000145897893bb0a873031cf4f50e7ea77d5f6dd668bf7c1b5753d910bd1a0d79341000000006b483045022100c92f94d9392fa34a63965d898ada79a1d7916ba9210ceff982f6e49070e950670220336ac508b94d9a3a0d9e02b4c077c6f9b714ff13e364bae6a6f12af0f3c8a2240121030cf8e2279c4f3a7e38be128be24a095e1a926d217ca6daaec10776648a69acc3ffffffff01e14205000000000017a914211b6260eeb05fc5eb167bbf6fd6d8ddce7142ff8700000000", "vin": [{"sequence": 4294967295, "scriptSig": {"hex": "483045022100c92f94d9392fa34a63965d898ada79a1d7916ba9210ceff982f6e49070e950670220336ac508b94d9a3a0d9e02b4c077c6f9b714ff13e364bae6a6f12af0f3c8a2240121030cf8e2279c4f3a7e38be128be24a095e1a926d217ca6daaec10776648a69acc3", "asm": "3045022100c92f94d9392fa34a63965d898ada79a1d7916ba9210ceff982f6e49070e950670220336ac508b94d9a3a0d9e02b4c077c6f9b714ff13e364bae6a6f12af0f3c8a224[ALL] 030cf8e2279c4f3a7e38be128be24a095e1a926d217ca6daaec10776648a69acc3"}, "vout": 0, "txid": "4193d7a0d10b913d75b5c1f78b66ddf6d577eae7504fcf3130870abb93788945"}], "txid": "5e82f5002c3ed24f92a89e898b4d32bca25c35c0db59a8d6d77ef745fb1b18e8", "blocktime": 1537870564, "version": 1, "confirmations": 11515, "time": 1537870564, "locktime": 0, "vsize": 190, "size": 190}