{"hash": "5e832c97385ca49f698bfd203e396ffea4738631438ff376c16fc0c4f56332ed", "blockhash": "0000000000000000001cda96e906b7601b7a6fb1a3b62bca570a9e5d8f4b3de1", "vout": [{"scriptPubKey": {"reqSigs": 1, "hex": "a9147e596110244d3fa1d71a69e495667a102711a9e087", "addresses": ["3DD68tPNeVBgYNv87Pgp1wHRbRMrp7qfaR"], "asm": "OP_HASH160 7e596110244d3fa1d71a69e495667a102711a9e0 OP_EQUAL", "type": "scripthash"}, "value": 0.01812631, "n": 0}], "hex": "0100000001634394794a9051292b129901fac1b2efed3b8fc2e0c5e29693d9a2e4fe684b10010000006a473044022025479738c0ac914c1e2aabb744adb8b23389a7b2fb8ee44a8adbe58c3d32ca5402206b48b565a53a67556a784a55cfbb78a8427c18a4aa6e56d52bfb7a9eac39ce53012102c6c03a6f7ccb689e4e3453382a88c6b3c6b17f4907bf09f94e5f335f1018533effffffff0197a81b000000000017a9147e596110244d3fa1d71a69e495667a102711a9e08700000000", "vin": [{"sequence": 4294967295, "scriptSig": {"hex": "473044022025479738c0ac914c1e2aabb744adb8b23389a7b2fb8ee44a8adbe58c3d32ca5402206b48b565a53a67556a784a55cfbb78a8427c18a4aa6e56d52bfb7a9eac39ce53012102c6c03a6f7ccb689e4e3453382a88c6b3c6b17f4907bf09f94e5f335f1018533e", "asm": "3044022025479738c0ac914c1e2aabb744adb8b23389a7b2fb8ee44a8adbe58c3d32ca5402206b48b565a53a67556a784a55cfbb78a8427c18a4aa6e56d52bfb7a9eac39ce53[ALL] 02c6c03a6f7ccb689e4e3453382a88c6b3c6b17f4907bf09f94e5f335f1018533e"}, "vout": 1, "txid": "104b68fee4a2d99396e2c5e0c28f3bedefb2c1fa0199122b2951904a79944363"}], "txid": "5e832c97385ca49f698bfd203e396ffea4738631438ff376c16fc0c4f56332ed", "blocktime": 1537873282, "version": 1, "confirmations": 11481, "time": 1537873282, "locktime": 0, "vsize": 189, "size": 189}