{"hash": "718131b8a147968fd9bed77edbfa6dc601bb2fcb3a465d8b96e201b46cb646a6", "blockhash": "00000000000000000024a2167bbff67b0be802c0b01cdd79e6331c2be6459f87", "vout": [{"scriptPubKey": {"reqSigs": 1, "hex": "a914da24aecbb304f2cccc4bf9007137b1c32f377a1e87", "addresses": ["3MaTB8PEBGxvBkZVLaFQJeHjmqNxdmcFtv"], "asm": "OP_HASH160 da24aecbb304f2cccc4bf9007137b1c32f377a1e OP_EQUAL", "type": "scripthash"}, "value": 0.0016, "n": 0}, {"scriptPubKey": {"reqSigs": 1, "hex": "a9142bca2f7bfc5ff3a7b45b4d01c1d486657a07e72d87", "addresses": ["35gZBtMi2qBPia1TYEPxzQKQq7x4efFsbM"], "asm": "OP_HASH160 2bca2f7bfc5ff3a7b45b4d01c1d486657a07e72d OP_EQUAL", "type": "scripthash"}, "value": 0.01004259, "n": 1}], "hex": "02000000000102543e606b7041d62aff741d92160336afdc79f67dde6a8562d7a017a2ee7c87fe0000000017160014590bc894a11f2aa4d616f290771a38df4376601efeffffffb207e5a1089656a25abbd8eeed2c58c31c29b4db4fdf12c54bd688dca29ff2e601000000171600142570e97af79e5c95b113be2fb28fae44db3f8203feffffff02007102000000000017a914da24aecbb304f2cccc4bf9007137b1c32f377a1e87e3520f000000000017a9142bca2f7bfc5ff3a7b45b4d01c1d486657a07e72d87024830450221008d31c74541136ccb7b6099e45f44685c6dc9c391d191a62e8f59ccdde3881233022028babc221c95255da649df455cfc5b0656fac203cd29dd4094f3699d4847fb98012103a1924318b94505eb50ce36101f1f4e9a27ddb22dd595a4bc1619f5713e204a5e02483045022100fd09ca8fe8e766c9aa49c6e1ec9fa8fc2331349e262db47d6817103ee08426b702202e91cd061d815cf9d4f12f28ffce2d7bff3235277ecb8ff34cc7fda7be72e00c0121022acdb1f755f615e79137c9f7ec58b39f61b4acb80066562600c11007b47bb6970d490800", "vin": [{"txinwitness": ["30450221008d31c74541136ccb7b6099e45f44685c6dc9c391d191a62e8f59ccdde3881233022028babc221c95255da649df455cfc5b0656fac203cd29dd4094f3699d4847fb9801", "03a1924318b94505eb50ce36101f1f4e9a27ddb22dd595a4bc1619f5713e204a5e"], "sequence": 4294967294, "scriptSig": {"hex": "160014590bc894a11f2aa4d616f290771a38df4376601e", "asm": "0014590bc894a11f2aa4d616f290771a38df4376601e"}, "vout": 0, "txid": "fe877ceea217a0d762856ade7df679dcaf360316921d74ff2ad641706b603e54"}, {"txinwitness": ["3045022100fd09ca8fe8e766c9aa49c6e1ec9fa8fc2331349e262db47d6817103ee08426b702202e91cd061d815cf9d4f12f28ffce2d7bff3235277ecb8ff34cc7fda7be72e00c01", "022acdb1f755f615e79137c9f7ec58b39f61b4acb80066562600c11007b47bb697"], "sequence": 4294967294, "scriptSig": {"hex": "1600142570e97af79e5c95b113be2fb28fae44db3f8203", "asm": "00142570e97af79e5c95b113be2fb28fae44db3f8203"}, "vout": 1, "txid": "e6f29fa2dc88d64bc512df4fdbb4291cc3582cedeed8bb5aa2569608a1e507b2"}], "txid": "5e8434f6d9c6e03fe97910c6ff2121bd13d842623f7a06cb3bde642a7298e553", "blocktime": 1537870564, "version": 2, "confirmations": 11515, "time": 1537870564, "locktime": 542989, "vsize": 257, "size": 420}