{"hash": "5e8fbb9b2b0349773c382e52cc1386abc23b1419c400a309af4a586242d303e8", "blockhash": "0000000000000000000e13cef7c366c0283d82e591d1acd082e914b08063cdf1", "vout": [{"scriptPubKey": {"reqSigs": 1, "hex": "76a91470807d1569331435eefe7eb79a1341759e0e301788ac", "addresses": ["1BFrc2juzDxPWXfhw3oe4uVUbWAzL2XkvC"], "asm": "OP_DUP OP_HASH160 70807d1569331435eefe7eb79a1341759e0e3017 OP_EQUALVERIFY OP_CHECKSIG", "type": "pubkeyhash"}, "value": 0.02910245, "n": 0}], "hex": "010000000314ccdf940238cbafaa0bf0528803128d86eb2bcbcb4c6d320ea7dbd7b962c952270000006a473044022068cde90b2921eefdabbb73091ef53266c88858decc0a1847a59c4d2eaceb6175022032157a5caa5eaba18121cb61e6d5424ebe94a91d28cb64db3d62efe8d0b852940121023128b43b5b2464826d44f336d84fc59e0169bcc715930be2261531180d9a3488ffffffff8a4a05fc63db81cb43d1676d5644ffdfb69c5a2e0f02f3f97da700873090316d010000006b4830450221008afc9a4f4234bb0f9663b0080dbaa03bed4fd68a93d66894b3755081767fb089022028e7fbddc2c555c1d540c1eee2c10dde442c0a256bee9e99e0ccd20b084d6397012102cf0f10b2c5159538b0e2fcc8dd08ddb035d9d7671114039f17433449dd42c9a8ffffffffd3ae674b12781fa4fdfc4e862c5f2460747f74f88ec782f5fc79f896bfbdc920010000006b483045022100f6683fd372f1704a0faf60c5aba2ddc07dd2dba6ef2163c76f9987b58932baa7022014852a13ff0cf38ae923e2264c5b2064890823a8750df403d2b6e011bca31ef40121026f0cac514fbc710664379c868babc815a5707b8256a9963bd58e431df2ef1866ffffffff0125682c00000000001976a91470807d1569331435eefe7eb79a1341759e0e301788ac00000000", "vin": [{"sequence": 4294967295, "scriptSig": {"hex": "473044022068cde90b2921eefdabbb73091ef53266c88858decc0a1847a59c4d2eaceb6175022032157a5caa5eaba18121cb61e6d5424ebe94a91d28cb64db3d62efe8d0b852940121023128b43b5b2464826d44f336d84fc59e0169bcc715930be2261531180d9a3488", "asm": "3044022068cde90b2921eefdabbb73091ef53266c88858decc0a1847a59c4d2eaceb6175022032157a5caa5eaba18121cb61e6d5424ebe94a91d28cb64db3d62efe8d0b85294[ALL] 023128b43b5b2464826d44f336d84fc59e0169bcc715930be2261531180d9a3488"}, "vout": 39, "txid": "52c962b9d7dba70e326d4ccbcb2beb868d12038852f00baaafcb380294dfcc14"}, {"sequence": 4294967295, "scriptSig": {"hex": "4830450221008afc9a4f4234bb0f9663b0080dbaa03bed4fd68a93d66894b3755081767fb089022028e7fbddc2c555c1d540c1eee2c10dde442c0a256bee9e99e0ccd20b084d6397012102cf0f10b2c5159538b0e2fcc8dd08ddb035d9d7671114039f17433449dd42c9a8", "asm": "30450221008afc9a4f4234bb0f9663b0080dbaa03bed4fd68a93d66894b3755081767fb089022028e7fbddc2c555c1d540c1eee2c10dde442c0a256bee9e99e0ccd20b084d6397[ALL] 02cf0f10b2c5159538b0e2fcc8dd08ddb035d9d7671114039f17433449dd42c9a8"}, "vout": 1, "txid": "6d3190308700a77df9f3020f2e5a9cb6dfff44566d67d143cb81db63fc054a8a"}, {"sequence": 4294967295, "scriptSig": {"hex": "483045022100f6683fd372f1704a0faf60c5aba2ddc07dd2dba6ef2163c76f9987b58932baa7022014852a13ff0cf38ae923e2264c5b2064890823a8750df403d2b6e011bca31ef40121026f0cac514fbc710664379c868babc815a5707b8256a9963bd58e431df2ef1866", "asm": "3045022100f6683fd372f1704a0faf60c5aba2ddc07dd2dba6ef2163c76f9987b58932baa7022014852a13ff0cf38ae923e2264c5b2064890823a8750df403d2b6e011bca31ef4[ALL] 026f0cac514fbc710664379c868babc815a5707b8256a9963bd58e431df2ef1866"}, "vout": 1, "txid": "20c9bdbf96f879fcf582c78ef8747f7460245f2c864efcfda41f78124b67aed3"}], "txid": "5e8fbb9b2b0349773c382e52cc1386abc23b1419c400a309af4a586242d303e8", "blocktime": 1537871767, "version": 1, "confirmations": 11492, "time": 1537871767, "locktime": 0, "vsize": 487, "size": 487}