{"hash": "5e99f77d1fbfc44d0aadda48e4d83fb11e90526c1c457e2a22eb9239b718e63a", "blockhash": "00000000000000000017f5eb5941039fbcee6240d03bc1f2f8e35350df66a1d8", "vout": [{"scriptPubKey": {"reqSigs": 1, "hex": "76a91466ea2c5307fbcc5542120c1e68c35a1e9f69562388ac", "addresses": ["1APATCi2DJ4S9wTjV2PHuzfSULAYK76Sff"], "asm": "OP_DUP OP_HASH160 66ea2c5307fbcc5542120c1e68c35a1e9f695623 OP_EQUALVERIFY OP_CHECKSIG", "type": "pubkeyhash"}, "value": 0.0299292, "n": 0}, {"scriptPubKey": {"reqSigs": 1, "hex": "76a9144226ae20c1144b69c16ae214d5eda5e7b7a0239288ac", "addresses": ["172mwD2UpyJJrqec6VhdZf3DjZZbrBCBUH"], "asm": "OP_DUP OP_HASH160 4226ae20c1144b69c16ae214d5eda5e7b7a02392 OP_EQUALVERIFY OP_CHECKSIG", "type": "pubkeyhash"}, "value": 0.07778, "n": 1}], "hex": "01000000022b75fac862a01cd2a43b989c277fa97f30a7ae44030bc5f34abf5f67a73e7810000000006b4830450221008a7c2633a4279d2e51600a4641a0c24bb8ab22dc4306bd366c13ffa95b917757022059774ff5082d9a9f8fd16125921b237f96c88788ca2399cbff5780a8e026db0e0121032a6b53893d8627382147e2d8529537b2f9041109cdd4cd77799744d9206a75edffffffff00b247770593ea8c006e701dd88578552856382f3fa61cb0a0a572601a547920010000006b4830450221009af4282226afe8abd6ab9e60280b316423201384e15abb9620b608cf9d8de13402202819c30a1add6897a5933175073b58adde9c4f47e2b7e974638bc957dca17bd40121022d631d30cc3586f672d0bdeb8dc2623c31ad94860f20a242a09926c90dab3b3affffffff0218ab2d00000000001976a91466ea2c5307fbcc5542120c1e68c35a1e9f69562388acd0ae7600000000001976a9144226ae20c1144b69c16ae214d5eda5e7b7a0239288ac00000000", "vin": [{"sequence": 4294967295, "scriptSig": {"hex": "4830450221008a7c2633a4279d2e51600a4641a0c24bb8ab22dc4306bd366c13ffa95b917757022059774ff5082d9a9f8fd16125921b237f96c88788ca2399cbff5780a8e026db0e0121032a6b53893d8627382147e2d8529537b2f9041109cdd4cd77799744d9206a75ed", "asm": "30450221008a7c2633a4279d2e51600a4641a0c24bb8ab22dc4306bd366c13ffa95b917757022059774ff5082d9a9f8fd16125921b237f96c88788ca2399cbff5780a8e026db0e[ALL] 032a6b53893d8627382147e2d8529537b2f9041109cdd4cd77799744d9206a75ed"}, "vout": 0, "txid": "10783ea7675fbf4af3c50b0344aea7307fa97f279c983ba4d21ca062c8fa752b"}, {"sequence": 4294967295, "scriptSig": {"hex": "4830450221009af4282226afe8abd6ab9e60280b316423201384e15abb9620b608cf9d8de13402202819c30a1add6897a5933175073b58adde9c4f47e2b7e974638bc957dca17bd40121022d631d30cc3586f672d0bdeb8dc2623c31ad94860f20a242a09926c90dab3b3a", "asm": "30450221009af4282226afe8abd6ab9e60280b316423201384e15abb9620b608cf9d8de13402202819c30a1add6897a5933175073b58adde9c4f47e2b7e974638bc957dca17bd4[ALL] 022d631d30cc3586f672d0bdeb8dc2623c31ad94860f20a242a09926c90dab3b3a"}, "vout": 1, "txid": "2079541a6072a5a0b01ca63f2f385628557885d81d706e008cea93057747b200"}], "txid": "5e99f77d1fbfc44d0aadda48e4d83fb11e90526c1c457e2a22eb9239b718e63a", "blocktime": 1537874412, "version": 1, "confirmations": 11468, "time": 1537874412, "locktime": 0, "vsize": 374, "size": 374}