{"hash": "e38bccfbc65e264f6404e8dc9996cbf1f2b59a125b6e20d6639555ab085668f1", "blockhash": "0000000000000000001f76057863aec43deb6fa401d9628bb513d65a8098bfab", "vout": [{"scriptPubKey": {"reqSigs": 1, "hex": "001412f24b217128a6127ccc5a6eef1bb24d1ab6c370", "addresses": ["bc1qzteykgt39znpylxvtfhw7xajf5dtdsms8p2308"], "asm": "0 12f24b217128a6127ccc5a6eef1bb24d1ab6c370", "type": "witness_v0_keyhash"}, "value": 0.0005255, "n": 0}, {"scriptPubKey": {"reqSigs": 1, "hex": "a9140be7846be16b05bea00dbec2fcd7e045a793cb1787", "addresses": ["32mxhko5mJHfkbkDPpz7SfdJwEJi21P1WK"], "asm": "OP_HASH160 0be7846be16b05bea00dbec2fcd7e045a793cb17 OP_EQUAL", "type": "scripthash"}, "value": 0.18704612, "n": 1}], "hex": "01000000000101fc7fa44576150aba7f989ddc464c50d535603509df7f1c45cb5eb784cbd60f6001000000232200202c66ece6da72bcbfeadf83a91236f4891c13e14d8ecebdcaa81666fc1aa73a31ffffffff0246cd00000000000016001412f24b217128a6127ccc5a6eef1bb24d1ab6c370e4681d010000000017a9140be7846be16b05bea00dbec2fcd7e045a793cb178704004730440220215763ed6754df1df24dbe2a9a57d7f668cabe5f5f175c31a6f7d803c473570502203faeb117fade84af337b9c8e3c4312610dedc14c8006a44a4ba70f58631da56e014730440220275efb1fcddc2bf4342772194279ebfd970297f8a469dc1a3f731490b4cf085e02205f69550ad3bdb1034ce550204ca0bb2fe21e3e3b5fc758ba0ebf5b8e39fb15c501475221029e6fbb942d34a473faaa5557c1bfe08d72102f0b9754ad140fd369d7a3ba3cdc2103871fc2ca08e6950b38867e8e6a0e94ee625223d3aa0df5c65f414c6d784467e252ae00000000", "vin": [{"txinwitness": ["", "30440220215763ed6754df1df24dbe2a9a57d7f668cabe5f5f175c31a6f7d803c473570502203faeb117fade84af337b9c8e3c4312610dedc14c8006a44a4ba70f58631da56e01", "30440220275efb1fcddc2bf4342772194279ebfd970297f8a469dc1a3f731490b4cf085e02205f69550ad3bdb1034ce550204ca0bb2fe21e3e3b5fc758ba0ebf5b8e39fb15c501", "5221029e6fbb942d34a473faaa5557c1bfe08d72102f0b9754ad140fd369d7a3ba3cdc2103871fc2ca08e6950b38867e8e6a0e94ee625223d3aa0df5c65f414c6d784467e252ae"], "sequence": 4294967295, "scriptSig": {"hex": "2200202c66ece6da72bcbfeadf83a91236f4891c13e14d8ecebdcaa81666fc1aa73a31", "asm": "00202c66ece6da72bcbfeadf83a91236f4891c13e14d8ecebdcaa81666fc1aa73a31"}, "vout": 1, "txid": "600fd6cb84b75ecb451c7fdf09356035d5504c46dc9d987fba0a157645a47ffc"}], "txid": "5e9ba3b81e5f26ddc58359f57685e1c7f915d5eb6ddc81d53212a27cc39f7835", "blocktime": 1537873891, "version": 1, "confirmations": 11478, "time": 1537873891, "locktime": 0, "vsize": 204, "size": 369}