{"hash": "f652d48987e7c85fb8cc7a4e9d8eb5188554e5cf0a6026b6ee47283b06863754", "blockhash": "00000000000000000017f5eb5941039fbcee6240d03bc1f2f8e35350df66a1d8", "vout": [{"scriptPubKey": {"reqSigs": 1, "hex": "0014b024368916874dce3677928e8654ec755906871f", "addresses": ["bc1qkqjrdzgksaxuudnhj28gv48vw4vsdpclv5e9wm"], "asm": "0 b024368916874dce3677928e8654ec755906871f", "type": "witness_v0_keyhash"}, "value": 0.00900327, "n": 0}, {"scriptPubKey": {"reqSigs": 1, "hex": "76a91468ff9da8b7828d23c26b5a983c916e0fae59969288ac", "addresses": ["1AaBVTBSD8hGRjjG4iDbNGAcSf7Uhx5VaU"], "asm": "OP_DUP OP_HASH160 68ff9da8b7828d23c26b5a983c916e0fae599692 OP_EQUALVERIFY OP_CHECKSIG", "type": "pubkeyhash"}, "value": 0.02184, "n": 1}], "hex": "0100000000010142b3763ce2cf87c603967cf548e4af1dc185162ee05e03c29fe0788a325c57ed0200000017160014b90b510c0eac5fcc5b000ab29e977be7813a5de3ffffffff02e7bc0d0000000000160014b024368916874dce3677928e8654ec755906871f40532100000000001976a91468ff9da8b7828d23c26b5a983c916e0fae59969288ac0247304402207af3ab4debfecd438034337f459b6a01c060fee1a1727404348fb4167dfc4fd102207d1b7955a8c7ca8a3c9df40ec05cb942ddde9e995d38127f952827182134fb540121023e67a06fe8683592b30829c8d6ee53865f476946b93c698858294ceb13663e2600000000", "vin": [{"txinwitness": ["304402207af3ab4debfecd438034337f459b6a01c060fee1a1727404348fb4167dfc4fd102207d1b7955a8c7ca8a3c9df40ec05cb942ddde9e995d38127f952827182134fb5401", "023e67a06fe8683592b30829c8d6ee53865f476946b93c698858294ceb13663e26"], "sequence": 4294967295, "scriptSig": {"hex": "160014b90b510c0eac5fcc5b000ab29e977be7813a5de3", "asm": "0014b90b510c0eac5fcc5b000ab29e977be7813a5de3"}, "vout": 2, "txid": "ed575c328a78e09fc2035ee02e1685c11dafe448f57c9603c687cfe23c76b342"}], "txid": "5ea1a3226f8a3aea14bc7cb34bccef6c81c32ab485585d8037eb9ed51ed4042d", "blocktime": 1537874412, "version": 1, "confirmations": 11468, "time": 1537874412, "locktime": 0, "vsize": 167, "size": 248}