{"hash": "8c319250b7c9573b2127eccb3e1d37615deb258429e3ee7647d2b408a7ee268e", "blockhash": "0000000000000000000e13cef7c366c0283d82e591d1acd082e914b08063cdf1", "vout": [{"scriptPubKey": {"reqSigs": 1, "hex": "76a914611a03146436aaca96de96d4ff6206f644a48f9288ac", "addresses": ["19rRhxPsCxsyuBg94WcrVPTeBTspGdXgQB"], "asm": "OP_DUP OP_HASH160 611a03146436aaca96de96d4ff6206f644a48f92 OP_EQUALVERIFY OP_CHECKSIG", "type": "pubkeyhash"}, "value": 0.1, "n": 0}, {"scriptPubKey": {"reqSigs": 1, "hex": "a914e6e295b8e8c52410269e1c07e4a528c9f092975f87", "addresses": ["3Njpn4DiAia3ESHWLe5DDgvXJWcK9yqXKn"], "asm": "OP_HASH160 e6e295b8e8c52410269e1c07e4a528c9f092975f OP_EQUAL", "type": "scripthash"}, "value": 0.89999512, "n": 1}], "hex": "010000000001011859e15ea38c0a9bc1acf47996426e4218ff368ae66b9d207033a57d6f3c2f1a0000000017160014eca30007efcc69b0b7131a9bef33096779e7e823ffffff000280969800000000001976a914611a03146436aaca96de96d4ff6206f644a48f9288ac98485d050000000017a914e6e295b8e8c52410269e1c07e4a528c9f092975f8702483045022100f447607297175eede76e1f872a54c1d419728ab990950c66aabb3f7cd0bcc7da022045dc2a12fb71b512bd5428709144e154e2dfcc514bbfec14d866f44af5156a36012102623aa62d21701e451c2edc3ac65f7f037b59751bf501609160fa076e4ac9e10200000000", "vin": [{"txinwitness": ["3045022100f447607297175eede76e1f872a54c1d419728ab990950c66aabb3f7cd0bcc7da022045dc2a12fb71b512bd5428709144e154e2dfcc514bbfec14d866f44af5156a3601", "02623aa62d21701e451c2edc3ac65f7f037b59751bf501609160fa076e4ac9e102"], "sequence": 16777215, "scriptSig": {"hex": "160014eca30007efcc69b0b7131a9bef33096779e7e823", "asm": "0014eca30007efcc69b0b7131a9bef33096779e7e823"}, "vout": 0, "txid": "1a2f3c6f7da53370209d6be68a36ff18426e429679f4acc19b0a8ca35ee15918"}], "txid": "5ea56059e23abbc65315494e0773434ac198844bb7fa6e562b2d79b5573674c5", "blocktime": 1537871767, "version": 1, "confirmations": 11495, "time": 1537871767, "locktime": 0, "vsize": 168, "size": 250}