{"hash": "4daa1b1da6f14e0a0d8795ac93334d8e98449f4367816ce85080b99e201f50f6", "blockhash": "00000000000000000024a2167bbff67b0be802c0b01cdd79e6331c2be6459f87", "vout": [{"scriptPubKey": {"reqSigs": 1, "hex": "76a914453a4f67f76c3ce1d0b1ebffbeff2ef62850135088ac", "addresses": ["17K3UhXEcM2ESqzkZD9HynrnpAoAJc7hsF"], "asm": "OP_DUP OP_HASH160 453a4f67f76c3ce1d0b1ebffbeff2ef628501350 OP_EQUALVERIFY OP_CHECKSIG", "type": "pubkeyhash"}, "value": 0.05, "n": 0}, {"scriptPubKey": {"reqSigs": 1, "hex": "a9149fedd0435a5346d19e10dbf067501f04f6a02d3687", "addresses": ["3GGeFcpTvbKcU9so2Fz4C8o4V2C9Du9Ngp"], "asm": "OP_HASH160 9fedd0435a5346d19e10dbf067501f04f6a02d36 OP_EQUAL", "type": "scripthash"}, "value": 7.45499412, "n": 1}], "hex": "01000000000101022574443ef9ccfd136ac97085728fa5dd350e7b67b165103d6cb164324451140100000023220020bdce0b87be1099509aee666bf280d91936d77265b9626a3811efa68c794ec6d9ffffffff02404b4c00000000001976a914453a4f67f76c3ce1d0b1ebffbeff2ef62850135088ac146b6f2c0000000017a9149fedd0435a5346d19e10dbf067501f04f6a02d36870400483045022100f68fe13cd62c6bf56a860c3e931c37465b7735e4f81c89df7c68897e3f37cfdd022004bcd3787e39aaabf0d8285a202a8a6a309f5ff0aaeb6ceca05ae2533a1a481801483045022100f2620befa2e1001744e496241874f87d645741cfec73d58b9d498668172366bf022035812b4d91603f1397e236e8a12822c3ab661db096db3b1ac46ac41dfbb9d9dd0147522103eb143395e1f431f678a743f1647f1b19b73b3255e6eb16378dc614c75af6729821022a8a912ad76544ca20f666a2071879d22db3f19b68028bfb6e15e148dbbe91a252ae00000000", "vin": [{"txinwitness": ["", "3045022100f68fe13cd62c6bf56a860c3e931c37465b7735e4f81c89df7c68897e3f37cfdd022004bcd3787e39aaabf0d8285a202a8a6a309f5ff0aaeb6ceca05ae2533a1a481801", "3045022100f2620befa2e1001744e496241874f87d645741cfec73d58b9d498668172366bf022035812b4d91603f1397e236e8a12822c3ab661db096db3b1ac46ac41dfbb9d9dd01", "522103eb143395e1f431f678a743f1647f1b19b73b3255e6eb16378dc614c75af6729821022a8a912ad76544ca20f666a2071879d22db3f19b68028bfb6e15e148dbbe91a252ae"], "sequence": 4294967295, "scriptSig": {"hex": "220020bdce0b87be1099509aee666bf280d91936d77265b9626a3811efa68c794ec6d9", "asm": "0020bdce0b87be1099509aee666bf280d91936d77265b9626a3811efa68c794ec6d9"}, "vout": 1, "txid": "1451443264b16c3d1065b1677b0e35dda58f728570c96a13fdccf93e44742502"}], "txid": "5ea89411ae05d8838ed1d46aeee516f72c0bc1158e2ef15fd646711497248b62", "blocktime": 1537870564, "version": 1, "confirmations": 11515, "time": 1537870564, "locktime": 0, "vsize": 208, "size": 374}