{"hash": "e51d43ffc1abc682a34041a4502521620d8cdeeaca09072de5fb11f20c8a9173", "blockhash": "0000000000000000000baef3f32e3676a92c3b2e5da21b426e4f302fc371ce76", "vout": [{"scriptPubKey": {"reqSigs": 1, "hex": "76a914fd67ea58aaba6ff4dc6841501c0f880665b6c31788ac", "addresses": ["1Q6tShm1wqTKhzaAYWku8KVCL1bHSEqPt9"], "asm": "OP_DUP OP_HASH160 fd67ea58aaba6ff4dc6841501c0f880665b6c317 OP_EQUALVERIFY OP_CHECKSIG", "type": "pubkeyhash"}, "value": 0.04439851, "n": 0}, {"scriptPubKey": {"reqSigs": 1, "hex": "a9149649ad6d2730bb28020a268d9d80df10a9f74ad487", "addresses": ["3FPfYWwfMfKMGY7fuPHvz2b73RhTNGzsm3"], "asm": "OP_HASH160 9649ad6d2730bb28020a268d9d80df10a9f74ad4 OP_EQUAL", "type": "scripthash"}, "value": 13.74139642, "n": 1}], "hex": "01000000000101bae2bc275ea5d338e682c9c181eafd96f3fa01f74123a1773d38da0a9ef2041a01000000232200207768efcc1e5eb3d28410fac3f45831004c860cc24cddd940a616b34324823fceffffffff022bbf4300000000001976a914fd67ea58aaba6ff4dc6841501c0f880665b6c31788acfab4e7510000000017a9149649ad6d2730bb28020a268d9d80df10a9f74ad4870400483045022100ea3f880e1ca7a81b333f21a54850c327ff97e6c820d32ac696366d27fe96ae4002203726f28ffaaf453bdba4c5849794a779dba5586797a94edeb5313d9bfef3178d0147304402201555c06fc8d7047659324d2e60569c9ad1caff0b1cdfcb715a15b514fecb1e7102205e626ea135fdb3e02dd2306312043f823fa9f649934b027bc03f1bafdab321200147522102529d5d1f6733ab45d9d50e07db42c7f6b967ae321c38b726c2247f149959b8262103d0c936a5988dd8421c63240496b723b0ec42400c38b9350e32c2eb4f47d8796952ae00000000", "vin": [{"txinwitness": ["", "3045022100ea3f880e1ca7a81b333f21a54850c327ff97e6c820d32ac696366d27fe96ae4002203726f28ffaaf453bdba4c5849794a779dba5586797a94edeb5313d9bfef3178d01", "304402201555c06fc8d7047659324d2e60569c9ad1caff0b1cdfcb715a15b514fecb1e7102205e626ea135fdb3e02dd2306312043f823fa9f649934b027bc03f1bafdab3212001", "522102529d5d1f6733ab45d9d50e07db42c7f6b967ae321c38b726c2247f149959b8262103d0c936a5988dd8421c63240496b723b0ec42400c38b9350e32c2eb4f47d8796952ae"], "sequence": 4294967295, "scriptSig": {"hex": "2200207768efcc1e5eb3d28410fac3f45831004c860cc24cddd940a616b34324823fce", "asm": "00207768efcc1e5eb3d28410fac3f45831004c860cc24cddd940a616b34324823fce"}, "vout": 1, "txid": "1a04f29e0ada383d77a12341f701faf396fdea81c1c982e638d3a55e27bce2ba"}], "txid": "5ea91494e481271e194813e8f58a014d2c0a24139803fc10a00e209ac669e1a9", "blocktime": 1537876114, "version": 1, "confirmations": 11462, "time": 1537876114, "locktime": 0, "vsize": 208, "size": 373}