{"hash": "5eae652b5cf744a95cae4c5dbd4f95dc652d708b5d5676c161b0fedd9c7b10fc", "blockhash": "00000000000000000018f53835495a110e01622372bf6ae95dc86f2b0ab887b0", "vout": [{"scriptPubKey": {"reqSigs": 1, "hex": "76a9147dbb81d314f52bf4347c2146b5a49b6e439604d688ac", "addresses": ["1CTp6CjrSiYdbRfqU7LvFbfz7wEbWJADSx"], "asm": "OP_DUP OP_HASH160 7dbb81d314f52bf4347c2146b5a49b6e439604d6 OP_EQUALVERIFY OP_CHECKSIG", "type": "pubkeyhash"}, "value": 0.00029169, "n": 0}, {"scriptPubKey": {"type": "nulldata", "hex": "6a4c500000778b0001ff92ec952c90c61a89457c40e3ef3236678a625097bcbefa6b8351586b4ef91c4b25dab5f9ade75bb888c7948e425baa0bed06142d45a2d56b274bbf23acfcfaac8058b692fe6808c31d", "asm": "OP_RETURN 0000778b0001ff92ec952c90c61a89457c40e3ef3236678a625097bcbefa6b8351586b4ef91c4b25dab5f9ade75bb888c7948e425baa0bed06142d45a2d56b274bbf23acfcfaac8058b692fe6808c31d"}, "value": 0.0, "n": 1}], "hex": "0100000001a1d69586f985d0f13455703a021f8cb40edcda0e08b1b0a9abb954de0504408d000000006a47304402205ed5331f0df99c1483bcd9ff4c8c3bfc9b932567e14ead8393d62b03109314b80220215b86ee9a9d98427c01095fbfca7ae0c92e62848441a36d1c4b7d3416a498eb0121032683bba7dabf3ef3b63eee0d737a25c5b133e92257dffc71d8dbb7e103aeb06bffffffff02f1710000000000001976a9147dbb81d314f52bf4347c2146b5a49b6e439604d688ac0000000000000000536a4c500000778b0001ff92ec952c90c61a89457c40e3ef3236678a625097bcbefa6b8351586b4ef91c4b25dab5f9ade75bb888c7948e425baa0bed06142d45a2d56b274bbf23acfcfaac8058b692fe6808c31d00000000", "vin": [{"sequence": 4294967295, "scriptSig": {"hex": "47304402205ed5331f0df99c1483bcd9ff4c8c3bfc9b932567e14ead8393d62b03109314b80220215b86ee9a9d98427c01095fbfca7ae0c92e62848441a36d1c4b7d3416a498eb0121032683bba7dabf3ef3b63eee0d737a25c5b133e92257dffc71d8dbb7e103aeb06b", "asm": "304402205ed5331f0df99c1483bcd9ff4c8c3bfc9b932567e14ead8393d62b03109314b80220215b86ee9a9d98427c01095fbfca7ae0c92e62848441a36d1c4b7d3416a498eb[ALL] 032683bba7dabf3ef3b63eee0d737a25c5b133e92257dffc71d8dbb7e103aeb06b"}, "vout": 0, "txid": "8d400405de54b9aba9b0b1080edadc0eb48c1f023a705534f1d085f98695d6a1"}], "txid": "5eae652b5cf744a95cae4c5dbd4f95dc652d708b5d5676c161b0fedd9c7b10fc", "blocktime": 1537870928, "version": 1, "confirmations": 11512, "time": 1537870928, "locktime": 0, "vsize": 283, "size": 283}