{"hash": "5eb33d08608dfe97845750b69b65feedaf1733f52aebc0ce6f923fb3872663b6", "blockhash": "0000000000000000001cda96e906b7601b7a6fb1a3b62bca570a9e5d8f4b3de1", "vout": [{"scriptPubKey": {"reqSigs": 1, "hex": "a914acd1fdb16620966f15139d13c99ae821422e67ad87", "addresses": ["3HSohy7NsALbAGHhB3ixcCtQdD2Q6vZgcP"], "asm": "OP_HASH160 acd1fdb16620966f15139d13c99ae821422e67ad OP_EQUAL", "type": "scripthash"}, "value": 0.0305, "n": 0}, {"scriptPubKey": {"reqSigs": 1, "hex": "76a914be4b34fb3b4f35ae67de732c6a1e3319b3b0176c88ac", "addresses": ["1JMBUvJ4Tr2FLfAMP2n7ixkhPT81NyBJHZ"], "asm": "OP_DUP OP_HASH160 be4b34fb3b4f35ae67de732c6a1e3319b3b0176c OP_EQUALVERIFY OP_CHECKSIG", "type": "pubkeyhash"}, "value": 0.04771968, "n": 1}], "hex": "0100000002f52de2e53b1648a03889d4070f70c38544cae92ca088cbf41548a6d0c2025c78010000006b4830450221008857f67f8e944011bd24cf0327e85bfbc07f2cd6566a01ae302ab3e50332e3e9022067ed104d55954e78b32009ef8d72341c8e41bc6441b7be37f23634493e3f0550012103d42d586cd750a2759fed7c4d69baca61b4c5fc100d9acbe58ae4999643d062abffffffffc88ff5cbc53cc14c7bbe567819ff0221460a3b777e92454a75e4ac3f12e189ef010000006a47304402201a85e7eae0e64287f0d524a74375c448e42ab599da2219454d74c2124789b67c02205b48973ad53cd5ee2eef7f34ca1f85310114626aa7268edeaaa16903f739c2a9012103850f50a6bc870bb783ce70a102e62ffbfc61a2f01659673d5ef4ecde5a36ac9bffffffff02108a2e000000000017a914acd1fdb16620966f15139d13c99ae821422e67ad8780d04800000000001976a914be4b34fb3b4f35ae67de732c6a1e3319b3b0176c88ac00000000", "vin": [{"sequence": 4294967295, "scriptSig": {"hex": "4830450221008857f67f8e944011bd24cf0327e85bfbc07f2cd6566a01ae302ab3e50332e3e9022067ed104d55954e78b32009ef8d72341c8e41bc6441b7be37f23634493e3f0550012103d42d586cd750a2759fed7c4d69baca61b4c5fc100d9acbe58ae4999643d062ab", "asm": "30450221008857f67f8e944011bd24cf0327e85bfbc07f2cd6566a01ae302ab3e50332e3e9022067ed104d55954e78b32009ef8d72341c8e41bc6441b7be37f23634493e3f0550[ALL] 03d42d586cd750a2759fed7c4d69baca61b4c5fc100d9acbe58ae4999643d062ab"}, "vout": 1, "txid": "785c02c2d0a64815f4cb88a02ce9ca4485c3700f07d48938a048163be5e22df5"}, {"sequence": 4294967295, "scriptSig": {"hex": "47304402201a85e7eae0e64287f0d524a74375c448e42ab599da2219454d74c2124789b67c02205b48973ad53cd5ee2eef7f34ca1f85310114626aa7268edeaaa16903f739c2a9012103850f50a6bc870bb783ce70a102e62ffbfc61a2f01659673d5ef4ecde5a36ac9b", "asm": "304402201a85e7eae0e64287f0d524a74375c448e42ab599da2219454d74c2124789b67c02205b48973ad53cd5ee2eef7f34ca1f85310114626aa7268edeaaa16903f739c2a9[ALL] 03850f50a6bc870bb783ce70a102e62ffbfc61a2f01659673d5ef4ecde5a36ac9b"}, "vout": 1, "txid": "ef89e1123face4754a45927e773b0a462102ff197856be7b4cc13cc5cbf58fc8"}], "txid": "5eb33d08608dfe97845750b69b65feedaf1733f52aebc0ce6f923fb3872663b6", "blocktime": 1537873282, "version": 1, "confirmations": 11484, "time": 1537873282, "locktime": 0, "vsize": 371, "size": 371}