{"hash": "0dd3027be70ced6d7b5e6d31fd3baa6f47f85fe00fb3ce482e7c5c42588abec3", "blockhash": "0000000000000000000e13cef7c366c0283d82e591d1acd082e914b08063cdf1", "vout": [{"scriptPubKey": {"reqSigs": 1, "hex": "a91469f375310b47e9567c7d8d5688fbecf50a04d05887", "addresses": ["3BMEXRqW65iZuv6eZPGHaTcBo35t8ih8sn"], "asm": "OP_HASH160 69f375310b47e9567c7d8d5688fbecf50a04d058 OP_EQUAL", "type": "scripthash"}, "value": 0.0195, "n": 0}, {"scriptPubKey": {"reqSigs": 1, "hex": "a914c7ba081a99e6bebec206a1e678dc95d3b7b0f67687", "addresses": ["3Ku5FRYoHWCfxVjFCY67yRxAsSJxScn5A9"], "asm": "OP_HASH160 c7ba081a99e6bebec206a1e678dc95d3b7b0f676 OP_EQUAL", "type": "scripthash"}, "value": 0.22713833, "n": 1}], "hex": "01000000000101d21ff7391bbee14a0dd9a18768083ca6d414e1f43c7104e84b776912e1f4ea6e0000000023220020955bc61f1e61b43711aefb012788c7bd7b4df7f505b8b74c338260e9499643bdffffffff0230c11d000000000017a91469f375310b47e9567c7d8d5688fbecf50a04d05887e9955a010000000017a914c7ba081a99e6bebec206a1e678dc95d3b7b0f676870400483045022100ba4e57a206476b3f5cf3a79075a65069518c74892d26595bb5d8dea86179d42102205a4a5087d809a9a5a051d8b5b75de0881ef1a506d942061e7277c69ea54cf041014730440220340e6e48640c7fd64a2b85feb2987f8dbcc3eabcc562948e0a8e05f2a04dc61a022027d9726365163afe8a38d6b85d2036645b8b52bbc1aea250365aab1c1fd610c70169522103a273ee854f9f69554880b32491bb4649ad84a24cb7a3741df5fa60c83159dff12102b191d5329d5186addcf82b2ae88d0faa12d0b7a34ebd78cd67f68a777124e7352102b3fbe843ec1990a65f39543f4f1384e5fe5e0d6be741e1fa76eeab56865a3c1a53ae11490800", "vin": [{"txinwitness": ["", "3045022100ba4e57a206476b3f5cf3a79075a65069518c74892d26595bb5d8dea86179d42102205a4a5087d809a9a5a051d8b5b75de0881ef1a506d942061e7277c69ea54cf04101", "30440220340e6e48640c7fd64a2b85feb2987f8dbcc3eabcc562948e0a8e05f2a04dc61a022027d9726365163afe8a38d6b85d2036645b8b52bbc1aea250365aab1c1fd610c701", "522103a273ee854f9f69554880b32491bb4649ad84a24cb7a3741df5fa60c83159dff12102b191d5329d5186addcf82b2ae88d0faa12d0b7a34ebd78cd67f68a777124e7352102b3fbe843ec1990a65f39543f4f1384e5fe5e0d6be741e1fa76eeab56865a3c1a53ae"], "sequence": 4294967295, "scriptSig": {"hex": "220020955bc61f1e61b43711aefb012788c7bd7b4df7f505b8b74c338260e9499643bd", "asm": "0020955bc61f1e61b43711aefb012788c7bd7b4df7f505b8b74c338260e9499643bd"}, "vout": 0, "txid": "6eeaf4e11269774be804713cf4e114d4a63c086887a1d90d4ae1be1b39f71fd2"}], "txid": "5ebac104eac94f13d3f65e3221127ea583fc14f2d5fa9eaca503ca55c3a1c762", "blocktime": 1537871767, "version": 1, "confirmations": 11494, "time": 1537871767, "locktime": 542993, "vsize": 214, "size": 405}