{"hash": "5ebb085e8d83735d13d58bfa95b86c1096c7719aaef3b2537e7d236dc81e6a50", "blockhash": "0000000000000000000baef3f32e3676a92c3b2e5da21b426e4f302fc371ce76", "vout": [{"scriptPubKey": {"reqSigs": 1, "hex": "76a9140ae7ca8f6f1d26663eef0a1067945a1ade5a96b888ac", "addresses": ["1zfS4HzS3u7VYUt3QQo6A8zpY6rVT2udf"], "asm": "OP_DUP OP_HASH160 0ae7ca8f6f1d26663eef0a1067945a1ade5a96b8 OP_EQUALVERIFY OP_CHECKSIG", "type": "pubkeyhash"}, "value": 0.00065171, "n": 0}, {"scriptPubKey": {"reqSigs": 1, "hex": "76a9147921d5f06f2af66f805c8aaf4ad7266a28eba45488ac", "addresses": ["1C3VJA7b4xqgzscFkay5LkioW1Ma9vfTjx"], "asm": "OP_DUP OP_HASH160 7921d5f06f2af66f805c8aaf4ad7266a28eba454 OP_EQUALVERIFY OP_CHECKSIG", "type": "pubkeyhash"}, "value": 0.0008006, "n": 1}], "hex": "01000000014ed02a8a053342b4e470b8d9656a8272cb24b9ed6598b12698972c58fe7b6e8d010000006b4830450221009f18bd07b935e55edbcab6feabb6aca6ca232b3feb51e2aab9e57317681a058c02200a3d51e52551460d2d855d4f9488edb3858909548af0db637bfb368c527b56ad01210330475af03c05c494999c1740f1ccd797462faf40cfefd350d14a0d6922f62f3bffffffff0293fe0000000000001976a9140ae7ca8f6f1d26663eef0a1067945a1ade5a96b888acbc380100000000001976a9147921d5f06f2af66f805c8aaf4ad7266a28eba45488ac00000000", "vin": [{"sequence": 4294967295, "scriptSig": {"hex": "4830450221009f18bd07b935e55edbcab6feabb6aca6ca232b3feb51e2aab9e57317681a058c02200a3d51e52551460d2d855d4f9488edb3858909548af0db637bfb368c527b56ad01210330475af03c05c494999c1740f1ccd797462faf40cfefd350d14a0d6922f62f3b", "asm": "30450221009f18bd07b935e55edbcab6feabb6aca6ca232b3feb51e2aab9e57317681a058c02200a3d51e52551460d2d855d4f9488edb3858909548af0db637bfb368c527b56ad[ALL] 0330475af03c05c494999c1740f1ccd797462faf40cfefd350d14a0d6922f62f3b"}, "vout": 1, "txid": "8d6e7bfe582c979826b19865edb924cb72826a65d9b870e4b44233058a2ad04e"}], "txid": "5ebb085e8d83735d13d58bfa95b86c1096c7719aaef3b2537e7d236dc81e6a50", "blocktime": 1537876114, "version": 1, "confirmations": 11460, "time": 1537876114, "locktime": 0, "vsize": 226, "size": 226}