{"hash": "5ebe3bc1b21661a621ad75af74d256eccf23a6b29e612d89d8608bdf9d17eb93", "blockhash": "00000000000000000017f5eb5941039fbcee6240d03bc1f2f8e35350df66a1d8", "vout": [{"scriptPubKey": {"type": "nulldata", "hex": "6a146f6d6e69000000000000001f000000174876e800", "asm": "OP_RETURN 6f6d6e69000000000000001f000000174876e800"}, "value": 0.0, "n": 0}, {"scriptPubKey": {"reqSigs": 1, "hex": "76a91455305d43476ef601a59a1512835c62f6c260c4d688ac", "addresses": ["18mSNiZfbAQ8WzmnAZuCEQyseYFQsRSsGJ"], "asm": "OP_DUP OP_HASH160 55305d43476ef601a59a1512835c62f6c260c4d6 OP_EQUALVERIFY OP_CHECKSIG", "type": "pubkeyhash"}, "value": 0.00499064, "n": 1}, {"scriptPubKey": {"reqSigs": 1, "hex": "76a914a25dec4d0011064ef106a983c39c7a540699f22088ac", "addresses": ["1FoWyxwPXuj4C6abqwhjDWdz6D4PZgYRjA"], "asm": "OP_DUP OP_HASH160 a25dec4d0011064ef106a983c39c7a540699f220 OP_EQUALVERIFY OP_CHECKSIG", "type": "pubkeyhash"}, "value": 5.46e-06, "n": 2}], "hex": "01000000013a4c1d798db6bc890731bb89fb16f82f1d6cbe6a01b7d47d30c65bc3d1988db3060000006a473044022039c451e8cc085fd4e0f1b9d4b39866b3772a3c41b3273e0c070adba85a1e210902200557dff29f39c3c8b36eadf152fb621564c9e1411657e1aff851ec97915e47bd0121029b3ba654c0ffedda960e8109711b618a64c5c8c918474920f456542a37e4e85cfeffffff030000000000000000166a146f6d6e69000000000000001f000000174876e800789d0700000000001976a91455305d43476ef601a59a1512835c62f6c260c4d688ac22020000000000001976a914a25dec4d0011064ef106a983c39c7a540699f22088ac15490800", "vin": [{"sequence": 4294967294, "scriptSig": {"hex": "473044022039c451e8cc085fd4e0f1b9d4b39866b3772a3c41b3273e0c070adba85a1e210902200557dff29f39c3c8b36eadf152fb621564c9e1411657e1aff851ec97915e47bd0121029b3ba654c0ffedda960e8109711b618a64c5c8c918474920f456542a37e4e85c", "asm": "3044022039c451e8cc085fd4e0f1b9d4b39866b3772a3c41b3273e0c070adba85a1e210902200557dff29f39c3c8b36eadf152fb621564c9e1411657e1aff851ec97915e47bd[ALL] 029b3ba654c0ffedda960e8109711b618a64c5c8c918474920f456542a37e4e85c"}, "vout": 6, "txid": "b38d98d1c35bc6307dd4b7016abe6c1d2ff816fb89bb310789bcb68d791d4c3a"}], "txid": "5ebe3bc1b21661a621ad75af74d256eccf23a6b29e612d89d8608bdf9d17eb93", "blocktime": 1537874412, "version": 1, "confirmations": 11468, "time": 1537874412, "locktime": 542997, "vsize": 256, "size": 256}