{"hash": "5ec695d5391b24017a5bca75326c348ac3dbfa0c4af0840fd3bb4bf471ca9a69", "blockhash": "00000000000000000018f53835495a110e01622372bf6ae95dc86f2b0ab887b0", "vout": [{"scriptPubKey": {"reqSigs": 1, "hex": "a914c6d082c9446297c4efcda885487d1c3e18a66f7987", "addresses": ["3KpFW7hfcFgZt4NaD6MaudfmXHMfJn5N7n"], "asm": "OP_HASH160 c6d082c9446297c4efcda885487d1c3e18a66f79 OP_EQUAL", "type": "scripthash"}, "value": 0.02547289, "n": 0}], "hex": "010000000165063695d02ac9495bd790b5c8857d961293ee41cc8d3f8610782fe61137b89b080000006b4830450221009e3443a4c6ea4d7e7925a45a3987b6d758df2f97b53a53005912bf4d3840a7bf02207471aa09ba24ba2c617581d780b581e73d369100dcff58d89669534bab8a25a00121020c9b2d51db3082ebd6c7958fe7f0cdeef185951df73490a320179bc83ee6ab8cffffffff0159de26000000000017a914c6d082c9446297c4efcda885487d1c3e18a66f798700000000", "vin": [{"sequence": 4294967295, "scriptSig": {"hex": "4830450221009e3443a4c6ea4d7e7925a45a3987b6d758df2f97b53a53005912bf4d3840a7bf02207471aa09ba24ba2c617581d780b581e73d369100dcff58d89669534bab8a25a00121020c9b2d51db3082ebd6c7958fe7f0cdeef185951df73490a320179bc83ee6ab8c", "asm": "30450221009e3443a4c6ea4d7e7925a45a3987b6d758df2f97b53a53005912bf4d3840a7bf02207471aa09ba24ba2c617581d780b581e73d369100dcff58d89669534bab8a25a0[ALL] 020c9b2d51db3082ebd6c7958fe7f0cdeef185951df73490a320179bc83ee6ab8c"}, "vout": 8, "txid": "9bb83711e62f7810863f8dcc41ee9312967d85c8b590d75b49c92ad095360665"}], "txid": "5ec695d5391b24017a5bca75326c348ac3dbfa0c4af0840fd3bb4bf471ca9a69", "blocktime": 1537870928, "version": 1, "confirmations": 11512, "time": 1537870928, "locktime": 0, "vsize": 190, "size": 190}