{"hash": "5ec8fb15ef882e6b13c7155616ce55181ea3e8d91de15dcc66b523efee563766", "blockhash": "0000000000000000001cda96e906b7601b7a6fb1a3b62bca570a9e5d8f4b3de1", "vout": [{"scriptPubKey": {"reqSigs": 1, "hex": "76a9146c90d8f88a1089e9d2be1dbecc0fce9f7597597d88ac", "addresses": ["1Au3VuHCtRQPghV9DKo9kutGDYPVd7P8zj"], "asm": "OP_DUP OP_HASH160 6c90d8f88a1089e9d2be1dbecc0fce9f7597597d OP_EQUALVERIFY OP_CHECKSIG", "type": "pubkeyhash"}, "value": 2.071e-05, "n": 0}, {"scriptPubKey": {"reqSigs": 1, "hex": "a914ce2e3d9341c566634f1600ba1f83f09447ac80cc87", "addresses": ["3LVCWugHLM4HvEiEnkZBLFDGDqVpg4ZZkb"], "asm": "OP_HASH160 ce2e3d9341c566634f1600ba1f83f09447ac80cc OP_EQUAL", "type": "scripthash"}, "value": 0.00101477, "n": 1}], "hex": "010000000253a6c9a03d77e2c02c097b7e925b688906c3974dd63a17a5ddc5e801ae21374f000000006b483045022100ba01571300ef30807ffe9388df9e7abead230729d8693696df5b1261e3d4841102200f267d7e90ae7b1d3a1f5bbbca18b5710ca7b69a59f858b3375ca7417d33b18b012103c25c5bc70b4fc31fc3d0499e0c5902f266f696c9e657f9473157fcba9adb7b00ffffffff7fcb75f0df6b20431cbfcc545d79824fe84c812de280ea7ce71fe8ec37ce1457000000006b483045022100d2fac86540485c5175ef75661a72090430141d993028cb02e319b87daa09231702202950869d7b7ff0fa6bc1d15a3f81a753c5867cab681222a5dfd2aa4c18c2a35f01210323b3ec070b7f17a8e7eff4b81e8719c004cf1b9b3c16a9f5bc6ff64894acceccffffffff0217080000000000001976a9146c90d8f88a1089e9d2be1dbecc0fce9f7597597d88ac658c01000000000017a914ce2e3d9341c566634f1600ba1f83f09447ac80cc8700000000", "vin": [{"sequence": 4294967295, "scriptSig": {"hex": "483045022100ba01571300ef30807ffe9388df9e7abead230729d8693696df5b1261e3d4841102200f267d7e90ae7b1d3a1f5bbbca18b5710ca7b69a59f858b3375ca7417d33b18b012103c25c5bc70b4fc31fc3d0499e0c5902f266f696c9e657f9473157fcba9adb7b00", "asm": "3045022100ba01571300ef30807ffe9388df9e7abead230729d8693696df5b1261e3d4841102200f267d7e90ae7b1d3a1f5bbbca18b5710ca7b69a59f858b3375ca7417d33b18b[ALL] 03c25c5bc70b4fc31fc3d0499e0c5902f266f696c9e657f9473157fcba9adb7b00"}, "vout": 0, "txid": "4f3721ae01e8c5dda5173ad64d97c30689685b927e7b092cc0e2773da0c9a653"}, {"sequence": 4294967295, "scriptSig": {"hex": "483045022100d2fac86540485c5175ef75661a72090430141d993028cb02e319b87daa09231702202950869d7b7ff0fa6bc1d15a3f81a753c5867cab681222a5dfd2aa4c18c2a35f01210323b3ec070b7f17a8e7eff4b81e8719c004cf1b9b3c16a9f5bc6ff64894accecc", "asm": "3045022100d2fac86540485c5175ef75661a72090430141d993028cb02e319b87daa09231702202950869d7b7ff0fa6bc1d15a3f81a753c5867cab681222a5dfd2aa4c18c2a35f[ALL] 0323b3ec070b7f17a8e7eff4b81e8719c004cf1b9b3c16a9f5bc6ff64894accecc"}, "vout": 0, "txid": "5714ce37ece81fe77cea80e22d814ce84f82795d54ccbf1c43206bdff075cb7f"}], "txid": "5ec8fb15ef882e6b13c7155616ce55181ea3e8d91de15dcc66b523efee563766", "blocktime": 1537873282, "version": 1, "confirmations": 11481, "time": 1537873282, "locktime": 0, "vsize": 372, "size": 372}