{"hash": "5eca4607b8d7a73527d98e2ef7d73c27b87253c30c76624ddd7a7721b0f5bd33", "blockhash": "0000000000000000001e0dab787dd257d1dbfcb92a98c2207d5e1078be1f4165", "vout": [{"scriptPubKey": {"reqSigs": 1, "hex": "76a91456f4c8f635dad1bd106d6c63f5b9f62f030aae0188ac", "addresses": ["18vnMTZFbNcEJhWz5B6hEk2j7zbDY8i8am"], "asm": "OP_DUP OP_HASH160 56f4c8f635dad1bd106d6c63f5b9f62f030aae01 OP_EQUALVERIFY OP_CHECKSIG", "type": "pubkeyhash"}, "value": 0.0031181, "n": 0}, {"scriptPubKey": {"reqSigs": 1, "hex": "76a914197d414fe1fcdd7bc0af0ffcebc9b8786b756fd888ac", "addresses": ["13Kmwg7n7jAPuSMqTXTFYxZmLTRD59598c"], "asm": "OP_DUP OP_HASH160 197d414fe1fcdd7bc0af0ffcebc9b8786b756fd8 OP_EQUALVERIFY OP_CHECKSIG", "type": "pubkeyhash"}, "value": 0.00411017, "n": 1}], "hex": "01000000016e7d392a7bab1f9550e2926b2f798a389daa1a5c945da257fe0184efae9434ed000000006b48304502210098f0b2edd33e844c47f5ecef7e4dd7ba79e18202d183fd6a3573ab50e96e41cc02201ad9f65e87e5fb7959b4fef4dfc62fbd31d510107bb36f21416ab3b05475bb430121034fb91a0da845b8d0caa4cba9c55337fc8de8aaffd0c0812f0408d1097bfcdecbffffffff0202c20400000000001976a91456f4c8f635dad1bd106d6c63f5b9f62f030aae0188ac89450600000000001976a914197d414fe1fcdd7bc0af0ffcebc9b8786b756fd888ac00000000", "vin": [{"sequence": 4294967295, "scriptSig": {"hex": "48304502210098f0b2edd33e844c47f5ecef7e4dd7ba79e18202d183fd6a3573ab50e96e41cc02201ad9f65e87e5fb7959b4fef4dfc62fbd31d510107bb36f21416ab3b05475bb430121034fb91a0da845b8d0caa4cba9c55337fc8de8aaffd0c0812f0408d1097bfcdecb", "asm": "304502210098f0b2edd33e844c47f5ecef7e4dd7ba79e18202d183fd6a3573ab50e96e41cc02201ad9f65e87e5fb7959b4fef4dfc62fbd31d510107bb36f21416ab3b05475bb43[ALL] 034fb91a0da845b8d0caa4cba9c55337fc8de8aaffd0c0812f0408d1097bfcdecb"}, "vout": 0, "txid": "ed3494aeef8401fe57a25d945c1aaa9d388a792f6b92e250951fab7b2a397d6e"}], "txid": "5eca4607b8d7a73527d98e2ef7d73c27b87253c30c76624ddd7a7721b0f5bd33", "blocktime": 1537872475, "version": 1, "confirmations": 11487, "time": 1537872475, "locktime": 0, "vsize": 226, "size": 226}