{"hash": "5ecb3e7317c4254f86b9bd92381441b79b1fb3f664ac775de1de14afae0e111f", "blockhash": "0000000000000000001f76057863aec43deb6fa401d9628bb513d65a8098bfab", "vout": [{"scriptPubKey": {"reqSigs": 1, "hex": "76a9142e4b070050747d1c672192a7d2da965f1fb164a288ac", "addresses": ["15DmxpKEm6Tk1bYz9d6dWnsVzR1c76kDXJ"], "asm": "OP_DUP OP_HASH160 2e4b070050747d1c672192a7d2da965f1fb164a2 OP_EQUALVERIFY OP_CHECKSIG", "type": "pubkeyhash"}, "value": 0.00634344, "n": 0}, {"scriptPubKey": {"type": "nulldata", "hex": "6a4c50000077ec00010bfa2521b752ef3a7ce7766b7af8e8e963c7cfd5b95b23cc0f42c2fc38c503919c38a803afc4f4de078971a44a4f5baa17a3061336a77aa18b181d100759d4ba30d2c37bb011d97e02cf", "asm": "OP_RETURN 000077ec00010bfa2521b752ef3a7ce7766b7af8e8e963c7cfd5b95b23cc0f42c2fc38c503919c38a803afc4f4de078971a44a4f5baa17a3061336a77aa18b181d100759d4ba30d2c37bb011d97e02cf"}, "value": 0.0, "n": 1}], "hex": "0100000001b7f6f850b270515623e4a272c4e44d8a5ebe9acd5486109b96f88620ed1d28a6010000006a473044022073d47998d89eae58592cb98c6c158d4feecc8a91ab370e4dcf949431cc925b3d0220449d320bd7e8be5eb4f60576d883b1d4a181a4e3c54da36fb911ae09630f62a101210202737527cc4ac01401ab4970224b2b146614c4e30baae7cb125cf7b240c863e4ffffffff02e8ad0900000000001976a9142e4b070050747d1c672192a7d2da965f1fb164a288ac0000000000000000536a4c50000077ec00010bfa2521b752ef3a7ce7766b7af8e8e963c7cfd5b95b23cc0f42c2fc38c503919c38a803afc4f4de078971a44a4f5baa17a3061336a77aa18b181d100759d4ba30d2c37bb011d97e02cf00000000", "vin": [{"sequence": 4294967295, "scriptSig": {"hex": "473044022073d47998d89eae58592cb98c6c158d4feecc8a91ab370e4dcf949431cc925b3d0220449d320bd7e8be5eb4f60576d883b1d4a181a4e3c54da36fb911ae09630f62a101210202737527cc4ac01401ab4970224b2b146614c4e30baae7cb125cf7b240c863e4", "asm": "3044022073d47998d89eae58592cb98c6c158d4feecc8a91ab370e4dcf949431cc925b3d0220449d320bd7e8be5eb4f60576d883b1d4a181a4e3c54da36fb911ae09630f62a1[ALL] 0202737527cc4ac01401ab4970224b2b146614c4e30baae7cb125cf7b240c863e4"}, "vout": 1, "txid": "a6281ded2086f8969b108654cd9abe5e8a4de4c472a2e423565170b250f8f6b7"}], "txid": "5ecb3e7317c4254f86b9bd92381441b79b1fb3f664ac775de1de14afae0e111f", "blocktime": 1537873891, "version": 1, "confirmations": 11478, "time": 1537873891, "locktime": 0, "vsize": 283, "size": 283}