{"hash": "5ed072b82ba2c8c02d434865828aa553e0323aa6849ff7fe28a91c489cb7e1be", "blockhash": "00000000000000000018f53835495a110e01622372bf6ae95dc86f2b0ab887b0", "vout": [{"scriptPubKey": {"reqSigs": 1, "hex": "76a9140fff62a07b99646a36d8e14338f5a642f36610c788ac", "addresses": ["12Tb5MgEi1gU493qoUggtYXDReZHXhso7z"], "asm": "OP_DUP OP_HASH160 0fff62a07b99646a36d8e14338f5a642f36610c7 OP_EQUALVERIFY OP_CHECKSIG", "type": "pubkeyhash"}, "value": 0.140003, "n": 0}, {"scriptPubKey": {"reqSigs": 1, "hex": "76a91469fa43327e825df8aaa465deafb2cd0d35ca7f8c88ac", "addresses": ["1AfMkgidEmUp5JybcuXeLgdzaXVXfBSdJc"], "asm": "OP_DUP OP_HASH160 69fa43327e825df8aaa465deafb2cd0d35ca7f8c OP_EQUALVERIFY OP_CHECKSIG", "type": "pubkeyhash"}, "value": 6.476e-05, "n": 1}], "hex": "01000000035498c44e1b8ba3c9d9ccab1b3d62f3a06f336057f52e56fd2efca651b7553ee4010000006b483045022100b2e291abcb0a1fb00750c19e09f024c7162111062d25ae21ac807b92bf7a02b002202a91d8e6f1cc373511a32dc8599bfdc4c20852a0fd2491cc198f584ec3be06c90121038909f054ac5b0330fa05f23ddd448725a4a2c5f9c08a8b93dc3a9ce8f766a3a9ffffffffb736bb6a557d238405431091e3f51ef82803d0a32bf16699bde202500c88c590010000006a47304402204331c2b94d4ac5ff073ee043668e908718ecc144341313aee04b94af559bcdfe02207e99ab790b292af3a01c85c068e8085e0f233525d96bd06730712a00ce7e4f720121038909f054ac5b0330fa05f23ddd448725a4a2c5f9c08a8b93dc3a9ce8f766a3a9ffffffff1c96c17dd123370909784d6c6a81c1a578b328ce9cbcfcc8990096ddc48abd60000000006a47304402203cd5d5041339e1f495c3ed55e4afaf5c385e3a6a010563a88d71d1c27944766102201f6acd53f5fea127efb2f8046950168be85702cc6233adab9c412e9765e013ab0121038909f054ac5b0330fa05f23ddd448725a4a2c5f9c08a8b93dc3a9ce8f766a3a9ffffffff02aca0d500000000001976a9140fff62a07b99646a36d8e14338f5a642f36610c788ac4c190000000000001976a91469fa43327e825df8aaa465deafb2cd0d35ca7f8c88ac00000000", "vin": [{"sequence": 4294967295, "scriptSig": {"hex": "483045022100b2e291abcb0a1fb00750c19e09f024c7162111062d25ae21ac807b92bf7a02b002202a91d8e6f1cc373511a32dc8599bfdc4c20852a0fd2491cc198f584ec3be06c90121038909f054ac5b0330fa05f23ddd448725a4a2c5f9c08a8b93dc3a9ce8f766a3a9", "asm": "3045022100b2e291abcb0a1fb00750c19e09f024c7162111062d25ae21ac807b92bf7a02b002202a91d8e6f1cc373511a32dc8599bfdc4c20852a0fd2491cc198f584ec3be06c9[ALL] 038909f054ac5b0330fa05f23ddd448725a4a2c5f9c08a8b93dc3a9ce8f766a3a9"}, "vout": 1, "txid": "e43e55b751a6fc2efd562ef55760336fa0f3623d1babccd9c9a38b1b4ec49854"}, {"sequence": 4294967295, "scriptSig": {"hex": "47304402204331c2b94d4ac5ff073ee043668e908718ecc144341313aee04b94af559bcdfe02207e99ab790b292af3a01c85c068e8085e0f233525d96bd06730712a00ce7e4f720121038909f054ac5b0330fa05f23ddd448725a4a2c5f9c08a8b93dc3a9ce8f766a3a9", "asm": "304402204331c2b94d4ac5ff073ee043668e908718ecc144341313aee04b94af559bcdfe02207e99ab790b292af3a01c85c068e8085e0f233525d96bd06730712a00ce7e4f72[ALL] 038909f054ac5b0330fa05f23ddd448725a4a2c5f9c08a8b93dc3a9ce8f766a3a9"}, "vout": 1, "txid": "90c5880c5002e2bd9966f12ba3d00328f81ef5e39110430584237d556abb36b7"}, {"sequence": 4294967295, "scriptSig": {"hex": "47304402203cd5d5041339e1f495c3ed55e4afaf5c385e3a6a010563a88d71d1c27944766102201f6acd53f5fea127efb2f8046950168be85702cc6233adab9c412e9765e013ab0121038909f054ac5b0330fa05f23ddd448725a4a2c5f9c08a8b93dc3a9ce8f766a3a9", "asm": "304402203cd5d5041339e1f495c3ed55e4afaf5c385e3a6a010563a88d71d1c27944766102201f6acd53f5fea127efb2f8046950168be85702cc6233adab9c412e9765e013ab[ALL] 038909f054ac5b0330fa05f23ddd448725a4a2c5f9c08a8b93dc3a9ce8f766a3a9"}, "vout": 0, "txid": "60bd8ac4dd960099c8fcbc9cce28b378a5c1816a6c4d7809093723d17dc1961c"}], "txid": "5ed072b82ba2c8c02d434865828aa553e0323aa6849ff7fe28a91c489cb7e1be", "blocktime": 1537870928, "version": 1, "confirmations": 11512, "time": 1537870928, "locktime": 0, "vsize": 520, "size": 520}