{"hash": "5ed3e71769c655369872d08bd3d7758c7022ef0d4cbc3218d0fd82d9505c9c7f", "blockhash": "00000000000000000017f5eb5941039fbcee6240d03bc1f2f8e35350df66a1d8", "vout": [{"scriptPubKey": {"reqSigs": 1, "hex": "76a9149e2b0830d396cea44b78de59c115ec543f8f991188ac", "addresses": ["1FRKKE2gZj79UxY2hvTbfDfftnFEu1NQz7"], "asm": "OP_DUP OP_HASH160 9e2b0830d396cea44b78de59c115ec543f8f9911 OP_EQUALVERIFY OP_CHECKSIG", "type": "pubkeyhash"}, "value": 0.0221102, "n": 0}, {"scriptPubKey": {"type": "nulldata", "hex": "6a4c50000077f00001cc976e396876d674d1a4089cd19ed074892d00f8e87af8e8e963c7cfd5b98853840b3e68e9720b96e4622d4ab07b5baa181b06137458153121bdbc9a9526289ac0f6612cd74e33776ee4", "asm": "OP_RETURN 000077f00001cc976e396876d674d1a4089cd19ed074892d00f8e87af8e8e963c7cfd5b98853840b3e68e9720b96e4622d4ab07b5baa181b06137458153121bdbc9a9526289ac0f6612cd74e33776ee4"}, "value": 0.0, "n": 1}], "hex": "0100000001e23963db25237df946fa12641b1ec9bd569513ca949363a2f03757a38ae45fe9000000006b483045022100b57736f25527eb45e6ab57b7141c8c5b4d739285b61eaf26e3934f5193d22aac02203199423cb6b437e4b4d65401ca7941083ed7a5f64a2947894731de318d063bb301210379c5d15327a6b5e0010e22140d4f785877127ec78684671398530e9a49bb460dffffffff02ccbc2100000000001976a9149e2b0830d396cea44b78de59c115ec543f8f991188ac0000000000000000536a4c50000077f00001cc976e396876d674d1a4089cd19ed074892d00f8e87af8e8e963c7cfd5b98853840b3e68e9720b96e4622d4ab07b5baa181b06137458153121bdbc9a9526289ac0f6612cd74e33776ee400000000", "vin": [{"sequence": 4294967295, "scriptSig": {"hex": "483045022100b57736f25527eb45e6ab57b7141c8c5b4d739285b61eaf26e3934f5193d22aac02203199423cb6b437e4b4d65401ca7941083ed7a5f64a2947894731de318d063bb301210379c5d15327a6b5e0010e22140d4f785877127ec78684671398530e9a49bb460d", "asm": "3045022100b57736f25527eb45e6ab57b7141c8c5b4d739285b61eaf26e3934f5193d22aac02203199423cb6b437e4b4d65401ca7941083ed7a5f64a2947894731de318d063bb3[ALL] 0379c5d15327a6b5e0010e22140d4f785877127ec78684671398530e9a49bb460d"}, "vout": 0, "txid": "e95fe48aa35737f0a2639394ca139556bdc91e1b6412fa46f97d2325db6339e2"}], "txid": "5ed3e71769c655369872d08bd3d7758c7022ef0d4cbc3218d0fd82d9505c9c7f", "blocktime": 1537874412, "version": 1, "confirmations": 11467, "time": 1537874412, "locktime": 0, "vsize": 284, "size": 284}