{"hash": "5ed667f8cfaf3b52a223c1536d59538b9a4036a7573db5e3430a934025c45a9e", "blockhash": "0000000000000000001cda96e906b7601b7a6fb1a3b62bca570a9e5d8f4b3de1", "vout": [{"scriptPubKey": {"type": "nulldata", "hex": "6a146f6d6e69000000000000001f0000004626e12500", "asm": "OP_RETURN 6f6d6e69000000000000001f0000004626e12500"}, "value": 0.0, "n": 0}, {"scriptPubKey": {"reqSigs": 1, "hex": "76a9143d107f67d263646e71211a7258e60e0c77de9c3988ac", "addresses": ["16Zsyys7hqqzaoPHHeaVtomXrTPy83KejQ"], "asm": "OP_DUP OP_HASH160 3d107f67d263646e71211a7258e60e0c77de9c39 OP_EQUALVERIFY OP_CHECKSIG", "type": "pubkeyhash"}, "value": 0.01432468, "n": 1}, {"scriptPubKey": {"reqSigs": 1, "hex": "76a91419e0c262cafaafc72f4aa76c56c70045d2300ad688ac", "addresses": ["13Mq9M8c16x4nvPMTwC6WFqCTs4rku2cq6"], "asm": "OP_DUP OP_HASH160 19e0c262cafaafc72f4aa76c56c70045d2300ad6 OP_EQUALVERIFY OP_CHECKSIG", "type": "pubkeyhash"}, "value": 5.46e-06, "n": 2}], "hex": "0100000001179339bbf41092946a11081fb959213df151cbd905bbce4a54351336787e374a020000006b483045022100c28837404fdcf0b4172e542f81753774d72c99aa69bb864efda9dd76e8edbce402206a749176b83d47c01a7e490350f046667ebc97e7a14064478dc69b6d5161764c0121022c5d925fec66f0028bb9773037be23f2555f0d15777d4cbc06205c32f639621ffeffffff030000000000000000166a146f6d6e69000000000000001f0000004626e1250094db1500000000001976a9143d107f67d263646e71211a7258e60e0c77de9c3988ac22020000000000001976a91419e0c262cafaafc72f4aa76c56c70045d2300ad688ac03490800", "vin": [{"sequence": 4294967294, "scriptSig": {"hex": "483045022100c28837404fdcf0b4172e542f81753774d72c99aa69bb864efda9dd76e8edbce402206a749176b83d47c01a7e490350f046667ebc97e7a14064478dc69b6d5161764c0121022c5d925fec66f0028bb9773037be23f2555f0d15777d4cbc06205c32f639621f", "asm": "3045022100c28837404fdcf0b4172e542f81753774d72c99aa69bb864efda9dd76e8edbce402206a749176b83d47c01a7e490350f046667ebc97e7a14064478dc69b6d5161764c[ALL] 022c5d925fec66f0028bb9773037be23f2555f0d15777d4cbc06205c32f639621f"}, "vout": 2, "txid": "4a377e78361335544acebb05d9cb51f13d2159b91f08116a949210f4bb399317"}], "txid": "5ed667f8cfaf3b52a223c1536d59538b9a4036a7573db5e3430a934025c45a9e", "blocktime": 1537873282, "version": 1, "confirmations": 11485, "time": 1537873282, "locktime": 542979, "vsize": 257, "size": 257}