{"hash": "5ede4e0201d6b7db149cc15449969aa81cd494904292672b7a2aa74c465ae53b", "blockhash": "0000000000000000000e13cef7c366c0283d82e591d1acd082e914b08063cdf1", "vout": [{"scriptPubKey": {"reqSigs": 1, "hex": "76a914b1433990dfad4f687ce0e377107d2d1e971a073688ac", "addresses": ["1HAH8pYCS2NwxfM6gwVtGhheEui65TGG7Y"], "asm": "OP_DUP OP_HASH160 b1433990dfad4f687ce0e377107d2d1e971a0736 OP_EQUALVERIFY OP_CHECKSIG", "type": "pubkeyhash"}, "value": 0.00076618, "n": 0}, {"scriptPubKey": {"reqSigs": 1, "hex": "76a9142c0940372edfa9f560911a5a09f5cad19785afa388ac", "addresses": ["151qpCcr3zqDjtqY5iaDZf3uE1E9TG6Kyp"], "asm": "OP_DUP OP_HASH160 2c0940372edfa9f560911a5a09f5cad19785afa3 OP_EQUALVERIFY OP_CHECKSIG", "type": "pubkeyhash"}, "value": 0.007827, "n": 1}], "hex": "01000000017fe436be48756fd0456636b41d623ca1553a7180557467a7716b332c9dfdf867000000006b483045022100dc87beddaeef393b2dc75e3db0e228dda7e65168ff9a19c77ba6fe9fe259ca8f02203421d164bbefa028d23021c304a537f0f4794d4fcef6de2a5170b60e68f8b0180121038f186f702d05022930ddb5d5ebcffc885d8e06d5815f24038bd643978d360be8ffffffff024a2b0100000000001976a914b1433990dfad4f687ce0e377107d2d1e971a073688ac6cf10b00000000001976a9142c0940372edfa9f560911a5a09f5cad19785afa388ac00000000", "vin": [{"sequence": 4294967295, "scriptSig": {"hex": "483045022100dc87beddaeef393b2dc75e3db0e228dda7e65168ff9a19c77ba6fe9fe259ca8f02203421d164bbefa028d23021c304a537f0f4794d4fcef6de2a5170b60e68f8b0180121038f186f702d05022930ddb5d5ebcffc885d8e06d5815f24038bd643978d360be8", "asm": "3045022100dc87beddaeef393b2dc75e3db0e228dda7e65168ff9a19c77ba6fe9fe259ca8f02203421d164bbefa028d23021c304a537f0f4794d4fcef6de2a5170b60e68f8b018[ALL] 038f186f702d05022930ddb5d5ebcffc885d8e06d5815f24038bd643978d360be8"}, "vout": 0, "txid": "67f8fd9d2c336b71a767745580713a55a13c621db4366645d06f7548be36e47f"}], "txid": "5ede4e0201d6b7db149cc15449969aa81cd494904292672b7a2aa74c465ae53b", "blocktime": 1537871767, "version": 1, "confirmations": 11495, "time": 1537871767, "locktime": 0, "vsize": 226, "size": 226}