{"hash": "912afd4289e2ac88c4e1ca0f37ea6c532ae421464e953328c81f1146b3eaa344", "blockhash": "0000000000000000001cda96e906b7601b7a6fb1a3b62bca570a9e5d8f4b3de1", "vout": [{"scriptPubKey": {"reqSigs": 1, "hex": "76a914d4bd3d817bfff8b5350982df2130525fb00d397788ac", "addresses": ["1LPrxK5HTfpHQxCSwkZdqWUhMJU5tY9Y5h"], "asm": "OP_DUP OP_HASH160 d4bd3d817bfff8b5350982df2130525fb00d3977 OP_EQUALVERIFY OP_CHECKSIG", "type": "pubkeyhash"}, "value": 0.00156037, "n": 0}, {"scriptPubKey": {"reqSigs": 1, "hex": "a9140eb7be29401dc3627f5f9ee2be8e6c96b14df02a87", "addresses": ["332qVuPhLRxMcuDRik9PcRuCu4jS91JWyy"], "asm": "OP_HASH160 0eb7be29401dc3627f5f9ee2be8e6c96b14df02a OP_EQUAL", "type": "scripthash"}, "value": 0.26582202, "n": 1}], "hex": "010000000001013d73df0cbf8030829b23d267c36159ec66edb5d7e94cf04ee21e0c0d8fff885001000000171600146ab97997a0a2c0d0cfc4e9576520c224b1553284ffffffff0285610200000000001976a914d4bd3d817bfff8b5350982df2130525fb00d397788acba9c95010000000017a9140eb7be29401dc3627f5f9ee2be8e6c96b14df02a8702483045022100e096390d11c0be27a3bcaf14125e48efb992237b59f02dc544a5f3ab5fdec3d002206234bd9e1d8e368db2f3f4b510cd872aaac69c5bdcedd6e8e10a1e5acc676b19012103814c2fc693f1e962a914fac2a01eb3e5d6c0deeb372340ac56ae47f37a28d70b00000000", "vin": [{"txinwitness": ["3045022100e096390d11c0be27a3bcaf14125e48efb992237b59f02dc544a5f3ab5fdec3d002206234bd9e1d8e368db2f3f4b510cd872aaac69c5bdcedd6e8e10a1e5acc676b1901", "03814c2fc693f1e962a914fac2a01eb3e5d6c0deeb372340ac56ae47f37a28d70b"], "sequence": 4294967295, "scriptSig": {"hex": "1600146ab97997a0a2c0d0cfc4e9576520c224b1553284", "asm": "00146ab97997a0a2c0d0cfc4e9576520c224b1553284"}, "vout": 1, "txid": "5088ff8f0d0c1ee24ef04ce9d7b5ed66ec5961c367d2239b823080bf0cdf733d"}], "txid": "5eeeac20f92997fffa92bf861b885c15346f99d49ca850c9dda12a5a22c11c8c", "blocktime": 1537873282, "version": 1, "confirmations": 11484, "time": 1537873282, "locktime": 0, "vsize": 168, "size": 250}