{"hash": "58cec7236f2f7d562dae8d8dbf9b8a5e7c88767bf4cf8f0fc83a05c7a98d2a96", "blockhash": "0000000000000000001f76057863aec43deb6fa401d9628bb513d65a8098bfab", "vout": [{"scriptPubKey": {"reqSigs": 1, "hex": "a9148321bac2202c2b1e12fe11bf27bf5f01f34f5b0587", "addresses": ["3DeNrEzKoUdDa6m3FJvp4jPBk1JrUfuUHz"], "asm": "OP_HASH160 8321bac2202c2b1e12fe11bf27bf5f01f34f5b05 OP_EQUAL", "type": "scripthash"}, "value": 0.00214685, "n": 0}, {"scriptPubKey": {"reqSigs": 1, "hex": "a91482d6a82ded2d1d5e046476803e6e51bd1230ea9587", "addresses": ["3Dcpv7Dy73Wj5rDYPpMpVWys4eDLiRsNm5"], "asm": "OP_HASH160 82d6a82ded2d1d5e046476803e6e51bd1230ea95 OP_EQUAL", "type": "scripthash"}, "value": 0.01420652, "n": 1}], "hex": "02000000000101a923c6fc26d793eea12587516a7044c39d2986e0770c813a52c03d91855af316000000001716001451e412c7e52e9be02d670eeccda057a4c815aba4feffffff029d4603000000000017a9148321bac2202c2b1e12fe11bf27bf5f01f34f5b05876cad15000000000017a91482d6a82ded2d1d5e046476803e6e51bd1230ea958702483045022100dccf55c0d9b63b42ecbca4df392a56be5e072fd94c0fa1f2e4a8ad355b16aeb102203ecfff85c877f7da698dcfaf9fd2e7c90cdc541f12e65aeca9242c188761efac0121025212b18f86bdbefa75e0ec67cafe09595ac0c4906d6a7f14b94e566cafed345b14490800", "vin": [{"txinwitness": ["3045022100dccf55c0d9b63b42ecbca4df392a56be5e072fd94c0fa1f2e4a8ad355b16aeb102203ecfff85c877f7da698dcfaf9fd2e7c90cdc541f12e65aeca9242c188761efac01", "025212b18f86bdbefa75e0ec67cafe09595ac0c4906d6a7f14b94e566cafed345b"], "sequence": 4294967294, "scriptSig": {"hex": "16001451e412c7e52e9be02d670eeccda057a4c815aba4", "asm": "001451e412c7e52e9be02d670eeccda057a4c815aba4"}, "vout": 0, "txid": "16f35a85913dc0523a810c77e086299dc344706a518725a1ee93d726fcc623a9"}], "txid": "5ef035b520f6a0a5dac7bbb281ae247896cb4b1afa32edd1aff8f902a491b9ca", "blocktime": 1537873891, "version": 2, "confirmations": 11478, "time": 1537873891, "locktime": 542996, "vsize": 166, "size": 248}