{"hash": "5ef3c98a83e8a51ae54aae7a0156a2ff3a9ede552fb244cc1974fd03215eb60c", "blockhash": "0000000000000000001cda96e906b7601b7a6fb1a3b62bca570a9e5d8f4b3de1", "vout": [{"scriptPubKey": {"reqSigs": 1, "hex": "76a91438e6024e1f45ac6fb246a972cf44eed91917f10288ac", "addresses": ["16BrP3oWzxxa4FqeYd7NuRNPCfHGZN1c2g"], "asm": "OP_DUP OP_HASH160 38e6024e1f45ac6fb246a972cf44eed91917f102 OP_EQUALVERIFY OP_CHECKSIG", "type": "pubkeyhash"}, "value": 5.46e-06, "n": 0}, {"scriptPubKey": {"type": "nulldata", "hex": "6a146f6d6e69000000000000001f00000000068e7780", "asm": "OP_RETURN 6f6d6e69000000000000001f00000000068e7780"}, "value": 0.0, "n": 1}, {"scriptPubKey": {"reqSigs": 1, "hex": "76a914548b6f93a7c63fce52b7bc1ac75adeca79b17dd488ac", "addresses": ["18i2oHbtyCfx52iJB5fA3gKB9XYr81uSpK"], "asm": "OP_DUP OP_HASH160 548b6f93a7c63fce52b7bc1ac75adeca79b17dd4 OP_EQUALVERIFY OP_CHECKSIG", "type": "pubkeyhash"}, "value": 0.0014727, "n": 2}], "hex": "0100000001693a08a6490adc306b1e6f36ded871489ccad1bb1a6ced46376285c21b329887020000006a473044022036940afae71d89bd173375ca9364eed36b9c0d12fc863757638c825f03383d320220685cd00e891f286a679803e202092252b5776a4c7c909f4f054d4d3cd5361e1901210341cc38f427d5b4f412202a130608069a5ff454f5a2dcdb29e52d57883e14ffa8ffffffff0322020000000000001976a91438e6024e1f45ac6fb246a972cf44eed91917f10288ac0000000000000000166a146f6d6e69000000000000001f00000000068e7780463f0200000000001976a914548b6f93a7c63fce52b7bc1ac75adeca79b17dd488ac00000000", "vin": [{"sequence": 4294967295, "scriptSig": {"hex": "473044022036940afae71d89bd173375ca9364eed36b9c0d12fc863757638c825f03383d320220685cd00e891f286a679803e202092252b5776a4c7c909f4f054d4d3cd5361e1901210341cc38f427d5b4f412202a130608069a5ff454f5a2dcdb29e52d57883e14ffa8", "asm": "3044022036940afae71d89bd173375ca9364eed36b9c0d12fc863757638c825f03383d320220685cd00e891f286a679803e202092252b5776a4c7c909f4f054d4d3cd5361e19[ALL] 0341cc38f427d5b4f412202a130608069a5ff454f5a2dcdb29e52d57883e14ffa8"}, "vout": 2, "txid": "8798321bc285623746ed6c1abbd1ca9c4871d8de366f1e6b30dc0a49a6083a69"}], "txid": "5ef3c98a83e8a51ae54aae7a0156a2ff3a9ede552fb244cc1974fd03215eb60c", "blocktime": 1537873282, "version": 1, "confirmations": 11480, "time": 1537873282, "locktime": 0, "vsize": 256, "size": 256}