{"hash": "23c49269c47223583a8b0f97aa068218aec8d1b60058b29e2788b533f993148d", "blockhash": "0000000000000000000baef3f32e3676a92c3b2e5da21b426e4f302fc371ce76", "vout": [{"scriptPubKey": {"reqSigs": 1, "hex": "a91469f3771df5799941588ba3eead375cf0952c038787", "addresses": ["3BMEXx9VGEAodnurWqGsz9XEtTivKbSMZe"], "asm": "OP_HASH160 69f3771df5799941588ba3eead375cf0952c0387 OP_EQUAL", "type": "scripthash"}, "value": 0.00969, "n": 0}, {"scriptPubKey": {"reqSigs": 1, "hex": "76a9142d196afbd17ad853c27f33a65bb4a4466c90dd8f88ac", "addresses": ["157TrhZfbmcVt6TDzFbcot71iW4AgT546T"], "asm": "OP_DUP OP_HASH160 2d196afbd17ad853c27f33a65bb4a4466c90dd8f OP_EQUALVERIFY OP_CHECKSIG", "type": "pubkeyhash"}, "value": 0.3641255, "n": 1}, {"scriptPubKey": {"reqSigs": 1, "hex": "a91469f376eb817a5a1f1861254712db49fce47de5fb87", "addresses": ["3BMEXu3YersWXzYkM2jL6GS3rnCc16K8mb"], "asm": "OP_HASH160 69f376eb817a5a1f1861254712db49fce47de5fb OP_EQUAL", "type": "scripthash"}, "value": 0.0137, "n": 2}, {"scriptPubKey": {"reqSigs": 1, "hex": "a91469f3758adbe6b44eb23f7058f936431b4168e8da87", "addresses": ["3BMEXXMpzEBzzchXrQVCfaQ4qRquCYuZrh"], "asm": "OP_HASH160 69f3758adbe6b44eb23f7058f936431b4168e8da OP_EQUAL", "type": "scripthash"}, "value": 0.05, "n": 3}, {"scriptPubKey": {"reqSigs": 1, "hex": "0020701a8d401c84fb13e6baf169d59684e17abd9fa216c8cc5b9fc63d622ff8c58d", "addresses": ["bc1qwqdg6squsna38e46795at95yu9atm8azzmyvckulcc7kytlcckxswvvzej"], "asm": "0 701a8d401c84fb13e6baf169d59684e17abd9fa216c8cc5b9fc63d622ff8c58d", "type": "witness_v0_scripthash"}, "value": 1.26958777, "n": 4}], "hex": "01000000000101b8c183386639e42b21d9622a3d7670e4ab2b6f16318b30c43f61d0ee1f98fa770400000000ffffffff0528c90e000000000017a91469f3771df5799941588ba3eead375cf0952c038787869c2b02000000001976a9142d196afbd17ad853c27f33a65bb4a4466c90dd8f88ac90e714000000000017a91469f376eb817a5a1f1861254712db49fce47de5fb87404b4c000000000017a91469f3758adbe6b44eb23f7058f936431b4168e8da87b93c910700000000220020701a8d401c84fb13e6baf169d59684e17abd9fa216c8cc5b9fc63d622ff8c58d0400483045022100901d0e8ca87d835cf0ea6d491cf01848118ea8251a52be16b89df3f138d89e6b02202c904f7e6ecf9b2803ef52eb17f178d3912fcfe601f236284eb6c32795d148d901483045022100b482e06c3d6418ccfbb6ccba5685dc3087cfb9f61158ad26289635b7b70004d30220744921f498b580a0ac1b9b67421ae3b3d9527b6978806abb3c7819a836b620a7016952210375e00eb72e29da82b89367947f29ef34afb75e8654f6ea368e0acdfd92976b7c2103a1b26313f430c4b15bb1fdce663207659d8cac749a0e53d70eff01874496feff2103c96d495bfdd5ba4145e3e046fee45e84a8a48ad05bd8dbb395c011a32cf9f88053ae00000000", "vin": [{"txinwitness": ["", "3045022100901d0e8ca87d835cf0ea6d491cf01848118ea8251a52be16b89df3f138d89e6b02202c904f7e6ecf9b2803ef52eb17f178d3912fcfe601f236284eb6c32795d148d901", "3045022100b482e06c3d6418ccfbb6ccba5685dc3087cfb9f61158ad26289635b7b70004d30220744921f498b580a0ac1b9b67421ae3b3d9527b6978806abb3c7819a836b620a701", "52210375e00eb72e29da82b89367947f29ef34afb75e8654f6ea368e0acdfd92976b7c2103a1b26313f430c4b15bb1fdce663207659d8cac749a0e53d70eff01874496feff2103c96d495bfdd5ba4145e3e046fee45e84a8a48ad05bd8dbb395c011a32cf9f88053ae"], "sequence": 4294967295, "scriptSig": {"hex": "", "asm": ""}, "vout": 4, "txid": "77fa981feed0613fc4308b31166f2babe470763d2a62d9212be439663883c1b8"}], "txid": "5ef541382eef8eb9e9ec80aa5802d4caf821e54c9dc66d6353b0e17bbff08fcc", "blocktime": 1537876114, "version": 1, "confirmations": 11459, "time": 1537876114, "locktime": 0, "vsize": 288, "size": 480}