{"hash": "5ef664d1827538d8bfc9f302b0abf5b954771950aec680fa1c5755fdb8c3b26c", "blockhash": "0000000000000000000e13cef7c366c0283d82e591d1acd082e914b08063cdf1", "vout": [{"scriptPubKey": {"reqSigs": 1, "hex": "76a914b1bac7c56ebbb81b799ed030b922136ab028945088ac", "addresses": ["1HCkMgUjMa3QgKT9MmRK99tUyZNzp8Cfwx"], "asm": "OP_DUP OP_HASH160 b1bac7c56ebbb81b799ed030b922136ab0289450 OP_EQUALVERIFY OP_CHECKSIG", "type": "pubkeyhash"}, "value": 0.00308843, "n": 0}, {"scriptPubKey": {"reqSigs": 1, "hex": "76a914dc3e339a62e0951242e1d8c49f8bcfb9f926182788ac", "addresses": ["1M5YB3YXhnj1677vgV8LNAwmzumz7Yqrz8"], "asm": "OP_DUP OP_HASH160 dc3e339a62e0951242e1d8c49f8bcfb9f9261827 OP_EQUALVERIFY OP_CHECKSIG", "type": "pubkeyhash"}, "value": 59.84878137, "n": 1}], "hex": "0100000001bdb9e349b39a930e7b1bc22ee3bed0d68caee28ac3c43fa51e695f275ee58e7c010000006a473044022045e3d23e1fd565aa0c93d899f7be6356b07fe0987a6fd1601723167f6c3eee3b022074600b66330c08273a9e464502936bbc1884333aa52ad06831a4ce0cc4090c3b012103d27183ef2b72e06ef3acb9e8e5970e7c9f7c6fe671dde89490f6f3d47219c1a6ffffffff026bb60400000000001976a914b1bac7c56ebbb81b799ed030b922136ab028945088ac39feb964010000001976a914dc3e339a62e0951242e1d8c49f8bcfb9f926182788ac00000000", "vin": [{"sequence": 4294967295, "scriptSig": {"hex": "473044022045e3d23e1fd565aa0c93d899f7be6356b07fe0987a6fd1601723167f6c3eee3b022074600b66330c08273a9e464502936bbc1884333aa52ad06831a4ce0cc4090c3b012103d27183ef2b72e06ef3acb9e8e5970e7c9f7c6fe671dde89490f6f3d47219c1a6", "asm": "3044022045e3d23e1fd565aa0c93d899f7be6356b07fe0987a6fd1601723167f6c3eee3b022074600b66330c08273a9e464502936bbc1884333aa52ad06831a4ce0cc4090c3b[ALL] 03d27183ef2b72e06ef3acb9e8e5970e7c9f7c6fe671dde89490f6f3d47219c1a6"}, "vout": 1, "txid": "7c8ee55e275f691ea53fc4c38ae2ae8cd6d0bee32ec21b7b0e939ab349e3b9bd"}], "txid": "5ef664d1827538d8bfc9f302b0abf5b954771950aec680fa1c5755fdb8c3b26c", "blocktime": 1537871767, "version": 1, "confirmations": 11490, "time": 1537871767, "locktime": 0, "vsize": 225, "size": 225}