{"hash": "5efd18a584d102e89fc7c5dac1797348cc54b13e58e2d4cb1b6d9c53481d7fab", "blockhash": "000000000000000000022b45ed06c6f4ccd3cf7fb5ba4856ebd2e58215665228", "vout": [{"scriptPubKey": {"reqSigs": 1, "hex": "0014971f8885f7221a21e23f70fba7ba7ad0d0eb9e16", "addresses": ["bc1qju0c3p0hygdzrc3lwra60wn66rgwh8sk5pr490"], "asm": "0 971f8885f7221a21e23f70fba7ba7ad0d0eb9e16", "type": "witness_v0_keyhash"}, "value": 0.00028247, "n": 0}, {"scriptPubKey": {"reqSigs": 1, "hex": "76a914158df0b7e7ea02b54b87b41bfe62aad02292a9bb88ac", "addresses": ["12xyEDQFWirMstMoRNyoCm3zpjuYAk6CX9"], "asm": "OP_DUP OP_HASH160 158df0b7e7ea02b54b87b41bfe62aad02292a9bb OP_EQUALVERIFY OP_CHECKSIG", "type": "pubkeyhash"}, "value": 0.00156, "n": 1}], "hex": "01000000011ca673b1ba1dd2de513cf47b41da20d66c18dc7fe6b3c30e23d955e1c428bcd6370800006b483045022100cd4a628d0062c395a25f681700b6749f8ba85971f4e788b2c5b8455d0fe09cbe02200cc55054c9dad63c6a0ed45c6d0d9072c5ac3957e75357f92984aa1fdb9925130121021a54c9dc35391af5e67bb3d99197cccd770b930520c1e447d0c3aa04c328d800ffffffff02576e000000000000160014971f8885f7221a21e23f70fba7ba7ad0d0eb9e1660610200000000001976a914158df0b7e7ea02b54b87b41bfe62aad02292a9bb88ac00000000", "vin": [{"sequence": 4294967295, "scriptSig": {"hex": "483045022100cd4a628d0062c395a25f681700b6749f8ba85971f4e788b2c5b8455d0fe09cbe02200cc55054c9dad63c6a0ed45c6d0d9072c5ac3957e75357f92984aa1fdb9925130121021a54c9dc35391af5e67bb3d99197cccd770b930520c1e447d0c3aa04c328d800", "asm": "3045022100cd4a628d0062c395a25f681700b6749f8ba85971f4e788b2c5b8455d0fe09cbe02200cc55054c9dad63c6a0ed45c6d0d9072c5ac3957e75357f92984aa1fdb992513[ALL] 021a54c9dc35391af5e67bb3d99197cccd770b930520c1e447d0c3aa04c328d800"}, "vout": 2103, "txid": "d6bc28c4e155d9230ec3b3e67fdc186cd620da417bf43c51ded21dbab173a61c"}], "txid": "5efd18a584d102e89fc7c5dac1797348cc54b13e58e2d4cb1b6d9c53481d7fab", "blocktime": 1537869901, "version": 1, "confirmations": 11523, "time": 1537869901, "locktime": 0, "vsize": 223, "size": 223}