{"hash": "5efeb894bfa1c08ad1c5c2d7d715a096b7be36e551e6f10313da5c365cd6e0bd", "blockhash": "0000000000000000001f76057863aec43deb6fa401d9628bb513d65a8098bfab", "vout": [{"scriptPubKey": {"reqSigs": 1, "hex": "76a914da7801d849f523a1b48ac5a8c21723ea01cbd2ff88ac", "addresses": ["1LvA54pmEifdRp5pT2tsaaK1kgufLrR6D8"], "asm": "OP_DUP OP_HASH160 da7801d849f523a1b48ac5a8c21723ea01cbd2ff OP_EQUALVERIFY OP_CHECKSIG", "type": "pubkeyhash"}, "value": 0.13116496, "n": 0}, {"scriptPubKey": {"reqSigs": 1, "hex": "76a9144a0f1e2f2b0d7daeec5265f10bbbbe08ed725e8988ac", "addresses": ["17kb7c9ndg7ioSuzMWEHWECdEVUegNkcGc"], "asm": "OP_DUP OP_HASH160 4a0f1e2f2b0d7daeec5265f10bbbbe08ed725e89 OP_EQUALVERIFY OP_CHECKSIG", "type": "pubkeyhash"}, "value": 0.00820358, "n": 1}], "hex": "0100000001befcca21f27a4a333dfe717deac43d98718166d71d3fea064aca80e83869b832010000006a473044022013121c6de5e9233fc6f672d86cb8d246887b987140a688bf9f09caac31a4de5802200fb9e8f09de9197e8860fea2f3f70373a8ff2066f68c0c18d3c695311b0c4d4801210363e1776495149c5a4e92acf453a3caa19000fc804e4ba2024b600ba25e09c943ffffffff025024c800000000001976a914da7801d849f523a1b48ac5a8c21723ea01cbd2ff88ac86840c00000000001976a9144a0f1e2f2b0d7daeec5265f10bbbbe08ed725e8988ac00000000", "vin": [{"sequence": 4294967295, "scriptSig": {"hex": "473044022013121c6de5e9233fc6f672d86cb8d246887b987140a688bf9f09caac31a4de5802200fb9e8f09de9197e8860fea2f3f70373a8ff2066f68c0c18d3c695311b0c4d4801210363e1776495149c5a4e92acf453a3caa19000fc804e4ba2024b600ba25e09c943", "asm": "3044022013121c6de5e9233fc6f672d86cb8d246887b987140a688bf9f09caac31a4de5802200fb9e8f09de9197e8860fea2f3f70373a8ff2066f68c0c18d3c695311b0c4d48[ALL] 0363e1776495149c5a4e92acf453a3caa19000fc804e4ba2024b600ba25e09c943"}, "vout": 1, "txid": "32b86938e880ca4a06ea3f1dd7668171983dc4ea7d71fe3d334a7af221cafcbe"}], "txid": "5efeb894bfa1c08ad1c5c2d7d715a096b7be36e551e6f10313da5c365cd6e0bd", "blocktime": 1537873891, "version": 1, "confirmations": 11474, "time": 1537873891, "locktime": 0, "vsize": 225, "size": 225}