{"hash": "7b7f23ad759840c32f35a9e951290f16203647429c419ed7b337acf31e4183aa", "blockhash": "0000000000000000001cda96e906b7601b7a6fb1a3b62bca570a9e5d8f4b3de1", "vout": [{"scriptPubKey": {"reqSigs": 1, "hex": "a91470177a336f202066bf60f84525c71ff97b08300187", "addresses": ["3BuhjGEVxAukCuEw7axCCNGnXBtmvHJ7Bi"], "asm": "OP_HASH160 70177a336f202066bf60f84525c71ff97b083001 OP_EQUAL", "type": "scripthash"}, "value": 0.00043219, "n": 0}, {"scriptPubKey": {"reqSigs": 1, "hex": "a914412a5a9d44d5834123b7756088f409b7b3a36da687", "addresses": ["37daapNiiDgPEaARWMQCfhGXJo4yF1nTaW"], "asm": "OP_HASH160 412a5a9d44d5834123b7756088f409b7b3a36da6 OP_EQUAL", "type": "scripthash"}, "value": 0.01638433, "n": 1}], "hex": "01000000000101a69a0d34a635dbb169e4ef55a3bc0f8c1f05c0593ab0b71291437dc94604b57f010000002322002083f5850b1b9ae687f7cf8d5c77fefcbd87cde420155cd43c20d50f5f293b7ed6ffffffff02d3a800000000000017a91470177a336f202066bf60f84525c71ff97b08300187210019000000000017a914412a5a9d44d5834123b7756088f409b7b3a36da68704004830450221008b4dae743021d3d716847924ae41a826e8726f5f9b30fdae2101f907f2a7c54b02201e8e3d9eaea3a75937a34ed656c751c7032e4b72bfb3c7c585b46e9fe81fc7b101463043021f3bca134e2fc0d950634223ba4433420aa41342091ac1da8e914a4f2d33644402203c6d30e9c492353a2aac98f591fa95ae710b113e6e1b945f127d1fcc3ec0060601475221020511070566b8412d1941b8dc0ded10caa6a6915b609dfa65bb8111255071d3a22103871fc2ca08e6950b38867e8e6a0e94ee625223d3aa0df5c65f414c6d784467e252ae00000000", "vin": [{"txinwitness": ["", "30450221008b4dae743021d3d716847924ae41a826e8726f5f9b30fdae2101f907f2a7c54b02201e8e3d9eaea3a75937a34ed656c751c7032e4b72bfb3c7c585b46e9fe81fc7b101", "3043021f3bca134e2fc0d950634223ba4433420aa41342091ac1da8e914a4f2d33644402203c6d30e9c492353a2aac98f591fa95ae710b113e6e1b945f127d1fcc3ec0060601", "5221020511070566b8412d1941b8dc0ded10caa6a6915b609dfa65bb8111255071d3a22103871fc2ca08e6950b38867e8e6a0e94ee625223d3aa0df5c65f414c6d784467e252ae"], "sequence": 4294967295, "scriptSig": {"hex": "22002083f5850b1b9ae687f7cf8d5c77fefcbd87cde420155cd43c20d50f5f293b7ed6", "asm": "002083f5850b1b9ae687f7cf8d5c77fefcbd87cde420155cd43c20d50f5f293b7ed6"}, "vout": 1, "txid": "7fb50446c97d439112b7b03a59c0051f8c0fbca355efe469b1db35a6340d9aa6"}], "txid": "5f0ebef2bb9ca77c656ca9eeb5d338a01961f210e6acd9ba683484e4336dca51", "blocktime": 1537873282, "version": 1, "confirmations": 11484, "time": 1537873282, "locktime": 0, "vsize": 205, "size": 370}