{"hash": "5f1aa14d5f227780dc9188a76f3992f05b8a71ecc163a1890c7735944ee91aff", "blockhash": "000000000000000000022b45ed06c6f4ccd3cf7fb5ba4856ebd2e58215665228", "vout": [{"scriptPubKey": {"reqSigs": 1, "hex": "76a91487031f98ea634a7ca852e023061cf8867947c71888ac", "addresses": ["1DJsxvAXBBHtBwXPkkmFzDt6B8HG35UBX9"], "asm": "OP_DUP OP_HASH160 87031f98ea634a7ca852e023061cf8867947c718 OP_EQUALVERIFY OP_CHECKSIG", "type": "pubkeyhash"}, "value": 0.0018844, "n": 0}], "hex": "010000000512ea939be5ad05a9d6452dc1127dbf95454020b7370097df7fae98e591aab423000000006b4830450221009a0d1db6ce295ef04cf08cf3b60415566dd7d5e5c03cbbe909cb414483d0d54002205ef93a3645b1997df628ebf3836fdb034f1b37cf39907ebb2573f7634358742901210217a2b39e4dce87bbd01271a7ac6da26d9f7d7e9de3033df46212b749b39290aeffffffffdd1bfc84759dba92f28c5c3ffff49f06e739dc4637792b32a6d7fd2e53738a34000000006b483045022100b9e2aecc2861e1d7e02ddb39c3c618bfaa05ab8a4bf8144d13204c6162b8700302201dfe9a00520729653ebd6f8fc9a3f2223e1adfa46cdcdf3ce2bfa3f185436be501210217a2b39e4dce87bbd01271a7ac6da26d9f7d7e9de3033df46212b749b39290aeffffffff4aaeab000b03a5fb3784bb427fa081a74c1903b58723c51a962cba9719184a7f000000006b483045022100c48328bdf7f0c60e175bbb04d278572b07213faa9840b0f11b4d76b847ac987802201bdf74c00365e6be32a9d24467f7057f8fa17e8369fb208f2533e27c77e26064012103aec65d66221a46775ff6a93501bb2536ed8f7bdc987c6adb55715b7443be8028ffffffffc05d4453f36354b6639b196757519a44187dd3e2f43eff1728b3f024399c89bf000000006a47304402203b9aa0f0631de5a45eb74f8dd133b7cd7e054639688968d33d5737f7978fcedb022034647307ee80d566b8f892613302dc80e4c8d5535deebde42e2f05b93de37f89012102cdf0134b5b70eedc986fcb7c9fa9eaaa2c95529a6a1652f73582bfa1e3531d52ffffffffb5e9f810760aa5b782fb0bbee68eea1e8d10f3092a2acbad3d758c7ff26db6ed000000006a47304402204cdbc33a9a616fe85f81ab7f176a0e29f6f0a72f17c40860583b919f77cbc5ed022007f9ea64de5308f17c0fa274f06d12f6ac1c5a7c1870fe403d153bfba21f02d0012102622c9ddd45ba1b27660f24ec47acfd3176f013309bddb0f92ae180f6f03ecca0ffffffff0118e00200000000001976a91487031f98ea634a7ca852e023061cf8867947c71888ac00000000", "vin": [{"sequence": 4294967295, "scriptSig": {"hex": "4830450221009a0d1db6ce295ef04cf08cf3b60415566dd7d5e5c03cbbe909cb414483d0d54002205ef93a3645b1997df628ebf3836fdb034f1b37cf39907ebb2573f7634358742901210217a2b39e4dce87bbd01271a7ac6da26d9f7d7e9de3033df46212b749b39290ae", "asm": "30450221009a0d1db6ce295ef04cf08cf3b60415566dd7d5e5c03cbbe909cb414483d0d54002205ef93a3645b1997df628ebf3836fdb034f1b37cf39907ebb2573f76343587429[ALL] 0217a2b39e4dce87bbd01271a7ac6da26d9f7d7e9de3033df46212b749b39290ae"}, "vout": 0, "txid": "23b4aa91e598ae7fdf970037b720404595bf7d12c12d45d6a905ade59b93ea12"}, {"sequence": 4294967295, "scriptSig": {"hex": "483045022100b9e2aecc2861e1d7e02ddb39c3c618bfaa05ab8a4bf8144d13204c6162b8700302201dfe9a00520729653ebd6f8fc9a3f2223e1adfa46cdcdf3ce2bfa3f185436be501210217a2b39e4dce87bbd01271a7ac6da26d9f7d7e9de3033df46212b749b39290ae", "asm": "3045022100b9e2aecc2861e1d7e02ddb39c3c618bfaa05ab8a4bf8144d13204c6162b8700302201dfe9a00520729653ebd6f8fc9a3f2223e1adfa46cdcdf3ce2bfa3f185436be5[ALL] 0217a2b39e4dce87bbd01271a7ac6da26d9f7d7e9de3033df46212b749b39290ae"}, "vout": 0, "txid": "348a73532efdd7a6322b793746dc39e7069ff4ff3f5c8cf292ba9d7584fc1bdd"}, {"sequence": 4294967295, "scriptSig": {"hex": "483045022100c48328bdf7f0c60e175bbb04d278572b07213faa9840b0f11b4d76b847ac987802201bdf74c00365e6be32a9d24467f7057f8fa17e8369fb208f2533e27c77e26064012103aec65d66221a46775ff6a93501bb2536ed8f7bdc987c6adb55715b7443be8028", "asm": "3045022100c48328bdf7f0c60e175bbb04d278572b07213faa9840b0f11b4d76b847ac987802201bdf74c00365e6be32a9d24467f7057f8fa17e8369fb208f2533e27c77e26064[ALL] 03aec65d66221a46775ff6a93501bb2536ed8f7bdc987c6adb55715b7443be8028"}, "vout": 0, "txid": "7f4a181997ba2c961ac52387b503194ca781a07f42bb8437fba5030b00abae4a"}, {"sequence": 4294967295, "scriptSig": {"hex": "47304402203b9aa0f0631de5a45eb74f8dd133b7cd7e054639688968d33d5737f7978fcedb022034647307ee80d566b8f892613302dc80e4c8d5535deebde42e2f05b93de37f89012102cdf0134b5b70eedc986fcb7c9fa9eaaa2c95529a6a1652f73582bfa1e3531d52", "asm": "304402203b9aa0f0631de5a45eb74f8dd133b7cd7e054639688968d33d5737f7978fcedb022034647307ee80d566b8f892613302dc80e4c8d5535deebde42e2f05b93de37f89[ALL] 02cdf0134b5b70eedc986fcb7c9fa9eaaa2c95529a6a1652f73582bfa1e3531d52"}, "vout": 0, "txid": "bf899c3924f0b32817ff3ef4e2d37d18449a515767199b63b65463f353445dc0"}, {"sequence": 4294967295, "scriptSig": {"hex": "47304402204cdbc33a9a616fe85f81ab7f176a0e29f6f0a72f17c40860583b919f77cbc5ed022007f9ea64de5308f17c0fa274f06d12f6ac1c5a7c1870fe403d153bfba21f02d0012102622c9ddd45ba1b27660f24ec47acfd3176f013309bddb0f92ae180f6f03ecca0", "asm": "304402204cdbc33a9a616fe85f81ab7f176a0e29f6f0a72f17c40860583b919f77cbc5ed022007f9ea64de5308f17c0fa274f06d12f6ac1c5a7c1870fe403d153bfba21f02d0[ALL] 02622c9ddd45ba1b27660f24ec47acfd3176f013309bddb0f92ae180f6f03ecca0"}, "vout": 0, "txid": "edb66df27f8c753dadcb2a2a09f3108d1eea8ee6be0bfb82b7a50a7610f8e9b5"}], "txid": "5f1aa14d5f227780dc9188a76f3992f05b8a71ecc163a1890c7735944ee91aff", "blocktime": 1537869901, "version": 1, "confirmations": 11523, "time": 1537869901, "locktime": 0, "vsize": 782, "size": 782}