{"hash": "5f21cf75a4548f955b709f844b42ce7002f21e5fdee9920adfc7ab2f14627499", "blockhash": "0000000000000000000dcc0f55137456b1a82d3642486a52398922ac4d620174", "vout": [{"scriptPubKey": {"reqSigs": 1, "hex": "76a914d12c0a53cd358dc2a67a263d7f0134e808a22f7188ac", "addresses": ["1L4zz51VCPLboMSCcf4W7EPLm7C7LysXDm"], "asm": "OP_DUP OP_HASH160 d12c0a53cd358dc2a67a263d7f0134e808a22f71 OP_EQUALVERIFY OP_CHECKSIG", "type": "pubkeyhash"}, "value": 0.00647587, "n": 0}, {"scriptPubKey": {"type": "nulldata", "hex": "6a4c500000776f000112f8452c5b38a7364635eee886aeaeacb577c031fc3a016b46dc7dc7d09625fb35ad359642ae4a8f9103999f387a5baa08e406135f52030704d01d100759d4ba30d2c37bb011d97e02cf", "asm": "OP_RETURN 0000776f000112f8452c5b38a7364635eee886aeaeacb577c031fc3a016b46dc7dc7d09625fb35ad359642ae4a8f9103999f387a5baa08e406135f52030704d01d100759d4ba30d2c37bb011d97e02cf"}, "value": 0.0, "n": 1}], "hex": "0100000001b2c4259c5f1033e75c979b03878f261865646ef017a2b5aa7e7fc1c5fb13a9ee000000006b483045022100d1b182719cd45ffa6728e4028b656f48ceb615d26ec97aa811619adf9e88fca4022023cc4b296dd47e8a42c7f10f331fe5bb115519f75361d3fd7ec6b2febc09e09b012102a06535a9a748ade51b33d80dabb6825dd79b801a2edcf4092fe236529b6e1e43ffffffff02a3e10900000000001976a914d12c0a53cd358dc2a67a263d7f0134e808a22f7188ac0000000000000000536a4c500000776f000112f8452c5b38a7364635eee886aeaeacb577c031fc3a016b46dc7dc7d09625fb35ad359642ae4a8f9103999f387a5baa08e406135f52030704d01d100759d4ba30d2c37bb011d97e02cf00000000", "vin": [{"sequence": 4294967295, "scriptSig": {"hex": "483045022100d1b182719cd45ffa6728e4028b656f48ceb615d26ec97aa811619adf9e88fca4022023cc4b296dd47e8a42c7f10f331fe5bb115519f75361d3fd7ec6b2febc09e09b012102a06535a9a748ade51b33d80dabb6825dd79b801a2edcf4092fe236529b6e1e43", "asm": "3045022100d1b182719cd45ffa6728e4028b656f48ceb615d26ec97aa811619adf9e88fca4022023cc4b296dd47e8a42c7f10f331fe5bb115519f75361d3fd7ec6b2febc09e09b[ALL] 02a06535a9a748ade51b33d80dabb6825dd79b801a2edcf4092fe236529b6e1e43"}, "vout": 0, "txid": "eea913fbc5c17f7eaab5a217f06e646518268f87039b975ce733105f9c25c4b2"}], "txid": "5f21cf75a4548f955b709f844b42ce7002f21e5fdee9920adfc7ab2f14627499", "blocktime": 1537870268, "version": 1, "confirmations": 11518, "time": 1537870268, "locktime": 0, "vsize": 284, "size": 284}