{"hash": "5f21f0c1249a94c6a66a149043eda5d6f26ef8dde04c64d1a0eb1350c2dadf28", "blockhash": "0000000000000000001e0dab787dd257d1dbfcb92a98c2207d5e1078be1f4165", "vout": [{"scriptPubKey": {"reqSigs": 1, "hex": "76a914f0aae11add6b885814793320bc31776c9792aa0c88ac", "addresses": ["1NwXswf1no8fWm2CbhTgy8Yat7M3pHSBa2"], "asm": "OP_DUP OP_HASH160 f0aae11add6b885814793320bc31776c9792aa0c OP_EQUALVERIFY OP_CHECKSIG", "type": "pubkeyhash"}, "value": 5.53e-06, "n": 0}, {"scriptPubKey": {"reqSigs": 1, "hex": "76a914e618347720b9eaacefb0207f2aa0cde4630f9e6688ac", "addresses": ["1MydQumuraHS2XGTgxUyFx2fBUNtBM8FpU"], "asm": "OP_DUP OP_HASH160 e618347720b9eaacefb0207f2aa0cde4630f9e66 OP_EQUALVERIFY OP_CHECKSIG", "type": "pubkeyhash"}, "value": 0.00295066, "n": 1}], "hex": "010000000315cf0847755596a6d3b635e669e47551ca34f11a3177af62240ad022a8555148000000006b483045022100bda97f97fbcbe6481f9804ccdb8451f9a171cb1dd90005635c496786fe9161c802201f45559ad845a21157bece8e49b7bbf67adca41fdf980296f4b9799fb2ed7776012102b88d8bd1c5430e72dbca06034844db1422e5ddd48a444b915e63cdc9b74d1b5bffffffff12f7ce30474a95171b8619bbbff895f5e9e642765bf2dac0640bd11db04fa559000000006b483045022100b32f014e65d1c76fe38a90e6872957889bd07b54ede36af8842dbc61ded0bb7d02202d8f9294515b6b144c2d0521b419fe649af7c81c5fbc6c1706550fbbdbc7b7fa0121030956243ebc15987653fa2436899e4c65b93a61e17059d5f805252daf1828d5ccffffffffb4660b5ee8fbe24becad31b8f497395ba6b095908efb67708ad8d33b5522a1d8000000006b483045022100aef9fac33006a6c31151710c17e4d44f7966a8e0c6f36b9ad97d13fa66abee8702202d2a4d46d1db5f79d486de16693cae9a9371131afd8f07ee69570fe70282ed4b012103eee0fbdbb7955337536e733ce17cd0809b67d54e3af1828b711da12cbbe81174ffffffff0229020000000000001976a914f0aae11add6b885814793320bc31776c9792aa0c88ac9a800400000000001976a914e618347720b9eaacefb0207f2aa0cde4630f9e6688ac00000000", "vin": [{"sequence": 4294967295, "scriptSig": {"hex": "483045022100bda97f97fbcbe6481f9804ccdb8451f9a171cb1dd90005635c496786fe9161c802201f45559ad845a21157bece8e49b7bbf67adca41fdf980296f4b9799fb2ed7776012102b88d8bd1c5430e72dbca06034844db1422e5ddd48a444b915e63cdc9b74d1b5b", "asm": "3045022100bda97f97fbcbe6481f9804ccdb8451f9a171cb1dd90005635c496786fe9161c802201f45559ad845a21157bece8e49b7bbf67adca41fdf980296f4b9799fb2ed7776[ALL] 02b88d8bd1c5430e72dbca06034844db1422e5ddd48a444b915e63cdc9b74d1b5b"}, "vout": 0, "txid": "485155a822d00a2462af77311af134ca5175e469e635b6d3a69655754708cf15"}, {"sequence": 4294967295, "scriptSig": {"hex": "483045022100b32f014e65d1c76fe38a90e6872957889bd07b54ede36af8842dbc61ded0bb7d02202d8f9294515b6b144c2d0521b419fe649af7c81c5fbc6c1706550fbbdbc7b7fa0121030956243ebc15987653fa2436899e4c65b93a61e17059d5f805252daf1828d5cc", "asm": "3045022100b32f014e65d1c76fe38a90e6872957889bd07b54ede36af8842dbc61ded0bb7d02202d8f9294515b6b144c2d0521b419fe649af7c81c5fbc6c1706550fbbdbc7b7fa[ALL] 030956243ebc15987653fa2436899e4c65b93a61e17059d5f805252daf1828d5cc"}, "vout": 0, "txid": "59a54fb01dd10b64c0daf25b7642e6e9f595f8bfbb19861b17954a4730cef712"}, {"sequence": 4294967295, "scriptSig": {"hex": "483045022100aef9fac33006a6c31151710c17e4d44f7966a8e0c6f36b9ad97d13fa66abee8702202d2a4d46d1db5f79d486de16693cae9a9371131afd8f07ee69570fe70282ed4b012103eee0fbdbb7955337536e733ce17cd0809b67d54e3af1828b711da12cbbe81174", "asm": "3045022100aef9fac33006a6c31151710c17e4d44f7966a8e0c6f36b9ad97d13fa66abee8702202d2a4d46d1db5f79d486de16693cae9a9371131afd8f07ee69570fe70282ed4b[ALL] 03eee0fbdbb7955337536e733ce17cd0809b67d54e3af1828b711da12cbbe81174"}, "vout": 0, "txid": "d8a122553bd3d88a7067fb8e9095b0a65b3997f4b831adec4be2fbe85e0b66b4"}], "txid": "5f21f0c1249a94c6a66a149043eda5d6f26ef8dde04c64d1a0eb1350c2dadf28", "blocktime": 1537872475, "version": 1, "confirmations": 11487, "time": 1537872475, "locktime": 0, "vsize": 522, "size": 522}