{"hash": "5f3110f0210afdd14ddcd8d20d7be888fc7a807d5eebfa5e0843455408c7e223", "blockhash": "000000000000000000205f8b0775d31398ef75b89a5e8ec8d2c57b4dc0ac4c20", "vout": [{"scriptPubKey": {"reqSigs": 1, "hex": "76a914a25dec4d0011064ef106a983c39c7a540699f22088ac", "addresses": ["1FoWyxwPXuj4C6abqwhjDWdz6D4PZgYRjA"], "asm": "OP_DUP OP_HASH160 a25dec4d0011064ef106a983c39c7a540699f220 OP_EQUALVERIFY OP_CHECKSIG", "type": "pubkeyhash"}, "value": 0.01990415, "n": 0}, {"scriptPubKey": {"type": "nulldata", "hex": "6a146f6d6e69000000000000001f000000f16c0e6100", "asm": "OP_RETURN 6f6d6e69000000000000001f000000f16c0e6100"}, "value": 0.0, "n": 1}, {"scriptPubKey": {"reqSigs": 1, "hex": "a914efb192e0a32c4afc8c8dc14ea61088452fd5756987", "addresses": ["3PYQ9Rx7bpXoo3UCRftSxo8bN8vRQ24sMm"], "asm": "OP_HASH160 efb192e0a32c4afc8c8dc14ea61088452fd57569 OP_EQUAL", "type": "scripthash"}, "value": 5.4e-06, "n": 2}], "hex": "01000000019e9fa36215aa047a4b02eb79c30beda62c539fe4737fddfe4ec87d61d2ab1fdb020000006a473044022053888b9ce78118e22702c2d2cecaebab0fb2bbd54273d1d60b331448cc54ff49022026851f135b5461b0004a11ca83e57e33f1960fefe429650129855e0e05219760012103da5bac7b36d5aa38f531c6b9601e21bb598a4b6716ebed38b009a55dabde9440feffffff030f5f1e00000000001976a914a25dec4d0011064ef106a983c39c7a540699f22088ac0000000000000000166a146f6d6e69000000000000001f000000f16c0e61001c0200000000000017a914efb192e0a32c4afc8c8dc14ea61088452fd57569870f490800", "vin": [{"sequence": 4294967294, "scriptSig": {"hex": "473044022053888b9ce78118e22702c2d2cecaebab0fb2bbd54273d1d60b331448cc54ff49022026851f135b5461b0004a11ca83e57e33f1960fefe429650129855e0e05219760012103da5bac7b36d5aa38f531c6b9601e21bb598a4b6716ebed38b009a55dabde9440", "asm": "3044022053888b9ce78118e22702c2d2cecaebab0fb2bbd54273d1d60b331448cc54ff49022026851f135b5461b0004a11ca83e57e33f1960fefe429650129855e0e05219760[ALL] 03da5bac7b36d5aa38f531c6b9601e21bb598a4b6716ebed38b009a55dabde9440"}, "vout": 2, "txid": "db1fabd2617dc84efedd7f73e49f532ca6ed0bc379eb024b7a04aa1562a39f9e"}], "txid": "5f3110f0210afdd14ddcd8d20d7be888fc7a807d5eebfa5e0843455408c7e223", "blocktime": 1537871175, "version": 1, "confirmations": 11511, "time": 1537871175, "locktime": 542991, "vsize": 254, "size": 254}