{"hash": "5f32455161a9f1e817cd135cc05cb0f0eb4e234ed1404a0b6e8f8494270fc317", "blockhash": "0000000000000000000e13cef7c366c0283d82e591d1acd082e914b08063cdf1", "vout": [{"scriptPubKey": {"reqSigs": 1, "hex": "76a9140a8a5634e25ec8c27c5454a70e2b6424b34d016c88ac", "addresses": ["1xjUiyuxgawfhkQVw3YAAd6jWW2RhtxD1"], "asm": "OP_DUP OP_HASH160 0a8a5634e25ec8c27c5454a70e2b6424b34d016c OP_EQUALVERIFY OP_CHECKSIG", "type": "pubkeyhash"}, "value": 0.0154767, "n": 0}, {"scriptPubKey": {"reqSigs": 1, "hex": "76a914841c2397ab771be493e9d9161d49428941de0aae88ac", "addresses": ["1D3XuTSfzQ8bYEc7aZPJiCqdGpsDHPRYyv"], "asm": "OP_DUP OP_HASH160 841c2397ab771be493e9d9161d49428941de0aae OP_EQUALVERIFY OP_CHECKSIG", "type": "pubkeyhash"}, "value": 1.517793, "n": 1}], "hex": "0100000001bc14ea8bce788bad0ff0b7a463dae0f339ce1247e9df6c8510e151dd2132c02d010000006b483045022100a8702bf77d095de51686007bec541cb52542911d8d23a29dd223ba82390f1caf0220336f335a46b220bfa3cdfd35168361fadcdbd83ae753a61b9e05a03622e5bdb50121027472a9fedaef505eecebb15461276c735b80044177fdcfd5234c74cb3d15dd9fffffffff02969d1700000000001976a9140a8a5634e25ec8c27c5454a70e2b6424b34d016c88ace4f70b09000000001976a914841c2397ab771be493e9d9161d49428941de0aae88ac00000000", "vin": [{"sequence": 4294967295, "scriptSig": {"hex": "483045022100a8702bf77d095de51686007bec541cb52542911d8d23a29dd223ba82390f1caf0220336f335a46b220bfa3cdfd35168361fadcdbd83ae753a61b9e05a03622e5bdb50121027472a9fedaef505eecebb15461276c735b80044177fdcfd5234c74cb3d15dd9f", "asm": "3045022100a8702bf77d095de51686007bec541cb52542911d8d23a29dd223ba82390f1caf0220336f335a46b220bfa3cdfd35168361fadcdbd83ae753a61b9e05a03622e5bdb5[ALL] 027472a9fedaef505eecebb15461276c735b80044177fdcfd5234c74cb3d15dd9f"}, "vout": 1, "txid": "2dc03221dd51e110856cdfe94712ce39f3e0da63a4b7f00fad8b78ce8bea14bc"}], "txid": "5f32455161a9f1e817cd135cc05cb0f0eb4e234ed1404a0b6e8f8494270fc317", "blocktime": 1537871767, "version": 1, "confirmations": 11495, "time": 1537871767, "locktime": 0, "vsize": 226, "size": 226}