{"hash": "5f3452f9c50cf24dcff95a22da57d35ab48e38c498287fc41d6b44319b140b0d", "blockhash": "0000000000000000000dcc0f55137456b1a82d3642486a52398922ac4d620174", "vout": [{"scriptPubKey": {"reqSigs": 1, "hex": "76a9141ee6ba134591905c270490a14c6287c6ab66aa8b88ac", "addresses": ["13pPfwQGii2BCifFm6nvToUMjAB7W2XCWq"], "asm": "OP_DUP OP_HASH160 1ee6ba134591905c270490a14c6287c6ab66aa8b OP_EQUALVERIFY OP_CHECKSIG", "type": "pubkeyhash"}, "value": 0.00281104, "n": 0}, {"scriptPubKey": {"reqSigs": 1, "hex": "0014444791d48917e5f12a89a62cd7e3ecb9a81adfc8", "addresses": ["bc1qg3rer4yfzljlz25f5ckd0clvhx5p4h7g9h0cy5"], "asm": "0 444791d48917e5f12a89a62cd7e3ecb9a81adfc8", "type": "witness_v0_keyhash"}, "value": 5.112e-05, "n": 1}], "hex": "010000000193e0fe580ab3cdc06769c278255078c1bfea891b905282b166045524b3c9fef5000000006a47304402201efbd9f2ac090644cdf870542102fe61e641590d581b423ec4ebd919e5165c2d02204e5af0c8f10bf5014725cb04e554997c749684187b5f66dd742f455390c81427012102f10c182df21f6ffb60de4f390ae97500053633b3d65be1e18185a1715af28f7cffffffff02104a0400000000001976a9141ee6ba134591905c270490a14c6287c6ab66aa8b88acf813000000000000160014444791d48917e5f12a89a62cd7e3ecb9a81adfc800000000", "vin": [{"sequence": 4294967295, "scriptSig": {"hex": "47304402201efbd9f2ac090644cdf870542102fe61e641590d581b423ec4ebd919e5165c2d02204e5af0c8f10bf5014725cb04e554997c749684187b5f66dd742f455390c81427012102f10c182df21f6ffb60de4f390ae97500053633b3d65be1e18185a1715af28f7c", "asm": "304402201efbd9f2ac090644cdf870542102fe61e641590d581b423ec4ebd919e5165c2d02204e5af0c8f10bf5014725cb04e554997c749684187b5f66dd742f455390c81427[ALL] 02f10c182df21f6ffb60de4f390ae97500053633b3d65be1e18185a1715af28f7c"}, "vout": 0, "txid": "f5fec9b324550466b18252901b89eabfc178502578c26967c0cdb30a58fee093"}], "txid": "5f3452f9c50cf24dcff95a22da57d35ab48e38c498287fc41d6b44319b140b0d", "blocktime": 1537870268, "version": 1, "confirmations": 11518, "time": 1537870268, "locktime": 0, "vsize": 222, "size": 222}