{"hash": "5f3758d5983e71d42dfb0963652b53ef0c86a9085ed4b48cdbdf267dff158107", "blockhash": "0000000000000000001e0dab787dd257d1dbfcb92a98c2207d5e1078be1f4165", "vout": [{"scriptPubKey": {"type": "nulldata", "hex": "6a4c50000077ab0001de4825a21dd09bb4255e0444af6c953dd567cf27e7e3ef3236678a625097ab00a67cb3161ad038029740894688805baa103a0612e31d5a47cc75bc9a9526289ac0f6612cd74e33776ee4", "asm": "OP_RETURN 000077ab0001de4825a21dd09bb4255e0444af6c953dd567cf27e7e3ef3236678a625097ab00a67cb3161ad038029740894688805baa103a0612e31d5a47cc75bc9a9526289ac0f6612cd74e33776ee4"}, "value": 0.0, "n": 0}, {"scriptPubKey": {"reqSigs": 1, "hex": "76a914f1fa700a5237d6a7dbe6f5ae0fc5f9ca9fed64d688ac", "addresses": ["1P4TrwnjLrfi2jWJ3MwfUXak8WnLH7ppL2"], "asm": "OP_DUP OP_HASH160 f1fa700a5237d6a7dbe6f5ae0fc5f9ca9fed64d6 OP_EQUALVERIFY OP_CHECKSIG", "type": "pubkeyhash"}, "value": 0.000961, "n": 1}], "hex": "01000000015a642f6f7561510f5fc710966fb5788976960a293d732a1461361187d277085b010000006b483045022100d998297d57a3e3fd705336d96b92f61045254a162d4cf74509b6c7c67c59f620022029413e96ae41485e3b68a68c55161dfe73869006bb5d010ae82a541df2562230012103944f65c27b9c57ff6d1cf7231440e995cf161b06484b60d219172ae8e140edd2ffffffff020000000000000000536a4c50000077ab0001de4825a21dd09bb4255e0444af6c953dd567cf27e7e3ef3236678a625097ab00a67cb3161ad038029740894688805baa103a0612e31d5a47cc75bc9a9526289ac0f6612cd74e33776ee464770100000000001976a914f1fa700a5237d6a7dbe6f5ae0fc5f9ca9fed64d688ac00000000", "vin": [{"sequence": 4294967295, "scriptSig": {"hex": "483045022100d998297d57a3e3fd705336d96b92f61045254a162d4cf74509b6c7c67c59f620022029413e96ae41485e3b68a68c55161dfe73869006bb5d010ae82a541df2562230012103944f65c27b9c57ff6d1cf7231440e995cf161b06484b60d219172ae8e140edd2", "asm": "3045022100d998297d57a3e3fd705336d96b92f61045254a162d4cf74509b6c7c67c59f620022029413e96ae41485e3b68a68c55161dfe73869006bb5d010ae82a541df2562230[ALL] 03944f65c27b9c57ff6d1cf7231440e995cf161b06484b60d219172ae8e140edd2"}, "vout": 1, "txid": "5b0877d287113661142a733d290a96768978b56f9610c75f0f5161756f2f645a"}], "txid": "5f3758d5983e71d42dfb0963652b53ef0c86a9085ed4b48cdbdf267dff158107", "blocktime": 1537872475, "version": 1, "confirmations": 11486, "time": 1537872475, "locktime": 0, "vsize": 284, "size": 284}