{"hash": "d2ada95b658b416df29a0ec6dd4393502df1191b7eb05a29434705f44121907f", "blockhash": "00000000000000000024a2167bbff67b0be802c0b01cdd79e6331c2be6459f87", "vout": [{"scriptPubKey": {"reqSigs": 1, "hex": "00140f275015807de273985bfedd96b1dcdd4d977c20", "addresses": ["bc1qpun4q9vq0h388xzmlmwedvwum4xewlpqsyv84p"], "asm": "0 0f275015807de273985bfedd96b1dcdd4d977c20", "type": "witness_v0_keyhash"}, "value": 0.02199412, "n": 0}, {"scriptPubKey": {"reqSigs": 1, "hex": "76a9148c31b9e4e3206eafaeca3a04f2089758653492d288ac", "addresses": ["1DnHAtbmvXCQiGWcML5J5Rgspzg3ybwfGy"], "asm": "OP_DUP OP_HASH160 8c31b9e4e3206eafaeca3a04f2089758653492d2 OP_EQUALVERIFY OP_CHECKSIG", "type": "pubkeyhash"}, "value": 0.1, "n": 1}], "hex": "010000000001010e245193148239fae2a639546f6d311b59e6931fdf72ecc58e6d1869e6f5da1c00000000171600149634b346b69bff2c7030d058eaebcf461e00cf89ffffffff02748f2100000000001600140f275015807de273985bfedd96b1dcdd4d977c2080969800000000001976a9148c31b9e4e3206eafaeca3a04f2089758653492d288ac0248304502210085ff38e54e874b78a292317ac4b1287eaf3a094e255bbe17d2a72bd173cbf9b1022063fb5f04bc5959ceeacfa3e50fc91138dc397940680494031c67ca7ab4e9ac12012102f2db72a0e19a5370f4eab2ed5bfb7794797da774f0698b39e17bc0dc9973f28800000000", "vin": [{"txinwitness": ["304502210085ff38e54e874b78a292317ac4b1287eaf3a094e255bbe17d2a72bd173cbf9b1022063fb5f04bc5959ceeacfa3e50fc91138dc397940680494031c67ca7ab4e9ac1201", "02f2db72a0e19a5370f4eab2ed5bfb7794797da774f0698b39e17bc0dc9973f288"], "sequence": 4294967295, "scriptSig": {"hex": "1600149634b346b69bff2c7030d058eaebcf461e00cf89", "asm": "00149634b346b69bff2c7030d058eaebcf461e00cf89"}, "vout": 0, "txid": "1cdaf5e669186d8ec5ec72df1f93e6591b316d6f5439a6e2fa3982149351240e"}], "txid": "5f38005313e4f8275b6b67186fae6168ce9615dc0ded4d3fedb205bf6ce954cd", "blocktime": 1537870564, "version": 1, "confirmations": 11515, "time": 1537870564, "locktime": 0, "vsize": 167, "size": 249}