{"hash": "5f3803986e0b5818eb9e34faa9a6767a573fa19e3c931d14f783ea3244f07bbb", "blockhash": "0000000000000000001f76057863aec43deb6fa401d9628bb513d65a8098bfab", "vout": [{"scriptPubKey": {"type": "nulldata", "hex": "6a2e0453473b3ecaad7fe55cfe1375c380523c8148dbe55f22595935e926ff7c20b35b95d72f4d6c2571289dcf583d31", "asm": "OP_RETURN 0453473b3ecaad7fe55cfe1375c380523c8148dbe55f22595935e926ff7c20b35b95d72f4d6c2571289dcf583d31"}, "value": 0.0, "n": 0}, {"scriptPubKey": {"reqSigs": 1, "hex": "76a91421543fc4caacc7de000a14dd527a8e970444f50888ac", "addresses": ["143EE4VhVwJqvrL3ga2aPwif274EzgGRa7"], "asm": "OP_DUP OP_HASH160 21543fc4caacc7de000a14dd527a8e970444f508 OP_EQUALVERIFY OP_CHECKSIG", "type": "pubkeyhash"}, "value": 0.02931018, "n": 1}], "hex": "0100000001a06ebb377a6c01deb715403be6f77a49ca326e282ac575d1c1c20d38291f3e5a010000006b483045022100fb49c60ca2919d13efca0932b04ec3df105be61556f39cc95846d820701b068f022037d4145b62bd65cc71dbdbcb431c537e693a8d3c0ca761f90f41160e82a7e29f0121034526b809bb9579aed7ea1582a60fc0b587b03c0aab81cab7f7398c5c0ced302cfdffffff020000000000000000306a2e0453473b3ecaad7fe55cfe1375c380523c8148dbe55f22595935e926ff7c20b35b95d72f4d6c2571289dcf583d314ab92c00000000001976a91421543fc4caacc7de000a14dd527a8e970444f50888ac00000000", "vin": [{"sequence": 4294967293, "scriptSig": {"hex": "483045022100fb49c60ca2919d13efca0932b04ec3df105be61556f39cc95846d820701b068f022037d4145b62bd65cc71dbdbcb431c537e693a8d3c0ca761f90f41160e82a7e29f0121034526b809bb9579aed7ea1582a60fc0b587b03c0aab81cab7f7398c5c0ced302c", "asm": "3045022100fb49c60ca2919d13efca0932b04ec3df105be61556f39cc95846d820701b068f022037d4145b62bd65cc71dbdbcb431c537e693a8d3c0ca761f90f41160e82a7e29f[ALL] 034526b809bb9579aed7ea1582a60fc0b587b03c0aab81cab7f7398c5c0ced302c"}, "vout": 1, "txid": "5a3e1f29380dc2c1d175c52a286e32ca497af7e63b4015b7de016c7a37bb6ea0"}], "txid": "5f3803986e0b5818eb9e34faa9a6767a573fa19e3c931d14f783ea3244f07bbb", "blocktime": 1537873891, "version": 1, "confirmations": 11474, "time": 1537873891, "locktime": 0, "vsize": 249, "size": 249}