{"hash": "e8a9d7124eb6c2e04c7e9b6a7ae8efe464c33c79a72c6c8e095a4b35b2c2764e", "blockhash": "0000000000000000001cda96e906b7601b7a6fb1a3b62bca570a9e5d8f4b3de1", "vout": [{"scriptPubKey": {"reqSigs": 1, "hex": "a91469f375333f817e66982cd528b010fd395b2c52b287", "addresses": ["3BMEXRyN19RPBEbpNC5ynhm8ySd4RDMeVg"], "asm": "OP_HASH160 69f375333f817e66982cd528b010fd395b2c52b2 OP_EQUAL", "type": "scripthash"}, "value": 0.01359218, "n": 0}, {"scriptPubKey": {"reqSigs": 1, "hex": "a914671a1f77d523e17c1548fdce11ccf75e5c35567087", "addresses": ["3B6ApMXcf9afjk9btYP9qBYynzdyFV2WB7"], "asm": "OP_HASH160 671a1f77d523e17c1548fdce11ccf75e5c355670 OP_EQUAL", "type": "scripthash"}, "value": 0.01831532, "n": 1}], "hex": "02000000000101bca2f1d18ae416aa786934320b4b15523584a721ac18c3ab30e72043ec7541d4000000001716001435d60c076dc1bc629cada477c5c454188a0b8c85feffffff0272bd14000000000017a91469f375333f817e66982cd528b010fd395b2c52b2876cf21b000000000017a914671a1f77d523e17c1548fdce11ccf75e5c3556708702483045022100f469b118b0085d73efd245346a1e6d94c44c59a576a889803fa7164c121e023702201dab475700e85d0804ff8c3823521458a172d319599f7341f7b6d35f39797d810121035d5892b46408ebbb0441e851ad104e296c48ead2d9f43f108ca2c6a1eefdeb3413490800", "vin": [{"txinwitness": ["3045022100f469b118b0085d73efd245346a1e6d94c44c59a576a889803fa7164c121e023702201dab475700e85d0804ff8c3823521458a172d319599f7341f7b6d35f39797d8101", "035d5892b46408ebbb0441e851ad104e296c48ead2d9f43f108ca2c6a1eefdeb34"], "sequence": 4294967294, "scriptSig": {"hex": "16001435d60c076dc1bc629cada477c5c454188a0b8c85", "asm": "001435d60c076dc1bc629cada477c5c454188a0b8c85"}, "vout": 0, "txid": "d44175ec4320e730abc318ac21a7843552154b0b32346978aa16e48ad1f1a2bc"}], "txid": "5f3e6af1338ecdd2a6659102726dc8bed368d8f7abd23287be87f4fd4d88d5a9", "blocktime": 1537873282, "version": 2, "confirmations": 11480, "time": 1537873282, "locktime": 542995, "vsize": 166, "size": 248}