{"hash": "5f523afcd9e6ad07686ec5144eaba2183e96eab45016aec412e63769baf663fb", "blockhash": "0000000000000000001e0dab787dd257d1dbfcb92a98c2207d5e1078be1f4165", "vout": [{"scriptPubKey": {"reqSigs": 1, "hex": "76a9141268d3ba8986fd0d498fd93b3d0c55e2d05b0af988ac", "addresses": ["12gLjxyf6yLq5pNNhr1rgmBHESwYZYeQYt"], "asm": "OP_DUP OP_HASH160 1268d3ba8986fd0d498fd93b3d0c55e2d05b0af9 OP_EQUALVERIFY OP_CHECKSIG", "type": "pubkeyhash"}, "value": 0.00111618, "n": 0}, {"scriptPubKey": {"reqSigs": 1, "hex": "76a9144672f5dc252b717df5454b0122d290446e48217288ac", "addresses": ["17RW21w7baexAynGEJeVj1jKWVZrMTv3rN"], "asm": "OP_DUP OP_HASH160 4672f5dc252b717df5454b0122d290446e482172 OP_EQUALVERIFY OP_CHECKSIG", "type": "pubkeyhash"}, "value": 0.0031246, "n": 1}], "hex": "0100000001a11756dbd9526a378e89d88b4b75692ac43ba1d74f4a920f3698faf82537a293010000006a47304402207622f72038a69928b8442ed29f1e4e6a226cd2baf394c3b7cada7ff08c61b2eb02202cd0e3673b9cce3d23326c6de582e9a80faf61fe47680fb78d54428d2ef39c2d0121028c344f58e3c0ff3af8db5c300ce23b31f523e04d41130404f382fc363639be0dfdffffff0202b40100000000001976a9141268d3ba8986fd0d498fd93b3d0c55e2d05b0af988ac8cc40400000000001976a9144672f5dc252b717df5454b0122d290446e48217288ac12490800", "vin": [{"sequence": 4294967293, "scriptSig": {"hex": "47304402207622f72038a69928b8442ed29f1e4e6a226cd2baf394c3b7cada7ff08c61b2eb02202cd0e3673b9cce3d23326c6de582e9a80faf61fe47680fb78d54428d2ef39c2d0121028c344f58e3c0ff3af8db5c300ce23b31f523e04d41130404f382fc363639be0d", "asm": "304402207622f72038a69928b8442ed29f1e4e6a226cd2baf394c3b7cada7ff08c61b2eb02202cd0e3673b9cce3d23326c6de582e9a80faf61fe47680fb78d54428d2ef39c2d[ALL] 028c344f58e3c0ff3af8db5c300ce23b31f523e04d41130404f382fc363639be0d"}, "vout": 1, "txid": "93a23725f8fa98360f924a4fd7a13bc42a69754b8bd8898e376a52d9db5617a1"}], "txid": "5f523afcd9e6ad07686ec5144eaba2183e96eab45016aec412e63769baf663fb", "blocktime": 1537872475, "version": 1, "confirmations": 11486, "time": 1537872475, "locktime": 542994, "vsize": 225, "size": 225}