{"hash": "5c1acc6db3ab6ffe70cd0aa0063dd058be8d5a89801bdeb8754275608de62c46", "blockhash": "00000000000000000018f53835495a110e01622372bf6ae95dc86f2b0ab887b0", "vout": [{"scriptPubKey": {"reqSigs": 1, "hex": "76a9147dadd738d4f21502b0d9d3a6bc44712a2dac8bd988ac", "addresses": ["1CTXieJZZMyPbzmxQkSz83q7RHZUzYy1tR"], "asm": "OP_DUP OP_HASH160 7dadd738d4f21502b0d9d3a6bc44712a2dac8bd9 OP_EQUALVERIFY OP_CHECKSIG", "type": "pubkeyhash"}, "value": 0.02218512, "n": 0}, {"scriptPubKey": {"reqSigs": 1, "hex": "a914414cec0fc72a9410f6836edaf08de1aa3b2a321c87", "addresses": ["37eHzewnAFRR2SVZu8rZM3nBsmuE2XBU7D"], "asm": "OP_HASH160 414cec0fc72a9410f6836edaf08de1aa3b2a321c OP_EQUAL", "type": "scripthash"}, "value": 0.28808197, "n": 1}], "hex": "01000000000101b9ea19c44cf5c813de9bdc8d85b098daac48ec0cbcc20a4616bc29229013c5d80100000023220020ce74cde37cfb8dd71d0179287e12fc721ee236ce3c89c2745bcd365b39807eb3ffffffff0210da2100000000001976a9147dadd738d4f21502b0d9d3a6bc44712a2dac8bd988ac0594b7010000000017a914414cec0fc72a9410f6836edaf08de1aa3b2a321c870400483045022100cc514fb575b3c543f3f6bda1160e1b7193d49b6953f9dedee9da771f9c8e4933022024665edf64a29ff8e28476b639717bad081d30e8abd83ffe89508ce78d4ac42d01483045022100afaa9495edae0d7b79e9d55d489461bf7b64e8e9387e46933ab18d9a4094db8a022076f794fe2fc7597eea3d2930858a23c5b85d28b46dd83c5f40263cfdc11500330147522103ada901d90d5a76319a60f228e0b1bbc84b1d9a87238550bae5d5d190067b66712103871fc2ca08e6950b38867e8e6a0e94ee625223d3aa0df5c65f414c6d784467e252ae00000000", "vin": [{"txinwitness": ["", "3045022100cc514fb575b3c543f3f6bda1160e1b7193d49b6953f9dedee9da771f9c8e4933022024665edf64a29ff8e28476b639717bad081d30e8abd83ffe89508ce78d4ac42d01", "3045022100afaa9495edae0d7b79e9d55d489461bf7b64e8e9387e46933ab18d9a4094db8a022076f794fe2fc7597eea3d2930858a23c5b85d28b46dd83c5f40263cfdc115003301", "522103ada901d90d5a76319a60f228e0b1bbc84b1d9a87238550bae5d5d190067b66712103871fc2ca08e6950b38867e8e6a0e94ee625223d3aa0df5c65f414c6d784467e252ae"], "sequence": 4294967295, "scriptSig": {"hex": "220020ce74cde37cfb8dd71d0179287e12fc721ee236ce3c89c2745bcd365b39807eb3", "asm": "0020ce74cde37cfb8dd71d0179287e12fc721ee236ce3c89c2745bcd365b39807eb3"}, "vout": 1, "txid": "d8c513902229bc16460ac2bc0cec48acda98b0858ddc9bde13c8f54cc419eab9"}], "txid": "5f631c70213eeff2ddb9b2cdd3d31eb7e93f5d9d20ba029c697285dd4d8ab848", "blocktime": 1537870928, "version": 1, "confirmations": 11514, "time": 1537870928, "locktime": 0, "vsize": 208, "size": 374}