{"hash": "5f6878ece2c07534e41a9df954a1a302eda63a3bc8de790ecb032c85dea30d45", "blockhash": "00000000000000000018f53835495a110e01622372bf6ae95dc86f2b0ab887b0", "vout": [{"scriptPubKey": {"reqSigs": 1, "hex": "a914724d004961ef34fe782c9eafecaa88a238ede5bf87", "addresses": ["3C7PCYWKRG5dF5hzzL2BaXUKf8atWMGFDU"], "asm": "OP_HASH160 724d004961ef34fe782c9eafecaa88a238ede5bf OP_EQUAL", "type": "scripthash"}, "value": 2.553e-05, "n": 0}, {"scriptPubKey": {"reqSigs": 1, "hex": "76a9140177f9bf90a8cf1fdcb8f2345ff412193362b0ab88ac", "addresses": ["18mQEzU7j6vGtjxnALBgfcxDnP6d2GZJ6"], "asm": "OP_DUP OP_HASH160 0177f9bf90a8cf1fdcb8f2345ff412193362b0ab OP_EQUALVERIFY OP_CHECKSIG", "type": "pubkeyhash"}, "value": 0.00783075, "n": 1}], "hex": "01000000029bd7ba9cac12ccfc91bc326496133213df78d6fd4db29b3ab0631792eba40d06000000006b483045022100b6d47a6b055aa94ff6f3fa72b7c3e0d980ca2bbed88fb37f5d53abf39986de1f02203a1aee8681801343b8b04515b58840440bdf7299f653db367c98801abe54920f012102eb0f42196b18459553abf9762133bd40b8d000128e4fd3ba3826dd8160c32144fdffffffc6f83219908fb8729e93c936ee82f3afa628706ab82b753859e5d1b115eb0bc8010000006b483045022100c4246d8db4183a6b42d0d009aa33ace9514654a358a416028c0deb3fab2b4739022077a38c103b24423773e46c8257ee90ca2e6ba1b2ef3f313f2517d23cc2610d9e012102eb0f42196b18459553abf9762133bd40b8d000128e4fd3ba3826dd8160c32144fdffffff02f90900000000000017a914724d004961ef34fe782c9eafecaa88a238ede5bf87e3f20b00000000001976a9140177f9bf90a8cf1fdcb8f2345ff412193362b0ab88ac0e490800", "vin": [{"sequence": 4294967293, "scriptSig": {"hex": "483045022100b6d47a6b055aa94ff6f3fa72b7c3e0d980ca2bbed88fb37f5d53abf39986de1f02203a1aee8681801343b8b04515b58840440bdf7299f653db367c98801abe54920f012102eb0f42196b18459553abf9762133bd40b8d000128e4fd3ba3826dd8160c32144", "asm": "3045022100b6d47a6b055aa94ff6f3fa72b7c3e0d980ca2bbed88fb37f5d53abf39986de1f02203a1aee8681801343b8b04515b58840440bdf7299f653db367c98801abe54920f[ALL] 02eb0f42196b18459553abf9762133bd40b8d000128e4fd3ba3826dd8160c32144"}, "vout": 0, "txid": "060da4eb921763b03a9bb24dfdd678df133213966432bc91fccc12ac9cbad79b"}, {"sequence": 4294967293, "scriptSig": {"hex": "483045022100c4246d8db4183a6b42d0d009aa33ace9514654a358a416028c0deb3fab2b4739022077a38c103b24423773e46c8257ee90ca2e6ba1b2ef3f313f2517d23cc2610d9e012102eb0f42196b18459553abf9762133bd40b8d000128e4fd3ba3826dd8160c32144", "asm": "3045022100c4246d8db4183a6b42d0d009aa33ace9514654a358a416028c0deb3fab2b4739022077a38c103b24423773e46c8257ee90ca2e6ba1b2ef3f313f2517d23cc2610d9e[ALL] 02eb0f42196b18459553abf9762133bd40b8d000128e4fd3ba3826dd8160c32144"}, "vout": 1, "txid": "c80beb15b1d1e55938752bb86a7028a6aff382ee36c9939e72b88f901932f8c6"}], "txid": "5f6878ece2c07534e41a9df954a1a302eda63a3bc8de790ecb032c85dea30d45", "blocktime": 1537870928, "version": 1, "confirmations": 11514, "time": 1537870928, "locktime": 542990, "vsize": 372, "size": 372}