{"hash": "5f6ef3378f035fc02edac6c1833f6eb1294f5ef55b2e633fb05c6356076c738e", "blockhash": "000000000000000000022b45ed06c6f4ccd3cf7fb5ba4856ebd2e58215665228", "vout": [{"scriptPubKey": {"reqSigs": 1, "hex": "76a91475c6ef628526488d44ffa10dd90fbea486937a1a88ac", "addresses": ["1BjkNhRnRWgDuxm1gzvEKEyKhmfAEsBLjQ"], "asm": "OP_DUP OP_HASH160 75c6ef628526488d44ffa10dd90fbea486937a1a OP_EQUALVERIFY OP_CHECKSIG", "type": "pubkeyhash"}, "value": 0.00794417, "n": 0}, {"scriptPubKey": {"reqSigs": 1, "hex": "a914786e34455dd343af1cfae50e3b9de13eecce26ba87", "addresses": ["3Cfo2geGTwoMp4zFFwqTo81X5nqJEdoGDk"], "asm": "OP_HASH160 786e34455dd343af1cfae50e3b9de13eecce26ba OP_EQUAL", "type": "scripthash"}, "value": 0.02190611, "n": 1}], "hex": "0100000002a66c24febada7f2f7c669779379ca59908f1b6ebc4607bb69d17c5d055816e22010000006a473044022026b8ea5c687a6cbe3721ca60cb8d7c9967af077c8bb1893740a039ce9591f10e02204ef71c2c147efe21e5d86502744c489b164cc202e445392a612a9a560a3629fe012102ee3bc3dc53376cdce875e3387302997c14e7c91adb6d1298ab6cc7d59003d066ffffffff45f69085b306609959af751ca85e677448e4ece8a4a464986f2b1bc23b455942000000006b483045022100ed185078e25785b00fda98f08c1744991e429942a9d8f3480c73c79ab14f309f022034b5f6fdc24f84606cbe080a1026bf1dd7de1020263ef1ee016095da59da1bad012103b0661bbc0c10aa46b06421b5e34c786cc7452f5d23ec9c52e2dc80000024385cffffffff02311f0c00000000001976a91475c6ef628526488d44ffa10dd90fbea486937a1a88ac136d21000000000017a914786e34455dd343af1cfae50e3b9de13eecce26ba8700000000", "vin": [{"sequence": 4294967295, "scriptSig": {"hex": "473044022026b8ea5c687a6cbe3721ca60cb8d7c9967af077c8bb1893740a039ce9591f10e02204ef71c2c147efe21e5d86502744c489b164cc202e445392a612a9a560a3629fe012102ee3bc3dc53376cdce875e3387302997c14e7c91adb6d1298ab6cc7d59003d066", "asm": "3044022026b8ea5c687a6cbe3721ca60cb8d7c9967af077c8bb1893740a039ce9591f10e02204ef71c2c147efe21e5d86502744c489b164cc202e445392a612a9a560a3629fe[ALL] 02ee3bc3dc53376cdce875e3387302997c14e7c91adb6d1298ab6cc7d59003d066"}, "vout": 1, "txid": "226e8155d0c5179db67b60c4ebb6f10899a59c377997667c2f7fdabafe246ca6"}, {"sequence": 4294967295, "scriptSig": {"hex": "483045022100ed185078e25785b00fda98f08c1744991e429942a9d8f3480c73c79ab14f309f022034b5f6fdc24f84606cbe080a1026bf1dd7de1020263ef1ee016095da59da1bad012103b0661bbc0c10aa46b06421b5e34c786cc7452f5d23ec9c52e2dc80000024385c", "asm": "3045022100ed185078e25785b00fda98f08c1744991e429942a9d8f3480c73c79ab14f309f022034b5f6fdc24f84606cbe080a1026bf1dd7de1020263ef1ee016095da59da1bad[ALL] 03b0661bbc0c10aa46b06421b5e34c786cc7452f5d23ec9c52e2dc80000024385c"}, "vout": 0, "txid": "4259453bc21b2b6f9864a4a4e8ece44874675ea81c75af59996006b38590f645"}], "txid": "5f6ef3378f035fc02edac6c1833f6eb1294f5ef55b2e633fb05c6356076c738e", "blocktime": 1537869901, "version": 1, "confirmations": 11523, "time": 1537869901, "locktime": 0, "vsize": 371, "size": 371}