{"hash": "5f7554f9ee82e66c40c33be68f0d0828c918477939b42686e2fe2cc16a7bee29", "blockhash": "0000000000000000000e13cef7c366c0283d82e591d1acd082e914b08063cdf1", "vout": [{"scriptPubKey": {"reqSigs": 1, "hex": "a9145ecba1516c697a2c917629539f482aa64deacab787", "addresses": ["3ALFP3exTMTjiVjMH9JviruVBW18N6J8FZ"], "asm": "OP_HASH160 5ecba1516c697a2c917629539f482aa64deacab7 OP_EQUAL", "type": "scripthash"}, "value": 0.0209037, "n": 0}, {"scriptPubKey": {"reqSigs": 1, "hex": "a914ce09d810b470e2590267266ae75cba8200abe84c87", "addresses": ["3LUSv2wYPnsiL7izaY6aXLtGZyDQdRoaxU"], "asm": "OP_HASH160 ce09d810b470e2590267266ae75cba8200abe84c OP_EQUAL", "type": "scripthash"}, "value": 0.0770069, "n": 1}, {"scriptPubKey": {"reqSigs": 1, "hex": "76a914653744a0fdf2bcefa8f1635f869f1ecf0637faa688ac", "addresses": ["1AEBTUB2qsGr7W8BwmZak4zft3FnsNshkx"], "asm": "OP_DUP OP_HASH160 653744a0fdf2bcefa8f1635f869f1ecf0637faa6 OP_EQUALVERIFY OP_CHECKSIG", "type": "pubkeyhash"}, "value": 0.00010378, "n": 2}], "hex": "0100000005d47b968d79b58a2412868cc6bd33d6704a60f70faa3a023cbb8739bf1598f91c01000000db00483045022100dd79620d787267c1ca569921490edb3a7b6ab763046fd1ed7c6b139eb143bf750220075fc24baddad69c056d089d12cbd76fd46a36ca8f7ff293ab61c7d7a0dc2a4401483045022100e5ddf4c5e7f3ffb2eb5fcfb2a73887dce686bf7850fba6d9b2d853ccab6d913c02205714d925ce1d23438e7990c705ca4156eb8b1c9c760104ddc74bb1a38475316d01475221020416a7b2fea13bb7188c08a86a7379b89ea48b65508726dc9148e9291bc559a22102907a54bed8ad74b3f35638c60114ca240a308cb986f3f2f306178869a8880b6152aeffffffffcc19348b1ded0ffdeb61fc7841b6a52340645979c62729a6779ccb013b3925b201000000db00483045022100a42bc92b8b50f3bd092e600077fd3feb3a7bca36f753a03183ed5dc21ab5a4a9022029442b1ba0d8499cd34f4cb150cc119284f8024978ebb57a5f6e6d85bb02e4b701483045022100ecf0d8802cbde1e4dc740e2dcffe1d55c0c474c14d9c559cd1870a3090862f1702206c80bdc39e13240b97e82e8335d7bf491917e51f297d6ef2bee5f99d02a203760147522102907a54bed8ad74b3f35638c60114ca240a308cb986f3f2f306178869a8880b612103b3dd0f23bb0572566ee855c6690a361ddadb9228ee6768902d3ae6d87a5a675e52aeffffffff1d15263eac3906036bcdafb766e19e8bb4e26abcbf491be56253597b14d0065800000000d900473044022055b13152e2615a9ff84df9a4789861c602e62eb7480cc834d98f8437b579e90c022011af79d370c7a61cc799078dbce2abc6057fc0201ecd380d46c8333c838c64ec0147304402202846af39d8f31c94872daf0f5f8941484508c380b6afaef82ad7cd87ed4cf6a502200bb46cac6fea7fd634fd959bc4c5da4426c4e97e6345005bb66ffc8c17637d710147522102907a54bed8ad74b3f35638c60114ca240a308cb986f3f2f306178869a8880b612102c9bec3e7b3ec3c72c85f6afdcf73fa622ebb1e965f9c7129e62f6a906b48273052aeffffffffdd024f40be2f48b1f2a16e852b80c928edd5745121af9be3a8b14033c6e38f9e00000000da0047304402201b4e2076bf3ebae69e81c4ebf0d5a154a77697239d05a68019dc382e13dfb0b602201ab50a225a20ab7aabf2b32c426b2b6f6ca7c68ced6e25fd9c76880222b928fd0148304502210090c68bde2b1ee9a4ab7fe605a1647753eda6a2fa26133d6c7c7dfaec24c8e122022046e6ca717033698069a4b734a59bc844571aab879e07d7fde391ac22e022552e014752210202312bad6b00c01f7b60fee897927b924537b4cd94dd03833b51567ccbc13d2f2102907a54bed8ad74b3f35638c60114ca240a308cb986f3f2f306178869a8880b6152aeffffffff162a1c1a15a9ecacdbec9e607f3f483622e20c449ed5c54f4b04d2c15997b379020000006b483045022100b39a4e2ee590e7068723a69d68c9443243372f95f0349e43c7075df80d112d1502204ed04b5df52ce0017765daa19e645af3089216664b107e09494a6ec41f92dd7501210276a41f560476dfa4df1a3e0615492130768c9e103808d3e1973ac2695b1798e2ffffffff0382e51f000000000017a9145ecba1516c697a2c917629539f482aa64deacab787d28075000000000017a914ce09d810b470e2590267266ae75cba8200abe84c878a280000000000001976a914653744a0fdf2bcefa8f1635f869f1ecf0637faa688ac00000000", "vin": [{"sequence": 4294967295, "scriptSig": {"hex": "00483045022100dd79620d787267c1ca569921490edb3a7b6ab763046fd1ed7c6b139eb143bf750220075fc24baddad69c056d089d12cbd76fd46a36ca8f7ff293ab61c7d7a0dc2a4401483045022100e5ddf4c5e7f3ffb2eb5fcfb2a73887dce686bf7850fba6d9b2d853ccab6d913c02205714d925ce1d23438e7990c705ca4156eb8b1c9c760104ddc74bb1a38475316d01475221020416a7b2fea13bb7188c08a86a7379b89ea48b65508726dc9148e9291bc559a22102907a54bed8ad74b3f35638c60114ca240a308cb986f3f2f306178869a8880b6152ae", "asm": "0 3045022100dd79620d787267c1ca569921490edb3a7b6ab763046fd1ed7c6b139eb143bf750220075fc24baddad69c056d089d12cbd76fd46a36ca8f7ff293ab61c7d7a0dc2a44[ALL] 3045022100e5ddf4c5e7f3ffb2eb5fcfb2a73887dce686bf7850fba6d9b2d853ccab6d913c02205714d925ce1d23438e7990c705ca4156eb8b1c9c760104ddc74bb1a38475316d[ALL] 5221020416a7b2fea13bb7188c08a86a7379b89ea48b65508726dc9148e9291bc559a22102907a54bed8ad74b3f35638c60114ca240a308cb986f3f2f306178869a8880b6152ae"}, "vout": 1, "txid": "1cf99815bf3987bb3c023aaa0ff7604a70d633bdc68c8612248ab5798d967bd4"}, {"sequence": 4294967295, "scriptSig": {"hex": "00483045022100a42bc92b8b50f3bd092e600077fd3feb3a7bca36f753a03183ed5dc21ab5a4a9022029442b1ba0d8499cd34f4cb150cc119284f8024978ebb57a5f6e6d85bb02e4b701483045022100ecf0d8802cbde1e4dc740e2dcffe1d55c0c474c14d9c559cd1870a3090862f1702206c80bdc39e13240b97e82e8335d7bf491917e51f297d6ef2bee5f99d02a203760147522102907a54bed8ad74b3f35638c60114ca240a308cb986f3f2f306178869a8880b612103b3dd0f23bb0572566ee855c6690a361ddadb9228ee6768902d3ae6d87a5a675e52ae", "asm": "0 3045022100a42bc92b8b50f3bd092e600077fd3feb3a7bca36f753a03183ed5dc21ab5a4a9022029442b1ba0d8499cd34f4cb150cc119284f8024978ebb57a5f6e6d85bb02e4b7[ALL] 3045022100ecf0d8802cbde1e4dc740e2dcffe1d55c0c474c14d9c559cd1870a3090862f1702206c80bdc39e13240b97e82e8335d7bf491917e51f297d6ef2bee5f99d02a20376[ALL] 522102907a54bed8ad74b3f35638c60114ca240a308cb986f3f2f306178869a8880b612103b3dd0f23bb0572566ee855c6690a361ddadb9228ee6768902d3ae6d87a5a675e52ae"}, "vout": 1, "txid": "b225393b01cb9c77a62927c67959644023a5b64178fc61ebfd0fed1d8b3419cc"}, {"sequence": 4294967295, "scriptSig": {"hex": "00473044022055b13152e2615a9ff84df9a4789861c602e62eb7480cc834d98f8437b579e90c022011af79d370c7a61cc799078dbce2abc6057fc0201ecd380d46c8333c838c64ec0147304402202846af39d8f31c94872daf0f5f8941484508c380b6afaef82ad7cd87ed4cf6a502200bb46cac6fea7fd634fd959bc4c5da4426c4e97e6345005bb66ffc8c17637d710147522102907a54bed8ad74b3f35638c60114ca240a308cb986f3f2f306178869a8880b612102c9bec3e7b3ec3c72c85f6afdcf73fa622ebb1e965f9c7129e62f6a906b48273052ae", "asm": "0 3044022055b13152e2615a9ff84df9a4789861c602e62eb7480cc834d98f8437b579e90c022011af79d370c7a61cc799078dbce2abc6057fc0201ecd380d46c8333c838c64ec[ALL] 304402202846af39d8f31c94872daf0f5f8941484508c380b6afaef82ad7cd87ed4cf6a502200bb46cac6fea7fd634fd959bc4c5da4426c4e97e6345005bb66ffc8c17637d71[ALL] 522102907a54bed8ad74b3f35638c60114ca240a308cb986f3f2f306178869a8880b612102c9bec3e7b3ec3c72c85f6afdcf73fa622ebb1e965f9c7129e62f6a906b48273052ae"}, "vout": 0, "txid": "5806d0147b595362e51b49bfbc6ae2b48b9ee166b7afcd6b030639ac3e26151d"}, {"sequence": 4294967295, "scriptSig": {"hex": "0047304402201b4e2076bf3ebae69e81c4ebf0d5a154a77697239d05a68019dc382e13dfb0b602201ab50a225a20ab7aabf2b32c426b2b6f6ca7c68ced6e25fd9c76880222b928fd0148304502210090c68bde2b1ee9a4ab7fe605a1647753eda6a2fa26133d6c7c7dfaec24c8e122022046e6ca717033698069a4b734a59bc844571aab879e07d7fde391ac22e022552e014752210202312bad6b00c01f7b60fee897927b924537b4cd94dd03833b51567ccbc13d2f2102907a54bed8ad74b3f35638c60114ca240a308cb986f3f2f306178869a8880b6152ae", "asm": "0 304402201b4e2076bf3ebae69e81c4ebf0d5a154a77697239d05a68019dc382e13dfb0b602201ab50a225a20ab7aabf2b32c426b2b6f6ca7c68ced6e25fd9c76880222b928fd[ALL] 304502210090c68bde2b1ee9a4ab7fe605a1647753eda6a2fa26133d6c7c7dfaec24c8e122022046e6ca717033698069a4b734a59bc844571aab879e07d7fde391ac22e022552e[ALL] 52210202312bad6b00c01f7b60fee897927b924537b4cd94dd03833b51567ccbc13d2f2102907a54bed8ad74b3f35638c60114ca240a308cb986f3f2f306178869a8880b6152ae"}, "vout": 0, "txid": "9e8fe3c63340b1a8e39baf215174d5ed28c9802b856ea1f2b1482fbe404f02dd"}, {"sequence": 4294967295, "scriptSig": {"hex": "483045022100b39a4e2ee590e7068723a69d68c9443243372f95f0349e43c7075df80d112d1502204ed04b5df52ce0017765daa19e645af3089216664b107e09494a6ec41f92dd7501210276a41f560476dfa4df1a3e0615492130768c9e103808d3e1973ac2695b1798e2", "asm": "3045022100b39a4e2ee590e7068723a69d68c9443243372f95f0349e43c7075df80d112d1502204ed04b5df52ce0017765daa19e645af3089216664b107e09494a6ec41f92dd75[ALL] 0276a41f560476dfa4df1a3e0615492130768c9e103808d3e1973ac2695b1798e2"}, "vout": 2, "txid": "79b39759c1d2044b4fc5d59e440ce22236483f7f609eecdbaceca9151a1c2a16"}], "txid": "5f7554f9ee82e66c40c33be68f0d0828c918477939b42686e2fe2cc16a7bee29", "blocktime": 1537871767, "version": 1, "confirmations": 11495, "time": 1537871767, "locktime": 0, "vsize": 1293, "size": 1293}