{"hash": "4ee3cc6c3f67a9f7d2a63b52856a54abe4b40a3455bf5a129385048dc65dc8b2", "blockhash": "0000000000000000001f0ddff1eddb255c1121bcd4da4f1bc9a0da00cae72433", "vout": [{"scriptPubKey": {"reqSigs": 1, "hex": "a9148321bac2202c2b1e12fe11bf27bf5f01f34f5b0587", "addresses": ["3DeNrEzKoUdDa6m3FJvp4jPBk1JrUfuUHz"], "asm": "OP_HASH160 8321bac2202c2b1e12fe11bf27bf5f01f34f5b05 OP_EQUAL", "type": "scripthash"}, "value": 0.0022716, "n": 0}, {"scriptPubKey": {"reqSigs": 1, "hex": "a91406f3fd4d5ede85ef8409c022a0dc18c54e0e38f987", "addresses": ["32KnGNyiSoEmzAkCCoAZZTREme7YD1UPHi"], "asm": "OP_HASH160 06f3fd4d5ede85ef8409c022a0dc18c54e0e38f9 OP_EQUAL", "type": "scripthash"}, "value": 0.01006965, "n": 1}], "hex": "020000000001020c349b9f46ef0d00b9a8ca2b40185f1b56e9c8e9708acd8735ae05f2220c20fc0e00000017160014435900d9091ef955d3b0d0bba78ba79fbca89839fefffffff3b6aba413668bc8c49a4e8b6c69f83e9c63ee9d6221d8025265ef339f3eadda00000000171600145122a2159d1877227198b50ddcf3f0937c841201feffffff02587703000000000017a9148321bac2202c2b1e12fe11bf27bf5f01f34f5b0587755d0f000000000017a91406f3fd4d5ede85ef8409c022a0dc18c54e0e38f9870247304402201854f837800a4731ce350e3d0f9e3a08c406520051788256292478390f4453f70220258778d83ad3ddfec26dc5cd7430856ac9e1d115c3d3be3aa8cae7bc5489a66501210294ccd537e534c2112659f760166e5aec2a0644b6d85a6e6e8f6ddfc08c8c405802483045022100a21e9c9aa438eff01af67cd3ff67404106c8d216e74fc4da4589ec1338345a930220459bb5cae5049091103afa07a5156e523d40c4cc95b059be112eacedea66228d012102a6c200ccca63b9c84059cddc3c7046beb6ec542aac42339c17e69562a2b5f57f11490800", "vin": [{"txinwitness": ["304402201854f837800a4731ce350e3d0f9e3a08c406520051788256292478390f4453f70220258778d83ad3ddfec26dc5cd7430856ac9e1d115c3d3be3aa8cae7bc5489a66501", "0294ccd537e534c2112659f760166e5aec2a0644b6d85a6e6e8f6ddfc08c8c4058"], "sequence": 4294967294, "scriptSig": {"hex": "160014435900d9091ef955d3b0d0bba78ba79fbca89839", "asm": "0014435900d9091ef955d3b0d0bba78ba79fbca89839"}, "vout": 14, "txid": "fc200c22f205ae3587cd8a70e9c8e9561b5f18402bcaa8b9000def469f9b340c"}, {"txinwitness": ["3045022100a21e9c9aa438eff01af67cd3ff67404106c8d216e74fc4da4589ec1338345a930220459bb5cae5049091103afa07a5156e523d40c4cc95b059be112eacedea66228d01", "02a6c200ccca63b9c84059cddc3c7046beb6ec542aac42339c17e69562a2b5f57f"], "sequence": 4294967294, "scriptSig": {"hex": "1600145122a2159d1877227198b50ddcf3f0937c841201", "asm": "00145122a2159d1877227198b50ddcf3f0937c841201"}, "vout": 0, "txid": "daad3e9f33ef655202d821629dee639c3ef8696c8b4e9ac4c88b6613a4abb6f3"}], "txid": "5f7d9d8ecae8df754966bf93c3cd8944b37302781022c6f7dc97232d800c22fe", "blocktime": 1537872018, "version": 2, "confirmations": 11489, "time": 1537872018, "locktime": 542993, "vsize": 257, "size": 419}