{"hash": "5f7dcbe5e414bbc004759b573300cbfceb89d4e0ee6ce44df2780102e9438aa0", "blockhash": "0000000000000000001cda96e906b7601b7a6fb1a3b62bca570a9e5d8f4b3de1", "vout": [{"scriptPubKey": {"reqSigs": 1, "hex": "76a91441c7279a3a21bf0c86b8f32ede512b7dd1605cc288ac", "addresses": ["16zoVyqSex2pgsSnferHR7ejec45A4PfoC"], "asm": "OP_DUP OP_HASH160 41c7279a3a21bf0c86b8f32ede512b7dd1605cc2 OP_EQUALVERIFY OP_CHECKSIG", "type": "pubkeyhash"}, "value": 0.00112464, "n": 0}, {"scriptPubKey": {"type": "nulldata", "hex": "6a4c50000077c90001db65804adc182e8cd795d1175b23cc0f42c2fc38c5e5bf9ae76da98a211a634654a82f0f016ba6b57aabdf94f9705baa13ce0612e741fbc5b96fbc9a9526289ac0f6612cd74e33776ee4", "asm": "OP_RETURN 000077c90001db65804adc182e8cd795d1175b23cc0f42c2fc38c5e5bf9ae76da98a211a634654a82f0f016ba6b57aabdf94f9705baa13ce0612e741fbc5b96fbc9a9526289ac0f6612cd74e33776ee4"}, "value": 0.0, "n": 1}], "hex": "0100000001c5a012b3e65e78a8b233c84a4b0e7e33d7c8813965ccf5387ca8c137217fc2d3010000006a473044022057b6365d7a49435fb0b586e723e5653b02b02bca31ba1599eb8ecb615b796cbf0220758794d555aa7b4e95aadfe33c414992f07bbc52c9349a9aff6d30b50999f51e012103970fccb95156fe3e79a135e58d492c43ecf4ba3fbddc6894f7dcadf05a03425dffffffff0250b70100000000001976a91441c7279a3a21bf0c86b8f32ede512b7dd1605cc288ac0000000000000000536a4c50000077c90001db65804adc182e8cd795d1175b23cc0f42c2fc38c5e5bf9ae76da98a211a634654a82f0f016ba6b57aabdf94f9705baa13ce0612e741fbc5b96fbc9a9526289ac0f6612cd74e33776ee400000000", "vin": [{"sequence": 4294967295, "scriptSig": {"hex": "473044022057b6365d7a49435fb0b586e723e5653b02b02bca31ba1599eb8ecb615b796cbf0220758794d555aa7b4e95aadfe33c414992f07bbc52c9349a9aff6d30b50999f51e012103970fccb95156fe3e79a135e58d492c43ecf4ba3fbddc6894f7dcadf05a03425d", "asm": "3044022057b6365d7a49435fb0b586e723e5653b02b02bca31ba1599eb8ecb615b796cbf0220758794d555aa7b4e95aadfe33c414992f07bbc52c9349a9aff6d30b50999f51e[ALL] 03970fccb95156fe3e79a135e58d492c43ecf4ba3fbddc6894f7dcadf05a03425d"}, "vout": 1, "txid": "d3c27f2137c1a87c38f5cc653981c8d7337e0e4b4ac833b2a8785ee6b312a0c5"}], "txid": "5f7dcbe5e414bbc004759b573300cbfceb89d4e0ee6ce44df2780102e9438aa0", "blocktime": 1537873282, "version": 1, "confirmations": 11484, "time": 1537873282, "locktime": 0, "vsize": 283, "size": 283}