{"hash": "5f848ee77446a83560f60a08e9f58e01f541e06f954180a7bc9f55667927ce88", "blockhash": "0000000000000000000e13cef7c366c0283d82e591d1acd082e914b08063cdf1", "vout": [{"scriptPubKey": {"reqSigs": 1, "hex": "76a9143e051d956bc426e1478e3cebe795b8c642fe0b1c88ac", "addresses": ["16ew2L5TckY8f5ZXQ8krBgRcmf521kbVDz"], "asm": "OP_DUP OP_HASH160 3e051d956bc426e1478e3cebe795b8c642fe0b1c OP_EQUALVERIFY OP_CHECKSIG", "type": "pubkeyhash"}, "value": 9.1e-05, "n": 0}, {"scriptPubKey": {"reqSigs": 1, "hex": "a9143249487ade24f3967a7e5da7abdc8f9d963cae9887", "addresses": ["36GuVwF8ebHGK4AaR1eMdYX25tz4H4jhHv"], "asm": "OP_HASH160 3249487ade24f3967a7e5da7abdc8f9d963cae98 OP_EQUAL", "type": "scripthash"}, "value": 0.1789, "n": 1}], "hex": "01000000012ef1b39a0c3e899828019df37813fe03f99f24beadbc445ac707648d96f9b736000000006b4830450221008ea1fb3ff76902b5d2f03e14cf5d49bcba4c336f3acc9fa65108c0e05d379252022044fa4b4881127c88ae5c3f48e37b78e3c3b019d0553ff904c074e472fab60adf0121034f4017fea42d0ad5d0f37247471474ed520c1b0c3ce024187a3471fd20426216ffffffff028c230000000000001976a9143e051d956bc426e1478e3cebe795b8c642fe0b1c88acd0fa10010000000017a9143249487ade24f3967a7e5da7abdc8f9d963cae988700000000", "vin": [{"sequence": 4294967295, "scriptSig": {"hex": "4830450221008ea1fb3ff76902b5d2f03e14cf5d49bcba4c336f3acc9fa65108c0e05d379252022044fa4b4881127c88ae5c3f48e37b78e3c3b019d0553ff904c074e472fab60adf0121034f4017fea42d0ad5d0f37247471474ed520c1b0c3ce024187a3471fd20426216", "asm": "30450221008ea1fb3ff76902b5d2f03e14cf5d49bcba4c336f3acc9fa65108c0e05d379252022044fa4b4881127c88ae5c3f48e37b78e3c3b019d0553ff904c074e472fab60adf[ALL] 034f4017fea42d0ad5d0f37247471474ed520c1b0c3ce024187a3471fd20426216"}, "vout": 0, "txid": "36b7f9968d6407c75a44bcadbe249ff903fe1378f39d012898893e0c9ab3f12e"}], "txid": "5f848ee77446a83560f60a08e9f58e01f541e06f954180a7bc9f55667927ce88", "blocktime": 1537871767, "version": 1, "confirmations": 11495, "time": 1537871767, "locktime": 0, "vsize": 224, "size": 224}