{"hash": "5f8af1fdd03ab46759c3c58f11a8178801b888aaecfe3760e93bae08a2af1416", "blockhash": "0000000000000000000dcc0f55137456b1a82d3642486a52398922ac4d620174", "vout": [{"scriptPubKey": {"reqSigs": 1, "hex": "a914a8b0e665eedb0f1242c1abb1202565ef59f956c287", "addresses": ["3H4yMzrMzzkwGRSV9Tvdnavm6dJ4qombNE"], "asm": "OP_HASH160 a8b0e665eedb0f1242c1abb1202565ef59f956c2 OP_EQUAL", "type": "scripthash"}, "value": 0.07036884, "n": 0}, {"scriptPubKey": {"reqSigs": 1, "hex": "76a914245932907ae2a1cf524d4cbad9414e56cc6b3aa688ac", "addresses": ["14KCBTZpih42FfvpvSbT72foq5JdnBtomH"], "asm": "OP_DUP OP_HASH160 245932907ae2a1cf524d4cbad9414e56cc6b3aa6 OP_EQUALVERIFY OP_CHECKSIG", "type": "pubkeyhash"}, "value": 0.13819272, "n": 1}], "hex": "0100000001847ac320e12ca65aa30d17696cb37afcb0d3751e9244190c3510404934b82975000000006b483045022100e699d7ef8f8d5629f514157bfd02e1e031aa8db886e496aa7138a0751438fb90022011a925fca3a75d7ea8381f91971ffb06dea32b6e5ca317fa972debc6ec2ab83a012102c1be883c01c416f7510ecc7991bb93f0644b956907a4e5ef6519e3e2d56922d9ffffffff02d45f6b000000000017a914a8b0e665eedb0f1242c1abb1202565ef59f956c28788ddd200000000001976a914245932907ae2a1cf524d4cbad9414e56cc6b3aa688ac00000000", "vin": [{"sequence": 4294967295, "scriptSig": {"hex": "483045022100e699d7ef8f8d5629f514157bfd02e1e031aa8db886e496aa7138a0751438fb90022011a925fca3a75d7ea8381f91971ffb06dea32b6e5ca317fa972debc6ec2ab83a012102c1be883c01c416f7510ecc7991bb93f0644b956907a4e5ef6519e3e2d56922d9", "asm": "3045022100e699d7ef8f8d5629f514157bfd02e1e031aa8db886e496aa7138a0751438fb90022011a925fca3a75d7ea8381f91971ffb06dea32b6e5ca317fa972debc6ec2ab83a[ALL] 02c1be883c01c416f7510ecc7991bb93f0644b956907a4e5ef6519e3e2d56922d9"}, "vout": 0, "txid": "7529b834494010350c1944921e75d3b0fc7ab36c69170da35aa62ce120c37a84"}], "txid": "5f8af1fdd03ab46759c3c58f11a8178801b888aaecfe3760e93bae08a2af1416", "blocktime": 1537870268, "version": 1, "confirmations": 11517, "time": 1537870268, "locktime": 0, "vsize": 224, "size": 224}