{"hash": "5f94db11b65dae8dec33fe4cab5d467557e93a32df66e1cac4904c5747725eae", "blockhash": "0000000000000000000e13cef7c366c0283d82e591d1acd082e914b08063cdf1", "vout": [{"scriptPubKey": {"reqSigs": 1, "hex": "76a914bde7770af467d246ae0ce620e2d38e3d79ccb75588ac", "addresses": ["1JK7zjA8VCbWbCqV5W9QTkyAMQEziQ8LFj"], "asm": "OP_DUP OP_HASH160 bde7770af467d246ae0ce620e2d38e3d79ccb755 OP_EQUALVERIFY OP_CHECKSIG", "type": "pubkeyhash"}, "value": 0.00339216, "n": 0}, {"scriptPubKey": {"reqSigs": 1, "hex": "a91411f896ab6d9845b7712f8bb87c7b2c8d938e6a1487", "addresses": ["33L3D3J1ZiuJhQbzhEZJ9dz8jYVtq7k88z"], "asm": "OP_HASH160 11f896ab6d9845b7712f8bb87c7b2c8d938e6a14 OP_EQUAL", "type": "scripthash"}, "value": 0.16, "n": 1}], "hex": "01000000019afd1b69f2ee2c78c4763cc3f06f8c3f21328d0322e6820885eb230ef256348b070000006a47304402200c3a4955b52600f6350207b87c128e59f2a7fc5d88845cda78feed1ad465f272022047ccd8b74f0024511d986244c41a322f11f40fbfcdcb6817546d93c6ddbe9fb7012102bca4f9e1952d2d565f534df347388cf1ee984732e61194d16c8b41ea11699d1afdffffff02102d0500000000001976a914bde7770af467d246ae0ce620e2d38e3d79ccb75588ac0024f4000000000017a91411f896ab6d9845b7712f8bb87c7b2c8d938e6a148710490800", "vin": [{"sequence": 4294967293, "scriptSig": {"hex": "47304402200c3a4955b52600f6350207b87c128e59f2a7fc5d88845cda78feed1ad465f272022047ccd8b74f0024511d986244c41a322f11f40fbfcdcb6817546d93c6ddbe9fb7012102bca4f9e1952d2d565f534df347388cf1ee984732e61194d16c8b41ea11699d1a", "asm": "304402200c3a4955b52600f6350207b87c128e59f2a7fc5d88845cda78feed1ad465f272022047ccd8b74f0024511d986244c41a322f11f40fbfcdcb6817546d93c6ddbe9fb7[ALL] 02bca4f9e1952d2d565f534df347388cf1ee984732e61194d16c8b41ea11699d1a"}, "vout": 7, "txid": "8b3456f20e23eb850882e622038d32213f8c6ff0c33c76c4782ceef2691bfd9a"}], "txid": "5f94db11b65dae8dec33fe4cab5d467557e93a32df66e1cac4904c5747725eae", "blocktime": 1537871767, "version": 1, "confirmations": 11495, "time": 1537871767, "locktime": 542992, "vsize": 223, "size": 223}