{"hash": "5f9a497f3e1c768c19cc2a4ab9f0ca7c36436753829bcde16cd52435ac3533a4", "blockhash": "0000000000000000001cda96e906b7601b7a6fb1a3b62bca570a9e5d8f4b3de1", "vout": [{"scriptPubKey": {"reqSigs": 1, "hex": "76a9145d7aa49c19120424248ad977f5c07b5d89393d2e88ac", "addresses": ["19XGmE6No4Tra1kfFwK2Lh84bp7v8LX3at"], "asm": "OP_DUP OP_HASH160 5d7aa49c19120424248ad977f5c07b5d89393d2e OP_EQUALVERIFY OP_CHECKSIG", "type": "pubkeyhash"}, "value": 2.042, "n": 0}, {"scriptPubKey": {"reqSigs": 1, "hex": "a91449c5e4b024f37ca058d624d0d4fb1257a729ad3987", "addresses": ["38R6KR4zNvrun5eu2VpivNHz39zVurNDpY"], "asm": "OP_HASH160 49c5e4b024f37ca058d624d0d4fb1257a729ad39 OP_EQUAL", "type": "scripthash"}, "value": 1.6753354, "n": 1}], "hex": "0200000002cf10e1b1b0d91d08870a7c86c3861edbf8324bebe2b6e6d1cebc7b85a19ed1bd01000000fdfd0000483045022100ceb395ee13543ca450fd7b69e082b2980d9af32197ab7346601a5e813fc89cfe02206caab7f833870143c872c9f6abdb34c0efd0f1f7ef740689c728cbf650dc26c90147304402203d8c17b00d1ad6048bf8441c18acebb913d9a708751028a1268eaa3d7306d24202202f47f6ecf325615fe64438e74762a019cb399ef658270c582b5fcb6550ef27ae014c6952210399890902ffd076a71401af414006b65d68c0b46156adfec1ef1e8b5a5e62568e2102f94c894108b220d793a555b84285a90ad5740d300c325dd8245025ef425d4dd02102deca4a9c35fdcd395ebae0695e106aab47ae5a97f46e1a0b3d7f6f0ddd8eeb1053ae0000000084cef6fbec68364a4ec905641966ed3d709e2db83e382c019f932a09eb37b90700000000fdfd000047304402202bb131449f338a398205aa86e3a65ea2fd8d52b9e1a3e1ad1a59ea77fda6605602200dd5c6aa3ac7f327369d4e301c9f879b5e4cd1baf183e4731e7d560598c5635d01483045022100a0a4c71964da7a981b928d149aeb9a3c4a5ac32e0595619ecba7ddf14b33a55f022010bc6630ce10f470ed3076196d3a18f7c6496202671dd747f1347faffde8481d014c69522102378b1f3c6148ae51b308958382b80f936a0875fca17519f209cae9fe25d3a8f82103aa78d69168b4e37cf14a799c48b2a90b193f529f1a579c548f1d1df4338f83ee210292b98645f0b4ea6e317de2c7ed3fef628493bf022f1104dc692313f10734580153ae000000000240d82b0c000000001976a9145d7aa49c19120424248ad977f5c07b5d89393d2e88ace45bfc090000000017a91449c5e4b024f37ca058d624d0d4fb1257a729ad398700000000", "vin": [{"sequence": 0, "scriptSig": {"hex": "00483045022100ceb395ee13543ca450fd7b69e082b2980d9af32197ab7346601a5e813fc89cfe02206caab7f833870143c872c9f6abdb34c0efd0f1f7ef740689c728cbf650dc26c90147304402203d8c17b00d1ad6048bf8441c18acebb913d9a708751028a1268eaa3d7306d24202202f47f6ecf325615fe64438e74762a019cb399ef658270c582b5fcb6550ef27ae014c6952210399890902ffd076a71401af414006b65d68c0b46156adfec1ef1e8b5a5e62568e2102f94c894108b220d793a555b84285a90ad5740d300c325dd8245025ef425d4dd02102deca4a9c35fdcd395ebae0695e106aab47ae5a97f46e1a0b3d7f6f0ddd8eeb1053ae", "asm": "0 3045022100ceb395ee13543ca450fd7b69e082b2980d9af32197ab7346601a5e813fc89cfe02206caab7f833870143c872c9f6abdb34c0efd0f1f7ef740689c728cbf650dc26c9[ALL] 304402203d8c17b00d1ad6048bf8441c18acebb913d9a708751028a1268eaa3d7306d24202202f47f6ecf325615fe64438e74762a019cb399ef658270c582b5fcb6550ef27ae[ALL] 52210399890902ffd076a71401af414006b65d68c0b46156adfec1ef1e8b5a5e62568e2102f94c894108b220d793a555b84285a90ad5740d300c325dd8245025ef425d4dd02102deca4a9c35fdcd395ebae0695e106aab47ae5a97f46e1a0b3d7f6f0ddd8eeb1053ae"}, "vout": 1, "txid": "bdd19ea1857bbcced1e6b6e2eb4b32f8db1e86c3867c0a87081dd9b0b1e110cf"}, {"sequence": 0, "scriptSig": {"hex": "0047304402202bb131449f338a398205aa86e3a65ea2fd8d52b9e1a3e1ad1a59ea77fda6605602200dd5c6aa3ac7f327369d4e301c9f879b5e4cd1baf183e4731e7d560598c5635d01483045022100a0a4c71964da7a981b928d149aeb9a3c4a5ac32e0595619ecba7ddf14b33a55f022010bc6630ce10f470ed3076196d3a18f7c6496202671dd747f1347faffde8481d014c69522102378b1f3c6148ae51b308958382b80f936a0875fca17519f209cae9fe25d3a8f82103aa78d69168b4e37cf14a799c48b2a90b193f529f1a579c548f1d1df4338f83ee210292b98645f0b4ea6e317de2c7ed3fef628493bf022f1104dc692313f10734580153ae", "asm": "0 304402202bb131449f338a398205aa86e3a65ea2fd8d52b9e1a3e1ad1a59ea77fda6605602200dd5c6aa3ac7f327369d4e301c9f879b5e4cd1baf183e4731e7d560598c5635d[ALL] 3045022100a0a4c71964da7a981b928d149aeb9a3c4a5ac32e0595619ecba7ddf14b33a55f022010bc6630ce10f470ed3076196d3a18f7c6496202671dd747f1347faffde8481d[ALL] 522102378b1f3c6148ae51b308958382b80f936a0875fca17519f209cae9fe25d3a8f82103aa78d69168b4e37cf14a799c48b2a90b193f529f1a579c548f1d1df4338f83ee210292b98645f0b4ea6e317de2c7ed3fef628493bf022f1104dc692313f10734580153ae"}, "vout": 0, "txid": "07b937eb092a939f012c383eb82d9e703ded66196405c94e4a3668ecfbf6ce84"}], "txid": "5f9a497f3e1c768c19cc2a4ab9f0ca7c36436753829bcde16cd52435ac3533a4", "blocktime": 1537873282, "version": 2, "confirmations": 11481, "time": 1537873282, "locktime": 0, "vsize": 668, "size": 668}