{"hash": "6e858b8ba1e28cfae238cab3f44263e7789e2f8f98556581a4902e74a0c8cd6e", "blockhash": "0000000000000000001cda96e906b7601b7a6fb1a3b62bca570a9e5d8f4b3de1", "vout": [{"scriptPubKey": {"reqSigs": 1, "hex": "a914e4d58c32d1aea2ed0227f6f83435faef1547aa5887", "addresses": ["3NYyoqCyMUEhfSBkp9Xp3yLJN6n2XnVcLQ"], "asm": "OP_HASH160 e4d58c32d1aea2ed0227f6f83435faef1547aa58 OP_EQUAL", "type": "scripthash"}, "value": 0.008631, "n": 0}, {"scriptPubKey": {"reqSigs": 1, "hex": "76a914b3167162516db1bd7cb99344cd79154eed93c12e88ac", "addresses": ["1HKvqhVVKG3Rp4mCLJmHuGqQ5deQwRdyZ7"], "asm": "OP_DUP OP_HASH160 b3167162516db1bd7cb99344cd79154eed93c12e OP_EQUALVERIFY OP_CHECKSIG", "type": "pubkeyhash"}, "value": 0.154577, "n": 1}], "hex": "0100000000010103ec36bdc8285bb78eabf5aa23e13dbf3b58106535db635bd5cef2316b99c1fd010000002322002072db7d0a78972736dfa414c7c96986c2b7eda6f29f37a9de2252c6cd4b2375f6ffffffff027c2b0d000000000017a914e4d58c32d1aea2ed0227f6f83435faef1547aa5887a4ddeb00000000001976a914b3167162516db1bd7cb99344cd79154eed93c12e88ac0400473044022000ffc23fcc7e550173a490b41b9b846461ac3bf0e54e363e5c8fba9daf210a3502207d7a4bc9f63998a877b1bb53eed495385ecb45dca8c42db5409343436496826f014730440220543f650aa193c33d92fea0d4ecd33cb20e530fac06be23e429b2624732d7a8b3022072a18bffa2534e1e3bf3d17aa85b625edc40d10f28f6ea549546da3f58f53bec0169522102f679c643b1ba07c914b7af520c3f6494d93d089719b7c3513a70b2c3231218b421032a1dcb6d490d376d9334eafa591f19df6d20790b66ecf2953396ea94ac82ff48210361bc5c3f76a5d7ae110eba9af41af2400a18ab412921211521357ed0df9fd18653ae00000000", "vin": [{"txinwitness": ["", "3044022000ffc23fcc7e550173a490b41b9b846461ac3bf0e54e363e5c8fba9daf210a3502207d7a4bc9f63998a877b1bb53eed495385ecb45dca8c42db5409343436496826f01", "30440220543f650aa193c33d92fea0d4ecd33cb20e530fac06be23e429b2624732d7a8b3022072a18bffa2534e1e3bf3d17aa85b625edc40d10f28f6ea549546da3f58f53bec01", "522102f679c643b1ba07c914b7af520c3f6494d93d089719b7c3513a70b2c3231218b421032a1dcb6d490d376d9334eafa591f19df6d20790b66ecf2953396ea94ac82ff48210361bc5c3f76a5d7ae110eba9af41af2400a18ab412921211521357ed0df9fd18653ae"], "sequence": 4294967295, "scriptSig": {"hex": "22002072db7d0a78972736dfa414c7c96986c2b7eda6f29f37a9de2252c6cd4b2375f6", "asm": "002072db7d0a78972736dfa414c7c96986c2b7eda6f29f37a9de2252c6cd4b2375f6"}, "vout": 1, "txid": "fdc1996b31f2ced55b63db356510583bbf3de123aaf5ab8eb75b28c8bd36ec03"}], "txid": "5f9bc87820e96347daa92420710ab6b72c388c387cac91883c93ded7aa106a37", "blocktime": 1537873282, "version": 1, "confirmations": 11484, "time": 1537873282, "locktime": 0, "vsize": 216, "size": 406}