{"hash": "5fa05303e8c2cf633f8207792c1e440626a3abcc796915506adf577bb598288e", "blockhash": "0000000000000000000baef3f32e3676a92c3b2e5da21b426e4f302fc371ce76", "vout": [{"scriptPubKey": {"reqSigs": 1, "hex": "a914f3dcf6a7b9710802fb642b5576116383033f578087", "addresses": ["3PvSpyJE3z2Sak5DyYzJ7Mh5VVL44BBcrw"], "asm": "OP_HASH160 f3dcf6a7b9710802fb642b5576116383033f5780 OP_EQUAL", "type": "scripthash"}, "value": 0.00158561, "n": 0}, {"scriptPubKey": {"reqSigs": 1, "hex": "76a914b7888cc82fdecaf88856880550ac43fe948b8cae88ac", "addresses": ["1HjSEm71Kqt31Va9JhJk2SvztwotZkQJFN"], "asm": "OP_DUP OP_HASH160 b7888cc82fdecaf88856880550ac43fe948b8cae OP_EQUALVERIFY OP_CHECKSIG", "type": "pubkeyhash"}, "value": 0.00384801, "n": 1}], "hex": "02000000017876b9fd0061f64df9b507bf02f922539b235e36585ceb5c39e43515db28df61000000006b48304502210081c0ed15083d726115971f3eba8f88073aef86fc5a184d923ee046e939b9896a02205d16078faf61ba1ff1ce293f30072ee781480eeccc4ec685d7dbaf90c9e6d9dc012102851867d09e82b5070f6b44b709d6e7ce2ecd8447e8b54055fa338039c0645189ffffffff02616b02000000000017a914f3dcf6a7b9710802fb642b5576116383033f57808721df0500000000001976a914b7888cc82fdecaf88856880550ac43fe948b8cae88ac00000000", "vin": [{"sequence": 4294967295, "scriptSig": {"hex": "48304502210081c0ed15083d726115971f3eba8f88073aef86fc5a184d923ee046e939b9896a02205d16078faf61ba1ff1ce293f30072ee781480eeccc4ec685d7dbaf90c9e6d9dc012102851867d09e82b5070f6b44b709d6e7ce2ecd8447e8b54055fa338039c0645189", "asm": "304502210081c0ed15083d726115971f3eba8f88073aef86fc5a184d923ee046e939b9896a02205d16078faf61ba1ff1ce293f30072ee781480eeccc4ec685d7dbaf90c9e6d9dc[ALL] 02851867d09e82b5070f6b44b709d6e7ce2ecd8447e8b54055fa338039c0645189"}, "vout": 0, "txid": "61df28db1535e4395ceb5c58365e239b5322f902bf07b5f94df66100fdb97678"}], "txid": "5fa05303e8c2cf633f8207792c1e440626a3abcc796915506adf577bb598288e", "blocktime": 1537876114, "version": 2, "confirmations": 11459, "time": 1537876114, "locktime": 0, "vsize": 224, "size": 224}