{"hash": "c882d1bf6e8976b913dcce87316b5a8c5bfbb9a80b887db92bb7b3b840f9a01c", "blockhash": "00000000000000000017f5eb5941039fbcee6240d03bc1f2f8e35350df66a1d8", "vout": [{"scriptPubKey": {"reqSigs": 1, "hex": "001431f2719d2edbf3d92f5e09a8773e3a69776e482b", "addresses": ["bc1qx8e8r8fwm0eajt67px58w036d9mkujpt28fq6s"], "asm": "0 31f2719d2edbf3d92f5e09a8773e3a69776e482b", "type": "witness_v0_keyhash"}, "value": 0.00094141, "n": 0}, {"scriptPubKey": {"reqSigs": 1, "hex": "76a91491ed8252adaaccf5964c8d8630308dcd88e8217d88ac", "addresses": ["1EJbWEeAGNNR5DQDM9rkUZQUKiq2G1UWhW"], "asm": "OP_DUP OP_HASH160 91ed8252adaaccf5964c8d8630308dcd88e8217d OP_EQUALVERIFY OP_CHECKSIG", "type": "pubkeyhash"}, "value": 0.00988, "n": 1}], "hex": "0100000000010109168a886f704a69543705c1cc48d20365390ec30270ec431bad3d8a61ffdf240000000017160014e18be4325683d9a08d011f52f47573dca8e4ea55ffffffff02bd6f01000000000016001431f2719d2edbf3d92f5e09a8773e3a69776e482b60130f00000000001976a91491ed8252adaaccf5964c8d8630308dcd88e8217d88ac024730440220299f86ef7c31b5fe522149305b343dd8f07d0de60cdb6eddc45cd277c98bc7c602207148ef05cee51a49b5bcecaf976401cd43dcb15ee1155359c148d977ddbc47f4012102f383cce0c6ed5333ce4c0646ca58afb2b7ced29e80ee8590444e4837148aa9f700000000", "vin": [{"txinwitness": ["30440220299f86ef7c31b5fe522149305b343dd8f07d0de60cdb6eddc45cd277c98bc7c602207148ef05cee51a49b5bcecaf976401cd43dcb15ee1155359c148d977ddbc47f401", "02f383cce0c6ed5333ce4c0646ca58afb2b7ced29e80ee8590444e4837148aa9f7"], "sequence": 4294967295, "scriptSig": {"hex": "160014e18be4325683d9a08d011f52f47573dca8e4ea55", "asm": "0014e18be4325683d9a08d011f52f47573dca8e4ea55"}, "vout": 0, "txid": "24dfff618a3dad1b43ec7002c30e396503d248ccc1053754694a706f888a1609"}], "txid": "5fa27dab572c0c85044aa50a1a2fa62ebd59b14022d322cdd1023a3f3925506b", "blocktime": 1537874412, "version": 1, "confirmations": 11468, "time": 1537874412, "locktime": 0, "vsize": 167, "size": 248}