{"hash": "ab884078b6cc4c1e140e703e6e25d407527296490fc07ef9f4026c3b67b7b13e", "blockhash": "0000000000000000001f0ddff1eddb255c1121bcd4da4f1bc9a0da00cae72433", "vout": [{"scriptPubKey": {"reqSigs": 1, "hex": "a914fdf9fb20d1228d45b9005514c693df84e2f0a61587", "addresses": ["3QqvM4P6bTupA4hfGz2JcBddfcuibPbsX4"], "asm": "OP_HASH160 fdf9fb20d1228d45b9005514c693df84e2f0a615 OP_EQUAL", "type": "scripthash"}, "value": 0.0335, "n": 0}, {"scriptPubKey": {"reqSigs": 1, "hex": "a9141e12d088b2513c735d64b2799bb7e276dfae995887", "addresses": ["34S2jZNkgSJcHNiMGNtz3ZxqrBXwbNFFQK"], "asm": "OP_HASH160 1e12d088b2513c735d64b2799bb7e276dfae9958 OP_EQUAL", "type": "scripthash"}, "value": 0.72427201, "n": 1}], "hex": "01000000000101b21947be703f80f0b5a79435ce0bf6e9e26a22e52198266e0d063b48fb7db7b600000000171600141156aa159b55bf550c9c8dfb04ae2d8d23af4aceffffffff02f01d33000000000017a914fdf9fb20d1228d45b9005514c693df84e2f0a61587c12651040000000017a9141e12d088b2513c735d64b2799bb7e276dfae99588702483045022100b792ab91e0960e3d6b760c88184271357ed618ef3e2e31243c89f6ba8782a3510220012d0d23811ac4f578413b59195ef0d5fc828048996f03fbb1114728de8f8de9012103ae8b3c00dad42ac88ed61101c5fb2f85a9c4cc743e2f7b03bf96296db847619e00000000", "vin": [{"txinwitness": ["3045022100b792ab91e0960e3d6b760c88184271357ed618ef3e2e31243c89f6ba8782a3510220012d0d23811ac4f578413b59195ef0d5fc828048996f03fbb1114728de8f8de901", "03ae8b3c00dad42ac88ed61101c5fb2f85a9c4cc743e2f7b03bf96296db847619e"], "sequence": 4294967295, "scriptSig": {"hex": "1600141156aa159b55bf550c9c8dfb04ae2d8d23af4ace", "asm": "00141156aa159b55bf550c9c8dfb04ae2d8d23af4ace"}, "vout": 0, "txid": "b6b77dfb483b060d6e269821e5226ae2e9f60bce3594a7b5f0803f70be4719b2"}], "txid": "5fa2b0f3e6a6de29eba5f726ebf5eb6845cc0c290d7bbe13b480950bfc5f4b54", "blocktime": 1537872018, "version": 1, "confirmations": 11489, "time": 1537872018, "locktime": 0, "vsize": 166, "size": 248}