{"hash": "12472e336e83a5a3d257df7b7a95b62d19bd3eb65e215e6f46134f1e902bd30e", "blockhash": "000000000000000000022b45ed06c6f4ccd3cf7fb5ba4856ebd2e58215665228", "vout": [{"scriptPubKey": {"reqSigs": 1, "hex": "a91446e757ba357819d87b3c1c473e77edf91e8e2e3087", "addresses": ["389vMwfyfAS13VmkebAkdeke8ivNpv9cRT"], "asm": "OP_HASH160 46e757ba357819d87b3c1c473e77edf91e8e2e30 OP_EQUAL", "type": "scripthash"}, "value": 0.0226054, "n": 0}, {"scriptPubKey": {"reqSigs": 1, "hex": "a914a6c90392ec58f6c1db77341ff9ad26a6e35ac89787", "addresses": ["3Gttu5jagzZchRoN4HUZVrsNwgz9fZURQf"], "asm": "OP_HASH160 a6c90392ec58f6c1db77341ff9ad26a6e35ac897 OP_EQUAL", "type": "scripthash"}, "value": 0.06, "n": 1}], "hex": "010000000001020985a3e0cc8122503a060ffc96bf02a6bfee479657b089d01908871be95ae3ca0000000017160014e5fc9a53743f59645d169ca970c39128834e1ca5ffffffff3426c8a914e9ed611d45c429905a50315457b250ab168a27da6eac56951caef00100000017160014ff4b55f36f34a07471292943aeeda4840f1e7fc5ffffffff023c7e22000000000017a91446e757ba357819d87b3c1c473e77edf91e8e2e3087808d5b000000000017a914a6c90392ec58f6c1db77341ff9ad26a6e35ac89787024730440220339fc65111ac14466334191eabf85bb89265d4b2bad2879278d19994d03f1458022042b27f3f13f35006da4c27af2d4bb71c8ca5a699600d8c9118daf53c7dfdf30d0121028ce7bdfbc7fc43dca35dce233678ac86f0aea09b7ed3236f86a1d5b87074c6df02483045022100ec1c4ba90b503e524fe09b20e4bc32f03dd8e1bd96ad7324f030d55d9777c855022049d208ab017375861615a595283e766dd76dc5242b7255b29e556528cab03fc20121028f3a760baedde2c1c0bc0e99e811046afb5f008d2521700de1d6caa97b1b87d300000000", "vin": [{"txinwitness": ["30440220339fc65111ac14466334191eabf85bb89265d4b2bad2879278d19994d03f1458022042b27f3f13f35006da4c27af2d4bb71c8ca5a699600d8c9118daf53c7dfdf30d01", "028ce7bdfbc7fc43dca35dce233678ac86f0aea09b7ed3236f86a1d5b87074c6df"], "sequence": 4294967295, "scriptSig": {"hex": "160014e5fc9a53743f59645d169ca970c39128834e1ca5", "asm": "0014e5fc9a53743f59645d169ca970c39128834e1ca5"}, "vout": 0, "txid": "cae35ae91b870819d089b0579647eebfa602bf96fc0f063a502281cce0a38509"}, {"txinwitness": ["3045022100ec1c4ba90b503e524fe09b20e4bc32f03dd8e1bd96ad7324f030d55d9777c855022049d208ab017375861615a595283e766dd76dc5242b7255b29e556528cab03fc201", "028f3a760baedde2c1c0bc0e99e811046afb5f008d2521700de1d6caa97b1b87d3"], "sequence": 4294967295, "scriptSig": {"hex": "160014ff4b55f36f34a07471292943aeeda4840f1e7fc5", "asm": "0014ff4b55f36f34a07471292943aeeda4840f1e7fc5"}, "vout": 1, "txid": "f0ae1c9556ac6eda278a16ab50b2575431505a9029c4451d61ede914a9c82634"}], "txid": "5fa54e37a3d7757b19b193fa0e28f0b3df3502b65356017282a8c3edf2ef0579", "blocktime": 1537869901, "version": 1, "confirmations": 11523, "time": 1537869901, "locktime": 0, "vsize": 257, "size": 419}