{"hash": "5faa56b4ab1a19ce78a617e9a8f45d46c51bfdb4607ee3217aa0cffadfdcd7ea", "blockhash": "0000000000000000001f76057863aec43deb6fa401d9628bb513d65a8098bfab", "vout": [{"scriptPubKey": {"reqSigs": 1, "hex": "76a914d7944dfc233476f9383fbf4b9ea9a2e8a58f187588ac", "addresses": ["1LeswdXao8XbS8YgU66Y1Aps8t6ZSqzcgX"], "asm": "OP_DUP OP_HASH160 d7944dfc233476f9383fbf4b9ea9a2e8a58f1875 OP_EQUALVERIFY OP_CHECKSIG", "type": "pubkeyhash"}, "value": 0.04, "n": 0}, {"scriptPubKey": {"reqSigs": 1, "hex": "76a91447f319d188a48558daa509f6e23392b5c410202688ac", "addresses": ["17ZSCZgCmnjotqTpwYW3bdugAkNxxT2hYb"], "asm": "OP_DUP OP_HASH160 47f319d188a48558daa509f6e23392b5c4102026 OP_EQUALVERIFY OP_CHECKSIG", "type": "pubkeyhash"}, "value": 0.0858892, "n": 1}], "hex": "0200000003e6065e9d9db1d1991ea96e792fc6d6037378fddd599e2f068bf7e3d51706ca3a000000006a4730440220182d0899abb7af80ee27108cfe41ba59d1a49b9fff0aec6427fab5763f38148a02205b2034bd72e344e51cf06d9e085cdeead08f7f7a3e47d574fd9e04da374d9d70012103d70ba51ce87bf3a8442a4282f072c11b0c1116a514b38eafd095996e8518ec3bffffffffefdc1e10c966b73b32a57a0bc2ab33f8978488f8c4cc73ce72e6fc56ef846bbee70000006b483045022100d5aa47b524a98cf79c71a36c01bcf6b6e648027604aed3bd4342b4921ec7defd02203bee2ea3f0ed66251fb8feb0e8a8f3cc3f08f733f25209fd4af56cde382a308d01210350e5252e027e3049da22a822290e711f9dd6a2cf98c8bf3be3ebb475dddacc6affffffff9b3aadceca1972dd336499a5fd91e54166aae6771954c84bca0dd76445ce3d76000000006b483045022100befb32437354f03e3c77ebe2be38c25433b718b6b629461792862b0d9f7cb35c022042700981e194d4152e16c5838c3c98681b709208346c81b60f32e897ad76909e0121026990c65db6380dd87a37f3dd1a3361327ffd488b284361b14b3b25a4a82f39bcffffffff0200093d00000000001976a914d7944dfc233476f9383fbf4b9ea9a2e8a58f187588ac780e8300000000001976a91447f319d188a48558daa509f6e23392b5c410202688ac00000000", "vin": [{"sequence": 4294967295, "scriptSig": {"hex": "4730440220182d0899abb7af80ee27108cfe41ba59d1a49b9fff0aec6427fab5763f38148a02205b2034bd72e344e51cf06d9e085cdeead08f7f7a3e47d574fd9e04da374d9d70012103d70ba51ce87bf3a8442a4282f072c11b0c1116a514b38eafd095996e8518ec3b", "asm": "30440220182d0899abb7af80ee27108cfe41ba59d1a49b9fff0aec6427fab5763f38148a02205b2034bd72e344e51cf06d9e085cdeead08f7f7a3e47d574fd9e04da374d9d70[ALL] 03d70ba51ce87bf3a8442a4282f072c11b0c1116a514b38eafd095996e8518ec3b"}, "vout": 0, "txid": "3aca0617d5e3f78b062f9e59ddfd787303d6c62f796ea91e99d1b19d9d5e06e6"}, {"sequence": 4294967295, "scriptSig": {"hex": "483045022100d5aa47b524a98cf79c71a36c01bcf6b6e648027604aed3bd4342b4921ec7defd02203bee2ea3f0ed66251fb8feb0e8a8f3cc3f08f733f25209fd4af56cde382a308d01210350e5252e027e3049da22a822290e711f9dd6a2cf98c8bf3be3ebb475dddacc6a", "asm": "3045022100d5aa47b524a98cf79c71a36c01bcf6b6e648027604aed3bd4342b4921ec7defd02203bee2ea3f0ed66251fb8feb0e8a8f3cc3f08f733f25209fd4af56cde382a308d[ALL] 0350e5252e027e3049da22a822290e711f9dd6a2cf98c8bf3be3ebb475dddacc6a"}, "vout": 231, "txid": "be6b84ef56fce672ce73ccc4f8888497f833abc20b7aa5323bb766c9101edcef"}, {"sequence": 4294967295, "scriptSig": {"hex": "483045022100befb32437354f03e3c77ebe2be38c25433b718b6b629461792862b0d9f7cb35c022042700981e194d4152e16c5838c3c98681b709208346c81b60f32e897ad76909e0121026990c65db6380dd87a37f3dd1a3361327ffd488b284361b14b3b25a4a82f39bc", "asm": "3045022100befb32437354f03e3c77ebe2be38c25433b718b6b629461792862b0d9f7cb35c022042700981e194d4152e16c5838c3c98681b709208346c81b60f32e897ad76909e[ALL] 026990c65db6380dd87a37f3dd1a3361327ffd488b284361b14b3b25a4a82f39bc"}, "vout": 0, "txid": "763dce4564d70dca4bc8541977e6aa6641e591fda5996433dd7219cacead3a9b"}], "txid": "5faa56b4ab1a19ce78a617e9a8f45d46c51bfdb4607ee3217aa0cffadfdcd7ea", "blocktime": 1537873891, "version": 2, "confirmations": 11474, "time": 1537873891, "locktime": 0, "vsize": 521, "size": 521}