{"hash": "2117c24c0f9148dfaa540c7a1f0d2a6f0da45f48085e149c9a58a3860fcd9a73", "blockhash": "00000000000000000018f53835495a110e01622372bf6ae95dc86f2b0ab887b0", "vout": [{"scriptPubKey": {"reqSigs": 1, "hex": "a91433dc866aa3a8c8027f8b544b68252e82fcc5306287", "addresses": ["36REZgER7Ch52YJXpwjwL41QCeeUQNQoMM"], "asm": "OP_HASH160 33dc866aa3a8c8027f8b544b68252e82fcc53062 OP_EQUAL", "type": "scripthash"}, "value": 0.00999473, "n": 0}, {"scriptPubKey": {"reqSigs": 1, "hex": "76a9148a0669215d2a3ad2a8851051a67e3ae9da59cbc188ac", "addresses": ["1DaovtpWqDMRf3tVyFmmL1hgvmXAugjEkv"], "asm": "OP_DUP OP_HASH160 8a0669215d2a3ad2a8851051a67e3ae9da59cbc1 OP_EQUALVERIFY OP_CHECKSIG", "type": "pubkeyhash"}, "value": 0.004689, "n": 1}], "hex": "02000000000104179e6e62441a6e8ebe5a05f6077185c2f0e879568522b72eac2c7d023d6a446f7d00000017160014ea1e1a683c8b3a2058230b719719e5cc84680c58feffffff1f9c5c4aeb34c7f8f74b34ec2d550f452f1888f1430a22fb6222954e99945ee40200000017160014a830d13fdf198389660b747ee21e25c2064cddebfeffffffa92905db40683baf4c3059df18ac290d0370664d537155d465e6160ffbde0b170000000017160014ebc1733b68a8015b2a6e42bf2b312b01bc5bfb07feffffffba776e88990c825b44a941fbe132f49a28e02a7043cd1160585f59a5ad1ecfdc7a000000171600141a69e3c89820c81a2c78417b8c1adad781efc593feffffff0231400f000000000017a91433dc866aa3a8c8027f8b544b68252e82fcc5306287a4270700000000001976a9148a0669215d2a3ad2a8851051a67e3ae9da59cbc188ac02473044022003b6c6988c806745b6a0e1c611e065a23922bfe27a06a19eddabea87c0ccf02b022067eae5e1e3d01d1ec225912385fd9c2f0a0e892d26d47a6239abdc00d5c6e44d0121020cbf78772106f13617dd83eabacbd3240a21239d01ffdfaf63823f2615fcd81e02483045022100a4dac1de9f9e222938de5db8643d31fe1d843e8d15295a87c8799498101ab7b70220215db4aef4fc475fed3dbca6cbc7cb4d01c8dc880d2209948e8357e2ba5f39ab012103402b9d19f8c2e5e14650dc316c605684ddf56d765ce0567ed25f030a22ff506a02483045022100b461d31750ecdc1406ffa9b924786fb3de6e38c2428624e18e95e7e6a091f14c02203af5029b86202a0497d1fd0e5ac0cb60a0b9131e6e4f9fa03b69e6978e200c2f012103777592844a666138c76d96c29377d030a0628effeff4141f23f8e6c514d6ca8e024830450221009eff73835a400f0a9172a2f36f50fb49f15e619e6016c4a6d2aa603cc771511002201db8c5716dd7fc50ff6fe17469051fe19fd8fbd37adbcc6907fba57fa8b581ed01210294792ff46c8fec1c4137d884c288de1997868c50f6f6ecef7e462ce92845c8e40e490800", "vin": [{"txinwitness": ["3044022003b6c6988c806745b6a0e1c611e065a23922bfe27a06a19eddabea87c0ccf02b022067eae5e1e3d01d1ec225912385fd9c2f0a0e892d26d47a6239abdc00d5c6e44d01", "020cbf78772106f13617dd83eabacbd3240a21239d01ffdfaf63823f2615fcd81e"], "sequence": 4294967294, "scriptSig": {"hex": "160014ea1e1a683c8b3a2058230b719719e5cc84680c58", "asm": "0014ea1e1a683c8b3a2058230b719719e5cc84680c58"}, "vout": 125, "txid": "6f446a3d027d2cac2eb722855679e8f0c2857107f6055abe8e6e1a44626e9e17"}, {"txinwitness": ["3045022100a4dac1de9f9e222938de5db8643d31fe1d843e8d15295a87c8799498101ab7b70220215db4aef4fc475fed3dbca6cbc7cb4d01c8dc880d2209948e8357e2ba5f39ab01", "03402b9d19f8c2e5e14650dc316c605684ddf56d765ce0567ed25f030a22ff506a"], "sequence": 4294967294, "scriptSig": {"hex": "160014a830d13fdf198389660b747ee21e25c2064cddeb", "asm": "0014a830d13fdf198389660b747ee21e25c2064cddeb"}, "vout": 2, "txid": "e45e94994e952262fb220a43f188182f450f552dec344bf7f8c734eb4a5c9c1f"}, {"txinwitness": ["3045022100b461d31750ecdc1406ffa9b924786fb3de6e38c2428624e18e95e7e6a091f14c02203af5029b86202a0497d1fd0e5ac0cb60a0b9131e6e4f9fa03b69e6978e200c2f01", "03777592844a666138c76d96c29377d030a0628effeff4141f23f8e6c514d6ca8e"], "sequence": 4294967294, "scriptSig": {"hex": "160014ebc1733b68a8015b2a6e42bf2b312b01bc5bfb07", "asm": "0014ebc1733b68a8015b2a6e42bf2b312b01bc5bfb07"}, "vout": 0, "txid": "170bdefb0f16e665d45571534d6670030d29ac18df59304caf3b6840db0529a9"}, {"txinwitness": ["30450221009eff73835a400f0a9172a2f36f50fb49f15e619e6016c4a6d2aa603cc771511002201db8c5716dd7fc50ff6fe17469051fe19fd8fbd37adbcc6907fba57fa8b581ed01", "0294792ff46c8fec1c4137d884c288de1997868c50f6f6ecef7e462ce92845c8e4"], "sequence": 4294967294, "scriptSig": {"hex": "1600141a69e3c89820c81a2c78417b8c1adad781efc593", "asm": "00141a69e3c89820c81a2c78417b8c1adad781efc593"}, "vout": 122, "txid": "dccf1eada5595f586011cd43702ae0289af432e1fb41a9445b820c99886e77ba"}], "txid": "5fad44acf554e4321d021a131fb3c8d6015de3619e1af6f60c2e131527c3324b", "blocktime": 1537870928, "version": 2, "confirmations": 11514, "time": 1537870928, "locktime": 542990, "vsize": 441, "size": 765}