{"hash": "5fb2fab866eb06a2b56b85bd21a730c83ced40fca0ead9eedf03d071de76b9a2", "blockhash": "0000000000000000001cda96e906b7601b7a6fb1a3b62bca570a9e5d8f4b3de1", "vout": [{"scriptPubKey": {"reqSigs": 1, "hex": "a9144e617c64896d6899a642c8336350daeb0b250a2f87", "addresses": ["38qTQwqPUypNXbR7hjrLGv3FiCuUA84JFc"], "asm": "OP_HASH160 4e617c64896d6899a642c8336350daeb0b250a2f OP_EQUAL", "type": "scripthash"}, "value": 0.042, "n": 0}, {"scriptPubKey": {"reqSigs": 1, "hex": "76a914791c3df00f3eeee6fc995d93f99f16633d51818388ac", "addresses": ["1C3NbVn7fFgr9fjMUfFtXpsijugU7VhGYb"], "asm": "OP_DUP OP_HASH160 791c3df00f3eeee6fc995d93f99f16633d518183 OP_EQUALVERIFY OP_CHECKSIG", "type": "pubkeyhash"}, "value": 0.14121522, "n": 1}], "hex": "0100000001c22b52dbffba56324119f1a2f9afcdaa877f5e92c0cf92855757ff49e305ac5e010000006a47304402204c4d65875aba274056f0311f45792aa80b482525cf6744c8256efae41b59ea5902206d779fc67872c946fc497e5cd813f041a77b9efc7841e0320426d1942e5c550e0121027cfe2833bf9e03a2eacbe79a4e8fd3a85426c3e9a559af810ce533d29a5b710effffffff02401640000000000017a9144e617c64896d6899a642c8336350daeb0b250a2f87327ad700000000001976a914791c3df00f3eeee6fc995d93f99f16633d51818388ac00000000", "vin": [{"sequence": 4294967295, "scriptSig": {"hex": "47304402204c4d65875aba274056f0311f45792aa80b482525cf6744c8256efae41b59ea5902206d779fc67872c946fc497e5cd813f041a77b9efc7841e0320426d1942e5c550e0121027cfe2833bf9e03a2eacbe79a4e8fd3a85426c3e9a559af810ce533d29a5b710e", "asm": "304402204c4d65875aba274056f0311f45792aa80b482525cf6744c8256efae41b59ea5902206d779fc67872c946fc497e5cd813f041a77b9efc7841e0320426d1942e5c550e[ALL] 027cfe2833bf9e03a2eacbe79a4e8fd3a85426c3e9a559af810ce533d29a5b710e"}, "vout": 1, "txid": "5eac05e349ff57578592cfc0925e7f87aacdaff9a2f119413256baffdb522bc2"}], "txid": "5fb2fab866eb06a2b56b85bd21a730c83ced40fca0ead9eedf03d071de76b9a2", "blocktime": 1537873282, "version": 1, "confirmations": 11484, "time": 1537873282, "locktime": 0, "vsize": 223, "size": 223}