{"hash": "56edcc6d9bea28edcabbd30cc9b8b9804c9e5b77eee780139a231b46347824e4", "blockhash": "0000000000000000000dcc0f55137456b1a82d3642486a52398922ac4d620174", "vout": [{"scriptPubKey": {"reqSigs": 1, "hex": "a914d6fc282e27e179096a0df9015cc6485d59c2643c87", "addresses": ["3MHkbmV7wFAQR1c9WgWNxyYXwTDxLmDdyZ"], "asm": "OP_HASH160 d6fc282e27e179096a0df9015cc6485d59c2643c OP_EQUAL", "type": "scripthash"}, "value": 0.0102837, "n": 0}, {"scriptPubKey": {"reqSigs": 1, "hex": "76a91496044e417d2e892dce1f656f931c02277613a1f988ac", "addresses": ["1EgDWwTYbXgx5FBXJ6dSuY5je3ZeNGT1PU"], "asm": "OP_DUP OP_HASH160 96044e417d2e892dce1f656f931c02277613a1f9 OP_EQUALVERIFY OP_CHECKSIG", "type": "pubkeyhash"}, "value": 0.035, "n": 1}], "hex": "02000000000101b6c32467124adb9ddf79d99dfabc1c537ef772705918a4c468641269fdbfe31301000000171600143bcc1002555027b175fbaeb3c8d3b55a7051743efeffffff0212b10f000000000017a914d6fc282e27e179096a0df9015cc6485d59c2643c87e0673500000000001976a91496044e417d2e892dce1f656f931c02277613a1f988ac02473044022005597de901903fd0aace6286004be50742c984303ab17c35e7a2aacaf24bd0cd02206768c27ebc1ae8ccd72ec4029d714b6e6d4455c857fb679bf2337716141e48d601210214e9cc8f1a4720951dfde248cfdbeb17910e749a1850929c9aa6b544572f62df0c490800", "vin": [{"txinwitness": ["3044022005597de901903fd0aace6286004be50742c984303ab17c35e7a2aacaf24bd0cd02206768c27ebc1ae8ccd72ec4029d714b6e6d4455c857fb679bf2337716141e48d601", "0214e9cc8f1a4720951dfde248cfdbeb17910e749a1850929c9aa6b544572f62df"], "sequence": 4294967294, "scriptSig": {"hex": "1600143bcc1002555027b175fbaeb3c8d3b55a7051743e", "asm": "00143bcc1002555027b175fbaeb3c8d3b55a7051743e"}, "vout": 1, "txid": "13e3bffd69126468c4a418597072f77e531cbcfa9dd979df9ddb4a126724c3b6"}], "txid": "5fb289732aa5156d0815334b40e5a8424f92fc78619e33ff472bdfce1c3f1745", "blocktime": 1537870268, "version": 2, "confirmations": 11516, "time": 1537870268, "locktime": 542988, "vsize": 168, "size": 249}