{"hash": "2060a2a89eb49c477820c645cc0f921a0ed232964071a141afe7febe182f5d5b", "blockhash": "0000000000000000000e13cef7c366c0283d82e591d1acd082e914b08063cdf1", "vout": [{"scriptPubKey": {"reqSigs": 1, "hex": "a914491fce3937665f1aedc1407e2b7867f00ed2bffd87", "addresses": ["38MfMSGWwzgUKwDuMcgM668uSqEGCyMGVp"], "asm": "OP_HASH160 491fce3937665f1aedc1407e2b7867f00ed2bffd OP_EQUAL", "type": "scripthash"}, "value": 0.01110504, "n": 0}, {"scriptPubKey": {"reqSigs": 1, "hex": "76a914887e245c99827fc7bb8e367ec7c4696fb6b49f2388ac", "addresses": ["1DSi1bJRbgkeb5wKX9DDJAdHV3jWZJ6nXt"], "asm": "OP_DUP OP_HASH160 887e245c99827fc7bb8e367ec7c4696fb6b49f23 OP_EQUALVERIFY OP_CHECKSIG", "type": "pubkeyhash"}, "value": 0.00065268, "n": 1}], "hex": "0200000000010253e598722a64de3bcb067a3f6242d813bd2121ffc61079e93fe0c6d9f634845e0100000017160014e0cada618678a4bfd2fe8c55fa1f03dcf288e3dbfeffffff599718977bc25b1c8eb673515e4490f8e83a0ace155de83b7a1360f6b3d95bb90100000017160014c4e2924883801ab243f0ae602fd212ecebd01f3bfeffffff02e8f110000000000017a914491fce3937665f1aedc1407e2b7867f00ed2bffd87f4fe0000000000001976a914887e245c99827fc7bb8e367ec7c4696fb6b49f2388ac02483045022100dd3bde5227ba55ada43f9300730c0a6c30581b56b9e2d2115670143674eaabfc02202ad6453a35d1676cce5cb1f6a39ca637b7e1ddf648bd2ec9e49ae49a7063d4bf012102642d49d1fc79f5552942183e54443c1ea96c60f7efae3b272f0f37affd68971b0247304402207eb20a88f1d7226ead43ec66c6cb91e0280ac709b7abf251ad43b64f07b78a78022063e6f612401c65b5f338248167639b8bcfb29891ee9e01c0d299d4f8e6cb12f70121031a5b4cff07b624cab3aaa2840258fe2ba61758ed279a3d21d3c9f4effc2f77fe0f490800", "vin": [{"txinwitness": ["3045022100dd3bde5227ba55ada43f9300730c0a6c30581b56b9e2d2115670143674eaabfc02202ad6453a35d1676cce5cb1f6a39ca637b7e1ddf648bd2ec9e49ae49a7063d4bf01", "02642d49d1fc79f5552942183e54443c1ea96c60f7efae3b272f0f37affd68971b"], "sequence": 4294967294, "scriptSig": {"hex": "160014e0cada618678a4bfd2fe8c55fa1f03dcf288e3db", "asm": "0014e0cada618678a4bfd2fe8c55fa1f03dcf288e3db"}, "vout": 1, "txid": "5e8434f6d9c6e03fe97910c6ff2121bd13d842623f7a06cb3bde642a7298e553"}, {"txinwitness": ["304402207eb20a88f1d7226ead43ec66c6cb91e0280ac709b7abf251ad43b64f07b78a78022063e6f612401c65b5f338248167639b8bcfb29891ee9e01c0d299d4f8e6cb12f701", "031a5b4cff07b624cab3aaa2840258fe2ba61758ed279a3d21d3c9f4effc2f77fe"], "sequence": 4294967294, "scriptSig": {"hex": "160014c4e2924883801ab243f0ae602fd212ecebd01f3b", "asm": "0014c4e2924883801ab243f0ae602fd212ecebd01f3b"}, "vout": 1, "txid": "b95bd9b3f660137a3be85d15ce0a3ae8f890445e5173b68e1c5bc27b97189759"}], "txid": "5fb862901c3155f803a263ea243220ad28561ddd3ab0d74a9b83896b07b4ab3c", "blocktime": 1537871767, "version": 2, "confirmations": 11495, "time": 1537871767, "locktime": 542991, "vsize": 259, "size": 421}