{"hash": "5fbf7f11e19a8d01d9f5aa4fb64f975a9d1778a461bd515054ae52fa6d254270", "blockhash": "00000000000000000004ffacab907a6b429b9a5745fa0b75af4234bf69dd7176", "vout": [{"scriptPubKey": {"reqSigs": 1, "hex": "76a914de5bc850b027ace73f2c5493519bd7219f1f48ff88ac", "addresses": ["1MGixkCzx1oyZkii2V4x4pq3Ff9VDgug3b"], "asm": "OP_DUP OP_HASH160 de5bc850b027ace73f2c5493519bd7219f1f48ff OP_EQUALVERIFY OP_CHECKSIG", "type": "pubkeyhash"}, "value": 0.01563831, "n": 0}, {"scriptPubKey": {"reqSigs": 1, "hex": "76a914dc274a2835bd5756b8a4c770c97f51f88041812a88ac", "addresses": ["1M54j6e8FWPbrdMkBnmq3C7H6S8Nxv4oRp"], "asm": "OP_DUP OP_HASH160 dc274a2835bd5756b8a4c770c97f51f88041812a OP_EQUALVERIFY OP_CHECKSIG", "type": "pubkeyhash"}, "value": 0.01931483, "n": 1}], "hex": "01000000018df50cd9c51917d3380bc0a6e0d5eacb982740e05df21dda8468fd4d99c77c70010000006a47304402203d725b9e58a385a97e2497180c280fc1051adf90c944931d7129bab5d4ef355302203013fd332c330a7eb6dfd7463afa257bc7f05f66cfafef6198ada5b36ce6b9df012103acf78d4257ceb70fb7759ad0cdf633bc61c880f8a100d4a9b7e101cef64fa94affffffff02b7dc1700000000001976a914de5bc850b027ace73f2c5493519bd7219f1f48ff88acdb781d00000000001976a914dc274a2835bd5756b8a4c770c97f51f88041812a88ac00000000", "vin": [{"sequence": 4294967295, "scriptSig": {"hex": "47304402203d725b9e58a385a97e2497180c280fc1051adf90c944931d7129bab5d4ef355302203013fd332c330a7eb6dfd7463afa257bc7f05f66cfafef6198ada5b36ce6b9df012103acf78d4257ceb70fb7759ad0cdf633bc61c880f8a100d4a9b7e101cef64fa94a", "asm": "304402203d725b9e58a385a97e2497180c280fc1051adf90c944931d7129bab5d4ef355302203013fd332c330a7eb6dfd7463afa257bc7f05f66cfafef6198ada5b36ce6b9df[ALL] 03acf78d4257ceb70fb7759ad0cdf633bc61c880f8a100d4a9b7e101cef64fa94a"}, "vout": 1, "txid": "707cc7994dfd6884da1df25de0402798cbead5e0a6c00b38d31719c5d90cf58d"}], "txid": "5fbf7f11e19a8d01d9f5aa4fb64f975a9d1778a461bd515054ae52fa6d254270", "blocktime": 1537875543, "version": 1, "confirmations": 11464, "time": 1537875543, "locktime": 0, "vsize": 225, "size": 225}