{"hash": "5fc0817c35f52171b8e4cb27c9b8356a04e0d66920a0f1cb0909b92b5c86bc94", "blockhash": "000000000000000000022b45ed06c6f4ccd3cf7fb5ba4856ebd2e58215665228", "vout": [{"scriptPubKey": {"reqSigs": 1, "hex": "a91462dcbcb74bdb0ec1be84dd897cf301ed419747a487", "addresses": ["3AhkaRwBCG9h5VqiSJ9MrZJUDiAH5pJ5eK"], "asm": "OP_HASH160 62dcbcb74bdb0ec1be84dd897cf301ed419747a4 OP_EQUAL", "type": "scripthash"}, "value": 3.987e-05, "n": 0}], "hex": "01000000023528abdf4ba2e56813dd77a81cf34b9ae666b26ce0bd1c5a19b4dc40b250464c000000006a47304402203f5566784543793f80e9fa6afad7a5768e5801d4494cb933e7799af1ff5d2fa70220670bf1556dba7312538608d93b498aaeb2858d2f3589ad4632640dc1fa92708d01210287cf42023aaf4d70d682ef7fe12d4f88af27c5bdb202bc020a46a6db0c6c7dcaffffffffd0cf2cd81f9b3a7e092abbeab7b390e71936c79da67e657ace2ac12dd86c8273000000006a47304402204c3a8f95300ef6021f15c18dfe47bfa7e0fc85b79f681e0616574055112eb10b02200ff8ed2eb57f4203203afd0f5729ce6b6e1774c7dbb29e6bb183083726d540d7012103c1812079a00dbe09ec5b06ed9f589f33ff9e861465cf0ecaf7942076df6f3b68ffffffff01930f00000000000017a91462dcbcb74bdb0ec1be84dd897cf301ed419747a48700000000", "vin": [{"sequence": 4294967295, "scriptSig": {"hex": "47304402203f5566784543793f80e9fa6afad7a5768e5801d4494cb933e7799af1ff5d2fa70220670bf1556dba7312538608d93b498aaeb2858d2f3589ad4632640dc1fa92708d01210287cf42023aaf4d70d682ef7fe12d4f88af27c5bdb202bc020a46a6db0c6c7dca", "asm": "304402203f5566784543793f80e9fa6afad7a5768e5801d4494cb933e7799af1ff5d2fa70220670bf1556dba7312538608d93b498aaeb2858d2f3589ad4632640dc1fa92708d[ALL] 0287cf42023aaf4d70d682ef7fe12d4f88af27c5bdb202bc020a46a6db0c6c7dca"}, "vout": 0, "txid": "4c4650b240dcb4195a1cbde06cb266e69a4bf31ca877dd1368e5a24bdfab2835"}, {"sequence": 4294967295, "scriptSig": {"hex": "47304402204c3a8f95300ef6021f15c18dfe47bfa7e0fc85b79f681e0616574055112eb10b02200ff8ed2eb57f4203203afd0f5729ce6b6e1774c7dbb29e6bb183083726d540d7012103c1812079a00dbe09ec5b06ed9f589f33ff9e861465cf0ecaf7942076df6f3b68", "asm": "304402204c3a8f95300ef6021f15c18dfe47bfa7e0fc85b79f681e0616574055112eb10b02200ff8ed2eb57f4203203afd0f5729ce6b6e1774c7dbb29e6bb183083726d540d7[ALL] 03c1812079a00dbe09ec5b06ed9f589f33ff9e861465cf0ecaf7942076df6f3b68"}, "vout": 0, "txid": "73826cd82dc12ace7a657ea69dc73619e790b3b7eabb2a097e3a9b1fd82ccfd0"}], "txid": "5fc0817c35f52171b8e4cb27c9b8356a04e0d66920a0f1cb0909b92b5c86bc94", "blocktime": 1537869901, "version": 1, "confirmations": 11523, "time": 1537869901, "locktime": 0, "vsize": 336, "size": 336}