{"hash": "4df6f29da60087472f0d330e813c92c0f7b5fd8168fac5a32702873a8cfdb7bc", "blockhash": "0000000000000000001cda96e906b7601b7a6fb1a3b62bca570a9e5d8f4b3de1", "vout": [{"scriptPubKey": {"reqSigs": 1, "hex": "76a914fc3bc8217fb769c8405032bc32b19e134a10b21088ac", "addresses": ["1Pzgu3x4TMMgWKRcn9H3NHEcahm15CWR3u"], "asm": "OP_DUP OP_HASH160 fc3bc8217fb769c8405032bc32b19e134a10b210 OP_EQUALVERIFY OP_CHECKSIG", "type": "pubkeyhash"}, "value": 0.0002772, "n": 0}, {"scriptPubKey": {"reqSigs": 1, "hex": "a9140be7846be16b05bea00dbec2fcd7e045a793cb1787", "addresses": ["32mxhko5mJHfkbkDPpz7SfdJwEJi21P1WK"], "asm": "OP_HASH160 0be7846be16b05bea00dbec2fcd7e045a793cb17 OP_EQUAL", "type": "scripthash"}, "value": 0.19175836, "n": 1}], "hex": "010000000001012069d86d9e46c1ff3af086270abb8993ed195f77de9e9d226291937eba4c341601000000232200202c66ece6da72bcbfeadf83a91236f4891c13e14d8ecebdcaa81666fc1aa73a31ffffffff02486c0000000000001976a914fc3bc8217fb769c8405032bc32b19e134a10b21088ac9c9924010000000017a9140be7846be16b05bea00dbec2fcd7e045a793cb17870400483045022100f5e3ce01316361d346c80d8e1575a7bed853cd66f30e3e04fbfa4969765695f402203233dc8966cf3667ef0396b74b58f883677f7a02873e66adeefe5e7cb0cfc5fb014730440220764739b77653380a6b3a71b31667a8764bccb686d4c4cf300d45342ddb919e7c02206524d6b02de66c4aa7eaaa13b30b2365b3b65087ff9b867e6760d658d536e01401475221029e6fbb942d34a473faaa5557c1bfe08d72102f0b9754ad140fd369d7a3ba3cdc2103871fc2ca08e6950b38867e8e6a0e94ee625223d3aa0df5c65f414c6d784467e252ae00000000", "vin": [{"txinwitness": ["", "3045022100f5e3ce01316361d346c80d8e1575a7bed853cd66f30e3e04fbfa4969765695f402203233dc8966cf3667ef0396b74b58f883677f7a02873e66adeefe5e7cb0cfc5fb01", "30440220764739b77653380a6b3a71b31667a8764bccb686d4c4cf300d45342ddb919e7c02206524d6b02de66c4aa7eaaa13b30b2365b3b65087ff9b867e6760d658d536e01401", "5221029e6fbb942d34a473faaa5557c1bfe08d72102f0b9754ad140fd369d7a3ba3cdc2103871fc2ca08e6950b38867e8e6a0e94ee625223d3aa0df5c65f414c6d784467e252ae"], "sequence": 4294967295, "scriptSig": {"hex": "2200202c66ece6da72bcbfeadf83a91236f4891c13e14d8ecebdcaa81666fc1aa73a31", "asm": "00202c66ece6da72bcbfeadf83a91236f4891c13e14d8ecebdcaa81666fc1aa73a31"}, "vout": 1, "txid": "16344cba7e939162229d9ede775f19ed9389bb0a2786f03affc1469e6dd86920"}], "txid": "5fc2ee5872030e1e6eab4acbb5c851cf910540c05362917761feac4b460c0a29", "blocktime": 1537873282, "version": 1, "confirmations": 11484, "time": 1537873282, "locktime": 0, "vsize": 208, "size": 373}