{"hash": "5e55fa4edad299370235332b0e0ce8c6c97d79200a9870fe05d10d700bfecab3", "blockhash": "0000000000000000001f76057863aec43deb6fa401d9628bb513d65a8098bfab", "vout": [{"scriptPubKey": {"reqSigs": 1, "hex": "a9142da7a3bc92e99963427a1d2238b0e94f88d9d24a87", "addresses": ["35rR9ymAkDfaFG1KhyArnmwSRbLJnJPzz1"], "asm": "OP_HASH160 2da7a3bc92e99963427a1d2238b0e94f88d9d24a OP_EQUAL", "type": "scripthash"}, "value": 0.03162232, "n": 0}, {"scriptPubKey": {"reqSigs": 1, "hex": "a914a613c97abef7eb6ffe51b7416e7ccdaa46d248c887", "addresses": ["3Gq9oDPpCRgNCYyC69R9NgqjNmb85RWUfs"], "asm": "OP_HASH160 a613c97abef7eb6ffe51b7416e7ccdaa46d248c8 OP_EQUAL", "type": "scripthash"}, "value": 0.16837601, "n": 1}], "hex": "020000000001010815d6bc1aeb7cd96142b1cb14c640403b4dbe5ac77ed9e27de60f0c879d6d9300000000171600140d1d184dfe724b19222efd47d5fd4a8a0bb76984feffffff02784030000000000017a9142da7a3bc92e99963427a1d2238b0e94f88d9d24a87e1eb00010000000017a914a613c97abef7eb6ffe51b7416e7ccdaa46d248c88702483045022100ec32c6b7ab79b505d219b5724b09605dbd3c3004a141f5896b095e77b77c480702207492a5145b64df1a9934c3c6cee43e1878afad079e5824ac93dd2d0ea17e91b3012103617bd6a576ea7b0f30e9b9d87460bcf41e3aeab3aced2c7a0b0289a5758dd4e110490800", "vin": [{"txinwitness": ["3045022100ec32c6b7ab79b505d219b5724b09605dbd3c3004a141f5896b095e77b77c480702207492a5145b64df1a9934c3c6cee43e1878afad079e5824ac93dd2d0ea17e91b301", "03617bd6a576ea7b0f30e9b9d87460bcf41e3aeab3aced2c7a0b0289a5758dd4e1"], "sequence": 4294967294, "scriptSig": {"hex": "1600140d1d184dfe724b19222efd47d5fd4a8a0bb76984", "asm": "00140d1d184dfe724b19222efd47d5fd4a8a0bb76984"}, "vout": 0, "txid": "936d9d870c0fe67de2d97ec75abe4d3b4040c614cbb14261d97ceb1abcd61508"}], "txid": "5fce53a4e280662b019bbb2a4ccbf83f25a1d0e82124ddec88807466eca78834", "blocktime": 1537873891, "version": 2, "confirmations": 11479, "time": 1537873891, "locktime": 542992, "vsize": 166, "size": 248}