{"hash": "be1162940ad39969e7c7491ab33710897e163e1dbac2d15f758d62d0397211a1", "blockhash": "0000000000000000001f0ddff1eddb255c1121bcd4da4f1bc9a0da00cae72433", "vout": [{"scriptPubKey": {"reqSigs": 1, "hex": "a914404d545f6fe1c7a52a11c25b0cee55e4197a403f87", "addresses": ["37Z1omsLToRBf2aPqVW2iEKncXqHfmfCHk"], "asm": "OP_HASH160 404d545f6fe1c7a52a11c25b0cee55e4197a403f OP_EQUAL", "type": "scripthash"}, "value": 0.01859507, "n": 0}, {"scriptPubKey": {"reqSigs": 1, "hex": "00141c668284b0b3da4fab249a58cff3b1ad729cc970", "addresses": ["bc1qr3ng9p9sk0dyl2eynfvvlua344efejts7r76f3"], "asm": "0 1c668284b0b3da4fab249a58cff3b1ad729cc970", "type": "witness_v0_keyhash"}, "value": 0.00111988, "n": 1}], "hex": "010000000001010e1ed874ef594e0dbb18951b5a1163f6bc12ab18d5c4a1cd380d400a703e47fa0000000017160014307f9311744b73f3a09190ac818113f5beedd036ffffffff02b35f1c000000000017a914404d545f6fe1c7a52a11c25b0cee55e4197a403f8774b50100000000001600141c668284b0b3da4fab249a58cff3b1ad729cc9700247304402201d9951f5b65eced5d5f907fd307f50fba0d481c84ea28d7d0868928bd7fa2953022006eae651318c02a343e9bed138d93d243b4aa06244dde348172c85636e4d030f01210218d36d813181c00577fdc7675b49ff92e0a1e760b70da2e559f2505d994b9d3400000000", "vin": [{"txinwitness": ["304402201d9951f5b65eced5d5f907fd307f50fba0d481c84ea28d7d0868928bd7fa2953022006eae651318c02a343e9bed138d93d243b4aa06244dde348172c85636e4d030f01", "0218d36d813181c00577fdc7675b49ff92e0a1e760b70da2e559f2505d994b9d34"], "sequence": 4294967295, "scriptSig": {"hex": "160014307f9311744b73f3a09190ac818113f5beedd036", "asm": "0014307f9311744b73f3a09190ac818113f5beedd036"}, "vout": 0, "txid": "fa473e700a400d38cda1c4d518ab12bcf663115a1b9518bb0d4e59ef74d81e0e"}], "txid": "5fce5552f22437640b6d1b01d4c8ae3faadd86a952b54abcb65dc10362728f53", "blocktime": 1537872018, "version": 1, "confirmations": 11489, "time": 1537872018, "locktime": 0, "vsize": 165, "size": 246}