{"hash": "5fcf28522b79281858bb40f8e0ea45935a24e8e69016b2ee0fd7a3e871598381", "blockhash": "0000000000000000001f76057863aec43deb6fa401d9628bb513d65a8098bfab", "vout": [{"scriptPubKey": {"reqSigs": 1, "hex": "76a914eeb7576c2042c94afe7d21ce1f5bff80374034a888ac", "addresses": ["1NmDTSs9nAPtexC8cFN9z5LUfPxJya8qgH"], "asm": "OP_DUP OP_HASH160 eeb7576c2042c94afe7d21ce1f5bff80374034a8 OP_EQUALVERIFY OP_CHECKSIG", "type": "pubkeyhash"}, "value": 0.24580578, "n": 0}, {"scriptPubKey": {"reqSigs": 1, "hex": "76a91495742352cfc21cd8487926a0e4366812af52f51e88ac", "addresses": ["1EdEozVSVmqf1VbrHjLKB7tS5mMzNWsXCT"], "asm": "OP_DUP OP_HASH160 95742352cfc21cd8487926a0e4366812af52f51e OP_EQUALVERIFY OP_CHECKSIG", "type": "pubkeyhash"}, "value": 0.070808, "n": 1}], "hex": "0200000001e321528101b3a3a8a4745eb3eeb27147af5590a7e2beafc5f462be3ea4b381bf000000006a47304402206322690bf757c56ff97309a798befa0ff179c70a0ad4e512e12ae4e0082927940220512b9772a3fd0192c3268870e6c8714a8e4db8c69eab738c96fce0a967f0ceb901210342f3e062e6a8fad61b2928aa2028d90510afef97b289b54c1df9b73413ac758bfeffffff02e2117701000000001976a914eeb7576c2042c94afe7d21ce1f5bff80374034a888ac600b6c00000000001976a91495742352cfc21cd8487926a0e4366812af52f51e88acbd480800", "vin": [{"sequence": 4294967294, "scriptSig": {"hex": "47304402206322690bf757c56ff97309a798befa0ff179c70a0ad4e512e12ae4e0082927940220512b9772a3fd0192c3268870e6c8714a8e4db8c69eab738c96fce0a967f0ceb901210342f3e062e6a8fad61b2928aa2028d90510afef97b289b54c1df9b73413ac758b", "asm": "304402206322690bf757c56ff97309a798befa0ff179c70a0ad4e512e12ae4e0082927940220512b9772a3fd0192c3268870e6c8714a8e4db8c69eab738c96fce0a967f0ceb9[ALL] 0342f3e062e6a8fad61b2928aa2028d90510afef97b289b54c1df9b73413ac758b"}, "vout": 0, "txid": "bf81b3a43ebe62f4c5afbee2a79055af4771b2eeb35e74a4a8a3b301815221e3"}], "txid": "5fcf28522b79281858bb40f8e0ea45935a24e8e69016b2ee0fd7a3e871598381", "blocktime": 1537873891, "version": 2, "confirmations": 11478, "time": 1537873891, "locktime": 542909, "vsize": 225, "size": 225}