{"hash": "d0c431d48b4f0b97d136f9c82aace4160fe1970d791f7b5b90dab3488d96da04", "blockhash": "00000000000000000018f53835495a110e01622372bf6ae95dc86f2b0ab887b0", "vout": [{"scriptPubKey": {"reqSigs": 1, "hex": "001466a0f763fa2947cff3181571b1b48c3c6d134d72", "addresses": ["bc1qv6s0wcl699ruluccz4cmrdyv83k3xntj4mvxn7"], "asm": "0 66a0f763fa2947cff3181571b1b48c3c6d134d72", "type": "witness_v0_keyhash"}, "value": 0.0001071, "n": 0}, {"scriptPubKey": {"reqSigs": 1, "hex": "76a9144406c164b55f332e6a00e72c45da825146b5b7ae88ac", "addresses": ["17Ch3RQpK9xYAGdGZWQz5oCvW5o4SiTGG2"], "asm": "OP_DUP OP_HASH160 4406c164b55f332e6a00e72c45da825146b5b7ae OP_EQUALVERIFY OP_CHECKSIG", "type": "pubkeyhash"}, "value": 0.0079663, "n": 1}], "hex": "01000000000101cefece69918a99165280e73f8c22cedda2e99c1da681d0d565c737294c4adeba0000000000ffffffff02d62900000000000016001466a0f763fa2947cff3181571b1b48c3c6d134d72d6270c00000000001976a9144406c164b55f332e6a00e72c45da825146b5b7ae88ac02473044022003fb28cf197c0e245f9f00cc93e6c4312602bf735550650c7e1b25e32db889cf02206f34250bb7047aba5b8a928a2013111cff76ba1610d79c0a3401974371156a93012102bdde9f5765d5ee50527b9e1152bc4c2fd911530163a674fae3a99baaab1b889200000000", "vin": [{"txinwitness": ["3044022003fb28cf197c0e245f9f00cc93e6c4312602bf735550650c7e1b25e32db889cf02206f34250bb7047aba5b8a928a2013111cff76ba1610d79c0a3401974371156a9301", "02bdde9f5765d5ee50527b9e1152bc4c2fd911530163a674fae3a99baaab1b8892"], "sequence": 4294967295, "scriptSig": {"hex": "", "asm": ""}, "vout": 0, "txid": "bade4a4c2937c765d5d081a61d9ce9a2ddce228c3fe7805216998a9169cefece"}], "txid": "5fd6fc9bef941769053df2c3e614a214232936b8aaf8ac30f6e88a42d5ab9289", "blocktime": 1537870928, "version": 1, "confirmations": 11514, "time": 1537870928, "locktime": 0, "vsize": 144, "size": 225}