{"hash": "962b7cd54781a9a80a7be8f05c796043cd333c4a91f9b68b025fd00e67013894", "blockhash": "00000000000000000004ffacab907a6b429b9a5745fa0b75af4234bf69dd7176", "vout": [{"scriptPubKey": {"reqSigs": 1, "hex": "76a914435a706858d783b000835b680db0798367bbb63288ac", "addresses": ["1798cfv125hHUJiscJ8f6V2r76DsF2pzih"], "asm": "OP_DUP OP_HASH160 435a706858d783b000835b680db0798367bbb632 OP_EQUALVERIFY OP_CHECKSIG", "type": "pubkeyhash"}, "value": 0.14, "n": 0}, {"scriptPubKey": {"reqSigs": 1, "hex": "a914257fe9bc71690bec5d85a4799b72f1676bcffc2787", "addresses": ["357JACFKXLAtAzFYdmaAbXpZiPDWvsMq4R"], "asm": "OP_HASH160 257fe9bc71690bec5d85a4799b72f1676bcffc27 OP_EQUAL", "type": "scripthash"}, "value": 0.00461515, "n": 1}], "hex": "0100000000010fb3e4ef0b63db9f74c77cc68326e3cefc41e8087e9a3300afe74f1a1379d9a050370000001716001444013b1d01fac59ae06358c9448b252acdae10eaffffffff383d0dbbec71876fe2b0ae5f1fb05b37d628a6df154ff47c9f5882d42d60bcca390000001716001444013b1d01fac59ae06358c9448b252acdae10eaffffffffa82ac54b89459f74db8d2cd321c22b0e85220fc5f69485da3885ca2f18444379440000001716001444013b1d01fac59ae06358c9448b252acdae10eaffffffff2c412cd928cd771a3252f4d00eb7228f6a8df78f6a5cf41428a1e88ae829cd1c3c0000001716001444013b1d01fac59ae06358c9448b252acdae10eaffffffff7caf14e88c7fde6f06d0aa7f0e122083ba1de6ff046932fd0d2af6356e38ca2a490000001716001444013b1d01fac59ae06358c9448b252acdae10eaffffffff59921316cadab327d1f804e85b76a0d4e8d6e5d324609cb3317a9f741d6c63e7400000001716001444013b1d01fac59ae06358c9448b252acdae10eaffffffff6508e298be42d42966d3f9c2c3b15233ad1067a5056d2dcf323ded4911205071400000001716001444013b1d01fac59ae06358c9448b252acdae10eaffffffff5502fcf3eca0dc1b2d5e419f934fa776c9477dd8a5cc5e7b09be03864e9a1684c8000000171600144ce5565bfb1995da858b70ab636f1333d6b07408ffffffffc2059f9c0483e3489e6f2e970dfad8277ef48de66abafd3bcbb056f0eaa11604400000001716001444013b1d01fac59ae06358c9448b252acdae10eaffffffffb7b5ca637ace308b1c6dd05897889e1468f2544ca09dcf60ce21e057959efbf53f0000001716001444013b1d01fac59ae06358c9448b252acdae10eaffffffffe9f87bcaafd973b653ab4097aa35359ff2df468a77638dc26669f98b02b656453c0000001716001444013b1d01fac59ae06358c9448b252acdae10eaffffffff2b26806aac3c4a85ade2e909c3246be4973dd7596b529fcc08f0f61939c2ec8d420000001716001444013b1d01fac59ae06358c9448b252acdae10eaffffffffe28684e0ff8cba1c7f1e1a5f626c34cbfe3f91773329cb74c15b6f0340ee8892420000001716001444013b1d01fac59ae06358c9448b252acdae10eaffffffff6e20ab1eb548e00b82e7fa76a6fa59b335251f43ca2bd413ed696a7a5fae25623f0000001716001444013b1d01fac59ae06358c9448b252acdae10eaffffffffc81c376a8f224e92f8afd948129922342a9f7b899c62dc13ff4f1701fe67e6023f0000001716001444013b1d01fac59ae06358c9448b252acdae10eaffffffff02809fd500000000001976a914435a706858d783b000835b680db0798367bbb63288accb0a07000000000017a914257fe9bc71690bec5d85a4799b72f1676bcffc278702473044022048e4d450bdf4fc40ce371a51c6e664ccb81ee68c8ee696c524de7149fcc0224b022021984dc7a9b615d25d59f390d97362faad0d6a2c9a550cde3ac26574cb877265012103ad43fadfee2c4fa862c14852d4374733252404cdaf7193bd3ce16dfac38dbbf2024830450221009593586ca94fcbe90ce45c8abc417b44d8dc88621aab4869bde609ee5c8ce93a02206b3a1142869200a14f2c4662553d194dd9a0c4efc8894ae004e9ab111dfca9cc012103ad43fadfee2c4fa862c14852d4374733252404cdaf7193bd3ce16dfac38dbbf202483045022100fe853ccc7d655697e7507750d2cdccf73346c5dd8a36044abb0c6cff2d5ddeee02205880beae25fb3d526b6c85dfb0159a9cde48dae6a3d2f7cd524185c627ed46c3012103ad43fadfee2c4fa862c14852d4374733252404cdaf7193bd3ce16dfac38dbbf202483045022100a4c460839d0afd5707cfe9c4ae07c4380b188face687bb484fbecd45150de4f402207b082e0e04accd0abbc6aa5d6ca1093a191b65f1a47b2dcda0c7bd5deee95c45012103ad43fadfee2c4fa862c14852d4374733252404cdaf7193bd3ce16dfac38dbbf20247304402203f0cdfe1b216228b09e7fe2b780cd7a40c819931f1bda5d7901aba037454c63702200bcd38120d335fcd3f3df10f90b0e652d3dbf6464800a5ce9774ec35316eb2a5012103ad43fadfee2c4fa862c14852d4374733252404cdaf7193bd3ce16dfac38dbbf20247304402203d271bac926e85155edba46bebff2c01c795a1f21645183d0bdfd4adb02fe67b022018d29fbae1790cacd9e550567b7f7611f5f6fd728aa5abe216087753a8c132ba012103ad43fadfee2c4fa862c14852d4374733252404cdaf7193bd3ce16dfac38dbbf202483045022100880986ce493741c0a297232c2de2605f4f32a051fe8b03dff00823ca77af982c02200c839e851c09c6bfcf157ca7df64cefdfde6399d5462effcc63c193c25c051d0012103ad43fadfee2c4fa862c14852d4374733252404cdaf7193bd3ce16dfac38dbbf20247304402204a8bd67e0dc35fd96232c3c08e01eba98dd85a7576bbdb8710705250466e77fe02202b761bbec58e0c8df9ef0165c5068f1bfddddf79fa90768bb34ab395d7f5d95a01210393aed6ba41db079ffb823344d9d47276dde7d242a8f076ad64e1fc44c92cc40d0247304402206a0384517b712966ed6b540302a51b285f2e87711da3c2c4b3a58ef476c0c56802201c5e94472100b2fa44e8c48046e34b8757ec99e7d5c3ea9037b18edad3bc197c012103ad43fadfee2c4fa862c14852d4374733252404cdaf7193bd3ce16dfac38dbbf20247304402200a270b39c7ac63f42857e98790bc44efaf59363c9bb08a39be92a654bc7d0df002205b4a4729dfc115a26eed3a4b5b5388887a18499112f585c7e1eb077ccdf5b15a012103ad43fadfee2c4fa862c14852d4374733252404cdaf7193bd3ce16dfac38dbbf20247304402206a597d9f6948da115ba3f431028c5526bf38c788e1bfb0a1c3239290be20c9f1022029749b188f6c3ff756881c218974ab6461680e2e10ac50a0436cfcac4ebb0fda012103ad43fadfee2c4fa862c14852d4374733252404cdaf7193bd3ce16dfac38dbbf20247304402201a3e9adc4071708f14c38e45bbbe372d20d02ea8c785b4047eee7160cb56d63502206dbd8b113b76791c49f02dfb5d095fe1f9842a98bf09785f8d392a45d0815e25012103ad43fadfee2c4fa862c14852d4374733252404cdaf7193bd3ce16dfac38dbbf202483045022100811733e1ddbf2f158d23376cf42085cc89f5ecb140c1de4f09972909a9b6270d02201fb36d33c637a74698ddc645c5f9dc381ebb868e6618fe0d74721e4ec27815dc012103ad43fadfee2c4fa862c14852d4374733252404cdaf7193bd3ce16dfac38dbbf202483045022100a5081ecd5d279e3f66bc88ade462dbc934d0a9a9517c81728d6d23308eeade5d0220134523fb7d71210b5977ff424f6108f9772bae9a7cb4438f57bb6f566201567d012103ad43fadfee2c4fa862c14852d4374733252404cdaf7193bd3ce16dfac38dbbf202483045022100f49f9229ef44f7d8c294fa5c5e274ed07ac035796013ced1164607a4184cb22e02207c548b442c985426bace8de7a02a5c5b6d5e931a60bf9ef19e6ead24adfaae8b012103ad43fadfee2c4fa862c14852d4374733252404cdaf7193bd3ce16dfac38dbbf200000000", "vin": [{"txinwitness": ["3044022048e4d450bdf4fc40ce371a51c6e664ccb81ee68c8ee696c524de7149fcc0224b022021984dc7a9b615d25d59f390d97362faad0d6a2c9a550cde3ac26574cb87726501", "03ad43fadfee2c4fa862c14852d4374733252404cdaf7193bd3ce16dfac38dbbf2"], "sequence": 4294967295, "scriptSig": {"hex": "16001444013b1d01fac59ae06358c9448b252acdae10ea", "asm": "001444013b1d01fac59ae06358c9448b252acdae10ea"}, "vout": 55, "txid": "50a0d979131a4fe7af00339a7e08e841fccee32683c67cc7749fdb630befe4b3"}, {"txinwitness": ["30450221009593586ca94fcbe90ce45c8abc417b44d8dc88621aab4869bde609ee5c8ce93a02206b3a1142869200a14f2c4662553d194dd9a0c4efc8894ae004e9ab111dfca9cc01", "03ad43fadfee2c4fa862c14852d4374733252404cdaf7193bd3ce16dfac38dbbf2"], "sequence": 4294967295, "scriptSig": {"hex": "16001444013b1d01fac59ae06358c9448b252acdae10ea", "asm": "001444013b1d01fac59ae06358c9448b252acdae10ea"}, "vout": 57, "txid": "cabc602dd482589f7cf44f15dfa628d6375bb01f5faeb0e26f8771ecbb0d3d38"}, {"txinwitness": ["3045022100fe853ccc7d655697e7507750d2cdccf73346c5dd8a36044abb0c6cff2d5ddeee02205880beae25fb3d526b6c85dfb0159a9cde48dae6a3d2f7cd524185c627ed46c301", "03ad43fadfee2c4fa862c14852d4374733252404cdaf7193bd3ce16dfac38dbbf2"], "sequence": 4294967295, "scriptSig": {"hex": "16001444013b1d01fac59ae06358c9448b252acdae10ea", "asm": "001444013b1d01fac59ae06358c9448b252acdae10ea"}, "vout": 68, "txid": "794344182fca8538da8594f6c50f22850e2bc221d32c8ddb749f45894bc52aa8"}, {"txinwitness": ["3045022100a4c460839d0afd5707cfe9c4ae07c4380b188face687bb484fbecd45150de4f402207b082e0e04accd0abbc6aa5d6ca1093a191b65f1a47b2dcda0c7bd5deee95c4501", "03ad43fadfee2c4fa862c14852d4374733252404cdaf7193bd3ce16dfac38dbbf2"], "sequence": 4294967295, "scriptSig": {"hex": "16001444013b1d01fac59ae06358c9448b252acdae10ea", "asm": "001444013b1d01fac59ae06358c9448b252acdae10ea"}, "vout": 60, "txid": "1ccd29e88ae8a12814f45c6a8ff78d6a8f22b70ed0f452321a77cd28d92c412c"}, {"txinwitness": ["304402203f0cdfe1b216228b09e7fe2b780cd7a40c819931f1bda5d7901aba037454c63702200bcd38120d335fcd3f3df10f90b0e652d3dbf6464800a5ce9774ec35316eb2a501", "03ad43fadfee2c4fa862c14852d4374733252404cdaf7193bd3ce16dfac38dbbf2"], "sequence": 4294967295, "scriptSig": {"hex": "16001444013b1d01fac59ae06358c9448b252acdae10ea", "asm": "001444013b1d01fac59ae06358c9448b252acdae10ea"}, "vout": 73, "txid": "2aca386e35f62a0dfd326904ffe61dba8320120e7faad0066fde7f8ce814af7c"}, {"txinwitness": ["304402203d271bac926e85155edba46bebff2c01c795a1f21645183d0bdfd4adb02fe67b022018d29fbae1790cacd9e550567b7f7611f5f6fd728aa5abe216087753a8c132ba01", "03ad43fadfee2c4fa862c14852d4374733252404cdaf7193bd3ce16dfac38dbbf2"], "sequence": 4294967295, "scriptSig": {"hex": "16001444013b1d01fac59ae06358c9448b252acdae10ea", "asm": "001444013b1d01fac59ae06358c9448b252acdae10ea"}, "vout": 64, "txid": "e7636c1d749f7a31b39c6024d3e5d6e8d4a0765be804f8d127b3daca16139259"}, {"txinwitness": ["3045022100880986ce493741c0a297232c2de2605f4f32a051fe8b03dff00823ca77af982c02200c839e851c09c6bfcf157ca7df64cefdfde6399d5462effcc63c193c25c051d001", "03ad43fadfee2c4fa862c14852d4374733252404cdaf7193bd3ce16dfac38dbbf2"], "sequence": 4294967295, "scriptSig": {"hex": "16001444013b1d01fac59ae06358c9448b252acdae10ea", "asm": "001444013b1d01fac59ae06358c9448b252acdae10ea"}, "vout": 64, "txid": "7150201149ed3d32cf2d6d05a56710ad3352b1c3c2f9d36629d442be98e20865"}, {"txinwitness": ["304402204a8bd67e0dc35fd96232c3c08e01eba98dd85a7576bbdb8710705250466e77fe02202b761bbec58e0c8df9ef0165c5068f1bfddddf79fa90768bb34ab395d7f5d95a01", "0393aed6ba41db079ffb823344d9d47276dde7d242a8f076ad64e1fc44c92cc40d"], "sequence": 4294967295, "scriptSig": {"hex": "1600144ce5565bfb1995da858b70ab636f1333d6b07408", "asm": "00144ce5565bfb1995da858b70ab636f1333d6b07408"}, "vout": 200, "txid": "84169a4e8603be097b5ecca5d87d47c976a74f939f415e2d1bdca0ecf3fc0255"}, {"txinwitness": ["304402206a0384517b712966ed6b540302a51b285f2e87711da3c2c4b3a58ef476c0c56802201c5e94472100b2fa44e8c48046e34b8757ec99e7d5c3ea9037b18edad3bc197c01", "03ad43fadfee2c4fa862c14852d4374733252404cdaf7193bd3ce16dfac38dbbf2"], "sequence": 4294967295, "scriptSig": {"hex": "16001444013b1d01fac59ae06358c9448b252acdae10ea", "asm": "001444013b1d01fac59ae06358c9448b252acdae10ea"}, "vout": 64, "txid": "0416a1eaf056b0cb3bfdba6ae68df47e27d8fa0d972e6f9e48e383049c9f05c2"}, {"txinwitness": ["304402200a270b39c7ac63f42857e98790bc44efaf59363c9bb08a39be92a654bc7d0df002205b4a4729dfc115a26eed3a4b5b5388887a18499112f585c7e1eb077ccdf5b15a01", "03ad43fadfee2c4fa862c14852d4374733252404cdaf7193bd3ce16dfac38dbbf2"], "sequence": 4294967295, "scriptSig": {"hex": "16001444013b1d01fac59ae06358c9448b252acdae10ea", "asm": "001444013b1d01fac59ae06358c9448b252acdae10ea"}, "vout": 63, "txid": "f5fb9e9557e021ce60cf9da04c54f268149e889758d06d1c8b30ce7a63cab5b7"}, {"txinwitness": ["304402206a597d9f6948da115ba3f431028c5526bf38c788e1bfb0a1c3239290be20c9f1022029749b188f6c3ff756881c218974ab6461680e2e10ac50a0436cfcac4ebb0fda01", "03ad43fadfee2c4fa862c14852d4374733252404cdaf7193bd3ce16dfac38dbbf2"], "sequence": 4294967295, "scriptSig": {"hex": "16001444013b1d01fac59ae06358c9448b252acdae10ea", "asm": "001444013b1d01fac59ae06358c9448b252acdae10ea"}, "vout": 60, "txid": "4556b6028bf96966c28d63778a46dff29f3535aa9740ab53b673d9afca7bf8e9"}, {"txinwitness": ["304402201a3e9adc4071708f14c38e45bbbe372d20d02ea8c785b4047eee7160cb56d63502206dbd8b113b76791c49f02dfb5d095fe1f9842a98bf09785f8d392a45d0815e2501", "03ad43fadfee2c4fa862c14852d4374733252404cdaf7193bd3ce16dfac38dbbf2"], "sequence": 4294967295, "scriptSig": {"hex": "16001444013b1d01fac59ae06358c9448b252acdae10ea", "asm": "001444013b1d01fac59ae06358c9448b252acdae10ea"}, "vout": 66, "txid": "8decc23919f6f008cc9f526b59d73d97e46b24c309e9e2ad854a3cac6a80262b"}, {"txinwitness": ["3045022100811733e1ddbf2f158d23376cf42085cc89f5ecb140c1de4f09972909a9b6270d02201fb36d33c637a74698ddc645c5f9dc381ebb868e6618fe0d74721e4ec27815dc01", "03ad43fadfee2c4fa862c14852d4374733252404cdaf7193bd3ce16dfac38dbbf2"], "sequence": 4294967295, "scriptSig": {"hex": "16001444013b1d01fac59ae06358c9448b252acdae10ea", "asm": "001444013b1d01fac59ae06358c9448b252acdae10ea"}, "vout": 66, "txid": "9288ee40036f5bc174cb293377913ffecb346c625f1a1e7f1cba8cffe08486e2"}, {"txinwitness": ["3045022100a5081ecd5d279e3f66bc88ade462dbc934d0a9a9517c81728d6d23308eeade5d0220134523fb7d71210b5977ff424f6108f9772bae9a7cb4438f57bb6f566201567d01", "03ad43fadfee2c4fa862c14852d4374733252404cdaf7193bd3ce16dfac38dbbf2"], "sequence": 4294967295, "scriptSig": {"hex": "16001444013b1d01fac59ae06358c9448b252acdae10ea", "asm": "001444013b1d01fac59ae06358c9448b252acdae10ea"}, "vout": 63, "txid": "6225ae5f7a6a69ed13d42bca431f2535b359faa676fae7820be048b51eab206e"}, {"txinwitness": ["3045022100f49f9229ef44f7d8c294fa5c5e274ed07ac035796013ced1164607a4184cb22e02207c548b442c985426bace8de7a02a5c5b6d5e931a60bf9ef19e6ead24adfaae8b01", "03ad43fadfee2c4fa862c14852d4374733252404cdaf7193bd3ce16dfac38dbbf2"], "sequence": 4294967295, "scriptSig": {"hex": "16001444013b1d01fac59ae06358c9448b252acdae10ea", "asm": "001444013b1d01fac59ae06358c9448b252acdae10ea"}, "vout": 63, "txid": "02e667fe01174fff13dc629c897b9f2a3422991248d9aff8924e228f6a371cc8"}], "txid": "5fe2ecaeaf184c534d0996d749293224c3d517628e0f5e6f393c2dd91974ceb4", "blocktime": 1537875543, "version": 1, "confirmations": 11464, "time": 1537875543, "locktime": 0, "vsize": 1440, "size": 2650}