{"hash": "5fe20a650741a1647b8f24a2f3786ca3dba9ed266fc43abe0886b243e83d2ff4", "blockhash": "0000000000000000000baef3f32e3676a92c3b2e5da21b426e4f302fc371ce76", "vout": [{"scriptPubKey": {"reqSigs": 1, "hex": "76a914cb71a5b80cfc05f2920248186c8d6a4a8f49ee8e88ac", "addresses": ["1KYiKJEfdJtap9QX2v9BXJMpz2SfU4pgZw"], "asm": "OP_DUP OP_HASH160 cb71a5b80cfc05f2920248186c8d6a4a8f49ee8e OP_EQUALVERIFY OP_CHECKSIG", "type": "pubkeyhash"}, "value": 0.8932131, "n": 0}, {"scriptPubKey": {"type": "nulldata", "hex": "6a146f6d6e69000000000000001f000000a2ac18ac00", "asm": "OP_RETURN 6f6d6e69000000000000001f000000a2ac18ac00"}, "value": 0.0, "n": 1}, {"scriptPubKey": {"reqSigs": 1, "hex": "a91493c977d4d4026c4e5336c9faa84a933b690fd74787", "addresses": ["3FASbzSgt7PFmzPmipijpNdDH7Wqd9tMNw"], "asm": "OP_HASH160 93c977d4d4026c4e5336c9faa84a933b690fd747 OP_EQUAL", "type": "scripthash"}, "value": 5.4e-06, "n": 2}], "hex": "010000000171dd4ba0d18d11760c58ef29a130247d4ab9264d3e42009dc0a95cf917d288e8020000006a47304402200f627ed551e12dbec1129d011c2ee7f1b9cf0e65695693c67c4e3414a71790c7022054522f6c1a49ec2ef951f352fc166a76a1d0623f8bcd2883b188a7bbed7d014e01210364e7d27a8abe0408b754ee0c88a6d1be37bbd9416ad1621013c6381301c65e8efeffffff035eef5205000000001976a914cb71a5b80cfc05f2920248186c8d6a4a8f49ee8e88ac0000000000000000166a146f6d6e69000000000000001f000000a2ac18ac001c0200000000000017a91493c977d4d4026c4e5336c9faa84a933b690fd7478717490800", "vin": [{"sequence": 4294967294, "scriptSig": {"hex": "47304402200f627ed551e12dbec1129d011c2ee7f1b9cf0e65695693c67c4e3414a71790c7022054522f6c1a49ec2ef951f352fc166a76a1d0623f8bcd2883b188a7bbed7d014e01210364e7d27a8abe0408b754ee0c88a6d1be37bbd9416ad1621013c6381301c65e8e", "asm": "304402200f627ed551e12dbec1129d011c2ee7f1b9cf0e65695693c67c4e3414a71790c7022054522f6c1a49ec2ef951f352fc166a76a1d0623f8bcd2883b188a7bbed7d014e[ALL] 0364e7d27a8abe0408b754ee0c88a6d1be37bbd9416ad1621013c6381301c65e8e"}, "vout": 2, "txid": "e888d217f95ca9c09d00423e4d26b94a7d2430a129ef580c76118dd1a04bdd71"}], "txid": "5fe20a650741a1647b8f24a2f3786ca3dba9ed266fc43abe0886b243e83d2ff4", "blocktime": 1537876114, "version": 1, "confirmations": 11459, "time": 1537876114, "locktime": 542999, "vsize": 254, "size": 254}