{"hash": "dcbd319a89ca17e6acc74a42f5df6861e08378137122dd10ff20094e056e4920", "blockhash": "000000000000000000022b45ed06c6f4ccd3cf7fb5ba4856ebd2e58215665228", "vout": [{"scriptPubKey": {"reqSigs": 1, "hex": "a914404f78e1330e10459bbaf334c03a8b6a9d6ae84787", "addresses": ["37Z4NeNjFeRjg51hrZa7orQgiER2JCEW7y"], "asm": "OP_HASH160 404f78e1330e10459bbaf334c03a8b6a9d6ae847 OP_EQUAL", "type": "scripthash"}, "value": 0.01022785, "n": 0}, {"scriptPubKey": {"reqSigs": 1, "hex": "76a9148f8c51c7703803ba08ab1e55a5488d658dad347c88ac", "addresses": ["1E61iztLMN8yGsjorSzGpjjwnzsWrYnDLJ"], "asm": "OP_DUP OP_HASH160 8f8c51c7703803ba08ab1e55a5488d658dad347c OP_EQUALVERIFY OP_CHECKSIG", "type": "pubkeyhash"}, "value": 0.0039246, "n": 1}], "hex": "020000000001022a791950c56127c05892597ba9a083a19cb76269cd847689a96c1a17de8a23a9010000001716001426d418061380c3ac36343baac530fb5549b6da7bfeffffff5b4302fc01ca97d6bd642e53edd583096667dba1b61d2c91439e9db650bc917c00000000171600147d400d4eff4f187450a40ef99170e88a04870f7afeffffff02419b0f000000000017a914404f78e1330e10459bbaf334c03a8b6a9d6ae847870cfd0500000000001976a9148f8c51c7703803ba08ab1e55a5488d658dad347c88ac02483045022100fdd30d2eac152b8d04f71447b098ee0f1c497675bc92d438d10a12f73f155ec4022003134bd4c27fd836d99c1ddbee7205b8870552c9eeeaaab1d2706868cfe0b0e60121039dc622b2d3fe06db646103f3dff51f2686e53c2248f4a9f7fa4c0d79eaf8a0ec02483045022100e10aa7b55fb552fb938b629f461cf859e789abcfbb22d09bf3c59eb82d31b25f02205bda734e124b873926e1c9dd0f632407aa4245004470b49292810ce3a6199c90012103c952cad732c0212bb818487386d0d624364027f967e0299217211a9a8ac8e0a90b490800", "vin": [{"txinwitness": ["3045022100fdd30d2eac152b8d04f71447b098ee0f1c497675bc92d438d10a12f73f155ec4022003134bd4c27fd836d99c1ddbee7205b8870552c9eeeaaab1d2706868cfe0b0e601", "039dc622b2d3fe06db646103f3dff51f2686e53c2248f4a9f7fa4c0d79eaf8a0ec"], "sequence": 4294967294, "scriptSig": {"hex": "16001426d418061380c3ac36343baac530fb5549b6da7b", "asm": "001426d418061380c3ac36343baac530fb5549b6da7b"}, "vout": 1, "txid": "a9238ade171a6ca9897684cd6962b79ca183a0a97b599258c02761c55019792a"}, {"txinwitness": ["3045022100e10aa7b55fb552fb938b629f461cf859e789abcfbb22d09bf3c59eb82d31b25f02205bda734e124b873926e1c9dd0f632407aa4245004470b49292810ce3a6199c9001", "03c952cad732c0212bb818487386d0d624364027f967e0299217211a9a8ac8e0a9"], "sequence": 4294967294, "scriptSig": {"hex": "1600147d400d4eff4f187450a40ef99170e88a04870f7a", "asm": "00147d400d4eff4f187450a40ef99170e88a04870f7a"}, "vout": 0, "txid": "7c91bc50b69d9e43912c1db6a1db67660983d5ed532e64bdd697ca01fc02435b"}], "txid": "5fe98224686eb5ba3b1672c9b85cdcd0ae56fabb39ca8880ca19f88fce934dca", "blocktime": 1537869901, "version": 2, "confirmations": 11524, "time": 1537869901, "locktime": 542987, "vsize": 259, "size": 422}