{"hash": "5fedf1adeb63e5fe9d3c67f5d8ebf83170e907004cb74da676b09b43c80a8fcd", "blockhash": "0000000000000000001cda96e906b7601b7a6fb1a3b62bca570a9e5d8f4b3de1", "vout": [{"scriptPubKey": {"reqSigs": 1, "hex": "76a914248f0b5cfe64fd237abc607d39f4820c3cfc6fec88ac", "addresses": ["14LJgoeK1zLvd5k7GgXv9ghUgRgvpGbyZ5"], "asm": "OP_DUP OP_HASH160 248f0b5cfe64fd237abc607d39f4820c3cfc6fec OP_EQUALVERIFY OP_CHECKSIG", "type": "pubkeyhash"}, "value": 0.01399744, "n": 0}, {"scriptPubKey": {"type": "nulldata", "hex": "6a4c50000077c300010b5e46bdc81f8d0f3b962b94e5bf9ae76da98a211aaf6c953dd567cf27e7601ec98dd929e2171bc9b1ec737f212d5baa12f7061341c2a4e4d724bc9a9526289ac0f6612cd74e33776ee4", "asm": "OP_RETURN 000077c300010b5e46bdc81f8d0f3b962b94e5bf9ae76da98a211aaf6c953dd567cf27e7601ec98dd929e2171bc9b1ec737f212d5baa12f7061341c2a4e4d724bc9a9526289ac0f6612cd74e33776ee4"}, "value": 0.0, "n": 1}], "hex": "0100000001eab9d4775e1f62f8793287509715a2e70d60a890e9d682fbbdbd3c08cf59a488000000006a4730440220533948db8d992d48baced595bf17fa0635acc216cecb3f2abb552d683d3afb11022015bfa26c22d07af14a242922a3163c8fb10a54619799b68705764859d9427eda012103726a52f2cf5d673f24056e9a82348558ed9ec79d139f7b6eac9bd1efebd8c0d3ffffffff02c05b1500000000001976a914248f0b5cfe64fd237abc607d39f4820c3cfc6fec88ac0000000000000000536a4c50000077c300010b5e46bdc81f8d0f3b962b94e5bf9ae76da98a211aaf6c953dd567cf27e7601ec98dd929e2171bc9b1ec737f212d5baa12f7061341c2a4e4d724bc9a9526289ac0f6612cd74e33776ee400000000", "vin": [{"sequence": 4294967295, "scriptSig": {"hex": "4730440220533948db8d992d48baced595bf17fa0635acc216cecb3f2abb552d683d3afb11022015bfa26c22d07af14a242922a3163c8fb10a54619799b68705764859d9427eda012103726a52f2cf5d673f24056e9a82348558ed9ec79d139f7b6eac9bd1efebd8c0d3", "asm": "30440220533948db8d992d48baced595bf17fa0635acc216cecb3f2abb552d683d3afb11022015bfa26c22d07af14a242922a3163c8fb10a54619799b68705764859d9427eda[ALL] 03726a52f2cf5d673f24056e9a82348558ed9ec79d139f7b6eac9bd1efebd8c0d3"}, "vout": 0, "txid": "88a459cf083cbdbdfb82d6e990a8600de7a2159750873279f8621f5e77d4b9ea"}], "txid": "5fedf1adeb63e5fe9d3c67f5d8ebf83170e907004cb74da676b09b43c80a8fcd", "blocktime": 1537873282, "version": 1, "confirmations": 11484, "time": 1537873282, "locktime": 0, "vsize": 283, "size": 283}