{"hash": "5ff1b3f54ca8ed9510cd51f0c3808f64ebb50ae0671452749d9baa67eb585606", "blockhash": "0000000000000000000baef3f32e3676a92c3b2e5da21b426e4f302fc371ce76", "vout": [{"scriptPubKey": {"reqSigs": 1, "hex": "76a91477074a52a21fb6fd426a3317dba8efdf9618303d88ac", "addresses": ["1BrN9NNCCKZdrvfjUU2emFap9SYtno4uCE"], "asm": "OP_DUP OP_HASH160 77074a52a21fb6fd426a3317dba8efdf9618303d OP_EQUALVERIFY OP_CHECKSIG", "type": "pubkeyhash"}, "value": 0.00100321, "n": 0}, {"scriptPubKey": {"reqSigs": 1, "hex": "76a914a2c7c0711c94d4b75753bb636dc53534ba9e3eb388ac", "addresses": ["1Fqhm53gNmpMATvYaKLNosnYuRoqwomEY7"], "asm": "OP_DUP OP_HASH160 a2c7c0711c94d4b75753bb636dc53534ba9e3eb3 OP_EQUALVERIFY OP_CHECKSIG", "type": "pubkeyhash"}, "value": 0.40120205, "n": 1}], "hex": "0200000001480c63f1b3655483c9a6b7ff0d57567dfbc1a6a2cc87ed142fd9a117c8111b12010000006b483045022100fe6f77c63ef8785f89a91c19f08f00ba14d123cc7aa8aca75227df4f778ca0f1022030931f9f98f5f063f23c28d8455f66cecb713261c78b9f164826d5418e777f8a01210213bc0d009d991adca5da833a74d20bfcea524ac663ba3db9b3913f0ebba267edffffffff02e1870100000000001976a91477074a52a21fb6fd426a3317dba8efdf9618303d88ac8d2f6402000000001976a914a2c7c0711c94d4b75753bb636dc53534ba9e3eb388ac00000000", "vin": [{"sequence": 4294967295, "scriptSig": {"hex": "483045022100fe6f77c63ef8785f89a91c19f08f00ba14d123cc7aa8aca75227df4f778ca0f1022030931f9f98f5f063f23c28d8455f66cecb713261c78b9f164826d5418e777f8a01210213bc0d009d991adca5da833a74d20bfcea524ac663ba3db9b3913f0ebba267ed", "asm": "3045022100fe6f77c63ef8785f89a91c19f08f00ba14d123cc7aa8aca75227df4f778ca0f1022030931f9f98f5f063f23c28d8455f66cecb713261c78b9f164826d5418e777f8a[ALL] 0213bc0d009d991adca5da833a74d20bfcea524ac663ba3db9b3913f0ebba267ed"}, "vout": 1, "txid": "121b11c817a1d92f14ed87cca2a6c1fb7d56570dffb7a6c9835465b3f1630c48"}], "txid": "5ff1b3f54ca8ed9510cd51f0c3808f64ebb50ae0671452749d9baa67eb585606", "blocktime": 1537876114, "version": 2, "confirmations": 11460, "time": 1537876114, "locktime": 0, "vsize": 226, "size": 226}