{"hash": "5ff67917e2ce7cf725af25d6683e379b9b0a6654cecaa64925da8a2f76228fe6", "blockhash": "0000000000000000001f76057863aec43deb6fa401d9628bb513d65a8098bfab", "vout": [{"scriptPubKey": {"reqSigs": 1, "hex": "a914b5455aa84c8b33fc1f2a6e126dabdc6ab4569b4f87", "addresses": ["3JDVK5GyANPzrYEym7aXs5Md6wTV7Nuh9H"], "asm": "OP_HASH160 b5455aa84c8b33fc1f2a6e126dabdc6ab4569b4f OP_EQUAL", "type": "scripthash"}, "value": 5.46e-06, "n": 0}, {"scriptPubKey": {"reqSigs": 1, "hex": "76a9140a6b825daa1b89f8e100ed8eec6d79b592500f4988ac", "addresses": ["1x6YnuBVeeE65dQRZztRWgUPwyBjHCA5g"], "asm": "OP_DUP OP_HASH160 0a6b825daa1b89f8e100ed8eec6d79b592500f49 OP_EQUALVERIFY OP_CHECKSIG", "type": "pubkeyhash"}, "value": 0.4454562, "n": 1}, {"scriptPubKey": {"type": "nulldata", "hex": "6a146f6d6e69000000000000001f0000048c27395000", "asm": "OP_RETURN 6f6d6e69000000000000001f0000048c27395000"}, "value": 0.0, "n": 2}], "hex": "0100000001d02f683b9c856fb13bd6f40a465834dc347ab2925b0d13b4528c37d60de41402000000006a47304402201394ab135e78b473a7416e5613eeb8d91e777768189632a44dd17b03d329c856022047131622fac3c2cefa787e1369e9a43e97f4f074fbb69e56e8ec66cec677ee63012103fe02b06a6bfd9b5a83e0417430a3235a39a0b4c7973591ca27ac58f6474d9120ffffffff03220200000000000017a914b5455aa84c8b33fc1f2a6e126dabdc6ab4569b4f8754b6a702000000001976a9140a6b825daa1b89f8e100ed8eec6d79b592500f4988ac0000000000000000166a146f6d6e69000000000000001f0000048c2739500000000000", "vin": [{"sequence": 4294967295, "scriptSig": {"hex": "47304402201394ab135e78b473a7416e5613eeb8d91e777768189632a44dd17b03d329c856022047131622fac3c2cefa787e1369e9a43e97f4f074fbb69e56e8ec66cec677ee63012103fe02b06a6bfd9b5a83e0417430a3235a39a0b4c7973591ca27ac58f6474d9120", "asm": "304402201394ab135e78b473a7416e5613eeb8d91e777768189632a44dd17b03d329c856022047131622fac3c2cefa787e1369e9a43e97f4f074fbb69e56e8ec66cec677ee63[ALL] 03fe02b06a6bfd9b5a83e0417430a3235a39a0b4c7973591ca27ac58f6474d9120"}, "vout": 0, "txid": "0214e40dd6378c52b4130d5b92b27a34dc3458460af4d63bb16f859c3b682fd0"}], "txid": "5ff67917e2ce7cf725af25d6683e379b9b0a6654cecaa64925da8a2f76228fe6", "blocktime": 1537873891, "version": 1, "confirmations": 11474, "time": 1537873891, "locktime": 0, "vsize": 254, "size": 254}