{"hash": "5ffe586c474087c38c62efd428a8d72c04f348403303633fdc9efa3cdc7db67a", "blockhash": "0000000000000000001cda96e906b7601b7a6fb1a3b62bca570a9e5d8f4b3de1", "vout": [{"scriptPubKey": {"reqSigs": 1, "hex": "76a9141f09e6f3c03c4007a4c3f0c713da6e5d011cc47988ac", "addresses": ["13q7oxifj7Ea2nz2ngfXQCQ44PWq4NvoHr"], "asm": "OP_DUP OP_HASH160 1f09e6f3c03c4007a4c3f0c713da6e5d011cc479 OP_EQUALVERIFY OP_CHECKSIG", "type": "pubkeyhash"}, "value": 0.00028354, "n": 0}, {"scriptPubKey": {"reqSigs": 1, "hex": "a914ce9bd099d8fe0f35c9c1325bd8a0bf59e7fd3bed87", "addresses": ["3LXTnGPptoHuCVYqDtsY9p6gvAyeG5h6oF"], "asm": "OP_HASH160 ce9bd099d8fe0f35c9c1325bd8a0bf59e7fd3bed OP_EQUAL", "type": "scripthash"}, "value": 0.00327878, "n": 1}], "hex": "0100000001383d5a093d38af0866bfe0d83c563191851fada2e35f8247c17a2318af86448a000000006a47304402207d9c6f89902535e146451fd0a69fc7b987be2a2b33e561cb386a98d1478aa70302207726be29cbfa1ba33e90cb421ef51bba5648bacbca363cb2846a52327cb95c41012102980bbcf46ae27a30ff8b7156cbd85f141d1d14261739a89e88bf54f3082db5cbffffffff02c26e0000000000001976a9141f09e6f3c03c4007a4c3f0c713da6e5d011cc47988acc60005000000000017a914ce9bd099d8fe0f35c9c1325bd8a0bf59e7fd3bed8700000000", "vin": [{"sequence": 4294967295, "scriptSig": {"hex": "47304402207d9c6f89902535e146451fd0a69fc7b987be2a2b33e561cb386a98d1478aa70302207726be29cbfa1ba33e90cb421ef51bba5648bacbca363cb2846a52327cb95c41012102980bbcf46ae27a30ff8b7156cbd85f141d1d14261739a89e88bf54f3082db5cb", "asm": "304402207d9c6f89902535e146451fd0a69fc7b987be2a2b33e561cb386a98d1478aa70302207726be29cbfa1ba33e90cb421ef51bba5648bacbca363cb2846a52327cb95c41[ALL] 02980bbcf46ae27a30ff8b7156cbd85f141d1d14261739a89e88bf54f3082db5cb"}, "vout": 0, "txid": "8a4486af18237ac147825fe3a2ad1f859131563cd8e0bf6608af383d095a3d38"}], "txid": "5ffe586c474087c38c62efd428a8d72c04f348403303633fdc9efa3cdc7db67a", "blocktime": 1537873282, "version": 1, "confirmations": 11484, "time": 1537873282, "locktime": 0, "vsize": 223, "size": 223}