{"hash": "0096f5f890c8d62556420be0c7e5d26b7006cb506dce731ad7a5a16ca5fd88c4", "blockhash": "0000000000000000001f76057863aec43deb6fa401d9628bb513d65a8098bfab", "vout": [{"scriptPubKey": {"reqSigs": 1, "hex": "76a914026d04ab7dd16aedd9ef7e2fbecbfe8b9af63f0288ac", "addresses": ["1Dpx72VVLr8BPRg4X6KNURJf3jjyv7oxC"], "asm": "OP_DUP OP_HASH160 026d04ab7dd16aedd9ef7e2fbecbfe8b9af63f02 OP_EQUALVERIFY OP_CHECKSIG", "type": "pubkeyhash"}, "value": 0.00111078, "n": 0}, {"scriptPubKey": {"reqSigs": 1, "hex": "a9140be7846be16b05bea00dbec2fcd7e045a793cb1787", "addresses": ["32mxhko5mJHfkbkDPpz7SfdJwEJi21P1WK"], "asm": "OP_HASH160 0be7846be16b05bea00dbec2fcd7e045a793cb17 OP_EQUAL", "type": "scripthash"}, "value": 0.18757777, "n": 1}], "hex": "0100000000010172cdaba16e05857947912c4bb4c2b1e59dd0ced3d7b93983498230d78b29783301000000232200202c66ece6da72bcbfeadf83a91236f4891c13e14d8ecebdcaa81666fc1aa73a31ffffffff02e6b10100000000001976a914026d04ab7dd16aedd9ef7e2fbecbfe8b9af63f0288ac91381e010000000017a9140be7846be16b05bea00dbec2fcd7e045a793cb1787040048304502210086f36a3a37774a10f1a1035f41195c5b085fe00ad4bf02069a3c995959c4047502206ae08aad56fbcfa0a457b77ccdd70703d2e559908f14b6ce9d9982b7c54eae7b0147304402204be8f50ef8c41132c2d864b4386e06b611388e5112632a05a7b041948be7b4ff0220741168bf849e3981ca4097e9bad6a0d2f675ca3c50aeccfb0fc9a8091a2040b101475221029e6fbb942d34a473faaa5557c1bfe08d72102f0b9754ad140fd369d7a3ba3cdc2103871fc2ca08e6950b38867e8e6a0e94ee625223d3aa0df5c65f414c6d784467e252ae00000000", "vin": [{"txinwitness": ["", "304502210086f36a3a37774a10f1a1035f41195c5b085fe00ad4bf02069a3c995959c4047502206ae08aad56fbcfa0a457b77ccdd70703d2e559908f14b6ce9d9982b7c54eae7b01", "304402204be8f50ef8c41132c2d864b4386e06b611388e5112632a05a7b041948be7b4ff0220741168bf849e3981ca4097e9bad6a0d2f675ca3c50aeccfb0fc9a8091a2040b101", "5221029e6fbb942d34a473faaa5557c1bfe08d72102f0b9754ad140fd369d7a3ba3cdc2103871fc2ca08e6950b38867e8e6a0e94ee625223d3aa0df5c65f414c6d784467e252ae"], "sequence": 4294967295, "scriptSig": {"hex": "2200202c66ece6da72bcbfeadf83a91236f4891c13e14d8ecebdcaa81666fc1aa73a31", "asm": "00202c66ece6da72bcbfeadf83a91236f4891c13e14d8ecebdcaa81666fc1aa73a31"}, "vout": 1, "txid": "3378298bd73082498339b9d7d3ced09de5b1c2b44b2c91477985056ea1abcd72"}], "txid": "600fd6cb84b75ecb451c7fdf09356035d5504c46dc9d987fba0a157645a47ffc", "blocktime": 1537873891, "version": 1, "confirmations": 11478, "time": 1537873891, "locktime": 0, "vsize": 208, "size": 373}