{"hash": "601afa4658a0f36a92fe77404456761af829230532c9fd06b4d93fcf88353b55", "blockhash": "0000000000000000001f76057863aec43deb6fa401d9628bb513d65a8098bfab", "vout": [{"scriptPubKey": {"reqSigs": 1, "hex": "a914e0b3686eeea6141aa810feba4ecf72a45382274487", "addresses": ["3NB8CzjLYRuFVMoBuYT3pPX7sEYJNuX2NK"], "asm": "OP_HASH160 e0b3686eeea6141aa810feba4ecf72a453822744 OP_EQUAL", "type": "scripthash"}, "value": 0.02472972, "n": 0}, {"scriptPubKey": {"reqSigs": 1, "hex": "a9141f04feacdec67da8bc1fe0915e4949884bd76cd587", "addresses": ["34X2rY6s22DAgXn4RVAYd5BdeJ16f5fzZh"], "asm": "OP_HASH160 1f04feacdec67da8bc1fe0915e4949884bd76cd5 OP_EQUAL", "type": "scripthash"}, "value": 0.00996354, "n": 1}, {"scriptPubKey": {"reqSigs": 1, "hex": "76a9140505490b8c188f6bdfcebb3dcb05de472bf8bc4b88ac", "addresses": ["1TYiC3obYHctTG2GEMNfDC13hMUK7WgR6"], "asm": "OP_DUP OP_HASH160 0505490b8c188f6bdfcebb3dcb05de472bf8bc4b OP_EQUALVERIFY OP_CHECKSIG", "type": "pubkeyhash"}, "value": 0.00012142, "n": 2}], "hex": "01000000026803267084ce370eac75a43d04460dbfd5914942acf907d2fd2d3415b2192c2900000000db004830450221009cfac64d2322d930d7127f96b169b95790e736191385bb120224d16a4626594702207334f8b69d43fb476307c88c69b6df50d77bf6cf63ec38ba0ab2d09601defe7f01483045022100ddb8a179c7e7cf11c1fb6c1d2b01fa917e7351f3252b099dfd94634201f84130022068a500886d96d24a5e411d4dcee66076ff0a4a0bd2f773ffcc40c786dc7230580147522102346754f1c857438e91cf881a4d33038fb73d02b786156d02a4cb3409dc3395b02102907a54bed8ad74b3f35638c60114ca240a308cb986f3f2f306178869a8880b6152aeffffffff3a91c24f2d1b3ccfe246d13a0a5e82cc41cfb0b4e5ea4c0d2c46ae02c749b281010000006b483045022100bf49cd10545727d7f4c67a69a722926799cf5d2bc115299a1cc14357ecbc9e8a022042c7b649df7fa09ab27bee1adf4490bc974975d90c0ab699cd50145e1338bc8c01210226377f832d918a23b841af76b9a4619fd8e4ac74f332ae835e9b82915b01601effffffff030cbc25000000000017a914e0b3686eeea6141aa810feba4ecf72a4538227448702340f000000000017a9141f04feacdec67da8bc1fe0915e4949884bd76cd5876e2f0000000000001976a9140505490b8c188f6bdfcebb3dcb05de472bf8bc4b88ac00000000", "vin": [{"sequence": 4294967295, "scriptSig": {"hex": "004830450221009cfac64d2322d930d7127f96b169b95790e736191385bb120224d16a4626594702207334f8b69d43fb476307c88c69b6df50d77bf6cf63ec38ba0ab2d09601defe7f01483045022100ddb8a179c7e7cf11c1fb6c1d2b01fa917e7351f3252b099dfd94634201f84130022068a500886d96d24a5e411d4dcee66076ff0a4a0bd2f773ffcc40c786dc7230580147522102346754f1c857438e91cf881a4d33038fb73d02b786156d02a4cb3409dc3395b02102907a54bed8ad74b3f35638c60114ca240a308cb986f3f2f306178869a8880b6152ae", "asm": "0 30450221009cfac64d2322d930d7127f96b169b95790e736191385bb120224d16a4626594702207334f8b69d43fb476307c88c69b6df50d77bf6cf63ec38ba0ab2d09601defe7f[ALL] 3045022100ddb8a179c7e7cf11c1fb6c1d2b01fa917e7351f3252b099dfd94634201f84130022068a500886d96d24a5e411d4dcee66076ff0a4a0bd2f773ffcc40c786dc723058[ALL] 522102346754f1c857438e91cf881a4d33038fb73d02b786156d02a4cb3409dc3395b02102907a54bed8ad74b3f35638c60114ca240a308cb986f3f2f306178869a8880b6152ae"}, "vout": 0, "txid": "292c19b215342dfdd207f9ac424991d5bf0d46043da475ac0e37ce8470260368"}, {"sequence": 4294967295, "scriptSig": {"hex": "483045022100bf49cd10545727d7f4c67a69a722926799cf5d2bc115299a1cc14357ecbc9e8a022042c7b649df7fa09ab27bee1adf4490bc974975d90c0ab699cd50145e1338bc8c01210226377f832d918a23b841af76b9a4619fd8e4ac74f332ae835e9b82915b01601e", "asm": "3045022100bf49cd10545727d7f4c67a69a722926799cf5d2bc115299a1cc14357ecbc9e8a022042c7b649df7fa09ab27bee1adf4490bc974975d90c0ab699cd50145e1338bc8c[ALL] 0226377f832d918a23b841af76b9a4619fd8e4ac74f332ae835e9b82915b01601e"}, "vout": 1, "txid": "81b249c702ae462c0d4ceae5b4b0cf41cc825e0a3ad146e2cf3c1b2d4fc2913a"}], "txid": "601afa4658a0f36a92fe77404456761af829230532c9fd06b4d93fcf88353b55", "blocktime": 1537873891, "version": 1, "confirmations": 11478, "time": 1537873891, "locktime": 0, "vsize": 516, "size": 516}