{"hash": "ebaf3220d0c139a15a209dec97de2395b29b24b78fe2b7f406ce3384fc6f227e", "blockhash": "00000000000000000017f5eb5941039fbcee6240d03bc1f2f8e35350df66a1d8", "vout": [{"scriptPubKey": {"reqSigs": 1, "hex": "0014845a41e43c06292d99cf2d8bf167412e435bf9c6", "addresses": ["bc1qs3dyrepuqc5jmxw09k9lze6p9ep4h7wx09kf97"], "asm": "0 845a41e43c06292d99cf2d8bf167412e435bf9c6", "type": "witness_v0_keyhash"}, "value": 9.14e-06, "n": 0}, {"scriptPubKey": {"reqSigs": 1, "hex": "76a914adc0595ddd1f3405dcfef6440e6757d869af623b88ac", "addresses": ["1GqiKqU4L28ARQiQyF5LEnq7rMQvX7qzJF"], "asm": "OP_DUP OP_HASH160 adc0595ddd1f3405dcfef6440e6757d869af623b OP_EQUALVERIFY OP_CHECKSIG", "type": "pubkeyhash"}, "value": 0.001404, "n": 1}], "hex": "01000000000101e870bbea8bb93979f1564545ccde9aeccdb7d036581128f6581c976f01410a06aa040000171600141c199d5dda6a82c88f9ed793acfccbca067c7cdfffffffff029203000000000000160014845a41e43c06292d99cf2d8bf167412e435bf9c670240200000000001976a914adc0595ddd1f3405dcfef6440e6757d869af623b88ac02483045022100cde2db06b1169c817cccdc44f2712481e67974a6d57a13ba9cf8092669ebb33b02201892f4431aab1f86209bc63540c61554d26a1f28117b2d805b933e97549ea1240121039d77ac0ecfa629f99cca4cdd04b40a315466ba6ed61c651f43aa56f00ab5b95300000000", "vin": [{"txinwitness": ["3045022100cde2db06b1169c817cccdc44f2712481e67974a6d57a13ba9cf8092669ebb33b02201892f4431aab1f86209bc63540c61554d26a1f28117b2d805b933e97549ea12401", "039d77ac0ecfa629f99cca4cdd04b40a315466ba6ed61c651f43aa56f00ab5b953"], "sequence": 4294967295, "scriptSig": {"hex": "1600141c199d5dda6a82c88f9ed793acfccbca067c7cdf", "asm": "00141c199d5dda6a82c88f9ed793acfccbca067c7cdf"}, "vout": 1194, "txid": "060a41016f971c58f628115836d0b7cdec9adecc454556f17939b98beabb70e8"}], "txid": "601f31dca5a31b8a7e0a18cec1185efe17b59b669e04fa2924644df7486c9a23", "blocktime": 1537874412, "version": 1, "confirmations": 11468, "time": 1537874412, "locktime": 0, "vsize": 167, "size": 249}