{"hash": "d176f1b1a803ad289b720dfbed4e287bf9a1661e289407856fb0934570a17fee", "blockhash": "00000000000000000024a2167bbff67b0be802c0b01cdd79e6331c2be6459f87", "vout": [{"scriptPubKey": {"reqSigs": 1, "hex": "76a9143a4123817d31d33efed8ad7438414cd4dda52f0588ac", "addresses": ["16K2E3SKZMfUsSGjBUrLpJZ8kjrHoKapKM"], "asm": "OP_DUP OP_HASH160 3a4123817d31d33efed8ad7438414cd4dda52f05 OP_EQUALVERIFY OP_CHECKSIG", "type": "pubkeyhash"}, "value": 0.00161266, "n": 0}, {"scriptPubKey": {"reqSigs": 1, "hex": "a91437d6c28e2a31dd3e3a2a1182c3d794bc5019997787", "addresses": ["36nGMsy5duD12b2ggZ7sJfySc6qy6zvJvS"], "asm": "OP_HASH160 37d6c28e2a31dd3e3a2a1182c3d794bc50199977 OP_EQUAL", "type": "scripthash"}, "value": 0.0016811, "n": 1}], "hex": "0100000000010102b387acda6bc2fb41a324fcbe07d2901fcfc5799051ee9e8e0855c5a8fd39e10200000023220020fce7c0aed5acdc1e28070af3eef59040252fd4cab7776202f1d282023af1d1b8ffffffff02f2750200000000001976a9143a4123817d31d33efed8ad7438414cd4dda52f0588acae9002000000000017a91437d6c28e2a31dd3e3a2a1182c3d794bc50199977870400483045022100a035aa213b7cd7622ad4b8d95c227d9ffa6b9b77c765cd51392babadefefafbb022074218c7fb9862f4889bcb5d2d2b3968665a6ed534feba529fd1df57bd2a4aadc014730440220611db866bbb418eb55802aff4ffe8c45135c3786dcce622493619f224063b02502203a3cfc5c641b8d541ba2dea567321be54edf12894dd85245820df547e84eede001475221039c636ffe5e95c943e8fdb456f3ed4e4d1172743644f095d94e6e7e21a114a91b2103871fc2ca08e6950b38867e8e6a0e94ee625223d3aa0df5c65f414c6d784467e252ae00000000", "vin": [{"txinwitness": ["", "3045022100a035aa213b7cd7622ad4b8d95c227d9ffa6b9b77c765cd51392babadefefafbb022074218c7fb9862f4889bcb5d2d2b3968665a6ed534feba529fd1df57bd2a4aadc01", "30440220611db866bbb418eb55802aff4ffe8c45135c3786dcce622493619f224063b02502203a3cfc5c641b8d541ba2dea567321be54edf12894dd85245820df547e84eede001", "5221039c636ffe5e95c943e8fdb456f3ed4e4d1172743644f095d94e6e7e21a114a91b2103871fc2ca08e6950b38867e8e6a0e94ee625223d3aa0df5c65f414c6d784467e252ae"], "sequence": 4294967295, "scriptSig": {"hex": "220020fce7c0aed5acdc1e28070af3eef59040252fd4cab7776202f1d282023af1d1b8", "asm": "0020fce7c0aed5acdc1e28070af3eef59040252fd4cab7776202f1d282023af1d1b8"}, "vout": 2, "txid": "e139fda8c555088e9eee519079c5cf1f90d207befc24a341fbc26bdaac87b302"}], "txid": "60220c7c4cf870526ec5a83ac4ef849c1f2d4c31d8859a6c19dc9e569b2b32d5", "blocktime": 1537870564, "version": 1, "confirmations": 11515, "time": 1537870564, "locktime": 0, "vsize": 208, "size": 373}