{"hash": "602544724d669db8e68dec5e1e702f5dada303a4843173b43d69d60719a87940", "blockhash": "0000000000000000001cda96e906b7601b7a6fb1a3b62bca570a9e5d8f4b3de1", "vout": [{"scriptPubKey": {"reqSigs": 1, "hex": "76a91403ce4ff8a2e51efccd86e5a6a052c3cf5a51baa888ac", "addresses": ["1M8BQsFpwS1SXB7wp8i1Vf8d38bH7M1z5"], "asm": "OP_DUP OP_HASH160 03ce4ff8a2e51efccd86e5a6a052c3cf5a51baa8 OP_EQUALVERIFY OP_CHECKSIG", "type": "pubkeyhash"}, "value": 0.00239316, "n": 0}, {"scriptPubKey": {"reqSigs": 1, "hex": "a91436b5f224daa5b6102d2f0a57c37e22034585e34e87", "addresses": ["36gJNivU4XJiUB3K8wL17r3xmx8jcV1BtC"], "asm": "OP_HASH160 36b5f224daa5b6102d2f0a57c37e22034585e34e OP_EQUAL", "type": "scripthash"}, "value": 0.01171053, "n": 1}], "hex": "01000000025a91dff0bd3d1c0333ec33be57f941d216691cae505bb0b3b302e35139c32cbb010000006b483045022100b8e4005040fa3a8ff0a074a1f6696dc4b6f699702feaaf1e54a2f88e0821bf73022062fd97da0133b4cd1c963896abf203ca635967a9252b849f111870fef51bcc6a01210285bddf5ac013de3109942004a5b87c630a433b9f98c252406f05f6e346cf8109ffffffffbc3ca7a4e3b3410aa8e57bccafd55da61a1cf1803891ee025747b1d9b8b39dc9000000006a4730440220192f38bfb898b4da9c3a33a419143f096d4b74ebedc7820ae3e8a6219bccb39a0220156875c08dd23c4b7bc202027c77fd6d8e4c689ac6ccf4835015b642e5491577012102f605b3690e29e132bf94d9f2bd05a2b9eee564101da9e934e73320cdf576b5edffffffff02d4a60300000000001976a91403ce4ff8a2e51efccd86e5a6a052c3cf5a51baa888ac6dde11000000000017a91436b5f224daa5b6102d2f0a57c37e22034585e34e8700000000", "vin": [{"sequence": 4294967295, "scriptSig": {"hex": "483045022100b8e4005040fa3a8ff0a074a1f6696dc4b6f699702feaaf1e54a2f88e0821bf73022062fd97da0133b4cd1c963896abf203ca635967a9252b849f111870fef51bcc6a01210285bddf5ac013de3109942004a5b87c630a433b9f98c252406f05f6e346cf8109", "asm": "3045022100b8e4005040fa3a8ff0a074a1f6696dc4b6f699702feaaf1e54a2f88e0821bf73022062fd97da0133b4cd1c963896abf203ca635967a9252b849f111870fef51bcc6a[ALL] 0285bddf5ac013de3109942004a5b87c630a433b9f98c252406f05f6e346cf8109"}, "vout": 1, "txid": "bb2cc33951e302b3b3b05b50ae1c6916d241f957be33ec33031c3dbdf0df915a"}, {"sequence": 4294967295, "scriptSig": {"hex": "4730440220192f38bfb898b4da9c3a33a419143f096d4b74ebedc7820ae3e8a6219bccb39a0220156875c08dd23c4b7bc202027c77fd6d8e4c689ac6ccf4835015b642e5491577012102f605b3690e29e132bf94d9f2bd05a2b9eee564101da9e934e73320cdf576b5ed", "asm": "30440220192f38bfb898b4da9c3a33a419143f096d4b74ebedc7820ae3e8a6219bccb39a0220156875c08dd23c4b7bc202027c77fd6d8e4c689ac6ccf4835015b642e5491577[ALL] 02f605b3690e29e132bf94d9f2bd05a2b9eee564101da9e934e73320cdf576b5ed"}, "vout": 0, "txid": "c99db3b8d9b1475702ee913880f11c1aa65dd5afcc7be5a80a41b3e3a4a73cbc"}], "txid": "602544724d669db8e68dec5e1e702f5dada303a4843173b43d69d60719a87940", "blocktime": 1537873282, "version": 1, "confirmations": 11485, "time": 1537873282, "locktime": 0, "vsize": 371, "size": 371}