{"hash": "60263d94ca89b204e2822a65769a6fa181f436450dbfed2dbacde5bbd831e7fd", "blockhash": "0000000000000000000dcc0f55137456b1a82d3642486a52398922ac4d620174", "vout": [{"scriptPubKey": {"reqSigs": 1, "hex": "76a914a25dec4d0011064ef106a983c39c7a540699f22088ac", "addresses": ["1FoWyxwPXuj4C6abqwhjDWdz6D4PZgYRjA"], "asm": "OP_DUP OP_HASH160 a25dec4d0011064ef106a983c39c7a540699f220 OP_EQUALVERIFY OP_CHECKSIG", "type": "pubkeyhash"}, "value": 0.01995188, "n": 0}, {"scriptPubKey": {"type": "nulldata", "hex": "6a146f6d6e69000000000000001f00000002605f6880", "asm": "OP_RETURN 6f6d6e69000000000000001f00000002605f6880"}, "value": 0.0, "n": 1}, {"scriptPubKey": {"reqSigs": 1, "hex": "76a91441022e59c2a82d4865d5fb785f4c130f68987ac488ac", "addresses": ["16vjY1fdcPcZWqhFhKdFms8E1U9MoEbNbs"], "asm": "OP_DUP OP_HASH160 41022e59c2a82d4865d5fb785f4c130f68987ac4 OP_EQUALVERIFY OP_CHECKSIG", "type": "pubkeyhash"}, "value": 5.46e-06, "n": 2}], "hex": "0100000001a44813c76173a4fe9689194c29809e35be05f1741d9b5e1e9e8bd44070ac1fea610000006a47304402201c03848559778548334080ba0c74e8de2eb7d37d7af2b86b6c2e71df06bea0ee022063ff00d5158d266249e8d168860f250ef046a9b857602918925f1133d00d81dd012103da5bac7b36d5aa38f531c6b9601e21bb598a4b6716ebed38b009a55dabde9440feffffff03b4711e00000000001976a914a25dec4d0011064ef106a983c39c7a540699f22088ac0000000000000000166a146f6d6e69000000000000001f00000002605f688022020000000000001976a91441022e59c2a82d4865d5fb785f4c130f68987ac488ac0c490800", "vin": [{"sequence": 4294967294, "scriptSig": {"hex": "47304402201c03848559778548334080ba0c74e8de2eb7d37d7af2b86b6c2e71df06bea0ee022063ff00d5158d266249e8d168860f250ef046a9b857602918925f1133d00d81dd012103da5bac7b36d5aa38f531c6b9601e21bb598a4b6716ebed38b009a55dabde9440", "asm": "304402201c03848559778548334080ba0c74e8de2eb7d37d7af2b86b6c2e71df06bea0ee022063ff00d5158d266249e8d168860f250ef046a9b857602918925f1133d00d81dd[ALL] 03da5bac7b36d5aa38f531c6b9601e21bb598a4b6716ebed38b009a55dabde9440"}, "vout": 97, "txid": "ea1fac7040d48b9e1e5e9b1d74f105be359e80294c198996fea47361c71348a4"}], "txid": "60263d94ca89b204e2822a65769a6fa181f436450dbfed2dbacde5bbd831e7fd", "blocktime": 1537870268, "version": 1, "confirmations": 11516, "time": 1537870268, "locktime": 542988, "vsize": 256, "size": 256}