{"hash": "60270ab16cb6fd5b18bd5c9c08d32400f4f3685d3b1a7b5f3b16b11660d23233", "blockhash": "0000000000000000000e13cef7c366c0283d82e591d1acd082e914b08063cdf1", "vout": [{"scriptPubKey": {"reqSigs": 1, "hex": "76a91415c3aca7d3a3727eb392b1fd11e99cc0892728d688ac", "addresses": ["12z5bj9FF3stLeMUjWny1xsiuXT7tprh4Q"], "asm": "OP_DUP OP_HASH160 15c3aca7d3a3727eb392b1fd11e99cc0892728d6 OP_EQUALVERIFY OP_CHECKSIG", "type": "pubkeyhash"}, "value": 0.00799933, "n": 0}, {"scriptPubKey": {"reqSigs": 1, "hex": "76a914e8cea30989bd15530f819b766684b00dc7ba7cfa88ac", "addresses": ["1NDyJtNTjmwk5xPNhjgAMu4HDHigtobu1s"], "asm": "OP_DUP OP_HASH160 e8cea30989bd15530f819b766684b00dc7ba7cfa OP_EQUALVERIFY OP_CHECKSIG", "type": "pubkeyhash"}, "value": 1.61416976, "n": 1}], "hex": "020000000d0323362d86c3a5e398ff100be36ba39a9e45b9c4b118ac9fe0b7aa07e0f16ceb000000006a473044022033c78485fc5032c3d28399ab6a9c12cdf2c78a72584d0797c9368b6ef0327db3022002a1482e8021265680ced2bb222450a0da5d206352749cd27ae9d6676b483781012102224a9622397219b04b0e51bee69721bfef4f4315823f79a4016abd8964eb1199feffffff10e950691e800fc7770988fb9a80b5266f4013dcf9ba77644810e389215799af010000006b483045022100a0f21e17f3b13b5545db30eb1cf45d38b8be33c05bc7d495b153c6cb4ec7de3a02202c611752b31eb5dfcfff359607ec49924e53eef67024f4e19eba9eb328f19e70012102526da24b03f75a9bd38e24300c00eb73bb209accfd7b8459490c306f4f79754bfeffffff16dac2fda4b1be7b0c92039a8c517542d895980e12319c22367f029f8c959334010000006a473044022072d642678c973b168649ca513f320d3db9b92236cca1b5952001680a5cd9f3a202202f3b2405f555d688f988cb7e17754efff713de072bb0c636372b172be7ad349a0121021d4392b75e9cc89109e16f2598741d1a3f6d38f73cd68aedee5b1dc9d5b5d50afeffffff1d5b3768d253548c56d5b943cdc1501cb79c2164b8f8b4cf40c013247c7ef2e5010000006a473044022038178506e6c0cbf2e4c3eb4b2001dbe397634a114dba564c0df17e5f815bbac2022004870660000fe9b357b0efab6cd45cc45c10bc5a76dabf3c278983496f0c7cf801210298b6d822d267592dea15e6324648ff2b9092b773f1a056e134a9ef761b5c7092feffffff2750163223eb145c8cb21a62de0f87d44c5f9c3def1f36a0f30c6178c2bca1fa7c0200006b48304502210088e92d486c174199aa228d0d3a3218b1e95377e0326ba4379747c2d2c1558e9102204564dec52fa722ff36947dd4e63d1a5fca72648445ff37a3f2f418be1d9ccdf3012103ccd71869849d757bebf744e587b4d700400a33168687cb4899ff308a32f33426feffffff2f5813807d75e95e458118adb77bf932f5f60e7eda84de35ccd19e5d187737fb040000006b483045022100bad9b6438abc92bbc53fff43f8324f5b736ba2ab4fe869e8f7b4f3d7d88e4d6c0220689bb4a6d46c9ad943bd0c555668adc415cecf3431b0a572baa56968a1fedb22012103690d3b78dc17035341a729580e8f07349169cdac0dcae158a119809425ee5ed7feffffff319b645ac37942837a5da65e09e4593e1d90481419663cd2c3196bd2c286c002000000006a4730440220245a0a580ba2d3ed92a2e2562bcaa06a4385134bff9939998939e5da07f8fa4c02203e425684565c9b5f0f51e582757bb84112e2afef37bf38500284006e4ec88fc1012103ab085352ab9629d8b3ee1efed38337cafe8c49ca28c70cd5a937901052557150feffffff5669df728a4b29759b071156574b39c97b78011ddd6a30c01d95542c12085132000000006b483045022100d0ee4c1f51119483eb73557fd7ea5be03f3c6a9461ae282036b5fe0a44e0efb102205fe32b2fdaa8ab3d2489b60dce6a9bd83430eae76212149da84808e3830347200121033d645b300f704fde26654d443e757150f89b199b21777254c9a57d0c6eb09f4ffeffffff626b0112c877ff97912139cc1c373080b933f99b846927070360be5e50715a09010000006b483045022100d8a42aa0e38e48b231ecff444864711068acbda6e6c448c0ebd7840b8c8229980220581ed415e8e39995487ef23e2f6e6f990005546cecb33beb4bc38a9465fc7c8b01210220b6be308d911c81d9acb0b1829ab098758305802ace3149f2fd1920c95ec004feffffff73d5795338219d54cdc24d77abda9e777b805247314eadfd55caccf62a463324010000006a4730440220033db7e682664a5a679e03525e98b0fe8f0554eee99c1814e1a2316b7d7808e7022021dcc5b8ad14d63a7ec7f6f82f696b696589c1561bba2920d438c2a0468177880121023d2031960ad5867463c20948e7b21ca96e0128fa156ac2ec90cf3ab4b2041e92feffffff88121a7733be1cf5026d4a88d0be5d7645f02b0a2ee72578d96f5b837e25dd56040000006a47304402207b9e64e696a06089fbcdc147bd071be3235a0d683626c5962571370e07e8b86f02202dce68565931662e95426a33957e750f2d48305545806b6eca3607f919439c5b012103e85d5bb3cb5930037edc90908cae7357b377ce3a739622e836d149c8b4a62cb0feffffffbbf44d6b49fc533589790a8dc3c23b4129000e4890275d0825896f698edeb531010000006a473044022045d766f48563a588ad07779118907e0d8cdbb53a219132784eddfd1fd0c76388022022b9c99120dbe18a0c75ce52b3d4d373dcc801a974b1b90c9dd84baa03a7a1af0121030aa35f3b367a80feb254f0224c34f05c5f12e50045fb3711b67e120b02690f83fefffffffc28a7a574d343ddc42775c90292e30e413df07040a90da1a6fff869b6a0d6d2000000006b483045022100bb719a6500a39531a9e2c74c39db51f98203e6db9b11273ab44e4bb8c61294b0022070cfa0af816e43b9f5ef4264ce5071ebd7420e5c9e0809d26073ee322be31c480121021b47f94405adaf2c25406f55fa457754a084af2d567bc419c38f496131b0e34afeffffff02bd340c00000000001976a91415c3aca7d3a3727eb392b1fd11e99cc0892728d688ac10079f09000000001976a914e8cea30989bd15530f819b766684b00dc7ba7cfa88ac10490800", "vin": [{"sequence": 4294967294, "scriptSig": {"hex": "473044022033c78485fc5032c3d28399ab6a9c12cdf2c78a72584d0797c9368b6ef0327db3022002a1482e8021265680ced2bb222450a0da5d206352749cd27ae9d6676b483781012102224a9622397219b04b0e51bee69721bfef4f4315823f79a4016abd8964eb1199", "asm": "3044022033c78485fc5032c3d28399ab6a9c12cdf2c78a72584d0797c9368b6ef0327db3022002a1482e8021265680ced2bb222450a0da5d206352749cd27ae9d6676b483781[ALL] 02224a9622397219b04b0e51bee69721bfef4f4315823f79a4016abd8964eb1199"}, "vout": 0, "txid": "eb6cf1e007aab7e09fac18b1c4b9459e9aa36be30b10ff98e3a5c3862d362303"}, {"sequence": 4294967294, "scriptSig": {"hex": "483045022100a0f21e17f3b13b5545db30eb1cf45d38b8be33c05bc7d495b153c6cb4ec7de3a02202c611752b31eb5dfcfff359607ec49924e53eef67024f4e19eba9eb328f19e70012102526da24b03f75a9bd38e24300c00eb73bb209accfd7b8459490c306f4f79754b", "asm": "3045022100a0f21e17f3b13b5545db30eb1cf45d38b8be33c05bc7d495b153c6cb4ec7de3a02202c611752b31eb5dfcfff359607ec49924e53eef67024f4e19eba9eb328f19e70[ALL] 02526da24b03f75a9bd38e24300c00eb73bb209accfd7b8459490c306f4f79754b"}, "vout": 1, "txid": "af99572189e310486477baf9dc13406f26b5809afb880977c70f801e6950e910"}, {"sequence": 4294967294, "scriptSig": {"hex": "473044022072d642678c973b168649ca513f320d3db9b92236cca1b5952001680a5cd9f3a202202f3b2405f555d688f988cb7e17754efff713de072bb0c636372b172be7ad349a0121021d4392b75e9cc89109e16f2598741d1a3f6d38f73cd68aedee5b1dc9d5b5d50a", "asm": "3044022072d642678c973b168649ca513f320d3db9b92236cca1b5952001680a5cd9f3a202202f3b2405f555d688f988cb7e17754efff713de072bb0c636372b172be7ad349a[ALL] 021d4392b75e9cc89109e16f2598741d1a3f6d38f73cd68aedee5b1dc9d5b5d50a"}, "vout": 1, "txid": "3493958c9f027f36229c31120e9895d84275518c9a03920c7bbeb1a4fdc2da16"}, {"sequence": 4294967294, "scriptSig": {"hex": "473044022038178506e6c0cbf2e4c3eb4b2001dbe397634a114dba564c0df17e5f815bbac2022004870660000fe9b357b0efab6cd45cc45c10bc5a76dabf3c278983496f0c7cf801210298b6d822d267592dea15e6324648ff2b9092b773f1a056e134a9ef761b5c7092", "asm": "3044022038178506e6c0cbf2e4c3eb4b2001dbe397634a114dba564c0df17e5f815bbac2022004870660000fe9b357b0efab6cd45cc45c10bc5a76dabf3c278983496f0c7cf8[ALL] 0298b6d822d267592dea15e6324648ff2b9092b773f1a056e134a9ef761b5c7092"}, "vout": 1, "txid": "e5f27e7c2413c040cfb4f8b864219cb71c50c1cd43b9d5568c5453d268375b1d"}, {"sequence": 4294967294, "scriptSig": {"hex": "48304502210088e92d486c174199aa228d0d3a3218b1e95377e0326ba4379747c2d2c1558e9102204564dec52fa722ff36947dd4e63d1a5fca72648445ff37a3f2f418be1d9ccdf3012103ccd71869849d757bebf744e587b4d700400a33168687cb4899ff308a32f33426", "asm": "304502210088e92d486c174199aa228d0d3a3218b1e95377e0326ba4379747c2d2c1558e9102204564dec52fa722ff36947dd4e63d1a5fca72648445ff37a3f2f418be1d9ccdf3[ALL] 03ccd71869849d757bebf744e587b4d700400a33168687cb4899ff308a32f33426"}, "vout": 636, "txid": "faa1bcc278610cf3a0361fef3d9c5f4cd4870fde621ab28c5c14eb2332165027"}, {"sequence": 4294967294, "scriptSig": {"hex": "483045022100bad9b6438abc92bbc53fff43f8324f5b736ba2ab4fe869e8f7b4f3d7d88e4d6c0220689bb4a6d46c9ad943bd0c555668adc415cecf3431b0a572baa56968a1fedb22012103690d3b78dc17035341a729580e8f07349169cdac0dcae158a119809425ee5ed7", "asm": "3045022100bad9b6438abc92bbc53fff43f8324f5b736ba2ab4fe869e8f7b4f3d7d88e4d6c0220689bb4a6d46c9ad943bd0c555668adc415cecf3431b0a572baa56968a1fedb22[ALL] 03690d3b78dc17035341a729580e8f07349169cdac0dcae158a119809425ee5ed7"}, "vout": 4, "txid": "fb3777185d9ed1cc35de84da7e0ef6f532f97bb7ad1881455ee9757d8013582f"}, {"sequence": 4294967294, "scriptSig": {"hex": "4730440220245a0a580ba2d3ed92a2e2562bcaa06a4385134bff9939998939e5da07f8fa4c02203e425684565c9b5f0f51e582757bb84112e2afef37bf38500284006e4ec88fc1012103ab085352ab9629d8b3ee1efed38337cafe8c49ca28c70cd5a937901052557150", "asm": "30440220245a0a580ba2d3ed92a2e2562bcaa06a4385134bff9939998939e5da07f8fa4c02203e425684565c9b5f0f51e582757bb84112e2afef37bf38500284006e4ec88fc1[ALL] 03ab085352ab9629d8b3ee1efed38337cafe8c49ca28c70cd5a937901052557150"}, "vout": 0, "txid": "02c086c2d26b19c3d23c66191448901d3e59e4095ea65d7a834279c35a649b31"}, {"sequence": 4294967294, "scriptSig": {"hex": "483045022100d0ee4c1f51119483eb73557fd7ea5be03f3c6a9461ae282036b5fe0a44e0efb102205fe32b2fdaa8ab3d2489b60dce6a9bd83430eae76212149da84808e3830347200121033d645b300f704fde26654d443e757150f89b199b21777254c9a57d0c6eb09f4f", "asm": "3045022100d0ee4c1f51119483eb73557fd7ea5be03f3c6a9461ae282036b5fe0a44e0efb102205fe32b2fdaa8ab3d2489b60dce6a9bd83430eae76212149da84808e383034720[ALL] 033d645b300f704fde26654d443e757150f89b199b21777254c9a57d0c6eb09f4f"}, "vout": 0, "txid": "325108122c54951dc0306add1d01787bc9394b575611079b75294b8a72df6956"}, {"sequence": 4294967294, "scriptSig": {"hex": "483045022100d8a42aa0e38e48b231ecff444864711068acbda6e6c448c0ebd7840b8c8229980220581ed415e8e39995487ef23e2f6e6f990005546cecb33beb4bc38a9465fc7c8b01210220b6be308d911c81d9acb0b1829ab098758305802ace3149f2fd1920c95ec004", "asm": "3045022100d8a42aa0e38e48b231ecff444864711068acbda6e6c448c0ebd7840b8c8229980220581ed415e8e39995487ef23e2f6e6f990005546cecb33beb4bc38a9465fc7c8b[ALL] 0220b6be308d911c81d9acb0b1829ab098758305802ace3149f2fd1920c95ec004"}, "vout": 1, "txid": "095a71505ebe6003072769849bf933b98030371ccc39219197ff77c812016b62"}, {"sequence": 4294967294, "scriptSig": {"hex": "4730440220033db7e682664a5a679e03525e98b0fe8f0554eee99c1814e1a2316b7d7808e7022021dcc5b8ad14d63a7ec7f6f82f696b696589c1561bba2920d438c2a0468177880121023d2031960ad5867463c20948e7b21ca96e0128fa156ac2ec90cf3ab4b2041e92", "asm": "30440220033db7e682664a5a679e03525e98b0fe8f0554eee99c1814e1a2316b7d7808e7022021dcc5b8ad14d63a7ec7f6f82f696b696589c1561bba2920d438c2a046817788[ALL] 023d2031960ad5867463c20948e7b21ca96e0128fa156ac2ec90cf3ab4b2041e92"}, "vout": 1, "txid": "2433462af6ccca55fdad4e314752807b779edaab774dc2cd549d21385379d573"}, {"sequence": 4294967294, "scriptSig": {"hex": "47304402207b9e64e696a06089fbcdc147bd071be3235a0d683626c5962571370e07e8b86f02202dce68565931662e95426a33957e750f2d48305545806b6eca3607f919439c5b012103e85d5bb3cb5930037edc90908cae7357b377ce3a739622e836d149c8b4a62cb0", "asm": "304402207b9e64e696a06089fbcdc147bd071be3235a0d683626c5962571370e07e8b86f02202dce68565931662e95426a33957e750f2d48305545806b6eca3607f919439c5b[ALL] 03e85d5bb3cb5930037edc90908cae7357b377ce3a739622e836d149c8b4a62cb0"}, "vout": 4, "txid": "56dd257e835b6fd97825e72e0a2bf045765dbed0884a6d02f51cbe33771a1288"}, {"sequence": 4294967294, "scriptSig": {"hex": "473044022045d766f48563a588ad07779118907e0d8cdbb53a219132784eddfd1fd0c76388022022b9c99120dbe18a0c75ce52b3d4d373dcc801a974b1b90c9dd84baa03a7a1af0121030aa35f3b367a80feb254f0224c34f05c5f12e50045fb3711b67e120b02690f83", "asm": "3044022045d766f48563a588ad07779118907e0d8cdbb53a219132784eddfd1fd0c76388022022b9c99120dbe18a0c75ce52b3d4d373dcc801a974b1b90c9dd84baa03a7a1af[ALL] 030aa35f3b367a80feb254f0224c34f05c5f12e50045fb3711b67e120b02690f83"}, "vout": 1, "txid": "31b5de8e696f8925085d2790480e0029413bc2c38d0a79893553fc496b4df4bb"}, {"sequence": 4294967294, "scriptSig": {"hex": "483045022100bb719a6500a39531a9e2c74c39db51f98203e6db9b11273ab44e4bb8c61294b0022070cfa0af816e43b9f5ef4264ce5071ebd7420e5c9e0809d26073ee322be31c480121021b47f94405adaf2c25406f55fa457754a084af2d567bc419c38f496131b0e34a", "asm": "3045022100bb719a6500a39531a9e2c74c39db51f98203e6db9b11273ab44e4bb8c61294b0022070cfa0af816e43b9f5ef4264ce5071ebd7420e5c9e0809d26073ee322be31c48[ALL] 021b47f94405adaf2c25406f55fa457754a084af2d567bc419c38f496131b0e34a"}, "vout": 0, "txid": "d2d6a0b669f8ffa6a10da94070f03d410ee39202c97527c4dd43d374a5a728fc"}], "txid": "60270ab16cb6fd5b18bd5c9c08d32400f4f3685d3b1a7b5f3b16b11660d23233", "blocktime": 1537871767, "version": 2, "confirmations": 11490, "time": 1537871767, "locktime": 542992, "vsize": 1995, "size": 1995}