{"hash": "15dfcc8fe32271ed429292e2df4d4858e866aa890eef3b7648aa545e4eb4ae77", "blockhash": "00000000000000000024a2167bbff67b0be802c0b01cdd79e6331c2be6459f87", "vout": [{"scriptPubKey": {"reqSigs": 1, "hex": "a914e0537049c77f11111e4cdfbbdccc72756e5a2d5e87", "addresses": ["3N99EvxYskA9rj5EFEnXvP72a5VS73JP67"], "asm": "OP_HASH160 e0537049c77f11111e4cdfbbdccc72756e5a2d5e OP_EQUAL", "type": "scripthash"}, "value": 0.00018058, "n": 0}, {"scriptPubKey": {"reqSigs": 1, "hex": "a91474cd529613d117dda31a1236e89936112e7c907187", "addresses": ["3CLcGrsL2sxGBpFrtD87KRwqHum1kmqpZw"], "asm": "OP_HASH160 74cd529613d117dda31a1236e89936112e7c9071 OP_EQUAL", "type": "scripthash"}, "value": 0.00181324, "n": 1}], "hex": "010000000001017d07f1db3b01c73a50f22f0b30365e10fff27c34eb4a6b1fa995796e456c49c3000000002322002048aa73a7b7633e620a1bd23cd12c6b43d6409feaca46d8c41a2ab9be45193571ffffffff028a4600000000000017a914e0537049c77f11111e4cdfbbdccc72756e5a2d5e874cc402000000000017a91474cd529613d117dda31a1236e89936112e7c9071870400483045022100d5795f5b79c4ec30d8f0fd2ac9741f2673f6d0611cb47b656d78d2e97055268702202d1421694744fb1066331370c1c4701dc43ff665e1dc54c357caab68c63db2a10147304402201903d25636269175bc8b42fecfabf6d43c0edb988636d1034ce8538106192196022049b2888f4ee7a7f2e997d83d4986e7be200dc6e9f2584ca9fcb8e3fa9245f77d0147522103d9627eca6b6a406d71acb9691965ad65ba1c0d8322fd66b4be1b8ef0e08b29d62103871fc2ca08e6950b38867e8e6a0e94ee625223d3aa0df5c65f414c6d784467e252ae00000000", "vin": [{"txinwitness": ["", "3045022100d5795f5b79c4ec30d8f0fd2ac9741f2673f6d0611cb47b656d78d2e97055268702202d1421694744fb1066331370c1c4701dc43ff665e1dc54c357caab68c63db2a101", "304402201903d25636269175bc8b42fecfabf6d43c0edb988636d1034ce8538106192196022049b2888f4ee7a7f2e997d83d4986e7be200dc6e9f2584ca9fcb8e3fa9245f77d01", "522103d9627eca6b6a406d71acb9691965ad65ba1c0d8322fd66b4be1b8ef0e08b29d62103871fc2ca08e6950b38867e8e6a0e94ee625223d3aa0df5c65f414c6d784467e252ae"], "sequence": 4294967295, "scriptSig": {"hex": "22002048aa73a7b7633e620a1bd23cd12c6b43d6409feaca46d8c41a2ab9be45193571", "asm": "002048aa73a7b7633e620a1bd23cd12c6b43d6409feaca46d8c41a2ab9be45193571"}, "vout": 0, "txid": "c3496c456e7995a91f6b4aeb347cf2ff105e36300b2ff2503ac7013bdbf1077d"}], "txid": "602b1dd661eb5f1562c4034477c43e4399d602a4ae493af8504e92e762595312", "blocktime": 1537870564, "version": 1, "confirmations": 11515, "time": 1537870564, "locktime": 0, "vsize": 206, "size": 371}