{"hash": "ca5af96223d44d2661126767d13b523e2d671846d83a43e03adc6c0edd214b45", "blockhash": "00000000000000000004ffacab907a6b429b9a5745fa0b75af4234bf69dd7176", "vout": [{"scriptPubKey": {"reqSigs": 1, "hex": "a91497f189aed2d68b5488096e1384ffa76b110425c487", "addresses": ["3FYRJrPbktZTAh3hVbkoPC3dij3wQ4psmF"], "asm": "OP_HASH160 97f189aed2d68b5488096e1384ffa76b110425c4 OP_EQUAL", "type": "scripthash"}, "value": 0.03322246, "n": 0}, {"scriptPubKey": {"reqSigs": 1, "hex": "a914d0adf3b57a97d71fd2aaae6f158d1bc8a51ed1e287", "addresses": ["3LiQrqhf9Ubc2EkGML3DMX3nJjUMuPYLGy"], "asm": "OP_HASH160 d0adf3b57a97d71fd2aaae6f158d1bc8a51ed1e2 OP_EQUAL", "type": "scripthash"}, "value": 3.6262351, "n": 1}], "hex": "02000000000101f579a8b193db0a883674f6254f72fec8283a4803d9f9952a157b763c0d5cec8a01000000171600141ca18b747c99c460df42478805f2bbe6b5c91a18ffffffff0286b132000000000017a91497f189aed2d68b5488096e1384ffa76b110425c48716329d150000000017a914d0adf3b57a97d71fd2aaae6f158d1bc8a51ed1e28702483045022100e6214969bfa95388d44c3790b1919a78e230e21d70eee42a0fac74ca70802bff022073e500f027a7f75edf12869ea854afed76edf3866ef4388ae6b3a733cd1be30e0121035464b17e5b145507df897651a0218633bcd0280034a375adfe57d102d2e2f88200000000", "vin": [{"txinwitness": ["3045022100e6214969bfa95388d44c3790b1919a78e230e21d70eee42a0fac74ca70802bff022073e500f027a7f75edf12869ea854afed76edf3866ef4388ae6b3a733cd1be30e01", "035464b17e5b145507df897651a0218633bcd0280034a375adfe57d102d2e2f882"], "sequence": 4294967295, "scriptSig": {"hex": "1600141ca18b747c99c460df42478805f2bbe6b5c91a18", "asm": "00141ca18b747c99c460df42478805f2bbe6b5c91a18"}, "vout": 1, "txid": "8aec5c0d3c767b152a95f9d903483a28c8fe724f25f67436880adb93b1a879f5"}], "txid": "602e677a79d94462e759cb5f4a46e603d72cb03503b31711fb65732ac566ed5d", "blocktime": 1537875543, "version": 2, "confirmations": 11464, "time": 1537875543, "locktime": 0, "vsize": 166, "size": 248}