{"hash": "fb7eb3d5fbfd02bfcb27830b23c95d72d4f66660e49290f85d8f8bfb989801a3", "blockhash": "0000000000000000001f0ddff1eddb255c1121bcd4da4f1bc9a0da00cae72433", "vout": [{"scriptPubKey": {"reqSigs": 1, "hex": "a914b44337f216fcdcf0a5895a72e8c4169a68ef293e87", "addresses": ["3J8A5VuG2KUQmCweiwHBDfv67VqWTciCM2"], "asm": "OP_HASH160 b44337f216fcdcf0a5895a72e8c4169a68ef293e OP_EQUAL", "type": "scripthash"}, "value": 0.01171514, "n": 0}], "hex": "01000000000101687dbe28430546a5d65bfe2e7ef0ccf03f08e634871de54bb7f36ff80a5652ad0100000017160014abda4bea02d61d66b88cc6a9918a98280c1edc56ffffffff013ae011000000000017a914b44337f216fcdcf0a5895a72e8c4169a68ef293e8702483045022100a2c78346797088500adab6ca2ffbcb763898deaf791aac5e1ddff3a9be6a0c5d0220671bbc6425c96f759524a865980b0aea8c0c17fc3a41eebd7252f6f803e316c5012102bc0ca4da2c2ba7d72163a5f3c0525b96582b7472c3102ad798b41d4e62eddec900000000", "vin": [{"txinwitness": ["3045022100a2c78346797088500adab6ca2ffbcb763898deaf791aac5e1ddff3a9be6a0c5d0220671bbc6425c96f759524a865980b0aea8c0c17fc3a41eebd7252f6f803e316c501", "02bc0ca4da2c2ba7d72163a5f3c0525b96582b7472c3102ad798b41d4e62eddec9"], "sequence": 4294967295, "scriptSig": {"hex": "160014abda4bea02d61d66b88cc6a9918a98280c1edc56", "asm": "0014abda4bea02d61d66b88cc6a9918a98280c1edc56"}, "vout": 1, "txid": "ad52560af86ff3b74be51d8734e6083ff0ccf07e2efe5bd6a546054328be7d68"}], "txid": "602f85be83cbf44d3212074492ba16099b5e7eb4eba7451300c64ce7ded7f636", "blocktime": 1537872018, "version": 1, "confirmations": 11489, "time": 1537872018, "locktime": 0, "vsize": 134, "size": 216}