{"hash": "60304ba2db2d76e86470698ee6523b914a8c5a38e1b281a51b8641c45398b5fb", "blockhash": "0000000000000000001e0dab787dd257d1dbfcb92a98c2207d5e1078be1f4165", "vout": [{"scriptPubKey": {"reqSigs": 1, "hex": "76a9142a5de40bab67239a0d1f9903845a668fa952d55a88ac", "addresses": ["14s1rhr512e8XF5awFC7jDbsHKLNh8Fq5s"], "asm": "OP_DUP OP_HASH160 2a5de40bab67239a0d1f9903845a668fa952d55a OP_EQUALVERIFY OP_CHECKSIG", "type": "pubkeyhash"}, "value": 0.17354058, "n": 0}, {"scriptPubKey": {"reqSigs": 1, "hex": "a91480622199f24a1adfb9cf95e9026e0ffefc6bd31387", "addresses": ["3DPqyNq9NanQLZpSYNnhrfuEtKfEKJbVMZ"], "asm": "OP_HASH160 80622199f24a1adfb9cf95e9026e0ffefc6bd313 OP_EQUAL", "type": "scripthash"}, "value": 1.7, "n": 1}], "hex": "0100000002fc3a1619a9c2e421cd5c6fe8d0aaf0747c7a9cb39893ff1bc8ab2c01060f7995000000006a47304402207b94eadae1cebfa73f5d97a8c2c1885a6b925f60c8b544f81d4d6c6489de833002207fd7f5ec9ef8e658d1720f29d23edc4e96ffd52fbff02f0d51c4b9929b18d119012103231a856a1fc0cfc8f217253f3b68f5ee39936452d9de67bdd00faab821131811ffffffffcb79949edf97fb1cc34ea2a53340bb690aa0d2cbf6a1703608af413248c155fe010000006b483045022100ea9311b15a62438bba822d6be4bc1742617513c05866030bdf07621323b5916502200d1d2dc9cf77c115dbda91389297a3725625aa4b08522d8f6c270a84a5f1dd130121027ee789a67ba1d440fa0a422b1667f64b96d8de98a14275c78c0dbc1958a5d233ffffffff024acd0801000000001976a9142a5de40bab67239a0d1f9903845a668fa952d55a88ac80fe210a0000000017a91480622199f24a1adfb9cf95e9026e0ffefc6bd3138700000000", "vin": [{"sequence": 4294967295, "scriptSig": {"hex": "47304402207b94eadae1cebfa73f5d97a8c2c1885a6b925f60c8b544f81d4d6c6489de833002207fd7f5ec9ef8e658d1720f29d23edc4e96ffd52fbff02f0d51c4b9929b18d119012103231a856a1fc0cfc8f217253f3b68f5ee39936452d9de67bdd00faab821131811", "asm": "304402207b94eadae1cebfa73f5d97a8c2c1885a6b925f60c8b544f81d4d6c6489de833002207fd7f5ec9ef8e658d1720f29d23edc4e96ffd52fbff02f0d51c4b9929b18d119[ALL] 03231a856a1fc0cfc8f217253f3b68f5ee39936452d9de67bdd00faab821131811"}, "vout": 0, "txid": "95790f06012cabc81bff9398b39c7a7c74f0aad0e86f5ccd21e4c2a919163afc"}, {"sequence": 4294967295, "scriptSig": {"hex": "483045022100ea9311b15a62438bba822d6be4bc1742617513c05866030bdf07621323b5916502200d1d2dc9cf77c115dbda91389297a3725625aa4b08522d8f6c270a84a5f1dd130121027ee789a67ba1d440fa0a422b1667f64b96d8de98a14275c78c0dbc1958a5d233", "asm": "3045022100ea9311b15a62438bba822d6be4bc1742617513c05866030bdf07621323b5916502200d1d2dc9cf77c115dbda91389297a3725625aa4b08522d8f6c270a84a5f1dd13[ALL] 027ee789a67ba1d440fa0a422b1667f64b96d8de98a14275c78c0dbc1958a5d233"}, "vout": 1, "txid": "fe55c1483241af083670a1f6cbd2a00a69bb4033a5a24ec31cfb97df9e9479cb"}], "txid": "60304ba2db2d76e86470698ee6523b914a8c5a38e1b281a51b8641c45398b5fb", "blocktime": 1537872475, "version": 1, "confirmations": 11486, "time": 1537872475, "locktime": 0, "vsize": 371, "size": 371}