{"hash": "6030d3d7b47a9bd6285a6c8471473ec62808154b2b6be46dfae3c7662cb3d75f", "blockhash": "0000000000000000000e13cef7c366c0283d82e591d1acd082e914b08063cdf1", "vout": [{"scriptPubKey": {"reqSigs": 1, "hex": "76a914de0a4ae188537c681f98a354219eafcebe6cbb3e88ac", "addresses": ["1MF3Lit1C3mRBqsHm6ehatuMacoqSM5SmY"], "asm": "OP_DUP OP_HASH160 de0a4ae188537c681f98a354219eafcebe6cbb3e OP_EQUALVERIFY OP_CHECKSIG", "type": "pubkeyhash"}, "value": 0.00642986, "n": 0}, {"scriptPubKey": {"reqSigs": 1, "hex": "76a914a0fa9702626274e7a554737fb03735a3c7d6acac88ac", "addresses": ["1FgBJz1k2EcKqqsGakHcZtEvBxKZufNZo7"], "asm": "OP_DUP OP_HASH160 a0fa9702626274e7a554737fb03735a3c7d6acac OP_EQUALVERIFY OP_CHECKSIG", "type": "pubkeyhash"}, "value": 0.02689315, "n": 1}], "hex": "01000000012fd959533d0dbcde2ff08d5f3481a6f43a8da7aa833668a7352ebdef17976a34010000006b483045022100f666f2a807d7531bc93e63b3b9ade11549ace7b839fd9dc9ec0d7d38d465d0b102205f56c16734821dc114a58f5b3d847a6f1ddac9514f3abdfa0afd275263b947840121030318d12b33ae3e3fc3bc6aca3b2620a3b4ec4d08e12d88c83300489390cfd1d3ffffffff02aacf0900000000001976a914de0a4ae188537c681f98a354219eafcebe6cbb3e88ac23092900000000001976a914a0fa9702626274e7a554737fb03735a3c7d6acac88ac00000000", "vin": [{"sequence": 4294967295, "scriptSig": {"hex": "483045022100f666f2a807d7531bc93e63b3b9ade11549ace7b839fd9dc9ec0d7d38d465d0b102205f56c16734821dc114a58f5b3d847a6f1ddac9514f3abdfa0afd275263b947840121030318d12b33ae3e3fc3bc6aca3b2620a3b4ec4d08e12d88c83300489390cfd1d3", "asm": "3045022100f666f2a807d7531bc93e63b3b9ade11549ace7b839fd9dc9ec0d7d38d465d0b102205f56c16734821dc114a58f5b3d847a6f1ddac9514f3abdfa0afd275263b94784[ALL] 030318d12b33ae3e3fc3bc6aca3b2620a3b4ec4d08e12d88c83300489390cfd1d3"}, "vout": 1, "txid": "346a9717efbd2e35a7683683aaa78d3af4a681345f8df02fdebc0d3d5359d92f"}], "txid": "6030d3d7b47a9bd6285a6c8471473ec62808154b2b6be46dfae3c7662cb3d75f", "blocktime": 1537871767, "version": 1, "confirmations": 11493, "time": 1537871767, "locktime": 0, "vsize": 226, "size": 226}