{"hash": "6031f0b475ab01049b60bafc2f718024bbd766afeacec1fd42867972b630c56e", "blockhash": "0000000000000000001cda96e906b7601b7a6fb1a3b62bca570a9e5d8f4b3de1", "vout": [{"scriptPubKey": {"reqSigs": 1, "hex": "76a914583ae18543013c7ea6e78aa57a9778463394f5e188ac", "addresses": ["193X112dzHTABYbogEctccHkQQhcot1Cz2"], "asm": "OP_DUP OP_HASH160 583ae18543013c7ea6e78aa57a9778463394f5e1 OP_EQUALVERIFY OP_CHECKSIG", "type": "pubkeyhash"}, "value": 0.00889499, "n": 0}, {"scriptPubKey": {"reqSigs": 1, "hex": "a914d3723b31c2526e5b1a5d40cc32d7e12159aa485b87", "addresses": ["3Ly3LwkgxTkEhcVV3s7NpQcBPF5s4SzJi5"], "asm": "OP_HASH160 d3723b31c2526e5b1a5d40cc32d7e12159aa485b OP_EQUAL", "type": "scripthash"}, "value": 0.05621, "n": 1}], "hex": "01000000025f79a382f08f872bd4e3d21e29e8fccd2aa8bc49ece105b93fee0440eb5ebc9b000000006a473044022044ed3de313a80c259f5cdd912ba6c29c0abac49c70e28b6adfd789072ca0fb030220530509d21411f4e594cec3e57d8ec6251ffb67b616fb66f4bd46bdf95fadb26401210311795f5ecea93e0b33f7fdc0b847d3579800b319e80412eb21c2fdbeb708712efdffffff088fb63deba91c4e1aa14d745b072f6c5ee6809dc5106e835f732e25b9a457be000000006b483045022100a60e12c86233d40bda76c30f9efb133526017b7801653ca8bd2cf03591f5d00f02200f9be217cc9d86a7897f24c2f2e0d86033f444ff39b1e0f2e4a475ea56648d69012103b33687374c135488b245dcd9953eb9fd1a3e4fc24dbc017884bdd32b7be0c5a1fdffffff029b920d00000000001976a914583ae18543013c7ea6e78aa57a9778463394f5e188ac08c555000000000017a914d3723b31c2526e5b1a5d40cc32d7e12159aa485b8723990700", "vin": [{"sequence": 4294967293, "scriptSig": {"hex": "473044022044ed3de313a80c259f5cdd912ba6c29c0abac49c70e28b6adfd789072ca0fb030220530509d21411f4e594cec3e57d8ec6251ffb67b616fb66f4bd46bdf95fadb26401210311795f5ecea93e0b33f7fdc0b847d3579800b319e80412eb21c2fdbeb708712e", "asm": "3044022044ed3de313a80c259f5cdd912ba6c29c0abac49c70e28b6adfd789072ca0fb030220530509d21411f4e594cec3e57d8ec6251ffb67b616fb66f4bd46bdf95fadb264[ALL] 0311795f5ecea93e0b33f7fdc0b847d3579800b319e80412eb21c2fdbeb708712e"}, "vout": 0, "txid": "9bbc5eeb4004ee3fb905e1ec49bca82acdfce8291ed2e3d42b878ff082a3795f"}, {"sequence": 4294967293, "scriptSig": {"hex": "483045022100a60e12c86233d40bda76c30f9efb133526017b7801653ca8bd2cf03591f5d00f02200f9be217cc9d86a7897f24c2f2e0d86033f444ff39b1e0f2e4a475ea56648d69012103b33687374c135488b245dcd9953eb9fd1a3e4fc24dbc017884bdd32b7be0c5a1", "asm": "3045022100a60e12c86233d40bda76c30f9efb133526017b7801653ca8bd2cf03591f5d00f02200f9be217cc9d86a7897f24c2f2e0d86033f444ff39b1e0f2e4a475ea56648d69[ALL] 03b33687374c135488b245dcd9953eb9fd1a3e4fc24dbc017884bdd32b7be0c5a1"}, "vout": 0, "txid": "be57a4b9252e735f836e10c59d80e65e6c2f075b744da11a4e1ca9eb3db68f08"}], "txid": "6031f0b475ab01049b60bafc2f718024bbd766afeacec1fd42867972b630c56e", "blocktime": 1537873282, "version": 1, "confirmations": 11485, "time": 1537873282, "locktime": 497955, "vsize": 371, "size": 371}