{"hash": "60311e697ea4709f022839f0e655d6567f543ff99d69a618af06a4ffaa256756", "blockhash": "0000000000000000000e13cef7c366c0283d82e591d1acd082e914b08063cdf1", "vout": [{"scriptPubKey": {"reqSigs": 1, "hex": "a914f1c7510be0ae3704ae96f748b73b3a7bb92a9a0887", "addresses": ["3PjRYXwCPDJFFMAVu6xhGtvctk4CekiQ5u"], "asm": "OP_HASH160 f1c7510be0ae3704ae96f748b73b3a7bb92a9a08 OP_EQUAL", "type": "scripthash"}, "value": 0.00470127, "n": 0}, {"scriptPubKey": {"reqSigs": 1, "hex": "76a914a7b4ca9db210bf1f8c7fc22a983b8965b06822ee88ac", "addresses": ["1GHkReY1PAfgLSsHgL8Q2vsw9pZB63huUx"], "asm": "OP_DUP OP_HASH160 a7b4ca9db210bf1f8c7fc22a983b8965b06822ee OP_EQUALVERIFY OP_CHECKSIG", "type": "pubkeyhash"}, "value": 0.01660717, "n": 1}], "hex": "0100000001479174dfc297f0d832e85777bd7f9d6291a405a18a60d1a1ebbeaaee7644f38b150000006b483045022100ee91f47647ef70909a83cb0c9eeb13fb4f4793c2a81fe605334bda484f1131fe02202e368e0e7ba7338479b12ea63f6849d111881f98731be5964bb6b605a838865e012102cdaa1722d84cfe043f16b1ff3fe52a05d804bb9aa839921279f9ced47462f613ffffffff026f2c07000000000017a914f1c7510be0ae3704ae96f748b73b3a7bb92a9a08872d571900000000001976a914a7b4ca9db210bf1f8c7fc22a983b8965b06822ee88ac00000000", "vin": [{"sequence": 4294967295, "scriptSig": {"hex": "483045022100ee91f47647ef70909a83cb0c9eeb13fb4f4793c2a81fe605334bda484f1131fe02202e368e0e7ba7338479b12ea63f6849d111881f98731be5964bb6b605a838865e012102cdaa1722d84cfe043f16b1ff3fe52a05d804bb9aa839921279f9ced47462f613", "asm": "3045022100ee91f47647ef70909a83cb0c9eeb13fb4f4793c2a81fe605334bda484f1131fe02202e368e0e7ba7338479b12ea63f6849d111881f98731be5964bb6b605a838865e[ALL] 02cdaa1722d84cfe043f16b1ff3fe52a05d804bb9aa839921279f9ced47462f613"}, "vout": 21, "txid": "8bf34476eeaabeeba1d1608aa105a491629d7fbd7757e832d8f097c2df749147"}], "txid": "60311e697ea4709f022839f0e655d6567f543ff99d69a618af06a4ffaa256756", "blocktime": 1537871767, "version": 1, "confirmations": 11495, "time": 1537871767, "locktime": 0, "vsize": 224, "size": 224}