{"hash": "603354cab6dcf1b5938f5c487229b2d07e40d05fa582ad4882c514085ddd1c83", "blockhash": "0000000000000000001f0ddff1eddb255c1121bcd4da4f1bc9a0da00cae72433", "vout": [{"scriptPubKey": {"reqSigs": 1, "hex": "76a91492770142c75fe874d479c340f324e805dbf6d9fa88ac", "addresses": ["1EMSDcdrWBQfSTup23oA4Hkp8FGRWZS6M1"], "asm": "OP_DUP OP_HASH160 92770142c75fe874d479c340f324e805dbf6d9fa OP_EQUALVERIFY OP_CHECKSIG", "type": "pubkeyhash"}, "value": 7.952e-05, "n": 0}, {"scriptPubKey": {"reqSigs": 1, "hex": "a914f293267a5552bb6b6a5f5052433d7afeef9ae67e87", "addresses": ["3Podj9bnwsWoUynR14TRr7HDTrPK5ajaj2"], "asm": "OP_HASH160 f293267a5552bb6b6a5f5052433d7afeef9ae67e OP_EQUAL", "type": "scripthash"}, "value": 0.0147, "n": 1}], "hex": "010000000270379bdaa719f2d2613b4a95d0d28c476cc96f7da95c4f421e9f0704451263604b0000006b483045022100a3ff2079cb65df36973bbc908ce751c2c1dd806a705d78df629eb894e704370e0220604ab942b98092e5e58c6770eb3f6c5b7cfc4ba78f7c4c56eba587761be632ad012102aea9630f0bcfca9a0ae9da95201757401ead82d3fe3b68d534aec684eb3272c7ffffffffb49e5aea356faddf5959fcf28e96b718aae4e4814844c3a9b72da70967fc24de000000006b4830450221009248d323d09b320b6011f67fc708be99f93004b15298ca4b14d7aaacee8120b10220315c51f9d3744d200570871d7a4f4fa568f4004bf565572db94bd6c1c7f0a44f012103eb3fd0a9123ba4c3e18931910682a2eb0a430ede3edfac18536d8dedf1e8b456ffffffff02101f0000000000001976a91492770142c75fe874d479c340f324e805dbf6d9fa88ac306e16000000000017a914f293267a5552bb6b6a5f5052433d7afeef9ae67e8700000000", "vin": [{"sequence": 4294967295, "scriptSig": {"hex": "483045022100a3ff2079cb65df36973bbc908ce751c2c1dd806a705d78df629eb894e704370e0220604ab942b98092e5e58c6770eb3f6c5b7cfc4ba78f7c4c56eba587761be632ad012102aea9630f0bcfca9a0ae9da95201757401ead82d3fe3b68d534aec684eb3272c7", "asm": "3045022100a3ff2079cb65df36973bbc908ce751c2c1dd806a705d78df629eb894e704370e0220604ab942b98092e5e58c6770eb3f6c5b7cfc4ba78f7c4c56eba587761be632ad[ALL] 02aea9630f0bcfca9a0ae9da95201757401ead82d3fe3b68d534aec684eb3272c7"}, "vout": 75, "txid": "6063124504079f1e424f5ca97d6fc96c478cd2d0954a3b61d2f219a7da9b3770"}, {"sequence": 4294967295, "scriptSig": {"hex": "4830450221009248d323d09b320b6011f67fc708be99f93004b15298ca4b14d7aaacee8120b10220315c51f9d3744d200570871d7a4f4fa568f4004bf565572db94bd6c1c7f0a44f012103eb3fd0a9123ba4c3e18931910682a2eb0a430ede3edfac18536d8dedf1e8b456", "asm": "30450221009248d323d09b320b6011f67fc708be99f93004b15298ca4b14d7aaacee8120b10220315c51f9d3744d200570871d7a4f4fa568f4004bf565572db94bd6c1c7f0a44f[ALL] 03eb3fd0a9123ba4c3e18931910682a2eb0a430ede3edfac18536d8dedf1e8b456"}, "vout": 0, "txid": "de24fc6709a72db7a9c3444881e4e4aa18b7968ef2fc5959dfad6f35ea5a9eb4"}], "txid": "603354cab6dcf1b5938f5c487229b2d07e40d05fa582ad4882c514085ddd1c83", "blocktime": 1537872018, "version": 1, "confirmations": 11489, "time": 1537872018, "locktime": 0, "vsize": 372, "size": 372}