{"hash": "6035b575b71008fcae968fd07d266a2e2a347006cac29dd0d15e095fe9c9e79b", "blockhash": "0000000000000000001cda96e906b7601b7a6fb1a3b62bca570a9e5d8f4b3de1", "vout": [{"scriptPubKey": {"type": "nulldata", "hex": "6a4c50000077c4000198821ccaf0374b3a05f819d1e5bf9ae76da98a211aaf6c953dd567cf27e7178290483b5de464d458b0b2bf01bb335baa12f606131900bbc3679120599f7cb8fbacf7bab7719c405f2d9a", "asm": "OP_RETURN 000077c4000198821ccaf0374b3a05f819d1e5bf9ae76da98a211aaf6c953dd567cf27e7178290483b5de464d458b0b2bf01bb335baa12f606131900bbc3679120599f7cb8fbacf7bab7719c405f2d9a"}, "value": 0.0, "n": 0}, {"scriptPubKey": {"reqSigs": 1, "hex": "76a914fec0e713e73d20aceee01306a97dd0747104751988ac", "addresses": ["1QE1iqUn9AiMdKsvgtt5ozEDnL1DNWeh2U"], "asm": "OP_DUP OP_HASH160 fec0e713e73d20aceee01306a97dd07471047519 OP_EQUALVERIFY OP_CHECKSIG", "type": "pubkeyhash"}, "value": 0.00058018, "n": 1}], "hex": "01000000019fd5cf8ccd201f7a789f83834ad8444b9b5ef19b70673e50bcc5bac3d0b86af3010000006a473044022050be9284d31f84609eebe41731f7bd980259308d4d43c43c4598037a8c6ec3e5022047a31e1357ae6fc6c7291ffee7d09a93518eed4af1eebfe073b6f4c0b99a20d20121021185ebf2adb61c61b085a9f0e6a2eeb05cbca321bef2a54f9f22399ee0b94efcffffffff020000000000000000536a4c50000077c4000198821ccaf0374b3a05f819d1e5bf9ae76da98a211aaf6c953dd567cf27e7178290483b5de464d458b0b2bf01bb335baa12f606131900bbc3679120599f7cb8fbacf7bab7719c405f2d9aa2e20000000000001976a914fec0e713e73d20aceee01306a97dd0747104751988ac00000000", "vin": [{"sequence": 4294967295, "scriptSig": {"hex": "473044022050be9284d31f84609eebe41731f7bd980259308d4d43c43c4598037a8c6ec3e5022047a31e1357ae6fc6c7291ffee7d09a93518eed4af1eebfe073b6f4c0b99a20d20121021185ebf2adb61c61b085a9f0e6a2eeb05cbca321bef2a54f9f22399ee0b94efc", "asm": "3044022050be9284d31f84609eebe41731f7bd980259308d4d43c43c4598037a8c6ec3e5022047a31e1357ae6fc6c7291ffee7d09a93518eed4af1eebfe073b6f4c0b99a20d2[ALL] 021185ebf2adb61c61b085a9f0e6a2eeb05cbca321bef2a54f9f22399ee0b94efc"}, "vout": 1, "txid": "f36ab8d0c3bac5bc503e67709bf15e9b4b44d84a83839f787a1f20cd8ccfd59f"}], "txid": "6035b575b71008fcae968fd07d266a2e2a347006cac29dd0d15e095fe9c9e79b", "blocktime": 1537873282, "version": 1, "confirmations": 11482, "time": 1537873282, "locktime": 0, "vsize": 283, "size": 283}