{"hash": "6038be4fb58aa9ca364710bf3b52a2663ae91487a778c5b4ccf73fb4d62e3570", "blockhash": "000000000000000000022b45ed06c6f4ccd3cf7fb5ba4856ebd2e58215665228", "vout": [{"scriptPubKey": {"type": "nulldata", "hex": "6a146f6d6e69000000000000001f0000018bcfe56800", "asm": "OP_RETURN 6f6d6e69000000000000001f0000018bcfe56800"}, "value": 0.0, "n": 0}, {"scriptPubKey": {"reqSigs": 1, "hex": "76a9144fa1a984a10848488f3035a1807625594774505988ac", "addresses": ["18G43e7FUjnw7CRjYnURHbmiV1sn1Qz8ic"], "asm": "OP_DUP OP_HASH160 4fa1a984a10848488f3035a18076255947745059 OP_EQUALVERIFY OP_CHECKSIG", "type": "pubkeyhash"}, "value": 0.00584056, "n": 1}, {"scriptPubKey": {"reqSigs": 1, "hex": "76a914a25dec4d0011064ef106a983c39c7a540699f22088ac", "addresses": ["1FoWyxwPXuj4C6abqwhjDWdz6D4PZgYRjA"], "asm": "OP_DUP OP_HASH160 a25dec4d0011064ef106a983c39c7a540699f220 OP_EQUALVERIFY OP_CHECKSIG", "type": "pubkeyhash"}, "value": 5.46e-06, "n": 2}], "hex": "01000000080c48b4a3798cdd928c878b58fbe3d254dbd7c7e686e2698a4b46004294498505020000006b483045022100e5f3e00d93f108114c3b1ce3015edfe948bc9bb526ecaa626e30414a0a0fe1b502205a109d01e2717e4ceea422d6430c90e09eb2646bd0b49f35fb29699bf2c8f9c30121029710134e9a14a93ed264a0d226837af120c981b4e835ab33109bdba281848425feffffff12c3c56e98fd60b819dfff51a19f5f793ad10d3201d9fd3b3022b4cc893c176a000000006a47304402204b5af600f7afa2241e96d7d8f2f5904fe34084bad8e21197ab2fdf15dbddbf9a02207f0b79b05381dd6caa7b4ab7a3f2cf30870b4d6797e5592ffda88f4a5cef8b950121029710134e9a14a93ed264a0d226837af120c981b4e835ab33109bdba281848425feffffff146a8c8e03158b118bb89c2d696ff0f5681c6f2111fa6e6c3dad52f1aab2c28b020000006b483045022100b978cfc878f6adfc569eede5200d0d88c80d4bf92f4ab781a4d950e09fed1b870220605b7ae3d7fd9846628e405f68bed78c796f39fca12c0f9ae248f752039f79bd0121029710134e9a14a93ed264a0d226837af120c981b4e835ab33109bdba281848425feffffff1676d92aae9d3eb0ae1b372e188254dd1f22d37d5dab5195701e39fdd0d2cf8e010000006a47304402204b7ff88caef99963844479d9b9d89b64d674c384251df9da012e9455d8737f2602201c96da970a58db30e65c5a73c34ed031ff8174723e72b1a5852dbb12658b37730121029710134e9a14a93ed264a0d226837af120c981b4e835ab33109bdba281848425feffffff2f1a634c0bc82540de7f7c8af54ef5bac89d7190d8da04146fa144d67b1d982e020000006b483045022100e21083c76c9a4817fb64c7a1afb433c7341838827386d5fc42b8f05a5702e79a02201d26fd2ba9407ad7ff3ecd86ffe3efe1d72e28caa5eb0c6535c76f78fa040b880121029710134e9a14a93ed264a0d226837af120c981b4e835ab33109bdba281848425feffffff519f237a3cc6764f035388f77549a998535c21fe6241a06475ac48cc6b965b04010000006a473044022073eaa5b59c27c005ddb90fa56a94708433898d463105fe03d083aa6ddb7fd50f02202a267ddf4b8ad9538b590ce9d7d39d5ddfdfb8cbd3873f4e3906515ffd18e6660121029710134e9a14a93ed264a0d226837af120c981b4e835ab33109bdba281848425feffffff5a2fa5298a71a746d31c4ea9ae587021b00cea2cb580f67c1a50e85ba613060d020000006b483045022100eb31f3547fa5eccf9d4b34497b4fdb3a67dfc80daf4bf6e2b691dc3d4cd1c0510220328a37b1b0b6541248e9d1bc81f20651f80bb1309db05b30f7c3de5b3305590b0121029710134e9a14a93ed264a0d226837af120c981b4e835ab33109bdba281848425feffffff5e298090fcb3e8b8d8a2ffa92f06f4de81b160fa76f397578bb27f5c2e986ffd010000006a473044022016b7e42e96ab01837b4a56e1cf2c61a9b4178415655bc55c1928d369d5e6d3c002202bcd3d2f693b59206081695a6ec6f6c5c0b5230765da6a318d003f4fa54d21870121029710134e9a14a93ed264a0d226837af120c981b4e835ab33109bdba281848425feffffff030000000000000000166a146f6d6e69000000000000001f0000018bcfe5680078e90800000000001976a9144fa1a984a10848488f3035a1807625594774505988ac22020000000000001976a914a25dec4d0011064ef106a983c39c7a540699f22088ac0b490800", "vin": [{"sequence": 4294967294, "scriptSig": {"hex": "483045022100e5f3e00d93f108114c3b1ce3015edfe948bc9bb526ecaa626e30414a0a0fe1b502205a109d01e2717e4ceea422d6430c90e09eb2646bd0b49f35fb29699bf2c8f9c30121029710134e9a14a93ed264a0d226837af120c981b4e835ab33109bdba281848425", "asm": "3045022100e5f3e00d93f108114c3b1ce3015edfe948bc9bb526ecaa626e30414a0a0fe1b502205a109d01e2717e4ceea422d6430c90e09eb2646bd0b49f35fb29699bf2c8f9c3[ALL] 029710134e9a14a93ed264a0d226837af120c981b4e835ab33109bdba281848425"}, "vout": 2, "txid": "058549944200464b8a69e286e6c7d7db54d2e3fb588b878c92dd8c79a3b4480c"}, {"sequence": 4294967294, "scriptSig": {"hex": "47304402204b5af600f7afa2241e96d7d8f2f5904fe34084bad8e21197ab2fdf15dbddbf9a02207f0b79b05381dd6caa7b4ab7a3f2cf30870b4d6797e5592ffda88f4a5cef8b950121029710134e9a14a93ed264a0d226837af120c981b4e835ab33109bdba281848425", "asm": "304402204b5af600f7afa2241e96d7d8f2f5904fe34084bad8e21197ab2fdf15dbddbf9a02207f0b79b05381dd6caa7b4ab7a3f2cf30870b4d6797e5592ffda88f4a5cef8b95[ALL] 029710134e9a14a93ed264a0d226837af120c981b4e835ab33109bdba281848425"}, "vout": 0, "txid": "6a173c89ccb422303bfdd901320dd13a795f9fa151ffdf19b860fd986ec5c312"}, {"sequence": 4294967294, "scriptSig": {"hex": "483045022100b978cfc878f6adfc569eede5200d0d88c80d4bf92f4ab781a4d950e09fed1b870220605b7ae3d7fd9846628e405f68bed78c796f39fca12c0f9ae248f752039f79bd0121029710134e9a14a93ed264a0d226837af120c981b4e835ab33109bdba281848425", "asm": "3045022100b978cfc878f6adfc569eede5200d0d88c80d4bf92f4ab781a4d950e09fed1b870220605b7ae3d7fd9846628e405f68bed78c796f39fca12c0f9ae248f752039f79bd[ALL] 029710134e9a14a93ed264a0d226837af120c981b4e835ab33109bdba281848425"}, "vout": 2, "txid": "8bc2b2aaf152ad3d6c6efa11216f1c68f5f06f692d9cb88b118b15038e8c6a14"}, {"sequence": 4294967294, "scriptSig": {"hex": "47304402204b7ff88caef99963844479d9b9d89b64d674c384251df9da012e9455d8737f2602201c96da970a58db30e65c5a73c34ed031ff8174723e72b1a5852dbb12658b37730121029710134e9a14a93ed264a0d226837af120c981b4e835ab33109bdba281848425", "asm": "304402204b7ff88caef99963844479d9b9d89b64d674c384251df9da012e9455d8737f2602201c96da970a58db30e65c5a73c34ed031ff8174723e72b1a5852dbb12658b3773[ALL] 029710134e9a14a93ed264a0d226837af120c981b4e835ab33109bdba281848425"}, "vout": 1, "txid": "8ecfd2d0fd391e709551ab5d7dd3221fdd5482182e371baeb03e9dae2ad97616"}, {"sequence": 4294967294, "scriptSig": {"hex": "483045022100e21083c76c9a4817fb64c7a1afb433c7341838827386d5fc42b8f05a5702e79a02201d26fd2ba9407ad7ff3ecd86ffe3efe1d72e28caa5eb0c6535c76f78fa040b880121029710134e9a14a93ed264a0d226837af120c981b4e835ab33109bdba281848425", "asm": "3045022100e21083c76c9a4817fb64c7a1afb433c7341838827386d5fc42b8f05a5702e79a02201d26fd2ba9407ad7ff3ecd86ffe3efe1d72e28caa5eb0c6535c76f78fa040b88[ALL] 029710134e9a14a93ed264a0d226837af120c981b4e835ab33109bdba281848425"}, "vout": 2, "txid": "2e981d7bd644a16f1404dad890719dc8baf54ef58a7c7fde4025c80b4c631a2f"}, {"sequence": 4294967294, "scriptSig": {"hex": "473044022073eaa5b59c27c005ddb90fa56a94708433898d463105fe03d083aa6ddb7fd50f02202a267ddf4b8ad9538b590ce9d7d39d5ddfdfb8cbd3873f4e3906515ffd18e6660121029710134e9a14a93ed264a0d226837af120c981b4e835ab33109bdba281848425", "asm": "3044022073eaa5b59c27c005ddb90fa56a94708433898d463105fe03d083aa6ddb7fd50f02202a267ddf4b8ad9538b590ce9d7d39d5ddfdfb8cbd3873f4e3906515ffd18e666[ALL] 029710134e9a14a93ed264a0d226837af120c981b4e835ab33109bdba281848425"}, "vout": 1, "txid": "045b966bcc48ac7564a04162fe215c5398a94975f78853034f76c63c7a239f51"}, {"sequence": 4294967294, "scriptSig": {"hex": "483045022100eb31f3547fa5eccf9d4b34497b4fdb3a67dfc80daf4bf6e2b691dc3d4cd1c0510220328a37b1b0b6541248e9d1bc81f20651f80bb1309db05b30f7c3de5b3305590b0121029710134e9a14a93ed264a0d226837af120c981b4e835ab33109bdba281848425", "asm": "3045022100eb31f3547fa5eccf9d4b34497b4fdb3a67dfc80daf4bf6e2b691dc3d4cd1c0510220328a37b1b0b6541248e9d1bc81f20651f80bb1309db05b30f7c3de5b3305590b[ALL] 029710134e9a14a93ed264a0d226837af120c981b4e835ab33109bdba281848425"}, "vout": 2, "txid": "0d0613a65be8501a7cf680b52cea0cb0217058aea94e1cd346a7718a29a52f5a"}, {"sequence": 4294967294, "scriptSig": {"hex": "473044022016b7e42e96ab01837b4a56e1cf2c61a9b4178415655bc55c1928d369d5e6d3c002202bcd3d2f693b59206081695a6ec6f6c5c0b5230765da6a318d003f4fa54d21870121029710134e9a14a93ed264a0d226837af120c981b4e835ab33109bdba281848425", "asm": "3044022016b7e42e96ab01837b4a56e1cf2c61a9b4178415655bc55c1928d369d5e6d3c002202bcd3d2f693b59206081695a6ec6f6c5c0b5230765da6a318d003f4fa54d2187[ALL] 029710134e9a14a93ed264a0d226837af120c981b4e835ab33109bdba281848425"}, "vout": 1, "txid": "fd6f982e5c7fb28b5797f376fa60b181def4062fa9ffa2d8b8e8b3fc9080295e"}], "txid": "6038be4fb58aa9ca364710bf3b52a2663ae91487a778c5b4ccf73fb4d62e3570", "blocktime": 1537869901, "version": 1, "confirmations": 11524, "time": 1537869901, "locktime": 542987, "vsize": 1289, "size": 1289}