{"hash": "60390d33a0367024ae57360754af134d8eca8602642aed179b10f2f8c9257968", "blockhash": "00000000000000000018f53835495a110e01622372bf6ae95dc86f2b0ab887b0", "vout": [{"scriptPubKey": {"reqSigs": 1, "hex": "76a9146d0ef70d45669ea557902ed1a65df8e6c51caa1988ac", "addresses": ["1AweahYy7aAYYb7i1jtgW884qxGMEDPLT5"], "asm": "OP_DUP OP_HASH160 6d0ef70d45669ea557902ed1a65df8e6c51caa19 OP_EQUALVERIFY OP_CHECKSIG", "type": "pubkeyhash"}, "value": 0.00026, "n": 0}, {"scriptPubKey": {"reqSigs": 1, "hex": "76a914e6456661e37c75dc8f31b9b59de3b6a3813649a888ac", "addresses": ["1MzZZ7YHegi1f4P64wwzLtTDgmMYwdtCq3"], "asm": "OP_DUP OP_HASH160 e6456661e37c75dc8f31b9b59de3b6a3813649a8 OP_EQUALVERIFY OP_CHECKSIG", "type": "pubkeyhash"}, "value": 4.91509768, "n": 1}], "hex": "0100000001e6122c7f9db7727c1d605c9904e68e4060ebd0fab8549257eaa24aa25c8146d5010000006b483045022100b5c51384d7784d906eb0cbea63f082ad43abf28cf9d3f8254d56c00233b67e8502205abdddb704cab12cc5ec13ed8d8ff653137e052ae480dd256bccac8c6c885384012103ba749813b9769419f4217a8a06afd8bf1e7449c2a7701a284d56250ffebcb28affffffff0290650000000000001976a9146d0ef70d45669ea557902ed1a65df8e6c51caa1988ac08d84b1d000000001976a914e6456661e37c75dc8f31b9b59de3b6a3813649a888ac00000000", "vin": [{"sequence": 4294967295, "scriptSig": {"hex": "483045022100b5c51384d7784d906eb0cbea63f082ad43abf28cf9d3f8254d56c00233b67e8502205abdddb704cab12cc5ec13ed8d8ff653137e052ae480dd256bccac8c6c885384012103ba749813b9769419f4217a8a06afd8bf1e7449c2a7701a284d56250ffebcb28a", "asm": "3045022100b5c51384d7784d906eb0cbea63f082ad43abf28cf9d3f8254d56c00233b67e8502205abdddb704cab12cc5ec13ed8d8ff653137e052ae480dd256bccac8c6c885384[ALL] 03ba749813b9769419f4217a8a06afd8bf1e7449c2a7701a284d56250ffebcb28a"}, "vout": 1, "txid": "d546815ca24aa2ea579254b8fad0eb60408ee604995c601d7c72b79d7f2c12e6"}], "txid": "60390d33a0367024ae57360754af134d8eca8602642aed179b10f2f8c9257968", "blocktime": 1537870928, "version": 1, "confirmations": 11514, "time": 1537870928, "locktime": 0, "vsize": 226, "size": 226}