{"hash": "98c9ce120e781e52ab2a0a308296288acc4f9574249019886aa1b54cce1a69cc", "blockhash": "000000000000000000022b45ed06c6f4ccd3cf7fb5ba4856ebd2e58215665228", "vout": [{"scriptPubKey": {"reqSigs": 1, "hex": "76a91433d6eb9587018a07104b14866f128bcb2bee12b088ac", "addresses": ["15j6vhqikJEXQxjCurR6eB6azEUpovGAEm"], "asm": "OP_DUP OP_HASH160 33d6eb9587018a07104b14866f128bcb2bee12b0 OP_EQUALVERIFY OP_CHECKSIG", "type": "pubkeyhash"}, "value": 10.0, "n": 0}, {"scriptPubKey": {"reqSigs": 1, "hex": "a9145b25df2cd1eb128920412628610e7598ead0fb0987", "addresses": ["39zxnNrNxc8Yo3J2bghtNzhNCkfxZtBrzw"], "asm": "OP_HASH160 5b25df2cd1eb128920412628610e7598ead0fb09 OP_EQUAL", "type": "scripthash"}, "value": 3.27141289, "n": 1}], "hex": "0100000000010529e1393988d30259ff13e0942b71a12b684c76f5825246b1e3863bb0e3a354ec01000000171600144e77b2f9649854588da2f2643f17bcf86974a174ffffff002c01c62b7bd0d1e0e74fb3c4c6af1708bc2b936044187f06a8ac4248e97a81940000000017160014163aaeff0ab11b9b4feafe49bcce5dad1a587247ffffff000f5ee2a86e5195d95eface6176ecd9cbcbfce4abd98e906ecfe9ccd9f503af560000000017160014a24952d4a28c04a0056e2a14cb5877135ee4821fffffff00939ed50be8791599340027c025d5500040f3c5f26326f2b52e909338d719e6430100000017160014a24952d4a28c04a0056e2a14cb5877135ee4821fffffff00c040a374e09db84342924b04055556e37005c3f31d2d6da2fdd85d4b6939c9050100000017160014dfa0fdd84704d99f570aef21608a2c05a59c398dffffff000200ca9a3b000000001976a91433d6eb9587018a07104b14866f128bcb2bee12b088aca9c77f130000000017a9145b25df2cd1eb128920412628610e7598ead0fb09870248304502210094d8bb23f5b2b7b2fdc94682584c715ffb2d379d23e328c3953e161c1bb35aac022040784b2044f07e28e9db09ee82c95db4d8454e8d9fbfb9d0882bc75ccb0f646e012102e291e21cc99a93999da44e16230dfa6fb9a355e458d2ae696ddc6c9630aba0b102483045022100b73f03fa4c952611730a36dd4061fab880ff7600e5eaf7c3ebf45c2da4bfe05c022046492896b095281e0566c0f7428ceb1ee51e749f76f1590a16b6fe6d89c8f9790121022394f968e3da1f230a482e06c929014a3c3d813f2dfd64a8b716733cc459009302483045022100b1b7dc38de70961deff82ec07f39928c0155ba444f455992406891a789501b0002205de82bd74e3106a7cc40955c14bd5e51ee74c675e06f474a9604e3e4a29fbaed01210318202a904347f5bb64415fff342813726d7b9b1612597c184cdd47e63b27e65a02473044022075515454103a8c4e7513b0ca2409266a22e2f49cfb7a79edd9038e873d4e05af02206f4f23d7bc731b6c6969c2e387da22242adc181fd2e8f5580694a0d98c81250001210318202a904347f5bb64415fff342813726d7b9b1612597c184cdd47e63b27e65a02473044022016337786354073de4d0ef1cabc0055a57822382c9575815871350893ff51793902200de2ec9c946438b6964ade32e4a1c54a1ac01d37a83bb90e20a65788fefa5384012102e1aaaefe49de1b399e22f0615c993d9d2ab0fdd67c21c023adc40725a14ae1b400000000", "vin": [{"txinwitness": ["304502210094d8bb23f5b2b7b2fdc94682584c715ffb2d379d23e328c3953e161c1bb35aac022040784b2044f07e28e9db09ee82c95db4d8454e8d9fbfb9d0882bc75ccb0f646e01", "02e291e21cc99a93999da44e16230dfa6fb9a355e458d2ae696ddc6c9630aba0b1"], "sequence": 16777215, "scriptSig": {"hex": "1600144e77b2f9649854588da2f2643f17bcf86974a174", "asm": "00144e77b2f9649854588da2f2643f17bcf86974a174"}, "vout": 1, "txid": "ec54a3e3b03b86e3b1465282f5764c682ba1712b94e013ff5902d3883939e129"}, {"txinwitness": ["3045022100b73f03fa4c952611730a36dd4061fab880ff7600e5eaf7c3ebf45c2da4bfe05c022046492896b095281e0566c0f7428ceb1ee51e749f76f1590a16b6fe6d89c8f97901", "022394f968e3da1f230a482e06c929014a3c3d813f2dfd64a8b716733cc4590093"], "sequence": 16777215, "scriptSig": {"hex": "160014163aaeff0ab11b9b4feafe49bcce5dad1a587247", "asm": "0014163aaeff0ab11b9b4feafe49bcce5dad1a587247"}, "vout": 0, "txid": "94817ae94842aca8067f184460932bbc0817afc6c4b34fe7e0d1d07b2bc6012c"}, {"txinwitness": ["3045022100b1b7dc38de70961deff82ec07f39928c0155ba444f455992406891a789501b0002205de82bd74e3106a7cc40955c14bd5e51ee74c675e06f474a9604e3e4a29fbaed01", "0318202a904347f5bb64415fff342813726d7b9b1612597c184cdd47e63b27e65a"], "sequence": 16777215, "scriptSig": {"hex": "160014a24952d4a28c04a0056e2a14cb5877135ee4821f", "asm": "0014a24952d4a28c04a0056e2a14cb5877135ee4821f"}, "vout": 0, "txid": "56af03f5d9cce9cf6e908ed9abe4fccbcbd9ec7661cefa5ed995516ea8e25e0f"}, {"txinwitness": ["3044022075515454103a8c4e7513b0ca2409266a22e2f49cfb7a79edd9038e873d4e05af02206f4f23d7bc731b6c6969c2e387da22242adc181fd2e8f5580694a0d98c81250001", "0318202a904347f5bb64415fff342813726d7b9b1612597c184cdd47e63b27e65a"], "sequence": 16777215, "scriptSig": {"hex": "160014a24952d4a28c04a0056e2a14cb5877135ee4821f", "asm": "0014a24952d4a28c04a0056e2a14cb5877135ee4821f"}, "vout": 1, "txid": "43e619d73893902eb5f22663f2c5f3400050d525c0270034991579e80bd59e93"}, {"txinwitness": ["3044022016337786354073de4d0ef1cabc0055a57822382c9575815871350893ff51793902200de2ec9c946438b6964ade32e4a1c54a1ac01d37a83bb90e20a65788fefa538401", "02e1aaaefe49de1b399e22f0615c993d9d2ab0fdd67c21c023adc40725a14ae1b4"], "sequence": 16777215, "scriptSig": {"hex": "160014dfa0fdd84704d99f570aef21608a2c05a59c398d", "asm": "0014dfa0fdd84704d99f570aef21608a2c05a59c398d"}, "vout": 1, "txid": "05c939694b5dd8fda26d2d1df3c30570e3565505044b924243b89de074a340c0"}], "txid": "603debb9c8a62a3da52d9e18d571a34b616c163151741216dc17863eee271e55", "blocktime": 1537869901, "version": 1, "confirmations": 11522, "time": 1537869901, "locktime": 0, "vsize": 531, "size": 936}