{"hash": "c8f31e283bfdee204711fa8e723132990524fb8e534422a5c47619757359d984", "blockhash": "0000000000000000000dcc0f55137456b1a82d3642486a52398922ac4d620174", "vout": [{"scriptPubKey": {"reqSigs": 1, "hex": "76a914295028d86c7c4059166368e7b548a2a7fbc4aa1088ac", "addresses": ["14mSjT1Nf5MwkmvsjzGfR2zFmzY5wxpHZM"], "asm": "OP_DUP OP_HASH160 295028d86c7c4059166368e7b548a2a7fbc4aa10 OP_EQUALVERIFY OP_CHECKSIG", "type": "pubkeyhash"}, "value": 0.00010551, "n": 0}, {"scriptPubKey": {"reqSigs": 1, "hex": "a9140be7846be16b05bea00dbec2fcd7e045a793cb1787", "addresses": ["32mxhko5mJHfkbkDPpz7SfdJwEJi21P1WK"], "asm": "OP_HASH160 0be7846be16b05bea00dbec2fcd7e045a793cb17 OP_EQUAL", "type": "scripthash"}, "value": 0.20442052, "n": 1}], "hex": "0100000000010191b1aa8b7627aa05760933b92b12823242cf8c9dc3215e05c2d347c1c49fbdc401000000232200202c66ece6da72bcbfeadf83a91236f4891c13e14d8ecebdcaa81666fc1aa73a31ffffffff0237290000000000001976a914295028d86c7c4059166368e7b548a2a7fbc4aa1088acc4eb37010000000017a9140be7846be16b05bea00dbec2fcd7e045a793cb17870400483045022100985d783a950848dc4253b818e6012678ba6fb50b8ae2ad9554b5bd9724ef872b02207f99d064a2cff0e29adb163caf957e5da36fef4db760bd9210aa4fb2c2fb805601483045022100926023441e0a455c181c02720ef26fc34d4c8ecd980e3886caa93fa3871cb60c0220725c7f6ff4e0ad95b0219903fcc479391294e6e4302daa9a65af374e8d44a25301475221029e6fbb942d34a473faaa5557c1bfe08d72102f0b9754ad140fd369d7a3ba3cdc2103871fc2ca08e6950b38867e8e6a0e94ee625223d3aa0df5c65f414c6d784467e252ae00000000", "vin": [{"txinwitness": ["", "3045022100985d783a950848dc4253b818e6012678ba6fb50b8ae2ad9554b5bd9724ef872b02207f99d064a2cff0e29adb163caf957e5da36fef4db760bd9210aa4fb2c2fb805601", "3045022100926023441e0a455c181c02720ef26fc34d4c8ecd980e3886caa93fa3871cb60c0220725c7f6ff4e0ad95b0219903fcc479391294e6e4302daa9a65af374e8d44a25301", "5221029e6fbb942d34a473faaa5557c1bfe08d72102f0b9754ad140fd369d7a3ba3cdc2103871fc2ca08e6950b38867e8e6a0e94ee625223d3aa0df5c65f414c6d784467e252ae"], "sequence": 4294967295, "scriptSig": {"hex": "2200202c66ece6da72bcbfeadf83a91236f4891c13e14d8ecebdcaa81666fc1aa73a31", "asm": "00202c66ece6da72bcbfeadf83a91236f4891c13e14d8ecebdcaa81666fc1aa73a31"}, "vout": 1, "txid": "c4bd9fc4c147d3c2055e21c39d8ccf423282122bb933097605aa27768baab191"}], "txid": "60412527419d15beda217239801ec7a7641de1e06b78c4f2e58c0427620c95a7", "blocktime": 1537870268, "version": 1, "confirmations": 11518, "time": 1537870268, "locktime": 0, "vsize": 208, "size": 374}