{"hash": "604343dc2d5883a27dc3b96cb5fc01532d39bf821f551b7e83e4d65c339e62dc", "blockhash": "0000000000000000001f76057863aec43deb6fa401d9628bb513d65a8098bfab", "vout": [{"scriptPubKey": {"reqSigs": 1, "hex": "76a914da5f464cc5c8430d6bbea10f77ae6b42e838e3eb88ac", "addresses": ["1LueScfaDjHJYn4tvE9tXrMq2325w74p6E"], "asm": "OP_DUP OP_HASH160 da5f464cc5c8430d6bbea10f77ae6b42e838e3eb OP_EQUALVERIFY OP_CHECKSIG", "type": "pubkeyhash"}, "value": 0.00137429, "n": 0}, {"scriptPubKey": {"reqSigs": 1, "hex": "76a9146b39342b2933b20c1697843af115afe6c821d57d88ac", "addresses": ["1Amwq7duEPg1sKnLxXYnUzjdPpK6xDEG4x"], "asm": "OP_DUP OP_HASH160 6b39342b2933b20c1697843af115afe6c821d57d OP_EQUALVERIFY OP_CHECKSIG", "type": "pubkeyhash"}, "value": 0.002349, "n": 1}], "hex": "0100000001b56440f7bc7e910a1e85660971ee815f9106a6e8d9abc17f0a6945500c436e38000000006b483045022100e106403ed94c4464e2e5cbd1c6543a8cf5c47304017a71ca4ca4cb8f406778b8022042c468df5656491fe4edf368de6b5fcbc46efd0701fb046393b048c4d1f027bb012103a364246bd48596fe160e0d19f4f4f074a5c94a7db8c342c73bfaab35d99d61bbffffffff02d5180200000000001976a914da5f464cc5c8430d6bbea10f77ae6b42e838e3eb88ac94950300000000001976a9146b39342b2933b20c1697843af115afe6c821d57d88ac00000000", "vin": [{"sequence": 4294967295, "scriptSig": {"hex": "483045022100e106403ed94c4464e2e5cbd1c6543a8cf5c47304017a71ca4ca4cb8f406778b8022042c468df5656491fe4edf368de6b5fcbc46efd0701fb046393b048c4d1f027bb012103a364246bd48596fe160e0d19f4f4f074a5c94a7db8c342c73bfaab35d99d61bb", "asm": "3045022100e106403ed94c4464e2e5cbd1c6543a8cf5c47304017a71ca4ca4cb8f406778b8022042c468df5656491fe4edf368de6b5fcbc46efd0701fb046393b048c4d1f027bb[ALL] 03a364246bd48596fe160e0d19f4f4f074a5c94a7db8c342c73bfaab35d99d61bb"}, "vout": 0, "txid": "386e430c5045690a7fc1abd9e8a606915f81ee710966851e0a917ebcf74064b5"}], "txid": "604343dc2d5883a27dc3b96cb5fc01532d39bf821f551b7e83e4d65c339e62dc", "blocktime": 1537873891, "version": 1, "confirmations": 11478, "time": 1537873891, "locktime": 0, "vsize": 226, "size": 226}