{"hash": "604bca75665174c1ee34d7e7d29f22f343d54580ba083874b2c443fd09b597ac", "blockhash": "0000000000000000001f0ddff1eddb255c1121bcd4da4f1bc9a0da00cae72433", "vout": [{"scriptPubKey": {"reqSigs": 1, "hex": "76a9144f1129e9ba484bf9fec4586214dd3c102da865a488ac", "addresses": ["18D4wiEfoXgF66ZKdWnyQnrd8fCZh2Dp7z"], "asm": "OP_DUP OP_HASH160 4f1129e9ba484bf9fec4586214dd3c102da865a4 OP_EQUALVERIFY OP_CHECKSIG", "type": "pubkeyhash"}, "value": 0.00989275, "n": 0}, {"scriptPubKey": {"reqSigs": 1, "hex": "a9148e4857c57fa7b0408878f9cae8a958a7b033c94a87", "addresses": ["3EfLYFf6iH6vzRD8nEzEHqfJcvHYE1BcF1"], "asm": "OP_HASH160 8e4857c57fa7b0408878f9cae8a958a7b033c94a OP_EQUAL", "type": "scripthash"}, "value": 0.04076512, "n": 1}], "hex": "0200000002d4d836c45bfaf4c890f3623f4c241a56b7ede5ce3a06d89e28f17d0a9f96bb20010000006b483045022100a2c6355131c3913201e401547143dc20c52b2bb4326487b1ff3e4ba968970fca0220009ab4651c77b6b32fc3898d3c7d62f12d1f807696534f53f23e545da5697f84012103e6a528f17ec045ae2079708b701bfcf6c3e159d5267ab6bb150a85a02c534b1afeffffffca4b5a193c1fbd3420f4e19a0ef613897da2457af5620639c3e75a3a00f962f1000000006a47304402207150fd163129b1e5d94f94b10d218303a8d19ef8ace9b035cdb7c1ed145f3f8002200d28e6d7783f3b49e06a4ca15519a7d3d8b41aa70484eb3b1e084f9210af845a01210299e32eea5636dfdc6f08e75465ebc4258444f8acaae42e3eacb129f242d3f593feffffff025b180f00000000001976a9144f1129e9ba484bf9fec4586214dd3c102da865a488ace0333e000000000017a9148e4857c57fa7b0408878f9cae8a958a7b033c94a8711490800", "vin": [{"sequence": 4294967294, "scriptSig": {"hex": "483045022100a2c6355131c3913201e401547143dc20c52b2bb4326487b1ff3e4ba968970fca0220009ab4651c77b6b32fc3898d3c7d62f12d1f807696534f53f23e545da5697f84012103e6a528f17ec045ae2079708b701bfcf6c3e159d5267ab6bb150a85a02c534b1a", "asm": "3045022100a2c6355131c3913201e401547143dc20c52b2bb4326487b1ff3e4ba968970fca0220009ab4651c77b6b32fc3898d3c7d62f12d1f807696534f53f23e545da5697f84[ALL] 03e6a528f17ec045ae2079708b701bfcf6c3e159d5267ab6bb150a85a02c534b1a"}, "vout": 1, "txid": "20bb969f0a7df1289ed8063acee5edb7561a244c3f62f390c8f4fa5bc436d8d4"}, {"sequence": 4294967294, "scriptSig": {"hex": "47304402207150fd163129b1e5d94f94b10d218303a8d19ef8ace9b035cdb7c1ed145f3f8002200d28e6d7783f3b49e06a4ca15519a7d3d8b41aa70484eb3b1e084f9210af845a01210299e32eea5636dfdc6f08e75465ebc4258444f8acaae42e3eacb129f242d3f593", "asm": "304402207150fd163129b1e5d94f94b10d218303a8d19ef8ace9b035cdb7c1ed145f3f8002200d28e6d7783f3b49e06a4ca15519a7d3d8b41aa70484eb3b1e084f9210af845a[ALL] 0299e32eea5636dfdc6f08e75465ebc4258444f8acaae42e3eacb129f242d3f593"}, "vout": 0, "txid": "f162f9003a5ae7c3390662f57a45a27d8913f60e9ae1f42034bd1f3c195a4bca"}], "txid": "604bca75665174c1ee34d7e7d29f22f343d54580ba083874b2c443fd09b597ac", "blocktime": 1537872018, "version": 2, "confirmations": 11489, "time": 1537872018, "locktime": 542993, "vsize": 371, "size": 371}