{"hash": "c38b067694aa1fcc90375888e9b488eee12509851aa732d2a4ca67cad843640f", "blockhash": "00000000000000000018f53835495a110e01622372bf6ae95dc86f2b0ab887b0", "vout": [{"scriptPubKey": {"reqSigs": 1, "hex": "a91429a0a904de4598f98e843ac4a5d004d5bd1e05cd87", "addresses": ["35V86H39UdzMqvQnJzX3Bb8umgTmPmbzuv"], "asm": "OP_HASH160 29a0a904de4598f98e843ac4a5d004d5bd1e05cd OP_EQUAL", "type": "scripthash"}, "value": 0.01007669, "n": 0}, {"scriptPubKey": {"reqSigs": 1, "hex": "76a9147763a63b083945f9a722cdc5121161c48107229088ac", "addresses": ["1BtGnawhBVpyBgLWJSSVqjzPMMgirpnARj"], "asm": "OP_DUP OP_HASH160 7763a63b083945f9a722cdc5121161c481072290 OP_EQUALVERIFY OP_CHECKSIG", "type": "pubkeyhash"}, "value": 0.0024686, "n": 1}], "hex": "0200000000010203fa8b00432ee7bf444049466d66e191bbbfeee987e9e6429397cc963306c8d91400000017160014eedcb94efd5c2b6169f45f7640f9cc701a798323feffffff3b3a07dc72770508f8780494ab9fe89834d27fc9904471b7efff5613184f48470000000017160014359d333f269bae9b9e49f83c59cab53115750ce3feffffff0235600f000000000017a91429a0a904de4598f98e843ac4a5d004d5bd1e05cd874cc40300000000001976a9147763a63b083945f9a722cdc5121161c48107229088ac02483045022100b6e5e7742a7310cc16c7a48334277851ea5be03e43e579c763f84de3109d5d7d02205314762b4bce31fa799556dcc22d90a3bf73afa4668cbe12025bd314897719d80121032bc7d39b2eba8d15cd79c6e4c8e59c1bce8e3e2eaae41ca7b0cc392aab4a0461024730440220714fe61a59f5198287bc049f3c510064ab09736f0f7a9886752f88b9d573044a022043831c0e76c5e868a4752875cf0470970cedec46e804a0aeaf0478fbea0ac78a012102669f48a7387eb153359395c1ebc21d78c7a6756daf8934ecc7467d924a90b2ee0e490800", "vin": [{"txinwitness": ["3045022100b6e5e7742a7310cc16c7a48334277851ea5be03e43e579c763f84de3109d5d7d02205314762b4bce31fa799556dcc22d90a3bf73afa4668cbe12025bd314897719d801", "032bc7d39b2eba8d15cd79c6e4c8e59c1bce8e3e2eaae41ca7b0cc392aab4a0461"], "sequence": 4294967294, "scriptSig": {"hex": "160014eedcb94efd5c2b6169f45f7640f9cc701a798323", "asm": "0014eedcb94efd5c2b6169f45f7640f9cc701a798323"}, "vout": 20, "txid": "d9c8063396cc979342e6e987e9eebfbb91e1666d46494044bfe72e43008bfa03"}, {"txinwitness": ["30440220714fe61a59f5198287bc049f3c510064ab09736f0f7a9886752f88b9d573044a022043831c0e76c5e868a4752875cf0470970cedec46e804a0aeaf0478fbea0ac78a01", "02669f48a7387eb153359395c1ebc21d78c7a6756daf8934ecc7467d924a90b2ee"], "sequence": 4294967294, "scriptSig": {"hex": "160014359d333f269bae9b9e49f83c59cab53115750ce3", "asm": "0014359d333f269bae9b9e49f83c59cab53115750ce3"}, "vout": 0, "txid": "47484f181356ffefb7714490c97fd23498e89fab940478f808057772dc073a3b"}], "txid": "6050877f6deb486daa6c400d79d5f92a1146e05cb84f64d3c0d90391fcc9849a", "blocktime": 1537870928, "version": 2, "confirmations": 11514, "time": 1537870928, "locktime": 542990, "vsize": 259, "size": 421}