{"hash": "f87d4555f27a2487c535981626c4278a27be73be0394889dc60cca8a782768dc", "blockhash": "0000000000000000000e13cef7c366c0283d82e591d1acd082e914b08063cdf1", "vout": [{"scriptPubKey": {"reqSigs": 1, "hex": "0014e94c107bd877aec6aed8a7f84458d12744c125a8", "addresses": ["bc1qa9xpq77cw7hvdtkc5luygkx3yazvzfdg3vs8xv"], "asm": "0 e94c107bd877aec6aed8a7f84458d12744c125a8", "type": "witness_v0_keyhash"}, "value": 0.00081659, "n": 0}, {"scriptPubKey": {"reqSigs": 1, "hex": "a9148d0fccce1d310b0f5b892e5660d71fad8b446bd887", "addresses": ["3EYt8Px22sXF8GDhsktQC52XhB12rnvBbc"], "asm": "OP_HASH160 8d0fccce1d310b0f5b892e5660d71fad8b446bd8 OP_EQUAL", "type": "scripthash"}, "value": 0.0321776, "n": 1}], "hex": "01000000000101800d584717c44ea246b4156b6046ff3da6839935f4c2d3b995d5b36f4557880a010000001716001476c6ebda11e3e41132555cd991953651c7770baeffffffff02fb3e010000000000160014e94c107bd877aec6aed8a7f84458d12744c125a8601931000000000017a9148d0fccce1d310b0f5b892e5660d71fad8b446bd88702483045022100f441e8b1913e0602c84f8f2895a4a34e17a1cf654620cb4456a2e109a2c74dd9022035f6436c841499fcecdd61da7a1e4727315fc07e81a331290a54da3a4ef1b09f0121028410b4ca12fb580afe2ca48f2749645d63b3bea904436bd80c2ebea2ad18ddb800000000", "vin": [{"txinwitness": ["3045022100f441e8b1913e0602c84f8f2895a4a34e17a1cf654620cb4456a2e109a2c74dd9022035f6436c841499fcecdd61da7a1e4727315fc07e81a331290a54da3a4ef1b09f01", "028410b4ca12fb580afe2ca48f2749645d63b3bea904436bd80c2ebea2ad18ddb8"], "sequence": 4294967295, "scriptSig": {"hex": "16001476c6ebda11e3e41132555cd991953651c7770bae", "asm": "001476c6ebda11e3e41132555cd991953651c7770bae"}, "vout": 1, "txid": "0a8857456fb3d595b9d3c2f4359983a63dff46606b15b446a24ec41747580d80"}], "txid": "605561bfe8fb64ba28c70a63a5095bb682350fdd620f0d0ec66eb25df9e15889", "blocktime": 1537871767, "version": 1, "confirmations": 11495, "time": 1537871767, "locktime": 0, "vsize": 165, "size": 247}