{"hash": "6058a05ada075eab070f266e886869d94a6f0631e1ed605c031b8ce0b5223b39", "blockhash": "0000000000000000001cda96e906b7601b7a6fb1a3b62bca570a9e5d8f4b3de1", "vout": [{"scriptPubKey": {"reqSigs": 1, "hex": "76a9144cde1fc1c77301d525bf822bc8d7c1f8aa73be1a88ac", "addresses": ["181ST2fbG2dMjju5539mtsNoPhH15X4gDa"], "asm": "OP_DUP OP_HASH160 4cde1fc1c77301d525bf822bc8d7c1f8aa73be1a OP_EQUALVERIFY OP_CHECKSIG", "type": "pubkeyhash"}, "value": 0.00221055, "n": 0}, {"scriptPubKey": {"reqSigs": 1, "hex": "76a914badff4ea3ad709caa3692bb20ab0be5beb2e643a88ac", "addresses": ["1J36yTxH5pniYeCWHx5h8j837Phi9smcAj"], "asm": "OP_DUP OP_HASH160 badff4ea3ad709caa3692bb20ab0be5beb2e643a OP_EQUALVERIFY OP_CHECKSIG", "type": "pubkeyhash"}, "value": 0.16201722, "n": 1}], "hex": "0100000001fcc8b21db402e7249b5affb2237dc0395f8126d6ce57e8afbf74bb07f233866b010000006a47304402203a7c1211e63754763c2fda61f22d7fe2deaefa96a93328c2fd7bf7605a61438602201d802d0004a22c46c41416828a53c2fbc63af60f0d1f723a78b505d211e78416012103b79e4f18f6023ba1bd5d96b0a010536d25179c171bbc218b66eb9135fb5e3178fdffffff027f5f0300000000001976a9144cde1fc1c77301d525bf822bc8d7c1f8aa73be1a88acfa37f700000000001976a914badff4ea3ad709caa3692bb20ab0be5beb2e643a88ac13490800", "vin": [{"sequence": 4294967293, "scriptSig": {"hex": "47304402203a7c1211e63754763c2fda61f22d7fe2deaefa96a93328c2fd7bf7605a61438602201d802d0004a22c46c41416828a53c2fbc63af60f0d1f723a78b505d211e78416012103b79e4f18f6023ba1bd5d96b0a010536d25179c171bbc218b66eb9135fb5e3178", "asm": "304402203a7c1211e63754763c2fda61f22d7fe2deaefa96a93328c2fd7bf7605a61438602201d802d0004a22c46c41416828a53c2fbc63af60f0d1f723a78b505d211e78416[ALL] 03b79e4f18f6023ba1bd5d96b0a010536d25179c171bbc218b66eb9135fb5e3178"}, "vout": 1, "txid": "6b8633f207bb74bfafe857ced626815f39c07d23b2ff5a9b24e702b41db2c8fc"}], "txid": "6058a05ada075eab070f266e886869d94a6f0631e1ed605c031b8ce0b5223b39", "blocktime": 1537873282, "version": 1, "confirmations": 11484, "time": 1537873282, "locktime": 542995, "vsize": 225, "size": 225}