{"hash": "114cdda82a2d8c0090cf3500bf57fad394c5ddca0d791525fa1c30ff1686932d", "blockhash": "00000000000000000018f53835495a110e01622372bf6ae95dc86f2b0ab887b0", "vout": [{"scriptPubKey": {"reqSigs": 1, "hex": "001415717bbaa50bd977ef3a0d609df28a4980abf95f", "addresses": ["bc1qz4chhw49p0vh0me6p4sfmu52fxq2h72l7pkdgd"], "asm": "0 15717bbaa50bd977ef3a0d609df28a4980abf95f", "type": "witness_v0_keyhash"}, "value": 3.168e-05, "n": 0}, {"scriptPubKey": {"reqSigs": 1, "hex": "a91498746c9f82824648c2c9635ee7cf3ae15bfc7a0787", "addresses": ["3Fb871EKfnHiamCDqmMirEC2KiaX2cUmvZ"], "asm": "OP_HASH160 98746c9f82824648c2c9635ee7cf3ae15bfc7a07 OP_EQUAL", "type": "scripthash"}, "value": 0.003024, "n": 1}], "hex": "0100000000010124bf986554dd3c04f27294082b42aaf7b6fc1c32d18a90f20c79afcf03acc9720000000000ffffffff02600c00000000000016001415717bbaa50bd977ef3a0d609df28a4980abf95f409d04000000000017a91498746c9f82824648c2c9635ee7cf3ae15bfc7a078702483045022100d7f1544b2c5e31aa86115f379540163464b34d9f03ad1f3153b089cd80f57a730220253ff22b4bf8a7cdedd01c621ccc928d9757495983062365003530732f80b9450121031dc91cbe77549e63949e07ea2714968de4331aecb1623e36efe071964fce45a600000000", "vin": [{"txinwitness": ["3045022100d7f1544b2c5e31aa86115f379540163464b34d9f03ad1f3153b089cd80f57a730220253ff22b4bf8a7cdedd01c621ccc928d9757495983062365003530732f80b94501", "031dc91cbe77549e63949e07ea2714968de4331aecb1623e36efe071964fce45a6"], "sequence": 4294967295, "scriptSig": {"hex": "", "asm": ""}, "vout": 0, "txid": "72c9ac03cfaf790cf2908ad1321cfcb6f7aa422b089472f2043cdd546598bf24"}], "txid": "605abf2dc0ca483eb13bd3782ef0ffc39960f5256f96edbff172ad74eec19692", "blocktime": 1537870928, "version": 1, "confirmations": 11513, "time": 1537870928, "locktime": 0, "vsize": 142, "size": 224}