{"hash": "605b5216e0d998ed959845da7dade1bd7d916fa91eeec6285999463ec2669661", "blockhash": "0000000000000000001f76057863aec43deb6fa401d9628bb513d65a8098bfab", "vout": [{"scriptPubKey": {"reqSigs": 1, "hex": "76a914b63b06d85deb67dbb927cba59be291cd0d3e349888ac", "addresses": ["1HcYhASsFVa3hjnJRK3dfsLzGYVdCJWf3P"], "asm": "OP_DUP OP_HASH160 b63b06d85deb67dbb927cba59be291cd0d3e3498 OP_EQUALVERIFY OP_CHECKSIG", "type": "pubkeyhash"}, "value": 0.00019982, "n": 0}, {"scriptPubKey": {"reqSigs": 1, "hex": "76a914d763a362384ba5ce56a403afb6e90fe49e41d53088ac", "addresses": ["1LdseEErrVtF9ZP3tfkxRoE65fFRvCanNc"], "asm": "OP_DUP OP_HASH160 d763a362384ba5ce56a403afb6e90fe49e41d530 OP_EQUALVERIFY OP_CHECKSIG", "type": "pubkeyhash"}, "value": 0.007, "n": 1}], "hex": "010000000296bf03d639727268efe1d4294aef4dab5dcc724fc1504ab9ac2d57fd894b6b1c000000006a47304402202af6589bc6e6da4695f9413adcc8bc9ca7ef2c75da3835171aaa0fab460ca82802207e4ba362ce0a593c0c9e8c6260970ac99079dc6925acc51a0abc3cde85a50f17012102ef84d8bab51d5af33f227beb6a6982bea3c45fe733c87069a4d5fb34093e125effffffff0b8292d5e0cdfb18f308ac22a37b52421b33fbbe09c2a86b83f7f1bc24673650000000006b4830450221008f5951349f161126068531b5ff2ef71763a68a6f0843eb4cf18cc7d6e03fc17002205567a498abf2444b574c445d8ae22ba5b9b4ba001312d83427070d6df9849ad5012103df9e4988af0ca28e9e8f2356c0ad2d29e6cf3939fe9febc11738463a439a5a7dffffffff020e4e0000000000001976a914b63b06d85deb67dbb927cba59be291cd0d3e349888ac60ae0a00000000001976a914d763a362384ba5ce56a403afb6e90fe49e41d53088ac00000000", "vin": [{"sequence": 4294967295, "scriptSig": {"hex": "47304402202af6589bc6e6da4695f9413adcc8bc9ca7ef2c75da3835171aaa0fab460ca82802207e4ba362ce0a593c0c9e8c6260970ac99079dc6925acc51a0abc3cde85a50f17012102ef84d8bab51d5af33f227beb6a6982bea3c45fe733c87069a4d5fb34093e125e", "asm": "304402202af6589bc6e6da4695f9413adcc8bc9ca7ef2c75da3835171aaa0fab460ca82802207e4ba362ce0a593c0c9e8c6260970ac99079dc6925acc51a0abc3cde85a50f17[ALL] 02ef84d8bab51d5af33f227beb6a6982bea3c45fe733c87069a4d5fb34093e125e"}, "vout": 0, "txid": "1c6b4b89fd572dacb94a50c14f72cc5dab4def4a29d4e1ef68727239d603bf96"}, {"sequence": 4294967295, "scriptSig": {"hex": "4830450221008f5951349f161126068531b5ff2ef71763a68a6f0843eb4cf18cc7d6e03fc17002205567a498abf2444b574c445d8ae22ba5b9b4ba001312d83427070d6df9849ad5012103df9e4988af0ca28e9e8f2356c0ad2d29e6cf3939fe9febc11738463a439a5a7d", "asm": "30450221008f5951349f161126068531b5ff2ef71763a68a6f0843eb4cf18cc7d6e03fc17002205567a498abf2444b574c445d8ae22ba5b9b4ba001312d83427070d6df9849ad5[ALL] 03df9e4988af0ca28e9e8f2356c0ad2d29e6cf3939fe9febc11738463a439a5a7d"}, "vout": 0, "txid": "50366724bcf1f7836ba8c209befb331b42527ba322ac08f318fbcde0d592820b"}], "txid": "605b5216e0d998ed959845da7dade1bd7d916fa91eeec6285999463ec2669661", "blocktime": 1537873891, "version": 1, "confirmations": 11478, "time": 1537873891, "locktime": 0, "vsize": 373, "size": 373}