{"hash": "605fc6745711d1973b23c1e3e0a7761381e4c7b97bca8593714d52aac7ba505f", "blockhash": "0000000000000000001cda96e906b7601b7a6fb1a3b62bca570a9e5d8f4b3de1", "vout": [{"scriptPubKey": {"reqSigs": 1, "hex": "a9144390b7af11c770ede1e0ecdc03e4685c9991292087", "addresses": ["37rGZYbiaJ138eyv781SBpcywhwgppCYJX"], "asm": "OP_HASH160 4390b7af11c770ede1e0ecdc03e4685c99912920 OP_EQUAL", "type": "scripthash"}, "value": 0.07369087, "n": 0}, {"scriptPubKey": {"reqSigs": 1, "hex": "76a9145c1c5ba6793dde2db32fbe1852095f6e90b232f388ac", "addresses": ["19Q38zrG6bZUwxVuiDkBmBU4QehLz1Lx9T"], "asm": "OP_DUP OP_HASH160 5c1c5ba6793dde2db32fbe1852095f6e90b232f3 OP_EQUALVERIFY OP_CHECKSIG", "type": "pubkeyhash"}, "value": 0.00192534, "n": 1}], "hex": "0100000001f289bed35def0ac4984d86e4caebdb89fb226f3ef7309d01e69457cc1ea40e8f00000000da0047304402200efd1a431dd4d719e008e0e1b8d9d35282181b81c1f14e313cf58871a438923e0220201a12c283f61d3cead90871dd426f6a445923c5ab887ed218c46d0a2c0ecf3e01483045022100e3766dc138432d41f09052dbe468d0a58a8c8a663f2f33b13ebb312167a51dc10220646177291b6a10c54890487afa5225e27a8688dd25ac847c1fdf99d247a412f50147522102907a54bed8ad74b3f35638c60114ca240a308cb986f3f2f306178869a8880b612103d4873cf7d8f45bd2c20e5cc105110ab8d27f595b9ed992054765f9b6b64da16752aeffffffff027f7170000000000017a9144390b7af11c770ede1e0ecdc03e4685c999129208716f00200000000001976a9145c1c5ba6793dde2db32fbe1852095f6e90b232f388ac00000000", "vin": [{"sequence": 4294967295, "scriptSig": {"hex": "0047304402200efd1a431dd4d719e008e0e1b8d9d35282181b81c1f14e313cf58871a438923e0220201a12c283f61d3cead90871dd426f6a445923c5ab887ed218c46d0a2c0ecf3e01483045022100e3766dc138432d41f09052dbe468d0a58a8c8a663f2f33b13ebb312167a51dc10220646177291b6a10c54890487afa5225e27a8688dd25ac847c1fdf99d247a412f50147522102907a54bed8ad74b3f35638c60114ca240a308cb986f3f2f306178869a8880b612103d4873cf7d8f45bd2c20e5cc105110ab8d27f595b9ed992054765f9b6b64da16752ae", "asm": "0 304402200efd1a431dd4d719e008e0e1b8d9d35282181b81c1f14e313cf58871a438923e0220201a12c283f61d3cead90871dd426f6a445923c5ab887ed218c46d0a2c0ecf3e[ALL] 3045022100e3766dc138432d41f09052dbe468d0a58a8c8a663f2f33b13ebb312167a51dc10220646177291b6a10c54890487afa5225e27a8688dd25ac847c1fdf99d247a412f5[ALL] 522102907a54bed8ad74b3f35638c60114ca240a308cb986f3f2f306178869a8880b612103d4873cf7d8f45bd2c20e5cc105110ab8d27f595b9ed992054765f9b6b64da16752ae"}, "vout": 0, "txid": "8f0ea41ecc5794e6019d30f73e6f22fb89dbebcae4864d98c40aef5dd3be89f2"}], "txid": "605fc6745711d1973b23c1e3e0a7761381e4c7b97bca8593714d52aac7ba505f", "blocktime": 1537873282, "version": 1, "confirmations": 11484, "time": 1537873282, "locktime": 0, "vsize": 335, "size": 335}