{"hash": "3428e2b4353a8f06a9ae078199988923b5031839d1f29da8961d092514c55ac8", "blockhash": "000000000000000000022b45ed06c6f4ccd3cf7fb5ba4856ebd2e58215665228", "vout": [{"scriptPubKey": {"reqSigs": 1, "hex": "76a9143b43c9705a9649c33b7902649c2ce0a14ade11a888ac", "addresses": ["16QN5EUagn12cXphTJVFTcvmXExUCdxdNC"], "asm": "OP_DUP OP_HASH160 3b43c9705a9649c33b7902649c2ce0a14ade11a8 OP_EQUALVERIFY OP_CHECKSIG", "type": "pubkeyhash"}, "value": 0.0485, "n": 0}, {"scriptPubKey": {"reqSigs": 1, "hex": "0020701a8d401c84fb13e6baf169d59684e17abd9fa216c8cc5b9fc63d622ff8c58d", "addresses": ["bc1qwqdg6squsna38e46795at95yu9atm8azzmyvckulcc7kytlcckxswvvzej"], "asm": "0 701a8d401c84fb13e6baf169d59684e17abd9fa216c8cc5b9fc63d622ff8c58d", "type": "witness_v0_scripthash"}, "value": 0.00215529, "n": 1}], "hex": "01000000000101584e004c9ccf1144aa81919c7e7ddc6b5484b5a58b1744a48c5b4b1299090ca80100000000ffffffff0250014a00000000001976a9143b43c9705a9649c33b7902649c2ce0a14ade11a888ace949030000000000220020701a8d401c84fb13e6baf169d59684e17abd9fa216c8cc5b9fc63d622ff8c58d040047304402204639ea848bcc8f70cac913284953ac29332d685b1f55c381a281dbde3510cbab022003732f54c1f0ec4e465d1c95c1eebaa6bb34c01cba56fee7dd7e8986172be15501483045022100e9e670b1c73e167dd8d3cf1d105b61a2220ec8cf4e4cf567ea941b86ba9e862c022072ca42d98fd65da24aa979bcb98c2b17cf5547022ec272944087980b5b368bbb016952210375e00eb72e29da82b89367947f29ef34afb75e8654f6ea368e0acdfd92976b7c2103a1b26313f430c4b15bb1fdce663207659d8cac749a0e53d70eff01874496feff2103c96d495bfdd5ba4145e3e046fee45e84a8a48ad05bd8dbb395c011a32cf9f88053ae00000000", "vin": [{"txinwitness": ["", "304402204639ea848bcc8f70cac913284953ac29332d685b1f55c381a281dbde3510cbab022003732f54c1f0ec4e465d1c95c1eebaa6bb34c01cba56fee7dd7e8986172be15501", "3045022100e9e670b1c73e167dd8d3cf1d105b61a2220ec8cf4e4cf567ea941b86ba9e862c022072ca42d98fd65da24aa979bcb98c2b17cf5547022ec272944087980b5b368bbb01", "52210375e00eb72e29da82b89367947f29ef34afb75e8654f6ea368e0acdfd92976b7c2103a1b26313f430c4b15bb1fdce663207659d8cac749a0e53d70eff01874496feff2103c96d495bfdd5ba4145e3e046fee45e84a8a48ad05bd8dbb395c011a32cf9f88053ae"], "sequence": 4294967295, "scriptSig": {"hex": "", "asm": ""}, "vout": 1, "txid": "a80c0999124b5b8ca444178ba5b584546bdc7d7e9c9181aa4411cf9c4c004e58"}], "txid": "605fe72d42f0944a408a13df49c035643e8c00ae2777db50a155fabf927de6ed", "blocktime": 1537869901, "version": 1, "confirmations": 11522, "time": 1537869901, "locktime": 0, "vsize": 192, "size": 383}