{"hash": "606366ec8947d33825d8d931038ebc1b12f0fc87f2993b59f137887627f8f6b8", "blockhash": "0000000000000000001f76057863aec43deb6fa401d9628bb513d65a8098bfab", "vout": [{"scriptPubKey": {"reqSigs": 1, "hex": "76a914ca4ff8e277957c099f5c26784ce3047895f350fd88ac", "addresses": ["1KSjJKL3Ap6YgvKfFwHTCHC8Dcs5gmLVyn"], "asm": "OP_DUP OP_HASH160 ca4ff8e277957c099f5c26784ce3047895f350fd OP_EQUALVERIFY OP_CHECKSIG", "type": "pubkeyhash"}, "value": 0.00312143, "n": 0}, {"scriptPubKey": {"reqSigs": 1, "hex": "76a9144eed02290909b27fe510278c49ada94dc0de2b3788ac", "addresses": ["18CKdbfxSMTJZcaXA9Yf3raMnw8anuCz4S"], "asm": "OP_DUP OP_HASH160 4eed02290909b27fe510278c49ada94dc0de2b37 OP_EQUALVERIFY OP_CHECKSIG", "type": "pubkeyhash"}, "value": 0.00376786, "n": 1}], "hex": "01000000017c75da541bb30a6e4cade05b3edbf2509182d18ca0c26be6ae8c4f3bbac4e62a000000006a4730440220698f2f6d3b1fe7aef5fe795075b5b3ff58b60b265e90b68758bef11095a28aa9022074ecfee86b2c9e546973a2cec7e3ed22521d1705b3ec609a97c3c5a343cedb6901210378c6158cc2ec8945d009cf81c6765a400953208ed138bf6996742914453eab03ffffffff024fc30400000000001976a914ca4ff8e277957c099f5c26784ce3047895f350fd88acd2bf0500000000001976a9144eed02290909b27fe510278c49ada94dc0de2b3788ac00000000", "vin": [{"sequence": 4294967295, "scriptSig": {"hex": "4730440220698f2f6d3b1fe7aef5fe795075b5b3ff58b60b265e90b68758bef11095a28aa9022074ecfee86b2c9e546973a2cec7e3ed22521d1705b3ec609a97c3c5a343cedb6901210378c6158cc2ec8945d009cf81c6765a400953208ed138bf6996742914453eab03", "asm": "30440220698f2f6d3b1fe7aef5fe795075b5b3ff58b60b265e90b68758bef11095a28aa9022074ecfee86b2c9e546973a2cec7e3ed22521d1705b3ec609a97c3c5a343cedb69[ALL] 0378c6158cc2ec8945d009cf81c6765a400953208ed138bf6996742914453eab03"}, "vout": 0, "txid": "2ae6c4ba3b4f8caee66bc2a08cd1829150f2db3e5be0ad4c6e0ab31b54da757c"}], "txid": "606366ec8947d33825d8d931038ebc1b12f0fc87f2993b59f137887627f8f6b8", "blocktime": 1537873891, "version": 1, "confirmations": 11475, "time": 1537873891, "locktime": 0, "vsize": 225, "size": 225}