{"hash": "6069965b666d25f1fdfade883dc23fced79e85912ba071de3a9163867f0f12c9", "blockhash": "00000000000000000004ffacab907a6b429b9a5745fa0b75af4234bf69dd7176", "vout": [{"scriptPubKey": {"reqSigs": 1, "hex": "76a914d243e6abb9a60fbff430b421d2df4b7d59ec186088ac", "addresses": ["1LAnF8h3qMGx3TSwNUHVneBZUEpwE4gu3D"], "asm": "OP_DUP OP_HASH160 d243e6abb9a60fbff430b421d2df4b7d59ec1860 OP_EQUALVERIFY OP_CHECKSIG", "type": "pubkeyhash"}, "value": 0.00077314, "n": 0}, {"scriptPubKey": {"reqSigs": 1, "hex": "76a9147f334ab501a888394799ffd7ec5b4728f42e22cb88ac", "addresses": ["1CbaGBVZQRXJkrve3JtHxXtXagwud8cF4K"], "asm": "OP_DUP OP_HASH160 7f334ab501a888394799ffd7ec5b4728f42e22cb OP_EQUALVERIFY OP_CHECKSIG", "type": "pubkeyhash"}, "value": 5.46e-06, "n": 1}, {"scriptPubKey": {"type": "nulldata", "hex": "6a146f6d6e69000000000000001f000000744c852300", "asm": "OP_RETURN 6f6d6e69000000000000001f000000744c852300"}, "value": 0.0, "n": 2}], "hex": "010000000112adab3e145a3fe4f7fce2f420d0e52d5f3abe87cc345e7a6808de225be0bb41000000006b483045022100ceec0420836c2f6d3e114ebbc7acff075f1c2b0196d9c8041d3380064dbd7d8702206a0340242858a064127a3d2f55b2fc35de1feee227964d8c02953d846ed412de01210271977291b74f1f5f5c42157e8aae804664eaaeccfd097918450d37f28fb94d77ffffffff03022e0100000000001976a914d243e6abb9a60fbff430b421d2df4b7d59ec186088ac22020000000000001976a9147f334ab501a888394799ffd7ec5b4728f42e22cb88ac0000000000000000166a146f6d6e69000000000000001f000000744c85230000000000", "vin": [{"sequence": 4294967295, "scriptSig": {"hex": "483045022100ceec0420836c2f6d3e114ebbc7acff075f1c2b0196d9c8041d3380064dbd7d8702206a0340242858a064127a3d2f55b2fc35de1feee227964d8c02953d846ed412de01210271977291b74f1f5f5c42157e8aae804664eaaeccfd097918450d37f28fb94d77", "asm": "3045022100ceec0420836c2f6d3e114ebbc7acff075f1c2b0196d9c8041d3380064dbd7d8702206a0340242858a064127a3d2f55b2fc35de1feee227964d8c02953d846ed412de[ALL] 0271977291b74f1f5f5c42157e8aae804664eaaeccfd097918450d37f28fb94d77"}, "vout": 0, "txid": "41bbe05b22de08687a5e34cc87be3a5f2de5d020f4e2fcf7e43f5a143eabad12"}], "txid": "6069965b666d25f1fdfade883dc23fced79e85912ba071de3a9163867f0f12c9", "blocktime": 1537875543, "version": 1, "confirmations": 11464, "time": 1537875543, "locktime": 0, "vsize": 257, "size": 257}