{"hash": "6070add3b23030795160ad54b1a0d949e7baeb194a9080d901b0eecf593d22fa", "blockhash": "0000000000000000001e0dab787dd257d1dbfcb92a98c2207d5e1078be1f4165", "vout": [{"scriptPubKey": {"reqSigs": 1, "hex": "76a914828fe0434a8ab715bc04b84b2c9d48ee8080e8a388ac", "addresses": ["1CuMCcwASLHHxhubSSeAhqdiDM2b4HWD8T"], "asm": "OP_DUP OP_HASH160 828fe0434a8ab715bc04b84b2c9d48ee8080e8a3 OP_EQUALVERIFY OP_CHECKSIG", "type": "pubkeyhash"}, "value": 0.0064052, "n": 0}, {"scriptPubKey": {"type": "nulldata", "hex": "6a4c50000077b60001b22ed29afdbc8dce19afa319e5bf9ae76da98a211aaf6c953dd567cf27e7835a26a8631298ef5936eaec5549141e5baa11ba061236ab9608277d1d100759d4ba30d2c37bb011d97e02cf", "asm": "OP_RETURN 000077b60001b22ed29afdbc8dce19afa319e5bf9ae76da98a211aaf6c953dd567cf27e7835a26a8631298ef5936eaec5549141e5baa11ba061236ab9608277d1d100759d4ba30d2c37bb011d97e02cf"}, "value": 0.0, "n": 1}], "hex": "0100000001619cb87d0982b4b54b7a40ecc493d9d056b4913a8fac0a605357ddb64d5f0b6f010000006b483045022100db60d38910746843ee7a9c85c4e035ef27d7bee9de19f21cd0811ddca45b66610220211fa2610059b602f152c4cc86fc728e626e09f95173b36ef5ba18dc15642562012102577be5427db8801b8fd4a7c83de7815e87db543d7895a6607cbec6c021b5c865ffffffff0208c60900000000001976a914828fe0434a8ab715bc04b84b2c9d48ee8080e8a388ac0000000000000000536a4c50000077b60001b22ed29afdbc8dce19afa319e5bf9ae76da98a211aaf6c953dd567cf27e7835a26a8631298ef5936eaec5549141e5baa11ba061236ab9608277d1d100759d4ba30d2c37bb011d97e02cf00000000", "vin": [{"sequence": 4294967295, "scriptSig": {"hex": "483045022100db60d38910746843ee7a9c85c4e035ef27d7bee9de19f21cd0811ddca45b66610220211fa2610059b602f152c4cc86fc728e626e09f95173b36ef5ba18dc15642562012102577be5427db8801b8fd4a7c83de7815e87db543d7895a6607cbec6c021b5c865", "asm": "3045022100db60d38910746843ee7a9c85c4e035ef27d7bee9de19f21cd0811ddca45b66610220211fa2610059b602f152c4cc86fc728e626e09f95173b36ef5ba18dc15642562[ALL] 02577be5427db8801b8fd4a7c83de7815e87db543d7895a6607cbec6c021b5c865"}, "vout": 1, "txid": "6f0b5f4db6dd5753600aac8f3a91b456d0d993c4ec407a4bb5b482097db89c61"}], "txid": "6070add3b23030795160ad54b1a0d949e7baeb194a9080d901b0eecf593d22fa", "blocktime": 1537872475, "version": 1, "confirmations": 11486, "time": 1537872475, "locktime": 0, "vsize": 284, "size": 284}