{"hash": "607372fd6128bda7952bfdaa20149cc9bcfcb5c66544c86ab39c2b446f441aa4", "blockhash": "0000000000000000000e13cef7c366c0283d82e591d1acd082e914b08063cdf1", "vout": [{"scriptPubKey": {"reqSigs": 1, "hex": "76a9140189de1e4fc68c330c1c3d72f44e55102c55165788ac", "addresses": ["198qQSMXtpLYYUwwaCmLbSRF7HEvyBJb5"], "asm": "OP_DUP OP_HASH160 0189de1e4fc68c330c1c3d72f44e55102c551657 OP_EQUALVERIFY OP_CHECKSIG", "type": "pubkeyhash"}, "value": 0.00305, "n": 0}, {"scriptPubKey": {"reqSigs": 1, "hex": "76a914b230fa19fdbc66e1b997c85cc3d32e1e1408938c88ac", "addresses": ["1HFBx8E89dWHwPb297VVCZpEnW6nS6TEPy"], "asm": "OP_DUP OP_HASH160 b230fa19fdbc66e1b997c85cc3d32e1e1408938c OP_EQUALVERIFY OP_CHECKSIG", "type": "pubkeyhash"}, "value": 0.0158316, "n": 1}], "hex": "0100000001ed1045eca5ae84112919ff012f19acb5409ee53c9889edff456348f6f5145243010000006b483045022100b0cebb686852369fff00824a6bd26b9a470a8e9bc99261bac141abb0b7bae60e0220157960a4dfc3e609bd43b8f3cf629fa411736ff50d5511b98be80b86dd93bbb80121034c718da9ccbee68bdd86cea3921ec66bcd41956e4d84487856eada6183042672ffffffff0268a70400000000001976a9140189de1e4fc68c330c1c3d72f44e55102c55165788ac38281800000000001976a914b230fa19fdbc66e1b997c85cc3d32e1e1408938c88ac00000000", "vin": [{"sequence": 4294967295, "scriptSig": {"hex": "483045022100b0cebb686852369fff00824a6bd26b9a470a8e9bc99261bac141abb0b7bae60e0220157960a4dfc3e609bd43b8f3cf629fa411736ff50d5511b98be80b86dd93bbb80121034c718da9ccbee68bdd86cea3921ec66bcd41956e4d84487856eada6183042672", "asm": "3045022100b0cebb686852369fff00824a6bd26b9a470a8e9bc99261bac141abb0b7bae60e0220157960a4dfc3e609bd43b8f3cf629fa411736ff50d5511b98be80b86dd93bbb8[ALL] 034c718da9ccbee68bdd86cea3921ec66bcd41956e4d84487856eada6183042672"}, "vout": 1, "txid": "435214f5f6486345ffed89983ce59e40b5ac192f01ff19291184aea5ec4510ed"}], "txid": "607372fd6128bda7952bfdaa20149cc9bcfcb5c66544c86ab39c2b446f441aa4", "blocktime": 1537871767, "version": 1, "confirmations": 11493, "time": 1537871767, "locktime": 0, "vsize": 226, "size": 226}