{"hash": "6079a20318ea30cb90c313b993f90ab638afca82ef88ba39e6469391ce26f71a", "blockhash": "00000000000000000004ffacab907a6b429b9a5745fa0b75af4234bf69dd7176", "vout": [{"scriptPubKey": {"reqSigs": 1, "hex": "76a9146cd176c4b95e7cc9ba28808fd87a528946be423388ac", "addresses": ["1AvNuXawfrvqZpLfErBZ5UdALD345WmtoS"], "asm": "OP_DUP OP_HASH160 6cd176c4b95e7cc9ba28808fd87a528946be4233 OP_EQUALVERIFY OP_CHECKSIG", "type": "pubkeyhash"}, "value": 0.00754773, "n": 0}, {"scriptPubKey": {"reqSigs": 1, "hex": "a914b7b57976f1fe5cf113c10d2ee6032d612fe3458c87", "addresses": ["3JSNyiUz81D86avwHJZC4SZovQw8rpKW3H"], "asm": "OP_HASH160 b7b57976f1fe5cf113c10d2ee6032d612fe3458c OP_EQUAL", "type": "scripthash"}, "value": 0.02343715, "n": 1}], "hex": "0100000001f3df1447e3383bbe30a7ccde647af59e87ab6b32c6e6d5990b1c08a4b369b373070000006b483045022100cc9b250c3926e8fd2ecba5dbdbcc71a111b025c8139dc35579173193725f007702201a52e81ee963bd364c5c29d334329fb097205ef5098cdc3e8745cd6d9f0daaed0121020b5f92777b96c709176e14b4a1f92584e4dafefaed723fe4d092980b81abc4f9ffffffff0255840b00000000001976a9146cd176c4b95e7cc9ba28808fd87a528946be423388ac23c323000000000017a914b7b57976f1fe5cf113c10d2ee6032d612fe3458c8700000000", "vin": [{"sequence": 4294967295, "scriptSig": {"hex": "483045022100cc9b250c3926e8fd2ecba5dbdbcc71a111b025c8139dc35579173193725f007702201a52e81ee963bd364c5c29d334329fb097205ef5098cdc3e8745cd6d9f0daaed0121020b5f92777b96c709176e14b4a1f92584e4dafefaed723fe4d092980b81abc4f9", "asm": "3045022100cc9b250c3926e8fd2ecba5dbdbcc71a111b025c8139dc35579173193725f007702201a52e81ee963bd364c5c29d334329fb097205ef5098cdc3e8745cd6d9f0daaed[ALL] 020b5f92777b96c709176e14b4a1f92584e4dafefaed723fe4d092980b81abc4f9"}, "vout": 7, "txid": "73b369b3a4081c0b99d5e6c6326bab879ef57a64decca730be3b38e34714dff3"}], "txid": "6079a20318ea30cb90c313b993f90ab638afca82ef88ba39e6469391ce26f71a", "blocktime": 1537875543, "version": 1, "confirmations": 11464, "time": 1537875543, "locktime": 0, "vsize": 224, "size": 224}