{"hash": "822f2d95bbcf92fac9f6c3ff4bc216d873ccc2f9a4bd751da894dd6e8caa58c4", "blockhash": "0000000000000000001f76057863aec43deb6fa401d9628bb513d65a8098bfab", "vout": [{"scriptPubKey": {"reqSigs": 1, "hex": "a91418111947f661076204cd50b584d7d818d303866c87", "addresses": ["33tGdByHLqdTPUbjvmRBB6FWJPxQAXxALH"], "asm": "OP_HASH160 18111947f661076204cd50b584d7d818d303866c OP_EQUAL", "type": "scripthash"}, "value": 0.00999128, "n": 0}, {"scriptPubKey": {"reqSigs": 1, "hex": "76a9142b816f8669a0a2093ace1e208f34f5ba3744455288ac", "addresses": ["14y37bWUH7mPtfaoEVpyVMmdK35Q4i6R2M"], "asm": "OP_DUP OP_HASH160 2b816f8669a0a2093ace1e208f34f5ba37444552 OP_EQUALVERIFY OP_CHECKSIG", "type": "pubkeyhash"}, "value": 0.0034246, "n": 1}], "hex": "02000000000102ab1a56a1b37f51c95c9c68f7d7a240252e90982e1997b822542c994ec6ba73ad01000000171600140d5370e90283b14db01c536854ab4f88cd8a3f9cfeffffffe35ccacd802f68e2942ebc896b7e81d57edad8fb3c14bc4a9dfea9711a7c8bd106000000171600146a69ad8191b76a73937aa17cb6cd8c69cc885998feffffff02d83e0f000000000017a91418111947f661076204cd50b584d7d818d303866c87bc390500000000001976a9142b816f8669a0a2093ace1e208f34f5ba3744455288ac02473044022026129060337926579853b25f6bb2abc9c401e8868a009c2cb841a05556b2ec62022075555d98cde058d779eacc927b897319c645c42dfe7e420fa6ef31e6c57915f901210213efee476bf5135d5e98804002c4110b4ec592705f2e394bba6a6789d1ab561f02483045022100c1e230f6dd195f99fde132cd3a4181e1fc05c095c646638ad82d976e647aa86f02200266cb36532d5a43a4f171f67ed91556c209861c4ef111f2ebe9c1c3b3f2b91f0121035f0b228bae6a7a2d9af694185ad71ac7f355123383ac5e7969c06adf5ad5d66b14490800", "vin": [{"txinwitness": ["3044022026129060337926579853b25f6bb2abc9c401e8868a009c2cb841a05556b2ec62022075555d98cde058d779eacc927b897319c645c42dfe7e420fa6ef31e6c57915f901", "0213efee476bf5135d5e98804002c4110b4ec592705f2e394bba6a6789d1ab561f"], "sequence": 4294967294, "scriptSig": {"hex": "1600140d5370e90283b14db01c536854ab4f88cd8a3f9c", "asm": "00140d5370e90283b14db01c536854ab4f88cd8a3f9c"}, "vout": 1, "txid": "ad73bac64e992c5422b897192e98902e2540a2d7f7689c5cc9517fb3a1561aab"}, {"txinwitness": ["3045022100c1e230f6dd195f99fde132cd3a4181e1fc05c095c646638ad82d976e647aa86f02200266cb36532d5a43a4f171f67ed91556c209861c4ef111f2ebe9c1c3b3f2b91f01", "035f0b228bae6a7a2d9af694185ad71ac7f355123383ac5e7969c06adf5ad5d66b"], "sequence": 4294967294, "scriptSig": {"hex": "1600146a69ad8191b76a73937aa17cb6cd8c69cc885998", "asm": "00146a69ad8191b76a73937aa17cb6cd8c69cc885998"}, "vout": 6, "txid": "d18b7c1a71a9fe9d4abc143cfbd8da7ed5817e6b89bc2e94e2682f80cdca5ce3"}], "txid": "607a8c1d23b286eb5a80bec1ec131abb41ffa906addf79e04a248894792e3d62", "blocktime": 1537873891, "version": 2, "confirmations": 11478, "time": 1537873891, "locktime": 542996, "vsize": 259, "size": 421}