{"hash": "607de1497e8d0ab0c2360d9cbfd87b59a892a3fd28a8189b5099dfa653943b02", "blockhash": "00000000000000000017f5eb5941039fbcee6240d03bc1f2f8e35350df66a1d8", "vout": [{"scriptPubKey": {"reqSigs": 1, "hex": "76a91405aa0e34a9ea317336217f211d13a56925d02a6288ac", "addresses": ["1Wx6d4nbdK28kNreS6GhSrWgjHSLL8tCR"], "asm": "OP_DUP OP_HASH160 05aa0e34a9ea317336217f211d13a56925d02a62 OP_EQUALVERIFY OP_CHECKSIG", "type": "pubkeyhash"}, "value": 0.34686452, "n": 0}, {"scriptPubKey": {"reqSigs": 1, "hex": "76a914d4468b586290ce2e05e42aaca6f3b47c012a372288ac", "addresses": ["1LMQmB3Uq9zZ9vqy1KshpctBWmKp85utuw"], "asm": "OP_DUP OP_HASH160 d4468b586290ce2e05e42aaca6f3b47c012a3722 OP_EQUALVERIFY OP_CHECKSIG", "type": "pubkeyhash"}, "value": 0.00230836, "n": 1}], "hex": "01000000020f178630809470ad1a2f30be7344a41d1ea5502174cfc90f19c4ae0fab25a7fe00000000da0047304402202a4e32293338b99d2c84b932b22c5c546976d7b9cfa1e407af0e6702f7e6f07802204386726246b3e2e48e7ac5fef425a8b9fdc450335336c875483c84100480471e014830450221009b61a5fb42026a72355cd9bee099b4e7f409201226d710581956022483df4eee02206908f566ec7895c61a72086c841c843c7dc83737a562d91fbf75ef01cd88d19a01475221021d2bcd3a78084e31e02b790682f756e88b3c7f2975fd8c4df6dd8c8edd7fddba2102907a54bed8ad74b3f35638c60114ca240a308cb986f3f2f306178869a8880b6152aeffffffff44a1121abac5be7acf9cc83c870b7cc7d8d30ef5bd0360ce399d3994e092784a0f000000da00483045022100a8e1e023eadfe2792f097f90020a73e2d81c0bc4ac6dec0e9c74d9ad66792f1a022050b67a4fd7e4a20574dd6e824cbbfb7e3f0ec265c0f47592ff5e5139aed62aae01473044022058c216979f432d1f4d03a1391eb93f9aebe011e3e3ff959e4b05a779c016d87802207f4a91da36a136b5dc74b082cf8d4b0075d097925828c30eab55338d4acdd8030147522102907a54bed8ad74b3f35638c60114ca240a308cb986f3f2f306178869a8880b612102c6de7d82dd7a3cce31cececde491489c06fe4fd96f319361893d2c3743bbc5f452aeffffffff02f4451102000000001976a91405aa0e34a9ea317336217f211d13a56925d02a6288acb4850300000000001976a914d4468b586290ce2e05e42aaca6f3b47c012a372288ac00000000", "vin": [{"sequence": 4294967295, "scriptSig": {"hex": "0047304402202a4e32293338b99d2c84b932b22c5c546976d7b9cfa1e407af0e6702f7e6f07802204386726246b3e2e48e7ac5fef425a8b9fdc450335336c875483c84100480471e014830450221009b61a5fb42026a72355cd9bee099b4e7f409201226d710581956022483df4eee02206908f566ec7895c61a72086c841c843c7dc83737a562d91fbf75ef01cd88d19a01475221021d2bcd3a78084e31e02b790682f756e88b3c7f2975fd8c4df6dd8c8edd7fddba2102907a54bed8ad74b3f35638c60114ca240a308cb986f3f2f306178869a8880b6152ae", "asm": "0 304402202a4e32293338b99d2c84b932b22c5c546976d7b9cfa1e407af0e6702f7e6f07802204386726246b3e2e48e7ac5fef425a8b9fdc450335336c875483c84100480471e[ALL] 30450221009b61a5fb42026a72355cd9bee099b4e7f409201226d710581956022483df4eee02206908f566ec7895c61a72086c841c843c7dc83737a562d91fbf75ef01cd88d19a[ALL] 5221021d2bcd3a78084e31e02b790682f756e88b3c7f2975fd8c4df6dd8c8edd7fddba2102907a54bed8ad74b3f35638c60114ca240a308cb986f3f2f306178869a8880b6152ae"}, "vout": 0, "txid": "fea725ab0faec4190fc9cf742150a51e1da44473be302f1aad7094803086170f"}, {"sequence": 4294967295, "scriptSig": {"hex": "00483045022100a8e1e023eadfe2792f097f90020a73e2d81c0bc4ac6dec0e9c74d9ad66792f1a022050b67a4fd7e4a20574dd6e824cbbfb7e3f0ec265c0f47592ff5e5139aed62aae01473044022058c216979f432d1f4d03a1391eb93f9aebe011e3e3ff959e4b05a779c016d87802207f4a91da36a136b5dc74b082cf8d4b0075d097925828c30eab55338d4acdd8030147522102907a54bed8ad74b3f35638c60114ca240a308cb986f3f2f306178869a8880b612102c6de7d82dd7a3cce31cececde491489c06fe4fd96f319361893d2c3743bbc5f452ae", "asm": "0 3045022100a8e1e023eadfe2792f097f90020a73e2d81c0bc4ac6dec0e9c74d9ad66792f1a022050b67a4fd7e4a20574dd6e824cbbfb7e3f0ec265c0f47592ff5e5139aed62aae[ALL] 3044022058c216979f432d1f4d03a1391eb93f9aebe011e3e3ff959e4b05a779c016d87802207f4a91da36a136b5dc74b082cf8d4b0075d097925828c30eab55338d4acdd803[ALL] 522102907a54bed8ad74b3f35638c60114ca240a308cb986f3f2f306178869a8880b612102c6de7d82dd7a3cce31cececde491489c06fe4fd96f319361893d2c3743bbc5f452ae"}, "vout": 15, "txid": "4a7892e094399d39ce6003bdf50ed3d8c77c0b873cc89ccf7abec5ba1a12a144"}], "txid": "607de1497e8d0ab0c2360d9cbfd87b59a892a3fd28a8189b5099dfa653943b02", "blocktime": 1537874412, "version": 1, "confirmations": 11467, "time": 1537874412, "locktime": 0, "vsize": 596, "size": 596}