{"hash": "6a8a1ff9b7ab347655e560578845ea037b09ef027c95b0363e851242cb2ed62f", "blockhash": "000000000000000000022b45ed06c6f4ccd3cf7fb5ba4856ebd2e58215665228", "vout": [{"scriptPubKey": {"reqSigs": 1, "hex": "001421d2594c023ae4fa9badfa4257ee1d0274b58ef4", "addresses": ["bc1qy8f9jnqz8tj04xadlfp90msaqf6ttrh505947d"], "asm": "0 21d2594c023ae4fa9badfa4257ee1d0274b58ef4", "type": "witness_v0_keyhash"}, "value": 0.03679412, "n": 0}, {"scriptPubKey": {"reqSigs": 1, "hex": "76a91464667134e0750d7b638d86f391696bc6ad70a87288ac", "addresses": ["1A9sHzakPWu7PyTtyPeNBCgkfhobbEDsYs"], "asm": "OP_DUP OP_HASH160 64667134e0750d7b638d86f391696bc6ad70a872 OP_EQUALVERIFY OP_CHECKSIG", "type": "pubkeyhash"}, "value": 0.2832, "n": 1}], "hex": "0100000000010149d7df5556accaba1fb05746f34aeed3abb6c805b6fb35b84e8b397c2a1297a60100000017160014094141962714621b0da4afcabf6795e591986fbdffffffff02b42438000000000016001421d2594c023ae4fa9badfa4257ee1d0274b58ef40021b001000000001976a91464667134e0750d7b638d86f391696bc6ad70a87288ac02473044022008b6234658ecb7148cf57a5078bfd825a538184e2028729c3c3c89febc485cf802203d1d5a3e79fb60216fc916d343a2c13dd12fba6e0c28b1356144f8fd4cb7dece0121029466915854e2f8dc46a0b83787d1594c4de961957e46b71982bb46359fad1f9e00000000", "vin": [{"txinwitness": ["3044022008b6234658ecb7148cf57a5078bfd825a538184e2028729c3c3c89febc485cf802203d1d5a3e79fb60216fc916d343a2c13dd12fba6e0c28b1356144f8fd4cb7dece01", "029466915854e2f8dc46a0b83787d1594c4de961957e46b71982bb46359fad1f9e"], "sequence": 4294967295, "scriptSig": {"hex": "160014094141962714621b0da4afcabf6795e591986fbd", "asm": "0014094141962714621b0da4afcabf6795e591986fbd"}, "vout": 1, "txid": "a697122a7c398b4eb835fbb605c8b6abd3ee4af34657b01fbacaac5655dfd749"}], "txid": "607e0eb7509b367463a4c19b1b62dd5a286c25f6a1c80b00a3a5a96871356078", "blocktime": 1537869901, "version": 1, "confirmations": 11523, "time": 1537869901, "locktime": 0, "vsize": 167, "size": 248}