{"hash": "bac200805637fa51ed1a0514f35435b164dd3fc6a91a6b83a4e3e3c0e1b51c98", "blockhash": "0000000000000000000e13cef7c366c0283d82e591d1acd082e914b08063cdf1", "vout": [{"scriptPubKey": {"reqSigs": 1, "hex": "a914fad994946112386aff52e4fefa201604682faa0d87", "addresses": ["3QZPWFZPdEvhzaeJRcHUuQyvZ9vDtjqEip"], "asm": "OP_HASH160 fad994946112386aff52e4fefa201604682faa0d OP_EQUAL", "type": "scripthash"}, "value": 0.01280952, "n": 0}, {"scriptPubKey": {"reqSigs": 1, "hex": "a9140e490dd54f21e2c4bf5cd9f3ed7827986d63699d87", "addresses": ["32zYu7VgzWM2bEiu85z98f9c9vEWh7kvtC"], "asm": "OP_HASH160 0e490dd54f21e2c4bf5cd9f3ed7827986d63699d OP_EQUAL", "type": "scripthash"}, "value": 0.03, "n": 1}], "hex": "02000000000101e822b67d0c8d8f3be98bc8aa4ab94283390d802d37fa758a375db203dd3ef59d0000000017160014fd17400788affb62e1a4c93b43a8b200a77697e3feffffff02b88b13000000000017a914fad994946112386aff52e4fefa201604682faa0d87c0c62d000000000017a9140e490dd54f21e2c4bf5cd9f3ed7827986d63699d87024730440220140d98020c75989c1e3aa5e5d5b21ae98b4333b49e23ef6ed5b2e143b41004d4022026d4e6ff26421972d75ea23ab7ec34465f44f90656f48b8c8519a57713896587012103777e4c2e11ff059be8ef7daa29be3e1ca6a0f32d24ceff39b9996223bc6fe72b0f490800", "vin": [{"txinwitness": ["30440220140d98020c75989c1e3aa5e5d5b21ae98b4333b49e23ef6ed5b2e143b41004d4022026d4e6ff26421972d75ea23ab7ec34465f44f90656f48b8c8519a5771389658701", "03777e4c2e11ff059be8ef7daa29be3e1ca6a0f32d24ceff39b9996223bc6fe72b"], "sequence": 4294967294, "scriptSig": {"hex": "160014fd17400788affb62e1a4c93b43a8b200a77697e3", "asm": "0014fd17400788affb62e1a4c93b43a8b200a77697e3"}, "vout": 0, "txid": "9df53edd03b25d378a75fa372d800d398342b94aaac88be93b8f8d0c7db622e8"}], "txid": "607f4f7e7f7ac7f857eeb75294c7d1d48bfe5dc898621b61a9802ed481fa6404", "blocktime": 1537871767, "version": 2, "confirmations": 11491, "time": 1537871767, "locktime": 542991, "vsize": 166, "size": 247}