{"hash": "f6a1ca0b69551f66b1d239a47182479171863ce01c1dcf866a16c49d9edc7e03", "blockhash": "0000000000000000000baef3f32e3676a92c3b2e5da21b426e4f302fc371ce76", "vout": [{"scriptPubKey": {"reqSigs": 1, "hex": "a9144774ecf75ad9e77008c17ef27703ffebe7c7b64787", "addresses": ["38CqyJNK3LLhTXNiQdUAZV4UkLcrgmh5pr"], "asm": "OP_HASH160 4774ecf75ad9e77008c17ef27703ffebe7c7b647 OP_EQUAL", "type": "scripthash"}, "value": 0.5, "n": 0}, {"scriptPubKey": {"reqSigs": 1, "hex": "a9146df94422556b93e0544810b2c21500c458e3518587", "addresses": ["3BiWBmYuesBv15ySQa41QE3oik23X3xTBR"], "asm": "OP_HASH160 6df94422556b93e0544810b2c21500c458e35185 OP_EQUAL", "type": "scripthash"}, "value": 0.5, "n": 1}, {"scriptPubKey": {"reqSigs": 1, "hex": "a91489a53149ea5933e948efb67fece26c13f622608c87", "addresses": ["3EEpPbvnBuNijmwEcQ4kt7wuMByTSWroav"], "asm": "OP_HASH160 89a53149ea5933e948efb67fece26c13f622608c OP_EQUAL", "type": "scripthash"}, "value": 1.29996165, "n": 2}, {"scriptPubKey": {"reqSigs": 1, "hex": "a914a04be1e02555cc8b3fda1d54acbc58e0a792fe6b87", "addresses": ["3GJawdfypMc8qzJVZF6raA6pxH7VFFpGyV"], "asm": "OP_HASH160 a04be1e02555cc8b3fda1d54acbc58e0a792fe6b OP_EQUAL", "type": "scripthash"}, "value": 1.4606705, "n": 3}], "hex": "010000000001020ea3393dff5b638a62e89966c3d029b0ccea74d9e3479776db2b18125e41f7d801000000171600144a4117a23f3d5206ab8d07be3c5d920a2f100e58ffffffff3d9ecbc199d3ba0e17692bf30c3ed2b45326ed68322e9983b828c535b49cdef20000000017160014e38f8309b28cb28a51b0a18265297f03912b05a0ffffffff0480f0fa020000000017a9144774ecf75ad9e77008c17ef27703ffebe7c7b6478780f0fa020000000017a9146df94422556b93e0544810b2c21500c458e35185878595bf070000000017a91489a53149ea5933e948efb67fece26c13f622608c876aceb4080000000017a914a04be1e02555cc8b3fda1d54acbc58e0a792fe6b870247304402203b404529f06fbd11d9b47d37a5f5f72117fc120ea5e7bd1c6d29b4e028a408f202204803334b1475a03a856a12f5ce1567af0ff70f6183c75dac5723bd284ff6d030012102e6d7aac6090b5ecb13fb3ab9d214906c072cfb356bd79de6a67a81ef1aa3dc61024830450221009b2b203fd54f35bed8e9157332f629b58e836d2daf5715d081093b525c467bc7022051d7ec53bbb231dc8c7dbbe6de304c11294981b15ca4d165fdde012068609960012102bc29aaf78fd9435416decb060bd843631e86e86876b04d7ee473f61f7da36cb000000000", "vin": [{"txinwitness": ["304402203b404529f06fbd11d9b47d37a5f5f72117fc120ea5e7bd1c6d29b4e028a408f202204803334b1475a03a856a12f5ce1567af0ff70f6183c75dac5723bd284ff6d03001", "02e6d7aac6090b5ecb13fb3ab9d214906c072cfb356bd79de6a67a81ef1aa3dc61"], "sequence": 4294967295, "scriptSig": {"hex": "1600144a4117a23f3d5206ab8d07be3c5d920a2f100e58", "asm": "00144a4117a23f3d5206ab8d07be3c5d920a2f100e58"}, "vout": 1, "txid": "d8f7415e12182bdb769747e3d974eaccb029d0c36699e8628a635bff3d39a30e"}, {"txinwitness": ["30450221009b2b203fd54f35bed8e9157332f629b58e836d2daf5715d081093b525c467bc7022051d7ec53bbb231dc8c7dbbe6de304c11294981b15ca4d165fdde01206860996001", "02bc29aaf78fd9435416decb060bd843631e86e86876b04d7ee473f61f7da36cb0"], "sequence": 4294967295, "scriptSig": {"hex": "160014e38f8309b28cb28a51b0a18265297f03912b05a0", "asm": "0014e38f8309b28cb28a51b0a18265297f03912b05a0"}, "vout": 0, "txid": "f2de9cb435c528b883992e3268ed2653b4d23e0cf32b69170ebad399c1cb9e3d"}], "txid": "60826f4ffb81f46b0eae4b239065026a35d11ff12ee99eea88c9311f6c107987", "blocktime": 1537876114, "version": 1, "confirmations": 11460, "time": 1537876114, "locktime": 0, "vsize": 321, "size": 483}