{"hash": "6faa6049b21054407fdcd8d5e694d804493cd52f2e4f29bb811e92d7852a45ee", "blockhash": "000000000000000000022b45ed06c6f4ccd3cf7fb5ba4856ebd2e58215665228", "vout": [{"scriptPubKey": {"reqSigs": 1, "hex": "0014f4716dbf96b1859f5a2b0114da2f3ff0e8d65035", "addresses": ["bc1q73ckm0ukkxze7k3tqy2d5tel7r5dv5p4ptl4nv"], "asm": "0 f4716dbf96b1859f5a2b0114da2f3ff0e8d65035", "type": "witness_v0_keyhash"}, "value": 0.00303097, "n": 0}, {"scriptPubKey": {"reqSigs": 1, "hex": "76a914c64dff7495900ba2c9c3a8b8c223b0096d0d481988ac", "addresses": ["1K5YENSRMd6z6tnCMLkxg2XR7vdrKwpjVD"], "asm": "OP_DUP OP_HASH160 c64dff7495900ba2c9c3a8b8c223b0096d0d4819 OP_EQUALVERIFY OP_CHECKSIG", "type": "pubkeyhash"}, "value": 0.0183, "n": 1}], "hex": "01000000000101c26d2a1578722a64b686da728ead487bdbcc285e8d90d8aed422d841aca3e83d0100000000ffffffff02f99f040000000000160014f4716dbf96b1859f5a2b0114da2f3ff0e8d6503570ec1b00000000001976a914c64dff7495900ba2c9c3a8b8c223b0096d0d481988ac02473044022034eff944c67c2fc7f63d33617342ca78485d84ee8345b3f1ca5034f9d3b5475a02202fe54f8f55c1f7ab605220701b0080aff24c0959cb61d7813d11a370720386860121031493695e348f6bc78302f17740680623512fe3176d223555fe57010f187400c500000000", "vin": [{"txinwitness": ["3044022034eff944c67c2fc7f63d33617342ca78485d84ee8345b3f1ca5034f9d3b5475a02202fe54f8f55c1f7ab605220701b0080aff24c0959cb61d7813d11a3707203868601", "031493695e348f6bc78302f17740680623512fe3176d223555fe57010f187400c5"], "sequence": 4294967295, "scriptSig": {"hex": "", "asm": ""}, "vout": 1, "txid": "3de8a3ac41d822d4aed8908d5e28ccdb7b48ad8e72da86b6642a7278152a6dc2"}], "txid": "6083742515c46be9e2543c9e2f166671967ef648efeacfb4c52aa3b98e95bf39", "blocktime": 1537869901, "version": 1, "confirmations": 11523, "time": 1537869901, "locktime": 0, "vsize": 144, "size": 225}