{"hash": "609304adff65239c0a0d7303bd7229fd29602982c2e5e1e0164e20a2352b0319", "blockhash": "0000000000000000001f76057863aec43deb6fa401d9628bb513d65a8098bfab", "vout": [{"scriptPubKey": {"reqSigs": 1, "hex": "76a9144d56dfd4e2ef11a89a936bdab9d69b7104da656388ac", "addresses": ["183w6uYy9hmqyuzBD11YWWCBD7HDk15B2i"], "asm": "OP_DUP OP_HASH160 4d56dfd4e2ef11a89a936bdab9d69b7104da6563 OP_EQUALVERIFY OP_CHECKSIG", "type": "pubkeyhash"}, "value": 0.07105822, "n": 0}], "hex": "0100000004ff6e6489741b0aecc0f603c8245064d5c1efb7315d40ecffd4ecbe4c47cfc41e000000006b4830450221008d4c71ea0aea41bd73407d63f58cab5c3ec72bdc1977d54860feafa3eab58b8c022007b7e1faede3363f74015beebfe60db43c9cb552b42bc2c77c9f2e15f4823742012102d7d71e40f29cea562f86a40cfdbfd53637772ab806f0e5f8a9ace6413cda75d4fdffffffff6e6489741b0aecc0f603c8245064d5c1efb7315d40ecffd4ecbe4c47cfc41e010000006a47304402203b7e3f8b7d345d5e4333f66ee5b15d66c4e1e868743c91fd2c26a9d5849d937002204f428f123f9ed27552c2aff24450c646c90a853dfaf42c4ecad00649fa9a523501210348934b5776b3e6598b9f9362641f46be8d9bbd43e33d40dfdbe4e45539b8e876fdffffff7003cdf86034622415bce4391cdd79b4634ed7ec7efb1009d484f6f9e6dc0821000000006a4730440220328829d0fbfb3e460c581e2596a7526d0748faa0688676246096bc17909edeb202205fdfce890778a60e3d0868e47cb07c44ea44304b2676176e276cee5feddfd5240121032ce7f9093a96f15bfa30f19e3f6fc56c4f6d80c63e031634a3c41f68b96e51ebfdffffff321d52895ca6e21af40bfa0d7d1fd5cb576efbb59a8173604b1739e3d49797b4000000006b483045022100c1ea745c38094deb9fe244b83e361dea1f4df583170e7aa041e15579d540307902204733e7350e7ff3806dae53b5a7090eca62724fa9c33e2c13e1acd42cbea4ea6d0121028d8b6b210734f5f39180944048e216000ca636d620cf3d95ebcef0c23f5e2cb7fdffffff011e6d6c00000000001976a9144d56dfd4e2ef11a89a936bdab9d69b7104da656388ac14490800", "vin": [{"sequence": 4294967293, "scriptSig": {"hex": "4830450221008d4c71ea0aea41bd73407d63f58cab5c3ec72bdc1977d54860feafa3eab58b8c022007b7e1faede3363f74015beebfe60db43c9cb552b42bc2c77c9f2e15f4823742012102d7d71e40f29cea562f86a40cfdbfd53637772ab806f0e5f8a9ace6413cda75d4", "asm": "30450221008d4c71ea0aea41bd73407d63f58cab5c3ec72bdc1977d54860feafa3eab58b8c022007b7e1faede3363f74015beebfe60db43c9cb552b42bc2c77c9f2e15f4823742[ALL] 02d7d71e40f29cea562f86a40cfdbfd53637772ab806f0e5f8a9ace6413cda75d4"}, "vout": 0, "txid": "1ec4cf474cbeecd4ffec405d31b7efc1d5645024c803f6c0ec0a1b7489646eff"}, {"sequence": 4294967293, "scriptSig": {"hex": "47304402203b7e3f8b7d345d5e4333f66ee5b15d66c4e1e868743c91fd2c26a9d5849d937002204f428f123f9ed27552c2aff24450c646c90a853dfaf42c4ecad00649fa9a523501210348934b5776b3e6598b9f9362641f46be8d9bbd43e33d40dfdbe4e45539b8e876", "asm": "304402203b7e3f8b7d345d5e4333f66ee5b15d66c4e1e868743c91fd2c26a9d5849d937002204f428f123f9ed27552c2aff24450c646c90a853dfaf42c4ecad00649fa9a5235[ALL] 0348934b5776b3e6598b9f9362641f46be8d9bbd43e33d40dfdbe4e45539b8e876"}, "vout": 1, "txid": "1ec4cf474cbeecd4ffec405d31b7efc1d5645024c803f6c0ec0a1b7489646eff"}, {"sequence": 4294967293, "scriptSig": {"hex": "4730440220328829d0fbfb3e460c581e2596a7526d0748faa0688676246096bc17909edeb202205fdfce890778a60e3d0868e47cb07c44ea44304b2676176e276cee5feddfd5240121032ce7f9093a96f15bfa30f19e3f6fc56c4f6d80c63e031634a3c41f68b96e51eb", "asm": "30440220328829d0fbfb3e460c581e2596a7526d0748faa0688676246096bc17909edeb202205fdfce890778a60e3d0868e47cb07c44ea44304b2676176e276cee5feddfd524[ALL] 032ce7f9093a96f15bfa30f19e3f6fc56c4f6d80c63e031634a3c41f68b96e51eb"}, "vout": 0, "txid": "2108dce6f9f684d40910fb7eecd74e63b479dd1c39e4bc1524623460f8cd0370"}, {"sequence": 4294967293, "scriptSig": {"hex": "483045022100c1ea745c38094deb9fe244b83e361dea1f4df583170e7aa041e15579d540307902204733e7350e7ff3806dae53b5a7090eca62724fa9c33e2c13e1acd42cbea4ea6d0121028d8b6b210734f5f39180944048e216000ca636d620cf3d95ebcef0c23f5e2cb7", "asm": "3045022100c1ea745c38094deb9fe244b83e361dea1f4df583170e7aa041e15579d540307902204733e7350e7ff3806dae53b5a7090eca62724fa9c33e2c13e1acd42cbea4ea6d[ALL] 028d8b6b210734f5f39180944048e216000ca636d620cf3d95ebcef0c23f5e2cb7"}, "vout": 0, "txid": "b49797d4e339174b6073819ab5fb6e57cbd51f7d0dfa0bf41ae2a65c89521d32"}], "txid": "609304adff65239c0a0d7303bd7229fd29602982c2e5e1e0164e20a2352b0319", "blocktime": 1537873891, "version": 1, "confirmations": 11479, "time": 1537873891, "locktime": 542996, "vsize": 634, "size": 634}