{"hash": "609d9f40aa1ced8dadebad35ef594624a04d15145ca3d00952b427c5bf4d9e75", "blockhash": "0000000000000000001f76057863aec43deb6fa401d9628bb513d65a8098bfab", "vout": [{"scriptPubKey": {"reqSigs": 1, "hex": "76a9143531f63763d64e7b65f1a1e649454ae10248b9e188ac", "addresses": ["15rGfaCzfMCTT6br3M5nNZktAgoJLhBejk"], "asm": "OP_DUP OP_HASH160 3531f63763d64e7b65f1a1e649454ae10248b9e1 OP_EQUALVERIFY OP_CHECKSIG", "type": "pubkeyhash"}, "value": 0.18503007, "n": 0}], "hex": "0100000009c579d9a33185fbd4defca90db32be3a6d9686d855494cfbe78a1929560087a0f000000006b483045022100d37caedb20090eb0a3611c1f00511e696b1b5235121b3914cf81c30d8fd1078902201c567a98e376087917afd3e301785d1b626ed5a951fc645e37f439192cb30392012102f4c010e26d2d56cddb8570c3044d2fb3444d819c609dbd48786339e0f152eb95fdffffff7aae534f50a0bf864c9b30b6925b32da6b10277d1eae9a9c251443d508c7061d000000006b483045022100e968a7d293430d8a543436a319271ee066d4c297c10f2bd5ad4e8b0cee910ee802204f8e3ba8bf9f95a2eaa997a922d161217ea35de2189f4d345bd199f6c7ac4e37012102f4c010e26d2d56cddb8570c3044d2fb3444d819c609dbd48786339e0f152eb95fdffffffdc46466b97d48abcd4c8ca4e2c5b0c96c600b6beaa71623759953e119d7d7941000000006b48304502210099abdad9c1483b520b000c9e223c4d6539e901ac84b3f5ff0f7d486631f306d40220268fbc464e3c1922c56952632090dd8b714d90a018951b8e56df8ff7a499b417012102f4c010e26d2d56cddb8570c3044d2fb3444d819c609dbd48786339e0f152eb95fdffffffa6598fc928250af9049cb4781a71c9c483dea6799dfe4d4008a63dadc2bde37c000000006b4830450221008975138e2ed78578616119ab79ac392cfcbb579765bf83a36757b2d3547e504f022054351d168214bc2147ec19b1e2d975705c4ad1a824ece986a12854efe48015cd012102f4c010e26d2d56cddb8570c3044d2fb3444d819c609dbd48786339e0f152eb95fdffffff21de69234926e6c43e7c6534502e1804c1e49c99160b2682cd58b5b913be9c8f000000006b483045022100aa8ea5a67f6a6143903fc5498e563b72b1975b9c917c0998d0684bf9275681f9022010508f200aafddd2dbd835dde49bfafe415629c01c0a40fb5df4ed0fe7f91623012102f4c010e26d2d56cddb8570c3044d2fb3444d819c609dbd48786339e0f152eb95fdffffff136754eb824ec94df98fb1f8ddf92de337c25c10529315d27d2049cf6b456499000000006b483045022100a2fc1f1ab0d82d05840f036c6041ae6aade504570a957e1dd4770b959ae16b5a02204e23ab91d9a2d7016a744644de3ee4bcc72b68e33fa1dcc4f5f1d8cd5ddd0fa2012102f4c010e26d2d56cddb8570c3044d2fb3444d819c609dbd48786339e0f152eb95fdffffff395dee7d7952e1a25129a7428365983b5e735a14265b61c265fbc4465c51d1a4000000006b483045022100f6e2813721a8627a45a0bca1b110f83395418684b40bcf4c1594dceada663256022078d09c93d17f07084827260acc3a9845aa9502479b1fb53910ff75e2a9ca55ea012102f4c010e26d2d56cddb8570c3044d2fb3444d819c609dbd48786339e0f152eb95fdffffff3890131ee0525e0a24d9fa3360ead8d0f82f87c623b08aaa85278701a411fbe9000000006b483045022100f055534ef5a7e28eff628d3b9edde9198d55e5fe35e17e15c09748bead7f5e9d022030c59abb044b2db9fa8a149ead04d8d640b864afedbaa1bd30cac08dbab5b6e0012102f4c010e26d2d56cddb8570c3044d2fb3444d819c609dbd48786339e0f152eb95fdffffff524c31186f73e65835fec1015ce57a3ac8bd100264e5eec70fce2da3de84e3f3000000006b483045022100ff4816e0a3eef4f5fb05a3527810e33fe68ba02023d642abaef9016d01c3ba2f02203dea2436ff996806e0fd82bb8f2f31ab28060f5cfedd8d6fe0c3b1d08c29d550012102f4c010e26d2d56cddb8570c3044d2fb3444d819c609dbd48786339e0f152eb95fdffffff015f551a01000000001976a9143531f63763d64e7b65f1a1e649454ae10248b9e188ac14490800", "vin": [{"sequence": 4294967293, "scriptSig": {"hex": "483045022100d37caedb20090eb0a3611c1f00511e696b1b5235121b3914cf81c30d8fd1078902201c567a98e376087917afd3e301785d1b626ed5a951fc645e37f439192cb30392012102f4c010e26d2d56cddb8570c3044d2fb3444d819c609dbd48786339e0f152eb95", "asm": "3045022100d37caedb20090eb0a3611c1f00511e696b1b5235121b3914cf81c30d8fd1078902201c567a98e376087917afd3e301785d1b626ed5a951fc645e37f439192cb30392[ALL] 02f4c010e26d2d56cddb8570c3044d2fb3444d819c609dbd48786339e0f152eb95"}, "vout": 0, "txid": "0f7a08609592a178becf9454856d68d9a6e32bb30da9fcded4fb8531a3d979c5"}, {"sequence": 4294967293, "scriptSig": {"hex": "483045022100e968a7d293430d8a543436a319271ee066d4c297c10f2bd5ad4e8b0cee910ee802204f8e3ba8bf9f95a2eaa997a922d161217ea35de2189f4d345bd199f6c7ac4e37012102f4c010e26d2d56cddb8570c3044d2fb3444d819c609dbd48786339e0f152eb95", "asm": "3045022100e968a7d293430d8a543436a319271ee066d4c297c10f2bd5ad4e8b0cee910ee802204f8e3ba8bf9f95a2eaa997a922d161217ea35de2189f4d345bd199f6c7ac4e37[ALL] 02f4c010e26d2d56cddb8570c3044d2fb3444d819c609dbd48786339e0f152eb95"}, "vout": 0, "txid": "1d06c708d54314259c9aae1e7d27106bda325b92b6309b4c86bfa0504f53ae7a"}, {"sequence": 4294967293, "scriptSig": {"hex": "48304502210099abdad9c1483b520b000c9e223c4d6539e901ac84b3f5ff0f7d486631f306d40220268fbc464e3c1922c56952632090dd8b714d90a018951b8e56df8ff7a499b417012102f4c010e26d2d56cddb8570c3044d2fb3444d819c609dbd48786339e0f152eb95", "asm": "304502210099abdad9c1483b520b000c9e223c4d6539e901ac84b3f5ff0f7d486631f306d40220268fbc464e3c1922c56952632090dd8b714d90a018951b8e56df8ff7a499b417[ALL] 02f4c010e26d2d56cddb8570c3044d2fb3444d819c609dbd48786339e0f152eb95"}, "vout": 0, "txid": "41797d9d113e9559376271aabeb600c6960c5b2c4ecac8d4bc8ad4976b4646dc"}, {"sequence": 4294967293, "scriptSig": {"hex": "4830450221008975138e2ed78578616119ab79ac392cfcbb579765bf83a36757b2d3547e504f022054351d168214bc2147ec19b1e2d975705c4ad1a824ece986a12854efe48015cd012102f4c010e26d2d56cddb8570c3044d2fb3444d819c609dbd48786339e0f152eb95", "asm": "30450221008975138e2ed78578616119ab79ac392cfcbb579765bf83a36757b2d3547e504f022054351d168214bc2147ec19b1e2d975705c4ad1a824ece986a12854efe48015cd[ALL] 02f4c010e26d2d56cddb8570c3044d2fb3444d819c609dbd48786339e0f152eb95"}, "vout": 0, "txid": "7ce3bdc2ad3da608404dfe9d79a6de83c4c9711a78b49c04f90a2528c98f59a6"}, {"sequence": 4294967293, "scriptSig": {"hex": "483045022100aa8ea5a67f6a6143903fc5498e563b72b1975b9c917c0998d0684bf9275681f9022010508f200aafddd2dbd835dde49bfafe415629c01c0a40fb5df4ed0fe7f91623012102f4c010e26d2d56cddb8570c3044d2fb3444d819c609dbd48786339e0f152eb95", "asm": "3045022100aa8ea5a67f6a6143903fc5498e563b72b1975b9c917c0998d0684bf9275681f9022010508f200aafddd2dbd835dde49bfafe415629c01c0a40fb5df4ed0fe7f91623[ALL] 02f4c010e26d2d56cddb8570c3044d2fb3444d819c609dbd48786339e0f152eb95"}, "vout": 0, "txid": "8f9cbe13b9b558cd82260b16999ce4c104182e5034657c3ec4e626492369de21"}, {"sequence": 4294967293, "scriptSig": {"hex": "483045022100a2fc1f1ab0d82d05840f036c6041ae6aade504570a957e1dd4770b959ae16b5a02204e23ab91d9a2d7016a744644de3ee4bcc72b68e33fa1dcc4f5f1d8cd5ddd0fa2012102f4c010e26d2d56cddb8570c3044d2fb3444d819c609dbd48786339e0f152eb95", "asm": "3045022100a2fc1f1ab0d82d05840f036c6041ae6aade504570a957e1dd4770b959ae16b5a02204e23ab91d9a2d7016a744644de3ee4bcc72b68e33fa1dcc4f5f1d8cd5ddd0fa2[ALL] 02f4c010e26d2d56cddb8570c3044d2fb3444d819c609dbd48786339e0f152eb95"}, "vout": 0, "txid": "9964456bcf49207dd2159352105cc237e32df9ddf8b18ff94dc94e82eb546713"}, {"sequence": 4294967293, "scriptSig": {"hex": "483045022100f6e2813721a8627a45a0bca1b110f83395418684b40bcf4c1594dceada663256022078d09c93d17f07084827260acc3a9845aa9502479b1fb53910ff75e2a9ca55ea012102f4c010e26d2d56cddb8570c3044d2fb3444d819c609dbd48786339e0f152eb95", "asm": "3045022100f6e2813721a8627a45a0bca1b110f83395418684b40bcf4c1594dceada663256022078d09c93d17f07084827260acc3a9845aa9502479b1fb53910ff75e2a9ca55ea[ALL] 02f4c010e26d2d56cddb8570c3044d2fb3444d819c609dbd48786339e0f152eb95"}, "vout": 0, "txid": "a4d1515c46c4fb65c2615b26145a735e3b98658342a72951a2e152797dee5d39"}, {"sequence": 4294967293, "scriptSig": {"hex": "483045022100f055534ef5a7e28eff628d3b9edde9198d55e5fe35e17e15c09748bead7f5e9d022030c59abb044b2db9fa8a149ead04d8d640b864afedbaa1bd30cac08dbab5b6e0012102f4c010e26d2d56cddb8570c3044d2fb3444d819c609dbd48786339e0f152eb95", "asm": "3045022100f055534ef5a7e28eff628d3b9edde9198d55e5fe35e17e15c09748bead7f5e9d022030c59abb044b2db9fa8a149ead04d8d640b864afedbaa1bd30cac08dbab5b6e0[ALL] 02f4c010e26d2d56cddb8570c3044d2fb3444d819c609dbd48786339e0f152eb95"}, "vout": 0, "txid": "e9fb11a401872785aa8ab023c6872ff8d0d8ea6033fad9240a5e52e01e139038"}, {"sequence": 4294967293, "scriptSig": {"hex": "483045022100ff4816e0a3eef4f5fb05a3527810e33fe68ba02023d642abaef9016d01c3ba2f02203dea2436ff996806e0fd82bb8f2f31ab28060f5cfedd8d6fe0c3b1d08c29d550012102f4c010e26d2d56cddb8570c3044d2fb3444d819c609dbd48786339e0f152eb95", "asm": "3045022100ff4816e0a3eef4f5fb05a3527810e33fe68ba02023d642abaef9016d01c3ba2f02203dea2436ff996806e0fd82bb8f2f31ab28060f5cfedd8d6fe0c3b1d08c29d550[ALL] 02f4c010e26d2d56cddb8570c3044d2fb3444d819c609dbd48786339e0f152eb95"}, "vout": 0, "txid": "f3e384dea32dce0fc7eee5640210bdc83a7ae55c01c1fe3558e6736f18314c52"}], "txid": "609d9f40aa1ced8dadebad35ef594624a04d15145ca3d00952b427c5bf4d9e75", "blocktime": 1537873891, "version": 1, "confirmations": 11477, "time": 1537873891, "locktime": 542996, "vsize": 1376, "size": 1376}