{"hash": "609e96ae632ae81e4ae00f4fd97b64cc0349095dd7a751a5b2290d7bee1e3cd0", "blockhash": "0000000000000000000dcc0f55137456b1a82d3642486a52398922ac4d620174", "vout": [{"scriptPubKey": {"reqSigs": 1, "hex": "76a9147c1b52d591133e37dd4c10df7631ee21fd06714988ac", "addresses": ["1CKDXGCKgBP88dbehRmdTcLUUMH7s6p9LU"], "asm": "OP_DUP OP_HASH160 7c1b52d591133e37dd4c10df7631ee21fd067149 OP_EQUALVERIFY OP_CHECKSIG", "type": "pubkeyhash"}, "value": 0.69554677, "n": 0}], "hex": "010000000681b882533f8d04b6d798f2c393dc603182641e500b20b30413896e3823d6c8ef000000006a473044022070cdd1444873afe927db33d45b885af830a3ec97dbe3a71da2dbcac2601efedf0220520d4d9075ae44607969fc29c9d3401fceacdba0ebd75f0002dd9808a53ec598012102148b5d23ba1fa0d22851287583036225c38407ccbbe5b44badc01fb67705c64fffffffff56778e3749a3aba86bcbe34e109a10ea77d22fb27f7d34817ec945e51430bc7e000000006b4830450221008f188f7372d6961cb6357fbbfedd4029014e8c0ca440606d9b4ca6c0db91f726022053f0000df5c1e4b594a6971f9ea944218de9857a9a710350554c8ba220dbb4a101210206bf3d9f45003ef0e4d999fb86f1cbcdc752bd99987d0a0a3e5b1cbd78c95c7affffffffd5845d722987562d51a304e05602a1f94186e515351c5300ec3c87be6572bca1010000006b483045022100cc966b404250d47e42657eea19c73b7d46e6045a940f8267a562fd3f9d1e5618022012942936a5f7cae21431b3d5865cb4d58df4c0b535424266da2ef39245af41de0121037292e292dc8dc83cbc76b106264cd15d438870f68ba6ddd8cd3c9cb1e9c377cdffffffff104b83a7ee502da434da7e560e887c9049e772c2c93d5e1c37ad25cae35abe68000000006a47304402202bcb8e640ffb101ace9dcb47c848680d009db37f8d1593cbff4841cf264f01f9022067cd75b6eb989693f91fa957218ee8364e98309e3db2acf485b0bb75338e8151012102ecbffd86c39556bb75afde0161f97d4de17f5cb99ec82d11a775d42265749b3fffffffffa02b2d0add117156f0d6a36203d2e000ffbcea6e80f3ca026dd519c1cb5e4125000000006a47304402206a3fee6d863dc634e0dedb4fbe485a8694621b05cb05fd13cd10f9eb30a31d26022059bb3fe79b9f646894c3c54f3b108ad5d1a2b029be8cc522ba8b0acc5afc7ab7012103c5479b686de0d87b44f70372907c37398927ad2a8f5025905465c9dd1bc6796efffffffff51a5796bc5cb476abaa5bf17b8c3a9aa56287eb355f127f3a712b8e88cdcb84010000006a473044022026eb761feb4d717cdfc0a0f6dfd221786640362fa656e3b9dd756f8a064a82720220432b8b95dd7cf862538d3f5429ac4bdd496024d755c3fef2912e87e7e371fcdd0121028bdca3de7ebcf4c7710a7a52e858a1e04d8f1ffe30e7f93f1538f7324ac8d925ffffffff01f5512504000000001976a9147c1b52d591133e37dd4c10df7631ee21fd06714988ac00000000", "vin": [{"sequence": 4294967295, "scriptSig": {"hex": "473044022070cdd1444873afe927db33d45b885af830a3ec97dbe3a71da2dbcac2601efedf0220520d4d9075ae44607969fc29c9d3401fceacdba0ebd75f0002dd9808a53ec598012102148b5d23ba1fa0d22851287583036225c38407ccbbe5b44badc01fb67705c64f", "asm": "3044022070cdd1444873afe927db33d45b885af830a3ec97dbe3a71da2dbcac2601efedf0220520d4d9075ae44607969fc29c9d3401fceacdba0ebd75f0002dd9808a53ec598[ALL] 02148b5d23ba1fa0d22851287583036225c38407ccbbe5b44badc01fb67705c64f"}, "vout": 0, "txid": "efc8d623386e891304b3200b501e64823160dc93c3f298d7b6048d3f5382b881"}, {"sequence": 4294967295, "scriptSig": {"hex": "4830450221008f188f7372d6961cb6357fbbfedd4029014e8c0ca440606d9b4ca6c0db91f726022053f0000df5c1e4b594a6971f9ea944218de9857a9a710350554c8ba220dbb4a101210206bf3d9f45003ef0e4d999fb86f1cbcdc752bd99987d0a0a3e5b1cbd78c95c7a", "asm": "30450221008f188f7372d6961cb6357fbbfedd4029014e8c0ca440606d9b4ca6c0db91f726022053f0000df5c1e4b594a6971f9ea944218de9857a9a710350554c8ba220dbb4a1[ALL] 0206bf3d9f45003ef0e4d999fb86f1cbcdc752bd99987d0a0a3e5b1cbd78c95c7a"}, "vout": 0, "txid": "7ebc3014e545c97e81347d7fb22fd277ea109a104ee3cb6ba8aba349378e7756"}, {"sequence": 4294967295, "scriptSig": {"hex": "483045022100cc966b404250d47e42657eea19c73b7d46e6045a940f8267a562fd3f9d1e5618022012942936a5f7cae21431b3d5865cb4d58df4c0b535424266da2ef39245af41de0121037292e292dc8dc83cbc76b106264cd15d438870f68ba6ddd8cd3c9cb1e9c377cd", "asm": "3045022100cc966b404250d47e42657eea19c73b7d46e6045a940f8267a562fd3f9d1e5618022012942936a5f7cae21431b3d5865cb4d58df4c0b535424266da2ef39245af41de[ALL] 037292e292dc8dc83cbc76b106264cd15d438870f68ba6ddd8cd3c9cb1e9c377cd"}, "vout": 1, "txid": "a1bc7265be873cec00531c3515e58641f9a10256e004a3512d568729725d84d5"}, {"sequence": 4294967295, "scriptSig": {"hex": "47304402202bcb8e640ffb101ace9dcb47c848680d009db37f8d1593cbff4841cf264f01f9022067cd75b6eb989693f91fa957218ee8364e98309e3db2acf485b0bb75338e8151012102ecbffd86c39556bb75afde0161f97d4de17f5cb99ec82d11a775d42265749b3f", "asm": "304402202bcb8e640ffb101ace9dcb47c848680d009db37f8d1593cbff4841cf264f01f9022067cd75b6eb989693f91fa957218ee8364e98309e3db2acf485b0bb75338e8151[ALL] 02ecbffd86c39556bb75afde0161f97d4de17f5cb99ec82d11a775d42265749b3f"}, "vout": 0, "txid": "68be5ae3ca25ad371c5e3dc9c272e749907c880e567eda34a42d50eea7834b10"}, {"sequence": 4294967295, "scriptSig": {"hex": "47304402206a3fee6d863dc634e0dedb4fbe485a8694621b05cb05fd13cd10f9eb30a31d26022059bb3fe79b9f646894c3c54f3b108ad5d1a2b029be8cc522ba8b0acc5afc7ab7012103c5479b686de0d87b44f70372907c37398927ad2a8f5025905465c9dd1bc6796e", "asm": "304402206a3fee6d863dc634e0dedb4fbe485a8694621b05cb05fd13cd10f9eb30a31d26022059bb3fe79b9f646894c3c54f3b108ad5d1a2b029be8cc522ba8b0acc5afc7ab7[ALL] 03c5479b686de0d87b44f70372907c37398927ad2a8f5025905465c9dd1bc6796e"}, "vout": 0, "txid": "25415ecbc119d56d02caf3806eeabcff00e0d20362a3d6f0567111dd0a2d2ba0"}, {"sequence": 4294967295, "scriptSig": {"hex": "473044022026eb761feb4d717cdfc0a0f6dfd221786640362fa656e3b9dd756f8a064a82720220432b8b95dd7cf862538d3f5429ac4bdd496024d755c3fef2912e87e7e371fcdd0121028bdca3de7ebcf4c7710a7a52e858a1e04d8f1ffe30e7f93f1538f7324ac8d925", "asm": "3044022026eb761feb4d717cdfc0a0f6dfd221786640362fa656e3b9dd756f8a064a82720220432b8b95dd7cf862538d3f5429ac4bdd496024d755c3fef2912e87e7e371fcdd[ALL] 028bdca3de7ebcf4c7710a7a52e858a1e04d8f1ffe30e7f93f1538f7324ac8d925"}, "vout": 1, "txid": "84cbcd888e2b713a7f125f35eb8762a59a3a8c7bf15baaab76b45cbc96571af5"}], "txid": "609e96ae632ae81e4ae00f4fd97b64cc0349095dd7a751a5b2290d7bee1e3cd0", "blocktime": 1537870268, "version": 1, "confirmations": 11516, "time": 1537870268, "locktime": 0, "vsize": 928, "size": 928}