{"hash": "4cff5d3ce25ec9136d11d68edaf63fc4309c69b9863f38bee36f065b360f9ee2", "blockhash": "0000000000000000000e13cef7c366c0283d82e591d1acd082e914b08063cdf1", "vout": [{"scriptPubKey": {"reqSigs": 1, "hex": "00147ea5640ccb9da493b1c908a3e1025d4dca384c27", "addresses": ["bc1q06jkgrxtnkjf8vwfpz37zqjafh9rsnp8hhsdjq"], "asm": "0 7ea5640ccb9da493b1c908a3e1025d4dca384c27", "type": "witness_v0_keyhash"}, "value": 0.37413828, "n": 0}, {"scriptPubKey": {"reqSigs": 1, "hex": "76a914ef70b835dab4612205b45e6c3844b0c81a0c7b7788ac", "addresses": ["1Nq3XjxSSaGKFiugC69JHfmjJX3imozsVL"], "asm": "OP_DUP OP_HASH160 ef70b835dab4612205b45e6c3844b0c81a0c7b77 OP_EQUALVERIFY OP_CHECKSIG", "type": "pubkeyhash"}, "value": 0.00928464, "n": 1}], "hex": "0100000000010155908eb47b3658a4009f98d596532cbb1763a0328509043c8dda6d587271c1d80100000017160014fd3379cbdc78f6074e9d18fb5a8e8a0a95bceb97ffffffff02c4e33a02000000001600147ea5640ccb9da493b1c908a3e1025d4dca384c27d02a0e00000000001976a914ef70b835dab4612205b45e6c3844b0c81a0c7b7788ac02473044022075df74d1c68dcf22de3cb6a0781363b4b7478188fc3da6f04c74d3a326802e2302206c017c313cc2f6ae3e83c74f0ca39fec79f0939f80e2298cb284ba703ec5f20d0121039fb611127bce8ecd56fadd98f228b07ebc032d0e1e0554ee7bf729c832715f8900000000", "vin": [{"txinwitness": ["3044022075df74d1c68dcf22de3cb6a0781363b4b7478188fc3da6f04c74d3a326802e2302206c017c313cc2f6ae3e83c74f0ca39fec79f0939f80e2298cb284ba703ec5f20d01", "039fb611127bce8ecd56fadd98f228b07ebc032d0e1e0554ee7bf729c832715f89"], "sequence": 4294967295, "scriptSig": {"hex": "160014fd3379cbdc78f6074e9d18fb5a8e8a0a95bceb97", "asm": "0014fd3379cbdc78f6074e9d18fb5a8e8a0a95bceb97"}, "vout": 1, "txid": "d8c17172586dda8d3c04098532a06317bb2c5396d5989f00a458367bb48e9055"}], "txid": "60ab2806a87b2524086f16b7a2f9b3da63068f870b6a8076f685a36cb5b59f9f", "blocktime": 1537871767, "version": 1, "confirmations": 11495, "time": 1537871767, "locktime": 0, "vsize": 167, "size": 248}