{"hash": "60afc45ecff444a85c27f63b9e76078cd39f2afbb9ffe8cbb807779040aac7dc", "blockhash": "0000000000000000001f0ddff1eddb255c1121bcd4da4f1bc9a0da00cae72433", "vout": [{"scriptPubKey": {"reqSigs": 1, "hex": "76a9147221cae577c803fece9844bf808031ac96d3653c88ac", "addresses": ["1BQUWpPxgnyfYJZvRgKDFrexjwwZyPCpxf"], "asm": "OP_DUP OP_HASH160 7221cae577c803fece9844bf808031ac96d3653c OP_EQUALVERIFY OP_CHECKSIG", "type": "pubkeyhash"}, "value": 0.00739662, "n": 0}, {"scriptPubKey": {"reqSigs": 1, "hex": "76a914940884323f962987096a2d496db08fa02fb5a3bc88ac", "addresses": ["1EVjD7yGEMB6opmYwQ7TXAYyRhmDjUeSVL"], "asm": "OP_DUP OP_HASH160 940884323f962987096a2d496db08fa02fb5a3bc OP_EQUALVERIFY OP_CHECKSIG", "type": "pubkeyhash"}, "value": 0.0111451, "n": 1}], "hex": "0100000002650bc4e503ec5cf35d06955d143cd0bbde04b36193b8271b6f60f0034df6c812010000006b483045022100b774d475d828753d34a49ef6978dd66fa258103c8b532a3509500fbd715af57f0220771163d5703828333e954519f83585137a95bddafedf8d3a52a6b5f765aedfc9012103ce6532fe6f621669677d7fc94846b093b9c07f61748b13f2fcb065309d383677ffffffffd32e9bc8f96e5820b6f8f00e20b3e7898ef72fa21e66824837cac59cb701ec59010000006b483045022100b595d792dc89ca19652384de014df5a493fc7ca4c2940f9a6cbb02d700e8fcac0220770e6d4ae7a237558dac422ba5038707cf023d84d4d9cc2bf3561fdcacfffd78012103376182285cbb766994faa583e58b128ea00f0e06e2f1690194dcfc4c64c4637bffffffff024e490b00000000001976a9147221cae577c803fece9844bf808031ac96d3653c88ac8e011100000000001976a914940884323f962987096a2d496db08fa02fb5a3bc88ac00000000", "vin": [{"sequence": 4294967295, "scriptSig": {"hex": "483045022100b774d475d828753d34a49ef6978dd66fa258103c8b532a3509500fbd715af57f0220771163d5703828333e954519f83585137a95bddafedf8d3a52a6b5f765aedfc9012103ce6532fe6f621669677d7fc94846b093b9c07f61748b13f2fcb065309d383677", "asm": "3045022100b774d475d828753d34a49ef6978dd66fa258103c8b532a3509500fbd715af57f0220771163d5703828333e954519f83585137a95bddafedf8d3a52a6b5f765aedfc9[ALL] 03ce6532fe6f621669677d7fc94846b093b9c07f61748b13f2fcb065309d383677"}, "vout": 1, "txid": "12c8f64d03f0606f1b27b89361b304debbd03c145d95065df35cec03e5c40b65"}, {"sequence": 4294967295, "scriptSig": {"hex": "483045022100b595d792dc89ca19652384de014df5a493fc7ca4c2940f9a6cbb02d700e8fcac0220770e6d4ae7a237558dac422ba5038707cf023d84d4d9cc2bf3561fdcacfffd78012103376182285cbb766994faa583e58b128ea00f0e06e2f1690194dcfc4c64c4637b", "asm": "3045022100b595d792dc89ca19652384de014df5a493fc7ca4c2940f9a6cbb02d700e8fcac0220770e6d4ae7a237558dac422ba5038707cf023d84d4d9cc2bf3561fdcacfffd78[ALL] 03376182285cbb766994faa583e58b128ea00f0e06e2f1690194dcfc4c64c4637b"}, "vout": 1, "txid": "59ec01b79cc5ca374882661ea22ff78e89e7b3200ef0f8b620586ef9c89b2ed3"}], "txid": "60afc45ecff444a85c27f63b9e76078cd39f2afbb9ffe8cbb807779040aac7dc", "blocktime": 1537872018, "version": 1, "confirmations": 11489, "time": 1537872018, "locktime": 0, "vsize": 374, "size": 374}