{"hash": "60b2511933b8300eb8a813fd3bd2634fdf9fa329bec066ead1f78e3d354b9d53", "blockhash": "0000000000000000001f76057863aec43deb6fa401d9628bb513d65a8098bfab", "vout": [{"scriptPubKey": {"reqSigs": 1, "hex": "76a91481a4fa0e9e3c9ba7d1410ccae49f0fe33a6ddb0a88ac", "addresses": ["1CpVoXyrFV2pgQcfYHmjaYUqZ1DJCYX36h"], "asm": "OP_DUP OP_HASH160 81a4fa0e9e3c9ba7d1410ccae49f0fe33a6ddb0a OP_EQUALVERIFY OP_CHECKSIG", "type": "pubkeyhash"}, "value": 0.0063552, "n": 0}, {"scriptPubKey": {"type": "nulldata", "hex": "6a4c50000077e6000161dc3a54468767839737f9e07af8e8e963c7cfd5b95b23cc0f42c2fc38c57f206ed8c891b25601c22469470d78a35baa175506124534b18816651d100759d4ba30d2c37bb011d97e02cf", "asm": "OP_RETURN 000077e6000161dc3a54468767839737f9e07af8e8e963c7cfd5b95b23cc0f42c2fc38c57f206ed8c891b25601c22469470d78a35baa175506124534b18816651d100759d4ba30d2c37bb011d97e02cf"}, "value": 0.0, "n": 1}], "hex": "01000000019076d50a3647ffd08c4571edc4e02f563f9fe2983370c76598546b130f10f804000000006b483045022100acbc776dcf66385b4e62cd6490fe809f3c2307e0b3a6703ff9fc154914cb2bd702200a112e77a9dcb5c84ce630827c714d96df68fc96b86d1984e7854108b666d4b001210346d62b0215f4cb8cd39d98de486b36c686411ca74a4b5dee3d5a87222c746c89ffffffff0280b20900000000001976a91481a4fa0e9e3c9ba7d1410ccae49f0fe33a6ddb0a88ac0000000000000000536a4c50000077e6000161dc3a54468767839737f9e07af8e8e963c7cfd5b95b23cc0f42c2fc38c57f206ed8c891b25601c22469470d78a35baa175506124534b18816651d100759d4ba30d2c37bb011d97e02cf00000000", "vin": [{"sequence": 4294967295, "scriptSig": {"hex": "483045022100acbc776dcf66385b4e62cd6490fe809f3c2307e0b3a6703ff9fc154914cb2bd702200a112e77a9dcb5c84ce630827c714d96df68fc96b86d1984e7854108b666d4b001210346d62b0215f4cb8cd39d98de486b36c686411ca74a4b5dee3d5a87222c746c89", "asm": "3045022100acbc776dcf66385b4e62cd6490fe809f3c2307e0b3a6703ff9fc154914cb2bd702200a112e77a9dcb5c84ce630827c714d96df68fc96b86d1984e7854108b666d4b0[ALL] 0346d62b0215f4cb8cd39d98de486b36c686411ca74a4b5dee3d5a87222c746c89"}, "vout": 0, "txid": "04f8100f136b549865c7703398e29f3f562fe0c4ed71458cd0ff47360ad57690"}], "txid": "60b2511933b8300eb8a813fd3bd2634fdf9fa329bec066ead1f78e3d354b9d53", "blocktime": 1537873891, "version": 1, "confirmations": 11478, "time": 1537873891, "locktime": 0, "vsize": 284, "size": 284}