{"hash": "60b2aac53faa8ca4af09ca12bbcf7660db68188fd1d3525c291f21cafc1e0474", "blockhash": "00000000000000000017f5eb5941039fbcee6240d03bc1f2f8e35350df66a1d8", "vout": [{"scriptPubKey": {"reqSigs": 1, "hex": "76a9149783381b3e4c6e6ea06b0544244c5b0e17dc962188ac", "addresses": ["1Ep8EEZiR47Zhcb84RYpbPgsqgL77MjKXP"], "asm": "OP_DUP OP_HASH160 9783381b3e4c6e6ea06b0544244c5b0e17dc9621 OP_EQUALVERIFY OP_CHECKSIG", "type": "pubkeyhash"}, "value": 0.01563947, "n": 0}, {"scriptPubKey": {"reqSigs": 1, "hex": "76a9142e340ad47b3c804bcc720b43e719e1b64bcfa64488ac", "addresses": ["15DJRneD2uQyaBGBHmALijqP4PmwqYYxaM"], "asm": "OP_DUP OP_HASH160 2e340ad47b3c804bcc720b43e719e1b64bcfa644 OP_EQUALVERIFY OP_CHECKSIG", "type": "pubkeyhash"}, "value": 0.16824375, "n": 1}], "hex": "01000000016f4af0b0082306a91f1d09e3dc4b3ffe3fe8e8fec69e9c898ece41f297edc08f010000006b483045022100b264cf4b659297514373dbf1b6f270151cda31980e509e91fc2f79040042aa0802204e60fb2758f2f3e733b23dbf4a4633d0ba5128903f85d5df6c76073ffda028ef012102b9a21cd5947808639b2fd56007d9cf4cc3ef7bc44452e158067ee18dd9ad40d3ffffffff022bdd1700000000001976a9149783381b3e4c6e6ea06b0544244c5b0e17dc962188ac37b80001000000001976a9142e340ad47b3c804bcc720b43e719e1b64bcfa64488ac00000000", "vin": [{"sequence": 4294967295, "scriptSig": {"hex": "483045022100b264cf4b659297514373dbf1b6f270151cda31980e509e91fc2f79040042aa0802204e60fb2758f2f3e733b23dbf4a4633d0ba5128903f85d5df6c76073ffda028ef012102b9a21cd5947808639b2fd56007d9cf4cc3ef7bc44452e158067ee18dd9ad40d3", "asm": "3045022100b264cf4b659297514373dbf1b6f270151cda31980e509e91fc2f79040042aa0802204e60fb2758f2f3e733b23dbf4a4633d0ba5128903f85d5df6c76073ffda028ef[ALL] 02b9a21cd5947808639b2fd56007d9cf4cc3ef7bc44452e158067ee18dd9ad40d3"}, "vout": 1, "txid": "8fc0ed97f241ce8e899c9ec6fee8e83ffe3f4bdce3091d1fa9062308b0f04a6f"}], "txid": "60b2aac53faa8ca4af09ca12bbcf7660db68188fd1d3525c291f21cafc1e0474", "blocktime": 1537874412, "version": 1, "confirmations": 11467, "time": 1537874412, "locktime": 0, "vsize": 226, "size": 226}