{"hash": "36910ee5fd7146870e600f28fd93dce4981b4d1d3f734eaa2bedf613e07a1a8f", "blockhash": "0000000000000000001e0dab787dd257d1dbfcb92a98c2207d5e1078be1f4165", "vout": [{"scriptPubKey": {"reqSigs": 1, "hex": "a91469f373c62b41f0b8cbe614da114297088944290287", "addresses": ["3BMEX3XJcsnqXpdGZrBX23ouAwL2wzSm4J"], "asm": "OP_HASH160 69f373c62b41f0b8cbe614da1142970889442902 OP_EQUAL", "type": "scripthash"}, "value": 0.0201, "n": 0}, {"scriptPubKey": {"reqSigs": 1, "hex": "a914f174b174b06daaf15862213114b99e04d54cc5f087", "addresses": ["3PhiZm1haJBNMgKQtVBGyqKNRf595PHDWs"], "asm": "OP_HASH160 f174b174b06daaf15862213114b99e04d54cc5f0 OP_EQUAL", "type": "scripthash"}, "value": 13.09511045, "n": 1}, {"scriptPubKey": {"reqSigs": 1, "hex": "a91492e9f40fb4812814c4c3acb2b9c6f41d43b2ad3987", "addresses": ["3F5pqv4ph4dBTYGCcDRJKfzNjLBB5fioKk"], "asm": "OP_HASH160 92e9f40fb4812814c4c3acb2b9c6f41d43b2ad39 OP_EQUAL", "type": "scripthash"}, "value": 0.00091097, "n": 2}], "hex": "020000000001018ac045751b137c17e5696c09f74ac5ef08e7f577b02cff5be8727c432fbab5cb0300000017160014994dc53dcacb1d56efb31f0b27adb966658a3a88feffffff0390ab1e000000000017a91469f373c62b41f0b8cbe614da114297088944290287858d0d4e0000000017a914f174b174b06daaf15862213114b99e04d54cc5f087d96301000000000017a91492e9f40fb4812814c4c3acb2b9c6f41d43b2ad398702483045022100deea985d6b623d697c0f1fd8db19674310e19e5fda216895de3b7653bd6b63de02202c0532ebfa77c7233df514cde4cf04cf966e56504a74f60723d00ebf1a3fd9cd0121031d25038a8a96456320e85426e467c1fe677f8cf49dab5f3a0607a1bdc9f8dd7c12490800", "vin": [{"txinwitness": ["3045022100deea985d6b623d697c0f1fd8db19674310e19e5fda216895de3b7653bd6b63de02202c0532ebfa77c7233df514cde4cf04cf966e56504a74f60723d00ebf1a3fd9cd01", "031d25038a8a96456320e85426e467c1fe677f8cf49dab5f3a0607a1bdc9f8dd7c"], "sequence": 4294967294, "scriptSig": {"hex": "160014994dc53dcacb1d56efb31f0b27adb966658a3a88", "asm": "0014994dc53dcacb1d56efb31f0b27adb966658a3a88"}, "vout": 3, "txid": "cbb5ba2f437c72e85bff2cb077f5e708efc54af7096c69e5177c131b7545c08a"}], "txid": "60bc68ec307b3e74b604f437d597523073a7d8c4d7e7e89e92b8c3d65863bfcd", "blocktime": 1537872475, "version": 2, "confirmations": 11486, "time": 1537872475, "locktime": 542994, "vsize": 198, "size": 280}