{"hash": "60bd03f70cd34329a78e252727752739bc4d173db66e4187938e6c31350c9eae", "blockhash": "0000000000000000001e0dab787dd257d1dbfcb92a98c2207d5e1078be1f4165", "vout": [{"scriptPubKey": {"reqSigs": 1, "hex": "a914e6b090f22a46dd466b8cbec0ace4eec683ef66e887", "addresses": ["3NinrhVu5t1YB7zpZbgFpzNRPRiHCoChLR"], "asm": "OP_HASH160 e6b090f22a46dd466b8cbec0ace4eec683ef66e8 OP_EQUAL", "type": "scripthash"}, "value": 0.01562287, "n": 0}, {"scriptPubKey": {"reqSigs": 1, "hex": "76a914c95bf7213f7e11963912359761b9c22cbf2b08a888ac", "addresses": ["1KMgzRWPT5j1BMbH2FE9Si9jNatFJRJEtb"], "asm": "OP_DUP OP_HASH160 c95bf7213f7e11963912359761b9c22cbf2b08a8 OP_EQUALVERIFY OP_CHECKSIG", "type": "pubkeyhash"}, "value": 0.01740512, "n": 1}], "hex": "0100000001e9e7dd875dc95752da175c6e65c36a5c45e95cae2de5c9bf491df6a4304c7be6000000006a47304402201ab55b37cacbfffead566c16d9495c1c55c84c09beb98d3790c7da22fa48c74c0220085725f9bf72928864e5ec044f95fd88e34d67a862719d21e7ca4266a27acb0a0121020c3da9c871abb807146e237607679507904183989a8c46568f7ee85d8fd942acffffffff02afd617000000000017a914e6b090f22a46dd466b8cbec0ace4eec683ef66e887e08e1a00000000001976a914c95bf7213f7e11963912359761b9c22cbf2b08a888ac00000000", "vin": [{"sequence": 4294967295, "scriptSig": {"hex": "47304402201ab55b37cacbfffead566c16d9495c1c55c84c09beb98d3790c7da22fa48c74c0220085725f9bf72928864e5ec044f95fd88e34d67a862719d21e7ca4266a27acb0a0121020c3da9c871abb807146e237607679507904183989a8c46568f7ee85d8fd942ac", "asm": "304402201ab55b37cacbfffead566c16d9495c1c55c84c09beb98d3790c7da22fa48c74c0220085725f9bf72928864e5ec044f95fd88e34d67a862719d21e7ca4266a27acb0a[ALL] 020c3da9c871abb807146e237607679507904183989a8c46568f7ee85d8fd942ac"}, "vout": 0, "txid": "e67b4c30a4f61d49bfc9e52dae5ce9455c6ac3656e5c17da5257c95d87dde7e9"}], "txid": "60bd03f70cd34329a78e252727752739bc4d173db66e4187938e6c31350c9eae", "blocktime": 1537872475, "version": 1, "confirmations": 11486, "time": 1537872475, "locktime": 0, "vsize": 223, "size": 223}