{"hash": "da15dba45282d4625e571ddc25c3d0cd730624565822b229afa6f0ef83c50fb7", "blockhash": "00000000000000000004ffacab907a6b429b9a5745fa0b75af4234bf69dd7176", "vout": [{"scriptPubKey": {"reqSigs": 1, "hex": "76a914b4bc6f74df1aa15f0a2ceed539a4957ead16fa1088ac", "addresses": ["1HUeNFSersS8PyVmdGEnCju6CUL6KKwZyy"], "asm": "OP_DUP OP_HASH160 b4bc6f74df1aa15f0a2ceed539a4957ead16fa10 OP_EQUALVERIFY OP_CHECKSIG", "type": "pubkeyhash"}, "value": 0.00174452, "n": 0}, {"scriptPubKey": {"reqSigs": 1, "hex": "a9141988a27e3c2df4ddee7fad5a2303d086179b2a3087", "addresses": ["3422VtS7UtCvXYxoXMVp6eZupR252z85oC"], "asm": "OP_HASH160 1988a27e3c2df4ddee7fad5a2303d086179b2a30 OP_EQUAL", "type": "scripthash"}, "value": 2.69739777, "n": 1}], "hex": "010000000001019417b93fcb3ac8e729978e8db446a34ed7c1d630477ecf043154fb6da4cbb938030000002322002065d416c48a8072e0ac51c2d111eb194f009caef0332446c1bf2097316cf07fa9ffffffff0274a90200000000001976a914b4bc6f74df1aa15f0a2ceed539a4957ead16fa1088ac01e713100000000017a9141988a27e3c2df4ddee7fad5a2303d086179b2a30870400483045022100a03f61e739215ce4b1f603e73c8d4b1c09476be27e9c00dd528070ab3b01a400022076acc257851a5b77e96456f2ca23c337a1c85835b4a66f065adce5e1bdb7f3a001483045022100e962941231d99d45835932f404fa0ff5dd354d633a03c7bd38016812b2e639570220784d96badaf3057770db730bd6890f548bc6dabada1fc623a5d45a2f40e012640169522102f44abcf9e23c9a460da309ccca56c619c04eed3bde2c2cff5e7d78fbcd980b9c2103c9443cf3047bb6c2c82f1b0c44c36109cdc3d0d601d16d1189a1602bf8d1a0a02103bfe867059274412412e088af5572b92168c2ef495cfe6c9b7a753a009eb37c4853ae00000000", "vin": [{"txinwitness": ["", "3045022100a03f61e739215ce4b1f603e73c8d4b1c09476be27e9c00dd528070ab3b01a400022076acc257851a5b77e96456f2ca23c337a1c85835b4a66f065adce5e1bdb7f3a001", "3045022100e962941231d99d45835932f404fa0ff5dd354d633a03c7bd38016812b2e639570220784d96badaf3057770db730bd6890f548bc6dabada1fc623a5d45a2f40e0126401", "522102f44abcf9e23c9a460da309ccca56c619c04eed3bde2c2cff5e7d78fbcd980b9c2103c9443cf3047bb6c2c82f1b0c44c36109cdc3d0d601d16d1189a1602bf8d1a0a02103bfe867059274412412e088af5572b92168c2ef495cfe6c9b7a753a009eb37c4853ae"], "sequence": 4294967295, "scriptSig": {"hex": "22002065d416c48a8072e0ac51c2d111eb194f009caef0332446c1bf2097316cf07fa9", "asm": "002065d416c48a8072e0ac51c2d111eb194f009caef0332446c1bf2097316cf07fa9"}, "vout": 3, "txid": "38b9cba46dfb543104cf7e4730d6c1d74ea346b48d8e9729e7c83acb3fb91794"}], "txid": "60bf4820c8c77c66c645687da37680030504ab9446339f5a074ade09330d951f", "blocktime": 1537875543, "version": 1, "confirmations": 11464, "time": 1537875543, "locktime": 0, "vsize": 216, "size": 408}