{"hash": "60c5564fd02256e886001b7fe275034a13ac2088c4305494e4351b7d8307b54a", "blockhash": "0000000000000000000e13cef7c366c0283d82e591d1acd082e914b08063cdf1", "vout": [{"scriptPubKey": {"reqSigs": 1, "hex": "001428873ccaeece8095e4947f79181f2d0025c968e6", "addresses": ["bc1q9zrnejhwe6qftey50au3s8edqqjuj68xcqgh0r"], "asm": "0 28873ccaeece8095e4947f79181f2d0025c968e6", "type": "witness_v0_keyhash"}, "value": 1.983e-05, "n": 0}, {"scriptPubKey": {"reqSigs": 1, "hex": "76a914cca71283c917368c755fd63f3fb814caa67c712c88ac", "addresses": ["1Kf6zXGpQ1WDamvi2tHP3GaircFFr6ib3L"], "asm": "OP_DUP OP_HASH160 cca71283c917368c755fd63f3fb814caa67c712c OP_EQUALVERIFY OP_CHECKSIG", "type": "pubkeyhash"}, "value": 0.00250326, "n": 1}], "hex": "01000000012d2c9d069c77e1d0084f10695fd1a0c7a48e3c09344d9a8e125f78e6201a4047e60000006a4730440220570e9453f7868ef42d47a69603f2a65541e62aa5bdd0911e4100e28f56d5886902201d62afcb979b40adbeffe7cc26bfdef60a725b20cd719b0b3ddd946dd0e120a3012103a8e7c7aa9695cbf2dd6c2b6306a4d0a3cf9268d4166a888c0ec91f29dc3ed669ffffffff02bf0700000000000016001428873ccaeece8095e4947f79181f2d0025c968e6d6d10300000000001976a914cca71283c917368c755fd63f3fb814caa67c712c88ac00000000", "vin": [{"sequence": 4294967295, "scriptSig": {"hex": "4730440220570e9453f7868ef42d47a69603f2a65541e62aa5bdd0911e4100e28f56d5886902201d62afcb979b40adbeffe7cc26bfdef60a725b20cd719b0b3ddd946dd0e120a3012103a8e7c7aa9695cbf2dd6c2b6306a4d0a3cf9268d4166a888c0ec91f29dc3ed669", "asm": "30440220570e9453f7868ef42d47a69603f2a65541e62aa5bdd0911e4100e28f56d5886902201d62afcb979b40adbeffe7cc26bfdef60a725b20cd719b0b3ddd946dd0e120a3[ALL] 03a8e7c7aa9695cbf2dd6c2b6306a4d0a3cf9268d4166a888c0ec91f29dc3ed669"}, "vout": 230, "txid": "47401a20e6785f128e9a4d34093c8ea4c7a0d15f69104f08d0e1779c069d2c2d"}], "txid": "60c5564fd02256e886001b7fe275034a13ac2088c4305494e4351b7d8307b54a", "blocktime": 1537871767, "version": 1, "confirmations": 11495, "time": 1537871767, "locktime": 0, "vsize": 222, "size": 222}