{"hash": "0ae6f867e5e2c0d204149e977b0321f59c1c1335039b15b4cfe1fc9359f829af", "blockhash": "0000000000000000001f76057863aec43deb6fa401d9628bb513d65a8098bfab", "vout": [{"scriptPubKey": {"reqSigs": 1, "hex": "a914946d862b592a2f831c2c0b4a79765edc02dd250987", "addresses": ["3FDq8oVjJstNRU9ARuSnAr9tRipcpuwyHU"], "asm": "OP_HASH160 946d862b592a2f831c2c0b4a79765edc02dd2509 OP_EQUAL", "type": "scripthash"}, "value": 0.00999264, "n": 0}, {"scriptPubKey": {"reqSigs": 1, "hex": "76a9145c9ef653a4727ac27b54fd182eee988058dde40688ac", "addresses": ["19SjbY8GJP6QBSBY67qPZUQqjm4dLL1Fgm"], "asm": "OP_DUP OP_HASH160 5c9ef653a4727ac27b54fd182eee988058dde406 OP_EQUALVERIFY OP_CHECKSIG", "type": "pubkeyhash"}, "value": 0.00462497, "n": 1}], "hex": "020000000001028c437f76001b89941f796ab77a3787ea46681cd1abc4bca664cc7d8aa62bac9e0e000000171600140f2d2c9f62ba39b4ccfed7f262c69eb45c5e2f9cfeffffff8c8cb2a61c49980d6c19de8601e21a5a579ebde3fb218eef5a502c913ec04e800100000017160014cb9fa6ba7fe4331067828b3e7123ab43b863b862feffffff02603f0f000000000017a914946d862b592a2f831c2c0b4a79765edc02dd250987a10e0700000000001976a9145c9ef653a4727ac27b54fd182eee988058dde40688ac0247304402206c7a7b32625cc8a73fb9d833358ce49d23315490dbbbc37e23fa1e30339e267d022025fc8236538040c5ff15ad154cea11340f13a7cc8cf90216897391072f691103012103a622d9202cf0f4e4bdc107e85fae372cebbf670a5be34757843bc318fe403d310247304402205495508a2b688369d078e68ff49fb2b6d0c1cbe657c4ab9ab4b3336b891199cd02207e966daaeca80674453f4d442f82124e0e4878366243f62d438a7efea0e1bd330121022a2520e6c5f30d2f76f609b3169c148bcfb3a71f667d2ff975e2e0fac35f062b14490800", "vin": [{"txinwitness": ["304402206c7a7b32625cc8a73fb9d833358ce49d23315490dbbbc37e23fa1e30339e267d022025fc8236538040c5ff15ad154cea11340f13a7cc8cf90216897391072f69110301", "03a622d9202cf0f4e4bdc107e85fae372cebbf670a5be34757843bc318fe403d31"], "sequence": 4294967294, "scriptSig": {"hex": "1600140f2d2c9f62ba39b4ccfed7f262c69eb45c5e2f9c", "asm": "00140f2d2c9f62ba39b4ccfed7f262c69eb45c5e2f9c"}, "vout": 14, "txid": "9eac2ba68a7dcc64a6bcc4abd11c6846ea87377ab76a791f94891b00767f438c"}, {"txinwitness": ["304402205495508a2b688369d078e68ff49fb2b6d0c1cbe657c4ab9ab4b3336b891199cd02207e966daaeca80674453f4d442f82124e0e4878366243f62d438a7efea0e1bd3301", "022a2520e6c5f30d2f76f609b3169c148bcfb3a71f667d2ff975e2e0fac35f062b"], "sequence": 4294967294, "scriptSig": {"hex": "160014cb9fa6ba7fe4331067828b3e7123ab43b863b862", "asm": "0014cb9fa6ba7fe4331067828b3e7123ab43b863b862"}, "vout": 1, "txid": "804ec03e912c505aef8e21fbe3bd9e575a1ae20186de196c0d98491ca6b28c8c"}], "txid": "60c8372f1f7b0b40a839a647b3250e11787173065bf0ee44794b920f6aac28e0", "blocktime": 1537873891, "version": 2, "confirmations": 11478, "time": 1537873891, "locktime": 542996, "vsize": 258, "size": 420}