{"hash": "60c8a3fc61f90fe076fa732bade5dde4d841e6deb3f5548610240b1de06205ff", "blockhash": "0000000000000000000e13cef7c366c0283d82e591d1acd082e914b08063cdf1", "vout": [{"scriptPubKey": {"reqSigs": 1, "hex": "76a914f40329ce772c34b22e22a9b57d1a633b4ca5647f88ac", "addresses": ["1PFDfbdPGbNCoCzuQfxChW89JaU53AUPE5"], "asm": "OP_DUP OP_HASH160 f40329ce772c34b22e22a9b57d1a633b4ca5647f OP_EQUALVERIFY OP_CHECKSIG", "type": "pubkeyhash"}, "value": 0.02909637, "n": 0}], "hex": "0100000001d600bbb7fda888d505bd65c6f7c675221db6814f2175941bc0d11763029bb7e8010000006a47304402204bff2b1fbd21b8c454994b3ac36dfd1814dcd7eb164c5d1d71d817c0004a4b8402207d95f155a682add491919fe6033d4f944ae35880db61c38ecc40620e4dd0a82a012102308d33098f4f8cbd179437010bf730d0a8cef16b06d38f02cf1a2f6632bf90bdffffffff01c5652c00000000001976a914f40329ce772c34b22e22a9b57d1a633b4ca5647f88ac00000000", "vin": [{"sequence": 4294967295, "scriptSig": {"hex": "47304402204bff2b1fbd21b8c454994b3ac36dfd1814dcd7eb164c5d1d71d817c0004a4b8402207d95f155a682add491919fe6033d4f944ae35880db61c38ecc40620e4dd0a82a012102308d33098f4f8cbd179437010bf730d0a8cef16b06d38f02cf1a2f6632bf90bd", "asm": "304402204bff2b1fbd21b8c454994b3ac36dfd1814dcd7eb164c5d1d71d817c0004a4b8402207d95f155a682add491919fe6033d4f944ae35880db61c38ecc40620e4dd0a82a[ALL] 02308d33098f4f8cbd179437010bf730d0a8cef16b06d38f02cf1a2f6632bf90bd"}, "vout": 1, "txid": "e8b79b026317d1c01b9475214f81b61d2275c6f7c665bd05d588a8fdb7bb00d6"}], "txid": "60c8a3fc61f90fe076fa732bade5dde4d841e6deb3f5548610240b1de06205ff", "blocktime": 1537871767, "version": 1, "confirmations": 11495, "time": 1537871767, "locktime": 0, "vsize": 191, "size": 191}