{"hash": "60ca96b0c2577b936ce07073ddd853ba90b6a698a41b760a5ff716a8ffd777e7", "blockhash": "0000000000000000001cda96e906b7601b7a6fb1a3b62bca570a9e5d8f4b3de1", "vout": [{"scriptPubKey": {"reqSigs": 1, "hex": "76a9141601c43f1390aa893b571e19b61fb9269064833788ac", "addresses": ["131MyxxzBKVKYytbnrsarzNEN3QqbPnfw2"], "asm": "OP_DUP OP_HASH160 1601c43f1390aa893b571e19b61fb92690648337 OP_EQUALVERIFY OP_CHECKSIG", "type": "pubkeyhash"}, "value": 0.0050135, "n": 0}, {"scriptPubKey": {"reqSigs": 1, "hex": "76a91413f474afdab78bfa0228765ddee973b583e30c3788ac", "addresses": ["12pWgjTpF2S8LxzfH5ctBWdznx6kFkeQ9R"], "asm": "OP_DUP OP_HASH160 13f474afdab78bfa0228765ddee973b583e30c37 OP_EQUALVERIFY OP_CHECKSIG", "type": "pubkeyhash"}, "value": 0.01066252, "n": 1}], "hex": "0100000001a6cbfedcd4695e77a5fde8ac16c2b7cb61c31eb7bd89ca0ca60d43f9a3ed43b0010000006b483045022100f708bdb14db23d6b62b956910222b214fa5bc63dafc8e203ca1f02c69928b16a02206bd09336638e3ef8beef14d496fbac108d526d570633ed17da6af4db77ccb4da0121025c1dea29cf61f8ed26bc13d692dc67155bda9b61c7756bb7c436d8f85c00b547ffffffff0266a60700000000001976a9141601c43f1390aa893b571e19b61fb9269064833788ac0c451000000000001976a91413f474afdab78bfa0228765ddee973b583e30c3788ac00000000", "vin": [{"sequence": 4294967295, "scriptSig": {"hex": "483045022100f708bdb14db23d6b62b956910222b214fa5bc63dafc8e203ca1f02c69928b16a02206bd09336638e3ef8beef14d496fbac108d526d570633ed17da6af4db77ccb4da0121025c1dea29cf61f8ed26bc13d692dc67155bda9b61c7756bb7c436d8f85c00b547", "asm": "3045022100f708bdb14db23d6b62b956910222b214fa5bc63dafc8e203ca1f02c69928b16a02206bd09336638e3ef8beef14d496fbac108d526d570633ed17da6af4db77ccb4da[ALL] 025c1dea29cf61f8ed26bc13d692dc67155bda9b61c7756bb7c436d8f85c00b547"}, "vout": 1, "txid": "b043eda3f9430da60cca89bdb71ec361cbb7c216ace8fda5775e69d4dcfecba6"}], "txid": "60ca96b0c2577b936ce07073ddd853ba90b6a698a41b760a5ff716a8ffd777e7", "blocktime": 1537873282, "version": 1, "confirmations": 11485, "time": 1537873282, "locktime": 0, "vsize": 226, "size": 226}