{"hash": "8d9c9bf637e70a2a1c22260e67f720fef8ea351748ee726ca1e23660b5e57ac2", "blockhash": "0000000000000000001f76057863aec43deb6fa401d9628bb513d65a8098bfab", "vout": [{"scriptPubKey": {"reqSigs": 1, "hex": "76a91408a635f936e27594b6953ba7cb25b3c89bf9cb9f88ac", "addresses": ["1njX4pWPi5VabJJwjmrjEArXTkY1RmWGn"], "asm": "OP_DUP OP_HASH160 08a635f936e27594b6953ba7cb25b3c89bf9cb9f OP_EQUALVERIFY OP_CHECKSIG", "type": "pubkeyhash"}, "value": 0.01656, "n": 0}, {"scriptPubKey": {"reqSigs": 1, "hex": "a914344bff0a4e8c5daf38bab90d5aaaff176b4be96187", "addresses": ["36TY6q9puxZCD8GXPrATa5n2vuKnuqmQwH"], "asm": "OP_HASH160 344bff0a4e8c5daf38bab90d5aaaff176b4be961 OP_EQUAL", "type": "scripthash"}, "value": 0.00341572, "n": 1}], "hex": "02000000000101e4e089409c264127577267f73bc7e3fc9230b44224c462f8d86ed50dad2217070000000017160014f5fefc1a8b64a2929b9b6c51cbea45a085511cefffffffff02c0441900000000001976a91408a635f936e27594b6953ba7cb25b3c89bf9cb9f88ac443605000000000017a914344bff0a4e8c5daf38bab90d5aaaff176b4be9618702483045022100ba8d9627ae753848cee40f649bc1007b70e5e858ea0e1fa8e1dc058688e58d3302200239d6a71b7bcaab0bcf1465d01d538caa341ad72e95914d19e0c956c3f40d3f01210235e53e77889d691a9a86b73ce41fd7644af677509daa0da4749551b8b5b80eb800000000", "vin": [{"txinwitness": ["3045022100ba8d9627ae753848cee40f649bc1007b70e5e858ea0e1fa8e1dc058688e58d3302200239d6a71b7bcaab0bcf1465d01d538caa341ad72e95914d19e0c956c3f40d3f01", "0235e53e77889d691a9a86b73ce41fd7644af677509daa0da4749551b8b5b80eb8"], "sequence": 4294967295, "scriptSig": {"hex": "160014f5fefc1a8b64a2929b9b6c51cbea45a085511cef", "asm": "0014f5fefc1a8b64a2929b9b6c51cbea45a085511cef"}, "vout": 0, "txid": "071722ad0dd56ed8f862c42442b43092fce3c73bf76772572741269c4089e0e4"}], "txid": "60cdb708ce357e515d1d0c146df094a317c9ebdc97eeca8debb89e6f9526d019", "blocktime": 1537873891, "version": 2, "confirmations": 11475, "time": 1537873891, "locktime": 0, "vsize": 168, "size": 250}