{"hash": "a6cad3929e37c93e48d624403dcf24f62af20eb5223fe84b2fd436e82e0fb825", "blockhash": "00000000000000000018f53835495a110e01622372bf6ae95dc86f2b0ab887b0", "vout": [{"scriptPubKey": {"reqSigs": 1, "hex": "76a9148ebd991592dbff08d3a304f25090cf63e055dedf88ac", "addresses": ["1E1k5jreEn5xZd3dAV9S4YT9qMpvLRNT1G"], "asm": "OP_DUP OP_HASH160 8ebd991592dbff08d3a304f25090cf63e055dedf OP_EQUALVERIFY OP_CHECKSIG", "type": "pubkeyhash"}, "value": 0.00211339, "n": 0}, {"scriptPubKey": {"reqSigs": 1, "hex": "a914412a5a9d44d5834123b7756088f409b7b3a36da687", "addresses": ["37daapNiiDgPEaARWMQCfhGXJo4yF1nTaW"], "asm": "OP_HASH160 412a5a9d44d5834123b7756088f409b7b3a36da6 OP_EQUAL", "type": "scripthash"}, "value": 0.02831802, "n": 1}], "hex": "01000000000102d5322b9b569edc196c9a85d8314c2d1f9c84efc43aa8c56e5270f84c7c0c22600100000023220020fce7c0aed5acdc1e28070af3eef59040252fd4cab7776202f1d282023af1d1b8ffffffff7da680af45e9fe2356862d4e89fcdb71dc901fce01eeb0e5c13b691eb7d63ccc010000002322002083f5850b1b9ae687f7cf8d5c77fefcbd87cde420155cd43c20d50f5f293b7ed6ffffffff028b390300000000001976a9148ebd991592dbff08d3a304f25090cf63e055dedf88acba352b000000000017a914412a5a9d44d5834123b7756088f409b7b3a36da6870400483045022100b1ed5f4eae0b3aa693ec1b01441adb197ace84fc716d523c8a8b8791da1ea34902206f98d4629b04da1305eddf20b38f6a8d81b28ecd481a9d500dcfe5e5a3a561cb01483045022100e5669c447519ee82e5ac5d44237e338061f2f5d88658a187e84232054d3243f7022035f5d557d52602cdc8f1dfed9c1ba8f75a02c2a00e4ef669e793ef12eaac19f101475221039c636ffe5e95c943e8fdb456f3ed4e4d1172743644f095d94e6e7e21a114a91b2103871fc2ca08e6950b38867e8e6a0e94ee625223d3aa0df5c65f414c6d784467e252ae040048304502210096b85e85f39bb9aac573f1897c0262c3473044e8166db43649b6e67ddf7470d502205c6ee11f5db4a8362e71d95beeb54a4e30650c6ed36ed4c4f1551f1a1cee72dd0147304402205dcba58e50f1a4cc8ea57a50795ac3dda0a4b03bcdbc4e12f05d3ee0d3a6d47a02207e4ebf9f12e012adc5bb883b3f429be6f426dab4584c3e4c0c3dcac896cd368101475221020511070566b8412d1941b8dc0ded10caa6a6915b609dfa65bb8111255071d3a22103871fc2ca08e6950b38867e8e6a0e94ee625223d3aa0df5c65f414c6d784467e252ae00000000", "vin": [{"txinwitness": ["", "3045022100b1ed5f4eae0b3aa693ec1b01441adb197ace84fc716d523c8a8b8791da1ea34902206f98d4629b04da1305eddf20b38f6a8d81b28ecd481a9d500dcfe5e5a3a561cb01", "3045022100e5669c447519ee82e5ac5d44237e338061f2f5d88658a187e84232054d3243f7022035f5d557d52602cdc8f1dfed9c1ba8f75a02c2a00e4ef669e793ef12eaac19f101", "5221039c636ffe5e95c943e8fdb456f3ed4e4d1172743644f095d94e6e7e21a114a91b2103871fc2ca08e6950b38867e8e6a0e94ee625223d3aa0df5c65f414c6d784467e252ae"], "sequence": 4294967295, "scriptSig": {"hex": "220020fce7c0aed5acdc1e28070af3eef59040252fd4cab7776202f1d282023af1d1b8", "asm": "0020fce7c0aed5acdc1e28070af3eef59040252fd4cab7776202f1d282023af1d1b8"}, "vout": 1, "txid": "60220c7c4cf870526ec5a83ac4ef849c1f2d4c31d8859a6c19dc9e569b2b32d5"}, {"txinwitness": ["", "304502210096b85e85f39bb9aac573f1897c0262c3473044e8166db43649b6e67ddf7470d502205c6ee11f5db4a8362e71d95beeb54a4e30650c6ed36ed4c4f1551f1a1cee72dd01", "304402205dcba58e50f1a4cc8ea57a50795ac3dda0a4b03bcdbc4e12f05d3ee0d3a6d47a02207e4ebf9f12e012adc5bb883b3f429be6f426dab4584c3e4c0c3dcac896cd368101", "5221020511070566b8412d1941b8dc0ded10caa6a6915b609dfa65bb8111255071d3a22103871fc2ca08e6950b38867e8e6a0e94ee625223d3aa0df5c65f414c6d784467e252ae"], "sequence": 4294967295, "scriptSig": {"hex": "22002083f5850b1b9ae687f7cf8d5c77fefcbd87cde420155cd43c20d50f5f293b7ed6", "asm": "002083f5850b1b9ae687f7cf8d5c77fefcbd87cde420155cd43c20d50f5f293b7ed6"}, "vout": 1, "txid": "cc3cd6b71e693bc1e5b0ee01ce1f90dc71dbfc894e2d865623fee945af80a67d"}], "txid": "60d094f9ab0f20e6d0772cb77a378cd20ef74f9a0b3788be245b6bf6e97b591e", "blocktime": 1537870928, "version": 1, "confirmations": 11514, "time": 1537870928, "locktime": 0, "vsize": 339, "size": 669}