{"hash": "6ac831600ba2ad5c60224c39843e2e664e4d3964825187cde7474eb6c402d253", "blockhash": "0000000000000000001cda96e906b7601b7a6fb1a3b62bca570a9e5d8f4b3de1", "vout": [{"scriptPubKey": {"reqSigs": 1, "hex": "76a91462f9a19bb360a0c3c690c954a73ac93b0defb7bb88ac", "addresses": ["1A2LGV8JrkBhHwfUaMMLy55eF2uQ2wYnWE"], "asm": "OP_DUP OP_HASH160 62f9a19bb360a0c3c690c954a73ac93b0defb7bb OP_EQUALVERIFY OP_CHECKSIG", "type": "pubkeyhash"}, "value": 0.010543, "n": 0}, {"scriptPubKey": {"reqSigs": 1, "hex": "00143fae2f39d4aeea4670c7f537162e47ff9f073571", "addresses": ["bc1q87hz7ww54m4yvux875m3vtj8l70swdt3glgcly"], "asm": "0 3fae2f39d4aeea4670c7f537162e47ff9f073571", "type": "witness_v0_keyhash"}, "value": 0.00038431, "n": 1}], "hex": "010000000001018a27727e14604d016a7b24a27010b901cd5e8e0b8ad12e1d9d2be7086c9c2c7701000000171600149a665ec1b031a87a8dd99c1b412e85780633b12fffffffff025c161000000000001976a91462f9a19bb360a0c3c690c954a73ac93b0defb7bb88ac1f960000000000001600143fae2f39d4aeea4670c7f537162e47ff9f07357102483045022100e2930170523191cc150959f2900b4746746b3b79e0a42078a0b024a880e5a913022026f8fb54b8863d2e56cc291690be6447770d1dc6438b32d5dadd5d80c68e7f08012102491498d9eab8e5b01c5eb71e13a680dfb580e05efd358bf591d8caeca084497100000000", "vin": [{"txinwitness": ["3045022100e2930170523191cc150959f2900b4746746b3b79e0a42078a0b024a880e5a913022026f8fb54b8863d2e56cc291690be6447770d1dc6438b32d5dadd5d80c68e7f0801", "02491498d9eab8e5b01c5eb71e13a680dfb580e05efd358bf591d8caeca0844971"], "sequence": 4294967295, "scriptSig": {"hex": "1600149a665ec1b031a87a8dd99c1b412e85780633b12f", "asm": "00149a665ec1b031a87a8dd99c1b412e85780633b12f"}, "vout": 1, "txid": "772c9c6c08e72b9d1d2ed18a0b8e5ecd01b91070a2247b6a014d60147e72278a"}], "txid": "60d4a3bb6254af16a1cb321b01b7cb3e866411ee417fe13ab3073b55a918da1f", "blocktime": 1537873282, "version": 1, "confirmations": 11484, "time": 1537873282, "locktime": 0, "vsize": 167, "size": 249}