{"hash": "ecaed7e1935f2332a186c20700ebfa503024a2d3d2327ac49aead26656e80837", "blockhash": "00000000000000000004ffacab907a6b429b9a5745fa0b75af4234bf69dd7176", "vout": [{"scriptPubKey": {"reqSigs": 1, "hex": "76a914cf373158e82d1e032ab9987e659ceeca6eff275588ac", "addresses": ["1Kteza26LiAWS8dgFuHV7VeFDocePfrm8e"], "asm": "OP_DUP OP_HASH160 cf373158e82d1e032ab9987e659ceeca6eff2755 OP_EQUALVERIFY OP_CHECKSIG", "type": "pubkeyhash"}, "value": 0.0136, "n": 0}, {"scriptPubKey": {"reqSigs": 1, "hex": "a914d393d073750fa7a8db22cb588da247b34d44f76e87", "addresses": ["3LyjaLNxFdwRAJrt4tKC1RPopekTABpYwg"], "asm": "OP_HASH160 d393d073750fa7a8db22cb588da247b34d44f76e OP_EQUAL", "type": "scripthash"}, "value": 0.00983797, "n": 1}], "hex": "01000000000102c307c300c6940f321001f0b9eed578908baf2db421794cdca713e232cb095cd40100000017160014ab7dfcdf7d5bbfbc6ddb371e7c80aeaca4be6d55ffffffff105f9c7334977ee7ea3d62ea2286a2142893b4a024ebd9094b219639f9fa4e68000000001716001484620b9b1a93f0dc60cb2df3c554489b81a7fadaffffffff0280c01400000000001976a914cf373158e82d1e032ab9987e659ceeca6eff275588acf5020f000000000017a914d393d073750fa7a8db22cb588da247b34d44f76e8702483045022100d6b0a30bb54335a0b922009badf44b9e59e0a3fc69b3f8cb9ba823c9301be8a102200e916f405f3749489e1804a65f448262797e18894547b103a46232c4bf42dc4b012103a83df42fa481ec19ad6616e3d53fd0c8567b52093330c54c2a4e1ccc87bde5f00247304402207df749072bbe9f42ac072dd61ea42fce26864a1434cec9f603223aed1c7eb43f02201035d35360dbe8bb3de0a5a822017740d2c61a6fa304a4fc7eeccbc983505c18012103e649311415452d6e3d75883a0446ee68c8a2d5b1c21b2ca765c4555809479ea400000000", "vin": [{"txinwitness": ["3045022100d6b0a30bb54335a0b922009badf44b9e59e0a3fc69b3f8cb9ba823c9301be8a102200e916f405f3749489e1804a65f448262797e18894547b103a46232c4bf42dc4b01", "03a83df42fa481ec19ad6616e3d53fd0c8567b52093330c54c2a4e1ccc87bde5f0"], "sequence": 4294967295, "scriptSig": {"hex": "160014ab7dfcdf7d5bbfbc6ddb371e7c80aeaca4be6d55", "asm": "0014ab7dfcdf7d5bbfbc6ddb371e7c80aeaca4be6d55"}, "vout": 1, "txid": "d45c09cb32e213a7dc4c7921b42daf8b9078d5eeb9f00110320f94c600c307c3"}, {"txinwitness": ["304402207df749072bbe9f42ac072dd61ea42fce26864a1434cec9f603223aed1c7eb43f02201035d35360dbe8bb3de0a5a822017740d2c61a6fa304a4fc7eeccbc983505c1801", "03e649311415452d6e3d75883a0446ee68c8a2d5b1c21b2ca765c4555809479ea4"], "sequence": 4294967295, "scriptSig": {"hex": "16001484620b9b1a93f0dc60cb2df3c554489b81a7fada", "asm": "001484620b9b1a93f0dc60cb2df3c554489b81a7fada"}, "vout": 0, "txid": "684efaf93996214b09d9eb24a0b4932814a28622ea623deae77e9734739c5f10"}], "txid": "60d7e54825266b44c77418489f26ab50ae0b62a8d7b28a00322c0eb6217e5767", "blocktime": 1537875543, "version": 1, "confirmations": 11464, "time": 1537875543, "locktime": 0, "vsize": 259, "size": 421}