{"hash": "60d9f26d0fd81b804883fa1cc80cd19047de123696371f979d4943310ae9cab8", "blockhash": "00000000000000000018f53835495a110e01622372bf6ae95dc86f2b0ab887b0", "vout": [{"scriptPubKey": {"reqSigs": 1, "hex": "76a9144f7f76e0e55fc3c5d509050e87639c7dba5b207188ac", "addresses": ["18FM5XzAReHjnS9KvMDT2etmnQQRPU4Qd8"], "asm": "OP_DUP OP_HASH160 4f7f76e0e55fc3c5d509050e87639c7dba5b2071 OP_EQUALVERIFY OP_CHECKSIG", "type": "pubkeyhash"}, "value": 1.216e-05, "n": 0}, {"scriptPubKey": {"reqSigs": 1, "hex": "76a914141e802e5d448ef0ad0d84459784315b1e940a4288ac", "addresses": ["12qP44eeZsyUHwhNq2iCZizCWPcPqUvDDT"], "asm": "OP_DUP OP_HASH160 141e802e5d448ef0ad0d84459784315b1e940a42 OP_EQUALVERIFY OP_CHECKSIG", "type": "pubkeyhash"}, "value": 1.0, "n": 1}], "hex": "0100000002cde25772a1376e5b5ed9dba336abd768cc8bbc75bf7b06dce13e5f5fd384813d000000006b483045022100d1c24af65449b79747a92fde23ddf679a355895c8054dd459f76ec5c44fcb16002204e983f5bc2e95b40c31a893401a449f480361b7cbfcc90a85b0422d3842e2f43012102b2e8e108b70b387ae413d780a36c26632141f1c0e13de7fc9545ba674b0d1ba2ffffffff6e8d82689105eae72de7d16c331ced5716cede6018601869ee9f31a51845749a010000006a473044022077efe679df2d6e043a8ce3ae2417aabba7cdf75ddb572059f83eef777372438902202f43db5b417cac2bd713b71b0a98b60955973319852b1819af51f437d52bcaf701210252dd33de71725155de893e5281fabf16d45316dadf0e24ec0c45d76f7fc973aeffffffff02c0040000000000001976a9144f7f76e0e55fc3c5d509050e87639c7dba5b207188ac00e1f505000000001976a914141e802e5d448ef0ad0d84459784315b1e940a4288ac00000000", "vin": [{"sequence": 4294967295, "scriptSig": {"hex": "483045022100d1c24af65449b79747a92fde23ddf679a355895c8054dd459f76ec5c44fcb16002204e983f5bc2e95b40c31a893401a449f480361b7cbfcc90a85b0422d3842e2f43012102b2e8e108b70b387ae413d780a36c26632141f1c0e13de7fc9545ba674b0d1ba2", "asm": "3045022100d1c24af65449b79747a92fde23ddf679a355895c8054dd459f76ec5c44fcb16002204e983f5bc2e95b40c31a893401a449f480361b7cbfcc90a85b0422d3842e2f43[ALL] 02b2e8e108b70b387ae413d780a36c26632141f1c0e13de7fc9545ba674b0d1ba2"}, "vout": 0, "txid": "3d8184d35f5f3ee1dc067bbf75bc8bcc68d7ab36a3dbd95e5b6e37a17257e2cd"}, {"sequence": 4294967295, "scriptSig": {"hex": "473044022077efe679df2d6e043a8ce3ae2417aabba7cdf75ddb572059f83eef777372438902202f43db5b417cac2bd713b71b0a98b60955973319852b1819af51f437d52bcaf701210252dd33de71725155de893e5281fabf16d45316dadf0e24ec0c45d76f7fc973ae", "asm": "3044022077efe679df2d6e043a8ce3ae2417aabba7cdf75ddb572059f83eef777372438902202f43db5b417cac2bd713b71b0a98b60955973319852b1819af51f437d52bcaf7[ALL] 0252dd33de71725155de893e5281fabf16d45316dadf0e24ec0c45d76f7fc973ae"}, "vout": 1, "txid": "9a744518a5319fee6918601860dece1657ed1c336cd1e72de7ea059168828d6e"}], "txid": "60d9f26d0fd81b804883fa1cc80cd19047de123696371f979d4943310ae9cab8", "blocktime": 1537870928, "version": 1, "confirmations": 11514, "time": 1537870928, "locktime": 0, "vsize": 373, "size": 373}