{"hash": "60e489e65bb9095b2c6642f1626f65cf63a731386ac22ff977d32e81fa68bb21", "blockhash": "00000000000000000018f53835495a110e01622372bf6ae95dc86f2b0ab887b0", "vout": [{"scriptPubKey": {"reqSigs": 1, "hex": "76a914c3c3efc0f4f7c7204802927234da4e3310b7f52288ac", "addresses": ["1Jr7VKLudhc3Tix1SKZqDvXDrHtASCXKzg"], "asm": "OP_DUP OP_HASH160 c3c3efc0f4f7c7204802927234da4e3310b7f522 OP_EQUALVERIFY OP_CHECKSIG", "type": "pubkeyhash"}, "value": 0.00645761, "n": 0}, {"scriptPubKey": {"type": "nulldata", "hex": "6a4c500000778600012f061448616686459b63732dbcbefa6b8351586b4e86aeaeacb577c031fc8103ac2eb340c5c4766774c5a44536ff5baa0b59061431619b2703de1d100759d4ba30d2c37bb011d97e02cf", "asm": "OP_RETURN 0000778600012f061448616686459b63732dbcbefa6b8351586b4e86aeaeacb577c031fc8103ac2eb340c5c4766774c5a44536ff5baa0b59061431619b2703de1d100759d4ba30d2c37bb011d97e02cf"}, "value": 0.0, "n": 1}], "hex": "0100000001eef48cde6a004fffa77c130629c7ac40df0cc15769148175de0e89ef719fdf92010000006a47304402206d4075ab97ae0a3d7d873d087507fe635e579761d1fe64679ceb6c23acc65b0802201bc5406dc7c22c64f0246b60492d16c954ea948e2e50b4f2cadb9a4da6ce0248012102620324c75966e1bed5b4aadb2263fc8f93b33d0eadd79a2fdade92020f9ab8a0ffffffff0281da0900000000001976a914c3c3efc0f4f7c7204802927234da4e3310b7f52288ac0000000000000000536a4c500000778600012f061448616686459b63732dbcbefa6b8351586b4e86aeaeacb577c031fc8103ac2eb340c5c4766774c5a44536ff5baa0b59061431619b2703de1d100759d4ba30d2c37bb011d97e02cf00000000", "vin": [{"sequence": 4294967295, "scriptSig": {"hex": "47304402206d4075ab97ae0a3d7d873d087507fe635e579761d1fe64679ceb6c23acc65b0802201bc5406dc7c22c64f0246b60492d16c954ea948e2e50b4f2cadb9a4da6ce0248012102620324c75966e1bed5b4aadb2263fc8f93b33d0eadd79a2fdade92020f9ab8a0", "asm": "304402206d4075ab97ae0a3d7d873d087507fe635e579761d1fe64679ceb6c23acc65b0802201bc5406dc7c22c64f0246b60492d16c954ea948e2e50b4f2cadb9a4da6ce0248[ALL] 02620324c75966e1bed5b4aadb2263fc8f93b33d0eadd79a2fdade92020f9ab8a0"}, "vout": 1, "txid": "92df9f71ef890ede7581146957c10cdf40acc72906137ca7ff4f006ade8cf4ee"}], "txid": "60e489e65bb9095b2c6642f1626f65cf63a731386ac22ff977d32e81fa68bb21", "blocktime": 1537870928, "version": 1, "confirmations": 11512, "time": 1537870928, "locktime": 0, "vsize": 283, "size": 283}