{"hash": "808bdd0f45516a735fef3ebcc8134249e8de3fee9efedd35ab0cad37f9a45b2c", "blockhash": "0000000000000000000dcc0f55137456b1a82d3642486a52398922ac4d620174", "vout": [{"scriptPubKey": {"reqSigs": 1, "hex": "76a914d55b80da356f682ca82a72a8433070493a863fef88ac", "addresses": ["1LT8Yd7hAsaifTi5WNL4e3nrwftAFayu1F"], "asm": "OP_DUP OP_HASH160 d55b80da356f682ca82a72a8433070493a863fef OP_EQUALVERIFY OP_CHECKSIG", "type": "pubkeyhash"}, "value": 0.05213193, "n": 0}, {"scriptPubKey": {"reqSigs": 1, "hex": "a914f7e37fffbf2b9d3aaadf4315131faad0a02140d387", "addresses": ["3QHjMuJyyJZdvcdAZf2Hce1VHQefkT3Qw1"], "asm": "OP_HASH160 f7e37fffbf2b9d3aaadf4315131faad0a02140d3 OP_EQUAL", "type": "scripthash"}, "value": 0.00128874, "n": 1}], "hex": "0200000000010167ea8fd9366b143d67efce7e53332924447b101af4ea79d1f9649cc68bebfec6010000001716001456ad999fd9934b0f1823abd1bb64c83cd2ce19e3ffffffff02098c4f00000000001976a914d55b80da356f682ca82a72a8433070493a863fef88ac6af701000000000017a914f7e37fffbf2b9d3aaadf4315131faad0a02140d3870247304402206a01507e5938d605dd5fa0b78fa796b36545358d396c681ed2d4118eb91c1e4e02203aa8f8b57f60ee5eca27e8b870780df095b76d4edd4faedd25748882e224acf30121033dd2eec8abb5386a0d1307e7c2a5f2640b24c84f28066ddd1d037a4cf44b6ecd00000000", "vin": [{"txinwitness": ["304402206a01507e5938d605dd5fa0b78fa796b36545358d396c681ed2d4118eb91c1e4e02203aa8f8b57f60ee5eca27e8b870780df095b76d4edd4faedd25748882e224acf301", "033dd2eec8abb5386a0d1307e7c2a5f2640b24c84f28066ddd1d037a4cf44b6ecd"], "sequence": 4294967295, "scriptSig": {"hex": "16001456ad999fd9934b0f1823abd1bb64c83cd2ce19e3", "asm": "001456ad999fd9934b0f1823abd1bb64c83cd2ce19e3"}, "vout": 1, "txid": "c6feeb8bc69c64f9d179eaf41a107b44242933537eceef673d146b36d98fea67"}], "txid": "60e4db816165af4cd1b3598a2cca46e749ca66177d7f73d5473f4f94cabf68d7", "blocktime": 1537870268, "version": 2, "confirmations": 11516, "time": 1537870268, "locktime": 0, "vsize": 168, "size": 249}