{"hash": "8058b1c1b8664872c226c849e74ac46f88394440d05b0351ca9ac4525b25583a", "blockhash": "0000000000000000000baef3f32e3676a92c3b2e5da21b426e4f302fc371ce76", "vout": [{"scriptPubKey": {"reqSigs": 1, "hex": "a91448b311d6f9a15fac3246e2a942c8a9c10e3e157887", "addresses": ["38KR6LQps86N4CdRoCSUMMnkh9mZU6pYMf"], "asm": "OP_HASH160 48b311d6f9a15fac3246e2a942c8a9c10e3e1578 OP_EQUAL", "type": "scripthash"}, "value": 0.00010455, "n": 0}, {"scriptPubKey": {"reqSigs": 1, "hex": "a9140136c10502ae5684e49b302f1af10f145f74b6b787", "addresses": ["31oSC7GvQMTZoouyNLBEHVRDhXEFbVhSmh"], "asm": "OP_HASH160 0136c10502ae5684e49b302f1af10f145f74b6b7 OP_EQUAL", "type": "scripthash"}, "value": 0.02899844, "n": 1}], "hex": "01000000000101e93d3884a9faeb734abc2959c45d5637ca020bcf8a3e66b0203ed9f0a6715e9c0100000023220020efd02f10cc1074c68ec89b458572a71ce6bfc8a17595d8fde80232e47279444bffffffff02d72800000000000017a91448b311d6f9a15fac3246e2a942c8a9c10e3e157887843f2c000000000017a9140136c10502ae5684e49b302f1af10f145f74b6b7870400483045022100dc9e97af8c5c45b7fd63dcb7155097e3aa123f82791ea557004acd0d28954d2702203223e667d2a6768d6cceeef5ce9b02b00287a7518a783c1e445a1116e76e819a01483045022100c6b028a665b0a26c2be4d8593a61335c5c4c8eaf9a740505aa8cda3622719bf80220786df69aa1410ff8af147e56681f2e5d4acb7a06d63ee71d98ce7ceeffad8bec0147522103f985ea61f461801f3abc09ebed98ce7e20804639a64616f639f492883ea4e8d62103871fc2ca08e6950b38867e8e6a0e94ee625223d3aa0df5c65f414c6d784467e252ae00000000", "vin": [{"txinwitness": ["", "3045022100dc9e97af8c5c45b7fd63dcb7155097e3aa123f82791ea557004acd0d28954d2702203223e667d2a6768d6cceeef5ce9b02b00287a7518a783c1e445a1116e76e819a01", "3045022100c6b028a665b0a26c2be4d8593a61335c5c4c8eaf9a740505aa8cda3622719bf80220786df69aa1410ff8af147e56681f2e5d4acb7a06d63ee71d98ce7ceeffad8bec01", "522103f985ea61f461801f3abc09ebed98ce7e20804639a64616f639f492883ea4e8d62103871fc2ca08e6950b38867e8e6a0e94ee625223d3aa0df5c65f414c6d784467e252ae"], "sequence": 4294967295, "scriptSig": {"hex": "220020efd02f10cc1074c68ec89b458572a71ce6bfc8a17595d8fde80232e47279444b", "asm": "0020efd02f10cc1074c68ec89b458572a71ce6bfc8a17595d8fde80232e47279444b"}, "vout": 1, "txid": "9c5e71a6f0d93e20b0663e8acf0b02ca37565dc45929bc4a73ebfaa984383de9"}], "txid": "60fa0c469883f223b78aa90a7e050bccfaab299bcc4b2850edbc363c9e5481bb", "blocktime": 1537876114, "version": 1, "confirmations": 11463, "time": 1537876114, "locktime": 0, "vsize": 206, "size": 372}