{"hash": "60fd22bd7716eae49c12d661c935dab822ab1fab39f1251c191cc05bbb700437", "blockhash": "0000000000000000000e13cef7c366c0283d82e591d1acd082e914b08063cdf1", "vout": [{"scriptPubKey": {"reqSigs": 1, "hex": "76a9149fa787f2330e10e4c1dfc5ee99b11cd965776ab188ac", "addresses": ["1FZB8mBSKUywgutcRL49t4A7FGdy5V4wLv"], "asm": "OP_DUP OP_HASH160 9fa787f2330e10e4c1dfc5ee99b11cd965776ab1 OP_EQUALVERIFY OP_CHECKSIG", "type": "pubkeyhash"}, "value": 0.00147324, "n": 0}, {"scriptPubKey": {"type": "nulldata", "hex": "6a4c500000779c000114a898f23fe1bc665f662dbfe3ef3236678a625097bcbefa6b8351586b4eba21a813ee8def98f42073a9709d8c795baa0d99061567b421566cf6bc9a9526289ac0f6612cd74e33776ee4", "asm": "OP_RETURN 0000779c000114a898f23fe1bc665f662dbfe3ef3236678a625097bcbefa6b8351586b4eba21a813ee8def98f42073a9709d8c795baa0d99061567b421566cf6bc9a9526289ac0f6612cd74e33776ee4"}, "value": 0.0, "n": 1}], "hex": "0100000001d79980d1f4c64bfedfdc2656d70778819a6c15f77bcb68922f238a86f1bbe54b000000006b483045022100ce3b1ef47806c20442c373728528a31e52c8b1747b12bfe952825574fefa77f102207555c33b0cf0cc0bc4699ff09630a7ac9b401e655d2807cf6df29fab7e9e3d79012102c28241ca8ef5b0b4cc5a368d0789e9604b73d0df0f969007599c2c3ad8d1d5b7ffffffff027c3f0200000000001976a9149fa787f2330e10e4c1dfc5ee99b11cd965776ab188ac0000000000000000536a4c500000779c000114a898f23fe1bc665f662dbfe3ef3236678a625097bcbefa6b8351586b4eba21a813ee8def98f42073a9709d8c795baa0d99061567b421566cf6bc9a9526289ac0f6612cd74e33776ee400000000", "vin": [{"sequence": 4294967295, "scriptSig": {"hex": "483045022100ce3b1ef47806c20442c373728528a31e52c8b1747b12bfe952825574fefa77f102207555c33b0cf0cc0bc4699ff09630a7ac9b401e655d2807cf6df29fab7e9e3d79012102c28241ca8ef5b0b4cc5a368d0789e9604b73d0df0f969007599c2c3ad8d1d5b7", "asm": "3045022100ce3b1ef47806c20442c373728528a31e52c8b1747b12bfe952825574fefa77f102207555c33b0cf0cc0bc4699ff09630a7ac9b401e655d2807cf6df29fab7e9e3d79[ALL] 02c28241ca8ef5b0b4cc5a368d0789e9604b73d0df0f969007599c2c3ad8d1d5b7"}, "vout": 0, "txid": "4be5bbf1868a232f9268cb7bf7156c9a817807d75626dcdffe4bc6f4d18099d7"}], "txid": "60fd22bd7716eae49c12d661c935dab822ab1fab39f1251c191cc05bbb700437", "blocktime": 1537871767, "version": 1, "confirmations": 11493, "time": 1537871767, "locktime": 0, "vsize": 284, "size": 284}