{"hash": "5599cc92930310689d53d32c8a36ec6f5b8c7244fec9d9a7147e1a5d22db18cc", "blockhash": "000000000000000000022b45ed06c6f4ccd3cf7fb5ba4856ebd2e58215665228", "vout": [{"scriptPubKey": {"reqSigs": 1, "hex": "76a9147b11d4d4e089f4725a362815dc36fec81ecccf7b88ac", "addresses": ["1CDjUYMqBFQT9uzMkyKi4tTBfmBZWad8SE"], "asm": "OP_DUP OP_HASH160 7b11d4d4e089f4725a362815dc36fec81ecccf7b OP_EQUALVERIFY OP_CHECKSIG", "type": "pubkeyhash"}, "value": 0.11602123, "n": 0}, {"scriptPubKey": {"reqSigs": 1, "hex": "76a914c8c483bdfa986dadea0ad588f74af46063604f8188ac", "addresses": ["1KJZZSapJ9VeAhXAhnMHbqZQ3f9U257sMU"], "asm": "OP_DUP OP_HASH160 c8c483bdfa986dadea0ad588f74af46063604f81 OP_EQUALVERIFY OP_CHECKSIG", "type": "pubkeyhash"}, "value": 0.02188429, "n": 1}], "hex": "020000000001013c77246d9705ac4d30fccbef6aeb0cdfd7d51efa9d626058863404a9d4b67bbf0100000017160014fa0a550c9d7a65c2302575e2b4c1ad42dbc88b5dfeffffff02cb08b100000000001976a9147b11d4d4e089f4725a362815dc36fec81ecccf7b88ac8d642100000000001976a914c8c483bdfa986dadea0ad588f74af46063604f8188ac0247304402206f4148f73ed0c3ecc953b766a4cbbdea41002da6a30575d13aa68514d3297de3022078d304b19dbbbe3744cbded5b25b44e50e721fa77e040ca13d4eb91ee52bc050012102221428f59f45b88c82707facc24a3c2b85f9f8973fff2df67b3cd672d65b11700a490800", "vin": [{"txinwitness": ["304402206f4148f73ed0c3ecc953b766a4cbbdea41002da6a30575d13aa68514d3297de3022078d304b19dbbbe3744cbded5b25b44e50e721fa77e040ca13d4eb91ee52bc05001", "02221428f59f45b88c82707facc24a3c2b85f9f8973fff2df67b3cd672d65b1170"], "sequence": 4294967294, "scriptSig": {"hex": "160014fa0a550c9d7a65c2302575e2b4c1ad42dbc88b5d", "asm": "0014fa0a550c9d7a65c2302575e2b4c1ad42dbc88b5d"}, "vout": 1, "txid": "bf7bb6d4a90434865860629dfa1ed5d7df0ceb6aefcbfc304dac05976d24773c"}], "txid": "60fd5df67ce31aa0dc5c5ba89e5bf3e227f3fb35a274eeb834c7cd220afb8dea", "blocktime": 1537869901, "version": 2, "confirmations": 11522, "time": 1537869901, "locktime": 542986, "vsize": 170, "size": 251}