{"hash": "9dfd55d40da811e991c3c800e65592ce9ce22041377dbc8d00ce1e74e71ee3d2", "blockhash": "0000000000000000000e13cef7c366c0283d82e591d1acd082e914b08063cdf1", "vout": [{"scriptPubKey": {"reqSigs": 1, "hex": "76a91462f9a19bb360a0c3c690c954a73ac93b0defb7bb88ac", "addresses": ["1A2LGV8JrkBhHwfUaMMLy55eF2uQ2wYnWE"], "asm": "OP_DUP OP_HASH160 62f9a19bb360a0c3c690c954a73ac93b0defb7bb OP_EQUALVERIFY OP_CHECKSIG", "type": "pubkeyhash"}, "value": 0.010556, "n": 0}, {"scriptPubKey": {"reqSigs": 1, "hex": "0014c82266afcdb6265294c60582b20ff02917289350", "addresses": ["bc1qeq3xdt7dkcn999xxqkptyrls9ytj3y6sp3e9n9"], "asm": "0 c82266afcdb6265294c60582b20ff02917289350", "type": "witness_v0_keyhash"}, "value": 0.00056751, "n": 1}], "hex": "0100000000010102b97649ff080e2d1aebc014281e7d408b3616f6f3f0a2686d9ca8c14485b1380000000000ffffffff02701b1000000000001976a91462f9a19bb360a0c3c690c954a73ac93b0defb7bb88acafdd000000000000160014c82266afcdb6265294c60582b20ff0291728935002483045022100872b58684d7c91d14edc9d12f9b566d7b3f7017f30d9781b1f32297e3caaf25302205ebeade67fc98b45f202c5f3d6a46706c44bf1696de2b0356616ac853064fc9b012102ba5809f3f5fd790ddff44a9f93ec77735b74495912ddb548c1084798fe1a09c300000000", "vin": [{"txinwitness": ["3045022100872b58684d7c91d14edc9d12f9b566d7b3f7017f30d9781b1f32297e3caaf25302205ebeade67fc98b45f202c5f3d6a46706c44bf1696de2b0356616ac853064fc9b01", "02ba5809f3f5fd790ddff44a9f93ec77735b74495912ddb548c1084798fe1a09c3"], "sequence": 4294967295, "scriptSig": {"hex": "", "asm": ""}, "vout": 0, "txid": "38b18544c1a89c6d68a2f0f3f616368b407d1e2814c0eb1a2d0e08ff4976b902"}], "txid": "60ffd976c2945c70892f1b2c6faf11e23510ce9cd6e75750d5aa16a40547f0ca", "blocktime": 1537871767, "version": 1, "confirmations": 11495, "time": 1537871767, "locktime": 0, "vsize": 144, "size": 226}