{"hash": "610019aeb01abcc982d665d53ef188ce2e7afe33bf1c5f668cdcef3bb791e3a5", "blockhash": "0000000000000000000baef3f32e3676a92c3b2e5da21b426e4f302fc371ce76", "vout": [{"scriptPubKey": {"reqSigs": 1, "hex": "76a914b743dd613ae78cc3ba91d907b92a70e4d2574c4288ac", "addresses": ["1Hi1xS2YoUT9YXngKGegBpZ23RfmUKkYVU"], "asm": "OP_DUP OP_HASH160 b743dd613ae78cc3ba91d907b92a70e4d2574c42 OP_EQUALVERIFY OP_CHECKSIG", "type": "pubkeyhash"}, "value": 0.0220532, "n": 0}, {"scriptPubKey": {"type": "nulldata", "hex": "6a4c5000007804000170c1f99337c475708b4b19e8702940d64fa54d8eb2d19ed074892d00f8e830f2fc8be9a7253da60fb49cdc31f4c05baa1a7106138d8261798802bc9a9526289ac0f6612cd74e33776ee4", "asm": "OP_RETURN 00007804000170c1f99337c475708b4b19e8702940d64fa54d8eb2d19ed074892d00f8e830f2fc8be9a7253da60fb49cdc31f4c05baa1a7106138d8261798802bc9a9526289ac0f6612cd74e33776ee4"}, "value": 0.0, "n": 1}], "hex": "0100000001a330c5a7aff25492435d28a359c94f9cd62a182302d270fffd8f789668fc604c010000006b48304502210094e0c91f864de19f4fce5894c033f30eff888a90d0d81580f4628c3530a6ef0002202b347ddcd82611e909e07455f6c41847448aba78e56a66da98a16495d95ad786012102cfa744b75339fb1d3c5187b29f415ad77757d431a2ea2c8fc9292297b5d8d553ffffffff0288a62100000000001976a914b743dd613ae78cc3ba91d907b92a70e4d2574c4288ac0000000000000000536a4c5000007804000170c1f99337c475708b4b19e8702940d64fa54d8eb2d19ed074892d00f8e830f2fc8be9a7253da60fb49cdc31f4c05baa1a7106138d8261798802bc9a9526289ac0f6612cd74e33776ee400000000", "vin": [{"sequence": 4294967295, "scriptSig": {"hex": "48304502210094e0c91f864de19f4fce5894c033f30eff888a90d0d81580f4628c3530a6ef0002202b347ddcd82611e909e07455f6c41847448aba78e56a66da98a16495d95ad786012102cfa744b75339fb1d3c5187b29f415ad77757d431a2ea2c8fc9292297b5d8d553", "asm": "304502210094e0c91f864de19f4fce5894c033f30eff888a90d0d81580f4628c3530a6ef0002202b347ddcd82611e909e07455f6c41847448aba78e56a66da98a16495d95ad786[ALL] 02cfa744b75339fb1d3c5187b29f415ad77757d431a2ea2c8fc9292297b5d8d553"}, "vout": 1, "txid": "4c60fc6896788ffdff70d20223182ad69c4fc959a3285d439254f2afa7c530a3"}], "txid": "610019aeb01abcc982d665d53ef188ce2e7afe33bf1c5f668cdcef3bb791e3a5", "blocktime": 1537876114, "version": 1, "confirmations": 11460, "time": 1537876114, "locktime": 0, "vsize": 284, "size": 284}