{"hash": "62ea0ea00e781c25946e6bc2a2b97f20e5f120b5380e6eb1a77b77e6feecdaf6", "blockhash": "0000000000000000001f76057863aec43deb6fa401d9628bb513d65a8098bfab", "vout": [{"scriptPubKey": {"reqSigs": 1, "hex": "76a9146953b1937cc5034acd5a3a01887ebfb231a1ba0688ac", "addresses": ["1AbvDHCwCiR8opS7q21o3NpjGTbnxBuFmW"], "asm": "OP_DUP OP_HASH160 6953b1937cc5034acd5a3a01887ebfb231a1ba06 OP_EQUALVERIFY OP_CHECKSIG", "type": "pubkeyhash"}, "value": 0.00781977, "n": 0}, {"scriptPubKey": {"reqSigs": 1, "hex": "0014a1dfe9a6c494843c5535a7c30cf111bb51b2e280", "addresses": ["bc1q5807nfkyjjzrc4f45lpseug3hdgm9c5qmt5c5w"], "asm": "0 a1dfe9a6c494843c5535a7c30cf111bb51b2e280", "type": "witness_v0_keyhash"}, "value": 0.00076105, "n": 1}], "hex": "01000000000101266d469d945bc5128d841b2953313f2734aa22ed00dd4681719d6c0ad3a2b26e01000000171600140deee1f4736b90fe261223bd6ab2f12123fb2d89ffffffff0299ee0b00000000001976a9146953b1937cc5034acd5a3a01887ebfb231a1ba0688ac4929010000000000160014a1dfe9a6c494843c5535a7c30cf111bb51b2e28002483045022100b44f302af8efb7958a60f522fb37a7449acfcd407e46e75bb88b53d64e2a019002207d71fb5d30d554dd565604cd366c4d3cad0c185902059543a9554953c0e759190121026a406fdab8cb4957ea9f2f45b1431b7797f412f11e0851586ee4957d21579dd600000000", "vin": [{"txinwitness": ["3045022100b44f302af8efb7958a60f522fb37a7449acfcd407e46e75bb88b53d64e2a019002207d71fb5d30d554dd565604cd366c4d3cad0c185902059543a9554953c0e7591901", "026a406fdab8cb4957ea9f2f45b1431b7797f412f11e0851586ee4957d21579dd6"], "sequence": 4294967295, "scriptSig": {"hex": "1600140deee1f4736b90fe261223bd6ab2f12123fb2d89", "asm": "00140deee1f4736b90fe261223bd6ab2f12123fb2d89"}, "vout": 1, "txid": "6eb2a2d30a6c9d718146dd00ed22aa34273f3153291b848d12c55b949d466d26"}], "txid": "610a449038ad605e23070b16ef5c2197fd0a4cb1d81a76abd33cf2cac509253b", "blocktime": 1537873891, "version": 1, "confirmations": 11478, "time": 1537873891, "locktime": 0, "vsize": 167, "size": 249}