{"hash": "610cd1c2553cb1bcc33e0d5d6260a6c263c21eac82bb0efd8dd6d77f15e965f5", "blockhash": "00000000000000000004ffacab907a6b429b9a5745fa0b75af4234bf69dd7176", "vout": [{"scriptPubKey": {"reqSigs": 1, "hex": "a9146cc739915e747eee618e25864d62a10ae3fe0d2787", "addresses": ["3BcBZeZRZh9uxLUkvzcvfGD2VjSJyuxTHq"], "asm": "OP_HASH160 6cc739915e747eee618e25864d62a10ae3fe0d27 OP_EQUAL", "type": "scripthash"}, "value": 0.0211, "n": 0}, {"scriptPubKey": {"reqSigs": 1, "hex": "76a9145377645d78557eee2683767d588fbfad50f9532e88ac", "addresses": ["18cL7RmgSwzXUVS3w5LM5nYqmA6e8epmDQ"], "asm": "OP_DUP OP_HASH160 5377645d78557eee2683767d588fbfad50f9532e OP_EQUALVERIFY OP_CHECKSIG", "type": "pubkeyhash"}, "value": 0.35054, "n": 1}], "hex": "01000000019ec83345f9b4e63e8f31649eadb90a954226b4bcd260d2754c8262ab130cc0ed010000006a47304402201a316994bdb09be48feebd4c4c7d87355eada16fbd3f78a8d8f575b8ee8abc510220092e2d5842bf2f95844a53322ed17afe0145a617ff749da4515845654451bacf012103247529ab4bec28a4b476ad242bed07d87d480b70936b98dedf1acdd08a9900daffffffff02303220000000000017a9146cc739915e747eee618e25864d62a10ae3fe0d2787b0e11602000000001976a9145377645d78557eee2683767d588fbfad50f9532e88ac00000000", "vin": [{"sequence": 4294967295, "scriptSig": {"hex": "47304402201a316994bdb09be48feebd4c4c7d87355eada16fbd3f78a8d8f575b8ee8abc510220092e2d5842bf2f95844a53322ed17afe0145a617ff749da4515845654451bacf012103247529ab4bec28a4b476ad242bed07d87d480b70936b98dedf1acdd08a9900da", "asm": "304402201a316994bdb09be48feebd4c4c7d87355eada16fbd3f78a8d8f575b8ee8abc510220092e2d5842bf2f95844a53322ed17afe0145a617ff749da4515845654451bacf[ALL] 03247529ab4bec28a4b476ad242bed07d87d480b70936b98dedf1acdd08a9900da"}, "vout": 1, "txid": "edc00c13ab62824c75d260d2bcb42642950ab9ad9e64318f3ee6b4f94533c89e"}], "txid": "610cd1c2553cb1bcc33e0d5d6260a6c263c21eac82bb0efd8dd6d77f15e965f5", "blocktime": 1537875543, "version": 1, "confirmations": 11464, "time": 1537875543, "locktime": 0, "vsize": 223, "size": 223}