{"hash": "610e4fdc120e18f17a25b8bffe85c9f08e03e890e61abd10c4dcc1e2456056e9", "blockhash": "0000000000000000000e13cef7c366c0283d82e591d1acd082e914b08063cdf1", "vout": [{"scriptPubKey": {"reqSigs": 1, "hex": "a914b8aacfe8744212e585da529d32635cad9e3e7caf87", "addresses": ["3JXSt5NRtFRjFfkCp8iTgMupfitUvfEA5f"], "asm": "OP_HASH160 b8aacfe8744212e585da529d32635cad9e3e7caf OP_EQUAL", "type": "scripthash"}, "value": 0.01173986, "n": 0}], "hex": "0100000001695623a637565ac078d684f4196a7900302703da7f9460a59042f7cd2959c394000000006b483045022100e399ef8271c150e2829a1424d2a9b98d1b2efe891075c518e32e7ff26b35fd5a022045ec2ab380c676b23cacb0ac9fe8503807d781ba123ffc73a570bffca874918b0121027cf9499b3e4a41f7e4f1f031aed4a96d2cd0f7975a26fdfe006fbf1769d114caffffffff01e2e911000000000017a914b8aacfe8744212e585da529d32635cad9e3e7caf8700000000", "vin": [{"sequence": 4294967295, "scriptSig": {"hex": "483045022100e399ef8271c150e2829a1424d2a9b98d1b2efe891075c518e32e7ff26b35fd5a022045ec2ab380c676b23cacb0ac9fe8503807d781ba123ffc73a570bffca874918b0121027cf9499b3e4a41f7e4f1f031aed4a96d2cd0f7975a26fdfe006fbf1769d114ca", "asm": "3045022100e399ef8271c150e2829a1424d2a9b98d1b2efe891075c518e32e7ff26b35fd5a022045ec2ab380c676b23cacb0ac9fe8503807d781ba123ffc73a570bffca874918b[ALL] 027cf9499b3e4a41f7e4f1f031aed4a96d2cd0f7975a26fdfe006fbf1769d114ca"}, "vout": 0, "txid": "94c35929cdf74290a560947fda03273000796a19f484d678c05a5637a6235669"}], "txid": "610e4fdc120e18f17a25b8bffe85c9f08e03e890e61abd10c4dcc1e2456056e9", "blocktime": 1537871767, "version": 1, "confirmations": 11490, "time": 1537871767, "locktime": 0, "vsize": 190, "size": 190}