{"hash": "45efdea2b719790bfb72fb570889e619f8a2b6a8ac1ca904b2b6c7a8e0ff1b34", "blockhash": "0000000000000000000e13cef7c366c0283d82e591d1acd082e914b08063cdf1", "vout": [{"scriptPubKey": {"reqSigs": 1, "hex": "76a91429ec13e6a942b4430dbbd05763a808fd82ce402588ac", "addresses": ["14pfWqN9QFaYHNc5r7Vo6xDnu4EH5ZiwND"], "asm": "OP_DUP OP_HASH160 29ec13e6a942b4430dbbd05763a808fd82ce4025 OP_EQUALVERIFY OP_CHECKSIG", "type": "pubkeyhash"}, "value": 0.0223, "n": 0}, {"scriptPubKey": {"reqSigs": 1, "hex": "a914ee33235645aefc210fd6a6d367b588ed3dfba48787", "addresses": ["3PQW1LELUhoqWSQQbRzhSo8ecs7eQifkPv"], "asm": "OP_HASH160 ee33235645aefc210fd6a6d367b588ed3dfba487 OP_EQUAL", "type": "scripthash"}, "value": 0.10926585, "n": 1}, {"scriptPubKey": {"reqSigs": 1, "hex": "76a914ae25d8c8e33e3dc2093b410ce01f42b70dae99a588ac", "addresses": ["1Gsov2EiyiXu2Kf6dtjeC1B8ndRE7qbktR"], "asm": "OP_DUP OP_HASH160 ae25d8c8e33e3dc2093b410ce01f42b70dae99a5 OP_EQUALVERIFY OP_CHECKSIG", "type": "pubkeyhash"}, "value": 0.01754, "n": 2}], "hex": "0100000000010215c0cd0f5432a37369d925804d8c31fa2f8b61fe27aababdf79fdca6e403e6780400000023220020a04e6d408b625f6eb587dd97cf7532c8c5535ea65636c8af421889432267415dffffffffb3694764cedcea675b53ab9508d80863c6ee15a22ee35a71ff5d5bb609b140dc0000000023220020666c4a2c1bf10e5d5391ec1d6abbfa7e403ec7df3ee8691d6eb70d8ae09d01c5ffffffff03f0062200000000001976a91429ec13e6a942b4430dbbd05763a808fd82ce402588acf9b9a6000000000017a914ee33235645aefc210fd6a6d367b588ed3dfba4878790c31a00000000001976a914ae25d8c8e33e3dc2093b410ce01f42b70dae99a588ac0400483045022100cd70908f3ebb313366b57b79e198bb4c099d27bf3329fed7ff613935b12ac89f022042cd3595c70ae86e6457d533d2dd740313d351d48d284a376274d65601837aca014830450221008354fa32e0c005d1938f7a368d3102adf9b6bcd522e35876eae544939f34f53d0220203b97cbc54cfffc774d13efecb46c7c2cdab01fa112f5e90621754dd27422270169522102920c9dc99510c186eece5c53d1907e87688fb5c6f6fe9fb4cdb2b5500b2903622103dad842d4ddb38498f1222d441112476042f293f0a364e4b7652f78fba84ccf932103213dc5cae42e386c6e5be6d3a1c7633b261325d252326bacef527a4a27a672f653ae040047304402205e9245a3f92144573aa8c80a7a5f63040c77394650c7a3ff2e10fbc533d3b24302200996f29a153e396fe56517fcfb1040ae49506db3d23e2f000da73838c8d48af901483045022100964bc478efc31128774d01d51e11063139626b5ba47c5abcb7a464279d5175a602203bc8a642b7030723c475cfaaf1c1192557f70254225e936af97d5e06f9806024016952210375afbef8020c8daf8edfc99330c2c3db4a9f58c74b7eb7c9c331a49dc4d302e221036547a112896a2d39a2c016ba4ff87ffc02341c6953c5f1219327c9982b30b6642103a872e48bc1a3f8877da92c74c7949996a0b6a6bce899eb98b7b89eac380c498053ae00000000", "vin": [{"txinwitness": ["", "3045022100cd70908f3ebb313366b57b79e198bb4c099d27bf3329fed7ff613935b12ac89f022042cd3595c70ae86e6457d533d2dd740313d351d48d284a376274d65601837aca01", "30450221008354fa32e0c005d1938f7a368d3102adf9b6bcd522e35876eae544939f34f53d0220203b97cbc54cfffc774d13efecb46c7c2cdab01fa112f5e90621754dd274222701", "522102920c9dc99510c186eece5c53d1907e87688fb5c6f6fe9fb4cdb2b5500b2903622103dad842d4ddb38498f1222d441112476042f293f0a364e4b7652f78fba84ccf932103213dc5cae42e386c6e5be6d3a1c7633b261325d252326bacef527a4a27a672f653ae"], "sequence": 4294967295, "scriptSig": {"hex": "220020a04e6d408b625f6eb587dd97cf7532c8c5535ea65636c8af421889432267415d", "asm": "0020a04e6d408b625f6eb587dd97cf7532c8c5535ea65636c8af421889432267415d"}, "vout": 4, "txid": "78e603e4a6dc9ff7bdbaaa27fe618b2ffa318c4d8025d96973a332540fcdc015"}, {"txinwitness": ["", "304402205e9245a3f92144573aa8c80a7a5f63040c77394650c7a3ff2e10fbc533d3b24302200996f29a153e396fe56517fcfb1040ae49506db3d23e2f000da73838c8d48af901", "3045022100964bc478efc31128774d01d51e11063139626b5ba47c5abcb7a464279d5175a602203bc8a642b7030723c475cfaaf1c1192557f70254225e936af97d5e06f980602401", "52210375afbef8020c8daf8edfc99330c2c3db4a9f58c74b7eb7c9c331a49dc4d302e221036547a112896a2d39a2c016ba4ff87ffc02341c6953c5f1219327c9982b30b6642103a872e48bc1a3f8877da92c74c7949996a0b6a6bce899eb98b7b89eac380c498053ae"], "sequence": 4294967295, "scriptSig": {"hex": "220020666c4a2c1bf10e5d5391ec1d6abbfa7e403ec7df3ee8691d6eb70d8ae09d01c5", "asm": "0020666c4a2c1bf10e5d5391ec1d6abbfa7e403ec7df3ee8691d6eb70d8ae09d01c5"}, "vout": 0, "txid": "dc40b109b65b5dff715ae32ea215eec66308d80895ab535b67eadcce644769b3"}], "txid": "610f1054ae463b2d062f15f1ccc8c8c1e8a653632e1fcd28cc6fc8e41c675381", "blocktime": 1537871767, "version": 1, "confirmations": 11495, "time": 1537871767, "locktime": 0, "vsize": 390, "size": 771}