{"hash": "ed161eb93edc47f8e0dd00a7d1f120c8efc0f1074b7d9970e60c25bf775371e8", "blockhash": "00000000000000000004ffacab907a6b429b9a5745fa0b75af4234bf69dd7176", "vout": [{"scriptPubKey": {"reqSigs": 1, "hex": "76a9141a032a4d548fb5eb941395f1ac53d6ae8bdd753888ac", "addresses": ["13NYMuvdM5CaZVU6FDDLd3GVXXPTHnmyke"], "asm": "OP_DUP OP_HASH160 1a032a4d548fb5eb941395f1ac53d6ae8bdd7538 OP_EQUALVERIFY OP_CHECKSIG", "type": "pubkeyhash"}, "value": 0.13201384, "n": 0}, {"scriptPubKey": {"reqSigs": 1, "hex": "76a914b4a0636def537e3f995fb4eeb5be480e7d047f0888ac", "addresses": ["1HU4mWcha8P5BJizUJD7h4MDynVHq3oSTk"], "asm": "OP_DUP OP_HASH160 b4a0636def537e3f995fb4eeb5be480e7d047f08 OP_EQUALVERIFY OP_CHECKSIG", "type": "pubkeyhash"}, "value": 0.0054677, "n": 1}], "hex": "020000000001012db9d3e4a0e7502f18b26497105544d191fb660f3cacbc9eddd4ab755910c0df010000001716001491de076828cfc7b58377a7c7bd6d79a1dbf51d05feffffff02e86fc900000000001976a9141a032a4d548fb5eb941395f1ac53d6ae8bdd753888acd2570800000000001976a914b4a0636def537e3f995fb4eeb5be480e7d047f0888ac02483045022100c56b36d70369c3c7db730c222b59a91a9f41e2a953c9256c1a20c064956a223202201248e7fab3c4930c57a5d931025955420b81ea952705573056c6988843669feb0121022dd445383e4ab6bc24a360350d3d4705922e22450fe96efe63a4e064530875a016490800", "vin": [{"txinwitness": ["3045022100c56b36d70369c3c7db730c222b59a91a9f41e2a953c9256c1a20c064956a223202201248e7fab3c4930c57a5d931025955420b81ea952705573056c6988843669feb01", "022dd445383e4ab6bc24a360350d3d4705922e22450fe96efe63a4e064530875a0"], "sequence": 4294967294, "scriptSig": {"hex": "16001491de076828cfc7b58377a7c7bd6d79a1dbf51d05", "asm": "001491de076828cfc7b58377a7c7bd6d79a1dbf51d05"}, "vout": 1, "txid": "dfc0105975abd4dd9ebcac3c0f66fb91d14455109764b2182f50e7a0e4d3b92d"}], "txid": "610fc19da1516430d43c96f8a98f104d7cb1ff2de25b361a94abd2d94284a71b", "blocktime": 1537875543, "version": 2, "confirmations": 11464, "time": 1537875543, "locktime": 542998, "vsize": 170, "size": 252}