{"hash": "6116c9668cee933592088631cf3d4c1cc39c077876d360f5b6c5d7dc3f8109c4", "blockhash": "00000000000000000018f53835495a110e01622372bf6ae95dc86f2b0ab887b0", "vout": [{"scriptPubKey": {"reqSigs": 1, "hex": "76a914a6ccc4e9a524451649140d4cf161b1b61dc5d20288ac", "addresses": ["1GCxUTV2baPtPFf86sQTr9yZQUaLUgRkVb"], "asm": "OP_DUP OP_HASH160 a6ccc4e9a524451649140d4cf161b1b61dc5d202 OP_EQUALVERIFY OP_CHECKSIG", "type": "pubkeyhash"}, "value": 0.0095, "n": 0}, {"scriptPubKey": {"reqSigs": 1, "hex": "76a91498ee6aeae13e6c4d43ed8843246c4602d357f31688ac", "addresses": ["1EwdKhzPZpZK17Pnk3XEAKTfUVWtjg6xec"], "asm": "OP_DUP OP_HASH160 98ee6aeae13e6c4d43ed8843246c4602d357f316 OP_EQUALVERIFY OP_CHECKSIG", "type": "pubkeyhash"}, "value": 0.45985178, "n": 1}], "hex": "01000000017b67568b2f191d9273bcdb88884c38298f6ec824524a458370f648dd2619e5ea010000006a473044022047f560d12aaf19cefcd5ccaa98adaef2092f28492dcc1c6023a9beea3147425602203322a3da80a8c42aaba6f7eaf823d3fb2606f54dbc6a047eea5ee8569374a11c0121034750e3d89e989e1ceba7773c874daa299d0039a1f0c0bde76fcd7e0adffeef2effffffff02f07e0e00000000001976a914a6ccc4e9a524451649140d4cf161b1b61dc5d20288ac9aadbd02000000001976a91498ee6aeae13e6c4d43ed8843246c4602d357f31688ac00000000", "vin": [{"sequence": 4294967295, "scriptSig": {"hex": "473044022047f560d12aaf19cefcd5ccaa98adaef2092f28492dcc1c6023a9beea3147425602203322a3da80a8c42aaba6f7eaf823d3fb2606f54dbc6a047eea5ee8569374a11c0121034750e3d89e989e1ceba7773c874daa299d0039a1f0c0bde76fcd7e0adffeef2e", "asm": "3044022047f560d12aaf19cefcd5ccaa98adaef2092f28492dcc1c6023a9beea3147425602203322a3da80a8c42aaba6f7eaf823d3fb2606f54dbc6a047eea5ee8569374a11c[ALL] 034750e3d89e989e1ceba7773c874daa299d0039a1f0c0bde76fcd7e0adffeef2e"}, "vout": 1, "txid": "eae51926dd48f67083454a5224c86e8f29384c8888dbbc73921d192f8b56677b"}], "txid": "6116c9668cee933592088631cf3d4c1cc39c077876d360f5b6c5d7dc3f8109c4", "blocktime": 1537870928, "version": 1, "confirmations": 11514, "time": 1537870928, "locktime": 0, "vsize": 225, "size": 225}