{"hash": "61189ae1a03a88f06b10ea3f964dc6e2e0b94a75f8d9a9d2ef0e347efc5541a4", "blockhash": "0000000000000000001cda96e906b7601b7a6fb1a3b62bca570a9e5d8f4b3de1", "vout": [{"scriptPubKey": {"reqSigs": 1, "hex": "a914f7c44046c4a0ad6c0d2b5f5dc28b62b20b90a57487", "addresses": ["3QH5vgyEHYffu5hMqtbz3mwUgKB7fga46f"], "asm": "OP_HASH160 f7c44046c4a0ad6c0d2b5f5dc28b62b20b90a574 OP_EQUAL", "type": "scripthash"}, "value": 0.181143, "n": 0}, {"scriptPubKey": {"reqSigs": 1, "hex": "a914cf66d6097af8dff78f130306a6d3fd0eed78fc3887", "addresses": ["3LbezRq5feDDtbnLuJNRLgsWJp2C4ysSaX"], "asm": "OP_HASH160 cf66d6097af8dff78f130306a6d3fd0eed78fc38 OP_EQUAL", "type": "scripthash"}, "value": 0.00633162, "n": 1}], "hex": "010000000541af64b7c273fd5d8f5acc7c9e94a75ac3b8befd4d646bb442858c16998df31000000000db00483045022100bbef3964ec7844bfe307af4149252e3f5ef7cdd637075779c23de1ea1e04e150022019922a2272eb76c9de7fa18b895abe61d0ebafa92622526a3016ba1e11190ee201483045022100b5e681bd8215941ba81a4e98fc9d62e63c2f46cb2373cd44db88a3532f010d1c02203895f93d5912c2c660f0f1a6fbdcd449712ffcb713a01f4c3d88a55edab121e901475221038a1751335d88288474033880ba81a14c5f7f536f7a4de0bbe1836301a9f5fde021029cfe8b16f24284e020d06aaa2566da776776e275665691857265930c813bfb8252aefffffffff8a415855e9ba5d074e3f1c6889ed2d1a486aa4410e307ac63054ed8ec56643401000000da0048304502210081d6e01b19d9049f3051f690bc145b95c7a25ffdc19be7fa72e1c31ceceed76e022019aedd020f3734c62109fb212126be78d66d43311c0689b4869bbd75f9ac1d0f01473044022048d0690d9412d1f76024bb07ba2a734ce7facc2eb3686fe2081e9284a19788e202204a98c0d4c097299df679d9d3266f518e2d6bf29451018b68742daa4aa1bfdab801475221038a1751335d88288474033880ba81a14c5f7f536f7a4de0bbe1836301a9f5fde021029cfe8b16f24284e020d06aaa2566da776776e275665691857265930c813bfb8252aeffffffff8c8005e912aeb9403f64182e32f1fcfe7aafbe359296dd3714a56fc167ad24bc01000000da00483045022100f43561e50f61502998a5ba0b9ea8bf323768d016aa8a113db6623801dc5d260902203a5362e63d05049e3c341e17d39ec2b7c8f7fcea425a9f2e4a3a1c1c1fc8a54e0147304402207bc24da6f09d022846cb7c9607773e850ad44a010a055cec36935901d630289c0220146d9e8cebe6a610d95fd6b959a41653c33e082b49c688d807a3cd62869b4bad01475221038a1751335d88288474033880ba81a14c5f7f536f7a4de0bbe1836301a9f5fde021029cfe8b16f24284e020d06aaa2566da776776e275665691857265930c813bfb8252aeffffffff62b059458d579b6567699dab2caf64a5ea4f430273618c24155a65f173bc64ab01000000d90047304402201976b3fc1bb9bb5df9069560717bc7cee21d247ff21f3b81fcb5e4705da4aa0802202c30a3275b62ef5613414df305b60784675c93a6be159bd5cb3d7865a81ac411014730440220144a0839d3a10603fb39fbd2e76bede303bd4d7e30f808a16b45dc1b92fd821e022021815e383f31414791e35154b43f118fdba651478e7a58939b06a81c444afd1a01475221038a1751335d88288474033880ba81a14c5f7f536f7a4de0bbe1836301a9f5fde021029cfe8b16f24284e020d06aaa2566da776776e275665691857265930c813bfb8252aeffffffff36a0abffd85d3bbf91a937ff1d246501d886b92aacd7eb55b5208e2b90cb4ee200000000da004830450221008fe1132a8ff32f8e38a3756b93a24cef8d4b7596ec0c4c32966feeb52d7da10f0220616284e05ea76c0c36d816a571c1674b4e754b7e9133c7ebdf73d4232266e74a0147304402200345d8a19d8584ffa4669ea3b796dd0dd1cd4c7f6d3880f96854396a30b53eec02203346a37bbde04e6d5552aca13a2ab716f90fbc7c481875962fb7bcb712ef90fc01475221038a1751335d88288474033880ba81a14c5f7f536f7a4de0bbe1836301a9f5fde021029cfe8b16f24284e020d06aaa2566da776776e275665691857265930c813bfb8252aeffffffff02fc6614010000000017a914f7c44046c4a0ad6c0d2b5f5dc28b62b20b90a574874aa909000000000017a914cf66d6097af8dff78f130306a6d3fd0eed78fc388700000000", "vin": [{"sequence": 4294967295, "scriptSig": {"hex": "00483045022100bbef3964ec7844bfe307af4149252e3f5ef7cdd637075779c23de1ea1e04e150022019922a2272eb76c9de7fa18b895abe61d0ebafa92622526a3016ba1e11190ee201483045022100b5e681bd8215941ba81a4e98fc9d62e63c2f46cb2373cd44db88a3532f010d1c02203895f93d5912c2c660f0f1a6fbdcd449712ffcb713a01f4c3d88a55edab121e901475221038a1751335d88288474033880ba81a14c5f7f536f7a4de0bbe1836301a9f5fde021029cfe8b16f24284e020d06aaa2566da776776e275665691857265930c813bfb8252ae", "asm": "0 3045022100bbef3964ec7844bfe307af4149252e3f5ef7cdd637075779c23de1ea1e04e150022019922a2272eb76c9de7fa18b895abe61d0ebafa92622526a3016ba1e11190ee2[ALL] 3045022100b5e681bd8215941ba81a4e98fc9d62e63c2f46cb2373cd44db88a3532f010d1c02203895f93d5912c2c660f0f1a6fbdcd449712ffcb713a01f4c3d88a55edab121e9[ALL] 5221038a1751335d88288474033880ba81a14c5f7f536f7a4de0bbe1836301a9f5fde021029cfe8b16f24284e020d06aaa2566da776776e275665691857265930c813bfb8252ae"}, "vout": 0, "txid": "10f38d99168c8542b46b644dfdbeb8c35aa7949e7ccc5a8f5dfd73c2b764af41"}, {"sequence": 4294967295, "scriptSig": {"hex": "0048304502210081d6e01b19d9049f3051f690bc145b95c7a25ffdc19be7fa72e1c31ceceed76e022019aedd020f3734c62109fb212126be78d66d43311c0689b4869bbd75f9ac1d0f01473044022048d0690d9412d1f76024bb07ba2a734ce7facc2eb3686fe2081e9284a19788e202204a98c0d4c097299df679d9d3266f518e2d6bf29451018b68742daa4aa1bfdab801475221038a1751335d88288474033880ba81a14c5f7f536f7a4de0bbe1836301a9f5fde021029cfe8b16f24284e020d06aaa2566da776776e275665691857265930c813bfb8252ae", "asm": "0 304502210081d6e01b19d9049f3051f690bc145b95c7a25ffdc19be7fa72e1c31ceceed76e022019aedd020f3734c62109fb212126be78d66d43311c0689b4869bbd75f9ac1d0f[ALL] 3044022048d0690d9412d1f76024bb07ba2a734ce7facc2eb3686fe2081e9284a19788e202204a98c0d4c097299df679d9d3266f518e2d6bf29451018b68742daa4aa1bfdab8[ALL] 5221038a1751335d88288474033880ba81a14c5f7f536f7a4de0bbe1836301a9f5fde021029cfe8b16f24284e020d06aaa2566da776776e275665691857265930c813bfb8252ae"}, "vout": 1, "txid": "346456ecd84e0563ac07e31044aa86a4d1d29e88c6f1e374d0a59b5e8515a4f8"}, {"sequence": 4294967295, "scriptSig": {"hex": "00483045022100f43561e50f61502998a5ba0b9ea8bf323768d016aa8a113db6623801dc5d260902203a5362e63d05049e3c341e17d39ec2b7c8f7fcea425a9f2e4a3a1c1c1fc8a54e0147304402207bc24da6f09d022846cb7c9607773e850ad44a010a055cec36935901d630289c0220146d9e8cebe6a610d95fd6b959a41653c33e082b49c688d807a3cd62869b4bad01475221038a1751335d88288474033880ba81a14c5f7f536f7a4de0bbe1836301a9f5fde021029cfe8b16f24284e020d06aaa2566da776776e275665691857265930c813bfb8252ae", "asm": "0 3045022100f43561e50f61502998a5ba0b9ea8bf323768d016aa8a113db6623801dc5d260902203a5362e63d05049e3c341e17d39ec2b7c8f7fcea425a9f2e4a3a1c1c1fc8a54e[ALL] 304402207bc24da6f09d022846cb7c9607773e850ad44a010a055cec36935901d630289c0220146d9e8cebe6a610d95fd6b959a41653c33e082b49c688d807a3cd62869b4bad[ALL] 5221038a1751335d88288474033880ba81a14c5f7f536f7a4de0bbe1836301a9f5fde021029cfe8b16f24284e020d06aaa2566da776776e275665691857265930c813bfb8252ae"}, "vout": 1, "txid": "bc24ad67c16fa51437dd969235beaf7afefcf1322e18643f40b9ae12e905808c"}, {"sequence": 4294967295, "scriptSig": {"hex": "0047304402201976b3fc1bb9bb5df9069560717bc7cee21d247ff21f3b81fcb5e4705da4aa0802202c30a3275b62ef5613414df305b60784675c93a6be159bd5cb3d7865a81ac411014730440220144a0839d3a10603fb39fbd2e76bede303bd4d7e30f808a16b45dc1b92fd821e022021815e383f31414791e35154b43f118fdba651478e7a58939b06a81c444afd1a01475221038a1751335d88288474033880ba81a14c5f7f536f7a4de0bbe1836301a9f5fde021029cfe8b16f24284e020d06aaa2566da776776e275665691857265930c813bfb8252ae", "asm": "0 304402201976b3fc1bb9bb5df9069560717bc7cee21d247ff21f3b81fcb5e4705da4aa0802202c30a3275b62ef5613414df305b60784675c93a6be159bd5cb3d7865a81ac411[ALL] 30440220144a0839d3a10603fb39fbd2e76bede303bd4d7e30f808a16b45dc1b92fd821e022021815e383f31414791e35154b43f118fdba651478e7a58939b06a81c444afd1a[ALL] 5221038a1751335d88288474033880ba81a14c5f7f536f7a4de0bbe1836301a9f5fde021029cfe8b16f24284e020d06aaa2566da776776e275665691857265930c813bfb8252ae"}, "vout": 1, "txid": "ab64bc73f1655a15248c617302434feaa564af2cab9d6967659b578d4559b062"}, {"sequence": 4294967295, "scriptSig": {"hex": "004830450221008fe1132a8ff32f8e38a3756b93a24cef8d4b7596ec0c4c32966feeb52d7da10f0220616284e05ea76c0c36d816a571c1674b4e754b7e9133c7ebdf73d4232266e74a0147304402200345d8a19d8584ffa4669ea3b796dd0dd1cd4c7f6d3880f96854396a30b53eec02203346a37bbde04e6d5552aca13a2ab716f90fbc7c481875962fb7bcb712ef90fc01475221038a1751335d88288474033880ba81a14c5f7f536f7a4de0bbe1836301a9f5fde021029cfe8b16f24284e020d06aaa2566da776776e275665691857265930c813bfb8252ae", "asm": "0 30450221008fe1132a8ff32f8e38a3756b93a24cef8d4b7596ec0c4c32966feeb52d7da10f0220616284e05ea76c0c36d816a571c1674b4e754b7e9133c7ebdf73d4232266e74a[ALL] 304402200345d8a19d8584ffa4669ea3b796dd0dd1cd4c7f6d3880f96854396a30b53eec02203346a37bbde04e6d5552aca13a2ab716f90fbc7c481875962fb7bcb712ef90fc[ALL] 5221038a1751335d88288474033880ba81a14c5f7f536f7a4de0bbe1836301a9f5fde021029cfe8b16f24284e020d06aaa2566da776776e275665691857265930c813bfb8252ae"}, "vout": 0, "txid": "e24ecb902b8e20b555ebd7ac2ab986d80165241dff37a991bf3b5dd8ffaba036"}], "txid": "61189ae1a03a88f06b10ea3f964dc6e2e0b94a75f8d9a9d2ef0e347efc5541a4", "blocktime": 1537873282, "version": 1, "confirmations": 11484, "time": 1537873282, "locktime": 0, "vsize": 1369, "size": 1369}