{"hash": "611a30fb7867586ad1d47cf655e36e253d6c1f3d4cee644c88f013053cbcc9c1", "blockhash": "00000000000000000018f53835495a110e01622372bf6ae95dc86f2b0ab887b0", "vout": [{"scriptPubKey": {"reqSigs": 1, "hex": "a91476d2d3f9d62c310ad6b13b4a2e25807ff1e6b0bf87", "addresses": ["3CXJDmWHBx5jL1xNypJwR6HrWMYm9gVuTq"], "asm": "OP_HASH160 76d2d3f9d62c310ad6b13b4a2e25807ff1e6b0bf OP_EQUAL", "type": "scripthash"}, "value": 0.15876574, "n": 0}], "hex": "01000000051682de3d2a47dd145ee5cb7e330fc0fa4b66ea40fced168c89eaada6600f493b8c0000006a473044022053944977570605340f03bd50a16818612ecd673c9a06b99f1f8b3a0cc966c2ae022066a8914272946c88834c8a252c8bea7fc7555980714efa022667ad51b98d30ca012103250498a4f89ea7374c74f07b189f35e07ff4ef58d7e2a6210eb04a233edd2ad9ffffffff36a3d691d6e1dddef7c4db8187daba2d4e09237323613c2821c93817a448423e960000006b483045022100ffc85580be361399d7db5755033f759d0defcb8b96dc80ac8ff0503d6d7a4e4f02201f094e730a191d7d53f314b434f48a235c3d1cb92525c8f11db8fa59a803c0b1012103250498a4f89ea7374c74f07b189f35e07ff4ef58d7e2a6210eb04a233edd2ad9ffffffff7ab0ec639ae5d2948c93572f12cb4dfc3518bc92353e02fcd5c2859c2a02945fee0000006b4830450221008d1bf671f4b4e71d282c4c7356b05478f1e1615487d38ef8a64fc15e64feb0d902207495bb7268712acb94bed87f46df9f21b08030dd0ef1149c3432c92c537b7d25012103250498a4f89ea7374c74f07b189f35e07ff4ef58d7e2a6210eb04a233edd2ad9ffffffffa5411207ba6fc6332d91543a1cc3bcddf57170263b35cd3ff71310d779017f63010000006b4830450221008badde3c936a9384e3e912dc408c54e6aefd8e271aa3571f9c5d0df2e976178d022066ac27057064f17b2b0d1e19620b1132c190c49fb4e86fd83858b4f9ddaac5ae0121037de6dc9c7d440917c3ccb5cd5d1a5dc485db39b621d9ea9635ff7db6c6cd20daffffffffe698f9bf21b8cacb08a208c4c246803f5d1b22db1bdbadebcc05313528152bb6010100006b483045022100b18f5d738622d97926b6d98b2162927580b573274b766973bee99e383b9f42f3022066805fcf19e96683502dadd9687728dac228b1e6d84735332ceac69b7bd886bf012103250498a4f89ea7374c74f07b189f35e07ff4ef58d7e2a6210eb04a233edd2ad9ffffffff01de41f2000000000017a91476d2d3f9d62c310ad6b13b4a2e25807ff1e6b0bf8700000000", "vin": [{"sequence": 4294967295, "scriptSig": {"hex": "473044022053944977570605340f03bd50a16818612ecd673c9a06b99f1f8b3a0cc966c2ae022066a8914272946c88834c8a252c8bea7fc7555980714efa022667ad51b98d30ca012103250498a4f89ea7374c74f07b189f35e07ff4ef58d7e2a6210eb04a233edd2ad9", "asm": "3044022053944977570605340f03bd50a16818612ecd673c9a06b99f1f8b3a0cc966c2ae022066a8914272946c88834c8a252c8bea7fc7555980714efa022667ad51b98d30ca[ALL] 03250498a4f89ea7374c74f07b189f35e07ff4ef58d7e2a6210eb04a233edd2ad9"}, "vout": 140, "txid": "3b490f60a6adea898c16edfc40ea664bfac00f337ecbe55e14dd472a3dde8216"}, {"sequence": 4294967295, "scriptSig": {"hex": "483045022100ffc85580be361399d7db5755033f759d0defcb8b96dc80ac8ff0503d6d7a4e4f02201f094e730a191d7d53f314b434f48a235c3d1cb92525c8f11db8fa59a803c0b1012103250498a4f89ea7374c74f07b189f35e07ff4ef58d7e2a6210eb04a233edd2ad9", "asm": "3045022100ffc85580be361399d7db5755033f759d0defcb8b96dc80ac8ff0503d6d7a4e4f02201f094e730a191d7d53f314b434f48a235c3d1cb92525c8f11db8fa59a803c0b1[ALL] 03250498a4f89ea7374c74f07b189f35e07ff4ef58d7e2a6210eb04a233edd2ad9"}, "vout": 150, "txid": "3e4248a41738c921283c61237323094e2dbada8781dbc4f7dedde1d691d6a336"}, {"sequence": 4294967295, "scriptSig": {"hex": "4830450221008d1bf671f4b4e71d282c4c7356b05478f1e1615487d38ef8a64fc15e64feb0d902207495bb7268712acb94bed87f46df9f21b08030dd0ef1149c3432c92c537b7d25012103250498a4f89ea7374c74f07b189f35e07ff4ef58d7e2a6210eb04a233edd2ad9", "asm": "30450221008d1bf671f4b4e71d282c4c7356b05478f1e1615487d38ef8a64fc15e64feb0d902207495bb7268712acb94bed87f46df9f21b08030dd0ef1149c3432c92c537b7d25[ALL] 03250498a4f89ea7374c74f07b189f35e07ff4ef58d7e2a6210eb04a233edd2ad9"}, "vout": 238, "txid": "5f94022a9c85c2d5fc023e3592bc1835fc4dcb122f57938c94d2e59a63ecb07a"}, {"sequence": 4294967295, "scriptSig": {"hex": "4830450221008badde3c936a9384e3e912dc408c54e6aefd8e271aa3571f9c5d0df2e976178d022066ac27057064f17b2b0d1e19620b1132c190c49fb4e86fd83858b4f9ddaac5ae0121037de6dc9c7d440917c3ccb5cd5d1a5dc485db39b621d9ea9635ff7db6c6cd20da", "asm": "30450221008badde3c936a9384e3e912dc408c54e6aefd8e271aa3571f9c5d0df2e976178d022066ac27057064f17b2b0d1e19620b1132c190c49fb4e86fd83858b4f9ddaac5ae[ALL] 037de6dc9c7d440917c3ccb5cd5d1a5dc485db39b621d9ea9635ff7db6c6cd20da"}, "vout": 1, "txid": "637f0179d71013f73fcd353b267071f5ddbcc31c3a54912d33c66fba071241a5"}, {"sequence": 4294967295, "scriptSig": {"hex": "483045022100b18f5d738622d97926b6d98b2162927580b573274b766973bee99e383b9f42f3022066805fcf19e96683502dadd9687728dac228b1e6d84735332ceac69b7bd886bf012103250498a4f89ea7374c74f07b189f35e07ff4ef58d7e2a6210eb04a233edd2ad9", "asm": "3045022100b18f5d738622d97926b6d98b2162927580b573274b766973bee99e383b9f42f3022066805fcf19e96683502dadd9687728dac228b1e6d84735332ceac69b7bd886bf[ALL] 03250498a4f89ea7374c74f07b189f35e07ff4ef58d7e2a6210eb04a233edd2ad9"}, "vout": 257, "txid": "b62b1528353105ccebaddb1bdb221b5d3f8046c2c408a208cbcab821bff998e6"}], "txid": "611a30fb7867586ad1d47cf655e36e253d6c1f3d4cee644c88f013053cbcc9c1", "blocktime": 1537870928, "version": 1, "confirmations": 11512, "time": 1537870928, "locktime": 0, "vsize": 781, "size": 781}