{"hash": "17aec5a21c749bc09158ab16c2be15a87acab9639e81f44af26e995b5cd2eee0", "blockhash": "00000000000000000024a2167bbff67b0be802c0b01cdd79e6331c2be6459f87", "vout": [{"scriptPubKey": {"reqSigs": 1, "hex": "a9142a421c04eb749a8d27cd9db6924237aad9a354d087", "addresses": ["35YTVxy2wp9A3XStZ28VKi2euP2KDZSURT"], "asm": "OP_HASH160 2a421c04eb749a8d27cd9db6924237aad9a354d0 OP_EQUAL", "type": "scripthash"}, "value": 3e-05, "n": 0}, {"scriptPubKey": {"reqSigs": 1, "hex": "a914b51d88872c790e5df04eb2ce11285b1723dd893d87", "addresses": ["3JCfcGwM4RB8g38o2GNwMmBQRHtejvYLWM"], "asm": "OP_HASH160 b51d88872c790e5df04eb2ce11285b1723dd893d OP_EQUAL", "type": "scripthash"}, "value": 0.00205448, "n": 1}], "hex": "0100000000010494bea630280bdda2d199cb9fdfbd18ab4aff279daf3a40e8644174e05488a2330000000017160014844d60d9530b3f3fe4f2295a8448289b95347494ffffffffebb18ea7c7d4f8cb5319f8aea874a1f995c403b5bf7d226c41085ff04c923da10100000017160014d822fd2cafa47b738b97364129f12f2688d3abf5ffffffffffef71bbb24c241d4550dfc25502af22001528e4d6ac53aaac1b68ff455f09b500000000171600140c872ceade3f0017150cf61e11089ff8b072bb67ffffffff095b4d5d82adabdce7fff088a49f0c25ab8d95222495c7d97f9553ea94e62fc8000000001716001487053633f542e2a83ba69e4f8cf1e1a34e889435ffffffff02b80b00000000000017a9142a421c04eb749a8d27cd9db6924237aad9a354d087882203000000000017a914b51d88872c790e5df04eb2ce11285b1723dd893d8702483045022100cf124df122efe18039c7482c39e00f324e48198f6b6f55392234f41947be60d802207dd5ed676c61493eefcd37f4634a05d9f9c70f558e9acc34ff6093347c258d6e0121039eaf3372cc996ff3ed7043f274f52b3494da8ec28e8d7bb783ba56c5bd99d41c02483045022100881d121d41cc3aded4ca82fd6272631d962444efe1c1e424f7f48d5cb51af60802202704ef869071874feb94877cbd5486f2c23c2c3d173a634163cd8b95ab8cd16a01210361d1f8ce8423872c01d734b065c5b94ac7ee141e4399577cbb0fa69cb548ab5f02483045022100b55009bd218e5621b68c2973c8f739f2d43e5d5865a2b84143b33b227c3e67a7022054f5d7314af6599776118be6b5f30e6358eb1de28350c9d21c37aeeb5118d31d012102cc635572620e6e470cbe100b846ac32d7417dd374578b0a385934ffea178f13e02483045022100fdbe912f8baae65991aaba0e415ef2126f076c3b117bfd242b71b2b40841fdf002207eaddd230b4ff7dce51a3b8a29ca33d974672950456a5e1071a0272201c6a2c4012102d8175a4da3f2f60a48e05dc61252759f49415debcf69783b3b26782d42e1784600000000", "vin": [{"txinwitness": ["3045022100cf124df122efe18039c7482c39e00f324e48198f6b6f55392234f41947be60d802207dd5ed676c61493eefcd37f4634a05d9f9c70f558e9acc34ff6093347c258d6e01", "039eaf3372cc996ff3ed7043f274f52b3494da8ec28e8d7bb783ba56c5bd99d41c"], "sequence": 4294967295, "scriptSig": {"hex": "160014844d60d9530b3f3fe4f2295a8448289b95347494", "asm": "0014844d60d9530b3f3fe4f2295a8448289b95347494"}, "vout": 0, "txid": "33a28854e0744164e8403aaf9d27ff4aab18bddf9fcb99d1a2dd0b2830a6be94"}, {"txinwitness": ["3045022100881d121d41cc3aded4ca82fd6272631d962444efe1c1e424f7f48d5cb51af60802202704ef869071874feb94877cbd5486f2c23c2c3d173a634163cd8b95ab8cd16a01", "0361d1f8ce8423872c01d734b065c5b94ac7ee141e4399577cbb0fa69cb548ab5f"], "sequence": 4294967295, "scriptSig": {"hex": "160014d822fd2cafa47b738b97364129f12f2688d3abf5", "asm": "0014d822fd2cafa47b738b97364129f12f2688d3abf5"}, "vout": 1, "txid": "a13d924cf05f08416c227dbfb503c495f9a174a8aef81953cbf8d4c7a78eb1eb"}, {"txinwitness": ["3045022100b55009bd218e5621b68c2973c8f739f2d43e5d5865a2b84143b33b227c3e67a7022054f5d7314af6599776118be6b5f30e6358eb1de28350c9d21c37aeeb5118d31d01", "02cc635572620e6e470cbe100b846ac32d7417dd374578b0a385934ffea178f13e"], "sequence": 4294967295, "scriptSig": {"hex": "1600140c872ceade3f0017150cf61e11089ff8b072bb67", "asm": "00140c872ceade3f0017150cf61e11089ff8b072bb67"}, "vout": 0, "txid": "b5095f45ff681bacaa53acd6e428150022af0255c2df50451d244cb2bb71efff"}, {"txinwitness": ["3045022100fdbe912f8baae65991aaba0e415ef2126f076c3b117bfd242b71b2b40841fdf002207eaddd230b4ff7dce51a3b8a29ca33d974672950456a5e1071a0272201c6a2c401", "02d8175a4da3f2f60a48e05dc61252759f49415debcf69783b3b26782d42e17846"], "sequence": 4294967295, "scriptSig": {"hex": "16001487053633f542e2a83ba69e4f8cf1e1a34e889435", "asm": "001487053633f542e2a83ba69e4f8cf1e1a34e889435"}, "vout": 0, "txid": "c82fe694ea53957fd9c7952422958dab250c9fa488f0ffe7dcabad825d4d5b09"}], "txid": "611a72f707258b59ebdcd17cda8e2f0311da6df1a530288c1df860a7e487fe01", "blocktime": 1537870564, "version": 1, "confirmations": 11515, "time": 1537870564, "locktime": 0, "vsize": 439, "size": 764}