{"hash": "b5e6224c4a6ad7b47174e0060ca11e6d9ebe6dc326f59f5b1e45294997523978", "blockhash": "0000000000000000000baef3f32e3676a92c3b2e5da21b426e4f302fc371ce76", "vout": [{"scriptPubKey": {"reqSigs": 1, "hex": "a91460c2da0ed49f359d0f919bf17877cc966169849787", "addresses": ["3AWeDVuFGTjswd4vWDzozMwZGaJyypS5jg"], "asm": "OP_HASH160 60c2da0ed49f359d0f919bf17877cc9661698497 OP_EQUAL", "type": "scripthash"}, "value": 0.01098087, "n": 0}, {"scriptPubKey": {"reqSigs": 1, "hex": "a914e27d3088fe4e5f7dcaf0b121a01d379d9aa82e6f87", "addresses": ["3NLacDsGxVXe8jx9ktiwtE1QLtJCEcGnjD"], "asm": "OP_HASH160 e27d3088fe4e5f7dcaf0b121a01d379d9aa82e6f OP_EQUAL", "type": "scripthash"}, "value": 0.00370498, "n": 1}], "hex": "020000000001023682ff96eccd748b51878f5725e84bb3fa22215284ec8969f85888103fc2bee9000000001716001460280ddfa9892dbd3b85ac3ae58cfdd98a7bf371feffffff8e6295c627d50f7808b308f5e3dd843637db2ff9689a823fc5ce8e94231da77c03000000171600146e232727c17ae143314695897f35cd48659b940afeffffff0267c110000000000017a91460c2da0ed49f359d0f919bf17877cc96616984978742a705000000000017a914e27d3088fe4e5f7dcaf0b121a01d379d9aa82e6f8702483045022100d137ef76230334b02d609340a92cdb830ef4e1cad10cc2daf39ba3f98e2e9ac9022049ecaa38e1708aa9635de57a9ac701bde59d359bfa861d42dc3c72f44cfdcb190121035a56c0f3546badc764d1063eba20c9a832cc537bb5f611c5b7f07ec849d9ac6b02473044022010915be61d347191d4037458f502775c710ffef30ec6ef5d63022f73e13562e502201b6bbf3bd7cc4ffac4516197af4868b5b04c0271f736c90e0519e4bc9073fca50121021d96db6f7067e66bff639c891e104092cd587a1103faabe28452690c25e6da5f17490800", "vin": [{"txinwitness": ["3045022100d137ef76230334b02d609340a92cdb830ef4e1cad10cc2daf39ba3f98e2e9ac9022049ecaa38e1708aa9635de57a9ac701bde59d359bfa861d42dc3c72f44cfdcb1901", "035a56c0f3546badc764d1063eba20c9a832cc537bb5f611c5b7f07ec849d9ac6b"], "sequence": 4294967294, "scriptSig": {"hex": "16001460280ddfa9892dbd3b85ac3ae58cfdd98a7bf371", "asm": "001460280ddfa9892dbd3b85ac3ae58cfdd98a7bf371"}, "vout": 0, "txid": "e9bec23f108858f86989ec84522122fab34be825578f87518b74cdec96ff8236"}, {"txinwitness": ["3044022010915be61d347191d4037458f502775c710ffef30ec6ef5d63022f73e13562e502201b6bbf3bd7cc4ffac4516197af4868b5b04c0271f736c90e0519e4bc9073fca501", "021d96db6f7067e66bff639c891e104092cd587a1103faabe28452690c25e6da5f"], "sequence": 4294967294, "scriptSig": {"hex": "1600146e232727c17ae143314695897f35cd48659b940a", "asm": "00146e232727c17ae143314695897f35cd48659b940a"}, "vout": 3, "txid": "7ca71d23948ecec53f829a68f92fdb373684dde3f508b308780fd527c695628e"}], "txid": "611bcc974e583a44e413045d8f11a361d2986c2b3d79dec4ef90b93aaa6dfdf7", "blocktime": 1537876114, "version": 2, "confirmations": 11462, "time": 1537876114, "locktime": 542999, "vsize": 257, "size": 419}