{"hash": "611d87637590fb9d4b378d784074d9a0b4c87c03822d5b2075d38c0fbe8079d6", "blockhash": "0000000000000000001f0ddff1eddb255c1121bcd4da4f1bc9a0da00cae72433", "vout": [{"scriptPubKey": {"reqSigs": 1, "hex": "76a9141ba70ce735139b45dc8e23932b5a7dbb63ffb26688ac", "addresses": ["13XDN3c3WSrHz3E7DRikLMwHdLprfENPwv"], "asm": "OP_DUP OP_HASH160 1ba70ce735139b45dc8e23932b5a7dbb63ffb266 OP_EQUALVERIFY OP_CHECKSIG", "type": "pubkeyhash"}, "value": 0.29997529, "n": 0}], "hex": "01000000010666688dbb3c93d607970f06a7cb87196041b54439fa77e9416a2a9d825b6aa7000000006b483045022100fdd61ec1a62b29ffcaad271dce57d8b1a6306a6e4e97dcc0254b42b71100cb30022036b78da1377b670af13a0d3739a87200543e388117842cd336f12aea78237191012102ca9f7d7daeef6e23cd2fb88560a90e0c5244d38bc4733078c3269ca697a793a3ffffffff01d9b9c901000000001976a9141ba70ce735139b45dc8e23932b5a7dbb63ffb26688ac00000000", "vin": [{"sequence": 4294967295, "scriptSig": {"hex": "483045022100fdd61ec1a62b29ffcaad271dce57d8b1a6306a6e4e97dcc0254b42b71100cb30022036b78da1377b670af13a0d3739a87200543e388117842cd336f12aea78237191012102ca9f7d7daeef6e23cd2fb88560a90e0c5244d38bc4733078c3269ca697a793a3", "asm": "3045022100fdd61ec1a62b29ffcaad271dce57d8b1a6306a6e4e97dcc0254b42b71100cb30022036b78da1377b670af13a0d3739a87200543e388117842cd336f12aea78237191[ALL] 02ca9f7d7daeef6e23cd2fb88560a90e0c5244d38bc4733078c3269ca697a793a3"}, "vout": 0, "txid": "a76a5b829d2a6a41e977fa3944b541601987cba7060f9707d6933cbb8d686606"}], "txid": "611d87637590fb9d4b378d784074d9a0b4c87c03822d5b2075d38c0fbe8079d6", "blocktime": 1537872018, "version": 1, "confirmations": 11489, "time": 1537872018, "locktime": 0, "vsize": 192, "size": 192}