{"hash": "611f6ddaebe1fec030b0576c22bd170be320f1892e19fe7f26e1c6c10182f513", "blockhash": "0000000000000000000e13cef7c366c0283d82e591d1acd082e914b08063cdf1", "vout": [{"scriptPubKey": {"reqSigs": 1, "hex": "a9147855b6cc6fdaf66f30eb31fd45e981e1c8f7996c87", "addresses": ["3CfHh5d22JVLuALzZJimkVqH1W7z9nKhP8"], "asm": "OP_HASH160 7855b6cc6fdaf66f30eb31fd45e981e1c8f7996c OP_EQUAL", "type": "scripthash"}, "value": 0.52585177, "n": 0}, {"scriptPubKey": {"reqSigs": 1, "hex": "76a914d5ba2eb2d52670fbe9522748bf642da754eb0d6f88ac", "addresses": ["1LV5y3NkVkmdWnF6xRCEXrAnUkRgge4KSq"], "asm": "OP_DUP OP_HASH160 d5ba2eb2d52670fbe9522748bf642da754eb0d6f OP_EQUALVERIFY OP_CHECKSIG", "type": "pubkeyhash"}, "value": 9.45899391, "n": 1}], "hex": "0100000001bc4dffccf4a841513c1a82977b217529ffe951eb325bffb1621a9f909eb8e723010000006a47304402201d080cdd74a3a2b0d97249f512523834ae758d7b56e42488df7aba3e184442a90220414aa700050b798a3d5c4d756195c37780a83e23580e14dad5c7a13b157084d3012102c19ebc0e7fe714e24c55adaeebc7dbab2dc9a208b511bd1b6e83db85506d4d19ffffffff02d96222030000000017a9147855b6cc6fdaf66f30eb31fd45e981e1c8f7996c877f476138000000001976a914d5ba2eb2d52670fbe9522748bf642da754eb0d6f88ac00000000", "vin": [{"sequence": 4294967295, "scriptSig": {"hex": "47304402201d080cdd74a3a2b0d97249f512523834ae758d7b56e42488df7aba3e184442a90220414aa700050b798a3d5c4d756195c37780a83e23580e14dad5c7a13b157084d3012102c19ebc0e7fe714e24c55adaeebc7dbab2dc9a208b511bd1b6e83db85506d4d19", "asm": "304402201d080cdd74a3a2b0d97249f512523834ae758d7b56e42488df7aba3e184442a90220414aa700050b798a3d5c4d756195c37780a83e23580e14dad5c7a13b157084d3[ALL] 02c19ebc0e7fe714e24c55adaeebc7dbab2dc9a208b511bd1b6e83db85506d4d19"}, "vout": 1, "txid": "23e7b89e909f1a62b1ff5b32eb51e9ff2975217b97821a3c5141a8f4ccff4dbc"}], "txid": "611f6ddaebe1fec030b0576c22bd170be320f1892e19fe7f26e1c6c10182f513", "blocktime": 1537871767, "version": 1, "confirmations": 11494, "time": 1537871767, "locktime": 0, "vsize": 223, "size": 223}