{"hash": "611f807d13b92b5e1720ef71758c12b5a45dcc808d8f49fa40065dd198a753ec", "blockhash": "00000000000000000017f5eb5941039fbcee6240d03bc1f2f8e35350df66a1d8", "vout": [{"scriptPubKey": {"reqSigs": 1, "hex": "a91404566a8360bd8baf2ce605548fc24446f316704987", "addresses": ["325x9c2QtFiGwUUR7W1JvxAWhw1M9z13Dm"], "asm": "OP_HASH160 04566a8360bd8baf2ce605548fc24446f3167049 OP_EQUAL", "type": "scripthash"}, "value": 0.02, "n": 0}, {"scriptPubKey": {"reqSigs": 1, "hex": "a91486ed17bfa7bd80cf87cf7e80abd9289079b78c5b87", "addresses": ["3DzSVk4veMCkNbNT9CdETeE26uWxmNbBnD"], "asm": "OP_HASH160 86ed17bfa7bd80cf87cf7e80abd9289079b78c5b OP_EQUAL", "type": "scripthash"}, "value": 11.2792665, "n": 1}], "hex": "0200000001eb1d476859ad4d2b69ee9367fb87a08114ec8d22d4fbc99ced34b0e74e3d7e8601000000db00483045022100979c0f3ce7b8eb22cbec6722c66dca4869b0bbeb1f4e611534a7784175f56926022070efbd7e3146f7f105e616fce7679de8884aa711015b3f7987b3765e0e93476901483045022100d9f47e56be0dd067ba7296e107d86159f6659810ed3948a7850b8a6d7682eec80220714203c9930697a8c138bc1b84962ceac48743f4711a16768038326889a6125601475221038934160de8ad1dd529329f5bf51e3086cc0f6d19e10fb4120385f23d871c0c1d21021659435e23e3891d39ec2b0266b3c14a68cb4e45adb8543f31508310c98722d952aeffffffff0280841e000000000017a91404566a8360bd8baf2ce605548fc24446f3167049877acb3a430000000017a91486ed17bfa7bd80cf87cf7e80abd9289079b78c5b8700000000", "vin": [{"sequence": 4294967295, "scriptSig": {"hex": "00483045022100979c0f3ce7b8eb22cbec6722c66dca4869b0bbeb1f4e611534a7784175f56926022070efbd7e3146f7f105e616fce7679de8884aa711015b3f7987b3765e0e93476901483045022100d9f47e56be0dd067ba7296e107d86159f6659810ed3948a7850b8a6d7682eec80220714203c9930697a8c138bc1b84962ceac48743f4711a16768038326889a6125601475221038934160de8ad1dd529329f5bf51e3086cc0f6d19e10fb4120385f23d871c0c1d21021659435e23e3891d39ec2b0266b3c14a68cb4e45adb8543f31508310c98722d952ae", "asm": "0 3045022100979c0f3ce7b8eb22cbec6722c66dca4869b0bbeb1f4e611534a7784175f56926022070efbd7e3146f7f105e616fce7679de8884aa711015b3f7987b3765e0e934769[ALL] 3045022100d9f47e56be0dd067ba7296e107d86159f6659810ed3948a7850b8a6d7682eec80220714203c9930697a8c138bc1b84962ceac48743f4711a16768038326889a61256[ALL] 5221038934160de8ad1dd529329f5bf51e3086cc0f6d19e10fb4120385f23d871c0c1d21021659435e23e3891d39ec2b0266b3c14a68cb4e45adb8543f31508310c98722d952ae"}, "vout": 1, "txid": "867e3d4ee7b034ed9cc9fbd4228dec1481a087fb6793ee692b4dad5968471deb"}], "txid": "611f807d13b92b5e1720ef71758c12b5a45dcc808d8f49fa40065dd198a753ec", "blocktime": 1537874412, "version": 2, "confirmations": 11467, "time": 1537874412, "locktime": 0, "vsize": 334, "size": 334}