{"hash": "6123579fe3e397a4ac6b2d5832964021cd183a84fad4454ee3e176db0380a115", "blockhash": "00000000000000000017f5eb5941039fbcee6240d03bc1f2f8e35350df66a1d8", "vout": [{"scriptPubKey": {"reqSigs": 1, "hex": "a9143e6f15908582f42917ec31e39bf8722fc9d5db3f87", "addresses": ["37P8thrtDXb6Di5E7f4FL3bpzum3fhUvT7"], "asm": "OP_HASH160 3e6f15908582f42917ec31e39bf8722fc9d5db3f OP_EQUAL", "type": "scripthash"}, "value": 0.0002, "n": 0}, {"scriptPubKey": {"reqSigs": 1, "hex": "a914fe162e9d025fc82a658a8c487c73de3702241da987", "addresses": ["3QrW8WMHMiJF2eGkTLE8efmNNaVxyYoL3Z"], "asm": "OP_HASH160 fe162e9d025fc82a658a8c487c73de3702241da9 OP_EQUAL", "type": "scripthash"}, "value": 0.0002, "n": 1}, {"scriptPubKey": {"reqSigs": 1, "hex": "a914582dde95d296a38edb4418e8b7c7126ed0b1457587", "addresses": ["39jGLVUS9AU5927QX6M964x8at4aEBt37q"], "asm": "OP_HASH160 582dde95d296a38edb4418e8b7c7126ed0b14575 OP_EQUAL", "type": "scripthash"}, "value": 0.01218548, "n": 2}], "hex": "0100000001b2482435d9ae58fea4b45e07811fef726ced72ac62f8ab0d619a436e153b2d18010000006a47304402202f6a8a3e2455c4aaf2247cd17714e2907e6a2280625d19a550c9bb8edaed686602204bddc469d875605eec39e835d1797089bec8ab45a2f3f8a562035d260efb7540012103d8c606c2e627c327f18f79d150be458456a086fd7870d5cf65a9f2b2ad9fab5cffffffff03204e00000000000017a9143e6f15908582f42917ec31e39bf8722fc9d5db3f87204e00000000000017a914fe162e9d025fc82a658a8c487c73de3702241da987f49712000000000017a914582dde95d296a38edb4418e8b7c7126ed0b145758700000000", "vin": [{"sequence": 4294967295, "scriptSig": {"hex": "47304402202f6a8a3e2455c4aaf2247cd17714e2907e6a2280625d19a550c9bb8edaed686602204bddc469d875605eec39e835d1797089bec8ab45a2f3f8a562035d260efb7540012103d8c606c2e627c327f18f79d150be458456a086fd7870d5cf65a9f2b2ad9fab5c", "asm": "304402202f6a8a3e2455c4aaf2247cd17714e2907e6a2280625d19a550c9bb8edaed686602204bddc469d875605eec39e835d1797089bec8ab45a2f3f8a562035d260efb7540[ALL] 03d8c606c2e627c327f18f79d150be458456a086fd7870d5cf65a9f2b2ad9fab5c"}, "vout": 1, "txid": "182d3b156e439a610dabf862ac72ed6c72ef1f81075eb4a4fe58aed9352448b2"}], "txid": "6123579fe3e397a4ac6b2d5832964021cd183a84fad4454ee3e176db0380a115", "blocktime": 1537874412, "version": 1, "confirmations": 11466, "time": 1537874412, "locktime": 0, "vsize": 253, "size": 253}