{"hash": "07cfc8a4e379412063ee95c92ed1818b77e0030b805306dcdeed94ba27ab2464", "blockhash": "00000000000000000018f53835495a110e01622372bf6ae95dc86f2b0ab887b0", "vout": [{"scriptPubKey": {"reqSigs": 1, "hex": "76a914060eb97599559af4fbc1247e4e909db967e316b588ac", "addresses": ["1Z2hDyhRbQVcbfzvjuq4FySJ86CskyikK"], "asm": "OP_DUP OP_HASH160 060eb97599559af4fbc1247e4e909db967e316b5 OP_EQUALVERIFY OP_CHECKSIG", "type": "pubkeyhash"}, "value": 0.0025176, "n": 0}, {"scriptPubKey": {"reqSigs": 1, "hex": "a9149b22d6f2cf30f1bc990d812d5951284d71a34ee687", "addresses": ["3FqJPyh94kF3dM93uKxfxYs7HSGyAWrMu3"], "asm": "OP_HASH160 9b22d6f2cf30f1bc990d812d5951284d71a34ee6 OP_EQUAL", "type": "scripthash"}, "value": 0.00999522, "n": 1}], "hex": "02000000000102053d86b3a9205c5ecaa68f50b82145d1ecacf75d54fa7121c3b2e120efb815630100000017160014fef4a9c3c77ed0efafceca7e19f8ed3006e57cf5feffffffea78916916e332db4845511f43328b222184a1a09c93d2a7ff795c57e46c90390700000017160014d9fa3abeed1922ba7599b9f9c158f0762d9ab855feffffff0270d70300000000001976a914060eb97599559af4fbc1247e4e909db967e316b588ac62400f000000000017a9149b22d6f2cf30f1bc990d812d5951284d71a34ee6870247304402206bcfb79bc2892c006b4d69aea1f366b2f9090fed927a21cbb42b254a8f8b65980220543d279784f3c14bc62e9a4e2bb7a6420929996236e9a6e7f4da777472e021ce0121037a3f7baf7d95e93ce704e850ff06f4daa51f668653ca1470a26c560b0caf503702483045022100e0f4d3734fa65fff29e43963c173aa8a8b9c4d25fd63a837a19a8438e0bef67802205da7171e3c3daf797dc14a2d11171677752a5df2785cbee37b26a666862921ff0121037ffdb87f182d28e098617cae5eaac3f46a3316e4051da4943fcc8efaa502b9ea0e490800", "vin": [{"txinwitness": ["304402206bcfb79bc2892c006b4d69aea1f366b2f9090fed927a21cbb42b254a8f8b65980220543d279784f3c14bc62e9a4e2bb7a6420929996236e9a6e7f4da777472e021ce01", "037a3f7baf7d95e93ce704e850ff06f4daa51f668653ca1470a26c560b0caf5037"], "sequence": 4294967294, "scriptSig": {"hex": "160014fef4a9c3c77ed0efafceca7e19f8ed3006e57cf5", "asm": "0014fef4a9c3c77ed0efafceca7e19f8ed3006e57cf5"}, "vout": 1, "txid": "6315b8ef20e1b2c32171fa545df7acecd14521b8508fa6ca5e5c20a9b3863d05"}, {"txinwitness": ["3045022100e0f4d3734fa65fff29e43963c173aa8a8b9c4d25fd63a837a19a8438e0bef67802205da7171e3c3daf797dc14a2d11171677752a5df2785cbee37b26a666862921ff01", "037ffdb87f182d28e098617cae5eaac3f46a3316e4051da4943fcc8efaa502b9ea"], "sequence": 4294967294, "scriptSig": {"hex": "160014d9fa3abeed1922ba7599b9f9c158f0762d9ab855", "asm": "0014d9fa3abeed1922ba7599b9f9c158f0762d9ab855"}, "vout": 7, "txid": "39906ce4575c79ffa7d2939ca0a18421228b32431f514548db32e316699178ea"}], "txid": "6123565aaaa4a0542c2ca3d84e40e1c25456fce2399179396d05d4aabc17e7ed", "blocktime": 1537870928, "version": 2, "confirmations": 11514, "time": 1537870928, "locktime": 542990, "vsize": 259, "size": 421}