{"hash": "61244d4766288984308197eed9680193cf2f6db2121aeb224a10a7a463a47742", "blockhash": "0000000000000000001cda96e906b7601b7a6fb1a3b62bca570a9e5d8f4b3de1", "vout": [{"scriptPubKey": {"reqSigs": 1, "hex": "76a91487af42eb023a6b933baff60d813998567120141488ac", "addresses": ["1DNSBGosffXNYzAeGH56oTFyroLGEaVd3e"], "asm": "OP_DUP OP_HASH160 87af42eb023a6b933baff60d8139985671201414 OP_EQUALVERIFY OP_CHECKSIG", "type": "pubkeyhash"}, "value": 0.00176072, "n": 0}], "hex": "0100000001c0219b08461fe6e52f7134e88e5113497454c7590880868ae9fd841c225a9cf4550000006b483045022100ccb8db2f4cbc3e6d3ee3bc6e6f5c5133cee0ad8bea3cb3ae4b608fbe22c3a8fe022002188fb5b399e73a7648970f330e40c45b0a690b71f2cdb2486c87dda763532f0121024c5b970ac866b13a16d0b2596de6d99dd56881df478f0eb0a11466f8fe66a152ffffffff01c8af0200000000001976a91487af42eb023a6b933baff60d813998567120141488ac00000000", "vin": [{"sequence": 4294967295, "scriptSig": {"hex": "483045022100ccb8db2f4cbc3e6d3ee3bc6e6f5c5133cee0ad8bea3cb3ae4b608fbe22c3a8fe022002188fb5b399e73a7648970f330e40c45b0a690b71f2cdb2486c87dda763532f0121024c5b970ac866b13a16d0b2596de6d99dd56881df478f0eb0a11466f8fe66a152", "asm": "3045022100ccb8db2f4cbc3e6d3ee3bc6e6f5c5133cee0ad8bea3cb3ae4b608fbe22c3a8fe022002188fb5b399e73a7648970f330e40c45b0a690b71f2cdb2486c87dda763532f[ALL] 024c5b970ac866b13a16d0b2596de6d99dd56881df478f0eb0a11466f8fe66a152"}, "vout": 85, "txid": "f49c5a221c84fde98a86800859c754744913518ee834712fe5e61f46089b21c0"}], "txid": "61244d4766288984308197eed9680193cf2f6db2121aeb224a10a7a463a47742", "blocktime": 1537873282, "version": 1, "confirmations": 11484, "time": 1537873282, "locktime": 0, "vsize": 192, "size": 192}