{"hash": "612613e6f2191a87f489d4b71598fe785e46d3f89b7ccf8787aac9194d529913", "blockhash": "0000000000000000000e13cef7c366c0283d82e591d1acd082e914b08063cdf1", "vout": [{"scriptPubKey": {"reqSigs": 1, "hex": "76a9142abe8c3a131b6059f3b49389d66507c0985be3fd88ac", "addresses": ["14u1eYkYQBTddY4UgdQ23mYqp8vatMy3a9"], "asm": "OP_DUP OP_HASH160 2abe8c3a131b6059f3b49389d66507c0985be3fd OP_EQUALVERIFY OP_CHECKSIG", "type": "pubkeyhash"}, "value": 3.782e-05, "n": 0}, {"scriptPubKey": {"reqSigs": 1, "hex": "76a914d0636bd2e1ccce5bb18d8a5be1c1e74df86542f188ac", "addresses": ["1KzreojxTJRB1aB3XYaU2dwd9zkwAgQqjf"], "asm": "OP_DUP OP_HASH160 d0636bd2e1ccce5bb18d8a5be1c1e74df86542f1 OP_EQUALVERIFY OP_CHECKSIG", "type": "pubkeyhash"}, "value": 0.00992899, "n": 1}], "hex": "01000000010a70d3c28ed4ba25775f8ad2ff83bc162f0ce988fa5e77d1ed48f15008bb8584000000006a47304402200158b691741427f458a57281528ce0334e5ac82e67747aac4ab07cfb7e401506022069c408e94cde8727bc6d91d403c4bd5114d66f827b187edce059643d6f309ece01210250d7670a39231e846d6660e61860eb63e35017786bd1ac0b4853f3fae7378cc0ffffffff02c60e0000000000001976a9142abe8c3a131b6059f3b49389d66507c0985be3fd88ac83260f00000000001976a914d0636bd2e1ccce5bb18d8a5be1c1e74df86542f188ac00000000", "vin": [{"sequence": 4294967295, "scriptSig": {"hex": "47304402200158b691741427f458a57281528ce0334e5ac82e67747aac4ab07cfb7e401506022069c408e94cde8727bc6d91d403c4bd5114d66f827b187edce059643d6f309ece01210250d7670a39231e846d6660e61860eb63e35017786bd1ac0b4853f3fae7378cc0", "asm": "304402200158b691741427f458a57281528ce0334e5ac82e67747aac4ab07cfb7e401506022069c408e94cde8727bc6d91d403c4bd5114d66f827b187edce059643d6f309ece[ALL] 0250d7670a39231e846d6660e61860eb63e35017786bd1ac0b4853f3fae7378cc0"}, "vout": 0, "txid": "8485bb0850f148edd1775efa88e90c2f16bc83ffd28a5f7725bad48ec2d3700a"}], "txid": "612613e6f2191a87f489d4b71598fe785e46d3f89b7ccf8787aac9194d529913", "blocktime": 1537871767, "version": 1, "confirmations": 11495, "time": 1537871767, "locktime": 0, "vsize": 225, "size": 225}