{"hash": "612d5bd5eaa3aceaf9f79a44fcb2132afd1c981a0c2eb06669e52db689f7acfd", "blockhash": "0000000000000000000baef3f32e3676a92c3b2e5da21b426e4f302fc371ce76", "vout": [{"scriptPubKey": {"reqSigs": 1, "hex": "76a914d48a2b2448f96b3b17d1aab6e3040382e6916eef88ac", "addresses": ["1LNomnYi57V6HuWSQxNeeqgoNjusyYMFWe"], "asm": "OP_DUP OP_HASH160 d48a2b2448f96b3b17d1aab6e3040382e6916eef OP_EQUALVERIFY OP_CHECKSIG", "type": "pubkeyhash"}, "value": 0.008774, "n": 0}], "hex": "02000000011ffc82a84f569a0f5f4695ec50dbf9865e023c6a7a8d63fcf494093b26c8a609000000006a473044022076c3d62ac17f7eac2d490b32c97a981dda5db41570355569171a24884443f619022019d36d496997a88a108be85fba93083bd26b6a249919408a73604808c17cb369012102b18c6594b3a08cdd941723d2d24039110c76d2abee93157a523d0838fefb91e6ffffffff0158630d00000000001976a914d48a2b2448f96b3b17d1aab6e3040382e6916eef88ac00000000", "vin": [{"sequence": 4294967295, "scriptSig": {"hex": "473044022076c3d62ac17f7eac2d490b32c97a981dda5db41570355569171a24884443f619022019d36d496997a88a108be85fba93083bd26b6a249919408a73604808c17cb369012102b18c6594b3a08cdd941723d2d24039110c76d2abee93157a523d0838fefb91e6", "asm": "3044022076c3d62ac17f7eac2d490b32c97a981dda5db41570355569171a24884443f619022019d36d496997a88a108be85fba93083bd26b6a249919408a73604808c17cb369[ALL] 02b18c6594b3a08cdd941723d2d24039110c76d2abee93157a523d0838fefb91e6"}, "vout": 0, "txid": "09a6c8263b0994f4fc638d7a6a3c025e86f9db50ec95465f0f9a564fa882fc1f"}], "txid": "612d5bd5eaa3aceaf9f79a44fcb2132afd1c981a0c2eb06669e52db689f7acfd", "blocktime": 1537876114, "version": 2, "confirmations": 11459, "time": 1537876114, "locktime": 0, "vsize": 191, "size": 191}