{"hash": "61329431aee962b233e7e327c18a6c1871f9fa3d8f4e2ee704e0543822c4f7ef", "blockhash": "0000000000000000000e13cef7c366c0283d82e591d1acd082e914b08063cdf1", "vout": [{"scriptPubKey": {"reqSigs": 1, "hex": "76a91479bd7815670003a4ad9c4a89c0989db898c75c1388ac", "addresses": ["1C6hjkiV59Q4BeM2d5QymZV39q5xUvpMm2"], "asm": "OP_DUP OP_HASH160 79bd7815670003a4ad9c4a89c0989db898c75c13 OP_EQUALVERIFY OP_CHECKSIG", "type": "pubkeyhash"}, "value": 0.003115, "n": 0}, {"scriptPubKey": {"reqSigs": 1, "hex": "76a914a1d44a74482b95a70f292a3691e6a39f683bd0dd88ac", "addresses": ["1Fkg77R9zaqDHW9LuFNiC39461VQDLR9Hj"], "asm": "OP_DUP OP_HASH160 a1d44a74482b95a70f292a3691e6a39f683bd0dd OP_EQUALVERIFY OP_CHECKSIG", "type": "pubkeyhash"}, "value": 0.04408301, "n": 1}], "hex": "01000000012d41a604bd6cdfaddeb39e56197a07036653c00517c2ddebfa3334ad8e3db23a010000006b483045022100f194247732351e97f083ba0348de319521d9c303a934f8297e1b128f6f93414f022034d3bf93a92b76cd44acc07926ee1a5008762ab4e6004d8fa2bac32f2627f4cd0121039f01d0d699338d5bc723fcf75e450bcd86b69cb7f491ca5ac7728fa85c8b8de7ffffffff02ccc00400000000001976a91479bd7815670003a4ad9c4a89c0989db898c75c1388aced434300000000001976a914a1d44a74482b95a70f292a3691e6a39f683bd0dd88ac00000000", "vin": [{"sequence": 4294967295, "scriptSig": {"hex": "483045022100f194247732351e97f083ba0348de319521d9c303a934f8297e1b128f6f93414f022034d3bf93a92b76cd44acc07926ee1a5008762ab4e6004d8fa2bac32f2627f4cd0121039f01d0d699338d5bc723fcf75e450bcd86b69cb7f491ca5ac7728fa85c8b8de7", "asm": "3045022100f194247732351e97f083ba0348de319521d9c303a934f8297e1b128f6f93414f022034d3bf93a92b76cd44acc07926ee1a5008762ab4e6004d8fa2bac32f2627f4cd[ALL] 039f01d0d699338d5bc723fcf75e450bcd86b69cb7f491ca5ac7728fa85c8b8de7"}, "vout": 1, "txid": "3ab23d8ead3433faebddc21705c0536603077a19569eb3deaddf6cbd04a6412d"}], "txid": "61329431aee962b233e7e327c18a6c1871f9fa3d8f4e2ee704e0543822c4f7ef", "blocktime": 1537871767, "version": 1, "confirmations": 11492, "time": 1537871767, "locktime": 0, "vsize": 226, "size": 226}