{"hash": "613c5b4124c9f42f521d152018dad70898c36a14b2dc124af765c0bcc7887ac3", "blockhash": "00000000000000000017f5eb5941039fbcee6240d03bc1f2f8e35350df66a1d8", "vout": [{"scriptPubKey": {"reqSigs": 1, "hex": "76a914850812f35b931d337230aaee0fabf9efcaf72e7f88ac", "addresses": ["1D8QYWPC2HCuJxo8C6LHLNc8yxK6YXntB6"], "asm": "OP_DUP OP_HASH160 850812f35b931d337230aaee0fabf9efcaf72e7f OP_EQUALVERIFY OP_CHECKSIG", "type": "pubkeyhash"}, "value": 0.05268021, "n": 0}, {"scriptPubKey": {"reqSigs": 1, "hex": "a9143130c75a20c533f688821fc8be1687a1616ccd9e87", "addresses": ["36B7U9YzM6TTBAwWqFUTSpDtYppUvnJw9G"], "asm": "OP_HASH160 3130c75a20c533f688821fc8be1687a1616ccd9e OP_EQUAL", "type": "scripthash"}, "value": 0.34287, "n": 1}], "hex": "0100000002315da55db933b5d8fffb1fbbb4fd547f669930abedb2cabb716b5a2cd099ac96010000006a473044022063926671694a9a09152dbea7f29910c9d2649a5972d10d8db13184192c7aa57e02207162c17d890b5254070c22cc296965e448d3881f4b722057193f4a3a4586eab8012102f50ea1e6299c6e582c034466ebf78adece64333c0f7c7a8d51a100937434ae8dffffffffc1cb20b87955ba2df73098f4a3d3a3a166bd51b3b1270df8c1f4d5e326d7b5b7010000006b483045022100da73437c56c18bd52c8c12c8b26223512670244392eadb291d1de03a668259dc022064c324c037e3fea9ed2c4122d536c1eccbcb3a6f9e67edab89b8dfa2b8957086012103f2a8e5a2e97885494705bc98942833e79bbcb7dd597ee48bbc9b8b3bf45c65e9ffffffff0235625000000000001976a914850812f35b931d337230aaee0fabf9efcaf72e7f88ac982d0b020000000017a9143130c75a20c533f688821fc8be1687a1616ccd9e8700000000", "vin": [{"sequence": 4294967295, "scriptSig": {"hex": "473044022063926671694a9a09152dbea7f29910c9d2649a5972d10d8db13184192c7aa57e02207162c17d890b5254070c22cc296965e448d3881f4b722057193f4a3a4586eab8012102f50ea1e6299c6e582c034466ebf78adece64333c0f7c7a8d51a100937434ae8d", "asm": "3044022063926671694a9a09152dbea7f29910c9d2649a5972d10d8db13184192c7aa57e02207162c17d890b5254070c22cc296965e448d3881f4b722057193f4a3a4586eab8[ALL] 02f50ea1e6299c6e582c034466ebf78adece64333c0f7c7a8d51a100937434ae8d"}, "vout": 1, "txid": "96ac99d02c5a6b71bbcab2edab3099667f54fdb4bb1ffbffd8b533b95da55d31"}, {"sequence": 4294967295, "scriptSig": {"hex": "483045022100da73437c56c18bd52c8c12c8b26223512670244392eadb291d1de03a668259dc022064c324c037e3fea9ed2c4122d536c1eccbcb3a6f9e67edab89b8dfa2b8957086012103f2a8e5a2e97885494705bc98942833e79bbcb7dd597ee48bbc9b8b3bf45c65e9", "asm": "3045022100da73437c56c18bd52c8c12c8b26223512670244392eadb291d1de03a668259dc022064c324c037e3fea9ed2c4122d536c1eccbcb3a6f9e67edab89b8dfa2b8957086[ALL] 03f2a8e5a2e97885494705bc98942833e79bbcb7dd597ee48bbc9b8b3bf45c65e9"}, "vout": 1, "txid": "b7b5d726e3d5f4c1f80d27b1b351bd66a1a3d3a3f49830f72dba5579b820cbc1"}], "txid": "613c5b4124c9f42f521d152018dad70898c36a14b2dc124af765c0bcc7887ac3", "blocktime": 1537874412, "version": 1, "confirmations": 11467, "time": 1537874412, "locktime": 0, "vsize": 371, "size": 371}