{"hash": "72ec22232a99be40b4a9593b91d75462704c8bafa9357664c93536a76350cf95", "blockhash": "0000000000000000000e13cef7c366c0283d82e591d1acd082e914b08063cdf1", "vout": [{"scriptPubKey": {"reqSigs": 1, "hex": "76a914767923ce71141ebee311ac6c18696ddc27915fd688ac", "addresses": ["1BoRrajcXgEGhQr9bA9EshJFrTBNihzmMv"], "asm": "OP_DUP OP_HASH160 767923ce71141ebee311ac6c18696ddc27915fd6 OP_EQUALVERIFY OP_CHECKSIG", "type": "pubkeyhash"}, "value": 0.00235301, "n": 0}, {"scriptPubKey": {"reqSigs": 1, "hex": "a9141c62225558d18072008e08652876473f5d7d17f987", "addresses": ["34H6QPjkuZRg2gd1dy7cj4bMcX7B78tFMi"], "asm": "OP_HASH160 1c62225558d18072008e08652876473f5d7d17f9 OP_EQUAL", "type": "scripthash"}, "value": 0.01015025, "n": 1}], "hex": "02000000000102ce62ad07e479798b9d81e2acaf8fda4da6adb36e2d837456ab1b077c4394e9bd1c00000017160014a2e8e8a604382338c44f64723dca16058a19f13ffefffffff06a759b10c2d7f6a93cfd8aa883f15055ff91d83475a6d884ce9b41bcdd08b5010000001716001421b13083107f34eb5a302eccce30f3673152881dfeffffff0225970300000000001976a914767923ce71141ebee311ac6c18696ddc27915fd688acf17c0f000000000017a9141c62225558d18072008e08652876473f5d7d17f9870247304402201c1cebeb3c63d0b889ac2580e6f784b803c97abf697fdc9e3b65a30b20e843c6022050a9f8da43fe5aa3ffe64bcb887ca0cb152d679f01bf58a1874dda0d6040b82c0121028663dc05986124168ada03fea43802f877f2d721b011368e86f5e78198628c880248304502210095e5e0924306b4096b52ec0051214d44631b3f0e7eb075e46c44257d8d79060902207055812379a2f21e58614d76540cbfdc722e0a3f816f3f01c8d0b2120512a063012103c9a5c5e3a3b9bcfec23f31875d14153850d5412d1cf5d28d0c536b2ed776074e10490800", "vin": [{"txinwitness": ["304402201c1cebeb3c63d0b889ac2580e6f784b803c97abf697fdc9e3b65a30b20e843c6022050a9f8da43fe5aa3ffe64bcb887ca0cb152d679f01bf58a1874dda0d6040b82c01", "028663dc05986124168ada03fea43802f877f2d721b011368e86f5e78198628c88"], "sequence": 4294967294, "scriptSig": {"hex": "160014a2e8e8a604382338c44f64723dca16058a19f13f", "asm": "0014a2e8e8a604382338c44f64723dca16058a19f13f"}, "vout": 28, "txid": "bde994437c071bab5674832d6eb3ada64dda8faface2819d8b7979e407ad62ce"}, {"txinwitness": ["304502210095e5e0924306b4096b52ec0051214d44631b3f0e7eb075e46c44257d8d79060902207055812379a2f21e58614d76540cbfdc722e0a3f816f3f01c8d0b2120512a06301", "03c9a5c5e3a3b9bcfec23f31875d14153850d5412d1cf5d28d0c536b2ed776074e"], "sequence": 4294967294, "scriptSig": {"hex": "16001421b13083107f34eb5a302eccce30f3673152881d", "asm": "001421b13083107f34eb5a302eccce30f3673152881d"}, "vout": 1, "txid": "b508ddbc419bce84d8a67534d891ff5550f183a88afd3ca9f6d7c2109b756af0"}], "txid": "614181a4e09c89a1cbbafca36d280ad0ecb4becad99dc8ce68f480d578dc512c", "blocktime": 1537871767, "version": 2, "confirmations": 11495, "time": 1537871767, "locktime": 542992, "vsize": 259, "size": 421}