{"hash": "614343f9ac3b1b73d52d64e281876539a5b196318e5b2ce982ee1c097971254f", "blockhash": "0000000000000000000e13cef7c366c0283d82e591d1acd082e914b08063cdf1", "vout": [{"scriptPubKey": {"reqSigs": 1, "hex": "a91462d649c71b529b771527703885483af764b1f7a387", "addresses": ["3AhcrM8bXYGPdBeTEsteLsQn73JqusL2mh"], "asm": "OP_HASH160 62d649c71b529b771527703885483af764b1f7a3 OP_EQUAL", "type": "scripthash"}, "value": 0.0047526, "n": 0}, {"scriptPubKey": {"reqSigs": 1, "hex": "76a914d2e9b6202b0daaa84d763df8aceec8411af05a2688ac", "addresses": ["1LECsqfmZmnZiyi62CU4hvpaGyXUBwgC7g"], "asm": "OP_DUP OP_HASH160 d2e9b6202b0daaa84d763df8aceec8411af05a26 OP_EQUALVERIFY OP_CHECKSIG", "type": "pubkeyhash"}, "value": 0.02763288, "n": 1}], "hex": "01000000019aff8c6be20cee19e2349ff7c9f19c7181cff81186b449b47ee3451e21d5ce8f010000006a47304402202f21de59a9380a30388b4e431edde1e8173e233abfad53bfb810c57e5bb6c45c02204b96262cc4b43ac8b4e520feff05cdd198ad4a65f69fb0c5082a6b12f661d04201210234ba42a0ca37e5b1dec7142fcb2d9746de58d4bc800432fd0b1ed6115bbea7b0fdffffff027c4007000000000017a91462d649c71b529b771527703885483af764b1f7a387182a2a00000000001976a914d2e9b6202b0daaa84d763df8aceec8411af05a2688ac10490800", "vin": [{"sequence": 4294967293, "scriptSig": {"hex": "47304402202f21de59a9380a30388b4e431edde1e8173e233abfad53bfb810c57e5bb6c45c02204b96262cc4b43ac8b4e520feff05cdd198ad4a65f69fb0c5082a6b12f661d04201210234ba42a0ca37e5b1dec7142fcb2d9746de58d4bc800432fd0b1ed6115bbea7b0", "asm": "304402202f21de59a9380a30388b4e431edde1e8173e233abfad53bfb810c57e5bb6c45c02204b96262cc4b43ac8b4e520feff05cdd198ad4a65f69fb0c5082a6b12f661d042[ALL] 0234ba42a0ca37e5b1dec7142fcb2d9746de58d4bc800432fd0b1ed6115bbea7b0"}, "vout": 1, "txid": "8fced5211e45e37eb449b48611f8cf81719cf1c9f79f34e219ee0ce26b8cff9a"}], "txid": "614343f9ac3b1b73d52d64e281876539a5b196318e5b2ce982ee1c097971254f", "blocktime": 1537871767, "version": 1, "confirmations": 11493, "time": 1537871767, "locktime": 542992, "vsize": 223, "size": 223}