{"hash": "61435355440d2fbeab1e21a84361868d96fd7bf5929496e7ebb66a9562a23bbe", "blockhash": "0000000000000000001cda96e906b7601b7a6fb1a3b62bca570a9e5d8f4b3de1", "vout": [{"scriptPubKey": {"reqSigs": 1, "hex": "76a914a3dc39af34c59fcd9b2ac9fd9a95380d53f11f1288ac", "addresses": ["1FwQxny2t1q6drHBjwqSaa9wfUMSoTSZNG"], "asm": "OP_DUP OP_HASH160 a3dc39af34c59fcd9b2ac9fd9a95380d53f11f12 OP_EQUALVERIFY OP_CHECKSIG", "type": "pubkeyhash"}, "value": 0.14741276, "n": 0}, {"scriptPubKey": {"reqSigs": 1, "hex": "76a914d35590fe1491a858db478a4e1de0e2f1afa6c9f288ac", "addresses": ["1LGS5jUWpu4SPPz6tLxZd37GGthrcddRZT"], "asm": "OP_DUP OP_HASH160 d35590fe1491a858db478a4e1de0e2f1afa6c9f2 OP_EQUALVERIFY OP_CHECKSIG", "type": "pubkeyhash"}, "value": 0.1546, "n": 1}], "hex": "0100000002c0583248de97b5df9b489f5912a0ca63fd85d66fb21a6c10035071936c1f2427010000006b4830450221009454408369f5ee1a17ca8539a93a52324adf587504f784cf9440a01c4f77c4a5022002d42d422c7bb00dc6ea735985ca8cff0f94e8a299db78ef5a94981892718717012103dd748b5df557ce1d56033e7d3f30018e27d3c13598d10f64f6c9814ba7ce9876ffffffff02c8e2bdac2fea2cf061136964d62cc9065d7786189aa02a58301f1f42271dd8000000006b48304502210092c643d0cdf0a2d0b3613e0120d820adc77987d5c8f817827ed928e288abcc730220114c884a30e308dfdc3018c749e8c69964b67ef0b1a7859581df9c0906eea06001210349c14dd1140f7edbf80b4de90afcd1a2edb3b9de29501602b06c11a773edb99cffffffff021cefe000000000001976a914a3dc39af34c59fcd9b2ac9fd9a95380d53f11f1288aca0e6eb00000000001976a914d35590fe1491a858db478a4e1de0e2f1afa6c9f288ac00000000", "vin": [{"sequence": 4294967295, "scriptSig": {"hex": "4830450221009454408369f5ee1a17ca8539a93a52324adf587504f784cf9440a01c4f77c4a5022002d42d422c7bb00dc6ea735985ca8cff0f94e8a299db78ef5a94981892718717012103dd748b5df557ce1d56033e7d3f30018e27d3c13598d10f64f6c9814ba7ce9876", "asm": "30450221009454408369f5ee1a17ca8539a93a52324adf587504f784cf9440a01c4f77c4a5022002d42d422c7bb00dc6ea735985ca8cff0f94e8a299db78ef5a94981892718717[ALL] 03dd748b5df557ce1d56033e7d3f30018e27d3c13598d10f64f6c9814ba7ce9876"}, "vout": 1, "txid": "27241f6c93715003106c1ab26fd685fd63caa012599f489bdfb597de483258c0"}, {"sequence": 4294967295, "scriptSig": {"hex": "48304502210092c643d0cdf0a2d0b3613e0120d820adc77987d5c8f817827ed928e288abcc730220114c884a30e308dfdc3018c749e8c69964b67ef0b1a7859581df9c0906eea06001210349c14dd1140f7edbf80b4de90afcd1a2edb3b9de29501602b06c11a773edb99c", "asm": "304502210092c643d0cdf0a2d0b3613e0120d820adc77987d5c8f817827ed928e288abcc730220114c884a30e308dfdc3018c749e8c69964b67ef0b1a7859581df9c0906eea060[ALL] 0349c14dd1140f7edbf80b4de90afcd1a2edb3b9de29501602b06c11a773edb99c"}, "vout": 0, "txid": "d81d27421f1f30582aa09a1886775d06c92cd664691361f02cea2facbde2c802"}], "txid": "61435355440d2fbeab1e21a84361868d96fd7bf5929496e7ebb66a9562a23bbe", "blocktime": 1537873282, "version": 1, "confirmations": 11485, "time": 1537873282, "locktime": 0, "vsize": 374, "size": 374}