{"hash": "43cc28a1bc0908b9f43543d1512175519aef1d40bb2b253a507250e5bcf5f32a", "blockhash": "00000000000000000017f5eb5941039fbcee6240d03bc1f2f8e35350df66a1d8", "vout": [{"scriptPubKey": {"reqSigs": 1, "hex": "a91469f375e3c60c9da89227a454a28e5c57ec0f653b87", "addresses": ["3BMEXcpwf2NKVnxkCbi71TXDiLHxptaiQ2"], "asm": "OP_HASH160 69f375e3c60c9da89227a454a28e5c57ec0f653b OP_EQUAL", "type": "scripthash"}, "value": 0.00463542, "n": 0}, {"scriptPubKey": {"reqSigs": 1, "hex": "76a914fd6c07dcde254a08b9ecfe146d9da4e041a6e7b688ac", "addresses": ["1Q6yNe3ZBdwX73EM2qDqVaMP9yo8Ahaknn"], "asm": "OP_DUP OP_HASH160 fd6c07dcde254a08b9ecfe146d9da4e041a6e7b6 OP_EQUALVERIFY OP_CHECKSIG", "type": "pubkeyhash"}, "value": 0.0154609, "n": 1}, {"scriptPubKey": {"reqSigs": 1, "hex": "a9149ecde40a13f43a0075f8b9612f3f1bf68806354a87", "addresses": ["3GAhLPsF6ummMHCRP8ZD5euwbBko2augcG"], "asm": "OP_HASH160 9ecde40a13f43a0075f8b9612f3f1bf68806354a OP_EQUAL", "type": "scripthash"}, "value": 0.00462558, "n": 2}, {"scriptPubKey": {"reqSigs": 1, "hex": "a9141988a27e3c2df4ddee7fad5a2303d086179b2a3087", "addresses": ["3422VtS7UtCvXYxoXMVp6eZupR252z85oC"], "asm": "OP_HASH160 1988a27e3c2df4ddee7fad5a2303d086179b2a30 OP_EQUAL", "type": "scripthash"}, "value": 1.20657761, "n": 3}], "hex": "01000000000101fc17dbad07ef0f75ee56ec90cf5dd303e32b2099760bdb36a09f08931bccc73f000000002322002065d416c48a8072e0ac51c2d111eb194f009caef0332446c1bf2097316cf07fa9ffffffff04b61207000000000017a91469f375e3c60c9da89227a454a28e5c57ec0f653b876a971700000000001976a914fd6c07dcde254a08b9ecfe146d9da4e041a6e7b688acde0e07000000000017a9149ecde40a13f43a0075f8b9612f3f1bf68806354a87611731070000000017a9141988a27e3c2df4ddee7fad5a2303d086179b2a3087040047304402203f5cc48d5be15be81cf86ef6b3038f808613c1bf4dd323d082f8c87538d714ad0220433fe894b0b91ebce4d436bf01c86c38483022b5b210112f3a93a3620e31d5d101473044022019255435b16568abc620c2aa03c415af061d15dc4da0c945a3d7c64b1c24c36202204744d5a3e3b167e526e19d42835516413db982c6f948d7a983371adc44c041880169522102f44abcf9e23c9a460da309ccca56c619c04eed3bde2c2cff5e7d78fbcd980b9c2103c9443cf3047bb6c2c82f1b0c44c36109cdc3d0d601d16d1189a1602bf8d1a0a02103bfe867059274412412e088af5572b92168c2ef495cfe6c9b7a753a009eb37c4853ae00000000", "vin": [{"txinwitness": ["", "304402203f5cc48d5be15be81cf86ef6b3038f808613c1bf4dd323d082f8c87538d714ad0220433fe894b0b91ebce4d436bf01c86c38483022b5b210112f3a93a3620e31d5d101", "3044022019255435b16568abc620c2aa03c415af061d15dc4da0c945a3d7c64b1c24c36202204744d5a3e3b167e526e19d42835516413db982c6f948d7a983371adc44c0418801", "522102f44abcf9e23c9a460da309ccca56c619c04eed3bde2c2cff5e7d78fbcd980b9c2103c9443cf3047bb6c2c82f1b0c44c36109cdc3d0d601d16d1189a1602bf8d1a0a02103bfe867059274412412e088af5572b92168c2ef495cfe6c9b7a753a009eb37c4853ae"], "sequence": 4294967295, "scriptSig": {"hex": "22002065d416c48a8072e0ac51c2d111eb194f009caef0332446c1bf2097316cf07fa9", "asm": "002065d416c48a8072e0ac51c2d111eb194f009caef0332446c1bf2097316cf07fa9"}, "vout": 0, "txid": "3fc7cc1b93089fa036db0b7699202be303d35dcf90ec56ee750fef07addb17fc"}], "txid": "61454f6f32ebaf911b5396595ea8e836cec4044264729ee61395fd1c24e06ac9", "blocktime": 1537874412, "version": 1, "confirmations": 11467, "time": 1537874412, "locktime": 0, "vsize": 280, "size": 470}