{"hash": "6152e0183c9a92ab19fd03df8b0229f40f22de570c196b4187fde6f16f86b168", "blockhash": "0000000000000000000e13cef7c366c0283d82e591d1acd082e914b08063cdf1", "vout": [{"scriptPubKey": {"reqSigs": 1, "hex": "76a914d721d9f0cdfd2d8b0b0bf9d638b50a026e98821788ac", "addresses": ["1LcWqGxs3oxiG1tvZ7kXuwiNZ7L1fDbBwp"], "asm": "OP_DUP OP_HASH160 d721d9f0cdfd2d8b0b0bf9d638b50a026e988217 OP_EQUALVERIFY OP_CHECKSIG", "type": "pubkeyhash"}, "value": 0.00086787, "n": 0}, {"scriptPubKey": {"reqSigs": 1, "hex": "a914c75684ac6ec5a32fcd8df6972d1146e65438a08087", "addresses": ["3Ks237SSpw2dwZZfgxvaYyYkum3ziar2cV"], "asm": "OP_HASH160 c75684ac6ec5a32fcd8df6972d1146e65438a080 OP_EQUAL", "type": "scripthash"}, "value": 0.0015, "n": 1}], "hex": "010000000138d3ab530ff9a21adf8faa16820df231a57966c70bc7d2f9dcac863bb0b20aa3010000006a473044022027d75092749f547ec09c7ba67ff6092ecbbc01abf0a0fab2df953bb76a27d53702206f4be3fce5bbb8847700c8a75fab28f4df980b84bbba6b579691500a8fa2d26f0121038f8cadd17c4cc28dcd7c8af111027951d58e6a11d60afab5415895ab7910b5f2ffffffff0203530100000000001976a914d721d9f0cdfd2d8b0b0bf9d638b50a026e98821788acf04902000000000017a914c75684ac6ec5a32fcd8df6972d1146e65438a0808700000000", "vin": [{"sequence": 4294967295, "scriptSig": {"hex": "473044022027d75092749f547ec09c7ba67ff6092ecbbc01abf0a0fab2df953bb76a27d53702206f4be3fce5bbb8847700c8a75fab28f4df980b84bbba6b579691500a8fa2d26f0121038f8cadd17c4cc28dcd7c8af111027951d58e6a11d60afab5415895ab7910b5f2", "asm": "3044022027d75092749f547ec09c7ba67ff6092ecbbc01abf0a0fab2df953bb76a27d53702206f4be3fce5bbb8847700c8a75fab28f4df980b84bbba6b579691500a8fa2d26f[ALL] 038f8cadd17c4cc28dcd7c8af111027951d58e6a11d60afab5415895ab7910b5f2"}, "vout": 1, "txid": "a30ab2b03b86acdcf9d2c70bc76679a531f20d8216aa8fdf1aa2f90f53abd338"}], "txid": "6152e0183c9a92ab19fd03df8b0229f40f22de570c196b4187fde6f16f86b168", "blocktime": 1537871767, "version": 1, "confirmations": 11495, "time": 1537871767, "locktime": 0, "vsize": 223, "size": 223}