{"hash": "6cf06ce426baf077790a77509b4c1227edfa7180a92e7114796de21ea04af95a", "blockhash": "0000000000000000000baef3f32e3676a92c3b2e5da21b426e4f302fc371ce76", "vout": [{"scriptPubKey": {"reqSigs": 1, "hex": "76a9145941a488cd0ab6ede9ad2a79f401f64c2e9bed1a88ac", "addresses": ["198wn1VgG1sYkEjJqkj8ikm1epaU2aWFsQ"], "asm": "OP_DUP OP_HASH160 5941a488cd0ab6ede9ad2a79f401f64c2e9bed1a OP_EQUALVERIFY OP_CHECKSIG", "type": "pubkeyhash"}, "value": 0.230473, "n": 0}], "hex": "020000000001040a1e19cabdb092e2e5b9b6112b9e36dc0481bedaf40b720079282f72e8a738b4000000001716001406eaea064e6cb32d335f2ceacc206c1f692cee67feffffff0ac45b33647a248bf893829cc2115663fb19814d7fa719af191299c3d8669a3c090000001716001477f12578daf652d41cdae5bb076a404214013c48feffffff6ffed44deb22ef331480addf1fe3e7a1cc515105e221da5574050015340df5620000000017160014801fc1ae469e633cd89d6d883d0b7dc918f39448feffffffcf38c4b60de4e357f259cc9257ba86824caeacc435688b1138d8c57da477215100000000171600143382fc37a73b2f9e916f1ec2d191d99d3c59d21afeffffff0184ac5f01000000001976a9145941a488cd0ab6ede9ad2a79f401f64c2e9bed1a88ac0247304402202584b03fa4dc727c7c49c1a9f452855ef5a3926e8c747418c8df695a3bf3ae8502203558db6a8ae0eb61b3feb6b3a107736b2480af7205fb62e61419dc72070c43550121023d927f559d3e141146602fab779e5779b98ed0492558fa31e13a7b7634eb5ab40247304402200a4f159294bb1a425816d99efda58dfa8cc437dd2436d9f47b29ef8054a111d202200ac8f716a9add48d94865ee7dcec30015a1ff5ae59e8ba56ca53ae64343952130121033ef9044af72cdfd273a8d96222b1498440fe463075d67a9a24eee801007dea270247304402206e63ae3a816dbe9595df85edc13050dee277f413367181d77eab907a5afa7ff8022000939f20f9697b561c37a5e57780a0a507f4b7185276f8bdf9d9b09a87cf7be70121023968104ba712cac045992667d1f0f85bb372c26ba6ce72cb4b4cae979cdf028102473044022014b66d49884a85e599ac0b8a34e35d491c4c5b2232ef503169791f4d89bbf99d022021be78857ea7862589121ad2daf2576e2373faa7a2955648714f0bbb691b61070121021d12299664f9f20af8ba447ef230d2ea996e5f092b23a4f162415ee8f2357bab17490800", "vin": [{"txinwitness": ["304402202584b03fa4dc727c7c49c1a9f452855ef5a3926e8c747418c8df695a3bf3ae8502203558db6a8ae0eb61b3feb6b3a107736b2480af7205fb62e61419dc72070c435501", "023d927f559d3e141146602fab779e5779b98ed0492558fa31e13a7b7634eb5ab4"], "sequence": 4294967294, "scriptSig": {"hex": "16001406eaea064e6cb32d335f2ceacc206c1f692cee67", "asm": "001406eaea064e6cb32d335f2ceacc206c1f692cee67"}, "vout": 0, "txid": "b438a7e8722f287900720bf4dabe8104dc369e2b11b6b9e5e292b0bdca191e0a"}, {"txinwitness": ["304402200a4f159294bb1a425816d99efda58dfa8cc437dd2436d9f47b29ef8054a111d202200ac8f716a9add48d94865ee7dcec30015a1ff5ae59e8ba56ca53ae643439521301", "033ef9044af72cdfd273a8d96222b1498440fe463075d67a9a24eee801007dea27"], "sequence": 4294967294, "scriptSig": {"hex": "16001477f12578daf652d41cdae5bb076a404214013c48", "asm": "001477f12578daf652d41cdae5bb076a404214013c48"}, "vout": 9, "txid": "3c9a66d8c3991219af19a77f4d8119fb635611c29c8293f88b247a64335bc40a"}, {"txinwitness": ["304402206e63ae3a816dbe9595df85edc13050dee277f413367181d77eab907a5afa7ff8022000939f20f9697b561c37a5e57780a0a507f4b7185276f8bdf9d9b09a87cf7be701", "023968104ba712cac045992667d1f0f85bb372c26ba6ce72cb4b4cae979cdf0281"], "sequence": 4294967294, "scriptSig": {"hex": "160014801fc1ae469e633cd89d6d883d0b7dc918f39448", "asm": "0014801fc1ae469e633cd89d6d883d0b7dc918f39448"}, "vout": 0, "txid": "62f50d341500057455da21e2055151cca1e7e31fdfad801433ef22eb4dd4fe6f"}, {"txinwitness": ["3044022014b66d49884a85e599ac0b8a34e35d491c4c5b2232ef503169791f4d89bbf99d022021be78857ea7862589121ad2daf2576e2373faa7a2955648714f0bbb691b610701", "021d12299664f9f20af8ba447ef230d2ea996e5f092b23a4f162415ee8f2357bab"], "sequence": 4294967294, "scriptSig": {"hex": "1600143382fc37a73b2f9e916f1ec2d191d99d3c59d21a", "asm": "00143382fc37a73b2f9e916f1ec2d191d99d3c59d21a"}, "vout": 0, "txid": "512177a47dc5d838118b6835c4acae4c8286ba5792cc59f257e3e40db6c438cf"}], "txid": "6156579ad6f48f72d431382dfe89448c6a8d0a6cb85c0f37632bf3f90b529d5e", "blocktime": 1537876114, "version": 2, "confirmations": 11459, "time": 1537876114, "locktime": 542999, "vsize": 408, "size": 730}