{"hash": "6157f1362f87bacd478e552947f13b6e05bae65a0e1aac3835eca890f4dfbde3", "blockhash": "00000000000000000024a2167bbff67b0be802c0b01cdd79e6331c2be6459f87", "vout": [{"scriptPubKey": {"reqSigs": 1, "hex": "a9149df453fe3255abda5093dcb4c2826d7fd5b55e6387", "addresses": ["3G6Chshc2wj6iHrwqe6ErBpG6BkG7TCGf5"], "asm": "OP_HASH160 9df453fe3255abda5093dcb4c2826d7fd5b55e63 OP_EQUAL", "type": "scripthash"}, "value": 0.00093, "n": 0}, {"scriptPubKey": {"reqSigs": 1, "hex": "76a9142e369d96d8ce1ec4ad9d1308ebe33f5723651bff88ac", "addresses": ["15DMWaiwNnRhANaB8gpBehaZ9xJKT5kHg1"], "asm": "OP_DUP OP_HASH160 2e369d96d8ce1ec4ad9d1308ebe33f5723651bff OP_EQUALVERIFY OP_CHECKSIG", "type": "pubkeyhash"}, "value": 0.00522198, "n": 1}], "hex": "0100000001d8307c1e75f4241d42cfc2be82634c352d6ed83a80e582ae65c4c1410b669adf010000006a47304402200f862a1bef9bcc666bff7c3de203c17b9ef48e0acac79564174fcab6c01d369b02205a53f9749404f11e3997237d0bc77b7578b9d2b611259b3a050cd84a66ad77b601210317c978ba00f9a8c1e657d1ba5cf4f6f546de7b4a558cd48f0f35d5135f580165fdffffff02486b01000000000017a9149df453fe3255abda5093dcb4c2826d7fd5b55e6387d6f70700000000001976a9142e369d96d8ce1ec4ad9d1308ebe33f5723651bff88ac0d490800", "vin": [{"sequence": 4294967293, "scriptSig": {"hex": "47304402200f862a1bef9bcc666bff7c3de203c17b9ef48e0acac79564174fcab6c01d369b02205a53f9749404f11e3997237d0bc77b7578b9d2b611259b3a050cd84a66ad77b601210317c978ba00f9a8c1e657d1ba5cf4f6f546de7b4a558cd48f0f35d5135f580165", "asm": "304402200f862a1bef9bcc666bff7c3de203c17b9ef48e0acac79564174fcab6c01d369b02205a53f9749404f11e3997237d0bc77b7578b9d2b611259b3a050cd84a66ad77b6[ALL] 0317c978ba00f9a8c1e657d1ba5cf4f6f546de7b4a558cd48f0f35d5135f580165"}, "vout": 1, "txid": "df9a660b41c1c465ae82e5803ad86e2d354c6382bec2cf421d24f4751e7c30d8"}], "txid": "6157f1362f87bacd478e552947f13b6e05bae65a0e1aac3835eca890f4dfbde3", "blocktime": 1537870564, "version": 1, "confirmations": 11515, "time": 1537870564, "locktime": 542989, "vsize": 223, "size": 223}