{"hash": "615cdd147e0b2d5aab873591c361b8ef1f8eb34db13d4b587e45dd5e67de19a3", "blockhash": "0000000000000000001cda96e906b7601b7a6fb1a3b62bca570a9e5d8f4b3de1", "vout": [{"scriptPubKey": {"reqSigs": 1, "hex": "a914138e25b337b0d2dbc3f15aa817a0967c40242eb787", "addresses": ["33UR3kfkGZhC2UJxgUaCqh4f9uikQnvJ4z"], "asm": "OP_HASH160 138e25b337b0d2dbc3f15aa817a0967c40242eb7 OP_EQUAL", "type": "scripthash"}, "value": 0.00140506, "n": 0}, {"scriptPubKey": {"reqSigs": 1, "hex": "76a914037e656df388aa7b8793734c8ecb9f8997bd442a88ac", "addresses": ["1KUSjoot7jnCTr7XBiPVV8KMErN9418se"], "asm": "OP_DUP OP_HASH160 037e656df388aa7b8793734c8ecb9f8997bd442a OP_EQUALVERIFY OP_CHECKSIG", "type": "pubkeyhash"}, "value": 0.0145836, "n": 1}], "hex": "010000000112f05d4944a5917161928b7c0acf2b788d47c903c7b984077d24177cafa84b7a150000006a4730440220798056464d9ad81ec8e8ae31879d3bd7d7b61d6684690c771da10eea8525579d02202210198728c35e0a3cba6b2807b3117b7ec22b9678f2971c210e3cbf5ca5e3e4012103775c0b02d05bd9842af4c11df695d0a15aa06decb06a4a9844360d24112fcb3cffffffff02da2402000000000017a914138e25b337b0d2dbc3f15aa817a0967c40242eb787b8401600000000001976a914037e656df388aa7b8793734c8ecb9f8997bd442a88ac00000000", "vin": [{"sequence": 4294967295, "scriptSig": {"hex": "4730440220798056464d9ad81ec8e8ae31879d3bd7d7b61d6684690c771da10eea8525579d02202210198728c35e0a3cba6b2807b3117b7ec22b9678f2971c210e3cbf5ca5e3e4012103775c0b02d05bd9842af4c11df695d0a15aa06decb06a4a9844360d24112fcb3c", "asm": "30440220798056464d9ad81ec8e8ae31879d3bd7d7b61d6684690c771da10eea8525579d02202210198728c35e0a3cba6b2807b3117b7ec22b9678f2971c210e3cbf5ca5e3e4[ALL] 03775c0b02d05bd9842af4c11df695d0a15aa06decb06a4a9844360d24112fcb3c"}, "vout": 21, "txid": "7a4ba8af7c17247d0784b9c703c9478d782bcf0a7c8b92617191a544495df012"}], "txid": "615cdd147e0b2d5aab873591c361b8ef1f8eb34db13d4b587e45dd5e67de19a3", "blocktime": 1537873282, "version": 1, "confirmations": 11484, "time": 1537873282, "locktime": 0, "vsize": 223, "size": 223}