{"hash": "65eef8c4f1f4073e459c49d6c1e16b24e110f0981354888420c7effb1f9053c8", "blockhash": "0000000000000000000e13cef7c366c0283d82e591d1acd082e914b08063cdf1", "vout": [{"scriptPubKey": {"reqSigs": 1, "hex": "a9143f86ed029e41a3e5c1875e5702db1f42f6fb9ed087", "addresses": ["37Uv8SSfEELzFQBaFNpq1mt5pQR5Z9vT4e"], "asm": "OP_HASH160 3f86ed029e41a3e5c1875e5702db1f42f6fb9ed0 OP_EQUAL", "type": "scripthash"}, "value": 0.0100887, "n": 0}, {"scriptPubKey": {"reqSigs": 1, "hex": "76a914bae64a6c4f463765d08d5bf3e5351a420de4295188ac", "addresses": ["1J3EZZUNv9XNFuvFz6B6UwRyzyVZDohoah"], "asm": "OP_DUP OP_HASH160 bae64a6c4f463765d08d5bf3e5351a420de42951 OP_EQUALVERIFY OP_CHECKSIG", "type": "pubkeyhash"}, "value": 0.0022826, "n": 1}], "hex": "020000000001022ee2a0f431500c9a339fb565adee54823861a99066ef8e7e3212323fccf70c4e040000001716001444c969ef0fc1a50c5216dbed9e1715025cf51fd9feffffffbe65cddb5f789c3726531b9cdc918d86480505a32ad4c0c421004a472103f8c70000000017160014b330403ccb054971e931158a7e86b6219ff4e386feffffff02e6640f000000000017a9143f86ed029e41a3e5c1875e5702db1f42f6fb9ed087a47b0300000000001976a914bae64a6c4f463765d08d5bf3e5351a420de4295188ac024830450221009e082fdd8d7837ff9fa4154d59df6d73bffe3ce48fd80a42581de34026c0386902202cbbf7a6cfb0f21477d5a472cd45ec7cb372c031b664c372952f78877fa0d36d01210305a635532a8759d0cd44557fdf11eee8d5bc080082ab7210e0b65a3b992cf1660248304502210092d4474edf55ebe6834c46b7f31a2ebab406949a37f6415c85b5317c334601670220217f418e3f136f896d6101b44f41f3994c4c7aa9311c20137523ebd88b446922012103c07ac478cf516d29427a78e2875740e977a2a5dce08fa0dc301185f16cbb21540a490800", "vin": [{"txinwitness": ["30450221009e082fdd8d7837ff9fa4154d59df6d73bffe3ce48fd80a42581de34026c0386902202cbbf7a6cfb0f21477d5a472cd45ec7cb372c031b664c372952f78877fa0d36d01", "0305a635532a8759d0cd44557fdf11eee8d5bc080082ab7210e0b65a3b992cf166"], "sequence": 4294967294, "scriptSig": {"hex": "16001444c969ef0fc1a50c5216dbed9e1715025cf51fd9", "asm": "001444c969ef0fc1a50c5216dbed9e1715025cf51fd9"}, "vout": 4, "txid": "4e0cf7cc3f3212327e8eef6690a961388254eead65b59f339a0c5031f4a0e22e"}, {"txinwitness": ["304502210092d4474edf55ebe6834c46b7f31a2ebab406949a37f6415c85b5317c334601670220217f418e3f136f896d6101b44f41f3994c4c7aa9311c20137523ebd88b44692201", "03c07ac478cf516d29427a78e2875740e977a2a5dce08fa0dc301185f16cbb2154"], "sequence": 4294967294, "scriptSig": {"hex": "160014b330403ccb054971e931158a7e86b6219ff4e386", "asm": "0014b330403ccb054971e931158a7e86b6219ff4e386"}, "vout": 0, "txid": "c7f80321474a0021c4c0d42aa3050548868d91dc9c1b5326379c785fdbcd65be"}], "txid": "615df6fd6ccd1ea2bd97e3f962034cc56296bc3d38d702d0212aca15e7f96ec6", "blocktime": 1537871767, "version": 2, "confirmations": 11495, "time": 1537871767, "locktime": 542986, "vsize": 259, "size": 422}