{"hash": "615ea43580c7c905c897964c9f7d78772d129174921d38e9fa20c0ffe6c5a504", "blockhash": "0000000000000000000e13cef7c366c0283d82e591d1acd082e914b08063cdf1", "vout": [{"scriptPubKey": {"reqSigs": 1, "hex": "76a914afc42604777d2a048b162c76cdf3e3cc403376a288ac", "addresses": ["1H2NED2mda5eDWSEDdQ46Z29kjAu7mJr2C"], "asm": "OP_DUP OP_HASH160 afc42604777d2a048b162c76cdf3e3cc403376a2 OP_EQUALVERIFY OP_CHECKSIG", "type": "pubkeyhash"}, "value": 0.00015, "n": 0}, {"scriptPubKey": {"reqSigs": 1, "hex": "76a914ba1c3ce0a8dd7fbf187a2e7a17e17ea30f47833288ac", "addresses": ["1Hy4WgHocqme5jakZLYwH9SskqVzG2GBi2"], "asm": "OP_DUP OP_HASH160 ba1c3ce0a8dd7fbf187a2e7a17e17ea30f478332 OP_EQUALVERIFY OP_CHECKSIG", "type": "pubkeyhash"}, "value": 0.01054444, "n": 1}], "hex": "0200000001d991ad36afd8ac0397c5c080bfbc7cfc75d8ffaaff8a063f77ad725205bc9f43010000006a47304402202d65418d825e6ee0e3c79d174650f13a594dca027efb7da53a12846b3998541002207f19d3955e579933d9e040384ef493a710cabc40c29553129bd0bc27371909d401210381906ab8c4346d7f1c975b449b1ef83dda1580e806e9f4500ddc32cc76363ba3feffffff02983a0000000000001976a914afc42604777d2a048b162c76cdf3e3cc403376a288acec161000000000001976a914ba1c3ce0a8dd7fbf187a2e7a17e17ea30f47833288ac10490800", "vin": [{"sequence": 4294967294, "scriptSig": {"hex": "47304402202d65418d825e6ee0e3c79d174650f13a594dca027efb7da53a12846b3998541002207f19d3955e579933d9e040384ef493a710cabc40c29553129bd0bc27371909d401210381906ab8c4346d7f1c975b449b1ef83dda1580e806e9f4500ddc32cc76363ba3", "asm": "304402202d65418d825e6ee0e3c79d174650f13a594dca027efb7da53a12846b3998541002207f19d3955e579933d9e040384ef493a710cabc40c29553129bd0bc27371909d4[ALL] 0381906ab8c4346d7f1c975b449b1ef83dda1580e806e9f4500ddc32cc76363ba3"}, "vout": 1, "txid": "439fbc055272ad773f068affaaffd875fc7cbcbf80c0c59703acd8af36ad91d9"}], "txid": "615ea43580c7c905c897964c9f7d78772d129174921d38e9fa20c0ffe6c5a504", "blocktime": 1537871767, "version": 2, "confirmations": 11495, "time": 1537871767, "locktime": 542992, "vsize": 225, "size": 225}