{"hash": "615f71f19269a26fe47888ba9640f0fd620f4d6c9de1dc9fb4af1813dc7311bf", "blockhash": "0000000000000000001cda96e906b7601b7a6fb1a3b62bca570a9e5d8f4b3de1", "vout": [{"scriptPubKey": {"reqSigs": 1, "hex": "a914249959a1e3d8ebf2565ca76f8174b60dbaebe30187", "addresses": ["352XxQLj1LQC2BPrsmgTzVk2KieYy5BkyC"], "asm": "OP_HASH160 249959a1e3d8ebf2565ca76f8174b60dbaebe301 OP_EQUAL", "type": "scripthash"}, "value": 0.00376861, "n": 0}, {"scriptPubKey": {"reqSigs": 1, "hex": "a914a3f53ffb893a0d7082c008e72f2fc172a64b95f787", "addresses": ["3Gdws5NJhtASdupKP97429bAQAvjB3ydGh"], "asm": "OP_HASH160 a3f53ffb893a0d7082c008e72f2fc172a64b95f7 OP_EQUAL", "type": "scripthash"}, "value": 0.0021241, "n": 1}, {"scriptPubKey": {"reqSigs": 1, "hex": "76a914c8d71dfe5c99fffa460b13ab941c6817b6f38f0788ac", "addresses": ["1KJwqyBFsRkobsWoFuF3UL3y8AnDbjoqV7"], "asm": "OP_DUP OP_HASH160 c8d71dfe5c99fffa460b13ab941c6817b6f38f07 OP_EQUALVERIFY OP_CHECKSIG", "type": "pubkeyhash"}, "value": 8.307e-05, "n": 2}], "hex": "01000000027658c4c81335a6e7d317045c75ac5f5ebc83472a9f26c573f62794f5aa4c19c900000000da0047304402202c54ed15d06ec8d809ea678146bea8383aabcc86e6ed62dbcc669c888bb597350220746299b3640077d6679d9adfc73afcda5a3299fe799640f8818d805e9d41e2c201483045022100ad9c31388c3357376071d1bed38bebcb6dc94560ce20fa8011bda316b59ed937022059d52b729ab96895b3c18495aa5a7accaedcd117d97c1fe0f36c6b3b6f8abc530147522102907a54bed8ad74b3f35638c60114ca240a308cb986f3f2f306178869a8880b612103bdf937ef2b90ee6c72681ce1108dc47200f1e3e7c6dbac2dc6603ea5c3efd6c752aeffffffffc5ef1184b231a5240f6a4f7578b8868b72f3fb7463f67d92019cfaa7f383c87f010000006a47304402202b813fecf6aa37fcc8c9351edaefebece177a1c354500d54ead0a6ebbae98e25022070f33f06001005feac3455fe0d116505a3e0ef04a12d0768686753353e950a4e0121032c14b95826ffc3f6c72c88b99decd6e063e2154a043d1b745621cf773234c14dffffffff031dc005000000000017a914249959a1e3d8ebf2565ca76f8174b60dbaebe30187ba3d03000000000017a914a3f53ffb893a0d7082c008e72f2fc172a64b95f78773200000000000001976a914c8d71dfe5c99fffa460b13ab941c6817b6f38f0788ac00000000", "vin": [{"sequence": 4294967295, "scriptSig": {"hex": "0047304402202c54ed15d06ec8d809ea678146bea8383aabcc86e6ed62dbcc669c888bb597350220746299b3640077d6679d9adfc73afcda5a3299fe799640f8818d805e9d41e2c201483045022100ad9c31388c3357376071d1bed38bebcb6dc94560ce20fa8011bda316b59ed937022059d52b729ab96895b3c18495aa5a7accaedcd117d97c1fe0f36c6b3b6f8abc530147522102907a54bed8ad74b3f35638c60114ca240a308cb986f3f2f306178869a8880b612103bdf937ef2b90ee6c72681ce1108dc47200f1e3e7c6dbac2dc6603ea5c3efd6c752ae", "asm": "0 304402202c54ed15d06ec8d809ea678146bea8383aabcc86e6ed62dbcc669c888bb597350220746299b3640077d6679d9adfc73afcda5a3299fe799640f8818d805e9d41e2c2[ALL] 3045022100ad9c31388c3357376071d1bed38bebcb6dc94560ce20fa8011bda316b59ed937022059d52b729ab96895b3c18495aa5a7accaedcd117d97c1fe0f36c6b3b6f8abc53[ALL] 522102907a54bed8ad74b3f35638c60114ca240a308cb986f3f2f306178869a8880b612103bdf937ef2b90ee6c72681ce1108dc47200f1e3e7c6dbac2dc6603ea5c3efd6c752ae"}, "vout": 0, "txid": "c9194caaf59427f673c5269f2a4783bc5e5fac755c0417d3e7a63513c8c45876"}, {"sequence": 4294967295, "scriptSig": {"hex": "47304402202b813fecf6aa37fcc8c9351edaefebece177a1c354500d54ead0a6ebbae98e25022070f33f06001005feac3455fe0d116505a3e0ef04a12d0768686753353e950a4e0121032c14b95826ffc3f6c72c88b99decd6e063e2154a043d1b745621cf773234c14d", "asm": "304402202b813fecf6aa37fcc8c9351edaefebece177a1c354500d54ead0a6ebbae98e25022070f33f06001005feac3455fe0d116505a3e0ef04a12d0768686753353e950a4e[ALL] 032c14b95826ffc3f6c72c88b99decd6e063e2154a043d1b745621cf773234c14d"}, "vout": 1, "txid": "7fc883f3a7fa9c01927df66374fbf3728b86b878754f6a0f24a531b28411efc5"}], "txid": "615f71f19269a26fe47888ba9640f0fd620f4d6c9de1dc9fb4af1813dc7311bf", "blocktime": 1537873282, "version": 1, "confirmations": 11484, "time": 1537873282, "locktime": 0, "vsize": 514, "size": 514}