{"hash": "6165f86f21ee606a35f047bb4fbaec11c96c9f4daad1653e21c4624e0105099f", "blockhash": "0000000000000000000e13cef7c366c0283d82e591d1acd082e914b08063cdf1", "vout": [{"scriptPubKey": {"reqSigs": 1, "hex": "76a914241fa8984834fa2b6cf6478e9954947ec7433eab88ac", "addresses": ["14J1FamNLFXqZP8oa8ScuueJknfCqMihae"], "asm": "OP_DUP OP_HASH160 241fa8984834fa2b6cf6478e9954947ec7433eab OP_EQUALVERIFY OP_CHECKSIG", "type": "pubkeyhash"}, "value": 0.00855307, "n": 0}, {"scriptPubKey": {"reqSigs": 1, "hex": "76a91408cba60a833f539f998e67fdcb9b03564bd03a2688ac", "addresses": ["1oWNHfSLqc7oULhV1xDsC8h26HhovdSZ4"], "asm": "OP_DUP OP_HASH160 08cba60a833f539f998e67fdcb9b03564bd03a26 OP_EQUALVERIFY OP_CHECKSIG", "type": "pubkeyhash"}, "value": 0.00897615, "n": 1}, {"scriptPubKey": {"reqSigs": 1, "hex": "76a914f3c9fbabe3abdfd8311c67e6ccecd3677b8839bf88ac", "addresses": ["1PE3AeUEjSFXWMKSNWepgdnMeAYF2yBx3r"], "asm": "OP_DUP OP_HASH160 f3c9fbabe3abdfd8311c67e6ccecd3677b8839bf OP_EQUALVERIFY OP_CHECKSIG", "type": "pubkeyhash"}, "value": 0.00749067, "n": 2}, {"scriptPubKey": {"reqSigs": 1, "hex": "76a9140e03c9a45f82e95e2169a3dca49068e39fbf937788ac", "addresses": ["12H6zriVQ5r6RUZdbg5TCMGkJpXaBoCsLV"], "asm": "OP_DUP OP_HASH160 0e03c9a45f82e95e2169a3dca49068e39fbf9377 OP_EQUALVERIFY OP_CHECKSIG", "type": "pubkeyhash"}, "value": 0.00821576, "n": 3}, {"scriptPubKey": {"reqSigs": 1, "hex": "76a9148d0258176196bb0d147f3744132c383fea98029988ac", "addresses": ["1Drb5vL98QzNnmrYVoiNR9x2iHV2fxST8s"], "asm": "OP_DUP OP_HASH160 8d0258176196bb0d147f3744132c383fea980299 OP_EQUALVERIFY OP_CHECKSIG", "type": "pubkeyhash"}, "value": 0.00840746, "n": 4}, {"scriptPubKey": {"reqSigs": 1, "hex": "76a914f24e497d309998746cb173e6137c154d31ecce7988ac", "addresses": ["1P6CJuR48qihzANH3ANBcXb6kC84abyQRi"], "asm": "OP_DUP OP_HASH160 f24e497d309998746cb173e6137c154d31ecce79 OP_EQUALVERIFY OP_CHECKSIG", "type": "pubkeyhash"}, "value": 0.00794641, "n": 5}, {"scriptPubKey": {"reqSigs": 1, "hex": "a914da70a45aad8d7ed346a2073cd939fc4752e0c23e87", "addresses": ["3Mc2AsE1bK5HbzXDXdrTVnAnK38JLaCaEM"], "asm": "OP_HASH160 da70a45aad8d7ed346a2073cd939fc4752e0c23e OP_EQUAL", "type": "scripthash"}, "value": 0.00749824, "n": 6}, {"scriptPubKey": {"reqSigs": 1, "hex": "76a914f30bea3957656d7f4e78c85c76b62e6f0985170488ac", "addresses": ["1PA7UUnttqx2EAZHo5taT7DGaL6eLTKPPq"], "asm": "OP_DUP OP_HASH160 f30bea3957656d7f4e78c85c76b62e6f09851704 OP_EQUALVERIFY OP_CHECKSIG", "type": "pubkeyhash"}, "value": 0.0090578, "n": 7}, {"scriptPubKey": {"reqSigs": 1, "hex": "a914a714974bbe20d77b850827fd429eae423f2bb46a87", "addresses": ["3GvTSGSypaSa6GezHD3PhgHMyidp19fNQG"], "asm": "OP_HASH160 a714974bbe20d77b850827fd429eae423f2bb46a OP_EQUAL", "type": "scripthash"}, "value": 0.00898859, "n": 8}, {"scriptPubKey": {"reqSigs": 1, "hex": "76a91490eba941337d69e52c3b64a3bce6c70a198f189b88ac", "addresses": ["1EDGceYuwRzFYfWoHxtAfe345YCDx6qzKs"], "asm": "OP_DUP OP_HASH160 90eba941337d69e52c3b64a3bce6c70a198f189b OP_EQUALVERIFY OP_CHECKSIG", "type": "pubkeyhash"}, "value": 0.0083621, "n": 9}, {"scriptPubKey": {"reqSigs": 1, "hex": "76a914712a885c2cf09c32cc4d3b54b79e86f57a00f31288ac", "addresses": ["1BKNJu4bAssu7XyBNFBXT339FzjTTePKbt"], "asm": "OP_DUP OP_HASH160 712a885c2cf09c32cc4d3b54b79e86f57a00f312 OP_EQUALVERIFY OP_CHECKSIG", "type": "pubkeyhash"}, "value": 0.00825718, "n": 10}, {"scriptPubKey": {"reqSigs": 1, "hex": "76a914bcf04e8f7ec75216a04db4710c4193f7c3b3500288ac", "addresses": ["1JE1usxnZkWBzCBFiGaWJ4X7yP7xjDPLEB"], "asm": "OP_DUP OP_HASH160 bcf04e8f7ec75216a04db4710c4193f7c3b35002 OP_EQUALVERIFY OP_CHECKSIG", "type": "pubkeyhash"}, "value": 0.0086681, "n": 11}, {"scriptPubKey": {"reqSigs": 1, "hex": "76a9142cf26133fcd5829127e70fbd033251c57851eee088ac", "addresses": ["156f6H5qhEtTsnRVj22naukcA4H5McoB9H"], "asm": "OP_DUP OP_HASH160 2cf26133fcd5829127e70fbd033251c57851eee0 OP_EQUALVERIFY OP_CHECKSIG", "type": "pubkeyhash"}, "value": 0.00867801, "n": 12}, {"scriptPubKey": {"reqSigs": 1, "hex": "76a914e4be5726b668a9ad26f555223d6af9aa4aa868e088ac", "addresses": ["1MrV5pi8sMqAZMoNdvvN99oa4TazHXVwzb"], "asm": "OP_DUP OP_HASH160 e4be5726b668a9ad26f555223d6af9aa4aa868e0 OP_EQUALVERIFY OP_CHECKSIG", "type": "pubkeyhash"}, "value": 0.00863492, "n": 13}, {"scriptPubKey": {"reqSigs": 1, "hex": "76a914b7db837694925900534f83ca91e3222d30c2f3b988ac", "addresses": ["1Hm9dAzad4DdnhTyub6SnoJDGbeZNzSyoK"], "asm": "OP_DUP OP_HASH160 b7db837694925900534f83ca91e3222d30c2f3b9 OP_EQUALVERIFY OP_CHECKSIG", "type": "pubkeyhash"}, "value": 0.00887562, "n": 14}, {"scriptPubKey": {"reqSigs": 1, "hex": "76a914cb8e3d00966ff9ebb53582ec40916d6e81ea8fd288ac", "addresses": ["1KZJZqDHY6txQnLDYwkHQUN4d5bKw7bJC9"], "asm": "OP_DUP OP_HASH160 cb8e3d00966ff9ebb53582ec40916d6e81ea8fd2 OP_EQUALVERIFY OP_CHECKSIG", "type": "pubkeyhash"}, "value": 0.0077567, "n": 15}, {"scriptPubKey": {"reqSigs": 1, "hex": "76a914b227d06dfc48403097c25e324a46dd977c4d09d188ac", "addresses": ["1HEzyV3DKwNaPyLSiw2K3VP6k5YotyyVrL"], "asm": "OP_DUP OP_HASH160 b227d06dfc48403097c25e324a46dd977c4d09d1 OP_EQUALVERIFY OP_CHECKSIG", "type": "pubkeyhash"}, "value": 0.0086201, "n": 16}, {"scriptPubKey": {"reqSigs": 1, "hex": "76a914068536882f50e2d8e9448244914e5a8f79ce8dcb88ac", "addresses": ["1bUdxJo6xe8af2X3VEm3F8gZhpg8U6SuM"], "asm": "OP_DUP OP_HASH160 068536882f50e2d8e9448244914e5a8f79ce8dcb OP_EQUALVERIFY OP_CHECKSIG", "type": "pubkeyhash"}, "value": 0.00770056, "n": 17}, {"scriptPubKey": {"reqSigs": 1, "hex": "76a9145f8dd53a56066f8ca67fe94d8613f58382f2d2e088ac", "addresses": ["19iF6wzBa5ApWQomYRH4chMfDk58PUzpLC"], "asm": "OP_DUP OP_HASH160 5f8dd53a56066f8ca67fe94d8613f58382f2d2e0 OP_EQUALVERIFY OP_CHECKSIG", "type": "pubkeyhash"}, "value": 0.00856157, "n": 18}, {"scriptPubKey": {"reqSigs": 1, "hex": "76a9149cbc10d67e037522b7bcb8ee84b4bd2b2f25b47888ac", "addresses": ["1FHjhxwfi5RuMaUn21y6avxpa61vQFRFKg"], "asm": "OP_DUP OP_HASH160 9cbc10d67e037522b7bcb8ee84b4bd2b2f25b478 OP_EQUALVERIFY OP_CHECKSIG", "type": "pubkeyhash"}, "value": 0.00827814, "n": 19}, {"scriptPubKey": {"reqSigs": 1, "hex": "a914cfdd11fab6cb75d56b6fa301c87197d6c28b7db887", "addresses": ["3Le6dUtVnwARdcMmnoMoVHikJW4ywUQoRf"], "asm": "OP_HASH160 cfdd11fab6cb75d56b6fa301c87197d6c28b7db8 OP_EQUAL", "type": "scripthash"}, "value": 0.00879179, "n": 20}, {"scriptPubKey": {"reqSigs": 1, "hex": "76a914333aebc67f3e16e62dffca916c2f1735a6f364ab88ac", "addresses": ["15ft3gnpRtFE1y5P7mHpNsYgQx68e3JUBa"], "asm": "OP_DUP OP_HASH160 333aebc67f3e16e62dffca916c2f1735a6f364ab OP_EQUALVERIFY OP_CHECKSIG", "type": "pubkeyhash"}, "value": 0.00787379, "n": 21}, {"scriptPubKey": {"reqSigs": 1, "hex": "a914e3730638fff1b992f06ef2a1fb75e97719197b3687", "addresses": ["3NRf77ozyrrZC1hJU3cPGoh6UMeqjYLjes"], "asm": "OP_HASH160 e3730638fff1b992f06ef2a1fb75e97719197b36 OP_EQUAL", "type": "scripthash"}, "value": 0.00880678, "n": 22}, {"scriptPubKey": {"reqSigs": 1, "hex": "76a914fab978e6fad35026537c97dba039e62a3fda475488ac", "addresses": ["1Pri7oEdqT6cNKYmp6MER3zg5qYU3VHJxs"], "asm": "OP_DUP OP_HASH160 fab978e6fad35026537c97dba039e62a3fda4754 OP_EQUALVERIFY OP_CHECKSIG", "type": "pubkeyhash"}, "value": 0.00801394, "n": 23}, {"scriptPubKey": {"reqSigs": 1, "hex": "76a91494bb37240dcfc16a37c183e9bb7f7682068c7b8b88ac", "addresses": ["1EZRHLywsjs1daSXTgTgjpwGLPFRerTKbY"], "asm": "OP_DUP OP_HASH160 94bb37240dcfc16a37c183e9bb7f7682068c7b8b OP_EQUALVERIFY OP_CHECKSIG", "type": "pubkeyhash"}, "value": 0.00874684, "n": 24}, {"scriptPubKey": {"reqSigs": 1, "hex": "76a914636d7c50d8611964931b16f25672d294b19dec9788ac", "addresses": ["1A4j4BiCQuUaYB9HRvqUu6UUUCAuGqahn1"], "asm": "OP_DUP OP_HASH160 636d7c50d8611964931b16f25672d294b19dec97 OP_EQUALVERIFY OP_CHECKSIG", "type": "pubkeyhash"}, "value": 0.00769989, "n": 25}, {"scriptPubKey": {"reqSigs": 1, "hex": "76a9141c5530eb721a3a0149253bc004f217d32a09f11c88ac", "addresses": ["13aoyZ2PYdDhysm714qUEJT1259qrQKGss"], "asm": "OP_DUP OP_HASH160 1c5530eb721a3a0149253bc004f217d32a09f11c OP_EQUALVERIFY OP_CHECKSIG", "type": "pubkeyhash"}, "value": 0.00756774, "n": 26}, {"scriptPubKey": {"reqSigs": 1, "hex": "76a9141abf06592ff131688c6e9cf101f59376dab9778b88ac", "addresses": ["13SRQd9g4Tu6XyadZkpZXzGWAgCJS1kC5o"], "asm": "OP_DUP OP_HASH160 1abf06592ff131688c6e9cf101f59376dab9778b OP_EQUALVERIFY OP_CHECKSIG", "type": "pubkeyhash"}, "value": 0.00906464, "n": 27}, {"scriptPubKey": {"reqSigs": 1, "hex": "a9144cc855a70efae56acf5dc1db5b1b64fc593554c687", "addresses": ["38h1GcYBYgQVARVQ7acYVF82qcmQytDPbf"], "asm": "OP_HASH160 4cc855a70efae56acf5dc1db5b1b64fc593554c6 OP_EQUAL", "type": "scripthash"}, "value": 0.00868155, "n": 28}, {"scriptPubKey": {"reqSigs": 1, "hex": "a91441fa3b7930151008bfdf31bbaf3a92ef4143b4f987", "addresses": ["37hscTaHGuyfVqnqCVmpqpoeQed6RU68RS"], "asm": "OP_HASH160 41fa3b7930151008bfdf31bbaf3a92ef4143b4f9 OP_EQUAL", "type": "scripthash"}, "value": 0.00861688, "n": 29}, {"scriptPubKey": {"reqSigs": 1, "hex": "76a9149ea15038d7d5dd26061b459d07e8a42d532171a188ac", "addresses": ["1FTm1ZPg3Tm6TBZJ5umWc6gQCM6P3S597R"], "asm": "OP_DUP OP_HASH160 9ea15038d7d5dd26061b459d07e8a42d532171a1 OP_EQUALVERIFY OP_CHECKSIG", "type": "pubkeyhash"}, "value": 0.00906697, "n": 30}, {"scriptPubKey": {"reqSigs": 1, "hex": "76a914852a40d3f4ad2a83137d694d961a0ccbdd1d048588ac", "addresses": ["1D97VKYDk5WE3nouqfjrxw6tybDV2R6pDt"], "asm": "OP_DUP OP_HASH160 852a40d3f4ad2a83137d694d961a0ccbdd1d0485 OP_EQUALVERIFY OP_CHECKSIG", "type": "pubkeyhash"}, "value": 0.00778638, "n": 31}, {"scriptPubKey": {"reqSigs": 1, "hex": "76a914973d26d5dcef7fe43e7362d2c5af5ba95c7e89c288ac", "addresses": ["1EngHrwafW1VKTDMgwdykyYBmH7EXBFidk"], "asm": "OP_DUP OP_HASH160 973d26d5dcef7fe43e7362d2c5af5ba95c7e89c2 OP_EQUALVERIFY OP_CHECKSIG", "type": "pubkeyhash"}, "value": 0.00790219, "n": 32}, {"scriptPubKey": {"reqSigs": 1, "hex": "a91462112438f28537e1b48e2b778215410ab200cce487", "addresses": ["3AdYgMYXCRM4ePUXaLud9S68mqeTivRqmR"], "asm": "OP_HASH160 62112438f28537e1b48e2b778215410ab200cce4 OP_EQUAL", "type": "scripthash"}, "value": 0.00754142, "n": 33}, {"scriptPubKey": {"reqSigs": 1, "hex": "76a914940c61f017005cec50f040c5431d33fd9047c4d288ac", "addresses": ["1EVoqkKg1eyxT9SRxD1AdghcyfngFtT15U"], "asm": "OP_DUP OP_HASH160 940c61f017005cec50f040c5431d33fd9047c4d2 OP_EQUALVERIFY OP_CHECKSIG", "type": "pubkeyhash"}, "value": 0.00891736, "n": 34}, {"scriptPubKey": {"reqSigs": 1, "hex": "a914ef047965103ab7646c91f13d59dcc72f5bb2728487", "addresses": ["3PUpnGGGVuYw57U9mnoWD2XTzCdNe9PGhq"], "asm": "OP_HASH160 ef047965103ab7646c91f13d59dcc72f5bb27284 OP_EQUAL", "type": "scripthash"}, "value": 0.00877508, "n": 35}, {"scriptPubKey": {"reqSigs": 1, "hex": "76a91401dffd29b776532b56a4b3bc32ed04a69173888b88ac", "addresses": ["1Av1DTB46uwVJf9NrrznYTEJ6D79n4Q3z"], "asm": "OP_DUP OP_HASH160 01dffd29b776532b56a4b3bc32ed04a69173888b OP_EQUALVERIFY OP_CHECKSIG", "type": "pubkeyhash"}, "value": 0.00755978, "n": 36}, {"scriptPubKey": {"reqSigs": 1, "hex": "76a914a4478acd3b3aee72495eda29382ce1aa228e9fd788ac", "addresses": ["1FydXJLmFofqQy1n1g1FwBJp8W9pLYMW8x"], "asm": "OP_DUP OP_HASH160 a4478acd3b3aee72495eda29382ce1aa228e9fd7 OP_EQUALVERIFY OP_CHECKSIG", "type": "pubkeyhash"}, "value": 0.00817984, "n": 37}, {"scriptPubKey": {"reqSigs": 1, "hex": "a9140acac9efc2e272222a1a8d78ecc1bb384da7baee87", "addresses": ["32g5cUZFB92wkKvaQWUf67sRXXPxaDR3NY"], "asm": "OP_HASH160 0acac9efc2e272222a1a8d78ecc1bb384da7baee OP_EQUAL", "type": "scripthash"}, "value": 0.00755184, "n": 38}, {"scriptPubKey": {"reqSigs": 1, "hex": "a914952a7064737fa3f5b2ce07584683e9e4872edb4787", "addresses": ["3FHjSqoLXm23bFWYxmhGBTLnq35hbVg4FS"], "asm": "OP_HASH160 952a7064737fa3f5b2ce07584683e9e4872edb47 OP_EQUAL", "type": "scripthash"}, "value": 0.00747616, "n": 39}, {"scriptPubKey": {"reqSigs": 1, "hex": "76a9141a548c7d7076b13df1a85cf1ce990a965285d68c88ac", "addresses": ["13QDrYM3jYpzswauXXtMUCzeVCzJRYJxda"], "asm": "OP_DUP OP_HASH160 1a548c7d7076b13df1a85cf1ce990a965285d68c OP_EQUALVERIFY OP_CHECKSIG", "type": "pubkeyhash"}, "value": 0.0074747, "n": 40}, {"scriptPubKey": {"reqSigs": 1, "hex": "a914159c3bf587b88c6b16b0832be7a71dbd44ef0ce887", "addresses": ["33fHGv4vHKwocXXMZp4gazRMp9PCaQgdDZ"], "asm": "OP_HASH160 159c3bf587b88c6b16b0832be7a71dbd44ef0ce8 OP_EQUAL", "type": "scripthash"}, "value": 0.00755848, "n": 41}, {"scriptPubKey": {"reqSigs": 1, "hex": "a914619d4842583201357a6eede303241e43feab18bd87", "addresses": ["3Ab9tKC9Z3Y4M5N1yUqfAhjd9XURdjuYD2"], "asm": "OP_HASH160 619d4842583201357a6eede303241e43feab18bd OP_EQUAL", "type": "scripthash"}, "value": 0.0090704, "n": 42}, {"scriptPubKey": {"reqSigs": 1, "hex": "76a9141f7bd6ae514665036557349e508320edf02ec54f88ac", "addresses": ["13sUJQPpTWjyYGSDQJ9ajs8m55cTvFjNcP"], "asm": "OP_DUP OP_HASH160 1f7bd6ae514665036557349e508320edf02ec54f OP_EQUALVERIFY OP_CHECKSIG", "type": "pubkeyhash"}, "value": 0.00856214, "n": 43}, {"scriptPubKey": {"reqSigs": 1, "hex": "a9147d11d8f327883b4ee6677fc0554303404311c30e87", "addresses": ["3D6KmavzqFrfkvb2rb7eVKaRV6wqsjFfbD"], "asm": "OP_HASH160 7d11d8f327883b4ee6677fc0554303404311c30e OP_EQUAL", "type": "scripthash"}, "value": 0.00867673, "n": 44}, {"scriptPubKey": {"reqSigs": 1, "hex": "76a9147f16f063d101530ccf89cb5e50effcb3ac58aa7a88ac", "addresses": ["1CazJCEhkYjAQXPFxEPSJqMBtGjakZiZo6"], "asm": "OP_DUP OP_HASH160 7f16f063d101530ccf89cb5e50effcb3ac58aa7a OP_EQUALVERIFY OP_CHECKSIG", "type": "pubkeyhash"}, "value": 0.00813569, "n": 45}, {"scriptPubKey": {"reqSigs": 1, "hex": "a9140dd88bf0fd24c9315831e772913f2fd2dc1e57be87", "addresses": ["32xE7xmNXDHDhGrD3ex4GFY22EMjMWDsEw"], "asm": "OP_HASH160 0dd88bf0fd24c9315831e772913f2fd2dc1e57be OP_EQUAL", "type": "scripthash"}, "value": 0.00876732, "n": 46}, {"scriptPubKey": {"reqSigs": 1, "hex": "76a91491a667c4677edea77f81f391c19b3b7ebb615ab388ac", "addresses": ["1EH8KrwzZFi4Q8v3ULDJXrqT1s5a17Df2D"], "asm": "OP_DUP OP_HASH160 91a667c4677edea77f81f391c19b3b7ebb615ab3 OP_EQUALVERIFY OP_CHECKSIG", "type": "pubkeyhash"}, "value": 0.00840583, "n": 47}, {"scriptPubKey": {"reqSigs": 1, "hex": "76a91474c6fa64d46038bd623436474817bce062d57dd688ac", "addresses": ["1BeTkVbzjKarmuXH3Z5n3oAAJpYV1TLTDp"], "asm": "OP_DUP OP_HASH160 74c6fa64d46038bd623436474817bce062d57dd6 OP_EQUALVERIFY OP_CHECKSIG", "type": "pubkeyhash"}, "value": 0.00806521, "n": 48}, {"scriptPubKey": {"reqSigs": 1, "hex": "76a914737a684857afc89127b70959acda8c93374a8e3d88ac", "addresses": ["1BXbM5D3r2o8NcM4MbhCkE4EAQNgNXrdCJ"], "asm": "OP_DUP OP_HASH160 737a684857afc89127b70959acda8c93374a8e3d OP_EQUALVERIFY OP_CHECKSIG", "type": "pubkeyhash"}, "value": 0.0088626, "n": 49}, {"scriptPubKey": {"reqSigs": 1, "hex": "76a91432617e3b31bf24b24a23e25eee564c16b201b29588ac", "addresses": ["15bPaXkfLgvzhsaU2k7LkTy98AeL2Lt8gg"], "asm": "OP_DUP OP_HASH160 32617e3b31bf24b24a23e25eee564c16b201b295 OP_EQUALVERIFY OP_CHECKSIG", "type": "pubkeyhash"}, "value": 0.00858729, "n": 50}, {"scriptPubKey": {"reqSigs": 1, "hex": "76a91428018972a828613d4b5d0f5a2a75fda81559312088ac", "addresses": ["14eXsTe6MXvDEAEHY5qGXLXC81F2YYqxmh"], "asm": "OP_DUP OP_HASH160 28018972a828613d4b5d0f5a2a75fda815593120 OP_EQUALVERIFY OP_CHECKSIG", "type": "pubkeyhash"}, "value": 0.00845015, "n": 51}, {"scriptPubKey": {"reqSigs": 1, "hex": "76a91432e655a3135f20149e3d2b9018d891062d8d35d688ac", "addresses": ["15e8iWqoywHEPA9RtEa24Jx1b7hhkbPUen"], "asm": "OP_DUP OP_HASH160 32e655a3135f20149e3d2b9018d891062d8d35d6 OP_EQUALVERIFY OP_CHECKSIG", "type": "pubkeyhash"}, "value": 0.00871627, "n": 52}, {"scriptPubKey": {"reqSigs": 1, "hex": "a914f7ebae9e6dec345ed420c9da930ce0645bda60ee87", "addresses": ["3QHuAQUh7r5EdYqn3xdPtvq2xaz7DR7QSF"], "asm": "OP_HASH160 f7ebae9e6dec345ed420c9da930ce0645bda60ee OP_EQUAL", "type": "scripthash"}, "value": 0.00778246, "n": 53}, {"scriptPubKey": {"reqSigs": 1, "hex": "76a914025187d23230480e96d52afaa3958734b8626f1888ac", "addresses": ["1DG2E68K3GJoQenXuUoGwRMLn4TvcyiUd"], "asm": "OP_DUP OP_HASH160 025187d23230480e96d52afaa3958734b8626f18 OP_EQUALVERIFY OP_CHECKSIG", "type": "pubkeyhash"}, "value": 0.00896903, "n": 54}, {"scriptPubKey": {"reqSigs": 1, "hex": "76a914f6c0f2085616dc8b19255c98893979cf8adff20588ac", "addresses": ["1PViNGvH5UjBHBvNQ3Vcjakot8ttcUouer"], "asm": "OP_DUP OP_HASH160 f6c0f2085616dc8b19255c98893979cf8adff205 OP_EQUALVERIFY OP_CHECKSIG", "type": "pubkeyhash"}, "value": 0.00862962, "n": 55}, {"scriptPubKey": {"reqSigs": 1, "hex": "76a914e7f504b64053bda7c65e3320570a0669f71406ee88ac", "addresses": ["1N9UcVRnHetKbo7hwHDGbFHUwoY2ZaumFp"], "asm": "OP_DUP OP_HASH160 e7f504b64053bda7c65e3320570a0669f71406ee OP_EQUALVERIFY OP_CHECKSIG", "type": "pubkeyhash"}, "value": 0.00815138, "n": 56}, {"scriptPubKey": {"reqSigs": 1, "hex": "76a914dfe487412084a258361d72b238f786b75be8917e88ac", "addresses": ["1MQqTCv74JL2TFfULftX4JXHBG7x4Yfw9X"], "asm": "OP_DUP OP_HASH160 dfe487412084a258361d72b238f786b75be8917e OP_EQUALVERIFY OP_CHECKSIG", "type": "pubkeyhash"}, "value": 0.00903682, "n": 57}, {"scriptPubKey": {"reqSigs": 1, "hex": "76a914b38ac9401c57e4e79b179ae318c0aacb8698591488ac", "addresses": ["1HNLDNJgKGWykafiFL4MwxutHNbu7S4f5p"], "asm": "OP_DUP OP_HASH160 b38ac9401c57e4e79b179ae318c0aacb86985914 OP_EQUALVERIFY OP_CHECKSIG", "type": "pubkeyhash"}, "value": 0.00787497, "n": 58}, {"scriptPubKey": {"reqSigs": 1, "hex": "76a914c5277ac8dfa3ce4e0f929f18229b00401ea82e7b88ac", "addresses": ["1JyTQtE7JkF4JswGGXFPJYrD21b6iisjVd"], "asm": "OP_DUP OP_HASH160 c5277ac8dfa3ce4e0f929f18229b00401ea82e7b OP_EQUALVERIFY OP_CHECKSIG", "type": "pubkeyhash"}, "value": 0.00842451, "n": 59}, {"scriptPubKey": {"reqSigs": 1, "hex": "76a91464bf21530a448da07a9b16d7b391eaecec63a62188ac", "addresses": ["1ABhY98y2Jm1EnmUVSckWsAZMQ1zMpv6w4"], "asm": "OP_DUP OP_HASH160 64bf21530a448da07a9b16d7b391eaecec63a621 OP_EQUALVERIFY OP_CHECKSIG", "type": "pubkeyhash"}, "value": 0.00852785, "n": 60}, {"scriptPubKey": {"reqSigs": 1, "hex": "76a914c3bbe790ed86eefba26a4f9fb7cddffde846f94988ac", "addresses": ["1JqwsFAriDktUdnqSuWCu4RyCdDZA5TDd7"], "asm": "OP_DUP OP_HASH160 c3bbe790ed86eefba26a4f9fb7cddffde846f949 OP_EQUALVERIFY OP_CHECKSIG", "type": "pubkeyhash"}, "value": 0.0080652, "n": 61}, {"scriptPubKey": {"reqSigs": 1, "hex": "76a914606d5bf44c8cfe7fee6e086645a6087b3edb640688ac", "addresses": ["19nrspuKrCCpdjwXyf9iYHZuLopsAsjQSe"], "asm": "OP_DUP OP_HASH160 606d5bf44c8cfe7fee6e086645a6087b3edb6406 OP_EQUALVERIFY OP_CHECKSIG", "type": "pubkeyhash"}, "value": 0.00866081, "n": 62}, {"scriptPubKey": {"reqSigs": 1, "hex": "76a91490dbcb95de4eeb18327c26cea469914b8643507f88ac", "addresses": ["1ECwcGQhkEH1QP2k9gnyxoHDpiDo2GuXcg"], "asm": "OP_DUP OP_HASH160 90dbcb95de4eeb18327c26cea469914b8643507f OP_EQUALVERIFY OP_CHECKSIG", "type": "pubkeyhash"}, "value": 0.0088184, "n": 63}, {"scriptPubKey": {"reqSigs": 1, "hex": "a914235f67583af782d560e404b6f00314348602637e87", "addresses": ["34v3s2Feat7g4RH1F419gL9QLi9x6wAtXB"], "asm": "OP_HASH160 235f67583af782d560e404b6f00314348602637e OP_EQUAL", "type": "scripthash"}, "value": 0.00832231, "n": 64}, {"scriptPubKey": {"reqSigs": 1, "hex": "76a9148ae3ce7c2073dadc4689d501eb1d88509826f18288ac", "addresses": ["1DfP9kacR7dkbFGTyCoppNZXWKguf4YMx9"], "asm": "OP_DUP OP_HASH160 8ae3ce7c2073dadc4689d501eb1d88509826f182 OP_EQUALVERIFY OP_CHECKSIG", "type": "pubkeyhash"}, "value": 0.00868221, "n": 65}, {"scriptPubKey": {"reqSigs": 1, "hex": "76a914025af19c1e9a9d98ac4e081f1081edc9487145b488ac", "addresses": ["1DTJGbSibw3sondXp5MgFakhDzGbu84qp"], "asm": "OP_DUP OP_HASH160 025af19c1e9a9d98ac4e081f1081edc9487145b4 OP_EQUALVERIFY OP_CHECKSIG", "type": "pubkeyhash"}, "value": 0.00777964, "n": 66}, {"scriptPubKey": {"reqSigs": 1, "hex": "a914f6d9d2982c97986b19af40636e16facf557a1aeb87", "addresses": ["3QCF6KHJkUJyf62AESY3CPkBwM5wjibehn"], "asm": "OP_HASH160 f6d9d2982c97986b19af40636e16facf557a1aeb OP_EQUAL", "type": "scripthash"}, "value": 0.00763721, "n": 67}, {"scriptPubKey": {"reqSigs": 1, "hex": "76a91495e1b209457cd66e74f633dd3c2ae10fd44654de88ac", "addresses": ["1EfW4BK6CzJAGJwKPu2QMqg2uQKc3BQz4T"], "asm": "OP_DUP OP_HASH160 95e1b209457cd66e74f633dd3c2ae10fd44654de OP_EQUALVERIFY OP_CHECKSIG", "type": "pubkeyhash"}, "value": 0.00817247, "n": 68}, {"scriptPubKey": {"reqSigs": 1, "hex": "76a9140b9ae7c583dd804ea0920bfe9c838d938e7b3eef88ac", "addresses": ["124N18917SqiywtcgAirsecTdsG4DddfXG"], "asm": "OP_DUP OP_HASH160 0b9ae7c583dd804ea0920bfe9c838d938e7b3eef OP_EQUALVERIFY OP_CHECKSIG", "type": "pubkeyhash"}, "value": 0.00770608, "n": 69}, {"scriptPubKey": {"reqSigs": 1, "hex": "a91439f4b854005a8ff9dc1caa7574b04a2983b9288b87", "addresses": ["36yTbvYYBPLjn549ZZoeeEsUH6F5rz1zSb"], "asm": "OP_HASH160 39f4b854005a8ff9dc1caa7574b04a2983b9288b OP_EQUAL", "type": "scripthash"}, "value": 0.00795585, "n": 70}, {"scriptPubKey": {"reqSigs": 1, "hex": "a914b0cda9737a04ac8a7985fdc24810848b6fdb872a87", "addresses": ["3HosDwrHzWU83czNugcNQQrexsM5jQPMae"], "asm": "OP_HASH160 b0cda9737a04ac8a7985fdc24810848b6fdb872a OP_EQUAL", "type": "scripthash"}, "value": 0.00808735, "n": 71}, {"scriptPubKey": {"reqSigs": 1, "hex": "76a9146248b79821170b943b6b6ef2135f6598890478bf88ac", "addresses": ["19xgLH3S6r1ggv8ShRDQHioXtYcL1QgTZV"], "asm": "OP_DUP OP_HASH160 6248b79821170b943b6b6ef2135f6598890478bf OP_EQUALVERIFY OP_CHECKSIG", "type": "pubkeyhash"}, "value": 0.00901574, "n": 72}, {"scriptPubKey": {"reqSigs": 1, "hex": "76a914ef16c076e7877b9f208351b328dc9b8c3ee03b4f88ac", "addresses": ["1NoBkfw4nmfwbtARn53McnZapan728AsyG"], "asm": "OP_DUP OP_HASH160 ef16c076e7877b9f208351b328dc9b8c3ee03b4f OP_EQUALVERIFY OP_CHECKSIG", "type": "pubkeyhash"}, "value": 0.00758023, "n": 73}, {"scriptPubKey": {"reqSigs": 1, "hex": "a914c6d5461a61b221cb913c9853f36b30adaa17c35c87", "addresses": ["3KpMD3zRersqJKaNY7vijDYW73pQq6pU1N"], "asm": "OP_HASH160 c6d5461a61b221cb913c9853f36b30adaa17c35c OP_EQUAL", "type": "scripthash"}, "value": 0.0093006, "n": 74}, {"scriptPubKey": {"reqSigs": 1, "hex": "a91477c909ba6cd9de50ad3c0b6bdd676c9a6488fae787", "addresses": ["3CcPAjgheaXJvKSFPxUv8aKwvUyNb3yt9j"], "asm": "OP_HASH160 77c909ba6cd9de50ad3c0b6bdd676c9a6488fae7 OP_EQUAL", "type": "scripthash"}, "value": 0.00843929, "n": 75}, {"scriptPubKey": {"reqSigs": 1, "hex": "76a91439c275631432d28ead3595f9cbff466660493d4588ac", "addresses": ["16GQU9kCs5Ni8nkdA3Px82pSYfefESSRoZ"], "asm": "OP_DUP OP_HASH160 39c275631432d28ead3595f9cbff466660493d45 OP_EQUALVERIFY OP_CHECKSIG", "type": "pubkeyhash"}, "value": 0.00799173, "n": 76}, {"scriptPubKey": {"reqSigs": 1, "hex": "76a9146975322227371b81f5aa664226870b157a2eaa8988ac", "addresses": ["1AccM3z9Pt3es8KWH1LMoz9pM8uH3ZvAU4"], "asm": "OP_DUP OP_HASH160 6975322227371b81f5aa664226870b157a2eaa89 OP_EQUALVERIFY OP_CHECKSIG", "type": "pubkeyhash"}, "value": 0.00745311, "n": 77}, {"scriptPubKey": {"reqSigs": 1, "hex": "76a914b3f73161683c8e0ce58f976c469d4247d412ade788ac", "addresses": ["1HQa5brWKXFcUd4hdjWtS3koCR84qEe8Zj"], "asm": "OP_DUP OP_HASH160 b3f73161683c8e0ce58f976c469d4247d412ade7 OP_EQUALVERIFY OP_CHECKSIG", "type": "pubkeyhash"}, "value": 0.00883757, "n": 78}, {"scriptPubKey": {"reqSigs": 1, "hex": "76a914a24d2b34d65584f2c834f223ef787afd430fb4a588ac", "addresses": ["1FoAurhzLmsfgYw3xHLCMC4Jf573Qgwzwb"], "asm": "OP_DUP OP_HASH160 a24d2b34d65584f2c834f223ef787afd430fb4a5 OP_EQUALVERIFY OP_CHECKSIG", "type": "pubkeyhash"}, "value": 0.00821173, "n": 79}, {"scriptPubKey": {"reqSigs": 1, "hex": "76a914959e649643ca07518913020658dc4857502691aa88ac", "addresses": ["1Ee7Rv75uCcCPJQTSm24JUiQyLYxxfdjFG"], "asm": "OP_DUP OP_HASH160 959e649643ca07518913020658dc4857502691aa OP_EQUALVERIFY OP_CHECKSIG", "type": "pubkeyhash"}, "value": 0.29231577, "n": 80}, {"scriptPubKey": {"reqSigs": 1, "hex": "76a9147f0e32f1f9bcb9d484474815ed208381961d488f88ac", "addresses": ["1Caopvk7aQuxiHdLpWez5LSwp6EhVmfWdh"], "asm": "OP_DUP OP_HASH160 7f0e32f1f9bcb9d484474815ed208381961d488f OP_EQUALVERIFY OP_CHECKSIG", "type": "pubkeyhash"}, "value": 0.00893623, "n": 81}, {"scriptPubKey": {"reqSigs": 1, "hex": "76a914d921ccbd928ff84d06a2b91f736002b5736cd07588ac", "addresses": ["1Lo685RS3eiSjp5AKckfE36YxhM5GYjNvi"], "asm": "OP_DUP OP_HASH160 d921ccbd928ff84d06a2b91f736002b5736cd075 OP_EQUALVERIFY OP_CHECKSIG", "type": "pubkeyhash"}, "value": 0.0076654, "n": 82}, {"scriptPubKey": {"reqSigs": 1, "hex": "a914f59203ed0842a9bdca8be878ec6ce30727a07a8787", "addresses": ["3Q5UPsA54nLnqbCNucgHNBEM5ShdyckFh4"], "asm": "OP_HASH160 f59203ed0842a9bdca8be878ec6ce30727a07a87 OP_EQUAL", "type": "scripthash"}, "value": 0.00897881, "n": 83}, {"scriptPubKey": {"reqSigs": 1, "hex": "a914875d75c8af6338ee2e1494a6e380635ebf712ff087", "addresses": ["3E2m7AMDAn5iAVr2RmaNezoxTngMDiM3um"], "asm": "OP_HASH160 875d75c8af6338ee2e1494a6e380635ebf712ff0 OP_EQUAL", "type": "scripthash"}, "value": 0.00808925, "n": 84}, {"scriptPubKey": {"reqSigs": 1, "hex": "76a914bd6d84c33118a872560b0afd61adec9a28b6b99f88ac", "addresses": ["1JGbuk2ojkLUapGPPNvqMxj7GtjPMddxxd"], "asm": "OP_DUP OP_HASH160 bd6d84c33118a872560b0afd61adec9a28b6b99f OP_EQUALVERIFY OP_CHECKSIG", "type": "pubkeyhash"}, "value": 0.00803983, "n": 85}, {"scriptPubKey": {"reqSigs": 1, "hex": "76a914ce53ea02ee673f8a92b7e6831768853ddb71f14088ac", "addresses": ["1KoxiyLxpFvi1SHKZL1LCqYwgnvYomU6yA"], "asm": "OP_DUP OP_HASH160 ce53ea02ee673f8a92b7e6831768853ddb71f140 OP_EQUALVERIFY OP_CHECKSIG", "type": "pubkeyhash"}, "value": 0.0078486, "n": 86}, {"scriptPubKey": {"reqSigs": 1, "hex": "76a914963940e83bde307d0e5ed15639438c8fdece602988ac", "addresses": ["1EhJwpbCrp1LU9knFU66Tqpqxor6Nx55Nd"], "asm": "OP_DUP OP_HASH160 963940e83bde307d0e5ed15639438c8fdece6029 OP_EQUALVERIFY OP_CHECKSIG", "type": "pubkeyhash"}, "value": 0.00751339, "n": 87}, {"scriptPubKey": {"reqSigs": 1, "hex": "76a91405b8c7b5819422504ae29c105a8ca6d21ab4e34388ac", "addresses": ["1XFjhygKT32rXDwM8WZC5D6KVTrmzVXds"], "asm": "OP_DUP OP_HASH160 05b8c7b5819422504ae29c105a8ca6d21ab4e343 OP_EQUALVERIFY OP_CHECKSIG", "type": "pubkeyhash"}, "value": 0.00882133, "n": 88}, {"scriptPubKey": {"reqSigs": 1, "hex": "a914f563610856bb605fc880df434f8b6b8ba98b869a87", "addresses": ["3Q4WXX2WNfZv77E3gUxzi1qWuNzWv2NwP8"], "asm": "OP_HASH160 f563610856bb605fc880df434f8b6b8ba98b869a OP_EQUAL", "type": "scripthash"}, "value": 0.00873719, "n": 89}, {"scriptPubKey": {"reqSigs": 1, "hex": "a914742386c929e34540c2dddfad14272ed52d21a6b387", "addresses": ["3CH6sDmuvscAzooWUwCnVjjBjz8Eq8FuKr"], "asm": "OP_HASH160 742386c929e34540c2dddfad14272ed52d21a6b3 OP_EQUAL", "type": "scripthash"}, "value": 0.00847182, "n": 90}, {"scriptPubKey": {"reqSigs": 1, "hex": "76a914e33cbf8ff067c8f690f511239c1ac4b6b5eea5bc88ac", "addresses": ["1MiXAQpawyQUY5WrP6NfP18jY1R93HFRHQ"], "asm": "OP_DUP OP_HASH160 e33cbf8ff067c8f690f511239c1ac4b6b5eea5bc OP_EQUALVERIFY OP_CHECKSIG", "type": "pubkeyhash"}, "value": 0.00816216, "n": 91}, {"scriptPubKey": {"reqSigs": 1, "hex": "a9148a7e6f9b124a5a9bd277541433a2462adad05d3587", "addresses": ["3EKJdwXJbViSBKSw5JEuy4RakKVgwuaafe"], "asm": "OP_HASH160 8a7e6f9b124a5a9bd277541433a2462adad05d35 OP_EQUAL", "type": "scripthash"}, "value": 0.00835093, "n": 92}, {"scriptPubKey": {"reqSigs": 1, "hex": "76a914397a7bd046d06e10531d501aa4d71894cbdb210888ac", "addresses": ["16EvFFLx1wWHVWXzvj4XiVeGyp2LkhCP34"], "asm": "OP_DUP OP_HASH160 397a7bd046d06e10531d501aa4d71894cbdb2108 OP_EQUALVERIFY OP_CHECKSIG", "type": "pubkeyhash"}, "value": 0.00895308, "n": 93}, {"scriptPubKey": {"reqSigs": 1, "hex": "76a9143834664bddb0ea6f64d77c9e2cc4a931d997ef8488ac", "addresses": ["168BcXkbNWsqEU3SUUmJkxHghUPBjKs6x6"], "asm": "OP_DUP OP_HASH160 3834664bddb0ea6f64d77c9e2cc4a931d997ef84 OP_EQUALVERIFY OP_CHECKSIG", "type": "pubkeyhash"}, "value": 0.0088973, "n": 94}, {"scriptPubKey": {"reqSigs": 1, "hex": "a91456c125824b755a8eea2d9a648c3dbac562a30dfb87", "addresses": ["39bjR6ZEkG1bvhfx6PybAg5XQMi4ny8xrr"], "asm": "OP_HASH160 56c125824b755a8eea2d9a648c3dbac562a30dfb OP_EQUAL", "type": "scripthash"}, "value": 0.00742854, "n": 95}, {"scriptPubKey": {"reqSigs": 1, "hex": "a914310f86a74a26341e677da0f5c85a6ef6f6fe312887", "addresses": ["36ARdi2USaPFQapTXfBZrXSjKb3WtmNCq2"], "asm": "OP_HASH160 310f86a74a26341e677da0f5c85a6ef6f6fe3128 OP_EQUAL", "type": "scripthash"}, "value": 0.00851894, "n": 96}, {"scriptPubKey": {"reqSigs": 1, "hex": "a9142f758dbd242e95c0f35f4cbaebd8f838e0c14bd487", "addresses": ["361xWLCMohT2DPKt6xJ8N9Ktuxcw8pURun"], "asm": "OP_HASH160 2f758dbd242e95c0f35f4cbaebd8f838e0c14bd4 OP_EQUAL", "type": "scripthash"}, "value": 0.00803431, "n": 97}, {"scriptPubKey": {"reqSigs": 1, "hex": "76a914e385239a1465162a04358ed7005c25099ecbb8c088ac", "addresses": ["1Mk1tDCHZRwHDqweAkuBVwhJ7ppsbdpvtS"], "asm": "OP_DUP OP_HASH160 e385239a1465162a04358ed7005c25099ecbb8c0 OP_EQUALVERIFY OP_CHECKSIG", "type": "pubkeyhash"}, "value": 0.00886841, "n": 98}, {"scriptPubKey": {"reqSigs": 1, "hex": "76a914e1326198705efda7bb64f60754c4d3deea9fad6188ac", "addresses": ["1MXjPiFawtV7ws5ptd6tQwEajJchS33ima"], "asm": "OP_DUP OP_HASH160 e1326198705efda7bb64f60754c4d3deea9fad61 OP_EQUALVERIFY OP_CHECKSIG", "type": "pubkeyhash"}, "value": 0.00846767, "n": 99}, {"scriptPubKey": {"reqSigs": 1, "hex": "76a914e8f4297d85d146939bc879e8d2995969a813bf1a88ac", "addresses": ["1NEkGBbwhZct7FuaBfzyZPk4AaxAweXdE2"], "asm": "OP_DUP OP_HASH160 e8f4297d85d146939bc879e8d2995969a813bf1a OP_EQUALVERIFY OP_CHECKSIG", "type": "pubkeyhash"}, "value": 0.00866366, "n": 100}], "hex": "02000000019650dc2926dbea774e245fac9d7e69ef36a17dbc3a55c91c9a544a6473b1ddd2310000006a473044022068abb82ee03744b3c7bd6adbda9b638858594c4332a3f4ea9403506e4c32e61702202576fe5c08990517e6b638a7850e63b78dfb36372ec2bcb2b3351ff5002c585a0121026f20b5225618c5ed9487ad9f86bc50b950b84e3d095f6fdc9d3f15f1d52b74cdfeffffff650b0d0d00000000001976a914241fa8984834fa2b6cf6478e9954947ec7433eab88ac4fb20d00000000001976a91408cba60a833f539f998e67fdcb9b03564bd03a2688ac0b6e0b00000000001976a914f3c9fbabe3abdfd8311c67e6ccecd3677b8839bf88ac48890c00000000001976a9140e03c9a45f82e95e2169a3dca49068e39fbf937788ac2ad40c00000000001976a9148d0258176196bb0d147f3744132c383fea98029988ac11200c00000000001976a914f24e497d309998746cb173e6137c154d31ecce7988ac00710b000000000017a914da70a45aad8d7ed346a2073cd939fc4752e0c23e8734d20d00000000001976a914f30bea3957656d7f4e78c85c76b62e6f0985170488ac2bb70d000000000017a914a714974bbe20d77b850827fd429eae423f2bb46a8772c20c00000000001976a91490eba941337d69e52c3b64a3bce6c70a198f189b88ac76990c00000000001976a914712a885c2cf09c32cc4d3b54b79e86f57a00f31288acfa390d00000000001976a914bcf04e8f7ec75216a04db4710c4193f7c3b3500288acd93d0d00000000001976a9142cf26133fcd5829127e70fbd033251c57851eee088ac042d0d00000000001976a914e4be5726b668a9ad26f555223d6af9aa4aa868e088ac0a8b0d00000000001976a914b7db837694925900534f83ca91e3222d30c2f3b988acf6d50b00000000001976a914cb8e3d00966ff9ebb53582ec40916d6e81ea8fd288ac3a270d00000000001976a914b227d06dfc48403097c25e324a46dd977c4d09d188ac08c00b00000000001976a914068536882f50e2d8e9448244914e5a8f79ce8dcb88ac5d100d00000000001976a9145f8dd53a56066f8ca67fe94d8613f58382f2d2e088aca6a10c00000000001976a9149cbc10d67e037522b7bcb8ee84b4bd2b2f25b47888ac4b6a0d000000000017a914cfdd11fab6cb75d56b6fa301c87197d6c28b7db887b3030c00000000001976a914333aebc67f3e16e62dffca916c2f1735a6f364ab88ac26700d000000000017a914e3730638fff1b992f06ef2a1fb75e97719197b3687723a0c00000000001976a914fab978e6fad35026537c97dba039e62a3fda475488acbc580d00000000001976a91494bb37240dcfc16a37c183e9bb7f7682068c7b8b88acc5bf0b00000000001976a914636d7c50d8611964931b16f25672d294b19dec9788ac268c0b00000000001976a9141c5530eb721a3a0149253bc004f217d32a09f11c88ace0d40d00000000001976a9141abf06592ff131688c6e9cf101f59376dab9778b88ac3b3f0d000000000017a9144cc855a70efae56acf5dc1db5b1b64fc593554c687f8250d000000000017a91441fa3b7930151008bfdf31bbaf3a92ef4143b4f987c9d50d00000000001976a9149ea15038d7d5dd26061b459d07e8a42d532171a188ac8ee10b00000000001976a914852a40d3f4ad2a83137d694d961a0ccbdd1d048588accb0e0c00000000001976a914973d26d5dcef7fe43e7362d2c5af5ba95c7e89c288acde810b000000000017a91462112438f28537e1b48e2b778215410ab200cce487589b0d00000000001976a914940c61f017005cec50f040c5431d33fd9047c4d288acc4630d000000000017a914ef047965103ab7646c91f13d59dcc72f5bb27284870a890b00000000001976a91401dffd29b776532b56a4b3bc32ed04a69173888b88ac407b0c00000000001976a914a4478acd3b3aee72495eda29382ce1aa228e9fd788acf0850b000000000017a9140acac9efc2e272222a1a8d78ecc1bb384da7baee8760680b000000000017a914952a7064737fa3f5b2ce07584683e9e4872edb4787ce670b00000000001976a9141a548c7d7076b13df1a85cf1ce990a965285d68c88ac88880b000000000017a914159c3bf587b88c6b16b0832be7a71dbd44ef0ce88720d70d000000000017a914619d4842583201357a6eede303241e43feab18bd8796100d00000000001976a9141f7bd6ae514665036557349e508320edf02ec54f88ac593d0d000000000017a9147d11d8f327883b4ee6677fc0554303404311c30e87016a0c00000000001976a9147f16f063d101530ccf89cb5e50effcb3ac58aa7a88acbc600d000000000017a9140dd88bf0fd24c9315831e772913f2fd2dc1e57be8787d30c00000000001976a91491a667c4677edea77f81f391c19b3b7ebb615ab388ac794e0c00000000001976a91474c6fa64d46038bd623436474817bce062d57dd688acf4850d00000000001976a914737a684857afc89127b70959acda8c93374a8e3d88ac691a0d00000000001976a91432617e3b31bf24b24a23e25eee564c16b201b29588acd7e40c00000000001976a91428018972a828613d4b5d0f5a2a75fda81559312088accb4c0d00000000001976a91432e655a3135f20149e3d2b9018d891062d8d35d688ac06e00b000000000017a914f7ebae9e6dec345ed420c9da930ce0645bda60ee8787af0d00000000001976a914025187d23230480e96d52afaa3958734b8626f1888acf22a0d00000000001976a914f6c0f2085616dc8b19255c98893979cf8adff20588ac22700c00000000001976a914e7f504b64053bda7c65e3320570a0669f71406ee88ac02ca0d00000000001976a914dfe487412084a258361d72b238f786b75be8917e88ac29040c00000000001976a914b38ac9401c57e4e79b179ae318c0aacb8698591488acd3da0c00000000001976a914c5277ac8dfa3ce4e0f929f18229b00401ea82e7b88ac31030d00000000001976a91464bf21530a448da07a9b16d7b391eaecec63a62188ac784e0c00000000001976a914c3bbe790ed86eefba26a4f9fb7cddffde846f94988ac21370d00000000001976a914606d5bf44c8cfe7fee6e086645a6087b3edb640688acb0740d00000000001976a91490dbcb95de4eeb18327c26cea469914b8643507f88ace7b20c000000000017a914235f67583af782d560e404b6f00314348602637e877d3f0d00000000001976a9148ae3ce7c2073dadc4689d501eb1d88509826f18288acecde0b00000000001976a914025af19c1e9a9d98ac4e081f1081edc9487145b488ac49a70b000000000017a914f6d9d2982c97986b19af40636e16facf557a1aeb875f780c00000000001976a91495e1b209457cd66e74f633dd3c2ae10fd44654de88ac30c20b00000000001976a9140b9ae7c583dd804ea0920bfe9c838d938e7b3eef88acc1230c000000000017a91439f4b854005a8ff9dc1caa7574b04a2983b9288b871f570c000000000017a914b0cda9737a04ac8a7985fdc24810848b6fdb872a87c6c10d00000000001976a9146248b79821170b943b6b6ef2135f6598890478bf88ac07910b00000000001976a914ef16c076e7877b9f208351b328dc9b8c3ee03b4f88ac0c310e000000000017a914c6d5461a61b221cb913c9853f36b30adaa17c35c8799e00c000000000017a91477c909ba6cd9de50ad3c0b6bdd676c9a6488fae787c5310c00000000001976a91439c275631432d28ead3595f9cbff466660493d4588ac5f5f0b00000000001976a9146975322227371b81f5aa664226870b157a2eaa8988ac2d7c0d00000000001976a914b3f73161683c8e0ce58f976c469d4247d412ade788acb5870c00000000001976a914a24d2b34d65584f2c834f223ef787afd430fb4a588acd909be01000000001976a914959e649643ca07518913020658dc4857502691aa88acb7a20d00000000001976a9147f0e32f1f9bcb9d484474815ed208381961d488f88ac4cb20b00000000001976a914d921ccbd928ff84d06a2b91f736002b5736cd07588ac59b30d000000000017a914f59203ed0842a9bdca8be878ec6ce30727a07a8787dd570c000000000017a914875d75c8af6338ee2e1494a6e380635ebf712ff0878f440c00000000001976a914bd6d84c33118a872560b0afd61adec9a28b6b99f88acdcf90b00000000001976a914ce53ea02ee673f8a92b7e6831768853ddb71f14088aceb760b00000000001976a914963940e83bde307d0e5ed15639438c8fdece602988acd5750d00000000001976a91405b8c7b5819422504ae29c105a8ca6d21ab4e34388acf7540d000000000017a914f563610856bb605fc880df434f8b6b8ba98b869a874eed0c000000000017a914742386c929e34540c2dddfad14272ed52d21a6b38758740c00000000001976a914e33cbf8ff067c8f690f511239c1ac4b6b5eea5bc88ac15be0c000000000017a9148a7e6f9b124a5a9bd277541433a2462adad05d35874ca90d00000000001976a914397a7bd046d06e10531d501aa4d71894cbdb210888ac82930d00000000001976a9143834664bddb0ea6f64d77c9e2cc4a931d997ef8488acc6550b000000000017a91456c125824b755a8eea2d9a648c3dbac562a30dfb87b6ff0c000000000017a914310f86a74a26341e677da0f5c85a6ef6f6fe31288767420c000000000017a9142f758dbd242e95c0f35f4cbaebd8f838e0c14bd48739880d00000000001976a914e385239a1465162a04358ed7005c25099ecbb8c088acafeb0c00000000001976a914e1326198705efda7bb64f60754c4d3deea9fad6188ac3e380d00000000001976a914e8f4297d85d146939bc879e8d2995969a813bf1a88ac10490800", "vin": [{"sequence": 4294967294, "scriptSig": {"hex": "473044022068abb82ee03744b3c7bd6adbda9b638858594c4332a3f4ea9403506e4c32e61702202576fe5c08990517e6b638a7850e63b78dfb36372ec2bcb2b3351ff5002c585a0121026f20b5225618c5ed9487ad9f86bc50b950b84e3d095f6fdc9d3f15f1d52b74cd", "asm": "3044022068abb82ee03744b3c7bd6adbda9b638858594c4332a3f4ea9403506e4c32e61702202576fe5c08990517e6b638a7850e63b78dfb36372ec2bcb2b3351ff5002c585a[ALL] 026f20b5225618c5ed9487ad9f86bc50b950b84e3d095f6fdc9d3f15f1d52b74cd"}, "vout": 49, "txid": "d2ddb173644a549a1cc9553abc7da136ef697e9dac5f244e77eadb2629dc5096"}], "txid": "6165f86f21ee606a35f047bb4fbaec11c96c9f4daad1653e21c4624e0105099f", "blocktime": 1537871767, "version": 2, "confirmations": 11495, "time": 1537871767, "locktime": 542992, "vsize": 3533, "size": 3533}