{"hash": "6169fe2c8d3c9f9fbd4b974f439f4a536f89a81d2372a68b3356aef6ba950b1e", "blockhash": "00000000000000000018f53835495a110e01622372bf6ae95dc86f2b0ab887b0", "vout": [{"scriptPubKey": {"reqSigs": 1, "hex": "76a914bc93e11068cf427ba239db61851332796e19a77188ac", "addresses": ["1JC7BtWQaB5SwUsJ5ATFqdGNRRavLi8FjV"], "asm": "OP_DUP OP_HASH160 bc93e11068cf427ba239db61851332796e19a771 OP_EQUALVERIFY OP_CHECKSIG", "type": "pubkeyhash"}, "value": 0.00645794, "n": 0}, {"scriptPubKey": {"type": "nulldata", "hex": "6a4c500000778300018d0e4b8480c3760be3482f9fbcbefa6b8351586b4e86aeaeacb577c031fcbf9685f44edba6d090cfe8b93772ae485baa0b330613e474811138c01d100759d4ba30d2c37bb011d97e02cf", "asm": "OP_RETURN 0000778300018d0e4b8480c3760be3482f9fbcbefa6b8351586b4e86aeaeacb577c031fcbf9685f44edba6d090cfe8b93772ae485baa0b330613e474811138c01d100759d4ba30d2c37bb011d97e02cf"}, "value": 0.0, "n": 1}], "hex": "0100000001a5b1ce0e49a69a98d4cb33efac8caf0397a50a5e7790ff9fae49a4d6ec318b90000000006b483045022100ba93abdcf1ee27a132da8494ded9d35806108facb92118edd4561bed1adcf53002200a4a69df90b3ef81be845ceb1165fc2c4b6336c689497747885b8425909fc30901210243b886f2a5a90701df083ffa647772f0a6f98b57194a93ea12aba4edba676da8ffffffff02a2da0900000000001976a914bc93e11068cf427ba239db61851332796e19a77188ac0000000000000000536a4c500000778300018d0e4b8480c3760be3482f9fbcbefa6b8351586b4e86aeaeacb577c031fcbf9685f44edba6d090cfe8b93772ae485baa0b330613e474811138c01d100759d4ba30d2c37bb011d97e02cf00000000", "vin": [{"sequence": 4294967295, "scriptSig": {"hex": "483045022100ba93abdcf1ee27a132da8494ded9d35806108facb92118edd4561bed1adcf53002200a4a69df90b3ef81be845ceb1165fc2c4b6336c689497747885b8425909fc30901210243b886f2a5a90701df083ffa647772f0a6f98b57194a93ea12aba4edba676da8", "asm": "3045022100ba93abdcf1ee27a132da8494ded9d35806108facb92118edd4561bed1adcf53002200a4a69df90b3ef81be845ceb1165fc2c4b6336c689497747885b8425909fc309[ALL] 0243b886f2a5a90701df083ffa647772f0a6f98b57194a93ea12aba4edba676da8"}, "vout": 0, "txid": "908b31ecd6a449ae9fff90775e0aa59703af8cacef33cbd4989aa6490eceb1a5"}], "txid": "6169fe2c8d3c9f9fbd4b974f439f4a536f89a81d2372a68b3356aef6ba950b1e", "blocktime": 1537870928, "version": 1, "confirmations": 11512, "time": 1537870928, "locktime": 0, "vsize": 284, "size": 284}