{"hash": "63902c8f985e3934c35bf119d224037e8c239a7ec549cd110984ddf851ffae48", "blockhash": "0000000000000000001f0ddff1eddb255c1121bcd4da4f1bc9a0da00cae72433", "vout": [{"scriptPubKey": {"reqSigs": 1, "hex": "76a91467f555a4f47ee1279e34d50c68233d4211716fde88ac", "addresses": ["1AUgVuJcCBUAB1pcZ7rc6dHDkvi1cRj5sV"], "asm": "OP_DUP OP_HASH160 67f555a4f47ee1279e34d50c68233d4211716fde OP_EQUALVERIFY OP_CHECKSIG", "type": "pubkeyhash"}, "value": 0.2342139, "n": 0}, {"scriptPubKey": {"reqSigs": 1, "hex": "76a91485e978926d77a0ea8fe2986b31d4f24ff5bf9e4c88ac", "addresses": ["1DD4ZMzB8iCGBadbNs8jaoFJCs8U1KwiLB"], "asm": "OP_DUP OP_HASH160 85e978926d77a0ea8fe2986b31d4f24ff5bf9e4c OP_EQUALVERIFY OP_CHECKSIG", "type": "pubkeyhash"}, "value": 0.26703354, "n": 1}, {"scriptPubKey": {"reqSigs": 1, "hex": "a914b9dd0987a28fa01405eb01026ca7ec7cb96c4e1087", "addresses": ["3Jdmiy6sHuKDcFvgYkVi8H8uxbfe1M2HDX"], "asm": "OP_HASH160 b9dd0987a28fa01405eb01026ca7ec7cb96c4e10 OP_EQUAL", "type": "scripthash"}, "value": 1.06269846, "n": 2}], "hex": "01000000000101e9fa6b97ef7cdb913a26f62cc7f1e9904fe2f609041c7aceef8f0c84ace66a4201000000171600142e8d0f43b3396b7e80bba09422e99fe8a9457002ffffffff03ce616501000000001976a91467f555a4f47ee1279e34d50c68233d4211716fde88acfa759701000000001976a91485e978926d77a0ea8fe2986b31d4f24ff5bf9e4c88ac968c55060000000017a914b9dd0987a28fa01405eb01026ca7ec7cb96c4e108702483045022100b7b3538a92bb76681142a60bd577cd6eeb106c1c85a11582e67a2ae30976a4490220097ab02fcfe8aebbc3bcf7195b84de970b9c414e26f2a5f044092cd231d641c8012103137dde82ea149b7db3bbc5741e6d8ffca9369c39814c76307d45d2656de473b300000000", "vin": [{"txinwitness": ["3045022100b7b3538a92bb76681142a60bd577cd6eeb106c1c85a11582e67a2ae30976a4490220097ab02fcfe8aebbc3bcf7195b84de970b9c414e26f2a5f044092cd231d641c801", "03137dde82ea149b7db3bbc5741e6d8ffca9369c39814c76307d45d2656de473b3"], "sequence": 4294967295, "scriptSig": {"hex": "1600142e8d0f43b3396b7e80bba09422e99fe8a9457002", "asm": "00142e8d0f43b3396b7e80bba09422e99fe8a9457002"}, "vout": 1, "txid": "426ae6ac840c8fefce7a1c0409f6e24f90e9f1c72cf6263a91db7cef976bfae9"}], "txid": "616b03001814cf7a4d9bdab8ed8857e0c1f1e7561e9b6e83c9e8b299cbdb82b0", "blocktime": 1537872018, "version": 1, "confirmations": 11489, "time": 1537872018, "locktime": 0, "vsize": 202, "size": 284}