{"hash": "616f9db230fbf33971a3494e7f3613ab2c822fc141969f9e7d54df8909447fa0", "blockhash": "0000000000000000000dcc0f55137456b1a82d3642486a52398922ac4d620174", "vout": [{"scriptPubKey": {"reqSigs": 1, "hex": "76a91463786afad7d97dac8c0fbcaafa62b8508a05d03c88ac", "addresses": ["1A4x9mq1daybaQaFiEUz6RhhZfx9WrFgqT"], "asm": "OP_DUP OP_HASH160 63786afad7d97dac8c0fbcaafa62b8508a05d03c OP_EQUALVERIFY OP_CHECKSIG", "type": "pubkeyhash"}, "value": 0.014829, "n": 0}, {"scriptPubKey": {"type": "nulldata", "hex": "6a4c500000776c0001ab806348ac0458a304e2218a86aeaeacb577c031fc3a016b46dc7dc7d096c53662e1a68b38bd2bb20a9e62968ad45baa0878061399fb5ed936abbc9a9526289ac0f6612cd74e33776ee4", "asm": "OP_RETURN 0000776c0001ab806348ac0458a304e2218a86aeaeacb577c031fc3a016b46dc7dc7d096c53662e1a68b38bd2bb20a9e62968ad45baa0878061399fb5ed936abbc9a9526289ac0f6612cd74e33776ee4"}, "value": 0.0, "n": 1}], "hex": "0100000001c7cabe6ac325066443296fb80eb9b14c58922906cb6bc420c3fc5d30fe0780be010000006b4830450221008f13eedf1c1dd564160f0e6fb78dc71c27c802480a93cdbc66d4621c26f8a03f022037047f94c15eba4bd4fb7fd00261edb4f2dc4cad532718e5e2a95343a93121a30121027c3f14cff52871a065f2098da525968c4f6968b07980161b0c844a26c51d9722ffffffff0294a01600000000001976a91463786afad7d97dac8c0fbcaafa62b8508a05d03c88ac0000000000000000536a4c500000776c0001ab806348ac0458a304e2218a86aeaeacb577c031fc3a016b46dc7dc7d096c53662e1a68b38bd2bb20a9e62968ad45baa0878061399fb5ed936abbc9a9526289ac0f6612cd74e33776ee400000000", "vin": [{"sequence": 4294967295, "scriptSig": {"hex": "4830450221008f13eedf1c1dd564160f0e6fb78dc71c27c802480a93cdbc66d4621c26f8a03f022037047f94c15eba4bd4fb7fd00261edb4f2dc4cad532718e5e2a95343a93121a30121027c3f14cff52871a065f2098da525968c4f6968b07980161b0c844a26c51d9722", "asm": "30450221008f13eedf1c1dd564160f0e6fb78dc71c27c802480a93cdbc66d4621c26f8a03f022037047f94c15eba4bd4fb7fd00261edb4f2dc4cad532718e5e2a95343a93121a3[ALL] 027c3f14cff52871a065f2098da525968c4f6968b07980161b0c844a26c51d9722"}, "vout": 1, "txid": "be8007fe305dfcc320c46bcb062992584cb1b90eb86f2943640625c36abecac7"}], "txid": "616f9db230fbf33971a3494e7f3613ab2c822fc141969f9e7d54df8909447fa0", "blocktime": 1537870268, "version": 1, "confirmations": 11518, "time": 1537870268, "locktime": 0, "vsize": 284, "size": 284}