{"hash": "6179390ca5602d707b31d6282c40b020b8faee14a8724704615ca7274f67ff60", "blockhash": "0000000000000000001f0ddff1eddb255c1121bcd4da4f1bc9a0da00cae72433", "vout": [{"scriptPubKey": {"reqSigs": 1, "hex": "a914813380bc46c08f1ffb3a6e442f8a91b1214ed17c87", "addresses": ["3DUAnmk12napvHkebSNGgNynTzPN9Ycuo4"], "asm": "OP_HASH160 813380bc46c08f1ffb3a6e442f8a91b1214ed17c OP_EQUAL", "type": "scripthash"}, "value": 0.01641, "n": 0}, {"scriptPubKey": {"reqSigs": 1, "hex": "76a91444c6e3c026e85fcc13afac4aae1d060daf4e20c588ac", "addresses": ["17GfD96qvfevYgPHB7SP44b4ZBKocUQ4Zt"], "asm": "OP_DUP OP_HASH160 44c6e3c026e85fcc13afac4aae1d060daf4e20c5 OP_EQUALVERIFY OP_CHECKSIG", "type": "pubkeyhash"}, "value": 0.56357488, "n": 1}], "hex": "0100000001a0f59a87cbb81f0b5d34cba8e294bb4652cc32618cf974baa24ff4e4684d62db000000006a47304402201a9a190b4bb5ade2c8c559a40b770a0356350ce3275cd0a4e4b483da9679b1060220523691b3be4b491d309c03a98e2c22de7a86ef3b060d0c0d02a7d4b0379d474c0121020eef9f0fd0f3643950a7c063398d58c4c02f8e1b50e747aeae967208bbee5c62ffffffff02280a19000000000017a914813380bc46c08f1ffb3a6e442f8a91b1214ed17c8770f25b03000000001976a91444c6e3c026e85fcc13afac4aae1d060daf4e20c588ac00000000", "vin": [{"sequence": 4294967295, "scriptSig": {"hex": "47304402201a9a190b4bb5ade2c8c559a40b770a0356350ce3275cd0a4e4b483da9679b1060220523691b3be4b491d309c03a98e2c22de7a86ef3b060d0c0d02a7d4b0379d474c0121020eef9f0fd0f3643950a7c063398d58c4c02f8e1b50e747aeae967208bbee5c62", "asm": "304402201a9a190b4bb5ade2c8c559a40b770a0356350ce3275cd0a4e4b483da9679b1060220523691b3be4b491d309c03a98e2c22de7a86ef3b060d0c0d02a7d4b0379d474c[ALL] 020eef9f0fd0f3643950a7c063398d58c4c02f8e1b50e747aeae967208bbee5c62"}, "vout": 0, "txid": "db624d68e4f44fa2ba74f98c6132cc5246bb94e2a8cb345d0b1fb8cb879af5a0"}], "txid": "6179390ca5602d707b31d6282c40b020b8faee14a8724704615ca7274f67ff60", "blocktime": 1537872018, "version": 1, "confirmations": 11489, "time": 1537872018, "locktime": 0, "vsize": 223, "size": 223}