{"hash": "617b8f16ff42079b208a65c4e4435eaef0f355131787f9b9c23c41b9f19ec29b", "blockhash": "00000000000000000017f5eb5941039fbcee6240d03bc1f2f8e35350df66a1d8", "vout": [{"scriptPubKey": {"reqSigs": 1, "hex": "76a914513d9057450310969291a801aa7bc875b882b97b88ac", "addresses": ["18QZV4xgQ6kX8YxL2SNGrRjKqpQNb5383i"], "asm": "OP_DUP OP_HASH160 513d9057450310969291a801aa7bc875b882b97b OP_EQUALVERIFY OP_CHECKSIG", "type": "pubkeyhash"}, "value": 0.00499387, "n": 0}, {"scriptPubKey": {"type": "nulldata", "hex": "6a146f6d6e69000000000000001f00000053374327db", "asm": "OP_RETURN 6f6d6e69000000000000001f00000053374327db"}, "value": 0.0, "n": 1}, {"scriptPubKey": {"reqSigs": 1, "hex": "76a914a25dec4d0011064ef106a983c39c7a540699f22088ac", "addresses": ["1FoWyxwPXuj4C6abqwhjDWdz6D4PZgYRjA"], "asm": "OP_DUP OP_HASH160 a25dec4d0011064ef106a983c39c7a540699f220 OP_EQUALVERIFY OP_CHECKSIG", "type": "pubkeyhash"}, "value": 5.46e-06, "n": 2}], "hex": "01000000023a4c1d798db6bc890731bb89fb16f82f1d6cbe6a01b7d47d30c65bc3d1988db3030000006a47304402205c19d4de9395f5e94ffd2bc8953a5e94ccd9d2c69e680ce6948a3b6586db683e02201eef27aed42cb321295649bd017b2fdc3c561e30ec4b135b8c22a91323277e7801210254d2a725c8b0f7ed0564ce96979b0a59b930538666a6427710c2ad7b1a7f88c7feffffff3545bb572566f641f77748821b605c1d133f93765d999b56d99d614f43fc9eb6020000006b483045022100e08cd5b6e68fe3d26d99989c4e0e14e0bd444028811720b98f5bf5e1f51e37ed02207941ccdcb84a34c6149d49bf21765a3cbf6aa658f35d78a2016924bf02b4fc6601210254d2a725c8b0f7ed0564ce96979b0a59b930538666a6427710c2ad7b1a7f88c7feffffff03bb9e0700000000001976a914513d9057450310969291a801aa7bc875b882b97b88ac0000000000000000166a146f6d6e69000000000000001f00000053374327db22020000000000001976a914a25dec4d0011064ef106a983c39c7a540699f22088ac15490800", "vin": [{"sequence": 4294967294, "scriptSig": {"hex": "47304402205c19d4de9395f5e94ffd2bc8953a5e94ccd9d2c69e680ce6948a3b6586db683e02201eef27aed42cb321295649bd017b2fdc3c561e30ec4b135b8c22a91323277e7801210254d2a725c8b0f7ed0564ce96979b0a59b930538666a6427710c2ad7b1a7f88c7", "asm": "304402205c19d4de9395f5e94ffd2bc8953a5e94ccd9d2c69e680ce6948a3b6586db683e02201eef27aed42cb321295649bd017b2fdc3c561e30ec4b135b8c22a91323277e78[ALL] 0254d2a725c8b0f7ed0564ce96979b0a59b930538666a6427710c2ad7b1a7f88c7"}, "vout": 3, "txid": "b38d98d1c35bc6307dd4b7016abe6c1d2ff816fb89bb310789bcb68d791d4c3a"}, {"sequence": 4294967294, "scriptSig": {"hex": "483045022100e08cd5b6e68fe3d26d99989c4e0e14e0bd444028811720b98f5bf5e1f51e37ed02207941ccdcb84a34c6149d49bf21765a3cbf6aa658f35d78a2016924bf02b4fc6601210254d2a725c8b0f7ed0564ce96979b0a59b930538666a6427710c2ad7b1a7f88c7", "asm": "3045022100e08cd5b6e68fe3d26d99989c4e0e14e0bd444028811720b98f5bf5e1f51e37ed02207941ccdcb84a34c6149d49bf21765a3cbf6aa658f35d78a2016924bf02b4fc66[ALL] 0254d2a725c8b0f7ed0564ce96979b0a59b930538666a6427710c2ad7b1a7f88c7"}, "vout": 2, "txid": "b69efc434f619dd9569b995d76933f131d5c601b824877f741f6662557bb4535"}], "txid": "617b8f16ff42079b208a65c4e4435eaef0f355131787f9b9c23c41b9f19ec29b", "blocktime": 1537874412, "version": 1, "confirmations": 11468, "time": 1537874412, "locktime": 542997, "vsize": 404, "size": 404}