{"hash": "617b9b2c16d58a6a3e1ee5f6b39de2752b3291c6a703c77a47ff149be55bb68b", "blockhash": "0000000000000000001cda96e906b7601b7a6fb1a3b62bca570a9e5d8f4b3de1", "vout": [{"scriptPubKey": {"type": "nulldata", "hex": "6a4c50000077c2000127bf8044c92b98c2e7e936e2e5bf9ae76da98a211aaf6c953dd567cf27e798c5eb9fa6bbd974d69c74e697ce49a45baa12ca061327b08babefeabc9a9526289ac0f6612cd74e33776ee4", "asm": "OP_RETURN 000077c2000127bf8044c92b98c2e7e936e2e5bf9ae76da98a211aaf6c953dd567cf27e798c5eb9fa6bbd974d69c74e697ce49a45baa12ca061327b08babefeabc9a9526289ac0f6612cd74e33776ee4"}, "value": 0.0, "n": 0}, {"scriptPubKey": {"reqSigs": 1, "hex": "76a914d3e14eeaeb69ebd8b6bc0a902b3978fe2d1aaa2e88ac", "addresses": ["1LKKVAptd4xoo499spRMMFPyEEZWBmJxgT"], "asm": "OP_DUP OP_HASH160 d3e14eeaeb69ebd8b6bc0a902b3978fe2d1aaa2e OP_EQUALVERIFY OP_CHECKSIG", "type": "pubkeyhash"}, "value": 0.0147606, "n": 1}], "hex": "01000000013a722e80265063ae1e673d7e88cc34ac65e293e24cc705ab37be089e3633e100000000006b483045022100d59168731691ca2a0bf3b4d26b5b2e58e55100e7b32b6ad16b851cccf7b82f59022067fde5bdb411e86346f70b39c153869ac54fa064716c5d64772a946c4ce078a9012102a28aeee13e7c2d3d463cfeeacdd54582568f3f0a43aadb87901ca11fafbb82d7ffffffff020000000000000000536a4c50000077c2000127bf8044c92b98c2e7e936e2e5bf9ae76da98a211aaf6c953dd567cf27e798c5eb9fa6bbd974d69c74e697ce49a45baa12ca061327b08babefeabc9a9526289ac0f6612cd74e33776ee4dc851600000000001976a914d3e14eeaeb69ebd8b6bc0a902b3978fe2d1aaa2e88ac00000000", "vin": [{"sequence": 4294967295, "scriptSig": {"hex": "483045022100d59168731691ca2a0bf3b4d26b5b2e58e55100e7b32b6ad16b851cccf7b82f59022067fde5bdb411e86346f70b39c153869ac54fa064716c5d64772a946c4ce078a9012102a28aeee13e7c2d3d463cfeeacdd54582568f3f0a43aadb87901ca11fafbb82d7", "asm": "3045022100d59168731691ca2a0bf3b4d26b5b2e58e55100e7b32b6ad16b851cccf7b82f59022067fde5bdb411e86346f70b39c153869ac54fa064716c5d64772a946c4ce078a9[ALL] 02a28aeee13e7c2d3d463cfeeacdd54582568f3f0a43aadb87901ca11fafbb82d7"}, "vout": 0, "txid": "00e133369e08be37ab05c74ce293e265ac34cc887e3d671eae635026802e723a"}], "txid": "617b9b2c16d58a6a3e1ee5f6b39de2752b3291c6a703c77a47ff149be55bb68b", "blocktime": 1537873282, "version": 1, "confirmations": 11484, "time": 1537873282, "locktime": 0, "vsize": 284, "size": 284}