{"hash": "ba59ca0cc763b7d02598a67ad52f858983777231ec30f467305d6119b2076a6c", "blockhash": "00000000000000000018f53835495a110e01622372bf6ae95dc86f2b0ab887b0", "vout": [{"scriptPubKey": {"reqSigs": 1, "hex": "a9140da3bb3b0d02f363bd08a9a46403eb33e29a33d387", "addresses": ["32w8rHvRxUQXHXZSkzVHRQL3sDc1wAAftU"], "asm": "OP_HASH160 0da3bb3b0d02f363bd08a9a46403eb33e29a33d3 OP_EQUAL", "type": "scripthash"}, "value": 0.00373866, "n": 0}, {"scriptPubKey": {"reqSigs": 1, "hex": "a914c3aac73b19a6df3a3a68ef69a8e9f79c8dff9a9c87", "addresses": ["3KXcGqASXznMituPhPnV7BkSc6CHZRLykC"], "asm": "OP_HASH160 c3aac73b19a6df3a3a68ef69a8e9f79c8dff9a9c OP_EQUAL", "type": "scripthash"}, "value": 0.00137518, "n": 1}], "hex": "01000000000102f9e39c668178e05085a1ef39303e88308adba8d17fe67a3bc0c13404f626416301000000232200200b5c15b2a266c1fd9e615145cf3cd379109fe761c2844ebebbc12b381bddc9faffffffffd76f69c7370ace7128dd36ae6b8f8742d5366a79e605abc5870fd3c797963d0201000000232200200b5c15b2a266c1fd9e615145cf3cd379109fe761c2844ebebbc12b381bddc9faffffffff026ab405000000000017a9140da3bb3b0d02f363bd08a9a46403eb33e29a33d3872e1902000000000017a914c3aac73b19a6df3a3a68ef69a8e9f79c8dff9a9c870400483045022100a61a2652151593a26c189c656ef2c9599889a5be220d10fd380e2bb12a83e21402202e52c60afef28b1686c357f993e7c405f3dd930841271079a90ca6ed55e43e3e0147304402203edff2417e217a02ee8e4371c1b35954bf77e9932d5e5cfadaf11997a1392a980220049128602ea21a36394fe05fd15f5051fcbd942045b3c613dcc5db346ba4ec240147522102b590b6826675da568b914aa494372424b69f5fe06067fd7fa568cc41070c8e6b21024c55499905a522129124e75484b7ddea868aee9a7f01d75add901db6cf9b589f52ae0400483045022100aab0be4b15e0edfb0923a80f1d56898cff445866738885eba6f690b533cf8e3b022047b04b6846c29a776d9333c1344da927fb2151923aa77b554c02b8640629624c014730440220520a628c1f4dd8e947f813265aced92b68eac69174059e23bc67d151ae67be5e02205fec7da85f3acc1990493a8e83305011ae3ee885a9ff58ef7b01431cb2e613770147522102b590b6826675da568b914aa494372424b69f5fe06067fd7fa568cc41070c8e6b21024c55499905a522129124e75484b7ddea868aee9a7f01d75add901db6cf9b589f52ae00000000", "vin": [{"txinwitness": ["", "3045022100a61a2652151593a26c189c656ef2c9599889a5be220d10fd380e2bb12a83e21402202e52c60afef28b1686c357f993e7c405f3dd930841271079a90ca6ed55e43e3e01", "304402203edff2417e217a02ee8e4371c1b35954bf77e9932d5e5cfadaf11997a1392a980220049128602ea21a36394fe05fd15f5051fcbd942045b3c613dcc5db346ba4ec2401", "522102b590b6826675da568b914aa494372424b69f5fe06067fd7fa568cc41070c8e6b21024c55499905a522129124e75484b7ddea868aee9a7f01d75add901db6cf9b589f52ae"], "sequence": 4294967295, "scriptSig": {"hex": "2200200b5c15b2a266c1fd9e615145cf3cd379109fe761c2844ebebbc12b381bddc9fa", "asm": "00200b5c15b2a266c1fd9e615145cf3cd379109fe761c2844ebebbc12b381bddc9fa"}, "vout": 1, "txid": "634126f60434c1c03b7ae67fd1a8db8a30883e3039efa18550e07881669ce3f9"}, {"txinwitness": ["", "3045022100aab0be4b15e0edfb0923a80f1d56898cff445866738885eba6f690b533cf8e3b022047b04b6846c29a776d9333c1344da927fb2151923aa77b554c02b8640629624c01", "30440220520a628c1f4dd8e947f813265aced92b68eac69174059e23bc67d151ae67be5e02205fec7da85f3acc1990493a8e83305011ae3ee885a9ff58ef7b01431cb2e6137701", "522102b590b6826675da568b914aa494372424b69f5fe06067fd7fa568cc41070c8e6b21024c55499905a522129124e75484b7ddea868aee9a7f01d75add901db6cf9b589f52ae"], "sequence": 4294967295, "scriptSig": {"hex": "2200200b5c15b2a266c1fd9e615145cf3cd379109fe761c2844ebebbc12b381bddc9fa", "asm": "00200b5c15b2a266c1fd9e615145cf3cd379109fe761c2844ebebbc12b381bddc9fa"}, "vout": 1, "txid": "023d9697c7d30f87c5ab05e6796a36d542878f6bae36dd2871ce0a37c7696fd7"}], "txid": "617c28c2825e1a8fa294e5b578b1b8e64ffea608f190874a122b15cfadcddbbc", "blocktime": 1537870928, "version": 1, "confirmations": 11512, "time": 1537870928, "locktime": 0, "vsize": 336, "size": 666}