{"hash": "8d87183ff16f0de10e1d6bf3d172b5fb3db0bb8aef1d5ecb1c16145f4a892045", "blockhash": "0000000000000000000baef3f32e3676a92c3b2e5da21b426e4f302fc371ce76", "vout": [{"scriptPubKey": {"reqSigs": 1, "hex": "a91473526abcaa73f1ff18ac04349af2d42865816ed987", "addresses": ["3CCnN2uhuRk8S65csPYtwAZf56F2Zzgkd4"], "asm": "OP_HASH160 73526abcaa73f1ff18ac04349af2d42865816ed9 OP_EQUAL", "type": "scripthash"}, "value": 0.03816421, "n": 0}], "hex": "02000000000101d1967676a73c1aed88d1284295b68a17d012a0a6bdbffad347d0ae4bc2a0761801000000171600143695d63069abf070cfd759822387230cb75681faffffffff01e53b3a000000000017a91473526abcaa73f1ff18ac04349af2d42865816ed98702483045022100e3022d41fed27d0095109cfe033e2a401f77200a0f32efa2c19e3577ffd39dcb02206cc58a32ed5f2abdf282fe7ee629f0395573c80213bc9ff4f6e5649fc2ee356a0121023f9b628a0a3c47dfec5ae34ae6d5a9ba020a143181e59417143cd511f69668a800000000", "vin": [{"txinwitness": ["3045022100e3022d41fed27d0095109cfe033e2a401f77200a0f32efa2c19e3577ffd39dcb02206cc58a32ed5f2abdf282fe7ee629f0395573c80213bc9ff4f6e5649fc2ee356a01", "023f9b628a0a3c47dfec5ae34ae6d5a9ba020a143181e59417143cd511f69668a8"], "sequence": 4294967295, "scriptSig": {"hex": "1600143695d63069abf070cfd759822387230cb75681fa", "asm": "00143695d63069abf070cfd759822387230cb75681fa"}, "vout": 1, "txid": "1876a0c24baed047d3fabfbda6a012d0178ab6954228d188ed1a3ca7767696d1"}], "txid": "6182e39fa2007ae436d95861cd161a819bee8c2cd1fcfca7690b3e8b8bfec511", "blocktime": 1537876114, "version": 2, "confirmations": 11459, "time": 1537876114, "locktime": 0, "vsize": 134, "size": 216}