{"hash": "74680f1cca45f33b7f57b3ea2431c102b97b7e0f7a835f3702b3821abcbfd3b8", "blockhash": "00000000000000000004ffacab907a6b429b9a5745fa0b75af4234bf69dd7176", "vout": [{"scriptPubKey": {"reqSigs": 1, "hex": "a91408525d20636d1499d125d61bae5eaf94edd6b63f87", "addresses": ["32T1zpA23cTuAJ1kDdNDRmhqu4PRZqFXs9"], "asm": "OP_HASH160 08525d20636d1499d125d61bae5eaf94edd6b63f OP_EQUAL", "type": "scripthash"}, "value": 1.12623684, "n": 0}, {"scriptPubKey": {"reqSigs": 1, "hex": "a914bd549452d425d1934871b80f3c883d65c068d08f87", "addresses": ["3Jx6xUiVFtctac5JSKcahktBSdTdCUPRx6"], "asm": "OP_HASH160 bd549452d425d1934871b80f3c883d65c068d08f OP_EQUAL", "type": "scripthash"}, "value": 10.0938548, "n": 1}], "hex": "020000000001011e49b96e162a2e6eafef2f80e3ae52ee6bf91f6c48eaa865af2e479f5dbd98090100000017160014a4b854a8273986bc56e35117f155fd86db01502afdffffff024480b6060000000017a91408525d20636d1499d125d61bae5eaf94edd6b63f8708002a3c0000000017a914bd549452d425d1934871b80f3c883d65c068d08f8702483045022100a5cbcf9f42094431fcb0cfbace6c5ed57114619427502094aa3dc4d121e92caa02200f71bc981ff7aa91fdb776cc7a633f6ba6c020a3ff5b3a302e262a4200d54c550121029eb03a3f2b95a5ef340dc721e5a00a60297714c985cd425def1cac8f149859f516490800", "vin": [{"txinwitness": ["3045022100a5cbcf9f42094431fcb0cfbace6c5ed57114619427502094aa3dc4d121e92caa02200f71bc981ff7aa91fdb776cc7a633f6ba6c020a3ff5b3a302e262a4200d54c5501", "029eb03a3f2b95a5ef340dc721e5a00a60297714c985cd425def1cac8f149859f5"], "sequence": 4294967293, "scriptSig": {"hex": "160014a4b854a8273986bc56e35117f155fd86db01502a", "asm": "0014a4b854a8273986bc56e35117f155fd86db01502a"}, "vout": 1, "txid": "0998bd5d9f472eaf65a8ea486c1ff96bee52aee3802fefaf6e2e2a166eb9491e"}], "txid": "61895bffc62a07d9f9fe971eb477c2c1a1124a1fff51f8129e23c3e2960c5cc3", "blocktime": 1537875543, "version": 2, "confirmations": 11464, "time": 1537875543, "locktime": 542998, "vsize": 166, "size": 248}