{"hash": "618c9e1e7eeb78fdda59515d956df12ee4c20b7a693c23258902e71cdb4553f9", "blockhash": "0000000000000000000e13cef7c366c0283d82e591d1acd082e914b08063cdf1", "vout": [{"scriptPubKey": {"reqSigs": 1, "hex": "76a914bdf7eeacf61cb3b14479a6e42fda5b180d978a3288ac", "addresses": ["1JKTityBP9tMjfAQgn1ADR3FQ4DcUJ3Pam"], "asm": "OP_DUP OP_HASH160 bdf7eeacf61cb3b14479a6e42fda5b180d978a32 OP_EQUALVERIFY OP_CHECKSIG", "type": "pubkeyhash"}, "value": 0.01077067, "n": 0}, {"scriptPubKey": {"reqSigs": 1, "hex": "a9141e735aed4c818c3831654058465625dc3a79841587", "addresses": ["34U2PKMiqxbafeYPgvP9zHWVYTYjuaVvrp"], "asm": "OP_HASH160 1e735aed4c818c3831654058465625dc3a798415 OP_EQUAL", "type": "scripthash"}, "value": 0.00264438, "n": 1}], "hex": "020000000203647f6e5b40f2e77278ad8278e5d819dbd4d324b722a1d34c9606918abfd221010000006b483045022100ff07f007061bac4a5eef48527e961b7528f52053d9d7589314ec36c22f97975c022075a1b73f08a0b1c27b3e0bc1e4df6a64b0207f8eead8da2ac3cb3fa969125a040121034cae9f73c36fdba7d59847fd7cb9aba2c109d7c883aa90538a3de6bde7f2c47afeffffff21268be0fba5d58760cca5b4dbd19ecfb667400c060ea41b1d6dff8e8a504505000000006a47304402204d3c2692560c4440358c18aba0cb2ec82a2bd83fa8b4876d782e905d8f45f1b102205343454d47a61a6acb0ad150a8cb5779302faf88688f599c3914bedab435aede012102eb026f468fc50b34b0554c72cc832fe91a19904f791b753965506c92e85acbd9feffffff024b6f1000000000001976a914bdf7eeacf61cb3b14479a6e42fda5b180d978a3288acf60804000000000017a9141e735aed4c818c3831654058465625dc3a7984158710490800", "vin": [{"sequence": 4294967294, "scriptSig": {"hex": "483045022100ff07f007061bac4a5eef48527e961b7528f52053d9d7589314ec36c22f97975c022075a1b73f08a0b1c27b3e0bc1e4df6a64b0207f8eead8da2ac3cb3fa969125a040121034cae9f73c36fdba7d59847fd7cb9aba2c109d7c883aa90538a3de6bde7f2c47a", "asm": "3045022100ff07f007061bac4a5eef48527e961b7528f52053d9d7589314ec36c22f97975c022075a1b73f08a0b1c27b3e0bc1e4df6a64b0207f8eead8da2ac3cb3fa969125a04[ALL] 034cae9f73c36fdba7d59847fd7cb9aba2c109d7c883aa90538a3de6bde7f2c47a"}, "vout": 1, "txid": "21d2bf8a9106964cd3a122b724d3d4db19d8e57882ad7872e7f2405b6e7f6403"}, {"sequence": 4294967294, "scriptSig": {"hex": "47304402204d3c2692560c4440358c18aba0cb2ec82a2bd83fa8b4876d782e905d8f45f1b102205343454d47a61a6acb0ad150a8cb5779302faf88688f599c3914bedab435aede012102eb026f468fc50b34b0554c72cc832fe91a19904f791b753965506c92e85acbd9", "asm": "304402204d3c2692560c4440358c18aba0cb2ec82a2bd83fa8b4876d782e905d8f45f1b102205343454d47a61a6acb0ad150a8cb5779302faf88688f599c3914bedab435aede[ALL] 02eb026f468fc50b34b0554c72cc832fe91a19904f791b753965506c92e85acbd9"}, "vout": 0, "txid": "0545508a8eff6d1d1ba40e060c4067b6cf9ed1dbb4a5cc6087d5a5fbe08b2621"}], "txid": "618c9e1e7eeb78fdda59515d956df12ee4c20b7a693c23258902e71cdb4553f9", "blocktime": 1537871767, "version": 2, "confirmations": 11495, "time": 1537871767, "locktime": 542992, "vsize": 371, "size": 371}