{"hash": "619b987744b618de3e21065f7b9194c04c7bc15c5f7ef1fb9ad6573707d80c52", "blockhash": "0000000000000000000e13cef7c366c0283d82e591d1acd082e914b08063cdf1", "vout": [{"scriptPubKey": {"reqSigs": 1, "hex": "76a91407fe5896b6fcdb91984510cb6e16934589f19b9788ac", "addresses": ["1jGRcjmv4ex8GUXmyJhUYHa3FHuZTNVX6"], "asm": "OP_DUP OP_HASH160 07fe5896b6fcdb91984510cb6e16934589f19b97 OP_EQUALVERIFY OP_CHECKSIG", "type": "pubkeyhash"}, "value": 0.03066457, "n": 0}, {"scriptPubKey": {"reqSigs": 1, "hex": "76a91430582cc972906e7001883d6ed584f7a00741563f88ac", "addresses": ["15Qd4iDqBxBX31rkCSBijV3bRHKEKLZJZR"], "asm": "OP_DUP OP_HASH160 30582cc972906e7001883d6ed584f7a00741563f OP_EQUALVERIFY OP_CHECKSIG", "type": "pubkeyhash"}, "value": 0.11682243, "n": 1}], "hex": "01000000014e33ee1b8628069e63a6803f59dbed9ba0c56982c75ed1b0bb01d6178e96b483010000006a473044022020e191f287df340b910997eab15a59a30742e22af6442ec3d3fc039fc9e1062e02205988b5e9d35efe3e2556524d4b948b7a0bf3ddfc82a27732ed40e5424a0115b3012103568e4014f079251ef70515c5ba5feacaf20522edcc2700e819e188cbed0e5dedffffffff0259ca2e00000000001976a91407fe5896b6fcdb91984510cb6e16934589f19b9788acc341b200000000001976a91430582cc972906e7001883d6ed584f7a00741563f88ac00000000", "vin": [{"sequence": 4294967295, "scriptSig": {"hex": "473044022020e191f287df340b910997eab15a59a30742e22af6442ec3d3fc039fc9e1062e02205988b5e9d35efe3e2556524d4b948b7a0bf3ddfc82a27732ed40e5424a0115b3012103568e4014f079251ef70515c5ba5feacaf20522edcc2700e819e188cbed0e5ded", "asm": "3044022020e191f287df340b910997eab15a59a30742e22af6442ec3d3fc039fc9e1062e02205988b5e9d35efe3e2556524d4b948b7a0bf3ddfc82a27732ed40e5424a0115b3[ALL] 03568e4014f079251ef70515c5ba5feacaf20522edcc2700e819e188cbed0e5ded"}, "vout": 1, "txid": "83b4968e17d601bbb0d15ec78269c5a09beddb593f80a6639e0628861bee334e"}], "txid": "619b987744b618de3e21065f7b9194c04c7bc15c5f7ef1fb9ad6573707d80c52", "blocktime": 1537871767, "version": 1, "confirmations": 11493, "time": 1537871767, "locktime": 0, "vsize": 225, "size": 225}