{"hash": "539538d676c5832cf458ecb6f887a44eeb246f40e304659149024420a862eb13", "blockhash": "0000000000000000001e0dab787dd257d1dbfcb92a98c2207d5e1078be1f4165", "vout": [{"scriptPubKey": {"reqSigs": 1, "hex": "a91449b7c1982862173ae2fb62b4887af968fbb3d42a87", "addresses": ["38QoP9t4aXsDxJXAT5KX4bTBuWrkF3WvBq"], "asm": "OP_HASH160 49b7c1982862173ae2fb62b4887af968fbb3d42a OP_EQUAL", "type": "scripthash"}, "value": 0.0245299, "n": 0}, {"scriptPubKey": {"reqSigs": 1, "hex": "0014a5f7a3b0511c5278fc77b979a9fa30ccd4b1afd4", "addresses": ["bc1q5hm68vz3r3f83lrhh9u6n73sen2trt75r37t8h"], "asm": "0 a5f7a3b0511c5278fc77b979a9fa30ccd4b1afd4", "type": "witness_v0_keyhash"}, "value": 8.22e-05, "n": 1}], "hex": "01000000000101beabe2dcd9cda8e38f6833574f8967ce523b066f41ecba07a1f6511a442e313b01000000171600149e02de0036a0468ac4e0f915af17ec3a69ac0821ffffffff02fe6d25000000000017a91449b7c1982862173ae2fb62b4887af968fbb3d42a871c20000000000000160014a5f7a3b0511c5278fc77b979a9fa30ccd4b1afd402463043022069a5eb49c5f266494e378e1140219c208c2037a3229b3b7f3264082f91f0e31e021f415d7e2ea9ee6ae4bfbed6879967528429f855447923cdcbb87ef7497b04fc012103e3b087b1f7a3d82dfc274642ef9c4458ecd00e736962edcc2b8fe56fd80d827500000000", "vin": [{"txinwitness": ["3043022069a5eb49c5f266494e378e1140219c208c2037a3229b3b7f3264082f91f0e31e021f415d7e2ea9ee6ae4bfbed6879967528429f855447923cdcbb87ef7497b04fc01", "03e3b087b1f7a3d82dfc274642ef9c4458ecd00e736962edcc2b8fe56fd80d8275"], "sequence": 4294967295, "scriptSig": {"hex": "1600149e02de0036a0468ac4e0f915af17ec3a69ac0821", "asm": "00149e02de0036a0468ac4e0f915af17ec3a69ac0821"}, "vout": 1, "txid": "3b312e441a51f6a107baec416f063b52ce67894f5733688fe3a8cdd9dce2abbe"}], "txid": "619cee9f38eb33ee6d0d4e515ef601442b100bb01140121ebf455fe0543057e6", "blocktime": 1537872475, "version": 1, "confirmations": 11486, "time": 1537872475, "locktime": 0, "vsize": 164, "size": 245}