{"hash": "619e7a092a1f7ae57edf0aec05447d8db7147203d291760c094e5d89ecea8975", "blockhash": "00000000000000000004ffacab907a6b429b9a5745fa0b75af4234bf69dd7176", "vout": [{"scriptPubKey": {"reqSigs": 1, "hex": "76a9141f5a8d23eb9a8c1fbea7c528ac0835aaf0622c2688ac", "addresses": ["13rnRZgJDrHkEptkCEJvTxKMoK4DVywdnC"], "asm": "OP_DUP OP_HASH160 1f5a8d23eb9a8c1fbea7c528ac0835aaf0622c26 OP_EQUALVERIFY OP_CHECKSIG", "type": "pubkeyhash"}, "value": 0.09300744, "n": 0}, {"scriptPubKey": {"reqSigs": 1, "hex": "76a91447c62f12c35079b4ce30d0a865b4a3828178ed0688ac", "addresses": ["17YWPgHcJenpHHEhNxPbx9BLUigDkRRTgt"], "asm": "OP_DUP OP_HASH160 47c62f12c35079b4ce30d0a865b4a3828178ed06 OP_EQUALVERIFY OP_CHECKSIG", "type": "pubkeyhash"}, "value": 0.3, "n": 1}], "hex": "0100000003a326cdf6dfdaed773e426ba832e2ab6ad99c5fcb8e06509caf563fdffa9cbe7f010000006b483045022100fced50b9aae91503c978736f52b575e4929b50e6c6faea200d9c415a84302999022041b0a5ba7e56d2b3ccd20d1997127d2d3a91544b41a8a9e8ee75cd241cc708aa01210223b2e08c15490c793997b148d4163951dac168708ac7d006b71fd06fce80e43dffffffff2e7e625dacab4273a4c68c1128d796fcdaece2f628ce42f2c4f4e4710ef51ca9010000006a47304402205b66d8ebf555426b923cf12633cfc3384232ef0d21f3fde7b2a71ab6e541185e02206753fa761af3b64d132e86c1246e920c7bc311bcf03054909a389d7126f7372c01210318c1957afdd1b4e93394a7fb6f11e29d4f8dac68372535eb941466d398496b40ffffffffa5bffed2800fb464232fe9ff0ce7526337bbc19221ceaf825f8b1db1e82534a90d0000006a47304402204ee733bd1ddc4b6d66262027b099de9f81a057383dc551f14e65858fd84e4a800220288c9e36a48689c651cdc72680f558f3d4d77b3021b3f29f6ad7d6bc47be10a80121028e164bbcd08edcef588b1e1cc93eba4ea7b51a9e7085b8db70e13f6581536105ffffffff0208eb8d00000000001976a9141f5a8d23eb9a8c1fbea7c528ac0835aaf0622c2688ac80c3c901000000001976a91447c62f12c35079b4ce30d0a865b4a3828178ed0688ac00000000", "vin": [{"sequence": 4294967295, "scriptSig": {"hex": "483045022100fced50b9aae91503c978736f52b575e4929b50e6c6faea200d9c415a84302999022041b0a5ba7e56d2b3ccd20d1997127d2d3a91544b41a8a9e8ee75cd241cc708aa01210223b2e08c15490c793997b148d4163951dac168708ac7d006b71fd06fce80e43d", "asm": "3045022100fced50b9aae91503c978736f52b575e4929b50e6c6faea200d9c415a84302999022041b0a5ba7e56d2b3ccd20d1997127d2d3a91544b41a8a9e8ee75cd241cc708aa[ALL] 0223b2e08c15490c793997b148d4163951dac168708ac7d006b71fd06fce80e43d"}, "vout": 1, "txid": "7fbe9cfadf3f56af9c50068ecb5f9cd96aabe232a86b423e77eddadff6cd26a3"}, {"sequence": 4294967295, "scriptSig": {"hex": "47304402205b66d8ebf555426b923cf12633cfc3384232ef0d21f3fde7b2a71ab6e541185e02206753fa761af3b64d132e86c1246e920c7bc311bcf03054909a389d7126f7372c01210318c1957afdd1b4e93394a7fb6f11e29d4f8dac68372535eb941466d398496b40", "asm": "304402205b66d8ebf555426b923cf12633cfc3384232ef0d21f3fde7b2a71ab6e541185e02206753fa761af3b64d132e86c1246e920c7bc311bcf03054909a389d7126f7372c[ALL] 0318c1957afdd1b4e93394a7fb6f11e29d4f8dac68372535eb941466d398496b40"}, "vout": 1, "txid": "a91cf50e71e4f4c4f242ce28f6e2ecdafc96d728118cc6a47342abac5d627e2e"}, {"sequence": 4294967295, "scriptSig": {"hex": "47304402204ee733bd1ddc4b6d66262027b099de9f81a057383dc551f14e65858fd84e4a800220288c9e36a48689c651cdc72680f558f3d4d77b3021b3f29f6ad7d6bc47be10a80121028e164bbcd08edcef588b1e1cc93eba4ea7b51a9e7085b8db70e13f6581536105", "asm": "304402204ee733bd1ddc4b6d66262027b099de9f81a057383dc551f14e65858fd84e4a800220288c9e36a48689c651cdc72680f558f3d4d77b3021b3f29f6ad7d6bc47be10a8[ALL] 028e164bbcd08edcef588b1e1cc93eba4ea7b51a9e7085b8db70e13f6581536105"}, "vout": 13, "txid": "a93425e8b11d8b5f82afce2192c1bb376352e70cffe92f2364b40f80d2febfa5"}], "txid": "619e7a092a1f7ae57edf0aec05447d8db7147203d291760c094e5d89ecea8975", "blocktime": 1537875543, "version": 1, "confirmations": 11464, "time": 1537875543, "locktime": 0, "vsize": 520, "size": 520}