{"hash": "61a36031540e1840fc6f9cd00e9bf20ca0ee3c02ab426447f0a7cab5211c59f8", "blockhash": "0000000000000000001f0ddff1eddb255c1121bcd4da4f1bc9a0da00cae72433", "vout": [{"scriptPubKey": {"reqSigs": 1, "hex": "76a914c84ab805a1b0d1e035381089a9fc0d258ffa247a88ac", "addresses": ["1KG3evTzrieP2SXZHeAGMbqYBcMBscfThQ"], "asm": "OP_DUP OP_HASH160 c84ab805a1b0d1e035381089a9fc0d258ffa247a OP_EQUALVERIFY OP_CHECKSIG", "type": "pubkeyhash"}, "value": 0.00068485, "n": 0}, {"scriptPubKey": {"reqSigs": 1, "hex": "76a914799eb8b86ead165e3bfb889fe3195a84ef4324ae88ac", "addresses": ["1C64uNzHnnkwTHsToHE4k8QVxePs3nqGmc"], "asm": "OP_DUP OP_HASH160 799eb8b86ead165e3bfb889fe3195a84ef4324ae OP_EQUALVERIFY OP_CHECKSIG", "type": "pubkeyhash"}, "value": 0.00082, "n": 1}], "hex": "0100000001ce3803dab026536b42c91f9e9a3740cdbc2c9e66876d67e9564332b93deca4a0010000006a4730440220136dd205ff2b1fad30afe3963bd7ebe0ddc8d53b469a6ff5dac86eb02667c58e022019f231f03f156b1d183f8a495ff6be49e8ad57821a2455eb7f172b410e5f087a01210316b76a075d211a43cda030a767e0439a407e55a00cf146a256d41318528afe6afdffffff02850b0100000000001976a914c84ab805a1b0d1e035381089a9fc0d258ffa247a88ac50400100000000001976a914799eb8b86ead165e3bfb889fe3195a84ef4324ae88ac0f490800", "vin": [{"sequence": 4294967293, "scriptSig": {"hex": "4730440220136dd205ff2b1fad30afe3963bd7ebe0ddc8d53b469a6ff5dac86eb02667c58e022019f231f03f156b1d183f8a495ff6be49e8ad57821a2455eb7f172b410e5f087a01210316b76a075d211a43cda030a767e0439a407e55a00cf146a256d41318528afe6a", "asm": "30440220136dd205ff2b1fad30afe3963bd7ebe0ddc8d53b469a6ff5dac86eb02667c58e022019f231f03f156b1d183f8a495ff6be49e8ad57821a2455eb7f172b410e5f087a[ALL] 0316b76a075d211a43cda030a767e0439a407e55a00cf146a256d41318528afe6a"}, "vout": 1, "txid": "a0a4ec3db9324356e9676d87669e2cbccd40379a9e1fc9426b5326b0da0338ce"}], "txid": "61a36031540e1840fc6f9cd00e9bf20ca0ee3c02ab426447f0a7cab5211c59f8", "blocktime": 1537872018, "version": 1, "confirmations": 11489, "time": 1537872018, "locktime": 542991, "vsize": 225, "size": 225}