{"hash": "701bb468d29ee0a731042a28172f0fa82fd1b4792e8b06ec08372c3941ea63d0", "blockhash": "00000000000000000018f53835495a110e01622372bf6ae95dc86f2b0ab887b0", "vout": [{"scriptPubKey": {"reqSigs": 1, "hex": "0014ba949caf6e9e27a55f55307bdd67e634017625ec", "addresses": ["bc1qh22fetmwncn62h64xpaa6elxxsqhvf0vkvegvj"], "asm": "0 ba949caf6e9e27a55f55307bdd67e634017625ec", "type": "witness_v0_keyhash"}, "value": 1.084e-05, "n": 0}, {"scriptPubKey": {"reqSigs": 1, "hex": "76a914401ed4176907b8d52c36f98f7f8a3b23d3c8426b88ac", "addresses": ["16r3BH6zSGjHqNkFP9LboV6b34nzvSdBRQ"], "asm": "OP_DUP OP_HASH160 401ed4176907b8d52c36f98f7f8a3b23d3c8426b OP_EQUALVERIFY OP_CHECKSIG", "type": "pubkeyhash"}, "value": 0.001, "n": 1}], "hex": "010000000001013708fcf8f3965e952ba5aded1570ad6542b617981e5d3b440c860f122f8096500000000000ffffffff023c04000000000000160014ba949caf6e9e27a55f55307bdd67e634017625eca0860100000000001976a914401ed4176907b8d52c36f98f7f8a3b23d3c8426b88ac02483045022100baeb2bad00fcce020e562290eebe003d9dd52ce01312ed3460c5ec6a7903c3dc02204da0627bbbb89d6fad64dcbfc30f4256e1b1d0add3e5a7b34823f89f0fa00b92012103f34a8db5c464501d0dad70a7e7f25eb3b09a73808b7ab7b954b305958c9faba100000000", "vin": [{"txinwitness": ["3045022100baeb2bad00fcce020e562290eebe003d9dd52ce01312ed3460c5ec6a7903c3dc02204da0627bbbb89d6fad64dcbfc30f4256e1b1d0add3e5a7b34823f89f0fa00b9201", "03f34a8db5c464501d0dad70a7e7f25eb3b09a73808b7ab7b954b305958c9faba1"], "sequence": 4294967295, "scriptSig": {"hex": "", "asm": ""}, "vout": 0, "txid": "5096802f120f860c443b5d1e9817b64265ad7015edada52b955e96f3f8fc0837"}], "txid": "61a7651c6e8c03fec4bad0121226172c990803a82ed3f18e649ab7070cf3f9dc", "blocktime": 1537870928, "version": 1, "confirmations": 11514, "time": 1537870928, "locktime": 0, "vsize": 144, "size": 226}