{"hash": "61b4a9c97c8ad8ae17aec67f9575c443813c3d49e76871236107c50d53de08fd", "blockhash": "00000000000000000017f5eb5941039fbcee6240d03bc1f2f8e35350df66a1d8", "vout": [{"scriptPubKey": {"reqSigs": 1, "hex": "76a914532225dbdd5b55e0b13463e929f3c4a06b4a3f7188ac", "addresses": ["18aZzZQHptcmfJ6SA8DefpkbYu5hEFTAya"], "asm": "OP_DUP OP_HASH160 532225dbdd5b55e0b13463e929f3c4a06b4a3f71 OP_EQUALVERIFY OP_CHECKSIG", "type": "pubkeyhash"}, "value": 0.08040668, "n": 0}, {"scriptPubKey": {"reqSigs": 1, "hex": "76a914498419e9eecf7d9b68276926c4a59556c69d11e188ac", "addresses": ["17hiaZM6jcpxNyko1sQ7k3BnbzJpvxoB4o"], "asm": "OP_DUP OP_HASH160 498419e9eecf7d9b68276926c4a59556c69d11e1 OP_EQUALVERIFY OP_CHECKSIG", "type": "pubkeyhash"}, "value": 0.65887077, "n": 1}], "hex": "01000000014b65beae9d3abab4868a3e0b92efab4d4f1ae16c1dcf84e8a26b670a6a4ad4f2010000006a473044022069e0005c1febeab486a57c78bd347731f6ac5bc4da101945055fafbd5132b26102207f92e892eef10c6b9a7015a81afdfa4f6ed19732a0eecd0e3b326f37b6d4ab2c012103e12442303df656dca233ab6f2b9a8448e98ef910e840b9c83fcc0aa15a701746ffffffff02dcb07a00000000001976a914532225dbdd5b55e0b13463e929f3c4a06b4a3f7188ac655bed03000000001976a914498419e9eecf7d9b68276926c4a59556c69d11e188ac00000000", "vin": [{"sequence": 4294967295, "scriptSig": {"hex": "473044022069e0005c1febeab486a57c78bd347731f6ac5bc4da101945055fafbd5132b26102207f92e892eef10c6b9a7015a81afdfa4f6ed19732a0eecd0e3b326f37b6d4ab2c012103e12442303df656dca233ab6f2b9a8448e98ef910e840b9c83fcc0aa15a701746", "asm": "3044022069e0005c1febeab486a57c78bd347731f6ac5bc4da101945055fafbd5132b26102207f92e892eef10c6b9a7015a81afdfa4f6ed19732a0eecd0e3b326f37b6d4ab2c[ALL] 03e12442303df656dca233ab6f2b9a8448e98ef910e840b9c83fcc0aa15a701746"}, "vout": 1, "txid": "f2d44a6a0a676ba2e884cf1d6ce11a4f4dabef920b3e8a86b4ba3a9daebe654b"}], "txid": "61b4a9c97c8ad8ae17aec67f9575c443813c3d49e76871236107c50d53de08fd", "blocktime": 1537874412, "version": 1, "confirmations": 11467, "time": 1537874412, "locktime": 0, "vsize": 225, "size": 225}