{"hash": "61b53d2455943bb701040f568d8cf5f31046cfa12f2d0d718203e3012593a354", "blockhash": "0000000000000000001e0dab787dd257d1dbfcb92a98c2207d5e1078be1f4165", "vout": [{"scriptPubKey": {"reqSigs": 1, "hex": "a914b1e6cf68dcdffb4528823159645758c3297ef09e87", "addresses": ["3Hug2UHD914Yq4A6xtvXX38sBEeiuW7jNt"], "asm": "OP_HASH160 b1e6cf68dcdffb4528823159645758c3297ef09e OP_EQUAL", "type": "scripthash"}, "value": 0.00918794, "n": 0}, {"scriptPubKey": {"reqSigs": 1, "hex": "76a914afe050bb04e0c71e3b5a92c894a36f47d9a98e6588ac", "addresses": ["1H2wyGurhCEVS3vn5f82bgQEvMWGoUBXft"], "asm": "OP_DUP OP_HASH160 afe050bb04e0c71e3b5a92c894a36f47d9a98e65 OP_EQUALVERIFY OP_CHECKSIG", "type": "pubkeyhash"}, "value": 0.09322476, "n": 1}], "hex": "0100000001975673789ff4729bc1d38bc88bdff13378cbe02859ee11a0ef64bae307b2592d010000006b483045022100cccc5a14346f9bd3ec31fc21b33fa2e86dc3119e040ae20347e7f1bc3ebc799802206ce58bb97a100efa1d47ea17187f241dc62ebfc25427f1b1700db6806558c4e801210217d8a52f61b6ddb45c3d44a5cfe3ae928cc40d7963a28201d82089fadf020356ffffffff020a050e000000000017a914b1e6cf68dcdffb4528823159645758c3297ef09e87ec3f8e00000000001976a914afe050bb04e0c71e3b5a92c894a36f47d9a98e6588ac00000000", "vin": [{"sequence": 4294967295, "scriptSig": {"hex": "483045022100cccc5a14346f9bd3ec31fc21b33fa2e86dc3119e040ae20347e7f1bc3ebc799802206ce58bb97a100efa1d47ea17187f241dc62ebfc25427f1b1700db6806558c4e801210217d8a52f61b6ddb45c3d44a5cfe3ae928cc40d7963a28201d82089fadf020356", "asm": "3045022100cccc5a14346f9bd3ec31fc21b33fa2e86dc3119e040ae20347e7f1bc3ebc799802206ce58bb97a100efa1d47ea17187f241dc62ebfc25427f1b1700db6806558c4e8[ALL] 0217d8a52f61b6ddb45c3d44a5cfe3ae928cc40d7963a28201d82089fadf020356"}, "vout": 1, "txid": "2d59b207e3ba64efa011ee5928e0cb7833f1df8bc88bd3c19b72f49f78735697"}], "txid": "61b53d2455943bb701040f568d8cf5f31046cfa12f2d0d718203e3012593a354", "blocktime": 1537872475, "version": 1, "confirmations": 11486, "time": 1537872475, "locktime": 0, "vsize": 224, "size": 224}