{"hash": "61b8b37b2873af78e8959d7518815ea93343bbaa556c7c2616d418f88d47ab5d", "blockhash": "0000000000000000000baef3f32e3676a92c3b2e5da21b426e4f302fc371ce76", "vout": [{"scriptPubKey": {"reqSigs": 1, "hex": "a9144fc83d9633d6067e3cf33521945a5b1787df316887", "addresses": ["38xsBf5NvoXZBpS84aNkCU4LpNyGkowPMa"], "asm": "OP_HASH160 4fc83d9633d6067e3cf33521945a5b1787df3168 OP_EQUAL", "type": "scripthash"}, "value": 0.00074766, "n": 0}, {"scriptPubKey": {"reqSigs": 1, "hex": "76a9149d54d1095e9fd156f4e089df0af41446572db0ce88ac", "addresses": ["1FLthGvX2HGbwp8Ay7Au4zwca6ybyVme6w"], "asm": "OP_DUP OP_HASH160 9d54d1095e9fd156f4e089df0af41446572db0ce OP_EQUALVERIFY OP_CHECKSIG", "type": "pubkeyhash"}, "value": 0.00072542, "n": 1}], "hex": "01000000011ed83f009c4fd76df439c07182d904acb8218ee67724c20dde5d0ba564c0eeac010000006a47304402203fa562b11d4503674784509ff26e65fac5e2f16a6b3ac835751fa54026590809022030bf7ff276b9e3bd1531c996e8e95d89873ad179232750098548ed28beaaa57f0121032fd93aaa4809142b3ecacf3abc3341aeabbf2f26d51dcd6282d63f67692c9f56ffffffff020e2401000000000017a9144fc83d9633d6067e3cf33521945a5b1787df3168875e1b0100000000001976a9149d54d1095e9fd156f4e089df0af41446572db0ce88ac00000000", "vin": [{"sequence": 4294967295, "scriptSig": {"hex": "47304402203fa562b11d4503674784509ff26e65fac5e2f16a6b3ac835751fa54026590809022030bf7ff276b9e3bd1531c996e8e95d89873ad179232750098548ed28beaaa57f0121032fd93aaa4809142b3ecacf3abc3341aeabbf2f26d51dcd6282d63f67692c9f56", "asm": "304402203fa562b11d4503674784509ff26e65fac5e2f16a6b3ac835751fa54026590809022030bf7ff276b9e3bd1531c996e8e95d89873ad179232750098548ed28beaaa57f[ALL] 032fd93aaa4809142b3ecacf3abc3341aeabbf2f26d51dcd6282d63f67692c9f56"}, "vout": 1, "txid": "aceec064a50b5dde0dc22477e68e21b8ac04d98271c039f46dd74f9c003fd81e"}], "txid": "61b8b37b2873af78e8959d7518815ea93343bbaa556c7c2616d418f88d47ab5d", "blocktime": 1537876114, "version": 1, "confirmations": 11460, "time": 1537876114, "locktime": 0, "vsize": 223, "size": 223}