{"hash": "61bbc42ae5fb18d10385d3480fa72b142789d1f5d81a7f15009b4f22d2c6e5e7", "blockhash": "00000000000000000018f53835495a110e01622372bf6ae95dc86f2b0ab887b0", "vout": [{"scriptPubKey": {"reqSigs": 1, "hex": "76a914aacf121b2a38a4da2040cf89fc4887b364f51eb588ac", "addresses": ["1Ga9w8ybbv21cDNDiB3rKyt9XtCy8w3X3n"], "asm": "OP_DUP OP_HASH160 aacf121b2a38a4da2040cf89fc4887b364f51eb5 OP_EQUALVERIFY OP_CHECKSIG", "type": "pubkeyhash"}, "value": 0.012, "n": 0}, {"scriptPubKey": {"reqSigs": 1, "hex": "76a914052580112d2cadacde45e0afed89fdf3957d943688ac", "addresses": ["1UDJXLWYkSjMw8k7UNjsfLM2NUH9t8UZx"], "asm": "OP_DUP OP_HASH160 052580112d2cadacde45e0afed89fdf3957d9436 OP_EQUALVERIFY OP_CHECKSIG", "type": "pubkeyhash"}, "value": 0.07062338, "n": 1}], "hex": "01000000015d9c779487531ea42fa836e3488115aedad98e6aefaa99701512cd58c51981c2010000006b483045022100ca84623043739d56dc3b589f7a8e558771210787ecc5c31bc7efc5dc4821492102205befd8c2b8b0fec6a66301df5a3c80a1784320ce6edee32846e17308e58d21b10121032408842e0e7a632251abc371a62a46afc46d3c6a3c0d028c3909028bf77b4c6afdffffff02804f1200000000001976a914aacf121b2a38a4da2040cf89fc4887b364f51eb588ac42c36b00000000001976a914052580112d2cadacde45e0afed89fdf3957d943688ac0d490800", "vin": [{"sequence": 4294967293, "scriptSig": {"hex": "483045022100ca84623043739d56dc3b589f7a8e558771210787ecc5c31bc7efc5dc4821492102205befd8c2b8b0fec6a66301df5a3c80a1784320ce6edee32846e17308e58d21b10121032408842e0e7a632251abc371a62a46afc46d3c6a3c0d028c3909028bf77b4c6a", "asm": "3045022100ca84623043739d56dc3b589f7a8e558771210787ecc5c31bc7efc5dc4821492102205befd8c2b8b0fec6a66301df5a3c80a1784320ce6edee32846e17308e58d21b1[ALL] 032408842e0e7a632251abc371a62a46afc46d3c6a3c0d028c3909028bf77b4c6a"}, "vout": 1, "txid": "c28119c558cd12157099aaef6a8ed9daae158148e336a82fa41e538794779c5d"}], "txid": "61bbc42ae5fb18d10385d3480fa72b142789d1f5d81a7f15009b4f22d2c6e5e7", "blocktime": 1537870928, "version": 1, "confirmations": 11512, "time": 1537870928, "locktime": 542989, "vsize": 226, "size": 226}