{"hash": "61bcc6a640643be33c89c3ca6e3268ca184c9f5ba0cfee1dde573e7a1aa422db", "blockhash": "0000000000000000001f76057863aec43deb6fa401d9628bb513d65a8098bfab", "vout": [{"scriptPubKey": {"reqSigs": 1, "hex": "76a9143186e78dc8708e95d4db3f234826559ae547a90288ac", "addresses": ["15WsijHwsEmD1oTevF7ZtTJy6aUsaNgpbX"], "asm": "OP_DUP OP_HASH160 3186e78dc8708e95d4db3f234826559ae547a902 OP_EQUALVERIFY OP_CHECKSIG", "type": "pubkeyhash"}, "value": 0.1561605, "n": 0}], "hex": "0100000003e557c1e9296eca87f97dcab88f0ce5ca2600f44b16e933efdb948ef64ac548d8000000006a47304402206820c8677694cb16f4b946f21ab8177cf62639d72c6ee480a328f4ca8b5e0b2c02207581eae8876b9c6727e234394c21ddeeb5d027f6c9431b5aed753b01a98e1ca3012102503ee3333e8432031df1344e65c70def3d0d48e0412015a89737c0dc3d6ec121feffffff9f6e9c5e78ac8b0387f8b6082c8da7772498b5fcbbd4f50438e7dda81d47d048000000006b483045022100861a01550a756d2846df3a224b55b6091fe4fcb4e30351219031e55a754f920d0220112db1768d5f1087aaa651c0d448185a4219e31122ae6a420849af91a43963fc0121029e1d81574c3760209d67b593746ea3609296b536e85d5302868d488f15c6773bfeffffff74b4b9ffc1728b0df898229b8256f79ac3f6434833638791561bf6b081b598ed010000006a473044022004b8961f25c26c19a3e5925c361c7efafb5ae9c1278156e5014be8db814e385d02205e29cd78d6c228aa1ef3532962f4db373574dd1aafecea38eae29342056f0a650121033efcf1864f29a9538964e2f62a63c229a3b630c813ac1d8e51b344942ddf47bbfeffffff013248ee00000000001976a9143186e78dc8708e95d4db3f234826559ae547a90288ac14490800", "vin": [{"sequence": 4294967294, "scriptSig": {"hex": "47304402206820c8677694cb16f4b946f21ab8177cf62639d72c6ee480a328f4ca8b5e0b2c02207581eae8876b9c6727e234394c21ddeeb5d027f6c9431b5aed753b01a98e1ca3012102503ee3333e8432031df1344e65c70def3d0d48e0412015a89737c0dc3d6ec121", "asm": "304402206820c8677694cb16f4b946f21ab8177cf62639d72c6ee480a328f4ca8b5e0b2c02207581eae8876b9c6727e234394c21ddeeb5d027f6c9431b5aed753b01a98e1ca3[ALL] 02503ee3333e8432031df1344e65c70def3d0d48e0412015a89737c0dc3d6ec121"}, "vout": 0, "txid": "d848c54af68e94dbef33e9164bf40026cae50c8fb8ca7df987ca6e29e9c157e5"}, {"sequence": 4294967294, "scriptSig": {"hex": "483045022100861a01550a756d2846df3a224b55b6091fe4fcb4e30351219031e55a754f920d0220112db1768d5f1087aaa651c0d448185a4219e31122ae6a420849af91a43963fc0121029e1d81574c3760209d67b593746ea3609296b536e85d5302868d488f15c6773b", "asm": "3045022100861a01550a756d2846df3a224b55b6091fe4fcb4e30351219031e55a754f920d0220112db1768d5f1087aaa651c0d448185a4219e31122ae6a420849af91a43963fc[ALL] 029e1d81574c3760209d67b593746ea3609296b536e85d5302868d488f15c6773b"}, "vout": 0, "txid": "48d0471da8dde73804f5d4bbfcb5982477a78d2c08b6f887038bac785e9c6e9f"}, {"sequence": 4294967294, "scriptSig": {"hex": "473044022004b8961f25c26c19a3e5925c361c7efafb5ae9c1278156e5014be8db814e385d02205e29cd78d6c228aa1ef3532962f4db373574dd1aafecea38eae29342056f0a650121033efcf1864f29a9538964e2f62a63c229a3b630c813ac1d8e51b344942ddf47bb", "asm": "3044022004b8961f25c26c19a3e5925c361c7efafb5ae9c1278156e5014be8db814e385d02205e29cd78d6c228aa1ef3532962f4db373574dd1aafecea38eae29342056f0a65[ALL] 033efcf1864f29a9538964e2f62a63c229a3b630c813ac1d8e51b344942ddf47bb"}, "vout": 1, "txid": "ed98b581b0f61b56918763334843f6c39af756829b2298f80d8b72c1ffb9b474"}], "txid": "61bcc6a640643be33c89c3ca6e3268ca184c9f5ba0cfee1dde573e7a1aa422db", "blocktime": 1537873891, "version": 1, "confirmations": 11475, "time": 1537873891, "locktime": 542996, "vsize": 486, "size": 486}