{"hash": "61be458084eb32e827fcfbae3ad2d7efcc45bcc264c78fa88bec81fa06336de0", "blockhash": "0000000000000000000e13cef7c366c0283d82e591d1acd082e914b08063cdf1", "vout": [{"scriptPubKey": {"reqSigs": 1, "hex": "76a914d886792cced875ed06b200732add84151ee2e97c88ac", "addresses": ["1Ljt3ooBZQ5nqnJDECkG7d2WpVxxZ6cjhe"], "asm": "OP_DUP OP_HASH160 d886792cced875ed06b200732add84151ee2e97c OP_EQUALVERIFY OP_CHECKSIG", "type": "pubkeyhash"}, "value": 5.8e-05, "n": 0}, {"scriptPubKey": {"reqSigs": 1, "hex": "a914903dcdf8176c95d4c994f42ca026d1710c6e37d687", "addresses": ["3EqhGRYKfhn52GtWYHtDx3U4BjvkpkoPpQ"], "asm": "OP_HASH160 903dcdf8176c95d4c994f42ca026d1710c6e37d6 OP_EQUAL", "type": "scripthash"}, "value": 0.03754582, "n": 1}], "hex": "010000000226d4a350b8adc0ab364e4bfb5bbffe6f0a18c20add85b2349584de841da38b57000000006b4830450221008494767a6ec238252225fcfc45c92cc403bf07442c95fa0089601edfc93bf47c02206cb7b25aa134c30e4324a7e44671ca15d71830042fcc5bceeae30a01af97f0fb0121037adff82970991b6d68ee9b0b20b32452a7996b643c304e321c79e8b44e37db9affffffff6861e518601fd1bad40c1cd5916eb4f6ea4db211c613b9a8d37d8feefea75139000000006b483045022100cca0a6d15df0aa1f348dc68096ec1c68d50e525a506c32a46348f03554fc0ccd022005de20c8db3fba522eaaa9a55b50ae39c16adc395bcc0faa95736c5652a4ce4601210230983101371dba4523bef1edca2e48717354825410c28dae4c1bbc52a9a2f9e3ffffffff02a8160000000000001976a914d886792cced875ed06b200732add84151ee2e97c88ac564a39000000000017a914903dcdf8176c95d4c994f42ca026d1710c6e37d68700000000", "vin": [{"sequence": 4294967295, "scriptSig": {"hex": "4830450221008494767a6ec238252225fcfc45c92cc403bf07442c95fa0089601edfc93bf47c02206cb7b25aa134c30e4324a7e44671ca15d71830042fcc5bceeae30a01af97f0fb0121037adff82970991b6d68ee9b0b20b32452a7996b643c304e321c79e8b44e37db9a", "asm": "30450221008494767a6ec238252225fcfc45c92cc403bf07442c95fa0089601edfc93bf47c02206cb7b25aa134c30e4324a7e44671ca15d71830042fcc5bceeae30a01af97f0fb[ALL] 037adff82970991b6d68ee9b0b20b32452a7996b643c304e321c79e8b44e37db9a"}, "vout": 0, "txid": "578ba31d84de849534b285dd0ac2180a6ffebf5bfb4b4e36abc0adb850a3d426"}, {"sequence": 4294967295, "scriptSig": {"hex": "483045022100cca0a6d15df0aa1f348dc68096ec1c68d50e525a506c32a46348f03554fc0ccd022005de20c8db3fba522eaaa9a55b50ae39c16adc395bcc0faa95736c5652a4ce4601210230983101371dba4523bef1edca2e48717354825410c28dae4c1bbc52a9a2f9e3", "asm": "3045022100cca0a6d15df0aa1f348dc68096ec1c68d50e525a506c32a46348f03554fc0ccd022005de20c8db3fba522eaaa9a55b50ae39c16adc395bcc0faa95736c5652a4ce46[ALL] 0230983101371dba4523bef1edca2e48717354825410c28dae4c1bbc52a9a2f9e3"}, "vout": 0, "txid": "3951a7feee8f7dd3a8b913c611b24deaf6b46e91d51c0cd4bad11f6018e56168"}], "txid": "61be458084eb32e827fcfbae3ad2d7efcc45bcc264c78fa88bec81fa06336de0", "blocktime": 1537871767, "version": 1, "confirmations": 11493, "time": 1537871767, "locktime": 0, "vsize": 372, "size": 372}