{"hash": "61bfe5ebdf384c7d2df0beeb45431ba580070299c48ce3eab4e3331e79517ace", "blockhash": "0000000000000000000baef3f32e3676a92c3b2e5da21b426e4f302fc371ce76", "vout": [{"scriptPubKey": {"reqSigs": 1, "hex": "76a91447d18af22eefe4685d2ef3309fbd10d1b330d70d88ac", "addresses": ["17YjzuYrjP84Ro7TnsT4riPtTdTvWKCWoB"], "asm": "OP_DUP OP_HASH160 47d18af22eefe4685d2ef3309fbd10d1b330d70d OP_EQUALVERIFY OP_CHECKSIG", "type": "pubkeyhash"}, "value": 0.0212, "n": 0}, {"scriptPubKey": {"reqSigs": 1, "hex": "76a914ed09772a57721eecfb99c53f1c22424f7d6aa22e88ac", "addresses": ["1NcLV8yo6EoH6fQRBXeEZHYgaGgESLcz1W"], "asm": "OP_DUP OP_HASH160 ed09772a57721eecfb99c53f1c22424f7d6aa22e OP_EQUALVERIFY OP_CHECKSIG", "type": "pubkeyhash"}, "value": 4.55734, "n": 1}], "hex": "01000000017bcbe301b6e3910936a0a9f69bc24e23c1e72460c8db184925ecf70b3589afa3010000006a4730440220675aa51145a18da9c68da43a14ee60416781556ec894d08f1e04431b1e285a030220269aba03da763d643e9a67a5b0825cfc88705a113071c251a88b7f01c52b375e012102f95b499b70a8b8dd104d1cca0e93b773fdba056415a365ba0f4124f4f6f22a03ffffffff0240592000000000001976a91447d18af22eefe4685d2ef3309fbd10d1b330d70d88acf0f2291b000000001976a914ed09772a57721eecfb99c53f1c22424f7d6aa22e88ac00000000", "vin": [{"sequence": 4294967295, "scriptSig": {"hex": "4730440220675aa51145a18da9c68da43a14ee60416781556ec894d08f1e04431b1e285a030220269aba03da763d643e9a67a5b0825cfc88705a113071c251a88b7f01c52b375e012102f95b499b70a8b8dd104d1cca0e93b773fdba056415a365ba0f4124f4f6f22a03", "asm": "30440220675aa51145a18da9c68da43a14ee60416781556ec894d08f1e04431b1e285a030220269aba03da763d643e9a67a5b0825cfc88705a113071c251a88b7f01c52b375e[ALL] 02f95b499b70a8b8dd104d1cca0e93b773fdba056415a365ba0f4124f4f6f22a03"}, "vout": 1, "txid": "a3af89350bf7ec254918dbc86024e7c1234ec29bf6a9a0360991e3b601e3cb7b"}], "txid": "61bfe5ebdf384c7d2df0beeb45431ba580070299c48ce3eab4e3331e79517ace", "blocktime": 1537876114, "version": 1, "confirmations": 11460, "time": 1537876114, "locktime": 0, "vsize": 225, "size": 225}