{"hash": "61c036a024b4cd3dbe375a234471dbba48c1ce20c89697b7d2a6209ef56528c1", "blockhash": "0000000000000000001f76057863aec43deb6fa401d9628bb513d65a8098bfab", "vout": [{"scriptPubKey": {"reqSigs": 1, "hex": "76a914d7df38bce3515686751cbeadaf963665f80e34f488ac", "addresses": ["1LgRgxMmUDKNG8ahvU7CuuvHceaH5fjDYX"], "asm": "OP_DUP OP_HASH160 d7df38bce3515686751cbeadaf963665f80e34f4 OP_EQUALVERIFY OP_CHECKSIG", "type": "pubkeyhash"}, "value": 0.00125408, "n": 0}, {"scriptPubKey": {"reqSigs": 1, "hex": "76a9144846e7bb244360e4d7b6ea3dc8df5814627cf9bd88ac", "addresses": ["17bAbPhh8zjwvTaZAvw7ZuJxef6arZC2Jx"], "asm": "OP_DUP OP_HASH160 4846e7bb244360e4d7b6ea3dc8df5814627cf9bd OP_EQUALVERIFY OP_CHECKSIG", "type": "pubkeyhash"}, "value": 0.00624319, "n": 1}], "hex": "0100000001d2db80a5f481e9c440be473c77a63e8d37a85094e65140d924e8fd0e531b3d97000000006b483045022100cbd226c23fed922f72f5770fe2946d182cf165412b9f7bd5ec57975b3ab7865002203c534a29f851d35e01ed04812a9fceab95a0d6ffaea2f862e9ca637847aa9158012103969086f0bfaea91ca1cf8d7583c8089829ec9fb6f755352e697dc4eb15f2a637ffffffff02e0e90100000000001976a914d7df38bce3515686751cbeadaf963665f80e34f488acbf860900000000001976a9144846e7bb244360e4d7b6ea3dc8df5814627cf9bd88ac00000000", "vin": [{"sequence": 4294967295, "scriptSig": {"hex": "483045022100cbd226c23fed922f72f5770fe2946d182cf165412b9f7bd5ec57975b3ab7865002203c534a29f851d35e01ed04812a9fceab95a0d6ffaea2f862e9ca637847aa9158012103969086f0bfaea91ca1cf8d7583c8089829ec9fb6f755352e697dc4eb15f2a637", "asm": "3045022100cbd226c23fed922f72f5770fe2946d182cf165412b9f7bd5ec57975b3ab7865002203c534a29f851d35e01ed04812a9fceab95a0d6ffaea2f862e9ca637847aa9158[ALL] 03969086f0bfaea91ca1cf8d7583c8089829ec9fb6f755352e697dc4eb15f2a637"}, "vout": 0, "txid": "973d1b530efde824d94051e69450a8378d3ea6773c47be40c4e981f4a580dbd2"}], "txid": "61c036a024b4cd3dbe375a234471dbba48c1ce20c89697b7d2a6209ef56528c1", "blocktime": 1537873891, "version": 1, "confirmations": 11478, "time": 1537873891, "locktime": 0, "vsize": 226, "size": 226}