{"hash": "61cff0c002ac1c2af73292e45be5796f0550f11b01cd29306c7b246d53dcdc4c", "blockhash": "0000000000000000001cda96e906b7601b7a6fb1a3b62bca570a9e5d8f4b3de1", "vout": [{"scriptPubKey": {"reqSigs": 1, "hex": "76a9144c607bf5ee814fbb5ce3cfc63eb9e3b5b46805c488ac", "addresses": ["17xqwRP2A5tyELg8E5FvXA2JzGfMPWHv9Q"], "asm": "OP_DUP OP_HASH160 4c607bf5ee814fbb5ce3cfc63eb9e3b5b46805c4 OP_EQUALVERIFY OP_CHECKSIG", "type": "pubkeyhash"}, "value": 0.09173117, "n": 0}, {"scriptPubKey": {"reqSigs": 1, "hex": "76a914ae8081ea3e6bf7a611361dae9e2eb0cc1441b7d988ac", "addresses": ["1GugXEcn7Rxxojc4Pa9VGxP4cbi9uNj7qU"], "asm": "OP_DUP OP_HASH160 ae8081ea3e6bf7a611361dae9e2eb0cc1441b7d9 OP_EQUALVERIFY OP_CHECKSIG", "type": "pubkeyhash"}, "value": 0.000724, "n": 1}], "hex": "010000000266874d00a1e2300ac20f91956e792e761ec8f2b44e85fd7bcc2d8d5f3ebdcd70010000006b483045022100aa46fdf4ae3cb9878da32740057efaec26766dd3fcd5c1b94985824250475109022044dd7db725bede33ce636d39e5d7afc915ead8173037fa48a8d23b4f11b485e301210245c73e80e81f924d2db3a6a1549f6fd0f12c82ce4beaa0bf32eec90f81c25d97ffffffff5961ed5678c3454746895da55c742841ac940f55ec4e376ca3b977ca68f1119d010000006a4730440220291ab6346f50a3edb0be978dd8351f0f0c1e1208a63298747ec923e0a0194ae802201ce681deef1347fb90d3ea03713f0b0f7250087b9f80cf4512b5fabecd18e789012103a1c3f3c7bc26f05d80f8fa2cb14d8400ced49e60385f510a8e9b0309ff17eedcffffffff027df88b00000000001976a9144c607bf5ee814fbb5ce3cfc63eb9e3b5b46805c488acd01a0100000000001976a914ae8081ea3e6bf7a611361dae9e2eb0cc1441b7d988ac00000000", "vin": [{"sequence": 4294967295, "scriptSig": {"hex": "483045022100aa46fdf4ae3cb9878da32740057efaec26766dd3fcd5c1b94985824250475109022044dd7db725bede33ce636d39e5d7afc915ead8173037fa48a8d23b4f11b485e301210245c73e80e81f924d2db3a6a1549f6fd0f12c82ce4beaa0bf32eec90f81c25d97", "asm": "3045022100aa46fdf4ae3cb9878da32740057efaec26766dd3fcd5c1b94985824250475109022044dd7db725bede33ce636d39e5d7afc915ead8173037fa48a8d23b4f11b485e3[ALL] 0245c73e80e81f924d2db3a6a1549f6fd0f12c82ce4beaa0bf32eec90f81c25d97"}, "vout": 1, "txid": "70cdbd3e5f8d2dcc7bfd854eb4f2c81e762e796e95910fc20a30e2a1004d8766"}, {"sequence": 4294967295, "scriptSig": {"hex": "4730440220291ab6346f50a3edb0be978dd8351f0f0c1e1208a63298747ec923e0a0194ae802201ce681deef1347fb90d3ea03713f0b0f7250087b9f80cf4512b5fabecd18e789012103a1c3f3c7bc26f05d80f8fa2cb14d8400ced49e60385f510a8e9b0309ff17eedc", "asm": "30440220291ab6346f50a3edb0be978dd8351f0f0c1e1208a63298747ec923e0a0194ae802201ce681deef1347fb90d3ea03713f0b0f7250087b9f80cf4512b5fabecd18e789[ALL] 03a1c3f3c7bc26f05d80f8fa2cb14d8400ced49e60385f510a8e9b0309ff17eedc"}, "vout": 1, "txid": "9d11f168ca77b9a36c374eec550f94ac4128745ca55d89464745c37856ed6159"}], "txid": "61cff0c002ac1c2af73292e45be5796f0550f11b01cd29306c7b246d53dcdc4c", "blocktime": 1537873282, "version": 1, "confirmations": 11485, "time": 1537873282, "locktime": 0, "vsize": 373, "size": 373}