{"hash": "61d4873264d1e7323cb6712a7c8e89103dd740a39d5cf211326e005a8666441e", "blockhash": "0000000000000000001cda96e906b7601b7a6fb1a3b62bca570a9e5d8f4b3de1", "vout": [{"scriptPubKey": {"reqSigs": 1, "hex": "76a9144a0f1e2f2b0d7daeec5265f10bbbbe08ed725e8988ac", "addresses": ["17kb7c9ndg7ioSuzMWEHWECdEVUegNkcGc"], "asm": "OP_DUP OP_HASH160 4a0f1e2f2b0d7daeec5265f10bbbbe08ed725e89 OP_EQUALVERIFY OP_CHECKSIG", "type": "pubkeyhash"}, "value": 0.00057052, "n": 0}], "hex": "01000000010f32d470d8392567ad1b99b4a9206d5bacf552016298e49e57165106e3cc2424000000006a4730440220568d6d01847540a0899e858999db1cda2544bbe8e0c9fc903026a6d6191ccde0022039c8616d67e13b5691726495109ca946f56f1027f916b34e292ba05a9bbde91d012102bbcb734c6d1048587cef0726e95f51575bd960f9826795dd99b1ade71565eaa0ffffffff01dcde0000000000001976a9144a0f1e2f2b0d7daeec5265f10bbbbe08ed725e8988ac00000000", "vin": [{"sequence": 4294967295, "scriptSig": {"hex": "4730440220568d6d01847540a0899e858999db1cda2544bbe8e0c9fc903026a6d6191ccde0022039c8616d67e13b5691726495109ca946f56f1027f916b34e292ba05a9bbde91d012102bbcb734c6d1048587cef0726e95f51575bd960f9826795dd99b1ade71565eaa0", "asm": "30440220568d6d01847540a0899e858999db1cda2544bbe8e0c9fc903026a6d6191ccde0022039c8616d67e13b5691726495109ca946f56f1027f916b34e292ba05a9bbde91d[ALL] 02bbcb734c6d1048587cef0726e95f51575bd960f9826795dd99b1ade71565eaa0"}, "vout": 0, "txid": "2424cce3065116579ee498620152f5ac5b6d20a9b4991bad672539d870d4320f"}], "txid": "61d4873264d1e7323cb6712a7c8e89103dd740a39d5cf211326e005a8666441e", "blocktime": 1537873282, "version": 1, "confirmations": 11482, "time": 1537873282, "locktime": 0, "vsize": 191, "size": 191}