{"hash": "61d502d35586c4a96307b21e3f0a5f5100e3e866fc64397e4594033661a33b86", "blockhash": "0000000000000000000dcc0f55137456b1a82d3642486a52398922ac4d620174", "vout": [{"scriptPubKey": {"reqSigs": 1, "hex": "76a91409c8cc59a1ac51e330e805a41d85076fa0732a8088ac", "addresses": ["1tjdS7VX7sycCTpMyxvZKnnRyKnpoT3yB"], "asm": "OP_DUP OP_HASH160 09c8cc59a1ac51e330e805a41d85076fa0732a80 OP_EQUALVERIFY OP_CHECKSIG", "type": "pubkeyhash"}, "value": 0.00095281, "n": 0}, {"scriptPubKey": {"reqSigs": 1, "hex": "a9147e48ef12c9bb05daa7b71f95e96e0f88ed58687f87", "addresses": ["3DCkSFQhAva39DTbYXSHiFppADjyDKphvJ"], "asm": "OP_HASH160 7e48ef12c9bb05daa7b71f95e96e0f88ed58687f OP_EQUAL", "type": "scripthash"}, "value": 0.027, "n": 1}], "hex": "0100000009e708be1f4077165e37074a4b78868903fac9af4f3fda35c00eb313de20002106000000006a4730440220092116c7eda5ec5a6a68f839d5913d58004d7ec6babbe988c6cd7011fe29b3a902206b961445fdd3b5b1fbf17e924dbaab8c81799f0804f9f74c30e48a531c85a26f01210273ac0765ee93ad4508968c9a6d88a3140e50c08d1a2f80bd3ea7e64ae8dd36d9ffffffffc19e9b9381355a61bbf6adec9cd1e2564d92dcfe4083f5b4e82863eaa5c99a28010000006b483045022100ae3205b37856315412284b99cca51a69853d563d4f860341dbe31e58f89f3b34022021bd7ce133309710a538bd2c7ccefd83e9a76aea3bc07c1c2963858c5c2aa166012102586984b3a79a95481eca243e328528cbacfdbaf77808fc190ac1f605314ac06affffffff1cea3d18b54f26e50059b4c9e97f50a0d92e5d7edd95b8cb6156cb8b05bbe65a000000006a47304402204eff802233b99a32a1a01ab2fefb83d9faf48b2a6cc552381ac4f4c33f5267d802200f19e7fdcbd6c4725db82d8971bc83f5aa4425b6f999dbeff8babd0649c6d62c012103bae730292ad1653383c86a9bdc37b19316d4fbb74ad6ca7a6f5f0d0ed45ed843ffffffff42eecd2c8707e482482aabfc8c97f2c15bd85068a2d03c030626e7f9bdad0083010000006b483045022100be96df4c67bce5888524082fe4020982ad40e872f5ce898f035dab7e8d00fc9202203dfc7c60e89c60f2bd99dd690e10395685d58caadc4ad04477568e57b8f769b90121034872280b3a9f9ac2c4cab02cb33f083a328b5b44e76ebe0a691df807b2c960d2ffffffff285d080d566fb02d276819a58fdb4b28cf45dcbd0a626d41d5ed3d4031edd19d010000006b483045022100b6511b6bf53589097eed7e125e96d61b4bc0927b33de2e58dff9a8c5deecc2a702207d0ee1aa03c928d2cb050ad0c337580f369f0ae2c5b88f38746d0237651010970121030a548b95d1c6b633a63096fb7a373ba159050a29ef0284aa73ce3bb5e00cd101ffffffff8c85fb0615ef3a8d060b8bd7550ee04045a8d88c4d0b4f22b7ded62df477ed9d010000006b48304502210080e8e8ee8188e43f602712309520ff969dd507307e992101d9fd05d7f8c5a73f022021023127312dcc0776230af63e3038b37849f058a9bf399f4569d2e8aba346f30121024298cfc00d0fa8079ebff1ad4b081e9bf09505c8b884083160d6c5bbcf7f9cc9ffffffff22b6376a46a5720e8e95ee1f9aec87586f14428a762e1f4aa3c0eb6be160dca8010000006a47304402206c42d2fcc97dffd4032ef643d8b9246ebca845ddabfd5275ea058035c667b4a9022076473d8a749ccd23d679c6298d2722f000717853bd7e844cd8a390e58bb4b4360121031f7f7e0b7fd67f05b87f8daaea5869105f5e2a2033fda0ce9c47102250dfdab8ffffffffcaea772fff1090ed55a3d84223d9f88cb7477a22ab621b73d9342daf2bc9f5a9000000006b483045022100bcdae1bf2b50ec4690d0d6426df82ee8faa1d3e7d878b71ed6d351a9ecdcce3002202ac3d5ce5f623fd1642627faaeb1bda52f0a2ebbdd807f8dd3e8f02a279ce2c301210374e73ed8004b6bd2a32384bc14006dd6454fddbf8ac13a5b3abe93bff40c400affffffff92fb370e6070003a37f362a429e50b9786a6c9c2d4d61db270a7bad319a6e7c8010000006a4730440220764f083f4e1da0396b246feae16ffb950cdadc71e165fc8efbd03d5145e0cfbd02201348aca3fdaeff5579d2ab47a259b70cd6a22a2c3b1eed7d00dba746f0efdabf01210202f94314d9e36193a30543c83391cdbcfb37ef272114c6bebdec387b89c03816ffffffff0231740100000000001976a91409c8cc59a1ac51e330e805a41d85076fa0732a8088ace03229000000000017a9147e48ef12c9bb05daa7b71f95e96e0f88ed58687f8700000000", "vin": [{"sequence": 4294967295, "scriptSig": {"hex": "4730440220092116c7eda5ec5a6a68f839d5913d58004d7ec6babbe988c6cd7011fe29b3a902206b961445fdd3b5b1fbf17e924dbaab8c81799f0804f9f74c30e48a531c85a26f01210273ac0765ee93ad4508968c9a6d88a3140e50c08d1a2f80bd3ea7e64ae8dd36d9", "asm": "30440220092116c7eda5ec5a6a68f839d5913d58004d7ec6babbe988c6cd7011fe29b3a902206b961445fdd3b5b1fbf17e924dbaab8c81799f0804f9f74c30e48a531c85a26f[ALL] 0273ac0765ee93ad4508968c9a6d88a3140e50c08d1a2f80bd3ea7e64ae8dd36d9"}, "vout": 0, "txid": "06210020de13b30ec035da3f4fafc9fa038986784b4a07375e1677401fbe08e7"}, {"sequence": 4294967295, "scriptSig": {"hex": "483045022100ae3205b37856315412284b99cca51a69853d563d4f860341dbe31e58f89f3b34022021bd7ce133309710a538bd2c7ccefd83e9a76aea3bc07c1c2963858c5c2aa166012102586984b3a79a95481eca243e328528cbacfdbaf77808fc190ac1f605314ac06a", "asm": "3045022100ae3205b37856315412284b99cca51a69853d563d4f860341dbe31e58f89f3b34022021bd7ce133309710a538bd2c7ccefd83e9a76aea3bc07c1c2963858c5c2aa166[ALL] 02586984b3a79a95481eca243e328528cbacfdbaf77808fc190ac1f605314ac06a"}, "vout": 1, "txid": "289ac9a5ea6328e8b4f58340fedc924d56e2d19cecadf6bb615a3581939b9ec1"}, {"sequence": 4294967295, "scriptSig": {"hex": "47304402204eff802233b99a32a1a01ab2fefb83d9faf48b2a6cc552381ac4f4c33f5267d802200f19e7fdcbd6c4725db82d8971bc83f5aa4425b6f999dbeff8babd0649c6d62c012103bae730292ad1653383c86a9bdc37b19316d4fbb74ad6ca7a6f5f0d0ed45ed843", "asm": "304402204eff802233b99a32a1a01ab2fefb83d9faf48b2a6cc552381ac4f4c33f5267d802200f19e7fdcbd6c4725db82d8971bc83f5aa4425b6f999dbeff8babd0649c6d62c[ALL] 03bae730292ad1653383c86a9bdc37b19316d4fbb74ad6ca7a6f5f0d0ed45ed843"}, "vout": 0, "txid": "5ae6bb058bcb5661cbb895dd7e5d2ed9a0507fe9c9b45900e5264fb5183dea1c"}, {"sequence": 4294967295, "scriptSig": {"hex": "483045022100be96df4c67bce5888524082fe4020982ad40e872f5ce898f035dab7e8d00fc9202203dfc7c60e89c60f2bd99dd690e10395685d58caadc4ad04477568e57b8f769b90121034872280b3a9f9ac2c4cab02cb33f083a328b5b44e76ebe0a691df807b2c960d2", "asm": "3045022100be96df4c67bce5888524082fe4020982ad40e872f5ce898f035dab7e8d00fc9202203dfc7c60e89c60f2bd99dd690e10395685d58caadc4ad04477568e57b8f769b9[ALL] 034872280b3a9f9ac2c4cab02cb33f083a328b5b44e76ebe0a691df807b2c960d2"}, "vout": 1, "txid": "8300adbdf9e72606033cd0a26850d85bc1f2978cfcab2a4882e407872ccdee42"}, {"sequence": 4294967295, "scriptSig": {"hex": "483045022100b6511b6bf53589097eed7e125e96d61b4bc0927b33de2e58dff9a8c5deecc2a702207d0ee1aa03c928d2cb050ad0c337580f369f0ae2c5b88f38746d0237651010970121030a548b95d1c6b633a63096fb7a373ba159050a29ef0284aa73ce3bb5e00cd101", "asm": "3045022100b6511b6bf53589097eed7e125e96d61b4bc0927b33de2e58dff9a8c5deecc2a702207d0ee1aa03c928d2cb050ad0c337580f369f0ae2c5b88f38746d023765101097[ALL] 030a548b95d1c6b633a63096fb7a373ba159050a29ef0284aa73ce3bb5e00cd101"}, "vout": 1, "txid": "9dd1ed31403dedd5416d620abddc45cf284bdb8fa51968272db06f560d085d28"}, {"sequence": 4294967295, "scriptSig": {"hex": "48304502210080e8e8ee8188e43f602712309520ff969dd507307e992101d9fd05d7f8c5a73f022021023127312dcc0776230af63e3038b37849f058a9bf399f4569d2e8aba346f30121024298cfc00d0fa8079ebff1ad4b081e9bf09505c8b884083160d6c5bbcf7f9cc9", "asm": "304502210080e8e8ee8188e43f602712309520ff969dd507307e992101d9fd05d7f8c5a73f022021023127312dcc0776230af63e3038b37849f058a9bf399f4569d2e8aba346f3[ALL] 024298cfc00d0fa8079ebff1ad4b081e9bf09505c8b884083160d6c5bbcf7f9cc9"}, "vout": 1, "txid": "9ded77f42dd6deb7224f0b4d8cd8a84540e00e55d78b0b068d3aef1506fb858c"}, {"sequence": 4294967295, "scriptSig": {"hex": "47304402206c42d2fcc97dffd4032ef643d8b9246ebca845ddabfd5275ea058035c667b4a9022076473d8a749ccd23d679c6298d2722f000717853bd7e844cd8a390e58bb4b4360121031f7f7e0b7fd67f05b87f8daaea5869105f5e2a2033fda0ce9c47102250dfdab8", "asm": "304402206c42d2fcc97dffd4032ef643d8b9246ebca845ddabfd5275ea058035c667b4a9022076473d8a749ccd23d679c6298d2722f000717853bd7e844cd8a390e58bb4b436[ALL] 031f7f7e0b7fd67f05b87f8daaea5869105f5e2a2033fda0ce9c47102250dfdab8"}, "vout": 1, "txid": "a8dc60e16bebc0a34a1f2e768a42146f5887ec9a1fee958e0e72a5466a37b622"}, {"sequence": 4294967295, "scriptSig": {"hex": "483045022100bcdae1bf2b50ec4690d0d6426df82ee8faa1d3e7d878b71ed6d351a9ecdcce3002202ac3d5ce5f623fd1642627faaeb1bda52f0a2ebbdd807f8dd3e8f02a279ce2c301210374e73ed8004b6bd2a32384bc14006dd6454fddbf8ac13a5b3abe93bff40c400a", "asm": "3045022100bcdae1bf2b50ec4690d0d6426df82ee8faa1d3e7d878b71ed6d351a9ecdcce3002202ac3d5ce5f623fd1642627faaeb1bda52f0a2ebbdd807f8dd3e8f02a279ce2c3[ALL] 0374e73ed8004b6bd2a32384bc14006dd6454fddbf8ac13a5b3abe93bff40c400a"}, "vout": 0, "txid": "a9f5c92baf2d34d9731b62ab227a47b78cf8d92342d8a355ed9010ff2f77eaca"}, {"sequence": 4294967295, "scriptSig": {"hex": "4730440220764f083f4e1da0396b246feae16ffb950cdadc71e165fc8efbd03d5145e0cfbd02201348aca3fdaeff5579d2ab47a259b70cd6a22a2c3b1eed7d00dba746f0efdabf01210202f94314d9e36193a30543c83391cdbcfb37ef272114c6bebdec387b89c03816", "asm": "30440220764f083f4e1da0396b246feae16ffb950cdadc71e165fc8efbd03d5145e0cfbd02201348aca3fdaeff5579d2ab47a259b70cd6a22a2c3b1eed7d00dba746f0efdabf[ALL] 0202f94314d9e36193a30543c83391cdbcfb37ef272114c6bebdec387b89c03816"}, "vout": 1, "txid": "c8e7a619d3baa770b21dd6d4c2c9a686970be529a462f3373a0070600e37fb92"}], "txid": "61d502d35586c4a96307b21e3f0a5f5100e3e866fc64397e4594033661a33b86", "blocktime": 1537870268, "version": 1, "confirmations": 11516, "time": 1537870268, "locktime": 0, "vsize": 1404, "size": 1404}