{"hash": "61d5c0a06e0afb03217a477093ed4bb075eec5961a47dfb574ddd08e271f765e", "blockhash": "0000000000000000001f0ddff1eddb255c1121bcd4da4f1bc9a0da00cae72433", "vout": [{"scriptPubKey": {"reqSigs": 1, "hex": "76a91454c9fb526ad56057a95c04ea4b8d10f50e87c4db88ac", "addresses": ["18jKj3ueVFhAHd6FHo1c8xeD4jazWvrZKj"], "asm": "OP_DUP OP_HASH160 54c9fb526ad56057a95c04ea4b8d10f50e87c4db OP_EQUALVERIFY OP_CHECKSIG", "type": "pubkeyhash"}, "value": 0.00013467, "n": 0}, {"scriptPubKey": {"reqSigs": 1, "hex": "a91469f37642a1ed09b6cc408cc2a9734e2993878b1787", "addresses": ["3BMEXifFwR61rYmtXwa5Rxx6F8Us5qZPKm"], "asm": "OP_HASH160 69f37642a1ed09b6cc408cc2a9734e2993878b17 OP_EQUAL", "type": "scripthash"}, "value": 0.01408169, "n": 1}, {"scriptPubKey": {"reqSigs": 1, "hex": "76a914454e685015cac69ae0212dd0f303b360b4b31e3288ac", "addresses": ["17KTZ5p5eqCCj8ikwpUSBAy2fhR8UampU7"], "asm": "OP_DUP OP_HASH160 454e685015cac69ae0212dd0f303b360b4b31e32 OP_EQUALVERIFY OP_CHECKSIG", "type": "pubkeyhash"}, "value": 9.087e-05, "n": 2}], "hex": "010000000204c9f257750facb0daf7297c583ff4a4ffe1873360cf6d03a40b28158e765449000000006b4830450221008a4ac606c01d06c46ab12ee7ab43f91ce3816ae69ed64cd3f6232ba802d5f6d0022052deedc9e4e0ee201a689c98961a579f24f305d482e06c77fe07e7e04ddef6ce012102666bbcf388c2bcf9e543e3e46084f6d1a232e505d6772ce451e0bd6b57df5590ffffffff630ae4fbecde06e504e458316962fbcf06104f24cdb1ca12e996f591b862d9ec020000006a47304402206359ef236bc171c2471532693fda36f50457ef2b84ea012144950f83efc35628022020c5ab7b559421fb9eb786ac45898e47e76c93b4d7805170a2d3ad6447f3d88a0121036185fbee58b6ff31915d286d281675c9dde701f73c97b2014c3965f4a57d976fffffffff039b340000000000001976a91454c9fb526ad56057a95c04ea4b8d10f50e87c4db88aca97c15000000000017a91469f37642a1ed09b6cc408cc2a9734e2993878b17877f230000000000001976a914454e685015cac69ae0212dd0f303b360b4b31e3288ac00000000", "vin": [{"sequence": 4294967295, "scriptSig": {"hex": "4830450221008a4ac606c01d06c46ab12ee7ab43f91ce3816ae69ed64cd3f6232ba802d5f6d0022052deedc9e4e0ee201a689c98961a579f24f305d482e06c77fe07e7e04ddef6ce012102666bbcf388c2bcf9e543e3e46084f6d1a232e505d6772ce451e0bd6b57df5590", "asm": "30450221008a4ac606c01d06c46ab12ee7ab43f91ce3816ae69ed64cd3f6232ba802d5f6d0022052deedc9e4e0ee201a689c98961a579f24f305d482e06c77fe07e7e04ddef6ce[ALL] 02666bbcf388c2bcf9e543e3e46084f6d1a232e505d6772ce451e0bd6b57df5590"}, "vout": 0, "txid": "4954768e15280ba4036dcf603387e1ffa4f43f587c29f7dab0ac0f7557f2c904"}, {"sequence": 4294967295, "scriptSig": {"hex": "47304402206359ef236bc171c2471532693fda36f50457ef2b84ea012144950f83efc35628022020c5ab7b559421fb9eb786ac45898e47e76c93b4d7805170a2d3ad6447f3d88a0121036185fbee58b6ff31915d286d281675c9dde701f73c97b2014c3965f4a57d976f", "asm": "304402206359ef236bc171c2471532693fda36f50457ef2b84ea012144950f83efc35628022020c5ab7b559421fb9eb786ac45898e47e76c93b4d7805170a2d3ad6447f3d88a[ALL] 036185fbee58b6ff31915d286d281675c9dde701f73c97b2014c3965f4a57d976f"}, "vout": 2, "txid": "ecd962b891f596e912cab1cd244f1006cffb62693158e404e506deecfbe40a63"}], "txid": "61d5c0a06e0afb03217a477093ed4bb075eec5961a47dfb574ddd08e271f765e", "blocktime": 1537872018, "version": 1, "confirmations": 11489, "time": 1537872018, "locktime": 0, "vsize": 405, "size": 405}