{"hash": "61d62b123ae2d59ae63c9555aee2030ce6266ac4996b753b4e0644a0b7804813", "blockhash": "0000000000000000001f0ddff1eddb255c1121bcd4da4f1bc9a0da00cae72433", "vout": [{"scriptPubKey": {"reqSigs": 1, "hex": "76a914d6ca9f75c043dec62cb0293cdf9db8b2aab7b51b88ac", "addresses": ["1LaiLY9K3RcPNRrHp5S9KJPuqpW7wgEaT3"], "asm": "OP_DUP OP_HASH160 d6ca9f75c043dec62cb0293cdf9db8b2aab7b51b OP_EQUALVERIFY OP_CHECKSIG", "type": "pubkeyhash"}, "value": 0.00171476, "n": 0}, {"scriptPubKey": {"reqSigs": 1, "hex": "76a9147cb6d6dfac1adad7cdc2442b9926fac5bc0ad38488ac", "addresses": ["1CNRpgtcdJ2GvciaRuh9twDuNk1jDkF7mh"], "asm": "OP_DUP OP_HASH160 7cb6d6dfac1adad7cdc2442b9926fac5bc0ad384 OP_EQUALVERIFY OP_CHECKSIG", "type": "pubkeyhash"}, "value": 0.0027762, "n": 1}], "hex": "01000000015560089ebcbaedfbd2df8de2bb8ba6b1d2fc25bad91cc97e8d453e538149e1c8210000006a473044022003f3f9bbe4ae678fbbf1de097fbefc1397c5a47cf175136dd90e503c8d261ba80220423d9b78ff9c0a5d86c12e776b8c8773f9282979cba1ee36ab200f39ef1dd4eb01210295cfaa43cd29c4b2398c36357393ed502cab0faf55fc23625b42ddd30f7b7a8effffffff02d49d0200000000001976a914d6ca9f75c043dec62cb0293cdf9db8b2aab7b51b88ac743c0400000000001976a9147cb6d6dfac1adad7cdc2442b9926fac5bc0ad38488ac00000000", "vin": [{"sequence": 4294967295, "scriptSig": {"hex": "473044022003f3f9bbe4ae678fbbf1de097fbefc1397c5a47cf175136dd90e503c8d261ba80220423d9b78ff9c0a5d86c12e776b8c8773f9282979cba1ee36ab200f39ef1dd4eb01210295cfaa43cd29c4b2398c36357393ed502cab0faf55fc23625b42ddd30f7b7a8e", "asm": "3044022003f3f9bbe4ae678fbbf1de097fbefc1397c5a47cf175136dd90e503c8d261ba80220423d9b78ff9c0a5d86c12e776b8c8773f9282979cba1ee36ab200f39ef1dd4eb[ALL] 0295cfaa43cd29c4b2398c36357393ed502cab0faf55fc23625b42ddd30f7b7a8e"}, "vout": 33, "txid": "c8e14981533e458d7ec91cd9ba25fcd2b1a68bbbe28ddfd2fbedbabc9e086055"}], "txid": "61d62b123ae2d59ae63c9555aee2030ce6266ac4996b753b4e0644a0b7804813", "blocktime": 1537872018, "version": 1, "confirmations": 11489, "time": 1537872018, "locktime": 0, "vsize": 225, "size": 225}