{"hash": "00e1d9c74b2fc3327c67945f8dc27d7ef107dab2ff5201f74849d09fa5f470e6", "blockhash": "00000000000000000017f5eb5941039fbcee6240d03bc1f2f8e35350df66a1d8", "vout": [{"scriptPubKey": {"reqSigs": 1, "hex": "0014f97adc692e1083a3e3bafc693ac9be381596af9e", "addresses": ["bc1ql9adc6fwzzp68ca6l35n4jd78q2edtu78nnffw"], "asm": "0 f97adc692e1083a3e3bafc693ac9be381596af9e", "type": "witness_v0_keyhash"}, "value": 0.00256497, "n": 0}, {"scriptPubKey": {"reqSigs": 1, "hex": "76a9140b5747d6199d9de6e593cf82d16f9ca846b1f2dc88ac", "addresses": ["122xzUT7Kh1bzzrS61euqGEKUHPQ6fNiL3"], "asm": "OP_DUP OP_HASH160 0b5747d6199d9de6e593cf82d16f9ca846b1f2dc OP_EQUALVERIFY OP_CHECKSIG", "type": "pubkeyhash"}, "value": 0.0156, "n": 1}], "hex": "0100000000010134a90e7366f97af436c3a1190f05bceab7b812263b1dc632bdda78f099dfac8d0000000017160014d79108280837fa31744d4b3d222f5bf5cb94303effffffff02f1e9030000000000160014f97adc692e1083a3e3bafc693ac9be381596af9ec0cd1700000000001976a9140b5747d6199d9de6e593cf82d16f9ca846b1f2dc88ac02483045022100e3780bdef26c8743527c0e08892403c2d9b4c82eec2754190832f6a937942e63022016817d6838d62310982df66dde665f51add5e0a077d58fdbd4404e94bc0e4ff6012102509e19029357704dafd231cb6d1bc234435b38ad723dea72a1c30307938a3a8300000000", "vin": [{"txinwitness": ["3045022100e3780bdef26c8743527c0e08892403c2d9b4c82eec2754190832f6a937942e63022016817d6838d62310982df66dde665f51add5e0a077d58fdbd4404e94bc0e4ff601", "02509e19029357704dafd231cb6d1bc234435b38ad723dea72a1c30307938a3a83"], "sequence": 4294967295, "scriptSig": {"hex": "160014d79108280837fa31744d4b3d222f5bf5cb94303e", "asm": "0014d79108280837fa31744d4b3d222f5bf5cb94303e"}, "vout": 0, "txid": "8dacdf99f078dabd32c61d3b2612b8b7eabc050f19a1c336f47af966730ea934"}], "txid": "61e52524f6e3faa2793e94dad3317c7918d3a781183ee0cabcd90d220d412263", "blocktime": 1537874412, "version": 1, "confirmations": 11468, "time": 1537874412, "locktime": 0, "vsize": 167, "size": 249}