{"hash": "61ed45ed63297730aeac9908296551b8e17fb9b35c3fc646d212f0ba18beff74", "blockhash": "0000000000000000001e0dab787dd257d1dbfcb92a98c2207d5e1078be1f4165", "vout": [{"scriptPubKey": {"reqSigs": 1, "hex": "76a9148f70f693e3256830e1f78eb6760584436777090c88ac", "addresses": ["1E5SxFcydLDK6hMqzYZEZHQmRToc3PjtR6"], "asm": "OP_DUP OP_HASH160 8f70f693e3256830e1f78eb6760584436777090c OP_EQUALVERIFY OP_CHECKSIG", "type": "pubkeyhash"}, "value": 0.00997862, "n": 0}, {"scriptPubKey": {"reqSigs": 1, "hex": "76a9145301a69b2a0fbb20c998a318ab4c246a030d83ba88ac", "addresses": ["18Zu4d4zLth71ghodwhhsTExQpQGEWyfCQ"], "asm": "OP_DUP OP_HASH160 5301a69b2a0fbb20c998a318ab4c246a030d83ba OP_EQUALVERIFY OP_CHECKSIG", "type": "pubkeyhash"}, "value": 0.01599401, "n": 1}], "hex": "0200000003e51f4d54877d4af6e27e2b723b1a97c885b19e5ccad3d378282006da9dcc4fe2000000006b483045022100b41ad947530dafa281e7448eb8a185392d6d8e0db44bcd7b251b23ab06fe6d0002207010de24cb492acd809594adc1e8484553f700b30ad84e44e440864fb65bf21d012102bd9dc6dd373057e0799a2980eab45f707087709f89ce304b0a60fee21943335bfeffffff799aa18ffa45e1c14387d88ec791d1d6bf0cf01bc14edb168087a1e1955bb030000000006b483045022100a77f429fbd7ebdfc652be6d7df2d76694374b16266575128626240c1afcadd4b0220216c44ad570eb397a6479471a9ae5d63b930b6cb8357ebcd0c53a4a59d7365390121030680bff132354436d50bd858a6f8af55d3e8bbce026e116d9e5cc7f30bfcd6b6feffffff6d97966b1f80a55211ea629dbb4ac546424c7787efda725924e24c8e82d5a6f0010000006b483045022100c00853eb496922284bf555bc94d97376b77a582c82c3171fe68bdb35ac723b3e02205559ffe3a33c8e5ba5942d5645a0db6cf0e9bdd0e908740692d7da8f598656790121037d8f2123d0890adfbc943c7d63d95fbdb5fa98dd3d4d3b6e1488de9a3a4fbddcfeffffff02e6390f00000000001976a9148f70f693e3256830e1f78eb6760584436777090c88aca9671800000000001976a9145301a69b2a0fbb20c998a318ab4c246a030d83ba88ac00000000", "vin": [{"sequence": 4294967294, "scriptSig": {"hex": "483045022100b41ad947530dafa281e7448eb8a185392d6d8e0db44bcd7b251b23ab06fe6d0002207010de24cb492acd809594adc1e8484553f700b30ad84e44e440864fb65bf21d012102bd9dc6dd373057e0799a2980eab45f707087709f89ce304b0a60fee21943335b", "asm": "3045022100b41ad947530dafa281e7448eb8a185392d6d8e0db44bcd7b251b23ab06fe6d0002207010de24cb492acd809594adc1e8484553f700b30ad84e44e440864fb65bf21d[ALL] 02bd9dc6dd373057e0799a2980eab45f707087709f89ce304b0a60fee21943335b"}, "vout": 0, "txid": "e24fcc9dda06202878d3d3ca5c9eb185c8971a3b722b7ee2f64a7d87544d1fe5"}, {"sequence": 4294967294, "scriptSig": {"hex": "483045022100a77f429fbd7ebdfc652be6d7df2d76694374b16266575128626240c1afcadd4b0220216c44ad570eb397a6479471a9ae5d63b930b6cb8357ebcd0c53a4a59d7365390121030680bff132354436d50bd858a6f8af55d3e8bbce026e116d9e5cc7f30bfcd6b6", "asm": "3045022100a77f429fbd7ebdfc652be6d7df2d76694374b16266575128626240c1afcadd4b0220216c44ad570eb397a6479471a9ae5d63b930b6cb8357ebcd0c53a4a59d736539[ALL] 030680bff132354436d50bd858a6f8af55d3e8bbce026e116d9e5cc7f30bfcd6b6"}, "vout": 0, "txid": "30b05b95e1a1878016db4ec11bf00cbfd6d191c78ed88743c1e145fa8fa19a79"}, {"sequence": 4294967294, "scriptSig": {"hex": "483045022100c00853eb496922284bf555bc94d97376b77a582c82c3171fe68bdb35ac723b3e02205559ffe3a33c8e5ba5942d5645a0db6cf0e9bdd0e908740692d7da8f598656790121037d8f2123d0890adfbc943c7d63d95fbdb5fa98dd3d4d3b6e1488de9a3a4fbddc", "asm": "3045022100c00853eb496922284bf555bc94d97376b77a582c82c3171fe68bdb35ac723b3e02205559ffe3a33c8e5ba5942d5645a0db6cf0e9bdd0e908740692d7da8f59865679[ALL] 037d8f2123d0890adfbc943c7d63d95fbdb5fa98dd3d4d3b6e1488de9a3a4fbddc"}, "vout": 1, "txid": "f0a6d5828e4ce2245972daef87774c4246c54abb9d62ea1152a5801f6b96976d"}], "txid": "61ed45ed63297730aeac9908296551b8e17fb9b35c3fc646d212f0ba18beff74", "blocktime": 1537872475, "version": 2, "confirmations": 11486, "time": 1537872475, "locktime": 0, "vsize": 522, "size": 522}