{"hash": "7c80b0ce3cb14af80ba37ef12d0ab074eb835ca1c55efd16c001db5c5a6a115e", "blockhash": "0000000000000000000e13cef7c366c0283d82e591d1acd082e914b08063cdf1", "vout": [{"scriptPubKey": {"reqSigs": 1, "hex": "a914aa7f7dcedb8b9f7a0681dbd0797132d81aa99b9687", "addresses": ["3HEXXR3MLm2fgMMqdNSsywLU88jJyoJySj"], "asm": "OP_HASH160 aa7f7dcedb8b9f7a0681dbd0797132d81aa99b96 OP_EQUAL", "type": "scripthash"}, "value": 0.00996326, "n": 0}, {"scriptPubKey": {"reqSigs": 1, "hex": "a9149d2052af9a0dc04907565c99fb949b698f88617587", "addresses": ["3G1pjW4vmNQqaFUJ6zYtHMqVEPRN3K6eSG"], "asm": "OP_HASH160 9d2052af9a0dc04907565c99fb949b698f886175 OP_EQUAL", "type": "scripthash"}, "value": 3.160061, "n": 1}], "hex": "0200000000010e10e620c9e2bf84efa74626958ee11f4c7102ef7af8a1c7e45c69214fe4d10da50000000017160014ad521b9e5abec4454cc9033cc1ba503dd163fc06feffffff2a1ea5a63c5fc740b7f01454b48b0632df0cde986b2e18f598b2ea733281645b000000001716001466f88d256ea258062c646d38ca04af258232b850feffffff2fc119c5e13f76b6e71ba9558b00931813676387ebb79781ff3a633aaa1c2e79010000006b483045022100f826d70d5872a908b32196fdeb12314b8a44c1052bc9740f693ff6675c05e10c02200a5bbe8cfa5daacf326044da24079216b44c11cc2bdb7ecd19805c8eeafe0c9201210364bd4660572cd5a858ee0c5352d94635b420870b304c11dc99736a25387c9eddfeffffff368c2938867a8e333dab812dc0d52da98f0c8614c8e9a8a8670ba84934c6d22b0200000017160014ee14fd941377be4f568b045311a288002ac63037feffffff472337f5d2050e88d771ac36bf2a7bb5faec9adda0d8dceb40de7fdec1b0c2c9000000001716001472e550e1f7bffcf8d56b4d47838128dc29041edcfeffffff563dfb43d238a0882df6b6a45113c0c9b9688a6ce977ab7ddb89ce6a38d331f601000000171600141934f953ece45c17c61a36952e80d32bb506905cfeffffff5d595051d0143392a28d6b583cb7135a276b1b2f967320ec7e7b6ae328fa31940100000017160014cab58878acec08f1a890988a50a866692531eb49feffffff6cf5c222fbd94cf17abef87586d0c62ab502648894020d9d439e0e90ac1addf101000000171600146472e8a5d18bff7e023587127f7e28a4d7c8ed55feffffff73a5947cc24eab5ca967ede391cf7d34c5d1f828c51190d0a43c989cee5de7a61200000017160014e99b689cbc7b07712b5afe0928c3d6030f8d0037feffffffa4b96d757fc04939073b082e144b4f94893f05bbf475ad11102ec04b14a728d009000000171600144916ce371f32d21df014d8a0a6dbdee252aa1779feffffffa5748d514836235ea82621021c68273d117501e914b7bc0a83c400eee8db4efe0100000017160014c7746d37ccf72009e29130055222c2f619e3c08bfeffffffb88b2a6e427d6ca0840bb05c22599211852d79aa69eb2a107805c869d404e428010000001716001451e6bfb3924ad449add73bace851341ab8be4d37feffffffbfde7ee51fec7a99ae986a9fe6361ec62c55f7a8b77288016505920352cf5ff600000000171600147a7355dbac597dbdffb1c07e4d57519c4165df74fefffffffe9498d8be19e9a01684545e94bde7524ce71382bda68deae567cd069d861fb40000000017160014de4882848788d7259bde7ca474d7396e6a0497a9feffffff02e6330f000000000017a914aa7f7dcedb8b9f7a0681dbd0797132d81aa99b9687d4ded5120000000017a9149d2052af9a0dc04907565c99fb949b698f88617587024830450221009ce8a297aefd58f8e1ddd976a6aa7d2a8f15f62b09b3a06c9a980ae573ed291b02200632d74b2b8a277e904eb4ad0e16e655af44c13ba903285603ead3b77142b54601210253104ccd28f824122b58d52c4accbc183a51074c23d51c390ab9195edc1be5e50247304402202d63f22bd1e042713fb3bb8ac8ea0b6608931c0e8256fd5d5ab01ee1d012c64502205825d3f3bcc2b5192c084ecc0dab36897312d45bc5af7995555036246cdc3ecc0121024ed622203576549b1a82f9b37ac7c8a067dcaaa295ee31b0bc10b2b41f2ab1a90002473044022055cd194a94ead0b83aa90eb20628aba182bdf031862d5005d4363c7cd5b2e8ea022052463ba88d37977ab0622713df5536d3a3decb29333976d3877a0973e497354c0121034ff90a79e7c51db6087c433d503a88e2283118ede5dd0433686c9931d2d71b6802473044022030c09faf66dab258cbd6d0041f4e6db71055648b5ecfaad25c8c27b6bd591fc50220452e1f8c5d6c763eb590ea5938076a8eee6294d0c1550837e8c5fdf52f6cc9a401210208366e010cd39e69c93b53d8f072619f2e0e0c604d7d348149195d79a52f6ef70247304402204620ebacc8e347006c4eb1af3a879d4ac0704e8a49781c96b8083f3635fcce3b02201f5ab360036d62cb1a44ceff915c5bea5f97791901a98d39545bf453b1f9ca7401210357231a16615a54270ca0ca57364ddbde942aa4849dd9b5a94c796b83139e98ce02483045022100db4315046aa7ee9a2f2a901c8b7edf2951c4a3f372e8dcfcd5f8e879a0d9ab1b02204fa50d9a164836b89139d8c02fcfea753bd0c51306d29daa1dfbec8a9c7555250121033fb99b90cb4ed135a177794ab0be37f3991ae6f9db67458c1ae55ab7a0f6977e02463043021f753976ec549635f8ebc982d6d0295d8e60d9da27fdf3ff2cb0f64430efe783022069160dd3aff6043136645c252e2f596f44d85352dd1bc2a872dea54cfbfc0b280121033c0338208ece5685234e1755e547bc8fa505733a872c7f6261f13cdc78f7d70402483045022100b94fe46eab67cb88a6a3339fce2d5c97768fcd702a8a18cacd36c51a52bb3c5a0220144f4d948f63b4619cd502997ddb9264cc5349a9dce1879f8561b3b8ff462bb8012103fb9666c2c8e2f9914a44c49eaa6440b9ea1750a5c5407ba39515676abade533d024730440220516eede170d15964464821c4233a4b80460a51a87f58b24713e3ea846bd5e1130220224f309c1484c5aec06731649d470aff5c797386d03be187c400c262819dcbdd0121020414762e89fd98808cfab847bffd2fa9bfeca0d1356fadccf4eb2e13facc7eef02483045022100bc75c19faacee5bef34f03e4b133d5eaec00cacfb0ffc2ed5bf0e4a58c72222302201c9a0bcecda86b7b6b41997cf343efeed409540edf152fd5a0f80f3d9726e8d90121024635bb50fc3090791545e5048ee7005a99469f20df9229cc7181e5ede88a0c9702483045022100bc647fd69fe238b2cd0702d0940cb0150cb95a54c029d4d348318bf1d311a9cc0220733c4ff02ae61d2f92637d1c35f98cfc44e98ba7387914fcdb73f03825a183ae01210352e77858edc3771cd115f9dec89e8a0c4114d62de828b3f8324ffc76a3b4d1de02483045022100caa7079706d415448c6053655712bb70ae52bfdc892819f7ab79f82b05abbe3f02205657ceb27c354d7761d9b26f4f5660f005faaf9004000671e70c92665a69ed9f012102ac35c69a8570078d46af2fa41665b1065ac2f0933ca43e1b21c19b53cb189ac802473044022049b95d9a79518b492b97ac6f82cfa24f8a1881bb0cce54dfca6a78a7020ac650022079d663faef7a85c4e12aa4e5dc344cacdb41c308fe6df0f7ee70e6131c0ef0400121020bd7369d6f7dfc519ec7353cd67c48ecd850daf730d12bdb2e1bbe62ee993d2b10490800", "vin": [{"txinwitness": ["30450221009ce8a297aefd58f8e1ddd976a6aa7d2a8f15f62b09b3a06c9a980ae573ed291b02200632d74b2b8a277e904eb4ad0e16e655af44c13ba903285603ead3b77142b54601", "0253104ccd28f824122b58d52c4accbc183a51074c23d51c390ab9195edc1be5e5"], "sequence": 4294967294, "scriptSig": {"hex": "160014ad521b9e5abec4454cc9033cc1ba503dd163fc06", "asm": "0014ad521b9e5abec4454cc9033cc1ba503dd163fc06"}, "vout": 0, "txid": "a50dd1e44f21695ce4c7a1f87aef02714c1fe18e952646a7ef84bfe2c920e610"}, {"txinwitness": ["304402202d63f22bd1e042713fb3bb8ac8ea0b6608931c0e8256fd5d5ab01ee1d012c64502205825d3f3bcc2b5192c084ecc0dab36897312d45bc5af7995555036246cdc3ecc01", "024ed622203576549b1a82f9b37ac7c8a067dcaaa295ee31b0bc10b2b41f2ab1a9"], "sequence": 4294967294, "scriptSig": {"hex": "16001466f88d256ea258062c646d38ca04af258232b850", "asm": "001466f88d256ea258062c646d38ca04af258232b850"}, "vout": 0, "txid": "5b64813273eab298f5182e6b98de0cdf32068bb45414f0b740c75f3ca6a51e2a"}, {"sequence": 4294967294, "scriptSig": {"hex": "483045022100f826d70d5872a908b32196fdeb12314b8a44c1052bc9740f693ff6675c05e10c02200a5bbe8cfa5daacf326044da24079216b44c11cc2bdb7ecd19805c8eeafe0c9201210364bd4660572cd5a858ee0c5352d94635b420870b304c11dc99736a25387c9edd", "asm": "3045022100f826d70d5872a908b32196fdeb12314b8a44c1052bc9740f693ff6675c05e10c02200a5bbe8cfa5daacf326044da24079216b44c11cc2bdb7ecd19805c8eeafe0c92[ALL] 0364bd4660572cd5a858ee0c5352d94635b420870b304c11dc99736a25387c9edd"}, "vout": 1, "txid": "792e1caa3a633aff8197b7eb876367131893008b55a91be7b6763fe1c519c12f"}, {"txinwitness": ["3044022055cd194a94ead0b83aa90eb20628aba182bdf031862d5005d4363c7cd5b2e8ea022052463ba88d37977ab0622713df5536d3a3decb29333976d3877a0973e497354c01", "034ff90a79e7c51db6087c433d503a88e2283118ede5dd0433686c9931d2d71b68"], "sequence": 4294967294, "scriptSig": {"hex": "160014ee14fd941377be4f568b045311a288002ac63037", "asm": "0014ee14fd941377be4f568b045311a288002ac63037"}, "vout": 2, "txid": "2bd2c63449a80b67a8a8e9c814860c8fa92dd5c02d81ab3d338e7a8638298c36"}, {"txinwitness": ["3044022030c09faf66dab258cbd6d0041f4e6db71055648b5ecfaad25c8c27b6bd591fc50220452e1f8c5d6c763eb590ea5938076a8eee6294d0c1550837e8c5fdf52f6cc9a401", "0208366e010cd39e69c93b53d8f072619f2e0e0c604d7d348149195d79a52f6ef7"], "sequence": 4294967294, "scriptSig": {"hex": "16001472e550e1f7bffcf8d56b4d47838128dc29041edc", "asm": "001472e550e1f7bffcf8d56b4d47838128dc29041edc"}, "vout": 0, "txid": "c9c2b0c1de7fde40ebdcd8a0dd9aecfab57b2abf36ac71d7880e05d2f5372347"}, {"txinwitness": ["304402204620ebacc8e347006c4eb1af3a879d4ac0704e8a49781c96b8083f3635fcce3b02201f5ab360036d62cb1a44ceff915c5bea5f97791901a98d39545bf453b1f9ca7401", "0357231a16615a54270ca0ca57364ddbde942aa4849dd9b5a94c796b83139e98ce"], "sequence": 4294967294, "scriptSig": {"hex": "1600141934f953ece45c17c61a36952e80d32bb506905c", "asm": "00141934f953ece45c17c61a36952e80d32bb506905c"}, "vout": 1, "txid": "f631d3386ace89db7dab77e96c8a68b9c9c01351a4b6f62d88a038d243fb3d56"}, {"txinwitness": ["3045022100db4315046aa7ee9a2f2a901c8b7edf2951c4a3f372e8dcfcd5f8e879a0d9ab1b02204fa50d9a164836b89139d8c02fcfea753bd0c51306d29daa1dfbec8a9c75552501", "033fb99b90cb4ed135a177794ab0be37f3991ae6f9db67458c1ae55ab7a0f6977e"], "sequence": 4294967294, "scriptSig": {"hex": "160014cab58878acec08f1a890988a50a866692531eb49", "asm": "0014cab58878acec08f1a890988a50a866692531eb49"}, "vout": 1, "txid": "9431fa28e36a7b7eec2073962f1b6b275a13b73c586b8da2923314d05150595d"}, {"txinwitness": ["3043021f753976ec549635f8ebc982d6d0295d8e60d9da27fdf3ff2cb0f64430efe783022069160dd3aff6043136645c252e2f596f44d85352dd1bc2a872dea54cfbfc0b2801", "033c0338208ece5685234e1755e547bc8fa505733a872c7f6261f13cdc78f7d704"], "sequence": 4294967294, "scriptSig": {"hex": "1600146472e8a5d18bff7e023587127f7e28a4d7c8ed55", "asm": "00146472e8a5d18bff7e023587127f7e28a4d7c8ed55"}, "vout": 1, "txid": "f1dd1aac900e9e439d0d0294886402b52ac6d08675f8be7af14cd9fb22c2f56c"}, {"txinwitness": ["3045022100b94fe46eab67cb88a6a3339fce2d5c97768fcd702a8a18cacd36c51a52bb3c5a0220144f4d948f63b4619cd502997ddb9264cc5349a9dce1879f8561b3b8ff462bb801", "03fb9666c2c8e2f9914a44c49eaa6440b9ea1750a5c5407ba39515676abade533d"], "sequence": 4294967294, "scriptSig": {"hex": "160014e99b689cbc7b07712b5afe0928c3d6030f8d0037", "asm": "0014e99b689cbc7b07712b5afe0928c3d6030f8d0037"}, "vout": 18, "txid": "a6e75dee9c983ca4d09011c528f8d1c5347dcf91e3ed67a95cab4ec27c94a573"}, {"txinwitness": ["30440220516eede170d15964464821c4233a4b80460a51a87f58b24713e3ea846bd5e1130220224f309c1484c5aec06731649d470aff5c797386d03be187c400c262819dcbdd01", "020414762e89fd98808cfab847bffd2fa9bfeca0d1356fadccf4eb2e13facc7eef"], "sequence": 4294967294, "scriptSig": {"hex": "1600144916ce371f32d21df014d8a0a6dbdee252aa1779", "asm": "00144916ce371f32d21df014d8a0a6dbdee252aa1779"}, "vout": 9, "txid": "d028a7144bc02e1011ad75f4bb053f89944f4b142e083b073949c07f756db9a4"}, {"txinwitness": ["3045022100bc75c19faacee5bef34f03e4b133d5eaec00cacfb0ffc2ed5bf0e4a58c72222302201c9a0bcecda86b7b6b41997cf343efeed409540edf152fd5a0f80f3d9726e8d901", "024635bb50fc3090791545e5048ee7005a99469f20df9229cc7181e5ede88a0c97"], "sequence": 4294967294, "scriptSig": {"hex": "160014c7746d37ccf72009e29130055222c2f619e3c08b", "asm": "0014c7746d37ccf72009e29130055222c2f619e3c08b"}, "vout": 1, "txid": "fe4edbe8ee00c4830abcb714e90175113d27681c022126a85e233648518d74a5"}, {"txinwitness": ["3045022100bc647fd69fe238b2cd0702d0940cb0150cb95a54c029d4d348318bf1d311a9cc0220733c4ff02ae61d2f92637d1c35f98cfc44e98ba7387914fcdb73f03825a183ae01", "0352e77858edc3771cd115f9dec89e8a0c4114d62de828b3f8324ffc76a3b4d1de"], "sequence": 4294967294, "scriptSig": {"hex": "16001451e6bfb3924ad449add73bace851341ab8be4d37", "asm": "001451e6bfb3924ad449add73bace851341ab8be4d37"}, "vout": 1, "txid": "28e404d469c80578102aeb69aa792d85119259225cb00b84a06c7d426e2a8bb8"}, {"txinwitness": ["3045022100caa7079706d415448c6053655712bb70ae52bfdc892819f7ab79f82b05abbe3f02205657ceb27c354d7761d9b26f4f5660f005faaf9004000671e70c92665a69ed9f01", "02ac35c69a8570078d46af2fa41665b1065ac2f0933ca43e1b21c19b53cb189ac8"], "sequence": 4294967294, "scriptSig": {"hex": "1600147a7355dbac597dbdffb1c07e4d57519c4165df74", "asm": "00147a7355dbac597dbdffb1c07e4d57519c4165df74"}, "vout": 0, "txid": "f65fcf5203920565018872b7a8f7552cc61e36e69f6a98ae997aec1fe57edebf"}, {"txinwitness": ["3044022049b95d9a79518b492b97ac6f82cfa24f8a1881bb0cce54dfca6a78a7020ac650022079d663faef7a85c4e12aa4e5dc344cacdb41c308fe6df0f7ee70e6131c0ef04001", "020bd7369d6f7dfc519ec7353cd67c48ecd850daf730d12bdb2e1bbe62ee993d2b"], "sequence": 4294967294, "scriptSig": {"hex": "160014de4882848788d7259bde7ca474d7396e6a0497a9", "asm": "0014de4882848788d7259bde7ca474d7396e6a0497a9"}, "vout": 0, "txid": "b41f869d06cd67e5ea8da6bd8213e74c52e7bd945e548416a0e919bed89894fe"}], "txid": "61f8910cfbaa0b9aaab022b0591f64c3830c47636f311ba1eda550a3d5eb6831", "blocktime": 1537871767, "version": 2, "confirmations": 11492, "time": 1537871767, "locktime": 542992, "vsize": 1404, "size": 2453}