{"hash": "ef1d73b0e9e6aef2ccfb38e9eb7f87b98b952112fdf27d00497037a2c491b527", "blockhash": "0000000000000000001cda96e906b7601b7a6fb1a3b62bca570a9e5d8f4b3de1", "vout": [{"scriptPubKey": {"reqSigs": 1, "hex": "a9148735ce6cbf4ea0fc87e2544d7609a8356718302a87", "addresses": ["3E1wbyHyfYs9o428kscDUTWKqVdr9Bwp7b"], "asm": "OP_HASH160 8735ce6cbf4ea0fc87e2544d7609a8356718302a OP_EQUAL", "type": "scripthash"}, "value": 0.0002, "n": 0}, {"scriptPubKey": {"reqSigs": 1, "hex": "a91449d7e96499e76d96ef877a2fcb98823c8bccba2187", "addresses": ["38RTuMXR3rjgmqC2TwiJHrCLzc9nbGoNw7"], "asm": "OP_HASH160 49d7e96499e76d96ef877a2fcb98823c8bccba21 OP_EQUAL", "type": "scripthash"}, "value": 0.00030956, "n": 1}], "hex": "0100000000010101536f75bdf218a0b13f9b439a7861a7d05dca08dcd1ec362f9cd426a1690f6e00000000232200202a9a1aa43dd52fca361d638a9bb1c7c7a7b32bed598a04104268b8ecbdbfe96fffffffff02204e00000000000017a9148735ce6cbf4ea0fc87e2544d7609a8356718302a87ec7800000000000017a91449d7e96499e76d96ef877a2fcb98823c8bccba2187040047304402207f33b742d8cda790c80dfe66964634f5586143757a90b2b74f6b200f5f0e09e902201d22b0d299d79605012f0043b8833e1e97630bbdd1ff1ec2404b63775e0465c20148304502210083cbaabf0b7162a81cabe1f3e03c3cc752a1b0e4a2cf72939a662d2179af122b02207f2d56be3418ed62ccf8948cc6a6105391636df8bc1206798a76858ab9797b250147522103ea39afa13bfc0b16775c1ffdd58dbb69a77441d8211cfd208f16ac7437c451312103338f346cab6ba87fe940591a03ac234be06520c5ab386d4b6632e8eef0d0db7652ae00000000", "vin": [{"txinwitness": ["", "304402207f33b742d8cda790c80dfe66964634f5586143757a90b2b74f6b200f5f0e09e902201d22b0d299d79605012f0043b8833e1e97630bbdd1ff1ec2404b63775e0465c201", "304502210083cbaabf0b7162a81cabe1f3e03c3cc752a1b0e4a2cf72939a662d2179af122b02207f2d56be3418ed62ccf8948cc6a6105391636df8bc1206798a76858ab9797b2501", "522103ea39afa13bfc0b16775c1ffdd58dbb69a77441d8211cfd208f16ac7437c451312103338f346cab6ba87fe940591a03ac234be06520c5ab386d4b6632e8eef0d0db7652ae"], "sequence": 4294967295, "scriptSig": {"hex": "2200202a9a1aa43dd52fca361d638a9bb1c7c7a7b32bed598a04104268b8ecbdbfe96f", "asm": "00202a9a1aa43dd52fca361d638a9bb1c7c7a7b32bed598a04104268b8ecbdbfe96f"}, "vout": 0, "txid": "6e0f69a126d49c2f36ecd1dc08ca5dd0a761789a439b3fb1a018f2bd756f5301"}], "txid": "61fc16d940becb8bfcdd2642c97b1b48880418d7820f4986e4c73cc1793aa713", "blocktime": 1537873282, "version": 1, "confirmations": 11484, "time": 1537873282, "locktime": 0, "vsize": 206, "size": 371}