{"hash": "61ff2d3891e14e28a21eaf4d7d50087980af3a94238235e0d471be7de9d6a308", "blockhash": "000000000000000000022b45ed06c6f4ccd3cf7fb5ba4856ebd2e58215665228", "vout": [{"scriptPubKey": {"reqSigs": 1, "hex": "76a914c5b7fd920dce5f61934e792c7e6fcc829aff533d88ac", "addresses": ["1K2SXgApmo9uZoyahvsbSanpVWbzZWVVMF"], "asm": "OP_DUP OP_HASH160 c5b7fd920dce5f61934e792c7e6fcc829aff533d OP_EQUALVERIFY OP_CHECKSIG", "type": "pubkeyhash"}, "value": 0.0042055, "n": 0}, {"scriptPubKey": {"type": "nulldata", "hex": "6a2846610000000270767a260dad5215fbc52d49f0c91c7fff8f82aef7de6572565ccf5e8b50ab43f069", "asm": "OP_RETURN 46610000000270767a260dad5215fbc52d49f0c91c7fff8f82aef7de6572565ccf5e8b50ab43f069"}, "value": 0.0, "n": 1}], "hex": "0200000001917c3d18d5b9d8dcde89b581960b1707a880ec6550df0e3545c612146b2d947b000000006a47304402201e2dd0401cfeb984732fa5da771decba3ba2d45155710d21a855743aa17bd6e50220390f71b72a6411e43dae33f4fadd8cbd1624a6dc91212c804023632b190850f50121027e706cd1c919431b693a0247e4a239e632659a8723a621a91ec610c64f4173acffffffff02c66a0600000000001976a914c5b7fd920dce5f61934e792c7e6fcc829aff533d88ac00000000000000002a6a2846610000000270767a260dad5215fbc52d49f0c91c7fff8f82aef7de6572565ccf5e8b50ab43f06900000000", "vin": [{"sequence": 4294967295, "scriptSig": {"hex": "47304402201e2dd0401cfeb984732fa5da771decba3ba2d45155710d21a855743aa17bd6e50220390f71b72a6411e43dae33f4fadd8cbd1624a6dc91212c804023632b190850f50121027e706cd1c919431b693a0247e4a239e632659a8723a621a91ec610c64f4173ac", "asm": "304402201e2dd0401cfeb984732fa5da771decba3ba2d45155710d21a855743aa17bd6e50220390f71b72a6411e43dae33f4fadd8cbd1624a6dc91212c804023632b190850f5[ALL] 027e706cd1c919431b693a0247e4a239e632659a8723a621a91ec610c64f4173ac"}, "vout": 0, "txid": "7b942d6b1412c645350edf5065ec80a807170b9681b589dedcd8b9d5183d7c91"}], "txid": "61ff2d3891e14e28a21eaf4d7d50087980af3a94238235e0d471be7de9d6a308", "blocktime": 1537869901, "version": 2, "confirmations": 11522, "time": 1537869901, "locktime": 0, "vsize": 242, "size": 242}