{"hash": "620027c1ef176315749cb1a40dcb2a078637f98c017f8b6b2e0b96d913643165", "blockhash": "00000000000000000017f5eb5941039fbcee6240d03bc1f2f8e35350df66a1d8", "vout": [{"scriptPubKey": {"type": "nulldata", "hex": "6a146f6d6e69000000000000001f0000002e90edd000", "asm": "OP_RETURN 6f6d6e69000000000000001f0000002e90edd000"}, "value": 0.0, "n": 0}, {"scriptPubKey": {"reqSigs": 1, "hex": "76a91476661856cab76eda27be02ac5d4c560f12e4471488ac", "addresses": ["1Bo33Kv41dCgxZ1vqiPbFCQ46RZJEJcg6B"], "asm": "OP_DUP OP_HASH160 76661856cab76eda27be02ac5d4c560f12e44714 OP_EQUALVERIFY OP_CHECKSIG", "type": "pubkeyhash"}, "value": 0.00469973, "n": 1}, {"scriptPubKey": {"reqSigs": 1, "hex": "76a914a25dec4d0011064ef106a983c39c7a540699f22088ac", "addresses": ["1FoWyxwPXuj4C6abqwhjDWdz6D4PZgYRjA"], "asm": "OP_DUP OP_HASH160 a25dec4d0011064ef106a983c39c7a540699f220 OP_EQUALVERIFY OP_CHECKSIG", "type": "pubkeyhash"}, "value": 5.46e-06, "n": 2}], "hex": "0100000001648a15f40a0f02dd0fd541fd6e5778b275912b07286a67d991257ba08762d2b3020000006b4830450221008ba99e005fa197541f635653d25fb406458c94a9e99104a334bce59709c6779102204e4c46ba930836dd8207fb803e874516af746cd3f485ec877edbc85235c86c260121021ecfc2d00519e24e3e27eb6375db4b2f3df5f0cd9096c38618630c01c98a3038feffffff030000000000000000166a146f6d6e69000000000000001f0000002e90edd000d52b0700000000001976a91476661856cab76eda27be02ac5d4c560f12e4471488ac22020000000000001976a914a25dec4d0011064ef106a983c39c7a540699f22088ace2480800", "vin": [{"sequence": 4294967294, "scriptSig": {"hex": "4830450221008ba99e005fa197541f635653d25fb406458c94a9e99104a334bce59709c6779102204e4c46ba930836dd8207fb803e874516af746cd3f485ec877edbc85235c86c260121021ecfc2d00519e24e3e27eb6375db4b2f3df5f0cd9096c38618630c01c98a3038", "asm": "30450221008ba99e005fa197541f635653d25fb406458c94a9e99104a334bce59709c6779102204e4c46ba930836dd8207fb803e874516af746cd3f485ec877edbc85235c86c26[ALL] 021ecfc2d00519e24e3e27eb6375db4b2f3df5f0cd9096c38618630c01c98a3038"}, "vout": 2, "txid": "b3d26287a07b2591d9676a28072b9175b278576efd41d50fdd020f0af4158a64"}], "txid": "620027c1ef176315749cb1a40dcb2a078637f98c017f8b6b2e0b96d913643165", "blocktime": 1537874412, "version": 1, "confirmations": 11468, "time": 1537874412, "locktime": 542946, "vsize": 257, "size": 257}