{"hash": "620bd25ac1d2834fa584245d67a24e041eddbccceb617b6adc531974972fc35c", "blockhash": "00000000000000000018f53835495a110e01622372bf6ae95dc86f2b0ab887b0", "vout": [{"scriptPubKey": {"type": "nulldata", "hex": "6a4c500000778600012f061448616686459b63732dbcbefa6b8351586b4e86aeaeacb577c031fc8103ac2eb340c5c4766774c5a44536ff5baa0b59061431619b2703debc9a9526289ac0f6612cd74e33776ee4", "asm": "OP_RETURN 0000778600012f061448616686459b63732dbcbefa6b8351586b4e86aeaeacb577c031fc8103ac2eb340c5c4766774c5a44536ff5baa0b59061431619b2703debc9a9526289ac0f6612cd74e33776ee4"}, "value": 0.0, "n": 0}, {"scriptPubKey": {"reqSigs": 1, "hex": "76a9148109def9f5d743f62a735de93c9659f25fcb0a8488ac", "addresses": ["1CmHzbXigRoBhBQK7bx16PUwGLFXuiNxwG"], "asm": "OP_DUP OP_HASH160 8109def9f5d743f62a735de93c9659f25fcb0a84 OP_EQUALVERIFY OP_CHECKSIG", "type": "pubkeyhash"}, "value": 0.0010408, "n": 1}], "hex": "0100000001f52d76e5a67773925543a473bce15da0d3a49b91294e795336d985352dc8c2cc000000006a473044022078e428ad835a67bae565b42a6bfebf8cfb94f2630e74291f81f5a5db080ca1dd02200a32171fb8b5a96d38a22b00b5d20b8a4c02781c1715526057c3cdd150244c21012102ef2f62517510ea380cd52b6467fed88492dd0b82bda1650f59c65b7460297752ffffffff020000000000000000536a4c500000778600012f061448616686459b63732dbcbefa6b8351586b4e86aeaeacb577c031fc8103ac2eb340c5c4766774c5a44536ff5baa0b59061431619b2703debc9a9526289ac0f6612cd74e33776ee490960100000000001976a9148109def9f5d743f62a735de93c9659f25fcb0a8488ac00000000", "vin": [{"sequence": 4294967295, "scriptSig": {"hex": "473044022078e428ad835a67bae565b42a6bfebf8cfb94f2630e74291f81f5a5db080ca1dd02200a32171fb8b5a96d38a22b00b5d20b8a4c02781c1715526057c3cdd150244c21012102ef2f62517510ea380cd52b6467fed88492dd0b82bda1650f59c65b7460297752", "asm": "3044022078e428ad835a67bae565b42a6bfebf8cfb94f2630e74291f81f5a5db080ca1dd02200a32171fb8b5a96d38a22b00b5d20b8a4c02781c1715526057c3cdd150244c21[ALL] 02ef2f62517510ea380cd52b6467fed88492dd0b82bda1650f59c65b7460297752"}, "vout": 0, "txid": "ccc2c82d3585d93653794e29919ba4d3a05de1bc73a44355927377a6e5762df5"}], "txid": "620bd25ac1d2834fa584245d67a24e041eddbccceb617b6adc531974972fc35c", "blocktime": 1537870928, "version": 1, "confirmations": 11512, "time": 1537870928, "locktime": 0, "vsize": 283, "size": 283}