{"hash": "620d2d415f21fc2ae3c0b2e59a41f49c266d9d38e58e430ece26c602e6cf4554", "blockhash": "000000000000000000205f8b0775d31398ef75b89a5e8ec8d2c57b4dc0ac4c20", "vout": [{"scriptPubKey": {"reqSigs": 1, "hex": "76a91427d51d1aecba602dea991d6cff202e50703ee88188ac", "addresses": ["14dcet4Lqh3XUBWSU5GhVQREgfmMG9mAA5"], "asm": "OP_DUP OP_HASH160 27d51d1aecba602dea991d6cff202e50703ee881 OP_EQUALVERIFY OP_CHECKSIG", "type": "pubkeyhash"}, "value": 0.14809924, "n": 0}, {"scriptPubKey": {"type": "nulldata", "hex": "6a146f6d6e69000000000000001f00000004a817c800", "asm": "OP_RETURN 6f6d6e69000000000000001f00000004a817c800"}, "value": 0.0, "n": 1}, {"scriptPubKey": {"reqSigs": 1, "hex": "76a91486a5f21b013e342a9aacdfede14d80c7ed41298888ac", "addresses": ["1DGxLpMDh9wX93PNCR9M99Y2e6tev8Bv2Z"], "asm": "OP_DUP OP_HASH160 86a5f21b013e342a9aacdfede14d80c7ed412988 OP_EQUALVERIFY OP_CHECKSIG", "type": "pubkeyhash"}, "value": 5.46e-06, "n": 2}], "hex": "0100000003cd4c26f8ed069c2cc1723be0e3a8fc26ef5ea42538a3b2a30fca6e4d8a486201020000006a473044022062f31a768ff27a1bac483ad35d7223573f7d2ff8af0485898d935d3484bf097702206ef3a9af663d09ac4c1190b58317848ca688b82d70b3830e50df0d21f0d1bc20012103f8179fdde3ecb65004f550fe34591c648683e4fc8a62474cb331b7da29a395d7ffffffffcc193db2613feec8a78b09d746d47a2d99b5f2cbcafaed68896e11fd5dcabf1d020000006b483045022100cbe6ee3bf5a3d3a0bcf4e7208f8f2d9795fb9117909262b922ba3994dd2845e0022038d89399f2f56d3d9ed9f555f8d475ece272f7615778e6bce0207b91d69d313d012103f8179fdde3ecb65004f550fe34591c648683e4fc8a62474cb331b7da29a395d7fffffffffdd36f40ef9866ae3f2c1a138f78a691108a36caa2b5b8c0b218def4d63b1470000000006b483045022100d766b2948a9e6ad59591458e6bf1c6c5938b0bab88ebe229778f91dc5d6f33bb02204ab561b8fe3f937f623722649ac8585ac23315e6ccc8471d3a4958ba41da08d60121039d6badaa44b1756460faa2d4bf0daa40e46c5206ec9ef5963decb350076e7f6affffffff0344fbe100000000001976a91427d51d1aecba602dea991d6cff202e50703ee88188ac0000000000000000166a146f6d6e69000000000000001f00000004a817c80022020000000000001976a91486a5f21b013e342a9aacdfede14d80c7ed41298888ac00000000", "vin": [{"sequence": 4294967295, "scriptSig": {"hex": "473044022062f31a768ff27a1bac483ad35d7223573f7d2ff8af0485898d935d3484bf097702206ef3a9af663d09ac4c1190b58317848ca688b82d70b3830e50df0d21f0d1bc20012103f8179fdde3ecb65004f550fe34591c648683e4fc8a62474cb331b7da29a395d7", "asm": "3044022062f31a768ff27a1bac483ad35d7223573f7d2ff8af0485898d935d3484bf097702206ef3a9af663d09ac4c1190b58317848ca688b82d70b3830e50df0d21f0d1bc20[ALL] 03f8179fdde3ecb65004f550fe34591c648683e4fc8a62474cb331b7da29a395d7"}, "vout": 2, "txid": "0162488a4d6eca0fa3b2a33825a45eef26fca8e3e03b72c12c9c06edf8264ccd"}, {"sequence": 4294967295, "scriptSig": {"hex": "483045022100cbe6ee3bf5a3d3a0bcf4e7208f8f2d9795fb9117909262b922ba3994dd2845e0022038d89399f2f56d3d9ed9f555f8d475ece272f7615778e6bce0207b91d69d313d012103f8179fdde3ecb65004f550fe34591c648683e4fc8a62474cb331b7da29a395d7", "asm": "3045022100cbe6ee3bf5a3d3a0bcf4e7208f8f2d9795fb9117909262b922ba3994dd2845e0022038d89399f2f56d3d9ed9f555f8d475ece272f7615778e6bce0207b91d69d313d[ALL] 03f8179fdde3ecb65004f550fe34591c648683e4fc8a62474cb331b7da29a395d7"}, "vout": 2, "txid": "1dbfca5dfd116e8968edfacacbf2b5992d7ad446d7098ba7c8ee3f61b23d19cc"}, {"sequence": 4294967295, "scriptSig": {"hex": "483045022100d766b2948a9e6ad59591458e6bf1c6c5938b0bab88ebe229778f91dc5d6f33bb02204ab561b8fe3f937f623722649ac8585ac23315e6ccc8471d3a4958ba41da08d60121039d6badaa44b1756460faa2d4bf0daa40e46c5206ec9ef5963decb350076e7f6a", "asm": "3045022100d766b2948a9e6ad59591458e6bf1c6c5938b0bab88ebe229778f91dc5d6f33bb02204ab561b8fe3f937f623722649ac8585ac23315e6ccc8471d3a4958ba41da08d6[ALL] 039d6badaa44b1756460faa2d4bf0daa40e46c5206ec9ef5963decb350076e7f6a"}, "vout": 0, "txid": "70143bd6f4de18b2c0b8b5a2ca368a1091a6788f131a2c3fae6698ef406fd3fd"}], "txid": "620d2d415f21fc2ae3c0b2e59a41f49c266d9d38e58e430ece26c602e6cf4554", "blocktime": 1537871175, "version": 1, "confirmations": 11510, "time": 1537871175, "locktime": 0, "vsize": 552, "size": 552}