{"hash": "8519f7fa2fb64b425fed33c3d1f4731c75d8b93b597c6bc621f9da9f9ef02307", "blockhash": "0000000000000000001f76057863aec43deb6fa401d9628bb513d65a8098bfab", "vout": [{"scriptPubKey": {"reqSigs": 1, "hex": "a9148511f4169953c5a6c9ec7cd04462932759fb1a2387", "addresses": ["3DpdJV9fqcGNSTV8hYXhzG85mUUxbc8Zrs"], "asm": "OP_HASH160 8511f4169953c5a6c9ec7cd04462932759fb1a23 OP_EQUAL", "type": "scripthash"}, "value": 4.54e-05, "n": 0}, {"scriptPubKey": {"reqSigs": 1, "hex": "a914fc728ea480dab48de1e3896b2010998cde2e172187", "addresses": ["3QhqSTZ9yTeKbq7E3yUBRDfGXBK2WL5aS4"], "asm": "OP_HASH160 fc728ea480dab48de1e3896b2010998cde2e1721 OP_EQUAL", "type": "scripthash"}, "value": 0.00070378, "n": 1}], "hex": "020000000001021ee3e04aa28a18b4048be8897e0941a775a1e8f14967d5b3bbdd46b157a2b401000000006b483045022100e4b9e554f21a6f135faaba4105002b233fd7a19ef385449f80f22e2ccd114a8202201db63c203a7f8a703217a9b23eb7247af0bbb0a2a6becbee957a495298dc563a01210225d01ea542527b64172d1c8898ca832406ceffbef2fd5d6c772ae6f5e1db4185feffffff3ee87d8e9fbc78c8c14715f57b2a37cf5ace940b1b071af50eb54c0216b11fa00100000017160014028bf564945cd293298252ea91f06835e5c00010feffffff02bc1100000000000017a9148511f4169953c5a6c9ec7cd04462932759fb1a2387ea1201000000000017a914fc728ea480dab48de1e3896b2010998cde2e17218700024730440220240443f62adab2331d3bb1cebfb00aeae9ca52eea9fc316a5ea08696aec94a000220790451338a467da64f028e0be613d130d07bf597560e0d8d355d21d2401d884f012102e716de2d2b9e151823d4b7f8a15a2c52d39e079b6304a6ca20487501c13bb97c14490800", "vin": [{"sequence": 4294967294, "scriptSig": {"hex": "483045022100e4b9e554f21a6f135faaba4105002b233fd7a19ef385449f80f22e2ccd114a8202201db63c203a7f8a703217a9b23eb7247af0bbb0a2a6becbee957a495298dc563a01210225d01ea542527b64172d1c8898ca832406ceffbef2fd5d6c772ae6f5e1db4185", "asm": "3045022100e4b9e554f21a6f135faaba4105002b233fd7a19ef385449f80f22e2ccd114a8202201db63c203a7f8a703217a9b23eb7247af0bbb0a2a6becbee957a495298dc563a[ALL] 0225d01ea542527b64172d1c8898ca832406ceffbef2fd5d6c772ae6f5e1db4185"}, "vout": 0, "txid": "01b4a257b146ddbbb3d56749f1e8a175a741097e89e88b04b4188aa24ae0e31e"}, {"txinwitness": ["30440220240443f62adab2331d3bb1cebfb00aeae9ca52eea9fc316a5ea08696aec94a000220790451338a467da64f028e0be613d130d07bf597560e0d8d355d21d2401d884f01", "02e716de2d2b9e151823d4b7f8a15a2c52d39e079b6304a6ca20487501c13bb97c"], "sequence": 4294967294, "scriptSig": {"hex": "160014028bf564945cd293298252ea91f06835e5c00010", "asm": "0014028bf564945cd293298252ea91f06835e5c00010"}, "vout": 1, "txid": "a01fb116024cb50ef51a071b0b94ce5acf372a7bf51547c1c878bc9f8e7de83e"}], "txid": "6210bc44af840f14704a9aed774f2c783d4efce53cfe87cc08ffd46bea4936fa", "blocktime": 1537873891, "version": 2, "confirmations": 11478, "time": 1537873891, "locktime": 542996, "vsize": 314, "size": 396}