{"hash": "3ae19324b839f27ae23196c22ecc804242099cee61a07bf8c11d3416ef406be9", "blockhash": "0000000000000000001f76057863aec43deb6fa401d9628bb513d65a8098bfab", "vout": [{"scriptPubKey": {"reqSigs": 1, "hex": "76a9148dce5fc1e415529841e6909824fe9dd3e626a72788ac", "addresses": ["1DvoWAnFa6f76tfTdUcuDP1yttsDhg2XCw"], "asm": "OP_DUP OP_HASH160 8dce5fc1e415529841e6909824fe9dd3e626a727 OP_EQUALVERIFY OP_CHECKSIG", "type": "pubkeyhash"}, "value": 0.0026116, "n": 0}, {"scriptPubKey": {"reqSigs": 1, "hex": "a9146287be3b4b848da16687a5460442c6f6d80f5cfe87", "addresses": ["3AfzkwPUfu6Ufpk54rjHB1uYvzNJaKd2pm"], "asm": "OP_HASH160 6287be3b4b848da16687a5460442c6f6d80f5cfe OP_EQUAL", "type": "scripthash"}, "value": 0.01056736, "n": 1}], "hex": "02000000000102839bf5a33a45b62985b62efca3c966d735ae64859a5186d52ac0a9da486ebe050000000017160014849a9bd881904f52f47859dc7aa179f94446bb5dfeffffffb8c54f093111a0dbfb32a74e750efa6003b6cff8f38635d1cf32a88f1059780d010000001716001420e457f9ef33570d842aa35f0e45ae4367dd7e0cfeffffff0228fc0300000000001976a9148dce5fc1e415529841e6909824fe9dd3e626a72788ace01f10000000000017a9146287be3b4b848da16687a5460442c6f6d80f5cfe8702483045022100ae92097747be66ad5933bd136aa1fa1ee8204fe30cc17262cabf886f0c1f7dc102202b1530384c8ddb455fde57c671248138f51cebf21fe818311b5b75d7805eec530121032a0dd4bae8eecf2e51ba5d63f2a89c617fd7b73d6f1987083d63e9985a0f8926024730440220683bd599dd48b1023a0bd3bb67eeb1c336b204dc1c672007ce89933704963792022056d512d40783e43c86f767daee2401b61e4da00df1911a6098558f589c16998201210273f41a2e6c80e29e2a39311aeaf4965b1ea266d8bb4d0d32234ad3c62d9f290114490800", "vin": [{"txinwitness": ["3045022100ae92097747be66ad5933bd136aa1fa1ee8204fe30cc17262cabf886f0c1f7dc102202b1530384c8ddb455fde57c671248138f51cebf21fe818311b5b75d7805eec5301", "032a0dd4bae8eecf2e51ba5d63f2a89c617fd7b73d6f1987083d63e9985a0f8926"], "sequence": 4294967294, "scriptSig": {"hex": "160014849a9bd881904f52f47859dc7aa179f94446bb5d", "asm": "0014849a9bd881904f52f47859dc7aa179f94446bb5d"}, "vout": 0, "txid": "05be6e48daa9c02ad586519a8564ae35d766c9a3fc2eb68529b6453aa3f59b83"}, {"txinwitness": ["30440220683bd599dd48b1023a0bd3bb67eeb1c336b204dc1c672007ce89933704963792022056d512d40783e43c86f767daee2401b61e4da00df1911a6098558f589c16998201", "0273f41a2e6c80e29e2a39311aeaf4965b1ea266d8bb4d0d32234ad3c62d9f2901"], "sequence": 4294967294, "scriptSig": {"hex": "16001420e457f9ef33570d842aa35f0e45ae4367dd7e0c", "asm": "001420e457f9ef33570d842aa35f0e45ae4367dd7e0c"}, "vout": 1, "txid": "0d7859108fa832cfd13586f3f8cfb60360fa0e754ea732fbdba01131094fc5b8"}], "txid": "6210abf018f6c88b6e0d2ffae7cb598dbdebad0f6c954dfc7039ef7c9e42387f", "blocktime": 1537873891, "version": 2, "confirmations": 11478, "time": 1537873891, "locktime": 542996, "vsize": 259, "size": 421}