{"hash": "62153c6aed6e5ce17abce25e672028a683357640c829624020bc009ec8a51e3d", "blockhash": "0000000000000000001cda96e906b7601b7a6fb1a3b62bca570a9e5d8f4b3de1", "vout": [{"scriptPubKey": {"reqSigs": 1, "hex": "76a914fb5e38bd859f9576123a7908cc9c912497d8890288ac", "addresses": ["1Pv7UnTyzZS4ESTbGDgRb3rrXZGA5hkseq"], "asm": "OP_DUP OP_HASH160 fb5e38bd859f9576123a7908cc9c912497d88902 OP_EQUALVERIFY OP_CHECKSIG", "type": "pubkeyhash"}, "value": 0.0222014, "n": 0}, {"scriptPubKey": {"type": "nulldata", "hex": "6a4c50000077d100018db13301a1b9b350ec67fd425b23cc0f42c2fc38c5e5bf9ae76da98a211a3cc616770e89ddbb7fc9a7f4c6f763565baa14480613be1a3ec7129ebc9a9526289ac0f6612cd74e33776ee4", "asm": "OP_RETURN 000077d100018db13301a1b9b350ec67fd425b23cc0f42c2fc38c5e5bf9ae76da98a211a3cc616770e89ddbb7fc9a7f4c6f763565baa14480613be1a3ec7129ebc9a9526289ac0f6612cd74e33776ee4"}, "value": 0.0, "n": 1}], "hex": "0100000001992ef575c084e76f026647cafd3485db06cf8f9e485802494bf9664e1bc9c9cb000000006b483045022100830c38c06774118530eae32abf267309bde05209cdd06986760b50f9f583f11502204094a326674a7e0f99028247b6cbcadeee75457287d46e57290f144ff78ab2b2012102b84ba4d255cfb1b891c8109eea6daedbd2b0aee440bc6eb6cc93c7008970707cffffffff026ce02100000000001976a914fb5e38bd859f9576123a7908cc9c912497d8890288ac0000000000000000536a4c50000077d100018db13301a1b9b350ec67fd425b23cc0f42c2fc38c5e5bf9ae76da98a211a3cc616770e89ddbb7fc9a7f4c6f763565baa14480613be1a3ec7129ebc9a9526289ac0f6612cd74e33776ee400000000", "vin": [{"sequence": 4294967295, "scriptSig": {"hex": "483045022100830c38c06774118530eae32abf267309bde05209cdd06986760b50f9f583f11502204094a326674a7e0f99028247b6cbcadeee75457287d46e57290f144ff78ab2b2012102b84ba4d255cfb1b891c8109eea6daedbd2b0aee440bc6eb6cc93c7008970707c", "asm": "3045022100830c38c06774118530eae32abf267309bde05209cdd06986760b50f9f583f11502204094a326674a7e0f99028247b6cbcadeee75457287d46e57290f144ff78ab2b2[ALL] 02b84ba4d255cfb1b891c8109eea6daedbd2b0aee440bc6eb6cc93c7008970707c"}, "vout": 0, "txid": "cbc9c91b4e66f94b490258489e8fcf06db8534fdca4766026fe784c075f52e99"}], "txid": "62153c6aed6e5ce17abce25e672028a683357640c829624020bc009ec8a51e3d", "blocktime": 1537873282, "version": 1, "confirmations": 11484, "time": 1537873282, "locktime": 0, "vsize": 284, "size": 284}