{"hash": "62192e7a001a354419b7dec3abbda34a991ad3b80148d32e502661882b6867af", "blockhash": "00000000000000000024a2167bbff67b0be802c0b01cdd79e6331c2be6459f87", "vout": [{"scriptPubKey": {"reqSigs": 1, "hex": "76a914bf55383b0fbf4f356a16b6aae967c1e977994dae88ac", "addresses": ["1JSg9ogHSE5pJHtLutkggWEDtQWRLheq6E"], "asm": "OP_DUP OP_HASH160 bf55383b0fbf4f356a16b6aae967c1e977994dae OP_EQUALVERIFY OP_CHECKSIG", "type": "pubkeyhash"}, "value": 0.00033169, "n": 0}, {"scriptPubKey": {"type": "nulldata", "hex": "6a4c500000777c0001b5e35f1de28bd9246c8a4ea5bcbefa6b8351586b4e86aeaeacb577c031fc188e23a49bea01f4b5f926be4d26c66a5baa0a0d0614ac97a78d2db74bbf23acfcfaac8058b692fe6808c31d", "asm": "OP_RETURN 0000777c0001b5e35f1de28bd9246c8a4ea5bcbefa6b8351586b4e86aeaeacb577c031fc188e23a49bea01f4b5f926be4d26c66a5baa0a0d0614ac97a78d2db74bbf23acfcfaac8058b692fe6808c31d"}, "value": 0.0, "n": 1}], "hex": "0100000001a1bd3c503b57151242f837b9a96de749f43b34cd057826cd8f9823e0dbad8c51000000006a47304402206f2b82a0d3181d72f7b8c767eb716dc138a280184d9b902cfa7d53639fe4fb29022038e1d4968d8c3f02f85baca708dca8b10373cba0b45ea81c8eedfba674df55da0121022ece3348951a6a12b0e49f3c9ec3f957614f72aef07a07633d1c878a2f04a123ffffffff0291810000000000001976a914bf55383b0fbf4f356a16b6aae967c1e977994dae88ac0000000000000000536a4c500000777c0001b5e35f1de28bd9246c8a4ea5bcbefa6b8351586b4e86aeaeacb577c031fc188e23a49bea01f4b5f926be4d26c66a5baa0a0d0614ac97a78d2db74bbf23acfcfaac8058b692fe6808c31d00000000", "vin": [{"sequence": 4294967295, "scriptSig": {"hex": "47304402206f2b82a0d3181d72f7b8c767eb716dc138a280184d9b902cfa7d53639fe4fb29022038e1d4968d8c3f02f85baca708dca8b10373cba0b45ea81c8eedfba674df55da0121022ece3348951a6a12b0e49f3c9ec3f957614f72aef07a07633d1c878a2f04a123", "asm": "304402206f2b82a0d3181d72f7b8c767eb716dc138a280184d9b902cfa7d53639fe4fb29022038e1d4968d8c3f02f85baca708dca8b10373cba0b45ea81c8eedfba674df55da[ALL] 022ece3348951a6a12b0e49f3c9ec3f957614f72aef07a07633d1c878a2f04a123"}, "vout": 0, "txid": "518caddbe023988fcd267805cd343bf449e76da9b937f8421215573b503cbda1"}], "txid": "62192e7a001a354419b7dec3abbda34a991ad3b80148d32e502661882b6867af", "blocktime": 1537870564, "version": 1, "confirmations": 11515, "time": 1537870564, "locktime": 0, "vsize": 283, "size": 283}