{"hash": "621b8fbc90f2060c7579a54fadd2da58569341521a4e6ff0fc51d5218613a808", "blockhash": "0000000000000000000e13cef7c366c0283d82e591d1acd082e914b08063cdf1", "vout": [{"scriptPubKey": {"reqSigs": 1, "hex": "a914cbb0a8ac984b6d45336b7c03693fe7fc115ffd4687", "addresses": ["3LG2ixcqmWCxdbkk2MNK2BBGRr9zM5DmNs"], "asm": "OP_HASH160 cbb0a8ac984b6d45336b7c03693fe7fc115ffd46 OP_EQUAL", "type": "scripthash"}, "value": 0.00524907, "n": 0}, {"scriptPubKey": {"reqSigs": 1, "hex": "76a914e349bc52d6b8100b58d3fce45135a91c5c128a1d88ac", "addresses": ["1MiningDkXkhKaXBTMKXfLemnk1YY5rbkT"], "asm": "OP_DUP OP_HASH160 e349bc52d6b8100b58d3fce45135a91c5c128a1d OP_EQUALVERIFY OP_CHECKSIG", "type": "pubkeyhash"}, "value": 0.80447797, "n": 1}], "hex": "0200000002c86d433d2cf6c5abf01e679dbe0ed57d2071cb1c490bc5addf47100f0b22a0a4010000008a47304402202085ce9a61eed820d64d4ae277c968d497e829776e3dd535dfb912cdf438041d022021d539dbd720cc7646a6fa44fd9682e705a81574843f03fbd1ef1035708ee2e9014104ae414abde7876c34e01694b38b2341d10b9b4c8db18a66262bd8df26bcb57893885c9fe8b79aa25330d5f05bb5aa9ab636a908a72e27956572b44190b22809beffffffffe44f549ae28762464c4d37d82b4266113634b42db124bab8f7e37b80939a161c010000008b4830450221008a83c2a2db224babc9101e7a2de47413697edef67dea4d236eba1f09219c735f02200d3c69b6cb38f6a2d93e15793ff1289e815d65d7531e738d503640283cd348be014104ae414abde7876c34e01694b38b2341d10b9b4c8db18a66262bd8df26bcb57893885c9fe8b79aa25330d5f05bb5aa9ab636a908a72e27956572b44190b22809beffffffff026b0208000000000017a914cbb0a8ac984b6d45336b7c03693fe7fc115ffd46873589cb04000000001976a914e349bc52d6b8100b58d3fce45135a91c5c128a1d88ac00000000", "vin": [{"sequence": 4294967295, "scriptSig": {"hex": "47304402202085ce9a61eed820d64d4ae277c968d497e829776e3dd535dfb912cdf438041d022021d539dbd720cc7646a6fa44fd9682e705a81574843f03fbd1ef1035708ee2e9014104ae414abde7876c34e01694b38b2341d10b9b4c8db18a66262bd8df26bcb57893885c9fe8b79aa25330d5f05bb5aa9ab636a908a72e27956572b44190b22809be", "asm": "304402202085ce9a61eed820d64d4ae277c968d497e829776e3dd535dfb912cdf438041d022021d539dbd720cc7646a6fa44fd9682e705a81574843f03fbd1ef1035708ee2e9[ALL] 04ae414abde7876c34e01694b38b2341d10b9b4c8db18a66262bd8df26bcb57893885c9fe8b79aa25330d5f05bb5aa9ab636a908a72e27956572b44190b22809be"}, "vout": 1, "txid": "a4a0220b0f1047dfadc50b491ccb71207dd50ebe9d671ef0abc5f62c3d436dc8"}, {"sequence": 4294967295, "scriptSig": {"hex": "4830450221008a83c2a2db224babc9101e7a2de47413697edef67dea4d236eba1f09219c735f02200d3c69b6cb38f6a2d93e15793ff1289e815d65d7531e738d503640283cd348be014104ae414abde7876c34e01694b38b2341d10b9b4c8db18a66262bd8df26bcb57893885c9fe8b79aa25330d5f05bb5aa9ab636a908a72e27956572b44190b22809be", "asm": "30450221008a83c2a2db224babc9101e7a2de47413697edef67dea4d236eba1f09219c735f02200d3c69b6cb38f6a2d93e15793ff1289e815d65d7531e738d503640283cd348be[ALL] 04ae414abde7876c34e01694b38b2341d10b9b4c8db18a66262bd8df26bcb57893885c9fe8b79aa25330d5f05bb5aa9ab636a908a72e27956572b44190b22809be"}, "vout": 1, "txid": "1c169a93807be3f7b8ba24b12db434361166422bd8374d4c466287e29a544fe4"}], "txid": "621b8fbc90f2060c7579a54fadd2da58569341521a4e6ff0fc51d5218613a808", "blocktime": 1537871767, "version": 2, "confirmations": 11493, "time": 1537871767, "locktime": 0, "vsize": 435, "size": 435}