{"hash": "d5dc5126cabfed348a92683cb4bd5083bf023f52eb4fd442e3086ef4927b02b9", "blockhash": "0000000000000000000dcc0f55137456b1a82d3642486a52398922ac4d620174", "vout": [{"scriptPubKey": {"reqSigs": 1, "hex": "0014e8e3d4f6dad74c9d759ef3a41e19128ad35f8add", "addresses": ["bc1qar3afak66axf6av77wjpuxgj3tf4lzkac7e7n8"], "asm": "0 e8e3d4f6dad74c9d759ef3a41e19128ad35f8add", "type": "witness_v0_keyhash"}, "value": 0.00157016, "n": 0}, {"scriptPubKey": {"reqSigs": 1, "hex": "a9141787621b26a8f5df6babde576d13c2c9168cd20687", "addresses": ["33qReYha5ULDQ82titkPgK6UYCgcz2eRaZ"], "asm": "OP_HASH160 1787621b26a8f5df6babde576d13c2c9168cd206 OP_EQUAL", "type": "scripthash"}, "value": 0.04098032, "n": 1}], "hex": "01000000000101cf822e0de933da3e2964a3dfad037e5b9b16e0e65a8c0e85ff99f4220ceb94cc04000000171600142397df88a8857a93a852f6430bcdd168f6618babffffffff025865020000000000160014e8e3d4f6dad74c9d759ef3a41e19128ad35f8addf0873e000000000017a9141787621b26a8f5df6babde576d13c2c9168cd2068702483045022100d4b67c0f9d40a475b4713870ff34ccb456f4de8de4e571a6d4426f9e0d47b7dc02204cff6409151739429480d072ba9e475a66497b4e7eb0987299affd4d2cb29581012102b28519cc2fcabcd2129bdfaa0476b23bc08a35a41c5964f7cf95bdd8d13e1e3800000000", "vin": [{"txinwitness": ["3045022100d4b67c0f9d40a475b4713870ff34ccb456f4de8de4e571a6d4426f9e0d47b7dc02204cff6409151739429480d072ba9e475a66497b4e7eb0987299affd4d2cb2958101", "02b28519cc2fcabcd2129bdfaa0476b23bc08a35a41c5964f7cf95bdd8d13e1e38"], "sequence": 4294967295, "scriptSig": {"hex": "1600142397df88a8857a93a852f6430bcdd168f6618bab", "asm": "00142397df88a8857a93a852f6430bcdd168f6618bab"}, "vout": 4, "txid": "cc94eb0c22f499ff850e8c5ae6e0169b5b7e03addfa364293eda33e90d2e82cf"}], "txid": "622c96c86e9c198c2968179dda241d51abaa0ee75858fd18bec2efdac7ed1b86", "blocktime": 1537870268, "version": 1, "confirmations": 11518, "time": 1537870268, "locktime": 0, "vsize": 165, "size": 247}