{"hash": "e9f2e7e39284a60205b60c162a8e76a429c37960da1976cd2d12046be73bf17e", "blockhash": "0000000000000000001e0dab787dd257d1dbfcb92a98c2207d5e1078be1f4165", "vout": [{"scriptPubKey": {"reqSigs": 1, "hex": "a914fe8bd3a0d26a0cdf87553c31af3ae4ef1e559cd087", "addresses": ["3Qtw4bXwSuzZX8duCbE41sUwqGZRjeTSWB"], "asm": "OP_HASH160 fe8bd3a0d26a0cdf87553c31af3ae4ef1e559cd0 OP_EQUAL", "type": "scripthash"}, "value": 0.01478115, "n": 0}, {"scriptPubKey": {"reqSigs": 1, "hex": "a9145219eed057f35fc7dcc3e6ffda3ce7e697b2c41887", "addresses": ["39B8Q7yKPPByEM3LVsMF4YbEy5fHpdwKHk"], "asm": "OP_HASH160 5219eed057f35fc7dcc3e6ffda3ce7e697b2c418 OP_EQUAL", "type": "scripthash"}, "value": 0.11794725, "n": 1}], "hex": "01000000000101c16ee77bd0e19802018bcdbb1ff2440fa2de087bfc9e2baa1be37bcdf765a43901000000232200200865807ae3fa095c4a2ffb61c146db4a1419ff9edf5f98239e6ae3da30704e44ffffffff02e38d16000000000017a914fe8bd3a0d26a0cdf87553c31af3ae4ef1e559cd08725f9b3000000000017a9145219eed057f35fc7dcc3e6ffda3ce7e697b2c418870400483045022100fa6afa81659717bc2b80fe128ccf60fc13358ec72cdac045ee8b672b3e57b06002207b874e0a025299bbf9a3238c20c236fa88edc059d08bcae3ad07670b71d11c2a01483045022100923bad1447bf497d5da936ada10534c99103c1f537af279531e749b0895db3c702206ddfa2bb6be4d97af512bb31711e726aec2d1c6237cc559aafb422f36cd84baf0169522103204f34db9904fb2c169f8e25787f51309c52e2c80154ebfad2e42402696505bb21037e65875c2bfe63209d6584b2fba32730db121236f986a959184f7a071e341b8e2103ae5ce8b0b42060898dc1996a783bb1aafa22f9b527453a45f1e97ff1005095d953ae00000000", "vin": [{"txinwitness": ["", "3045022100fa6afa81659717bc2b80fe128ccf60fc13358ec72cdac045ee8b672b3e57b06002207b874e0a025299bbf9a3238c20c236fa88edc059d08bcae3ad07670b71d11c2a01", "3045022100923bad1447bf497d5da936ada10534c99103c1f537af279531e749b0895db3c702206ddfa2bb6be4d97af512bb31711e726aec2d1c6237cc559aafb422f36cd84baf01", "522103204f34db9904fb2c169f8e25787f51309c52e2c80154ebfad2e42402696505bb21037e65875c2bfe63209d6584b2fba32730db121236f986a959184f7a071e341b8e2103ae5ce8b0b42060898dc1996a783bb1aafa22f9b527453a45f1e97ff1005095d953ae"], "sequence": 4294967295, "scriptSig": {"hex": "2200200865807ae3fa095c4a2ffb61c146db4a1419ff9edf5f98239e6ae3da30704e44", "asm": "00200865807ae3fa095c4a2ffb61c146db4a1419ff9edf5f98239e6ae3da30704e44"}, "vout": 1, "txid": "39a465f7cd7be31baa2b9efc7b08dea20f44f21fbbcd8b010298e1d07be76ec1"}], "txid": "62348042239974b041de6662ded43f034dd6f3ba5f644042fe716f9887dcfbdd", "blocktime": 1537872475, "version": 1, "confirmations": 11486, "time": 1537872475, "locktime": 0, "vsize": 214, "size": 406}