{"hash": "f017151fc91a8e5fc666c31194f7e729dcfdcdcc875df4b7caf4f8309b541cc5", "blockhash": "0000000000000000001f76057863aec43deb6fa401d9628bb513d65a8098bfab", "vout": [{"scriptPubKey": {"reqSigs": 1, "hex": "76a91478aa0cbee0ba70faa51218bf27bc2365a93b201e88ac", "addresses": ["1C11oHbC5quECXbAafyXqQv2ADXdHmDCbB"], "asm": "OP_DUP OP_HASH160 78aa0cbee0ba70faa51218bf27bc2365a93b201e OP_EQUALVERIFY OP_CHECKSIG", "type": "pubkeyhash"}, "value": 0.20526987, "n": 0}, {"scriptPubKey": {"reqSigs": 1, "hex": "a914315db317705327023646dcda609fa65c49f2fb6187", "addresses": ["36C3HJbQLUJFtYQBsv1tn6AoCxKbqkNfpN"], "asm": "OP_HASH160 315db317705327023646dcda609fa65c49f2fb61 OP_EQUAL", "type": "scripthash"}, "value": 2.39527637, "n": 1}], "hex": "02000000000101ce3d86ac5161ff981a4fa8afa377e2726e98bf3ee592e336c2df8806eeab844a0100000017160014ad23e5b104b4e93b6ab3962b70b5dc3586ddd345feffffff028b373901000000001976a91478aa0cbee0ba70faa51218bf27bc2365a93b201e88acd5e6460e0000000017a914315db317705327023646dcda609fa65c49f2fb618702483045022100a9a45ae0594d2ade6667da89ec6337c959de366218bf12ecf0c312073d50b6fe022027a41d9d062f0ff3f7e7fd5fb90de5b936418eb3ac54d96bcbe058fd8c2b5cd9012102500324d5c283e2c10dc36586bf6215286c78bd178d682656a33109508b37f75014490800", "vin": [{"txinwitness": ["3045022100a9a45ae0594d2ade6667da89ec6337c959de366218bf12ecf0c312073d50b6fe022027a41d9d062f0ff3f7e7fd5fb90de5b936418eb3ac54d96bcbe058fd8c2b5cd901", "02500324d5c283e2c10dc36586bf6215286c78bd178d682656a33109508b37f750"], "sequence": 4294967294, "scriptSig": {"hex": "160014ad23e5b104b4e93b6ab3962b70b5dc3586ddd345", "asm": "0014ad23e5b104b4e93b6ab3962b70b5dc3586ddd345"}, "vout": 1, "txid": "4a84abee0688dfc236e392e53ebf986e72e277a3afa84f1a98ff6151ac863dce"}], "txid": "6234631c58015db4604a9e8d65202e04eda53e28b47f0244457b877f3d77acfe", "blocktime": 1537873891, "version": 2, "confirmations": 11478, "time": 1537873891, "locktime": 542996, "vsize": 168, "size": 250}