{"hash": "bfe8709a23c18c1fe908edc53c6ada7e2352fbb25d48f0b05de2dcc1c0bb0de4", "blockhash": "0000000000000000000e13cef7c366c0283d82e591d1acd082e914b08063cdf1", "vout": [{"scriptPubKey": {"reqSigs": 1, "hex": "0014358a3632743094f7f5e0e953ad821c5e0f12c625", "addresses": ["bc1qxk9rvvn5xz200a0qa9f6mqsutc839339lxd8tl"], "asm": "0 358a3632743094f7f5e0e953ad821c5e0f12c625", "type": "witness_v0_keyhash"}, "value": 0.00151391, "n": 0}, {"scriptPubKey": {"reqSigs": 1, "hex": "a9144d466a6989d0962b25f2e2dc20784798c4a5318787", "addresses": ["38jcJt5MRsTnzJTffnzVybqR7vESB9vUgJ"], "asm": "OP_HASH160 4d466a6989d0962b25f2e2dc20784798c4a53187 OP_EQUAL", "type": "scripthash"}, "value": 0.01504932, "n": 1}], "hex": "0100000000010138cfd769b56258187289c700f78db4c5caaf6705e5020bde23af60c196ab308c0000000000ffffffff025f4f020000000000160014358a3632743094f7f5e0e953ad821c5e0f12c625a4f616000000000017a9144d466a6989d0962b25f2e2dc20784798c4a531878702483045022100b894570ea7bf9392b3e6490d834fd4379fdc13ae1eef611a187c841c6630397b022034c9955c39c6a7c516f9cac71b4c5782544a945f2742d2933b1a73844beb50fe012102921ea9a6cdf02a906ce0afc0febf7229b9f713ef9a4fe9be12c7ff77cf5c760500000000", "vin": [{"txinwitness": ["3045022100b894570ea7bf9392b3e6490d834fd4379fdc13ae1eef611a187c841c6630397b022034c9955c39c6a7c516f9cac71b4c5782544a945f2742d2933b1a73844beb50fe01", "02921ea9a6cdf02a906ce0afc0febf7229b9f713ef9a4fe9be12c7ff77cf5c7605"], "sequence": 4294967295, "scriptSig": {"hex": "", "asm": ""}, "vout": 0, "txid": "8c30ab96c160af23de0b02e50567afcac5b48df700c78972185862b569d7cf38"}], "txid": "6236e48ff5c56732eca9ae7797e7e433b663d267b031e05a76f66667a2c21239", "blocktime": 1537871767, "version": 1, "confirmations": 11495, "time": 1537871767, "locktime": 0, "vsize": 142, "size": 224}