{"hash": "2d09d91bb3095a9ad8e43124d9d8b8640bfa0bd28041690675e1dc746ebbec4e", "blockhash": "0000000000000000000e13cef7c366c0283d82e591d1acd082e914b08063cdf1", "vout": [{"scriptPubKey": {"reqSigs": 1, "hex": "a91458d4f53ece98ada77993ae592a8414767ab187b687", "addresses": ["39niW1GFZDqZfJ4PpRYUHgBUoySJwFPTeW"], "asm": "OP_HASH160 58d4f53ece98ada77993ae592a8414767ab187b6 OP_EQUAL", "type": "scripthash"}, "value": 0.005901, "n": 0}, {"scriptPubKey": {"reqSigs": 1, "hex": "a9147bf330f4ec77838089c8f9d4a98f40ad4a22b53d87", "addresses": ["3CzQNMxzChCt58Rv2GDQLwsgAhSicAh62U"], "asm": "OP_HASH160 7bf330f4ec77838089c8f9d4a98f40ad4a22b53d OP_EQUAL", "type": "scripthash"}, "value": 0.0488704, "n": 1}], "hex": "0100000000010121e7f85ebbd463932b601d8b7efc7d3c370e93ac4968e1090acd9a4488b8befc01000000232200205ba5745b35ee9d72cbf1e842fc0c5f645d33a850cac41d57ff6089a2015c1cceffffffff02140109000000000017a91458d4f53ece98ada77993ae592a8414767ab187b68700924a000000000017a9147bf330f4ec77838089c8f9d4a98f40ad4a22b53d870400483045022100dc06d52cfb45a8798d1d1d5267f8f39410a2bf68d61323b115d0ac1a4cc4b3a8022018f633fb4ce2a39ef7548b08cba52e5610ab5165d28aee75daedf189b8272e070147304402205b15cb7cd0cb5a89788e3bb4f9d46dddbe941d4973a56567432c5b7e7977832802206620d2e231758913820818d1c197d4f60ebf5ea1678208223d7c3ef4109c3d260169522102f6b3878cbbd38058eb2e4c0913162ce8b5fcdfe528245579c65a51d00dc0b0802102cff8dcb0b8b74e7b0103db599dd819839dfcbbb9d3761440b4b7e60b7792a391210252f8d4eb221fca945050ea88e9217c0ea200342cab1684119b7951c9a52822fe53ae11490800", "vin": [{"txinwitness": ["", "3045022100dc06d52cfb45a8798d1d1d5267f8f39410a2bf68d61323b115d0ac1a4cc4b3a8022018f633fb4ce2a39ef7548b08cba52e5610ab5165d28aee75daedf189b8272e0701", "304402205b15cb7cd0cb5a89788e3bb4f9d46dddbe941d4973a56567432c5b7e7977832802206620d2e231758913820818d1c197d4f60ebf5ea1678208223d7c3ef4109c3d2601", "522102f6b3878cbbd38058eb2e4c0913162ce8b5fcdfe528245579c65a51d00dc0b0802102cff8dcb0b8b74e7b0103db599dd819839dfcbbb9d3761440b4b7e60b7792a391210252f8d4eb221fca945050ea88e9217c0ea200342cab1684119b7951c9a52822fe53ae"], "sequence": 4294967295, "scriptSig": {"hex": "2200205ba5745b35ee9d72cbf1e842fc0c5f645d33a850cac41d57ff6089a2015c1cce", "asm": "00205ba5745b35ee9d72cbf1e842fc0c5f645d33a850cac41d57ff6089a2015c1cce"}, "vout": 1, "txid": "fcbeb888449acd0a09e16849ac930e373c7dfc7e8b1d602b9363d4bb5ef8e721"}], "txid": "6242ddea842941ce88096e92562aa7eeac273fd0a9cc26bf1117df2bb32e86e8", "blocktime": 1537871767, "version": 1, "confirmations": 11491, "time": 1537871767, "locktime": 542993, "vsize": 214, "size": 405}