{"hash": "624cd83994090ff942c7551a89ff4c91183431eca0ea5e2e049082e9dc35db47", "blockhash": "0000000000000000001cda96e906b7601b7a6fb1a3b62bca570a9e5d8f4b3de1", "vout": [{"scriptPubKey": {"reqSigs": 1, "hex": "76a914fe3f09b8a03fd0b1fc0f1e63980aba82120e32e288ac", "addresses": ["1QBL9gSsk93RSbmoER4YDfghu6kspAw6A6"], "asm": "OP_DUP OP_HASH160 fe3f09b8a03fd0b1fc0f1e63980aba82120e32e2 OP_EQUALVERIFY OP_CHECKSIG", "type": "pubkeyhash"}, "value": 0.02348082, "n": 0}], "hex": "010000000258e00cd87b72317c8d213ac5935110e7e4ce9080c9cbda3326a6f76799e067bb010000006b483045022100f32c5d28cb25706913f4017a42bba324d21cda6057c74f9d0e4f9d3570d85b9802207f69794e4462b7eeb055465b819ac25bbdff706a698d675f65d83b22d2cb2c4f01210345aa00ced69299bad9b7755931416e65b2d9adc1805845abbc4aaa3a92022500ffffffff51927ad920c63ceb54f382b6b06cd411523189013133e4fa15f4b4a08f3f765f000000006b483045022100dbbdbb7285cc71fd12f3dddb93d1a1674333783cb13ff1ff4dc08928e7cb5b920220243d91e74c80689a8ffb2a6b78c8daf17f7a0308a08ee59053831fa4789227e4012102a66146920b6ddbbaa45854c4562db98c122f1909cc8c9ead5fc1893484bc517cffffffff0132d42300000000001976a914fe3f09b8a03fd0b1fc0f1e63980aba82120e32e288ac00000000", "vin": [{"sequence": 4294967295, "scriptSig": {"hex": "483045022100f32c5d28cb25706913f4017a42bba324d21cda6057c74f9d0e4f9d3570d85b9802207f69794e4462b7eeb055465b819ac25bbdff706a698d675f65d83b22d2cb2c4f01210345aa00ced69299bad9b7755931416e65b2d9adc1805845abbc4aaa3a92022500", "asm": "3045022100f32c5d28cb25706913f4017a42bba324d21cda6057c74f9d0e4f9d3570d85b9802207f69794e4462b7eeb055465b819ac25bbdff706a698d675f65d83b22d2cb2c4f[ALL] 0345aa00ced69299bad9b7755931416e65b2d9adc1805845abbc4aaa3a92022500"}, "vout": 1, "txid": "bb67e09967f7a62633dacbc98090cee4e7105193c53a218d7c31727bd80ce058"}, {"sequence": 4294967295, "scriptSig": {"hex": "483045022100dbbdbb7285cc71fd12f3dddb93d1a1674333783cb13ff1ff4dc08928e7cb5b920220243d91e74c80689a8ffb2a6b78c8daf17f7a0308a08ee59053831fa4789227e4012102a66146920b6ddbbaa45854c4562db98c122f1909cc8c9ead5fc1893484bc517c", "asm": "3045022100dbbdbb7285cc71fd12f3dddb93d1a1674333783cb13ff1ff4dc08928e7cb5b920220243d91e74c80689a8ffb2a6b78c8daf17f7a0308a08ee59053831fa4789227e4[ALL] 02a66146920b6ddbbaa45854c4562db98c122f1909cc8c9ead5fc1893484bc517c"}, "vout": 0, "txid": "5f763f8fa0b4f415fae433310189315211d46cb0b682f354eb3cc620d97a9251"}], "txid": "624cd83994090ff942c7551a89ff4c91183431eca0ea5e2e049082e9dc35db47", "blocktime": 1537873282, "version": 1, "confirmations": 11484, "time": 1537873282, "locktime": 0, "vsize": 340, "size": 340}