{"hash": "624c14f3aaf72f5085b3e1f3c5a53677d4c626dbc6132a6fdd750dd9f4304e8c", "blockhash": "0000000000000000000baef3f32e3676a92c3b2e5da21b426e4f302fc371ce76", "vout": [{"scriptPubKey": {"reqSigs": 1, "hex": "76a9146ac37be0c025dedf22a4b17bdf4644958f1671fd88ac", "addresses": ["1AjWoo1x7zuf9fQWFM8JestL8rrTZGFb77"], "asm": "OP_DUP OP_HASH160 6ac37be0c025dedf22a4b17bdf4644958f1671fd OP_EQUALVERIFY OP_CHECKSIG", "type": "pubkeyhash"}, "value": 5.46e-06, "n": 0}, {"scriptPubKey": {"type": "nulldata", "hex": "6a146f6d6e69000000000000001f0000026cef07f680", "asm": "OP_RETURN 6f6d6e69000000000000001f0000026cef07f680"}, "value": 0.0, "n": 1}, {"scriptPubKey": {"reqSigs": 1, "hex": "76a914a520c86a08366941cd90d22e11ac1c7eefa2db3788ac", "addresses": ["1G47mSr3oANXMafVrR8UC4pzV7FEAzo3r9"], "asm": "OP_DUP OP_HASH160 a520c86a08366941cd90d22e11ac1c7eefa2db37 OP_EQUALVERIFY OP_CHECKSIG", "type": "pubkeyhash"}, "value": 0.40620527, "n": 2}], "hex": "0100000001c9208a6ad1c4562c14c3be171fae0478ad7c58b3552d623317a2d41898eb47a3000000006a473044022028e76bf425fb10dce77507ddb667e3674966f746fc8cb77f0309024c838ce516022020fedd9d18e644cce469fa35f2e28ae72f5ae26364b082e99a4e2828d27bcab6012103f3f44c9e80e2cedc1a2909631a3adea8866ee32187f74d0912387359b0ff36a2ffffffff0322020000000000001976a9146ac37be0c025dedf22a4b17bdf4644958f1671fd88ac0000000000000000166a146f6d6e69000000000000001f0000026cef07f680efd16b02000000001976a914a520c86a08366941cd90d22e11ac1c7eefa2db3788ac00000000", "vin": [{"sequence": 4294967295, "scriptSig": {"hex": "473044022028e76bf425fb10dce77507ddb667e3674966f746fc8cb77f0309024c838ce516022020fedd9d18e644cce469fa35f2e28ae72f5ae26364b082e99a4e2828d27bcab6012103f3f44c9e80e2cedc1a2909631a3adea8866ee32187f74d0912387359b0ff36a2", "asm": "3044022028e76bf425fb10dce77507ddb667e3674966f746fc8cb77f0309024c838ce516022020fedd9d18e644cce469fa35f2e28ae72f5ae26364b082e99a4e2828d27bcab6[ALL] 03f3f44c9e80e2cedc1a2909631a3adea8866ee32187f74d0912387359b0ff36a2"}, "vout": 0, "txid": "a347eb9818d4a21733622d55b3587cad7804ae1f17bec3142c56c4d16a8a20c9"}], "txid": "624c14f3aaf72f5085b3e1f3c5a53677d4c626dbc6132a6fdd750dd9f4304e8c", "blocktime": 1537876114, "version": 1, "confirmations": 11460, "time": 1537876114, "locktime": 0, "vsize": 256, "size": 256}