{"hash": "c7902e2d80663e4ef7dce86261e39e7113aad52d975853c110dfb112a6c877f0", "blockhash": "0000000000000000001e0dab787dd257d1dbfcb92a98c2207d5e1078be1f4165", "vout": [{"scriptPubKey": {"reqSigs": 1, "hex": "0014b27dc6ce448ac468ca13dbf296651a1080247c82", "addresses": ["bc1qkf7udnjy3tzx3jsnm0efveg6zzqzglyz4xkk3g"], "asm": "0 b27dc6ce448ac468ca13dbf296651a1080247c82", "type": "witness_v0_keyhash"}, "value": 0.00685958, "n": 0}, {"scriptPubKey": {"reqSigs": 1, "hex": "76a9147c217e178c2008394f05fc7709d37be517f5dee988ac", "addresses": ["1CKLutchEjj9uQAT67qtZvGb5W7Vi1NVHv"], "asm": "OP_DUP OP_HASH160 7c217e178c2008394f05fc7709d37be517f5dee9 OP_EQUALVERIFY OP_CHECKSIG", "type": "pubkeyhash"}, "value": 0.21635139, "n": 1}], "hex": "010000000001013800082436450f123ba5d534fba2354809920e93a9db93df1d325de9254c63144f00000017160014ef86c90cf43c46c7f1d19d5b3983d263de189986ffffffff0286770a0000000000160014b27dc6ce448ac468ca13dbf296651a1080247c8243204a01000000001976a9147c217e178c2008394f05fc7709d37be517f5dee988ac02483045022100d8f38dc8c83bf3ff5d2e1519291036aa458c9426c91dbfd43b388967e0c4314a0220775803733b6716e42d7e13091661a4d20c83016111394885f203d1a3eaa835f00121028e1cccf56473404a1db3ea30af363acf0dd38ebd4be5bb57511ae654c0f07ed600000000", "vin": [{"txinwitness": ["3045022100d8f38dc8c83bf3ff5d2e1519291036aa458c9426c91dbfd43b388967e0c4314a0220775803733b6716e42d7e13091661a4d20c83016111394885f203d1a3eaa835f001", "028e1cccf56473404a1db3ea30af363acf0dd38ebd4be5bb57511ae654c0f07ed6"], "sequence": 4294967295, "scriptSig": {"hex": "160014ef86c90cf43c46c7f1d19d5b3983d263de189986", "asm": "0014ef86c90cf43c46c7f1d19d5b3983d263de189986"}, "vout": 79, "txid": "14634c25e95d321ddf93dba9930e92094835a2fb34d5a53b120f453624080038"}], "txid": "624dcba8a1df299da0991f2b82850e4b754d10fea30d56cbc57440242dbe568b", "blocktime": 1537872475, "version": 1, "confirmations": 11487, "time": 1537872475, "locktime": 0, "vsize": 167, "size": 249}