{"hash": "62526efba6b6ca5541ecfc8481691cebaa605947cf9ddd4600c2d790a76fd638", "blockhash": "0000000000000000000dcc0f55137456b1a82d3642486a52398922ac4d620174", "vout": [{"scriptPubKey": {"reqSigs": 1, "hex": "76a914e649253ef62ded8ea17dca858d9f7a472ec6d63888ac", "addresses": ["1Mze3MpG2sNYEk785H4tZXg8THXn4Ev48J"], "asm": "OP_DUP OP_HASH160 e649253ef62ded8ea17dca858d9f7a472ec6d638 OP_EQUALVERIFY OP_CHECKSIG", "type": "pubkeyhash"}, "value": 0.02118726, "n": 0}, {"scriptPubKey": {"reqSigs": 1, "hex": "76a914670a3176d0aea8b41376e8e35ed7a2aa8378ec3588ac", "addresses": ["1APpozkwgA4PimZjaS1S7FtmkpmMgnnqD5"], "asm": "OP_DUP OP_HASH160 670a3176d0aea8b41376e8e35ed7a2aa8378ec35 OP_EQUALVERIFY OP_CHECKSIG", "type": "pubkeyhash"}, "value": 0.0100413, "n": 1}], "hex": "02000000049925c25cb08f13027079fee93c92dfe1b4adcdd1bf7a26c3f6b08b2415b13d0d000000006a47304402206691c9640204ce5261a68dce42b7958ea4a47b506699775613b96e6f4c9b9f9e0220202b337f0cb53742c9e7ba671bf58d683d28519decfa05282fc0bc22ff2018f20121037341ac1c17dc87bd766258177a596662b4da7e22dda3bddaab89e7e697c72c53feffffff4db4fc87269cc24417dd5fae249a1cdec4270d76f33b3537b0d47623b2bb2463000000006b483045022100a08ef4452d8bcb997fe0833def91b193119e4e8a60e15355964739d5cc93cdd60220082d8ec3dba32eb3a275383074ea1986946d8406480556d47a03c9402ddd1254012103bd1e6832e87d72d4c8d92450ae72802a08878a17f4e20906d09e7e7a347d7b89feffffffd8977fc89eefde1de7411ce327a1e7aabb79c0f308fa1d3068db081f37819366000000006a4730440220533f5cca3ce4ec3b59cf9cbfd00f62b100e7ffe1555d3e9680963c6ae470d47f02201c4cf2dc38b0228c40d59dee664c51ec70e8c02ab14dd565b83166cc18da2e6b0121037341ac1c17dc87bd766258177a596662b4da7e22dda3bddaab89e7e697c72c53feffffff19e85aab1e53cc99e04a9d4ffdaadd63a4afebcc16c3720446c62dd40660f191010000006b483045022100a4670daf83160c0c1b7365c6b29d16854aaf4106de19dffea8de7520a73a2b42022051742e5067cf77d66251656e908f6110eae3532a656bc3845c82f1e7a888499c012103019a4d2154a6da59f8025e74441878deb77fb4334b1280950a2f6decac7d79defeffffff0246542000000000001976a914e649253ef62ded8ea17dca858d9f7a472ec6d63888ac62520f00000000001976a914670a3176d0aea8b41376e8e35ed7a2aa8378ec3588ac0c490800", "vin": [{"sequence": 4294967294, "scriptSig": {"hex": "47304402206691c9640204ce5261a68dce42b7958ea4a47b506699775613b96e6f4c9b9f9e0220202b337f0cb53742c9e7ba671bf58d683d28519decfa05282fc0bc22ff2018f20121037341ac1c17dc87bd766258177a596662b4da7e22dda3bddaab89e7e697c72c53", "asm": "304402206691c9640204ce5261a68dce42b7958ea4a47b506699775613b96e6f4c9b9f9e0220202b337f0cb53742c9e7ba671bf58d683d28519decfa05282fc0bc22ff2018f2[ALL] 037341ac1c17dc87bd766258177a596662b4da7e22dda3bddaab89e7e697c72c53"}, "vout": 0, "txid": "0d3db115248bb0f6c3267abfd1cdadb4e1df923ce9fe797002138fb05cc22599"}, {"sequence": 4294967294, "scriptSig": {"hex": "483045022100a08ef4452d8bcb997fe0833def91b193119e4e8a60e15355964739d5cc93cdd60220082d8ec3dba32eb3a275383074ea1986946d8406480556d47a03c9402ddd1254012103bd1e6832e87d72d4c8d92450ae72802a08878a17f4e20906d09e7e7a347d7b89", "asm": "3045022100a08ef4452d8bcb997fe0833def91b193119e4e8a60e15355964739d5cc93cdd60220082d8ec3dba32eb3a275383074ea1986946d8406480556d47a03c9402ddd1254[ALL] 03bd1e6832e87d72d4c8d92450ae72802a08878a17f4e20906d09e7e7a347d7b89"}, "vout": 0, "txid": "6324bbb22376d4b037353bf3760d27c4de1c9a24ae5fdd1744c29c2687fcb44d"}, {"sequence": 4294967294, "scriptSig": {"hex": "4730440220533f5cca3ce4ec3b59cf9cbfd00f62b100e7ffe1555d3e9680963c6ae470d47f02201c4cf2dc38b0228c40d59dee664c51ec70e8c02ab14dd565b83166cc18da2e6b0121037341ac1c17dc87bd766258177a596662b4da7e22dda3bddaab89e7e697c72c53", "asm": "30440220533f5cca3ce4ec3b59cf9cbfd00f62b100e7ffe1555d3e9680963c6ae470d47f02201c4cf2dc38b0228c40d59dee664c51ec70e8c02ab14dd565b83166cc18da2e6b[ALL] 037341ac1c17dc87bd766258177a596662b4da7e22dda3bddaab89e7e697c72c53"}, "vout": 0, "txid": "669381371f08db68301dfa08f3c079bbaae7a127e31c41e71ddeef9ec87f97d8"}, {"sequence": 4294967294, "scriptSig": {"hex": "483045022100a4670daf83160c0c1b7365c6b29d16854aaf4106de19dffea8de7520a73a2b42022051742e5067cf77d66251656e908f6110eae3532a656bc3845c82f1e7a888499c012103019a4d2154a6da59f8025e74441878deb77fb4334b1280950a2f6decac7d79de", "asm": "3045022100a4670daf83160c0c1b7365c6b29d16854aaf4106de19dffea8de7520a73a2b42022051742e5067cf77d66251656e908f6110eae3532a656bc3845c82f1e7a888499c[ALL] 03019a4d2154a6da59f8025e74441878deb77fb4334b1280950a2f6decac7d79de"}, "vout": 1, "txid": "91f16006d42dc6460472c316ccebafa463ddaafd4f9d4ae099cc531eab5ae819"}], "txid": "62526efba6b6ca5541ecfc8481691cebaa605947cf9ddd4600c2d790a76fd638", "blocktime": 1537870268, "version": 2, "confirmations": 11518, "time": 1537870268, "locktime": 542988, "vsize": 668, "size": 668}