{"hash": "77931c8231a17991357ba852030691ca75e6f0584f2e5eba866fd7264060c35c", "blockhash": "00000000000000000017f5eb5941039fbcee6240d03bc1f2f8e35350df66a1d8", "vout": [{"scriptPubKey": {"reqSigs": 1, "hex": "a9145f2ee21a9260f4552232acbb1f161e3b9112900a87", "addresses": ["3ANJHGf1HxgLmhFHAvxGriNq1E1S24U2dV"], "asm": "OP_HASH160 5f2ee21a9260f4552232acbb1f161e3b9112900a OP_EQUAL", "type": "scripthash"}, "value": 0.00059787, "n": 0}, {"scriptPubKey": {"reqSigs": 1, "hex": "001478c87abfbb8eb647d251d36c138c81ea93b9dcb8", "addresses": ["bc1q0ry840am36my05j36dkp8rypa2fmnh9cmguqyu"], "asm": "0 78c87abfbb8eb647d251d36c138c81ea93b9dcb8", "type": "witness_v0_keyhash"}, "value": 9.16e-06, "n": 1}], "hex": "01000000000101aee8a4599fad77139b92f7bde43fbec2a1b9dbbe3e9014a4f2e340715b4216d51500000017160014014e806f0c965eda06f25ff86b0a5ef72bb8166bffffffff028be900000000000017a9145f2ee21a9260f4552232acbb1f161e3b9112900a87940300000000000016001478c87abfbb8eb647d251d36c138c81ea93b9dcb802473044022038191959566e0afde58fdf6abe18f1de1bf51a440de70a6583f491072048a8850220481d1acb651525f18c36075c41abef393ddce22db72d2df51cea2f1de77b8cab0121029b2b48f25bd478a380ca2b630d1b4e8f3338593c8b6e5be0e887f796c58d51be00000000", "vin": [{"txinwitness": ["3044022038191959566e0afde58fdf6abe18f1de1bf51a440de70a6583f491072048a8850220481d1acb651525f18c36075c41abef393ddce22db72d2df51cea2f1de77b8cab01", "029b2b48f25bd478a380ca2b630d1b4e8f3338593c8b6e5be0e887f796c58d51be"], "sequence": 4294967295, "scriptSig": {"hex": "160014014e806f0c965eda06f25ff86b0a5ef72bb8166b", "asm": "0014014e806f0c965eda06f25ff86b0a5ef72bb8166b"}, "vout": 21, "txid": "d516425b7140e3f2a414903ebedbb9a1c2be3fe4bdf7929b1377ad9f59a4e8ae"}], "txid": "6258eca47a3d56385723785f48d067c3cf5c365356c88eeaed2f0b63590effdf", "blocktime": 1537874412, "version": 1, "confirmations": 11468, "time": 1537874412, "locktime": 0, "vsize": 165, "size": 246}