{"hash": "625917975c724b738a03e2f2b16730f8ce7bc4c68dc7ea51fa1abaa65af2efc1", "blockhash": "0000000000000000000e13cef7c366c0283d82e591d1acd082e914b08063cdf1", "vout": [{"scriptPubKey": {"reqSigs": 1, "hex": "76a9147c2dd9fb9513a57df760170a86d5a886c4dd339688ac", "addresses": ["1CKbic5DePwSsNXyS96kZqYAHrhVwh2Akf"], "asm": "OP_DUP OP_HASH160 7c2dd9fb9513a57df760170a86d5a886c4dd3396 OP_EQUALVERIFY OP_CHECKSIG", "type": "pubkeyhash"}, "value": 0.00693115, "n": 0}, {"scriptPubKey": {"reqSigs": 1, "hex": "76a914836a533195a32ff8916473c6df79249608946fd288ac", "addresses": ["1CyrtigKdrffjQLfmo8fdVHXmT18Pk6Z4V"], "asm": "OP_DUP OP_HASH160 836a533195a32ff8916473c6df79249608946fd2 OP_EQUALVERIFY OP_CHECKSIG", "type": "pubkeyhash"}, "value": 0.0240373, "n": 1}], "hex": "01000000013eeb99e4719be4c08d340d3d29a7b66779598d319075a7911b31f03265712fb1000000006b483045022100d6928e5477961c9bfa0b74e3bc2549df758a212d565ba26d155fec7d02672beb022044a0b9c3b0931d252fed35904bfa9660737fb805453ff126966a6896938ad86501210323821a0d08bf0bd8ed13879aa22dbc0481110011a706a0ed955455a1f3a05e4affffffff027b930a00000000001976a9147c2dd9fb9513a57df760170a86d5a886c4dd339688ac92ad2400000000001976a914836a533195a32ff8916473c6df79249608946fd288ac00000000", "vin": [{"sequence": 4294967295, "scriptSig": {"hex": "483045022100d6928e5477961c9bfa0b74e3bc2549df758a212d565ba26d155fec7d02672beb022044a0b9c3b0931d252fed35904bfa9660737fb805453ff126966a6896938ad86501210323821a0d08bf0bd8ed13879aa22dbc0481110011a706a0ed955455a1f3a05e4a", "asm": "3045022100d6928e5477961c9bfa0b74e3bc2549df758a212d565ba26d155fec7d02672beb022044a0b9c3b0931d252fed35904bfa9660737fb805453ff126966a6896938ad865[ALL] 0323821a0d08bf0bd8ed13879aa22dbc0481110011a706a0ed955455a1f3a05e4a"}, "vout": 0, "txid": "b12f716532f0311b91a77590318d597967b6a7293d0d348dc0e49b71e499eb3e"}], "txid": "625917975c724b738a03e2f2b16730f8ce7bc4c68dc7ea51fa1abaa65af2efc1", "blocktime": 1537871767, "version": 1, "confirmations": 11495, "time": 1537871767, "locktime": 0, "vsize": 226, "size": 226}