{"hash": "626713e90753bafa2e095c6768101fdef1e5856c3cc4a5cf9c559de63aa04ca4", "blockhash": "0000000000000000001f0ddff1eddb255c1121bcd4da4f1bc9a0da00cae72433", "vout": [{"scriptPubKey": {"reqSigs": 1, "hex": "76a9145dd3d3609d3618fc50e5d99225a6fadd58804bb088ac", "addresses": ["19Z7bkMFQLF1rCNEGThMGar28RHcBXiMXp"], "asm": "OP_DUP OP_HASH160 5dd3d3609d3618fc50e5d99225a6fadd58804bb0 OP_EQUALVERIFY OP_CHECKSIG", "type": "pubkeyhash"}, "value": 0.01074744, "n": 0}], "hex": "0100000003643e172b1b2315cd6e7cfdfc90ec4cff63273f03895c13684692a3778835ff13000000006b48304502210098fcbb953334f114fde5d157eac129b4bbc50c40f5e7e2222937fae8c7942675022049e784978d09fdf9f5cdf44e56841d4fbfcbc0f8ac1151e3abcbe687bf4af5210121039b03bef4756672d480db5e434591f4f5706283e39c9464be8545a9936d5b54eaffffffff7475fcce63e4db0ac193e2523dc77284f8b0dceb8b0f9d64dd0379cf8be69f47010000006b483045022100da75fe994ecc65739c04c4e657ecacb67b95aa83dd2def66c5af6499e0f7fc5302203546fddec7d055e42243bf467c8d7d3542f1aa3b0198ea4bb7ee89fe0f19758c012102f63228d1b7759203095478e861e3936a830add2351538f2bf4b681faecbc659fffffffff29e42d8480348217748df5676f9357f3c6c4fead88849f3a9a11dc8aa07851c1000000006b4830450221009124aad81f3a380c099dfd1c22a0b175fea9d6d8e9df12258a8bb28d357816dd022057a052721084cffc1d5770b65b78460e317c77c4dd3868e998823954d6cab826012103464a0d61d32d84e6f25f74aa1e4f866e47cf008dd9ea5a06c97aaf8299918be6ffffffff0138661000000000001976a9145dd3d3609d3618fc50e5d99225a6fadd58804bb088ac00000000", "vin": [{"sequence": 4294967295, "scriptSig": {"hex": "48304502210098fcbb953334f114fde5d157eac129b4bbc50c40f5e7e2222937fae8c7942675022049e784978d09fdf9f5cdf44e56841d4fbfcbc0f8ac1151e3abcbe687bf4af5210121039b03bef4756672d480db5e434591f4f5706283e39c9464be8545a9936d5b54ea", "asm": "304502210098fcbb953334f114fde5d157eac129b4bbc50c40f5e7e2222937fae8c7942675022049e784978d09fdf9f5cdf44e56841d4fbfcbc0f8ac1151e3abcbe687bf4af521[ALL] 039b03bef4756672d480db5e434591f4f5706283e39c9464be8545a9936d5b54ea"}, "vout": 0, "txid": "13ff358877a3924668135c89033f2763ff4cec90fcfd7c6ecd15231b2b173e64"}, {"sequence": 4294967295, "scriptSig": {"hex": "483045022100da75fe994ecc65739c04c4e657ecacb67b95aa83dd2def66c5af6499e0f7fc5302203546fddec7d055e42243bf467c8d7d3542f1aa3b0198ea4bb7ee89fe0f19758c012102f63228d1b7759203095478e861e3936a830add2351538f2bf4b681faecbc659f", "asm": "3045022100da75fe994ecc65739c04c4e657ecacb67b95aa83dd2def66c5af6499e0f7fc5302203546fddec7d055e42243bf467c8d7d3542f1aa3b0198ea4bb7ee89fe0f19758c[ALL] 02f63228d1b7759203095478e861e3936a830add2351538f2bf4b681faecbc659f"}, "vout": 1, "txid": "479fe68bcf7903dd649d0f8bebdcb0f88472c73d52e293c10adbe463cefc7574"}, {"sequence": 4294967295, "scriptSig": {"hex": "4830450221009124aad81f3a380c099dfd1c22a0b175fea9d6d8e9df12258a8bb28d357816dd022057a052721084cffc1d5770b65b78460e317c77c4dd3868e998823954d6cab826012103464a0d61d32d84e6f25f74aa1e4f866e47cf008dd9ea5a06c97aaf8299918be6", "asm": "30450221009124aad81f3a380c099dfd1c22a0b175fea9d6d8e9df12258a8bb28d357816dd022057a052721084cffc1d5770b65b78460e317c77c4dd3868e998823954d6cab826[ALL] 03464a0d61d32d84e6f25f74aa1e4f866e47cf008dd9ea5a06c97aaf8299918be6"}, "vout": 0, "txid": "c15178a08adc119a3a9f8488adfec4c6f357936f67f58d7417823480842de429"}], "txid": "626713e90753bafa2e095c6768101fdef1e5856c3cc4a5cf9c559de63aa04ca4", "blocktime": 1537872018, "version": 1, "confirmations": 11489, "time": 1537872018, "locktime": 0, "vsize": 488, "size": 488}