{"hash": "626c19f2867b6af603d40afb3e2bbda9b7d4c61757e54983e582864dd1000456", "blockhash": "000000000000000000022b45ed06c6f4ccd3cf7fb5ba4856ebd2e58215665228", "vout": [{"scriptPubKey": {"reqSigs": 1, "hex": "76a914e8cea30989bd15530f819b766684b00dc7ba7cfa88ac", "addresses": ["1NDyJtNTjmwk5xPNhjgAMu4HDHigtobu1s"], "asm": "OP_DUP OP_HASH160 e8cea30989bd15530f819b766684b00dc7ba7cfa OP_EQUALVERIFY OP_CHECKSIG", "type": "pubkeyhash"}, "value": 20.81356231, "n": 0}, {"scriptPubKey": {"reqSigs": 1, "hex": "76a91496327ea79c65e0609dd15ceaab10937a555b31f188ac", "addresses": ["1EhArDEevBuojYTgKJAyda25fu8Cy24q2a"], "asm": "OP_DUP OP_HASH160 96327ea79c65e0609dd15ceaab10937a555b31f1 OP_EQUALVERIFY OP_CHECKSIG", "type": "pubkeyhash"}, "value": 0.01518013, "n": 1}], "hex": "020000000d052c2d319f251b23884c3089fb3d5cb064838235429e8a79ad075c4605f6224d050000006b483045022100a65564805c4860e353a399640e26553db3473370b9e6933f09e215a87a348c7502207efa802d52a12d4e0a8b8dcb7ac818a9d608c7b4ef6859b7db6005453a93eaa2012103dc212a856f7d5ce1722762d637772d7b5f89c452f8bd5b3ca9796da27d97ff16feffffff0b3a164a01874a1afcbee84253db7da958446e99f70fbde0c791157f8cf8df59000000006b483045022100a921af41448f32aa636a1b959eb7996fbab66cfc7f6de6acece9f9cf437d16dd02202367722ca3e37e4885806d8812fc6e23344b103807ad258532ee965a6869db5d0121022781f8e17f7cc9f65e732f41644a646d879b0d15c73dd7be702cf46aa92b4a93feffffff0c6a373f50df5c96040daba91b3dac4e2b6ca48010e33c2d8d5ecbaf34f038ba010000006a47304402202680fe063cc76b375dd338ea6590a8447241402caeed6b98d43d1f024bcc53210220163a7b2fd00a48e9988d05ed18a3c5fb5a147802312734121974db22ad54d31d0121029d6c37c379690e4b8a7e3c4e26bd1be45303f29452a4b239a355e8dc65ee0168feffffff174db4dda4ca6d21a0420ce40234d14856e6b3157a84907af1fc83b73b56c1770c0000006b483045022100e42d641ac1205124fcf81d8b4a5a96bfcb141c557be82989d52f417c5937f08d022018b150f250de9cb90884680feea0aecde4df143f8ace2b24320d90975769d033012102fe3b91155a07215d4d1e8296fcef3718fd2636e24e8e0ea26ccf935e19deb914feffffff3d276c7e35f65931c3172fe32025e5671cef72d20f2f9c36e747346e47732ad4010000006a473044022014670e3342d1210ad87953c02842dbf6c13d2b51e6c0699faef6be63026003b402201d9592e9746bf60ffa2adc9a810f663183b791888e0d060137f310e10c669076012102517a04063a907df041bd40ce67416437a22ecdf8db8a2e465a3bf137b7211ffefeffffff68ca02af259749ea5132afa012d8689a1c10cc983adf1d2d8e115dcc967ee9fb010000006a473044022014a80206dc746317a584c89678280236907799710068035b4dcf8827ebb342bd0220755e79faff0dd034da0e520b842e362d6d7e83589655903f6976c8cd77d19889012102517a04063a907df041bd40ce67416437a22ecdf8db8a2e465a3bf137b7211ffefeffffff8bee977d12bce0342c89a9fc3a37bd035c7369109481fbcd6407adc42af26bde000000006b483045022100a7a128f0288d14402539643404fbe09003cd79ce7499e28f49b93a86ce3384170220345e45a974082fc68e41582e3fef9ad8da535dddbb1c0b9a6500fac5333d46e701210245665a91301e8e0a029c99377d984f64e14515a009b69881ad9c6b9644f860c1feffffffb7ad33cc3ba552348136d3154dd19d51a8c7bd3390da380e3cafd1fa797b7385340000006b483045022100b15020997fc7ede9eb8c7fc9569b9c7458012729404c753aa4c49dec874b756502201b0a8779534ccd0067ed348db218dd21beeb2e26590022406f7b0e74e4815160012103b2136940bcfd9e5237ef10a04415341c50362df3fa31b48d3e594653256c51d6feffffffb7ad33cc3ba552348136d3154dd19d51a8c7bd3390da380e3cafd1fa797b7385ab0800006a47304402204c46603d822e35114d8112b4e45a640a1094ee06540e896289ca21ff62a2ed75022059eb4bff103b919388c6fcb62fd45a1fa9ac6d3466a8e4cf5a6dbab86d807dbd012103f07df5563b86a62308dd2faabf5a0696cd97e1db714d3a739f58f3095a854126feffffffb92a9c55b8546b6caf80fbf8ac3aa103e1d9268672da6f6cbd1700e102b48b22050000006a47304402207c81f6a9b3dc4ac994ad9dfb8f75c677762c88e9fde6370ceeeb267d20e1a899022075e35f9fa48f5895ed984598e77acba3c1403094b26b1392e3dbafff011b49a40121027fe088594be4460eb094848060f4394a5b37008e4f1ad2a698a856c97a60a0b6feffffffd354827971d37cb75fa40238ea85b0e81f8a01963272503a2c4ee340ff601f04010000006a47304402201e95a7ec17d519698f690f670b8b376f926fcb154fc6ad0302352946490c383102204102dba34bab26428f99165de9d7660cb750d330135552d834871486696ce693012102ea3b5b9731b22a31b5a05f07cf192a7b09785714db17e4df4e5df6c777b975f4feffffffe522e1d896e179c9e13a8f59684f3848c7c5c96383520b362bb43cc356e22a32110000006b483045022100dd2b25094816e2af4e80ca3bfabfe889c0892c399599d599b96cd456284f73430220439d98de4ce39b5754a325b61659c52065c20ee83f568c5f7e369cdc248ba45c01210336e5bbdf3ced33b2bb8befd3c1656bce4bc56a125f6b613bc64806c15720469bfeffffffe95f3dc4de8624ed92aca0e1f510c941f57f35a6f11b5efab4b1516f4eda65eb010000006b483045022100d2e2a09b15be6a6f25dcf0d9992035563d73e6d0e09675d16a037a4a2edbbd5a02207eb68b45cb3bcfefb5a1ce5d1ad68921afc0f9b299ac5480b3b2f8cbd0f0dab9012103ea872f5b07adf0724667d239c4f0006dd708a79e1e8a9019cc989636fca2b156feffffff02c7f90e7c000000001976a914e8cea30989bd15530f819b766684b00dc7ba7cfa88acbd291700000000001976a91496327ea79c65e0609dd15ceaab10937a555b31f188ac0b490800", "vin": [{"sequence": 4294967294, "scriptSig": {"hex": "483045022100a65564805c4860e353a399640e26553db3473370b9e6933f09e215a87a348c7502207efa802d52a12d4e0a8b8dcb7ac818a9d608c7b4ef6859b7db6005453a93eaa2012103dc212a856f7d5ce1722762d637772d7b5f89c452f8bd5b3ca9796da27d97ff16", "asm": "3045022100a65564805c4860e353a399640e26553db3473370b9e6933f09e215a87a348c7502207efa802d52a12d4e0a8b8dcb7ac818a9d608c7b4ef6859b7db6005453a93eaa2[ALL] 03dc212a856f7d5ce1722762d637772d7b5f89c452f8bd5b3ca9796da27d97ff16"}, "vout": 5, "txid": "4d22f605465c07ad798a9e4235828364b05c3dfb89304c88231b259f312d2c05"}, {"sequence": 4294967294, "scriptSig": {"hex": "483045022100a921af41448f32aa636a1b959eb7996fbab66cfc7f6de6acece9f9cf437d16dd02202367722ca3e37e4885806d8812fc6e23344b103807ad258532ee965a6869db5d0121022781f8e17f7cc9f65e732f41644a646d879b0d15c73dd7be702cf46aa92b4a93", "asm": "3045022100a921af41448f32aa636a1b959eb7996fbab66cfc7f6de6acece9f9cf437d16dd02202367722ca3e37e4885806d8812fc6e23344b103807ad258532ee965a6869db5d[ALL] 022781f8e17f7cc9f65e732f41644a646d879b0d15c73dd7be702cf46aa92b4a93"}, "vout": 0, "txid": "59dff88c7f1591c7e0bd0ff7996e4458a97ddb5342e8befc1a4a87014a163a0b"}, {"sequence": 4294967294, "scriptSig": {"hex": "47304402202680fe063cc76b375dd338ea6590a8447241402caeed6b98d43d1f024bcc53210220163a7b2fd00a48e9988d05ed18a3c5fb5a147802312734121974db22ad54d31d0121029d6c37c379690e4b8a7e3c4e26bd1be45303f29452a4b239a355e8dc65ee0168", "asm": "304402202680fe063cc76b375dd338ea6590a8447241402caeed6b98d43d1f024bcc53210220163a7b2fd00a48e9988d05ed18a3c5fb5a147802312734121974db22ad54d31d[ALL] 029d6c37c379690e4b8a7e3c4e26bd1be45303f29452a4b239a355e8dc65ee0168"}, "vout": 1, "txid": "ba38f034afcb5e8d2d3ce31080a46c2b4eac3d1ba9ab0d04965cdf503f376a0c"}, {"sequence": 4294967294, "scriptSig": {"hex": "483045022100e42d641ac1205124fcf81d8b4a5a96bfcb141c557be82989d52f417c5937f08d022018b150f250de9cb90884680feea0aecde4df143f8ace2b24320d90975769d033012102fe3b91155a07215d4d1e8296fcef3718fd2636e24e8e0ea26ccf935e19deb914", "asm": "3045022100e42d641ac1205124fcf81d8b4a5a96bfcb141c557be82989d52f417c5937f08d022018b150f250de9cb90884680feea0aecde4df143f8ace2b24320d90975769d033[ALL] 02fe3b91155a07215d4d1e8296fcef3718fd2636e24e8e0ea26ccf935e19deb914"}, "vout": 12, "txid": "77c1563bb783fcf17a90847a15b3e65648d13402e40c42a0216dcaa4ddb44d17"}, {"sequence": 4294967294, "scriptSig": {"hex": "473044022014670e3342d1210ad87953c02842dbf6c13d2b51e6c0699faef6be63026003b402201d9592e9746bf60ffa2adc9a810f663183b791888e0d060137f310e10c669076012102517a04063a907df041bd40ce67416437a22ecdf8db8a2e465a3bf137b7211ffe", "asm": "3044022014670e3342d1210ad87953c02842dbf6c13d2b51e6c0699faef6be63026003b402201d9592e9746bf60ffa2adc9a810f663183b791888e0d060137f310e10c669076[ALL] 02517a04063a907df041bd40ce67416437a22ecdf8db8a2e465a3bf137b7211ffe"}, "vout": 1, "txid": "d42a73476e3447e7369c2f0fd272ef1c67e52520e32f17c33159f6357e6c273d"}, {"sequence": 4294967294, "scriptSig": {"hex": "473044022014a80206dc746317a584c89678280236907799710068035b4dcf8827ebb342bd0220755e79faff0dd034da0e520b842e362d6d7e83589655903f6976c8cd77d19889012102517a04063a907df041bd40ce67416437a22ecdf8db8a2e465a3bf137b7211ffe", "asm": "3044022014a80206dc746317a584c89678280236907799710068035b4dcf8827ebb342bd0220755e79faff0dd034da0e520b842e362d6d7e83589655903f6976c8cd77d19889[ALL] 02517a04063a907df041bd40ce67416437a22ecdf8db8a2e465a3bf137b7211ffe"}, "vout": 1, "txid": "fbe97e96cc5d118e2d1ddf3a98cc101c9a68d812a0af3251ea499725af02ca68"}, {"sequence": 4294967294, "scriptSig": {"hex": "483045022100a7a128f0288d14402539643404fbe09003cd79ce7499e28f49b93a86ce3384170220345e45a974082fc68e41582e3fef9ad8da535dddbb1c0b9a6500fac5333d46e701210245665a91301e8e0a029c99377d984f64e14515a009b69881ad9c6b9644f860c1", "asm": "3045022100a7a128f0288d14402539643404fbe09003cd79ce7499e28f49b93a86ce3384170220345e45a974082fc68e41582e3fef9ad8da535dddbb1c0b9a6500fac5333d46e7[ALL] 0245665a91301e8e0a029c99377d984f64e14515a009b69881ad9c6b9644f860c1"}, "vout": 0, "txid": "de6bf22ac4ad0764cdfb81941069735c03bd373afca9892c34e0bc127d97ee8b"}, {"sequence": 4294967294, "scriptSig": {"hex": "483045022100b15020997fc7ede9eb8c7fc9569b9c7458012729404c753aa4c49dec874b756502201b0a8779534ccd0067ed348db218dd21beeb2e26590022406f7b0e74e4815160012103b2136940bcfd9e5237ef10a04415341c50362df3fa31b48d3e594653256c51d6", "asm": "3045022100b15020997fc7ede9eb8c7fc9569b9c7458012729404c753aa4c49dec874b756502201b0a8779534ccd0067ed348db218dd21beeb2e26590022406f7b0e74e4815160[ALL] 03b2136940bcfd9e5237ef10a04415341c50362df3fa31b48d3e594653256c51d6"}, "vout": 52, "txid": "85737b79fad1af3c0e38da9033bdc7a8519dd14d15d336813452a53bcc33adb7"}, {"sequence": 4294967294, "scriptSig": {"hex": "47304402204c46603d822e35114d8112b4e45a640a1094ee06540e896289ca21ff62a2ed75022059eb4bff103b919388c6fcb62fd45a1fa9ac6d3466a8e4cf5a6dbab86d807dbd012103f07df5563b86a62308dd2faabf5a0696cd97e1db714d3a739f58f3095a854126", "asm": "304402204c46603d822e35114d8112b4e45a640a1094ee06540e896289ca21ff62a2ed75022059eb4bff103b919388c6fcb62fd45a1fa9ac6d3466a8e4cf5a6dbab86d807dbd[ALL] 03f07df5563b86a62308dd2faabf5a0696cd97e1db714d3a739f58f3095a854126"}, "vout": 2219, "txid": "85737b79fad1af3c0e38da9033bdc7a8519dd14d15d336813452a53bcc33adb7"}, {"sequence": 4294967294, "scriptSig": {"hex": "47304402207c81f6a9b3dc4ac994ad9dfb8f75c677762c88e9fde6370ceeeb267d20e1a899022075e35f9fa48f5895ed984598e77acba3c1403094b26b1392e3dbafff011b49a40121027fe088594be4460eb094848060f4394a5b37008e4f1ad2a698a856c97a60a0b6", "asm": "304402207c81f6a9b3dc4ac994ad9dfb8f75c677762c88e9fde6370ceeeb267d20e1a899022075e35f9fa48f5895ed984598e77acba3c1403094b26b1392e3dbafff011b49a4[ALL] 027fe088594be4460eb094848060f4394a5b37008e4f1ad2a698a856c97a60a0b6"}, "vout": 5, "txid": "228bb402e10017bd6c6fda728626d9e103a13aacf8fb80af6c6b54b8559c2ab9"}, {"sequence": 4294967294, "scriptSig": {"hex": "47304402201e95a7ec17d519698f690f670b8b376f926fcb154fc6ad0302352946490c383102204102dba34bab26428f99165de9d7660cb750d330135552d834871486696ce693012102ea3b5b9731b22a31b5a05f07cf192a7b09785714db17e4df4e5df6c777b975f4", "asm": "304402201e95a7ec17d519698f690f670b8b376f926fcb154fc6ad0302352946490c383102204102dba34bab26428f99165de9d7660cb750d330135552d834871486696ce693[ALL] 02ea3b5b9731b22a31b5a05f07cf192a7b09785714db17e4df4e5df6c777b975f4"}, "vout": 1, "txid": "041f60ff40e34e2c3a50723296018a1fe8b085ea3802a45fb77cd371798254d3"}, {"sequence": 4294967294, "scriptSig": {"hex": "483045022100dd2b25094816e2af4e80ca3bfabfe889c0892c399599d599b96cd456284f73430220439d98de4ce39b5754a325b61659c52065c20ee83f568c5f7e369cdc248ba45c01210336e5bbdf3ced33b2bb8befd3c1656bce4bc56a125f6b613bc64806c15720469b", "asm": "3045022100dd2b25094816e2af4e80ca3bfabfe889c0892c399599d599b96cd456284f73430220439d98de4ce39b5754a325b61659c52065c20ee83f568c5f7e369cdc248ba45c[ALL] 0336e5bbdf3ced33b2bb8befd3c1656bce4bc56a125f6b613bc64806c15720469b"}, "vout": 17, "txid": "322ae256c33cb42b360b528363c9c5c748384f68598f3ae1c979e196d8e122e5"}, {"sequence": 4294967294, "scriptSig": {"hex": "483045022100d2e2a09b15be6a6f25dcf0d9992035563d73e6d0e09675d16a037a4a2edbbd5a02207eb68b45cb3bcfefb5a1ce5d1ad68921afc0f9b299ac5480b3b2f8cbd0f0dab9012103ea872f5b07adf0724667d239c4f0006dd708a79e1e8a9019cc989636fca2b156", "asm": "3045022100d2e2a09b15be6a6f25dcf0d9992035563d73e6d0e09675d16a037a4a2edbbd5a02207eb68b45cb3bcfefb5a1ce5d1ad68921afc0f9b299ac5480b3b2f8cbd0f0dab9[ALL] 03ea872f5b07adf0724667d239c4f0006dd708a79e1e8a9019cc989636fca2b156"}, "vout": 1, "txid": "eb65da4e6f51b1b4fa5e1bf1a6357ff541c910f5e1a0ac92ed2486dec43d5fe9"}], "txid": "626c19f2867b6af603d40afb3e2bbda9b7d4c61757e54983e582864dd1000456", "blocktime": 1537869901, "version": 2, "confirmations": 11522, "time": 1537869901, "locktime": 542987, "vsize": 1996, "size": 1996}