{"hash": "626d5a1fca9a9b87df59f6cb18339c6f42ff456aacee27c02925404e8386b622", "blockhash": "0000000000000000000e13cef7c366c0283d82e591d1acd082e914b08063cdf1", "vout": [{"scriptPubKey": {"reqSigs": 1, "hex": "76a91478f197d44a2568bd5d8e60bb831ab98f0083ce0b88ac", "addresses": ["1C2VWCgK3fW3VFdtzNxVN7DwCG7pYG3M5a"], "asm": "OP_DUP OP_HASH160 78f197d44a2568bd5d8e60bb831ab98f0083ce0b OP_EQUALVERIFY OP_CHECKSIG", "type": "pubkeyhash"}, "value": 0.01001458, "n": 0}, {"scriptPubKey": {"reqSigs": 1, "hex": "a914a7053ebc6e5d4e29b7c379dfc449d22d67421c3b87", "addresses": ["3Gv941hFTFDT8DkB7qaW7hRebQkcib4hdC"], "asm": "OP_HASH160 a7053ebc6e5d4e29b7c379dfc449d22d67421c3b OP_EQUAL", "type": "scripthash"}, "value": 0.0109326, "n": 1}], "hex": "01000000013bc6833332d861b0899fac9085145600f3691407381a7fff738db81fb3de3deb010000006b48304502210086253c2ffc2a61956c97332c583f0b04218716671d818ecb68f5109956269f3c022015e22a94a7a49032b6a6af44f642a09ab5afbdb2e0ce40e32ae01e923213db52012102dce7b9ea7433915118c2aa5aaa19b88b13515dee1d84d822da8ffb4994cfe374ffffffff02f2470f00000000001976a91478f197d44a2568bd5d8e60bb831ab98f0083ce0b88ac8cae10000000000017a914a7053ebc6e5d4e29b7c379dfc449d22d67421c3b8700000000", "vin": [{"sequence": 4294967295, "scriptSig": {"hex": "48304502210086253c2ffc2a61956c97332c583f0b04218716671d818ecb68f5109956269f3c022015e22a94a7a49032b6a6af44f642a09ab5afbdb2e0ce40e32ae01e923213db52012102dce7b9ea7433915118c2aa5aaa19b88b13515dee1d84d822da8ffb4994cfe374", "asm": "304502210086253c2ffc2a61956c97332c583f0b04218716671d818ecb68f5109956269f3c022015e22a94a7a49032b6a6af44f642a09ab5afbdb2e0ce40e32ae01e923213db52[ALL] 02dce7b9ea7433915118c2aa5aaa19b88b13515dee1d84d822da8ffb4994cfe374"}, "vout": 1, "txid": "eb3ddeb31fb88d73ff7f1a38071469f30056148590ac9f89b061d8323383c63b"}], "txid": "626d5a1fca9a9b87df59f6cb18339c6f42ff456aacee27c02925404e8386b622", "blocktime": 1537871767, "version": 1, "confirmations": 11491, "time": 1537871767, "locktime": 0, "vsize": 224, "size": 224}