{"hash": "62727213d6bdbac87deceb6f13c3a7b4b1fb6be4339a7a3c0c9dfbb28fd0e570", "blockhash": "0000000000000000000dcc0f55137456b1a82d3642486a52398922ac4d620174", "vout": [{"scriptPubKey": {"reqSigs": 1, "hex": "76a914c364c006ef5a3916cfe5673d89b0c70c703d781188ac", "addresses": ["1Jp9TeXXkdgPKRLG28mE5xutHr1v7jVaZT"], "asm": "OP_DUP OP_HASH160 c364c006ef5a3916cfe5673d89b0c70c703d7811 OP_EQUALVERIFY OP_CHECKSIG", "type": "pubkeyhash"}, "value": 0.00464924, "n": 0}, {"scriptPubKey": {"reqSigs": 1, "hex": "76a914c9ee14feddeb614c4c6cef899634aae0a01284f288ac", "addresses": ["1KQi2nbwcu6eGpUDqtwJwcaRtqNKfU15zQ"], "asm": "OP_DUP OP_HASH160 c9ee14feddeb614c4c6cef899634aae0a01284f2 OP_EQUALVERIFY OP_CHECKSIG", "type": "pubkeyhash"}, "value": 0.031188, "n": 1}], "hex": "01000000075b3290ae4d8edb066a1af1a9611a46a72a1758a102f81a2dc4d0f50635ffdc100d0000006b4830450221009efe8a7325953148e156d48fad42c900635e0b88832ac45cdb429a288bb365df02204a6d7d0502bed98cbb277e63fd908f2dfb0e6cc0dc39ee9c9c4c12eb04f0cb8c0121020b6cf918ef3323936a922688beab33e9754e1ed905dabd37ea2391857a778297ffffffff00e424f0513f71cb90bc99044beff37ab986f2a89c3bf7aefc7aaaecd5a8f2170c0000006a47304402205107eae683ee96a74797930a1a2a3f7d7ee4b471788ac69d1a1dc75259a03ea202205abbaf9ae0a5f6a5d3d903865075cd0e5737f701a8ce3b655244ecc4ab3f47fa0121020b6cf918ef3323936a922688beab33e9754e1ed905dabd37ea2391857a778297ffffffffe69a912fcd1ed80925dc2b0c1ee032a4974bbcfcd6b0ece765904a672483cc6a080000006a47304402201803646370be0c431b05c666466ccef2f0f1f95cce39ca327f7a906955033e2c02203a0a444cbd385191f1271ce41e018708f649ce87f923cbd3535cf415fb9b58610121020b6cf918ef3323936a922688beab33e9754e1ed905dabd37ea2391857a778297ffffffffd3d983e7fc262cb755e875cd7bd9d39e136c4a6d674447d526404327bc3d00c50e0000006a473044022036d9082407e2b2d37626eb4584714f0678c31a6b9f48e6fe6ddf1f00251eebad02202813e5d0e2e7ba40f0df131af8a91e5f1dfb3c52fcee2717dd5a8855b38019a80121020b6cf918ef3323936a922688beab33e9754e1ed905dabd37ea2391857a778297ffffffff372df918e684d7849018b7d09e1c010830baf433e7558a0979acefdfd06565e1090000006a4730440220010c40a1f967aea3ae07bcae191501e6db1d37e756a7fea34f59b8f3b157814c0220515d6e4d046960f56781c90e906eaac3118f2de63808ba698cd7d4ae16bf930a0121020b6cf918ef3323936a922688beab33e9754e1ed905dabd37ea2391857a778297ffffffffba7587324dc5dbbe821bbc3d5ed1d4e1ee4db8767fad8d227e59b5d6fc4af6e20c0000006b483045022100cefaafe5de51082cf33fdb841725052ae033a4afe853c1cc8a39b437e47579d502200339bb8afcbd2a4d1438805e117c2c12097ed3b4148540752da62458d34d5f240121020b6cf918ef3323936a922688beab33e9754e1ed905dabd37ea2391857a778297fffffffff20b039a6b284b0298394027ca54dc774eb1147331ab34daa2967a556972f3f6080000006b483045022100d6f606c7699eff461efb13677a2595168411914c39adc2b2013a3a6e52ba3ae60220793b3f2939e847c9fd5b246a4939e25886e21f09043ca4f56259edd8284dbe570121020b6cf918ef3323936a922688beab33e9754e1ed905dabd37ea2391857a778297ffffffff021c180700000000001976a914c364c006ef5a3916cfe5673d89b0c70c703d781188acd0962f00000000001976a914c9ee14feddeb614c4c6cef899634aae0a01284f288ac00000000", "vin": [{"sequence": 4294967295, "scriptSig": {"hex": "4830450221009efe8a7325953148e156d48fad42c900635e0b88832ac45cdb429a288bb365df02204a6d7d0502bed98cbb277e63fd908f2dfb0e6cc0dc39ee9c9c4c12eb04f0cb8c0121020b6cf918ef3323936a922688beab33e9754e1ed905dabd37ea2391857a778297", "asm": "30450221009efe8a7325953148e156d48fad42c900635e0b88832ac45cdb429a288bb365df02204a6d7d0502bed98cbb277e63fd908f2dfb0e6cc0dc39ee9c9c4c12eb04f0cb8c[ALL] 020b6cf918ef3323936a922688beab33e9754e1ed905dabd37ea2391857a778297"}, "vout": 13, "txid": "10dcff3506f5d0c42d1af802a158172aa7461a61a9f11a6a06db8e4dae90325b"}, {"sequence": 4294967295, "scriptSig": {"hex": "47304402205107eae683ee96a74797930a1a2a3f7d7ee4b471788ac69d1a1dc75259a03ea202205abbaf9ae0a5f6a5d3d903865075cd0e5737f701a8ce3b655244ecc4ab3f47fa0121020b6cf918ef3323936a922688beab33e9754e1ed905dabd37ea2391857a778297", "asm": "304402205107eae683ee96a74797930a1a2a3f7d7ee4b471788ac69d1a1dc75259a03ea202205abbaf9ae0a5f6a5d3d903865075cd0e5737f701a8ce3b655244ecc4ab3f47fa[ALL] 020b6cf918ef3323936a922688beab33e9754e1ed905dabd37ea2391857a778297"}, "vout": 12, "txid": "17f2a8d5ecaa7afcaef73b9ca8f286b97af3ef4b0499bc90cb713f51f024e400"}, {"sequence": 4294967295, "scriptSig": {"hex": "47304402201803646370be0c431b05c666466ccef2f0f1f95cce39ca327f7a906955033e2c02203a0a444cbd385191f1271ce41e018708f649ce87f923cbd3535cf415fb9b58610121020b6cf918ef3323936a922688beab33e9754e1ed905dabd37ea2391857a778297", "asm": "304402201803646370be0c431b05c666466ccef2f0f1f95cce39ca327f7a906955033e2c02203a0a444cbd385191f1271ce41e018708f649ce87f923cbd3535cf415fb9b5861[ALL] 020b6cf918ef3323936a922688beab33e9754e1ed905dabd37ea2391857a778297"}, "vout": 8, "txid": "6acc8324674a9065e7ecb0d6fcbc4b97a432e01e0c2bdc2509d81ecd2f919ae6"}, {"sequence": 4294967295, "scriptSig": {"hex": "473044022036d9082407e2b2d37626eb4584714f0678c31a6b9f48e6fe6ddf1f00251eebad02202813e5d0e2e7ba40f0df131af8a91e5f1dfb3c52fcee2717dd5a8855b38019a80121020b6cf918ef3323936a922688beab33e9754e1ed905dabd37ea2391857a778297", "asm": "3044022036d9082407e2b2d37626eb4584714f0678c31a6b9f48e6fe6ddf1f00251eebad02202813e5d0e2e7ba40f0df131af8a91e5f1dfb3c52fcee2717dd5a8855b38019a8[ALL] 020b6cf918ef3323936a922688beab33e9754e1ed905dabd37ea2391857a778297"}, "vout": 14, "txid": "c5003dbc27434026d54744676d4a6c139ed3d97bcd75e855b72c26fce783d9d3"}, {"sequence": 4294967295, "scriptSig": {"hex": "4730440220010c40a1f967aea3ae07bcae191501e6db1d37e756a7fea34f59b8f3b157814c0220515d6e4d046960f56781c90e906eaac3118f2de63808ba698cd7d4ae16bf930a0121020b6cf918ef3323936a922688beab33e9754e1ed905dabd37ea2391857a778297", "asm": "30440220010c40a1f967aea3ae07bcae191501e6db1d37e756a7fea34f59b8f3b157814c0220515d6e4d046960f56781c90e906eaac3118f2de63808ba698cd7d4ae16bf930a[ALL] 020b6cf918ef3323936a922688beab33e9754e1ed905dabd37ea2391857a778297"}, "vout": 9, "txid": "e16565d0dfefac79098a55e733f4ba3008011c9ed0b7189084d784e618f92d37"}, {"sequence": 4294967295, "scriptSig": {"hex": "483045022100cefaafe5de51082cf33fdb841725052ae033a4afe853c1cc8a39b437e47579d502200339bb8afcbd2a4d1438805e117c2c12097ed3b4148540752da62458d34d5f240121020b6cf918ef3323936a922688beab33e9754e1ed905dabd37ea2391857a778297", "asm": "3045022100cefaafe5de51082cf33fdb841725052ae033a4afe853c1cc8a39b437e47579d502200339bb8afcbd2a4d1438805e117c2c12097ed3b4148540752da62458d34d5f24[ALL] 020b6cf918ef3323936a922688beab33e9754e1ed905dabd37ea2391857a778297"}, "vout": 12, "txid": "e2f64afcd6b5597e228dad7f76b84deee1d4d15e3dbc1b82bedbc54d328775ba"}, {"sequence": 4294967295, "scriptSig": {"hex": "483045022100d6f606c7699eff461efb13677a2595168411914c39adc2b2013a3a6e52ba3ae60220793b3f2939e847c9fd5b246a4939e25886e21f09043ca4f56259edd8284dbe570121020b6cf918ef3323936a922688beab33e9754e1ed905dabd37ea2391857a778297", "asm": "3045022100d6f606c7699eff461efb13677a2595168411914c39adc2b2013a3a6e52ba3ae60220793b3f2939e847c9fd5b246a4939e25886e21f09043ca4f56259edd8284dbe57[ALL] 020b6cf918ef3323936a922688beab33e9754e1ed905dabd37ea2391857a778297"}, "vout": 8, "txid": "f6f37269557a96a2da34ab317314b14e77dc54ca27403998024b286b9a030bf2"}], "txid": "62727213d6bdbac87deceb6f13c3a7b4b1fb6be4339a7a3c0c9dfbb28fd0e570", "blocktime": 1537870268, "version": 1, "confirmations": 11518, "time": 1537870268, "locktime": 0, "vsize": 1110, "size": 1110}