{"hash": "62756df385382553cc65a31ade7bf9261e3846fc85d350a6692e01e73eed36b8", "blockhash": "0000000000000000001e0dab787dd257d1dbfcb92a98c2207d5e1078be1f4165", "vout": [{"scriptPubKey": {"reqSigs": 1, "hex": "a914f614aba6f6cd501fec1534473604c45cbd5408d787", "addresses": ["3Q8AuwrwUkmUaCMnthdZNtAPAS8zDR3ok4"], "asm": "OP_HASH160 f614aba6f6cd501fec1534473604c45cbd5408d7 OP_EQUAL", "type": "scripthash"}, "value": 0.00300935, "n": 0}, {"scriptPubKey": {"reqSigs": 1, "hex": "a914e786af5bb45930ea34075eea1fa8fe9208c816a987", "addresses": ["3NoDMw85fhFdr4Aw4KPpHMvQM9YqQj3Wja"], "asm": "OP_HASH160 e786af5bb45930ea34075eea1fa8fe9208c816a9 OP_EQUAL", "type": "scripthash"}, "value": 0.00147568, "n": 1}, {"scriptPubKey": {"reqSigs": 1, "hex": "76a91439499bf15a04cf5e235515be217576974c789c9a88ac", "addresses": ["16DuhPVhWeg3fErD94M6jhAbKaW9YsLicu"], "asm": "OP_DUP OP_HASH160 39499bf15a04cf5e235515be217576974c789c9a OP_EQUALVERIFY OP_CHECKSIG", "type": "pubkeyhash"}, "value": 0.01769534, "n": 2}, {"scriptPubKey": {"reqSigs": 1, "hex": "a914a4dd4e6a212fb86a02cac76cba2a66747fde129387", "addresses": ["3Gijrdpoi1PAnDkhqPVQWuBoZdVTM8f2k7"], "asm": "OP_HASH160 a4dd4e6a212fb86a02cac76cba2a66747fde1293 OP_EQUAL", "type": "scripthash"}, "value": 0.00206, "n": 3}, {"scriptPubKey": {"reqSigs": 1, "hex": "a9143fa267e3dc14c55f0abab3cad9418f49234fec3087", "addresses": ["37VV3nPK2Jr7GGzD5G9JGNNGdjcDmakMQg"], "asm": "OP_HASH160 3fa267e3dc14c55f0abab3cad9418f49234fec30 OP_EQUAL", "type": "scripthash"}, "value": 0.00758997, "n": 4}, {"scriptPubKey": {"reqSigs": 1, "hex": "a914c511028c172cfa963bc971b4f14530b7309087e887", "addresses": ["3Kf1RCvakFwWiDDjgveqv89YBtq754Pgyw"], "asm": "OP_HASH160 c511028c172cfa963bc971b4f14530b7309087e8 OP_EQUAL", "type": "scripthash"}, "value": 0.00266323, "n": 5}, {"scriptPubKey": {"reqSigs": 1, "hex": "a914d84b53652f04cb26ebe2da3d766f5ff3f475b1ae87", "addresses": ["3MQg7hqSATuBGd3XRpjAGQHZePzSraaSgn"], "asm": "OP_HASH160 d84b53652f04cb26ebe2da3d766f5ff3f475b1ae OP_EQUAL", "type": "scripthash"}, "value": 0.00802357, "n": 6}, {"scriptPubKey": {"reqSigs": 1, "hex": "76a9143b79b9bbe285ce0c0629713f23dfd4508ff2cf9088ac", "addresses": ["16RUgxRh16zkKD1xwpxEqws7hN8167Up1V"], "asm": "OP_DUP OP_HASH160 3b79b9bbe285ce0c0629713f23dfd4508ff2cf90 OP_EQUALVERIFY OP_CHECKSIG", "type": "pubkeyhash"}, "value": 0.0020342, "n": 7}, {"scriptPubKey": {"reqSigs": 1, "hex": "a9144222a9b71368af62a0d0cf0281074d7a8e1e303f87", "addresses": ["37ii3dQe8F2JfG2uD9vwoFFFUfzA3Ty1G6"], "asm": "OP_HASH160 4222a9b71368af62a0d0cf0281074d7a8e1e303f OP_EQUAL", "type": "scripthash"}, "value": 0.00443693, "n": 8}, {"scriptPubKey": {"reqSigs": 1, "hex": "a91401da53901e6e427c15129a377772b9e1d4a4135887", "addresses": ["31rp9KaDaV2AXi2Ai9BY5NxLrNJuqfMb62"], "asm": "OP_HASH160 01da53901e6e427c15129a377772b9e1d4a41358 OP_EQUAL", "type": "scripthash"}, "value": 0.00846, "n": 9}, {"scriptPubKey": {"reqSigs": 1, "hex": "76a9141497117570c5d395d9cb6f2ac053e5ab678ed9cd88ac", "addresses": ["12ssVEs81SpWKtwJyb4tfPstdEYFGnH4UD"], "asm": "OP_DUP OP_HASH160 1497117570c5d395d9cb6f2ac053e5ab678ed9cd OP_EQUALVERIFY OP_CHECKSIG", "type": "pubkeyhash"}, "value": 0.00996075, "n": 10}, {"scriptPubKey": {"reqSigs": 1, "hex": "a9148429a492b02812a38acc12bf3c7b7ffda94f4b6487", "addresses": ["3Djq1GAQoekCCRKy1kFtpX89qr6et2nn28"], "asm": "OP_HASH160 8429a492b02812a38acc12bf3c7b7ffda94f4b64 OP_EQUAL", "type": "scripthash"}, "value": 0.00124216, "n": 11}, {"scriptPubKey": {"reqSigs": 1, "hex": "76a914f36a2e07dcf45e3cee7f654532f2bcad609b3b2488ac", "addresses": ["1PC4Q7o6n7pUEmBbAqFC8yWtbrLFs3ZUpL"], "asm": "OP_DUP OP_HASH160 f36a2e07dcf45e3cee7f654532f2bcad609b3b24 OP_EQUALVERIFY OP_CHECKSIG", "type": "pubkeyhash"}, "value": 0.0124697, "n": 12}], "hex": "02000000059024f1fbe4984878355fa22ebc69385ea1f0378d87200248fd818bd9c6d74a8a010000006a47304402204afc486c89498f6c01bcc02a65db0ccb7f7cd994e58703caaa89642fb2b363c5022045d5bb9ebb85a7a6212924678f216526f6fb56f493ef4479da315322f4b52c7c01210245bf81e0316b1a6eb2c631763e8c1f3039512c22362d4f37351eac2dc2edd62cfeffffff9c0400a37b51f422a4138791790bbae34c771c3d35bcdba0030e042358b40b16050000006b483045022100c06e11832d35c9ee89b148c07ebe63485b59ef4a194c2ff5788da55427c8f37702203f4151c9fe83d1e1b627adc6fa118a85f8346373f2fec2c64e44a8d22a312d7a012102b1ab12ce106cf78e65e7c463add74ea8853c32ef37b2eb719ae0a16b315e9adefeffffff9c8eab94a7ff97b4094db5b5d69fd2df273839b01ae2b8dbb49855982175d10a000000006b483045022100f40cc57f2d0ac92d07e5f68cb03e11090b0ad0b209c60ad0a12541fde2dd9d4e02202aa7115a2a39a91cf449527a69b956d347be237821cd6c7908b3e817975276700121037b5980e5731420ebb136ecd8c3e041068e774cad8587a15e1fa3b506307ce066feffffffc0ffe871618f097d6ab6a25e524768eda604752123a3d4d5c350203265c05169a10000006b483045022100994eb00ec9d5482782072bc0a3143ad3dd9284d01f5a82602c29097a02c68c0a022079cdee08915c0361ee38153b96e3f0055bbde674d465d8b0be33f7a008f0b9c9012103867c9671f0a3717873afb177411293aff35eb0b37a7c4addb7aa9de6de500249feffffffcd442e932ec82986b5aea11439a68b8448d77278cb4e829cb687b49273b106bb000000006b483045022100bbad2813f0e946f2ae991e2b93c6303363c631f75bb5120b0a82c2ee008bef360220770bbd65363f281c0265970326b5db6ff641ebafc0b2ce595b9be7fbd3b3c9f30121037b5980e5731420ebb136ecd8c3e041068e774cad8587a15e1fa3b506307ce066feffffff0d879704000000000017a914f614aba6f6cd501fec1534473604c45cbd5408d787704002000000000017a914e786af5bb45930ea34075eea1fa8fe9208c816a9873e001b00000000001976a91439499bf15a04cf5e235515be217576974c789c9a88acb02403000000000017a914a4dd4e6a212fb86a02cac76cba2a66747fde129387d5940b000000000017a9143fa267e3dc14c55f0abab3cad9418f49234fec3087531004000000000017a914c511028c172cfa963bc971b4f14530b7309087e887353e0c000000000017a914d84b53652f04cb26ebe2da3d766f5ff3f475b1ae879c1a0300000000001976a9143b79b9bbe285ce0c0629713f23dfd4508ff2cf9088ac2dc506000000000017a9144222a9b71368af62a0d0cf0281074d7a8e1e303f87b0e80c000000000017a91401da53901e6e427c15129a377772b9e1d4a4135887eb320f00000000001976a9141497117570c5d395d9cb6f2ac053e5ab678ed9cd88ac38e501000000000017a9148429a492b02812a38acc12bf3c7b7ffda94f4b6487fa061300000000001976a914f36a2e07dcf45e3cee7f654532f2bcad609b3b2488ac11490800", "vin": [{"sequence": 4294967294, "scriptSig": {"hex": "47304402204afc486c89498f6c01bcc02a65db0ccb7f7cd994e58703caaa89642fb2b363c5022045d5bb9ebb85a7a6212924678f216526f6fb56f493ef4479da315322f4b52c7c01210245bf81e0316b1a6eb2c631763e8c1f3039512c22362d4f37351eac2dc2edd62c", "asm": "304402204afc486c89498f6c01bcc02a65db0ccb7f7cd994e58703caaa89642fb2b363c5022045d5bb9ebb85a7a6212924678f216526f6fb56f493ef4479da315322f4b52c7c[ALL] 0245bf81e0316b1a6eb2c631763e8c1f3039512c22362d4f37351eac2dc2edd62c"}, "vout": 1, "txid": "8a4ad7c6d98b81fd480220878d37f0a15e3869bc2ea25f35784898e4fbf12490"}, {"sequence": 4294967294, "scriptSig": {"hex": "483045022100c06e11832d35c9ee89b148c07ebe63485b59ef4a194c2ff5788da55427c8f37702203f4151c9fe83d1e1b627adc6fa118a85f8346373f2fec2c64e44a8d22a312d7a012102b1ab12ce106cf78e65e7c463add74ea8853c32ef37b2eb719ae0a16b315e9ade", "asm": "3045022100c06e11832d35c9ee89b148c07ebe63485b59ef4a194c2ff5788da55427c8f37702203f4151c9fe83d1e1b627adc6fa118a85f8346373f2fec2c64e44a8d22a312d7a[ALL] 02b1ab12ce106cf78e65e7c463add74ea8853c32ef37b2eb719ae0a16b315e9ade"}, "vout": 5, "txid": "160bb45823040e03a0dbbc353d1c774ce3ba0b79918713a422f4517ba300049c"}, {"sequence": 4294967294, "scriptSig": {"hex": "483045022100f40cc57f2d0ac92d07e5f68cb03e11090b0ad0b209c60ad0a12541fde2dd9d4e02202aa7115a2a39a91cf449527a69b956d347be237821cd6c7908b3e817975276700121037b5980e5731420ebb136ecd8c3e041068e774cad8587a15e1fa3b506307ce066", "asm": "3045022100f40cc57f2d0ac92d07e5f68cb03e11090b0ad0b209c60ad0a12541fde2dd9d4e02202aa7115a2a39a91cf449527a69b956d347be237821cd6c7908b3e81797527670[ALL] 037b5980e5731420ebb136ecd8c3e041068e774cad8587a15e1fa3b506307ce066"}, "vout": 0, "txid": "0ad17521985598b4dbb8e21ab0393827dfd29fd6b5b54d09b497ffa794ab8e9c"}, {"sequence": 4294967294, "scriptSig": {"hex": "483045022100994eb00ec9d5482782072bc0a3143ad3dd9284d01f5a82602c29097a02c68c0a022079cdee08915c0361ee38153b96e3f0055bbde674d465d8b0be33f7a008f0b9c9012103867c9671f0a3717873afb177411293aff35eb0b37a7c4addb7aa9de6de500249", "asm": "3045022100994eb00ec9d5482782072bc0a3143ad3dd9284d01f5a82602c29097a02c68c0a022079cdee08915c0361ee38153b96e3f0055bbde674d465d8b0be33f7a008f0b9c9[ALL] 03867c9671f0a3717873afb177411293aff35eb0b37a7c4addb7aa9de6de500249"}, "vout": 161, "txid": "6951c065322050c3d5d4a323217504a6ed6847525ea2b66a7d098f6171e8ffc0"}, {"sequence": 4294967294, "scriptSig": {"hex": "483045022100bbad2813f0e946f2ae991e2b93c6303363c631f75bb5120b0a82c2ee008bef360220770bbd65363f281c0265970326b5db6ff641ebafc0b2ce595b9be7fbd3b3c9f30121037b5980e5731420ebb136ecd8c3e041068e774cad8587a15e1fa3b506307ce066", "asm": "3045022100bbad2813f0e946f2ae991e2b93c6303363c631f75bb5120b0a82c2ee008bef360220770bbd65363f281c0265970326b5db6ff641ebafc0b2ce595b9be7fbd3b3c9f3[ALL] 037b5980e5731420ebb136ecd8c3e041068e774cad8587a15e1fa3b506307ce066"}, "vout": 0, "txid": "bb06b17392b487b69c824ecb7872d748848ba63914a1aeb58629c82e932e44cd"}], "txid": "62756df385382553cc65a31ade7bf9261e3846fc85d350a6692e01e73eed36b8", "blocktime": 1537872475, "version": 2, "confirmations": 11487, "time": 1537872475, "locktime": 542993, "vsize": 1173, "size": 1173}