{"hash": "6276a175f2e5f4ecd5e7add5766b5bf694843a6c39e4210b0984398fb74c8c40", "blockhash": "0000000000000000001cda96e906b7601b7a6fb1a3b62bca570a9e5d8f4b3de1", "vout": [{"scriptPubKey": {"reqSigs": 1, "hex": "76a9144f8048ae25f57880d7323a54de1fd83c46f2cb1288ac", "addresses": ["18FN4UemFE1JYkMwR4MS5yAdKjekftarmH"], "asm": "OP_DUP OP_HASH160 4f8048ae25f57880d7323a54de1fd83c46f2cb12 OP_EQUALVERIFY OP_CHECKSIG", "type": "pubkeyhash"}, "value": 0.00182934, "n": 0}, {"scriptPubKey": {"reqSigs": 1, "hex": "76a914b6a887ed35edf7490647d4b9ffcc4c052ac0522088ac", "addresses": ["1HeosegmN8BeaSnFwvmauNFwTJ6aZg3XHa"], "asm": "OP_DUP OP_HASH160 b6a887ed35edf7490647d4b9ffcc4c052ac05220 OP_EQUALVERIFY OP_CHECKSIG", "type": "pubkeyhash"}, "value": 0.00649517, "n": 1}], "hex": "0100000001d71cb43bc5946109b777c37d6731b5e45c3c9cbc1c76469b5bccff2681481084000000006a47304402200cbb12fa67107bbb6fef0b04a64b88c6a90fa9e45e4b04a2afaa6dfc7ee5467f02205d067aae18720bf55a51e7d830616866bff62f87b90039ce51ad18c2346c7c1c012103beec27bd0192d788a15af1483ff5eb731c9831adf7f52a76806d642ed68f1665fdffffff0296ca0200000000001976a9144f8048ae25f57880d7323a54de1fd83c46f2cb1288ac2de90900000000001976a914b6a887ed35edf7490647d4b9ffcc4c052ac0522088ac13490800", "vin": [{"sequence": 4294967293, "scriptSig": {"hex": "47304402200cbb12fa67107bbb6fef0b04a64b88c6a90fa9e45e4b04a2afaa6dfc7ee5467f02205d067aae18720bf55a51e7d830616866bff62f87b90039ce51ad18c2346c7c1c012103beec27bd0192d788a15af1483ff5eb731c9831adf7f52a76806d642ed68f1665", "asm": "304402200cbb12fa67107bbb6fef0b04a64b88c6a90fa9e45e4b04a2afaa6dfc7ee5467f02205d067aae18720bf55a51e7d830616866bff62f87b90039ce51ad18c2346c7c1c[ALL] 03beec27bd0192d788a15af1483ff5eb731c9831adf7f52a76806d642ed68f1665"}, "vout": 0, "txid": "8410488126ffcc5b9b46761cbc9c3c5ce4b531677dc377b7096194c53bb41cd7"}], "txid": "6276a175f2e5f4ecd5e7add5766b5bf694843a6c39e4210b0984398fb74c8c40", "blocktime": 1537873282, "version": 1, "confirmations": 11481, "time": 1537873282, "locktime": 542995, "vsize": 225, "size": 225}