{"hash": "62772b9cad4410bdaff22b4c3b512705587d1950f887bddbd064d1956c2b585c", "blockhash": "0000000000000000001cda96e906b7601b7a6fb1a3b62bca570a9e5d8f4b3de1", "vout": [{"scriptPubKey": {"reqSigs": 1, "hex": "a91484854f4d5476c87bd52750455aab98b3133f8fba87", "addresses": ["3DmipPd1D6ThDKjHKittGvcDJaMPTiYEka"], "asm": "OP_HASH160 84854f4d5476c87bd52750455aab98b3133f8fba OP_EQUAL", "type": "scripthash"}, "value": 0.01042, "n": 0}, {"scriptPubKey": {"reqSigs": 1, "hex": "a914e370231feecbfc25e2e2423a5a79bf79bfdca59887", "addresses": ["3NRbeX3vD5VaVE4TDU9ivCDsEf7NPPte6J"], "asm": "OP_HASH160 e370231feecbfc25e2e2423a5a79bf79bfdca598 OP_EQUAL", "type": "scripthash"}, "value": 0.50276814, "n": 1}], "hex": "0100000001a8b96472776ac87efd3ac14d3cb8dd43910e486794b2c3acd2cd2b27ced1a92301000000da00473044022020a61a92e67306304621a3a0de240fe1c3de463ce2aa223442579db9163682020220624d5eed8d709d3b118d8140b306b40cf07c2179bb126c63fc06b8e5ac0a0ebe01483045022100de5f46ae7a7662224edd565f8e6b473e4c8e5c0580825bbd78aaf751bc45807402206058639a5feb79ac5bec7ad5285bab227080c85e860097335a3bc1955a411277014752210327881b6abce6535553a3ce21fad12a7d74fd237ce7c4cd270a267162344e3082210256141f8eb687f5a68c5cc65054652dc25116fa285e44d72b44368827ffe77d9a52aeffffffff0250e60f000000000017a91484854f4d5476c87bd52750455aab98b3133f8fba87ce29ff020000000017a914e370231feecbfc25e2e2423a5a79bf79bfdca5988700000000", "vin": [{"sequence": 4294967295, "scriptSig": {"hex": "00473044022020a61a92e67306304621a3a0de240fe1c3de463ce2aa223442579db9163682020220624d5eed8d709d3b118d8140b306b40cf07c2179bb126c63fc06b8e5ac0a0ebe01483045022100de5f46ae7a7662224edd565f8e6b473e4c8e5c0580825bbd78aaf751bc45807402206058639a5feb79ac5bec7ad5285bab227080c85e860097335a3bc1955a411277014752210327881b6abce6535553a3ce21fad12a7d74fd237ce7c4cd270a267162344e3082210256141f8eb687f5a68c5cc65054652dc25116fa285e44d72b44368827ffe77d9a52ae", "asm": "0 3044022020a61a92e67306304621a3a0de240fe1c3de463ce2aa223442579db9163682020220624d5eed8d709d3b118d8140b306b40cf07c2179bb126c63fc06b8e5ac0a0ebe[ALL] 3045022100de5f46ae7a7662224edd565f8e6b473e4c8e5c0580825bbd78aaf751bc45807402206058639a5feb79ac5bec7ad5285bab227080c85e860097335a3bc1955a411277[ALL] 52210327881b6abce6535553a3ce21fad12a7d74fd237ce7c4cd270a267162344e3082210256141f8eb687f5a68c5cc65054652dc25116fa285e44d72b44368827ffe77d9a52ae"}, "vout": 1, "txid": "23a9d1ce272bcdd2acc3b29467480e9143ddb83c4dc13afd7ec86a777264b9a8"}], "txid": "62772b9cad4410bdaff22b4c3b512705587d1950f887bddbd064d1956c2b585c", "blocktime": 1537873282, "version": 1, "confirmations": 11484, "time": 1537873282, "locktime": 0, "vsize": 333, "size": 333}