{"hash": "e9f8c1ce6812f0af1083b63740ec0a7b1386dc7bfeb9c11431928934d1c06261", "blockhash": "0000000000000000000e13cef7c366c0283d82e591d1acd082e914b08063cdf1", "vout": [{"scriptPubKey": {"reqSigs": 1, "hex": "a91491822e009e56a199b563ab9d8acabd0c3171fbd787", "addresses": ["3ExPrQLD3UeJY4gxtQx8G5mwCCsRkzA8a6"], "asm": "OP_HASH160 91822e009e56a199b563ab9d8acabd0c3171fbd7 OP_EQUAL", "type": "scripthash"}, "value": 0.026429, "n": 0}, {"scriptPubKey": {"reqSigs": 1, "hex": "a914dee0a1cc9f055700143e0f4ecee53180ab3530dc87", "addresses": ["3N1V2qWA5hpScEmS72pMooYRmXUiLmwPQQ"], "asm": "OP_HASH160 dee0a1cc9f055700143e0f4ecee53180ab3530dc OP_EQUAL", "type": "scripthash"}, "value": 0.5525531, "n": 1}], "hex": "020000000001013accb33dda148a3a005fbec519bd08936bb8024c6a779ff0d07909b87698ba7d0100000017160014cb5dbe423de4d42b6425c6921084c6197a5d2937ffffffff02d45328000000000017a91491822e009e56a199b563ab9d8acabd0c3171fbd7870e214b030000000017a914dee0a1cc9f055700143e0f4ecee53180ab3530dc8702483045022100bc0ff5baa5c7b48e34af1787844338e102a71af7223bc11bfca2d2497e9c03690220289af51aae69b527ca27f53de250fb510db63e6aa9e0935ac2ea79d0b66c4b93012102acecad485eda786cbe0422823b7594aea6854abb5ec85e267f1c4b87f3f758f700000000", "vin": [{"txinwitness": ["3045022100bc0ff5baa5c7b48e34af1787844338e102a71af7223bc11bfca2d2497e9c03690220289af51aae69b527ca27f53de250fb510db63e6aa9e0935ac2ea79d0b66c4b9301", "02acecad485eda786cbe0422823b7594aea6854abb5ec85e267f1c4b87f3f758f7"], "sequence": 4294967295, "scriptSig": {"hex": "160014cb5dbe423de4d42b6425c6921084c6197a5d2937", "asm": "0014cb5dbe423de4d42b6425c6921084c6197a5d2937"}, "vout": 1, "txid": "7dba9876b80979d0f09f776a4c02b86b9308bd19c5be5f003a8a14da3db3cc3a"}], "txid": "6277b1f8560def60bcd443cf5618c2cb332ef693fa1721433368437a0eaa2b6e", "blocktime": 1537871767, "version": 2, "confirmations": 11490, "time": 1537871767, "locktime": 0, "vsize": 166, "size": 248}