{"hash": "4b33d5b4073294812ec1d7da8db27b3afe04c80f3da23699aad53b1a29ea24b6", "blockhash": "0000000000000000001cda96e906b7601b7a6fb1a3b62bca570a9e5d8f4b3de1", "vout": [{"scriptPubKey": {"reqSigs": 1, "hex": "001458209a804b660c7963a00e66143996ad054136e9", "addresses": ["bc1qtqsf4qztvcx8jcaqpenpgwvk45z5zdhf9melav"], "asm": "0 58209a804b660c7963a00e66143996ad054136e9", "type": "witness_v0_keyhash"}, "value": 0.53062935, "n": 0}, {"scriptPubKey": {"reqSigs": 1, "hex": "76a914de5df397cc60edd21bbef5bb3b2cd2ef91cf539988ac", "addresses": ["1MGmZTJPukFV4FG4yWnvrJLdfYE7oikGJf"], "asm": "OP_DUP OP_HASH160 de5df397cc60edd21bbef5bb3b2cd2ef91cf5399 OP_EQUALVERIFY OP_CHECKSIG", "type": "pubkeyhash"}, "value": 0.03304704, "n": 1}], "hex": "010000000001019aeca8058885bee9799ce4bb5d6801564ea651291efcee2c7fbb471c1031ecc00100000000ffffffff0217ad29030000000016001458209a804b660c7963a00e66143996ad054136e9006d3200000000001976a914de5df397cc60edd21bbef5bb3b2cd2ef91cf539988ac02483045022100ec485eddbb7b81ee078af8ca614a78214637f7a81b45c738b906f883f63c564d022009c28cf4b86e334a2140b307f6bbee57e0dffe7d8b152666d2b5b0a4e312849101210251aa3ef66682edb4bf49c8ce31110d12afe489ae8fe85808015b5c25e675ba3b00000000", "vin": [{"txinwitness": ["3045022100ec485eddbb7b81ee078af8ca614a78214637f7a81b45c738b906f883f63c564d022009c28cf4b86e334a2140b307f6bbee57e0dffe7d8b152666d2b5b0a4e312849101", "0251aa3ef66682edb4bf49c8ce31110d12afe489ae8fe85808015b5c25e675ba3b"], "sequence": 4294967295, "scriptSig": {"hex": "", "asm": ""}, "vout": 1, "txid": "c0ec31101c47bb7f2ceefc1e2951a64e5601685dbbe49c79e9be858805a8ec9a"}], "txid": "627c0e3dfd1bed33415617984b07efd6242406884237839d22b96bd33eada0dd", "blocktime": 1537873282, "version": 1, "confirmations": 11484, "time": 1537873282, "locktime": 0, "vsize": 144, "size": 226}