{"hash": "627c2c64d0a7beaae04cee9aea6b8fc1a829270d96eb74094dee6ca88a6b7b77", "blockhash": "0000000000000000000dcc0f55137456b1a82d3642486a52398922ac4d620174", "vout": [{"scriptPubKey": {"reqSigs": 1, "hex": "76a914b2d9c855025a90664d85d0e6e996853f99abb08288ac", "addresses": ["1HJgAwfTpWtPnMQELQvkj5kDeBPdM6BAVs"], "asm": "OP_DUP OP_HASH160 b2d9c855025a90664d85d0e6e996853f99abb082 OP_EQUALVERIFY OP_CHECKSIG", "type": "pubkeyhash"}, "value": 5.46e-06, "n": 0}, {"scriptPubKey": {"reqSigs": 1, "hex": "76a914a520c86a08366941cd90d22e11ac1c7eefa2db3788ac", "addresses": ["1G47mSr3oANXMafVrR8UC4pzV7FEAzo3r9"], "asm": "OP_DUP OP_HASH160 a520c86a08366941cd90d22e11ac1c7eefa2db37 OP_EQUALVERIFY OP_CHECKSIG", "type": "pubkeyhash"}, "value": 1.10017163, "n": 1}, {"scriptPubKey": {"type": "nulldata", "hex": "6a146f6d6e69000000000000001f000000225eca3c00", "asm": "OP_RETURN 6f6d6e69000000000000001f000000225eca3c00"}, "value": 0.0, "n": 2}], "hex": "01000000019a8147b3a9dc4ee74b1eb8dcd50087eb0589f88f02bd015b880968db47a0c525000000006b483045022100e55854dcb99109832f868a177c0219a13b117e7b11926396a0af6c236930442c0220021d6278aa03c3dca20a36fae98b13b1286d6ad9e0419bbe47027e33ac0dd8e6012103f3f44c9e80e2cedc1a2909631a3adea8866ee32187f74d0912387359b0ff36a2ffffffff0322020000000000001976a914b2d9c855025a90664d85d0e6e996853f99abb08288ac8bba8e06000000001976a914a520c86a08366941cd90d22e11ac1c7eefa2db3788ac0000000000000000166a146f6d6e69000000000000001f000000225eca3c0000000000", "vin": [{"sequence": 4294967295, "scriptSig": {"hex": "483045022100e55854dcb99109832f868a177c0219a13b117e7b11926396a0af6c236930442c0220021d6278aa03c3dca20a36fae98b13b1286d6ad9e0419bbe47027e33ac0dd8e6012103f3f44c9e80e2cedc1a2909631a3adea8866ee32187f74d0912387359b0ff36a2", "asm": "3045022100e55854dcb99109832f868a177c0219a13b117e7b11926396a0af6c236930442c0220021d6278aa03c3dca20a36fae98b13b1286d6ad9e0419bbe47027e33ac0dd8e6[ALL] 03f3f44c9e80e2cedc1a2909631a3adea8866ee32187f74d0912387359b0ff36a2"}, "vout": 0, "txid": "25c5a047db6809885b01bd028ff88905eb8700d5dcb81e4be74edca9b347819a"}], "txid": "627c2c64d0a7beaae04cee9aea6b8fc1a829270d96eb74094dee6ca88a6b7b77", "blocktime": 1537870268, "version": 1, "confirmations": 11516, "time": 1537870268, "locktime": 0, "vsize": 257, "size": 257}