{"hash": "627d808630b456f45b21f4ed40af2ebfdd9ade7e6d2f4ad34de7af01cb70d8f0", "blockhash": "0000000000000000001f0ddff1eddb255c1121bcd4da4f1bc9a0da00cae72433", "vout": [{"scriptPubKey": {"reqSigs": 1, "hex": "76a914f2a6717f4e423d47b3a4f2487f7f44390a8b268888ac", "addresses": ["1P81v7McsQD7md57Gw8YDmnbMY9emNWFtk"], "asm": "OP_DUP OP_HASH160 f2a6717f4e423d47b3a4f2487f7f44390a8b2688 OP_EQUALVERIFY OP_CHECKSIG", "type": "pubkeyhash"}, "value": 0.009802, "n": 0}, {"scriptPubKey": {"reqSigs": 1, "hex": "76a9144a3afe2946bce49ee1d88a397bc3f48411077d2288ac", "addresses": ["17mVg67u4gwVa5JhaP9YCarZCsfCqCfn7b"], "asm": "OP_DUP OP_HASH160 4a3afe2946bce49ee1d88a397bc3f48411077d22 OP_EQUALVERIFY OP_CHECKSIG", "type": "pubkeyhash"}, "value": 0.0006948, "n": 1}], "hex": "0100000001f59bcd75565c20ef03f78b51271353a3748ffed1a0dcf13ed3c2631009506fdd020000006a47304402205ac755cba6570884d7cd6ee3ad3108fcdd3a7d269bf13dbde7b5891c5ae37c5e02202d73f96bdd926d4a6fe4532ea72b9e680fb8ae07ed99b4eb86693ae9498818470121035ed6eb87666654c26ad144c4050aa60a86891108cc44b9e521c1cbd41e055910ffffffff02e8f40e00000000001976a914f2a6717f4e423d47b3a4f2487f7f44390a8b268888ac680f0100000000001976a9144a3afe2946bce49ee1d88a397bc3f48411077d2288ac00000000", "vin": [{"sequence": 4294967295, "scriptSig": {"hex": "47304402205ac755cba6570884d7cd6ee3ad3108fcdd3a7d269bf13dbde7b5891c5ae37c5e02202d73f96bdd926d4a6fe4532ea72b9e680fb8ae07ed99b4eb86693ae9498818470121035ed6eb87666654c26ad144c4050aa60a86891108cc44b9e521c1cbd41e055910", "asm": "304402205ac755cba6570884d7cd6ee3ad3108fcdd3a7d269bf13dbde7b5891c5ae37c5e02202d73f96bdd926d4a6fe4532ea72b9e680fb8ae07ed99b4eb86693ae949881847[ALL] 035ed6eb87666654c26ad144c4050aa60a86891108cc44b9e521c1cbd41e055910"}, "vout": 2, "txid": "dd6f50091063c2d33ef1dca0d1fe8f74a3531327518bf703ef205c5675cd9bf5"}], "txid": "627d808630b456f45b21f4ed40af2ebfdd9ade7e6d2f4ad34de7af01cb70d8f0", "blocktime": 1537872018, "version": 1, "confirmations": 11489, "time": 1537872018, "locktime": 0, "vsize": 225, "size": 225}