{"hash": "bcd9a0c77006657799e94b62cfdc5b32d94cec219aba52cc01dde5b45246f727", "blockhash": "0000000000000000000e13cef7c366c0283d82e591d1acd082e914b08063cdf1", "vout": [{"scriptPubKey": {"reqSigs": 1, "hex": "76a9141bb04c7ef790e73b84c6c448aed5590899d3e8df88ac", "addresses": ["13XQSdsLHNV3myZtt4VivdM9YETXGJfn1z"], "asm": "OP_DUP OP_HASH160 1bb04c7ef790e73b84c6c448aed5590899d3e8df OP_EQUALVERIFY OP_CHECKSIG", "type": "pubkeyhash"}, "value": 0.00134782, "n": 0}, {"scriptPubKey": {"reqSigs": 1, "hex": "a91421ad356064d56413b8cabd0f655079b9b7726ac787", "addresses": ["34m5icSaF7FVgWNhADiRTmepCB1ffm7xSE"], "asm": "OP_HASH160 21ad356064d56413b8cabd0f655079b9b7726ac7 OP_EQUAL", "type": "scripthash"}, "value": 0.15071716, "n": 1}], "hex": "020000000001013507fed32b50aa592c03865a0fc7c317bcd389c58f85321297dd5373669050a30000000017160014ed312cfa28af20acff563b0a98f5c42db1a92c68feffffff027e0e0200000000001976a9141bb04c7ef790e73b84c6c448aed5590899d3e8df88ace4f9e5000000000017a91421ad356064d56413b8cabd0f655079b9b7726ac7870247304402205415bdae7b7a737218eb067baf69f49276fdcbfe3cc5b1fd99430f62b90a1b2402205efcd6b6824e4dad817d266cf4b8341a9b8603fb202a1132c729a47675c3b5dd012103f2ff1ce69bf12379a80d4c606afadb6abc447e380128313de95494d312a5b0ae10490800", "vin": [{"txinwitness": ["304402205415bdae7b7a737218eb067baf69f49276fdcbfe3cc5b1fd99430f62b90a1b2402205efcd6b6824e4dad817d266cf4b8341a9b8603fb202a1132c729a47675c3b5dd01", "03f2ff1ce69bf12379a80d4c606afadb6abc447e380128313de95494d312a5b0ae"], "sequence": 4294967294, "scriptSig": {"hex": "160014ed312cfa28af20acff563b0a98f5c42db1a92c68", "asm": "0014ed312cfa28af20acff563b0a98f5c42db1a92c68"}, "vout": 0, "txid": "a35090667353dd971232858fc589d3bc17c3c70f5a86032c59aa502bd3fe0735"}], "txid": "62802bb45bb8b4fb78ff12e8e8ef4a84bf32199b2737dd191393ed0cfce6d681", "blocktime": 1537871767, "version": 2, "confirmations": 11492, "time": 1537871767, "locktime": 542992, "vsize": 168, "size": 249}