{"hash": "62840c728f7e4073c7d9bdd1f2070377b9f7989b188959e9d8ff233a735033d3", "blockhash": "00000000000000000017f5eb5941039fbcee6240d03bc1f2f8e35350df66a1d8", "vout": [{"scriptPubKey": {"reqSigs": 1, "hex": "76a91402db92c6be8e3438ba271f978c7c81b85666f33988ac", "addresses": ["1G7PcDQsoSEkttLwZ7M67SDbdsdQDXN1Z"], "asm": "OP_DUP OP_HASH160 02db92c6be8e3438ba271f978c7c81b85666f339 OP_EQUALVERIFY OP_CHECKSIG", "type": "pubkeyhash"}, "value": 0.00024302, "n": 0}, {"scriptPubKey": {"reqSigs": 1, "hex": "76a9141431d89bbb70e8b8814adeb454f743f6f2af361b88ac", "addresses": ["12qnECxb7bhke2NqnB6R4TBRjn4N5rXjoD"], "asm": "OP_DUP OP_HASH160 1431d89bbb70e8b8814adeb454f743f6f2af361b OP_EQUALVERIFY OP_CHECKSIG", "type": "pubkeyhash"}, "value": 0.02372683, "n": 1}], "hex": "0100000007025e9ffa04d90b5f1a962c356018448639c97372a5de2e25b6e10989348241c1000000006a4730440220435080cd64db45807886c8f5eb0fefe5fcd9fcf97293801d87999a6dbc39742e0220173dcde31886ef57d09954cc0523685aea29f4defb0c87bdf85744c71592584c012102d3bad8e3fee7095d8d4c0114b2990ffc3d9dbf8295c72e6a14e3e8cc8e8709a6ffffffff1b1dbee614f3a777ab3280684487d771be671988cae1f2dd343d02fb13e47dec010000006b483045022100862f17f5232eca8e198b87876a47fa9b7d599222ee67c2cf54d8859160e1418902207d1661b857fbe57ad366cc55f4d73892f2a4f8fb15ccd1c0d449af19f1d3cea4012103d37e3e76bf55bf5aa8ce7fb5444be670430096505d1490e75a12ecbc46dd9296ffffffff216e0630a7a99731a146525744cd00472b952d601d3d374ae4d07b4d631d820f000000006a47304402201329ac98d2904baa412f84bbe02a3852849435e506dbc321f98064ad578b026302206f6b0930233f8e3be3c1aab8de1adf160ae248e99837113996e238bb584bf352012103b71d40a35bcb150b0d81ad862d9184b32b9ea93189e260874d3ee21b2d5b4a57ffffffff8817b46cd78df1d3f1845d107076cef7f0c4df96e58074f1785cd50ac75cb391000000006b4830450221009cc6ed1b6356a5b7a533df3d4dd4f51897c4186ad4c90e945e656358961d2b7f02206e9b0e502b13dba42a94b8540e09e505e9cbac287fd52acd96acc1c080cacb62012103e16388b58fbab50acf503cdf9c1612f4dc20733a0df638602478e40b9fb424bbffffffff90b3192188f877476175aa7f5225e761c8188f2d71b6df7613af4a3541ba990b1b0000006a473044022075a6880416c00ef26a8518df7f00efb52a3392fbedd0e9ee4d1ed3f7f5f2d7df0220068cdad5b8dfd7897b31bdc995eb238c1d3b9692401cc3beb4789bad388a95bd01210232f8d1d5b14fb4e664d798c5e3819a58b272f7dcdf079d9da1e46b599e2507edffffffffa9729c77a07d6fd9677dc5e38af4bebae14e6027eba1b7e09bf576cfa55173010c0000006a47304402206851eb9f32d7c791b13161b52b6e81f0ee7272689fbb608ebcdcf9b737b8e20f0220042dbab5afec056f939ac455f63e1bc95a6b1466151584179a1a4b0af37ff83501210232f8d1d5b14fb4e664d798c5e3819a58b272f7dcdf079d9da1e46b599e2507edffffffffdb97e6d112d2e0a648e077f25a85fc0bee2dab4a28d31ee976de281c14b483b3020000006b483045022100c97fb7b74c173750e8a21b2d2ddd795c2ae60592d40ec8b77fe8d9c7c9af1a0002203f57e54281026a4e11e34f47b54caa6f95d51782484993bde3c7c363ee65d320012102a0d6a14d739cc0cc7e7c2ade080b45144c1b1e50261cf96f3b0086306f2a43b9ffffffff02ee5e0000000000001976a91402db92c6be8e3438ba271f978c7c81b85666f33988ac4b342400000000001976a9141431d89bbb70e8b8814adeb454f743f6f2af361b88ac00000000", "vin": [{"sequence": 4294967295, "scriptSig": {"hex": "4730440220435080cd64db45807886c8f5eb0fefe5fcd9fcf97293801d87999a6dbc39742e0220173dcde31886ef57d09954cc0523685aea29f4defb0c87bdf85744c71592584c012102d3bad8e3fee7095d8d4c0114b2990ffc3d9dbf8295c72e6a14e3e8cc8e8709a6", "asm": "30440220435080cd64db45807886c8f5eb0fefe5fcd9fcf97293801d87999a6dbc39742e0220173dcde31886ef57d09954cc0523685aea29f4defb0c87bdf85744c71592584c[ALL] 02d3bad8e3fee7095d8d4c0114b2990ffc3d9dbf8295c72e6a14e3e8cc8e8709a6"}, "vout": 0, "txid": "c14182348909e1b6252edea57273c93986441860352c961a5f0bd904fa9f5e02"}, {"sequence": 4294967295, "scriptSig": {"hex": "483045022100862f17f5232eca8e198b87876a47fa9b7d599222ee67c2cf54d8859160e1418902207d1661b857fbe57ad366cc55f4d73892f2a4f8fb15ccd1c0d449af19f1d3cea4012103d37e3e76bf55bf5aa8ce7fb5444be670430096505d1490e75a12ecbc46dd9296", "asm": "3045022100862f17f5232eca8e198b87876a47fa9b7d599222ee67c2cf54d8859160e1418902207d1661b857fbe57ad366cc55f4d73892f2a4f8fb15ccd1c0d449af19f1d3cea4[ALL] 03d37e3e76bf55bf5aa8ce7fb5444be670430096505d1490e75a12ecbc46dd9296"}, "vout": 1, "txid": "ec7de413fb023d34ddf2e1ca881967be71d78744688032ab77a7f314e6be1d1b"}, {"sequence": 4294967295, "scriptSig": {"hex": "47304402201329ac98d2904baa412f84bbe02a3852849435e506dbc321f98064ad578b026302206f6b0930233f8e3be3c1aab8de1adf160ae248e99837113996e238bb584bf352012103b71d40a35bcb150b0d81ad862d9184b32b9ea93189e260874d3ee21b2d5b4a57", "asm": "304402201329ac98d2904baa412f84bbe02a3852849435e506dbc321f98064ad578b026302206f6b0930233f8e3be3c1aab8de1adf160ae248e99837113996e238bb584bf352[ALL] 03b71d40a35bcb150b0d81ad862d9184b32b9ea93189e260874d3ee21b2d5b4a57"}, "vout": 0, "txid": "0f821d634d7bd0e44a373d1d602d952b4700cd44575246a13197a9a730066e21"}, {"sequence": 4294967295, "scriptSig": {"hex": "4830450221009cc6ed1b6356a5b7a533df3d4dd4f51897c4186ad4c90e945e656358961d2b7f02206e9b0e502b13dba42a94b8540e09e505e9cbac287fd52acd96acc1c080cacb62012103e16388b58fbab50acf503cdf9c1612f4dc20733a0df638602478e40b9fb424bb", "asm": "30450221009cc6ed1b6356a5b7a533df3d4dd4f51897c4186ad4c90e945e656358961d2b7f02206e9b0e502b13dba42a94b8540e09e505e9cbac287fd52acd96acc1c080cacb62[ALL] 03e16388b58fbab50acf503cdf9c1612f4dc20733a0df638602478e40b9fb424bb"}, "vout": 0, "txid": "91b35cc70ad55c78f17480e596dfc4f0f7ce7670105d84f1d3f18dd76cb41788"}, {"sequence": 4294967295, "scriptSig": {"hex": "473044022075a6880416c00ef26a8518df7f00efb52a3392fbedd0e9ee4d1ed3f7f5f2d7df0220068cdad5b8dfd7897b31bdc995eb238c1d3b9692401cc3beb4789bad388a95bd01210232f8d1d5b14fb4e664d798c5e3819a58b272f7dcdf079d9da1e46b599e2507ed", "asm": "3044022075a6880416c00ef26a8518df7f00efb52a3392fbedd0e9ee4d1ed3f7f5f2d7df0220068cdad5b8dfd7897b31bdc995eb238c1d3b9692401cc3beb4789bad388a95bd[ALL] 0232f8d1d5b14fb4e664d798c5e3819a58b272f7dcdf079d9da1e46b599e2507ed"}, "vout": 27, "txid": "0b99ba41354aaf1376dfb6712d8f18c861e725527faa75614777f8882119b390"}, {"sequence": 4294967295, "scriptSig": {"hex": "47304402206851eb9f32d7c791b13161b52b6e81f0ee7272689fbb608ebcdcf9b737b8e20f0220042dbab5afec056f939ac455f63e1bc95a6b1466151584179a1a4b0af37ff83501210232f8d1d5b14fb4e664d798c5e3819a58b272f7dcdf079d9da1e46b599e2507ed", "asm": "304402206851eb9f32d7c791b13161b52b6e81f0ee7272689fbb608ebcdcf9b737b8e20f0220042dbab5afec056f939ac455f63e1bc95a6b1466151584179a1a4b0af37ff835[ALL] 0232f8d1d5b14fb4e664d798c5e3819a58b272f7dcdf079d9da1e46b599e2507ed"}, "vout": 12, "txid": "017351a5cf76f59be0b7a1eb27604ee1babef48ae3c57d67d96f7da0779c72a9"}, {"sequence": 4294967295, "scriptSig": {"hex": "483045022100c97fb7b74c173750e8a21b2d2ddd795c2ae60592d40ec8b77fe8d9c7c9af1a0002203f57e54281026a4e11e34f47b54caa6f95d51782484993bde3c7c363ee65d320012102a0d6a14d739cc0cc7e7c2ade080b45144c1b1e50261cf96f3b0086306f2a43b9", "asm": "3045022100c97fb7b74c173750e8a21b2d2ddd795c2ae60592d40ec8b77fe8d9c7c9af1a0002203f57e54281026a4e11e34f47b54caa6f95d51782484993bde3c7c363ee65d320[ALL] 02a0d6a14d739cc0cc7e7c2ade080b45144c1b1e50261cf96f3b0086306f2a43b9"}, "vout": 2, "txid": "b383b4141c28de76e91ed3284aab2dee0bfc855af277e048a6e0d212d1e697db"}], "txid": "62840c728f7e4073c7d9bdd1f2070377b9f7989b188959e9d8ff233a735033d3", "blocktime": 1537874412, "version": 1, "confirmations": 11466, "time": 1537874412, "locktime": 0, "vsize": 1110, "size": 1110}