{"hash": "6291f7659eabe140522e89ed1f05c2e76046c8b04204e39b044cf16b1c77386b", "blockhash": "0000000000000000001e0dab787dd257d1dbfcb92a98c2207d5e1078be1f4165", "vout": [{"scriptPubKey": {"reqSigs": 1, "hex": "76a914f21a690fa001206f2a11035d0d7d6ff1770c91f388ac", "addresses": ["1P58AT4dE1Zr98nWQPjetesBTUukAkdDd4"], "asm": "OP_DUP OP_HASH160 f21a690fa001206f2a11035d0d7d6ff1770c91f3 OP_EQUALVERIFY OP_CHECKSIG", "type": "pubkeyhash"}, "value": 2.08477343, "n": 0}, {"scriptPubKey": {"reqSigs": 1, "hex": "a91492f8e5973f8b39ca38940fb22747ec388edf6f4887", "addresses": ["3F68kCw6zufNCDLAA25sJV6JLcr3gkLtcG"], "asm": "OP_HASH160 92f8e5973f8b39ca38940fb22747ec388edf6f48 OP_EQUAL", "type": "scripthash"}, "value": 0.09887373, "n": 1}], "hex": "01000000011d9debad61c33417358bba93c36f7a2b669348eea87d7128ea88e5de2428e783000000006b483045022100ebf40d45ae4ebdcfd250fb4ebe860c7401043a971edb75e45ac4196eb21ea788022022ad8958282820f622f7cfee632c046253018992b096c3fdfab9752b6e1a485b012102425d23d57f63cae969bcefc7917c018658101a1149f482763c52daabb2c0daa3ffffffff029f1c6d0c000000001976a914f21a690fa001206f2a11035d0d7d6ff1770c91f388ac8dde96000000000017a91492f8e5973f8b39ca38940fb22747ec388edf6f488700000000", "vin": [{"sequence": 4294967295, "scriptSig": {"hex": "483045022100ebf40d45ae4ebdcfd250fb4ebe860c7401043a971edb75e45ac4196eb21ea788022022ad8958282820f622f7cfee632c046253018992b096c3fdfab9752b6e1a485b012102425d23d57f63cae969bcefc7917c018658101a1149f482763c52daabb2c0daa3", "asm": "3045022100ebf40d45ae4ebdcfd250fb4ebe860c7401043a971edb75e45ac4196eb21ea788022022ad8958282820f622f7cfee632c046253018992b096c3fdfab9752b6e1a485b[ALL] 02425d23d57f63cae969bcefc7917c018658101a1149f482763c52daabb2c0daa3"}, "vout": 0, "txid": "83e72824dee588ea28717da8ee4893662b7a6fc393ba8b351734c361adeb9d1d"}], "txid": "6291f7659eabe140522e89ed1f05c2e76046c8b04204e39b044cf16b1c77386b", "blocktime": 1537872475, "version": 1, "confirmations": 11486, "time": 1537872475, "locktime": 0, "vsize": 224, "size": 224}