{"hash": "4359ce44f49c60ecf0ad61b69cf5436d2b13ad41f32968fd739dcc1db13c9974", "blockhash": "0000000000000000000e13cef7c366c0283d82e591d1acd082e914b08063cdf1", "vout": [{"scriptPubKey": {"reqSigs": 1, "hex": "a91458cecebfdfe0f69688fbccd064c8a0aec7b35e4d87", "addresses": ["39nb8fodNQ4uCtG9kh4Z517u5Z6Na3WJRE"], "asm": "OP_HASH160 58cecebfdfe0f69688fbccd064c8a0aec7b35e4d OP_EQUAL", "type": "scripthash"}, "value": 0.01006377, "n": 0}, {"scriptPubKey": {"reqSigs": 1, "hex": "76a9148f8c51c7703803ba08ab1e55a5488d658dad347c88ac", "addresses": ["1E61iztLMN8yGsjorSzGpjjwnzsWrYnDLJ"], "asm": "OP_DUP OP_HASH160 8f8c51c7703803ba08ab1e55a5488d658dad347c OP_EQUALVERIFY OP_CHECKSIG", "type": "pubkeyhash"}, "value": 0.00302518, "n": 1}], "hex": "020000000001020ed9dc0ee9c901c88835de1c7ab58c8015ba619a17ffc59646dbb545061fd95000000000171600144c7af4d0df67b6b1b20964dd2f4fc42200a0cc02feffffffafb3a77e310f37f28bcb32f442b4bfddd6b1f540ff5846cfb16b2862addeccc20100000017160014416c3c1a186bda228df65130a5652983f83a1d57feffffff02295b0f000000000017a91458cecebfdfe0f69688fbccd064c8a0aec7b35e4d87b69d0400000000001976a9148f8c51c7703803ba08ab1e55a5488d658dad347c88ac0248304502210081ebb99dd58db22bbb3d49d7369c0c6e8bd3eb81f3553210ac206904fe44278a0220677c3cf42882bfbe7507fbe6f2bbe21a6a23d23bd33c221dddcfea3a61e90d67012103bb31db4de21f95aa991c591563c16d1b153ce074be5a86c6d08676eca442a1b10247304402203fb804d6269300d9ac1d112a4cb6484da6dbbe4c023b812e45a14cd900d4e5c0022065701332b7a8fae67a5dd68ea5d97b459d47271202452d892ad7ad606f9f995201210373a9ef3aa64002a93a98098e8b99419c35cf6eb0c9572329834542c6c45a397910490800", "vin": [{"txinwitness": ["304502210081ebb99dd58db22bbb3d49d7369c0c6e8bd3eb81f3553210ac206904fe44278a0220677c3cf42882bfbe7507fbe6f2bbe21a6a23d23bd33c221dddcfea3a61e90d6701", "03bb31db4de21f95aa991c591563c16d1b153ce074be5a86c6d08676eca442a1b1"], "sequence": 4294967294, "scriptSig": {"hex": "1600144c7af4d0df67b6b1b20964dd2f4fc42200a0cc02", "asm": "00144c7af4d0df67b6b1b20964dd2f4fc42200a0cc02"}, "vout": 0, "txid": "50d91f0645b5db4696c5ff179a61ba15808cb57a1cde3588c801c9e90edcd90e"}, {"txinwitness": ["304402203fb804d6269300d9ac1d112a4cb6484da6dbbe4c023b812e45a14cd900d4e5c0022065701332b7a8fae67a5dd68ea5d97b459d47271202452d892ad7ad606f9f995201", "0373a9ef3aa64002a93a98098e8b99419c35cf6eb0c9572329834542c6c45a3979"], "sequence": 4294967294, "scriptSig": {"hex": "160014416c3c1a186bda228df65130a5652983f83a1d57", "asm": "0014416c3c1a186bda228df65130a5652983f83a1d57"}, "vout": 1, "txid": "c2ccdead62286bb1cf4658ff40f5b1d6ddbfb442f432cb8bf2370f317ea7b3af"}], "txid": "6296de3260a71a80b94857628d4a84ac9362796c64f0dd71a8301b42f7a388c7", "blocktime": 1537871767, "version": 2, "confirmations": 11495, "time": 1537871767, "locktime": 542992, "vsize": 259, "size": 421}