{"hash": "629a8f782d282f3e03789ac6843141c5197d0425592e1689ff3b6a169fa6b02c", "blockhash": "0000000000000000001f76057863aec43deb6fa401d9628bb513d65a8098bfab", "vout": [{"scriptPubKey": {"reqSigs": 1, "hex": "76a914291940e9b68abb697ff6ac409cec1c4a7f3301f588ac", "addresses": ["14kJxWnhrZ4cDygqcqSnsr32jL5JfQNCk8"], "asm": "OP_DUP OP_HASH160 291940e9b68abb697ff6ac409cec1c4a7f3301f5 OP_EQUALVERIFY OP_CHECKSIG", "type": "pubkeyhash"}, "value": 0.00624529, "n": 0}, {"scriptPubKey": {"reqSigs": 1, "hex": "76a914070700881baf2fb39072ffe54f8eb343962e0c8a88ac", "addresses": ["1eA7rdNtMa62weWizHPvpfxA1sTPD9iTE"], "asm": "OP_DUP OP_HASH160 070700881baf2fb39072ffe54f8eb343962e0c8a OP_EQUALVERIFY OP_CHECKSIG", "type": "pubkeyhash"}, "value": 0.17898638, "n": 1}], "hex": "0100000001802fb83a30fa4253158bb73033a14d9277d8d5aaefd8ef2b32653c84b6e15ee9010000006b483045022100f20d978dacc56fbece9fd6ddfc27025c36635f218fc798fe636d6ca7aa7971bd0220608fd056668ba478aba8ff786aed524e5de85aafc940cac4407aaa49fba68a2b0121020f9cefea6a7aa0e940ca4d31ef9f267c66bfa9f5d6a8a575f29df25023a46e90ffffffff0291870900000000001976a914291940e9b68abb697ff6ac409cec1c4a7f3301f588ac8e1c1101000000001976a914070700881baf2fb39072ffe54f8eb343962e0c8a88ac00000000", "vin": [{"sequence": 4294967295, "scriptSig": {"hex": "483045022100f20d978dacc56fbece9fd6ddfc27025c36635f218fc798fe636d6ca7aa7971bd0220608fd056668ba478aba8ff786aed524e5de85aafc940cac4407aaa49fba68a2b0121020f9cefea6a7aa0e940ca4d31ef9f267c66bfa9f5d6a8a575f29df25023a46e90", "asm": "3045022100f20d978dacc56fbece9fd6ddfc27025c36635f218fc798fe636d6ca7aa7971bd0220608fd056668ba478aba8ff786aed524e5de85aafc940cac4407aaa49fba68a2b[ALL] 020f9cefea6a7aa0e940ca4d31ef9f267c66bfa9f5d6a8a575f29df25023a46e90"}, "vout": 1, "txid": "e95ee1b6843c65322befd8efaad5d877924da13330b78b155342fa303ab82f80"}], "txid": "629a8f782d282f3e03789ac6843141c5197d0425592e1689ff3b6a169fa6b02c", "blocktime": 1537873891, "version": 1, "confirmations": 11478, "time": 1537873891, "locktime": 0, "vsize": 226, "size": 226}