{"hash": "f9d7359bde822e4a46009f34b28ab3963c3a13520dc7c253bd719c9e40343d82", "blockhash": "0000000000000000001f76057863aec43deb6fa401d9628bb513d65a8098bfab", "vout": [{"scriptPubKey": {"reqSigs": 1, "hex": "76a914863a52f56a5d7dd1ca52459c7d13e47251d2406188ac", "addresses": ["1DEjR8eS8uxwxhTAuamhFiJK4iWqGWvibo"], "asm": "OP_DUP OP_HASH160 863a52f56a5d7dd1ca52459c7d13e47251d24061 OP_EQUALVERIFY OP_CHECKSIG", "type": "pubkeyhash"}, "value": 0.01561609, "n": 0}, {"scriptPubKey": {"reqSigs": 1, "hex": "a914e488a9b1352428a2a084ae60be7f2b0d30f4858b87", "addresses": ["3NXPhnNYxjsE4Y7V27AvkoPzZGWVx7azdN"], "asm": "OP_HASH160 e488a9b1352428a2a084ae60be7f2b0d30f4858b OP_EQUAL", "type": "scripthash"}, "value": 0.00015896, "n": 1}], "hex": "0100000000010173e20fe9b5ff14f87aadc77f0bbb22c84cf68c155f60ef78694008288f1a549a0000000017160014d8dcba18a90e3cb80f29a4243ba1f689c2ba0e69ffffffff0209d41700000000001976a914863a52f56a5d7dd1ca52459c7d13e47251d2406188ac183e00000000000017a914e488a9b1352428a2a084ae60be7f2b0d30f4858b870247304402201fb238d44dfe471a9dac8d6804f02e965ea1172dddf7b1d4cc3a132dcf0e502f02200c81ac4617b4dfbf0a89e4677d6a46feeac5d4fad3bdf46177ebb47990206e9001210284ee328c7429a6ff3f0a571714c134b6cc4d92620879c51d1f9a6a6cf553bfea00000000", "vin": [{"txinwitness": ["304402201fb238d44dfe471a9dac8d6804f02e965ea1172dddf7b1d4cc3a132dcf0e502f02200c81ac4617b4dfbf0a89e4677d6a46feeac5d4fad3bdf46177ebb47990206e9001", "0284ee328c7429a6ff3f0a571714c134b6cc4d92620879c51d1f9a6a6cf553bfea"], "sequence": 4294967295, "scriptSig": {"hex": "160014d8dcba18a90e3cb80f29a4243ba1f689c2ba0e69", "asm": "0014d8dcba18a90e3cb80f29a4243ba1f689c2ba0e69"}, "vout": 0, "txid": "9a541a8f2808406978ef605f158cf64cc822bb0b7fc7ad7af814ffb5e90fe273"}], "txid": "629c40a028b5939ed3aae772073abc38d72c7c517f5d6d2e2701297d5fea2e7f", "blocktime": 1537873891, "version": 1, "confirmations": 11475, "time": 1537873891, "locktime": 0, "vsize": 168, "size": 249}