{"hash": "4c78a0ea8022f4c1fbf6563eebf31a4d50a69c3700709dfc99f42f1501f60d1c", "blockhash": "0000000000000000001e0dab787dd257d1dbfcb92a98c2207d5e1078be1f4165", "vout": [{"scriptPubKey": {"reqSigs": 1, "hex": "a9143addf4ba34072ce2abd067ec5aecf98cb1cff10787", "addresses": ["374H1SX9mDEQ69FSa5Btp9Px8fJuAh4kKW"], "asm": "OP_HASH160 3addf4ba34072ce2abd067ec5aecf98cb1cff107 OP_EQUAL", "type": "scripthash"}, "value": 0.00992319, "n": 0}, {"scriptPubKey": {"reqSigs": 1, "hex": "76a91484d2f531c1317e414c7724496234833d9e26853b88ac", "addresses": ["1D7JuvhbXBTcciKFPMwrvsP4NgEvQKrYpi"], "asm": "OP_DUP OP_HASH160 84d2f531c1317e414c7724496234833d9e26853b OP_EQUALVERIFY OP_CHECKSIG", "type": "pubkeyhash"}, "value": 0.014625, "n": 1}], "hex": "020000000001021697fe80aa64cd8928e5d18cdb6a71029cc6e9fc36a8a2e22f2970b2df4e82e60100000017160014647872fa29b69dde9bc4bf838fc019a671c0db2bfeffffff47879558809f97494fe890203d089e7ba6f1e1923fe1fe28d6a371ad99369f4901000000171600146167090791de41c02b2e19e964dd39f8cef46714feffffff023f240f000000000017a9143addf4ba34072ce2abd067ec5aecf98cb1cff10787e4501600000000001976a91484d2f531c1317e414c7724496234833d9e26853b88ac024730440220494567d76d40020c5b3bbba83cfd5be2bc8b07be77e9561f49454e74654168490220754a3edeaa6129a88da2d2c1d5f13adb085e5877d76a797f434b42014fcfb1dc0121032639e953fd9eb11bd0cccf3b355391686a97444308a4cf7bbc78025d6ccbb05e0248304502210093a69e4d9948124b29971ec9c8989b0d0b67bf1360456fa19850caefc65951cc02205cfe8845f1f0c6a474943e8e78dbc07342a5152ba34744765bb5dbd1df7b0c2001210361dfd2f495f61a2ea904edc9ddda502365fb4cf25834d1969a4cb6d38400faa410490800", "vin": [{"txinwitness": ["30440220494567d76d40020c5b3bbba83cfd5be2bc8b07be77e9561f49454e74654168490220754a3edeaa6129a88da2d2c1d5f13adb085e5877d76a797f434b42014fcfb1dc01", "032639e953fd9eb11bd0cccf3b355391686a97444308a4cf7bbc78025d6ccbb05e"], "sequence": 4294967294, "scriptSig": {"hex": "160014647872fa29b69dde9bc4bf838fc019a671c0db2b", "asm": "0014647872fa29b69dde9bc4bf838fc019a671c0db2b"}, "vout": 1, "txid": "e6824edfb270292fe2a2a836fce9c69c02716adb8cd1e52889cd64aa80fe9716"}, {"txinwitness": ["304502210093a69e4d9948124b29971ec9c8989b0d0b67bf1360456fa19850caefc65951cc02205cfe8845f1f0c6a474943e8e78dbc07342a5152ba34744765bb5dbd1df7b0c2001", "0361dfd2f495f61a2ea904edc9ddda502365fb4cf25834d1969a4cb6d38400faa4"], "sequence": 4294967294, "scriptSig": {"hex": "1600146167090791de41c02b2e19e964dd39f8cef46714", "asm": "00146167090791de41c02b2e19e964dd39f8cef46714"}, "vout": 1, "txid": "499f3699ad71a3d628fee13f92e1f1a67b9e083d2090e84f49979f8058958747"}], "txid": "629c12d4ca4802de8879a48b87db2f727d5f640dc8d6784d0023efafd4a843a1", "blocktime": 1537872475, "version": 2, "confirmations": 11486, "time": 1537872475, "locktime": 542992, "vsize": 259, "size": 421}