{"hash": "d3f28b203ca167667c95b409b3a23ca0ea5da5dfc551b115780712af5dfd05eb", "blockhash": "0000000000000000001e0dab787dd257d1dbfcb92a98c2207d5e1078be1f4165", "vout": [{"scriptPubKey": {"reqSigs": 1, "hex": "a9145ddf96f880bb9dc597eed0704c9ffe04a4499ce987", "addresses": ["3AFNcfrbA1TndJm5Gbjye2zp1EY6qp6NXT"], "asm": "OP_HASH160 5ddf96f880bb9dc597eed0704c9ffe04a4499ce9 OP_EQUAL", "type": "scripthash"}, "value": 0.005, "n": 0}, {"scriptPubKey": {"reqSigs": 1, "hex": "00149e8062591a37abed49292ad82db2cd9c015b7bf1", "addresses": ["bc1qn6qxykg6x7476jff9tvzmvkdnsq4k7l3w53h0l"], "asm": "0 9e8062591a37abed49292ad82db2cd9c015b7bf1", "type": "witness_v0_keyhash"}, "value": 5.557e-05, "n": 1}], "hex": "010000000001018b32c5a6456d46c3e1a2efcb33815dfda955bbf44ebe5f830067340a9801f2123800000017160014c9df321d79ac7d097dfb2783114999970c7f5d83ffffffff0220a107000000000017a9145ddf96f880bb9dc597eed0704c9ffe04a4499ce987b5150000000000001600149e8062591a37abed49292ad82db2cd9c015b7bf102473044022066441fca77684fc096d4a6f097c579301e7075d752dc1baf84ecd01acc6e96f2022007072f41cf592844b68801943a8cbe30679bbb9973bdf97ffc40d331b7adf40901210320e0a6d79b046f603727251b6168cb76782b89541306d78faa8005d860fdb5b900000000", "vin": [{"txinwitness": ["3044022066441fca77684fc096d4a6f097c579301e7075d752dc1baf84ecd01acc6e96f2022007072f41cf592844b68801943a8cbe30679bbb9973bdf97ffc40d331b7adf40901", "0320e0a6d79b046f603727251b6168cb76782b89541306d78faa8005d860fdb5b9"], "sequence": 4294967295, "scriptSig": {"hex": "160014c9df321d79ac7d097dfb2783114999970c7f5d83", "asm": "0014c9df321d79ac7d097dfb2783114999970c7f5d83"}, "vout": 56, "txid": "12f201980a346700835fbe4ef4bb55a9fd5d8133cbefa2e1c3466d45a6c5328b"}], "txid": "62a51d1973258382f678babece59017681119b3458a00444ea0860d669c80116", "blocktime": 1537872475, "version": 1, "confirmations": 11486, "time": 1537872475, "locktime": 0, "vsize": 165, "size": 246}