{"hash": "46f5a870ecff881d5e5fa97c0f61d0b84be9b88302a453e834a2ac02f12cd61b", "blockhash": "0000000000000000000baef3f32e3676a92c3b2e5da21b426e4f302fc371ce76", "vout": [{"scriptPubKey": {"reqSigs": 1, "hex": "a9149817220ea307aff4a4c6c49c3e08a19b41ce423a87", "addresses": ["3FZCM1jcue72P2KdmxHL1QHr4dYQhnp8VQ"], "asm": "OP_HASH160 9817220ea307aff4a4c6c49c3e08a19b41ce423a OP_EQUAL", "type": "scripthash"}, "value": 7.05356173, "n": 0}, {"scriptPubKey": {"reqSigs": 1, "hex": "76a9144f03627af4eec0f7f2215cb537a5e83f898bfc1288ac", "addresses": ["18CnSKxg7gB52hpKs8q8yKUPuYz91VNBun"], "asm": "OP_DUP OP_HASH160 4f03627af4eec0f7f2215cb537a5e83f898bfc12 OP_EQUALVERIFY OP_CHECKSIG", "type": "pubkeyhash"}, "value": 0.05, "n": 1}], "hex": "02000000000101743dd1ee6ad940ba5a49bf575d52d421a8b9c41134874a9c8ccb25288b69304100000000171600146216c1a4badba40ca68d9804bd91393db46e7e49fdffffff028de10a2a0000000017a9149817220ea307aff4a4c6c49c3e08a19b41ce423a87404b4c00000000001976a9144f03627af4eec0f7f2215cb537a5e83f898bfc1288ac024730440220050480b20054eef6e6a04c907fa10ab9cc423f8116aa881a9b5508ec15107e90022047cf203d32bffd4cf59c858a7101543335f1412f3c413cd9af5846a30fa81e19012102623cdbf75350ecf43b1d5a30480a726bc37d008579284264fa1eb8d0dbbbd8be16490800", "vin": [{"txinwitness": ["30440220050480b20054eef6e6a04c907fa10ab9cc423f8116aa881a9b5508ec15107e90022047cf203d32bffd4cf59c858a7101543335f1412f3c413cd9af5846a30fa81e1901", "02623cdbf75350ecf43b1d5a30480a726bc37d008579284264fa1eb8d0dbbbd8be"], "sequence": 4294967293, "scriptSig": {"hex": "1600146216c1a4badba40ca68d9804bd91393db46e7e49", "asm": "00146216c1a4badba40ca68d9804bd91393db46e7e49"}, "vout": 0, "txid": "4130698b2825cb8c9c4a873411c4b9a821d4525d57bf495aba40d96aeed13d74"}], "txid": "62a7d14253b705a54342bbbe391596e23c7eff6d047feea78fe2fbd09dcf1871", "blocktime": 1537876114, "version": 2, "confirmations": 11460, "time": 1537876114, "locktime": 542998, "vsize": 168, "size": 249}