{"hash": "62a908d6ccaeef431aa089379cfd8187d9d249720c35c5813a9012f14bba67f8", "blockhash": "0000000000000000001f0ddff1eddb255c1121bcd4da4f1bc9a0da00cae72433", "vout": [{"scriptPubKey": {"reqSigs": 1, "hex": "76a914152b3f1b5ec91db0b6f2138ef2297b68b432c35488ac", "addresses": ["12vvzrE82DD8iBVsi1ABuV6xTJ5K12jrXo"], "asm": "OP_DUP OP_HASH160 152b3f1b5ec91db0b6f2138ef2297b68b432c354 OP_EQUALVERIFY OP_CHECKSIG", "type": "pubkeyhash"}, "value": 0.00095265, "n": 0}, {"scriptPubKey": {"reqSigs": 1, "hex": "76a914d4bb53d586bad661c21b4a7f6ffb6db4db7554aa88ac", "addresses": ["1LPpfQjyJZbQKPLopHf3zVRDiZiwD8A6yo"], "asm": "OP_DUP OP_HASH160 d4bb53d586bad661c21b4a7f6ffb6db4db7554aa OP_EQUALVERIFY OP_CHECKSIG", "type": "pubkeyhash"}, "value": 0.00301557, "n": 1}], "hex": "0100000001871c6806a34330403d15c14a2eaf906440449c747c665896e483ce244b4d18f2010000006b48304502210083728aae5cdbd7222756bf964e3ed98443e894b0e14b95e6a1f0acb0ca2ef7040220776b40e5c792431f9c824e7ba72529cae5037b57d9523e8eb0b43e2ee8c4ee490121034dd7444743c84fd6c4446b7c5a39bba0eb3f932b35e5aba72a16515ad7f08751fdffffff0221740100000000001976a914152b3f1b5ec91db0b6f2138ef2297b68b432c35488acf5990400000000001976a914d4bb53d586bad661c21b4a7f6ffb6db4db7554aa88ac10490800", "vin": [{"sequence": 4294967293, "scriptSig": {"hex": "48304502210083728aae5cdbd7222756bf964e3ed98443e894b0e14b95e6a1f0acb0ca2ef7040220776b40e5c792431f9c824e7ba72529cae5037b57d9523e8eb0b43e2ee8c4ee490121034dd7444743c84fd6c4446b7c5a39bba0eb3f932b35e5aba72a16515ad7f08751", "asm": "304502210083728aae5cdbd7222756bf964e3ed98443e894b0e14b95e6a1f0acb0ca2ef7040220776b40e5c792431f9c824e7ba72529cae5037b57d9523e8eb0b43e2ee8c4ee49[ALL] 034dd7444743c84fd6c4446b7c5a39bba0eb3f932b35e5aba72a16515ad7f08751"}, "vout": 1, "txid": "f2184d4b24ce83e49658667c749c44406490af2e4ac1153d403043a306681c87"}], "txid": "62a908d6ccaeef431aa089379cfd8187d9d249720c35c5813a9012f14bba67f8", "blocktime": 1537872018, "version": 1, "confirmations": 11489, "time": 1537872018, "locktime": 542992, "vsize": 226, "size": 226}