{"hash": "62ac0a5b4b21668ee81a68051be8e0073cd426ad6533efff172b7735241e4aaa", "blockhash": "0000000000000000000baef3f32e3676a92c3b2e5da21b426e4f302fc371ce76", "vout": [{"scriptPubKey": {"reqSigs": 1, "hex": "76a914d98f12439107f8e0f863b993a3564f2aa5cdb08988ac", "addresses": ["1LqM2Q7HU6RYtaic1pkA1oqsttoT5sgxNM"], "asm": "OP_DUP OP_HASH160 d98f12439107f8e0f863b993a3564f2aa5cdb089 OP_EQUALVERIFY OP_CHECKSIG", "type": "pubkeyhash"}, "value": 0.00066448, "n": 0}, {"scriptPubKey": {"reqSigs": 1, "hex": "a914e72d92c82808d47b0a9b88d9f89c1834e91ae22687", "addresses": ["3NmNcMELHG9GGzuQkVAyTrXBHvX8VqCHiJ"], "asm": "OP_HASH160 e72d92c82808d47b0a9b88d9f89c1834e91ae226 OP_EQUAL", "type": "scripthash"}, "value": 0.00301188, "n": 1}], "hex": "0100000001f9589ea18db915dc13d6c1efb2384146a9bd5a28beefd7e4a5028f6a991ade91000000006b483045022100eebb3f8b4bbb63449a709e479c0f178e2a449dd2eaa445bfcffbf84b3e64a397022066aca39899964862518d006e252cb18055c462b15c7308de0caacf07097086d3012103cf22ff1a28cfca0adf9219ddde2adccc4344a8e0df6d69b5343393b2f3ffc9dcffffffff0290030100000000001976a914d98f12439107f8e0f863b993a3564f2aa5cdb08988ac849804000000000017a914e72d92c82808d47b0a9b88d9f89c1834e91ae2268700000000", "vin": [{"sequence": 4294967295, "scriptSig": {"hex": "483045022100eebb3f8b4bbb63449a709e479c0f178e2a449dd2eaa445bfcffbf84b3e64a397022066aca39899964862518d006e252cb18055c462b15c7308de0caacf07097086d3012103cf22ff1a28cfca0adf9219ddde2adccc4344a8e0df6d69b5343393b2f3ffc9dc", "asm": "3045022100eebb3f8b4bbb63449a709e479c0f178e2a449dd2eaa445bfcffbf84b3e64a397022066aca39899964862518d006e252cb18055c462b15c7308de0caacf07097086d3[ALL] 03cf22ff1a28cfca0adf9219ddde2adccc4344a8e0df6d69b5343393b2f3ffc9dc"}, "vout": 0, "txid": "91de1a996a8f02a5e4d7efbe285abda9464138b2efc1d613dc15b98da19e58f9"}], "txid": "62ac0a5b4b21668ee81a68051be8e0073cd426ad6533efff172b7735241e4aaa", "blocktime": 1537876114, "version": 1, "confirmations": 11459, "time": 1537876114, "locktime": 0, "vsize": 224, "size": 224}