{"hash": "62af4ffc3aa0452e5559b0858753022ee6803b2b252e67671ea14b2a754046a0", "blockhash": "0000000000000000001cda96e906b7601b7a6fb1a3b62bca570a9e5d8f4b3de1", "vout": [{"scriptPubKey": {"reqSigs": 1, "hex": "76a914f8d2704a2db9f099d7585c97dc2ef26a2bb4eb4888ac", "addresses": ["1Pgeg7AzijNWxrckBEDUe6TLLuBqub9hgA"], "asm": "OP_DUP OP_HASH160 f8d2704a2db9f099d7585c97dc2ef26a2bb4eb48 OP_EQUALVERIFY OP_CHECKSIG", "type": "pubkeyhash"}, "value": 0.02522017, "n": 0}, {"scriptPubKey": {"reqSigs": 1, "hex": "a914ce14ee02018a92b7fcde20ce254770381448220187", "addresses": ["3LUgCHNhUDTAaoJd19g9vDFGwgTcrY1Cvt"], "asm": "OP_HASH160 ce14ee02018a92b7fcde20ce2547703814482201 OP_EQUAL", "type": "scripthash"}, "value": 0.05, "n": 1}], "hex": "01000000021460df4b92a1207beadd2cb1173136cd770c47a5d12161ab4dab6d203567f51a000000006b483045022100bcb6e96971959f09c1b8910713c54f841c162024e29bee8ce30b21eed441df8302200c95c7df63f8c746d90a5f4f43f6050f9cadc17a036287f3d3b0f02d808fcb4c01210389586d6b6073919389a788a15523d64a0cf0ef8161625915b59812992ce8856efdffffff41046e553d71cfe2b413ed318f33db792e569579d366986db9ff3c59147be08a010000006a4730440220592593e6ed3d9a389049280ae5b9a5af2c28b3f502e1155f2ad7fb48ef137195022027d0b8d86a0c624a275c8b0c176d6a2f1abae568ceaba80061854fe822f5b15a012103b7c7e10923ffd31cf8ee2de7e59af44e02b8c2eae740efcaf6ed7a72ac9181e9fdffffff02a17b2600000000001976a914f8d2704a2db9f099d7585c97dc2ef26a2bb4eb4888ac404b4c000000000017a914ce14ee02018a92b7fcde20ce25477038144822018713490800", "vin": [{"sequence": 4294967293, "scriptSig": {"hex": "483045022100bcb6e96971959f09c1b8910713c54f841c162024e29bee8ce30b21eed441df8302200c95c7df63f8c746d90a5f4f43f6050f9cadc17a036287f3d3b0f02d808fcb4c01210389586d6b6073919389a788a15523d64a0cf0ef8161625915b59812992ce8856e", "asm": "3045022100bcb6e96971959f09c1b8910713c54f841c162024e29bee8ce30b21eed441df8302200c95c7df63f8c746d90a5f4f43f6050f9cadc17a036287f3d3b0f02d808fcb4c[ALL] 0389586d6b6073919389a788a15523d64a0cf0ef8161625915b59812992ce8856e"}, "vout": 0, "txid": "1af56735206dab4dab6121d1a5470c77cd363117b12cddea7b20a1924bdf6014"}, {"sequence": 4294967293, "scriptSig": {"hex": "4730440220592593e6ed3d9a389049280ae5b9a5af2c28b3f502e1155f2ad7fb48ef137195022027d0b8d86a0c624a275c8b0c176d6a2f1abae568ceaba80061854fe822f5b15a012103b7c7e10923ffd31cf8ee2de7e59af44e02b8c2eae740efcaf6ed7a72ac9181e9", "asm": "30440220592593e6ed3d9a389049280ae5b9a5af2c28b3f502e1155f2ad7fb48ef137195022027d0b8d86a0c624a275c8b0c176d6a2f1abae568ceaba80061854fe822f5b15a[ALL] 03b7c7e10923ffd31cf8ee2de7e59af44e02b8c2eae740efcaf6ed7a72ac9181e9"}, "vout": 1, "txid": "8ae07b14593cffb96d9866d37995562e79db338f31ed13b4e2cf713d556e0441"}], "txid": "62af4ffc3aa0452e5559b0858753022ee6803b2b252e67671ea14b2a754046a0", "blocktime": 1537873282, "version": 1, "confirmations": 11485, "time": 1537873282, "locktime": 542995, "vsize": 371, "size": 371}