{"hash": "942281903a11fae42ed14b16cf1707f28313a7a096c15600b2094dedf410d958", "blockhash": "0000000000000000001cda96e906b7601b7a6fb1a3b62bca570a9e5d8f4b3de1", "vout": [{"scriptPubKey": {"reqSigs": 1, "hex": "001470a407814f0f23db5cc82d46f5853a0feb52e0f0", "addresses": ["bc1qwzjq0q20pu3akhxg94r0tpf6pl449c8smjs9gq"], "asm": "0 70a407814f0f23db5cc82d46f5853a0feb52e0f0", "type": "witness_v0_keyhash"}, "value": 1.493e-05, "n": 0}, {"scriptPubKey": {"reqSigs": 1, "hex": "76a914afb39e01514ab68770e0de5dd39a264d12323d9588ac", "addresses": ["1H22RbNqMCcEep26Tiv9AkAdz7LzMVi5sx"], "asm": "OP_DUP OP_HASH160 afb39e01514ab68770e0de5dd39a264d12323d95 OP_EQUALVERIFY OP_CHECKSIG", "type": "pubkeyhash"}, "value": 0.000312, "n": 1}], "hex": "0100000000010102a93b87e7af1386ac7b8d35b607d73fa59389ef25047a24f4f595ae0f2cd4ee0100000000ffffffff02d50500000000000016001470a407814f0f23db5cc82d46f5853a0feb52e0f0e0790000000000001976a914afb39e01514ab68770e0de5dd39a264d12323d9588ac0247304402202f8fe091caf14fab9ba91bd8276297c26c15f0d29b41b88eb01f14850ceda227022074885e2df2df35521895f473b55b87fd508141dd058eeb2f2f9cc17463424cf101210353c46c35f6f1ff56c634474e44aed4ffcaeadd436f6f72d79f657b54c2cdada400000000", "vin": [{"txinwitness": ["304402202f8fe091caf14fab9ba91bd8276297c26c15f0d29b41b88eb01f14850ceda227022074885e2df2df35521895f473b55b87fd508141dd058eeb2f2f9cc17463424cf101", "0353c46c35f6f1ff56c634474e44aed4ffcaeadd436f6f72d79f657b54c2cdada4"], "sequence": 4294967295, "scriptSig": {"hex": "", "asm": ""}, "vout": 1, "txid": "eed42c0fae95f5f4247a0425ef8993a53fd707b6358d7bac8613afe7873ba902"}], "txid": "62b002b795aa6729d8fc7cf9f55942b6f8886af210b3502db0f7f2c4ce7d3a34", "blocktime": 1537873282, "version": 1, "confirmations": 11484, "time": 1537873282, "locktime": 0, "vsize": 144, "size": 225}