{"hash": "2479ad133c8e1d5480056934fda030252af869bfb788392cabb1cf3298cfa372", "blockhash": "0000000000000000000baef3f32e3676a92c3b2e5da21b426e4f302fc371ce76", "vout": [{"scriptPubKey": {"reqSigs": 1, "hex": "a914b2f7aca0dcc79eed6fbf0b13464b1151d2db3e8287", "addresses": ["3J1JuQNDeBRDyXDfAqcbtgLSDPNsE8EkeN"], "asm": "OP_HASH160 b2f7aca0dcc79eed6fbf0b13464b1151d2db3e82 OP_EQUAL", "type": "scripthash"}, "value": 0.01004453, "n": 0}, {"scriptPubKey": {"reqSigs": 1, "hex": "a914ffe269a14514904c95723e07076e9a5e470217ab87", "addresses": ["3R21TtHAdhtVPWNE79esCgodeP8MTJSHt3"], "asm": "OP_HASH160 ffe269a14514904c95723e07076e9a5e470217ab OP_EQUAL", "type": "scripthash"}, "value": 0.0027116, "n": 1}], "hex": "020000000001027799d6ef6c9b320ff2de58c90c84be9d13bef4c4cd88ad84dedf8d06bbb5ffa00000000017160014f389a7b893b02ae846e35003e38e70b76f053eacfeffffffbab48aa83a27982d714d2cb53cacae55dcfcb81cc2cd911fa5a7324c322244ac0000000017160014396253613577931e1818da5696841d051f99b3ecfeffffff02a5530f000000000017a914b2f7aca0dcc79eed6fbf0b13464b1151d2db3e8287382304000000000017a914ffe269a14514904c95723e07076e9a5e470217ab870247304402203b321dba4d934db11991f7224535674d8727df5849f99d7e7d8a32a38c52829c022039115c00f8f511a25145dd00f1a04f69e524ac8382ab78e60acfdedf9ece1a45012103d66744c07c976c191ef11a3b31ce898d11f66ecb0cc645338cb0e1bb0a9064fe0248304502210093cc97392d4c01177d4c73597a479512c0adce3f5ed70b9c62a62177ddca1afd02205231b9e6e3d812cd1c171c342e3c5bd5dc313866bd24b1e5dd67f81a91d53b2e0121030ceb2ff8f43949a424fd9cc44b5c9a9154cc591d775c61e1c811a369f8774cb917490800", "vin": [{"txinwitness": ["304402203b321dba4d934db11991f7224535674d8727df5849f99d7e7d8a32a38c52829c022039115c00f8f511a25145dd00f1a04f69e524ac8382ab78e60acfdedf9ece1a4501", "03d66744c07c976c191ef11a3b31ce898d11f66ecb0cc645338cb0e1bb0a9064fe"], "sequence": 4294967294, "scriptSig": {"hex": "160014f389a7b893b02ae846e35003e38e70b76f053eac", "asm": "0014f389a7b893b02ae846e35003e38e70b76f053eac"}, "vout": 0, "txid": "a0ffb5bb068ddfde84ad88cdc4f4be139dbe840cc958def20f329b6cefd69977"}, {"txinwitness": ["304502210093cc97392d4c01177d4c73597a479512c0adce3f5ed70b9c62a62177ddca1afd02205231b9e6e3d812cd1c171c342e3c5bd5dc313866bd24b1e5dd67f81a91d53b2e01", "030ceb2ff8f43949a424fd9cc44b5c9a9154cc591d775c61e1c811a369f8774cb9"], "sequence": 4294967294, "scriptSig": {"hex": "160014396253613577931e1818da5696841d051f99b3ec", "asm": "0014396253613577931e1818da5696841d051f99b3ec"}, "vout": 0, "txid": "ac4422324c32a7a51f91cdc21cb8fcdc55aeac3cb52c4d712d98273aa88ab4ba"}], "txid": "62b6ee933314e7770ae93c2bcadb8e8ea201e92aa54102081396334bbce6386f", "blocktime": 1537876114, "version": 2, "confirmations": 11459, "time": 1537876114, "locktime": 542999, "vsize": 257, "size": 419}