{"hash": "95e0595bb11e419f9a8f59796231ce2208de0306d71f9348154ade3a2b63bc89", "blockhash": "0000000000000000001cda96e906b7601b7a6fb1a3b62bca570a9e5d8f4b3de1", "vout": [{"scriptPubKey": {"reqSigs": 1, "hex": "76a914fafe8f7aff7ed4ec431901b7345fe7c5154aedb988ac", "addresses": ["1Pt8t8VYjijGuKpFhwUag7a3HKMPwDgU3t"], "asm": "OP_DUP OP_HASH160 fafe8f7aff7ed4ec431901b7345fe7c5154aedb9 OP_EQUALVERIFY OP_CHECKSIG", "type": "pubkeyhash"}, "value": 0.09810323, "n": 0}, {"scriptPubKey": {"reqSigs": 1, "hex": "00145bb19b6aba23f9806c540484e42fe27e3cfc41d5", "addresses": ["bc1qtwcek646y0ucqmz5qjzwgtlz0c70csw4j3ea6l"], "asm": "0 5bb19b6aba23f9806c540484e42fe27e3cfc41d5", "type": "witness_v0_keyhash"}, "value": 0.39450131, "n": 1}], "hex": "010000000001014bc828d74b06b27b3dda6694b721698f02e1b53fd92b81138b9533f82ac641580100000000ffffffff0293b19500000000001976a914fafe8f7aff7ed4ec431901b7345fe7c5154aedb988ac13f65902000000001600145bb19b6aba23f9806c540484e42fe27e3cfc41d5024730440220296029f07f7a7ab7f75de8dfaee9ae2399cfb14033419a1bf218b9c94477293e022046f982a426bd01490037204a057965476bb61b5ce544d4695242199948f960fb012102794484861c8117de30bdf31df31519d9dab2014423493e277ee8f535d747398600000000", "vin": [{"txinwitness": ["30440220296029f07f7a7ab7f75de8dfaee9ae2399cfb14033419a1bf218b9c94477293e022046f982a426bd01490037204a057965476bb61b5ce544d4695242199948f960fb01", "02794484861c8117de30bdf31df31519d9dab2014423493e277ee8f535d7473986"], "sequence": 4294967295, "scriptSig": {"hex": "", "asm": ""}, "vout": 1, "txid": "5841c62af833958b13812bd93fb5e1028f6921b79466da3d7bb2064bd728c84b"}], "txid": "62c374551bcb991da47d7caecd88143418c69257f9a88323e6b459f0263d339f", "blocktime": 1537873282, "version": 1, "confirmations": 11484, "time": 1537873282, "locktime": 0, "vsize": 144, "size": 225}