{"hash": "62c7c0a37314e4a885460ee648945eb93770f31b17373742dc5c6fba62898198", "blockhash": "0000000000000000000e13cef7c366c0283d82e591d1acd082e914b08063cdf1", "vout": [{"scriptPubKey": {"reqSigs": 1, "hex": "76a914386f6c880951ce57ba0f9ee364ce87ff3c7e34ee88ac", "addresses": ["169QKcdbLQazmnheDj5zp61hBqhc1xrHfG"], "asm": "OP_DUP OP_HASH160 386f6c880951ce57ba0f9ee364ce87ff3c7e34ee OP_EQUALVERIFY OP_CHECKSIG", "type": "pubkeyhash"}, "value": 0.00234294, "n": 0}, {"scriptPubKey": {"reqSigs": 1, "hex": "76a9149c397ff4ae71ccfb53894b43e5fd58b8a1d6151788ac", "addresses": ["1FF3J5rBYaRDLdfBEWbmjFZJmhDMd3twyn"], "asm": "OP_DUP OP_HASH160 9c397ff4ae71ccfb53894b43e5fd58b8a1d61517 OP_EQUALVERIFY OP_CHECKSIG", "type": "pubkeyhash"}, "value": 0.02074622, "n": 1}], "hex": "0100000001efe8f8833574f1287dc285ba363a1cfee6d98b7f7d643ba6634d4cd6cac2bbe0010000006a47304402204e6a18f49af0ac0827266da2e0b315e111d7ea3ed7768b7854e72bf57e4cbc640220100aec78ab6f075314339f075a7be7bd1905609f069763d287d0ac3daffd77a1012103e45000cd21567c857938b74a5389335c6b9c144b351cd2bdd4f3cadf52bb5447ffffffff0236930300000000001976a914386f6c880951ce57ba0f9ee364ce87ff3c7e34ee88acfea71f00000000001976a9149c397ff4ae71ccfb53894b43e5fd58b8a1d6151788ac00000000", "vin": [{"sequence": 4294967295, "scriptSig": {"hex": "47304402204e6a18f49af0ac0827266da2e0b315e111d7ea3ed7768b7854e72bf57e4cbc640220100aec78ab6f075314339f075a7be7bd1905609f069763d287d0ac3daffd77a1012103e45000cd21567c857938b74a5389335c6b9c144b351cd2bdd4f3cadf52bb5447", "asm": "304402204e6a18f49af0ac0827266da2e0b315e111d7ea3ed7768b7854e72bf57e4cbc640220100aec78ab6f075314339f075a7be7bd1905609f069763d287d0ac3daffd77a1[ALL] 03e45000cd21567c857938b74a5389335c6b9c144b351cd2bdd4f3cadf52bb5447"}, "vout": 1, "txid": "e0bbc2cad64c4d63a63b647d7f8bd9e6fe1c3a36ba85c27d28f1743583f8e8ef"}], "txid": "62c7c0a37314e4a885460ee648945eb93770f31b17373742dc5c6fba62898198", "blocktime": 1537871767, "version": 1, "confirmations": 11493, "time": 1537871767, "locktime": 0, "vsize": 225, "size": 225}