{"hash": "4647b63af87ff881d5f59b77f5734c1f095eec591001e59d1231a65bc08dea9c", "blockhash": "0000000000000000001f76057863aec43deb6fa401d9628bb513d65a8098bfab", "vout": [{"scriptPubKey": {"reqSigs": 1, "hex": "76a914bd2e988c2f3f26bdb6892615a52c0d72831ddaa188ac", "addresses": ["1JFJXo7eHcVBLLX4hh9hitUUbWUEsaPyJG"], "asm": "OP_DUP OP_HASH160 bd2e988c2f3f26bdb6892615a52c0d72831ddaa1 OP_EQUALVERIFY OP_CHECKSIG", "type": "pubkeyhash"}, "value": 0.07306691, "n": 0}, {"scriptPubKey": {"reqSigs": 1, "hex": "001438768d8810c8991d20faae84dd3756c66b35177b", "addresses": ["bc1q8pmgmzqsezv36g8646zd6d6kce4n29mmp8mtnq"], "asm": "0 38768d8810c8991d20faae84dd3756c66b35177b", "type": "witness_v0_keyhash"}, "value": 0.05982081, "n": 1}], "hex": "0100000000010117f09016406c982b863d2db1f3c97f7c8737e78a7471de4f9c1a789764637c950000000000ffffffff02c37d6f00000000001976a914bd2e988c2f3f26bdb6892615a52c0d72831ddaa188ac81475b000000000016001438768d8810c8991d20faae84dd3756c66b35177b02473044022069bb4b0420c7ee503a38511dc03938a9c7fbd43b63a33afbc5556f4587d08f7102206a9d5c2577bc3121c81b517c29ed2059d3517afd4424e0a5a3023fa314e71036012102413eb1e8790ad705a92e70e5d97a4905486f2fa11985ce6fc9b646f766119a3e00000000", "vin": [{"txinwitness": ["3044022069bb4b0420c7ee503a38511dc03938a9c7fbd43b63a33afbc5556f4587d08f7102206a9d5c2577bc3121c81b517c29ed2059d3517afd4424e0a5a3023fa314e7103601", "02413eb1e8790ad705a92e70e5d97a4905486f2fa11985ce6fc9b646f766119a3e"], "sequence": 4294967295, "scriptSig": {"hex": "", "asm": ""}, "vout": 0, "txid": "957c636497781a9c4fde71748ae737877c7fc9f3b12d3d862b986c401690f017"}], "txid": "62cd84259f5ba138e66ab8ee9c0b7efa6b72c3a27b4357ea2b24e23ea869ab76", "blocktime": 1537873891, "version": 1, "confirmations": 11478, "time": 1537873891, "locktime": 0, "vsize": 144, "size": 225}