{"hash": "62d567318d79969538300615f2d1aa8216e32d30197e5a415dc9592fd4cc6839", "blockhash": "00000000000000000004ffacab907a6b429b9a5745fa0b75af4234bf69dd7176", "vout": [{"scriptPubKey": {"reqSigs": 1, "hex": "76a9144c03d525c880d94da0d0c91399b25fe05c0f320788ac", "addresses": ["17vvwsf1hbq67Qh8TebLaUT6wuoY3xV43M"], "asm": "OP_DUP OP_HASH160 4c03d525c880d94da0d0c91399b25fe05c0f3207 OP_EQUALVERIFY OP_CHECKSIG", "type": "pubkeyhash"}, "value": 9.92e-05, "n": 0}, {"scriptPubKey": {"reqSigs": 1, "hex": "a914fe4d32db000b9e45e05f346c98e1a6cd9d91aaeb87", "addresses": ["3Qse38DT7pJfX7WM24L9zai8avCP2Z9ibC"], "asm": "OP_HASH160 fe4d32db000b9e45e05f346c98e1a6cd9d91aaeb OP_EQUAL", "type": "scripthash"}, "value": 0.00783034, "n": 1}], "hex": "010000000301a8e45be253efa788bac4247f7333016039edbc411c650453f5391ba89c232e000000006a4730440220099d13d5a65c63820bc757a93ac1c6f40d74d826cbced4440949dd835f5f252102201525570b28cde85cf0f507a19ac6408368ef636920bb9f52dee7dfb816e3ef8d01210254877b45ea812a90382c8f112958f4e4b518ae9e5637be1768bbb5148b1d7872ffffffff2eacd2aa2d72186cc279e0339f041a0e67f47672e0c0c4a533afc042bba1c48a000000006a47304402200d26b4a35842c05d98ac05eed84fc4db5f46e1c6bbb1660fbad29c52a248bd9002203a47dd9c05e2de929fd3a92ddcb2b0c00314e570f55626b68412dfc151f50df5012103cea65478be2b85f886f260563fde4e8160a963a3d9bea3bce68621128280c40cffffffffb48de9b09b291e0cca26f9f246aa02df339ad3fdb9e3bfbd75926a530e196cf6010000006a4730440220182294496c7bc96f3dfd5cec94c7381797d5c5b3d66ed9bebf56dfdbf41a5d7202203bc5112d7ed57a310db398ed2b50c461d57001c162622408f038ed6bda7dfe110121036e77191e2644fc0aab9f73bae7a6d3b1703ed04d2d8b43548ce8d3ec47181440ffffffff02c0260000000000001976a9144c03d525c880d94da0d0c91399b25fe05c0f320788acbaf20b000000000017a914fe4d32db000b9e45e05f346c98e1a6cd9d91aaeb8700000000", "vin": [{"sequence": 4294967295, "scriptSig": {"hex": "4730440220099d13d5a65c63820bc757a93ac1c6f40d74d826cbced4440949dd835f5f252102201525570b28cde85cf0f507a19ac6408368ef636920bb9f52dee7dfb816e3ef8d01210254877b45ea812a90382c8f112958f4e4b518ae9e5637be1768bbb5148b1d7872", "asm": "30440220099d13d5a65c63820bc757a93ac1c6f40d74d826cbced4440949dd835f5f252102201525570b28cde85cf0f507a19ac6408368ef636920bb9f52dee7dfb816e3ef8d[ALL] 0254877b45ea812a90382c8f112958f4e4b518ae9e5637be1768bbb5148b1d7872"}, "vout": 0, "txid": "2e239ca81b39f55304651c41bced39600133737f24c4ba88a7ef53e25be4a801"}, {"sequence": 4294967295, "scriptSig": {"hex": "47304402200d26b4a35842c05d98ac05eed84fc4db5f46e1c6bbb1660fbad29c52a248bd9002203a47dd9c05e2de929fd3a92ddcb2b0c00314e570f55626b68412dfc151f50df5012103cea65478be2b85f886f260563fde4e8160a963a3d9bea3bce68621128280c40c", "asm": "304402200d26b4a35842c05d98ac05eed84fc4db5f46e1c6bbb1660fbad29c52a248bd9002203a47dd9c05e2de929fd3a92ddcb2b0c00314e570f55626b68412dfc151f50df5[ALL] 03cea65478be2b85f886f260563fde4e8160a963a3d9bea3bce68621128280c40c"}, "vout": 0, "txid": "8ac4a1bb42c0af33a5c4c0e07276f4670e1a049f33e079c26c18722daad2ac2e"}, {"sequence": 4294967295, "scriptSig": {"hex": "4730440220182294496c7bc96f3dfd5cec94c7381797d5c5b3d66ed9bebf56dfdbf41a5d7202203bc5112d7ed57a310db398ed2b50c461d57001c162622408f038ed6bda7dfe110121036e77191e2644fc0aab9f73bae7a6d3b1703ed04d2d8b43548ce8d3ec47181440", "asm": "30440220182294496c7bc96f3dfd5cec94c7381797d5c5b3d66ed9bebf56dfdbf41a5d7202203bc5112d7ed57a310db398ed2b50c461d57001c162622408f038ed6bda7dfe11[ALL] 036e77191e2644fc0aab9f73bae7a6d3b1703ed04d2d8b43548ce8d3ec47181440"}, "vout": 1, "txid": "f66c190e536a9275bdbfe3b9fdd39a33df02aa46f2f926ca0c1e299bb0e98db4"}], "txid": "62d567318d79969538300615f2d1aa8216e32d30197e5a415dc9592fd4cc6839", "blocktime": 1537875543, "version": 1, "confirmations": 11464, "time": 1537875543, "locktime": 0, "vsize": 517, "size": 517}