{"hash": "62dafaaad60c37f990ad8149e71edec8efd295973f971e67791e3a95db2908e1", "blockhash": "0000000000000000000e13cef7c366c0283d82e591d1acd082e914b08063cdf1", "vout": [{"scriptPubKey": {"reqSigs": 1, "hex": "76a914d30e1d7dae6aa11c67c32bda6cbe23d101c2b06488ac", "addresses": ["1LExVDcTozDjhZBpnVxMa92c6Wr1aLXoTD"], "asm": "OP_DUP OP_HASH160 d30e1d7dae6aa11c67c32bda6cbe23d101c2b064 OP_EQUALVERIFY OP_CHECKSIG", "type": "pubkeyhash"}, "value": 0.0089, "n": 0}, {"scriptPubKey": {"reqSigs": 1, "hex": "76a9144f271dfafb04c204e261f179ade430e51fd1e38f88ac", "addresses": ["18DXF4RsUPWo8EgKFHZx8qauBqn6Pf7Hdz"], "asm": "OP_DUP OP_HASH160 4f271dfafb04c204e261f179ade430e51fd1e38f OP_EQUALVERIFY OP_CHECKSIG", "type": "pubkeyhash"}, "value": 0.03184674, "n": 1}, {"scriptPubKey": {"reqSigs": 1, "hex": "a9145baa45958dc8a0bb8d0e62088e375e502aeabb6487", "addresses": ["3A3hPhAZQVXXv9jtDKNPxybrheGGbwW7W7"], "asm": "OP_HASH160 5baa45958dc8a0bb8d0e62088e375e502aeabb64 OP_EQUAL", "type": "scripthash"}, "value": 0.0162, "n": 2}, {"scriptPubKey": {"reqSigs": 1, "hex": "76a914efc06776b6e80d1aafef07bb023018995ab054c288ac", "addresses": ["1NrgzKi22QTg5EsuJMm7Shv7XgLaaahhDs"], "asm": "OP_DUP OP_HASH160 efc06776b6e80d1aafef07bb023018995ab054c2 OP_EQUALVERIFY OP_CHECKSIG", "type": "pubkeyhash"}, "value": 0.02246348, "n": 3}, {"scriptPubKey": {"reqSigs": 1, "hex": "76a91465e78a724c568c0afe2e35ba40b6cd2f2a55c53b88ac", "addresses": ["1AHpd7WGYBgqZAKpyHcLZb1HeQ4uFByif2"], "asm": "OP_DUP OP_HASH160 65e78a724c568c0afe2e35ba40b6cd2f2a55c53b OP_EQUALVERIFY OP_CHECKSIG", "type": "pubkeyhash"}, "value": 0.0406965, "n": 4}], "hex": "020000000465489ad5ed6463baa0747f25ec99cab2301846d33c0cdd0d155b6a6a6c1d713d690000006a47304402205439501d23bf2236d0be7466683f2f7e0e843cd90e4633dde39643dc99c05b3e02204b504518bed781e5176cd2c94880e83f8c8cb4c38e516e6e4f49b491b4247388012102a9acf0c3f2552757b16e1c3da953ebfbd69b71a4339697f656c5cfa61cdfbdf3feffffffb55b3ee98a348d2ae0a4eee57e9ce22fd74eb837c46c14f5a9db27a44e520231000000006a47304402204f71134ebe6351d9ac85b838738536a1d440fc14a46114bff71f35cdb1bdc1c702201e951014451f8599efac6c3cce53556a4829b3ab77c5d4627b059f0c18345ac80121024ef84992aee7f34a8b3b3b6d7b176fc5450db7263c1d742155d57cadb6fbb8f5feffffffc94e8c74799a572d24733441d7acd5866318465b896cb2281c09bcbeded89f05600000006a47304402201c8661df9e2c06da5efcc3ecaf8ec2a3d8c76a60fd6f098b3b1b41ea633c838e02207c7ace27507866c703be6b846884367f41ae7a4ac9207bdaa865b12e8c7c98dd012103b481fd132cac3d210af0d0298391282dd7a45d1ca4143391a4b42c1a4b0a778cfefffffffe8713acb80cddbef29644d5458821eea20df99fde0f44fabdfedb8333043c4d010000006a4730440220232984dbf96802ba17b20d315ef38aab2b29a0e19f7900e22dbefbb126f89f60022030ed349b0799f96e4e3efabb1eded25c23ca71095de0f6d6d263087309d9354d0121034ab7baabd82b18e6b888535189a69bcdd91344164b95ca2ee5121fdfaae2487bfeffffff0590940d00000000001976a914d30e1d7dae6aa11c67c32bda6cbe23d101c2b06488ac22983000000000001976a9144f271dfafb04c204e261f179ade430e51fd1e38f88ac20b818000000000017a9145baa45958dc8a0bb8d0e62088e375e502aeabb6487cc462200000000001976a914efc06776b6e80d1aafef07bb023018995ab054c288ac12193e00000000001976a91465e78a724c568c0afe2e35ba40b6cd2f2a55c53b88ac10490800", "vin": [{"sequence": 4294967294, "scriptSig": {"hex": "47304402205439501d23bf2236d0be7466683f2f7e0e843cd90e4633dde39643dc99c05b3e02204b504518bed781e5176cd2c94880e83f8c8cb4c38e516e6e4f49b491b4247388012102a9acf0c3f2552757b16e1c3da953ebfbd69b71a4339697f656c5cfa61cdfbdf3", "asm": "304402205439501d23bf2236d0be7466683f2f7e0e843cd90e4633dde39643dc99c05b3e02204b504518bed781e5176cd2c94880e83f8c8cb4c38e516e6e4f49b491b4247388[ALL] 02a9acf0c3f2552757b16e1c3da953ebfbd69b71a4339697f656c5cfa61cdfbdf3"}, "vout": 105, "txid": "3d711d6c6a6a5b150ddd0c3cd3461830b2ca99ec257f74a0ba6364edd59a4865"}, {"sequence": 4294967294, "scriptSig": {"hex": "47304402204f71134ebe6351d9ac85b838738536a1d440fc14a46114bff71f35cdb1bdc1c702201e951014451f8599efac6c3cce53556a4829b3ab77c5d4627b059f0c18345ac80121024ef84992aee7f34a8b3b3b6d7b176fc5450db7263c1d742155d57cadb6fbb8f5", "asm": "304402204f71134ebe6351d9ac85b838738536a1d440fc14a46114bff71f35cdb1bdc1c702201e951014451f8599efac6c3cce53556a4829b3ab77c5d4627b059f0c18345ac8[ALL] 024ef84992aee7f34a8b3b3b6d7b176fc5450db7263c1d742155d57cadb6fbb8f5"}, "vout": 0, "txid": "3102524ea427dba9f5146cc437b84ed72fe29c7ee5eea4e02a8d348ae93e5bb5"}, {"sequence": 4294967294, "scriptSig": {"hex": "47304402201c8661df9e2c06da5efcc3ecaf8ec2a3d8c76a60fd6f098b3b1b41ea633c838e02207c7ace27507866c703be6b846884367f41ae7a4ac9207bdaa865b12e8c7c98dd012103b481fd132cac3d210af0d0298391282dd7a45d1ca4143391a4b42c1a4b0a778c", "asm": "304402201c8661df9e2c06da5efcc3ecaf8ec2a3d8c76a60fd6f098b3b1b41ea633c838e02207c7ace27507866c703be6b846884367f41ae7a4ac9207bdaa865b12e8c7c98dd[ALL] 03b481fd132cac3d210af0d0298391282dd7a45d1ca4143391a4b42c1a4b0a778c"}, "vout": 96, "txid": "059fd8debebc091c28b26c895b46186386d5acd7413473242d579a79748c4ec9"}, {"sequence": 4294967294, "scriptSig": {"hex": "4730440220232984dbf96802ba17b20d315ef38aab2b29a0e19f7900e22dbefbb126f89f60022030ed349b0799f96e4e3efabb1eded25c23ca71095de0f6d6d263087309d9354d0121034ab7baabd82b18e6b888535189a69bcdd91344164b95ca2ee5121fdfaae2487b", "asm": "30440220232984dbf96802ba17b20d315ef38aab2b29a0e19f7900e22dbefbb126f89f60022030ed349b0799f96e4e3efabb1eded25c23ca71095de0f6d6d263087309d9354d[ALL] 034ab7baabd82b18e6b888535189a69bcdd91344164b95ca2ee5121fdfaae2487b"}, "vout": 1, "txid": "4d3c043383dbfebdfa440fde9ff90da2ee218845d54496f2bedd0cb8ac1387fe"}], "txid": "62dafaaad60c37f990ad8149e71edec8efd295973f971e67791e3a95db2908e1", "blocktime": 1537871767, "version": 2, "confirmations": 11495, "time": 1537871767, "locktime": 542992, "vsize": 766, "size": 766}