{"hash": "2126b17f034aab9221b83f5228706847c10ab0711e98207985ed6ac48ff41ff0", "blockhash": "0000000000000000001f0ddff1eddb255c1121bcd4da4f1bc9a0da00cae72433", "vout": [{"scriptPubKey": {"reqSigs": 1, "hex": "0014f4646b3e8b19c9c32fdc3890316f439d83d9022a", "addresses": ["bc1q73jxk05tr8yuxt7u8zgrzm6rnkpajq32v53t3t"], "asm": "0 f4646b3e8b19c9c32fdc3890316f439d83d9022a", "type": "witness_v0_keyhash"}, "value": 2.13836199, "n": 0}, {"scriptPubKey": {"reqSigs": 1, "hex": "76a914f892b18badbf8ffa58ad4b8cc0c8b6360aac558188ac", "addresses": ["1PfLK291CxFUWFCFVXrTDS5S3uhytwfLJD"], "asm": "OP_DUP OP_HASH160 f892b18badbf8ffa58ad4b8cc0c8b6360aac5581 OP_EQUALVERIFY OP_CHECKSIG", "type": "pubkeyhash"}, "value": 0.16189931, "n": 1}], "hex": "010000000001019fb59069a242f816b5029298160f6bffd1d995f7fb767bcb02f8bc804390d4b20000000000ffffffff02a7e1be0c00000000160014f4646b3e8b19c9c32fdc3890316f439d83d9022aeb09f700000000001976a914f892b18badbf8ffa58ad4b8cc0c8b6360aac558188ac0247304402206831bbdf25f36c324d31f51bb6897cc4167c47946a73a613850db5128d3f6d7402205db0d4980d1c18c245d837a9972724cf183a50e63fc7c6d91ec290145a1ef5ec0121034c174b5e264ac81a2a4e453cd562fe67eeaf47ec2b2cf9a89104dfb0979c782b00000000", "vin": [{"txinwitness": ["304402206831bbdf25f36c324d31f51bb6897cc4167c47946a73a613850db5128d3f6d7402205db0d4980d1c18c245d837a9972724cf183a50e63fc7c6d91ec290145a1ef5ec01", "034c174b5e264ac81a2a4e453cd562fe67eeaf47ec2b2cf9a89104dfb0979c782b"], "sequence": 4294967295, "scriptSig": {"hex": "", "asm": ""}, "vout": 0, "txid": "b2d4904380bcf802cb7b76fbf795d9d1ff6b0f16989202b516f842a26990b59f"}], "txid": "62db764211fb8d567c73382309bcff5ed976d20eb2d7692ed57530c5ac229566", "blocktime": 1537872018, "version": 1, "confirmations": 11489, "time": 1537872018, "locktime": 0, "vsize": 144, "size": 225}