{"hash": "73b128d31c315fb29b4efbf8e9cb88ec690bb8ea62960b76e1bde456dfadc991", "blockhash": "0000000000000000001cda96e906b7601b7a6fb1a3b62bca570a9e5d8f4b3de1", "vout": [{"scriptPubKey": {"reqSigs": 1, "hex": "76a9142e1b944fe7ffbe969fc1df8d662fd7b5d6303c9b88ac", "addresses": ["15Co856cRnFRCKwSSzECoyT3ozVhuFoJZ6"], "asm": "OP_DUP OP_HASH160 2e1b944fe7ffbe969fc1df8d662fd7b5d6303c9b OP_EQUALVERIFY OP_CHECKSIG", "type": "pubkeyhash"}, "value": 0.0030966, "n": 0}, {"scriptPubKey": {"reqSigs": 1, "hex": "a9140e3d5c73b0c2229b71b6bd25e0229ee3cf968a4887", "addresses": ["32zJtgApmzQTrjE5SudvVXLmYYkg8HXkDa"], "asm": "OP_HASH160 0e3d5c73b0c2229b71b6bd25e0229ee3cf968a48 OP_EQUAL", "type": "scripthash"}, "value": 0.00999035, "n": 1}], "hex": "0200000000010258535fc7e487b408b19cf4228fb66dda23210995e373f055ae70bd9962b9f9f60a00000017160014a00a8f6c1df10348168e2b61c01fa7ea621aa535feffffff5e8995f711cc4b90a4ba05477468dba16ce3ce27e693a6f28c79e921de4c80910000000017160014d913b047e3e76cef136da4f7e994049ce73c90dbfeffffff029cb90400000000001976a9142e1b944fe7ffbe969fc1df8d662fd7b5d6303c9b88ac7b3e0f000000000017a9140e3d5c73b0c2229b71b6bd25e0229ee3cf968a488702483045022100e27a9ce63b3b9af433f216d62a38489a4ea110f0527943542fe5deb0d13ed46702200c1bbe4be3cd735d8ad446da0497c0a91d746f5c7f9bf03f19e5152275cc6062012103a1dc0f024c411dc56ea95d8ceac96f4c4e939bd19f74b08bf93443b081644dd502473044022078e2d9fc300b7a5d273419b4be39ee2fee142911691ee8abbc8d45edcfe544f702202a69003e1d13b128c9556c2d9a8359898c1f3f7e3bd4588ee68b5e929d822cf101210298225ab614ed7bb91b6a27e4013fb413180ef535472785aacd4e30fd3f623be913490800", "vin": [{"txinwitness": ["3045022100e27a9ce63b3b9af433f216d62a38489a4ea110f0527943542fe5deb0d13ed46702200c1bbe4be3cd735d8ad446da0497c0a91d746f5c7f9bf03f19e5152275cc606201", "03a1dc0f024c411dc56ea95d8ceac96f4c4e939bd19f74b08bf93443b081644dd5"], "sequence": 4294967294, "scriptSig": {"hex": "160014a00a8f6c1df10348168e2b61c01fa7ea621aa535", "asm": "0014a00a8f6c1df10348168e2b61c01fa7ea621aa535"}, "vout": 10, "txid": "f6f9b96299bd70ae55f073e395092123da6db68f22f49cb108b487e4c75f5358"}, {"txinwitness": ["3044022078e2d9fc300b7a5d273419b4be39ee2fee142911691ee8abbc8d45edcfe544f702202a69003e1d13b128c9556c2d9a8359898c1f3f7e3bd4588ee68b5e929d822cf101", "0298225ab614ed7bb91b6a27e4013fb413180ef535472785aacd4e30fd3f623be9"], "sequence": 4294967294, "scriptSig": {"hex": "160014d913b047e3e76cef136da4f7e994049ce73c90db", "asm": "0014d913b047e3e76cef136da4f7e994049ce73c90db"}, "vout": 0, "txid": "91804cde21e9798cf2a693e627cee36ca1db68744705baa4904bcc11f795895e"}], "txid": "62e07ae9ccc2ed9735e7764c0a6c2b1487866a57867946f41080dd8703655f09", "blocktime": 1537873282, "version": 2, "confirmations": 11484, "time": 1537873282, "locktime": 542995, "vsize": 259, "size": 421}