{"hash": "6729235fbb48487a050074f96ebf952742f1bc18495df771e105e0d1a86b9950", "blockhash": "00000000000000000017f5eb5941039fbcee6240d03bc1f2f8e35350df66a1d8", "vout": [{"scriptPubKey": {"reqSigs": 1, "hex": "a914709f58e1d243fea96116c148c2c58e106d4489ab87", "addresses": ["3BxWVfakMwtKeB1GHHjK6r3HZHp2jgqHnx"], "asm": "OP_HASH160 709f58e1d243fea96116c148c2c58e106d4489ab OP_EQUAL", "type": "scripthash"}, "value": 0.00370184, "n": 0}, {"scriptPubKey": {"reqSigs": 1, "hex": "a914a5c679defd49547b8133a1367eeadbdeaecec3da87", "addresses": ["3GoZBZ6F8g4UiCt7moPNLDX7KKwgtGgLUT"], "asm": "OP_HASH160 a5c679defd49547b8133a1367eeadbdeaecec3da OP_EQUAL", "type": "scripthash"}, "value": 0.30731397, "n": 1}], "hex": "01000000000101335600bd992d96794f60eae6e8cb8d3e3ff7a321b5419c22ac9fe0063d61cba901000000232200202d90cd274cea8141a030c0b79acc5b5c0b80b73d028692a1104913808bff6c09ffffffff0208a605000000000017a914709f58e1d243fea96116c148c2c58e106d4489ab8785ecd4010000000017a914a5c679defd49547b8133a1367eeadbdeaecec3da870400483045022100eba66d363d2998d0317ca942afad7c49c65162af8199ad66a652b1dec6d7888f0220578d4f339875141912684637f60e54a95a397536f890ddcf01f22c6c922b118101483045022100f00ef6352b1fec46f75d7d492936d693be862cf82c91cc5783c4450ade3614f6022027477b33e027214a06610ac674fc7932cc4c45934363dedd9fd0caf258e420ba014752210295d70c0f10033e6e119fdc61ddd495bfe23995150af6df4688db5bf235f2853b21023e4b58fb2a91970de56515d11487aabd364f0404f1099bef70493cc56002342352ae00000000", "vin": [{"txinwitness": ["", "3045022100eba66d363d2998d0317ca942afad7c49c65162af8199ad66a652b1dec6d7888f0220578d4f339875141912684637f60e54a95a397536f890ddcf01f22c6c922b118101", "3045022100f00ef6352b1fec46f75d7d492936d693be862cf82c91cc5783c4450ade3614f6022027477b33e027214a06610ac674fc7932cc4c45934363dedd9fd0caf258e420ba01", "52210295d70c0f10033e6e119fdc61ddd495bfe23995150af6df4688db5bf235f2853b21023e4b58fb2a91970de56515d11487aabd364f0404f1099bef70493cc56002342352ae"], "sequence": 4294967295, "scriptSig": {"hex": "2200202d90cd274cea8141a030c0b79acc5b5c0b80b73d028692a1104913808bff6c09", "asm": "00202d90cd274cea8141a030c0b79acc5b5c0b80b73d028692a1104913808bff6c09"}, "vout": 1, "txid": "a9cb613d06e09fac229c41b521a3f73f3e8dcbe8e6ea604f79962d99bd005633"}], "txid": "62e0daeef8b42cf43d62b5bacbf358ba10789e38d0364e7158a39fbdb7b2f2e1", "blocktime": 1537874412, "version": 1, "confirmations": 11468, "time": 1537874412, "locktime": 0, "vsize": 206, "size": 372}