{"hash": "62e5da728ef4466860b7f6356ffbd18db73f333df6b459af67ad66f682cc7c49", "blockhash": "0000000000000000000baef3f32e3676a92c3b2e5da21b426e4f302fc371ce76", "vout": [{"scriptPubKey": {"type": "nulldata", "hex": "6a4c500000780e000114074dca0d0f0a83fc4c871b702940d64fa54d8eb2d19ed074892d00f8e86c5bf752102a944cbf9d9a9e8aa1975f5baa1b5f0614627f589089d8bc9a9526289ac0f6612cd74e33776ee4", "asm": "OP_RETURN 0000780e000114074dca0d0f0a83fc4c871b702940d64fa54d8eb2d19ed074892d00f8e86c5bf752102a944cbf9d9a9e8aa1975f5baa1b5f0614627f589089d8bc9a9526289ac0f6612cd74e33776ee4"}, "value": 0.0, "n": 0}, {"scriptPubKey": {"reqSigs": 1, "hex": "76a914500492566a21986b0d4ce25827fe1fd106b4a64188ac", "addresses": ["18J6XzMm4tsK2m87Zs1No3n5x8D7phAvy9"], "asm": "OP_DUP OP_HASH160 500492566a21986b0d4ce25827fe1fd106b4a641 OP_EQUALVERIFY OP_CHECKSIG", "type": "pubkeyhash"}, "value": 0.0008128, "n": 1}], "hex": "0100000001364f7c24d8d85d12e5037da271e48d3655c322b5651c44644c4929e0cf4b00af010000006b483045022100d2db38845be3123b5e26661cd46f55918d456c93a3d3b18becd3f6c999ffd34c0220067541796fb95dbdfbcc11a68adee5cd174644ca7aaaf21f6b80a9ef0e02724f01210249457cc5aea1cada4fac855fa94179d020ee7484ff2add8431a13a82db554ce2ffffffff020000000000000000536a4c500000780e000114074dca0d0f0a83fc4c871b702940d64fa54d8eb2d19ed074892d00f8e86c5bf752102a944cbf9d9a9e8aa1975f5baa1b5f0614627f589089d8bc9a9526289ac0f6612cd74e33776ee4803d0100000000001976a914500492566a21986b0d4ce25827fe1fd106b4a64188ac00000000", "vin": [{"sequence": 4294967295, "scriptSig": {"hex": "483045022100d2db38845be3123b5e26661cd46f55918d456c93a3d3b18becd3f6c999ffd34c0220067541796fb95dbdfbcc11a68adee5cd174644ca7aaaf21f6b80a9ef0e02724f01210249457cc5aea1cada4fac855fa94179d020ee7484ff2add8431a13a82db554ce2", "asm": "3045022100d2db38845be3123b5e26661cd46f55918d456c93a3d3b18becd3f6c999ffd34c0220067541796fb95dbdfbcc11a68adee5cd174644ca7aaaf21f6b80a9ef0e02724f[ALL] 0249457cc5aea1cada4fac855fa94179d020ee7484ff2add8431a13a82db554ce2"}, "vout": 1, "txid": "af004bcfe029494c64441c65b522c355368de471a27d03e5125dd8d8247c4f36"}], "txid": "62e5da728ef4466860b7f6356ffbd18db73f333df6b459af67ad66f682cc7c49", "blocktime": 1537876114, "version": 1, "confirmations": 11460, "time": 1537876114, "locktime": 0, "vsize": 284, "size": 284}