{"hash": "d46e58ffae89f74a998a328585e78c626abac2eaeea14a6f17226c319b08cea9", "blockhash": "0000000000000000000e13cef7c366c0283d82e591d1acd082e914b08063cdf1", "vout": [{"scriptPubKey": {"reqSigs": 1, "hex": "76a9148ef9e3caec0aed140196ff76deb64e36ac5bd6bf88ac", "addresses": ["1E2zJtYTEpN471E8ZnBPRFr696fyvQx1kb"], "asm": "OP_DUP OP_HASH160 8ef9e3caec0aed140196ff76deb64e36ac5bd6bf OP_EQUALVERIFY OP_CHECKSIG", "type": "pubkeyhash"}, "value": 0.0046606, "n": 0}, {"scriptPubKey": {"reqSigs": 1, "hex": "a9141bd18c7bafbe9b43f1e245dc83b52ebd63e7604887", "addresses": ["34E7CRgm4HC1oNVKvkvMXpnPvUqo9FtYFe"], "asm": "OP_HASH160 1bd18c7bafbe9b43f1e245dc83b52ebd63e76048 OP_EQUAL", "type": "scripthash"}, "value": 0.01001548, "n": 1}], "hex": "0200000000010242deb9676a660b486b504b4c806c83bfaf95e0bf3e6bee44a003ea862693fb1801000000171600149c8b14f71d19fc9381f1e81e1cde6c4a7747b6fbfeffffffb1a616678f29df3d2803c12bc0a21f0bc5efc0085fb2a7dc12009a63c7c990290000000017160014e4de4f1fead72908a71a8f8bff17ee531b074a9cfeffffff028c1c0700000000001976a9148ef9e3caec0aed140196ff76deb64e36ac5bd6bf88ac4c480f000000000017a9141bd18c7bafbe9b43f1e245dc83b52ebd63e76048870247304402203f848cf1261a3ff553c3588101c4b129cd98909badcb565f9a77ebce425596e602203b14135923cf62b1b46ac7373cda8837f98e0b197e208fe100f2bc6890986e8b012103547a62d18138ac76cf5145d931331435edacbba8f95f7eb0e5436afbe97f27180247304402204c35cffd9bf9e044a9e022b9f011f3a55af190ed31797519205d4140f02fc51002202b833efdd3571822a23d759358dfd7e31b141622dcd116e08384fc570fc0ed34012103902ac5fa33d2b992deebdef2b86545d172fc745b2ee107d09a6c1546c735461b10490800", "vin": [{"txinwitness": ["304402203f848cf1261a3ff553c3588101c4b129cd98909badcb565f9a77ebce425596e602203b14135923cf62b1b46ac7373cda8837f98e0b197e208fe100f2bc6890986e8b01", "03547a62d18138ac76cf5145d931331435edacbba8f95f7eb0e5436afbe97f2718"], "sequence": 4294967294, "scriptSig": {"hex": "1600149c8b14f71d19fc9381f1e81e1cde6c4a7747b6fb", "asm": "00149c8b14f71d19fc9381f1e81e1cde6c4a7747b6fb"}, "vout": 1, "txid": "18fb932686ea03a044ee6b3ebfe095afbf836c804c4b506b480b666a67b9de42"}, {"txinwitness": ["304402204c35cffd9bf9e044a9e022b9f011f3a55af190ed31797519205d4140f02fc51002202b833efdd3571822a23d759358dfd7e31b141622dcd116e08384fc570fc0ed3401", "03902ac5fa33d2b992deebdef2b86545d172fc745b2ee107d09a6c1546c735461b"], "sequence": 4294967294, "scriptSig": {"hex": "160014e4de4f1fead72908a71a8f8bff17ee531b074a9c", "asm": "0014e4de4f1fead72908a71a8f8bff17ee531b074a9c"}, "vout": 0, "txid": "2990c9c7639a0012dca7b25f08c0efc50b1fa2c02bc103283ddf298f6716a6b1"}], "txid": "62e902bc72cbcfa3baf66d8c52bdd30c6716486942a953c61ab6960e8fe297a4", "blocktime": 1537871767, "version": 2, "confirmations": 11495, "time": 1537871767, "locktime": 542992, "vsize": 258, "size": 420}