{"hash": "62eac5970c07588d98541fb4c23e08ef3295dc47f3372e26efe2e53c3d31027d", "blockhash": "0000000000000000000baef3f32e3676a92c3b2e5da21b426e4f302fc371ce76", "vout": [{"scriptPubKey": {"reqSigs": 1, "hex": "a9140a9db65875911af8529187feae7422caf99f6fb987", "addresses": ["32f9cWBKoCygcc5pFE41kU4qCJZz6xs7PN"], "asm": "OP_HASH160 0a9db65875911af8529187feae7422caf99f6fb9 OP_EQUAL", "type": "scripthash"}, "value": 0.0376, "n": 0}, {"scriptPubKey": {"reqSigs": 1, "hex": "76a914dae1174494e4e431589f9a09917c30885a2c7a2588ac", "addresses": ["1LxKxQgQKBAPoUC52VnA892tnfH4CMt4ki"], "asm": "OP_DUP OP_HASH160 dae1174494e4e431589f9a09917c30885a2c7a25 OP_EQUALVERIFY OP_CHECKSIG", "type": "pubkeyhash"}, "value": 0.14794296, "n": 1}], "hex": "0100000003c05b758be29882348c775c56b972e15db23d41034e08b8d6fb0c65d5dce9718b010000006a47304402200d92e1372d2757b31192c25e44f51f88ea4c8e44cdd833c48915d106b691be7e0220255a5d32df040417e391aff6d9c97664b924706d081931ea2ef4a7b7eaf7e1df012102526c242c0e217a74ee4fdd62ca0c2631c14ae9d32b88f334d4896b2ba6e0b73bffffffffd5e744289ad6445718cb661f59d934d342c9500812a468b8793de3e6c8dbda75020000006b483045022100a5796e3bfca0ae5fed2018078acce63b13ac6bb37b8c79107cd4c9edfee8a42e022011176aabed4f1f6ef62b0769ae9677cfdcbe524fd81536f203740d2e01a17163012102526c242c0e217a74ee4fdd62ca0c2631c14ae9d32b88f334d4896b2ba6e0b73bffffffffc90c2f711052f77c22bbbff638cb20effbbb0bef8d94cd9ffbed2135af96d399010000006a47304402206137cf81a902cd10ddf108070b1b45d0fbf41612311c6304e449a1dbb7cefb320220075bda3fe437ea0e877011b6d44f27714f67ab804c7f530dd41d7b8b944b8e1c012102526c242c0e217a74ee4fdd62ca0c2631c14ae9d32b88f334d4896b2ba6e0b73bffffffff02805f39000000000017a9140a9db65875911af8529187feae7422caf99f6fb98738bee100000000001976a914dae1174494e4e431589f9a09917c30885a2c7a2588ac00000000", "vin": [{"sequence": 4294967295, "scriptSig": {"hex": "47304402200d92e1372d2757b31192c25e44f51f88ea4c8e44cdd833c48915d106b691be7e0220255a5d32df040417e391aff6d9c97664b924706d081931ea2ef4a7b7eaf7e1df012102526c242c0e217a74ee4fdd62ca0c2631c14ae9d32b88f334d4896b2ba6e0b73b", "asm": "304402200d92e1372d2757b31192c25e44f51f88ea4c8e44cdd833c48915d106b691be7e0220255a5d32df040417e391aff6d9c97664b924706d081931ea2ef4a7b7eaf7e1df[ALL] 02526c242c0e217a74ee4fdd62ca0c2631c14ae9d32b88f334d4896b2ba6e0b73b"}, "vout": 1, "txid": "8b71e9dcd5650cfbd6b8084e03413db25de172b9565c778c348298e28b755bc0"}, {"sequence": 4294967295, "scriptSig": {"hex": "483045022100a5796e3bfca0ae5fed2018078acce63b13ac6bb37b8c79107cd4c9edfee8a42e022011176aabed4f1f6ef62b0769ae9677cfdcbe524fd81536f203740d2e01a17163012102526c242c0e217a74ee4fdd62ca0c2631c14ae9d32b88f334d4896b2ba6e0b73b", "asm": "3045022100a5796e3bfca0ae5fed2018078acce63b13ac6bb37b8c79107cd4c9edfee8a42e022011176aabed4f1f6ef62b0769ae9677cfdcbe524fd81536f203740d2e01a17163[ALL] 02526c242c0e217a74ee4fdd62ca0c2631c14ae9d32b88f334d4896b2ba6e0b73b"}, "vout": 2, "txid": "75dadbc8e6e33d79b868a4120850c942d334d9591f66cb185744d69a2844e7d5"}, {"sequence": 4294967295, "scriptSig": {"hex": "47304402206137cf81a902cd10ddf108070b1b45d0fbf41612311c6304e449a1dbb7cefb320220075bda3fe437ea0e877011b6d44f27714f67ab804c7f530dd41d7b8b944b8e1c012102526c242c0e217a74ee4fdd62ca0c2631c14ae9d32b88f334d4896b2ba6e0b73b", "asm": "304402206137cf81a902cd10ddf108070b1b45d0fbf41612311c6304e449a1dbb7cefb320220075bda3fe437ea0e877011b6d44f27714f67ab804c7f530dd41d7b8b944b8e1c[ALL] 02526c242c0e217a74ee4fdd62ca0c2631c14ae9d32b88f334d4896b2ba6e0b73b"}, "vout": 1, "txid": "99d396af3521edfb9fcd948def0bbbfbef20cb38f6bfbb227cf75210712f0cc9"}], "txid": "62eac5970c07588d98541fb4c23e08ef3295dc47f3372e26efe2e53c3d31027d", "blocktime": 1537876114, "version": 1, "confirmations": 11459, "time": 1537876114, "locktime": 0, "vsize": 518, "size": 518}