{"hash": "62ebe2110f01331da5ca76f9ffed6a4671d19f380144443c5aabfd33896316d3", "blockhash": "0000000000000000001cda96e906b7601b7a6fb1a3b62bca570a9e5d8f4b3de1", "vout": [{"scriptPubKey": {"type": "nulldata", "hex": "6a4c50000077c80001624eaac1c35f8ee7303417685b23cc0f42c2fc38c5e5bf9ae76da98a211a39811c1665291878898fab1d3ea6421b5baa13a10612c5e3025f34a71d100759d4ba30d2c37bb011d97e02cf", "asm": "OP_RETURN 000077c80001624eaac1c35f8ee7303417685b23cc0f42c2fc38c5e5bf9ae76da98a211a39811c1665291878898fab1d3ea6421b5baa13a10612c5e3025f34a71d100759d4ba30d2c37bb011d97e02cf"}, "value": 0.0, "n": 0}, {"scriptPubKey": {"reqSigs": 1, "hex": "76a9149b7cb3e6fc091cd8e5d88302098a70376234a16088ac", "addresses": ["1FB98EUBWkC2BMrWD7fmoWeY9LEyAYasBr"], "asm": "OP_DUP OP_HASH160 9b7cb3e6fc091cd8e5d88302098a70376234a160 OP_EQUALVERIFY OP_CHECKSIG", "type": "pubkeyhash"}, "value": 0.00637756, "n": 1}], "hex": "01000000015f54e668393c1bbc39940ef889ffafc42537dc578d8e187eb64177eab8231845000000006b483045022100ee656311412940d0cf736788fda79d2a9e43b98fd33f517d5934e22eb930a45e0220581b67e03d2911896c0526b2e5a575d8140ef549359a8f92a1eeaeb812254f8301210337572c38f124c1f9e94b3d36149b0c3215e658bb8cf003ac9b4f8f348169588bffffffff020000000000000000536a4c50000077c80001624eaac1c35f8ee7303417685b23cc0f42c2fc38c5e5bf9ae76da98a211a39811c1665291878898fab1d3ea6421b5baa13a10612c5e3025f34a71d100759d4ba30d2c37bb011d97e02cf3cbb0900000000001976a9149b7cb3e6fc091cd8e5d88302098a70376234a16088ac00000000", "vin": [{"sequence": 4294967295, "scriptSig": {"hex": "483045022100ee656311412940d0cf736788fda79d2a9e43b98fd33f517d5934e22eb930a45e0220581b67e03d2911896c0526b2e5a575d8140ef549359a8f92a1eeaeb812254f8301210337572c38f124c1f9e94b3d36149b0c3215e658bb8cf003ac9b4f8f348169588b", "asm": "3045022100ee656311412940d0cf736788fda79d2a9e43b98fd33f517d5934e22eb930a45e0220581b67e03d2911896c0526b2e5a575d8140ef549359a8f92a1eeaeb812254f83[ALL] 0337572c38f124c1f9e94b3d36149b0c3215e658bb8cf003ac9b4f8f348169588b"}, "vout": 0, "txid": "451823b8ea7741b67e188e8d57dc3725c4afff89f80e9439bc1b3c3968e6545f"}], "txid": "62ebe2110f01331da5ca76f9ffed6a4671d19f380144443c5aabfd33896316d3", "blocktime": 1537873282, "version": 1, "confirmations": 11484, "time": 1537873282, "locktime": 0, "vsize": 284, "size": 284}