{"hash": "604177c98b7fe7d917f4a0551eb3c8802245e32c738ac576b4c5895345a55627", "blockhash": "0000000000000000001f76057863aec43deb6fa401d9628bb513d65a8098bfab", "vout": [{"scriptPubKey": {"reqSigs": 1, "hex": "a914c8948f84ab8bc2187580e4fb86ecf2a0a06e11cf87", "addresses": ["3Kyb35jwJ7YCiAF7JRfW5VZdpyywKap5YB"], "asm": "OP_HASH160 c8948f84ab8bc2187580e4fb86ecf2a0a06e11cf OP_EQUAL", "type": "scripthash"}, "value": 3.862e-05, "n": 0}, {"scriptPubKey": {"reqSigs": 1, "hex": "a914d303b012fd5bace55c9e1eecd8544fa009e066ec87", "addresses": ["3LvkvFaJnbgHkBLLALpbmpCoqhxjnChTS6"], "asm": "OP_HASH160 d303b012fd5bace55c9e1eecd8544fa009e066ec OP_EQUAL", "type": "scripthash"}, "value": 0.00013151, "n": 1}], "hex": "0100000000010285447d96e6cfee2ef1896bc1e25e7aaef7c8037eba4eeeaa436a556ef23c124d0100000023220020f63dfc12340f6360d0251c22746d6b56093e3243e96ca012a65484a5d9cf0ec0ffffffff9f86ff7fe5b5994806c073f82721d1505e2266c5ead24986aae69992e0612b4500000000232200205d6499f7200492ec9507ce8f2964f6bc783b27e872ac6ff833364b07b881828cffffffff02160f00000000000017a914c8948f84ab8bc2187580e4fb86ecf2a0a06e11cf875f3300000000000017a914d303b012fd5bace55c9e1eecd8544fa009e066ec870400473044022008eed4a4976dbf55cf8cf0e5f2326fdcf219019669975b05961163ca8fd85d7c022020f769b67b1828aaed188d70e3c4ae554269927363756f551413dcd2aa0189200147304402205cca5b3d421b19f1f8563c1921e88a74f5e713e0ae96d1e9e19c8e4fe1778a28022052cbca7d97d56c91858e0b1d30ff6a5f83189de7d7632f5abf1dda1271edc5dc0147522102097067a6a0cc130a9a6f6577b47bf369b840a79de31cd7457187994266b1bb7c2103338f346cab6ba87fe940591a03ac234be06520c5ab386d4b6632e8eef0d0db7652ae0400483045022100b9f32b54acb611ab25a248ceee77737c6426be5e931e49957ac7d45dfbbe5382022073bf9267f512708a0859f02243cd36d11a53e523a914079fa9e98b4f1535f83d01483045022100a9bc16e2f65765bc8c69516964a193b57ee519c523ff17751f9c8187cdcf3e3802201483a9db9ac229b796129ce1d9b15d292c3e5b854d68f92799200f69a5696f4d0147522102e4c6107243fb30e2c7b68867cb2ba9b88f255fd888815db5b6b304be2776f30b2103338f346cab6ba87fe940591a03ac234be06520c5ab386d4b6632e8eef0d0db7652ae00000000", "vin": [{"txinwitness": ["", "3044022008eed4a4976dbf55cf8cf0e5f2326fdcf219019669975b05961163ca8fd85d7c022020f769b67b1828aaed188d70e3c4ae554269927363756f551413dcd2aa01892001", "304402205cca5b3d421b19f1f8563c1921e88a74f5e713e0ae96d1e9e19c8e4fe1778a28022052cbca7d97d56c91858e0b1d30ff6a5f83189de7d7632f5abf1dda1271edc5dc01", "522102097067a6a0cc130a9a6f6577b47bf369b840a79de31cd7457187994266b1bb7c2103338f346cab6ba87fe940591a03ac234be06520c5ab386d4b6632e8eef0d0db7652ae"], "sequence": 4294967295, "scriptSig": {"hex": "220020f63dfc12340f6360d0251c22746d6b56093e3243e96ca012a65484a5d9cf0ec0", "asm": "0020f63dfc12340f6360d0251c22746d6b56093e3243e96ca012a65484a5d9cf0ec0"}, "vout": 1, "txid": "4d123cf26e556a43aaee4eba7e03c8f7ae7a5ee2c16b89f12eeecfe6967d4485"}, {"txinwitness": ["", "3045022100b9f32b54acb611ab25a248ceee77737c6426be5e931e49957ac7d45dfbbe5382022073bf9267f512708a0859f02243cd36d11a53e523a914079fa9e98b4f1535f83d01", "3045022100a9bc16e2f65765bc8c69516964a193b57ee519c523ff17751f9c8187cdcf3e3802201483a9db9ac229b796129ce1d9b15d292c3e5b854d68f92799200f69a5696f4d01", "522102e4c6107243fb30e2c7b68867cb2ba9b88f255fd888815db5b6b304be2776f30b2103338f346cab6ba87fe940591a03ac234be06520c5ab386d4b6632e8eef0d0db7652ae"], "sequence": 4294967295, "scriptSig": {"hex": "2200205d6499f7200492ec9507ce8f2964f6bc783b27e872ac6ff833364b07b881828c", "asm": "00205d6499f7200492ec9507ce8f2964f6bc783b27e872ac6ff833364b07b881828c"}, "vout": 0, "txid": "452b61e09299e6aa8649d2eac566225e50d12127f873c0064899b5e57fff869f"}], "txid": "62eeb7ac98ffacec4577f1db6ca33549f1315e95967e7da33a83e061fa9a22e2", "blocktime": 1537873891, "version": 1, "confirmations": 11478, "time": 1537873891, "locktime": 0, "vsize": 336, "size": 666}