{"hash": "c9b18ebc8d93d4826a1435cc6ca189e2e213044b5f50fda1d10b87bd9ebaaf9d", "blockhash": "00000000000000000018f53835495a110e01622372bf6ae95dc86f2b0ab887b0", "vout": [{"scriptPubKey": {"reqSigs": 1, "hex": "a9143f8966b66334d0f19fff3634f21cb87a4f78cd4d87", "addresses": ["37Uy6S5fdNefnAHayaJ9CHzG96ZKyzK8gm"], "asm": "OP_HASH160 3f8966b66334d0f19fff3634f21cb87a4f78cd4d OP_EQUAL", "type": "scripthash"}, "value": 0.11510449, "n": 0}, {"scriptPubKey": {"reqSigs": 1, "hex": "76a9143c940d55f43cb4cc02ae8ff5c7cde2e558f239a888ac", "addresses": ["16XJuMGy1znDraAN7biVDRN74UNC6hr7Do"], "asm": "OP_DUP OP_HASH160 3c940d55f43cb4cc02ae8ff5c7cde2e558f239a8 OP_EQUALVERIFY OP_CHECKSIG", "type": "pubkeyhash"}, "value": 0.00114351, "n": 1}], "hex": "01000000000101078074e926f02bc7cbe08d2292278c9ef91e97e6bb4a243dcffe9ea881664b3c3c00000017160014d47f3e164db2f2edafefc4475f3c997ec3c4583cffffffff02b1a2af000000000017a9143f8966b66334d0f19fff3634f21cb87a4f78cd4d87afbe0100000000001976a9143c940d55f43cb4cc02ae8ff5c7cde2e558f239a888ac02483045022100a0f5bdb3aa1be8068e51eb2c5d159a45872560c40d7f7372ec6cd08622e4700902203785c7cce2d9cf4d83b6da7109edc68dba5f5ef70884a082b09267bf48b65987012103d1ccded330704fdc01e542af463819361b143ae93810e5aa2c8945add2c7f35300000000", "vin": [{"txinwitness": ["3045022100a0f5bdb3aa1be8068e51eb2c5d159a45872560c40d7f7372ec6cd08622e4700902203785c7cce2d9cf4d83b6da7109edc68dba5f5ef70884a082b09267bf48b6598701", "03d1ccded330704fdc01e542af463819361b143ae93810e5aa2c8945add2c7f353"], "sequence": 4294967295, "scriptSig": {"hex": "160014d47f3e164db2f2edafefc4475f3c997ec3c4583c", "asm": "0014d47f3e164db2f2edafefc4475f3c997ec3c4583c"}, "vout": 60, "txid": "3c4b6681a89efecf3d244abbe6971ef99e8c2792228de0cbc72bf026e9748007"}], "txid": "63081376b0cca4482364031b5b7b8e259f9d8fa2cc9f2a16ecbbd5a131436de1", "blocktime": 1537870928, "version": 1, "confirmations": 11512, "time": 1537870928, "locktime": 0, "vsize": 168, "size": 250}