{"hash": "d767ab19769bf57c8ca9ed91ec0995d7050a14b92f4c486c829203715c703834", "blockhash": "0000000000000000001f76057863aec43deb6fa401d9628bb513d65a8098bfab", "vout": [{"scriptPubKey": {"reqSigs": 1, "hex": "76a9145765d151ed725076ca70edb9a867a436b6c7233a88ac", "addresses": ["18y7m72yCMavcJEG7DPQstZkUSUV5vt2hB"], "asm": "OP_DUP OP_HASH160 5765d151ed725076ca70edb9a867a436b6c7233a OP_EQUALVERIFY OP_CHECKSIG", "type": "pubkeyhash"}, "value": 0.0024666, "n": 0}, {"scriptPubKey": {"reqSigs": 1, "hex": "a914581a97b3afa9d0b8d8ea2476ee74283c3d277e5c87", "addresses": ["39isF7LWw7mptYDvwag8c1zvVXXF2XQGwj"], "asm": "OP_HASH160 581a97b3afa9d0b8d8ea2476ee74283c3d277e5c OP_EQUAL", "type": "scripthash"}, "value": 0.0107054, "n": 1}], "hex": "020000000001021b50bc0c14c3cc2b0f753fb74c8308e5edee16033cc2c0885a952a62ec58315100000000171600145daed7e39d910d4ec6fde1072a4a5189da960618feffffff956bae236cb3a5f3087757b6d5a7d1f87e7bf414317ada2ff98f8d9fb8bea67101000000171600145ae8f634897e12b764694dae3fa17f1173d2b837feffffff0284c30300000000001976a9145765d151ed725076ca70edb9a867a436b6c7233a88accc5510000000000017a914581a97b3afa9d0b8d8ea2476ee74283c3d277e5c8702483045022100f1a119cff5db14d559eb2181f9e570dd1b004884ab1b20a7bc2369e16e11346902201657ff1f5e0e707ec8bbc1e654fcab6c1ab01f52f21d573dc355803ff84492c0012102ab9a4d509106aa61d6ddfb2ea5a3a4c7057fefcb36b5beae8e7833ddb1e931a90247304402200b5fb0e5e75341f26445fb28961d5529ef7685ec00a7c5036cd39101a8a10b66022073e82dc14533e1c77f958cefbcc2aac18fb75f5052ad6a50a89622f329752d66012103582b18ec623df367dee2748e5746cc9d8a6893dfa3b2a3f77e2d5e6d41859f5e13490800", "vin": [{"txinwitness": ["3045022100f1a119cff5db14d559eb2181f9e570dd1b004884ab1b20a7bc2369e16e11346902201657ff1f5e0e707ec8bbc1e654fcab6c1ab01f52f21d573dc355803ff84492c001", "02ab9a4d509106aa61d6ddfb2ea5a3a4c7057fefcb36b5beae8e7833ddb1e931a9"], "sequence": 4294967294, "scriptSig": {"hex": "1600145daed7e39d910d4ec6fde1072a4a5189da960618", "asm": "00145daed7e39d910d4ec6fde1072a4a5189da960618"}, "vout": 0, "txid": "513158ec622a955a88c0c23c0316eeede508834cb73f750f2bccc3140cbc501b"}, {"txinwitness": ["304402200b5fb0e5e75341f26445fb28961d5529ef7685ec00a7c5036cd39101a8a10b66022073e82dc14533e1c77f958cefbcc2aac18fb75f5052ad6a50a89622f329752d6601", "03582b18ec623df367dee2748e5746cc9d8a6893dfa3b2a3f77e2d5e6d41859f5e"], "sequence": 4294967294, "scriptSig": {"hex": "1600145ae8f634897e12b764694dae3fa17f1173d2b837", "asm": "00145ae8f634897e12b764694dae3fa17f1173d2b837"}, "vout": 1, "txid": "71a6beb89f8d8ff92fda7a3114f47b7ef8d1a7d5b6577708f3a5b36c23ae6b95"}], "txid": "6311b9be22bd9c734ee134dbb3946c68936b1182c70d59fc455ed62db8c65a84", "blocktime": 1537873891, "version": 2, "confirmations": 11478, "time": 1537873891, "locktime": 542995, "vsize": 259, "size": 421}