{"hash": "6312a1ab9ce2e1446e52e5c06846c5e14f00943b597e5a715217e38d76d8fbcf", "blockhash": "0000000000000000001f76057863aec43deb6fa401d9628bb513d65a8098bfab", "vout": [{"scriptPubKey": {"reqSigs": 1, "hex": "76a914945b8dd1df16f2b2bc0c7b750dd1c483720e929688ac", "addresses": ["1EXSgg3fXSK9pDZYpo2nhJ6yaLm2sy5UUw"], "asm": "OP_DUP OP_HASH160 945b8dd1df16f2b2bc0c7b750dd1c483720e9296 OP_EQUALVERIFY OP_CHECKSIG", "type": "pubkeyhash"}, "value": 0.00030116, "n": 0}, {"scriptPubKey": {"reqSigs": 1, "hex": "a91462b3365f87c02308d97248fb872ebc7e375c100387", "addresses": ["3AgtqEo4nEQX9jHMeMbvpzfnzcM6m27pYA"], "asm": "OP_HASH160 62b3365f87c02308d97248fb872ebc7e375c1003 OP_EQUAL", "type": "scripthash"}, "value": 0.00038, "n": 1}], "hex": "01000000019b147427b699ebeb2d946806cf101a154a34d912110571d559666541503c7ebc000000006b4830450221008061caa41f5dd923326d8bf826c6b83b4458242ca9099c691455986c832ac0dc02204856663493945591e847851e85ecbb9ace9365b0107db7b41d3f009de85c81d3012103b7fbf0cead0b3a47eaea7542dfbb92b49a172067c1bf65f4bba5a0587bfcf9cdffffffff02a4750000000000001976a914945b8dd1df16f2b2bc0c7b750dd1c483720e929688ac709400000000000017a91462b3365f87c02308d97248fb872ebc7e375c10038700000000", "vin": [{"sequence": 4294967295, "scriptSig": {"hex": "4830450221008061caa41f5dd923326d8bf826c6b83b4458242ca9099c691455986c832ac0dc02204856663493945591e847851e85ecbb9ace9365b0107db7b41d3f009de85c81d3012103b7fbf0cead0b3a47eaea7542dfbb92b49a172067c1bf65f4bba5a0587bfcf9cd", "asm": "30450221008061caa41f5dd923326d8bf826c6b83b4458242ca9099c691455986c832ac0dc02204856663493945591e847851e85ecbb9ace9365b0107db7b41d3f009de85c81d3[ALL] 03b7fbf0cead0b3a47eaea7542dfbb92b49a172067c1bf65f4bba5a0587bfcf9cd"}, "vout": 0, "txid": "bc7e3c5041656659d571051112d9344a151a10cf0668942debeb99b62774149b"}], "txid": "6312a1ab9ce2e1446e52e5c06846c5e14f00943b597e5a715217e38d76d8fbcf", "blocktime": 1537873891, "version": 1, "confirmations": 11477, "time": 1537873891, "locktime": 0, "vsize": 224, "size": 224}