{"hash": "6313ebbc8f5946a224ad5f677d2198a5510df6cebff72fddb87e712d2214a4db", "blockhash": "0000000000000000001cda96e906b7601b7a6fb1a3b62bca570a9e5d8f4b3de1", "vout": [{"scriptPubKey": {"reqSigs": 1, "hex": "76a914b3ec474ffdda8ac4ad9faff4a7dee2b9221591a088ac", "addresses": ["1HQM1G5z6vEuJk29e2jgWqyd8cKZpnuxMj"], "asm": "OP_DUP OP_HASH160 b3ec474ffdda8ac4ad9faff4a7dee2b9221591a0 OP_EQUALVERIFY OP_CHECKSIG", "type": "pubkeyhash"}, "value": 0.00406, "n": 0}, {"scriptPubKey": {"reqSigs": 1, "hex": "76a91490be20a2edfa6416affe2cec961a7af7aacfef5188ac", "addresses": ["1ECL4ux29LXeqe9wYZYjpPJDGPT3cJ7UqF"], "asm": "OP_DUP OP_HASH160 90be20a2edfa6416affe2cec961a7af7aacfef51 OP_EQUALVERIFY OP_CHECKSIG", "type": "pubkeyhash"}, "value": 0.01161198, "n": 1}], "hex": "0100000001c5c5d04a71084bf854f0e265184d8bb462849260b6d3589b66fb539d52fb8c3f010000006b483045022100c604244dae6e261364a68a5bc5d7c4967cf9f410c3a356796352a2ade1107035022049e836deba5fd8581c8917def350301989b4a2b320f7990294080dcb8610a188012103f1ec5a67d2be6c19bb144b9dfcdd9cc54d36df07b3bb34e1062da2ad732d7469ffffffff02f0310600000000001976a914b3ec474ffdda8ac4ad9faff4a7dee2b9221591a088aceeb71100000000001976a91490be20a2edfa6416affe2cec961a7af7aacfef5188ac00000000", "vin": [{"sequence": 4294967295, "scriptSig": {"hex": "483045022100c604244dae6e261364a68a5bc5d7c4967cf9f410c3a356796352a2ade1107035022049e836deba5fd8581c8917def350301989b4a2b320f7990294080dcb8610a188012103f1ec5a67d2be6c19bb144b9dfcdd9cc54d36df07b3bb34e1062da2ad732d7469", "asm": "3045022100c604244dae6e261364a68a5bc5d7c4967cf9f410c3a356796352a2ade1107035022049e836deba5fd8581c8917def350301989b4a2b320f7990294080dcb8610a188[ALL] 03f1ec5a67d2be6c19bb144b9dfcdd9cc54d36df07b3bb34e1062da2ad732d7469"}, "vout": 1, "txid": "3f8cfb529d53fb669b58d3b660928462b48b4d1865e2f054f84b08714ad0c5c5"}], "txid": "6313ebbc8f5946a224ad5f677d2198a5510df6cebff72fddb87e712d2214a4db", "blocktime": 1537873282, "version": 1, "confirmations": 11484, "time": 1537873282, "locktime": 0, "vsize": 226, "size": 226}