{"hash": "6315b6d0285e4e25717dc09023a02575cb6f06edf875d64c60ebaf0045a84258", "blockhash": "0000000000000000001cda96e906b7601b7a6fb1a3b62bca570a9e5d8f4b3de1", "vout": [{"scriptPubKey": {"reqSigs": 1, "hex": "76a9144a7789e6d6f50b3f5f2a045fdc9e63965837dfb888ac", "addresses": ["17nkCtXjoD8VfG1fyHx9YGSADcQSpFcYJk"], "asm": "OP_DUP OP_HASH160 4a7789e6d6f50b3f5f2a045fdc9e63965837dfb8 OP_EQUALVERIFY OP_CHECKSIG", "type": "pubkeyhash"}, "value": 0.00088533, "n": 0}, {"scriptPubKey": {"reqSigs": 1, "hex": "76a914bedfcc6d3913ebd8e85391212759948c5e9adbf188ac", "addresses": ["1JQFVF6eLr3ep9AAk6XfibXK9wqvT2X4Mg"], "asm": "OP_DUP OP_HASH160 bedfcc6d3913ebd8e85391212759948c5e9adbf1 OP_EQUALVERIFY OP_CHECKSIG", "type": "pubkeyhash"}, "value": 0.5, "n": 1}], "hex": "010000000297b4917c25e9fe6ccf1103fd7f4b798666629c24a1ae502ee3fe08eddf628970000000006b483045022100cc108dafb59d71f7924f46e894c867b57431c91ef25fc841436a06812968930d022077643bc3383e3b759dcc81e6deab65e743a5e61c0472a8bcafa77f1e8170508f0121033d2352a4c000a628cc11dfff7abfedf2edd61e33006a93a95ad21775fabca7eaffffffff8658664469e2e82b8e64d1d208da1cb523c13285850619162af6e08b71c6a39b000000006b483045022100ff8a56f91b01dcf858dfdf0834329cf92ffc5193ada6d48584c4c7f4244e551c02203a5756f07e6c76ad9d0e5955f73cd62fdaa6c4cbc25908b242351c5d00b219f301210327e5a71dc34211c1b90852a544b41499b87b960e6405941bff95044a85f71463ffffffff02d5590100000000001976a9144a7789e6d6f50b3f5f2a045fdc9e63965837dfb888ac80f0fa02000000001976a914bedfcc6d3913ebd8e85391212759948c5e9adbf188ac00000000", "vin": [{"sequence": 4294967295, "scriptSig": {"hex": "483045022100cc108dafb59d71f7924f46e894c867b57431c91ef25fc841436a06812968930d022077643bc3383e3b759dcc81e6deab65e743a5e61c0472a8bcafa77f1e8170508f0121033d2352a4c000a628cc11dfff7abfedf2edd61e33006a93a95ad21775fabca7ea", "asm": "3045022100cc108dafb59d71f7924f46e894c867b57431c91ef25fc841436a06812968930d022077643bc3383e3b759dcc81e6deab65e743a5e61c0472a8bcafa77f1e8170508f[ALL] 033d2352a4c000a628cc11dfff7abfedf2edd61e33006a93a95ad21775fabca7ea"}, "vout": 0, "txid": "708962dfed08fee32e50aea1249c626686794b7ffd0311cf6cfee9257c91b497"}, {"sequence": 4294967295, "scriptSig": {"hex": "483045022100ff8a56f91b01dcf858dfdf0834329cf92ffc5193ada6d48584c4c7f4244e551c02203a5756f07e6c76ad9d0e5955f73cd62fdaa6c4cbc25908b242351c5d00b219f301210327e5a71dc34211c1b90852a544b41499b87b960e6405941bff95044a85f71463", "asm": "3045022100ff8a56f91b01dcf858dfdf0834329cf92ffc5193ada6d48584c4c7f4244e551c02203a5756f07e6c76ad9d0e5955f73cd62fdaa6c4cbc25908b242351c5d00b219f3[ALL] 0327e5a71dc34211c1b90852a544b41499b87b960e6405941bff95044a85f71463"}, "vout": 0, "txid": "9ba3c6718be0f62a161906858532c123b51cda08d2d1648e2be8e26944665886"}], "txid": "6315b6d0285e4e25717dc09023a02575cb6f06edf875d64c60ebaf0045a84258", "blocktime": 1537873282, "version": 1, "confirmations": 11485, "time": 1537873282, "locktime": 0, "vsize": 374, "size": 374}