{"hash": "47fa6088762fcbf90d0b0d39a53dc63c2b5d42ac71c920553d782f903e8810ff", "blockhash": "000000000000000000022b45ed06c6f4ccd3cf7fb5ba4856ebd2e58215665228", "vout": [{"scriptPubKey": {"reqSigs": 1, "hex": "76a9146af4487619239d3ab92b01156e52acd98bfb5cea88ac", "addresses": ["1AkXGRFHF2yymEwoiPFaiBhKSwWQqEFnXt"], "asm": "OP_DUP OP_HASH160 6af4487619239d3ab92b01156e52acd98bfb5cea OP_EQUALVERIFY OP_CHECKSIG", "type": "pubkeyhash"}, "value": 0.0018176, "n": 0}, {"scriptPubKey": {"reqSigs": 1, "hex": "a914a209685b73c659b744c48465b4507a8c5ef8e1a287", "addresses": ["3GTnfGuB83USB5xVFYWKRMNNK5cgDieDSi"], "asm": "OP_HASH160 a209685b73c659b744c48465b4507a8c5ef8e1a2 OP_EQUAL", "type": "scripthash"}, "value": 0.0102464, "n": 1}], "hex": "02000000000102061286d2f276f62239c5ffc3461e237b3b7690840f22ee09bc3de57775f3ff630100000017160014cae8884ffcc2ee5b668c48d90a96863d807e8d90feffffffada9874a1d372e9e54bde40bd64c5a9eafece1670b42369bfedc6eba875b0175180000001716001426f63cdd473cf5dec04fd0e52b487f2e5469b960feffffff0200c60200000000001976a9146af4487619239d3ab92b01156e52acd98bfb5cea88ac80a20f000000000017a914a209685b73c659b744c48465b4507a8c5ef8e1a28702483045022100a992a23a42de1330649f5ac6555062e0df771c01e86f5fd41ce6ab44c11e0f7002205ff0a91c0088be7cb3dbbfff58db1b3fdc0e386abcbc476338ca36163961031f012103a34b67a6de4acd1e83dda0fd910b71ade9d69cc9c0beb1f0ce0902cb90819abe02473044022063b27cf397290e0fa51caffc136c611d0bb9f6ca4a39f683a6df0e648b00e0f30220237a6870487b7214ddf33c60f4f7ff7134eb992fa8ba9d6cf5f90977a79bb5a9012102c40353063280ecb22d30d1cfc6d63c1043f296d16d7d781cb9b58d3fa844c1280b490800", "vin": [{"txinwitness": ["3045022100a992a23a42de1330649f5ac6555062e0df771c01e86f5fd41ce6ab44c11e0f7002205ff0a91c0088be7cb3dbbfff58db1b3fdc0e386abcbc476338ca36163961031f01", "03a34b67a6de4acd1e83dda0fd910b71ade9d69cc9c0beb1f0ce0902cb90819abe"], "sequence": 4294967294, "scriptSig": {"hex": "160014cae8884ffcc2ee5b668c48d90a96863d807e8d90", "asm": "0014cae8884ffcc2ee5b668c48d90a96863d807e8d90"}, "vout": 1, "txid": "63fff37577e53dbc09ee220f8490763b7b231e46c3ffc53922f676f2d2861206"}, {"txinwitness": ["3044022063b27cf397290e0fa51caffc136c611d0bb9f6ca4a39f683a6df0e648b00e0f30220237a6870487b7214ddf33c60f4f7ff7134eb992fa8ba9d6cf5f90977a79bb5a901", "02c40353063280ecb22d30d1cfc6d63c1043f296d16d7d781cb9b58d3fa844c128"], "sequence": 4294967294, "scriptSig": {"hex": "16001426f63cdd473cf5dec04fd0e52b487f2e5469b960", "asm": "001426f63cdd473cf5dec04fd0e52b487f2e5469b960"}, "vout": 24, "txid": "75015b87ba6edcfe9b36420b67e1ecaf9e5a4cd60be4bd549e2e371d4a87a9ad"}], "txid": "6315b8ef20e1b2c32171fa545df7acecd14521b8508fa6ca5e5c20a9b3863d05", "blocktime": 1537869901, "version": 2, "confirmations": 11522, "time": 1537869901, "locktime": 542987, "vsize": 259, "size": 421}