{"hash": "6319658310cdb27eb6d229b6952b47d5f8cc5cd606b09270c52d95a5d5e5db7a", "blockhash": "00000000000000000018f53835495a110e01622372bf6ae95dc86f2b0ab887b0", "vout": [{"scriptPubKey": {"reqSigs": 1, "hex": "a91403b01e855976f691f57ecf0073536c154a4d151e87", "addresses": ["322Ww6bh2ZbthoAE97TBgFmMdzUk5UgVoX"], "asm": "OP_HASH160 03b01e855976f691f57ecf0073536c154a4d151e OP_EQUAL", "type": "scripthash"}, "value": 0.0769615, "n": 0}, {"scriptPubKey": {"reqSigs": 1, "hex": "76a9148531de153a7191acbd6011149adb3ebb91430d2f88ac", "addresses": ["1D9GcNPvLDaaEu4rXakNAEQC6Sz2kcS32d"], "asm": "OP_DUP OP_HASH160 8531de153a7191acbd6011149adb3ebb91430d2f OP_EQUALVERIFY OP_CHECKSIG", "type": "pubkeyhash"}, "value": 0.00090302, "n": 1}], "hex": "0100000001e947b8c2ea3efc86106eaa7f153c2c1ac696ed886b226e529c0975cad5dbabad1d000000db00483045022100e8a6583a1d59c691b29ba3e3b5083d107be3372318765801d9da697787a3040c02204dc255dc43bfd1b136b74b405572c893dae9927274370375244e247b59fb0e0401483045022100af8b38dc06477bf9b9921afbdbe89a8b516a0fca2e403d72a7367abc50425a5d022066ad87cbad4803bc54e6cc221d4ad199606896c2c508d6c1bfdb75468981a04e01475221026b9dca118e159b6d7f97894449df41ab7530fdebeaba42e4678f6b8c1439436a2102907a54bed8ad74b3f35638c60114ca240a308cb986f3f2f306178869a8880b6152aeffffffff02166f75000000000017a91403b01e855976f691f57ecf0073536c154a4d151e87be600100000000001976a9148531de153a7191acbd6011149adb3ebb91430d2f88ac00000000", "vin": [{"sequence": 4294967295, "scriptSig": {"hex": "00483045022100e8a6583a1d59c691b29ba3e3b5083d107be3372318765801d9da697787a3040c02204dc255dc43bfd1b136b74b405572c893dae9927274370375244e247b59fb0e0401483045022100af8b38dc06477bf9b9921afbdbe89a8b516a0fca2e403d72a7367abc50425a5d022066ad87cbad4803bc54e6cc221d4ad199606896c2c508d6c1bfdb75468981a04e01475221026b9dca118e159b6d7f97894449df41ab7530fdebeaba42e4678f6b8c1439436a2102907a54bed8ad74b3f35638c60114ca240a308cb986f3f2f306178869a8880b6152ae", "asm": "0 3045022100e8a6583a1d59c691b29ba3e3b5083d107be3372318765801d9da697787a3040c02204dc255dc43bfd1b136b74b405572c893dae9927274370375244e247b59fb0e04[ALL] 3045022100af8b38dc06477bf9b9921afbdbe89a8b516a0fca2e403d72a7367abc50425a5d022066ad87cbad4803bc54e6cc221d4ad199606896c2c508d6c1bfdb75468981a04e[ALL] 5221026b9dca118e159b6d7f97894449df41ab7530fdebeaba42e4678f6b8c1439436a2102907a54bed8ad74b3f35638c60114ca240a308cb986f3f2f306178869a8880b6152ae"}, "vout": 29, "txid": "adabdbd5ca75099c526e226b88ed96c61a2c3c157faa6e1086fc3eeac2b847e9"}], "txid": "6319658310cdb27eb6d229b6952b47d5f8cc5cd606b09270c52d95a5d5e5db7a", "blocktime": 1537870928, "version": 1, "confirmations": 11512, "time": 1537870928, "locktime": 0, "vsize": 336, "size": 336}