{"hash": "631c6c47622ec74a2080ddc623693a2a2ae88708d14e325cd3a6c5f2deda8cbd", "blockhash": "000000000000000000022b45ed06c6f4ccd3cf7fb5ba4856ebd2e58215665228", "vout": [{"scriptPubKey": {"reqSigs": 1, "hex": "76a9143387b8c391e2b1c5f570386ddecf01de6093ca4488ac", "addresses": ["15hU3ttykkxbmEmre6ByMCw7ZCUZKj6yW6"], "asm": "OP_DUP OP_HASH160 3387b8c391e2b1c5f570386ddecf01de6093ca44 OP_EQUALVERIFY OP_CHECKSIG", "type": "pubkeyhash"}, "value": 0.06862385, "n": 0}, {"scriptPubKey": {"reqSigs": 1, "hex": "76a9143fa9050068efd466ddf267d42869bee08245324988ac", "addresses": ["16oc3manME8D6fWUAc3SurjVjrJdV1nxH3"], "asm": "OP_DUP OP_HASH160 3fa9050068efd466ddf267d42869bee082453249 OP_EQUALVERIFY OP_CHECKSIG", "type": "pubkeyhash"}, "value": 0.00473516, "n": 1}], "hex": "010000000143ab1d2928149706fc231e3a4bd4c5189803c25520ff1c1121811096a360e598040000008a47304402207668b3dd8c156b9cf7506a40ecffc858949acbfad1a210df0fb81be95befcece02204fc0f7b58adb3990e3f3c58269176015e0705bb87090156d9786a310ad7032320141044ca256375348e3abff1c3576faa1c810cca579aa942b5d6916d2e3692f4936ebafa05d48a89243427626a05632e7346c6973e870e44a79d41b0c800130cf343effffffff0231b66800000000001976a9143387b8c391e2b1c5f570386ddecf01de6093ca4488acac390700000000001976a9143fa9050068efd466ddf267d42869bee08245324988ac00000000", "vin": [{"sequence": 4294967295, "scriptSig": {"hex": "47304402207668b3dd8c156b9cf7506a40ecffc858949acbfad1a210df0fb81be95befcece02204fc0f7b58adb3990e3f3c58269176015e0705bb87090156d9786a310ad7032320141044ca256375348e3abff1c3576faa1c810cca579aa942b5d6916d2e3692f4936ebafa05d48a89243427626a05632e7346c6973e870e44a79d41b0c800130cf343e", "asm": "304402207668b3dd8c156b9cf7506a40ecffc858949acbfad1a210df0fb81be95befcece02204fc0f7b58adb3990e3f3c58269176015e0705bb87090156d9786a310ad703232[ALL] 044ca256375348e3abff1c3576faa1c810cca579aa942b5d6916d2e3692f4936ebafa05d48a89243427626a05632e7346c6973e870e44a79d41b0c800130cf343e"}, "vout": 4, "txid": "98e560a396108121111cff2055c2039818c5d44b3a1e23fc06971428291dab43"}], "txid": "631c6c47622ec74a2080ddc623693a2a2ae88708d14e325cd3a6c5f2deda8cbd", "blocktime": 1537869901, "version": 1, "confirmations": 11522, "time": 1537869901, "locktime": 0, "vsize": 257, "size": 257}