{"hash": "631e8bdf24678149616e923c8023bd40907766af3354eddea55306d28e243289", "blockhash": "0000000000000000001cda96e906b7601b7a6fb1a3b62bca570a9e5d8f4b3de1", "vout": [{"scriptPubKey": {"reqSigs": 1, "hex": "76a914cf0f0b6ac1ff7265a07598465f506fe1204a768a88ac", "addresses": ["1Kspu2W3HtVZmyb2yxioX2L3A87VjdW5tX"], "asm": "OP_DUP OP_HASH160 cf0f0b6ac1ff7265a07598465f506fe1204a768a OP_EQUALVERIFY OP_CHECKSIG", "type": "pubkeyhash"}, "value": 0.00030366, "n": 0}, {"scriptPubKey": {"reqSigs": 1, "hex": "76a914b94a1e4cfa426b06819c82a8ac3057ebbd6bef0588ac", "addresses": ["1HtioKibBxVb3DXARzRtR41aeSwxQNwGx7"], "asm": "OP_DUP OP_HASH160 b94a1e4cfa426b06819c82a8ac3057ebbd6bef05 OP_EQUALVERIFY OP_CHECKSIG", "type": "pubkeyhash"}, "value": 0.00156138, "n": 1}], "hex": "0100000003eb10460af4ecbed218a2caa4fe1e26826e704819db03547c58b2d7df0147418f000000006b483045022100b2826311eaf80d5dba6509d83a0f849207673b251251ddc59669635694abf7da02206274c33c6963c004f4c42aa487befd11eaebdd9b344fd8c586ddfc990fd2d6f101210212387fdb3c0e37d6cd7ebddf59978e5a6bc986ef2b8abfb0ef74cef51c66c7a1ffffffff2ed4e1a301922f4f4608f5e8b79cc312f4f4491df76d5d5cf9294e3a1be4feca000000006b483045022100bd3b3ed4823217ea730b6d0493eebcbf52ead3b804af8fed78c1cc1ba51a9941022032bf2fc2ed4c21ae335c8e08a9db888e31221675f90c5ce46fb1d70bd158bc6001210212387fdb3c0e37d6cd7ebddf59978e5a6bc986ef2b8abfb0ef74cef51c66c7a1ffffffff362baa0193757ff2170c4ca7f42abcc0ead2cdcb979a8beea8718e7859c4d1db000000006b483045022100e0c4c12ea57219ab50f3d6baa0ee60fac08f99570840b1f71c2519d69480bf64022066d856662195458cc47192d50749edbee49e4cc99594266e3eb6754d87e18f0e01210212387fdb3c0e37d6cd7ebddf59978e5a6bc986ef2b8abfb0ef74cef51c66c7a1ffffffff029e760000000000001976a914cf0f0b6ac1ff7265a07598465f506fe1204a768a88acea610200000000001976a914b94a1e4cfa426b06819c82a8ac3057ebbd6bef0588ac00000000", "vin": [{"sequence": 4294967295, "scriptSig": {"hex": "483045022100b2826311eaf80d5dba6509d83a0f849207673b251251ddc59669635694abf7da02206274c33c6963c004f4c42aa487befd11eaebdd9b344fd8c586ddfc990fd2d6f101210212387fdb3c0e37d6cd7ebddf59978e5a6bc986ef2b8abfb0ef74cef51c66c7a1", "asm": "3045022100b2826311eaf80d5dba6509d83a0f849207673b251251ddc59669635694abf7da02206274c33c6963c004f4c42aa487befd11eaebdd9b344fd8c586ddfc990fd2d6f1[ALL] 0212387fdb3c0e37d6cd7ebddf59978e5a6bc986ef2b8abfb0ef74cef51c66c7a1"}, "vout": 0, "txid": "8f414701dfd7b2587c5403db1948706e82261efea4caa218d2beecf40a4610eb"}, {"sequence": 4294967295, "scriptSig": {"hex": "483045022100bd3b3ed4823217ea730b6d0493eebcbf52ead3b804af8fed78c1cc1ba51a9941022032bf2fc2ed4c21ae335c8e08a9db888e31221675f90c5ce46fb1d70bd158bc6001210212387fdb3c0e37d6cd7ebddf59978e5a6bc986ef2b8abfb0ef74cef51c66c7a1", "asm": "3045022100bd3b3ed4823217ea730b6d0493eebcbf52ead3b804af8fed78c1cc1ba51a9941022032bf2fc2ed4c21ae335c8e08a9db888e31221675f90c5ce46fb1d70bd158bc60[ALL] 0212387fdb3c0e37d6cd7ebddf59978e5a6bc986ef2b8abfb0ef74cef51c66c7a1"}, "vout": 0, "txid": "cafee41b3a4e29f95c5d6df71d49f4f412c39cb7e8f508464f2f9201a3e1d42e"}, {"sequence": 4294967295, "scriptSig": {"hex": "483045022100e0c4c12ea57219ab50f3d6baa0ee60fac08f99570840b1f71c2519d69480bf64022066d856662195458cc47192d50749edbee49e4cc99594266e3eb6754d87e18f0e01210212387fdb3c0e37d6cd7ebddf59978e5a6bc986ef2b8abfb0ef74cef51c66c7a1", "asm": "3045022100e0c4c12ea57219ab50f3d6baa0ee60fac08f99570840b1f71c2519d69480bf64022066d856662195458cc47192d50749edbee49e4cc99594266e3eb6754d87e18f0e[ALL] 0212387fdb3c0e37d6cd7ebddf59978e5a6bc986ef2b8abfb0ef74cef51c66c7a1"}, "vout": 0, "txid": "dbd1c459788e71a8ee8b9a97cbcdd2eac0bc2af4a74c0c17f27f759301aa2b36"}], "txid": "631e8bdf24678149616e923c8023bd40907766af3354eddea55306d28e243289", "blocktime": 1537873282, "version": 1, "confirmations": 11485, "time": 1537873282, "locktime": 0, "vsize": 522, "size": 522}