{"hash": "632519180375637efcd5d1e543fb54a1ecac69695645d03af4250b003b1361f4", "blockhash": "0000000000000000000baef3f32e3676a92c3b2e5da21b426e4f302fc371ce76", "vout": [{"scriptPubKey": {"reqSigs": 1, "hex": "76a91492c76088fa179f9acf703ced26902190b98140da88ac", "addresses": ["1EP6VyHA8tcQkWS5NUnisFsiQNGf2S739J"], "asm": "OP_DUP OP_HASH160 92c76088fa179f9acf703ced26902190b98140da OP_EQUALVERIFY OP_CHECKSIG", "type": "pubkeyhash"}, "value": 0.0304144, "n": 0}, {"scriptPubKey": {"reqSigs": 1, "hex": "76a9148e96e237619b23e979f31aec67155c5c8286d94f88ac", "addresses": ["1DzwhpaGqcS1d7hGgnjt27pYqD7HGUtivx"], "asm": "OP_DUP OP_HASH160 8e96e237619b23e979f31aec67155c5c8286d94f OP_EQUALVERIFY OP_CHECKSIG", "type": "pubkeyhash"}, "value": 0.046524, "n": 1}], "hex": "01000000018d98cd85ba35c99529a9913bd6a7b41df2f93963aaa3e4b76ab56f076be8900a010000006a473044022024004b382aa7977a2f5d73a7134fff8748a72b4338a84f9e622c60800dd52170022068bebe5772fd2ba3d39e92cdc06d608801137839bb1e7a2926a9db0becb8a3eb0121037a977dbd73803c6a5aa222ca801e6e144fd2849260c8224dfef35e470f12fa6bffffffff02a0682e00000000001976a91492c76088fa179f9acf703ced26902190b98140da88ac70fd4600000000001976a9148e96e237619b23e979f31aec67155c5c8286d94f88ac00000000", "vin": [{"sequence": 4294967295, "scriptSig": {"hex": "473044022024004b382aa7977a2f5d73a7134fff8748a72b4338a84f9e622c60800dd52170022068bebe5772fd2ba3d39e92cdc06d608801137839bb1e7a2926a9db0becb8a3eb0121037a977dbd73803c6a5aa222ca801e6e144fd2849260c8224dfef35e470f12fa6b", "asm": "3044022024004b382aa7977a2f5d73a7134fff8748a72b4338a84f9e622c60800dd52170022068bebe5772fd2ba3d39e92cdc06d608801137839bb1e7a2926a9db0becb8a3eb[ALL] 037a977dbd73803c6a5aa222ca801e6e144fd2849260c8224dfef35e470f12fa6b"}, "vout": 1, "txid": "0a90e86b076fb56ab7e4a3aa6339f9f21db4a7d63b91a92995c935ba85cd988d"}], "txid": "632519180375637efcd5d1e543fb54a1ecac69695645d03af4250b003b1361f4", "blocktime": 1537876114, "version": 1, "confirmations": 11460, "time": 1537876114, "locktime": 0, "vsize": 225, "size": 225}