{"hash": "e903f050e5be70ca8fe39a67ec2f7da810498ccde2aee423bc5565c879af0bec", "blockhash": "0000000000000000001f76057863aec43deb6fa401d9628bb513d65a8098bfab", "vout": [{"scriptPubKey": {"reqSigs": 1, "hex": "76a9142b2fef46be00feb01e57ffb1f4f2877bee14cfd188ac", "addresses": ["14wMUoskZDiygjgR6tiLR4gND63gJYrq12"], "asm": "OP_DUP OP_HASH160 2b2fef46be00feb01e57ffb1f4f2877bee14cfd1 OP_EQUALVERIFY OP_CHECKSIG", "type": "pubkeyhash"}, "value": 0.05046837, "n": 0}, {"scriptPubKey": {"reqSigs": 1, "hex": "a9146a6da66ae978f0a45512c9df7d9e6a6267370def87", "addresses": ["3BPkuVqws68jwvxejt6bKT8MFoPYPNA9Su"], "asm": "OP_HASH160 6a6da66ae978f0a45512c9df7d9e6a6267370def OP_EQUAL", "type": "scripthash"}, "value": 0.6237087, "n": 1}], "hex": "02000000000101c0c01c43bb0d83720ea3c6fb3c08bed9ef77894d9ef706a4a87d3784c0d3a5760000000017160014e2e4caf5b7511134f8c9606d81c0e6d6a0a196ddfeffffff0235024d00000000001976a9142b2fef46be00feb01e57ffb1f4f2877bee14cfd188ac36b4b7030000000017a9146a6da66ae978f0a45512c9df7d9e6a6267370def8702473044022036cad87c905f009a7c4670de98b7d3279dc1b6a2008ccdd7b32ef4097a15e8e702200fdc8f53b73d106dc04eacf34796f11da8370445f06cab6b64193324bebdf5f001210329dcc62ace04f5b83b1b7942844987c98a826c3ebc03f67863ee129ca4fb8fa207490800", "vin": [{"txinwitness": ["3044022036cad87c905f009a7c4670de98b7d3279dc1b6a2008ccdd7b32ef4097a15e8e702200fdc8f53b73d106dc04eacf34796f11da8370445f06cab6b64193324bebdf5f001", "0329dcc62ace04f5b83b1b7942844987c98a826c3ebc03f67863ee129ca4fb8fa2"], "sequence": 4294967294, "scriptSig": {"hex": "160014e2e4caf5b7511134f8c9606d81c0e6d6a0a196dd", "asm": "0014e2e4caf5b7511134f8c9606d81c0e6d6a0a196dd"}, "vout": 0, "txid": "76a5d3c084377da8a406f79e4d8977efd9be083cfbc6a30e72830dbb431cc0c0"}], "txid": "63291c61a29b9a4530eeaadccfb3c6bd510cb85c5fae5d30b97330e0694c1856", "blocktime": 1537873891, "version": 2, "confirmations": 11478, "time": 1537873891, "locktime": 542983, "vsize": 168, "size": 249}