{"hash": "9df88863699a4e757b4a076ca0d569e4df25102dd070b91a50e3f7a7c009ab34", "blockhash": "0000000000000000001f76057863aec43deb6fa401d9628bb513d65a8098bfab", "vout": [{"scriptPubKey": {"reqSigs": 1, "hex": "76a9149301c6dd7c72a7e8846e993351f16cd731af32b888ac", "addresses": ["1EQJTexhd2FH93BNnuDVViPWxvF9aYfKn2"], "asm": "OP_DUP OP_HASH160 9301c6dd7c72a7e8846e993351f16cd731af32b8 OP_EQUALVERIFY OP_CHECKSIG", "type": "pubkeyhash"}, "value": 0.009046, "n": 0}, {"scriptPubKey": {"reqSigs": 1, "hex": "a914ef225e616d6f0c29c2f16f459833e30a0fa5ff8987", "addresses": ["3PVSbNL7P6Tv3BaRkFdQFc22qwaQG8ZxjT"], "asm": "OP_HASH160 ef225e616d6f0c29c2f16f459833e30a0fa5ff89 OP_EQUAL", "type": "scripthash"}, "value": 0.0034705, "n": 1}], "hex": "02000000000101fbf15b7e03211ad855f9010b99d0bc4d021cf57ba8a41309657a5950cccad6fe01000000171600141e68dc352687e6b13089eb60be716dd5c5759172fdffffff0298cd0d00000000001976a9149301c6dd7c72a7e8846e993351f16cd731af32b888acaa4b05000000000017a914ef225e616d6f0c29c2f16f459833e30a0fa5ff898702473044022034342208d10b6165bdc51247bcf71ee9fe84f86e22ada74fab32972a7ef8400c02202cf317fc83a2de676ea36b4e2deb0653b7fec3ba43bf3baee69d783ecb815878012103229d8cab1af80696609c4ac95efe4a65de5dd7efa94fc34330c4ffdf161e409514490800", "vin": [{"txinwitness": ["3044022034342208d10b6165bdc51247bcf71ee9fe84f86e22ada74fab32972a7ef8400c02202cf317fc83a2de676ea36b4e2deb0653b7fec3ba43bf3baee69d783ecb81587801", "03229d8cab1af80696609c4ac95efe4a65de5dd7efa94fc34330c4ffdf161e4095"], "sequence": 4294967293, "scriptSig": {"hex": "1600141e68dc352687e6b13089eb60be716dd5c5759172", "asm": "00141e68dc352687e6b13089eb60be716dd5c5759172"}, "vout": 1, "txid": "fed6cacc50597a650913a4a87bf51c024dbcd0990b01f955d81a21037e5bf1fb"}], "txid": "63297738ea10f290db848998be16df7ac8236b1113214dc93d7cf6e579e214df", "blocktime": 1537873891, "version": 2, "confirmations": 11474, "time": 1537873891, "locktime": 542996, "vsize": 168, "size": 249}