{"hash": "633ee38c005e3b133b0a63c5db02be390f1e79dfa82e100e4712899c1e56dd6b", "blockhash": "00000000000000000004ffacab907a6b429b9a5745fa0b75af4234bf69dd7176", "vout": [{"scriptPubKey": {"reqSigs": 1, "hex": "a914312ca91f507935ac5673ee443afb6671a6d31e3087", "addresses": ["36B2Y23AGAhaH5dtexQBQmZKQkXtJvEDe5"], "asm": "OP_HASH160 312ca91f507935ac5673ee443afb6671a6d31e30 OP_EQUAL", "type": "scripthash"}, "value": 0.00497145, "n": 0}, {"scriptPubKey": {"reqSigs": 1, "hex": "76a9144841703c01e6e4f52e57e9c359485a03f5ed66d788ac", "addresses": ["17b43Z41XktNMtYaQAeZcj4aAsT5d7tiVT"], "asm": "OP_DUP OP_HASH160 4841703c01e6e4f52e57e9c359485a03f5ed66d7 OP_EQUALVERIFY OP_CHECKSIG", "type": "pubkeyhash"}, "value": 0.11098889, "n": 1}], "hex": "0100000001ca2ef1f8fcbf1d13a1c69b8854a58a3447f79e30f154eaf0ba15ad79176d089f010000006a47304402206fa0e9ddd1010e1f5d530ae9a02e78b8d735ee25c5f224876143e1fcfbf2c311022030b26dd53ee740fc5bc1b33f51dbbace3d18dd65f9e8c39c854d241fcf6fa65b0121039664361c175a5b0e78ff8fc03a25c02c17ab04e5add7f83534967d3bc12c7eafffffffff02f99507000000000017a914312ca91f507935ac5673ee443afb6671a6d31e3087095ba900000000001976a9144841703c01e6e4f52e57e9c359485a03f5ed66d788ac00000000", "vin": [{"sequence": 4294967295, "scriptSig": {"hex": "47304402206fa0e9ddd1010e1f5d530ae9a02e78b8d735ee25c5f224876143e1fcfbf2c311022030b26dd53ee740fc5bc1b33f51dbbace3d18dd65f9e8c39c854d241fcf6fa65b0121039664361c175a5b0e78ff8fc03a25c02c17ab04e5add7f83534967d3bc12c7eaf", "asm": "304402206fa0e9ddd1010e1f5d530ae9a02e78b8d735ee25c5f224876143e1fcfbf2c311022030b26dd53ee740fc5bc1b33f51dbbace3d18dd65f9e8c39c854d241fcf6fa65b[ALL] 039664361c175a5b0e78ff8fc03a25c02c17ab04e5add7f83534967d3bc12c7eaf"}, "vout": 1, "txid": "9f086d1779ad15baf0ea54f1309ef747348aa554889bc6a1131dbffcf8f12eca"}], "txid": "633ee38c005e3b133b0a63c5db02be390f1e79dfa82e100e4712899c1e56dd6b", "blocktime": 1537875543, "version": 1, "confirmations": 11464, "time": 1537875543, "locktime": 0, "vsize": 223, "size": 223}