{"hash": "d98018f20c975efbb2a557a2c83116713d9350f5d3f8309a66b731ce63a352a4", "blockhash": "000000000000000000022b45ed06c6f4ccd3cf7fb5ba4856ebd2e58215665228", "vout": [{"scriptPubKey": {"reqSigs": 1, "hex": "76a9146dca3d8454cdd2f0f1078f9fe1a7441238680c3288ac", "addresses": ["1B1Wvp6Mw5EezWbhWKgVDXnZG11oDKkBe9"], "asm": "OP_DUP OP_HASH160 6dca3d8454cdd2f0f1078f9fe1a7441238680c32 OP_EQUALVERIFY OP_CHECKSIG", "type": "pubkeyhash"}, "value": 0.0397, "n": 0}, {"scriptPubKey": {"reqSigs": 1, "hex": "a91463d9cd7e7bf1cea60e8946e1dcbe5d119a9944de87", "addresses": ["3AnyjjSsaGvpuc7ELw2xdic3QAxDsKJatZ"], "asm": "OP_HASH160 63d9cd7e7bf1cea60e8946e1dcbe5d119a9944de OP_EQUAL", "type": "scripthash"}, "value": 9.17e-05, "n": 1}], "hex": "0100000000010233b58d1c51ffdc1deb16b2d796f915c74b24a1afea5dc338429248e7b8e394fe000000002322002047cf4cf3635f9a2d0d706568b17249bb97614e1a4184369496549ca9abeb4da4ffffffffa4db2c162f57bafc87b3f18e3534a2e7391dbfb6c8339d031b0cfcb88b873ead00000000fdfd0000483045022100ce149142845494c9dcc942d5fe30de2638097342e03967b23ed4e148632cfc7d02207c528caa85d4cef75e51d6c4f0b73b2209d944dd3fc68e1b13e5a779dd0f07d101473044022009758fcdeb8aa699ac14e6b3be5730e536bc0b260429fedb54cbdbdadd75ff1e02204255979273502567fca905972249803122567df20ccb833defdd53c07b8a522f014c695221020fe8636a9bca4119db2d5f117c0b2f6726e3c5e84959f3376f1511a6ce97c69f21024e05d607860f6c6309e80bbbcef26fbed67644b531b10d553dcdb07fd31242362102ebf4105a638550d43385f0debac61b6191e7639202abf991415e6d1437d320c753aeffffffff02d0933c00000000001976a9146dca3d8454cdd2f0f1078f9fe1a7441238680c3288acd22300000000000017a91463d9cd7e7bf1cea60e8946e1dcbe5d119a9944de87040048304502210081a34d679dfa708e98d32c073448350556eb615e3900385a03dcdeb7ae8a52ae02204de2a0ae107039e3631f29373c1004978d725b5ac0e9cc5b4a355969af353df30148304502210096d87fc407767bad9ddcf125d15aeeed36fe26f4af35ca26a4acab893ab448d002201174b4e51000ac10e2672b95a0d296f721a0e5e755cae0e381d672dd61dc0d6d016952210220c14efdd65c0fda9a2939c60a5f38e269f7c5875e36925adfeba010b1765aa72102a516946ef0955b4d0b43199df7769b1204fcf900f59de7cacc181f0a62349a532102afe5ab72cc21d7e09fa3d92b2d4ed19d86ef06a2dc2cc48aa73f82af8f27e31a53ae0000000000", "vin": [{"txinwitness": ["", "304502210081a34d679dfa708e98d32c073448350556eb615e3900385a03dcdeb7ae8a52ae02204de2a0ae107039e3631f29373c1004978d725b5ac0e9cc5b4a355969af353df301", "304502210096d87fc407767bad9ddcf125d15aeeed36fe26f4af35ca26a4acab893ab448d002201174b4e51000ac10e2672b95a0d296f721a0e5e755cae0e381d672dd61dc0d6d01", "52210220c14efdd65c0fda9a2939c60a5f38e269f7c5875e36925adfeba010b1765aa72102a516946ef0955b4d0b43199df7769b1204fcf900f59de7cacc181f0a62349a532102afe5ab72cc21d7e09fa3d92b2d4ed19d86ef06a2dc2cc48aa73f82af8f27e31a53ae"], "sequence": 4294967295, "scriptSig": {"hex": "22002047cf4cf3635f9a2d0d706568b17249bb97614e1a4184369496549ca9abeb4da4", "asm": "002047cf4cf3635f9a2d0d706568b17249bb97614e1a4184369496549ca9abeb4da4"}, "vout": 0, "txid": "fe94e3b8e748924238c35deaafa1244bc715f996d7b216eb1ddcff511c8db533"}, {"sequence": 4294967295, "scriptSig": {"hex": "00483045022100ce149142845494c9dcc942d5fe30de2638097342e03967b23ed4e148632cfc7d02207c528caa85d4cef75e51d6c4f0b73b2209d944dd3fc68e1b13e5a779dd0f07d101473044022009758fcdeb8aa699ac14e6b3be5730e536bc0b260429fedb54cbdbdadd75ff1e02204255979273502567fca905972249803122567df20ccb833defdd53c07b8a522f014c695221020fe8636a9bca4119db2d5f117c0b2f6726e3c5e84959f3376f1511a6ce97c69f21024e05d607860f6c6309e80bbbcef26fbed67644b531b10d553dcdb07fd31242362102ebf4105a638550d43385f0debac61b6191e7639202abf991415e6d1437d320c753ae", "asm": "0 3045022100ce149142845494c9dcc942d5fe30de2638097342e03967b23ed4e148632cfc7d02207c528caa85d4cef75e51d6c4f0b73b2209d944dd3fc68e1b13e5a779dd0f07d1[ALL] 3044022009758fcdeb8aa699ac14e6b3be5730e536bc0b260429fedb54cbdbdadd75ff1e02204255979273502567fca905972249803122567df20ccb833defdd53c07b8a522f[ALL] 5221020fe8636a9bca4119db2d5f117c0b2f6726e3c5e84959f3376f1511a6ce97c69f21024e05d607860f6c6309e80bbbcef26fbed67644b531b10d553dcdb07fd31242362102ebf4105a638550d43385f0debac61b6191e7639202abf991415e6d1437d320c753ae"}, "vout": 0, "txid": "ad3e878bb8fc0c1b039d33c8b6bf1d39e7a234358ef1b387fcba572f162cdba4"}], "txid": "6340382ccbc350ff828330317bb9c99989967498c1e12004d2ccbc32e1e0b400", "blocktime": 1537869901, "version": 1, "confirmations": 11523, "time": 1537869901, "locktime": 0, "vsize": 513, "size": 705}