{"hash": "62c19d3e5072c809cfbf396158b2550a693cea43755570021e32c3992f72a456", "blockhash": "0000000000000000000e13cef7c366c0283d82e591d1acd082e914b08063cdf1", "vout": [{"scriptPubKey": {"reqSigs": 1, "hex": "a91418eda52024b7a03a4f86abb7a861f9c04ec233f287", "addresses": ["33xpq1isu9ujUkE75HMg8nScS4XNSkf4Nh"], "asm": "OP_HASH160 18eda52024b7a03a4f86abb7a861f9c04ec233f2 OP_EQUAL", "type": "scripthash"}, "value": 9.16e-05, "n": 0}], "hex": "01000000000101483718450afea83d65185235e2c059f4e9be33d040c3e1e3b9338d3cf4d9d3e601000000171600147ef4926fb0695a779171527b00b960bd4c82af45ffffff0001c82300000000000017a91418eda52024b7a03a4f86abb7a861f9c04ec233f2870247304402207ce8048e08c551219096134d1062e2f8e19742364f9dfe16385ed09cb49c2655022028a32fb92cba28365cd9097a416c689d4638ee49e9d9a5c9710cad938d8c19b601210257ccd8bc2d7edfbd6f8cb7686e9443496e1b92a881bce65433afc622b2cafbda00000000", "vin": [{"txinwitness": ["304402207ce8048e08c551219096134d1062e2f8e19742364f9dfe16385ed09cb49c2655022028a32fb92cba28365cd9097a416c689d4638ee49e9d9a5c9710cad938d8c19b601", "0257ccd8bc2d7edfbd6f8cb7686e9443496e1b92a881bce65433afc622b2cafbda"], "sequence": 16777215, "scriptSig": {"hex": "1600147ef4926fb0695a779171527b00b960bd4c82af45", "asm": "00147ef4926fb0695a779171527b00b960bd4c82af45"}, "vout": 1, "txid": "e6d3d9f43c8d33b9e3e1c340d033bee9f459c0e2355218653da8fe0a45183748"}], "txid": "6345f52aa34be7bf14668ea4815c2168b7bff99e335a28206c2f729bed22adc1", "blocktime": 1537871767, "version": 1, "confirmations": 11495, "time": 1537871767, "locktime": 0, "vsize": 134, "size": 215}