{"hash": "b4889b2529ac9ca8dcd33e40a9dd62363cbb561b28840e2cb28156662c354252", "blockhash": "0000000000000000000baef3f32e3676a92c3b2e5da21b426e4f302fc371ce76", "vout": [{"scriptPubKey": {"reqSigs": 1, "hex": "a9142667e28007df52564cc10aa93d6e466a5d1c5ce287", "addresses": ["35C63scNEH51rchJ4ewJiUZ9QziRjEPp7d"], "asm": "OP_HASH160 2667e28007df52564cc10aa93d6e466a5d1c5ce2 OP_EQUAL", "type": "scripthash"}, "value": 0.01036704, "n": 0}, {"scriptPubKey": {"reqSigs": 1, "hex": "76a914bbaec083b5e6b2619a44122d11954d363152fd0488ac", "addresses": ["1J7NhraWXwxB5EzsPgHjvHxXqAAYgWV397"], "asm": "OP_DUP OP_HASH160 bbaec083b5e6b2619a44122d11954d363152fd04 OP_EQUALVERIFY OP_CHECKSIG", "type": "pubkeyhash"}, "value": 0.0031106, "n": 1}], "hex": "02000000000102845ac6b82dd65e45fc590dc782116b93686c94b3db34e14e739cbd22beb911630100000017160014a27a6cc6c97f3584c9c13ae6ef21ffc3a6925ccafeffffff9b6d510d3c38835fdb3ac3f2fa72349126bbaa31192f5ab5124455823a74a2131300000017160014f721c1a755bae8e346d2d5e20c664a60c9ef9037feffffff02a0d10f000000000017a9142667e28007df52564cc10aa93d6e466a5d1c5ce28714bf0400000000001976a914bbaec083b5e6b2619a44122d11954d363152fd0488ac02473044022024adfca91ee4dce28b6c0e304d06ca1b5937089a2941fc68de07fd448a2f1bc9022015fc61b8efb759cbbc18c8193b1944b672393129798cf5836253619a9aeb73c7012102d845b64bb7f36b362c68ea745c08e2cc0c3aac47245b8d53d34a64c49876b42702483045022100ed86c59c41c50661e5a3d5cbf9fcd98b2c04d0164a496ae48c701e34d24fb4cc02203b30384d79b4407c6af91f34307518f888d71dbec521450ed0bc1c53b35820a701210322d29af87e215829dbbf425011ea5554000df5f7a6645e0ce370539d83d4387cf1480800", "vin": [{"txinwitness": ["3044022024adfca91ee4dce28b6c0e304d06ca1b5937089a2941fc68de07fd448a2f1bc9022015fc61b8efb759cbbc18c8193b1944b672393129798cf5836253619a9aeb73c701", "02d845b64bb7f36b362c68ea745c08e2cc0c3aac47245b8d53d34a64c49876b427"], "sequence": 4294967294, "scriptSig": {"hex": "160014a27a6cc6c97f3584c9c13ae6ef21ffc3a6925cca", "asm": "0014a27a6cc6c97f3584c9c13ae6ef21ffc3a6925cca"}, "vout": 1, "txid": "6311b9be22bd9c734ee134dbb3946c68936b1182c70d59fc455ed62db8c65a84"}, {"txinwitness": ["3045022100ed86c59c41c50661e5a3d5cbf9fcd98b2c04d0164a496ae48c701e34d24fb4cc02203b30384d79b4407c6af91f34307518f888d71dbec521450ed0bc1c53b35820a701", "0322d29af87e215829dbbf425011ea5554000df5f7a6645e0ce370539d83d4387c"], "sequence": 4294967294, "scriptSig": {"hex": "160014f721c1a755bae8e346d2d5e20c664a60c9ef9037", "asm": "0014f721c1a755bae8e346d2d5e20c664a60c9ef9037"}, "vout": 19, "txid": "13a2743a82554412b55a2f1931aabb26913472faf2c33adb5f83383c0d516d9b"}], "txid": "634d3530c2e7afc158eedc4f123ef842a7d51083e7be42b14fdcb62c2ba84290", "blocktime": 1537876114, "version": 2, "confirmations": 11462, "time": 1537876114, "locktime": 542961, "vsize": 259, "size": 421}