{"hash": "71cabe5730301596d27b50419f1b8af433256ec94e1e5a673583082856093d8e", "blockhash": "0000000000000000001e0dab787dd257d1dbfcb92a98c2207d5e1078be1f4165", "vout": [{"scriptPubKey": {"reqSigs": 1, "hex": "76a9145a7081c27cd19fd83bc731e3079b9df0de03065b88ac", "addresses": ["19FCbP1ESHWfL9QBmfn3REhkNAAnLKyTcL"], "asm": "OP_DUP OP_HASH160 5a7081c27cd19fd83bc731e3079b9df0de03065b OP_EQUALVERIFY OP_CHECKSIG", "type": "pubkeyhash"}, "value": 0.31248926, "n": 0}, {"scriptPubKey": {"reqSigs": 1, "hex": "a9144350d7628469fda29dfd80f32096928acd30850e87", "addresses": ["37px3MMDVYiTw7vui8KbLZGxno1H95VaVm"], "asm": "OP_HASH160 4350d7628469fda29dfd80f32096928acd30850e OP_EQUAL", "type": "scripthash"}, "value": 0.08460831, "n": 1}], "hex": "01000000000111dcb230856a58e7c640a6bdc9af3ca47fb965223c384b9910661bdbc8f68fb62c0000000023220020dc01f8025fea3957bc0cbb93313927bad70490b3430a957fadb3f10f5feaf092ffffffffb26e8892a23daf09b3b07d06404da210aef2d5a68e84ae6068c5f2aabaa11ab50000000023220020e158b24f25cb6772bfdb72049270448847b2aafd713dd527b34e36db5f4f0f69ffffffff53600db6aa6bd42a345a88500678ce7c67652d4e230877614e37e8c9eae77a7000000000232200207998882373f1d1e10dd73893a06a01d0094edf73e7443f9e6a3d406e6788bb27ffffffffc673876629da4e5d7555606cd77d79836afeac5c24f61b8f8a84c0b7855e20df00000000232200201341a1ffa0d17a652ff6f59d814b5b47095b991daa1e9bc8bb333852f09e1a68ffffffff3d74ae96d4c72801a984008c5e627979236f052c144b36010c5e2cbadf341b450100000023220020008fd89f3c1ea323987c152474f4e0cf34a63c7f14880a9a8655361fffa9f54fffffffffd01e5064507416e1f24174c395d139b1c00ce9e2de2aa28a8ded5aa6f17f44bf01000000232200201727a400e8b3a4511fe2886e7111b6782e061f8ef88c8d591018dc2e1fda68d9ffffffff8b49d90574ab455d2194ea2ada119abee5d62975b4b43a7b383074ab16a35bec0000000023220020335f71369106a334f0814cf91937dee4dedd4927776270ee8c7322e37668f69bffffffff4e5023307f59e5a2fb3b5b35703f19df0efb55ff5547e01a085eeeb071f9fd5f0000000023220020407e1014a4d6f62fa1b15084f5a1c936caab27e1a8b9c9f2cf835d9f76d17c9cffffffffed0c2694ecc245ed87447dafc260afc23766b0a5bbabbe6d35e379aa44babff30000000023220020e1bf23dea0eb5cb263ce5192c7cd596a2262c9871c9a4fa40baa30972c61b717ffffffff7f62b046a48820d8d1ffa195243c0f5e06bd06e0bc157ddc47cc11cc60a17bea0100000023220020f19e6eface440b22590e8f0fddbea93766b100919d9c25e7a2e107fa2f3bf3f7ffffffff4e5cd303725b1ceef0845d2c44d06fcbebc44eaf24d3aff5ea00cc1919d0d8dc000000002322002013e6a47ff343038ef5cae81b46d48617878200aa2a91179a71118b303606fcfbffffffffe8d59ba4bf1170535d5f2a139fd30d8ee45377ebe0619078c157f0f26072cdc4010000002322002030de7093e5f47f89e7c0b9f1759b6bab33bdb927dae900a36643e12150508abfffffffffb1d1bb4d2514238dac403fc383e56ef2e641caa07388ddf232115daf374463310100000023220020ec522e17aace42ac32ac70b82a41b8c4bf756d7476cc2fce6b071c91352c9c5dffffffffa5305efe1add578606f4b413d81aef51b3866cc1611d97172dcc69f658aa323b0000000023220020522520924e2872c5d137870ea3089a89f48c8528e85ad31502a749268a8f5213ffffffffcd4eb103db047fdb58e9e97644b8232ff79974576b739e049f15bdf081e1dec30000000023220020275c327f81674515db7b9c1015470cfa40fd4fcd75f1fd85b695732f6c054e5cffffffffea3647318835f45434e989e779ecc387c05d89794f10b8a3c45cc475139c979c000000002322002055db987177ded3ca2dc0d2b6de217abbbe608bd3dc75986f3350eb04e4795855ffffffff24ef8a31707cc0b127f975b23fac2220fbe81ddfc50740358b598b4798eb61510000000023220020300a0eb788626b6811aeb0db45f1787cdb551c77b53a8264ba6433c72259571cffffffff021ed2dc01000000001976a9145a7081c27cd19fd83bc731e3079b9df0de03065b88ac1f1a81000000000017a9144350d7628469fda29dfd80f32096928acd30850e870400483045022100a50962f6df71db724a5856026f23ea4d2d30773b2746ac44ed88dd22d20f72cb02206656fcb01c11fcb6c32a71d1f05d3b6320fbd911cbf67658bd769403491f328c01473044022048236fb8963c4f16e485bf7da9f76e4da5de32602795f8ee02cb12052aa1b5b20220370d6f01addc2faba061c5dca7db4964a004dc7e4e8e7a63cf6ed040f00f390601475221028971b6a93b9bc08437d28c144b5b947b2c4ba15306fb7b67f981f361e06899b62102d8cbd56fe56ed46b7d86e915d643e8519cf5f3c693f8be00c1dd5ac66394422e52ae0400483045022100fdc2bfdf2d50745b5aca6320eb0035d806f4a53dfa71b7cd8336f86ec235dbb702200b2ca266c3013623774738ad87bc6dc4f21cb40d8fb6cf8093b61a48410ef9d501473044022007341e875bb8043789522725abb0e5347b0b9e558fb23871d037c89c8e1adf9f02204c8864e7cf5e0e30575320386f7c9c3a58c912e5ae5a27bdde522aa4986703d4014752210241e5ca16afc62c4a4b9e54b870e97fbb9508ffc8d0dd5148b372980b0685595f2102d8cbd56fe56ed46b7d86e915d643e8519cf5f3c693f8be00c1dd5ac66394422e52ae0400483045022100a16786adb1dd2a6677baab45d6a0b73e1b5046da8b94ca9e376707903b224cbd022056cd791e3b6907cde1e003deab458d3cf792d441f31feed5e0867d415f117fb401483045022100a3f847ecef39ea54d85db67198824637d9bf81ea31fa251bb068f235434a117c02206968b5f90a64c89c8f338bebe767147140992ecab258600a3375b0c580d961d101475221022cc3a56d3e23a30421fd43950200eb34cd165d3e0d1969b8b67bdb704109a7aa2102d8cbd56fe56ed46b7d86e915d643e8519cf5f3c693f8be00c1dd5ac66394422e52ae0400473044022019cfd448100826fc7b5cf0dcfd52324daa965b4ffcc6310b9898f532210748b302205388633edd64a3b4e781a092387996ae4146dc1efb7b6720a1c1ae6fad60d6d5014830450221008ed30c26a9271aaf4e62d5225e600d9cb9b54cfd1b77c08b64d990672c82d7c002202a300f3909f3ddf11fb5a3ae60bda590416a1cd0fc560d12c35263f3fa2d0beb0147522103fdfe348c353bdf9e0c901fb45003aa0872381ab36fccaa4450da13dc3f889e6e2102d8cbd56fe56ed46b7d86e915d643e8519cf5f3c693f8be00c1dd5ac66394422e52ae0400473044022008bce55cb7eef4884559eb7ab8bc187bde87953b433e0a6a11cd3228759b558102207689b7140a337fb99bad91eef649ce1a5f9a74a98abc42589396b5c2e5bff75501483045022100e03910b8c5a0bb60a23ce0e78db77f301522dad596856cfb659d82f5f9dd6a6b022015af42d3429aee7f24911bbe4b9f4772689b2b1ed3a642ba4e96806e386bec8b0147522102945bbab6a86fe92b19ae93abf3d4700e8132401604dedfe1afc02bc89ff27d7d2102d8cbd56fe56ed46b7d86e915d643e8519cf5f3c693f8be00c1dd5ac66394422e52ae040048304502210084e2dee852fbc3d429189558d8c770e9921cc23e933fcf19cfc0bab9af611d17022044fb8bad12af2bdcdc0e169354cd6a5c72b7e44321d6e385081cce25e32721f501483045022100e537b9383924674f4d671649bfd319e1d0edffb08c2f9062f89d5cc33047838f022076b571495fa908f4961bcd51ce6073602f7ea0169ade0db8a2839ed9db110e9f0147522102315571a9b5b21ae4544af42d60ede4ae4d1c179ad1c9e7ce7bd0072008c8d0e32102d8cbd56fe56ed46b7d86e915d643e8519cf5f3c693f8be00c1dd5ac66394422e52ae040047304402205c762b1234a6a5a4226faa72b38600f5e3237dd0fc92349c5be11462a87ce68802205d3e7cd6b4148a7cff81f5114c2c8a88373bf7e9943732b2c95c1331a66c435f0147304402205a8c73b1980d82f56f37bd1aa768be9008692b4a8f1099dd03a286061d1e7968022000e1c9184ecbc68a7151de0f05f2b1614b6d1ef9c850373f567363d605574ff70147522103d9fd5826e82779c103888029f0572fa5a8af09104ce6dfef835ff11f20c8075d2102d8cbd56fe56ed46b7d86e915d643e8519cf5f3c693f8be00c1dd5ac66394422e52ae0400473044022008068bedc5e8ba396d613c3a35cd6792021bfc43f4c46141cf5e0b50eaf1ceb402207bce2c572a9eacd60f1480ca3f6c09734227182c3fa0c8e4514a6520369ccc1f01483045022100e66c497d932998b76a0af4d90c60558c188e440c81fc714ea4fa7044c3773dab02200b2bcf5583a518b5c4bc72a412927ff0f90f8459aec2595d52a0d9961002f0c801475221020013b665311149d3a56ccadec14fa59f0f17936ff4492911027be49f5b78eeeb2102d8cbd56fe56ed46b7d86e915d643e8519cf5f3c693f8be00c1dd5ac66394422e52ae0400473044022016daa288f1cc1233e49690d0f938bed5a8704a53e3f0f4b1dba1010ce2e0236b02205101494c3e5ef539834308ca2a66e8c605300df6bf6ddb56d6e02e8875b342c101483045022100b77f5b251d22a893170690e30e39c1ca398e39bf82c7919aead502a5aa6200b302206f70b8620fbaf6e2701e676aa3d02c64390c63e182d86b6069b55e57a23ddb6e0147522103aa3963e37a0792cf09ffba29613f66b1beeddc45509082cd9d7a3bfaade744ee2102d8cbd56fe56ed46b7d86e915d643e8519cf5f3c693f8be00c1dd5ac66394422e52ae0400483045022100ebc9f32547edb13f8197c32b3ee31e10140c94ab385493f35b82053dc8535224022007b5637c5aa21e37d40ebec57622390795c62389650912199027592911ab16310147304402202e9c5c81c351ff11017b00de2b6133a8c016924f7d1ef00aae468259f5eeecf402203672bd5e3a72b6382809cb1f4fba5ef1ce29bd8630d68cd90cb2a4f16b7472b5014752210221910641df2d271729519a1cfd702cc29bbf5d6cb19df14e5712da1dc9cb3ac92102d8cbd56fe56ed46b7d86e915d643e8519cf5f3c693f8be00c1dd5ac66394422e52ae040048304502210081fd540dffb65f4d3fbcc48ffa835d51cacc9f01c7ee02199d06dc2f300aa4df022009cde5666448da9055f9e12baf0c0c7abfb0e992d2aeb9640b2d05afb37f603f014730440220429df4b657a4f3d633ef02bc807faf855401778a475e5fb0ef2fbc920cf10327022040abc68cc4a8c65e4bd3490b22d3901fb23242e6892b19fb2330ea0e1737aeec01475221020cd3b4640f00ad8dfbd87bd17b39dbc597a86c6b855a82eed6cab7da5ad38bd42102d8cbd56fe56ed46b7d86e915d643e8519cf5f3c693f8be00c1dd5ac66394422e52ae040047304402205b9ab0fbd411e5add5d31836374aaebdf85634219582da5da8ec6fe78f9473ed02203d296a9f82270e2c7550606108cc89ced677f89451f18964318c2e7093a809af0147304402205867e807a94af80161df639a32b09936ed3c93b5ce1355e6504f0349bc51b78f022054f9423ae7f3bfc2438774b012693b7b674175c293d0c6af81bb3d23bd1406670147522103bd978bf2e63b4f80af654885c59f53f4d43c277cb3e51457c984506ebc2673782102d8cbd56fe56ed46b7d86e915d643e8519cf5f3c693f8be00c1dd5ac66394422e52ae040047304402205e08b2d75fe114436570a5bd198e0d87b2a6b85d07a55e2aabf32f0e010b7f4f02206af83502b066aeeb680e3c9019664d062857f09d81335376d151563e9ece5e8201483045022100abc4a0ac0c3dcf1bc7b424ef472f90d9f0ef329a467288fb0e1f4dc8501e2422022062d527adf0d8471462f0544480f49c0bf254c4a0a33a247e1f6a081ac49954310147522102ad19744baa007135886034a1380fd4cf895c5dd3708c5efd6e7e491b5a731da82102d8cbd56fe56ed46b7d86e915d643e8519cf5f3c693f8be00c1dd5ac66394422e52ae040047304402202248a57cc1fa9d165245ce20cd1b7b1614a0bd8d9e6b87ad7f2ca907644b10930220013cd19f1157e426b1207f9bdbb2fbd1fcad743bff4536fde52d1d853f8a141001483045022100b6eb28805d5e94ebaafea8f7537caa67ff0699f5b0efde3cf6d6d6c2cd4ba87d02206aca54ef84557e65228122dbe28cdd1ae492d278811a6c04ea55a1b1ead2fe750147522102ce1502f860f58544dbf5d562b4a21bf0a309c91d803882188e344e430ab78e1f2102d8cbd56fe56ed46b7d86e915d643e8519cf5f3c693f8be00c1dd5ac66394422e52ae040047304402201f06db0d007b88ab8e5c12cf7932d24bcec738d2918ea8ce240d4c3f2ddd8d0102200a9ef29367be6057656573407827485875f8d667f4822af7fcd647368225993b01483045022100e1f2aa62d02015ced1ef512287d9af378573d37054ca186e915fe56640b19d1202207144a247f65bf7a729ff49483cdf2509177a352f2662957baa40fb46f187cc330147522102d90f8258782dcdcbf21c00a950e7571bfd075e2a7535d527486817fca64085442102d8cbd56fe56ed46b7d86e915d643e8519cf5f3c693f8be00c1dd5ac66394422e52ae0400473044022065380fa2ce75c9deb90de03cba876e717e4bad22cd76cce97a3d6c76867b7da30220212791f586911b8a3acddc95e46f6fdb85d6b1c0a2f70ac7779e659e549285d301473044022020591fbd759e5bd17707ab576a628fbaba45e365e515ab1e49ec35a2cf3d132802204e3e96a8f996e61fa3959d20bae69c08e40249d9a9db35f61bd044fb0fbc3fc10147522102a87bec3cec7df69fbed57ac8d65be0e8fb5231690cd366b4ae825e102c5d9b822102d8cbd56fe56ed46b7d86e915d643e8519cf5f3c693f8be00c1dd5ac66394422e52ae0400473044022044cb8e446272572b884442e639323688c201035afc86edb22d0420295713c1240220035ecb9ccf22cefb225bafac617e1ae4abc69beb9dddf93f0a75c5e1df2a5cad014730440220081af3260695798dc8f3d9783fee4ebcea267fd6f0b840956db666c83b2994cc02200d6826ae17090f17cf660f122475c6bb9f9ff61a4e97c6d3714e7f915a0ffa7c01475221028781c4585f04a3d927abbab81c51b9ab5e6b064a23e6d83e2f3d58fedf559c762102d8cbd56fe56ed46b7d86e915d643e8519cf5f3c693f8be00c1dd5ac66394422e52ae00000000", "vin": [{"txinwitness": ["", "3045022100a50962f6df71db724a5856026f23ea4d2d30773b2746ac44ed88dd22d20f72cb02206656fcb01c11fcb6c32a71d1f05d3b6320fbd911cbf67658bd769403491f328c01", "3044022048236fb8963c4f16e485bf7da9f76e4da5de32602795f8ee02cb12052aa1b5b20220370d6f01addc2faba061c5dca7db4964a004dc7e4e8e7a63cf6ed040f00f390601", "5221028971b6a93b9bc08437d28c144b5b947b2c4ba15306fb7b67f981f361e06899b62102d8cbd56fe56ed46b7d86e915d643e8519cf5f3c693f8be00c1dd5ac66394422e52ae"], "sequence": 4294967295, "scriptSig": {"hex": "220020dc01f8025fea3957bc0cbb93313927bad70490b3430a957fadb3f10f5feaf092", "asm": "0020dc01f8025fea3957bc0cbb93313927bad70490b3430a957fadb3f10f5feaf092"}, "vout": 0, "txid": "2cb68ff6c8db1b6610994b383c2265b97fa43cafc9bda640c6e7586a8530b2dc"}, {"txinwitness": ["", "3045022100fdc2bfdf2d50745b5aca6320eb0035d806f4a53dfa71b7cd8336f86ec235dbb702200b2ca266c3013623774738ad87bc6dc4f21cb40d8fb6cf8093b61a48410ef9d501", "3044022007341e875bb8043789522725abb0e5347b0b9e558fb23871d037c89c8e1adf9f02204c8864e7cf5e0e30575320386f7c9c3a58c912e5ae5a27bdde522aa4986703d401", "52210241e5ca16afc62c4a4b9e54b870e97fbb9508ffc8d0dd5148b372980b0685595f2102d8cbd56fe56ed46b7d86e915d643e8519cf5f3c693f8be00c1dd5ac66394422e52ae"], "sequence": 4294967295, "scriptSig": {"hex": "220020e158b24f25cb6772bfdb72049270448847b2aafd713dd527b34e36db5f4f0f69", "asm": "0020e158b24f25cb6772bfdb72049270448847b2aafd713dd527b34e36db5f4f0f69"}, "vout": 0, "txid": "b51aa1baaaf2c56860ae848ea6d5f2ae10a24d40067db0b309af3da292886eb2"}, {"txinwitness": ["", "3045022100a16786adb1dd2a6677baab45d6a0b73e1b5046da8b94ca9e376707903b224cbd022056cd791e3b6907cde1e003deab458d3cf792d441f31feed5e0867d415f117fb401", "3045022100a3f847ecef39ea54d85db67198824637d9bf81ea31fa251bb068f235434a117c02206968b5f90a64c89c8f338bebe767147140992ecab258600a3375b0c580d961d101", "5221022cc3a56d3e23a30421fd43950200eb34cd165d3e0d1969b8b67bdb704109a7aa2102d8cbd56fe56ed46b7d86e915d643e8519cf5f3c693f8be00c1dd5ac66394422e52ae"], "sequence": 4294967295, "scriptSig": {"hex": "2200207998882373f1d1e10dd73893a06a01d0094edf73e7443f9e6a3d406e6788bb27", "asm": "00207998882373f1d1e10dd73893a06a01d0094edf73e7443f9e6a3d406e6788bb27"}, "vout": 0, "txid": "707ae7eac9e8374e617708234e2d65677cce780650885a342ad46baab60d6053"}, {"txinwitness": ["", "3044022019cfd448100826fc7b5cf0dcfd52324daa965b4ffcc6310b9898f532210748b302205388633edd64a3b4e781a092387996ae4146dc1efb7b6720a1c1ae6fad60d6d501", "30450221008ed30c26a9271aaf4e62d5225e600d9cb9b54cfd1b77c08b64d990672c82d7c002202a300f3909f3ddf11fb5a3ae60bda590416a1cd0fc560d12c35263f3fa2d0beb01", "522103fdfe348c353bdf9e0c901fb45003aa0872381ab36fccaa4450da13dc3f889e6e2102d8cbd56fe56ed46b7d86e915d643e8519cf5f3c693f8be00c1dd5ac66394422e52ae"], "sequence": 4294967295, "scriptSig": {"hex": "2200201341a1ffa0d17a652ff6f59d814b5b47095b991daa1e9bc8bb333852f09e1a68", "asm": "00201341a1ffa0d17a652ff6f59d814b5b47095b991daa1e9bc8bb333852f09e1a68"}, "vout": 0, "txid": "df205e85b7c0848a8f1bf6245cacfe6a83797dd76c6055755d4eda29668773c6"}, {"txinwitness": ["", "3044022008bce55cb7eef4884559eb7ab8bc187bde87953b433e0a6a11cd3228759b558102207689b7140a337fb99bad91eef649ce1a5f9a74a98abc42589396b5c2e5bff75501", "3045022100e03910b8c5a0bb60a23ce0e78db77f301522dad596856cfb659d82f5f9dd6a6b022015af42d3429aee7f24911bbe4b9f4772689b2b1ed3a642ba4e96806e386bec8b01", "522102945bbab6a86fe92b19ae93abf3d4700e8132401604dedfe1afc02bc89ff27d7d2102d8cbd56fe56ed46b7d86e915d643e8519cf5f3c693f8be00c1dd5ac66394422e52ae"], "sequence": 4294967295, "scriptSig": {"hex": "220020008fd89f3c1ea323987c152474f4e0cf34a63c7f14880a9a8655361fffa9f54f", "asm": "0020008fd89f3c1ea323987c152474f4e0cf34a63c7f14880a9a8655361fffa9f54f"}, "vout": 1, "txid": "451b34dfba2c5e0c01364b142c056f237979625e8c0084a90128c7d496ae743d"}, {"txinwitness": ["", "304502210084e2dee852fbc3d429189558d8c770e9921cc23e933fcf19cfc0bab9af611d17022044fb8bad12af2bdcdc0e169354cd6a5c72b7e44321d6e385081cce25e32721f501", "3045022100e537b9383924674f4d671649bfd319e1d0edffb08c2f9062f89d5cc33047838f022076b571495fa908f4961bcd51ce6073602f7ea0169ade0db8a2839ed9db110e9f01", "522102315571a9b5b21ae4544af42d60ede4ae4d1c179ad1c9e7ce7bd0072008c8d0e32102d8cbd56fe56ed46b7d86e915d643e8519cf5f3c693f8be00c1dd5ac66394422e52ae"], "sequence": 4294967295, "scriptSig": {"hex": "2200201727a400e8b3a4511fe2886e7111b6782e061f8ef88c8d591018dc2e1fda68d9", "asm": "00201727a400e8b3a4511fe2886e7111b6782e061f8ef88c8d591018dc2e1fda68d9"}, "vout": 1, "txid": "bf447ff1a65aed8d8aa22adee2e90cc0b139d195c37441f2e116745064501ed0"}, {"txinwitness": ["", "304402205c762b1234a6a5a4226faa72b38600f5e3237dd0fc92349c5be11462a87ce68802205d3e7cd6b4148a7cff81f5114c2c8a88373bf7e9943732b2c95c1331a66c435f01", "304402205a8c73b1980d82f56f37bd1aa768be9008692b4a8f1099dd03a286061d1e7968022000e1c9184ecbc68a7151de0f05f2b1614b6d1ef9c850373f567363d605574ff701", "522103d9fd5826e82779c103888029f0572fa5a8af09104ce6dfef835ff11f20c8075d2102d8cbd56fe56ed46b7d86e915d643e8519cf5f3c693f8be00c1dd5ac66394422e52ae"], "sequence": 4294967295, "scriptSig": {"hex": "220020335f71369106a334f0814cf91937dee4dedd4927776270ee8c7322e37668f69b", "asm": "0020335f71369106a334f0814cf91937dee4dedd4927776270ee8c7322e37668f69b"}, "vout": 0, "txid": "ec5ba316ab7430387b3ab4b47529d6e5be9a11da2aea94215d45ab7405d9498b"}, {"txinwitness": ["", "3044022008068bedc5e8ba396d613c3a35cd6792021bfc43f4c46141cf5e0b50eaf1ceb402207bce2c572a9eacd60f1480ca3f6c09734227182c3fa0c8e4514a6520369ccc1f01", "3045022100e66c497d932998b76a0af4d90c60558c188e440c81fc714ea4fa7044c3773dab02200b2bcf5583a518b5c4bc72a412927ff0f90f8459aec2595d52a0d9961002f0c801", "5221020013b665311149d3a56ccadec14fa59f0f17936ff4492911027be49f5b78eeeb2102d8cbd56fe56ed46b7d86e915d643e8519cf5f3c693f8be00c1dd5ac66394422e52ae"], "sequence": 4294967295, "scriptSig": {"hex": "220020407e1014a4d6f62fa1b15084f5a1c936caab27e1a8b9c9f2cf835d9f76d17c9c", "asm": "0020407e1014a4d6f62fa1b15084f5a1c936caab27e1a8b9c9f2cf835d9f76d17c9c"}, "vout": 0, "txid": "5ffdf971b0ee5e081ae04755ff55fb0edf193f70355b3bfba2e5597f3023504e"}, {"txinwitness": ["", "3044022016daa288f1cc1233e49690d0f938bed5a8704a53e3f0f4b1dba1010ce2e0236b02205101494c3e5ef539834308ca2a66e8c605300df6bf6ddb56d6e02e8875b342c101", "3045022100b77f5b251d22a893170690e30e39c1ca398e39bf82c7919aead502a5aa6200b302206f70b8620fbaf6e2701e676aa3d02c64390c63e182d86b6069b55e57a23ddb6e01", "522103aa3963e37a0792cf09ffba29613f66b1beeddc45509082cd9d7a3bfaade744ee2102d8cbd56fe56ed46b7d86e915d643e8519cf5f3c693f8be00c1dd5ac66394422e52ae"], "sequence": 4294967295, "scriptSig": {"hex": "220020e1bf23dea0eb5cb263ce5192c7cd596a2262c9871c9a4fa40baa30972c61b717", "asm": "0020e1bf23dea0eb5cb263ce5192c7cd596a2262c9871c9a4fa40baa30972c61b717"}, "vout": 0, "txid": "f3bfba44aa79e3356dbeabbba5b06637c2af60c2af7d4487ed45c2ec94260ced"}, {"txinwitness": ["", "3045022100ebc9f32547edb13f8197c32b3ee31e10140c94ab385493f35b82053dc8535224022007b5637c5aa21e37d40ebec57622390795c62389650912199027592911ab163101", "304402202e9c5c81c351ff11017b00de2b6133a8c016924f7d1ef00aae468259f5eeecf402203672bd5e3a72b6382809cb1f4fba5ef1ce29bd8630d68cd90cb2a4f16b7472b501", "52210221910641df2d271729519a1cfd702cc29bbf5d6cb19df14e5712da1dc9cb3ac92102d8cbd56fe56ed46b7d86e915d643e8519cf5f3c693f8be00c1dd5ac66394422e52ae"], "sequence": 4294967295, "scriptSig": {"hex": "220020f19e6eface440b22590e8f0fddbea93766b100919d9c25e7a2e107fa2f3bf3f7", "asm": "0020f19e6eface440b22590e8f0fddbea93766b100919d9c25e7a2e107fa2f3bf3f7"}, "vout": 1, "txid": "ea7ba160cc11cc47dc7d15bce006bd065e0f3c2495a1ffd1d82088a446b0627f"}, {"txinwitness": ["", "304502210081fd540dffb65f4d3fbcc48ffa835d51cacc9f01c7ee02199d06dc2f300aa4df022009cde5666448da9055f9e12baf0c0c7abfb0e992d2aeb9640b2d05afb37f603f01", "30440220429df4b657a4f3d633ef02bc807faf855401778a475e5fb0ef2fbc920cf10327022040abc68cc4a8c65e4bd3490b22d3901fb23242e6892b19fb2330ea0e1737aeec01", "5221020cd3b4640f00ad8dfbd87bd17b39dbc597a86c6b855a82eed6cab7da5ad38bd42102d8cbd56fe56ed46b7d86e915d643e8519cf5f3c693f8be00c1dd5ac66394422e52ae"], "sequence": 4294967295, "scriptSig": {"hex": "22002013e6a47ff343038ef5cae81b46d48617878200aa2a91179a71118b303606fcfb", "asm": "002013e6a47ff343038ef5cae81b46d48617878200aa2a91179a71118b303606fcfb"}, "vout": 0, "txid": "dcd8d01919cc00eaf5afd324af4ec4ebcb6fd0442c5d84f0ee1c5b7203d35c4e"}, {"txinwitness": ["", "304402205b9ab0fbd411e5add5d31836374aaebdf85634219582da5da8ec6fe78f9473ed02203d296a9f82270e2c7550606108cc89ced677f89451f18964318c2e7093a809af01", "304402205867e807a94af80161df639a32b09936ed3c93b5ce1355e6504f0349bc51b78f022054f9423ae7f3bfc2438774b012693b7b674175c293d0c6af81bb3d23bd14066701", "522103bd978bf2e63b4f80af654885c59f53f4d43c277cb3e51457c984506ebc2673782102d8cbd56fe56ed46b7d86e915d643e8519cf5f3c693f8be00c1dd5ac66394422e52ae"], "sequence": 4294967295, "scriptSig": {"hex": "22002030de7093e5f47f89e7c0b9f1759b6bab33bdb927dae900a36643e12150508abf", "asm": "002030de7093e5f47f89e7c0b9f1759b6bab33bdb927dae900a36643e12150508abf"}, "vout": 1, "txid": "c4cd7260f2f057c1789061e0eb7753e48e0dd39f132a5f5d537011bfa49bd5e8"}, {"txinwitness": ["", "304402205e08b2d75fe114436570a5bd198e0d87b2a6b85d07a55e2aabf32f0e010b7f4f02206af83502b066aeeb680e3c9019664d062857f09d81335376d151563e9ece5e8201", "3045022100abc4a0ac0c3dcf1bc7b424ef472f90d9f0ef329a467288fb0e1f4dc8501e2422022062d527adf0d8471462f0544480f49c0bf254c4a0a33a247e1f6a081ac499543101", "522102ad19744baa007135886034a1380fd4cf895c5dd3708c5efd6e7e491b5a731da82102d8cbd56fe56ed46b7d86e915d643e8519cf5f3c693f8be00c1dd5ac66394422e52ae"], "sequence": 4294967295, "scriptSig": {"hex": "220020ec522e17aace42ac32ac70b82a41b8c4bf756d7476cc2fce6b071c91352c9c5d", "asm": "0020ec522e17aace42ac32ac70b82a41b8c4bf756d7476cc2fce6b071c91352c9c5d"}, "vout": 1, "txid": "31634437af5d1132f2dd8873a0ca41e6f26ee583c33f40ac8d2314254dbbd1b1"}, {"txinwitness": ["", "304402202248a57cc1fa9d165245ce20cd1b7b1614a0bd8d9e6b87ad7f2ca907644b10930220013cd19f1157e426b1207f9bdbb2fbd1fcad743bff4536fde52d1d853f8a141001", "3045022100b6eb28805d5e94ebaafea8f7537caa67ff0699f5b0efde3cf6d6d6c2cd4ba87d02206aca54ef84557e65228122dbe28cdd1ae492d278811a6c04ea55a1b1ead2fe7501", "522102ce1502f860f58544dbf5d562b4a21bf0a309c91d803882188e344e430ab78e1f2102d8cbd56fe56ed46b7d86e915d643e8519cf5f3c693f8be00c1dd5ac66394422e52ae"], "sequence": 4294967295, "scriptSig": {"hex": "220020522520924e2872c5d137870ea3089a89f48c8528e85ad31502a749268a8f5213", "asm": "0020522520924e2872c5d137870ea3089a89f48c8528e85ad31502a749268a8f5213"}, "vout": 0, "txid": "3b32aa58f669cc2d17971d61c16c86b351ef1ad813b4f4068657dd1afe5e30a5"}, {"txinwitness": ["", "304402201f06db0d007b88ab8e5c12cf7932d24bcec738d2918ea8ce240d4c3f2ddd8d0102200a9ef29367be6057656573407827485875f8d667f4822af7fcd647368225993b01", "3045022100e1f2aa62d02015ced1ef512287d9af378573d37054ca186e915fe56640b19d1202207144a247f65bf7a729ff49483cdf2509177a352f2662957baa40fb46f187cc3301", "522102d90f8258782dcdcbf21c00a950e7571bfd075e2a7535d527486817fca64085442102d8cbd56fe56ed46b7d86e915d643e8519cf5f3c693f8be00c1dd5ac66394422e52ae"], "sequence": 4294967295, "scriptSig": {"hex": "220020275c327f81674515db7b9c1015470cfa40fd4fcd75f1fd85b695732f6c054e5c", "asm": "0020275c327f81674515db7b9c1015470cfa40fd4fcd75f1fd85b695732f6c054e5c"}, "vout": 0, "txid": "c3dee181f0bd159f049e736b577499f72f23b84476e9e958db7f04db03b14ecd"}, {"txinwitness": ["", "3044022065380fa2ce75c9deb90de03cba876e717e4bad22cd76cce97a3d6c76867b7da30220212791f586911b8a3acddc95e46f6fdb85d6b1c0a2f70ac7779e659e549285d301", "3044022020591fbd759e5bd17707ab576a628fbaba45e365e515ab1e49ec35a2cf3d132802204e3e96a8f996e61fa3959d20bae69c08e40249d9a9db35f61bd044fb0fbc3fc101", "522102a87bec3cec7df69fbed57ac8d65be0e8fb5231690cd366b4ae825e102c5d9b822102d8cbd56fe56ed46b7d86e915d643e8519cf5f3c693f8be00c1dd5ac66394422e52ae"], "sequence": 4294967295, "scriptSig": {"hex": "22002055db987177ded3ca2dc0d2b6de217abbbe608bd3dc75986f3350eb04e4795855", "asm": "002055db987177ded3ca2dc0d2b6de217abbbe608bd3dc75986f3350eb04e4795855"}, "vout": 0, "txid": "9c979c1375c45cc4a3b8104f79895dc087c3ec79e789e93454f43588314736ea"}, {"txinwitness": ["", "3044022044cb8e446272572b884442e639323688c201035afc86edb22d0420295713c1240220035ecb9ccf22cefb225bafac617e1ae4abc69beb9dddf93f0a75c5e1df2a5cad01", "30440220081af3260695798dc8f3d9783fee4ebcea267fd6f0b840956db666c83b2994cc02200d6826ae17090f17cf660f122475c6bb9f9ff61a4e97c6d3714e7f915a0ffa7c01", "5221028781c4585f04a3d927abbab81c51b9ab5e6b064a23e6d83e2f3d58fedf559c762102d8cbd56fe56ed46b7d86e915d643e8519cf5f3c693f8be00c1dd5ac66394422e52ae"], "sequence": 4294967295, "scriptSig": {"hex": "220020300a0eb788626b6811aeb0db45f1787cdb551c77b53a8264ba6433c72259571c", "asm": "0020300a0eb788626b6811aeb0db45f1787cdb551c77b53a8264ba6433c72259571c"}, "vout": 0, "txid": "5161eb98478b598b354007c5df1de8fb2022ac3fb275f927b1c07c70318aef24"}], "txid": "6351381ce80a58b317753a7e2c7e82ffc1a08f4545b33fa1e312de2357261329", "blocktime": 1537872475, "version": 1, "confirmations": 11487, "time": 1537872475, "locktime": 0, "vsize": 2299, "size": 5091}