{"hash": "63544bcf7f9fa88188348228be555f62583b000fe589862eee3b0888ce64f42c", "blockhash": "00000000000000000004ffacab907a6b429b9a5745fa0b75af4234bf69dd7176", "vout": [{"scriptPubKey": {"reqSigs": 1, "hex": "76a914361177153b7fc9fd33512b9277e825c5208be9b388ac", "addresses": ["15vtQrswc9LS1HHxPoPzFFavLYJfgPHKN6"], "asm": "OP_DUP OP_HASH160 361177153b7fc9fd33512b9277e825c5208be9b3 OP_EQUALVERIFY OP_CHECKSIG", "type": "pubkeyhash"}, "value": 0.00393276, "n": 0}], "hex": "0100000003868cd6d18e4d12459c491383cefd6efeb46e9236696997b2b415a0b2233f7755010000006b483045022100a187db10ecd71773ed66e783ba0cbd537ba897075e90bb0a09cecef698fc2bcb02206ed4385eb6e65c892f1941ce257e2f8e1b43eb94aa9d0de4a1e668494509ea3f0121025652ebc9e2fab28e6b663ef6eebc448a84bd9d24baae7d3a1cd442b5bb2821b1ffffffff5ef615b986b10462db02d6990d514eacab6bd7a016973b9a16982776dac2bc98000000006b483045022100a18d4a48e14354ca5266899e1820616d9bad079f575e1564420e342a6476f5b30220068bab8d2d8cb14ccc1dd755672e92899ba67792b58c506b66c7f278481bba1d012103b000685ff3517f2326c0bc2c6fc5d50bc6112b676b87ff32deeb52f84b9b0554ffffffff827f54d926f0ea93b6506438bbf1fbcc0aaeab4e3235926d465078c99f572d96010000006a47304402205a54262af457efccbc6328c31c5cd1c4808fc1594fcc865478d0efe12e05f079022070fc07dc3b73e8de5ab3e58f38266f5c82ae43ab079eb5bbf76b81e5c4a1263b012102d629aa475f49ac0ac0c5815b120696d24b86fb7531ef86b61518b0048592473affffffff013c000600000000001976a914361177153b7fc9fd33512b9277e825c5208be9b388ac00000000", "vin": [{"sequence": 4294967295, "scriptSig": {"hex": "483045022100a187db10ecd71773ed66e783ba0cbd537ba897075e90bb0a09cecef698fc2bcb02206ed4385eb6e65c892f1941ce257e2f8e1b43eb94aa9d0de4a1e668494509ea3f0121025652ebc9e2fab28e6b663ef6eebc448a84bd9d24baae7d3a1cd442b5bb2821b1", "asm": "3045022100a187db10ecd71773ed66e783ba0cbd537ba897075e90bb0a09cecef698fc2bcb02206ed4385eb6e65c892f1941ce257e2f8e1b43eb94aa9d0de4a1e668494509ea3f[ALL] 025652ebc9e2fab28e6b663ef6eebc448a84bd9d24baae7d3a1cd442b5bb2821b1"}, "vout": 1, "txid": "55773f23b2a015b4b297696936926eb4fe6efdce8313499c45124d8ed1d68c86"}, {"sequence": 4294967295, "scriptSig": {"hex": "483045022100a18d4a48e14354ca5266899e1820616d9bad079f575e1564420e342a6476f5b30220068bab8d2d8cb14ccc1dd755672e92899ba67792b58c506b66c7f278481bba1d012103b000685ff3517f2326c0bc2c6fc5d50bc6112b676b87ff32deeb52f84b9b0554", "asm": "3045022100a18d4a48e14354ca5266899e1820616d9bad079f575e1564420e342a6476f5b30220068bab8d2d8cb14ccc1dd755672e92899ba67792b58c506b66c7f278481bba1d[ALL] 03b000685ff3517f2326c0bc2c6fc5d50bc6112b676b87ff32deeb52f84b9b0554"}, "vout": 0, "txid": "98bcc2da762798169a3b9716a0d76babac4e510d99d602db6204b186b915f65e"}, {"sequence": 4294967295, "scriptSig": {"hex": "47304402205a54262af457efccbc6328c31c5cd1c4808fc1594fcc865478d0efe12e05f079022070fc07dc3b73e8de5ab3e58f38266f5c82ae43ab079eb5bbf76b81e5c4a1263b012102d629aa475f49ac0ac0c5815b120696d24b86fb7531ef86b61518b0048592473a", "asm": "304402205a54262af457efccbc6328c31c5cd1c4808fc1594fcc865478d0efe12e05f079022070fc07dc3b73e8de5ab3e58f38266f5c82ae43ab079eb5bbf76b81e5c4a1263b[ALL] 02d629aa475f49ac0ac0c5815b120696d24b86fb7531ef86b61518b0048592473a"}, "vout": 1, "txid": "962d579fc97850466d9235324eabae0accfbf1bb386450b693eaf026d9547f82"}], "txid": "63544bcf7f9fa88188348228be555f62583b000fe589862eee3b0888ce64f42c", "blocktime": 1537875543, "version": 1, "confirmations": 11464, "time": 1537875543, "locktime": 0, "vsize": 487, "size": 487}