{"hash": "bc5432c70a4cf13db0184c13604edf0432b96de7c63d630ded1b7558880b2c34", "blockhash": "00000000000000000004ffacab907a6b429b9a5745fa0b75af4234bf69dd7176", "vout": [{"scriptPubKey": {"reqSigs": 1, "hex": "a9146924a56168d0a9dcf2e6a82fbb43a8770fb0c4e987", "addresses": ["3BGxmtv2JsQP1hoNPGaGzWeZFEuyt5jJRs"], "asm": "OP_HASH160 6924a56168d0a9dcf2e6a82fbb43a8770fb0c4e9 OP_EQUAL", "type": "scripthash"}, "value": 0.00039394, "n": 0}, {"scriptPubKey": {"reqSigs": 1, "hex": "76a914eaaeec4ad5df2a7d371f8ec0103cc199ec75c31d88ac", "addresses": ["1NPtfkem3FHLZprNFZRMkandEor73oQaUL"], "asm": "OP_DUP OP_HASH160 eaaeec4ad5df2a7d371f8ec0103cc199ec75c31d OP_EQUALVERIFY OP_CHECKSIG", "type": "pubkeyhash"}, "value": 0.01465907, "n": 1}], "hex": "0100000000010120ef1e11d51d5331c4e2d1e8167e328ec77698ed0cb56d6abd9735c946b2e7bc03000000171600146505e93a589071066df0d79d340e630641eeb9b7ffffffff02e29900000000000017a9146924a56168d0a9dcf2e6a82fbb43a8770fb0c4e987335e1600000000001976a914eaaeec4ad5df2a7d371f8ec0103cc199ec75c31d88ac02483045022100b7974448969292539360b3b67bc2383ca1b43cd1ca395827a1a114d3eae3364c0220390d7dc18e150afa74c5fef8b762ed9464013ba263a926176353b601c61715670121036e600519899dc9fe3b51b4c127dc9f542b6752b05e487f7406b55515ab9d3c9600000000", "vin": [{"txinwitness": ["3045022100b7974448969292539360b3b67bc2383ca1b43cd1ca395827a1a114d3eae3364c0220390d7dc18e150afa74c5fef8b762ed9464013ba263a926176353b601c617156701", "036e600519899dc9fe3b51b4c127dc9f542b6752b05e487f7406b55515ab9d3c96"], "sequence": 4294967295, "scriptSig": {"hex": "1600146505e93a589071066df0d79d340e630641eeb9b7", "asm": "00146505e93a589071066df0d79d340e630641eeb9b7"}, "vout": 3, "txid": "bce7b246c93597bd6a6db50ced9876c78e327e16e8d1e2c431531dd5111eef20"}], "txid": "635f29f9b9eeb5501e226c0c3d33e6ff950b279e45aab7afea77a1d6be6bec8e", "blocktime": 1537875543, "version": 1, "confirmations": 11464, "time": 1537875543, "locktime": 0, "vsize": 168, "size": 250}