{"hash": "c5524c80baa05d21ffebcbc4e07408587fd9c45d6325d8ef5e39439ca9869bc1", "blockhash": "0000000000000000000baef3f32e3676a92c3b2e5da21b426e4f302fc371ce76", "vout": [{"scriptPubKey": {"reqSigs": 1, "hex": "76a914a9fe6a270995b7a90c7b76306e07a17d2f93509588ac", "addresses": ["1GVqyTfPwJju6kphWzMCGxDkzACUPEAk1a"], "asm": "OP_DUP OP_HASH160 a9fe6a270995b7a90c7b76306e07a17d2f935095 OP_EQUALVERIFY OP_CHECKSIG", "type": "pubkeyhash"}, "value": 0.0073506, "n": 0}, {"scriptPubKey": {"reqSigs": 1, "hex": "a914b43cab4c50e7e42442a69c2cf24e75136239daff87", "addresses": ["3J82ESPPg4eJdq6f81nXJpastwtqCWeAm2"], "asm": "OP_HASH160 b43cab4c50e7e42442a69c2cf24e75136239daff OP_EQUAL", "type": "scripthash"}, "value": 0.0099901, "n": 1}], "hex": "02000000000102947ede74047c778580deea0f104a25e4755ec404f839a85d3efa5c23c2c61b240a000000171600140b7c82a045296fc817705921571fe94656bb4936feffffffb45a6c4f3629c35e2918f96de533c0b3b9861c9529f3394454dc257274b87ded00000000171600143d31655bf5dfdc184b98da231165d2a3c54de897feffffff0254370b00000000001976a914a9fe6a270995b7a90c7b76306e07a17d2f93509588ac623e0f000000000017a914b43cab4c50e7e42442a69c2cf24e75136239daff8702483045022100eddfb3fc038ca0a215d06f1e70ea1d246435349a479d5bff2d1cf56abc47e7c1022028f5a4acc9d7364ee4454cb6d6d5861ec5bb239399c09794a6ceb86f4d8377f50121033b094ffb1570340d97ff9bb007e88560c2d5842f5c82a640e48512c625d98be0024730440220764966c86dc42f58642279a6cc23b3d166a3d59004b7f7caada5718e76c758fb022053013cacf8d693442ece86719380d3c7a01c801384d19412c7ca38101255865a01210293b31edaf59535b1bcfd71297e5f9fcb0c0bc0c1d1e5052173c7d696d22cb04817490800", "vin": [{"txinwitness": ["3045022100eddfb3fc038ca0a215d06f1e70ea1d246435349a479d5bff2d1cf56abc47e7c1022028f5a4acc9d7364ee4454cb6d6d5861ec5bb239399c09794a6ceb86f4d8377f501", "033b094ffb1570340d97ff9bb007e88560c2d5842f5c82a640e48512c625d98be0"], "sequence": 4294967294, "scriptSig": {"hex": "1600140b7c82a045296fc817705921571fe94656bb4936", "asm": "00140b7c82a045296fc817705921571fe94656bb4936"}, "vout": 10, "txid": "241bc6c2235cfa3e5da839f804c45e75e4254a100feade8085777c0474de7e94"}, {"txinwitness": ["30440220764966c86dc42f58642279a6cc23b3d166a3d59004b7f7caada5718e76c758fb022053013cacf8d693442ece86719380d3c7a01c801384d19412c7ca38101255865a01", "0293b31edaf59535b1bcfd71297e5f9fcb0c0bc0c1d1e5052173c7d696d22cb048"], "sequence": 4294967294, "scriptSig": {"hex": "1600143d31655bf5dfdc184b98da231165d2a3c54de897", "asm": "00143d31655bf5dfdc184b98da231165d2a3c54de897"}, "vout": 0, "txid": "ed7db8747225dc544439f329951c86b9b3c033e56df918295ec329364f6c5ab4"}], "txid": "636dc2f70e5cdc3bb216097d31c962dbf000dc8edde10e22425e525830c20921", "blocktime": 1537876114, "version": 2, "confirmations": 11462, "time": 1537876114, "locktime": 542999, "vsize": 259, "size": 421}