{"hash": "636e8344d8cb020f5730a0abe66a93a5c6e0d1257bfc720c985408640dcecbaf", "blockhash": "0000000000000000001f76057863aec43deb6fa401d9628bb513d65a8098bfab", "vout": [{"scriptPubKey": {"reqSigs": 1, "hex": "76a91431e5abb5a0ce57e733a69922ce9c7d0cb8f4687f88ac", "addresses": ["15YqFCk8hbfuysSEsG5oAnL3K7Q3yAhHMv"], "asm": "OP_DUP OP_HASH160 31e5abb5a0ce57e733a69922ce9c7d0cb8f4687f OP_EQUALVERIFY OP_CHECKSIG", "type": "pubkeyhash"}, "value": 0.00056023, "n": 0}, {"scriptPubKey": {"type": "nulldata", "hex": "6a4c50000077d800010e0e7dff8cbfd771d8f827995b23cc0f42c2fc38c5e5bf9ae76da98a211a9b9a00f305af959bb1524a8c64273df45baa15970612b77f0da053e220599f7cb8fbacf7bab7719c405f2d9a", "asm": "OP_RETURN 000077d800010e0e7dff8cbfd771d8f827995b23cc0f42c2fc38c5e5bf9ae76da98a211a9b9a00f305af959bb1524a8c64273df45baa15970612b77f0da053e220599f7cb8fbacf7bab7719c405f2d9a"}, "value": 0.0, "n": 1}], "hex": "01000000019be7c9e95f095ed1d09dc2ca0670342a2e6a267dd08f96aefc0810b775b53560010000006a47304402205d38dacefd4b2676cbe5289613655fc37b49a446f7aed6267ee20d87da5e638f02203faf8feaa9814ffdcb26134e59f29ddd3d0d267e0428268d44788ec979d5b85e0121039d0b9875de36bd71fc90ef88ad8f19b03b8cb33db82b8e636749865b10fc89ecffffffff02d7da0000000000001976a91431e5abb5a0ce57e733a69922ce9c7d0cb8f4687f88ac0000000000000000536a4c50000077d800010e0e7dff8cbfd771d8f827995b23cc0f42c2fc38c5e5bf9ae76da98a211a9b9a00f305af959bb1524a8c64273df45baa15970612b77f0da053e220599f7cb8fbacf7bab7719c405f2d9a00000000", "vin": [{"sequence": 4294967295, "scriptSig": {"hex": "47304402205d38dacefd4b2676cbe5289613655fc37b49a446f7aed6267ee20d87da5e638f02203faf8feaa9814ffdcb26134e59f29ddd3d0d267e0428268d44788ec979d5b85e0121039d0b9875de36bd71fc90ef88ad8f19b03b8cb33db82b8e636749865b10fc89ec", "asm": "304402205d38dacefd4b2676cbe5289613655fc37b49a446f7aed6267ee20d87da5e638f02203faf8feaa9814ffdcb26134e59f29ddd3d0d267e0428268d44788ec979d5b85e[ALL] 039d0b9875de36bd71fc90ef88ad8f19b03b8cb33db82b8e636749865b10fc89ec"}, "vout": 1, "txid": "6035b575b71008fcae968fd07d266a2e2a347006cac29dd0d15e095fe9c9e79b"}], "txid": "636e8344d8cb020f5730a0abe66a93a5c6e0d1257bfc720c985408640dcecbaf", "blocktime": 1537873891, "version": 1, "confirmations": 11475, "time": 1537873891, "locktime": 0, "vsize": 283, "size": 283}