{"hash": "6370bd3aadc438c0648df11af8d2bc8e1f1c351f7727fa3d33688b9465f13a11", "blockhash": "00000000000000000017f5eb5941039fbcee6240d03bc1f2f8e35350df66a1d8", "vout": [{"scriptPubKey": {"reqSigs": 1, "hex": "76a914d243e6abb9a60fbff430b421d2df4b7d59ec186088ac", "addresses": ["1LAnF8h3qMGx3TSwNUHVneBZUEpwE4gu3D"], "asm": "OP_DUP OP_HASH160 d243e6abb9a60fbff430b421d2df4b7d59ec1860 OP_EQUALVERIFY OP_CHECKSIG", "type": "pubkeyhash"}, "value": 0.00077314, "n": 0}, {"scriptPubKey": {"reqSigs": 1, "hex": "76a914e31c3dc57f6f235f0f482ae82c998b2efc08300788ac", "addresses": ["1MhrDnXycxEVHjJVkasiFnzoDTcon4mUWN"], "asm": "OP_DUP OP_HASH160 e31c3dc57f6f235f0f482ae82c998b2efc083007 OP_EQUALVERIFY OP_CHECKSIG", "type": "pubkeyhash"}, "value": 5.46e-06, "n": 1}, {"scriptPubKey": {"type": "nulldata", "hex": "6a146f6d6e69000000000000001f00000644a2e995c0", "asm": "OP_RETURN 6f6d6e69000000000000001f00000644a2e995c0"}, "value": 0.0, "n": 2}], "hex": "0100000001eedb36a152d0ce50ac8249af65472995b5bf8e43b0e29ed05f51edf2507cf995000000006a4730440220429813a27d941fbf29becd5470ee17b113e52a3cc946d321ecf4a289cdd9f844022019b776453c9e4dd65258562c8edfb4f8cec6bcd298ece22ef1256f333482ea1901210271977291b74f1f5f5c42157e8aae804664eaaeccfd097918450d37f28fb94d77ffffffff03022e0100000000001976a914d243e6abb9a60fbff430b421d2df4b7d59ec186088ac22020000000000001976a914e31c3dc57f6f235f0f482ae82c998b2efc08300788ac0000000000000000166a146f6d6e69000000000000001f00000644a2e995c000000000", "vin": [{"sequence": 4294967295, "scriptSig": {"hex": "4730440220429813a27d941fbf29becd5470ee17b113e52a3cc946d321ecf4a289cdd9f844022019b776453c9e4dd65258562c8edfb4f8cec6bcd298ece22ef1256f333482ea1901210271977291b74f1f5f5c42157e8aae804664eaaeccfd097918450d37f28fb94d77", "asm": "30440220429813a27d941fbf29becd5470ee17b113e52a3cc946d321ecf4a289cdd9f844022019b776453c9e4dd65258562c8edfb4f8cec6bcd298ece22ef1256f333482ea19[ALL] 0271977291b74f1f5f5c42157e8aae804664eaaeccfd097918450d37f28fb94d77"}, "vout": 0, "txid": "95f97c50f2ed515fd09ee2b0438ebfb595294765af4982ac50ced052a136dbee"}], "txid": "6370bd3aadc438c0648df11af8d2bc8e1f1c351f7727fa3d33688b9465f13a11", "blocktime": 1537874412, "version": 1, "confirmations": 11467, "time": 1537874412, "locktime": 0, "vsize": 256, "size": 256}