{"hash": "637000bbc63d4a42844ea6eb3aa65fc51fa640fef320eb1a40c91d63cf4b4827", "blockhash": "000000000000000000022b45ed06c6f4ccd3cf7fb5ba4856ebd2e58215665228", "vout": [{"scriptPubKey": {"reqSigs": 1, "hex": "76a9143fa1f4e03c42da4a0cfeac71dea19986f65e5d3b88ac", "addresses": ["16oTb2Mt8PzqtRjTaq2mE8risbf2am9Knc"], "asm": "OP_DUP OP_HASH160 3fa1f4e03c42da4a0cfeac71dea19986f65e5d3b OP_EQUALVERIFY OP_CHECKSIG", "type": "pubkeyhash"}, "value": 0.020078, "n": 0}, {"scriptPubKey": {"reqSigs": 1, "hex": "76a9147e36529cdcfa1c4e5e5b28a0f31ad1a775f128e188ac", "addresses": ["1CWMDaYoPkh6w3gyBkpa5TUBbUFFuBe3D6"], "asm": "OP_DUP OP_HASH160 7e36529cdcfa1c4e5e5b28a0f31ad1a775f128e1 OP_EQUALVERIFY OP_CHECKSIG", "type": "pubkeyhash"}, "value": 0.0183719, "n": 1}], "hex": "0100000001b213bfb8f6f5fc46575460e0c21315e58d00a2cba527abb1994e381def439ecb010000006a47304402202ccd27f800a9f144d48d80afc97b7290107b7c1bf12498b85b15bc22de29983d02206d1947abcb65b6564dcb596c1fa0ae4c67da659d99979d95d5df68dda507595f0121034cf26a62a94c90099ac418af1533cbfb150ab3ae64fec3f70867c431aff49480ffffffff02f8a21e00000000001976a9143fa1f4e03c42da4a0cfeac71dea19986f65e5d3b88ac86081c00000000001976a9147e36529cdcfa1c4e5e5b28a0f31ad1a775f128e188ac00000000", "vin": [{"sequence": 4294967295, "scriptSig": {"hex": "47304402202ccd27f800a9f144d48d80afc97b7290107b7c1bf12498b85b15bc22de29983d02206d1947abcb65b6564dcb596c1fa0ae4c67da659d99979d95d5df68dda507595f0121034cf26a62a94c90099ac418af1533cbfb150ab3ae64fec3f70867c431aff49480", "asm": "304402202ccd27f800a9f144d48d80afc97b7290107b7c1bf12498b85b15bc22de29983d02206d1947abcb65b6564dcb596c1fa0ae4c67da659d99979d95d5df68dda507595f[ALL] 034cf26a62a94c90099ac418af1533cbfb150ab3ae64fec3f70867c431aff49480"}, "vout": 1, "txid": "cb9e43ef1d384e99b1ab27a5cba2008de51513c2e060545746fcf5f6b8bf13b2"}], "txid": "637000bbc63d4a42844ea6eb3aa65fc51fa640fef320eb1a40c91d63cf4b4827", "blocktime": 1537869901, "version": 1, "confirmations": 11522, "time": 1537869901, "locktime": 0, "vsize": 225, "size": 225}