{"hash": "6374d8511535daf6b759d23f58caa7083cbeb9821be207b28646809bae4a3b1e", "blockhash": "0000000000000000001e0dab787dd257d1dbfcb92a98c2207d5e1078be1f4165", "vout": [{"scriptPubKey": {"reqSigs": 1, "hex": "76a9148bbf4fbfe94edc4cd8ab1a762732ae6c5d9a747a88ac", "addresses": ["1Djv7DssBGeU2ax8rJgyD4Hfv35NxXoe27"], "asm": "OP_DUP OP_HASH160 8bbf4fbfe94edc4cd8ab1a762732ae6c5d9a747a OP_EQUALVERIFY OP_CHECKSIG", "type": "pubkeyhash"}, "value": 0.01250797, "n": 0}, {"scriptPubKey": {"reqSigs": 1, "hex": "0014efaa49d23a6d6ad6a3dde7cdcbfc720bbabe51a5", "addresses": ["bc1qa74yn536d44ddg7aulxuhlrjpwatu5d99y046k"], "asm": "0 efaa49d23a6d6ad6a3dde7cdcbfc720bbabe51a5", "type": "witness_v0_keyhash"}, "value": 0.00048588, "n": 1}], "hex": "0100000001ac41959401adbb60996b338d69de5719001882a018c1b46892eea0b9082870e15c0000006b483045022100b6725c63d708680831a757cbec825289991b373e70a332e38c72f453da3bb293022071857729965fe6729bf6970ee03b6df315243836261b5107e467eb43c073703c012103c23e2f053237c27865ba716264fa81072307fc3fcdda16af20f06dae57755d81ffffffff02ed151300000000001976a9148bbf4fbfe94edc4cd8ab1a762732ae6c5d9a747a88acccbd000000000000160014efaa49d23a6d6ad6a3dde7cdcbfc720bbabe51a500000000", "vin": [{"sequence": 4294967295, "scriptSig": {"hex": "483045022100b6725c63d708680831a757cbec825289991b373e70a332e38c72f453da3bb293022071857729965fe6729bf6970ee03b6df315243836261b5107e467eb43c073703c012103c23e2f053237c27865ba716264fa81072307fc3fcdda16af20f06dae57755d81", "asm": "3045022100b6725c63d708680831a757cbec825289991b373e70a332e38c72f453da3bb293022071857729965fe6729bf6970ee03b6df315243836261b5107e467eb43c073703c[ALL] 03c23e2f053237c27865ba716264fa81072307fc3fcdda16af20f06dae57755d81"}, "vout": 92, "txid": "e1702808b9a0ee9268b4c118a08218001957de698d336b9960bbad01949541ac"}], "txid": "6374d8511535daf6b759d23f58caa7083cbeb9821be207b28646809bae4a3b1e", "blocktime": 1537872475, "version": 1, "confirmations": 11487, "time": 1537872475, "locktime": 0, "vsize": 223, "size": 223}