{"hash": "0e2e72c3d204021a69735f93e5eda65ab26d03663fba5066f24db94f4276eac1", "blockhash": "0000000000000000001cda96e906b7601b7a6fb1a3b62bca570a9e5d8f4b3de1", "vout": [{"scriptPubKey": {"reqSigs": 1, "hex": "a914ff7b561d90151d855f2d0870e9b2d9e269132bfd87", "addresses": ["3Qysz2Hi4q7U9czr42spP1GZ9nfRNBtiCE"], "asm": "OP_HASH160 ff7b561d90151d855f2d0870e9b2d9e269132bfd OP_EQUAL", "type": "scripthash"}, "value": 0.022987, "n": 0}, {"scriptPubKey": {"reqSigs": 1, "hex": "a914dee0a1cc9f055700143e0f4ecee53180ab3530dc87", "addresses": ["3N1V2qWA5hpScEmS72pMooYRmXUiLmwPQQ"], "asm": "OP_HASH160 dee0a1cc9f055700143e0f4ecee53180ab3530dc OP_EQUAL", "type": "scripthash"}, "value": 0.46717454, "n": 1}], "hex": "020000000001010627d050056054786c24a1866c9b3d0e605e685d90523923c5ffa2046687f60b0100000017160014cb5dbe423de4d42b6425c6921084c6197a5d2937ffffffff024c1323000000000017a914ff7b561d90151d855f2d0870e9b2d9e269132bfd870edac8020000000017a914dee0a1cc9f055700143e0f4ecee53180ab3530dc8702483045022100c9b0d180263f9acdb27dd2a64e3c0d2647f838f5377d08e8c3d126d99f3eff2202205aa969eb5d074edad4a8617c8e186f9836fbc0f35562fa6f41502cd75d0f61ed012102acecad485eda786cbe0422823b7594aea6854abb5ec85e267f1c4b87f3f758f700000000", "vin": [{"txinwitness": ["3045022100c9b0d180263f9acdb27dd2a64e3c0d2647f838f5377d08e8c3d126d99f3eff2202205aa969eb5d074edad4a8617c8e186f9836fbc0f35562fa6f41502cd75d0f61ed01", "02acecad485eda786cbe0422823b7594aea6854abb5ec85e267f1c4b87f3f758f7"], "sequence": 4294967295, "scriptSig": {"hex": "160014cb5dbe423de4d42b6425c6921084c6197a5d2937", "asm": "0014cb5dbe423de4d42b6425c6921084c6197a5d2937"}, "vout": 1, "txid": "0bf6876604a2ffc5233952905d685e600e3d9b6c86a1246c7854600550d02706"}], "txid": "6374edecfed3262e3a42d9f3d483be8af74e97cb871746bdcd1301972df74495", "blocktime": 1537873282, "version": 2, "confirmations": 11481, "time": 1537873282, "locktime": 0, "vsize": 166, "size": 248}