{"hash": "6375040d623fda38ea5468fd97013aca0214dc7a5593c1ab8d1d0d2012a1d183", "blockhash": "00000000000000000018f53835495a110e01622372bf6ae95dc86f2b0ab887b0", "vout": [{"scriptPubKey": {"reqSigs": 1, "hex": "76a914627db1f72a656424653fc5cf354e65607bb7db8e88ac", "addresses": ["19ymoFhZGfCiYZWtNdx7p9VnVH9HZjR33b"], "asm": "OP_DUP OP_HASH160 627db1f72a656424653fc5cf354e65607bb7db8e OP_EQUALVERIFY OP_CHECKSIG", "type": "pubkeyhash"}, "value": 0.00074789, "n": 0}, {"scriptPubKey": {"reqSigs": 1, "hex": "a9148a65ff0029b060e3cf04972a7aaabfa63ede72b187", "addresses": ["3EJoMq4DQvCPs63Ng1w5E4ijDfRxJEB7AG"], "asm": "OP_HASH160 8a65ff0029b060e3cf04972a7aaabfa63ede72b1 OP_EQUAL", "type": "scripthash"}, "value": 0.00156201, "n": 1}], "hex": "010000000181801a98288a02808d4de49ae3d4ccf728957f8bfae003c48ac03f58d1d3e672000000006a4730440220200d1fab59bf8a89a6352ab787fad64ec6b7459a39fc5e61bb14f7077e5663ab02202ff15cd40f32530c45a58d2ae6d874f44e08e59cacde9dec1144505790ebf3630121035430a787f9bf3ccbf3f7aa40c54f755d51d27a77b17e793f983a7e66faea6410ffffffff0225240100000000001976a914627db1f72a656424653fc5cf354e65607bb7db8e88ac296202000000000017a9148a65ff0029b060e3cf04972a7aaabfa63ede72b18700000000", "vin": [{"sequence": 4294967295, "scriptSig": {"hex": "4730440220200d1fab59bf8a89a6352ab787fad64ec6b7459a39fc5e61bb14f7077e5663ab02202ff15cd40f32530c45a58d2ae6d874f44e08e59cacde9dec1144505790ebf3630121035430a787f9bf3ccbf3f7aa40c54f755d51d27a77b17e793f983a7e66faea6410", "asm": "30440220200d1fab59bf8a89a6352ab787fad64ec6b7459a39fc5e61bb14f7077e5663ab02202ff15cd40f32530c45a58d2ae6d874f44e08e59cacde9dec1144505790ebf363[ALL] 035430a787f9bf3ccbf3f7aa40c54f755d51d27a77b17e793f983a7e66faea6410"}, "vout": 0, "txid": "72e6d3d1583fc08ac403e0fa8b7f9528f7ccd4e39ae44d8d80028a28981a8081"}], "txid": "6375040d623fda38ea5468fd97013aca0214dc7a5593c1ab8d1d0d2012a1d183", "blocktime": 1537870928, "version": 1, "confirmations": 11514, "time": 1537870928, "locktime": 0, "vsize": 223, "size": 223}