{"hash": "7ece8b2642120f59f2b147d9683e9fcaee45f975c2d75fff0d123dcc3823c181", "blockhash": "00000000000000000017f5eb5941039fbcee6240d03bc1f2f8e35350df66a1d8", "vout": [{"scriptPubKey": {"reqSigs": 1, "hex": "a914cb63a5f6f71e660d896e9d5300da8e3379f8547787", "addresses": ["3LESUAr3cDjd8BtVCPVLuGMihbHYXXEA6i"], "asm": "OP_HASH160 cb63a5f6f71e660d896e9d5300da8e3379f85477 OP_EQUAL", "type": "scripthash"}, "value": 4.14195743, "n": 0}, {"scriptPubKey": {"reqSigs": 1, "hex": "76a914265c5421e50830c7b73bc787a53469313d9ec6f588ac", "addresses": ["14VqHPyQvDXADcbDdbnnsrpWCD5as9Sad7"], "asm": "OP_DUP OP_HASH160 265c5421e50830c7b73bc787a53469313d9ec6f5 OP_EQUALVERIFY OP_CHECKSIG", "type": "pubkeyhash"}, "value": 0.002035, "n": 1}], "hex": "02000000000101483454bc54e9c0b55c79cc8c02b70b5471c8898adaf1da43b80468f8355a0aac010000001716001407e78f1c96270ec2cac9d4534bd29dfe6e210786feffffff021f20b0180000000017a914cb63a5f6f71e660d896e9d5300da8e3379f8547787ec1a0300000000001976a914265c5421e50830c7b73bc787a53469313d9ec6f588ac024830450221008dc74b48bc2893a449e74862bbd2564096a4f14bc2b0289bc9419c7e1721b51002200e4660c69c7004098935be18ba4eec28287f5ffe022805cad674537da7daf2d60121027ea5fcb10ba354589a367c59fc14d4905c42643484520b58f2fadeac05578cfc15490800", "vin": [{"txinwitness": ["30450221008dc74b48bc2893a449e74862bbd2564096a4f14bc2b0289bc9419c7e1721b51002200e4660c69c7004098935be18ba4eec28287f5ffe022805cad674537da7daf2d601", "027ea5fcb10ba354589a367c59fc14d4905c42643484520b58f2fadeac05578cfc"], "sequence": 4294967294, "scriptSig": {"hex": "16001407e78f1c96270ec2cac9d4534bd29dfe6e210786", "asm": "001407e78f1c96270ec2cac9d4534bd29dfe6e210786"}, "vout": 1, "txid": "ac0a5a35f86804b843daf1da8a89c871540bb7028ccc795cb5c0e954bc543448"}], "txid": "6376b040d10c8cbc5e0d99ef60b5c66861a71d7203e7fea57fb986f8f7cf3fe2", "blocktime": 1537874412, "version": 2, "confirmations": 11467, "time": 1537874412, "locktime": 542997, "vsize": 168, "size": 250}