{"hash": "6376600ddf92757ef7c6288f36ffa28c793d561db20027096ce855b72ec9b5d5", "blockhash": "0000000000000000001e0dab787dd257d1dbfcb92a98c2207d5e1078be1f4165", "vout": [{"scriptPubKey": {"reqSigs": 1, "hex": "a914076851e53317ed910aa43f69845ef395384c339b87", "addresses": ["32NBdAGJJVn6mPeWhvyxBLvRWHD5gPrUzD"], "asm": "OP_HASH160 076851e53317ed910aa43f69845ef395384c339b OP_EQUAL", "type": "scripthash"}, "value": 0.00399531, "n": 0}], "hex": "0100000001e615327bf14c1ced66c89fa73715cb6060b8884bb743d0ded3064fdad9beea93170000006b483045022100daded1b2f6cd1f8a0819a49aeaad47796d0e8a5c5202ee282f8006ee700b3ac402202dd8680aad139f49295155b741da5f07637eeb09d25a73fc0fa23dfc0434e9f8012102f47034e113227a660e48d27df3e6b7164d646def3b4535c0141086f52ab2af1affffffff01ab1806000000000017a914076851e53317ed910aa43f69845ef395384c339b8700000000", "vin": [{"sequence": 4294967295, "scriptSig": {"hex": "483045022100daded1b2f6cd1f8a0819a49aeaad47796d0e8a5c5202ee282f8006ee700b3ac402202dd8680aad139f49295155b741da5f07637eeb09d25a73fc0fa23dfc0434e9f8012102f47034e113227a660e48d27df3e6b7164d646def3b4535c0141086f52ab2af1a", "asm": "3045022100daded1b2f6cd1f8a0819a49aeaad47796d0e8a5c5202ee282f8006ee700b3ac402202dd8680aad139f49295155b741da5f07637eeb09d25a73fc0fa23dfc0434e9f8[ALL] 02f47034e113227a660e48d27df3e6b7164d646def3b4535c0141086f52ab2af1a"}, "vout": 23, "txid": "93eabed9da4f06d3ded043b74b88b86060cb1537a79fc866ed1c4cf17b3215e6"}], "txid": "6376600ddf92757ef7c6288f36ffa28c793d561db20027096ce855b72ec9b5d5", "blocktime": 1537872475, "version": 1, "confirmations": 11487, "time": 1537872475, "locktime": 0, "vsize": 190, "size": 190}