{"hash": "cb64a9c1813ec425359cb4abbbadd116d1160a5cdae15f5a550efd717d81b6a3", "blockhash": "0000000000000000001f76057863aec43deb6fa401d9628bb513d65a8098bfab", "vout": [{"scriptPubKey": {"reqSigs": 1, "hex": "a914c8948f84ab8bc2187580e4fb86ecf2a0a06e11cf87", "addresses": ["3Kyb35jwJ7YCiAF7JRfW5VZdpyywKap5YB"], "asm": "OP_HASH160 c8948f84ab8bc2187580e4fb86ecf2a0a06e11cf OP_EQUAL", "type": "scripthash"}, "value": 3.881e-05, "n": 0}, {"scriptPubKey": {"reqSigs": 1, "hex": "a9141d7370ccde4590204155e4074f69743a8e4fac0287", "addresses": ["34Njp4ZKtmCDfqqps26wHBYQQGUo2pGkLi"], "asm": "OP_HASH160 1d7370ccde4590204155e4074f69743a8e4fac02 OP_EQUAL", "type": "scripthash"}, "value": 0.00045075, "n": 1}], "hex": "01000000000101c63db4aa8526b418326a29630e690679e84cb3f6ed8c1c26e98f9d5160758c700000000023220020f63dfc12340f6360d0251c22746d6b56093e3243e96ca012a65484a5d9cf0ec0ffffffff02290f00000000000017a914c8948f84ab8bc2187580e4fb86ecf2a0a06e11cf8713b000000000000017a9141d7370ccde4590204155e4074f69743a8e4fac0287040047304402201255a16ce47c3a8c69828bfc47af92d8684f3ca17c5cc632d76f0c81a710b6ea02207fb31133c069d805e42f743458775b7b1360a39743593901513beae34aac27ba01483045022100fa890bcc553df2476ed9864190763efc66dd92a1a8948e0fed00589e8434860a022002c0e4ed70fb0e41d52f37e0033fd58512410c73c68b275a026ee7564858dfc20147522102097067a6a0cc130a9a6f6577b47bf369b840a79de31cd7457187994266b1bb7c2103338f346cab6ba87fe940591a03ac234be06520c5ab386d4b6632e8eef0d0db7652ae00000000", "vin": [{"txinwitness": ["", "304402201255a16ce47c3a8c69828bfc47af92d8684f3ca17c5cc632d76f0c81a710b6ea02207fb31133c069d805e42f743458775b7b1360a39743593901513beae34aac27ba01", "3045022100fa890bcc553df2476ed9864190763efc66dd92a1a8948e0fed00589e8434860a022002c0e4ed70fb0e41d52f37e0033fd58512410c73c68b275a026ee7564858dfc201", "522102097067a6a0cc130a9a6f6577b47bf369b840a79de31cd7457187994266b1bb7c2103338f346cab6ba87fe940591a03ac234be06520c5ab386d4b6632e8eef0d0db7652ae"], "sequence": 4294967295, "scriptSig": {"hex": "220020f63dfc12340f6360d0251c22746d6b56093e3243e96ca012a65484a5d9cf0ec0", "asm": "0020f63dfc12340f6360d0251c22746d6b56093e3243e96ca012a65484a5d9cf0ec0"}, "vout": 0, "txid": "708c7560519d8fe9261c8cedf6b34ce87906690e63296a3218b42685aab43dc6"}], "txid": "637714a8f29a752d87f6bd70cbe2573f51667cc10b9a411afbd84a03cfa5f6c6", "blocktime": 1537873891, "version": 1, "confirmations": 11478, "time": 1537873891, "locktime": 0, "vsize": 206, "size": 371}