{"hash": "3c86a80be379f0cb18b80538a9787ffe6f588c9a2e98136906974d80df883011", "blockhash": "00000000000000000024a2167bbff67b0be802c0b01cdd79e6331c2be6459f87", "vout": [{"scriptPubKey": {"reqSigs": 1, "hex": "a914959db59e31f28249489afad4f4fb451d1ca79c2887", "addresses": ["3FL7XyG9avVnVJFrGyewqvtBG4YVS98hqD"], "asm": "OP_HASH160 959db59e31f28249489afad4f4fb451d1ca79c28 OP_EQUAL", "type": "scripthash"}, "value": 0.21656402, "n": 0}, {"scriptPubKey": {"reqSigs": 1, "hex": "a9141630ce67c3b89bb61b1bd869a68ce573cd8964f387", "addresses": ["33iMFtBEixLYztwmuJFVZB9HZ5eTbXgH5w"], "asm": "OP_HASH160 1630ce67c3b89bb61b1bd869a68ce573cd8964f3 OP_EQUAL", "type": "scripthash"}, "value": 0.04072995, "n": 1}], "hex": "020000000001015d82eddfbf38bf510aa6c88d6abc30f6c42dd91d5b16475f39869f2afd06de430000000017160014b67f42db27d1ac0b2bcfbdd577756b14606f24cefeffffff0252734a010000000017a914959db59e31f28249489afad4f4fb451d1ca79c288723263e000000000017a9141630ce67c3b89bb61b1bd869a68ce573cd8964f38702483045022100bd8fa9c15e5378059063300a12e61f371bf372cd5cbba7422d201e2a901c7fb702205a956a77d4d8f6c8b4f09700dbbf40d067d5a3f89723e3310b8709f489f83cb501210387c90f2844a219a4715da675da53b540f2a02d2f2d4041e8293eee430f43f49a0d490800", "vin": [{"txinwitness": ["3045022100bd8fa9c15e5378059063300a12e61f371bf372cd5cbba7422d201e2a901c7fb702205a956a77d4d8f6c8b4f09700dbbf40d067d5a3f89723e3310b8709f489f83cb501", "0387c90f2844a219a4715da675da53b540f2a02d2f2d4041e8293eee430f43f49a"], "sequence": 4294967294, "scriptSig": {"hex": "160014b67f42db27d1ac0b2bcfbdd577756b14606f24ce", "asm": "0014b67f42db27d1ac0b2bcfbdd577756b14606f24ce"}, "vout": 0, "txid": "43de06fd2a9f86395f47165b1dd92dc4f630bc6a8dc8a60a51bf38bfdfed825d"}], "txid": "637f815699ffd62801349a2d8272278a6cf4f723dd022a1e3be2efa5267543b4", "blocktime": 1537870564, "version": 2, "confirmations": 11515, "time": 1537870564, "locktime": 542989, "vsize": 166, "size": 248}