{"hash": "460ce2330b452de587fe56f2dbd3c55f73e6b9bb143e3337bae4f4ca22894c9b", "blockhash": "00000000000000000024a2167bbff67b0be802c0b01cdd79e6331c2be6459f87", "vout": [{"scriptPubKey": {"reqSigs": 1, "hex": "76a914cbb4cca7ede91ffe25486fefb02086dd10ed585688ac", "addresses": ["1Ka6m7BzQpWUjgMYbs9EH9PGkq3FysqHYZ"], "asm": "OP_DUP OP_HASH160 cbb4cca7ede91ffe25486fefb02086dd10ed5856 OP_EQUALVERIFY OP_CHECKSIG", "type": "pubkeyhash"}, "value": 0.01071301, "n": 0}, {"scriptPubKey": {"reqSigs": 1, "hex": "76a914efb7282dabc0919d62ecd834a28980f1d5ba2b0988ac", "addresses": ["1NrVupHUHTxrfFdd7oMucqJNgTNj7Hxge5"], "asm": "OP_DUP OP_HASH160 efb7282dabc0919d62ecd834a28980f1d5ba2b09 OP_EQUALVERIFY OP_CHECKSIG", "type": "pubkeyhash"}, "value": 0.11577032, "n": 1}], "hex": "0200000000010233f3ef711f6ca8ddcfbe0352443c1c0732eccd0e7d7c4d1e6275998cc6a41b07010000006b483045022100bf6986b6c5113e180b232519504046b2e7689f6180d0acdc41e2cd5f68f60ac202203d5620811a4b5d6a885f95d099bec5dfaa3305d96b3ceb0546adf31683d2388401210325eb614f992bc8e0afeaaed93662a8f05d759d3ae798dd09ce38bdb8627ec855feffffff4b9d94c8136828fbdaf3cfc5d5149b49d35c577f898509123fe59fe999f026ff0100000017160014e922bf8a859be276c66d7b644af9f47e84283b1ffeffffff02c5581000000000001976a914cbb4cca7ede91ffe25486fefb02086dd10ed585688acc8a6b000000000001976a914efb7282dabc0919d62ecd834a28980f1d5ba2b0988ac0002473044022052796d35dabcbad2b458e6aedb7f34b53a78f2f0011c77554c9e76f4df85a127022038fda6f67fbd182475e69101d56a3ae5f36d4b98b97f6a5d297f4f376ec6dbd4012103a05fdd420c7143f7b1ad01f563d2d871dc31f2e8de7c1ae8bf8964942d6fff8f0d490800", "vin": [{"sequence": 4294967294, "scriptSig": {"hex": "483045022100bf6986b6c5113e180b232519504046b2e7689f6180d0acdc41e2cd5f68f60ac202203d5620811a4b5d6a885f95d099bec5dfaa3305d96b3ceb0546adf31683d2388401210325eb614f992bc8e0afeaaed93662a8f05d759d3ae798dd09ce38bdb8627ec855", "asm": "3045022100bf6986b6c5113e180b232519504046b2e7689f6180d0acdc41e2cd5f68f60ac202203d5620811a4b5d6a885f95d099bec5dfaa3305d96b3ceb0546adf31683d23884[ALL] 0325eb614f992bc8e0afeaaed93662a8f05d759d3ae798dd09ce38bdb8627ec855"}, "vout": 1, "txid": "071ba4c68c9975621e4d7c7d0ecdec32071c3c445203becfdda86c1f71eff333"}, {"txinwitness": ["3044022052796d35dabcbad2b458e6aedb7f34b53a78f2f0011c77554c9e76f4df85a127022038fda6f67fbd182475e69101d56a3ae5f36d4b98b97f6a5d297f4f376ec6dbd401", "03a05fdd420c7143f7b1ad01f563d2d871dc31f2e8de7c1ae8bf8964942d6fff8f"], "sequence": 4294967294, "scriptSig": {"hex": "160014e922bf8a859be276c66d7b644af9f47e84283b1f", "asm": "0014e922bf8a859be276c66d7b644af9f47e84283b1f"}, "vout": 1, "txid": "ff26f099e99fe53f120985897f575cd3499b14d5c5cff3dafb286813c8949d4b"}], "txid": "637f0179d71013f73fcd353b267071f5ddbcc31c3a54912d33c66fba071241a5", "blocktime": 1537870564, "version": 2, "confirmations": 11515, "time": 1537870564, "locktime": 542989, "vsize": 318, "size": 400}