{"hash": "e6e26ffdc19c03f17f333604c91420cea14d0bf43619fbceb46ad831be3ad1fe", "blockhash": "0000000000000000000e13cef7c366c0283d82e591d1acd082e914b08063cdf1", "vout": [{"scriptPubKey": {"reqSigs": 1, "hex": "a9147ab17f373a6884352c5732c6180e33c95ff3911f87", "addresses": ["3CskzegFtv5X5dBLNDUZdCRNq6DscZnzQN"], "asm": "OP_HASH160 7ab17f373a6884352c5732c6180e33c95ff3911f OP_EQUAL", "type": "scripthash"}, "value": 4.5528285, "n": 0}], "hex": "02000000000108e6c27d49696b8294f956a085c7ac697be56409863917aed98c44eb34dece6fa70100000017160014c030365dbd8289137b43fade48fc4a37dd484cbdffffffff9229c98478c0f94933a6117b647c2765338f9f97e71423050a3024d37286b2a13e000000171600142ebfffebd5be6eb2faf110d728d7dbf18ecdfadcffffffff9229c98478c0f94933a6117b647c2765338f9f97e71423050a3024d37286b2a11e0000001716001483accfc9f3112eece219c079e12b5b4b13fcaf08fffffffff34ae3dd34561029c025e8b93914b8712ac242944a90f2cfd5e89c74996b228c0100000017160014629cf7da1c43f382942c091a330233646a44e2c1ffffffffa1ec561eacb4593e1d1823d8a430b1388d4045254b60953bd00853c8f237c1880100000017160014c6c3553ea39755ba89dad2f54c57c6d1fa12236dffffffffccfd3d45338e005f1a43587fca7484246a3df1ea0635960a497dffe8f4d116600100000017160014029af2d82dace74baca5db23c2e1b609e903fd2effffffff10fb7b71a7e10417d598b1885d1ae48e2b482fa4a584b0ee2a71822273c3c2be01000000171600145517dd88df3c80ba70ed3314968e69df5b4b3759ffffffff5a2deae84ece480e79819dab153d10daca5a238f4d5cfde7347b192ab05e6f1b010000001716001492b506418d4752dbe3d19fe3dc86403d37021eeaffffffff01a210231b0000000017a9147ab17f373a6884352c5732c6180e33c95ff3911f8702473044022057d5e48f545a5c9bf53f6995363f0a36891876bd5b15c749169e7b7cce60a08902206c4b33996a497fd20c925dc75926915ab3c390dabe6151a7d441551a4119b10501210329d9c83c09d534cb99335ed4f909cb23a5c18a435b09b1fa2c0a7d2a72d7617502483045022100cd4ff3cd0a319fd309dad751d2cd27774f04c9748cacf9b20d03203f83f6b38d022031f25ea6b2670bef834cf279ac3750a15c4dc2c8f96753c510d3b0fd5b06db7a0121026d6a52adb76e86cf1d0d6a658f60725170434e640b27945c07d8f9c21a39892102483045022100c1c6c883e3405a18d471a2fd8821081f75ab7eaa4752f0a717c66f8a1280527302204ec69a21b1845bc5544cf98a998f5ca0749556b2d141e409cd8ef5502d74f3a501210300753e165b454d6a7f0ec1fdc99f62784e8d6ab3b32775753244af6a47cc5e320247304402200587bddd87ef9b7f43c06c76040971713e1ba18a077f7a8bb4bce4c13608af8a0220048badb47e497f713af274cda22666fc22e9fe0c31e386f7103fbe349b5ad86e0121036b274b2b4b24e7456b7d4a131aab29879486e8aebd3ee52c32a61be7b7c2c7a902483045022100eca804fcdd5b5abf098211341941c84b565a7eaa4dc7f00de3a3c6fe554543a402206dad50ae614c38be07509a7d21a7e9423d22738dd2046beceae4740907cb35e1012102bb8e57c90aed132c7e54a8858eefa43496e22de0677c3f04e5428d0f9d11958d02483045022100b024389d621a7558d9f056e05bce5fc637e4d2b3028536deee16363724218f8c02206ca4934dbcc687e625afeeefe7b4e4c02b43e8606c49e500bab4946db4fd11fb012103c641d13318284c6076f1b8046c5c6fb150319f95aa63b4e525cf10ac1654fb9202483045022100f747b4530b243fbadfcb71a7dc524fb29b9f081529695fb0c4666941314e081602202c24f3556c639b2ca42391f752233c5a9fa3f78b907353e0832b418bb806c5b20121036b169c3bd6a98866950dde4e43f5d918891dfe13c2c385d850bd3410f03529590247304402203432b60ff57cd2c8b8ac617345e73a82879def76ed8ac0ed4f82261a3d5e6a2e02200af1d867bde3206dcce2d00227ecf5feb3c8187e568210ab073f2be7c7978b6e012103578d99bbdd1fffb98f6099789e61b510e277c48e021c914445032b43145b931800000000", "vin": [{"txinwitness": ["3044022057d5e48f545a5c9bf53f6995363f0a36891876bd5b15c749169e7b7cce60a08902206c4b33996a497fd20c925dc75926915ab3c390dabe6151a7d441551a4119b10501", "0329d9c83c09d534cb99335ed4f909cb23a5c18a435b09b1fa2c0a7d2a72d76175"], "sequence": 4294967295, "scriptSig": {"hex": "160014c030365dbd8289137b43fade48fc4a37dd484cbd", "asm": "0014c030365dbd8289137b43fade48fc4a37dd484cbd"}, "vout": 1, "txid": "a76fcede34eb448cd9ae1739860964e57b69acc785a056f994826b69497dc2e6"}, {"txinwitness": ["3045022100cd4ff3cd0a319fd309dad751d2cd27774f04c9748cacf9b20d03203f83f6b38d022031f25ea6b2670bef834cf279ac3750a15c4dc2c8f96753c510d3b0fd5b06db7a01", "026d6a52adb76e86cf1d0d6a658f60725170434e640b27945c07d8f9c21a398921"], "sequence": 4294967295, "scriptSig": {"hex": "1600142ebfffebd5be6eb2faf110d728d7dbf18ecdfadc", "asm": "00142ebfffebd5be6eb2faf110d728d7dbf18ecdfadc"}, "vout": 62, "txid": "a1b28672d324300a052314e7979f8f3365277c647b11a63349f9c07884c92992"}, {"txinwitness": ["3045022100c1c6c883e3405a18d471a2fd8821081f75ab7eaa4752f0a717c66f8a1280527302204ec69a21b1845bc5544cf98a998f5ca0749556b2d141e409cd8ef5502d74f3a501", "0300753e165b454d6a7f0ec1fdc99f62784e8d6ab3b32775753244af6a47cc5e32"], "sequence": 4294967295, "scriptSig": {"hex": "16001483accfc9f3112eece219c079e12b5b4b13fcaf08", "asm": "001483accfc9f3112eece219c079e12b5b4b13fcaf08"}, "vout": 30, "txid": "a1b28672d324300a052314e7979f8f3365277c647b11a63349f9c07884c92992"}, {"txinwitness": ["304402200587bddd87ef9b7f43c06c76040971713e1ba18a077f7a8bb4bce4c13608af8a0220048badb47e497f713af274cda22666fc22e9fe0c31e386f7103fbe349b5ad86e01", "036b274b2b4b24e7456b7d4a131aab29879486e8aebd3ee52c32a61be7b7c2c7a9"], "sequence": 4294967295, "scriptSig": {"hex": "160014629cf7da1c43f382942c091a330233646a44e2c1", "asm": "0014629cf7da1c43f382942c091a330233646a44e2c1"}, "vout": 1, "txid": "8c226b99749ce8d5cff2904a9442c22a71b81439b9e825c029105634dde34af3"}, {"txinwitness": ["3045022100eca804fcdd5b5abf098211341941c84b565a7eaa4dc7f00de3a3c6fe554543a402206dad50ae614c38be07509a7d21a7e9423d22738dd2046beceae4740907cb35e101", "02bb8e57c90aed132c7e54a8858eefa43496e22de0677c3f04e5428d0f9d11958d"], "sequence": 4294967295, "scriptSig": {"hex": "160014c6c3553ea39755ba89dad2f54c57c6d1fa12236d", "asm": "0014c6c3553ea39755ba89dad2f54c57c6d1fa12236d"}, "vout": 1, "txid": "88c137f2c85308d03b95604b2545408d38b130a4d823181d3e59b4ac1e56eca1"}, {"txinwitness": ["3045022100b024389d621a7558d9f056e05bce5fc637e4d2b3028536deee16363724218f8c02206ca4934dbcc687e625afeeefe7b4e4c02b43e8606c49e500bab4946db4fd11fb01", "03c641d13318284c6076f1b8046c5c6fb150319f95aa63b4e525cf10ac1654fb92"], "sequence": 4294967295, "scriptSig": {"hex": "160014029af2d82dace74baca5db23c2e1b609e903fd2e", "asm": "0014029af2d82dace74baca5db23c2e1b609e903fd2e"}, "vout": 1, "txid": "6016d1f4e8ff7d490a963506eaf13d6a248474ca7f58431a5f008e33453dfdcc"}, {"txinwitness": ["3045022100f747b4530b243fbadfcb71a7dc524fb29b9f081529695fb0c4666941314e081602202c24f3556c639b2ca42391f752233c5a9fa3f78b907353e0832b418bb806c5b201", "036b169c3bd6a98866950dde4e43f5d918891dfe13c2c385d850bd3410f0352959"], "sequence": 4294967295, "scriptSig": {"hex": "1600145517dd88df3c80ba70ed3314968e69df5b4b3759", "asm": "00145517dd88df3c80ba70ed3314968e69df5b4b3759"}, "vout": 1, "txid": "bec2c3732282712aeeb084a5a42f482b8ee41a5d88b198d51704e1a7717bfb10"}, {"txinwitness": ["304402203432b60ff57cd2c8b8ac617345e73a82879def76ed8ac0ed4f82261a3d5e6a2e02200af1d867bde3206dcce2d00227ecf5feb3c8187e568210ab073f2be7c7978b6e01", "03578d99bbdd1fffb98f6099789e61b510e277c48e021c914445032b43145b9318"], "sequence": 4294967295, "scriptSig": {"hex": "16001492b506418d4752dbe3d19fe3dc86403d37021eea", "asm": "001492b506418d4752dbe3d19fe3dc86403d37021eea"}, "vout": 1, "txid": "1b6f5eb02a197b34e7fd5c4d8f235acada103d15ab9d81790e48ce4ee8ea2d5a"}], "txid": "6381b4f82ab14bf09cae076175a2c66a87f33c2e2d1ce35c4937e95bf4b477f1", "blocktime": 1537871767, "version": 2, "confirmations": 11491, "time": 1537871767, "locktime": 0, "vsize": 770, "size": 1417}