{"hash": "638b5c003c9a502534d69c788e71c142c77588d13a291b4e47ac7a842b124295", "blockhash": "00000000000000000024a2167bbff67b0be802c0b01cdd79e6331c2be6459f87", "vout": [{"scriptPubKey": {"reqSigs": 1, "hex": "76a914912b575185fa88f0e98a001dec98afdf9065da6488ac", "addresses": ["1EEauD1Gm2hUuDwTb3AmRA2yVY48inXSR4"], "asm": "OP_DUP OP_HASH160 912b575185fa88f0e98a001dec98afdf9065da64 OP_EQUALVERIFY OP_CHECKSIG", "type": "pubkeyhash"}, "value": 0.00153024, "n": 0}, {"scriptPubKey": {"type": "nulldata", "hex": "6a4c500000777c0001b5e35f1de28bd9246c8a4ea5bcbefa6b8351586b4e86aeaeacb577c031fc188e23a49bea01f4b5f926be4d26c66a5baa0a0d0614ac97a78d2db7bc9a9526289ac0f6612cd74e33776ee4", "asm": "OP_RETURN 0000777c0001b5e35f1de28bd9246c8a4ea5bcbefa6b8351586b4e86aeaeacb577c031fc188e23a49bea01f4b5f926be4d26c66a5baa0a0d0614ac97a78d2db7bc9a9526289ac0f6612cd74e33776ee4"}, "value": 0.0, "n": 1}], "hex": "010000000118d21429a0d01413dfdc5df58dc976569c4f1af5028d5ef35e010da9c12df38d000000006a473044022000fa13d94af165d1bed93d9aee3ba24cad747ef146392a15553a0d31822c24d202207a34af72ad5afc511db159fc0841fa51db2e5df80bd35e79463c14fdb1d20998012103bcfbcdaeedda45677d5052270c976e66971f19a8a13ae6b9ef0e519118f16bf7ffffffff02c0550200000000001976a914912b575185fa88f0e98a001dec98afdf9065da6488ac0000000000000000536a4c500000777c0001b5e35f1de28bd9246c8a4ea5bcbefa6b8351586b4e86aeaeacb577c031fc188e23a49bea01f4b5f926be4d26c66a5baa0a0d0614ac97a78d2db7bc9a9526289ac0f6612cd74e33776ee400000000", "vin": [{"sequence": 4294967295, "scriptSig": {"hex": "473044022000fa13d94af165d1bed93d9aee3ba24cad747ef146392a15553a0d31822c24d202207a34af72ad5afc511db159fc0841fa51db2e5df80bd35e79463c14fdb1d20998012103bcfbcdaeedda45677d5052270c976e66971f19a8a13ae6b9ef0e519118f16bf7", "asm": "3044022000fa13d94af165d1bed93d9aee3ba24cad747ef146392a15553a0d31822c24d202207a34af72ad5afc511db159fc0841fa51db2e5df80bd35e79463c14fdb1d20998[ALL] 03bcfbcdaeedda45677d5052270c976e66971f19a8a13ae6b9ef0e519118f16bf7"}, "vout": 0, "txid": "8df32dc1a90d015ef35e8d02f51a4f9c5676c98df55ddcdf1314d0a02914d218"}], "txid": "638b5c003c9a502534d69c788e71c142c77588d13a291b4e47ac7a842b124295", "blocktime": 1537870564, "version": 1, "confirmations": 11515, "time": 1537870564, "locktime": 0, "vsize": 283, "size": 283}