{"hash": "639bcae2aa20a9662d903fff8ce09befb35fea885a487d309fc736a73ba02812", "blockhash": "0000000000000000000e13cef7c366c0283d82e591d1acd082e914b08063cdf1", "vout": [{"scriptPubKey": {"reqSigs": 1, "hex": "a91478e9a123a3d5a089708cfb25bc0c2de8a207b7be87", "addresses": ["3CiLtRSTLD8b859ScRXAAJ1tCnj6dXJimM"], "asm": "OP_HASH160 78e9a123a3d5a089708cfb25bc0c2de8a207b7be OP_EQUAL", "type": "scripthash"}, "value": 0.27107, "n": 0}, {"scriptPubKey": {"reqSigs": 1, "hex": "76a914d5ba2eb2d52670fbe9522748bf642da754eb0d6f88ac", "addresses": ["1LV5y3NkVkmdWnF6xRCEXrAnUkRgge4KSq"], "asm": "OP_DUP OP_HASH160 d5ba2eb2d52670fbe9522748bf642da754eb0d6f OP_EQUALVERIFY OP_CHECKSIG", "type": "pubkeyhash"}, "value": 15.76253617, "n": 1}], "hex": "01000000011cb986b6c31883b5830f94f51c1ec36c2d85fa9f609a92e3565b1663f760c359010000006a473044022061bd1a96529677c68b3eca6eda41f0ee77cf3acb659a5cc6a15cb124371a0a68022027689dbfc764be28da6a4f5b13ad49fe78a9dc913c6658c24c3aa86e64856577012102c19ebc0e7fe714e24c55adaeebc7dbab2dc9a208b511bd1b6e83db85506d4d19ffffffff02b89e9d010000000017a91478e9a123a3d5a089708cfb25bc0c2de8a207b7be87b1b8f35d000000001976a914d5ba2eb2d52670fbe9522748bf642da754eb0d6f88ac00000000", "vin": [{"sequence": 4294967295, "scriptSig": {"hex": "473044022061bd1a96529677c68b3eca6eda41f0ee77cf3acb659a5cc6a15cb124371a0a68022027689dbfc764be28da6a4f5b13ad49fe78a9dc913c6658c24c3aa86e64856577012102c19ebc0e7fe714e24c55adaeebc7dbab2dc9a208b511bd1b6e83db85506d4d19", "asm": "3044022061bd1a96529677c68b3eca6eda41f0ee77cf3acb659a5cc6a15cb124371a0a68022027689dbfc764be28da6a4f5b13ad49fe78a9dc913c6658c24c3aa86e64856577[ALL] 02c19ebc0e7fe714e24c55adaeebc7dbab2dc9a208b511bd1b6e83db85506d4d19"}, "vout": 1, "txid": "59c360f763165b56e3929a609ffa852d6cc31e1cf5940f83b58318c3b686b91c"}], "txid": "639bcae2aa20a9662d903fff8ce09befb35fea885a487d309fc736a73ba02812", "blocktime": 1537871767, "version": 1, "confirmations": 11494, "time": 1537871767, "locktime": 0, "vsize": 223, "size": 223}