{"hash": "639ca2e9bc91346e35ea69945aefc7e4e2b5812376d9bb2940ed843283509f85", "blockhash": "0000000000000000000baef3f32e3676a92c3b2e5da21b426e4f302fc371ce76", "vout": [{"scriptPubKey": {"reqSigs": 1, "hex": "a914880d4d8b7777a3e084cd2f87e04daf5f01937adb87", "addresses": ["3E6PkwBiRRwLvaicoLTNBNb5BEF7NGiq1U"], "asm": "OP_HASH160 880d4d8b7777a3e084cd2f87e04daf5f01937adb OP_EQUAL", "type": "scripthash"}, "value": 0.07323, "n": 0}, {"scriptPubKey": {"reqSigs": 1, "hex": "76a9146929f90265f021a3ae9656df5edd1cccf61a25bc88ac", "addresses": ["1Ab4ETT3pzeLNeXHHUhudNabWZUBM1MUJS"], "asm": "OP_DUP OP_HASH160 6929f90265f021a3ae9656df5edd1cccf61a25bc OP_EQUALVERIFY OP_CHECKSIG", "type": "pubkeyhash"}, "value": 3.14319335, "n": 1}], "hex": "02000000013130054465b4f7d200949603e3cd507338e177aca9f3dc4e4b0b1ef7ae40c648000000006a47304402204d92ea61d4602b2de708ade1b70db84c459451eb56f28772662528ae7973bcf302206d12d9da375d5ade44724717c6220d1389d726fff4039485d07c3cdd7c128187012102f9cb266c3901af4df5ab24aef8b02abe3f8a0f2cf5a1735d52e878044e4168e3ffffffff0278bd6f000000000017a914880d4d8b7777a3e084cd2f87e04daf5f01937adb87e721bc12000000001976a9146929f90265f021a3ae9656df5edd1cccf61a25bc88ac00000000", "vin": [{"sequence": 4294967295, "scriptSig": {"hex": "47304402204d92ea61d4602b2de708ade1b70db84c459451eb56f28772662528ae7973bcf302206d12d9da375d5ade44724717c6220d1389d726fff4039485d07c3cdd7c128187012102f9cb266c3901af4df5ab24aef8b02abe3f8a0f2cf5a1735d52e878044e4168e3", "asm": "304402204d92ea61d4602b2de708ade1b70db84c459451eb56f28772662528ae7973bcf302206d12d9da375d5ade44724717c6220d1389d726fff4039485d07c3cdd7c128187[ALL] 02f9cb266c3901af4df5ab24aef8b02abe3f8a0f2cf5a1735d52e878044e4168e3"}, "vout": 0, "txid": "48c640aef71e0b4b4edcf3a9ac77e1387350cde303969400d2f7b46544053031"}], "txid": "639ca2e9bc91346e35ea69945aefc7e4e2b5812376d9bb2940ed843283509f85", "blocktime": 1537876114, "version": 2, "confirmations": 11459, "time": 1537876114, "locktime": 0, "vsize": 223, "size": 223}