{"hash": "63a9ca8aad4265b6fe7b903eaf0d2600a19675d43bcfe5f0b9776995e06aa415", "blockhash": "0000000000000000000e13cef7c366c0283d82e591d1acd082e914b08063cdf1", "vout": [{"scriptPubKey": {"type": "nulldata", "hex": "6a4c50000077950001150e348d29002203bd591c78e3ef3236678a625097bcbefa6b8351586b4e45122b622407314aa32800f435de17b75baa0cee0614b29531213609bc9a9526289ac0f6612cd74e33776ee4", "asm": "OP_RETURN 000077950001150e348d29002203bd591c78e3ef3236678a625097bcbefa6b8351586b4e45122b622407314aa32800f435de17b75baa0cee0614b29531213609bc9a9526289ac0f6612cd74e33776ee4"}, "value": 0.0, "n": 0}, {"scriptPubKey": {"reqSigs": 1, "hex": "76a9147de52fb3dac242135cc0285f5a4c18ba089a2c6488ac", "addresses": ["1CUg28EdxdKM3NRavFWUZRVLuDCsknAmjn"], "asm": "OP_DUP OP_HASH160 7de52fb3dac242135cc0285f5a4c18ba089a2c64 OP_EQUALVERIFY OP_CHECKSIG", "type": "pubkeyhash"}, "value": 0.0223838, "n": 1}], "hex": "01000000018539d144547237b5dbb878fea89904df5ef08d6472a5dd1abe26438335c3e054010000006b483045022100d8c0ac08da4b657fe8c7c21f59cc05f9fafe25e6692510fc71467a23c8ff0be002203105a40fa6887a450c481f224be35e612c816c4545487d1afcb536674ee62c8a0121027935bead47a47167c213bc3b860ee24c4d8b42f62784c51a6a05104da2816f8fffffffff020000000000000000536a4c50000077950001150e348d29002203bd591c78e3ef3236678a625097bcbefa6b8351586b4e45122b622407314aa32800f435de17b75baa0cee0614b29531213609bc9a9526289ac0f6612cd74e33776ee4ac272200000000001976a9147de52fb3dac242135cc0285f5a4c18ba089a2c6488ac00000000", "vin": [{"sequence": 4294967295, "scriptSig": {"hex": "483045022100d8c0ac08da4b657fe8c7c21f59cc05f9fafe25e6692510fc71467a23c8ff0be002203105a40fa6887a450c481f224be35e612c816c4545487d1afcb536674ee62c8a0121027935bead47a47167c213bc3b860ee24c4d8b42f62784c51a6a05104da2816f8f", "asm": "3045022100d8c0ac08da4b657fe8c7c21f59cc05f9fafe25e6692510fc71467a23c8ff0be002203105a40fa6887a450c481f224be35e612c816c4545487d1afcb536674ee62c8a[ALL] 027935bead47a47167c213bc3b860ee24c4d8b42f62784c51a6a05104da2816f8f"}, "vout": 1, "txid": "54e0c335834326be1adda572648df05edf0499a8fe78b8dbb537725444d13985"}], "txid": "63a9ca8aad4265b6fe7b903eaf0d2600a19675d43bcfe5f0b9776995e06aa415", "blocktime": 1537871767, "version": 1, "confirmations": 11493, "time": 1537871767, "locktime": 0, "vsize": 284, "size": 284}