{"hash": "63a9c3b0fc4d7055eec3cdf5882c2984b309d97435cbc710794225d609eaa79d", "blockhash": "00000000000000000017f5eb5941039fbcee6240d03bc1f2f8e35350df66a1d8", "vout": [{"scriptPubKey": {"reqSigs": 1, "hex": "76a9143f4034b80a5c9abddaf0917ee084eed45cf61d7088ac", "addresses": ["16mSVC86rdPCjmJtN32T1jUovPELQoaPbN"], "asm": "OP_DUP OP_HASH160 3f4034b80a5c9abddaf0917ee084eed45cf61d70 OP_EQUALVERIFY OP_CHECKSIG", "type": "pubkeyhash"}, "value": 5.46e-06, "n": 0}, {"scriptPubKey": {"reqSigs": 1, "hex": "a9143f4eecba122ad73039d481c8d37f99cb4f887cd887", "addresses": ["37Tm3Qz8Zw2VJrheUUhArDAoq58S6YrS3g"], "asm": "OP_HASH160 3f4eecba122ad73039d481c8d37f99cb4f887cd8 OP_EQUAL", "type": "scripthash"}, "value": 0.99992362, "n": 1}, {"scriptPubKey": {"type": "nulldata", "hex": "6a146f6d6e69000000000000001f00000005392eb9c0", "asm": "OP_RETURN 6f6d6e69000000000000001f00000005392eb9c0"}, "value": 0.0, "n": 2}], "hex": "010000000159c9792181259d62336c45bbca75533f28e12bffc7e3948c2d898cdb3854e9cd01000000fdfd00004730440220172111bb5cd656db3ee8c2d1701bbecd80d5b61b787af57048e1b67fd85de2e70220403d0cec4e862e7d0f6e1023174a8aa0b1033fba389f2a14b976faab2f16986c01483045022100b73fff0f6b22199b02765da44976476e67f63b5ade9c356c04b1addc5fe93dfc022043bb287e1a99b360ea9c781c4936346e9ba4762d0268c3a39253f52fea4309cf014c6952210246ccf4de0c54cc7f3354cdd993c2c50cf965fd82238b89659fbd73a1b4bf05a121024fc59f72272a897fe43803374969f396058152fe4765a8d15216f94624257b1b21022593bc69ecbf3bbcc3c58082267cb49dadaf4ca8dbf1b2297338a9d628c4297653aeffffffff0322020000000000001976a9143f4034b80a5c9abddaf0917ee084eed45cf61d7088ac2ac3f5050000000017a9143f4eecba122ad73039d481c8d37f99cb4f887cd8870000000000000000166a146f6d6e69000000000000001f00000005392eb9c000000000", "vin": [{"sequence": 4294967295, "scriptSig": {"hex": "004730440220172111bb5cd656db3ee8c2d1701bbecd80d5b61b787af57048e1b67fd85de2e70220403d0cec4e862e7d0f6e1023174a8aa0b1033fba389f2a14b976faab2f16986c01483045022100b73fff0f6b22199b02765da44976476e67f63b5ade9c356c04b1addc5fe93dfc022043bb287e1a99b360ea9c781c4936346e9ba4762d0268c3a39253f52fea4309cf014c6952210246ccf4de0c54cc7f3354cdd993c2c50cf965fd82238b89659fbd73a1b4bf05a121024fc59f72272a897fe43803374969f396058152fe4765a8d15216f94624257b1b21022593bc69ecbf3bbcc3c58082267cb49dadaf4ca8dbf1b2297338a9d628c4297653ae", "asm": "0 30440220172111bb5cd656db3ee8c2d1701bbecd80d5b61b787af57048e1b67fd85de2e70220403d0cec4e862e7d0f6e1023174a8aa0b1033fba389f2a14b976faab2f16986c[ALL] 3045022100b73fff0f6b22199b02765da44976476e67f63b5ade9c356c04b1addc5fe93dfc022043bb287e1a99b360ea9c781c4936346e9ba4762d0268c3a39253f52fea4309cf[ALL] 52210246ccf4de0c54cc7f3354cdd993c2c50cf965fd82238b89659fbd73a1b4bf05a121024fc59f72272a897fe43803374969f396058152fe4765a8d15216f94624257b1b21022593bc69ecbf3bbcc3c58082267cb49dadaf4ca8dbf1b2297338a9d628c4297653ae"}, "vout": 1, "txid": "cde95438db8c892d8c94e3c7ff2be1283f5375cabb456c33629d25812179c959"}], "txid": "63a9c3b0fc4d7055eec3cdf5882c2984b309d97435cbc710794225d609eaa79d", "blocktime": 1537874412, "version": 1, "confirmations": 11467, "time": 1537874412, "locktime": 0, "vsize": 403, "size": 403}