{"hash": "63b184c1cb6db99877ffedbb0423d8d7011ff14290d9b9c3e669ea19b2d9bde0", "blockhash": "000000000000000000022b45ed06c6f4ccd3cf7fb5ba4856ebd2e58215665228", "vout": [{"scriptPubKey": {"type": "nulldata", "hex": "6a146f6d6e69000000000000001f000002ba7def3000", "asm": "OP_RETURN 6f6d6e69000000000000001f000002ba7def3000"}, "value": 0.0, "n": 0}, {"scriptPubKey": {"reqSigs": 1, "hex": "76a91479f638878e898187b280ebe6013821f7e7d8ee1f88ac", "addresses": ["1C7siwAX4z2o3Ca1LZ82Zp8XkHJZMnFA3A"], "asm": "OP_DUP OP_HASH160 79f638878e898187b280ebe6013821f7e7d8ee1f OP_EQUALVERIFY OP_CHECKSIG", "type": "pubkeyhash"}, "value": 0.00476013, "n": 1}, {"scriptPubKey": {"reqSigs": 1, "hex": "76a914a25dec4d0011064ef106a983c39c7a540699f22088ac", "addresses": ["1FoWyxwPXuj4C6abqwhjDWdz6D4PZgYRjA"], "asm": "OP_DUP OP_HASH160 a25dec4d0011064ef106a983c39c7a540699f220 OP_EQUALVERIFY OP_CHECKSIG", "type": "pubkeyhash"}, "value": 5.46e-06, "n": 2}], "hex": "010000000a04a4a09510d720212be86af909f2aa5928a2335ecc0ffce41ae3edfce20b2a58010000006a4730440220588a3e3257c903512641637221ae14cc13209ce5fd323eba983d909765bc271b02203713e019e3f5830537324f1b3b80e68565d15d817c34182fa6fa4bbcefac3373012103605f1a479214d7ce72ba8d120099c97db7fd549599c26b02599b201cb9268d0ffeffffff0601532e13ffe337591bff244408ae64d3e334b843e78fa7ff53a758586d3474010000006a47304402205f99c20f64d315a6c2b496f71313edcc44b0d06af0900f50842dc6c8472cd5c402201e5d6304c1eb3c0768b10c8861d7eb8c8bcc34317ae5bbfe356afe40936364c3012103605f1a479214d7ce72ba8d120099c97db7fd549599c26b02599b201cb9268d0ffeffffff0fc8654e5c48b1162ccb3547801f137625502e78025a33d33bf885fdd2d5a383020000006b483045022100b4342dd246b267bba22628704dae1ff85e49dc5577d5919ad16ad1314271b7c502205ecbbf280368b52b2d1672b92dea116e51d611d03e9aa71e707ada518d078f5c012103605f1a479214d7ce72ba8d120099c97db7fd549599c26b02599b201cb9268d0ffeffffff12913ed72ed0ace0392d3511ffae2e3d18e9b47a878f0af4e5137298c2aa653d020000006b4830450221009d4b5c0f8787d8a7a996eec655d2da65d24b7ccd75ff35f1c2feb0734ccc565702202b0e0663ed92fe1b5647ae8048452d0578a1e9b4845c8aafd8009869f50cb6b4012103605f1a479214d7ce72ba8d120099c97db7fd549599c26b02599b201cb9268d0ffeffffff12ea3c7ff05ddbf268756e7e427d8276f6d2014c51239c31f8c3ac4939e94c63020000006b483045022100aaddec7c9f767771237f1d3d491c6720435ff76a27810614f4429719d646b25002207dd484394425da19ead39aa2fa610f510645904e4b60a8f12bc050520ca16eb4012103605f1a479214d7ce72ba8d120099c97db7fd549599c26b02599b201cb9268d0ffeffffff1b4b0f581444076acbcde354aca667378426dff145bca2f17e31e1f1a3805301020000006b483045022100c4f4c59f036a91e262f47a3c0cfbf393252c170c30d9bf284def330ba00aa704022011863064d88c8f3faeaae0fa5e482d8499a1df27f0900f3b578619a5de3e8d80012103605f1a479214d7ce72ba8d120099c97db7fd549599c26b02599b201cb9268d0ffeffffff1f143907db88b2d7b7d22c1d37dd9aa6399c146935dfbcd4974a0d0f3e0d706d020000006a47304402206140d34297c04d6176cf37fec82e880b26b421fcfb6df685f28d7845a07da00d02202c3285e059f5771c5b8d7a837e6b547e9dd7f3df35486097f640439e9341ae73012103605f1a479214d7ce72ba8d120099c97db7fd549599c26b02599b201cb9268d0ffeffffff3048a50ef72a2c9075ac9d47c22277869ecebe9cd594bb7cf79bd88dad7eddbe020000006b483045022100ecaa98ac1a7bf37c610d7f895d6656d046ff5ccd7e51244eb3418c7d8e876ac602205336677e9fc4493314783199ea291e79ed37fc4909952826dda70ac349ec8509012103605f1a479214d7ce72ba8d120099c97db7fd549599c26b02599b201cb9268d0ffeffffff28b619a66f5099b5e51213e783a0b2b9253352898eebc9a81fd4cda8346c775c020000006a47304402202f311991460e7e4c3e799af535c4d7426cb9ce5ef465402eaed73c4f8521463c022047bfb2408d937c3fc80e689c946a231eb480c688b02303c4b7d37fff0f3e15b8012103605f1a479214d7ce72ba8d120099c97db7fd549599c26b02599b201cb9268d0ffeffffff212eaa6c84e4aca5132d2707f8abde0ee390807c6b6fae36f7ee2b9ee1bfde8e020000006b483045022100fdf248690d69535e76a5e2e03ee19cafc2acf2c1e93f47a5e15a903443b3d11902200882de3c61fa663bae3232f5218890281c8d3435764d4d67b664c60f73bd7ee5012103605f1a479214d7ce72ba8d120099c97db7fd549599c26b02599b201cb9268d0ffeffffff030000000000000000166a146f6d6e69000000000000001f000002ba7def30006d430700000000001976a91479f638878e898187b280ebe6013821f7e7d8ee1f88ac22020000000000001976a914a25dec4d0011064ef106a983c39c7a540699f22088ac0b490800", "vin": [{"sequence": 4294967294, "scriptSig": {"hex": "4730440220588a3e3257c903512641637221ae14cc13209ce5fd323eba983d909765bc271b02203713e019e3f5830537324f1b3b80e68565d15d817c34182fa6fa4bbcefac3373012103605f1a479214d7ce72ba8d120099c97db7fd549599c26b02599b201cb9268d0f", "asm": "30440220588a3e3257c903512641637221ae14cc13209ce5fd323eba983d909765bc271b02203713e019e3f5830537324f1b3b80e68565d15d817c34182fa6fa4bbcefac3373[ALL] 03605f1a479214d7ce72ba8d120099c97db7fd549599c26b02599b201cb9268d0f"}, "vout": 1, "txid": "582a0be2fcede31ae4fc0fcc5e33a22859aaf209f96ae82b2120d71095a0a404"}, {"sequence": 4294967294, "scriptSig": {"hex": "47304402205f99c20f64d315a6c2b496f71313edcc44b0d06af0900f50842dc6c8472cd5c402201e5d6304c1eb3c0768b10c8861d7eb8c8bcc34317ae5bbfe356afe40936364c3012103605f1a479214d7ce72ba8d120099c97db7fd549599c26b02599b201cb9268d0f", "asm": "304402205f99c20f64d315a6c2b496f71313edcc44b0d06af0900f50842dc6c8472cd5c402201e5d6304c1eb3c0768b10c8861d7eb8c8bcc34317ae5bbfe356afe40936364c3[ALL] 03605f1a479214d7ce72ba8d120099c97db7fd549599c26b02599b201cb9268d0f"}, "vout": 1, "txid": "74346d5858a753ffa78fe743b834e3d364ae084424ff1b5937e3ff132e530106"}, {"sequence": 4294967294, "scriptSig": {"hex": "483045022100b4342dd246b267bba22628704dae1ff85e49dc5577d5919ad16ad1314271b7c502205ecbbf280368b52b2d1672b92dea116e51d611d03e9aa71e707ada518d078f5c012103605f1a479214d7ce72ba8d120099c97db7fd549599c26b02599b201cb9268d0f", "asm": "3045022100b4342dd246b267bba22628704dae1ff85e49dc5577d5919ad16ad1314271b7c502205ecbbf280368b52b2d1672b92dea116e51d611d03e9aa71e707ada518d078f5c[ALL] 03605f1a479214d7ce72ba8d120099c97db7fd549599c26b02599b201cb9268d0f"}, "vout": 2, "txid": "83a3d5d2fd85f83bd3335a02782e502576131f804735cb2c16b1485c4e65c80f"}, {"sequence": 4294967294, "scriptSig": {"hex": "4830450221009d4b5c0f8787d8a7a996eec655d2da65d24b7ccd75ff35f1c2feb0734ccc565702202b0e0663ed92fe1b5647ae8048452d0578a1e9b4845c8aafd8009869f50cb6b4012103605f1a479214d7ce72ba8d120099c97db7fd549599c26b02599b201cb9268d0f", "asm": "30450221009d4b5c0f8787d8a7a996eec655d2da65d24b7ccd75ff35f1c2feb0734ccc565702202b0e0663ed92fe1b5647ae8048452d0578a1e9b4845c8aafd8009869f50cb6b4[ALL] 03605f1a479214d7ce72ba8d120099c97db7fd549599c26b02599b201cb9268d0f"}, "vout": 2, "txid": "3d65aac2987213e5f40a8f877ab4e9183d2eaeff11352d39e0acd02ed73e9112"}, {"sequence": 4294967294, "scriptSig": {"hex": "483045022100aaddec7c9f767771237f1d3d491c6720435ff76a27810614f4429719d646b25002207dd484394425da19ead39aa2fa610f510645904e4b60a8f12bc050520ca16eb4012103605f1a479214d7ce72ba8d120099c97db7fd549599c26b02599b201cb9268d0f", "asm": "3045022100aaddec7c9f767771237f1d3d491c6720435ff76a27810614f4429719d646b25002207dd484394425da19ead39aa2fa610f510645904e4b60a8f12bc050520ca16eb4[ALL] 03605f1a479214d7ce72ba8d120099c97db7fd549599c26b02599b201cb9268d0f"}, "vout": 2, "txid": "634ce93949acc3f8319c23514c01d2f676827d427e6e7568f2db5df07f3cea12"}, {"sequence": 4294967294, "scriptSig": {"hex": "483045022100c4f4c59f036a91e262f47a3c0cfbf393252c170c30d9bf284def330ba00aa704022011863064d88c8f3faeaae0fa5e482d8499a1df27f0900f3b578619a5de3e8d80012103605f1a479214d7ce72ba8d120099c97db7fd549599c26b02599b201cb9268d0f", "asm": "3045022100c4f4c59f036a91e262f47a3c0cfbf393252c170c30d9bf284def330ba00aa704022011863064d88c8f3faeaae0fa5e482d8499a1df27f0900f3b578619a5de3e8d80[ALL] 03605f1a479214d7ce72ba8d120099c97db7fd549599c26b02599b201cb9268d0f"}, "vout": 2, "txid": "015380a3f1e1317ef1a2bc45f1df26843767a6ac54e3cdcb6a074414580f4b1b"}, {"sequence": 4294967294, "scriptSig": {"hex": "47304402206140d34297c04d6176cf37fec82e880b26b421fcfb6df685f28d7845a07da00d02202c3285e059f5771c5b8d7a837e6b547e9dd7f3df35486097f640439e9341ae73012103605f1a479214d7ce72ba8d120099c97db7fd549599c26b02599b201cb9268d0f", "asm": "304402206140d34297c04d6176cf37fec82e880b26b421fcfb6df685f28d7845a07da00d02202c3285e059f5771c5b8d7a837e6b547e9dd7f3df35486097f640439e9341ae73[ALL] 03605f1a479214d7ce72ba8d120099c97db7fd549599c26b02599b201cb9268d0f"}, "vout": 2, "txid": "6d700d3e0f0d4a97d4bcdf3569149c39a69add371d2cd2b7d7b288db0739141f"}, {"sequence": 4294967294, "scriptSig": {"hex": "483045022100ecaa98ac1a7bf37c610d7f895d6656d046ff5ccd7e51244eb3418c7d8e876ac602205336677e9fc4493314783199ea291e79ed37fc4909952826dda70ac349ec8509012103605f1a479214d7ce72ba8d120099c97db7fd549599c26b02599b201cb9268d0f", "asm": "3045022100ecaa98ac1a7bf37c610d7f895d6656d046ff5ccd7e51244eb3418c7d8e876ac602205336677e9fc4493314783199ea291e79ed37fc4909952826dda70ac349ec8509[ALL] 03605f1a479214d7ce72ba8d120099c97db7fd549599c26b02599b201cb9268d0f"}, "vout": 2, "txid": "bedd7ead8dd89bf77cbb94d59cbece9e867722c2479dac75902c2af70ea54830"}, {"sequence": 4294967294, "scriptSig": {"hex": "47304402202f311991460e7e4c3e799af535c4d7426cb9ce5ef465402eaed73c4f8521463c022047bfb2408d937c3fc80e689c946a231eb480c688b02303c4b7d37fff0f3e15b8012103605f1a479214d7ce72ba8d120099c97db7fd549599c26b02599b201cb9268d0f", "asm": "304402202f311991460e7e4c3e799af535c4d7426cb9ce5ef465402eaed73c4f8521463c022047bfb2408d937c3fc80e689c946a231eb480c688b02303c4b7d37fff0f3e15b8[ALL] 03605f1a479214d7ce72ba8d120099c97db7fd549599c26b02599b201cb9268d0f"}, "vout": 2, "txid": "5c776c34a8cdd41fa8c9eb8e89523325b9b2a083e71312e5b599506fa619b628"}, {"sequence": 4294967294, "scriptSig": {"hex": "483045022100fdf248690d69535e76a5e2e03ee19cafc2acf2c1e93f47a5e15a903443b3d11902200882de3c61fa663bae3232f5218890281c8d3435764d4d67b664c60f73bd7ee5012103605f1a479214d7ce72ba8d120099c97db7fd549599c26b02599b201cb9268d0f", "asm": "3045022100fdf248690d69535e76a5e2e03ee19cafc2acf2c1e93f47a5e15a903443b3d11902200882de3c61fa663bae3232f5218890281c8d3435764d4d67b664c60f73bd7ee5[ALL] 03605f1a479214d7ce72ba8d120099c97db7fd549599c26b02599b201cb9268d0f"}, "vout": 2, "txid": "8edebfe19e2beef736ae6f6b7c8090e30edeabf807272d13a5ace4846caa2e21"}], "txid": "63b184c1cb6db99877ffedbb0423d8d7011ff14290d9b9c3e669ea19b2d9bde0", "blocktime": 1537869901, "version": 1, "confirmations": 11524, "time": 1537869901, "locktime": 542987, "vsize": 1585, "size": 1585}