{"hash": "7c08f5702b74ed304eb08521578a4a53303e1e12f4ec13c46dd796dcbf2b81ee", "blockhash": "0000000000000000001f76057863aec43deb6fa401d9628bb513d65a8098bfab", "vout": [{"scriptPubKey": {"reqSigs": 1, "hex": "76a914931b1de99512ba438015d86fe0b0f9f0944c69b488ac", "addresses": ["1EQppK1bnFRvXekrUZZgys9XRAZPmaUshJ"], "asm": "OP_DUP OP_HASH160 931b1de99512ba438015d86fe0b0f9f0944c69b4 OP_EQUALVERIFY OP_CHECKSIG", "type": "pubkeyhash"}, "value": 0.03, "n": 0}, {"scriptPubKey": {"reqSigs": 1, "hex": "a9149f5ad8ab67a604f583f0d63afc7b8a94b55a771387", "addresses": ["3GDcCAHaywJW3m4sJXuHqtWMGJhoTNcjnb"], "asm": "OP_HASH160 9f5ad8ab67a604f583f0d63afc7b8a94b55a7713 OP_EQUAL", "type": "scripthash"}, "value": 0.17318229, "n": 1}], "hex": "010000000001018c5b3332dfb56c712b427b8cb84cdd08ed3bc6b5c3bebe020664b885f6eaf81b0000000017160014faa888d60a012e150d69d4bcdd633701caa8a233ffffff0002c0c62d00000000001976a914931b1de99512ba438015d86fe0b0f9f0944c69b488ac554108010000000017a9149f5ad8ab67a604f583f0d63afc7b8a94b55a771387024730440220543e0b66c15ac985ffbafd6f720f9b6e9a941412b55be4203506651f439008cf022009f5c3a9bcf50b2a3f4c865c4cdbe71eb8e3c7b394b15e6fac56070c6204ef5301210349f868a576e5069b6b538b32a9d4deffbc9db05871c2246aa0823e94faf7bd3700000000", "vin": [{"txinwitness": ["30440220543e0b66c15ac985ffbafd6f720f9b6e9a941412b55be4203506651f439008cf022009f5c3a9bcf50b2a3f4c865c4cdbe71eb8e3c7b394b15e6fac56070c6204ef5301", "0349f868a576e5069b6b538b32a9d4deffbc9db05871c2246aa0823e94faf7bd37"], "sequence": 16777215, "scriptSig": {"hex": "160014faa888d60a012e150d69d4bcdd633701caa8a233", "asm": "0014faa888d60a012e150d69d4bcdd633701caa8a233"}, "vout": 0, "txid": "1bf8eaf685b8640602bebec3b5c63bed08dd4cb88c7b422b716cb5df32335b8c"}], "txid": "63b357d9cf5ccbf528c0dbfd4747016394aa1e41bcfc7e73ce5be0d61b66b0e0", "blocktime": 1537873891, "version": 1, "confirmations": 11478, "time": 1537873891, "locktime": 0, "vsize": 168, "size": 249}