{"hash": "63b4c767d71888dadeed27657bea33a62ea81d6af3bc1bdf88a60fac0fa4c6f3", "blockhash": "00000000000000000004ffacab907a6b429b9a5745fa0b75af4234bf69dd7176", "vout": [{"scriptPubKey": {"type": "nulldata", "hex": "6a146f6d6e69000000000000001f00000022ecb25c00", "asm": "OP_RETURN 6f6d6e69000000000000001f00000022ecb25c00"}, "value": 0.0, "n": 0}, {"scriptPubKey": {"reqSigs": 1, "hex": "76a91454965f1a9e419f0062714ea2fc503e31f4f563eb88ac", "addresses": ["18iFu7JnTJQm6QozHT3AeZKGRKnEjMqwv4"], "asm": "OP_DUP OP_HASH160 54965f1a9e419f0062714ea2fc503e31f4f563eb OP_EQUALVERIFY OP_CHECKSIG", "type": "pubkeyhash"}, "value": 5.46e-06, "n": 1}, {"scriptPubKey": {"reqSigs": 1, "hex": "76a914a25dec4d0011064ef106a983c39c7a540699f22088ac", "addresses": ["1FoWyxwPXuj4C6abqwhjDWdz6D4PZgYRjA"], "asm": "OP_DUP OP_HASH160 a25dec4d0011064ef106a983c39c7a540699f220 OP_EQUALVERIFY OP_CHECKSIG", "type": "pubkeyhash"}, "value": 0.01980784, "n": 2}], "hex": "01000000010d355c037c7354c07079a3aee14f6271323ebe5b6420ca92c84f2b61c90ec1ea020000006b4830450221008af92aad15a81f1e3371218b8b2db5092a3d4d2c9eca8698962aa152772a54af02205feded3a78239d8d8ac642a8f4c8a6b499ea9785e1919a8c190e540f8e47cc9d012103da5bac7b36d5aa38f531c6b9601e21bb598a4b6716ebed38b009a55dabde9440feffffff030000000000000000166a146f6d6e69000000000000001f00000022ecb25c0022020000000000001976a91454965f1a9e419f0062714ea2fc503e31f4f563eb88ac70391e00000000001976a914a25dec4d0011064ef106a983c39c7a540699f22088ac16490800", "vin": [{"sequence": 4294967294, "scriptSig": {"hex": "4830450221008af92aad15a81f1e3371218b8b2db5092a3d4d2c9eca8698962aa152772a54af02205feded3a78239d8d8ac642a8f4c8a6b499ea9785e1919a8c190e540f8e47cc9d012103da5bac7b36d5aa38f531c6b9601e21bb598a4b6716ebed38b009a55dabde9440", "asm": "30450221008af92aad15a81f1e3371218b8b2db5092a3d4d2c9eca8698962aa152772a54af02205feded3a78239d8d8ac642a8f4c8a6b499ea9785e1919a8c190e540f8e47cc9d[ALL] 03da5bac7b36d5aa38f531c6b9601e21bb598a4b6716ebed38b009a55dabde9440"}, "vout": 2, "txid": "eac10ec9612b4fc892ca20645bbe3e3271624fe1aea37970c054737c035c350d"}], "txid": "63b4c767d71888dadeed27657bea33a62ea81d6af3bc1bdf88a60fac0fa4c6f3", "blocktime": 1537875543, "version": 1, "confirmations": 11464, "time": 1537875543, "locktime": 542998, "vsize": 257, "size": 257}