{"hash": "63b4faa423e03a097d4a95d68bde4f81163dc52f3d84c15872151691bd84bfbc", "blockhash": "0000000000000000000dcc0f55137456b1a82d3642486a52398922ac4d620174", "vout": [{"scriptPubKey": {"reqSigs": 1, "hex": "76a9141deec643467fcca6c5a35f7f8fb8c56c9bbed3ca88ac", "addresses": ["13jGduR29FqDbYVoR86GTvCca46NmkR9Gm"], "asm": "OP_DUP OP_HASH160 1deec643467fcca6c5a35f7f8fb8c56c9bbed3ca OP_EQUALVERIFY OP_CHECKSIG", "type": "pubkeyhash"}, "value": 0.01408384, "n": 0}, {"scriptPubKey": {"reqSigs": 1, "hex": "76a914a63396e3936edeefd662344e02fc4ec85848427f88ac", "addresses": ["1G9nyLf4HyciqqgcE9UhL9ntvPKYPenpQW"], "asm": "OP_DUP OP_HASH160 a63396e3936edeefd662344e02fc4ec85848427f OP_EQUALVERIFY OP_CHECKSIG", "type": "pubkeyhash"}, "value": 0.00557052, "n": 1}], "hex": "020000000245d4634bc2313652c1ddbc42f5cedd05a39aa8efecd7c6c16324e24bded4a12b020000006b4830450221009a8543c3c2460198a5ab80fa6b24d82583ad1141c7c4e2d287b388931578542102206c54fc5ec726773c7ed0e11f8d88cf5e00bf4ca3dbf212af6ef7df4a24381c120121025c9701044c833006ff5d6820436a3d8f975ad82c8a3b6c42db040dde493fd212feffffff5ee8e6c411dc3cc9f07e61476d103f80e92d9028061d07203bdc3d20a166c48d010000006b483045022100b43e9d57ee5b3e0a793d272a26962f9a0dc6d89abf413b84e924f3fd8004f02b02206fafbdd3e2e774a93a58f3b453c0c092e53dc95877bed5e1b622af6b6f4c6dae012102059a4591cc47f24908d14151a00c2d10c9d022a25a66b2deaae976df7261c85ffeffffff02807d1500000000001976a9141deec643467fcca6c5a35f7f8fb8c56c9bbed3ca88acfc7f0800000000001976a914a63396e3936edeefd662344e02fc4ec85848427f88ac0c490800", "vin": [{"sequence": 4294967294, "scriptSig": {"hex": "4830450221009a8543c3c2460198a5ab80fa6b24d82583ad1141c7c4e2d287b388931578542102206c54fc5ec726773c7ed0e11f8d88cf5e00bf4ca3dbf212af6ef7df4a24381c120121025c9701044c833006ff5d6820436a3d8f975ad82c8a3b6c42db040dde493fd212", "asm": "30450221009a8543c3c2460198a5ab80fa6b24d82583ad1141c7c4e2d287b388931578542102206c54fc5ec726773c7ed0e11f8d88cf5e00bf4ca3dbf212af6ef7df4a24381c12[ALL] 025c9701044c833006ff5d6820436a3d8f975ad82c8a3b6c42db040dde493fd212"}, "vout": 2, "txid": "2ba1d4de4be22463c1c6d7ecefa89aa305ddcef542bcddc1523631c24b63d445"}, {"sequence": 4294967294, "scriptSig": {"hex": "483045022100b43e9d57ee5b3e0a793d272a26962f9a0dc6d89abf413b84e924f3fd8004f02b02206fafbdd3e2e774a93a58f3b453c0c092e53dc95877bed5e1b622af6b6f4c6dae012102059a4591cc47f24908d14151a00c2d10c9d022a25a66b2deaae976df7261c85f", "asm": "3045022100b43e9d57ee5b3e0a793d272a26962f9a0dc6d89abf413b84e924f3fd8004f02b02206fafbdd3e2e774a93a58f3b453c0c092e53dc95877bed5e1b622af6b6f4c6dae[ALL] 02059a4591cc47f24908d14151a00c2d10c9d022a25a66b2deaae976df7261c85f"}, "vout": 1, "txid": "8dc466a1203ddc3b20071d0628902de9803f106d47617ef0c93cdc11c4e6e85e"}], "txid": "63b4faa423e03a097d4a95d68bde4f81163dc52f3d84c15872151691bd84bfbc", "blocktime": 1537870268, "version": 2, "confirmations": 11516, "time": 1537870268, "locktime": 542988, "vsize": 374, "size": 374}