{"hash": "7defda09ff28a1c532b0d57a71c5d92b21d9a570256e9d3aad51ef8ea8719aad", "blockhash": "00000000000000000018f53835495a110e01622372bf6ae95dc86f2b0ab887b0", "vout": [{"scriptPubKey": {"reqSigs": 1, "hex": "76a91498aa9f0db83323ca5c2d59ac9620c114c6cd32ca88ac", "addresses": ["1EvE78nRwSy3zKTMBem5Cth6bVMW77GhaA"], "asm": "OP_DUP OP_HASH160 98aa9f0db83323ca5c2d59ac9620c114c6cd32ca OP_EQUALVERIFY OP_CHECKSIG", "type": "pubkeyhash"}, "value": 0.00395719, "n": 0}, {"scriptPubKey": {"reqSigs": 1, "hex": "a914b3ce06528b60d0a6703dd308ea0f1ef64ddc874287", "addresses": ["3J5jgjCGctXzJxbF2Q9AJsjAKBQoZ8FyYt"], "asm": "OP_HASH160 b3ce06528b60d0a6703dd308ea0f1ef64ddc8742 OP_EQUAL", "type": "scripthash"}, "value": 0.01001693, "n": 1}], "hex": "0200000000010222364f67839a7c8f09cc19d040ab7a47a8bfc9ef5df76e206fcc70c87af3c61d01000000171600146b0ab0f539464726f69dc1bf19c043d541786094feffffff622d9da05f6fbee28d26285dd9138e11c2d9b4b7610a0fe7bd48787beb18a6fd08000000171600142ec948388bf248f937237c45939859b550e85a12feffffff02c7090600000000001976a91498aa9f0db83323ca5c2d59ac9620c114c6cd32ca88acdd480f000000000017a914b3ce06528b60d0a6703dd308ea0f1ef64ddc87428702483045022100de23fc2cf869ef318c8afd069da1c1d273ced15da94884277ce05b6a649c165a0220761ef8fb8c84565768d69c8ff57a1895a21136a87aa03861848f3f7dbf25f1850121029860af34e48b4fe6f105da00971fb108259b2e1ea95663ed7eb9473d90fd02a30247304402200c1e4535be157d5aa49857ee16ba50cf19b14e73978e3bbdb883ca268d691999022039c5b2ea2ff357711d980e2e19d5594c94281e2a49dd98ba54bd144313f5da0101210356f4af297859ad590fc927565da90dd28251eb72781242190e76fb8415f903430d490800", "vin": [{"txinwitness": ["3045022100de23fc2cf869ef318c8afd069da1c1d273ced15da94884277ce05b6a649c165a0220761ef8fb8c84565768d69c8ff57a1895a21136a87aa03861848f3f7dbf25f18501", "029860af34e48b4fe6f105da00971fb108259b2e1ea95663ed7eb9473d90fd02a3"], "sequence": 4294967294, "scriptSig": {"hex": "1600146b0ab0f539464726f69dc1bf19c043d541786094", "asm": "00146b0ab0f539464726f69dc1bf19c043d541786094"}, "vout": 1, "txid": "1dc6f37ac870cc6f206ef75defc9bfa8477aab40d019cc098f7c9a83674f3622"}, {"txinwitness": ["304402200c1e4535be157d5aa49857ee16ba50cf19b14e73978e3bbdb883ca268d691999022039c5b2ea2ff357711d980e2e19d5594c94281e2a49dd98ba54bd144313f5da0101", "0356f4af297859ad590fc927565da90dd28251eb72781242190e76fb8415f90343"], "sequence": 4294967294, "scriptSig": {"hex": "1600142ec948388bf248f937237c45939859b550e85a12", "asm": "00142ec948388bf248f937237c45939859b550e85a12"}, "vout": 8, "txid": "fda618eb7b7848bde70f0a61b7b4d9c2118e13d95d28268de2be6f5fa09d2d62"}], "txid": "63b94c547f4a6a5a00a4019758e8c393160914f1a80e5451cf15e93e1d8afe15", "blocktime": 1537870928, "version": 2, "confirmations": 11514, "time": 1537870928, "locktime": 542989, "vsize": 259, "size": 421}