{"hash": "63bb1b0682e8e9a76ca13c3b71acc74697bc655956adcf2d57232c17cf364b66", "blockhash": "00000000000000000004ffacab907a6b429b9a5745fa0b75af4234bf69dd7176", "vout": [{"scriptPubKey": {"reqSigs": 1, "hex": "76a914d243e6abb9a60fbff430b421d2df4b7d59ec186088ac", "addresses": ["1LAnF8h3qMGx3TSwNUHVneBZUEpwE4gu3D"], "asm": "OP_DUP OP_HASH160 d243e6abb9a60fbff430b421d2df4b7d59ec1860 OP_EQUALVERIFY OP_CHECKSIG", "type": "pubkeyhash"}, "value": 0.00076972, "n": 0}, {"scriptPubKey": {"reqSigs": 1, "hex": "76a9143851f34d13937b673a7d24a1950bb5b21ce94af388ac", "addresses": ["168o1kqNquEJeR9vosUB5fw4eAwcVAgh8P"], "asm": "OP_DUP OP_HASH160 3851f34d13937b673a7d24a1950bb5b21ce94af3 OP_EQUALVERIFY OP_CHECKSIG", "type": "pubkeyhash"}, "value": 5.46e-06, "n": 1}, {"scriptPubKey": {"type": "nulldata", "hex": "6a146f6d6e69000000000000001f00000716942d7055", "asm": "OP_RETURN 6f6d6e69000000000000001f00000716942d7055"}, "value": 0.0, "n": 2}], "hex": "010000000287df29cd1d59ef905e654803cc7fb916cd52e11d6a437e2f63f7ea8537360b3f010000006b483045022100b32c93a3b6e42c3cec4ae540f5f3217ec401e0eaf73abd56d1d4612da9158ed60220077f2061eb520afcd2ffe319df14238077017b57311e548e9bb48667a3468c85012102786bdb562f9340b9a6b242f01ecbb9a3585e245b61a1218bf094c5422a348047ffffffff0806508a2e69fe408f0f3bab35573e4fbf21da6a2a6a96c2b5472f0dd7c055cb000000006a47304402201b7bb746b4622fd2da565f1820bf51eadc96f5782359830c8eee88ba9ffbbcef022036efa79ebc8da09c0f9c84e7aa81a9e8a61eb4e229eee1ce042a93ef8a86655f01210271977291b74f1f5f5c42157e8aae804664eaaeccfd097918450d37f28fb94d77ffffffff03ac2c0100000000001976a914d243e6abb9a60fbff430b421d2df4b7d59ec186088ac22020000000000001976a9143851f34d13937b673a7d24a1950bb5b21ce94af388ac0000000000000000166a146f6d6e69000000000000001f00000716942d705500000000", "vin": [{"sequence": 4294967295, "scriptSig": {"hex": "483045022100b32c93a3b6e42c3cec4ae540f5f3217ec401e0eaf73abd56d1d4612da9158ed60220077f2061eb520afcd2ffe319df14238077017b57311e548e9bb48667a3468c85012102786bdb562f9340b9a6b242f01ecbb9a3585e245b61a1218bf094c5422a348047", "asm": "3045022100b32c93a3b6e42c3cec4ae540f5f3217ec401e0eaf73abd56d1d4612da9158ed60220077f2061eb520afcd2ffe319df14238077017b57311e548e9bb48667a3468c85[ALL] 02786bdb562f9340b9a6b242f01ecbb9a3585e245b61a1218bf094c5422a348047"}, "vout": 1, "txid": "3f0b363785eaf7632f7e436a1de152cd16b97fcc0348655e90ef591dcd29df87"}, {"sequence": 4294967295, "scriptSig": {"hex": "47304402201b7bb746b4622fd2da565f1820bf51eadc96f5782359830c8eee88ba9ffbbcef022036efa79ebc8da09c0f9c84e7aa81a9e8a61eb4e229eee1ce042a93ef8a86655f01210271977291b74f1f5f5c42157e8aae804664eaaeccfd097918450d37f28fb94d77", "asm": "304402201b7bb746b4622fd2da565f1820bf51eadc96f5782359830c8eee88ba9ffbbcef022036efa79ebc8da09c0f9c84e7aa81a9e8a61eb4e229eee1ce042a93ef8a86655f[ALL] 0271977291b74f1f5f5c42157e8aae804664eaaeccfd097918450d37f28fb94d77"}, "vout": 0, "txid": "cb55c0d70d2f47b5c2966a2a6ada21bf4f3e5735ab3b0f8f40fe692e8a500608"}], "txid": "63bb1b0682e8e9a76ca13c3b71acc74697bc655956adcf2d57232c17cf364b66", "blocktime": 1537875543, "version": 1, "confirmations": 11464, "time": 1537875543, "locktime": 0, "vsize": 404, "size": 404}