{"hash": "6f66c255351b9314f3b0c7938e6d9684be9b92fa157b1703d845a54346481161", "blockhash": "000000000000000000022b45ed06c6f4ccd3cf7fb5ba4856ebd2e58215665228", "vout": [{"scriptPubKey": {"reqSigs": 1, "hex": "a914cfaabfe8c271f99a4364b5197ba50c6cddb7adb987", "addresses": ["3Ld4M9RPwEG3VeQbHcC1PsKUndQL7VYLZP"], "asm": "OP_HASH160 cfaabfe8c271f99a4364b5197ba50c6cddb7adb9 OP_EQUAL", "type": "scripthash"}, "value": 0.04642089, "n": 0}, {"scriptPubKey": {"reqSigs": 1, "hex": "a914ea46e1c9b58d1085ab30ee62a867f10c487face587", "addresses": ["3P3kxQ5NMQvt95NCQwhDMC7FNmz1impkCD"], "asm": "OP_HASH160 ea46e1c9b58d1085ab30ee62a867f10c487face5 OP_EQUAL", "type": "scripthash"}, "value": 0.17790103, "n": 1}], "hex": "01000000000102ab08b8846e7d9a2156e620bc5ed3349829625b4b9ea035e3f1c9c9b43bae518000000000232200204e9d883bba70e8beda94be039e7754704f5beec17c656971331c3d7240882d0effffffff7776e17de085d328156594ef397d42cf12562e47a6c5fce9b7b40abdcecc135704000000232200200132db476c7e556cdfdee35d3929f9deb77ae8843b3a5dfc1b1200715b58935dffffffff0229d546000000000017a914cfaabfe8c271f99a4364b5197ba50c6cddb7adb98797740f010000000017a914ea46e1c9b58d1085ab30ee62a867f10c487face5870400483045022100950e25fcda7b93ef26b1f83f1538358ddad335d198c14719d4775d8f84e2f10302201946aeb82280cef331516593167306cdad4fa39e5750e93f83c7683fad99b02701473044022021028608bbd16cad8e0df6682a9bedff6a66a8fd2331d4bd098890e98539f2ab02207226e9907cffb1576ff84603253bcb774db028e2c365fe5aef4d636363ddb5430147522102915098d8fb796ecb92d76aa0140364ae6a66de8921a4828bfd970a13afe0f11421033e4af03ed09dbd8a417ba042650d5bd1db7f14f271a8f660974e3abf1fdfa4da52ae0400483045022100d44b8aeedc96a167871fe030ba6816307b2081df0a37421500811fa221ef972702204a79c027f2cf7076bed394e0ab63a65a544357a3126e5b7b09c3ca40a2462ca10148304502210081bba57f3aa0173131454939977f6cf609e1de4d592d54fe832c6ac533315bdf02202e13640b376a9afaa23e3854fb2c67322f32b1cdb73249355e2199ebb42665d40147522103edf9ba024fbcec271ce88e52854af00ffbac496d8a457322d4f0076c41f8c8ef21033e4af03ed09dbd8a417ba042650d5bd1db7f14f271a8f660974e3abf1fdfa4da52ae00000000", "vin": [{"txinwitness": ["", "3045022100950e25fcda7b93ef26b1f83f1538358ddad335d198c14719d4775d8f84e2f10302201946aeb82280cef331516593167306cdad4fa39e5750e93f83c7683fad99b02701", "3044022021028608bbd16cad8e0df6682a9bedff6a66a8fd2331d4bd098890e98539f2ab02207226e9907cffb1576ff84603253bcb774db028e2c365fe5aef4d636363ddb54301", "522102915098d8fb796ecb92d76aa0140364ae6a66de8921a4828bfd970a13afe0f11421033e4af03ed09dbd8a417ba042650d5bd1db7f14f271a8f660974e3abf1fdfa4da52ae"], "sequence": 4294967295, "scriptSig": {"hex": "2200204e9d883bba70e8beda94be039e7754704f5beec17c656971331c3d7240882d0e", "asm": "00204e9d883bba70e8beda94be039e7754704f5beec17c656971331c3d7240882d0e"}, "vout": 0, "txid": "8051ae3bb4c9c9f1e335a09e4b5b62299834d35ebc20e656219a7d6e84b808ab"}, {"txinwitness": ["", "3045022100d44b8aeedc96a167871fe030ba6816307b2081df0a37421500811fa221ef972702204a79c027f2cf7076bed394e0ab63a65a544357a3126e5b7b09c3ca40a2462ca101", "304502210081bba57f3aa0173131454939977f6cf609e1de4d592d54fe832c6ac533315bdf02202e13640b376a9afaa23e3854fb2c67322f32b1cdb73249355e2199ebb42665d401", "522103edf9ba024fbcec271ce88e52854af00ffbac496d8a457322d4f0076c41f8c8ef21033e4af03ed09dbd8a417ba042650d5bd1db7f14f271a8f660974e3abf1fdfa4da52ae"], "sequence": 4294967295, "scriptSig": {"hex": "2200200132db476c7e556cdfdee35d3929f9deb77ae8843b3a5dfc1b1200715b58935d", "asm": "00200132db476c7e556cdfdee35d3929f9deb77ae8843b3a5dfc1b1200715b58935d"}, "vout": 4, "txid": "5713cccebd0ab4b7e9fcc5a6472e5612cf427d39ef94651528d385e07de17677"}], "txid": "63c0ba4d264888f419d59f11640202024b1528d9fb62a682326c1b4b8673926e", "blocktime": 1537869901, "version": 1, "confirmations": 11524, "time": 1537869901, "locktime": 0, "vsize": 337, "size": 667}