{"hash": "43da3de9f06bc9ff5dcece738cd7855a7debf6af19e402ae9c52b993d5749a5d", "blockhash": "0000000000000000000dcc0f55137456b1a82d3642486a52398922ac4d620174", "vout": [{"scriptPubKey": {"reqSigs": 1, "hex": "a914e013421175aed83b8f1b2b3903f15be8fa8f4cda87", "addresses": ["3N7pMb68atqXYqh51NMmE6gVwpoUqCnsB2"], "asm": "OP_HASH160 e013421175aed83b8f1b2b3903f15be8fa8f4cda OP_EQUAL", "type": "scripthash"}, "value": 0.0133533, "n": 0}, {"scriptPubKey": {"reqSigs": 1, "hex": "a914519b5e7cbc8e4612586c5e62d7558482ca7ffac387", "addresses": ["398WnKGGrVjKL6DWBt4oeu12orcy9YyrD1"], "asm": "OP_HASH160 519b5e7cbc8e4612586c5e62d7558482ca7ffac3 OP_EQUAL", "type": "scripthash"}, "value": 0.01003134, "n": 1}], "hex": "0200000000010441cb78b1f24d7e251259363b322ca75f029c0c60d0160f282bbde1b852ecf8cd0100000017160014e0ac89cfa23dc4900023bb35adee6c57609ec82cfeffffff9b9133bfe96ac9d723ef2505bbbced7f9f86555ff7fecb573ec0be7c11b14c650000000017160014437a4f8cb24780593779e0a2df58c05c88879863feffffffa9db751c20a3972f23309fee5922a67f600ccfbe3c42bb8acf436e4daec5f90b0100000017160014a9c240a6e565f8497e98a32ce5fc362da2e7d8bbfeffffffe3774b8ea50a13756505699e20fb841df800892f3ba0509a82ad46f3e475ec120100000017160014b7bdee21d76f8c300fc2743bf47e241556a4464dfeffffff02226014000000000017a914e013421175aed83b8f1b2b3903f15be8fa8f4cda877e4e0f000000000017a914519b5e7cbc8e4612586c5e62d7558482ca7ffac38702473044022074901010d5ea43cd8f6460f35360d706e61a6128063c3edc6735272e50e2462f02206dbd3d9b4dca23a59875c47a29fd96e34632f0ee0894c5f4f2b593720e5718f701210387f8f896166b4643448e3775d15981dff9d7234f26d2b4b2a89282cf182fcad602483045022100a186923bd1f03a620ce2c0570240ab6c78788993dc98d249fac97514d5ff0083022051d7ffd0ecd3b10610ffebfe6e59d4e20e197a8903ee13a59381b2095f8b9cb60121021c3a9a8404d3abe61afd02227550514f0bd4765a167a466d342d5e40b78ef50502483045022100f2a9e513c87d8947df480191017eb26def0def63d92d5d3496de944912f963c5022033f4f53ad62c6033c5ea66e28955fbbeacd39100960bf6aa418ff3b62845bd27012103158f426b815e9a02f9b050c502e8a4ba0ecb19651e2ddf0051e11b61b3a9b3a802473044022079a7b6b0f180b4af4e2939e41d127065fb661ce83b9d0acf625f4cac69174d0c022075465a4fa09a670b94abe2d6e5ebf7a0c486f7a1962084cd410227afa405b3c501210368e6fb6c2724819af0c04b1c1fe1f8c035b64d1e392535c89634f9bbc5bb27f20c490800", "vin": [{"txinwitness": ["3044022074901010d5ea43cd8f6460f35360d706e61a6128063c3edc6735272e50e2462f02206dbd3d9b4dca23a59875c47a29fd96e34632f0ee0894c5f4f2b593720e5718f701", "0387f8f896166b4643448e3775d15981dff9d7234f26d2b4b2a89282cf182fcad6"], "sequence": 4294967294, "scriptSig": {"hex": "160014e0ac89cfa23dc4900023bb35adee6c57609ec82c", "asm": "0014e0ac89cfa23dc4900023bb35adee6c57609ec82c"}, "vout": 1, "txid": "cdf8ec52b8e1bd2b280f16d0600c9c025fa72c323b365912257e4df2b178cb41"}, {"txinwitness": ["3045022100a186923bd1f03a620ce2c0570240ab6c78788993dc98d249fac97514d5ff0083022051d7ffd0ecd3b10610ffebfe6e59d4e20e197a8903ee13a59381b2095f8b9cb601", "021c3a9a8404d3abe61afd02227550514f0bd4765a167a466d342d5e40b78ef505"], "sequence": 4294967294, "scriptSig": {"hex": "160014437a4f8cb24780593779e0a2df58c05c88879863", "asm": "0014437a4f8cb24780593779e0a2df58c05c88879863"}, "vout": 0, "txid": "654cb1117cbec03e57cbfef75f55869f7fedbcbb0525ef23d7c96ae9bf33919b"}, {"txinwitness": ["3045022100f2a9e513c87d8947df480191017eb26def0def63d92d5d3496de944912f963c5022033f4f53ad62c6033c5ea66e28955fbbeacd39100960bf6aa418ff3b62845bd2701", "03158f426b815e9a02f9b050c502e8a4ba0ecb19651e2ddf0051e11b61b3a9b3a8"], "sequence": 4294967294, "scriptSig": {"hex": "160014a9c240a6e565f8497e98a32ce5fc362da2e7d8bb", "asm": "0014a9c240a6e565f8497e98a32ce5fc362da2e7d8bb"}, "vout": 1, "txid": "0bf9c5ae4d6e43cf8abb423cbecf0c607fa62259ee9f30232f97a3201c75dba9"}, {"txinwitness": ["3044022079a7b6b0f180b4af4e2939e41d127065fb661ce83b9d0acf625f4cac69174d0c022075465a4fa09a670b94abe2d6e5ebf7a0c486f7a1962084cd410227afa405b3c501", "0368e6fb6c2724819af0c04b1c1fe1f8c035b64d1e392535c89634f9bbc5bb27f2"], "sequence": 4294967294, "scriptSig": {"hex": "160014b7bdee21d76f8c300fc2743bf47e241556a4464d", "asm": "0014b7bdee21d76f8c300fc2743bf47e241556a4464d"}, "vout": 1, "txid": "12ec75e4f346ad829a50a03b2f8900f81d84fb209e69056575130aa58e4b77e3"}], "txid": "63c4766e1dc8e4ebebf8556c301cc8ca283312bc67a630e65514fddae0ab3a16", "blocktime": 1537870268, "version": 2, "confirmations": 11518, "time": 1537870268, "locktime": 542988, "vsize": 438, "size": 762}