{"hash": "d97026da6d849bc62be856ab2877f3f52f90df712bbe6dfb9721052e7613f0c9", "blockhash": "0000000000000000001e0dab787dd257d1dbfcb92a98c2207d5e1078be1f4165", "vout": [{"scriptPubKey": {"reqSigs": 1, "hex": "a914a547a8ed256ac0e13092ac1ddb04d37cf97f684f87", "addresses": ["3GkwGDB9NvdxuGsHGpoZc3eyB3ohKhWvHJ"], "asm": "OP_HASH160 a547a8ed256ac0e13092ac1ddb04d37cf97f684f OP_EQUAL", "type": "scripthash"}, "value": 0.00893856, "n": 0}, {"scriptPubKey": {"reqSigs": 1, "hex": "76a91412185a55202ecb95dafb2ef4c2f54fa0f71f919188ac", "addresses": ["12egLX8Larqc8hVt72vXhzvCqkuG5K6Cyo"], "asm": "OP_DUP OP_HASH160 12185a55202ecb95dafb2ef4c2f54fa0f71f9191 OP_EQUALVERIFY OP_CHECKSIG", "type": "pubkeyhash"}, "value": 0.001, "n": 1}], "hex": "0200000000010114e63de3ff981a2d9c9daa6dfb0aa4f2ba44e31deea889e7300467e2c4a8300800000000171600144d2d0aa6ca052203a6bdc2793d5bbb6c827d1d8dfeffffff02a0a30d000000000017a914a547a8ed256ac0e13092ac1ddb04d37cf97f684f87a0860100000000001976a91412185a55202ecb95dafb2ef4c2f54fa0f71f919188ac0247304402207c33f65896d6e31d6ed0bb33fed89d2ce7bbe8412ccb3a700c15b7bdcf016fed0220152f58e5e3574380dce978e03377304df424b42d4c20914b436c47ff2df256c60121027d7c89666835ca2d23e2e25aa97dcc10e24a98a5f6ccc896d37e85f511fe0be800000000", "vin": [{"txinwitness": ["304402207c33f65896d6e31d6ed0bb33fed89d2ce7bbe8412ccb3a700c15b7bdcf016fed0220152f58e5e3574380dce978e03377304df424b42d4c20914b436c47ff2df256c601", "027d7c89666835ca2d23e2e25aa97dcc10e24a98a5f6ccc896d37e85f511fe0be8"], "sequence": 4294967294, "scriptSig": {"hex": "1600144d2d0aa6ca052203a6bdc2793d5bbb6c827d1d8d", "asm": "00144d2d0aa6ca052203a6bdc2793d5bbb6c827d1d8d"}, "vout": 0, "txid": "0830a8c4e2670430e789a8ee1de344baf2a40afb6daa9d9c2d1a98ffe33de614"}], "txid": "63c42d2b6c80761b61a8bc9850bc7649a33e0e4a16a6cc0e9d3d31e98c025c99", "blocktime": 1537872475, "version": 2, "confirmations": 11487, "time": 1537872475, "locktime": 0, "vsize": 168, "size": 249}