{"hash": "63c7b357bc887e0cf0b75b0e44d70beb9101b47f5b65a7e3902dc4af307cb6df", "blockhash": "00000000000000000017f5eb5941039fbcee6240d03bc1f2f8e35350df66a1d8", "vout": [{"scriptPubKey": {"reqSigs": 1, "hex": "76a9141060606dc13a7e99c39f6ffea9256fea55eb202c88ac", "addresses": ["12VbGSQaDxMu5kkDceoo53mxsqbhyvwnB3"], "asm": "OP_DUP OP_HASH160 1060606dc13a7e99c39f6ffea9256fea55eb202c OP_EQUALVERIFY OP_CHECKSIG", "type": "pubkeyhash"}, "value": 0.04707195, "n": 0}, {"scriptPubKey": {"reqSigs": 1, "hex": "a91484a202c8d8aad3e25ca0370341798cc3b9bfd69887", "addresses": ["3DnKCaWBs6TQQtJDpFjnqDUfPsMrVLHnCy"], "asm": "OP_HASH160 84a202c8d8aad3e25ca0370341798cc3b9bfd698 OP_EQUAL", "type": "scripthash"}, "value": 0.00125107, "n": 1}], "hex": "01000000010e6f463c63944199b4d235ea6e913152266e0e99ab0be84e09764ed547160302010000006b483045022100d647244e46d85615f1fb5d963837db8568d3bbd518890c907714ee56894ca3870220323fad5a74368d0d29024c4d7e477572cbd250fb89c364e5f721829cc9dfc42c012103d37986449878191f6ba721fed90d28840f02d959aa16b3afbbbf3c53a68af9eeffffffff027bd34700000000001976a9141060606dc13a7e99c39f6ffea9256fea55eb202c88acb3e801000000000017a91484a202c8d8aad3e25ca0370341798cc3b9bfd6988700000000", "vin": [{"sequence": 4294967295, "scriptSig": {"hex": "483045022100d647244e46d85615f1fb5d963837db8568d3bbd518890c907714ee56894ca3870220323fad5a74368d0d29024c4d7e477572cbd250fb89c364e5f721829cc9dfc42c012103d37986449878191f6ba721fed90d28840f02d959aa16b3afbbbf3c53a68af9ee", "asm": "3045022100d647244e46d85615f1fb5d963837db8568d3bbd518890c907714ee56894ca3870220323fad5a74368d0d29024c4d7e477572cbd250fb89c364e5f721829cc9dfc42c[ALL] 03d37986449878191f6ba721fed90d28840f02d959aa16b3afbbbf3c53a68af9ee"}, "vout": 1, "txid": "02031647d54e76094ee80bab990e6e265231916eea35d2b4994194633c466f0e"}], "txid": "63c7b357bc887e0cf0b75b0e44d70beb9101b47f5b65a7e3902dc4af307cb6df", "blocktime": 1537874412, "version": 1, "confirmations": 11467, "time": 1537874412, "locktime": 0, "vsize": 224, "size": 224}