{"hash": "63ca2528a6029046e39993cbf54ee728646294ace88ac32d794ca9792785e690", "blockhash": "00000000000000000018f53835495a110e01622372bf6ae95dc86f2b0ab887b0", "vout": [{"scriptPubKey": {"reqSigs": 1, "hex": "a914cc0a738c95382ec1986c4d5c6a82b90ad832499987", "addresses": ["3LHtHrHr6CZBbqXT5Z4RgYHmNBWjozagK8"], "asm": "OP_HASH160 cc0a738c95382ec1986c4d5c6a82b90ad8324999 OP_EQUAL", "type": "scripthash"}, "value": 0.009987, "n": 0}, {"scriptPubKey": {"reqSigs": 1, "hex": "76a914b5b84d85e857038e0be9bd44bce286f14f3cdb7388ac", "addresses": ["1HZr6JkZ7EiVECTDNcXdSam5nnEF96AhcT"], "asm": "OP_DUP OP_HASH160 b5b84d85e857038e0be9bd44bce286f14f3cdb73 OP_EQUALVERIFY OP_CHECKSIG", "type": "pubkeyhash"}, "value": 0.04000622, "n": 1}], "hex": "010000000167dfec27bf5e960dc375511bd72564e72f0b2c239d3781e17027e85c9c5d508f000000006a47304402204b644541604b13c0a8bce07dbea5a5406c05195ee267aeccc5db752f9a3bc5e5022036d81613f52692a5033ba9d3f664c2219427e33b6a0913b28d0387bb3e2e29390121031dc1c64633932915e04d46834b751379fdd86beb63c04f74657d736e739f8263ffffffff022c3d0f000000000017a914cc0a738c95382ec1986c4d5c6a82b90ad8324999876e0b3d00000000001976a914b5b84d85e857038e0be9bd44bce286f14f3cdb7388ac00000000", "vin": [{"sequence": 4294967295, "scriptSig": {"hex": "47304402204b644541604b13c0a8bce07dbea5a5406c05195ee267aeccc5db752f9a3bc5e5022036d81613f52692a5033ba9d3f664c2219427e33b6a0913b28d0387bb3e2e29390121031dc1c64633932915e04d46834b751379fdd86beb63c04f74657d736e739f8263", "asm": "304402204b644541604b13c0a8bce07dbea5a5406c05195ee267aeccc5db752f9a3bc5e5022036d81613f52692a5033ba9d3f664c2219427e33b6a0913b28d0387bb3e2e2939[ALL] 031dc1c64633932915e04d46834b751379fdd86beb63c04f74657d736e739f8263"}, "vout": 0, "txid": "8f505d9c5ce82770e181379d232c0b2fe76425d71b5175c30d965ebf27ecdf67"}], "txid": "63ca2528a6029046e39993cbf54ee728646294ace88ac32d794ca9792785e690", "blocktime": 1537870928, "version": 1, "confirmations": 11514, "time": 1537870928, "locktime": 0, "vsize": 223, "size": 223}