{"hash": "63cbd584c5c9ecf98bb526381952db7eeceb6ba3613cb1cbdbd66dcb91ed1c6e", "blockhash": "00000000000000000004ffacab907a6b429b9a5745fa0b75af4234bf69dd7176", "vout": [{"scriptPubKey": {"reqSigs": 1, "hex": "76a91489af59e5ecccfd371c4a3c97967cdfee9ece739288ac", "addresses": ["1DZ1dtozRcrNezuBTqduwwpHM2PsjKk7ir"], "asm": "OP_DUP OP_HASH160 89af59e5ecccfd371c4a3c97967cdfee9ece7392 OP_EQUALVERIFY OP_CHECKSIG", "type": "pubkeyhash"}, "value": 0.00150875, "n": 0}, {"scriptPubKey": {"reqSigs": 1, "hex": "76a9149f14ff3e43bb7ff6fad42a23102b3115bced500088ac", "addresses": ["1FW9bQGhXaNmTpyVWrnC5fHWrJkqAEMe3c"], "asm": "OP_DUP OP_HASH160 9f14ff3e43bb7ff6fad42a23102b3115bced5000 OP_EQUALVERIFY OP_CHECKSIG", "type": "pubkeyhash"}, "value": 1.7, "n": 1}], "hex": "0100000001a72a8c5c10e6dcf00904b162cb22c8caf68a98469213bce63df2e41aa5dc455b010000006a47304402205080e5e8213af47189fced865c420a90ac6c8bda110633ea23c74a4db03cb64d022008ee6edf5bc93c18eeeb396992c947a397f9da6fd2c58bc017af12ac8ab02086012102c0529cd6812b3fce52554eb6880529f90f0a7f184cbf15eb882758a495a4ae72ffffffff025b4d0200000000001976a91489af59e5ecccfd371c4a3c97967cdfee9ece739288ac80fe210a000000001976a9149f14ff3e43bb7ff6fad42a23102b3115bced500088ac00000000", "vin": [{"sequence": 4294967295, "scriptSig": {"hex": "47304402205080e5e8213af47189fced865c420a90ac6c8bda110633ea23c74a4db03cb64d022008ee6edf5bc93c18eeeb396992c947a397f9da6fd2c58bc017af12ac8ab02086012102c0529cd6812b3fce52554eb6880529f90f0a7f184cbf15eb882758a495a4ae72", "asm": "304402205080e5e8213af47189fced865c420a90ac6c8bda110633ea23c74a4db03cb64d022008ee6edf5bc93c18eeeb396992c947a397f9da6fd2c58bc017af12ac8ab02086[ALL] 02c0529cd6812b3fce52554eb6880529f90f0a7f184cbf15eb882758a495a4ae72"}, "vout": 1, "txid": "5b45dca51ae4f23de6bc139246988af6cac822cb62b10409f0dce6105c8c2aa7"}], "txid": "63cbd584c5c9ecf98bb526381952db7eeceb6ba3613cb1cbdbd66dcb91ed1c6e", "blocktime": 1537875543, "version": 1, "confirmations": 11464, "time": 1537875543, "locktime": 0, "vsize": 225, "size": 225}