{"hash": "63cc0442b3c4e7980bce289954ad206fdc9de95349399002971721198048ede1", "blockhash": "0000000000000000001e0dab787dd257d1dbfcb92a98c2207d5e1078be1f4165", "vout": [{"scriptPubKey": {"reqSigs": 1, "hex": "76a91442b9eed7531b3b42dfca1434d8593c10cdda124988ac", "addresses": ["175pLWbX1vBkKwqC1pCRAUjFpGcw3weVrU"], "asm": "OP_DUP OP_HASH160 42b9eed7531b3b42dfca1434d8593c10cdda1249 OP_EQUALVERIFY OP_CHECKSIG", "type": "pubkeyhash"}, "value": 0.00084276, "n": 0}, {"scriptPubKey": {"reqSigs": 1, "hex": "a914759b54f4003b901c6fed5165b3aea4ebb1ecadf987", "addresses": ["3CQs4dio9rYaQkEV3W8gpq1rbNnfDVkcU4"], "asm": "OP_HASH160 759b54f4003b901c6fed5165b3aea4ebb1ecadf9 OP_EQUAL", "type": "scripthash"}, "value": 0.0055709, "n": 1}], "hex": "01000000012f43db8c003bd6feb5b448c16329bbb65c194be823d96d01649c68614b6df129000000006b483045022100d5dad21369bf25a7c08d16a797ff0bb16e1ce2265e79be2ba2b136f53d4268780220291d08ab91643213381f458e573240d7b8d6d211591664072b82c7a48b202d21012102c2a0ed2b0aa9b3ce93444dfd102f6331f55f8941504aa610cb821e4fbd200fdeffffffff0234490100000000001976a91442b9eed7531b3b42dfca1434d8593c10cdda124988ac228008000000000017a914759b54f4003b901c6fed5165b3aea4ebb1ecadf98700000000", "vin": [{"sequence": 4294967295, "scriptSig": {"hex": "483045022100d5dad21369bf25a7c08d16a797ff0bb16e1ce2265e79be2ba2b136f53d4268780220291d08ab91643213381f458e573240d7b8d6d211591664072b82c7a48b202d21012102c2a0ed2b0aa9b3ce93444dfd102f6331f55f8941504aa610cb821e4fbd200fde", "asm": "3045022100d5dad21369bf25a7c08d16a797ff0bb16e1ce2265e79be2ba2b136f53d4268780220291d08ab91643213381f458e573240d7b8d6d211591664072b82c7a48b202d21[ALL] 02c2a0ed2b0aa9b3ce93444dfd102f6331f55f8941504aa610cb821e4fbd200fde"}, "vout": 0, "txid": "29f16d4b61689c64016dd923e84b195cb6bb2963c148b4b5fed63b008cdb432f"}], "txid": "63cc0442b3c4e7980bce289954ad206fdc9de95349399002971721198048ede1", "blocktime": 1537872475, "version": 1, "confirmations": 11487, "time": 1537872475, "locktime": 0, "vsize": 224, "size": 224}