{"hash": "2c91c0b7b8e612fd742b00f2e8689a7089af1be141c4c49db43961b3c52d1a34", "blockhash": "0000000000000000001cda96e906b7601b7a6fb1a3b62bca570a9e5d8f4b3de1", "vout": [{"scriptPubKey": {"reqSigs": 1, "hex": "a9141b75b7a8a41d22e7facca5f7df230dee9f1bbc2387", "addresses": ["34CDBsa1hzcH4RdDYvskTkF33DGg9vVhWf"], "asm": "OP_HASH160 1b75b7a8a41d22e7facca5f7df230dee9f1bbc23 OP_EQUAL", "type": "scripthash"}, "value": 0.01770319, "n": 0}, {"scriptPubKey": {"reqSigs": 1, "hex": "76a914eab60426832d5dd776a61ea937aaa74f1c5e272688ac", "addresses": ["1NQ3AbbaP4sqZN2LxwEHB7Su2poKNYnAkD"], "asm": "OP_DUP OP_HASH160 eab60426832d5dd776a61ea937aaa74f1c5e2726 OP_EQUALVERIFY OP_CHECKSIG", "type": "pubkeyhash"}, "value": 0.0065574, "n": 1}], "hex": "020000000001025c57d37b16c0d9123fec5dcd649f30f1455162059bd1d6f4a1b27f2e0d7b7e100000000017160014bc54e44bb68a4f534d31bb9dd07f574812cf825ffeffffff7fadd10087c7790810ead3642472f62878fd20533303fc7451599307248e24300100000017160014287999d72bbb1c9051da35ea4e325717e9a8efc1feffffff024f031b000000000017a9141b75b7a8a41d22e7facca5f7df230dee9f1bbc23877c010a00000000001976a914eab60426832d5dd776a61ea937aaa74f1c5e272688ac02483045022100d31ba9d6e22d5412152d9e55af73452e2ded7a0bb4331552763258e10f094492022023702911c8a37c38ff75ff0f7caca06b3592b4595fb85f7d1fd5c8a60e0dd5d7012103a38a83fc4a5f46010c71ee41addc9599bed57e765fec5c7cb3973090ba999a7a024730440220171378a56210e8a651d75d3fb36008a26d54e268e0d849852be8206d75d897b1022022dd4326ba5716295be5aa04990b53e0c75779589b44b0384e9020032589fe820121032aad8b720a7d93bf38f201f7f132d6c48bad3fa8ac285b9d03ddd0874edb920f13490800", "vin": [{"txinwitness": ["3045022100d31ba9d6e22d5412152d9e55af73452e2ded7a0bb4331552763258e10f094492022023702911c8a37c38ff75ff0f7caca06b3592b4595fb85f7d1fd5c8a60e0dd5d701", "03a38a83fc4a5f46010c71ee41addc9599bed57e765fec5c7cb3973090ba999a7a"], "sequence": 4294967294, "scriptSig": {"hex": "160014bc54e44bb68a4f534d31bb9dd07f574812cf825f", "asm": "0014bc54e44bb68a4f534d31bb9dd07f574812cf825f"}, "vout": 0, "txid": "107e7b0d2e7fb2a1f4d6d19b05625145f1309f64cd5dec3f12d9c0167bd3575c"}, {"txinwitness": ["30440220171378a56210e8a651d75d3fb36008a26d54e268e0d849852be8206d75d897b1022022dd4326ba5716295be5aa04990b53e0c75779589b44b0384e9020032589fe8201", "032aad8b720a7d93bf38f201f7f132d6c48bad3fa8ac285b9d03ddd0874edb920f"], "sequence": 4294967294, "scriptSig": {"hex": "160014287999d72bbb1c9051da35ea4e325717e9a8efc1", "asm": "0014287999d72bbb1c9051da35ea4e325717e9a8efc1"}, "vout": 1, "txid": "30248e240793595174fc03335320fd7828f6722464d3ea100879c78700d1ad7f"}], "txid": "63d6b6649d510c93ab507a6d19f7cd62441b2575e6a41fb5aa6421b88f283487", "blocktime": 1537873282, "version": 2, "confirmations": 11484, "time": 1537873282, "locktime": 542995, "vsize": 259, "size": 421}