{"hash": "307e5b89baf723696349e9de6f5b829d304efd5a87554a0b211eeca0b8b102c0", "blockhash": "00000000000000000004ffacab907a6b429b9a5745fa0b75af4234bf69dd7176", "vout": [{"scriptPubKey": {"reqSigs": 1, "hex": "a914316313ff1d81ee5d5a42f65d8e4fc8aa33d230ba87", "addresses": ["36C9j1cKnEYDDWU7y3faxydp7YSffsTmJs"], "asm": "OP_HASH160 316313ff1d81ee5d5a42f65d8e4fc8aa33d230ba OP_EQUAL", "type": "scripthash"}, "value": 0.00246716, "n": 0}, {"scriptPubKey": {"reqSigs": 1, "hex": "a914d0581913226e868c3ae8289384860e8eb936583e87", "addresses": ["3Lge1bbMFdYnhbGVSDhamvYXJgM86Mud4V"], "asm": "OP_HASH160 d0581913226e868c3ae8289384860e8eb936583e OP_EQUAL", "type": "scripthash"}, "value": 0.00245666, "n": 1}, {"scriptPubKey": {"reqSigs": 1, "hex": "a914007d710979ae9ced0a74af97af6770c840d97ae287", "addresses": ["31jcCNjT5CYh1JHjyq1oKF7RScoRnkD4Z2"], "asm": "OP_HASH160 007d710979ae9ced0a74af97af6770c840d97ae2 OP_EQUAL", "type": "scripthash"}, "value": 0.00331753, "n": 2}, {"scriptPubKey": {"reqSigs": 1, "hex": "76a9145d98816340a6eab361d897dbcdfda2c99a3d748d88ac", "addresses": ["19XtY6xEYCUJPJEcJcAkBKpcrfMbKmksk7"], "asm": "OP_DUP OP_HASH160 5d98816340a6eab361d897dbcdfda2c99a3d748d OP_EQUALVERIFY OP_CHECKSIG", "type": "pubkeyhash"}, "value": 0.00354, "n": 3}, {"scriptPubKey": {"reqSigs": 1, "hex": "76a91484b3e8f4e42b5ff6bf85860580bcfebf0034b93988ac", "addresses": ["1D6figproghhgUKwM2wonLqq4kT3QUQ58a"], "asm": "OP_DUP OP_HASH160 84b3e8f4e42b5ff6bf85860580bcfebf0034b939 OP_EQUALVERIFY OP_CHECKSIG", "type": "pubkeyhash"}, "value": 0.01696765, "n": 4}, {"scriptPubKey": {"reqSigs": 1, "hex": "a914ffc1d885c6d8cc4abb51a1b0810733eed383518787", "addresses": ["3R1LT6t5xL2YpSeBtrrfae19V3k5MdyRS1"], "asm": "OP_HASH160 ffc1d885c6d8cc4abb51a1b0810733eed3835187 OP_EQUAL", "type": "scripthash"}, "value": 0.00353362, "n": 5}, {"scriptPubKey": {"reqSigs": 1, "hex": "76a9149679bf240b9aed4e23388c20eee6c39fa4ecf13288ac", "addresses": ["1EieCt2D3WFxYjsbsho7BAcWzyHyYWCWFu"], "asm": "OP_DUP OP_HASH160 9679bf240b9aed4e23388c20eee6c39fa4ecf132 OP_EQUALVERIFY OP_CHECKSIG", "type": "pubkeyhash"}, "value": 0.00336792, "n": 6}, {"scriptPubKey": {"reqSigs": 1, "hex": "a914ab3a6f44b98f6b2079ea5a3743a0f3b276fa214c87", "addresses": ["3HJPUTTE6tRo4uScyq2amoNaYf1Ty5Y42d"], "asm": "OP_HASH160 ab3a6f44b98f6b2079ea5a3743a0f3b276fa214c OP_EQUAL", "type": "scripthash"}, "value": 0.00730585, "n": 7}, {"scriptPubKey": {"reqSigs": 1, "hex": "a914349e13d7ba20b4170d26ae2c1c4f5a574456a8f787", "addresses": ["36VERwJ3GZM3HvUXFZMpBTc2eoWisHnLAk"], "asm": "OP_HASH160 349e13d7ba20b4170d26ae2c1c4f5a574456a8f7 OP_EQUAL", "type": "scripthash"}, "value": 0.0028926, "n": 8}, {"scriptPubKey": {"reqSigs": 1, "hex": "a914df58b0a6ff1a02b7327ce91305ddd05aef48308987", "addresses": ["3N3xrcbV7uQME2BpAJDGjwjyz8q3hJZyro"], "asm": "OP_HASH160 df58b0a6ff1a02b7327ce91305ddd05aef483089 OP_EQUAL", "type": "scripthash"}, "value": 0.00711766, "n": 9}, {"scriptPubKey": {"reqSigs": 1, "hex": "76a914823b5ba3729a2f7697107f90209e25f6afada58988ac", "addresses": ["1CsbxCgt8NrufVsaZdKqYdpceDByjXPjxw"], "asm": "OP_DUP OP_HASH160 823b5ba3729a2f7697107f90209e25f6afada589 OP_EQUALVERIFY OP_CHECKSIG", "type": "pubkeyhash"}, "value": 0.00945249, "n": 10}, {"scriptPubKey": {"reqSigs": 1, "hex": "a914fe3a1a28a5306384273e0ee6092ef3a2c85267a287", "addresses": ["3QsFAH9Aw61r7HfJyoz74cSeHo2yQmaEJk"], "asm": "OP_HASH160 fe3a1a28a5306384273e0ee6092ef3a2c85267a2 OP_EQUAL", "type": "scripthash"}, "value": 0.00398548, "n": 11}, {"scriptPubKey": {"reqSigs": 1, "hex": "a9149171d6056cc9509f0f5e40726e415f869ef78d5787", "addresses": ["3Ex4Gpmvb6jmVHWUWLDgKQkUkCxBKQpyaT"], "asm": "OP_HASH160 9171d6056cc9509f0f5e40726e415f869ef78d57 OP_EQUAL", "type": "scripthash"}, "value": 0.02468988, "n": 12}, {"scriptPubKey": {"reqSigs": 1, "hex": "76a914b5209d55e2852462b7b1d2d633d51afa37507f8b88ac", "addresses": ["1HWiNpj8SPC5BF2qLwPXXfXBBrft5ApF1R"], "asm": "OP_DUP OP_HASH160 b5209d55e2852462b7b1d2d633d51afa37507f8b OP_EQUALVERIFY OP_CHECKSIG", "type": "pubkeyhash"}, "value": 0.00660606, "n": 13}, {"scriptPubKey": {"reqSigs": 1, "hex": "76a914882f6d845b37707d1b2be307a9f5b6a5caed2d2b88ac", "addresses": ["1DR5iRxZsJnEpVui23xXxM8mkA7bZRwrR4"], "asm": "OP_DUP OP_HASH160 882f6d845b37707d1b2be307a9f5b6a5caed2d2b OP_EQUALVERIFY OP_CHECKSIG", "type": "pubkeyhash"}, "value": 0.00611964, "n": 14}, {"scriptPubKey": {"reqSigs": 1, "hex": "a91478ba2a6d5b0a004e41608852b073998d08933ee587", "addresses": ["3ChN2atmFurDA2p4pXEGf6rfdNxngEHNeu"], "asm": "OP_HASH160 78ba2a6d5b0a004e41608852b073998d08933ee5 OP_EQUAL", "type": "scripthash"}, "value": 0.00651, "n": 15}, {"scriptPubKey": {"reqSigs": 1, "hex": "a91402d218f9b1387014445f01074a2268ad587f57b687", "addresses": ["31wvxm8x8gy7faPEJbsP6tXWbvu8YbLQAu"], "asm": "OP_HASH160 02d218f9b1387014445f01074a2268ad587f57b6 OP_EQUAL", "type": "scripthash"}, "value": 0.00281421, "n": 16}, {"scriptPubKey": {"reqSigs": 1, "hex": "a914eb8780cd6bad41ea014510830cc51d61ca06409987", "addresses": ["3PAP3YfVCuYxyh1noYURvVvf1KdjzkcKgk"], "asm": "OP_HASH160 eb8780cd6bad41ea014510830cc51d61ca064099 OP_EQUAL", "type": "scripthash"}, "value": 29.25713889, "n": 17}, {"scriptPubKey": {"reqSigs": 1, "hex": "a9149798a98f7bb1be8e0c8b4dac35ee89cd1a376f8087", "addresses": ["3FWaqg9uVXwQrvNAvxmABQWBrk8WqHWGNc"], "asm": "OP_HASH160 9798a98f7bb1be8e0c8b4dac35ee89cd1a376f80 OP_EQUAL", "type": "scripthash"}, "value": 0.00376325, "n": 18}, {"scriptPubKey": {"reqSigs": 1, "hex": "a914023264b3c76f0395406353ce83e08d15a916b27d87", "addresses": ["31tdeKWogV4mf5e7spxoFLhEhxiEhrHx2h"], "asm": "OP_HASH160 023264b3c76f0395406353ce83e08d15a916b27d OP_EQUAL", "type": "scripthash"}, "value": 0.00338681, "n": 19}, {"scriptPubKey": {"reqSigs": 1, "hex": "a91427fbb699c3be9e00ffa7650d52cd431c38a19cd687", "addresses": ["35LRpNTJcJ93tgJ5iZt1WWTB8RgNXQNmwf"], "asm": "OP_HASH160 27fbb699c3be9e00ffa7650d52cd431c38a19cd6 OP_EQUAL", "type": "scripthash"}, "value": 0.02978525, "n": 20}, {"scriptPubKey": {"reqSigs": 1, "hex": "a9145acf543e622cfdc2048aeeb4eb0c328156a3f44887", "addresses": ["39yB7HVzyoosZ4pCjFrueKSaDkVbRckUfB"], "asm": "OP_HASH160 5acf543e622cfdc2048aeeb4eb0c328156a3f448 OP_EQUAL", "type": "scripthash"}, "value": 0.0003125, "n": 21}, {"scriptPubKey": {"reqSigs": 1, "hex": "a9148d490ba15b5a2c3476d6d5f8db346d21afd6345487", "addresses": ["3Ea4hsqg7w3rvMMJkMUv7jkNoVF1JmCdET"], "asm": "OP_HASH160 8d490ba15b5a2c3476d6d5f8db346d21afd63454 OP_EQUAL", "type": "scripthash"}, "value": 0.00211066, "n": 22}, {"scriptPubKey": {"reqSigs": 1, "hex": "76a914e781a238ec6b773d2039e20916a440457f058f7488ac", "addresses": ["1N76PRJADGA69ckwRHi32xk34G8MpAb5Gc"], "asm": "OP_DUP OP_HASH160 e781a238ec6b773d2039e20916a440457f058f74 OP_EQUALVERIFY OP_CHECKSIG", "type": "pubkeyhash"}, "value": 0.00312905, "n": 23}, {"scriptPubKey": {"reqSigs": 1, "hex": "76a91408057032b11fe9cd74aa2f754bec1bd6d528c5f688ac", "addresses": ["1jQvPmQTHSJQjkSFZHqA3aV6ky2uMmpp1"], "asm": "OP_DUP OP_HASH160 08057032b11fe9cd74aa2f754bec1bd6d528c5f6 OP_EQUALVERIFY OP_CHECKSIG", "type": "pubkeyhash"}, "value": 0.02251995, "n": 24}, {"scriptPubKey": {"reqSigs": 1, "hex": "a914c7fdc05d280a01f7f482e199520f03d5265099bc87", "addresses": ["3KvUNg9rKnXVujp3jTWPcfzQSK9Hz4GrLs"], "asm": "OP_HASH160 c7fdc05d280a01f7f482e199520f03d5265099bc OP_EQUAL", "type": "scripthash"}, "value": 0.00972518, "n": 25}, {"scriptPubKey": {"reqSigs": 1, "hex": "76a91412830cde142552308b275ae99970cc510064572488ac", "addresses": ["12gt9z8CBaSXwAWvFJVc1YVrWFPd7DEz4c"], "asm": "OP_DUP OP_HASH160 12830cde142552308b275ae99970cc5100645724 OP_EQUALVERIFY OP_CHECKSIG", "type": "pubkeyhash"}, "value": 0.00666742, "n": 26}, {"scriptPubKey": {"reqSigs": 1, "hex": "a914dc584cc4538e3c05b22111397664183156cfb9a787", "addresses": ["3Mn6MvqUX5EHLLoBKXZvnszkqsLafwZvLj"], "asm": "OP_HASH160 dc584cc4538e3c05b22111397664183156cfb9a7 OP_EQUAL", "type": "scripthash"}, "value": 0.0143986, "n": 27}, {"scriptPubKey": {"reqSigs": 1, "hex": "76a9148d29ab5bfba9c0e22b9574cbd8bbcf716c60029b88ac", "addresses": ["1DsQCHdufRiN1zhhMWP9xWUiddqmtiQsnh"], "asm": "OP_DUP OP_HASH160 8d29ab5bfba9c0e22b9574cbd8bbcf716c60029b OP_EQUALVERIFY OP_CHECKSIG", "type": "pubkeyhash"}, "value": 0.002454, "n": 28}, {"scriptPubKey": {"reqSigs": 1, "hex": "a914fc514d23bf9875043cac3a4ed7a5ca51f18991a487", "addresses": ["3Qh9boNEfYyrwJFDesubkuWfm2qobnpVsg"], "asm": "OP_HASH160 fc514d23bf9875043cac3a4ed7a5ca51f18991a4 OP_EQUAL", "type": "scripthash"}, "value": 0.00161287, "n": 29}, {"scriptPubKey": {"reqSigs": 1, "hex": "a91493b071085a6247087cbb826adfb6c35aa4a45f9787", "addresses": ["3F9vd7epoJJjDMXioG1jfuNCUygon1cEHC"], "asm": "OP_HASH160 93b071085a6247087cbb826adfb6c35aa4a45f97 OP_EQUAL", "type": "scripthash"}, "value": 0.06253811, "n": 30}, {"scriptPubKey": {"reqSigs": 1, "hex": "a914378ee665eac707c26b3c04f8522b7ddf7d29996d87", "addresses": ["36knGxddCmqnP7MforNryKYPC9JUvmXPje"], "asm": "OP_HASH160 378ee665eac707c26b3c04f8522b7ddf7d29996d OP_EQUAL", "type": "scripthash"}, "value": 0.00924451, "n": 31}, {"scriptPubKey": {"reqSigs": 1, "hex": "a914d2dede10e30e2dcdf2b84083b7b507126c50b62987", "addresses": ["3LuzovsnCdG44uxzQfdSLKYduMxqfJfX7A"], "asm": "OP_HASH160 d2dede10e30e2dcdf2b84083b7b507126c50b629 OP_EQUAL", "type": "scripthash"}, "value": 0.0034226, "n": 32}, {"scriptPubKey": {"reqSigs": 1, "hex": "a914b7d783a9774c2c232c6d52b3c6dbb9cbb5e65bd987", "addresses": ["3JT5kqyEZWUQd34tracHn21A951GJuzmUo"], "asm": "OP_HASH160 b7d783a9774c2c232c6d52b3c6dbb9cbb5e65bd9 OP_EQUAL", "type": "scripthash"}, "value": 0.004429, "n": 33}, {"scriptPubKey": {"reqSigs": 1, "hex": "a9140f09e139088ce43e50f81ccd17e1fd074fef15b287", "addresses": ["334XtszxwtJNj2M2i5d1dUeQCXRow7AJug"], "asm": "OP_HASH160 0f09e139088ce43e50f81ccd17e1fd074fef15b2 OP_EQUAL", "type": "scripthash"}, "value": 0.00197, "n": 34}, {"scriptPubKey": {"reqSigs": 1, "hex": "a91483e0392507922c15f06016314bb2e5d573016c2187", "addresses": ["3DiK3yZmuvcsYsfK9jg5s9CSXB288hnWgd"], "asm": "OP_HASH160 83e0392507922c15f06016314bb2e5d573016c21 OP_EQUAL", "type": "scripthash"}, "value": 0.00074025, "n": 35}], "hex": "0200000000010101ba074a491893464e430f4da2c26524e672311b78adf33bb32549423599071c0300000017160014d889a389ae1de243c131d8bf4800a8e326e9bfe6feffffff24bcc303000000000017a914316313ff1d81ee5d5a42f65d8e4fc8aa33d230ba87a2bf03000000000017a914d0581913226e868c3ae8289384860e8eb936583e87e90f05000000000017a914007d710979ae9ced0a74af97af6770c840d97ae287d0660500000000001976a9145d98816340a6eab361d897dbcdfda2c99a3d748d88acfde31900000000001976a91484b3e8f4e42b5ff6bf85860580bcfebf0034b93988ac526405000000000017a914ffc1d885c6d8cc4abb51a1b0810733eed38351878798230500000000001976a9149679bf240b9aed4e23388c20eee6c39fa4ecf13288acd9250b000000000017a914ab3a6f44b98f6b2079ea5a3743a0f3b276fa214c87ec6904000000000017a914349e13d7ba20b4170d26ae2c1c4f5a574456a8f78756dc0a000000000017a914df58b0a6ff1a02b7327ce91305ddd05aef48308987616c0e00000000001976a914823b5ba3729a2f7697107f90209e25f6afada58988acd41406000000000017a914fe3a1a28a5306384273e0ee6092ef3a2c85267a2877cac25000000000017a9149171d6056cc9509f0f5e40726e415f869ef78d57877e140a00000000001976a914b5209d55e2852462b7b1d2d633d51afa37507f8b88ac7c560900000000001976a914882f6d845b37707d1b2be307a9f5b6a5caed2d2b88acf8ee09000000000017a91478ba2a6d5b0a004e41608852b073998d08933ee5874d4b04000000000017a91402d218f9b1387014445f01074a2268ad587f57b687e1d962ae0000000017a914eb8780cd6bad41ea014510830cc51d61ca0640998705be05000000000017a9149798a98f7bb1be8e0c8b4dac35ee89cd1a376f8087f92a05000000000017a914023264b3c76f0395406353ce83e08d15a916b27d87dd722d000000000017a91427fbb699c3be9e00ffa7650d52cd431c38a19cd687127a00000000000017a9145acf543e622cfdc2048aeeb4eb0c328156a3f448877a3803000000000017a9148d490ba15b5a2c3476d6d5f8db346d21afd634548749c60400000000001976a914e781a238ec6b773d2039e20916a440457f058f7488acdb5c2200000000001976a91408057032b11fe9cd74aa2f754bec1bd6d528c5f688ace6d60e000000000017a914c7fdc05d280a01f7f482e199520f03d5265099bc87762c0a00000000001976a91412830cde142552308b275ae99970cc510064572488ac74f815000000000017a914dc584cc4538e3c05b22111397664183156cfb9a78798be0300000000001976a9148d29ab5bfba9c0e22b9574cbd8bbcf716c60029b88ac077602000000000017a914fc514d23bf9875043cac3a4ed7a5ca51f18991a487f36c5f000000000017a91493b071085a6247087cbb826adfb6c35aa4a45f9787231b0e000000000017a914378ee665eac707c26b3c04f8522b7ddf7d29996d87f43805000000000017a914d2dede10e30e2dcdf2b84083b7b507126c50b6298714c206000000000017a914b7d783a9774c2c232c6d52b3c6dbb9cbb5e65bd987880103000000000017a9140f09e139088ce43e50f81ccd17e1fd074fef15b287292101000000000017a91483e0392507922c15f06016314bb2e5d573016c218702473044022021db42ebdb464f2eb2d7bef7bb3f86d6f198eb1b57065aebe1f25c851879eaf002207bb4633e39fe2616d6d9d7d8573ddf1a98f2a5462fa6e2dba0d7d364310711b2012102fb0291479f129d6e26f1a6b567106c69254c156fff3dee21a4acfb98ea95db9116490800", "vin": [{"txinwitness": ["3044022021db42ebdb464f2eb2d7bef7bb3f86d6f198eb1b57065aebe1f25c851879eaf002207bb4633e39fe2616d6d9d7d8573ddf1a98f2a5462fa6e2dba0d7d364310711b201", "02fb0291479f129d6e26f1a6b567106c69254c156fff3dee21a4acfb98ea95db91"], "sequence": 4294967294, "scriptSig": {"hex": "160014d889a389ae1de243c131d8bf4800a8e326e9bfe6", "asm": "0014d889a389ae1de243c131d8bf4800a8e326e9bfe6"}, "vout": 3, "txid": "1c079935424925b33bf3ad781b3172e62465c2a24d0f434e469318494a07ba01"}], "txid": "63d6eff0dcc68eabea4b21a026d774e967d4d6693428a366a6d2d8990e5c1c04", "blocktime": 1537875543, "version": 2, "confirmations": 11464, "time": 1537875543, "locktime": 542998, "vsize": 1274, "size": 1355}