{"hash": "4442917dcc26f76c8c7e9611e612e7d7525b80e00dacdc88913fc1b6d1879e9c", "blockhash": "0000000000000000001cda96e906b7601b7a6fb1a3b62bca570a9e5d8f4b3de1", "vout": [{"scriptPubKey": {"reqSigs": 1, "hex": "a9147ae5d8d35fed577b921f911974f25a739881910387", "addresses": ["3Ctqhzf3VSYUe5rpaoHXycykVerGR8hZJD"], "asm": "OP_HASH160 7ae5d8d35fed577b921f911974f25a7398819103 OP_EQUAL", "type": "scripthash"}, "value": 0.545544, "n": 0}, {"scriptPubKey": {"reqSigs": 1, "hex": "a914d5cdb8d41b00b42b3a2d875dd7b41d58267626c587", "addresses": ["3MBWJDb4zgc9gUJBWdrUBJFfmqBexyxmcp"], "asm": "OP_HASH160 d5cdb8d41b00b42b3a2d875dd7b41d58267626c5 OP_EQUAL", "type": "scripthash"}, "value": 0.00975011, "n": 1}], "hex": "0200000000012d01a9e79fe7f183ac58d25518d4fca167479012539834e9a007e815378175402400000000171600145adeb2c38564ae5fb3d53e888cc82fa81434cb8cfeffffff09ed21fe5d27df9dabf105b8b66ea52531779a3b0ba0be66ecb314ae9336b1bb0100000017160014636965246030013eff49df42deafb497588d3dcffeffffff144d1b68d19f46ccab864c7af287a3baeecd4da522670bb91a176476756cbb820000000017160014e84b1749668d3f96e59792b3f608c2947ff40d40feffffff17c380b9e0054773b25cac795b1c63f109682e86ff44479808243dbb7b2de347000000001716001410d1615772326df81fb64c59c556cd4161038531feffffff187bee052b83ac8c83a48d6dc8f831eea7fcb3b026c7e8519eb4bdd0508bd7ad00000000171600140d832b6a21aa30c6131217cd2ad479050c9a8938feffffff1e5a0c3da59815bc6396955a8ad4109d1783fec2c0383ee2183952aac1d96cfd00000000171600143b18007594e142009d2e28613d62a1f7e3d4c63ffeffffff2350060516c9c775f78bd78a4f04eb8675a2630238fdd274970eb712a3c3aa4a1c0000001716001446ea8adb7b3f13414de8a3d39f1b899eb357d5f2feffffff237a1d1c1240f67e494b9d16fe1e16e5214b61fd90816d7de6ce360a2a228fd700000000171600145f509f38d71d2d01d8cddb4159495d041b48a44efeffffff2748a4e7fb8a0330cf9271061511047508d69a9a765f029d6913f80fb9b4f92d00000000171600140659c58a503f598ac14abe6b2c0ed7124c130055feffffff457a1188d331574a692e6fff2a3037ac124d97ca6bd1c3e31824eff2e9b5650e000000001716001406b1e18a6228093fa65a75a0d937fa5e38dcd9b6feffffff4937b550ff7e62fb8cab42be9b6f5a830232be08e48a96960c686fb9f730b94e08000000171600141f03ed20f0aca4dfd06a5e33ca34979c0e3475fafeffffff5c6c1dfefe7a2f175f7faeab8a2e331395eb14407d1e32b79195608f6927e7880000000017160014b3858ccaa38ea80acb7221a46b18d7f322453ec3feffffff5ea9a488ade7058479da6b230ac17a4a8e0a7156bbd3232049140a6b1423d0830000000017160014a9b47e76534f3ad839ac85d09fc4e9e6a3b50c19feffffff65063695d02ac9495bd790b5c8857d961293ee41cc8d3f8610782fe61137b89b150000001716001402ef06356445dd2797d29f9bbd42297ad1875356feffffff65d712a76815f022f1dc516a7d9c2b531797902432987260c9f3259cb48f0f841700000017160014302b41c762f41f2a5e315cbf25bb8affc814f18dfeffffff69453585c70777b0641f16645471ae322bd2033ced999bab3a17b9b72534f2fe0100000017160014c88e84d1ce4020cf4e4093a9eb66e73a24d1cbd3feffffff6c473c61688cd6dbfd22ae16ff96ea4f15b9c5431c3c052f51c83f5927eab91d00000000171600147f27de7ee8f0216396f2856fa2e213ae93288636feffffff6f40147cf9d5632b49a408752fc2cf686d790c6b6172b69c6e5f1b32343989020000000017160014b8be4e215ad95d4ac64da97def3a4625e90836c9feffffff73e9608ed8d76fa99dbb9c40eb3238442c5464ffbb6686acca24af70f69bd57c00000000171600148bbbd7069be10898298f2506ae9a1967521f01d5feffffff75b07de34949231ebff4259e77d08e67963d66732152c52c8536d4d9f137852f010000001716001410ddb3c2c740fcd0d29ce9a4f9002c05af9e0443feffffff782df87850db0bb4b226a4f068e06ab2bd88c0c992868ddd3231540049e751cc02000000171600142434cf2d01d536692e9039b813b9387ae4a8950ffeffffff78a67ffe095a3fa76c5338be1fc4d57b8a2820f46b12dceee79e5ea903e1c46601000000171600143edbbf3f395841eb5245fa67501f6509fd54e3aafeffffff796996fa229f96da0def04de37a99f434668cb08119ba6b32eaa445a7fc64d41010000001716001493308f27b5f2a5a44b0a858de2c2ad8fec239bfdfeffffff8d1ef2bcd1cfc70d91509e4f84216f5deba29d870737a40c164895f4c7724b75000000001716001427abdf985e691a505a7ed806014b5a99807e6fd3feffffff902f358745effa56bd5b7c568e9b7630ac80627008a3bd7d8853c9e255704f030100000017160014c65336f25488a2aa8181c00ac570599dc832214efeffffff9040d0c625926b75477adf7e9f26eb67774ec6eac1738bff2fecd0dc688b83f4290000001716001495da099910ed1973313035ff2bf2eb01b15c833dfeffffff9614837b345019251c6a7da7d339e1a6881ecf611a62ff1efaddc485144c164d040000001716001440e6473fb4cb23060f76d58298b78ec50e4afaa8feffffff9a1bb54c55b548cdcc09c4a0dd3fda1df61ddb4918c1f7586371d456c75898a40100000017160014921839a89bfd5274ff73ef2820cfe22fce1e192afeffffffa29533b84324ec0ec46f31343e000b0112e32b84bf2d6939cd98b27e9e818a830000000017160014f57944a5dd3545474feb2d651b5ae2019c587b1afeffffffa49a1a66354ad1994143c9f1a0704326de9072a091b82acf01c3f6f88aacac9c0000000017160014d923d4565db92d5f36a11b741c2a8851f91c0fa4feffffffa7d45ced93cf00ac73081604e464f4b749978ee4615dd9cb0d791cb34a25586c010000001716001433324c55489cdfab7d1dfb90f88bf9b274c399ddfeffffffadaf18455bebd2af8012b6426f13db2c3b2a804f8244c9a8efd508f4188a522e03000000171600143b54359fd54d1b3dc4f2f3f5ab8bac887a6d347ffeffffffb2bac604d9ea4d89b753b982ab7c9cabca20b76676229b0103370cd340cb82fd0000000017160014c8e98b3bd7a03975ef78ef95e8dbd658869123fcfeffffffb8db95662703e9186d586f6884b5c71a8e6b6d4f554a30e10e7da674925dba3a01000000171600142a574804c0ea4d1abef16b1957df518dda19263bfeffffffc9d3117831c3c2cf6dd7a47bbf6c56f3b046c8430865af76978b394940c7d3ed1000000017160014f42ab6de361c5338edc1fce993d95462d1e22d40feffffffd2405a02dcd3a1244ec931397cd47dd9b32bf7eba4682f9b124c8706e6c3233d01000000171600140578041324af522f1f78ebaf621d932c8d141fb8feffffffd92d54668e4362505281a2d220aa32cd29a8d6fcee4f3f5f3e695922c314eaa30100000017160014bdf90f86aaf50cf4fe1336374c771c2aeed63e49feffffffe8181bfb45f77ed7d6a859dbc0355ca2bc324d8b899ea8924fd23e2c00f5825e0000000017160014dce3287920be54c64789174afc884d7d0471ab3ffeffffffea0e2ccee4f7c53af9c792178a41bc0e28b57d563cea0b457d312956126293eb00000000171600140378fbfab0e58a9022f0a39be1c7061a8907e391feffffffede20bb9411bf3bc357fbc9876b67f1be4b9686c44a4c6a3f0886a9f967fdcf300000000171600145397a0fd32308c3903e897a97ad026c55b1db99bfefffffff4019cf5f96e36443c6a8be579bde401e5bc79c70166b23ee51a1f120388baa40100000017160014adb54520b7dea0b00b61545f98a2c7ab73388573fefffffff420150a342879c2f92c88e276c50dd14fe61be00bc9a00d308742045ae9805b01000000171600148e1cca0a0dbac2ae23b67d876ee467929f64b714fefffffff4a01f5390dfa96666325f00d1ce5aa6b689c20e157050ae9b3abde4dd3c39481d000000171600148dcda8e8a0048712f25c28b1c37075b932d77d96fefffffff6ec84f3d8ecc854905ee635e4a4d99c130cfad00c141aa9173f05ba8cafadf300000000171600145d9f6900c0073b6e54e9ff5a23570fa931d5e513fefffffff72f85860e6049a26e5f961d72fb21c2ef52d8dd01794ed36ea167bcc39b7f58000000001716001465985f0663052017e5743fc2790f01fe6aee1164feffffff02206f40030000000017a9147ae5d8d35fed577b921f911974f25a739881910387a3e00e000000000017a914d5cdb8d41b00b42b3a2d875dd7b41d58267626c58702483045022100e0b6fb697b977a12243f573a890f487d36834d46ba9d78b6314b59f7abef9002022032ffb36c282157e12d19bf688fa7daabee3f7a12613713ffe7dce9084e3c0d89012102953cfc2852183f6a5569720446acf15f9da8e54bd5622e972da150cb49464b9402483045022100ac034cd37381b8112c45e958073915ac2b7133db635f9404586ec4ecd28094dc022021ab3fdb57b3e4035b6554e9ca0c0b2dddfc009e74dd47e63bcd99a8d0db8ae40121037bb9f718dda0f36d478fac772bd7a97854b7b0b6c1199c37e713f861af2bdc8802483045022100b7bb1a9e3e73c4a39b94b593ec021e9e9d5f2eb38fce550b577892e9256f0c2302203e1b5e6a274f1cccd5c6ca9e4742fb8af1b7d944e3145b0b594e8246599bdbb90121036d387f333c7421ce975ae91d8b299bc06546ec8ce4a41dcbc3b1f394578f7d7002483045022100fc2c206fa802b6f1cf0c7ce6bf6076d3bb5f8e34af64cb992fbdd2368272b70b022024574388455386a3e25a77d999043f7574ce8dd6a8f24e9ae64e0a9eba339a5a012103952fa409f9344287bc2653cc1f16462e7ede5ba25d8003f658f6e3d8c2de63a902473044022030f42e814ede4120685278618526310f35b2c5eade89046f1f80189dafd606950220670f8bfb0b6feeada81a343355eb4423af7a10ecf5c2631feea36bc0c3ade2cd012102263e5f78360ace601b372dd87145d07f5412c47f5f3daa30cb72705f3fc78cce02483045022100af97eeb73cf25f8865a1b15b5df38a9cfd883037815e4480226ef57893f38f2f0220469128d8aa552d26fa453611bb6f75b744923a0cc2e1739e5bbb32dd0f3e0f7501210385a314da319a67b1880db9ca8a759bd42754e9951330d19c79246c586ae37f97024730440220099e3c4dfe97ae9fe4d6f408ecf72ef93fd6448ff82ac931a8d68e8e9f323dbf02207defa4c832819bd8b6116117e52dc37debb862991580ea2506257c05e95dc03c012102c965c9d90205ed0aa0cd56362d3eab7ed2f72ecaf2338bdb6ccf7a181dd61a8302483045022100df61a59f2842f4d080d2c58fbe5cb96c620ee57844efad6b140bfd309a86d1bb0220154aa83103b2712d2f838d7c8aca30bf70f598ca77115eda702eaed39166bcb8012102446dd6b8110f4d246c43bd8a60bf0a733ec3aeb5a91f21f3128a602f7681ab2e02483045022100c44584bc7d75798253c50426cb0ea56febae5768d15fc5f087bd3f4009b47bc402204b5a29087dcb791eaea089eac3454c1a98a8703e0ae93b0c3884f03e42cdd209012103ddc1bc57c86ffb8ebb968c93cb423b2ed9b6b879e8cf8135b6c83b14322baeb102483045022100e7ce973164115052496a08d831049993232a77cf3b664e9b70df329cf5317f3a02206192307d3f6fc3ec229a3c5d410e1d99860a0b6399b3c38a79dee7bb0a121d6d01210205d638e27c8efe268fb68de88e600ba90f7cc6d1166be45291e1edf4e9cf6db402483045022100e5c2b7241e470cccaba529d1e035b8c6a8639d8bb5d672c3dcb8e6c60e1af9be02205582833bd35c736af982b9f361a440598a49f3bec0852db53e93fef73a7445fd0121035adf60462e6f7a9639f7ce84ea63345766e984a59a8e377903080db3a2a80b5302483045022100ef7c07637d51b044ce9d69e9cf88cfadf2ed59aa0d5ddfb1099354849e7501520220303f698315a5f13c1a0b48f3756f3906e4c0979525a4e4e6f88ae2beabb0a84c012103061dca93c88cea2837b6c8893f2fd595f8df90be4382778fcf3c2972853c1eb50248304502210082c583a0b3ab4467e5c6ef22d0036d58064268b65b7c7b75f4984fd030f94a0902204e69c66c500530bdaa5ad392193b635f27ffda947df837f1b2fc22d523853923012102ea2c5194b2d74f14264c4c835a076d5e95540731a90f4fc7f323be800ef6c7fe0248304502210098ccd35cb4c78bdf281f23082cf893022b275783758fdc8ce5d093663a1ed99a022025e23d851b11996db59429d313397ffd1ac7384c62cb6b3cd6442795fb14da140121029fb945b85e892d4f4c3d7773d43b4eedb3520fb0f2a17c02d57f7f08bb499a900247304402205eedaf910febead3cdfb60dcb7f1d5777d5d418027ec6d5b01006c440f36d2ac02206501f06befde631f29ef30375dc5637ebcf966259005818045662c26d4a70c7f0121038f2027dda041c2d92658a3104f65fb9a97d7863053b0e896deea9842c7ac177c02483045022100d3ddd4ae9a6e3450101f530bd53f6335ea715c8ac5dcc3a13b0c60775503838c02201197da98a9cf138d54f337c35215050e6673f7fa21a17c2253b9a2a5dc3198fc012102d171184f747df64136166e41d99f103657fe241bb64fecbda63d51b27fa6892f02483045022100926bb310aa0ad260b798ae2b0fd06b1e61e7d2505fb035577169e8e1f78549cb022027d1060419721ed3f1b539d15426ef29adcb3b1779734896dd7c580bdc5a95ef0121021ec3b57c5cf95b84d3d0605b2f9443309a8b45e843e0150043d06d63c0129d1a024730440220734b7b82b51ed1ea513b53b8930bfcc3f330377f1c233305975aa5d4a4e2d43d02205c9b426a5f0ee0f7c1473c77674ec5f895f06b5b5651ebc3e630466d889a7191012103215edc8c231626b2a31ee90a5b407d85becc748cdc018ddb16a8022b1c1b9e2002473044022059d7decea0892a2f4915128f1a3f644f8bec0941bc9be11d613d5f6b5f6c88b1022013049e278e2a05873c324ff8e1b4a06eb22447f555f9cb9028cb2a3193522100012103ffded77dcc8ea40dc6cbffcdfad805cb0f2fbf9881087cb3a4a63b2e49cbb0370247304402200c9dda94d281df38259c904d12038d5ccdfe633071d36ea2f5169036e73a1c7302204f7e4870dde1926a025e542aee57d78570164b5e2d4e50618c64796bb4f6bc930121038569e44cd2268b3caf2a00737299533faa80dfe6dcbaf65ac36a3a7d72aaf76602483045022100ecb87e5ff0df2248adff77bd72469968f795962ee042d867bbfacbf9cb84e8e602206942d7d26501f8ff9cb02e836e9dc56ef9cc9b3fabeeebaa7204828c961656e001210368d3c4920cb869dcedc45c08bd392477a0435d17621510129203b6b36662cc6502483045022100b959fdf99ad78907a280464fac5e461b63e0a3cc3f0daf3f0e37f6e9f375092402207f140ad56cc0279d45cae335e7c28f487fbc25691fe6e9e454cc75f8c6ed23a70121039438ce72ec1723dcb7e4a3d426d21e83cd13f1144022fb39f7813d71783400bc02483045022100dd38e5c0fbe186c4b56a25edae15a3f895cf0ff186dc0afddab523e2238f79160220790b19b9efdbfcafdfe564fa5bc1bfd4929a845d32b4c232c5014abc89f5a896012102c5fd038b5188d1af308658c13583968aa01a81969fc5c3efa7d8134e138e823202473044022015af8c3597d3759174b54f3290453e4a999e49533d542a0a43e5207fe2ed48000220036e08cbe3e27b8e5c56716ea4f79ac363622cadfec9be36c8c2550f9acc8f3c01210381a919fc45f8e6175ced7f6e9f8e0b1a7fea1cc9a5624693b4a864f311c4f476024830450221009fd92b72611a93fc7584324ba4e6cd94613c29be04c4d99bebbd8e41fe062a46022046953db804ad600f03e9918b6b11636c14a951ffa27ec6cc0716b1c652cda3fc012102fb13e2e77d12880502a1a1c88f1c1c3e33c63891be7e9ceb3e070cabf13111d50248304502210092cd0b4dc50bc2f0ddc3154d14fce9a15a9337336046bdfa9b54fa3699ccc57102204313e943bf93501bf841fb243e6f350d937eca1bcf8fc1e6ab038abf9ce8b1b50121037879f0f9940b2cab162fb2b16707aa4756e7822e902778dba98d27a351494f9c024730440220096ca87718afa6a3276e34b71d8cee348f9d91f55c3225af387d3d8b42b5045a02206a72fa06cb3ff37922aca3dc295961114d89a4636e1919d4054ebe1bb79c5e95012103e058f6f77fe88f3eddd9bc72cf6761631b0d2cc5b3bc4352913b948a47390053024730440220369c2d0212d2bdbf30e904d684d2a8c7caaca571dec76349dfadcf4efc72088d022053de69811a2eff6feb32bd7120ebff1a052376f455aa803ec04074c2d6272c3301210337210f1f80331f75335c1a0079b7d045910f35a0e37f80d6391ff8e05720350402483045022100cd26f8b79181a18c3513ea780b635c0eca4cee68de9225f348cf76e19252c28b02206796d8f5b16bd22512b66e350d44cb3992dec43731c457546a3272ec57aa26c9012102193d898c7aac9e9b6e8cea8b16c897772dc5aaf18c142301946fdec3fa03190b0247304402205f6ef189f295ebd4f4fba54feee8305732f6b4709e8d69849cf4150d8c66efdd022007830c44d613f597435cc3694ed6cf646d00859ea118c79c1454014220630537012102ab6545cda31eaf546fe5c9a53c8f959db94277ba515f5cd906e7ba3ce98fbe1f02483045022100ca1b2bcffd16d1f2b40b75cbca1848afeda78acc8123d18551becefec273872e02201e9d7e71888a992645887b866db2ae8a9d8aa4da1370358a00491b83cb7b327901210262d743e9439451fc748f8e5cffae4567f97bc04ed4b2484b069358fc9aa3c4630247304402207555311acfc3c0c27e31e8198f839ce276e26a31db52140600d459ab5f2aeaf6022031a3a3d8b34ee5acc1e2ac4c7615efc3204404f3956a9828c6e0e91f93e251310121026769cf22cb1d5574f2acd6507dd8f786982a57899de38620f71c967611d0c613024730440220346742d98de8a057b5e42195a9d85b1230a8acd72ff09c194c0600f4cb6e103f02204925d8991351fa2b148f6b7b26a44f35106b1437fb682d028964ab60dd8463bd0121035fbc7178dc33f241be3784bb3db27a5edafc6dd644c5d12bc5969d3cb09a309f02483045022100cef749668cb74c888a57df2b2be3ed0530599bafa0eba7176905206a4f1655df02207bd47a1314f9ae103672386a65c34247c527bf1cad4e55ba81f78fd06571d4f50121025248a3ee9cb9da72f8021312cc67217fbe9620897b4237df14723adf9de4a3730247304402202a247cc892d06829ce06496fdbff2f6789d03efa91c52edf9518b88b253bba0c02207606d4456ef975bcd62ae445b56b341f1354d7a39df3de9e147fb7e54ac24714012102413c3b693dd07aa0208a47f9248089456d2d514e2ea37b5a6c2e441d821dc9c80247304402200080c0b3af0efa3ae0adabb40195907fa0dcd28a18e5b936e5153312fbacb3d202205b315967f426c3c4769f2fbe003f594d33e931401370d0ac0d69c02d044628040121026f28b0b48424f5a7d8538cdde5b0b8f20f6eab594c8aec0b4e942d35776b9d7f02483045022100a196b942f9c2e4d3f0d33ed36f5f99bdea63ced253243d53e838f4998305018c02203a23e735c44f67f8e19e9a54d578eb5ef133f4e822dd3ba54478aaf843b25a310121039542a5873a5624e38e15f69ae9144f751a4c9b332d3ce7c9592ed470c854463902473044022000c3ecfa818b2a8eaa0a7edf7810c127642fcbbef872a0a860b0ece550caa12d0220059428f35663a1598f225fee221133d92251c26bfdf02f41fbe45a97596cd9f6012103337d7b41c2dca81248069501187f0f75376d770b4115b78585fd3fa9c9a8ae29024730440220282094943483ea0e9bc701f33ea153fb71189c7609ec1eaefd146d12ed843f2002207b9dcfefbbb6f03bc2cbe61d7cd6644a95cc0873598eb0c2d5d480e9258a6d7f0121030f9e19e4a5bb758ceddb94a713360cd25916076f68060419c4c5d8c3b15bed8e02483045022100bc8a4744b36c4aeb70a7ab819a029f60cf575ff868b204ff1b59f3087c66e0b0022053962c150e794911ed2acb82df23c710e80f641cc3f3e281e684bdfce5d7ae590121028cf45b31ca6689abbf482accb3aa3d6c2eca1e8a20c82421824e00b0d5fb4d600247304402204c714b1ad2d8a46970d8f340279654aa76d0ef1f5009ae5936ae35e7c34dd9dc02204b702628dbd534c0537dace5fdd3e691cc28268435f1a226117a5a2196787cda012103b8e97e0cd26265e373887148cb64351e8b2c09bff84febdabfde482c5a6253390248304502210089398810c6d0ebb2cc6d8322fd1a5d2766503c5e7fc4104af885b4e9d278982f0220720d680008b722bdb14a35f97b14591a4f309502f18cfb8c88541c5f1e06ab5c012102e1c6af32a826254d7c81006d7a434f2de6a82c3a5dec7215811293b852e651070247304402207ac93fad0bd43db35c6f5a6932c8241872a6bdf0bff39e326de58fa2f9d86a18022035afc13a1368d8af39d5811b23277d4712cf32a200fa53e2ad8444a24071971e0121025d7f3023322c523dd1d4d8c30e93f8e3ca1b866329f3eed2bbd29c4535f86c7b02473044022028be132d44b02b96d8455cef828d3a6448d817ca499e0d1d1497d183d8612dd10220332745a440b89a1ae32367fa0f62434f3860fe60114334e14c8ea43a785a62fc0121036cdfde551f22b1f70720ba18486c13d48b6b79120fe281b650cc8589d64ff8af02473044022073440652fbcef483663673c29181160a9ebc39596d0c62bd1c865425ed35562202205b8727917b28bd440460c9b2c298400d4bd93fb381e31a667fb63db24e0647c1012102c695034c520a722c83ed218d6f8eda276a7e8a1272f262e5fd171671facb7e6c13490800", "vin": [{"txinwitness": ["3045022100e0b6fb697b977a12243f573a890f487d36834d46ba9d78b6314b59f7abef9002022032ffb36c282157e12d19bf688fa7daabee3f7a12613713ffe7dce9084e3c0d8901", "02953cfc2852183f6a5569720446acf15f9da8e54bd5622e972da150cb49464b94"], "sequence": 4294967294, "scriptSig": {"hex": "1600145adeb2c38564ae5fb3d53e888cc82fa81434cb8c", "asm": "00145adeb2c38564ae5fb3d53e888cc82fa81434cb8c"}, "vout": 0, "txid": "244075813715e807a0e934985312904767a1fcd41855d258ac83f1e79fe7a901"}, {"txinwitness": ["3045022100ac034cd37381b8112c45e958073915ac2b7133db635f9404586ec4ecd28094dc022021ab3fdb57b3e4035b6554e9ca0c0b2dddfc009e74dd47e63bcd99a8d0db8ae401", "037bb9f718dda0f36d478fac772bd7a97854b7b0b6c1199c37e713f861af2bdc88"], "sequence": 4294967294, "scriptSig": {"hex": "160014636965246030013eff49df42deafb497588d3dcf", "asm": "0014636965246030013eff49df42deafb497588d3dcf"}, "vout": 1, "txid": "bbb13693ae14b3ec66bea00b3b9a773125a56eb6b805f1ab9ddf275dfe21ed09"}, {"txinwitness": ["3045022100b7bb1a9e3e73c4a39b94b593ec021e9e9d5f2eb38fce550b577892e9256f0c2302203e1b5e6a274f1cccd5c6ca9e4742fb8af1b7d944e3145b0b594e8246599bdbb901", "036d387f333c7421ce975ae91d8b299bc06546ec8ce4a41dcbc3b1f394578f7d70"], "sequence": 4294967294, "scriptSig": {"hex": "160014e84b1749668d3f96e59792b3f608c2947ff40d40", "asm": "0014e84b1749668d3f96e59792b3f608c2947ff40d40"}, "vout": 0, "txid": "82bb6c757664171ab90b6722a54dcdeebaa387f27a4c86abcc469fd1681b4d14"}, {"txinwitness": ["3045022100fc2c206fa802b6f1cf0c7ce6bf6076d3bb5f8e34af64cb992fbdd2368272b70b022024574388455386a3e25a77d999043f7574ce8dd6a8f24e9ae64e0a9eba339a5a01", "03952fa409f9344287bc2653cc1f16462e7ede5ba25d8003f658f6e3d8c2de63a9"], "sequence": 4294967294, "scriptSig": {"hex": "16001410d1615772326df81fb64c59c556cd4161038531", "asm": "001410d1615772326df81fb64c59c556cd4161038531"}, "vout": 0, "txid": "47e32d7bbb3d2408984744ff862e6809f1631c5b79ac5cb2734705e0b980c317"}, {"txinwitness": ["3044022030f42e814ede4120685278618526310f35b2c5eade89046f1f80189dafd606950220670f8bfb0b6feeada81a343355eb4423af7a10ecf5c2631feea36bc0c3ade2cd01", "02263e5f78360ace601b372dd87145d07f5412c47f5f3daa30cb72705f3fc78cce"], "sequence": 4294967294, "scriptSig": {"hex": "1600140d832b6a21aa30c6131217cd2ad479050c9a8938", "asm": "00140d832b6a21aa30c6131217cd2ad479050c9a8938"}, "vout": 0, "txid": "add78b50d0bdb49e51e8c726b0b3fca7ee31f8c86d8da4838cac832b05ee7b18"}, {"txinwitness": ["3045022100af97eeb73cf25f8865a1b15b5df38a9cfd883037815e4480226ef57893f38f2f0220469128d8aa552d26fa453611bb6f75b744923a0cc2e1739e5bbb32dd0f3e0f7501", "0385a314da319a67b1880db9ca8a759bd42754e9951330d19c79246c586ae37f97"], "sequence": 4294967294, "scriptSig": {"hex": "1600143b18007594e142009d2e28613d62a1f7e3d4c63f", "asm": "00143b18007594e142009d2e28613d62a1f7e3d4c63f"}, "vout": 0, "txid": "fd6cd9c1aa523918e23e38c0c2fe83179d10d48a5a959663bc1598a53d0c5a1e"}, {"txinwitness": ["30440220099e3c4dfe97ae9fe4d6f408ecf72ef93fd6448ff82ac931a8d68e8e9f323dbf02207defa4c832819bd8b6116117e52dc37debb862991580ea2506257c05e95dc03c01", "02c965c9d90205ed0aa0cd56362d3eab7ed2f72ecaf2338bdb6ccf7a181dd61a83"], "sequence": 4294967294, "scriptSig": {"hex": "16001446ea8adb7b3f13414de8a3d39f1b899eb357d5f2", "asm": "001446ea8adb7b3f13414de8a3d39f1b899eb357d5f2"}, "vout": 28, "txid": "4aaac3a312b70e9774d2fd380263a27586eb044f8ad78bf775c7c91605065023"}, {"txinwitness": ["3045022100df61a59f2842f4d080d2c58fbe5cb96c620ee57844efad6b140bfd309a86d1bb0220154aa83103b2712d2f838d7c8aca30bf70f598ca77115eda702eaed39166bcb801", "02446dd6b8110f4d246c43bd8a60bf0a733ec3aeb5a91f21f3128a602f7681ab2e"], "sequence": 4294967294, "scriptSig": {"hex": "1600145f509f38d71d2d01d8cddb4159495d041b48a44e", "asm": "00145f509f38d71d2d01d8cddb4159495d041b48a44e"}, "vout": 0, "txid": "d78f222a0a36cee67d6d8190fd614b21e5161efe169d4b497ef640121c1d7a23"}, {"txinwitness": ["3045022100c44584bc7d75798253c50426cb0ea56febae5768d15fc5f087bd3f4009b47bc402204b5a29087dcb791eaea089eac3454c1a98a8703e0ae93b0c3884f03e42cdd20901", "03ddc1bc57c86ffb8ebb968c93cb423b2ed9b6b879e8cf8135b6c83b14322baeb1"], "sequence": 4294967294, "scriptSig": {"hex": "1600140659c58a503f598ac14abe6b2c0ed7124c130055", "asm": "00140659c58a503f598ac14abe6b2c0ed7124c130055"}, "vout": 0, "txid": "2df9b4b90ff813699d025f769a9ad60875041115067192cf30038afbe7a44827"}, {"txinwitness": ["3045022100e7ce973164115052496a08d831049993232a77cf3b664e9b70df329cf5317f3a02206192307d3f6fc3ec229a3c5d410e1d99860a0b6399b3c38a79dee7bb0a121d6d01", "0205d638e27c8efe268fb68de88e600ba90f7cc6d1166be45291e1edf4e9cf6db4"], "sequence": 4294967294, "scriptSig": {"hex": "16001406b1e18a6228093fa65a75a0d937fa5e38dcd9b6", "asm": "001406b1e18a6228093fa65a75a0d937fa5e38dcd9b6"}, "vout": 0, "txid": "0e65b5e9f2ef2418e3c3d16bca974d12ac37302aff6f2e694a5731d388117a45"}, {"txinwitness": ["3045022100e5c2b7241e470cccaba529d1e035b8c6a8639d8bb5d672c3dcb8e6c60e1af9be02205582833bd35c736af982b9f361a440598a49f3bec0852db53e93fef73a7445fd01", "035adf60462e6f7a9639f7ce84ea63345766e984a59a8e377903080db3a2a80b53"], "sequence": 4294967294, "scriptSig": {"hex": "1600141f03ed20f0aca4dfd06a5e33ca34979c0e3475fa", "asm": "00141f03ed20f0aca4dfd06a5e33ca34979c0e3475fa"}, "vout": 8, "txid": "4eb930f7b96f680c96968ae408be3202835a6f9bbe42ab8cfb627eff50b53749"}, {"txinwitness": ["3045022100ef7c07637d51b044ce9d69e9cf88cfadf2ed59aa0d5ddfb1099354849e7501520220303f698315a5f13c1a0b48f3756f3906e4c0979525a4e4e6f88ae2beabb0a84c01", "03061dca93c88cea2837b6c8893f2fd595f8df90be4382778fcf3c2972853c1eb5"], "sequence": 4294967294, "scriptSig": {"hex": "160014b3858ccaa38ea80acb7221a46b18d7f322453ec3", "asm": "0014b3858ccaa38ea80acb7221a46b18d7f322453ec3"}, "vout": 0, "txid": "88e727698f609591b7321e7d4014eb9513332e8aabae7f5f172f7afefe1d6c5c"}, {"txinwitness": ["304502210082c583a0b3ab4467e5c6ef22d0036d58064268b65b7c7b75f4984fd030f94a0902204e69c66c500530bdaa5ad392193b635f27ffda947df837f1b2fc22d52385392301", "02ea2c5194b2d74f14264c4c835a076d5e95540731a90f4fc7f323be800ef6c7fe"], "sequence": 4294967294, "scriptSig": {"hex": "160014a9b47e76534f3ad839ac85d09fc4e9e6a3b50c19", "asm": "0014a9b47e76534f3ad839ac85d09fc4e9e6a3b50c19"}, "vout": 0, "txid": "83d023146b0a14492023d3bb56710a8e4a7ac10a236bda798405e7ad88a4a95e"}, {"txinwitness": ["304502210098ccd35cb4c78bdf281f23082cf893022b275783758fdc8ce5d093663a1ed99a022025e23d851b11996db59429d313397ffd1ac7384c62cb6b3cd6442795fb14da1401", "029fb945b85e892d4f4c3d7773d43b4eedb3520fb0f2a17c02d57f7f08bb499a90"], "sequence": 4294967294, "scriptSig": {"hex": "16001402ef06356445dd2797d29f9bbd42297ad1875356", "asm": "001402ef06356445dd2797d29f9bbd42297ad1875356"}, "vout": 21, "txid": "9bb83711e62f7810863f8dcc41ee9312967d85c8b590d75b49c92ad095360665"}, {"txinwitness": ["304402205eedaf910febead3cdfb60dcb7f1d5777d5d418027ec6d5b01006c440f36d2ac02206501f06befde631f29ef30375dc5637ebcf966259005818045662c26d4a70c7f01", "038f2027dda041c2d92658a3104f65fb9a97d7863053b0e896deea9842c7ac177c"], "sequence": 4294967294, "scriptSig": {"hex": "160014302b41c762f41f2a5e315cbf25bb8affc814f18d", "asm": "0014302b41c762f41f2a5e315cbf25bb8affc814f18d"}, "vout": 23, "txid": "840f8fb49c25f3c96072983224909717532b9c7d6a51dcf122f01568a712d765"}, {"txinwitness": ["3045022100d3ddd4ae9a6e3450101f530bd53f6335ea715c8ac5dcc3a13b0c60775503838c02201197da98a9cf138d54f337c35215050e6673f7fa21a17c2253b9a2a5dc3198fc01", "02d171184f747df64136166e41d99f103657fe241bb64fecbda63d51b27fa6892f"], "sequence": 4294967294, "scriptSig": {"hex": "160014c88e84d1ce4020cf4e4093a9eb66e73a24d1cbd3", "asm": "0014c88e84d1ce4020cf4e4093a9eb66e73a24d1cbd3"}, "vout": 1, "txid": "fef23425b7b9173aab9b99ed3c03d22b32ae715464161f64b07707c785354569"}, {"txinwitness": ["3045022100926bb310aa0ad260b798ae2b0fd06b1e61e7d2505fb035577169e8e1f78549cb022027d1060419721ed3f1b539d15426ef29adcb3b1779734896dd7c580bdc5a95ef01", "021ec3b57c5cf95b84d3d0605b2f9443309a8b45e843e0150043d06d63c0129d1a"], "sequence": 4294967294, "scriptSig": {"hex": "1600147f27de7ee8f0216396f2856fa2e213ae93288636", "asm": "00147f27de7ee8f0216396f2856fa2e213ae93288636"}, "vout": 0, "txid": "1db9ea27593fc8512f053c1c43c5b9154fea96ff16ae22fddbd68c68613c476c"}, {"txinwitness": ["30440220734b7b82b51ed1ea513b53b8930bfcc3f330377f1c233305975aa5d4a4e2d43d02205c9b426a5f0ee0f7c1473c77674ec5f895f06b5b5651ebc3e630466d889a719101", "03215edc8c231626b2a31ee90a5b407d85becc748cdc018ddb16a8022b1c1b9e20"], "sequence": 4294967294, "scriptSig": {"hex": "160014b8be4e215ad95d4ac64da97def3a4625e90836c9", "asm": "0014b8be4e215ad95d4ac64da97def3a4625e90836c9"}, "vout": 0, "txid": "02893934321b5f6e9cb672616b0c796d68cfc22f7508a4492b63d5f97c14406f"}, {"txinwitness": ["3044022059d7decea0892a2f4915128f1a3f644f8bec0941bc9be11d613d5f6b5f6c88b1022013049e278e2a05873c324ff8e1b4a06eb22447f555f9cb9028cb2a319352210001", "03ffded77dcc8ea40dc6cbffcdfad805cb0f2fbf9881087cb3a4a63b2e49cbb037"], "sequence": 4294967294, "scriptSig": {"hex": "1600148bbbd7069be10898298f2506ae9a1967521f01d5", "asm": "00148bbbd7069be10898298f2506ae9a1967521f01d5"}, "vout": 0, "txid": "7cd59bf670af24caac8666bbff64542c443832eb409cbb9da96fd7d88e60e973"}, {"txinwitness": ["304402200c9dda94d281df38259c904d12038d5ccdfe633071d36ea2f5169036e73a1c7302204f7e4870dde1926a025e542aee57d78570164b5e2d4e50618c64796bb4f6bc9301", "038569e44cd2268b3caf2a00737299533faa80dfe6dcbaf65ac36a3a7d72aaf766"], "sequence": 4294967294, "scriptSig": {"hex": "16001410ddb3c2c740fcd0d29ce9a4f9002c05af9e0443", "asm": "001410ddb3c2c740fcd0d29ce9a4f9002c05af9e0443"}, "vout": 1, "txid": "2f8537f1d9d436852cc5522173663d96678ed0779e25f4bf1e234949e37db075"}, {"txinwitness": ["3045022100ecb87e5ff0df2248adff77bd72469968f795962ee042d867bbfacbf9cb84e8e602206942d7d26501f8ff9cb02e836e9dc56ef9cc9b3fabeeebaa7204828c961656e001", "0368d3c4920cb869dcedc45c08bd392477a0435d17621510129203b6b36662cc65"], "sequence": 4294967294, "scriptSig": {"hex": "1600142434cf2d01d536692e9039b813b9387ae4a8950f", "asm": "00142434cf2d01d536692e9039b813b9387ae4a8950f"}, "vout": 2, "txid": "cc51e74900543132dd8d8692c9c088bdb26ae068f0a426b2b40bdb5078f82d78"}, {"txinwitness": ["3045022100b959fdf99ad78907a280464fac5e461b63e0a3cc3f0daf3f0e37f6e9f375092402207f140ad56cc0279d45cae335e7c28f487fbc25691fe6e9e454cc75f8c6ed23a701", "039438ce72ec1723dcb7e4a3d426d21e83cd13f1144022fb39f7813d71783400bc"], "sequence": 4294967294, "scriptSig": {"hex": "1600143edbbf3f395841eb5245fa67501f6509fd54e3aa", "asm": "00143edbbf3f395841eb5245fa67501f6509fd54e3aa"}, "vout": 1, "txid": "66c4e103a95e9ee7eedc126bf420288a7bd5c41fbe38536ca73f5a09fe7fa678"}, {"txinwitness": ["3045022100dd38e5c0fbe186c4b56a25edae15a3f895cf0ff186dc0afddab523e2238f79160220790b19b9efdbfcafdfe564fa5bc1bfd4929a845d32b4c232c5014abc89f5a89601", "02c5fd038b5188d1af308658c13583968aa01a81969fc5c3efa7d8134e138e8232"], "sequence": 4294967294, "scriptSig": {"hex": "16001493308f27b5f2a5a44b0a858de2c2ad8fec239bfd", "asm": "001493308f27b5f2a5a44b0a858de2c2ad8fec239bfd"}, "vout": 1, "txid": "414dc67f5a44aa2eb3a69b1108cb6846439fa937de04ef0dda969f22fa966979"}, {"txinwitness": ["3044022015af8c3597d3759174b54f3290453e4a999e49533d542a0a43e5207fe2ed48000220036e08cbe3e27b8e5c56716ea4f79ac363622cadfec9be36c8c2550f9acc8f3c01", "0381a919fc45f8e6175ced7f6e9f8e0b1a7fea1cc9a5624693b4a864f311c4f476"], "sequence": 4294967294, "scriptSig": {"hex": "16001427abdf985e691a505a7ed806014b5a99807e6fd3", "asm": "001427abdf985e691a505a7ed806014b5a99807e6fd3"}, "vout": 0, "txid": "754b72c7f49548160ca43707879da2eb5d6f21844f9e50910dc7cfd1bcf21e8d"}, {"txinwitness": ["30450221009fd92b72611a93fc7584324ba4e6cd94613c29be04c4d99bebbd8e41fe062a46022046953db804ad600f03e9918b6b11636c14a951ffa27ec6cc0716b1c652cda3fc01", "02fb13e2e77d12880502a1a1c88f1c1c3e33c63891be7e9ceb3e070cabf13111d5"], "sequence": 4294967294, "scriptSig": {"hex": "160014c65336f25488a2aa8181c00ac570599dc832214e", "asm": "0014c65336f25488a2aa8181c00ac570599dc832214e"}, "vout": 1, "txid": "034f7055e2c953887dbda308706280ac30769b8e567c5bbd56faef4587352f90"}, {"txinwitness": ["304502210092cd0b4dc50bc2f0ddc3154d14fce9a15a9337336046bdfa9b54fa3699ccc57102204313e943bf93501bf841fb243e6f350d937eca1bcf8fc1e6ab038abf9ce8b1b501", "037879f0f9940b2cab162fb2b16707aa4756e7822e902778dba98d27a351494f9c"], "sequence": 4294967294, "scriptSig": {"hex": "16001495da099910ed1973313035ff2bf2eb01b15c833d", "asm": "001495da099910ed1973313035ff2bf2eb01b15c833d"}, "vout": 41, "txid": "f4838b68dcd0ec2fff8b73c1eac64e7767eb269f7edf7a47756b9225c6d04090"}, {"txinwitness": ["30440220096ca87718afa6a3276e34b71d8cee348f9d91f55c3225af387d3d8b42b5045a02206a72fa06cb3ff37922aca3dc295961114d89a4636e1919d4054ebe1bb79c5e9501", "03e058f6f77fe88f3eddd9bc72cf6761631b0d2cc5b3bc4352913b948a47390053"], "sequence": 4294967294, "scriptSig": {"hex": "16001440e6473fb4cb23060f76d58298b78ec50e4afaa8", "asm": "001440e6473fb4cb23060f76d58298b78ec50e4afaa8"}, "vout": 4, "txid": "4d164c1485c4ddfa1eff621a61cf1e88a6e139d3a77d6a1c251950347b831496"}, {"txinwitness": ["30440220369c2d0212d2bdbf30e904d684d2a8c7caaca571dec76349dfadcf4efc72088d022053de69811a2eff6feb32bd7120ebff1a052376f455aa803ec04074c2d6272c3301", "0337210f1f80331f75335c1a0079b7d045910f35a0e37f80d6391ff8e057203504"], "sequence": 4294967294, "scriptSig": {"hex": "160014921839a89bfd5274ff73ef2820cfe22fce1e192a", "asm": "0014921839a89bfd5274ff73ef2820cfe22fce1e192a"}, "vout": 1, "txid": "a49858c756d4716358f7c11849db1df61dda3fdda0c409cccd48b5554cb51b9a"}, {"txinwitness": ["3045022100cd26f8b79181a18c3513ea780b635c0eca4cee68de9225f348cf76e19252c28b02206796d8f5b16bd22512b66e350d44cb3992dec43731c457546a3272ec57aa26c901", "02193d898c7aac9e9b6e8cea8b16c897772dc5aaf18c142301946fdec3fa03190b"], "sequence": 4294967294, "scriptSig": {"hex": "160014f57944a5dd3545474feb2d651b5ae2019c587b1a", "asm": "0014f57944a5dd3545474feb2d651b5ae2019c587b1a"}, "vout": 0, "txid": "838a819e7eb298cd39692dbf842be312010b003e34316fc40eec2443b83395a2"}, {"txinwitness": ["304402205f6ef189f295ebd4f4fba54feee8305732f6b4709e8d69849cf4150d8c66efdd022007830c44d613f597435cc3694ed6cf646d00859ea118c79c145401422063053701", "02ab6545cda31eaf546fe5c9a53c8f959db94277ba515f5cd906e7ba3ce98fbe1f"], "sequence": 4294967294, "scriptSig": {"hex": "160014d923d4565db92d5f36a11b741c2a8851f91c0fa4", "asm": "0014d923d4565db92d5f36a11b741c2a8851f91c0fa4"}, "vout": 0, "txid": "9cacac8af8f6c301cf2ab891a07290de264370a0f1c9434199d14a35661a9aa4"}, {"txinwitness": ["3045022100ca1b2bcffd16d1f2b40b75cbca1848afeda78acc8123d18551becefec273872e02201e9d7e71888a992645887b866db2ae8a9d8aa4da1370358a00491b83cb7b327901", "0262d743e9439451fc748f8e5cffae4567f97bc04ed4b2484b069358fc9aa3c463"], "sequence": 4294967294, "scriptSig": {"hex": "16001433324c55489cdfab7d1dfb90f88bf9b274c399dd", "asm": "001433324c55489cdfab7d1dfb90f88bf9b274c399dd"}, "vout": 1, "txid": "6c58254ab31c790dcbd95d61e48e9749b7f464e404160873ac00cf93ed5cd4a7"}, {"txinwitness": ["304402207555311acfc3c0c27e31e8198f839ce276e26a31db52140600d459ab5f2aeaf6022031a3a3d8b34ee5acc1e2ac4c7615efc3204404f3956a9828c6e0e91f93e2513101", "026769cf22cb1d5574f2acd6507dd8f786982a57899de38620f71c967611d0c613"], "sequence": 4294967294, "scriptSig": {"hex": "1600143b54359fd54d1b3dc4f2f3f5ab8bac887a6d347f", "asm": "00143b54359fd54d1b3dc4f2f3f5ab8bac887a6d347f"}, "vout": 3, "txid": "2e528a18f408d5efa8c944824f802a3b2cdb136f42b61280afd2eb5b4518afad"}, {"txinwitness": ["30440220346742d98de8a057b5e42195a9d85b1230a8acd72ff09c194c0600f4cb6e103f02204925d8991351fa2b148f6b7b26a44f35106b1437fb682d028964ab60dd8463bd01", "035fbc7178dc33f241be3784bb3db27a5edafc6dd644c5d12bc5969d3cb09a309f"], "sequence": 4294967294, "scriptSig": {"hex": "160014c8e98b3bd7a03975ef78ef95e8dbd658869123fc", "asm": "0014c8e98b3bd7a03975ef78ef95e8dbd658869123fc"}, "vout": 0, "txid": "fd82cb40d30c3703019b227666b720caab9c7cab82b953b7894dead904c6bab2"}, {"txinwitness": ["3045022100cef749668cb74c888a57df2b2be3ed0530599bafa0eba7176905206a4f1655df02207bd47a1314f9ae103672386a65c34247c527bf1cad4e55ba81f78fd06571d4f501", "025248a3ee9cb9da72f8021312cc67217fbe9620897b4237df14723adf9de4a373"], "sequence": 4294967294, "scriptSig": {"hex": "1600142a574804c0ea4d1abef16b1957df518dda19263b", "asm": "00142a574804c0ea4d1abef16b1957df518dda19263b"}, "vout": 1, "txid": "3aba5d9274a67d0ee1304a554f6d6b8e1ac7b584686f586d18e903276695dbb8"}, {"txinwitness": ["304402202a247cc892d06829ce06496fdbff2f6789d03efa91c52edf9518b88b253bba0c02207606d4456ef975bcd62ae445b56b341f1354d7a39df3de9e147fb7e54ac2471401", "02413c3b693dd07aa0208a47f9248089456d2d514e2ea37b5a6c2e441d821dc9c8"], "sequence": 4294967294, "scriptSig": {"hex": "160014f42ab6de361c5338edc1fce993d95462d1e22d40", "asm": "0014f42ab6de361c5338edc1fce993d95462d1e22d40"}, "vout": 16, "txid": "edd3c74049398b9776af650843c846b0f3566cbf7ba4d76dcfc2c3317811d3c9"}, {"txinwitness": ["304402200080c0b3af0efa3ae0adabb40195907fa0dcd28a18e5b936e5153312fbacb3d202205b315967f426c3c4769f2fbe003f594d33e931401370d0ac0d69c02d0446280401", "026f28b0b48424f5a7d8538cdde5b0b8f20f6eab594c8aec0b4e942d35776b9d7f"], "sequence": 4294967294, "scriptSig": {"hex": "1600140578041324af522f1f78ebaf621d932c8d141fb8", "asm": "00140578041324af522f1f78ebaf621d932c8d141fb8"}, "vout": 1, "txid": "3d23c3e606874c129b2f68a4ebf72bb3d97dd47c3931c94e24a1d3dc025a40d2"}, {"txinwitness": ["3045022100a196b942f9c2e4d3f0d33ed36f5f99bdea63ced253243d53e838f4998305018c02203a23e735c44f67f8e19e9a54d578eb5ef133f4e822dd3ba54478aaf843b25a3101", "039542a5873a5624e38e15f69ae9144f751a4c9b332d3ce7c9592ed470c8544639"], "sequence": 4294967294, "scriptSig": {"hex": "160014bdf90f86aaf50cf4fe1336374c771c2aeed63e49", "asm": "0014bdf90f86aaf50cf4fe1336374c771c2aeed63e49"}, "vout": 1, "txid": "a3ea14c32259693e5f3f4feefcd6a829cd32aa20d2a281525062438e66542dd9"}, {"txinwitness": ["3044022000c3ecfa818b2a8eaa0a7edf7810c127642fcbbef872a0a860b0ece550caa12d0220059428f35663a1598f225fee221133d92251c26bfdf02f41fbe45a97596cd9f601", "03337d7b41c2dca81248069501187f0f75376d770b4115b78585fd3fa9c9a8ae29"], "sequence": 4294967294, "scriptSig": {"hex": "160014dce3287920be54c64789174afc884d7d0471ab3f", "asm": "0014dce3287920be54c64789174afc884d7d0471ab3f"}, "vout": 0, "txid": "5e82f5002c3ed24f92a89e898b4d32bca25c35c0db59a8d6d77ef745fb1b18e8"}, {"txinwitness": ["30440220282094943483ea0e9bc701f33ea153fb71189c7609ec1eaefd146d12ed843f2002207b9dcfefbbb6f03bc2cbe61d7cd6644a95cc0873598eb0c2d5d480e9258a6d7f01", "030f9e19e4a5bb758ceddb94a713360cd25916076f68060419c4c5d8c3b15bed8e"], "sequence": 4294967294, "scriptSig": {"hex": "1600140378fbfab0e58a9022f0a39be1c7061a8907e391", "asm": "00140378fbfab0e58a9022f0a39be1c7061a8907e391"}, "vout": 0, "txid": "eb9362125629317d450bea3c567db5280ebc418a1792c7f93ac5f7e4ce2c0eea"}, {"txinwitness": ["3045022100bc8a4744b36c4aeb70a7ab819a029f60cf575ff868b204ff1b59f3087c66e0b0022053962c150e794911ed2acb82df23c710e80f641cc3f3e281e684bdfce5d7ae5901", "028cf45b31ca6689abbf482accb3aa3d6c2eca1e8a20c82421824e00b0d5fb4d60"], "sequence": 4294967294, "scriptSig": {"hex": "1600145397a0fd32308c3903e897a97ad026c55b1db99b", "asm": "00145397a0fd32308c3903e897a97ad026c55b1db99b"}, "vout": 0, "txid": "f3dc7f969f6a88f0a3c6a4446c68b9e41b7fb67698bc7f35bcf31b41b90be2ed"}, {"txinwitness": ["304402204c714b1ad2d8a46970d8f340279654aa76d0ef1f5009ae5936ae35e7c34dd9dc02204b702628dbd534c0537dace5fdd3e691cc28268435f1a226117a5a2196787cda01", "03b8e97e0cd26265e373887148cb64351e8b2c09bff84febdabfde482c5a625339"], "sequence": 4294967294, "scriptSig": {"hex": "160014adb54520b7dea0b00b61545f98a2c7ab73388573", "asm": "0014adb54520b7dea0b00b61545f98a2c7ab73388573"}, "vout": 1, "txid": "a4ba8803121f1ae53eb26601c779bce501e4bd79e58b6a3c44366ef9f59c01f4"}, {"txinwitness": ["304502210089398810c6d0ebb2cc6d8322fd1a5d2766503c5e7fc4104af885b4e9d278982f0220720d680008b722bdb14a35f97b14591a4f309502f18cfb8c88541c5f1e06ab5c01", "02e1c6af32a826254d7c81006d7a434f2de6a82c3a5dec7215811293b852e65107"], "sequence": 4294967294, "scriptSig": {"hex": "1600148e1cca0a0dbac2ae23b67d876ee467929f64b714", "asm": "00148e1cca0a0dbac2ae23b67d876ee467929f64b714"}, "vout": 1, "txid": "5b80e95a044287300da0c90be01be64fd10dc576e2882cf9c27928340a1520f4"}, {"txinwitness": ["304402207ac93fad0bd43db35c6f5a6932c8241872a6bdf0bff39e326de58fa2f9d86a18022035afc13a1368d8af39d5811b23277d4712cf32a200fa53e2ad8444a24071971e01", "025d7f3023322c523dd1d4d8c30e93f8e3ca1b866329f3eed2bbd29c4535f86c7b"], "sequence": 4294967294, "scriptSig": {"hex": "1600148dcda8e8a0048712f25c28b1c37075b932d77d96", "asm": "00148dcda8e8a0048712f25c28b1c37075b932d77d96"}, "vout": 29, "txid": "48393cdde4bd3a9bae5070150ec289b6a65aced1005f326666a9df90531fa0f4"}, {"txinwitness": ["3044022028be132d44b02b96d8455cef828d3a6448d817ca499e0d1d1497d183d8612dd10220332745a440b89a1ae32367fa0f62434f3860fe60114334e14c8ea43a785a62fc01", "036cdfde551f22b1f70720ba18486c13d48b6b79120fe281b650cc8589d64ff8af"], "sequence": 4294967294, "scriptSig": {"hex": "1600145d9f6900c0073b6e54e9ff5a23570fa931d5e513", "asm": "00145d9f6900c0073b6e54e9ff5a23570fa931d5e513"}, "vout": 0, "txid": "f3adaf8cba053f17a91a140cd0fa0c139cd9a4e435e65e9054c8ecd8f384ecf6"}, {"txinwitness": ["3044022073440652fbcef483663673c29181160a9ebc39596d0c62bd1c865425ed35562202205b8727917b28bd440460c9b2c298400d4bd93fb381e31a667fb63db24e0647c101", "02c695034c520a722c83ed218d6f8eda276a7e8a1272f262e5fd171671facb7e6c"], "sequence": 4294967294, "scriptSig": {"hex": "16001465985f0663052017e5743fc2790f01fe6aee1164", "asm": "001465985f0663052017e5743fc2790f01fe6aee1164"}, "vout": 0, "txid": "587f9bc3bc67a16ed34e7901ddd852efc221fb721d965f6ea249600e86852ff7"}], "txid": "63daa9808d15b2e1e8297a62ec5316b944e0cb0847a9fa422d026adb2fa54d02", "blocktime": 1537873282, "version": 2, "confirmations": 11483, "time": 1537873282, "locktime": 542995, "vsize": 4165, "size": 7796}