{"hash": "63dbbdbe8eefba7eed1e18da95061a60133c7e8de8cb1fe070c23b51cd439a9c", "blockhash": "000000000000000000022b45ed06c6f4ccd3cf7fb5ba4856ebd2e58215665228", "vout": [{"scriptPubKey": {"reqSigs": 1, "hex": "76a914b4cc60213ebfc0a5afc02ca971f0ac855747be0f88ac", "addresses": ["1HUyTnk5iNCckymADF9BxqmUufN2bJKNJ1"], "asm": "OP_DUP OP_HASH160 b4cc60213ebfc0a5afc02ca971f0ac855747be0f OP_EQUALVERIFY OP_CHECKSIG", "type": "pubkeyhash"}, "value": 0.01489155, "n": 0}, {"scriptPubKey": {"reqSigs": 1, "hex": "76a9144a1a5cb3bb60199d7ef019616276f50cada047ed88ac", "addresses": ["17kpasKDswgc93Bxg4KvHqHENhtzAuP9xc"], "asm": "OP_DUP OP_HASH160 4a1a5cb3bb60199d7ef019616276f50cada047ed OP_EQUALVERIFY OP_CHECKSIG", "type": "pubkeyhash"}, "value": 2.4, "n": 1}], "hex": "010000000387c7df7dc227429a47bd3a5908f7d08b7be33b70c129eeb02116f3b48cd8102b000000006a473044022060fc7d17124d30502b9cb07937d1f21fec1683c9d5df9468ce5b76d4ac976324022065fbb91ed6ccbdddf87d1d5d11d45c4d7f414fb35235c54ef3fd8345ed0003f00121029664a22a7e57eeb45c8c88bbc1e9242b0b774fae2af6b0497d2b903f8f2e2c42ffffffff1afbe245d11d779d79c024f3ec33337fc460d0f757f5db9d2ab84f5cfe7fe637340000006b483045022100965beb3afddec9b0561b0f6da4defd8db0fe4a16cb74a93d968092f32abc410e022025252f2b562662399827ff9d2d597461ba0fcf835a6daecc8f2787ff835daf7e0121023fc70451602fe232ae18ddbb949e1bf62d735dcf321e6a6f50d25e790140c61bfffffffff9eb4b3ceb35cb633908494acb741f9c881d8eaa731b4272c4fd177fcbc11ca2000000006b4830450221009013a9ad45a24331c043fd3097f185aa6d7746bd4ad34dd89d96a6a13a08ddb702205a6729f58a96b2981090917166668e66460bbd19bc4dc9c91d3e8181f9c70115012102c4a98b90cc5cee06daed2004dcb70422d92760649aeabcfabb3742ddadd0e078ffffffff0203b91600000000001976a914b4cc60213ebfc0a5afc02ca971f0ac855747be0f88ac001c4e0e000000001976a9144a1a5cb3bb60199d7ef019616276f50cada047ed88ac00000000", "vin": [{"sequence": 4294967295, "scriptSig": {"hex": "473044022060fc7d17124d30502b9cb07937d1f21fec1683c9d5df9468ce5b76d4ac976324022065fbb91ed6ccbdddf87d1d5d11d45c4d7f414fb35235c54ef3fd8345ed0003f00121029664a22a7e57eeb45c8c88bbc1e9242b0b774fae2af6b0497d2b903f8f2e2c42", "asm": "3044022060fc7d17124d30502b9cb07937d1f21fec1683c9d5df9468ce5b76d4ac976324022065fbb91ed6ccbdddf87d1d5d11d45c4d7f414fb35235c54ef3fd8345ed0003f0[ALL] 029664a22a7e57eeb45c8c88bbc1e9242b0b774fae2af6b0497d2b903f8f2e2c42"}, "vout": 0, "txid": "2b10d88cb4f31621b0ee29c1703be37b8bd0f708593abd479a4227c27ddfc787"}, {"sequence": 4294967295, "scriptSig": {"hex": "483045022100965beb3afddec9b0561b0f6da4defd8db0fe4a16cb74a93d968092f32abc410e022025252f2b562662399827ff9d2d597461ba0fcf835a6daecc8f2787ff835daf7e0121023fc70451602fe232ae18ddbb949e1bf62d735dcf321e6a6f50d25e790140c61b", "asm": "3045022100965beb3afddec9b0561b0f6da4defd8db0fe4a16cb74a93d968092f32abc410e022025252f2b562662399827ff9d2d597461ba0fcf835a6daecc8f2787ff835daf7e[ALL] 023fc70451602fe232ae18ddbb949e1bf62d735dcf321e6a6f50d25e790140c61b"}, "vout": 52, "txid": "37e67ffe5c4fb82a9ddbf557f7d060c47f3333ecf324c0799d771dd145e2fb1a"}, {"sequence": 4294967295, "scriptSig": {"hex": "4830450221009013a9ad45a24331c043fd3097f185aa6d7746bd4ad34dd89d96a6a13a08ddb702205a6729f58a96b2981090917166668e66460bbd19bc4dc9c91d3e8181f9c70115012102c4a98b90cc5cee06daed2004dcb70422d92760649aeabcfabb3742ddadd0e078", "asm": "30450221009013a9ad45a24331c043fd3097f185aa6d7746bd4ad34dd89d96a6a13a08ddb702205a6729f58a96b2981090917166668e66460bbd19bc4dc9c91d3e8181f9c70115[ALL] 02c4a98b90cc5cee06daed2004dcb70422d92760649aeabcfabb3742ddadd0e078"}, "vout": 0, "txid": "a21cc1cb7f17fdc472421b73aa8e1d889c1f74cb4a49083963cb35eb3c4bebf9"}], "txid": "63dbbdbe8eefba7eed1e18da95061a60133c7e8de8cb1fe070c23b51cd439a9c", "blocktime": 1537869901, "version": 1, "confirmations": 11524, "time": 1537869901, "locktime": 0, "vsize": 521, "size": 521}