{"hash": "4781a94ce6cf374fbf49b4fb0e204c67ef51abb388ead2b7272202cf2b7cc606", "blockhash": "000000000000000000022b45ed06c6f4ccd3cf7fb5ba4856ebd2e58215665228", "vout": [{"scriptPubKey": {"reqSigs": 1, "hex": "a9140b8aa91eaadb42a8a4af11613d10a2321bdef4d887", "addresses": ["32k3TxoeQZpiSQzU6RGC38GubgMCgy7ebt"], "asm": "OP_HASH160 0b8aa91eaadb42a8a4af11613d10a2321bdef4d8 OP_EQUAL", "type": "scripthash"}, "value": 0.01023734, "n": 0}, {"scriptPubKey": {"reqSigs": 1, "hex": "76a9146f4b18ea32188c2c6c117c6be7d98ca1c5ea3b4288ac", "addresses": ["1B9Ty9WUG3Typ6tQDdnR6nVr6zQML7R3kK"], "asm": "OP_DUP OP_HASH160 6f4b18ea32188c2c6c117c6be7d98ca1c5ea3b42 OP_EQUALVERIFY OP_CHECKSIG", "type": "pubkeyhash"}, "value": 0.0021716, "n": 1}], "hex": "02000000000102d1f6087120789d5574be03146e165afaa3cbe277d798116ca007d18ef5f9dede04000000171600141245ef5949daacaf7c0fa7cdae74c548f863c7d6feffffffd309a615caac655329bce2ef3ca8fff88ec4c3c332d78066a24d2400b3740c2c01000000171600146eb3aa0d93337f87cbc1e8d09fe5981af908bfdcfeffffff02f69e0f000000000017a9140b8aa91eaadb42a8a4af11613d10a2321bdef4d88748500300000000001976a9146f4b18ea32188c2c6c117c6be7d98ca1c5ea3b4288ac0247304402204d004f112341cc78cd629b132ef5aa03c42160f301a516bdf66434ae832cd6e402204513b6298e6c9930485e7224329e4eeaab9ecf7c8e939d393e056026edfdb6fe0121026362607f64d6781a7f1db7ad178a57a5bafb7529d4e0bc32133fe270e6b8520c02483045022100f02ab908cdedc6103a5e4e2f9b73e57df2d12140d7e6a89daf67dab2a640018602201b1ab54e0788833521010b945b06d4150565f6ee7a3c50c9187bae69d6f62d2101210265f7e3e713910e175799fa18d65fffbad5e30ed83f214205478a1e402d60e205c6480800", "vin": [{"txinwitness": ["304402204d004f112341cc78cd629b132ef5aa03c42160f301a516bdf66434ae832cd6e402204513b6298e6c9930485e7224329e4eeaab9ecf7c8e939d393e056026edfdb6fe01", "026362607f64d6781a7f1db7ad178a57a5bafb7529d4e0bc32133fe270e6b8520c"], "sequence": 4294967294, "scriptSig": {"hex": "1600141245ef5949daacaf7c0fa7cdae74c548f863c7d6", "asm": "00141245ef5949daacaf7c0fa7cdae74c548f863c7d6"}, "vout": 4, "txid": "dedef9f58ed107a06c1198d777e2cba3fa5a166e1403be74559d78207108f6d1"}, {"txinwitness": ["3045022100f02ab908cdedc6103a5e4e2f9b73e57df2d12140d7e6a89daf67dab2a640018602201b1ab54e0788833521010b945b06d4150565f6ee7a3c50c9187bae69d6f62d2101", "0265f7e3e713910e175799fa18d65fffbad5e30ed83f214205478a1e402d60e205"], "sequence": 4294967294, "scriptSig": {"hex": "1600146eb3aa0d93337f87cbc1e8d09fe5981af908bfdc", "asm": "00146eb3aa0d93337f87cbc1e8d09fe5981af908bfdc"}, "vout": 1, "txid": "2c0c74b300244da26680d732c3c3c48ef8ffa83cefe2bc295365acca15a609d3"}], "txid": "63dcf365f83126717a7f3b740b599150f6f02d92e9dcf96aa960ea9c74918cc9", "blocktime": 1537869901, "version": 2, "confirmations": 11524, "time": 1537869901, "locktime": 542918, "vsize": 259, "size": 421}