{"hash": "63def1fa96a8b80d98ee24e4e552254f0a5e82e23eddb64f14e89f16338f9e32", "blockhash": "0000000000000000000e13cef7c366c0283d82e591d1acd082e914b08063cdf1", "vout": [{"scriptPubKey": {"reqSigs": 1, "hex": "a9149834b4827ec3e8e7073df8d986d9e329180e184487", "addresses": ["3FZomiaRtA7GWJjQ2JGjVbLSXqpj1mffbQ"], "asm": "OP_HASH160 9834b4827ec3e8e7073df8d986d9e329180e1844 OP_EQUAL", "type": "scripthash"}, "value": 0.000781, "n": 0}, {"scriptPubKey": {"reqSigs": 1, "hex": "76a914911458dbc09b86263471571e7b3239c541ecb7e488ac", "addresses": ["1EE7MZJVHaKS5UiaxxRezK5C4FJQ6tzX1m"], "asm": "OP_DUP OP_HASH160 911458dbc09b86263471571e7b3239c541ecb7e4 OP_EQUALVERIFY OP_CHECKSIG", "type": "pubkeyhash"}, "value": 0.00335762, "n": 1}], "hex": "01000000010d5d1c954e353992b3519da4ceab195040e8b5e275afdb09131ed3628fc44d1f010000006b483045022100c1783a4cc8606d8456511105fe62f810c72540bba11d78e0f07e54530d869e3a02205ede80d0e0ffda9cbadf881cc13562bfc7b6bc2f1a2366b74e9d0a8f50a1f3e6012103c9bf7ad1a88c2f73bbb52f04fc76b95a8d6bd5bcc5cf83978a34db078549cb94ffffffff02143101000000000017a9149834b4827ec3e8e7073df8d986d9e329180e184487921f0500000000001976a914911458dbc09b86263471571e7b3239c541ecb7e488ac00000000", "vin": [{"sequence": 4294967295, "scriptSig": {"hex": "483045022100c1783a4cc8606d8456511105fe62f810c72540bba11d78e0f07e54530d869e3a02205ede80d0e0ffda9cbadf881cc13562bfc7b6bc2f1a2366b74e9d0a8f50a1f3e6012103c9bf7ad1a88c2f73bbb52f04fc76b95a8d6bd5bcc5cf83978a34db078549cb94", "asm": "3045022100c1783a4cc8606d8456511105fe62f810c72540bba11d78e0f07e54530d869e3a02205ede80d0e0ffda9cbadf881cc13562bfc7b6bc2f1a2366b74e9d0a8f50a1f3e6[ALL] 03c9bf7ad1a88c2f73bbb52f04fc76b95a8d6bd5bcc5cf83978a34db078549cb94"}, "vout": 1, "txid": "1f4dc48f62d31e1309dbaf75e2b5e8405019abcea49d51b39239354e951c5d0d"}], "txid": "63def1fa96a8b80d98ee24e4e552254f0a5e82e23eddb64f14e89f16338f9e32", "blocktime": 1537871767, "version": 1, "confirmations": 11495, "time": 1537871767, "locktime": 0, "vsize": 224, "size": 224}