{"hash": "63dfae375b74072d975b396c38d856ef7d1fd46ca1e301eb59c8916ce24b0057", "blockhash": "0000000000000000001e0dab787dd257d1dbfcb92a98c2207d5e1078be1f4165", "vout": [{"scriptPubKey": {"reqSigs": 1, "hex": "76a914039360efc9125e41522df71534be81c22eb6eb3a88ac", "addresses": ["1KuadCuEF1LN6z8Hc2pjRAATU5pLoBwaS"], "asm": "OP_DUP OP_HASH160 039360efc9125e41522df71534be81c22eb6eb3a OP_EQUALVERIFY OP_CHECKSIG", "type": "pubkeyhash"}, "value": 1.4015981, "n": 0}, {"scriptPubKey": {"reqSigs": 1, "hex": "a91469f37513321994ed2c7643eb4673a9ce74e08b9887", "addresses": ["3BMEXQ13jATkMAcBnYVVUfxEHtBSHd1nxu"], "asm": "OP_HASH160 69f37513321994ed2c7643eb4673a9ce74e08b98 OP_EQUAL", "type": "scripthash"}, "value": 0.0331608, "n": 1}], "hex": "02000000011c0132d455a23b8b82579030c301c7770c10923c429394cc79101463e232903c010000006b483045022100f59bd1573cf87411b3c40c747ce9b7fffc77831c32a72170daf0e8f7849a657f02200f6bdf4c65ed2c4b4b40f0b25a0f5b4a92e0759ba4fd3689e5d72670e2c4296a012102df09a501f23a44966c487613485a7e473e89f1459d67c3543de318da1f4c4beafeffffff0242ab5a08000000001976a914039360efc9125e41522df71534be81c22eb6eb3a88ac709932000000000017a91469f37513321994ed2c7643eb4673a9ce74e08b988712490800", "vin": [{"sequence": 4294967294, "scriptSig": {"hex": "483045022100f59bd1573cf87411b3c40c747ce9b7fffc77831c32a72170daf0e8f7849a657f02200f6bdf4c65ed2c4b4b40f0b25a0f5b4a92e0759ba4fd3689e5d72670e2c4296a012102df09a501f23a44966c487613485a7e473e89f1459d67c3543de318da1f4c4bea", "asm": "3045022100f59bd1573cf87411b3c40c747ce9b7fffc77831c32a72170daf0e8f7849a657f02200f6bdf4c65ed2c4b4b40f0b25a0f5b4a92e0759ba4fd3689e5d72670e2c4296a[ALL] 02df09a501f23a44966c487613485a7e473e89f1459d67c3543de318da1f4c4bea"}, "vout": 1, "txid": "3c9032e263141079cc9493423c92100c77c701c3309057828b3ba255d432011c"}], "txid": "63dfae375b74072d975b396c38d856ef7d1fd46ca1e301eb59c8916ce24b0057", "blocktime": 1537872475, "version": 2, "confirmations": 11486, "time": 1537872475, "locktime": 542994, "vsize": 224, "size": 224}