{"hash": "63e9d2153d8bd1f77654eed5b223390256d55f01937cc48c89a25e1ff1c7007d", "blockhash": "0000000000000000001cda96e906b7601b7a6fb1a3b62bca570a9e5d8f4b3de1", "vout": [{"scriptPubKey": {"reqSigs": 1, "hex": "76a914b1aa0b7e8092fa85bdd5b71ac7edb20e03896c4b88ac", "addresses": ["1HCQJt5fiYM3oBsSwAYLGoHWobpBn4vJud"], "asm": "OP_DUP OP_HASH160 b1aa0b7e8092fa85bdd5b71ac7edb20e03896c4b OP_EQUALVERIFY OP_CHECKSIG", "type": "pubkeyhash"}, "value": 0.000887, "n": 0}, {"scriptPubKey": {"reqSigs": 1, "hex": "a914e2184c42a2892fa13473ed5b9db81c71b691dc2c87", "addresses": ["3NJVk9LWFKL6Zurk2orXFVCN25bvYS83DG"], "asm": "OP_HASH160 e2184c42a2892fa13473ed5b9db81c71b691dc2c OP_EQUAL", "type": "scripthash"}, "value": 0.00999253, "n": 1}], "hex": "02000000025eb2e3db484a8eedf15dca6fef7cbbd89934f5ed9f26f51fb64906296a2f683a000000006b4830450221009db842f7e0b65f89e39d51dc5dff98c67f2480b6e64a7818bc9450549e437f1002207e0031685d31c14318318c42feaddeb8a946c1474c30a16f4a280c87498225bb01210210af362b58b5331b26addae20e59717897ebd508e7f268df85e348abe3b9411dfeffffff7d9b191cb36549b157d3d0b1f437c5b350c3d5dff095a363ad49767b04a42c5e000000006b483045022100e4eeffb6970a0c8e19c45b1de886dd36345b3f3b6e938da7095265de9f7f4990022072f663579a59edd1f0ffd369f4afd29b6e79b22e379c7bc0fdae298acdaf0af9012103ecae6eff1df8842c400f0dd7c68ed884133bb2d41cccc8463516c36aa5902f94feffffff027c5a0100000000001976a914b1aa0b7e8092fa85bdd5b71ac7edb20e03896c4b88ac553f0f000000000017a914e2184c42a2892fa13473ed5b9db81c71b691dc2c87b3480800", "vin": [{"sequence": 4294967294, "scriptSig": {"hex": "4830450221009db842f7e0b65f89e39d51dc5dff98c67f2480b6e64a7818bc9450549e437f1002207e0031685d31c14318318c42feaddeb8a946c1474c30a16f4a280c87498225bb01210210af362b58b5331b26addae20e59717897ebd508e7f268df85e348abe3b9411d", "asm": "30450221009db842f7e0b65f89e39d51dc5dff98c67f2480b6e64a7818bc9450549e437f1002207e0031685d31c14318318c42feaddeb8a946c1474c30a16f4a280c87498225bb[ALL] 0210af362b58b5331b26addae20e59717897ebd508e7f268df85e348abe3b9411d"}, "vout": 0, "txid": "3a682f6a290649b61ff5269fedf53499d8bb7cef6fca5df1ed8e4a48dbe3b25e"}, {"sequence": 4294967294, "scriptSig": {"hex": "483045022100e4eeffb6970a0c8e19c45b1de886dd36345b3f3b6e938da7095265de9f7f4990022072f663579a59edd1f0ffd369f4afd29b6e79b22e379c7bc0fdae298acdaf0af9012103ecae6eff1df8842c400f0dd7c68ed884133bb2d41cccc8463516c36aa5902f94", "asm": "3045022100e4eeffb6970a0c8e19c45b1de886dd36345b3f3b6e938da7095265de9f7f4990022072f663579a59edd1f0ffd369f4afd29b6e79b22e379c7bc0fdae298acdaf0af9[ALL] 03ecae6eff1df8842c400f0dd7c68ed884133bb2d41cccc8463516c36aa5902f94"}, "vout": 0, "txid": "5e2ca4047b7649ad63a395f0dfd5c350b3c537f4b1d0d357b14965b31c199b7d"}], "txid": "63e9d2153d8bd1f77654eed5b223390256d55f01937cc48c89a25e1ff1c7007d", "blocktime": 1537873282, "version": 2, "confirmations": 11484, "time": 1537873282, "locktime": 542899, "vsize": 372, "size": 372}