{"hash": "a5a0ae73c8ba1014fd37ecbad1dc996e158cbe7d63bedce90279121fa214c620", "blockhash": "00000000000000000017f5eb5941039fbcee6240d03bc1f2f8e35350df66a1d8", "vout": [{"scriptPubKey": {"reqSigs": 1, "hex": "a914ac6cd7eb1818f99bd9832cb196e9ec2d54b9ae1f87", "addresses": ["3HQiY7VZ5vpiQsaTQFULyjiZ4S9TXRdjaz"], "asm": "OP_HASH160 ac6cd7eb1818f99bd9832cb196e9ec2d54b9ae1f OP_EQUAL", "type": "scripthash"}, "value": 0.00579327, "n": 0}, {"scriptPubKey": {"reqSigs": 1, "hex": "76a914066ddadc0d14362a881e7b4352996b2c25e5ff9d88ac", "addresses": ["1azf1GedYoKHWKfWKvxdpxr5VhSeu3tPg"], "asm": "OP_DUP OP_HASH160 066ddadc0d14362a881e7b4352996b2c25e5ff9d OP_EQUALVERIFY OP_CHECKSIG", "type": "pubkeyhash"}, "value": 0.01721729, "n": 1}, {"scriptPubKey": {"reqSigs": 1, "hex": "a9140b4f5b1377c674396fdd565397e6d42312ad4a0287", "addresses": ["32ipRPXPELJGgXxDoUvgviPQ43Cv5eCF4r"], "asm": "OP_HASH160 0b4f5b1377c674396fdd565397e6d42312ad4a02 OP_EQUAL", "type": "scripthash"}, "value": 3.10198759, "n": 2}], "hex": "0200000000010190f88f3868e6419d6456bb28cdcb79b8c19a566712b96c5d4254fe01ba7ed1760100000017160014638205c0203a790d45e1fd16676ee22f55bcb097ffffffff03ffd608000000000017a914ac6cd7eb1818f99bd9832cb196e9ec2d54b9ae1f8781451a00000000001976a914066ddadc0d14362a881e7b4352996b2c25e5ff9d88ace7417d120000000017a9140b4f5b1377c674396fdd565397e6d42312ad4a028702483045022100b7e5d2db79bef8a91d1e615dd0b53cc2bb216b993a47be415dc10fddd12e2fcb022075413d066fe3a1bbc5d009e2225f280b0f9d38e268c48c646b68aa19e26cb03a012102748bc5485f3027fb109c1d64fd5d1fe6d6cf58a6265d5aa43b9ae8afee60e96a00000000", "vin": [{"txinwitness": ["3045022100b7e5d2db79bef8a91d1e615dd0b53cc2bb216b993a47be415dc10fddd12e2fcb022075413d066fe3a1bbc5d009e2225f280b0f9d38e268c48c646b68aa19e26cb03a01", "02748bc5485f3027fb109c1d64fd5d1fe6d6cf58a6265d5aa43b9ae8afee60e96a"], "sequence": 4294967295, "scriptSig": {"hex": "160014638205c0203a790d45e1fd16676ee22f55bcb097", "asm": "0014638205c0203a790d45e1fd16676ee22f55bcb097"}, "vout": 1, "txid": "76d17eba01fe54425d6cb91267569ac1b879cbcd28bb56649d41e668388ff890"}], "txid": "63ea8255f2b6f23f272b2d348b60ffaaa039f6d720e6062305240368c25653dd", "blocktime": 1537874412, "version": 2, "confirmations": 11467, "time": 1537874412, "locktime": 0, "vsize": 200, "size": 282}