{"hash": "fed809e91ca9eadfc0c033098758842d0bf4fd5ea233689e484565583041616f", "blockhash": "0000000000000000000e13cef7c366c0283d82e591d1acd082e914b08063cdf1", "vout": [{"scriptPubKey": {"reqSigs": 1, "hex": "76a914e6dfe089582105d40f8e61d208164b5709f7f92d88ac", "addresses": ["1N3kcNiB1evjyKE5cJg2P2Ymhm7JiHG2C5"], "asm": "OP_DUP OP_HASH160 e6dfe089582105d40f8e61d208164b5709f7f92d OP_EQUALVERIFY OP_CHECKSIG", "type": "pubkeyhash"}, "value": 0.0165, "n": 0}, {"scriptPubKey": {"reqSigs": 1, "hex": "76a91403d17e889d75699b2b368db5700ed56c45f8753c88ac", "addresses": ["1MBzVaSFYZn7Zr72qm4tmiteZumLBza2x"], "asm": "OP_DUP OP_HASH160 03d17e889d75699b2b368db5700ed56c45f8753c OP_EQUALVERIFY OP_CHECKSIG", "type": "pubkeyhash"}, "value": 0.01562646, "n": 1}, {"scriptPubKey": {"reqSigs": 1, "hex": "76a914ed555beecf4b7971d27093bc458f4819584f5a6188ac", "addresses": ["1NduQKVtxbKY9Y8VibhG7ivfhxCtfexMB5"], "asm": "OP_DUP OP_HASH160 ed555beecf4b7971d27093bc458f4819584f5a61 OP_EQUALVERIFY OP_CHECKSIG", "type": "pubkeyhash"}, "value": 0.01562307, "n": 2}, {"scriptPubKey": {"reqSigs": 1, "hex": "76a91435a1576b233fb104b2b6496777dab9a24d503d9f88ac", "addresses": ["15ta6NRtuQyH5vocdJ8SiWiaDauAGTUmMS"], "asm": "OP_DUP OP_HASH160 35a1576b233fb104b2b6496777dab9a24d503d9f OP_EQUALVERIFY OP_CHECKSIG", "type": "pubkeyhash"}, "value": 0.01562944, "n": 3}, {"scriptPubKey": {"reqSigs": 1, "hex": "76a9148c10adf66a35d3bac4e8a17b53be0a5f2a13be0788ac", "addresses": ["1Dmbamiz9KSB1WhqhK2pqBiNJc44g5rwae"], "asm": "OP_DUP OP_HASH160 8c10adf66a35d3bac4e8a17b53be0a5f2a13be07 OP_EQUALVERIFY OP_CHECKSIG", "type": "pubkeyhash"}, "value": 0.03301237, "n": 4}, {"scriptPubKey": {"reqSigs": 1, "hex": "76a914199786eaa200bed92a89b335cb4291f86c07216f88ac", "addresses": ["13LKR5Vnw1wiGGDiKsVproXmXTqt5TJ3pi"], "asm": "OP_DUP OP_HASH160 199786eaa200bed92a89b335cb4291f86c07216f OP_EQUALVERIFY OP_CHECKSIG", "type": "pubkeyhash"}, "value": 0.01562415, "n": 5}, {"scriptPubKey": {"reqSigs": 1, "hex": "a914e488a9b1352428a2a084ae60be7f2b0d30f4858b87", "addresses": ["3NXPhnNYxjsE4Y7V27AvkoPzZGWVx7azdN"], "asm": "OP_HASH160 e488a9b1352428a2a084ae60be7f2b0d30f4858b OP_EQUAL", "type": "scripthash"}, "value": 0.00496633, "n": 6}], "hex": "010000000001012b42ba76bd42f302c6f45d6d5a7faaa444db8c7bc51533ecf508b21a760e56a50000000017160014d9e4b775b3d574afa3be23589da19b180276dfb0ffffffff07502d1900000000001976a914e6dfe089582105d40f8e61d208164b5709f7f92d88ac16d81700000000001976a91403d17e889d75699b2b368db5700ed56c45f8753c88acc3d61700000000001976a914ed555beecf4b7971d27093bc458f4819584f5a6188ac40d91700000000001976a91435a1576b233fb104b2b6496777dab9a24d503d9f88ac755f3200000000001976a9148c10adf66a35d3bac4e8a17b53be0a5f2a13be0788ac2fd71700000000001976a914199786eaa200bed92a89b335cb4291f86c07216f88acf99307000000000017a914e488a9b1352428a2a084ae60be7f2b0d30f4858b8702483045022100b4e4b2d4f700d715c88fac9b2732cd3ef3575e5f2460cf8f1223dcef0f86057402201e00a9f1594ac20b642504a94ddd9685b26c3fc424eeb8b63f1fd40b84e3fe1d012102f6bda687afc35bae8654029ae2f24f80524da116df59e706deeb2fea75cd8c6000000000", "vin": [{"txinwitness": ["3045022100b4e4b2d4f700d715c88fac9b2732cd3ef3575e5f2460cf8f1223dcef0f86057402201e00a9f1594ac20b642504a94ddd9685b26c3fc424eeb8b63f1fd40b84e3fe1d01", "02f6bda687afc35bae8654029ae2f24f80524da116df59e706deeb2fea75cd8c60"], "sequence": 4294967295, "scriptSig": {"hex": "160014d9e4b775b3d574afa3be23589da19b180276dfb0", "asm": "0014d9e4b775b3d574afa3be23589da19b180276dfb0"}, "vout": 0, "txid": "a5560e761ab208f5ec3315c57b8cdb44a4aa7f5a6d5df4c602f342bd76ba422b"}], "txid": "63ec10287fbd45a2a8a89b1a3357563ce9c41d96a339ce0126cec8f970e6724c", "blocktime": 1537871767, "version": 1, "confirmations": 11493, "time": 1537871767, "locktime": 0, "vsize": 338, "size": 420}