{"hash": "595ba80e2d1ada7eb0ac56213a7ed6323a74136346c218ced7d92453cc60daf9", "blockhash": "0000000000000000000dcc0f55137456b1a82d3642486a52398922ac4d620174", "vout": [{"scriptPubKey": {"reqSigs": 1, "hex": "a914cac4faac95e3f787e4e4660366d00e49d2834cbb87", "addresses": ["3LBAPeY2Y9Rgx9fA7xHu8d7ao37n4sGoab"], "asm": "OP_HASH160 cac4faac95e3f787e4e4660366d00e49d2834cbb OP_EQUAL", "type": "scripthash"}, "value": 0.0024282, "n": 0}, {"scriptPubKey": {"reqSigs": 1, "hex": "76a9146e6cceb18fdf80be3127a2beb8323b90e809638788ac", "addresses": ["1B4sgAxzqFshD3WwPKzmLayktuQHNjpvM4"], "asm": "OP_DUP OP_HASH160 6e6cceb18fdf80be3127a2beb8323b90e8096387 OP_EQUALVERIFY OP_CHECKSIG", "type": "pubkeyhash"}, "value": 0.004381, "n": 1}], "hex": "0100000000010168da76301dd529e1fee7ff028abbcfd96ec59a1d06ed28cabb031021a50dde1d1900000023220020c59e2f70516e0b310f78c2352d34ffb9d625f5700b84f9989001fa16799064f7ffffffff0284b403000000000017a914cac4faac95e3f787e4e4660366d00e49d2834cbb8754af0600000000001976a9146e6cceb18fdf80be3127a2beb8323b90e809638788ac040047304402203afd8386772fba33dcddd7b05f5c8cd774af3577f501dfe38ae73a105eb8707c02202c9770043695090f2c9cc0e607fda7bd89c45158fcdce39e7e72c71fa6e9793a0147304402202609fea46ae18a1f23b43a769a0711554495b90738b0b3adcecc5e0fb6c9e565022021945f59ba5826d64f475ae577176a69eb1f9e781fd52c848b63a9a826befe9e0169522103988dc7379c8cbe9c18f57c4883bb3fb7c66b0810c40db9ffe1f0d39a91f0db8a2103fc96c33037e206cc3ed3c0067c70b102f3bede5136ee8eecc3326100558e70902103c52d429370af2be90b002dbba46811c85ca7a4d6d230ae5731af2c7b257cef0a53ae0d490800", "vin": [{"txinwitness": ["", "304402203afd8386772fba33dcddd7b05f5c8cd774af3577f501dfe38ae73a105eb8707c02202c9770043695090f2c9cc0e607fda7bd89c45158fcdce39e7e72c71fa6e9793a01", "304402202609fea46ae18a1f23b43a769a0711554495b90738b0b3adcecc5e0fb6c9e565022021945f59ba5826d64f475ae577176a69eb1f9e781fd52c848b63a9a826befe9e01", "522103988dc7379c8cbe9c18f57c4883bb3fb7c66b0810c40db9ffe1f0d39a91f0db8a2103fc96c33037e206cc3ed3c0067c70b102f3bede5136ee8eecc3326100558e70902103c52d429370af2be90b002dbba46811c85ca7a4d6d230ae5731af2c7b257cef0a53ae"], "sequence": 4294967295, "scriptSig": {"hex": "220020c59e2f70516e0b310f78c2352d34ffb9d625f5700b84f9989001fa16799064f7", "asm": "0020c59e2f70516e0b310f78c2352d34ffb9d625f5700b84f9989001fa16799064f7"}, "vout": 25, "txid": "1dde0da5211003bbca28ed061d9ac56ed9cfbb8a02ffe7fee129d51d3076da68"}], "txid": "63f1f7fd894b9e48eaf2e60eeafc03958904f0c13e008c587544c8f455ca8d4c", "blocktime": 1537870268, "version": 1, "confirmations": 11516, "time": 1537870268, "locktime": 542989, "vsize": 216, "size": 406}