{"hash": "63f324642fe5d5bc9f02ed4bfc24910e52a7633fadafde4ca692818f5e7dc3fe", "blockhash": "0000000000000000001cda96e906b7601b7a6fb1a3b62bca570a9e5d8f4b3de1", "vout": [{"scriptPubKey": {"reqSigs": 1, "hex": "a914c5501884430ffad99de83d56bb193a6c0981ce4887", "addresses": ["3KgJzV8m1ZEPAZdnGrAQ3nJc8SvpXGEePf"], "asm": "OP_HASH160 c5501884430ffad99de83d56bb193a6c0981ce48 OP_EQUAL", "type": "scripthash"}, "value": 0.06055868, "n": 0}, {"scriptPubKey": {"reqSigs": 1, "hex": "76a91474a3dd5c38d844b1345a5355ca7bf8919c5c9b6e88ac", "addresses": ["1BdjgmguaUxfybDasMddibnXXG72Jv5nkK"], "asm": "OP_DUP OP_HASH160 74a3dd5c38d844b1345a5355ca7bf8919c5c9b6e OP_EQUALVERIFY OP_CHECKSIG", "type": "pubkeyhash"}, "value": 0.00033578, "n": 1}], "hex": "0100000002085f975cbc76c92da564b6b0d66186808b82eafd34bfe3ed00a04d127d5ab89c000000006b483045022100a4ddf3d2bc7206b34ba2afb8d8ebe65885ee09402c54c10f2d5f8ff4fff5323902202b60cd18bd2ddafbb4d81c2d5abdde82cf0bf7a9c888975abb9405ab45bbb67f01210287b01155551d9cbd291f6e5f8e0674adfa98f911293da4ec722cbeeb4827c52dffffffff39cacc92723424de19eb1f19b068dca992479f61b267b0b674fae4becf3dde33060000006b483045022100c190c3cdc7db7d6eb9e0abaf775f4ed39e53b5395f78658a0d1699a9668908bb02207d5981248a4590b5e1d94ca332aee34af2c7fb0c37f5c2f6f3562999e3ee806101210287b01155551d9cbd291f6e5f8e0674adfa98f911293da4ec722cbeeb4827c52dffffffff02bc675c000000000017a914c5501884430ffad99de83d56bb193a6c0981ce48872a830000000000001976a91474a3dd5c38d844b1345a5355ca7bf8919c5c9b6e88ac00000000", "vin": [{"sequence": 4294967295, "scriptSig": {"hex": "483045022100a4ddf3d2bc7206b34ba2afb8d8ebe65885ee09402c54c10f2d5f8ff4fff5323902202b60cd18bd2ddafbb4d81c2d5abdde82cf0bf7a9c888975abb9405ab45bbb67f01210287b01155551d9cbd291f6e5f8e0674adfa98f911293da4ec722cbeeb4827c52d", "asm": "3045022100a4ddf3d2bc7206b34ba2afb8d8ebe65885ee09402c54c10f2d5f8ff4fff5323902202b60cd18bd2ddafbb4d81c2d5abdde82cf0bf7a9c888975abb9405ab45bbb67f[ALL] 0287b01155551d9cbd291f6e5f8e0674adfa98f911293da4ec722cbeeb4827c52d"}, "vout": 0, "txid": "9cb85a7d124da000ede3bf34fdea828b808661d6b0b664a52dc976bc5c975f08"}, {"sequence": 4294967295, "scriptSig": {"hex": "483045022100c190c3cdc7db7d6eb9e0abaf775f4ed39e53b5395f78658a0d1699a9668908bb02207d5981248a4590b5e1d94ca332aee34af2c7fb0c37f5c2f6f3562999e3ee806101210287b01155551d9cbd291f6e5f8e0674adfa98f911293da4ec722cbeeb4827c52d", "asm": "3045022100c190c3cdc7db7d6eb9e0abaf775f4ed39e53b5395f78658a0d1699a9668908bb02207d5981248a4590b5e1d94ca332aee34af2c7fb0c37f5c2f6f3562999e3ee8061[ALL] 0287b01155551d9cbd291f6e5f8e0674adfa98f911293da4ec722cbeeb4827c52d"}, "vout": 6, "txid": "33de3dcfbee4fa74b6b067b2619f4792a9dc68b0191feb19de24347292ccca39"}], "txid": "63f324642fe5d5bc9f02ed4bfc24910e52a7633fadafde4ca692818f5e7dc3fe", "blocktime": 1537873282, "version": 1, "confirmations": 11481, "time": 1537873282, "locktime": 0, "vsize": 372, "size": 372}