{"hash": "63f93d8486ade703b32325a2856f62b92e01f7a0ea6d0881eab213bb35092fe5", "blockhash": "00000000000000000024a2167bbff67b0be802c0b01cdd79e6331c2be6459f87", "vout": [{"scriptPubKey": {"reqSigs": 1, "hex": "76a9144969cad40d54844230b364ce662a97d0047f794a88ac", "addresses": ["17hB4aihVZLopbU2c2V4ncm98qkeHKUso5"], "asm": "OP_DUP OP_HASH160 4969cad40d54844230b364ce662a97d0047f794a OP_EQUALVERIFY OP_CHECKSIG", "type": "pubkeyhash"}, "value": 0.02942202, "n": 0}, {"scriptPubKey": {"reqSigs": 1, "hex": "76a914443fb14d4b043a385007567910b986498b2eabee88ac", "addresses": ["17DsFV1V5Lwgke9jutii6cA1wQ8ceqFTuG"], "asm": "OP_DUP OP_HASH160 443fb14d4b043a385007567910b986498b2eabee OP_EQUALVERIFY OP_CHECKSIG", "type": "pubkeyhash"}, "value": 0.0750172, "n": 1}], "hex": "01000000011bddf5e42745062ea8f96f39aa4eaf0da84155b58b517770bc430d76ca7db9aa010000006b48304502210081d42674aecce42d93d7939fbd3c369cd1d3c76195f6ec39464507f0c03c8260022034cca0d0c97ab9bf150d04b5921c7400a3d83b70a4684419b18f88f20b6d78d801210304b99d370ed9e8b4aa1db3cfd9f439d9d4213701df300984260703ae5f0edff0ffffffff02fae42c00000000001976a9144969cad40d54844230b364ce662a97d0047f794a88ac98777200000000001976a914443fb14d4b043a385007567910b986498b2eabee88ac00000000", "vin": [{"sequence": 4294967295, "scriptSig": {"hex": "48304502210081d42674aecce42d93d7939fbd3c369cd1d3c76195f6ec39464507f0c03c8260022034cca0d0c97ab9bf150d04b5921c7400a3d83b70a4684419b18f88f20b6d78d801210304b99d370ed9e8b4aa1db3cfd9f439d9d4213701df300984260703ae5f0edff0", "asm": "304502210081d42674aecce42d93d7939fbd3c369cd1d3c76195f6ec39464507f0c03c8260022034cca0d0c97ab9bf150d04b5921c7400a3d83b70a4684419b18f88f20b6d78d8[ALL] 0304b99d370ed9e8b4aa1db3cfd9f439d9d4213701df300984260703ae5f0edff0"}, "vout": 1, "txid": "aab97dca760d43bc7077518bb55541a80daf4eaa396ff9a82e064527e4f5dd1b"}], "txid": "63f93d8486ade703b32325a2856f62b92e01f7a0ea6d0881eab213bb35092fe5", "blocktime": 1537870564, "version": 1, "confirmations": 11515, "time": 1537870564, "locktime": 0, "vsize": 226, "size": 226}