{"hash": "63fd94a1d9811753f6ac4e46bdc825079dc863d613253d355d8be55e554c71b5", "blockhash": "00000000000000000004ffacab907a6b429b9a5745fa0b75af4234bf69dd7176", "vout": [{"scriptPubKey": {"reqSigs": 1, "hex": "76a9147592057c78828bfd0c2dc447c4f3b0661272a70a88ac", "addresses": ["1BiezC5b3VFtNkpkQL1XpZGNNkmE4aieU3"], "asm": "OP_DUP OP_HASH160 7592057c78828bfd0c2dc447c4f3b0661272a70a OP_EQUALVERIFY OP_CHECKSIG", "type": "pubkeyhash"}, "value": 0.00013588, "n": 0}, {"scriptPubKey": {"reqSigs": 1, "hex": "a9146151066702d0ccdd6848d76bb537d8eed17ff38087", "addresses": ["3AZaXsH2AQXEX7oM9Jt9K7G473XX1mjukE"], "asm": "OP_HASH160 6151066702d0ccdd6848d76bb537d8eed17ff380 OP_EQUAL", "type": "scripthash"}, "value": 0.0018804, "n": 1}], "hex": "01000000018dd3438e5fec8217260c8fd67882941778307f24350b11776608ebfae24c0eb1000000006a4730440220080e4e1af20e08f0c460092b22c2d77a5b8790659a11e2bbe95fc3bf99c50e78022010c0fbf2b1963dadb38f38725aa0afd875dcc40d803dc62cba783a632d226c64012103ddf9556eb3fbfa44d203d12096fb193d2c6c691b79852377286e15d7ac27679fffffffff0214350000000000001976a9147592057c78828bfd0c2dc447c4f3b0661272a70a88ac88de02000000000017a9146151066702d0ccdd6848d76bb537d8eed17ff3808700000000", "vin": [{"sequence": 4294967295, "scriptSig": {"hex": "4730440220080e4e1af20e08f0c460092b22c2d77a5b8790659a11e2bbe95fc3bf99c50e78022010c0fbf2b1963dadb38f38725aa0afd875dcc40d803dc62cba783a632d226c64012103ddf9556eb3fbfa44d203d12096fb193d2c6c691b79852377286e15d7ac27679f", "asm": "30440220080e4e1af20e08f0c460092b22c2d77a5b8790659a11e2bbe95fc3bf99c50e78022010c0fbf2b1963dadb38f38725aa0afd875dcc40d803dc62cba783a632d226c64[ALL] 03ddf9556eb3fbfa44d203d12096fb193d2c6c691b79852377286e15d7ac27679f"}, "vout": 0, "txid": "b10e4ce2faeb086677110b35247f307817948278d68f0c261782ec5f8e43d38d"}], "txid": "63fd94a1d9811753f6ac4e46bdc825079dc863d613253d355d8be55e554c71b5", "blocktime": 1537875543, "version": 1, "confirmations": 11464, "time": 1537875543, "locktime": 0, "vsize": 223, "size": 223}