{"hash": "63fefdddd333f9bacbc81473785a75727015996b54aacf7b1662d9bfd40ab9ca", "blockhash": "0000000000000000001f76057863aec43deb6fa401d9628bb513d65a8098bfab", "vout": [{"scriptPubKey": {"reqSigs": 1, "hex": "76a914562b95854d3ae8509ba3c85cb92f97c83a7f167d88ac", "addresses": ["18rdKmjrg1EawxgiVT3ikLExj6GWS2MNCk"], "asm": "OP_DUP OP_HASH160 562b95854d3ae8509ba3c85cb92f97c83a7f167d OP_EQUALVERIFY OP_CHECKSIG", "type": "pubkeyhash"}, "value": 0.00035031, "n": 0}, {"scriptPubKey": {"reqSigs": 1, "hex": "a914aec78069a20fe9b194b1f4b2d33122a72bcff4fe87", "addresses": ["3HdAVY7Z4xjqVNicKrALyeKMhDBPSgVEfq"], "asm": "OP_HASH160 aec78069a20fe9b194b1f4b2d33122a72bcff4fe OP_EQUAL", "type": "scripthash"}, "value": 0.01366219, "n": 1}], "hex": "010000000115f8f2d691574114480e5a578acb5d1ab8648fc50fc5273485d137a09cbbe40e000000008b483045022100f2c777e55e680d795bf4853429c2c785e72718c75cee3f463d806dd4302af2a20220471d4eb73c7ac2f71ba1e4f7c222f496a3b009ec66593ad123186c66f6bd95c5014104917b8e857e1143790db173553854739ce7ba3944bc7ea60095964d8c7cfbbf1aded928ebfe885f2e7d4b0cfde12e956f85024dd283e678911e6a31533fd1424effffffff02d7880000000000001976a914562b95854d3ae8509ba3c85cb92f97c83a7f167d88accbd814000000000017a914aec78069a20fe9b194b1f4b2d33122a72bcff4fe8700000000", "vin": [{"sequence": 4294967295, "scriptSig": {"hex": "483045022100f2c777e55e680d795bf4853429c2c785e72718c75cee3f463d806dd4302af2a20220471d4eb73c7ac2f71ba1e4f7c222f496a3b009ec66593ad123186c66f6bd95c5014104917b8e857e1143790db173553854739ce7ba3944bc7ea60095964d8c7cfbbf1aded928ebfe885f2e7d4b0cfde12e956f85024dd283e678911e6a31533fd1424e", "asm": "3045022100f2c777e55e680d795bf4853429c2c785e72718c75cee3f463d806dd4302af2a20220471d4eb73c7ac2f71ba1e4f7c222f496a3b009ec66593ad123186c66f6bd95c5[ALL] 04917b8e857e1143790db173553854739ce7ba3944bc7ea60095964d8c7cfbbf1aded928ebfe885f2e7d4b0cfde12e956f85024dd283e678911e6a31533fd1424e"}, "vout": 0, "txid": "0ee4bb9ca037d1853427c50fc58f64b81a5dcb8a575a0e4814415791d6f2f815"}], "txid": "63fefdddd333f9bacbc81473785a75727015996b54aacf7b1662d9bfd40ab9ca", "blocktime": 1537873891, "version": 1, "confirmations": 11475, "time": 1537873891, "locktime": 0, "vsize": 256, "size": 256}