{"hash": "6402ea4a0f4b0ec009e38154007e9b9a5bcbad75f59952b6528b52bd6f1670a8", "blockhash": "00000000000000000004ffacab907a6b429b9a5745fa0b75af4234bf69dd7176", "vout": [{"scriptPubKey": {"reqSigs": 1, "hex": "76a914327b394325f4b9991cc301c0f8ab2296c9b77e1488ac", "addresses": ["15bvQKjT76CiTdavdZtWW5XXY1CdS6r6HT"], "asm": "OP_DUP OP_HASH160 327b394325f4b9991cc301c0f8ab2296c9b77e14 OP_EQUALVERIFY OP_CHECKSIG", "type": "pubkeyhash"}, "value": 3.584e-05, "n": 0}, {"scriptPubKey": {"reqSigs": 1, "hex": "a9143d976740f97e9dc7825d4d7f4552401b17bef80a87", "addresses": ["37JgWw6kWYQu2TqUSXTsRocCpP48qQSx5C"], "asm": "OP_HASH160 3d976740f97e9dc7825d4d7f4552401b17bef80a OP_EQUAL", "type": "scripthash"}, "value": 0.00691, "n": 1}], "hex": "0100000004deca8afdc2fa1cf3cb992bb7716918949212ebbd32b05b0811de676b8dc73e03000000006a47304402204c32e3cc8452414d2c0b3a042f8c5513744b419534e6bdca46769203a0d148cf022037e262dad3060ef9224b576f873d55297472fdffd62c55bfdcf06a94808588380121028ed26dcd193cfee883c693baeb8e5764e1599343b61e473cc5d3563df84e2935ffffffff7d87fb576de1ad1a999453a08e0d188b0eccd8d1e22808f9295051a2d42c5a5b000000006a47304402206010171a6d8b26ab5f6014da242deaf7c59cbdde013fb5e3b7951aac7e93f8ba0220705a866163f05da1ddae021b9cb5cf096303913ad2ab36f165fc140a2e0baaa60121028ed26dcd193cfee883c693baeb8e5764e1599343b61e473cc5d3563df84e2935ffffffffc0c15cac90c5ad28deb0381458f179f08db3d4f9a878e2a66af2955148ff1d83000000006a4730440220511aa05d7c2a894f6e1292332a6fdb68a83e2919cc2edfbf4d369808757b8798022028ed3ab2603de4e04eb9624ec3e901d20d21331edef52fc2b5017df88012c3950121028ed26dcd193cfee883c693baeb8e5764e1599343b61e473cc5d3563df84e2935ffffffff8650c0586c1873549995cde236c94647e5ef0a60161eac070306c283c41848ad000000006a4730440220044f587f2d552605ce01561d90bcb2b5a2414ec5cc47996b6935209915166f8102206543f30bffcd1a77841cda1b8a8e45c24f470ea28f11a304d574756a22efcae60121028ed26dcd193cfee883c693baeb8e5764e1599343b61e473cc5d3563df84e2935ffffffff02000e0000000000001976a914327b394325f4b9991cc301c0f8ab2296c9b77e1488ac388b0a000000000017a9143d976740f97e9dc7825d4d7f4552401b17bef80a8700000000", "vin": [{"sequence": 4294967295, "scriptSig": {"hex": "47304402204c32e3cc8452414d2c0b3a042f8c5513744b419534e6bdca46769203a0d148cf022037e262dad3060ef9224b576f873d55297472fdffd62c55bfdcf06a94808588380121028ed26dcd193cfee883c693baeb8e5764e1599343b61e473cc5d3563df84e2935", "asm": "304402204c32e3cc8452414d2c0b3a042f8c5513744b419534e6bdca46769203a0d148cf022037e262dad3060ef9224b576f873d55297472fdffd62c55bfdcf06a9480858838[ALL] 028ed26dcd193cfee883c693baeb8e5764e1599343b61e473cc5d3563df84e2935"}, "vout": 0, "txid": "033ec78d6b67de11085bb032bdeb129294186971b72b99cbf31cfac2fd8acade"}, {"sequence": 4294967295, "scriptSig": {"hex": "47304402206010171a6d8b26ab5f6014da242deaf7c59cbdde013fb5e3b7951aac7e93f8ba0220705a866163f05da1ddae021b9cb5cf096303913ad2ab36f165fc140a2e0baaa60121028ed26dcd193cfee883c693baeb8e5764e1599343b61e473cc5d3563df84e2935", "asm": "304402206010171a6d8b26ab5f6014da242deaf7c59cbdde013fb5e3b7951aac7e93f8ba0220705a866163f05da1ddae021b9cb5cf096303913ad2ab36f165fc140a2e0baaa6[ALL] 028ed26dcd193cfee883c693baeb8e5764e1599343b61e473cc5d3563df84e2935"}, "vout": 0, "txid": "5b5a2cd4a2515029f90828e2d1d8cc0e8b180d8ea05394991aade16d57fb877d"}, {"sequence": 4294967295, "scriptSig": {"hex": "4730440220511aa05d7c2a894f6e1292332a6fdb68a83e2919cc2edfbf4d369808757b8798022028ed3ab2603de4e04eb9624ec3e901d20d21331edef52fc2b5017df88012c3950121028ed26dcd193cfee883c693baeb8e5764e1599343b61e473cc5d3563df84e2935", "asm": "30440220511aa05d7c2a894f6e1292332a6fdb68a83e2919cc2edfbf4d369808757b8798022028ed3ab2603de4e04eb9624ec3e901d20d21331edef52fc2b5017df88012c395[ALL] 028ed26dcd193cfee883c693baeb8e5764e1599343b61e473cc5d3563df84e2935"}, "vout": 0, "txid": "831dff485195f26aa6e278a8f9d4b38df079f1581438b0de28adc590ac5cc1c0"}, {"sequence": 4294967295, "scriptSig": {"hex": "4730440220044f587f2d552605ce01561d90bcb2b5a2414ec5cc47996b6935209915166f8102206543f30bffcd1a77841cda1b8a8e45c24f470ea28f11a304d574756a22efcae60121028ed26dcd193cfee883c693baeb8e5764e1599343b61e473cc5d3563df84e2935", "asm": "30440220044f587f2d552605ce01561d90bcb2b5a2414ec5cc47996b6935209915166f8102206543f30bffcd1a77841cda1b8a8e45c24f470ea28f11a304d574756a22efcae6[ALL] 028ed26dcd193cfee883c693baeb8e5764e1599343b61e473cc5d3563df84e2935"}, "vout": 0, "txid": "ad4818c483c2060307ac1e16600aefe54746c936e2cd95995473186c58c05086"}], "txid": "6402ea4a0f4b0ec009e38154007e9b9a5bcbad75f59952b6528b52bd6f1670a8", "blocktime": 1537875543, "version": 1, "confirmations": 11464, "time": 1537875543, "locktime": 0, "vsize": 664, "size": 664}