{"hash": "5fe232b3bd1c9a2788b3caad15d589a2d9ed3575591ae2f0e7306c3b3bfe2073", "blockhash": "0000000000000000001e0dab787dd257d1dbfcb92a98c2207d5e1078be1f4165", "vout": [{"scriptPubKey": {"reqSigs": 1, "hex": "a91402157c786106b98f22c6f3e2fef846e929ed621e87", "addresses": ["31t31pFt88Zt1oGaGccf7yJBLmSwAqYJgs"], "asm": "OP_HASH160 02157c786106b98f22c6f3e2fef846e929ed621e OP_EQUAL", "type": "scripthash"}, "value": 0.08, "n": 0}, {"scriptPubKey": {"reqSigs": 1, "hex": "a9146219c3c3442979833d79bcd70866ea08369d626b87", "addresses": ["3Adj1WHcVsSZACxiGw9pY8itrDyLBq7uv8"], "asm": "OP_HASH160 6219c3c3442979833d79bcd70866ea08369d626b OP_EQUAL", "type": "scripthash"}, "value": 4.14602579, "n": 1}], "hex": "02000000000101b80db7beef0f42825049cc9f2154d3e6f7c99331c870573308a31cc4878669c9000000001716001427af584f3df05f73c3b6cf07fae68016e884d876feffffff0200127a000000000017a91402157c786106b98f22c6f3e2fef846e929ed621e875355b6180000000017a9146219c3c3442979833d79bcd70866ea08369d626b870247304402207fb91dcaa55d1d31fdc062f3e9163c62c61800c70f0be19fc993577e2bf54a3302203500e85f5d47b6e6f676795c69464240918c52fdbf1d2fee1a1189c034a438be0121030f36e7e4289548bf7639f9a8f66c17f5bc1de8fc657b81054795b287e695b2fb12490800", "vin": [{"txinwitness": ["304402207fb91dcaa55d1d31fdc062f3e9163c62c61800c70f0be19fc993577e2bf54a3302203500e85f5d47b6e6f676795c69464240918c52fdbf1d2fee1a1189c034a438be01", "030f36e7e4289548bf7639f9a8f66c17f5bc1de8fc657b81054795b287e695b2fb"], "sequence": 4294967294, "scriptSig": {"hex": "16001427af584f3df05f73c3b6cf07fae68016e884d876", "asm": "001427af584f3df05f73c3b6cf07fae68016e884d876"}, "vout": 0, "txid": "c9698687c41ca308335770c83193c9f7e6d354219fcc495082420fefbeb70db8"}], "txid": "640466b1cdb277c6174819ded0e4de2e5439599977933e2cefafa3eca4e700c1", "blocktime": 1537872475, "version": 2, "confirmations": 11486, "time": 1537872475, "locktime": 542994, "vsize": 166, "size": 247}