{"hash": "12bf2d3e43f904229d1b1bf6305d8eceb5fbf0c7a03d1de8760aac521106ada9", "blockhash": "00000000000000000017f5eb5941039fbcee6240d03bc1f2f8e35350df66a1d8", "vout": [{"scriptPubKey": {"reqSigs": 1, "hex": "001440aceeb6d2d1da55e5eb0e2489d51040db1faecf", "addresses": ["bc1qgzkwadkj68d9te0tpcjgn4gsgrd3ltk0nptpr8"], "asm": "0 40aceeb6d2d1da55e5eb0e2489d51040db1faecf", "type": "witness_v0_keyhash"}, "value": 3.975e-05, "n": 0}, {"scriptPubKey": {"reqSigs": 1, "hex": "a914779f0a2780aac68b35fb538517f69141ae7dc1e287", "addresses": ["3CbWre9PMMFrBriu3aaLvn2Q6fiYjoJKxc"], "asm": "OP_HASH160 779f0a2780aac68b35fb538517f69141ae7dc1e2 OP_EQUAL", "type": "scripthash"}, "value": 0.00285528, "n": 1}], "hex": "0100000000010186ad0b1a5af404d20aab2a2c8997c012b6042677448f0fd8fd486bf8938da0ef0000000017160014a53de6cf2ca75852fef9a285336361e12f41b48affffffff02870f00000000000016001440aceeb6d2d1da55e5eb0e2489d51040db1faecf585b04000000000017a914779f0a2780aac68b35fb538517f69141ae7dc1e28702483045022100885e0fd63e8f29aeee06d615ce265698efb1de2e6ada67a3dd9c0d0ab3d95b4002204c326aaab92ec347ba72e0e7f95f3a3e062dc466fd2131d265ba84ffa60fd6fd01210383e3a3f7a7ded7c7024beb9891bc007c0c486020edb69bbe0854e0ab4d26860800000000", "vin": [{"txinwitness": ["3045022100885e0fd63e8f29aeee06d615ce265698efb1de2e6ada67a3dd9c0d0ab3d95b4002204c326aaab92ec347ba72e0e7f95f3a3e062dc466fd2131d265ba84ffa60fd6fd01", "0383e3a3f7a7ded7c7024beb9891bc007c0c486020edb69bbe0854e0ab4d268608"], "sequence": 4294967295, "scriptSig": {"hex": "160014a53de6cf2ca75852fef9a285336361e12f41b48a", "asm": "0014a53de6cf2ca75852fef9a285336361e12f41b48a"}, "vout": 0, "txid": "efa08d93f86b48fdd80f8f44772604b612c097892c2aab0ad204f45a1a0bad86"}], "txid": "640521e98109c558d88095a21e1ddb0774d72483a6671f1220906586c252643d", "blocktime": 1537874412, "version": 1, "confirmations": 11468, "time": 1537874412, "locktime": 0, "vsize": 165, "size": 247}