{"hash": "415d8b400ef20824b6b0d45edb6a22bfdca7941bac31ca66ef6f6fb78b1af34e", "blockhash": "0000000000000000001cda96e906b7601b7a6fb1a3b62bca570a9e5d8f4b3de1", "vout": [{"scriptPubKey": {"reqSigs": 1, "hex": "a914d243650f3388697995223dfe78728ceee8ea4d2b87", "addresses": ["3LrnZVroyMfXmUs5ezZ1mDD6mrddogVPoM"], "asm": "OP_HASH160 d243650f3388697995223dfe78728ceee8ea4d2b OP_EQUAL", "type": "scripthash"}, "value": 0.01420525, "n": 0}, {"scriptPubKey": {"reqSigs": 1, "hex": "a9143b1306dd106226c6f7d734dc59c2998962d97b4987", "addresses": ["375NasHJE3Hmit1SiovY3iVYefzsfz4hHi"], "asm": "OP_HASH160 3b1306dd106226c6f7d734dc59c2998962d97b49 OP_EQUAL", "type": "scripthash"}, "value": 0.00070378, "n": 1}], "hex": "020000000001014342c481c814f2f90074fb893f3c6c851ca8c8e46103c79a6300f45dbd34f79000000000171600141bf419c96bcbf1486690326f8434d71b233682b2feffffff02edac15000000000017a914d243650f3388697995223dfe78728ceee8ea4d2b87ea1201000000000017a9143b1306dd106226c6f7d734dc59c2998962d97b49870247304402202f4e300a9ac732032aa4554e8eea3e0e256aca390656603a861ee1667008af9a02205def4e564bd906821b6ee0facf3a36b594a5c5880052036a7b4b2cfc745481af0121037e65433497d18ba158f7c9d390f227531d81ddda4ba2eeaf385cf8203b48aa9013490800", "vin": [{"txinwitness": ["304402202f4e300a9ac732032aa4554e8eea3e0e256aca390656603a861ee1667008af9a02205def4e564bd906821b6ee0facf3a36b594a5c5880052036a7b4b2cfc745481af01", "037e65433497d18ba158f7c9d390f227531d81ddda4ba2eeaf385cf8203b48aa90"], "sequence": 4294967294, "scriptSig": {"hex": "1600141bf419c96bcbf1486690326f8434d71b233682b2", "asm": "00141bf419c96bcbf1486690326f8434d71b233682b2"}, "vout": 0, "txid": "90f734bd5df400639ac70361e4c8a81c856c3c3f89fb7400f9f214c881c44243"}], "txid": "640d8d52bedf915143a456d1ec6f1efb6ec79120e610dbf1d7f4ca2dd8e0691a", "blocktime": 1537873282, "version": 2, "confirmations": 11485, "time": 1537873282, "locktime": 542995, "vsize": 166, "size": 247}