{"hash": "641c0ddbb693df985254b4e48a6d8693c3d6b8043fb9732208dc9adf9e48d604", "blockhash": "0000000000000000001e0dab787dd257d1dbfcb92a98c2207d5e1078be1f4165", "vout": [{"scriptPubKey": {"reqSigs": 1, "hex": "a9147d91a02fbe56ad31409685d1bb4e3127ab3cd5f887", "addresses": ["3D8xqmwEJyaSRW9gRNQKpbTLrCdubFmzAe"], "asm": "OP_HASH160 7d91a02fbe56ad31409685d1bb4e3127ab3cd5f8 OP_EQUAL", "type": "scripthash"}, "value": 0.00378217, "n": 0}], "hex": "0100000001805b7339f42bda24c02a8d7ba1e4176e03f48199d93bb13d01a1e09792bffa2a000000006a47304402204ffbd11d47995bbd7acea2ff75794bf946faba8f8c59be2fb16543856cccd49802205bf31bff8b1934bc052b6951a2774b8229f7090697a3fe0027df898a541d8c2001210236008260f8e89bb14115759c50e332538f860234b75c2e786f6da5009fd74c8fffffffff0169c505000000000017a9147d91a02fbe56ad31409685d1bb4e3127ab3cd5f88700000000", "vin": [{"sequence": 4294967295, "scriptSig": {"hex": "47304402204ffbd11d47995bbd7acea2ff75794bf946faba8f8c59be2fb16543856cccd49802205bf31bff8b1934bc052b6951a2774b8229f7090697a3fe0027df898a541d8c2001210236008260f8e89bb14115759c50e332538f860234b75c2e786f6da5009fd74c8f", "asm": "304402204ffbd11d47995bbd7acea2ff75794bf946faba8f8c59be2fb16543856cccd49802205bf31bff8b1934bc052b6951a2774b8229f7090697a3fe0027df898a541d8c20[ALL] 0236008260f8e89bb14115759c50e332538f860234b75c2e786f6da5009fd74c8f"}, "vout": 0, "txid": "2afabf9297e0a1013db13bd99981f4036e17e4a17b8d2ac024da2bf439735b80"}], "txid": "641c0ddbb693df985254b4e48a6d8693c3d6b8043fb9732208dc9adf9e48d604", "blocktime": 1537872475, "version": 1, "confirmations": 11486, "time": 1537872475, "locktime": 0, "vsize": 189, "size": 189}