{"hash": "641f72cde105efefc0afe9eeca1c4f2ddf3e17712ed572a760c0200f8e36a23d", "blockhash": "0000000000000000001f76057863aec43deb6fa401d9628bb513d65a8098bfab", "vout": [{"scriptPubKey": {"reqSigs": 1, "hex": "76a91452cd702a8a7078508db916898c72060dcf2f7cf488ac", "addresses": ["18YpWpjMt2MhfbKxQPKZcCkywpMJ8bik4X"], "asm": "OP_DUP OP_HASH160 52cd702a8a7078508db916898c72060dcf2f7cf4 OP_EQUALVERIFY OP_CHECKSIG", "type": "pubkeyhash"}, "value": 0.02142, "n": 0}, {"scriptPubKey": {"reqSigs": 1, "hex": "76a914f78607522d0dd64fed2e356da114b378316ae45588ac", "addresses": ["1PZnTrSGFR4XBx1frxYFAaXG5AjKChrmMG"], "asm": "OP_DUP OP_HASH160 f78607522d0dd64fed2e356da114b378316ae455 OP_EQUALVERIFY OP_CHECKSIG", "type": "pubkeyhash"}, "value": 0.000401, "n": 1}], "hex": "01000000018672212d8195034e04fa70c130388f7bd462af500f4dd25fe59009c2ef1f128f000000006a4730440220625ca20e77dfe3b534b93b1ff3d4dceef01b1e92e1fc2158866d6901aa42109b022066287a1059a80dcf0f2393ae4591363e694f6974c47d001ed29c0614a90bfbaa01210296b5a96ccb327053d44854547fe337151f449ed0e46f4c55820b935c102b8486ffffffff0230af2000000000001976a91452cd702a8a7078508db916898c72060dcf2f7cf488aca49c0000000000001976a914f78607522d0dd64fed2e356da114b378316ae45588ac00000000", "vin": [{"sequence": 4294967295, "scriptSig": {"hex": "4730440220625ca20e77dfe3b534b93b1ff3d4dceef01b1e92e1fc2158866d6901aa42109b022066287a1059a80dcf0f2393ae4591363e694f6974c47d001ed29c0614a90bfbaa01210296b5a96ccb327053d44854547fe337151f449ed0e46f4c55820b935c102b8486", "asm": "30440220625ca20e77dfe3b534b93b1ff3d4dceef01b1e92e1fc2158866d6901aa42109b022066287a1059a80dcf0f2393ae4591363e694f6974c47d001ed29c0614a90bfbaa[ALL] 0296b5a96ccb327053d44854547fe337151f449ed0e46f4c55820b935c102b8486"}, "vout": 0, "txid": "8f121fefc20990e55fd24d0f50af62d47b8f3830c170fa044e0395812d217286"}], "txid": "641f72cde105efefc0afe9eeca1c4f2ddf3e17712ed572a760c0200f8e36a23d", "blocktime": 1537873891, "version": 1, "confirmations": 11474, "time": 1537873891, "locktime": 0, "vsize": 225, "size": 225}