{"hash": "b2d274a0a5d8e843eef913621ee22874cb7af2461419a9e7f07e202209bf131b", "blockhash": "0000000000000000001cda96e906b7601b7a6fb1a3b62bca570a9e5d8f4b3de1", "vout": [{"scriptPubKey": {"reqSigs": 1, "hex": "a9143b1306dd106226c6f7d734dc59c2998962d97b4987", "addresses": ["375NasHJE3Hmit1SiovY3iVYefzsfz4hHi"], "asm": "OP_HASH160 3b1306dd106226c6f7d734dc59c2998962d97b49 OP_EQUAL", "type": "scripthash"}, "value": 0.00070378, "n": 0}, {"scriptPubKey": {"reqSigs": 1, "hex": "a914f4acb9eef23e9723884233e5c86cf6190d62ca1087", "addresses": ["3PzjiaqghyCWrkDqoPypQTAH5wqTDDiHfq"], "asm": "OP_HASH160 f4acb9eef23e9723884233e5c86cf6190d62ca10 OP_EQUAL", "type": "scripthash"}, "value": 0.01137665, "n": 1}], "hex": "0200000000010190398a4e336141810e1059feb5c50dc5a09061328d6ea4ffe7c5f8900a93c0be0000000017160014c7f8b9d679f890dcd0aeb0ad951ca24f75012600feffffff02ea1201000000000017a9143b1306dd106226c6f7d734dc59c2998962d97b4987015c11000000000017a914f4acb9eef23e9723884233e5c86cf6190d62ca10870248304502210099696d7978f9024fc60a1dfa38bd4ce13a2189da40571b4fb56d0a69fce1a33e022077c71bbc20d4f5ed1938ea7edfd96c55ca3685c6a1c57c775ad90a3aaa1f2ec50121024587a22ee79b914f3e8b2a1043ed7e6b1189bffe287cade33ee8232f3cb01bff13490800", "vin": [{"txinwitness": ["304502210099696d7978f9024fc60a1dfa38bd4ce13a2189da40571b4fb56d0a69fce1a33e022077c71bbc20d4f5ed1938ea7edfd96c55ca3685c6a1c57c775ad90a3aaa1f2ec501", "024587a22ee79b914f3e8b2a1043ed7e6b1189bffe287cade33ee8232f3cb01bff"], "sequence": 4294967294, "scriptSig": {"hex": "160014c7f8b9d679f890dcd0aeb0ad951ca24f75012600", "asm": "0014c7f8b9d679f890dcd0aeb0ad951ca24f75012600"}, "vout": 0, "txid": "bec0930a90f8c5e7ffa46e8d326190a0c50dc5b5fe59100e814161334e8a3990"}], "txid": "6420127297edff11cdb2459349b3b8f58da736700bebd41776cec6d7360c0c04", "blocktime": 1537873282, "version": 2, "confirmations": 11485, "time": 1537873282, "locktime": 542995, "vsize": 166, "size": 248}