{"hash": "6421171864a3cccafaecb5d1875b8b03a3090ac2df882696147a64c5c5fe8e90", "blockhash": "0000000000000000000e13cef7c366c0283d82e591d1acd082e914b08063cdf1", "vout": [{"scriptPubKey": {"reqSigs": 1, "hex": "76a9143fec753c305886a01d1c0d5fd24b6798ed559c1088ac", "addresses": ["16pzqUMkT4YBmV3ci9LYjkU5eXQmZSTZWy"], "asm": "OP_DUP OP_HASH160 3fec753c305886a01d1c0d5fd24b6798ed559c10 OP_EQUALVERIFY OP_CHECKSIG", "type": "pubkeyhash"}, "value": 0.02980859, "n": 0}, {"scriptPubKey": {"reqSigs": 1, "hex": "76a9149b863f6594b8f739370c452de2dfd6a7985f064b88ac", "addresses": ["1FBLZRZkTjJpfoz1puTYqys6LuVEYSnWuE"], "asm": "OP_DUP OP_HASH160 9b863f6594b8f739370c452de2dfd6a7985f064b OP_EQUALVERIFY OP_CHECKSIG", "type": "pubkeyhash"}, "value": 0.0657348, "n": 1}], "hex": "0100000001a34a844f4e2b73f4bf95341785304b39b99cfbc209cd8bf44a87a3f8dbd7efc2010000006b483045022100a1c9d6fb845e787c2316f8ae0d3316ec89cffba63591c32d3c5858edd82d035502206159ffe7842620e05cfd3a2f2586f6292d0d02425835239c63aa8f9796fdd83f012102c4ddedfc24aff8d83b9e622a2be25acd92abe96d42e9b6f350c25528f3232c24ffffffff02fb7b2d00000000001976a9143fec753c305886a01d1c0d5fd24b6798ed559c1088aca84d6400000000001976a9149b863f6594b8f739370c452de2dfd6a7985f064b88ac00000000", "vin": [{"sequence": 4294967295, "scriptSig": {"hex": "483045022100a1c9d6fb845e787c2316f8ae0d3316ec89cffba63591c32d3c5858edd82d035502206159ffe7842620e05cfd3a2f2586f6292d0d02425835239c63aa8f9796fdd83f012102c4ddedfc24aff8d83b9e622a2be25acd92abe96d42e9b6f350c25528f3232c24", "asm": "3045022100a1c9d6fb845e787c2316f8ae0d3316ec89cffba63591c32d3c5858edd82d035502206159ffe7842620e05cfd3a2f2586f6292d0d02425835239c63aa8f9796fdd83f[ALL] 02c4ddedfc24aff8d83b9e622a2be25acd92abe96d42e9b6f350c25528f3232c24"}, "vout": 1, "txid": "c2efd7dbf8a3874af48bcd09c2fb9cb9394b3085173495bff4732b4e4f844aa3"}], "txid": "6421171864a3cccafaecb5d1875b8b03a3090ac2df882696147a64c5c5fe8e90", "blocktime": 1537871767, "version": 1, "confirmations": 11491, "time": 1537871767, "locktime": 0, "vsize": 226, "size": 226}