{"hash": "11c1d1f32415147d2d1c47fec836f9beabe4a4bc4bbb1b221fe065fac7dc6858", "blockhash": "00000000000000000024a2167bbff67b0be802c0b01cdd79e6331c2be6459f87", "vout": [{"scriptPubKey": {"reqSigs": 1, "hex": "76a914f484ed4199e69e18abaac821adb5e60df94cc6b988ac", "addresses": ["1PHu7iqgng5dvhwsQXbrYrJw9VgkiovjnC"], "asm": "OP_DUP OP_HASH160 f484ed4199e69e18abaac821adb5e60df94cc6b9 OP_EQUALVERIFY OP_CHECKSIG", "type": "pubkeyhash"}, "value": 0.003311, "n": 0}, {"scriptPubKey": {"reqSigs": 1, "hex": "a914a55f3d725999f7a676bcbde50e18214d300e357287", "addresses": ["3GmRWb6xx72s9Hvrt5oH3boR4HBEBtSa3G"], "asm": "OP_HASH160 a55f3d725999f7a676bcbde50e18214d300e3572 OP_EQUAL", "type": "scripthash"}, "value": 0.02591001, "n": 1}], "hex": "020000000001013a18700d1982a79b98a26af6be4ad5209716736cc0085194901a76a4183087eb01000000171600141a45cb59c33a58b339c3dbcdb796d8f5d876ec56feffffff025c0d0500000000001976a914f484ed4199e69e18abaac821adb5e60df94cc6b988ac198927000000000017a914a55f3d725999f7a676bcbde50e18214d300e35728702473044022041c3945c62ad9559cf2ea2f0e6111e7dc20217f5e694147b24f0fc1d59a7db8b02204ff8b1819fa9264cb3e37903e42f7f59154be37761bf56767d0b4c764c8ac68201210257e404733388efae7dbd0fb294fb94ee2c0eda00b71676d5bc20a653045c8bca0d490800", "vin": [{"txinwitness": ["3044022041c3945c62ad9559cf2ea2f0e6111e7dc20217f5e694147b24f0fc1d59a7db8b02204ff8b1819fa9264cb3e37903e42f7f59154be37761bf56767d0b4c764c8ac68201", "0257e404733388efae7dbd0fb294fb94ee2c0eda00b71676d5bc20a653045c8bca"], "sequence": 4294967294, "scriptSig": {"hex": "1600141a45cb59c33a58b339c3dbcdb796d8f5d876ec56", "asm": "00141a45cb59c33a58b339c3dbcdb796d8f5d876ec56"}, "vout": 1, "txid": "eb873018a4761a90945108c06c73169720d54abef66aa2989ba782190d70183a"}], "txid": "64263e2615a6edc535ba15563053bf9774d542a027f3a3df502a75f44fcbc891", "blocktime": 1537870564, "version": 2, "confirmations": 11515, "time": 1537870564, "locktime": 542989, "vsize": 168, "size": 249}