{"hash": "642aff012d0af4aba9e4bff8a6072a9358a79e697e3b2c1d0ae4cfc6c27aff0d", "blockhash": "0000000000000000001e0dab787dd257d1dbfcb92a98c2207d5e1078be1f4165", "vout": [{"scriptPubKey": {"reqSigs": 1, "hex": "76a91472226dae13c8716377ac7846a48c7704965547f788ac", "addresses": ["1BQVGzukVPWaHZq2a4DS9mprtn6pDQeq7E"], "asm": "OP_DUP OP_HASH160 72226dae13c8716377ac7846a48c7704965547f7 OP_EQUALVERIFY OP_CHECKSIG", "type": "pubkeyhash"}, "value": 0.0286135, "n": 0}, {"scriptPubKey": {"reqSigs": 1, "hex": "76a914c9696daf948bd1570eae33d72a43c018787bf7c488ac", "addresses": ["1KMy7rdnj7DUEsKoPqBu6EeTDDzmNfuxLu"], "asm": "OP_DUP OP_HASH160 c9696daf948bd1570eae33d72a43c018787bf7c4 OP_EQUALVERIFY OP_CHECKSIG", "type": "pubkeyhash"}, "value": 0.03014649, "n": 1}], "hex": "01000000019be769ce44de8d1a248fc4e9d34d86745e16289c041801fdc1bee617201042d5010000006b483045022100bdaa72724a14730139ce558cdf626493d2ee88d33fe937de56ec213d47e145f50220578e677b4b609918d202ca2217d7604dc369e465e806d22ced52b9655124c36f012102cf4b49a3438acd8229b0fe26b4b7d287164407bd0fd26f2c33e0252b4722b89bffffffff0226a92b00000000001976a91472226dae13c8716377ac7846a48c7704965547f788acf9ff2d00000000001976a914c9696daf948bd1570eae33d72a43c018787bf7c488ac00000000", "vin": [{"sequence": 4294967295, "scriptSig": {"hex": "483045022100bdaa72724a14730139ce558cdf626493d2ee88d33fe937de56ec213d47e145f50220578e677b4b609918d202ca2217d7604dc369e465e806d22ced52b9655124c36f012102cf4b49a3438acd8229b0fe26b4b7d287164407bd0fd26f2c33e0252b4722b89b", "asm": "3045022100bdaa72724a14730139ce558cdf626493d2ee88d33fe937de56ec213d47e145f50220578e677b4b609918d202ca2217d7604dc369e465e806d22ced52b9655124c36f[ALL] 02cf4b49a3438acd8229b0fe26b4b7d287164407bd0fd26f2c33e0252b4722b89b"}, "vout": 1, "txid": "d542102017e6bec1fd0118049c28165e74864dd3e9c48f241a8dde44ce69e79b"}], "txid": "642aff012d0af4aba9e4bff8a6072a9358a79e697e3b2c1d0ae4cfc6c27aff0d", "blocktime": 1537872475, "version": 1, "confirmations": 11486, "time": 1537872475, "locktime": 0, "vsize": 226, "size": 226}