{"hash": "642f43c0dde34fe3c41d649904ef0b10b086d53108a61524ff9bba443dd75d25", "blockhash": "0000000000000000001cda96e906b7601b7a6fb1a3b62bca570a9e5d8f4b3de1", "vout": [{"scriptPubKey": {"type": "nulldata", "hex": "6a4c50000077bf0001ce0740a7300269d72388dca3e5bf9ae76da98a211aaf6c953dd567cf27e712cbd8bf2efe34dde5d497539897bcc65baa12880612ceabd07c420cbc9a9526289ac0f6612cd74e33776ee4", "asm": "OP_RETURN 000077bf0001ce0740a7300269d72388dca3e5bf9ae76da98a211aaf6c953dd567cf27e712cbd8bf2efe34dde5d497539897bcc65baa12880612ceabd07c420cbc9a9526289ac0f6612cd74e33776ee4"}, "value": 0.0, "n": 0}, {"scriptPubKey": {"reqSigs": 1, "hex": "76a91411f290950d82d50ec8b94416ff433c6d6be14f3f88ac", "addresses": ["12du4xWhhYSAtjACVyFGjECxAfR8WhBV2z"], "asm": "OP_DUP OP_HASH160 11f290950d82d50ec8b94416ff433c6d6be14f3f OP_EQUALVERIFY OP_CHECKSIG", "type": "pubkeyhash"}, "value": 0.014772, "n": 1}], "hex": "0100000001024485470b968035eefa3ebef253f965190d1d4f57d9713b69e173df0ea6e553000000006a47304402207b3024ca53f39f11e4dc638513b93b602348924da08cc2808cf6def32b67b74702203b3910d07a7d64b2478c71d65d7b2976d75bb8a1e54079caaccc940c536f63140121031a2bd2bc73c01750b456b9df16b85b870b7e8352b4177fa51532663abc907f47ffffffff020000000000000000536a4c50000077bf0001ce0740a7300269d72388dca3e5bf9ae76da98a211aaf6c953dd567cf27e712cbd8bf2efe34dde5d497539897bcc65baa12880612ceabd07c420cbc9a9526289ac0f6612cd74e33776ee4508a1600000000001976a91411f290950d82d50ec8b94416ff433c6d6be14f3f88ac00000000", "vin": [{"sequence": 4294967295, "scriptSig": {"hex": "47304402207b3024ca53f39f11e4dc638513b93b602348924da08cc2808cf6def32b67b74702203b3910d07a7d64b2478c71d65d7b2976d75bb8a1e54079caaccc940c536f63140121031a2bd2bc73c01750b456b9df16b85b870b7e8352b4177fa51532663abc907f47", "asm": "304402207b3024ca53f39f11e4dc638513b93b602348924da08cc2808cf6def32b67b74702203b3910d07a7d64b2478c71d65d7b2976d75bb8a1e54079caaccc940c536f6314[ALL] 031a2bd2bc73c01750b456b9df16b85b870b7e8352b4177fa51532663abc907f47"}, "vout": 0, "txid": "53e5a60edf73e1693b71d9574f1d0d1965f953f2be3efaee3580960b47854402"}], "txid": "642f43c0dde34fe3c41d649904ef0b10b086d53108a61524ff9bba443dd75d25", "blocktime": 1537873282, "version": 1, "confirmations": 11484, "time": 1537873282, "locktime": 0, "vsize": 283, "size": 283}