{"hash": "643f63a8152d27e37b411f012e7caaf6ab6b82d851eb783bd4b720c77fb9b945", "blockhash": "0000000000000000000baef3f32e3676a92c3b2e5da21b426e4f302fc371ce76", "vout": [{"scriptPubKey": {"reqSigs": 1, "hex": "a914ece94737e5a843952a4d24d1f03d5932487694aa87", "addresses": ["3PHgrGZ91RZpXjBVcRzSPMMSbyQjEhR2S7"], "asm": "OP_HASH160 ece94737e5a843952a4d24d1f03d5932487694aa OP_EQUAL", "type": "scripthash"}, "value": 0.01960086, "n": 0}, {"scriptPubKey": {"reqSigs": 1, "hex": "76a914a6fde5a4988884507d23568f7ccf3f767069d1e788ac", "addresses": ["1GDyKvLhxaDbHNRsQ6JbVy9FjVWejhrQjt"], "asm": "OP_DUP OP_HASH160 a6fde5a4988884507d23568f7ccf3f767069d1e7 OP_EQUALVERIFY OP_CHECKSIG", "type": "pubkeyhash"}, "value": 0.219389, "n": 1}], "hex": "010000000182701dc6ccd88f8ec06b43d75bd5dad7b7d24b4b07d262e781039b7333cb375a010000006a47304402205d88f149e6625ea094e869608e65c66fb4c8a95c437f7186580da8cfb2ee10de022040245ae881a075a9fbca49adac9c3d2d5286cba092b26e13334acaa76be3cafb012103b0ad68485845062ee4b0aa7e7c20f0c1b723f1a2278ec2bc9c741b4cd67bd26cffffffff0296e81d000000000017a914ece94737e5a843952a4d24d1f03d5932487694aa87d4c24e01000000001976a914a6fde5a4988884507d23568f7ccf3f767069d1e788ac00000000", "vin": [{"sequence": 4294967295, "scriptSig": {"hex": "47304402205d88f149e6625ea094e869608e65c66fb4c8a95c437f7186580da8cfb2ee10de022040245ae881a075a9fbca49adac9c3d2d5286cba092b26e13334acaa76be3cafb012103b0ad68485845062ee4b0aa7e7c20f0c1b723f1a2278ec2bc9c741b4cd67bd26c", "asm": "304402205d88f149e6625ea094e869608e65c66fb4c8a95c437f7186580da8cfb2ee10de022040245ae881a075a9fbca49adac9c3d2d5286cba092b26e13334acaa76be3cafb[ALL] 03b0ad68485845062ee4b0aa7e7c20f0c1b723f1a2278ec2bc9c741b4cd67bd26c"}, "vout": 1, "txid": "5a37cb33739b0381e762d2074b4bd2b7d7dad55bd7436bc08e8fd8ccc61d7082"}], "txid": "643f63a8152d27e37b411f012e7caaf6ab6b82d851eb783bd4b720c77fb9b945", "blocktime": 1537876114, "version": 1, "confirmations": 11460, "time": 1537876114, "locktime": 0, "vsize": 223, "size": 223}