{"hash": "684940879d6230691f9beedb9af61fe3ec5a7dc83419c5786dd9934b3821f225", "blockhash": "00000000000000000024a2167bbff67b0be802c0b01cdd79e6331c2be6459f87", "vout": [{"scriptPubKey": {"reqSigs": 1, "hex": "76a914efea085645355739ac85a1d67c1c527c68e523af88ac", "addresses": ["1NsYriV7ktmJddZVWVEUimzhxEGJsMB95F"], "asm": "OP_DUP OP_HASH160 efea085645355739ac85a1d67c1c527c68e523af OP_EQUALVERIFY OP_CHECKSIG", "type": "pubkeyhash"}, "value": 0.007, "n": 0}, {"scriptPubKey": {"reqSigs": 1, "hex": "a914bbba37f40cb545bcad4ce84c10733be66d166e0487", "addresses": ["3JodN7GmkHdPgKj9G7HCkn9NDLhrcWCjVN"], "asm": "OP_HASH160 bbba37f40cb545bcad4ce84c10733be66d166e04 OP_EQUAL", "type": "scripthash"}, "value": 4.243e-05, "n": 1}], "hex": "020000000001017f3de0c4eee87866d293a969632836c65b83af335bb0054fc0853328ca0364e60000000017160014b7bf3accf58c37d637f2739d9a1c3da9d1a2faf1ffffffff0260ae0a00000000001976a914efea085645355739ac85a1d67c1c527c68e523af88ac931000000000000017a914bbba37f40cb545bcad4ce84c10733be66d166e048702473044022040744453dbc349533e9a4fd89332ef8358c0001b16e69ffedacfbe8f8e21d1140220053ce8595352169593cf1e75f56f5d8d3137b6b905280b039853ff1c3d39b21901210347d8ee0b0b5d11e461ac5e6692cae249cb6fda0f84c3e6c9e513e392af0cc4c700000000", "vin": [{"txinwitness": ["3044022040744453dbc349533e9a4fd89332ef8358c0001b16e69ffedacfbe8f8e21d1140220053ce8595352169593cf1e75f56f5d8d3137b6b905280b039853ff1c3d39b21901", "0347d8ee0b0b5d11e461ac5e6692cae249cb6fda0f84c3e6c9e513e392af0cc4c7"], "sequence": 4294967295, "scriptSig": {"hex": "160014b7bf3accf58c37d637f2739d9a1c3da9d1a2faf1", "asm": "0014b7bf3accf58c37d637f2739d9a1c3da9d1a2faf1"}, "vout": 0, "txid": "e66403ca283385c04f05b05b33af835bc636286369a993d26678e8eec4e03d7f"}], "txid": "64413d5d2afd26c229c22ecbdaa61b36cd73c9dbaf9d65d973d800b8114ec5aa", "blocktime": 1537870564, "version": 2, "confirmations": 11515, "time": 1537870564, "locktime": 0, "vsize": 168, "size": 249}