{"hash": "644235ce6a7d4efe151e5d42e3989857b772af17dcccf2e31d21b6be2ad06c51", "blockhash": "0000000000000000001cda96e906b7601b7a6fb1a3b62bca570a9e5d8f4b3de1", "vout": [{"scriptPubKey": {"reqSigs": 1, "hex": "76a914f6805c8fc1c1db904103792491d58eae423f320d88ac", "addresses": ["1PUNzugw4BEmNjPpFaCNc9obktspwFrk3g"], "asm": "OP_DUP OP_HASH160 f6805c8fc1c1db904103792491d58eae423f320d OP_EQUALVERIFY OP_CHECKSIG", "type": "pubkeyhash"}, "value": 0.0076, "n": 0}, {"scriptPubKey": {"reqSigs": 1, "hex": "76a9140fd6c7668513ee7178037399db2749a494ba3a8688ac", "addresses": ["12SkRyhgGbhRU3iJtyH3iQyJ15ZjVdeKuh"], "asm": "OP_DUP OP_HASH160 0fd6c7668513ee7178037399db2749a494ba3a86 OP_EQUALVERIFY OP_CHECKSIG", "type": "pubkeyhash"}, "value": 0.015, "n": 1}, {"scriptPubKey": {"reqSigs": 1, "hex": "76a914f9086f7b79db36c010148c1bb1e83f1cb48144cc88ac", "addresses": ["1PhmMsdwamJA6soKw5mNMXxzGomHEHWY5P"], "asm": "OP_DUP OP_HASH160 f9086f7b79db36c010148c1bb1e83f1cb48144cc OP_EQUALVERIFY OP_CHECKSIG", "type": "pubkeyhash"}, "value": 0.00998214, "n": 2}], "hex": "0200000004b2a70c2f6ea8344a832ea5626172610b44c693b470cb816daa9efef7a28071c4000000006a47304402206902a777656aa0a16eb1669328a9039412d51e486c7f23bf2f26d58d5d5f1d1102204fcfdad9be5ca47003829c19a7864a339586f5e895d888f52715443b5d48527e012102299546d49324aeb3a88e99bcd4ab489d8429e04aae19eeef2fe7c0c6813f157afeffffffde68106b5006e197b9f16a31c51efa5398380b0d1df44d4b733c790a589d35c5000000006b483045022100a95981da87f9e67a22308656cc5b9da0f20e6e7f79be347b173f5643df8e93a1022049309e947028d045004e0e77f9f21c2f0e37ae2bcb81f85cd780c2425d8a69d001210389804886c433259abc5130192ebb7e143d3f1d938b04c01fe571dfa8d3af56d1fefffffff746157de5f528189733c44e392d6723c7bbe1d7d3d2f21c0f5333e240ca3fe9000000006b483045022100d001dee9fe49e2dbb193b5af271621a8dcbd49ca6cf7a2128e135fa8eb1a2d3802207dcd334e5af3b00ac81cc36ba308394c36f79d1ab5c8b023e104ae570d4590c2012102bd93e09defff6728be92fcc5076327ed3f5f7d4c8ca35c66ebbd72f5d7f67eb2feffffffd3d48c46e509f4784e0f98c8bb2c10932ca20f5836e424ce8ff9563f5e5d91b6000000006b483045022100cea1ae0642f5cc8d43536cf493bf60beab557422677d9d76a33a161f4c11e25102204e89f11cf59584a758865ef11d1dd30a40a2e7e1fa35b059ae70b25a4377445601210389804886c433259abc5130192ebb7e143d3f1d938b04c01fe571dfa8d3af56d1feffffff03c0980b00000000001976a914f6805c8fc1c1db904103792491d58eae423f320d88ac60e31600000000001976a9140fd6c7668513ee7178037399db2749a494ba3a8688ac463b0f00000000001976a914f9086f7b79db36c010148c1bb1e83f1cb48144cc88ac00000000", "vin": [{"sequence": 4294967294, "scriptSig": {"hex": "47304402206902a777656aa0a16eb1669328a9039412d51e486c7f23bf2f26d58d5d5f1d1102204fcfdad9be5ca47003829c19a7864a339586f5e895d888f52715443b5d48527e012102299546d49324aeb3a88e99bcd4ab489d8429e04aae19eeef2fe7c0c6813f157a", "asm": "304402206902a777656aa0a16eb1669328a9039412d51e486c7f23bf2f26d58d5d5f1d1102204fcfdad9be5ca47003829c19a7864a339586f5e895d888f52715443b5d48527e[ALL] 02299546d49324aeb3a88e99bcd4ab489d8429e04aae19eeef2fe7c0c6813f157a"}, "vout": 0, "txid": "c47180a2f7fe9eaa6d81cb70b493c6440b61726162a52e834a34a86e2f0ca7b2"}, {"sequence": 4294967294, "scriptSig": {"hex": "483045022100a95981da87f9e67a22308656cc5b9da0f20e6e7f79be347b173f5643df8e93a1022049309e947028d045004e0e77f9f21c2f0e37ae2bcb81f85cd780c2425d8a69d001210389804886c433259abc5130192ebb7e143d3f1d938b04c01fe571dfa8d3af56d1", "asm": "3045022100a95981da87f9e67a22308656cc5b9da0f20e6e7f79be347b173f5643df8e93a1022049309e947028d045004e0e77f9f21c2f0e37ae2bcb81f85cd780c2425d8a69d0[ALL] 0389804886c433259abc5130192ebb7e143d3f1d938b04c01fe571dfa8d3af56d1"}, "vout": 0, "txid": "c5359d580a793c734b4df41d0d0b389853fa1ec5316af1b997e106506b1068de"}, {"sequence": 4294967294, "scriptSig": {"hex": "483045022100d001dee9fe49e2dbb193b5af271621a8dcbd49ca6cf7a2128e135fa8eb1a2d3802207dcd334e5af3b00ac81cc36ba308394c36f79d1ab5c8b023e104ae570d4590c2012102bd93e09defff6728be92fcc5076327ed3f5f7d4c8ca35c66ebbd72f5d7f67eb2", "asm": "3045022100d001dee9fe49e2dbb193b5af271621a8dcbd49ca6cf7a2128e135fa8eb1a2d3802207dcd334e5af3b00ac81cc36ba308394c36f79d1ab5c8b023e104ae570d4590c2[ALL] 02bd93e09defff6728be92fcc5076327ed3f5f7d4c8ca35c66ebbd72f5d7f67eb2"}, "vout": 0, "txid": "e93fca40e233530f1cf2d2d3d7e1bbc723672d394ec433971828f5e57d1546f7"}, {"sequence": 4294967294, "scriptSig": {"hex": "483045022100cea1ae0642f5cc8d43536cf493bf60beab557422677d9d76a33a161f4c11e25102204e89f11cf59584a758865ef11d1dd30a40a2e7e1fa35b059ae70b25a4377445601210389804886c433259abc5130192ebb7e143d3f1d938b04c01fe571dfa8d3af56d1", "asm": "3045022100cea1ae0642f5cc8d43536cf493bf60beab557422677d9d76a33a161f4c11e25102204e89f11cf59584a758865ef11d1dd30a40a2e7e1fa35b059ae70b25a43774456[ALL] 0389804886c433259abc5130192ebb7e143d3f1d938b04c01fe571dfa8d3af56d1"}, "vout": 0, "txid": "b6915d5e3f56f98fce24e436580fa22c93102cbbc8980f4e78f409e5468cd4d3"}], "txid": "644235ce6a7d4efe151e5d42e3989857b772af17dcccf2e31d21b6be2ad06c51", "blocktime": 1537873282, "version": 2, "confirmations": 11481, "time": 1537873282, "locktime": 0, "vsize": 703, "size": 703}