{"hash": "37434898c7b69d742fd36285db50b10e9efc7dcf24fc9b73372974d27f304b6f", "blockhash": "00000000000000000018f53835495a110e01622372bf6ae95dc86f2b0ab887b0", "vout": [{"scriptPubKey": {"reqSigs": 1, "hex": "a9141b0998dcc947c29c489b0bf9af1bb381541b130787", "addresses": ["349yfYRriJJKYr5UvR26Jxwja9bkXtgzGK"], "asm": "OP_HASH160 1b0998dcc947c29c489b0bf9af1bb381541b1307 OP_EQUAL", "type": "scripthash"}, "value": 0.290264, "n": 0}, {"scriptPubKey": {"reqSigs": 1, "hex": "a914ac92b026a9a756d67800ebb01a1666138f55b3d287", "addresses": ["3HRVsc61cA3ApRkLXCRemfuPLAZHR89aQH"], "asm": "OP_HASH160 ac92b026a9a756d67800ebb01a1666138f55b3d2 OP_EQUAL", "type": "scripthash"}, "value": 0.01551, "n": 1}], "hex": "0100000000010171fdedca438b2f4aa70a919ccd60af0eda6a1cb8be598290716b550ffe2204970100000023220020c20332754e6385ecd54bf3b7d28939f82485a4178d0c3f6da7d6d324b80d3dfdffffffff0260e8ba010000000017a9141b0998dcc947c29c489b0bf9af1bb381541b13078798aa17000000000017a914ac92b026a9a756d67800ebb01a1666138f55b3d28704004730440220557a0c9ee7d1bca8792effac519141d3b1889bb161d944a0bd931a83668c15b602200488fce013f2988375df3eaf5a18cdf5d96a70476f00f95dd6b5ca6812669f6f0148304502210098e9f59b5d9bbc78471d0d7dee4c55e41c4dc8a881bbd48f4893e2e9cf39321102203a83403587003bbc42d385f33c2e106007051c102a01d56514768d61f6c3718501695221022e706fda23f9720a608081e323b6d90888fb5a31150f0eee846c9f1171e9dfa1210350924a427862e603b7fbf7b019828ceacd66c8ece1b0e68b6e999eb0350a4ebc2103b42cab0b8de03808dd7ab439cbcc6ebacb795d1373ceb62863a9ea5d19b68b9e53ae00000000", "vin": [{"txinwitness": ["", "30440220557a0c9ee7d1bca8792effac519141d3b1889bb161d944a0bd931a83668c15b602200488fce013f2988375df3eaf5a18cdf5d96a70476f00f95dd6b5ca6812669f6f01", "304502210098e9f59b5d9bbc78471d0d7dee4c55e41c4dc8a881bbd48f4893e2e9cf39321102203a83403587003bbc42d385f33c2e106007051c102a01d56514768d61f6c3718501", "5221022e706fda23f9720a608081e323b6d90888fb5a31150f0eee846c9f1171e9dfa1210350924a427862e603b7fbf7b019828ceacd66c8ece1b0e68b6e999eb0350a4ebc2103b42cab0b8de03808dd7ab439cbcc6ebacb795d1373ceb62863a9ea5d19b68b9e53ae"], "sequence": 4294967295, "scriptSig": {"hex": "220020c20332754e6385ecd54bf3b7d28939f82485a4178d0c3f6da7d6d324b80d3dfd", "asm": "0020c20332754e6385ecd54bf3b7d28939f82485a4178d0c3f6da7d6d324b80d3dfd"}, "vout": 1, "txid": "970422fe0f556b71908259beb81c6ada0eaf60cd9c910aa74a2f8b43caedfd71"}], "txid": "644315bdd5cc772f5e783f278b2b57c54106935cb83d86c5ed6b4ab5418b9d86", "blocktime": 1537870928, "version": 1, "confirmations": 11514, "time": 1537870928, "locktime": 0, "vsize": 214, "size": 405}