{"hash": "64467a2b3fbc8c877b24a406ea45b10bc0d65e187c0b2955c400358695e05642", "blockhash": "0000000000000000001f0ddff1eddb255c1121bcd4da4f1bc9a0da00cae72433", "vout": [{"scriptPubKey": {"reqSigs": 1, "hex": "76a91488d924f51033b74a895863a5fb57fd545529df7d88ac", "addresses": ["1DUb2YYbQA1jjaNYzVXLZ7ZioEhLXtbUru"], "asm": "OP_DUP OP_HASH160 88d924f51033b74a895863a5fb57fd545529df7d OP_EQUALVERIFY OP_CHECKSIG", "type": "pubkeyhash"}, "value": 1.05360393, "n": 0}, {"scriptPubKey": {"type": "nulldata", "hex": "6a146f6d6e69000000000000001f000001d1a94a2000", "asm": "OP_RETURN 6f6d6e69000000000000001f000001d1a94a2000"}, "value": 0.0, "n": 1}, {"scriptPubKey": {"reqSigs": 1, "hex": "76a9145abc584bb118e8a9bac23030ab8f7bba64db0ede88ac", "addresses": ["19GmShVbUwGrLvD3AfHuf9kkmtaGWxdi2k"], "asm": "OP_DUP OP_HASH160 5abc584bb118e8a9bac23030ab8f7bba64db0ede OP_EQUALVERIFY OP_CHECKSIG", "type": "pubkeyhash"}, "value": 5.46e-06, "n": 2}], "hex": "01000000015b333a251e707905882af6c7293b268124fc0eeaae5d1542cf810ad8282dcb52010000006b4830450221009ebef75d72371b01ac93d273c8eefa529c48dd134a167d731fb5aadf591c20e9022024456f140270e30236dcecbd87f41791a21e8abb9de55d4ea30c56565aa9573b0121030888863fcb4cdf5b7d33b40e613af35df8f39d576e7972238b0d396cd3fcc3f2feffffff0309ac4706000000001976a91488d924f51033b74a895863a5fb57fd545529df7d88ac0000000000000000166a146f6d6e69000000000000001f000001d1a94a200022020000000000001976a9145abc584bb118e8a9bac23030ab8f7bba64db0ede88ac11490800", "vin": [{"sequence": 4294967294, "scriptSig": {"hex": "4830450221009ebef75d72371b01ac93d273c8eefa529c48dd134a167d731fb5aadf591c20e9022024456f140270e30236dcecbd87f41791a21e8abb9de55d4ea30c56565aa9573b0121030888863fcb4cdf5b7d33b40e613af35df8f39d576e7972238b0d396cd3fcc3f2", "asm": "30450221009ebef75d72371b01ac93d273c8eefa529c48dd134a167d731fb5aadf591c20e9022024456f140270e30236dcecbd87f41791a21e8abb9de55d4ea30c56565aa9573b[ALL] 030888863fcb4cdf5b7d33b40e613af35df8f39d576e7972238b0d396cd3fcc3f2"}, "vout": 1, "txid": "52cb2d28d80a81cf42155daeea0efc2481263b29c7f62a880579701e253a335b"}], "txid": "64467a2b3fbc8c877b24a406ea45b10bc0d65e187c0b2955c400358695e05642", "blocktime": 1537872018, "version": 1, "confirmations": 11489, "time": 1537872018, "locktime": 542993, "vsize": 257, "size": 257}