{"hash": "14e469d31054ba0ec082851866e6bb31fd8e371afbed358929df6f44bc933814", "blockhash": "0000000000000000001f0ddff1eddb255c1121bcd4da4f1bc9a0da00cae72433", "vout": [{"scriptPubKey": {"reqSigs": 1, "hex": "76a9147c154ed1dc59609e3d26abb2df2ea3d587cd8c4188ac", "addresses": ["1CK6KHY6MHgYvmRQ4PAafKYDrg1ejbH1cE"], "asm": "OP_DUP OP_HASH160 7c154ed1dc59609e3d26abb2df2ea3d587cd8c41 OP_EQUALVERIFY OP_CHECKSIG", "type": "pubkeyhash"}, "value": 12.55708811, "n": 0}, {"scriptPubKey": {"type": "nulldata", "hex": "6a4c2952534b424c4f434b3a8d04c24488a32ef0afe8c11eb16be295e40f38f4ac417c76cc79dd96b8539731", "asm": "OP_RETURN 52534b424c4f434b3a8d04c24488a32ef0afe8c11eb16be295e40f38f4ac417c76cc79dd96b8539731"}, "value": 0.0, "n": 1}, {"scriptPubKey": {"type": "nulldata", "hex": "6a24aa21a9ed91b2b673e72d0255f90acf4fc8125ec2f2a1e2cbb3fb52e20b7657ab854f0718", "asm": "OP_RETURN aa21a9ed91b2b673e72d0255f90acf4fc8125ec2f2a1e2cbb3fb52e20b7657ab854f0718"}, "value": 0.0, "n": 2}], "hex": "010000000001010000000000000000000000000000000000000000000000000000000000000000ffffffff4503124908fabe6d6de4af6c68634f30aa12025a020fdd3a1740558d3f9aee4a4622059c33b02de97401000000000000000a65050077dd6c4baf00008e25082f736c7573682f00000000038b98d84a000000001976a9147c154ed1dc59609e3d26abb2df2ea3d587cd8c4188ac00000000000000002c6a4c2952534b424c4f434b3a8d04c24488a32ef0afe8c11eb16be295e40f38f4ac417c76cc79dd96b85397310000000000000000266a24aa21a9ed91b2b673e72d0255f90acf4fc8125ec2f2a1e2cbb3fb52e20b7657ab854f07180120000000000000000000000000000000000000000000000000000000000000000000000000", "vin": [{"coinbase": "03124908fabe6d6de4af6c68634f30aa12025a020fdd3a1740558d3f9aee4a4622059c33b02de97401000000000000000a65050077dd6c4baf00008e25082f736c7573682f", "sequence": 0}], "txid": "64480fc14fe97781ba56b0599d46b809745c4cf94a3852c1e1c56e3484547274", "blocktime": 1537872018, "version": 1, "confirmations": 11489, "time": 1537872018, "locktime": 0, "vsize": 263, "size": 290}