{"hash": "dab8fb3d62594dcf8e7731f48d7a0ef4e49209818212c5fbfeda968ea60de1f0", "blockhash": "00000000000000000024a2167bbff67b0be802c0b01cdd79e6331c2be6459f87", "vout": [{"scriptPubKey": {"reqSigs": 1, "hex": "a91469f3743bef91bd97e66850ae38980da36725e86b87", "addresses": ["3BMEXAmKauMVsB8kPNqFuHsNHpDhN9qwSU"], "asm": "OP_HASH160 69f3743bef91bd97e66850ae38980da36725e86b OP_EQUAL", "type": "scripthash"}, "value": 1.76992714, "n": 0}], "hex": "01000000000104ccdb24dc27fe18cf237032f1f714f8d949fd0551b48f3e86389ce5b8f59b49f70100000017160014523bb455ef5a4ba6ec6aa07a51044ea27b1b471dffffffff2c9f04923f6db8c5f796d04b8ef054ccd5a5742448958ee7bf8c739a52f3201603000000171600144abbe3e0d5b1c7d2f37aae0bf00328488530ed40fffffffffe6200a0f0e5d5ff546b8611e84cb6a3b65643f54c7dbce893dcfec720a442d200000000171600144abbe3e0d5b1c7d2f37aae0bf00328488530ed40ffffffff3f0fae7d8bace64977276f707922ca3f0e6dbde326c4d50bcf79569568f0c69202000000171600144abbe3e0d5b1c7d2f37aae0bf00328488530ed40ffffffff01cab18c0a0000000017a91469f3743bef91bd97e66850ae38980da36725e86b8702473044022012d0597eb30bc55efde16fbbc90434a5f34c04325e5b54acf8615016f7b6379702202c537c55ef9369f22a31ca416587e06991532f79f7c1cd51284c8164629268f9012103cb0469ede91b56005bce1dd8d1bd0f5ba0389cdec19283f783c48b4fe789a90e02483045022100883afaf62472f848100b8d32879eebe9060efe404dcdf7a13ff958207f1984ab02202ee8dfe6921f27d6a06ba948387d554d15aa855dceac28aa08c129a12ac49fd4012102cb3672a33062a0971386bdffbc68bc36e1e41b2967c22c640a7c6afa9ad0417302473044022100d10e093daef2235d4ca51228f2ddc208d1bf93ab3e1aad5d9825ad8ad6924fd4021f21a9cc88e01fe45b67ebc47b5146b7c2599b7f1c2229b7eb40ae13f1e50859012102cb3672a33062a0971386bdffbc68bc36e1e41b2967c22c640a7c6afa9ad0417302473044022076c7f6cb85375653da2cb325d88a7e274821f57000441fc6daa905909ba5f49902200eb0a2e3bcf2513e0fb9f3902e72efd7dcf2dd66e6b96144d6936c186deb5533012102cb3672a33062a0971386bdffbc68bc36e1e41b2967c22c640a7c6afa9ad0417300000000", "vin": [{"txinwitness": ["3044022012d0597eb30bc55efde16fbbc90434a5f34c04325e5b54acf8615016f7b6379702202c537c55ef9369f22a31ca416587e06991532f79f7c1cd51284c8164629268f901", "03cb0469ede91b56005bce1dd8d1bd0f5ba0389cdec19283f783c48b4fe789a90e"], "sequence": 4294967295, "scriptSig": {"hex": "160014523bb455ef5a4ba6ec6aa07a51044ea27b1b471d", "asm": "0014523bb455ef5a4ba6ec6aa07a51044ea27b1b471d"}, "vout": 1, "txid": "f7499bf5b8e59c38863e8fb45105fd49d9f814f7f1327023cf18fe27dc24dbcc"}, {"txinwitness": ["3045022100883afaf62472f848100b8d32879eebe9060efe404dcdf7a13ff958207f1984ab02202ee8dfe6921f27d6a06ba948387d554d15aa855dceac28aa08c129a12ac49fd401", "02cb3672a33062a0971386bdffbc68bc36e1e41b2967c22c640a7c6afa9ad04173"], "sequence": 4294967295, "scriptSig": {"hex": "1600144abbe3e0d5b1c7d2f37aae0bf00328488530ed40", "asm": "00144abbe3e0d5b1c7d2f37aae0bf00328488530ed40"}, "vout": 3, "txid": "1620f3529a738cbfe78e95482474a5d5cc54f08e4bd096f7c5b86d3f92049f2c"}, {"txinwitness": ["3044022100d10e093daef2235d4ca51228f2ddc208d1bf93ab3e1aad5d9825ad8ad6924fd4021f21a9cc88e01fe45b67ebc47b5146b7c2599b7f1c2229b7eb40ae13f1e5085901", "02cb3672a33062a0971386bdffbc68bc36e1e41b2967c22c640a7c6afa9ad04173"], "sequence": 4294967295, "scriptSig": {"hex": "1600144abbe3e0d5b1c7d2f37aae0bf00328488530ed40", "asm": "00144abbe3e0d5b1c7d2f37aae0bf00328488530ed40"}, "vout": 0, "txid": "d242a420c7fedc93e8bc7d4cf54356b6a3b64ce811866b54ffd5e5f0a00062fe"}, {"txinwitness": ["3044022076c7f6cb85375653da2cb325d88a7e274821f57000441fc6daa905909ba5f49902200eb0a2e3bcf2513e0fb9f3902e72efd7dcf2dd66e6b96144d6936c186deb553301", "02cb3672a33062a0971386bdffbc68bc36e1e41b2967c22c640a7c6afa9ad04173"], "sequence": 4294967295, "scriptSig": {"hex": "1600144abbe3e0d5b1c7d2f37aae0bf00328488530ed40", "asm": "00144abbe3e0d5b1c7d2f37aae0bf00328488530ed40"}, "vout": 2, "txid": "92c6f068955679cf0bd5c426e3bd6d0e3fca2279706f277749e6ac8b7dae0f3f"}], "txid": "6456614173d1ed1bca1ac6b6100c1e90d8a4e7694f82aced78c6e1cd38ac2197", "blocktime": 1537870564, "version": 1, "confirmations": 11515, "time": 1537870564, "locktime": 0, "vsize": 406, "size": 729}