{"hash": "645a256fafc060d2cd11bcd3cb484c9148de076f3585fc33733904fdb34ef781", "blockhash": "00000000000000000024a2167bbff67b0be802c0b01cdd79e6331c2be6459f87", "vout": [{"scriptPubKey": {"reqSigs": 1, "hex": "76a914531f341a1bc8863c3b5ffb43802b3b73aadda55488ac", "addresses": ["18aWTytCo3TGrYhFxbNLsQFktb7kdkdC5S"], "asm": "OP_DUP OP_HASH160 531f341a1bc8863c3b5ffb43802b3b73aadda554 OP_EQUALVERIFY OP_CHECKSIG", "type": "pubkeyhash"}, "value": 0.00197746, "n": 0}], "hex": "0100000001efa2351b8033854a83ad890506a411adee94c515955e2c5d51691a489efe524f050000006b483045022100bb8318044f4bbe1be681c92f591624c419f09c60109d8f3cd5fd6848d71eec38022009ab97c291cd553963ca3c560685cf1d09feda5464eec25ae353da5c940d3cbf01210371bb1aaac3a0c650c258d1d22694d95723c645f00e9af1cc2eb8095a35f208ddffffffff0172040300000000001976a914531f341a1bc8863c3b5ffb43802b3b73aadda55488ac00000000", "vin": [{"sequence": 4294967295, "scriptSig": {"hex": "483045022100bb8318044f4bbe1be681c92f591624c419f09c60109d8f3cd5fd6848d71eec38022009ab97c291cd553963ca3c560685cf1d09feda5464eec25ae353da5c940d3cbf01210371bb1aaac3a0c650c258d1d22694d95723c645f00e9af1cc2eb8095a35f208dd", "asm": "3045022100bb8318044f4bbe1be681c92f591624c419f09c60109d8f3cd5fd6848d71eec38022009ab97c291cd553963ca3c560685cf1d09feda5464eec25ae353da5c940d3cbf[ALL] 0371bb1aaac3a0c650c258d1d22694d95723c645f00e9af1cc2eb8095a35f208dd"}, "vout": 5, "txid": "4f52fe9e481a69515d2c5e9515c594eead11a4060589ad834a8533801b35a2ef"}], "txid": "645a256fafc060d2cd11bcd3cb484c9148de076f3585fc33733904fdb34ef781", "blocktime": 1537870564, "version": 1, "confirmations": 11515, "time": 1537870564, "locktime": 0, "vsize": 192, "size": 192}