{"hash": "99a517db22e3a154956c22c6b547aa7890e7d39113f08389f3924f59e007e5dc", "blockhash": "0000000000000000001f76057863aec43deb6fa401d9628bb513d65a8098bfab", "vout": [{"scriptPubKey": {"reqSigs": 1, "hex": "76a9142edad32ebf7f960f08b49be0c45728e9d5e79c0d88ac", "addresses": ["15GkE3jCbrXMYH2qPx7EVujwQuUdkm3wzT"], "asm": "OP_DUP OP_HASH160 2edad32ebf7f960f08b49be0c45728e9d5e79c0d OP_EQUALVERIFY OP_CHECKSIG", "type": "pubkeyhash"}, "value": 0.0035626, "n": 0}, {"scriptPubKey": {"reqSigs": 1, "hex": "a914327834b33752dc696832cfa5ad0dce50c9d7a15d87", "addresses": ["36HsiBfzkGMkZYJAX6pinNdpFoFjWEFQq6"], "asm": "OP_HASH160 327834b33752dc696832cfa5ad0dce50c9d7a15d OP_EQUAL", "type": "scripthash"}, "value": 0.00999149, "n": 1}], "hex": "02000000000102982c3a1355de0eb9f7210147e38f9c44337e3a24ef9973567450af3aa597529b010000001716001437f96cb0d6c320b388025ed4dfbd94884ffa9ee3fefffffff9eda444024818d120713fe351d7bd3f73422c36216e775b39591f1bf4c544f800000000171600144a8a3f1563fa3a5fa041d546c1c8e97f578f3e84feffffff02a46f0500000000001976a9142edad32ebf7f960f08b49be0c45728e9d5e79c0d88aced3e0f000000000017a914327834b33752dc696832cfa5ad0dce50c9d7a15d8702483045022100d5de10e350eb924b8792a2af34eb02368a325c9e937613dc0ab0b54b594490fe022036cd7bf247ec1d6bb0230cff79162387ebb091214ebd0e4b6d5f1bebe26f36f3012102527b582220f4f1037a129f5ade92ac17f0c6fae7e0b935e482fd352b7c6dca8d02483045022100f78862ecd06bc612d510ac006142b8f110008bb97879843c4eb093fdef95cfe902207399875630bd6302c5edd7197d28e5eedc19b2d32c3ae4ef5bc5949d33047817012103444acba0ca5e8b41ec38bd1c9b38465bc37c980d20197ed8fc73773ee9c9094814490800", "vin": [{"txinwitness": ["3045022100d5de10e350eb924b8792a2af34eb02368a325c9e937613dc0ab0b54b594490fe022036cd7bf247ec1d6bb0230cff79162387ebb091214ebd0e4b6d5f1bebe26f36f301", "02527b582220f4f1037a129f5ade92ac17f0c6fae7e0b935e482fd352b7c6dca8d"], "sequence": 4294967294, "scriptSig": {"hex": "16001437f96cb0d6c320b388025ed4dfbd94884ffa9ee3", "asm": "001437f96cb0d6c320b388025ed4dfbd94884ffa9ee3"}, "vout": 1, "txid": "9b5297a53aaf5074567399ef243a7e33449c8fe3470121f7b90ede55133a2c98"}, {"txinwitness": ["3045022100f78862ecd06bc612d510ac006142b8f110008bb97879843c4eb093fdef95cfe902207399875630bd6302c5edd7197d28e5eedc19b2d32c3ae4ef5bc5949d3304781701", "03444acba0ca5e8b41ec38bd1c9b38465bc37c980d20197ed8fc73773ee9c90948"], "sequence": 4294967294, "scriptSig": {"hex": "1600144a8a3f1563fa3a5fa041d546c1c8e97f578f3e84", "asm": "00144a8a3f1563fa3a5fa041d546c1c8e97f578f3e84"}, "vout": 0, "txid": "f844c5f41b1f59395b776e21362c42733fbdd751e33f7120d118480244a4edf9"}], "txid": "64689cacf49fce07aae8185b434932bd84a52407b57e60875b29991ed01bab0f", "blocktime": 1537873891, "version": 2, "confirmations": 11478, "time": 1537873891, "locktime": 542996, "vsize": 259, "size": 422}