{"hash": "646a93735df19a05efcc0a835bc5e68b4bc7e6a0c42424d4b9168b0ff64336a0", "blockhash": "00000000000000000004ffacab907a6b429b9a5745fa0b75af4234bf69dd7176", "vout": [{"scriptPubKey": {"reqSigs": 1, "hex": "a9146158e9f20b414ca4fa3e13e7c08fc1e9e83d6a5287", "addresses": ["3AZjyzbenKaEYaTTDX8EXwxujKYpESzYtG"], "asm": "OP_HASH160 6158e9f20b414ca4fa3e13e7c08fc1e9e83d6a52 OP_EQUAL", "type": "scripthash"}, "value": 0.011, "n": 0}, {"scriptPubKey": {"reqSigs": 1, "hex": "a91486ed17bfa7bd80cf87cf7e80abd9289079b78c5b87", "addresses": ["3DzSVk4veMCkNbNT9CdETeE26uWxmNbBnD"], "asm": "OP_HASH160 86ed17bfa7bd80cf87cf7e80abd9289079b78c5b OP_EQUAL", "type": "scripthash"}, "value": 8.98676748, "n": 1}], "hex": "020000000198132cd0bd4835b3898ab00f1a6ffcb548236a2d2ed3febee989ca73924bebe300000000da00483045022100e6ac6e3aaffdcbc4914798fc0a4ec512722a53b379a018fa7566b66f69f8951b02207e38e60c18edeb2de1c20ca1cf7d1229767ac5e8e4a7aced9762a0b0441af73d0147304402206f3a566ae1008da02316cac949f75dc919bff13f3ed8eee1b7bc2390d95e115e02200cc8f90ab82824ceb44dde7035a8a40321bc0b803ca1010c46ff2b78783e3fee0147522103fa20b1d8b1dc96299b0b4af2cadbf57d876ad4bc7d8ddccb8169857140496529210311eae7d69c6efdb4d07864937cd691d571eabf0cd5a8c47647190f737954e99a52aeffffffff02e0c810000000000017a9146158e9f20b414ca4fa3e13e7c08fc1e9e83d6a52870cb890350000000017a91486ed17bfa7bd80cf87cf7e80abd9289079b78c5b8700000000", "vin": [{"sequence": 4294967295, "scriptSig": {"hex": "00483045022100e6ac6e3aaffdcbc4914798fc0a4ec512722a53b379a018fa7566b66f69f8951b02207e38e60c18edeb2de1c20ca1cf7d1229767ac5e8e4a7aced9762a0b0441af73d0147304402206f3a566ae1008da02316cac949f75dc919bff13f3ed8eee1b7bc2390d95e115e02200cc8f90ab82824ceb44dde7035a8a40321bc0b803ca1010c46ff2b78783e3fee0147522103fa20b1d8b1dc96299b0b4af2cadbf57d876ad4bc7d8ddccb8169857140496529210311eae7d69c6efdb4d07864937cd691d571eabf0cd5a8c47647190f737954e99a52ae", "asm": "0 3045022100e6ac6e3aaffdcbc4914798fc0a4ec512722a53b379a018fa7566b66f69f8951b02207e38e60c18edeb2de1c20ca1cf7d1229767ac5e8e4a7aced9762a0b0441af73d[ALL] 304402206f3a566ae1008da02316cac949f75dc919bff13f3ed8eee1b7bc2390d95e115e02200cc8f90ab82824ceb44dde7035a8a40321bc0b803ca1010c46ff2b78783e3fee[ALL] 522103fa20b1d8b1dc96299b0b4af2cadbf57d876ad4bc7d8ddccb8169857140496529210311eae7d69c6efdb4d07864937cd691d571eabf0cd5a8c47647190f737954e99a52ae"}, "vout": 0, "txid": "e3eb4b9273ca89e9befed32e2d6a2348b5fc6f1a0fb08a89b33548bdd02c1398"}], "txid": "646a93735df19a05efcc0a835bc5e68b4bc7e6a0c42424d4b9168b0ff64336a0", "blocktime": 1537875543, "version": 2, "confirmations": 11464, "time": 1537875543, "locktime": 0, "vsize": 333, "size": 333}