{"hash": "646fd98527bf4157734d9a2bd17864eb951e0f887ee172121239ae400ec6fa41", "blockhash": "0000000000000000000dcc0f55137456b1a82d3642486a52398922ac4d620174", "vout": [{"scriptPubKey": {"reqSigs": 1, "hex": "76a914251df784f903d3846f875fbb30c37e010bc1ec6388ac", "addresses": ["14PFuEVHeGTyxmtRzsaufkRhhBVWDCnra8"], "asm": "OP_DUP OP_HASH160 251df784f903d3846f875fbb30c37e010bc1ec63 OP_EQUALVERIFY OP_CHECKSIG", "type": "pubkeyhash"}, "value": 0.00576955, "n": 0}, {"scriptPubKey": {"reqSigs": 1, "hex": "76a914d446a8189803c26baef77cf9534f1a63078a14c888ac", "addresses": ["1LMQtydjvmRk7TtkmefT92VNnTay8EPHX3"], "asm": "OP_DUP OP_HASH160 d446a8189803c26baef77cf9534f1a63078a14c8 OP_EQUALVERIFY OP_CHECKSIG", "type": "pubkeyhash"}, "value": 0.01588819, "n": 1}], "hex": "0100000001ea14d2465bdea960af02f256106ba4e5a472826c1ddef5705e689be7d4fc42d5000000006b483045022100ac1fba11d67bead19034ee7d888475cd2f7a653ae16b31849696d85ceb7d14d0022012348f51381705546389433c79f28248023bea58e3626066ff8da1163bc88342012102b79c301a799d0399cf8f670fed70d2773dfcfceb504625058b3b1ba3ed7e515dffffffff02bbcd0800000000001976a914251df784f903d3846f875fbb30c37e010bc1ec6388ac533e1800000000001976a914d446a8189803c26baef77cf9534f1a63078a14c888ac00000000", "vin": [{"sequence": 4294967295, "scriptSig": {"hex": "483045022100ac1fba11d67bead19034ee7d888475cd2f7a653ae16b31849696d85ceb7d14d0022012348f51381705546389433c79f28248023bea58e3626066ff8da1163bc88342012102b79c301a799d0399cf8f670fed70d2773dfcfceb504625058b3b1ba3ed7e515d", "asm": "3045022100ac1fba11d67bead19034ee7d888475cd2f7a653ae16b31849696d85ceb7d14d0022012348f51381705546389433c79f28248023bea58e3626066ff8da1163bc88342[ALL] 02b79c301a799d0399cf8f670fed70d2773dfcfceb504625058b3b1ba3ed7e515d"}, "vout": 0, "txid": "d542fcd4e79b685e70f5de1d6c8272a4e5a46b1056f202af60a9de5b46d214ea"}], "txid": "646fd98527bf4157734d9a2bd17864eb951e0f887ee172121239ae400ec6fa41", "blocktime": 1537870268, "version": 1, "confirmations": 11516, "time": 1537870268, "locktime": 0, "vsize": 226, "size": 226}