{"hash": "6477b08b0dee6b6427b3576c71add8aa04147c3d7297543f694907b70d80eefd", "blockhash": "0000000000000000001cda96e906b7601b7a6fb1a3b62bca570a9e5d8f4b3de1", "vout": [{"scriptPubKey": {"type": "nulldata", "hex": "6a146f6d6e69000000000000001f00004776f2d728e0", "asm": "OP_RETURN 6f6d6e69000000000000001f00004776f2d728e0"}, "value": 0.0, "n": 0}, {"scriptPubKey": {"reqSigs": 1, "hex": "76a91490a22efa9fcab2274025c676126e5b0000da4e1f88ac", "addresses": ["1EBkbLEGCgPR6TX6jmMwgvheMsCx8c2Q6S"], "asm": "OP_DUP OP_HASH160 90a22efa9fcab2274025c676126e5b0000da4e1f OP_EQUALVERIFY OP_CHECKSIG", "type": "pubkeyhash"}, "value": 0.0017483, "n": 1}, {"scriptPubKey": {"reqSigs": 1, "hex": "76a914cb71a5b80cfc05f2920248186c8d6a4a8f49ee8e88ac", "addresses": ["1KYiKJEfdJtap9QX2v9BXJMpz2SfU4pgZw"], "asm": "OP_DUP OP_HASH160 cb71a5b80cfc05f2920248186c8d6a4a8f49ee8e OP_EQUALVERIFY OP_CHECKSIG", "type": "pubkeyhash"}, "value": 5.46e-06, "n": 2}], "hex": "0100000002f1393c2201a66efc49f2a3885abe55122ed543798a2640803af94023d3484758000000006b483045022100d6a63e018a858e771697295a448b7fbafd8f15c32e2c6c3c18261d1b2ddcc18e022064b599b14cfbd1321155cf4b57c740b5c91c7869242a8b8f14c74260c0868923012102abb746e7abab9b1dff825c803cf4357b99d87a495f2824645fe15da73ca58a37feffffff3a6ea33b6eb72942a484af6ed93ec568af22875961bdeefdf1c80b6ef14e3481020000006b483045022100bcff97220e37270adbcdfd3f4b616763b375320927a6807983c2f74eacedf97a02204d25a007a933637d3c88d7429c72012dd9d4008b10afdd8f852e983feb710ff4012102abb746e7abab9b1dff825c803cf4357b99d87a495f2824645fe15da73ca58a37feffffff030000000000000000166a146f6d6e69000000000000001f00004776f2d728e0eeaa0200000000001976a91490a22efa9fcab2274025c676126e5b0000da4e1f88ac22020000000000001976a914cb71a5b80cfc05f2920248186c8d6a4a8f49ee8e88ac13490800", "vin": [{"sequence": 4294967294, "scriptSig": {"hex": "483045022100d6a63e018a858e771697295a448b7fbafd8f15c32e2c6c3c18261d1b2ddcc18e022064b599b14cfbd1321155cf4b57c740b5c91c7869242a8b8f14c74260c0868923012102abb746e7abab9b1dff825c803cf4357b99d87a495f2824645fe15da73ca58a37", "asm": "3045022100d6a63e018a858e771697295a448b7fbafd8f15c32e2c6c3c18261d1b2ddcc18e022064b599b14cfbd1321155cf4b57c740b5c91c7869242a8b8f14c74260c0868923[ALL] 02abb746e7abab9b1dff825c803cf4357b99d87a495f2824645fe15da73ca58a37"}, "vout": 0, "txid": "584748d32340f93a8040268a7943d52e1255be5a88a3f249fc6ea601223c39f1"}, {"sequence": 4294967294, "scriptSig": {"hex": "483045022100bcff97220e37270adbcdfd3f4b616763b375320927a6807983c2f74eacedf97a02204d25a007a933637d3c88d7429c72012dd9d4008b10afdd8f852e983feb710ff4012102abb746e7abab9b1dff825c803cf4357b99d87a495f2824645fe15da73ca58a37", "asm": "3045022100bcff97220e37270adbcdfd3f4b616763b375320927a6807983c2f74eacedf97a02204d25a007a933637d3c88d7429c72012dd9d4008b10afdd8f852e983feb710ff4[ALL] 02abb746e7abab9b1dff825c803cf4357b99d87a495f2824645fe15da73ca58a37"}, "vout": 2, "txid": "81344ef16e0bc8f1fdeebd61598722af68c53ed96eaf84a44229b76e3ba36e3a"}], "txid": "6477b08b0dee6b6427b3576c71add8aa04147c3d7297543f694907b70d80eefd", "blocktime": 1537873282, "version": 1, "confirmations": 11480, "time": 1537873282, "locktime": 542995, "vsize": 405, "size": 405}