{"hash": "647d3b7d6ff1e5464e97726d007b303621f716501f7b92bb5dcb5823c0b5c8ce", "blockhash": "0000000000000000000baef3f32e3676a92c3b2e5da21b426e4f302fc371ce76", "vout": [{"scriptPubKey": {"reqSigs": 1, "hex": "76a9147f0de60a697eef3c1366af5926599ec0aa15c81288ac", "addresses": ["1CaoU48DXbjfoypHC3hhgaYU1Xyi7ggqju"], "asm": "OP_DUP OP_HASH160 7f0de60a697eef3c1366af5926599ec0aa15c812 OP_EQUALVERIFY OP_CHECKSIG", "type": "pubkeyhash"}, "value": 2.73e-05, "n": 0}, {"scriptPubKey": {"reqSigs": 1, "hex": "76a914ab2a9d50d30937548f24999a134f7b21dbb99a2a88ac", "addresses": ["1Gc3biG5hsHAoj4ZNAtnT4sCBbtF9sKEEL"], "asm": "OP_DUP OP_HASH160 ab2a9d50d30937548f24999a134f7b21dbb99a2a OP_EQUALVERIFY OP_CHECKSIG", "type": "pubkeyhash"}, "value": 0.00580147, "n": 1}, {"scriptPubKey": {"type": "nulldata", "hex": "6a146f6d6e69000000000000001f00000013b4d27bcc", "asm": "OP_RETURN 6f6d6e69000000000000001f00000013b4d27bcc"}, "value": 0.0, "n": 2}], "hex": "0100000001e752b770957d2577fb0b3052ba9ec92e5d5ba2abb4cd046fe013a9a13a68dfe6010000006a47304402204dc31e1512a8fa267c8c39deeb853ba0085d2b42cb459fa4507b52a722f2d9c30220693b1cb7107a4280e3b4b82a44719b349d7e4ec7e74f5e2e77939daa19a15cea01210390424deb98da6c45c0af5063423f08c91c8161cac684e32e1a05023933e974b9ffffffff03aa0a0000000000001976a9147f0de60a697eef3c1366af5926599ec0aa15c81288ac33da0800000000001976a914ab2a9d50d30937548f24999a134f7b21dbb99a2a88ac0000000000000000166a146f6d6e69000000000000001f00000013b4d27bcc00000000", "vin": [{"sequence": 4294967295, "scriptSig": {"hex": "47304402204dc31e1512a8fa267c8c39deeb853ba0085d2b42cb459fa4507b52a722f2d9c30220693b1cb7107a4280e3b4b82a44719b349d7e4ec7e74f5e2e77939daa19a15cea01210390424deb98da6c45c0af5063423f08c91c8161cac684e32e1a05023933e974b9", "asm": "304402204dc31e1512a8fa267c8c39deeb853ba0085d2b42cb459fa4507b52a722f2d9c30220693b1cb7107a4280e3b4b82a44719b349d7e4ec7e74f5e2e77939daa19a15cea[ALL] 0390424deb98da6c45c0af5063423f08c91c8161cac684e32e1a05023933e974b9"}, "vout": 1, "txid": "e6df683aa1a913e06f04cdb4aba25b5d2ec99eba52300bfb77257d9570b752e7"}], "txid": "647d3b7d6ff1e5464e97726d007b303621f716501f7b92bb5dcb5823c0b5c8ce", "blocktime": 1537876114, "version": 1, "confirmations": 11462, "time": 1537876114, "locktime": 0, "vsize": 256, "size": 256}