{"hash": "647ee11b2934d304acb9b8152e1a6cb2bf9f29c037db9351555c7d40d180495e", "blockhash": "0000000000000000001f76057863aec43deb6fa401d9628bb513d65a8098bfab", "vout": [{"scriptPubKey": {"reqSigs": 1, "hex": "76a9146c559a39c3fae50d6e44d5c4fd1ea54a7a5a0c9d88ac", "addresses": ["1AspXUpv8Z66VSSuFuA2DEzehnU1gWHhGD"], "asm": "OP_DUP OP_HASH160 6c559a39c3fae50d6e44d5c4fd1ea54a7a5a0c9d OP_EQUALVERIFY OP_CHECKSIG", "type": "pubkeyhash"}, "value": 0.08561255, "n": 0}, {"scriptPubKey": {"reqSigs": 1, "hex": "76a914150fa99d64c1a98fd1943836673f51240ffd453088ac", "addresses": ["12vMxHMnCti16MBZrEMX6rxHpMny84ujNH"], "asm": "OP_DUP OP_HASH160 150fa99d64c1a98fd1943836673f51240ffd4530 OP_EQUALVERIFY OP_CHECKSIG", "type": "pubkeyhash"}, "value": 0.01369129, "n": 1}], "hex": "020000000132fe509aff5bae903fd89d302e77edbc1e14fc7942c98f233cfea4c8bb313bf1010000006b4830450221009761ed2708edec9f0b5163842a283fa6f4dff3958c29554b07ae902d912862f6022053baff06e344e81a0c9951908125852932c1f25a238ffcfb17eb00342153b19b012102176f5a882c8f58aae1a0d2c6d5bac727040a879a595570eab3b062a7eb4bdcf2feffffff0267a28200000000001976a9146c559a39c3fae50d6e44d5c4fd1ea54a7a5a0c9d88ac29e41400000000001976a914150fa99d64c1a98fd1943836673f51240ffd453088ac14490800", "vin": [{"sequence": 4294967294, "scriptSig": {"hex": "4830450221009761ed2708edec9f0b5163842a283fa6f4dff3958c29554b07ae902d912862f6022053baff06e344e81a0c9951908125852932c1f25a238ffcfb17eb00342153b19b012102176f5a882c8f58aae1a0d2c6d5bac727040a879a595570eab3b062a7eb4bdcf2", "asm": "30450221009761ed2708edec9f0b5163842a283fa6f4dff3958c29554b07ae902d912862f6022053baff06e344e81a0c9951908125852932c1f25a238ffcfb17eb00342153b19b[ALL] 02176f5a882c8f58aae1a0d2c6d5bac727040a879a595570eab3b062a7eb4bdcf2"}, "vout": 1, "txid": "f13b31bbc8a4fe3c238fc94279fc141ebced772e309dd83f90ae5bff9a50fe32"}], "txid": "647ee11b2934d304acb9b8152e1a6cb2bf9f29c037db9351555c7d40d180495e", "blocktime": 1537873891, "version": 2, "confirmations": 11474, "time": 1537873891, "locktime": 542996, "vsize": 226, "size": 226}