{"hash": "586de928aeb54316443f4b026d92da2980c0871780af342ac23e3377ce81b85f", "blockhash": "0000000000000000000baef3f32e3676a92c3b2e5da21b426e4f302fc371ce76", "vout": [{"scriptPubKey": {"reqSigs": 1, "hex": "76a914d02c90b22e51eb141d72cbf1abc8ae8f4cfb8c8288ac", "addresses": ["1KyiwM6Lqr1qhx9f448HCgBnwZ3TsYQosU"], "asm": "OP_DUP OP_HASH160 d02c90b22e51eb141d72cbf1abc8ae8f4cfb8c82 OP_EQUALVERIFY OP_CHECKSIG", "type": "pubkeyhash"}, "value": 0.00108, "n": 0}, {"scriptPubKey": {"reqSigs": 1, "hex": "a9149649ad6d2730bb28020a268d9d80df10a9f74ad487", "addresses": ["3FPfYWwfMfKMGY7fuPHvz2b73RhTNGzsm3"], "asm": "OP_HASH160 9649ad6d2730bb28020a268d9d80df10a9f74ad4 OP_EQUAL", "type": "scripthash"}, "value": 13.73180555, "n": 1}], "hex": "0100000000010128353a0e4e33b11483c2b4e87f2c26e339a09c6dd3e50926d28f25defa32cb1001000000232200207768efcc1e5eb3d28410fac3f45831004c860cc24cddd940a616b34324823fceffffffff02e0a50100000000001976a914d02c90b22e51eb141d72cbf1abc8ae8f4cfb8c8288ac8b12d9510000000017a9149649ad6d2730bb28020a268d9d80df10a9f74ad487040047304402207ce7146a1c1210f50479eaa51e170715c1ee36ab0132a65069a53d95c786bad402207c7316cce775159c14a57b397abc865c7a50cef9ab464a634b0440c623af245e014730440220155e68302fdd476a1a590451f3e0eb914e59c82b7880287009ad004116c158d9022055fbec94fdde307dc6fb428415e3ee535ca85194f656dd4aec22da7a62c73b7c0147522102529d5d1f6733ab45d9d50e07db42c7f6b967ae321c38b726c2247f149959b8262103d0c936a5988dd8421c63240496b723b0ec42400c38b9350e32c2eb4f47d8796952ae00000000", "vin": [{"txinwitness": ["", "304402207ce7146a1c1210f50479eaa51e170715c1ee36ab0132a65069a53d95c786bad402207c7316cce775159c14a57b397abc865c7a50cef9ab464a634b0440c623af245e01", "30440220155e68302fdd476a1a590451f3e0eb914e59c82b7880287009ad004116c158d9022055fbec94fdde307dc6fb428415e3ee535ca85194f656dd4aec22da7a62c73b7c01", "522102529d5d1f6733ab45d9d50e07db42c7f6b967ae321c38b726c2247f149959b8262103d0c936a5988dd8421c63240496b723b0ec42400c38b9350e32c2eb4f47d8796952ae"], "sequence": 4294967295, "scriptSig": {"hex": "2200207768efcc1e5eb3d28410fac3f45831004c860cc24cddd940a616b34324823fce", "asm": "00207768efcc1e5eb3d28410fac3f45831004c860cc24cddd940a616b34324823fce"}, "vout": 1, "txid": "10cb32fade258fd22609e5d36d9ca039e3262c7fe8b4c28314b1334e0e3a3528"}], "txid": "648098227024d131f374a6a6778dc93cd3b9215355cf85f6136f3d61804f4c0f", "blocktime": 1537876114, "version": 1, "confirmations": 11462, "time": 1537876114, "locktime": 0, "vsize": 207, "size": 372}