{"hash": "64832b598bcb8bf380d3f91671b52ea18a80b1da781e2087f3ca3ac69fdc9353", "blockhash": "00000000000000000004ffacab907a6b429b9a5745fa0b75af4234bf69dd7176", "vout": [{"scriptPubKey": {"reqSigs": 1, "hex": "a914eae3fab9dde99821c59dff2f2881bbb7ce3c2ea887", "addresses": ["3P719icuMGtbBsC7pUMFgaaJNMLgwXw8hc"], "asm": "OP_HASH160 eae3fab9dde99821c59dff2f2881bbb7ce3c2ea8 OP_EQUAL", "type": "scripthash"}, "value": 0.00901805, "n": 0}], "hex": "0100000001bc45691c9bfe81cec34d9931e9953e02c6c536bcf3d98e495420fa8066ef7aae000000006a473044022037047848718b980367033d809993dcdb8a2113ec8cb652a03bceaa0c91bdc93e02207df58bd82d1f0a590c42aa906a8abb2557621fb769ccf9de3847a9a100d0ef640121030a6d67700f282829efc4a5860646d7c52d307464f4e1c8895c5dc3f4477f0193ffffffff01adc20d000000000017a914eae3fab9dde99821c59dff2f2881bbb7ce3c2ea88700000000", "vin": [{"sequence": 4294967295, "scriptSig": {"hex": "473044022037047848718b980367033d809993dcdb8a2113ec8cb652a03bceaa0c91bdc93e02207df58bd82d1f0a590c42aa906a8abb2557621fb769ccf9de3847a9a100d0ef640121030a6d67700f282829efc4a5860646d7c52d307464f4e1c8895c5dc3f4477f0193", "asm": "3044022037047848718b980367033d809993dcdb8a2113ec8cb652a03bceaa0c91bdc93e02207df58bd82d1f0a590c42aa906a8abb2557621fb769ccf9de3847a9a100d0ef64[ALL] 030a6d67700f282829efc4a5860646d7c52d307464f4e1c8895c5dc3f4477f0193"}, "vout": 0, "txid": "ae7aef6680fa2054498ed9f3bc36c5c6023e95e931994dc3ce81fe9b1c6945bc"}], "txid": "64832b598bcb8bf380d3f91671b52ea18a80b1da781e2087f3ca3ac69fdc9353", "blocktime": 1537875543, "version": 1, "confirmations": 11464, "time": 1537875543, "locktime": 0, "vsize": 189, "size": 189}