{"hash": "648ded8116dd4f7713390f8efe0c16a774785b155b64c322b3feb1b2681e0962", "blockhash": "00000000000000000018f53835495a110e01622372bf6ae95dc86f2b0ab887b0", "vout": [{"scriptPubKey": {"reqSigs": 1, "hex": "76a9147fba77386d2bf95d37e837d661fb986e6f517a6b88ac", "addresses": ["1CeNCE9pm6HLwPknadCa4R9iyMTbDQq2oi"], "asm": "OP_DUP OP_HASH160 7fba77386d2bf95d37e837d661fb986e6f517a6b OP_EQUALVERIFY OP_CHECKSIG", "type": "pubkeyhash"}, "value": 0.04832726, "n": 0}, {"scriptPubKey": {"reqSigs": 1, "hex": "76a9147711eab6ffcc99e4376ac39f4022de413e1ea2a988ac", "addresses": ["1BrasiLb2KMbdtuhb1chAVnS2FvcNGfV9J"], "asm": "OP_DUP OP_HASH160 7711eab6ffcc99e4376ac39f4022de413e1ea2a9 OP_EQUALVERIFY OP_CHECKSIG", "type": "pubkeyhash"}, "value": 0.06591548, "n": 1}], "hex": "020000000182b14f2eeff2cb21a6d083369e73fa70a0224025bbc3090282743da5c7c6d994010000008b483045022100c76298dc45af649f42c4a0707c8633e351ffb62db23d1c2a251e0fe3d85afb2c022067f9d66f1f65601061619307ed075d233c85cdea66f76940a43c138c109e3a4e01410470584e87f314924f00c5ca78dd0d7147a3d125135f0a9f89eaf5615fcd1899f0cec436790e08c3947b07b36039bb36e6e1283e39459242d48249c4e5fbc6de7effffffff02d6bd4900000000001976a9147fba77386d2bf95d37e837d661fb986e6f517a6b88ac3c946400000000001976a9147711eab6ffcc99e4376ac39f4022de413e1ea2a988ac00000000", "vin": [{"sequence": 4294967295, "scriptSig": {"hex": "483045022100c76298dc45af649f42c4a0707c8633e351ffb62db23d1c2a251e0fe3d85afb2c022067f9d66f1f65601061619307ed075d233c85cdea66f76940a43c138c109e3a4e01410470584e87f314924f00c5ca78dd0d7147a3d125135f0a9f89eaf5615fcd1899f0cec436790e08c3947b07b36039bb36e6e1283e39459242d48249c4e5fbc6de7e", "asm": "3045022100c76298dc45af649f42c4a0707c8633e351ffb62db23d1c2a251e0fe3d85afb2c022067f9d66f1f65601061619307ed075d233c85cdea66f76940a43c138c109e3a4e[ALL] 0470584e87f314924f00c5ca78dd0d7147a3d125135f0a9f89eaf5615fcd1899f0cec436790e08c3947b07b36039bb36e6e1283e39459242d48249c4e5fbc6de7e"}, "vout": 1, "txid": "94d9c6c7a53d74820209c3bb254022a070fa739e3683d0a621cbf2ef2e4fb182"}], "txid": "648ded8116dd4f7713390f8efe0c16a774785b155b64c322b3feb1b2681e0962", "blocktime": 1537870928, "version": 2, "confirmations": 11514, "time": 1537870928, "locktime": 0, "vsize": 258, "size": 258}