{"hash": "649fb0f00331dae81ec064c0100feb5d666bb3eb55f8bda84e26254b6ea4a6fe", "blockhash": "00000000000000000024a2167bbff67b0be802c0b01cdd79e6331c2be6459f87", "vout": [{"scriptPubKey": {"reqSigs": 1, "hex": "76a914576e99d916502d0b0fe957a5bc1f3fed47a4b47388ac", "addresses": ["18yJHNztJjJpKpJFBC7HE3VxaMZ3kBv1HP"], "asm": "OP_DUP OP_HASH160 576e99d916502d0b0fe957a5bc1f3fed47a4b473 OP_EQUALVERIFY OP_CHECKSIG", "type": "pubkeyhash"}, "value": 0.004, "n": 0}, {"scriptPubKey": {"reqSigs": 1, "hex": "76a91467f81e63aa0835ede496afc5bd51455ab5839f6188ac", "addresses": ["1AUjqMDjbZfWaPMq5dEXDGf2eSoH9Brvtp"], "asm": "OP_DUP OP_HASH160 67f81e63aa0835ede496afc5bd51455ab5839f61 OP_EQUALVERIFY OP_CHECKSIG", "type": "pubkeyhash"}, "value": 0.03289607, "n": 1}], "hex": "0100000001d035cfa489adb8ead5e33df93e92fdead2d3dd17f2eaacf4ea0829f75eec349c010000006b483045022100c0c348a59f7468d66107b877c6e2fc4b7eb07f8c81fd3fdf6cfa5ba96b04ebce0220344102a7ef449050b1a50d7cd9502b469a2455bdf0b9171dde5692da5407b2cc012103aea32974ced5b2f48d21a1ade7f95203de454149184607a650b4338fa7a252e3ffffffff02801a0600000000001976a914576e99d916502d0b0fe957a5bc1f3fed47a4b47388ac07323200000000001976a91467f81e63aa0835ede496afc5bd51455ab5839f6188ac00000000", "vin": [{"sequence": 4294967295, "scriptSig": {"hex": "483045022100c0c348a59f7468d66107b877c6e2fc4b7eb07f8c81fd3fdf6cfa5ba96b04ebce0220344102a7ef449050b1a50d7cd9502b469a2455bdf0b9171dde5692da5407b2cc012103aea32974ced5b2f48d21a1ade7f95203de454149184607a650b4338fa7a252e3", "asm": "3045022100c0c348a59f7468d66107b877c6e2fc4b7eb07f8c81fd3fdf6cfa5ba96b04ebce0220344102a7ef449050b1a50d7cd9502b469a2455bdf0b9171dde5692da5407b2cc[ALL] 03aea32974ced5b2f48d21a1ade7f95203de454149184607a650b4338fa7a252e3"}, "vout": 1, "txid": "9c34ec5ef72908eaf4aceaf217ddd3d2eafd923ef93de3d5eab8ad89a4cf35d0"}], "txid": "649fb0f00331dae81ec064c0100feb5d666bb3eb55f8bda84e26254b6ea4a6fe", "blocktime": 1537870564, "version": 1, "confirmations": 11515, "time": 1537870564, "locktime": 0, "vsize": 226, "size": 226}