{"hash": "64a0b6f05bb9bb7c5dbe82c49b4b603e4eca8d493dda65a9f0a9bef963b3ed76", "blockhash": "0000000000000000000e13cef7c366c0283d82e591d1acd082e914b08063cdf1", "vout": [{"scriptPubKey": {"reqSigs": 1, "hex": "76a914d243e6abb9a60fbff430b421d2df4b7d59ec186088ac", "addresses": ["1LAnF8h3qMGx3TSwNUHVneBZUEpwE4gu3D"], "asm": "OP_DUP OP_HASH160 d243e6abb9a60fbff430b421d2df4b7d59ec1860 OP_EQUALVERIFY OP_CHECKSIG", "type": "pubkeyhash"}, "value": 0.00076972, "n": 0}, {"scriptPubKey": {"reqSigs": 1, "hex": "76a9143851f34d13937b673a7d24a1950bb5b21ce94af388ac", "addresses": ["168o1kqNquEJeR9vosUB5fw4eAwcVAgh8P"], "asm": "OP_DUP OP_HASH160 3851f34d13937b673a7d24a1950bb5b21ce94af3 OP_EQUALVERIFY OP_CHECKSIG", "type": "pubkeyhash"}, "value": 5.46e-06, "n": 1}, {"scriptPubKey": {"type": "nulldata", "hex": "6a146f6d6e69000000000000001f00000040814887f0", "asm": "OP_RETURN 6f6d6e69000000000000001f00000040814887f0"}, "value": 0.0, "n": 2}], "hex": "010000000288cc295ffb399762ff83bf03e1e76136a4987842ccb166b09c48b1ffcee2f917020000006b4830450221009b3ca3d14423cbf28cf458a2fbcab5690c988a549671e0acc99cf6a8579fc0be0220740a7f5c919d31cfdf14b0e823cb50619cc22140248e933835f4df1bd65a0a1f0121038a9783f7a661df5ad643ab6dafa76703cd4a30c756f78f0e261a5070cd6212a2ffffffff2fb19a3f31770a14c8311f13163d33973491665750bc0364faa1f1b8c9a28254000000006a47304402200463292dcaa8ac3e189c0170a5b136cd49c2582007c8c7d1644e147664f5369d0220797c8f77b0444be20c6dab842e2857220bcced8c6aafda1148575b68d26aa2bd01210271977291b74f1f5f5c42157e8aae804664eaaeccfd097918450d37f28fb94d77ffffffff03ac2c0100000000001976a914d243e6abb9a60fbff430b421d2df4b7d59ec186088ac22020000000000001976a9143851f34d13937b673a7d24a1950bb5b21ce94af388ac0000000000000000166a146f6d6e69000000000000001f00000040814887f000000000", "vin": [{"sequence": 4294967295, "scriptSig": {"hex": "4830450221009b3ca3d14423cbf28cf458a2fbcab5690c988a549671e0acc99cf6a8579fc0be0220740a7f5c919d31cfdf14b0e823cb50619cc22140248e933835f4df1bd65a0a1f0121038a9783f7a661df5ad643ab6dafa76703cd4a30c756f78f0e261a5070cd6212a2", "asm": "30450221009b3ca3d14423cbf28cf458a2fbcab5690c988a549671e0acc99cf6a8579fc0be0220740a7f5c919d31cfdf14b0e823cb50619cc22140248e933835f4df1bd65a0a1f[ALL] 038a9783f7a661df5ad643ab6dafa76703cd4a30c756f78f0e261a5070cd6212a2"}, "vout": 2, "txid": "17f9e2ceffb1489cb066b1cc427898a43661e7e103bf83ff629739fb5f29cc88"}, {"sequence": 4294967295, "scriptSig": {"hex": "47304402200463292dcaa8ac3e189c0170a5b136cd49c2582007c8c7d1644e147664f5369d0220797c8f77b0444be20c6dab842e2857220bcced8c6aafda1148575b68d26aa2bd01210271977291b74f1f5f5c42157e8aae804664eaaeccfd097918450d37f28fb94d77", "asm": "304402200463292dcaa8ac3e189c0170a5b136cd49c2582007c8c7d1644e147664f5369d0220797c8f77b0444be20c6dab842e2857220bcced8c6aafda1148575b68d26aa2bd[ALL] 0271977291b74f1f5f5c42157e8aae804664eaaeccfd097918450d37f28fb94d77"}, "vout": 0, "txid": "5482a2c9b8f1a1fa6403bc505766913497333d16131f31c8140a77313f9ab12f"}], "txid": "64a0b6f05bb9bb7c5dbe82c49b4b603e4eca8d493dda65a9f0a9bef963b3ed76", "blocktime": 1537871767, "version": 1, "confirmations": 11491, "time": 1537871767, "locktime": 0, "vsize": 404, "size": 404}