{"hash": "9079e3775771a9bdf7abc6676ec66f0dcc3e367982f359590664368098cab952", "blockhash": "0000000000000000001f0ddff1eddb255c1121bcd4da4f1bc9a0da00cae72433", "vout": [{"scriptPubKey": {"reqSigs": 1, "hex": "a9145680aa984239b2f30e6b15fde506bef949651e7587", "addresses": ["39aQAwNy4T6QxX8Rew77i1HYET6muHp7hC"], "asm": "OP_HASH160 5680aa984239b2f30e6b15fde506bef949651e75 OP_EQUAL", "type": "scripthash"}, "value": 0.16556736, "n": 0}, {"scriptPubKey": {"reqSigs": 1, "hex": "a91492f66a689f8f877e90690ace998613b1f9b75a2f87", "addresses": ["3F65mozuSaJ5WzafbA3Xf3p8EjNhTQrauk"], "asm": "OP_HASH160 92f66a689f8f877e90690ace998613b1f9b75a2f OP_EQUAL", "type": "scripthash"}, "value": 0.01467709, "n": 1}], "hex": "02000000000102d1b2600a17491f080f355b1fb8b51e5ad4106def4a8cb80e37679faa70a204703800000017160014a350cfc511bdeaedda97db563cb173248842c277feffffffec6542719935fac73ce4815d0e1dd50479654ebe53a1bacbac56407aa9dc8d000000000017160014fcb88341861b2f2e354d7b6e1c4e6fe8ea8245e2feffffff02c0a2fc000000000017a9145680aa984239b2f30e6b15fde506bef949651e75873d6516000000000017a91492f66a689f8f877e90690ace998613b1f9b75a2f870247304402202ae511ff65a4e676eb1887bc5bf0afc7dba4edb3c16f8a00bb7a1b2dcdf1da4d02205c878ee46349b4165e55d44f9330efb9b76a341a7ff0c96d32a670a29525b7de012102e71c31db8279163c7d2a56440c1f003f8b97a5c494076673f08e5d69dd04d4e502483045022100972623b4e8ae818d44fd03fb8afd882a8f99d0185439247c8ae72fc523cfeb5d022017c6b03b0e37ff673278bf3b63c6d812907f2776f1311f9f472af01ec11038e9012102b381a9d5ccf81a7b9612e5923f57a6277010548ddae0625942a5612b052916ed11490800", "vin": [{"txinwitness": ["304402202ae511ff65a4e676eb1887bc5bf0afc7dba4edb3c16f8a00bb7a1b2dcdf1da4d02205c878ee46349b4165e55d44f9330efb9b76a341a7ff0c96d32a670a29525b7de01", "02e71c31db8279163c7d2a56440c1f003f8b97a5c494076673f08e5d69dd04d4e5"], "sequence": 4294967294, "scriptSig": {"hex": "160014a350cfc511bdeaedda97db563cb173248842c277", "asm": "0014a350cfc511bdeaedda97db563cb173248842c277"}, "vout": 56, "txid": "7004a270aa9f67370eb88c4aef6d10d45a1eb5b81f5b350f081f49170a60b2d1"}, {"txinwitness": ["3045022100972623b4e8ae818d44fd03fb8afd882a8f99d0185439247c8ae72fc523cfeb5d022017c6b03b0e37ff673278bf3b63c6d812907f2776f1311f9f472af01ec11038e901", "02b381a9d5ccf81a7b9612e5923f57a6277010548ddae0625942a5612b052916ed"], "sequence": 4294967294, "scriptSig": {"hex": "160014fcb88341861b2f2e354d7b6e1c4e6fe8ea8245e2", "asm": "0014fcb88341861b2f2e354d7b6e1c4e6fe8ea8245e2"}, "vout": 0, "txid": "008ddca97a4056accbbaa153be4e657904d51d0e5d81e43cc7fa3599714265ec"}], "txid": "64a70e9d865d491212ed8cbfa296e8816ba341f5195a4a0cfe9f47f37032fd3a", "blocktime": 1537872018, "version": 2, "confirmations": 11489, "time": 1537872018, "locktime": 542993, "vsize": 257, "size": 419}