{"hash": "64a73dbc53b89259fa5fa1648badf2c5f5acf5e67e3cf9333ac6dccb8f18fa94", "blockhash": "0000000000000000001cda96e906b7601b7a6fb1a3b62bca570a9e5d8f4b3de1", "vout": [{"scriptPubKey": {"reqSigs": 1, "hex": "76a914c5b7fd920dce5f61934e792c7e6fcc829aff533d88ac", "addresses": ["1K2SXgApmo9uZoyahvsbSanpVWbzZWVVMF"], "asm": "OP_DUP OP_HASH160 c5b7fd920dce5f61934e792c7e6fcc829aff533d OP_EQUALVERIFY OP_CHECKSIG", "type": "pubkeyhash"}, "value": 0.0015778, "n": 0}, {"scriptPubKey": {"type": "nulldata", "hex": "6a28466100000002707b5fb60557992b2fc3e747f42c531fdf6775540b4b64b4a463bbda923d347e921b", "asm": "OP_RETURN 466100000002707b5fb60557992b2fc3e747f42c531fdf6775540b4b64b4a463bbda923d347e921b"}, "value": 0.0, "n": 1}], "hex": "020000000106fc758bfe30085de1e3289fd49dff7cd93a09cc2c0c5ce3f19d3b960c0da6d6000000006a47304402206d147898073bc941b03c26bfdda979a301c4fd5a93ab668f9acdaf34082e236702201feecc1f2d8c043e9f7912eafaf18261b58d8a3c59292f36788cb70bb7e5de770121027e706cd1c919431b693a0247e4a239e632659a8723a621a91ec610c64f4173acffffffff0254680200000000001976a914c5b7fd920dce5f61934e792c7e6fcc829aff533d88ac00000000000000002a6a28466100000002707b5fb60557992b2fc3e747f42c531fdf6775540b4b64b4a463bbda923d347e921b00000000", "vin": [{"sequence": 4294967295, "scriptSig": {"hex": "47304402206d147898073bc941b03c26bfdda979a301c4fd5a93ab668f9acdaf34082e236702201feecc1f2d8c043e9f7912eafaf18261b58d8a3c59292f36788cb70bb7e5de770121027e706cd1c919431b693a0247e4a239e632659a8723a621a91ec610c64f4173ac", "asm": "304402206d147898073bc941b03c26bfdda979a301c4fd5a93ab668f9acdaf34082e236702201feecc1f2d8c043e9f7912eafaf18261b58d8a3c59292f36788cb70bb7e5de77[ALL] 027e706cd1c919431b693a0247e4a239e632659a8723a621a91ec610c64f4173ac"}, "vout": 0, "txid": "d6a60d0c963b9df1e35c0c2ccc093ad97cff9dd49f28e3e15d0830fe8b75fc06"}], "txid": "64a73dbc53b89259fa5fa1648badf2c5f5acf5e67e3cf9333ac6dccb8f18fa94", "blocktime": 1537873282, "version": 2, "confirmations": 11481, "time": 1537873282, "locktime": 0, "vsize": 242, "size": 242}