{"hash": "b33dda28ed6d6ed6991cabc56048b5a40273ea2a0469fce324351aeaa896eae7", "blockhash": "0000000000000000000e13cef7c366c0283d82e591d1acd082e914b08063cdf1", "vout": [{"scriptPubKey": {"reqSigs": 1, "hex": "a914d68feea32940a705e4ec4586dbdecdf523b849c787", "addresses": ["3MFWxBJa4FHQFYH7qAiZLh7kXFAZR5qh1K"], "asm": "OP_HASH160 d68feea32940a705e4ec4586dbdecdf523b849c7 OP_EQUAL", "type": "scripthash"}, "value": 0.0505, "n": 0}, {"scriptPubKey": {"reqSigs": 1, "hex": "a91427b3187d53e5ba263ce20b51b7cbc479f52c03ef87", "addresses": ["35JvpovogEUZhdGDuBGmxHyNoUFpmck9Qg"], "asm": "OP_HASH160 27b3187d53e5ba263ce20b51b7cbc479f52c03ef OP_EQUAL", "type": "scripthash"}, "value": 0.02420915, "n": 1}], "hex": "01000000000103580f662b35df34d482a9e7d57c3852ffdca0c45a1c6fe7c4fcc584529589959c6d00000023220020ba2c7cf9a586d904e28edcb66a6b4a2dbf77f3cb6b310bade4305ac059daebe7ffffffff580f662b35df34d482a9e7d57c3852ffdca0c45a1c6fe7c4fcc584529589959c6800000023220020d5714a8f51410fbe7117595f6dd274d43df6f22502b85b7fe1ee2b0bba66b657ffffffff580f662b35df34d482a9e7d57c3852ffdca0c45a1c6fe7c4fcc584529589959c6a00000023220020da1e405b1d840e7b862338c493fcce14a5af7a4f76a170bcfee71830e9fde476ffffffff02900e4d000000000017a914d68feea32940a705e4ec4586dbdecdf523b849c787b3f024000000000017a91427b3187d53e5ba263ce20b51b7cbc479f52c03ef870400473044022059cd1f76378ee8e0bb92118267a5ff6b4dc94bd4f4bdcca988d148dc75c41b5002201a1e4a0871e37b4c2bd5d18c57ce8dfaf0426da8f13dcf7f6dcd228d17fcd2e501483045022100f41ec86dad5623003be99e9ddba0b36d2c444db04c8091459603e8dd3645170b022031f684c52eec70490ba941f0dd60b887e45c08892fae0d4afeede163104136a90169522103775d1ee67f2727d96f7883bb0309e1493625c0146c70603c4bbd8305981c32d62103145f26507d61ebb1de95a576e9e6b164ab877c1848526b4cbb892a673c47bbdc210336d19241f05271f0fe9c2d1db012946ec57c83baa584e41f53b500132cbbdc7653ae04004730440220517cd3a056bf310a6ba7abd07bea483201eb97782b6c47e9078ca849500c51260220158153772d82badcf72c340ecf8d9571bf75624ac50219d9c853d1b0c0f9e2c701483045022100ffe86fc0ac52d9f8842a76b1e0b49820db0abadca9bdd47bae7d88d39502b9860220219b5b71c05f011f006432249175c47b62e23067fc48b1e729f003f3d20a62d301695221021c263739f88bc374c745cad16fd2b0037ff77150e57ec031a25b07e7b5e51d2d2102a296a7a46f5dc954aa367dc365f14875cc50da3027a9db271c91fe2c0c04f50f21036b41167b90bdee2eb5b161689d0480a7190ab620fbef956b182b7720419050df53ae04004730440220769bad45705df1f8d5e310a61e7168bbcd9b432e32794177b1193a5031827237022066e38a2ebf6672616e9072045ef4c162d4155167433b2bd4fc875dc3501ac599014830450221008d86c83e6ef6527ad3c6252c91861ba1f500fac711d8de3d5a2c537532d12716022043c1e179269b5db1f8d4ee2a7fbc5e9c949343c8429647e28fb8d6d267eeb6f00169522102d35a0e0933f3aaf6694d89f2d0c161818c9bbb11076ef563643ee892be4806cf210263047f915504e8974272e73e9cf6c66aea358f9d08fe3fb011abbe3a30d4d60b21031d11baad1879da0b7c0c89e225ef613d1e86f2966cfeed450ace3915b430372553ae00000000", "vin": [{"txinwitness": ["", "3044022059cd1f76378ee8e0bb92118267a5ff6b4dc94bd4f4bdcca988d148dc75c41b5002201a1e4a0871e37b4c2bd5d18c57ce8dfaf0426da8f13dcf7f6dcd228d17fcd2e501", "3045022100f41ec86dad5623003be99e9ddba0b36d2c444db04c8091459603e8dd3645170b022031f684c52eec70490ba941f0dd60b887e45c08892fae0d4afeede163104136a901", "522103775d1ee67f2727d96f7883bb0309e1493625c0146c70603c4bbd8305981c32d62103145f26507d61ebb1de95a576e9e6b164ab877c1848526b4cbb892a673c47bbdc210336d19241f05271f0fe9c2d1db012946ec57c83baa584e41f53b500132cbbdc7653ae"], "sequence": 4294967295, "scriptSig": {"hex": "220020ba2c7cf9a586d904e28edcb66a6b4a2dbf77f3cb6b310bade4305ac059daebe7", "asm": "0020ba2c7cf9a586d904e28edcb66a6b4a2dbf77f3cb6b310bade4305ac059daebe7"}, "vout": 109, "txid": "9c9589955284c5fcc4e76f1c5ac4a0dcff52387cd5e7a982d434df352b660f58"}, {"txinwitness": ["", "30440220517cd3a056bf310a6ba7abd07bea483201eb97782b6c47e9078ca849500c51260220158153772d82badcf72c340ecf8d9571bf75624ac50219d9c853d1b0c0f9e2c701", "3045022100ffe86fc0ac52d9f8842a76b1e0b49820db0abadca9bdd47bae7d88d39502b9860220219b5b71c05f011f006432249175c47b62e23067fc48b1e729f003f3d20a62d301", "5221021c263739f88bc374c745cad16fd2b0037ff77150e57ec031a25b07e7b5e51d2d2102a296a7a46f5dc954aa367dc365f14875cc50da3027a9db271c91fe2c0c04f50f21036b41167b90bdee2eb5b161689d0480a7190ab620fbef956b182b7720419050df53ae"], "sequence": 4294967295, "scriptSig": {"hex": "220020d5714a8f51410fbe7117595f6dd274d43df6f22502b85b7fe1ee2b0bba66b657", "asm": "0020d5714a8f51410fbe7117595f6dd274d43df6f22502b85b7fe1ee2b0bba66b657"}, "vout": 104, "txid": "9c9589955284c5fcc4e76f1c5ac4a0dcff52387cd5e7a982d434df352b660f58"}, {"txinwitness": ["", "30440220769bad45705df1f8d5e310a61e7168bbcd9b432e32794177b1193a5031827237022066e38a2ebf6672616e9072045ef4c162d4155167433b2bd4fc875dc3501ac59901", "30450221008d86c83e6ef6527ad3c6252c91861ba1f500fac711d8de3d5a2c537532d12716022043c1e179269b5db1f8d4ee2a7fbc5e9c949343c8429647e28fb8d6d267eeb6f001", "522102d35a0e0933f3aaf6694d89f2d0c161818c9bbb11076ef563643ee892be4806cf210263047f915504e8974272e73e9cf6c66aea358f9d08fe3fb011abbe3a30d4d60b21031d11baad1879da0b7c0c89e225ef613d1e86f2966cfeed450ace3915b430372553ae"], "sequence": 4294967295, "scriptSig": {"hex": "220020da1e405b1d840e7b862338c493fcce14a5af7a4f76a170bcfee71830e9fde476", "asm": "0020da1e405b1d840e7b862338c493fcce14a5af7a4f76a170bcfee71830e9fde476"}, "vout": 106, "txid": "9c9589955284c5fcc4e76f1c5ac4a0dcff52387cd5e7a982d434df352b660f58"}], "txid": "64b00f16eff1f69be1f5a1f7faa4913cc7787a67592d0a4fbcf2195dd527d88a", "blocktime": 1537871767, "version": 1, "confirmations": 11495, "time": 1537871767, "locktime": 0, "vsize": 493, "size": 1063}