{"hash": "64b2077fd658b8c6a657419f01edbc21beaadd833d8a2d17082f772f0a697cb3", "blockhash": "000000000000000000205f8b0775d31398ef75b89a5e8ec8d2c57b4dc0ac4c20", "vout": [{"scriptPubKey": {"reqSigs": 1, "hex": "76a91490e04112f3aedb8c5d21d783e785ad1201ae9e9888ac", "addresses": ["1ED2x5YCdcvk3ZqK9QbqgdGU8eykHuxb1P"], "asm": "OP_DUP OP_HASH160 90e04112f3aedb8c5d21d783e785ad1201ae9e98 OP_EQUALVERIFY OP_CHECKSIG", "type": "pubkeyhash"}, "value": 0.1, "n": 0}, {"scriptPubKey": {"reqSigs": 1, "hex": "a914b618da36241429f83ab0a61c07cd0cef47e18bf487", "addresses": ["3JHrgEMkmcqgbdn5MLUuKtrYfMfyan9SFp"], "asm": "OP_HASH160 b618da36241429f83ab0a61c07cd0cef47e18bf4 OP_EQUAL", "type": "scripthash"}, "value": 0.03283876, "n": 1}], "hex": "0100000002a0bdd42cc6b1d4cfbaf761897f8287b3ce850d5f14b4bf752d56c21a0b638c4d01000000da0047304402207784ac17826f0b6d567b06ece098a5f7703666c5ba156b54f36c6396538da1f502207abe3a5d58c97244abad6fbe5e067f0f2543d5c8357b0de2771fe43e163f4a9101483045022100fd70501682967fa960e07e1ec3b3ad25ac4a42adad2ff6914a06056877412d0e02203487a214f8d2a2c8720caad5ade11e6ba55312bb477bfd65e42189343563fc5001475221039565c5f162b327194eef384ad4a80a89f533d91066096c56161f731624470d382102d72a37f7b71961e3ddd0781c10842cd6878b3d1d70cf413325cda257ac29314c52aeffffffff699bcfc2c299a118f71677ab24de27e0cfc121441adc963bc38931df80ad1dcf00000000da00473044022004c4d64c6538786f59a67b1213e5b67d29cfdd9af1b13d1d26f929889c6c3bb002201eadf7fd56bdb1dce252fda1916f0dedaeff096ccb1c1d34535652972dd6104301483045022100905707db7b3cba5ff6c66bf1ea7dbc63f671c5606a1c088f74469fc762178e8602200c0199dd0864fb73b7c942f6dfd9764ab61905fd675aeaad3e2779ccf8876d6801475221039565c5f162b327194eef384ad4a80a89f533d91066096c56161f731624470d382102d72a37f7b71961e3ddd0781c10842cd6878b3d1d70cf413325cda257ac29314c52aeffffffff0280969800000000001976a91490e04112f3aedb8c5d21d783e785ad1201ae9e9888aca41b32000000000017a914b618da36241429f83ab0a61c07cd0cef47e18bf48700000000", "vin": [{"sequence": 4294967295, "scriptSig": {"hex": "0047304402207784ac17826f0b6d567b06ece098a5f7703666c5ba156b54f36c6396538da1f502207abe3a5d58c97244abad6fbe5e067f0f2543d5c8357b0de2771fe43e163f4a9101483045022100fd70501682967fa960e07e1ec3b3ad25ac4a42adad2ff6914a06056877412d0e02203487a214f8d2a2c8720caad5ade11e6ba55312bb477bfd65e42189343563fc5001475221039565c5f162b327194eef384ad4a80a89f533d91066096c56161f731624470d382102d72a37f7b71961e3ddd0781c10842cd6878b3d1d70cf413325cda257ac29314c52ae", "asm": "0 304402207784ac17826f0b6d567b06ece098a5f7703666c5ba156b54f36c6396538da1f502207abe3a5d58c97244abad6fbe5e067f0f2543d5c8357b0de2771fe43e163f4a91[ALL] 3045022100fd70501682967fa960e07e1ec3b3ad25ac4a42adad2ff6914a06056877412d0e02203487a214f8d2a2c8720caad5ade11e6ba55312bb477bfd65e42189343563fc50[ALL] 5221039565c5f162b327194eef384ad4a80a89f533d91066096c56161f731624470d382102d72a37f7b71961e3ddd0781c10842cd6878b3d1d70cf413325cda257ac29314c52ae"}, "vout": 1, "txid": "4d8c630b1ac2562d75bfb4145f0d85ceb387827f8961f7bacfd4b1c62cd4bda0"}, {"sequence": 4294967295, "scriptSig": {"hex": "00473044022004c4d64c6538786f59a67b1213e5b67d29cfdd9af1b13d1d26f929889c6c3bb002201eadf7fd56bdb1dce252fda1916f0dedaeff096ccb1c1d34535652972dd6104301483045022100905707db7b3cba5ff6c66bf1ea7dbc63f671c5606a1c088f74469fc762178e8602200c0199dd0864fb73b7c942f6dfd9764ab61905fd675aeaad3e2779ccf8876d6801475221039565c5f162b327194eef384ad4a80a89f533d91066096c56161f731624470d382102d72a37f7b71961e3ddd0781c10842cd6878b3d1d70cf413325cda257ac29314c52ae", "asm": "0 3044022004c4d64c6538786f59a67b1213e5b67d29cfdd9af1b13d1d26f929889c6c3bb002201eadf7fd56bdb1dce252fda1916f0dedaeff096ccb1c1d34535652972dd61043[ALL] 3045022100905707db7b3cba5ff6c66bf1ea7dbc63f671c5606a1c088f74469fc762178e8602200c0199dd0864fb73b7c942f6dfd9764ab61905fd675aeaad3e2779ccf8876d68[ALL] 5221039565c5f162b327194eef384ad4a80a89f533d91066096c56161f731624470d382102d72a37f7b71961e3ddd0781c10842cd6878b3d1d70cf413325cda257ac29314c52ae"}, "vout": 0, "txid": "cf1dad80df3189c33b96dc1a4421c1cfe027de24ab7716f718a199c2c2cf9b69"}], "txid": "64b2077fd658b8c6a657419f01edbc21beaadd833d8a2d17082f772f0a697cb3", "blocktime": 1537871175, "version": 1, "confirmations": 11511, "time": 1537871175, "locktime": 0, "vsize": 594, "size": 594}