{"hash": "64b45ddf830594180ea870eab7fcf28cf48e94491ca2c3d3e701295be900f353", "blockhash": "00000000000000000017f5eb5941039fbcee6240d03bc1f2f8e35350df66a1d8", "vout": [{"scriptPubKey": {"reqSigs": 1, "hex": "76a914edfc18444b72cb400680ed74bd6cc03e5dbb29ef88ac", "addresses": ["1NhM9KPWsCqRFuXLkAMs2GawnDeUX4Hd9e"], "asm": "OP_DUP OP_HASH160 edfc18444b72cb400680ed74bd6cc03e5dbb29ef OP_EQUALVERIFY OP_CHECKSIG", "type": "pubkeyhash"}, "value": 0.00046658, "n": 0}, {"scriptPubKey": {"reqSigs": 1, "hex": "76a9143d0938e2eedcf45c811d8b0b330b68d621f6e12588ac", "addresses": ["16ZjGUPaZjxVTZUZRepniAU4vV3MNrZE2J"], "asm": "OP_DUP OP_HASH160 3d0938e2eedcf45c811d8b0b330b68d621f6e125 OP_EQUALVERIFY OP_CHECKSIG", "type": "pubkeyhash"}, "value": 0.1, "n": 1}], "hex": "0100000001c317a7ef2cf8c8ae14f392565962fa3dc757fd28175e01f8b662136c273c8108000000006a473044022048bea48db75e7a40dae4b7f3cdfa63051a644766d52810abc6b828c805f4964202203dc8e7175424d82c74c014d1c362768ee2674a5ded2060dd0051a7a867c226d2012102a1601150a2469b39ede9fb612566ce80f5c1f62d35bd9b503c33209fd762d025ffffffff0242b60000000000001976a914edfc18444b72cb400680ed74bd6cc03e5dbb29ef88ac80969800000000001976a9143d0938e2eedcf45c811d8b0b330b68d621f6e12588ac00000000", "vin": [{"sequence": 4294967295, "scriptSig": {"hex": "473044022048bea48db75e7a40dae4b7f3cdfa63051a644766d52810abc6b828c805f4964202203dc8e7175424d82c74c014d1c362768ee2674a5ded2060dd0051a7a867c226d2012102a1601150a2469b39ede9fb612566ce80f5c1f62d35bd9b503c33209fd762d025", "asm": "3044022048bea48db75e7a40dae4b7f3cdfa63051a644766d52810abc6b828c805f4964202203dc8e7175424d82c74c014d1c362768ee2674a5ded2060dd0051a7a867c226d2[ALL] 02a1601150a2469b39ede9fb612566ce80f5c1f62d35bd9b503c33209fd762d025"}, "vout": 0, "txid": "08813c276c1362b6f8015e1728fd57c73dfa62595692f314aec8f82cefa717c3"}], "txid": "64b45ddf830594180ea870eab7fcf28cf48e94491ca2c3d3e701295be900f353", "blocktime": 1537874412, "version": 1, "confirmations": 11467, "time": 1537874412, "locktime": 0, "vsize": 225, "size": 225}