{"hash": "c79b54053050ff987e44cbef9668c10ef4cccf1ef7429470b8e859a68c7eafe8", "blockhash": "00000000000000000024a2167bbff67b0be802c0b01cdd79e6331c2be6459f87", "vout": [{"scriptPubKey": {"reqSigs": 1, "hex": "a9148ac10f2481b1ee761e12dfc53fbabb6cd68b54ee87", "addresses": ["3ELgT12fekGpcHBzNEZfX4aqWRYtKGdDfA"], "asm": "OP_HASH160 8ac10f2481b1ee761e12dfc53fbabb6cd68b54ee OP_EQUAL", "type": "scripthash"}, "value": 0.61846019, "n": 0}, {"scriptPubKey": {"reqSigs": 1, "hex": "76a914317d289242a81245ef6cd78d52dccd3bdddbe12088ac", "addresses": ["15Wg3ZgUDdiGRNB26QivjVbobAn2xH8hqJ"], "asm": "OP_DUP OP_HASH160 317d289242a81245ef6cd78d52dccd3bdddbe120 OP_EQUALVERIFY OP_CHECKSIG", "type": "pubkeyhash"}, "value": 0.00970261, "n": 1}], "hex": "02000000000101461bad8ba0a2e423a677ad23919c324401fe49758b4c7ba439ce55d1844ef939010000001716001422bb5515ea25fb14193679aa40d53ceff116e45cffffffff0203b2af030000000017a9148ac10f2481b1ee761e12dfc53fbabb6cd68b54ee8715ce0e00000000001976a914317d289242a81245ef6cd78d52dccd3bdddbe12088ac0247304402200a88e7490b7bcf5b07685a7d95920eb0aef07ba0b74692e8894ab1fcc320655b0220488b7f920205a7bb685da855dadb96f48c7baf4e5ae382bdd0725a2732ad8c53012102572606fca8ec33512b8c7337306e57272c146b1802d5062cccea3e285cf31b4f00000000", "vin": [{"txinwitness": ["304402200a88e7490b7bcf5b07685a7d95920eb0aef07ba0b74692e8894ab1fcc320655b0220488b7f920205a7bb685da855dadb96f48c7baf4e5ae382bdd0725a2732ad8c5301", "02572606fca8ec33512b8c7337306e57272c146b1802d5062cccea3e285cf31b4f"], "sequence": 4294967295, "scriptSig": {"hex": "16001422bb5515ea25fb14193679aa40d53ceff116e45c", "asm": "001422bb5515ea25fb14193679aa40d53ceff116e45c"}, "vout": 1, "txid": "39f94e84d155ce39a47b4c8b7549fe0144329c9123ad77a623e4a2a08bad1b46"}], "txid": "64bdcacfb6c563d1497188c4a65e73e71f596c63e37999787026ae5aedb8da65", "blocktime": 1537870564, "version": 2, "confirmations": 11515, "time": 1537870564, "locktime": 0, "vsize": 168, "size": 249}