{"hash": "64bfa69680b5ff3d8bf3e88f09561c29df2e485419488bb99a76e8c5753dc6ff", "blockhash": "0000000000000000001cda96e906b7601b7a6fb1a3b62bca570a9e5d8f4b3de1", "vout": [{"scriptPubKey": {"reqSigs": 1, "hex": "a91430ea1246d90da5c89e22d00315c89149fcb5f7e387", "addresses": ["369emKMAt3c4r75Vc1FfQfe7dJdZtwqZPb"], "asm": "OP_HASH160 30ea1246d90da5c89e22d00315c89149fcb5f7e3 OP_EQUAL", "type": "scripthash"}, "value": 0.01343533, "n": 0}], "hex": "01000000019d5b8cc900c59faf138c5ee0a670dd0057b61a31cca3af06d3b633a3a152d32c010000006a47304402207e560527b9dc05e76c2ccf3f0f1117f1488b373ae38a93da04b3f3e69e6a4ba702203927f5ff23f7c101e227921cf62450ec1295d167d78f65412636a5e6fdb33284012103ae69fa78e2e693029337292acd9ff44090012cbdc17f61766c4789c9268c4fb1ffffffff012d8014000000000017a91430ea1246d90da5c89e22d00315c89149fcb5f7e38700000000", "vin": [{"sequence": 4294967295, "scriptSig": {"hex": "47304402207e560527b9dc05e76c2ccf3f0f1117f1488b373ae38a93da04b3f3e69e6a4ba702203927f5ff23f7c101e227921cf62450ec1295d167d78f65412636a5e6fdb33284012103ae69fa78e2e693029337292acd9ff44090012cbdc17f61766c4789c9268c4fb1", "asm": "304402207e560527b9dc05e76c2ccf3f0f1117f1488b373ae38a93da04b3f3e69e6a4ba702203927f5ff23f7c101e227921cf62450ec1295d167d78f65412636a5e6fdb33284[ALL] 03ae69fa78e2e693029337292acd9ff44090012cbdc17f61766c4789c9268c4fb1"}, "vout": 1, "txid": "2cd352a1a333b6d306afa3cc311ab65700dd70a6e05e8c13af9fc500c98c5b9d"}], "txid": "64bfa69680b5ff3d8bf3e88f09561c29df2e485419488bb99a76e8c5753dc6ff", "blocktime": 1537873282, "version": 1, "confirmations": 11480, "time": 1537873282, "locktime": 0, "vsize": 189, "size": 189}