{"hash": "64c8b24253286a70b1258301e169fcebc27d1bc687b7350ebf94cf4f0e9a0e49", "blockhash": "0000000000000000001f76057863aec43deb6fa401d9628bb513d65a8098bfab", "vout": [{"scriptPubKey": {"reqSigs": 1, "hex": "76a9141f42f2c9ffc308dee87186bae44d81bbb08bf27588ac", "addresses": ["13rJ9bxgiQbFPqkZXZbpzJNYTtNbBV2Uz1"], "asm": "OP_DUP OP_HASH160 1f42f2c9ffc308dee87186bae44d81bbb08bf275 OP_EQUALVERIFY OP_CHECKSIG", "type": "pubkeyhash"}, "value": 0.02296599, "n": 0}, {"scriptPubKey": {"reqSigs": 1, "hex": "76a914480256978d02ec4a93ed0e858182271b1a19f14c88ac", "addresses": ["17ZkTH2J8uZb1vQLJEeBqZqmLmksJ79WJk"], "asm": "OP_DUP OP_HASH160 480256978d02ec4a93ed0e858182271b1a19f14c OP_EQUALVERIFY OP_CHECKSIG", "type": "pubkeyhash"}, "value": 0.26581896, "n": 1}], "hex": "0200000001c416bf50d0ef1c9c10605fc831f929112b5a327d926b519482172113e5bbfa2e000000006b483045022100c8dd59db024b473027b2d3cbc0f5d881e7d44142d7a6ff24e51b35cb6f6c0f89022013ab92507d32b85c36bc3861d3d8d56e0c3dd123de01c978c7af36cfd76497710121035c7c7a62d81811a6cb89d26483e4ad5c7f64fd3a612d18d0042179d7e5ea0806feffffff02170b2300000000001976a9141f42f2c9ffc308dee87186bae44d81bbb08bf27588ac889b9501000000001976a914480256978d02ec4a93ed0e858182271b1a19f14c88ac13490800", "vin": [{"sequence": 4294967294, "scriptSig": {"hex": "483045022100c8dd59db024b473027b2d3cbc0f5d881e7d44142d7a6ff24e51b35cb6f6c0f89022013ab92507d32b85c36bc3861d3d8d56e0c3dd123de01c978c7af36cfd76497710121035c7c7a62d81811a6cb89d26483e4ad5c7f64fd3a612d18d0042179d7e5ea0806", "asm": "3045022100c8dd59db024b473027b2d3cbc0f5d881e7d44142d7a6ff24e51b35cb6f6c0f89022013ab92507d32b85c36bc3861d3d8d56e0c3dd123de01c978c7af36cfd7649771[ALL] 035c7c7a62d81811a6cb89d26483e4ad5c7f64fd3a612d18d0042179d7e5ea0806"}, "vout": 0, "txid": "2efabbe51321178294516b927d325a2b1129f931c85f60109c1cefd050bf16c4"}], "txid": "64c8b24253286a70b1258301e169fcebc27d1bc687b7350ebf94cf4f0e9a0e49", "blocktime": 1537873891, "version": 2, "confirmations": 11478, "time": 1537873891, "locktime": 542995, "vsize": 226, "size": 226}