{"hash": "64db010cdd191d6cd55ee2bdb4ad0af028bca586b8a1b3ecdb29d1df1263a945", "blockhash": "0000000000000000001e0dab787dd257d1dbfcb92a98c2207d5e1078be1f4165", "vout": [{"scriptPubKey": {"reqSigs": 1, "hex": "76a9147cf14aafb86f39c714cbb4c941c4ef5ead43cb0288ac", "addresses": ["1CPdr2p7AUXVBjGxYydcLzwwj32GdMAD5n"], "asm": "OP_DUP OP_HASH160 7cf14aafb86f39c714cbb4c941c4ef5ead43cb02 OP_EQUALVERIFY OP_CHECKSIG", "type": "pubkeyhash"}, "value": 0.00017169, "n": 0}, {"scriptPubKey": {"type": "nulldata", "hex": "6a4c50000077b60001b22ed29afdbc8dce19afa319e5bf9ae76da98a211aaf6c953dd567cf27e7835a26a8631298ef5936eaec5549141e5baa11ba061236ab9608277d4bbf23acfcfaac8058b692fe6808c31d", "asm": "OP_RETURN 000077b60001b22ed29afdbc8dce19afa319e5bf9ae76da98a211aaf6c953dd567cf27e7835a26a8631298ef5936eaec5549141e5baa11ba061236ab9608277d4bbf23acfcfaac8058b692fe6808c31d"}, "value": 0.0, "n": 1}], "hex": "01000000017b7da2e749a0c686b3f279b19e81affee8f0f07006d99daebc95f6eab59f1ceb010000006b48304502210096f7eb5d3db394d17e53d0d3d23e33dd6006214d1459032ce2e0c225054b501c022006af2a5450046fecc7eb8dbb5e808d005c112a16dea863cf86abe121e29dce1e0121032b8d03342ff9d7b05fd9ef2056ed0554910b7d108fc1fb381110aee3299eff45ffffffff0211430000000000001976a9147cf14aafb86f39c714cbb4c941c4ef5ead43cb0288ac0000000000000000536a4c50000077b60001b22ed29afdbc8dce19afa319e5bf9ae76da98a211aaf6c953dd567cf27e7835a26a8631298ef5936eaec5549141e5baa11ba061236ab9608277d4bbf23acfcfaac8058b692fe6808c31d00000000", "vin": [{"sequence": 4294967295, "scriptSig": {"hex": "48304502210096f7eb5d3db394d17e53d0d3d23e33dd6006214d1459032ce2e0c225054b501c022006af2a5450046fecc7eb8dbb5e808d005c112a16dea863cf86abe121e29dce1e0121032b8d03342ff9d7b05fd9ef2056ed0554910b7d108fc1fb381110aee3299eff45", "asm": "304502210096f7eb5d3db394d17e53d0d3d23e33dd6006214d1459032ce2e0c225054b501c022006af2a5450046fecc7eb8dbb5e808d005c112a16dea863cf86abe121e29dce1e[ALL] 032b8d03342ff9d7b05fd9ef2056ed0554910b7d108fc1fb381110aee3299eff45"}, "vout": 1, "txid": "eb1c9fb5eaf695bcae9dd90670f0f0e8feaf819eb179f2b386c6a049e7a27d7b"}], "txid": "64db010cdd191d6cd55ee2bdb4ad0af028bca586b8a1b3ecdb29d1df1263a945", "blocktime": 1537872475, "version": 1, "confirmations": 11486, "time": 1537872475, "locktime": 0, "vsize": 284, "size": 284}