{"hash": "64e25492b93b14567faf09d86009d08c6eded5f3d47b723c958a448524a50409", "blockhash": "0000000000000000000e13cef7c366c0283d82e591d1acd082e914b08063cdf1", "vout": [{"scriptPubKey": {"reqSigs": 1, "hex": "76a914736b400e26bf4e1e12759dcab2b77d50cc00581988ac", "addresses": ["1BXHBwJBRWBPdk8qSEZ3yxvTxfWqvpNLCe"], "asm": "OP_DUP OP_HASH160 736b400e26bf4e1e12759dcab2b77d50cc005819 OP_EQUALVERIFY OP_CHECKSIG", "type": "pubkeyhash"}, "value": 0.0158641, "n": 0}, {"scriptPubKey": {"reqSigs": 1, "hex": "76a9142b1c0d5f9c9c2732d527487a83ff2edaae80f81888ac", "addresses": ["14vwfMStt51tiAVX7NZdYZJ8tBskrH7y1q"], "asm": "OP_DUP OP_HASH160 2b1c0d5f9c9c2732d527487a83ff2edaae80f818 OP_EQUALVERIFY OP_CHECKSIG", "type": "pubkeyhash"}, "value": 0.0203314, "n": 1}], "hex": "010000000103a6993a740e2cc5df1d637f0440a788af3d629c1e67bb55cf191cea8dff153f000000006a47304402207175ce187337d2340c2ca311f97ec34f87e607618e1d4e0f2952082bb852fc5a02202ab31b5e866331a8313ffb77077b6bbbf386d33bdb4b92d85907e8978ba969dc01210345fb5d714db8a20a1bbb6bf70ee865b0885fd170f89229247623584aa1c22900ffffffff02ea341800000000001976a914736b400e26bf4e1e12759dcab2b77d50cc00581988acf4051f00000000001976a9142b1c0d5f9c9c2732d527487a83ff2edaae80f81888ac00000000", "vin": [{"sequence": 4294967295, "scriptSig": {"hex": "47304402207175ce187337d2340c2ca311f97ec34f87e607618e1d4e0f2952082bb852fc5a02202ab31b5e866331a8313ffb77077b6bbbf386d33bdb4b92d85907e8978ba969dc01210345fb5d714db8a20a1bbb6bf70ee865b0885fd170f89229247623584aa1c22900", "asm": "304402207175ce187337d2340c2ca311f97ec34f87e607618e1d4e0f2952082bb852fc5a02202ab31b5e866331a8313ffb77077b6bbbf386d33bdb4b92d85907e8978ba969dc[ALL] 0345fb5d714db8a20a1bbb6bf70ee865b0885fd170f89229247623584aa1c22900"}, "vout": 0, "txid": "3f15ff8dea1c19cf55bb671e9c623daf88a740047f631ddfc52c0e743a99a603"}], "txid": "64e25492b93b14567faf09d86009d08c6eded5f3d47b723c958a448524a50409", "blocktime": 1537871767, "version": 1, "confirmations": 11495, "time": 1537871767, "locktime": 0, "vsize": 225, "size": 225}