{"hash": "64ebbfcfb2cc6421a26babc335edca547f86e91d50042692f4212201aac16fcd", "blockhash": "000000000000000000022b45ed06c6f4ccd3cf7fb5ba4856ebd2e58215665228", "vout": [{"scriptPubKey": {"reqSigs": 1, "hex": "a914504a42f1b86a306c3117a2b0c008d5c0a958a08687", "addresses": ["391YwfoCsoxbkXJW87ReWZgkRhGfMqkEbX"], "asm": "OP_HASH160 504a42f1b86a306c3117a2b0c008d5c0a958a086 OP_EQUAL", "type": "scripthash"}, "value": 0.00116418, "n": 0}], "hex": "0100000001a57abe0396924493310e710b36dd9521eb80fc1461bcf11e582571bf932e8d1f000000006a47304402201e8b9226d9ec49399b8ad547b7cc9fcd22559bcc25141cb9ded001211f03a00602200a419eb46de977d0546131fb775f3574e1294016f0166b494eaf90368eee14450121035542d5d9cb7345e163a627555dd4d949b8d9a82c5aa3f8833dd1d12529470d98ffffffff01c2c601000000000017a914504a42f1b86a306c3117a2b0c008d5c0a958a0868700000000", "vin": [{"sequence": 4294967295, "scriptSig": {"hex": "47304402201e8b9226d9ec49399b8ad547b7cc9fcd22559bcc25141cb9ded001211f03a00602200a419eb46de977d0546131fb775f3574e1294016f0166b494eaf90368eee14450121035542d5d9cb7345e163a627555dd4d949b8d9a82c5aa3f8833dd1d12529470d98", "asm": "304402201e8b9226d9ec49399b8ad547b7cc9fcd22559bcc25141cb9ded001211f03a00602200a419eb46de977d0546131fb775f3574e1294016f0166b494eaf90368eee1445[ALL] 035542d5d9cb7345e163a627555dd4d949b8d9a82c5aa3f8833dd1d12529470d98"}, "vout": 0, "txid": "1f8d2e93bf7125581ef1bc6114fc80eb2195dd360b710e319344929603be7aa5"}], "txid": "64ebbfcfb2cc6421a26babc335edca547f86e91d50042692f4212201aac16fcd", "blocktime": 1537869901, "version": 1, "confirmations": 11522, "time": 1537869901, "locktime": 0, "vsize": 189, "size": 189}