{"hash": "64ebd0cf70f841d5e94c99ba9249d20b019b63080a9f133e0bcea09e4105672e", "blockhash": "0000000000000000001f0ddff1eddb255c1121bcd4da4f1bc9a0da00cae72433", "vout": [{"scriptPubKey": {"reqSigs": 1, "hex": "76a914ed0419ee06bce1904ced7c5fe2efb4f89cd06bd888ac", "addresses": ["1NcE4Rj7epNf4cYimSEJ5p1T9YDWrd2vHw"], "asm": "OP_DUP OP_HASH160 ed0419ee06bce1904ced7c5fe2efb4f89cd06bd8 OP_EQUALVERIFY OP_CHECKSIG", "type": "pubkeyhash"}, "value": 0.0147834, "n": 0}, {"scriptPubKey": {"type": "nulldata", "hex": "6a4c50000077a900013f28305dd15bb3407afe8d20af6c953dd567cf27e7e3ef3236678a6250975e4d5b8dfd28209081d9196931d189995baa10040612fa8b53ccfddcbc9a9526289ac0f6612cd74e33776ee4", "asm": "OP_RETURN 000077a900013f28305dd15bb3407afe8d20af6c953dd567cf27e7e3ef3236678a6250975e4d5b8dfd28209081d9196931d189995baa10040612fa8b53ccfddcbc9a9526289ac0f6612cd74e33776ee4"}, "value": 0.0, "n": 1}], "hex": "01000000010a5c3860c023d3abeb10a2581d73c1277775c97c7a1773815919b125fb539b28000000006a4730440220530d7e27a3d4c9ee5a3ec653e4b3e267650f8e86d3948fb3926082ba8324b20302206ace1b21fffe61e734bba199ba03e0e53ea4ac8f5ab895553f89fdd04e407e2f01210305eac70a2007ea7aceec16d6408e4220cff1bc976b5faf517741de59cbaa4925ffffffff02c48e1600000000001976a914ed0419ee06bce1904ced7c5fe2efb4f89cd06bd888ac0000000000000000536a4c50000077a900013f28305dd15bb3407afe8d20af6c953dd567cf27e7e3ef3236678a6250975e4d5b8dfd28209081d9196931d189995baa10040612fa8b53ccfddcbc9a9526289ac0f6612cd74e33776ee400000000", "vin": [{"sequence": 4294967295, "scriptSig": {"hex": "4730440220530d7e27a3d4c9ee5a3ec653e4b3e267650f8e86d3948fb3926082ba8324b20302206ace1b21fffe61e734bba199ba03e0e53ea4ac8f5ab895553f89fdd04e407e2f01210305eac70a2007ea7aceec16d6408e4220cff1bc976b5faf517741de59cbaa4925", "asm": "30440220530d7e27a3d4c9ee5a3ec653e4b3e267650f8e86d3948fb3926082ba8324b20302206ace1b21fffe61e734bba199ba03e0e53ea4ac8f5ab895553f89fdd04e407e2f[ALL] 0305eac70a2007ea7aceec16d6408e4220cff1bc976b5faf517741de59cbaa4925"}, "vout": 0, "txid": "289b53fb25b119598173177a7cc9757727c1731d58a210ebabd323c060385c0a"}], "txid": "64ebd0cf70f841d5e94c99ba9249d20b019b63080a9f133e0bcea09e4105672e", "blocktime": 1537872018, "version": 1, "confirmations": 11489, "time": 1537872018, "locktime": 0, "vsize": 283, "size": 283}