{"hash": "64ed478284449d09f79bca8212cfc68585d361203ad70fec01d9e5fb2e434629", "blockhash": "00000000000000000004ffacab907a6b429b9a5745fa0b75af4234bf69dd7176", "vout": [{"scriptPubKey": {"reqSigs": 1, "hex": "a9143e6f15908582f42917ec31e39bf8722fc9d5db3f87", "addresses": ["37P8thrtDXb6Di5E7f4FL3bpzum3fhUvT7"], "asm": "OP_HASH160 3e6f15908582f42917ec31e39bf8722fc9d5db3f OP_EQUAL", "type": "scripthash"}, "value": 0.0002, "n": 0}, {"scriptPubKey": {"reqSigs": 1, "hex": "76a914196c583e1cc9928b4358140b161e4e5ed876c9e288ac", "addresses": ["13KRgic7X4ggMWXZ8nKwEv4swJiaJwyYhZ"], "asm": "OP_DUP OP_HASH160 196c583e1cc9928b4358140b161e4e5ed876c9e2 OP_EQUALVERIFY OP_CHECKSIG", "type": "pubkeyhash"}, "value": 0.06468715, "n": 1}], "hex": "01000000014f2b13f4f7eaab1c157cace41a0127cb353f69d0efbf213851b3f84070dc51af010000006b483045022100c338a774b059c056c6b2eb76a3db0a150e40d71286ec884bfd64ab52cf057a4f022069d5a2460a615f43200c130ec9dbb8c502638bb567208b130d2363de1f653db0012102831ed9ee98be53dc9ab7d2ac92ec18e7730fe508e3675a8ee1698c033cefaf56ffffffff02204e00000000000017a9143e6f15908582f42917ec31e39bf8722fc9d5db3f876bb46200000000001976a914196c583e1cc9928b4358140b161e4e5ed876c9e288ac00000000", "vin": [{"sequence": 4294967295, "scriptSig": {"hex": "483045022100c338a774b059c056c6b2eb76a3db0a150e40d71286ec884bfd64ab52cf057a4f022069d5a2460a615f43200c130ec9dbb8c502638bb567208b130d2363de1f653db0012102831ed9ee98be53dc9ab7d2ac92ec18e7730fe508e3675a8ee1698c033cefaf56", "asm": "3045022100c338a774b059c056c6b2eb76a3db0a150e40d71286ec884bfd64ab52cf057a4f022069d5a2460a615f43200c130ec9dbb8c502638bb567208b130d2363de1f653db0[ALL] 02831ed9ee98be53dc9ab7d2ac92ec18e7730fe508e3675a8ee1698c033cefaf56"}, "vout": 1, "txid": "af51dc7040f8b3513821bfefd0693f35cb27011ae4ac7c151cabeaf7f4132b4f"}], "txid": "64ed478284449d09f79bca8212cfc68585d361203ad70fec01d9e5fb2e434629", "blocktime": 1537875543, "version": 1, "confirmations": 11464, "time": 1537875543, "locktime": 0, "vsize": 224, "size": 224}