{"hash": "64edffd02ce0db2b70507f82cfc400dd8cef6360d50980835066c7cf71add525", "blockhash": "00000000000000000024a2167bbff67b0be802c0b01cdd79e6331c2be6459f87", "vout": [{"scriptPubKey": {"reqSigs": 1, "hex": "76a914a4b67e253e1e2f1c68a4a88d58bf01d731d464b988ac", "addresses": ["1G1vSHC4zBQt6Dc2gDJW2hzahcrH5uk8kU"], "asm": "OP_DUP OP_HASH160 a4b67e253e1e2f1c68a4a88d58bf01d731d464b9 OP_EQUALVERIFY OP_CHECKSIG", "type": "pubkeyhash"}, "value": 0.00348172, "n": 0}, {"scriptPubKey": {"reqSigs": 1, "hex": "76a914ff37e5e4fa8d89d10d48b68d3d923fa4ccd8d2fc88ac", "addresses": ["1QGUGnDhHyFZg7mgHisraKhm4QtmGVk3Uk"], "asm": "OP_DUP OP_HASH160 ff37e5e4fa8d89d10d48b68d3d923fa4ccd8d2fc OP_EQUALVERIFY OP_CHECKSIG", "type": "pubkeyhash"}, "value": 0.11163394, "n": 1}], "hex": "01000000039f6b098ef34fc838e7309746538cda887586bd9c75d92b4951ec1c4064d56c25000000006b483045022100a7b45b6b951a0470fb77e9975f5d2693ba1fbeadbcbf39346ef42bb341baf5de02207ed5dbdfe04eacd4096de0df1ec6b12a505cde61eec2436e6bf73fe55cd0629e01210215834f2b01c4833cb1ba2545df7806d9a4bb1d3bf31caf467c1f57f08d257dedfdffffff3634622cb9ee4cc49d100cb275d0e8123164ebf97cf905198c8aabc44ebde2bb010000006b483045022100cdd907eac882cc47daabeb71be7e648651965a2870dbcf464ec4206d6762df40022031511f993b93c38af800c04fc5522563f3ce4458e71a71fbd977fba74175960d01210217da84487dd3f38470bd5502535be82b1ff7fbeaf51e71b8ff25ce08ec2b839ffdffffff1f728c3d62b3727e967502410d93baa98cfb118226f5092dffb8df6548c2caef000000006a47304402205555405b7174252af145c561a33df8105ade412a0c6b8454a6ac4ac8a4fac9b6022043ae90e488a13d1730453bbd5d2f1eaae3f947582e9402a8299cbd89e11f3b14012103c9e9d9bfed6d4e01618335170c1a52d29e1336f7ed1d2b862cd0e5ef135ee586fdffffff020c500500000000001976a914a4b67e253e1e2f1c68a4a88d58bf01d731d464b988ac0257aa00000000001976a914ff37e5e4fa8d89d10d48b68d3d923fa4ccd8d2fc88ac0d490800", "vin": [{"sequence": 4294967293, "scriptSig": {"hex": "483045022100a7b45b6b951a0470fb77e9975f5d2693ba1fbeadbcbf39346ef42bb341baf5de02207ed5dbdfe04eacd4096de0df1ec6b12a505cde61eec2436e6bf73fe55cd0629e01210215834f2b01c4833cb1ba2545df7806d9a4bb1d3bf31caf467c1f57f08d257ded", "asm": "3045022100a7b45b6b951a0470fb77e9975f5d2693ba1fbeadbcbf39346ef42bb341baf5de02207ed5dbdfe04eacd4096de0df1ec6b12a505cde61eec2436e6bf73fe55cd0629e[ALL] 0215834f2b01c4833cb1ba2545df7806d9a4bb1d3bf31caf467c1f57f08d257ded"}, "vout": 0, "txid": "256cd564401cec51492bd9759cbd867588da8c53469730e738c84ff38e096b9f"}, {"sequence": 4294967293, "scriptSig": {"hex": "483045022100cdd907eac882cc47daabeb71be7e648651965a2870dbcf464ec4206d6762df40022031511f993b93c38af800c04fc5522563f3ce4458e71a71fbd977fba74175960d01210217da84487dd3f38470bd5502535be82b1ff7fbeaf51e71b8ff25ce08ec2b839f", "asm": "3045022100cdd907eac882cc47daabeb71be7e648651965a2870dbcf464ec4206d6762df40022031511f993b93c38af800c04fc5522563f3ce4458e71a71fbd977fba74175960d[ALL] 0217da84487dd3f38470bd5502535be82b1ff7fbeaf51e71b8ff25ce08ec2b839f"}, "vout": 1, "txid": "bbe2bd4ec4ab8a8c1905f97cf9eb643112e8d075b20c109dc44ceeb92c623436"}, {"sequence": 4294967293, "scriptSig": {"hex": "47304402205555405b7174252af145c561a33df8105ade412a0c6b8454a6ac4ac8a4fac9b6022043ae90e488a13d1730453bbd5d2f1eaae3f947582e9402a8299cbd89e11f3b14012103c9e9d9bfed6d4e01618335170c1a52d29e1336f7ed1d2b862cd0e5ef135ee586", "asm": "304402205555405b7174252af145c561a33df8105ade412a0c6b8454a6ac4ac8a4fac9b6022043ae90e488a13d1730453bbd5d2f1eaae3f947582e9402a8299cbd89e11f3b14[ALL] 03c9e9d9bfed6d4e01618335170c1a52d29e1336f7ed1d2b862cd0e5ef135ee586"}, "vout": 0, "txid": "efcac24865dfb8ff2d09f5268211fb8ca9ba930d410275967e72b3623d8c721f"}], "txid": "64edffd02ce0db2b70507f82cfc400dd8cef6360d50980835066c7cf71add525", "blocktime": 1537870564, "version": 1, "confirmations": 11515, "time": 1537870564, "locktime": 542989, "vsize": 521, "size": 521}