{"hash": "d4a7f79fd8c97c2c75a940129b83148ab5033b5d938b667987e13454620332a4", "blockhash": "00000000000000000017f5eb5941039fbcee6240d03bc1f2f8e35350df66a1d8", "vout": [{"scriptPubKey": {"reqSigs": 1, "hex": "76a914c28d0785e5cdbfb11068688028ad32ec82389ec088ac", "addresses": ["1Jjh37Jd9HP3vrVqcAk4gxjJwRbEGvzSHE"], "asm": "OP_DUP OP_HASH160 c28d0785e5cdbfb11068688028ad32ec82389ec0 OP_EQUALVERIFY OP_CHECKSIG", "type": "pubkeyhash"}, "value": 0.00305876, "n": 0}, {"scriptPubKey": {"reqSigs": 1, "hex": "a914c9cb62ac3a7877b0c32165c1fe5e11db91dcd08887", "addresses": ["3L61Pa17S1iZ73ZS5Ecq19jXhsAYx2bDfG"], "asm": "OP_HASH160 c9cb62ac3a7877b0c32165c1fe5e11db91dcd088 OP_EQUAL", "type": "scripthash"}, "value": 0.01161954, "n": 1}], "hex": "02000000000101acda1560274f5bd9ba3876f20ad76a9b79750a9398993007752b46fb8194fc940000000017160014308739fa0e4ae8202099d291d82555dd4eeed969feffffff02d4aa0400000000001976a914c28d0785e5cdbfb11068688028ad32ec82389ec088ace2ba11000000000017a914c9cb62ac3a7877b0c32165c1fe5e11db91dcd088870247304402205d8f7f5c0f6e74b8c1844ce4e8378ffb5ab416fbab8d70796ca2842af3d04f1602201c57a317a6ed064f84046b0c4e01c43ffa78ac3b9dc564ee067181720139112801210229b5a72dec8d9e1edc4e57c01ffba5b4b1c8cff569d670c3603bea4c67ddce7b03490800", "vin": [{"txinwitness": ["304402205d8f7f5c0f6e74b8c1844ce4e8378ffb5ab416fbab8d70796ca2842af3d04f1602201c57a317a6ed064f84046b0c4e01c43ffa78ac3b9dc564ee067181720139112801", "0229b5a72dec8d9e1edc4e57c01ffba5b4b1c8cff569d670c3603bea4c67ddce7b"], "sequence": 4294967294, "scriptSig": {"hex": "160014308739fa0e4ae8202099d291d82555dd4eeed969", "asm": "0014308739fa0e4ae8202099d291d82555dd4eeed969"}, "vout": 0, "txid": "94fc9481fb462b7507309998930a75799b6ad70af27638bad95b4f276015daac"}], "txid": "64eecb6b0dd9ecb339626c0b988e106c8e9bb8b37c261a9cc12c0404695f269e", "blocktime": 1537874412, "version": 2, "confirmations": 11468, "time": 1537874412, "locktime": 542979, "vsize": 168, "size": 249}