{"hash": "64ef5a68ed47a9354c873290c751ea041fc5dbf72e87848fedf4195df9ccceaa", "blockhash": "0000000000000000001cda96e906b7601b7a6fb1a3b62bca570a9e5d8f4b3de1", "vout": [{"scriptPubKey": {"reqSigs": 1, "hex": "a9144ecc6c511a0bd78c378e0d9acc84314bd2de72f987", "addresses": ["38sfX5D8nkfAkFJhCBJZ7TcjaUoHTrKmtK"], "asm": "OP_HASH160 4ecc6c511a0bd78c378e0d9acc84314bd2de72f9 OP_EQUAL", "type": "scripthash"}, "value": 0.12457251, "n": 0}, {"scriptPubKey": {"reqSigs": 1, "hex": "76a914cf62634fc609390c0733e3fc08dbe3e4d153fe0888ac", "addresses": ["1KuYjpi1UeYpH9UinWXr2SkZunrYdfHTtU"], "asm": "OP_DUP OP_HASH160 cf62634fc609390c0733e3fc08dbe3e4d153fe08 OP_EQUALVERIFY OP_CHECKSIG", "type": "pubkeyhash"}, "value": 0.000703, "n": 1}], "hex": "0100000005dbcc3eebbb76c4ad4b0dd5a92495ea36788b7ec0176594e68b24332e26ce0a90640000006a47304402200f98944c23a7f81c535ee6888939e1973f0d95deab67642b01850f18cb4501c40220220ee0f33ca0f23cf0f8a3a13231c2415867cae72424dfdf09f17ada4c7061f7012103c74d023f3cb5d626b6f635ccd2766ea3abed9ba234db6cd73a2faca61477a725ffffffff7abb463bb1178eff62f1882298ac1ab2ef3cad2f82c31574e140d9c869085b12c70000006a473044022052fae5ba30437aad16ade206e39d2d85a3088727a69c90fc74cbe35bc946f623022016cc2311c441c03ddcc763aafbdae4050e6d730d8b8175bab8c448ffbe4d636a012103c74d023f3cb5d626b6f635ccd2766ea3abed9ba234db6cd73a2faca61477a725ffffffff2c74b574e7632bc7cb93bfc2aea67173d1aa59a1563216f7a3eae2ae851b4dab110100006a47304402202e7b907a230cb018ecab0a39404330c112fe42df8572644ce8015b5789bf35fd0220341c1041dd1497bcbd85bcd3863bceda35526e11285bfc5e206cbf1d343ba14f012103c74d023f3cb5d626b6f635ccd2766ea3abed9ba234db6cd73a2faca61477a725ffffffff8f2999be05268abbad4589240ecb5d1867c5411e36bb16f2a60d2147821bd5e2350100006a473044022032b939861700165b7c15f43fb0c9ea31db305fc83aa6fbae0f315f6b6de1cbe602207acaa5e17ca4618c7789d0321ba82eaab58654c30e18560acec272c86d0bba56012103c74d023f3cb5d626b6f635ccd2766ea3abed9ba234db6cd73a2faca61477a725ffffffffeb67730187bae50fb72c34a5fbc0172bf13fc4130922b4fb593f20118b89ada8fd0000006a4730440220480295ffda52e700a48970fb0386adddb102c9806a3fc97fc46037ce4d31a88f02203d9893c9fd1faf2eb3a37464095571aa88a62ec769b318c9bca8525e57d8f17c0121026b62ae7acbec5bcbd2d5044e560cb51588f6166f9810f7f90cec0641647362f7ffffffff022315be000000000017a9144ecc6c511a0bd78c378e0d9acc84314bd2de72f9879c120100000000001976a914cf62634fc609390c0733e3fc08dbe3e4d153fe0888ac00000000", "vin": [{"sequence": 4294967295, "scriptSig": {"hex": "47304402200f98944c23a7f81c535ee6888939e1973f0d95deab67642b01850f18cb4501c40220220ee0f33ca0f23cf0f8a3a13231c2415867cae72424dfdf09f17ada4c7061f7012103c74d023f3cb5d626b6f635ccd2766ea3abed9ba234db6cd73a2faca61477a725", "asm": "304402200f98944c23a7f81c535ee6888939e1973f0d95deab67642b01850f18cb4501c40220220ee0f33ca0f23cf0f8a3a13231c2415867cae72424dfdf09f17ada4c7061f7[ALL] 03c74d023f3cb5d626b6f635ccd2766ea3abed9ba234db6cd73a2faca61477a725"}, "vout": 100, "txid": "900ace262e33248be6946517c07e8b7836ea9524a9d50d4badc476bbeb3eccdb"}, {"sequence": 4294967295, "scriptSig": {"hex": "473044022052fae5ba30437aad16ade206e39d2d85a3088727a69c90fc74cbe35bc946f623022016cc2311c441c03ddcc763aafbdae4050e6d730d8b8175bab8c448ffbe4d636a012103c74d023f3cb5d626b6f635ccd2766ea3abed9ba234db6cd73a2faca61477a725", "asm": "3044022052fae5ba30437aad16ade206e39d2d85a3088727a69c90fc74cbe35bc946f623022016cc2311c441c03ddcc763aafbdae4050e6d730d8b8175bab8c448ffbe4d636a[ALL] 03c74d023f3cb5d626b6f635ccd2766ea3abed9ba234db6cd73a2faca61477a725"}, "vout": 199, "txid": "125b0869c8d940e17415c3822fad3cefb21aac982288f162ff8e17b13b46bb7a"}, {"sequence": 4294967295, "scriptSig": {"hex": "47304402202e7b907a230cb018ecab0a39404330c112fe42df8572644ce8015b5789bf35fd0220341c1041dd1497bcbd85bcd3863bceda35526e11285bfc5e206cbf1d343ba14f012103c74d023f3cb5d626b6f635ccd2766ea3abed9ba234db6cd73a2faca61477a725", "asm": "304402202e7b907a230cb018ecab0a39404330c112fe42df8572644ce8015b5789bf35fd0220341c1041dd1497bcbd85bcd3863bceda35526e11285bfc5e206cbf1d343ba14f[ALL] 03c74d023f3cb5d626b6f635ccd2766ea3abed9ba234db6cd73a2faca61477a725"}, "vout": 273, "txid": "ab4d1b85aee2eaa3f7163256a159aad17371a6aec2bf93cbc72b63e774b5742c"}, {"sequence": 4294967295, "scriptSig": {"hex": "473044022032b939861700165b7c15f43fb0c9ea31db305fc83aa6fbae0f315f6b6de1cbe602207acaa5e17ca4618c7789d0321ba82eaab58654c30e18560acec272c86d0bba56012103c74d023f3cb5d626b6f635ccd2766ea3abed9ba234db6cd73a2faca61477a725", "asm": "3044022032b939861700165b7c15f43fb0c9ea31db305fc83aa6fbae0f315f6b6de1cbe602207acaa5e17ca4618c7789d0321ba82eaab58654c30e18560acec272c86d0bba56[ALL] 03c74d023f3cb5d626b6f635ccd2766ea3abed9ba234db6cd73a2faca61477a725"}, "vout": 309, "txid": "e2d51b8247210da6f216bb361e41c567185dcb0e248945adbb8a2605be99298f"}, {"sequence": 4294967295, "scriptSig": {"hex": "4730440220480295ffda52e700a48970fb0386adddb102c9806a3fc97fc46037ce4d31a88f02203d9893c9fd1faf2eb3a37464095571aa88a62ec769b318c9bca8525e57d8f17c0121026b62ae7acbec5bcbd2d5044e560cb51588f6166f9810f7f90cec0641647362f7", "asm": "30440220480295ffda52e700a48970fb0386adddb102c9806a3fc97fc46037ce4d31a88f02203d9893c9fd1faf2eb3a37464095571aa88a62ec769b318c9bca8525e57d8f17c[ALL] 026b62ae7acbec5bcbd2d5044e560cb51588f6166f9810f7f90cec0641647362f7"}, "vout": 253, "txid": "a8ad898b11203f59fbb4220913c43ff12b17c0fba5342cb70fe5ba87017367eb"}], "txid": "64ef5a68ed47a9354c873290c751ea041fc5dbf72e87848fedf4195df9ccceaa", "blocktime": 1537873282, "version": 1, "confirmations": 11480, "time": 1537873282, "locktime": 0, "vsize": 811, "size": 811}