{"hash": "64f595dd49cf6df8c6ebb1bb77049369ade4a3cdcaf6aaf33146a19de1113b66", "blockhash": "0000000000000000000baef3f32e3676a92c3b2e5da21b426e4f302fc371ce76", "vout": [{"scriptPubKey": {"reqSigs": 1, "hex": "76a914a520c86a08366941cd90d22e11ac1c7eefa2db3788ac", "addresses": ["1G47mSr3oANXMafVrR8UC4pzV7FEAzo3r9"], "asm": "OP_DUP OP_HASH160 a520c86a08366941cd90d22e11ac1c7eefa2db37 OP_EQUALVERIFY OP_CHECKSIG", "type": "pubkeyhash"}, "value": 0.40614588, "n": 0}, {"scriptPubKey": {"reqSigs": 1, "hex": "76a9148fcc685ab36f1389576cfa1ff89d76413db12d4d88ac", "addresses": ["1E7LVvYTpKwRtajCeEABaMFmG3T1dCyHY7"], "asm": "OP_DUP OP_HASH160 8fcc685ab36f1389576cfa1ff89d76413db12d4d OP_EQUALVERIFY OP_CHECKSIG", "type": "pubkeyhash"}, "value": 5.46e-06, "n": 1}, {"scriptPubKey": {"type": "nulldata", "hex": "6a146f6d6e69000000000000001f0000000218711a00", "asm": "OP_RETURN 6f6d6e69000000000000001f0000000218711a00"}, "value": 0.0, "n": 2}], "hex": "01000000019d35a49e87a131a521abe1aeee405a7d27e1d9cbfb56c9ce2550b039762ccb36010000006a47304402201c9b204c0e6b179060eeef48cdafeee88cd3c103725ef699794ca1ec302d7c9f022079c1c2d4fdf7af19587c6d14b918256aa1ee40bdbf5f0f733e33dae376e3121a012103f3f44c9e80e2cedc1a2909631a3adea8866ee32187f74d0912387359b0ff36a2ffffffff03bcba6b02000000001976a914a520c86a08366941cd90d22e11ac1c7eefa2db3788ac22020000000000001976a9148fcc685ab36f1389576cfa1ff89d76413db12d4d88ac0000000000000000166a146f6d6e69000000000000001f0000000218711a0000000000", "vin": [{"sequence": 4294967295, "scriptSig": {"hex": "47304402201c9b204c0e6b179060eeef48cdafeee88cd3c103725ef699794ca1ec302d7c9f022079c1c2d4fdf7af19587c6d14b918256aa1ee40bdbf5f0f733e33dae376e3121a012103f3f44c9e80e2cedc1a2909631a3adea8866ee32187f74d0912387359b0ff36a2", "asm": "304402201c9b204c0e6b179060eeef48cdafeee88cd3c103725ef699794ca1ec302d7c9f022079c1c2d4fdf7af19587c6d14b918256aa1ee40bdbf5f0f733e33dae376e3121a[ALL] 03f3f44c9e80e2cedc1a2909631a3adea8866ee32187f74d0912387359b0ff36a2"}, "vout": 1, "txid": "36cb2c7639b05025cec956fbcbd9e1277d5a40eeaee1ab21a531a1879ea4359d"}], "txid": "64f595dd49cf6df8c6ebb1bb77049369ade4a3cdcaf6aaf33146a19de1113b66", "blocktime": 1537876114, "version": 1, "confirmations": 11460, "time": 1537876114, "locktime": 0, "vsize": 256, "size": 256}