{"hash": "fa24bcfdd233b1c615238039295fa63b45683e7ba4ed06c8fd1b166fa3834e4e", "blockhash": "0000000000000000000e13cef7c366c0283d82e591d1acd082e914b08063cdf1", "vout": [{"scriptPubKey": {"reqSigs": 1, "hex": "76a914658bc2e4001cfacc64a3e041943e921b3086737588ac", "addresses": ["1AFvgAG4FN8fhtp3ZtSF8hsmKvPTDiB4RV"], "asm": "OP_DUP OP_HASH160 658bc2e4001cfacc64a3e041943e921b30867375 OP_EQUALVERIFY OP_CHECKSIG", "type": "pubkeyhash"}, "value": 3.281e-05, "n": 0}, {"scriptPubKey": {"reqSigs": 1, "hex": "a914e8db75c900cf08f06518e96d167331f2a4abfb3387", "addresses": ["3NvFbQMAkkqEFj4i1sYPPLkSWzxTFUchjA"], "asm": "OP_HASH160 e8db75c900cf08f06518e96d167331f2a4abfb33 OP_EQUAL", "type": "scripthash"}, "value": 0.02520669, "n": 1}], "hex": "010000000001018131d8fe1829a0906886fd9640957f2ec38ca63cae8f5efcb5fbcf2859eb7b9e0000000023220020941cfaff8837763dc1f69ff82b6d6553fdea17a41cfc29a04403293eedd8ccc7ffffffff02d10c0000000000001976a914658bc2e4001cfacc64a3e041943e921b3086737588ac5d7626000000000017a914e8db75c900cf08f06518e96d167331f2a4abfb33870400483045022100b2fb8c6e1a29126e92aa49b301db139ad6674718294932f599bd0c17f920eaae0220021a54e4804638b3eb6cd857ca6df85f3369b4ef05a92e4c90af803f22f903d001483045022100a3b8573b31d8479059fae93fc18d3504652014e0038d6f360355a5c99033438c022018bd4ebd7a675cb56f9ae2ac3da9f8c654bc4859a1916c629c710629ae6278050147522102531db3a5883f29bab4241dd0cd726936667bcda445d89bdd22244e828b6993342103148c80a5bdfddb05ff5bcffc397c8ca748d8b435ec6a175bc9d7bfc7fc6f853752ae00000000", "vin": [{"txinwitness": ["", "3045022100b2fb8c6e1a29126e92aa49b301db139ad6674718294932f599bd0c17f920eaae0220021a54e4804638b3eb6cd857ca6df85f3369b4ef05a92e4c90af803f22f903d001", "3045022100a3b8573b31d8479059fae93fc18d3504652014e0038d6f360355a5c99033438c022018bd4ebd7a675cb56f9ae2ac3da9f8c654bc4859a1916c629c710629ae62780501", "522102531db3a5883f29bab4241dd0cd726936667bcda445d89bdd22244e828b6993342103148c80a5bdfddb05ff5bcffc397c8ca748d8b435ec6a175bc9d7bfc7fc6f853752ae"], "sequence": 4294967295, "scriptSig": {"hex": "220020941cfaff8837763dc1f69ff82b6d6553fdea17a41cfc29a04403293eedd8ccc7", "asm": "0020941cfaff8837763dc1f69ff82b6d6553fdea17a41cfc29a04403293eedd8ccc7"}, "vout": 0, "txid": "9e7beb5928cffbb5fc5e8fae3ca68cc32e7f954096fd866890a02918fed83181"}], "txid": "64f7b3468c6a415fedf184f2434eb9fecb56eabf95e522c09d84e7444eafa93a", "blocktime": 1537871767, "version": 1, "confirmations": 11495, "time": 1537871767, "locktime": 0, "vsize": 208, "size": 374}