{"hash": "602e90b3016bcfc0a9b22690fc7cae010ce3eacb80bac0f6de35bf67396c894c", "blockhash": "000000000000000000022b45ed06c6f4ccd3cf7fb5ba4856ebd2e58215665228", "vout": [{"scriptPubKey": {"reqSigs": 1, "hex": "00141c0668a64276b53dfe560355ada7bf984c94786b", "addresses": ["bc1qrsrx3fjzw66nmljkqd26mfalnpxfg7rt50vuz3"], "asm": "0 1c0668a64276b53dfe560355ada7bf984c94786b", "type": "witness_v0_keyhash"}, "value": 0.00020018, "n": 0}, {"scriptPubKey": {"reqSigs": 1, "hex": "a91469f374e269bde578428b0576e03f5992278c732a87", "addresses": ["3BMEXM14fbYZGecUtrAHvZNHBV7CMnd8K9"], "asm": "OP_HASH160 69f374e269bde578428b0576e03f5992278c732a OP_EQUAL", "type": "scripthash"}, "value": 0.00978499, "n": 1}], "hex": "01000000000101ffcb9bb0194df844b7e45604a956bdfe22d15996abf042fefa0bd6265ccbb3f805000000171600144232a8eb5bb710c21cc537317af1bba6dc17487effffffff02324e0000000000001600141c0668a64276b53dfe560355ada7bf984c94786b43ee0e000000000017a91469f374e269bde578428b0576e03f5992278c732a8702483045022100d89f0d0f0d039c484d6aea0973b9dbb73ed5163c1c5d67be5f9367623e3eb08602201276b969816126f37d9ee97574d3c86511b2ec52181e89c810c571f741f6e5610121028729a520bd67883db987d96322edca7cbdd189dd92e96e0bad313e6edca7e94700000000", "vin": [{"txinwitness": ["3045022100d89f0d0f0d039c484d6aea0973b9dbb73ed5163c1c5d67be5f9367623e3eb08602201276b969816126f37d9ee97574d3c86511b2ec52181e89c810c571f741f6e56101", "028729a520bd67883db987d96322edca7cbdd189dd92e96e0bad313e6edca7e947"], "sequence": 4294967295, "scriptSig": {"hex": "1600144232a8eb5bb710c21cc537317af1bba6dc17487e", "asm": "00144232a8eb5bb710c21cc537317af1bba6dc17487e"}, "vout": 5, "txid": "f8b3cb5c26d60bfafe42f0ab9659d122febd56a90456e4b744f84d19b09bcbff"}], "txid": "64f787e1bac3dad622436aed34b0947aeda9897786ef9ff53655768103c0218b", "blocktime": 1537869901, "version": 1, "confirmations": 11523, "time": 1537869901, "locktime": 0, "vsize": 165, "size": 247}