{"hash": "64fa1384781a07c9a233f37599c653f02c4288ac2ee44b342905d3e46df8d741", "blockhash": "0000000000000000001e0dab787dd257d1dbfcb92a98c2207d5e1078be1f4165", "vout": [{"scriptPubKey": {"reqSigs": 1, "hex": "76a914c1411681c0c2cea84b126b55dd764e0ad08238a688ac", "addresses": ["1JcqPQqnM7UyAm5SsZTnZ2K9BkVqRuQXnD"], "asm": "OP_DUP OP_HASH160 c1411681c0c2cea84b126b55dd764e0ad08238a6 OP_EQUALVERIFY OP_CHECKSIG", "type": "pubkeyhash"}, "value": 0.01969331, "n": 0}, {"scriptPubKey": {"reqSigs": 1, "hex": "a914267cb80054a0b007f3f32bb92ead401144d9bac587", "addresses": ["35CX1SiyVqZ6yJzPBuqqVhv1GTnMPTt5nw"], "asm": "OP_HASH160 267cb80054a0b007f3f32bb92ead401144d9bac5 OP_EQUAL", "type": "scripthash"}, "value": 0.02342886, "n": 1}], "hex": "0100000001886e24b00fbc32b4b388b8240331236f75f2e6d2835227b2d3e958c108211eff000000006b4830450221008ffc6fae9743326e398928e97e464e95bd3bcde78d6234cb89cf971d6db46ab702207e1d141b89cb391e62113424ee08e43f972bdb0544bb840938ccfa58dfc11de9012103e17931da5253b469f2481ba5153792b3e48d7fecb4e9dcdad512053fe49151e8ffffffff02b30c1e00000000001976a914c1411681c0c2cea84b126b55dd764e0ad08238a688ace6bf23000000000017a914267cb80054a0b007f3f32bb92ead401144d9bac58700000000", "vin": [{"sequence": 4294967295, "scriptSig": {"hex": "4830450221008ffc6fae9743326e398928e97e464e95bd3bcde78d6234cb89cf971d6db46ab702207e1d141b89cb391e62113424ee08e43f972bdb0544bb840938ccfa58dfc11de9012103e17931da5253b469f2481ba5153792b3e48d7fecb4e9dcdad512053fe49151e8", "asm": "30450221008ffc6fae9743326e398928e97e464e95bd3bcde78d6234cb89cf971d6db46ab702207e1d141b89cb391e62113424ee08e43f972bdb0544bb840938ccfa58dfc11de9[ALL] 03e17931da5253b469f2481ba5153792b3e48d7fecb4e9dcdad512053fe49151e8"}, "vout": 0, "txid": "ff1e2108c158e9d3b2275283d2e6f2756f23310324b888b3b432bc0fb0246e88"}], "txid": "64fa1384781a07c9a233f37599c653f02c4288ac2ee44b342905d3e46df8d741", "blocktime": 1537872475, "version": 1, "confirmations": 11487, "time": 1537872475, "locktime": 0, "vsize": 224, "size": 224}