{"hash": "3e221c757552e4466383a2333e7393013a597f90581ecff79f46513e99554b03", "blockhash": "000000000000000000022b45ed06c6f4ccd3cf7fb5ba4856ebd2e58215665228", "vout": [{"scriptPubKey": {"reqSigs": 1, "hex": "a9142da8cac64d36d0721ee21f7930d8097800a4d7c187", "addresses": ["35rSY4CifdSmdugwweZWFzkPsPBRqAHGCC"], "asm": "OP_HASH160 2da8cac64d36d0721ee21f7930d8097800a4d7c1 OP_EQUAL", "type": "scripthash"}, "value": 0.00156055, "n": 0}, {"scriptPubKey": {"reqSigs": 1, "hex": "0014284ca5ac6fb83d824e30775c44d8ad5cf9c0d64b", "addresses": ["bc1q9px2ttr0hq7cyn3swawyfk9dtnuup4jtxgsp95"], "asm": "0 284ca5ac6fb83d824e30775c44d8ad5cf9c0d64b", "type": "witness_v0_keyhash"}, "value": 0.00028554, "n": 1}], "hex": "01000000000101511d6874700015e7596a38aec38fa03cce71e03a632cb6cb7dcc9907796c94220000000000ffffffff02976102000000000017a9142da8cac64d36d0721ee21f7930d8097800a4d7c1878a6f000000000000160014284ca5ac6fb83d824e30775c44d8ad5cf9c0d64b0248304502210081ed056e31d16217aac50c0aa359a3f14b7ac1588d12b791ea21ba30514ef1d0022058b329e9c3d59b199800ecdaabca5c5f1fe447239059ea78a752e87ca06d1da70121032e3551c63a09f0c6c3f7ecd375568f0add1419f451c9349b84db600a2557395700000000", "vin": [{"txinwitness": ["304502210081ed056e31d16217aac50c0aa359a3f14b7ac1588d12b791ea21ba30514ef1d0022058b329e9c3d59b199800ecdaabca5c5f1fe447239059ea78a752e87ca06d1da701", "032e3551c63a09f0c6c3f7ecd375568f0add1419f451c9349b84db600a25573957"], "sequence": 4294967295, "scriptSig": {"hex": "", "asm": ""}, "vout": 0, "txid": "22946c790799cc7dcbb62c633ae071ce3ca08fc3ae386a59e715007074681d51"}], "txid": "64fa51422ba94fe7b1f0a3fc918b428758effbb4cfb72a291f77c16c57934a4d", "blocktime": 1537869901, "version": 1, "confirmations": 11523, "time": 1537869901, "locktime": 0, "vsize": 142, "size": 224}