{"hash": "64fde2de7d70937cd9d1dd2843f2e86159db6251e19c9735fd062974d8c25125", "blockhash": "00000000000000000004ffacab907a6b429b9a5745fa0b75af4234bf69dd7176", "vout": [{"scriptPubKey": {"reqSigs": 1, "hex": "a91499f3d395f33e4ba2c39a560060cea81d49f3fd3e87", "addresses": ["3Fj3QFq8V655aCADCq83dQzGGzp7qZGTYX"], "asm": "OP_HASH160 99f3d395f33e4ba2c39a560060cea81d49f3fd3e OP_EQUAL", "type": "scripthash"}, "value": 0.01246775, "n": 0}, {"scriptPubKey": {"reqSigs": 1, "hex": "76a9143f50fdf0b381df5e602f24220e67006c46a5899388ac", "addresses": ["16mnbWHcoXtHWVB2fmp4DrTiM2u5tjfd6K"], "asm": "OP_DUP OP_HASH160 3f50fdf0b381df5e602f24220e67006c46a58993 OP_EQUALVERIFY OP_CHECKSIG", "type": "pubkeyhash"}, "value": 0.43397535, "n": 1}], "hex": "010000000160fbaf491049500570a5a8bf3c13b69d584a80c96cf5527bcce1e82fceeec5b0010000006b483045022100e3469c3c346fe23276cf6cd9bb464087a6ebc344c0cc2e769b0d6b8df570eb3602204cb99cdf8a5062ef3e0e4687f5e06e8d153dd612503dc878486eaf67a248c2d0012102bd7ed5b9dcd5688e7c85e49f879ce942e10f657e1f7454d5b0632ec3ad40afe4ffffffff02370613000000000017a91499f3d395f33e4ba2c39a560060cea81d49f3fd3e879f319602000000001976a9143f50fdf0b381df5e602f24220e67006c46a5899388ac00000000", "vin": [{"sequence": 4294967295, "scriptSig": {"hex": "483045022100e3469c3c346fe23276cf6cd9bb464087a6ebc344c0cc2e769b0d6b8df570eb3602204cb99cdf8a5062ef3e0e4687f5e06e8d153dd612503dc878486eaf67a248c2d0012102bd7ed5b9dcd5688e7c85e49f879ce942e10f657e1f7454d5b0632ec3ad40afe4", "asm": "3045022100e3469c3c346fe23276cf6cd9bb464087a6ebc344c0cc2e769b0d6b8df570eb3602204cb99cdf8a5062ef3e0e4687f5e06e8d153dd612503dc878486eaf67a248c2d0[ALL] 02bd7ed5b9dcd5688e7c85e49f879ce942e10f657e1f7454d5b0632ec3ad40afe4"}, "vout": 1, "txid": "b0c5eece2fe8e1cc7b52f56cc9804a589db6133cbfa8a5700550491049affb60"}], "txid": "64fde2de7d70937cd9d1dd2843f2e86159db6251e19c9735fd062974d8c25125", "blocktime": 1537875543, "version": 1, "confirmations": 11464, "time": 1537875543, "locktime": 0, "vsize": 224, "size": 224}