{"hash": "65069f5ef1ca27a267254ccc10eb6f447e7c2573796609bfdeb90f5bf4f1f3c9", "blockhash": "00000000000000000017f5eb5941039fbcee6240d03bc1f2f8e35350df66a1d8", "vout": [{"scriptPubKey": {"type": "nulldata", "hex": "6a4c50000077f20001596859dfde0f563f482be460d19ed074892d00f8e87af8e8e963c7cfd5b93b2237ed0cfe80dc76cc27ea3ab239d65baa1846061386fb9eb5023fbc9a9526289ac0f6612cd74e33776ee4", "asm": "OP_RETURN 000077f20001596859dfde0f563f482be460d19ed074892d00f8e87af8e8e963c7cfd5b93b2237ed0cfe80dc76cc27ea3ab239d65baa1846061386fb9eb5023fbc9a9526289ac0f6612cd74e33776ee4"}, "value": 0.0, "n": 0}, {"scriptPubKey": {"reqSigs": 1, "hex": "76a914dea099f4488db256a3cba1026e4ebc94c484720088ac", "addresses": ["1MJ9QNEdWHKwBbFbYfiHkPaP5F9mABAnMe"], "asm": "OP_DUP OP_HASH160 dea099f4488db256a3cba1026e4ebc94c4847200 OP_EQUALVERIFY OP_CHECKSIG", "type": "pubkeyhash"}, "value": 0.0012526, "n": 1}], "hex": "010000000180166859818cfbf8125eff8cb99c75a8dbb49dd755e9db28423ca62ed19995cf000000006a473044022014475a34c4103e20c4425cd930d8235ecac27413f8b5f6e24b95e5c92e947111022054a5398408d7436bcae16cdf5808fb7a9f17453813519e3b8a3209b01d751487012103817175f3884413a371063f8fea9cc84acf050305f92f58d0e8204681bca15cd6ffffffff020000000000000000536a4c50000077f20001596859dfde0f563f482be460d19ed074892d00f8e87af8e8e963c7cfd5b93b2237ed0cfe80dc76cc27ea3ab239d65baa1846061386fb9eb5023fbc9a9526289ac0f6612cd74e33776ee44ce90100000000001976a914dea099f4488db256a3cba1026e4ebc94c484720088ac00000000", "vin": [{"sequence": 4294967295, "scriptSig": {"hex": "473044022014475a34c4103e20c4425cd930d8235ecac27413f8b5f6e24b95e5c92e947111022054a5398408d7436bcae16cdf5808fb7a9f17453813519e3b8a3209b01d751487012103817175f3884413a371063f8fea9cc84acf050305f92f58d0e8204681bca15cd6", "asm": "3044022014475a34c4103e20c4425cd930d8235ecac27413f8b5f6e24b95e5c92e947111022054a5398408d7436bcae16cdf5808fb7a9f17453813519e3b8a3209b01d751487[ALL] 03817175f3884413a371063f8fea9cc84acf050305f92f58d0e8204681bca15cd6"}, "vout": 0, "txid": "cf9599d12ea63c4228dbe955d79db4dba8759cb98cff5e12f8fb8c8159681680"}], "txid": "65069f5ef1ca27a267254ccc10eb6f447e7c2573796609bfdeb90f5bf4f1f3c9", "blocktime": 1537874412, "version": 1, "confirmations": 11467, "time": 1537874412, "locktime": 0, "vsize": 283, "size": 283}