{"hash": "8717f39348112eb5b591a8f67af1ebe9cdd3f19435e5d1abbd92255b4048b55b", "blockhash": "0000000000000000000dcc0f55137456b1a82d3642486a52398922ac4d620174", "vout": [{"scriptPubKey": {"reqSigs": 1, "hex": "76a914835dcafd409b3140b01eb5f7c311c11cfde80d8288ac", "addresses": ["1CybsyeFBWk6iwqZmHAN5u4uNYucaYVsbx"], "asm": "OP_DUP OP_HASH160 835dcafd409b3140b01eb5f7c311c11cfde80d82 OP_EQUALVERIFY OP_CHECKSIG", "type": "pubkeyhash"}, "value": 0.17530963, "n": 0}, {"scriptPubKey": {"reqSigs": 1, "hex": "0014ff7da29de570b71133688836d66ee324414900c8", "addresses": ["bc1qla769809wzm3zvmg3qmdvmhry3q5jqxg0cym2w"], "asm": "0 ff7da29de570b71133688836d66ee324414900c8", "type": "witness_v0_keyhash"}, "value": 0.006372, "n": 1}], "hex": "0100000000010136a48b3077279085e04be46eacfc90410c1e30d854109122d21a9ba1d7930c15340000001716001443fe020fce1fee8ade6a1e1ff79a55a041464152ffffffff0253800b01000000001976a914835dcafd409b3140b01eb5f7c311c11cfde80d8288ac10b9090000000000160014ff7da29de570b71133688836d66ee324414900c802483045022100b971dd4245ee6218deaa86771e06153cb3ebe5c8802a4bb840bc389b6179519c0220416ae7aa0e401166714eb5d1d12ccedfaa9820b5ce3de97b197b833f8401a0f901210234e6716d702eb3cf656dba5d075713ac0a07eb43a1a5ba4e7ffa6dff9db8e24c00000000", "vin": [{"txinwitness": ["3045022100b971dd4245ee6218deaa86771e06153cb3ebe5c8802a4bb840bc389b6179519c0220416ae7aa0e401166714eb5d1d12ccedfaa9820b5ce3de97b197b833f8401a0f901", "0234e6716d702eb3cf656dba5d075713ac0a07eb43a1a5ba4e7ffa6dff9db8e24c"], "sequence": 4294967295, "scriptSig": {"hex": "16001443fe020fce1fee8ade6a1e1ff79a55a041464152", "asm": "001443fe020fce1fee8ade6a1e1ff79a55a041464152"}, "vout": 52, "txid": "150c93d7a19b1ad222911054d8301e0c4190fcac6ee44be085902777308ba436"}], "txid": "6509ecd07eb63c56682082fe40ba2b5c0615478df5836541dae3ef6a75ec9118", "blocktime": 1537870268, "version": 1, "confirmations": 11518, "time": 1537870268, "locktime": 0, "vsize": 167, "size": 249}