{"hash": "a90ee79f92dee832abc15396b5206825c2d28e3f2ed454da1979df7626c33704", "blockhash": "000000000000000000022b45ed06c6f4ccd3cf7fb5ba4856ebd2e58215665228", "vout": [{"scriptPubKey": {"reqSigs": 1, "hex": "76a9147a270840b94cb95e3a6ae1e1737b6046656d9fb388ac", "addresses": ["1C8tCQpgLtPRrQNyxYK98t2EM7qJHbxTRv"], "asm": "OP_DUP OP_HASH160 7a270840b94cb95e3a6ae1e1737b6046656d9fb3 OP_EQUALVERIFY OP_CHECKSIG", "type": "pubkeyhash"}, "value": 0.06023983, "n": 0}, {"scriptPubKey": {"reqSigs": 1, "hex": "a9143bd32c43a9f0b27cc8de4cc34cb6b34fca419cb887", "addresses": ["379LmQtCF6NRc26VoiPkGnn7uL65xbhJ3S"], "asm": "OP_HASH160 3bd32c43a9f0b27cc8de4cc34cb6b34fca419cb8 OP_EQUAL", "type": "scripthash"}, "value": 0.91154166, "n": 1}, {"scriptPubKey": {"reqSigs": 1, "hex": "a914f67b906b808e776fe704ff104c713be9e3f400bf87", "addresses": ["3QAJB7yNFUa5CP8aPHxCPTTYXo3PMTxXMr"], "asm": "OP_HASH160 f67b906b808e776fe704ff104c713be9e3f400bf OP_EQUAL", "type": "scripthash"}, "value": 0.1330113, "n": 2}, {"scriptPubKey": {"reqSigs": 1, "hex": "76a91404c682fd95b8f859cfa1974708ce7234f462975c88ac", "addresses": ["1SFWbr3GxvzUSVW2fpFH1zNZyXqfVNaLj"], "asm": "OP_DUP OP_HASH160 04c682fd95b8f859cfa1974708ce7234f462975c OP_EQUALVERIFY OP_CHECKSIG", "type": "pubkeyhash"}, "value": 0.00214444, "n": 3}, {"scriptPubKey": {"reqSigs": 1, "hex": "a9141f6cf51f2a3f0fe93cf80ebcfe83364e1e10d29487", "addresses": ["34ZBPzRGNB42xVcVgPixufwz3kUU5karW2"], "asm": "OP_HASH160 1f6cf51f2a3f0fe93cf80ebcfe83364e1e10d294 OP_EQUAL", "type": "scripthash"}, "value": 0.24394574, "n": 4}, {"scriptPubKey": {"reqSigs": 1, "hex": "a91437ebd4257d1cddf77728580ff6a56af4d804b28787", "addresses": ["36nhbm1QHbsk6E9Mk8xYKQfmKJDQ8oBiUg"], "asm": "OP_HASH160 37ebd4257d1cddf77728580ff6a56af4d804b287 OP_EQUAL", "type": "scripthash"}, "value": 0.12081253, "n": 5}, {"scriptPubKey": {"reqSigs": 1, "hex": "76a91427caca28cc5c384ef3bec782425cd02c896c95ad88ac", "addresses": ["14dQHZESFf5HU9QJiGvS5DcuDKJ418tnkY"], "asm": "OP_DUP OP_HASH160 27caca28cc5c384ef3bec782425cd02c896c95ad OP_EQUALVERIFY OP_CHECKSIG", "type": "pubkeyhash"}, "value": 0.00187761, "n": 6}, {"scriptPubKey": {"reqSigs": 1, "hex": "76a9142e73b0a56ccab6c5e054e74710c6e48a18a3e9ec88ac", "addresses": ["15Ecg7GK9FYDTLzSQPQgbzNvcbGtgr3Cuf"], "asm": "OP_DUP OP_HASH160 2e73b0a56ccab6c5e054e74710c6e48a18a3e9ec OP_EQUALVERIFY OP_CHECKSIG", "type": "pubkeyhash"}, "value": 0.03719159, "n": 7}, {"scriptPubKey": {"reqSigs": 1, "hex": "76a914613a6c6148bc69f2139d8a6f61c9f357e31ba46388ac", "addresses": ["19s6XwA4mzp4AJ8EMKqE6eg8bcbiB5LnVV"], "asm": "OP_DUP OP_HASH160 613a6c6148bc69f2139d8a6f61c9f357e31ba463 OP_EQUALVERIFY OP_CHECKSIG", "type": "pubkeyhash"}, "value": 0.10519763, "n": 8}, {"scriptPubKey": {"reqSigs": 1, "hex": "a914c8403bfafd4a45b6e0717d31d731d5ec946a31ae87", "addresses": ["3Kwr1zD1DpyveQSLuZa7L87ZdTy8dAL1oe"], "asm": "OP_HASH160 c8403bfafd4a45b6e0717d31d731d5ec946a31ae OP_EQUAL", "type": "scripthash"}, "value": 0.0257085, "n": 9}, {"scriptPubKey": {"reqSigs": 1, "hex": "76a9149b60bc9c0af54a137d511fe1ed458e6c6b2cac7a88ac", "addresses": ["1FAZd83FJ69UVEss7YC2gNo28Axv3K6TMp"], "asm": "OP_DUP OP_HASH160 9b60bc9c0af54a137d511fe1ed458e6c6b2cac7a OP_EQUALVERIFY OP_CHECKSIG", "type": "pubkeyhash"}, "value": 0.01955839, "n": 10}, {"scriptPubKey": {"reqSigs": 1, "hex": "a91463bac43bd9392e07c021693a7a3163a4325acf9787", "addresses": ["3AnLZJSdTXQNALYzdLckEwsGBmjap2wu7g"], "asm": "OP_HASH160 63bac43bd9392e07c021693a7a3163a4325acf97 OP_EQUAL", "type": "scripthash"}, "value": 0.0187, "n": 11}, {"scriptPubKey": {"reqSigs": 1, "hex": "a914d2d2cfd1a1decf635aa7c473e15639edd5e8a23a87", "addresses": ["3LukNHfzo1CE4SmqasyGDZ7Ux1JfYamrK5"], "asm": "OP_HASH160 d2d2cfd1a1decf635aa7c473e15639edd5e8a23a OP_EQUAL", "type": "scripthash"}, "value": 0.0325, "n": 12}, {"scriptPubKey": {"reqSigs": 1, "hex": "a914055fd026b31825b1d352f6a6fc048d0b328a668987", "addresses": ["32BS5iKGTEDV6dCYWtud34CJH9ZTNX7kAy"], "asm": "OP_HASH160 055fd026b31825b1d352f6a6fc048d0b328a6689 OP_EQUAL", "type": "scripthash"}, "value": 0.02342051, "n": 13}, {"scriptPubKey": {"reqSigs": 1, "hex": "a9148e4b5c70d0f030e7b22a4c0141cd8497f74a94fb87", "addresses": ["3EfQ9xtfVPjPyUwKEkTQsCVFevLwwu1Y7i"], "asm": "OP_HASH160 8e4b5c70d0f030e7b22a4c0141cd8497f74a94fb OP_EQUAL", "type": "scripthash"}, "value": 0.00355323, "n": 14}, {"scriptPubKey": {"reqSigs": 1, "hex": "76a914ecd7815293c07ff3c76db76ec229a7ac9664b8d388ac", "addresses": ["1NbJdqLgPuLPtVq2iadVpTwXjX9TDNbjuG"], "asm": "OP_DUP OP_HASH160 ecd7815293c07ff3c76db76ec229a7ac9664b8d3 OP_EQUALVERIFY OP_CHECKSIG", "type": "pubkeyhash"}, "value": 0.00258027, "n": 15}], "hex": "01000000000107fe2d700a28f05f3ce0857e4a98b972e11ad2abd81a791d6343372f8c2f5a1bfe01000000fdfe0000483045022100e3c957d052ae64ccca9636982049c9726bd0adf9151aed58c7d7e9ca61a308860220155cb537ad6252b712087e78e87fd196b75c1efcd6692a5213655b3d714bf0ae01483045022100d6783f67aa0461a9d9481cb752be9cd497cb5e6c7316e1a4879ac17ce6654dad0220224bfaccc3449554830f21e7bd2a532767103257ca4c079fe43d16ee79af6924014c69522102c2f614af680280de4942793fe6d2386c7243c0729eb024120e7d3b729f4f4a972103335d76562a7a45d710cfdb7e3d7f1dec6feea04c33b2ba852e2f8cb5f381e1a32102a811e12d8178b894237a1cbe94fac719b0832894fecaee2401269d8d20a221d953aeffffffff0a0eb9cafc88515f33794421b4657444fb6aa4d0dc83475753097439114d869200000000fdfd000047304402206ff20c96e08e26507c874b1d953a3a4d8d613ccb184e486751d4492335b0098702201818359dcd71ea1858ecc70f55c12ac996e6458b9e36d58e316739ee6dad195b01483045022100ca64ca52507ea432af97dec54ff63123a023caa926daa679d9cc17eeafbb93f10220403e3ff3ef3af912cacb64b83e6e4d4af20bc5b87cd22c4858a150a786089e44014c69522102137b70693e9c3757182774dae6c34a23b87979156f5ff9a88e508734dbaf12af2103a6248f51622c8a374103a993e09c45c82f7e6b5224d68313ce8a66a8bb36452f2102b23476a54365590d25975a60e482d4d36bb7851f9d4e66dd6cb25b0c96363ebc53aeffffffff0b6f447f481107eca4d86e63a0f433a2b058af37c0923a94937049a87b74009601000000fdfe0000483045022100eb8286fcac26fd144649909dfb8f3e8fa34c09eb26c28c8200534b90914d075b0220212acb4c1a4cdeac4c79a57c488c7cc5795a8dad220cbca925ea8ea01f3d8e1a01483045022100adedc88eb9c9982815b2a2aad7913322475d99a3322ce5fa9fe858339e32a929022004ef0a58b59ceffd9c1b5c581f57983fe9811150eaabaa55a7064ea2b55ca63a014c69522102d745cb8954e675ddcc1fe43eb285e61b8f1cbaf2897e75d6caffeaf4637b19082102c6f3b3ef2d3a1d94ec4763ec210fd50819bd18e94b0b656b3527f4b16d51696c2103360645d18edb0c4e95eb16a0aaed36865b8a0923265275286c9869a19079f3e553aeffffffff7fff37c3d89a5528a39ab8346542dd73dd7a0195c43f68c4d261ff6ff40f3f2302000000fc004730440220091f462f8250f3aeb6fe5d3a92cbf36d20f301de3a5cab9890dd9426f4dde981022019295456c5129207300a27c8743eb34e7840dd0669bc7c57d5eb7c460b62220c0147304402202f3b2f9aa961e4cb5f613d73317ab82b1b197d63e2b1e1d0a1ac66543be90b7f022035af49e78f748d59bb904eb5174e652ece68ceafaf68c83515789e46c04ef3ad014c69522103bdc742e4aa3738a277107671d1d9e4c9df297df085f422bb7b77e9a5470cb79c2103f65bf950e9d0ef2f873c0b7afd4540c2dbd92ca098ccaf9056a8dffbb2e0f1522103b894519a47d3f4acffdc40a036c8fef58b6704a11cf8d41251c6c3dc6a134fc753aeffffffff14d1cff107b10b369f42a9ca159b16f9d5ae1b06cb6abfeb9653bcae6c76226e17000000232200208e74c4b1fcdd725ce88cc10cdb4cf279d2c64ea44b9df168a74303c742b41405ffffffffb5a12e7ae36073b77593a3129c1586c4544acc8be3989f948b3262f2c40b28100000000023220020ab12ea1c6156b12578ddc190d522c8b8d8f3baeb50db6ad6d7e1dda2d7231be2ffffffffa7e8273ee6815fd27875def92d3f23318038605bcf44f42378116259be0c5fce17000000232200205d20b46a4f887ee5593e8c3079c6041b660835e072d01055ce9030956bbfdecaffffffff102feb5b00000000001976a9147a270840b94cb95e3a6ae1e1737b6046656d9fb388acf6e66e050000000017a9143bd32c43a9f0b27cc8de4cc34cb6b34fca419cb8878af5ca000000000017a914f67b906b808e776fe704ff104c713be9e3f400bf87ac450300000000001976a91404c682fd95b8f859cfa1974708ce7234f462975c88ac4e3b74010000000017a9141f6cf51f2a3f0fe93cf80ebcfe83364e1e10d294876558b8000000000017a91437ebd4257d1cddf77728580ff6a56af4d804b2878771dd0200000000001976a91427caca28cc5c384ef3bec782425cd02c896c95ad88acf7bf3800000000001976a9142e73b0a56ccab6c5e054e74710c6e48a18a3e9ec88acd384a000000000001976a914613a6c6148bc69f2139d8a6f61c9f357e31ba46388ac623a27000000000017a914c8403bfafd4a45b6e0717d31d731d5ec946a31ae87ffd71d00000000001976a9149b60bc9c0af54a137d511fe1ed458e6c6b2cac7a88acb0881c000000000017a91463bac43bd9392e07c021693a7a3163a4325acf9787509731000000000017a914d2d2cfd1a1decf635aa7c473e15639edd5e8a23a87a3bc23000000000017a914055fd026b31825b1d352f6a6fc048d0b328a668987fb6b05000000000017a9148e4b5c70d0f030e7b22a4c0141cd8497f74a94fb87ebef0300000000001976a914ecd7815293c07ff3c76db76ec229a7ac9664b8d388ac00000000040047304402204562ef8cc9f2ee971b73938726a2dc6b1bb1f8bc23f64a43fbed8634299f636a022026ec3fa778e269dbf64cf74c073b9e730c4d65065b0a86fbe959d777181e5e7f01473044022038681a8e01ec2259e3b3bbe96671aac67be1997626d4805d145919ac7ce5571e0220653531484ebb4b9eb14ad886ce07aa32749b6eca7344491b4c02c38a3dd244680169522102459049f2855c6ba7168403676a8336331c69ce1ae1a830b6dffc91f15b9a1de4210307a18fcf5b2748cccce64db37d8481f227312f17a5158a3bde565f44072190672102b040b29c2cf3a9da5cf696f92d73b4e8c74b3816f2bd5078b3a463aceeae41e453ae0400473044022068ee703ec76450707fadf3cdf5dd1b63f35ec19f1535346be1728490f649fada022046a30a04e62f72f1a07e3cdf1f05fe839cb32432a527323de2b8c98cf05c6f290148304502210086c0adb50298f41d52c59415384dc0eac7c35935069de65d0858545f629e2ced02206961cda0f6ddecadab70b1b2a649b5b69ab3138aa365fa7f246ddc27528855a8016952210245bf70354a084e5bc07245d12c48867d76bf11e0492fe123779b48c2f40521522102dbfa970aad099e63063b99abf89e9e9dd506ff65cf0bcccffe247bda3bf202b721030e08e11029c7134143859a8c826c1b57b90233ad28fa516ae6e2d080442bce9753ae0400473044022039b8d78f2b12812ed1268bc5a29a274ffdec59d94fc70f8b10aee404ca762c9202205d88a6afb08e121642ffed627b060e636010dc12117052599859c3f5f2b3721301483045022100b6cb3b1513d6f41f3484fc6037b526b7b9de66c425e5edb384ee91faf2f3be79022015168a90789ec164a6a5700713056fdfd84ac6937ccacb7329261c8a06d9f17e01695221034f2cd51b87833e758d7fe20f0e82bb19c742d0209f7580ec1b8db736bed85d9b21033503c9b63a9b12da78f4bac9e9251b35f3a80650221106bdd55f5a647b2d64b42103e6e01628351b1e3d6e0c4bd76df49b3d33e5c597428ccfafa11d6f48db2d50b153ae00000000", "vin": [{"sequence": 4294967295, "scriptSig": {"hex": "00483045022100e3c957d052ae64ccca9636982049c9726bd0adf9151aed58c7d7e9ca61a308860220155cb537ad6252b712087e78e87fd196b75c1efcd6692a5213655b3d714bf0ae01483045022100d6783f67aa0461a9d9481cb752be9cd497cb5e6c7316e1a4879ac17ce6654dad0220224bfaccc3449554830f21e7bd2a532767103257ca4c079fe43d16ee79af6924014c69522102c2f614af680280de4942793fe6d2386c7243c0729eb024120e7d3b729f4f4a972103335d76562a7a45d710cfdb7e3d7f1dec6feea04c33b2ba852e2f8cb5f381e1a32102a811e12d8178b894237a1cbe94fac719b0832894fecaee2401269d8d20a221d953ae", "asm": "0 3045022100e3c957d052ae64ccca9636982049c9726bd0adf9151aed58c7d7e9ca61a308860220155cb537ad6252b712087e78e87fd196b75c1efcd6692a5213655b3d714bf0ae[ALL] 3045022100d6783f67aa0461a9d9481cb752be9cd497cb5e6c7316e1a4879ac17ce6654dad0220224bfaccc3449554830f21e7bd2a532767103257ca4c079fe43d16ee79af6924[ALL] 522102c2f614af680280de4942793fe6d2386c7243c0729eb024120e7d3b729f4f4a972103335d76562a7a45d710cfdb7e3d7f1dec6feea04c33b2ba852e2f8cb5f381e1a32102a811e12d8178b894237a1cbe94fac719b0832894fecaee2401269d8d20a221d953ae"}, "vout": 1, "txid": "fe1b5a2f8c2f3743631d791ad8abd21ae172b9984a7e85e03c5ff0280a702dfe"}, {"sequence": 4294967295, "scriptSig": {"hex": "0047304402206ff20c96e08e26507c874b1d953a3a4d8d613ccb184e486751d4492335b0098702201818359dcd71ea1858ecc70f55c12ac996e6458b9e36d58e316739ee6dad195b01483045022100ca64ca52507ea432af97dec54ff63123a023caa926daa679d9cc17eeafbb93f10220403e3ff3ef3af912cacb64b83e6e4d4af20bc5b87cd22c4858a150a786089e44014c69522102137b70693e9c3757182774dae6c34a23b87979156f5ff9a88e508734dbaf12af2103a6248f51622c8a374103a993e09c45c82f7e6b5224d68313ce8a66a8bb36452f2102b23476a54365590d25975a60e482d4d36bb7851f9d4e66dd6cb25b0c96363ebc53ae", "asm": "0 304402206ff20c96e08e26507c874b1d953a3a4d8d613ccb184e486751d4492335b0098702201818359dcd71ea1858ecc70f55c12ac996e6458b9e36d58e316739ee6dad195b[ALL] 3045022100ca64ca52507ea432af97dec54ff63123a023caa926daa679d9cc17eeafbb93f10220403e3ff3ef3af912cacb64b83e6e4d4af20bc5b87cd22c4858a150a786089e44[ALL] 522102137b70693e9c3757182774dae6c34a23b87979156f5ff9a88e508734dbaf12af2103a6248f51622c8a374103a993e09c45c82f7e6b5224d68313ce8a66a8bb36452f2102b23476a54365590d25975a60e482d4d36bb7851f9d4e66dd6cb25b0c96363ebc53ae"}, "vout": 0, "txid": "92864d1139740953574783dcd0a46afb447465b4214479335f5188fccab90e0a"}, {"sequence": 4294967295, "scriptSig": {"hex": "00483045022100eb8286fcac26fd144649909dfb8f3e8fa34c09eb26c28c8200534b90914d075b0220212acb4c1a4cdeac4c79a57c488c7cc5795a8dad220cbca925ea8ea01f3d8e1a01483045022100adedc88eb9c9982815b2a2aad7913322475d99a3322ce5fa9fe858339e32a929022004ef0a58b59ceffd9c1b5c581f57983fe9811150eaabaa55a7064ea2b55ca63a014c69522102d745cb8954e675ddcc1fe43eb285e61b8f1cbaf2897e75d6caffeaf4637b19082102c6f3b3ef2d3a1d94ec4763ec210fd50819bd18e94b0b656b3527f4b16d51696c2103360645d18edb0c4e95eb16a0aaed36865b8a0923265275286c9869a19079f3e553ae", "asm": "0 3045022100eb8286fcac26fd144649909dfb8f3e8fa34c09eb26c28c8200534b90914d075b0220212acb4c1a4cdeac4c79a57c488c7cc5795a8dad220cbca925ea8ea01f3d8e1a[ALL] 3045022100adedc88eb9c9982815b2a2aad7913322475d99a3322ce5fa9fe858339e32a929022004ef0a58b59ceffd9c1b5c581f57983fe9811150eaabaa55a7064ea2b55ca63a[ALL] 522102d745cb8954e675ddcc1fe43eb285e61b8f1cbaf2897e75d6caffeaf4637b19082102c6f3b3ef2d3a1d94ec4763ec210fd50819bd18e94b0b656b3527f4b16d51696c2103360645d18edb0c4e95eb16a0aaed36865b8a0923265275286c9869a19079f3e553ae"}, "vout": 1, "txid": "9600747ba8497093943a92c037af58b0a233f4a0636ed8a4ec0711487f446f0b"}, {"sequence": 4294967295, "scriptSig": {"hex": "004730440220091f462f8250f3aeb6fe5d3a92cbf36d20f301de3a5cab9890dd9426f4dde981022019295456c5129207300a27c8743eb34e7840dd0669bc7c57d5eb7c460b62220c0147304402202f3b2f9aa961e4cb5f613d73317ab82b1b197d63e2b1e1d0a1ac66543be90b7f022035af49e78f748d59bb904eb5174e652ece68ceafaf68c83515789e46c04ef3ad014c69522103bdc742e4aa3738a277107671d1d9e4c9df297df085f422bb7b77e9a5470cb79c2103f65bf950e9d0ef2f873c0b7afd4540c2dbd92ca098ccaf9056a8dffbb2e0f1522103b894519a47d3f4acffdc40a036c8fef58b6704a11cf8d41251c6c3dc6a134fc753ae", "asm": "0 30440220091f462f8250f3aeb6fe5d3a92cbf36d20f301de3a5cab9890dd9426f4dde981022019295456c5129207300a27c8743eb34e7840dd0669bc7c57d5eb7c460b62220c[ALL] 304402202f3b2f9aa961e4cb5f613d73317ab82b1b197d63e2b1e1d0a1ac66543be90b7f022035af49e78f748d59bb904eb5174e652ece68ceafaf68c83515789e46c04ef3ad[ALL] 522103bdc742e4aa3738a277107671d1d9e4c9df297df085f422bb7b77e9a5470cb79c2103f65bf950e9d0ef2f873c0b7afd4540c2dbd92ca098ccaf9056a8dffbb2e0f1522103b894519a47d3f4acffdc40a036c8fef58b6704a11cf8d41251c6c3dc6a134fc753ae"}, "vout": 2, "txid": "233f0ff46fff61d2c4683fc495017add73dd426534b89aa328559ad8c337ff7f"}, {"txinwitness": ["", "304402204562ef8cc9f2ee971b73938726a2dc6b1bb1f8bc23f64a43fbed8634299f636a022026ec3fa778e269dbf64cf74c073b9e730c4d65065b0a86fbe959d777181e5e7f01", "3044022038681a8e01ec2259e3b3bbe96671aac67be1997626d4805d145919ac7ce5571e0220653531484ebb4b9eb14ad886ce07aa32749b6eca7344491b4c02c38a3dd2446801", "522102459049f2855c6ba7168403676a8336331c69ce1ae1a830b6dffc91f15b9a1de4210307a18fcf5b2748cccce64db37d8481f227312f17a5158a3bde565f44072190672102b040b29c2cf3a9da5cf696f92d73b4e8c74b3816f2bd5078b3a463aceeae41e453ae"], "sequence": 4294967295, "scriptSig": {"hex": "2200208e74c4b1fcdd725ce88cc10cdb4cf279d2c64ea44b9df168a74303c742b41405", "asm": "00208e74c4b1fcdd725ce88cc10cdb4cf279d2c64ea44b9df168a74303c742b41405"}, "vout": 23, "txid": "6e22766caebc5396ebbf6acb061baed5f9169b15caa9429f360bb107f1cfd114"}, {"txinwitness": ["", "3044022068ee703ec76450707fadf3cdf5dd1b63f35ec19f1535346be1728490f649fada022046a30a04e62f72f1a07e3cdf1f05fe839cb32432a527323de2b8c98cf05c6f2901", "304502210086c0adb50298f41d52c59415384dc0eac7c35935069de65d0858545f629e2ced02206961cda0f6ddecadab70b1b2a649b5b69ab3138aa365fa7f246ddc27528855a801", "52210245bf70354a084e5bc07245d12c48867d76bf11e0492fe123779b48c2f40521522102dbfa970aad099e63063b99abf89e9e9dd506ff65cf0bcccffe247bda3bf202b721030e08e11029c7134143859a8c826c1b57b90233ad28fa516ae6e2d080442bce9753ae"], "sequence": 4294967295, "scriptSig": {"hex": "220020ab12ea1c6156b12578ddc190d522c8b8d8f3baeb50db6ad6d7e1dda2d7231be2", "asm": "0020ab12ea1c6156b12578ddc190d522c8b8d8f3baeb50db6ad6d7e1dda2d7231be2"}, "vout": 0, "txid": "10280bc4f262328b949f98e38bcc4a54c486159c12a39375b77360e37a2ea1b5"}, {"txinwitness": ["", "3044022039b8d78f2b12812ed1268bc5a29a274ffdec59d94fc70f8b10aee404ca762c9202205d88a6afb08e121642ffed627b060e636010dc12117052599859c3f5f2b3721301", "3045022100b6cb3b1513d6f41f3484fc6037b526b7b9de66c425e5edb384ee91faf2f3be79022015168a90789ec164a6a5700713056fdfd84ac6937ccacb7329261c8a06d9f17e01", "5221034f2cd51b87833e758d7fe20f0e82bb19c742d0209f7580ec1b8db736bed85d9b21033503c9b63a9b12da78f4bac9e9251b35f3a80650221106bdd55f5a647b2d64b42103e6e01628351b1e3d6e0c4bd76df49b3d33e5c597428ccfafa11d6f48db2d50b153ae"], "sequence": 4294967295, "scriptSig": {"hex": "2200205d20b46a4f887ee5593e8c3079c6041b660835e072d01055ce9030956bbfdeca", "asm": "00205d20b46a4f887ee5593e8c3079c6041b660835e072d01055ce9030956bbfdeca"}, "vout": 23, "txid": "ce5f0cbe5962117823f444cf5b60388031233f2df9de7578d25f81e63e27e8a7"}], "txid": "6509aed1d85ff4b2f58575dae766cad9e109de22a82d1f43bfe18f25763a35eb", "blocktime": 1537869901, "version": 1, "confirmations": 11523, "time": 1537869901, "locktime": 0, "vsize": 2138, "size": 2711}