{"hash": "6517895a837efe670c314afc26be30799ff57db84515d52dcafc1b7936d68c47", "blockhash": "00000000000000000024a2167bbff67b0be802c0b01cdd79e6331c2be6459f87", "vout": [{"scriptPubKey": {"reqSigs": 1, "hex": "76a914d56c8afcbb30c404da72b15708719d17b00852c688ac", "addresses": ["1LTUxZ8z47CczZmE8DB3wGLaPmeVP5os53"], "asm": "OP_DUP OP_HASH160 d56c8afcbb30c404da72b15708719d17b00852c6 OP_EQUALVERIFY OP_CHECKSIG", "type": "pubkeyhash"}, "value": 0.00547968, "n": 0}, {"scriptPubKey": {"reqSigs": 1, "hex": "76a9143d3ef93558b3cf2007f21065325b666f82b9a40888ac", "addresses": ["16aqfB9xRXF6qzXG9kWVd6KrdY8vQZbkHR"], "asm": "OP_DUP OP_HASH160 3d3ef93558b3cf2007f21065325b666f82b9a408 OP_EQUALVERIFY OP_CHECKSIG", "type": "pubkeyhash"}, "value": 0.22831688, "n": 1}], "hex": "0100000001d33ed7df01013593719b73717e20585fb21e9da1b09b4559c9c99630af7052be010000006a473044022048fadc60ae90bf8c6e2e294a87d8c3cbd3c3ae0f413a6be053e0e45168d2528c02205077664c962bd96279a08a13a2d2a104cb6a06e872f4117d60308b8a06784e1f012102fb8fd5c3ac715c62d89aebb9f4dd1c28c278dc46cf1796d0463d97ad5878a18affffffff02805c0800000000001976a914d56c8afcbb30c404da72b15708719d17b00852c688ac48625c01000000001976a9143d3ef93558b3cf2007f21065325b666f82b9a40888ac00000000", "vin": [{"sequence": 4294967295, "scriptSig": {"hex": "473044022048fadc60ae90bf8c6e2e294a87d8c3cbd3c3ae0f413a6be053e0e45168d2528c02205077664c962bd96279a08a13a2d2a104cb6a06e872f4117d60308b8a06784e1f012102fb8fd5c3ac715c62d89aebb9f4dd1c28c278dc46cf1796d0463d97ad5878a18a", "asm": "3044022048fadc60ae90bf8c6e2e294a87d8c3cbd3c3ae0f413a6be053e0e45168d2528c02205077664c962bd96279a08a13a2d2a104cb6a06e872f4117d60308b8a06784e1f[ALL] 02fb8fd5c3ac715c62d89aebb9f4dd1c28c278dc46cf1796d0463d97ad5878a18a"}, "vout": 1, "txid": "be5270af3096c9c959459bb0a19d1eb25f58207e71739b7193350101dfd73ed3"}], "txid": "6517895a837efe670c314afc26be30799ff57db84515d52dcafc1b7936d68c47", "blocktime": 1537870564, "version": 1, "confirmations": 11515, "time": 1537870564, "locktime": 0, "vsize": 225, "size": 225}