{"hash": "651848c5835f0184d0fa02ba5cecc58fb853ba786d985cf6f90414f1bc2e2660", "blockhash": "00000000000000000018f53835495a110e01622372bf6ae95dc86f2b0ab887b0", "vout": [{"scriptPubKey": {"type": "nulldata", "hex": "6a4c500000778a00018c2006064182e1e4eaecdd68e3ef3236678a625097bcbefa6b8351586b4e7a7ca6b3f273977974e72d62a9b05e015baa0bda0613db55cc938854bc9a9526289ac0f6612cd74e33776ee4", "asm": "OP_RETURN 0000778a00018c2006064182e1e4eaecdd68e3ef3236678a625097bcbefa6b8351586b4e7a7ca6b3f273977974e72d62a9b05e015baa0bda0613db55cc938854bc9a9526289ac0f6612cd74e33776ee4"}, "value": 0.0, "n": 0}, {"scriptPubKey": {"reqSigs": 1, "hex": "76a91489ba9138041ab75f2ff2b7a4845278b7a01ed88488ac", "addresses": ["1DZF5CgEC3JwR8tAmnj16y8ZvgByDGkFLx"], "asm": "OP_DUP OP_HASH160 89ba9138041ab75f2ff2b7a4845278b7a01ed884 OP_EQUALVERIFY OP_CHECKSIG", "type": "pubkeyhash"}, "value": 0.01414564, "n": 1}], "hex": "01000000015f7cbe576b44e7d2bc38f0a47f339e8d534724012182cff40b98a4d55b6de1e7010000006b483045022100db246b64498642239674a33f40277902e6aa42c0ae8218e3353ec49f08048d56022075db846d3ad354b239537b59b4d4d9022091b51ff8beb6e7633ef060f2f13584012103a57bd5586e19e3aa3f8fb8033cbbdb2bcead63568828c43765a7f4e46dfc7013ffffffff020000000000000000536a4c500000778a00018c2006064182e1e4eaecdd68e3ef3236678a625097bcbefa6b8351586b4e7a7ca6b3f273977974e72d62a9b05e015baa0bda0613db55cc938854bc9a9526289ac0f6612cd74e33776ee4a4951500000000001976a91489ba9138041ab75f2ff2b7a4845278b7a01ed88488ac00000000", "vin": [{"sequence": 4294967295, "scriptSig": {"hex": "483045022100db246b64498642239674a33f40277902e6aa42c0ae8218e3353ec49f08048d56022075db846d3ad354b239537b59b4d4d9022091b51ff8beb6e7633ef060f2f13584012103a57bd5586e19e3aa3f8fb8033cbbdb2bcead63568828c43765a7f4e46dfc7013", "asm": "3045022100db246b64498642239674a33f40277902e6aa42c0ae8218e3353ec49f08048d56022075db846d3ad354b239537b59b4d4d9022091b51ff8beb6e7633ef060f2f13584[ALL] 03a57bd5586e19e3aa3f8fb8033cbbdb2bcead63568828c43765a7f4e46dfc7013"}, "vout": 1, "txid": "e7e16d5bd5a4980bf4cf8221012447538d9e337fa4f038bcd2e7446b57be7c5f"}], "txid": "651848c5835f0184d0fa02ba5cecc58fb853ba786d985cf6f90414f1bc2e2660", "blocktime": 1537870928, "version": 1, "confirmations": 11512, "time": 1537870928, "locktime": 0, "vsize": 284, "size": 284}