{"hash": "651a1c4981b4a614c8880951069ce22226c9a025fb94e9bf81820a9d519de29c", "blockhash": "00000000000000000017f5eb5941039fbcee6240d03bc1f2f8e35350df66a1d8", "vout": [{"scriptPubKey": {"reqSigs": 1, "hex": "76a9140a6b825daa1b89f8e100ed8eec6d79b592500f4988ac", "addresses": ["1x6YnuBVeeE65dQRZztRWgUPwyBjHCA5g"], "asm": "OP_DUP OP_HASH160 0a6b825daa1b89f8e100ed8eec6d79b592500f49 OP_EQUALVERIFY OP_CHECKSIG", "type": "pubkeyhash"}, "value": 0.4449016, "n": 0}, {"scriptPubKey": {"reqSigs": 1, "hex": "76a914fd5c721f589e8687c503bf6191ddc59cfbe507ae88ac", "addresses": ["1Q6ehnCPhiTLRPqGJzhZVkn89oTVdi1jBf"], "asm": "OP_DUP OP_HASH160 fd5c721f589e8687c503bf6191ddc59cfbe507ae OP_EQUALVERIFY OP_CHECKSIG", "type": "pubkeyhash"}, "value": 5.46e-06, "n": 1}, {"scriptPubKey": {"type": "nulldata", "hex": "6a146f6d6e69000000000000001f0000004c0224f150", "asm": "OP_RETURN 6f6d6e69000000000000001f0000004c0224f150"}, "value": 0.0, "n": 2}], "hex": "0100000001e3e9c8875024816c1f56511b509b76e4b5ef2d237fea64673e93f67fc5365800000000006a47304402203c246174f4816419441b9d8479700f8bc8e6c9f5887d3e0082c8f69062bb90020220616df28333cde74d8bca2d31174d344a9964f608aa9125905d87404faf53a624012103fe02b06a6bfd9b5a83e0417430a3235a39a0b4c7973591ca27ac58f6474d9120ffffffff03b0dda602000000001976a9140a6b825daa1b89f8e100ed8eec6d79b592500f4988ac22020000000000001976a914fd5c721f589e8687c503bf6191ddc59cfbe507ae88ac0000000000000000166a146f6d6e69000000000000001f0000004c0224f15000000000", "vin": [{"sequence": 4294967295, "scriptSig": {"hex": "47304402203c246174f4816419441b9d8479700f8bc8e6c9f5887d3e0082c8f69062bb90020220616df28333cde74d8bca2d31174d344a9964f608aa9125905d87404faf53a624012103fe02b06a6bfd9b5a83e0417430a3235a39a0b4c7973591ca27ac58f6474d9120", "asm": "304402203c246174f4816419441b9d8479700f8bc8e6c9f5887d3e0082c8f69062bb90020220616df28333cde74d8bca2d31174d344a9964f608aa9125905d87404faf53a624[ALL] 03fe02b06a6bfd9b5a83e0417430a3235a39a0b4c7973591ca27ac58f6474d9120"}, "vout": 0, "txid": "005836c57ff6933e6764ea7f232defb5e4769b501b51561f6c81245087c8e9e3"}], "txid": "651a1c4981b4a614c8880951069ce22226c9a025fb94e9bf81820a9d519de29c", "blocktime": 1537874412, "version": 1, "confirmations": 11466, "time": 1537874412, "locktime": 0, "vsize": 256, "size": 256}