{"hash": "5239095257876dc5cc59ac7caba45f9b8086aa669a8f729cef7abfd1e244cbb4", "blockhash": "0000000000000000001cda96e906b7601b7a6fb1a3b62bca570a9e5d8f4b3de1", "vout": [{"scriptPubKey": {"reqSigs": 1, "hex": "a914f705340f3de1677a9ca34c5cd8fe7db0308b520487", "addresses": ["3QD94Tihp6zte1dG7Z7NPA5BBj5zpems3c"], "asm": "OP_HASH160 f705340f3de1677a9ca34c5cd8fe7db0308b5204 OP_EQUAL", "type": "scripthash"}, "value": 0.0012796, "n": 0}, {"scriptPubKey": {"reqSigs": 1, "hex": "a914fcc7d526fcca63edfffb4c070dde12f66676578887", "addresses": ["3QjbbVutjCG1g9E5ewv77TMVsDmCZAEPXT"], "asm": "OP_HASH160 fcc7d526fcca63edfffb4c070dde12f666765788 OP_EQUAL", "type": "scripthash"}, "value": 0.00092524, "n": 1}], "hex": "01000000000101b013af0e0d7af54292e07661f146a7d398bc3eeb944282e861859de2c639171c000000002322002030fab3c6be61d711bb521ac7a598d43766a5e102ad7f0fd7303933b30586a119fdffffff02d8f301000000000017a914f705340f3de1677a9ca34c5cd8fe7db0308b5204876c6901000000000017a914fcc7d526fcca63edfffb4c070dde12f666765788870400483045022100afe200cac9721c9d4437e067d283df96530e19b277b710cbd65eb17eb7971c2302201792c4f49454373f2148e7f57cd9dbae3a79a171e04687bea162c8c48832e85f01483045022100baa1ec46a63bf0b96f8b63735c03b0c372a95405326a6b9eb882647a42a6a5d502207dfff8148445e0e3d4d20b94eaa3559771e5182b23927178a50bc28213278e3701475221033413211c182a1158726538e12b7ab752435bcb45e34f9032be247c20539b1d0c2102c1a290b04a3b8bcb52ac7c9176341d985e5774aa15ecf51eab59ad88664893e452ae13490800", "vin": [{"txinwitness": ["", "3045022100afe200cac9721c9d4437e067d283df96530e19b277b710cbd65eb17eb7971c2302201792c4f49454373f2148e7f57cd9dbae3a79a171e04687bea162c8c48832e85f01", "3045022100baa1ec46a63bf0b96f8b63735c03b0c372a95405326a6b9eb882647a42a6a5d502207dfff8148445e0e3d4d20b94eaa3559771e5182b23927178a50bc28213278e3701", "5221033413211c182a1158726538e12b7ab752435bcb45e34f9032be247c20539b1d0c2102c1a290b04a3b8bcb52ac7c9176341d985e5774aa15ecf51eab59ad88664893e452ae"], "sequence": 4294967293, "scriptSig": {"hex": "22002030fab3c6be61d711bb521ac7a598d43766a5e102ad7f0fd7303933b30586a119", "asm": "002030fab3c6be61d711bb521ac7a598d43766a5e102ad7f0fd7303933b30586a119"}, "vout": 0, "txid": "1c1739c6e29d8561e8824294eb3ebc98d3a746f16176e09242f57a0d0eaf13b0"}], "txid": "651b29bd9c61282aff06eb997c62f24d3eb229d9fcb6dbfc0df819307447b696", "blocktime": 1537873282, "version": 1, "confirmations": 11480, "time": 1537873282, "locktime": 542995, "vsize": 206, "size": 372}