{"hash": "cc5b1a85bdb9961a083dabd9822af1a45b5e64880189b6f49d2fbd5dc799e78f", "blockhash": "0000000000000000001f76057863aec43deb6fa401d9628bb513d65a8098bfab", "vout": [{"scriptPubKey": {"type": "nulldata", "hex": "6a146f6d6e69000000000000001f00000004946c6180", "asm": "OP_RETURN 6f6d6e69000000000000001f00000004946c6180"}, "value": 0.0, "n": 0}, {"scriptPubKey": {"reqSigs": 1, "hex": "a914e818e90b8e6b38dba66f74b35cb708bbc73e2ea787", "addresses": ["3NrEXrB9qAxXYfRt6jKtBD8QzoU2qtNWDR"], "asm": "OP_HASH160 e818e90b8e6b38dba66f74b35cb708bbc73e2ea7 OP_EQUAL", "type": "scripthash"}, "value": 2.73e-05, "n": 1}, {"scriptPubKey": {"reqSigs": 1, "hex": "a914e818e90b8e6b38dba66f74b35cb708bbc73e2ea787", "addresses": ["3NrEXrB9qAxXYfRt6jKtBD8QzoU2qtNWDR"], "asm": "OP_HASH160 e818e90b8e6b38dba66f74b35cb708bbc73e2ea7 OP_EQUAL", "type": "scripthash"}, "value": 199.99996365, "n": 2}], "hex": "01000000000102b825f4c63d77fc9bb3d6534c38e55c9a4467168e274d3c58125f6d127b40c1350200000017160014502487be2c27d378b11f36814d7d5c50aede7067ffffffffbe1ad52265593333a0c97e60e7f061b742632cbeacca9bde50ba265cb9ab215a000000001716001480d7191fd9d422bdb95ab61b60295f0f6525e274ffffffff030000000000000000166a146f6d6e69000000000000001f00000004946c6180aa0a00000000000017a914e818e90b8e6b38dba66f74b35cb708bbc73e2ea787cdb917a80400000017a914e818e90b8e6b38dba66f74b35cb708bbc73e2ea78702483045022100e0b1257c46472fdfec35393ec73aeedb159e2598be068badf415cd108ed0ad8802201bec150787442f95f965e5d0ddacea503197675649b5f6bae03343eeb0ba0274012102e6ac3cbcbf2170abddc5288a8fbce834b0a1f20f3b03e66cb17a3c459bcf6c960247304402202fb88a083b5ed43f4d3d64f9af5063ffa1f848cbda0c52791c81546a30be153402204d4e8990745f3b276c6444422b852ce081c8c2cc8651a753a3dbe168783171fd012102b3a1e24f6ffcc232d24ff9b8713bf578ef037ee9e074c673ae4d0ef50d4be31b00000000", "vin": [{"txinwitness": ["3045022100e0b1257c46472fdfec35393ec73aeedb159e2598be068badf415cd108ed0ad8802201bec150787442f95f965e5d0ddacea503197675649b5f6bae03343eeb0ba027401", "02e6ac3cbcbf2170abddc5288a8fbce834b0a1f20f3b03e66cb17a3c459bcf6c96"], "sequence": 4294967295, "scriptSig": {"hex": "160014502487be2c27d378b11f36814d7d5c50aede7067", "asm": "0014502487be2c27d378b11f36814d7d5c50aede7067"}, "vout": 2, "txid": "35c1407b126d5f12583c4d278e1667449a5ce5384c53d6b39bfc773dc6f425b8"}, {"txinwitness": ["304402202fb88a083b5ed43f4d3d64f9af5063ffa1f848cbda0c52791c81546a30be153402204d4e8990745f3b276c6444422b852ce081c8c2cc8651a753a3dbe168783171fd01", "02b3a1e24f6ffcc232d24ff9b8713bf578ef037ee9e074c673ae4d0ef50d4be31b"], "sequence": 4294967295, "scriptSig": {"hex": "16001480d7191fd9d422bdb95ab61b60295f0f6525e274", "asm": "001480d7191fd9d422bdb95ab61b60295f0f6525e274"}, "vout": 0, "txid": "5a21abb95c26ba50de9bcaacbe2c6342b761f0e7607ec9a03333596522d51abe"}], "txid": "651bc4ecae91ddda98ea0918ce537b099896a578701c4d26d3dfee353df4992f", "blocktime": 1537873891, "version": 1, "confirmations": 11474, "time": 1537873891, "locktime": 0, "vsize": 288, "size": 450}