{"hash": "651e244e286a0f06b1f1cb9fdc30ebe05f1577841b55d83428878a3d4cfcc6ab", "blockhash": "00000000000000000017f5eb5941039fbcee6240d03bc1f2f8e35350df66a1d8", "vout": [{"scriptPubKey": {"reqSigs": 1, "hex": "76a914a25dec4d0011064ef106a983c39c7a540699f22088ac", "addresses": ["1FoWyxwPXuj4C6abqwhjDWdz6D4PZgYRjA"], "asm": "OP_DUP OP_HASH160 a25dec4d0011064ef106a983c39c7a540699f220 OP_EQUALVERIFY OP_CHECKSIG", "type": "pubkeyhash"}, "value": 0.01995188, "n": 0}, {"scriptPubKey": {"type": "nulldata", "hex": "6a146f6d6e69000000000000001f000000071a89a780", "asm": "OP_RETURN 6f6d6e69000000000000001f000000071a89a780"}, "value": 0.0, "n": 1}, {"scriptPubKey": {"reqSigs": 1, "hex": "76a91433f42cdb0729f19c6f59c1e2923d63ca48d262d388ac", "addresses": ["15jhyNk3AE6CNvDV7S3FscWH69fV95nUkE"], "asm": "OP_DUP OP_HASH160 33f42cdb0729f19c6f59c1e2923d63ca48d262d3 OP_EQUALVERIFY OP_CHECKSIG", "type": "pubkeyhash"}, "value": 5.46e-06, "n": 2}], "hex": "0100000001a44813c76173a4fe9689194c29809e35be05f1741d9b5e1e9e8bd44070ac1fea860000006b483045022100c07036d46aa7c7c222ef14f64d52be02afb28929fbc043eda07d4e72d0f8ef3f022008e2a117add238d1f1746f8312ed88c6322f3c5d84929e113d28a97d0c083460012103da5bac7b36d5aa38f531c6b9601e21bb598a4b6716ebed38b009a55dabde9440feffffff03b4711e00000000001976a914a25dec4d0011064ef106a983c39c7a540699f22088ac0000000000000000166a146f6d6e69000000000000001f000000071a89a78022020000000000001976a91433f42cdb0729f19c6f59c1e2923d63ca48d262d388ac15490800", "vin": [{"sequence": 4294967294, "scriptSig": {"hex": "483045022100c07036d46aa7c7c222ef14f64d52be02afb28929fbc043eda07d4e72d0f8ef3f022008e2a117add238d1f1746f8312ed88c6322f3c5d84929e113d28a97d0c083460012103da5bac7b36d5aa38f531c6b9601e21bb598a4b6716ebed38b009a55dabde9440", "asm": "3045022100c07036d46aa7c7c222ef14f64d52be02afb28929fbc043eda07d4e72d0f8ef3f022008e2a117add238d1f1746f8312ed88c6322f3c5d84929e113d28a97d0c083460[ALL] 03da5bac7b36d5aa38f531c6b9601e21bb598a4b6716ebed38b009a55dabde9440"}, "vout": 134, "txid": "ea1fac7040d48b9e1e5e9b1d74f105be359e80294c198996fea47361c71348a4"}], "txid": "651e244e286a0f06b1f1cb9fdc30ebe05f1577841b55d83428878a3d4cfcc6ab", "blocktime": 1537874412, "version": 1, "confirmations": 11467, "time": 1537874412, "locktime": 542997, "vsize": 257, "size": 257}