{"hash": "65226ec63fc8350d9bd2ccf7f9522ba8044e3d37c13229a67a323dd2dcd80c02", "blockhash": "00000000000000000017f5eb5941039fbcee6240d03bc1f2f8e35350df66a1d8", "vout": [{"scriptPubKey": {"reqSigs": 1, "hex": "76a91434ad500266182951094f3aca77ddd6da94f2b48a88ac", "addresses": ["15oXkwbeiv2NdxMfy1uuNqU343ZGQuiw9g"], "asm": "OP_DUP OP_HASH160 34ad500266182951094f3aca77ddd6da94f2b48a OP_EQUALVERIFY OP_CHECKSIG", "type": "pubkeyhash"}, "value": 0.00499064, "n": 0}, {"scriptPubKey": {"type": "nulldata", "hex": "6a146f6d6e69000000000000001f000000746a528800", "asm": "OP_RETURN 6f6d6e69000000000000001f000000746a528800"}, "value": 0.0, "n": 1}, {"scriptPubKey": {"reqSigs": 1, "hex": "76a914a25dec4d0011064ef106a983c39c7a540699f22088ac", "addresses": ["1FoWyxwPXuj4C6abqwhjDWdz6D4PZgYRjA"], "asm": "OP_DUP OP_HASH160 a25dec4d0011064ef106a983c39c7a540699f220 OP_EQUALVERIFY OP_CHECKSIG", "type": "pubkeyhash"}, "value": 5.46e-06, "n": 2}], "hex": "0100000001731fcc452faa174fab5da9ca9a0d89ac1eb9db9a4f7ab3a8eb8c446d41d18313000000006a47304402206357915936f33b4b6d88b4560f94409e4eacc91c8e36e49eeeb70583e9cc9ef002202dca4947397b101192b1f339a17692ba50d402d66c8f150f8381ab3f36537fec012102082e0549be1f04ec75bda97f50d493009f79f6d41a628410bfbc1933a61fed9afeffffff03789d0700000000001976a91434ad500266182951094f3aca77ddd6da94f2b48a88ac0000000000000000166a146f6d6e69000000000000001f000000746a52880022020000000000001976a914a25dec4d0011064ef106a983c39c7a540699f22088ac15490800", "vin": [{"sequence": 4294967294, "scriptSig": {"hex": "47304402206357915936f33b4b6d88b4560f94409e4eacc91c8e36e49eeeb70583e9cc9ef002202dca4947397b101192b1f339a17692ba50d402d66c8f150f8381ab3f36537fec012102082e0549be1f04ec75bda97f50d493009f79f6d41a628410bfbc1933a61fed9a", "asm": "304402206357915936f33b4b6d88b4560f94409e4eacc91c8e36e49eeeb70583e9cc9ef002202dca4947397b101192b1f339a17692ba50d402d66c8f150f8381ab3f36537fec[ALL] 02082e0549be1f04ec75bda97f50d493009f79f6d41a628410bfbc1933a61fed9a"}, "vout": 0, "txid": "1383d1416d448ceba8b37a4f9adbb91eac890d9acaa95dab4f17aa2f45cc1f73"}], "txid": "65226ec63fc8350d9bd2ccf7f9522ba8044e3d37c13229a67a323dd2dcd80c02", "blocktime": 1537874412, "version": 1, "confirmations": 11468, "time": 1537874412, "locktime": 542997, "vsize": 256, "size": 256}