{"hash": "652a6293acd9f7e354052d107e7dbf5bcd85f9524a6e04575a27cca91698986a", "blockhash": "0000000000000000000baef3f32e3676a92c3b2e5da21b426e4f302fc371ce76", "vout": [{"scriptPubKey": {"reqSigs": 1, "hex": "76a914579ce8c70793b49ad3ba509b6944de5c792643fb88ac", "addresses": ["18zFkwPCU93WZDwnEVCmbEuDmGFLRVvQeP"], "asm": "OP_DUP OP_HASH160 579ce8c70793b49ad3ba509b6944de5c792643fb OP_EQUALVERIFY OP_CHECKSIG", "type": "pubkeyhash"}, "value": 0.0095184, "n": 0}, {"scriptPubKey": {"reqSigs": 1, "hex": "76a914bce114ee57cff1dd9cba06d45f6f097da5fd99cb88ac", "addresses": ["1JDhg27FcLuhfFuitUKaaCQWJdL9Yky5Ev"], "asm": "OP_DUP OP_HASH160 bce114ee57cff1dd9cba06d45f6f097da5fd99cb OP_EQUALVERIFY OP_CHECKSIG", "type": "pubkeyhash"}, "value": 0.05799823, "n": 1}], "hex": "010000000243927454de13505cf3b789d5b98172b5aad0e2a76e2a0c1292d368a2399dba39000000006b483045022100a2c00132551e1f75ba19ca5ffa71c58222955058fbe9cfe39c6701e1f9990e5702207a9afbff198f3cde8b60feb2514126ee8bf47b91cf2169d5ede05cf7a5c2fe240121033e8850603ed78aea136e91b2f68ff124b2007890932af64eb7f15e7385b706bafdffffffeec28463f85689fac5a7d246eca49884e728617af23f059ee7563d0b6bddc3b6000000006a47304402204f93e5315291f15a77a03aa4eeccbd72d9dc3dc3f90a5b4e2779d6e1a290693b02201ec32c55d3e1a74e3cf76f05fb2724adfaa037b326f796927374844a2ed544ea012103c303ab2b1c41e67c7d4c1051c34b3def4ac7a0a75c443b5538bd8dc0b8fdce16fdffffff0220860e00000000001976a914579ce8c70793b49ad3ba509b6944de5c792643fb88ac8f7f5800000000001976a914bce114ee57cff1dd9cba06d45f6f097da5fd99cb88ac16490800", "vin": [{"sequence": 4294967293, "scriptSig": {"hex": "483045022100a2c00132551e1f75ba19ca5ffa71c58222955058fbe9cfe39c6701e1f9990e5702207a9afbff198f3cde8b60feb2514126ee8bf47b91cf2169d5ede05cf7a5c2fe240121033e8850603ed78aea136e91b2f68ff124b2007890932af64eb7f15e7385b706ba", "asm": "3045022100a2c00132551e1f75ba19ca5ffa71c58222955058fbe9cfe39c6701e1f9990e5702207a9afbff198f3cde8b60feb2514126ee8bf47b91cf2169d5ede05cf7a5c2fe24[ALL] 033e8850603ed78aea136e91b2f68ff124b2007890932af64eb7f15e7385b706ba"}, "vout": 0, "txid": "39ba9d39a268d392120c2a6ea7e2d0aab57281b9d589b7f35c5013de54749243"}, {"sequence": 4294967293, "scriptSig": {"hex": "47304402204f93e5315291f15a77a03aa4eeccbd72d9dc3dc3f90a5b4e2779d6e1a290693b02201ec32c55d3e1a74e3cf76f05fb2724adfaa037b326f796927374844a2ed544ea012103c303ab2b1c41e67c7d4c1051c34b3def4ac7a0a75c443b5538bd8dc0b8fdce16", "asm": "304402204f93e5315291f15a77a03aa4eeccbd72d9dc3dc3f90a5b4e2779d6e1a290693b02201ec32c55d3e1a74e3cf76f05fb2724adfaa037b326f796927374844a2ed544ea[ALL] 03c303ab2b1c41e67c7d4c1051c34b3def4ac7a0a75c443b5538bd8dc0b8fdce16"}, "vout": 0, "txid": "b6c3dd6b0b3d56e79e053ff27a6128e78498a4ec46d2a7c5fa8956f86384c2ee"}], "txid": "652a6293acd9f7e354052d107e7dbf5bcd85f9524a6e04575a27cca91698986a", "blocktime": 1537876114, "version": 1, "confirmations": 11460, "time": 1537876114, "locktime": 542998, "vsize": 373, "size": 373}