{"hash": "0fa7129cf1ba35c245a7d3a3f7bf5a7820e134032b9f5853ea358edade408f0b", "blockhash": "000000000000000000022b45ed06c6f4ccd3cf7fb5ba4856ebd2e58215665228", "vout": [{"scriptPubKey": {"reqSigs": 1, "hex": "76a914f0cbd95646405f72339a71f6cb4454fb5624d06588ac", "addresses": ["1NxDNiRfiRAdvrDGu9gftPdLmdAN7t1awn"], "asm": "OP_DUP OP_HASH160 f0cbd95646405f72339a71f6cb4454fb5624d065 OP_EQUALVERIFY OP_CHECKSIG", "type": "pubkeyhash"}, "value": 0.0027346, "n": 0}, {"scriptPubKey": {"reqSigs": 1, "hex": "a914cc0db036122048fe16ce2d4166aea596188d6f9687", "addresses": ["3LHxAkxNuESJ2FrgWxt2a8jvj8jFNHnokm"], "asm": "OP_HASH160 cc0db036122048fe16ce2d4166aea596188d6f96 OP_EQUAL", "type": "scripthash"}, "value": 0.01025623, "n": 1}], "hex": "02000000000102aa36883344bc843dbb95d3cdee4d9c60e3296891cfcdbdcdd7bfd9f16ad0068a0100000017160014f9bb7fb008ed36dd3c16b9b068c23f9e82efc7b7feffffffe0bec9a662eb5d23dd7895cb84dc4c65fcd070d7a27a5147c1137a72a97a773203000000171600149877f8526d0ffdc3b7a7e627704b21b947d4a3defeffffff02342c0400000000001976a914f0cbd95646405f72339a71f6cb4454fb5624d06588ac57a60f000000000017a914cc0db036122048fe16ce2d4166aea596188d6f96870247304402200bfdee1e332a4d840a065ad3a812e1ac5280aa36d5cb823dd8a0125063bb5d2202203798dd176c70fddd00cce4f68d8c1c3db7b37ed928b72a68ca968836ef5902350121022448d972fb5cdcccf57cb148995b4618f2aa13ed9e95f5a2ad3df90f8f6bb8c2024830450221008d7d2d6de9733fa336ecab99ee5a793ba0ec94d6c45ab8c6c75732a628a0688d02205ea109d31a261b95f9f1711362b17e00c8f1a5a1e3149bf9186d29dc7601ec1a012102ca8ae665979284ea4c26cd7be134a510377e88019fc583429cdef63276c2a5350b490800", "vin": [{"txinwitness": ["304402200bfdee1e332a4d840a065ad3a812e1ac5280aa36d5cb823dd8a0125063bb5d2202203798dd176c70fddd00cce4f68d8c1c3db7b37ed928b72a68ca968836ef59023501", "022448d972fb5cdcccf57cb148995b4618f2aa13ed9e95f5a2ad3df90f8f6bb8c2"], "sequence": 4294967294, "scriptSig": {"hex": "160014f9bb7fb008ed36dd3c16b9b068c23f9e82efc7b7", "asm": "0014f9bb7fb008ed36dd3c16b9b068c23f9e82efc7b7"}, "vout": 1, "txid": "8a06d06af1d9bfd7cdbdcdcf916829e3609c4deecdd395bb3d84bc44338836aa"}, {"txinwitness": ["30450221008d7d2d6de9733fa336ecab99ee5a793ba0ec94d6c45ab8c6c75732a628a0688d02205ea109d31a261b95f9f1711362b17e00c8f1a5a1e3149bf9186d29dc7601ec1a01", "02ca8ae665979284ea4c26cd7be134a510377e88019fc583429cdef63276c2a535"], "sequence": 4294967294, "scriptSig": {"hex": "1600149877f8526d0ffdc3b7a7e627704b21b947d4a3de", "asm": "00149877f8526d0ffdc3b7a7e627704b21b947d4a3de"}, "vout": 3, "txid": "32777aa9727a13c147517aa2d770d0fc654cdc84cb9578dd235deb62a6c9bee0"}], "txid": "6533bdfaa453a8246975610f0dd561f767ef93f52f6cfb62be4b7ffd52b6124c", "blocktime": 1537869901, "version": 2, "confirmations": 11524, "time": 1537869901, "locktime": 542987, "vsize": 259, "size": 421}