{"hash": "6536cebbcc1facfe148e2955d7ad7ad207d97e640554d2259bf901328740aefe", "blockhash": "0000000000000000001f0ddff1eddb255c1121bcd4da4f1bc9a0da00cae72433", "vout": [{"scriptPubKey": {"reqSigs": 1, "hex": "76a914d3792d647e1a8621b068a462b9135a514f7031fb88ac", "addresses": ["1LHAk2NYMuL3KDd9ozf34rqgWgJ3JMtwj1"], "asm": "OP_DUP OP_HASH160 d3792d647e1a8621b068a462b9135a514f7031fb OP_EQUALVERIFY OP_CHECKSIG", "type": "pubkeyhash"}, "value": 5.46e-06, "n": 0}, {"scriptPubKey": {"reqSigs": 1, "hex": "a9143f4eecba122ad73039d481c8d37f99cb4f887cd887", "addresses": ["37Tm3Qz8Zw2VJrheUUhArDAoq58S6YrS3g"], "asm": "OP_HASH160 3f4eecba122ad73039d481c8d37f99cb4f887cd8 OP_EQUAL", "type": "scripthash"}, "value": 0.99989816, "n": 1}, {"scriptPubKey": {"type": "nulldata", "hex": "6a146f6d6e69000000000000001f0000000a26692d20", "asm": "OP_RETURN 6f6d6e69000000000000001f0000000a26692d20"}, "value": 0.0, "n": 2}], "hex": "01000000014e7d59b5380b867cce13eacd190ddfb257dce6198838f7035fffb658fc750b5901000000fdfe0000483045022100933865f888497fdb00f76c115224e9c5f31e582e32c4e77bd977afc3fdbe9a3b02202bfab12c75e70942bf1160ea2ab7822cb4f1963e0c055da8ba8743fca084c95501483045022100a555726029703a7f7ca1503b644b5705d804d38004a88ea6d1a9fb9885d9abc6022023af6533fad27544550159afa09a05f1c9faa604d3c091f3325665275a2be485014c6952210246ccf4de0c54cc7f3354cdd993c2c50cf965fd82238b89659fbd73a1b4bf05a121024fc59f72272a897fe43803374969f396058152fe4765a8d15216f94624257b1b21022593bc69ecbf3bbcc3c58082267cb49dadaf4ca8dbf1b2297338a9d628c4297653aeffffffff0322020000000000001976a914d3792d647e1a8621b068a462b9135a514f7031fb88ac38b9f5050000000017a9143f4eecba122ad73039d481c8d37f99cb4f887cd8870000000000000000166a146f6d6e69000000000000001f0000000a26692d2000000000", "vin": [{"sequence": 4294967295, "scriptSig": {"hex": "00483045022100933865f888497fdb00f76c115224e9c5f31e582e32c4e77bd977afc3fdbe9a3b02202bfab12c75e70942bf1160ea2ab7822cb4f1963e0c055da8ba8743fca084c95501483045022100a555726029703a7f7ca1503b644b5705d804d38004a88ea6d1a9fb9885d9abc6022023af6533fad27544550159afa09a05f1c9faa604d3c091f3325665275a2be485014c6952210246ccf4de0c54cc7f3354cdd993c2c50cf965fd82238b89659fbd73a1b4bf05a121024fc59f72272a897fe43803374969f396058152fe4765a8d15216f94624257b1b21022593bc69ecbf3bbcc3c58082267cb49dadaf4ca8dbf1b2297338a9d628c4297653ae", "asm": "0 3045022100933865f888497fdb00f76c115224e9c5f31e582e32c4e77bd977afc3fdbe9a3b02202bfab12c75e70942bf1160ea2ab7822cb4f1963e0c055da8ba8743fca084c955[ALL] 3045022100a555726029703a7f7ca1503b644b5705d804d38004a88ea6d1a9fb9885d9abc6022023af6533fad27544550159afa09a05f1c9faa604d3c091f3325665275a2be485[ALL] 52210246ccf4de0c54cc7f3354cdd993c2c50cf965fd82238b89659fbd73a1b4bf05a121024fc59f72272a897fe43803374969f396058152fe4765a8d15216f94624257b1b21022593bc69ecbf3bbcc3c58082267cb49dadaf4ca8dbf1b2297338a9d628c4297653ae"}, "vout": 1, "txid": "590b75fc58b6ff5f03f7388819e6dc57b2df0d19cdea13ce7c860b38b5597d4e"}], "txid": "6536cebbcc1facfe148e2955d7ad7ad207d97e640554d2259bf901328740aefe", "blocktime": 1537872018, "version": 1, "confirmations": 11489, "time": 1537872018, "locktime": 0, "vsize": 404, "size": 404}