{"hash": "65373349ce25157da3407b26dfa9f579f3a384f455af6f7cda4f6e1dc922eb48", "blockhash": "0000000000000000001cda96e906b7601b7a6fb1a3b62bca570a9e5d8f4b3de1", "vout": [{"scriptPubKey": {"reqSigs": 1, "hex": "76a914c3ca4d6c427eed832f28712fb3490d4dad36893188ac", "addresses": ["1JrF7dLF7rSRrkyzZ5uEzU99Hrmy2TaVho"], "asm": "OP_DUP OP_HASH160 c3ca4d6c427eed832f28712fb3490d4dad368931 OP_EQUALVERIFY OP_CHECKSIG", "type": "pubkeyhash"}, "value": 0.00072995, "n": 0}, {"scriptPubKey": {"reqSigs": 1, "hex": "a91479713216f576806d2c1f75643089935e3abec21287", "addresses": ["3Cm9HjAUHWDTHZ4bsS8V2z9b76KkeKv4fx"], "asm": "OP_HASH160 79713216f576806d2c1f75643089935e3abec212 OP_EQUAL", "type": "scripthash"}, "value": 0.02734283, "n": 1}], "hex": "0100000003ddf3d67390ca14edd1fa94335b633a50eca7db28450695b82f3fb44209355b0d000000006b483045022100888d60e020535676f8aee1d54ff125b0235948ca2632526a1bb48221776097050220324a5f8f2704dc4ad4ebbf8948d8b5efac2bc03332d616973340d833dabe56470121035170968f3fdebfa94fa6df0a12200cb0a334b8bcfdddb62eb324e13ce3eb5d47ffffffffb4988b653a9484451d9873df9a3d7036d45cd73379ab6a064790277763803cac000000006b483045022100a2c7adf4367594636ef0242f765ae254ba300bea8437222d7862b04b52908d4b02205d8b24a4bcc65e62b617deac37c8db2a66e2b448c41104da7f609788b018563401210357bcf2c0586717c394313f91f973d6e7f70dad176dfa49e5edf6b20c319ce4dcffffffff7432f516161f7f193591de85124a6d55ed1758d881dc26984a1dba98851d2ff5000000006b4830450221009322f08a2ce14e92ee8bf3b27b40a204edeab2f3e75a34954cc00020014d0f2a022041ab0bebad453c89f05ad38e8ac3b73d6220c907a8882dbd7788851a651a66ad012102eefc8cbefa2b4d03a02582bffbae4e7656a974006a6b2b8c81904a551c738d53ffffffff02231d0100000000001976a914c3ca4d6c427eed832f28712fb3490d4dad36893188accbb829000000000017a91479713216f576806d2c1f75643089935e3abec2128700000000", "vin": [{"sequence": 4294967295, "scriptSig": {"hex": "483045022100888d60e020535676f8aee1d54ff125b0235948ca2632526a1bb48221776097050220324a5f8f2704dc4ad4ebbf8948d8b5efac2bc03332d616973340d833dabe56470121035170968f3fdebfa94fa6df0a12200cb0a334b8bcfdddb62eb324e13ce3eb5d47", "asm": "3045022100888d60e020535676f8aee1d54ff125b0235948ca2632526a1bb48221776097050220324a5f8f2704dc4ad4ebbf8948d8b5efac2bc03332d616973340d833dabe5647[ALL] 035170968f3fdebfa94fa6df0a12200cb0a334b8bcfdddb62eb324e13ce3eb5d47"}, "vout": 0, "txid": "0d5b350942b43f2fb895064528dba7ec503a635b3394fad1ed14ca9073d6f3dd"}, {"sequence": 4294967295, "scriptSig": {"hex": "483045022100a2c7adf4367594636ef0242f765ae254ba300bea8437222d7862b04b52908d4b02205d8b24a4bcc65e62b617deac37c8db2a66e2b448c41104da7f609788b018563401210357bcf2c0586717c394313f91f973d6e7f70dad176dfa49e5edf6b20c319ce4dc", "asm": "3045022100a2c7adf4367594636ef0242f765ae254ba300bea8437222d7862b04b52908d4b02205d8b24a4bcc65e62b617deac37c8db2a66e2b448c41104da7f609788b0185634[ALL] 0357bcf2c0586717c394313f91f973d6e7f70dad176dfa49e5edf6b20c319ce4dc"}, "vout": 0, "txid": "ac3c806377279047066aab7933d75cd436703d9adf73981d4584943a658b98b4"}, {"sequence": 4294967295, "scriptSig": {"hex": "4830450221009322f08a2ce14e92ee8bf3b27b40a204edeab2f3e75a34954cc00020014d0f2a022041ab0bebad453c89f05ad38e8ac3b73d6220c907a8882dbd7788851a651a66ad012102eefc8cbefa2b4d03a02582bffbae4e7656a974006a6b2b8c81904a551c738d53", "asm": "30450221009322f08a2ce14e92ee8bf3b27b40a204edeab2f3e75a34954cc00020014d0f2a022041ab0bebad453c89f05ad38e8ac3b73d6220c907a8882dbd7788851a651a66ad[ALL] 02eefc8cbefa2b4d03a02582bffbae4e7656a974006a6b2b8c81904a551c738d53"}, "vout": 0, "txid": "f52f1d8598ba1d4a9826dc81d85817ed556d4a1285de9135197f1f1616f53274"}], "txid": "65373349ce25157da3407b26dfa9f579f3a384f455af6f7cda4f6e1dc922eb48", "blocktime": 1537873282, "version": 1, "confirmations": 11482, "time": 1537873282, "locktime": 0, "vsize": 520, "size": 520}