{"hash": "653f6260c34e978b1d4195d9e1c4526a0dffaeb7411dc4f2839301badcb7831e", "blockhash": "0000000000000000001cda96e906b7601b7a6fb1a3b62bca570a9e5d8f4b3de1", "vout": [{"scriptPubKey": {"reqSigs": 1, "hex": "76a9141ba70ce735139b45dc8e23932b5a7dbb63ffb26688ac", "addresses": ["13XDN3c3WSrHz3E7DRikLMwHdLprfENPwv"], "asm": "OP_DUP OP_HASH160 1ba70ce735139b45dc8e23932b5a7dbb63ffb266 OP_EQUALVERIFY OP_CHECKSIG", "type": "pubkeyhash"}, "value": 1.0, "n": 0}, {"scriptPubKey": {"reqSigs": 1, "hex": "76a914e4ce6dab66f3bf7e92a015fb28ce86854336b49e88ac", "addresses": ["1MrpMdm3UyXtxf6sDz1U7p2cFR2BgkV6gq"], "asm": "OP_DUP OP_HASH160 e4ce6dab66f3bf7e92a015fb28ce86854336b49e OP_EQUALVERIFY OP_CHECKSIG", "type": "pubkeyhash"}, "value": 0.47565762, "n": 1}], "hex": "01000000066f64ecf0b5e502c23062031694d9f1d855c9e004169f69ca5abd43b36627c0d6000000006a47304402202e1fecff6d1a8790b6346f67d874be85991be6fc2cd495d9726dfe629dc521440220228ee377d14e68ff702f908d76c4f45b2ee6c2fddf5c5e701cc0619590b888360121022e442c1c5839d5e6af22acfb086b4f28bb45653f0cf649f28c8382339c3f1878ffffffff364fc491a7d92c588445cac5878e304e3217a4e129da7c7b9fd27b5379fad2ca000000006a4730440220434c2fdcbd3cf1c940e9d93cb1b0ebaf56e700d3ecf86a593ff8eff322c510580220077f0627b21c724b3b0b55a2b1b3ec9cc9da3ac517ff29e4b4aafec7485aa23501210312df979f3fb245d0b8ff3045cdae8dcb6de0b623212e61777d7c95af7a35ce70ffffffff1da328774167aeb0090ac5506b0f16c611c23ebc002561d0bcff333dcce372b5010000006a4730440220558308d49332c1e312beaf6ba057c9bc8377e5082a5ee775a6da0666acc4e203022044f9ca617e35f9df3cf3f94f3c3ff04e7be4485be82c4b1e4c9cdf61d1e8bba301210312df979f3fb245d0b8ff3045cdae8dcb6de0b623212e61777d7c95af7a35ce70ffffffff2a152778fd32300d0e39df2df6ea41170a120eca2a3d93d11bef3d532ef2726f000000006b483045022100d6d1a3999766b0264fa979948884f9ae3c333d3600210e1efce239249985113702204e4827a67d8c9dd55bb27a3ca4cb948d667a435334042903acb305285f2dc38b012103b97a368d820d64128f663d104c9bf81f963bf4b1add1147cf0de91744dc42f65ffffffffec7d13e22cd131621d731a786d6d41d8c43dd9ab01bcbe30ea999a67fa48731a010000006b48304502210098d6f56775082c89ba7e2eeb782121665df09db6b5264bc7eabf67f027266759022069bd4039e883b021877d88ec081b79f5e546dfbf257f1b65425fae2b6f97a0f3012102f55c0a9d0c72ad3876f2c2aca03d2e1a89ebb2737e749d6bc332c477c8c2bf9fffffffff4aa0d2b74ba83e739c6723de199520edb85d087a714151f8320d0332c3e7287a010000006a473044022030eb57e7ae520fa5a6c9e27c6c69ef352aace073d1ac4cd71895afccdf058bed02202d4fcf510354a81ce72a6ab5d9f2517bce2486d68b6e41b6ed1ccabd5e84444f0121022bc0eecaff86434b81521d6bb2b74c83917a387c38257987c9cb352add88f987ffffffff0200e1f505000000001976a9141ba70ce735139b45dc8e23932b5a7dbb63ffb26688acc2cbd502000000001976a914e4ce6dab66f3bf7e92a015fb28ce86854336b49e88ac00000000", "vin": [{"sequence": 4294967295, "scriptSig": {"hex": "47304402202e1fecff6d1a8790b6346f67d874be85991be6fc2cd495d9726dfe629dc521440220228ee377d14e68ff702f908d76c4f45b2ee6c2fddf5c5e701cc0619590b888360121022e442c1c5839d5e6af22acfb086b4f28bb45653f0cf649f28c8382339c3f1878", "asm": "304402202e1fecff6d1a8790b6346f67d874be85991be6fc2cd495d9726dfe629dc521440220228ee377d14e68ff702f908d76c4f45b2ee6c2fddf5c5e701cc0619590b88836[ALL] 022e442c1c5839d5e6af22acfb086b4f28bb45653f0cf649f28c8382339c3f1878"}, "vout": 0, "txid": "d6c02766b343bd5aca699f1604e0c955d8f1d99416036230c202e5b5f0ec646f"}, {"sequence": 4294967295, "scriptSig": {"hex": "4730440220434c2fdcbd3cf1c940e9d93cb1b0ebaf56e700d3ecf86a593ff8eff322c510580220077f0627b21c724b3b0b55a2b1b3ec9cc9da3ac517ff29e4b4aafec7485aa23501210312df979f3fb245d0b8ff3045cdae8dcb6de0b623212e61777d7c95af7a35ce70", "asm": "30440220434c2fdcbd3cf1c940e9d93cb1b0ebaf56e700d3ecf86a593ff8eff322c510580220077f0627b21c724b3b0b55a2b1b3ec9cc9da3ac517ff29e4b4aafec7485aa235[ALL] 0312df979f3fb245d0b8ff3045cdae8dcb6de0b623212e61777d7c95af7a35ce70"}, "vout": 0, "txid": "cad2fa79537bd29f7b7cda29e1a417324e308e87c5ca4584582cd9a791c44f36"}, {"sequence": 4294967295, "scriptSig": {"hex": "4730440220558308d49332c1e312beaf6ba057c9bc8377e5082a5ee775a6da0666acc4e203022044f9ca617e35f9df3cf3f94f3c3ff04e7be4485be82c4b1e4c9cdf61d1e8bba301210312df979f3fb245d0b8ff3045cdae8dcb6de0b623212e61777d7c95af7a35ce70", "asm": "30440220558308d49332c1e312beaf6ba057c9bc8377e5082a5ee775a6da0666acc4e203022044f9ca617e35f9df3cf3f94f3c3ff04e7be4485be82c4b1e4c9cdf61d1e8bba3[ALL] 0312df979f3fb245d0b8ff3045cdae8dcb6de0b623212e61777d7c95af7a35ce70"}, "vout": 1, "txid": "b572e3cc3d33ffbcd0612500bc3ec211c6160f6b50c50a09b0ae67417728a31d"}, {"sequence": 4294967295, "scriptSig": {"hex": "483045022100d6d1a3999766b0264fa979948884f9ae3c333d3600210e1efce239249985113702204e4827a67d8c9dd55bb27a3ca4cb948d667a435334042903acb305285f2dc38b012103b97a368d820d64128f663d104c9bf81f963bf4b1add1147cf0de91744dc42f65", "asm": "3045022100d6d1a3999766b0264fa979948884f9ae3c333d3600210e1efce239249985113702204e4827a67d8c9dd55bb27a3ca4cb948d667a435334042903acb305285f2dc38b[ALL] 03b97a368d820d64128f663d104c9bf81f963bf4b1add1147cf0de91744dc42f65"}, "vout": 0, "txid": "6f72f22e533def1bd1933d2aca0e120a1741eaf62ddf390e0d3032fd7827152a"}, {"sequence": 4294967295, "scriptSig": {"hex": "48304502210098d6f56775082c89ba7e2eeb782121665df09db6b5264bc7eabf67f027266759022069bd4039e883b021877d88ec081b79f5e546dfbf257f1b65425fae2b6f97a0f3012102f55c0a9d0c72ad3876f2c2aca03d2e1a89ebb2737e749d6bc332c477c8c2bf9f", "asm": "304502210098d6f56775082c89ba7e2eeb782121665df09db6b5264bc7eabf67f027266759022069bd4039e883b021877d88ec081b79f5e546dfbf257f1b65425fae2b6f97a0f3[ALL] 02f55c0a9d0c72ad3876f2c2aca03d2e1a89ebb2737e749d6bc332c477c8c2bf9f"}, "vout": 1, "txid": "1a7348fa679a99ea30bebc01abd93dc4d8416d6d781a731d6231d12ce2137dec"}, {"sequence": 4294967295, "scriptSig": {"hex": "473044022030eb57e7ae520fa5a6c9e27c6c69ef352aace073d1ac4cd71895afccdf058bed02202d4fcf510354a81ce72a6ab5d9f2517bce2486d68b6e41b6ed1ccabd5e84444f0121022bc0eecaff86434b81521d6bb2b74c83917a387c38257987c9cb352add88f987", "asm": "3044022030eb57e7ae520fa5a6c9e27c6c69ef352aace073d1ac4cd71895afccdf058bed02202d4fcf510354a81ce72a6ab5d9f2517bce2486d68b6e41b6ed1ccabd5e84444f[ALL] 022bc0eecaff86434b81521d6bb2b74c83917a387c38257987c9cb352add88f987"}, "vout": 1, "txid": "7a28e7c332030d32f85141717a085db8ed209519de23679c733ea84bb7d2a04a"}], "txid": "653f6260c34e978b1d4195d9e1c4526a0dffaeb7411dc4f2839301badcb7831e", "blocktime": 1537873282, "version": 1, "confirmations": 11483, "time": 1537873282, "locktime": 0, "vsize": 962, "size": 962}