{"hash": "6540688ad6ffd253097f21e1555b3b5d54a66cc4b40e2514e18c86b4c6b9030f", "blockhash": "0000000000000000000baef3f32e3676a92c3b2e5da21b426e4f302fc371ce76", "vout": [{"scriptPubKey": {"reqSigs": 1, "hex": "76a914312b36905640c065a97d0720e97c68f5f0cec53e88ac", "addresses": ["15UysuGwEcYW1Kp1D3ZqFasYmDKMH9i8Rk"], "asm": "OP_DUP OP_HASH160 312b36905640c065a97d0720e97c68f5f0cec53e OP_EQUALVERIFY OP_CHECKSIG", "type": "pubkeyhash"}, "value": 0.001, "n": 0}, {"scriptPubKey": {"reqSigs": 1, "hex": "76a914e980406100f1b02d9023620d15858ca5a5fb144c88ac", "addresses": ["1NHe5mQK8w5uu6QxqnWsd6M8fPLPiYGWzA"], "asm": "OP_DUP OP_HASH160 e980406100f1b02d9023620d15858ca5a5fb144c OP_EQUALVERIFY OP_CHECKSIG", "type": "pubkeyhash"}, "value": 0.06023384, "n": 1}], "hex": "01000000011d79764042f03cafcf49005690b15f0d77c4b7677b5346748ba04c41da9b54ce010000006a473044022027a68733e0217b30715757a22ecc42dd9cc10fb7c30f5f8aa47f6a45cd68564a0220314c67bd4b1bebfe066780ae51f2e5b22a477bb184220b904ae22dacf9d5216d012103ad603f5d3610dce0c476cc5ff31b70d340cb842f4285d362fdb63d990e4c8e16ffffffff02a0860100000000001976a914312b36905640c065a97d0720e97c68f5f0cec53e88acd8e85b00000000001976a914e980406100f1b02d9023620d15858ca5a5fb144c88ac00000000", "vin": [{"sequence": 4294967295, "scriptSig": {"hex": "473044022027a68733e0217b30715757a22ecc42dd9cc10fb7c30f5f8aa47f6a45cd68564a0220314c67bd4b1bebfe066780ae51f2e5b22a477bb184220b904ae22dacf9d5216d012103ad603f5d3610dce0c476cc5ff31b70d340cb842f4285d362fdb63d990e4c8e16", "asm": "3044022027a68733e0217b30715757a22ecc42dd9cc10fb7c30f5f8aa47f6a45cd68564a0220314c67bd4b1bebfe066780ae51f2e5b22a477bb184220b904ae22dacf9d5216d[ALL] 03ad603f5d3610dce0c476cc5ff31b70d340cb842f4285d362fdb63d990e4c8e16"}, "vout": 1, "txid": "ce549bda414ca08b7446537b67b7c4770d5fb190560049cfaf3cf0424076791d"}], "txid": "6540688ad6ffd253097f21e1555b3b5d54a66cc4b40e2514e18c86b4c6b9030f", "blocktime": 1537876114, "version": 1, "confirmations": 11459, "time": 1537876114, "locktime": 0, "vsize": 225, "size": 225}