{"hash": "65420fdd4fbfdbfde8bb3def1aae8280fb3f8303a36d6d78a584c9a8cb89350f", "blockhash": "0000000000000000001cda96e906b7601b7a6fb1a3b62bca570a9e5d8f4b3de1", "vout": [{"scriptPubKey": {"reqSigs": 1, "hex": "76a914e09e812fb1a4b7041bb13cfc01ea93ee7816d73088ac", "addresses": ["1MUgF4mrPfLmrZDDi7y6xTkDVqndCMBgQX"], "asm": "OP_DUP OP_HASH160 e09e812fb1a4b7041bb13cfc01ea93ee7816d730 OP_EQUALVERIFY OP_CHECKSIG", "type": "pubkeyhash"}, "value": 0.01641854, "n": 0}, {"scriptPubKey": {"reqSigs": 1, "hex": "76a914d246080f83085e105d04934c57d72795a37396fd88ac", "addresses": ["1LApoA8THJPJeB7gecHgfF2tAGJX9omTnw"], "asm": "OP_DUP OP_HASH160 d246080f83085e105d04934c57d72795a37396fd OP_EQUALVERIFY OP_CHECKSIG", "type": "pubkeyhash"}, "value": 0.03781093, "n": 1}], "hex": "01000000025dd61897b77fed289c759e191f3e8d68b8fb4a1467d0cbe5e02a0f3f151063c5010000006a473044022049a6e9c1444847c8991531546cae62d5658031bb9149401a3c13eca22d6f182102205fab7f00170a4f230dbafe9ad7b3e65f90b0c77e7cd704e55fa504c5075dc618012102f684a701c6c250fcc2402c7a5622155febad8fc6ca1961aa2c7225b43602d1cfffffffff607013e6c7028152157157173efd316c34b5e541a2df0d74f970ceb98af634d5000000006a47304402206b2e1372379c843b8f854f18af394370ae89ead45b7733854d73021f556378940220675c7a8addcbce279f09ebc1849b1673bdbc98de3585863322448e89b2f1ad91012102498c96b9c40e2cefb4a35a28e5e79e08429f1476dfda636b9fe1cf6e27736564ffffffff027e0d1900000000001976a914e09e812fb1a4b7041bb13cfc01ea93ee7816d73088ace5b13900000000001976a914d246080f83085e105d04934c57d72795a37396fd88ac00000000", "vin": [{"sequence": 4294967295, "scriptSig": {"hex": "473044022049a6e9c1444847c8991531546cae62d5658031bb9149401a3c13eca22d6f182102205fab7f00170a4f230dbafe9ad7b3e65f90b0c77e7cd704e55fa504c5075dc618012102f684a701c6c250fcc2402c7a5622155febad8fc6ca1961aa2c7225b43602d1cf", "asm": "3044022049a6e9c1444847c8991531546cae62d5658031bb9149401a3c13eca22d6f182102205fab7f00170a4f230dbafe9ad7b3e65f90b0c77e7cd704e55fa504c5075dc618[ALL] 02f684a701c6c250fcc2402c7a5622155febad8fc6ca1961aa2c7225b43602d1cf"}, "vout": 1, "txid": "c56310153f0f2ae0e5cbd067144afbb8688d3e1f199e759c28ed7fb79718d65d"}, {"sequence": 4294967295, "scriptSig": {"hex": "47304402206b2e1372379c843b8f854f18af394370ae89ead45b7733854d73021f556378940220675c7a8addcbce279f09ebc1849b1673bdbc98de3585863322448e89b2f1ad91012102498c96b9c40e2cefb4a35a28e5e79e08429f1476dfda636b9fe1cf6e27736564", "asm": "304402206b2e1372379c843b8f854f18af394370ae89ead45b7733854d73021f556378940220675c7a8addcbce279f09ebc1849b1673bdbc98de3585863322448e89b2f1ad91[ALL] 02498c96b9c40e2cefb4a35a28e5e79e08429f1476dfda636b9fe1cf6e27736564"}, "vout": 0, "txid": "d534f68ab9ce70f9740ddfa241e5b5346c31fd3e17577115528102c7e6137060"}], "txid": "65420fdd4fbfdbfde8bb3def1aae8280fb3f8303a36d6d78a584c9a8cb89350f", "blocktime": 1537873282, "version": 1, "confirmations": 11484, "time": 1537873282, "locktime": 0, "vsize": 372, "size": 372}