{"hash": "65451d777f1f77200052a913966d9af3d5df713ebd239fc082fc980b8287a411", "blockhash": "0000000000000000001cda96e906b7601b7a6fb1a3b62bca570a9e5d8f4b3de1", "vout": [{"scriptPubKey": {"reqSigs": 1, "hex": "a914f7f67cdb1e3bc89f827ec2420b83e96e2f9dee4987", "addresses": ["3QJ87C8oU5tZHkA6pH4JFMEBZUeSv9JntK"], "asm": "OP_HASH160 f7f67cdb1e3bc89f827ec2420b83e96e2f9dee49 OP_EQUAL", "type": "scripthash"}, "value": 0.00157, "n": 0}, {"scriptPubKey": {"reqSigs": 1, "hex": "76a914e349bc52d6b8100b58d3fce45135a91c5c128a1d88ac", "addresses": ["1MiningDkXkhKaXBTMKXfLemnk1YY5rbkT"], "asm": "OP_DUP OP_HASH160 e349bc52d6b8100b58d3fce45135a91c5c128a1d OP_EQUALVERIFY OP_CHECKSIG", "type": "pubkeyhash"}, "value": 0.07961212, "n": 1}], "hex": "0200000001f8c59b648df8f012c5cc07144d2d227244f9ac5a82d4b14f1dc2a5cc9b4168fc010000008b4830450221009c9a770c72cfa1bc53063cfbad0c4516be0ba91daf5a58274809aacc843f66ac02201a05b18b8121b0c55dbf9ec558ad0db0b6eb7e41edeb70c7795fd6f3e3d0ef4b014104ae414abde7876c34e01694b38b2341d10b9b4c8db18a66262bd8df26bcb57893885c9fe8b79aa25330d5f05bb5aa9ab636a908a72e27956572b44190b22809beffffffff02486502000000000017a914f7f67cdb1e3bc89f827ec2420b83e96e2f9dee49877c7a7900000000001976a914e349bc52d6b8100b58d3fce45135a91c5c128a1d88ac00000000", "vin": [{"sequence": 4294967295, "scriptSig": {"hex": "4830450221009c9a770c72cfa1bc53063cfbad0c4516be0ba91daf5a58274809aacc843f66ac02201a05b18b8121b0c55dbf9ec558ad0db0b6eb7e41edeb70c7795fd6f3e3d0ef4b014104ae414abde7876c34e01694b38b2341d10b9b4c8db18a66262bd8df26bcb57893885c9fe8b79aa25330d5f05bb5aa9ab636a908a72e27956572b44190b22809be", "asm": "30450221009c9a770c72cfa1bc53063cfbad0c4516be0ba91daf5a58274809aacc843f66ac02201a05b18b8121b0c55dbf9ec558ad0db0b6eb7e41edeb70c7795fd6f3e3d0ef4b[ALL] 04ae414abde7876c34e01694b38b2341d10b9b4c8db18a66262bd8df26bcb57893885c9fe8b79aa25330d5f05bb5aa9ab636a908a72e27956572b44190b22809be"}, "vout": 1, "txid": "fc68419bcca5c21d4fb1d4825aacf94472222d4d1407ccc512f0f88d649bc5f8"}], "txid": "65451d777f1f77200052a913966d9af3d5df713ebd239fc082fc980b8287a411", "blocktime": 1537873282, "version": 2, "confirmations": 11484, "time": 1537873282, "locktime": 0, "vsize": 256, "size": 256}