{"hash": "65479e2bab98e5657c47a54b2cbf0b459b4e9e43f6eab562db2ec3a5bdddf9dd", "blockhash": "000000000000000000022b45ed06c6f4ccd3cf7fb5ba4856ebd2e58215665228", "vout": [{"scriptPubKey": {"type": "nulldata", "hex": "6a4c50000077630001749bbac1187ac65c4f552a3886aeaeacb577c031fc3a016b46dc7dc7d0963749a92fdba98ac8b9f5e7b29ec4091d5baa07d40612b3915962d87c1d100759d4ba30d2c37bb011d97e02cf", "asm": "OP_RETURN 000077630001749bbac1187ac65c4f552a3886aeaeacb577c031fc3a016b46dc7dc7d0963749a92fdba98ac8b9f5e7b29ec4091d5baa07d40612b3915962d87c1d100759d4ba30d2c37bb011d97e02cf"}, "value": 0.0, "n": 0}, {"scriptPubKey": {"reqSigs": 1, "hex": "76a914f9e9fc575eebd43a7e382314a5151768bb2ea07c88ac", "addresses": ["1PnRZNuu2QNUZ9hzGcbCeMnPawJes8aZjv"], "asm": "OP_DUP OP_HASH160 f9e9fc575eebd43a7e382314a5151768bb2ea07c OP_EQUALVERIFY OP_CHECKSIG", "type": "pubkeyhash"}, "value": 0.00655145, "n": 1}], "hex": "0100000001984af0d1df573bf8d6d1e24e29524762814e712ce1a78b34e75b7feb79a42282010000006a47304402201fd0f1037ffcb0708182f671bc485fecd9c500b2c4fb3177c0165d965b2a368702207fc9e547bb46d1c714d0f8bacd5d005452f310c612df480bad712df3110aec660121029fb5074884077cc0434d59fedc68699ac7ece96b90370104cd0500e7f6041e1bffffffff020000000000000000536a4c50000077630001749bbac1187ac65c4f552a3886aeaeacb577c031fc3a016b46dc7dc7d0963749a92fdba98ac8b9f5e7b29ec4091d5baa07d40612b3915962d87c1d100759d4ba30d2c37bb011d97e02cf29ff0900000000001976a914f9e9fc575eebd43a7e382314a5151768bb2ea07c88ac00000000", "vin": [{"sequence": 4294967295, "scriptSig": {"hex": "47304402201fd0f1037ffcb0708182f671bc485fecd9c500b2c4fb3177c0165d965b2a368702207fc9e547bb46d1c714d0f8bacd5d005452f310c612df480bad712df3110aec660121029fb5074884077cc0434d59fedc68699ac7ece96b90370104cd0500e7f6041e1b", "asm": "304402201fd0f1037ffcb0708182f671bc485fecd9c500b2c4fb3177c0165d965b2a368702207fc9e547bb46d1c714d0f8bacd5d005452f310c612df480bad712df3110aec66[ALL] 029fb5074884077cc0434d59fedc68699ac7ece96b90370104cd0500e7f6041e1b"}, "vout": 1, "txid": "8222a479eb7f5be7348ba7e12c714e81624752294ee2d1d6f83b57dfd1f04a98"}], "txid": "65479e2bab98e5657c47a54b2cbf0b459b4e9e43f6eab562db2ec3a5bdddf9dd", "blocktime": 1537869901, "version": 1, "confirmations": 11523, "time": 1537869901, "locktime": 0, "vsize": 283, "size": 283}