{"hash": "654b2ef071503e66875c5c4260f50b4a27c8565853efe02ffeba8c6653c97ad9", "blockhash": "0000000000000000001e0dab787dd257d1dbfcb92a98c2207d5e1078be1f4165", "vout": [{"scriptPubKey": {"type": "nulldata", "hex": "6a4c50000077b00001f2289f724a7e0bbbfb737760af6c953dd567cf27e7e3ef3236678a6250979402b35ca0835fc3b2e4fcfe24b3cddc5baa11790611b99a0107d7ecbc9a9526289ac0f6612cd74e33776ee4", "asm": "OP_RETURN 000077b00001f2289f724a7e0bbbfb737760af6c953dd567cf27e7e3ef3236678a6250979402b35ca0835fc3b2e4fcfe24b3cddc5baa11790611b99a0107d7ecbc9a9526289ac0f6612cd74e33776ee4"}, "value": 0.0, "n": 0}, {"scriptPubKey": {"reqSigs": 1, "hex": "76a9146fe93df65eaeb68d92be4e201ee0937172593fc788ac", "addresses": ["1BCjREb4eH55f7TdsgHU3MwtpGD5XR35vB"], "asm": "OP_DUP OP_HASH160 6fe93df65eaeb68d92be4e201ee0937172593fc7 OP_EQUALVERIFY OP_CHECKSIG", "type": "pubkeyhash"}, "value": 0.00140484, "n": 1}], "hex": "01000000018fed80804e2d66ebb834bf4f0adf758840701a015316507680c7379f533fa2db000000006b483045022100e0d2b73e564f238c11e4f1e28ba34426a742540339b6bd667bc43f81ba2e3e1202201e8f251da77e40b4023fb02ec88ab434dcfb5ae9de8c5515bdbede367e0ec87c01210328cb79cf81c4a3fd9f95a361781c049c648d1ff6726c5af6d500d4c932227f87ffffffff020000000000000000536a4c50000077b00001f2289f724a7e0bbbfb737760af6c953dd567cf27e7e3ef3236678a6250979402b35ca0835fc3b2e4fcfe24b3cddc5baa11790611b99a0107d7ecbc9a9526289ac0f6612cd74e33776ee4c4240200000000001976a9146fe93df65eaeb68d92be4e201ee0937172593fc788ac00000000", "vin": [{"sequence": 4294967295, "scriptSig": {"hex": "483045022100e0d2b73e564f238c11e4f1e28ba34426a742540339b6bd667bc43f81ba2e3e1202201e8f251da77e40b4023fb02ec88ab434dcfb5ae9de8c5515bdbede367e0ec87c01210328cb79cf81c4a3fd9f95a361781c049c648d1ff6726c5af6d500d4c932227f87", "asm": "3045022100e0d2b73e564f238c11e4f1e28ba34426a742540339b6bd667bc43f81ba2e3e1202201e8f251da77e40b4023fb02ec88ab434dcfb5ae9de8c5515bdbede367e0ec87c[ALL] 0328cb79cf81c4a3fd9f95a361781c049c648d1ff6726c5af6d500d4c932227f87"}, "vout": 0, "txid": "dba23f539f37c78076501653011a70408875df0a4fbf34b8eb662d4e8080ed8f"}], "txid": "654b2ef071503e66875c5c4260f50b4a27c8565853efe02ffeba8c6653c97ad9", "blocktime": 1537872475, "version": 1, "confirmations": 11486, "time": 1537872475, "locktime": 0, "vsize": 284, "size": 284}