{"hash": "654d4fc912d6cd134b54699b746f68a8f43db355b14551bee26319183b6a8575", "blockhash": "00000000000000000018f53835495a110e01622372bf6ae95dc86f2b0ab887b0", "vout": [{"scriptPubKey": {"reqSigs": 1, "hex": "76a9149bfd22d000bbbc64e985e2ae792bc9cfeb6c187c88ac", "addresses": ["1FDnyvxqFFQCY8NBQrTNAahiz7go7cQKuC"], "asm": "OP_DUP OP_HASH160 9bfd22d000bbbc64e985e2ae792bc9cfeb6c187c OP_EQUALVERIFY OP_CHECKSIG", "type": "pubkeyhash"}, "value": 0.00552398, "n": 0}, {"scriptPubKey": {"reqSigs": 1, "hex": "a9143f39949e7286dd86a5493dffa33538d0e600d38f87", "addresses": ["37TKUPt6bcVhr2TzqCaVM2P7Bb4VBuS1b9"], "asm": "OP_HASH160 3f39949e7286dd86a5493dffa33538d0e600d38f OP_EQUAL", "type": "scripthash"}, "value": 0.01, "n": 1}], "hex": "0100000001c870929ac9e1cf9cf4170c8704b82c8deb709c6ac36ac917709164504b65d16b010000006a4730440220286db0ebc2058cfe9b43e0fb9019e0e7d92e738afda74b69602d34c4bf9f090102205b451dc56e6f47e78931be88ba978338d089fc605dd5d73b00a9115208e0499d012102cc79b30b9bfd3c0879f2d0de98dc4459ee8963f22f718c196103a9b7b861e3b1ffffffff02ce6d0800000000001976a9149bfd22d000bbbc64e985e2ae792bc9cfeb6c187c88ac40420f000000000017a9143f39949e7286dd86a5493dffa33538d0e600d38f8700000000", "vin": [{"sequence": 4294967295, "scriptSig": {"hex": "4730440220286db0ebc2058cfe9b43e0fb9019e0e7d92e738afda74b69602d34c4bf9f090102205b451dc56e6f47e78931be88ba978338d089fc605dd5d73b00a9115208e0499d012102cc79b30b9bfd3c0879f2d0de98dc4459ee8963f22f718c196103a9b7b861e3b1", "asm": "30440220286db0ebc2058cfe9b43e0fb9019e0e7d92e738afda74b69602d34c4bf9f090102205b451dc56e6f47e78931be88ba978338d089fc605dd5d73b00a9115208e0499d[ALL] 02cc79b30b9bfd3c0879f2d0de98dc4459ee8963f22f718c196103a9b7b861e3b1"}, "vout": 1, "txid": "6bd1654b5064917017c96ac36a9c70eb8d2cb804870c17f49ccfe1c99a9270c8"}], "txid": "654d4fc912d6cd134b54699b746f68a8f43db355b14551bee26319183b6a8575", "blocktime": 1537870928, "version": 1, "confirmations": 11514, "time": 1537870928, "locktime": 0, "vsize": 223, "size": 223}