{"hash": "66bbecec670761320efa3f49b030f2a357e056073156da9616aaaa1b088addca", "blockhash": "0000000000000000001f76057863aec43deb6fa401d9628bb513d65a8098bfab", "vout": [{"scriptPubKey": {"reqSigs": 1, "hex": "76a9145765d151ed725076ca70edb9a867a436b6c7233a88ac", "addresses": ["18y7m72yCMavcJEG7DPQstZkUSUV5vt2hB"], "asm": "OP_DUP OP_HASH160 5765d151ed725076ca70edb9a867a436b6c7233a OP_EQUALVERIFY OP_CHECKSIG", "type": "pubkeyhash"}, "value": 0.0026826, "n": 0}, {"scriptPubKey": {"reqSigs": 1, "hex": "a91455f15a626428c8d6d937867a43d2985a3a2f8cee87", "addresses": ["39XSVMVo3E3eQgECStSNLUwYK7Ed44JfPK"], "asm": "OP_HASH160 55f15a626428c8d6d937867a43d2985a3a2f8cee OP_EQUAL", "type": "scripthash"}, "value": 0.01038846, "n": 1}], "hex": "02000000000102bfb87accde3a7601159d43aedd6a19144fbdd9b502945f0976a9ca3aedc1f63700000000171600142cc8caa4781806cd13014d4585af6ca69cc52941feffffffe80fe32e16689d1d88bdd2ecca87ab72af95e1d50da698492197da3672378e7b180000001716001409c82d61ec291b068e65843263015c7e7a07b33cfeffffff02e4170400000000001976a9145765d151ed725076ca70edb9a867a436b6c7233a88acfed90f000000000017a91455f15a626428c8d6d937867a43d2985a3a2f8cee870247304402202e8a23e6213d3ea5819f46ac7f7e24e31ff0021716d7e852a45166437292ba9302205fdd195d0dfadf52f73a2a0ef5e04977c1783442e7380a38451d54dbb11d99780121024f3d74b1dae97f83233f70bdbb2554eef3caf5cf45dcec32abb0a951ef946dd002483045022100c80d16b3a0f53c577c5abd2bff57c155f089b2203b1d2371853950d038383be102207bcc02979f2186e09e042452c8b560ef653df47f90a1bdf6a625559d9c9d2dc70121028b63cc78190c7211cb82deb526c71cc71c4f92b6447d8f560f11aaca564a978813490800", "vin": [{"txinwitness": ["304402202e8a23e6213d3ea5819f46ac7f7e24e31ff0021716d7e852a45166437292ba9302205fdd195d0dfadf52f73a2a0ef5e04977c1783442e7380a38451d54dbb11d997801", "024f3d74b1dae97f83233f70bdbb2554eef3caf5cf45dcec32abb0a951ef946dd0"], "sequence": 4294967294, "scriptSig": {"hex": "1600142cc8caa4781806cd13014d4585af6ca69cc52941", "asm": "00142cc8caa4781806cd13014d4585af6ca69cc52941"}, "vout": 0, "txid": "37f6c1ed3acaa976095f9402b5d9bd4f14196addae439d1501763adecc7ab8bf"}, {"txinwitness": ["3045022100c80d16b3a0f53c577c5abd2bff57c155f089b2203b1d2371853950d038383be102207bcc02979f2186e09e042452c8b560ef653df47f90a1bdf6a625559d9c9d2dc701", "028b63cc78190c7211cb82deb526c71cc71c4f92b6447d8f560f11aaca564a9788"], "sequence": 4294967294, "scriptSig": {"hex": "16001409c82d61ec291b068e65843263015c7e7a07b33c", "asm": "001409c82d61ec291b068e65843263015c7e7a07b33c"}, "vout": 24, "txid": "7b8e377236da97214998a60dd5e195af72ab87caecd2bd881d9d68162ee30fe8"}], "txid": "654df75fa93e8e0b23020727daa4b86e78aee2961d42c7c4fa85b4ccdbeffb74", "blocktime": 1537873891, "version": 2, "confirmations": 11478, "time": 1537873891, "locktime": 542995, "vsize": 259, "size": 421}