{"hash": "654e6e2e42a7dd25ba3692010edc4d4d79cbd7b1bbb3090c443d1ff5b5525bb0", "blockhash": "0000000000000000000e13cef7c366c0283d82e591d1acd082e914b08063cdf1", "vout": [{"scriptPubKey": {"reqSigs": 1, "hex": "a914c03c24f7011d104d7a68316639a1cb4ff2344ed587", "addresses": ["3KDTiHFNKrxvUmMxcCRf3mPmpbhEkkQarM"], "asm": "OP_HASH160 c03c24f7011d104d7a68316639a1cb4ff2344ed5 OP_EQUAL", "type": "scripthash"}, "value": 0.005, "n": 0}, {"scriptPubKey": {"reqSigs": 1, "hex": "a914e508faec50f6e084a328b63fcc47794925356e8787", "addresses": ["3Na3RRfBN8B7NDVEECP9uCz6qN1frWSp7Q"], "asm": "OP_HASH160 e508faec50f6e084a328b63fcc47794925356e87 OP_EQUAL", "type": "scripthash"}, "value": 0.01511283, "n": 1}, {"scriptPubKey": {"reqSigs": 1, "hex": "76a91450ec7104a768a34c8bc98d3d327c1394dd64277088ac", "addresses": ["18NtJb7yYG7seQmDBaPcHFmE5DvFswzDQx"], "asm": "OP_DUP OP_HASH160 50ec7104a768a34c8bc98d3d327c1394dd642770 OP_EQUALVERIFY OP_CHECKSIG", "type": "pubkeyhash"}, "value": 0.05361996, "n": 2}, {"scriptPubKey": {"reqSigs": 1, "hex": "a914ab54912197955099538e6caa78a76d8c62c65e7987", "addresses": ["3HJvnAC6AEfRdocrXbcktx6m3SMirCmTrP"], "asm": "OP_HASH160 ab54912197955099538e6caa78a76d8c62c65e79 OP_EQUAL", "type": "scripthash"}, "value": 0.18901546, "n": 3}, {"scriptPubKey": {"reqSigs": 1, "hex": "a9142b18b37ec65102a5236e5a584c0259dcf390de6987", "addresses": ["35cta4MdRvwqaAb24MxFZAphpfDnwx9oXL"], "asm": "OP_HASH160 2b18b37ec65102a5236e5a584c0259dcf390de69 OP_EQUAL", "type": "scripthash"}, "value": 3.74697407, "n": 4}, {"scriptPubKey": {"reqSigs": 1, "hex": "76a91443849383122ebb8a28268a89700c9f723663b5b888ac", "addresses": ["17A16QmavnUfCW11DAApiJxp7ARnxN5pGX"], "asm": "OP_DUP OP_HASH160 43849383122ebb8a28268a89700c9f723663b5b8 OP_EQUALVERIFY OP_CHECKSIG", "type": "pubkeyhash"}, "value": 133.78653778, "n": 5}], "hex": "02000000010df873af59fdd3eb1f171b5f358defd3838bf1e9aa809e24a4dabe9cb3ab29ac040000008a47304402204f135209b8ad40d5e4357d1fbab383df0beabd4649a946066d6ace7f34c86df502204304e04a45bc4fc51bcc52e51162117aeb4f451f537132da132035caf30621e20141047146f0e0fcb3139947cf0beb870fe251930ca10d4545793d31033e801b5219abf56c11a3cf3406ca590e4c14b0dab749d20862b3adc4709153c280c2a78be10cffffffff0620a107000000000017a914c03c24f7011d104d7a68316639a1cb4ff2344ed587730f17000000000017a914e508faec50f6e084a328b63fcc47794925356e87874cd15100000000001976a91450ec7104a768a34c8bc98d3d327c1394dd64277088ac2a6a20010000000017a914ab54912197955099538e6caa78a76d8c62c65e7987bf6d55160000000017a9142b18b37ec65102a5236e5a584c0259dcf390de6987520e6e1d030000001976a91443849383122ebb8a28268a89700c9f723663b5b888ac00000000", "vin": [{"sequence": 4294967295, "scriptSig": {"hex": "47304402204f135209b8ad40d5e4357d1fbab383df0beabd4649a946066d6ace7f34c86df502204304e04a45bc4fc51bcc52e51162117aeb4f451f537132da132035caf30621e20141047146f0e0fcb3139947cf0beb870fe251930ca10d4545793d31033e801b5219abf56c11a3cf3406ca590e4c14b0dab749d20862b3adc4709153c280c2a78be10c", "asm": "304402204f135209b8ad40d5e4357d1fbab383df0beabd4649a946066d6ace7f34c86df502204304e04a45bc4fc51bcc52e51162117aeb4f451f537132da132035caf30621e2[ALL] 047146f0e0fcb3139947cf0beb870fe251930ca10d4545793d31033e801b5219abf56c11a3cf3406ca590e4c14b0dab749d20862b3adc4709153c280c2a78be10c"}, "vout": 4, "txid": "ac29abb39cbedaa4249e80aae9f18b83d3ef8d355f1b171febd3fd59af73f80d"}], "txid": "654e6e2e42a7dd25ba3692010edc4d4d79cbd7b1bbb3090c443d1ff5b5525bb0", "blocktime": 1537871767, "version": 2, "confirmations": 11490, "time": 1537871767, "locktime": 0, "vsize": 385, "size": 385}