{"hash": "6556aa0598b921c1b5b90334f94d2112bbf47494e235c6033f2f72876b446899", "blockhash": "0000000000000000001cda96e906b7601b7a6fb1a3b62bca570a9e5d8f4b3de1", "vout": [{"scriptPubKey": {"reqSigs": 1, "hex": "a914bafb384cfc3cbc31063d94a61cba7e8955a4775287", "addresses": ["3JjgZHonsho2peCJSEo817R1PtN8x4Tp8f"], "asm": "OP_HASH160 bafb384cfc3cbc31063d94a61cba7e8955a47752 OP_EQUAL", "type": "scripthash"}, "value": 0.00475738, "n": 0}, {"scriptPubKey": {"reqSigs": 1, "hex": "76a914ee21ad3a8c1bd40c9bcb16fc05a31da7f1d1232188ac", "addresses": ["1Ni8AZ1yMeertpjiEugXNuDE9dHRRmCUkR"], "asm": "OP_DUP OP_HASH160 ee21ad3a8c1bd40c9bcb16fc05a31da7f1d12321 OP_EQUALVERIFY OP_CHECKSIG", "type": "pubkeyhash"}, "value": 0.01541475, "n": 1}], "hex": "01000000017ec7dabe3b8c63975e36cfd2e244dc114d79c5042c162f62504c9b8d37f6740f010000006b483045022100a7b59b1a28437b7b03e1e5b9db9ca3863765ab94610c75a229898afb9a6bf36502201dfcf31f45439240f1a7c5c1297f2dcec6099882706b41bc9612db1e2f3eefc5012103b4295ddfcbea9631b9f1d9bb56ec8eb0b6e054b292b0b90cbba54d02db177ca8ffffffff025a4207000000000017a914bafb384cfc3cbc31063d94a61cba7e8955a477528763851700000000001976a914ee21ad3a8c1bd40c9bcb16fc05a31da7f1d1232188ac00000000", "vin": [{"sequence": 4294967295, "scriptSig": {"hex": "483045022100a7b59b1a28437b7b03e1e5b9db9ca3863765ab94610c75a229898afb9a6bf36502201dfcf31f45439240f1a7c5c1297f2dcec6099882706b41bc9612db1e2f3eefc5012103b4295ddfcbea9631b9f1d9bb56ec8eb0b6e054b292b0b90cbba54d02db177ca8", "asm": "3045022100a7b59b1a28437b7b03e1e5b9db9ca3863765ab94610c75a229898afb9a6bf36502201dfcf31f45439240f1a7c5c1297f2dcec6099882706b41bc9612db1e2f3eefc5[ALL] 03b4295ddfcbea9631b9f1d9bb56ec8eb0b6e054b292b0b90cbba54d02db177ca8"}, "vout": 1, "txid": "0f74f6378d9b4c50622f162c04c5794d11dc44e2d2cf365e97638c3bbedac77e"}], "txid": "6556aa0598b921c1b5b90334f94d2112bbf47494e235c6033f2f72876b446899", "blocktime": 1537873282, "version": 1, "confirmations": 11485, "time": 1537873282, "locktime": 0, "vsize": 224, "size": 224}