{"hash": "655a72d67cdbac96c30013b1ad5eefcab4af30a464639dd3a3be3bff53a9e074", "blockhash": "0000000000000000001cda96e906b7601b7a6fb1a3b62bca570a9e5d8f4b3de1", "vout": [{"scriptPubKey": {"reqSigs": 1, "hex": "76a914dd0ea4d11a643a0f1eda70f9be3acece39fc90d088ac", "addresses": ["1M9qss9kvzaN1vEFx5WKLMSyCrGPtc9QE4"], "asm": "OP_DUP OP_HASH160 dd0ea4d11a643a0f1eda70f9be3acece39fc90d0 OP_EQUALVERIFY OP_CHECKSIG", "type": "pubkeyhash"}, "value": 0.0017042, "n": 0}, {"scriptPubKey": {"reqSigs": 1, "hex": "a91441ae0451e584bc89829b5ea248d51e44ca0f0cce87", "addresses": ["37gJJv9YSMzx72dzf4kf26W2CT69KFkKSG"], "asm": "OP_HASH160 41ae0451e584bc89829b5ea248d51e44ca0f0cce OP_EQUAL", "type": "scripthash"}, "value": 0.00249857, "n": 1}], "hex": "01000000015b04b49925424da4824e27df3a4e59c871e78215ec921af0c1f6ddb9d61271e3000000006b483045022100adee9eb626362047195ee808f96844e7450b69fe752d3c1685be9c271e2c099f02201c42024aa0836fc8bb682913327a8f4346b3f0b7cddc5f5f88872a16afd81a4b012102d34afd483f5fc185738b5184615ca0f3b9b8eb49717be117b1f9b5a13c42a731ffffffff02b4990200000000001976a914dd0ea4d11a643a0f1eda70f9be3acece39fc90d088ac01d003000000000017a91441ae0451e584bc89829b5ea248d51e44ca0f0cce8700000000", "vin": [{"sequence": 4294967295, "scriptSig": {"hex": "483045022100adee9eb626362047195ee808f96844e7450b69fe752d3c1685be9c271e2c099f02201c42024aa0836fc8bb682913327a8f4346b3f0b7cddc5f5f88872a16afd81a4b012102d34afd483f5fc185738b5184615ca0f3b9b8eb49717be117b1f9b5a13c42a731", "asm": "3045022100adee9eb626362047195ee808f96844e7450b69fe752d3c1685be9c271e2c099f02201c42024aa0836fc8bb682913327a8f4346b3f0b7cddc5f5f88872a16afd81a4b[ALL] 02d34afd483f5fc185738b5184615ca0f3b9b8eb49717be117b1f9b5a13c42a731"}, "vout": 0, "txid": "e37112d6b9ddf6c1f01a92ec1582e771c8594e3adf274e82a44d422599b4045b"}], "txid": "655a72d67cdbac96c30013b1ad5eefcab4af30a464639dd3a3be3bff53a9e074", "blocktime": 1537873282, "version": 1, "confirmations": 11484, "time": 1537873282, "locktime": 0, "vsize": 224, "size": 224}