{"hash": "65683269e5b9140c82d744c81728ca6ec4562a3f67737daec6b0be39c6ca96c3", "blockhash": "0000000000000000001f0ddff1eddb255c1121bcd4da4f1bc9a0da00cae72433", "vout": [{"scriptPubKey": {"reqSigs": 1, "hex": "76a914fd3ec55b2ae79a0aebfcfe618f57f102f868d08c88ac", "addresses": ["1Q639w8RibzVdEj5L5WrqKBTqdz3cYkdUW"], "asm": "OP_DUP OP_HASH160 fd3ec55b2ae79a0aebfcfe618f57f102f868d08c OP_EQUALVERIFY OP_CHECKSIG", "type": "pubkeyhash"}, "value": 5.02825866, "n": 0}], "hex": "010000000502bbcde65fe341b0a72d930cfffea6faa754e001b9d2e44439a2e1894b327205010000006a4730440220448699aa919d583d426ec7ad62f807b633b80e1f2fec665145e6e5de53c4757d02204cfd76ae57783e6aa549d62a6d8b73229de25bb900daa2c8c5b274c28da8c716012103b73e2a605b3ca3e4e79d75ef3002173fa117aa8da338b86d3a26d60fb48a37eafdffffff08e0f9a3d94b4248f1d90c99f1a19db86bf1b3f3a30a38953b53c2c905eb8338010000006a47304402205696e5b0a735f4e83755197bc844f8036f113bdc62bc8b589db7c8b12d9d484602202cde4e3c653517a3ebc1dd83dac87a507158942cec1828e6abcc6050cde0561b012103b73e2a605b3ca3e4e79d75ef3002173fa117aa8da338b86d3a26d60fb48a37eafdffffff86f2374597610ce79095101d64c4da695f47b06365317797d168792c0035416b010000006a47304402200d4afb757121928ab74459ec93de48faae87a166424aeac36a6926fb1c92fbf602206349deb10bfc2253927e80efea73f4340be0b2da64b935d3bde1a9c46f237332012103b73e2a605b3ca3e4e79d75ef3002173fa117aa8da338b86d3a26d60fb48a37eafdffffffcf100baa2cace91f49951306f204031b19984b03fed4e87375dc9f6607b102ad010000006a47304402206b373c358ee008809c1521b770dba57ae35d0e834e4d302b64631acd1205e640022067c0b01570f7a84f8bc757f4f26a2532c296fbbeaf59c6f56164e9f5e9f28a61012103b73e2a605b3ca3e4e79d75ef3002173fa117aa8da338b86d3a26d60fb48a37eafdffffff162f8a989c30efe9283553e3b9c206f2d55481f21cd31372c4123b969ca9a4b5010000006b483045022100ff2f1b14de22f8281544defb07c178747e3587acfe2ede547c20dc616f45252c022033351a96f54edc0a03c5c4b579fe51dcff47567fa07776a29d4551dadc13f2e2012103b73e2a605b3ca3e4e79d75ef3002173fa117aa8da338b86d3a26d60fb48a37eafdffffff018a83f81d000000001976a914fd3ec55b2ae79a0aebfcfe618f57f102f868d08c88ac11490800", "vin": [{"sequence": 4294967293, "scriptSig": {"hex": "4730440220448699aa919d583d426ec7ad62f807b633b80e1f2fec665145e6e5de53c4757d02204cfd76ae57783e6aa549d62a6d8b73229de25bb900daa2c8c5b274c28da8c716012103b73e2a605b3ca3e4e79d75ef3002173fa117aa8da338b86d3a26d60fb48a37ea", "asm": "30440220448699aa919d583d426ec7ad62f807b633b80e1f2fec665145e6e5de53c4757d02204cfd76ae57783e6aa549d62a6d8b73229de25bb900daa2c8c5b274c28da8c716[ALL] 03b73e2a605b3ca3e4e79d75ef3002173fa117aa8da338b86d3a26d60fb48a37ea"}, "vout": 1, "txid": "0572324b89e1a23944e4d2b901e054a7faa6feff0c932da7b041e35fe6cdbb02"}, {"sequence": 4294967293, "scriptSig": {"hex": "47304402205696e5b0a735f4e83755197bc844f8036f113bdc62bc8b589db7c8b12d9d484602202cde4e3c653517a3ebc1dd83dac87a507158942cec1828e6abcc6050cde0561b012103b73e2a605b3ca3e4e79d75ef3002173fa117aa8da338b86d3a26d60fb48a37ea", "asm": "304402205696e5b0a735f4e83755197bc844f8036f113bdc62bc8b589db7c8b12d9d484602202cde4e3c653517a3ebc1dd83dac87a507158942cec1828e6abcc6050cde0561b[ALL] 03b73e2a605b3ca3e4e79d75ef3002173fa117aa8da338b86d3a26d60fb48a37ea"}, "vout": 1, "txid": "3883eb05c9c2533b95380aa3f3b3f16bb89da1f1990cd9f148424bd9a3f9e008"}, {"sequence": 4294967293, "scriptSig": {"hex": "47304402200d4afb757121928ab74459ec93de48faae87a166424aeac36a6926fb1c92fbf602206349deb10bfc2253927e80efea73f4340be0b2da64b935d3bde1a9c46f237332012103b73e2a605b3ca3e4e79d75ef3002173fa117aa8da338b86d3a26d60fb48a37ea", "asm": "304402200d4afb757121928ab74459ec93de48faae87a166424aeac36a6926fb1c92fbf602206349deb10bfc2253927e80efea73f4340be0b2da64b935d3bde1a9c46f237332[ALL] 03b73e2a605b3ca3e4e79d75ef3002173fa117aa8da338b86d3a26d60fb48a37ea"}, "vout": 1, "txid": "6b4135002c7968d19777316563b0475f69dac4641d109590e70c61974537f286"}, {"sequence": 4294967293, "scriptSig": {"hex": "47304402206b373c358ee008809c1521b770dba57ae35d0e834e4d302b64631acd1205e640022067c0b01570f7a84f8bc757f4f26a2532c296fbbeaf59c6f56164e9f5e9f28a61012103b73e2a605b3ca3e4e79d75ef3002173fa117aa8da338b86d3a26d60fb48a37ea", "asm": "304402206b373c358ee008809c1521b770dba57ae35d0e834e4d302b64631acd1205e640022067c0b01570f7a84f8bc757f4f26a2532c296fbbeaf59c6f56164e9f5e9f28a61[ALL] 03b73e2a605b3ca3e4e79d75ef3002173fa117aa8da338b86d3a26d60fb48a37ea"}, "vout": 1, "txid": "ad02b107669fdc7573e8d4fe034b98191b0304f2061395491fe9ac2caa0b10cf"}, {"sequence": 4294967293, "scriptSig": {"hex": "483045022100ff2f1b14de22f8281544defb07c178747e3587acfe2ede547c20dc616f45252c022033351a96f54edc0a03c5c4b579fe51dcff47567fa07776a29d4551dadc13f2e2012103b73e2a605b3ca3e4e79d75ef3002173fa117aa8da338b86d3a26d60fb48a37ea", "asm": "3045022100ff2f1b14de22f8281544defb07c178747e3587acfe2ede547c20dc616f45252c022033351a96f54edc0a03c5c4b579fe51dcff47567fa07776a29d4551dadc13f2e2[ALL] 03b73e2a605b3ca3e4e79d75ef3002173fa117aa8da338b86d3a26d60fb48a37ea"}, "vout": 1, "txid": "b5a4a99c963b12c47213d31cf28154d5f206c2b9e3533528e9ef309c988a2f16"}], "txid": "65683269e5b9140c82d744c81728ca6ec4562a3f67737daec6b0be39c6ca96c3", "blocktime": 1537872018, "version": 1, "confirmations": 11489, "time": 1537872018, "locktime": 542993, "vsize": 780, "size": 780}