{"hash": "656ef245b5b2078a5d8d5dbb5b64209f19f32490d3e56b3f146f245fc1881a79", "blockhash": "0000000000000000000e13cef7c366c0283d82e591d1acd082e914b08063cdf1", "vout": [{"scriptPubKey": {"type": "nulldata", "hex": "6a4c50000077a20001724455df2a838b0683ae37e8af6c953dd567cf27e7e3ef3236678a625097a3030b8025379696c9fb6f4f6c68466e5baa0e8d0614adbfbdeec81d4bbf23acfcfaac8058b692fe6808c31d", "asm": "OP_RETURN 000077a20001724455df2a838b0683ae37e8af6c953dd567cf27e7e3ef3236678a625097a3030b8025379696c9fb6f4f6c68466e5baa0e8d0614adbfbdeec81d4bbf23acfcfaac8058b692fe6808c31d"}, "value": 0.0, "n": 0}, {"scriptPubKey": {"reqSigs": 1, "hex": "76a914ac7bc2a4906611f40f55084f23d3ecb1ff50424a88ac", "addresses": ["1Gj1V1kGmbbyJEXWrzuNjKa7gMUx6A5prT"], "asm": "OP_DUP OP_HASH160 ac7bc2a4906611f40f55084f23d3ecb1ff50424a OP_EQUALVERIFY OP_CHECKSIG", "type": "pubkeyhash"}, "value": 0.00024169, "n": 1}], "hex": "0100000001e3f7fbc9ff1ad0d44b06acfef1ae563d2fc51c8e130255e9c69317f56e61c85d010000006b483045022100cfe199647cb8500ff58dbce8db9509680fbc41b89b49ed8b2cdb2939e482f5ff022006da26af8abbe6448b3884c01784e9b9f0404f5fbb7e34931d267fe42669ccb2012103b95d530b99d8fc56cb1651e6c0b4c08e65f88660a4287f8b85b33ca5ecaeffecffffffff020000000000000000536a4c50000077a20001724455df2a838b0683ae37e8af6c953dd567cf27e7e3ef3236678a625097a3030b8025379696c9fb6f4f6c68466e5baa0e8d0614adbfbdeec81d4bbf23acfcfaac8058b692fe6808c31d695e0000000000001976a914ac7bc2a4906611f40f55084f23d3ecb1ff50424a88ac00000000", "vin": [{"sequence": 4294967295, "scriptSig": {"hex": "483045022100cfe199647cb8500ff58dbce8db9509680fbc41b89b49ed8b2cdb2939e482f5ff022006da26af8abbe6448b3884c01784e9b9f0404f5fbb7e34931d267fe42669ccb2012103b95d530b99d8fc56cb1651e6c0b4c08e65f88660a4287f8b85b33ca5ecaeffec", "asm": "3045022100cfe199647cb8500ff58dbce8db9509680fbc41b89b49ed8b2cdb2939e482f5ff022006da26af8abbe6448b3884c01784e9b9f0404f5fbb7e34931d267fe42669ccb2[ALL] 03b95d530b99d8fc56cb1651e6c0b4c08e65f88660a4287f8b85b33ca5ecaeffec"}, "vout": 1, "txid": "5dc8616ef51793c6e95502138e1cc52f3d56aef1feac064bd4d01affc9fbf7e3"}], "txid": "656ef245b5b2078a5d8d5dbb5b64209f19f32490d3e56b3f146f245fc1881a79", "blocktime": 1537871767, "version": 1, "confirmations": 11495, "time": 1537871767, "locktime": 0, "vsize": 284, "size": 284}