{"hash": "6579595905d96343947e8276fe0fcfe28628945cd388f9389259c319d8e8f3b2", "blockhash": "0000000000000000000e13cef7c366c0283d82e591d1acd082e914b08063cdf1", "vout": [{"scriptPubKey": {"reqSigs": 1, "hex": "76a914d42f6c2525305b0f965f07e53d8873cd4ee8753688ac", "addresses": ["1LLw4dx6shxVCpe3NVTsXA9EyRmczqLY62"], "asm": "OP_DUP OP_HASH160 d42f6c2525305b0f965f07e53d8873cd4ee87536 OP_EQUALVERIFY OP_CHECKSIG", "type": "pubkeyhash"}, "value": 0.00770184, "n": 0}, {"scriptPubKey": {"reqSigs": 1, "hex": "a914e728a6ddbda9ac6cb70968949c3c4a5dee32d23b87", "addresses": ["3NmGiPqkyGR2RH2EkW3fDyNCoKM5Jd81gw"], "asm": "OP_HASH160 e728a6ddbda9ac6cb70968949c3c4a5dee32d23b OP_EQUAL", "type": "scripthash"}, "value": 1.6, "n": 1}], "hex": "0100000003bf2d6f88fa11d371851b063999145e46dcb32a1716bbd76363e1a4ba4b534cc6010000006b483045022100f53df4cb80815d32b1188744cb01a68e138d83b696d55f33e221c0c6bc784eae02207c7958296f61f8ed2bf35c495953cecdc8e0004a7f9ec0b428652f8bad32f6bc012102d6ee828dfd9924e6928a38e195cf6cb96202df152c9c520ffc0b9ecb3ae2865effffffff4e3852efc0b4ac231d7b9ac304c6cdffa016c2cc922435de48adb615d81436e20b0000006b483045022100ecb16e1668f4a22031aa4caab601aacbbca6e0c4f8d44972cfeea15745cd564c02204165c026229e1eee72395f42ffad912ab8485901d30101649cdbde5537ec13a601210214ed848ab44315d1d90fdd52222087e4b695ca8c16b53bd8e05e6fed27068c0dffffffff6ca813bdcb4f43da5f10e476a24cd3766e80aabcb425dd27b96d1006d60561ed000000006a4730440220271fb899b75ed8900c9fc4f426122f205c25278253251681cf8189f6345d266b02202af9a97da11f423c13a327e812349e78485426f819ed5a0f63ff7839e9cf5209012102cafc85f9bf1d27e885204a68f052f8fc1f8e5369531fdac85d8db029a82eac06ffffffff0288c00b00000000001976a914d42f6c2525305b0f965f07e53d8873cd4ee8753688ac006889090000000017a914e728a6ddbda9ac6cb70968949c3c4a5dee32d23b8700000000", "vin": [{"sequence": 4294967295, "scriptSig": {"hex": "483045022100f53df4cb80815d32b1188744cb01a68e138d83b696d55f33e221c0c6bc784eae02207c7958296f61f8ed2bf35c495953cecdc8e0004a7f9ec0b428652f8bad32f6bc012102d6ee828dfd9924e6928a38e195cf6cb96202df152c9c520ffc0b9ecb3ae2865e", "asm": "3045022100f53df4cb80815d32b1188744cb01a68e138d83b696d55f33e221c0c6bc784eae02207c7958296f61f8ed2bf35c495953cecdc8e0004a7f9ec0b428652f8bad32f6bc[ALL] 02d6ee828dfd9924e6928a38e195cf6cb96202df152c9c520ffc0b9ecb3ae2865e"}, "vout": 1, "txid": "c64c534bbaa4e16363d7bb16172ab3dc465e149939061b8571d311fa886f2dbf"}, {"sequence": 4294967295, "scriptSig": {"hex": "483045022100ecb16e1668f4a22031aa4caab601aacbbca6e0c4f8d44972cfeea15745cd564c02204165c026229e1eee72395f42ffad912ab8485901d30101649cdbde5537ec13a601210214ed848ab44315d1d90fdd52222087e4b695ca8c16b53bd8e05e6fed27068c0d", "asm": "3045022100ecb16e1668f4a22031aa4caab601aacbbca6e0c4f8d44972cfeea15745cd564c02204165c026229e1eee72395f42ffad912ab8485901d30101649cdbde5537ec13a6[ALL] 0214ed848ab44315d1d90fdd52222087e4b695ca8c16b53bd8e05e6fed27068c0d"}, "vout": 11, "txid": "e23614d815b6ad48de352492ccc216a0ffcdc604c39a7b1d23acb4c0ef52384e"}, {"sequence": 4294967295, "scriptSig": {"hex": "4730440220271fb899b75ed8900c9fc4f426122f205c25278253251681cf8189f6345d266b02202af9a97da11f423c13a327e812349e78485426f819ed5a0f63ff7839e9cf5209012102cafc85f9bf1d27e885204a68f052f8fc1f8e5369531fdac85d8db029a82eac06", "asm": "30440220271fb899b75ed8900c9fc4f426122f205c25278253251681cf8189f6345d266b02202af9a97da11f423c13a327e812349e78485426f819ed5a0f63ff7839e9cf5209[ALL] 02cafc85f9bf1d27e885204a68f052f8fc1f8e5369531fdac85d8db029a82eac06"}, "vout": 0, "txid": "ed6105d606106db927dd25b4bcaa806e76d34ca276e4105fda434fcbbd13a86c"}], "txid": "6579595905d96343947e8276fe0fcfe28628945cd388f9389259c319d8e8f3b2", "blocktime": 1537871767, "version": 1, "confirmations": 11495, "time": 1537871767, "locktime": 0, "vsize": 519, "size": 519}