{"hash": "831f2f6c25ec7c40dbe910c57cf7086dec7f422a3a9da253d21b8291cae25759", "blockhash": "000000000000000000022b45ed06c6f4ccd3cf7fb5ba4856ebd2e58215665228", "vout": [{"scriptPubKey": {"reqSigs": 1, "hex": "a914df641347f276ef0f393fc803577b794fafe2b8f487", "addresses": ["3N4CVgD81injupN72XwSKZBa3j2MHDf794"], "asm": "OP_HASH160 df641347f276ef0f393fc803577b794fafe2b8f4 OP_EQUAL", "type": "scripthash"}, "value": 0.01108094, "n": 0}, {"scriptPubKey": {"reqSigs": 1, "hex": "a9147d576215049e16be09fa02d0a47ac9357b0f27da87", "addresses": ["3D7m51UqcZFWTeVZA4f35gSqNSEbCP5ccc"], "asm": "OP_HASH160 7d576215049e16be09fa02d0a47ac9357b0f27da OP_EQUAL", "type": "scripthash"}, "value": 0.02231094, "n": 1}], "hex": "02000000000103451e71e211f419e4d02530e90e1f61a60bf95ba24396396ae1900a5ad29f34dd0200000017160014aeb98c80d1a6938aad468906ff6a5b2859e0c3ddfeffffffd765d1bc98f9be49eb11dd0da16ecc2d915ef05ec1df06a3d424fd3ad2ff378d0100000017160014d6e58091e8ad344e5118cdf1c005e7b3237d79c9fefffffffc1ef383529000acec51fb952e8ae40b924ccdd1363a77bd1c9d43a64313153501000000171600145332e11e976f5ebf0f485b3e326d34b34017ac2afeffffff027ee810000000000017a914df641347f276ef0f393fc803577b794fafe2b8f487360b22000000000017a9147d576215049e16be09fa02d0a47ac9357b0f27da870247304402206c83ebfd4fbdf02d916a6e8161c97848970c0d0c89240917495e3713ae465174022031a3e718213b4efafa6e4b786e28a3621919e728d5a5deba0c2b170d4e9d210901210322d4b68ce281ac3c9cf46c866f75739afd08ccdcdcde18ad1be63346001322940247304402201e01e753c842feac27a7624d4f2280c4d978e027ba458fdc5dfed5307c1435ee02203a4f080bd549494770518e5f117401e9d3b28708f1b6c8203cbaa122d899d7ed0121024222b77d89357ecf2c6a6f2fd13ce329a5df75575bd9ce547c4bba985cdc191f02483045022100a79980e5403fb583e413864dbb705ab8ef7e078cfbf41644c455ccd0eff5e0e90220198b855a0166621fd5439d930f5c4688fb538243c2d97862b59b92fe1e66580c01210391b66f50221fd59318007c6b59f2ace2eb124611c9a22e48cbe2f4cdd80f8d7e0b490800", "vin": [{"txinwitness": ["304402206c83ebfd4fbdf02d916a6e8161c97848970c0d0c89240917495e3713ae465174022031a3e718213b4efafa6e4b786e28a3621919e728d5a5deba0c2b170d4e9d210901", "0322d4b68ce281ac3c9cf46c866f75739afd08ccdcdcde18ad1be6334600132294"], "sequence": 4294967294, "scriptSig": {"hex": "160014aeb98c80d1a6938aad468906ff6a5b2859e0c3dd", "asm": "0014aeb98c80d1a6938aad468906ff6a5b2859e0c3dd"}, "vout": 2, "txid": "dd349fd25a0a90e16a399643a25bf90ba6611f0ee93025d0e419f411e2711e45"}, {"txinwitness": ["304402201e01e753c842feac27a7624d4f2280c4d978e027ba458fdc5dfed5307c1435ee02203a4f080bd549494770518e5f117401e9d3b28708f1b6c8203cbaa122d899d7ed01", "024222b77d89357ecf2c6a6f2fd13ce329a5df75575bd9ce547c4bba985cdc191f"], "sequence": 4294967294, "scriptSig": {"hex": "160014d6e58091e8ad344e5118cdf1c005e7b3237d79c9", "asm": "0014d6e58091e8ad344e5118cdf1c005e7b3237d79c9"}, "vout": 1, "txid": "8d37ffd23afd24d4a306dfc15ef05e912dcc6ea10ddd11eb49bef998bcd165d7"}, {"txinwitness": ["3045022100a79980e5403fb583e413864dbb705ab8ef7e078cfbf41644c455ccd0eff5e0e90220198b855a0166621fd5439d930f5c4688fb538243c2d97862b59b92fe1e66580c01", "0391b66f50221fd59318007c6b59f2ace2eb124611c9a22e48cbe2f4cdd80f8d7e"], "sequence": 4294967294, "scriptSig": {"hex": "1600145332e11e976f5ebf0f485b3e326d34b34017ac2a", "asm": "00145332e11e976f5ebf0f485b3e326d34b34017ac2a"}, "vout": 1, "txid": "35151343a6439d1cbd773a36d1cd4c920be48a2e95fb51ecac00905283f31efc"}], "txid": "657b879167de0f38abc6996432ee9ac115573e9bb86cf71214357e05ee741018", "blocktime": 1537869901, "version": 2, "confirmations": 11522, "time": 1537869901, "locktime": 542987, "vsize": 347, "size": 590}