{"hash": "6581e3fed4b0a4fc38a1725225f209a82017b9137fde3e94dce28ec834522452", "blockhash": "0000000000000000001f76057863aec43deb6fa401d9628bb513d65a8098bfab", "vout": [{"scriptPubKey": {"reqSigs": 1, "hex": "76a9147495489ab2246d8ac14a1c7fb01d91e19678b31a88ac", "addresses": ["1BdSDfFJgdZxzUeNEsqMb5XSf7xnYtCAUT"], "asm": "OP_DUP OP_HASH160 7495489ab2246d8ac14a1c7fb01d91e19678b31a OP_EQUALVERIFY OP_CHECKSIG", "type": "pubkeyhash"}, "value": 0.00894882, "n": 0}, {"scriptPubKey": {"reqSigs": 1, "hex": "76a9140d97a79af85930edd1b2bbc3f4fc1825c6e9731f88ac", "addresses": ["12EsTeZk4k84tN1W61fW2ymbGpjtjad4Az"], "asm": "OP_DUP OP_HASH160 0d97a79af85930edd1b2bbc3f4fc1825c6e9731f OP_EQUALVERIFY OP_CHECKSIG", "type": "pubkeyhash"}, "value": 0.546245, "n": 1}], "hex": "010000000207e5657aac9ce683ea52ca5f98f703ae4bd0bad2a8683b65818b44e15cd31816010000006b483045022100b13d0c0b850e83b8fce7a94158a89ad3f4d49fbd51ae26a8b581f23bce40f30f022001cfc63c66261acaaefbfae183462ceca9b011871e31fe997d061840c339e6560121036603904209e935656b04566bd613b74b8db20eef41e2d6bd2c1d8aa4e2c8dd4fffffffffd9a33fd70b5798218934ee2bd6be1fc5ea459db048cf62bb4edcdbc545401fb0010000006a47304402207ff1f097306bba23e7a2b06549ca16b23ea21d5f63aa26fc47132e6e8522bfd302201a505ea7c81ddfabb7a1acdaed5dd4887ee310b74755a1560ef0157fe0b7698a012102705e3e4802bd42adf69962fceb683daaeee72b40775ab49c6160db1821dac1d1ffffffff02a2a70d00000000001976a9147495489ab2246d8ac14a1c7fb01d91e19678b31a88acf4804103000000001976a9140d97a79af85930edd1b2bbc3f4fc1825c6e9731f88ac00000000", "vin": [{"sequence": 4294967295, "scriptSig": {"hex": "483045022100b13d0c0b850e83b8fce7a94158a89ad3f4d49fbd51ae26a8b581f23bce40f30f022001cfc63c66261acaaefbfae183462ceca9b011871e31fe997d061840c339e6560121036603904209e935656b04566bd613b74b8db20eef41e2d6bd2c1d8aa4e2c8dd4f", "asm": "3045022100b13d0c0b850e83b8fce7a94158a89ad3f4d49fbd51ae26a8b581f23bce40f30f022001cfc63c66261acaaefbfae183462ceca9b011871e31fe997d061840c339e656[ALL] 036603904209e935656b04566bd613b74b8db20eef41e2d6bd2c1d8aa4e2c8dd4f"}, "vout": 1, "txid": "1618d35ce1448b81653b68a8d2bad04bae03f7985fca52ea83e69cac7a65e507"}, {"sequence": 4294967295, "scriptSig": {"hex": "47304402207ff1f097306bba23e7a2b06549ca16b23ea21d5f63aa26fc47132e6e8522bfd302201a505ea7c81ddfabb7a1acdaed5dd4887ee310b74755a1560ef0157fe0b7698a012102705e3e4802bd42adf69962fceb683daaeee72b40775ab49c6160db1821dac1d1", "asm": "304402207ff1f097306bba23e7a2b06549ca16b23ea21d5f63aa26fc47132e6e8522bfd302201a505ea7c81ddfabb7a1acdaed5dd4887ee310b74755a1560ef0157fe0b7698a[ALL] 02705e3e4802bd42adf69962fceb683daaeee72b40775ab49c6160db1821dac1d1"}, "vout": 1, "txid": "b01f4045c5dbdc4ebb62cf48b09d45eac51fbed62bee34892198570bd73fa3d9"}], "txid": "6581e3fed4b0a4fc38a1725225f209a82017b9137fde3e94dce28ec834522452", "blocktime": 1537873891, "version": 1, "confirmations": 11475, "time": 1537873891, "locktime": 0, "vsize": 373, "size": 373}