{"hash": "658196e0255eb75b876abe755940bf36a368e1fc67ed34ec355a6372879abd65", "blockhash": "0000000000000000000baef3f32e3676a92c3b2e5da21b426e4f302fc371ce76", "vout": [{"scriptPubKey": {"reqSigs": 1, "hex": "76a9147076d6e431707af0e661ce210ffd561690f084c688ac", "addresses": ["1BFf3bNbgyHrekK7HgdJWTxwzGQXN6kFHM"], "asm": "OP_DUP OP_HASH160 7076d6e431707af0e661ce210ffd561690f084c6 OP_EQUALVERIFY OP_CHECKSIG", "type": "pubkeyhash"}, "value": 0.15632, "n": 0}, {"scriptPubKey": {"reqSigs": 1, "hex": "76a914b4ce4abaaf1dd38aa1c09242698fe16f55b5559d88ac", "addresses": ["1HV1kwgNb6WvDebYZFCaf7aogLw4JoxsPV"], "asm": "OP_DUP OP_HASH160 b4ce4abaaf1dd38aa1c09242698fe16f55b5559d OP_EQUALVERIFY OP_CHECKSIG", "type": "pubkeyhash"}, "value": 4.53367322, "n": 1}], "hex": "0100000001d0668de3207369ae5de0a947a356fc692296a2fefc6c36ddbc02bb3d310bcf57000000006b483045022100c46d8ae1fa08894de7764046ba888bef95f5c197d86a09a618ae3706fe2e412d02203d420b5475ed658c0f23b1ae1d229331fdcdf2a8775fb4985627f06a281f690d012103b59c897cc5c5a26879cd065682d11ce4122730870adb0a1de55ea9cee228d01bffffffff028086ee00000000001976a9147076d6e431707af0e661ce210ffd561690f084c688ac1ad6051b000000001976a914b4ce4abaaf1dd38aa1c09242698fe16f55b5559d88ac00000000", "vin": [{"sequence": 4294967295, "scriptSig": {"hex": "483045022100c46d8ae1fa08894de7764046ba888bef95f5c197d86a09a618ae3706fe2e412d02203d420b5475ed658c0f23b1ae1d229331fdcdf2a8775fb4985627f06a281f690d012103b59c897cc5c5a26879cd065682d11ce4122730870adb0a1de55ea9cee228d01b", "asm": "3045022100c46d8ae1fa08894de7764046ba888bef95f5c197d86a09a618ae3706fe2e412d02203d420b5475ed658c0f23b1ae1d229331fdcdf2a8775fb4985627f06a281f690d[ALL] 03b59c897cc5c5a26879cd065682d11ce4122730870adb0a1de55ea9cee228d01b"}, "vout": 0, "txid": "57cf0b313dbb02bcdd366cfcfea2962269fc56a347a9e05dae697320e38d66d0"}], "txid": "658196e0255eb75b876abe755940bf36a368e1fc67ed34ec355a6372879abd65", "blocktime": 1537876114, "version": 1, "confirmations": 11460, "time": 1537876114, "locktime": 0, "vsize": 226, "size": 226}