{"hash": "6586ebdf2ae32fb118542d9c2fb8a9d706c8540b1b73d673641b00e0e84d9c8c", "blockhash": "000000000000000000022b45ed06c6f4ccd3cf7fb5ba4856ebd2e58215665228", "vout": [{"scriptPubKey": {"reqSigs": 1, "hex": "76a914ce91bf2b526f58f24de10bb59b9b0c5423d877f688ac", "addresses": ["1KqEoBPZncHuEvk8h4gg74xQHK6YCCYjD4"], "asm": "OP_DUP OP_HASH160 ce91bf2b526f58f24de10bb59b9b0c5423d877f6 OP_EQUALVERIFY OP_CHECKSIG", "type": "pubkeyhash"}, "value": 0.00987122, "n": 0}, {"scriptPubKey": {"reqSigs": 1, "hex": "76a914782423e7fc7a64a86ac6a0f2cbed9449c86eb55d88ac", "addresses": ["1BxFP69rSo4VFwfQKiptLkgRhbZiAwsdqy"], "asm": "OP_DUP OP_HASH160 782423e7fc7a64a86ac6a0f2cbed9449c86eb55d OP_EQUALVERIFY OP_CHECKSIG", "type": "pubkeyhash"}, "value": 0.01206791, "n": 1}], "hex": "02000000019b8e1d9b1c7a3245a1686ec280f10bfcc08662b17ed1751115fd401bce3344ef010000006b483045022100e16040dcfc3d64fe7ace231ea8da8a051c1fb228c1df0c025da54e85e294c0ca02201e7be87b83e9e0c259b4fa367787853dfa564ac57f0db6c68fd81a8d656d64a1012103ebff83bd8483811ec195294b102b68ff72d7e71c9dcd6b42a32cd43cae571c98feffffff02f20f0f00000000001976a914ce91bf2b526f58f24de10bb59b9b0c5423d877f688ac076a1200000000001976a914782423e7fc7a64a86ac6a0f2cbed9449c86eb55d88ac0b490800", "vin": [{"sequence": 4294967294, "scriptSig": {"hex": "483045022100e16040dcfc3d64fe7ace231ea8da8a051c1fb228c1df0c025da54e85e294c0ca02201e7be87b83e9e0c259b4fa367787853dfa564ac57f0db6c68fd81a8d656d64a1012103ebff83bd8483811ec195294b102b68ff72d7e71c9dcd6b42a32cd43cae571c98", "asm": "3045022100e16040dcfc3d64fe7ace231ea8da8a051c1fb228c1df0c025da54e85e294c0ca02201e7be87b83e9e0c259b4fa367787853dfa564ac57f0db6c68fd81a8d656d64a1[ALL] 03ebff83bd8483811ec195294b102b68ff72d7e71c9dcd6b42a32cd43cae571c98"}, "vout": 1, "txid": "ef4433ce1b40fd151175d17eb16286c0fc0bf180c26e68a145327a1c9b1d8e9b"}], "txid": "6586ebdf2ae32fb118542d9c2fb8a9d706c8540b1b73d673641b00e0e84d9c8c", "blocktime": 1537869901, "version": 2, "confirmations": 11522, "time": 1537869901, "locktime": 542987, "vsize": 226, "size": 226}