{"hash": "d3125ea1dd94b6e6276a32b55d8db399a8e7eddf49c19edceff505c332018293", "blockhash": "0000000000000000001f76057863aec43deb6fa401d9628bb513d65a8098bfab", "vout": [{"scriptPubKey": {"reqSigs": 1, "hex": "001418ed596ca6955dde71c5a26077d0a2afdc065966", "addresses": ["bc1qrrk4jm9xj4wauuw95fs8059z4lwqvktxdpu6xm"], "asm": "0 18ed596ca6955dde71c5a26077d0a2afdc065966", "type": "witness_v0_keyhash"}, "value": 0.01058582, "n": 0}, {"scriptPubKey": {"reqSigs": 1, "hex": "76a9149676a3b6e4c26e24d5128d43f42d72c6199af7f788ac", "addresses": ["1EiaUzYkCfU2KehbtvLqbrPPN2j9a8Z5LP"], "asm": "OP_DUP OP_HASH160 9676a3b6e4c26e24d5128d43f42d72c6199af7f7 OP_EQUALVERIFY OP_CHECKSIG", "type": "pubkeyhash"}, "value": 0.0395, "n": 1}], "hex": "01000000000101efdc1e10c966b73b32a57a0bc2ab33f8978488f8c4cc73ce72e6fc56ef846bbe2702000017160014f4dec4b86b6084f626385a49a4ce52af90e38882ffffffff02162710000000000016001418ed596ca6955dde71c5a26077d0a2afdc065966b0453c00000000001976a9149676a3b6e4c26e24d5128d43f42d72c6199af7f788ac02483045022100b672d64d552b848dd212f45a71393c65ceebfae750d08fdd597cba022cb2c9d50220612fcb73a217f9cf58ee659aa81edeadbcb5961aa096644f76d1d6b47030a520012103fc2c4f0dfdc006b1cfe8aa6c853d267e70be919743b766c4ab4b17a2421f236a00000000", "vin": [{"txinwitness": ["3045022100b672d64d552b848dd212f45a71393c65ceebfae750d08fdd597cba022cb2c9d50220612fcb73a217f9cf58ee659aa81edeadbcb5961aa096644f76d1d6b47030a52001", "03fc2c4f0dfdc006b1cfe8aa6c853d267e70be919743b766c4ab4b17a2421f236a"], "sequence": 4294967295, "scriptSig": {"hex": "160014f4dec4b86b6084f626385a49a4ce52af90e38882", "asm": "0014f4dec4b86b6084f626385a49a4ce52af90e38882"}, "vout": 551, "txid": "be6b84ef56fce672ce73ccc4f8888497f833abc20b7aa5323bb766c9101edcef"}], "txid": "658c5c74e8fe8db549b801574daafff70cf1ae0ba40f951d966e5f3f736aa9b7", "blocktime": 1537873891, "version": 1, "confirmations": 11478, "time": 1537873891, "locktime": 0, "vsize": 167, "size": 249}