{"hash": "5989002ddcf7ef18d2774338ed9e3e09c7584fd43d6c7454ff91682fcfb5d82b", "blockhash": "000000000000000000022b45ed06c6f4ccd3cf7fb5ba4856ebd2e58215665228", "vout": [{"scriptPubKey": {"reqSigs": 1, "hex": "76a9145db9c6184f3c55de1a44a1157020a84139f15c4388ac", "addresses": ["19YaPdamZJW7jo7Rc6YegKEbDESRsFVM1Z"], "asm": "OP_DUP OP_HASH160 5db9c6184f3c55de1a44a1157020a84139f15c43 OP_EQUALVERIFY OP_CHECKSIG", "type": "pubkeyhash"}, "value": 0.20145242, "n": 0}], "hex": "0100000000010247561800f090cc3dce440fea6e6e6186aa9c6c88ede7d411d8ae89adb07efa440100000017160014ccff6fec7b7fc5e8f1b1a03a135070acece968c7ffffffff80514abe4b2fa5588655deb18146ac4955de242b03ca3e0b4f915de9b1d980ef13000000171600149d70ad78137495e8f8da06a13b0cf500ef864f2bffffffff015a643301000000001976a9145db9c6184f3c55de1a44a1157020a84139f15c4388ac02473044022005e389d67276680b0824b0718305f727d6113cf214cde459bdae6c121688d9780220707409068abd710bb7dd2a2fa121a723aed0f0ff500f12097213eb1bb5f0bd03012103fdcf6137b130781f834393205e80905cee2269f599892c607bbbb6fd2a389de802483045022100806b8225424d0ef4693704d4d8361b4a0b81ed069383e6baa4e641a9dbb765be02201f81faf95d5674d077675bba1b4c09d9f1cf113ca40a8da2cd0585e603dac635012102901bc6a99dcf189a0a45d49a9e7cd8be420bfeaf33f5f26ad09043ca11b0dab600000000", "vin": [{"txinwitness": ["3044022005e389d67276680b0824b0718305f727d6113cf214cde459bdae6c121688d9780220707409068abd710bb7dd2a2fa121a723aed0f0ff500f12097213eb1bb5f0bd0301", "03fdcf6137b130781f834393205e80905cee2269f599892c607bbbb6fd2a389de8"], "sequence": 4294967295, "scriptSig": {"hex": "160014ccff6fec7b7fc5e8f1b1a03a135070acece968c7", "asm": "0014ccff6fec7b7fc5e8f1b1a03a135070acece968c7"}, "vout": 1, "txid": "44fa7eb0ad89aed811d4e7ed886c9caa86616e6eea0f44ce3dcc90f000185647"}, {"txinwitness": ["3045022100806b8225424d0ef4693704d4d8361b4a0b81ed069383e6baa4e641a9dbb765be02201f81faf95d5674d077675bba1b4c09d9f1cf113ca40a8da2cd0585e603dac63501", "02901bc6a99dcf189a0a45d49a9e7cd8be420bfeaf33f5f26ad09043ca11b0dab6"], "sequence": 4294967295, "scriptSig": {"hex": "1600149d70ad78137495e8f8da06a13b0cf500ef864f2b", "asm": "00149d70ad78137495e8f8da06a13b0cf500ef864f2b"}, "vout": 19, "txid": "ef80d9b1e95d914f0b3eca032b24de5549ac4681b1de558658a52f4bbe4a5180"}], "txid": "6592b72c19c12cc82d3f3495b188f48fcd01175d119bb5a16c6aa60a080f21b0", "blocktime": 1537869901, "version": 1, "confirmations": 11523, "time": 1537869901, "locktime": 0, "vsize": 227, "size": 389}