{"hash": "6592adb0e3cfb0f7488faa755d5558094081638cd5eb7af213324a0100d74d92", "blockhash": "0000000000000000001f76057863aec43deb6fa401d9628bb513d65a8098bfab", "vout": [{"scriptPubKey": {"reqSigs": 1, "hex": "a914bd3c4d6535faec8d5c0b275670ffaca023e2b0ad87", "addresses": ["3JwbsgKXuykKRkXtNzNuRbs2hovoKyW4Ks"], "asm": "OP_HASH160 bd3c4d6535faec8d5c0b275670ffaca023e2b0ad OP_EQUAL", "type": "scripthash"}, "value": 0.00244792, "n": 0}, {"scriptPubKey": {"reqSigs": 1, "hex": "a914d5af18b1d9b087973ec4b514e67cc39e5309118087", "addresses": ["3MAscKU7DXYby4UT773vVKY6uP1dcE98i8"], "asm": "OP_HASH160 d5af18b1d9b087973ec4b514e67cc39e53091180 OP_EQUAL", "type": "scripthash"}, "value": 0.01754085, "n": 1}], "hex": "020000000174c2d076f3f8e3ca17e123d79b0257403930cf08d470dcd54a0654496128865501000000fdfe000048304502210089d48557a43881ec4a3ef9bc34acc7355bccf7d37fa3a6a5105e2bf47bd1b66002206ca9b487fd1c84e43ad98dbfa5516dc3544929d667b2044106744d4e4a3e178801483045022100e4003c6eeef98ff1c87a4113efa1415903e0a227eb54cfde7047a57a459df87e022044f6045e8342aa5a7da1d01adc15cfab6130bfc7c3a23fcaac000fc7b99ad9cb014c695221029357cc5ca3cbca438713b0c9638db72339988287d46cf59bd7d31ddefac5586521031079e54098e47aeaf7f0ab26bba70ef4a9fd6e64704da409252e5fbcff3c38e42103a99a1142975e95dcb9232dc93b103a6555239ccebe353a31df78cb0a47b898b053aeffffffff0238bc03000000000017a914bd3c4d6535faec8d5c0b275670ffaca023e2b0ad87e5c31a000000000017a914d5af18b1d9b087973ec4b514e67cc39e530911808700000000", "vin": [{"sequence": 4294967295, "scriptSig": {"hex": "0048304502210089d48557a43881ec4a3ef9bc34acc7355bccf7d37fa3a6a5105e2bf47bd1b66002206ca9b487fd1c84e43ad98dbfa5516dc3544929d667b2044106744d4e4a3e178801483045022100e4003c6eeef98ff1c87a4113efa1415903e0a227eb54cfde7047a57a459df87e022044f6045e8342aa5a7da1d01adc15cfab6130bfc7c3a23fcaac000fc7b99ad9cb014c695221029357cc5ca3cbca438713b0c9638db72339988287d46cf59bd7d31ddefac5586521031079e54098e47aeaf7f0ab26bba70ef4a9fd6e64704da409252e5fbcff3c38e42103a99a1142975e95dcb9232dc93b103a6555239ccebe353a31df78cb0a47b898b053ae", "asm": "0 304502210089d48557a43881ec4a3ef9bc34acc7355bccf7d37fa3a6a5105e2bf47bd1b66002206ca9b487fd1c84e43ad98dbfa5516dc3544929d667b2044106744d4e4a3e1788[ALL] 3045022100e4003c6eeef98ff1c87a4113efa1415903e0a227eb54cfde7047a57a459df87e022044f6045e8342aa5a7da1d01adc15cfab6130bfc7c3a23fcaac000fc7b99ad9cb[ALL] 5221029357cc5ca3cbca438713b0c9638db72339988287d46cf59bd7d31ddefac5586521031079e54098e47aeaf7f0ab26bba70ef4a9fd6e64704da409252e5fbcff3c38e42103a99a1142975e95dcb9232dc93b103a6555239ccebe353a31df78cb0a47b898b053ae"}, "vout": 1, "txid": "558628614954064ad5dc70d408cf30394057029bd723e117cae3f8f376d0c274"}], "txid": "6592adb0e3cfb0f7488faa755d5558094081638cd5eb7af213324a0100d74d92", "blocktime": 1537873891, "version": 2, "confirmations": 11478, "time": 1537873891, "locktime": 0, "vsize": 371, "size": 371}