{"hash": "6596fd1972fda98082218a7bcb6483bec08559e231fc884dd88f5c394b2e1635", "blockhash": "0000000000000000000baef3f32e3676a92c3b2e5da21b426e4f302fc371ce76", "vout": [{"scriptPubKey": {"type": "nulldata", "hex": "6a4c5000007829000157eebd27b7256b4774d339f6019d6ddc0f1b8ff117702940d64fa54d8eb27385e5af92a7dd1658fbad0c4fc619325baa1e8b0613eb77d51649eabc9a9526289ac0f6612cd74e33776ee4", "asm": "OP_RETURN 00007829000157eebd27b7256b4774d339f6019d6ddc0f1b8ff117702940d64fa54d8eb27385e5af92a7dd1658fbad0c4fc619325baa1e8b0613eb77d51649eabc9a9526289ac0f6612cd74e33776ee4"}, "value": 0.0, "n": 0}, {"scriptPubKey": {"reqSigs": 1, "hex": "76a9144f40091589d4b311dd0589d7e6f8d1dbaffea8ec88ac", "addresses": ["18E36RFUKSLcS7YAam3SWhbY2iBsJZ2vXg"], "asm": "OP_DUP OP_HASH160 4f40091589d4b311dd0589d7e6f8d1dbaffea8ec OP_EQUALVERIFY OP_CHECKSIG", "type": "pubkeyhash"}, "value": 0.00113124, "n": 1}], "hex": "0100000001a8523475cafa7053805c17497aa5f224010245d78ed881783083a941e6e214f3010000006a4730440220546cacc4016839ba31b6f127c6de1b0aff9b221be1083e5738a870544731b7ba022071e9df8a826b95532d01bf00ff0e434188c9202f6c1fcae69d67e1deff10b1440121028c825f1d65e2d1ae2503c62ff1b421dc039dbdd2d868d9770fa7264cb9b6eaacffffffff020000000000000000536a4c5000007829000157eebd27b7256b4774d339f6019d6ddc0f1b8ff117702940d64fa54d8eb27385e5af92a7dd1658fbad0c4fc619325baa1e8b0613eb77d51649eabc9a9526289ac0f6612cd74e33776ee4e4b90100000000001976a9144f40091589d4b311dd0589d7e6f8d1dbaffea8ec88ac00000000", "vin": [{"sequence": 4294967295, "scriptSig": {"hex": "4730440220546cacc4016839ba31b6f127c6de1b0aff9b221be1083e5738a870544731b7ba022071e9df8a826b95532d01bf00ff0e434188c9202f6c1fcae69d67e1deff10b1440121028c825f1d65e2d1ae2503c62ff1b421dc039dbdd2d868d9770fa7264cb9b6eaac", "asm": "30440220546cacc4016839ba31b6f127c6de1b0aff9b221be1083e5738a870544731b7ba022071e9df8a826b95532d01bf00ff0e434188c9202f6c1fcae69d67e1deff10b144[ALL] 028c825f1d65e2d1ae2503c62ff1b421dc039dbdd2d868d9770fa7264cb9b6eaac"}, "vout": 1, "txid": "f314e2e641a983307881d88ed745020124f2a57a49175c805370faca753452a8"}], "txid": "6596fd1972fda98082218a7bcb6483bec08559e231fc884dd88f5c394b2e1635", "blocktime": 1537876114, "version": 1, "confirmations": 11461, "time": 1537876114, "locktime": 0, "vsize": 283, "size": 283}