{"hash": "ac03ca784eeec390678061b10b28a5f215a0b616d4c453566ee30410e37ae244", "blockhash": "00000000000000000024a2167bbff67b0be802c0b01cdd79e6331c2be6459f87", "vout": [{"scriptPubKey": {"reqSigs": 1, "hex": "00147fb990ced0818bea544eef09dba89acaa449a6a0", "addresses": ["bc1q07uepnkssx9754zwauyah2y6e2jynf4qrzpd9j"], "asm": "0 7fb990ced0818bea544eef09dba89acaa449a6a0", "type": "witness_v0_keyhash"}, "value": 0.01287717, "n": 0}, {"scriptPubKey": {"reqSigs": 1, "hex": "a914356d2c9d7648b23cccc5db1e2f19d7f8a3f34fe587", "addresses": ["36ZWXGm9zJwwNBGbdk5AwC3on49ZHsRiYx"], "asm": "OP_HASH160 356d2c9d7648b23cccc5db1e2f19d7f8a3f34fe5 OP_EQUAL", "type": "scripthash"}, "value": 0.15382362, "n": 1}], "hex": "010000000001019f6ee32698b25f7f7a4de0fba5e2f5c31e9ee7f4e5fd7d7b5e859765d02215b70000000017160014741ef166b1d2b0e5d7ec5d739a7d5614a632a3acffffffff0225a61300000000001600147fb990ced0818bea544eef09dba89acaa449a6a05ab7ea000000000017a914356d2c9d7648b23cccc5db1e2f19d7f8a3f34fe58702483045022100df5d92fda5fa8709dc9d8098b8b36e3402715d78a86a883e52bf133160f54c7802203a44a3cc6ab8f184aa65cf904d282260ff967b4e441a810305cc76ad468ce51f01210375db45efd1163e5c00338e02d0e999dcaf48b7fce85b8cbc55e3050ce92b332800000000", "vin": [{"txinwitness": ["3045022100df5d92fda5fa8709dc9d8098b8b36e3402715d78a86a883e52bf133160f54c7802203a44a3cc6ab8f184aa65cf904d282260ff967b4e441a810305cc76ad468ce51f01", "0375db45efd1163e5c00338e02d0e999dcaf48b7fce85b8cbc55e3050ce92b3328"], "sequence": 4294967295, "scriptSig": {"hex": "160014741ef166b1d2b0e5d7ec5d739a7d5614a632a3ac", "asm": "0014741ef166b1d2b0e5d7ec5d739a7d5614a632a3ac"}, "vout": 0, "txid": "b71522d06597855e7b7dfde5f4e79e1ec3f5e2a5fbe04d7a7f5fb29826e36e9f"}], "txid": "659feeb91f8d5040eaea28bd8e9f5ec69dc7336797c197dc4f6292160f9f9614", "blocktime": 1537870564, "version": 1, "confirmations": 11515, "time": 1537870564, "locktime": 0, "vsize": 165, "size": 247}