{"hash": "65a39894a0e02427218d843c1bb710f323b66edf39ec98b95a65e1251aebcec0", "blockhash": "0000000000000000001f76057863aec43deb6fa401d9628bb513d65a8098bfab", "vout": [{"scriptPubKey": {"reqSigs": 1, "hex": "76a9145ade05e4b09c36c1474e6963ac92d61212e9d65788ac", "addresses": ["19HTnhHrVkTb9uAtGbXKMYq9NGM9Mjtpnh"], "asm": "OP_DUP OP_HASH160 5ade05e4b09c36c1474e6963ac92d61212e9d657 OP_EQUALVERIFY OP_CHECKSIG", "type": "pubkeyhash"}, "value": 2.547e-05, "n": 0}, {"scriptPubKey": {"reqSigs": 1, "hex": "a914b593e44e5acce5d40a29809e0269cd9379fe593b87", "addresses": ["3JF7Py9dgxnVjv8798zpAL6uRk5rwiUa2n"], "asm": "OP_HASH160 b593e44e5acce5d40a29809e0269cd9379fe593b OP_EQUAL", "type": "scripthash"}, "value": 0.00483847, "n": 1}], "hex": "0100000003f3281f200cf47f31d8856d468323e8c3ae8aeded5b63501cfe883628d2137800000000006a473044022003ad1641fc6c8769085b274b0473693766e25a026534225e9ade4d1028b05489022043100598519481830250c0f238b46a0b37ca84cd8a26aaa08d19378576c2b9cf012103b03715efbed60612fd1f6934cdb0453e22eadc895e1567e696ba72e10f0799fbffffffffef241870bdccc9fe103bd20f8e0584b0f34d352748a22a980490ce79415abc20010000006a4730440220696de47c5822f39b13ff94cc01bda1cf2fcf7ce6c0e23f0e3d7b20977cafa92602200288ac36c2ad9159d8de1bc9ef2aba22b44de394363010259498d78694fba4ec012102d54a912b3f1a86ffecc0634276ba5551161cb3edb8b522064e08c6353fe8126affffffff1f82c9cb4f90195667c352c07d5e81f97c07b51965b14a4b97a68a361ec329ea000000006a473044022059c8407f7575936f076cfd062eabe3a23e238253b2499273e65711e0ed481412022075ec006398d10b32fa3eacd3c68ffe5b65aa90ab0e413afbe599d697a9fff7ea012103a17738ff0112e191cf360dd4c97374b7ace5e193781eaf77d6878348207e5ee3ffffffff02f3090000000000001976a9145ade05e4b09c36c1474e6963ac92d61212e9d65788ac076207000000000017a914b593e44e5acce5d40a29809e0269cd9379fe593b8700000000", "vin": [{"sequence": 4294967295, "scriptSig": {"hex": "473044022003ad1641fc6c8769085b274b0473693766e25a026534225e9ade4d1028b05489022043100598519481830250c0f238b46a0b37ca84cd8a26aaa08d19378576c2b9cf012103b03715efbed60612fd1f6934cdb0453e22eadc895e1567e696ba72e10f0799fb", "asm": "3044022003ad1641fc6c8769085b274b0473693766e25a026534225e9ade4d1028b05489022043100598519481830250c0f238b46a0b37ca84cd8a26aaa08d19378576c2b9cf[ALL] 03b03715efbed60612fd1f6934cdb0453e22eadc895e1567e696ba72e10f0799fb"}, "vout": 0, "txid": "007813d2283688fe1c50635beded8aaec3e82383466d85d8317ff40c201f28f3"}, {"sequence": 4294967295, "scriptSig": {"hex": "4730440220696de47c5822f39b13ff94cc01bda1cf2fcf7ce6c0e23f0e3d7b20977cafa92602200288ac36c2ad9159d8de1bc9ef2aba22b44de394363010259498d78694fba4ec012102d54a912b3f1a86ffecc0634276ba5551161cb3edb8b522064e08c6353fe8126a", "asm": "30440220696de47c5822f39b13ff94cc01bda1cf2fcf7ce6c0e23f0e3d7b20977cafa92602200288ac36c2ad9159d8de1bc9ef2aba22b44de394363010259498d78694fba4ec[ALL] 02d54a912b3f1a86ffecc0634276ba5551161cb3edb8b522064e08c6353fe8126a"}, "vout": 1, "txid": "20bc5a4179ce9004982aa24827354df3b084058e0fd23b10fec9ccbd701824ef"}, {"sequence": 4294967295, "scriptSig": {"hex": "473044022059c8407f7575936f076cfd062eabe3a23e238253b2499273e65711e0ed481412022075ec006398d10b32fa3eacd3c68ffe5b65aa90ab0e413afbe599d697a9fff7ea012103a17738ff0112e191cf360dd4c97374b7ace5e193781eaf77d6878348207e5ee3", "asm": "3044022059c8407f7575936f076cfd062eabe3a23e238253b2499273e65711e0ed481412022075ec006398d10b32fa3eacd3c68ffe5b65aa90ab0e413afbe599d697a9fff7ea[ALL] 03a17738ff0112e191cf360dd4c97374b7ace5e193781eaf77d6878348207e5ee3"}, "vout": 0, "txid": "ea29c31e368aa6974b4ab16519b5077cf9815e7dc052c3675619904fcbc9821f"}], "txid": "65a39894a0e02427218d843c1bb710f323b66edf39ec98b95a65e1251aebcec0", "blocktime": 1537873891, "version": 1, "confirmations": 11475, "time": 1537873891, "locktime": 0, "vsize": 517, "size": 517}