{"hash": "65acf5693a6cf1f9f5840d31445f33c788850aad03f4f3ec419ced021e911fa6", "blockhash": "000000000000000000022b45ed06c6f4ccd3cf7fb5ba4856ebd2e58215665228", "vout": [{"scriptPubKey": {"reqSigs": 1, "hex": "76a914a25dec4d0011064ef106a983c39c7a540699f22088ac", "addresses": ["1FoWyxwPXuj4C6abqwhjDWdz6D4PZgYRjA"], "asm": "OP_DUP OP_HASH160 a25dec4d0011064ef106a983c39c7a540699f220 OP_EQUALVERIFY OP_CHECKSIG", "type": "pubkeyhash"}, "value": 0.01980846, "n": 0}, {"scriptPubKey": {"type": "nulldata", "hex": "6a146f6d6e69000000000000001f00000096eaf4b4c0", "asm": "OP_RETURN 6f6d6e69000000000000001f00000096eaf4b4c0"}, "value": 0.0, "n": 1}, {"scriptPubKey": {"reqSigs": 1, "hex": "a9140fe4c8b16f3e10c4dc314249c3f15567ae92329b87", "addresses": ["33948cHmyB6kteYajJmRKCmU8ubT7txigQ"], "asm": "OP_HASH160 0fe4c8b16f3e10c4dc314249c3f15567ae92329b OP_EQUAL", "type": "scripthash"}, "value": 5.4e-06, "n": 2}], "hex": "0100000001839887c5993ee4dc066f55c0e073e30a0d3335f8ebd76d9f673c76b8374b5ec8000000006b483045022100f071ff2a88cb0e4054994329133e7598756080979e47ab79ce308b0941492dda022020b93c5551be8e31aec0744a0bb7a1f38251369121bab8123bcff32fab0685f7012103da5bac7b36d5aa38f531c6b9601e21bb598a4b6716ebed38b009a55dabde9440feffffff03ae391e00000000001976a914a25dec4d0011064ef106a983c39c7a540699f22088ac0000000000000000166a146f6d6e69000000000000001f00000096eaf4b4c01c0200000000000017a9140fe4c8b16f3e10c4dc314249c3f15567ae92329b870b490800", "vin": [{"sequence": 4294967294, "scriptSig": {"hex": "483045022100f071ff2a88cb0e4054994329133e7598756080979e47ab79ce308b0941492dda022020b93c5551be8e31aec0744a0bb7a1f38251369121bab8123bcff32fab0685f7012103da5bac7b36d5aa38f531c6b9601e21bb598a4b6716ebed38b009a55dabde9440", "asm": "3045022100f071ff2a88cb0e4054994329133e7598756080979e47ab79ce308b0941492dda022020b93c5551be8e31aec0744a0bb7a1f38251369121bab8123bcff32fab0685f7[ALL] 03da5bac7b36d5aa38f531c6b9601e21bb598a4b6716ebed38b009a55dabde9440"}, "vout": 0, "txid": "c85e4b37b8763c679f6dd7ebf835330d0ae373e0c0556f06dce43e99c5879883"}], "txid": "65acf5693a6cf1f9f5840d31445f33c788850aad03f4f3ec419ced021e911fa6", "blocktime": 1537869901, "version": 1, "confirmations": 11522, "time": 1537869901, "locktime": 542987, "vsize": 255, "size": 255}