{"hash": "6e6cca18f2f9035c891a335b49faeab5f6a6161b7a50c22500370b7acdebab7a", "blockhash": "0000000000000000001cda96e906b7601b7a6fb1a3b62bca570a9e5d8f4b3de1", "vout": [{"scriptPubKey": {"reqSigs": 1, "hex": "a9144711727511ddbf803e3d1f17e9114de281526d9a87", "addresses": ["38AnoQhTD2KPYYYspWNa21HU2zbuMjcHqU"], "asm": "OP_HASH160 4711727511ddbf803e3d1f17e9114de281526d9a OP_EQUAL", "type": "scripthash"}, "value": 0.39153736, "n": 0}, {"scriptPubKey": {"reqSigs": 1, "hex": "76a91417ab24ee4579a6388c33f098fa65a4e2f09b76b388ac", "addresses": ["13A9ZiysrqEs7nz2Gz6T65tnqjQ6sw5jmp"], "asm": "OP_DUP OP_HASH160 17ab24ee4579a6388c33f098fa65a4e2f09b76b3 OP_EQUALVERIFY OP_CHECKSIG", "type": "pubkeyhash"}, "value": 0.1563003, "n": 1}], "hex": "02000000000101bf77ba32cfaa23e76277dac6a25005c85da250d2da7d543c4d0a478e28efe8a5010000001716001492910845ef9ee2241726ed3ee5c092fbcff6abf2feffffff02487055020000000017a9144711727511ddbf803e3d1f17e9114de281526d9a87ce7eee00000000001976a91417ab24ee4579a6388c33f098fa65a4e2f09b76b388ac02483045022100c7f3f2042d930b5ea2532da8c9227c26063472ff346b5c9a72d6fde3311bb91d022041f64a9ef9b65517a26a9911fea6da48aeaed71487142b933162dbbbcbfe19610121037f3d9c0baf0ab4946d4c7f1ae1011d02d530cf7fc911e80c1b0e901125c18a3600000000", "vin": [{"txinwitness": ["3045022100c7f3f2042d930b5ea2532da8c9227c26063472ff346b5c9a72d6fde3311bb91d022041f64a9ef9b65517a26a9911fea6da48aeaed71487142b933162dbbbcbfe196101", "037f3d9c0baf0ab4946d4c7f1ae1011d02d530cf7fc911e80c1b0e901125c18a36"], "sequence": 4294967294, "scriptSig": {"hex": "16001492910845ef9ee2241726ed3ee5c092fbcff6abf2", "asm": "001492910845ef9ee2241726ed3ee5c092fbcff6abf2"}, "vout": 1, "txid": "a5e8ef288e470a4d3c547ddad250a25dc80550a2c6da7762e723aacf32ba77bf"}], "txid": "65ae4c676b8282a89b524167c3af83917bfe836b3d50f9c851d4a9a67e734843", "blocktime": 1537873282, "version": 2, "confirmations": 11485, "time": 1537873282, "locktime": 0, "vsize": 168, "size": 250}