{"hash": "65b3dad7057496a7b7750b4660dc181cdaeae675472a7634388283e99f2a99f8", "blockhash": "0000000000000000001cda96e906b7601b7a6fb1a3b62bca570a9e5d8f4b3de1", "vout": [{"scriptPubKey": {"reqSigs": 1, "hex": "a9147dfc5078f768078a463cb7c34f475ba071cca58287", "addresses": ["3DBAedXjmoD8pVAWep2qjfKMDQhJVJgm36"], "asm": "OP_HASH160 7dfc5078f768078a463cb7c34f475ba071cca582 OP_EQUAL", "type": "scripthash"}, "value": 0.03952, "n": 0}, {"scriptPubKey": {"reqSigs": 1, "hex": "76a9141ec59c146ee744c1e08e2aa4a669adb08ecb5aad88ac", "addresses": ["13ohzvAdfRTNDjg6CfEXydVSfAoYjzSvyo"], "asm": "OP_DUP OP_HASH160 1ec59c146ee744c1e08e2aa4a669adb08ecb5aad OP_EQUALVERIFY OP_CHECKSIG", "type": "pubkeyhash"}, "value": 0.01714372, "n": 1}, {"scriptPubKey": {"reqSigs": 1, "hex": "76a914cebb2851a9c7cfe2582c12ecaf7f3ff4383d1dc088ac", "addresses": ["1Kr6QSydW9bFQG1mXiPNNu6WpJGmUa9i1g"], "asm": "OP_DUP OP_HASH160 cebb2851a9c7cfe2582c12ecaf7f3ff4383d1dc0 OP_EQUALVERIFY OP_CHECKSIG", "type": "pubkeyhash"}, "value": 107.22680127, "n": 2}], "hex": "02000000016f3cad55dd26ed7b64352e3aefba4856daaddda76e38742000924827b6e4ce67020000006a473044022073bf222501e69fa27598fa88842201dd9b059c69a585ea78784ad9cf57e0380702205476671bd883cd4874201770566912e7bc665f3b5f5d28f76c9dc2c1f0cc4fc1012103786af4b32017ec640dba2d2a7e1fd5aa4a231a658e4cbc114d51c031576e19bcffffffff03804d3c000000000017a9147dfc5078f768078a463cb7c34f475ba071cca58287c4281a00000000001976a9141ec59c146ee744c1e08e2aa4a669adb08ecb5aad88ac3f1d1f7f020000001976a914cebb2851a9c7cfe2582c12ecaf7f3ff4383d1dc088ac00000000", "vin": [{"sequence": 4294967295, "scriptSig": {"hex": "473044022073bf222501e69fa27598fa88842201dd9b059c69a585ea78784ad9cf57e0380702205476671bd883cd4874201770566912e7bc665f3b5f5d28f76c9dc2c1f0cc4fc1012103786af4b32017ec640dba2d2a7e1fd5aa4a231a658e4cbc114d51c031576e19bc", "asm": "3044022073bf222501e69fa27598fa88842201dd9b059c69a585ea78784ad9cf57e0380702205476671bd883cd4874201770566912e7bc665f3b5f5d28f76c9dc2c1f0cc4fc1[ALL] 03786af4b32017ec640dba2d2a7e1fd5aa4a231a658e4cbc114d51c031576e19bc"}, "vout": 2, "txid": "67cee4b6274892002074386ea7ddadda5648baef3a2e35647bed26dd55ad3c6f"}], "txid": "65b3dad7057496a7b7750b4660dc181cdaeae675472a7634388283e99f2a99f8", "blocktime": 1537873282, "version": 2, "confirmations": 11481, "time": 1537873282, "locktime": 0, "vsize": 257, "size": 257}