{"hash": "65b408d276b44467375b445d786d7275ca9b9a3a419828bf57eefd0e1b442e78", "blockhash": "0000000000000000001cda96e906b7601b7a6fb1a3b62bca570a9e5d8f4b3de1", "vout": [{"scriptPubKey": {"reqSigs": 1, "hex": "76a9146e64e394dc0ce6d8914264b053924899be15141488ac", "addresses": ["1B4iBzVeZmQ66GdZmMx7WFAPPpr3wTQhDA"], "asm": "OP_DUP OP_HASH160 6e64e394dc0ce6d8914264b053924899be151414 OP_EQUALVERIFY OP_CHECKSIG", "type": "pubkeyhash"}, "value": 0.0154579, "n": 0}, {"scriptPubKey": {"reqSigs": 1, "hex": "76a9142746d711357a3c2e03ccdcdadab6fcd3ab70ef6988ac", "addresses": ["14agDYDinda6Mg1GYW3hKfokuKSAVn8KBk"], "asm": "OP_DUP OP_HASH160 2746d711357a3c2e03ccdcdadab6fcd3ab70ef69 OP_EQUALVERIFY OP_CHECKSIG", "type": "pubkeyhash"}, "value": 0.20979512, "n": 1}], "hex": "0100000001dfa0499edccdfd6f64a92ff77d22af19c6e29a2c16808abf4266535c59b21a0c010000006b483045022100f10e3a73a36506376f01a53d5ab95e40c2f8041b0b4aa8bb6c56f1687dae6f610220631987419035627d0f94364cdca5702a071826abd0801db18834605570599f7c012102cd983275376347936a7e058d4e47584331bfa1b59f016dc1cd0fba185761d1d9ffffffff023e961700000000001976a9146e64e394dc0ce6d8914264b053924899be15141488ac381f4001000000001976a9142746d711357a3c2e03ccdcdadab6fcd3ab70ef6988ac00000000", "vin": [{"sequence": 4294967295, "scriptSig": {"hex": "483045022100f10e3a73a36506376f01a53d5ab95e40c2f8041b0b4aa8bb6c56f1687dae6f610220631987419035627d0f94364cdca5702a071826abd0801db18834605570599f7c012102cd983275376347936a7e058d4e47584331bfa1b59f016dc1cd0fba185761d1d9", "asm": "3045022100f10e3a73a36506376f01a53d5ab95e40c2f8041b0b4aa8bb6c56f1687dae6f610220631987419035627d0f94364cdca5702a071826abd0801db18834605570599f7c[ALL] 02cd983275376347936a7e058d4e47584331bfa1b59f016dc1cd0fba185761d1d9"}, "vout": 1, "txid": "0c1ab2595c536642bf8a80162c9ae2c619af227df72fa9646ffdcddc9e49a0df"}], "txid": "65b408d276b44467375b445d786d7275ca9b9a3a419828bf57eefd0e1b442e78", "blocktime": 1537873282, "version": 1, "confirmations": 11484, "time": 1537873282, "locktime": 0, "vsize": 226, "size": 226}