{"hash": "f35f65ebd6824c6202b033ffe6cec15176687a131d2a9ed3edcecf0395e79e8c", "blockhash": "000000000000000000022b45ed06c6f4ccd3cf7fb5ba4856ebd2e58215665228", "vout": [{"scriptPubKey": {"reqSigs": 1, "hex": "a9145826e585a07e3ba7924d23e18eab8f306ccbce3d87", "addresses": ["39j7z1J8niHn1RG8fBX918o5FSvkSWtJDc"], "asm": "OP_HASH160 5826e585a07e3ba7924d23e18eab8f306ccbce3d OP_EQUAL", "type": "scripthash"}, "value": 0.01305262, "n": 0}, {"scriptPubKey": {"reqSigs": 1, "hex": "a914edafadfcd02b1ceb8dc63a708e9f12af260f311c87", "addresses": ["3PMnXSe3zidyYRt43em6YVZKTYXxj6ktX7"], "asm": "OP_HASH160 edafadfcd02b1ceb8dc63a708e9f12af260f311c OP_EQUAL", "type": "scripthash"}, "value": 2.57856544, "n": 1}], "hex": "02000000000101554dafdb85fbed44865258b6c81a74974b9f7c632e52c265154d8fc6950fedb001000000171600149813d92cdaef0f0b547a8b55de324038ad9ebb10feffffff02aeea13000000000017a9145826e585a07e3ba7924d23e18eab8f306ccbce3d8720945e0f0000000017a914edafadfcd02b1ceb8dc63a708e9f12af260f311c8702473044022047d89221cf81a7c99183915dabba0ee3b2a968bb17188438a0f18ce5247a394002205636d419bf8b772d28425b0bb43029d1b0c60d20fceb541ef71975e7f5b6e770012103c7ccd8795300a85de77fead825a20736ee284290ba8bce1c6bb63072765f33650b490800", "vin": [{"txinwitness": ["3044022047d89221cf81a7c99183915dabba0ee3b2a968bb17188438a0f18ce5247a394002205636d419bf8b772d28425b0bb43029d1b0c60d20fceb541ef71975e7f5b6e77001", "03c7ccd8795300a85de77fead825a20736ee284290ba8bce1c6bb63072765f3365"], "sequence": 4294967294, "scriptSig": {"hex": "1600149813d92cdaef0f0b547a8b55de324038ad9ebb10", "asm": "00149813d92cdaef0f0b547a8b55de324038ad9ebb10"}, "vout": 1, "txid": "b0ed0f95c68f4d1565c2522e637c9f4b97741ac8b658528644edfb85dbaf4d55"}], "txid": "65b53aa05e15ec2d8fab5346f8ac6482016cd55fe66b13d366e82a42ab01d1c5", "blocktime": 1537869901, "version": 2, "confirmations": 11523, "time": 1537869901, "locktime": 542987, "vsize": 166, "size": 247}