{"hash": "65b8136e287a2cfe242a34e53c2e87936c9f085740c37372ed0e772eb04c7a6d", "blockhash": "000000000000000000022b45ed06c6f4ccd3cf7fb5ba4856ebd2e58215665228", "vout": [{"scriptPubKey": {"reqSigs": 1, "hex": "76a9148c277de9d68cecf9caae341a153f5bed8f666a2c88ac", "addresses": ["1Dn4uoHf8uVkwdX1dJpZgjZfsvFQNhRz4m"], "asm": "OP_DUP OP_HASH160 8c277de9d68cecf9caae341a153f5bed8f666a2c OP_EQUALVERIFY OP_CHECKSIG", "type": "pubkeyhash"}, "value": 0.00671193, "n": 0}, {"scriptPubKey": {"reqSigs": 1, "hex": "a9145b798374a580bdc33305cb52e519ce6ebad6f3d887", "addresses": ["3A2gyuWnHYqCB5FqGPR31FD84GPDZPEZp6"], "asm": "OP_HASH160 5b798374a580bdc33305cb52e519ce6ebad6f3d8 OP_EQUAL", "type": "scripthash"}, "value": 0.0171501, "n": 1}], "hex": "0100000001175adb18281ec24d6e8d904f3cf754b83d83f0e6ec77ff1bfda63ec4fc1d4f75010000006a473044022078d509ebb56ceda1a44bf7c19c34a169d17c09f3199260febddc1ea08e21813802202706ace8ba81d2edc5480b45c187816716aad83394e5bc787b97760f5a6a3c0c012103ac777764e0961aeb4b147dab845977cf5f9445de5cd0653865d49c135f2dd7f7ffffffff02d93d0a00000000001976a9148c277de9d68cecf9caae341a153f5bed8f666a2c88ac422b1a000000000017a9145b798374a580bdc33305cb52e519ce6ebad6f3d88700000000", "vin": [{"sequence": 4294967295, "scriptSig": {"hex": "473044022078d509ebb56ceda1a44bf7c19c34a169d17c09f3199260febddc1ea08e21813802202706ace8ba81d2edc5480b45c187816716aad83394e5bc787b97760f5a6a3c0c012103ac777764e0961aeb4b147dab845977cf5f9445de5cd0653865d49c135f2dd7f7", "asm": "3044022078d509ebb56ceda1a44bf7c19c34a169d17c09f3199260febddc1ea08e21813802202706ace8ba81d2edc5480b45c187816716aad83394e5bc787b97760f5a6a3c0c[ALL] 03ac777764e0961aeb4b147dab845977cf5f9445de5cd0653865d49c135f2dd7f7"}, "vout": 1, "txid": "754f1dfcc43ea6fd1bff77ece6f0833db854f73c4f908d6e4dc21e2818db5a17"}], "txid": "65b8136e287a2cfe242a34e53c2e87936c9f085740c37372ed0e772eb04c7a6d", "blocktime": 1537869901, "version": 1, "confirmations": 11523, "time": 1537869901, "locktime": 0, "vsize": 223, "size": 223}