{"hash": "65b9bfe39c0ab3ad34a40ba6c42b1e6fc695a5fcaaafdd2520dd7191f3e11e89", "blockhash": "0000000000000000000dcc0f55137456b1a82d3642486a52398922ac4d620174", "vout": [{"scriptPubKey": {"reqSigs": 1, "hex": "76a91435bd487c7904a49436bec12bc560bc2d3aa2974988ac", "addresses": ["15u9ZnsDUdcXdkKZoeujcUqESme276GihA"], "asm": "OP_DUP OP_HASH160 35bd487c7904a49436bec12bc560bc2d3aa29749 OP_EQUALVERIFY OP_CHECKSIG", "type": "pubkeyhash"}, "value": 2.304e-05, "n": 0}, {"scriptPubKey": {"reqSigs": 1, "hex": "a91479087fb69990e6be066bd7c5f88ad4d7d571f4d687", "addresses": ["3CiysGV2iHzahCWMckS1deLWwwsmQr7mF6"], "asm": "OP_HASH160 79087fb69990e6be066bd7c5f88ad4d7d571f4d6 OP_EQUAL", "type": "scripthash"}, "value": 0.0421, "n": 1}], "hex": "01000000051d9aa2a194dd7f5f90bce652a91d403117fa16d15762d84e414e30a6737e734e010000006a473044022052cd2c080ab14e50f1238775df6f1d5688ba4ca03c7b7e81bcbbddff165f267c02207193c8dd8f7001c6e526e0fd174577b5b68b89b1d74245bbec6ca7615934f45701210231eed691350167d826c3e6f3b98bac293b4a769930e3eb64c09dd9a054487e84ffffffff6a459cf1404f9f9fd773f396818b40dc53cf0267ce462f24c670ddcc753cfc56000000006a473044022077df0296722db5cc11aeec035f238de418f6320983970b7570023e2b07dfbe7a0220510e235a0886adea3ee37f0ebfc779b58466a9ee8e2e1f72bdbab9312cf3ce710121022388ec05bd4ff851123d92fc914baf1fd82a050a1e8aebf5f7d2d3b31eb4a1c0ffffffffcee0b22e3633bddde0fe50e5931d4c36ae80d682e625bd90fe73b1e645e1b99d000000006a4730440220782b9f9a8f39df2bb7dc1c16c44dc181c860382775eca43f1dc532b071b487d6022019e653c6da2395bf7b1f5eb4525367da88bc03e62a96c144ff49c8004116caf40121022939826671f1562512ee054979c70b354d5f1a8bf5bc6d0ba0b96823ab500b93ffffffff9276ab6bbf83797decef0e98e8307e0e9888914fcf69d3febdba3de94c113b9f000000006a47304402204922f3a7fa44dcdf6530e98dadee54d36c6b3455f13d1abbd48770b7528ecc56022069cbf26fae40872f83dce227103d9cab4f30308830035fb8d7838ac4780aab6b012102e1e523b0da85d402f1c795c6993cd7cb0625696bae4dd96a92df513a2443578bffffffff2b00c7ef858c44695dfd4ac15a0f15f69416a5d504defc1f3d194faa967349d7010000006b4830450221009a88f2b9cd94b488a7974326e598ab1ec7c6c77036c0419bd8d6e6ee536dbc9f022009171515c3dc6afd601d78f9fa7b7630785a93a61720bc0907c1379bd389f0a20121026fd57adf96525a13ba60e2736340dad402dd663853591f8520f7efbafe847735ffffffff0200090000000000001976a91435bd487c7904a49436bec12bc560bc2d3aa2974988ac503d40000000000017a91479087fb69990e6be066bd7c5f88ad4d7d571f4d68700000000", "vin": [{"sequence": 4294967295, "scriptSig": {"hex": "473044022052cd2c080ab14e50f1238775df6f1d5688ba4ca03c7b7e81bcbbddff165f267c02207193c8dd8f7001c6e526e0fd174577b5b68b89b1d74245bbec6ca7615934f45701210231eed691350167d826c3e6f3b98bac293b4a769930e3eb64c09dd9a054487e84", "asm": "3044022052cd2c080ab14e50f1238775df6f1d5688ba4ca03c7b7e81bcbbddff165f267c02207193c8dd8f7001c6e526e0fd174577b5b68b89b1d74245bbec6ca7615934f457[ALL] 0231eed691350167d826c3e6f3b98bac293b4a769930e3eb64c09dd9a054487e84"}, "vout": 1, "txid": "4e737e73a6304e414ed86257d116fa1731401da952e6bc905f7fdd94a1a29a1d"}, {"sequence": 4294967295, "scriptSig": {"hex": "473044022077df0296722db5cc11aeec035f238de418f6320983970b7570023e2b07dfbe7a0220510e235a0886adea3ee37f0ebfc779b58466a9ee8e2e1f72bdbab9312cf3ce710121022388ec05bd4ff851123d92fc914baf1fd82a050a1e8aebf5f7d2d3b31eb4a1c0", "asm": "3044022077df0296722db5cc11aeec035f238de418f6320983970b7570023e2b07dfbe7a0220510e235a0886adea3ee37f0ebfc779b58466a9ee8e2e1f72bdbab9312cf3ce71[ALL] 022388ec05bd4ff851123d92fc914baf1fd82a050a1e8aebf5f7d2d3b31eb4a1c0"}, "vout": 0, "txid": "56fc3c75ccdd70c6242f46ce6702cf53dc408b8196f373d79f9f4f40f19c456a"}, {"sequence": 4294967295, "scriptSig": {"hex": "4730440220782b9f9a8f39df2bb7dc1c16c44dc181c860382775eca43f1dc532b071b487d6022019e653c6da2395bf7b1f5eb4525367da88bc03e62a96c144ff49c8004116caf40121022939826671f1562512ee054979c70b354d5f1a8bf5bc6d0ba0b96823ab500b93", "asm": "30440220782b9f9a8f39df2bb7dc1c16c44dc181c860382775eca43f1dc532b071b487d6022019e653c6da2395bf7b1f5eb4525367da88bc03e62a96c144ff49c8004116caf4[ALL] 022939826671f1562512ee054979c70b354d5f1a8bf5bc6d0ba0b96823ab500b93"}, "vout": 0, "txid": "9db9e145e6b173fe90bd25e682d680ae364c1d93e550fee0ddbd33362eb2e0ce"}, {"sequence": 4294967295, "scriptSig": {"hex": "47304402204922f3a7fa44dcdf6530e98dadee54d36c6b3455f13d1abbd48770b7528ecc56022069cbf26fae40872f83dce227103d9cab4f30308830035fb8d7838ac4780aab6b012102e1e523b0da85d402f1c795c6993cd7cb0625696bae4dd96a92df513a2443578b", "asm": "304402204922f3a7fa44dcdf6530e98dadee54d36c6b3455f13d1abbd48770b7528ecc56022069cbf26fae40872f83dce227103d9cab4f30308830035fb8d7838ac4780aab6b[ALL] 02e1e523b0da85d402f1c795c6993cd7cb0625696bae4dd96a92df513a2443578b"}, "vout": 0, "txid": "9f3b114ce93dbabdfed369cf4f9188980e7e30e8980eefec7d7983bf6bab7692"}, {"sequence": 4294967295, "scriptSig": {"hex": "4830450221009a88f2b9cd94b488a7974326e598ab1ec7c6c77036c0419bd8d6e6ee536dbc9f022009171515c3dc6afd601d78f9fa7b7630785a93a61720bc0907c1379bd389f0a20121026fd57adf96525a13ba60e2736340dad402dd663853591f8520f7efbafe847735", "asm": "30450221009a88f2b9cd94b488a7974326e598ab1ec7c6c77036c0419bd8d6e6ee536dbc9f022009171515c3dc6afd601d78f9fa7b7630785a93a61720bc0907c1379bd389f0a2[ALL] 026fd57adf96525a13ba60e2736340dad402dd663853591f8520f7efbafe847735"}, "vout": 1, "txid": "d7497396aa4f193d1ffcde04d5a51694f6150f5ac14afd5d69448c85efc7002b"}], "txid": "65b9bfe39c0ab3ad34a40ba6c42b1e6fc695a5fcaaafdd2520dd7191f3e11e89", "blocktime": 1537870268, "version": 1, "confirmations": 11516, "time": 1537870268, "locktime": 0, "vsize": 812, "size": 812}