{"hash": "65bf7849697dd7bba4d1dec0d1dc288e061f316b257a678714c51619d772af3c", "blockhash": "000000000000000000022b45ed06c6f4ccd3cf7fb5ba4856ebd2e58215665228", "vout": [{"scriptPubKey": {"reqSigs": 1, "hex": "76a914d5e01c2ebbf985a09615cc672b98eb3bd4e6217388ac", "addresses": ["1LVsQJWDEwF1jzFbTX3WNQWpGYs7PnPpay"], "asm": "OP_DUP OP_HASH160 d5e01c2ebbf985a09615cc672b98eb3bd4e62173 OP_EQUALVERIFY OP_CHECKSIG", "type": "pubkeyhash"}, "value": 0.064, "n": 0}, {"scriptPubKey": {"reqSigs": 1, "hex": "76a9146814aa992c4781c2c0b4e8d1a6e6ecee916b6a2b88ac", "addresses": ["1AVL2ssCQ7YDQQXaxuaKpRNRhvu6nA6hp8"], "asm": "OP_DUP OP_HASH160 6814aa992c4781c2c0b4e8d1a6e6ecee916b6a2b OP_EQUALVERIFY OP_CHECKSIG", "type": "pubkeyhash"}, "value": 0.24729477, "n": 1}], "hex": "020000000101caaaf0510fb1778917cabfea27d4451bbe6462f3ab97ae12b59686c136e128010000006a47304402201744a7493fba60e93e2372937a261706fb4b7852544b00660a39374a7ebf1a110220079e22290eb24a814c36d777ffb91906666a23872f1037ff76b1bbc4da1e9a6b01210351c37371093626a8a9892ec09ac0fa4ea79631084ab1fb2458a090d1e97f4120ffffffff0200a86100000000001976a914d5e01c2ebbf985a09615cc672b98eb3bd4e6217388ac85577901000000001976a9146814aa992c4781c2c0b4e8d1a6e6ecee916b6a2b88ac00000000", "vin": [{"sequence": 4294967295, "scriptSig": {"hex": "47304402201744a7493fba60e93e2372937a261706fb4b7852544b00660a39374a7ebf1a110220079e22290eb24a814c36d777ffb91906666a23872f1037ff76b1bbc4da1e9a6b01210351c37371093626a8a9892ec09ac0fa4ea79631084ab1fb2458a090d1e97f4120", "asm": "304402201744a7493fba60e93e2372937a261706fb4b7852544b00660a39374a7ebf1a110220079e22290eb24a814c36d777ffb91906666a23872f1037ff76b1bbc4da1e9a6b[ALL] 0351c37371093626a8a9892ec09ac0fa4ea79631084ab1fb2458a090d1e97f4120"}, "vout": 1, "txid": "28e136c18696b512ae97abf36264be1b45d427eabfca178977b10f51f0aaca01"}], "txid": "65bf7849697dd7bba4d1dec0d1dc288e061f316b257a678714c51619d772af3c", "blocktime": 1537869901, "version": 2, "confirmations": 11523, "time": 1537869901, "locktime": 0, "vsize": 225, "size": 225}