{"hash": "399e883fab701af451f4f5f3cf037a2b075f80f41c710e915a138b6de102521c", "blockhash": "00000000000000000017f5eb5941039fbcee6240d03bc1f2f8e35350df66a1d8", "vout": [{"scriptPubKey": {"reqSigs": 1, "hex": "76a914e63660e3dda6a02d5449e0294bdca1fa999274ab88ac", "addresses": ["1MzFZQRRoWK3NnPNu7BqrFoH9AdS5wTCDH"], "asm": "OP_DUP OP_HASH160 e63660e3dda6a02d5449e0294bdca1fa999274ab OP_EQUALVERIFY OP_CHECKSIG", "type": "pubkeyhash"}, "value": 0.9999, "n": 0}, {"scriptPubKey": {"reqSigs": 1, "hex": "a914b1d18f270e4862877fef9d165c243118341b9c4287", "addresses": ["3HuEZvddiDEHpQJ51JkptDBzdrUArcQKoS"], "asm": "OP_HASH160 b1d18f270e4862877fef9d165c243118341b9c42 OP_EQUAL", "type": "scripthash"}, "value": 0.15479459, "n": 1}], "hex": "020000000001016665c7ed8e5eebe795f4a247b6e0b0730470243a37ff309c4176df953f9a375600000000171600142a0cb75d7cf93db09de569d38050d6e4968d12e9feffffff02f0b9f505000000001976a914e63660e3dda6a02d5449e0294bdca1fa999274ab88aca332ec000000000017a914b1d18f270e4862877fef9d165c243118341b9c42870247304402201fd6f55d16b1286377d783bcd95da0a15e5fb275818c22d9dd1db04ff2f3f0bc022018c3564f93ceecc11090b6187de239f8efd693f0d5cf32bfc62c10d49c84aa41012102b43f137c2e45c9a19587a9c0f420c5b9a93a0cfada9a37f08112ae4e27afbbf514490800", "vin": [{"txinwitness": ["304402201fd6f55d16b1286377d783bcd95da0a15e5fb275818c22d9dd1db04ff2f3f0bc022018c3564f93ceecc11090b6187de239f8efd693f0d5cf32bfc62c10d49c84aa4101", "02b43f137c2e45c9a19587a9c0f420c5b9a93a0cfada9a37f08112ae4e27afbbf5"], "sequence": 4294967294, "scriptSig": {"hex": "1600142a0cb75d7cf93db09de569d38050d6e4968d12e9", "asm": "00142a0cb75d7cf93db09de569d38050d6e4968d12e9"}, "vout": 0, "txid": "56379a3f95df76419c30ff373a24700473b0e0b647a2f495e7eb5e8eedc76566"}], "txid": "65c251c06ce5fb8c4513cb8de4074f6a7c6aaa05b46e0b211508546ac6feb3ac", "blocktime": 1537874412, "version": 2, "confirmations": 11468, "time": 1537874412, "locktime": 542996, "vsize": 168, "size": 249}