{"hash": "65c4368449025294020c0490a3fb77a4d44791d071ef5bce407033f52b695fa6", "blockhash": "0000000000000000000e13cef7c366c0283d82e591d1acd082e914b08063cdf1", "vout": [{"scriptPubKey": {"reqSigs": 1, "hex": "76a9143b02ae1dd8aaf63d079b7a8e6acce4c036a4f20488ac", "addresses": ["16P25YBT9k8CtWqsHAdGAUCAZE55zkG1ci"], "asm": "OP_DUP OP_HASH160 3b02ae1dd8aaf63d079b7a8e6acce4c036a4f204 OP_EQUALVERIFY OP_CHECKSIG", "type": "pubkeyhash"}, "value": 0.00012056, "n": 0}, {"scriptPubKey": {"reqSigs": 1, "hex": "a91455ed5909c348329dc66d8c404fa349371b052aef87", "addresses": ["39XMh4fQLWaMb2PM5XAG2b1MQeNgWuBtny"], "asm": "OP_HASH160 55ed5909c348329dc66d8c404fa349371b052aef OP_EQUAL", "type": "scripthash"}, "value": 0.00016, "n": 1}], "hex": "0100000001cff1f9de75a7676189976a2a148cef14fc5b6896c589498959ecc4ef4e4f2911930100006b48304502210087e9256b198fef4b596147eacdf79972a3a011941f2c0e01071381a4840c24ec0220417c6acedf57c1efb81d7365479e34b1335e277b280a7460edd56829b9e7b441012102ea5f6ae684a1699d336c64d9543e374853c5890f0a3793123914fd9ca664c6d0ffffffff02182f0000000000001976a9143b02ae1dd8aaf63d079b7a8e6acce4c036a4f20488ac803e00000000000017a91455ed5909c348329dc66d8c404fa349371b052aef8700000000", "vin": [{"sequence": 4294967295, "scriptSig": {"hex": "48304502210087e9256b198fef4b596147eacdf79972a3a011941f2c0e01071381a4840c24ec0220417c6acedf57c1efb81d7365479e34b1335e277b280a7460edd56829b9e7b441012102ea5f6ae684a1699d336c64d9543e374853c5890f0a3793123914fd9ca664c6d0", "asm": "304502210087e9256b198fef4b596147eacdf79972a3a011941f2c0e01071381a4840c24ec0220417c6acedf57c1efb81d7365479e34b1335e277b280a7460edd56829b9e7b441[ALL] 02ea5f6ae684a1699d336c64d9543e374853c5890f0a3793123914fd9ca664c6d0"}, "vout": 403, "txid": "11294f4eefc4ec59894989c596685bfc14ef8c142a6a97896167a775def9f1cf"}], "txid": "65c4368449025294020c0490a3fb77a4d44791d071ef5bce407033f52b695fa6", "blocktime": 1537871767, "version": 1, "confirmations": 11492, "time": 1537871767, "locktime": 0, "vsize": 224, "size": 224}