{"hash": "65c61d081ba93d193fabc86ac121290afcd7198d337bc2d936bb5e3f3e4586e6", "blockhash": "0000000000000000001f0ddff1eddb255c1121bcd4da4f1bc9a0da00cae72433", "vout": [{"scriptPubKey": {"reqSigs": 1, "hex": "76a914ea47ab0868df49293d751fc3221c63c333ee5a5488ac", "addresses": ["1NMkyUYuLjts1B45DACttpjWDvPMAE52hT"], "asm": "OP_DUP OP_HASH160 ea47ab0868df49293d751fc3221c63c333ee5a54 OP_EQUALVERIFY OP_CHECKSIG", "type": "pubkeyhash"}, "value": 0.0147834, "n": 0}, {"scriptPubKey": {"type": "nulldata", "hex": "6a4c50000077a70001bce166cdd5c3a8a548e45712af6c953dd567cf27e7e3ef3236678a62509738897a2b0c6b1d23b3efafcc8f3883695baa0f96061395acacf5c719bc9a9526289ac0f6612cd74e33776ee4", "asm": "OP_RETURN 000077a70001bce166cdd5c3a8a548e45712af6c953dd567cf27e7e3ef3236678a62509738897a2b0c6b1d23b3efafcc8f3883695baa0f96061395acacf5c719bc9a9526289ac0f6612cd74e33776ee4"}, "value": 0.0, "n": 1}], "hex": "010000000127b9b144d9918450dc5af8fab992a35e8d7e6d442bb3056b60d8bcb3c133d581000000006b483045022100cd0566a6df0a5dfbb82fefdcb65ee87bb685c73c70c6e20dfda33c9cbfa3befd022079a14c7f0f46adaf62c2a25ae0fad24db26fcf7eb253dce9b8a2e104b70a2189012102ddd80c46a31c0fa0408e59200a84927487f40a0a4578e9a10ee965bd1d549aeaffffffff02c48e1600000000001976a914ea47ab0868df49293d751fc3221c63c333ee5a5488ac0000000000000000536a4c50000077a70001bce166cdd5c3a8a548e45712af6c953dd567cf27e7e3ef3236678a62509738897a2b0c6b1d23b3efafcc8f3883695baa0f96061395acacf5c719bc9a9526289ac0f6612cd74e33776ee400000000", "vin": [{"sequence": 4294967295, "scriptSig": {"hex": "483045022100cd0566a6df0a5dfbb82fefdcb65ee87bb685c73c70c6e20dfda33c9cbfa3befd022079a14c7f0f46adaf62c2a25ae0fad24db26fcf7eb253dce9b8a2e104b70a2189012102ddd80c46a31c0fa0408e59200a84927487f40a0a4578e9a10ee965bd1d549aea", "asm": "3045022100cd0566a6df0a5dfbb82fefdcb65ee87bb685c73c70c6e20dfda33c9cbfa3befd022079a14c7f0f46adaf62c2a25ae0fad24db26fcf7eb253dce9b8a2e104b70a2189[ALL] 02ddd80c46a31c0fa0408e59200a84927487f40a0a4578e9a10ee965bd1d549aea"}, "vout": 0, "txid": "81d533c1b3bcd8606b05b32b446d7e8d5ea392b9faf85adc508491d944b1b927"}], "txid": "65c61d081ba93d193fabc86ac121290afcd7198d337bc2d936bb5e3f3e4586e6", "blocktime": 1537872018, "version": 1, "confirmations": 11489, "time": 1537872018, "locktime": 0, "vsize": 284, "size": 284}