{"hash": "65c68d68a5f98f6b4e6ed843a131e65a21092ba91589a538e19a0eb14e5a517e", "blockhash": "0000000000000000000e13cef7c366c0283d82e591d1acd082e914b08063cdf1", "vout": [{"scriptPubKey": {"reqSigs": 1, "hex": "76a914daba4ff1221fa711875006b43e2d76a18aa6cd4188ac", "addresses": ["1LwXW2KQvR1xUiQGLvzGY3ResMN68bShMh"], "asm": "OP_DUP OP_HASH160 daba4ff1221fa711875006b43e2d76a18aa6cd41 OP_EQUALVERIFY OP_CHECKSIG", "type": "pubkeyhash"}, "value": 0.000787, "n": 0}, {"scriptPubKey": {"reqSigs": 1, "hex": "76a9149d2d791bc35bcf4df034ed565aa9fcfd75d5621e88ac", "addresses": ["1FL5ZeFtQvaTMQFJ9LqU4G1S23NS66kNG1"], "asm": "OP_DUP OP_HASH160 9d2d791bc35bcf4df034ed565aa9fcfd75d5621e OP_EQUALVERIFY OP_CHECKSIG", "type": "pubkeyhash"}, "value": 0.00019348, "n": 1}], "hex": "0100000003908523e8c106fc6456d597001a89e5d8a8e090484bde6bfa7fb809cdc97635a8010000006b48304502210095f2e332caf9434b4350e603d0f646c0249b7e98e52e08163bd8dfe79a1a8d6702202a3383994e92cd202bd8f896446dd686f80ff585e3f7c0067bbf38845e0c9604012102ce2b71df9eb0ea37e995bfed51296121330914140540b17d67a9d90e6ee6535dffffffff2fccedb0b7f2f76391fa214662222cbae2c02f9e316733e94f4717b6fd779542010000006b483045022100c288824602045917d6980bb14a719ab1e885feb17111b817d25e5c4d54eef64802203d9ae125901744c64aba2ed1600fd01599924c1f09cc7429cdcad635a39fa9740121035efb03e45b08e9b3374014717d0be6b4165a5523d31b4088f8cc611b1e9fc96fffffffff44aaab5d08df12be9619b07b4542bb4528e1aa0bfc0ad1c1746c44da1a6e3a94010000006a47304402203f7128c9f2a1560b5ba49ce44839182d5ea4a06a7e0a3025f2817aa81b213ead022000c5e476fd5738737717486bc62208628eebede6fdc92bad161db3739150427d012103c4dc5d52da6fe2c5f245eb1b451657b6e1ba57a0324658e90d40e9e32371e226ffffffff026c330100000000001976a914daba4ff1221fa711875006b43e2d76a18aa6cd4188ac944b0000000000001976a9149d2d791bc35bcf4df034ed565aa9fcfd75d5621e88ac00000000", "vin": [{"sequence": 4294967295, "scriptSig": {"hex": "48304502210095f2e332caf9434b4350e603d0f646c0249b7e98e52e08163bd8dfe79a1a8d6702202a3383994e92cd202bd8f896446dd686f80ff585e3f7c0067bbf38845e0c9604012102ce2b71df9eb0ea37e995bfed51296121330914140540b17d67a9d90e6ee6535d", "asm": "304502210095f2e332caf9434b4350e603d0f646c0249b7e98e52e08163bd8dfe79a1a8d6702202a3383994e92cd202bd8f896446dd686f80ff585e3f7c0067bbf38845e0c9604[ALL] 02ce2b71df9eb0ea37e995bfed51296121330914140540b17d67a9d90e6ee6535d"}, "vout": 1, "txid": "a83576c9cd09b87ffa6bde4b4890e0a8d8e5891a0097d55664fc06c1e8238590"}, {"sequence": 4294967295, "scriptSig": {"hex": "483045022100c288824602045917d6980bb14a719ab1e885feb17111b817d25e5c4d54eef64802203d9ae125901744c64aba2ed1600fd01599924c1f09cc7429cdcad635a39fa9740121035efb03e45b08e9b3374014717d0be6b4165a5523d31b4088f8cc611b1e9fc96f", "asm": "3045022100c288824602045917d6980bb14a719ab1e885feb17111b817d25e5c4d54eef64802203d9ae125901744c64aba2ed1600fd01599924c1f09cc7429cdcad635a39fa974[ALL] 035efb03e45b08e9b3374014717d0be6b4165a5523d31b4088f8cc611b1e9fc96f"}, "vout": 1, "txid": "429577fdb617474fe93367319e2fc0e2ba2c22624621fa9163f7f2b7b0edcc2f"}, {"sequence": 4294967295, "scriptSig": {"hex": "47304402203f7128c9f2a1560b5ba49ce44839182d5ea4a06a7e0a3025f2817aa81b213ead022000c5e476fd5738737717486bc62208628eebede6fdc92bad161db3739150427d012103c4dc5d52da6fe2c5f245eb1b451657b6e1ba57a0324658e90d40e9e32371e226", "asm": "304402203f7128c9f2a1560b5ba49ce44839182d5ea4a06a7e0a3025f2817aa81b213ead022000c5e476fd5738737717486bc62208628eebede6fdc92bad161db3739150427d[ALL] 03c4dc5d52da6fe2c5f245eb1b451657b6e1ba57a0324658e90d40e9e32371e226"}, "vout": 1, "txid": "943a6e1ada446c74c1d10afc0baae12845bb42457bb01996be12df085dabaa44"}], "txid": "65c68d68a5f98f6b4e6ed843a131e65a21092ba91589a538e19a0eb14e5a517e", "blocktime": 1537871767, "version": 1, "confirmations": 11495, "time": 1537871767, "locktime": 0, "vsize": 521, "size": 521}