{"hash": "65c6788c05950511a1965b96ad6a93d853d8b66d09d8b43935b71f687e18ed28", "blockhash": "00000000000000000017f5eb5941039fbcee6240d03bc1f2f8e35350df66a1d8", "vout": [{"scriptPubKey": {"reqSigs": 1, "hex": "76a914ae9c2009954e7315d69b9490d637372d1e1a7a4888ac", "addresses": ["1GvFc9LqPUTptFEawR9ZrKHTYZeus6Vnnv"], "asm": "OP_DUP OP_HASH160 ae9c2009954e7315d69b9490d637372d1e1a7a48 OP_EQUALVERIFY OP_CHECKSIG", "type": "pubkeyhash"}, "value": 0.0790792, "n": 0}], "hex": "01000000015231e9fec3177834edda1f6d10171e8c9ca36f214a203a15d11f69bde8b1d243000000006b483045022100a19d43dc8d126fbf3bd6818b67b0f8c6bc86b08bf469b3221652575909ea57ae022067ead7bc5a6798e2b1bb88969f5d59d63c3b25fc498ee0e9fd388f254392ebf701210331932d98087e1dfa315ae14c9b0b245f8fae461993c00e35731f0b68e0fb361dffffffff0150aa7800000000001976a914ae9c2009954e7315d69b9490d637372d1e1a7a4888ac00000000", "vin": [{"sequence": 4294967295, "scriptSig": {"hex": "483045022100a19d43dc8d126fbf3bd6818b67b0f8c6bc86b08bf469b3221652575909ea57ae022067ead7bc5a6798e2b1bb88969f5d59d63c3b25fc498ee0e9fd388f254392ebf701210331932d98087e1dfa315ae14c9b0b245f8fae461993c00e35731f0b68e0fb361d", "asm": "3045022100a19d43dc8d126fbf3bd6818b67b0f8c6bc86b08bf469b3221652575909ea57ae022067ead7bc5a6798e2b1bb88969f5d59d63c3b25fc498ee0e9fd388f254392ebf7[ALL] 0331932d98087e1dfa315ae14c9b0b245f8fae461993c00e35731f0b68e0fb361d"}, "vout": 0, "txid": "43d2b1e8bd691fd1153a204a216fa39c8c1e17106d1fdaed347817c3fee93152"}], "txid": "65c6788c05950511a1965b96ad6a93d853d8b66d09d8b43935b71f687e18ed28", "blocktime": 1537874412, "version": 1, "confirmations": 11466, "time": 1537874412, "locktime": 0, "vsize": 192, "size": 192}