{"hash": "77432730be260b329c015f9bcf921a08d89020d52c450917515238ea3b0adfab", "blockhash": "00000000000000000018f53835495a110e01622372bf6ae95dc86f2b0ab887b0", "vout": [{"scriptPubKey": {"reqSigs": 1, "hex": "a91449ecd850a5052d38b8ed30848bcf7094fddb9a4f87", "addresses": ["38RtypoxWrDghbvFt6fFEV4GPkG8rC69qt"], "asm": "OP_HASH160 49ecd850a5052d38b8ed30848bcf7094fddb9a4f OP_EQUAL", "type": "scripthash"}, "value": 0.00087823, "n": 0}, {"scriptPubKey": {"reqSigs": 1, "hex": "a9148e9347134d5aa5c87b2fca0e0be5775e9506280b87", "addresses": ["3EgtJp8TTsWwWb1ZGykyY4aofXTpdTD8xC"], "asm": "OP_HASH160 8e9347134d5aa5c87b2fca0e0be5775e9506280b OP_EQUAL", "type": "scripthash"}, "value": 0.15449037, "n": 1}, {"scriptPubKey": {"reqSigs": 1, "hex": "76a91480c1ac9afd701d4174601484c5a8f27b88993a3088ac", "addresses": ["1CjoWH2odAN65v7CaNS67k3QhMemDfHyk6"], "asm": "OP_DUP OP_HASH160 80c1ac9afd701d4174601484c5a8f27b88993a30 OP_EQUALVERIFY OP_CHECKSIG", "type": "pubkeyhash"}, "value": 0.35129573, "n": 2}], "hex": "0100000000010381d903a7126e577a1da955e510741417df11d5e29412445df1bffba1f6316a140100000023220020fab0f657d0b3b35d36c1f5fcd411e7204d65e64713ade49eded9270dedc62633ffffffffac5f9b2bc7352ef0ce093c5c42aa3766e0867836f8c8459c2304a944342092d50000000023220020b39d5e5090b5d591c32c3bfe9ef97786bbfa6745dd2197587b0622327220c2dbffffffff943909811902d2f737e21cd8fb28ba008350c1182e1dc822588774d4be22d8720100000023220020443268fed1c5cafe1bdce50e2f89d0b4f0c2b2a047d5a8022984cd7985bc3b37ffffffff030f5701000000000017a91449ecd850a5052d38b8ed30848bcf7094fddb9a4f87cdbbeb000000000017a9148e9347134d5aa5c87b2fca0e0be5775e9506280b87e5081802000000001976a91480c1ac9afd701d4174601484c5a8f27b88993a3088ac040047304402207a14a860969e9bebe21b0bdf2be46754620b5a6a73e76a1078af8dcb37f609a5022011d5c93dd11981cbe6df8116ffe796838528f22bfd69a6b58deed7d20b70a8ce0147304402202a142702b5074f0c2f61e5f042abef575706e520f99ffc524475fcd7f2e930d502200eb72bac3f62e31467bcd69e75f34817d974b1d9e25c5f28d36d8ba548ffb31e016952210340e59ea87a8f44834a58b47880c9d72937f606b1d84fc32a5efcf31f0f94e4b521039575846ac5ba43f3be86d206be2ab0702032d8aeef98d9d8d6b0bc7d3b0add352102d9e937e3605aa0a2dd93038890d60fa550c43fa716f63c6153bf98abbc75043953ae040047304402203faa287ce2eb31afe68fef5b680ce4e6de1c2a8902b88743b60c9b275fe074c302206cd0b3a906531158ea2bce7cf2486611332e6a774eb35e315df7932f0eae704901473044022015b32b2fc42cb55a8231c75745f0c712225a83b4081cbef4acbb64a6ec75b23b02203f02beb522c4cbba57b8769b76733625b8fa39c9d40fa8674ba467d4bc65461701695221023932b60714b86aa98a30c43ce7d19de1c791ca20ff03da9d7bf1a74bfc67f5ac21022ab0dff92cb23f81503894e8a02289f0d63a6486835fb25a72e1bdc8894d96242102d28dceee6d6a50942f835a13ba8e2ad840b01de272424948a559fb7956413d8653ae0400483045022100da33cc59d8cb5197914ab325d6604c0f258b20c6357d6a092ce44b2297fd32d70220271cb340a7828fba3e8146cd1f3774f29cb9243b821dab1e132d17da6cb7d20e01483045022100acf8a382669c40c4a6e463dfe22278bff7951b35f1d02c07606ca160f898fca9022078c1d7dcb17b09b37364b9d671f079e0c16ddac4813c38c8a61680ac8a51bae20169522103f8784f460d0c45a21c5547b9747bd4ff1c4f9754b33a477c56dd4bec3adc34ea21036109665265d5f8fa9c7528535ebe40ef290f2b446f65a6bf7a24460557c7cb3b2102d56f667ec65810fa83b3e76f61d623a63e78daf25d008616f9d20b247703db0853ae00000000", "vin": [{"txinwitness": ["", "304402207a14a860969e9bebe21b0bdf2be46754620b5a6a73e76a1078af8dcb37f609a5022011d5c93dd11981cbe6df8116ffe796838528f22bfd69a6b58deed7d20b70a8ce01", "304402202a142702b5074f0c2f61e5f042abef575706e520f99ffc524475fcd7f2e930d502200eb72bac3f62e31467bcd69e75f34817d974b1d9e25c5f28d36d8ba548ffb31e01", "52210340e59ea87a8f44834a58b47880c9d72937f606b1d84fc32a5efcf31f0f94e4b521039575846ac5ba43f3be86d206be2ab0702032d8aeef98d9d8d6b0bc7d3b0add352102d9e937e3605aa0a2dd93038890d60fa550c43fa716f63c6153bf98abbc75043953ae"], "sequence": 4294967295, "scriptSig": {"hex": "220020fab0f657d0b3b35d36c1f5fcd411e7204d65e64713ade49eded9270dedc62633", "asm": "0020fab0f657d0b3b35d36c1f5fcd411e7204d65e64713ade49eded9270dedc62633"}, "vout": 1, "txid": "146a31f6a1fbbff15d441294e2d511df17147410e555a91d7a576e12a703d981"}, {"txinwitness": ["", "304402203faa287ce2eb31afe68fef5b680ce4e6de1c2a8902b88743b60c9b275fe074c302206cd0b3a906531158ea2bce7cf2486611332e6a774eb35e315df7932f0eae704901", "3044022015b32b2fc42cb55a8231c75745f0c712225a83b4081cbef4acbb64a6ec75b23b02203f02beb522c4cbba57b8769b76733625b8fa39c9d40fa8674ba467d4bc65461701", "5221023932b60714b86aa98a30c43ce7d19de1c791ca20ff03da9d7bf1a74bfc67f5ac21022ab0dff92cb23f81503894e8a02289f0d63a6486835fb25a72e1bdc8894d96242102d28dceee6d6a50942f835a13ba8e2ad840b01de272424948a559fb7956413d8653ae"], "sequence": 4294967295, "scriptSig": {"hex": "220020b39d5e5090b5d591c32c3bfe9ef97786bbfa6745dd2197587b0622327220c2db", "asm": "0020b39d5e5090b5d591c32c3bfe9ef97786bbfa6745dd2197587b0622327220c2db"}, "vout": 0, "txid": "d592203444a904239c45c8f8367886e06637aa425c3c09cef02e35c72b9b5fac"}, {"txinwitness": ["", "3045022100da33cc59d8cb5197914ab325d6604c0f258b20c6357d6a092ce44b2297fd32d70220271cb340a7828fba3e8146cd1f3774f29cb9243b821dab1e132d17da6cb7d20e01", "3045022100acf8a382669c40c4a6e463dfe22278bff7951b35f1d02c07606ca160f898fca9022078c1d7dcb17b09b37364b9d671f079e0c16ddac4813c38c8a61680ac8a51bae201", "522103f8784f460d0c45a21c5547b9747bd4ff1c4f9754b33a477c56dd4bec3adc34ea21036109665265d5f8fa9c7528535ebe40ef290f2b446f65a6bf7a24460557c7cb3b2102d56f667ec65810fa83b3e76f61d623a63e78daf25d008616f9d20b247703db0853ae"], "sequence": 4294967295, "scriptSig": {"hex": "220020443268fed1c5cafe1bdce50e2f89d0b4f0c2b2a047d5a8022984cd7985bc3b37", "asm": "0020443268fed1c5cafe1bdce50e2f89d0b4f0c2b2a047d5a8022984cd7985bc3b37"}, "vout": 1, "txid": "72d822bed474875822c81d2e18c1508300ba28fbd81ce237f7d2021981093994"}], "txid": "65ebaabb95b9b0becab14b7336f51508b3f1785d4fff2388bd9d43a08f3180d1", "blocktime": 1537870928, "version": 1, "confirmations": 11512, "time": 1537870928, "locktime": 0, "vsize": 526, "size": 1096}