{"hash": "74709e51ed72bb05cc40f492b83d64c2262bda9bd678b5ce0c94f4905bbc66d5", "blockhash": "00000000000000000017f5eb5941039fbcee6240d03bc1f2f8e35350df66a1d8", "vout": [{"scriptPubKey": {"reqSigs": 1, "hex": "76a9143312a6d65a0b77859918f4feaa07b6f51c29901888ac", "addresses": ["15f3oj9paJrLe6z5MBAXwymzoewpK2Tp7B"], "asm": "OP_DUP OP_HASH160 3312a6d65a0b77859918f4feaa07b6f51c299018 OP_EQUALVERIFY OP_CHECKSIG", "type": "pubkeyhash"}, "value": 0.00344198, "n": 0}, {"scriptPubKey": {"reqSigs": 1, "hex": "a914cfaabfe8c271f99a4364b5197ba50c6cddb7adb987", "addresses": ["3Ld4M9RPwEG3VeQbHcC1PsKUndQL7VYLZP"], "asm": "OP_HASH160 cfaabfe8c271f99a4364b5197ba50c6cddb7adb9 OP_EQUAL", "type": "scripthash"}, "value": 0.6551246, "n": 1}], "hex": "0100000000010124755778bff558cadbaff7a7ca9490d0939b8ae7f44df834257166c16988327c01000000232200202f7b4024602241b47d3306a6733d9889e4b6761d9f1cb82a18aa8b9ac4506e51ffffffff0286400500000000001976a9143312a6d65a0b77859918f4feaa07b6f51c29901888ac0ca4e7030000000017a914cfaabfe8c271f99a4364b5197ba50c6cddb7adb987040047304402203bf2ba60eb2609d85ac6fac6ee0554a501241e29cf4e1a23e9f926d99e3bc0d0022047e4b041863ed677fd5d7e40a305fc70b5a064e0a208ca200b648a215e69ab590147304402200b33eaf305629de5b9eff59b7320e3d61dbf5760bee044a82e57b3c1c00f0fea02205d35c46e8409d95e4aeb2d98cd19ca4be4df8c7e6e91f4d6523fd4cf657ffa1c0147522102973cd851fecff3a20f08377b072729f303801eee1b7678668338adcaec770ec221033e4af03ed09dbd8a417ba042650d5bd1db7f14f271a8f660974e3abf1fdfa4da52ae00000000", "vin": [{"txinwitness": ["", "304402203bf2ba60eb2609d85ac6fac6ee0554a501241e29cf4e1a23e9f926d99e3bc0d0022047e4b041863ed677fd5d7e40a305fc70b5a064e0a208ca200b648a215e69ab5901", "304402200b33eaf305629de5b9eff59b7320e3d61dbf5760bee044a82e57b3c1c00f0fea02205d35c46e8409d95e4aeb2d98cd19ca4be4df8c7e6e91f4d6523fd4cf657ffa1c01", "522102973cd851fecff3a20f08377b072729f303801eee1b7678668338adcaec770ec221033e4af03ed09dbd8a417ba042650d5bd1db7f14f271a8f660974e3abf1fdfa4da52ae"], "sequence": 4294967295, "scriptSig": {"hex": "2200202f7b4024602241b47d3306a6733d9889e4b6761d9f1cb82a18aa8b9ac4506e51", "asm": "00202f7b4024602241b47d3306a6733d9889e4b6761d9f1cb82a18aa8b9ac4506e51"}, "vout": 1, "txid": "7c328869c166712534f84df4e78a9b93d09094caa7f7afdbca58f5bf78577524"}], "txid": "65edd4418e3785396aedc2117c90a9708133b6dc9ecc2c3d3fd4cb0d2a19ffdc", "blocktime": 1537874412, "version": 1, "confirmations": 11467, "time": 1537874412, "locktime": 0, "vsize": 207, "size": 372}