{"hash": "65f45afcfdcdab11f6918faae43d32257a27f9d5dbea6de62d0d37ab82f78bdd", "blockhash": "00000000000000000004ffacab907a6b429b9a5745fa0b75af4234bf69dd7176", "vout": [{"scriptPubKey": {"reqSigs": 1, "hex": "76a914c1780e6270312baec33f73c2794d7ce3e783db6f88ac", "addresses": ["1JdyEg4rbUAbXajW2QN1UKKximokm79uJd"], "asm": "OP_DUP OP_HASH160 c1780e6270312baec33f73c2794d7ce3e783db6f OP_EQUALVERIFY OP_CHECKSIG", "type": "pubkeyhash"}, "value": 0.002321, "n": 0}, {"scriptPubKey": {"reqSigs": 1, "hex": "76a914bc463dd176e22f36efbeda1b6295588b614d180588ac", "addresses": ["1JAWBXbcXspsJWGG95peNpzXkR4UvqpJhC"], "asm": "OP_DUP OP_HASH160 bc463dd176e22f36efbeda1b6295588b614d1805 OP_EQUALVERIFY OP_CHECKSIG", "type": "pubkeyhash"}, "value": 0.00829024, "n": 1}], "hex": "01000000019a7294d8c90ccf0a4e731b51543ff4d38b90efe96d87f56703e270e850171c90010000006b483045022100c90e4676f9d5a7bff4dd0013e0b74d17c9282c85939480838c730df20e751976022057d93cf1e207d329977e30d25298682ba54e85b2e0b529b2019ac5fff29680ee0121020044b745b0baa21c1550e151986d5f32893d26ba4d58c0cff638f4a364b0a533ffffffff02a48a0300000000001976a914c1780e6270312baec33f73c2794d7ce3e783db6f88ac60a60c00000000001976a914bc463dd176e22f36efbeda1b6295588b614d180588ac00000000", "vin": [{"sequence": 4294967295, "scriptSig": {"hex": "483045022100c90e4676f9d5a7bff4dd0013e0b74d17c9282c85939480838c730df20e751976022057d93cf1e207d329977e30d25298682ba54e85b2e0b529b2019ac5fff29680ee0121020044b745b0baa21c1550e151986d5f32893d26ba4d58c0cff638f4a364b0a533", "asm": "3045022100c90e4676f9d5a7bff4dd0013e0b74d17c9282c85939480838c730df20e751976022057d93cf1e207d329977e30d25298682ba54e85b2e0b529b2019ac5fff29680ee[ALL] 020044b745b0baa21c1550e151986d5f32893d26ba4d58c0cff638f4a364b0a533"}, "vout": 1, "txid": "901c1750e870e20367f5876de9ef908bd3f43f54511b734e0acf0cc9d894729a"}], "txid": "65f45afcfdcdab11f6918faae43d32257a27f9d5dbea6de62d0d37ab82f78bdd", "blocktime": 1537875543, "version": 1, "confirmations": 11464, "time": 1537875543, "locktime": 0, "vsize": 226, "size": 226}