{"hash": "65f572207d7d483827eb65e72ea18ff265030b61286b5672faf569fe3c252790", "blockhash": "00000000000000000017f5eb5941039fbcee6240d03bc1f2f8e35350df66a1d8", "vout": [{"scriptPubKey": {"reqSigs": 1, "hex": "76a914aaccd15cac2820be9680bef86b1a45b29f4de7f888ac", "addresses": ["1Ga7Ebxs6GyX5iy8KdMW4oN6dxZT4dVpuB"], "asm": "OP_DUP OP_HASH160 aaccd15cac2820be9680bef86b1a45b29f4de7f8 OP_EQUALVERIFY OP_CHECKSIG", "type": "pubkeyhash"}, "value": 0.36797008, "n": 0}, {"scriptPubKey": {"reqSigs": 1, "hex": "76a914dfa48c3263ff258db4d52fbc758cb0b0c20335fb88ac", "addresses": ["1MPWokSMLYqB7BkBMdBd2yRQTDq9RvQx7n"], "asm": "OP_DUP OP_HASH160 dfa48c3263ff258db4d52fbc758cb0b0c20335fb OP_EQUALVERIFY OP_CHECKSIG", "type": "pubkeyhash"}, "value": 2.642, "n": 1}], "hex": "0100000002520a4a59571d59a3486392d99efbb8a78ff611c099360f39a129ccd81ff1168b000000006a4730440220464343a610a917465a453ea3436f0dde12cf5da4dae280be033d0a4d7403e8d202207f304c6612e89bd6e30a2b49223859cf612719f6ec9978aca9774950fc94d48c0121023fcd2c2071fb758c2a502bc86169e87b6706f81bc21f1ca5e0231acd8f7998c6ffffffffc9d3117831c3c2cf6dd7a47bbf6c56f3b046c8430865af76978b394940c7d3ed2d0000006b483045022100d67b5bc656d32d823897007689575654207810b5e8661f3c4332368a96133c7b022004b46a19ae74f8f6bd4f218a445cb4015a2609261650d6ae39d9fd0df1d8a7d00121023fcd2c2071fb758c2a502bc86169e87b6706f81bc21f1ca5e0231acd8f7998c6ffffffff02507a3102000000001976a914aaccd15cac2820be9680bef86b1a45b29f4de7f888ac405fbf0f000000001976a914dfa48c3263ff258db4d52fbc758cb0b0c20335fb88ac00000000", "vin": [{"sequence": 4294967295, "scriptSig": {"hex": "4730440220464343a610a917465a453ea3436f0dde12cf5da4dae280be033d0a4d7403e8d202207f304c6612e89bd6e30a2b49223859cf612719f6ec9978aca9774950fc94d48c0121023fcd2c2071fb758c2a502bc86169e87b6706f81bc21f1ca5e0231acd8f7998c6", "asm": "30440220464343a610a917465a453ea3436f0dde12cf5da4dae280be033d0a4d7403e8d202207f304c6612e89bd6e30a2b49223859cf612719f6ec9978aca9774950fc94d48c[ALL] 023fcd2c2071fb758c2a502bc86169e87b6706f81bc21f1ca5e0231acd8f7998c6"}, "vout": 0, "txid": "8b16f11fd8cc29a1390f3699c011f68fa7b8fb9ed9926348a3591d57594a0a52"}, {"sequence": 4294967295, "scriptSig": {"hex": "483045022100d67b5bc656d32d823897007689575654207810b5e8661f3c4332368a96133c7b022004b46a19ae74f8f6bd4f218a445cb4015a2609261650d6ae39d9fd0df1d8a7d00121023fcd2c2071fb758c2a502bc86169e87b6706f81bc21f1ca5e0231acd8f7998c6", "asm": "3045022100d67b5bc656d32d823897007689575654207810b5e8661f3c4332368a96133c7b022004b46a19ae74f8f6bd4f218a445cb4015a2609261650d6ae39d9fd0df1d8a7d0[ALL] 023fcd2c2071fb758c2a502bc86169e87b6706f81bc21f1ca5e0231acd8f7998c6"}, "vout": 45, "txid": "edd3c74049398b9776af650843c846b0f3566cbf7ba4d76dcfc2c3317811d3c9"}], "txid": "65f572207d7d483827eb65e72ea18ff265030b61286b5672faf569fe3c252790", "blocktime": 1537874412, "version": 1, "confirmations": 11467, "time": 1537874412, "locktime": 0, "vsize": 373, "size": 373}