{"hash": "65f69e8f231e3f5601d021ab9cbcdf951fa803b679cf3e004d19b25d03264bb5", "blockhash": "00000000000000000018f53835495a110e01622372bf6ae95dc86f2b0ab887b0", "vout": [{"scriptPubKey": {"type": "nulldata", "hex": "6a4c500000778a00018c2006064182e1e4eaecdd68e3ef3236678a625097bcbefa6b8351586b4e7a7ca6b3f273977974e72d62a9b05e015baa0bda0613db55cc938854bc9a9526289ac0f6612cd74e33776ee4", "asm": "OP_RETURN 0000778a00018c2006064182e1e4eaecdd68e3ef3236678a625097bcbefa6b8351586b4e7a7ca6b3f273977974e72d62a9b05e015baa0bda0613db55cc938854bc9a9526289ac0f6612cd74e33776ee4"}, "value": 0.0, "n": 0}, {"scriptPubKey": {"reqSigs": 1, "hex": "76a914fbc32428aafb2c11538020be98a337df28a5e42688ac", "addresses": ["1PxCNoT9H9afGwS5R9pSmZjQCqEzVHjPN4"], "asm": "OP_DUP OP_HASH160 fbc32428aafb2c11538020be98a337df28a5e426 OP_EQUALVERIFY OP_CHECKSIG", "type": "pubkeyhash"}, "value": 0.0010522, "n": 1}], "hex": "0100000001fb60d9fd5797aa7d6013c8fb58d4b7ca8fcac0194a482d4b5f67ae31b9aa98bd010000006b48304502210094105ae8adda692e39303e19050ae85b9fa8af165ae16faab20dccc7f9e8fb3502207d33a0ccec02d3f6f770797efa8f1c913544e07a99d103e81699f01bd97febe5012103e3f4139c26884f275e7535992772bbf4bb03f4a0e4e27ea94401ed9ac3a391aaffffffff020000000000000000536a4c500000778a00018c2006064182e1e4eaecdd68e3ef3236678a625097bcbefa6b8351586b4e7a7ca6b3f273977974e72d62a9b05e015baa0bda0613db55cc938854bc9a9526289ac0f6612cd74e33776ee4049b0100000000001976a914fbc32428aafb2c11538020be98a337df28a5e42688ac00000000", "vin": [{"sequence": 4294967295, "scriptSig": {"hex": "48304502210094105ae8adda692e39303e19050ae85b9fa8af165ae16faab20dccc7f9e8fb3502207d33a0ccec02d3f6f770797efa8f1c913544e07a99d103e81699f01bd97febe5012103e3f4139c26884f275e7535992772bbf4bb03f4a0e4e27ea94401ed9ac3a391aa", "asm": "304502210094105ae8adda692e39303e19050ae85b9fa8af165ae16faab20dccc7f9e8fb3502207d33a0ccec02d3f6f770797efa8f1c913544e07a99d103e81699f01bd97febe5[ALL] 03e3f4139c26884f275e7535992772bbf4bb03f4a0e4e27ea94401ed9ac3a391aa"}, "vout": 1, "txid": "bd98aab931ae675f4b2d484a19c0ca8fcab7d458fbc813607daa9757fdd960fb"}], "txid": "65f69e8f231e3f5601d021ab9cbcdf951fa803b679cf3e004d19b25d03264bb5", "blocktime": 1537870928, "version": 1, "confirmations": 11512, "time": 1537870928, "locktime": 0, "vsize": 284, "size": 284}