{"hash": "65f75bd9968453d6211f17184b03d63847a4c411e5320c720d8176848935a937", "blockhash": "0000000000000000000e13cef7c366c0283d82e591d1acd082e914b08063cdf1", "vout": [{"scriptPubKey": {"reqSigs": 1, "hex": "76a914fefc23371cc3794792f3f764aa6dcb4e4cd4ecc688ac", "addresses": ["1QFEgYtC57AQsbehqsVgocLDTAsSNLyjHa"], "asm": "OP_DUP OP_HASH160 fefc23371cc3794792f3f764aa6dcb4e4cd4ecc6 OP_EQUALVERIFY OP_CHECKSIG", "type": "pubkeyhash"}, "value": 0.0001625, "n": 0}, {"scriptPubKey": {"reqSigs": 1, "hex": "76a91469457e43c9251fc4250ae8eceedf188a0b18bae588ac", "addresses": ["1AbdCcisc1j9MYnbaYuyYufvJig8ncokVn"], "asm": "OP_DUP OP_HASH160 69457e43c9251fc4250ae8eceedf188a0b18bae5 OP_EQUALVERIFY OP_CHECKSIG", "type": "pubkeyhash"}, "value": 0.01102872, "n": 1}], "hex": "010000000290cc68b2c598d31f780a8ba97185191bfef0c4784eb62ffa876630fe52230c20000000006a47304402206f391eba1cd6460cb46152019cbd2c82a2241253673ef223c68dbea0443de751022028fd41d62676d5a865686e6659409379b13b56f234d11c049e6fe95541f5222d01210386b7d4271c6e6cada40c680765a7fbf0a649d7fe73c3ffabe6aa1ae6a80a4e7fffffffffabebaf72b6366c21b808290ae71e96e074c2b01a9f4fcfeadbfb5e8f49517771000000006b4830450221009e3b9a50f63eff7c4840bd7e6f9389c1467c8bd9642e900d67bdae9a508b7d6f0220745b8bcb454e308e47cd0e1b5b0b86b88c795b0146bbd5db75ffab743f541c2f0121033ce7cad1a9e4545c1fa36ae113a8542d5dd3599ce02b1611c646e32eec2b7ccfffffffff027a3f0000000000001976a914fefc23371cc3794792f3f764aa6dcb4e4cd4ecc688ac18d41000000000001976a91469457e43c9251fc4250ae8eceedf188a0b18bae588ac00000000", "vin": [{"sequence": 4294967295, "scriptSig": {"hex": "47304402206f391eba1cd6460cb46152019cbd2c82a2241253673ef223c68dbea0443de751022028fd41d62676d5a865686e6659409379b13b56f234d11c049e6fe95541f5222d01210386b7d4271c6e6cada40c680765a7fbf0a649d7fe73c3ffabe6aa1ae6a80a4e7f", "asm": "304402206f391eba1cd6460cb46152019cbd2c82a2241253673ef223c68dbea0443de751022028fd41d62676d5a865686e6659409379b13b56f234d11c049e6fe95541f5222d[ALL] 0386b7d4271c6e6cada40c680765a7fbf0a649d7fe73c3ffabe6aa1ae6a80a4e7f"}, "vout": 0, "txid": "200c2352fe306687fa2fb64e78c4f0fe1b198571a98b0a781fd398c5b268cc90"}, {"sequence": 4294967295, "scriptSig": {"hex": "4830450221009e3b9a50f63eff7c4840bd7e6f9389c1467c8bd9642e900d67bdae9a508b7d6f0220745b8bcb454e308e47cd0e1b5b0b86b88c795b0146bbd5db75ffab743f541c2f0121033ce7cad1a9e4545c1fa36ae113a8542d5dd3599ce02b1611c646e32eec2b7ccf", "asm": "30450221009e3b9a50f63eff7c4840bd7e6f9389c1467c8bd9642e900d67bdae9a508b7d6f0220745b8bcb454e308e47cd0e1b5b0b86b88c795b0146bbd5db75ffab743f541c2f[ALL] 033ce7cad1a9e4545c1fa36ae113a8542d5dd3599ce02b1611c646e32eec2b7ccf"}, "vout": 0, "txid": "717751498f5efbdbeacf4f9f1ab0c274e0961ee70a2908b8216c36b672afebab"}], "txid": "65f75bd9968453d6211f17184b03d63847a4c411e5320c720d8176848935a937", "blocktime": 1537871767, "version": 1, "confirmations": 11493, "time": 1537871767, "locktime": 0, "vsize": 373, "size": 373}