{"hash": "5e5ff66d0afe198a0f91a1b5a1305d59c91abb0d513abc772296e24a8129e9b4", "blockhash": "0000000000000000000baef3f32e3676a92c3b2e5da21b426e4f302fc371ce76", "vout": [{"scriptPubKey": {"reqSigs": 1, "hex": "a9143eb8260cc7dc103aa7b2f96bf4f08cbee253260287", "addresses": ["37QeRJrAoN4G9G4zVknKWvKmxZa2P94rF7"], "asm": "OP_HASH160 3eb8260cc7dc103aa7b2f96bf4f08cbee2532602 OP_EQUAL", "type": "scripthash"}, "value": 0.09482352, "n": 0}, {"scriptPubKey": {"reqSigs": 1, "hex": "a914bdfb49d6c5fced671f37dfba5963d42615d4883d87", "addresses": ["3K1YfdGctyd3x5DjPrBhGgfpiFdeH8qBwd"], "asm": "OP_HASH160 bdfb49d6c5fced671f37dfba5963d42615d4883d OP_EQUAL", "type": "scripthash"}, "value": 0.14101904, "n": 1}], "hex": "0100000000010126e62e78d467096980a2083cf083a1fe427ab52985a5138e1a8a6925ed15daa201000000171600147991b6f1c0ca7e085d93bd813526c85d49b88883ffffffff0270b090000000000017a9143eb8260cc7dc103aa7b2f96bf4f08cbee253260287902dd7000000000017a914bdfb49d6c5fced671f37dfba5963d42615d4883d8702483045022100a82596c22fef5a369cee81c15ba42fb79ed7d4175cd6920eee4d63259b4de03a022077518fa3160006e2d5f2d59f821a02e7ac835dc81d9c5e48878427c4d4c1f98d0121031ef90e3efc7d76971fef352ec8d8af40f9df4a9396af9d39b153ed0d29aca29c00000000", "vin": [{"txinwitness": ["3045022100a82596c22fef5a369cee81c15ba42fb79ed7d4175cd6920eee4d63259b4de03a022077518fa3160006e2d5f2d59f821a02e7ac835dc81d9c5e48878427c4d4c1f98d01", "031ef90e3efc7d76971fef352ec8d8af40f9df4a9396af9d39b153ed0d29aca29c"], "sequence": 4294967295, "scriptSig": {"hex": "1600147991b6f1c0ca7e085d93bd813526c85d49b88883", "asm": "00147991b6f1c0ca7e085d93bd813526c85d49b88883"}, "vout": 1, "txid": "a2da15ed25698a1a8e13a58529b57a42fea183f03c08a280690967d4782ee626"}], "txid": "65f7ba1bedf038cec5cba906d65838dd294bc93cc4b8660d39b14a4619cff512", "blocktime": 1537876114, "version": 1, "confirmations": 11460, "time": 1537876114, "locktime": 0, "vsize": 166, "size": 248}