{"hash": "e9f3b03f58b423b0da4281c5072f85ab06af72b8ac43f54ad3d7548b7064f448", "blockhash": "0000000000000000001f76057863aec43deb6fa401d9628bb513d65a8098bfab", "vout": [{"scriptPubKey": {"reqSigs": 1, "hex": "76a914129f6feec7973d64e92ab1f21870a1edb86b506888ac", "addresses": ["12hUAM6HgKdEyM32pS8nUJMZqBn2ET8DXk"], "asm": "OP_DUP OP_HASH160 129f6feec7973d64e92ab1f21870a1edb86b5068 OP_EQUALVERIFY OP_CHECKSIG", "type": "pubkeyhash"}, "value": 0.01543592, "n": 0}, {"scriptPubKey": {"reqSigs": 1, "hex": "76a91486ccbf97fcaad7a8a9721b4f1872bf6fe8152ac888ac", "addresses": ["1DHkpsiVwFhyd1V2ofBzzhbquppLEhyJYd"], "asm": "OP_DUP OP_HASH160 86ccbf97fcaad7a8a9721b4f1872bf6fe8152ac8 OP_EQUALVERIFY OP_CHECKSIG", "type": "pubkeyhash"}, "value": 0.013, "n": 1}, {"scriptPubKey": {"reqSigs": 1, "hex": "a9141e14237896b64ece0cf3b27b64dbb9f0f3cb414c87", "addresses": ["34S4KYsLHDXina6dsPcK178Z2gdKPihtSb"], "asm": "OP_HASH160 1e14237896b64ece0cf3b27b64dbb9f0f3cb414c OP_EQUAL", "type": "scripthash"}, "value": 0.01446246, "n": 2}, {"scriptPubKey": {"reqSigs": 1, "hex": "a9148d0861aa3cf9bde7b2b01c12613be1801cc54c6187", "addresses": ["3EYjEwzVbvyq4GZL2FbMHyNyqybL6ewxhB"], "asm": "OP_HASH160 8d0861aa3cf9bde7b2b01c12613be1801cc54c61 OP_EQUAL", "type": "scripthash"}, "value": 0.0052, "n": 3}, {"scriptPubKey": {"reqSigs": 1, "hex": "a914fba22b9313852f39df7ac7afbdbfe06a4ee2186287", "addresses": ["3QdXoUdJ3S1TAksb49CF3twszThTat6oko"], "asm": "OP_HASH160 fba22b9313852f39df7ac7afbdbfe06a4ee21862 OP_EQUAL", "type": "scripthash"}, "value": 0.00166219, "n": 4}], "hex": "0200000000010131679dbe76d668bfa5610c13d29ad9ccfe325b4781bfc5e8ccd99a4eb75ff99c05000000171600140654a07efd3ca0097bfb9f5ad01d79382db284fcfdffffff05a88d1700000000001976a914129f6feec7973d64e92ab1f21870a1edb86b506888ac20d61300000000001976a91486ccbf97fcaad7a8a9721b4f1872bf6fe8152ac888ac661116000000000017a9141e14237896b64ece0cf3b27b64dbb9f0f3cb414c8740ef07000000000017a9148d0861aa3cf9bde7b2b01c12613be1801cc54c61874b8902000000000017a914fba22b9313852f39df7ac7afbdbfe06a4ee21862870247304402200c8ddffb3536a7549c05301cdf1b69b4b62abf2b2a397dc2fb120d235ed1b3e202202ddd9aac9c6dd470f0ec83c10692210ee849d5c7ceee4b57f58665f6c9d6c980012102c0e0c056910d456ad2c612920904be89a2849e92a691de7634aeb0b967d643b714490800", "vin": [{"txinwitness": ["304402200c8ddffb3536a7549c05301cdf1b69b4b62abf2b2a397dc2fb120d235ed1b3e202202ddd9aac9c6dd470f0ec83c10692210ee849d5c7ceee4b57f58665f6c9d6c98001", "02c0e0c056910d456ad2c612920904be89a2849e92a691de7634aeb0b967d643b7"], "sequence": 4294967293, "scriptSig": {"hex": "1600140654a07efd3ca0097bfb9f5ad01d79382db284fc", "asm": "00140654a07efd3ca0097bfb9f5ad01d79382db284fc"}, "vout": 5, "txid": "9cf95fb74e9ad9cce8c5bf81475b32feccd99ad2130c61a5bf68d676be9d6731"}], "txid": "65f98cfd5662cff83e4dc3cff7c40ee6b38f669782b8ceb05977489f29e0a16d", "blocktime": 1537873891, "version": 2, "confirmations": 11478, "time": 1537873891, "locktime": 542996, "vsize": 266, "size": 347}