{"hash": "65fc08077b40a3c7f98b7601315932d95fe97cc6b7da8cb7bda646d44b25953d", "blockhash": "00000000000000000004ffacab907a6b429b9a5745fa0b75af4234bf69dd7176", "vout": [{"scriptPubKey": {"reqSigs": 1, "hex": "76a914513847d8cb0483c8a4ca616baba273a5363a1f7d88ac", "addresses": ["18QT9zDbSDZd1Lfx6Rx62UZ44ay6DpZ6Bp"], "asm": "OP_DUP OP_HASH160 513847d8cb0483c8a4ca616baba273a5363a1f7d OP_EQUALVERIFY OP_CHECKSIG", "type": "pubkeyhash"}, "value": 1.82936587, "n": 0}, {"scriptPubKey": {"reqSigs": 1, "hex": "a91466632a3012d079778f56d3c4c0a7ccd469246c2b87", "addresses": ["3B2PeCdMEfcEe6ewyeWsmtZW1jaLMPYDBZ"], "asm": "OP_HASH160 66632a3012d079778f56d3c4c0a7ccd469246c2b OP_EQUAL", "type": "scripthash"}, "value": 0.029, "n": 1}], "hex": "0100000001268af213a29776e113106a4ae7442484311052f6b8c037d2bfb06ce63679c630000000006a47304402204a595e2fab58c0efdc7dbd96d38f03758c1845b15e3a57714e70780faec00b8b02207964ff81e5318c55ae986a7b97c9522a38962953d4cfa52faedf93eeb7436ad6012102003a366dddcf27fea248d4b1f68597d64f054ca697b70b926ba30df13a878792feffffff020b64e70a000000001976a914513847d8cb0483c8a4ca616baba273a5363a1f7d88ac20402c000000000017a91466632a3012d079778f56d3c4c0a7ccd469246c2b8716490800", "vin": [{"sequence": 4294967294, "scriptSig": {"hex": "47304402204a595e2fab58c0efdc7dbd96d38f03758c1845b15e3a57714e70780faec00b8b02207964ff81e5318c55ae986a7b97c9522a38962953d4cfa52faedf93eeb7436ad6012102003a366dddcf27fea248d4b1f68597d64f054ca697b70b926ba30df13a878792", "asm": "304402204a595e2fab58c0efdc7dbd96d38f03758c1845b15e3a57714e70780faec00b8b02207964ff81e5318c55ae986a7b97c9522a38962953d4cfa52faedf93eeb7436ad6[ALL] 02003a366dddcf27fea248d4b1f68597d64f054ca697b70b926ba30df13a878792"}, "vout": 0, "txid": "30c67936e66cb0bfd237c0b8f6521031842444e74a6a1013e17697a213f28a26"}], "txid": "65fc08077b40a3c7f98b7601315932d95fe97cc6b7da8cb7bda646d44b25953d", "blocktime": 1537875543, "version": 1, "confirmations": 11464, "time": 1537875543, "locktime": 542998, "vsize": 223, "size": 223}