{"hash": "66024d6beca5e67e6661a1451ed8ebc421df8546d5417051e2cf786231dfb70b", "blockhash": "0000000000000000001cda96e906b7601b7a6fb1a3b62bca570a9e5d8f4b3de1", "vout": [{"scriptPubKey": {"reqSigs": 1, "hex": "76a914f10932f545aefbfca3e26e615294bb1bf1ed9a3b88ac", "addresses": ["1NyUsPmyvFZUWVpDoqhesFEJrdwa2DD4jd"], "asm": "OP_DUP OP_HASH160 f10932f545aefbfca3e26e615294bb1bf1ed9a3b OP_EQUALVERIFY OP_CHECKSIG", "type": "pubkeyhash"}, "value": 0.0031216, "n": 0}, {"scriptPubKey": {"reqSigs": 1, "hex": "76a914631351022e0f3f6ee209124c489b8b8873222d7e88ac", "addresses": ["1A2s381uMvrG7ZPGVGTkRWxqnnwdotFQis"], "asm": "OP_DUP OP_HASH160 631351022e0f3f6ee209124c489b8b8873222d7e OP_EQUALVERIFY OP_CHECKSIG", "type": "pubkeyhash"}, "value": 0.00388622, "n": 1}], "hex": "01000000019f04d7fea13af7aff1c472f392940dc83f785a75126b499199cb2f676c6f4e67010000006a473044022011bd54f114aae05d5400fac44147efe4e8e6204fa06207127e93c125b007acb70220352710e640a281c1f6e482b99d7405289529b5b1d2f7700b3b05a5df1bc45dc30121032960e8408acc799a4f8a8c6e287a60921413355ef92972bb2cc0b0e69a3ffb5effffffff0260c30400000000001976a914f10932f545aefbfca3e26e615294bb1bf1ed9a3b88ac0eee0500000000001976a914631351022e0f3f6ee209124c489b8b8873222d7e88ac00000000", "vin": [{"sequence": 4294967295, "scriptSig": {"hex": "473044022011bd54f114aae05d5400fac44147efe4e8e6204fa06207127e93c125b007acb70220352710e640a281c1f6e482b99d7405289529b5b1d2f7700b3b05a5df1bc45dc30121032960e8408acc799a4f8a8c6e287a60921413355ef92972bb2cc0b0e69a3ffb5e", "asm": "3044022011bd54f114aae05d5400fac44147efe4e8e6204fa06207127e93c125b007acb70220352710e640a281c1f6e482b99d7405289529b5b1d2f7700b3b05a5df1bc45dc3[ALL] 032960e8408acc799a4f8a8c6e287a60921413355ef92972bb2cc0b0e69a3ffb5e"}, "vout": 1, "txid": "674e6f6c672fcb9991496b12755a783fc80d9492f372c4f1aff73aa1fed7049f"}], "txid": "66024d6beca5e67e6661a1451ed8ebc421df8546d5417051e2cf786231dfb70b", "blocktime": 1537873282, "version": 1, "confirmations": 11484, "time": 1537873282, "locktime": 0, "vsize": 225, "size": 225}