{"hash": "6609eb7b8499f513d4d8daad04ce6ed62633f0e43c28c51d6c39383c2d665d9e", "blockhash": "00000000000000000004ffacab907a6b429b9a5745fa0b75af4234bf69dd7176", "vout": [{"scriptPubKey": {"reqSigs": 1, "hex": "76a91443b6d68a25827051936bd762b945ac0fba1374b188ac", "addresses": ["17B3JfSVDKEHYw7b69ZKHNcrRHcRkTR6Ak"], "asm": "OP_DUP OP_HASH160 43b6d68a25827051936bd762b945ac0fba1374b1 OP_EQUALVERIFY OP_CHECKSIG", "type": "pubkeyhash"}, "value": 0.00541955, "n": 0}, {"scriptPubKey": {"reqSigs": 1, "hex": "76a9145b951778aeab7d76ab20974d810006bf2c9a9b6788ac", "addresses": ["19MF6XekcUumcczmKG6HiC7RxmQwe4ANxM"], "asm": "OP_DUP OP_HASH160 5b951778aeab7d76ab20974d810006bf2c9a9b67 OP_EQUALVERIFY OP_CHECKSIG", "type": "pubkeyhash"}, "value": 9.31168119, "n": 1}], "hex": "01000000017d87af542f25430b342ca1c437a41c49fc5024a868d31868dd97e8fba4a3e5f1010000006b483045022100d3d51892ac865703613013a3ce237537e89771e085dbf37f0109a26ef1020eda022064d5cf2128adf6d565e0f50d56e99d626ae3780dae992e733d0e5adefee033ad01210251879adcee961b24a5a249b6619799eb881f90f5b5cb19546677ff1507c6b5f4ffffffff0203450800000000001976a91443b6d68a25827051936bd762b945ac0fba1374b188ac777f8037000000001976a9145b951778aeab7d76ab20974d810006bf2c9a9b6788ac00000000", "vin": [{"sequence": 4294967295, "scriptSig": {"hex": "483045022100d3d51892ac865703613013a3ce237537e89771e085dbf37f0109a26ef1020eda022064d5cf2128adf6d565e0f50d56e99d626ae3780dae992e733d0e5adefee033ad01210251879adcee961b24a5a249b6619799eb881f90f5b5cb19546677ff1507c6b5f4", "asm": "3045022100d3d51892ac865703613013a3ce237537e89771e085dbf37f0109a26ef1020eda022064d5cf2128adf6d565e0f50d56e99d626ae3780dae992e733d0e5adefee033ad[ALL] 0251879adcee961b24a5a249b6619799eb881f90f5b5cb19546677ff1507c6b5f4"}, "vout": 1, "txid": "f1e5a3a4fbe897dd6818d368a82450fc491ca437c4a12c340b43252f54af877d"}], "txid": "6609eb7b8499f513d4d8daad04ce6ed62633f0e43c28c51d6c39383c2d665d9e", "blocktime": 1537875543, "version": 1, "confirmations": 11464, "time": 1537875543, "locktime": 0, "vsize": 226, "size": 226}