{"hash": "66136e7e0211382c0442b8b42dc1a109932bfb5f657f44100fe30e4c60da7de2", "blockhash": "0000000000000000001f76057863aec43deb6fa401d9628bb513d65a8098bfab", "vout": [{"scriptPubKey": {"reqSigs": 1, "hex": "21020e46e79a2a8d12b9b5d12c7a91adb4e454edfae43c0a0cb805427d2ac7613fd9ac", "addresses": ["1P3rU1Nk1pmc2BiWC8dEy9bZa1ZbMp5jfg"], "asm": "020e46e79a2a8d12b9b5d12c7a91adb4e454edfae43c0a0cb805427d2ac7613fd9 OP_CHECKSIG", "type": "pubkey"}, "value": 0.000988, "n": 0}, {"scriptPubKey": {"type": "nulldata", "hex": "6a284ed61a597cb64a5f76b2de29492847916ca9bfb907d86262cf1c98e1378e460a10a40f004b4d4400", "asm": "OP_RETURN 4ed61a597cb64a5f76b2de29492847916ca9bfb907d86262cf1c98e1378e460a10a40f004b4d4400"}, "value": 0.0, "n": 1}], "hex": "010000000da3e1a6423bfe37ee4f7e19c64654274d577a67be63a961f537396df9e2d52142050000004847304402203cc8724d579616484ab791724c32dc308b99ff35b6e5daff4b685037c62c1b3b0220620d533d9cab8eafdc47de21fafda889656cce2836d2dffb1341d28e83eb8f5501ffffffffc005f69c5ae66082f4e7d8a2af82dc44f25e3d12232c9f08fced851586a8b7830800000049483045022100ee2bb0f87d15b09daa83e93e082ce1498c941f61e2ad8e7c5dbbfd83bfa47e3102203132bcf632ff7b14e2571534412538f681c9cc3a571213b7d4c3fd83572ff08501ffffffff62c5accf55e66c7a1a811cac0b53c9d5cf82e46cd5e7fb3bbaf83dce16bf9e660f0000004847304402201d1fc04d647fd4306d6ea371c8f1e0d5807d7236ce227aee5807aa84390672f0022040d38ee30cf7d03b34cccc92a46b3d122c2153aa0ad3355b0c71e9ea8116e70c01ffffffff2822415869c914762c4631b441c3922380be0839f4080e0609a3152baae1bea31700000049483045022100f48d253eb0bd92116ba1c6a306a166380afe4c6c3da4f234330e760586d5d13f02206a289426ffd491a3fec9cac6d4e653123569f15681efda2513ef5c90d843f93b01ffffffff27637063b47e802cf916639c086da9ae70dba41474e40a233db4f34987ca9d140800000048473044022026d8da8ece78439737f0d7db1dced645fafb532a59beec0440a3cdb6d45b31ea02204e8c6b44db10c871310a7ee20497a3767cd278c4e325c2bd8ac266c380dc12b701ffffffff958fc796e6ce42cac976709e48f871294ab1a15d4c133e51f143190c5b8550b210000000484730440220464df4fef0c6b22f49ce6211cf7183ae664fd24e7a93807a434bc206e0f7aad702200e41ca3b2a61273fe75fb33def1aaaeed6869a1210b31ecdea9f123014627eba01ffffffff25f40dc8bd7150b2956af353071e1c25bda6dea66a7f6393cee58c41ec66414009000000494830450221008692ec97443f5f9f5822b437d4633339401af9513bfcc2bff64184e08ae933e9022078aa39e477c32fe20310630982d704d571284aadc613f79febb19e469581eb8501ffffffffb02a7e4f6b4faa8a37bad85ddb2093ea68c89bdbacb9996540f3aeb0787c8e680a0000004847304402205fea44083ea1d43ccf6e17ab61819b212486dc0364915f5edd8b320d34064a4802207a1a89c0703209420f4a0101a3068d3d6917059bdada15fb710efe5adc7bf4a901ffffffff52eac655f926cd840e19bc3c0ba1a07a3d429b4cc549e85207790bda1d7971bb0a0000004847304402204cff24324566b0cff9b62a6032df1e68a195c0c7a49f58fb3e36095833ab703c022051b524c5137364bd27a54ffcbacf489260e6485c74f4c446b6fa33bd6b3f895001ffffffff27633db079bf0ba2e79d41753f5c4cc574d97f1db6e800d20b1f057c92f6a75721000000494830450221008e6ac59cc871beccfab1a9a928c8ebd9532c6d5a7e0b9b7f7ea7e3c10ba2bc64022004d270d3e3523f46576b821fdd4f9de79eb09cd3d1332f89cf45cb87d09ce5d801ffffffff704cf182546917c3e578d780f0272c21db73358d2ce1ce67b82c841ec351f993110000004847304402206745cac60b2331d5911f8985382bbc6f6f38e42db047b2b66492f6da0fd7e02702202506f7d13760d863477a6e6f2cb94102b0d696b2256ef9b6a314a215952ca77c01ffffffff36415d47c1d5f975af09df59394e141f95d4be238f411ddc8439c7dfbc6b29f00800000049483045022100cd2072304cdb2ee2b2b42d139551b50b8b64187774a9737a12e13f9ab278bcba0220259eb62af31f23be28471df1e8c05dbcb4213501da8764e0e520a58d1478036401ffffffffaf795fc9ebe326c6d5984065aec2824939a39728cebe2d5b7b08567f45a81075740000004847304402204768644554753efa827ec7c7e0dbffbd0f0b4d2d68453ab068cafccd5381588402201f78e5b0462399ec2988206968abe16ee5d847fda98218496930b10207b383e501ffffffff02f0810100000000002321020e46e79a2a8d12b9b5d12c7a91adb4e454edfae43c0a0cb805427d2ac7613fd9ac00000000000000002a6a284ed61a597cb64a5f76b2de29492847916ca9bfb907d86262cf1c98e1378e460a10a40f004b4d440000000000", "vin": [{"sequence": 4294967295, "scriptSig": {"hex": "47304402203cc8724d579616484ab791724c32dc308b99ff35b6e5daff4b685037c62c1b3b0220620d533d9cab8eafdc47de21fafda889656cce2836d2dffb1341d28e83eb8f5501", "asm": "304402203cc8724d579616484ab791724c32dc308b99ff35b6e5daff4b685037c62c1b3b0220620d533d9cab8eafdc47de21fafda889656cce2836d2dffb1341d28e83eb8f55[ALL]"}, "vout": 5, "txid": "4221d5e2f96d3937f561a963be677a574d275446c6197e4fee37fe3b42a6e1a3"}, {"sequence": 4294967295, "scriptSig": {"hex": "483045022100ee2bb0f87d15b09daa83e93e082ce1498c941f61e2ad8e7c5dbbfd83bfa47e3102203132bcf632ff7b14e2571534412538f681c9cc3a571213b7d4c3fd83572ff08501", "asm": "3045022100ee2bb0f87d15b09daa83e93e082ce1498c941f61e2ad8e7c5dbbfd83bfa47e3102203132bcf632ff7b14e2571534412538f681c9cc3a571213b7d4c3fd83572ff085[ALL]"}, "vout": 8, "txid": "83b7a8861585edfc089f2c23123d5ef244dc82afa2d8e7f48260e65a9cf605c0"}, {"sequence": 4294967295, "scriptSig": {"hex": "47304402201d1fc04d647fd4306d6ea371c8f1e0d5807d7236ce227aee5807aa84390672f0022040d38ee30cf7d03b34cccc92a46b3d122c2153aa0ad3355b0c71e9ea8116e70c01", "asm": "304402201d1fc04d647fd4306d6ea371c8f1e0d5807d7236ce227aee5807aa84390672f0022040d38ee30cf7d03b34cccc92a46b3d122c2153aa0ad3355b0c71e9ea8116e70c[ALL]"}, "vout": 15, "txid": "669ebf16ce3df8ba3bfbe7d56ce482cfd5c9530bac1c811a7a6ce655cfacc562"}, {"sequence": 4294967295, "scriptSig": {"hex": "483045022100f48d253eb0bd92116ba1c6a306a166380afe4c6c3da4f234330e760586d5d13f02206a289426ffd491a3fec9cac6d4e653123569f15681efda2513ef5c90d843f93b01", "asm": "3045022100f48d253eb0bd92116ba1c6a306a166380afe4c6c3da4f234330e760586d5d13f02206a289426ffd491a3fec9cac6d4e653123569f15681efda2513ef5c90d843f93b[ALL]"}, "vout": 23, "txid": "a3bee1aa2b15a309060e08f43908be802392c341b431462c7614c96958412228"}, {"sequence": 4294967295, "scriptSig": {"hex": "473044022026d8da8ece78439737f0d7db1dced645fafb532a59beec0440a3cdb6d45b31ea02204e8c6b44db10c871310a7ee20497a3767cd278c4e325c2bd8ac266c380dc12b701", "asm": "3044022026d8da8ece78439737f0d7db1dced645fafb532a59beec0440a3cdb6d45b31ea02204e8c6b44db10c871310a7ee20497a3767cd278c4e325c2bd8ac266c380dc12b7[ALL]"}, "vout": 8, "txid": "149dca8749f3b43d230ae47414a4db70aea96d089c6316f92c807eb463706327"}, {"sequence": 4294967295, "scriptSig": {"hex": "4730440220464df4fef0c6b22f49ce6211cf7183ae664fd24e7a93807a434bc206e0f7aad702200e41ca3b2a61273fe75fb33def1aaaeed6869a1210b31ecdea9f123014627eba01", "asm": "30440220464df4fef0c6b22f49ce6211cf7183ae664fd24e7a93807a434bc206e0f7aad702200e41ca3b2a61273fe75fb33def1aaaeed6869a1210b31ecdea9f123014627eba[ALL]"}, "vout": 16, "txid": "b250855b0c1943f1513e134c5da1b14a2971f8489e7076c9ca42cee696c78f95"}, {"sequence": 4294967295, "scriptSig": {"hex": "4830450221008692ec97443f5f9f5822b437d4633339401af9513bfcc2bff64184e08ae933e9022078aa39e477c32fe20310630982d704d571284aadc613f79febb19e469581eb8501", "asm": "30450221008692ec97443f5f9f5822b437d4633339401af9513bfcc2bff64184e08ae933e9022078aa39e477c32fe20310630982d704d571284aadc613f79febb19e469581eb85[ALL]"}, "vout": 9, "txid": "404166ec418ce5ce93637f6aa6dea6bd251c1e0753f36a95b25071bdc80df425"}, {"sequence": 4294967295, "scriptSig": {"hex": "47304402205fea44083ea1d43ccf6e17ab61819b212486dc0364915f5edd8b320d34064a4802207a1a89c0703209420f4a0101a3068d3d6917059bdada15fb710efe5adc7bf4a901", "asm": "304402205fea44083ea1d43ccf6e17ab61819b212486dc0364915f5edd8b320d34064a4802207a1a89c0703209420f4a0101a3068d3d6917059bdada15fb710efe5adc7bf4a9[ALL]"}, "vout": 10, "txid": "688e7c78b0aef3406599b9acdb9bc868ea9320db5dd8ba378aaa4f6b4f7e2ab0"}, {"sequence": 4294967295, "scriptSig": {"hex": "47304402204cff24324566b0cff9b62a6032df1e68a195c0c7a49f58fb3e36095833ab703c022051b524c5137364bd27a54ffcbacf489260e6485c74f4c446b6fa33bd6b3f895001", "asm": "304402204cff24324566b0cff9b62a6032df1e68a195c0c7a49f58fb3e36095833ab703c022051b524c5137364bd27a54ffcbacf489260e6485c74f4c446b6fa33bd6b3f8950[ALL]"}, "vout": 10, "txid": "bb71791dda0b790752e849c54c9b423d7aa0a10b3cbc190e84cd26f955c6ea52"}, {"sequence": 4294967295, "scriptSig": {"hex": "4830450221008e6ac59cc871beccfab1a9a928c8ebd9532c6d5a7e0b9b7f7ea7e3c10ba2bc64022004d270d3e3523f46576b821fdd4f9de79eb09cd3d1332f89cf45cb87d09ce5d801", "asm": "30450221008e6ac59cc871beccfab1a9a928c8ebd9532c6d5a7e0b9b7f7ea7e3c10ba2bc64022004d270d3e3523f46576b821fdd4f9de79eb09cd3d1332f89cf45cb87d09ce5d8[ALL]"}, "vout": 33, "txid": "57a7f6927c051f0bd200e8b61d7fd974c54c5c3f75419de7a20bbf79b03d6327"}, {"sequence": 4294967295, "scriptSig": {"hex": "47304402206745cac60b2331d5911f8985382bbc6f6f38e42db047b2b66492f6da0fd7e02702202506f7d13760d863477a6e6f2cb94102b0d696b2256ef9b6a314a215952ca77c01", "asm": "304402206745cac60b2331d5911f8985382bbc6f6f38e42db047b2b66492f6da0fd7e02702202506f7d13760d863477a6e6f2cb94102b0d696b2256ef9b6a314a215952ca77c[ALL]"}, "vout": 17, "txid": "93f951c31e842cb867cee12c8d3573db212c27f080d778e5c317695482f14c70"}, {"sequence": 4294967295, "scriptSig": {"hex": "483045022100cd2072304cdb2ee2b2b42d139551b50b8b64187774a9737a12e13f9ab278bcba0220259eb62af31f23be28471df1e8c05dbcb4213501da8764e0e520a58d1478036401", "asm": "3045022100cd2072304cdb2ee2b2b42d139551b50b8b64187774a9737a12e13f9ab278bcba0220259eb62af31f23be28471df1e8c05dbcb4213501da8764e0e520a58d14780364[ALL]"}, "vout": 8, "txid": "f0296bbcdfc73984dc1d418f23bed4951f144e3959df09af75f9d5c1475d4136"}, {"sequence": 4294967295, "scriptSig": {"hex": "47304402204768644554753efa827ec7c7e0dbffbd0f0b4d2d68453ab068cafccd5381588402201f78e5b0462399ec2988206968abe16ee5d847fda98218496930b10207b383e501", "asm": "304402204768644554753efa827ec7c7e0dbffbd0f0b4d2d68453ab068cafccd5381588402201f78e5b0462399ec2988206968abe16ee5d847fda98218496930b10207b383e5[ALL]"}, "vout": 116, "txid": "7510a8457f56087b5b2dbece2897a3394982c2ae654098d5c626e3ebc95f79af"}], "txid": "66136e7e0211382c0442b8b42dc1a109932bfb5f657f44100fe30e4c60da7de2", "blocktime": 1537873891, "version": 1, "confirmations": 11474, "time": 1537873891, "locktime": 0, "vsize": 1579, "size": 1579}