{"hash": "661bcededdb5cd9f1a05e70b96a48ffd3f11a9b9ac8ae5d574e94627abd93263", "blockhash": "00000000000000000017f5eb5941039fbcee6240d03bc1f2f8e35350df66a1d8", "vout": [{"scriptPubKey": {"reqSigs": 1, "hex": "a914af7c91ddc62747320a55c1201e3cbd509fc835ed87", "addresses": ["3HguQNhDdGHUid9EE4JDA7t4czM8JJFPbV"], "asm": "OP_HASH160 af7c91ddc62747320a55c1201e3cbd509fc835ed OP_EQUAL", "type": "scripthash"}, "value": 0.03440518, "n": 0}, {"scriptPubKey": {"reqSigs": 1, "hex": "76a914da2f2aedd3a733027ac7719a07a3ad4f49369cb988ac", "addresses": ["1Ltep65yvY2B1zJrk5En1gP28Er2VSRos7"], "asm": "OP_DUP OP_HASH160 da2f2aedd3a733027ac7719a07a3ad4f49369cb9 OP_EQUALVERIFY OP_CHECKSIG", "type": "pubkeyhash"}, "value": 0.69123055, "n": 1}], "hex": "010000000176c370c9e24d2b06fa50edfdb9443c8ee423506e1b52b9760ad46c9c2d502928010000006a4730440220742655ee4dc783caa09dbb868e40d1f032929246b0200e52257775307fddae190220357f6f4edfe3a2a2e8bd7da225036162a2fe72afef1138e1b9441e67db845eb4012103e7a98eb24988441ba3223e30f3916a5a483bb335c06775a1072a0717bdb5b023ffffffff02867f34000000000017a914af7c91ddc62747320a55c1201e3cbd509fc835ed87efbb1e04000000001976a914da2f2aedd3a733027ac7719a07a3ad4f49369cb988ac00000000", "vin": [{"sequence": 4294967295, "scriptSig": {"hex": "4730440220742655ee4dc783caa09dbb868e40d1f032929246b0200e52257775307fddae190220357f6f4edfe3a2a2e8bd7da225036162a2fe72afef1138e1b9441e67db845eb4012103e7a98eb24988441ba3223e30f3916a5a483bb335c06775a1072a0717bdb5b023", "asm": "30440220742655ee4dc783caa09dbb868e40d1f032929246b0200e52257775307fddae190220357f6f4edfe3a2a2e8bd7da225036162a2fe72afef1138e1b9441e67db845eb4[ALL] 03e7a98eb24988441ba3223e30f3916a5a483bb335c06775a1072a0717bdb5b023"}, "vout": 1, "txid": "2829502d9c6cd40a76b9521b6e5023e48e3c44b9fded50fa062b4de2c970c376"}], "txid": "661bcededdb5cd9f1a05e70b96a48ffd3f11a9b9ac8ae5d574e94627abd93263", "blocktime": 1537874412, "version": 1, "confirmations": 11467, "time": 1537874412, "locktime": 0, "vsize": 223, "size": 223}