{"hash": "661e8993ee38bf6de7befc225391dab2dd77703d4676ed453c49cf7d273d31e1", "blockhash": "0000000000000000000baef3f32e3676a92c3b2e5da21b426e4f302fc371ce76", "vout": [{"scriptPubKey": {"reqSigs": 1, "hex": "76a914dddb57612c1841ebdbdd0a20fe369516a146d7d988ac", "addresses": ["1ME56Vq84u7TE7UDbxeoKtRJQeJ529bVqj"], "asm": "OP_DUP OP_HASH160 dddb57612c1841ebdbdd0a20fe369516a146d7d9 OP_EQUALVERIFY OP_CHECKSIG", "type": "pubkeyhash"}, "value": 2.898e-05, "n": 0}, {"scriptPubKey": {"reqSigs": 1, "hex": "76a914f5c4e02116e7ded385d832154654dd90c40602ea88ac", "addresses": ["1PQWQ9c2wK21SjcVkdWV3P3eL4fU2sBeYQ"], "asm": "OP_DUP OP_HASH160 f5c4e02116e7ded385d832154654dd90c40602ea OP_EQUALVERIFY OP_CHECKSIG", "type": "pubkeyhash"}, "value": 0.00391383, "n": 1}], "hex": "0100000001659f346a8780a9fee09f3b26bb39fd79dce66499b04a5748e57890491a3fa156010000008a473044022024487e1931378aec8f8615b2a22e577e896de9c78b45da7483b81986bb476f7102203ae08af363d184583a3b3865bc3957b1165cbbee2429cf548b04d9c21cae6a2701410485a492f414e697949f62a65f7196a71f10a1816841f4aa621ced66dadcebaef24f3acdeba84fe7a173c4288fc71148a3f1def9c3eece236f727652b3838a3fc7ffffffff02520b0000000000001976a914dddb57612c1841ebdbdd0a20fe369516a146d7d988acd7f80500000000001976a914f5c4e02116e7ded385d832154654dd90c40602ea88ac00000000", "vin": [{"sequence": 4294967295, "scriptSig": {"hex": "473044022024487e1931378aec8f8615b2a22e577e896de9c78b45da7483b81986bb476f7102203ae08af363d184583a3b3865bc3957b1165cbbee2429cf548b04d9c21cae6a2701410485a492f414e697949f62a65f7196a71f10a1816841f4aa621ced66dadcebaef24f3acdeba84fe7a173c4288fc71148a3f1def9c3eece236f727652b3838a3fc7", "asm": "3044022024487e1931378aec8f8615b2a22e577e896de9c78b45da7483b81986bb476f7102203ae08af363d184583a3b3865bc3957b1165cbbee2429cf548b04d9c21cae6a27[ALL] 0485a492f414e697949f62a65f7196a71f10a1816841f4aa621ced66dadcebaef24f3acdeba84fe7a173c4288fc71148a3f1def9c3eece236f727652b3838a3fc7"}, "vout": 1, "txid": "56a13f1a499078e548574ab09964e6dc79fd39bb263b9fe0fea980876a349f65"}], "txid": "661e8993ee38bf6de7befc225391dab2dd77703d4676ed453c49cf7d273d31e1", "blocktime": 1537876114, "version": 1, "confirmations": 11460, "time": 1537876114, "locktime": 0, "vsize": 257, "size": 257}