{"hash": "6621e1532d6152ec3ef0543dd9c469fdfcf1f4e6c663e7579569da3f713b3158", "blockhash": "0000000000000000000dcc0f55137456b1a82d3642486a52398922ac4d620174", "vout": [{"scriptPubKey": {"reqSigs": 1, "hex": "76a9143e8c0397ad112257dddf04f28c717270b9440edb88ac", "addresses": ["16hidEsC7NBxegYLFHC72fiBbTys81bUPV"], "asm": "OP_DUP OP_HASH160 3e8c0397ad112257dddf04f28c717270b9440edb OP_EQUALVERIFY OP_CHECKSIG", "type": "pubkeyhash"}, "value": 0.008765, "n": 0}], "hex": "010000000184a16ea4016bafdffb055c32724f0007e93c98f6eb229663761a971f072cf68b000000006b483045022100a6078d493c4cbf41c51526a56def8193a251932c98f0f6151974233383e9bfda022042a7855479fcbb608af0cdd9a17ecd943ebc3447833351ce4bcf963faf908728012102bc562c02285de825663f94cfc0dc37558dabfced94be42a550d913854efd1dbaffffffff01d45f0d00000000001976a9143e8c0397ad112257dddf04f28c717270b9440edb88ac00000000", "vin": [{"sequence": 4294967295, "scriptSig": {"hex": "483045022100a6078d493c4cbf41c51526a56def8193a251932c98f0f6151974233383e9bfda022042a7855479fcbb608af0cdd9a17ecd943ebc3447833351ce4bcf963faf908728012102bc562c02285de825663f94cfc0dc37558dabfced94be42a550d913854efd1dba", "asm": "3045022100a6078d493c4cbf41c51526a56def8193a251932c98f0f6151974233383e9bfda022042a7855479fcbb608af0cdd9a17ecd943ebc3447833351ce4bcf963faf908728[ALL] 02bc562c02285de825663f94cfc0dc37558dabfced94be42a550d913854efd1dba"}, "vout": 0, "txid": "8bf62c071f971a76639622ebf6983ce907004f72325c05fbdfaf6b01a46ea184"}], "txid": "6621e1532d6152ec3ef0543dd9c469fdfcf1f4e6c663e7579569da3f713b3158", "blocktime": 1537870268, "version": 1, "confirmations": 11518, "time": 1537870268, "locktime": 0, "vsize": 192, "size": 192}