{"hash": "6623e540ae03dcc0240147d036b981afd551014a29dd7e18182e8d0991acd543", "blockhash": "0000000000000000001f76057863aec43deb6fa401d9628bb513d65a8098bfab", "vout": [{"scriptPubKey": {"reqSigs": 1, "hex": "76a914464e9bab3627fe4e9b1536b5a56d261a86ce3b9f88ac", "addresses": ["17QkUDNm3BL4PKozTWgwxb74eqC64y3Y1S"], "asm": "OP_DUP OP_HASH160 464e9bab3627fe4e9b1536b5a56d261a86ce3b9f OP_EQUALVERIFY OP_CHECKSIG", "type": "pubkeyhash"}, "value": 0.0059, "n": 0}, {"scriptPubKey": {"reqSigs": 1, "hex": "76a914e0ba1065cede4f85a156cc9288aec75f798480fd88ac", "addresses": ["1MVFFvmjddGFvqXvC1rQ5BKn7oUx1h1buT"], "asm": "OP_DUP OP_HASH160 e0ba1065cede4f85a156cc9288aec75f798480fd OP_EQUALVERIFY OP_CHECKSIG", "type": "pubkeyhash"}, "value": 0.06987752, "n": 1}], "hex": "01000000011b1a9e09c607432bb3fde124cc6d2134fa38eb82f92964723c4ba44b6c0e4215010000006a47304402203bfdeb5bb813c00bf5f41900565e03dfa6fb7df563eb153a17f44f9e6be7e1990220341bbcf036f2928e81c83f833b3654b92b433fb46bd01ddbe50e576908182f000121034aba3fd8dcf4970394802714acc2b6980f17079f5033dd88606eaf2986d0a836ffffffff02b0000900000000001976a914464e9bab3627fe4e9b1536b5a56d261a86ce3b9f88ace89f6a00000000001976a914e0ba1065cede4f85a156cc9288aec75f798480fd88ac00000000", "vin": [{"sequence": 4294967295, "scriptSig": {"hex": "47304402203bfdeb5bb813c00bf5f41900565e03dfa6fb7df563eb153a17f44f9e6be7e1990220341bbcf036f2928e81c83f833b3654b92b433fb46bd01ddbe50e576908182f000121034aba3fd8dcf4970394802714acc2b6980f17079f5033dd88606eaf2986d0a836", "asm": "304402203bfdeb5bb813c00bf5f41900565e03dfa6fb7df563eb153a17f44f9e6be7e1990220341bbcf036f2928e81c83f833b3654b92b433fb46bd01ddbe50e576908182f00[ALL] 034aba3fd8dcf4970394802714acc2b6980f17079f5033dd88606eaf2986d0a836"}, "vout": 1, "txid": "15420e6c4ba44b3c726429f982eb38fa34216dcc24e1fdb32b4307c6099e1a1b"}], "txid": "6623e540ae03dcc0240147d036b981afd551014a29dd7e18182e8d0991acd543", "blocktime": 1537873891, "version": 1, "confirmations": 11478, "time": 1537873891, "locktime": 0, "vsize": 225, "size": 225}