{"hash": "662a160861475b4d456e3681ae4c624dfbcde7c8e69d584aa2c58f1b07d5b538", "blockhash": "00000000000000000004ffacab907a6b429b9a5745fa0b75af4234bf69dd7176", "vout": [{"scriptPubKey": {"reqSigs": 1, "hex": "a91405aec0ca179deccbae537059563d4d5ee9c63ca187", "addresses": ["32D4eZSBD8fd9uGwfFfULP1orZ4LBkBTm9"], "asm": "OP_HASH160 05aec0ca179deccbae537059563d4d5ee9c63ca1 OP_EQUAL", "type": "scripthash"}, "value": 27.34786624, "n": 0}, {"scriptPubKey": {"reqSigs": 1, "hex": "a91409ede82121d6a864ba1ae9a8635e9eda3c7e2ecb87", "addresses": ["32bX1KbRfjcGruMaETSQz6xDPW68WFx7pB"], "asm": "OP_HASH160 09ede82121d6a864ba1ae9a8635e9eda3c7e2ecb OP_EQUAL", "type": "scripthash"}, "value": 0.0296955, "n": 1}], "hex": "0200000001ac2141b64ea531366270413e8fed64dd9838daad75358e79ab06744fda1e7bb000000000da00483045022100d65be45344ec4bb7a288daf9c4e67e617da921d727702a419b73ea3eda28724802204497a9b62f138f8bcf9541fb0536dabf30cae0e53da80033f2ae979c882020fb0147304402201def06a113adf18e3e074c920f67568e3ae44feffdeb9b2a00f245279896a855022053b57d7c89a66c7a5442192f891a1dc08ad81aeb1b35e054538915f91254d33f014752210232a0ee3e2fcd72fe94842eea7647ea02ce951396cbcba8700b3103c0fbbf6cb8210330c607e31cc1de584210c072253b734c600e6009bc9ad46e375ce4af2b4a3de352aeffffffff02408801a30000000017a91405aec0ca179deccbae537059563d4d5ee9c63ca187ce4f2d000000000017a91409ede82121d6a864ba1ae9a8635e9eda3c7e2ecb8700000000", "vin": [{"sequence": 4294967295, "scriptSig": {"hex": "00483045022100d65be45344ec4bb7a288daf9c4e67e617da921d727702a419b73ea3eda28724802204497a9b62f138f8bcf9541fb0536dabf30cae0e53da80033f2ae979c882020fb0147304402201def06a113adf18e3e074c920f67568e3ae44feffdeb9b2a00f245279896a855022053b57d7c89a66c7a5442192f891a1dc08ad81aeb1b35e054538915f91254d33f014752210232a0ee3e2fcd72fe94842eea7647ea02ce951396cbcba8700b3103c0fbbf6cb8210330c607e31cc1de584210c072253b734c600e6009bc9ad46e375ce4af2b4a3de352ae", "asm": "0 3045022100d65be45344ec4bb7a288daf9c4e67e617da921d727702a419b73ea3eda28724802204497a9b62f138f8bcf9541fb0536dabf30cae0e53da80033f2ae979c882020fb[ALL] 304402201def06a113adf18e3e074c920f67568e3ae44feffdeb9b2a00f245279896a855022053b57d7c89a66c7a5442192f891a1dc08ad81aeb1b35e054538915f91254d33f[ALL] 52210232a0ee3e2fcd72fe94842eea7647ea02ce951396cbcba8700b3103c0fbbf6cb8210330c607e31cc1de584210c072253b734c600e6009bc9ad46e375ce4af2b4a3de352ae"}, "vout": 0, "txid": "b07b1eda4f7406ab798e3575adda3898dd64ed8f3e4170623631a54eb64121ac"}], "txid": "662a160861475b4d456e3681ae4c624dfbcde7c8e69d584aa2c58f1b07d5b538", "blocktime": 1537875543, "version": 2, "confirmations": 11464, "time": 1537875543, "locktime": 0, "vsize": 333, "size": 333}