{"hash": "2e6828cf75cd0325d89490abf1139fa698be505192313d5e896e2f597d773ebe", "blockhash": "00000000000000000017f5eb5941039fbcee6240d03bc1f2f8e35350df66a1d8", "vout": [{"scriptPubKey": {"reqSigs": 1, "hex": "76a91451840d6dbd874b8581959d2dba4391492e5e90bd88ac", "addresses": ["18S1vhpPNUtATbVpweZZo89ZanoUcWjFC5"], "asm": "OP_DUP OP_HASH160 51840d6dbd874b8581959d2dba4391492e5e90bd OP_EQUALVERIFY OP_CHECKSIG", "type": "pubkeyhash"}, "value": 0.04694733, "n": 0}, {"scriptPubKey": {"reqSigs": 1, "hex": "0014cd1ed2769c4574ee11c4800f53e2fc2d1692f525", "addresses": ["bc1qe50dya5ug46wuywysq848chu95tf9af99hq5d9"], "asm": "0 cd1ed2769c4574ee11c4800f53e2fc2d1692f525", "type": "witness_v0_keyhash"}, "value": 0.02283014, "n": 1}], "hex": "01000000000101d1ed1f85eb99c6f98b159ee21776505c959f2868fd84c4dc76a94ffb0f2e393e0a00000017160014432b5140d8af8b110e7153fc46deafcece871aaaffffffff02cda24700000000001976a91451840d6dbd874b8581959d2dba4391492e5e90bd88ac06d6220000000000160014cd1ed2769c4574ee11c4800f53e2fc2d1692f52502483045022100985e7b1440c1853c025e19547d65395bd6f995fcc93fc3060edcd6d5c709196f022011b093a434fd30e745a5bfacfc9caf776080599bf5bbd0fc897c7a9d4d34a241012103727f77bd74062fbec2c607dda613a519a0a0a7c7f2b1fbec7b011725280c553500000000", "vin": [{"txinwitness": ["3045022100985e7b1440c1853c025e19547d65395bd6f995fcc93fc3060edcd6d5c709196f022011b093a434fd30e745a5bfacfc9caf776080599bf5bbd0fc897c7a9d4d34a24101", "03727f77bd74062fbec2c607dda613a519a0a0a7c7f2b1fbec7b011725280c5535"], "sequence": 4294967295, "scriptSig": {"hex": "160014432b5140d8af8b110e7153fc46deafcece871aaa", "asm": "0014432b5140d8af8b110e7153fc46deafcece871aaa"}, "vout": 10, "txid": "3e392e0ffb4fa976dcc484fd68289f955c507617e29e158bf9c699eb851fedd1"}], "txid": "662de95af945bb7c6824482be90a0f3319fa28cfa3d39b25356b5df0877c2b52", "blocktime": 1537874412, "version": 1, "confirmations": 11468, "time": 1537874412, "locktime": 0, "vsize": 167, "size": 249}