{"hash": "8db07d38dd43278f467928a87ab6950d55172ea450c677e8c0d4102b958d7c7e", "blockhash": "000000000000000000022b45ed06c6f4ccd3cf7fb5ba4856ebd2e58215665228", "vout": [{"scriptPubKey": {"reqSigs": 1, "hex": "a91469f374f1aaa488584f4bde2700410bbfec1a803187", "addresses": ["3BMEXMwTyN1VftuGgHMtvCZbxkbZGXTmfH"], "asm": "OP_HASH160 69f374f1aaa488584f4bde2700410bbfec1a8031 OP_EQUAL", "type": "scripthash"}, "value": 0.0202262, "n": 0}, {"scriptPubKey": {"reqSigs": 1, "hex": "00145260a88a21873e1d0447038eade761aa4eac882f", "addresses": ["bc1q2fs23z3psulp6pz8qw82memp4f82ezp07expa9"], "asm": "0 5260a88a21873e1d0447038eade761aa4eac882f", "type": "witness_v0_keyhash"}, "value": 0.0043418, "n": 1}], "hex": "010000000001019bf67b89c245dd44d6eeedf21e7b69d220cbb01eeb845eb91fe494e5e3064c690100000000ffffffff02dcdc1e000000000017a91469f374f1aaa488584f4bde2700410bbfec1a80318704a00600000000001600145260a88a21873e1d0447038eade761aa4eac882f02473044022003a1df9f1842e2bb63fb1c14b2a23b2a1df55fb6abb17e2bf2d4b3e7f176ff2e02207650c83d1d674cef54eb070cd69ccb148dc90d7c7e8361425422aa79f0e4917e012102b7e3029531e5252589941ac2f45f6af519c2bf4fedbba1da7e1b6eac648ca67700000000", "vin": [{"txinwitness": ["3044022003a1df9f1842e2bb63fb1c14b2a23b2a1df55fb6abb17e2bf2d4b3e7f176ff2e02207650c83d1d674cef54eb070cd69ccb148dc90d7c7e8361425422aa79f0e4917e01", "02b7e3029531e5252589941ac2f45f6af519c2bf4fedbba1da7e1b6eac648ca677"], "sequence": 4294967295, "scriptSig": {"hex": "", "asm": ""}, "vout": 1, "txid": "694c06e3e594e41fb95e84eb1eb0cb20d2697b1ef2edeed644dd45c2897bf69b"}], "txid": "663111924a7f3440972d17bc4913aca2e752cfe473e19f15847066d66ba4e604", "blocktime": 1537869901, "version": 1, "confirmations": 11523, "time": 1537869901, "locktime": 0, "vsize": 142, "size": 223}