{"hash": "adb3ebd8cdb9673550915f39ba1739783a1850198b0d9201203ca07336f31163", "blockhash": "0000000000000000001f0ddff1eddb255c1121bcd4da4f1bc9a0da00cae72433", "vout": [{"scriptPubKey": {"reqSigs": 1, "hex": "a9149dd2898beff1f91625ce4396987255083234c01d87", "addresses": ["3G5WE3mjdi8mCD8pGxJGKD2PHwaRqseSek"], "asm": "OP_HASH160 9dd2898beff1f91625ce4396987255083234c01d OP_EQUAL", "type": "scripthash"}, "value": 0.00044548, "n": 0}, {"scriptPubKey": {"reqSigs": 1, "hex": "0014f04fec33626c3b3a52ccaa48b9db8881bb7e9187", "addresses": ["bc1q7p87cvmzdsan55kv4fytnkugsxahayv86w774z"], "asm": "0 f04fec33626c3b3a52ccaa48b9db8881bb7e9187", "type": "witness_v0_keyhash"}, "value": 1.29e-05, "n": 1}], "hex": "01000000000101023d56885ca3cc39c9ee4d3d97100c714a8681882c41235a273ae550cd1b666703000000171600146b218a3710785974ba6b649ef32c91daef20fd86ffffffff0204ae00000000000017a9149dd2898beff1f91625ce4396987255083234c01d870a05000000000000160014f04fec33626c3b3a52ccaa48b9db8881bb7e91870247304402207b00dd882c4abb6f5f557a8e75c61b85588305ddb01c6bcccc8b2744e1636477022066f2af416e1a8707718777d374e6ec59823e3cd487441b23ffe622b2cb068bd9012103fd8cf0b3efa976e69ba6a45653f327612a726c6c46f3a0701caa5d4a34492eb500000000", "vin": [{"txinwitness": ["304402207b00dd882c4abb6f5f557a8e75c61b85588305ddb01c6bcccc8b2744e1636477022066f2af416e1a8707718777d374e6ec59823e3cd487441b23ffe622b2cb068bd901", "03fd8cf0b3efa976e69ba6a45653f327612a726c6c46f3a0701caa5d4a34492eb5"], "sequence": 4294967295, "scriptSig": {"hex": "1600146b218a3710785974ba6b649ef32c91daef20fd86", "asm": "00146b218a3710785974ba6b649ef32c91daef20fd86"}, "vout": 3, "txid": "67661bcd50e53a275a23412c8881864a710c10973d4deec939cca35c88563d02"}], "txid": "66340081abb250bf2158faeb1d17c0b1eb965a1aa29f04b9d1755e5a85c375ab", "blocktime": 1537872018, "version": 1, "confirmations": 11489, "time": 1537872018, "locktime": 0, "vsize": 165, "size": 246}