{"hash": "60a137f157064e446281e66ac7c09f30433886d964a6a28e61ed2d8887b29115", "blockhash": "0000000000000000001cda96e906b7601b7a6fb1a3b62bca570a9e5d8f4b3de1", "vout": [{"scriptPubKey": {"reqSigs": 1, "hex": "a91475e1683b23a47bee1e1064beb30a087e1b6f45e587", "addresses": ["3CSK1YwFeZKi9PTdEEnESZwfd6t29CD6qE"], "asm": "OP_HASH160 75e1683b23a47bee1e1064beb30a087e1b6f45e5 OP_EQUAL", "type": "scripthash"}, "value": 0.01461187, "n": 0}, {"scriptPubKey": {"reqSigs": 1, "hex": "76a914ca9a9939622855ed86d51eb20d50ce6655cfd84488ac", "addresses": ["1KUGhSknwrE28yZDfcfnaEtyybH4DEyPVi"], "asm": "OP_DUP OP_HASH160 ca9a9939622855ed86d51eb20d50ce6655cfd844 OP_EQUALVERIFY OP_CHECKSIG", "type": "pubkeyhash"}, "value": 0.0242902, "n": 1}], "hex": "02000000000101699eb33ad68d712fa7c285eecd501b4e03aa18dc40fc5095d5ab01a5f0b3848e0100000017160014a6f1f36974bb5ac5542a8727a5d83be0169e7161fdffffff02c34b16000000000017a91475e1683b23a47bee1e1064beb30a087e1b6f45e5875c102500000000001976a914ca9a9939622855ed86d51eb20d50ce6655cfd84488ac02483045022100959ada60455cd1236a23633dc6adf77729791935052dcc881e04c1a4995d0f01022071bff9754eeacb8998ed59465e6106a2aff26f567ca43021861cf5647f9a2b1901210288f6fef513dcde53295b3c09619725554596fd013207c48c242d4a4138c68fb813490800", "vin": [{"txinwitness": ["3045022100959ada60455cd1236a23633dc6adf77729791935052dcc881e04c1a4995d0f01022071bff9754eeacb8998ed59465e6106a2aff26f567ca43021861cf5647f9a2b1901", "0288f6fef513dcde53295b3c09619725554596fd013207c48c242d4a4138c68fb8"], "sequence": 4294967293, "scriptSig": {"hex": "160014a6f1f36974bb5ac5542a8727a5d83be0169e7161", "asm": "0014a6f1f36974bb5ac5542a8727a5d83be0169e7161"}, "vout": 1, "txid": "8e84b3f0a501abd59550fc40dc18aa034e1b50cdee85c2a72f718dd63ab39e69"}], "txid": "663430ce9bae5141c58d7f1d3cf31052c78acd153f8e925d515f994d7563824a", "blocktime": 1537873282, "version": 2, "confirmations": 11480, "time": 1537873282, "locktime": 542995, "vsize": 168, "size": 250}