{"hash": "6636e9b8a9d90d7fba939344c7981fab4cbc6ae13c2fde3d9b44552119a09497", "blockhash": "0000000000000000001f0ddff1eddb255c1121bcd4da4f1bc9a0da00cae72433", "vout": [{"scriptPubKey": {"reqSigs": 1, "hex": "a914734c5d96bb0f682e6da7df662ceb1b05c303ce1387", "addresses": ["3CCf7aUA7aanLbkRxtnAPZSnCy3oBKKXXB"], "asm": "OP_HASH160 734c5d96bb0f682e6da7df662ceb1b05c303ce13 OP_EQUAL", "type": "scripthash"}, "value": 0.05008652, "n": 0}, {"scriptPubKey": {"reqSigs": 1, "hex": "76a91464161b2f4b3ccb29c168d88eb8805f59efb4f64388ac", "addresses": ["1A8D49b8opTgVyjuvmcbuET4HQXiYEVtAH"], "asm": "OP_DUP OP_HASH160 64161b2f4b3ccb29c168d88eb8805f59efb4f643 OP_EQUALVERIFY OP_CHECKSIG", "type": "pubkeyhash"}, "value": 6.121e-05, "n": 1}], "hex": "01000000025ed180aceb4c7b7a5edaf1ff69be01de4053aa68327347d560096f8f30e76ce9010000006b483045022100ccf624c23fd54ac98d9038764108da60cf44e7840e51b76b486ad2346d4466ac02206530a52944e3ce18fa785482858a23c6b99c989c0c06f65ed47f217272354746012102f018ea729923f8cec95389c9678040f8c82783de5d7bb365f3a6e9e4db687584ffffffff81768c62a7de8e1b3c6d9596d27da9eb00f76df4fc269863e3628f6ce43c320a000000006b483045022100aa626d3cf371ba6ec3333f703936689da2e93ccddb374eddc9d68b7e76377e76022069538bb8860cfc61bea07d5ca66994ae5ebfb3bcb9c92b63c35bc7cc684932700121034a6872cd06f49151ff4a770ba79bf53c2f0b83250f245ee97574952fb2dad25dffffffff020c6d4c000000000017a914734c5d96bb0f682e6da7df662ceb1b05c303ce1387e9170000000000001976a91464161b2f4b3ccb29c168d88eb8805f59efb4f64388ac00000000", "vin": [{"sequence": 4294967295, "scriptSig": {"hex": "483045022100ccf624c23fd54ac98d9038764108da60cf44e7840e51b76b486ad2346d4466ac02206530a52944e3ce18fa785482858a23c6b99c989c0c06f65ed47f217272354746012102f018ea729923f8cec95389c9678040f8c82783de5d7bb365f3a6e9e4db687584", "asm": "3045022100ccf624c23fd54ac98d9038764108da60cf44e7840e51b76b486ad2346d4466ac02206530a52944e3ce18fa785482858a23c6b99c989c0c06f65ed47f217272354746[ALL] 02f018ea729923f8cec95389c9678040f8c82783de5d7bb365f3a6e9e4db687584"}, "vout": 1, "txid": "e96ce7308f6f0960d547733268aa5340de01be69fff1da5e7a7b4cebac80d15e"}, {"sequence": 4294967295, "scriptSig": {"hex": "483045022100aa626d3cf371ba6ec3333f703936689da2e93ccddb374eddc9d68b7e76377e76022069538bb8860cfc61bea07d5ca66994ae5ebfb3bcb9c92b63c35bc7cc684932700121034a6872cd06f49151ff4a770ba79bf53c2f0b83250f245ee97574952fb2dad25d", "asm": "3045022100aa626d3cf371ba6ec3333f703936689da2e93ccddb374eddc9d68b7e76377e76022069538bb8860cfc61bea07d5ca66994ae5ebfb3bcb9c92b63c35bc7cc68493270[ALL] 034a6872cd06f49151ff4a770ba79bf53c2f0b83250f245ee97574952fb2dad25d"}, "vout": 0, "txid": "0a323ce46c8f62e3639826fcf46df700eba97dd296956d3c1b8edea7628c7681"}], "txid": "6636e9b8a9d90d7fba939344c7981fab4cbc6ae13c2fde3d9b44552119a09497", "blocktime": 1537872018, "version": 1, "confirmations": 11489, "time": 1537872018, "locktime": 0, "vsize": 372, "size": 372}