{"hash": "664082bb45b50a59f1632e0d32828144e1ec33a076774a00d9ed4e3dd3e644d9", "blockhash": "0000000000000000001f76057863aec43deb6fa401d9628bb513d65a8098bfab", "vout": [{"scriptPubKey": {"reqSigs": 1, "hex": "76a914dc8ea571d21b4b989ce889e2957478d7f56d2a2d88ac", "addresses": ["1M7CYSUJPRSeptskxBu3vcuvADFtj9TYsC"], "asm": "OP_DUP OP_HASH160 dc8ea571d21b4b989ce889e2957478d7f56d2a2d OP_EQUALVERIFY OP_CHECKSIG", "type": "pubkeyhash"}, "value": 0.0167159, "n": 0}], "hex": "01000000017cb217c6c365006d74932651ebe727e725a82e0079a821fe3a67032f72bfaf9d370000006b4830450221009b9304f5bc5562a3f607fbf6c7987c326761b37656a5ec1bc7fddac9d423a50e0220220a0a1197866235369aeb193b43ef9566ce842cc2d1bba791e0f75cf330874d01210386a33cf587b1351162729aaeb460ee6f6542ca490a3366dc21f41752168c5ac1ffffffff01a6811900000000001976a914dc8ea571d21b4b989ce889e2957478d7f56d2a2d88ac00000000", "vin": [{"sequence": 4294967295, "scriptSig": {"hex": "4830450221009b9304f5bc5562a3f607fbf6c7987c326761b37656a5ec1bc7fddac9d423a50e0220220a0a1197866235369aeb193b43ef9566ce842cc2d1bba791e0f75cf330874d01210386a33cf587b1351162729aaeb460ee6f6542ca490a3366dc21f41752168c5ac1", "asm": "30450221009b9304f5bc5562a3f607fbf6c7987c326761b37656a5ec1bc7fddac9d423a50e0220220a0a1197866235369aeb193b43ef9566ce842cc2d1bba791e0f75cf330874d[ALL] 0386a33cf587b1351162729aaeb460ee6f6542ca490a3366dc21f41752168c5ac1"}, "vout": 55, "txid": "9dafbf722f03673afe21a879002ea825e727e7eb512693746d0065c3c617b27c"}], "txid": "664082bb45b50a59f1632e0d32828144e1ec33a076774a00d9ed4e3dd3e644d9", "blocktime": 1537873891, "version": 1, "confirmations": 11474, "time": 1537873891, "locktime": 0, "vsize": 192, "size": 192}