{"hash": "165ba691c68cba1904f559acfc310b2337f5094f47bb75ab18e78ba80fac41a8", "blockhash": "00000000000000000024a2167bbff67b0be802c0b01cdd79e6331c2be6459f87", "vout": [{"scriptPubKey": {"reqSigs": 1, "hex": "76a914129f89983777a3d774808d6b94a01fad166eb77788ac", "addresses": ["12hUHK4FdQiLzEtBokjW4o4yRA9PFrdc6N"], "asm": "OP_DUP OP_HASH160 129f89983777a3d774808d6b94a01fad166eb777 OP_EQUALVERIFY OP_CHECKSIG", "type": "pubkeyhash"}, "value": 0.00235089, "n": 0}, {"scriptPubKey": {"reqSigs": 1, "hex": "a914f37b9fcbf2387059f82bbde44a2e84df89a98e0c87", "addresses": ["3PtSDienLrmvoipHv5cNRmsm3s4tMb5G4M"], "asm": "OP_HASH160 f37b9fcbf2387059f82bbde44a2e84df89a98e0c OP_EQUAL", "type": "scripthash"}, "value": 0.01561543, "n": 1}], "hex": "0200000000010189fa44bb518052edd114c60df5c18c87fb677ea1efaacb8185178bcf0c5b1bc10100000017160014dfd16431debef633171d3820b3ced1dd581cbf8ffeffffff0251960300000000001976a914129f89983777a3d774808d6b94a01fad166eb77788acc7d317000000000017a914f37b9fcbf2387059f82bbde44a2e84df89a98e0c870247304402201eda53afd4c6d34e4de4cfec3902fdb21d9895574afa9de32fd2afa90c30336e02207cd82aeb2b240956140cd91807d4feadb2c967548152bd8f37a9026a5ce3e1b1012102739219522f6766b544c043f48281361d599ac1565c69b482454d202f381bc1160d490800", "vin": [{"txinwitness": ["304402201eda53afd4c6d34e4de4cfec3902fdb21d9895574afa9de32fd2afa90c30336e02207cd82aeb2b240956140cd91807d4feadb2c967548152bd8f37a9026a5ce3e1b101", "02739219522f6766b544c043f48281361d599ac1565c69b482454d202f381bc116"], "sequence": 4294967294, "scriptSig": {"hex": "160014dfd16431debef633171d3820b3ced1dd581cbf8f", "asm": "0014dfd16431debef633171d3820b3ced1dd581cbf8f"}, "vout": 1, "txid": "c11b5b0ccf8b178581cbaaefa17e67fb878cc1f50dc614d1ed528051bb44fa89"}], "txid": "6650383537e351043297d77adf0875c575ec9e0c2577ccf52bf7cbe867dd7a5e", "blocktime": 1537870564, "version": 2, "confirmations": 11515, "time": 1537870564, "locktime": 542989, "vsize": 168, "size": 249}