{"hash": "35e4629225480bf44ffe48404f6c962085a239dd55da247642e4666d51beefd3", "blockhash": "00000000000000000004ffacab907a6b429b9a5745fa0b75af4234bf69dd7176", "vout": [{"scriptPubKey": {"reqSigs": 1, "hex": "a91414e66956e3e7d705dfdd5e67cef86012871687d187", "addresses": ["33bXTehYPUWB8nQ2YWDTysSKL4nKGbcDxE"], "asm": "OP_HASH160 14e66956e3e7d705dfdd5e67cef86012871687d1 OP_EQUAL", "type": "scripthash"}, "value": 0.014515, "n": 0}, {"scriptPubKey": {"reqSigs": 1, "hex": "a914c4871696edf084e63a6382bc81b9f68e1521407887", "addresses": ["3KcACEkwJsAsAZ3vqyEdJBV8pXoc44LTzQ"], "asm": "OP_HASH160 c4871696edf084e63a6382bc81b9f68e15214078 OP_EQUAL", "type": "scripthash"}, "value": 0.00503643, "n": 1}], "hex": "0200000000010119c4cb70d81b91d5abf6657e7175773192a5bce920397eafb21772a10e85851b0000000017160014cabb6a75e2a1cec96420a9ec3cd516cf4cb0ae8fffffffff02ec2516000000000017a91414e66956e3e7d705dfdd5e67cef86012871687d1875baf07000000000017a914c4871696edf084e63a6382bc81b9f68e152140788702483045022100fe7ad3365cbed50c0c1d6e3517e0b751f66f565adeb23b8634c9cda215ca3885022040eb1d93e37bee03e4937c976f1f2baaf02a8e6f6eb34cd0bfae461c878ce67a012102152504967aa6942c200937f8a91b2bd5e00b5286ce7888c7d532d6f1d718d29900000000", "vin": [{"txinwitness": ["3045022100fe7ad3365cbed50c0c1d6e3517e0b751f66f565adeb23b8634c9cda215ca3885022040eb1d93e37bee03e4937c976f1f2baaf02a8e6f6eb34cd0bfae461c878ce67a01", "02152504967aa6942c200937f8a91b2bd5e00b5286ce7888c7d532d6f1d718d299"], "sequence": 4294967295, "scriptSig": {"hex": "160014cabb6a75e2a1cec96420a9ec3cd516cf4cb0ae8f", "asm": "0014cabb6a75e2a1cec96420a9ec3cd516cf4cb0ae8f"}, "vout": 0, "txid": "1b85850ea17217b2af7e3920e9bca592317775717e65f6abd5911bd870cbc419"}], "txid": "6650ea0d1186ee7f10d561ce3e390c4c8fb6e2c6f304d296de39d333dfd80fea", "blocktime": 1537875543, "version": 2, "confirmations": 11464, "time": 1537875543, "locktime": 0, "vsize": 166, "size": 248}