{"hash": "6652c7d49adb07d71219c63cac1dbd0cc7ad5bfe180793e50be0f902170dd227", "blockhash": "0000000000000000001cda96e906b7601b7a6fb1a3b62bca570a9e5d8f4b3de1", "vout": [{"scriptPubKey": {"reqSigs": 1, "hex": "a914b801c8f6011fe5b9ab3ab841486dd3f0645266d087", "addresses": ["3JTxPs7PUTLf1aU2TZrGu8h3FmHmaW3nAq"], "asm": "OP_HASH160 b801c8f6011fe5b9ab3ab841486dd3f0645266d0 OP_EQUAL", "type": "scripthash"}, "value": 0.00249637, "n": 0}, {"scriptPubKey": {"reqSigs": 1, "hex": "76a914f1ee9e21cbe015fbdb2e322e5ee1f51e1e1a76b188ac", "addresses": ["1P4DhgRsLo3wcxPKjUQMVvT51cjFRircSc"], "asm": "OP_DUP OP_HASH160 f1ee9e21cbe015fbdb2e322e5ee1f51e1e1a76b1 OP_EQUALVERIFY OP_CHECKSIG", "type": "pubkeyhash"}, "value": 0.00300532, "n": 1}], "hex": "010000000132d896d9a39077b3d699e68657a6460eef2fc62e1f58f1e379f0f20f8de92ba3010000006b483045022100831712319d2a221d572c6403289119b76a417518cc01fd9cfc8545ebaf09ec9a022073db301cc837aed0bbe50bcc51e3dfc46206eca6131996dccd75b2aa351497f701210280fdc67916ecac2f69c212eea61c8d778807f1003ee80b783be8231b6efc3161ffffffff0225cf03000000000017a914b801c8f6011fe5b9ab3ab841486dd3f0645266d087f4950400000000001976a914f1ee9e21cbe015fbdb2e322e5ee1f51e1e1a76b188ac00000000", "vin": [{"sequence": 4294967295, "scriptSig": {"hex": "483045022100831712319d2a221d572c6403289119b76a417518cc01fd9cfc8545ebaf09ec9a022073db301cc837aed0bbe50bcc51e3dfc46206eca6131996dccd75b2aa351497f701210280fdc67916ecac2f69c212eea61c8d778807f1003ee80b783be8231b6efc3161", "asm": "3045022100831712319d2a221d572c6403289119b76a417518cc01fd9cfc8545ebaf09ec9a022073db301cc837aed0bbe50bcc51e3dfc46206eca6131996dccd75b2aa351497f7[ALL] 0280fdc67916ecac2f69c212eea61c8d778807f1003ee80b783be8231b6efc3161"}, "vout": 1, "txid": "a32be98d0ff2f079e3f1581f2ec62fef0e46a65786e699d6b37790a3d996d832"}], "txid": "6652c7d49adb07d71219c63cac1dbd0cc7ad5bfe180793e50be0f902170dd227", "blocktime": 1537873282, "version": 1, "confirmations": 11481, "time": 1537873282, "locktime": 0, "vsize": 224, "size": 224}