{"hash": "ad8c318364d4df8f92b6ec51becd466a9c7bd69bdb3eee2c3e9f156f4d364d68", "blockhash": "00000000000000000004ffacab907a6b429b9a5745fa0b75af4234bf69dd7176", "vout": [{"scriptPubKey": {"reqSigs": 1, "hex": "76a9148a4c9c0e84503801f7d6f83f9ba6810d0b74ad6d88ac", "addresses": ["1DcG2QEtbJ9o5GrQXZhZu2gkT9T134NBwg"], "asm": "OP_DUP OP_HASH160 8a4c9c0e84503801f7d6f83f9ba6810d0b74ad6d OP_EQUALVERIFY OP_CHECKSIG", "type": "pubkeyhash"}, "value": 0.00010045, "n": 0}, {"scriptPubKey": {"reqSigs": 1, "hex": "76a91413cda12e9cd6149a9dee937967db019ae1e7612b88ac", "addresses": ["12oiB3PBbsyd78MYSyRjuyZh1WHaB2yR3f"], "asm": "OP_DUP OP_HASH160 13cda12e9cd6149a9dee937967db019ae1e7612b OP_EQUALVERIFY OP_CHECKSIG", "type": "pubkeyhash"}, "value": 0.01564394, "n": 1}, {"scriptPubKey": {"reqSigs": 1, "hex": "a91469f3746e56d3a2785c7e355f1427e63825b74bfe87", "addresses": ["3BMEXDs5uDE9E8H5TUMMbt645sUCyg3rwP"], "asm": "OP_HASH160 69f3746e56d3a2785c7e355f1427e63825b74bfe OP_EQUAL", "type": "scripthash"}, "value": 0.00443739, "n": 2}, {"scriptPubKey": {"reqSigs": 1, "hex": "a91415d45fded12b9b320f450ab40dfd346fd46a80f387", "addresses": ["33gSXcNfEJMvwJURcktM969yiago1LsAve"], "asm": "OP_HASH160 15d45fded12b9b320f450ab40dfd346fd46a80f3 OP_EQUAL", "type": "scripthash"}, "value": 0.00911922, "n": 3}, {"scriptPubKey": {"reqSigs": 1, "hex": "a91469f376744f1f1277fe75264b5c68d4f9891f11dd87", "addresses": ["3BMEXmiRuiGjcoE7SXsbEdphNRDbre9GQ9"], "asm": "OP_HASH160 69f376744f1f1277fe75264b5c68d4f9891f11dd OP_EQUAL", "type": "scripthash"}, "value": 0.0195, "n": 4}, {"scriptPubKey": {"reqSigs": 1, "hex": "76a914372b3acd7847c4e6af2ac64db9d1f929108b109b88ac", "addresses": ["162hxCkyiwBhTu2mcFoA7FMcihKaENEoY9"], "asm": "OP_DUP OP_HASH160 372b3acd7847c4e6af2ac64db9d1f929108b109b OP_EQUALVERIFY OP_CHECKSIG", "type": "pubkeyhash"}, "value": 0.01564394, "n": 5}, {"scriptPubKey": {"reqSigs": 1, "hex": "76a914e6dfe089582105d40f8e61d208164b5709f7f92d88ac", "addresses": ["1N3kcNiB1evjyKE5cJg2P2Ymhm7JiHG2C5"], "asm": "OP_DUP OP_HASH160 e6dfe089582105d40f8e61d208164b5709f7f92d OP_EQUALVERIFY OP_CHECKSIG", "type": "pubkeyhash"}, "value": 0.078, "n": 6}], "hex": "01000000000101476713e49cb99c02dda451bda87fc481fc1402ed0ca32839f7d6efd197b73df70b0000001716001499e5736043f98b09a643c8bace72884cb443d6dcffffffff073d270000000000001976a9148a4c9c0e84503801f7d6f83f9ba6810d0b74ad6d88aceade1700000000001976a91413cda12e9cd6149a9dee937967db019ae1e7612b88ac5bc506000000000017a91469f3746e56d3a2785c7e355f1427e63825b74bfe8732ea0d000000000017a91415d45fded12b9b320f450ab40dfd346fd46a80f38730c11d000000000017a91469f376744f1f1277fe75264b5c68d4f9891f11dd87eade1700000000001976a914372b3acd7847c4e6af2ac64db9d1f929108b109b88acc0047700000000001976a914e6dfe089582105d40f8e61d208164b5709f7f92d88ac02473044022065175660697064dad9114a968e727ade4d370edad1968274eb5aaf8ecd3bbdc5022054038cc0b981bae15062f1540f766cc8485cba88004ba079e12685565b28d758012103f4ce1206c743ab52be8bffa0bb12f826b5a0e26881f0c6394346f9dc205ebaa700000000", "vin": [{"txinwitness": ["3044022065175660697064dad9114a968e727ade4d370edad1968274eb5aaf8ecd3bbdc5022054038cc0b981bae15062f1540f766cc8485cba88004ba079e12685565b28d75801", "03f4ce1206c743ab52be8bffa0bb12f826b5a0e26881f0c6394346f9dc205ebaa7"], "sequence": 4294967295, "scriptSig": {"hex": "16001499e5736043f98b09a643c8bace72884cb443d6dc", "asm": "001499e5736043f98b09a643c8bace72884cb443d6dc"}, "vout": 11, "txid": "f73db797d1efd6f73928a30ced0214fc81c47fa8bd51a4dd029cb99ce4136747"}], "txid": "665461a7bb00632d5c6128f53bdf384d7cc5b7e799e7215794502fbe5f35908a", "blocktime": 1537875543, "version": 1, "confirmations": 11464, "time": 1537875543, "locktime": 0, "vsize": 334, "size": 415}