{"hash": "665ca641c65936892862f674b9a3c6badbbfd0ce155130ff3ec8661d90f75c65", "blockhash": "00000000000000000017f5eb5941039fbcee6240d03bc1f2f8e35350df66a1d8", "vout": [{"scriptPubKey": {"reqSigs": 1, "hex": "a9140ad3f8a2a487230d449f8b2d85fc66e705843f6f87", "addresses": ["32gGcUsp28BjRQENA4H22Q5EPfhtemCUq4"], "asm": "OP_HASH160 0ad3f8a2a487230d449f8b2d85fc66e705843f6f OP_EQUAL", "type": "scripthash"}, "value": 0.0029636, "n": 0}], "hex": "0100000003320ae08edfcdd6da2d6870770fa3442da0ab25e0b6289205baa43e3dfbf5285e1c0000006b483045022100c2a437e86440b6554ce331178361874b08e6dd4f2fa20d68fe2ada553edb3b60022029938475c52d01011fe532d15c18c2c43f67ed9ee9f959e63412cacbf73c4b690121034568a306dd841f90a78f3b71a29dd07676915244ebf2397e68a44b68be9bd7a9ffffffff98b60ca0351ddc0d99899043b666a33a803bdbbb7af26ae28d9a88ffd1f2a06b000000006a47304402207eef676192d05449c9fba4b654c198394b433899c5f72cdfbe3096346fa655d702202cee4d23000d83dbcb8aafa8f14b3898561f77ea53a233ba577f23d718f9115f0121031f1aa03493ccfa9d299baa3b0ecbf7b0ae0a9891d4eb965e573de614a6a75d3affffffff1f129c13f8714b33943d62869587a89f0882125139abe1d773660148ab929e78000000006a4730440220288e168414e813e779d4a90f5353330427fad682eef6a2a2cb3b67559f7cbc5d0220749954cb448159e0dab1a602729aaae6c5646301fc07974d764dbc42f455800401210374dce6120f681133e5abde0e3a0939a41b2b799f775753e66559449faff6b3c8ffffffff01a88504000000000017a9140ad3f8a2a487230d449f8b2d85fc66e705843f6f8700000000", "vin": [{"sequence": 4294967295, "scriptSig": {"hex": "483045022100c2a437e86440b6554ce331178361874b08e6dd4f2fa20d68fe2ada553edb3b60022029938475c52d01011fe532d15c18c2c43f67ed9ee9f959e63412cacbf73c4b690121034568a306dd841f90a78f3b71a29dd07676915244ebf2397e68a44b68be9bd7a9", "asm": "3045022100c2a437e86440b6554ce331178361874b08e6dd4f2fa20d68fe2ada553edb3b60022029938475c52d01011fe532d15c18c2c43f67ed9ee9f959e63412cacbf73c4b69[ALL] 034568a306dd841f90a78f3b71a29dd07676915244ebf2397e68a44b68be9bd7a9"}, "vout": 28, "txid": "5e28f5fb3d3ea4ba059228b6e025aba02d44a30f7770682ddad6cddf8ee00a32"}, {"sequence": 4294967295, "scriptSig": {"hex": "47304402207eef676192d05449c9fba4b654c198394b433899c5f72cdfbe3096346fa655d702202cee4d23000d83dbcb8aafa8f14b3898561f77ea53a233ba577f23d718f9115f0121031f1aa03493ccfa9d299baa3b0ecbf7b0ae0a9891d4eb965e573de614a6a75d3a", "asm": "304402207eef676192d05449c9fba4b654c198394b433899c5f72cdfbe3096346fa655d702202cee4d23000d83dbcb8aafa8f14b3898561f77ea53a233ba577f23d718f9115f[ALL] 031f1aa03493ccfa9d299baa3b0ecbf7b0ae0a9891d4eb965e573de614a6a75d3a"}, "vout": 0, "txid": "6ba0f2d1ff889a8de26af27abbdb3b803aa366b6439089990ddc1d35a00cb698"}, {"sequence": 4294967295, "scriptSig": {"hex": "4730440220288e168414e813e779d4a90f5353330427fad682eef6a2a2cb3b67559f7cbc5d0220749954cb448159e0dab1a602729aaae6c5646301fc07974d764dbc42f455800401210374dce6120f681133e5abde0e3a0939a41b2b799f775753e66559449faff6b3c8", "asm": "30440220288e168414e813e779d4a90f5353330427fad682eef6a2a2cb3b67559f7cbc5d0220749954cb448159e0dab1a602729aaae6c5646301fc07974d764dbc42f4558004[ALL] 0374dce6120f681133e5abde0e3a0939a41b2b799f775753e66559449faff6b3c8"}, "vout": 0, "txid": "789e92ab48016673d7e1ab39511282089fa8879586623d94334b71f8139c121f"}], "txid": "665ca641c65936892862f674b9a3c6badbbfd0ce155130ff3ec8661d90f75c65", "blocktime": 1537874412, "version": 1, "confirmations": 11467, "time": 1537874412, "locktime": 0, "vsize": 484, "size": 484}