{"hash": "6660b32a3a545ef800311028f8cba988f8251484721c76971ece205588f526c0", "blockhash": "0000000000000000001f76057863aec43deb6fa401d9628bb513d65a8098bfab", "vout": [{"scriptPubKey": {"reqSigs": 1, "hex": "76a914506adbad66412d86a2409a9c5e6da039f372c7b588ac", "addresses": ["18LD4ykLW2DyHLe7SLAg5e7HgdKnk8tBD5"], "asm": "OP_DUP OP_HASH160 506adbad66412d86a2409a9c5e6da039f372c7b5 OP_EQUALVERIFY OP_CHECKSIG", "type": "pubkeyhash"}, "value": 0.00636746, "n": 0}, {"scriptPubKey": {"type": "nulldata", "hex": "6a4c50000077dd0001df7f9b25c367783ad17e05127af8e8e963c7cfd5b95b23cc0f42c2fc38c574de08ad8eb88e5b1ec203ef39f6eff25baa161e06130a5f4f3406731d100759d4ba30d2c37bb011d97e02cf", "asm": "OP_RETURN 000077dd0001df7f9b25c367783ad17e05127af8e8e963c7cfd5b95b23cc0f42c2fc38c574de08ad8eb88e5b1ec203ef39f6eff25baa161e06130a5f4f3406731d100759d4ba30d2c37bb011d97e02cf"}, "value": 0.0, "n": 1}], "hex": "010000000112ae94f61814fe9a64c1ccc9c8bf60e539bcd4fd723900fc282aa00b5052d246010000006a47304402200afe6dc3ddef788c8e8a7e5aee94caeb8776f005efef2c88988fa04a6296e9830220071c45213b104a8d844e5df0e06ab18fec1066a47325f6f75cc40174097b872501210315b782fb2538d2e5ae87863d3316e18a4c5f36c2775ca0665211800ab0482a3bffffffff024ab70900000000001976a914506adbad66412d86a2409a9c5e6da039f372c7b588ac0000000000000000536a4c50000077dd0001df7f9b25c367783ad17e05127af8e8e963c7cfd5b95b23cc0f42c2fc38c574de08ad8eb88e5b1ec203ef39f6eff25baa161e06130a5f4f3406731d100759d4ba30d2c37bb011d97e02cf00000000", "vin": [{"sequence": 4294967295, "scriptSig": {"hex": "47304402200afe6dc3ddef788c8e8a7e5aee94caeb8776f005efef2c88988fa04a6296e9830220071c45213b104a8d844e5df0e06ab18fec1066a47325f6f75cc40174097b872501210315b782fb2538d2e5ae87863d3316e18a4c5f36c2775ca0665211800ab0482a3b", "asm": "304402200afe6dc3ddef788c8e8a7e5aee94caeb8776f005efef2c88988fa04a6296e9830220071c45213b104a8d844e5df0e06ab18fec1066a47325f6f75cc40174097b8725[ALL] 0315b782fb2538d2e5ae87863d3316e18a4c5f36c2775ca0665211800ab0482a3b"}, "vout": 1, "txid": "46d252500ba02a28fc003972fdd4bc39e560bfc8c9ccc1649afe1418f694ae12"}], "txid": "6660b32a3a545ef800311028f8cba988f8251484721c76971ece205588f526c0", "blocktime": 1537873891, "version": 1, "confirmations": 11478, "time": 1537873891, "locktime": 0, "vsize": 283, "size": 283}