{"hash": "2f9500a1a15833efc18b77db4529c0a98ca1fcf578d5b2b2773ddcf40c55e364", "blockhash": "0000000000000000001cda96e906b7601b7a6fb1a3b62bca570a9e5d8f4b3de1", "vout": [{"scriptPubKey": {"reqSigs": 1, "hex": "a9148aaff95747aefa1b3da271787b62783d5a01914287", "addresses": ["3ELKyuMGLDxQBdL9MTH9m7w3erhdCDEEsX"], "asm": "OP_HASH160 8aaff95747aefa1b3da271787b62783d5a019142 OP_EQUAL", "type": "scripthash"}, "value": 6e-05, "n": 0}, {"scriptPubKey": {"reqSigs": 1, "hex": "a9141d7370ccde4590204155e4074f69743a8e4fac0287", "addresses": ["34Njp4ZKtmCDfqqps26wHBYQQGUo2pGkLi"], "asm": "OP_HASH160 1d7370ccde4590204155e4074f69743a8e4fac02 OP_EQUAL", "type": "scripthash"}, "value": 0.00042814, "n": 1}], "hex": "01000000000101896dc2f9a0e457cccd1b1713c7d3de6d03bbd84d8ff75fa73a11877eca3325130000000023220020f63dfc12340f6360d0251c22746d6b56093e3243e96ca012a65484a5d9cf0ec0ffffffff02701700000000000017a9148aaff95747aefa1b3da271787b62783d5a019142873ea700000000000017a9141d7370ccde4590204155e4074f69743a8e4fac02870400483045022100b314f10db66d108d99f85a96125171674c6bdd42d087aed6280b3581f4fcd37702204b4630e7b12efd85bedb470217f37ce8edf8610a5d8a3eb65c114fc145040d4f01483045022100f6784c56eb69098994bd8986d7b903d00fc150861649f0e3aba434d4ca19e4a402202cbf1058f758f6c86e679fe0925a3bf14abe2ca8a2343e02c5fb4da799496ea20147522102097067a6a0cc130a9a6f6577b47bf369b840a79de31cd7457187994266b1bb7c2103338f346cab6ba87fe940591a03ac234be06520c5ab386d4b6632e8eef0d0db7652ae00000000", "vin": [{"txinwitness": ["", "3045022100b314f10db66d108d99f85a96125171674c6bdd42d087aed6280b3581f4fcd37702204b4630e7b12efd85bedb470217f37ce8edf8610a5d8a3eb65c114fc145040d4f01", "3045022100f6784c56eb69098994bd8986d7b903d00fc150861649f0e3aba434d4ca19e4a402202cbf1058f758f6c86e679fe0925a3bf14abe2ca8a2343e02c5fb4da799496ea201", "522102097067a6a0cc130a9a6f6577b47bf369b840a79de31cd7457187994266b1bb7c2103338f346cab6ba87fe940591a03ac234be06520c5ab386d4b6632e8eef0d0db7652ae"], "sequence": 4294967295, "scriptSig": {"hex": "220020f63dfc12340f6360d0251c22746d6b56093e3243e96ca012a65484a5d9cf0ec0", "asm": "0020f63dfc12340f6360d0251c22746d6b56093e3243e96ca012a65484a5d9cf0ec0"}, "vout": 0, "txid": "132533ca7e87113aa75ff78f4dd8bb036dded3c713171bcdcc57e4a0f9c26d89"}], "txid": "6664f4c4c2ac752523f5d27f0a43912fd3333f7eb90e75bd8606a3492f959696", "blocktime": 1537873282, "version": 1, "confirmations": 11485, "time": 1537873282, "locktime": 0, "vsize": 206, "size": 372}