{"hash": "bfc2190d62477e7e798c0b29083c911f228c9053b5f804489c5a0feceb94ec04", "blockhash": "0000000000000000001e0dab787dd257d1dbfcb92a98c2207d5e1078be1f4165", "vout": [{"scriptPubKey": {"reqSigs": 1, "hex": "76a91481e4005c1b722c6f7df3063b6dfa52751b88982088ac", "addresses": ["1CqoJZZtQbYs5xU5qQDSNJ8hr1ECMsB4FW"], "asm": "OP_DUP OP_HASH160 81e4005c1b722c6f7df3063b6dfa52751b889820 OP_EQUALVERIFY OP_CHECKSIG", "type": "pubkeyhash"}, "value": 0.00049914, "n": 0}, {"scriptPubKey": {"reqSigs": 1, "hex": "76a91475b9199944cc537eafb135a07bba71972467b96888ac", "addresses": ["1BjToRCiYA6ovBaLEnpWG5wYaRqosk48eK"], "asm": "OP_DUP OP_HASH160 75b9199944cc537eafb135a07bba71972467b968 OP_EQUALVERIFY OP_CHECKSIG", "type": "pubkeyhash"}, "value": 0.00116205, "n": 1}, {"scriptPubKey": {"reqSigs": 1, "hex": "76a9149e7d2b0d163159659381183827409b9e0f11d31188ac", "addresses": ["1FT1i9UCJHtMS52VLtkhRC6GkUYYFvWYZd"], "asm": "OP_DUP OP_HASH160 9e7d2b0d163159659381183827409b9e0f11d311 OP_EQUALVERIFY OP_CHECKSIG", "type": "pubkeyhash"}, "value": 0.01581539, "n": 2}, {"scriptPubKey": {"reqSigs": 1, "hex": "76a914affb761414c846ef34d3fe4c925159450f0b92b588ac", "addresses": ["1H3WVQRZTSrcK4c7fT59kSkiopaeRH7Kgt"], "asm": "OP_DUP OP_HASH160 affb761414c846ef34d3fe4c925159450f0b92b5 OP_EQUALVERIFY OP_CHECKSIG", "type": "pubkeyhash"}, "value": 0.31274102, "n": 3}, {"scriptPubKey": {"reqSigs": 1, "hex": "76a914c1c2af6d07d4189ed7b326bb6197ef61da0047b088ac", "addresses": ["1JfWdzYRirrUyz8DDX4siAAEwu5FHPNL15"], "asm": "OP_DUP OP_HASH160 c1c2af6d07d4189ed7b326bb6197ef61da0047b0 OP_EQUALVERIFY OP_CHECKSIG", "type": "pubkeyhash"}, "value": 0.00172644, "n": 4}, {"scriptPubKey": {"reqSigs": 1, "hex": "a914a3a721bee7666032f1ee097f78881c33486a258f87", "addresses": ["3GcLHLMV7fnANoq19W8TKrgy6LPtSm6LXw"], "asm": "OP_HASH160 a3a721bee7666032f1ee097f78881c33486a258f OP_EQUAL", "type": "scripthash"}, "value": 0.00141, "n": 5}, {"scriptPubKey": {"reqSigs": 1, "hex": "76a91434b3418360b19480ff8f148daa2e7f103e577bf288ac", "addresses": ["15oestsAMtw6kwTHh5XhWwSCJFaVsuR8H2"], "asm": "OP_DUP OP_HASH160 34b3418360b19480ff8f148daa2e7f103e577bf2 OP_EQUALVERIFY OP_CHECKSIG", "type": "pubkeyhash"}, "value": 0.01442357, "n": 6}, {"scriptPubKey": {"reqSigs": 1, "hex": "76a9142b7a4360d0ff743c8a5854d624b99305b3bc148b88ac", "addresses": ["14xtXFBVHjJ4ettJeUh8kCJh5hgzH9Kvky"], "asm": "OP_DUP OP_HASH160 2b7a4360d0ff743c8a5854d624b99305b3bc148b OP_EQUALVERIFY OP_CHECKSIG", "type": "pubkeyhash"}, "value": 0.01409322, "n": 7}, {"scriptPubKey": {"reqSigs": 1, "hex": "76a914ca9aa3d324d809e205bfe2b3e1f163b4a474958788ac", "addresses": ["1KUGkKdSvF4nKUXUafC9YZ3EHAYJCCmCCc"], "asm": "OP_DUP OP_HASH160 ca9aa3d324d809e205bfe2b3e1f163b4a4749587 OP_EQUALVERIFY OP_CHECKSIG", "type": "pubkeyhash"}, "value": 0.00203569, "n": 8}, {"scriptPubKey": {"reqSigs": 1, "hex": "a914adc010a07ee8b2b4c65ded5cfbc302e24f12be2d87", "addresses": ["3HXiuduCTD2qYknViHVdzvu1CWcZsW5sRe"], "asm": "OP_HASH160 adc010a07ee8b2b4c65ded5cfbc302e24f12be2d OP_EQUAL", "type": "scripthash"}, "value": 0.12377445, "n": 9}, {"scriptPubKey": {"reqSigs": 1, "hex": "76a91479bcd24c65fd2ebcc9f0de11c50343be1132438588ac", "addresses": ["1C6gxkxD1rx9ycp6TqHV31eQCaZu5StA9R"], "asm": "OP_DUP OP_HASH160 79bcd24c65fd2ebcc9f0de11c50343be11324385 OP_EQUALVERIFY OP_CHECKSIG", "type": "pubkeyhash"}, "value": 0.10898796, "n": 10}, {"scriptPubKey": {"reqSigs": 1, "hex": "76a91469d446fbed988009db88b11c046185d5051b6a4588ac", "addresses": ["1AeaFRj3vBeric7k16A434Vr4mHWo86TTi"], "asm": "OP_DUP OP_HASH160 69d446fbed988009db88b11c046185d5051b6a45 OP_EQUALVERIFY OP_CHECKSIG", "type": "pubkeyhash"}, "value": 0.0606613, "n": 11}, {"scriptPubKey": {"reqSigs": 1, "hex": "a914997f0a027fb8f98018bc92a8bfd363eaa86b014287", "addresses": ["3FgdVj23UfFjaSdY995hTNRFBUWLc276vH"], "asm": "OP_HASH160 997f0a027fb8f98018bc92a8bfd363eaa86b0142 OP_EQUAL", "type": "scripthash"}, "value": 0.00704411, "n": 12}, {"scriptPubKey": {"reqSigs": 1, "hex": "a914d793f045446dbcc0183f57c64162d7e328de7f9687", "addresses": ["3MLtRjnLbsuxqvLoaXM1WiTnFcSfpM4QUx"], "asm": "OP_HASH160 d793f045446dbcc0183f57c64162d7e328de7f96 OP_EQUAL", "type": "scripthash"}, "value": 0.12235094, "n": 13}, {"scriptPubKey": {"reqSigs": 1, "hex": "76a914fd3346ea4d07b15fd5213f3f3dbb1ca5ccb55f7f88ac", "addresses": ["1Q5oPKhY6wfBFeN15Eucy2NUMJ7X7kN8bx"], "asm": "OP_DUP OP_HASH160 fd3346ea4d07b15fd5213f3f3dbb1ca5ccb55f7f OP_EQUALVERIFY OP_CHECKSIG", "type": "pubkeyhash"}, "value": 0.6864643, "n": 14}, {"scriptPubKey": {"reqSigs": 1, "hex": "76a91460bd8680c5f09b73a3a1813e64368da2fae480a088ac", "addresses": ["19pWusYrkg7qP5XDTc1KwMbnTEr9ysa33L"], "asm": "OP_DUP OP_HASH160 60bd8680c5f09b73a3a1813e64368da2fae480a0 OP_EQUALVERIFY OP_CHECKSIG", "type": "pubkeyhash"}, "value": 0.02157063, "n": 15}, {"scriptPubKey": {"reqSigs": 1, "hex": "76a91485d0e6ce1748f52020a87588259e1239a7c98e8688ac", "addresses": ["1DCZ8FVTGj4mLoEHeetNH9hm3zDrbG3B6x"], "asm": "OP_DUP OP_HASH160 85d0e6ce1748f52020a87588259e1239a7c98e86 OP_EQUALVERIFY OP_CHECKSIG", "type": "pubkeyhash"}, "value": 0.00223188, "n": 16}, {"scriptPubKey": {"reqSigs": 1, "hex": "76a914a453524823a1ed1125b3cc1aa1a7705fe3bd918488ac", "addresses": ["1FysdjYQiCT5XEuJZw3v26V9KEB3ka29jz"], "asm": "OP_DUP OP_HASH160 a453524823a1ed1125b3cc1aa1a7705fe3bd9184 OP_EQUALVERIFY OP_CHECKSIG", "type": "pubkeyhash"}, "value": 0.0180582, "n": 17}, {"scriptPubKey": {"reqSigs": 1, "hex": "a914e381cbb68dee063977afd58411477e533086db8c87", "addresses": ["3NRxoTRV8VwESzgcJzJQujhavYecGV59Po"], "asm": "OP_HASH160 e381cbb68dee063977afd58411477e533086db8c OP_EQUAL", "type": "scripthash"}, "value": 0.04717855, "n": 18}, {"scriptPubKey": {"reqSigs": 1, "hex": "76a914f38f7ae22beaf9280ebfc52ec39699c48d40669688ac", "addresses": ["1PCq5nHybos6QzYsJHRPWYeMzmisi2msQ6"], "asm": "OP_DUP OP_HASH160 f38f7ae22beaf9280ebfc52ec39699c48d406696 OP_EQUALVERIFY OP_CHECKSIG", "type": "pubkeyhash"}, "value": 0.01060236, "n": 19}], "hex": "0100000000010d9d3377f24329565056208ace152ecb6c320e9c9307fde529cc1e6fe15d4aa7d5010000002322002012a3073df87296df8ecf5664bd75d96ba775f3d78b5c8245a9a7190ca9c15a32ffffffff4ed6cb0a85eebc5009302112f2d06d9f7286fcf16fc9c1bdbd5f1a7e2dc40d7b1f000000fdfd0000473044022024effe8d29bd48dd4e0fcdcb8746ad0410cb8aa5d450345df1a1a1c0dad2ee87022014daf58453019aab27ea465dbbbece9cdb5bfaac807bf69dcc88a6b8d42fa92701483045022100e2c534eb9f802bda3a863a0adcb964c9a286481a9bc45941d9070b60ea5f612d022031c8c35a23afabc00f4fd0b9126ad919083b4d6eee48bd41326f1edef6e0dc45014c69522102178a586201d106bc596d799fcc4578e17ac737119388695ceb0cccbb659afde22102d9e208240e27964a71f1bf0e1e8d54bb2411597690631062191b4153d6681b8b2103249d3f6b38a30d90f6c290ac31781119dc29214d0f31f77087b49a60336c974453aeffffffff446e75f2fca59d63ab8e67777cc56df2399401d1346a2bef959b74c37b1e67ab010000002322002020462d13372e9c1bd435d32f376d29fd614a8134dd696d779f6dc822a7a1e418ffffffff48c967da20e70cddd4683b84ce401f83b99a8ad384d1aa880bb2b23ecd0162e8000000002322002056f1f9b78534833683447855ba818b63fd936592e724fd67e3aa3edaf4365e7afffffffff0b595ea9c118d701afd437f3ab42e2968480a3e40d0d787a3b1c2ed1269309c1d000000fdfe00004830450221008d714d32370533cd711c94061ee673b0dda33d816aed93eefff060c018cfc4db022062d3ba1c32f74573d1f8e89c91877b94e83f5170221c5f90fab30bb0012a217401483045022100abdf2b475f428a167b4a1bd5b0d2c76e25f41999622e6e78eb85bbb9fbb1cc5102201b771e4503cacfe2a4bdb0916b90faeb426acdeba87ccd582327bb2c0c30996c014c6952210389f83188e206e02fde80031a3378013edb129ed6a745983e6e04e6b58e49f73f21022a481d62dbcd3ed7204b03038f172ace021f90bda992c9c432149938f10c37bd2102f5fcda4196b96a71e0d249d5fea4fe4d3724afb3fa81bc4d731e6eea394adaab53aeffffffff6dd54aa4f46f1dd72cbc7a62a528f789563377737487b418b5b855f45dfc71d300000000232200204d37cd23cf90caf838fe64af53007b59d45c5e753507a6f94108a13303db0457ffffffffe8a03b93e9b6052ca5ed9074dcaa5614009bce0d5be3e61d7b6f8fc67faa14a30100000023220020684cd7e020803d175ba9ec37a7ecb3631f40b0cbe1481676502d1050fe2fb0a6ffffffff49fe23d38ba3c3c38fd0527de8a66a039d1fcd8d430a56a938e46f564592a2240400000023220020b5294e7c20fb3389c7830f8c445dcbd644a0a451e41d6dfa1eb67ad2cc622479ffffffff7ad7fe71f3125c8238b28c2e7659c058df7b0e4a1c178292e3a4d6cea004133501000000232200202d53dfd6f56caca2ec69d1bac5b29d895346fe348ce1568faeadc25cdb741370ffffffff1d9c2c77ccbc5b983e40b0caf1429d6efaf01ddd3e9c51919d94c14da10430f2150000002322002078cce47b4e41158e1325af6576947f3a4590a733916d5fc5618e035c62ac51a8ffffffff757dac5ae561142e4c18321dbe27029954d528f13bc119f76b82831c81002e8d02000000fdfd0000473044022059df11ed554e8ef8d88ee02cb99908d18da6e75e80e9de7d9cc47b7f5771a793022068fa2ba1475cfff5bd3decbf22a62a1cfc54c4e85604524c83db4262e380f7b001483045022100e7d9dfef0528544c334db3fd321ec36b63a375a96bdbaac5a4e06049b27259ab02207895282e2184a405eedb2ede2776b18a331c30c687d75971c822ef5723d60c3c014c69522102742f5d089c2559e9c7effd08b8a338c264addd708b9b6e523dcd89c22b6bef5d21027de15cde54134b5c28c08dc0175dcf438638ad62ed28eca34210b8153cef52d52103ffe8551111e25139e6e419b637abd8d40a7bd153f15ce4bd5b445ab5a1d10a3553aefffffffff0b595ea9c118d701afd437f3ab42e2968480a3e40d0d787a3b1c2ed1269309cb6000000fc0047304402203c0de36f11c787c13d3f9d757a6a95a129fec9ff622ccea0a533946003ec7b1702200ea091065d532e0b2c793d5dc84b0080994252b777cde88605b1eafdb7e756c9014730440220630331a36fb2e8def2e166bf5fab1d89fdb69aeaa72d38427e0f6bf546820e0902207cfd3e6942c24914e5afdb266aac7e18b8fc656f93abe41ac3d1f62306677269014c6952210368fe676313c74e2866fb2f439f6df16cef1cea86353525a1345234e9162149a3210207090494466afa4bbdff7219b221503ea316f1789f5c2b3181a5f74a867405c2210337fb879df249ef3d55060366d53bea4bb4676137b1f551727e51475e1cb6d36053aeffffffff8e0d51d9c4f70f0355b5b66bf9f84e35c0ee549baa236fa99ef786e65d76b2860300000023220020a40afab1c181fc9b2741749be16731ab93ec0f881e53ae1487220083f9694544ffffffff14fac20000000000001976a91481e4005c1b722c6f7df3063b6dfa52751b88982088acedc50100000000001976a91475b9199944cc537eafb135a07bba71972467b96888ace3211800000000001976a9149e7d2b0d163159659381183827409b9e0f11d31188ac7634dd01000000001976a914affb761414c846ef34d3fe4c925159450f0b92b588ac64a20200000000001976a914c1c2af6d07d4189ed7b326bb6197ef61da0047b088acc82602000000000017a914a3a721bee7666032f1ee097f78881c33486a258f8735021600000000001976a91434b3418360b19480ff8f148daa2e7f103e577bf288ac2a811500000000001976a9142b7a4360d0ff743c8a5854d624b99305b3bc148b88ac311b0300000000001976a914ca9aa3d324d809e205bfe2b3e1f163b4a474958788ac65ddbc000000000017a914adc010a07ee8b2b4c65ded5cfbc302e24f12be2d876c4da600000000001976a91479bcd24c65fd2ebcc9f0de11c50343be1132438588acd28f5c00000000001976a91469d446fbed988009db88b11c046185d5051b6a4588ac9bbf0a000000000017a914997f0a027fb8f98018bc92a8bfd363eaa86b01428756b1ba000000000017a914d793f045446dbcc0183f57c64162d7e328de7f96871e761704000000001976a914fd3346ea4d07b15fd5213f3f3dbb1ca5ccb55f7f88ac07ea2000000000001976a91460bd8680c5f09b73a3a1813e64368da2fae480a088acd4670300000000001976a91485d0e6ce1748f52020a87588259e1239a7c98e8688acfc8d1b00000000001976a914a453524823a1ed1125b3cc1aa1a7705fe3bd918488ac1ffd47000000000017a914e381cbb68dee063977afd58411477e533086db8c878c2d1000000000001976a914f38f7ae22beaf9280ebfc52ec39699c48d40669688ac0400483045022100b418bfba8425b34efed3199b6b4b43d5eddf92585884ebccb7b757e24d204f490220473f4acd0ac9642a9c99ca30341e5a285091c6c2b9dcd7242065a7b8e6e70f6e0148304502210097074e130beed59107831944535be24566412c604b537af9af68642e323fadc2022044698a41ec88be61e619eff789f719ded626380bb004102adfc8df9cf6bed77e016952210202a1cf33e444807dfb4cec0abf729a37c99fc37b538a27a5b82e2b76e5e2117721036078b352bccfd58f390468a6b810fb7bd613fd606a7773f6273cf997d4bef6db21027b32c7fc0a26f8dbcbfadb4b64bc31412e72084b22ab748ba423c453037b60ef53ae00040047304402207baee4f33533355464f57fad52f3b1c839e670dfe09e908acf6ef0bc886b960f022026c04c514f7417b04c1d09250e903975cee7f6a7b6dc7f74cc4940aa89b3fdfe014830450221008addf26bea21302f6c14d3a01a8775bd90cea92c029ca54320b6bcb60c72373e0220089e3fe0cee7e8ffc2734c5a34ccc26d30c821cf73b6cd7149992e02b47957a901695221025f0d74a16324d0da16c79c342347ff96d505e67e6d29dd236888931c1064824c21034e92f2aa485c218592af55ac42ffcfd268f197cc545b7a364b4d9adb8a2a5acc2103c8ac858b7d46651f2bcf8679e6dbc4b8ab1a615b67d092f201a70dc4364efead53ae04004830450221008d67d28772aa3ce2f80e8879a2970ca089af82daa8e1af3eac090ac5fe28c2b8022011628950aa42bf7081f6c1a29120f98bbc706def0eda42cd219957b3a2dfd94101483045022100ba28ae7f8456bd0c06216ee4c52c9d8539611182baadda552b2d71aaeaca4c9302205239bf66d6a64cd711cd9fe351fd588ad2bf1a8abb107e4626c66f3fe60cd27c01695221026764352f79a21b86e13d252cf3f2801e4a1f4204cbb5c961d08c9ca129c666a021038bcab9d9bd50692bdd97aabd8cbf24693af89dc7976b739105d01e3225396e6121034ffcef58ffb4487b7a07a10f7066bbfd5b7b476d1e32484d293dfecf2066146253ae0004004630430220046e5b4164266fdb12d04d0c9c19800fbc3662ff085b80568214db5bfe4a714d021f4b8b887b8ff69d7ac74b607b5fec7bc394e072a6d52de528c452cebfd290b201473044022010f4db70280a05f82ea3324e728db8cc8212e50b5eb6b1116fc6eeecfbaf8cb502204aaeff223eba7684cdf5fbe7dbfc6be4c53454b6a21bdefc0fe6dcf7d31aa902016952210247e933bd782c3ee61c5e6d04be33a46bcbd2904f88983ee4d9f2963b654017ba210351909be78ce84245bcf53877f2225734086a4d44c6055490fc7138357a467200210392ae3ffd12385dbafb023714b4ff6703d4f4d3211d1c7792ba4c2158aefcd15153ae0400483045022100fd18d46c20c817207ab1a6c19b1045affd1cd5e34ed77695d40bb014b82e8e5a02206e481dba2036c89f58ab11eeb405a1d4c34d3c5f260f5e5fa61b377da349a6f101483045022100c54b03b351b3cbcf9b433fb3b9aeb18869f6e7aeb008fad349377f582952fefb02206e61f2029f5135af62333ab4f56619e313a8cb1cc2561fb9ccaae2aaab1d55af01695221020f1ca9db56f6ebb84337a6d7e7034b3ffd696aa4af90bea12cdcbe0dc6b640d32102f680c77069cba3d6e12f5e38351502c4df9f2af08955fee14bb1abd6dc5241e42103cb57d7851e772beffd199360abc88c70e1620fd9e3da7a7fc452e5cbfc62edc753ae0400483045022100d6ebed11acab169b5d6c3a42597641abc486a398a2363e5eab46c4e90bfb64200220496f65f5be1dfdf86a0cce424ef9082ecc40b59e10d0185657f9e5bfba59df7e0147304402200866c31ac201d06fd2c124ed465c0797668a39d4cce253550af9dd9c34459aa7022049fb27ea7d4531e48b6192a327f3d51cfa37ac46fd75c40f30245181658bcb210169522103035df372aaf045a073ce97a04411eecaac770592c1bb686382ff07f774a846ae2102d312d7179d55e49025de7c3541c28d246bf9af3c3674d496bb3e3b2965edb9e221021edb0d51e04753ae7b3175a83198d361963046c0e7527c8b4eb9bad04959ea7253ae0400483045022100c17aba2f9e405b295670311d88322dc4931bd78f3b0d7460f48ff1d0ff348ebf02206c3c0f8a6e31f1b3b0ee0157dc5cdba2ac234785b5de8b2ce60df03912a5af9c01483045022100d7688cb1a5cdfc4519d5be5e59e497025b06db01cf4b5d218913b9f6a61bc9fe02207e0b9529f5535da2538c74f5d283c5c643331b3ec5515aba9ee508fffdba4ca90169522102d64db1f291bc0c479f88ffef0fd9e62c99a7a7327a5f8de46502cd12b65ce1e22103e2577de5d28083dcf131b3fd68f497f1b5e64f60a4d090b54955004a81f4714c210271eebe7ef6a54ee969f33dcc9c423e16ce06746925856108124f4c2817dd07b553ae040047304402206158f5713327021a688836f926d59a16cf66dc331ee061e4432554132dbef5dd02201cf58e298635335b722045ddf4e2ebc4a64af827156cd3162903013ee29ca38e0147304402201b2f0f9d6208dceb601c206ff0ab25a2409e328c92b3bd241ede94ff67c956ca022023fe8074a8ba30996d7e0c995fa7d18c3d34dc974d4b423671f419b49ad38b650169522103522c91680169bed886bd8a555aff9fcdde15e246c7e67e482c305cfd2023587c2102dafbb8ad0310dd1aa610c378fb9f2fe2e06694135e130626d569489a35889a2f2103e0a6932fbee724f2f60a3698323071692b24d2411b5a7d04965b9619107f27af53ae00000400483045022100d07f9d1361c2aa4774ff5344eb0f9e45d6f90fda4cd3f273faacd6196ac339c202203871e8ac9af1085434f409041d2639e945eb84a421394a98f21997512b5a595b01483045022100ef9fedc73fad303cbac5adbb322824b61d481dce985cfe5b243b16492994bd4f0220366c828a5228fdfa92ff6c8a3d5bda719c9f11b2808349aaefdfa6d75f1309010169522103f6b8e44915e428050d6b85550c532e5884c196d3b3a647c9d0e17e5541f097932103df77b0c326809e87acb8706c04e745fa35b3757b305dae8fe8ce4a2ce03554cc210311ff29a0ce5a6418289229685f4a160474fa14dcde92ccdf113deaf7a2d5220053ae00000000", "vin": [{"txinwitness": ["", "3045022100b418bfba8425b34efed3199b6b4b43d5eddf92585884ebccb7b757e24d204f490220473f4acd0ac9642a9c99ca30341e5a285091c6c2b9dcd7242065a7b8e6e70f6e01", "304502210097074e130beed59107831944535be24566412c604b537af9af68642e323fadc2022044698a41ec88be61e619eff789f719ded626380bb004102adfc8df9cf6bed77e01", "52210202a1cf33e444807dfb4cec0abf729a37c99fc37b538a27a5b82e2b76e5e2117721036078b352bccfd58f390468a6b810fb7bd613fd606a7773f6273cf997d4bef6db21027b32c7fc0a26f8dbcbfadb4b64bc31412e72084b22ab748ba423c453037b60ef53ae"], "sequence": 4294967295, "scriptSig": {"hex": "22002012a3073df87296df8ecf5664bd75d96ba775f3d78b5c8245a9a7190ca9c15a32", "asm": "002012a3073df87296df8ecf5664bd75d96ba775f3d78b5c8245a9a7190ca9c15a32"}, "vout": 1, "txid": "d5a74a5de16f1ecc29e5fd07939c0e326ccb2e15ce8a205650562943f277339d"}, {"sequence": 4294967295, "scriptSig": {"hex": "00473044022024effe8d29bd48dd4e0fcdcb8746ad0410cb8aa5d450345df1a1a1c0dad2ee87022014daf58453019aab27ea465dbbbece9cdb5bfaac807bf69dcc88a6b8d42fa92701483045022100e2c534eb9f802bda3a863a0adcb964c9a286481a9bc45941d9070b60ea5f612d022031c8c35a23afabc00f4fd0b9126ad919083b4d6eee48bd41326f1edef6e0dc45014c69522102178a586201d106bc596d799fcc4578e17ac737119388695ceb0cccbb659afde22102d9e208240e27964a71f1bf0e1e8d54bb2411597690631062191b4153d6681b8b2103249d3f6b38a30d90f6c290ac31781119dc29214d0f31f77087b49a60336c974453ae", "asm": "0 3044022024effe8d29bd48dd4e0fcdcb8746ad0410cb8aa5d450345df1a1a1c0dad2ee87022014daf58453019aab27ea465dbbbece9cdb5bfaac807bf69dcc88a6b8d42fa927[ALL] 3045022100e2c534eb9f802bda3a863a0adcb964c9a286481a9bc45941d9070b60ea5f612d022031c8c35a23afabc00f4fd0b9126ad919083b4d6eee48bd41326f1edef6e0dc45[ALL] 522102178a586201d106bc596d799fcc4578e17ac737119388695ceb0cccbb659afde22102d9e208240e27964a71f1bf0e1e8d54bb2411597690631062191b4153d6681b8b2103249d3f6b38a30d90f6c290ac31781119dc29214d0f31f77087b49a60336c974453ae"}, "vout": 31, "txid": "7b0dc42d7e1a5fbdbdc1c96ff1fc86729f6dd0f21221300950bcee850acbd64e"}, {"txinwitness": ["", "304402207baee4f33533355464f57fad52f3b1c839e670dfe09e908acf6ef0bc886b960f022026c04c514f7417b04c1d09250e903975cee7f6a7b6dc7f74cc4940aa89b3fdfe01", "30450221008addf26bea21302f6c14d3a01a8775bd90cea92c029ca54320b6bcb60c72373e0220089e3fe0cee7e8ffc2734c5a34ccc26d30c821cf73b6cd7149992e02b47957a901", "5221025f0d74a16324d0da16c79c342347ff96d505e67e6d29dd236888931c1064824c21034e92f2aa485c218592af55ac42ffcfd268f197cc545b7a364b4d9adb8a2a5acc2103c8ac858b7d46651f2bcf8679e6dbc4b8ab1a615b67d092f201a70dc4364efead53ae"], "sequence": 4294967295, "scriptSig": {"hex": "22002020462d13372e9c1bd435d32f376d29fd614a8134dd696d779f6dc822a7a1e418", "asm": "002020462d13372e9c1bd435d32f376d29fd614a8134dd696d779f6dc822a7a1e418"}, "vout": 1, "txid": "ab671e7bc3749b95ef2b6a34d1019439f26dc57c77678eab639da5fcf2756e44"}, {"txinwitness": ["", "30450221008d67d28772aa3ce2f80e8879a2970ca089af82daa8e1af3eac090ac5fe28c2b8022011628950aa42bf7081f6c1a29120f98bbc706def0eda42cd219957b3a2dfd94101", "3045022100ba28ae7f8456bd0c06216ee4c52c9d8539611182baadda552b2d71aaeaca4c9302205239bf66d6a64cd711cd9fe351fd588ad2bf1a8abb107e4626c66f3fe60cd27c01", "5221026764352f79a21b86e13d252cf3f2801e4a1f4204cbb5c961d08c9ca129c666a021038bcab9d9bd50692bdd97aabd8cbf24693af89dc7976b739105d01e3225396e6121034ffcef58ffb4487b7a07a10f7066bbfd5b7b476d1e32484d293dfecf2066146253ae"], "sequence": 4294967295, "scriptSig": {"hex": "22002056f1f9b78534833683447855ba818b63fd936592e724fd67e3aa3edaf4365e7a", "asm": "002056f1f9b78534833683447855ba818b63fd936592e724fd67e3aa3edaf4365e7a"}, "vout": 0, "txid": "e86201cd3eb2b20b88aad184d38a9ab9831f40ce843b68d4dd0ce720da67c948"}, {"sequence": 4294967295, "scriptSig": {"hex": "004830450221008d714d32370533cd711c94061ee673b0dda33d816aed93eefff060c018cfc4db022062d3ba1c32f74573d1f8e89c91877b94e83f5170221c5f90fab30bb0012a217401483045022100abdf2b475f428a167b4a1bd5b0d2c76e25f41999622e6e78eb85bbb9fbb1cc5102201b771e4503cacfe2a4bdb0916b90faeb426acdeba87ccd582327bb2c0c30996c014c6952210389f83188e206e02fde80031a3378013edb129ed6a745983e6e04e6b58e49f73f21022a481d62dbcd3ed7204b03038f172ace021f90bda992c9c432149938f10c37bd2102f5fcda4196b96a71e0d249d5fea4fe4d3724afb3fa81bc4d731e6eea394adaab53ae", "asm": "0 30450221008d714d32370533cd711c94061ee673b0dda33d816aed93eefff060c018cfc4db022062d3ba1c32f74573d1f8e89c91877b94e83f5170221c5f90fab30bb0012a2174[ALL] 3045022100abdf2b475f428a167b4a1bd5b0d2c76e25f41999622e6e78eb85bbb9fbb1cc5102201b771e4503cacfe2a4bdb0916b90faeb426acdeba87ccd582327bb2c0c30996c[ALL] 52210389f83188e206e02fde80031a3378013edb129ed6a745983e6e04e6b58e49f73f21022a481d62dbcd3ed7204b03038f172ace021f90bda992c9c432149938f10c37bd2102f5fcda4196b96a71e0d249d5fea4fe4d3724afb3fa81bc4d731e6eea394adaab53ae"}, "vout": 29, "txid": "9c306912edc2b1a387d7d0403e0a4868292eb43a7f43fd1a708d119cea95b5f0"}, {"txinwitness": ["", "30430220046e5b4164266fdb12d04d0c9c19800fbc3662ff085b80568214db5bfe4a714d021f4b8b887b8ff69d7ac74b607b5fec7bc394e072a6d52de528c452cebfd290b201", "3044022010f4db70280a05f82ea3324e728db8cc8212e50b5eb6b1116fc6eeecfbaf8cb502204aaeff223eba7684cdf5fbe7dbfc6be4c53454b6a21bdefc0fe6dcf7d31aa90201", "52210247e933bd782c3ee61c5e6d04be33a46bcbd2904f88983ee4d9f2963b654017ba210351909be78ce84245bcf53877f2225734086a4d44c6055490fc7138357a467200210392ae3ffd12385dbafb023714b4ff6703d4f4d3211d1c7792ba4c2158aefcd15153ae"], "sequence": 4294967295, "scriptSig": {"hex": "2200204d37cd23cf90caf838fe64af53007b59d45c5e753507a6f94108a13303db0457", "asm": "00204d37cd23cf90caf838fe64af53007b59d45c5e753507a6f94108a13303db0457"}, "vout": 0, "txid": "d371fc5df455b8b518b487747377335689f728a5627abc2cd71d6ff4a44ad56d"}, {"txinwitness": ["", "3045022100fd18d46c20c817207ab1a6c19b1045affd1cd5e34ed77695d40bb014b82e8e5a02206e481dba2036c89f58ab11eeb405a1d4c34d3c5f260f5e5fa61b377da349a6f101", "3045022100c54b03b351b3cbcf9b433fb3b9aeb18869f6e7aeb008fad349377f582952fefb02206e61f2029f5135af62333ab4f56619e313a8cb1cc2561fb9ccaae2aaab1d55af01", "5221020f1ca9db56f6ebb84337a6d7e7034b3ffd696aa4af90bea12cdcbe0dc6b640d32102f680c77069cba3d6e12f5e38351502c4df9f2af08955fee14bb1abd6dc5241e42103cb57d7851e772beffd199360abc88c70e1620fd9e3da7a7fc452e5cbfc62edc753ae"], "sequence": 4294967295, "scriptSig": {"hex": "220020684cd7e020803d175ba9ec37a7ecb3631f40b0cbe1481676502d1050fe2fb0a6", "asm": "0020684cd7e020803d175ba9ec37a7ecb3631f40b0cbe1481676502d1050fe2fb0a6"}, "vout": 1, "txid": "a314aa7fc68f6f7b1de6e35b0dce9b001456aadc7490eda52c05b6e9933ba0e8"}, {"txinwitness": ["", "3045022100d6ebed11acab169b5d6c3a42597641abc486a398a2363e5eab46c4e90bfb64200220496f65f5be1dfdf86a0cce424ef9082ecc40b59e10d0185657f9e5bfba59df7e01", "304402200866c31ac201d06fd2c124ed465c0797668a39d4cce253550af9dd9c34459aa7022049fb27ea7d4531e48b6192a327f3d51cfa37ac46fd75c40f30245181658bcb2101", "522103035df372aaf045a073ce97a04411eecaac770592c1bb686382ff07f774a846ae2102d312d7179d55e49025de7c3541c28d246bf9af3c3674d496bb3e3b2965edb9e221021edb0d51e04753ae7b3175a83198d361963046c0e7527c8b4eb9bad04959ea7253ae"], "sequence": 4294967295, "scriptSig": {"hex": "220020b5294e7c20fb3389c7830f8c445dcbd644a0a451e41d6dfa1eb67ad2cc622479", "asm": "0020b5294e7c20fb3389c7830f8c445dcbd644a0a451e41d6dfa1eb67ad2cc622479"}, "vout": 4, "txid": "24a29245566fe438a9560a438dcd1f9d036aa6e87d52d08fc3c3a38bd323fe49"}, {"txinwitness": ["", "3045022100c17aba2f9e405b295670311d88322dc4931bd78f3b0d7460f48ff1d0ff348ebf02206c3c0f8a6e31f1b3b0ee0157dc5cdba2ac234785b5de8b2ce60df03912a5af9c01", "3045022100d7688cb1a5cdfc4519d5be5e59e497025b06db01cf4b5d218913b9f6a61bc9fe02207e0b9529f5535da2538c74f5d283c5c643331b3ec5515aba9ee508fffdba4ca901", "522102d64db1f291bc0c479f88ffef0fd9e62c99a7a7327a5f8de46502cd12b65ce1e22103e2577de5d28083dcf131b3fd68f497f1b5e64f60a4d090b54955004a81f4714c210271eebe7ef6a54ee969f33dcc9c423e16ce06746925856108124f4c2817dd07b553ae"], "sequence": 4294967295, "scriptSig": {"hex": "2200202d53dfd6f56caca2ec69d1bac5b29d895346fe348ce1568faeadc25cdb741370", "asm": "00202d53dfd6f56caca2ec69d1bac5b29d895346fe348ce1568faeadc25cdb741370"}, "vout": 1, "txid": "351304a0ced6a4e39282171c4a0e7bdf58c059762e8cb238825c12f371fed77a"}, {"txinwitness": ["", "304402206158f5713327021a688836f926d59a16cf66dc331ee061e4432554132dbef5dd02201cf58e298635335b722045ddf4e2ebc4a64af827156cd3162903013ee29ca38e01", "304402201b2f0f9d6208dceb601c206ff0ab25a2409e328c92b3bd241ede94ff67c956ca022023fe8074a8ba30996d7e0c995fa7d18c3d34dc974d4b423671f419b49ad38b6501", "522103522c91680169bed886bd8a555aff9fcdde15e246c7e67e482c305cfd2023587c2102dafbb8ad0310dd1aa610c378fb9f2fe2e06694135e130626d569489a35889a2f2103e0a6932fbee724f2f60a3698323071692b24d2411b5a7d04965b9619107f27af53ae"], "sequence": 4294967295, "scriptSig": {"hex": "22002078cce47b4e41158e1325af6576947f3a4590a733916d5fc5618e035c62ac51a8", "asm": "002078cce47b4e41158e1325af6576947f3a4590a733916d5fc5618e035c62ac51a8"}, "vout": 21, "txid": "f23004a14dc1949d91519c3edd1df0fa6e9d42f1cab0403e985bbccc772c9c1d"}, {"sequence": 4294967295, "scriptSig": {"hex": "00473044022059df11ed554e8ef8d88ee02cb99908d18da6e75e80e9de7d9cc47b7f5771a793022068fa2ba1475cfff5bd3decbf22a62a1cfc54c4e85604524c83db4262e380f7b001483045022100e7d9dfef0528544c334db3fd321ec36b63a375a96bdbaac5a4e06049b27259ab02207895282e2184a405eedb2ede2776b18a331c30c687d75971c822ef5723d60c3c014c69522102742f5d089c2559e9c7effd08b8a338c264addd708b9b6e523dcd89c22b6bef5d21027de15cde54134b5c28c08dc0175dcf438638ad62ed28eca34210b8153cef52d52103ffe8551111e25139e6e419b637abd8d40a7bd153f15ce4bd5b445ab5a1d10a3553ae", "asm": "0 3044022059df11ed554e8ef8d88ee02cb99908d18da6e75e80e9de7d9cc47b7f5771a793022068fa2ba1475cfff5bd3decbf22a62a1cfc54c4e85604524c83db4262e380f7b0[ALL] 3045022100e7d9dfef0528544c334db3fd321ec36b63a375a96bdbaac5a4e06049b27259ab02207895282e2184a405eedb2ede2776b18a331c30c687d75971c822ef5723d60c3c[ALL] 522102742f5d089c2559e9c7effd08b8a338c264addd708b9b6e523dcd89c22b6bef5d21027de15cde54134b5c28c08dc0175dcf438638ad62ed28eca34210b8153cef52d52103ffe8551111e25139e6e419b637abd8d40a7bd153f15ce4bd5b445ab5a1d10a3553ae"}, "vout": 2, "txid": "8d2e00811c83826bf719c13bf128d554990227be1d32184c2e1461e55aac7d75"}, {"sequence": 4294967295, "scriptSig": {"hex": "0047304402203c0de36f11c787c13d3f9d757a6a95a129fec9ff622ccea0a533946003ec7b1702200ea091065d532e0b2c793d5dc84b0080994252b777cde88605b1eafdb7e756c9014730440220630331a36fb2e8def2e166bf5fab1d89fdb69aeaa72d38427e0f6bf546820e0902207cfd3e6942c24914e5afdb266aac7e18b8fc656f93abe41ac3d1f62306677269014c6952210368fe676313c74e2866fb2f439f6df16cef1cea86353525a1345234e9162149a3210207090494466afa4bbdff7219b221503ea316f1789f5c2b3181a5f74a867405c2210337fb879df249ef3d55060366d53bea4bb4676137b1f551727e51475e1cb6d36053ae", "asm": "0 304402203c0de36f11c787c13d3f9d757a6a95a129fec9ff622ccea0a533946003ec7b1702200ea091065d532e0b2c793d5dc84b0080994252b777cde88605b1eafdb7e756c9[ALL] 30440220630331a36fb2e8def2e166bf5fab1d89fdb69aeaa72d38427e0f6bf546820e0902207cfd3e6942c24914e5afdb266aac7e18b8fc656f93abe41ac3d1f62306677269[ALL] 52210368fe676313c74e2866fb2f439f6df16cef1cea86353525a1345234e9162149a3210207090494466afa4bbdff7219b221503ea316f1789f5c2b3181a5f74a867405c2210337fb879df249ef3d55060366d53bea4bb4676137b1f551727e51475e1cb6d36053ae"}, "vout": 182, "txid": "9c306912edc2b1a387d7d0403e0a4868292eb43a7f43fd1a708d119cea95b5f0"}, {"txinwitness": ["", "3045022100d07f9d1361c2aa4774ff5344eb0f9e45d6f90fda4cd3f273faacd6196ac339c202203871e8ac9af1085434f409041d2639e945eb84a421394a98f21997512b5a595b01", "3045022100ef9fedc73fad303cbac5adbb322824b61d481dce985cfe5b243b16492994bd4f0220366c828a5228fdfa92ff6c8a3d5bda719c9f11b2808349aaefdfa6d75f13090101", "522103f6b8e44915e428050d6b85550c532e5884c196d3b3a647c9d0e17e5541f097932103df77b0c326809e87acb8706c04e745fa35b3757b305dae8fe8ce4a2ce03554cc210311ff29a0ce5a6418289229685f4a160474fa14dcde92ccdf113deaf7a2d5220053ae"], "sequence": 4294967295, "scriptSig": {"hex": "220020a40afab1c181fc9b2741749be16731ab93ec0f881e53ae1487220083f9694544", "asm": "0020a40afab1c181fc9b2741749be16731ab93ec0f881e53ae1487220083f9694544"}, "vout": 3, "txid": "86b2765de686f79ea96f23aa9b54eec0354ef8f96bb6b555030ff7c4d9510d8e"}], "txid": "66653d938dcf6f83c6237f80a34248ad7c2c2eabb7ac88223744d294805c34b1", "blocktime": 1537872475, "version": 1, "confirmations": 11487, "time": 1537872475, "locktime": 0, "vsize": 3118, "size": 4831}