{"hash": "6667ce91bd3c68c5acdcb9cab98e3d99f304b8e9ed6ea6b401afbc4bcd90ad0e", "blockhash": "0000000000000000000baef3f32e3676a92c3b2e5da21b426e4f302fc371ce76", "vout": [{"scriptPubKey": {"type": "nulldata", "hex": "6a4c50000078050001b859c50e1ae598c8376d8452702940d64fa54d8eb2d19ed074892d00f8e8350128e2829c0a0b9e29ef9a620edb8c5baa1aad061386b3b85568331d100759d4ba30d2c37bb011d97e02cf", "asm": "OP_RETURN 000078050001b859c50e1ae598c8376d8452702940d64fa54d8eb2d19ed074892d00f8e8350128e2829c0a0b9e29ef9a620edb8c5baa1aad061386b3b85568331d100759d4ba30d2c37bb011d97e02cf"}, "value": 0.0, "n": 0}, {"scriptPubKey": {"reqSigs": 1, "hex": "76a914bb35d124dcbc6191bc015624579b16ce0e230abe88ac", "addresses": ["1J4sq9AkTUn2Td1mAiuvM2ktqN78EcDXLo"], "asm": "OP_DUP OP_HASH160 bb35d124dcbc6191bc015624579b16ce0e230abe OP_EQUALVERIFY OP_CHECKSIG", "type": "pubkeyhash"}, "value": 0.00638145, "n": 1}], "hex": "01000000011a6f04e919b76bfbfc4f1f433c26333a289bb242b1d0c7bc45051b1e830b6f26000000006b4830450221009acfc1aaeec6f7e2db2489dc387f35aecae97fa935f108b1a752d75f726de05d0220650dc41e96fb76fcb7784a10407629ed8cf3cc828ba95cda54fb5a031156b70d012103120d9b8da6b4a5c79f7b7c1d05aa92eb5d53d1af5fb9b89daa538719a7acf30dffffffff020000000000000000536a4c50000078050001b859c50e1ae598c8376d8452702940d64fa54d8eb2d19ed074892d00f8e8350128e2829c0a0b9e29ef9a620edb8c5baa1aad061386b3b85568331d100759d4ba30d2c37bb011d97e02cfc1bc0900000000001976a914bb35d124dcbc6191bc015624579b16ce0e230abe88ac00000000", "vin": [{"sequence": 4294967295, "scriptSig": {"hex": "4830450221009acfc1aaeec6f7e2db2489dc387f35aecae97fa935f108b1a752d75f726de05d0220650dc41e96fb76fcb7784a10407629ed8cf3cc828ba95cda54fb5a031156b70d012103120d9b8da6b4a5c79f7b7c1d05aa92eb5d53d1af5fb9b89daa538719a7acf30d", "asm": "30450221009acfc1aaeec6f7e2db2489dc387f35aecae97fa935f108b1a752d75f726de05d0220650dc41e96fb76fcb7784a10407629ed8cf3cc828ba95cda54fb5a031156b70d[ALL] 03120d9b8da6b4a5c79f7b7c1d05aa92eb5d53d1af5fb9b89daa538719a7acf30d"}, "vout": 0, "txid": "266f0b831e1b0545bcc7d0b142b29b283a33263c431f4ffcfb6bb719e9046f1a"}], "txid": "6667ce91bd3c68c5acdcb9cab98e3d99f304b8e9ed6ea6b401afbc4bcd90ad0e", "blocktime": 1537876114, "version": 1, "confirmations": 11460, "time": 1537876114, "locktime": 0, "vsize": 284, "size": 284}