{"hash": "d2479701e7c2385d5169a2bc3f9126ef482d3c254639f00e3dba8348590fb2bf", "blockhash": "0000000000000000001f76057863aec43deb6fa401d9628bb513d65a8098bfab", "vout": [{"scriptPubKey": {"reqSigs": 1, "hex": "a9145db271e46ec04f5eea3e2d28bab183898c3e135687", "addresses": ["3AESXxCEGMspcW5bLahyqNrPnsF4JTGVFi"], "asm": "OP_HASH160 5db271e46ec04f5eea3e2d28bab183898c3e1356 OP_EQUAL", "type": "scripthash"}, "value": 0.0052316, "n": 0}, {"scriptPubKey": {"reqSigs": 1, "hex": "a914425a42b93a420a05903a816deee2a6c382cac8bd87", "addresses": ["37jred8MrPaJkiGVBRkerpTYq87LgH4BEd"], "asm": "OP_HASH160 425a42b93a420a05903a816deee2a6c382cac8bd OP_EQUAL", "type": "scripthash"}, "value": 0.00289328, "n": 1}], "hex": "01000000000101809d4306e258dc26ea7724679c082ef3e68e5b30929ca52fcf3a7ab6cfc21a2f1700000023220020a708bfb7c7bbbbeadf3340beb77182d43a192cb7e6667dbefaf895e3339ea1c6ffffffff0298fb07000000000017a9145db271e46ec04f5eea3e2d28bab183898c3e135687306a04000000000017a914425a42b93a420a05903a816deee2a6c382cac8bd8704004730440220345232216264b5bd23d6fd43444ac246f5de21384756c172c1140fdda548f31b022073e257020f9aaa9a7f5fcdf575d57fba9d096b8c732a4c1a3a1f76cba82cb5a401483045022100c002bb86e0a8a68b04ec3ad439fc984a44f5cd37a6944ab3e14e7f2dbf4a1a2002203bd434f36514d82f4f534fcfcc429dad5d52da0470051ecfe95392336ab437f801475221029149f4b7a7fb02698b40b8c259b0cacc26d9c8dbec0785cc1bb475a30d709eaa21021ba7504f95428868171458363223dad7ab925c81ca917cb158e60901e81a582352ae00000000", "vin": [{"txinwitness": ["", "30440220345232216264b5bd23d6fd43444ac246f5de21384756c172c1140fdda548f31b022073e257020f9aaa9a7f5fcdf575d57fba9d096b8c732a4c1a3a1f76cba82cb5a401", "3045022100c002bb86e0a8a68b04ec3ad439fc984a44f5cd37a6944ab3e14e7f2dbf4a1a2002203bd434f36514d82f4f534fcfcc429dad5d52da0470051ecfe95392336ab437f801", "5221029149f4b7a7fb02698b40b8c259b0cacc26d9c8dbec0785cc1bb475a30d709eaa21021ba7504f95428868171458363223dad7ab925c81ca917cb158e60901e81a582352ae"], "sequence": 4294967295, "scriptSig": {"hex": "220020a708bfb7c7bbbbeadf3340beb77182d43a192cb7e6667dbefaf895e3339ea1c6", "asm": "0020a708bfb7c7bbbbeadf3340beb77182d43a192cb7e6667dbefaf895e3339ea1c6"}, "vout": 23, "txid": "2f1ac2cfb67a3acf2fa59c92305b8ee6f32e089c672477ea26dc58e206439d80"}], "txid": "6669e3ade997be50223ed18887c44aff2f2392f259e61be565ac52fb7dd0a051", "blocktime": 1537873891, "version": 1, "confirmations": 11478, "time": 1537873891, "locktime": 0, "vsize": 206, "size": 371}