{"hash": "666aaffc8398654d049fe69ef7d504c5a09b7a1e3a905fc08c8a00104be46013", "blockhash": "0000000000000000001e0dab787dd257d1dbfcb92a98c2207d5e1078be1f4165", "vout": [{"scriptPubKey": {"reqSigs": 1, "hex": "76a914dcb83237061e888e3b26b1db3a9bf5d66d0d0ec088ac", "addresses": ["1M84KNnsyNzvEmzmeNqnHSQMXptrUtNkqV"], "asm": "OP_DUP OP_HASH160 dcb83237061e888e3b26b1db3a9bf5d66d0d0ec0 OP_EQUALVERIFY OP_CHECKSIG", "type": "pubkeyhash"}, "value": 0.015, "n": 0}, {"scriptPubKey": {"reqSigs": 1, "hex": "76a9141e23c077516dd4af4e0cb1a138c88f6cacf88d5588ac", "addresses": ["13kN6qRokKpH6fn7sPWqPKyXQmtAkhgDyN"], "asm": "OP_DUP OP_HASH160 1e23c077516dd4af4e0cb1a138c88f6cacf88d55 OP_EQUALVERIFY OP_CHECKSIG", "type": "pubkeyhash"}, "value": 0.04155058, "n": 1}], "hex": "0100000001d639c7400bb9bdde81f3fb5f33012ef38cad3ef5e1bb3d9080e9d71a677d0958010000006a47304402201ae045a7b344a2586e634014bb7dcc0a3b1d6282f8740b44dce475427140d23802205ae2621319c67e8f4fa341110b8ad9ac6ee7347e5c2dbeb3b88c1f662aac57470121034c408b2b1c72e4ba44e364ce84d64dd18e2682f0adbb4ce8caac8e1305ee6ed6ffffffff0260e31600000000001976a914dcb83237061e888e3b26b1db3a9bf5d66d0d0ec088acb2663f00000000001976a9141e23c077516dd4af4e0cb1a138c88f6cacf88d5588ac00000000", "vin": [{"sequence": 4294967295, "scriptSig": {"hex": "47304402201ae045a7b344a2586e634014bb7dcc0a3b1d6282f8740b44dce475427140d23802205ae2621319c67e8f4fa341110b8ad9ac6ee7347e5c2dbeb3b88c1f662aac57470121034c408b2b1c72e4ba44e364ce84d64dd18e2682f0adbb4ce8caac8e1305ee6ed6", "asm": "304402201ae045a7b344a2586e634014bb7dcc0a3b1d6282f8740b44dce475427140d23802205ae2621319c67e8f4fa341110b8ad9ac6ee7347e5c2dbeb3b88c1f662aac5747[ALL] 034c408b2b1c72e4ba44e364ce84d64dd18e2682f0adbb4ce8caac8e1305ee6ed6"}, "vout": 1, "txid": "58097d671ad7e980903dbbe1f53ead8cf32e01335ffbf381debdb90b40c739d6"}], "txid": "666aaffc8398654d049fe69ef7d504c5a09b7a1e3a905fc08c8a00104be46013", "blocktime": 1537872475, "version": 1, "confirmations": 11487, "time": 1537872475, "locktime": 0, "vsize": 225, "size": 225}