{"hash": "6672712749067e10207ee2389e8563a0b2036bdd97964433784689446dc87bea", "blockhash": "0000000000000000000baef3f32e3676a92c3b2e5da21b426e4f302fc371ce76", "vout": [{"scriptPubKey": {"reqSigs": 1, "hex": "a914ac3a535d99d1ebcdf49903343892a4adc620792d87", "addresses": ["3HPg25LX4Zt7TaA1cwmY3pueC5ADmbF85E"], "asm": "OP_HASH160 ac3a535d99d1ebcdf49903343892a4adc620792d OP_EQUAL", "type": "scripthash"}, "value": 0.001568, "n": 0}, {"scriptPubKey": {"reqSigs": 1, "hex": "76a9145c54652337bc6c989e7ca85905be5387d8845af388ac", "addresses": ["19RCGXCBz15Vpv2iFVr3jXVP2b5pkTA4vd"], "asm": "OP_DUP OP_HASH160 5c54652337bc6c989e7ca85905be5387d8845af3 OP_EQUALVERIFY OP_CHECKSIG", "type": "pubkeyhash"}, "value": 0.22031682, "n": 1}], "hex": "0100000001c41c6a0bbe98900a240083dba829744b3ae382188fc3cd06a40dcdbf0ad423ae010000006a47304402202b8247127bb2ae21267f39a251c16344e5a9bf8cb61b76cdf070bdf23fcff37c02207acb6fa5f5a9d8a47ca3a2bc8b70f34c59f28010b270c2109843fb49c1cefd34012102f3f8df8d41a720f12a09529699a39a1b009cefc4aea64d7e113e24ebc88bb6dfffffffff02806402000000000017a914ac3a535d99d1ebcdf49903343892a4adc620792d87422d5001000000001976a9145c54652337bc6c989e7ca85905be5387d8845af388ac00000000", "vin": [{"sequence": 4294967295, "scriptSig": {"hex": "47304402202b8247127bb2ae21267f39a251c16344e5a9bf8cb61b76cdf070bdf23fcff37c02207acb6fa5f5a9d8a47ca3a2bc8b70f34c59f28010b270c2109843fb49c1cefd34012102f3f8df8d41a720f12a09529699a39a1b009cefc4aea64d7e113e24ebc88bb6df", "asm": "304402202b8247127bb2ae21267f39a251c16344e5a9bf8cb61b76cdf070bdf23fcff37c02207acb6fa5f5a9d8a47ca3a2bc8b70f34c59f28010b270c2109843fb49c1cefd34[ALL] 02f3f8df8d41a720f12a09529699a39a1b009cefc4aea64d7e113e24ebc88bb6df"}, "vout": 1, "txid": "ae23d40abfcd0da406cdc38f1882e33a4b7429a8db8300240a9098be0b6a1cc4"}], "txid": "6672712749067e10207ee2389e8563a0b2036bdd97964433784689446dc87bea", "blocktime": 1537876114, "version": 1, "confirmations": 11460, "time": 1537876114, "locktime": 0, "vsize": 223, "size": 223}