{"hash": "2c75c61190db2c741fa66a6f2908818c1b47e9eee9ab72e58d7a3f72b67dc636", "blockhash": "0000000000000000000e13cef7c366c0283d82e591d1acd082e914b08063cdf1", "vout": [{"scriptPubKey": {"reqSigs": 1, "hex": "a914ddc9c146d0e1f62e9e4bc9e4d0396f3f31a92c6d87", "addresses": ["3Muix7wfizMBkcw11Wa1LhUK2VfezCSBHp"], "asm": "OP_HASH160 ddc9c146d0e1f62e9e4bc9e4d0396f3f31a92c6d OP_EQUAL", "type": "scripthash"}, "value": 0.00650875, "n": 0}, {"scriptPubKey": {"reqSigs": 1, "hex": "001422606e24e22c8a7323922e0c3a26fc9f1049d735", "addresses": ["bc1qyfsxuf8z9j98xguj9cxr5fhunugyn4e4cjwypf"], "asm": "0 22606e24e22c8a7323922e0c3a26fc9f1049d735", "type": "witness_v0_keyhash"}, "value": 0.00206139, "n": 1}], "hex": "010000000001011d845553f8691e1c4c7f0f2fa967285d7b6d18aa8f0159b162076b31ed1809f00000000000ffffffff027bee09000000000017a914ddc9c146d0e1f62e9e4bc9e4d0396f3f31a92c6d873b2503000000000016001422606e24e22c8a7323922e0c3a26fc9f1049d7350247304402202598dbd31a3e3140058c61e922027dd0995eaf1460037ca65d9db640aebfa1fe022068838201d6d63de1d28f533d60825fcb3a25721bc958da7a55e31cfaf7134f610121032698154ccd41fc4ec253fa3a0f29fc7009afbd6eab44ef3d058eebb23cc50e5900000000", "vin": [{"txinwitness": ["304402202598dbd31a3e3140058c61e922027dd0995eaf1460037ca65d9db640aebfa1fe022068838201d6d63de1d28f533d60825fcb3a25721bc958da7a55e31cfaf7134f6101", "032698154ccd41fc4ec253fa3a0f29fc7009afbd6eab44ef3d058eebb23cc50e59"], "sequence": 4294967295, "scriptSig": {"hex": "", "asm": ""}, "vout": 0, "txid": "f00918ed316b0762b159018faa186d7b5d2867a92f0f7f4c1c1e69f85355841d"}], "txid": "667b21c4fb2df5e2027062356af8d7ce009360bd6c5de2d85bca84cfbb78b72b", "blocktime": 1537871767, "version": 1, "confirmations": 11495, "time": 1537871767, "locktime": 0, "vsize": 142, "size": 223}