{"hash": "647cc69bbac231a437529a074f81e183dcec9ccdb8e48abc122f0ce2686c3026", "blockhash": "0000000000000000000e13cef7c366c0283d82e591d1acd082e914b08063cdf1", "vout": [{"scriptPubKey": {"reqSigs": 1, "hex": "a914bdcd3378567441cae6b711b5eda666e01b400c9287", "addresses": ["3JzbTRFchMKjgpdETvKCvFDKncSY3vj36Y"], "asm": "OP_HASH160 bdcd3378567441cae6b711b5eda666e01b400c92 OP_EQUAL", "type": "scripthash"}, "value": 0.01, "n": 0}, {"scriptPubKey": {"reqSigs": 1, "hex": "76a914f0322a7efd333b0785cb13035159addf0a4f95b188ac", "addresses": ["1Nu3Gdn7k3zpwNd1eRTvYNYWP4samMNCtv"], "asm": "OP_DUP OP_HASH160 f0322a7efd333b0785cb13035159addf0a4f95b1 OP_EQUALVERIFY OP_CHECKSIG", "type": "pubkeyhash"}, "value": 0.0003, "n": 1}, {"scriptPubKey": {"reqSigs": 1, "hex": "a914d103e86d990a3349d1cc1b6f8ec8e515c26cc3e587", "addresses": ["3LkBqASKS3L3BYdaEuMZdKPaf3yLjjUFnS"], "asm": "OP_HASH160 d103e86d990a3349d1cc1b6f8ec8e515c26cc3e5 OP_EQUAL", "type": "scripthash"}, "value": 0.001798, "n": 2}, {"scriptPubKey": {"reqSigs": 1, "hex": "a914427933bb2f227b1c2a6896910c53ee837a2fbcd687", "addresses": ["37kViUMHYCi4nVg2iFK3XgUSpDwzMAMUoW"], "asm": "OP_HASH160 427933bb2f227b1c2a6896910c53ee837a2fbcd6 OP_EQUAL", "type": "scripthash"}, "value": 0.00159331, "n": 3}, {"scriptPubKey": {"reqSigs": 1, "hex": "a914050e9b73041b548fc5c0102c08177fb3285ad59b87", "addresses": ["329koRvovTyNnd4ADrpR2uJHzXxfvKxta5"], "asm": "OP_HASH160 050e9b73041b548fc5c0102c08177fb3285ad59b OP_EQUAL", "type": "scripthash"}, "value": 48.22523224, "n": 4}], "hex": "0200000000010162b0bde2744491caf624554c7e4651e6be4b00e66eed51cbcdc54acfaad3dc7e0f0000001716001437de5da24ea7c8a3122ff93038f95492bd3834e5feffffff0540420f000000000017a914bdcd3378567441cae6b711b5eda666e01b400c928730750000000000001976a914f0322a7efd333b0785cb13035159addf0a4f95b188ac58be02000000000017a914d103e86d990a3349d1cc1b6f8ec8e515c26cc3e587636e02000000000017a914427933bb2f227b1c2a6896910c53ee837a2fbcd68758dd711f0100000017a914050e9b73041b548fc5c0102c08177fb3285ad59b870247304402207bae3831bbbe8953775ffcb762fec12f91cd8ff975ea4faa452c3346f2d2233602204f70fcde0f2fafb7b7e85faa2c5ce6a6bef44c03f98dab688c4a7259346cbb1c0121036f4dd476664e417eab722cf99a991c471d38a6a7562275be1bc2dc9a606b468dae480800", "vin": [{"txinwitness": ["304402207bae3831bbbe8953775ffcb762fec12f91cd8ff975ea4faa452c3346f2d2233602204f70fcde0f2fafb7b7e85faa2c5ce6a6bef44c03f98dab688c4a7259346cbb1c01", "036f4dd476664e417eab722cf99a991c471d38a6a7562275be1bc2dc9a606b468d"], "sequence": 4294967294, "scriptSig": {"hex": "16001437de5da24ea7c8a3122ff93038f95492bd3834e5", "asm": "001437de5da24ea7c8a3122ff93038f95492bd3834e5"}, "vout": 15, "txid": "7edcd3aacf4ac5cdcb51ed6ee6004bbee651467e4c5524f6ca914474e2bdb062"}], "txid": "668726d68afa5a4dd9dfb4cbd615e14a797c0f5a88f665875cff4fb16cf6b0a6", "blocktime": 1537871767, "version": 2, "confirmations": 11494, "time": 1537871767, "locktime": 542894, "vsize": 264, "size": 345}