{"hash": "9fe779ea3cbb24d7d7c10af91e7e6d69b4136ce816dd681a6ec24634dcf4f06f", "blockhash": "00000000000000000024a2167bbff67b0be802c0b01cdd79e6331c2be6459f87", "vout": [{"scriptPubKey": {"reqSigs": 1, "hex": "a914a2c4dc93f63f045edc4af69b2e0e9dc4ff1f78a387", "addresses": ["3GXfDoihwkRJ4rPrEojkzkmXcnfv3Vk5tS"], "asm": "OP_HASH160 a2c4dc93f63f045edc4af69b2e0e9dc4ff1f78a3 OP_EQUAL", "type": "scripthash"}, "value": 0.00989655, "n": 0}, {"scriptPubKey": {"reqSigs": 1, "hex": "a914092b8c8d2df6f32fad4c16b14b1602569350188e87", "addresses": ["32XWB7Khpf2MuUaykhsZf69ST4Q2JmHMZE"], "asm": "OP_HASH160 092b8c8d2df6f32fad4c16b14b1602569350188e OP_EQUAL", "type": "scripthash"}, "value": 0.07622531, "n": 1}], "hex": "0200000000010612233cfbc692a975d6763fa6205aa3de208c530e4a4b6893f00b03059596129d010000001716001473d45dece0a1e6156effbfede0fa6381433bab44feffffff13f9035e4274997246044b44616bbd5f888b7e8c1b00e067a77a1a317afba7e10200000017160014c9734c900715c3bf9db4cf30bd7c4020efdf7572feffffff177adcc2b8670dbff65e3ac49c7d95bb56fbea4e599ddc7ee6f584ad5dd094660000000017160014c09a8ca0cdbd5746da02d63b28c3d8e25cc64bb8feffffff971223ecc118915f2ac7e0e9116f4ed7f0430ab4afe4072ec747347c3912ac230000000017160014fc1a5f520153bb1cf1cce2bc392c43024627dec9fefffffff5bed876f924adc5d3a0b686b1e8e850aac70b2f7ac5b99c0d3b8cb7a28f0ea20000000017160014c27c9bf6a9700de4d1bcfad0a20e7dc992d6e09afeffffffff421390820c00b4b6d6299ef58842e87eeef8c3a00bdf5ce8594d9b702a9c290000000017160014c54de798f4f0bc9eff598fceef249c74b9ea7e32feffffff02d7190f000000000017a914a2c4dc93f63f045edc4af69b2e0e9dc4ff1f78a387834f74000000000017a914092b8c8d2df6f32fad4c16b14b1602569350188e870247304402205f43f5565ec609b03e924fb5bccff532218a44acf2cd10ce437537e071cefa550220093a3d3d4b56ba91c200c32716b443b68387e5deb07bd8ad513f03a104f9b1aa01210322a12d22317c3579451534ec929fcf450daa9b4e4e9ca1cc5cc473b4ad9a9f320247304402203b92ab8bf8eedfa6498e527f8f0e69415bf82ec9d4f34600bc72d64fd8220d7a0220212c23461404590f50c4544151ced142bc18f0e31653b6a6a72eec9f19ca12dc012102e817c6d18227249549a33f972b1858a2676e94b73888395560bcfbe88551fed502483045022100bd38884de006fa517367af2fa97ec3687fc0056c6236e8f4e25eebd83a544b9f022037043f81a93ac6b1c21711c6b8ccfa05b2e75618f4aba64fb9feaabc6fcf8cd2012103ebd5a389185bb2abf20ed869810d8826777884cbabaf80f3f02e9de83f4ffe2202483045022100f85b266c7c7605be7a785b3b27586ea968b1719a734f783de69ea9c1ef6f11fb02202dd0f7ff4abbbaa82d00b619d041ef949479a747cb22fa28e0129cff15324a2b0121032b5a38f10f08984e21fe8c14543f139872c496925cc2e8bf7cefb5736dddebfb024730440220675d81252507df5c61c007c330f367600b73230cd0bbe2c8b84ff3b586a8d59002203b814801498933406fa733edcb2e52438dbe0f401ed807087a43db140eb3938401210321172fea65134a0f5795d1940b1d93a123b6e9e8250fa7ed43661182811195fd02483045022100a979869d5ebdd367904aeeb6c5ab40e0195224aefef7c044a76b5afb1dca130d02205bd655e9a3e83a0e510f4e1d0bc2c69b29d73800018fb8967c90da6db7a2af41012102c87b69815bffdb2496c6d333b60f5b9ed4c7684154804856c6d7a95cdfb4063b0d490800", "vin": [{"txinwitness": ["304402205f43f5565ec609b03e924fb5bccff532218a44acf2cd10ce437537e071cefa550220093a3d3d4b56ba91c200c32716b443b68387e5deb07bd8ad513f03a104f9b1aa01", "0322a12d22317c3579451534ec929fcf450daa9b4e4e9ca1cc5cc473b4ad9a9f32"], "sequence": 4294967294, "scriptSig": {"hex": "16001473d45dece0a1e6156effbfede0fa6381433bab44", "asm": "001473d45dece0a1e6156effbfede0fa6381433bab44"}, "vout": 1, "txid": "9d12969505030bf093684b4a0e538c20dea35a20a63f76d675a992c6fb3c2312"}, {"txinwitness": ["304402203b92ab8bf8eedfa6498e527f8f0e69415bf82ec9d4f34600bc72d64fd8220d7a0220212c23461404590f50c4544151ced142bc18f0e31653b6a6a72eec9f19ca12dc01", "02e817c6d18227249549a33f972b1858a2676e94b73888395560bcfbe88551fed5"], "sequence": 4294967294, "scriptSig": {"hex": "160014c9734c900715c3bf9db4cf30bd7c4020efdf7572", "asm": "0014c9734c900715c3bf9db4cf30bd7c4020efdf7572"}, "vout": 2, "txid": "e1a7fb7a311a7aa767e0001b8c7e8b885fbd6b61444b0446729974425e03f913"}, {"txinwitness": ["3045022100bd38884de006fa517367af2fa97ec3687fc0056c6236e8f4e25eebd83a544b9f022037043f81a93ac6b1c21711c6b8ccfa05b2e75618f4aba64fb9feaabc6fcf8cd201", "03ebd5a389185bb2abf20ed869810d8826777884cbabaf80f3f02e9de83f4ffe22"], "sequence": 4294967294, "scriptSig": {"hex": "160014c09a8ca0cdbd5746da02d63b28c3d8e25cc64bb8", "asm": "0014c09a8ca0cdbd5746da02d63b28c3d8e25cc64bb8"}, "vout": 0, "txid": "6694d05dad84f5e67edc9d594eeafb56bb957d9cc43a5ef6bf0d67b8c2dc7a17"}, {"txinwitness": ["3045022100f85b266c7c7605be7a785b3b27586ea968b1719a734f783de69ea9c1ef6f11fb02202dd0f7ff4abbbaa82d00b619d041ef949479a747cb22fa28e0129cff15324a2b01", "032b5a38f10f08984e21fe8c14543f139872c496925cc2e8bf7cefb5736dddebfb"], "sequence": 4294967294, "scriptSig": {"hex": "160014fc1a5f520153bb1cf1cce2bc392c43024627dec9", "asm": "0014fc1a5f520153bb1cf1cce2bc392c43024627dec9"}, "vout": 0, "txid": "23ac12397c3447c72e07e4afb40a43f0d74e6f11e9e0c72a5f9118c1ec231297"}, {"txinwitness": ["30440220675d81252507df5c61c007c330f367600b73230cd0bbe2c8b84ff3b586a8d59002203b814801498933406fa733edcb2e52438dbe0f401ed807087a43db140eb3938401", "0321172fea65134a0f5795d1940b1d93a123b6e9e8250fa7ed43661182811195fd"], "sequence": 4294967294, "scriptSig": {"hex": "160014c27c9bf6a9700de4d1bcfad0a20e7dc992d6e09a", "asm": "0014c27c9bf6a9700de4d1bcfad0a20e7dc992d6e09a"}, "vout": 0, "txid": "a20e8fa2b78c3b0d9cb9c57a2f0bc7aa50e8e8b186b6a0d3c5ad24f976d8bef5"}, {"txinwitness": ["3045022100a979869d5ebdd367904aeeb6c5ab40e0195224aefef7c044a76b5afb1dca130d02205bd655e9a3e83a0e510f4e1d0bc2c69b29d73800018fb8967c90da6db7a2af4101", "02c87b69815bffdb2496c6d333b60f5b9ed4c7684154804856c6d7a95cdfb4063b"], "sequence": 4294967294, "scriptSig": {"hex": "160014c54de798f4f0bc9eff598fceef249c74b9ea7e32", "asm": "0014c54de798f4f0bc9eff598fceef249c74b9ea7e32"}, "vout": 0, "txid": "299c2a709b4d59e85cdf0ba0c3f8ee7ee84288f59e29d6b6b4000c82901342ff"}], "txid": "668af7200495b35c128a2533deed2e9945d59534b6ee775a1539d397411b3d4c", "blocktime": 1537870564, "version": 2, "confirmations": 11515, "time": 1537870564, "locktime": 542989, "vsize": 620, "size": 1105}