{"hash": "668bd4393b27fe5d152033ac2f4f475baa3abf69440d7c2feedd138b1e835c77", "blockhash": "0000000000000000001e0dab787dd257d1dbfcb92a98c2207d5e1078be1f4165", "vout": [{"scriptPubKey": {"reqSigs": 1, "hex": "a91465f1df72ff61efaf1b48476528b5c7c715aeac3387", "addresses": ["3Az3vYCeHqix48M6xuN4JzxN32RMLyjTVJ"], "asm": "OP_HASH160 65f1df72ff61efaf1b48476528b5c7c715aeac33 OP_EQUAL", "type": "scripthash"}, "value": 0.00777774, "n": 0}, {"scriptPubKey": {"reqSigs": 1, "hex": "76a914306d2a62c08c1532af36fae2e83aad4ff224b0ef88ac", "addresses": ["15R4DAYgg66ynDBhHaDivVEyTKYHtDqokU"], "asm": "OP_DUP OP_HASH160 306d2a62c08c1532af36fae2e83aad4ff224b0ef OP_EQUALVERIFY OP_CHECKSIG", "type": "pubkeyhash"}, "value": 0.2234879, "n": 1}], "hex": "01000000011ad5c0ec68991524705fc7d33e2b645cd16819d87434a51fb616d66a3f96d19f010000006a47304402203fbce7da9300c62abcde49b14821bafbf76e471e15e33d437a7b072ceee890b50220634f9fd2bd2a98671085e3c6f01d7bde2aefad1afe7a260b4b18b0ac0b60e54a0121034fb03f669c3fc7bbefd4734d7b265e8cded0f451f8d4244f3cb4ae9c4383c1a7ffffffff022ede0b000000000017a91465f1df72ff61efaf1b48476528b5c7c715aeac3387f6035501000000001976a914306d2a62c08c1532af36fae2e83aad4ff224b0ef88ac00000000", "vin": [{"sequence": 4294967295, "scriptSig": {"hex": "47304402203fbce7da9300c62abcde49b14821bafbf76e471e15e33d437a7b072ceee890b50220634f9fd2bd2a98671085e3c6f01d7bde2aefad1afe7a260b4b18b0ac0b60e54a0121034fb03f669c3fc7bbefd4734d7b265e8cded0f451f8d4244f3cb4ae9c4383c1a7", "asm": "304402203fbce7da9300c62abcde49b14821bafbf76e471e15e33d437a7b072ceee890b50220634f9fd2bd2a98671085e3c6f01d7bde2aefad1afe7a260b4b18b0ac0b60e54a[ALL] 034fb03f669c3fc7bbefd4734d7b265e8cded0f451f8d4244f3cb4ae9c4383c1a7"}, "vout": 1, "txid": "9fd1963f6ad616b61fa53474d81968d15c642b3ed3c75f7024159968ecc0d51a"}], "txid": "668bd4393b27fe5d152033ac2f4f475baa3abf69440d7c2feedd138b1e835c77", "blocktime": 1537872475, "version": 1, "confirmations": 11487, "time": 1537872475, "locktime": 0, "vsize": 223, "size": 223}