{"hash": "669461e9177b5a06c64f35301ccf7419afc8182c82473a9de5a9eab14e49bb09", "blockhash": "0000000000000000000baef3f32e3676a92c3b2e5da21b426e4f302fc371ce76", "vout": [{"scriptPubKey": {"reqSigs": 1, "hex": "76a914e5a9fa01b956eb984405dcd313fb28f210b7357c88ac", "addresses": ["1MwMN7MhoXPrC49Q36kryUjc4FsyfSH3Cu"], "asm": "OP_DUP OP_HASH160 e5a9fa01b956eb984405dcd313fb28f210b7357c OP_EQUALVERIFY OP_CHECKSIG", "type": "pubkeyhash"}, "value": 0.027384, "n": 0}, {"scriptPubKey": {"reqSigs": 1, "hex": "76a9140aa547225882d33415c0755a1ded7a387241e16888ac", "addresses": ["1yHkdJUPoXNq5wc3cPwjc1Qsb5vBwBc8e"], "asm": "OP_DUP OP_HASH160 0aa547225882d33415c0755a1ded7a387241e168 OP_EQUALVERIFY OP_CHECKSIG", "type": "pubkeyhash"}, "value": 1.268157, "n": 1}], "hex": "010000000330a4b0ba6cf717d5e1e44e2b44b2e90c749d21fd96fccfb122a92fb98959c5b8030000006a47304402205f8ab2c4dcf11ce4b4b6373d8616f208329bc26fc645a73cee7030796c64d5a90220345ccdde3fb7d98e5b1ad64380a1aa8696e17404ba92c9a82db91abbc782c8920121033f5d72e4da82bbc74e92ea97376649b4fcc051e10352212be3d0e26eee29be3bffffffff595f2719cf550d6ff2fe93d49736dc06447b673c67c8c378d4dc65fbf37eaadb000000006b483045022100aa7ee9eb7b11623226b9ee43f3a3742e77ba16c771f45017b750b995505d056302207ae357395a9e65bfe1496c1df95ddaa987bdc6cd8952b608360f3770da27c96f0121035e234fc09893736525400b73b91afb277881aebbf2d0626889e35322e81af7d9ffffffff1a242c276ff989870dd00dd47f5e6485d1701d5cdc6aac3a836b30476c2a9a55000000006a473044022004882093ed71db5a17147c6f91b4195fe6c2c7f872cb88fd1d323392fcab7f130220615df995fd8eb417f4fe41706ec6be7f4cbf4a9d53ef1d42479a951cac42c372012102a6b461d548cbc25156bf34e4f08f50672fff1e5886388f759996d86ce3f20815ffffffff02e0c82900000000001976a914e5a9fa01b956eb984405dcd313fb28f210b7357c88acd40d8f07000000001976a9140aa547225882d33415c0755a1ded7a387241e16888ac00000000", "vin": [{"sequence": 4294967295, "scriptSig": {"hex": "47304402205f8ab2c4dcf11ce4b4b6373d8616f208329bc26fc645a73cee7030796c64d5a90220345ccdde3fb7d98e5b1ad64380a1aa8696e17404ba92c9a82db91abbc782c8920121033f5d72e4da82bbc74e92ea97376649b4fcc051e10352212be3d0e26eee29be3b", "asm": "304402205f8ab2c4dcf11ce4b4b6373d8616f208329bc26fc645a73cee7030796c64d5a90220345ccdde3fb7d98e5b1ad64380a1aa8696e17404ba92c9a82db91abbc782c892[ALL] 033f5d72e4da82bbc74e92ea97376649b4fcc051e10352212be3d0e26eee29be3b"}, "vout": 3, "txid": "b8c55989b92fa922b1cffc96fd219d740ce9b2442b4ee4e1d517f76cbab0a430"}, {"sequence": 4294967295, "scriptSig": {"hex": "483045022100aa7ee9eb7b11623226b9ee43f3a3742e77ba16c771f45017b750b995505d056302207ae357395a9e65bfe1496c1df95ddaa987bdc6cd8952b608360f3770da27c96f0121035e234fc09893736525400b73b91afb277881aebbf2d0626889e35322e81af7d9", "asm": "3045022100aa7ee9eb7b11623226b9ee43f3a3742e77ba16c771f45017b750b995505d056302207ae357395a9e65bfe1496c1df95ddaa987bdc6cd8952b608360f3770da27c96f[ALL] 035e234fc09893736525400b73b91afb277881aebbf2d0626889e35322e81af7d9"}, "vout": 0, "txid": "dbaa7ef3fb65dcd478c3c8673c677b4406dc3697d493fef26f0d55cf19275f59"}, {"sequence": 4294967295, "scriptSig": {"hex": "473044022004882093ed71db5a17147c6f91b4195fe6c2c7f872cb88fd1d323392fcab7f130220615df995fd8eb417f4fe41706ec6be7f4cbf4a9d53ef1d42479a951cac42c372012102a6b461d548cbc25156bf34e4f08f50672fff1e5886388f759996d86ce3f20815", "asm": "3044022004882093ed71db5a17147c6f91b4195fe6c2c7f872cb88fd1d323392fcab7f130220615df995fd8eb417f4fe41706ec6be7f4cbf4a9d53ef1d42479a951cac42c372[ALL] 02a6b461d548cbc25156bf34e4f08f50672fff1e5886388f759996d86ce3f20815"}, "vout": 0, "txid": "559a2a6c47306b833aac6adc5c1d70d185645e7fd40dd00d8789f96f272c241a"}], "txid": "669461e9177b5a06c64f35301ccf7419afc8182c82473a9de5a9eab14e49bb09", "blocktime": 1537876114, "version": 1, "confirmations": 11460, "time": 1537876114, "locktime": 0, "vsize": 520, "size": 520}