{"hash": "669786a51d7e9cf9952ca0c2e6ddf48b88ce970df31955e34d68e5c2437dee44", "blockhash": "0000000000000000000baef3f32e3676a92c3b2e5da21b426e4f302fc371ce76", "vout": [{"scriptPubKey": {"type": "nulldata", "hex": "6a4c50000078280001b7d718a1ed20d6560cda168f019d6ddc0f1b8ff117702940d64fa54d8eb2d5d1a0011579c7157c8eb53bf24801745baa1e860613b965dcc703ad0117e706f8a4c9d02528a348b20ac714", "asm": "OP_RETURN 000078280001b7d718a1ed20d6560cda168f019d6ddc0f1b8ff117702940d64fa54d8eb2d5d1a0011579c7157c8eb53bf24801745baa1e860613b965dcc703ad0117e706f8a4c9d02528a348b20ac714"}, "value": 0.0, "n": 0}, {"scriptPubKey": {"reqSigs": 1, "hex": "76a914f5f74295d0067934262bab83075a8b8af5c6c70288ac", "addresses": ["1PRYkw1pYrrCfy9GEG8c1LXWhKx3qGzoyJ"], "asm": "OP_DUP OP_HASH160 f5f74295d0067934262bab83075a8b8af5c6c702 OP_EQUALVERIFY OP_CHECKSIG", "type": "pubkeyhash"}, "value": 4.525e-05, "n": 1}], "hex": "01000000018f2fc3e08285fe61a733756f3f411d2b5e8bf5053f5fb68c604376899e82c7a4000000006a4730440220347b53cafbbbfe0ed132257e78051484015463e821d661a229c873f64e9ed747022034b93ce5574c4985c3896d180adf50d068c1ca44a2b6b8d1595f2d8835524a5f012103298b46a8bbdc7c48b0c0d0a93b4b1938a165d57c68ac55f8bfb5eabfb3520bc8ffffffff020000000000000000536a4c50000078280001b7d718a1ed20d6560cda168f019d6ddc0f1b8ff117702940d64fa54d8eb2d5d1a0011579c7157c8eb53bf24801745baa1e860613b965dcc703ad0117e706f8a4c9d02528a348b20ac714ad110000000000001976a914f5f74295d0067934262bab83075a8b8af5c6c70288ac00000000", "vin": [{"sequence": 4294967295, "scriptSig": {"hex": "4730440220347b53cafbbbfe0ed132257e78051484015463e821d661a229c873f64e9ed747022034b93ce5574c4985c3896d180adf50d068c1ca44a2b6b8d1595f2d8835524a5f012103298b46a8bbdc7c48b0c0d0a93b4b1938a165d57c68ac55f8bfb5eabfb3520bc8", "asm": "30440220347b53cafbbbfe0ed132257e78051484015463e821d661a229c873f64e9ed747022034b93ce5574c4985c3896d180adf50d068c1ca44a2b6b8d1595f2d8835524a5f[ALL] 03298b46a8bbdc7c48b0c0d0a93b4b1938a165d57c68ac55f8bfb5eabfb3520bc8"}, "vout": 0, "txid": "a4c7829e897643608cb65f3f05f58b5e2b1d413f6f7533a761fe8582e0c32f8f"}], "txid": "669786a51d7e9cf9952ca0c2e6ddf48b88ce970df31955e34d68e5c2437dee44", "blocktime": 1537876114, "version": 1, "confirmations": 11460, "time": 1537876114, "locktime": 0, "vsize": 283, "size": 283}