{"hash": "66970b155be1475453daf3d8062bb12af5978b200b39faff72247939927dab67", "blockhash": "0000000000000000001cda96e906b7601b7a6fb1a3b62bca570a9e5d8f4b3de1", "vout": [{"scriptPubKey": {"reqSigs": 1, "hex": "76a914bce65666b5837b0e59fb0883642a3ebfff670bf488ac", "addresses": ["1JDoyCHMkgR7vb8DYpF67cRE4XE6xJtcu9"], "asm": "OP_DUP OP_HASH160 bce65666b5837b0e59fb0883642a3ebfff670bf4 OP_EQUALVERIFY OP_CHECKSIG", "type": "pubkeyhash"}, "value": 0.01336925, "n": 0}], "hex": "0100000001b1846a8d36b66e11ea4618645993f35716945350b3dda73b4bd683e2f558ce73010000006b483045022100cff2afb85ed267f87ccebface755d26216699f011ce7e364fe1b6647f3612ec702202cc308310e471927c056508c24d05f8e4eab6b3ee63863facb54251400d7314e012103a9ec8b5051a3deca8a68d5e419ed5808ca318710f07c17024ecdf4169f5038e8ffffffff015d661400000000001976a914bce65666b5837b0e59fb0883642a3ebfff670bf488ac00000000", "vin": [{"sequence": 4294967295, "scriptSig": {"hex": "483045022100cff2afb85ed267f87ccebface755d26216699f011ce7e364fe1b6647f3612ec702202cc308310e471927c056508c24d05f8e4eab6b3ee63863facb54251400d7314e012103a9ec8b5051a3deca8a68d5e419ed5808ca318710f07c17024ecdf4169f5038e8", "asm": "3045022100cff2afb85ed267f87ccebface755d26216699f011ce7e364fe1b6647f3612ec702202cc308310e471927c056508c24d05f8e4eab6b3ee63863facb54251400d7314e[ALL] 03a9ec8b5051a3deca8a68d5e419ed5808ca318710f07c17024ecdf4169f5038e8"}, "vout": 1, "txid": "73ce58f5e283d64b3ba7ddb35053941657f39359641846ea116eb6368d6a84b1"}], "txid": "66970b155be1475453daf3d8062bb12af5978b200b39faff72247939927dab67", "blocktime": 1537873282, "version": 1, "confirmations": 11484, "time": 1537873282, "locktime": 0, "vsize": 192, "size": 192}