{"hash": "669992170ce18eef329317194abd9179798e124830a6470772d0ce6e54109ad7", "blockhash": "00000000000000000018f53835495a110e01622372bf6ae95dc86f2b0ab887b0", "vout": [{"scriptPubKey": {"reqSigs": 1, "hex": "76a914b89d431c250c4f7b8dc93279899d70ae17b1c9a588ac", "addresses": ["1Hq9j4cxdLb1mfMtaahDV31yXoST27jQJu"], "asm": "OP_DUP OP_HASH160 b89d431c250c4f7b8dc93279899d70ae17b1c9a5 OP_EQUALVERIFY OP_CHECKSIG", "type": "pubkeyhash"}, "value": 0.01008474, "n": 0}, {"scriptPubKey": {"reqSigs": 1, "hex": "76a91424237b582d6725929a7cc7e02260d44b3d9f003088ac", "addresses": ["14J5qE5oySQLEKPkJVua3RAupXm6zaAkgJ"], "asm": "OP_DUP OP_HASH160 24237b582d6725929a7cc7e02260d44b3d9f0030 OP_EQUALVERIFY OP_CHECKSIG", "type": "pubkeyhash"}, "value": 0.01166244, "n": 1}], "hex": "010000000210990821a38726e909552a6c7e59454804a421588227f790e4abe70b7f3c8b24000000006b483045022100bf2af876892e7340647541d582b5044572296b1fd72b92ab3932f76188142c6302206fa6c7b3ed3635d064f7303bbcbfde1706f812c9060ee7568bae0e1127e076ce01210370dab7d581721ef7f772d84c7561696aa4f5aea2e6bdc5303bff963c2b74ff1ffffffffffda734897ec9a3449edfb0d609cdaee00272cd3ecbda5d85cde3e9b9f0ad5195000000006a47304402207a3850001a45347bd7f10cd8074d32f3bfdcee3337a31ce7e52540b92765971502204f983abcc3f7495584419289cfb699b7ae6b4facc3450bdde5597e3a0e5bcd0e012102a902b94362b8ee7be33043fae1cc1e1363896a76a34d326cd18232d2b9d5b443ffffffff025a630f00000000001976a914b89d431c250c4f7b8dc93279899d70ae17b1c9a588aca4cb1100000000001976a91424237b582d6725929a7cc7e02260d44b3d9f003088ac00000000", "vin": [{"sequence": 4294967295, "scriptSig": {"hex": "483045022100bf2af876892e7340647541d582b5044572296b1fd72b92ab3932f76188142c6302206fa6c7b3ed3635d064f7303bbcbfde1706f812c9060ee7568bae0e1127e076ce01210370dab7d581721ef7f772d84c7561696aa4f5aea2e6bdc5303bff963c2b74ff1f", "asm": "3045022100bf2af876892e7340647541d582b5044572296b1fd72b92ab3932f76188142c6302206fa6c7b3ed3635d064f7303bbcbfde1706f812c9060ee7568bae0e1127e076ce[ALL] 0370dab7d581721ef7f772d84c7561696aa4f5aea2e6bdc5303bff963c2b74ff1f"}, "vout": 0, "txid": "248b3c7f0be7abe490f727825821a4044845597e6c2a5509e92687a321089910"}, {"sequence": 4294967295, "scriptSig": {"hex": "47304402207a3850001a45347bd7f10cd8074d32f3bfdcee3337a31ce7e52540b92765971502204f983abcc3f7495584419289cfb699b7ae6b4facc3450bdde5597e3a0e5bcd0e012102a902b94362b8ee7be33043fae1cc1e1363896a76a34d326cd18232d2b9d5b443", "asm": "304402207a3850001a45347bd7f10cd8074d32f3bfdcee3337a31ce7e52540b92765971502204f983abcc3f7495584419289cfb699b7ae6b4facc3450bdde5597e3a0e5bcd0e[ALL] 02a902b94362b8ee7be33043fae1cc1e1363896a76a34d326cd18232d2b9d5b443"}, "vout": 0, "txid": "9551adf0b9e9e3cd855ddacb3ecd7202e0aecd09d6b0df9e44a3c97e8934a7fd"}], "txid": "669992170ce18eef329317194abd9179798e124830a6470772d0ce6e54109ad7", "blocktime": 1537870928, "version": 1, "confirmations": 11512, "time": 1537870928, "locktime": 0, "vsize": 373, "size": 373}