{"hash": "669ac4dd8b5ce6222022b36121bc59fd69a5b336df8d500f8400cee5ab33684d", "blockhash": "0000000000000000001e0dab787dd257d1dbfcb92a98c2207d5e1078be1f4165", "vout": [{"scriptPubKey": {"reqSigs": 1, "hex": "a9145377021721b839934a1c467f8e3d7cbe3a13e28187", "addresses": ["39JLaJEec6Bvf22thRp77dCYzCSfGVUtED"], "asm": "OP_HASH160 5377021721b839934a1c467f8e3d7cbe3a13e281 OP_EQUAL", "type": "scripthash"}, "value": 0.00386161, "n": 0}, {"scriptPubKey": {"reqSigs": 1, "hex": "76a914137fa92e60a67f8f8e8baf2c4f4dd89f1ada9c5c88ac", "addresses": ["12n6mgGnHyV4Xi226aHs3WsPsd5ZQs6zAf"], "asm": "OP_DUP OP_HASH160 137fa92e60a67f8f8e8baf2c4f4dd89f1ada9c5c OP_EQUALVERIFY OP_CHECKSIG", "type": "pubkeyhash"}, "value": 0.06506116, "n": 1}], "hex": "0100000001fd32f178df250eb26de545c8c9fd7134081bad479bbd45f9587aa9233d6c8bec000000006b483045022100f168b3a2ff5284ca4f78646653cc6e07a391b1c358891c536644e00d0fd86efd022046de0b2f9b500e39d51b5df6a6a76b7fec1fc8151acc8255c90146efeef5650801210383d41aa3a4c6b8b435220f83af57477ce6e5c566ea489d36d64132cb61bb3a80ffffffff0271e405000000000017a9145377021721b839934a1c467f8e3d7cbe3a13e2818784466300000000001976a914137fa92e60a67f8f8e8baf2c4f4dd89f1ada9c5c88ac00000000", "vin": [{"sequence": 4294967295, "scriptSig": {"hex": "483045022100f168b3a2ff5284ca4f78646653cc6e07a391b1c358891c536644e00d0fd86efd022046de0b2f9b500e39d51b5df6a6a76b7fec1fc8151acc8255c90146efeef5650801210383d41aa3a4c6b8b435220f83af57477ce6e5c566ea489d36d64132cb61bb3a80", "asm": "3045022100f168b3a2ff5284ca4f78646653cc6e07a391b1c358891c536644e00d0fd86efd022046de0b2f9b500e39d51b5df6a6a76b7fec1fc8151acc8255c90146efeef56508[ALL] 0383d41aa3a4c6b8b435220f83af57477ce6e5c566ea489d36d64132cb61bb3a80"}, "vout": 0, "txid": "ec8b6c3d23a97a58f945bd9b47ad1b083471fdc9c845e56db20e25df78f132fd"}], "txid": "669ac4dd8b5ce6222022b36121bc59fd69a5b336df8d500f8400cee5ab33684d", "blocktime": 1537872475, "version": 1, "confirmations": 11486, "time": 1537872475, "locktime": 0, "vsize": 224, "size": 224}