{"hash": "66a1f746a46c033ae15f31b563b24f397e3798ac2f1af3caee23f522b6d53af1", "blockhash": "000000000000000000022b45ed06c6f4ccd3cf7fb5ba4856ebd2e58215665228", "vout": [{"scriptPubKey": {"reqSigs": 1, "hex": "76a914dcfe5678f50fbfeb646657dbb5d19b569e868e5c88ac", "addresses": ["1M9WLuJE3RVTBYfg8Dh5Ex3q3cpdi8ukQA"], "asm": "OP_DUP OP_HASH160 dcfe5678f50fbfeb646657dbb5d19b569e868e5c OP_EQUALVERIFY OP_CHECKSIG", "type": "pubkeyhash"}, "value": 0.012042, "n": 0}, {"scriptPubKey": {"reqSigs": 1, "hex": "76a914a7ee9955f46da13895504ed090648fbd0c669e4088ac", "addresses": ["1GJwgBbG8s42LcipTYDFsiBg6oBjWmXnqy"], "asm": "OP_DUP OP_HASH160 a7ee9955f46da13895504ed090648fbd0c669e40 OP_EQUALVERIFY OP_CHECKSIG", "type": "pubkeyhash"}, "value": 0.02, "n": 1}], "hex": "0100000001a49aaf66edee05a91c24d07eb1f7c3259bbd511c4eb8c0197079efd7c1f65e2b010000006b483045022100cdee29b05336ea2659e7932d70ac1f49fe5f0ebd037400f7b7cf154c7e7ceecf02205c6288f968b06b2e01020ecde17eda53bc139858306e260d6b17203fd434659f012102ed3a3b89b64a7a314ac074ef6182cdc2eb06ed30685ca776695e62b563cb4cb1feffffff02e85f1200000000001976a914dcfe5678f50fbfeb646657dbb5d19b569e868e5c88ac80841e00000000001976a914a7ee9955f46da13895504ed090648fbd0c669e4088ac00000000", "vin": [{"sequence": 4294967294, "scriptSig": {"hex": "483045022100cdee29b05336ea2659e7932d70ac1f49fe5f0ebd037400f7b7cf154c7e7ceecf02205c6288f968b06b2e01020ecde17eda53bc139858306e260d6b17203fd434659f012102ed3a3b89b64a7a314ac074ef6182cdc2eb06ed30685ca776695e62b563cb4cb1", "asm": "3045022100cdee29b05336ea2659e7932d70ac1f49fe5f0ebd037400f7b7cf154c7e7ceecf02205c6288f968b06b2e01020ecde17eda53bc139858306e260d6b17203fd434659f[ALL] 02ed3a3b89b64a7a314ac074ef6182cdc2eb06ed30685ca776695e62b563cb4cb1"}, "vout": 1, "txid": "2b5ef6c1d7ef797019c0b84e1c51bd9b25c3f7b17ed0241ca905eeed66af9aa4"}], "txid": "66a1f746a46c033ae15f31b563b24f397e3798ac2f1af3caee23f522b6d53af1", "blocktime": 1537869901, "version": 1, "confirmations": 11522, "time": 1537869901, "locktime": 0, "vsize": 226, "size": 226}