{"hash": "66a8cd6942c205104485564d9173de4934ecb938fb713c306b66613aa62ab389", "blockhash": "00000000000000000017f5eb5941039fbcee6240d03bc1f2f8e35350df66a1d8", "vout": [{"scriptPubKey": {"reqSigs": 1, "hex": "a914be32ba7a62efd5c18c4036022c0d7f9809d058ef87", "addresses": ["3K2h5fW6o8XtzsyU9pEQnA6Q7jd97tveyM"], "asm": "OP_HASH160 be32ba7a62efd5c18c4036022c0d7f9809d058ef OP_EQUAL", "type": "scripthash"}, "value": 0.00023459, "n": 0}, {"scriptPubKey": {"reqSigs": 1, "hex": "76a914e7a06f487acfdecfdbf8fa606ccf619bc7c93df488ac", "addresses": ["1N7jHWedVDHMNcizuDUtQcGUQYxPy7WFA7"], "asm": "OP_DUP OP_HASH160 e7a06f487acfdecfdbf8fa606ccf619bc7c93df4 OP_EQUALVERIFY OP_CHECKSIG", "type": "pubkeyhash"}, "value": 0.00031838, "n": 1}], "hex": "0100000001a3fe8dc962cf5b4aafa23f017eca73c44d1f28be432014d67efc3b3d16c5d109000000006b483045022100d07ea2544caee3b4e81bbac9084b77bb701c7a61111eea95535068af58de6a2a02205cac2de2e1c0e3c1811270ba9241dd904b28bd68bfe55498a410d08e3914baa901210325a7a12a39f393a332685fd45803ff757b7504eb79d6e2bedcf6975946610d93ffffffff02a35b00000000000017a914be32ba7a62efd5c18c4036022c0d7f9809d058ef875e7c0000000000001976a914e7a06f487acfdecfdbf8fa606ccf619bc7c93df488ac00000000", "vin": [{"sequence": 4294967295, "scriptSig": {"hex": "483045022100d07ea2544caee3b4e81bbac9084b77bb701c7a61111eea95535068af58de6a2a02205cac2de2e1c0e3c1811270ba9241dd904b28bd68bfe55498a410d08e3914baa901210325a7a12a39f393a332685fd45803ff757b7504eb79d6e2bedcf6975946610d93", "asm": "3045022100d07ea2544caee3b4e81bbac9084b77bb701c7a61111eea95535068af58de6a2a02205cac2de2e1c0e3c1811270ba9241dd904b28bd68bfe55498a410d08e3914baa9[ALL] 0325a7a12a39f393a332685fd45803ff757b7504eb79d6e2bedcf6975946610d93"}, "vout": 0, "txid": "09d1c5163d3bfc7ed6142043be281f4dc473ca7e013fa2af4a5bcf62c98dfea3"}], "txid": "66a8cd6942c205104485564d9173de4934ecb938fb713c306b66613aa62ab389", "blocktime": 1537874412, "version": 1, "confirmations": 11468, "time": 1537874412, "locktime": 0, "vsize": 224, "size": 224}