{"hash": "66b3ef07c915ef5b153f1dbc4eec772dd368568de86ec4c2fd0d97987207b4a8", "blockhash": "0000000000000000001f76057863aec43deb6fa401d9628bb513d65a8098bfab", "vout": [{"scriptPubKey": {"reqSigs": 1, "hex": "76a914c98527a3808bc52ff296dd5f4f7a09d9f137673288ac", "addresses": ["1KNYLKTk1VHgnQ4fgdNsohPh5yWhvAteX5"], "asm": "OP_DUP OP_HASH160 c98527a3808bc52ff296dd5f4f7a09d9f1376732 OP_EQUALVERIFY OP_CHECKSIG", "type": "pubkeyhash"}, "value": 0.00310559, "n": 0}, {"scriptPubKey": {"reqSigs": 1, "hex": "76a9142f3722df48b4b98ef2efeb10b52bf895acd2e4d888ac", "addresses": ["15Jeowy9PsEB3hCPqa3Wq4cyGFgsDp4Ekk"], "asm": "OP_DUP OP_HASH160 2f3722df48b4b98ef2efeb10b52bf895acd2e4d8 OP_EQUALVERIFY OP_CHECKSIG", "type": "pubkeyhash"}, "value": 0.01590312, "n": 1}], "hex": "0100000001b56440f7bc7e910a1e85660971ee815f9106a6e8d9abc17f0a6945500c436e38010000006a47304402206f25c89b0a46ee60dc0981748fd2802569c279c18608e0636eaaa4e27f4e410a0220386c006613dd6391b2b6b0ab94e180abe76db1f2c1318d99227fac3cd26e49e5012103a8bf7b4cf2250e003d41a782207c7f397f383f800eb0ddf018aaedfd0e4d4e4dffffffff021fbd0400000000001976a914c98527a3808bc52ff296dd5f4f7a09d9f137673288ac28441800000000001976a9142f3722df48b4b98ef2efeb10b52bf895acd2e4d888ac00000000", "vin": [{"sequence": 4294967295, "scriptSig": {"hex": "47304402206f25c89b0a46ee60dc0981748fd2802569c279c18608e0636eaaa4e27f4e410a0220386c006613dd6391b2b6b0ab94e180abe76db1f2c1318d99227fac3cd26e49e5012103a8bf7b4cf2250e003d41a782207c7f397f383f800eb0ddf018aaedfd0e4d4e4d", "asm": "304402206f25c89b0a46ee60dc0981748fd2802569c279c18608e0636eaaa4e27f4e410a0220386c006613dd6391b2b6b0ab94e180abe76db1f2c1318d99227fac3cd26e49e5[ALL] 03a8bf7b4cf2250e003d41a782207c7f397f383f800eb0ddf018aaedfd0e4d4e4d"}, "vout": 1, "txid": "386e430c5045690a7fc1abd9e8a606915f81ee710966851e0a917ebcf74064b5"}], "txid": "66b3ef07c915ef5b153f1dbc4eec772dd368568de86ec4c2fd0d97987207b4a8", "blocktime": 1537873891, "version": 1, "confirmations": 11478, "time": 1537873891, "locktime": 0, "vsize": 225, "size": 225}