{"hash": "66b64345af23cd74a35559466301181b5e7d5a369215cc9f938a342754a6cc60", "blockhash": "000000000000000000022b45ed06c6f4ccd3cf7fb5ba4856ebd2e58215665228", "vout": [{"scriptPubKey": {"type": "nulldata", "hex": "6a146f6d6e69000000000000001f0000000cfdf06e00", "asm": "OP_RETURN 6f6d6e69000000000000001f0000000cfdf06e00"}, "value": 0.0, "n": 0}, {"scriptPubKey": {"reqSigs": 1, "hex": "76a914284b1f894ca72430de8f19952125b6016a9dc7c688ac", "addresses": ["14g42KnXkRFfR8cUtS5tReprjeNvGQKW9v"], "asm": "OP_DUP OP_HASH160 284b1f894ca72430de8f19952125b6016a9dc7c6 OP_EQUALVERIFY OP_CHECKSIG", "type": "pubkeyhash"}, "value": 0.14497208, "n": 1}, {"scriptPubKey": {"reqSigs": 1, "hex": "76a914d1763339f9e597c84b288eca0188ea67aa6b011988ac", "addresses": ["1L6XpnDygG2VySVEVmaqHtYTYwJAHhvRYZ"], "asm": "OP_DUP OP_HASH160 d1763339f9e597c84b288eca0188ea67aa6b0119 OP_EQUALVERIFY OP_CHECKSIG", "type": "pubkeyhash"}, "value": 5.46e-06, "n": 2}], "hex": "01000000018aad0dd6b88394aa01cc1d175022cebc089f3f467e3e9a656f2c8b7387c16f88020000006b483045022100cab570a000ec50c7d15c53aeb31c12a44993b64eb2a9ef331cb60386314844a30220174fa87d4950f9c2c1d1240919e54ac45f9ef66da4ce9c167024e7e2c0ec289d01210392260b2475e9dec1855e89404d00787579055270f3f1619ec29bd64ed6a6dd7dfeffffff030000000000000000166a146f6d6e69000000000000001f0000000cfdf06e00b835dd00000000001976a914284b1f894ca72430de8f19952125b6016a9dc7c688ac22020000000000001976a914d1763339f9e597c84b288eca0188ea67aa6b011988acc3480800", "vin": [{"sequence": 4294967294, "scriptSig": {"hex": "483045022100cab570a000ec50c7d15c53aeb31c12a44993b64eb2a9ef331cb60386314844a30220174fa87d4950f9c2c1d1240919e54ac45f9ef66da4ce9c167024e7e2c0ec289d01210392260b2475e9dec1855e89404d00787579055270f3f1619ec29bd64ed6a6dd7d", "asm": "3045022100cab570a000ec50c7d15c53aeb31c12a44993b64eb2a9ef331cb60386314844a30220174fa87d4950f9c2c1d1240919e54ac45f9ef66da4ce9c167024e7e2c0ec289d[ALL] 0392260b2475e9dec1855e89404d00787579055270f3f1619ec29bd64ed6a6dd7d"}, "vout": 2, "txid": "886fc187738b2c6f659a3e7e463f9f08bcce2250171dcc01aa9483b8d60dad8a"}], "txid": "66b64345af23cd74a35559466301181b5e7d5a369215cc9f938a342754a6cc60", "blocktime": 1537869901, "version": 1, "confirmations": 11522, "time": 1537869901, "locktime": 542915, "vsize": 257, "size": 257}