{"hash": "66bbc403fa97eaf49db233405dfaf70e2e60e1a977c6e9735413cbe98f85999e", "blockhash": "00000000000000000017f5eb5941039fbcee6240d03bc1f2f8e35350df66a1d8", "vout": [{"scriptPubKey": {"reqSigs": 1, "hex": "a9144f84624fc409ce654d747d5e002d281dff236b0c87", "addresses": ["38wTtuGYutrH7mCb1RXWWeekpGQtyjvBjg"], "asm": "OP_HASH160 4f84624fc409ce654d747d5e002d281dff236b0c OP_EQUAL", "type": "scripthash"}, "value": 0.00256389, "n": 0}, {"scriptPubKey": {"reqSigs": 1, "hex": "76a9147d0f7009a2e4b207b93e2ebe891587718c7d580088ac", "addresses": ["1CQFxc7JoEWU5eYZUAxboLPt3K9xFMSd8x"], "asm": "OP_DUP OP_HASH160 7d0f7009a2e4b207b93e2ebe891587718c7d5800 OP_EQUALVERIFY OP_CHECKSIG", "type": "pubkeyhash"}, "value": 0.10633753, "n": 1}, {"scriptPubKey": {"reqSigs": 1, "hex": "76a914eb5a894fb69b1d229e0dd420bae34081d8320e5c88ac", "addresses": ["1NTSFf99zHNjPUnwb4XS4ovZQb46LYD5RM"], "asm": "OP_DUP OP_HASH160 eb5a894fb69b1d229e0dd420bae34081d8320e5c OP_EQUALVERIFY OP_CHECKSIG", "type": "pubkeyhash"}, "value": 0.36734833, "n": 2}], "hex": "02000000019b01a1a0048bce8d2054536563bc7cac00b71244b74b26096e64e557526d27da010000006a47304402207be5141a7df1467d7865ab51d2a7c7e9f80f3ffd758b0578a1aadc80ed7560cc02202db1c0c638b1645cca8062cc4155ed9e715498f01148dcba4d26c8d920005e73012103f54e2f4184b9083d38ffbb60f100a1417fb0613a5f670c29f3785e08e886006efeffffff0385e903000000000017a9144f84624fc409ce654d747d5e002d281dff236b0c871942a200000000001976a9147d0f7009a2e4b207b93e2ebe891587718c7d580088ac71873002000000001976a914eb5a894fb69b1d229e0dd420bae34081d8320e5c88ac15490800", "vin": [{"sequence": 4294967294, "scriptSig": {"hex": "47304402207be5141a7df1467d7865ab51d2a7c7e9f80f3ffd758b0578a1aadc80ed7560cc02202db1c0c638b1645cca8062cc4155ed9e715498f01148dcba4d26c8d920005e73012103f54e2f4184b9083d38ffbb60f100a1417fb0613a5f670c29f3785e08e886006e", "asm": "304402207be5141a7df1467d7865ab51d2a7c7e9f80f3ffd758b0578a1aadc80ed7560cc02202db1c0c638b1645cca8062cc4155ed9e715498f01148dcba4d26c8d920005e73[ALL] 03f54e2f4184b9083d38ffbb60f100a1417fb0613a5f670c29f3785e08e886006e"}, "vout": 1, "txid": "da276d5257e5646e09264bb74412b700ac7cbc63655354208dce8b04a0a1019b"}], "txid": "66bbc403fa97eaf49db233405dfaf70e2e60e1a977c6e9735413cbe98f85999e", "blocktime": 1537874412, "version": 2, "confirmations": 11466, "time": 1537874412, "locktime": 542997, "vsize": 257, "size": 257}