{"hash": "66bd2416ad1d235010f23cb05c70ce44138f290f0186a6b8e4517c7d6381a81c", "blockhash": "00000000000000000018f53835495a110e01622372bf6ae95dc86f2b0ab887b0", "vout": [{"scriptPubKey": {"reqSigs": 1, "hex": "a9148fa7c8725a3b5da7c4416039b69bafc25fb891ee87", "addresses": ["3EnbYk1ZV52ZoD77S2C3VKMqJ3FYSCkNAm"], "asm": "OP_HASH160 8fa7c8725a3b5da7c4416039b69bafc25fb891ee OP_EQUAL", "type": "scripthash"}, "value": 0.00133571, "n": 0}], "hex": "020000000269261814723fe4307f6a998237f3084a5da3d71862bd614c6dbf423b6896b2d5000000006b483045022100edde6ad90d91980504d766f2dde76d489c7b0fb8bf15f9a4e2fc6d17e54eb95f02206dae81e72ceb066d4a2817ec5cd706834da988c16f37bddd32d43f522c51dafd01210250043479013dbb2a21aabed7e40664689408c3060aa0c721ddeaae3a09c69e91feffffff904f93962da45a79cefc1b622b9aac3125f252b439190488583c175780a96947000000006b4830450221009e11f097920ddea34084ce9294fce737b068157adaade52068f5d63f85460ec002205453a2ade04f396dccfd43e1426e9fe341464be36527eb5cef9fa5604b5b8a48012103c9b58c13563ef6cfec47244d88de7ff693bdb8f13e7938b2a8fbfaf564982b3afeffffff01c30902000000000017a9148fa7c8725a3b5da7c4416039b69bafc25fb891ee870e490800", "vin": [{"sequence": 4294967294, "scriptSig": {"hex": "483045022100edde6ad90d91980504d766f2dde76d489c7b0fb8bf15f9a4e2fc6d17e54eb95f02206dae81e72ceb066d4a2817ec5cd706834da988c16f37bddd32d43f522c51dafd01210250043479013dbb2a21aabed7e40664689408c3060aa0c721ddeaae3a09c69e91", "asm": "3045022100edde6ad90d91980504d766f2dde76d489c7b0fb8bf15f9a4e2fc6d17e54eb95f02206dae81e72ceb066d4a2817ec5cd706834da988c16f37bddd32d43f522c51dafd[ALL] 0250043479013dbb2a21aabed7e40664689408c3060aa0c721ddeaae3a09c69e91"}, "vout": 0, "txid": "d5b296683b42bf6d4c61bd6218d7a35d4a08f33782996a7f30e43f7214182669"}, {"sequence": 4294967294, "scriptSig": {"hex": "4830450221009e11f097920ddea34084ce9294fce737b068157adaade52068f5d63f85460ec002205453a2ade04f396dccfd43e1426e9fe341464be36527eb5cef9fa5604b5b8a48012103c9b58c13563ef6cfec47244d88de7ff693bdb8f13e7938b2a8fbfaf564982b3a", "asm": "30450221009e11f097920ddea34084ce9294fce737b068157adaade52068f5d63f85460ec002205453a2ade04f396dccfd43e1426e9fe341464be36527eb5cef9fa5604b5b8a48[ALL] 03c9b58c13563ef6cfec47244d88de7ff693bdb8f13e7938b2a8fbfaf564982b3a"}, "vout": 0, "txid": "4769a98057173c5888041939b452f22531ac9a2b621bfcce795aa42d96934f90"}], "txid": "66bd2416ad1d235010f23cb05c70ce44138f290f0186a6b8e4517c7d6381a81c", "blocktime": 1537870928, "version": 2, "confirmations": 11514, "time": 1537870928, "locktime": 542990, "vsize": 338, "size": 338}