{"hash": "66bf90a6652c13d4732be71ed5c5f8fb53cc4939cc601acf1000354299a72510", "blockhash": "0000000000000000001cda96e906b7601b7a6fb1a3b62bca570a9e5d8f4b3de1", "vout": [{"scriptPubKey": {"reqSigs": 1, "hex": "76a914f631e105258cbb07115c7041bcd01323d700f60188ac", "addresses": ["1PSkyqtXTrkZCcThquXSs9MsoRr82rmaS5"], "asm": "OP_DUP OP_HASH160 f631e105258cbb07115c7041bcd01323d700f601 OP_EQUALVERIFY OP_CHECKSIG", "type": "pubkeyhash"}, "value": 0.05509709, "n": 0}, {"scriptPubKey": {"reqSigs": 1, "hex": "a914035a9462b95ca32f5bb0ddc12726cde8e69aa79587", "addresses": ["31zkThh2LwaaRfqU5PxNdGu9aeNGSJAh3W"], "asm": "OP_HASH160 035a9462b95ca32f5bb0ddc12726cde8e69aa795 OP_EQUAL", "type": "scripthash"}, "value": 0.06230372, "n": 1}], "hex": "0100000001a60bb715befb50c31c12f2049a4291d8317311605daba2823bdd25f9f8e50a44010000006a473044022032c7ac6d4aaed3b34e5071032a957497cca9ec4fc766a56a99af8fdf68c9ee020220239b2eeedb6f80fa3aa8a5d6fdd93de7f9102870dc7de87b602d1af44facd7500121035bbf01ef5b12c28fdd5f9e4861765b1f63b3a383f186c4c5b619d0377760d6a1ffffffff024d125400000000001976a914f631e105258cbb07115c7041bcd01323d700f60188ac64115f000000000017a914035a9462b95ca32f5bb0ddc12726cde8e69aa7958700000000", "vin": [{"sequence": 4294967295, "scriptSig": {"hex": "473044022032c7ac6d4aaed3b34e5071032a957497cca9ec4fc766a56a99af8fdf68c9ee020220239b2eeedb6f80fa3aa8a5d6fdd93de7f9102870dc7de87b602d1af44facd7500121035bbf01ef5b12c28fdd5f9e4861765b1f63b3a383f186c4c5b619d0377760d6a1", "asm": "3044022032c7ac6d4aaed3b34e5071032a957497cca9ec4fc766a56a99af8fdf68c9ee020220239b2eeedb6f80fa3aa8a5d6fdd93de7f9102870dc7de87b602d1af44facd750[ALL] 035bbf01ef5b12c28fdd5f9e4861765b1f63b3a383f186c4c5b619d0377760d6a1"}, "vout": 1, "txid": "440ae5f8f925dd3b82a2ab5d60117331d891429a04f2121cc350fbbe15b70ba6"}], "txid": "66bf90a6652c13d4732be71ed5c5f8fb53cc4939cc601acf1000354299a72510", "blocktime": 1537873282, "version": 1, "confirmations": 11485, "time": 1537873282, "locktime": 0, "vsize": 223, "size": 223}