{"hash": "66c4e103a95e9ee7eedc126bf420288a7bd5c41fbe38536ca73f5a09fe7fa678", "blockhash": "0000000000000000000e13cef7c366c0283d82e591d1acd082e914b08063cdf1", "vout": [{"scriptPubKey": {"reqSigs": 1, "hex": "76a9147b510d27bb52892ed01c2de7ed98c042291fb0ea88ac", "addresses": ["1CF3D9NLTwTeNm9DRfRwiQohPZ3tMdiPDR"], "asm": "OP_DUP OP_HASH160 7b510d27bb52892ed01c2de7ed98c042291fb0ea OP_EQUALVERIFY OP_CHECKSIG", "type": "pubkeyhash"}, "value": 0.0009224, "n": 0}, {"scriptPubKey": {"reqSigs": 1, "hex": "a9140a40cb4458fb513949f2b1a0507db58d0246f1ff87", "addresses": ["32dEJRq7bhHDwQvmVFpEmfNTzRiQbzCueF"], "asm": "OP_HASH160 0a40cb4458fb513949f2b1a0507db58d0246f1ff OP_EQUAL", "type": "scripthash"}, "value": 0.00499913, "n": 1}], "hex": "01000000013381be64d1055a1a7ac93ccc7cf973c7d0b658327a4d3beb3657e6a6778dee1e010000006a473044022007c438d11dc998c8f16016ad02c70476936deac8ed097e69ab2aa86fb05a653802207e06742263068efc3fc91e98a2fdae9efc06a22982d027446f6dd40ea13e39b801210334aba215a5b40d685a229b044f118347aa7fab53165c80120bb0bc3c22137716ffffffff0250680100000000001976a9147b510d27bb52892ed01c2de7ed98c042291fb0ea88acc9a007000000000017a9140a40cb4458fb513949f2b1a0507db58d0246f1ff8700000000", "vin": [{"sequence": 4294967295, "scriptSig": {"hex": "473044022007c438d11dc998c8f16016ad02c70476936deac8ed097e69ab2aa86fb05a653802207e06742263068efc3fc91e98a2fdae9efc06a22982d027446f6dd40ea13e39b801210334aba215a5b40d685a229b044f118347aa7fab53165c80120bb0bc3c22137716", "asm": "3044022007c438d11dc998c8f16016ad02c70476936deac8ed097e69ab2aa86fb05a653802207e06742263068efc3fc91e98a2fdae9efc06a22982d027446f6dd40ea13e39b8[ALL] 0334aba215a5b40d685a229b044f118347aa7fab53165c80120bb0bc3c22137716"}, "vout": 1, "txid": "1eee8d77a6e65736eb3b4d7a3258b6d0c773f97ccc3cc97a1a5a05d164be8133"}], "txid": "66c4e103a95e9ee7eedc126bf420288a7bd5c41fbe38536ca73f5a09fe7fa678", "blocktime": 1537871767, "version": 1, "confirmations": 11492, "time": 1537871767, "locktime": 0, "vsize": 223, "size": 223}