{"hash": "1b5a74efe2349c1c5042f880eeaf21988eb4d60e8dffb76282ff77fe85f35354", "blockhash": "0000000000000000001cda96e906b7601b7a6fb1a3b62bca570a9e5d8f4b3de1", "vout": [{"scriptPubKey": {"reqSigs": 1, "hex": "00149b5c46bcc842d9955ae57cf76d33103a8718e363", "addresses": ["bc1qndwyd0xggtve2kh90nmk6vcs82r33cmre0y34j"], "asm": "0 9b5c46bcc842d9955ae57cf76d33103a8718e363", "type": "witness_v0_keyhash"}, "value": 0.50014885, "n": 0}, {"scriptPubKey": {"reqSigs": 1, "hex": "76a914d600cd229be2fc8980f5d925028130c6391d448388ac", "addresses": ["1LWYZjCqyKzde4JPuENoHM51cKAtjBP9ez"], "asm": "OP_DUP OP_HASH160 d600cd229be2fc8980f5d925028130c6391d4483 OP_EQUALVERIFY OP_CHECKSIG", "type": "pubkeyhash"}, "value": 0.01389973, "n": 1}], "hex": "01000000000101ecae8b594286578bbbe3fcac4c825348009f4b89e4f238536818119762115c780100000000ffffffff02a52afb02000000001600149b5c46bcc842d9955ae57cf76d33103a8718e36395351500000000001976a914d600cd229be2fc8980f5d925028130c6391d448388ac02473044022014029f07cd36ff208998d9c27e01f16cd38ba0d9c38f8073c04fa1475420e012022026b527a4a8cad6f89cd438831561111ac69442964293992503bddfff825376dc0121035c27924318f39c24db454c48e5788c1066e263a188cfd210e65171e301846aa400000000", "vin": [{"txinwitness": ["3044022014029f07cd36ff208998d9c27e01f16cd38ba0d9c38f8073c04fa1475420e012022026b527a4a8cad6f89cd438831561111ac69442964293992503bddfff825376dc01", "035c27924318f39c24db454c48e5788c1066e263a188cfd210e65171e301846aa4"], "sequence": 4294967295, "scriptSig": {"hex": "", "asm": ""}, "vout": 1, "txid": "785c1162971118685338f2e4894b9f004853824cacfce3bb8b578642598baeec"}], "txid": "66d21da4db2fed1edfdce578d52d5cb75201245c0941d78fe57d4eac5495f96e", "blocktime": 1537873282, "version": 1, "confirmations": 11484, "time": 1537873282, "locktime": 0, "vsize": 144, "size": 225}