{"hash": "576b56c82257b68638922ab051bfae7f8bf8eca3ea0980f9524743c54be93801", "blockhash": "0000000000000000001cda96e906b7601b7a6fb1a3b62bca570a9e5d8f4b3de1", "vout": [{"scriptPubKey": {"reqSigs": 1, "hex": "76a914fffd3b609e659802a4c74b3ac067b43de731680288ac", "addresses": ["1QLYfnGztjyLkQ4BENoFtzMA1JGQf48L4B"], "asm": "OP_DUP OP_HASH160 fffd3b609e659802a4c74b3ac067b43de7316802 OP_EQUALVERIFY OP_CHECKSIG", "type": "pubkeyhash"}, "value": 0.00097422, "n": 0}, {"scriptPubKey": {"reqSigs": 1, "hex": "a914248708f066e770a04972cadf1a8fab2ac914f67487", "addresses": ["352A1qgs4T5zWAL72S7ptKQCKs26rUbBU8"], "asm": "OP_HASH160 248708f066e770a04972cadf1a8fab2ac914f674 OP_EQUAL", "type": "scripthash"}, "value": 0.01172208, "n": 1}], "hex": "0200000000010133fdd4ac6fc1fa4efd81c7fb0f4523dcdb06f6eae9c8fed992ef41d196d8f4050100000017160014670f4f13a7583f129833906f32cd33d9ca4066a2feffffff028e7c0100000000001976a914fffd3b609e659802a4c74b3ac067b43de731680288acf0e211000000000017a914248708f066e770a04972cadf1a8fab2ac914f6748702473044022036cf02d3a91cef473a4cf0a586fe062bb4295a85217b7ab91ee71290b5c200d40220313025f7542bd29ea3b6c13168bc34aebda22700c20b09d67c4713525bd4dd0c01210209bd06a3368e675d290a5c929e82cf40b6fa48b504a0f836358a2e40f99ba1e213490800", "vin": [{"txinwitness": ["3044022036cf02d3a91cef473a4cf0a586fe062bb4295a85217b7ab91ee71290b5c200d40220313025f7542bd29ea3b6c13168bc34aebda22700c20b09d67c4713525bd4dd0c01", "0209bd06a3368e675d290a5c929e82cf40b6fa48b504a0f836358a2e40f99ba1e2"], "sequence": 4294967294, "scriptSig": {"hex": "160014670f4f13a7583f129833906f32cd33d9ca4066a2", "asm": "0014670f4f13a7583f129833906f32cd33d9ca4066a2"}, "vout": 1, "txid": "05f4d896d141ef92d9fec8e9eaf606dbdc23450ffbc781fd4efac16facd4fd33"}], "txid": "66d544b407644f6344c7888758651c5e0112c31d6491a15ad68de787eea09dc7", "blocktime": 1537873282, "version": 2, "confirmations": 11485, "time": 1537873282, "locktime": 542995, "vsize": 168, "size": 249}