{"hash": "66da12e57019d89444838bb6bd6acb44144924aa924f45483a018136a06fa7ba", "blockhash": "0000000000000000000dcc0f55137456b1a82d3642486a52398922ac4d620174", "vout": [{"scriptPubKey": {"reqSigs": 1, "hex": "76a914ef4a1479b949a391897c9008229208c537a0ec3188ac", "addresses": ["1NpFF1s4LxEWtxRxD7czVYD2NT7SKmbE2V"], "asm": "OP_DUP OP_HASH160 ef4a1479b949a391897c9008229208c537a0ec31 OP_EQUALVERIFY OP_CHECKSIG", "type": "pubkeyhash"}, "value": 0.04434513, "n": 0}], "hex": "01000000015937ea16bb6e41d58d90fa80859b2924f28572d240f98495dec267d5a153bd2b030000006b483045022100f747745b7793998fb822d4d1f76b91f04f77ccfe51719310fb445dbd6853e39402203959d73cf204754c192c71a199c3cc1263ab071a9f93131b49494d7e26bab2f8012103a932a053cbfcba5a6d7d96d65ea19e63af4274b4a628987c23bd47f2bfd2649fffffffff0151aa4300000000001976a914ef4a1479b949a391897c9008229208c537a0ec3188ac00000000", "vin": [{"sequence": 4294967295, "scriptSig": {"hex": "483045022100f747745b7793998fb822d4d1f76b91f04f77ccfe51719310fb445dbd6853e39402203959d73cf204754c192c71a199c3cc1263ab071a9f93131b49494d7e26bab2f8012103a932a053cbfcba5a6d7d96d65ea19e63af4274b4a628987c23bd47f2bfd2649f", "asm": "3045022100f747745b7793998fb822d4d1f76b91f04f77ccfe51719310fb445dbd6853e39402203959d73cf204754c192c71a199c3cc1263ab071a9f93131b49494d7e26bab2f8[ALL] 03a932a053cbfcba5a6d7d96d65ea19e63af4274b4a628987c23bd47f2bfd2649f"}, "vout": 3, "txid": "2bbd53a1d567c2de9584f940d27285f224299b8580fa908dd5416ebb16ea3759"}], "txid": "66da12e57019d89444838bb6bd6acb44144924aa924f45483a018136a06fa7ba", "blocktime": 1537870268, "version": 1, "confirmations": 11516, "time": 1537870268, "locktime": 0, "vsize": 192, "size": 192}