{"hash": "6bdb30ac0e8cfb0db32702937d269b710c442b7eac80f62e522495296eada316", "blockhash": "00000000000000000018f53835495a110e01622372bf6ae95dc86f2b0ab887b0", "vout": [{"scriptPubKey": {"reqSigs": 1, "hex": "a91439cd4da062a18f86f9f0386d9e1de30f37c4342a87", "addresses": ["36xePCMDyf6da1XRXrFDKj4486gWF6zuWe"], "asm": "OP_HASH160 39cd4da062a18f86f9f0386d9e1de30f37c4342a OP_EQUAL", "type": "scripthash"}, "value": 5.70899128, "n": 0}, {"scriptPubKey": {"reqSigs": 1, "hex": "a9148355bfe92b96a99a2933fb1191f8eb7ea43bd4fb87", "addresses": ["3DfTAfTEDcLcmXuYHa2Tp9QxykcqbhMSWF"], "asm": "OP_HASH160 8355bfe92b96a99a2933fb1191f8eb7ea43bd4fb OP_EQUAL", "type": "scripthash"}, "value": 0.01, "n": 1}], "hex": "0200000000010129dafd9de622f708a5de0ca7bd4cd0163757c30767c6a21c9ae72c22a328940a01000000171600144df0905539a4a611205cee029ba5c0850d24f6d6feffffff02b83a07220000000017a91439cd4da062a18f86f9f0386d9e1de30f37c4342a8740420f000000000017a9148355bfe92b96a99a2933fb1191f8eb7ea43bd4fb870247304402201eee9d84971008389d3d7398356e49dd42b22becc6068b54b97b74e8b70a61b3022053fbd860e2917c00f0f076164c202616741c73bf753e60789beddef866daa5b50121029008cafe6af43b44cae391bf6e07aa255e68afa29ef419728b9ed997049c4e7c0e490800", "vin": [{"txinwitness": ["304402201eee9d84971008389d3d7398356e49dd42b22becc6068b54b97b74e8b70a61b3022053fbd860e2917c00f0f076164c202616741c73bf753e60789beddef866daa5b501", "029008cafe6af43b44cae391bf6e07aa255e68afa29ef419728b9ed997049c4e7c"], "sequence": 4294967294, "scriptSig": {"hex": "1600144df0905539a4a611205cee029ba5c0850d24f6d6", "asm": "00144df0905539a4a611205cee029ba5c0850d24f6d6"}, "vout": 1, "txid": "0a9428a3222ce79a1ca2c66707c3573716d04cbda70cdea508f722e69dfdda29"}], "txid": "66dfa3d6e29aa985c4dafe5d96de15b0486bf5f0046de6b42cb18456e4755ae5", "blocktime": 1537870928, "version": 2, "confirmations": 11514, "time": 1537870928, "locktime": 542990, "vsize": 166, "size": 247}