{"hash": "66e5d67a09f04b4b24ac70b7628786c5977a5c676a7ca15ba128db07e4170838", "blockhash": "0000000000000000000dcc0f55137456b1a82d3642486a52398922ac4d620174", "vout": [{"scriptPubKey": {"reqSigs": 1, "hex": "76a914ba072c1829786195aaff5173a6edb31937df0bda88ac", "addresses": ["1HxdH1y8YyP7pT2eJSCs4SxxuYFc3NKzoH"], "asm": "OP_DUP OP_HASH160 ba072c1829786195aaff5173a6edb31937df0bda OP_EQUALVERIFY OP_CHECKSIG", "type": "pubkeyhash"}, "value": 0.669, "n": 0}, {"scriptPubKey": {"reqSigs": 1, "hex": "76a91412718cf8879f9468e9a555da4e28bc5de45a807488ac", "addresses": ["12gXC6KDsy8my7xUtCYgNH6oUj1JAJ9LZn"], "asm": "OP_DUP OP_HASH160 12718cf8879f9468e9a555da4e28bc5de45a8074 OP_EQUALVERIFY OP_CHECKSIG", "type": "pubkeyhash"}, "value": 1.939834, "n": 1}], "hex": "0100000001024f1b31aaf6d4fe31fcfa9dd6022bdf531c7cb4fc77ed76d24c7446266c7bf7020000006a4730440220270769c52de64ed347a6eaa816db239d1e82a1f5f633ced6be6424f5dc4a1aa002201296d57de2b67975e4fde76297c0de842a8386866f621e5526a64debe29b0874012102b26dd063f6fb6f748072ca9d47e7643e5de07f17f9de6e77c5f46cdc849bd254ffffffff0220d0fc03000000001976a914ba072c1829786195aaff5173a6edb31937df0bda88aca8f38f0b000000001976a91412718cf8879f9468e9a555da4e28bc5de45a807488ac00000000", "vin": [{"sequence": 4294967295, "scriptSig": {"hex": "4730440220270769c52de64ed347a6eaa816db239d1e82a1f5f633ced6be6424f5dc4a1aa002201296d57de2b67975e4fde76297c0de842a8386866f621e5526a64debe29b0874012102b26dd063f6fb6f748072ca9d47e7643e5de07f17f9de6e77c5f46cdc849bd254", "asm": "30440220270769c52de64ed347a6eaa816db239d1e82a1f5f633ced6be6424f5dc4a1aa002201296d57de2b67975e4fde76297c0de842a8386866f621e5526a64debe29b0874[ALL] 02b26dd063f6fb6f748072ca9d47e7643e5de07f17f9de6e77c5f46cdc849bd254"}, "vout": 2, "txid": "f77b6c2646744cd276ed77fcb47c1c53df2b02d69dfafc31fed4f6aa311b4f02"}], "txid": "66e5d67a09f04b4b24ac70b7628786c5977a5c676a7ca15ba128db07e4170838", "blocktime": 1537870268, "version": 1, "confirmations": 11516, "time": 1537870268, "locktime": 0, "vsize": 225, "size": 225}