{"hash": "7191496f801a93c2031d1fedee48af28f5ed1a9fc8094851b2f1b30f9de6e936", "blockhash": "0000000000000000000e13cef7c366c0283d82e591d1acd082e914b08063cdf1", "vout": [{"scriptPubKey": {"reqSigs": 1, "hex": "a914be12b5a3656deab30f4d8045dda28e6f6d6a965487", "addresses": ["3K22ixB4hM1zNf8kRRd6nn8SbGDbSB14fW"], "asm": "OP_HASH160 be12b5a3656deab30f4d8045dda28e6f6d6a9654 OP_EQUAL", "type": "scripthash"}, "value": 0.05273169, "n": 0}, {"scriptPubKey": {"reqSigs": 1, "hex": "00140d88fe9fdd8fbbc321c59d8978e1ee054e70a1bd", "addresses": ["bc1qpky0a87a37auxgw9nkyh3c0wq488pgdalf00d5"], "asm": "0 0d88fe9fdd8fbbc321c59d8978e1ee054e70a1bd", "type": "witness_v0_keyhash"}, "value": 1.21776189, "n": 1}], "hex": "010000000001015aab0adef682994219d5badf3249bffb314231bf2c9c3f310eea6badf3a4add90100000000ffffffff02517650000000000017a914be12b5a3656deab30f4d8045dda28e6f6d6a9654873d284207000000001600140d88fe9fdd8fbbc321c59d8978e1ee054e70a1bd02483045022100f603014170f0608bdf01335789ea15e5184902e0578af8105b16968905faed7202203acbfb30726522c07afa4c2488bfeaff84cc61e1de4ae7052d606d56fc2b498a01210263b857816919b82515c2b282da0dcd5e851c06b017d87f390d22d88887bc0d5b00000000", "vin": [{"txinwitness": ["3045022100f603014170f0608bdf01335789ea15e5184902e0578af8105b16968905faed7202203acbfb30726522c07afa4c2488bfeaff84cc61e1de4ae7052d606d56fc2b498a01", "0263b857816919b82515c2b282da0dcd5e851c06b017d87f390d22d88887bc0d5b"], "sequence": 4294967295, "scriptSig": {"hex": "", "asm": ""}, "vout": 1, "txid": "d9ada4f3ad6bea0e313f9c2cbf314231fbbf4932dfbad519429982f6de0aab5a"}], "txid": "66f085ca244e44a78c15bb4042a815f5efa44d0ebf266d8212bb267f733a6f59", "blocktime": 1537871767, "version": 1, "confirmations": 11495, "time": 1537871767, "locktime": 0, "vsize": 142, "size": 224}