{"hash": "66f15c2e7899c85cddecaac5573cd0c7ccc6e402cc6b620f335991a4b5391266", "blockhash": "000000000000000000022b45ed06c6f4ccd3cf7fb5ba4856ebd2e58215665228", "vout": [{"scriptPubKey": {"type": "nulldata", "hex": "6a4c50000077620001ab72021cbf7a9755e6aa0aff86aeaeacb577c031fc3a016b46dc7dc7d0965ece4a7c5dd9de064fcf302c11a0c4e25baa07b906127d475b09230f1d100759d4ba30d2c37bb011d97e02cf", "asm": "OP_RETURN 000077620001ab72021cbf7a9755e6aa0aff86aeaeacb577c031fc3a016b46dc7dc7d0965ece4a7c5dd9de064fcf302c11a0c4e25baa07b906127d475b09230f1d100759d4ba30d2c37bb011d97e02cf"}, "value": 0.0, "n": 0}, {"scriptPubKey": {"reqSigs": 1, "hex": "76a914767e5f4ad08812e0ccc8a5dca6c5f9e172cdcb9888ac", "addresses": ["1BoY88hrFYEPE6PdXsykdVsRC1abGpixr8"], "asm": "OP_DUP OP_HASH160 767e5f4ad08812e0ccc8a5dca6c5f9e172cdcb98 OP_EQUALVERIFY OP_CHECKSIG", "type": "pubkeyhash"}, "value": 0.00650999, "n": 1}], "hex": "0100000001e43b2ef57c4641863099c6989199ee0c0f61169cbbba53594ea3be4c0ac3e8fa010000006b483045022100adda56fd59ed1ffb802bb085b2f093cd5de9d8beccddd92583f1bd864bf8b3f202205a7c49dbce4e55ae15c6a065522ac787b4be9289ff396dc973278634d9c1d405012102b5a3a12f9070058be250b90864f03e80e79502d6ee87b63030740c85e754e4c1ffffffff020000000000000000536a4c50000077620001ab72021cbf7a9755e6aa0aff86aeaeacb577c031fc3a016b46dc7dc7d0965ece4a7c5dd9de064fcf302c11a0c4e25baa07b906127d475b09230f1d100759d4ba30d2c37bb011d97e02cff7ee0900000000001976a914767e5f4ad08812e0ccc8a5dca6c5f9e172cdcb9888ac00000000", "vin": [{"sequence": 4294967295, "scriptSig": {"hex": "483045022100adda56fd59ed1ffb802bb085b2f093cd5de9d8beccddd92583f1bd864bf8b3f202205a7c49dbce4e55ae15c6a065522ac787b4be9289ff396dc973278634d9c1d405012102b5a3a12f9070058be250b90864f03e80e79502d6ee87b63030740c85e754e4c1", "asm": "3045022100adda56fd59ed1ffb802bb085b2f093cd5de9d8beccddd92583f1bd864bf8b3f202205a7c49dbce4e55ae15c6a065522ac787b4be9289ff396dc973278634d9c1d405[ALL] 02b5a3a12f9070058be250b90864f03e80e79502d6ee87b63030740c85e754e4c1"}, "vout": 1, "txid": "fae8c30a4cbea34e5953babb9c16610f0cee999198c699308641467cf52e3be4"}], "txid": "66f15c2e7899c85cddecaac5573cd0c7ccc6e402cc6b620f335991a4b5391266", "blocktime": 1537869901, "version": 1, "confirmations": 11523, "time": 1537869901, "locktime": 0, "vsize": 284, "size": 284}