{"hash": "66f34393d0bfb9673fd44b33ed96d27eccb0c7e355865ef9b5a1862b360ee8eb", "blockhash": "00000000000000000018f53835495a110e01622372bf6ae95dc86f2b0ab887b0", "vout": [{"scriptPubKey": {"reqSigs": 1, "hex": "a91482ffca21d7f06d531e54b7c9fae96709eadc00b787", "addresses": ["3DdgC43JXwkdtcwRDLAExqFKo2vDqZjzRw"], "asm": "OP_HASH160 82ffca21d7f06d531e54b7c9fae96709eadc00b7 OP_EQUAL", "type": "scripthash"}, "value": 0.00134306, "n": 0}], "hex": "0100000001015e6fbcff322cb49fd3710b5f35b792d1ab63f3206a2583a7ca0c8355c0dd2e000000006a47304402203c3bc637f95a14f4c3fb9273c068104b915d4b9362ceb0178fba81568e756d3f022075262a19f1b1ee07efa8cf02d32718bbe4406deadf1b421aceaf28377bb28141012102a83b72fa219283f35b668c9a327a54793175a4ef350c89fb6c1032784f4c2338ffffffff01a20c02000000000017a91482ffca21d7f06d531e54b7c9fae96709eadc00b78700000000", "vin": [{"sequence": 4294967295, "scriptSig": {"hex": "47304402203c3bc637f95a14f4c3fb9273c068104b915d4b9362ceb0178fba81568e756d3f022075262a19f1b1ee07efa8cf02d32718bbe4406deadf1b421aceaf28377bb28141012102a83b72fa219283f35b668c9a327a54793175a4ef350c89fb6c1032784f4c2338", "asm": "304402203c3bc637f95a14f4c3fb9273c068104b915d4b9362ceb0178fba81568e756d3f022075262a19f1b1ee07efa8cf02d32718bbe4406deadf1b421aceaf28377bb28141[ALL] 02a83b72fa219283f35b668c9a327a54793175a4ef350c89fb6c1032784f4c2338"}, "vout": 0, "txid": "2eddc055830ccaa783256a20f363abd192b7355f0b71d39fb42c32ffbc6f5e01"}], "txid": "66f34393d0bfb9673fd44b33ed96d27eccb0c7e355865ef9b5a1862b360ee8eb", "blocktime": 1537870928, "version": 1, "confirmations": 11512, "time": 1537870928, "locktime": 0, "vsize": 189, "size": 189}