{"hash": "b059b8f2766ae63e7f9b5ad53285c95b102092034759f1166cab891aa7e1c2c1", "blockhash": "0000000000000000000e13cef7c366c0283d82e591d1acd082e914b08063cdf1", "vout": [{"scriptPubKey": {"reqSigs": 1, "hex": "76a914f64e5267f520a80287397686ec1871f4b9c45a5288ac", "addresses": ["1PTM46Hqe3TCwLn2FtVrRuRcsB7UAr8PTT"], "asm": "OP_DUP OP_HASH160 f64e5267f520a80287397686ec1871f4b9c45a52 OP_EQUALVERIFY OP_CHECKSIG", "type": "pubkeyhash"}, "value": 0.0057158, "n": 0}, {"scriptPubKey": {"reqSigs": 1, "hex": "a91400b10fc4c5f3192b7c8ed42ad0a8e8e7120b957087", "addresses": ["31kg2zuMihkTfRE51mTez8suQoNQRA3A2C"], "asm": "OP_HASH160 00b10fc4c5f3192b7c8ed42ad0a8e8e7120b9570 OP_EQUAL", "type": "scripthash"}, "value": 3.671e-05, "n": 1}], "hex": "010000000001014e5cd303725b1ceef0845d2c44d06fcbebc44eaf24d3aff5ea00cc1919d0d8dc010000002322002068e51c0575a66c114b16e47a270bc802a12adaa8ab9f2e6d436968bbf31681b6ffffffff02bcb80800000000001976a914f64e5267f520a80287397686ec1871f4b9c45a5288ac570e00000000000017a91400b10fc4c5f3192b7c8ed42ad0a8e8e7120b957087040047304402204cf49dafa6d011425d7facdc834fcf6cb4dbb74f508ed07b478f691098947bc0022073a8100d82032358971f5dd586a718001bea44a522c9f7a43461cef1526772e101473044022058c900528fc3f408be3cb974f8d625bb9a6a54d762d5407bc4e25e09fc4dc9e6022029f580addc3b549b09a04f79f265b048f8e540b75c66d1a3c70b71687c1599ac01475221033edec7325985118dbb41ad8a6b65d0a8fec50646fcf4c26287280b6091a9eb8d2102d8cbd56fe56ed46b7d86e915d643e8519cf5f3c693f8be00c1dd5ac66394422e52ae00000000", "vin": [{"txinwitness": ["", "304402204cf49dafa6d011425d7facdc834fcf6cb4dbb74f508ed07b478f691098947bc0022073a8100d82032358971f5dd586a718001bea44a522c9f7a43461cef1526772e101", "3044022058c900528fc3f408be3cb974f8d625bb9a6a54d762d5407bc4e25e09fc4dc9e6022029f580addc3b549b09a04f79f265b048f8e540b75c66d1a3c70b71687c1599ac01", "5221033edec7325985118dbb41ad8a6b65d0a8fec50646fcf4c26287280b6091a9eb8d2102d8cbd56fe56ed46b7d86e915d643e8519cf5f3c693f8be00c1dd5ac66394422e52ae"], "sequence": 4294967295, "scriptSig": {"hex": "22002068e51c0575a66c114b16e47a270bc802a12adaa8ab9f2e6d436968bbf31681b6", "asm": "002068e51c0575a66c114b16e47a270bc802a12adaa8ab9f2e6d436968bbf31681b6"}, "vout": 1, "txid": "dcd8d01919cc00eaf5afd324af4ec4ebcb6fd0442c5d84f0ee1c5b7203d35c4e"}], "txid": "66fa12034914af1ca812928648bcabf0cb2208fe018026a49b259cbe4c2cf4f6", "blocktime": 1537871767, "version": 1, "confirmations": 11495, "time": 1537871767, "locktime": 0, "vsize": 207, "size": 372}