{"hash": "dc04b87571fd494b8bf248a059fbe6afc41425dcc1c22d220a52eac4a8bd9b0b", "blockhash": "000000000000000000022b45ed06c6f4ccd3cf7fb5ba4856ebd2e58215665228", "vout": [{"scriptPubKey": {"reqSigs": 1, "hex": "76a9148f2387de0fb9076ca09aa6f32752aaee606ca37c88ac", "addresses": ["1E3rC9ic3d64dcxGaa2YNTYJo37J7tAFzR"], "asm": "OP_DUP OP_HASH160 8f2387de0fb9076ca09aa6f32752aaee606ca37c OP_EQUALVERIFY OP_CHECKSIG", "type": "pubkeyhash"}, "value": 0.00127764, "n": 0}, {"scriptPubKey": {"reqSigs": 1, "hex": "a9148fae2af9781ab3abbc1c3f4a3cb551f72c6bfe1787", "addresses": ["3EnjCNUyK52y7SwwQQNCPQhEUNUYYjtuKY"], "asm": "OP_HASH160 8fae2af9781ab3abbc1c3f4a3cb551f72c6bfe17 OP_EQUAL", "type": "scripthash"}, "value": 0.01000416, "n": 1}], "hex": "020000000001034d19ba6bbb3f74cdac505e957ba00edfa540d153cc9ca9ff84810c0849429d070000000017160014e877e1e3c08185cf127d8d389801ea633cc9deb3feffffffb9408921fe941cc7e47b4ac4977f56a1e56247e2344805b345a7b68983d94af50100000017160014ca36638a9fc298751262dc87063cf8a4890466d5feffffffffcb9bb0194df844b7e45604a956bdfe22d15996abf042fefa0bd6265ccbb3f8090000001716001478a6326595731e24ec3e9a640fc5000184afd820feffffff0214f30100000000001976a9148f2387de0fb9076ca09aa6f32752aaee606ca37c88ace0430f000000000017a9148fae2af9781ab3abbc1c3f4a3cb551f72c6bfe17870247304402200d5c3a0c5ed53bba705b318a5bdcbe49cbc423bf6a0349be03467de0c5a3ef8602204811303b4a87f98e8f49878a302ec6a822a406ab12a528b1d46f49fec93b9c170121036b360cfce0e27c15e8598595dd19a4f01b0804a85d0f454bffb6a099e914e26502483045022100f03f216a598a41d837a174351bc85b00328d532b8188f7419517032e2860ef8202201c5606553608608ab6dd5a1cb7acefdb169ad26ffee2c0d3a98d80265aee21cb012102307899a7d9d984fe0f7eb5ef95717edc581bbea5bc86fed9e30e183bdc1611da024830450221008ed86dff2be2f3870b5a15f0f06e0425354f619776bb39d3021158d7a4b8c578022056aa5172c1028baa5b05cd379642e9741bba6d76c044a598323e871e4835bda701210284943534f9406a7b5510366fdadad08e76ec3ff5050b79e8141a285ab2b05cf20b490800", "vin": [{"txinwitness": ["304402200d5c3a0c5ed53bba705b318a5bdcbe49cbc423bf6a0349be03467de0c5a3ef8602204811303b4a87f98e8f49878a302ec6a822a406ab12a528b1d46f49fec93b9c1701", "036b360cfce0e27c15e8598595dd19a4f01b0804a85d0f454bffb6a099e914e265"], "sequence": 4294967294, "scriptSig": {"hex": "160014e877e1e3c08185cf127d8d389801ea633cc9deb3", "asm": "0014e877e1e3c08185cf127d8d389801ea633cc9deb3"}, "vout": 0, "txid": "079d4249080c8184ffa99ccc53d140a5df0ea07b955e50accd743fbb6bba194d"}, {"txinwitness": ["3045022100f03f216a598a41d837a174351bc85b00328d532b8188f7419517032e2860ef8202201c5606553608608ab6dd5a1cb7acefdb169ad26ffee2c0d3a98d80265aee21cb01", "02307899a7d9d984fe0f7eb5ef95717edc581bbea5bc86fed9e30e183bdc1611da"], "sequence": 4294967294, "scriptSig": {"hex": "160014ca36638a9fc298751262dc87063cf8a4890466d5", "asm": "0014ca36638a9fc298751262dc87063cf8a4890466d5"}, "vout": 1, "txid": "f54ad98389b6a745b3054834e24762e5a1567f97c44a7be4c71c94fe218940b9"}, {"txinwitness": ["30450221008ed86dff2be2f3870b5a15f0f06e0425354f619776bb39d3021158d7a4b8c578022056aa5172c1028baa5b05cd379642e9741bba6d76c044a598323e871e4835bda701", "0284943534f9406a7b5510366fdadad08e76ec3ff5050b79e8141a285ab2b05cf2"], "sequence": 4294967294, "scriptSig": {"hex": "16001478a6326595731e24ec3e9a640fc5000184afd820", "asm": "001478a6326595731e24ec3e9a640fc5000184afd820"}, "vout": 9, "txid": "f8b3cb5c26d60bfafe42f0ab9659d122febd56a90456e4b744f84d19b09bcbff"}], "txid": "6708ba6f63a0a61c0e5ddd457cb2071fcefc38b68f9ce2697ac3f02f2c1cb138", "blocktime": 1537869901, "version": 2, "confirmations": 11523, "time": 1537869901, "locktime": 542987, "vsize": 350, "size": 593}