{"hash": "7bc972b06fcecd792aa64390f01b9c4361b8c4f83271e2cf58cced3d9e3230e8", "blockhash": "000000000000000000022b45ed06c6f4ccd3cf7fb5ba4856ebd2e58215665228", "vout": [{"scriptPubKey": {"reqSigs": 1, "hex": "76a9142e1b944fe7ffbe969fc1df8d662fd7b5d6303c9b88ac", "addresses": ["15Co856cRnFRCKwSSzECoyT3ozVhuFoJZ6"], "asm": "OP_DUP OP_HASH160 2e1b944fe7ffbe969fc1df8d662fd7b5d6303c9b OP_EQUALVERIFY OP_CHECKSIG", "type": "pubkeyhash"}, "value": 0.0023646, "n": 0}, {"scriptPubKey": {"reqSigs": 1, "hex": "a914dfaa09eafad49cee05b5f44ad9ceb915a5dbe40e87", "addresses": ["3N5eJpZYm4FVabJGSh5QbQpaB1ENhj1K4x"], "asm": "OP_HASH160 dfaa09eafad49cee05b5f44ad9ceb915a5dbe40e OP_EQUAL", "type": "scripthash"}, "value": 0.0104701, "n": 1}], "hex": "02000000000102305ee7ef07e6d1de43e93f356f4ada5879bd9df329533ac27c5918860d13de991100000017160014ee6cd3d266281d3283536912b84b67bba5615396feffffffbe365d16cbbc83a75611d58fc31131e4e2c7261741a3341ec9be41bb352fdfcb01000000171600140020d2710207d3fe8f24757506d99e42867fc1e7feffffff02ac9b0300000000001976a9142e1b944fe7ffbe969fc1df8d662fd7b5d6303c9b88ace2f90f000000000017a914dfaa09eafad49cee05b5f44ad9ceb915a5dbe40e87024830450221009cf36ee65c3784fe5eff75c9e3488d63e09bcbc945eacc65541990a3fa864d0902202f17de62312f0335bbefca4e9db4be769a0d181a4f55bdf6d5d86145b1d2c1880121035f078e35ecc1c52afee6fcd9e08b1016d2cdab2e5a48d7553c95d9d18ada9a1702483045022100a4c621445f518d016ad08b3a9c71857151274d19a204b6d8fc2efda6500fed9102203faabccadc5679d53c0326a961636056e95158ce930f4b5501981556ee0fdd050121023dee4d445583ae39ce66bbbeffd2d551cc2b560a90a2d7d2b18408f8606163ed0b490800", "vin": [{"txinwitness": ["30450221009cf36ee65c3784fe5eff75c9e3488d63e09bcbc945eacc65541990a3fa864d0902202f17de62312f0335bbefca4e9db4be769a0d181a4f55bdf6d5d86145b1d2c18801", "035f078e35ecc1c52afee6fcd9e08b1016d2cdab2e5a48d7553c95d9d18ada9a17"], "sequence": 4294967294, "scriptSig": {"hex": "160014ee6cd3d266281d3283536912b84b67bba5615396", "asm": "0014ee6cd3d266281d3283536912b84b67bba5615396"}, "vout": 17, "txid": "99de130d8618597cc23a5329f39dbd7958da4a6f353fe943ded1e607efe75e30"}, {"txinwitness": ["3045022100a4c621445f518d016ad08b3a9c71857151274d19a204b6d8fc2efda6500fed9102203faabccadc5679d53c0326a961636056e95158ce930f4b5501981556ee0fdd0501", "023dee4d445583ae39ce66bbbeffd2d551cc2b560a90a2d7d2b18408f8606163ed"], "sequence": 4294967294, "scriptSig": {"hex": "1600140020d2710207d3fe8f24757506d99e42867fc1e7", "asm": "00140020d2710207d3fe8f24757506d99e42867fc1e7"}, "vout": 1, "txid": "cbdf2f35bb41bec91e34a3411726c7e2e43111c38fd51156a783bccb165d36be"}], "txid": "670950633a348326d13e77094252574ae44d675b3ba7597220cc601188874852", "blocktime": 1537869901, "version": 2, "confirmations": 11524, "time": 1537869901, "locktime": 542987, "vsize": 259, "size": 422}