{"hash": "8df0ebd48188b1a951ad9520fe5b7e8cf485a20f09449f50f38fe8775f70e680", "blockhash": "0000000000000000001f0ddff1eddb255c1121bcd4da4f1bc9a0da00cae72433", "vout": [{"scriptPubKey": {"reqSigs": 1, "hex": "a9145a3494f50ccac2b139ea10eccdcf62a724c9d60f87", "addresses": ["39uyjG4T9597424T4FYUVUk2RWVT7571fh"], "asm": "OP_HASH160 5a3494f50ccac2b139ea10eccdcf62a724c9d60f OP_EQUAL", "type": "scripthash"}, "value": 0.00017969, "n": 0}, {"scriptPubKey": {"reqSigs": 1, "hex": "a914414cec0fc72a9410f6836edaf08de1aa3b2a321c87", "addresses": ["37eHzewnAFRR2SVZu8rZM3nBsmuE2XBU7D"], "asm": "OP_HASH160 414cec0fc72a9410f6836edaf08de1aa3b2a321c OP_EQUAL", "type": "scripthash"}, "value": 0.26397238, "n": 1}], "hex": "0100000000010180792f4b91b6ce791e20a8edeff30033603fcbfd3d5ffe2acae3ce25a6858b580100000023220020ce74cde37cfb8dd71d0179287e12fc721ee236ce3c89c2745bcd365b39807eb3ffffffff02314600000000000017a9145a3494f50ccac2b139ea10eccdcf62a724c9d60f8736ca92010000000017a914414cec0fc72a9410f6836edaf08de1aa3b2a321c870400483045022100faa873ebb4f29d3a6af4e32da821a0e2a0db1487ee25ba6a349fcd538c4ac7b502204353f0d16ac4e909f79afd4a49a400080fc7e096a40fa7c2c6c58a4031c4fa5b01483045022100cd9d1c4e2bf7410317ee57f196e1560467b33a3c6ef74ed052c3cd1bbfe1e255022006cd4304e4611a4dfa746a01c7af8d46044fcb4c94bba34745798bc46c9c7f920147522103ada901d90d5a76319a60f228e0b1bbc84b1d9a87238550bae5d5d190067b66712103871fc2ca08e6950b38867e8e6a0e94ee625223d3aa0df5c65f414c6d784467e252ae00000000", "vin": [{"txinwitness": ["", "3045022100faa873ebb4f29d3a6af4e32da821a0e2a0db1487ee25ba6a349fcd538c4ac7b502204353f0d16ac4e909f79afd4a49a400080fc7e096a40fa7c2c6c58a4031c4fa5b01", "3045022100cd9d1c4e2bf7410317ee57f196e1560467b33a3c6ef74ed052c3cd1bbfe1e255022006cd4304e4611a4dfa746a01c7af8d46044fcb4c94bba34745798bc46c9c7f9201", "522103ada901d90d5a76319a60f228e0b1bbc84b1d9a87238550bae5d5d190067b66712103871fc2ca08e6950b38867e8e6a0e94ee625223d3aa0df5c65f414c6d784467e252ae"], "sequence": 4294967295, "scriptSig": {"hex": "220020ce74cde37cfb8dd71d0179287e12fc721ee236ce3c89c2745bcd365b39807eb3", "asm": "0020ce74cde37cfb8dd71d0179287e12fc721ee236ce3c89c2745bcd365b39807eb3"}, "vout": 1, "txid": "588b85a625cee3ca2afe5f3dfdcb3f603300f3efeda8201e79ceb6914b2f7980"}], "txid": "670e80dfa16bf82f9797985554e8b693ce1eee10fdfb59150195d520d89596ec", "blocktime": 1537872018, "version": 1, "confirmations": 11489, "time": 1537872018, "locktime": 0, "vsize": 206, "size": 372}