{"hash": "6711ada66327886451f7288facc90c38d88a7f1c5ece656ae4d2bc707cad635e", "blockhash": "0000000000000000001f76057863aec43deb6fa401d9628bb513d65a8098bfab", "vout": [{"scriptPubKey": {"reqSigs": 1, "hex": "76a9143b5d72b870c57dc7d1c97e7625b0ffbed7090dbc88ac", "addresses": ["16QtpD3czGeq8k2kzar4W63zANt6PXXe7u"], "asm": "OP_DUP OP_HASH160 3b5d72b870c57dc7d1c97e7625b0ffbed7090dbc OP_EQUALVERIFY OP_CHECKSIG", "type": "pubkeyhash"}, "value": 0.01250137, "n": 0}, {"scriptPubKey": {"reqSigs": 1, "hex": "76a9149990c9b5a35e5bcd099c64680f1f6754ac04d8da88ac", "addresses": ["1EzyqPiVTpiZ2CHmmSCJGuMF9P8DVCtz5z"], "asm": "OP_DUP OP_HASH160 9990c9b5a35e5bcd099c64680f1f6754ac04d8da OP_EQUALVERIFY OP_CHECKSIG", "type": "pubkeyhash"}, "value": 0.0468365, "n": 1}], "hex": "010000000132e741beac8f2d9da241871fcf30fc8d7d324ef5f000a53d8ccd3a33393d3c12010000006b483045022100fa4e9f506f3488631da5d47aa36f40aad812a6f53df6029db6859649c3c1629b022025c6a6a536a832c9587c1891adc186e2e40a60f88d1b4f1307c54a52175408b40121035642d342333a0c82b4a37c75097d7719ca63fb6cd7c58901b942a8fcba223f2fffffffff0259131300000000001976a9143b5d72b870c57dc7d1c97e7625b0ffbed7090dbc88ac82774700000000001976a9149990c9b5a35e5bcd099c64680f1f6754ac04d8da88ac00000000", "vin": [{"sequence": 4294967295, "scriptSig": {"hex": "483045022100fa4e9f506f3488631da5d47aa36f40aad812a6f53df6029db6859649c3c1629b022025c6a6a536a832c9587c1891adc186e2e40a60f88d1b4f1307c54a52175408b40121035642d342333a0c82b4a37c75097d7719ca63fb6cd7c58901b942a8fcba223f2f", "asm": "3045022100fa4e9f506f3488631da5d47aa36f40aad812a6f53df6029db6859649c3c1629b022025c6a6a536a832c9587c1891adc186e2e40a60f88d1b4f1307c54a52175408b4[ALL] 035642d342333a0c82b4a37c75097d7719ca63fb6cd7c58901b942a8fcba223f2f"}, "vout": 1, "txid": "123c3d39333acd8c3da500f0f54e327d8dfc30cf1f8741a29d2d8facbe41e732"}], "txid": "6711ada66327886451f7288facc90c38d88a7f1c5ece656ae4d2bc707cad635e", "blocktime": 1537873891, "version": 1, "confirmations": 11475, "time": 1537873891, "locktime": 0, "vsize": 226, "size": 226}