{"hash": "671668b0daec5c48c008bd62244b244002a823e8f9aaf3a5dd4b67dc888a25bc", "blockhash": "0000000000000000000dcc0f55137456b1a82d3642486a52398922ac4d620174", "vout": [{"scriptPubKey": {"reqSigs": 1, "hex": "a9147d039ec5044ea71249943ce1aaa2f8dcaf7edfae87", "addresses": ["3D62j4KTQLUUPnwZnNwXnkn9KC8WLahk4U"], "asm": "OP_HASH160 7d039ec5044ea71249943ce1aaa2f8dcaf7edfae OP_EQUAL", "type": "scripthash"}, "value": 0.00147647, "n": 0}], "hex": "0100000001d51b22c95db4f7b1f48ee6a31d608a3e6589168f6c684cac0fe6b3f0c1716463020000006a47304402205c599b8d2f4da7253a5dca6f64e58d4542db393242f46e06e123d299d8f8fc7a0220638fa60714e5441c46f3922c889cca4305ead4e231ef87a7840852613788af670121023840948da6948508f39bb28e90794739e8176fe6807b3d8c537fa5a51ba68d1fffffffff01bf4002000000000017a9147d039ec5044ea71249943ce1aaa2f8dcaf7edfae8700000000", "vin": [{"sequence": 4294967295, "scriptSig": {"hex": "47304402205c599b8d2f4da7253a5dca6f64e58d4542db393242f46e06e123d299d8f8fc7a0220638fa60714e5441c46f3922c889cca4305ead4e231ef87a7840852613788af670121023840948da6948508f39bb28e90794739e8176fe6807b3d8c537fa5a51ba68d1f", "asm": "304402205c599b8d2f4da7253a5dca6f64e58d4542db393242f46e06e123d299d8f8fc7a0220638fa60714e5441c46f3922c889cca4305ead4e231ef87a7840852613788af67[ALL] 023840948da6948508f39bb28e90794739e8176fe6807b3d8c537fa5a51ba68d1f"}, "vout": 2, "txid": "636471c1f0b3e60fac4c686c8f1689653e8a601da3e68ef4b1f7b45dc9221bd5"}], "txid": "671668b0daec5c48c008bd62244b244002a823e8f9aaf3a5dd4b67dc888a25bc", "blocktime": 1537870268, "version": 1, "confirmations": 11516, "time": 1537870268, "locktime": 0, "vsize": 189, "size": 189}