{"hash": "66d593caff122684cdb6f96560375fc71a6009ac0c5de192a778fabe20bc5e26", "blockhash": "0000000000000000000e13cef7c366c0283d82e591d1acd082e914b08063cdf1", "vout": [{"scriptPubKey": {"reqSigs": 1, "hex": "a914438dcfe9cd33c4c86d5c92559947d2903560271c87", "addresses": ["37rD5gHNZUm2KKuzr2TJZzjRJ4eH1Uwomm"], "asm": "OP_HASH160 438dcfe9cd33c4c86d5c92559947d2903560271c OP_EQUAL", "type": "scripthash"}, "value": 0.85140145, "n": 0}, {"scriptPubKey": {"reqSigs": 1, "hex": "76a914fba704ac627dfdb0d50991ca52ee86a939b4e1b688ac", "addresses": ["1PwcgnKAd2v9oY5EXNaUcEAKS9L8aFGYpg"], "asm": "OP_DUP OP_HASH160 fba704ac627dfdb0d50991ca52ee86a939b4e1b6 OP_EQUALVERIFY OP_CHECKSIG", "type": "pubkeyhash"}, "value": 0.183184, "n": 1}], "hex": "01000000000101ab43891f65c503d47ce271a011ddc92ce2d5fe60df81a63ae65216c6a36fdb690000000023220020532b75e281a02760a0713eccf97930ee9ee7accb900c1a89e24ba16d1aa4d8d0ffffffff02b12213050000000017a914438dcfe9cd33c4c86d5c92559947d2903560271c8740841701000000001976a914fba704ac627dfdb0d50991ca52ee86a939b4e1b688ac0400483045022100d62ddf8f70a51956c6f8cd60ad653b72cef8a3803fc4af3ff20e50c31c1817b40220569c814eafb8cd94190b6c9292e4c18aada3b2d49ab4d0076ade26cc3f24894601483045022100f369c4e2911d24a3b5282c9505b8da8e46f4e689c14a13a42cfe9f91e4e9ac6b022039c9a2b06ec575836ed3f39f15861a11794b7099dba5c38f1e50fa1b97977249016952210215dc498ca0ab35b1fbfbbd499b105d2659bc138dbc89fd3f8f7999fba8d2d839210378089b4380206d4c6c838230e2604be6c5cafacb4c88a057856f072f45c7b44c2102d2855e83e40799a52f8a562eb1f9c5e3d92c8e1e356083197e7c05e5c00087ee53ae00000000", "vin": [{"txinwitness": ["", "3045022100d62ddf8f70a51956c6f8cd60ad653b72cef8a3803fc4af3ff20e50c31c1817b40220569c814eafb8cd94190b6c9292e4c18aada3b2d49ab4d0076ade26cc3f24894601", "3045022100f369c4e2911d24a3b5282c9505b8da8e46f4e689c14a13a42cfe9f91e4e9ac6b022039c9a2b06ec575836ed3f39f15861a11794b7099dba5c38f1e50fa1b9797724901", "52210215dc498ca0ab35b1fbfbbd499b105d2659bc138dbc89fd3f8f7999fba8d2d839210378089b4380206d4c6c838230e2604be6c5cafacb4c88a057856f072f45c7b44c2102d2855e83e40799a52f8a562eb1f9c5e3d92c8e1e356083197e7c05e5c00087ee53ae"], "sequence": 4294967295, "scriptSig": {"hex": "220020532b75e281a02760a0713eccf97930ee9ee7accb900c1a89e24ba16d1aa4d8d0", "asm": "0020532b75e281a02760a0713eccf97930ee9ee7accb900c1a89e24ba16d1aa4d8d0"}, "vout": 0, "txid": "69db6fa3c61652e63aa681df60fed5e22cc9dd11a071e27cd403c5651f8943ab"}], "txid": "671a1fbd39b0d3ee508c6fe24ba600f158ccf927feea18a82486ad8db1e68c24", "blocktime": 1537871767, "version": 1, "confirmations": 11495, "time": 1537871767, "locktime": 0, "vsize": 216, "size": 408}