{"hash": "671d1291ec22fc672702f852186b8e50997ec65107d8f0f37eeb208fb68a659e", "blockhash": "00000000000000000024a2167bbff67b0be802c0b01cdd79e6331c2be6459f87", "vout": [{"scriptPubKey": {"reqSigs": 1, "hex": "a9141e6686830cfb9542e7ec60d2ab837639f31f039a87", "addresses": ["34Tm1tdL4vMAESrDxJPMmZZyoQ9yXyeuyW"], "asm": "OP_HASH160 1e6686830cfb9542e7ec60d2ab837639f31f039a OP_EQUAL", "type": "scripthash"}, "value": 0.01115134, "n": 0}, {"scriptPubKey": {"reqSigs": 1, "hex": "76a91492fc76d49f590d9c6dd9d62fdaf139a033cbe37688ac", "addresses": ["1EQC6XWsR7s1GTCqfwQCQ8arHHNTNZe7GW"], "asm": "OP_DUP OP_HASH160 92fc76d49f590d9c6dd9d62fdaf139a033cbe376 OP_EQUALVERIFY OP_CHECKSIG", "type": "pubkeyhash"}, "value": 0.0265, "n": 1}, {"scriptPubKey": {"reqSigs": 1, "hex": "a91410d6565d55e0bd89695b42bb3ef16bfd31a5fe0f87", "addresses": ["33E3W2vfqUGmb3f5jYA3XwFGqnUctEA9Hp"], "asm": "OP_HASH160 10d6565d55e0bd89695b42bb3ef16bfd31a5fe0f OP_EQUAL", "type": "scripthash"}, "value": 0.05663019, "n": 2}, {"scriptPubKey": {"reqSigs": 1, "hex": "a91419513cdc47ae267743150aea7760e8e92206f92287", "addresses": ["33zt8qTqYXe9LvZCBEg3wwJabwtX8gXedn"], "asm": "OP_HASH160 19513cdc47ae267743150aea7760e8e92206f922 OP_EQUAL", "type": "scripthash"}, "value": 1.0, "n": 3}, {"scriptPubKey": {"reqSigs": 1, "hex": "a9142b18b37ec65102a5236e5a584c0259dcf390de6987", "addresses": ["35cta4MdRvwqaAb24MxFZAphpfDnwx9oXL"], "asm": "OP_HASH160 2b18b37ec65102a5236e5a584c0259dcf390de69 OP_EQUAL", "type": "scripthash"}, "value": 1.69340172, "n": 4}, {"scriptPubKey": {"reqSigs": 1, "hex": "76a91443849383122ebb8a28268a89700c9f723663b5b888ac", "addresses": ["17A16QmavnUfCW11DAApiJxp7ARnxN5pGX"], "asm": "OP_DUP OP_HASH160 43849383122ebb8a28268a89700c9f723663b5b8 OP_EQUALVERIFY OP_CHECKSIG", "type": "pubkeyhash"}, "value": 0.28321817, "n": 5}], "hex": "02000000017799d6ef6c9b320ff2de58c90c84be9d13bef4c4cd88ad84dedf8d06bbb5ffa0070000008b483045022100fbd0a91596637c9b5870990517847ac1db19736c01cf34ff7b3e0df19c617665022072a3869330a61accc0550d283fcd435fa211aaa17e601a1ddd27f26bba3f46d60141047146f0e0fcb3139947cf0beb870fe251930ca10d4545793d31033e801b5219abf56c11a3cf3406ca590e4c14b0dab749d20862b3adc4709153c280c2a78be10cffffffff06fe0311000000000017a9141e6686830cfb9542e7ec60d2ab837639f31f039a87906f2800000000001976a91492fc76d49f590d9c6dd9d62fdaf139a033cbe37688ac2b6956000000000017a91410d6565d55e0bd89695b42bb3ef16bfd31a5fe0f8700e1f5050000000017a91419513cdc47ae267743150aea7760e8e92206f922870ced170a0000000017a9142b18b37ec65102a5236e5a584c0259dcf390de69871928b001000000001976a91443849383122ebb8a28268a89700c9f723663b5b888ac00000000", "vin": [{"sequence": 4294967295, "scriptSig": {"hex": "483045022100fbd0a91596637c9b5870990517847ac1db19736c01cf34ff7b3e0df19c617665022072a3869330a61accc0550d283fcd435fa211aaa17e601a1ddd27f26bba3f46d60141047146f0e0fcb3139947cf0beb870fe251930ca10d4545793d31033e801b5219abf56c11a3cf3406ca590e4c14b0dab749d20862b3adc4709153c280c2a78be10c", "asm": "3045022100fbd0a91596637c9b5870990517847ac1db19736c01cf34ff7b3e0df19c617665022072a3869330a61accc0550d283fcd435fa211aaa17e601a1ddd27f26bba3f46d6[ALL] 047146f0e0fcb3139947cf0beb870fe251930ca10d4545793d31033e801b5219abf56c11a3cf3406ca590e4c14b0dab749d20862b3adc4709153c280c2a78be10c"}, "vout": 7, "txid": "a0ffb5bb068ddfde84ad88cdc4f4be139dbe840cc958def20f329b6cefd69977"}], "txid": "671d1291ec22fc672702f852186b8e50997ec65107d8f0f37eeb208fb68a659e", "blocktime": 1537870564, "version": 2, "confirmations": 11515, "time": 1537870564, "locktime": 0, "vsize": 386, "size": 386}