{"hash": "08a6810e1f770c422574e5f5336d1caa1cdf246ce0cc42134ae5cb2c3d512f75", "blockhash": "0000000000000000000baef3f32e3676a92c3b2e5da21b426e4f302fc371ce76", "vout": [{"scriptPubKey": {"reqSigs": 1, "hex": "76a9141e5a98dd38c1cae1a72086a14b159da32f2ddda988ac", "addresses": ["13mVoZ79o2jiiQKjxcpTePYZLWFrpMi5Fm"], "asm": "OP_DUP OP_HASH160 1e5a98dd38c1cae1a72086a14b159da32f2ddda9 OP_EQUALVERIFY OP_CHECKSIG", "type": "pubkeyhash"}, "value": 0.0031106, "n": 0}, {"scriptPubKey": {"reqSigs": 1, "hex": "a9142eedf014730ada62a60a4e591267490a749e395a87", "addresses": ["35yA3aR9v4MCLVP8bVsi3p8242F6FQPEcL"], "asm": "OP_HASH160 2eedf014730ada62a60a4e591267490a749e395a OP_EQUAL", "type": "scripthash"}, "value": 0.01156842, "n": 1}], "hex": "0200000000010201f880f04da27a0d17a0c036c7e9f3fb00ae622c107e9f290402e740fe66857d00000000171600148f13a5db3ef46606d4a0e546980da63ee60637a3feffffff4debeb79fcdeb61671a824f5c7b7b8c53d4529c10686dc3fa5623ce3f66d02f9070000001716001406858481541524a13779207d56a66c0dd427f6f2feffffff0214bf0400000000001976a9141e5a98dd38c1cae1a72086a14b159da32f2ddda988aceaa611000000000017a9142eedf014730ada62a60a4e591267490a749e395a870247304402202ef4d781613c8721e1addc53c82412b127b75a1d94f4e95900e791f8b09222be02204befa132d5cc447c52bf5f1bbec1bc1215b6af7ce5794a71fd7563e5d3e6d7430121034826d7e281e7111f8dbc048e454b7a7f8e685f2e08e8f263f1453b5c6e092ae80247304402206ae589e08becc35c3ad5b4fb81e0429cb9ce336d11e1d751709744e04b39718902201e6545da037ddd02b9b07f6df36c89043bb64e392651d389b06c04df567396900121034070d8e8b7a85f32efc1d89c248191f474d433573dcc02a17a0406bfc653f71d17490800", "vin": [{"txinwitness": ["304402202ef4d781613c8721e1addc53c82412b127b75a1d94f4e95900e791f8b09222be02204befa132d5cc447c52bf5f1bbec1bc1215b6af7ce5794a71fd7563e5d3e6d74301", "034826d7e281e7111f8dbc048e454b7a7f8e685f2e08e8f263f1453b5c6e092ae8"], "sequence": 4294967294, "scriptSig": {"hex": "1600148f13a5db3ef46606d4a0e546980da63ee60637a3", "asm": "00148f13a5db3ef46606d4a0e546980da63ee60637a3"}, "vout": 0, "txid": "7d8566fe40e70204299f7e102c62ae00fbf3e9c736c0a0170d7aa24df080f801"}, {"txinwitness": ["304402206ae589e08becc35c3ad5b4fb81e0429cb9ce336d11e1d751709744e04b39718902201e6545da037ddd02b9b07f6df36c89043bb64e392651d389b06c04df5673969001", "034070d8e8b7a85f32efc1d89c248191f474d433573dcc02a17a0406bfc653f71d"], "sequence": 4294967294, "scriptSig": {"hex": "16001406858481541524a13779207d56a66c0dd427f6f2", "asm": "001406858481541524a13779207d56a66c0dd427f6f2"}, "vout": 7, "txid": "f9026df6e33c62a53fdc8606c129453dc5b8b7c7f524a87116b6defc79ebeb4d"}], "txid": "672278b66022245d23a414eecda2fdceee6404522827d7f4dfb876bdbbf1248a", "blocktime": 1537876114, "version": 2, "confirmations": 11461, "time": 1537876114, "locktime": 542999, "vsize": 258, "size": 420}