{"hash": "1f442ea1ccfdeb67b33e0fcee0b090d3542053dfe613d46da758c49389ca2422", "blockhash": "00000000000000000018f53835495a110e01622372bf6ae95dc86f2b0ab887b0", "vout": [{"scriptPubKey": {"reqSigs": 1, "hex": "a9140977b072e4629809c685a83e4bbbb427ec4f60cb87", "addresses": ["32Z5PRd3rzA8k3VieLQpBq5KUFjFCuQ3WU"], "asm": "OP_HASH160 0977b072e4629809c685a83e4bbbb427ec4f60cb OP_EQUAL", "type": "scripthash"}, "value": 0.00999661, "n": 0}, {"scriptPubKey": {"reqSigs": 1, "hex": "76a914e2e935237afbbfe00bd99aaa81246024105058c788ac", "addresses": ["1Mgo5uCE8xnPyzaSukNvFp2KYQNQKmaVky"], "asm": "OP_DUP OP_HASH160 e2e935237afbbfe00bd99aaa81246024105058c7 OP_EQUALVERIFY OP_CHECKSIG", "type": "pubkeyhash"}, "value": 0.0027216, "n": 1}], "hex": "020000000001024ec1ca03ac4dac5fb5067e774099095519b66217e492cf29037901db6a36ce320100000017160014053ddce47484333f2b69b9c89dba60ed447ed862feffffffb6d7d786aa52488c8ccee11d4c7033bf4b66e602f22c243916ccc18b37fca4931300000017160014525cc965a70b178678b934a638ef514c824e9c68feffffff02ed400f000000000017a9140977b072e4629809c685a83e4bbbb427ec4f60cb8720270400000000001976a914e2e935237afbbfe00bd99aaa81246024105058c788ac02483045022100f0f269f3ae1e8d8527d4b1ff7c0e2afa721f8f822ca675b6bc118c7f49490a1a022054b1ad09d76527bd768035e35e012889615d34aa2474e31781d074714ea0c0e9012102fbdb4cbe102fb39bf3d302c1e4e1f4507619769c2fb3bc1d2c8c55858e14187302473044022009aa03de0813859b47f8a1c74e705c18f8d938681b2cb0beab710fe2af250d13022052e2a6071076652fcd1f82bd84d15197c02879d4f2567bd9e09424d728ea7d760121022f636f2edff486f27b8ecec56f0eb79a47786ff4d3c82f52e6015eb11e789b900e490800", "vin": [{"txinwitness": ["3045022100f0f269f3ae1e8d8527d4b1ff7c0e2afa721f8f822ca675b6bc118c7f49490a1a022054b1ad09d76527bd768035e35e012889615d34aa2474e31781d074714ea0c0e901", "02fbdb4cbe102fb39bf3d302c1e4e1f4507619769c2fb3bc1d2c8c55858e141873"], "sequence": 4294967294, "scriptSig": {"hex": "160014053ddce47484333f2b69b9c89dba60ed447ed862", "asm": "0014053ddce47484333f2b69b9c89dba60ed447ed862"}, "vout": 1, "txid": "32ce366adb01790329cf92e41762b61955099940777e06b55fac4dac03cac14e"}, {"txinwitness": ["3044022009aa03de0813859b47f8a1c74e705c18f8d938681b2cb0beab710fe2af250d13022052e2a6071076652fcd1f82bd84d15197c02879d4f2567bd9e09424d728ea7d7601", "022f636f2edff486f27b8ecec56f0eb79a47786ff4d3c82f52e6015eb11e789b90"], "sequence": 4294967294, "scriptSig": {"hex": "160014525cc965a70b178678b934a638ef514c824e9c68", "asm": "0014525cc965a70b178678b934a638ef514c824e9c68"}, "vout": 19, "txid": "93a4fc378bc1cc1639242cf202e6664bbf33704c1de1ce8c8c4852aa86d7d7b6"}], "txid": "6725b017605868a46f14be51777bca9fac21e39d404cabf61b238e6829bf4f5b", "blocktime": 1537870928, "version": 2, "confirmations": 11514, "time": 1537870928, "locktime": 542990, "vsize": 259, "size": 421}