{"hash": "672e1573294cd269c7a261c5205f12f187308eafd1709eb84c77879c619c9cd4", "blockhash": "0000000000000000001e0dab787dd257d1dbfcb92a98c2207d5e1078be1f4165", "vout": [{"scriptPubKey": {"reqSigs": 1, "hex": "76a9149f034dd61502b1caed728edbaf8e23a15a82819188ac", "addresses": ["1FVnQ55WzCqukyuPADA4s6yFh1YiupXFfw"], "asm": "OP_DUP OP_HASH160 9f034dd61502b1caed728edbaf8e23a15a828191 OP_EQUALVERIFY OP_CHECKSIG", "type": "pubkeyhash"}, "value": 0.0009382, "n": 0}, {"scriptPubKey": {"type": "nulldata", "hex": "6a4c50000077ae0001adaf350a813e09068a8e8f00af6c953dd567cf27e7e3ef3236678a6250975d38637e5e7ea8a59895ad68641c2c5b5baa10f20611f279415e8296bc9a9526289ac0f6612cd74e33776ee4", "asm": "OP_RETURN 000077ae0001adaf350a813e09068a8e8f00af6c953dd567cf27e7e3ef3236678a6250975d38637e5e7ea8a59895ad68641c2c5b5baa10f20611f279415e8296bc9a9526289ac0f6612cd74e33776ee4"}, "value": 0.0, "n": 1}], "hex": "010000000181906e4db24130740055d2c07c1c10a3037a2c30ad81cee1948dedd2cb4891b0000000006b483045022100f8d7f7ee47cac6602e799de89ed830e8f6a4a92721a102ddebdfe6f7ea5ad2fe02207a512a140723e7c205cb335b0d4df4cf209d3192e925699a9e5b5f9fbbfde24a012102871c9b0dd0e7790b2697cc609920a6c0bfc960a4c06659b24241e271bc6ade4bffffffff027c6e0100000000001976a9149f034dd61502b1caed728edbaf8e23a15a82819188ac0000000000000000536a4c50000077ae0001adaf350a813e09068a8e8f00af6c953dd567cf27e7e3ef3236678a6250975d38637e5e7ea8a59895ad68641c2c5b5baa10f20611f279415e8296bc9a9526289ac0f6612cd74e33776ee400000000", "vin": [{"sequence": 4294967295, "scriptSig": {"hex": "483045022100f8d7f7ee47cac6602e799de89ed830e8f6a4a92721a102ddebdfe6f7ea5ad2fe02207a512a140723e7c205cb335b0d4df4cf209d3192e925699a9e5b5f9fbbfde24a012102871c9b0dd0e7790b2697cc609920a6c0bfc960a4c06659b24241e271bc6ade4b", "asm": "3045022100f8d7f7ee47cac6602e799de89ed830e8f6a4a92721a102ddebdfe6f7ea5ad2fe02207a512a140723e7c205cb335b0d4df4cf209d3192e925699a9e5b5f9fbbfde24a[ALL] 02871c9b0dd0e7790b2697cc609920a6c0bfc960a4c06659b24241e271bc6ade4b"}, "vout": 0, "txid": "b09148cbd2ed8d94e1ce81ad302c7a03a3101c7cc0d25500743041b24d6e9081"}], "txid": "672e1573294cd269c7a261c5205f12f187308eafd1709eb84c77879c619c9cd4", "blocktime": 1537872475, "version": 1, "confirmations": 11486, "time": 1537872475, "locktime": 0, "vsize": 284, "size": 284}