{"hash": "647cecde1c02e655a1cc80fd4a9d376710a080d58c7455a48f142b98bee4d5b9", "blockhash": "0000000000000000001f76057863aec43deb6fa401d9628bb513d65a8098bfab", "vout": [{"scriptPubKey": {"reqSigs": 1, "hex": "a914e110eedd23898e8dd4754e53e3a254558adf132987", "addresses": ["3ND4FEbzymQyh2gXFA2f7EatuupQGM1Mii"], "asm": "OP_HASH160 e110eedd23898e8dd4754e53e3a254558adf1329 OP_EQUAL", "type": "scripthash"}, "value": 0.2, "n": 0}, {"scriptPubKey": {"reqSigs": 1, "hex": "a914f3b53a78dc3188b8cf61a925eaba3aeb0c2c782387", "addresses": ["3PudE8SBvLLQiEQxtX5KbdBuv3Ai6sqA4i"], "asm": "OP_HASH160 f3b53a78dc3188b8cf61a925eaba3aeb0c2c7823 OP_EQUAL", "type": "scripthash"}, "value": 1.04906465, "n": 1}], "hex": "0100000000010305f164b0958dd9c8724b77e6154d1996c7d927c397b876af9701381ffbcfcd140900000023220020adb76e75fe7b69a066f77b9aeaa355855d60950a9fb39ebdedc0996648208049ffffffff0b27fd7ca9fcd7ede863e7f50cc2de3fa955d3f28f860e39731e33c0846460e80100000023220020adb76e75fe7b69a066f77b9aeaa355855d60950a9fb39ebdedc0996648208049ffffffff514e36e78b5ced9a9ab046fb3331b8fcdc27b24c70d2bc49a52aa71c475703910100000023220020adb76e75fe7b69a066f77b9aeaa355855d60950a9fb39ebdedc0996648208049ffffffff02002d31010000000017a914e110eedd23898e8dd4754e53e3a254558adf132987e1be40060000000017a914f3b53a78dc3188b8cf61a925eaba3aeb0c2c782387040048304502210099ce56d2001b2523a863999d14d6d124444b8762873da01b6659270bb923d1f7022038637a842c4d1236bb3241d03e2b87f0aa2c02d984d44b277c48e08838b2170b01483045022100ad0ed0c0a35aecf96135ec0dae4d287cc1799a6b9ec9097798d566b19150850402206228262ca1383cdb17bd6183cdd4dc5e2a3f41cfa14fd8d54cf001416486182e0147522103a01073e9aeee62987399fe8d7aff7732cb0d8dfd4be4e6aed9ad6dc5c8e1a5a1210327b06310bbeb2482a81a12f6c8277beee68442b0ccc59f460bfb5a63357615b352ae0400483045022100d0d5ce4539c7d47e50bd379683e7f2309871ae2faeabfae7a27b082444cf5c3a02207188cc70b7624b1dfba25a1b8fe2f9873bf9a9ba312450080c776b886cd6813c0147304402205544d4150ba69abbf27e5db55fe06f1dc21d1fe428a723d596ab9e41472a84eb022057a6afdb9193339e05fdf73cbf64f1118b4c74165b10b4582e46ccba0a0eb4020147522103a01073e9aeee62987399fe8d7aff7732cb0d8dfd4be4e6aed9ad6dc5c8e1a5a1210327b06310bbeb2482a81a12f6c8277beee68442b0ccc59f460bfb5a63357615b352ae0400473044022047f580befb72df12a8ae4c74c7bb04ac85cbefb51967345bad8b3f0420ae91b5022059142ad9f66725c8b6180e2959d04192bedd95d21c01ae1fb5f914c8fd28ac1401483045022100ebe6121b6997fadacb026bb1903d26280bc6da185ad25e83106915c23fb5bef50220461cd4e36297995cf56d6c291c1d7d5a2ef741148df8e121995c7bdcd54241260147522103a01073e9aeee62987399fe8d7aff7732cb0d8dfd4be4e6aed9ad6dc5c8e1a5a1210327b06310bbeb2482a81a12f6c8277beee68442b0ccc59f460bfb5a63357615b352ae00000000", "vin": [{"txinwitness": ["", "304502210099ce56d2001b2523a863999d14d6d124444b8762873da01b6659270bb923d1f7022038637a842c4d1236bb3241d03e2b87f0aa2c02d984d44b277c48e08838b2170b01", "3045022100ad0ed0c0a35aecf96135ec0dae4d287cc1799a6b9ec9097798d566b19150850402206228262ca1383cdb17bd6183cdd4dc5e2a3f41cfa14fd8d54cf001416486182e01", "522103a01073e9aeee62987399fe8d7aff7732cb0d8dfd4be4e6aed9ad6dc5c8e1a5a1210327b06310bbeb2482a81a12f6c8277beee68442b0ccc59f460bfb5a63357615b352ae"], "sequence": 4294967295, "scriptSig": {"hex": "220020adb76e75fe7b69a066f77b9aeaa355855d60950a9fb39ebdedc0996648208049", "asm": "0020adb76e75fe7b69a066f77b9aeaa355855d60950a9fb39ebdedc0996648208049"}, "vout": 9, "txid": "14cdcffb1f380197af76b897c327d9c796194d15e6774b72c8d98d95b064f105"}, {"txinwitness": ["", "3045022100d0d5ce4539c7d47e50bd379683e7f2309871ae2faeabfae7a27b082444cf5c3a02207188cc70b7624b1dfba25a1b8fe2f9873bf9a9ba312450080c776b886cd6813c01", "304402205544d4150ba69abbf27e5db55fe06f1dc21d1fe428a723d596ab9e41472a84eb022057a6afdb9193339e05fdf73cbf64f1118b4c74165b10b4582e46ccba0a0eb40201", "522103a01073e9aeee62987399fe8d7aff7732cb0d8dfd4be4e6aed9ad6dc5c8e1a5a1210327b06310bbeb2482a81a12f6c8277beee68442b0ccc59f460bfb5a63357615b352ae"], "sequence": 4294967295, "scriptSig": {"hex": "220020adb76e75fe7b69a066f77b9aeaa355855d60950a9fb39ebdedc0996648208049", "asm": "0020adb76e75fe7b69a066f77b9aeaa355855d60950a9fb39ebdedc0996648208049"}, "vout": 1, "txid": "e8606484c0331e73390e868ff2d355a93fdec20cf5e763e8edd7fca97cfd270b"}, {"txinwitness": ["", "3044022047f580befb72df12a8ae4c74c7bb04ac85cbefb51967345bad8b3f0420ae91b5022059142ad9f66725c8b6180e2959d04192bedd95d21c01ae1fb5f914c8fd28ac1401", "3045022100ebe6121b6997fadacb026bb1903d26280bc6da185ad25e83106915c23fb5bef50220461cd4e36297995cf56d6c291c1d7d5a2ef741148df8e121995c7bdcd542412601", "522103a01073e9aeee62987399fe8d7aff7732cb0d8dfd4be4e6aed9ad6dc5c8e1a5a1210327b06310bbeb2482a81a12f6c8277beee68442b0ccc59f460bfb5a63357615b352ae"], "sequence": 4294967295, "scriptSig": {"hex": "220020adb76e75fe7b69a066f77b9aeaa355855d60950a9fb39ebdedc0996648208049", "asm": "0020adb76e75fe7b69a066f77b9aeaa355855d60950a9fb39ebdedc0996648208049"}, "vout": 1, "txid": "910357471ca72aa549bcd2704cb227dcfcb83133fb46b09a9aed5c8be7364e51"}], "txid": "672fde863ddba5b7bb22742d6bf3d4f1f34e35a5559f84a90e3fd3c025e993f4", "blocktime": 1537873891, "version": 1, "confirmations": 11478, "time": 1537873891, "locktime": 0, "vsize": 467, "size": 962}