{"hash": "6739a382c995ffb6aa3c8bd5a81aa29c440716b9764ea771656b50f625dea52c", "blockhash": "0000000000000000001cda96e906b7601b7a6fb1a3b62bca570a9e5d8f4b3de1", "vout": [{"scriptPubKey": {"reqSigs": 1, "hex": "76a914904fae903002da0f4984c9bcbeba48892806e9ae88ac", "addresses": ["1EA3m24CXz3uqCQYVXBuzZA7anUWJdae2E"], "asm": "OP_DUP OP_HASH160 904fae903002da0f4984c9bcbeba48892806e9ae OP_EQUALVERIFY OP_CHECKSIG", "type": "pubkeyhash"}, "value": 0.0006304, "n": 0}, {"scriptPubKey": {"type": "nulldata", "hex": "6a4c50000077d200012ce9c442b200aff379bfb7e25b23cc0f42c2fc38c5e5bf9ae76da98a211a673ac5ea5c8ec9686083e0aacbeee2815baa14c20613fff26d9e1817bc9a9526289ac0f6612cd74e33776ee4", "asm": "OP_RETURN 000077d200012ce9c442b200aff379bfb7e25b23cc0f42c2fc38c5e5bf9ae76da98a211a673ac5ea5c8ec9686083e0aacbeee2815baa14c20613fff26d9e1817bc9a9526289ac0f6612cd74e33776ee4"}, "value": 0.0, "n": 1}], "hex": "0100000001bc18581ccbcf292a03478bd9de61a1ad3eb4bcbe063b44648b045ce9569bf0ee000000006b4830450221008bbf567cc9a3eb5bed436dc9fba516989c4601367b4cf8740ff483414e069d8602201b8ccdef2bafe720187c8970ffbaeda0540ee7fca222a97646505516a480715f01210241955ce52566bed4fe1dd054e7f82a9578a359ff8ad7978e32a73e68a40fde3cffffffff0240f60000000000001976a914904fae903002da0f4984c9bcbeba48892806e9ae88ac0000000000000000536a4c50000077d200012ce9c442b200aff379bfb7e25b23cc0f42c2fc38c5e5bf9ae76da98a211a673ac5ea5c8ec9686083e0aacbeee2815baa14c20613fff26d9e1817bc9a9526289ac0f6612cd74e33776ee400000000", "vin": [{"sequence": 4294967295, "scriptSig": {"hex": "4830450221008bbf567cc9a3eb5bed436dc9fba516989c4601367b4cf8740ff483414e069d8602201b8ccdef2bafe720187c8970ffbaeda0540ee7fca222a97646505516a480715f01210241955ce52566bed4fe1dd054e7f82a9578a359ff8ad7978e32a73e68a40fde3c", "asm": "30450221008bbf567cc9a3eb5bed436dc9fba516989c4601367b4cf8740ff483414e069d8602201b8ccdef2bafe720187c8970ffbaeda0540ee7fca222a97646505516a480715f[ALL] 0241955ce52566bed4fe1dd054e7f82a9578a359ff8ad7978e32a73e68a40fde3c"}, "vout": 0, "txid": "eef09b56e95c048b64443b06bebcb43eada161ded98b47032a29cfcb1c5818bc"}], "txid": "6739a382c995ffb6aa3c8bd5a81aa29c440716b9764ea771656b50f625dea52c", "blocktime": 1537873282, "version": 1, "confirmations": 11484, "time": 1537873282, "locktime": 0, "vsize": 284, "size": 284}