{"hash": "673efa6a5c0c0d6d9505b27bd026354646b49baff08b3fc2bde53c971e741f39", "blockhash": "0000000000000000001e0dab787dd257d1dbfcb92a98c2207d5e1078be1f4165", "vout": [{"scriptPubKey": {"reqSigs": 1, "hex": "76a914ce0db10900043c03a4ed11bfdf19968968898c1f88ac", "addresses": ["1KnWbpgrWDfPPWU6aq1PAotJcqaMXDtbe2"], "asm": "OP_DUP OP_HASH160 ce0db10900043c03a4ed11bfdf19968968898c1f OP_EQUALVERIFY OP_CHECKSIG", "type": "pubkeyhash"}, "value": 0.00350425, "n": 0}, {"scriptPubKey": {"type": "nulldata", "hex": "6a146f6d6e69000000000000001f0000009b81f13700", "asm": "OP_RETURN 6f6d6e69000000000000001f0000009b81f13700"}, "value": 0.0, "n": 1}, {"scriptPubKey": {"reqSigs": 1, "hex": "76a914a25dec4d0011064ef106a983c39c7a540699f22088ac", "addresses": ["1FoWyxwPXuj4C6abqwhjDWdz6D4PZgYRjA"], "asm": "OP_DUP OP_HASH160 a25dec4d0011064ef106a983c39c7a540699f220 OP_EQUALVERIFY OP_CHECKSIG", "type": "pubkeyhash"}, "value": 5.46e-06, "n": 2}], "hex": "010000000227f931d905cbd67618c90aec90db62aff616206329eda300affe9e9cbf6a21b3000000006b483045022100da9b6efba05e4aceaf7eaed8d1585e75405fff4077e46b2e04dfb972c78b277402207f287f47c14084da83b15a8b01b7867a7572a9f22c74b7c5fede33067d633893012102e15074904117e774a6852f3cfe9c0ff906d387cd22820fef138469187ae94344feffffffb2857d8dcfdd93275d8a2dfdabffcd374efb69a8b311bf937449a86a2486bf33020000006a47304402200cdaeac63eca6688faf3d8623350ec9a362ae2f32fea82595e9ac6f2074d650702205e15cd292fb6d1837398551f9c342f9b1fa45ff26fa89652ec1f3a343e98c53f012102e15074904117e774a6852f3cfe9c0ff906d387cd22820fef138469187ae94344feffffff03d9580500000000001976a914ce0db10900043c03a4ed11bfdf19968968898c1f88ac0000000000000000166a146f6d6e69000000000000001f0000009b81f1370022020000000000001976a914a25dec4d0011064ef106a983c39c7a540699f22088ac12490800", "vin": [{"sequence": 4294967294, "scriptSig": {"hex": "483045022100da9b6efba05e4aceaf7eaed8d1585e75405fff4077e46b2e04dfb972c78b277402207f287f47c14084da83b15a8b01b7867a7572a9f22c74b7c5fede33067d633893012102e15074904117e774a6852f3cfe9c0ff906d387cd22820fef138469187ae94344", "asm": "3045022100da9b6efba05e4aceaf7eaed8d1585e75405fff4077e46b2e04dfb972c78b277402207f287f47c14084da83b15a8b01b7867a7572a9f22c74b7c5fede33067d633893[ALL] 02e15074904117e774a6852f3cfe9c0ff906d387cd22820fef138469187ae94344"}, "vout": 0, "txid": "b3216abf9c9efeaf00a3ed29632016f6af62db90ec0ac91876d6cb05d931f927"}, {"sequence": 4294967294, "scriptSig": {"hex": "47304402200cdaeac63eca6688faf3d8623350ec9a362ae2f32fea82595e9ac6f2074d650702205e15cd292fb6d1837398551f9c342f9b1fa45ff26fa89652ec1f3a343e98c53f012102e15074904117e774a6852f3cfe9c0ff906d387cd22820fef138469187ae94344", "asm": "304402200cdaeac63eca6688faf3d8623350ec9a362ae2f32fea82595e9ac6f2074d650702205e15cd292fb6d1837398551f9c342f9b1fa45ff26fa89652ec1f3a343e98c53f[ALL] 02e15074904117e774a6852f3cfe9c0ff906d387cd22820fef138469187ae94344"}, "vout": 2, "txid": "33bf86246aa8497493bf11b3a869fb4e37cdffabfd2d8a5d2793ddcf8d7d85b2"}], "txid": "673efa6a5c0c0d6d9505b27bd026354646b49baff08b3fc2bde53c971e741f39", "blocktime": 1537872475, "version": 1, "confirmations": 11487, "time": 1537872475, "locktime": 542994, "vsize": 404, "size": 404}