{"hash": "6740304a01eae57462a730f0cd6268d8e160c22cb9f0bea7ab1abbc77fbaea6b", "blockhash": "0000000000000000001e0dab787dd257d1dbfcb92a98c2207d5e1078be1f4165", "vout": [{"scriptPubKey": {"reqSigs": 1, "hex": "76a914e0a9c6c3021a9606b7cade178cf3570bd0ddca0288ac", "addresses": ["1MUukF35iBB3F5Yvm4mt9CqH6nvRCJHN5S"], "asm": "OP_DUP OP_HASH160 e0a9c6c3021a9606b7cade178cf3570bd0ddca02 OP_EQUALVERIFY OP_CHECKSIG", "type": "pubkeyhash"}, "value": 0.00064062, "n": 0}, {"scriptPubKey": {"reqSigs": 1, "hex": "76a914bae7a3139f3fe7e7ba05e6360e46dde96482667588ac", "addresses": ["1J3GB6xG7HL6WNRjjXpQdwq3PMgRF2jn3u"], "asm": "OP_DUP OP_HASH160 bae7a3139f3fe7e7ba05e6360e46dde964826675 OP_EQUALVERIFY OP_CHECKSIG", "type": "pubkeyhash"}, "value": 0.1, "n": 1}], "hex": "010000000334ea71b45872ff7ecef576ade93919d051ea5732fb0e7844efd3e85e2598f639010000006b483045022100e621e3ee49f3aba57b9d15096624213892d428436ff603ee28c3b6cad8e96e600220660346b7359ac070e1d97e2db8281d3a043612b2b169e575cdf848530fdde4320121030ce4e104f8f54f1a6db85f1b25c59fca3a476a0e680710cfd530070504b3ee51ffffffffe46f727f09c52eede007252878498c73c88b014167b4131409e8b1f11cdc117a000000006b4830450221008cd5ea1c8d9b2f5517b10c15ec6dab35b884237f79548d95c843e6746da6119002206fbe1d2d4d30f29bc46a52b2aaaea6eb964421b2fa9e38b11f8107bf46e317b50121031c33e5ab37cfceec3eba248763d963d1013aa50a47ecb9cb95bb92be29ecab3effffffffdf745e284edf271133bfdfd0396c83e7e4b1be9f899d2180349abfbf6c588882010000006a4730440220438bf2311dbdadf731e6fea31137efb79a82a1ec9b234ffc7137109a20a086fc02204b3912ca4fdfb9cca40aef1ba581efaad1c3295b0f0301777629fd80dabd30c3012103d26df4aae41052be57c8ee25a321d83200c733f63cff47471c06401aae17792bffffffff023efa0000000000001976a914e0a9c6c3021a9606b7cade178cf3570bd0ddca0288ac80969800000000001976a914bae7a3139f3fe7e7ba05e6360e46dde96482667588ac00000000", "vin": [{"sequence": 4294967295, "scriptSig": {"hex": "483045022100e621e3ee49f3aba57b9d15096624213892d428436ff603ee28c3b6cad8e96e600220660346b7359ac070e1d97e2db8281d3a043612b2b169e575cdf848530fdde4320121030ce4e104f8f54f1a6db85f1b25c59fca3a476a0e680710cfd530070504b3ee51", "asm": "3045022100e621e3ee49f3aba57b9d15096624213892d428436ff603ee28c3b6cad8e96e600220660346b7359ac070e1d97e2db8281d3a043612b2b169e575cdf848530fdde432[ALL] 030ce4e104f8f54f1a6db85f1b25c59fca3a476a0e680710cfd530070504b3ee51"}, "vout": 1, "txid": "39f698255ee8d3ef44780efb3257ea51d01939e9ad76f5ce7eff7258b471ea34"}, {"sequence": 4294967295, "scriptSig": {"hex": "4830450221008cd5ea1c8d9b2f5517b10c15ec6dab35b884237f79548d95c843e6746da6119002206fbe1d2d4d30f29bc46a52b2aaaea6eb964421b2fa9e38b11f8107bf46e317b50121031c33e5ab37cfceec3eba248763d963d1013aa50a47ecb9cb95bb92be29ecab3e", "asm": "30450221008cd5ea1c8d9b2f5517b10c15ec6dab35b884237f79548d95c843e6746da6119002206fbe1d2d4d30f29bc46a52b2aaaea6eb964421b2fa9e38b11f8107bf46e317b5[ALL] 031c33e5ab37cfceec3eba248763d963d1013aa50a47ecb9cb95bb92be29ecab3e"}, "vout": 0, "txid": "7a11dc1cf1b1e8091413b46741018bc8738c4978282507e0ed2ec5097f726fe4"}, {"sequence": 4294967295, "scriptSig": {"hex": "4730440220438bf2311dbdadf731e6fea31137efb79a82a1ec9b234ffc7137109a20a086fc02204b3912ca4fdfb9cca40aef1ba581efaad1c3295b0f0301777629fd80dabd30c3012103d26df4aae41052be57c8ee25a321d83200c733f63cff47471c06401aae17792b", "asm": "30440220438bf2311dbdadf731e6fea31137efb79a82a1ec9b234ffc7137109a20a086fc02204b3912ca4fdfb9cca40aef1ba581efaad1c3295b0f0301777629fd80dabd30c3[ALL] 03d26df4aae41052be57c8ee25a321d83200c733f63cff47471c06401aae17792b"}, "vout": 1, "txid": "8288586cbfbf9a3480219d899fbeb1e4e7836c39d0dfbf331127df4e285e74df"}], "txid": "6740304a01eae57462a730f0cd6268d8e160c22cb9f0bea7ab1abbc77fbaea6b", "blocktime": 1537872475, "version": 1, "confirmations": 11487, "time": 1537872475, "locktime": 0, "vsize": 521, "size": 521}