{"hash": "6743cdb7430d9be34a85b238157bd8afa362aa35e3daf678babe2fea0cee986c", "blockhash": "000000000000000000022b45ed06c6f4ccd3cf7fb5ba4856ebd2e58215665228", "vout": [{"scriptPubKey": {"reqSigs": 1, "hex": "76a9143045d9c18471c97b906251abcd319ebfc13747f288ac", "addresses": ["15QF7Wmcx4C1Z5crg7MZLw4RHu3PA1i6vk"], "asm": "OP_DUP OP_HASH160 3045d9c18471c97b906251abcd319ebfc13747f2 OP_EQUALVERIFY OP_CHECKSIG", "type": "pubkeyhash"}, "value": 0.009, "n": 0}, {"scriptPubKey": {"reqSigs": 1, "hex": "76a9140627e2d7b4190c8962aa72bbc4b2ad0603a2497e88ac", "addresses": ["1ZYqVC81fWExCmK7wcEME9XGonhhzp6by"], "asm": "OP_DUP OP_HASH160 0627e2d7b4190c8962aa72bbc4b2ad0603a2497e OP_EQUALVERIFY OP_CHECKSIG", "type": "pubkeyhash"}, "value": 0.25219832, "n": 1}], "hex": "010000000171262d2df36027d133805d962dfabdd7812a09d74922bfe61ac2cea26de9d9a7010000006a473044022043cf84edc492cf5e1d3c8b6553196c1a40d8f375bc4b89daba76024263459e5402204d777a44fd6a429d5b1d586120b59892eda404ae4e9fdfef696c8553465ac26b012102f6d322a785a8090688b3e7f145ce9eeb223e4d8780d9433eb7f1561ded96a0ecffffffff02a0bb0d00000000001976a9143045d9c18471c97b906251abcd319ebfc13747f288acf8d28001000000001976a9140627e2d7b4190c8962aa72bbc4b2ad0603a2497e88ac00000000", "vin": [{"sequence": 4294967295, "scriptSig": {"hex": "473044022043cf84edc492cf5e1d3c8b6553196c1a40d8f375bc4b89daba76024263459e5402204d777a44fd6a429d5b1d586120b59892eda404ae4e9fdfef696c8553465ac26b012102f6d322a785a8090688b3e7f145ce9eeb223e4d8780d9433eb7f1561ded96a0ec", "asm": "3044022043cf84edc492cf5e1d3c8b6553196c1a40d8f375bc4b89daba76024263459e5402204d777a44fd6a429d5b1d586120b59892eda404ae4e9fdfef696c8553465ac26b[ALL] 02f6d322a785a8090688b3e7f145ce9eeb223e4d8780d9433eb7f1561ded96a0ec"}, "vout": 1, "txid": "a7d9e96da2cec21ae6bf2249d7092a81d7bdfa2d965d8033d12760f32d2d2671"}], "txid": "6743cdb7430d9be34a85b238157bd8afa362aa35e3daf678babe2fea0cee986c", "blocktime": 1537869901, "version": 1, "confirmations": 11524, "time": 1537869901, "locktime": 0, "vsize": 225, "size": 225}