{"hash": "6744aaa1e0a636c3c4be6b5a2657072b8bfcb010b81585775c1758f72b135926", "blockhash": "00000000000000000018f53835495a110e01622372bf6ae95dc86f2b0ab887b0", "vout": [{"scriptPubKey": {"reqSigs": 1, "hex": "76a91434bc3a1cc400270048804b4f9a0bead98d6e1ea488ac", "addresses": ["15oqdDZNGhn8sTx3qoqhmQ9EDRSHCXxkSK"], "asm": "OP_DUP OP_HASH160 34bc3a1cc400270048804b4f9a0bead98d6e1ea4 OP_EQUALVERIFY OP_CHECKSIG", "type": "pubkeyhash"}, "value": 0.00021527, "n": 0}, {"scriptPubKey": {"reqSigs": 1, "hex": "a9144c7fec456bbf019769c904e6c854bea7d7e2fb2e87", "addresses": ["38fWXN5HnPYawv8onHEp1g72Ua8U3NasJL"], "asm": "OP_HASH160 4c7fec456bbf019769c904e6c854bea7d7e2fb2e OP_EQUAL", "type": "scripthash"}, "value": 0.00188255, "n": 1}], "hex": "010000000161f8155aecc09fa66af12c655b2146c6f34512ca54ea1113d4aa55ba47e3ae9c000000006b483045022100857e8f74b8d1926c8bce035cf7f38d30b128014c1b6fc1f3ea1767a782684ec3022025d17311a64912724008e621f97d255c5ec24f750b259edae3cb7a7f66d8b3b8012102875f84bb629a53dc06fdd9c778fa780a37e7c5198bbad0dba307a4d044eb2411ffffffff0217540000000000001976a91434bc3a1cc400270048804b4f9a0bead98d6e1ea488ac5fdf02000000000017a9144c7fec456bbf019769c904e6c854bea7d7e2fb2e8700000000", "vin": [{"sequence": 4294967295, "scriptSig": {"hex": "483045022100857e8f74b8d1926c8bce035cf7f38d30b128014c1b6fc1f3ea1767a782684ec3022025d17311a64912724008e621f97d255c5ec24f750b259edae3cb7a7f66d8b3b8012102875f84bb629a53dc06fdd9c778fa780a37e7c5198bbad0dba307a4d044eb2411", "asm": "3045022100857e8f74b8d1926c8bce035cf7f38d30b128014c1b6fc1f3ea1767a782684ec3022025d17311a64912724008e621f97d255c5ec24f750b259edae3cb7a7f66d8b3b8[ALL] 02875f84bb629a53dc06fdd9c778fa780a37e7c5198bbad0dba307a4d044eb2411"}, "vout": 0, "txid": "9caee347ba55aad41311ea54ca1245f3c646215b652cf16aa69fc0ec5a15f861"}], "txid": "6744aaa1e0a636c3c4be6b5a2657072b8bfcb010b81585775c1758f72b135926", "blocktime": 1537870928, "version": 1, "confirmations": 11512, "time": 1537870928, "locktime": 0, "vsize": 224, "size": 224}