{"hash": "9dfcea3f53f765511de4c3777e6c1a2003795af1fd2d52227e282267d4cef0da", "blockhash": "0000000000000000001cda96e906b7601b7a6fb1a3b62bca570a9e5d8f4b3de1", "vout": [{"scriptPubKey": {"reqSigs": 1, "hex": "76a91483c84e745b922245d0ec1d5d3c8565a13c61341e88ac", "addresses": ["1D1oUfgCG7crTP6Rbc3VYhtZqAGn7wwmRE"], "asm": "OP_DUP OP_HASH160 83c84e745b922245d0ec1d5d3c8565a13c61341e OP_EQUALVERIFY OP_CHECKSIG", "type": "pubkeyhash"}, "value": 0.0627799, "n": 0}, {"scriptPubKey": {"reqSigs": 1, "hex": "0014badf7ff7c9d413dfc4fc89dff8c735b61f3a248e", "addresses": ["bc1qht0hla7f6sfal38u380l33e4kc0n5fywxp4wvl"], "asm": "0 badf7ff7c9d413dfc4fc89dff8c735b61f3a248e", "type": "witness_v0_keyhash"}, "value": 0.06048805, "n": 1}], "hex": "01000000000101fedd2660c524b8c23bdf00013d12952ec3c0d3d82482156040d41db106009c580000000000ffffffff0266cb5f00000000001976a91483c84e745b922245d0ec1d5d3c8565a13c61341e88ac254c5c0000000000160014badf7ff7c9d413dfc4fc89dff8c735b61f3a248e02473044022042c7e6999af50cad9193aaf1f20091c944a82f4ce25e1575dcaf642a287e2981022011db6e8ce23f4e198251f694d1850da7e03b33634b44c36d4ff3573c13b045d5012102cb97773a1e776c7359ae135cc6295148c5bc8a98916e2c17901748934bbcf2bb00000000", "vin": [{"txinwitness": ["3044022042c7e6999af50cad9193aaf1f20091c944a82f4ce25e1575dcaf642a287e2981022011db6e8ce23f4e198251f694d1850da7e03b33634b44c36d4ff3573c13b045d501", "02cb97773a1e776c7359ae135cc6295148c5bc8a98916e2c17901748934bbcf2bb"], "sequence": 4294967295, "scriptSig": {"hex": "", "asm": ""}, "vout": 0, "txid": "589c0006b11dd44060158224d8d3c0c32e95123d0100df3bc2b824c56026ddfe"}], "txid": "6748cd805b00255449991876f5c955afa99a84d774b5ae6198dc1f3dbbf4739a", "blocktime": 1537873282, "version": 1, "confirmations": 11484, "time": 1537873282, "locktime": 0, "vsize": 144, "size": 225}