{"hash": "6748f76bc6c93091ec5e6f34e3e0ade252432dd31ddab4459746a7d436237b1e", "blockhash": "00000000000000000024a2167bbff67b0be802c0b01cdd79e6331c2be6459f87", "vout": [{"scriptPubKey": {"reqSigs": 1, "hex": "76a914d243e6abb9a60fbff430b421d2df4b7d59ec186088ac", "addresses": ["1LAnF8h3qMGx3TSwNUHVneBZUEpwE4gu3D"], "asm": "OP_DUP OP_HASH160 d243e6abb9a60fbff430b421d2df4b7d59ec1860 OP_EQUALVERIFY OP_CHECKSIG", "type": "pubkeyhash"}, "value": 0.00077314, "n": 0}, {"scriptPubKey": {"reqSigs": 1, "hex": "a914e434f7fd3e5da783cd6069f212a75e9e5b52c67487", "addresses": ["3NVfScR8VurJPQwp4CoZoZDfQ2BRQQKhUt"], "asm": "OP_HASH160 e434f7fd3e5da783cd6069f212a75e9e5b52c674 OP_EQUAL", "type": "scripthash"}, "value": 5.46e-06, "n": 1}, {"scriptPubKey": {"type": "nulldata", "hex": "6a146f6d6e69000000000000001f00000da457de8b00", "asm": "OP_RETURN 6f6d6e69000000000000001f00000da457de8b00"}, "value": 0.0, "n": 2}], "hex": "0100000001c798ea6e84d3fc05f01f565c2e0100db4e50b8101a785f5a6ac2b9f0f5d55f91000000006b483045022100b436edaad35fcb5a1638fe77f347977efba2b32f606f933ed9b371fb634ab6b1022073af23bdb33bf21df7dea4f66a69075a04425c3e24bee403de958e499ac1fddb01210271977291b74f1f5f5c42157e8aae804664eaaeccfd097918450d37f28fb94d77ffffffff03022e0100000000001976a914d243e6abb9a60fbff430b421d2df4b7d59ec186088ac220200000000000017a914e434f7fd3e5da783cd6069f212a75e9e5b52c674870000000000000000166a146f6d6e69000000000000001f00000da457de8b0000000000", "vin": [{"sequence": 4294967295, "scriptSig": {"hex": "483045022100b436edaad35fcb5a1638fe77f347977efba2b32f606f933ed9b371fb634ab6b1022073af23bdb33bf21df7dea4f66a69075a04425c3e24bee403de958e499ac1fddb01210271977291b74f1f5f5c42157e8aae804664eaaeccfd097918450d37f28fb94d77", "asm": "3045022100b436edaad35fcb5a1638fe77f347977efba2b32f606f933ed9b371fb634ab6b1022073af23bdb33bf21df7dea4f66a69075a04425c3e24bee403de958e499ac1fddb[ALL] 0271977291b74f1f5f5c42157e8aae804664eaaeccfd097918450d37f28fb94d77"}, "vout": 0, "txid": "915fd5f5f0b9c26a5a5f781a10b8504edb00012e5c561ff005fcd3846eea98c7"}], "txid": "6748f76bc6c93091ec5e6f34e3e0ade252432dd31ddab4459746a7d436237b1e", "blocktime": 1537870564, "version": 1, "confirmations": 11515, "time": 1537870564, "locktime": 0, "vsize": 255, "size": 255}