{"hash": "7ca427c7a2e238fd1f0f19dc3fbc37d309418f8fae72e52746cb7ad33e3191c7", "blockhash": "0000000000000000001f76057863aec43deb6fa401d9628bb513d65a8098bfab", "vout": [{"scriptPubKey": {"reqSigs": 1, "hex": "a91490e99e8d26d05ead3c05430c292a887bbff695f587", "addresses": ["3EuF6KjJawxTiUsea3Sc8hsLUGmVEf7Xg5"], "asm": "OP_HASH160 90e99e8d26d05ead3c05430c292a887bbff695f5 OP_EQUAL", "type": "scripthash"}, "value": 0.00139926, "n": 0}, {"scriptPubKey": {"type": "nulldata", "hex": "6a146f6d6e69000000000000001f0000000005f5e100", "asm": "OP_RETURN 6f6d6e69000000000000001f0000000005f5e100"}, "value": 0.0, "n": 1}, {"scriptPubKey": {"reqSigs": 1, "hex": "a91490e99e8d26d05ead3c05430c292a887bbff695f587", "addresses": ["3EuF6KjJawxTiUsea3Sc8hsLUGmVEf7Xg5"], "asm": "OP_HASH160 90e99e8d26d05ead3c05430c292a887bbff695f5 OP_EQUAL", "type": "scripthash"}, "value": 5.4e-06, "n": 2}], "hex": "0100000000010236fb20ae11739eb2a62206ade49e4600d74116224eab2de5701b4f2d51c82a0c0000000017160014f6e1792e7852ebd5ae795c2a25d579acdfadec2dffffffff36fb20ae11739eb2a62206ade49e4600d74116224eab2de5701b4f2d51c82a0c0200000017160014f6e1792e7852ebd5ae795c2a25d579acdfadec2dffffffff03962202000000000017a91490e99e8d26d05ead3c05430c292a887bbff695f5870000000000000000166a146f6d6e69000000000000001f0000000005f5e1001c0200000000000017a91490e99e8d26d05ead3c05430c292a887bbff695f58702483045022100ed6f313b07fe6d5ed919cc86967bdf114baee6cd671d71ed4640316c5dcae40c022034c1abb4d7580b984cc967d83dcb997df287664af90331ebb866f46dfe1a86c1012103f1cf988013a33e053d1e9bd54c4798c1a6dc362a5b2798b5344049fca40e2db002473044022059c4be2c85c8105e0c90d28961e236624000960b79da0d23feb2644bd0e9609102204f5e85cabc871e1c1a907a27807cf839c60ac94347551312c9776e3cf184cc89012103f1cf988013a33e053d1e9bd54c4798c1a6dc362a5b2798b5344049fca40e2db000000000", "vin": [{"txinwitness": ["3045022100ed6f313b07fe6d5ed919cc86967bdf114baee6cd671d71ed4640316c5dcae40c022034c1abb4d7580b984cc967d83dcb997df287664af90331ebb866f46dfe1a86c101", "03f1cf988013a33e053d1e9bd54c4798c1a6dc362a5b2798b5344049fca40e2db0"], "sequence": 4294967295, "scriptSig": {"hex": "160014f6e1792e7852ebd5ae795c2a25d579acdfadec2d", "asm": "0014f6e1792e7852ebd5ae795c2a25d579acdfadec2d"}, "vout": 0, "txid": "0c2ac8512d4f1b70e52dab4e221641d700469ee4ad0622a6b29e7311ae20fb36"}, {"txinwitness": ["3044022059c4be2c85c8105e0c90d28961e236624000960b79da0d23feb2644bd0e9609102204f5e85cabc871e1c1a907a27807cf839c60ac94347551312c9776e3cf184cc8901", "03f1cf988013a33e053d1e9bd54c4798c1a6dc362a5b2798b5344049fca40e2db0"], "sequence": 4294967295, "scriptSig": {"hex": "160014f6e1792e7852ebd5ae795c2a25d579acdfadec2d", "asm": "0014f6e1792e7852ebd5ae795c2a25d579acdfadec2d"}, "vout": 2, "txid": "0c2ac8512d4f1b70e52dab4e221641d700469ee4ad0622a6b29e7311ae20fb36"}], "txid": "674a6643b9d568ab7a09e614b8e0ace2537e2ec11b1f48e1f4cd30f3a96aa7b0", "blocktime": 1537873891, "version": 1, "confirmations": 11478, "time": 1537873891, "locktime": 0, "vsize": 288, "size": 450}