{"hash": "674e6f6c672fcb9991496b12755a783fc80d9492f372c4f1aff73aa1fed7049f", "blockhash": "0000000000000000001e0dab787dd257d1dbfcb92a98c2207d5e1078be1f4165", "vout": [{"scriptPubKey": {"reqSigs": 1, "hex": "76a914e2486dde73dd6fc5d735c990b3e1a390c8f3a98d88ac", "addresses": ["1MdUUpcv56mu3hpFcAvTv3kqPXyrkmvMQC"], "asm": "OP_DUP OP_HASH160 e2486dde73dd6fc5d735c990b3e1a390c8f3a98d OP_EQUALVERIFY OP_CHECKSIG", "type": "pubkeyhash"}, "value": 0.00374688, "n": 0}, {"scriptPubKey": {"reqSigs": 1, "hex": "76a914f9330925c53abed067d32ff1b8d653c2011803c488ac", "addresses": ["1PiePnriPkgibc8rh1TkHQVzSjhDY6vi8x"], "asm": "OP_DUP OP_HASH160 f9330925c53abed067d32ff1b8d653c2011803c4 OP_EQUALVERIFY OP_CHECKSIG", "type": "pubkeyhash"}, "value": 0.0070146, "n": 1}], "hex": "0100000001a16ad58de8cab26c2fb226c56189b037ce87f4a537e4544d9df0575f6465f70e010000006a473044022059b4d2bd102d080ddc894474a7a892853de5eac04bbb3176b7b9360ae3c194df022011e843056aa29d108e5de9a8b73bfd94033163edf05fe6650bb0ba490c751e900121029f7a312c622430853d1b5e0083e09b0d4b420dbed70e1604d71f04bb8452f355ffffffff02a0b70500000000001976a914e2486dde73dd6fc5d735c990b3e1a390c8f3a98d88ac14b40a00000000001976a914f9330925c53abed067d32ff1b8d653c2011803c488ac00000000", "vin": [{"sequence": 4294967295, "scriptSig": {"hex": "473044022059b4d2bd102d080ddc894474a7a892853de5eac04bbb3176b7b9360ae3c194df022011e843056aa29d108e5de9a8b73bfd94033163edf05fe6650bb0ba490c751e900121029f7a312c622430853d1b5e0083e09b0d4b420dbed70e1604d71f04bb8452f355", "asm": "3044022059b4d2bd102d080ddc894474a7a892853de5eac04bbb3176b7b9360ae3c194df022011e843056aa29d108e5de9a8b73bfd94033163edf05fe6650bb0ba490c751e90[ALL] 029f7a312c622430853d1b5e0083e09b0d4b420dbed70e1604d71f04bb8452f355"}, "vout": 1, "txid": "0ef765645f57f09d4d54e437a5f487ce37b08961c526b22f6cb2cae88dd56aa1"}], "txid": "674e6f6c672fcb9991496b12755a783fc80d9492f372c4f1aff73aa1fed7049f", "blocktime": 1537872475, "version": 1, "confirmations": 11487, "time": 1537872475, "locktime": 0, "vsize": 225, "size": 225}