{"hash": "674e57437b457245831df38c7452c70c05a8f9688bbf9128744c6dd7cb8da954", "blockhash": "00000000000000000017f5eb5941039fbcee6240d03bc1f2f8e35350df66a1d8", "vout": [{"scriptPubKey": {"reqSigs": 1, "hex": "a9143f538b29ffd80472c75c2c331270b730e3d7558d87", "addresses": ["37TraLioZJTuin8fJdnDYA26TF39rUUtH4"], "asm": "OP_HASH160 3f538b29ffd80472c75c2c331270b730e3d7558d OP_EQUAL", "type": "scripthash"}, "value": 0.00025386, "n": 0}, {"scriptPubKey": {"reqSigs": 1, "hex": "76a914930daa859b2cad0eb6d4506541473937a9738fb688ac", "addresses": ["1EQYhjiLpBWDVXHc5hisXtDZtEsur6Q4mJ"], "asm": "OP_DUP OP_HASH160 930daa859b2cad0eb6d4506541473937a9738fb6 OP_EQUALVERIFY OP_CHECKSIG", "type": "pubkeyhash"}, "value": 0.05051767, "n": 1}], "hex": "010000000151c04509fe914878d7f04fe2d29e920c1457435bb2411a4b9a8e444ddc2544fe000000006b4830450221009076cae8648edc9c0115c87aebbdfca2d226fe0d63fa2a63439326c6df5aa452022043fc657e0e6b75fe6e88ca292046ce8f2b5b9bedd29c4ddec2a57c6814a503f401210288e8a4b08c023f64e696d8337f7f62a0ecd91d335f408be08c035b9e3eb36c5affffffff022a6300000000000017a9143f538b29ffd80472c75c2c331270b730e3d7558d8777154d00000000001976a914930daa859b2cad0eb6d4506541473937a9738fb688ac00000000", "vin": [{"sequence": 4294967295, "scriptSig": {"hex": "4830450221009076cae8648edc9c0115c87aebbdfca2d226fe0d63fa2a63439326c6df5aa452022043fc657e0e6b75fe6e88ca292046ce8f2b5b9bedd29c4ddec2a57c6814a503f401210288e8a4b08c023f64e696d8337f7f62a0ecd91d335f408be08c035b9e3eb36c5a", "asm": "30450221009076cae8648edc9c0115c87aebbdfca2d226fe0d63fa2a63439326c6df5aa452022043fc657e0e6b75fe6e88ca292046ce8f2b5b9bedd29c4ddec2a57c6814a503f4[ALL] 0288e8a4b08c023f64e696d8337f7f62a0ecd91d335f408be08c035b9e3eb36c5a"}, "vout": 0, "txid": "fe4425dc4d448e9a4b1a41b25b4357140c929ed2e24ff0d7784891fe0945c051"}], "txid": "674e57437b457245831df38c7452c70c05a8f9688bbf9128744c6dd7cb8da954", "blocktime": 1537874412, "version": 1, "confirmations": 11468, "time": 1537874412, "locktime": 0, "vsize": 224, "size": 224}