{"hash": "2f369b3390f85f04d9537b37c7f3e409ba7d10cfc24439766e96bf286c62da68", "blockhash": "0000000000000000000dcc0f55137456b1a82d3642486a52398922ac4d620174", "vout": [{"scriptPubKey": {"reqSigs": 1, "hex": "a9144e4b204ff067d9f9c41de129945bc4550a13f85f87", "addresses": ["38pzdNHVG8NyQvNTjksuykB7TwBFTwxDtd"], "asm": "OP_HASH160 4e4b204ff067d9f9c41de129945bc4550a13f85f OP_EQUAL", "type": "scripthash"}, "value": 0.00053, "n": 0}, {"scriptPubKey": {"reqSigs": 1, "hex": "a9149903b12bee2b213964a5bb223c588fecfd4165e687", "addresses": ["3Fe5jRXsKatw4AXkRbKT1jtFCG2c7LnrDr"], "asm": "OP_HASH160 9903b12bee2b213964a5bb223c588fecfd4165e6 OP_EQUAL", "type": "scripthash"}, "value": 0.0003, "n": 1}, {"scriptPubKey": {"reqSigs": 1, "hex": "a91438f91bc0f334907e8aadee80dae1804b649534be87", "addresses": ["36tGBeChECE5AhiB43FaELw2PJT9MQEeqQ"], "asm": "OP_HASH160 38f91bc0f334907e8aadee80dae1804b649534be OP_EQUAL", "type": "scripthash"}, "value": 0.0005, "n": 2}], "hex": "01000000000101c8b0ed951ad3ff6582d938b7db0c174ecd60893cbddc1e2763f0aeffbda775b000000000232200204d02c99405cba935e366195205174e4d1b4c7f3e0ec659f658080b320b0bafefffffffff0308cf00000000000017a9144e4b204ff067d9f9c41de129945bc4550a13f85f87307500000000000017a9149903b12bee2b213964a5bb223c588fecfd4165e68750c300000000000017a91438f91bc0f334907e8aadee80dae1804b649534be870400483045022100c9cb8637c1c9ac7075643d8e4d985c64c9f23ed90990e421c7190c234d884a4702203ee63ae260306eb4e6613e74a8a958321436714a50bc7db9c0485dd725cd4f4601483045022100e3805a72845e6a1e88571bf309ce853d59f83117b151e7044f9979ae2369e02902203db54f6cbd609164872831dd72f2b289ad03dfd06c5e6beb7a337e13aba6cf560169522103853698f892adaec81403aaf0a0987ae9dc706caebfb5ff0266435b42153dcbcb21031c715fc6f3903ef0b59c18815dd3afb6c69cd9b71787562658332e43b5c8764b21024469e6fb7e76f3e67bf0fe4f0ec034dc52a09b31bbf344987a7a0fd897dda2c053ae00000000", "vin": [{"txinwitness": ["", "3045022100c9cb8637c1c9ac7075643d8e4d985c64c9f23ed90990e421c7190c234d884a4702203ee63ae260306eb4e6613e74a8a958321436714a50bc7db9c0485dd725cd4f4601", "3045022100e3805a72845e6a1e88571bf309ce853d59f83117b151e7044f9979ae2369e02902203db54f6cbd609164872831dd72f2b289ad03dfd06c5e6beb7a337e13aba6cf5601", "522103853698f892adaec81403aaf0a0987ae9dc706caebfb5ff0266435b42153dcbcb21031c715fc6f3903ef0b59c18815dd3afb6c69cd9b71787562658332e43b5c8764b21024469e6fb7e76f3e67bf0fe4f0ec034dc52a09b31bbf344987a7a0fd897dda2c053ae"], "sequence": 4294967295, "scriptSig": {"hex": "2200204d02c99405cba935e366195205174e4d1b4c7f3e0ec659f658080b320b0bafef", "asm": "00204d02c99405cba935e366195205174e4d1b4c7f3e0ec659f658080b320b0bafef"}, "vout": 0, "txid": "b075a7bdffaef063271edcbd3c8960cd4e170cdbb738d98265ffd31a95edb0c8"}], "txid": "674f6c12ecd4f0c93979d0f67ce3f4e393f83039de3bd652d9e599ac5b3510e6", "blocktime": 1537870268, "version": 1, "confirmations": 11518, "time": 1537870268, "locktime": 0, "vsize": 246, "size": 438}