{"hash": "6752f35b6c46d0d9d294e521e55deb2cabfa625ca94befa0ef0977060e42eb9b", "blockhash": "0000000000000000001cda96e906b7601b7a6fb1a3b62bca570a9e5d8f4b3de1", "vout": [{"scriptPubKey": {"reqSigs": 1, "hex": "76a9141e4554dfaf8ea71581cf6f76115464918aa3433b88ac", "addresses": ["13m4KzgxaQPcoey6yDfYm8qj2cDwJrCjxm"], "asm": "OP_DUP OP_HASH160 1e4554dfaf8ea71581cf6f76115464918aa3433b OP_EQUALVERIFY OP_CHECKSIG", "type": "pubkeyhash"}, "value": 5.66e-06, "n": 0}, {"scriptPubKey": {"reqSigs": 1, "hex": "76a9141fc6bbe85438875f614b665d237694a2e8a7e25888ac", "addresses": ["13u22EEKdtPGeVYrCbvByHrRd4sDkFhECc"], "asm": "OP_DUP OP_HASH160 1fc6bbe85438875f614b665d237694a2e8a7e258 OP_EQUALVERIFY OP_CHECKSIG", "type": "pubkeyhash"}, "value": 0.00964029, "n": 1}], "hex": "01000000023d18be6eb5af92d68d7912804c4c68cc238d851d630b866ad4979c2970876796000000006b483045022100f6c5d7c2b703268501c03da92af37a7b9b680ac7985ad62c305267ca0978d93c022041f0dac90a97631a477430e664bd4008d4ae6b0f09de9b34ed45318a8317b0000121025d0c2ddb9c855c5ce00e13c3bd8704336d9315e46fc173f8022e690938846d44ffffffff76708740308a7e1ae335449c120a4105fe8d1bddc49771635a008156f6cbd7b8000000006b483045022100ca2b036a9069af545529fba2bf88b49ba2b1cde4e553b3035fa6dfe2b3d13c6b022009202876f9a258f2c9697ca57668c6db189d05172614e03d29127e249775d6b30121038d43c1134d7641359a00befa7db65298734394d48a7ddcab2dc41a49f9a76023ffffffff0236020000000000001976a9141e4554dfaf8ea71581cf6f76115464918aa3433b88acbdb50e00000000001976a9141fc6bbe85438875f614b665d237694a2e8a7e25888ac00000000", "vin": [{"sequence": 4294967295, "scriptSig": {"hex": "483045022100f6c5d7c2b703268501c03da92af37a7b9b680ac7985ad62c305267ca0978d93c022041f0dac90a97631a477430e664bd4008d4ae6b0f09de9b34ed45318a8317b0000121025d0c2ddb9c855c5ce00e13c3bd8704336d9315e46fc173f8022e690938846d44", "asm": "3045022100f6c5d7c2b703268501c03da92af37a7b9b680ac7985ad62c305267ca0978d93c022041f0dac90a97631a477430e664bd4008d4ae6b0f09de9b34ed45318a8317b000[ALL] 025d0c2ddb9c855c5ce00e13c3bd8704336d9315e46fc173f8022e690938846d44"}, "vout": 0, "txid": "96678770299c97d46a860b631d858d23cc684c4c8012798dd692afb56ebe183d"}, {"sequence": 4294967295, "scriptSig": {"hex": "483045022100ca2b036a9069af545529fba2bf88b49ba2b1cde4e553b3035fa6dfe2b3d13c6b022009202876f9a258f2c9697ca57668c6db189d05172614e03d29127e249775d6b30121038d43c1134d7641359a00befa7db65298734394d48a7ddcab2dc41a49f9a76023", "asm": "3045022100ca2b036a9069af545529fba2bf88b49ba2b1cde4e553b3035fa6dfe2b3d13c6b022009202876f9a258f2c9697ca57668c6db189d05172614e03d29127e249775d6b3[ALL] 038d43c1134d7641359a00befa7db65298734394d48a7ddcab2dc41a49f9a76023"}, "vout": 0, "txid": "b8d7cbf65681005a637197c4dd1b8dfe05410a129c4435e31a7e8a3040877076"}], "txid": "6752f35b6c46d0d9d294e521e55deb2cabfa625ca94befa0ef0977060e42eb9b", "blocktime": 1537873282, "version": 1, "confirmations": 11485, "time": 1537873282, "locktime": 0, "vsize": 374, "size": 374}