{"hash": "675b036ffe4bb81ab14f11a4b8622b2aa7e58c72717a146887309d288e4504eb", "blockhash": "00000000000000000017f5eb5941039fbcee6240d03bc1f2f8e35350df66a1d8", "vout": [{"scriptPubKey": {"reqSigs": 1, "hex": "76a914a6e56e9611105294bbde7968b4f8c2aab73c345388ac", "addresses": ["1GDU24K6WmCk3DMq53MViLFaTzdCBEBBjf"], "asm": "OP_DUP OP_HASH160 a6e56e9611105294bbde7968b4f8c2aab73c3453 OP_EQUALVERIFY OP_CHECKSIG", "type": "pubkeyhash"}, "value": 0.03199322, "n": 0}, {"scriptPubKey": {"reqSigs": 1, "hex": "76a9144c75785e2cbc0743188de475cd01c3e6ef02831a88ac", "addresses": ["17yH5YwsM2ouA6xcLhwNXkZ83DE25o1Ywv"], "asm": "OP_DUP OP_HASH160 4c75785e2cbc0743188de475cd01c3e6ef02831a OP_EQUALVERIFY OP_CHECKSIG", "type": "pubkeyhash"}, "value": 0.23, "n": 1}], "hex": "0100000001fafe136a42571ec181d6bec590a9c84079387109ea55a518eab99085cfcec11e010000006b483045022100da96f85927f5c485e5deb8ab74cdf69b220d99e3cf29826e85717eaeaf9ae29102200f5604f30050fbab8d6b507f474237b6610a21e4f5cb7306766dd698fe8e2125012103341cf85c5081c9e2d87698ded5fde23b175b7a1af6b33efe6b024b9ba5a0cedbffffffff025ad13000000000001976a914a6e56e9611105294bbde7968b4f8c2aab73c345388acc0f35e01000000001976a9144c75785e2cbc0743188de475cd01c3e6ef02831a88ac00000000", "vin": [{"sequence": 4294967295, "scriptSig": {"hex": "483045022100da96f85927f5c485e5deb8ab74cdf69b220d99e3cf29826e85717eaeaf9ae29102200f5604f30050fbab8d6b507f474237b6610a21e4f5cb7306766dd698fe8e2125012103341cf85c5081c9e2d87698ded5fde23b175b7a1af6b33efe6b024b9ba5a0cedb", "asm": "3045022100da96f85927f5c485e5deb8ab74cdf69b220d99e3cf29826e85717eaeaf9ae29102200f5604f30050fbab8d6b507f474237b6610a21e4f5cb7306766dd698fe8e2125[ALL] 03341cf85c5081c9e2d87698ded5fde23b175b7a1af6b33efe6b024b9ba5a0cedb"}, "vout": 1, "txid": "1ec1cecf8590b9ea18a555ea0971387940c8a990c5bed681c11e57426a13fefa"}], "txid": "675b036ffe4bb81ab14f11a4b8622b2aa7e58c72717a146887309d288e4504eb", "blocktime": 1537874412, "version": 1, "confirmations": 11468, "time": 1537874412, "locktime": 0, "vsize": 226, "size": 226}