{"hash": "dd53510ea137657199891d9073d5854eb9ad8be28c7af159a645b04d6329744e", "blockhash": "000000000000000000022b45ed06c6f4ccd3cf7fb5ba4856ebd2e58215665228", "vout": [{"scriptPubKey": {"reqSigs": 1, "hex": "a914121ae77d12e894d948319b676c0cede5d933210787", "addresses": ["33LkKLVeMKnLeeM79anrEcHBJxp82Ur6ic"], "asm": "OP_HASH160 121ae77d12e894d948319b676c0cede5d9332107 OP_EQUAL", "type": "scripthash"}, "value": 0.0025625, "n": 0}, {"scriptPubKey": {"reqSigs": 1, "hex": "a914627aa52932456d89054bd84f86246af3b71b93a887", "addresses": ["3Afj4stdiLG9EktGrMbm252ySonnhYaz8v"], "asm": "OP_HASH160 627aa52932456d89054bd84f86246af3b71b93a8 OP_EQUAL", "type": "scripthash"}, "value": 0.76032572, "n": 1}], "hex": "01000000000101aeebffaf8a96dbf02532ff578b783914579d706bd309f61ff8d49488421b31bd01000000232200205fdd641234b13964b223bd85ad2a4a667ca2099df3d42a1d3b45706a8d81abf0ffffffff02fae803000000000017a914121ae77d12e894d948319b676c0cede5d9332107873c2a88040000000017a914627aa52932456d89054bd84f86246af3b71b93a8870400483045022100e3fe2d5de7899173266313ac8b4cac6a91ceb740bafa2b11ee1db9b134c54fa3022029aed323582fe44d9650dccceca9271e9ea6a5e489556135c8588e2abea06c6601473044022007c32c3ebc6a18f86f4afb578c1db5f4bacdd15d3d5ad3be16d45e83757a1382022063da6dfccfd7b654fb4f59133204e5fe78682cee468a0c558609482ccac2d0a70147522103dcde3832fa56def7b4e783faad1b8af85c3cdd74a5ff4f3c7c216b1075c18da12103c70ae8ded79be1afda73b9ce5ea14a3878908ee160d66a9a717e792bb6db276952ae00000000", "vin": [{"txinwitness": ["", "3045022100e3fe2d5de7899173266313ac8b4cac6a91ceb740bafa2b11ee1db9b134c54fa3022029aed323582fe44d9650dccceca9271e9ea6a5e489556135c8588e2abea06c6601", "3044022007c32c3ebc6a18f86f4afb578c1db5f4bacdd15d3d5ad3be16d45e83757a1382022063da6dfccfd7b654fb4f59133204e5fe78682cee468a0c558609482ccac2d0a701", "522103dcde3832fa56def7b4e783faad1b8af85c3cdd74a5ff4f3c7c216b1075c18da12103c70ae8ded79be1afda73b9ce5ea14a3878908ee160d66a9a717e792bb6db276952ae"], "sequence": 4294967295, "scriptSig": {"hex": "2200205fdd641234b13964b223bd85ad2a4a667ca2099df3d42a1d3b45706a8d81abf0", "asm": "00205fdd641234b13964b223bd85ad2a4a667ca2099df3d42a1d3b45706a8d81abf0"}, "vout": 1, "txid": "bd311b428894d4f81ff609d36b709d571439788b57ff3225f0db968aafffebae"}], "txid": "675e0864d5cff78814c8f755ccfdf80122ffd4288d8b384704f44ca4f84476eb", "blocktime": 1537869901, "version": 1, "confirmations": 11523, "time": 1537869901, "locktime": 0, "vsize": 206, "size": 371}