{"hash": "a05928bfd6ef842ea7452cd1b149c1596fac245fbbc2da70106d59d35bad3d80", "blockhash": "00000000000000000017f5eb5941039fbcee6240d03bc1f2f8e35350df66a1d8", "vout": [{"scriptPubKey": {"reqSigs": 1, "hex": "a91489b9cce3a9bddbecb01b64d8c1c3f48323c3d51887", "addresses": ["3EFF5TabwWBavTuAroVEyzdXJT9LS1QuKp"], "asm": "OP_HASH160 89b9cce3a9bddbecb01b64d8c1c3f48323c3d518 OP_EQUAL", "type": "scripthash"}, "value": 0.01004792, "n": 0}, {"scriptPubKey": {"reqSigs": 1, "hex": "76a9147bcf39426207e310b72835467cefdbad49fda10288ac", "addresses": ["1CHeMkPao26jVSiZTsFWrsS79shvinXiyb"], "asm": "OP_DUP OP_HASH160 7bcf39426207e310b72835467cefdbad49fda102 OP_EQUALVERIFY OP_CHECKSIG", "type": "pubkeyhash"}, "value": 0.025, "n": 1}], "hex": "02000000000101db9e1e1193003966d0f378e7cd6dc16faf4c0334bcca9929e7494e0c9f0bf12b0000000017160014957c5d8500a988ff96677e9a5ce8c012a38e05c7feffffff02f8540f000000000017a91489b9cce3a9bddbecb01b64d8c1c3f48323c3d51887a0252600000000001976a9147bcf39426207e310b72835467cefdbad49fda10288ac024730440220120a702a1f7c6f5abad90a0a2598660c146c43eac93381dc114ef09103ff941a022050921ea335a6b05d1ba2ee8d5fc1b233d14575eb862a720fbaaa7275319bba60012103a3930204be5d988d29fc430c2783f2d8504b8cda4a4e3627e2d2097ff2a2459e14490800", "vin": [{"txinwitness": ["30440220120a702a1f7c6f5abad90a0a2598660c146c43eac93381dc114ef09103ff941a022050921ea335a6b05d1ba2ee8d5fc1b233d14575eb862a720fbaaa7275319bba6001", "03a3930204be5d988d29fc430c2783f2d8504b8cda4a4e3627e2d2097ff2a2459e"], "sequence": 4294967294, "scriptSig": {"hex": "160014957c5d8500a988ff96677e9a5ce8c012a38e05c7", "asm": "0014957c5d8500a988ff96677e9a5ce8c012a38e05c7"}, "vout": 0, "txid": "2bf10b9f0c4e49e72999cabc34034caf6fc16dcde778f3d066390093111e9edb"}], "txid": "6760db4a4b0d946e048a79b8416099880038f253556aab21233607697a5f917e", "blocktime": 1537874412, "version": 2, "confirmations": 11467, "time": 1537874412, "locktime": 542996, "vsize": 168, "size": 249}