{"hash": "6761649bd350102be0a7fc42b5c8dfce401be00b65e22f88a17d6f6135ceaaf8", "blockhash": "0000000000000000001f76057863aec43deb6fa401d9628bb513d65a8098bfab", "vout": [{"scriptPubKey": {"reqSigs": 1, "hex": "76a9145d01ae0eb2e399d56b4d64d49b752fc5d3cba4ce88ac", "addresses": ["19UmrZdQWXYDwfYweX2noVfFML9U6YnyNY"], "asm": "OP_DUP OP_HASH160 5d01ae0eb2e399d56b4d64d49b752fc5d3cba4ce OP_EQUALVERIFY OP_CHECKSIG", "type": "pubkeyhash"}, "value": 0.179279, "n": 0}, {"scriptPubKey": {"reqSigs": 1, "hex": "76a9141b223b2c95c8b00b3769d153842f3604704dd46088ac", "addresses": ["13UUFbsxYzxCosPXGYxJjT8stYfg5tM4Bm"], "asm": "OP_DUP OP_HASH160 1b223b2c95c8b00b3769d153842f3604704dd460 OP_EQUALVERIFY OP_CHECKSIG", "type": "pubkeyhash"}, "value": 1.2218191, "n": 1}], "hex": "020000000157004be26c91c859eb01e3a16cd41f7def56d8386c395b972d07745b37aedf63000000006b483045022100a38ec1df927ef764bd56cf1445e6fa9a2f097630a67366bb3c1e8ac3749db9cf02203a527d6acc802508d3053957213a7517d6d5d46c1007bd40a8060b400f91003001210252347e8df6a1c2a2334a2318475e6715663d6e8fdcc06042108f17b5bb68cab7feffffff02dc8e1101000000001976a9145d01ae0eb2e399d56b4d64d49b752fc5d3cba4ce88ac16594807000000001976a9141b223b2c95c8b00b3769d153842f3604704dd46088ac14490800", "vin": [{"sequence": 4294967294, "scriptSig": {"hex": "483045022100a38ec1df927ef764bd56cf1445e6fa9a2f097630a67366bb3c1e8ac3749db9cf02203a527d6acc802508d3053957213a7517d6d5d46c1007bd40a8060b400f91003001210252347e8df6a1c2a2334a2318475e6715663d6e8fdcc06042108f17b5bb68cab7", "asm": "3045022100a38ec1df927ef764bd56cf1445e6fa9a2f097630a67366bb3c1e8ac3749db9cf02203a527d6acc802508d3053957213a7517d6d5d46c1007bd40a8060b400f910030[ALL] 0252347e8df6a1c2a2334a2318475e6715663d6e8fdcc06042108f17b5bb68cab7"}, "vout": 0, "txid": "63dfae375b74072d975b396c38d856ef7d1fd46ca1e301eb59c8916ce24b0057"}], "txid": "6761649bd350102be0a7fc42b5c8dfce401be00b65e22f88a17d6f6135ceaaf8", "blocktime": 1537873891, "version": 2, "confirmations": 11474, "time": 1537873891, "locktime": 542996, "vsize": 226, "size": 226}