{"hash": "6764d710f5a70565bb3685b69e35a49368d986e157f78b07ae6dd9b6b6e340d9", "blockhash": "00000000000000000004ffacab907a6b429b9a5745fa0b75af4234bf69dd7176", "vout": [{"scriptPubKey": {"reqSigs": 1, "hex": "76a914948a77f7a9b3cb0bb4f79d63cabd5741974ce90188ac", "addresses": ["1EYQtMrHu3t8qcFVdtDN9q9Yx9jUZHDaiY"], "asm": "OP_DUP OP_HASH160 948a77f7a9b3cb0bb4f79d63cabd5741974ce901 OP_EQUALVERIFY OP_CHECKSIG", "type": "pubkeyhash"}, "value": 0.00352809, "n": 0}, {"scriptPubKey": {"reqSigs": 1, "hex": "a9147582be6a54ebba3551f388e7303e1069781c63be87", "addresses": ["3CQMcE8BNvjUrsEbk8tN4NtVLZHYBu7ywS"], "asm": "OP_HASH160 7582be6a54ebba3551f388e7303e1069781c63be OP_EQUAL", "type": "scripthash"}, "value": 0.01249996, "n": 1}], "hex": "010000000180fc0317f46ec7fc1ae085aa5281e3f8ae89be78abb11e28c4fdab80b339c5db000000006b48304502210083105fc8474a24df95af6dc7a27bf96581c067a3720fe2559df469e290b9ef9e022053688380020322bb84b00afd41c31145b56d187a6c57f8b359bc67e3626094a90121032b67d9e0b7d92d8bcb743cf20ef5f806cb4c6a8a7984dfc0f75e8fa3eac29a63ffffffff0229620500000000001976a914948a77f7a9b3cb0bb4f79d63cabd5741974ce90188accc1213000000000017a9147582be6a54ebba3551f388e7303e1069781c63be8700000000", "vin": [{"sequence": 4294967295, "scriptSig": {"hex": "48304502210083105fc8474a24df95af6dc7a27bf96581c067a3720fe2559df469e290b9ef9e022053688380020322bb84b00afd41c31145b56d187a6c57f8b359bc67e3626094a90121032b67d9e0b7d92d8bcb743cf20ef5f806cb4c6a8a7984dfc0f75e8fa3eac29a63", "asm": "304502210083105fc8474a24df95af6dc7a27bf96581c067a3720fe2559df469e290b9ef9e022053688380020322bb84b00afd41c31145b56d187a6c57f8b359bc67e3626094a9[ALL] 032b67d9e0b7d92d8bcb743cf20ef5f806cb4c6a8a7984dfc0f75e8fa3eac29a63"}, "vout": 0, "txid": "dbc539b380abfdc4281eb1ab78be89aef8e38152aa85e01afcc76ef41703fc80"}], "txid": "6764d710f5a70565bb3685b69e35a49368d986e157f78b07ae6dd9b6b6e340d9", "blocktime": 1537875543, "version": 1, "confirmations": 11464, "time": 1537875543, "locktime": 0, "vsize": 224, "size": 224}