{"hash": "776ed93dc79d77c9610287054d98da102c53ceae36f41478363c36eb8a04387d", "blockhash": "00000000000000000018f53835495a110e01622372bf6ae95dc86f2b0ab887b0", "vout": [{"scriptPubKey": {"reqSigs": 1, "hex": "a9140fb306dbfce490d9896ed4ef5707a0579bbacd1187", "addresses": ["3382XRNK3CLNL6qSMsbLfMkdd4Fajve3t6"], "asm": "OP_HASH160 0fb306dbfce490d9896ed4ef5707a0579bbacd11 OP_EQUAL", "type": "scripthash"}, "value": 0.00042955, "n": 0}, {"scriptPubKey": {"reqSigs": 1, "hex": "76a91428ce6862ed1aa0d6efa1eedcfc3f40f7879ca93c88ac", "addresses": ["14imJ8sjByhdNhKctqHQqTjwCAzd9dacoJ"], "asm": "OP_DUP OP_HASH160 28ce6862ed1aa0d6efa1eedcfc3f40f7879ca93c OP_EQUALVERIFY OP_CHECKSIG", "type": "pubkeyhash"}, "value": 0.00145835, "n": 1}, {"scriptPubKey": {"reqSigs": 1, "hex": "76a914863997ac813f9c87f6e866ebe2710f81b73a7d1a88ac", "addresses": ["1DEiYJSRBKd6M5FdwAEDJsKPiLtxUmkdDS"], "asm": "OP_DUP OP_HASH160 863997ac813f9c87f6e866ebe2710f81b73a7d1a OP_EQUALVERIFY OP_CHECKSIG", "type": "pubkeyhash"}, "value": 0.00350564, "n": 2}, {"scriptPubKey": {"reqSigs": 1, "hex": "a914296f3d688f9f428c81a9fbbe9b652a9d8e00bffd87", "addresses": ["35U6tVRm7ZuRfozucS2tiSq6tTdDuvZNgH"], "asm": "OP_HASH160 296f3d688f9f428c81a9fbbe9b652a9d8e00bffd OP_EQUAL", "type": "scripthash"}, "value": 0.00046419, "n": 3}, {"scriptPubKey": {"reqSigs": 1, "hex": "a914e58ffe575ba1f8b07222529fbe0cfde177da86e587", "addresses": ["3NcqAKQQZ9PyGvwV4YM2GHgEp4otpKXjKn"], "asm": "OP_HASH160 e58ffe575ba1f8b07222529fbe0cfde177da86e5 OP_EQUAL", "type": "scripthash"}, "value": 0.00060356, "n": 4}, {"scriptPubKey": {"reqSigs": 1, "hex": "76a914083fe7a9c67932e5201d1224d0c52cf3e58ee8cc88ac", "addresses": ["1kcxjBi8brCSVE3GX6sLaWsya3CVR8SNz"], "asm": "OP_DUP OP_HASH160 083fe7a9c67932e5201d1224d0c52cf3e58ee8cc OP_EQUALVERIFY OP_CHECKSIG", "type": "pubkeyhash"}, "value": 0.00129042, "n": 5}, {"scriptPubKey": {"reqSigs": 1, "hex": "76a914b178181400ad16b19249900ae0d8ff61cdb3832e88ac", "addresses": ["1HBNUEeJNSEkqHNakgf2GA4NYGXuLKnoRs"], "asm": "OP_DUP OP_HASH160 b178181400ad16b19249900ae0d8ff61cdb3832e OP_EQUALVERIFY OP_CHECKSIG", "type": "pubkeyhash"}, "value": 0.00043165, "n": 6}, {"scriptPubKey": {"reqSigs": 1, "hex": "a914a3985819fe208c2754d7e21b5f22480f144cb34c87", "addresses": ["3Gc2ZsMXaWf2vb2bEMzaRQCrYnCDzpQC1T"], "asm": "OP_HASH160 a3985819fe208c2754d7e21b5f22480f144cb34c OP_EQUAL", "type": "scripthash"}, "value": 0.00042501, "n": 7}, {"scriptPubKey": {"reqSigs": 1, "hex": "a914d721fee85eb8efe48aff89448d86f8fec087c58c87", "addresses": ["3MJXvrPCyumt1nRRt3FV6VtqBo2nttfJpT"], "asm": "OP_HASH160 d721fee85eb8efe48aff89448d86f8fec087c58c OP_EQUAL", "type": "scripthash"}, "value": 0.00041067, "n": 8}, {"scriptPubKey": {"reqSigs": 1, "hex": "76a91421d2e9d52e03bc6c2e54e96a6846e66007583fa588ac", "addresses": ["145qxrMhSQGAp1RaWHnb81Kk83KMC7KHMi"], "asm": "OP_DUP OP_HASH160 21d2e9d52e03bc6c2e54e96a6846e66007583fa5 OP_EQUALVERIFY OP_CHECKSIG", "type": "pubkeyhash"}, "value": 0.0004484, "n": 9}, {"scriptPubKey": {"reqSigs": 1, "hex": "76a91487359441ed4ac6decca90a37b2be4f02c631dbb888ac", "addresses": ["1DKvQe9Goq6tpYTm9ZUBXrAcsTjKwu5i6v"], "asm": "OP_DUP OP_HASH160 87359441ed4ac6decca90a37b2be4f02c631dbb8 OP_EQUALVERIFY OP_CHECKSIG", "type": "pubkeyhash"}, "value": 0.0015, "n": 10}, {"scriptPubKey": {"reqSigs": 1, "hex": "a914eb1beea5ece66e79d76f7031bed4fb5088de477487", "addresses": ["3P8ABPVFVMhnDz5t1aWxo4pJn4CmZC4GEB"], "asm": "OP_HASH160 eb1beea5ece66e79d76f7031bed4fb5088de4774 OP_EQUAL", "type": "scripthash"}, "value": 0.16409647, "n": 11}, {"scriptPubKey": {"reqSigs": 1, "hex": "a91485380b2532720d000a2b263953253cd36bb2d1b887", "addresses": ["3DqQw2iRByPj2mCwp9S5Sjti1uT2weNEtg"], "asm": "OP_HASH160 85380b2532720d000a2b263953253cd36bb2d1b8 OP_EQUAL", "type": "scripthash"}, "value": 0.00814115, "n": 12}, {"scriptPubKey": {"reqSigs": 1, "hex": "a9141c3eb00c318a48daf7866498612d56052763f22c87", "addresses": ["34GMwXoCevJHbXHuUGdc5fJTEvLdXGS7iS"], "asm": "OP_HASH160 1c3eb00c318a48daf7866498612d56052763f22c OP_EQUAL", "type": "scripthash"}, "value": 0.02617809, "n": 13}, {"scriptPubKey": {"reqSigs": 1, "hex": "76a91421c1ac765eeeb5da646edf671bce7d0512cf9ab088ac", "addresses": ["145VK1o35BxDSqHGSy8kxEYM4GR2qTQLzP"], "asm": "OP_DUP OP_HASH160 21c1ac765eeeb5da646edf671bce7d0512cf9ab0 OP_EQUALVERIFY OP_CHECKSIG", "type": "pubkeyhash"}, "value": 0.00050003, "n": 14}, {"scriptPubKey": {"reqSigs": 1, "hex": "002092f79fba759ed7d1428723c5c11d026167a26b81748d2944ad3a30bd5048dd00", "addresses": ["bc1qjtmelwn4nmtazs58y0zuz8gzv9n6y6upwjxjj39d8gct65zgm5qqmsw364"], "asm": "0 92f79fba759ed7d1428723c5c11d026167a26b81748d2944ad3a30bd5048dd00", "type": "witness_v0_scripthash"}, "value": 0.59470645, "n": 15}], "hex": "010000000001010978182b54bd000f2f64c1b9ffbff41821a8ff9732c73ef6490c0ee08bda8dba0000000000ffffffff10cba700000000000017a9140fb306dbfce490d9896ed4ef5707a0579bbacd1187ab390200000000001976a91428ce6862ed1aa0d6efa1eedcfc3f40f7879ca93c88ac64590500000000001976a914863997ac813f9c87f6e866ebe2710f81b73a7d1a88ac53b500000000000017a914296f3d688f9f428c81a9fbbe9b652a9d8e00bffd87c4eb00000000000017a914e58ffe575ba1f8b07222529fbe0cfde177da86e58712f80100000000001976a914083fe7a9c67932e5201d1224d0c52cf3e58ee8cc88ac9da80000000000001976a914b178181400ad16b19249900ae0d8ff61cdb3832e88ac05a600000000000017a914a3985819fe208c2754d7e21b5f22480f144cb34c876ba000000000000017a914d721fee85eb8efe48aff89448d86f8fec087c58c8728af0000000000001976a91421d2e9d52e03bc6c2e54e96a6846e66007583fa588acf0490200000000001976a91487359441ed4ac6decca90a37b2be4f02c631dbb888ac2f64fa000000000017a914eb1beea5ece66e79d76f7031bed4fb5088de477487236c0c000000000017a91485380b2532720d000a2b263953253cd36bb2d1b887d1f127000000000017a9141c3eb00c318a48daf7866498612d56052763f22c8753c30000000000001976a91421c1ac765eeeb5da646edf671bce7d0512cf9ab088ac35738b030000000022002092f79fba759ed7d1428723c5c11d026167a26b81748d2944ad3a30bd5048dd0004004730440220095bd704e8c0291f1fc2b1cdfd41e4da7974e13935bfc476c20efd54f4379e37022007fbb51df76785928a01c640ef5c2315d6b67542d50fa98ce0914bec870147f0014830450221009017950b860582e5cd5fd2095b416415844618ce3fcc286dad06a8ac71d787c902205eabba36bcc4ddd53435b5499bb6b298e5258387a9b7fa99c94d6f0e9f6579730147522102cdd42f879c9f408180a9d58607747c0d541379fbffb159094d701288a8b135d82102feb2538477491cdc4444e23b87d6dd3aa4c5bee60460a51c45380f14080f3f5952ae00000000", "vin": [{"txinwitness": ["", "30440220095bd704e8c0291f1fc2b1cdfd41e4da7974e13935bfc476c20efd54f4379e37022007fbb51df76785928a01c640ef5c2315d6b67542d50fa98ce0914bec870147f001", "30450221009017950b860582e5cd5fd2095b416415844618ce3fcc286dad06a8ac71d787c902205eabba36bcc4ddd53435b5499bb6b298e5258387a9b7fa99c94d6f0e9f65797301", "522102cdd42f879c9f408180a9d58607747c0d541379fbffb159094d701288a8b135d82102feb2538477491cdc4444e23b87d6dd3aa4c5bee60460a51c45380f14080f3f5952ae"], "sequence": 4294967295, "scriptSig": {"hex": "", "asm": ""}, "vout": 0, "txid": "ba8dda8be00e0c49f63ec73297ffa82118f4bfffb9c1642f0f00bd542b187809"}], "txid": "67661bcd50e53a275a23412c8881864a710c10973d4deec939cca35c88563d02", "blocktime": 1537870928, "version": 1, "confirmations": 11514, "time": 1537870928, "locktime": 0, "vsize": 644, "size": 809}