{"hash": "abde550732829d3545f9e4c04b55352b127247cbfc183575293b4f6ecb458e0a", "blockhash": "0000000000000000000e13cef7c366c0283d82e591d1acd082e914b08063cdf1", "vout": [{"scriptPubKey": {"reqSigs": 1, "hex": "002058c8797f181e000075cb9a18a9662013b795012e86acc04d56a2d229e7b8d7c4", "addresses": ["bc1qtry8jlccrcqqqawtngv2je3qzwme2qfws6kvqn2k5tfzneac6lzqpgummp"], "asm": "0 58c8797f181e000075cb9a18a9662013b795012e86acc04d56a2d229e7b8d7c4", "type": "witness_v0_scripthash"}, "value": 0.00117789, "n": 0}], "hex": "0100000000010106260c45882bcf0becf5f8992092f40ef08d832143eb51d96571db8f27d23d780000000017160014090ba5ce0aee03d37a5e5c1a093127a33b490124ffffffff011dcc01000000000022002058c8797f181e000075cb9a18a9662013b795012e86acc04d56a2d229e7b8d7c402483045022100d8ce78dbe4c2216e7c040e917b333a1979807fc9b5870de2c7456d7fd13480010220674caed3e99dfec64abc635f33774d4d736e07ae1892f63a5104485b1f36792e012103b88bef302c3c95d5d8e47d2de8e2b8bd254897c6e539435aa6bd92334c3a3aeb00000000", "vin": [{"txinwitness": ["3045022100d8ce78dbe4c2216e7c040e917b333a1979807fc9b5870de2c7456d7fd13480010220674caed3e99dfec64abc635f33774d4d736e07ae1892f63a5104485b1f36792e01", "03b88bef302c3c95d5d8e47d2de8e2b8bd254897c6e539435aa6bd92334c3a3aeb"], "sequence": 4294967295, "scriptSig": {"hex": "160014090ba5ce0aee03d37a5e5c1a093127a33b490124", "asm": "0014090ba5ce0aee03d37a5e5c1a093127a33b490124"}, "vout": 0, "txid": "783dd2278fdb7165d951eb4321838df00ef4922099f8f5ec0bcf2b88450c2606"}], "txid": "67697473aa498c1eb153d070b224bea87d9f5de67ef6de8e832ddb3b9eaa66be", "blocktime": 1537871767, "version": 1, "confirmations": 11495, "time": 1537871767, "locktime": 0, "vsize": 145, "size": 227}