{"hash": "e24410047c9d0e3f993ccba7e2c9b50810ba7306b91d293bb039054c28a24f00", "blockhash": "00000000000000000017f5eb5941039fbcee6240d03bc1f2f8e35350df66a1d8", "vout": [{"scriptPubKey": {"reqSigs": 1, "hex": "a914052b0a50f7cce1ec64ba9733100620ec10cf822187", "addresses": ["32ALrzgE8amuPMHweJWvAQpN2AZfGhqKKu"], "asm": "OP_HASH160 052b0a50f7cce1ec64ba9733100620ec10cf8221 OP_EQUAL", "type": "scripthash"}, "value": 0.00781, "n": 0}, {"scriptPubKey": {"reqSigs": 1, "hex": "001485b69424d561fa1dce67decc06bdcfea7746dc64", "addresses": ["bc1qskmfgfx4v8apmnn8mmxqd0w0afm5dhry8sny2h"], "asm": "0 85b69424d561fa1dce67decc06bdcfea7746dc64", "type": "witness_v0_keyhash"}, "value": 8.325e-05, "n": 1}], "hex": "010000000001014d5b8e5dc9d1eb8825c2ffe7d3dd5f0197067ab2ccbca3d693902c8062c64c78010000001716001445745648ead7e2d48680a0dfa75a8c0f3bd38c01ffffffff02c8ea0b000000000017a914052b0a50f7cce1ec64ba9733100620ec10cf822187852000000000000016001485b69424d561fa1dce67decc06bdcfea7746dc6402483045022100c2c514e93ef170480332c58533cb73de60bdf824072404f6b6891737bd68508702200ead20be6faf970e989bcd6dbea9f4624eb0f777ba6bd51bf9a3f2f10c80dbb60121026081401ccbcabb618f3752e96b16b8b5d76af9d6d797dd752066010f6689ba7700000000", "vin": [{"txinwitness": ["3045022100c2c514e93ef170480332c58533cb73de60bdf824072404f6b6891737bd68508702200ead20be6faf970e989bcd6dbea9f4624eb0f777ba6bd51bf9a3f2f10c80dbb601", "026081401ccbcabb618f3752e96b16b8b5d76af9d6d797dd752066010f6689ba77"], "sequence": 4294967295, "scriptSig": {"hex": "16001445745648ead7e2d48680a0dfa75a8c0f3bd38c01", "asm": "001445745648ead7e2d48680a0dfa75a8c0f3bd38c01"}, "vout": 1, "txid": "784cc662802c9093d6a3bcccb27a0697015fddd3e7ffc22588ebd1c95d8e5b4d"}], "txid": "676d762ca668ebb0096f0d38385a63ba45209a8fac42f4bc1b6774d04e984b37", "blocktime": 1537874412, "version": 1, "confirmations": 11468, "time": 1537874412, "locktime": 0, "vsize": 165, "size": 247}