{"hash": "ab7061f87c8a3ddf1771386f642ba5e57d40ba617265d98607f4fbb66ae87e45", "blockhash": "0000000000000000001f0ddff1eddb255c1121bcd4da4f1bc9a0da00cae72433", "vout": [{"scriptPubKey": {"reqSigs": 1, "hex": "76a914bb8822d4588bfb9f58db0b81c62e7bb6c9c86aa188ac", "addresses": ["1J6aSmipRSsj2E4SYBjtc1p4biGHAdyCB4"], "asm": "OP_DUP OP_HASH160 bb8822d4588bfb9f58db0b81c62e7bb6c9c86aa1 OP_EQUALVERIFY OP_CHECKSIG", "type": "pubkeyhash"}, "value": 0.048, "n": 0}, {"scriptPubKey": {"reqSigs": 1, "hex": "a914ad7a29e6c3bac8b27e4460a5cb628f1def77fa7987", "addresses": ["3HWHAp2F4gwTp4P97B9jZwVVKfyctCFb4w"], "asm": "OP_HASH160 ad7a29e6c3bac8b27e4460a5cb628f1def77fa79 OP_EQUAL", "type": "scripthash"}, "value": 0.00934678, "n": 1}], "hex": "01000000000102f340acf7541baa1c54246a49cde7397ec067928a125733d2cfff26e30894a33c00000000171600142dc306409299ac53f3b41aefcc6461a2eb41ad1affffff00faef893ad5342729ad717aaa9f967462cb6c3443997145998d40f1ca1b1821b301000000171600141ca79c4e33ed528afc5ef060ac86d489babddc5effffff0002003e4900000000001976a914bb8822d4588bfb9f58db0b81c62e7bb6c9c86aa188ac16430e000000000017a914ad7a29e6c3bac8b27e4460a5cb628f1def77fa7987024830450221008fc0f0e659664909f621a538a2e981dde72e4b5cbceef5993349816daf392e91022043ccc6ba8ba9971f2726c8efd41d2d4e5d4855eaea35e11b18516d37d0c2fc9801210327197fa23919c1aca0f134690204c40a1790b8e294783ec8e11c6c0ab4a6bb7a02473044022043b18122611c111f721c0c336ed5201a2963cdc2bd6db88e139a222326b3270c02204431286d3589257f3a22aad637345140771dc2dd4b5ebfa2677920fc9e982cca01210202d46db1e78b4c703b763b06c5f9f3623142597c8a222d8bf452857488d52ab100000000", "vin": [{"txinwitness": ["30450221008fc0f0e659664909f621a538a2e981dde72e4b5cbceef5993349816daf392e91022043ccc6ba8ba9971f2726c8efd41d2d4e5d4855eaea35e11b18516d37d0c2fc9801", "0327197fa23919c1aca0f134690204c40a1790b8e294783ec8e11c6c0ab4a6bb7a"], "sequence": 16777215, "scriptSig": {"hex": "1600142dc306409299ac53f3b41aefcc6461a2eb41ad1a", "asm": "00142dc306409299ac53f3b41aefcc6461a2eb41ad1a"}, "vout": 0, "txid": "3ca39408e326ffcfd23357128a9267c07e39e7cd496a24541caa1b54f7ac40f3"}, {"txinwitness": ["3044022043b18122611c111f721c0c336ed5201a2963cdc2bd6db88e139a222326b3270c02204431286d3589257f3a22aad637345140771dc2dd4b5ebfa2677920fc9e982cca01", "0202d46db1e78b4c703b763b06c5f9f3623142597c8a222d8bf452857488d52ab1"], "sequence": 16777215, "scriptSig": {"hex": "1600141ca79c4e33ed528afc5ef060ac86d489babddc5e", "asm": "00141ca79c4e33ed528afc5ef060ac86d489babddc5e"}, "vout": 1, "txid": "b321181bcaf1408d9945719943346ccb6274969faa7a71ad292734d53a89effa"}], "txid": "6772a642c4cfb8b331ac6c4f8b3ce5c22f2feec5e2b3ddb79989f902d691c486", "blocktime": 1537872018, "version": 1, "confirmations": 11489, "time": 1537872018, "locktime": 0, "vsize": 259, "size": 421}