{"hash": "677687abaaadc44521f8a8e97293a90fbff2d6d0e8b660aa63f754398b5b0afc", "blockhash": "0000000000000000000baef3f32e3676a92c3b2e5da21b426e4f302fc371ce76", "vout": [{"scriptPubKey": {"reqSigs": 1, "hex": "76a91494378799fe72c602cba758f17347cb3fd980a6bd88ac", "addresses": ["1EWhXfNnKphQL3UjcSpYoc2fGNi6JcgYg6"], "asm": "OP_DUP OP_HASH160 94378799fe72c602cba758f17347cb3fd980a6bd OP_EQUALVERIFY OP_CHECKSIG", "type": "pubkeyhash"}, "value": 0.00632916, "n": 0}, {"scriptPubKey": {"type": "nulldata", "hex": "6a4c500000780e000114074dca0d0f0a83fc4c871b702940d64fa54d8eb2d19ed074892d00f8e86c5bf752102a944cbf9d9a9e8aa1975f5baa1b5f0614627f589089d81d100759d4ba30d2c37bb011d97e02cf", "asm": "OP_RETURN 0000780e000114074dca0d0f0a83fc4c871b702940d64fa54d8eb2d19ed074892d00f8e86c5bf752102a944cbf9d9a9e8aa1975f5baa1b5f0614627f589089d81d100759d4ba30d2c37bb011d97e02cf"}, "value": 0.0, "n": 1}], "hex": "0100000001de33cb58f4f39c695549f467398a43d208b51a26e91f1a8e4bf1a9d1ce550bc3010000006b483045022100850398a4651bd156e56387dcc7b8d1075ca559f1468f75eb56e6b770bf76fd7d022017eaa6351bd2a221b45989210f600c4b19b71bbda71b998893f90c495a2ef67d01210236c9466646e45da4fb0e49bf2b87b16d0e34641abd44d27dccd60059bdaf34c7ffffffff0254a80900000000001976a91494378799fe72c602cba758f17347cb3fd980a6bd88ac0000000000000000536a4c500000780e000114074dca0d0f0a83fc4c871b702940d64fa54d8eb2d19ed074892d00f8e86c5bf752102a944cbf9d9a9e8aa1975f5baa1b5f0614627f589089d81d100759d4ba30d2c37bb011d97e02cf00000000", "vin": [{"sequence": 4294967295, "scriptSig": {"hex": "483045022100850398a4651bd156e56387dcc7b8d1075ca559f1468f75eb56e6b770bf76fd7d022017eaa6351bd2a221b45989210f600c4b19b71bbda71b998893f90c495a2ef67d01210236c9466646e45da4fb0e49bf2b87b16d0e34641abd44d27dccd60059bdaf34c7", "asm": "3045022100850398a4651bd156e56387dcc7b8d1075ca559f1468f75eb56e6b770bf76fd7d022017eaa6351bd2a221b45989210f600c4b19b71bbda71b998893f90c495a2ef67d[ALL] 0236c9466646e45da4fb0e49bf2b87b16d0e34641abd44d27dccd60059bdaf34c7"}, "vout": 1, "txid": "c30b55ced1a9f14b8e1a1fe9261ab508d2438a3967f44955699cf3f458cb33de"}], "txid": "677687abaaadc44521f8a8e97293a90fbff2d6d0e8b660aa63f754398b5b0afc", "blocktime": 1537876114, "version": 1, "confirmations": 11462, "time": 1537876114, "locktime": 0, "vsize": 284, "size": 284}