{"hash": "ae55b51cccfd2f1f226a7cd2c777ccb3184201e1814c9611f1db156498f4099d", "blockhash": "0000000000000000001f0ddff1eddb255c1121bcd4da4f1bc9a0da00cae72433", "vout": [{"scriptPubKey": {"reqSigs": 1, "hex": "76a9142e1b944fe7ffbe969fc1df8d662fd7b5d6303c9b88ac", "addresses": ["15Co856cRnFRCKwSSzECoyT3ozVhuFoJZ6"], "asm": "OP_DUP OP_HASH160 2e1b944fe7ffbe969fc1df8d662fd7b5d6303c9b OP_EQUALVERIFY OP_CHECKSIG", "type": "pubkeyhash"}, "value": 0.00030545, "n": 0}, {"scriptPubKey": {"reqSigs": 1, "hex": "a914ddf7737bb213b7f108a7ac7ecfb971fd98be0b9187", "addresses": ["3Mvfh9DoHXgm4kL4WAATFkS3kxXvSd6Qw1"], "asm": "OP_HASH160 ddf7737bb213b7f108a7ac7ecfb971fd98be0b91 OP_EQUAL", "type": "scripthash"}, "value": 0.01013768, "n": 1}], "hex": "0200000000010210ed89986ab5864304c78a6adc4c50c002764075a99489f4679d99cb36e0de0f0000000017160014dd83042561bdb6189193ec3bb2a9e9b8cf2c4ab3feffffff8478c8c9cb4d9ce04dedc4349ea2cb51929609529d32df64e43056945fc67cab0100000017160014e1a188b53503081e33dff88b03b0fcf7b6aa70f5feffffff0251770000000000001976a9142e1b944fe7ffbe969fc1df8d662fd7b5d6303c9b88ac08780f000000000017a914ddf7737bb213b7f108a7ac7ecfb971fd98be0b918702473044022063c82316fe5b1ab664998dfec5bdac74ebc6d9eb90fc45e872e959673bd1c40302207788f230e17db1fc81dae63341fccfabab85a25fd8a155ad185e09d4c9d9b03d01210227270651fd63d2cf1c4ad0fbbdf7d5c489f3df43093e7211300be15c2a14bab802483045022100fe0fef3c737d3b1f29cdca7bb7cbce00a926fecf1a1551e1fbb24e78c2c263940220694af10bfb4810cfb5dd5632512e974e1b3deb9a3b2d45f98795e5722b694899012102dcb43f7ab83c1c4beead38a171e9843075138b77896ef0d123cc8b133fa7921a11490800", "vin": [{"txinwitness": ["3044022063c82316fe5b1ab664998dfec5bdac74ebc6d9eb90fc45e872e959673bd1c40302207788f230e17db1fc81dae63341fccfabab85a25fd8a155ad185e09d4c9d9b03d01", "0227270651fd63d2cf1c4ad0fbbdf7d5c489f3df43093e7211300be15c2a14bab8"], "sequence": 4294967294, "scriptSig": {"hex": "160014dd83042561bdb6189193ec3bb2a9e9b8cf2c4ab3", "asm": "0014dd83042561bdb6189193ec3bb2a9e9b8cf2c4ab3"}, "vout": 0, "txid": "0fdee036cb999d67f48994a975407602c0504cdc6a8ac7044386b56a9889ed10"}, {"txinwitness": ["3045022100fe0fef3c737d3b1f29cdca7bb7cbce00a926fecf1a1551e1fbb24e78c2c263940220694af10bfb4810cfb5dd5632512e974e1b3deb9a3b2d45f98795e5722b69489901", "02dcb43f7ab83c1c4beead38a171e9843075138b77896ef0d123cc8b133fa7921a"], "sequence": 4294967294, "scriptSig": {"hex": "160014e1a188b53503081e33dff88b03b0fcf7b6aa70f5", "asm": "0014e1a188b53503081e33dff88b03b0fcf7b6aa70f5"}, "vout": 1, "txid": "ab7cc65f945630e464df329d5209969251cba29e34c4ed4de09c4dcbc9c87884"}], "txid": "677e602fa25b11d07e67be3e7510af192c8ec287b10186a324d34a3c1ad105cf", "blocktime": 1537872018, "version": 2, "confirmations": 11489, "time": 1537872018, "locktime": 542993, "vsize": 259, "size": 421}