{"hash": "67879c217c874ff78ccaa5b670e0421c509f252032da444636451f32ea52e68b", "blockhash": "0000000000000000001cda96e906b7601b7a6fb1a3b62bca570a9e5d8f4b3de1", "vout": [{"scriptPubKey": {"reqSigs": 1, "hex": "76a9143cea00aba9d3252b6c2d363f30cc16f240fe0b5888ac", "addresses": ["16Z5sJDcz43L61jGYL5sksEwEMQt5M9ceG"], "asm": "OP_DUP OP_HASH160 3cea00aba9d3252b6c2d363f30cc16f240fe0b58 OP_EQUALVERIFY OP_CHECKSIG", "type": "pubkeyhash"}, "value": 0.00078055, "n": 0}, {"scriptPubKey": {"reqSigs": 1, "hex": "76a9140091984c98ac4264d6124b161f00ff40f71dfb7988ac", "addresses": ["1141R7WnjYB8UwkHjxdmUiPbzRc2hzSWGa"], "asm": "OP_DUP OP_HASH160 0091984c98ac4264d6124b161f00ff40f71dfb79 OP_EQUALVERIFY OP_CHECKSIG", "type": "pubkeyhash"}, "value": 0.02111869, "n": 1}], "hex": "010000000180e41cf8d84a4f2077d172a2d9516b39536f8712d94bcbc73f7ad59a76f83f3b010000006a47304402203ebe1919ba6f75f86b1345d3e753f8549def817779ff14b37692c0f3d5e5bb8502205579ec4a88c4fc3090e7af260e85fdde85dd6519f9ae2482e5b8d42d7e07c431012103f39cf6953421b9f9411f5e4d4d8e63a5cd3249dda867f12f8a7121dbd8e84e3fffffffff02e7300100000000001976a9143cea00aba9d3252b6c2d363f30cc16f240fe0b5888ac7d392000000000001976a9140091984c98ac4264d6124b161f00ff40f71dfb7988ac00000000", "vin": [{"sequence": 4294967295, "scriptSig": {"hex": "47304402203ebe1919ba6f75f86b1345d3e753f8549def817779ff14b37692c0f3d5e5bb8502205579ec4a88c4fc3090e7af260e85fdde85dd6519f9ae2482e5b8d42d7e07c431012103f39cf6953421b9f9411f5e4d4d8e63a5cd3249dda867f12f8a7121dbd8e84e3f", "asm": "304402203ebe1919ba6f75f86b1345d3e753f8549def817779ff14b37692c0f3d5e5bb8502205579ec4a88c4fc3090e7af260e85fdde85dd6519f9ae2482e5b8d42d7e07c431[ALL] 03f39cf6953421b9f9411f5e4d4d8e63a5cd3249dda867f12f8a7121dbd8e84e3f"}, "vout": 1, "txid": "3b3ff8769ad57a3fc7cb4bd912876f53396b51d9a272d177204f4ad8f81ce480"}], "txid": "67879c217c874ff78ccaa5b670e0421c509f252032da444636451f32ea52e68b", "blocktime": 1537873282, "version": 1, "confirmations": 11484, "time": 1537873282, "locktime": 0, "vsize": 225, "size": 225}