{"hash": "86e1b43d4e5cb46024f5a86f3fe7739c73623f5946f87cd4a5024ad8423e16e9", "blockhash": "00000000000000000018f53835495a110e01622372bf6ae95dc86f2b0ab887b0", "vout": [{"scriptPubKey": {"reqSigs": 1, "hex": "76a914bb78603ec1a01e11abf3d1ffb94604c8f090d00888ac", "addresses": ["1J6FZjwsgSwC3nBH3DvxiFdgyktrPmN7fi"], "asm": "OP_DUP OP_HASH160 bb78603ec1a01e11abf3d1ffb94604c8f090d008 OP_EQUALVERIFY OP_CHECKSIG", "type": "pubkeyhash"}, "value": 0.06538153, "n": 0}, {"scriptPubKey": {"reqSigs": 1, "hex": "0014bf31656ab566f4005c458649df8c1549d7f82cd5", "addresses": ["bc1qhuck2644vm6qqhz9seyalrq4f8tlstx4339m6v"], "asm": "0 bf31656ab566f4005c458649df8c1549d7f82cd5", "type": "witness_v0_keyhash"}, "value": 0.00584115, "n": 1}], "hex": "01000000000101f5e39ae23dad68be402fc771653f7b046b1c8cee33c31627ce5c27302508db190100000000ffffffff02a9c36300000000001976a914bb78603ec1a01e11abf3d1ffb94604c8f090d00888acb3e9080000000000160014bf31656ab566f4005c458649df8c1549d7f82cd502483045022100edbd02098e863dc9ae0f384004c5a54efbe51ae8c9f8acc90b3ed8d88427ed4502201e3cb11acba3f2a42ca624ca39aae815c53f283fbaafca29c7dc51122d71c2cb01210375de1af4281af77772cc4c8c107f8899f44edb14d15b3db7f7396beed59565ba00000000", "vin": [{"txinwitness": ["3045022100edbd02098e863dc9ae0f384004c5a54efbe51ae8c9f8acc90b3ed8d88427ed4502201e3cb11acba3f2a42ca624ca39aae815c53f283fbaafca29c7dc51122d71c2cb01", "0375de1af4281af77772cc4c8c107f8899f44edb14d15b3db7f7396beed59565ba"], "sequence": 4294967295, "scriptSig": {"hex": "", "asm": ""}, "vout": 1, "txid": "19db082530275cce2716c333ee8c1c6b047b3f6571c72f40be68ad3de29ae3f5"}], "txid": "678be6a078957add865a147f24316f0790f303cdc07c78ee253941a28cea4091", "blocktime": 1537870928, "version": 1, "confirmations": 11514, "time": 1537870928, "locktime": 0, "vsize": 144, "size": 226}