{"hash": "4a6579bf457ffc1afdab2aca156cd0509ebb8d0f3f3ebee5c77f32bb9fdaf11f", "blockhash": "0000000000000000000baef3f32e3676a92c3b2e5da21b426e4f302fc371ce76", "vout": [{"scriptPubKey": {"reqSigs": 1, "hex": "a914a1692af230137bbf639bb8beca639ac9b972fb0887", "addresses": ["3GQUhcUJPWwLQWbvcTFgui8fKMDMJrNMpG"], "asm": "OP_HASH160 a1692af230137bbf639bb8beca639ac9b972fb08 OP_EQUAL", "type": "scripthash"}, "value": 0.0027516, "n": 0}, {"scriptPubKey": {"reqSigs": 1, "hex": "a914b36e6238797f1ba522617c572c7ace8cb61c321b87", "addresses": ["3J3m7URFKdaE6ubXWFbJve41uL5n7YVWGN"], "asm": "OP_HASH160 b36e6238797f1ba522617c572c7ace8cb61c321b OP_EQUAL", "type": "scripthash"}, "value": 0.01199259, "n": 1}], "hex": "02000000000102d70c35b9045f3b5e50b591cc7def536ba888fd8a916885aedb95a932af69d2ac0000000017160014b1adeb03a344de47856cbc8b2a4c05e54ebcfec3feffffffe4ff714a2fdf7ec91c512d6a99e98602b676076daada050d400af28c31da33a812000000171600146cf6839d49dc630c459ebb29a24f2e45b44e4381feffffff02d83204000000000017a914a1692af230137bbf639bb8beca639ac9b972fb08879b4c12000000000017a914b36e6238797f1ba522617c572c7ace8cb61c321b8702483045022100ae215fa83165f3d1a80f6a8ff731e5ed3d65dcf4743f5ad4ce83b3914b580bbc02207a9f8f3e233e23fea18eb1950cc4e2d9574abe846553d371547f085b8ce9408201210354803d23ba5edbc165454378e0802cd4b49bfca966869023a15e4aadbec6835e02483045022100b2fd2341a222a579753fae223be65cd4cbd8f1c0ff05cc759db59f465baad34902204a3c1ed8a2f320a90b078b4c6516655d2b80849423f3fa697c09ac422dddeb4d012103737c4ca8a60ead38d76dc7ab3de75d9d22aedc1c928b1942287cb9c23077495f17490800", "vin": [{"txinwitness": ["3045022100ae215fa83165f3d1a80f6a8ff731e5ed3d65dcf4743f5ad4ce83b3914b580bbc02207a9f8f3e233e23fea18eb1950cc4e2d9574abe846553d371547f085b8ce9408201", "0354803d23ba5edbc165454378e0802cd4b49bfca966869023a15e4aadbec6835e"], "sequence": 4294967294, "scriptSig": {"hex": "160014b1adeb03a344de47856cbc8b2a4c05e54ebcfec3", "asm": "0014b1adeb03a344de47856cbc8b2a4c05e54ebcfec3"}, "vout": 0, "txid": "acd269af32a995dbae8568918afd88a86b53ef7dcc91b5505e3b5f04b9350cd7"}, {"txinwitness": ["3045022100b2fd2341a222a579753fae223be65cd4cbd8f1c0ff05cc759db59f465baad34902204a3c1ed8a2f320a90b078b4c6516655d2b80849423f3fa697c09ac422dddeb4d01", "03737c4ca8a60ead38d76dc7ab3de75d9d22aedc1c928b1942287cb9c23077495f"], "sequence": 4294967294, "scriptSig": {"hex": "1600146cf6839d49dc630c459ebb29a24f2e45b44e4381", "asm": "00146cf6839d49dc630c459ebb29a24f2e45b44e4381"}, "vout": 18, "txid": "a833da318cf20a400d05daaa6d0776b60286e9996a2d511cc97edf2f4a71ffe4"}], "txid": "678fc0d29913ad04b308ba2ae7891f1122eb44f1afd25e0d467df617546083c4", "blocktime": 1537876114, "version": 2, "confirmations": 11462, "time": 1537876114, "locktime": 542999, "vsize": 257, "size": 420}