{"hash": "6790102b192fb64b2545d175bae9c6b261335d8d9660d262359358795d618e84", "blockhash": "0000000000000000001e0dab787dd257d1dbfcb92a98c2207d5e1078be1f4165", "vout": [{"scriptPubKey": {"reqSigs": 1, "hex": "76a9148552a806a79b57f8ae66c27cc2b098c003bc66e488ac", "addresses": ["1D9wtaVVEzhF8w3g7iLMDwk6iq7oU2Ego4"], "asm": "OP_DUP OP_HASH160 8552a806a79b57f8ae66c27cc2b098c003bc66e4 OP_EQUALVERIFY OP_CHECKSIG", "type": "pubkeyhash"}, "value": 0.00249222, "n": 0}, {"scriptPubKey": {"reqSigs": 1, "hex": "76a914a351298f0ee1d3479d95ef35fc5f504af26292f188ac", "addresses": ["1FtYNXYJEsV9nCnvCyvZn346AQe3xCwkS4"], "asm": "OP_DUP OP_HASH160 a351298f0ee1d3479d95ef35fc5f504af26292f1 OP_EQUALVERIFY OP_CHECKSIG", "type": "pubkeyhash"}, "value": 0.005015, "n": 1}], "hex": "0100000001977c5808658f279360e8bbfbd97d4360acb72d6029cfe1ca59f90513bbe5ef86010000006b483045022100cdcd706a7d130459d4237524bc03586954c8e1dc69f09b2934b7561936bb697c02200fb5bf937ec0e94070e51c28fc700d643278e873bb8c3f2d39b66f0d084662320121036d88f6f97b3b73cbda0c01b087330dc74503f45193d73d4fe350ba445d2308bfffffffff0286cd0300000000001976a9148552a806a79b57f8ae66c27cc2b098c003bc66e488acfca60700000000001976a914a351298f0ee1d3479d95ef35fc5f504af26292f188ac00000000", "vin": [{"sequence": 4294967295, "scriptSig": {"hex": "483045022100cdcd706a7d130459d4237524bc03586954c8e1dc69f09b2934b7561936bb697c02200fb5bf937ec0e94070e51c28fc700d643278e873bb8c3f2d39b66f0d084662320121036d88f6f97b3b73cbda0c01b087330dc74503f45193d73d4fe350ba445d2308bf", "asm": "3045022100cdcd706a7d130459d4237524bc03586954c8e1dc69f09b2934b7561936bb697c02200fb5bf937ec0e94070e51c28fc700d643278e873bb8c3f2d39b66f0d08466232[ALL] 036d88f6f97b3b73cbda0c01b087330dc74503f45193d73d4fe350ba445d2308bf"}, "vout": 1, "txid": "86efe5bb1305f959cae1cf29602db7ac60437dd9fbbbe86093278f6508587c97"}], "txid": "6790102b192fb64b2545d175bae9c6b261335d8d9660d262359358795d618e84", "blocktime": 1537872475, "version": 1, "confirmations": 11487, "time": 1537872475, "locktime": 0, "vsize": 226, "size": 226}