{"hash": "6790dd6bd34d9ba25f7df926fbf84971e7caa88ec42fc8a94b09dd5b1100e7e0", "blockhash": "00000000000000000018f53835495a110e01622372bf6ae95dc86f2b0ab887b0", "vout": [{"scriptPubKey": {"reqSigs": 1, "hex": "76a914d45595c9a0e1dc19824e36d11bb08e0401b7bd4288ac", "addresses": ["1LMinE5ttiFJ2DGyHtzGpVCfP1FsV1pGPX"], "asm": "OP_DUP OP_HASH160 d45595c9a0e1dc19824e36d11bb08e0401b7bd42 OP_EQUALVERIFY OP_CHECKSIG", "type": "pubkeyhash"}, "value": 0.8729, "n": 0}, {"scriptPubKey": {"reqSigs": 1, "hex": "a914977632c9662c95eede14c84715406a8b8c5ec63887", "addresses": ["3FVsZ5UVdnR87Ziiyb72tWibVFyrDfCpED"], "asm": "OP_HASH160 977632c9662c95eede14c84715406a8b8c5ec638 OP_EQUAL", "type": "scripthash"}, "value": 0.04116667, "n": 1}, {"scriptPubKey": {"reqSigs": 1, "hex": "76a9146cfa041f94256660db59253b224cc6c21f9aea3288ac", "addresses": ["1AwDV9CSND7rB6Vn2MngcMci6NjC47Zahe"], "asm": "OP_DUP OP_HASH160 6cfa041f94256660db59253b224cc6c21f9aea32 OP_EQUALVERIFY OP_CHECKSIG", "type": "pubkeyhash"}, "value": 2.73665311, "n": 2}, {"scriptPubKey": {"reqSigs": 1, "hex": "a9147d017c491b81f7c96d8850f06b9fc64d8903a32087", "addresses": ["3D5zAjezShShHyvQrG4J3qXBBWvTmP9PN1"], "asm": "OP_HASH160 7d017c491b81f7c96d8850f06b9fc64d8903a320 OP_EQUAL", "type": "scripthash"}, "value": 0.06427566, "n": 3}, {"scriptPubKey": {"reqSigs": 1, "hex": "a9146191c8e6a2ceb3fbb54c5c1e28afb072921518f887", "addresses": ["3Aav7TKh7ojXHKJsZQ3w3LMgYvYdChhSzV"], "asm": "OP_HASH160 6191c8e6a2ceb3fbb54c5c1e28afb072921518f8 OP_EQUAL", "type": "scripthash"}, "value": 0.30276519, "n": 4}, {"scriptPubKey": {"reqSigs": 1, "hex": "76a914c31bc367ee2e5a1986516024d764d45722a19e9a88ac", "addresses": ["1Jne2SEriDuEL35VktA42DnhkE5qqauXkM"], "asm": "OP_DUP OP_HASH160 c31bc367ee2e5a1986516024d764d45722a19e9a OP_EQUALVERIFY OP_CHECKSIG", "type": "pubkeyhash"}, "value": 7.98196832, "n": 5}], "hex": "0100000002610e302fd3bf1d291d74a80340c3ea7ad03c6f99abe8cacd0eb55bace4291720010000006a47304402202ce2a101d6ebd8820a416ec92aa7a411b6ee51024dae1e7098cee0e697e6836d02204a03c70f3cee097ebc97121003cad611271027765becbd3c2362c5f307e88999012102376fdf4e7ef0e6482c4639b3daa73b82b81f0eb3faa3b6868d23a1286dbeaf47ffffffff610e302fd3bf1d291d74a80340c3ea7ad03c6f99abe8cacd0eb55bace42917200c0000006b483045022100cd5088e77b966b12f6489ae0889b05f92d5fbcdd18da25b9e6fe0b776a520f64022078921e5fffa2961f4cf31c7670aecef47a73ea92110a0b6174d50b04ea177876012102376fdf4e7ef0e6482c4639b3daa73b82b81f0eb3faa3b6868d23a1286dbeaf47ffffffff0690f03305000000001976a914d45595c9a0e1dc19824e36d11bb08e0401b7bd4288acbbd03e000000000017a914977632c9662c95eede14c84715406a8b8c5ec638871fcd4f10000000001976a9146cfa041f94256660db59253b224cc6c21f9aea3288acae1362000000000017a9147d017c491b81f7c96d8850f06b9fc64d8903a32087a7fbcd010000000017a9146191c8e6a2ceb3fbb54c5c1e28afb072921518f8876084932f000000001976a914c31bc367ee2e5a1986516024d764d45722a19e9a88ac00000000", "vin": [{"sequence": 4294967295, "scriptSig": {"hex": "47304402202ce2a101d6ebd8820a416ec92aa7a411b6ee51024dae1e7098cee0e697e6836d02204a03c70f3cee097ebc97121003cad611271027765becbd3c2362c5f307e88999012102376fdf4e7ef0e6482c4639b3daa73b82b81f0eb3faa3b6868d23a1286dbeaf47", "asm": "304402202ce2a101d6ebd8820a416ec92aa7a411b6ee51024dae1e7098cee0e697e6836d02204a03c70f3cee097ebc97121003cad611271027765becbd3c2362c5f307e88999[ALL] 02376fdf4e7ef0e6482c4639b3daa73b82b81f0eb3faa3b6868d23a1286dbeaf47"}, "vout": 1, "txid": "201729e4ac5bb50ecdcae8ab996f3cd07aeac34003a8741d291dbfd32f300e61"}, {"sequence": 4294967295, "scriptSig": {"hex": "483045022100cd5088e77b966b12f6489ae0889b05f92d5fbcdd18da25b9e6fe0b776a520f64022078921e5fffa2961f4cf31c7670aecef47a73ea92110a0b6174d50b04ea177876012102376fdf4e7ef0e6482c4639b3daa73b82b81f0eb3faa3b6868d23a1286dbeaf47", "asm": "3045022100cd5088e77b966b12f6489ae0889b05f92d5fbcdd18da25b9e6fe0b776a520f64022078921e5fffa2961f4cf31c7670aecef47a73ea92110a0b6174d50b04ea177876[ALL] 02376fdf4e7ef0e6482c4639b3daa73b82b81f0eb3faa3b6868d23a1286dbeaf47"}, "vout": 12, "txid": "201729e4ac5bb50ecdcae8ab996f3cd07aeac34003a8741d291dbfd32f300e61"}], "txid": "6790dd6bd34d9ba25f7df926fbf84971e7caa88ec42fc8a94b09dd5b1100e7e0", "blocktime": 1537870928, "version": 1, "confirmations": 11512, "time": 1537870928, "locktime": 0, "vsize": 503, "size": 503}