{"hash": "67996f1b5ddf7b29d504493f9737c4e970d6203ab0efb24900426a2f5f73b251", "blockhash": "00000000000000000018f53835495a110e01622372bf6ae95dc86f2b0ab887b0", "vout": [{"scriptPubKey": {"reqSigs": 1, "hex": "a914d8c45c4ba8565dbdbd5ee127d9b2eb8932e643fc87", "addresses": ["3MTB7M8a3PY4pjE9Q1jVbcdBnUcm7jWZoN"], "asm": "OP_HASH160 d8c45c4ba8565dbdbd5ee127d9b2eb8932e643fc OP_EQUAL", "type": "scripthash"}, "value": 0.00391, "n": 0}, {"scriptPubKey": {"reqSigs": 1, "hex": "76a914ad0d3343be3a793c6679fcc5a2306cd3b9133d2e88ac", "addresses": ["1Gn1iMfXZkDuB9ut6fS77cS2niVsCTkiYf"], "asm": "OP_DUP OP_HASH160 ad0d3343be3a793c6679fcc5a2306cd3b9133d2e OP_EQUALVERIFY OP_CHECKSIG", "type": "pubkeyhash"}, "value": 0.09038442, "n": 1}], "hex": "0100000001589e9b0620e4ecc7761341cc1389bc0ce251cb47dec8917ed3749ca93e9f71cd010000006b483045022100f7b863abd7a740ab4428f77d23c56b2af19568d82ee5a83088f00825981d6a6402207368b2ba203b7d4b0ea6c1c5127d6cb3305ebbf5fc4158bc4bbc0e321e9a722c01210250eb958e8698d95c543deb46aa1724e4644016bfa2608d32b15c38569c725c31ffffffff0258f705000000000017a914d8c45c4ba8565dbdbd5ee127d9b2eb8932e643fc876aea8900000000001976a914ad0d3343be3a793c6679fcc5a2306cd3b9133d2e88ac00000000", "vin": [{"sequence": 4294967295, "scriptSig": {"hex": "483045022100f7b863abd7a740ab4428f77d23c56b2af19568d82ee5a83088f00825981d6a6402207368b2ba203b7d4b0ea6c1c5127d6cb3305ebbf5fc4158bc4bbc0e321e9a722c01210250eb958e8698d95c543deb46aa1724e4644016bfa2608d32b15c38569c725c31", "asm": "3045022100f7b863abd7a740ab4428f77d23c56b2af19568d82ee5a83088f00825981d6a6402207368b2ba203b7d4b0ea6c1c5127d6cb3305ebbf5fc4158bc4bbc0e321e9a722c[ALL] 0250eb958e8698d95c543deb46aa1724e4644016bfa2608d32b15c38569c725c31"}, "vout": 1, "txid": "cd719f3ea99c74d37e91c8de47cb51e20cbc8913cc411376c7ece420069b9e58"}], "txid": "67996f1b5ddf7b29d504493f9737c4e970d6203ab0efb24900426a2f5f73b251", "blocktime": 1537870928, "version": 1, "confirmations": 11514, "time": 1537870928, "locktime": 0, "vsize": 224, "size": 224}