{"hash": "be06d4a5c5fbeb1ab3e9debe167d5e73ee63d7c8b2e0daac3400f18228791fac", "blockhash": "0000000000000000001cda96e906b7601b7a6fb1a3b62bca570a9e5d8f4b3de1", "vout": [{"scriptPubKey": {"reqSigs": 1, "hex": "a91479a58da803b0e5162d98ccc8a8c78fcf9180ef9987", "addresses": ["3CnE1bwkiWcLevBYLFkbXAUnLExZiKd1DS"], "asm": "OP_HASH160 79a58da803b0e5162d98ccc8a8c78fcf9180ef99 OP_EQUAL", "type": "scripthash"}, "value": 0.19, "n": 0}, {"scriptPubKey": {"reqSigs": 1, "hex": "a9149ba03e9ed97d6fcfea9d5705ac4e994b507f8cab87", "addresses": ["3FstdGWfvmVuY5wcmLxSeo8xqNtYyLn5si"], "asm": "OP_HASH160 9ba03e9ed97d6fcfea9d5705ac4e994b507f8cab OP_EQUAL", "type": "scripthash"}, "value": 0.109385, "n": 1}], "hex": "0100000000010286e59679892644d415c245fab888f18c78ddfe5f89d93ae4a2005288dfda82970000000023220020117e0caf4664d11b40eb88761053937f34bc9ab9d2d6cdbf29ea808a15de3d39fffffffffaebed86969d69918fd958fd309bfa7af1202d658d978cb1aa649438d77ee12501000000232200206d87655d45668ac34f7d57eb6664f9d44e7ec20fed346f2437d7df6842ca8f17ffffffff02c0ea21010000000017a91479a58da803b0e5162d98ccc8a8c78fcf9180ef998784e8a6000000000017a9149ba03e9ed97d6fcfea9d5705ac4e994b507f8cab8704004730440220104efd0c28343eec83e7b5f86940cca24f6cdc7bdf1ccf02c2d2e43b64bbd3a302207b8eeed4473c012a658d85b8c8a359e96da2df76e389d1cd7a35015de3e842840147304402206bc149762d02c9a0e51259dbfa6e3a722d4094ab849cfe81d32727121320f1870220731aa50d7ae51229e0f769908f98a362427604d01b629824108e8db7a449e40f01695221035f2e0ee18ee533e4d2dc51825314c66cce9abea5157e8b5bc36bd2bb13984ca12102ef1a73755c96a4b92faed11582d788c90a35062ba669803b40df461d27185ab6210399635bb8c5c7105c81d57ef9ced90e15ef8d9805b360bada6094e82f2c70627553ae0400483045022100fa1a10d15b6a1c4dbeb0a3a18939d202f0a6c6164dd41a792dcdbe207f58e3db022039c395d5a1a206bf9973341fcdf5713ffe0c7fe9a69635912032d064d42fdbbe014830450221009b891313b2fc5d05a61ddcdbca35f96dbbecd4654e0c4a1b3441044f578df5bb0220660405c6c26d47c40ba3fd512095d02fd626c5b042dd8662f8bd9d68ad8fb0490169522102a81bd7eb79e3b6df2a277243fba30aafe00a8565dbae6d7b7649eb49f8b676da21025e3833b8b57ba6c5ad8d29ca11f6c078c40385f548493b67f03425096ea097b5210341ef377f5e84ecedf1e180ee4aba0984d6d0223e3eb284f619f39b2cacea98c353ae00000000", "vin": [{"txinwitness": ["", "30440220104efd0c28343eec83e7b5f86940cca24f6cdc7bdf1ccf02c2d2e43b64bbd3a302207b8eeed4473c012a658d85b8c8a359e96da2df76e389d1cd7a35015de3e8428401", "304402206bc149762d02c9a0e51259dbfa6e3a722d4094ab849cfe81d32727121320f1870220731aa50d7ae51229e0f769908f98a362427604d01b629824108e8db7a449e40f01", "5221035f2e0ee18ee533e4d2dc51825314c66cce9abea5157e8b5bc36bd2bb13984ca12102ef1a73755c96a4b92faed11582d788c90a35062ba669803b40df461d27185ab6210399635bb8c5c7105c81d57ef9ced90e15ef8d9805b360bada6094e82f2c70627553ae"], "sequence": 4294967295, "scriptSig": {"hex": "220020117e0caf4664d11b40eb88761053937f34bc9ab9d2d6cdbf29ea808a15de3d39", "asm": "0020117e0caf4664d11b40eb88761053937f34bc9ab9d2d6cdbf29ea808a15de3d39"}, "vout": 0, "txid": "9782dadf885200a2e43ad9895ffedd788cf188b8fa45c215d44426897996e586"}, {"txinwitness": ["", "3045022100fa1a10d15b6a1c4dbeb0a3a18939d202f0a6c6164dd41a792dcdbe207f58e3db022039c395d5a1a206bf9973341fcdf5713ffe0c7fe9a69635912032d064d42fdbbe01", "30450221009b891313b2fc5d05a61ddcdbca35f96dbbecd4654e0c4a1b3441044f578df5bb0220660405c6c26d47c40ba3fd512095d02fd626c5b042dd8662f8bd9d68ad8fb04901", "522102a81bd7eb79e3b6df2a277243fba30aafe00a8565dbae6d7b7649eb49f8b676da21025e3833b8b57ba6c5ad8d29ca11f6c078c40385f548493b67f03425096ea097b5210341ef377f5e84ecedf1e180ee4aba0984d6d0223e3eb284f619f39b2cacea98c353ae"], "sequence": 4294967295, "scriptSig": {"hex": "2200206d87655d45668ac34f7d57eb6664f9d44e7ec20fed346f2437d7df6842ca8f17", "asm": "00206d87655d45668ac34f7d57eb6664f9d44e7ec20fed346f2437d7df6842ca8f17"}, "vout": 1, "txid": "25e17ed7389464aab18c978d652d20f17afa9b30fd58d98f91699d9686edebfa"}], "txid": "679974947d51d5f1b6c61166bc39e0844007be631149a5618065a802534de9a8", "blocktime": 1537873282, "version": 1, "confirmations": 11485, "time": 1537873282, "locktime": 0, "vsize": 353, "size": 734}