{"hash": "64fd026404857dfb3efb8d5284c42db6772cfa72d1276a9d76877a8e55708c73", "blockhash": "000000000000000000022b45ed06c6f4ccd3cf7fb5ba4856ebd2e58215665228", "vout": [{"scriptPubKey": {"reqSigs": 1, "hex": "a914d9e2a8b6f8959e2c720f414de7b1b60a036a293a87", "addresses": ["3MZ65iZBAGvcPQkt3NpjSUjaNrryu2qESP"], "asm": "OP_HASH160 d9e2a8b6f8959e2c720f414de7b1b60a036a293a OP_EQUAL", "type": "scripthash"}, "value": 0.01011058, "n": 0}, {"scriptPubKey": {"reqSigs": 1, "hex": "a9148321bac2202c2b1e12fe11bf27bf5f01f34f5b0587", "addresses": ["3DeNrEzKoUdDa6m3FJvp4jPBk1JrUfuUHz"], "asm": "OP_HASH160 8321bac2202c2b1e12fe11bf27bf5f01f34f5b05 OP_EQUAL", "type": "scripthash"}, "value": 0.0022676, "n": 1}], "hex": "0200000000010258535fc7e487b408b19cf4228fb66dda23210995e373f055ae70bd9962b9f9f60d00000017160014bb841fa119007d47f3ad5b7fdbda5a32ab30ba8ffeffffffcb03cd073648ba63ddbd039e8d307c8e154c084d6f551386cb6c7bf7dc4647ed010000001716001460946ba4d27721515e09ffb18b303218a3daf5ebfeffffff02726d0f000000000017a914d9e2a8b6f8959e2c720f414de7b1b60a036a293a87c87503000000000017a9148321bac2202c2b1e12fe11bf27bf5f01f34f5b058702483045022100a6d39f2daddfdf9c8467fd7925e8157b9f75b7668df5340a5b38d9986ae91b8c0220587a0e9ce1cd42256c5f171aa008599b37f184094261f4ec8144f952d5b856cb012102f528f8d960d930e0b1ad987fcf5dd87bc907becb1a905f750269da4b6b34ae2a02473044022055207971aeeb3d2c78657016829def2c6d7f3ccf136311e685d13547a4600fe7022037aeabd9b9cc45ef92b6db96e97fc0a4db8d4d998ad1e3555a12d4a2c34c3928012103b61bab231b6bb82ffb204fe373053ace15dff4adcbaf62622585095eb07a50600b490800", "vin": [{"txinwitness": ["3045022100a6d39f2daddfdf9c8467fd7925e8157b9f75b7668df5340a5b38d9986ae91b8c0220587a0e9ce1cd42256c5f171aa008599b37f184094261f4ec8144f952d5b856cb01", "02f528f8d960d930e0b1ad987fcf5dd87bc907becb1a905f750269da4b6b34ae2a"], "sequence": 4294967294, "scriptSig": {"hex": "160014bb841fa119007d47f3ad5b7fdbda5a32ab30ba8f", "asm": "0014bb841fa119007d47f3ad5b7fdbda5a32ab30ba8f"}, "vout": 13, "txid": "f6f9b96299bd70ae55f073e395092123da6db68f22f49cb108b487e4c75f5358"}, {"txinwitness": ["3044022055207971aeeb3d2c78657016829def2c6d7f3ccf136311e685d13547a4600fe7022037aeabd9b9cc45ef92b6db96e97fc0a4db8d4d998ad1e3555a12d4a2c34c392801", "03b61bab231b6bb82ffb204fe373053ace15dff4adcbaf62622585095eb07a5060"], "sequence": 4294967294, "scriptSig": {"hex": "16001460946ba4d27721515e09ffb18b303218a3daf5eb", "asm": "001460946ba4d27721515e09ffb18b303218a3daf5eb"}, "vout": 1, "txid": "ed4746dcf77b6ccb8613556f4d084c158e7c308d9e03bddd63ba483607cd03cb"}], "txid": "679b1c14b12c6ebb8414a6f4c50ff62ce41ee5e4a95687ee1722b74ab83f7390", "blocktime": 1537869901, "version": 2, "confirmations": 11524, "time": 1537869901, "locktime": 542987, "vsize": 257, "size": 419}