{"hash": "679cab786a70b10fb16f47ca7b995635fbdc20853b9e4afbe8d53d7170983d76", "blockhash": "00000000000000000018f53835495a110e01622372bf6ae95dc86f2b0ab887b0", "vout": [{"scriptPubKey": {"reqSigs": 1, "hex": "76a914a3abc80d7dd62d4bac0396417bbc4e8dfc48bb4788ac", "addresses": ["1FvQvrV27ovMH9gJLCfFWMNCLwUrDXammB"], "asm": "OP_DUP OP_HASH160 a3abc80d7dd62d4bac0396417bbc4e8dfc48bb47 OP_EQUALVERIFY OP_CHECKSIG", "type": "pubkeyhash"}, "value": 0.1385, "n": 0}, {"scriptPubKey": {"reqSigs": 1, "hex": "76a9148865f7c7ff50e19548a4fb6fb281e686e81bd3f488ac", "addresses": ["1DSD3wfdxDDtUvJ37EsbPP9Q8tBwAafEuh"], "asm": "OP_DUP OP_HASH160 8865f7c7ff50e19548a4fb6fb281e686e81bd3f4 OP_EQUALVERIFY OP_CHECKSIG", "type": "pubkeyhash"}, "value": 0.88331914, "n": 1}], "hex": "01000000013aa32c7c717e830c229a37bd9c80b9f1084391bca7f0780255c8617b1f5f3543010000006b483045022100c2873fb2c5dcbec98453f8d5ec46140a142a84cb7ff1bddb67fd9e6b4bfe8a8702200a76c3c6a6f282593a35699f9a7384e2f7e1bef89890b799e4da6d646796c7ce0121032ecbe91e4897d7aa28dc44e0768f7427dfb4a9098286969e4663efa9943f9fbfffffffff029055d300000000001976a914a3abc80d7dd62d4bac0396417bbc4e8dfc48bb4788ac8ad64305000000001976a9148865f7c7ff50e19548a4fb6fb281e686e81bd3f488ac00000000", "vin": [{"sequence": 4294967295, "scriptSig": {"hex": "483045022100c2873fb2c5dcbec98453f8d5ec46140a142a84cb7ff1bddb67fd9e6b4bfe8a8702200a76c3c6a6f282593a35699f9a7384e2f7e1bef89890b799e4da6d646796c7ce0121032ecbe91e4897d7aa28dc44e0768f7427dfb4a9098286969e4663efa9943f9fbf", "asm": "3045022100c2873fb2c5dcbec98453f8d5ec46140a142a84cb7ff1bddb67fd9e6b4bfe8a8702200a76c3c6a6f282593a35699f9a7384e2f7e1bef89890b799e4da6d646796c7ce[ALL] 032ecbe91e4897d7aa28dc44e0768f7427dfb4a9098286969e4663efa9943f9fbf"}, "vout": 1, "txid": "43355f1f7b61c8550278f0a7bc914308f1b9809cbd379a220c837e717c2ca33a"}], "txid": "679cab786a70b10fb16f47ca7b995635fbdc20853b9e4afbe8d53d7170983d76", "blocktime": 1537870928, "version": 1, "confirmations": 11512, "time": 1537870928, "locktime": 0, "vsize": 226, "size": 226}