{"hash": "ac37c71153d61e91ff2c4609d21390a857c8a093d6cadfbde0297145ba085ca3", "blockhash": "00000000000000000017f5eb5941039fbcee6240d03bc1f2f8e35350df66a1d8", "vout": [{"scriptPubKey": {"reqSigs": 1, "hex": "76a91444c54e13c5174c8f732485a0ba1993b24019d57788ac", "addresses": ["17GdK34FooDJQCzfQ2aNgUd8Q6WiQVXxpH"], "asm": "OP_DUP OP_HASH160 44c54e13c5174c8f732485a0ba1993b24019d577 OP_EQUALVERIFY OP_CHECKSIG", "type": "pubkeyhash"}, "value": 0.07497, "n": 0}], "hex": "0200000000010145ecabf2d24f6cef9086732677663a50cf41d56442d0b8c26e5c0f1ced649450000000001716001434ab6f8adcaecc58a5a17544bfe4c7efb46becf5ffffffff0128657200000000001976a91444c54e13c5174c8f732485a0ba1993b24019d57788ac0248304502210082c55a0401f6ec04fd3e6083be5cca2dd19ff832494f92adb7d61e66655c954402205c12299165999970d245918f90633ed218cb0cfd085a6a66b0fdf4c12f25bb5a01210257111ade33bd1dacb3b6b373d9805bfbaaab52b4daae762056db4c6f6d62d86200000000", "vin": [{"txinwitness": ["304502210082c55a0401f6ec04fd3e6083be5cca2dd19ff832494f92adb7d61e66655c954402205c12299165999970d245918f90633ed218cb0cfd085a6a66b0fdf4c12f25bb5a01", "0257111ade33bd1dacb3b6b373d9805bfbaaab52b4daae762056db4c6f6d62d862"], "sequence": 4294967295, "scriptSig": {"hex": "16001434ab6f8adcaecc58a5a17544bfe4c7efb46becf5", "asm": "001434ab6f8adcaecc58a5a17544bfe4c7efb46becf5"}, "vout": 0, "txid": "509464ed1c0f5c6ec2b8d04264d541cf503a667726738690ef6c4fd2f2abec45"}], "txid": "67a1fcab8b8151aacc9f3efe26ca64712e8ac535b409810d019aa67c91112fc3", "blocktime": 1537874412, "version": 2, "confirmations": 11466, "time": 1537874412, "locktime": 0, "vsize": 136, "size": 218}