{"hash": "67a996a77a32cff8088ff4184f0a64fd218e289bbb4b0ac7f63cfe3885465dff", "blockhash": "0000000000000000000dcc0f55137456b1a82d3642486a52398922ac4d620174", "vout": [{"scriptPubKey": {"reqSigs": 1, "hex": "76a91430e7f0bb483499eebada4c4aca224ea2279de03c88ac", "addresses": ["15TbHhyTGCos7QUvWL8k52LYGxgnQHdRWd"], "asm": "OP_DUP OP_HASH160 30e7f0bb483499eebada4c4aca224ea2279de03c OP_EQUALVERIFY OP_CHECKSIG", "type": "pubkeyhash"}, "value": 0.02638173, "n": 0}, {"scriptPubKey": {"reqSigs": 1, "hex": "76a91423043a1828390feba5b14a925cf06ecb4207e91a88ac", "addresses": ["14C9iQa5xQixNi4VdoGkgKoYBCeFVSPLVo"], "asm": "OP_DUP OP_HASH160 23043a1828390feba5b14a925cf06ecb4207e91a OP_EQUALVERIFY OP_CHECKSIG", "type": "pubkeyhash"}, "value": 0.027502, "n": 1}], "hex": "0100000001b8405643451f2e68dd2b8a28b395360315a0b73ee6b37d2cbe2d8c75de0b4d55000000006b4830450221008e895fb8c8debc1e22959c6cd9225e6d82e8561b3052f4ec83bec70c54ce221902207f5a1bd800b1c3eb6539139a2924a39e0e214b3dedb8c779d4f98470e779d500012102f1c3a9e4a074f1590a255cf8d0aa33b141f181e445cf84575698587f168a089bffffffff025d412800000000001976a91430e7f0bb483499eebada4c4aca224ea2279de03c88acf8f62900000000001976a91423043a1828390feba5b14a925cf06ecb4207e91a88ac00000000", "vin": [{"sequence": 4294967295, "scriptSig": {"hex": "4830450221008e895fb8c8debc1e22959c6cd9225e6d82e8561b3052f4ec83bec70c54ce221902207f5a1bd800b1c3eb6539139a2924a39e0e214b3dedb8c779d4f98470e779d500012102f1c3a9e4a074f1590a255cf8d0aa33b141f181e445cf84575698587f168a089b", "asm": "30450221008e895fb8c8debc1e22959c6cd9225e6d82e8561b3052f4ec83bec70c54ce221902207f5a1bd800b1c3eb6539139a2924a39e0e214b3dedb8c779d4f98470e779d500[ALL] 02f1c3a9e4a074f1590a255cf8d0aa33b141f181e445cf84575698587f168a089b"}, "vout": 0, "txid": "554d0bde758c2dbe2c7db3e63eb7a015033695b3288a2bdd682e1f45435640b8"}], "txid": "67a996a77a32cff8088ff4184f0a64fd218e289bbb4b0ac7f63cfe3885465dff", "blocktime": 1537870268, "version": 1, "confirmations": 11516, "time": 1537870268, "locktime": 0, "vsize": 226, "size": 226}