{"hash": "f46512d70434e3452cc63e82692b5831bca66e843c9f361e5252104e61b625b9", "blockhash": "0000000000000000000e13cef7c366c0283d82e591d1acd082e914b08063cdf1", "vout": [{"scriptPubKey": {"reqSigs": 1, "hex": "76a914a8d14ccf350599411331bfc3c7a17d02dc078df988ac", "addresses": ["1GPdFeeGJHdEZWYKu2yStedN2EGhNbmSXs"], "asm": "OP_DUP OP_HASH160 a8d14ccf350599411331bfc3c7a17d02dc078df9 OP_EQUALVERIFY OP_CHECKSIG", "type": "pubkeyhash"}, "value": 0.00209161, "n": 0}, {"scriptPubKey": {"reqSigs": 1, "hex": "a9144f085f80506daf0dc61f7670f6528de1fbf4da9987", "addresses": ["38tuLU7ENPfzf456BmJLdWgg3wU3Uqmikj"], "asm": "OP_HASH160 4f085f80506daf0dc61f7670f6528de1fbf4da99 OP_EQUAL", "type": "scripthash"}, "value": 0.01123391, "n": 1}], "hex": "02000000000101a33c9cb3cecb7203281cc99dc576f48ce327fabeeb70679e95e7557d6443394c0000000017160014c9bd78316fe851f4f5c1e507095779a077c08bd1feffffff0209310300000000001976a914a8d14ccf350599411331bfc3c7a17d02dc078df988ac3f2411000000000017a9144f085f80506daf0dc61f7670f6528de1fbf4da9987024830450221009ed9738ac3e2a0ede03fda82132c52a96d30fdf634a9793e3f6e134a5aac305c02206a5ed4eeb82935417841e1a99161a5ddd8964ff7781fe7a550da40b551220389012103e4b57b54fbcf53eb2597d8bdfd92843fb671af3be79a9e475eced8ab1cf95d800f490800", "vin": [{"txinwitness": ["30450221009ed9738ac3e2a0ede03fda82132c52a96d30fdf634a9793e3f6e134a5aac305c02206a5ed4eeb82935417841e1a99161a5ddd8964ff7781fe7a550da40b55122038901", "03e4b57b54fbcf53eb2597d8bdfd92843fb671af3be79a9e475eced8ab1cf95d80"], "sequence": 4294967294, "scriptSig": {"hex": "160014c9bd78316fe851f4f5c1e507095779a077c08bd1", "asm": "0014c9bd78316fe851f4f5c1e507095779a077c08bd1"}, "vout": 0, "txid": "4c3943647d55e7959e6770ebbefa27e38cf476c59dc91c280372cbceb39c3ca3"}], "txid": "67ab1b0971084d3ce763fae0294114fc5a8ed8ee6fbc833446491190bcdb4a7e", "blocktime": 1537871767, "version": 2, "confirmations": 11495, "time": 1537871767, "locktime": 542991, "vsize": 168, "size": 250}