{"hash": "67ac97a9f4c089964f782b313e9eed5f384e5a8d52d9c92f5b79488fb73fbcc6", "blockhash": "0000000000000000001f76057863aec43deb6fa401d9628bb513d65a8098bfab", "vout": [{"scriptPubKey": {"reqSigs": 1, "hex": "76a914d1c0d6ec4e0ee51a42bca4c8d72b028f622e89ed88ac", "addresses": ["1L85EpVqSwmhLGW2rv7d1cCC4Kmfs1Wpoe"], "asm": "OP_DUP OP_HASH160 d1c0d6ec4e0ee51a42bca4c8d72b028f622e89ed OP_EQUALVERIFY OP_CHECKSIG", "type": "pubkeyhash"}, "value": 0.009, "n": 0}, {"scriptPubKey": {"reqSigs": 1, "hex": "76a91457d0bf3b7347f20d15ae28c035c2b29a1239dfd688ac", "addresses": ["191Krgjp8JpXGCrSEPcCyfneJBSTmtyFwJ"], "asm": "OP_DUP OP_HASH160 57d0bf3b7347f20d15ae28c035c2b29a1239dfd6 OP_EQUALVERIFY OP_CHECKSIG", "type": "pubkeyhash"}, "value": 0.00597813, "n": 1}], "hex": "0100000004d315b30145820990985949fd21945a51685325e315d6fad0d39899057cac4bb8010000006b48304502210080013e4dc3d8248807399d6c9f982d7536c14adac171086bb7b8acf760bd9ee30220102e89a17c48f8a355709fd51f4dd3b8c24f97a378615b4d57d55de9cfff405d01210255312e7c2471ed9ec6ba5095d4870ccd483d47af8e0f038078af02592417ee6bffffffff3d7f786617b27212b6b85f91a537a98ebb59362cabd6f474cb36497a19eb05a9000000006a47304402203df2345ff99dd86097d33d34e58796c38e95299dfd139604148915c6e31f986602204461db9969db69e587e9e923d79fbe4a8f7c3103ad532e27ddc9fcfbffd70c30012103ef56522bc688aed3b64473818df7f2796433db90db1789144f713889e64c564cffffffff76146695897e9445391e3bcb971e97136653aee9674e9025306116d2154dfd77010000006a47304402201d53b5cc7ba34be552af38248c52e04dd35f9f39d6a92a58a0bb133ad722fa730220213ad600dc7717d0341d3e802ae869567a6fdc3026f4b3ff0c3035925c80ac30012102dd5e147f77940b938ed8eabed874b029ad4cabf6ae4d5ad3e6e905bf3ead1576ffffffff75a81b575e7f67f9ee2d97220708af141331874454e129da490aba637c213b29000000006b483045022100eda53b8bfafafa552b16ba2b80340798fa656696ffed743fc03e60a8499ff2b002203b603592a2797cab4a0cb5a0e628b16aa9b8f226c47486d6f31ef8dfe37a207501210297f1fff93cbacdc3aa5df0bbfb38a495073e1c22ce2db7a409fa61f2459c8081ffffffff02a0bb0d00000000001976a914d1c0d6ec4e0ee51a42bca4c8d72b028f622e89ed88ac351f0900000000001976a91457d0bf3b7347f20d15ae28c035c2b29a1239dfd688ac00000000", "vin": [{"sequence": 4294967295, "scriptSig": {"hex": "48304502210080013e4dc3d8248807399d6c9f982d7536c14adac171086bb7b8acf760bd9ee30220102e89a17c48f8a355709fd51f4dd3b8c24f97a378615b4d57d55de9cfff405d01210255312e7c2471ed9ec6ba5095d4870ccd483d47af8e0f038078af02592417ee6b", "asm": "304502210080013e4dc3d8248807399d6c9f982d7536c14adac171086bb7b8acf760bd9ee30220102e89a17c48f8a355709fd51f4dd3b8c24f97a378615b4d57d55de9cfff405d[ALL] 0255312e7c2471ed9ec6ba5095d4870ccd483d47af8e0f038078af02592417ee6b"}, "vout": 1, "txid": "b84bac7c059998d3d0fad615e3255368515a9421fd4959989009824501b315d3"}, {"sequence": 4294967295, "scriptSig": {"hex": "47304402203df2345ff99dd86097d33d34e58796c38e95299dfd139604148915c6e31f986602204461db9969db69e587e9e923d79fbe4a8f7c3103ad532e27ddc9fcfbffd70c30012103ef56522bc688aed3b64473818df7f2796433db90db1789144f713889e64c564c", "asm": "304402203df2345ff99dd86097d33d34e58796c38e95299dfd139604148915c6e31f986602204461db9969db69e587e9e923d79fbe4a8f7c3103ad532e27ddc9fcfbffd70c30[ALL] 03ef56522bc688aed3b64473818df7f2796433db90db1789144f713889e64c564c"}, "vout": 0, "txid": "a905eb197a4936cb74f4d6ab2c3659bb8ea937a5915fb8b61272b21766787f3d"}, {"sequence": 4294967295, "scriptSig": {"hex": "47304402201d53b5cc7ba34be552af38248c52e04dd35f9f39d6a92a58a0bb133ad722fa730220213ad600dc7717d0341d3e802ae869567a6fdc3026f4b3ff0c3035925c80ac30012102dd5e147f77940b938ed8eabed874b029ad4cabf6ae4d5ad3e6e905bf3ead1576", "asm": "304402201d53b5cc7ba34be552af38248c52e04dd35f9f39d6a92a58a0bb133ad722fa730220213ad600dc7717d0341d3e802ae869567a6fdc3026f4b3ff0c3035925c80ac30[ALL] 02dd5e147f77940b938ed8eabed874b029ad4cabf6ae4d5ad3e6e905bf3ead1576"}, "vout": 1, "txid": "77fd4d15d216613025904e67e9ae536613971e97cb3b1e3945947e8995661476"}, {"sequence": 4294967295, "scriptSig": {"hex": "483045022100eda53b8bfafafa552b16ba2b80340798fa656696ffed743fc03e60a8499ff2b002203b603592a2797cab4a0cb5a0e628b16aa9b8f226c47486d6f31ef8dfe37a207501210297f1fff93cbacdc3aa5df0bbfb38a495073e1c22ce2db7a409fa61f2459c8081", "asm": "3045022100eda53b8bfafafa552b16ba2b80340798fa656696ffed743fc03e60a8499ff2b002203b603592a2797cab4a0cb5a0e628b16aa9b8f226c47486d6f31ef8dfe37a2075[ALL] 0297f1fff93cbacdc3aa5df0bbfb38a495073e1c22ce2db7a409fa61f2459c8081"}, "vout": 0, "txid": "293b217c63ba0a49da29e1544487311314af080722972deef9677f5e571ba875"}], "txid": "67ac97a9f4c089964f782b313e9eed5f384e5a8d52d9c92f5b79488fb73fbcc6", "blocktime": 1537873891, "version": 1, "confirmations": 11474, "time": 1537873891, "locktime": 0, "vsize": 668, "size": 668}