{"hash": "67af503ab82ca97d53e96c511c38d96f88518bec75d167ce23a877e1beba0792", "blockhash": "0000000000000000001f76057863aec43deb6fa401d9628bb513d65a8098bfab", "vout": [{"scriptPubKey": {"reqSigs": 1, "hex": "76a91487d0a410ff6d597de9b739f07d03f7040fc880b188ac", "addresses": ["1DP8AX9voAdDuNjbRKGSJnT1baXQF9QkFf"], "asm": "OP_DUP OP_HASH160 87d0a410ff6d597de9b739f07d03f7040fc880b1 OP_EQUALVERIFY OP_CHECKSIG", "type": "pubkeyhash"}, "value": 0.02316, "n": 0}, {"scriptPubKey": {"reqSigs": 1, "hex": "a914e370231feecbfc25e2e2423a5a79bf79bfdca59887", "addresses": ["3NRbeX3vD5VaVE4TDU9ivCDsEf7NPPte6J"], "asm": "OP_HASH160 e370231feecbfc25e2e2423a5a79bf79bfdca598 OP_EQUAL", "type": "scripthash"}, "value": 0.42480778, "n": 1}], "hex": "01000000014c7ce0e5a0ddacc5724597309c21078ab32c73a5bd95ba2ee577f46034c983d701000000d90047304402204f486332e81f0353848cf07f6494dfb46975e7a5c12e657244cae6025005356c02203fb74b3cf83bf26a9d5f7bd469864d5ab7454d8186450ac50604d10b84a9e90b0147304402205a1921237edc1ef9f1025986919ba6006c9c6f07b74fd66e358bde63194ba88a0220685dce33b195c660956867a492893d228273e0166c73090ce447b22519cc8d42014752210327881b6abce6535553a3ce21fad12a7d74fd237ce7c4cd270a267162344e3082210256141f8eb687f5a68c5cc65054652dc25116fa285e44d72b44368827ffe77d9a52aeffffffff02e0562300000000001976a91487d0a410ff6d597de9b739f07d03f7040fc880b188ac8a3488020000000017a914e370231feecbfc25e2e2423a5a79bf79bfdca5988700000000", "vin": [{"sequence": 4294967295, "scriptSig": {"hex": "0047304402204f486332e81f0353848cf07f6494dfb46975e7a5c12e657244cae6025005356c02203fb74b3cf83bf26a9d5f7bd469864d5ab7454d8186450ac50604d10b84a9e90b0147304402205a1921237edc1ef9f1025986919ba6006c9c6f07b74fd66e358bde63194ba88a0220685dce33b195c660956867a492893d228273e0166c73090ce447b22519cc8d42014752210327881b6abce6535553a3ce21fad12a7d74fd237ce7c4cd270a267162344e3082210256141f8eb687f5a68c5cc65054652dc25116fa285e44d72b44368827ffe77d9a52ae", "asm": "0 304402204f486332e81f0353848cf07f6494dfb46975e7a5c12e657244cae6025005356c02203fb74b3cf83bf26a9d5f7bd469864d5ab7454d8186450ac50604d10b84a9e90b[ALL] 304402205a1921237edc1ef9f1025986919ba6006c9c6f07b74fd66e358bde63194ba88a0220685dce33b195c660956867a492893d228273e0166c73090ce447b22519cc8d42[ALL] 52210327881b6abce6535553a3ce21fad12a7d74fd237ce7c4cd270a267162344e3082210256141f8eb687f5a68c5cc65054652dc25116fa285e44d72b44368827ffe77d9a52ae"}, "vout": 1, "txid": "d783c93460f477e52eba95bda5732cb38a07219c30974572c5acdda0e5e07c4c"}], "txid": "67af503ab82ca97d53e96c511c38d96f88518bec75d167ce23a877e1beba0792", "blocktime": 1537873891, "version": 1, "confirmations": 11478, "time": 1537873891, "locktime": 0, "vsize": 334, "size": 334}