{"hash": "bdf1c1f35e423c8c0b294a7e00f1e032b27115d347810bce709d1725a67c9fa1", "blockhash": "0000000000000000001f0ddff1eddb255c1121bcd4da4f1bc9a0da00cae72433", "vout": [{"scriptPubKey": {"reqSigs": 1, "hex": "a91458009b4177a2881a3f9c0114c9b66ee3462cfffd87", "addresses": ["39iL7Zc14ZZ3q2mL7w2PLxhWuvERoguH5z"], "asm": "OP_HASH160 58009b4177a2881a3f9c0114c9b66ee3462cfffd OP_EQUAL", "type": "scripthash"}, "value": 0.00999554, "n": 0}, {"scriptPubKey": {"reqSigs": 1, "hex": "76a9142e449ba0f40a826ded3570ffe5b7684bda22b12b88ac", "addresses": ["15DeGncNoLhQMshYuWMYUdPweFpgTKo3Yp"], "asm": "OP_DUP OP_HASH160 2e449ba0f40a826ded3570ffe5b7684bda22b12b OP_EQUALVERIFY OP_CHECKSIG", "type": "pubkeyhash"}, "value": 0.0056656, "n": 1}], "hex": "0200000000010240f540b5677acc9c9efb7447f3b04ec9822d7bbb36cabcf21ed963a13d8675440100000017160014bc45d38373a165edef0a7f100831393dbe800cbafeffffffa3f64ac2a7e7bfbcbd6934954adeef6e66a9e0df0dff71b1ebcb4f61ca2fd2030400000017160014bf36678dba811e7e12b8854ee6174c845d3a63d9feffffff0282400f000000000017a91458009b4177a2881a3f9c0114c9b66ee3462cfffd8720a50800000000001976a9142e449ba0f40a826ded3570ffe5b7684bda22b12b88ac0247304402204410915cd9d39105386d5adef3fec0f968a271ea3216c12f5c472ae3c150c37602207364c2ec4b3ace7a54864e31ff03890e829f9cb4864a676fb7c43c86cd0a512e0121026c637843dd4771d92b118caaddfe7ebb5c6b2dcf79281e72552ab73e7c693f0902473044022058631de25d78d3b30c95bf3447178fa5265dc276a4d48eac748e50ed224c80e3022003b9273e6229a5b3de32be3ded1f169befbd78ef8705fec766891abafa1e81b7012102bf30f4deeeaa587c589afe457ee5c288b14cf2c3773655d7e7ce5c45f80aa1d711490800", "vin": [{"txinwitness": ["304402204410915cd9d39105386d5adef3fec0f968a271ea3216c12f5c472ae3c150c37602207364c2ec4b3ace7a54864e31ff03890e829f9cb4864a676fb7c43c86cd0a512e01", "026c637843dd4771d92b118caaddfe7ebb5c6b2dcf79281e72552ab73e7c693f09"], "sequence": 4294967294, "scriptSig": {"hex": "160014bc45d38373a165edef0a7f100831393dbe800cba", "asm": "0014bc45d38373a165edef0a7f100831393dbe800cba"}, "vout": 1, "txid": "4475863da163d91ef2bcca36bb7b2d82c94eb0f34774fb9e9ccc7a67b540f540"}, {"txinwitness": ["3044022058631de25d78d3b30c95bf3447178fa5265dc276a4d48eac748e50ed224c80e3022003b9273e6229a5b3de32be3ded1f169befbd78ef8705fec766891abafa1e81b701", "02bf30f4deeeaa587c589afe457ee5c288b14cf2c3773655d7e7ce5c45f80aa1d7"], "sequence": 4294967294, "scriptSig": {"hex": "160014bf36678dba811e7e12b8854ee6174c845d3a63d9", "asm": "0014bf36678dba811e7e12b8854ee6174c845d3a63d9"}, "vout": 4, "txid": "03d22fca614fcbebb171ff0ddfe0a9666eefde4a953469bdbcbfe7a7c24af6a3"}], "txid": "67b094a07d2058df6c536273a3195d7f9dd27e27a858fbbc1ae2a7864e702172", "blocktime": 1537872018, "version": 2, "confirmations": 11489, "time": 1537872018, "locktime": 542993, "vsize": 258, "size": 420}