{"hash": "67b5e46ca7612e80c24ba070cab19d3a4ab5a91f0d45bc5e6789527bb22cbb22", "blockhash": "0000000000000000000e13cef7c366c0283d82e591d1acd082e914b08063cdf1", "vout": [{"scriptPubKey": {"reqSigs": 1, "hex": "76a9140226b4d739663222ab10146a5dc42fdda6a3bbe788ac", "addresses": ["1CNikd6ivcVZZas2RpLT982L8GPfCBWdr"], "asm": "OP_DUP OP_HASH160 0226b4d739663222ab10146a5dc42fdda6a3bbe7 OP_EQUALVERIFY OP_CHECKSIG", "type": "pubkeyhash"}, "value": 0.01087333, "n": 0}, {"scriptPubKey": {"reqSigs": 1, "hex": "76a9143dea9b275f92ebbaf7ba1c64be56d795c4b2672688ac", "addresses": ["16ePGRCFcnCdbd7agVQ1GfBVwjkd9xoAGp"], "asm": "OP_DUP OP_HASH160 3dea9b275f92ebbaf7ba1c64be56d795c4b26726 OP_EQUALVERIFY OP_CHECKSIG", "type": "pubkeyhash"}, "value": 10.22614927, "n": 1}], "hex": "0200000001806a123ce8e66c5c63b6ee48a3012543f5bc394be0545969e3dcb9788d98322b010000006b483045022100d8d8b754a5180b71fdfcf3aa29bc17c2d590e4adcf82e980178f08fe51b4e19a02203b474f2879a07dff6e769bf8161ffe76d4d7153da1115be201277458216b3a4b012103e3114b3f563cd8a3ca24265990dbb37680513183a77d63f43904d47d19e1db5effffffff0265971000000000001976a9140226b4d739663222ab10146a5dc42fdda6a3bbe788ac8fddf33c000000001976a9143dea9b275f92ebbaf7ba1c64be56d795c4b2672688ac00000000", "vin": [{"sequence": 4294967295, "scriptSig": {"hex": "483045022100d8d8b754a5180b71fdfcf3aa29bc17c2d590e4adcf82e980178f08fe51b4e19a02203b474f2879a07dff6e769bf8161ffe76d4d7153da1115be201277458216b3a4b012103e3114b3f563cd8a3ca24265990dbb37680513183a77d63f43904d47d19e1db5e", "asm": "3045022100d8d8b754a5180b71fdfcf3aa29bc17c2d590e4adcf82e980178f08fe51b4e19a02203b474f2879a07dff6e769bf8161ffe76d4d7153da1115be201277458216b3a4b[ALL] 03e3114b3f563cd8a3ca24265990dbb37680513183a77d63f43904d47d19e1db5e"}, "vout": 1, "txid": "2b32988d78b9dce3695954e04b39bcf5432501a348eeb6635c6ce6e83c126a80"}], "txid": "67b5e46ca7612e80c24ba070cab19d3a4ab5a91f0d45bc5e6789527bb22cbb22", "blocktime": 1537871767, "version": 2, "confirmations": 11495, "time": 1537871767, "locktime": 0, "vsize": 226, "size": 226}