{"hash": "67b9927ea493b3f7a9ffb0fbcae019be0a98b7ca610ae253831df07713e3a683", "blockhash": "0000000000000000001cda96e906b7601b7a6fb1a3b62bca570a9e5d8f4b3de1", "vout": [{"scriptPubKey": {"reqSigs": 1, "hex": "76a914d243e6abb9a60fbff430b421d2df4b7d59ec186088ac", "addresses": ["1LAnF8h3qMGx3TSwNUHVneBZUEpwE4gu3D"], "asm": "OP_DUP OP_HASH160 d243e6abb9a60fbff430b421d2df4b7d59ec1860 OP_EQUALVERIFY OP_CHECKSIG", "type": "pubkeyhash"}, "value": 0.00077314, "n": 0}, {"scriptPubKey": {"reqSigs": 1, "hex": "76a9144ec87c0e66036c7ad99950d54d6627e5f3b4611988ac", "addresses": ["18BZssqxBgJ3euNU5Yj84NsYqtM3HviYuo"], "asm": "OP_DUP OP_HASH160 4ec87c0e66036c7ad99950d54d6627e5f3b46119 OP_EQUALVERIFY OP_CHECKSIG", "type": "pubkeyhash"}, "value": 5.46e-06, "n": 1}, {"scriptPubKey": {"type": "nulldata", "hex": "6a146f6d6e69000000000000001f00000010d70892a0", "asm": "OP_RETURN 6f6d6e69000000000000001f00000010d70892a0"}, "value": 0.0, "n": 2}], "hex": "0100000001d4a80f20233607e31fb0b284884f0c589e725f2b233593f80254a4afae666142000000006a47304402200de9afff9767b53147c5ad38b1af21b65f6bb7bc584f2df09f760ec53efa8bcd02202f0476639a0b2fee4fbc0fcad9fa93825649c5c4c41dbb1370b127c79057bb9501210271977291b74f1f5f5c42157e8aae804664eaaeccfd097918450d37f28fb94d77ffffffff03022e0100000000001976a914d243e6abb9a60fbff430b421d2df4b7d59ec186088ac22020000000000001976a9144ec87c0e66036c7ad99950d54d6627e5f3b4611988ac0000000000000000166a146f6d6e69000000000000001f00000010d70892a000000000", "vin": [{"sequence": 4294967295, "scriptSig": {"hex": "47304402200de9afff9767b53147c5ad38b1af21b65f6bb7bc584f2df09f760ec53efa8bcd02202f0476639a0b2fee4fbc0fcad9fa93825649c5c4c41dbb1370b127c79057bb9501210271977291b74f1f5f5c42157e8aae804664eaaeccfd097918450d37f28fb94d77", "asm": "304402200de9afff9767b53147c5ad38b1af21b65f6bb7bc584f2df09f760ec53efa8bcd02202f0476639a0b2fee4fbc0fcad9fa93825649c5c4c41dbb1370b127c79057bb95[ALL] 0271977291b74f1f5f5c42157e8aae804664eaaeccfd097918450d37f28fb94d77"}, "vout": 0, "txid": "426166aeafa45402f89335232b5f729e580c4f8884b2b01fe3073623200fa8d4"}], "txid": "67b9927ea493b3f7a9ffb0fbcae019be0a98b7ca610ae253831df07713e3a683", "blocktime": 1537873282, "version": 1, "confirmations": 11483, "time": 1537873282, "locktime": 0, "vsize": 256, "size": 256}