{"hash": "67bb3863ce716c03d865904ab86cf55131996a6bd5676ec7d2d90ef5298f2d97", "blockhash": "0000000000000000001f76057863aec43deb6fa401d9628bb513d65a8098bfab", "vout": [{"scriptPubKey": {"reqSigs": 1, "hex": "76a914a2cd19c496ced18d8c049558f4f1f99e81e3c8e988ac", "addresses": ["1FqpAikruh2BJMr8dZjaBegQ2Mehb4Jc6t"], "asm": "OP_DUP OP_HASH160 a2cd19c496ced18d8c049558f4f1f99e81e3c8e9 OP_EQUALVERIFY OP_CHECKSIG", "type": "pubkeyhash"}, "value": 0.00922377, "n": 0}], "hex": "010000000103004ce540020c706bc85c3c01139b061e6078ad768667c8955982fd253160b4010000006b483045022100f34697be4efbc3f093f3577be072ce42810808e18677170d0c82602a6e5181f90220605ec55da24b59ba3f7ce60ebdf1a59516436e2cb2998b2ea94c10e510618224012102da10c54c179ec4baef68153420f5ae56ae5241730c5e9b19441dd33156563566ffffffff0109130e00000000001976a914a2cd19c496ced18d8c049558f4f1f99e81e3c8e988ac00000000", "vin": [{"sequence": 4294967295, "scriptSig": {"hex": "483045022100f34697be4efbc3f093f3577be072ce42810808e18677170d0c82602a6e5181f90220605ec55da24b59ba3f7ce60ebdf1a59516436e2cb2998b2ea94c10e510618224012102da10c54c179ec4baef68153420f5ae56ae5241730c5e9b19441dd33156563566", "asm": "3045022100f34697be4efbc3f093f3577be072ce42810808e18677170d0c82602a6e5181f90220605ec55da24b59ba3f7ce60ebdf1a59516436e2cb2998b2ea94c10e510618224[ALL] 02da10c54c179ec4baef68153420f5ae56ae5241730c5e9b19441dd33156563566"}, "vout": 1, "txid": "b4603125fd825995c8678676ad78601e069b13013c5cc86b700c0240e54c0003"}], "txid": "67bb3863ce716c03d865904ab86cf55131996a6bd5676ec7d2d90ef5298f2d97", "blocktime": 1537873891, "version": 1, "confirmations": 11475, "time": 1537873891, "locktime": 0, "vsize": 192, "size": 192}