{"hash": "13df5a4827a387cf9171838fa009c12f4857b63635ff4a40bac2d5911d6dff89", "blockhash": "0000000000000000000e13cef7c366c0283d82e591d1acd082e914b08063cdf1", "vout": [{"scriptPubKey": {"reqSigs": 1, "hex": "a914a578580722521ba4af600279ccba64cbceef520d87", "addresses": ["3GmwaqJjp2YRZuXDthowURHcc7aQxHAr7U"], "asm": "OP_HASH160 a578580722521ba4af600279ccba64cbceef520d OP_EQUAL", "type": "scripthash"}, "value": 0.012295, "n": 0}, {"scriptPubKey": {"reqSigs": 1, "hex": "a914fabd07b92a28c48e751a11302892c6dd6054e42d87", "addresses": ["3QYoJYiwLS7iBmnjVc64UmAnAJBwJs1tsT"], "asm": "OP_HASH160 fabd07b92a28c48e751a11302892c6dd6054e42d OP_EQUAL", "type": "scripthash"}, "value": 0.03634644, "n": 1}], "hex": "02000000000101576c7552eb6c8c21b4b37b111f8495f2bb214876d77b67e89158a58836642ed40100000017160014d8b4e74d65e9e67cb247962d55056b96ea899061ffffffff02bcc212000000000017a914a578580722521ba4af600279ccba64cbceef520d87d47537000000000017a914fabd07b92a28c48e751a11302892c6dd6054e42d87024830450221009cf61554eefe7551d26403eeb1d8274d854c5a1a2ed350f998fd9d567ad8bbe80220343ac35537a683b3a6847ea04492035190ff4d630d74f363f799b2b73791c9480121027f72e94ea5f382832c12a0ecfb41b23f94499265e9c0af1e0682fbdd78fb416300000000", "vin": [{"txinwitness": ["30450221009cf61554eefe7551d26403eeb1d8274d854c5a1a2ed350f998fd9d567ad8bbe80220343ac35537a683b3a6847ea04492035190ff4d630d74f363f799b2b73791c94801", "027f72e94ea5f382832c12a0ecfb41b23f94499265e9c0af1e0682fbdd78fb4163"], "sequence": 4294967295, "scriptSig": {"hex": "160014d8b4e74d65e9e67cb247962d55056b96ea899061", "asm": "0014d8b4e74d65e9e67cb247962d55056b96ea899061"}, "vout": 1, "txid": "d42e643688a55891e8677bd7764821bbf295841f117bb3b4218c6ceb52756c57"}], "txid": "67bf20b218e4a60e793e77714fec24d877b52ededa0e4c09a3d488a83fa03640", "blocktime": 1537871767, "version": 2, "confirmations": 11490, "time": 1537871767, "locktime": 0, "vsize": 166, "size": 248}