{"hash": "67c3853d52405db02392d4bdcff24eea05f94d1ee69bc9824210a2caf526d3d3", "blockhash": "00000000000000000017f5eb5941039fbcee6240d03bc1f2f8e35350df66a1d8", "vout": [{"scriptPubKey": {"reqSigs": 1, "hex": "a91418c5e1833fc41e6371edc84a39ee2a065d8aca9f87", "addresses": ["33x1C9uEPuWZaWPC5LD2jqMB5y7bv7pKm7"], "asm": "OP_HASH160 18c5e1833fc41e6371edc84a39ee2a065d8aca9f OP_EQUAL", "type": "scripthash"}, "value": 2.49546925, "n": 0}, {"scriptPubKey": {"reqSigs": 1, "hex": "76a9145132e560b0ee2ee4d6db5b941507d3e5f599591a88ac", "addresses": ["18QLhraYxHXYH1i2yeUCMpePu3TXZWiqwV"], "asm": "OP_DUP OP_HASH160 5132e560b0ee2ee4d6db5b941507d3e5f599591a OP_EQUALVERIFY OP_CHECKSIG", "type": "pubkeyhash"}, "value": 0.0831, "n": 1}], "hex": "02000000013bd0b677e9f03483c2355468b0910d0c5dd917b50ed053d45a462362fe42804c01000000fdfd0000483045022100bda5ece067da83312fb77b6099a9b4c4e04fef68ce93d43f708d75395dc8099802203aa96a1e215ff4f9272f34a2b4b8823cf1674f216d35297cef587702a1f72d75014730440220429d0e6619de76b6d15adc8d500bf4c3e939b898b469b732332fa5f784d29a9c022046f38b158654fd03204ee62ac15efc27f704ac3e84c710d0d2d8b84821d468ce014c695221025dd97064ec938037f50f076c79b6d1deb50e691ca5bfa0c07106d62182c51e40210367ecf41d1d3fdc45933be3ee2ec527285dae36009f9a7f0e1baeeade16c79ee92103f156e2cb7a3a052ce21a785514ca1dbc082788f5963033fe61d940405d11a72653ae0000000002adc8df0e0000000017a91418c5e1833fc41e6371edc84a39ee2a065d8aca9f87f0cc7e00000000001976a9145132e560b0ee2ee4d6db5b941507d3e5f599591a88ac00000000", "vin": [{"sequence": 0, "scriptSig": {"hex": "00483045022100bda5ece067da83312fb77b6099a9b4c4e04fef68ce93d43f708d75395dc8099802203aa96a1e215ff4f9272f34a2b4b8823cf1674f216d35297cef587702a1f72d75014730440220429d0e6619de76b6d15adc8d500bf4c3e939b898b469b732332fa5f784d29a9c022046f38b158654fd03204ee62ac15efc27f704ac3e84c710d0d2d8b84821d468ce014c695221025dd97064ec938037f50f076c79b6d1deb50e691ca5bfa0c07106d62182c51e40210367ecf41d1d3fdc45933be3ee2ec527285dae36009f9a7f0e1baeeade16c79ee92103f156e2cb7a3a052ce21a785514ca1dbc082788f5963033fe61d940405d11a72653ae", "asm": "0 3045022100bda5ece067da83312fb77b6099a9b4c4e04fef68ce93d43f708d75395dc8099802203aa96a1e215ff4f9272f34a2b4b8823cf1674f216d35297cef587702a1f72d75[ALL] 30440220429d0e6619de76b6d15adc8d500bf4c3e939b898b469b732332fa5f784d29a9c022046f38b158654fd03204ee62ac15efc27f704ac3e84c710d0d2d8b84821d468ce[ALL] 5221025dd97064ec938037f50f076c79b6d1deb50e691ca5bfa0c07106d62182c51e40210367ecf41d1d3fdc45933be3ee2ec527285dae36009f9a7f0e1baeeade16c79ee92103f156e2cb7a3a052ce21a785514ca1dbc082788f5963033fe61d940405d11a72653ae"}, "vout": 1, "txid": "4c8042fe6223465ad453d00eb517d95d0c0d91b0685435c28334f0e977b6d03b"}], "txid": "67c3853d52405db02392d4bdcff24eea05f94d1ee69bc9824210a2caf526d3d3", "blocktime": 1537874412, "version": 2, "confirmations": 11467, "time": 1537874412, "locktime": 0, "vsize": 372, "size": 372}