{"hash": "b95e22a5fe4684a614d5e87137683047c67a803678c8705002c11a09ce9cf013", "blockhash": "00000000000000000004ffacab907a6b429b9a5745fa0b75af4234bf69dd7176", "vout": [{"scriptPubKey": {"reqSigs": 1, "hex": "a914a0eb9d37bb98e0d68765fdf01c4459a9af64955587", "addresses": ["3GMtHzaM2XD44mYFWbiZgDmimhHVwJMtSV"], "asm": "OP_HASH160 a0eb9d37bb98e0d68765fdf01c4459a9af649555 OP_EQUAL", "type": "scripthash"}, "value": 0.03450108, "n": 0}, {"scriptPubKey": {"reqSigs": 1, "hex": "a9149501b06bb58f3bbe550aa4b7e584948c4c79a72f87", "addresses": ["3FGtdVPQQWsrCyN37DAnRcbNzfw58kF8Tu"], "asm": "OP_HASH160 9501b06bb58f3bbe550aa4b7e584948c4c79a72f OP_EQUAL", "type": "scripthash"}, "value": 0.01150039, "n": 1}, {"scriptPubKey": {"reqSigs": 1, "hex": "a91493741630b59d7ccf71310cb87998a27aa2c7b2b487", "addresses": ["3F8gKazGrGj7X6g34dRGbe5oHsgFYDFoye"], "asm": "OP_HASH160 93741630b59d7ccf71310cb87998a27aa2c7b2b4 OP_EQUAL", "type": "scripthash"}, "value": 0.02651427, "n": 2}], "hex": "0100000000010291948d9d3c4128fe4fc8152a6a953049c2a15bc853817b0a0d7afe5522163c30010000002322002018a71dab347a65e72dbfafb2078a4e9cba976f93532e0127d043584a1c355147ffffffff5c80581e06be9dd3358513208d0ee8b261e96997665138a0172e0633c84752700100000023220020430dba6cc13d55cbbb15d8119e6ee653e342a6a13f35e635d11064b10b1f845effffffff03fca434000000000017a914a0eb9d37bb98e0d68765fdf01c4459a9af64955587578c11000000000017a9149501b06bb58f3bbe550aa4b7e584948c4c79a72f87237528000000000017a91493741630b59d7ccf71310cb87998a27aa2c7b2b487040047304402207f23af7448915e81d1ec6a438d19c2116ef62b03023d529ea8b2a32cffdeef4302201b13d09a8017303db9c22c5add54e3a0b82b81b845b85fe0fc38fe5f9565c9c1014830450221008e02a86e4189a342d20793dca4d78eabbbc7f1afdcd0512d53a796cc846d960c0220714a9a7bf2d7dc1f5d981d18f93383b75a5324f78851f4c9c8cee5b310abe4a601475221032cb7304742c08cbe94931295cac7dc5900e3c7b91a304b36ea4a98a44f70349d21038407424ead2b88063db2d589e50c34e1572f6b82eb9e266dec536939ee0db9eb52ae040047304402202cacfab7a076ee0dc228210b828a1f0c2ec8839599300a8c51ee84c0db0e9a2702205bd7dc1bc99c86a519d266cc76969672fa9180eb4c69965ee09b93163d8b4e8f0147304402203d9b48a6757ad2b054d37d75593b4b25b9b82c026d677f0e74b193bafd7944530220156f529d36b8a34b809a8f285d1383355909b764f4be36edcc5fe84de14278b60147522103f1a68cfa097428f9a837686ebca9e1e2df5525e878841017173bd3fad292b43a21038407424ead2b88063db2d589e50c34e1572f6b82eb9e266dec536939ee0db9eb52ae00000000", "vin": [{"txinwitness": ["", "304402207f23af7448915e81d1ec6a438d19c2116ef62b03023d529ea8b2a32cffdeef4302201b13d09a8017303db9c22c5add54e3a0b82b81b845b85fe0fc38fe5f9565c9c101", "30450221008e02a86e4189a342d20793dca4d78eabbbc7f1afdcd0512d53a796cc846d960c0220714a9a7bf2d7dc1f5d981d18f93383b75a5324f78851f4c9c8cee5b310abe4a601", "5221032cb7304742c08cbe94931295cac7dc5900e3c7b91a304b36ea4a98a44f70349d21038407424ead2b88063db2d589e50c34e1572f6b82eb9e266dec536939ee0db9eb52ae"], "sequence": 4294967295, "scriptSig": {"hex": "22002018a71dab347a65e72dbfafb2078a4e9cba976f93532e0127d043584a1c355147", "asm": "002018a71dab347a65e72dbfafb2078a4e9cba976f93532e0127d043584a1c355147"}, "vout": 1, "txid": "303c162255fe7a0d0a7b8153c85ba1c24930956a2a15c84ffe28413c9d8d9491"}, {"txinwitness": ["", "304402202cacfab7a076ee0dc228210b828a1f0c2ec8839599300a8c51ee84c0db0e9a2702205bd7dc1bc99c86a519d266cc76969672fa9180eb4c69965ee09b93163d8b4e8f01", "304402203d9b48a6757ad2b054d37d75593b4b25b9b82c026d677f0e74b193bafd7944530220156f529d36b8a34b809a8f285d1383355909b764f4be36edcc5fe84de14278b601", "522103f1a68cfa097428f9a837686ebca9e1e2df5525e878841017173bd3fad292b43a21038407424ead2b88063db2d589e50c34e1572f6b82eb9e266dec536939ee0db9eb52ae"], "sequence": 4294967295, "scriptSig": {"hex": "220020430dba6cc13d55cbbb15d8119e6ee653e342a6a13f35e635d11064b10b1f845e", "asm": "0020430dba6cc13d55cbbb15d8119e6ee653e342a6a13f35e635d11064b10b1f845e"}, "vout": 1, "txid": "705247c833062e17a03851669769e961b2e80e8d20138535d39dbe061e58805c"}], "txid": "67cc1d181c984e52d7304a3d7c3d28d37f53e7d8bac38b646e3e0b77a4f02126", "blocktime": 1537875543, "version": 1, "confirmations": 11464, "time": 1537875543, "locktime": 0, "vsize": 368, "size": 697}