{"hash": "1badf5d39a04ea176f811628fe6c91aa4a638a61f938df7af4e5d78cdfacb5ec", "blockhash": "0000000000000000000e13cef7c366c0283d82e591d1acd082e914b08063cdf1", "vout": [{"scriptPubKey": {"reqSigs": 1, "hex": "76a9144ffd3518829f85ad814e4070626428f9e943b5d088ac", "addresses": ["18HwiKBn5BVthgT9uMFQ9PxVSCJStQ464j"], "asm": "OP_DUP OP_HASH160 4ffd3518829f85ad814e4070626428f9e943b5d0 OP_EQUALVERIFY OP_CHECKSIG", "type": "pubkeyhash"}, "value": 0.35, "n": 0}, {"scriptPubKey": {"reqSigs": 1, "hex": "a9141100f427f49d83cf6a9ee9d5ed78b90dd9d71a2f87", "addresses": ["33EvZ56qdUT7Z89KRJPeGSyGez3Xz5MLBu"], "asm": "OP_HASH160 1100f427f49d83cf6a9ee9d5ed78b90dd9d71a2f OP_EQUAL", "type": "scripthash"}, "value": 0.261683, "n": 1}, {"scriptPubKey": {"reqSigs": 1, "hex": "76a914cebb2851a9c7cfe2582c12ecaf7f3ff4383d1dc088ac", "addresses": ["1Kr6QSydW9bFQG1mXiPNNu6WpJGmUa9i1g"], "asm": "OP_DUP OP_HASH160 cebb2851a9c7cfe2582c12ecaf7f3ff4383d1dc0 OP_EQUALVERIFY OP_CHECKSIG", "type": "pubkeyhash"}, "value": 107.28348323, "n": 2}], "hex": "02000000000101f1393c2201a66efc49f2a3885abe55122ed543798a2640803af94023d34847580100000017160014bad4ef451b9f118f7fe67ec2482f9d95c66585b1ffffffff03c00e1602000000001976a9144ffd3518829f85ad814e4070626428f9e943b5d088acec4b8f010000000017a9141100f427f49d83cf6a9ee9d5ed78b90dd9d71a2f87a39a757f020000001976a914cebb2851a9c7cfe2582c12ecaf7f3ff4383d1dc088ac024730440220288f5b565c2cf0779159ec30e0230cbc3e9e9bc896b09f49b85a0175439de745022056fa5994c229f9f4ccea20438b3176a7e85aa2995cf70fc86ef35c62cd81a80501210293a1aa4e8ffe26305a0dba512e7348478653ee9f9d0f7397939269b2ed80ed3600000000", "vin": [{"txinwitness": ["30440220288f5b565c2cf0779159ec30e0230cbc3e9e9bc896b09f49b85a0175439de745022056fa5994c229f9f4ccea20438b3176a7e85aa2995cf70fc86ef35c62cd81a80501", "0293a1aa4e8ffe26305a0dba512e7348478653ee9f9d0f7397939269b2ed80ed36"], "sequence": 4294967295, "scriptSig": {"hex": "160014bad4ef451b9f118f7fe67ec2482f9d95c66585b1", "asm": "0014bad4ef451b9f118f7fe67ec2482f9d95c66585b1"}, "vout": 1, "txid": "584748d32340f93a8040268a7943d52e1255be5a88a3f249fc6ea601223c39f1"}], "txid": "67cee4b6274892002074386ea7ddadda5648baef3a2e35647bed26dd55ad3c6f", "blocktime": 1537871767, "version": 2, "confirmations": 11491, "time": 1537871767, "locktime": 0, "vsize": 202, "size": 283}