{"hash": "67d26414708d59bff4b45a64f76a69978ab867152d400540846d4a525ef0f48c", "blockhash": "00000000000000000024a2167bbff67b0be802c0b01cdd79e6331c2be6459f87", "vout": [{"scriptPubKey": {"reqSigs": 1, "hex": "76a91476cc00268397d20be9f872014daa341ea29b861a88ac", "addresses": ["1Bq97r2dW814jmg8JgvTUoNQMgLReoPRVs"], "asm": "OP_DUP OP_HASH160 76cc00268397d20be9f872014daa341ea29b861a OP_EQUALVERIFY OP_CHECKSIG", "type": "pubkeyhash"}, "value": 0.0260967, "n": 0}, {"scriptPubKey": {"reqSigs": 1, "hex": "76a91426b761170ebb0b9e136e4a58b378da29d3d6058d88ac", "addresses": ["14XiMhpWoDs6uzEhtngbTbNTweT15ek6Qn"], "asm": "OP_DUP OP_HASH160 26b761170ebb0b9e136e4a58b378da29d3d6058d OP_EQUALVERIFY OP_CHECKSIG", "type": "pubkeyhash"}, "value": 0.9439205, "n": 1}], "hex": "0100000001f1ed2d08308fcc1f720aa0451baf1003879994d98060755ff59a01818c28de63010000006b483045022100901864cf8e11f01af48f5e23fa4dd0cc5923c0b1391f7a1679a41d7bf257923d022009ff99bd59a4655686a3c3268eb4029cadef70cf704ca7c8deaa1eec1cf1e62501210204576889003c3669cb5e19df85e102f59384342601e8c7ea778a9512b5dd9705ffffffff0206d22700000000001976a91476cc00268397d20be9f872014daa341ea29b861a88acf24ea005000000001976a91426b761170ebb0b9e136e4a58b378da29d3d6058d88ac00000000", "vin": [{"sequence": 4294967295, "scriptSig": {"hex": "483045022100901864cf8e11f01af48f5e23fa4dd0cc5923c0b1391f7a1679a41d7bf257923d022009ff99bd59a4655686a3c3268eb4029cadef70cf704ca7c8deaa1eec1cf1e62501210204576889003c3669cb5e19df85e102f59384342601e8c7ea778a9512b5dd9705", "asm": "3045022100901864cf8e11f01af48f5e23fa4dd0cc5923c0b1391f7a1679a41d7bf257923d022009ff99bd59a4655686a3c3268eb4029cadef70cf704ca7c8deaa1eec1cf1e625[ALL] 0204576889003c3669cb5e19df85e102f59384342601e8c7ea778a9512b5dd9705"}, "vout": 1, "txid": "63de288c81019af55f756080d99499870310af1b45a00a721fcc8f30082dedf1"}], "txid": "67d26414708d59bff4b45a64f76a69978ab867152d400540846d4a525ef0f48c", "blocktime": 1537870564, "version": 1, "confirmations": 11515, "time": 1537870564, "locktime": 0, "vsize": 226, "size": 226}