{"hash": "67d68dc879c14e3c896dd22c131b7f34237b39132d1a51cfc8a62ada6e0fd4e2", "blockhash": "0000000000000000000baef3f32e3676a92c3b2e5da21b426e4f302fc371ce76", "vout": [{"scriptPubKey": {"reqSigs": 1, "hex": "a914cdbbccb36d29c041de8b053dc6554e6860d1ceb187", "addresses": ["3LSqRR1o1ztTEvLT2v4kDLnAK5pqpK3dJ3"], "asm": "OP_HASH160 cdbbccb36d29c041de8b053dc6554e6860d1ceb1 OP_EQUAL", "type": "scripthash"}, "value": 0.00286208, "n": 0}, {"scriptPubKey": {"reqSigs": 1, "hex": "76a9140bc35a67c816fca396d22443bbc43f41557683f688ac", "addresses": ["125CTV7UCRGBuPLqfbvLYaC6YRrPK4gUKF"], "asm": "OP_DUP OP_HASH160 0bc35a67c816fca396d22443bbc43f41557683f6 OP_EQUALVERIFY OP_CHECKSIG", "type": "pubkeyhash"}, "value": 0.00366677, "n": 1}], "hex": "0100000001cdc07a9973e78810cd1d9414ac215fc00f6f124b692d4677b90e04c3a3bdf656010000006b4830450221009fca71f2c7cfdc89848152f3a7870ca5a657e3b84ef0c56bdcb7ce9ea2d5202502200afe8acb5f71c61cdf2742097a51f1b7545135ba13353a9f3f3d11aa57b1dae801210259232881605ee4d257be802377080ff6d4060c179e96776757f65f5b64921f26ffffffff02005e04000000000017a914cdbbccb36d29c041de8b053dc6554e6860d1ceb18755980500000000001976a9140bc35a67c816fca396d22443bbc43f41557683f688ac00000000", "vin": [{"sequence": 4294967295, "scriptSig": {"hex": "4830450221009fca71f2c7cfdc89848152f3a7870ca5a657e3b84ef0c56bdcb7ce9ea2d5202502200afe8acb5f71c61cdf2742097a51f1b7545135ba13353a9f3f3d11aa57b1dae801210259232881605ee4d257be802377080ff6d4060c179e96776757f65f5b64921f26", "asm": "30450221009fca71f2c7cfdc89848152f3a7870ca5a657e3b84ef0c56bdcb7ce9ea2d5202502200afe8acb5f71c61cdf2742097a51f1b7545135ba13353a9f3f3d11aa57b1dae8[ALL] 0259232881605ee4d257be802377080ff6d4060c179e96776757f65f5b64921f26"}, "vout": 1, "txid": "56f6bda3c3040eb977462d694b126f0fc05f21ac14941dcd1088e773997ac0cd"}], "txid": "67d68dc879c14e3c896dd22c131b7f34237b39132d1a51cfc8a62ada6e0fd4e2", "blocktime": 1537876114, "version": 1, "confirmations": 11460, "time": 1537876114, "locktime": 0, "vsize": 224, "size": 224}