{"hash": "caef25ba282b05d23f12c7cd8f1247a3344966bb20e800c4b4c0669193227b9a", "blockhash": "00000000000000000017f5eb5941039fbcee6240d03bc1f2f8e35350df66a1d8", "vout": [{"scriptPubKey": {"reqSigs": 1, "hex": "76a9141c9f5f937599a6c9ec4321d8beaee439a977c12688ac", "addresses": ["13cLqpsLqhWFzCNKc9mX6mSU5Nu2uLkkNo"], "asm": "OP_DUP OP_HASH160 1c9f5f937599a6c9ec4321d8beaee439a977c126 OP_EQUALVERIFY OP_CHECKSIG", "type": "pubkeyhash"}, "value": 0.091612, "n": 0}, {"scriptPubKey": {"reqSigs": 1, "hex": "a9149fedd0435a5346d19e10dbf067501f04f6a02d3687", "addresses": ["3GGeFcpTvbKcU9so2Fz4C8o4V2C9Du9Ngp"], "asm": "OP_HASH160 9fedd0435a5346d19e10dbf067501f04f6a02d36 OP_EQUAL", "type": "scripthash"}, "value": 4.74797838, "n": 1}], "hex": "01000000000101faf49507b5ecefa66b40a1eafc45603372e7b48e55ceba59421f4ea82afd143c0100000023220020bdce0b87be1099509aee666bf280d91936d77265b9626a3811efa68c794ec6d9ffffffff02f0c98b00000000001976a9141c9f5f937599a6c9ec4321d8beaee439a977c12688ac0ed74c1c0000000017a9149fedd0435a5346d19e10dbf067501f04f6a02d36870400473044022017b43f1a19c4b413f49012ad8be44e1e6d0db74d29b6a943f35d8e9eb0f41aee0220176cfc4f44c3876f0b7b4bcd7385ad8832b2ad0edf0b3ea2d0efd450a44889650147304402206dc9370111a812de2c738e85b432360a4135ac79cf2163886ebea42101a5c01f02207dc47042430521b34c2dba0e95936562b0e4b5978068378244eecf485ce8f3e90147522103eb143395e1f431f678a743f1647f1b19b73b3255e6eb16378dc614c75af6729821022a8a912ad76544ca20f666a2071879d22db3f19b68028bfb6e15e148dbbe91a252ae00000000", "vin": [{"txinwitness": ["", "3044022017b43f1a19c4b413f49012ad8be44e1e6d0db74d29b6a943f35d8e9eb0f41aee0220176cfc4f44c3876f0b7b4bcd7385ad8832b2ad0edf0b3ea2d0efd450a448896501", "304402206dc9370111a812de2c738e85b432360a4135ac79cf2163886ebea42101a5c01f02207dc47042430521b34c2dba0e95936562b0e4b5978068378244eecf485ce8f3e901", "522103eb143395e1f431f678a743f1647f1b19b73b3255e6eb16378dc614c75af6729821022a8a912ad76544ca20f666a2071879d22db3f19b68028bfb6e15e148dbbe91a252ae"], "sequence": 4294967295, "scriptSig": {"hex": "220020bdce0b87be1099509aee666bf280d91936d77265b9626a3811efa68c794ec6d9", "asm": "0020bdce0b87be1099509aee666bf280d91936d77265b9626a3811efa68c794ec6d9"}, "vout": 1, "txid": "3c14fd2aa84e1f4259bace558eb4e772336045fceaa1406ba6efecb50795f4fa"}], "txid": "67dbb3ca1352b108f607bef44c66c0d643d95cfa57e05396b41d08809e5fd1cd", "blocktime": 1537874412, "version": 1, "confirmations": 11467, "time": 1537874412, "locktime": 0, "vsize": 207, "size": 372}