{"hash": "a8fafdf991f566d52ed42e0014e77d27b9c50dcd7267cdc7539f7c9e0e5d6aef", "blockhash": "0000000000000000000baef3f32e3676a92c3b2e5da21b426e4f302fc371ce76", "vout": [{"scriptPubKey": {"reqSigs": 1, "hex": "76a914de9f1c1f698bccfcc41c3f63bcdd1d2f03e229de88ac", "addresses": ["1MJ7cjWGzhHPGGR74A5Y3U74Xr7ma1CmQE"], "asm": "OP_DUP OP_HASH160 de9f1c1f698bccfcc41c3f63bcdd1d2f03e229de OP_EQUALVERIFY OP_CHECKSIG", "type": "pubkeyhash"}, "value": 0.00369326, "n": 0}, {"scriptPubKey": {"reqSigs": 1, "hex": "a914bfe3b9b006bd60d821de4768216fbcf3cb0629a487", "addresses": ["3KBdnpNRSUC6xH7oL58GWg3f1QzPQs9FWq"], "asm": "OP_HASH160 bfe3b9b006bd60d821de4768216fbcf3cb0629a4 OP_EQUAL", "type": "scripthash"}, "value": 0.0064174, "n": 1}], "hex": "010000000001021dfd16f01e31570a85b884a05530dab3fcb381cec123897713b639082222a152010000002322002083f5850b1b9ae687f7cf8d5c77fefcbd87cde420155cd43c20d50f5f293b7ed6ffffffffd47a3f2f0a5da507c0334a33eba61a050c6f880e986167291da687156bed5d2401000000232200204ac72bc93353695ed44de9eabe5eab31fde46c3e5524f6f6c253b37df4627817ffffffff02aea20500000000001976a914de9f1c1f698bccfcc41c3f63bcdd1d2f03e229de88acccca09000000000017a914bfe3b9b006bd60d821de4768216fbcf3cb0629a4870400473044022034f0a70bbfc5e8b9f1f970a33259d7385fcf319c136f011cadb0115e46eeede902206f6fcb1a4609bef8dc29853bf3d2243f422a212c541ef0c43129db2889e85ead014830450221009c20373dfbf85c2879e68ca51c77aea71d53819702338eab818decb7005ae6c902203fdc58ec05a3575d7ecef95bf8e601353a94ee41e64462b39aa2441211f739c701475221020511070566b8412d1941b8dc0ded10caa6a6915b609dfa65bb8111255071d3a22103871fc2ca08e6950b38867e8e6a0e94ee625223d3aa0df5c65f414c6d784467e252ae0400473044022027130e2560f1e1852f04b70fd38cd49f7fdd381e3a2754dde95e0b709a703b48022057889ae267891d904cd59f95699ab1283793c63a2d138fad6aba7407eba0f7fc0147304402201bdddc842ebded58929f40b3b638f4b8d7f5e37b41b2bb2cb121c0ee8c7d4ccc0220131f58d1aad907f830551ec9881456b8d5daf4fd34bd264a0cf5d27902cd1c61014752210383dd989bbcdccf0b79b07f5bbd82921af5ac4762329b0aa9346994805e5cd8fc2103871fc2ca08e6950b38867e8e6a0e94ee625223d3aa0df5c65f414c6d784467e252ae00000000", "vin": [{"txinwitness": ["", "3044022034f0a70bbfc5e8b9f1f970a33259d7385fcf319c136f011cadb0115e46eeede902206f6fcb1a4609bef8dc29853bf3d2243f422a212c541ef0c43129db2889e85ead01", "30450221009c20373dfbf85c2879e68ca51c77aea71d53819702338eab818decb7005ae6c902203fdc58ec05a3575d7ecef95bf8e601353a94ee41e64462b39aa2441211f739c701", "5221020511070566b8412d1941b8dc0ded10caa6a6915b609dfa65bb8111255071d3a22103871fc2ca08e6950b38867e8e6a0e94ee625223d3aa0df5c65f414c6d784467e252ae"], "sequence": 4294967295, "scriptSig": {"hex": "22002083f5850b1b9ae687f7cf8d5c77fefcbd87cde420155cd43c20d50f5f293b7ed6", "asm": "002083f5850b1b9ae687f7cf8d5c77fefcbd87cde420155cd43c20d50f5f293b7ed6"}, "vout": 1, "txid": "52a122220839b613778923c1ce81b3fcb3da3055a084b8850a57311ef016fd1d"}, {"txinwitness": ["", "3044022027130e2560f1e1852f04b70fd38cd49f7fdd381e3a2754dde95e0b709a703b48022057889ae267891d904cd59f95699ab1283793c63a2d138fad6aba7407eba0f7fc01", "304402201bdddc842ebded58929f40b3b638f4b8d7f5e37b41b2bb2cb121c0ee8c7d4ccc0220131f58d1aad907f830551ec9881456b8d5daf4fd34bd264a0cf5d27902cd1c6101", "52210383dd989bbcdccf0b79b07f5bbd82921af5ac4762329b0aa9346994805e5cd8fc2103871fc2ca08e6950b38867e8e6a0e94ee625223d3aa0df5c65f414c6d784467e252ae"], "sequence": 4294967295, "scriptSig": {"hex": "2200204ac72bc93353695ed44de9eabe5eab31fde46c3e5524f6f6c253b37df4627817", "asm": "00204ac72bc93353695ed44de9eabe5eab31fde46c3e5524f6f6c253b37df4627817"}, "vout": 1, "txid": "245ded6b1587a61d296761980e886f0c051aa6eb334a33c007a55d0a2f3f7ad4"}], "txid": "67e1f66f31baa55d451dcbbb22aeffb7d5d999e4c54b48573187f530d19051eb", "blocktime": 1537876114, "version": 1, "confirmations": 11460, "time": 1537876114, "locktime": 0, "vsize": 338, "size": 667}