{"hash": "67e20c78d673e68e7e13c80f34ee302cef3229eb5ed832274853fab8f9c63d65", "blockhash": "0000000000000000001cda96e906b7601b7a6fb1a3b62bca570a9e5d8f4b3de1", "vout": [{"scriptPubKey": {"reqSigs": 1, "hex": "76a914f423dfee34e4833104508103d89e316b4a49314088ac", "addresses": ["1PFtrRjbq4aLfM7k4tyLZ3ZAuTsgLr6Q8Q"], "asm": "OP_DUP OP_HASH160 f423dfee34e4833104508103d89e316b4a493140 OP_EQUALVERIFY OP_CHECKSIG", "type": "pubkeyhash"}, "value": 0.00041318, "n": 0}, {"scriptPubKey": {"reqSigs": 1, "hex": "76a9143a176514f103d6f8449f3bfdd92ee0f388b60c6088ac", "addresses": ["16JADdUbprXYUN1ZoGQLUpYGfWchC2HNix"], "asm": "OP_DUP OP_HASH160 3a176514f103d6f8449f3bfdd92ee0f388b60c60 OP_EQUALVERIFY OP_CHECKSIG", "type": "pubkeyhash"}, "value": 5.46e-06, "n": 1}, {"scriptPubKey": {"type": "nulldata", "hex": "6a146f6d6e69000000000000001f00000069a8967a00", "asm": "OP_RETURN 6f6d6e69000000000000001f00000069a8967a00"}, "value": 0.0, "n": 2}], "hex": "01000000021b68caa465d809fc75be44252fea03ef44139161fdfab2cb029f36616be8309d010000006b48304502210098f69286abd93a87f0dd1d5e519dad954a497ffe968028207e468b3c276d9f11022017dd167bcf5b727d0b03cfe46f5fa838ef1126fd6c837e655efcb21d1fcfd7c90121039a403b4eeaf8f7a9c5cc655cf2d17310fcd606a75b1392f7892f6b514a67d23cffffffffabafea5fd310768533a71e40da2b50d7e1c61729f0ccd059488414f2d8d2a00c000000006b483045022100f0655102278375996b3749e83bb55c4a847b3a2efb95c0903da454f7ce97212702207996a176bce894e799b19009737e391ff9d434493220c2a95b6cf8926f7a34550121039a403b4eeaf8f7a9c5cc655cf2d17310fcd606a75b1392f7892f6b514a67d23cffffffff0366a10000000000001976a914f423dfee34e4833104508103d89e316b4a49314088ac22020000000000001976a9143a176514f103d6f8449f3bfdd92ee0f388b60c6088ac0000000000000000166a146f6d6e69000000000000001f00000069a8967a0000000000", "vin": [{"sequence": 4294967295, "scriptSig": {"hex": "48304502210098f69286abd93a87f0dd1d5e519dad954a497ffe968028207e468b3c276d9f11022017dd167bcf5b727d0b03cfe46f5fa838ef1126fd6c837e655efcb21d1fcfd7c90121039a403b4eeaf8f7a9c5cc655cf2d17310fcd606a75b1392f7892f6b514a67d23c", "asm": "304502210098f69286abd93a87f0dd1d5e519dad954a497ffe968028207e468b3c276d9f11022017dd167bcf5b727d0b03cfe46f5fa838ef1126fd6c837e655efcb21d1fcfd7c9[ALL] 039a403b4eeaf8f7a9c5cc655cf2d17310fcd606a75b1392f7892f6b514a67d23c"}, "vout": 1, "txid": "9d30e86b61369f02cbb2fafd61911344ef03ea2f2544be75fc09d865a4ca681b"}, {"sequence": 4294967295, "scriptSig": {"hex": "483045022100f0655102278375996b3749e83bb55c4a847b3a2efb95c0903da454f7ce97212702207996a176bce894e799b19009737e391ff9d434493220c2a95b6cf8926f7a34550121039a403b4eeaf8f7a9c5cc655cf2d17310fcd606a75b1392f7892f6b514a67d23c", "asm": "3045022100f0655102278375996b3749e83bb55c4a847b3a2efb95c0903da454f7ce97212702207996a176bce894e799b19009737e391ff9d434493220c2a95b6cf8926f7a3455[ALL] 039a403b4eeaf8f7a9c5cc655cf2d17310fcd606a75b1392f7892f6b514a67d23c"}, "vout": 0, "txid": "0ca0d2d8f214844859d0ccf02917c6e1d7502bda401ea733857610d35feaafab"}], "txid": "67e20c78d673e68e7e13c80f34ee302cef3229eb5ed832274853fab8f9c63d65", "blocktime": 1537873282, "version": 1, "confirmations": 11480, "time": 1537873282, "locktime": 0, "vsize": 405, "size": 405}