{"hash": "67e2d0830022c32bb23e9c0b0425c12d1ec57c07e1f495879f784b4904b145f1", "blockhash": "00000000000000000004ffacab907a6b429b9a5745fa0b75af4234bf69dd7176", "vout": [{"scriptPubKey": {"reqSigs": 1, "hex": "76a9149b49131883bf3a8b3479bd2267189e77f5803e0688ac", "addresses": ["1FA5H3dqutr2iL7VZ2Gp6xBKhPEJ5BWUFH"], "asm": "OP_DUP OP_HASH160 9b49131883bf3a8b3479bd2267189e77f5803e06 OP_EQUALVERIFY OP_CHECKSIG", "type": "pubkeyhash"}, "value": 0.00129117, "n": 0}, {"scriptPubKey": {"reqSigs": 1, "hex": "76a9149fe7d4cdbab61d8a0d962f095fc73653bde6089288ac", "addresses": ["1FaWARLkF7PmqsnrxemGARaFvnims7TH6M"], "asm": "OP_DUP OP_HASH160 9fe7d4cdbab61d8a0d962f095fc73653bde60892 OP_EQUALVERIFY OP_CHECKSIG", "type": "pubkeyhash"}, "value": 0.02558783, "n": 1}], "hex": "0100000001ea8fa148fcb37ad591d94365aa37e6cff11e97ecb43e0266b162a9c807d4f216010000006b4830450221009d6dad13d63776b4b15e2b6db6c512f42fb51c0c7ebc3c2f984a407e5fab0b4302205eb246689f66a9eaf57ecbae3d41d198ceed9c310a13d855839d59ddc3e74ee40121035668cd2a102218b19f59e5527d9b9d1d50bec4ffb4ea0b467dba42db5a80f9abffffffff025df80100000000001976a9149b49131883bf3a8b3479bd2267189e77f5803e0688ac3f0b2700000000001976a9149fe7d4cdbab61d8a0d962f095fc73653bde6089288ac00000000", "vin": [{"sequence": 4294967295, "scriptSig": {"hex": "4830450221009d6dad13d63776b4b15e2b6db6c512f42fb51c0c7ebc3c2f984a407e5fab0b4302205eb246689f66a9eaf57ecbae3d41d198ceed9c310a13d855839d59ddc3e74ee40121035668cd2a102218b19f59e5527d9b9d1d50bec4ffb4ea0b467dba42db5a80f9ab", "asm": "30450221009d6dad13d63776b4b15e2b6db6c512f42fb51c0c7ebc3c2f984a407e5fab0b4302205eb246689f66a9eaf57ecbae3d41d198ceed9c310a13d855839d59ddc3e74ee4[ALL] 035668cd2a102218b19f59e5527d9b9d1d50bec4ffb4ea0b467dba42db5a80f9ab"}, "vout": 1, "txid": "16f2d407c8a962b166023eb4ec971ef1cfe637aa6543d991d57ab3fc48a18fea"}], "txid": "67e2d0830022c32bb23e9c0b0425c12d1ec57c07e1f495879f784b4904b145f1", "blocktime": 1537875543, "version": 1, "confirmations": 11464, "time": 1537875543, "locktime": 0, "vsize": 226, "size": 226}