{"hash": "67e2a713e98654ca2536250045c59b21d124ed43000305cf9a7e438722e68afc", "blockhash": "0000000000000000000e13cef7c366c0283d82e591d1acd082e914b08063cdf1", "vout": [{"scriptPubKey": {"reqSigs": 1, "hex": "a914c2b180f8ac983c2495ef2abed02c697a0d57466087", "addresses": ["3KSTewQ5Ed4Hszwmainnsj4m5uk2ytVpXw"], "asm": "OP_HASH160 c2b180f8ac983c2495ef2abed02c697a0d574660 OP_EQUAL", "type": "scripthash"}, "value": 0.01690399, "n": 0}, {"scriptPubKey": {"reqSigs": 1, "hex": "76a9146719be3e223cece58ec43e4fc0d5c98b000ffced88ac", "addresses": ["1AQ9SRXoqXMd9ZoG2mtj7oXqYbbmaMojJj"], "asm": "OP_DUP OP_HASH160 6719be3e223cece58ec43e4fc0d5c98b000ffced OP_EQUALVERIFY OP_CHECKSIG", "type": "pubkeyhash"}, "value": 0.00391092, "n": 1}], "hex": "01000000012719a3d6187beaaae4d5b607b7dfe3de9458ddcd8656c64bc8400748042c2c1c00000000fdfe0000483045022100eb5f6a0c3a915566ce8a716cce750cadd37fdd38140e1339874a248a5876953c022054ccc6662d46eb010781ebdae3d57ff46f056d7fa85c66c33934ea93078ea88e01483045022100fdedcec6779313cd223a6c2839703efa174d7a24a66667bdc7fabca5d356213e022051acb873a12ef9d2c297b8d1a27e98ed7b0f4741eae8aaace55b0f7afd65f024014c695221029801d51093e646a0ea34e476a140552d65fda69741af3536d8131c3a94c57d6a2102f9ed43dda5ade5f0c442389ad215f99bc194e5e586a228af18a6d209319069a321035b1c4aae3e390bc12a6605ab5dae997c719f7d1e1bfcb1311d3538152eb9118b53aeffffffff021fcb19000000000017a914c2b180f8ac983c2495ef2abed02c697a0d57466087b4f70500000000001976a9146719be3e223cece58ec43e4fc0d5c98b000ffced88ac00000000", "vin": [{"sequence": 4294967295, "scriptSig": {"hex": "00483045022100eb5f6a0c3a915566ce8a716cce750cadd37fdd38140e1339874a248a5876953c022054ccc6662d46eb010781ebdae3d57ff46f056d7fa85c66c33934ea93078ea88e01483045022100fdedcec6779313cd223a6c2839703efa174d7a24a66667bdc7fabca5d356213e022051acb873a12ef9d2c297b8d1a27e98ed7b0f4741eae8aaace55b0f7afd65f024014c695221029801d51093e646a0ea34e476a140552d65fda69741af3536d8131c3a94c57d6a2102f9ed43dda5ade5f0c442389ad215f99bc194e5e586a228af18a6d209319069a321035b1c4aae3e390bc12a6605ab5dae997c719f7d1e1bfcb1311d3538152eb9118b53ae", "asm": "0 3045022100eb5f6a0c3a915566ce8a716cce750cadd37fdd38140e1339874a248a5876953c022054ccc6662d46eb010781ebdae3d57ff46f056d7fa85c66c33934ea93078ea88e[ALL] 3045022100fdedcec6779313cd223a6c2839703efa174d7a24a66667bdc7fabca5d356213e022051acb873a12ef9d2c297b8d1a27e98ed7b0f4741eae8aaace55b0f7afd65f024[ALL] 5221029801d51093e646a0ea34e476a140552d65fda69741af3536d8131c3a94c57d6a2102f9ed43dda5ade5f0c442389ad215f99bc194e5e586a228af18a6d209319069a321035b1c4aae3e390bc12a6605ab5dae997c719f7d1e1bfcb1311d3538152eb9118b53ae"}, "vout": 0, "txid": "1c2c2c04480740c84bc65686cddd5894dee3dfb707b6d5e4aaea7b18d6a31927"}], "txid": "67e2a713e98654ca2536250045c59b21d124ed43000305cf9a7e438722e68afc", "blocktime": 1537871767, "version": 1, "confirmations": 11493, "time": 1537871767, "locktime": 0, "vsize": 373, "size": 373}