{"hash": "67e44a8f6303afbff46245d4ba04322c423700c9013c30bd54235ed17f1cc839", "blockhash": "0000000000000000000baef3f32e3676a92c3b2e5da21b426e4f302fc371ce76", "vout": [{"scriptPubKey": {"reqSigs": 1, "hex": "76a914caf964478643def967be12d6380b851a73d7576b88ac", "addresses": ["1KWEFnpVVmkzNC63cQbfnP6NmzypXNSPFA"], "asm": "OP_DUP OP_HASH160 caf964478643def967be12d6380b851a73d7576b OP_EQUALVERIFY OP_CHECKSIG", "type": "pubkeyhash"}, "value": 0.0004252, "n": 0}, {"scriptPubKey": {"type": "nulldata", "hex": "6a4c500000782b0001f8de358aaac6e591fc828faf27b7256b4774d339f6019d6ddc0f1b8ff117d5b2fd70ce66a4e00d796535c6e327c95baa1e850614486152c16ee6bc9a9526289ac0f6612cd74e33776ee4", "asm": "OP_RETURN 0000782b0001f8de358aaac6e591fc828faf27b7256b4774d339f6019d6ddc0f1b8ff117d5b2fd70ce66a4e00d796535c6e327c95baa1e850614486152c16ee6bc9a9526289ac0f6612cd74e33776ee4"}, "value": 0.0, "n": 1}], "hex": "01000000010f9861fb84c5ee533a33dc24da85be9fcedd1d72ac69dcbbf10b258baca5654d010000006b483045022100c5214f4928260444f7b507886441b1c02053aacd1cbb1671e8aa292fe7cbe66a02205afaa6d42277a1a07e7d61e542a97ee3bbff8616d3dc9b37fd9ecc1f70a5c68e01210350cc4988a2d86e35f8f302a63ff093d1af63131787a2d2a955890b8be8179188ffffffff0218a60000000000001976a914caf964478643def967be12d6380b851a73d7576b88ac0000000000000000536a4c500000782b0001f8de358aaac6e591fc828faf27b7256b4774d339f6019d6ddc0f1b8ff117d5b2fd70ce66a4e00d796535c6e327c95baa1e850614486152c16ee6bc9a9526289ac0f6612cd74e33776ee400000000", "vin": [{"sequence": 4294967295, "scriptSig": {"hex": "483045022100c5214f4928260444f7b507886441b1c02053aacd1cbb1671e8aa292fe7cbe66a02205afaa6d42277a1a07e7d61e542a97ee3bbff8616d3dc9b37fd9ecc1f70a5c68e01210350cc4988a2d86e35f8f302a63ff093d1af63131787a2d2a955890b8be8179188", "asm": "3045022100c5214f4928260444f7b507886441b1c02053aacd1cbb1671e8aa292fe7cbe66a02205afaa6d42277a1a07e7d61e542a97ee3bbff8616d3dc9b37fd9ecc1f70a5c68e[ALL] 0350cc4988a2d86e35f8f302a63ff093d1af63131787a2d2a955890b8be8179188"}, "vout": 1, "txid": "4d65a5ac8b250bf1bbdc69ac721dddce9fbe85da24dc333a53eec584fb61980f"}], "txid": "67e44a8f6303afbff46245d4ba04322c423700c9013c30bd54235ed17f1cc839", "blocktime": 1537876114, "version": 1, "confirmations": 11460, "time": 1537876114, "locktime": 0, "vsize": 284, "size": 284}