{"hash": "989929517548e147b2cde9961ba00320e8d1c9c9284bc0a5dc67e286e224454c", "blockhash": "00000000000000000024a2167bbff67b0be802c0b01cdd79e6331c2be6459f87", "vout": [{"scriptPubKey": {"reqSigs": 1, "hex": "a9149be64c36360057aed59472b51e4051b2b4c1649c87", "addresses": ["3FuLYeD5uKNPEaCjHhHjnSzPZgDPLSG2Qk"], "asm": "OP_HASH160 9be64c36360057aed59472b51e4051b2b4c1649c OP_EQUAL", "type": "scripthash"}, "value": 0.00381107, "n": 0}, {"scriptPubKey": {"reqSigs": 1, "hex": "a9142022fd09f5cc51ce80e2456cfb22032f31503aa187", "addresses": ["34cwTinfQnDhiyeXyCYkeMBc5gHQa3dUwW"], "asm": "OP_HASH160 2022fd09f5cc51ce80e2456cfb22032f31503aa1 OP_EQUAL", "type": "scripthash"}, "value": 1.7157516, "n": 1}], "hex": "01000000000101752f94f4a9d903d6462495f2cffaf40841727153e4b5b5bac548055e0dbc786f0000000023220020dddc2b648ee48a0a195a0033ae4bb01cfd3bcbdd41035166a40ce51e36092743ffffffff02b3d005000000000017a9149be64c36360057aed59472b51e4051b2b4c1649c8778073a0a0000000017a9142022fd09f5cc51ce80e2456cfb22032f31503aa18704004730440220169166b7264dc89f51fc93b3e8a3b05f1606b7f00d8dc57fbf52db9c5affc47802202384922597ee33560a9312530d21c9415c75b5b5ea9b9540274de79969207aad0148304502210096b8aa153d8cf14aa53e835facdf29f17545b6cc0c83210d7d8af04b5fbf23d502204d7b9417558cc6324d5364e483a169b7f0536ef911829c0148888d145f2f075401695221026b34280427d86d8e2c59ef946253c6c77bc4ea89372c0eb364bb0b282013f1b82103b4ee42bd92015544c75d5a5b6944c82550853b27d1dc4608f088da69c122d9cc2103c00b704512f214089b3c1999879f7c26b14cc58dce715d3a4edd1b80a5862c5753ae00000000", "vin": [{"txinwitness": ["", "30440220169166b7264dc89f51fc93b3e8a3b05f1606b7f00d8dc57fbf52db9c5affc47802202384922597ee33560a9312530d21c9415c75b5b5ea9b9540274de79969207aad01", "304502210096b8aa153d8cf14aa53e835facdf29f17545b6cc0c83210d7d8af04b5fbf23d502204d7b9417558cc6324d5364e483a169b7f0536ef911829c0148888d145f2f075401", "5221026b34280427d86d8e2c59ef946253c6c77bc4ea89372c0eb364bb0b282013f1b82103b4ee42bd92015544c75d5a5b6944c82550853b27d1dc4608f088da69c122d9cc2103c00b704512f214089b3c1999879f7c26b14cc58dce715d3a4edd1b80a5862c5753ae"], "sequence": 4294967295, "scriptSig": {"hex": "220020dddc2b648ee48a0a195a0033ae4bb01cfd3bcbdd41035166a40ce51e36092743", "asm": "0020dddc2b648ee48a0a195a0033ae4bb01cfd3bcbdd41035166a40ce51e36092743"}, "vout": 0, "txid": "6f78bc0d5e0548c5bab5b5e45371724108f4facff2952446d603d9a9f4942f75"}], "txid": "67e4340d1ef3aeadd7bd0b93dbadb0ffe493ec85fae056febc9a48449bd89245", "blocktime": 1537870564, "version": 1, "confirmations": 11515, "time": 1537870564, "locktime": 0, "vsize": 214, "size": 405}