{"hash": "67e8efafc3e97f1145ce8835ad4c9943e52af3f9711825697bc28eac9cc561ea", "blockhash": "0000000000000000001cda96e906b7601b7a6fb1a3b62bca570a9e5d8f4b3de1", "vout": [{"scriptPubKey": {"reqSigs": 1, "hex": "76a9144a0f1e2f2b0d7daeec5265f10bbbbe08ed725e8988ac", "addresses": ["17kb7c9ndg7ioSuzMWEHWECdEVUegNkcGc"], "asm": "OP_DUP OP_HASH160 4a0f1e2f2b0d7daeec5265f10bbbbe08ed725e89 OP_EQUALVERIFY OP_CHECKSIG", "type": "pubkeyhash"}, "value": 0.06227556, "n": 0}], "hex": "0100000001260fd28745f495b0ac56bf6d54fbe6d55df92504ae0cc1e554e8ce12f0ace414000000006b483045022100b3dbe1dc33b9a62bc0ccb9265624daa3153b3312cabf601bf492cd5bb3b9bce202200c4e6ec21be0a0e7b8bcfbce0325747be00602f3876984dc1330c81d09e01c8101210285740982dcaba762c53db633a9b707d1a4e092594dcb31efc7ceb6f222e844a9ffffffff0164065f00000000001976a9144a0f1e2f2b0d7daeec5265f10bbbbe08ed725e8988ac00000000", "vin": [{"sequence": 4294967295, "scriptSig": {"hex": "483045022100b3dbe1dc33b9a62bc0ccb9265624daa3153b3312cabf601bf492cd5bb3b9bce202200c4e6ec21be0a0e7b8bcfbce0325747be00602f3876984dc1330c81d09e01c8101210285740982dcaba762c53db633a9b707d1a4e092594dcb31efc7ceb6f222e844a9", "asm": "3045022100b3dbe1dc33b9a62bc0ccb9265624daa3153b3312cabf601bf492cd5bb3b9bce202200c4e6ec21be0a0e7b8bcfbce0325747be00602f3876984dc1330c81d09e01c81[ALL] 0285740982dcaba762c53db633a9b707d1a4e092594dcb31efc7ceb6f222e844a9"}, "vout": 0, "txid": "14e4acf012cee854e5c10cae0425f95dd5e6fb546dbf56acb095f44587d20f26"}], "txid": "67e8efafc3e97f1145ce8835ad4c9943e52af3f9711825697bc28eac9cc561ea", "blocktime": 1537873282, "version": 1, "confirmations": 11482, "time": 1537873282, "locktime": 0, "vsize": 192, "size": 192}