{"hash": "18e9413581a6b4d6c026481bcfacbecc73c693ad3e0b31a1e690d79ed3491f13", "blockhash": "0000000000000000000e13cef7c366c0283d82e591d1acd082e914b08063cdf1", "vout": [{"scriptPubKey": {"reqSigs": 1, "hex": "a91489e979625699a54bc6be3a0c9d920f6e3853d0b987", "addresses": ["3EGEBtmQFfX45iJz3YtfJzpW43uByJiXoD"], "asm": "OP_HASH160 89e979625699a54bc6be3a0c9d920f6e3853d0b9 OP_EQUAL", "type": "scripthash"}, "value": 0.01075222, "n": 0}, {"scriptPubKey": {"reqSigs": 1, "hex": "a914c0db4b5751b76fef728752d8687a447dffbbe4d187", "addresses": ["3KGkND9tpQhWSXdwsE2JueAF6vRNhz2iNP"], "asm": "OP_HASH160 c0db4b5751b76fef728752d8687a447dffbbe4d1 OP_EQUAL", "type": "scripthash"}, "value": 0.73866164, "n": 1}], "hex": "010000000001014c1b926edcc189614c114eb9d0d689c1a39c826b799fe9d41c7b88275d56753e01000000232200209e1b44ca0a86cd52b4ff5de4dfd4b4a2fa210028485bd1db62020e32d2cc7969ffffffff02166810000000000017a91489e979625699a54bc6be3a0c9d920f6e3853d0b987b41b67040000000017a914c0db4b5751b76fef728752d8687a447dffbbe4d1870400483045022100f1d8dc29f9568796ad956c8b1b5942e67b854fdd93bfee9e40802655935003110220771f0e56abc3d0993ac11b5e8c8e127ef1dcf676bdfdf42f225fb31cbf73d6c201473044022027bcb639b04e4825b20482aa6993e1f1ac31747c62d2e036b9e96f8c34dbd46502202af905364f7fd12a7560aee39196965e16659267b3724507721b0eb3b2adcd2501475221026014a6bee2e74cf4622fd4e89ca3cbb673183c1856a81e9670172c348288446f21038f2c7ecee34c843be9d886e50ce79e5dc40a1694c0417d60b35340f292ff73fc52ae00000000", "vin": [{"txinwitness": ["", "3045022100f1d8dc29f9568796ad956c8b1b5942e67b854fdd93bfee9e40802655935003110220771f0e56abc3d0993ac11b5e8c8e127ef1dcf676bdfdf42f225fb31cbf73d6c201", "3044022027bcb639b04e4825b20482aa6993e1f1ac31747c62d2e036b9e96f8c34dbd46502202af905364f7fd12a7560aee39196965e16659267b3724507721b0eb3b2adcd2501", "5221026014a6bee2e74cf4622fd4e89ca3cbb673183c1856a81e9670172c348288446f21038f2c7ecee34c843be9d886e50ce79e5dc40a1694c0417d60b35340f292ff73fc52ae"], "sequence": 4294967295, "scriptSig": {"hex": "2200209e1b44ca0a86cd52b4ff5de4dfd4b4a2fa210028485bd1db62020e32d2cc7969", "asm": "00209e1b44ca0a86cd52b4ff5de4dfd4b4a2fa210028485bd1db62020e32d2cc7969"}, "vout": 1, "txid": "3e75565d27887b1cd4e99f796b829ca3c189d6d0b94e114c6189c1dc6e921b4c"}], "txid": "67f1d8e2b2819da6512dcacd4a746df879477125f2cd5e26e05534d2bb2588be", "blocktime": 1537871767, "version": 1, "confirmations": 11495, "time": 1537871767, "locktime": 0, "vsize": 206, "size": 371}