{"hash": "67f512ea874a5fa76e1e147ffd639c5a5b95af698d54c80f43be0b03f4c14907", "blockhash": "0000000000000000000dcc0f55137456b1a82d3642486a52398922ac4d620174", "vout": [{"scriptPubKey": {"reqSigs": 1, "hex": "76a9148564dbec9c35dcc974ed0a611c5105f91761caba88ac", "addresses": ["1DAKhKrhgMY3ZRnzXo1HUF5193fWPX7Yd9"], "asm": "OP_DUP OP_HASH160 8564dbec9c35dcc974ed0a611c5105f91761caba OP_EQUALVERIFY OP_CHECKSIG", "type": "pubkeyhash"}, "value": 0.07783673, "n": 0}, {"scriptPubKey": {"reqSigs": 1, "hex": "a9143839f185a7d4ec48c9e0654bb1dc76247911b99987", "addresses": ["36pKBGTvxkrv34dxgLXbNsZHdvsnXEbuvv"], "asm": "OP_HASH160 3839f185a7d4ec48c9e0654bb1dc76247911b999 OP_EQUAL", "type": "scripthash"}, "value": 0.078, "n": 1}], "hex": "01000000017f05b9a6a315789fd4b48e3a8f9e429a081ab30e5c0c3ec958446d27af9debe4000000006a47304402202429b96a73c48c64e72875829e8cfb30feae8a784320e91dd2cbe263d6c132e802205c8875fd4abbfaeb109b85b0e85699a560eb0c514eea20f2b2c961f1d84a9377012103a1390444dd55a94d220df259e6594a7aee4f88b74096b619f6e1a4706f2d99c6ffffffff02f9c47600000000001976a9148564dbec9c35dcc974ed0a611c5105f91761caba88acc00477000000000017a9143839f185a7d4ec48c9e0654bb1dc76247911b9998700000000", "vin": [{"sequence": 4294967295, "scriptSig": {"hex": "47304402202429b96a73c48c64e72875829e8cfb30feae8a784320e91dd2cbe263d6c132e802205c8875fd4abbfaeb109b85b0e85699a560eb0c514eea20f2b2c961f1d84a9377012103a1390444dd55a94d220df259e6594a7aee4f88b74096b619f6e1a4706f2d99c6", "asm": "304402202429b96a73c48c64e72875829e8cfb30feae8a784320e91dd2cbe263d6c132e802205c8875fd4abbfaeb109b85b0e85699a560eb0c514eea20f2b2c961f1d84a9377[ALL] 03a1390444dd55a94d220df259e6594a7aee4f88b74096b619f6e1a4706f2d99c6"}, "vout": 0, "txid": "e4eb9daf276d4458c93e0c5c0eb31a089a429e8f3a8eb4d49f7815a3a6b9057f"}], "txid": "67f512ea874a5fa76e1e147ffd639c5a5b95af698d54c80f43be0b03f4c14907", "blocktime": 1537870268, "version": 1, "confirmations": 11518, "time": 1537870268, "locktime": 0, "vsize": 223, "size": 223}