{"hash": "67f57f607636636ad48000a2815bc27670a4d9226bbb5d310af16cadfce87c08", "blockhash": "000000000000000000022b45ed06c6f4ccd3cf7fb5ba4856ebd2e58215665228", "vout": [{"scriptPubKey": {"reqSigs": 1, "hex": "a914ff1d4e9cec4336eaa7233e61ee48ae289c14333387", "addresses": ["3QwwLkasJNCgpdmrho9DKrFz3CUM3XojXf"], "asm": "OP_HASH160 ff1d4e9cec4336eaa7233e61ee48ae289c143333 OP_EQUAL", "type": "scripthash"}, "value": 0.013279, "n": 0}, {"scriptPubKey": {"reqSigs": 1, "hex": "76a914dbe4e0ce0838e554b1dc90d8535016208d231d9988ac", "addresses": ["1M3hAk6k9htWtS72m6GAtWkJQcZh4Md4GK"], "asm": "OP_DUP OP_HASH160 dbe4e0ce0838e554b1dc90d8535016208d231d99 OP_EQUALVERIFY OP_CHECKSIG", "type": "pubkeyhash"}, "value": 0.03822093, "n": 1}], "hex": "01000000013d1435c05270e10a5ef345319dd5c7a2e4f623a2b2fd3c1dfd38e5107bba32d9010000006b4830450221009f1ddb2cefb02bf0ca6687c41009734da5576fb563b23d65cf84094a3eaf765d02206995884703a358a4495464e3082160a3efc33c3339c076f0c18efc4d1782fecf0121035d2c0197b892916cbc3ca4611ab662fa09894387bae9911d344cfa17d9465288ffffffff021c4314000000000017a914ff1d4e9cec4336eaa7233e61ee48ae289c143333870d523a00000000001976a914dbe4e0ce0838e554b1dc90d8535016208d231d9988ac00000000", "vin": [{"sequence": 4294967295, "scriptSig": {"hex": "4830450221009f1ddb2cefb02bf0ca6687c41009734da5576fb563b23d65cf84094a3eaf765d02206995884703a358a4495464e3082160a3efc33c3339c076f0c18efc4d1782fecf0121035d2c0197b892916cbc3ca4611ab662fa09894387bae9911d344cfa17d9465288", "asm": "30450221009f1ddb2cefb02bf0ca6687c41009734da5576fb563b23d65cf84094a3eaf765d02206995884703a358a4495464e3082160a3efc33c3339c076f0c18efc4d1782fecf[ALL] 035d2c0197b892916cbc3ca4611ab662fa09894387bae9911d344cfa17d9465288"}, "vout": 1, "txid": "d932ba7b10e538fd1d3cfdb2a223f6e4a2c7d59d3145f35e0ae17052c035143d"}], "txid": "67f57f607636636ad48000a2815bc27670a4d9226bbb5d310af16cadfce87c08", "blocktime": 1537869901, "version": 1, "confirmations": 11522, "time": 1537869901, "locktime": 0, "vsize": 224, "size": 224}