{"hash": "67f8fd9d2c336b71a767745580713a55a13c621db4366645d06f7548be36e47f", "blockhash": "000000000000000000022b45ed06c6f4ccd3cf7fb5ba4856ebd2e58215665228", "vout": [{"scriptPubKey": {"reqSigs": 1, "hex": "76a914378df39fe66205fa760291cbc2d0e73e1b6da25188ac", "addresses": ["164kDXSWVxAb3pscxLwfZ87oHsA1EkejHv"], "asm": "OP_DUP OP_HASH160 378df39fe66205fa760291cbc2d0e73e1b6da251 OP_EQUALVERIFY OP_CHECKSIG", "type": "pubkeyhash"}, "value": 0.00859597, "n": 0}, {"scriptPubKey": {"reqSigs": 1, "hex": "76a914aac8b250202ba39ecdfb286b1cac7da567305aa488ac", "addresses": ["1Ga2JFZ27HMGA8yksfnhdyWLWsMgHPvjJZ"], "asm": "OP_DUP OP_HASH160 aac8b250202ba39ecdfb286b1cac7da567305aa4 OP_EQUALVERIFY OP_CHECKSIG", "type": "pubkeyhash"}, "value": 0.00325747, "n": 1}], "hex": "0100000001be8d7d37fb56a9a175580d173df5841d01b5cd91defe16b15a25d3c05738a421010000006a47304402203d54068154b0ae0b05e941b9b456d5fec10b7edd24b032007294eff758cb6e1202205b9e66c72450675636f1cfb438fbe8e27db3384ac0dbbed23a16ca0ee3e99ba4012102ac7365504b722d23bb89cf187538275afe2c517b83e286c8f5a72733f2a65804ffffffff02cd1d0d00000000001976a914378df39fe66205fa760291cbc2d0e73e1b6da25188ac73f80400000000001976a914aac8b250202ba39ecdfb286b1cac7da567305aa488ac00000000", "vin": [{"sequence": 4294967295, "scriptSig": {"hex": "47304402203d54068154b0ae0b05e941b9b456d5fec10b7edd24b032007294eff758cb6e1202205b9e66c72450675636f1cfb438fbe8e27db3384ac0dbbed23a16ca0ee3e99ba4012102ac7365504b722d23bb89cf187538275afe2c517b83e286c8f5a72733f2a65804", "asm": "304402203d54068154b0ae0b05e941b9b456d5fec10b7edd24b032007294eff758cb6e1202205b9e66c72450675636f1cfb438fbe8e27db3384ac0dbbed23a16ca0ee3e99ba4[ALL] 02ac7365504b722d23bb89cf187538275afe2c517b83e286c8f5a72733f2a65804"}, "vout": 1, "txid": "21a43857c0d3255ab116fede91cdb5011d84f53d170d5875a1a956fb377d8dbe"}], "txid": "67f8fd9d2c336b71a767745580713a55a13c621db4366645d06f7548be36e47f", "blocktime": 1537869901, "version": 1, "confirmations": 11522, "time": 1537869901, "locktime": 0, "vsize": 225, "size": 225}