{"hash": "67f98a0a96ff467f5fd7d49c6acd8ef7ddcba84b6149a83fdb581c5b2e7b4992", "blockhash": "0000000000000000000e13cef7c366c0283d82e591d1acd082e914b08063cdf1", "vout": [{"scriptPubKey": {"reqSigs": 1, "hex": "a9140f29c55887aa1dbcb7397d34239724e372fd3bcf87", "addresses": ["335C6iJiYkZ5T1QaC3MuXgDfmgF2dcL2iS"], "asm": "OP_HASH160 0f29c55887aa1dbcb7397d34239724e372fd3bcf OP_EQUAL", "type": "scripthash"}, "value": 0.00152, "n": 0}, {"scriptPubKey": {"reqSigs": 1, "hex": "76a914f4980987786e661c1370344844f2da0f07aab16b88ac", "addresses": ["1PJJ1YDA56FFWkQKooXUPSFq5EyR9iS3Y9"], "asm": "OP_DUP OP_HASH160 f4980987786e661c1370344844f2da0f07aab16b OP_EQUALVERIFY OP_CHECKSIG", "type": "pubkeyhash"}, "value": 0.01331982, "n": 1}], "hex": "0100000001ef69a394a7b2355b50d5b473cb23c6be0f78528e617f51c3d4db655b92eb48fc000000006b483045022100ff8c6f7561ec93f5db5fab8816b9da4196c8fe4eb7b0ef604eeffa02ed36b376022056592760c7e9e93f2cf96fae5421b1f952a3a90f1e5f4ee1f80cfbaa080129790121027b479b2c5aacab24d93b67a8cf2378fd5c102b339f1c4027aa66fb2b2538da16ffffffff02c05102000000000017a9140f29c55887aa1dbcb7397d34239724e372fd3bcf870e531400000000001976a914f4980987786e661c1370344844f2da0f07aab16b88ac00000000", "vin": [{"sequence": 4294967295, "scriptSig": {"hex": "483045022100ff8c6f7561ec93f5db5fab8816b9da4196c8fe4eb7b0ef604eeffa02ed36b376022056592760c7e9e93f2cf96fae5421b1f952a3a90f1e5f4ee1f80cfbaa080129790121027b479b2c5aacab24d93b67a8cf2378fd5c102b339f1c4027aa66fb2b2538da16", "asm": "3045022100ff8c6f7561ec93f5db5fab8816b9da4196c8fe4eb7b0ef604eeffa02ed36b376022056592760c7e9e93f2cf96fae5421b1f952a3a90f1e5f4ee1f80cfbaa08012979[ALL] 027b479b2c5aacab24d93b67a8cf2378fd5c102b339f1c4027aa66fb2b2538da16"}, "vout": 0, "txid": "fc48eb925b65dbd4c3517f618e52780fbec623cb73b4d5505b35b2a794a369ef"}], "txid": "67f98a0a96ff467f5fd7d49c6acd8ef7ddcba84b6149a83fdb581c5b2e7b4992", "blocktime": 1537871767, "version": 1, "confirmations": 11493, "time": 1537871767, "locktime": 0, "vsize": 224, "size": 224}