{"hash": "67fb96fe6bf9e2997aeceb77768f6cbe857e2acc7f90e207789e56b70cc1e572", "blockhash": "0000000000000000000e13cef7c366c0283d82e591d1acd082e914b08063cdf1", "vout": [{"scriptPubKey": {"reqSigs": 1, "hex": "a9145ea0d94646888bc2021cd2fafecafe93fb7a74fd87", "addresses": ["3AKN8YMXhhVUwp4GAbFat2X9njBGCysxMT"], "asm": "OP_HASH160 5ea0d94646888bc2021cd2fafecafe93fb7a74fd OP_EQUAL", "type": "scripthash"}, "value": 0.00453091, "n": 0}], "hex": "01000000093a19e813e052561c5863e1297d77118f7fd5624ddfac9a76a06caa3e3b332137000000006a47304402201f241e741a04f9b81cdf802c5353fd6ffd0ed5a0955090e62542332e6af0e7030220233a4b6501a6deee8bd824c80d57a1700e5a176a9eba014a7d1fb8110b9f7a40012102a678e8ba2669d44c40e5c795796fcc6767c64329cb98d30759086fc41fadcad6ffffffff3f463be44edece79405af4b774c7556eb7ba093e68132687d896a9eb92d4d949000000006b483045022100db51133f7fad4dd1dd8bce079227019c5a9d621d86234e639403cc5ea71cdb2802205f131e29d46ce0735594764ef2558e134b41d5081fa904785f0b81c3997f92b3012102e881d1861c86d631e96cace52f650c5c66e09ade3d98562f7e448d1b1af0d4e9ffffffffeb6d1128b71955f3c708ed03c77bf77e83edc9590bf1ab91be0e809f08f458aa000000006b483045022100eec7ebcadf0f4b1a7dab8604040be20489e27b78ef5d6e410421d4827c6a8af102205ec47a146a1ad7bc4c845e7b48d337d1369445897cd58e121d828194bc50d4fc0121025708b7ae6bd5b4041ad58a69d9de4c52961a5970dd22903e32ef35c86aad9675ffffffffd7951a10cc43d363d1a8e10092ab67c77e95254c97f7eb2f7fc17abf60b646ad000000006a47304402204b8c82fc8ad410a44f77e040f86555dfe904865444cbad1066ba12a52987920102207f097b788d53899da0422015b4041d6c7025a5b009bda2ac7af55c9f5326b253012102a678e8ba2669d44c40e5c795796fcc6767c64329cb98d30759086fc41fadcad6ffffffffe5a53f8675f62cc869cc88052b827b06e009e51d10a0238171b356e3b820d0b8000000006a4730440220230656cb3c9281b319ee167dafae2ec3ac0c1a90373b37d033d1e573551c89cb022054cfebd6c5ec407e4d7ac08f04966b6724d5a550d2f152119278606dfbeda4b70121038a51aff0d8d32406fb4956d8c7e68149c688035e18b7322f9771e6569b0a50a2ffffffff9bab8ccd2ca5656c8d2d551a5557e1ba0ecad95092a0b849d8a274fb8b5067cd000000006b483045022100c2d762ce8191d2775a4e076fec4490bbc8cf9f31ae090b88caaae1489b53a84302204c04abbfc53c2bc8ef4ee98bacc830982be97ef1b7da791a5990cfda2a550de5012102a678e8ba2669d44c40e5c795796fcc6767c64329cb98d30759086fc41fadcad6ffffffff5c5be6a7f3cec93c869447518853de6ddbed44197b0a1d0abc7bcef2c24a91cd000000006a47304402201a0a13ff0be3184ac329223b672bd7b22b4ca7c497029957adf192820e89e96f02201658ed95076039d1e4b9ee5ee1a4158d6b32fbf024a500b66d1244321a685ec9012102a678e8ba2669d44c40e5c795796fcc6767c64329cb98d30759086fc41fadcad6ffffffffcc2ec6d006093818c774128857471d665048426c5f1fc7c9912ccdfd6f4f28e7000000006b483045022100dd7facc8d660a71e17d1d19b48afa4077f5bda596614b7aa73a500e90e112860022057489ba49e7fd348ebf9465fde46c54943044027b30dfc08e368c1a84aeaa477012102846d5a90e171dc39e4f48087268d7f8fd375254fb0a8b0132fefbef366396274ffffffffc622eb24ad55d7ffe0b33c52b03d0954c96235365554d21fbabaa0aa7efe97f0000000006b483045022100805967f1e7b25602a4bad580f81cdec37746f0ef3ff5342215ae1b32ada8d0420220277a47c52068b7d88378e70ae33036240b27d29ba098cece29f2e03f371256ac01210393f0ca70a5425908dfe44e8384e075157245e187b91076863b0f17957cda7361ffffffff01e3e906000000000017a9145ea0d94646888bc2021cd2fafecafe93fb7a74fd8700000000", "vin": [{"sequence": 4294967295, "scriptSig": {"hex": "47304402201f241e741a04f9b81cdf802c5353fd6ffd0ed5a0955090e62542332e6af0e7030220233a4b6501a6deee8bd824c80d57a1700e5a176a9eba014a7d1fb8110b9f7a40012102a678e8ba2669d44c40e5c795796fcc6767c64329cb98d30759086fc41fadcad6", "asm": "304402201f241e741a04f9b81cdf802c5353fd6ffd0ed5a0955090e62542332e6af0e7030220233a4b6501a6deee8bd824c80d57a1700e5a176a9eba014a7d1fb8110b9f7a40[ALL] 02a678e8ba2669d44c40e5c795796fcc6767c64329cb98d30759086fc41fadcad6"}, "vout": 0, "txid": "3721333b3eaa6ca0769aacdf4d62d57f8f11777d29e163581c5652e013e8193a"}, {"sequence": 4294967295, "scriptSig": {"hex": "483045022100db51133f7fad4dd1dd8bce079227019c5a9d621d86234e639403cc5ea71cdb2802205f131e29d46ce0735594764ef2558e134b41d5081fa904785f0b81c3997f92b3012102e881d1861c86d631e96cace52f650c5c66e09ade3d98562f7e448d1b1af0d4e9", "asm": "3045022100db51133f7fad4dd1dd8bce079227019c5a9d621d86234e639403cc5ea71cdb2802205f131e29d46ce0735594764ef2558e134b41d5081fa904785f0b81c3997f92b3[ALL] 02e881d1861c86d631e96cace52f650c5c66e09ade3d98562f7e448d1b1af0d4e9"}, "vout": 0, "txid": "49d9d492eba996d8872613683e09bab76e55c774b7f45a4079cede4ee43b463f"}, {"sequence": 4294967295, "scriptSig": {"hex": "483045022100eec7ebcadf0f4b1a7dab8604040be20489e27b78ef5d6e410421d4827c6a8af102205ec47a146a1ad7bc4c845e7b48d337d1369445897cd58e121d828194bc50d4fc0121025708b7ae6bd5b4041ad58a69d9de4c52961a5970dd22903e32ef35c86aad9675", "asm": "3045022100eec7ebcadf0f4b1a7dab8604040be20489e27b78ef5d6e410421d4827c6a8af102205ec47a146a1ad7bc4c845e7b48d337d1369445897cd58e121d828194bc50d4fc[ALL] 025708b7ae6bd5b4041ad58a69d9de4c52961a5970dd22903e32ef35c86aad9675"}, "vout": 0, "txid": "aa58f4089f800ebe91abf10b59c9ed837ef77bc703ed08c7f35519b728116deb"}, {"sequence": 4294967295, "scriptSig": {"hex": "47304402204b8c82fc8ad410a44f77e040f86555dfe904865444cbad1066ba12a52987920102207f097b788d53899da0422015b4041d6c7025a5b009bda2ac7af55c9f5326b253012102a678e8ba2669d44c40e5c795796fcc6767c64329cb98d30759086fc41fadcad6", "asm": "304402204b8c82fc8ad410a44f77e040f86555dfe904865444cbad1066ba12a52987920102207f097b788d53899da0422015b4041d6c7025a5b009bda2ac7af55c9f5326b253[ALL] 02a678e8ba2669d44c40e5c795796fcc6767c64329cb98d30759086fc41fadcad6"}, "vout": 0, "txid": "ad46b660bf7ac17f2febf7974c25957ec767ab9200e1a8d163d343cc101a95d7"}, {"sequence": 4294967295, "scriptSig": {"hex": "4730440220230656cb3c9281b319ee167dafae2ec3ac0c1a90373b37d033d1e573551c89cb022054cfebd6c5ec407e4d7ac08f04966b6724d5a550d2f152119278606dfbeda4b70121038a51aff0d8d32406fb4956d8c7e68149c688035e18b7322f9771e6569b0a50a2", "asm": "30440220230656cb3c9281b319ee167dafae2ec3ac0c1a90373b37d033d1e573551c89cb022054cfebd6c5ec407e4d7ac08f04966b6724d5a550d2f152119278606dfbeda4b7[ALL] 038a51aff0d8d32406fb4956d8c7e68149c688035e18b7322f9771e6569b0a50a2"}, "vout": 0, "txid": "b8d020b8e356b3718123a0101de509e0067b822b0588cc69c82cf675863fa5e5"}, {"sequence": 4294967295, "scriptSig": {"hex": "483045022100c2d762ce8191d2775a4e076fec4490bbc8cf9f31ae090b88caaae1489b53a84302204c04abbfc53c2bc8ef4ee98bacc830982be97ef1b7da791a5990cfda2a550de5012102a678e8ba2669d44c40e5c795796fcc6767c64329cb98d30759086fc41fadcad6", "asm": "3045022100c2d762ce8191d2775a4e076fec4490bbc8cf9f31ae090b88caaae1489b53a84302204c04abbfc53c2bc8ef4ee98bacc830982be97ef1b7da791a5990cfda2a550de5[ALL] 02a678e8ba2669d44c40e5c795796fcc6767c64329cb98d30759086fc41fadcad6"}, "vout": 0, "txid": "cd67508bfb74a2d849b8a09250d9ca0ebae157551a552d8d6c65a52ccd8cab9b"}, {"sequence": 4294967295, "scriptSig": {"hex": "47304402201a0a13ff0be3184ac329223b672bd7b22b4ca7c497029957adf192820e89e96f02201658ed95076039d1e4b9ee5ee1a4158d6b32fbf024a500b66d1244321a685ec9012102a678e8ba2669d44c40e5c795796fcc6767c64329cb98d30759086fc41fadcad6", "asm": "304402201a0a13ff0be3184ac329223b672bd7b22b4ca7c497029957adf192820e89e96f02201658ed95076039d1e4b9ee5ee1a4158d6b32fbf024a500b66d1244321a685ec9[ALL] 02a678e8ba2669d44c40e5c795796fcc6767c64329cb98d30759086fc41fadcad6"}, "vout": 0, "txid": "cd914ac2f2ce7bbc0a1d0a7b1944eddb6dde5388514794863cc9cef3a7e65b5c"}, {"sequence": 4294967295, "scriptSig": {"hex": "483045022100dd7facc8d660a71e17d1d19b48afa4077f5bda596614b7aa73a500e90e112860022057489ba49e7fd348ebf9465fde46c54943044027b30dfc08e368c1a84aeaa477012102846d5a90e171dc39e4f48087268d7f8fd375254fb0a8b0132fefbef366396274", "asm": "3045022100dd7facc8d660a71e17d1d19b48afa4077f5bda596614b7aa73a500e90e112860022057489ba49e7fd348ebf9465fde46c54943044027b30dfc08e368c1a84aeaa477[ALL] 02846d5a90e171dc39e4f48087268d7f8fd375254fb0a8b0132fefbef366396274"}, "vout": 0, "txid": "e7284f6ffdcd2c91c9c71f5f6c424850661d4757881274c718380906d0c62ecc"}, {"sequence": 4294967295, "scriptSig": {"hex": "483045022100805967f1e7b25602a4bad580f81cdec37746f0ef3ff5342215ae1b32ada8d0420220277a47c52068b7d88378e70ae33036240b27d29ba098cece29f2e03f371256ac01210393f0ca70a5425908dfe44e8384e075157245e187b91076863b0f17957cda7361", "asm": "3045022100805967f1e7b25602a4bad580f81cdec37746f0ef3ff5342215ae1b32ada8d0420220277a47c52068b7d88378e70ae33036240b27d29ba098cece29f2e03f371256ac[ALL] 0393f0ca70a5425908dfe44e8384e075157245e187b91076863b0f17957cda7361"}, "vout": 0, "txid": "f097fe7eaaa0baba1fd25455363562c954093db0523cb3e0ffd755ad24eb22c6"}], "txid": "67fb96fe6bf9e2997aeceb77768f6cbe857e2acc7f90e207789e56b70cc1e572", "blocktime": 1537871767, "version": 1, "confirmations": 11495, "time": 1537871767, "locktime": 0, "vsize": 1370, "size": 1370}