{"hash": "89edf931989f8d45caaa3bbc52f41f2c8ab3155ab4eee7c339e0294c11413115", "blockhash": "0000000000000000000e13cef7c366c0283d82e591d1acd082e914b08063cdf1", "vout": [{"scriptPubKey": {"reqSigs": 1, "hex": "76a914d3f5134df89c31368003a910c87c7e7b9ed8e1f788ac", "addresses": ["1LKjAccuypppc21CpFXvT7nSX3CUrbpo2a"], "asm": "OP_DUP OP_HASH160 d3f5134df89c31368003a910c87c7e7b9ed8e1f7 OP_EQUALVERIFY OP_CHECKSIG", "type": "pubkeyhash"}, "value": 0.00711, "n": 0}, {"scriptPubKey": {"reqSigs": 1, "hex": "76a9147e5564f24d5f0e087b670794236c9db3d265f18388ac", "addresses": ["1CWzSUPM3Et13ioCWHyjjU4oVx8AbYHhUR"], "asm": "OP_DUP OP_HASH160 7e5564f24d5f0e087b670794236c9db3d265f183 OP_EQUALVERIFY OP_CHECKSIG", "type": "pubkeyhash"}, "value": 0.11, "n": 1}, {"scriptPubKey": {"reqSigs": 1, "hex": "a914ea645e5e20987adfaa9d5fa4a915d008965f102387", "addresses": ["3P4NHAbib3uvj6QNYmPWqEJMZnx4HzszTp"], "asm": "OP_HASH160 ea645e5e20987adfaa9d5fa4a915d008965f1023 OP_EQUAL", "type": "scripthash"}, "value": 0.01005198, "n": 2}], "hex": "0200000000010b809d4306e258dc26ea7724679c082ef3e68e5b30929ca52fcf3a7ab6cfc21a2f1000000017160014c08cb752cd68591fe3be12461546daf516f59089ffffffffc5c216e270ec478d240673d6640cdad2478ce19ae28c891f773826b1de1795c5000000001716001406c3223aeaf03d505b352e3565b58e315bb84ef3ffffffff3cdc071aed2b7465d745ab10208fc946902723b7333727e9c3c8a0cb948299a403000000171600142632219591f5e92075d986905410b13474e5398effffffffc5e7d239ea1a4bd3d0e355383c37c63e61eefc6884acc11bc14298818bd470790a00000017160014942dc59761ade62541ab5205e72f529388f83ae9ffffffff9357e6f57aaccd8a6d14c66be35310185dec62050ecdb86ce8a06144be3647440000000017160014f59155afdfa35243a2d97b58c3dece73208f5273ffffffff46f4a9f5b314dc7dd402d57b69c35e511f91727ab2e3bd538d018a15ad18037b000000001716001433244cc679707c2bf13e656283843cc8d13bb1c1ffffffff8d00801f13b813a4879761ed82e1e90d6fad9ad2573e6fba594d1e64dc8a5c340000000017160014d17a7004de8725f3065a259688192c51b130bae3ffffffffc5e7d239ea1a4bd3d0e355383c37c63e61eefc6884acc11bc14298818bd470790800000017160014860a638488a4cfca7f4f42228df55ab8990b916effffffffba2a0ab3731f6df480df94c36d391dec31518aa9a3ad99f2c8b4593c8951d99701000000171600142767162ab05c0b31357c7723c3b984f16c313c8cffffffffce8d34b1236978fae91dd1ff1295145df89c8674672181a70a30e2bc32264ce904000000171600144f0ee35323eea26c6233d721311e06f8c0c1200fffffffff66b59140a9c683683094a5b27a43cbec611ae88e91fe3a8bd186a56f604e47781800000017160014a70aa2fa7dd7dd3b0e33eedd3db8ee92f08dacebffffffff0358d90a00000000001976a914d3f5134df89c31368003a910c87c7e7b9ed8e1f788acc0d8a700000000001976a9147e5564f24d5f0e087b670794236c9db3d265f18388ac8e560f000000000017a914ea645e5e20987adfaa9d5fa4a915d008965f1023870247304402204fdbf0cdf1a70d81816235662a69e27f062efa86ff7ce87e5ce138f8ac59dfb402200ec7f1378d2665b8fc803b33634a35424e1a0faa2122eebae0c1d3f0f1b676970121030964fc96b8c9d354ad577aff414804fca46b2a7cd800ff9246218f0a45764b1202473044022037f841654eb57d1435e25d2d2eb742f63b61985a17926c66bdea0396b635f5d70220436bea4be8ca2b3fc58a12891ce8b438f10fd6f95097cc711a4625ae61957ae50121031f179c8dfc692882df8f41728350dfeac59afc88cf3ed347356fbdfb4449787802473044022039b83f2c7d00b7e1895dbfd4dba6e99b3bb91595a731bfc59ce4a1668965e73302203edf22075e8e65e74fbf0ef9034fee245fe3f14a217d97c796bf0bea7ca75d48012102024924497e29e7ccfb2283f8d959f53898ec28ee8c36d734b0deb61e13a2416f02483045022100c0de033394e1851edbeeb1a6e1d8f06bb67bf0629749f66839c478188eac691c0220542319c48df52076f85f33671a0b54e4ca80397ee1a84912a1ea78dc4c2e66c4012103d46a77749627b141c557ffd8757908285cfe0e17fe701f5eb5c13eb1873eb286024830450221008eee0c3133c0f09c5dcafd92816dec5c73d67f8f0991e4b39970496e1675df87022030f1564592478cbab43b68e8cf94c284925afa9619c96f3d7b5509831f8d75b4012102f61dbc6f0fa567a1e46bc0224bc9a36a2c6f67ed5cce4ee5ee6b2b13647f600802473044022054906313cbf58ceff64d7496022ff496b7b344d4e1effce6787e89efc7a104ab0220565b0f9add5c287ba8cce6988cff1c83bed26960590d71f7bff874758d1f414d0121032af2a465a3a437eb77ea9c729b7a077cd2f3dc73394252bcaec919872cf0aab20247304402205d389ad94efe3042c82614e940dc2487c73a8c74cc347b9c9de648ae46ae7cdd022072bef451a63b63c988883352861d30c7273b77ac23fc9524ee96c02036d918850121039c7a896a6e2438bd50c5299f92087160412d96ec2f746febae657ba08041f11102483045022100e738c04783b7357ddbcdeb8f68400076ad42bd4947f04d6702ce73340a6b43c302200d047724b5149f7fab0f36be8504b5c7a7b48595a06e01957d8ce9a5d41bfb37012103f46f7e0d23767f185e0aec8e38109b07c4a8719db44ea7b0d51d7e3e8c48df6d02483045022100c2dc19807c226f7610dfdc2b53d03f6b13b2a72bd3008d75b4b758624e14756b02201719e9777e21bd253e979b083cff2685dfc31c548e012118fe4b366b5b6e23c001210292a5db6b22543b58a29942c318fcd206fb3492d3c303fc233b4908ab0a96811502473044022036388bd433939ab13a509ad2578bf69b711a7badbc2ae4ba86a1d8919ee9f75202202ac97ef73007fa72b1d94fccc8145c6c95eedaeb52d26c9be0fe03422a81ed2a0121036fb6c77d5623d307e872517f4f2a3023dadc7fda8e8a1b9cb35c47de9bf8281e0247304402207fd73bfe5dbf00d4bf158407814d05d0d5d302a988a65eaa039d8c568c16ec4b022008ecce56f198bacbf3a205ee92d7b5868fb4ec45757fac51b5a192866535de490121034790934dbb26c53e5a8cdb4b24a6f5a6280faf01035a6a88d58709b952ffa85600000000", "vin": [{"txinwitness": ["304402204fdbf0cdf1a70d81816235662a69e27f062efa86ff7ce87e5ce138f8ac59dfb402200ec7f1378d2665b8fc803b33634a35424e1a0faa2122eebae0c1d3f0f1b6769701", "030964fc96b8c9d354ad577aff414804fca46b2a7cd800ff9246218f0a45764b12"], "sequence": 4294967295, "scriptSig": {"hex": "160014c08cb752cd68591fe3be12461546daf516f59089", "asm": "0014c08cb752cd68591fe3be12461546daf516f59089"}, "vout": 16, "txid": "2f1ac2cfb67a3acf2fa59c92305b8ee6f32e089c672477ea26dc58e206439d80"}, {"txinwitness": ["3044022037f841654eb57d1435e25d2d2eb742f63b61985a17926c66bdea0396b635f5d70220436bea4be8ca2b3fc58a12891ce8b438f10fd6f95097cc711a4625ae61957ae501", "031f179c8dfc692882df8f41728350dfeac59afc88cf3ed347356fbdfb44497878"], "sequence": 4294967295, "scriptSig": {"hex": "16001406c3223aeaf03d505b352e3565b58e315bb84ef3", "asm": "001406c3223aeaf03d505b352e3565b58e315bb84ef3"}, "vout": 0, "txid": "c59517deb12638771f898ce29ae18c47d2da0c64d67306248d47ec70e216c2c5"}, {"txinwitness": ["3044022039b83f2c7d00b7e1895dbfd4dba6e99b3bb91595a731bfc59ce4a1668965e73302203edf22075e8e65e74fbf0ef9034fee245fe3f14a217d97c796bf0bea7ca75d4801", "02024924497e29e7ccfb2283f8d959f53898ec28ee8c36d734b0deb61e13a2416f"], "sequence": 4294967295, "scriptSig": {"hex": "1600142632219591f5e92075d986905410b13474e5398e", "asm": "00142632219591f5e92075d986905410b13474e5398e"}, "vout": 3, "txid": "a4998294cba0c8c3e9273733b723279046c98f2010ab45d765742bed1a07dc3c"}, {"txinwitness": ["3045022100c0de033394e1851edbeeb1a6e1d8f06bb67bf0629749f66839c478188eac691c0220542319c48df52076f85f33671a0b54e4ca80397ee1a84912a1ea78dc4c2e66c401", "03d46a77749627b141c557ffd8757908285cfe0e17fe701f5eb5c13eb1873eb286"], "sequence": 4294967295, "scriptSig": {"hex": "160014942dc59761ade62541ab5205e72f529388f83ae9", "asm": "0014942dc59761ade62541ab5205e72f529388f83ae9"}, "vout": 10, "txid": "7970d48b819842c11bc1ac8468fcee613ec6373c3855e3d0d34b1aea39d2e7c5"}, {"txinwitness": ["30450221008eee0c3133c0f09c5dcafd92816dec5c73d67f8f0991e4b39970496e1675df87022030f1564592478cbab43b68e8cf94c284925afa9619c96f3d7b5509831f8d75b401", "02f61dbc6f0fa567a1e46bc0224bc9a36a2c6f67ed5cce4ee5ee6b2b13647f6008"], "sequence": 4294967295, "scriptSig": {"hex": "160014f59155afdfa35243a2d97b58c3dece73208f5273", "asm": "0014f59155afdfa35243a2d97b58c3dece73208f5273"}, "vout": 0, "txid": "444736be4461a0e86cb8cd0e0562ec5d181053e36bc6146d8acdac7af5e65793"}, {"txinwitness": ["3044022054906313cbf58ceff64d7496022ff496b7b344d4e1effce6787e89efc7a104ab0220565b0f9add5c287ba8cce6988cff1c83bed26960590d71f7bff874758d1f414d01", "032af2a465a3a437eb77ea9c729b7a077cd2f3dc73394252bcaec919872cf0aab2"], "sequence": 4294967295, "scriptSig": {"hex": "16001433244cc679707c2bf13e656283843cc8d13bb1c1", "asm": "001433244cc679707c2bf13e656283843cc8d13bb1c1"}, "vout": 0, "txid": "7b0318ad158a018d53bde3b27a72911f515ec3697bd502d47ddc14b3f5a9f446"}, {"txinwitness": ["304402205d389ad94efe3042c82614e940dc2487c73a8c74cc347b9c9de648ae46ae7cdd022072bef451a63b63c988883352861d30c7273b77ac23fc9524ee96c02036d9188501", "039c7a896a6e2438bd50c5299f92087160412d96ec2f746febae657ba08041f111"], "sequence": 4294967295, "scriptSig": {"hex": "160014d17a7004de8725f3065a259688192c51b130bae3", "asm": "0014d17a7004de8725f3065a259688192c51b130bae3"}, "vout": 0, "txid": "345c8adc641e4d59ba6f3e57d29aad6f0de9e182ed619787a413b8131f80008d"}, {"txinwitness": ["3045022100e738c04783b7357ddbcdeb8f68400076ad42bd4947f04d6702ce73340a6b43c302200d047724b5149f7fab0f36be8504b5c7a7b48595a06e01957d8ce9a5d41bfb3701", "03f46f7e0d23767f185e0aec8e38109b07c4a8719db44ea7b0d51d7e3e8c48df6d"], "sequence": 4294967295, "scriptSig": {"hex": "160014860a638488a4cfca7f4f42228df55ab8990b916e", "asm": "0014860a638488a4cfca7f4f42228df55ab8990b916e"}, "vout": 8, "txid": "7970d48b819842c11bc1ac8468fcee613ec6373c3855e3d0d34b1aea39d2e7c5"}, {"txinwitness": ["3045022100c2dc19807c226f7610dfdc2b53d03f6b13b2a72bd3008d75b4b758624e14756b02201719e9777e21bd253e979b083cff2685dfc31c548e012118fe4b366b5b6e23c001", "0292a5db6b22543b58a29942c318fcd206fb3492d3c303fc233b4908ab0a968115"], "sequence": 4294967295, "scriptSig": {"hex": "1600142767162ab05c0b31357c7723c3b984f16c313c8c", "asm": "00142767162ab05c0b31357c7723c3b984f16c313c8c"}, "vout": 1, "txid": "97d951893c59b4c8f299ada3a98a5131ec1d396dc394df80f46d1f73b30a2aba"}, {"txinwitness": ["3044022036388bd433939ab13a509ad2578bf69b711a7badbc2ae4ba86a1d8919ee9f75202202ac97ef73007fa72b1d94fccc8145c6c95eedaeb52d26c9be0fe03422a81ed2a01", "036fb6c77d5623d307e872517f4f2a3023dadc7fda8e8a1b9cb35c47de9bf8281e"], "sequence": 4294967295, "scriptSig": {"hex": "1600144f0ee35323eea26c6233d721311e06f8c0c1200f", "asm": "00144f0ee35323eea26c6233d721311e06f8c0c1200f"}, "vout": 4, "txid": "e94c2632bce2300aa781216774869cf85d149512ffd11de9fa786923b1348dce"}, {"txinwitness": ["304402207fd73bfe5dbf00d4bf158407814d05d0d5d302a988a65eaa039d8c568c16ec4b022008ecce56f198bacbf3a205ee92d7b5868fb4ec45757fac51b5a192866535de4901", "034790934dbb26c53e5a8cdb4b24a6f5a6280faf01035a6a88d58709b952ffa856"], "sequence": 4294967295, "scriptSig": {"hex": "160014a70aa2fa7dd7dd3b0e33eedd3db8ee92f08daceb", "asm": "0014a70aa2fa7dd7dd3b0e33eedd3db8ee92f08daceb"}, "vout": 24, "txid": "78474e606fa586d18b3afe918ee81a61eccb437ab2a594306883c6a94091b566"}], "txid": "67fc7df28636a1888a84bdec0fc6e3b362a322bdb06b4a06a4b2b2645186a92b", "blocktime": 1537871767, "version": 2, "confirmations": 11495, "time": 1537871767, "locktime": 0, "vsize": 1110, "size": 1997}