{"hash": "67fc251fac5c7f730ed6e550a24157365e828171c509da014d11e75bcbbf1c49", "blockhash": "0000000000000000000e13cef7c366c0283d82e591d1acd082e914b08063cdf1", "vout": [{"scriptPubKey": {"reqSigs": 1, "hex": "a9147af97726be76f7ca353c6b88833ef2fa8db3f8ba87", "addresses": ["3CuFD7J8A9jBiYdpyZutSZng337pVmSedH"], "asm": "OP_HASH160 7af97726be76f7ca353c6b88833ef2fa8db3f8ba OP_EQUAL", "type": "scripthash"}, "value": 0.055, "n": 0}, {"scriptPubKey": {"reqSigs": 1, "hex": "76a914b7888cc82fdecaf88856880550ac43fe948b8cae88ac", "addresses": ["1HjSEm71Kqt31Va9JhJk2SvztwotZkQJFN"], "asm": "OP_DUP OP_HASH160 b7888cc82fdecaf88856880550ac43fe948b8cae OP_EQUALVERIFY OP_CHECKSIG", "type": "pubkeyhash"}, "value": 0.04525075, "n": 1}], "hex": "0200000001b149a5d20847a7cb8ff31585da8e52b161c866113dbf754263bd870b8a84511e010000006a47304402206850ef148bc662600d82a3d4e29db4154cee5d6258b5c4f57109b23338edac5102201935a3ea2850a88347f768a7b4689a7883ed607708b06dc9e92a95e2106d035b012103f64d18070174a7d64ec0b63a2cf11fcf39cd553907cc09a47a94df2f3b817aecffffffff0260ec53000000000017a9147af97726be76f7ca353c6b88833ef2fa8db3f8ba87130c4500000000001976a914b7888cc82fdecaf88856880550ac43fe948b8cae88ac00000000", "vin": [{"sequence": 4294967295, "scriptSig": {"hex": "47304402206850ef148bc662600d82a3d4e29db4154cee5d6258b5c4f57109b23338edac5102201935a3ea2850a88347f768a7b4689a7883ed607708b06dc9e92a95e2106d035b012103f64d18070174a7d64ec0b63a2cf11fcf39cd553907cc09a47a94df2f3b817aec", "asm": "304402206850ef148bc662600d82a3d4e29db4154cee5d6258b5c4f57109b23338edac5102201935a3ea2850a88347f768a7b4689a7883ed607708b06dc9e92a95e2106d035b[ALL] 03f64d18070174a7d64ec0b63a2cf11fcf39cd553907cc09a47a94df2f3b817aec"}, "vout": 1, "txid": "1e51848a0b87bd634275bf3d1166c861b1528eda8515f38fcba74708d2a549b1"}], "txid": "67fc251fac5c7f730ed6e550a24157365e828171c509da014d11e75bcbbf1c49", "blocktime": 1537871767, "version": 2, "confirmations": 11490, "time": 1537871767, "locktime": 0, "vsize": 223, "size": 223}