{"hash": "54ce32a14794495a163c47e6b1c89e62d448a83ccd321393422dd53f961b4300", "blockhash": "0000000000000000001cda96e906b7601b7a6fb1a3b62bca570a9e5d8f4b3de1", "vout": [{"scriptPubKey": {"reqSigs": 1, "hex": "76a914eb3257daa592b3f5165eb06509ca4f9f3829e8ae88ac", "addresses": ["1NSc6zAdG2NGbjPLQwAjAuqjHSoq5KECT7"], "asm": "OP_DUP OP_HASH160 eb3257daa592b3f5165eb06509ca4f9f3829e8ae OP_EQUALVERIFY OP_CHECKSIG", "type": "pubkeyhash"}, "value": 1.99, "n": 0}, {"scriptPubKey": {"reqSigs": 1, "hex": "a9144319a2c9881206d8faa908bbe438f58723ae3d5387", "addresses": ["37ooucHEd3N4zMQtzzKYNmyNiDvamofsYA"], "asm": "OP_HASH160 4319a2c9881206d8faa908bbe438f58723ae3d53 OP_EQUAL", "type": "scripthash"}, "value": 0.0108805, "n": 1}], "hex": "0200000000010294c447c90f9b85573990ca2a52d09ed2abacfcf975f49276b2f31bf03c0788da000000001716001407791a448c02d7d5e1d86d1beae75bafb55ec517feffffffe723a295e33d3d81d6a280a2f06eff89d422457d4314a0c3747232a451197eda010000006a473044022070d815d9cfa91e7f05a5c60b150d75c0e09ac2a2353ff774d7fd4f251aa4ae6102207770396c01ffe0f83301a3a96c6a35285d5b5c743e5bc21ce5c180a259c1cb040121030ccb5a35c5245927d49f69570cb664d5e5fea11f255ef4ca15eb10a585fbeebffeffffff02c07fdc0b000000001976a914eb3257daa592b3f5165eb06509ca4f9f3829e8ae88ac329a10000000000017a9144319a2c9881206d8faa908bbe438f58723ae3d538702483045022100939ad18eb07d4f4ea2b04aed932897d99fce976fecfcbe25953eec29d623f058022042719215160959e6308d08a3d2989909fa8680a5236d77e3c597c8a8fc8830a401210363630f2ce3ea8ffa17837faf3914bf54598f1afa7a12d01be77aa58b55d08dbd0013490800", "vin": [{"txinwitness": ["3045022100939ad18eb07d4f4ea2b04aed932897d99fce976fecfcbe25953eec29d623f058022042719215160959e6308d08a3d2989909fa8680a5236d77e3c597c8a8fc8830a401", "0363630f2ce3ea8ffa17837faf3914bf54598f1afa7a12d01be77aa58b55d08dbd"], "sequence": 4294967294, "scriptSig": {"hex": "16001407791a448c02d7d5e1d86d1beae75bafb55ec517", "asm": "001407791a448c02d7d5e1d86d1beae75bafb55ec517"}, "vout": 0, "txid": "da88073cf01bf3b27692f475f9fcacabd29ed0522aca903957859b0fc947c494"}, {"sequence": 4294967294, "scriptSig": {"hex": "473044022070d815d9cfa91e7f05a5c60b150d75c0e09ac2a2353ff774d7fd4f251aa4ae6102207770396c01ffe0f83301a3a96c6a35285d5b5c743e5bc21ce5c180a259c1cb040121030ccb5a35c5245927d49f69570cb664d5e5fea11f255ef4ca15eb10a585fbeebf", "asm": "3044022070d815d9cfa91e7f05a5c60b150d75c0e09ac2a2353ff774d7fd4f251aa4ae6102207770396c01ffe0f83301a3a96c6a35285d5b5c743e5bc21ce5c180a259c1cb04[ALL] 030ccb5a35c5245927d49f69570cb664d5e5fea11f255ef4ca15eb10a585fbeebf"}, "vout": 1, "txid": "da7e1951a4327274c3a014437d4522d489ff6ef0a280a2d6813d3de395a223e7"}], "txid": "6806ac8199c5d61e030e8b0df92fe8f8372d2d85528fb061161303fb36549a0b", "blocktime": 1537873282, "version": 2, "confirmations": 11480, "time": 1537873282, "locktime": 542995, "vsize": 315, "size": 398}