{"hash": "14a63d295055310266c8dd9f180f4866c822fd05d21a42ca0f55df141a12ab01", "blockhash": "0000000000000000001cda96e906b7601b7a6fb1a3b62bca570a9e5d8f4b3de1", "vout": [{"scriptPubKey": {"reqSigs": 1, "hex": "a91494df17badbe3b5ec176f7af588843c509bf852a787", "addresses": ["3FGBBgnpQGWEp8taNYcFccqERrBi7CSeEn"], "asm": "OP_HASH160 94df17badbe3b5ec176f7af588843c509bf852a7 OP_EQUAL", "type": "scripthash"}, "value": 0.00990257, "n": 0}, {"scriptPubKey": {"reqSigs": 1, "hex": "a91418164f3dc1008af9fe2bb0d0054c9d69dde339a587", "addresses": ["33tNsExQASM4B59UfnSSSXwkH5p1PYetmd"], "asm": "OP_HASH160 18164f3dc1008af9fe2bb0d0054c9d69dde339a5 OP_EQUAL", "type": "scripthash"}, "value": 0.00236919, "n": 1}], "hex": "020000000001037f803f7e022f5381cb54a48f56fb174bb943e9639b68b1fe02838007b741ee9e5502000017160014d55a2cd82c6df5480446525f6501079b06c641dcfeffffffc1c5a5f8cedf52949cdafdd543fba215de3b151f3048aae7f057b8b0358a99be0000000017160014eb70adff37eef5ecad5f00e01aa101a064a38d5cfeffffffe7c1e9e0721e42bc19883ac8dca8d319bb1525d4b7662363ae4690c9de8331fd0000000017160014e42bc8a5bfe6a38bb32c751137799c8225a521ddfeffffff02311c0f000000000017a91494df17badbe3b5ec176f7af588843c509bf852a787779d03000000000017a91418164f3dc1008af9fe2bb0d0054c9d69dde339a58702473044022046c64a1f59a8ddd9424085f16295d5c5a67f9b18f3e7aa5964199e0561938fc702204eb0bbcd0edbe9cb18afed5c995f0ddf49f69c0ac13a6a329062e58658b3332b01210312f27fc31709151612117a751bd86c1b9ef9174aec0a1c79e6899ba28f7082bb0247304402201578d61f8b5d2651999baff2710e8d4323a945d62ff8d4b71ceb5dad92b1adb902207fcdc6be094cd3f4ec96bd16a6481fe556314ee9ba5a29d5e283ce9154d6016a012102bfd433e6f0f1c69f0435256e8cc2f57274a0b75f238cd644884755b2b46912ba0247304402203180d603191d83e4a1b4f3e062ddbe11ea351055817c2ecbc8860282e79e1348022079735174b41745f6f2d14b45d17e56645950384bbc412060b2729b4136f8ec6b01210320ce67f1bce61b47410ad7bae87e2d4dd2ff6c578625f4c3c4627f2995687afc13490800", "vin": [{"txinwitness": ["3044022046c64a1f59a8ddd9424085f16295d5c5a67f9b18f3e7aa5964199e0561938fc702204eb0bbcd0edbe9cb18afed5c995f0ddf49f69c0ac13a6a329062e58658b3332b01", "0312f27fc31709151612117a751bd86c1b9ef9174aec0a1c79e6899ba28f7082bb"], "sequence": 4294967294, "scriptSig": {"hex": "160014d55a2cd82c6df5480446525f6501079b06c641dc", "asm": "0014d55a2cd82c6df5480446525f6501079b06c641dc"}, "vout": 597, "txid": "9eee41b707808302feb1689b63e943b94b17fb568fa454cb81532f027e3f807f"}, {"txinwitness": ["304402201578d61f8b5d2651999baff2710e8d4323a945d62ff8d4b71ceb5dad92b1adb902207fcdc6be094cd3f4ec96bd16a6481fe556314ee9ba5a29d5e283ce9154d6016a01", "02bfd433e6f0f1c69f0435256e8cc2f57274a0b75f238cd644884755b2b46912ba"], "sequence": 4294967294, "scriptSig": {"hex": "160014eb70adff37eef5ecad5f00e01aa101a064a38d5c", "asm": "0014eb70adff37eef5ecad5f00e01aa101a064a38d5c"}, "vout": 0, "txid": "be998a35b0b857f0e7aa48301f153bde15a2fb43d5fdda9c9452dfcef8a5c5c1"}, {"txinwitness": ["304402203180d603191d83e4a1b4f3e062ddbe11ea351055817c2ecbc8860282e79e1348022079735174b41745f6f2d14b45d17e56645950384bbc412060b2729b4136f8ec6b01", "0320ce67f1bce61b47410ad7bae87e2d4dd2ff6c578625f4c3c4627f2995687afc"], "sequence": 4294967294, "scriptSig": {"hex": "160014e42bc8a5bfe6a38bb32c751137799c8225a521dd", "asm": "0014e42bc8a5bfe6a38bb32c751137799c8225a521dd"}, "vout": 0, "txid": "fd3183dec99046ae632366b7d42515bb19d3a8dcc83a8819bc421e72e0e9c1e7"}], "txid": "68099b64f969ec37bb81e541370b40c49b99d2672fb616689617c9887d8ac98c", "blocktime": 1537873282, "version": 2, "confirmations": 11480, "time": 1537873282, "locktime": 542995, "vsize": 347, "size": 589}