{"hash": "681085d2a7595cb1069b8b92e4b1d53c5871ec42fe2bf089ac71f1a7495c6b55", "blockhash": "00000000000000000017f5eb5941039fbcee6240d03bc1f2f8e35350df66a1d8", "vout": [{"scriptPubKey": {"reqSigs": 1, "hex": "76a91407ea9711af600e25e883d2e2e3cf28ee0bb46c4d88ac", "addresses": ["1irkx5eYayNBTz9c3KPJgvPNJQ8SDF6AC"], "asm": "OP_DUP OP_HASH160 07ea9711af600e25e883d2e2e3cf28ee0bb46c4d OP_EQUALVERIFY OP_CHECKSIG", "type": "pubkeyhash"}, "value": 0.05187211, "n": 0}, {"scriptPubKey": {"reqSigs": 1, "hex": "a9144381f14026db4bed53dd0752682219d36121440b87", "addresses": ["37qxrx9QeaW9akykNvwz1LvYK4nbbVubTR"], "asm": "OP_HASH160 4381f14026db4bed53dd0752682219d36121440b OP_EQUAL", "type": "scripthash"}, "value": 0.04599413, "n": 1}], "hex": "020000000135ae31de19efa231814bf7c2d6636f3c6cee8ffc6049f9857edee07ae22cc544000000006a47304402206107af76e280282d6d70ea51a402960bee663fdb11360551d516db35a974b32802205f28f0b70b3c550d103cee472e10755d1e0caf38ce225626e64f15b8f395257d0121032653fb049a265136875a05487c63fdf8daed96eba65badc8bfc4eb72fcc365a7feffffff028b264f00000000001976a91407ea9711af600e25e883d2e2e3cf28ee0bb46c4d88ac752e46000000000017a9144381f14026db4bed53dd0752682219d36121440b8714490800", "vin": [{"sequence": 4294967294, "scriptSig": {"hex": "47304402206107af76e280282d6d70ea51a402960bee663fdb11360551d516db35a974b32802205f28f0b70b3c550d103cee472e10755d1e0caf38ce225626e64f15b8f395257d0121032653fb049a265136875a05487c63fdf8daed96eba65badc8bfc4eb72fcc365a7", "asm": "304402206107af76e280282d6d70ea51a402960bee663fdb11360551d516db35a974b32802205f28f0b70b3c550d103cee472e10755d1e0caf38ce225626e64f15b8f395257d[ALL] 032653fb049a265136875a05487c63fdf8daed96eba65badc8bfc4eb72fcc365a7"}, "vout": 0, "txid": "44c52ce27ae0de7e85f94960fc8fee6c3c6f63d6c2f74b8131a2ef19de31ae35"}], "txid": "681085d2a7595cb1069b8b92e4b1d53c5871ec42fe2bf089ac71f1a7495c6b55", "blocktime": 1537874412, "version": 2, "confirmations": 11467, "time": 1537874412, "locktime": 542996, "vsize": 223, "size": 223}