{"hash": "f146fa96815671856127c0f1730c335f0aa03eee95124307d59a8dfdf914e8c4", "blockhash": "0000000000000000001e0dab787dd257d1dbfcb92a98c2207d5e1078be1f4165", "vout": [{"scriptPubKey": {"reqSigs": 1, "hex": "0014779f38a3d65d457ef080ec65e3635ee7adda3f10", "addresses": ["bc1qw70n3g7kt4zhauyqa3j7xc67u7ka50csaqt5wj"], "asm": "0 779f38a3d65d457ef080ec65e3635ee7adda3f10", "type": "witness_v0_keyhash"}, "value": 9.539e-05, "n": 0}, {"scriptPubKey": {"reqSigs": 1, "hex": "76a9148f23856d865949060e504e9007a042877f1d0f3288ac", "addresses": ["1E3rBVKBuJpvWRmxiNEbxyoShpsz1hYy27"], "asm": "OP_DUP OP_HASH160 8f23856d865949060e504e9007a042877f1d0f32 OP_EQUALVERIFY OP_CHECKSIG", "type": "pubkeyhash"}, "value": 0.00311612, "n": 1}], "hex": "010000000001015b77781cab9d955299e3f7e7481830036f84455c752731590862f20d9469880401000000171600144c2ae0fdd2b59ad982b19cbe55b8487e05838ea8ffffffff024325000000000000160014779f38a3d65d457ef080ec65e3635ee7adda3f103cc10400000000001976a9148f23856d865949060e504e9007a042877f1d0f3288ac02483045022100fbd9757d98203d79f9580f32e405d804a8dab3aa17682ec837a55e765740615402206b93cda690f09f387f18222577627a3b098c2b7fc8fc5f2c2e2d4bfc8627a5a60121028d4080dd6453ba2c2d6a0ad0701f05c8b3e891198cabe2de557db03eb814472f00000000", "vin": [{"txinwitness": ["3045022100fbd9757d98203d79f9580f32e405d804a8dab3aa17682ec837a55e765740615402206b93cda690f09f387f18222577627a3b098c2b7fc8fc5f2c2e2d4bfc8627a5a601", "028d4080dd6453ba2c2d6a0ad0701f05c8b3e891198cabe2de557db03eb814472f"], "sequence": 4294967295, "scriptSig": {"hex": "1600144c2ae0fdd2b59ad982b19cbe55b8487e05838ea8", "asm": "00144c2ae0fdd2b59ad982b19cbe55b8487e05838ea8"}, "vout": 1, "txid": "048869940df26208593127755c45846f03301848e7f7e39952959dab1c78775b"}], "txid": "681c0b1258485d22e0c7bdd9ab452a0358cedc1edb05b4c1fc239e3ebf774253", "blocktime": 1537872475, "version": 1, "confirmations": 11487, "time": 1537872475, "locktime": 0, "vsize": 167, "size": 249}