{"hash": "41fee73ee903b98fdc3ee0e89e03f84f0541eadc9a9358088dfe5e389c2113e0", "blockhash": "0000000000000000000e13cef7c366c0283d82e591d1acd082e914b08063cdf1", "vout": [{"scriptPubKey": {"reqSigs": 1, "hex": "a9143e349966810ba1623b17397b79284803fb60e3be87", "addresses": ["37Mvq6UJVX9GxJNYZFmnBdhtNND8Fc8XnL"], "asm": "OP_HASH160 3e349966810ba1623b17397b79284803fb60e3be OP_EQUAL", "type": "scripthash"}, "value": 0.00048424, "n": 0}, {"scriptPubKey": {"reqSigs": 1, "hex": "a914412a5a9d44d5834123b7756088f409b7b3a36da687", "addresses": ["37daapNiiDgPEaARWMQCfhGXJo4yF1nTaW"], "asm": "OP_HASH160 412a5a9d44d5834123b7756088f409b7b3a36da6 OP_EQUAL", "type": "scripthash"}, "value": 0.02294314, "n": 1}], "hex": "01000000000101a237e6126bc5a7c99416d0cb9e6b8712ec0c947c22f5b38b8541f4d8793e390b010000002322002083f5850b1b9ae687f7cf8d5c77fefcbd87cde420155cd43c20d50f5f293b7ed6ffffffff0228bd00000000000017a9143e349966810ba1623b17397b79284803fb60e3be872a0223000000000017a914412a5a9d44d5834123b7756088f409b7b3a36da6870400473044022071e7c82989a990378ae5ce769fb9fb8283b02fe657ff8554b3a7312584fc1313022002dacd46ae8025c815006f8b431f7a80ca28a9b15c668350b7ab214ee7dde1af01473044022055c48e0e6a7f95216130c8d13851024c471c13232642f5afc73b0f0ef3365098022044d9650f6d72df5213acdb3f5a71a6404aa6c1a14689a41e81f93f2dacc53ed101475221020511070566b8412d1941b8dc0ded10caa6a6915b609dfa65bb8111255071d3a22103871fc2ca08e6950b38867e8e6a0e94ee625223d3aa0df5c65f414c6d784467e252ae00000000", "vin": [{"txinwitness": ["", "3044022071e7c82989a990378ae5ce769fb9fb8283b02fe657ff8554b3a7312584fc1313022002dacd46ae8025c815006f8b431f7a80ca28a9b15c668350b7ab214ee7dde1af01", "3044022055c48e0e6a7f95216130c8d13851024c471c13232642f5afc73b0f0ef3365098022044d9650f6d72df5213acdb3f5a71a6404aa6c1a14689a41e81f93f2dacc53ed101", "5221020511070566b8412d1941b8dc0ded10caa6a6915b609dfa65bb8111255071d3a22103871fc2ca08e6950b38867e8e6a0e94ee625223d3aa0df5c65f414c6d784467e252ae"], "sequence": 4294967295, "scriptSig": {"hex": "22002083f5850b1b9ae687f7cf8d5c77fefcbd87cde420155cd43c20d50f5f293b7ed6", "asm": "002083f5850b1b9ae687f7cf8d5c77fefcbd87cde420155cd43c20d50f5f293b7ed6"}, "vout": 1, "txid": "0b393e79d8f441858bb3f5227c940cec12876b9ecbd01694c9a7c56b12e637a2"}], "txid": "682de9ad162b2f8984c0c75c8fd9e409ec98e89bac1f9646ee6490388c2a25d3", "blocktime": 1537871767, "version": 1, "confirmations": 11495, "time": 1537871767, "locktime": 0, "vsize": 205, "size": 370}