{"hash": "6832eeaeae8f38ab88572eb34ba76212eb9e65d1f9c0f39565496263c7d6c905", "blockhash": "0000000000000000001e0dab787dd257d1dbfcb92a98c2207d5e1078be1f4165", "vout": [{"scriptPubKey": {"reqSigs": 1, "hex": "76a91424bd7c3e1cde235457db6ac3115acc41bb34a4e988ac", "addresses": ["14MGKaTo5ZYaxNMAmv6AF7tqEL8tFdkRNJ"], "asm": "OP_DUP OP_HASH160 24bd7c3e1cde235457db6ac3115acc41bb34a4e9 OP_EQUALVERIFY OP_CHECKSIG", "type": "pubkeyhash"}, "value": 0.00640344, "n": 0}, {"scriptPubKey": {"type": "nulldata", "hex": "6a4c50000077b300016b8f3cf39184de0b947a3080e5bf9ae76da98a211aaf6c953dd567cf27e796fe12dd60444d70a456a6a613807c935baa11a006119d6c7391326d1d100759d4ba30d2c37bb011d97e02cf", "asm": "OP_RETURN 000077b300016b8f3cf39184de0b947a3080e5bf9ae76da98a211aaf6c953dd567cf27e796fe12dd60444d70a456a6a613807c935baa11a006119d6c7391326d1d100759d4ba30d2c37bb011d97e02cf"}, "value": 0.0, "n": 1}], "hex": "0100000001c7c07a5ef48b2ae4319eb2d3b01156d63c15bd1153161053c4c830e0c913b9db000000006a473044022034cee0e667d9a4f2635335e67acea84e3b4b00ec86daba18496315539b9190c4022050857ac375f1a2e9f21a71df90121c4c4c9b21ce46fa04e222e95785992a9fd701210292e4fb6f864d7e7a457d7e5db7289eb666d93d1421845ecf5e2135cdffd31e9affffffff0258c50900000000001976a91424bd7c3e1cde235457db6ac3115acc41bb34a4e988ac0000000000000000536a4c50000077b300016b8f3cf39184de0b947a3080e5bf9ae76da98a211aaf6c953dd567cf27e796fe12dd60444d70a456a6a613807c935baa11a006119d6c7391326d1d100759d4ba30d2c37bb011d97e02cf00000000", "vin": [{"sequence": 4294967295, "scriptSig": {"hex": "473044022034cee0e667d9a4f2635335e67acea84e3b4b00ec86daba18496315539b9190c4022050857ac375f1a2e9f21a71df90121c4c4c9b21ce46fa04e222e95785992a9fd701210292e4fb6f864d7e7a457d7e5db7289eb666d93d1421845ecf5e2135cdffd31e9a", "asm": "3044022034cee0e667d9a4f2635335e67acea84e3b4b00ec86daba18496315539b9190c4022050857ac375f1a2e9f21a71df90121c4c4c9b21ce46fa04e222e95785992a9fd7[ALL] 0292e4fb6f864d7e7a457d7e5db7289eb666d93d1421845ecf5e2135cdffd31e9a"}, "vout": 0, "txid": "dbb913c9e030c8c45310165311bd153cd65611b0d3b29e31e42a8bf45e7ac0c7"}], "txid": "6832eeaeae8f38ab88572eb34ba76212eb9e65d1f9c0f39565496263c7d6c905", "blocktime": 1537872475, "version": 1, "confirmations": 11486, "time": 1537872475, "locktime": 0, "vsize": 283, "size": 283}