{"hash": "6833c3df45fb16023ab1eb95eaf977e22869b25e961ba9bebca543b692fe958d", "blockhash": "0000000000000000001f0ddff1eddb255c1121bcd4da4f1bc9a0da00cae72433", "vout": [{"scriptPubKey": {"reqSigs": 1, "hex": "76a914549cd986e34b016ba2c9a8634b8e167b36e6e40388ac", "addresses": ["18iPfDw5qu7uSmWjsNjx5qeiHM1qdUAprX"], "asm": "OP_DUP OP_HASH160 549cd986e34b016ba2c9a8634b8e167b36e6e403 OP_EQUALVERIFY OP_CHECKSIG", "type": "pubkeyhash"}, "value": 0.00311307, "n": 0}, {"scriptPubKey": {"reqSigs": 1, "hex": "76a91412abf0b62eebfd7221a0f0e8c53c49501811d1d088ac", "addresses": ["12hj95EgdU7GC9L6AmRhj1Mb3zYpiDCQA8"], "asm": "OP_DUP OP_HASH160 12abf0b62eebfd7221a0f0e8c53c49501811d1d0 OP_EQUALVERIFY OP_CHECKSIG", "type": "pubkeyhash"}, "value": 0.00469772, "n": 1}], "hex": "010000000158455e30f37ec3e6df4552c42620771a4bd25b0c80e6e043e875c45709227d3a010000006b483045022100b9eef6f5c04e5f3658a1d8e26120751b808146f7cea678fce54377171bf1c5af022066929368c728c2b75fa483b40caf85b8b01f03c66e9352c0311784461532140a0121038b7730c21afa86fdfde5b20a6026304d142e54c7149c1617429e393191b9abc9ffffffff020bc00400000000001976a914549cd986e34b016ba2c9a8634b8e167b36e6e40388ac0c2b0700000000001976a91412abf0b62eebfd7221a0f0e8c53c49501811d1d088ac00000000", "vin": [{"sequence": 4294967295, "scriptSig": {"hex": "483045022100b9eef6f5c04e5f3658a1d8e26120751b808146f7cea678fce54377171bf1c5af022066929368c728c2b75fa483b40caf85b8b01f03c66e9352c0311784461532140a0121038b7730c21afa86fdfde5b20a6026304d142e54c7149c1617429e393191b9abc9", "asm": "3045022100b9eef6f5c04e5f3658a1d8e26120751b808146f7cea678fce54377171bf1c5af022066929368c728c2b75fa483b40caf85b8b01f03c66e9352c0311784461532140a[ALL] 038b7730c21afa86fdfde5b20a6026304d142e54c7149c1617429e393191b9abc9"}, "vout": 1, "txid": "3a7d220957c475e843e0e6800c5bd24b1a772026c45245dfe6c37ef3305e4558"}], "txid": "6833c3df45fb16023ab1eb95eaf977e22869b25e961ba9bebca543b692fe958d", "blocktime": 1537872018, "version": 1, "confirmations": 11489, "time": 1537872018, "locktime": 0, "vsize": 226, "size": 226}