{"hash": "54504c9f2d76d097f27f9401ec452b01b1bc262e34484e821eb5de802b1602b6", "blockhash": "00000000000000000004ffacab907a6b429b9a5745fa0b75af4234bf69dd7176", "vout": [{"scriptPubKey": {"reqSigs": 1, "hex": "76a914bdacf304ecf5f18374b1117bdab551fb9e6b1f1488ac", "addresses": ["1JHutz3gsYgtE9AX4d27weBmezciKY6JS7"], "asm": "OP_DUP OP_HASH160 bdacf304ecf5f18374b1117bdab551fb9e6b1f14 OP_EQUALVERIFY OP_CHECKSIG", "type": "pubkeyhash"}, "value": 0.00940035, "n": 0}, {"scriptPubKey": {"reqSigs": 1, "hex": "a914fdb462354e41b06717da9af1dc926c9ec64666b887", "addresses": ["3QpUyMJgJQM9D17pLCH7S4GPApa9X3Z4TU"], "asm": "OP_HASH160 fdb462354e41b06717da9af1dc926c9ec64666b8 OP_EQUAL", "type": "scripthash"}, "value": 0.00065886, "n": 1}], "hex": "02000000000104a90fe937223d960fc7b4d9bf09b9962e6dd9f85d5f0a477f892cf20c2785db242a000000171600140f941ad8a3fa64a8dc9d1a8213e48e4031a0658affffffffd562ad24965abbe23dc3604d1cce3669bfff89d3e8180aec21da3759c4795481010000001716001435f49355024a7fbada7aade82ca55ed9cba39acdffffffff7135ce8cbbda1fa5bda0ee21959dfecd051bd308a493b36f68dd42050e6a6c8d0100000017160014af61d484d6afa88e5fb5107f1464a322cb490fb9ffffffff2ffc8034f650e540d971ea39547a4e0f20dc0049b8b207087ff3d5740bfd4d310100000017160014ff273e5442cd206ae50782edf61947bcaec9a896ffffffff0203580e00000000001976a914bdacf304ecf5f18374b1117bdab551fb9e6b1f1488ac5e0101000000000017a914fdb462354e41b06717da9af1dc926c9ec64666b88702473044022021f6a7465d3fd512d2e923809bf099da95ad4aa8b6dacf4748e587ee13f6d4390220722dcc3d3da6331177d485b32f2fa5399d51c2791190d58ba4a9218b1f757058012102c97e6c7f95a72186a04bd393e1c832a28d84ad018883d354bbd9882d220d3c2502473044022067d301d503e4700f673c4ffcdcaad8d46751a2b7f4d8ab953793c30d12310ccc0220035ad27f6bda18e2a4e83c13a132585a47a80000f3bc35f4267a2831629447e8012102920b9ea09df5817c61a706a9bb4e2d40894f880113372536a65c3ef831de7581024730440220241419d1378dd1b823b232d6c8b86f2b23eca84c81194eb47606e5f9f855348502206c10df02a02ea67535c607962c7b6167d08fab54de1896807f3e0de751c670ad0121037552a95a5c3c4f00c2133657edc0808bb0dc52fcf35de772a6f8d9e189db3b5a024830450221009910799e908d22b76e664fad52d4cf15064789dfe579931ba47b2074be6ee090022003fe998d2fd275f9ca674426074e27046c687957c028005ac6a3ca9519178d2c01210294b09aced598050f6c52c265a272e5d4044356737cdd65bde45e78450757243500000000", "vin": [{"txinwitness": ["3044022021f6a7465d3fd512d2e923809bf099da95ad4aa8b6dacf4748e587ee13f6d4390220722dcc3d3da6331177d485b32f2fa5399d51c2791190d58ba4a9218b1f75705801", "02c97e6c7f95a72186a04bd393e1c832a28d84ad018883d354bbd9882d220d3c25"], "sequence": 4294967295, "scriptSig": {"hex": "1600140f941ad8a3fa64a8dc9d1a8213e48e4031a0658a", "asm": "00140f941ad8a3fa64a8dc9d1a8213e48e4031a0658a"}, "vout": 42, "txid": "24db85270cf22c897f470a5f5df8d96d2e96b909bfd9b4c70f963d2237e90fa9"}, {"txinwitness": ["3044022067d301d503e4700f673c4ffcdcaad8d46751a2b7f4d8ab953793c30d12310ccc0220035ad27f6bda18e2a4e83c13a132585a47a80000f3bc35f4267a2831629447e801", "02920b9ea09df5817c61a706a9bb4e2d40894f880113372536a65c3ef831de7581"], "sequence": 4294967295, "scriptSig": {"hex": "16001435f49355024a7fbada7aade82ca55ed9cba39acd", "asm": "001435f49355024a7fbada7aade82ca55ed9cba39acd"}, "vout": 1, "txid": "815479c45937da21ec0a18e8d389ffbf6936ce1c4d60c33de2bb5a9624ad62d5"}, {"txinwitness": ["30440220241419d1378dd1b823b232d6c8b86f2b23eca84c81194eb47606e5f9f855348502206c10df02a02ea67535c607962c7b6167d08fab54de1896807f3e0de751c670ad01", "037552a95a5c3c4f00c2133657edc0808bb0dc52fcf35de772a6f8d9e189db3b5a"], "sequence": 4294967295, "scriptSig": {"hex": "160014af61d484d6afa88e5fb5107f1464a322cb490fb9", "asm": "0014af61d484d6afa88e5fb5107f1464a322cb490fb9"}, "vout": 1, "txid": "8d6c6a0e0542dd686fb393a408d31b05cdfe9d9521eea0bda51fdabb8cce3571"}, {"txinwitness": ["30450221009910799e908d22b76e664fad52d4cf15064789dfe579931ba47b2074be6ee090022003fe998d2fd275f9ca674426074e27046c687957c028005ac6a3ca9519178d2c01", "0294b09aced598050f6c52c265a272e5d4044356737cdd65bde45e784507572435"], "sequence": 4294967295, "scriptSig": {"hex": "160014ff273e5442cd206ae50782edf61947bcaec9a896", "asm": "0014ff273e5442cd206ae50782edf61947bcaec9a896"}, "vout": 1, "txid": "314dfd0b74d5f37f0807b2b84900dc200f4e7a5439ea71d940e550f63480fc2f"}], "txid": "683454b26a8c5a3a3532f5bca9b5d22935d31b9183977a6eab91ad04327b461e", "blocktime": 1537875543, "version": 2, "confirmations": 11464, "time": 1537875543, "locktime": 0, "vsize": 440, "size": 763}