{"hash": "683b13b04b19a6f89e9b24f3b35c9621affc5a6f9dba6434258de20d21ee0a3c", "blockhash": "0000000000000000000e13cef7c366c0283d82e591d1acd082e914b08063cdf1", "vout": [{"scriptPubKey": {"type": "nulldata", "hex": "6a4c500000778c0001f70b36bf1d3054d80ba3060ce3ef3236678a625097bcbefa6b8351586b4e0397d38bd4ef329276b2018db169cec95baa0c4006144be3021c8cbfbc9a9526289ac0f6612cd74e33776ee4", "asm": "OP_RETURN 0000778c0001f70b36bf1d3054d80ba3060ce3ef3236678a625097bcbefa6b8351586b4e0397d38bd4ef329276b2018db169cec95baa0c4006144be3021c8cbfbc9a9526289ac0f6612cd74e33776ee4"}, "value": 0.0, "n": 0}, {"scriptPubKey": {"reqSigs": 1, "hex": "76a914dc11a0317b10832dbc7cbff28714ec59dea109e188ac", "addresses": ["1M4cmryVWMXKNR5ZsChHmPHmToPXTxHH7e"], "asm": "OP_DUP OP_HASH160 dc11a0317b10832dbc7cbff28714ec59dea109e1 OP_EQUALVERIFY OP_CHECKSIG", "type": "pubkeyhash"}, "value": 0.01413424, "n": 1}], "hex": "010000000160262ebcf11404f9f65c986d78ba53b88fc5ec5cba02fad084015f83c5481865010000006b483045022100800a47be643fb1e3b5d600109eef423e35a321c94e88d89d86774e02e6e446f40220602fa5f2d4931a6e7ebe5c73829428f6d510608c046907fd4b46e1e22e66d6a201210294183370178f0f44cdc1ec18ccfd3ed7df64bb4b85a5c1c0b14062c50b4938c5ffffffff020000000000000000536a4c500000778c0001f70b36bf1d3054d80ba3060ce3ef3236678a625097bcbefa6b8351586b4e0397d38bd4ef329276b2018db169cec95baa0c4006144be3021c8cbfbc9a9526289ac0f6612cd74e33776ee430911500000000001976a914dc11a0317b10832dbc7cbff28714ec59dea109e188ac00000000", "vin": [{"sequence": 4294967295, "scriptSig": {"hex": "483045022100800a47be643fb1e3b5d600109eef423e35a321c94e88d89d86774e02e6e446f40220602fa5f2d4931a6e7ebe5c73829428f6d510608c046907fd4b46e1e22e66d6a201210294183370178f0f44cdc1ec18ccfd3ed7df64bb4b85a5c1c0b14062c50b4938c5", "asm": "3045022100800a47be643fb1e3b5d600109eef423e35a321c94e88d89d86774e02e6e446f40220602fa5f2d4931a6e7ebe5c73829428f6d510608c046907fd4b46e1e22e66d6a2[ALL] 0294183370178f0f44cdc1ec18ccfd3ed7df64bb4b85a5c1c0b14062c50b4938c5"}, "vout": 1, "txid": "651848c5835f0184d0fa02ba5cecc58fb853ba786d985cf6f90414f1bc2e2660"}], "txid": "683b13b04b19a6f89e9b24f3b35c9621affc5a6f9dba6434258de20d21ee0a3c", "blocktime": 1537871767, "version": 1, "confirmations": 11493, "time": 1537871767, "locktime": 0, "vsize": 284, "size": 284}