{"hash": "68453d3b53c0b3b058141374d37518c712ee78be668fe411457e8a78447039a3", "blockhash": "00000000000000000024a2167bbff67b0be802c0b01cdd79e6331c2be6459f87", "vout": [{"scriptPubKey": {"reqSigs": 1, "hex": "76a914281f36de9599bf14650b78d1b3cb5346125ab2f388ac", "addresses": ["14f9RV2LUtmsNsJbhMHbhXFM8U5eANfmWR"], "asm": "OP_DUP OP_HASH160 281f36de9599bf14650b78d1b3cb5346125ab2f3 OP_EQUALVERIFY OP_CHECKSIG", "type": "pubkeyhash"}, "value": 0.00261, "n": 0}, {"scriptPubKey": {"reqSigs": 1, "hex": "76a914907cf592f4276f10788cf46bb5b4054e336ac28c88ac", "addresses": ["1EAyzwskU2w3UAjDo46i8dLu3TvfHPjGKs"], "asm": "OP_DUP OP_HASH160 907cf592f4276f10788cf46bb5b4054e336ac28c OP_EQUALVERIFY OP_CHECKSIG", "type": "pubkeyhash"}, "value": 0.05182481, "n": 1}], "hex": "0100000001540e06fb24e119f129589d319ef82709e7e64679c70b755ee9089e5d3101dbca010000006a47304402202c56d68b54301aa9bca8a455c99d9ec9ce0e6b3a69bcacc4c9d2143c598f086402202533e78a303f5570f61b65f5aed53ae4d1c3dfda0fa137d0011232cd34b435db01210211daf1f7224ea1d557ce11335003dbb4c9dea45806b3fd2c6362116ac7a618eaffffffff0288fb0300000000001976a914281f36de9599bf14650b78d1b3cb5346125ab2f388ac11144f00000000001976a914907cf592f4276f10788cf46bb5b4054e336ac28c88ac00000000", "vin": [{"sequence": 4294967295, "scriptSig": {"hex": "47304402202c56d68b54301aa9bca8a455c99d9ec9ce0e6b3a69bcacc4c9d2143c598f086402202533e78a303f5570f61b65f5aed53ae4d1c3dfda0fa137d0011232cd34b435db01210211daf1f7224ea1d557ce11335003dbb4c9dea45806b3fd2c6362116ac7a618ea", "asm": "304402202c56d68b54301aa9bca8a455c99d9ec9ce0e6b3a69bcacc4c9d2143c598f086402202533e78a303f5570f61b65f5aed53ae4d1c3dfda0fa137d0011232cd34b435db[ALL] 0211daf1f7224ea1d557ce11335003dbb4c9dea45806b3fd2c6362116ac7a618ea"}, "vout": 1, "txid": "cadb01315d9e08e95e750bc77946e6e70927f89e319d5829f119e124fb060e54"}], "txid": "68453d3b53c0b3b058141374d37518c712ee78be668fe411457e8a78447039a3", "blocktime": 1537870564, "version": 1, "confirmations": 11515, "time": 1537870564, "locktime": 0, "vsize": 225, "size": 225}