{"hash": "0b995b4382ebe0d864cd1e868415b89ffd316baa8dc55376277baa8d4bd50eb1", "blockhash": "0000000000000000000e13cef7c366c0283d82e591d1acd082e914b08063cdf1", "vout": [{"scriptPubKey": {"reqSigs": 1, "hex": "0014b77f71623566bc40dbb0ee393817b53870458273", "addresses": ["bc1qkalhzc34v67ypkasacuns9a48pcytqnnrqn2ev"], "asm": "0 b77f71623566bc40dbb0ee393817b53870458273", "type": "witness_v0_keyhash"}, "value": 0.64055203, "n": 0}, {"scriptPubKey": {"reqSigs": 1, "hex": "a914b54afd373207c2b64e26d24da2bc7f6aeac515a487", "addresses": ["3JDc4bo1inMmzhef6e3GLTWyUHJmYsqFfv"], "asm": "OP_HASH160 b54afd373207c2b64e26d24da2bc7f6aeac515a4 OP_EQUAL", "type": "scripthash"}, "value": 0.019, "n": 1}], "hex": "01000000000101d351e312ba73f56dc7eb2bda2fd52f61df495c38e7fb2d4c505f95eeb815e0140000000000ffffffff02a367d10300000000160014b77f71623566bc40dbb0ee393817b53870458273e0fd1c000000000017a914b54afd373207c2b64e26d24da2bc7f6aeac515a48702473044022045bd00411dbb70ef4c38c22c90f2a127278b681760158e2a473e55faa6766df4022022d03ac9d5c9f74e94e380e5769a7460b1a5cc8ce8fb0cc71a1785dddbd16d870121033907b5d84cae376afab9b515ec8e1127ae86520e0452a6af84bc35e9c62f1fe000000000", "vin": [{"txinwitness": ["3044022045bd00411dbb70ef4c38c22c90f2a127278b681760158e2a473e55faa6766df4022022d03ac9d5c9f74e94e380e5769a7460b1a5cc8ce8fb0cc71a1785dddbd16d8701", "033907b5d84cae376afab9b515ec8e1127ae86520e0452a6af84bc35e9c62f1fe0"], "sequence": 4294967295, "scriptSig": {"hex": "", "asm": ""}, "vout": 0, "txid": "14e015b8ee955f504c2dfbe7385c49df612fd52fda2bebc76df573ba12e351d3"}], "txid": "6847f2f230ba451416ae9c5969328cc7e8ea96983facf6918d3ed2d9690d96e1", "blocktime": 1537871767, "version": 1, "confirmations": 11495, "time": 1537871767, "locktime": 0, "vsize": 142, "size": 223}