{"hash": "684b2e3cffb971384de357a83d8ae76264d967b02d30235ddf5a08fb33fa122e", "blockhash": "0000000000000000000e13cef7c366c0283d82e591d1acd082e914b08063cdf1", "vout": [{"scriptPubKey": {"reqSigs": 1, "hex": "76a914073abf068e5fc838f34a63a85127a1c0b7bd1fd188ac", "addresses": ["1fE76o7hDAfHMbURtsawgJA1s3BHcEtNQ"], "asm": "OP_DUP OP_HASH160 073abf068e5fc838f34a63a85127a1c0b7bd1fd1 OP_EQUALVERIFY OP_CHECKSIG", "type": "pubkeyhash"}, "value": 0.00013682, "n": 0}, {"scriptPubKey": {"reqSigs": 1, "hex": "a9148d3eca21891686cf833745e766ddbdef8059b82c87", "addresses": ["3EZrRHetfjk9Y6x9MTdguaeqWcHW7HDBhK"], "asm": "OP_HASH160 8d3eca21891686cf833745e766ddbdef8059b82c OP_EQUAL", "type": "scripthash"}, "value": 0.0034364, "n": 1}], "hex": "0100000001476713e49cb99c02dda451bda87fc481fc1402ed0ca32839f7d6efd197b73df71f0000006b483045022100c86dc02c3a6a75c6f2ec221da31f97cc102b9b4d724e49014ba13e8f57f0d504022007266cced7303244f441131d1ef31ab3cc28323b68dd332dbd96679221d66c010121023a675971d81a02a2b1e8b2c2e8fb9fc781c575391a79f21c67015e09565dc638ffffffff0272350000000000001976a914073abf068e5fc838f34a63a85127a1c0b7bd1fd188ac583e05000000000017a9148d3eca21891686cf833745e766ddbdef8059b82c8700000000", "vin": [{"sequence": 4294967295, "scriptSig": {"hex": "483045022100c86dc02c3a6a75c6f2ec221da31f97cc102b9b4d724e49014ba13e8f57f0d504022007266cced7303244f441131d1ef31ab3cc28323b68dd332dbd96679221d66c010121023a675971d81a02a2b1e8b2c2e8fb9fc781c575391a79f21c67015e09565dc638", "asm": "3045022100c86dc02c3a6a75c6f2ec221da31f97cc102b9b4d724e49014ba13e8f57f0d504022007266cced7303244f441131d1ef31ab3cc28323b68dd332dbd96679221d66c01[ALL] 023a675971d81a02a2b1e8b2c2e8fb9fc781c575391a79f21c67015e09565dc638"}, "vout": 31, "txid": "f73db797d1efd6f73928a30ced0214fc81c47fa8bd51a4dd029cb99ce4136747"}], "txid": "684b2e3cffb971384de357a83d8ae76264d967b02d30235ddf5a08fb33fa122e", "blocktime": 1537871767, "version": 1, "confirmations": 11495, "time": 1537871767, "locktime": 0, "vsize": 224, "size": 224}