{"hash": "684efaf93996214b09d9eb24a0b4932814a28622ea623deae77e9734739c5f10", "blockhash": "0000000000000000001e0dab787dd257d1dbfcb92a98c2207d5e1078be1f4165", "vout": [{"scriptPubKey": {"reqSigs": 1, "hex": "a91480913881fd66763173f215165541cfd21fc64f8687", "addresses": ["3DQpPDDkCXSaZo1TnWg5VKC9AdeEZT4xmt"], "asm": "OP_HASH160 80913881fd66763173f215165541cfd21fc64f86 OP_EQUAL", "type": "scripthash"}, "value": 0.02250938, "n": 0}, {"scriptPubKey": {"reqSigs": 1, "hex": "76a91456147a35d27eb67b57c726fc93eda9e2f473e3e388ac", "addresses": ["18r9eHssJYGHyzxrHkJT6EtUwL6VPSCptR"], "asm": "OP_DUP OP_HASH160 56147a35d27eb67b57c726fc93eda9e2f473e3e3 OP_EQUALVERIFY OP_CHECKSIG", "type": "pubkeyhash"}, "value": 0.16741062, "n": 1}], "hex": "0100000001e947ae56936b7a6c071be6eed7ed54acd73dd0388d9715b7b739f2f0dcc92a30000000006a47304402201460161a6584444d2e9692632df69821856903da62eeab44c051d9201367bc1d02201fbba9a9166f98b9e6a871d6bed978c74c5ef15c03d546dbd5f95e375971ab61012102f54db9791abae623c1f9260dbcd63f953f990608931b8d42888f8581085b29faffffffff02ba5822000000000017a91480913881fd66763173f215165541cfd21fc64f8687c672ff00000000001976a91456147a35d27eb67b57c726fc93eda9e2f473e3e388ac00000000", "vin": [{"sequence": 4294967295, "scriptSig": {"hex": "47304402201460161a6584444d2e9692632df69821856903da62eeab44c051d9201367bc1d02201fbba9a9166f98b9e6a871d6bed978c74c5ef15c03d546dbd5f95e375971ab61012102f54db9791abae623c1f9260dbcd63f953f990608931b8d42888f8581085b29fa", "asm": "304402201460161a6584444d2e9692632df69821856903da62eeab44c051d9201367bc1d02201fbba9a9166f98b9e6a871d6bed978c74c5ef15c03d546dbd5f95e375971ab61[ALL] 02f54db9791abae623c1f9260dbcd63f953f990608931b8d42888f8581085b29fa"}, "vout": 0, "txid": "302ac9dcf0f239b7b715978d38d03dd7ac54edd7eee61b076c7a6b9356ae47e9"}], "txid": "684efaf93996214b09d9eb24a0b4932814a28622ea623deae77e9734739c5f10", "blocktime": 1537872475, "version": 1, "confirmations": 11486, "time": 1537872475, "locktime": 0, "vsize": 223, "size": 223}