{"hash": "684eb89293be39fc32e628f07f2bfd8f6dd59c50cfebf5f69d5f716425d88971", "blockhash": "00000000000000000024a2167bbff67b0be802c0b01cdd79e6331c2be6459f87", "vout": [{"scriptPubKey": {"reqSigs": 1, "hex": "76a91470d8a09ec2b9316d0e36bb8c529e701b6aaa15c688ac", "addresses": ["1BHgC2Hf9UG9WjgroMQ97xjxZ5BzVn2Fqz"], "asm": "OP_DUP OP_HASH160 70d8a09ec2b9316d0e36bb8c529e701b6aaa15c6 OP_EQUALVERIFY OP_CHECKSIG", "type": "pubkeyhash"}, "value": 0.019, "n": 0}, {"scriptPubKey": {"reqSigs": 1, "hex": "76a914ecf711d5cc05ffdc81be0be919cad02428a9c0b788ac", "addresses": ["1NbxSyTrmJHANfGtC6tbTRFpYfux3tJM2S"], "asm": "OP_DUP OP_HASH160 ecf711d5cc05ffdc81be0be919cad02428a9c0b7 OP_EQUALVERIFY OP_CHECKSIG", "type": "pubkeyhash"}, "value": 0.47886534, "n": 1}], "hex": "01000000019e1da4710ab06bb11ed2a0ab6ba754896bba107a0f7e7c9d7d7296150864c469010000006a473044022059e14f7ad4dd0866a0da9a896f6308ac2beed5470602c5f7b20b33607ad0a20e02201e7274e41d22d22ba44eb6e06f65de2440edb9360f2289ae005195e0867f9417012102e20dd6236096f33ef28f1cfe38fa2c125591ff8a2a55f1f326ff309a4c2f8c22ffffffff02e0fd1c00000000001976a91470d8a09ec2b9316d0e36bb8c529e701b6aaa15c688acc6b0da02000000001976a914ecf711d5cc05ffdc81be0be919cad02428a9c0b788ac00000000", "vin": [{"sequence": 4294967295, "scriptSig": {"hex": "473044022059e14f7ad4dd0866a0da9a896f6308ac2beed5470602c5f7b20b33607ad0a20e02201e7274e41d22d22ba44eb6e06f65de2440edb9360f2289ae005195e0867f9417012102e20dd6236096f33ef28f1cfe38fa2c125591ff8a2a55f1f326ff309a4c2f8c22", "asm": "3044022059e14f7ad4dd0866a0da9a896f6308ac2beed5470602c5f7b20b33607ad0a20e02201e7274e41d22d22ba44eb6e06f65de2440edb9360f2289ae005195e0867f9417[ALL] 02e20dd6236096f33ef28f1cfe38fa2c125591ff8a2a55f1f326ff309a4c2f8c22"}, "vout": 1, "txid": "69c464081596727d9d7c7e0f7a10ba6b8954a76baba0d21eb16bb00a71a41d9e"}], "txid": "684eb89293be39fc32e628f07f2bfd8f6dd59c50cfebf5f69d5f716425d88971", "blocktime": 1537870564, "version": 1, "confirmations": 11515, "time": 1537870564, "locktime": 0, "vsize": 225, "size": 225}