{"hash": "685293883f1c36108d7c317fd1b42ff7f12d95cc36c20216c2dceaeed86ca99b", "blockhash": "0000000000000000001e0dab787dd257d1dbfcb92a98c2207d5e1078be1f4165", "vout": [{"scriptPubKey": {"reqSigs": 1, "hex": "a9145a259f361d92137572bd72d5bf55d0bdca14d7d087", "addresses": ["39ufoppWXzS1WECsU3CSB7VAcAr5upBQMz"], "asm": "OP_HASH160 5a259f361d92137572bd72d5bf55d0bdca14d7d0 OP_EQUAL", "type": "scripthash"}, "value": 0.01559998, "n": 0}, {"scriptPubKey": {"reqSigs": 1, "hex": "76a914c6c1771d9171713fffb40a6e61fd4a02e1d05d6e88ac", "addresses": ["1K7vZBqJUU9vaNwUsix4X2eQ1cXms2dZUE"], "asm": "OP_DUP OP_HASH160 c6c1771d9171713fffb40a6e61fd4a02e1d05d6e OP_EQUALVERIFY OP_CHECKSIG", "type": "pubkeyhash"}, "value": 0.00547527, "n": 1}], "hex": "0100000001224ea432128eebc634e2d229b12b313c7db1ef8aefadfb90752e8ace795d44d800000000fc0047304402204453bed0e9303808706a92fd8da7079ece159b699e2bc568b727d15a167742d7022049e4ec409aed265fcbd95603774e9c329b174547e040450ed8844ccc775885660147304402201aa7910c80d910a0163968748b9117d7b7ef9d74e02cdf84ef8732d94b5846de02205932b961a52007336d94386d672a0acbd56dd76a83d0991b8ca238ae5f82200f014c6952210312fcc24f5a2d5f7aa26d684ce3024d388f1f532985310fb0880b7d52f6f1e32a21031f3456b8feda1d045eedf36a3a07cd53f836af9404488b506e2a9d9a171b617621032ae790e6e3cbe829dc06cafc007909f05a0893dc2ccf80fc47ab7f57188bb2db53aeffffffff02becd17000000000017a9145a259f361d92137572bd72d5bf55d0bdca14d7d087c75a0800000000001976a914c6c1771d9171713fffb40a6e61fd4a02e1d05d6e88ac00000000", "vin": [{"sequence": 4294967295, "scriptSig": {"hex": "0047304402204453bed0e9303808706a92fd8da7079ece159b699e2bc568b727d15a167742d7022049e4ec409aed265fcbd95603774e9c329b174547e040450ed8844ccc775885660147304402201aa7910c80d910a0163968748b9117d7b7ef9d74e02cdf84ef8732d94b5846de02205932b961a52007336d94386d672a0acbd56dd76a83d0991b8ca238ae5f82200f014c6952210312fcc24f5a2d5f7aa26d684ce3024d388f1f532985310fb0880b7d52f6f1e32a21031f3456b8feda1d045eedf36a3a07cd53f836af9404488b506e2a9d9a171b617621032ae790e6e3cbe829dc06cafc007909f05a0893dc2ccf80fc47ab7f57188bb2db53ae", "asm": "0 304402204453bed0e9303808706a92fd8da7079ece159b699e2bc568b727d15a167742d7022049e4ec409aed265fcbd95603774e9c329b174547e040450ed8844ccc77588566[ALL] 304402201aa7910c80d910a0163968748b9117d7b7ef9d74e02cdf84ef8732d94b5846de02205932b961a52007336d94386d672a0acbd56dd76a83d0991b8ca238ae5f82200f[ALL] 52210312fcc24f5a2d5f7aa26d684ce3024d388f1f532985310fb0880b7d52f6f1e32a21031f3456b8feda1d045eedf36a3a07cd53f836af9404488b506e2a9d9a171b617621032ae790e6e3cbe829dc06cafc007909f05a0893dc2ccf80fc47ab7f57188bb2db53ae"}, "vout": 0, "txid": "d8445d79ce8a2e7590fbadef8aefb17d3c312bb129d2e234c6eb8e1232a44e22"}], "txid": "685293883f1c36108d7c317fd1b42ff7f12d95cc36c20216c2dceaeed86ca99b", "blocktime": 1537872475, "version": 1, "confirmations": 11486, "time": 1537872475, "locktime": 0, "vsize": 369, "size": 369}