{"hash": "685431e500bd40c009d28a211b93c8fdaeb458ba7d9af54e9a7a457283d32029", "blockhash": "00000000000000000004ffacab907a6b429b9a5745fa0b75af4234bf69dd7176", "vout": [{"scriptPubKey": {"reqSigs": 1, "hex": "76a914a8c8fc9ad890a705ea409bac200fd5ea21f7ae6288ac", "addresses": ["1GPTJ2nr387G6y76og1yMthbKyfvM4kc2p"], "asm": "OP_DUP OP_HASH160 a8c8fc9ad890a705ea409bac200fd5ea21f7ae62 OP_EQUALVERIFY OP_CHECKSIG", "type": "pubkeyhash"}, "value": 0.005, "n": 0}, {"scriptPubKey": {"reqSigs": 1, "hex": "76a91488d924f51033b74a895863a5fb57fd545529df7d88ac", "addresses": ["1DUb2YYbQA1jjaNYzVXLZ7ZioEhLXtbUru"], "asm": "OP_DUP OP_HASH160 88d924f51033b74a895863a5fb57fd545529df7d OP_EQUALVERIFY OP_CHECKSIG", "type": "pubkeyhash"}, "value": 0.71637001, "n": 1}], "hex": "0100000001f8dbc6cfb8ce2b4a1b6365fc21dda6efd08fb1c912d2436c032ef2bd049c993a010000006a473044022054479f700f36b20baecbe549517b372073fda3c056751d33bc8f1196f241f9fb0220206845eb60df5c1c46e8bdd924a25d73cdd037ffbb834df6ded8b00eda7b0d6b0121030888863fcb4cdf5b7d33b40e613af35df8f39d576e7972238b0d396cd3fcc3f2ffffffff0220a10700000000001976a914a8c8fc9ad890a705ea409bac200fd5ea21f7ae6288ac09184504000000001976a91488d924f51033b74a895863a5fb57fd545529df7d88ac00000000", "vin": [{"sequence": 4294967295, "scriptSig": {"hex": "473044022054479f700f36b20baecbe549517b372073fda3c056751d33bc8f1196f241f9fb0220206845eb60df5c1c46e8bdd924a25d73cdd037ffbb834df6ded8b00eda7b0d6b0121030888863fcb4cdf5b7d33b40e613af35df8f39d576e7972238b0d396cd3fcc3f2", "asm": "3044022054479f700f36b20baecbe549517b372073fda3c056751d33bc8f1196f241f9fb0220206845eb60df5c1c46e8bdd924a25d73cdd037ffbb834df6ded8b00eda7b0d6b[ALL] 030888863fcb4cdf5b7d33b40e613af35df8f39d576e7972238b0d396cd3fcc3f2"}, "vout": 1, "txid": "3a999c04bdf22e036c43d212c9b18fd0efa6dd21fc65631b4a2bceb8cfc6dbf8"}], "txid": "685431e500bd40c009d28a211b93c8fdaeb458ba7d9af54e9a7a457283d32029", "blocktime": 1537875543, "version": 1, "confirmations": 11464, "time": 1537875543, "locktime": 0, "vsize": 225, "size": 225}