{"hash": "685671875153a14be7a40ae465acabfc34dab94a6bee6d4788a14d72e43fc222", "blockhash": "0000000000000000001e0dab787dd257d1dbfcb92a98c2207d5e1078be1f4165", "vout": [{"scriptPubKey": {"reqSigs": 1, "hex": "76a914ccb61ffe5bd145850e83e99589f897e4a279cff688ac", "addresses": ["1KfR2Q7b1yd617KJL7xNH7d6uNJWCk5j8j"], "asm": "OP_DUP OP_HASH160 ccb61ffe5bd145850e83e99589f897e4a279cff6 OP_EQUALVERIFY OP_CHECKSIG", "type": "pubkeyhash"}, "value": 0.00623277, "n": 0}, {"scriptPubKey": {"reqSigs": 1, "hex": "76a914e735c7d8af11a39886c228d873beda163af1498d88ac", "addresses": ["1N5XX4MnpS1vaxH5sx7t3UuAkPv6867Jq4"], "asm": "OP_DUP OP_HASH160 e735c7d8af11a39886c228d873beda163af1498d OP_EQUALVERIFY OP_CHECKSIG", "type": "pubkeyhash"}, "value": 0.02275234, "n": 1}], "hex": "0100000001806889bc9643d0a73d11fe914733d10b015f2e0ff995d60de1933024035554c5010000006a473044022047567e2a0d2b0e8e67a10c0be67e4a0a211f7601ecba2dbf2c2127573b46cc3802205deee42431b57d5bcbc0a1111ee2359382f2fc2390631c9d8cfb0d3d7f5a5660012103620383f173621e92903c81aeb168bbf9a6b44557702694c48f11cd0c651f1789ffffffff02ad820900000000001976a914ccb61ffe5bd145850e83e99589f897e4a279cff688aca2b72200000000001976a914e735c7d8af11a39886c228d873beda163af1498d88ac00000000", "vin": [{"sequence": 4294967295, "scriptSig": {"hex": "473044022047567e2a0d2b0e8e67a10c0be67e4a0a211f7601ecba2dbf2c2127573b46cc3802205deee42431b57d5bcbc0a1111ee2359382f2fc2390631c9d8cfb0d3d7f5a5660012103620383f173621e92903c81aeb168bbf9a6b44557702694c48f11cd0c651f1789", "asm": "3044022047567e2a0d2b0e8e67a10c0be67e4a0a211f7601ecba2dbf2c2127573b46cc3802205deee42431b57d5bcbc0a1111ee2359382f2fc2390631c9d8cfb0d3d7f5a5660[ALL] 03620383f173621e92903c81aeb168bbf9a6b44557702694c48f11cd0c651f1789"}, "vout": 1, "txid": "c5545503243093e10dd695f90f2e5f010bd1334791fe113da7d04396bc896880"}], "txid": "685671875153a14be7a40ae465acabfc34dab94a6bee6d4788a14d72e43fc222", "blocktime": 1537872475, "version": 1, "confirmations": 11486, "time": 1537872475, "locktime": 0, "vsize": 225, "size": 225}