{"hash": "0003cee7e8714a6d1b623dab6396ef19504bdf03b85019fa584f71fef38702fb", "blockhash": "000000000000000000022b45ed06c6f4ccd3cf7fb5ba4856ebd2e58215665228", "vout": [{"scriptPubKey": {"reqSigs": 1, "hex": "a91469f373d7c5658b4b6355c3d374461964d721fc1d87", "addresses": ["3BMEX4c5kNiPPy5QLN1GLsERpjdfxpHSAD"], "asm": "OP_HASH160 69f373d7c5658b4b6355c3d374461964d721fc1d OP_EQUAL", "type": "scripthash"}, "value": 1.95194126, "n": 0}, {"scriptPubKey": {"reqSigs": 1, "hex": "a91434bdf9449248f158ffad1814f62882f4c68da34e87", "addresses": ["36Vte86gQ9HLBfGc2N9u3cys5fZv7fymoq"], "asm": "OP_HASH160 34bdf9449248f158ffad1814f62882f4c68da34e OP_EQUAL", "type": "scripthash"}, "value": 0.16871502, "n": 1}], "hex": "02000000000101a1c6ee56999ee28494d0ef9e45ffa0f771d2f2929cb1cfedd2467d837cac44c60100000017160014252e09dbf6c28a4ed8abcf75fcb05af04a22ee09feffffff020e6da20b0000000017a91469f373d7c5658b4b6355c3d374461964d721fc1d874e7001010000000017a91434bdf9449248f158ffad1814f62882f4c68da34e870247304402202d0a2ad1b938b1dc65077872a87f730c7f6f105a7495689aa6df1ec527556aaa022039820c0a73eedf1e07d244f9bcdbf174de2bb06678f9e6f1d53b12df0c274c2001210284134d442a2669abd6b49327c8557a48aa7a5d553ff7b17f9d782b18b5fb19780b490800", "vin": [{"txinwitness": ["304402202d0a2ad1b938b1dc65077872a87f730c7f6f105a7495689aa6df1ec527556aaa022039820c0a73eedf1e07d244f9bcdbf174de2bb06678f9e6f1d53b12df0c274c2001", "0284134d442a2669abd6b49327c8557a48aa7a5d553ff7b17f9d782b18b5fb1978"], "sequence": 4294967294, "scriptSig": {"hex": "160014252e09dbf6c28a4ed8abcf75fcb05af04a22ee09", "asm": "0014252e09dbf6c28a4ed8abcf75fcb05af04a22ee09"}, "vout": 1, "txid": "c644ac7c837d46d2edcfb19c92f2d271f7a0ff459eefd09484e29e9956eec6a1"}], "txid": "685eb04d026a6c8a987febca397d769a4d0557996f62487d7dae5607b639386f", "blocktime": 1537869901, "version": 2, "confirmations": 11523, "time": 1537869901, "locktime": 542987, "vsize": 166, "size": 247}