{"hash": "e1470c16912c0c01de9ff917efe765e5f77185988d7a19c17955e1ca5427beea", "blockhash": "0000000000000000001f76057863aec43deb6fa401d9628bb513d65a8098bfab", "vout": [{"scriptPubKey": {"reqSigs": 1, "hex": "a914ebc72c33066c64fa859339bd1616276fe9294efe87", "addresses": ["3PBhKP8vg95uHEhp2GnrHKM6qVz6W67PAT"], "asm": "OP_HASH160 ebc72c33066c64fa859339bd1616276fe9294efe OP_EQUAL", "type": "scripthash"}, "value": 0.01007808, "n": 0}, {"scriptPubKey": {"reqSigs": 1, "hex": "76a914b55649c194881389dbf1b54b81a544272554d14d88ac", "addresses": ["1HXpg8D9AMGFVZ9FEU2tkZYvAZ8xBhVudo"], "asm": "OP_DUP OP_HASH160 b55649c194881389dbf1b54b81a544272554d14d OP_EQUALVERIFY OP_CHECKSIG", "type": "pubkeyhash"}, "value": 0.0025236, "n": 1}], "hex": "020000000001026e2ef4021fd6a0e4c7b50b9714121c47e74d42c330eb131443b61b84d816bac50100000017160014c8b8813cb4bacbebb903935575b298355b4a793cfeffffffed4752da8d4dde1575b93aef69c438fe45bfbd494a7ee1d94dd6574e6e618e920000000017160014313c21e09bb63b528d82fab1e1a0ab9d5a5061d2feffffff02c0600f000000000017a914ebc72c33066c64fa859339bd1616276fe9294efe87c8d90300000000001976a914b55649c194881389dbf1b54b81a544272554d14d88ac02483045022100e259bab009e33c4044cba40e67696618f5db167476a9fa89154e12bb09312eb7022051e1b452f8121396bb16d6c3bae4a0dad80eb728481be0b9fb771964c88bb89801210325220948f4b796050a591233528305ef31d4d97309f25b882c39114db53efe8602473044022019dbb649d2ba959d4faaf0c314b5a5ae60f4eeae6733d70f0d1f99bd760c2598022045fad0aa00a1a8af3d8507d05f71a206003c48f59093df11dd72e11bc66cfc5201210365497c756fc3feae4dc9f3e8508c68b0fecae2ce33e665841e5ea722df0f977814490800", "vin": [{"txinwitness": ["3045022100e259bab009e33c4044cba40e67696618f5db167476a9fa89154e12bb09312eb7022051e1b452f8121396bb16d6c3bae4a0dad80eb728481be0b9fb771964c88bb89801", "0325220948f4b796050a591233528305ef31d4d97309f25b882c39114db53efe86"], "sequence": 4294967294, "scriptSig": {"hex": "160014c8b8813cb4bacbebb903935575b298355b4a793c", "asm": "0014c8b8813cb4bacbebb903935575b298355b4a793c"}, "vout": 1, "txid": "c5ba16d8841bb6431413eb30c3424de7471c1214970bb5c7e4a0d61f02f42e6e"}, {"txinwitness": ["3044022019dbb649d2ba959d4faaf0c314b5a5ae60f4eeae6733d70f0d1f99bd760c2598022045fad0aa00a1a8af3d8507d05f71a206003c48f59093df11dd72e11bc66cfc5201", "0365497c756fc3feae4dc9f3e8508c68b0fecae2ce33e665841e5ea722df0f9778"], "sequence": 4294967294, "scriptSig": {"hex": "160014313c21e09bb63b528d82fab1e1a0ab9d5a5061d2", "asm": "0014313c21e09bb63b528d82fab1e1a0ab9d5a5061d2"}, "vout": 0, "txid": "928e616e4e57d64dd9e17e4a49bdbf45fe38c469ef3ab97515de4d8dda5247ed"}], "txid": "686049f01966933ec137204d79ea911adc05720cba163347643c9ed24b505dd8", "blocktime": 1537873891, "version": 2, "confirmations": 11478, "time": 1537873891, "locktime": 542996, "vsize": 259, "size": 421}