{"hash": "80b00f75c61d777f9a8bb517b654464e7e48c38bfa88fa24f0035b164e23453e", "blockhash": "0000000000000000001cda96e906b7601b7a6fb1a3b62bca570a9e5d8f4b3de1", "vout": [{"scriptPubKey": {"reqSigs": 1, "hex": "a91438b5183c3c9916b097c807dbcb2eff113463427b87", "addresses": ["36rrhxth3Gc8kLEwJSby9dnU1ZE3R9N6xX"], "asm": "OP_HASH160 38b5183c3c9916b097c807dbcb2eff113463427b OP_EQUAL", "type": "scripthash"}, "value": 1.85469004, "n": 0}, {"scriptPubKey": {"reqSigs": 1, "hex": "76a9143d13b808fdacc0bb9150ab46dec4cbdee73d225588ac", "addresses": ["16Zwqo3sXNpjLCCSRGCDWFsQjXGNdZWnGs"], "asm": "OP_DUP OP_HASH160 3d13b808fdacc0bb9150ab46dec4cbdee73d2255 OP_EQUALVERIFY OP_CHECKSIG", "type": "pubkeyhash"}, "value": 1.5, "n": 1}, {"scriptPubKey": {"reqSigs": 1, "hex": "a914bbdd272e925365bd316c8bb8a0d053ea48c34ffc87", "addresses": ["3JpMDQ8f26xoqnkwsXfythCdXR5W3AzqHa"], "asm": "OP_HASH160 bbdd272e925365bd316c8bb8a0d053ea48c34ffc OP_EQUAL", "type": "scripthash"}, "value": 0.999, "n": 2}], "hex": "01000000000102b21be41ae67de3d7caa789e70529fdcddbcd01ec1c63c3eefe95a9c298e188ba0000000023220020f3283419c5f7e164fcce04a7d0d6fad8839fd6a7617be987cc04dfa6df484b4affffffff487a70c9766349d744c25a0fd38b75dfcd1c9e0d59418ad5c1d18dce129a69a80100000023220020485d86550dbc0ed1522c59654624f6b2f00eb84b999a53109cae139eed9cc127ffffffff034c080e0b0000000017a91438b5183c3c9916b097c807dbcb2eff113463427b8780d1f008000000001976a9143d13b808fdacc0bb9150ab46dec4cbdee73d225588ac605af4050000000017a914bbdd272e925365bd316c8bb8a0d053ea48c34ffc87040047304402203ba620a22656533f58574e2976e47f33588f08141f52479d521d6a13d10462d202207a2a07b64a0cceedb04c6d9d6c6b0065e9e866ac68e155bfd9744dd0c69d72820147304402206601d98ed80419549ebe3d522a1ceba3ea3aacc90b9a3472713add97a79a57190220676e22679bd53dcce7961ecbdc306fcc854eb431802fa2142c0569d78b5964cf0169522102544cf80f834b4ad86a79e186a7b130103ac94a1cfe31303855569590f521532221025c86998991adb4265be22a81d145fb1aab44cbaf930b23e8c95f9304cc10e7f82103bcde2bac0a4958c725530c713c65a8f000e67251140ba7b847c72f4a164f4e3653ae0400473044022028a48afdfbd7a4666b639e9649bb7cf8b233178b64c04f0f2f0c4fe140eaa89b0220060a1c7172a2d8e78e9e58d2f6b8e7b8f74b9088e801085f5096d2f03185fe0001483045022100b87a833db88f29b373e8634a960cc659fa124e276dd2d28acff83a253e0954af02202d417d2fcac2f7e86f16297c66dd4d8d97d4744e5ab03afc8ea7fc971ed13a2a01695221030808f107e243b5ead0db4c6f97dc403849ea6234a0e4b13a0b89dba3872cb93a21035a48d9b3183bdd803d640c6525cb808be6e3dec48ff9433562c958e3258fcd7d210210415c7f46ce3819c5e31372e81cb627d02d798c309d37ce27a2430bca7b095c53ae00000000", "vin": [{"txinwitness": ["", "304402203ba620a22656533f58574e2976e47f33588f08141f52479d521d6a13d10462d202207a2a07b64a0cceedb04c6d9d6c6b0065e9e866ac68e155bfd9744dd0c69d728201", "304402206601d98ed80419549ebe3d522a1ceba3ea3aacc90b9a3472713add97a79a57190220676e22679bd53dcce7961ecbdc306fcc854eb431802fa2142c0569d78b5964cf01", "522102544cf80f834b4ad86a79e186a7b130103ac94a1cfe31303855569590f521532221025c86998991adb4265be22a81d145fb1aab44cbaf930b23e8c95f9304cc10e7f82103bcde2bac0a4958c725530c713c65a8f000e67251140ba7b847c72f4a164f4e3653ae"], "sequence": 4294967295, "scriptSig": {"hex": "220020f3283419c5f7e164fcce04a7d0d6fad8839fd6a7617be987cc04dfa6df484b4a", "asm": "0020f3283419c5f7e164fcce04a7d0d6fad8839fd6a7617be987cc04dfa6df484b4a"}, "vout": 0, "txid": "ba88e198c2a995feeec3631cec01cddbcdfd2905e789a7cad7e37de61ae41bb2"}, {"txinwitness": ["", "3044022028a48afdfbd7a4666b639e9649bb7cf8b233178b64c04f0f2f0c4fe140eaa89b0220060a1c7172a2d8e78e9e58d2f6b8e7b8f74b9088e801085f5096d2f03185fe0001", "3045022100b87a833db88f29b373e8634a960cc659fa124e276dd2d28acff83a253e0954af02202d417d2fcac2f7e86f16297c66dd4d8d97d4744e5ab03afc8ea7fc971ed13a2a01", "5221030808f107e243b5ead0db4c6f97dc403849ea6234a0e4b13a0b89dba3872cb93a21035a48d9b3183bdd803d640c6525cb808be6e3dec48ff9433562c958e3258fcd7d210210415c7f46ce3819c5e31372e81cb627d02d798c309d37ce27a2430bca7b095c53ae"], "sequence": 4294967295, "scriptSig": {"hex": "220020485d86550dbc0ed1522c59654624f6b2f00eb84b999a53109cae139eed9cc127", "asm": "0020485d86550dbc0ed1522c59654624f6b2f00eb84b999a53109cae139eed9cc127"}, "vout": 1, "txid": "a8699a12ce8dd1c1d58a41590d9e1ccddf758bd30f5ac244d7496376c9707a48"}], "txid": "68626fadeb01776d32c94807bae1e95f876ffd19cb4f66bf4c507c6fbd5aaee6", "blocktime": 1537873282, "version": 1, "confirmations": 11484, "time": 1537873282, "locktime": 0, "vsize": 387, "size": 767}