{"hash": "f0f9672a61c0dc92cc1adb138909ea8597c65a78a1a524501b44c928294f570b", "blockhash": "0000000000000000001cda96e906b7601b7a6fb1a3b62bca570a9e5d8f4b3de1", "vout": [{"scriptPubKey": {"reqSigs": 1, "hex": "001444bb924570d9a282c30a36ae0438306d57a1f923", "addresses": ["bc1qgjaey3tsmx3g9sc2x6hqgwpsd4t6r7frnj6k73"], "asm": "0 44bb924570d9a282c30a36ae0438306d57a1f923", "type": "witness_v0_keyhash"}, "value": 0.43073012, "n": 0}, {"scriptPubKey": {"reqSigs": 1, "hex": "76a91455d081ac4f9f49c243bfa88f0c323169fe65849a88ac", "addresses": ["18pkDbS3cyzz2RCnRVD5SZ1ZRArvkQfEhH"], "asm": "OP_DUP OP_HASH160 55d081ac4f9f49c243bfa88f0c323169fe65849a OP_EQUALVERIFY OP_CHECKSIG", "type": "pubkeyhash"}, "value": 0.069264, "n": 1}], "hex": "010000000001019a742afd66e5ad3db3f63175d13bb55b097d9dc5ea2f4f5fa86fceb691fc28420100000017160014527e0bdce0c51d52792b354cdc4620ed06ab527cffffffff02f43d91020000000016001444bb924570d9a282c30a36ae0438306d57a1f92340b06900000000001976a91455d081ac4f9f49c243bfa88f0c323169fe65849a88ac0247304402200e32721c91950b481e3bd9fad11ca9e98f33e8451d5165d97b91a2bda79cc5f40220173559a94c3c0c09b8bfbc4d01e7a8732f6f83b4500b3eec9b2c5fe9a1589cf10121039c24273a58234a99a5749ff577f45004b96dfe59e45842c6f2731481281c0b6800000000", "vin": [{"txinwitness": ["304402200e32721c91950b481e3bd9fad11ca9e98f33e8451d5165d97b91a2bda79cc5f40220173559a94c3c0c09b8bfbc4d01e7a8732f6f83b4500b3eec9b2c5fe9a1589cf101", "039c24273a58234a99a5749ff577f45004b96dfe59e45842c6f2731481281c0b68"], "sequence": 4294967295, "scriptSig": {"hex": "160014527e0bdce0c51d52792b354cdc4620ed06ab527c", "asm": "0014527e0bdce0c51d52792b354cdc4620ed06ab527c"}, "vout": 1, "txid": "4228fc91b6ce6fa85f4f2feac59d7d095bb53bd17531f6b33dade566fd2a749a"}], "txid": "686674af5cb94f77cf2e6fcf21500bfba1f5f3bd2b3e504ca5538bc2fce162ca", "blocktime": 1537873282, "version": 1, "confirmations": 11484, "time": 1537873282, "locktime": 0, "vsize": 167, "size": 248}