{"hash": "68667643569d90bf3312a0e3bb106a76ce58e009f08222f90bb318a62bb7490f", "blockhash": "0000000000000000001cda96e906b7601b7a6fb1a3b62bca570a9e5d8f4b3de1", "vout": [{"scriptPubKey": {"reqSigs": 1, "hex": "76a914f7d143e30d2f70e60355bf85341f7ef7515e2bf588ac", "addresses": ["1PbLbP9tHm7Nrt6QpQ41xoLxbZbQJojEo2"], "asm": "OP_DUP OP_HASH160 f7d143e30d2f70e60355bf85341f7ef7515e2bf5 OP_EQUALVERIFY OP_CHECKSIG", "type": "pubkeyhash"}, "value": 6.3e-06, "n": 0}, {"scriptPubKey": {"reqSigs": 1, "hex": "a914e1ac6dae26647bf2702c830ef3a1c3013857b5b987", "addresses": ["3NGGXF5Xnkxm3NdtierM53ByAF9iZ5TpJT"], "asm": "OP_HASH160 e1ac6dae26647bf2702c830ef3a1c3013857b5b9 OP_EQUAL", "type": "scripthash"}, "value": 0.00060594, "n": 1}], "hex": "0100000002011300202a7d951c36bfe8cc5ace6363fe4b92a063b31eee2fedea1d2ad34ca3000000006b4830450221009fd672f983d44aab5cd668e73d0abc46573af0c67533ff1c7716dd66241d37e102200d3c822838a0164ec581fe043956c226ac0278ebdb47c31f78e7c2bc97bc09e7012103793eb42a6149ad6b0a921ff022fbbe554b80057c091f2b388d75811b2baf287effffffffad4c9b83d5f0c07b45ad2df79db9aa97b4590582f4ec82a3609cc1247369a9ac000000006b483045022100cf7f317ffbd7cb3fead911b13982736db08591d7d8d6b1128844c1de40f0ee730220095cfb6b6064ecbfa7e7568891e329f611339992712b2ae2a4a5e556601c867c012102ee4ddef0155be3d3749e4ad7444285d5c18ed8802e0cdc54a9fd4a5f452e3350ffffffff0276020000000000001976a914f7d143e30d2f70e60355bf85341f7ef7515e2bf588acb2ec00000000000017a914e1ac6dae26647bf2702c830ef3a1c3013857b5b98700000000", "vin": [{"sequence": 4294967295, "scriptSig": {"hex": "4830450221009fd672f983d44aab5cd668e73d0abc46573af0c67533ff1c7716dd66241d37e102200d3c822838a0164ec581fe043956c226ac0278ebdb47c31f78e7c2bc97bc09e7012103793eb42a6149ad6b0a921ff022fbbe554b80057c091f2b388d75811b2baf287e", "asm": "30450221009fd672f983d44aab5cd668e73d0abc46573af0c67533ff1c7716dd66241d37e102200d3c822838a0164ec581fe043956c226ac0278ebdb47c31f78e7c2bc97bc09e7[ALL] 03793eb42a6149ad6b0a921ff022fbbe554b80057c091f2b388d75811b2baf287e"}, "vout": 0, "txid": "a34cd32a1deaed2fee1eb363a0924bfe6363ce5acce8bf361c957d2a20001301"}, {"sequence": 4294967295, "scriptSig": {"hex": "483045022100cf7f317ffbd7cb3fead911b13982736db08591d7d8d6b1128844c1de40f0ee730220095cfb6b6064ecbfa7e7568891e329f611339992712b2ae2a4a5e556601c867c012102ee4ddef0155be3d3749e4ad7444285d5c18ed8802e0cdc54a9fd4a5f452e3350", "asm": "3045022100cf7f317ffbd7cb3fead911b13982736db08591d7d8d6b1128844c1de40f0ee730220095cfb6b6064ecbfa7e7568891e329f611339992712b2ae2a4a5e556601c867c[ALL] 02ee4ddef0155be3d3749e4ad7444285d5c18ed8802e0cdc54a9fd4a5f452e3350"}, "vout": 0, "txid": "aca9697324c19c60a382ecf4820559b497aab99df72dad457bc0f0d5839b4cad"}], "txid": "68667643569d90bf3312a0e3bb106a76ce58e009f08222f90bb318a62bb7490f", "blocktime": 1537873282, "version": 1, "confirmations": 11485, "time": 1537873282, "locktime": 0, "vsize": 372, "size": 372}