{"hash": "6868fc8da9bfe69a5547ce5c2223ecce256a0a87c6b761055c41cab3436c457d", "blockhash": "00000000000000000017f5eb5941039fbcee6240d03bc1f2f8e35350df66a1d8", "vout": [{"scriptPubKey": {"reqSigs": 1, "hex": "76a914370f6da0bcd795b66abce7d407255f2ffea89a0d88ac", "addresses": ["1628eXLuT4cF5vfXKoVCqiyLefRDXx57bR"], "asm": "OP_DUP OP_HASH160 370f6da0bcd795b66abce7d407255f2ffea89a0d OP_EQUALVERIFY OP_CHECKSIG", "type": "pubkeyhash"}, "value": 0.003855, "n": 0}], "hex": "0100000003a5d4edb576a0cb0ecd7b738f614f7aac2604c68c5d7cdbf0544f135ac36fec01000000006b483045022100abcc53d52ea8ff1366dd65a4b57bc400a614a7c3e4cf5e16eafecd47e04ea03902205f313e180403b18cd8065cfd7fb250f4036ed9895377de9c3070054ad31f5f3f012103cbc825a7a2c299802e8e1b6c456334632068d06107129ffbe5fc83929729be7cffffffff459ecb03681fecda4975ca6ebe99046e0870c953e4be6364b4e0430059dd24210c0000006a473044022075c60303520835fab18df550359308ec0800ec941c7b7f662475845e7dc4df07022045add17b12aad936417b965e0fbaa4e7765d5e8604dc5973c63885459f4c93b9012102d21b2f97666e2e399279b22b270e4eb3463ff3e4678f8470913da37032c61decffffffffa0514fa81ee60e22e234315c0d384e04746d4b0a5482d32fe2877f9fb22c227a000000006b483045022100e4599b0627db6631e063947cf93b3b6d1c03820f398531280097c10b88d81dfb022008f2b2615964709575cabbd271873d32b7bc1440ba19ef8a9410058a4ad42aa4012102d21b2f97666e2e399279b22b270e4eb3463ff3e4678f8470913da37032c61decffffffff01dce10500000000001976a914370f6da0bcd795b66abce7d407255f2ffea89a0d88ac00000000", "vin": [{"sequence": 4294967295, "scriptSig": {"hex": "483045022100abcc53d52ea8ff1366dd65a4b57bc400a614a7c3e4cf5e16eafecd47e04ea03902205f313e180403b18cd8065cfd7fb250f4036ed9895377de9c3070054ad31f5f3f012103cbc825a7a2c299802e8e1b6c456334632068d06107129ffbe5fc83929729be7c", "asm": "3045022100abcc53d52ea8ff1366dd65a4b57bc400a614a7c3e4cf5e16eafecd47e04ea03902205f313e180403b18cd8065cfd7fb250f4036ed9895377de9c3070054ad31f5f3f[ALL] 03cbc825a7a2c299802e8e1b6c456334632068d06107129ffbe5fc83929729be7c"}, "vout": 0, "txid": "01ec6fc35a134f54f0db7c5d8cc60426ac7a4f618f737bcd0ecba076b5edd4a5"}, {"sequence": 4294967295, "scriptSig": {"hex": "473044022075c60303520835fab18df550359308ec0800ec941c7b7f662475845e7dc4df07022045add17b12aad936417b965e0fbaa4e7765d5e8604dc5973c63885459f4c93b9012102d21b2f97666e2e399279b22b270e4eb3463ff3e4678f8470913da37032c61dec", "asm": "3044022075c60303520835fab18df550359308ec0800ec941c7b7f662475845e7dc4df07022045add17b12aad936417b965e0fbaa4e7765d5e8604dc5973c63885459f4c93b9[ALL] 02d21b2f97666e2e399279b22b270e4eb3463ff3e4678f8470913da37032c61dec"}, "vout": 12, "txid": "2124dd590043e0b46463bee453c970086e0499be6eca7549daec1f6803cb9e45"}, {"sequence": 4294967295, "scriptSig": {"hex": "483045022100e4599b0627db6631e063947cf93b3b6d1c03820f398531280097c10b88d81dfb022008f2b2615964709575cabbd271873d32b7bc1440ba19ef8a9410058a4ad42aa4012102d21b2f97666e2e399279b22b270e4eb3463ff3e4678f8470913da37032c61dec", "asm": "3045022100e4599b0627db6631e063947cf93b3b6d1c03820f398531280097c10b88d81dfb022008f2b2615964709575cabbd271873d32b7bc1440ba19ef8a9410058a4ad42aa4[ALL] 02d21b2f97666e2e399279b22b270e4eb3463ff3e4678f8470913da37032c61dec"}, "vout": 0, "txid": "7a222cb29f7f87e22fd382540a4b6d74044e380d5c3134e2220ee61ea84f51a0"}], "txid": "6868fc8da9bfe69a5547ce5c2223ecce256a0a87c6b761055c41cab3436c457d", "blocktime": 1537874412, "version": 1, "confirmations": 11467, "time": 1537874412, "locktime": 0, "vsize": 487, "size": 487}