{"hash": "686ad68941db7813e56dd0014865446fb0d0fcf0a3606b228219f2e34de247f1", "blockhash": "0000000000000000001cda96e906b7601b7a6fb1a3b62bca570a9e5d8f4b3de1", "vout": [{"scriptPubKey": {"reqSigs": 1, "hex": "76a914105e875f0f4847f883e372ab5a5f2d135a0b4dc988ac", "addresses": ["12VZ43cZpk46b3MCZM9kgLFLD9hjdrGhVP"], "asm": "OP_DUP OP_HASH160 105e875f0f4847f883e372ab5a5f2d135a0b4dc9 OP_EQUALVERIFY OP_CHECKSIG", "type": "pubkeyhash"}, "value": 0.00311002, "n": 0}], "hex": "0100000001fbcfd1a404bf01ae4857d8875b0b3d18a9b1fde469d65596296e5a9b4bf53039010000006b483045022100fba65378ef96bafe8433772fcd46563dd3eb53c50d26e34a18dd10f8c327220502203f49411a74a2b04df7a4c8c390852d441d336a3282ca0f131418c300151f6dfa01210315ae71898412e6e57c63ae34b45589129d29d1b20e5d0789241753926b87b54fffffffff01dabe0400000000001976a914105e875f0f4847f883e372ab5a5f2d135a0b4dc988ac00000000", "vin": [{"sequence": 4294967295, "scriptSig": {"hex": "483045022100fba65378ef96bafe8433772fcd46563dd3eb53c50d26e34a18dd10f8c327220502203f49411a74a2b04df7a4c8c390852d441d336a3282ca0f131418c300151f6dfa01210315ae71898412e6e57c63ae34b45589129d29d1b20e5d0789241753926b87b54f", "asm": "3045022100fba65378ef96bafe8433772fcd46563dd3eb53c50d26e34a18dd10f8c327220502203f49411a74a2b04df7a4c8c390852d441d336a3282ca0f131418c300151f6dfa[ALL] 0315ae71898412e6e57c63ae34b45589129d29d1b20e5d0789241753926b87b54f"}, "vout": 1, "txid": "3930f54b9b5a6e299655d669e4fdb1a9183d0b5b87d85748ae01bf04a4d1cffb"}], "txid": "686ad68941db7813e56dd0014865446fb0d0fcf0a3606b228219f2e34de247f1", "blocktime": 1537873282, "version": 1, "confirmations": 11484, "time": 1537873282, "locktime": 0, "vsize": 192, "size": 192}