{"hash": "686d22edbe2c9e89ca1eb894653e1ee518514a17338ddee04d92fd24a6b1298b", "blockhash": "0000000000000000001f0ddff1eddb255c1121bcd4da4f1bc9a0da00cae72433", "vout": [{"scriptPubKey": {"reqSigs": 1, "hex": "0014fab34b1afc3d0aadbcd9d8c95bce1195daa1a4c6", "addresses": ["bc1ql2e5kxhu8592m0xemry4hns3jhd2rfxxpkpe0q"], "asm": "0 fab34b1afc3d0aadbcd9d8c95bce1195daa1a4c6", "type": "witness_v0_keyhash"}, "value": 0.0264684, "n": 0}, {"scriptPubKey": {"reqSigs": 1, "hex": "76a914c612cab6a9f50adefabcf4f1437541c2cba4f7f688ac", "addresses": ["1K4KJfTSav2jB63xUVw9xDpj5pGU7m9U7t"], "asm": "OP_DUP OP_HASH160 c612cab6a9f50adefabcf4f1437541c2cba4f7f6 OP_EQUALVERIFY OP_CHECKSIG", "type": "pubkeyhash"}, "value": 0.04626948, "n": 1}], "hex": "01000000014a0c2fbe48917cba927fb3e7fb10083059ad1cecd338f1e01af6028ba4fea653010000006a473044022026e773e3c7f330ceea50c30025a7d3f66b2a42a71945baf56ba7969844221f2802202668610f6ec491f8cd1c9079b7eee36c61397f2cde8cd34d5b7a1aea9daf03b80121025fdcadca54c18b365c01a923d1b79e43aa17d153b763ea0d1da7ea0aa75f70f6fdffffff023863280000000000160014fab34b1afc3d0aadbcd9d8c95bce1195daa1a4c6049a4600000000001976a914c612cab6a9f50adefabcf4f1437541c2cba4f7f688ac11490800", "vin": [{"sequence": 4294967293, "scriptSig": {"hex": "473044022026e773e3c7f330ceea50c30025a7d3f66b2a42a71945baf56ba7969844221f2802202668610f6ec491f8cd1c9079b7eee36c61397f2cde8cd34d5b7a1aea9daf03b80121025fdcadca54c18b365c01a923d1b79e43aa17d153b763ea0d1da7ea0aa75f70f6", "asm": "3044022026e773e3c7f330ceea50c30025a7d3f66b2a42a71945baf56ba7969844221f2802202668610f6ec491f8cd1c9079b7eee36c61397f2cde8cd34d5b7a1aea9daf03b8[ALL] 025fdcadca54c18b365c01a923d1b79e43aa17d153b763ea0d1da7ea0aa75f70f6"}, "vout": 1, "txid": "53a6fea48b02f61ae0f138d3ec1cad59300810fbe7b37f92ba7c9148be2f0c4a"}], "txid": "686d22edbe2c9e89ca1eb894653e1ee518514a17338ddee04d92fd24a6b1298b", "blocktime": 1537872018, "version": 1, "confirmations": 11489, "time": 1537872018, "locktime": 542993, "vsize": 222, "size": 222}