{"hash": "686dba7645dca55142edd1a6e220aece3f01a7aaf62310ac192601a81d823513", "blockhash": "00000000000000000024a2167bbff67b0be802c0b01cdd79e6331c2be6459f87", "vout": [{"scriptPubKey": {"reqSigs": 1, "hex": "76a914fdeafcd969e1d28ee855cf0a758d418141386c9788ac", "addresses": ["1Q9bTmKnTeK5hZtj5Qu4zoHvx5n8uB3eeY"], "asm": "OP_DUP OP_HASH160 fdeafcd969e1d28ee855cf0a758d418141386c97 OP_EQUALVERIFY OP_CHECKSIG", "type": "pubkeyhash"}, "value": 0.00100457, "n": 0}, {"scriptPubKey": {"reqSigs": 1, "hex": "76a9141fd94a532cec77e791750e809d10c84eace9157088ac", "addresses": ["13uQFYXtc5P5GteUxcB7zBVoSyHNYQ1xhs"], "asm": "OP_DUP OP_HASH160 1fd94a532cec77e791750e809d10c84eace91570 OP_EQUALVERIFY OP_CHECKSIG", "type": "pubkeyhash"}, "value": 0.05125424, "n": 1}], "hex": "020000000194512ae5bdc1248ded146ab8f08b7e9289bd18e7c95bb9e3d67f6401e4961152010000006b483045022100e27af1bb95c5220bad0f22e46e3b126cc18830c17153ac54997dbc35bdeaf4d302202b00d62f2b66a3f2b21c9fe60aafa3fd2621035c71e0e69d3679a9667b2e500b0121033bed0a7947bdc21c224583d22f6fe349a54d6cc06f5acac5570b67b05cf40602ffffffff0269880100000000001976a914fdeafcd969e1d28ee855cf0a758d418141386c9788ac30354e00000000001976a9141fd94a532cec77e791750e809d10c84eace9157088ac00000000", "vin": [{"sequence": 4294967295, "scriptSig": {"hex": "483045022100e27af1bb95c5220bad0f22e46e3b126cc18830c17153ac54997dbc35bdeaf4d302202b00d62f2b66a3f2b21c9fe60aafa3fd2621035c71e0e69d3679a9667b2e500b0121033bed0a7947bdc21c224583d22f6fe349a54d6cc06f5acac5570b67b05cf40602", "asm": "3045022100e27af1bb95c5220bad0f22e46e3b126cc18830c17153ac54997dbc35bdeaf4d302202b00d62f2b66a3f2b21c9fe60aafa3fd2621035c71e0e69d3679a9667b2e500b[ALL] 033bed0a7947bdc21c224583d22f6fe349a54d6cc06f5acac5570b67b05cf40602"}, "vout": 1, "txid": "521196e401647fd6e3b95bc9e718bd89927e8bf0b86a14ed8d24c1bde52a5194"}], "txid": "686dba7645dca55142edd1a6e220aece3f01a7aaf62310ac192601a81d823513", "blocktime": 1537870564, "version": 2, "confirmations": 11515, "time": 1537870564, "locktime": 0, "vsize": 226, "size": 226}