{"hash": "ccd9dfee4230ef3bc6a2317d8873bcac095c5172b22eda77db88a129eb100711", "blockhash": "00000000000000000017f5eb5941039fbcee6240d03bc1f2f8e35350df66a1d8", "vout": [{"scriptPubKey": {"reqSigs": 1, "hex": "0014df210ec71a88b871805f79e7b6f7319500112345", "addresses": ["bc1qmussa3c63zu8rqzl08nmdae3j5qpzg69jc5m6r"], "asm": "0 df210ec71a88b871805f79e7b6f7319500112345", "type": "witness_v0_keyhash"}, "value": 0.00874207, "n": 0}, {"scriptPubKey": {"reqSigs": 1, "hex": "76a914bbfa597f82d5db47550a8f566ba150e5958f2bfb88ac", "addresses": ["1J8wGU7vvxBuAbhQHyDLVD8D6aRAXdfePF"], "asm": "OP_DUP OP_HASH160 bbfa597f82d5db47550a8f566ba150e5958f2bfb OP_EQUALVERIFY OP_CHECKSIG", "type": "pubkeyhash"}, "value": 0.0510744, "n": 1}], "hex": "0100000000010176ab69a83ee2242bea57437ba2c3726bfa7e0b9ceeb86ae638a15b9f2584cd620100000000ffffffff02df560d0000000000160014df210ec71a88b871805f79e7b6f7319500112345f0ee4d00000000001976a914bbfa597f82d5db47550a8f566ba150e5958f2bfb88ac02483045022100ce91fe585b3270d3286ee01e4f9e11cf653746958f9d3b52b5525f56d2f801fd02201403769c4a1a4e59ba2b72bd5df9856297eb095fb3c9fb556cf2f1fc2fa41ed7012103b0b5dfb4f291bf22d0e632b74cd0976634a11a4b70558fb4cf5f0be00b0da14900000000", "vin": [{"txinwitness": ["3045022100ce91fe585b3270d3286ee01e4f9e11cf653746958f9d3b52b5525f56d2f801fd02201403769c4a1a4e59ba2b72bd5df9856297eb095fb3c9fb556cf2f1fc2fa41ed701", "03b0b5dfb4f291bf22d0e632b74cd0976634a11a4b70558fb4cf5f0be00b0da149"], "sequence": 4294967295, "scriptSig": {"hex": "", "asm": ""}, "vout": 1, "txid": "62cd84259f5ba138e66ab8ee9c0b7efa6b72c3a27b4357ea2b24e23ea869ab76"}], "txid": "6872ee0895e337639cf7a73a15984ba61e05f82514dd021fd43e25b18b9066b6", "blocktime": 1537874412, "version": 1, "confirmations": 11467, "time": 1537874412, "locktime": 0, "vsize": 144, "size": 226}