{"hash": "ba26aa26387f2a97aa061b6d576322e009a4753b23f75348202f5af15ac0111f", "blockhash": "0000000000000000001e0dab787dd257d1dbfcb92a98c2207d5e1078be1f4165", "vout": [{"scriptPubKey": {"reqSigs": 1, "hex": "002058c8797f181e000075cb9a18a9662013b795012e86acc04d56a2d229e7b8d7c4", "addresses": ["bc1qtry8jlccrcqqqawtngv2je3qzwme2qfws6kvqn2k5tfzneac6lzqpgummp"], "asm": "0 58c8797f181e000075cb9a18a9662013b795012e86acc04d56a2d229e7b8d7c4", "type": "witness_v0_scripthash"}, "value": 0.00119574, "n": 0}], "hex": "01000000000101ea14ab7c79dd53a058c19d7587a1d392bc9d017f998a2b705e4c641e3e95f32600000000171600141494361aca9f8d9f7fde5c0c35b4ade42dbc2e4dffffffff0116d301000000000022002058c8797f181e000075cb9a18a9662013b795012e86acc04d56a2d229e7b8d7c40247304402205b20fb12410a90809d3326dab11446a334a9818f8aad5df40f8f8bc094813c1f02207ee59b4eb005fe4e29796c0f267318eda2488d41ddce41c8accd8a855c5ad81b012103341d76be956a9cff293b6353beff9da9c0979b0e08d73f9e54c1dcccf61615e800000000", "vin": [{"txinwitness": ["304402205b20fb12410a90809d3326dab11446a334a9818f8aad5df40f8f8bc094813c1f02207ee59b4eb005fe4e29796c0f267318eda2488d41ddce41c8accd8a855c5ad81b01", "03341d76be956a9cff293b6353beff9da9c0979b0e08d73f9e54c1dcccf61615e8"], "sequence": 4294967295, "scriptSig": {"hex": "1600141494361aca9f8d9f7fde5c0c35b4ade42dbc2e4d", "asm": "00141494361aca9f8d9f7fde5c0c35b4ade42dbc2e4d"}, "vout": 0, "txid": "26f3953e1e644c5e702b8a997f019dbc92d3a187759dc158a053dd797cab14ea"}], "txid": "6875c682acba967652ab38f20e666194c4b1e0ab5c3ce106fb3db36cdd764c83", "blocktime": 1537872475, "version": 1, "confirmations": 11487, "time": 1537872475, "locktime": 0, "vsize": 145, "size": 226}