{"hash": "6879f235651b82311d80381952ee71f69e9cacff22c6509e2563221aa0321f4a", "blockhash": "0000000000000000000e13cef7c366c0283d82e591d1acd082e914b08063cdf1", "vout": [{"scriptPubKey": {"reqSigs": 1, "hex": "76a914d243e6abb9a60fbff430b421d2df4b7d59ec186088ac", "addresses": ["1LAnF8h3qMGx3TSwNUHVneBZUEpwE4gu3D"], "asm": "OP_DUP OP_HASH160 d243e6abb9a60fbff430b421d2df4b7d59ec1860 OP_EQUALVERIFY OP_CHECKSIG", "type": "pubkeyhash"}, "value": 0.00077314, "n": 0}, {"scriptPubKey": {"reqSigs": 1, "hex": "76a91477d67e9ce65ae268d35f1d4061a75d57df9666f488ac", "addresses": ["1BveNB1hn24ZjnL6Xc7CWxuQGUv2HNqza9"], "asm": "OP_DUP OP_HASH160 77d67e9ce65ae268d35f1d4061a75d57df9666f4 OP_EQUALVERIFY OP_CHECKSIG", "type": "pubkeyhash"}, "value": 5.46e-06, "n": 1}, {"scriptPubKey": {"type": "nulldata", "hex": "6a146f6d6e69000000000000001f00000016e91814b0", "asm": "OP_RETURN 6f6d6e69000000000000001f00000016e91814b0"}, "value": 0.0, "n": 2}], "hex": "01000000013b59e4923bfadb6b2bd51c59aa664c55e5f478f14b78445c1ab719f2d94474e3000000006a473044022001c39276c48c3ae35c947396b56d965658a6da824fa79bbf7c2bc52a6f797f05022035482ddecd88e6b7c2d1618dd954b0d59404eb4ef08d3ebf946ad230619fe5f501210271977291b74f1f5f5c42157e8aae804664eaaeccfd097918450d37f28fb94d77ffffffff03022e0100000000001976a914d243e6abb9a60fbff430b421d2df4b7d59ec186088ac22020000000000001976a91477d67e9ce65ae268d35f1d4061a75d57df9666f488ac0000000000000000166a146f6d6e69000000000000001f00000016e91814b000000000", "vin": [{"sequence": 4294967295, "scriptSig": {"hex": "473044022001c39276c48c3ae35c947396b56d965658a6da824fa79bbf7c2bc52a6f797f05022035482ddecd88e6b7c2d1618dd954b0d59404eb4ef08d3ebf946ad230619fe5f501210271977291b74f1f5f5c42157e8aae804664eaaeccfd097918450d37f28fb94d77", "asm": "3044022001c39276c48c3ae35c947396b56d965658a6da824fa79bbf7c2bc52a6f797f05022035482ddecd88e6b7c2d1618dd954b0d59404eb4ef08d3ebf946ad230619fe5f5[ALL] 0271977291b74f1f5f5c42157e8aae804664eaaeccfd097918450d37f28fb94d77"}, "vout": 0, "txid": "e37444d9f219b71a5c44784bf178f4e5554c66aa591cd52b6bdbfa3b92e4593b"}], "txid": "6879f235651b82311d80381952ee71f69e9cacff22c6509e2563221aa0321f4a", "blocktime": 1537871767, "version": 1, "confirmations": 11491, "time": 1537871767, "locktime": 0, "vsize": 256, "size": 256}