{"hash": "de97c06a32929d9f9ff4b1aa1ea446dde2b549c3abd8ba5115841b1a5c72093b", "blockhash": "00000000000000000018f53835495a110e01622372bf6ae95dc86f2b0ab887b0", "vout": [{"scriptPubKey": {"reqSigs": 1, "hex": "76a914448a85eeb42b3609eb3cccb5cc4e57b0a89b669b88ac", "addresses": ["17FQtobJv2M8kFaHUBMZne1auDRgJNYZG4"], "asm": "OP_DUP OP_HASH160 448a85eeb42b3609eb3cccb5cc4e57b0a89b669b OP_EQUALVERIFY OP_CHECKSIG", "type": "pubkeyhash"}, "value": 0.01077747, "n": 0}, {"scriptPubKey": {"reqSigs": 1, "hex": "a91407ccc4abc71800741b529bf8589011f7c46df6ba87", "addresses": ["32QFxS7L8hsNXnw445csqzm8ei5Ngbffcd"], "asm": "OP_HASH160 07ccc4abc71800741b529bf8589011f7c46df6ba OP_EQUAL", "type": "scripthash"}, "value": 0.01988633, "n": 1}], "hex": "0200000000010138d0a056e95c53a0b5e3456fc403553930dacfccebb352cc036fdbdbc52044ae0100000017160014dbc41e4160d7a16671c3997304bbf3a7a194fbdbffffffff02f3711000000000001976a914448a85eeb42b3609eb3cccb5cc4e57b0a89b669b88ac19581e000000000017a91407ccc4abc71800741b529bf8589011f7c46df6ba870247304402201f6f98a956471d01885b1b64b94917dcfeb3fc46f86eec618a40bff32dd9921b02205aa1c06f4039e4b1502be9702b4c1ed527a9a88a6f5e284d367c9b86ce6ec24a012102d2301d15751b69085af51a9fc1f0b6fd2dd46d924e7a153a6316d2c29b4ea35a00000000", "vin": [{"txinwitness": ["304402201f6f98a956471d01885b1b64b94917dcfeb3fc46f86eec618a40bff32dd9921b02205aa1c06f4039e4b1502be9702b4c1ed527a9a88a6f5e284d367c9b86ce6ec24a01", "02d2301d15751b69085af51a9fc1f0b6fd2dd46d924e7a153a6316d2c29b4ea35a"], "sequence": 4294967295, "scriptSig": {"hex": "160014dbc41e4160d7a16671c3997304bbf3a7a194fbdb", "asm": "0014dbc41e4160d7a16671c3997304bbf3a7a194fbdb"}, "vout": 1, "txid": "ae4420c5dbdb6f03cc52b3ebcccfda30395503c46f45e3b5a0535ce956a0d038"}], "txid": "687a95aa58aeb7f5b615fcf40eb2f09ea77b86cfb8a9ef304bc61a867698c048", "blocktime": 1537870928, "version": 2, "confirmations": 11512, "time": 1537870928, "locktime": 0, "vsize": 168, "size": 249}