{"hash": "687b853c7e44acb234097e81da5b6c521b37734e6fb650a037b2ba47760f14a1", "blockhash": "0000000000000000001f76057863aec43deb6fa401d9628bb513d65a8098bfab", "vout": [{"scriptPubKey": {"reqSigs": 1, "hex": "76a914e11ab5ceb4d1e8070aad7213fd420ee1fef10ba088ac", "addresses": ["1MXF323k9hoRucsTRdKES5GHgGZyCs95Df"], "asm": "OP_DUP OP_HASH160 e11ab5ceb4d1e8070aad7213fd420ee1fef10ba0 OP_EQUALVERIFY OP_CHECKSIG", "type": "pubkeyhash"}, "value": 0.00156066, "n": 0}, {"scriptPubKey": {"reqSigs": 1, "hex": "76a914d744829bd684c6cb9b8e651e2706098046c86eda88ac", "addresses": ["1LdEMR58VA9ZvGYWgBS41J4QMUfakv7KW4"], "asm": "OP_DUP OP_HASH160 d744829bd684c6cb9b8e651e2706098046c86eda OP_EQUALVERIFY OP_CHECKSIG", "type": "pubkeyhash"}, "value": 0.01187644, "n": 1}], "hex": "0100000001b56d141909c4c5e62f20483207c07956d78b6f5044484e0945b9be5eaea93314010000006b483045022100eb453ebff473408aa43c57575d89a5017f44048a2bd9b183210227b02297ca8202206185f8257afd647e24f66b32c90eeba339ecfb9770021fc6b0b5f734cb8ace5e01210284397f2de3bf81722aa2292430118124db21ba65f5e254bcdf0b5ddd0e96c54cffffffff02a2610200000000001976a914e11ab5ceb4d1e8070aad7213fd420ee1fef10ba088ac3c1f1200000000001976a914d744829bd684c6cb9b8e651e2706098046c86eda88ac00000000", "vin": [{"sequence": 4294967295, "scriptSig": {"hex": "483045022100eb453ebff473408aa43c57575d89a5017f44048a2bd9b183210227b02297ca8202206185f8257afd647e24f66b32c90eeba339ecfb9770021fc6b0b5f734cb8ace5e01210284397f2de3bf81722aa2292430118124db21ba65f5e254bcdf0b5ddd0e96c54c", "asm": "3045022100eb453ebff473408aa43c57575d89a5017f44048a2bd9b183210227b02297ca8202206185f8257afd647e24f66b32c90eeba339ecfb9770021fc6b0b5f734cb8ace5e[ALL] 0284397f2de3bf81722aa2292430118124db21ba65f5e254bcdf0b5ddd0e96c54c"}, "vout": 1, "txid": "1433a9ae5ebeb945094e4844506f8bd75679c0073248202fe6c5c40919146db5"}], "txid": "687b853c7e44acb234097e81da5b6c521b37734e6fb650a037b2ba47760f14a1", "blocktime": 1537873891, "version": 1, "confirmations": 11478, "time": 1537873891, "locktime": 0, "vsize": 226, "size": 226}