{"hash": "687ea991e8d9982319e2e065e9e24da601cd22a1db861af3b476af696342973c", "blockhash": "0000000000000000001cda96e906b7601b7a6fb1a3b62bca570a9e5d8f4b3de1", "vout": [{"scriptPubKey": {"reqSigs": 1, "hex": "a914055dea80cd9648312ca2dbbc59291922ad1735a887", "addresses": ["32BPouKgMf83YE8ySJ5C6ui1R1Y9YT2wUW"], "asm": "OP_HASH160 055dea80cd9648312ca2dbbc59291922ad1735a8 OP_EQUAL", "type": "scripthash"}, "value": 0.001556, "n": 0}, {"scriptPubKey": {"reqSigs": 1, "hex": "76a914c426bc69fd9ebaf6fa6f799a49a466b5503d13e888ac", "addresses": ["1Jt9r2KLAXPohTYD2bZf6j4gSFPNrewAtf"], "asm": "OP_DUP OP_HASH160 c426bc69fd9ebaf6fa6f799a49a466b5503d13e8 OP_EQUALVERIFY OP_CHECKSIG", "type": "pubkeyhash"}, "value": 0.17921663, "n": 1}], "hex": "010000000169c94812c6ef81b6150d1886db324f789948b2575c69b3c6cf3601fd11ea87ce000000006a473044022073bd6e504aa22f0212c84a53eb84894661f6ff3a08c1817d5f7e98234408a4ad022076cdc65215bab7a22c55802293565a0394457de0ebc519d3c95b2a3c0297d57e012103dbcebcc7b18f0f108f0cbd774a88815b9b4dbffdfd5b519b8643c2f6646e52f4ffffffff02d05f02000000000017a914055dea80cd9648312ca2dbbc59291922ad1735a8877f761101000000001976a914c426bc69fd9ebaf6fa6f799a49a466b5503d13e888ac00000000", "vin": [{"sequence": 4294967295, "scriptSig": {"hex": "473044022073bd6e504aa22f0212c84a53eb84894661f6ff3a08c1817d5f7e98234408a4ad022076cdc65215bab7a22c55802293565a0394457de0ebc519d3c95b2a3c0297d57e012103dbcebcc7b18f0f108f0cbd774a88815b9b4dbffdfd5b519b8643c2f6646e52f4", "asm": "3044022073bd6e504aa22f0212c84a53eb84894661f6ff3a08c1817d5f7e98234408a4ad022076cdc65215bab7a22c55802293565a0394457de0ebc519d3c95b2a3c0297d57e[ALL] 03dbcebcc7b18f0f108f0cbd774a88815b9b4dbffdfd5b519b8643c2f6646e52f4"}, "vout": 0, "txid": "ce87ea11fd0136cfc6b3695c57b24899784f32db86180d15b681efc61248c969"}], "txid": "687ea991e8d9982319e2e065e9e24da601cd22a1db861af3b476af696342973c", "blocktime": 1537873282, "version": 1, "confirmations": 11484, "time": 1537873282, "locktime": 0, "vsize": 223, "size": 223}