{"hash": "688083f17b7fc38615b6a20ac2ae3b5914258f9355f2353c2594271f87bf20d1", "blockhash": "0000000000000000000baef3f32e3676a92c3b2e5da21b426e4f302fc371ce76", "vout": [{"scriptPubKey": {"reqSigs": 1, "hex": "a914a47a884c81db9e44d40d813d8aea6af0a3765dd087", "addresses": ["3GghXhskkmXVAcLg2gcVuSShA4XwxTmGRJ"], "asm": "OP_HASH160 a47a884c81db9e44d40d813d8aea6af0a3765dd0 OP_EQUAL", "type": "scripthash"}, "value": 0.001, "n": 0}, {"scriptPubKey": {"reqSigs": 1, "hex": "76a914e163d073e054266d0f5e025eebd6100b0c946b5b88ac", "addresses": ["1MYkcNyCtPmxivKoMy5v5VBkv6LuBrgrAy"], "asm": "OP_DUP OP_HASH160 e163d073e054266d0f5e025eebd6100b0c946b5b OP_EQUALVERIFY OP_CHECKSIG", "type": "pubkeyhash"}, "value": 0.05252937, "n": 1}], "hex": "010000000146da997cf6e746a524bf95b948c44573568e9da2014b36bb8b6f532f564ff48e010000006a473044022040663fbfc54d06bb3864b7265e4e287c0f16aec8ca386237af786bbed819e0df02200b69c06fd50dbc007e48a6decf60b841917157e4f1b1ed42edac6988a7f732410121033387315522fd785dc6a3184e4f2acbd937f90409a105c06583c94e6554220085ffffffff02a08601000000000017a914a47a884c81db9e44d40d813d8aea6af0a3765dd08749275000000000001976a914e163d073e054266d0f5e025eebd6100b0c946b5b88ac00000000", "vin": [{"sequence": 4294967295, "scriptSig": {"hex": "473044022040663fbfc54d06bb3864b7265e4e287c0f16aec8ca386237af786bbed819e0df02200b69c06fd50dbc007e48a6decf60b841917157e4f1b1ed42edac6988a7f732410121033387315522fd785dc6a3184e4f2acbd937f90409a105c06583c94e6554220085", "asm": "3044022040663fbfc54d06bb3864b7265e4e287c0f16aec8ca386237af786bbed819e0df02200b69c06fd50dbc007e48a6decf60b841917157e4f1b1ed42edac6988a7f73241[ALL] 033387315522fd785dc6a3184e4f2acbd937f90409a105c06583c94e6554220085"}, "vout": 1, "txid": "8ef44f562f536f8bbb364b01a29d8e567345c448b995bf24a546e7f67c99da46"}], "txid": "688083f17b7fc38615b6a20ac2ae3b5914258f9355f2353c2594271f87bf20d1", "blocktime": 1537876114, "version": 1, "confirmations": 11459, "time": 1537876114, "locktime": 0, "vsize": 223, "size": 223}