{"hash": "68818f1c3b9b63646ca72aca0eb0db78b9772975bec94e79f11a52c511e1aba5", "blockhash": "0000000000000000000dcc0f55137456b1a82d3642486a52398922ac4d620174", "vout": [{"scriptPubKey": {"reqSigs": 1, "hex": "76a914d243e6abb9a60fbff430b421d2df4b7d59ec186088ac", "addresses": ["1LAnF8h3qMGx3TSwNUHVneBZUEpwE4gu3D"], "asm": "OP_DUP OP_HASH160 d243e6abb9a60fbff430b421d2df4b7d59ec1860 OP_EQUALVERIFY OP_CHECKSIG", "type": "pubkeyhash"}, "value": 0.00076972, "n": 0}, {"scriptPubKey": {"reqSigs": 1, "hex": "76a9143851f34d13937b673a7d24a1950bb5b21ce94af388ac", "addresses": ["168o1kqNquEJeR9vosUB5fw4eAwcVAgh8P"], "asm": "OP_DUP OP_HASH160 3851f34d13937b673a7d24a1950bb5b21ce94af3 OP_EQUALVERIFY OP_CHECKSIG", "type": "pubkeyhash"}, "value": 5.46e-06, "n": 1}, {"scriptPubKey": {"type": "nulldata", "hex": "6a146f6d6e69000000000000001f000003e02fb4dbb6", "asm": "OP_RETURN 6f6d6e69000000000000001f000003e02fb4dbb6"}, "value": 0.0, "n": 2}], "hex": "01000000020c9bff2192b3b4a1da90ead64e6e93343948551b060fa390eb64dab31ed64df5010000006b483045022100f575a6ef6c65b9e833e0381f04cf9bde9167fee1b6cf636a404b6b2e34fe88ce022032b40d1e6e5dd4647d1d0d65207a6457915700a51309adef851877d2c131d4050121025ee229f12c37ab25056e4365963a481598e1be0fec3bc33cf6e54503362f6fb7ffffffff07f0232984edd56c04e5db83b0a733ff57410264dffdbcef8b836fb4edc8658f000000006b483045022100a370a9553f42e80540fd7c460d2374a76692a2595c662e26c5b46c454a93e119022079cfe2a7b6bcc2bb5590c6afc1653948b5c4b57e4e802aa7efeb228ecbcce93c01210271977291b74f1f5f5c42157e8aae804664eaaeccfd097918450d37f28fb94d77ffffffff03ac2c0100000000001976a914d243e6abb9a60fbff430b421d2df4b7d59ec186088ac22020000000000001976a9143851f34d13937b673a7d24a1950bb5b21ce94af388ac0000000000000000166a146f6d6e69000000000000001f000003e02fb4dbb600000000", "vin": [{"sequence": 4294967295, "scriptSig": {"hex": "483045022100f575a6ef6c65b9e833e0381f04cf9bde9167fee1b6cf636a404b6b2e34fe88ce022032b40d1e6e5dd4647d1d0d65207a6457915700a51309adef851877d2c131d4050121025ee229f12c37ab25056e4365963a481598e1be0fec3bc33cf6e54503362f6fb7", "asm": "3045022100f575a6ef6c65b9e833e0381f04cf9bde9167fee1b6cf636a404b6b2e34fe88ce022032b40d1e6e5dd4647d1d0d65207a6457915700a51309adef851877d2c131d405[ALL] 025ee229f12c37ab25056e4365963a481598e1be0fec3bc33cf6e54503362f6fb7"}, "vout": 1, "txid": "f54dd61eb3da64eb90a30f061b55483934936e4ed6ea90daa1b4b39221ff9b0c"}, {"sequence": 4294967295, "scriptSig": {"hex": "483045022100a370a9553f42e80540fd7c460d2374a76692a2595c662e26c5b46c454a93e119022079cfe2a7b6bcc2bb5590c6afc1653948b5c4b57e4e802aa7efeb228ecbcce93c01210271977291b74f1f5f5c42157e8aae804664eaaeccfd097918450d37f28fb94d77", "asm": "3045022100a370a9553f42e80540fd7c460d2374a76692a2595c662e26c5b46c454a93e119022079cfe2a7b6bcc2bb5590c6afc1653948b5c4b57e4e802aa7efeb228ecbcce93c[ALL] 0271977291b74f1f5f5c42157e8aae804664eaaeccfd097918450d37f28fb94d77"}, "vout": 0, "txid": "8f65c8edb46f838befbcfddf64024157ff33a7b083dbe5046cd5ed842923f007"}], "txid": "68818f1c3b9b63646ca72aca0eb0db78b9772975bec94e79f11a52c511e1aba5", "blocktime": 1537870268, "version": 1, "confirmations": 11516, "time": 1537870268, "locktime": 0, "vsize": 405, "size": 405}