{"hash": "129748050fbdbc703755d49f2fb61658376deda558bc11ab1c6f83ff30b3f5c0", "blockhash": "0000000000000000001f76057863aec43deb6fa401d9628bb513d65a8098bfab", "vout": [{"scriptPubKey": {"reqSigs": 1, "hex": "001402d4a939e2cb993c1f1eacecf45011fe558ebce9", "addresses": ["bc1qqt22jw0zewvnc8c74nk0g5q3le2ca08f5gh528"], "asm": "0 02d4a939e2cb993c1f1eacecf45011fe558ebce9", "type": "witness_v0_keyhash"}, "value": 2.112e-05, "n": 0}, {"scriptPubKey": {"reqSigs": 1, "hex": "76a9146b96c9301d5c980a76e448e98100a2c37753448e88ac", "addresses": ["1AoswKAaVCNkQUas8m7Xay968A6bqEwvNB"], "asm": "OP_DUP OP_HASH160 6b96c9301d5c980a76e448e98100a2c37753448e OP_EQUALVERIFY OP_CHECKSIG", "type": "pubkeyhash"}, "value": 0.0020352, "n": 1}], "hex": "010000000001012bb778bbcf84ca5bd8e25d6cbd609300ced7f86a35627002e2f52dfbc4217b660100000000ffffffff02400800000000000016001402d4a939e2cb993c1f1eacecf45011fe558ebce9001b0300000000001976a9146b96c9301d5c980a76e448e98100a2c37753448e88ac024730440220665d356d1ffdd14a430b04403ebfd5d97bad60b29758e9d8669b6fbd48fe9a42022040ec4b5a8035c94839e06e7193654d3437cf3b203db8b638e4bd42948bc055f0012103f3aa0f2fcaa8bb09e1a0b577e9bbe2fe744578e95227e9b1428483f102f5538b00000000", "vin": [{"txinwitness": ["30440220665d356d1ffdd14a430b04403ebfd5d97bad60b29758e9d8669b6fbd48fe9a42022040ec4b5a8035c94839e06e7193654d3437cf3b203db8b638e4bd42948bc055f001", "03f3aa0f2fcaa8bb09e1a0b577e9bbe2fe744578e95227e9b1428483f102f5538b"], "sequence": 4294967295, "scriptSig": {"hex": "", "asm": ""}, "vout": 1, "txid": "667b21c4fb2df5e2027062356af8d7ce009360bd6c5de2d85bca84cfbb78b72b"}], "txid": "68824c58da4bfa2d605901d9a132b89f0f07c35dc153da7522718286915ae3df", "blocktime": 1537873891, "version": 1, "confirmations": 11478, "time": 1537873891, "locktime": 0, "vsize": 144, "size": 225}