{"hash": "6885d308c9a713524b4c26aa2517ce28942051a85924994f886bed2772c268fd", "blockhash": "000000000000000000022b45ed06c6f4ccd3cf7fb5ba4856ebd2e58215665228", "vout": [{"scriptPubKey": {"reqSigs": 1, "hex": "76a914e67465e71c788ca1bcca76d2cb6731c0514d92f088ac", "addresses": ["1N1Xrbnq7iiaamrpwxzDREp9b78dCmV7EN"], "asm": "OP_DUP OP_HASH160 e67465e71c788ca1bcca76d2cb6731c0514d92f0 OP_EQUALVERIFY OP_CHECKSIG", "type": "pubkeyhash"}, "value": 0.0225206, "n": 0}, {"scriptPubKey": {"type": "nulldata", "hex": "6a4c500000775c00010f99ba3cf20259cb5014fffa3a016b46dc7dc7d0968d120d670c1906f999e00b6b3cf12aaa55f96e175ab0a415755baa06fe06128d3ff5472e16bc9a9526289ac0f6612cd74e33776ee4", "asm": "OP_RETURN 0000775c00010f99ba3cf20259cb5014fffa3a016b46dc7dc7d0968d120d670c1906f999e00b6b3cf12aaa55f96e175ab0a415755baa06fe06128d3ff5472e16bc9a9526289ac0f6612cd74e33776ee4"}, "value": 0.0, "n": 1}], "hex": "01000000010b226efd68892b472ee7c92f0c0deb6aeb2b4de29aa937e37910a172d796dc25000000006a473044022072e2fdc5701b2b4ba2d9ba1d8b95e65a584b4dff02aa6c6cd03c844e6494ed750220055805267e0e443e68c9e9d240277b1d1588cfb62da9051e5f72ef83cecef3960121025c8d08f562732bb6b3de396f7828e91bd3a8239eb196fa70a2079fdb2f2bd21affffffff021c5d2200000000001976a914e67465e71c788ca1bcca76d2cb6731c0514d92f088ac0000000000000000536a4c500000775c00010f99ba3cf20259cb5014fffa3a016b46dc7dc7d0968d120d670c1906f999e00b6b3cf12aaa55f96e175ab0a415755baa06fe06128d3ff5472e16bc9a9526289ac0f6612cd74e33776ee400000000", "vin": [{"sequence": 4294967295, "scriptSig": {"hex": "473044022072e2fdc5701b2b4ba2d9ba1d8b95e65a584b4dff02aa6c6cd03c844e6494ed750220055805267e0e443e68c9e9d240277b1d1588cfb62da9051e5f72ef83cecef3960121025c8d08f562732bb6b3de396f7828e91bd3a8239eb196fa70a2079fdb2f2bd21a", "asm": "3044022072e2fdc5701b2b4ba2d9ba1d8b95e65a584b4dff02aa6c6cd03c844e6494ed750220055805267e0e443e68c9e9d240277b1d1588cfb62da9051e5f72ef83cecef396[ALL] 025c8d08f562732bb6b3de396f7828e91bd3a8239eb196fa70a2079fdb2f2bd21a"}, "vout": 0, "txid": "25dc96d772a11079e337a99ae24d2beb6aeb0d0c2fc9e72e472b8968fd6e220b"}], "txid": "6885d308c9a713524b4c26aa2517ce28942051a85924994f886bed2772c268fd", "blocktime": 1537869901, "version": 1, "confirmations": 11523, "time": 1537869901, "locktime": 0, "vsize": 283, "size": 283}