{"hash": "688641e8784a94298f4653934ee4f239314358d9cc3a9e63f7acac9c9ebcca18", "blockhash": "0000000000000000000baef3f32e3676a92c3b2e5da21b426e4f302fc371ce76", "vout": [{"scriptPubKey": {"reqSigs": 1, "hex": "76a9147224493d408383e86cd87de5f2e099f9a0fa8c1988ac", "addresses": ["1BQXW562y1tYxRKzoTLvTkXCSfvzQWG92P"], "asm": "OP_DUP OP_HASH160 7224493d408383e86cd87de5f2e099f9a0fa8c19 OP_EQUALVERIFY OP_CHECKSIG", "type": "pubkeyhash"}, "value": 0.00335484, "n": 0}, {"scriptPubKey": {"reqSigs": 1, "hex": "76a9143200640ec7c9b3f808a48c5a6c11d496aa81b58f88ac", "addresses": ["15ZPFkQFkJSnBQQVa9GxgfN4oP7Yf3Fchr"], "asm": "OP_DUP OP_HASH160 3200640ec7c9b3f808a48c5a6c11d496aa81b58f OP_EQUALVERIFY OP_CHECKSIG", "type": "pubkeyhash"}, "value": 0.04382668, "n": 1}], "hex": "0100000001a321a0a6889fc6b8c367f15fe9b863a0b5dd71f250f88daa3e0ce78a4289f4b0010000006a473044022019d4414a3de01c6e9491782509d8cd5333d4f3d66c5dae6ad4abe83c6006e876022009b0bcb3a796f1337f757893bed15eb8440921786373cf51c0a51e1bcd912b0d0121032439ac682a99473297f22504b9983ce785200beee64456429b5536f30c59be85ffffffff027c1e0500000000001976a9147224493d408383e86cd87de5f2e099f9a0fa8c1988acccdf4200000000001976a9143200640ec7c9b3f808a48c5a6c11d496aa81b58f88ac00000000", "vin": [{"sequence": 4294967295, "scriptSig": {"hex": "473044022019d4414a3de01c6e9491782509d8cd5333d4f3d66c5dae6ad4abe83c6006e876022009b0bcb3a796f1337f757893bed15eb8440921786373cf51c0a51e1bcd912b0d0121032439ac682a99473297f22504b9983ce785200beee64456429b5536f30c59be85", "asm": "3044022019d4414a3de01c6e9491782509d8cd5333d4f3d66c5dae6ad4abe83c6006e876022009b0bcb3a796f1337f757893bed15eb8440921786373cf51c0a51e1bcd912b0d[ALL] 032439ac682a99473297f22504b9983ce785200beee64456429b5536f30c59be85"}, "vout": 1, "txid": "b0f489428ae70c3eaa8df850f271ddb5a063b8e95ff167c3b8c69f88a6a021a3"}], "txid": "688641e8784a94298f4653934ee4f239314358d9cc3a9e63f7acac9c9ebcca18", "blocktime": 1537876114, "version": 1, "confirmations": 11460, "time": 1537876114, "locktime": 0, "vsize": 225, "size": 225}