{"hash": "688825d917a365cf6cffc7f1065d3de8af8ffc6016e4937db8945104430b52ef", "blockhash": "0000000000000000000e13cef7c366c0283d82e591d1acd082e914b08063cdf1", "vout": [{"scriptPubKey": {"reqSigs": 1, "hex": "76a914bfabbceedfbf9cc651a09148ba2de75b6008ba8988ac", "addresses": ["1JUToCyRL5UwgeucjnFAagKs4v1YqhjT1d"], "asm": "OP_DUP OP_HASH160 bfabbceedfbf9cc651a09148ba2de75b6008ba89 OP_EQUALVERIFY OP_CHECKSIG", "type": "pubkeyhash"}, "value": 0.000255, "n": 0}], "hex": "0200000001687925c9f8f2109b17ed2a640286ca8e4d13af54073657ae247036a0330d3960000000006b4830450221009bf8bbfa6c625da6f4594a389a119504274d88dc94701f8f2875f7b2a695b065022043f1fa0306336fbf00ccfcad9b3976ece22f3a0a960b5c95bc0292f77b44b95b01210275aa765aaeb8ac1050bfb22c2b1570b455bd698302ecfcfb581837895aac5352ffffffff019c630000000000001976a914bfabbceedfbf9cc651a09148ba2de75b6008ba8988ac00000000", "vin": [{"sequence": 4294967295, "scriptSig": {"hex": "4830450221009bf8bbfa6c625da6f4594a389a119504274d88dc94701f8f2875f7b2a695b065022043f1fa0306336fbf00ccfcad9b3976ece22f3a0a960b5c95bc0292f77b44b95b01210275aa765aaeb8ac1050bfb22c2b1570b455bd698302ecfcfb581837895aac5352", "asm": "30450221009bf8bbfa6c625da6f4594a389a119504274d88dc94701f8f2875f7b2a695b065022043f1fa0306336fbf00ccfcad9b3976ece22f3a0a960b5c95bc0292f77b44b95b[ALL] 0275aa765aaeb8ac1050bfb22c2b1570b455bd698302ecfcfb581837895aac5352"}, "vout": 0, "txid": "60390d33a0367024ae57360754af134d8eca8602642aed179b10f2f8c9257968"}], "txid": "688825d917a365cf6cffc7f1065d3de8af8ffc6016e4937db8945104430b52ef", "blocktime": 1537871767, "version": 2, "confirmations": 11495, "time": 1537871767, "locktime": 0, "vsize": 192, "size": 192}