{"hash": "688a9bbba40ab00e1e7bc5bb1bdc3340fa24092bee7949b7c8bbeb17566f5338", "blockhash": "00000000000000000004ffacab907a6b429b9a5745fa0b75af4234bf69dd7176", "vout": [{"scriptPubKey": {"reqSigs": 1, "hex": "76a9147d17c1538c0fc0b7d70cbc2426dec615b740631088ac", "addresses": ["1CQRvX2cK9B3yw682PxvDiekJDznbpyv9B"], "asm": "OP_DUP OP_HASH160 7d17c1538c0fc0b7d70cbc2426dec615b7406310 OP_EQUALVERIFY OP_CHECKSIG", "type": "pubkeyhash"}, "value": 0.00233816, "n": 0}, {"scriptPubKey": {"reqSigs": 1, "hex": "76a914e9632729b892fac45e110295618cd402e406a1e988ac", "addresses": ["1NH3Dy3mbTnVDVAs9yfPvqwaTZNSi3iVP7"], "asm": "OP_DUP OP_HASH160 e9632729b892fac45e110295618cd402e406a1e9 OP_EQUALVERIFY OP_CHECKSIG", "type": "pubkeyhash"}, "value": 0.05903734, "n": 1}], "hex": "0100000001f30736289408f5bb44ef83bc05521bb0b12c563fe104cbdce00aa0b49db52ac6010000006b4830450221009b0f1428c24edc7a329437510274b7d97a5ab141fe1604c706656fbbe72e2ad1022038a552743e7b80b1fc9aade48f910aa44ccb371083b472f8cab79b174051e9d301210313c62e11cf347847bd72b40c743efc129a230f34db34f0b1aebc6416239fde46ffffffff0258910300000000001976a9147d17c1538c0fc0b7d70cbc2426dec615b740631088ac76155a00000000001976a914e9632729b892fac45e110295618cd402e406a1e988ac00000000", "vin": [{"sequence": 4294967295, "scriptSig": {"hex": "4830450221009b0f1428c24edc7a329437510274b7d97a5ab141fe1604c706656fbbe72e2ad1022038a552743e7b80b1fc9aade48f910aa44ccb371083b472f8cab79b174051e9d301210313c62e11cf347847bd72b40c743efc129a230f34db34f0b1aebc6416239fde46", "asm": "30450221009b0f1428c24edc7a329437510274b7d97a5ab141fe1604c706656fbbe72e2ad1022038a552743e7b80b1fc9aade48f910aa44ccb371083b472f8cab79b174051e9d3[ALL] 0313c62e11cf347847bd72b40c743efc129a230f34db34f0b1aebc6416239fde46"}, "vout": 1, "txid": "c62ab59db4a00ae0dccb04e13f562cb1b01b5205bc83ef44bbf50894283607f3"}], "txid": "688a9bbba40ab00e1e7bc5bb1bdc3340fa24092bee7949b7c8bbeb17566f5338", "blocktime": 1537875543, "version": 1, "confirmations": 11464, "time": 1537875543, "locktime": 0, "vsize": 226, "size": 226}