{"hash": "68929bbd4131736cadae33c4cec298fe404cbeb1078d4adcefd0304be86ee746", "blockhash": "0000000000000000000baef3f32e3676a92c3b2e5da21b426e4f302fc371ce76", "vout": [{"scriptPubKey": {"reqSigs": 1, "hex": "76a9142c3c0a5729620f5cbc93994bffec17bf4ecd14a388ac", "addresses": ["152tf7yAFLM3wQ8m4oijiqNuzKiBu7AhRw"], "asm": "OP_DUP OP_HASH160 2c3c0a5729620f5cbc93994bffec17bf4ecd14a3 OP_EQUALVERIFY OP_CHECKSIG", "type": "pubkeyhash"}, "value": 0.00232521, "n": 0}], "hex": "02000000010088c82d2be90b8381d5348cf61176a04701c6fb22270ed880838f6fbdfeea3e0e0000006a47304402204f4aca0932c71d2d6adfee489942dddd7e4b8688212ffe44c4228ee4d21f5a5c022042d884a9a8e6fcdb7d325d051eb9522387925ca102f5ff761e8f234c126df419012103b6d3b4ff458b088d86c343c0caa50ba411915e5eedfbc0bbf6c552535bf929a2ffffffff01498c0300000000001976a9142c3c0a5729620f5cbc93994bffec17bf4ecd14a388ac00000000", "vin": [{"sequence": 4294967295, "scriptSig": {"hex": "47304402204f4aca0932c71d2d6adfee489942dddd7e4b8688212ffe44c4228ee4d21f5a5c022042d884a9a8e6fcdb7d325d051eb9522387925ca102f5ff761e8f234c126df419012103b6d3b4ff458b088d86c343c0caa50ba411915e5eedfbc0bbf6c552535bf929a2", "asm": "304402204f4aca0932c71d2d6adfee489942dddd7e4b8688212ffe44c4228ee4d21f5a5c022042d884a9a8e6fcdb7d325d051eb9522387925ca102f5ff761e8f234c126df419[ALL] 03b6d3b4ff458b088d86c343c0caa50ba411915e5eedfbc0bbf6c552535bf929a2"}, "vout": 14, "txid": "3eeafebd6f8f8380d80e2722fbc60147a07611f68c34d581830be92b2dc88800"}], "txid": "68929bbd4131736cadae33c4cec298fe404cbeb1078d4adcefd0304be86ee746", "blocktime": 1537876114, "version": 2, "confirmations": 11460, "time": 1537876114, "locktime": 0, "vsize": 191, "size": 191}