{"hash": "7e8de4970f1a96411dfea779da5a999a2bdc4c921cf1f216ecf5b86814f92122", "blockhash": "0000000000000000001f76057863aec43deb6fa401d9628bb513d65a8098bfab", "vout": [{"scriptPubKey": {"reqSigs": 1, "hex": "a914d955d7cea1915609fa94b3d14b34def07b36c23287", "addresses": ["3MWBPeUXK98a84MSFRT94MbfqJKtcnQMVJ"], "asm": "OP_HASH160 d955d7cea1915609fa94b3d14b34def07b36c232 OP_EQUAL", "type": "scripthash"}, "value": 0.014409, "n": 0}, {"scriptPubKey": {"reqSigs": 1, "hex": "76a914d82ef0bf5742e281223ccdc5a9b8284e279fc47288ac", "addresses": ["1Li5Bux1YEWq97ZHdAxSD8NP6xyvFNL633"], "asm": "OP_DUP OP_HASH160 d82ef0bf5742e281223ccdc5a9b8284e279fc472 OP_EQUALVERIFY OP_CHECKSIG", "type": "pubkeyhash"}, "value": 0.007242, "n": 1}], "hex": "020000000001014eba1984b25c70840ebacae1d77a60a06bfc246e6ef03c13dab973d46e1fbd4600000000171600145409346a0a3e44fd08cde1c2cee3979510fbb9edfdffffff0284fc15000000000017a914d955d7cea1915609fa94b3d14b34def07b36c23287e80c0b00000000001976a914d82ef0bf5742e281223ccdc5a9b8284e279fc47288ac0247304402205361424deb666acf546deb0b832ffb802e52119a30edc411ec1b07900bdfb3970220772a21a7e4da241f3056b521b49ea14680eb3a68f5e1917f46a53a9e65d0f0bf012103aba340c458c13676a08a807b1862609914debf9a6aa30e60e86048d33dbbabcb14490800", "vin": [{"txinwitness": ["304402205361424deb666acf546deb0b832ffb802e52119a30edc411ec1b07900bdfb3970220772a21a7e4da241f3056b521b49ea14680eb3a68f5e1917f46a53a9e65d0f0bf01", "03aba340c458c13676a08a807b1862609914debf9a6aa30e60e86048d33dbbabcb"], "sequence": 4294967293, "scriptSig": {"hex": "1600145409346a0a3e44fd08cde1c2cee3979510fbb9ed", "asm": "00145409346a0a3e44fd08cde1c2cee3979510fbb9ed"}, "vout": 0, "txid": "46bd1f6ed473b9da133cf06e6e24fc6ba0607ad7e1caba0e84705cb28419ba4e"}], "txid": "6899285eae24e3f553a9148faa8bb41cfe28385ff59a67f86e3ba319c0157f83", "blocktime": 1537873891, "version": 2, "confirmations": 11474, "time": 1537873891, "locktime": 542996, "vsize": 168, "size": 249}