{"hash": "68a8dab2f2781c567f3f533bcb83db0266fecd929e9d51f2ee68654a3030681d", "blockhash": "00000000000000000017f5eb5941039fbcee6240d03bc1f2f8e35350df66a1d8", "vout": [{"scriptPubKey": {"reqSigs": 1, "hex": "76a91453f2938e7e8fe9cdf696f98b59808bf3a9abdeb688ac", "addresses": ["18esgRfMC3V6rYbM1rbf2cF6r7X33U25WG"], "asm": "OP_DUP OP_HASH160 53f2938e7e8fe9cdf696f98b59808bf3a9abdeb6 OP_EQUALVERIFY OP_CHECKSIG", "type": "pubkeyhash"}, "value": 0.00289774, "n": 0}], "hex": "01000000011ec92f70231c3d9bc8768b47c8024e259ca0a60943b849f3676476ed2e697b26010000006b4830450221009a53928c1a43b28a833f2a44f34a3fa5c5faadf4921416f46a9907f3b998bf8802201166a72c59bbcfa04229dcbced7674474d121312ea52128174a21ca1bdfa22590121038d3b8cb24dbccfc521447819dd4b1fa37e399b217033ef65212ffd1f820fb8fcffffffff01ee6b0400000000001976a91453f2938e7e8fe9cdf696f98b59808bf3a9abdeb688ac00000000", "vin": [{"sequence": 4294967295, "scriptSig": {"hex": "4830450221009a53928c1a43b28a833f2a44f34a3fa5c5faadf4921416f46a9907f3b998bf8802201166a72c59bbcfa04229dcbced7674474d121312ea52128174a21ca1bdfa22590121038d3b8cb24dbccfc521447819dd4b1fa37e399b217033ef65212ffd1f820fb8fc", "asm": "30450221009a53928c1a43b28a833f2a44f34a3fa5c5faadf4921416f46a9907f3b998bf8802201166a72c59bbcfa04229dcbced7674474d121312ea52128174a21ca1bdfa2259[ALL] 038d3b8cb24dbccfc521447819dd4b1fa37e399b217033ef65212ffd1f820fb8fc"}, "vout": 1, "txid": "267b692eed766467f349b84309a6a09c254e02c8478b76c89b3d1c23702fc91e"}], "txid": "68a8dab2f2781c567f3f533bcb83db0266fecd929e9d51f2ee68654a3030681d", "blocktime": 1537874412, "version": 1, "confirmations": 11468, "time": 1537874412, "locktime": 0, "vsize": 192, "size": 192}