{"hash": "68aa293948fb6f1993c0b8fe7fd66c22f856fdc213c1b66221b216a7f9ea93f1", "blockhash": "00000000000000000018f53835495a110e01622372bf6ae95dc86f2b0ab887b0", "vout": [{"scriptPubKey": {"reqSigs": 1, "hex": "76a914f6b9b66a2c8d0186529d6411d3f52333268d24b988ac", "addresses": ["1PVZhj3tv5GvoGicWxDGTyFb279L1YWTwx"], "asm": "OP_DUP OP_HASH160 f6b9b66a2c8d0186529d6411d3f52333268d24b9 OP_EQUALVERIFY OP_CHECKSIG", "type": "pubkeyhash"}, "value": 0.00263734, "n": 0}, {"scriptPubKey": {"reqSigs": 1, "hex": "76a914706d6ba99bf9125546cb57afc7d8ca6f1b17f1b888ac", "addresses": ["1BFTmACT66eVQTqwwMzvsyEZDhqyJY82dW"], "asm": "OP_DUP OP_HASH160 706d6ba99bf9125546cb57afc7d8ca6f1b17f1b8 OP_EQUALVERIFY OP_CHECKSIG", "type": "pubkeyhash"}, "value": 0.005, "n": 1}], "hex": "0100000001a0bb29ccc48bd99aa02bcc3d517cf5c7bcf0c9cbf133d2f0b3020726cf1ee8ea400000006a47304402201f6019a1528e135964e15fd4379682a884e9694162fba7e5ccbd76bd98d9006e0220461f8602b68a29300a5ca3f94627f057dc8766f28ba7afdf1a63a923c073b41d012103c6576ba9d8458954822edf60760d6a8c71c939ffbec70a9b1bb1f85c06ca9a86ffffffff0236060400000000001976a914f6b9b66a2c8d0186529d6411d3f52333268d24b988ac20a10700000000001976a914706d6ba99bf9125546cb57afc7d8ca6f1b17f1b888ac00000000", "vin": [{"sequence": 4294967295, "scriptSig": {"hex": "47304402201f6019a1528e135964e15fd4379682a884e9694162fba7e5ccbd76bd98d9006e0220461f8602b68a29300a5ca3f94627f057dc8766f28ba7afdf1a63a923c073b41d012103c6576ba9d8458954822edf60760d6a8c71c939ffbec70a9b1bb1f85c06ca9a86", "asm": "304402201f6019a1528e135964e15fd4379682a884e9694162fba7e5ccbd76bd98d9006e0220461f8602b68a29300a5ca3f94627f057dc8766f28ba7afdf1a63a923c073b41d[ALL] 03c6576ba9d8458954822edf60760d6a8c71c939ffbec70a9b1bb1f85c06ca9a86"}, "vout": 64, "txid": "eae81ecf260702b3f0d233f1cbc9f0bcc7f57c513dcc2ba09ad98bc4cc29bba0"}], "txid": "68aa293948fb6f1993c0b8fe7fd66c22f856fdc213c1b66221b216a7f9ea93f1", "blocktime": 1537870928, "version": 1, "confirmations": 11514, "time": 1537870928, "locktime": 0, "vsize": 225, "size": 225}