{"hash": "68ab5214b0b4dc73c86b40e199c976ad6659ab8e0c8ba086880b80bdc0155589", "blockhash": "0000000000000000000baef3f32e3676a92c3b2e5da21b426e4f302fc371ce76", "vout": [{"scriptPubKey": {"reqSigs": 1, "hex": "76a9146f2a7978e98d3928aec5521197d62c542a893b4888ac", "addresses": ["1B8ntUT3ax8EYcRb3qK6a5ZGYzybD9zKU3"], "asm": "OP_DUP OP_HASH160 6f2a7978e98d3928aec5521197d62c542a893b48 OP_EQUALVERIFY OP_CHECKSIG", "type": "pubkeyhash"}, "value": 0.022, "n": 0}, {"scriptPubKey": {"reqSigs": 1, "hex": "76a9143778f4ed5c9b857e0ab5a23790a54c2a6aa3088888ac", "addresses": ["164K4mpdiUMYm5nyU4wk1XeWDYZCGprMSK"], "asm": "OP_DUP OP_HASH160 3778f4ed5c9b857e0ab5a23790a54c2a6aa30888 OP_EQUALVERIFY OP_CHECKSIG", "type": "pubkeyhash"}, "value": 0.00084175, "n": 1}], "hex": "01000000016f163432441d61113f5f535f081cebc9fb2ff688325e4311d8f4c0c48658dcc0010000006a47304402204b73d6ee2feb890760cc627faff7529dbaef1092a1026814c1ad1045b00168a602204258048d60045dfdb55cd66eca0c90e5c2692533fd632b0d915964e65a7d367b0121037ef7e519c06353b3bec7af61db44d13850b7c43a31bee6df412973f204f7ea1dffffffff02c0912100000000001976a9146f2a7978e98d3928aec5521197d62c542a893b4888accf480100000000001976a9143778f4ed5c9b857e0ab5a23790a54c2a6aa3088888ac00000000", "vin": [{"sequence": 4294967295, "scriptSig": {"hex": "47304402204b73d6ee2feb890760cc627faff7529dbaef1092a1026814c1ad1045b00168a602204258048d60045dfdb55cd66eca0c90e5c2692533fd632b0d915964e65a7d367b0121037ef7e519c06353b3bec7af61db44d13850b7c43a31bee6df412973f204f7ea1d", "asm": "304402204b73d6ee2feb890760cc627faff7529dbaef1092a1026814c1ad1045b00168a602204258048d60045dfdb55cd66eca0c90e5c2692533fd632b0d915964e65a7d367b[ALL] 037ef7e519c06353b3bec7af61db44d13850b7c43a31bee6df412973f204f7ea1d"}, "vout": 1, "txid": "c0dc5886c4c0f4d811435e3288f62ffbc9eb1c085f535f3f11611d443234166f"}], "txid": "68ab5214b0b4dc73c86b40e199c976ad6659ab8e0c8ba086880b80bdc0155589", "blocktime": 1537876114, "version": 1, "confirmations": 11459, "time": 1537876114, "locktime": 0, "vsize": 225, "size": 225}