{"hash": "68af12e7a7bdac662a7f8565ed276889b71cfcd96e71489564bcc408ae80b59c", "blockhash": "0000000000000000000baef3f32e3676a92c3b2e5da21b426e4f302fc371ce76", "vout": [{"scriptPubKey": {"reqSigs": 1, "hex": "76a9144c0d0460e908913840ff2858ed4d33ab4ddaf88788ac", "addresses": ["17w7x2MVza2kjXvk8RCbEnU4hffef8YHcH"], "asm": "OP_DUP OP_HASH160 4c0d0460e908913840ff2858ed4d33ab4ddaf887 OP_EQUALVERIFY OP_CHECKSIG", "type": "pubkeyhash"}, "value": 0.00087384, "n": 0}, {"scriptPubKey": {"type": "nulldata", "hex": "6a4c50000078310001d75e35aaba5f9ef370ee0d8227b7256b4774d339f6019d6ddc0f1b8ff117e83132d6b50bbefcaa751ee9699ba1f85baa1f870613f3f75e0aa540bc9a9526289ac0f6612cd74e33776ee4", "asm": "OP_RETURN 000078310001d75e35aaba5f9ef370ee0d8227b7256b4774d339f6019d6ddc0f1b8ff117e83132d6b50bbefcaa751ee9699ba1f85baa1f870613f3f75e0aa540bc9a9526289ac0f6612cd74e33776ee4"}, "value": 0.0, "n": 1}], "hex": "010000000155686244dd3ca6d3c578edc5f80ae6e33958c60b9993cf5f312e4d3ab9e7b52d010000006b4830450221008fadb4d773290f655b82f47a01ce7860c0a6e93f0cf3de4122aa04de3c844e90022020b8a6e02a22eaffd4447ade16d15c25db7a0a09883f1b3e8d3a66577f5840160121028e81e2d5a591755cad0d246c726f04664abcac9f83d5081f571bafe0a1c088c9ffffffff0258550100000000001976a9144c0d0460e908913840ff2858ed4d33ab4ddaf88788ac0000000000000000536a4c50000078310001d75e35aaba5f9ef370ee0d8227b7256b4774d339f6019d6ddc0f1b8ff117e83132d6b50bbefcaa751ee9699ba1f85baa1f870613f3f75e0aa540bc9a9526289ac0f6612cd74e33776ee400000000", "vin": [{"sequence": 4294967295, "scriptSig": {"hex": "4830450221008fadb4d773290f655b82f47a01ce7860c0a6e93f0cf3de4122aa04de3c844e90022020b8a6e02a22eaffd4447ade16d15c25db7a0a09883f1b3e8d3a66577f5840160121028e81e2d5a591755cad0d246c726f04664abcac9f83d5081f571bafe0a1c088c9", "asm": "30450221008fadb4d773290f655b82f47a01ce7860c0a6e93f0cf3de4122aa04de3c844e90022020b8a6e02a22eaffd4447ade16d15c25db7a0a09883f1b3e8d3a66577f584016[ALL] 028e81e2d5a591755cad0d246c726f04664abcac9f83d5081f571bafe0a1c088c9"}, "vout": 1, "txid": "2db5e7b93a4d2e315fcf93990bc65839e3e60af8c5ed78c5d3a63cdd44626855"}], "txid": "68af12e7a7bdac662a7f8565ed276889b71cfcd96e71489564bcc408ae80b59c", "blocktime": 1537876114, "version": 1, "confirmations": 11461, "time": 1537876114, "locktime": 0, "vsize": 284, "size": 284}