{"hash": "68b35ff66771585156b9b54a31705d1b8060bf0e9b080c153e902fc8e65b9475", "blockhash": "0000000000000000000baef3f32e3676a92c3b2e5da21b426e4f302fc371ce76", "vout": [{"scriptPubKey": {"reqSigs": 1, "hex": "76a9146270b789c6abc97df2cc6d91725b3b3c845c83b688ac", "addresses": ["19yWFWawyQxFmkXbjP3E94v7ftBdevz4fH"], "asm": "OP_DUP OP_HASH160 6270b789c6abc97df2cc6d91725b3b3c845c83b6 OP_EQUALVERIFY OP_CHECKSIG", "type": "pubkeyhash"}, "value": 0.005, "n": 0}, {"scriptPubKey": {"reqSigs": 1, "hex": "76a91488d924f51033b74a895863a5fb57fd545529df7d88ac", "addresses": ["1DUb2YYbQA1jjaNYzVXLZ7ZioEhLXtbUru"], "asm": "OP_DUP OP_HASH160 88d924f51033b74a895863a5fb57fd545529df7d OP_EQUALVERIFY OP_CHECKSIG", "type": "pubkeyhash"}, "value": 0.68126291, "n": 1}], "hex": "010000000bce95e8fd12d5a9f4556b66b5eaf0388ad111159eba2748f297b16e93210546ce020000006b483045022100e424657830f02cab10cd0f89f721ef01051f419adc094eed65e15bc7656e8e3d0220556a8de3e5eb0ce3870b7a24a6b3132eb98396700d43afed99335e8d9750f0fd0121030888863fcb4cdf5b7d33b40e613af35df8f39d576e7972238b0d396cd3fcc3f2ffffffff141e8b7fd6a9f483dd2b33f4041b6ec0b4e1c6bdc10eb568ce82afb35f7825e1010000006a473044022020035cd3e2202482f5ea176ae8a1428d556626828641b54295dd4193002824ed02204436440604a49a5f83f963de4ca0d2dc130d5dfbbed88501962ebb0b30dbaece012103d4fdb0b8b5bcc013d31142bc1301dd00869c8a594776f4064ad330ae9b41bcd2ffffffff2eefc834d2491c24b1154351cf3289e6b2fb068309e8f95bc522b00cf0afb64b010000006a473044022079b6104701b8b236e1d27b35e827e6ee55a20fb5f508e1dfc0e9d9dfc22e06e102207570e2aa15912e4d70d0273ae4c3ee1eaefce2643669faf2b76694423fa1832c0121030888863fcb4cdf5b7d33b40e613af35df8f39d576e7972238b0d396cd3fcc3f2ffffffff30ed89ba8449d14c17ee7a92c53fdc9b1f156302d4a6d8bfcff90ea65960fa20010000006b483045022100d1a6ee40ed363db4b1c5a065707aaff045d33f5d8208e2ab3848974eee523c8c022069d77526e463c1379093847c20b953cc40d748df212c2eadb1c73902da0042ae0121020345e403049ca31400c9f88b038441666f9751a0d13e1b2507aa90ef75a516b5ffffffff316bcee7d952e8fc5d263ea2412ed9991c1d9e98190b4d6e756e0db0ad4e30e5020000006b4830450221008c06b3bed3b33de427cc6579be5f42c8caad60c8db4e316436639f606929da9302200af096c05ffa6c4c69d622d0b511a00e3897a618acb87c2ccd86cde9f9c43d070121030888863fcb4cdf5b7d33b40e613af35df8f39d576e7972238b0d396cd3fcc3f2ffffffff4134f3cc1d626f15938a48eb0081327d5e4454f8477b055a90333bfbb49f2188010000006b483045022100d3735434c58fd02f67748db6570447a2a5eb9a0f6fcc20823aa2511c4e5b87c902200c9717814fe29ea3ad5f7fcf79dc8d5496eea4ed93bb784f70a013824a436e58012103f4f38e66ed33221e51fa691282f990b9ace4986806de9c605c3156e089ac4916ffffffff83fe45d61607a69cb577f4a3d82aabc3fe2c78643a8ccadebf41d954112086fb020000006b483045022100c5c80c9e9a8115ca0f4c54ac727ff356bdd4631444ac7cb06968848878f9649a0220750d7d72f38f4d5eede0971f07b4c797a023773d2500c09ba3da0618a45bf6f101210265798fe13e476264b997cd2b4e4e3c4358e6065128b1a9b7510a297eed656313ffffffff867be1b9c463e34b36f10222d9fd398bf67b5920187c8ef383e2a241665b5982020000006a47304402206f49d10358a283d9d3dd2b7240b41484d55a5d1a5cc40f2bf62643690d47a9bf0220623225c40c926e03bcaf1715710ee26065d73c6f5c0dca005978abe4473613bb0121020b35f673e185703638f197acbfef13dd24bf1f7032deb5a123ea9b74ff1df421fffffffff1e0d140564852939e5a96088a59d64738e97e659ab6843ae4d17370bf2b3f08010000006b483045022100e18b5791bb4ddfd7061bdb4ca76d6d2ee760f531ac60aaedeb7bef69063b25ad02202ef8758c22eadec31a6d6555b16b16d7ca497281c1310cd8ca91883a2fa67b0c0121030888863fcb4cdf5b7d33b40e613af35df8f39d576e7972238b0d396cd3fcc3f2ffffffff2eefc834d2491c24b1154351cf3289e6b2fb068309e8f95bc522b00cf0afb64b020000006a473044022064b42e81b5b07c878b96a3c2df4e759d10d2a98fbf0e65a9fd11b980aa7fe45602201b75e94aaad4b6c22880799d71bf48c473be81d8ecb70a1faf0f575d6e8ac8d10121026ed1c668ee0b1f665dfee891f7eb0e861258de72890886608c00e6b2607941f5ffffffff316bcee7d952e8fc5d263ea2412ed9991c1d9e98190b4d6e756e0db0ad4e30e5010000006b483045022100e9f3ec815f72613a321961f5985361ffe685d2baab7341d3472bd62ba2bf05040220024a5fe210c1eff6fbb95052db132a7ee69a829dccc16d6b0cefa3ef33e91dec012103f4f38e66ed33221e51fa691282f990b9ace4986806de9c605c3156e089ac4916ffffffff0220a10700000000001976a9146270b789c6abc97df2cc6d91725b3b3c845c83b688ac53860f04000000001976a91488d924f51033b74a895863a5fb57fd545529df7d88ac00000000", "vin": [{"sequence": 4294967295, "scriptSig": {"hex": "483045022100e424657830f02cab10cd0f89f721ef01051f419adc094eed65e15bc7656e8e3d0220556a8de3e5eb0ce3870b7a24a6b3132eb98396700d43afed99335e8d9750f0fd0121030888863fcb4cdf5b7d33b40e613af35df8f39d576e7972238b0d396cd3fcc3f2", "asm": "3045022100e424657830f02cab10cd0f89f721ef01051f419adc094eed65e15bc7656e8e3d0220556a8de3e5eb0ce3870b7a24a6b3132eb98396700d43afed99335e8d9750f0fd[ALL] 030888863fcb4cdf5b7d33b40e613af35df8f39d576e7972238b0d396cd3fcc3f2"}, "vout": 2, "txid": "ce460521936eb197f24827ba9e1511d18a38f0eab5666b55f4a9d512fde895ce"}, {"sequence": 4294967295, "scriptSig": {"hex": "473044022020035cd3e2202482f5ea176ae8a1428d556626828641b54295dd4193002824ed02204436440604a49a5f83f963de4ca0d2dc130d5dfbbed88501962ebb0b30dbaece012103d4fdb0b8b5bcc013d31142bc1301dd00869c8a594776f4064ad330ae9b41bcd2", "asm": "3044022020035cd3e2202482f5ea176ae8a1428d556626828641b54295dd4193002824ed02204436440604a49a5f83f963de4ca0d2dc130d5dfbbed88501962ebb0b30dbaece[ALL] 03d4fdb0b8b5bcc013d31142bc1301dd00869c8a594776f4064ad330ae9b41bcd2"}, "vout": 1, "txid": "e125785fb3af82ce68b50ec1bdc6e1b4c06e1b04f4332bdd83f4a9d67f8b1e14"}, {"sequence": 4294967295, "scriptSig": {"hex": "473044022079b6104701b8b236e1d27b35e827e6ee55a20fb5f508e1dfc0e9d9dfc22e06e102207570e2aa15912e4d70d0273ae4c3ee1eaefce2643669faf2b76694423fa1832c0121030888863fcb4cdf5b7d33b40e613af35df8f39d576e7972238b0d396cd3fcc3f2", "asm": "3044022079b6104701b8b236e1d27b35e827e6ee55a20fb5f508e1dfc0e9d9dfc22e06e102207570e2aa15912e4d70d0273ae4c3ee1eaefce2643669faf2b76694423fa1832c[ALL] 030888863fcb4cdf5b7d33b40e613af35df8f39d576e7972238b0d396cd3fcc3f2"}, "vout": 1, "txid": "4bb6aff00cb022c55bf9e8098306fbb2e68932cf514315b1241c49d234c8ef2e"}, {"sequence": 4294967295, "scriptSig": {"hex": "483045022100d1a6ee40ed363db4b1c5a065707aaff045d33f5d8208e2ab3848974eee523c8c022069d77526e463c1379093847c20b953cc40d748df212c2eadb1c73902da0042ae0121020345e403049ca31400c9f88b038441666f9751a0d13e1b2507aa90ef75a516b5", "asm": "3045022100d1a6ee40ed363db4b1c5a065707aaff045d33f5d8208e2ab3848974eee523c8c022069d77526e463c1379093847c20b953cc40d748df212c2eadb1c73902da0042ae[ALL] 020345e403049ca31400c9f88b038441666f9751a0d13e1b2507aa90ef75a516b5"}, "vout": 1, "txid": "20fa6059a60ef9cfbfd8a6d40263151f9bdc3fc5927aee174cd14984ba89ed30"}, {"sequence": 4294967295, "scriptSig": {"hex": "4830450221008c06b3bed3b33de427cc6579be5f42c8caad60c8db4e316436639f606929da9302200af096c05ffa6c4c69d622d0b511a00e3897a618acb87c2ccd86cde9f9c43d070121030888863fcb4cdf5b7d33b40e613af35df8f39d576e7972238b0d396cd3fcc3f2", "asm": "30450221008c06b3bed3b33de427cc6579be5f42c8caad60c8db4e316436639f606929da9302200af096c05ffa6c4c69d622d0b511a00e3897a618acb87c2ccd86cde9f9c43d07[ALL] 030888863fcb4cdf5b7d33b40e613af35df8f39d576e7972238b0d396cd3fcc3f2"}, "vout": 2, "txid": "e5304eadb00d6e756e4d0b19989e1d1c99d92e41a23e265dfce852d9e7ce6b31"}, {"sequence": 4294967295, "scriptSig": {"hex": "483045022100d3735434c58fd02f67748db6570447a2a5eb9a0f6fcc20823aa2511c4e5b87c902200c9717814fe29ea3ad5f7fcf79dc8d5496eea4ed93bb784f70a013824a436e58012103f4f38e66ed33221e51fa691282f990b9ace4986806de9c605c3156e089ac4916", "asm": "3045022100d3735434c58fd02f67748db6570447a2a5eb9a0f6fcc20823aa2511c4e5b87c902200c9717814fe29ea3ad5f7fcf79dc8d5496eea4ed93bb784f70a013824a436e58[ALL] 03f4f38e66ed33221e51fa691282f990b9ace4986806de9c605c3156e089ac4916"}, "vout": 1, "txid": "88219fb4fb3b33905a057b47f854445e7d328100eb488a93156f621dccf33441"}, {"sequence": 4294967295, "scriptSig": {"hex": "483045022100c5c80c9e9a8115ca0f4c54ac727ff356bdd4631444ac7cb06968848878f9649a0220750d7d72f38f4d5eede0971f07b4c797a023773d2500c09ba3da0618a45bf6f101210265798fe13e476264b997cd2b4e4e3c4358e6065128b1a9b7510a297eed656313", "asm": "3045022100c5c80c9e9a8115ca0f4c54ac727ff356bdd4631444ac7cb06968848878f9649a0220750d7d72f38f4d5eede0971f07b4c797a023773d2500c09ba3da0618a45bf6f1[ALL] 0265798fe13e476264b997cd2b4e4e3c4358e6065128b1a9b7510a297eed656313"}, "vout": 2, "txid": "fb86201154d941bfdeca8c3a64782cfec3ab2ad8a3f477b59ca60716d645fe83"}, {"sequence": 4294967295, "scriptSig": {"hex": "47304402206f49d10358a283d9d3dd2b7240b41484d55a5d1a5cc40f2bf62643690d47a9bf0220623225c40c926e03bcaf1715710ee26065d73c6f5c0dca005978abe4473613bb0121020b35f673e185703638f197acbfef13dd24bf1f7032deb5a123ea9b74ff1df421", "asm": "304402206f49d10358a283d9d3dd2b7240b41484d55a5d1a5cc40f2bf62643690d47a9bf0220623225c40c926e03bcaf1715710ee26065d73c6f5c0dca005978abe4473613bb[ALL] 020b35f673e185703638f197acbfef13dd24bf1f7032deb5a123ea9b74ff1df421"}, "vout": 2, "txid": "82595b6641a2e283f38e7c1820597bf68b39fdd92202f1364be363c4b9e17b86"}, {"sequence": 4294967295, "scriptSig": {"hex": "483045022100e18b5791bb4ddfd7061bdb4ca76d6d2ee760f531ac60aaedeb7bef69063b25ad02202ef8758c22eadec31a6d6555b16b16d7ca497281c1310cd8ca91883a2fa67b0c0121030888863fcb4cdf5b7d33b40e613af35df8f39d576e7972238b0d396cd3fcc3f2", "asm": "3045022100e18b5791bb4ddfd7061bdb4ca76d6d2ee760f531ac60aaedeb7bef69063b25ad02202ef8758c22eadec31a6d6555b16b16d7ca497281c1310cd8ca91883a2fa67b0c[ALL] 030888863fcb4cdf5b7d33b40e613af35df8f39d576e7972238b0d396cd3fcc3f2"}, "vout": 1, "txid": "083f2bbf7073d1e43a84b69a657ee93847d6598a08965a9e9352485640d1e0f1"}, {"sequence": 4294967295, "scriptSig": {"hex": "473044022064b42e81b5b07c878b96a3c2df4e759d10d2a98fbf0e65a9fd11b980aa7fe45602201b75e94aaad4b6c22880799d71bf48c473be81d8ecb70a1faf0f575d6e8ac8d10121026ed1c668ee0b1f665dfee891f7eb0e861258de72890886608c00e6b2607941f5", "asm": "3044022064b42e81b5b07c878b96a3c2df4e759d10d2a98fbf0e65a9fd11b980aa7fe45602201b75e94aaad4b6c22880799d71bf48c473be81d8ecb70a1faf0f575d6e8ac8d1[ALL] 026ed1c668ee0b1f665dfee891f7eb0e861258de72890886608c00e6b2607941f5"}, "vout": 2, "txid": "4bb6aff00cb022c55bf9e8098306fbb2e68932cf514315b1241c49d234c8ef2e"}, {"sequence": 4294967295, "scriptSig": {"hex": "483045022100e9f3ec815f72613a321961f5985361ffe685d2baab7341d3472bd62ba2bf05040220024a5fe210c1eff6fbb95052db132a7ee69a829dccc16d6b0cefa3ef33e91dec012103f4f38e66ed33221e51fa691282f990b9ace4986806de9c605c3156e089ac4916", "asm": "3045022100e9f3ec815f72613a321961f5985361ffe685d2baab7341d3472bd62ba2bf05040220024a5fe210c1eff6fbb95052db132a7ee69a829dccc16d6b0cefa3ef33e91dec[ALL] 03f4f38e66ed33221e51fa691282f990b9ace4986806de9c605c3156e089ac4916"}, "vout": 1, "txid": "e5304eadb00d6e756e4d0b19989e1d1c99d92e41a23e265dfce852d9e7ce6b31"}], "txid": "68b35ff66771585156b9b54a31705d1b8060bf0e9b080c153e902fc8e65b9475", "blocktime": 1537876114, "version": 1, "confirmations": 11459, "time": 1537876114, "locktime": 0, "vsize": 1702, "size": 1702}