{"hash": "68b4431952016ee27c6666282676f30ce678a54993b4fe4c1346d3c06466c05f", "blockhash": "00000000000000000004ffacab907a6b429b9a5745fa0b75af4234bf69dd7176", "vout": [{"scriptPubKey": {"reqSigs": 1, "hex": "a9141125bd370fcdee98ff42a73ca2203ea7a2f9e2e887", "addresses": ["33FgcxvWBKjBEWKJiUyxJ4dHxjBdGuCyV6"], "asm": "OP_HASH160 1125bd370fcdee98ff42a73ca2203ea7a2f9e2e8 OP_EQUAL", "type": "scripthash"}, "value": 0.0081051, "n": 0}, {"scriptPubKey": {"reqSigs": 1, "hex": "76a914609b8eca9331d99b30da3afc6d06dbdaaa12d43788ac", "addresses": ["19opDm4VAoaf2HxJC3XExAocbUA7rzDbVH"], "asm": "OP_DUP OP_HASH160 609b8eca9331d99b30da3afc6d06dbdaaa12d437 OP_EQUALVERIFY OP_CHECKSIG", "type": "pubkeyhash"}, "value": 0.143573, "n": 1}], "hex": "01000000015f0755d2c21c75eece2b1a6d638231e819cba6e362d0a1bf86082e1c9f678072010000006b483045022100a1919326b36be10313c5f6844be8b0ba7c657ad365c2de5f53a3d52df42b76c502207947a9c2e271f7b52de1c1ec7cb0c1586cc35e5b424a336559af3e738c374007012103a59238bb0e9e7188e726e941a85e92a87b747636dc890590a131a5f06f543213ffffffff020e5e0c000000000017a9141125bd370fcdee98ff42a73ca2203ea7a2f9e2e8873413db00000000001976a914609b8eca9331d99b30da3afc6d06dbdaaa12d43788ac00000000", "vin": [{"sequence": 4294967295, "scriptSig": {"hex": "483045022100a1919326b36be10313c5f6844be8b0ba7c657ad365c2de5f53a3d52df42b76c502207947a9c2e271f7b52de1c1ec7cb0c1586cc35e5b424a336559af3e738c374007012103a59238bb0e9e7188e726e941a85e92a87b747636dc890590a131a5f06f543213", "asm": "3045022100a1919326b36be10313c5f6844be8b0ba7c657ad365c2de5f53a3d52df42b76c502207947a9c2e271f7b52de1c1ec7cb0c1586cc35e5b424a336559af3e738c374007[ALL] 03a59238bb0e9e7188e726e941a85e92a87b747636dc890590a131a5f06f543213"}, "vout": 1, "txid": "7280679f1c2e0886bfa1d062e3a6cb19e83182636d1a2bceee751cc2d255075f"}], "txid": "68b4431952016ee27c6666282676f30ce678a54993b4fe4c1346d3c06466c05f", "blocktime": 1537875543, "version": 1, "confirmations": 11464, "time": 1537875543, "locktime": 0, "vsize": 224, "size": 224}