{"hash": "68b49886e7774fbf5ab5c32e98ad885fa5cd775828b81f7d2dc1c11e8906a046", "blockhash": "0000000000000000000e13cef7c366c0283d82e591d1acd082e914b08063cdf1", "vout": [{"scriptPubKey": {"reqSigs": 1, "hex": "76a914e2b018a0641a56ba7a9ac9ffd7f8558b40d8617288ac", "addresses": ["1MfcfjTLv49kL9CttHb151gnBQmrW6UfVK"], "asm": "OP_DUP OP_HASH160 e2b018a0641a56ba7a9ac9ffd7f8558b40d86172 OP_EQUALVERIFY OP_CHECKSIG", "type": "pubkeyhash"}, "value": 0.010593, "n": 0}], "hex": "0100000001857ab711fceb2bbf95f5eb91cb17b9003fd11678353e004dce43a28193ffdf82000000006a473044022069d7baca1b59c3ac5a9a1026e2a8292dbe6890475f44bf9cda552984b8efdebf02203cd0627779807b71adcdc49aec6c05a2f99ef1c62a8643cdf38afcd4a5655bf5012102dbf89acd481b9757ec5b6874bf7852a94562ae0e842541e08124f8ac63fd3e7efdffffff01e4291000000000001976a914e2b018a0641a56ba7a9ac9ffd7f8558b40d8617288ac10490800", "vin": [{"sequence": 4294967293, "scriptSig": {"hex": "473044022069d7baca1b59c3ac5a9a1026e2a8292dbe6890475f44bf9cda552984b8efdebf02203cd0627779807b71adcdc49aec6c05a2f99ef1c62a8643cdf38afcd4a5655bf5012102dbf89acd481b9757ec5b6874bf7852a94562ae0e842541e08124f8ac63fd3e7e", "asm": "3044022069d7baca1b59c3ac5a9a1026e2a8292dbe6890475f44bf9cda552984b8efdebf02203cd0627779807b71adcdc49aec6c05a2f99ef1c62a8643cdf38afcd4a5655bf5[ALL] 02dbf89acd481b9757ec5b6874bf7852a94562ae0e842541e08124f8ac63fd3e7e"}, "vout": 0, "txid": "82dfff9381a243ce4d003e357816d13f00b917cb91ebf595bf2bebfc11b77a85"}], "txid": "68b49886e7774fbf5ab5c32e98ad885fa5cd775828b81f7d2dc1c11e8906a046", "blocktime": 1537871767, "version": 1, "confirmations": 11495, "time": 1537871767, "locktime": 542992, "vsize": 191, "size": 191}