{"hash": "7f5ebb2b637103c0e4f676650ca7c694b0aea4633d30bc43d42d7618f9eeb184", "blockhash": "000000000000000000022b45ed06c6f4ccd3cf7fb5ba4856ebd2e58215665228", "vout": [{"scriptPubKey": {"reqSigs": 1, "hex": "a914126e144ebc813ed72452b0c29d844ab296f25ac387", "addresses": ["33NTxScSk4SY9kRP8gBJcFKv6UdXrb92jJ"], "asm": "OP_HASH160 126e144ebc813ed72452b0c29d844ab296f25ac3 OP_EQUAL", "type": "scripthash"}, "value": 0.024277, "n": 0}, {"scriptPubKey": {"reqSigs": 1, "hex": "0014c48ebf1f988e5d02e21390db44f623228a0545f2", "addresses": ["bc1qcj8t78uc3ews9csnjrd5fa3ry29q230jy8j8vr"], "asm": "0 c48ebf1f988e5d02e21390db44f623228a0545f2", "type": "witness_v0_keyhash"}, "value": 0.02174423, "n": 1}], "hex": "01000000000101034d2687d7342d7c2255d52d28df79c7dc8998fdd630f8c3ce6e2815bc1c81341000000017160014712976e569a5ec63fc7309a73ee3e43a35920431ffffffff02340b25000000000017a914126e144ebc813ed72452b0c29d844ab296f25ac387d72d210000000000160014c48ebf1f988e5d02e21390db44f623228a0545f202483045022100bc1a10b26f676df1f7fd713d080db73d968f0f1b9cd5aff9d6d2e1197f43ea5602207f5d1d182f42dd2bcfb06a72d54d254109546fb0bca3905332ce2967b3633817012103bcfb5e0d02fae1dd84e3d733f25488ec63efe91fc20a525acbe32e320aae37f300000000", "vin": [{"txinwitness": ["3045022100bc1a10b26f676df1f7fd713d080db73d968f0f1b9cd5aff9d6d2e1197f43ea5602207f5d1d182f42dd2bcfb06a72d54d254109546fb0bca3905332ce2967b363381701", "03bcfb5e0d02fae1dd84e3d733f25488ec63efe91fc20a525acbe32e320aae37f3"], "sequence": 4294967295, "scriptSig": {"hex": "160014712976e569a5ec63fc7309a73ee3e43a35920431", "asm": "0014712976e569a5ec63fc7309a73ee3e43a35920431"}, "vout": 16, "txid": "34811cbc15286ecec3f830d6fd9889dcc779df282dd555227c2d34d787264d03"}], "txid": "68b67dcb0661d98a9a1534b2d19bb320a1d835797bdda1d46b2f4a9d7380222a", "blocktime": 1537869901, "version": 1, "confirmations": 11524, "time": 1537869901, "locktime": 0, "vsize": 165, "size": 247}