{"hash": "0102b08366750e14f38090216aa517578796e814b5f51f76717f064e2aada010", "blockhash": "00000000000000000017f5eb5941039fbcee6240d03bc1f2f8e35350df66a1d8", "vout": [{"scriptPubKey": {"reqSigs": 1, "hex": "a91471339ebb7c1b71e9063c06eca3bf07aee9b9aa6687", "addresses": ["3C1a7qvtxQsEd56k6vYGF9r6PCF79RxzeJ"], "asm": "OP_HASH160 71339ebb7c1b71e9063c06eca3bf07aee9b9aa66 OP_EQUAL", "type": "scripthash"}, "value": 0.00286066, "n": 0}, {"scriptPubKey": {"reqSigs": 1, "hex": "a914ca7f7c5e66c17d6723113d8ddf67b0126e2fd9a287", "addresses": ["3L9j9ARQiPnRJzXej2QAQ23pDdFpCbvwjp"], "asm": "OP_HASH160 ca7f7c5e66c17d6723113d8ddf67b0126e2fd9a2 OP_EQUAL", "type": "scripthash"}, "value": 0.01040974, "n": 1}], "hex": "02000000000101359910498bc35ff4ba7acffaed927febb6286a669caae535431ddc04188280320000000017160014ac4d2c5fbb721b9d7ae7e8cd19543d83db3d9296feffffff02725d04000000000017a91471339ebb7c1b71e9063c06eca3bf07aee9b9aa66874ee20f000000000017a914ca7f7c5e66c17d6723113d8ddf67b0126e2fd9a28702473044022078be23801731668d7353fcff85409ef651ca6daaaa39385de27dea1cedcea1b9022076edf9d6002ee9c09808df1612eb68a2fc5c1b373fd82a536c4252874f83d35e0121023a1c34982db7c86e0ff718d8a435abd2763185568be78f0ba0b17065afac5e1714490800", "vin": [{"txinwitness": ["3044022078be23801731668d7353fcff85409ef651ca6daaaa39385de27dea1cedcea1b9022076edf9d6002ee9c09808df1612eb68a2fc5c1b373fd82a536c4252874f83d35e01", "023a1c34982db7c86e0ff718d8a435abd2763185568be78f0ba0b17065afac5e17"], "sequence": 4294967294, "scriptSig": {"hex": "160014ac4d2c5fbb721b9d7ae7e8cd19543d83db3d9296", "asm": "0014ac4d2c5fbb721b9d7ae7e8cd19543d83db3d9296"}, "vout": 0, "txid": "3280821804dc1d4335e5aa9c666a28b6eb7f92edfacf7abaf45fc38b49109935"}], "txid": "68b870382640ca05ec8ba69cec95ab6de6bcf6f7a65e24b954058eaaf7e9c763", "blocktime": 1537874412, "version": 2, "confirmations": 11466, "time": 1537874412, "locktime": 542996, "vsize": 166, "size": 247}