{"hash": "68ba72a585a9f8040812d693a27cd4fa101c7a83b76350f968c4eb72994dabbc", "blockhash": "00000000000000000004ffacab907a6b429b9a5745fa0b75af4234bf69dd7176", "vout": [{"scriptPubKey": {"reqSigs": 1, "hex": "76a91408934366f0b4ebf29c6efb37442c8c64bbb0a42a88ac", "addresses": ["1nLpZuf49bmEKV9HykiNvHCeXWsy8LaPn"], "asm": "OP_DUP OP_HASH160 08934366f0b4ebf29c6efb37442c8c64bbb0a42a OP_EQUALVERIFY OP_CHECKSIG", "type": "pubkeyhash"}, "value": 3.988e-05, "n": 0}, {"scriptPubKey": {"reqSigs": 1, "hex": "a914647b3c3ed76c0df0131a0013ddf00b12bfe564af87", "addresses": ["3ArK8GVVF36TUMfS2VSqdeR5vw8dZXVcR6"], "asm": "OP_HASH160 647b3c3ed76c0df0131a0013ddf00b12bfe564af OP_EQUAL", "type": "scripthash"}, "value": 0.00656124, "n": 1}], "hex": "010000000402da1c4bd7ba2c2cec84763b9d630492823e780254044f4db7fd4c5af0f47307000000006a473044022063f5ba4077afe936fb7abc35a5d44e44b9297c7c1a6483e054c1276bc78a2af1022058fef56f960ab10798f9ec289270308f098b1e294902f606da4389a7570584be0121024b3f930b7d196079a704cf0a51d64bc54d8758ed504f647c4b9b27bc4f371ea4ffffffff4b6385cf328377b6ce150b42894ed60cc726f57d1e1a4106c3a4075fa73a3642010000006b4830450221009c72f9ec30a60da302ec2e0ad8d0f60d28de3936c3c1f76c8387611cb50623de0220435aa3f9f8c2450033f3d224c44a84ebdc29e32fecffef766b2c0c20ed7038060121029007db5170eefd4799ae2ba0b14b0e176a653f6f2851632b28ad630baca5cfa4ffffffffb50a4b428ac3ba1c5a74c1cc23aca66e1cd9293d1fc735ec4eb3351ffa6bd2ac000000006a4730440220036db29f94a166c51565e6b57ea19e5c1a782cd746e381f9aafe3a5ce434e619022026a8d092b11756e99578240d3e3456ea9faaa3f91fac11fbbc28118971bd82cf0121033fb67e1c0f3b6620c8f272cade6d7fa01543d4398a90aca02c3fa1855ffbc4cfffffffff3609bbdfc1338f3972a0bd78215b8b1c93584be950a0fb4396865bcf933851e1010000006b483045022100bc1d53a276c4b34f58fd0412f4729d09c56912c472411daba690ddbb9f9074b5022043e964cfedd1eea5b99e1d60ade6530ca2e851751d0d700a97d2b303b3c67b860121025ebec7f0e5e6f6b93d09422b4b28aba5607ee1d990a2a7913ddf35d369e6ca72ffffffff02940f0000000000001976a91408934366f0b4ebf29c6efb37442c8c64bbb0a42a88acfc020a000000000017a914647b3c3ed76c0df0131a0013ddf00b12bfe564af8700000000", "vin": [{"sequence": 4294967295, "scriptSig": {"hex": "473044022063f5ba4077afe936fb7abc35a5d44e44b9297c7c1a6483e054c1276bc78a2af1022058fef56f960ab10798f9ec289270308f098b1e294902f606da4389a7570584be0121024b3f930b7d196079a704cf0a51d64bc54d8758ed504f647c4b9b27bc4f371ea4", "asm": "3044022063f5ba4077afe936fb7abc35a5d44e44b9297c7c1a6483e054c1276bc78a2af1022058fef56f960ab10798f9ec289270308f098b1e294902f606da4389a7570584be[ALL] 024b3f930b7d196079a704cf0a51d64bc54d8758ed504f647c4b9b27bc4f371ea4"}, "vout": 0, "txid": "0773f4f05a4cfdb74d4f045402783e829204639d3b7684ec2c2cbad74b1cda02"}, {"sequence": 4294967295, "scriptSig": {"hex": "4830450221009c72f9ec30a60da302ec2e0ad8d0f60d28de3936c3c1f76c8387611cb50623de0220435aa3f9f8c2450033f3d224c44a84ebdc29e32fecffef766b2c0c20ed7038060121029007db5170eefd4799ae2ba0b14b0e176a653f6f2851632b28ad630baca5cfa4", "asm": "30450221009c72f9ec30a60da302ec2e0ad8d0f60d28de3936c3c1f76c8387611cb50623de0220435aa3f9f8c2450033f3d224c44a84ebdc29e32fecffef766b2c0c20ed703806[ALL] 029007db5170eefd4799ae2ba0b14b0e176a653f6f2851632b28ad630baca5cfa4"}, "vout": 1, "txid": "42363aa75f07a4c306411a1e7df526c70cd64e89420b15ceb6778332cf85634b"}, {"sequence": 4294967295, "scriptSig": {"hex": "4730440220036db29f94a166c51565e6b57ea19e5c1a782cd746e381f9aafe3a5ce434e619022026a8d092b11756e99578240d3e3456ea9faaa3f91fac11fbbc28118971bd82cf0121033fb67e1c0f3b6620c8f272cade6d7fa01543d4398a90aca02c3fa1855ffbc4cf", "asm": "30440220036db29f94a166c51565e6b57ea19e5c1a782cd746e381f9aafe3a5ce434e619022026a8d092b11756e99578240d3e3456ea9faaa3f91fac11fbbc28118971bd82cf[ALL] 033fb67e1c0f3b6620c8f272cade6d7fa01543d4398a90aca02c3fa1855ffbc4cf"}, "vout": 0, "txid": "acd26bfa1f35b34eec35c71f3d29d91c6ea6ac23ccc1745a1cbac38a424b0ab5"}, {"sequence": 4294967295, "scriptSig": {"hex": "483045022100bc1d53a276c4b34f58fd0412f4729d09c56912c472411daba690ddbb9f9074b5022043e964cfedd1eea5b99e1d60ade6530ca2e851751d0d700a97d2b303b3c67b860121025ebec7f0e5e6f6b93d09422b4b28aba5607ee1d990a2a7913ddf35d369e6ca72", "asm": "3045022100bc1d53a276c4b34f58fd0412f4729d09c56912c472411daba690ddbb9f9074b5022043e964cfedd1eea5b99e1d60ade6530ca2e851751d0d700a97d2b303b3c67b86[ALL] 025ebec7f0e5e6f6b93d09422b4b28aba5607ee1d990a2a7913ddf35d369e6ca72"}, "vout": 1, "txid": "e1513893cf5b869643fba050e94b58931c8b5b2178bda072398f33c1dfbb0936"}], "txid": "68ba72a585a9f8040812d693a27cd4fa101c7a83b76350f968c4eb72994dabbc", "blocktime": 1537875543, "version": 1, "confirmations": 11464, "time": 1537875543, "locktime": 0, "vsize": 666, "size": 666}