{"hash": "46328ed61f21af0b07e018486b5fb3a476505aba4faea3d0b41262bb2c604dc8", "blockhash": "000000000000000000022b45ed06c6f4ccd3cf7fb5ba4856ebd2e58215665228", "vout": [{"scriptPubKey": {"reqSigs": 1, "hex": "76a914593e57a3387071033d57a321730e4712363a1e5a88ac", "addresses": ["198sphGQ8bfygtPKWPnKxE49e3DjU4edYP"], "asm": "OP_DUP OP_HASH160 593e57a3387071033d57a321730e4712363a1e5a OP_EQUALVERIFY OP_CHECKSIG", "type": "pubkeyhash"}, "value": 0.01, "n": 0}, {"scriptPubKey": {"reqSigs": 1, "hex": "76a9149d21e9b14bbb797bf7890bda8146077495be023688ac", "addresses": ["1FKqiRcNJhP3LpaZtqgjUsJg4RxRNzci5j"], "asm": "OP_DUP OP_HASH160 9d21e9b14bbb797bf7890bda8146077495be0236 OP_EQUALVERIFY OP_CHECKSIG", "type": "pubkeyhash"}, "value": 0.0135, "n": 1}, {"scriptPubKey": {"reqSigs": 1, "hex": "a9141dad34c250734f15c7a8a90ec06ff27b24f6d35c87", "addresses": ["34Pw1gDWc7SBKj6qb8ScExfiSKUBdokZPH"], "asm": "OP_HASH160 1dad34c250734f15c7a8a90ec06ff27b24f6d35c OP_EQUAL", "type": "scripthash"}, "value": 11.25913508, "n": 2}, {"scriptPubKey": {"reqSigs": 1, "hex": "76a9142d1271b0c438af7ed6e9e46762546d55252a6bca88ac", "addresses": ["157KW9mTR2e52z3yskW6185ojVb6p6wacc"], "asm": "OP_DUP OP_HASH160 2d1271b0c438af7ed6e9e46762546d55252a6bca OP_EQUALVERIFY OP_CHECKSIG", "type": "pubkeyhash"}, "value": 0.09835, "n": 3}], "hex": "02000000000101cba21f2e3c1dcbb9b36eafdf7aaee347b5eedad8413a2c0abbcc6fbab65d5e9d010000001716001418f97070322be460531b481a0df0e8d7be80a164fdffffff0440420f00000000001976a914593e57a3387071033d57a321730e4712363a1e5a88ac70991400000000001976a9149d21e9b14bbb797bf7890bda8146077495be023688aca4131c430000000017a9141dad34c250734f15c7a8a90ec06ff27b24f6d35c87f8119600000000001976a9142d1271b0c438af7ed6e9e46762546d55252a6bca88ac0247304402200e5c0f9193c28a85d925b89e3943f76022773e2c09747384f9b7b45af09ebae6022006438e78dc49244118e02ba5aa74236a66ee8833e24316c95977611aef7001890121033a11b429d48f746b94a55d89d6c519ebeeec9dec0ef65ab1a68b5dd4fc45cc460b490800", "vin": [{"txinwitness": ["304402200e5c0f9193c28a85d925b89e3943f76022773e2c09747384f9b7b45af09ebae6022006438e78dc49244118e02ba5aa74236a66ee8833e24316c95977611aef70018901", "033a11b429d48f746b94a55d89d6c519ebeeec9dec0ef65ab1a68b5dd4fc45cc46"], "sequence": 4294967293, "scriptSig": {"hex": "16001418f97070322be460531b481a0df0e8d7be80a164", "asm": "001418f97070322be460531b481a0df0e8d7be80a164"}, "vout": 1, "txid": "9d5e5db6ba6fccbb0a2c3a41d8daeeb547e3ae7adfaf6eb3b9cb1d3c2e1fa2cb"}], "txid": "68bdc90d2d5476445e461e7fd8c1eb68e96d0002eb0dd628613fe430263e9ab3", "blocktime": 1537869901, "version": 2, "confirmations": 11524, "time": 1537869901, "locktime": 542987, "vsize": 236, "size": 317}