{"hash": "68c3996a38b2f3995cc179ef9acc5b5a4f069cf9022c17bef61aec8d752e98fb", "blockhash": "0000000000000000000e13cef7c366c0283d82e591d1acd082e914b08063cdf1", "vout": [{"scriptPubKey": {"reqSigs": 1, "hex": "a914cf61d0acdffd8b06a31179e752221b188fa9b18687", "addresses": ["3LbYyZsahMG6LNkAcgiLD9RopzC95Rxbko"], "asm": "OP_HASH160 cf61d0acdffd8b06a31179e752221b188fa9b186 OP_EQUAL", "type": "scripthash"}, "value": 0.0261518, "n": 0}, {"scriptPubKey": {"reqSigs": 1, "hex": "76a914cce33935bf23d1ee2f4d51df0d09aa4b76276bc888ac", "addresses": ["1KgM3u3b7cse6MDJxR32VEmA3E9aG9rvPC"], "asm": "OP_DUP OP_HASH160 cce33935bf23d1ee2f4d51df0d09aa4b76276bc8 OP_EQUALVERIFY OP_CHECKSIG", "type": "pubkeyhash"}, "value": 2.757e-05, "n": 1}], "hex": "010000000282425adc1ef83efff79bee91dc6d56832d64f1b304bc77c2ef9d1d85e6cd10b0010000006b483045022100dab55bdee5af043fb1135451a7b1c8c481b04634045a01ea1b2647ec629e5184022051dd6cb7587b213532640228685480937a07c941f2a3ce5db3ee0dacbb6e0e87012102ba95b719b1d2a78bec380fe12a829892192b628c5d5d237211b215b151665a72ffffffff777ef1f7b228141873228406041857046d39caa85cddb8abef74c2f5db00d7d9010000006b483045022100d43ed677e2a5127663e8725468643d4e0005af05c3beb16b5f4728409003bdb3022023a9ab40947ebd470adbaccc8e5a7a2637681032bbc0981c0f97219bc075d062012102937b78b4799fa1694383e86c3e7af94d196f3cc1ad004870eec2b44a0c99aac9ffffffff028ce727000000000017a914cf61d0acdffd8b06a31179e752221b188fa9b18687c50a0000000000001976a914cce33935bf23d1ee2f4d51df0d09aa4b76276bc888ac00000000", "vin": [{"sequence": 4294967295, "scriptSig": {"hex": "483045022100dab55bdee5af043fb1135451a7b1c8c481b04634045a01ea1b2647ec629e5184022051dd6cb7587b213532640228685480937a07c941f2a3ce5db3ee0dacbb6e0e87012102ba95b719b1d2a78bec380fe12a829892192b628c5d5d237211b215b151665a72", "asm": "3045022100dab55bdee5af043fb1135451a7b1c8c481b04634045a01ea1b2647ec629e5184022051dd6cb7587b213532640228685480937a07c941f2a3ce5db3ee0dacbb6e0e87[ALL] 02ba95b719b1d2a78bec380fe12a829892192b628c5d5d237211b215b151665a72"}, "vout": 1, "txid": "b010cde6851d9defc277bc04b3f1642d83566ddc91ee9bf7ff3ef81edc5a4282"}, {"sequence": 4294967295, "scriptSig": {"hex": "483045022100d43ed677e2a5127663e8725468643d4e0005af05c3beb16b5f4728409003bdb3022023a9ab40947ebd470adbaccc8e5a7a2637681032bbc0981c0f97219bc075d062012102937b78b4799fa1694383e86c3e7af94d196f3cc1ad004870eec2b44a0c99aac9", "asm": "3045022100d43ed677e2a5127663e8725468643d4e0005af05c3beb16b5f4728409003bdb3022023a9ab40947ebd470adbaccc8e5a7a2637681032bbc0981c0f97219bc075d062[ALL] 02937b78b4799fa1694383e86c3e7af94d196f3cc1ad004870eec2b44a0c99aac9"}, "vout": 1, "txid": "d9d700dbf5c274efabb8dd5ca8ca396d0457180406842273181428b2f7f17e77"}], "txid": "68c3996a38b2f3995cc179ef9acc5b5a4f069cf9022c17bef61aec8d752e98fb", "blocktime": 1537871767, "version": 1, "confirmations": 11491, "time": 1537871767, "locktime": 0, "vsize": 372, "size": 372}