{"hash": "68d265e3984b86790b4f952c345f46c482b20746444c1a772609de655a64b81d", "blockhash": "0000000000000000001f76057863aec43deb6fa401d9628bb513d65a8098bfab", "vout": [{"scriptPubKey": {"reqSigs": 1, "hex": "a9141ee876ebbfcb851efba4ad9f9b5ac7139d3e91ed87", "addresses": ["34WSgDac5zTQmAj5uzGmsUWpeBcc42jRXa"], "asm": "OP_HASH160 1ee876ebbfcb851efba4ad9f9b5ac7139d3e91ed OP_EQUAL", "type": "scripthash"}, "value": 0.0036, "n": 0}, {"scriptPubKey": {"reqSigs": 1, "hex": "76a914792832d74dd607d574eb161758a08ad9eb42762788ac", "addresses": ["1C3cvG2LtPjEPSwqsH7V2vV5JAwhMCEa89"], "asm": "OP_DUP OP_HASH160 792832d74dd607d574eb161758a08ad9eb427627 OP_EQUALVERIFY OP_CHECKSIG", "type": "pubkeyhash"}, "value": 0.00906881, "n": 1}], "hex": "01000000010f364f9281145e3cddd68bf87581a0f605b4698b48b5543b2fe3fb58669782b6010000006b483045022100e78a9210c2210a6bb3c58ad1209aac10d5fe438952323f14b40f58e55b1b001502200c87dee0f40e7c0b343381e900487675892df41ee0d1733be76ecdc4ed13bcbf01210328da8f5a78e95e3c29de599ea02ebd683df213f68a4c312fe4da26cab938cc92ffffffff02407e05000000000017a9141ee876ebbfcb851efba4ad9f9b5ac7139d3e91ed8781d60d00000000001976a914792832d74dd607d574eb161758a08ad9eb42762788ac00000000", "vin": [{"sequence": 4294967295, "scriptSig": {"hex": "483045022100e78a9210c2210a6bb3c58ad1209aac10d5fe438952323f14b40f58e55b1b001502200c87dee0f40e7c0b343381e900487675892df41ee0d1733be76ecdc4ed13bcbf01210328da8f5a78e95e3c29de599ea02ebd683df213f68a4c312fe4da26cab938cc92", "asm": "3045022100e78a9210c2210a6bb3c58ad1209aac10d5fe438952323f14b40f58e55b1b001502200c87dee0f40e7c0b343381e900487675892df41ee0d1733be76ecdc4ed13bcbf[ALL] 0328da8f5a78e95e3c29de599ea02ebd683df213f68a4c312fe4da26cab938cc92"}, "vout": 1, "txid": "b682976658fbe32f3b54b5488b69b405f6a08175f88bd6dd3c5e1481924f360f"}], "txid": "68d265e3984b86790b4f952c345f46c482b20746444c1a772609de655a64b81d", "blocktime": 1537873891, "version": 1, "confirmations": 11478, "time": 1537873891, "locktime": 0, "vsize": 224, "size": 224}