{"hash": "68d7a8f4241c43a17e477881a49a70899bc576b5cccbacab70d48857eff24cae", "blockhash": "000000000000000000022b45ed06c6f4ccd3cf7fb5ba4856ebd2e58215665228", "vout": [{"scriptPubKey": {"reqSigs": 1, "hex": "a91469f37417e08d37b6ee5b780462a7ef8762200e7b87", "addresses": ["3BMEX8YiaRRqobS8sCNKP5pcpN2TWkr1Ro"], "asm": "OP_HASH160 69f37417e08d37b6ee5b780462a7ef8762200e7b OP_EQUAL", "type": "scripthash"}, "value": 0.026656, "n": 0}, {"scriptPubKey": {"reqSigs": 1, "hex": "0014a4f048f5f48e98b5d410172b36c15931a1da005b", "addresses": ["bc1q5ncy3a0536vtt4qszu4nds2exxsa5qzmmsun9e"], "asm": "0 a4f048f5f48e98b5d410172b36c15931a1da005b", "type": "witness_v0_keyhash"}, "value": 0.00082623, "n": 1}], "hex": "0100000001517aa32d025ab8d9dce9152bb5f1be545d0366207ea5bae0f330576d21668454010000006a47304402201060fbeb6a3ae3bfb0e140091718f91a9f6461db23628622914f3496a32bf43602207e7f9278e29c6095f5f15c194d1441468802f993b38336f7175670bbbd7708f3012103db0bb55da782d3b97d392adb4db36da35236ad6d06d3fde650d6e60bb2c883caffffffff0280ac28000000000017a91469f37417e08d37b6ee5b780462a7ef8762200e7b87bf42010000000000160014a4f048f5f48e98b5d410172b36c15931a1da005b00000000", "vin": [{"sequence": 4294967295, "scriptSig": {"hex": "47304402201060fbeb6a3ae3bfb0e140091718f91a9f6461db23628622914f3496a32bf43602207e7f9278e29c6095f5f15c194d1441468802f993b38336f7175670bbbd7708f3012103db0bb55da782d3b97d392adb4db36da35236ad6d06d3fde650d6e60bb2c883ca", "asm": "304402201060fbeb6a3ae3bfb0e140091718f91a9f6461db23628622914f3496a32bf43602207e7f9278e29c6095f5f15c194d1441468802f993b38336f7175670bbbd7708f3[ALL] 03db0bb55da782d3b97d392adb4db36da35236ad6d06d3fde650d6e60bb2c883ca"}, "vout": 1, "txid": "548466216d5730f3e0baa57e2066035d54bef1b52b15e9dcd9b85a022da37a51"}], "txid": "68d7a8f4241c43a17e477881a49a70899bc576b5cccbacab70d48857eff24cae", "blocktime": 1537869901, "version": 1, "confirmations": 11523, "time": 1537869901, "locktime": 0, "vsize": 220, "size": 220}