{"hash": "1ceb4907bf49419039b6cc3ecf78ae118a8a8d5729ea6377c740e2e975f341a3", "blockhash": "00000000000000000018f53835495a110e01622372bf6ae95dc86f2b0ab887b0", "vout": [{"scriptPubKey": {"reqSigs": 1, "hex": "a9145f8ba29d8be4d59eb7ce1c9d4fdeabd82c41dedc87", "addresses": ["3AQDPnvTvnvYwZ5iuHVxsgiuXDjnkzoTGS"], "asm": "OP_HASH160 5f8ba29d8be4d59eb7ce1c9d4fdeabd82c41dedc OP_EQUAL", "type": "scripthash"}, "value": 0.09498948, "n": 0}, {"scriptPubKey": {"reqSigs": 1, "hex": "a91467318ce295949e0900781f2ff2ea3d4d974ac12187", "addresses": ["3B6et7u4AevWgdnuNbbtossYbhPVGcGbZN"], "asm": "OP_HASH160 67318ce295949e0900781f2ff2ea3d4d974ac121 OP_EQUAL", "type": "scripthash"}, "value": 0.3278768, "n": 1}, {"scriptPubKey": {"reqSigs": 1, "hex": "76a91477188858b15727543e79276a833972fda322e94188ac", "addresses": ["1BrioPDMbwkztbiCayRXFj9Nakew3u7PkM"], "asm": "OP_DUP OP_HASH160 77188858b15727543e79276a833972fda322e941 OP_EQUALVERIFY OP_CHECKSIG", "type": "pubkeyhash"}, "value": 0.01977148, "n": 2}], "hex": "02000000000101eaf1ecf0ff2c5f76f1b33b80141813a0e1d1c76042b453ea6010b164bc7542a70100000017160014c670e3046ad49db501102fda8d2ec2756cc38f1bfeffffff0344f190000000000017a9145f8ba29d8be4d59eb7ce1c9d4fdeabd82c41dedc87e04cf4010000000017a91467318ce295949e0900781f2ff2ea3d4d974ac121873c2b1e00000000001976a91477188858b15727543e79276a833972fda322e94188ac02483045022100b44ea64e012591260368428a99d6b2c05341ff48f6fa021bf6c23a14e136abcf0220108e499ecff7051edbd8dbe11cdcc1cc52b306644702e9194442dcd707d7ae9e01210247d804b39acad390d0eb6501b107852efd642e74e112cda438eea9db451896a40d490800", "vin": [{"txinwitness": ["3045022100b44ea64e012591260368428a99d6b2c05341ff48f6fa021bf6c23a14e136abcf0220108e499ecff7051edbd8dbe11cdcc1cc52b306644702e9194442dcd707d7ae9e01", "0247d804b39acad390d0eb6501b107852efd642e74e112cda438eea9db451896a4"], "sequence": 4294967294, "scriptSig": {"hex": "160014c670e3046ad49db501102fda8d2ec2756cc38f1b", "asm": "0014c670e3046ad49db501102fda8d2ec2756cc38f1b"}, "vout": 1, "txid": "a74275bc64b11060ea53b44260c7d1e1a0131814803bb3f1765f2cfff0ecf1ea"}], "txid": "68d79aebb8ff8536d5a8e614cf8b8015c89144add0e2698b554f17d304bc801e", "blocktime": 1537870928, "version": 2, "confirmations": 11512, "time": 1537870928, "locktime": 542989, "vsize": 200, "size": 282}