{"hash": "85af3a28340b8f4584ebbd318126b95493a76c006f5cd71c38c665716c1c0f64", "blockhash": "0000000000000000001e0dab787dd257d1dbfcb92a98c2207d5e1078be1f4165", "vout": [{"scriptPubKey": {"reqSigs": 1, "hex": "00146d066444ca98a530f9daa877b08d15ec5538899a", "addresses": ["bc1qd5rxg3x2nzjnp7w64pmmprg4a32n3zv6guw3fv"], "asm": "0 6d066444ca98a530f9daa877b08d15ec5538899a", "type": "witness_v0_keyhash"}, "value": 1.329e-05, "n": 0}, {"scriptPubKey": {"reqSigs": 1, "hex": "76a9147fd0e43e51c2dee45176e46d681ee2b78c66287388ac", "addresses": ["1Ceq4QQjSQQiFwDWDuadVq3rBHGGXynn9X"], "asm": "OP_DUP OP_HASH160 7fd0e43e51c2dee45176e46d681ee2b78c662873 OP_EQUALVERIFY OP_CHECKSIG", "type": "pubkeyhash"}, "value": 0.00018821, "n": 1}], "hex": "0100000000010195964c159b1de49e8fb449136705ede157dd42588a7b0a4e0cc2ab51c45f3aa60100000000ffffffff0231050000000000001600146d066444ca98a530f9daa877b08d15ec5538899a85490000000000001976a9147fd0e43e51c2dee45176e46d681ee2b78c66287388ac02483045022100b718e9ac0ab88b6dfc67e7ae1b4bc09c31fa7a7cf15dfe79b9c861c79decbfc702206063585ef3a1d91b982cb5713981859b21b91439b68bdc97cbbd144086660d6701210382c3a767490cfe5ae5a84f6a18e4713d00f23ea2139aa2ef1a56d02630be276200000000", "vin": [{"txinwitness": ["3045022100b718e9ac0ab88b6dfc67e7ae1b4bc09c31fa7a7cf15dfe79b9c861c79decbfc702206063585ef3a1d91b982cb5713981859b21b91439b68bdc97cbbd144086660d6701", "0382c3a767490cfe5ae5a84f6a18e4713d00f23ea2139aa2ef1a56d02630be2762"], "sequence": 4294967295, "scriptSig": {"hex": "", "asm": ""}, "vout": 1, "txid": "a63a5fc451abc20c4e0a7b8a5842dd57e1ed05671349b48f9ee41d9b154c9695"}], "txid": "68da6f2eb26a4ad0c0a591f82075a82c50469afad5d8cfedde50fa30e87338ad", "blocktime": 1537872475, "version": 1, "confirmations": 11487, "time": 1537872475, "locktime": 0, "vsize": 144, "size": 226}