{"hash": "7473447ae05c385c124f7bbed2d202784523a4ca76a7123516388c95f72f0af1", "blockhash": "0000000000000000001f76057863aec43deb6fa401d9628bb513d65a8098bfab", "vout": [{"scriptPubKey": {"reqSigs": 1, "hex": "a914e27599ba66b07b9209b0ee009a60484c89a7ecd087", "addresses": ["3NLRWvWk85CAz6J6awJekh7D8A4guCrQQA"], "asm": "OP_HASH160 e27599ba66b07b9209b0ee009a60484c89a7ecd0 OP_EQUAL", "type": "scripthash"}, "value": 0.0087793, "n": 0}, {"scriptPubKey": {"reqSigs": 1, "hex": "76a914ff82a29a8ea10b057df632f92478edae3a79f9a588ac", "addresses": ["1QJ1ocEou2SxyrawZy9HgcrRgUjBAVRySu"], "asm": "OP_DUP OP_HASH160 ff82a29a8ea10b057df632f92478edae3a79f9a5 OP_EQUALVERIFY OP_CHECKSIG", "type": "pubkeyhash"}, "value": 0.0009108, "n": 1}, {"scriptPubKey": {"reqSigs": 1, "hex": "a914e488a9b1352428a2a084ae60be7f2b0d30f4858b87", "addresses": ["3NXPhnNYxjsE4Y7V27AvkoPzZGWVx7azdN"], "asm": "OP_HASH160 e488a9b1352428a2a084ae60be7f2b0d30f4858b OP_EQUAL", "type": "scripthash"}, "value": 0.00029772, "n": 2}], "hex": "01000000000101876367a7eb087186bf7f51d71ac7eb050b7273ccfb9a8c43d34c9bc5a4d6efa800000000171600149791f78cd54de49d51e377f5676a21d4c8f7ff80ffffffff036a650d000000000017a914e27599ba66b07b9209b0ee009a60484c89a7ecd087c8630100000000001976a914ff82a29a8ea10b057df632f92478edae3a79f9a588ac4c7400000000000017a914e488a9b1352428a2a084ae60be7f2b0d30f4858b870247304402206aab59e5087d0585d703055f4eedadb1b4511d6845bfe7b79c8b474d8e3f4a43022071c714ed3442152dc4711f0b1bd8d640026e1bb4d6112b3fa6a316b17a17fef70121021be960e215b5f002e2697b551f04ba02b5bef150c055a1b107d5317088c81ea500000000", "vin": [{"txinwitness": ["304402206aab59e5087d0585d703055f4eedadb1b4511d6845bfe7b79c8b474d8e3f4a43022071c714ed3442152dc4711f0b1bd8d640026e1bb4d6112b3fa6a316b17a17fef701", "021be960e215b5f002e2697b551f04ba02b5bef150c055a1b107d5317088c81ea5"], "sequence": 4294967295, "scriptSig": {"hex": "1600149791f78cd54de49d51e377f5676a21d4c8f7ff80", "asm": "00149791f78cd54de49d51e377f5676a21d4c8f7ff80"}, "vout": 0, "txid": "a8efd6a4c59b4cd3438c9afbcc73720b05ebc71ad7517fbf867108eba7676387"}], "txid": "68eedb741524c456f64cdc8656362a245fb7617c8d237b742d9e305928e065cf", "blocktime": 1537873891, "version": 1, "confirmations": 11476, "time": 1537873891, "locktime": 0, "vsize": 200, "size": 281}