{"hash": "e383a3e0c74e216f4478562d8a5a8170b469a16203718542e39bd6f08819abfb", "blockhash": "0000000000000000001cda96e906b7601b7a6fb1a3b62bca570a9e5d8f4b3de1", "vout": [{"scriptPubKey": {"reqSigs": 1, "hex": "76a9140cbb868061c99dc6c5193cde9a858ecaf42b20de88ac", "addresses": ["12AKko79xy8S9UBGRkDmowDLi6REVbEvvA"], "asm": "OP_DUP OP_HASH160 0cbb868061c99dc6c5193cde9a858ecaf42b20de OP_EQUALVERIFY OP_CHECKSIG", "type": "pubkeyhash"}, "value": 0.10782697, "n": 0}, {"scriptPubKey": {"reqSigs": 1, "hex": "76a914687891b02de79209b5902383e03c42f0e3b2883f88ac", "addresses": ["1AXPiEoMAvyvEMXb3DtkcHVSacJfD9eggK"], "asm": "OP_DUP OP_HASH160 687891b02de79209b5902383e03c42f0e3b2883f OP_EQUALVERIFY OP_CHECKSIG", "type": "pubkeyhash"}, "value": 1.33007444, "n": 1}, {"scriptPubKey": {"reqSigs": 1, "hex": "a9146770a17203e4d67717e2c94a23b25e9ecfa7829f87", "addresses": ["3B7xT1veWmPzoSnygLrJADbKugTFWLRRuY"], "asm": "OP_HASH160 6770a17203e4d67717e2c94a23b25e9ecfa7829f OP_EQUAL", "type": "scripthash"}, "value": 3.87784562, "n": 2}, {"scriptPubKey": {"reqSigs": 1, "hex": "76a914b520c17be90d9c41a97fd097397291b942392eb088ac", "addresses": ["1HWiYdmhusvTo1sCMduMs28HxuuRc5tNtZ"], "asm": "OP_DUP OP_HASH160 b520c17be90d9c41a97fd097397291b942392eb0 OP_EQUALVERIFY OP_CHECKSIG", "type": "pubkeyhash"}, "value": 3.4995, "n": 3}, {"scriptPubKey": {"reqSigs": 1, "hex": "a91400b041bf771ebc83fb0a65e40b69734d8a8191a787", "addresses": ["31kf55kwYQTeR1N5jEyevkBqZe8nKvvmVE"], "asm": "OP_HASH160 00b041bf771ebc83fb0a65e40b69734d8a8191a7 OP_EQUAL", "type": "scripthash"}, "value": 0.001, "n": 4}, {"scriptPubKey": {"reqSigs": 1, "hex": "a91469f37471cab08dbd9885388b1d4d57a2829a403f87", "addresses": ["3BMEXE5Q6VDMKnYeoFFD2BzPLkyzeUvGW3"], "asm": "OP_HASH160 69f37471cab08dbd9885388b1d4d57a2829a403f OP_EQUAL", "type": "scripthash"}, "value": 0.2050832, "n": 5}, {"scriptPubKey": {"reqSigs": 1, "hex": "a91469f37524b33f18981b447da6eaaae06fe7a73c4d87", "addresses": ["3BMEXR5UfMiepMJPsiypuTaESCEJz6a6YD"], "asm": "OP_HASH160 69f37524b33f18981b447da6eaaae06fe7a73c4d OP_EQUAL", "type": "scripthash"}, "value": 0.01351398, "n": 6}, {"scriptPubKey": {"reqSigs": 1, "hex": "a914bd2315b1830842285ab1ae2c953a71f96044372d87", "addresses": ["3Jw5fXhjGPF4Nf2Nj6WmmjqbimdCHpft8Y"], "asm": "OP_HASH160 bd2315b1830842285ab1ae2c953a71f96044372d OP_EQUAL", "type": "scripthash"}, "value": 20.0, "n": 7}, {"scriptPubKey": {"reqSigs": 1, "hex": "a914409f8ea94be3fb2891ff0d1c3ae9e88a4b7ffe8e87", "addresses": ["37aiK47MA7oh77CUZTBQaKn5JQqaRdsZWC"], "asm": "OP_HASH160 409f8ea94be3fb2891ff0d1c3ae9e88a4b7ffe8e OP_EQUAL", "type": "scripthash"}, "value": 5.407, "n": 8}], "hex": "010000000001026942b7c0fd43c1b62b572d53ad70772639cf8d0cc62ef25e46bb5c0501bff38c010000002322002043294f44ea77312f4539050e55608117707c82fb87d85c71f73f06455356c9e3ffffffff28040a9b431ecf772cec4a2c2784dfbde16caca6cb357420af73bbe9d49053300000000023220020a75ddabd1d904e18059e53cf4c8b4a9525ccf335415cc01127b4870d5b61a45bffffffff09e987a400000000001976a9140cbb868061c99dc6c5193cde9a858ecaf42b20de88ac5488ed07000000001976a914687891b02de79209b5902383e03c42f0e3b2883f88ac721f1d170000000017a9146770a17203e4d67717e2c94a23b25e9ecfa7829f8730d0db14000000001976a914b520c17be90d9c41a97fd097397291b942392eb088aca08601000000000017a91400b041bf771ebc83fb0a65e40b69734d8a8191a787a0ee38010000000017a91469f37471cab08dbd9885388b1d4d57a2829a403f87e69e14000000000017a91469f37524b33f18981b447da6eaaae06fe7a73c4d87009435770000000017a914bd2315b1830842285ab1ae2c953a71f96044372d87606d3a200000000017a914409f8ea94be3fb2891ff0d1c3ae9e88a4b7ffe8e8704004830450221009dd0fef9427bc2db9f8e86471939402efa4a361751e31c80ab977379964fc2800220192c93ae3f5cd73000d8d55333d16d7d954af1f6776750c1511bae4999a3d082014730440220443ca53c962fb9bde2d9e20ef07d9c10a5876182b58ea5c00995c829279e05f502203d2318d76436c8ed0f6ec4575d774850332ddad283ad77b95d163b46375f18090169522103ceec0a67f28b7dfc0b9259c18f10407601684cbe6df2064350fb5fb0e493107a21038498167f09df4990540bf7c5680f4ef615f89967e212e795c51ce13339c7add721031bfc68a9931cf2542ad3440b0282534b77658d5e5ce06c9fc022c927290f22d153ae040047304402202039bf48c87c4b87afd3209886e2ff223ea94143c9d50b093fbb122de06266a80220324495e07596009a802cc88aee50580fc22b415bc0c3dc110b29d255d81f5a2701473044022053d7ae36980e82d1ba3a69802dd2abac9b93a81836903acc186c0a611724e8cf022078c3948bd972eab3d7792c34cec9f93ff68329f404be801186ef8fe0852ba51e016952210255579a35f854c14516af95266a1032f4a1828cba7d2dd278d7a63c3da908b7b1210338b50558aadf81f6973315c96ea290043797214f191237d044bb96fc90656a31210335f69ae13dfcf137bb095979beab6268fe08616adecb5d61279c6e317727832953ae00000000", "vin": [{"txinwitness": ["", "30450221009dd0fef9427bc2db9f8e86471939402efa4a361751e31c80ab977379964fc2800220192c93ae3f5cd73000d8d55333d16d7d954af1f6776750c1511bae4999a3d08201", "30440220443ca53c962fb9bde2d9e20ef07d9c10a5876182b58ea5c00995c829279e05f502203d2318d76436c8ed0f6ec4575d774850332ddad283ad77b95d163b46375f180901", "522103ceec0a67f28b7dfc0b9259c18f10407601684cbe6df2064350fb5fb0e493107a21038498167f09df4990540bf7c5680f4ef615f89967e212e795c51ce13339c7add721031bfc68a9931cf2542ad3440b0282534b77658d5e5ce06c9fc022c927290f22d153ae"], "sequence": 4294967295, "scriptSig": {"hex": "22002043294f44ea77312f4539050e55608117707c82fb87d85c71f73f06455356c9e3", "asm": "002043294f44ea77312f4539050e55608117707c82fb87d85c71f73f06455356c9e3"}, "vout": 1, "txid": "8cf3bf01055cbb465ef22ec60c8dcf39267770ad532d572bb6c143fdc0b74269"}, {"txinwitness": ["", "304402202039bf48c87c4b87afd3209886e2ff223ea94143c9d50b093fbb122de06266a80220324495e07596009a802cc88aee50580fc22b415bc0c3dc110b29d255d81f5a2701", "3044022053d7ae36980e82d1ba3a69802dd2abac9b93a81836903acc186c0a611724e8cf022078c3948bd972eab3d7792c34cec9f93ff68329f404be801186ef8fe0852ba51e01", "52210255579a35f854c14516af95266a1032f4a1828cba7d2dd278d7a63c3da908b7b1210338b50558aadf81f6973315c96ea290043797214f191237d044bb96fc90656a31210335f69ae13dfcf137bb095979beab6268fe08616adecb5d61279c6e317727832953ae"], "sequence": 4294967295, "scriptSig": {"hex": "220020a75ddabd1d904e18059e53cf4c8b4a9525ccf335415cc01127b4870d5b61a45b", "asm": "0020a75ddabd1d904e18059e53cf4c8b4a9525ccf335415cc01127b4870d5b61a45b"}, "vout": 0, "txid": "305390d4e9bb73af207435cba6ac6ce1bddf84272c4aec2c77cf1e439b0a0428"}], "txid": "68efee9903040fbeecf42f2d8eed16770274ab299cc714f39fa41dc3bbf7ac6a", "blocktime": 1537873282, "version": 1, "confirmations": 11484, "time": 1537873282, "locktime": 0, "vsize": 583, "size": 963}