{"hash": "7b73ff7938ae962fb9c4fde681ead0dfd432e9769ecd9a6b14205afb142686fc", "blockhash": "000000000000000000022b45ed06c6f4ccd3cf7fb5ba4856ebd2e58215665228", "vout": [{"scriptPubKey": {"reqSigs": 1, "hex": "a9141988a27e3c2df4ddee7fad5a2303d086179b2a3087", "addresses": ["3422VtS7UtCvXYxoXMVp6eZupR252z85oC"], "asm": "OP_HASH160 1988a27e3c2df4ddee7fad5a2303d086179b2a30 OP_EQUAL", "type": "scripthash"}, "value": 2.19677976, "n": 0}, {"scriptPubKey": {"reqSigs": 1, "hex": "76a9148b9c68742f8c81095bd9d9f8f38f47938a240ba188ac", "addresses": ["1DjCJ5tqYtuVQcxycRzgCknYudnDjWLUtJ"], "asm": "OP_DUP OP_HASH160 8b9c68742f8c81095bd9d9f8f38f47938a240ba1 OP_EQUALVERIFY OP_CHECKSIG", "type": "pubkeyhash"}, "value": 0.00404316, "n": 1}, {"scriptPubKey": {"reqSigs": 1, "hex": "a914a05505fc9d641cffab61410a680c0eb2040b0b6687", "addresses": ["3GJmtmKqFttGyYrPXZuQvQTP8mxoHQKpFZ"], "asm": "OP_HASH160 a05505fc9d641cffab61410a680c0eb2040b0b66 OP_EQUAL", "type": "scripthash"}, "value": 0.0012, "n": 2}], "hex": "010000000001010a520abfef9f23b511c77ce440d589b14aa3882a7dc28e29ca29dbc3cc3b53fb010000002322002065d416c48a8072e0ac51c2d111eb194f009caef0332446c1bf2097316cf07fa9ffffffff031805180d0000000017a9141988a27e3c2df4ddee7fad5a2303d086179b2a30875c2b0600000000001976a9148b9c68742f8c81095bd9d9f8f38f47938a240ba188acc0d401000000000017a914a05505fc9d641cffab61410a680c0eb2040b0b6687040047304402201944529610c98689506588eec6660db270b300f5ae154f1b6ffa9afb0d9ddab702206140413aecb7ad8f5f835bd5127fd10bcb8eee37c01a554e01c954d7300a649001483045022100e1626396e3b10561c441566556cc4247203582705a46a7bece45f94867ae829a022053c25f2d77da6cc2c2baed746168d2696c31ab6a2ee2319a10059de6cb4e11fd0169522102f44abcf9e23c9a460da309ccca56c619c04eed3bde2c2cff5e7d78fbcd980b9c2103c9443cf3047bb6c2c82f1b0c44c36109cdc3d0d601d16d1189a1602bf8d1a0a02103bfe867059274412412e088af5572b92168c2ef495cfe6c9b7a753a009eb37c4853ae00000000", "vin": [{"txinwitness": ["", "304402201944529610c98689506588eec6660db270b300f5ae154f1b6ffa9afb0d9ddab702206140413aecb7ad8f5f835bd5127fd10bcb8eee37c01a554e01c954d7300a649001", "3045022100e1626396e3b10561c441566556cc4247203582705a46a7bece45f94867ae829a022053c25f2d77da6cc2c2baed746168d2696c31ab6a2ee2319a10059de6cb4e11fd01", "522102f44abcf9e23c9a460da309ccca56c619c04eed3bde2c2cff5e7d78fbcd980b9c2103c9443cf3047bb6c2c82f1b0c44c36109cdc3d0d601d16d1189a1602bf8d1a0a02103bfe867059274412412e088af5572b92168c2ef495cfe6c9b7a753a009eb37c4853ae"], "sequence": 4294967295, "scriptSig": {"hex": "22002065d416c48a8072e0ac51c2d111eb194f009caef0332446c1bf2097316cf07fa9", "asm": "002065d416c48a8072e0ac51c2d111eb194f009caef0332446c1bf2097316cf07fa9"}, "vout": 1, "txid": "fb533bccc3db29ca298ec27d2a88a34ab189d540e47cc711b5239fefbf0a520a"}], "txid": "68f00049d929728f7005c928d82b0daca9a0b9a1b082f9eda9675c66f90b5d65", "blocktime": 1537869901, "version": 1, "confirmations": 11522, "time": 1537869901, "locktime": 0, "vsize": 248, "size": 439}