{"hash": "6dc2bef4a93e724ddaa3dc1d84fa1b017923fb4f1e5fd053c9a2391184c5491e", "blockhash": "00000000000000000024a2167bbff67b0be802c0b01cdd79e6331c2be6459f87", "vout": [{"scriptPubKey": {"reqSigs": 1, "hex": "00141b9f1c4addbe5bbf4d74a9951d92be9eb0de67e4", "addresses": ["bc1qrw03cjkahedm7nt54x23my47n6cduelymvtqzn"], "asm": "0 1b9f1c4addbe5bbf4d74a9951d92be9eb0de67e4", "type": "witness_v0_keyhash"}, "value": 0.00012693, "n": 0}, {"scriptPubKey": {"reqSigs": 1, "hex": "76a914592bd65c68a24e39bd532116c1528ad5b33be79b88ac", "addresses": ["198VewphJiSui7hkjrbgk38USYgptYwnuR"], "asm": "OP_DUP OP_HASH160 592bd65c68a24e39bd532116c1528ad5b33be79b OP_EQUALVERIFY OP_CHECKSIG", "type": "pubkeyhash"}, "value": 0.00624, "n": 1}], "hex": "010000000001011891ec756aefe3da416583f58d4715065c2bba40fe822068563cb67ed0ec09650100000000ffffffff0295310000000000001600141b9f1c4addbe5bbf4d74a9951d92be9eb0de67e480850900000000001976a914592bd65c68a24e39bd532116c1528ad5b33be79b88ac0247304402203e9f457212471606641e9f17e9676d878f346ba520d55d15848b8a9a8962220902200fb7fa456b8393fabfc334455f7c756ab1f3f4c35e06f4aad98356d0923582d5012102951ce4988804b266ed00bcfbb2e279d9dd68836f4437436678fbb1510bd5263100000000", "vin": [{"txinwitness": ["304402203e9f457212471606641e9f17e9676d878f346ba520d55d15848b8a9a8962220902200fb7fa456b8393fabfc334455f7c756ab1f3f4c35e06f4aad98356d0923582d501", "02951ce4988804b266ed00bcfbb2e279d9dd68836f4437436678fbb1510bd52631"], "sequence": 4294967295, "scriptSig": {"hex": "", "asm": ""}, "vout": 1, "txid": "6509ecd07eb63c56682082fe40ba2b5c0615478df5836541dae3ef6a75ec9118"}], "txid": "68faeb06f1962c8e144ec68c4ce22de910eb7779ea830acd267cca15234a73eb", "blocktime": 1537870564, "version": 1, "confirmations": 11515, "time": 1537870564, "locktime": 0, "vsize": 144, "size": 225}