{"hash": "68fcee041a0ac4220ec8ad8364e1aa77bbc94ff01b8c1eeca8fc4aa49e462e9f", "blockhash": "0000000000000000000dcc0f55137456b1a82d3642486a52398922ac4d620174", "vout": [{"scriptPubKey": {"reqSigs": 1, "hex": "a914dc33ba911d0c2e35ae5a848a01b765ee3d90d64687", "addresses": ["3MmLYvbVyaXQdtGyy99Rv6HjJsSdUYE6uF"], "asm": "OP_HASH160 dc33ba911d0c2e35ae5a848a01b765ee3d90d646 OP_EQUAL", "type": "scripthash"}, "value": 0.01013772, "n": 0}], "hex": "01000000018d2b973c41d2065ffb050e67eed1ccc45da9cb578fd3f0009d5b8812e12071da000000006a47304402204ea03e151a4cb9688e23ebe29e497761e49db134fd936d6a5693bbcd559fd3e6022052698734a8001969df9fe95347a1cd293abf84f7c3601e95a690485a47a8b5fa012103618b5df5b4c2bc43c7cc3a9b5d25a315c097f03c0a5e27cd097e576e65ac05b7ffffffff010c780f000000000017a914dc33ba911d0c2e35ae5a848a01b765ee3d90d6468700000000", "vin": [{"sequence": 4294967295, "scriptSig": {"hex": "47304402204ea03e151a4cb9688e23ebe29e497761e49db134fd936d6a5693bbcd559fd3e6022052698734a8001969df9fe95347a1cd293abf84f7c3601e95a690485a47a8b5fa012103618b5df5b4c2bc43c7cc3a9b5d25a315c097f03c0a5e27cd097e576e65ac05b7", "asm": "304402204ea03e151a4cb9688e23ebe29e497761e49db134fd936d6a5693bbcd559fd3e6022052698734a8001969df9fe95347a1cd293abf84f7c3601e95a690485a47a8b5fa[ALL] 03618b5df5b4c2bc43c7cc3a9b5d25a315c097f03c0a5e27cd097e576e65ac05b7"}, "vout": 0, "txid": "da7120e112885b9d00f0d38f57cba95dc4ccd1ee670e05fb5f06d2413c972b8d"}], "txid": "68fcee041a0ac4220ec8ad8364e1aa77bbc94ff01b8c1eeca8fc4aa49e462e9f", "blocktime": 1537870268, "version": 1, "confirmations": 11518, "time": 1537870268, "locktime": 0, "vsize": 189, "size": 189}