{"hash": "690647235553a722ce27704217fef008bfab226d5f2fe31dfd88746ee0de9f63", "blockhash": "0000000000000000001cda96e906b7601b7a6fb1a3b62bca570a9e5d8f4b3de1", "vout": [{"scriptPubKey": {"reqSigs": 1, "hex": "76a914647bf59bc479285b87de61938a8ed3a9b64ce2db88ac", "addresses": ["1AAK52xPtknHkdGKfpV8aSoPFnhhH3Stcm"], "asm": "OP_DUP OP_HASH160 647bf59bc479285b87de61938a8ed3a9b64ce2db OP_EQUALVERIFY OP_CHECKSIG", "type": "pubkeyhash"}, "value": 0.0034374, "n": 0}], "hex": "01000000011c2e1753e20c56c8288b593505ec2e86d7fe4882913ab44ca9a1d800a90e1676000000006a4730440220483b8f4159af95315abd76abf8914fb3e1639595a51751e600199a117d596f8c022021deee7574fc0f8c1608d6e057a5ce9dbb90244ac6366b092f129146b395104e012103fa6b35f3020a05a3934a9d52142430b2dbaaa5dd37d97d1589f3a28b858c17c5ffffffff01bc3e0500000000001976a914647bf59bc479285b87de61938a8ed3a9b64ce2db88ac00000000", "vin": [{"sequence": 4294967295, "scriptSig": {"hex": "4730440220483b8f4159af95315abd76abf8914fb3e1639595a51751e600199a117d596f8c022021deee7574fc0f8c1608d6e057a5ce9dbb90244ac6366b092f129146b395104e012103fa6b35f3020a05a3934a9d52142430b2dbaaa5dd37d97d1589f3a28b858c17c5", "asm": "30440220483b8f4159af95315abd76abf8914fb3e1639595a51751e600199a117d596f8c022021deee7574fc0f8c1608d6e057a5ce9dbb90244ac6366b092f129146b395104e[ALL] 03fa6b35f3020a05a3934a9d52142430b2dbaaa5dd37d97d1589f3a28b858c17c5"}, "vout": 0, "txid": "76160ea900d8a1a94cb43a918248fed7862eec0535598b28c8560ce253172e1c"}], "txid": "690647235553a722ce27704217fef008bfab226d5f2fe31dfd88746ee0de9f63", "blocktime": 1537873282, "version": 1, "confirmations": 11481, "time": 1537873282, "locktime": 0, "vsize": 191, "size": 191}