{"hash": "690770c2290294e9b583c0b75af607d9e95b42cd1e8edb4f0f0eec50cc6d8e18", "blockhash": "00000000000000000017f5eb5941039fbcee6240d03bc1f2f8e35350df66a1d8", "vout": [{"scriptPubKey": {"reqSigs": 1, "hex": "a914977433df30565f68ccdb9b4a818a51f58881164987", "addresses": ["3FVqAQjbhR24iwatofvUbAQxhawT7asswt"], "asm": "OP_HASH160 977433df30565f68ccdb9b4a818a51f588811649 OP_EQUAL", "type": "scripthash"}, "value": 0.03057, "n": 0}, {"scriptPubKey": {"reqSigs": 1, "hex": "76a91486468c1b01fbd94d3484d3640a481d4391d3e9e988ac", "addresses": ["1DEz4RAqWP263csokaK1Y6eCAuYASgzmTa"], "asm": "OP_DUP OP_HASH160 86468c1b01fbd94d3484d3640a481d4391d3e9e9 OP_EQUALVERIFY OP_CHECKSIG", "type": "pubkeyhash"}, "value": 0.265373, "n": 1}], "hex": "0100000001fbecdb06fb3a94e06d0f5ba99f2e6f30b63ca4652bdd4d53e312bd266a1d1c17010000006a47304402207f1c21fcc620b2185408e93a527540118c1020ea8a58c9118c88fb5d9f357474022034e8c09a5ee498087c6182e9b9902f1a46061a973cf432b95769fd6240399459012103d99b918c7102568bd05a1ed743215dc50c7ef91bbd980c7b0ddbf6434963b05dffffffff0268a52e000000000017a914977433df30565f68ccdb9b4a818a51f5888116498754ed9401000000001976a91486468c1b01fbd94d3484d3640a481d4391d3e9e988ac00000000", "vin": [{"sequence": 4294967295, "scriptSig": {"hex": "47304402207f1c21fcc620b2185408e93a527540118c1020ea8a58c9118c88fb5d9f357474022034e8c09a5ee498087c6182e9b9902f1a46061a973cf432b95769fd6240399459012103d99b918c7102568bd05a1ed743215dc50c7ef91bbd980c7b0ddbf6434963b05d", "asm": "304402207f1c21fcc620b2185408e93a527540118c1020ea8a58c9118c88fb5d9f357474022034e8c09a5ee498087c6182e9b9902f1a46061a973cf432b95769fd6240399459[ALL] 03d99b918c7102568bd05a1ed743215dc50c7ef91bbd980c7b0ddbf6434963b05d"}, "vout": 1, "txid": "171c1d6a26bd12e3534ddd2b65a43cb6306f2e9fa95b0f6de0943afb06dbecfb"}], "txid": "690770c2290294e9b583c0b75af607d9e95b42cd1e8edb4f0f0eec50cc6d8e18", "blocktime": 1537874412, "version": 1, "confirmations": 11468, "time": 1537874412, "locktime": 0, "vsize": 223, "size": 223}