{"hash": "050988b8b5b600fde62bdeb28b94338372705d1c9b8c57fcbf49c33f88087789", "blockhash": "00000000000000000024a2167bbff67b0be802c0b01cdd79e6331c2be6459f87", "vout": [{"scriptPubKey": {"reqSigs": 1, "hex": "a91469f375d10d081ee708a77ff86399f58dec353a9687", "addresses": ["3BMEXbgAidReqKLEut4nKgXWh8M7oydAaH"], "asm": "OP_HASH160 69f375d10d081ee708a77ff86399f58dec353a96 OP_EQUAL", "type": "scripthash"}, "value": 0.1086, "n": 0}, {"scriptPubKey": {"reqSigs": 1, "hex": "0020701a8d401c84fb13e6baf169d59684e17abd9fa216c8cc5b9fc63d622ff8c58d", "addresses": ["bc1qwqdg6squsna38e46795at95yu9atm8azzmyvckulcc7kytlcckxswvvzej"], "asm": "0 701a8d401c84fb13e6baf169d59684e17abd9fa216c8cc5b9fc63d622ff8c58d", "type": "witness_v0_scripthash"}, "value": 0.71142631, "n": 1}], "hex": "0100000000010145692bed260667d1c749ee5fb98a223106fd6b58064b008c1547762208e650560300000000ffffffff02e0b5a5000000000017a91469f375d10d081ee708a77ff86399f58dec353a9687e78c3d0400000000220020701a8d401c84fb13e6baf169d59684e17abd9fa216c8cc5b9fc63d622ff8c58d040047304402204f2b1abd0921e7f4590f692282f3d871d26a14508007fe9bfda9b19acbce8eed022010e01fe47d7f1b2f4e967f1a341124cb3d18003776144132d0a20d8928be8b180147304402201231ba95502075365609076d0d23ec79113f92e40ad7df6d6bc4d7ec648d3e1c02202213c397dd055bbb2a41d5ee00aa60c1a86a5aa16de181e8ea9fdaf1255556ac016952210375e00eb72e29da82b89367947f29ef34afb75e8654f6ea368e0acdfd92976b7c2103a1b26313f430c4b15bb1fdce663207659d8cac749a0e53d70eff01874496feff2103c96d495bfdd5ba4145e3e046fee45e84a8a48ad05bd8dbb395c011a32cf9f88053ae00000000", "vin": [{"txinwitness": ["", "304402204f2b1abd0921e7f4590f692282f3d871d26a14508007fe9bfda9b19acbce8eed022010e01fe47d7f1b2f4e967f1a341124cb3d18003776144132d0a20d8928be8b1801", "304402201231ba95502075365609076d0d23ec79113f92e40ad7df6d6bc4d7ec648d3e1c02202213c397dd055bbb2a41d5ee00aa60c1a86a5aa16de181e8ea9fdaf1255556ac01", "52210375e00eb72e29da82b89367947f29ef34afb75e8654f6ea368e0acdfd92976b7c2103a1b26313f430c4b15bb1fdce663207659d8cac749a0e53d70eff01874496feff2103c96d495bfdd5ba4145e3e046fee45e84a8a48ad05bd8dbb395c011a32cf9f88053ae"], "sequence": 4294967295, "scriptSig": {"hex": "", "asm": ""}, "vout": 3, "txid": "5650e608227647158c004b06586bfd0631228ab95fee49c7d1670626ed2b6945"}], "txid": "6908091e002d029050d4021f31b48120f67812acdcafbfbba2da792aa3ee53bf", "blocktime": 1537870564, "version": 1, "confirmations": 11515, "time": 1537870564, "locktime": 0, "vsize": 190, "size": 380}