{"hash": "6910aef9ada17e6a358ea73d87b5a7339b12aa4082820d45a433d3ef5c46c3cf", "blockhash": "00000000000000000018f53835495a110e01622372bf6ae95dc86f2b0ab887b0", "vout": [{"scriptPubKey": {"reqSigs": 1, "hex": "76a9143b99f03f7e37513796fec42adbb58f224156715e88ac", "addresses": ["16S9H9ig7ezVMgmfbMiVRVQtFfnstzDwFY"], "asm": "OP_DUP OP_HASH160 3b99f03f7e37513796fec42adbb58f224156715e OP_EQUALVERIFY OP_CHECKSIG", "type": "pubkeyhash"}, "value": 0.083, "n": 0}, {"scriptPubKey": {"reqSigs": 1, "hex": "a9145a83cd7333fa4f75fea840f7a7c415f68a0bfc1c87", "addresses": ["39wcdcJTpJGbo3GAG4KQqt7ixBrumgjnYH"], "asm": "OP_HASH160 5a83cd7333fa4f75fea840f7a7c415f68a0bfc1c OP_EQUAL", "type": "scripthash"}, "value": 0.00985, "n": 1}, {"scriptPubKey": {"reqSigs": 1, "hex": "76a914210aac4a338009c28f32aec9c3b8aa5c84079a3b88ac", "addresses": ["141i5uRsk2wANewDSjy2KZEvD8uYAZBTmA"], "asm": "OP_DUP OP_HASH160 210aac4a338009c28f32aec9c3b8aa5c84079a3b OP_EQUALVERIFY OP_CHECKSIG", "type": "pubkeyhash"}, "value": 0.00014083, "n": 2}], "hex": "010000000162744e9a72f048755021b2ead983524bc34e31c5491a21235ccfcff4c107912d000000006a4730440220431467fa32def5b997c2b60dd7dfa90ec55277df1c8b497dcb133d0bc8931ce702203c2a44df70cc9072894f70ff06487026eb0f5ce7f3a68ed96168c6940a300b4601210238baec602bda838eb35161cd4b36f6af8a5ad0ab7ce93b43a8eb2bd0fd7178a7ffffffff03e0a57e00000000001976a9143b99f03f7e37513796fec42adbb58f224156715e88aca8070f000000000017a9145a83cd7333fa4f75fea840f7a7c415f68a0bfc1c8703370000000000001976a914210aac4a338009c28f32aec9c3b8aa5c84079a3b88ac00000000", "vin": [{"sequence": 4294967295, "scriptSig": {"hex": "4730440220431467fa32def5b997c2b60dd7dfa90ec55277df1c8b497dcb133d0bc8931ce702203c2a44df70cc9072894f70ff06487026eb0f5ce7f3a68ed96168c6940a300b4601210238baec602bda838eb35161cd4b36f6af8a5ad0ab7ce93b43a8eb2bd0fd7178a7", "asm": "30440220431467fa32def5b997c2b60dd7dfa90ec55277df1c8b497dcb133d0bc8931ce702203c2a44df70cc9072894f70ff06487026eb0f5ce7f3a68ed96168c6940a300b46[ALL] 0238baec602bda838eb35161cd4b36f6af8a5ad0ab7ce93b43a8eb2bd0fd7178a7"}, "vout": 0, "txid": "2d9107c1f4cfcf5c23211a49c5314ec34b5283d9eab221507548f0729a4e7462"}], "txid": "6910aef9ada17e6a358ea73d87b5a7339b12aa4082820d45a433d3ef5c46c3cf", "blocktime": 1537870928, "version": 1, "confirmations": 11512, "time": 1537870928, "locktime": 0, "vsize": 257, "size": 257}