{"hash": "1bcfab40812597c18445b64be8daceafb7580c4b121ed021fd56d180da483f1f", "blockhash": "0000000000000000001cda96e906b7601b7a6fb1a3b62bca570a9e5d8f4b3de1", "vout": [{"scriptPubKey": {"reqSigs": 1, "hex": "a91472cdfd18f27e22331fd8747f217fa2991373e35b87", "addresses": ["3CA3ikmyCkhbonerN7R9Y8WNqG2h2aKvZx"], "asm": "OP_HASH160 72cdfd18f27e22331fd8747f217fa2991373e35b OP_EQUAL", "type": "scripthash"}, "value": 0.01094679, "n": 0}, {"scriptPubKey": {"reqSigs": 1, "hex": "a914972a602f6acb73030f3bca2c50b7dfd992ed3f2387", "addresses": ["3FUJipvQAXxuMyHYMTDvXaDrTarbWNEuDw"], "asm": "OP_HASH160 972a602f6acb73030f3bca2c50b7dfd992ed3f23 OP_EQUAL", "type": "scripthash"}, "value": 0.00371529, "n": 1}], "hex": "02000000000101fe8cf84638450d07242070868ec84839868cfd3780d74cf8c499108908da0f430000000017160014fb457056d22095330d07bf9ff85b775e3cf79679feffffff0217b410000000000017a91472cdfd18f27e22331fd8747f217fa2991373e35b8749ab05000000000017a914972a602f6acb73030f3bca2c50b7dfd992ed3f23870247304402205bc32c0a828fa3a0bd09be1b205c14aa67d9a47cb6a6575d3c86036e7fc3db51022056c4c31ba5b5be95c4b83427f46a31428cc19e3c6b6eded68abb7da8541a7c5b0121021acdea5d228f131b89193086c472e00008ffe878ff02d546bf1e3ec402382f4013490800", "vin": [{"txinwitness": ["304402205bc32c0a828fa3a0bd09be1b205c14aa67d9a47cb6a6575d3c86036e7fc3db51022056c4c31ba5b5be95c4b83427f46a31428cc19e3c6b6eded68abb7da8541a7c5b01", "021acdea5d228f131b89193086c472e00008ffe878ff02d546bf1e3ec402382f40"], "sequence": 4294967294, "scriptSig": {"hex": "160014fb457056d22095330d07bf9ff85b775e3cf79679", "asm": "0014fb457056d22095330d07bf9ff85b775e3cf79679"}, "vout": 0, "txid": "430fda08891099c4f84cd78037fd8c863948c88e86702024070d453846f88cfe"}], "txid": "6913315aa2ebb4d569a1e9389ea95774dfcbca47ec970fd0c70a85f55661f638", "blocktime": 1537873282, "version": 2, "confirmations": 11484, "time": 1537873282, "locktime": 542995, "vsize": 166, "size": 247}