{"hash": "6915277208c473776568092fb721e1b5926f4d1a7d3a0efc8c35d472e131e27d", "blockhash": "0000000000000000001cda96e906b7601b7a6fb1a3b62bca570a9e5d8f4b3de1", "vout": [{"scriptPubKey": {"type": "nulldata", "hex": "6a2e2335f62c5c8acf62ce97794126c834433cf998c08312be9cefab01358864125de457fce99fa872f4ec63c072b94a", "asm": "OP_RETURN 2335f62c5c8acf62ce97794126c834433cf998c08312be9cefab01358864125de457fce99fa872f4ec63c072b94a"}, "value": 0.0, "n": 0}, {"scriptPubKey": {"reqSigs": 1, "hex": "76a914d6576f47d42bfe9eea4a43871fa23f1132fd139188ac", "addresses": ["1LYLM7zDqK9VGuhPkaPd1Z7g5WLWp2N3U9"], "asm": "OP_DUP OP_HASH160 d6576f47d42bfe9eea4a43871fa23f1132fd1391 OP_EQUALVERIFY OP_CHECKSIG", "type": "pubkeyhash"}, "value": 0.00139985, "n": 1}], "hex": "01000000010bcc2bf2692dc7770cbb403a804863f2d7d10c3af67f21e78e01ef458662b7f2010000006b483045022100994262300567aa5344b13100f3225e8fcbb60d64093e274734712e0ae11532940220438828b5a9d55a576118ddf8605a82465108a017676371158bb30e03125bbc12012102c12cf5edfac7d1cb6a22456c359fccadb9bace1363a321e4cd42d6850dac3542fdffffff020000000000000000306a2e2335f62c5c8acf62ce97794126c834433cf998c08312be9cefab01358864125de457fce99fa872f4ec63c072b94ad1220200000000001976a914d6576f47d42bfe9eea4a43871fa23f1132fd139188ac00000000", "vin": [{"sequence": 4294967293, "scriptSig": {"hex": "483045022100994262300567aa5344b13100f3225e8fcbb60d64093e274734712e0ae11532940220438828b5a9d55a576118ddf8605a82465108a017676371158bb30e03125bbc12012102c12cf5edfac7d1cb6a22456c359fccadb9bace1363a321e4cd42d6850dac3542", "asm": "3045022100994262300567aa5344b13100f3225e8fcbb60d64093e274734712e0ae11532940220438828b5a9d55a576118ddf8605a82465108a017676371158bb30e03125bbc12[ALL] 02c12cf5edfac7d1cb6a22456c359fccadb9bace1363a321e4cd42d6850dac3542"}, "vout": 1, "txid": "f2b7628645ef018ee7217ff63a0cd1d7f26348803a40bb0c77c72d69f22bcc0b"}], "txid": "6915277208c473776568092fb721e1b5926f4d1a7d3a0efc8c35d472e131e27d", "blocktime": 1537873282, "version": 1, "confirmations": 11480, "time": 1537873282, "locktime": 0, "vsize": 249, "size": 249}