{"hash": "7012f094efb5dbcc874770a85f64d32cff73799d673ee7b6f8bb7608901248c4", "blockhash": "0000000000000000000dcc0f55137456b1a82d3642486a52398922ac4d620174", "vout": [{"scriptPubKey": {"reqSigs": 1, "hex": "a91482e7e273ec4e0dff2590e50d5fec2ebc665cd1f787", "addresses": ["3DdBZ734DjaqBf29PvjxWv9mvU6VaQEs8H"], "asm": "OP_HASH160 82e7e273ec4e0dff2590e50d5fec2ebc665cd1f7 OP_EQUAL", "type": "scripthash"}, "value": 0.16020157, "n": 0}, {"scriptPubKey": {"reqSigs": 1, "hex": "a914b5b5da9f3ef827c133d7baaf46d2916269f926d287", "addresses": ["3JFp5hffctAFHNQwgiqBS8JmzwHaityj3q"], "asm": "OP_HASH160 b5b5da9f3ef827c133d7baaf46d2916269f926d2 OP_EQUAL", "type": "scripthash"}, "value": 0.15875407, "n": 1}, {"scriptPubKey": {"reqSigs": 1, "hex": "76a914dcaf337353366e212d1ac206c1e8d3754b73124788ac", "addresses": ["1M7sYP3cTQQtYU8Qcsf8zwQ2ZpA2SS6r1L"], "asm": "OP_DUP OP_HASH160 dcaf337353366e212d1ac206c1e8d3754b731247 OP_EQUALVERIFY OP_CHECKSIG", "type": "pubkeyhash"}, "value": 0.02881712, "n": 2}], "hex": "010000000001047877d3776755237d3fac875c2aa4e368c91331b02cc3771263f3fd5f92e7c2ae01000000232200206422a7359387c8efb9cf6e107a16fc83511443022e4f681c9695a9afd092edabffffffffd2d0a15cb8ce9502a573fd21f7e21e8400473d557ac7de2bf1fe74094af049800100000023220020a80d78d6bf117df43f7b5947bd0e6ded3689c78c810b871ea06a208ed809cca4ffffffff3061d713549fa09f5de776c4063c796c222e4e9ce8b28752540ff9c7bbb58a8c0000000023220020c06ef8a0113ad704cce0fef15241345256ba1c600e2ba1dbf4297920bfc826cbffffffff880fa4bcdd832d52c13a49ce7775aea12604813e9a40de68cbf6c2d97f144b8e0000000023220020396e410c1f0faa6cf44962c0624cd22732a29701c600c1d906e0db9f939fa239ffffffff03bd72f4000000000017a91482e7e273ec4e0dff2590e50d5fec2ebc665cd1f7874f3df2000000000017a914b5b5da9f3ef827c133d7baaf46d2916269f926d287b0f82b00000000001976a914dcaf337353366e212d1ac206c1e8d3754b73124788ac034730440220786db321e73a4fa975ab104c78b68b7c9631ed13a6d39617e15d5f7a0abe0cb202200501a426760aa20035537256e757ba30469df77f94aaec34fecd8afe3fbb057f01210365286c6520fd550f9025b8e35dfebb7ad9911baa754de42700daa516d4c49f291976a91413f10c068a6efaba20ff6b5a253f7d4860e68b8788ac03483045022100eb0b6ab589dd7ba3f99dd0ae8577a4bd87d1d256888a178a26c81419b3c66e6e022075dc7ca37574c41c77233d33e6b57b296562b3c04891001d95782971dafb58ba01210338e9e7a92e6d06d800cdaf1b9c91262a91381d68afc6108abe1076c6d9cd8b511976a9146a0dd96a22ac9fb972c4f83b35ff541b9a2468fa88ac03483045022100d7c0292c54fd9114feb758e4fb3867e2b66356e8186a121fd0045e7bfe74543b02202fae1074188dc5720e83d6c0b1cd78bb6688668666388d6c7026117458b66c0d012103dc326cbff3156c47c17f6664008a5a8fe998b7356c15ecc65a858a55dd298f821976a9149faded626fcb4cde2c1199deec02dc50853cd44488ac0348304502210085edc46be8967058bfbc4e28e2e10f9f0ee840f5a9a9ab67b339dbee3e4705a30220774554452130fef3018ada8394c8d3c0333383e8682aff0a275b599b29f47fe1012102d941dfddbc2339802d015e0777dc30cd416ff591acd587c3e34824c6583b4dac1976a914d1cd43434d93559101682b017ed06e55a1c7119e88ac00000000", "vin": [{"txinwitness": ["30440220786db321e73a4fa975ab104c78b68b7c9631ed13a6d39617e15d5f7a0abe0cb202200501a426760aa20035537256e757ba30469df77f94aaec34fecd8afe3fbb057f01", "0365286c6520fd550f9025b8e35dfebb7ad9911baa754de42700daa516d4c49f29", "76a91413f10c068a6efaba20ff6b5a253f7d4860e68b8788ac"], "sequence": 4294967295, "scriptSig": {"hex": "2200206422a7359387c8efb9cf6e107a16fc83511443022e4f681c9695a9afd092edab", "asm": "00206422a7359387c8efb9cf6e107a16fc83511443022e4f681c9695a9afd092edab"}, "vout": 1, "txid": "aec2e7925ffdf3631277c32cb03113c968e3a42a5c87ac3f7d23556777d37778"}, {"txinwitness": ["3045022100eb0b6ab589dd7ba3f99dd0ae8577a4bd87d1d256888a178a26c81419b3c66e6e022075dc7ca37574c41c77233d33e6b57b296562b3c04891001d95782971dafb58ba01", "0338e9e7a92e6d06d800cdaf1b9c91262a91381d68afc6108abe1076c6d9cd8b51", "76a9146a0dd96a22ac9fb972c4f83b35ff541b9a2468fa88ac"], "sequence": 4294967295, "scriptSig": {"hex": "220020a80d78d6bf117df43f7b5947bd0e6ded3689c78c810b871ea06a208ed809cca4", "asm": "0020a80d78d6bf117df43f7b5947bd0e6ded3689c78c810b871ea06a208ed809cca4"}, "vout": 1, "txid": "8049f04a0974fef12bdec77a553d4700841ee2f721fd73a50295ceb85ca1d0d2"}, {"txinwitness": ["3045022100d7c0292c54fd9114feb758e4fb3867e2b66356e8186a121fd0045e7bfe74543b02202fae1074188dc5720e83d6c0b1cd78bb6688668666388d6c7026117458b66c0d01", "03dc326cbff3156c47c17f6664008a5a8fe998b7356c15ecc65a858a55dd298f82", "76a9149faded626fcb4cde2c1199deec02dc50853cd44488ac"], "sequence": 4294967295, "scriptSig": {"hex": "220020c06ef8a0113ad704cce0fef15241345256ba1c600e2ba1dbf4297920bfc826cb", "asm": "0020c06ef8a0113ad704cce0fef15241345256ba1c600e2ba1dbf4297920bfc826cb"}, "vout": 0, "txid": "8c8ab5bbc7f90f545287b2e89c4e2e226c793c06c476e75d9fa09f5413d76130"}, {"txinwitness": ["304502210085edc46be8967058bfbc4e28e2e10f9f0ee840f5a9a9ab67b339dbee3e4705a30220774554452130fef3018ada8394c8d3c0333383e8682aff0a275b599b29f47fe101", "02d941dfddbc2339802d015e0777dc30cd416ff591acd587c3e34824c6583b4dac", "76a914d1cd43434d93559101682b017ed06e55a1c7119e88ac"], "sequence": 4294967295, "scriptSig": {"hex": "220020396e410c1f0faa6cf44962c0624cd22732a29701c600c1d906e0db9f939fa239", "asm": "0020396e410c1f0faa6cf44962c0624cd22732a29701c600c1d906e0db9f939fa239"}, "vout": 0, "txid": "8e4b147fd9c2f6cb68de409a3e810426a1ae7577ce493ac1522d83ddbca40f88"}], "txid": "691571a1c4542af23a284dd7068d9176d34d5810b695dcc082e33c8678e220fc", "blocktime": 1537870268, "version": 1, "confirmations": 11516, "time": 1537870268, "locktime": 0, "vsize": 547, "size": 949}