{"hash": "6920d545b9c1447f0cd132bb65d730086b2846337173f12754fb7c139b632915", "blockhash": "0000000000000000001e0dab787dd257d1dbfcb92a98c2207d5e1078be1f4165", "vout": [{"scriptPubKey": {"reqSigs": 1, "hex": "76a9142425315f9080f2c1b2ba8ed2b027d4942c0f3ed388ac", "addresses": ["14J7t7Tpbhf5HkdCeXo7pKFU4uAzwAQeq7"], "asm": "OP_DUP OP_HASH160 2425315f9080f2c1b2ba8ed2b027d4942c0f3ed3 OP_EQUALVERIFY OP_CHECKSIG", "type": "pubkeyhash"}, "value": 0.01, "n": 0}, {"scriptPubKey": {"reqSigs": 1, "hex": "76a9140fdad69c30aa59a2e62dc036f216ff2012b68d4c88ac", "addresses": ["12SqJ2mmEaTLLtzghh2Fyh5XDxyXWBsRvZ"], "asm": "OP_DUP OP_HASH160 0fdad69c30aa59a2e62dc036f216ff2012b68d4c OP_EQUALVERIFY OP_CHECKSIG", "type": "pubkeyhash"}, "value": 0.01498644, "n": 1}], "hex": "01000000019790827d43a3d10368a0457a3a7076b31ab82be71c5015ab9423a3d1a7e9d5bc010000006b483045022100fdc54d8c790be118677e8bdde063c3e10caa1370a805255d1b99bd556cd2d64202204caaca0facf198b1d12a3acbcce19f1ddab9b8dbd64987cdb4559aef93207ad401210348ad2a532149bfc9e723645b9046a99e22e664f6a3bb195af8f24fa1c2cb02b5ffffffff0240420f00000000001976a9142425315f9080f2c1b2ba8ed2b027d4942c0f3ed388ac14de1600000000001976a9140fdad69c30aa59a2e62dc036f216ff2012b68d4c88ac00000000", "vin": [{"sequence": 4294967295, "scriptSig": {"hex": "483045022100fdc54d8c790be118677e8bdde063c3e10caa1370a805255d1b99bd556cd2d64202204caaca0facf198b1d12a3acbcce19f1ddab9b8dbd64987cdb4559aef93207ad401210348ad2a532149bfc9e723645b9046a99e22e664f6a3bb195af8f24fa1c2cb02b5", "asm": "3045022100fdc54d8c790be118677e8bdde063c3e10caa1370a805255d1b99bd556cd2d64202204caaca0facf198b1d12a3acbcce19f1ddab9b8dbd64987cdb4559aef93207ad4[ALL] 0348ad2a532149bfc9e723645b9046a99e22e664f6a3bb195af8f24fa1c2cb02b5"}, "vout": 1, "txid": "bcd5e9a7d1a32394ab15501ce72bb81ab376703a7a45a06803d1a3437d829097"}], "txid": "6920d545b9c1447f0cd132bb65d730086b2846337173f12754fb7c139b632915", "blocktime": 1537872475, "version": 1, "confirmations": 11486, "time": 1537872475, "locktime": 0, "vsize": 226, "size": 226}