{"hash": "6927075d58a62785a5558055ebc11c4ef826eecce3a719ead7881701796acb39", "blockhash": "0000000000000000000e13cef7c366c0283d82e591d1acd082e914b08063cdf1", "vout": [{"scriptPubKey": {"reqSigs": 1, "hex": "a914b32f8e6040183a03792c31a436e8f2dbbcddfbc387", "addresses": ["3J2Tr98mXSmetJD6STBUX1pggCGSwz4PmM"], "asm": "OP_HASH160 b32f8e6040183a03792c31a436e8f2dbbcddfbc3 OP_EQUAL", "type": "scripthash"}, "value": 0.02530578, "n": 0}], "hex": "0100000005b1f063b4f19ea9164ad944908e952fa15e50cb452f5fa1fc7c01268551b8a120000000006a47304402204b5459d60ddbc22dfcbc7df6f138a6ddc21dc15af9f26bc4e1f4b54f71d04e4102200aef7041f42995009b976f97b23762aad2e097c6d15282e9ea4fc99d2d9194d30121030449034d31ff2b546e2c68091c60af8e31aae2976ef31249190a515c1fefdff6ffffffffabb05ed7344b80ae96af1d21cf927bed52223d6bcca3a827a29d9d30b974563d000000006a4730440220300ffeec8cd9ca55722eb0f208a6729379a5ceea2a03c52c0b46fbcf9e582d4a022023a9f9d01fb3c09cafac66966f39f65c40cde7ceb44564e2edd2cb40b8515743012102eb2de91449d4d78347bcf805fc11a425cc68f60e308f6c187872f18857f5025cffffffffcc05fc4d29d198ea3535549865d736beb195e61c372ade02ec6bdc6bb2bf2761000000006b483045022100c54928c47f62405aea45db0e6bdc9386bf4887fc5eca66b27d87470189b14547022065fa03656f7325bb51f425f2624a14e9171223d8b8440a19bcb58092a43656c60121037da5dd304238616c6196a1507fd42ba339859501d45d05a80f8fef8122d7b487ffffffff63cd59d046f571ad080767459146023e50995e2c5c440fb2e440e65fe08226ab000000006b483045022100f5eee68e8a0a2309ba8b494ca5960696c5f2c698b553a06414ecab6f6eadf582022000ea10d2ee44ae0647b43dc061c08b8bdca37fa2a5c2d176947fe0d5d716242d01210333913743879de5a84e799001e25ffd555a2e45604932a3075faa4a20737148faffffffff82b6d2b134bccc24b6a0f9693df20e5b262d3883900a23bd5553a6f7cff1d5d9000000006a47304402205a00ae758e1769e8fdcf2829579d7edf4b6a64ed704fbcf4b2ba482cbda67467022069217fe57284f37641e711a3a27ae4916741919a1f221f67c30fd12c32d99d01012103414afb0992b2b26d653b7e7701e902934e5a5dc598034c907fbb8b6d6a8c0678ffffffff01129d26000000000017a914b32f8e6040183a03792c31a436e8f2dbbcddfbc38700000000", "vin": [{"sequence": 4294967295, "scriptSig": {"hex": "47304402204b5459d60ddbc22dfcbc7df6f138a6ddc21dc15af9f26bc4e1f4b54f71d04e4102200aef7041f42995009b976f97b23762aad2e097c6d15282e9ea4fc99d2d9194d30121030449034d31ff2b546e2c68091c60af8e31aae2976ef31249190a515c1fefdff6", "asm": "304402204b5459d60ddbc22dfcbc7df6f138a6ddc21dc15af9f26bc4e1f4b54f71d04e4102200aef7041f42995009b976f97b23762aad2e097c6d15282e9ea4fc99d2d9194d3[ALL] 030449034d31ff2b546e2c68091c60af8e31aae2976ef31249190a515c1fefdff6"}, "vout": 0, "txid": "20a1b8518526017cfca15f2f45cb505ea12f958e9044d94a16a99ef1b463f0b1"}, {"sequence": 4294967295, "scriptSig": {"hex": "4730440220300ffeec8cd9ca55722eb0f208a6729379a5ceea2a03c52c0b46fbcf9e582d4a022023a9f9d01fb3c09cafac66966f39f65c40cde7ceb44564e2edd2cb40b8515743012102eb2de91449d4d78347bcf805fc11a425cc68f60e308f6c187872f18857f5025c", "asm": "30440220300ffeec8cd9ca55722eb0f208a6729379a5ceea2a03c52c0b46fbcf9e582d4a022023a9f9d01fb3c09cafac66966f39f65c40cde7ceb44564e2edd2cb40b8515743[ALL] 02eb2de91449d4d78347bcf805fc11a425cc68f60e308f6c187872f18857f5025c"}, "vout": 0, "txid": "3d5674b9309d9da227a8a3cc6b3d2252ed7b92cf211daf96ae804b34d75eb0ab"}, {"sequence": 4294967295, "scriptSig": {"hex": "483045022100c54928c47f62405aea45db0e6bdc9386bf4887fc5eca66b27d87470189b14547022065fa03656f7325bb51f425f2624a14e9171223d8b8440a19bcb58092a43656c60121037da5dd304238616c6196a1507fd42ba339859501d45d05a80f8fef8122d7b487", "asm": "3045022100c54928c47f62405aea45db0e6bdc9386bf4887fc5eca66b27d87470189b14547022065fa03656f7325bb51f425f2624a14e9171223d8b8440a19bcb58092a43656c6[ALL] 037da5dd304238616c6196a1507fd42ba339859501d45d05a80f8fef8122d7b487"}, "vout": 0, "txid": "6127bfb26bdc6bec02de2a371ce695b1be36d76598543535ea98d1294dfc05cc"}, {"sequence": 4294967295, "scriptSig": {"hex": "483045022100f5eee68e8a0a2309ba8b494ca5960696c5f2c698b553a06414ecab6f6eadf582022000ea10d2ee44ae0647b43dc061c08b8bdca37fa2a5c2d176947fe0d5d716242d01210333913743879de5a84e799001e25ffd555a2e45604932a3075faa4a20737148fa", "asm": "3045022100f5eee68e8a0a2309ba8b494ca5960696c5f2c698b553a06414ecab6f6eadf582022000ea10d2ee44ae0647b43dc061c08b8bdca37fa2a5c2d176947fe0d5d716242d[ALL] 0333913743879de5a84e799001e25ffd555a2e45604932a3075faa4a20737148fa"}, "vout": 0, "txid": "ab2682e05fe640e4b20f445c2c5e99503e02469145670708ad71f546d059cd63"}, {"sequence": 4294967295, "scriptSig": {"hex": "47304402205a00ae758e1769e8fdcf2829579d7edf4b6a64ed704fbcf4b2ba482cbda67467022069217fe57284f37641e711a3a27ae4916741919a1f221f67c30fd12c32d99d01012103414afb0992b2b26d653b7e7701e902934e5a5dc598034c907fbb8b6d6a8c0678", "asm": "304402205a00ae758e1769e8fdcf2829579d7edf4b6a64ed704fbcf4b2ba482cbda67467022069217fe57284f37641e711a3a27ae4916741919a1f221f67c30fd12c32d99d01[ALL] 03414afb0992b2b26d653b7e7701e902934e5a5dc598034c907fbb8b6d6a8c0678"}, "vout": 0, "txid": "d9d5f1cff7a65355bd230a9083382d265b0ef23d69f9a0b624ccbc34b1d2b682"}], "txid": "6927075d58a62785a5558055ebc11c4ef826eecce3a719ead7881701796acb39", "blocktime": 1537871767, "version": 1, "confirmations": 11495, "time": 1537871767, "locktime": 0, "vsize": 779, "size": 779}