{"hash": "692ca4505aeefdf9208439feadcaf05dfaf39023686b00687161809c0b0a89a6", "blockhash": "0000000000000000001f76057863aec43deb6fa401d9628bb513d65a8098bfab", "vout": [{"scriptPubKey": {"reqSigs": 1, "hex": "76a914130e230d0082cf840d05b5cbea5ac18009d88bfc88ac", "addresses": ["12jkmtunUQ5Magx4CS4ZTgKNbJRr7ndCh5"], "asm": "OP_DUP OP_HASH160 130e230d0082cf840d05b5cbea5ac18009d88bfc OP_EQUALVERIFY OP_CHECKSIG", "type": "pubkeyhash"}, "value": 0.00089426, "n": 0}, {"scriptPubKey": {"reqSigs": 1, "hex": "76a91439de650adfbf569cd097037334520ba5dc4815a688ac", "addresses": ["16GywBx6A5gdTxvL5GRSD7oysjgqSrWX1W"], "asm": "OP_DUP OP_HASH160 39de650adfbf569cd097037334520ba5dc4815a6 OP_EQUALVERIFY OP_CHECKSIG", "type": "pubkeyhash"}, "value": 8.43e-05, "n": 1}], "hex": "01000000029ab65ace0d531fd173c77736dcc4ceb9133e87389a0c8c84d02e80e05863230f000000006a47304402207de32659c4246a2ee8a67a5502c32ec0fe09f850ee60a69d3795c56e744f778f02204c697fa75f2fb7a6073e2bda8b02cde99e75d9e0ac018b01a1b3615cb99beaeb012103fbb8e09af63c0d2d47644a1a7de8ade00411ce79de49f26e9542fd064ae08871ffffffff8e0a4ba4c2d5648cdc1f589fb774125f4afbe897461d6e857eeb3035ed47c9ad010000006b4830450221008b7ef2cfc99cc18aad28807f563e4b0e651f7cbe424f8a7866b551d533b3174e02205243e9ac12b7759d48b821a73114d3514251c16557e4a3a779300536cfc2404d012102ffda5ae7bdb9283970e096d79901c9c67cac7d07893d4576037d3aec09f22296ffffffff02525d0100000000001976a914130e230d0082cf840d05b5cbea5ac18009d88bfc88acee200000000000001976a91439de650adfbf569cd097037334520ba5dc4815a688ac00000000", "vin": [{"sequence": 4294967295, "scriptSig": {"hex": "47304402207de32659c4246a2ee8a67a5502c32ec0fe09f850ee60a69d3795c56e744f778f02204c697fa75f2fb7a6073e2bda8b02cde99e75d9e0ac018b01a1b3615cb99beaeb012103fbb8e09af63c0d2d47644a1a7de8ade00411ce79de49f26e9542fd064ae08871", "asm": "304402207de32659c4246a2ee8a67a5502c32ec0fe09f850ee60a69d3795c56e744f778f02204c697fa75f2fb7a6073e2bda8b02cde99e75d9e0ac018b01a1b3615cb99beaeb[ALL] 03fbb8e09af63c0d2d47644a1a7de8ade00411ce79de49f26e9542fd064ae08871"}, "vout": 0, "txid": "0f236358e0802ed0848c0c9a38873e13b9cec4dc3677c773d11f530dce5ab69a"}, {"sequence": 4294967295, "scriptSig": {"hex": "4830450221008b7ef2cfc99cc18aad28807f563e4b0e651f7cbe424f8a7866b551d533b3174e02205243e9ac12b7759d48b821a73114d3514251c16557e4a3a779300536cfc2404d012102ffda5ae7bdb9283970e096d79901c9c67cac7d07893d4576037d3aec09f22296", "asm": "30450221008b7ef2cfc99cc18aad28807f563e4b0e651f7cbe424f8a7866b551d533b3174e02205243e9ac12b7759d48b821a73114d3514251c16557e4a3a779300536cfc2404d[ALL] 02ffda5ae7bdb9283970e096d79901c9c67cac7d07893d4576037d3aec09f22296"}, "vout": 1, "txid": "adc947ed3530eb7e856e1d4697e8fb4a5f1274b79f581fdc8c64d5c2a44b0a8e"}], "txid": "692ca4505aeefdf9208439feadcaf05dfaf39023686b00687161809c0b0a89a6", "blocktime": 1537873891, "version": 1, "confirmations": 11478, "time": 1537873891, "locktime": 0, "vsize": 373, "size": 373}