{"hash": "621a6ee4e5630fee5047932b2f9cd79134aecc9d010cb8977f38b06ef2189253", "blockhash": "0000000000000000001e0dab787dd257d1dbfcb92a98c2207d5e1078be1f4165", "vout": [{"scriptPubKey": {"reqSigs": 1, "hex": "a914e8db75c900cf08f06518e96d167331f2a4abfb3387", "addresses": ["3NvFbQMAkkqEFj4i1sYPPLkSWzxTFUchjA"], "asm": "OP_HASH160 e8db75c900cf08f06518e96d167331f2a4abfb33 OP_EQUAL", "type": "scripthash"}, "value": 0.00049574, "n": 0}], "hex": "01000000000101abc58d21537d9c5e4c095d799afe34621325a5561ac4ed6e115fe0757fc9293d01000000171600140d16975e7375fefbce15ee086700620e9fc381a3ffffffff01a6c100000000000017a914e8db75c900cf08f06518e96d167331f2a4abfb338702473044022003136f17c1bee10494895db58dca61c1239d7415cd204018d5f368e6c74d3978022032b7b115951b11819380d55d5f2bc9d6118f626ee1abce083c58658a5d60f1870121037990957c0f9bf5000040b469d6170bfc89c4e8c277b42b073fc28a98e4549f3a00000000", "vin": [{"txinwitness": ["3044022003136f17c1bee10494895db58dca61c1239d7415cd204018d5f368e6c74d3978022032b7b115951b11819380d55d5f2bc9d6118f626ee1abce083c58658a5d60f18701", "037990957c0f9bf5000040b469d6170bfc89c4e8c277b42b073fc28a98e4549f3a"], "sequence": 4294967295, "scriptSig": {"hex": "1600140d16975e7375fefbce15ee086700620e9fc381a3", "asm": "00140d16975e7375fefbce15ee086700620e9fc381a3"}, "vout": 1, "txid": "3d29c97f75e05f116eedc41a56a525136234fe9a795d094c5e9c7d53218dc5ab"}], "txid": "692e693c8045f8091e3112ba739d9e41a14b882f4baa118f7c06e81ecb1d022f", "blocktime": 1537872475, "version": 1, "confirmations": 11487, "time": 1537872475, "locktime": 0, "vsize": 134, "size": 215}