{"hash": "69311aac2520ca68a17ebb43a109c8f95410970d9b2a46f0c21415d440dc72d2", "blockhash": "00000000000000000018f53835495a110e01622372bf6ae95dc86f2b0ab887b0", "vout": [{"scriptPubKey": {"reqSigs": 1, "hex": "a9144266ee6e680f2de644972bb824353be7bd68795e87", "addresses": ["37k7q13uJJDM6ddAeNnCV7nQzAN5Sr1xhC"], "asm": "OP_HASH160 4266ee6e680f2de644972bb824353be7bd68795e OP_EQUAL", "type": "scripthash"}, "value": 0.00468444, "n": 0}, {"scriptPubKey": {"reqSigs": 1, "hex": "76a9141b677e69c79b0c91bfdaa92a92a0bd48c0075c9788ac", "addresses": ["13VuE4BQqPpExiuNVy6ZR1QKSciVvp2xJr"], "asm": "OP_DUP OP_HASH160 1b677e69c79b0c91bfdaa92a92a0bd48c0075c97 OP_EQUALVERIFY OP_CHECKSIG", "type": "pubkeyhash"}, "value": 0.00712806, "n": 1}], "hex": "0100000001315cd77872b217c2cd3713d19c64e932d25f55d85e1042215a02bd289d4f03ab000000006b483045022100cde7393226c9338e6b3427dd5dc6fd188889d4f158af2974316f332e3affd078022062c8c9438547ad07c314252b528160e67da6ea6c09fd34926dce6f2ca624fe970121024bdd3a08ebbcb8367e16b3c170b23334b3cecf0f564bf85d87662b7fe8af0bc2ffffffff02dc2507000000000017a9144266ee6e680f2de644972bb824353be7bd68795e8766e00a00000000001976a9141b677e69c79b0c91bfdaa92a92a0bd48c0075c9788ac00000000", "vin": [{"sequence": 4294967295, "scriptSig": {"hex": "483045022100cde7393226c9338e6b3427dd5dc6fd188889d4f158af2974316f332e3affd078022062c8c9438547ad07c314252b528160e67da6ea6c09fd34926dce6f2ca624fe970121024bdd3a08ebbcb8367e16b3c170b23334b3cecf0f564bf85d87662b7fe8af0bc2", "asm": "3045022100cde7393226c9338e6b3427dd5dc6fd188889d4f158af2974316f332e3affd078022062c8c9438547ad07c314252b528160e67da6ea6c09fd34926dce6f2ca624fe97[ALL] 024bdd3a08ebbcb8367e16b3c170b23334b3cecf0f564bf85d87662b7fe8af0bc2"}, "vout": 0, "txid": "ab034f9d28bd025a2142105ed8555fd232e9649cd11337cdc217b27278d75c31"}], "txid": "69311aac2520ca68a17ebb43a109c8f95410970d9b2a46f0c21415d440dc72d2", "blocktime": 1537870928, "version": 1, "confirmations": 11514, "time": 1537870928, "locktime": 0, "vsize": 224, "size": 224}