{"hash": "69360eac7ec76f1a467b5ca61e8fe68f8421809efc13ecbc4173800be23fef46", "blockhash": "0000000000000000000dcc0f55137456b1a82d3642486a52398922ac4d620174", "vout": [{"scriptPubKey": {"type": "nulldata", "hex": "6a4c50000077730001ee7b645c8358686cfded758086aeaeacb577c031fc3a016b46dc7dc7d0964b64bfe9d87d04855645d1eaa33a6dce5baa091b0614226c0856bdd41d100759d4ba30d2c37bb011d97e02cf", "asm": "OP_RETURN 000077730001ee7b645c8358686cfded758086aeaeacb577c031fc3a016b46dc7dc7d0964b64bfe9d87d04855645d1eaa33a6dce5baa091b0614226c0856bdd41d100759d4ba30d2c37bb011d97e02cf"}, "value": 0.0, "n": 0}, {"scriptPubKey": {"reqSigs": 1, "hex": "76a9144f8833c96f7dad239fd1c38ecfdb275c843e578e88ac", "addresses": ["18FXYf34mYMCjfUSYVejDwxJHC1nxa5ruZ"], "asm": "OP_DUP OP_HASH160 4f8833c96f7dad239fd1c38ecfdb275c843e578e OP_EQUALVERIFY OP_CHECKSIG", "type": "pubkeyhash"}, "value": 0.00646756, "n": 1}], "hex": "010000000171406283210a208ed253dcfad88185f871aa081e01b3df9acc300f055f8e5429000000006a47304402205f5c2bcb4ed2311229157c4116b9631802e0f0bd1a16169adf547b50fda965db02204891a6227df349efb16bf03e4a8ddb8ca2ab7d32e10336852b9795abb10aeb63012102d7de50e4abeddc8cd6737bd0d6bc2eaf0ff25bf951c3d12dcf934244d78ae527ffffffff020000000000000000536a4c50000077730001ee7b645c8358686cfded758086aeaeacb577c031fc3a016b46dc7dc7d0964b64bfe9d87d04855645d1eaa33a6dce5baa091b0614226c0856bdd41d100759d4ba30d2c37bb011d97e02cf64de0900000000001976a9144f8833c96f7dad239fd1c38ecfdb275c843e578e88ac00000000", "vin": [{"sequence": 4294967295, "scriptSig": {"hex": "47304402205f5c2bcb4ed2311229157c4116b9631802e0f0bd1a16169adf547b50fda965db02204891a6227df349efb16bf03e4a8ddb8ca2ab7d32e10336852b9795abb10aeb63012102d7de50e4abeddc8cd6737bd0d6bc2eaf0ff25bf951c3d12dcf934244d78ae527", "asm": "304402205f5c2bcb4ed2311229157c4116b9631802e0f0bd1a16169adf547b50fda965db02204891a6227df349efb16bf03e4a8ddb8ca2ab7d32e10336852b9795abb10aeb63[ALL] 02d7de50e4abeddc8cd6737bd0d6bc2eaf0ff25bf951c3d12dcf934244d78ae527"}, "vout": 0, "txid": "29548e5f050f30cc9adfb3011e08aa71f88581d8fadc53d28e200a2183624071"}], "txid": "69360eac7ec76f1a467b5ca61e8fe68f8421809efc13ecbc4173800be23fef46", "blocktime": 1537870268, "version": 1, "confirmations": 11518, "time": 1537870268, "locktime": 0, "vsize": 283, "size": 283}