{"hash": "693a8a5689083aaf65ec14c9e3cb38f73cac5786e21f53e3ebfe9eba39ab2adf", "blockhash": "0000000000000000000e13cef7c366c0283d82e591d1acd082e914b08063cdf1", "vout": [{"scriptPubKey": {"type": "nulldata", "hex": "6a146f6d6e69000000000000001f0000092b158ff680", "asm": "OP_RETURN 6f6d6e69000000000000001f0000092b158ff680"}, "value": 0.0, "n": 0}, {"scriptPubKey": {"reqSigs": 1, "hex": "76a914422ce444a191acd2fcc6df04e5ecfd3ecfd0769788ac", "addresses": ["172uNnknC1MEjvu8J53bV4TfkN4N5JdWPC"], "asm": "OP_DUP OP_HASH160 422ce444a191acd2fcc6df04e5ecfd3ecfd07697 OP_EQUALVERIFY OP_CHECKSIG", "type": "pubkeyhash"}, "value": 5.46e-06, "n": 1}, {"scriptPubKey": {"reqSigs": 1, "hex": "76a914882cc4f54c2ea08d18892bb11ab27fc43e466e7188ac", "addresses": ["1DR2XiiEjs91cTtp1LxyqEKm5ihNABmRZ7"], "asm": "OP_DUP OP_HASH160 882cc4f54c2ea08d18892bb11ab27fc43e466e71 OP_EQUALVERIFY OP_CHECKSIG", "type": "pubkeyhash"}, "value": 0.11246108, "n": 2}], "hex": "010000000166eef16d99a691aa7f6d26dc27a90c354d005e8155ceee57a6ee1d6c54341822020000006a47304402200df89930ab603ede75d48f59826825e99d8c6add2c03270f58078b87c8f6ee4b02205c67d1344b736e40b9f23d7ef109a8eacfdc355ed81c24e3cd728d8c6ea285cf012102d7800c61a710c2c233322b2fbdcbbd492c162678a6cf6e859c3b7322e14189eefeffffff030000000000000000166a146f6d6e69000000000000001f0000092b158ff68022020000000000001976a914422ce444a191acd2fcc6df04e5ecfd3ecfd0769788ac1c9aab00000000001976a914882cc4f54c2ea08d18892bb11ab27fc43e466e7188ac10490800", "vin": [{"sequence": 4294967294, "scriptSig": {"hex": "47304402200df89930ab603ede75d48f59826825e99d8c6add2c03270f58078b87c8f6ee4b02205c67d1344b736e40b9f23d7ef109a8eacfdc355ed81c24e3cd728d8c6ea285cf012102d7800c61a710c2c233322b2fbdcbbd492c162678a6cf6e859c3b7322e14189ee", "asm": "304402200df89930ab603ede75d48f59826825e99d8c6add2c03270f58078b87c8f6ee4b02205c67d1344b736e40b9f23d7ef109a8eacfdc355ed81c24e3cd728d8c6ea285cf[ALL] 02d7800c61a710c2c233322b2fbdcbbd492c162678a6cf6e859c3b7322e14189ee"}, "vout": 2, "txid": "221834546c1deea657eece55815e004d350ca927dc266d7faa91a6996df1ee66"}], "txid": "693a8a5689083aaf65ec14c9e3cb38f73cac5786e21f53e3ebfe9eba39ab2adf", "blocktime": 1537871767, "version": 1, "confirmations": 11490, "time": 1537871767, "locktime": 542992, "vsize": 256, "size": 256}