{"hash": "693bc29b53e50e53cd0652f95b999278f8042996333e244c50804bbe66e86797", "blockhash": "0000000000000000000baef3f32e3676a92c3b2e5da21b426e4f302fc371ce76", "vout": [{"scriptPubKey": {"type": "nulldata", "hex": "6a4c50000078000001f88600651fb77b8e6189ffbad19ed074892d00f8e87af8e8e963c7cfd5b9f991beae7f275407d7b31575f78965d75baa19f9061349277ae2cc7b1d100759d4ba30d2c37bb011d97e02cf", "asm": "OP_RETURN 000078000001f88600651fb77b8e6189ffbad19ed074892d00f8e87af8e8e963c7cfd5b9f991beae7f275407d7b31575f78965d75baa19f9061349277ae2cc7b1d100759d4ba30d2c37bb011d97e02cf"}, "value": 0.0, "n": 0}, {"scriptPubKey": {"reqSigs": 1, "hex": "76a91408e9f74078b8c4ad1d531fd67890f2fd1c146bd188ac", "addresses": ["1p8gmPZy4yogaCBMQstSMx45ArKU4uWbL"], "asm": "OP_DUP OP_HASH160 08e9f74078b8c4ad1d531fd67890f2fd1c146bd1 OP_EQUALVERIFY OP_CHECKSIG", "type": "pubkeyhash"}, "value": 0.00632201, "n": 1}], "hex": "010000000109b36469faad783f5cccb650ef90e6123fb89a2e69371b25626bb33f6426b0c8010000006a473044022001777bfd933eecd27f6e65561cf3ee1b0483db7c15371d1cd21ca400291aa9a102200e603a7de7294f422e6209cdc12530d35a6089bff951cf29d4690ccdf7a360c9012103d333e4a146eb0a09000d177537ae3d42481cd13b68245707e8f4c494fff3a1d4ffffffff020000000000000000536a4c50000078000001f88600651fb77b8e6189ffbad19ed074892d00f8e87af8e8e963c7cfd5b9f991beae7f275407d7b31575f78965d75baa19f9061349277ae2cc7b1d100759d4ba30d2c37bb011d97e02cf89a50900000000001976a91408e9f74078b8c4ad1d531fd67890f2fd1c146bd188ac00000000", "vin": [{"sequence": 4294967295, "scriptSig": {"hex": "473044022001777bfd933eecd27f6e65561cf3ee1b0483db7c15371d1cd21ca400291aa9a102200e603a7de7294f422e6209cdc12530d35a6089bff951cf29d4690ccdf7a360c9012103d333e4a146eb0a09000d177537ae3d42481cd13b68245707e8f4c494fff3a1d4", "asm": "3044022001777bfd933eecd27f6e65561cf3ee1b0483db7c15371d1cd21ca400291aa9a102200e603a7de7294f422e6209cdc12530d35a6089bff951cf29d4690ccdf7a360c9[ALL] 03d333e4a146eb0a09000d177537ae3d42481cd13b68245707e8f4c494fff3a1d4"}, "vout": 1, "txid": "c8b026643fb36b62251b37692e9ab83f12e690ef50b6cc5c3f78adfa6964b309"}], "txid": "693bc29b53e50e53cd0652f95b999278f8042996333e244c50804bbe66e86797", "blocktime": 1537876114, "version": 1, "confirmations": 11460, "time": 1537876114, "locktime": 0, "vsize": 283, "size": 283}