{"hash": "693b568100aef3a1afde058239c987f808266c1f44783d49e9bcc43e6ba7d9ee", "blockhash": "0000000000000000000dcc0f55137456b1a82d3642486a52398922ac4d620174", "vout": [{"scriptPubKey": {"reqSigs": 1, "hex": "a9148bea9976a9a34853dad8675808e4fe2076bb998b87", "addresses": ["3ESptTvCBsQ3VdzFuMazNsYUyi9YKQ6ko2"], "asm": "OP_HASH160 8bea9976a9a34853dad8675808e4fe2076bb998b OP_EQUAL", "type": "scripthash"}, "value": 0.0023786, "n": 0}, {"scriptPubKey": {"reqSigs": 1, "hex": "76a91498a9f7aa746e8f5402f8e0b4ecd8d53d660a480d88ac", "addresses": ["1EvDKhnxKtbxoct3aP2GmHYiJvLpyywKXY"], "asm": "OP_DUP OP_HASH160 98a9f7aa746e8f5402f8e0b4ecd8d53d660a480d OP_EQUALVERIFY OP_CHECKSIG", "type": "pubkeyhash"}, "value": 0.03407221, "n": 1}], "hex": "0100000001e1c1f5e526dbbe76736d786d4a46fdf9ec92a24c43521090d29b9dbec081d1c9010000006a47304402207c3c5de9dea66a42736f1a7c7547aa385a089b995442a5897209a488085c3ae10220503fa1ca3db90b797d2026fbba5baaa4c6ee71ad2c033cfb7f7a71382ac889ac012102930958046d920db0ca030523bfa4a4d12d75edfa9e8935ba98e624dd39dd0193ffffffff0224a103000000000017a9148bea9976a9a34853dad8675808e4fe2076bb998b8775fd3300000000001976a91498a9f7aa746e8f5402f8e0b4ecd8d53d660a480d88ac00000000", "vin": [{"sequence": 4294967295, "scriptSig": {"hex": "47304402207c3c5de9dea66a42736f1a7c7547aa385a089b995442a5897209a488085c3ae10220503fa1ca3db90b797d2026fbba5baaa4c6ee71ad2c033cfb7f7a71382ac889ac012102930958046d920db0ca030523bfa4a4d12d75edfa9e8935ba98e624dd39dd0193", "asm": "304402207c3c5de9dea66a42736f1a7c7547aa385a089b995442a5897209a488085c3ae10220503fa1ca3db90b797d2026fbba5baaa4c6ee71ad2c033cfb7f7a71382ac889ac[ALL] 02930958046d920db0ca030523bfa4a4d12d75edfa9e8935ba98e624dd39dd0193"}, "vout": 1, "txid": "c9d181c0be9d9bd2901052434ca292ecf9fd464a6d786d7376bedb26e5f5c1e1"}], "txid": "693b568100aef3a1afde058239c987f808266c1f44783d49e9bcc43e6ba7d9ee", "blocktime": 1537870268, "version": 1, "confirmations": 11518, "time": 1537870268, "locktime": 0, "vsize": 223, "size": 223}