{"hash": "693bccf5afbf6b3cce17291c55e35abac03ac252cd40a44f1b4c97ca6f74a2cb", "blockhash": "00000000000000000017f5eb5941039fbcee6240d03bc1f2f8e35350df66a1d8", "vout": [{"scriptPubKey": {"reqSigs": 1, "hex": "76a9143dca2bb8bb67ce90062c7df14f5c6fdc35baa9ec88ac", "addresses": ["16diQmuXd4mFcteK3Px7hM8Tgjgf2MWjGb"], "asm": "OP_DUP OP_HASH160 3dca2bb8bb67ce90062c7df14f5c6fdc35baa9ec OP_EQUALVERIFY OP_CHECKSIG", "type": "pubkeyhash"}, "value": 0.01713229, "n": 0}, {"scriptPubKey": {"reqSigs": 1, "hex": "76a9142b2ca9989d834eddafe9bff4c671473aebd0ef2888ac", "addresses": ["14wHZTFSEMuZzsTV4Z2S9N3BsuqHZCAQnL"], "asm": "OP_DUP OP_HASH160 2b2ca9989d834eddafe9bff4c671473aebd0ef28 OP_EQUALVERIFY OP_CHECKSIG", "type": "pubkeyhash"}, "value": 0.06799116, "n": 1}], "hex": "0100000001fb5b1909a744cac5ea6631f435cbdf59d92639909a4276f5f94fda0caf6eca4c010000006b4830450221008b984603b76966e71b0da351b854f558c0bf30c7d768921201d3c9c48c38efd2022051901bbec3be81ee63ec17f900a7a1008b303004bb8437f4e7bf3928be90134c012103e4c28480b1de48ac2a0dd73f170c370de1d895abd7aeb82d291e2e1f9bfa6bf3ffffffff024d241a00000000001976a9143dca2bb8bb67ce90062c7df14f5c6fdc35baa9ec88ac0cbf6700000000001976a9142b2ca9989d834eddafe9bff4c671473aebd0ef2888ac00000000", "vin": [{"sequence": 4294967295, "scriptSig": {"hex": "4830450221008b984603b76966e71b0da351b854f558c0bf30c7d768921201d3c9c48c38efd2022051901bbec3be81ee63ec17f900a7a1008b303004bb8437f4e7bf3928be90134c012103e4c28480b1de48ac2a0dd73f170c370de1d895abd7aeb82d291e2e1f9bfa6bf3", "asm": "30450221008b984603b76966e71b0da351b854f558c0bf30c7d768921201d3c9c48c38efd2022051901bbec3be81ee63ec17f900a7a1008b303004bb8437f4e7bf3928be90134c[ALL] 03e4c28480b1de48ac2a0dd73f170c370de1d895abd7aeb82d291e2e1f9bfa6bf3"}, "vout": 1, "txid": "4cca6eaf0cda4ff9f576429a903926d959dfcb35f43166eac5ca44a709195bfb"}], "txid": "693bccf5afbf6b3cce17291c55e35abac03ac252cd40a44f1b4c97ca6f74a2cb", "blocktime": 1537874412, "version": 1, "confirmations": 11468, "time": 1537874412, "locktime": 0, "vsize": 226, "size": 226}