{"hash": "693b06fce007fd0d02b5c1aceae23f6ba3a26b46346fb600c7918ae64da7f6b0", "blockhash": "0000000000000000000e13cef7c366c0283d82e591d1acd082e914b08063cdf1", "vout": [{"scriptPubKey": {"reqSigs": 1, "hex": "76a9146086963c09df5b8e3da745eba32c53ac15a8574688ac", "addresses": ["19oP6g7AtkaB8msKEMrm2ESEnoZkUGoqyk"], "asm": "OP_DUP OP_HASH160 6086963c09df5b8e3da745eba32c53ac15a85746 OP_EQUALVERIFY OP_CHECKSIG", "type": "pubkeyhash"}, "value": 0.010964, "n": 0}, {"scriptPubKey": {"reqSigs": 1, "hex": "76a914f0365294eee44bc94e8e8714a96d1bc451b9814188ac", "addresses": ["1Nu8FSSiXYePL24tiurv7tdHtGpfdC9K1E"], "asm": "OP_DUP OP_HASH160 f0365294eee44bc94e8e8714a96d1bc451b98141 OP_EQUALVERIFY OP_CHECKSIG", "type": "pubkeyhash"}, "value": 0.02, "n": 1}], "hex": "010000000202720514b573288aa40ec9fc7a5ac3ea00eafd034bf803516a3337559b0bf42b000000006b483045022100d09ea94211205d2a8bf89b896d861dc04dc5c5c16756549f1448720108cc2c060220337ca3d6966f7c4efd76db6f59b49703bd08c8dab9ae4bd85b1e361c706c9316012102f10f0f70dca425651832bce6b4345242d9da7123ba405dc95965009529c10fa9ffffffff43707cfca3192c46219df026ef627b6169d650588225fc88cc8d81cbdbf54040050000006b483045022100d134f3124094414d512e68a3bfcbbd61ee984c8ac3ddb799f453c47f32bb4467022024a8976c1aab0aad73691de47f222266cea62f853d27a13fd5289e0aa7084d50012102f2b5d5dd8243ba2fac193880b3acf8128691cbe846b4441ae0176fd0ecb4c680ffffffff02d0ba1000000000001976a9146086963c09df5b8e3da745eba32c53ac15a8574688ac80841e00000000001976a914f0365294eee44bc94e8e8714a96d1bc451b9814188ac00000000", "vin": [{"sequence": 4294967295, "scriptSig": {"hex": "483045022100d09ea94211205d2a8bf89b896d861dc04dc5c5c16756549f1448720108cc2c060220337ca3d6966f7c4efd76db6f59b49703bd08c8dab9ae4bd85b1e361c706c9316012102f10f0f70dca425651832bce6b4345242d9da7123ba405dc95965009529c10fa9", "asm": "3045022100d09ea94211205d2a8bf89b896d861dc04dc5c5c16756549f1448720108cc2c060220337ca3d6966f7c4efd76db6f59b49703bd08c8dab9ae4bd85b1e361c706c9316[ALL] 02f10f0f70dca425651832bce6b4345242d9da7123ba405dc95965009529c10fa9"}, "vout": 0, "txid": "2bf40b9b5537336a5103f84b03fdea00eac35a7afcc90ea48a2873b514057202"}, {"sequence": 4294967295, "scriptSig": {"hex": "483045022100d134f3124094414d512e68a3bfcbbd61ee984c8ac3ddb799f453c47f32bb4467022024a8976c1aab0aad73691de47f222266cea62f853d27a13fd5289e0aa7084d50012102f2b5d5dd8243ba2fac193880b3acf8128691cbe846b4441ae0176fd0ecb4c680", "asm": "3045022100d134f3124094414d512e68a3bfcbbd61ee984c8ac3ddb799f453c47f32bb4467022024a8976c1aab0aad73691de47f222266cea62f853d27a13fd5289e0aa7084d50[ALL] 02f2b5d5dd8243ba2fac193880b3acf8128691cbe846b4441ae0176fd0ecb4c680"}, "vout": 5, "txid": "4040f5dbcb818dcc88fc25825850d669617b62ef26f09d21462c19a3fc7c7043"}], "txid": "693b06fce007fd0d02b5c1aceae23f6ba3a26b46346fb600c7918ae64da7f6b0", "blocktime": 1537871767, "version": 1, "confirmations": 11495, "time": 1537871767, "locktime": 0, "vsize": 374, "size": 374}