{"hash": "75d24047ac11ad50c613f12344031667b3f83a80a18b81072b52e6e3ccc1bbe1", "blockhash": "000000000000000000022b45ed06c6f4ccd3cf7fb5ba4856ebd2e58215665228", "vout": [{"scriptPubKey": {"reqSigs": 1, "hex": "a914cfaabfe8c271f99a4364b5197ba50c6cddb7adb987", "addresses": ["3Ld4M9RPwEG3VeQbHcC1PsKUndQL7VYLZP"], "asm": "OP_HASH160 cfaabfe8c271f99a4364b5197ba50c6cddb7adb9 OP_EQUAL", "type": "scripthash"}, "value": 0.07820871, "n": 0}, {"scriptPubKey": {"reqSigs": 1, "hex": "a914668d44b54225889f1c32bfa05dc32e894b50853287", "addresses": ["3B3G5cMPVPdcQGoeSsXkjFbFSytDiXNoaq"], "asm": "OP_HASH160 668d44b54225889f1c32bfa05dc32e894b508532 OP_EQUAL", "type": "scripthash"}, "value": 0.05304457, "n": 1}], "hex": "01000000000102ef7a4b8c1a25cf0f55e9dae72eee5b7f82fdcd64de2abcf97cabd93ecfc36c8d0100000023220020e864a9d7e646ac59b1a84e2dc2150ea7de3de2abaf5f344e14b96a47d287f28bffffffffa88e1f28ae742be42e8ef72fce0887ec104611cda037ffe9d85a3f1ca99d3bbc07000000232200209795495ed2bc75e2700979a80a8232ef7e63ae023139719a9d718fc6a30dc0eeffffffff02475677000000000017a914cfaabfe8c271f99a4364b5197ba50c6cddb7adb98789f050000000000017a914668d44b54225889f1c32bfa05dc32e894b508532870400483045022100fc7604124c605f1ac513354a5690b8dadff5e993cc3fe048423f8518c189d776022019e58a7f710359b8c2118d4a494992f6f6bb1f367c39e90cf55806d25a85d4e201483045022100c5844b54434e8f6e04533a5c529eb2edf20787911914e1429eec6e1c63c5a6040220603d9144996fcb7aa464c1988405a875bca887793666f3c0f792053d17e781bb0147522103772ff80330c78dc09310286b4d3a2bdcafb39a50109ac38225ea51e3cc7ed81221033e4af03ed09dbd8a417ba042650d5bd1db7f14f271a8f660974e3abf1fdfa4da52ae0400473044022015e1c540d97bc5b6ff2bf2664615b24ae32696158850fad33a720b6eb292649a02201052524bb548279fdd4fea2013452cf5cf6e2a724e7b477d51c23cacf9e687a001483045022100f256b76097c2dfa6acbdcdc34ed2430b44e02cd80debf79def29bd956b6011f602202652ba50b852bdad7cae148206f05c1b7219adcd378fb9a8f56ceafa6c63598301475221028f88c5619c674c589c26ce6526c868bbc9e745668a68ca5971cd343a849846f421033e4af03ed09dbd8a417ba042650d5bd1db7f14f271a8f660974e3abf1fdfa4da52ae00000000", "vin": [{"txinwitness": ["", "3045022100fc7604124c605f1ac513354a5690b8dadff5e993cc3fe048423f8518c189d776022019e58a7f710359b8c2118d4a494992f6f6bb1f367c39e90cf55806d25a85d4e201", "3045022100c5844b54434e8f6e04533a5c529eb2edf20787911914e1429eec6e1c63c5a6040220603d9144996fcb7aa464c1988405a875bca887793666f3c0f792053d17e781bb01", "522103772ff80330c78dc09310286b4d3a2bdcafb39a50109ac38225ea51e3cc7ed81221033e4af03ed09dbd8a417ba042650d5bd1db7f14f271a8f660974e3abf1fdfa4da52ae"], "sequence": 4294967295, "scriptSig": {"hex": "220020e864a9d7e646ac59b1a84e2dc2150ea7de3de2abaf5f344e14b96a47d287f28b", "asm": "0020e864a9d7e646ac59b1a84e2dc2150ea7de3de2abaf5f344e14b96a47d287f28b"}, "vout": 1, "txid": "8d6cc3cf3ed9ab7cf9bc2ade64cdfd827f5bee2ee7dae9550fcf251a8c4b7aef"}, {"txinwitness": ["", "3044022015e1c540d97bc5b6ff2bf2664615b24ae32696158850fad33a720b6eb292649a02201052524bb548279fdd4fea2013452cf5cf6e2a724e7b477d51c23cacf9e687a001", "3045022100f256b76097c2dfa6acbdcdc34ed2430b44e02cd80debf79def29bd956b6011f602202652ba50b852bdad7cae148206f05c1b7219adcd378fb9a8f56ceafa6c63598301", "5221028f88c5619c674c589c26ce6526c868bbc9e745668a68ca5971cd343a849846f421033e4af03ed09dbd8a417ba042650d5bd1db7f14f271a8f660974e3abf1fdfa4da52ae"], "sequence": 4294967295, "scriptSig": {"hex": "2200209795495ed2bc75e2700979a80a8232ef7e63ae023139719a9d718fc6a30dc0ee", "asm": "00209795495ed2bc75e2700979a80a8232ef7e63ae023139719a9d718fc6a30dc0ee"}, "vout": 7, "txid": "bc3b9da91c3f5ad8e9ff37a0cd114610ec8708ce2ff78e2ee42b74ae281f8ea8"}], "txid": "693b8184fca7c6e91de99776306d6d192019fffdd1c7f4cc5c284469063e0486", "blocktime": 1537869901, "version": 1, "confirmations": 11524, "time": 1537869901, "locktime": 0, "vsize": 337, "size": 667}