{"hash": "910db5eebc0d0f138caf3aab178edf5caa64ecdd140a7d00f41db8ccbdedac20", "blockhash": "0000000000000000000e13cef7c366c0283d82e591d1acd082e914b08063cdf1", "vout": [{"scriptPubKey": {"reqSigs": 1, "hex": "0014d908eaa720508d89635db70eaa1d5fa121f090c6", "addresses": ["bc1qmyyw4feq2zxcjc6aku82582l5yslpyxxz8af8c"], "asm": "0 d908eaa720508d89635db70eaa1d5fa121f090c6", "type": "witness_v0_keyhash"}, "value": 0.0047745, "n": 0}, {"scriptPubKey": {"reqSigs": 1, "hex": "76a9144a6cc75096cebbcc768e34af3db68c24fb984e3d88ac", "addresses": ["17nXKGGXRwhcKYeYhm5UPBdDYyf74W2k3z"], "asm": "OP_DUP OP_HASH160 4a6cc75096cebbcc768e34af3db68c24fb984e3d OP_EQUALVERIFY OP_CHECKSIG", "type": "pubkeyhash"}, "value": 0.01270041, "n": 1}], "hex": "0100000000010126c837bbd904f9671e727f1053124336e1ea244df00ad0fab47044d3baeb593401000000171600148e36fcc665925dd7c33abc1169174a5ab76c1378ffffffff020a49070000000000160014d908eaa720508d89635db70eaa1d5fa121f090c619611300000000001976a9144a6cc75096cebbcc768e34af3db68c24fb984e3d88ac0247304402200abebd1704d471de6f75ee8f9df3fbc1d1baafd5243e0ebe9936753e66e29acd022064d9611652cf05e5e9eeaae9461b05461f780b6c5ee2542da1ca7a680052e8250121021dbd1b59864ebc2bb964bbbae95931fe0c79f144a920a4476b2a4ccafbe491cf00000000", "vin": [{"txinwitness": ["304402200abebd1704d471de6f75ee8f9df3fbc1d1baafd5243e0ebe9936753e66e29acd022064d9611652cf05e5e9eeaae9461b05461f780b6c5ee2542da1ca7a680052e82501", "021dbd1b59864ebc2bb964bbbae95931fe0c79f144a920a4476b2a4ccafbe491cf"], "sequence": 4294967295, "scriptSig": {"hex": "1600148e36fcc665925dd7c33abc1169174a5ab76c1378", "asm": "00148e36fcc665925dd7c33abc1169174a5ab76c1378"}, "vout": 1, "txid": "3459ebbad34470b4fad00af04d24eae136431253107f721e67f904d9bb37c826"}], "txid": "693fddec66cd91990cf964e70e93d57c07e252d9951fe8f611a325e2f7661808", "blocktime": 1537871767, "version": 1, "confirmations": 11495, "time": 1537871767, "locktime": 0, "vsize": 167, "size": 248}