{"hash": "6947c046dad338a599c2a3f2ce8620a62e8f8391f03787e7b1eadf1f45d245ac", "blockhash": "0000000000000000001cda96e906b7601b7a6fb1a3b62bca570a9e5d8f4b3de1", "vout": [{"scriptPubKey": {"reqSigs": 1, "hex": "76a914f0635d4d2295d77f3bf861a39d191562cf8d6cd488ac", "addresses": ["1Nv4D1AjbiVMHidqt5xTms8BW1xfeLehSw"], "asm": "OP_DUP OP_HASH160 f0635d4d2295d77f3bf861a39d191562cf8d6cd4 OP_EQUALVERIFY OP_CHECKSIG", "type": "pubkeyhash"}, "value": 0.19374731, "n": 0}, {"scriptPubKey": {"reqSigs": 1, "hex": "76a914a39856815eea9e1fc895c0379e2aa04923764b0488ac", "addresses": ["1Fv1dtjjUro5kKGAceY76s1BHVvZYk9bXd"], "asm": "OP_DUP OP_HASH160 a39856815eea9e1fc895c0379e2aa04923764b04 OP_EQUALVERIFY OP_CHECKSIG", "type": "pubkeyhash"}, "value": 0.27546991, "n": 1}], "hex": "0100000003f1280f57b20955543f59c83314f8c88e1b2fddb0a83702da5d2aa23d22ddbf22010000006b483045022100d0711ddd66c9db9c83c3c387c6b09907a676bcfd85690d660790b6dc13164677022018dff626ca32341e339e99b918b362908cb0d2a12a76ba1201818a25b68e98a40121037af9590df04f7f688ace980a5d01441203ff20a1dace30eb78070b7af8cb5466fffffffff6022e8506a6381d2fe9de7e90e92926fab2b92ead825ae3f206f0c62d6acc39010000006a47304402205a94bd025c0b29f750c34e02f1d1b58825f766ff00a5b6a64db15d5d54319ede02200ead11ca8e8e5ed02f4baf3a9f524b8f88cb036b0c1161731d23593f174cd5640121032d3a4d45db5cfc27495a26c7af916bfbc0c244fc9e2372a0bbdd6401dd3629dcffffffffed219fc491066581660f55194889eb4f19a65d0b8344fe863e8d68de197ad0d0000000006b483045022100b42431d169196c2ac6360d48ebc00abeafc772db6784214ada3cd37dbfab164e022019c7db5aec6e6df5a74813ac9cb764240f358bee65716ad25679fe87e7a8637c01210249e3e2caa812d8a14c03f9236b52ce6154d5311327874b687bf0493d3b155db4ffffffff028ba22701000000001976a914f0635d4d2295d77f3bf861a39d191562cf8d6cd488ac6f55a401000000001976a914a39856815eea9e1fc895c0379e2aa04923764b0488ac00000000", "vin": [{"sequence": 4294967295, "scriptSig": {"hex": "483045022100d0711ddd66c9db9c83c3c387c6b09907a676bcfd85690d660790b6dc13164677022018dff626ca32341e339e99b918b362908cb0d2a12a76ba1201818a25b68e98a40121037af9590df04f7f688ace980a5d01441203ff20a1dace30eb78070b7af8cb5466", "asm": "3045022100d0711ddd66c9db9c83c3c387c6b09907a676bcfd85690d660790b6dc13164677022018dff626ca32341e339e99b918b362908cb0d2a12a76ba1201818a25b68e98a4[ALL] 037af9590df04f7f688ace980a5d01441203ff20a1dace30eb78070b7af8cb5466"}, "vout": 1, "txid": "22bfdd223da22a5dda0237a8b0dd2f1b8ec8f81433c8593f545509b2570f28f1"}, {"sequence": 4294967295, "scriptSig": {"hex": "47304402205a94bd025c0b29f750c34e02f1d1b58825f766ff00a5b6a64db15d5d54319ede02200ead11ca8e8e5ed02f4baf3a9f524b8f88cb036b0c1161731d23593f174cd5640121032d3a4d45db5cfc27495a26c7af916bfbc0c244fc9e2372a0bbdd6401dd3629dc", "asm": "304402205a94bd025c0b29f750c34e02f1d1b58825f766ff00a5b6a64db15d5d54319ede02200ead11ca8e8e5ed02f4baf3a9f524b8f88cb036b0c1161731d23593f174cd564[ALL] 032d3a4d45db5cfc27495a26c7af916bfbc0c244fc9e2372a0bbdd6401dd3629dc"}, "vout": 1, "txid": "39cc6a2dc6f006f2e35a82ad2eb9b2fa2629e9907edee92f1d38a606852e02f6"}, {"sequence": 4294967295, "scriptSig": {"hex": "483045022100b42431d169196c2ac6360d48ebc00abeafc772db6784214ada3cd37dbfab164e022019c7db5aec6e6df5a74813ac9cb764240f358bee65716ad25679fe87e7a8637c01210249e3e2caa812d8a14c03f9236b52ce6154d5311327874b687bf0493d3b155db4", "asm": "3045022100b42431d169196c2ac6360d48ebc00abeafc772db6784214ada3cd37dbfab164e022019c7db5aec6e6df5a74813ac9cb764240f358bee65716ad25679fe87e7a8637c[ALL] 0249e3e2caa812d8a14c03f9236b52ce6154d5311327874b687bf0493d3b155db4"}, "vout": 0, "txid": "d0d07a19de688d3e86fe44830b5da6194feb894819550f6681650691c49f21ed"}], "txid": "6947c046dad338a599c2a3f2ce8620a62e8f8391f03787e7b1eadf1f45d245ac", "blocktime": 1537873282, "version": 1, "confirmations": 11485, "time": 1537873282, "locktime": 0, "vsize": 521, "size": 521}