{"hash": "db1d64dabc5fa4d0ea1a3736d34d214910d49e31d78da6e56ffd4e9749d2467b", "blockhash": "000000000000000000022b45ed06c6f4ccd3cf7fb5ba4856ebd2e58215665228", "vout": [{"scriptPubKey": {"reqSigs": 1, "hex": "76a914bc650e036566d807705e9cde518c4578100157fb88ac", "addresses": ["1JB96UHmGq3xH6DJuQ5yTTq6LapVfwAbuq"], "asm": "OP_DUP OP_HASH160 bc650e036566d807705e9cde518c4578100157fb OP_EQUALVERIFY OP_CHECKSIG", "type": "pubkeyhash"}, "value": 0.00833122, "n": 0}, {"scriptPubKey": {"reqSigs": 1, "hex": "00149e1298385ef8b994540a7b05249ded6284b34e1e", "addresses": ["bc1qncffswz7lzueg4q20vzjf80dv2ztxns7l000r7"], "asm": "0 9e1298385ef8b994540a7b05249ded6284b34e1e", "type": "witness_v0_keyhash"}, "value": 0.00413794, "n": 1}], "hex": "0100000000010132d3bdd43a22b05babea82ffdcec801bcb14f34ec0f71f30d573dc253f018a4a0100000000ffffffff0262b60c00000000001976a914bc650e036566d807705e9cde518c4578100157fb88ac62500600000000001600149e1298385ef8b994540a7b05249ded6284b34e1e024730440220621dcd738c520a61a20e658875ff1c0e2964f179efaf5e2c71091aaaf21e74ee022027e38ec19302124329825bc6a022123de7f594bf5f1d7ec86439091419f9f3910121031bfa475d1c1640d4f8657c8d541588e5c4581ea1d90a7b74a89cd4edd10b175200000000", "vin": [{"txinwitness": ["30440220621dcd738c520a61a20e658875ff1c0e2964f179efaf5e2c71091aaaf21e74ee022027e38ec19302124329825bc6a022123de7f594bf5f1d7ec86439091419f9f39101", "031bfa475d1c1640d4f8657c8d541588e5c4581ea1d90a7b74a89cd4edd10b1752"], "sequence": 4294967295, "scriptSig": {"hex": "", "asm": ""}, "vout": 1, "txid": "4a8a013f25dc73d5301ff7c04ef314cb1b80ecdcff82eaab5bb0223ad4bdd332"}], "txid": "694f8e9605945f7e64538040b400af63181532811b2ac0ba4199ca3e45ac52b8", "blocktime": 1537869901, "version": 1, "confirmations": 11523, "time": 1537869901, "locktime": 0, "vsize": 144, "size": 225}