{"hash": "ae0f2f8bf1f56ec59960e4ca0dc29c4e28fd829db9328c4b86f33c78e80cc294", "blockhash": "0000000000000000000e13cef7c366c0283d82e591d1acd082e914b08063cdf1", "vout": [{"scriptPubKey": {"reqSigs": 1, "hex": "a914d33510408e19308a1c13e49ba37397cb7ce77b5a87", "addresses": ["3Lwn4wDSNQVYVokZWuqkkNQgpFqNfq9G4y"], "asm": "OP_HASH160 d33510408e19308a1c13e49ba37397cb7ce77b5a OP_EQUAL", "type": "scripthash"}, "value": 0.00014561, "n": 0}, {"scriptPubKey": {"reqSigs": 1, "hex": "a9140be7846be16b05bea00dbec2fcd7e045a793cb1787", "addresses": ["32mxhko5mJHfkbkDPpz7SfdJwEJi21P1WK"], "asm": "OP_HASH160 0be7846be16b05bea00dbec2fcd7e045a793cb17 OP_EQUAL", "type": "scripthash"}, "value": 0.19800973, "n": 1}], "hex": "0100000000010104a2871a620f16bd7189f45c0153701a8a032d0df02babfa6baa53dfb91c94f301000000232200202c66ece6da72bcbfeadf83a91236f4891c13e14d8ecebdcaa81666fc1aa73a31ffffffff02e13800000000000017a914d33510408e19308a1c13e49ba37397cb7ce77b5a878d232e010000000017a9140be7846be16b05bea00dbec2fcd7e045a793cb17870400483045022100ba518c007f03901719fe51ed6f1f0d9f59362d6e38a0d3fcd5fc3ec1bda4598202204ea4bb47276353d33b29806d24df4d9e8a045e7fd5fc41081101281f5c83f8be01483045022100b0f8026ec38b4adc8a0821706eb4e274fa336c97cfcc8d6189fb4b3016ba357a0220488da5d89507b32adb4d856ee1f607445a0c33c481c52b32c89ad0be09a11c8401475221029e6fbb942d34a473faaa5557c1bfe08d72102f0b9754ad140fd369d7a3ba3cdc2103871fc2ca08e6950b38867e8e6a0e94ee625223d3aa0df5c65f414c6d784467e252ae00000000", "vin": [{"txinwitness": ["", "3045022100ba518c007f03901719fe51ed6f1f0d9f59362d6e38a0d3fcd5fc3ec1bda4598202204ea4bb47276353d33b29806d24df4d9e8a045e7fd5fc41081101281f5c83f8be01", "3045022100b0f8026ec38b4adc8a0821706eb4e274fa336c97cfcc8d6189fb4b3016ba357a0220488da5d89507b32adb4d856ee1f607445a0c33c481c52b32c89ad0be09a11c8401", "5221029e6fbb942d34a473faaa5557c1bfe08d72102f0b9754ad140fd369d7a3ba3cdc2103871fc2ca08e6950b38867e8e6a0e94ee625223d3aa0df5c65f414c6d784467e252ae"], "sequence": 4294967295, "scriptSig": {"hex": "2200202c66ece6da72bcbfeadf83a91236f4891c13e14d8ecebdcaa81666fc1aa73a31", "asm": "00202c66ece6da72bcbfeadf83a91236f4891c13e14d8ecebdcaa81666fc1aa73a31"}, "vout": 1, "txid": "f3941cb9df53aa6bfaab2bf00d2d038a1a7053015cf48971bd160f621a87a204"}], "txid": "6952c1ce48d018a5c80e7ab57804170750a94dc5ab783899e97f7ac15b656db9", "blocktime": 1537871767, "version": 1, "confirmations": 11495, "time": 1537871767, "locktime": 0, "vsize": 206, "size": 372}