{"hash": "bc3354a05a0649b05634c81ecf0d99c928c47e45b900639711daa2d9701cd34c", "blockhash": "00000000000000000018f53835495a110e01622372bf6ae95dc86f2b0ab887b0", "vout": [{"scriptPubKey": {"reqSigs": 1, "hex": "76a91415da29907726ea58089a49e7724bc81a813e963288ac", "addresses": ["12zYYDUFBSNctGm26E9zhWkK3X89Q3xEjE"], "asm": "OP_DUP OP_HASH160 15da29907726ea58089a49e7724bc81a813e9632 OP_EQUALVERIFY OP_CHECKSIG", "type": "pubkeyhash"}, "value": 0.06801523, "n": 0}, {"scriptPubKey": {"reqSigs": 1, "hex": "76a91449a4d1d39c739b281f6d2e381fb7ec2ab7ada45488ac", "addresses": ["17iPmscZ5iZoVCbnadtYNXJWJhHRyEeXVa"], "asm": "OP_DUP OP_HASH160 49a4d1d39c739b281f6d2e381fb7ec2ab7ada454 OP_EQUALVERIFY OP_CHECKSIG", "type": "pubkeyhash"}, "value": 0.27344826, "n": 1}, {"scriptPubKey": {"reqSigs": 1, "hex": "76a91451ad18559b2a506021f8437d5a46beccd5868ffe88ac", "addresses": ["18Ss6Pq8No7bXePxxnp5ugLtGi54JoQ6eC"], "asm": "OP_DUP OP_HASH160 51ad18559b2a506021f8437d5a46beccd5868ffe OP_EQUALVERIFY OP_CHECKSIG", "type": "pubkeyhash"}, "value": 0.13653047, "n": 2}, {"scriptPubKey": {"reqSigs": 1, "hex": "a9143ac6cfc9dcad1d459d8cf14926ea38a7b8d5049a87", "addresses": ["373oHM6D1W4LP9DmCUYULe8x4e5t6ZduqH"], "asm": "OP_HASH160 3ac6cfc9dcad1d459d8cf14926ea38a7b8d5049a OP_EQUAL", "type": "scripthash"}, "value": 0.26660003, "n": 3}, {"scriptPubKey": {"reqSigs": 1, "hex": "a91469f3766dd30558b3810e66a5c0d8a028854b66d287", "addresses": ["3BMEXmKJV9sKJWVehv43nECCcubZgjKq4g"], "asm": "OP_HASH160 69f3766dd30558b3810e66a5c0d8a028854b66d2 OP_EQUAL", "type": "scripthash"}, "value": 0.10603762, "n": 4}, {"scriptPubKey": {"reqSigs": 1, "hex": "a914b0f9334893b8d0989660af45694facc8438175c587", "addresses": ["3HpmP3k8FgDmWDneYUsP3QwhzxqXDMsmKY"], "asm": "OP_HASH160 b0f9334893b8d0989660af45694facc8438175c5 OP_EQUAL", "type": "scripthash"}, "value": 3.26264823, "n": 5}, {"scriptPubKey": {"reqSigs": 1, "hex": "a91485f9b7c9ddb84b8c3e9ee5931115a9300c35357187", "addresses": ["3DuQwmC6eFxPmcQuj3QiNfYuq38haJPSA6"], "asm": "OP_HASH160 85f9b7c9ddb84b8c3e9ee5931115a9300c353571 OP_EQUAL", "type": "scripthash"}, "value": 0.23627497, "n": 6}, {"scriptPubKey": {"reqSigs": 1, "hex": "a914e47af1790ebd4f50081fe33147e191fb1b65d8ef87", "addresses": ["3NX7GXamBz7KiBRt49WXSySqXdnAAL7YpM"], "asm": "OP_HASH160 e47af1790ebd4f50081fe33147e191fb1b65d8ef OP_EQUAL", "type": "scripthash"}, "value": 2.63430932, "n": 7}, {"scriptPubKey": {"reqSigs": 1, "hex": "a914f10c0e0bd1d85d4493916e6be7e10896dd0a2c6a87", "addresses": ["3PfZDMwJiDRJ7fGhBsNdKK4dcXoF8QxjFR"], "asm": "OP_HASH160 f10c0e0bd1d85d4493916e6be7e10896dd0a2c6a OP_EQUAL", "type": "scripthash"}, "value": 0.27371131, "n": 8}], "hex": "01000000000103765e7e2b1228290bcf6a4f51534f42fad7eb1c2e1175b72c829fab3a7a6957240000000023220020bfe13f6c11c491cb8183e89f752c3f2bc5d339d4cc4d5c43e598198bc45bc471ffffffff4aaa3eeace2d9c6bed383c6dc0208e06ee5b618ea51c737bf1d6c6dd44a1aaa00100000023220020bc9c0cf8a4b56fef4258faa9b35600ed82175d407a822b14c3460c1cbe5e0e9effffffff10c708a410fec6f69b1715ca49a59ffb803777b177cc345e8b63ff40a9a38ac4000000002322002061fc35ea2797cbf1dd498e3c4d29bf27f87a2ca1a1a5ef6f07776be4b0329dd7ffffffff0973c86700000000001976a91415da29907726ea58089a49e7724bc81a813e963288acba3fa101000000001976a91449a4d1d39c739b281f6d2e381fb7ec2ab7ada45488ac3754d000000000001976a91451ad18559b2a506021f8437d5a46beccd5868ffe88aca3cc96010000000017a9143ac6cfc9dcad1d459d8cf14926ea38a7b8d5049a87f2cca1000000000017a91469f3766dd30558b3810e66a5c0d8a028854b66d287f76772130000000017a914b0f9334893b8d0989660af45694facc8438175c587e98668010000000017a91485f9b7c9ddb84b8c3e9ee5931115a9300c3535718714a3b30f0000000017a914e47af1790ebd4f50081fe33147e191fb1b65d8ef877ba6a1010000000017a914f10c0e0bd1d85d4493916e6be7e10896dd0a2c6a87040047304402201e205426e0fb3e79916bef33829c32d21145e9fcb8e432b3c436c0a70836d5fa02200555c8b22be0a9fb8c230a9db9a4ea00c899f8570ca52e9fc0bf446120e41bd901483045022100fb22f8f26b3b2f62189920249cbab900ed52416e70541ecb25036a07b4028f790220675fb4728d02d6c14c10c45d107d99f5dd5e969fa66eb3fe78a14957a305a66b01695221035f760ab3f8498f69df9643f856f73358f4018e08f4c6af0008fbec48035633db21029c00044cdc5824471c40be4258f400193c7e6655f3a63418a03f5b33a490eb762103944685c30fc55bf3f17f4822265f06e2a62d985cbb94ca692c5a93631088a38a53ae04004730440220197decb77628a02d88d8ac0121fc126506c5bae9a893add83fc247c62f90255302203d065fdad9b8b14add74a5342f2e6ed761d881002defb9a3379b03345585d7a30147304402202af13aad4762432be5b0d5b62202bf8a6a2c95d4c455d212fb140235d40f70bf022011e531c7797253a9de5d6d5dc0611d54ecef98da08f3d6ec590c3463c623cb54016952210334727261efab799c5da7d1eb0e3ee1190d278707b783f36a5b199f20ee66f18e210281a9eac1e5d96206906cbfa222a2a234d5bb33fbeab846ba05d2db45f30f758621026aaae376694a4cc6c28eb9c6e8c8a42db90c2c4186801fb64aacff116a681dd953ae0400483045022100f4812f69d1bf11b4f06081e3262966f838f7c19463d903eab1c066c5774a18e0022036e2430a7e2d68065cc1309ec6b55fb373e48ccd6cd489605da3318c8ed927cc0147304402202e4bb75f80b2de645fccf45cfa658aa52c574b099675cd09375b9222b5a4a0ba02200aa212f52231816a3fe24532dc457b92a1a2e225a8bcd3a7d25fd463adda17650169522103e200869c67bd592fc93cbffd06e6d341df75310cb008b9ccac1ffb94dfef030d2103c1e0504036a6a0a1e3e82f359d142119f09cde0371b5be259c5fcb9536ae3f372103150013eb73ae3cdc145727bc5a7f4123287c3852512883203c002d2422c10f5853ae00000000", "vin": [{"txinwitness": ["", "304402201e205426e0fb3e79916bef33829c32d21145e9fcb8e432b3c436c0a70836d5fa02200555c8b22be0a9fb8c230a9db9a4ea00c899f8570ca52e9fc0bf446120e41bd901", "3045022100fb22f8f26b3b2f62189920249cbab900ed52416e70541ecb25036a07b4028f790220675fb4728d02d6c14c10c45d107d99f5dd5e969fa66eb3fe78a14957a305a66b01", "5221035f760ab3f8498f69df9643f856f73358f4018e08f4c6af0008fbec48035633db21029c00044cdc5824471c40be4258f400193c7e6655f3a63418a03f5b33a490eb762103944685c30fc55bf3f17f4822265f06e2a62d985cbb94ca692c5a93631088a38a53ae"], "sequence": 4294967295, "scriptSig": {"hex": "220020bfe13f6c11c491cb8183e89f752c3f2bc5d339d4cc4d5c43e598198bc45bc471", "asm": "0020bfe13f6c11c491cb8183e89f752c3f2bc5d339d4cc4d5c43e598198bc45bc471"}, "vout": 0, "txid": "2457697a3aab9f822cb775112e1cebd7fa424f53514f6acf0b2928122b7e5e76"}, {"txinwitness": ["", "30440220197decb77628a02d88d8ac0121fc126506c5bae9a893add83fc247c62f90255302203d065fdad9b8b14add74a5342f2e6ed761d881002defb9a3379b03345585d7a301", "304402202af13aad4762432be5b0d5b62202bf8a6a2c95d4c455d212fb140235d40f70bf022011e531c7797253a9de5d6d5dc0611d54ecef98da08f3d6ec590c3463c623cb5401", "52210334727261efab799c5da7d1eb0e3ee1190d278707b783f36a5b199f20ee66f18e210281a9eac1e5d96206906cbfa222a2a234d5bb33fbeab846ba05d2db45f30f758621026aaae376694a4cc6c28eb9c6e8c8a42db90c2c4186801fb64aacff116a681dd953ae"], "sequence": 4294967295, "scriptSig": {"hex": "220020bc9c0cf8a4b56fef4258faa9b35600ed82175d407a822b14c3460c1cbe5e0e9e", "asm": "0020bc9c0cf8a4b56fef4258faa9b35600ed82175d407a822b14c3460c1cbe5e0e9e"}, "vout": 1, "txid": "a0aaa144ddc6d6f17b731ca58e615bee068e20c06d3c38ed6b9c2dceea3eaa4a"}, {"txinwitness": ["", "3045022100f4812f69d1bf11b4f06081e3262966f838f7c19463d903eab1c066c5774a18e0022036e2430a7e2d68065cc1309ec6b55fb373e48ccd6cd489605da3318c8ed927cc01", "304402202e4bb75f80b2de645fccf45cfa658aa52c574b099675cd09375b9222b5a4a0ba02200aa212f52231816a3fe24532dc457b92a1a2e225a8bcd3a7d25fd463adda176501", "522103e200869c67bd592fc93cbffd06e6d341df75310cb008b9ccac1ffb94dfef030d2103c1e0504036a6a0a1e3e82f359d142119f09cde0371b5be259c5fcb9536ae3f372103150013eb73ae3cdc145727bc5a7f4123287c3852512883203c002d2422c10f5853ae"], "sequence": 4294967295, "scriptSig": {"hex": "22002061fc35ea2797cbf1dd498e3c4d29bf27f87a2ca1a1a5ef6f07776be4b0329dd7", "asm": "002061fc35ea2797cbf1dd498e3c4d29bf27f87a2ca1a1a5ef6f07776be4b0329dd7"}, "vout": 0, "txid": "c48aa3a940ff638b5e34cc77b1773780fb9fa549ca15179bf6c6fe10a408c710"}], "txid": "69595e01f4ffa35ab74925a1cae5fc016a17be3d295f52fe17e40ba19865b698", "blocktime": 1537870928, "version": 1, "confirmations": 11512, "time": 1537870928, "locktime": 0, "vsize": 722, "size": 1292}