{"hash": "091ff249d89549ff3077e888145de535097a55adffb744dd5e6cb3d584bb5281", "blockhash": "000000000000000000022b45ed06c6f4ccd3cf7fb5ba4856ebd2e58215665228", "vout": [{"scriptPubKey": {"reqSigs": 1, "hex": "a914c4bbef5e899b0f18cb11e3de07d3c445e1fbc95a87", "addresses": ["3KdFW6d7R3QtGxxgDddJrjiQioqTn88PaM"], "asm": "OP_HASH160 c4bbef5e899b0f18cb11e3de07d3c445e1fbc95a OP_EQUAL", "type": "scripthash"}, "value": 0.00999836, "n": 0}, {"scriptPubKey": {"reqSigs": 1, "hex": "76a914bbaec083b5e6b2619a44122d11954d363152fd0488ac", "addresses": ["1J7NhraWXwxB5EzsPgHjvHxXqAAYgWV397"], "asm": "OP_DUP OP_HASH160 bbaec083b5e6b2619a44122d11954d363152fd04 OP_EQUALVERIFY OP_CHECKSIG", "type": "pubkeyhash"}, "value": 0.0028236, "n": 1}], "hex": "0200000000010237e0338d30027634bfb696b4049b6c6f684c9b0562a83cb9b7c33e4312bbd9db1100000017160014ff01e99bac833483290781b84e870c9c4d35eefdfeffffffb844fab078ddf93b847a7d750c31b79867b11a5439deb232f64d3d71e0db79ae010000001716001402f5e1243e0a6c269cf970f2f95eea799a7e1006feffffff029c410f000000000017a914c4bbef5e899b0f18cb11e3de07d3c445e1fbc95a87f84e0400000000001976a914bbaec083b5e6b2619a44122d11954d363152fd0488ac02483045022100b7a68c79f1260a83ba21c080e94ce6c0ad331f59523c9a4c539396b9e4c9c65e022076cd19baabf37b7c429cd0b70ef351a86889097938b304ab5d16aa77ce5a2531012102437542c01d7123db6e3c08e0f90e2c64ae8b1d0c231b04250163ccd11d05efab0247304402206cec6878f93a3471fa583c4c1ee5bbece008b6fee8d6912e23b33d114bd37a080220343e2724912b228c298847b59051f4f408a1c04de716314f629697d8cae5b9da012102cb9a650feb69f714ba4811ddabf6ff438b5e738c3efa2751cc61a4a567b86fe20b490800", "vin": [{"txinwitness": ["3045022100b7a68c79f1260a83ba21c080e94ce6c0ad331f59523c9a4c539396b9e4c9c65e022076cd19baabf37b7c429cd0b70ef351a86889097938b304ab5d16aa77ce5a253101", "02437542c01d7123db6e3c08e0f90e2c64ae8b1d0c231b04250163ccd11d05efab"], "sequence": 4294967294, "scriptSig": {"hex": "160014ff01e99bac833483290781b84e870c9c4d35eefd", "asm": "0014ff01e99bac833483290781b84e870c9c4d35eefd"}, "vout": 17, "txid": "dbd9bb12433ec3b7b93ca862059b4c686f6c9b04b496b6bf347602308d33e037"}, {"txinwitness": ["304402206cec6878f93a3471fa583c4c1ee5bbece008b6fee8d6912e23b33d114bd37a080220343e2724912b228c298847b59051f4f408a1c04de716314f629697d8cae5b9da01", "02cb9a650feb69f714ba4811ddabf6ff438b5e738c3efa2751cc61a4a567b86fe2"], "sequence": 4294967294, "scriptSig": {"hex": "16001402f5e1243e0a6c269cf970f2f95eea799a7e1006", "asm": "001402f5e1243e0a6c269cf970f2f95eea799a7e1006"}, "vout": 1, "txid": "ae79dbe0713d4df632b2de39541ab16798b7310c757d7a843bf9dd78b0fa44b8"}], "txid": "695a95a9f51e719214b83e7856064af2c92bf8fb47fc78e179989c4a9150df1f", "blocktime": 1537869901, "version": 2, "confirmations": 11524, "time": 1537869901, "locktime": 542987, "vsize": 259, "size": 421}