{"hash": "695c406989dc7b95f234bc693f7cf864cbec9445567475ba82e945448e7e0653", "blockhash": "00000000000000000004ffacab907a6b429b9a5745fa0b75af4234bf69dd7176", "vout": [{"scriptPubKey": {"reqSigs": 1, "hex": "76a914d069f0835c78a743ece9e968bc53dd1131824c4888ac", "addresses": ["1KzzThynwnkuXd3e19zqBjZ1Dp4MzUVkqk"], "asm": "OP_DUP OP_HASH160 d069f0835c78a743ece9e968bc53dd1131824c48 OP_EQUALVERIFY OP_CHECKSIG", "type": "pubkeyhash"}, "value": 0.00108859, "n": 0}, {"scriptPubKey": {"reqSigs": 1, "hex": "76a914e163d073e054266d0f5e025eebd6100b0c946b5b88ac", "addresses": ["1MYkcNyCtPmxivKoMy5v5VBkv6LuBrgrAy"], "asm": "OP_DUP OP_HASH160 e163d073e054266d0f5e025eebd6100b0c946b5b OP_EQUALVERIFY OP_CHECKSIG", "type": "pubkeyhash"}, "value": 0.06636051, "n": 1}], "hex": "0100000001d8ed4a54dc342fa0baa63e18a3a9d2c9f485cd2367d40643c163c8275fc7313e010000006b483045022100b127e284b5a7db5fc6b1bc2005bcbb470e0bbb5294fcd556c2d3f5bc3e7a0bc102202b7a18ae8972d052f1859877988e3fd4a6d5b549d86ef2c9e358ff3c86d720740121033387315522fd785dc6a3184e4f2acbd937f90409a105c06583c94e6554220085ffffffff023ba90100000000001976a914d069f0835c78a743ece9e968bc53dd1131824c4888ac13426500000000001976a914e163d073e054266d0f5e025eebd6100b0c946b5b88ac00000000", "vin": [{"sequence": 4294967295, "scriptSig": {"hex": "483045022100b127e284b5a7db5fc6b1bc2005bcbb470e0bbb5294fcd556c2d3f5bc3e7a0bc102202b7a18ae8972d052f1859877988e3fd4a6d5b549d86ef2c9e358ff3c86d720740121033387315522fd785dc6a3184e4f2acbd937f90409a105c06583c94e6554220085", "asm": "3045022100b127e284b5a7db5fc6b1bc2005bcbb470e0bbb5294fcd556c2d3f5bc3e7a0bc102202b7a18ae8972d052f1859877988e3fd4a6d5b549d86ef2c9e358ff3c86d72074[ALL] 033387315522fd785dc6a3184e4f2acbd937f90409a105c06583c94e6554220085"}, "vout": 1, "txid": "3e31c75f27c863c14306d46723cd85f4c9d2a9a3183ea6baa02f34dc544aedd8"}], "txid": "695c406989dc7b95f234bc693f7cf864cbec9445567475ba82e945448e7e0653", "blocktime": 1537875543, "version": 1, "confirmations": 11464, "time": 1537875543, "locktime": 0, "vsize": 226, "size": 226}