{"hash": "696183581768a965d13655a0b6e8dad798c4518c94d2981c4ecba31742be9134", "blockhash": "0000000000000000001e0dab787dd257d1dbfcb92a98c2207d5e1078be1f4165", "vout": [{"scriptPubKey": {"reqSigs": 1, "hex": "a914c55e558ba7fae535263f4cf94887cabf009a0be587", "addresses": ["3Kgc3nbCi8DWjVLtk5f3wwvEuosPyJ5dMR"], "asm": "OP_HASH160 c55e558ba7fae535263f4cf94887cabf009a0be5 OP_EQUAL", "type": "scripthash"}, "value": 0.1, "n": 0}, {"scriptPubKey": {"reqSigs": 1, "hex": "76a914c38bfcd22ac7307883800ca2a3555633b2f9148488ac", "addresses": ["1JpxTv3r4GyGrwTVRGorpCnEitt4cd8jMV"], "asm": "OP_DUP OP_HASH160 c38bfcd22ac7307883800ca2a3555633b2f91484 OP_EQUALVERIFY OP_CHECKSIG", "type": "pubkeyhash"}, "value": 0.231502, "n": 1}], "hex": "01000000012c01a2df80e8b805f0d6f033688163b63dce66ab22541c5658a04ccc7152cfb1070000006b48304502210083d822c48c9a96beef7624e60b4b9a2fb929afd4228af22ba8f47bd7c8f3280902206f514da1bba92135f7c6d601cb0e1bd303033b08aa3827dd042fe554c14aea3e0121030e9c6bc01dca77dd0c394651d43eff7ee91698c604864568d1ba4ff103b2c07afeffffff02809698000000000017a914c55e558ba7fae535263f4cf94887cabf009a0be587783e6101000000001976a914c38bfcd22ac7307883800ca2a3555633b2f9148488ac12490800", "vin": [{"sequence": 4294967294, "scriptSig": {"hex": "48304502210083d822c48c9a96beef7624e60b4b9a2fb929afd4228af22ba8f47bd7c8f3280902206f514da1bba92135f7c6d601cb0e1bd303033b08aa3827dd042fe554c14aea3e0121030e9c6bc01dca77dd0c394651d43eff7ee91698c604864568d1ba4ff103b2c07a", "asm": "304502210083d822c48c9a96beef7624e60b4b9a2fb929afd4228af22ba8f47bd7c8f3280902206f514da1bba92135f7c6d601cb0e1bd303033b08aa3827dd042fe554c14aea3e[ALL] 030e9c6bc01dca77dd0c394651d43eff7ee91698c604864568d1ba4ff103b2c07a"}, "vout": 7, "txid": "b1cf5271cc4ca058561c5422ab66ce3db663816833f0d6f005b8e880dfa2012c"}], "txid": "696183581768a965d13655a0b6e8dad798c4518c94d2981c4ecba31742be9134", "blocktime": 1537872475, "version": 1, "confirmations": 11486, "time": 1537872475, "locktime": 542994, "vsize": 224, "size": 224}