{"hash": "696547895eeed5029c4389d4509291186a07b30c0a1ef1e8a18eb102140aa3e6", "blockhash": "0000000000000000000e13cef7c366c0283d82e591d1acd082e914b08063cdf1", "vout": [{"scriptPubKey": {"reqSigs": 1, "hex": "a9141620d75e75f38fbd3051ea1d4dd3844a54bc3eca87", "addresses": ["33i28ciDHoXNPhMAXY4UrM5kjKW5yZMPsT"], "asm": "OP_HASH160 1620d75e75f38fbd3051ea1d4dd3844a54bc3eca OP_EQUAL", "type": "scripthash"}, "value": 0.00858946, "n": 0}, {"scriptPubKey": {"reqSigs": 1, "hex": "76a914549cc08cbb08741281a1a7186de004fbe238b86588ac", "addresses": ["18iPYSkFqoroUTKeTBti973Xdwo48kZt7Z"], "asm": "OP_DUP OP_HASH160 549cc08cbb08741281a1a7186de004fbe238b865 OP_EQUALVERIFY OP_CHECKSIG", "type": "pubkeyhash"}, "value": 0.22385338, "n": 1}], "hex": "01000000010dad81e7e27f231d9c82760f11af3ca643f301c791b22d4411203b9789ef3e62010000006a47304402201b637329673c9cf8962361659d68c998863a2198f38b87ccd191353efa2ed192022054c0e4b4c7b6b1de5fc8e3d9e664388788e991ed0c50006a7b97f7ed231bf9d7012102bbff9fc90a0d390a8ede849e176682afd763595c976f5be4bc6d60f3e7a7b27bffffffff02421b0d000000000017a9141620d75e75f38fbd3051ea1d4dd3844a54bc3eca87ba925501000000001976a914549cc08cbb08741281a1a7186de004fbe238b86588ac00000000", "vin": [{"sequence": 4294967295, "scriptSig": {"hex": "47304402201b637329673c9cf8962361659d68c998863a2198f38b87ccd191353efa2ed192022054c0e4b4c7b6b1de5fc8e3d9e664388788e991ed0c50006a7b97f7ed231bf9d7012102bbff9fc90a0d390a8ede849e176682afd763595c976f5be4bc6d60f3e7a7b27b", "asm": "304402201b637329673c9cf8962361659d68c998863a2198f38b87ccd191353efa2ed192022054c0e4b4c7b6b1de5fc8e3d9e664388788e991ed0c50006a7b97f7ed231bf9d7[ALL] 02bbff9fc90a0d390a8ede849e176682afd763595c976f5be4bc6d60f3e7a7b27b"}, "vout": 1, "txid": "623eef89973b2011442db291c701f343a63caf110f76829c1d237fe2e781ad0d"}], "txid": "696547895eeed5029c4389d4509291186a07b30c0a1ef1e8a18eb102140aa3e6", "blocktime": 1537871767, "version": 1, "confirmations": 11495, "time": 1537871767, "locktime": 0, "vsize": 223, "size": 223}