{"hash": "696a26f5f353b6393e3669186f80619d84ee9a3e05abd210d32e07c825d017e3", "blockhash": "0000000000000000000dcc0f55137456b1a82d3642486a52398922ac4d620174", "vout": [{"scriptPubKey": {"reqSigs": 1, "hex": "76a91474c720f3689fc7e8657139d6e0eb47ef7ad0372688ac", "addresses": ["1BeTvxZWzfN3xg7ZWuN7spdAj4cZUkXdMj"], "asm": "OP_DUP OP_HASH160 74c720f3689fc7e8657139d6e0eb47ef7ad03726 OP_EQUALVERIFY OP_CHECKSIG", "type": "pubkeyhash"}, "value": 0.00500249, "n": 0}, {"scriptPubKey": {"type": "nulldata", "hex": "6a146f6d6e69000000000000001f00000013c46f3100", "asm": "OP_RETURN 6f6d6e69000000000000001f00000013c46f3100"}, "value": 0.0, "n": 1}, {"scriptPubKey": {"reqSigs": 1, "hex": "76a914a25dec4d0011064ef106a983c39c7a540699f22088ac", "addresses": ["1FoWyxwPXuj4C6abqwhjDWdz6D4PZgYRjA"], "asm": "OP_DUP OP_HASH160 a25dec4d0011064ef106a983c39c7a540699f220 OP_EQUALVERIFY OP_CHECKSIG", "type": "pubkeyhash"}, "value": 5.46e-06, "n": 2}], "hex": "010000000367c3f433d02c52a76c7d476238bd5062e879f2e96d40a3fad3659e00c8f8c488010000006b48304502210096d586b4a0166684f58fd64892e3799d977d0bfa2ef51f08325563b29bf1b62e02201c0472e889d8eeea13c343c94ecde0cc171f90c73c517a37c47fd5bb51f60501012103ecd89d15628b86e99fd7f14e16a6584da2262df0587f072115db630c6ffa73f5feffffff94ccf85bf86892c6b215eb5d71e7331f49a894b31c3dfedd3d196ea24db49ee9000000006a4730440220128b7c3f85411f0d7fcf7505ca4f8796d7e2c8adf34d36cf9c093f927f5511a8022020a2849d30c6c2e6e361dfe9e567c7a0626285d97d1a7a60faf28092b8665086012103ecd89d15628b86e99fd7f14e16a6584da2262df0587f072115db630c6ffa73f5feffffff1ee995dded2b428faa22c0bbc94262a3917ba1af62b9468b7c6045f0085d2653010000006a473044022031825dee04e4a5a94ef09d6dfdad59d3e182158be40aabf358d37b191fbe91ac02205391a2e681b4d1333badd1ef4ae77301b2507d25ebc659a7b382aacb50e86432012103ecd89d15628b86e99fd7f14e16a6584da2262df0587f072115db630c6ffa73f5feffffff0319a20700000000001976a91474c720f3689fc7e8657139d6e0eb47ef7ad0372688ac0000000000000000166a146f6d6e69000000000000001f00000013c46f310022020000000000001976a914a25dec4d0011064ef106a983c39c7a540699f22088ac0b490800", "vin": [{"sequence": 4294967294, "scriptSig": {"hex": "48304502210096d586b4a0166684f58fd64892e3799d977d0bfa2ef51f08325563b29bf1b62e02201c0472e889d8eeea13c343c94ecde0cc171f90c73c517a37c47fd5bb51f60501012103ecd89d15628b86e99fd7f14e16a6584da2262df0587f072115db630c6ffa73f5", "asm": "304502210096d586b4a0166684f58fd64892e3799d977d0bfa2ef51f08325563b29bf1b62e02201c0472e889d8eeea13c343c94ecde0cc171f90c73c517a37c47fd5bb51f60501[ALL] 03ecd89d15628b86e99fd7f14e16a6584da2262df0587f072115db630c6ffa73f5"}, "vout": 1, "txid": "88c4f8c8009e65d3faa3406de9f279e86250bd3862477d6ca7522cd033f4c367"}, {"sequence": 4294967294, "scriptSig": {"hex": "4730440220128b7c3f85411f0d7fcf7505ca4f8796d7e2c8adf34d36cf9c093f927f5511a8022020a2849d30c6c2e6e361dfe9e567c7a0626285d97d1a7a60faf28092b8665086012103ecd89d15628b86e99fd7f14e16a6584da2262df0587f072115db630c6ffa73f5", "asm": "30440220128b7c3f85411f0d7fcf7505ca4f8796d7e2c8adf34d36cf9c093f927f5511a8022020a2849d30c6c2e6e361dfe9e567c7a0626285d97d1a7a60faf28092b8665086[ALL] 03ecd89d15628b86e99fd7f14e16a6584da2262df0587f072115db630c6ffa73f5"}, "vout": 0, "txid": "e99eb44da26e193dddfe3d1cb394a8491f33e7715deb15b2c69268f85bf8cc94"}, {"sequence": 4294967294, "scriptSig": {"hex": "473044022031825dee04e4a5a94ef09d6dfdad59d3e182158be40aabf358d37b191fbe91ac02205391a2e681b4d1333badd1ef4ae77301b2507d25ebc659a7b382aacb50e86432012103ecd89d15628b86e99fd7f14e16a6584da2262df0587f072115db630c6ffa73f5", "asm": "3044022031825dee04e4a5a94ef09d6dfdad59d3e182158be40aabf358d37b191fbe91ac02205391a2e681b4d1333badd1ef4ae77301b2507d25ebc659a7b382aacb50e86432[ALL] 03ecd89d15628b86e99fd7f14e16a6584da2262df0587f072115db630c6ffa73f5"}, "vout": 1, "txid": "53265d08f045607c8b46b962afa17b91a36242c9bbc022aa8f422beddd95e91e"}], "txid": "696a26f5f353b6393e3669186f80619d84ee9a3e05abd210d32e07c825d017e3", "blocktime": 1537870268, "version": 1, "confirmations": 11518, "time": 1537870268, "locktime": 542987, "vsize": 551, "size": 551}