{"hash": "696e5625651aa7d52be7bb3a3cf15f42e793781108031df1ede323546ad63877", "blockhash": "00000000000000000024a2167bbff67b0be802c0b01cdd79e6331c2be6459f87", "vout": [{"scriptPubKey": {"reqSigs": 1, "hex": "76a914d172526df1828b8b51399f1d81ae20903c50f5f888ac", "addresses": ["1L6TBKmsggpLvJGubACpeDbBPYnastRrBa"], "asm": "OP_DUP OP_HASH160 d172526df1828b8b51399f1d81ae20903c50f5f8 OP_EQUALVERIFY OP_CHECKSIG", "type": "pubkeyhash"}, "value": 0.02942202, "n": 0}, {"scriptPubKey": {"reqSigs": 1, "hex": "76a914331faf6933166151c2c0c7d2a015410272736c0188ac", "addresses": ["15fKRJxQ2RA8bbGuBi2Jp9V2hdAzTy1xhE"], "asm": "OP_DUP OP_HASH160 331faf6933166151c2c0c7d2a015410272736c01 OP_EQUALVERIFY OP_CHECKSIG", "type": "pubkeyhash"}, "value": 0.1604148, "n": 1}], "hex": "0100000001d1efb3e460beea0f5835826da9d5c7acdec7aed5e7675dfd3b334531c0851bdd010000006b483045022100c46bda5aa60fb652858e7d9690c5e61428c5b61a9b7de426b128061bef84767302202d55102e289633fc5b407a7278f209268b48ea1fa7d02358cc8c5d02be1cbb09012102064368d4fb2da01d3aff86166ef17711909f251086d0013df8f23422940a441effffffff02fae42c00000000001976a914d172526df1828b8b51399f1d81ae20903c50f5f888ac08c6f400000000001976a914331faf6933166151c2c0c7d2a015410272736c0188ac00000000", "vin": [{"sequence": 4294967295, "scriptSig": {"hex": "483045022100c46bda5aa60fb652858e7d9690c5e61428c5b61a9b7de426b128061bef84767302202d55102e289633fc5b407a7278f209268b48ea1fa7d02358cc8c5d02be1cbb09012102064368d4fb2da01d3aff86166ef17711909f251086d0013df8f23422940a441e", "asm": "3045022100c46bda5aa60fb652858e7d9690c5e61428c5b61a9b7de426b128061bef84767302202d55102e289633fc5b407a7278f209268b48ea1fa7d02358cc8c5d02be1cbb09[ALL] 02064368d4fb2da01d3aff86166ef17711909f251086d0013df8f23422940a441e"}, "vout": 1, "txid": "dd1b85c03145333bfd5d67e7d5aec7deacc7d5a96d8235580feabe60e4b3efd1"}], "txid": "696e5625651aa7d52be7bb3a3cf15f42e793781108031df1ede323546ad63877", "blocktime": 1537870564, "version": 1, "confirmations": 11515, "time": 1537870564, "locktime": 0, "vsize": 226, "size": 226}