{"hash": "9ae2848cd277e8015d2df64f54077d18ed06718d3a79e71cddd534080172c4a1", "blockhash": "0000000000000000000baef3f32e3676a92c3b2e5da21b426e4f302fc371ce76", "vout": [{"scriptPubKey": {"reqSigs": 1, "hex": "a91409f4af8b65aa375907a8e7eff81419f001e183d087", "addresses": ["32bf8LDdJRGFuen16hRNrhcmr2KWDxeQte"], "asm": "OP_HASH160 09f4af8b65aa375907a8e7eff81419f001e183d0 OP_EQUAL", "type": "scripthash"}, "value": 2.51079923, "n": 0}, {"scriptPubKey": {"reqSigs": 1, "hex": "a9144b5257563aa0511e37744a24b70ab521ca4959a687", "addresses": ["38ZHF6UA3mP5eMXT7G49baPATwnyHVmV7o"], "asm": "OP_HASH160 4b5257563aa0511e37744a24b70ab521ca4959a6 OP_EQUAL", "type": "scripthash"}, "value": 0.01009071, "n": 1}], "hex": "0200000000010a099f6756b4dd6f53d3b0b556d57035bbaeb0f7d74bf79fe5f63191ff1f6fba270000000017160014114a0dbd6567862a66ab7784a66fd1989da5edf1feffffff12aa75eeccb9a86f292822e9650b939939b809aa27679a1a8510cdd34dbe0a8f010000001716001409a330e1658b7acd60e58214d96afa6b7aac6077feffffff15e306161e13919ecee5a500e71f05e335556b661b0a7433fdf8d4ed736c0a6f020000001716001402fab3a5e4e1befb02e31c6de45cbe8a2df56615feffffff2491f0e648a6c1c685f44528a0de1a207aad932e1ed47b0ded03d265897c7a88000000001716001486fa9fc9b45a694ea1f77635b1dd35d198291606feffffff890582aded3e01c594a2920a427f21c20b8a6f0080f155cb02a1677cd3a7df370000000017160014ccd4c28c817e8a9856a7964b572d4034e640d455feffffffb06d306cc43d5f01371c4d7e9e53e778bb57f3bc24e60f4609eca4510d0e90e80000000017160014728163a0c6f8abdabff0fb8f2f790db34e42e310feffffffb4ad871c63387832c937c529ab54b3c70a383bb4e9fbc258449f9fc9e819c0390000000017160014147339d977166c203c5b8d3252add8d44ceb95cafeffffffe02c98013610aff82354b9f3328bf789439147146db64a300fc7f104fe5e8cfe0500000017160014dc29a608f8f1b8b7e243c46a2d05da445a7155f5feffffffe5ebd8da5df32d6fe93df1fb53d2d6ff4bc3d34484522f2d050ed2b0a9b569d30000000017160014e57584393c417c9f020d7775e1dee920f15e617ffeffffffec53a798d15d0640fa498f8d80cc5da4b5128c7571ef20175e2bb9137d801f610000000017160014c102115f429b37f158cac3bc750f2265aae469f8feffffff02f32cf70e0000000017a91409f4af8b65aa375907a8e7eff81419f001e183d087af650f000000000017a9144b5257563aa0511e37744a24b70ab521ca4959a68702483045022100d6e7968fcb6fed89219193a38fc861e46d1c7efab984f157f4816a336d12c2e7022030562bdf682e0458cd66d87caa9961e8045328eb4d6e7be4fd27092bdb5feedb0121028703c85ae1c32f56f381403f43b4de56994072546ec4c0722af1f8fbcc6928cf024730440220662a29e053e625e36edea0940c00c3ab4484b19476ac7adc31064e26056b165c0220700e1204762a9ec26641b9ccf4cf5eb9d256e4ac24275e2564babeb6147c169701210226b0dec45b5b55d8c0198080bfe2b60198f74a8c85dd43a4fa33feb6126e25a10248304502210099e91d756b0be86fc8a38379e66f997f6115d099316d00599e1849be2e06225d02204d426bd1581a703c4e7a97c44e7af1ef2d75dbf2b7790be0eafb17ec37a6adc8012102e7abdeb294291c4286ca21b61b6d38bf18f2c4377ec2e51bcde1a99803595cda02483045022100e005bb376a91e8743c8ff198f173cf2fdddd3beb6883adf20fc71db9b53289ed02204482c0cd7ed106fbb9d0d42b5b575e2eb8fa6f3f8b4298d2ba292b28c4d034d2012103f276ba7d09465beaedba9ae490a28b5db165514c1a38a62803a5049c6658a878024830450221009a3267ddab635d7d94b6091a192766a64f8eb28789f771976b7b82110982e6bb022044f2d98d83850c3bf03489ef60455333d448a7f291a43ebabf1e3e6aa9db5e79012102896bea51bf5d9648f83802c178abf73c6fa53c043e6634d7dc0fcbe43ffc5fd50247304402202a196ada4a8267ff00deabd5289d80531acbb3aa2ecdc5c18b19d9383e10628a02204eef7236e135f97761231a6c55c17ab087c9e9362aadc05110b87a6fa6dd5dd50121029c5cee72d68e598f64700cc09673aae57868b60cd00764a9b3cf2b84ba89f829024730440220202d2bcc94eecc16f82ae654e6a01105fe08abbb983f70efcff58c0b35eeac2002202318faa68ea539b6ac9f115f96b57915cff9b812f0ee02484202602a7a5bf8ac0121022d3943533c469c4b04bea8f326d74cb05a4ada1fb80481cae6a5c0c96d595f9602483045022100ec19c31253f52613770feee3862719f69f9ca30a6f308434ef3d0d668b18fd3a02204009fc9d5483a75c4589a16678a00a690076bf90a46a7c70b1abc68c56a592cb0121038b8b9429ef6693d699d3d21e5436aa291fcf072f7b62f98443a7052ebf652a5b02483045022100f83d772616675bf62f8e0edde5ddc999a2decc9d50f5aa58a1dd1f0ae12ac48002205614f6fa41a369bbbd94f90fd094bbdcd99410139524c115df1b2db57aaf99ce01210252d53e9de99628e05c5f3ea0deb95087869351af18088ab455cb89580264f51a02483045022100db6c12be77f12a11498f83a725ab077c292ff84d7149e99f1d5137dbfbcebcd00220386e6873340778925764404a0c55e2667e6651f9f79afd1e4fc5805c3bd4a153012102486c2f479f7b474dc52b5287402b23933f888946d8e56699560c3741154c8d8116490800", "vin": [{"txinwitness": ["3045022100d6e7968fcb6fed89219193a38fc861e46d1c7efab984f157f4816a336d12c2e7022030562bdf682e0458cd66d87caa9961e8045328eb4d6e7be4fd27092bdb5feedb01", "028703c85ae1c32f56f381403f43b4de56994072546ec4c0722af1f8fbcc6928cf"], "sequence": 4294967294, "scriptSig": {"hex": "160014114a0dbd6567862a66ab7784a66fd1989da5edf1", "asm": "0014114a0dbd6567862a66ab7784a66fd1989da5edf1"}, "vout": 0, "txid": "27ba6f1fff9131f6e59ff74bd7f7b0aebb3570d556b5b0d3536fddb456679f09"}, {"txinwitness": ["30440220662a29e053e625e36edea0940c00c3ab4484b19476ac7adc31064e26056b165c0220700e1204762a9ec26641b9ccf4cf5eb9d256e4ac24275e2564babeb6147c169701", "0226b0dec45b5b55d8c0198080bfe2b60198f74a8c85dd43a4fa33feb6126e25a1"], "sequence": 4294967294, "scriptSig": {"hex": "16001409a330e1658b7acd60e58214d96afa6b7aac6077", "asm": "001409a330e1658b7acd60e58214d96afa6b7aac6077"}, "vout": 1, "txid": "8f0abe4dd3cd10851a9a6727aa09b83999930b65e92228296fa8b9ccee75aa12"}, {"txinwitness": ["304502210099e91d756b0be86fc8a38379e66f997f6115d099316d00599e1849be2e06225d02204d426bd1581a703c4e7a97c44e7af1ef2d75dbf2b7790be0eafb17ec37a6adc801", "02e7abdeb294291c4286ca21b61b6d38bf18f2c4377ec2e51bcde1a99803595cda"], "sequence": 4294967294, "scriptSig": {"hex": "16001402fab3a5e4e1befb02e31c6de45cbe8a2df56615", "asm": "001402fab3a5e4e1befb02e31c6de45cbe8a2df56615"}, "vout": 2, "txid": "6f0a6c73edd4f8fd33740a1b666b5535e3051fe700a5e5ce9e91131e1606e315"}, {"txinwitness": ["3045022100e005bb376a91e8743c8ff198f173cf2fdddd3beb6883adf20fc71db9b53289ed02204482c0cd7ed106fbb9d0d42b5b575e2eb8fa6f3f8b4298d2ba292b28c4d034d201", "03f276ba7d09465beaedba9ae490a28b5db165514c1a38a62803a5049c6658a878"], "sequence": 4294967294, "scriptSig": {"hex": "16001486fa9fc9b45a694ea1f77635b1dd35d198291606", "asm": "001486fa9fc9b45a694ea1f77635b1dd35d198291606"}, "vout": 0, "txid": "887a7c8965d203ed0d7bd41e2e93ad7a201adea02845f485c6c1a648e6f09124"}, {"txinwitness": ["30450221009a3267ddab635d7d94b6091a192766a64f8eb28789f771976b7b82110982e6bb022044f2d98d83850c3bf03489ef60455333d448a7f291a43ebabf1e3e6aa9db5e7901", "02896bea51bf5d9648f83802c178abf73c6fa53c043e6634d7dc0fcbe43ffc5fd5"], "sequence": 4294967294, "scriptSig": {"hex": "160014ccd4c28c817e8a9856a7964b572d4034e640d455", "asm": "0014ccd4c28c817e8a9856a7964b572d4034e640d455"}, "vout": 0, "txid": "37dfa7d37c67a102cb55f180006f8a0bc2217f420a92a294c5013eedad820589"}, {"txinwitness": ["304402202a196ada4a8267ff00deabd5289d80531acbb3aa2ecdc5c18b19d9383e10628a02204eef7236e135f97761231a6c55c17ab087c9e9362aadc05110b87a6fa6dd5dd501", "029c5cee72d68e598f64700cc09673aae57868b60cd00764a9b3cf2b84ba89f829"], "sequence": 4294967294, "scriptSig": {"hex": "160014728163a0c6f8abdabff0fb8f2f790db34e42e310", "asm": "0014728163a0c6f8abdabff0fb8f2f790db34e42e310"}, "vout": 0, "txid": "e8900e0d51a4ec09460fe624bcf357bb78e7539e7e4d1c37015f3dc46c306db0"}, {"txinwitness": ["30440220202d2bcc94eecc16f82ae654e6a01105fe08abbb983f70efcff58c0b35eeac2002202318faa68ea539b6ac9f115f96b57915cff9b812f0ee02484202602a7a5bf8ac01", "022d3943533c469c4b04bea8f326d74cb05a4ada1fb80481cae6a5c0c96d595f96"], "sequence": 4294967294, "scriptSig": {"hex": "160014147339d977166c203c5b8d3252add8d44ceb95ca", "asm": "0014147339d977166c203c5b8d3252add8d44ceb95ca"}, "vout": 0, "txid": "39c019e8c99f9f4458c2fbe9b43b380ac7b354ab29c537c9327838631c87adb4"}, {"txinwitness": ["3045022100ec19c31253f52613770feee3862719f69f9ca30a6f308434ef3d0d668b18fd3a02204009fc9d5483a75c4589a16678a00a690076bf90a46a7c70b1abc68c56a592cb01", "038b8b9429ef6693d699d3d21e5436aa291fcf072f7b62f98443a7052ebf652a5b"], "sequence": 4294967294, "scriptSig": {"hex": "160014dc29a608f8f1b8b7e243c46a2d05da445a7155f5", "asm": "0014dc29a608f8f1b8b7e243c46a2d05da445a7155f5"}, "vout": 5, "txid": "fe8c5efe04f1c70f304ab66d1447914389f78b32f3b95423f8af103601982ce0"}, {"txinwitness": ["3045022100f83d772616675bf62f8e0edde5ddc999a2decc9d50f5aa58a1dd1f0ae12ac48002205614f6fa41a369bbbd94f90fd094bbdcd99410139524c115df1b2db57aaf99ce01", "0252d53e9de99628e05c5f3ea0deb95087869351af18088ab455cb89580264f51a"], "sequence": 4294967294, "scriptSig": {"hex": "160014e57584393c417c9f020d7775e1dee920f15e617f", "asm": "0014e57584393c417c9f020d7775e1dee920f15e617f"}, "vout": 0, "txid": "d369b5a9b0d20e052d2f528444d3c34bffd6d253fbf13de96f2df35ddad8ebe5"}, {"txinwitness": ["3045022100db6c12be77f12a11498f83a725ab077c292ff84d7149e99f1d5137dbfbcebcd00220386e6873340778925764404a0c55e2667e6651f9f79afd1e4fc5805c3bd4a15301", "02486c2f479f7b474dc52b5287402b23933f888946d8e56699560c3741154c8d81"], "sequence": 4294967294, "scriptSig": {"hex": "160014c102115f429b37f158cac3bc750f2265aae469f8", "asm": "0014c102115f429b37f158cac3bc750f2265aae469f8"}, "vout": 0, "txid": "611f807d13b92b5e1720ef71758c12b5a45dcc808d8f49fa40065dd198a753ec"}], "txid": "696e5b4a7d7d11710c0e24412594987a984f9f77420129cf79990598d68d69d3", "blocktime": 1537876114, "version": 2, "confirmations": 11462, "time": 1537876114, "locktime": 542998, "vsize": 984, "size": 1793}