{"hash": "2d5d237537f677f3aa7ca5b2b5d8052c198fdb80fe1fb6d7a7d10b133ebc4029", "blockhash": "0000000000000000001cda96e906b7601b7a6fb1a3b62bca570a9e5d8f4b3de1", "vout": [{"scriptPubKey": {"reqSigs": 1, "hex": "a914b128dd0626eec5b00977c6b3e10d13d6decc8f5287", "addresses": ["3HqkUjaBEiYmMKYMz3kTH3VQkRNsyQsmFr"], "asm": "OP_HASH160 b128dd0626eec5b00977c6b3e10d13d6decc8f52 OP_EQUAL", "type": "scripthash"}, "value": 0.00999122, "n": 0}, {"scriptPubKey": {"reqSigs": 1, "hex": "76a914b7be3e452735ba040850819d430ff8818ce1965488ac", "addresses": ["1HkYZSMkNV4ywdVnqj7msXkFFFCEFc9CtV"], "asm": "OP_DUP OP_HASH160 b7be3e452735ba040850819d430ff8818ce19654 OP_EQUALVERIFY OP_CHECKSIG", "type": "pubkeyhash"}, "value": 0.0053656, "n": 1}], "hex": "0200000000010297fd2bcf8445bf012a350373534a7cd5655889435c25a021f0cd6200e5893dae00000000171600148e8e23fb072f1ac0b30ea3c4b72b14994bc8df17feffffff998e2dd2c78fab96b8ec5f4bd1052c8a17a56b5ef2725c72a7e0e3efaa965dda030000001716001427890ee5fad5c293fa583859c8328bf5e1339bcefeffffff02d23e0f000000000017a914b128dd0626eec5b00977c6b3e10d13d6decc8f5287f02f0800000000001976a914b7be3e452735ba040850819d430ff8818ce1965488ac02483045022100f9adece045b171480c7ce9d362cd29adcaa131b81def56dbccdc7c04897d56f10220731e31c05542995d0969e7a60cce1daad3a6cd47ca0fdc91161e5e0d5ced01a7012102867ff0d65a26bd18e0ec46d098b0747d032e92f2d8560aa4dc6b36d3f745337502473044022069c802c844aa516c59634442788d753823b659b6b9e2d89074896f301b6c1fb70220301ad73054b8a647a09237dbcb28ad4ae22115c9f36609c0842ae22f453f933e0121030968c5c4d3aa5d908988551fc63964b93556f74a03bec65b31f28098f8de704613490800", "vin": [{"txinwitness": ["3045022100f9adece045b171480c7ce9d362cd29adcaa131b81def56dbccdc7c04897d56f10220731e31c05542995d0969e7a60cce1daad3a6cd47ca0fdc91161e5e0d5ced01a701", "02867ff0d65a26bd18e0ec46d098b0747d032e92f2d8560aa4dc6b36d3f7453375"], "sequence": 4294967294, "scriptSig": {"hex": "1600148e8e23fb072f1ac0b30ea3c4b72b14994bc8df17", "asm": "00148e8e23fb072f1ac0b30ea3c4b72b14994bc8df17"}, "vout": 0, "txid": "ae3d89e50062cdf021a0255c43895865d57c4a537303352a01bf4584cf2bfd97"}, {"txinwitness": ["3044022069c802c844aa516c59634442788d753823b659b6b9e2d89074896f301b6c1fb70220301ad73054b8a647a09237dbcb28ad4ae22115c9f36609c0842ae22f453f933e01", "030968c5c4d3aa5d908988551fc63964b93556f74a03bec65b31f28098f8de7046"], "sequence": 4294967294, "scriptSig": {"hex": "16001427890ee5fad5c293fa583859c8328bf5e1339bce", "asm": "001427890ee5fad5c293fa583859c8328bf5e1339bce"}, "vout": 3, "txid": "da5d96aaefe3e0a7725c72f25e6ba5178a2c05d14b5fecb896ab8fc7d22d8e99"}], "txid": "696e5b30babd28e401ddb0775c0efb00fd88db1fe89df28ec24e216e9894c12f", "blocktime": 1537873282, "version": 2, "confirmations": 11484, "time": 1537873282, "locktime": 542995, "vsize": 259, "size": 421}