{"hash": "de8af4393db7bd896d61582b39625134c81faedb5f2d0a2b965e57a501865d6a", "blockhash": "0000000000000000000baef3f32e3676a92c3b2e5da21b426e4f302fc371ce76", "vout": [{"scriptPubKey": {"reqSigs": 1, "hex": "a91400a088a6b7e4feabfef09ec0f1afc016995305fd87", "addresses": ["31kLEdLVLNJR6yRLCiLpLBD9zMGRnukJDW"], "asm": "OP_HASH160 00a088a6b7e4feabfef09ec0f1afc016995305fd OP_EQUAL", "type": "scripthash"}, "value": 0.01177047, "n": 0}, {"scriptPubKey": {"reqSigs": 1, "hex": "76a914e1482ec57db1d96fc2e356addbf14c3901518b2988ac", "addresses": ["1MYBWWDtr3DErspZs5FKMCiATYtXVseQeU"], "asm": "OP_DUP OP_HASH160 e1482ec57db1d96fc2e356addbf14c3901518b29 OP_EQUALVERIFY OP_CHECKSIG", "type": "pubkeyhash"}, "value": 0.0031106, "n": 1}], "hex": "020000000001022a3e2e15fe75724ae724232d90ac4c579fbba157861290a7acea01d99041a4fe0a000000171600140913ee7371578435ea77eca4604220dc1a0b1d45feffffff79e39ae5efd26d2736ba57e58359da21661aff269f1facd80069bce754ede9250100000017160014a8447c03e4e32e12978a0b4735c694dc9125f2ebfeffffff02d7f511000000000017a91400a088a6b7e4feabfef09ec0f1afc016995305fd8714bf0400000000001976a914e1482ec57db1d96fc2e356addbf14c3901518b2988ac02473044022004dbf4498249d371c23066aba47eba8c22616a999368aeeacd6a588e0198946c0220472cf252cdd2233da5ba6091372f4c463539a10357ac312decf9ac978982db86012103540d7027d9557498797e613c99e619590a82f7f5f20294944fb674fc6e7fb90802483045022100a2681795590da879ad71b047aeccdf386ae357ae554f64355bee9db1798886c202203e8c7751bd439b10f1a3fb44d305e0edbbf228a0a38ec26c4320653be59e867101210281e12cbe6c692b554a9c95517da1fadff794561a1160e32cb12d597d5cf52faf17490800", "vin": [{"txinwitness": ["3044022004dbf4498249d371c23066aba47eba8c22616a999368aeeacd6a588e0198946c0220472cf252cdd2233da5ba6091372f4c463539a10357ac312decf9ac978982db8601", "03540d7027d9557498797e613c99e619590a82f7f5f20294944fb674fc6e7fb908"], "sequence": 4294967294, "scriptSig": {"hex": "1600140913ee7371578435ea77eca4604220dc1a0b1d45", "asm": "00140913ee7371578435ea77eca4604220dc1a0b1d45"}, "vout": 10, "txid": "fea44190d901eaaca790128657a1bb9f574cac902d2324e74a7275fe152e3e2a"}, {"txinwitness": ["3045022100a2681795590da879ad71b047aeccdf386ae357ae554f64355bee9db1798886c202203e8c7751bd439b10f1a3fb44d305e0edbbf228a0a38ec26c4320653be59e867101", "0281e12cbe6c692b554a9c95517da1fadff794561a1160e32cb12d597d5cf52faf"], "sequence": 4294967294, "scriptSig": {"hex": "160014a8447c03e4e32e12978a0b4735c694dc9125f2eb", "asm": "0014a8447c03e4e32e12978a0b4735c694dc9125f2eb"}, "vout": 1, "txid": "25e9ed54e7bc6900d8ac1f9f26ff1a6621da5983e557ba36276dd2efe59ae379"}], "txid": "69751e84d105cfe644a6aca9d287e951e776c010c9a90e173638e3035fe74a4d", "blocktime": 1537876114, "version": 2, "confirmations": 11462, "time": 1537876114, "locktime": 542999, "vsize": 259, "size": 421}