{"hash": "698111b2cb918efe16070ad09c6f083fde1da42211b3f4a8aaa26cbb9450af9f", "blockhash": "00000000000000000018f53835495a110e01622372bf6ae95dc86f2b0ab887b0", "vout": [{"scriptPubKey": {"type": "nulldata", "hex": "6a146f6d6e69000000000000001f0000012eae09c800", "asm": "OP_RETURN 6f6d6e69000000000000001f0000012eae09c800"}, "value": 0.0, "n": 0}, {"scriptPubKey": {"reqSigs": 1, "hex": "76a914fa556fd88168e9c5693fd5687e23943c7a0dc96988ac", "addresses": ["1PpeHDc1UBfVcvghdgmraKkchozPW7hSs4"], "asm": "OP_DUP OP_HASH160 fa556fd88168e9c5693fd5687e23943c7a0dc969 OP_EQUALVERIFY OP_CHECKSIG", "type": "pubkeyhash"}, "value": 0.00472027, "n": 1}, {"scriptPubKey": {"reqSigs": 1, "hex": "76a914a25dec4d0011064ef106a983c39c7a540699f22088ac", "addresses": ["1FoWyxwPXuj4C6abqwhjDWdz6D4PZgYRjA"], "asm": "OP_DUP OP_HASH160 a25dec4d0011064ef106a983c39c7a540699f220 OP_EQUALVERIFY OP_CHECKSIG", "type": "pubkeyhash"}, "value": 5.46e-06, "n": 2}], "hex": "0100000002184c6c57d50c1325d65f03b76ec0f70b02d78d262f4e26618cac3545bec94400020000006a47304402204370d0e87121bdc9f4fbe70703d9aef13a34da0fe2b08cf61f129086aa330a6d0220685adb08add77e7d566a5b6321b72f7f04e2fdb4779be2b2c33dc60e75e2de6a012103ac0eac4a80f7a9761551cef7402bf16b85b4234059cba5923e2444a023dd5109feffffff4cbafa3fedfb2f162c5fc2ee688ed57fe110180a75c4d8e46fdbe2135c0eb704020000006a47304402204dd789d93f1abb893b5863d26eaadd8d8598fa922556b4f6bb32cf59e9eb0213022051772a9bbc8e825766bc252e999f972dfe553ef3df686b1b3b7b709ca3485351012103ac0eac4a80f7a9761551cef7402bf16b85b4234059cba5923e2444a023dd5109feffffff030000000000000000166a146f6d6e69000000000000001f0000012eae09c800db330700000000001976a914fa556fd88168e9c5693fd5687e23943c7a0dc96988ac22020000000000001976a914a25dec4d0011064ef106a983c39c7a540699f22088acbd480800", "vin": [{"sequence": 4294967294, "scriptSig": {"hex": "47304402204370d0e87121bdc9f4fbe70703d9aef13a34da0fe2b08cf61f129086aa330a6d0220685adb08add77e7d566a5b6321b72f7f04e2fdb4779be2b2c33dc60e75e2de6a012103ac0eac4a80f7a9761551cef7402bf16b85b4234059cba5923e2444a023dd5109", "asm": "304402204370d0e87121bdc9f4fbe70703d9aef13a34da0fe2b08cf61f129086aa330a6d0220685adb08add77e7d566a5b6321b72f7f04e2fdb4779be2b2c33dc60e75e2de6a[ALL] 03ac0eac4a80f7a9761551cef7402bf16b85b4234059cba5923e2444a023dd5109"}, "vout": 2, "txid": "0044c9be4535ac8c61264e2f268dd7020bf7c06eb7035fd625130cd5576c4c18"}, {"sequence": 4294967294, "scriptSig": {"hex": "47304402204dd789d93f1abb893b5863d26eaadd8d8598fa922556b4f6bb32cf59e9eb0213022051772a9bbc8e825766bc252e999f972dfe553ef3df686b1b3b7b709ca3485351012103ac0eac4a80f7a9761551cef7402bf16b85b4234059cba5923e2444a023dd5109", "asm": "304402204dd789d93f1abb893b5863d26eaadd8d8598fa922556b4f6bb32cf59e9eb0213022051772a9bbc8e825766bc252e999f972dfe553ef3df686b1b3b7b709ca3485351[ALL] 03ac0eac4a80f7a9761551cef7402bf16b85b4234059cba5923e2444a023dd5109"}, "vout": 2, "txid": "04b70e5c13e2db6fe4d8c4750a1810e17fd58e68eec25f2c162ffbed3ffaba4c"}], "txid": "698111b2cb918efe16070ad09c6f083fde1da42211b3f4a8aaa26cbb9450af9f", "blocktime": 1537870928, "version": 1, "confirmations": 11514, "time": 1537870928, "locktime": 542909, "vsize": 403, "size": 403}