{"hash": "1596601f1fe9c25c9a5aec06543ffd59e90ed76c0455a120b2e91a46881b5664", "blockhash": "00000000000000000004ffacab907a6b429b9a5745fa0b75af4234bf69dd7176", "vout": [{"scriptPubKey": {"reqSigs": 1, "hex": "76a91454a1793b5a2dcd41198966e138abf164332fdaee88ac", "addresses": ["18iVCVdDZhUBU1B9JbZ9rH5aPG2WkFmWvi"], "asm": "OP_DUP OP_HASH160 54a1793b5a2dcd41198966e138abf164332fdaee OP_EQUALVERIFY OP_CHECKSIG", "type": "pubkeyhash"}, "value": 0.00792544, "n": 0}, {"scriptPubKey": {"reqSigs": 1, "hex": "a914a040174757312437615e294d6b2135d55234f15287", "addresses": ["3GJLpMQdDeT1du3FmcSzkUkgTxkvveTBSx"], "asm": "OP_HASH160 a040174757312437615e294d6b2135d55234f152 OP_EQUAL", "type": "scripthash"}, "value": 0.00768068, "n": 1}, {"scriptPubKey": {"reqSigs": 1, "hex": "76a9147d123cdb8265e1c2442d35e7b79f45c6bc0e0bd688ac", "addresses": ["1CQKKAAtavnhzkPvPptrmnFSgRxfpfitQJ"], "asm": "OP_DUP OP_HASH160 7d123cdb8265e1c2442d35e7b79f45c6bc0e0bd6 OP_EQUALVERIFY OP_CHECKSIG", "type": "pubkeyhash"}, "value": 0.49457388, "n": 2}], "hex": "02000000000101c241e2c27a9c9a6c8b6760a0701261e2bed7ed9f9897f1eb9ab8ee0d530bf9110000000017160014e1c3976d8a80abf709d47ed48bc796082f804520feffffff03e0170c00000000001976a91454a1793b5a2dcd41198966e138abf164332fdaee88ac44b80b000000000017a914a040174757312437615e294d6b2135d55234f15287eca8f202000000001976a9147d123cdb8265e1c2442d35e7b79f45c6bc0e0bd688ac0247304402207837ec870cd7f98396153829adfd977397ec56ea9b535ea967ccc060e7332c15022073796e6f6d19fe29bcc18cc84aac76a8a5e7b17d21503e6e2fd9e774f407cf4901210374ac4d1bae7b4fb12605bfb1b5e40eccd0e1e3f7ddf3357112aea9f823a88db316490800", "vin": [{"txinwitness": ["304402207837ec870cd7f98396153829adfd977397ec56ea9b535ea967ccc060e7332c15022073796e6f6d19fe29bcc18cc84aac76a8a5e7b17d21503e6e2fd9e774f407cf4901", "0374ac4d1bae7b4fb12605bfb1b5e40eccd0e1e3f7ddf3357112aea9f823a88db3"], "sequence": 4294967294, "scriptSig": {"hex": "160014e1c3976d8a80abf709d47ed48bc796082f804520", "asm": "0014e1c3976d8a80abf709d47ed48bc796082f804520"}, "vout": 0, "txid": "11f90b530deeb89aebf197989fedd7bee2611270a060678b6c9a9c7ac2e241c2"}], "txid": "6981c6e7a3cee4fcffff4a07dc26b4574ba4d1822de71115aec4b792ac5107f3", "blocktime": 1537875543, "version": 2, "confirmations": 11464, "time": 1537875543, "locktime": 542998, "vsize": 202, "size": 283}