{"hash": "cba92f47ae5eb64cb51337e5950281e661cfdd51dcc72cf131874d0f1fbfe674", "blockhash": "00000000000000000018f53835495a110e01622372bf6ae95dc86f2b0ab887b0", "vout": [{"scriptPubKey": {"reqSigs": 1, "hex": "a914c8d13e3bb8facde01f24eaea31487301bc169d9987", "addresses": ["3KzqjNiVGMco9LLNqYKW6gG1WJDNJxgi3w"], "asm": "OP_HASH160 c8d13e3bb8facde01f24eaea31487301bc169d99 OP_EQUAL", "type": "scripthash"}, "value": 0.00319538, "n": 0}], "hex": "010000000001011409d8bf8517c78f208c447f91a606e267fa7568b355e61c7b5a9ba63f6617e2000000002322002099e97b0aedbd59020526c51bee27eb84f3422af2091b5028868a3b473d33010b000000000132e004000000000017a914c8d13e3bb8facde01f24eaea31487301bc169d99870347304402201aa3b4754c7d0b550b3b3fdfb4bc26dfeada84a0c5ddab5ee1e8f2bc59cb3f890220027f6e9f1e16334557d4619381e65aab93c5ea09e732ab9fe47b4c580562959d0120651ce4e24c96025013a54c3e842b30e600bcb2f78f851cd5b779bd5ebc80fd585d76a914c5efa1278b638a3a25408c1b9b5003f811ee1a5c87637521025fcc521dda17de67504b34c5517690970ab25609af58ea7fbe52338dafe912f367039c4908b17576a914e878398b05fcdc6bcfdb51073885fb5306643e468868ac0e490800", "vin": [{"txinwitness": ["304402201aa3b4754c7d0b550b3b3fdfb4bc26dfeada84a0c5ddab5ee1e8f2bc59cb3f890220027f6e9f1e16334557d4619381e65aab93c5ea09e732ab9fe47b4c580562959d01", "651ce4e24c96025013a54c3e842b30e600bcb2f78f851cd5b779bd5ebc80fd58", "76a914c5efa1278b638a3a25408c1b9b5003f811ee1a5c87637521025fcc521dda17de67504b34c5517690970ab25609af58ea7fbe52338dafe912f367039c4908b17576a914e878398b05fcdc6bcfdb51073885fb5306643e468868ac"], "sequence": 0, "scriptSig": {"hex": "22002099e97b0aedbd59020526c51bee27eb84f3422af2091b5028868a3b473d33010b", "asm": "002099e97b0aedbd59020526c51bee27eb84f3422af2091b5028868a3b473d33010b"}, "vout": 0, "txid": "e217663fa69b5a7b1ce655b36875fa67e206a6917f448c208fc71785bfd80914"}], "txid": "6984d1ad44f2657455519b42c445f452fc97be571fc4b84ca7fc2fc9fbd3f893", "blocktime": 1537870928, "version": 1, "confirmations": 11514, "time": 1537870928, "locktime": 542990, "vsize": 169, "size": 320}