{"hash": "69850b012be32de6249075d35ea3fae2eecd571f668408766c0e27cb02dc3c9b", "blockhash": "0000000000000000000dcc0f55137456b1a82d3642486a52398922ac4d620174", "vout": [{"scriptPubKey": {"type": "nulldata", "hex": "6a4c500000776e0001eae3fea86536b224151bd6ac86aeaeacb577c031fc3a016b46dc7dc7d09600723d621802e12497cb3aad16d48df45baa08dc06137afffcc5f6481d100759d4ba30d2c37bb011d97e02cf", "asm": "OP_RETURN 0000776e0001eae3fea86536b224151bd6ac86aeaeacb577c031fc3a016b46dc7dc7d09600723d621802e12497cb3aad16d48df45baa08dc06137afffcc5f6481d100759d4ba30d2c37bb011d97e02cf"}, "value": 0.0, "n": 0}, {"scriptPubKey": {"reqSigs": 1, "hex": "76a914208df12d45e578f88b93fd31e54e376720b7c01c88ac", "addresses": ["13y8fT1LNuDHfwELyaj3NeMDLuUNxtohv7"], "asm": "OP_DUP OP_HASH160 208df12d45e578f88b93fd31e54e376720b7c01c OP_EQUALVERIFY OP_CHECKSIG", "type": "pubkeyhash"}, "value": 0.0065181, "n": 1}], "hex": "01000000010379d1858fe9260410b926662927227a959889efac2bb70cfea6f6ee54a99722000000006b483045022100965f45ccd162946145a37fd79b7b041c2b5d67761157214cb4fbda61513a21e30220086df6a2c398d63a4ca5239da15ca3ae270cc3a85bab865289c305ddd7e0e6b2012102a4f2388470db64a816e7ab6853b5008fbce35b347de3392e9f886abe4c35c733ffffffff020000000000000000536a4c500000776e0001eae3fea86536b224151bd6ac86aeaeacb577c031fc3a016b46dc7dc7d09600723d621802e12497cb3aad16d48df45baa08dc06137afffcc5f6481d100759d4ba30d2c37bb011d97e02cf22f20900000000001976a914208df12d45e578f88b93fd31e54e376720b7c01c88ac00000000", "vin": [{"sequence": 4294967295, "scriptSig": {"hex": "483045022100965f45ccd162946145a37fd79b7b041c2b5d67761157214cb4fbda61513a21e30220086df6a2c398d63a4ca5239da15ca3ae270cc3a85bab865289c305ddd7e0e6b2012102a4f2388470db64a816e7ab6853b5008fbce35b347de3392e9f886abe4c35c733", "asm": "3045022100965f45ccd162946145a37fd79b7b041c2b5d67761157214cb4fbda61513a21e30220086df6a2c398d63a4ca5239da15ca3ae270cc3a85bab865289c305ddd7e0e6b2[ALL] 02a4f2388470db64a816e7ab6853b5008fbce35b347de3392e9f886abe4c35c733"}, "vout": 0, "txid": "2297a954eef6a6fe0cb72bacef8998957a2227296626b9100426e98f85d17903"}], "txid": "69850b012be32de6249075d35ea3fae2eecd571f668408766c0e27cb02dc3c9b", "blocktime": 1537870268, "version": 1, "confirmations": 11518, "time": 1537870268, "locktime": 0, "vsize": 284, "size": 284}