{"hash": "6ae8e2de4d0301b70f8eef9450765898a0018552b97f2b74411b060e0aa4395a", "blockhash": "0000000000000000001cda96e906b7601b7a6fb1a3b62bca570a9e5d8f4b3de1", "vout": [{"scriptPubKey": {"reqSigs": 1, "hex": "00148f616e862d9fe754ec8ae4377354dc0a81a186f5", "addresses": ["bc1q3askap3dnln4fmy2usmhx4xup2q6rph4df9erz"], "asm": "0 8f616e862d9fe754ec8ae4377354dc0a81a186f5", "type": "witness_v0_keyhash"}, "value": 0.01231331, "n": 0}, {"scriptPubKey": {"reqSigs": 1, "hex": "a91415066da13e2ffebc0dcb779e0e8f6db69af610a787", "addresses": ["33cBpDNzXpNjD5SmpBCtjEERmNjPEXooZV"], "asm": "OP_HASH160 15066da13e2ffebc0dcb779e0e8f6db69af610a7 OP_EQUAL", "type": "scripthash"}, "value": 0.01047, "n": 1}], "hex": "0100000000010195419be847926b281b401855a4cb1d65164ff9d017ec9daed5d956d2e8ca4d7500000000171600146ad6a51d664085dbad749934c14497cb5d9fb1edffffffff02e3c91200000000001600148f616e862d9fe754ec8ae4377354dc0a81a186f5d8f90f000000000017a91415066da13e2ffebc0dcb779e0e8f6db69af610a78702473044022021efbdfa328979333c97ed75067b28ce2a9c5e514fa0e308f3e50cf9078bb6fe022026733cc91eeed066abf8b9cc942b73ee4539464c5aad3f79606a3451acbb73c9012102870db66c8ffb9c4e68c783e1068f86f9c51e1c63220b191f4d49a4c5f7f66e0800000000", "vin": [{"txinwitness": ["3044022021efbdfa328979333c97ed75067b28ce2a9c5e514fa0e308f3e50cf9078bb6fe022026733cc91eeed066abf8b9cc942b73ee4539464c5aad3f79606a3451acbb73c901", "02870db66c8ffb9c4e68c783e1068f86f9c51e1c63220b191f4d49a4c5f7f66e08"], "sequence": 4294967295, "scriptSig": {"hex": "1600146ad6a51d664085dbad749934c14497cb5d9fb1ed", "asm": "00146ad6a51d664085dbad749934c14497cb5d9fb1ed"}, "vout": 0, "txid": "754dcae8d256d9d5ae9dec17d0f94f16651dcba45518401b286b9247e89b4195"}], "txid": "69860d57cf11cfe81de343d35f38f28283b2751d3913527dc1e2b539b070f3cb", "blocktime": 1537873282, "version": 1, "confirmations": 11484, "time": 1537873282, "locktime": 0, "vsize": 165, "size": 246}