{"hash": "6987f7ea4ebe1be5abbf47dcc57744b26a8917334e6d439680ecd5cbd01fddbd", "blockhash": "0000000000000000000e13cef7c366c0283d82e591d1acd082e914b08063cdf1", "vout": [{"scriptPubKey": {"reqSigs": 1, "hex": "76a914183590069923a1bf9a0458c3f2fd3c9a919c679788ac", "addresses": ["13D1PCXKmGXkzFiVikkfgXMt4efrxJRbDM"], "asm": "OP_DUP OP_HASH160 183590069923a1bf9a0458c3f2fd3c9a919c6797 OP_EQUALVERIFY OP_CHECKSIG", "type": "pubkeyhash"}, "value": 8.45e-06, "n": 0}, {"scriptPubKey": {"reqSigs": 1, "hex": "76a914f253df97584de85ad32665a79324d65fc766ab8588ac", "addresses": ["1P6K13rRKvVdSJWciRUiMCQHfPUF7PuSxX"], "asm": "OP_DUP OP_HASH160 f253df97584de85ad32665a79324d65fc766ab85 OP_EQUALVERIFY OP_CHECKSIG", "type": "pubkeyhash"}, "value": 0.3328, "n": 1}], "hex": "0100000003a53647aa544ec1c18bec6e0609d35a4c584ff91c78d65606eb7727a03325201b000000006a473044022026b26ea2df5b7ac500c2bd6ba8b1980a51aef4e5573a9b42a6d377172e3a8c76022069a2ca269fb667966a30c8fc0732b9add8bf4f2c6046962b2b3f56c822669f9f012103bd22f6412e8134a3837837484b0f3af64417b5b743457b17524fa44696fa0461ffffffffda6c0d0eb426f24effcc6f4da500360a5410308f2091a6fed13d4912c231c0cc000000006a473044022020e833eab5b81019a608cb9bc43681e681aa97358ce52e180ac6084f894ee61c022070456d884088f7b292ef83792a3d1d28579fdf08d6e190788470b86be21ac432012102883bf77104d2175f9cb4e273410f79b28e32c261d7155dce7a128f9656c38606ffffffffa5c95143433e1639b4bc31869281ea17ec97fdad7bb4b0dc1dca5777c9ec9efd0c0000006a47304402204c5dad4af958684fc576a0d12628ddba925fe26972f60fde6873bfd0da66ea6702206401681847166e1d790b7997da2fcab5b0c1b138948123f180f68f76f1ade60c012102883bf77104d2175f9cb4e273410f79b28e32c261d7155dce7a128f9656c38606ffffffff024d030000000000001976a914183590069923a1bf9a0458c3f2fd3c9a919c679788ac00d0fb01000000001976a914f253df97584de85ad32665a79324d65fc766ab8588ac00000000", "vin": [{"sequence": 4294967295, "scriptSig": {"hex": "473044022026b26ea2df5b7ac500c2bd6ba8b1980a51aef4e5573a9b42a6d377172e3a8c76022069a2ca269fb667966a30c8fc0732b9add8bf4f2c6046962b2b3f56c822669f9f012103bd22f6412e8134a3837837484b0f3af64417b5b743457b17524fa44696fa0461", "asm": "3044022026b26ea2df5b7ac500c2bd6ba8b1980a51aef4e5573a9b42a6d377172e3a8c76022069a2ca269fb667966a30c8fc0732b9add8bf4f2c6046962b2b3f56c822669f9f[ALL] 03bd22f6412e8134a3837837484b0f3af64417b5b743457b17524fa44696fa0461"}, "vout": 0, "txid": "1b202533a02777eb0656d6781cf94f584c5ad309066eec8bc1c14e54aa4736a5"}, {"sequence": 4294967295, "scriptSig": {"hex": "473044022020e833eab5b81019a608cb9bc43681e681aa97358ce52e180ac6084f894ee61c022070456d884088f7b292ef83792a3d1d28579fdf08d6e190788470b86be21ac432012102883bf77104d2175f9cb4e273410f79b28e32c261d7155dce7a128f9656c38606", "asm": "3044022020e833eab5b81019a608cb9bc43681e681aa97358ce52e180ac6084f894ee61c022070456d884088f7b292ef83792a3d1d28579fdf08d6e190788470b86be21ac432[ALL] 02883bf77104d2175f9cb4e273410f79b28e32c261d7155dce7a128f9656c38606"}, "vout": 0, "txid": "ccc031c212493dd1fea691208f3010540a3600a54d6fccff4ef226b40e0d6cda"}, {"sequence": 4294967295, "scriptSig": {"hex": "47304402204c5dad4af958684fc576a0d12628ddba925fe26972f60fde6873bfd0da66ea6702206401681847166e1d790b7997da2fcab5b0c1b138948123f180f68f76f1ade60c012102883bf77104d2175f9cb4e273410f79b28e32c261d7155dce7a128f9656c38606", "asm": "304402204c5dad4af958684fc576a0d12628ddba925fe26972f60fde6873bfd0da66ea6702206401681847166e1d790b7997da2fcab5b0c1b138948123f180f68f76f1ade60c[ALL] 02883bf77104d2175f9cb4e273410f79b28e32c261d7155dce7a128f9656c38606"}, "vout": 12, "txid": "fd9eecc97757ca1ddcb0b47badfd97ec17ea81928631bcb439163e434351c9a5"}], "txid": "6987f7ea4ebe1be5abbf47dcc57744b26a8917334e6d439680ecd5cbd01fddbd", "blocktime": 1537871767, "version": 1, "confirmations": 11495, "time": 1537871767, "locktime": 0, "vsize": 519, "size": 519}