{"hash": "04672e54109424e211a907f6779b8ba28c7d35d94fae08177d61bf8ae14be13e", "blockhash": "0000000000000000000baef3f32e3676a92c3b2e5da21b426e4f302fc371ce76", "vout": [{"scriptPubKey": {"reqSigs": 1, "hex": "76a914c76a456041836f45062f6ca3b8039ee2ced6c02688ac", "addresses": ["1KBQn1jzgrphUiA7iYsSXhLnqXq2efGh9X"], "asm": "OP_DUP OP_HASH160 c76a456041836f45062f6ca3b8039ee2ced6c026 OP_EQUALVERIFY OP_CHECKSIG", "type": "pubkeyhash"}, "value": 0.01019457, "n": 0}, {"scriptPubKey": {"reqSigs": 1, "hex": "a914356d2c9d7648b23cccc5db1e2f19d7f8a3f34fe587", "addresses": ["36ZWXGm9zJwwNBGbdk5AwC3on49ZHsRiYx"], "asm": "OP_HASH160 356d2c9d7648b23cccc5db1e2f19d7f8a3f34fe5 OP_EQUAL", "type": "scripthash"}, "value": 0.12666972, "n": 1}], "hex": "01000000000102bc1c1b6045acb13bbc7ca4a923bd5413f94eedfd09c6f2571a50d2daa5e939c9000000002322002087f2218bdc146adc91e8a1112c66c2a3d285267ac2812255e502622d4a37d5d3ffffffffbc1c1b6045acb13bbc7ca4a923bd5413f94eedfd09c6f2571a50d2daa5e939c90100000023220020f02106df819c0c079c5a1301424987bb2223d70b61998b41dc48ac495ee36ff0ffffffff02418e0f00000000001976a914c76a456041836f45062f6ca3b8039ee2ced6c02688ac5c48c1000000000017a914356d2c9d7648b23cccc5db1e2f19d7f8a3f34fe58704004830450221008a7b901ed7fcf3a5b8ab765627ed5267c63e3ee0738308227dc633644ab61a4602201137de77962b8cb111d5d1a918eb3e9b8856e5b77088e7fedccdade064ccf2f7014830450221008d2b9b5f2f854b99c3ac01764cbfef293ce0a5967f6fb5475e427b0732c0138f0220069ad2a9a29fbc66ddc7f7a01f4a7e8be9378b959677435516283e825b7a317b0147522103ad31f75309c9bded98117740d1d395d66ef060c70ace9beea289fd065d04c7fc21038f2c7ecee34c843be9d886e50ce79e5dc40a1694c0417d60b35340f292ff73fc52ae0400483045022100d7f33a3b135249253b05b9ae0ed880c22dcca01a85b245bf893eb950e68cd2870220730448f1efcb69ee5beb324dfe7da85657f3629f488084b28032573ae943563e014730440220529316e1c10614fb825618b3cdaaaa37778c03694f9cfd300086984dd6c6dab602206ad38570404149fee58410b5ee33164f967d067ce008ffd8ca5ab5709f5ce8230147522103276a6941cb6b56ad46991c0386ea82997b17623fa39c5ae259bfb10244544a3d21038f2c7ecee34c843be9d886e50ce79e5dc40a1694c0417d60b35340f292ff73fc52ae00000000", "vin": [{"txinwitness": ["", "30450221008a7b901ed7fcf3a5b8ab765627ed5267c63e3ee0738308227dc633644ab61a4602201137de77962b8cb111d5d1a918eb3e9b8856e5b77088e7fedccdade064ccf2f701", "30450221008d2b9b5f2f854b99c3ac01764cbfef293ce0a5967f6fb5475e427b0732c0138f0220069ad2a9a29fbc66ddc7f7a01f4a7e8be9378b959677435516283e825b7a317b01", "522103ad31f75309c9bded98117740d1d395d66ef060c70ace9beea289fd065d04c7fc21038f2c7ecee34c843be9d886e50ce79e5dc40a1694c0417d60b35340f292ff73fc52ae"], "sequence": 4294967295, "scriptSig": {"hex": "22002087f2218bdc146adc91e8a1112c66c2a3d285267ac2812255e502622d4a37d5d3", "asm": "002087f2218bdc146adc91e8a1112c66c2a3d285267ac2812255e502622d4a37d5d3"}, "vout": 0, "txid": "c939e9a5dad2501a57f2c609fded4ef91354bd23a9a47cbc3bb1ac45601b1cbc"}, {"txinwitness": ["", "3045022100d7f33a3b135249253b05b9ae0ed880c22dcca01a85b245bf893eb950e68cd2870220730448f1efcb69ee5beb324dfe7da85657f3629f488084b28032573ae943563e01", "30440220529316e1c10614fb825618b3cdaaaa37778c03694f9cfd300086984dd6c6dab602206ad38570404149fee58410b5ee33164f967d067ce008ffd8ca5ab5709f5ce82301", "522103276a6941cb6b56ad46991c0386ea82997b17623fa39c5ae259bfb10244544a3d21038f2c7ecee34c843be9d886e50ce79e5dc40a1694c0417d60b35340f292ff73fc52ae"], "sequence": 4294967295, "scriptSig": {"hex": "220020f02106df819c0c079c5a1301424987bb2223d70b61998b41dc48ac495ee36ff0", "asm": "0020f02106df819c0c079c5a1301424987bb2223d70b61998b41dc48ac495ee36ff0"}, "vout": 1, "txid": "c939e9a5dad2501a57f2c609fded4ef91354bd23a9a47cbc3bb1ac45601b1cbc"}], "txid": "69918026becbde62d45eb97870b50f33c86466456468711eeeb9f45fd2128955", "blocktime": 1537876114, "version": 1, "confirmations": 11460, "time": 1537876114, "locktime": 0, "vsize": 339, "size": 669}