{"hash": "97ed04c38adb9596b42ce55bf5794ba1d2c7ec6af1b95b9906bdfb14fe21824f", "blockhash": "0000000000000000001f76057863aec43deb6fa401d9628bb513d65a8098bfab", "vout": [{"scriptPubKey": {"reqSigs": 1, "hex": "76a9141de1fe2686eb42f0811695a729f4b8cfc16a234488ac", "addresses": ["13j1KpMMKW63HZJZGRRnb8j1YDATk3BxmS"], "asm": "OP_DUP OP_HASH160 1de1fe2686eb42f0811695a729f4b8cfc16a2344 OP_EQUALVERIFY OP_CHECKSIG", "type": "pubkeyhash"}, "value": 0.0214783, "n": 0}, {"scriptPubKey": {"reqSigs": 1, "hex": "a914c1225c397b7b426f9aad6ede75566eb6f8b49d5887", "addresses": ["3KJDVxazAYEdSgshGkobPamcXNzqck3o6A"], "asm": "OP_HASH160 c1225c397b7b426f9aad6ede75566eb6f8b49d58 OP_EQUAL", "type": "scripthash"}, "value": 0.27452698, "n": 1}], "hex": "020000000001016793d4fdaac5d6f537e2df9936e90c912be792a8a75e68c63c430d224caca6960000000017160014349d8bf953b23e810438d3a2625644ef25c6ae4efdffffff02f6c52000000000001976a9141de1fe2686eb42f0811695a729f4b8cfc16a234488ac1ae5a2010000000017a914c1225c397b7b426f9aad6ede75566eb6f8b49d5887024730440220711e5f37f97ff06694acd48c5fae88ad647e8c3a1aa129d670839811c331fc6f02203e6f508fb9df97926faf61fe5587cebc22bd90979b0774deed59a526e4a90cfa012103b9e0584d6a2e63bd6c87fdb79eac3af54a845539e282ea975587d1c2a72cc4e414490800", "vin": [{"txinwitness": ["30440220711e5f37f97ff06694acd48c5fae88ad647e8c3a1aa129d670839811c331fc6f02203e6f508fb9df97926faf61fe5587cebc22bd90979b0774deed59a526e4a90cfa01", "03b9e0584d6a2e63bd6c87fdb79eac3af54a845539e282ea975587d1c2a72cc4e4"], "sequence": 4294967293, "scriptSig": {"hex": "160014349d8bf953b23e810438d3a2625644ef25c6ae4e", "asm": "0014349d8bf953b23e810438d3a2625644ef25c6ae4e"}, "vout": 0, "txid": "96a6ac4c220d433cc6685ea7a892e72b910ce93699dfe237f5d6c5aafdd49367"}], "txid": "699b144f11e0283149b08115803b639d8d9dce7adb4783474a3504be4ae23c07", "blocktime": 1537873891, "version": 2, "confirmations": 11474, "time": 1537873891, "locktime": 542996, "vsize": 168, "size": 249}