{"hash": "07cc6464741e5d9b75b61666b96f1c723e79c09cd0da03cf78f3ef4accd068f6", "blockhash": "0000000000000000000e13cef7c366c0283d82e591d1acd082e914b08063cdf1", "vout": [{"scriptPubKey": {"reqSigs": 1, "hex": "76a914ab95771e30b15dce9ef7a28dd25c42d7db3096c988ac", "addresses": ["1GeFbqPyGM8TDpa5JWy1SoLMG2tZabgYuv"], "asm": "OP_DUP OP_HASH160 ab95771e30b15dce9ef7a28dd25c42d7db3096c9 OP_EQUALVERIFY OP_CHECKSIG", "type": "pubkeyhash"}, "value": 0.0020196, "n": 0}, {"scriptPubKey": {"reqSigs": 1, "hex": "a9140136c10502ae5684e49b302f1af10f145f74b6b787", "addresses": ["31oSC7GvQMTZoouyNLBEHVRDhXEFbVhSmh"], "asm": "OP_HASH160 0136c10502ae5684e49b302f1af10f145f74b6b7 OP_EQUAL", "type": "scripthash"}, "value": 0.10355896, "n": 1}], "hex": "01000000000101bd19224b11041fa521aa4ae1d78249e14446f23d3e3051dd13603e5f0bdca2930100000023220020efd02f10cc1074c68ec89b458572a71ce6bfc8a17595d8fde80232e47279444bffffffff02e8140300000000001976a914ab95771e30b15dce9ef7a28dd25c42d7db3096c988acb8049e000000000017a9140136c10502ae5684e49b302f1af10f145f74b6b78704004830450221009be581885498b7ebfcc9bf241e3a82d8df002180e9751b18fc2c721eff73cee202205a71499f9b11caeadc3d40841e695ca11648440fb25de49a6156b65d9758fe9e01483045022100b174ffdaec6c84d6efc801978b9740652d6a3c863a1fc218fb3a6e662169448a022006134c374dceefea928cce1b08861eb4b9d82cc90e547cc643808536123f458c0147522103f985ea61f461801f3abc09ebed98ce7e20804639a64616f639f492883ea4e8d62103871fc2ca08e6950b38867e8e6a0e94ee625223d3aa0df5c65f414c6d784467e252ae00000000", "vin": [{"txinwitness": ["", "30450221009be581885498b7ebfcc9bf241e3a82d8df002180e9751b18fc2c721eff73cee202205a71499f9b11caeadc3d40841e695ca11648440fb25de49a6156b65d9758fe9e01", "3045022100b174ffdaec6c84d6efc801978b9740652d6a3c863a1fc218fb3a6e662169448a022006134c374dceefea928cce1b08861eb4b9d82cc90e547cc643808536123f458c01", "522103f985ea61f461801f3abc09ebed98ce7e20804639a64616f639f492883ea4e8d62103871fc2ca08e6950b38867e8e6a0e94ee625223d3aa0df5c65f414c6d784467e252ae"], "sequence": 4294967295, "scriptSig": {"hex": "220020efd02f10cc1074c68ec89b458572a71ce6bfc8a17595d8fde80232e47279444b", "asm": "0020efd02f10cc1074c68ec89b458572a71ce6bfc8a17595d8fde80232e47279444b"}, "vout": 1, "txid": "93a2dc0b5f3e6013dd51303e3df24644e14982d7e14aaa21a51f04114b2219bd"}], "txid": "699b31ca8e97d64e84be37f3997328460b6337e62d3e20f9a5ecec5699f59d14", "blocktime": 1537871767, "version": 1, "confirmations": 11495, "time": 1537871767, "locktime": 0, "vsize": 208, "size": 374}