{"hash": "699ebbbba3b2f48ad42038c400f0c5bf089a96b99217b473497d0cfc69e8d126", "blockhash": "00000000000000000024a2167bbff67b0be802c0b01cdd79e6331c2be6459f87", "vout": [{"scriptPubKey": {"reqSigs": 1, "hex": "76a914cae8dc378aff637a103ac3193e6a8bc9276eddd488ac", "addresses": ["1KVtTANnkifqXTxDVfZtevHdnpyoXiDKRs"], "asm": "OP_DUP OP_HASH160 cae8dc378aff637a103ac3193e6a8bc9276eddd4 OP_EQUALVERIFY OP_CHECKSIG", "type": "pubkeyhash"}, "value": 0.00104747, "n": 0}, {"scriptPubKey": {"reqSigs": 1, "hex": "76a91484020ab9f4b7b5dc98356b58e2e5ec98ea39e22a88ac", "addresses": ["1D2zeCL2iHnq1PNmrqK6fJSJkqkWhuxh7J"], "asm": "OP_DUP OP_HASH160 84020ab9f4b7b5dc98356b58e2e5ec98ea39e22a OP_EQUALVERIFY OP_CHECKSIG", "type": "pubkeyhash"}, "value": 0.0156, "n": 1}], "hex": "010000000b722798d159a23d0fd46676d04e0a225b874ec351e308708ec4e7a707a8f5ac0d0c0000006a473044022049f312c8bbda83cae621de97feaa09774c12f4975224d5f4df87238b25a1e7f302205409150199c05fa705fc27bb14f2badf70b823104d3fb67618df38960533c65401210263efe2a797b20dc16e4f8003e423df0a4955f8864059a8498bb1e2666e43de86ffffffffd4c1a3b51dd155170b69a363ab3cf566a319d484a41b686b7ecb90922b669c16000000006b483045022100dcd576f7c876372c3607f8a32abaa7fd5d52c2357e54469c809d22a78d7e61ec02201854c6be326fd6234b7a6d53872fd2d7852aff38b4ef2c4d3bf5ed9eb89d1571012103ee3aa9c28d491a45589e332fc8772337722cc0635417a70a548af3ccfdee6b72ffffffff8ef8477978ecbd11aba6e048e84824c85c3c17f35399371b85c2f9819017cd1a010000006b483045022100e06197c409f66f5bbefc2db9c1baca97cc33429674c6d1a65b27b2ccc53e331402205f65a6d3753f52c6135f9dbbae4c1d291f93c4955beec97a7c2d242dcd2fbf070121033ff0881ad15a24525089c9c5b2e478f4a8349fae3af46d590dcb5ef508382186ffffffff2cc1866623bbfdfcb9d322f157203059a0ac65195c817b441797ffbdd3e17c2e0c0000006b483045022100cba52cc76c2639eb69d9e56560dc49b1cea2cddd0e97ff86722bf12d9a656ad0022061d3925fa7b5b81ea707bb987694884be2ec092e89ae7841279d8e7148c080ff012103ef89cfc53ae47e83bcf298e4aeded183ca75f9abe4933a6c764dffdec25cb346ffffffffc6b6722c999f4d9e86c8930884c3c1b3d0e371844dc121b17a467332601df42e010000006b483045022100cb28d44e51fb1f1f3557a81c7a7a6a581abbd9519886d22446adfc44e965adb8022010049d0faa3d798128f1062594b25c693d9d0a4868e48ddf7d4b7501256adb130121033112a73b4a99e9eba92ae6aed413f33db9e72b0ac082d244e1b4901d2a9e833dffffffff236471cd89ddccc48e5ce2a27a9637e48ce8e38814a757433c1cd5359b6d063e010000006a473044022035e9dc67f710ec2e493cc99eeaefd63124dfd96d6ecef8e4a710db6981b0233d022043f99bb9cc2777fce865383c8957bc48716cecfb41bf714e745e57d6a22e6bf8012103891fa7605a4c9826bfbd627cddce1ff9f4491fb4200187406079874be96d3159ffffffff6814e18ac6cd0e2ae8e746281e2964fe9f566af375c9dae76d493f9b4c0f4b68010000006b4830450221008f05533b358c9013fad68362f591eeeb1e1e2d6274a080221a123eed73d0ac0c0220100b5b50a65c9b776af4ad173e1eeeaa99730dc1b118987e1d877dfd5ada0365012102af2099cea674d13b89ebddd7ffbe543991ed01f63aa2c61cd95f6fd84759892dffffffffee3cd40fd5ae45aaf524b51e6bcf24d0dca90d165e401c513317548391385d76000000006b483045022100d273a00e08aae763c775568419a3db12f773760666c3e447a490102b9f622c2702202237f832ecd4aff02b57588e0790bb1cbbf1f3a18435a4127227b9cc84f87c3901210358267e97c250102a2284cdb20b4338eb1e7e2f5ad01fc3e289b0dea62e869453ffffffffa556ac095448c54d463996b15c8ffbf235f006e63c318976e59f57ff5d42398b000000006b483045022100bdc33a7f3824f977cfcf2a6fd9ea2d4421d1a63e1957d9c0580e0330a4b2aa3a0220432abeb262aa2df5c519d017c320db6955a26439e27aa7e51529a74b3574544e01210237e6c28185392baa9ddc2bb0d3e83d5f803dcaf5f51ba551f4b7df0ce67b5f44ffffffff16a53b8c76f82315c64407b3b691bfa4ab9a571d4475b83d96d7d035406b97af000000006a47304402202ddd003213e0175c63c614405e9ea853f4709c03cf071a5a2dbfc99c3bfe0f00022031ceba64ecc95c9273c41b9aa6d29f05d0885ec748172e2295d70762eb16832d0121030b8d2ed90e31b14ec7826beb785548be19c41729e1d80d75a79b8322c9d1c270ffffffff60304cb5c6f23c37e68f20a7bbf838fcf7fd5b44d62be52ef95c0b369723ffe1000000006b483045022100e90ecf6dc0655ed80b13ad6049dd5dc73759a4e2eb52ef937823d98abe31a10c02205cd2c95467f96550a898f4de66744cee969d3c563fc651eb75ccbfb310b92fa801210386e80e6cbeb010d8dc87cb29f682b18eb0bf112a590d1cd0bb48b0fa4bdfe473ffffffff022b990100000000001976a914cae8dc378aff637a103ac3193e6a8bc9276eddd488acc0cd1700000000001976a91484020ab9f4b7b5dc98356b58e2e5ec98ea39e22a88ac00000000", "vin": [{"sequence": 4294967295, "scriptSig": {"hex": "473044022049f312c8bbda83cae621de97feaa09774c12f4975224d5f4df87238b25a1e7f302205409150199c05fa705fc27bb14f2badf70b823104d3fb67618df38960533c65401210263efe2a797b20dc16e4f8003e423df0a4955f8864059a8498bb1e2666e43de86", "asm": "3044022049f312c8bbda83cae621de97feaa09774c12f4975224d5f4df87238b25a1e7f302205409150199c05fa705fc27bb14f2badf70b823104d3fb67618df38960533c654[ALL] 0263efe2a797b20dc16e4f8003e423df0a4955f8864059a8498bb1e2666e43de86"}, "vout": 12, "txid": "0dacf5a807a7e7c48e7008e351c34e875b220a4ed07666d40f3da259d1982772"}, {"sequence": 4294967295, "scriptSig": {"hex": "483045022100dcd576f7c876372c3607f8a32abaa7fd5d52c2357e54469c809d22a78d7e61ec02201854c6be326fd6234b7a6d53872fd2d7852aff38b4ef2c4d3bf5ed9eb89d1571012103ee3aa9c28d491a45589e332fc8772337722cc0635417a70a548af3ccfdee6b72", "asm": "3045022100dcd576f7c876372c3607f8a32abaa7fd5d52c2357e54469c809d22a78d7e61ec02201854c6be326fd6234b7a6d53872fd2d7852aff38b4ef2c4d3bf5ed9eb89d1571[ALL] 03ee3aa9c28d491a45589e332fc8772337722cc0635417a70a548af3ccfdee6b72"}, "vout": 0, "txid": "169c662b9290cb7e6b681ba484d419a366f53cab63a3690b1755d11db5a3c1d4"}, {"sequence": 4294967295, "scriptSig": {"hex": "483045022100e06197c409f66f5bbefc2db9c1baca97cc33429674c6d1a65b27b2ccc53e331402205f65a6d3753f52c6135f9dbbae4c1d291f93c4955beec97a7c2d242dcd2fbf070121033ff0881ad15a24525089c9c5b2e478f4a8349fae3af46d590dcb5ef508382186", "asm": "3045022100e06197c409f66f5bbefc2db9c1baca97cc33429674c6d1a65b27b2ccc53e331402205f65a6d3753f52c6135f9dbbae4c1d291f93c4955beec97a7c2d242dcd2fbf07[ALL] 033ff0881ad15a24525089c9c5b2e478f4a8349fae3af46d590dcb5ef508382186"}, "vout": 1, "txid": "1acd179081f9c2851b379953f3173c5cc82448e848e0a6ab11bdec787947f88e"}, {"sequence": 4294967295, "scriptSig": {"hex": "483045022100cba52cc76c2639eb69d9e56560dc49b1cea2cddd0e97ff86722bf12d9a656ad0022061d3925fa7b5b81ea707bb987694884be2ec092e89ae7841279d8e7148c080ff012103ef89cfc53ae47e83bcf298e4aeded183ca75f9abe4933a6c764dffdec25cb346", "asm": "3045022100cba52cc76c2639eb69d9e56560dc49b1cea2cddd0e97ff86722bf12d9a656ad0022061d3925fa7b5b81ea707bb987694884be2ec092e89ae7841279d8e7148c080ff[ALL] 03ef89cfc53ae47e83bcf298e4aeded183ca75f9abe4933a6c764dffdec25cb346"}, "vout": 12, "txid": "2e7ce1d3bdff9717447b815c1965aca059302057f122d3b9fcfdbb236686c12c"}, {"sequence": 4294967295, "scriptSig": {"hex": "483045022100cb28d44e51fb1f1f3557a81c7a7a6a581abbd9519886d22446adfc44e965adb8022010049d0faa3d798128f1062594b25c693d9d0a4868e48ddf7d4b7501256adb130121033112a73b4a99e9eba92ae6aed413f33db9e72b0ac082d244e1b4901d2a9e833d", "asm": "3045022100cb28d44e51fb1f1f3557a81c7a7a6a581abbd9519886d22446adfc44e965adb8022010049d0faa3d798128f1062594b25c693d9d0a4868e48ddf7d4b7501256adb13[ALL] 033112a73b4a99e9eba92ae6aed413f33db9e72b0ac082d244e1b4901d2a9e833d"}, "vout": 1, "txid": "2ef41d603273467ab121c14d8471e3d0b3c1c3840893c8869e4d9f992c72b6c6"}, {"sequence": 4294967295, "scriptSig": {"hex": "473044022035e9dc67f710ec2e493cc99eeaefd63124dfd96d6ecef8e4a710db6981b0233d022043f99bb9cc2777fce865383c8957bc48716cecfb41bf714e745e57d6a22e6bf8012103891fa7605a4c9826bfbd627cddce1ff9f4491fb4200187406079874be96d3159", "asm": "3044022035e9dc67f710ec2e493cc99eeaefd63124dfd96d6ecef8e4a710db6981b0233d022043f99bb9cc2777fce865383c8957bc48716cecfb41bf714e745e57d6a22e6bf8[ALL] 03891fa7605a4c9826bfbd627cddce1ff9f4491fb4200187406079874be96d3159"}, "vout": 1, "txid": "3e066d9b35d51c3c4357a71488e3e88ce437967aa2e25c8ec4ccdd89cd716423"}, {"sequence": 4294967295, "scriptSig": {"hex": "4830450221008f05533b358c9013fad68362f591eeeb1e1e2d6274a080221a123eed73d0ac0c0220100b5b50a65c9b776af4ad173e1eeeaa99730dc1b118987e1d877dfd5ada0365012102af2099cea674d13b89ebddd7ffbe543991ed01f63aa2c61cd95f6fd84759892d", "asm": "30450221008f05533b358c9013fad68362f591eeeb1e1e2d6274a080221a123eed73d0ac0c0220100b5b50a65c9b776af4ad173e1eeeaa99730dc1b118987e1d877dfd5ada0365[ALL] 02af2099cea674d13b89ebddd7ffbe543991ed01f63aa2c61cd95f6fd84759892d"}, "vout": 1, "txid": "684b0f4c9b3f496de7dac975f36a569ffe64291e2846e7e82a0ecdc68ae11468"}, {"sequence": 4294967295, "scriptSig": {"hex": "483045022100d273a00e08aae763c775568419a3db12f773760666c3e447a490102b9f622c2702202237f832ecd4aff02b57588e0790bb1cbbf1f3a18435a4127227b9cc84f87c3901210358267e97c250102a2284cdb20b4338eb1e7e2f5ad01fc3e289b0dea62e869453", "asm": "3045022100d273a00e08aae763c775568419a3db12f773760666c3e447a490102b9f622c2702202237f832ecd4aff02b57588e0790bb1cbbf1f3a18435a4127227b9cc84f87c39[ALL] 0358267e97c250102a2284cdb20b4338eb1e7e2f5ad01fc3e289b0dea62e869453"}, "vout": 0, "txid": "765d389183541733511c405e160da9dcd024cf6b1eb524f5aa45aed50fd43cee"}, {"sequence": 4294967295, "scriptSig": {"hex": "483045022100bdc33a7f3824f977cfcf2a6fd9ea2d4421d1a63e1957d9c0580e0330a4b2aa3a0220432abeb262aa2df5c519d017c320db6955a26439e27aa7e51529a74b3574544e01210237e6c28185392baa9ddc2bb0d3e83d5f803dcaf5f51ba551f4b7df0ce67b5f44", "asm": "3045022100bdc33a7f3824f977cfcf2a6fd9ea2d4421d1a63e1957d9c0580e0330a4b2aa3a0220432abeb262aa2df5c519d017c320db6955a26439e27aa7e51529a74b3574544e[ALL] 0237e6c28185392baa9ddc2bb0d3e83d5f803dcaf5f51ba551f4b7df0ce67b5f44"}, "vout": 0, "txid": "8b39425dff579fe57689313ce606f035f2fb8f5cb19639464dc5485409ac56a5"}, {"sequence": 4294967295, "scriptSig": {"hex": "47304402202ddd003213e0175c63c614405e9ea853f4709c03cf071a5a2dbfc99c3bfe0f00022031ceba64ecc95c9273c41b9aa6d29f05d0885ec748172e2295d70762eb16832d0121030b8d2ed90e31b14ec7826beb785548be19c41729e1d80d75a79b8322c9d1c270", "asm": "304402202ddd003213e0175c63c614405e9ea853f4709c03cf071a5a2dbfc99c3bfe0f00022031ceba64ecc95c9273c41b9aa6d29f05d0885ec748172e2295d70762eb16832d[ALL] 030b8d2ed90e31b14ec7826beb785548be19c41729e1d80d75a79b8322c9d1c270"}, "vout": 0, "txid": "af976b4035d0d7963db875441d579aaba4bf91b6b30744c61523f8768c3ba516"}, {"sequence": 4294967295, "scriptSig": {"hex": "483045022100e90ecf6dc0655ed80b13ad6049dd5dc73759a4e2eb52ef937823d98abe31a10c02205cd2c95467f96550a898f4de66744cee969d3c563fc651eb75ccbfb310b92fa801210386e80e6cbeb010d8dc87cb29f682b18eb0bf112a590d1cd0bb48b0fa4bdfe473", "asm": "3045022100e90ecf6dc0655ed80b13ad6049dd5dc73759a4e2eb52ef937823d98abe31a10c02205cd2c95467f96550a898f4de66744cee969d3c563fc651eb75ccbfb310b92fa8[ALL] 0386e80e6cbeb010d8dc87cb29f682b18eb0bf112a590d1cd0bb48b0fa4bdfe473"}, "vout": 0, "txid": "e1ff2397360b5cf92ee52bd6445bfdf7fc38f8bba7208fe6373cf2c6b54c3060"}], "txid": "699ebbbba3b2f48ad42038c400f0c5bf089a96b99217b473497d0cfc69e8d126", "blocktime": 1537870564, "version": 1, "confirmations": 11515, "time": 1537870564, "locktime": 0, "vsize": 1703, "size": 1703}