{"hash": "699e75ec542da77b61a63bac4d6cb4d74d58164e4679213cee76af07ac69b00c", "blockhash": "00000000000000000024a2167bbff67b0be802c0b01cdd79e6331c2be6459f87", "vout": [{"scriptPubKey": {"reqSigs": 1, "hex": "76a914a76fca05bb83784fc0baac53620060cfd044edb688ac", "addresses": ["1GGKmHMcSY8av5tF7UgEi1uCdozms4LDMt"], "asm": "OP_DUP OP_HASH160 a76fca05bb83784fc0baac53620060cfd044edb6 OP_EQUALVERIFY OP_CHECKSIG", "type": "pubkeyhash"}, "value": 0.87897878, "n": 0}, {"scriptPubKey": {"reqSigs": 1, "hex": "76a91498361841832ab028e360b19a2a6f32d62612f69f88ac", "addresses": ["1EspWjBi2mwLUyoigSSATatWJ6RZKjm77Q"], "asm": "OP_DUP OP_HASH160 98361841832ab028e360b19a2a6f32d62612f69f OP_EQUALVERIFY OP_CHECKSIG", "type": "pubkeyhash"}, "value": 0.951295, "n": 1}], "hex": "0100000001fca57c38742ddd4c41193caf251ecc9fbfedbb1845b172a69a0876f2975f98ac010000006a473044022067947f7033ebf39488347ed7294d5222a3a8791e5fb16939bd0eda70dc9493470220182f27d59c4f14a7cfa0d80ce1cf25ff86a09f50fc53b0e387bdd467f04ab2ce012103c7deb804c1be4f4296f9ada3d9b33372786bdb67e4d3a88e410878996d419b6effffffff0216373d05000000001976a914a76fca05bb83784fc0baac53620060cfd044edb688ac9c8fab05000000001976a91498361841832ab028e360b19a2a6f32d62612f69f88ac00000000", "vin": [{"sequence": 4294967295, "scriptSig": {"hex": "473044022067947f7033ebf39488347ed7294d5222a3a8791e5fb16939bd0eda70dc9493470220182f27d59c4f14a7cfa0d80ce1cf25ff86a09f50fc53b0e387bdd467f04ab2ce012103c7deb804c1be4f4296f9ada3d9b33372786bdb67e4d3a88e410878996d419b6e", "asm": "3044022067947f7033ebf39488347ed7294d5222a3a8791e5fb16939bd0eda70dc9493470220182f27d59c4f14a7cfa0d80ce1cf25ff86a09f50fc53b0e387bdd467f04ab2ce[ALL] 03c7deb804c1be4f4296f9ada3d9b33372786bdb67e4d3a88e410878996d419b6e"}, "vout": 1, "txid": "ac985f97f276089aa672b14518bbedbf9fcc1e25af3c19414cdd2d74387ca5fc"}], "txid": "699e75ec542da77b61a63bac4d6cb4d74d58164e4679213cee76af07ac69b00c", "blocktime": 1537870564, "version": 1, "confirmations": 11515, "time": 1537870564, "locktime": 0, "vsize": 225, "size": 225}