{"hash": "69a4ea3e2df762543586efc196803853d4d9b8395769616a00aa045771996d18", "blockhash": "0000000000000000000baef3f32e3676a92c3b2e5da21b426e4f302fc371ce76", "vout": [{"scriptPubKey": {"reqSigs": 1, "hex": "a914648171497971fa1894047fc2ec8a24565ab798d887", "addresses": ["3ArSZYvj9Q1haQWo6ZSAsYYFHTJ2ToVEuX"], "asm": "OP_HASH160 648171497971fa1894047fc2ec8a24565ab798d8 OP_EQUAL", "type": "scripthash"}, "value": 0.06369061, "n": 0}], "hex": "0100000001b597493541f36723765362d8d4824582e42dfd414f02234cfbd662503469f751000000006b483045022100a21ddf2f252d99fa3280a6d6bb6821f18ed562fa322011ca0783e103c961b38302202666d7180ef6cc26790ed156ae7e20d10dfd63a9ee078a40c26f4d3a5bcd2999012103d6a18b1ecdcd6bf0ae4c1c6caf0d15372d3b9d53fd9c58df14379a1d7e8aac85ffffffff01252f61000000000017a914648171497971fa1894047fc2ec8a24565ab798d88700000000", "vin": [{"sequence": 4294967295, "scriptSig": {"hex": "483045022100a21ddf2f252d99fa3280a6d6bb6821f18ed562fa322011ca0783e103c961b38302202666d7180ef6cc26790ed156ae7e20d10dfd63a9ee078a40c26f4d3a5bcd2999012103d6a18b1ecdcd6bf0ae4c1c6caf0d15372d3b9d53fd9c58df14379a1d7e8aac85", "asm": "3045022100a21ddf2f252d99fa3280a6d6bb6821f18ed562fa322011ca0783e103c961b38302202666d7180ef6cc26790ed156ae7e20d10dfd63a9ee078a40c26f4d3a5bcd2999[ALL] 03d6a18b1ecdcd6bf0ae4c1c6caf0d15372d3b9d53fd9c58df14379a1d7e8aac85"}, "vout": 0, "txid": "51f769345062d6fb4c23024f41fd2de4824582d4d86253762367f341354997b5"}], "txid": "69a4ea3e2df762543586efc196803853d4d9b8395769616a00aa045771996d18", "blocktime": 1537876114, "version": 1, "confirmations": 11460, "time": 1537876114, "locktime": 0, "vsize": 190, "size": 190}