{"hash": "a35621f402f8e62ca83951ef16d793c067794636ed960dd078efc3db375a0462", "blockhash": "00000000000000000024a2167bbff67b0be802c0b01cdd79e6331c2be6459f87", "vout": [{"scriptPubKey": {"type": "nulldata", "hex": "6a146f6d6e69000000000000001f0000000240607d80", "asm": "OP_RETURN 6f6d6e69000000000000001f0000000240607d80"}, "value": 0.0, "n": 0}, {"scriptPubKey": {"reqSigs": 1, "hex": "a914e818e90b8e6b38dba66f74b35cb708bbc73e2ea787", "addresses": ["3NrEXrB9qAxXYfRt6jKtBD8QzoU2qtNWDR"], "asm": "OP_HASH160 e818e90b8e6b38dba66f74b35cb708bbc73e2ea7 OP_EQUAL", "type": "scripthash"}, "value": 2.73e-05, "n": 1}, {"scriptPubKey": {"reqSigs": 1, "hex": "a914e818e90b8e6b38dba66f74b35cb708bbc73e2ea787", "addresses": ["3NrEXrB9qAxXYfRt6jKtBD8QzoU2qtNWDR"], "asm": "OP_HASH160 e818e90b8e6b38dba66f74b35cb708bbc73e2ea7 OP_EQUAL", "type": "scripthash"}, "value": 0.24346366, "n": 2}], "hex": "010000000001025391acf2326c0d24959ecbf59768d3ab941d3d329fed9c34016bdcaa40bd6b760200000017160014c35b986144945405c1913e282695c0c6f16bf606ffffffff53ed48d88d6c1022fc39721335d7b8ebd72e416c74f826b29ff33379b41e80083e00000017160014beabf1bd3941d274756b39fe1c7fa2d36c4c3602ffffffff030000000000000000166a146f6d6e69000000000000001f0000000240607d80aa0a00000000000017a914e818e90b8e6b38dba66f74b35cb708bbc73e2ea787fe7e73010000000017a914e818e90b8e6b38dba66f74b35cb708bbc73e2ea7870248304502210095aff32aa07bf44dc4663f13eee3c7da605c2890e9962b1aec4120af85f60b31022041d3e2356ec58d4a6d84f3eb5da48b44114fb4e86eeb4400a0ad5c434de4df14012103d439a9a02981e858936169654abf206d241ebf19281a20b030862638ecd10c2d0247304402204895c3a0a9012790cdb49c8a6c230bd8d7158cd85b8307a4faf8a5bdea137b4802200a38f867578174be357ed7f35740d9b5e35e269742cdc47389058896bd7f84bf0121038836ee56c0260160727be97234055ce2ec9818c94a48da8191a9568a35356cce00000000", "vin": [{"txinwitness": ["304502210095aff32aa07bf44dc4663f13eee3c7da605c2890e9962b1aec4120af85f60b31022041d3e2356ec58d4a6d84f3eb5da48b44114fb4e86eeb4400a0ad5c434de4df1401", "03d439a9a02981e858936169654abf206d241ebf19281a20b030862638ecd10c2d"], "sequence": 4294967295, "scriptSig": {"hex": "160014c35b986144945405c1913e282695c0c6f16bf606", "asm": "0014c35b986144945405c1913e282695c0c6f16bf606"}, "vout": 2, "txid": "766bbd40aadc6b01349ced9f323d1d94abd36897f5cb9e95240d6c32f2ac9153"}, {"txinwitness": ["304402204895c3a0a9012790cdb49c8a6c230bd8d7158cd85b8307a4faf8a5bdea137b4802200a38f867578174be357ed7f35740d9b5e35e269742cdc47389058896bd7f84bf01", "038836ee56c0260160727be97234055ce2ec9818c94a48da8191a9568a35356cce"], "sequence": 4294967295, "scriptSig": {"hex": "160014beabf1bd3941d274756b39fe1c7fa2d36c4c3602", "asm": "0014beabf1bd3941d274756b39fe1c7fa2d36c4c3602"}, "vout": 62, "txid": "08801eb47933f39fb226f8746c412ed7ebb8d735137239fc22106c8dd848ed53"}], "txid": "69a4bc91e1bcaf9b39a357e9911c18ca8278a82eecbc21e2bc381e770736a367", "blocktime": 1537870564, "version": 1, "confirmations": 11515, "time": 1537870564, "locktime": 0, "vsize": 288, "size": 450}