{"hash": "69ae514b8d484aa6c9e7bc5ce0059ac75ed095ad6ac4001f420421865acdad90", "blockhash": "0000000000000000000baef3f32e3676a92c3b2e5da21b426e4f302fc371ce76", "vout": [{"scriptPubKey": {"type": "nulldata", "hex": "6a4c50000078130001c4b3c78b8c1d11b070a58c7c702940d64fa54d8eb2d19ed074892d00f8e8321ad3a128750cdb18a514faaaf4b02b5baa1baf0614f847230b5c0bbc9a9526289ac0f6612cd74e33776ee4", "asm": "OP_RETURN 000078130001c4b3c78b8c1d11b070a58c7c702940d64fa54d8eb2d19ed074892d00f8e8321ad3a128750cdb18a514faaaf4b02b5baa1baf0614f847230b5c0bbc9a9526289ac0f6612cd74e33776ee4"}, "value": 0.0, "n": 0}, {"scriptPubKey": {"reqSigs": 1, "hex": "76a914982fa03ed1e880b6c009b58c38b99626f279e3f688ac", "addresses": ["1EsgmGY1BuhMSfrmyv51u412jGCh1k8N7d"], "asm": "OP_DUP OP_HASH160 982fa03ed1e880b6c009b58c38b99626f279e3f6 OP_EQUALVERIFY OP_CHECKSIG", "type": "pubkeyhash"}, "value": 0.00096504, "n": 1}], "hex": "0100000001fff0dd76efbb30cb136cea7c1de2fe90c26a56206ae53aaf35deecf5e018c9a3010000006a47304402202ea7b1e0f8e5dc4733bfef840fcdf6fb7a66fe24e46d31eaf4983bbf03657bd402201b44c480385da4b8b3830926177b74129df3f0cdf5e7f12fce32b5f8f20b707401210343c0c21dc562e34befd570a60ea6ffeb1ae858080d2ae96eaadf193e62f6a9f8ffffffff020000000000000000536a4c50000078130001c4b3c78b8c1d11b070a58c7c702940d64fa54d8eb2d19ed074892d00f8e8321ad3a128750cdb18a514faaaf4b02b5baa1baf0614f847230b5c0bbc9a9526289ac0f6612cd74e33776ee4f8780100000000001976a914982fa03ed1e880b6c009b58c38b99626f279e3f688ac00000000", "vin": [{"sequence": 4294967295, "scriptSig": {"hex": "47304402202ea7b1e0f8e5dc4733bfef840fcdf6fb7a66fe24e46d31eaf4983bbf03657bd402201b44c480385da4b8b3830926177b74129df3f0cdf5e7f12fce32b5f8f20b707401210343c0c21dc562e34befd570a60ea6ffeb1ae858080d2ae96eaadf193e62f6a9f8", "asm": "304402202ea7b1e0f8e5dc4733bfef840fcdf6fb7a66fe24e46d31eaf4983bbf03657bd402201b44c480385da4b8b3830926177b74129df3f0cdf5e7f12fce32b5f8f20b7074[ALL] 0343c0c21dc562e34befd570a60ea6ffeb1ae858080d2ae96eaadf193e62f6a9f8"}, "vout": 1, "txid": "a3c918e0f5ecde35af3ae56a20566ac290fee21d7cea6c13cb30bbef76ddf0ff"}], "txid": "69ae514b8d484aa6c9e7bc5ce0059ac75ed095ad6ac4001f420421865acdad90", "blocktime": 1537876114, "version": 1, "confirmations": 11460, "time": 1537876114, "locktime": 0, "vsize": 283, "size": 283}