{"hash": "43c3539fe3cfe2dd654a4d55476f5a81adcfba304c5bbda118e1e92236a00b25", "blockhash": "0000000000000000001cda96e906b7601b7a6fb1a3b62bca570a9e5d8f4b3de1", "vout": [{"scriptPubKey": {"reqSigs": 1, "hex": "a91469f3773cad80f5f9674413d9e5df8c5a66a49dba87", "addresses": ["3BMEXz33hAm1dvJj78pVDeSRQxDHZE4pQE"], "asm": "OP_HASH160 69f3773cad80f5f9674413d9e5df8c5a66a49dba OP_EQUAL", "type": "scripthash"}, "value": 0.023, "n": 0}, {"scriptPubKey": {"reqSigs": 1, "hex": "a914dee0a1cc9f055700143e0f4ecee53180ab3530dc87", "addresses": ["3N1V2qWA5hpScEmS72pMooYRmXUiLmwPQQ"], "asm": "OP_HASH160 dee0a1cc9f055700143e0f4ecee53180ab3530dc OP_EQUAL", "type": "scripthash"}, "value": 0.87781647, "n": 1}], "hex": "020000000001018bc1de586ef02be9e82126ddc0dd5c0e29e70a1890907b8ccb5d5cf62bf1d7d30100000017160014cb5dbe423de4d42b6425c6921084c6197a5d2937ffffffff02601823000000000017a91469f3773cad80f5f9674413d9e5df8c5a66a49dba870f713b050000000017a914dee0a1cc9f055700143e0f4ecee53180ab3530dc8702483045022100dd7b8a5a1f85d79139dda6d167a8f520501a62b03069bdc76f371de3a092315602201ebe3a52af908427010fadfa45d384cabece18e7f7e5317044fa566ad1d99554012102acecad485eda786cbe0422823b7594aea6854abb5ec85e267f1c4b87f3f758f700000000", "vin": [{"txinwitness": ["3045022100dd7b8a5a1f85d79139dda6d167a8f520501a62b03069bdc76f371de3a092315602201ebe3a52af908427010fadfa45d384cabece18e7f7e5317044fa566ad1d9955401", "02acecad485eda786cbe0422823b7594aea6854abb5ec85e267f1c4b87f3f758f7"], "sequence": 4294967295, "scriptSig": {"hex": "160014cb5dbe423de4d42b6425c6921084c6197a5d2937", "asm": "0014cb5dbe423de4d42b6425c6921084c6197a5d2937"}, "vout": 1, "txid": "d3d7f12bf65c5dcb8c7b9090180ae7290e5cddc0dd2621e8e92bf06e58dec18b"}], "txid": "69b4c0f688211e71694c5f923c6ee98c39a2a42764a2d089b10721892d43a636", "blocktime": 1537873282, "version": 2, "confirmations": 11481, "time": 1537873282, "locktime": 0, "vsize": 166, "size": 248}