{"hash": "ac46e46ec3ec7d5cff851e3d9ddc6664e2c08b7c423abb072c914be20508fc7d", "blockhash": "0000000000000000000e13cef7c366c0283d82e591d1acd082e914b08063cdf1", "vout": [{"scriptPubKey": {"reqSigs": 1, "hex": "76a9142149c6c4f6a5f540f292ba581ae186e9d2a6844b88ac", "addresses": ["1431gQduu19Bw46xuYAprh7d4TUeowTpHt"], "asm": "OP_DUP OP_HASH160 2149c6c4f6a5f540f292ba581ae186e9d2a6844b OP_EQUALVERIFY OP_CHECKSIG", "type": "pubkeyhash"}, "value": 0.00539574, "n": 0}], "hex": "010000000001014130a87a8477cb026da0fa7e180db93f71e15014e22cc80696f5568552348bb401000000171600148cc42cc13455c56b144ff614013b19635325c180ffffffff01b63b0800000000001976a9142149c6c4f6a5f540f292ba581ae186e9d2a6844b88ac0247304402203fa68b41dbd357b9e0e3680b95baff46c8358f1289ac5405e3b101c1e403376b022043532eb2b7ec6381bc9b3ea467c455079692ac5c9ac17d7fbe42becf8296ce9e012102aed2671ba41c29596e2259965e36fd17774cb5493825f8b2b63867ee45471dce00000000", "vin": [{"txinwitness": ["304402203fa68b41dbd357b9e0e3680b95baff46c8358f1289ac5405e3b101c1e403376b022043532eb2b7ec6381bc9b3ea467c455079692ac5c9ac17d7fbe42becf8296ce9e01", "02aed2671ba41c29596e2259965e36fd17774cb5493825f8b2b63867ee45471dce"], "sequence": 4294967295, "scriptSig": {"hex": "1600148cc42cc13455c56b144ff614013b19635325c180", "asm": "00148cc42cc13455c56b144ff614013b19635325c180"}, "vout": 1, "txid": "b48b34528556f59606c82ce21450e1713fb90d187efaa06d02cb77847aa83041"}], "txid": "69b5015450f4aa2688a7f193eed2b697560f23c34510fbf997da3a883fd85a0e", "blocktime": 1537871767, "version": 1, "confirmations": 11495, "time": 1537871767, "locktime": 0, "vsize": 136, "size": 217}