{"hash": "69b602ec71f9dd5f92ef21bf6bba556d425c39f965f56757a1feed750d9783c6", "blockhash": "0000000000000000001cda96e906b7601b7a6fb1a3b62bca570a9e5d8f4b3de1", "vout": [{"scriptPubKey": {"reqSigs": 1, "hex": "76a9143a08b9d37a45611d4317c0c593093a1c113875c788ac", "addresses": ["16HreQr85BfNMBqyHzAo1r3PorTXKw6wX4"], "asm": "OP_DUP OP_HASH160 3a08b9d37a45611d4317c0c593093a1c113875c7 OP_EQUALVERIFY OP_CHECKSIG", "type": "pubkeyhash"}, "value": 0.04064155, "n": 0}], "hex": "0100000004ca33c7aded6f2259ab7f7d25af145557a66b8ce7f7ca3dee8e0045e0264f343d010000006a4730440220636cf04ca80ac708651e72a4b35c87188c9982bf911e29faa64fd742626a151e02203f624931d3bbb3326413ae768370aac58f6eddb9da8a7cd5bee16a902e70b0690121035d926567455c0b3afca03f714fc162a5bea9e6c473b6956745662acb735accb3fdffffffdbc8d8fe91efa28089180932914f509530055459f18f9d0d9149433685c5a082010000006a4730440220575ad89662eba4fcb6ad317e16c63e58c2b5356001b657168108d2ef2226cade022035509db51447b3177b97ff51cd7e7350ef0abbc4d7f076a4c9d5eb27b4fe0a650121035d926567455c0b3afca03f714fc162a5bea9e6c473b6956745662acb735accb3fdffffff9377b94ef4ee598b96c7f236fc24b71c6688c3f09408452dbb37e34b30249993010000006b483045022100a34f6afdcc91e19ce990537bfc0a3c4cc5f40fc1414a71051076d0fc7134346702207b119ef0d4b39f9ae5b4d7140397618b3e3ba7399272bd00eff87ec7e56359250121035d926567455c0b3afca03f714fc162a5bea9e6c473b6956745662acb735accb3fdffffff81641d8b388994ccab26a8c6f4fcd78ede9a32fb8460235aa3e3f880ef15abec000000006a4730440220152e9f66622fdef6f4ba727e0c2a0cb899772d2c7379c66b88bc84a28b38d10d022018f4b92c075198e29804ff49a66f7d1d908740870a43c9e3cd187c718f32cf1e012102d333a0f188b3943b3b3b3b12041cb223929269a6a972a07610ce8aab3971ce99fdffffff019b033e00000000001976a9143a08b9d37a45611d4317c0c593093a1c113875c788ac13490800", "vin": [{"sequence": 4294967293, "scriptSig": {"hex": "4730440220636cf04ca80ac708651e72a4b35c87188c9982bf911e29faa64fd742626a151e02203f624931d3bbb3326413ae768370aac58f6eddb9da8a7cd5bee16a902e70b0690121035d926567455c0b3afca03f714fc162a5bea9e6c473b6956745662acb735accb3", "asm": "30440220636cf04ca80ac708651e72a4b35c87188c9982bf911e29faa64fd742626a151e02203f624931d3bbb3326413ae768370aac58f6eddb9da8a7cd5bee16a902e70b069[ALL] 035d926567455c0b3afca03f714fc162a5bea9e6c473b6956745662acb735accb3"}, "vout": 1, "txid": "3d344f26e045008eee3dcaf7e78c6ba6575514af257d7fab59226fedadc733ca"}, {"sequence": 4294967293, "scriptSig": {"hex": "4730440220575ad89662eba4fcb6ad317e16c63e58c2b5356001b657168108d2ef2226cade022035509db51447b3177b97ff51cd7e7350ef0abbc4d7f076a4c9d5eb27b4fe0a650121035d926567455c0b3afca03f714fc162a5bea9e6c473b6956745662acb735accb3", "asm": "30440220575ad89662eba4fcb6ad317e16c63e58c2b5356001b657168108d2ef2226cade022035509db51447b3177b97ff51cd7e7350ef0abbc4d7f076a4c9d5eb27b4fe0a65[ALL] 035d926567455c0b3afca03f714fc162a5bea9e6c473b6956745662acb735accb3"}, "vout": 1, "txid": "82a0c585364349910d9d8ff15954053095504f913209188980a2ef91fed8c8db"}, {"sequence": 4294967293, "scriptSig": {"hex": "483045022100a34f6afdcc91e19ce990537bfc0a3c4cc5f40fc1414a71051076d0fc7134346702207b119ef0d4b39f9ae5b4d7140397618b3e3ba7399272bd00eff87ec7e56359250121035d926567455c0b3afca03f714fc162a5bea9e6c473b6956745662acb735accb3", "asm": "3045022100a34f6afdcc91e19ce990537bfc0a3c4cc5f40fc1414a71051076d0fc7134346702207b119ef0d4b39f9ae5b4d7140397618b3e3ba7399272bd00eff87ec7e5635925[ALL] 035d926567455c0b3afca03f714fc162a5bea9e6c473b6956745662acb735accb3"}, "vout": 1, "txid": "939924304be337bb2d450894f0c388661cb724fc36f2c7968b59eef44eb97793"}, {"sequence": 4294967293, "scriptSig": {"hex": "4730440220152e9f66622fdef6f4ba727e0c2a0cb899772d2c7379c66b88bc84a28b38d10d022018f4b92c075198e29804ff49a66f7d1d908740870a43c9e3cd187c718f32cf1e012102d333a0f188b3943b3b3b3b12041cb223929269a6a972a07610ce8aab3971ce99", "asm": "30440220152e9f66622fdef6f4ba727e0c2a0cb899772d2c7379c66b88bc84a28b38d10d022018f4b92c075198e29804ff49a66f7d1d908740870a43c9e3cd187c718f32cf1e[ALL] 02d333a0f188b3943b3b3b3b12041cb223929269a6a972a07610ce8aab3971ce99"}, "vout": 0, "txid": "ecab15ef80f8e3a35a236084fb329ade8ed7fcf4c6a826abcc9489388b1d6481"}], "txid": "69b602ec71f9dd5f92ef21bf6bba556d425c39f965f56757a1feed750d9783c6", "blocktime": 1537873282, "version": 1, "confirmations": 11481, "time": 1537873282, "locktime": 542995, "vsize": 633, "size": 633}