{"hash": "69b70ee46c577610a0d752ad6395fb3f82c2c77cc973191764399a09e65816b2", "blockhash": "0000000000000000001f76057863aec43deb6fa401d9628bb513d65a8098bfab", "vout": [{"scriptPubKey": {"reqSigs": 1, "hex": "76a91480ecd263c509dd8ccdcf5aa85be0155d8062fa9f88ac", "addresses": ["1CkhCDz2nmk6f5ekDGL1zXWhZJYt2LV5Fv"], "asm": "OP_DUP OP_HASH160 80ecd263c509dd8ccdcf5aa85be0155d8062fa9f OP_EQUALVERIFY OP_CHECKSIG", "type": "pubkeyhash"}, "value": 6.626e-05, "n": 0}, {"scriptPubKey": {"reqSigs": 1, "hex": "76a91480b3acddb74d4c11b611df78f17f3c47938057e888ac", "addresses": ["1CjWjcPLUtapNtc2Xsh3Za6vQom8SqrLsE"], "asm": "OP_DUP OP_HASH160 80b3acddb74d4c11b611df78f17f3c47938057e8 OP_EQUALVERIFY OP_CHECKSIG", "type": "pubkeyhash"}, "value": 0.00952036, "n": 1}], "hex": "0100000004eb8962c46b7e280fbbf804f334db1be701d08550cab48883736726a6dd7c7831000000006b4830450221009de05ada06db0e370f319699833f9538bc14e57710a0fc1987118885e78cb96f02201fdc371dcbdf46e3c843a93f12487694c4d2760dee876aee42e64d6a6199287b0121036f9c1a1ce90a61ca358211ec5eb643695dfca80752feffb168d52923ddae89d0ffffffffd265a96f184e8e856859de48c2f4c00cdc8ac68737db4df74a6be96085d61e45000000006a47304402206305a385a545251ad671a1e453b7fc05d8e30c2476096a675efd85cb6f300a8c022049174419b69eecd176de6c3becf3dd5debd65960e52627de95d5ebf4851bd99f01210319a0973d8c6b7228ac8909b9cc867b3df3511e64246d5d9048e4dd2105670d84ffffffffae47aba31a786d1c16c8c69bf69f5ab55264908ed3af8c417036aa2bfed92647040000006a4730440220749ede475ec2547026a8b60f5038e05927f45a69697a924326f2645f469619ac022065a0e1b62b7ec4a93005109b6c7ef307be2652938725eb8721b88f15a28828f701210264ecf8db0eadfe0e429354cb9c6c189398de1d6434ad4260d5aa0d8b4a04b956ffffffffab88b02ae2bd709d9fb4c3ce7e7d0770a9d5789a0477ca82ca3662cd054713a0050000006b483045022100df7aee79a75111af1cd38cf9c963052a09f4a64b6e7db85abd6aa1a7fbf8a7d402206afd569e3c32eb3322d796b7cec718ce482ada5002fadeb739585508859a69520121035a13811107f71b5d6e556445524369d9e964c5644ba41190fc4e9f3e8076a841ffffffff02e2190000000000001976a91480ecd263c509dd8ccdcf5aa85be0155d8062fa9f88ace4860e00000000001976a91480b3acddb74d4c11b611df78f17f3c47938057e888ac00000000", "vin": [{"sequence": 4294967295, "scriptSig": {"hex": "4830450221009de05ada06db0e370f319699833f9538bc14e57710a0fc1987118885e78cb96f02201fdc371dcbdf46e3c843a93f12487694c4d2760dee876aee42e64d6a6199287b0121036f9c1a1ce90a61ca358211ec5eb643695dfca80752feffb168d52923ddae89d0", "asm": "30450221009de05ada06db0e370f319699833f9538bc14e57710a0fc1987118885e78cb96f02201fdc371dcbdf46e3c843a93f12487694c4d2760dee876aee42e64d6a6199287b[ALL] 036f9c1a1ce90a61ca358211ec5eb643695dfca80752feffb168d52923ddae89d0"}, "vout": 0, "txid": "31787cdda62667738388b4ca5085d001e71bdb34f304f8bb0f287e6bc46289eb"}, {"sequence": 4294967295, "scriptSig": {"hex": "47304402206305a385a545251ad671a1e453b7fc05d8e30c2476096a675efd85cb6f300a8c022049174419b69eecd176de6c3becf3dd5debd65960e52627de95d5ebf4851bd99f01210319a0973d8c6b7228ac8909b9cc867b3df3511e64246d5d9048e4dd2105670d84", "asm": "304402206305a385a545251ad671a1e453b7fc05d8e30c2476096a675efd85cb6f300a8c022049174419b69eecd176de6c3becf3dd5debd65960e52627de95d5ebf4851bd99f[ALL] 0319a0973d8c6b7228ac8909b9cc867b3df3511e64246d5d9048e4dd2105670d84"}, "vout": 0, "txid": "451ed68560e96b4af74ddb3787c68adc0cc0f4c248de5968858e4e186fa965d2"}, {"sequence": 4294967295, "scriptSig": {"hex": "4730440220749ede475ec2547026a8b60f5038e05927f45a69697a924326f2645f469619ac022065a0e1b62b7ec4a93005109b6c7ef307be2652938725eb8721b88f15a28828f701210264ecf8db0eadfe0e429354cb9c6c189398de1d6434ad4260d5aa0d8b4a04b956", "asm": "30440220749ede475ec2547026a8b60f5038e05927f45a69697a924326f2645f469619ac022065a0e1b62b7ec4a93005109b6c7ef307be2652938725eb8721b88f15a28828f7[ALL] 0264ecf8db0eadfe0e429354cb9c6c189398de1d6434ad4260d5aa0d8b4a04b956"}, "vout": 4, "txid": "4726d9fe2baa3670418cafd38e906452b55a9ff69bc6c8161c6d781aa3ab47ae"}, {"sequence": 4294967295, "scriptSig": {"hex": "483045022100df7aee79a75111af1cd38cf9c963052a09f4a64b6e7db85abd6aa1a7fbf8a7d402206afd569e3c32eb3322d796b7cec718ce482ada5002fadeb739585508859a69520121035a13811107f71b5d6e556445524369d9e964c5644ba41190fc4e9f3e8076a841", "asm": "3045022100df7aee79a75111af1cd38cf9c963052a09f4a64b6e7db85abd6aa1a7fbf8a7d402206afd569e3c32eb3322d796b7cec718ce482ada5002fadeb739585508859a6952[ALL] 035a13811107f71b5d6e556445524369d9e964c5644ba41190fc4e9f3e8076a841"}, "vout": 5, "txid": "a0134705cd6236ca82ca77049a78d5a970077d7ecec3b49f9d70bde22ab088ab"}], "txid": "69b70ee46c577610a0d752ad6395fb3f82c2c77cc973191764399a09e65816b2", "blocktime": 1537873891, "version": 1, "confirmations": 11478, "time": 1537873891, "locktime": 0, "vsize": 668, "size": 668}