{"hash": "69b89f698303621177d5ed5462895240cc3c6e012d05eb4fd1d26c7dd53605e7", "blockhash": "0000000000000000001f76057863aec43deb6fa401d9628bb513d65a8098bfab", "vout": [{"scriptPubKey": {"reqSigs": 1, "hex": "76a914882cc4f54c2ea08d18892bb11ab27fc43e466e7188ac", "addresses": ["1DR2XiiEjs91cTtp1LxyqEKm5ihNABmRZ7"], "asm": "OP_DUP OP_HASH160 882cc4f54c2ea08d18892bb11ab27fc43e466e71 OP_EQUALVERIFY OP_CHECKSIG", "type": "pubkeyhash"}, "value": 0.11098606, "n": 0}, {"scriptPubKey": {"type": "nulldata", "hex": "6a146f6d6e69000000000000001f0000000038074300", "asm": "OP_RETURN 6f6d6e69000000000000001f0000000038074300"}, "value": 0.0, "n": 1}, {"scriptPubKey": {"reqSigs": 1, "hex": "76a9143c4f86bb2d18c19f0afde122b645b9867df787d688ac", "addresses": ["16Vtp6RnFtc89PHhoiWBVeEf7VyNHn3gQA"], "asm": "OP_DUP OP_HASH160 3c4f86bb2d18c19f0afde122b645b9867df787d6 OP_EQUALVERIFY OP_CHECKSIG", "type": "pubkeyhash"}, "value": 5.46e-06, "n": 2}], "hex": "0100000001fc5c399fbaf5601d0f0dc1887916bc11168ee642a5c260e0a3f2e30d98095ec7020000006b483045022100ec6111526bc30635f3e1fd294840d39a74054d254d30c6af7808ac361201ad2202205550505b070f251a0aa5fcbc64b3da2cf5daf54745a90bb9ddca0c15cf8c8977012102d7800c61a710c2c233322b2fbdcbbd492c162678a6cf6e859c3b7322e14189eefeffffff03ee59a900000000001976a914882cc4f54c2ea08d18892bb11ab27fc43e466e7188ac0000000000000000166a146f6d6e69000000000000001f000000003807430022020000000000001976a9143c4f86bb2d18c19f0afde122b645b9867df787d688ac14490800", "vin": [{"sequence": 4294967294, "scriptSig": {"hex": "483045022100ec6111526bc30635f3e1fd294840d39a74054d254d30c6af7808ac361201ad2202205550505b070f251a0aa5fcbc64b3da2cf5daf54745a90bb9ddca0c15cf8c8977012102d7800c61a710c2c233322b2fbdcbbd492c162678a6cf6e859c3b7322e14189ee", "asm": "3045022100ec6111526bc30635f3e1fd294840d39a74054d254d30c6af7808ac361201ad2202205550505b070f251a0aa5fcbc64b3da2cf5daf54745a90bb9ddca0c15cf8c8977[ALL] 02d7800c61a710c2c233322b2fbdcbbd492c162678a6cf6e859c3b7322e14189ee"}, "vout": 2, "txid": "c75e09980de3f2a3e060c2a542e68e1611bc167988c10d0f1d60f5ba9f395cfc"}], "txid": "69b89f698303621177d5ed5462895240cc3c6e012d05eb4fd1d26c7dd53605e7", "blocktime": 1537873891, "version": 1, "confirmations": 11474, "time": 1537873891, "locktime": 542996, "vsize": 257, "size": 257}