{"hash": "d5332e4ab3ea709d9c3256b3ae49282676b08eda55417d112d65a44b17d2cec1", "blockhash": "0000000000000000000e13cef7c366c0283d82e591d1acd082e914b08063cdf1", "vout": [{"scriptPubKey": {"reqSigs": 1, "hex": "76a9140a5a31f903a29ff778441b28ccb967ced20cabc388ac", "addresses": ["1wjontBT3csc6JHP35YmmVknSnq8x3NmT"], "asm": "OP_DUP OP_HASH160 0a5a31f903a29ff778441b28ccb967ced20cabc3 OP_EQUALVERIFY OP_CHECKSIG", "type": "pubkeyhash"}, "value": 0.01819797, "n": 0}, {"scriptPubKey": {"reqSigs": 1, "hex": "00145862b392eda8527736771a59a0eb0e39f61a45b2", "addresses": ["bc1qtp3t8yhd4pf8wdnhrfv6p6cw88mp53djxg2ewv"], "asm": "0 5862b392eda8527736771a59a0eb0e39f61a45b2", "type": "witness_v0_keyhash"}, "value": 0.98193274, "n": 1}], "hex": "02000000000101a71b106d1c314b3ca24e2c10e6f0f6eb681ada496f4889fe0e3b2ec86f9af62f000000001716001445962ca81dd48601ee59983a8315501e93aa26b7ffffffff0295c41b00000000001976a9140a5a31f903a29ff778441b28ccb967ced20cabc388ac7a4fda05000000001600145862b392eda8527736771a59a0eb0e39f61a45b20247304402202d1dbb3800280e79916da2b077e285a122c0e5c8511ae5737930db71221c259002204bf194223f42871bd296c481c2b61358ab70cec3723248fef65add017dbd2943012102968bc36a908a73980ce5d5b0254bc378a69ad47b96eeaf9dac9bf831d959ad6d00000000", "vin": [{"txinwitness": ["304402202d1dbb3800280e79916da2b077e285a122c0e5c8511ae5737930db71221c259002204bf194223f42871bd296c481c2b61358ab70cec3723248fef65add017dbd294301", "02968bc36a908a73980ce5d5b0254bc378a69ad47b96eeaf9dac9bf831d959ad6d"], "sequence": 4294967295, "scriptSig": {"hex": "16001445962ca81dd48601ee59983a8315501e93aa26b7", "asm": "001445962ca81dd48601ee59983a8315501e93aa26b7"}, "vout": 0, "txid": "2ff69a6fc82e3b0efe89486f49da1a68ebf6f0e6102c4ea23c4b311c6d101ba7"}], "txid": "69b9fdf8dbeed22a0e198bdaf00b2b491c806664f9ff5b0092c64c3c63d1bc52", "blocktime": 1537871767, "version": 2, "confirmations": 11492, "time": 1537871767, "locktime": 0, "vsize": 167, "size": 248}