{"hash": "c779940ecfa68c08b04bd4df63a43f9a96398bc835e5b18511778ec53e8f014b", "blockhash": "0000000000000000000dcc0f55137456b1a82d3642486a52398922ac4d620174", "vout": [{"scriptPubKey": {"reqSigs": 1, "hex": "a914b3b5e74f8774607025dfdb0dfd3b20828ba34c7d87", "addresses": ["3J5EnmA4q2zv3cEdVgLjKPFAC5jd7GPh6v"], "asm": "OP_HASH160 b3b5e74f8774607025dfdb0dfd3b20828ba34c7d OP_EQUAL", "type": "scripthash"}, "value": 0.01254997, "n": 0}, {"scriptPubKey": {"reqSigs": 1, "hex": "76a914addf87ae6527215a28a5f37b2ab46b13d94b00a688ac", "addresses": ["1GrMgKmr32j6qhtoEdvmrjU5aSXAbBeWVt"], "asm": "OP_DUP OP_HASH160 addf87ae6527215a28a5f37b2ab46b13d94b00a6 OP_EQUALVERIFY OP_CHECKSIG", "type": "pubkeyhash"}, "value": 0.42552, "n": 1}], "hex": "02000000000102b21eb0b06e42f6de39ddc00b1f8050ea4959f4c9da8bcb5dc24b15a5dda76dc50000000017160014e8c84958ce99265103499d02c601b7d6e7928fa5feffffffd1074b227e090dbaffe3c19313e70a2ccf4e921aa48561af9288edf2616c353500000000171600146140b41efcc700a0bc8b559283867f78158be711feffffff02552613000000000017a914b3b5e74f8774607025dfdb0dfd3b20828ba34c7d87c04a8902000000001976a914addf87ae6527215a28a5f37b2ab46b13d94b00a688ac02473044022021dfe3672052a5048405807c93bca38c00e11bace109e3f44b4c48b361c4899102207d2fae6a62bbd16f37ae7f2d25ecde02bd60984ad1dfa469abd0960122a1d70c012102e33baf24a2e34e8490b3d259ce9f338f0829ccb390450444845358597566d68d02473044022070271592cff74cbec8020d017af3310479ea7336cb7c3c80a833eb9487b3df440220381a02f5b55a6eed13c08937770a6efd1e883f592ec737e77ddabd56a961785b012103f9706f8b867a41f98b29e7cd4fafb13a8ae0864ee4331de5bdbca0bb6f16f7ae0c490800", "vin": [{"txinwitness": ["3044022021dfe3672052a5048405807c93bca38c00e11bace109e3f44b4c48b361c4899102207d2fae6a62bbd16f37ae7f2d25ecde02bd60984ad1dfa469abd0960122a1d70c01", "02e33baf24a2e34e8490b3d259ce9f338f0829ccb390450444845358597566d68d"], "sequence": 4294967294, "scriptSig": {"hex": "160014e8c84958ce99265103499d02c601b7d6e7928fa5", "asm": "0014e8c84958ce99265103499d02c601b7d6e7928fa5"}, "vout": 0, "txid": "c56da7dda5154bc25dcb8bdac9f45949ea50801f0bc0dd39def6426eb0b01eb2"}, {"txinwitness": ["3044022070271592cff74cbec8020d017af3310479ea7336cb7c3c80a833eb9487b3df440220381a02f5b55a6eed13c08937770a6efd1e883f592ec737e77ddabd56a961785b01", "03f9706f8b867a41f98b29e7cd4fafb13a8ae0864ee4331de5bdbca0bb6f16f7ae"], "sequence": 4294967294, "scriptSig": {"hex": "1600146140b41efcc700a0bc8b559283867f78158be711", "asm": "00146140b41efcc700a0bc8b559283867f78158be711"}, "vout": 0, "txid": "35356c61f2ed8892af6185a41a924ecf2c0ae71393c1e3ffba0d097e224b07d1"}], "txid": "69c29fc5da70f40a92676c94c805315bb7a1966c32a25b53bc1e000d7b265c54", "blocktime": 1537870268, "version": 2, "confirmations": 11518, "time": 1537870268, "locktime": 542988, "vsize": 258, "size": 420}