{"hash": "69c39e60fbe3d584511d569d701eda3b2b599ecf7fc50ba2853ef89bcb347f53", "blockhash": "0000000000000000000baef3f32e3676a92c3b2e5da21b426e4f302fc371ce76", "vout": [{"scriptPubKey": {"reqSigs": 1, "hex": "76a91468330a4fd4e1eef9a2e0ae15c2cc4fb7db322c6588ac", "addresses": ["1AVxRHtiATPsEw6cL1grMCBXNPwxqkUNGJ"], "asm": "OP_DUP OP_HASH160 68330a4fd4e1eef9a2e0ae15c2cc4fb7db322c65 OP_EQUALVERIFY OP_CHECKSIG", "type": "pubkeyhash"}, "value": 0.0011386, "n": 0}, {"scriptPubKey": {"type": "nulldata", "hex": "6a4c500000782200017cdcad2d95c4798fc698134b019d6ddc0f1b8ff117702940d64fa54d8eb21b66e7736205396f49b98d72f7e7af165baa1d97061451c8c779c6dfbc9a9526289ac0f6612cd74e33776ee4", "asm": "OP_RETURN 0000782200017cdcad2d95c4798fc698134b019d6ddc0f1b8ff117702940d64fa54d8eb21b66e7736205396f49b98d72f7e7af165baa1d97061451c8c779c6dfbc9a9526289ac0f6612cd74e33776ee4"}, "value": 0.0, "n": 1}], "hex": "01000000019aabfde929893199a8c2e3af97a45f394a49cb48db3e5e45dcdab2df80af0a5a000000006b483045022100d94e9f3cbe7e9164de9188fb0ce1fc5730c37d70172a16d45d08eab4eb11e62d0220610e354759f35590e6a4fcd98351638d31c72db476d4e5c9b63ff02a10847c3f0121023053e4132b207739e2beb690703406188bed0590fbd97d480e2d1912c907233effffffff02c4bc0100000000001976a91468330a4fd4e1eef9a2e0ae15c2cc4fb7db322c6588ac0000000000000000536a4c500000782200017cdcad2d95c4798fc698134b019d6ddc0f1b8ff117702940d64fa54d8eb21b66e7736205396f49b98d72f7e7af165baa1d97061451c8c779c6dfbc9a9526289ac0f6612cd74e33776ee400000000", "vin": [{"sequence": 4294967295, "scriptSig": {"hex": "483045022100d94e9f3cbe7e9164de9188fb0ce1fc5730c37d70172a16d45d08eab4eb11e62d0220610e354759f35590e6a4fcd98351638d31c72db476d4e5c9b63ff02a10847c3f0121023053e4132b207739e2beb690703406188bed0590fbd97d480e2d1912c907233e", "asm": "3045022100d94e9f3cbe7e9164de9188fb0ce1fc5730c37d70172a16d45d08eab4eb11e62d0220610e354759f35590e6a4fcd98351638d31c72db476d4e5c9b63ff02a10847c3f[ALL] 023053e4132b207739e2beb690703406188bed0590fbd97d480e2d1912c907233e"}, "vout": 0, "txid": "5a0aaf80dfb2dadc455e3edb48cb494a395fa497afe3c2a899318929e9fdab9a"}], "txid": "69c39e60fbe3d584511d569d701eda3b2b599ecf7fc50ba2853ef89bcb347f53", "blocktime": 1537876114, "version": 1, "confirmations": 11461, "time": 1537876114, "locktime": 0, "vsize": 284, "size": 284}