{"hash": "69c464081596727d9d7c7e0f7a10ba6b8954a76baba0d21eb16bb00a71a41d9e", "blockhash": "0000000000000000000dcc0f55137456b1a82d3642486a52398922ac4d620174", "vout": [{"scriptPubKey": {"reqSigs": 1, "hex": "76a91454402119c0ad282b334f4da85e262238b3f0ce3a88ac", "addresses": ["18gUatwjDoFQRWXTJTNNYdWVMgq2e7Un4W"], "asm": "OP_DUP OP_HASH160 54402119c0ad282b334f4da85e262238b3f0ce3a OP_EQUALVERIFY OP_CHECKSIG", "type": "pubkeyhash"}, "value": 0.0095, "n": 0}, {"scriptPubKey": {"reqSigs": 1, "hex": "76a9148f7cd9b20fe5e447aa9be27a659c157fbd7f855b88ac", "addresses": ["1E5hCBtdobrWRfUmKZt8dJYmqhknM1KGCL"], "asm": "OP_DUP OP_HASH160 8f7cd9b20fe5e447aa9be27a659c157fbd7f855b OP_EQUALVERIFY OP_CHECKSIG", "type": "pubkeyhash"}, "value": 0.49787212, "n": 1}], "hex": "010000000156b64ac7140bb463f297c589f2a7e66f4b17a582864dfc84e26a8308459a9d8b010000006a4730440220664ed1751ecb7c984333263a89cbd7759487fc4e0fbdc148762fcf55b48ce4b002205fdcbc4e8b916cc5ae8fcd124c19e42993dca6e82b311412b5e3156093f99fe3012102ee90c5b1615c35602db867427e6d5d528702e1af6eeec65e014bcd46f0fdbb5fffffffff02f07e0e00000000001976a91454402119c0ad282b334f4da85e262238b3f0ce3a88ac4cb1f702000000001976a9148f7cd9b20fe5e447aa9be27a659c157fbd7f855b88ac00000000", "vin": [{"sequence": 4294967295, "scriptSig": {"hex": "4730440220664ed1751ecb7c984333263a89cbd7759487fc4e0fbdc148762fcf55b48ce4b002205fdcbc4e8b916cc5ae8fcd124c19e42993dca6e82b311412b5e3156093f99fe3012102ee90c5b1615c35602db867427e6d5d528702e1af6eeec65e014bcd46f0fdbb5f", "asm": "30440220664ed1751ecb7c984333263a89cbd7759487fc4e0fbdc148762fcf55b48ce4b002205fdcbc4e8b916cc5ae8fcd124c19e42993dca6e82b311412b5e3156093f99fe3[ALL] 02ee90c5b1615c35602db867427e6d5d528702e1af6eeec65e014bcd46f0fdbb5f"}, "vout": 1, "txid": "8b9d9a4508836ae284fc4d8682a5174b6fe6a7f289c597f263b40b14c74ab656"}], "txid": "69c464081596727d9d7c7e0f7a10ba6b8954a76baba0d21eb16bb00a71a41d9e", "blocktime": 1537870268, "version": 1, "confirmations": 11518, "time": 1537870268, "locktime": 0, "vsize": 225, "size": 225}