{"hash": "69c5ee1ceaa77b59bb4494fb65fb724e2471324ea43f9f69d87e51a42d2780e4", "blockhash": "0000000000000000000dcc0f55137456b1a82d3642486a52398922ac4d620174", "vout": [{"scriptPubKey": {"reqSigs": 1, "hex": "a9142d628929b6d43971dbae19d811d8bc0eec9c33fe87", "addresses": ["35pzNZcHKUJrWYvJprNvNh6GZMxE9uC5W4"], "asm": "OP_HASH160 2d628929b6d43971dbae19d811d8bc0eec9c33fe OP_EQUAL", "type": "scripthash"}, "value": 0.0052396, "n": 0}, {"scriptPubKey": {"reqSigs": 1, "hex": "76a9148b2a2ef86537e6a2d1df9e05d791e840a446fd0288ac", "addresses": ["1DgqTdBcFd1EKrhPSJE1rWr2Yg398m6j5W"], "asm": "OP_DUP OP_HASH160 8b2a2ef86537e6a2d1df9e05d791e840a446fd02 OP_EQUALVERIFY OP_CHECKSIG", "type": "pubkeyhash"}, "value": 0.00607684, "n": 1}], "hex": "0100000001db841ae0298d26e2d1ddeecaec334b2fe6dfcb3cdd399b03c2ff3036ad1f76d1000000006b483045022100daadac06617ee0e6cddc028c06caa3d5d155bf0b8e97ec62df979634c86a43480220652ddc482ebb137e68b2d9e63395d270c1ade6391eeec93e84c60032f152e48e0121028d55f593a78c43ea6b4627935e0fb92f06c130fa009b2d9b00af40de2b4ba9aaffffffff02b8fe07000000000017a9142d628929b6d43971dbae19d811d8bc0eec9c33fe87c4450900000000001976a9148b2a2ef86537e6a2d1df9e05d791e840a446fd0288ac00000000", "vin": [{"sequence": 4294967295, "scriptSig": {"hex": "483045022100daadac06617ee0e6cddc028c06caa3d5d155bf0b8e97ec62df979634c86a43480220652ddc482ebb137e68b2d9e63395d270c1ade6391eeec93e84c60032f152e48e0121028d55f593a78c43ea6b4627935e0fb92f06c130fa009b2d9b00af40de2b4ba9aa", "asm": "3045022100daadac06617ee0e6cddc028c06caa3d5d155bf0b8e97ec62df979634c86a43480220652ddc482ebb137e68b2d9e63395d270c1ade6391eeec93e84c60032f152e48e[ALL] 028d55f593a78c43ea6b4627935e0fb92f06c130fa009b2d9b00af40de2b4ba9aa"}, "vout": 0, "txid": "d1761fad3630ffc2039b39dd3ccbdfe62f4b33eccaeeddd1e2268d29e01a84db"}], "txid": "69c5ee1ceaa77b59bb4494fb65fb724e2471324ea43f9f69d87e51a42d2780e4", "blocktime": 1537870268, "version": 1, "confirmations": 11516, "time": 1537870268, "locktime": 0, "vsize": 224, "size": 224}