{"hash": "69c8fff642151187354c96dd7830db77a9b349e80e9a4bbf42264170ec6ab973", "blockhash": "0000000000000000001f76057863aec43deb6fa401d9628bb513d65a8098bfab", "vout": [{"scriptPubKey": {"type": "nulldata", "hex": "6a4c50000077da000176de278d66a6dcee7212292e7af8e8e963c7cfd5b95b23cc0f42c2fc38c56467b3cbf6c99e7d4156eca100db08db5baa15ae061307ddf866d28b1d100759d4ba30d2c37bb011d97e02cf", "asm": "OP_RETURN 000077da000176de278d66a6dcee7212292e7af8e8e963c7cfd5b95b23cc0f42c2fc38c56467b3cbf6c99e7d4156eca100db08db5baa15ae061307ddf866d28b1d100759d4ba30d2c37bb011d97e02cf"}, "value": 0.0, "n": 0}, {"scriptPubKey": {"reqSigs": 1, "hex": "76a9144807d319de41205ae15438eb334ed8830284aea688ac", "addresses": ["17Zs2UaTvUWC6fXXTMudkzBFPdJcn2ieao"], "asm": "OP_DUP OP_HASH160 4807d319de41205ae15438eb334ed8830284aea6 OP_EQUALVERIFY OP_CHECKSIG", "type": "pubkeyhash"}, "value": 0.00635309, "n": 1}], "hex": "0100000001396ac577338eae7d8aa1ec325bed61560058ce99050570dcb3496ad79fb85621010000006b483045022100e79493fe759aa3d41e474f16b075fc82767b6a1b30f816a29130c06c4ce09c160220424c165bee36072a6ffd75711a06445ee2c2631daa50296e23e81fd1b23df54a01210392071446c15daa9680bc1b651820ac90a523b103a199423d2b597f5f2ebd9b4effffffff020000000000000000536a4c50000077da000176de278d66a6dcee7212292e7af8e8e963c7cfd5b95b23cc0f42c2fc38c56467b3cbf6c99e7d4156eca100db08db5baa15ae061307ddf866d28b1d100759d4ba30d2c37bb011d97e02cfadb10900000000001976a9144807d319de41205ae15438eb334ed8830284aea688ac00000000", "vin": [{"sequence": 4294967295, "scriptSig": {"hex": "483045022100e79493fe759aa3d41e474f16b075fc82767b6a1b30f816a29130c06c4ce09c160220424c165bee36072a6ffd75711a06445ee2c2631daa50296e23e81fd1b23df54a01210392071446c15daa9680bc1b651820ac90a523b103a199423d2b597f5f2ebd9b4e", "asm": "3045022100e79493fe759aa3d41e474f16b075fc82767b6a1b30f816a29130c06c4ce09c160220424c165bee36072a6ffd75711a06445ee2c2631daa50296e23e81fd1b23df54a[ALL] 0392071446c15daa9680bc1b651820ac90a523b103a199423d2b597f5f2ebd9b4e"}, "vout": 1, "txid": "2156b89fd76a49b3dc70050599ce58005661ed5b32eca18a7dae8e3377c56a39"}], "txid": "69c8fff642151187354c96dd7830db77a9b349e80e9a4bbf42264170ec6ab973", "blocktime": 1537873891, "version": 1, "confirmations": 11478, "time": 1537873891, "locktime": 0, "vsize": 284, "size": 284}