{"hash": "f33372f943c5e749c9456f3a2da461a1ea1e15bedd20c997b6888f22fb3aa135", "blockhash": "00000000000000000018f53835495a110e01622372bf6ae95dc86f2b0ab887b0", "vout": [{"scriptPubKey": {"reqSigs": 1, "hex": "76a9142e1b944fe7ffbe969fc1df8d662fd7b5d6303c9b88ac", "addresses": ["15Co856cRnFRCKwSSzECoyT3ozVhuFoJZ6"], "asm": "OP_DUP OP_HASH160 2e1b944fe7ffbe969fc1df8d662fd7b5d6303c9b OP_EQUALVERIFY OP_CHECKSIG", "type": "pubkeyhash"}, "value": 0.0028546, "n": 0}, {"scriptPubKey": {"reqSigs": 1, "hex": "a91480deeb0f17819a0d5b58818b5f40d3914920322f87", "addresses": ["3DSRTj4gmVPw4P8Ram919sXyceRMKrZHwT"], "asm": "OP_HASH160 80deeb0f17819a0d5b58818b5f40d3914920322f OP_EQUAL", "type": "scripthash"}, "value": 0.00999501, "n": 1}], "hex": "0200000000010205262cda76a30d8f907c04b476e7c9b26c020dff1db34d9afe58d4aeeb6f53f61900000017160014d37865789bf10f98301d6ef4478ed76f24130fd4feffffffe302dde0d010ef2a0599fad42f08349f8014f33c044df151a570bcf62092aa2a01000000171600149b1fea5640d005ecbb15e7dd320e615d58814dd1feffffff02145b0400000000001976a9142e1b944fe7ffbe969fc1df8d662fd7b5d6303c9b88ac4d400f000000000017a91480deeb0f17819a0d5b58818b5f40d3914920322f870247304402201f2a5cf5987eab3d96a0e783cca08d83576f5d4111f6cf1e91c912ba78784dae022075170198c9f9ab644ed32c31e674f7c5c073debf464bf92187be871a8640135a012102b946ec90d098b24009ff682d6284d34c2c692d564c39668ce5f6f557632069cc02483045022100a24cd9bd774f16a450f59f49eeebc5f925078b9390dc5cd5d1689e8a2ea49947022040ef63d3a0a7e898b4f0957dd90829642bde32b0a3682d4961224d8b716759c30121031564edf685396ecc116c452769ed6d7bda9ffae7956577f4290dc1b14096d1260e490800", "vin": [{"txinwitness": ["304402201f2a5cf5987eab3d96a0e783cca08d83576f5d4111f6cf1e91c912ba78784dae022075170198c9f9ab644ed32c31e674f7c5c073debf464bf92187be871a8640135a01", "02b946ec90d098b24009ff682d6284d34c2c692d564c39668ce5f6f557632069cc"], "sequence": 4294967294, "scriptSig": {"hex": "160014d37865789bf10f98301d6ef4478ed76f24130fd4", "asm": "0014d37865789bf10f98301d6ef4478ed76f24130fd4"}, "vout": 25, "txid": "f6536febaed458fe9a4db31dff0d026cb2c9e776b4047c908f0da376da2c2605"}, {"txinwitness": ["3045022100a24cd9bd774f16a450f59f49eeebc5f925078b9390dc5cd5d1689e8a2ea49947022040ef63d3a0a7e898b4f0957dd90829642bde32b0a3682d4961224d8b716759c301", "031564edf685396ecc116c452769ed6d7bda9ffae7956577f4290dc1b14096d126"], "sequence": 4294967294, "scriptSig": {"hex": "1600149b1fea5640d005ecbb15e7dd320e615d58814dd1", "asm": "00149b1fea5640d005ecbb15e7dd320e615d58814dd1"}, "vout": 1, "txid": "2aaa9220f6bc70a551f14d043cf314809f34082fd4fa99052aef10d0e0dd02e3"}], "txid": "69d0309c828c8f54c9966aea7490ab7bc55d2ba266e02e9f383ff97ecbb2c43c", "blocktime": 1537870928, "version": 2, "confirmations": 11514, "time": 1537870928, "locktime": 542990, "vsize": 259, "size": 421}