{"hash": "69d438c4cf3dc65905c9eff6af0b801b17fcdac7d1016af8c81c79284406097e", "blockhash": "00000000000000000004ffacab907a6b429b9a5745fa0b75af4234bf69dd7176", "vout": [{"scriptPubKey": {"reqSigs": 1, "hex": "76a914ba84e7a467d2225cb93b6a7246a07024d9d30dd688ac", "addresses": ["1J1Du59VnAiL7qJyuKXRnyFrpjGSCsbu5t"], "asm": "OP_DUP OP_HASH160 ba84e7a467d2225cb93b6a7246a07024d9d30dd6 OP_EQUALVERIFY OP_CHECKSIG", "type": "pubkeyhash"}, "value": 1.2, "n": 0}, {"scriptPubKey": {"reqSigs": 1, "hex": "76a914b99e87f5d43ad73f99d06bd9ec83ba1ed282af5788ac", "addresses": ["1HvTvRVH9sktxsSNKpcswogs1kyRyuzyEV"], "asm": "OP_DUP OP_HASH160 b99e87f5d43ad73f99d06bd9ec83ba1ed282af57 OP_EQUALVERIFY OP_CHECKSIG", "type": "pubkeyhash"}, "value": 0.13424, "n": 1}], "hex": "01000000028fbd1209486fc097ca93bea6609c3b1fe14031711dc9bf04bc2bec21e4600d7a010000006b483045022100d0843986e4852fa06e6a5e1f1ca41d33518e14e9321aa6015673cbe1be45985702204f660d25f97067c91549f7e57564defaadd5557a213748bd0dfbda717cdaba7901210356209ee9e9bab58e9f4ef886ad518eb80ec642e72627eb24541cafc4fb69c68cffffffff8fbd1209486fc097ca93bea6609c3b1fe14031711dc9bf04bc2bec21e4600d7a000000006a4730440220243e19320083e2b503c9aa65288d47027c63c7ef86fb34a246e0c340b2628cb50220519ffb5370ff306e18e0ff249ce1cdea4edbae8f60350f8f4ec60b8af40ceb57012103de5e571de9739d432089b184e5158e726b1d39eaeea3556763822c6200285ab7ffffffff02000e2707000000001976a914ba84e7a467d2225cb93b6a7246a07024d9d30dd688ac80d5cc00000000001976a914b99e87f5d43ad73f99d06bd9ec83ba1ed282af5788ac00000000", "vin": [{"sequence": 4294967295, "scriptSig": {"hex": "483045022100d0843986e4852fa06e6a5e1f1ca41d33518e14e9321aa6015673cbe1be45985702204f660d25f97067c91549f7e57564defaadd5557a213748bd0dfbda717cdaba7901210356209ee9e9bab58e9f4ef886ad518eb80ec642e72627eb24541cafc4fb69c68c", "asm": "3045022100d0843986e4852fa06e6a5e1f1ca41d33518e14e9321aa6015673cbe1be45985702204f660d25f97067c91549f7e57564defaadd5557a213748bd0dfbda717cdaba79[ALL] 0356209ee9e9bab58e9f4ef886ad518eb80ec642e72627eb24541cafc4fb69c68c"}, "vout": 1, "txid": "7a0d60e421ec2bbc04bfc91d713140e11f3b9c60a6be93ca97c06f480912bd8f"}, {"sequence": 4294967295, "scriptSig": {"hex": "4730440220243e19320083e2b503c9aa65288d47027c63c7ef86fb34a246e0c340b2628cb50220519ffb5370ff306e18e0ff249ce1cdea4edbae8f60350f8f4ec60b8af40ceb57012103de5e571de9739d432089b184e5158e726b1d39eaeea3556763822c6200285ab7", "asm": "30440220243e19320083e2b503c9aa65288d47027c63c7ef86fb34a246e0c340b2628cb50220519ffb5370ff306e18e0ff249ce1cdea4edbae8f60350f8f4ec60b8af40ceb57[ALL] 03de5e571de9739d432089b184e5158e726b1d39eaeea3556763822c6200285ab7"}, "vout": 0, "txid": "7a0d60e421ec2bbc04bfc91d713140e11f3b9c60a6be93ca97c06f480912bd8f"}], "txid": "69d438c4cf3dc65905c9eff6af0b801b17fcdac7d1016af8c81c79284406097e", "blocktime": 1537875543, "version": 1, "confirmations": 11464, "time": 1537875543, "locktime": 0, "vsize": 373, "size": 373}