{"hash": "69d6c99a5fd0b3a2c45de287b0f64c0de9e456febec2f1860738a194e66d7abe", "blockhash": "00000000000000000004ffacab907a6b429b9a5745fa0b75af4234bf69dd7176", "vout": [{"scriptPubKey": {"reqSigs": 1, "hex": "a91446b82e7c0ae389cad5c05bdf380598f4564adc9387", "addresses": ["388ws8djr61VcVohWFEauWnXrUUFYz1P44"], "asm": "OP_HASH160 46b82e7c0ae389cad5c05bdf380598f4564adc93 OP_EQUAL", "type": "scripthash"}, "value": 0.07945621, "n": 0}, {"scriptPubKey": {"reqSigs": 1, "hex": "a91482acf0603108160c724384457cf75cc07357b65e87", "addresses": ["3DbxwVUpEtLjKfS4Ss49xTtQPZRySR6bzX"], "asm": "OP_HASH160 82acf0603108160c724384457cf75cc07357b65e OP_EQUAL", "type": "scripthash"}, "value": 0.07920939, "n": 1}, {"scriptPubKey": {"reqSigs": 1, "hex": "a914e690bdae8e85a7e71e83beae6a527e805d62dbe787", "addresses": ["3Ni8jSaoj5TugtHoiaF5RDWXLQKQ4N5NXz"], "asm": "OP_HASH160 e690bdae8e85a7e71e83beae6a527e805d62dbe7 OP_EQUAL", "type": "scripthash"}, "value": 0.35, "n": 2}], "hex": "0100000002116d8e0e5e76deef93eff97356da26481c0319b6153751e8fb63b9eeadfc434711000000fdfe0000483045022100c7fc5994bca2e4d70d755587512ca6cad671d6d9ff77a7e82bee2b54e4cba6dc02207262fb0cdbbbcd62d205cd786c2c91f376be603c7bb2f803c61f308fd02546ab01483045022100a5ba05c5cbbe57d0c6ed70089159c4de0bb022083b9fc0c321de7e4f19b36ebf022069daf2f7d4b4fb947489400e5b1035b04c38e1d8820e3bd4a5ccf9e4c53bbbea014c69522103e627dd443fd82888c33834fdc0a4a847b0da82cc9009109a1bce7cd1c7a966412103a2739c62b1a52dc6abe11341081125e9ff2fc11ccf46ceb0eea86b8c535de88821022fb43f79a7b85c44fba38e537ce703f5f406c0d505fd342961fdec65ef1af8c153aeffffffff595ca241c698e9561d69bf4fe0653461f69611133c9c511e7471525af1144eb801000000fdfd000047304402204081d2aaf62eec93050e3a165c1b28913fbb1fb948344e7057021327dfebd31b0220082db302869fb0fc6e5b4a7217e2a7ab2c701892b8cfb0868febe34be1e9d43301483045022100f49efd733ef8d6fc7a6112f9efc02201a692ecfc3489d3482bea3087e8d3da330220693d0aed53f00c6ac66e530a21fa77cb4db4ff286472ea052567908eb1a53b4a014c69522102354641dd94646c471b3bbaff6cb0b8394dde70bf0d4c39a90048b9a43be98cb021023843e0236cfe1fcb814ffa5f47fedeefe771400bcdd3b2b452ddd86ce41e21512102e6a8de02b10f7867a2269517f3455d6ee585361e275b2c7ceb6fc5ca9f00d64653aeffffffff03953d79000000000017a91446b82e7c0ae389cad5c05bdf380598f4564adc93872bdd78000000000017a91482acf0603108160c724384457cf75cc07357b65e87c00e16020000000017a914e690bdae8e85a7e71e83beae6a527e805d62dbe78700000000", "vin": [{"sequence": 4294967295, "scriptSig": {"hex": "00483045022100c7fc5994bca2e4d70d755587512ca6cad671d6d9ff77a7e82bee2b54e4cba6dc02207262fb0cdbbbcd62d205cd786c2c91f376be603c7bb2f803c61f308fd02546ab01483045022100a5ba05c5cbbe57d0c6ed70089159c4de0bb022083b9fc0c321de7e4f19b36ebf022069daf2f7d4b4fb947489400e5b1035b04c38e1d8820e3bd4a5ccf9e4c53bbbea014c69522103e627dd443fd82888c33834fdc0a4a847b0da82cc9009109a1bce7cd1c7a966412103a2739c62b1a52dc6abe11341081125e9ff2fc11ccf46ceb0eea86b8c535de88821022fb43f79a7b85c44fba38e537ce703f5f406c0d505fd342961fdec65ef1af8c153ae", "asm": "0 3045022100c7fc5994bca2e4d70d755587512ca6cad671d6d9ff77a7e82bee2b54e4cba6dc02207262fb0cdbbbcd62d205cd786c2c91f376be603c7bb2f803c61f308fd02546ab[ALL] 3045022100a5ba05c5cbbe57d0c6ed70089159c4de0bb022083b9fc0c321de7e4f19b36ebf022069daf2f7d4b4fb947489400e5b1035b04c38e1d8820e3bd4a5ccf9e4c53bbbea[ALL] 522103e627dd443fd82888c33834fdc0a4a847b0da82cc9009109a1bce7cd1c7a966412103a2739c62b1a52dc6abe11341081125e9ff2fc11ccf46ceb0eea86b8c535de88821022fb43f79a7b85c44fba38e537ce703f5f406c0d505fd342961fdec65ef1af8c153ae"}, "vout": 17, "txid": "4743fcadeeb963fbe8513715b619031c4826da5673f9ef93efde765e0e8e6d11"}, {"sequence": 4294967295, "scriptSig": {"hex": "0047304402204081d2aaf62eec93050e3a165c1b28913fbb1fb948344e7057021327dfebd31b0220082db302869fb0fc6e5b4a7217e2a7ab2c701892b8cfb0868febe34be1e9d43301483045022100f49efd733ef8d6fc7a6112f9efc02201a692ecfc3489d3482bea3087e8d3da330220693d0aed53f00c6ac66e530a21fa77cb4db4ff286472ea052567908eb1a53b4a014c69522102354641dd94646c471b3bbaff6cb0b8394dde70bf0d4c39a90048b9a43be98cb021023843e0236cfe1fcb814ffa5f47fedeefe771400bcdd3b2b452ddd86ce41e21512102e6a8de02b10f7867a2269517f3455d6ee585361e275b2c7ceb6fc5ca9f00d64653ae", "asm": "0 304402204081d2aaf62eec93050e3a165c1b28913fbb1fb948344e7057021327dfebd31b0220082db302869fb0fc6e5b4a7217e2a7ab2c701892b8cfb0868febe34be1e9d433[ALL] 3045022100f49efd733ef8d6fc7a6112f9efc02201a692ecfc3489d3482bea3087e8d3da330220693d0aed53f00c6ac66e530a21fa77cb4db4ff286472ea052567908eb1a53b4a[ALL] 522102354641dd94646c471b3bbaff6cb0b8394dde70bf0d4c39a90048b9a43be98cb021023843e0236cfe1fcb814ffa5f47fedeefe771400bcdd3b2b452ddd86ce41e21512102e6a8de02b10f7867a2269517f3455d6ee585361e275b2c7ceb6fc5ca9f00d64653ae"}, "vout": 1, "txid": "b84e14f15a5271741e519c3c131196f6613465e04fbf691d56e998c641a25c59"}], "txid": "69d6c99a5fd0b3a2c45de287b0f64c0de9e456febec2f1860738a194e66d7abe", "blocktime": 1537875543, "version": 1, "confirmations": 11464, "time": 1537875543, "locktime": 0, "vsize": 699, "size": 699}