{"hash": "c8db2a1708285ff87c929efc889a2f4679d25c40d5db7763b201c83fd064d712", "blockhash": "0000000000000000000e13cef7c366c0283d82e591d1acd082e914b08063cdf1", "vout": [{"scriptPubKey": {"reqSigs": 1, "hex": "a91469f373b5f8475b14ff6c0fa750f50708d025322d87", "addresses": ["3BMEX2XXhqtkfD8GceoTuJPnrP3HgEWCGf"], "asm": "OP_HASH160 69f373b5f8475b14ff6c0fa750f50708d025322d OP_EQUAL", "type": "scripthash"}, "value": 0.0450129, "n": 0}, {"scriptPubKey": {"reqSigs": 1, "hex": "a9149aa317a73f16bd5933608c9c13af8ef7354e8c9c87", "addresses": ["3FnfMwhiVpMaRGMpYgrunz4WhK9Ufi7sFz"], "asm": "OP_HASH160 9aa317a73f16bd5933608c9c13af8ef7354e8c9c OP_EQUAL", "type": "scripthash"}, "value": 0.19317899, "n": 1}], "hex": "01000000000101767802fed1c5bab0b15d74c680e32279408de810ea8a0c9efd20f92f50ddf43301000000232200201786991281d5087c3aacdf1e1f72826e81431c0bcccad82dfbc1f95316f6ca6bffffffff022aaf44000000000017a91469f373b5f8475b14ff6c0fa750f50708d025322d878bc426010000000017a9149aa317a73f16bd5933608c9c13af8ef7354e8c9c87040047304402204caeddfd03650c4b91947ba71f5ec924e25ba4ecfa2e77b67ba42fe9d583cf4f022044f028574d349c6f0fa05f72db0f19e40e10538f1df3e1a4520f1dbca431a0ea01483045022100c0e7ddd4fd3966d8bacdcf0bf2bd891bc7ce12b4fa9e713da7e87995247c8412022047cd693fc2b204c831a2d4a1b662baae143dbe8f542ce0feded74c05975323f2016952210241280e698d584cdad078bd552007caba176c924aab27f6b271ee2eafd3b0a0cf2102f192d373c2745e0a741d8d88e2428bfb5d10ac5f1a3d16ffb8c2f34a34d33c3b2102ec98281e5731249ccb3e4c343d30673b6342ca7a69ea9fa22dd851f12789f06d53ae00000000", "vin": [{"txinwitness": ["", "304402204caeddfd03650c4b91947ba71f5ec924e25ba4ecfa2e77b67ba42fe9d583cf4f022044f028574d349c6f0fa05f72db0f19e40e10538f1df3e1a4520f1dbca431a0ea01", "3045022100c0e7ddd4fd3966d8bacdcf0bf2bd891bc7ce12b4fa9e713da7e87995247c8412022047cd693fc2b204c831a2d4a1b662baae143dbe8f542ce0feded74c05975323f201", "52210241280e698d584cdad078bd552007caba176c924aab27f6b271ee2eafd3b0a0cf2102f192d373c2745e0a741d8d88e2428bfb5d10ac5f1a3d16ffb8c2f34a34d33c3b2102ec98281e5731249ccb3e4c343d30673b6342ca7a69ea9fa22dd851f12789f06d53ae"], "sequence": 4294967295, "scriptSig": {"hex": "2200201786991281d5087c3aacdf1e1f72826e81431c0bcccad82dfbc1f95316f6ca6b", "asm": "00201786991281d5087c3aacdf1e1f72826e81431c0bcccad82dfbc1f95316f6ca6b"}, "vout": 1, "txid": "33f4dd502ff920fd9e0c8aea10e88d407922e380c6745db1b0bac5d1fe027876"}], "txid": "69e4ad984240e5780545a01bd894b019ec969a8519db688151799b464cce5e9b", "blocktime": 1537871767, "version": 1, "confirmations": 11495, "time": 1537871767, "locktime": 0, "vsize": 214, "size": 405}