{"hash": "2ff96583ce632c40a21a83849b3e73b4fe613f027f24845e97c9041863f62e04", "blockhash": "00000000000000000024a2167bbff67b0be802c0b01cdd79e6331c2be6459f87", "vout": [{"scriptPubKey": {"reqSigs": 1, "hex": "001466901b5868702360261a7ad2da2c062888b7649b", "addresses": ["bc1qv6gpkkrgwq3kqfs60tfd5tqx9zytweymjfjenu"], "asm": "0 66901b5868702360261a7ad2da2c062888b7649b", "type": "witness_v0_keyhash"}, "value": 1.056e-05, "n": 0}, {"scriptPubKey": {"reqSigs": 1, "hex": "a91444db84dca5eb20b35dd8a4a949befc2f33f75a2e87", "addresses": ["37y6r2zZGmUUnBnmeejqbHoJ3WJ7922kyG"], "asm": "OP_HASH160 44db84dca5eb20b35dd8a4a949befc2f33f75a2e OP_EQUAL", "type": "scripthash"}, "value": 0.00073014, "n": 1}], "hex": "01000000000101f948aeffe2dde4b4748e5a5eb82a4c6eb1ec80acf37c98c25e10b1f7e9ae22fb0000000017160014732412fcbd2a3ee5b13f7e999ba0cff7ba50dd29ffffffff02200400000000000016001466901b5868702360261a7ad2da2c062888b7649b361d01000000000017a91444db84dca5eb20b35dd8a4a949befc2f33f75a2e87024830450221008143cc75b7d64560f834398fa787389aa6d350abad3c96961b53a9c97acdd5ed0220545f887045e813176e450ff0af3e399abe7db70bd83b5d51eae6b0db3c1a926901210369269e45af3896144328e519814eb791d0979cf85b04d8b71699402422579b0800000000", "vin": [{"txinwitness": ["30450221008143cc75b7d64560f834398fa787389aa6d350abad3c96961b53a9c97acdd5ed0220545f887045e813176e450ff0af3e399abe7db70bd83b5d51eae6b0db3c1a926901", "0369269e45af3896144328e519814eb791d0979cf85b04d8b71699402422579b08"], "sequence": 4294967295, "scriptSig": {"hex": "160014732412fcbd2a3ee5b13f7e999ba0cff7ba50dd29", "asm": "0014732412fcbd2a3ee5b13f7e999ba0cff7ba50dd29"}, "vout": 0, "txid": "fb22aee9f7b1105ec2987cf3ac80ecb16e4c2ab85e5a8e74b4e4dde2ffae48f9"}], "txid": "69eb4e9d33a9530da9c398a335b3ec8c539fbf59be92eee748ad4980f7a3672c", "blocktime": 1537870564, "version": 1, "confirmations": 11515, "time": 1537870564, "locktime": 0, "vsize": 165, "size": 247}