{"hash": "69ed6a57eb93c2bad6ca4ab00a4c30aa049a960fecf2093c367a7f228af37cf6", "blockhash": "0000000000000000001cda96e906b7601b7a6fb1a3b62bca570a9e5d8f4b3de1", "vout": [{"scriptPubKey": {"reqSigs": 1, "hex": "76a91447497ce69998c3e882fedbfd0805ec04679c758588ac", "addresses": ["17Vw1ebyQQ2VwqiyX8W29dUX26ki5cSMht"], "asm": "OP_DUP OP_HASH160 47497ce69998c3e882fedbfd0805ec04679c7585 OP_EQUALVERIFY OP_CHECKSIG", "type": "pubkeyhash"}, "value": 0.07629124, "n": 0}, {"scriptPubKey": {"reqSigs": 1, "hex": "76a91441dbaf2db6117aaffc165b9bda299a754a59131c88ac", "addresses": ["171E6QGPruRNRV6zpDRMrk3h2Hkfj7rZpV"], "asm": "OP_DUP OP_HASH160 41dbaf2db6117aaffc165b9bda299a754a59131c OP_EQUALVERIFY OP_CHECKSIG", "type": "pubkeyhash"}, "value": 0.62480314, "n": 1}], "hex": "0200000001d5d61580d06fb2beac7ee7ca0d2659e89c4f03c864920ea4288adbfa9f55e054010000006b483045022100e709bb1a2cb1ae2fcb639c647db3dc2a1f0a659c390248476e129d25b24d56e9022039e3d5ab379ed906acb845d1c888cda7fb9fc6724ad58724924cf9f0dfc8a7720121027be840351873e3c2944eb0b787b08c234cde598e5b032960f8840f9201851cf4ffffffff0244697400000000001976a91447497ce69998c3e882fedbfd0805ec04679c758588acba5fb903000000001976a91441dbaf2db6117aaffc165b9bda299a754a59131c88ac00000000", "vin": [{"sequence": 4294967295, "scriptSig": {"hex": "483045022100e709bb1a2cb1ae2fcb639c647db3dc2a1f0a659c390248476e129d25b24d56e9022039e3d5ab379ed906acb845d1c888cda7fb9fc6724ad58724924cf9f0dfc8a7720121027be840351873e3c2944eb0b787b08c234cde598e5b032960f8840f9201851cf4", "asm": "3045022100e709bb1a2cb1ae2fcb639c647db3dc2a1f0a659c390248476e129d25b24d56e9022039e3d5ab379ed906acb845d1c888cda7fb9fc6724ad58724924cf9f0dfc8a772[ALL] 027be840351873e3c2944eb0b787b08c234cde598e5b032960f8840f9201851cf4"}, "vout": 1, "txid": "54e0559ffadb8a28a40e9264c8034f9ce859260dcae77eacbeb26fd08015d6d5"}], "txid": "69ed6a57eb93c2bad6ca4ab00a4c30aa049a960fecf2093c367a7f228af37cf6", "blocktime": 1537873282, "version": 2, "confirmations": 11484, "time": 1537873282, "locktime": 0, "vsize": 226, "size": 226}