{"hash": "69f82a92f52c76c6d192010fdbe990ddc9d4fc801512f9fbffbff6b150488f8b", "blockhash": "0000000000000000001f0ddff1eddb255c1121bcd4da4f1bc9a0da00cae72433", "vout": [{"scriptPubKey": {"reqSigs": 1, "hex": "a914a8cc8bfc158b76d23f85261336c2857785d7a26187", "addresses": ["3H5YUw5MCYMyfjdzv1BmDcjtrqUBSok3e4"], "asm": "OP_HASH160 a8cc8bfc158b76d23f85261336c2857785d7a261 OP_EQUAL", "type": "scripthash"}, "value": 1.9995, "n": 0}], "hex": "020000000154308e0c8cdc094d26c0ba269f9ae58f467c9ec28e5d267baa18ce838260689a010000006b48304502210082bfc8bc0f399cabfd6e0727ea8a798421f1901d16c003e6f1fa69050a68cb5d0220364751695b5ac8b4e94076fb717128d6c7840d9a8397a7fac057d41fd334714a0121032c5500a24eadd7f186bf10bbb0a032b28ed268aafbb0f6a55caba40fef5b228affffffff01b0feea0b0000000017a914a8cc8bfc158b76d23f85261336c2857785d7a2618700000000", "vin": [{"sequence": 4294967295, "scriptSig": {"hex": "48304502210082bfc8bc0f399cabfd6e0727ea8a798421f1901d16c003e6f1fa69050a68cb5d0220364751695b5ac8b4e94076fb717128d6c7840d9a8397a7fac057d41fd334714a0121032c5500a24eadd7f186bf10bbb0a032b28ed268aafbb0f6a55caba40fef5b228a", "asm": "304502210082bfc8bc0f399cabfd6e0727ea8a798421f1901d16c003e6f1fa69050a68cb5d0220364751695b5ac8b4e94076fb717128d6c7840d9a8397a7fac057d41fd334714a[ALL] 032c5500a24eadd7f186bf10bbb0a032b28ed268aafbb0f6a55caba40fef5b228a"}, "vout": 1, "txid": "9a68608283ce18aa7b265d8ec29e7c468fe59a9f26bac0264d09dc8c0c8e3054"}], "txid": "69f82a92f52c76c6d192010fdbe990ddc9d4fc801512f9fbffbff6b150488f8b", "blocktime": 1537872018, "version": 2, "confirmations": 11489, "time": 1537872018, "locktime": 0, "vsize": 190, "size": 190}