{"hash": "6a0386f188d1f720c23c9fbd6b9e598dc94778d0c4052bf3ed5fdb6c63831528", "blockhash": "0000000000000000001f76057863aec43deb6fa401d9628bb513d65a8098bfab", "vout": [{"scriptPubKey": {"reqSigs": 1, "hex": "76a9143d23f78182f21d1e9496becd7c45aec8b843624288ac", "addresses": ["16aHJimUDD6ST4CQLmCFvsJh6cbFftoDK6"], "asm": "OP_DUP OP_HASH160 3d23f78182f21d1e9496becd7c45aec8b8436242 OP_EQUALVERIFY OP_CHECKSIG", "type": "pubkeyhash"}, "value": 0.01032849, "n": 0}], "hex": "01000000018b54a5c5a2feca52f875bc70739d151be5a97c5bf60543a6900d4a33014b4772000000006a4730440220612e6b1fcb559af59236c78d0e0c36abdbb51df4ca926978fc87d20db3ae20d0022067748a0556908c20f98e5a6e81423b4e47e4a761fa10761ae17adf09e6f76566012102f794c626ab08d64c216305cdacc0d424749dfb562cef8fff0aa83f235b46478fffffffff0191c20f00000000001976a9143d23f78182f21d1e9496becd7c45aec8b843624288ac00000000", "vin": [{"sequence": 4294967295, "scriptSig": {"hex": "4730440220612e6b1fcb559af59236c78d0e0c36abdbb51df4ca926978fc87d20db3ae20d0022067748a0556908c20f98e5a6e81423b4e47e4a761fa10761ae17adf09e6f76566012102f794c626ab08d64c216305cdacc0d424749dfb562cef8fff0aa83f235b46478f", "asm": "30440220612e6b1fcb559af59236c78d0e0c36abdbb51df4ca926978fc87d20db3ae20d0022067748a0556908c20f98e5a6e81423b4e47e4a761fa10761ae17adf09e6f76566[ALL] 02f794c626ab08d64c216305cdacc0d424749dfb562cef8fff0aa83f235b46478f"}, "vout": 0, "txid": "72474b01334a0d90a64305f65b7ca9e51b159d7370bc75f852cafea2c5a5548b"}], "txid": "6a0386f188d1f720c23c9fbd6b9e598dc94778d0c4052bf3ed5fdb6c63831528", "blocktime": 1537873891, "version": 1, "confirmations": 11478, "time": 1537873891, "locktime": 0, "vsize": 191, "size": 191}