{"hash": "6a0994ac7c776d94c741f02e232cf286c464f4f759e747db5ff4dba9b11033ce", "blockhash": "0000000000000000001f76057863aec43deb6fa401d9628bb513d65a8098bfab", "vout": [{"scriptPubKey": {"reqSigs": 1, "hex": "76a91445ec90bbac74a41e8a3840597ccc2fc9df48f00c88ac", "addresses": ["17Nj25z3rc8riePakaXpCYjcJY7yqBZa6K"], "asm": "OP_DUP OP_HASH160 45ec90bbac74a41e8a3840597ccc2fc9df48f00c OP_EQUALVERIFY OP_CHECKSIG", "type": "pubkeyhash"}, "value": 0.0008356, "n": 0}, {"scriptPubKey": {"type": "nulldata", "hex": "6a4c50000077dd0001df7f9b25c367783ad17e05127af8e8e963c7cfd5b95b23cc0f42c2fc38c574de08ad8eb88e5b1ec203ef39f6eff25baa161e06130a5f4f340673bc9a9526289ac0f6612cd74e33776ee4", "asm": "OP_RETURN 000077dd0001df7f9b25c367783ad17e05127af8e8e963c7cfd5b95b23cc0f42c2fc38c574de08ad8eb88e5b1ec203ef39f6eff25baa161e06130a5f4f340673bc9a9526289ac0f6612cd74e33776ee4"}, "value": 0.0, "n": 1}], "hex": "010000000116f13070dd41ea8536a433e64b222e2a2c4d11c5fee56a97f4ce20690cd82317000000006b483045022100d9d79aff972b38a04a4d6114a7bb066543f53a0d3fd883d52cde750a73b6a2f002204b233f43b34c1191cba99a985067fee4d95866bc3036c41fd7b4b7bcda7daeed012103f60d1265352eba16f6bbe1754a56d580b0d2f85c81e8a0ec9201195b3fe7ea0fffffffff0268460100000000001976a91445ec90bbac74a41e8a3840597ccc2fc9df48f00c88ac0000000000000000536a4c50000077dd0001df7f9b25c367783ad17e05127af8e8e963c7cfd5b95b23cc0f42c2fc38c574de08ad8eb88e5b1ec203ef39f6eff25baa161e06130a5f4f340673bc9a9526289ac0f6612cd74e33776ee400000000", "vin": [{"sequence": 4294967295, "scriptSig": {"hex": "483045022100d9d79aff972b38a04a4d6114a7bb066543f53a0d3fd883d52cde750a73b6a2f002204b233f43b34c1191cba99a985067fee4d95866bc3036c41fd7b4b7bcda7daeed012103f60d1265352eba16f6bbe1754a56d580b0d2f85c81e8a0ec9201195b3fe7ea0f", "asm": "3045022100d9d79aff972b38a04a4d6114a7bb066543f53a0d3fd883d52cde750a73b6a2f002204b233f43b34c1191cba99a985067fee4d95866bc3036c41fd7b4b7bcda7daeed[ALL] 03f60d1265352eba16f6bbe1754a56d580b0d2f85c81e8a0ec9201195b3fe7ea0f"}, "vout": 0, "txid": "1723d80c6920cef4976ae5fec5114d2c2a2e224be633a43685ea41dd7030f116"}], "txid": "6a0994ac7c776d94c741f02e232cf286c464f4f759e747db5ff4dba9b11033ce", "blocktime": 1537873891, "version": 1, "confirmations": 11478, "time": 1537873891, "locktime": 0, "vsize": 284, "size": 284}