{"hash": "6a0a4b4baa259877346c4c76f8cd702df0801610aefe2fa3ca6ca5843019893c", "blockhash": "00000000000000000018f53835495a110e01622372bf6ae95dc86f2b0ab887b0", "vout": [{"scriptPubKey": {"type": "nulldata", "hex": "6a146f6d6e69000000000000001f000000d87c661200", "asm": "OP_RETURN 6f6d6e69000000000000001f000000d87c661200"}, "value": 0.0, "n": 0}, {"scriptPubKey": {"reqSigs": 1, "hex": "76a914fcdce6dde45f5da1bf0861001d18f7e07adc9aaa88ac", "addresses": ["1Q41usQQYGCUawedTucMydksUyWP7AJAtz"], "asm": "OP_DUP OP_HASH160 fcdce6dde45f5da1bf0861001d18f7e07adc9aaa OP_EQUALVERIFY OP_CHECKSIG", "type": "pubkeyhash"}, "value": 5.46e-06, "n": 1}, {"scriptPubKey": {"reqSigs": 1, "hex": "76a91407836037a0dafa6cc55cd5e39b43009ce9ac1ee388ac", "addresses": ["1gj7VpHptCG4MbbaQZtJmo1VmPL6nMH6m"], "asm": "OP_DUP OP_HASH160 07836037a0dafa6cc55cd5e39b43009ce9ac1ee3 OP_EQUALVERIFY OP_CHECKSIG", "type": "pubkeyhash"}, "value": 0.16245792, "n": 2}], "hex": "01000000015243cefaabbf7ec74e6610196215105576631c1a8b4c04568f83fe3bb6c3dcb2010000006a47304402205891d8e75d64dfa6372da213c496b31a07ae15dedc61baa1f22af72bdb4ae3580220192181a7b41c68dfe051fded052afb5e3a0a94155ef4c6b7ebec5d5e5e0172660121030f088c9e8403b7f3439de04f80afd0298bf3f4bb500e85afb7a81a3fd52110a4feffffff030000000000000000166a146f6d6e69000000000000001f000000d87c66120022020000000000001976a914fcdce6dde45f5da1bf0861001d18f7e07adc9aaa88ac20e4f700000000001976a91407836037a0dafa6cc55cd5e39b43009ce9ac1ee388ac0e490800", "vin": [{"sequence": 4294967294, "scriptSig": {"hex": "47304402205891d8e75d64dfa6372da213c496b31a07ae15dedc61baa1f22af72bdb4ae3580220192181a7b41c68dfe051fded052afb5e3a0a94155ef4c6b7ebec5d5e5e0172660121030f088c9e8403b7f3439de04f80afd0298bf3f4bb500e85afb7a81a3fd52110a4", "asm": "304402205891d8e75d64dfa6372da213c496b31a07ae15dedc61baa1f22af72bdb4ae3580220192181a7b41c68dfe051fded052afb5e3a0a94155ef4c6b7ebec5d5e5e017266[ALL] 030f088c9e8403b7f3439de04f80afd0298bf3f4bb500e85afb7a81a3fd52110a4"}, "vout": 1, "txid": "b2dcc3b63bfe838f56044c8b1a1c6376551015621910664ec77ebfabface4352"}], "txid": "6a0a4b4baa259877346c4c76f8cd702df0801610aefe2fa3ca6ca5843019893c", "blocktime": 1537870928, "version": 1, "confirmations": 11512, "time": 1537870928, "locktime": 542990, "vsize": 256, "size": 256}