{"hash": "869ee9fe952b3534bb403ff9acc5a0add5410e3f5382b73801e5c98694b97f77", "blockhash": "00000000000000000018f53835495a110e01622372bf6ae95dc86f2b0ab887b0", "vout": [{"scriptPubKey": {"reqSigs": 1, "hex": "76a914b55649c194881389dbf1b54b81a544272554d14d88ac", "addresses": ["1HXpg8D9AMGFVZ9FEU2tkZYvAZ8xBhVudo"], "asm": "OP_DUP OP_HASH160 b55649c194881389dbf1b54b81a544272554d14d OP_EQUALVERIFY OP_CHECKSIG", "type": "pubkeyhash"}, "value": 0.00349644, "n": 0}, {"scriptPubKey": {"reqSigs": 1, "hex": "a914386eff1648ddcafc35b70bae711d603a203f8cd287", "addresses": ["36qQjTGS6yPazzhJkggTJPmGUiDxHxNV5x"], "asm": "OP_HASH160 386eff1648ddcafc35b70bae711d603a203f8cd2 OP_EQUAL", "type": "scripthash"}, "value": 0.00999507, "n": 1}], "hex": "02000000000102c33b25d76d96aab94a06d14b017431753057da0b8d43f1f1bf0ec6d4f980dea8000000001716001439e44a4d91905842d77e087e196e2a341b3e6a4cfeffffffe3c4a17c32eaebf284318c60e630b66d2ae2cf10068bb31afc1fc7c021d79a6c00000000171600142aea32a0d9a047a3226305a93e61460eb058be89feffffff02cc550500000000001976a914b55649c194881389dbf1b54b81a544272554d14d88ac53400f000000000017a914386eff1648ddcafc35b70bae711d603a203f8cd28702483045022100e7922099220a1864cbab9b7813cef829f6294de78994e03f87ebaf90b47411490220441a1b7bf6a5f05b4f94cf8c22d018232255017db445daa5512a00e7f692fc0a0121024f540e228d85090580c1325511e5b9b456ad43505e35ede29a4f56b9de62d56a0247304402206e15b19be1f612c81c41e37235dfb6b8c92a282dbc4cd75b65063174c74c5e1d0220581277f3eddd3d8a29430f31e6be899b24f3f30e02d425d0206f749ddac18612012102c8f9246b79b2112566abdda84a145ddae1be0aaf25b0c50e62cc5ada0fe994c30e490800", "vin": [{"txinwitness": ["3045022100e7922099220a1864cbab9b7813cef829f6294de78994e03f87ebaf90b47411490220441a1b7bf6a5f05b4f94cf8c22d018232255017db445daa5512a00e7f692fc0a01", "024f540e228d85090580c1325511e5b9b456ad43505e35ede29a4f56b9de62d56a"], "sequence": 4294967294, "scriptSig": {"hex": "16001439e44a4d91905842d77e087e196e2a341b3e6a4c", "asm": "001439e44a4d91905842d77e087e196e2a341b3e6a4c"}, "vout": 0, "txid": "a8de80f9d4c60ebff1f1438d0bda5730753174014bd1064ab9aa966dd7253bc3"}, {"txinwitness": ["304402206e15b19be1f612c81c41e37235dfb6b8c92a282dbc4cd75b65063174c74c5e1d0220581277f3eddd3d8a29430f31e6be899b24f3f30e02d425d0206f749ddac1861201", "02c8f9246b79b2112566abdda84a145ddae1be0aaf25b0c50e62cc5ada0fe994c3"], "sequence": 4294967294, "scriptSig": {"hex": "1600142aea32a0d9a047a3226305a93e61460eb058be89", "asm": "00142aea32a0d9a047a3226305a93e61460eb058be89"}, "vout": 0, "txid": "6c9ad721c0c71ffc1ab38b0610cfe22a6db630e6608c3184f2ebea327ca1c4e3"}], "txid": "6a0b521d0ad2cdf3801f4c0f04b300b6a0a211f51190cbccecb03bd5ca781a3c", "blocktime": 1537870928, "version": 2, "confirmations": 11514, "time": 1537870928, "locktime": 542990, "vsize": 259, "size": 421}