{"hash": "6a0b52e6da4f465ed32abe4be42401d2fd64df92cdb8f4ab21ae56257b6c61e3", "blockhash": "0000000000000000000e13cef7c366c0283d82e591d1acd082e914b08063cdf1", "vout": [{"scriptPubKey": {"reqSigs": 1, "hex": "a914bd4d4a5b3c32f778913c58939b17bed16f71b6e787", "addresses": ["3JwxE2xmvqgDUseRJw2sC31N73xmX9um2D"], "asm": "OP_HASH160 bd4d4a5b3c32f778913c58939b17bed16f71b6e7 OP_EQUAL", "type": "scripthash"}, "value": 0.01406978, "n": 0}], "hex": "01000000017ac9ad6ad7053e324ea617dec0628b76084559e3ee7adf9d05f0d8df7b1c80bd000000006b4830450221008ac1e5866a839f97db10d1f38218212ca0b5797df2d32454e2320ce0b97e688e0220495d71b07c18379044479652150af82435c77ae6c930c4e25aecd8a0f14bec80012102b875efbd4a6b3ac23be142fdb45f70c4e2b77b8dbec7950c7cbdc11ac559efd2ffffffff01027815000000000017a914bd4d4a5b3c32f778913c58939b17bed16f71b6e78700000000", "vin": [{"sequence": 4294967295, "scriptSig": {"hex": "4830450221008ac1e5866a839f97db10d1f38218212ca0b5797df2d32454e2320ce0b97e688e0220495d71b07c18379044479652150af82435c77ae6c930c4e25aecd8a0f14bec80012102b875efbd4a6b3ac23be142fdb45f70c4e2b77b8dbec7950c7cbdc11ac559efd2", "asm": "30450221008ac1e5866a839f97db10d1f38218212ca0b5797df2d32454e2320ce0b97e688e0220495d71b07c18379044479652150af82435c77ae6c930c4e25aecd8a0f14bec80[ALL] 02b875efbd4a6b3ac23be142fdb45f70c4e2b77b8dbec7950c7cbdc11ac559efd2"}, "vout": 0, "txid": "bd801c7bdfd8f0059ddf7aeee3594508768b62c0de17a64e323e05d76aadc97a"}], "txid": "6a0b52e6da4f465ed32abe4be42401d2fd64df92cdb8f4ab21ae56257b6c61e3", "blocktime": 1537871767, "version": 1, "confirmations": 11491, "time": 1537871767, "locktime": 0, "vsize": 190, "size": 190}