{"hash": "6a103b425e9e16a72da9ba5b8280971722270bf87fcf3b0c2199121b8c7adaf6", "blockhash": "0000000000000000001cda96e906b7601b7a6fb1a3b62bca570a9e5d8f4b3de1", "vout": [{"scriptPubKey": {"reqSigs": 1, "hex": "a914c61063cae77a86e6ecc12f92341c5f8c9ed8bf5487", "addresses": ["3KkHMJxh4CS7Ty5oGiHTVqXf9ZgR3gUtzy"], "asm": "OP_HASH160 c61063cae77a86e6ecc12f92341c5f8c9ed8bf54 OP_EQUAL", "type": "scripthash"}, "value": 0.06018816, "n": 0}, {"scriptPubKey": {"reqSigs": 1, "hex": "76a9146befb9ddcc212e44acca283edd5b6f58935c735988ac", "addresses": ["1AqiUz2N3jYbeW4xtpAHtHj142xcFTgsgi"], "asm": "OP_DUP OP_HASH160 6befb9ddcc212e44acca283edd5b6f58935c7359 OP_EQUALVERIFY OP_CHECKSIG", "type": "pubkeyhash"}, "value": 0.015, "n": 1}], "hex": "0100000001780d9662aa5ebe281a82ef40b33ef738698f68de0e5b5842b14de3ce948efe5700000000fdfd000047304402200a578b1585dfb8d1bc6367d018cd679148427fcd3cd2e2d1d30d6e1027dca83202206e52e70395db2a47c8000a48ea234a68a7b8d60c06f7755975cfa0d645f4e57a01483045022100e0d234eb07903ed20b5865e76319cdd035d4901af4ba80006f7da3654c423dde0220740cbb9364455cbf1ef3a64f241159c337716f35e5552e947efcb65c24a7c18e014c69522102d10b6623a567a689b5a34c32b4db7171f6299a456dad939a1fdb7d1f714ec1e4210276c9409f2898dc2b45a94b764c64dceecceaf352edf53aafc31c44766d40128c210276cf907c352c29c0138346c8bc3d7f81759114d5114171be23f243bebdf969bf53aeffffffff0200d75b000000000017a914c61063cae77a86e6ecc12f92341c5f8c9ed8bf548760e31600000000001976a9146befb9ddcc212e44acca283edd5b6f58935c735988ac00000000", "vin": [{"sequence": 4294967295, "scriptSig": {"hex": "0047304402200a578b1585dfb8d1bc6367d018cd679148427fcd3cd2e2d1d30d6e1027dca83202206e52e70395db2a47c8000a48ea234a68a7b8d60c06f7755975cfa0d645f4e57a01483045022100e0d234eb07903ed20b5865e76319cdd035d4901af4ba80006f7da3654c423dde0220740cbb9364455cbf1ef3a64f241159c337716f35e5552e947efcb65c24a7c18e014c69522102d10b6623a567a689b5a34c32b4db7171f6299a456dad939a1fdb7d1f714ec1e4210276c9409f2898dc2b45a94b764c64dceecceaf352edf53aafc31c44766d40128c210276cf907c352c29c0138346c8bc3d7f81759114d5114171be23f243bebdf969bf53ae", "asm": "0 304402200a578b1585dfb8d1bc6367d018cd679148427fcd3cd2e2d1d30d6e1027dca83202206e52e70395db2a47c8000a48ea234a68a7b8d60c06f7755975cfa0d645f4e57a[ALL] 3045022100e0d234eb07903ed20b5865e76319cdd035d4901af4ba80006f7da3654c423dde0220740cbb9364455cbf1ef3a64f241159c337716f35e5552e947efcb65c24a7c18e[ALL] 522102d10b6623a567a689b5a34c32b4db7171f6299a456dad939a1fdb7d1f714ec1e4210276c9409f2898dc2b45a94b764c64dceecceaf352edf53aafc31c44766d40128c210276cf907c352c29c0138346c8bc3d7f81759114d5114171be23f243bebdf969bf53ae"}, "vout": 0, "txid": "57fe8e94cee34db142585b0ede688f6938f73eb340ef821a28be5eaa62960d78"}], "txid": "6a103b425e9e16a72da9ba5b8280971722270bf87fcf3b0c2199121b8c7adaf6", "blocktime": 1537873282, "version": 1, "confirmations": 11485, "time": 1537873282, "locktime": 0, "vsize": 372, "size": 372}