{"hash": "6a1a831a344706a2803ec4b1f99d1f147b30eaff055cbff267ebf02c0cdfb8cc", "blockhash": "0000000000000000001f0ddff1eddb255c1121bcd4da4f1bc9a0da00cae72433", "vout": [{"scriptPubKey": {"reqSigs": 1, "hex": "a91422ec8055d59a0be61eb0aa9a3b921e78a5f8996187", "addresses": ["34sgDTvjsk4wP9w72JNFt3dY2mPcttVE3X"], "asm": "OP_HASH160 22ec8055d59a0be61eb0aa9a3b921e78a5f89961 OP_EQUAL", "type": "scripthash"}, "value": 0.00043, "n": 0}, {"scriptPubKey": {"reqSigs": 1, "hex": "76a9142a384c154ddbff5af61b90fd36ce5cdc71ba00fd88ac", "addresses": ["14rEpez8YAzDXgwjT8F1iTTFCtoSJFmvqE"], "asm": "OP_DUP OP_HASH160 2a384c154ddbff5af61b90fd36ce5cdc71ba00fd OP_EQUALVERIFY OP_CHECKSIG", "type": "pubkeyhash"}, "value": 0.01024, "n": 1}], "hex": "01000000011dd8a959d5de902a298cab25dc570dc90b434b7abc6d22107de1fd1c591222b3010000009200483045022100b9a158c65e1d4fe83222f7a2772b937b7489b0c838f5d611d65721d07c2736e3022071f38cf4338208ec4bbed926d55a1c43140bf323cc9cba60a835bbe92eadbaa40147512102b479654800c6ef5129da3acfd460c102d32e6d2554fd460198eda6ce5abab6f92103adb4d2217e1bafce559d0501f581df0ac6db394422887f42821d489d2508b4e852aeffffffff02f8a700000000000017a91422ec8055d59a0be61eb0aa9a3b921e78a5f899618700a00f00000000001976a9142a384c154ddbff5af61b90fd36ce5cdc71ba00fd88ac00000000", "vin": [{"sequence": 4294967295, "scriptSig": {"hex": "00483045022100b9a158c65e1d4fe83222f7a2772b937b7489b0c838f5d611d65721d07c2736e3022071f38cf4338208ec4bbed926d55a1c43140bf323cc9cba60a835bbe92eadbaa40147512102b479654800c6ef5129da3acfd460c102d32e6d2554fd460198eda6ce5abab6f92103adb4d2217e1bafce559d0501f581df0ac6db394422887f42821d489d2508b4e852ae", "asm": "0 3045022100b9a158c65e1d4fe83222f7a2772b937b7489b0c838f5d611d65721d07c2736e3022071f38cf4338208ec4bbed926d55a1c43140bf323cc9cba60a835bbe92eadbaa4[ALL] 512102b479654800c6ef5129da3acfd460c102d32e6d2554fd460198eda6ce5abab6f92103adb4d2217e1bafce559d0501f581df0ac6db394422887f42821d489d2508b4e852ae"}, "vout": 1, "txid": "b32212591cfde17d10226dbc7a4b430bc90d57dc25ab8c292a90ded559a9d81d"}], "txid": "6a1a831a344706a2803ec4b1f99d1f147b30eaff055cbff267ebf02c0cdfb8cc", "blocktime": 1537872018, "version": 1, "confirmations": 11489, "time": 1537872018, "locktime": 0, "vsize": 263, "size": 263}