{"hash": "6a2812f08ffc5b22ed9e564b8d553858eb5e2ef9995026d0c57822023f5be629", "blockhash": "0000000000000000001f76057863aec43deb6fa401d9628bb513d65a8098bfab", "vout": [{"scriptPubKey": {"reqSigs": 1, "hex": "76a914ad1ff41532d63bf9671107cd2e9aec126035d2fe88ac", "addresses": ["1GnQBMNPDaVSfkqsGkJz8QgnkYfDCRCtru"], "asm": "OP_DUP OP_HASH160 ad1ff41532d63bf9671107cd2e9aec126035d2fe OP_EQUALVERIFY OP_CHECKSIG", "type": "pubkeyhash"}, "value": 9.454e-05, "n": 0}, {"scriptPubKey": {"reqSigs": 1, "hex": "76a914963058d943475b097967493ff9b7f2a18b3a562a88ac", "addresses": ["1Eh8GzH6F4jqqztGQcH5TeXofPMxtRkNUn"], "asm": "OP_DUP OP_HASH160 963058d943475b097967493ff9b7f2a18b3a562a OP_EQUALVERIFY OP_CHECKSIG", "type": "pubkeyhash"}, "value": 0.00062421, "n": 1}], "hex": "0100000001542f3329dd1a4b0e2cfa716906cb37f3f120d3bb30313a124bb2ebe8b70f59f5000000006b483045022100efbca9c48dd62f999a58fce20a287d5f01431a0ac1a0adaa99b49ed65a75351702201cbda94cced0d53fbfcd4c9a3e08ebf7e27f5f24ea03d4f1d98720826f11b4400121026133e3a280365cae5e3f4bc92da763a33bf94bfbb2ca870209d45a98e5a4620affffffff02ee240000000000001976a914ad1ff41532d63bf9671107cd2e9aec126035d2fe88acd5f30000000000001976a914963058d943475b097967493ff9b7f2a18b3a562a88ac00000000", "vin": [{"sequence": 4294967295, "scriptSig": {"hex": "483045022100efbca9c48dd62f999a58fce20a287d5f01431a0ac1a0adaa99b49ed65a75351702201cbda94cced0d53fbfcd4c9a3e08ebf7e27f5f24ea03d4f1d98720826f11b4400121026133e3a280365cae5e3f4bc92da763a33bf94bfbb2ca870209d45a98e5a4620a", "asm": "3045022100efbca9c48dd62f999a58fce20a287d5f01431a0ac1a0adaa99b49ed65a75351702201cbda94cced0d53fbfcd4c9a3e08ebf7e27f5f24ea03d4f1d98720826f11b440[ALL] 026133e3a280365cae5e3f4bc92da763a33bf94bfbb2ca870209d45a98e5a4620a"}, "vout": 0, "txid": "f5590fb7e8ebb24b123a3130bbd320f1f337cb066971fa2c0e4b1add29332f54"}], "txid": "6a2812f08ffc5b22ed9e564b8d553858eb5e2ef9995026d0c57822023f5be629", "blocktime": 1537873891, "version": 1, "confirmations": 11478, "time": 1537873891, "locktime": 0, "vsize": 226, "size": 226}