{"hash": "f5c2fd7af5aaaae5fe34350e208c9047103cbd77702787e98c69b543fef265cb", "blockhash": "0000000000000000000baef3f32e3676a92c3b2e5da21b426e4f302fc371ce76", "vout": [{"scriptPubKey": {"reqSigs": 1, "hex": "a914c763ea7cd436fe331d7cf04961d21c0f4703695487", "addresses": ["3KsJ6121gvzdKhu4mRejsM8SxG68koszRs"], "asm": "OP_HASH160 c763ea7cd436fe331d7cf04961d21c0f47036954 OP_EQUAL", "type": "scripthash"}, "value": 0.01217811, "n": 0}, {"scriptPubKey": {"reqSigs": 1, "hex": "76a914a0733b224381cc516cf0e0aa5a6e76e1caf94dc688ac", "addresses": ["1FdPA5ncEgTNqb2oTVMzGZjoCgdZwbAXie"], "asm": "OP_DUP OP_HASH160 a0733b224381cc516cf0e0aa5a6e76e1caf94dc6 OP_EQUALVERIFY OP_CHECKSIG", "type": "pubkeyhash"}, "value": 0.0025166, "n": 1}], "hex": "020000000001028530ddc6791c18320b606ae290e8e5985db512f1f84ca3196f684eca84ddcb6b0100000017160014ae4b2705051729e7e979bd8304a0daf234bf2fa6fefffffff595d75d941d83407ed36968281bf37f1a9510a2759591a555711db6facddd44010000001716001496e8fd6f147cb5bc5b1bbdfc1b959c92ad9b4697feffffff02139512000000000017a914c763ea7cd436fe331d7cf04961d21c0f47036954870cd70300000000001976a914a0733b224381cc516cf0e0aa5a6e76e1caf94dc688ac0247304402203b4f07b63f69815e7a5f9e6a59a241bded1742509d7c06424446310c4d0e86b5022034ca7709a71f23fa2d93ef961f691accfdd61e461a252e742772104e04a878880121035dc31f673a2546e6b57661a3601f6cbf3d0bf2f84db57ac2db4abd612db6d4010247304402206be8a2362be8c3ef1e474a82aade4f10403bf741dd5ca408bebba56a22bfb3bc022015f78a171396993ba9bc5c53635722e43bf9e303f08ed5a91d7e47bfa11c2bad0121034ae1988eb4b96c9661020670b2125ccd9576e7e2afc80772f3f9cfe56582adb617490800", "vin": [{"txinwitness": ["304402203b4f07b63f69815e7a5f9e6a59a241bded1742509d7c06424446310c4d0e86b5022034ca7709a71f23fa2d93ef961f691accfdd61e461a252e742772104e04a8788801", "035dc31f673a2546e6b57661a3601f6cbf3d0bf2f84db57ac2db4abd612db6d401"], "sequence": 4294967294, "scriptSig": {"hex": "160014ae4b2705051729e7e979bd8304a0daf234bf2fa6", "asm": "0014ae4b2705051729e7e979bd8304a0daf234bf2fa6"}, "vout": 1, "txid": "6bcbdd84ca4e686f19a34cf8f112b55d98e5e890e26a600b32181c79c6dd3085"}, {"txinwitness": ["304402206be8a2362be8c3ef1e474a82aade4f10403bf741dd5ca408bebba56a22bfb3bc022015f78a171396993ba9bc5c53635722e43bf9e303f08ed5a91d7e47bfa11c2bad01", "034ae1988eb4b96c9661020670b2125ccd9576e7e2afc80772f3f9cfe56582adb6"], "sequence": 4294967294, "scriptSig": {"hex": "16001496e8fd6f147cb5bc5b1bbdfc1b959c92ad9b4697", "asm": "001496e8fd6f147cb5bc5b1bbdfc1b959c92ad9b4697"}, "vout": 1, "txid": "44ddcdfab61d7155a5919575a210951a7ff31b286869d37e40831d945dd795f5"}], "txid": "6a2a4d8f995bd3f4753fcb580e9933e36b8bc661404897528a93adcfc5566e0c", "blocktime": 1537876114, "version": 2, "confirmations": 11461, "time": 1537876114, "locktime": 542999, "vsize": 258, "size": 420}