{"hash": "6a2b513211520801c45a106d41970a5916085973b032762d5ee76964a23d16ce", "blockhash": "00000000000000000017f5eb5941039fbcee6240d03bc1f2f8e35350df66a1d8", "vout": [{"scriptPubKey": {"type": "nulldata", "hex": "6a4c50000077f40001fc28e6b5ad2529de39b27bfad19ed074892d00f8e87af8e8e963c7cfd5b9e4473a4344f48ffff1016eb0571f15905baa18a406131478cd4004751d100759d4ba30d2c37bb011d97e02cf", "asm": "OP_RETURN 000077f40001fc28e6b5ad2529de39b27bfad19ed074892d00f8e87af8e8e963c7cfd5b9e4473a4344f48ffff1016eb0571f15905baa18a406131478cd4004751d100759d4ba30d2c37bb011d97e02cf"}, "value": 0.0, "n": 0}, {"scriptPubKey": {"reqSigs": 1, "hex": "76a9148fa77e226bbccd0764f13f8035dd7143044330db88ac", "addresses": ["1E6aH2i5ApYX5Wn7CEAeKaTWYZhjoyRSzV"], "asm": "OP_DUP OP_HASH160 8fa77e226bbccd0764f13f8035dd7143044330db OP_EQUALVERIFY OP_CHECKSIG", "type": "pubkeyhash"}, "value": 0.00633587, "n": 1}], "hex": "0100000001bbca2976105a1ff79492a011a0d1f344403c8190449d0dffe6bd8c9e15c21bb8010000006b483045022100e8c76277d1cb5251229e1116d99ab4613cd61e6d2184e7d3f6be57fa8529781702205847718a396718bc27b95b829e2460fcdc69113a0fc1d562ea44cbe43d4f332a0121035358dd64b324cd086cfdc30f231fb2303718fa65622b1be47f994b758ed6bad2ffffffff020000000000000000536a4c50000077f40001fc28e6b5ad2529de39b27bfad19ed074892d00f8e87af8e8e963c7cfd5b9e4473a4344f48ffff1016eb0571f15905baa18a406131478cd4004751d100759d4ba30d2c37bb011d97e02cff3aa0900000000001976a9148fa77e226bbccd0764f13f8035dd7143044330db88ac00000000", "vin": [{"sequence": 4294967295, "scriptSig": {"hex": "483045022100e8c76277d1cb5251229e1116d99ab4613cd61e6d2184e7d3f6be57fa8529781702205847718a396718bc27b95b829e2460fcdc69113a0fc1d562ea44cbe43d4f332a0121035358dd64b324cd086cfdc30f231fb2303718fa65622b1be47f994b758ed6bad2", "asm": "3045022100e8c76277d1cb5251229e1116d99ab4613cd61e6d2184e7d3f6be57fa8529781702205847718a396718bc27b95b829e2460fcdc69113a0fc1d562ea44cbe43d4f332a[ALL] 035358dd64b324cd086cfdc30f231fb2303718fa65622b1be47f994b758ed6bad2"}, "vout": 1, "txid": "b81bc2159e8cbde6ff0d9d4490813c4044f3d1a011a09294f71f5a107629cabb"}], "txid": "6a2b513211520801c45a106d41970a5916085973b032762d5ee76964a23d16ce", "blocktime": 1537874412, "version": 1, "confirmations": 11467, "time": 1537874412, "locktime": 0, "vsize": 284, "size": 284}