{"hash": "6a2bda3e527ac51cc43a0fa325111f81c7a9f05b44b9785c8c8a9e3718988a96", "blockhash": "00000000000000000017f5eb5941039fbcee6240d03bc1f2f8e35350df66a1d8", "vout": [{"scriptPubKey": {"reqSigs": 1, "hex": "a914d3087538d06288d188568fad34fc8961c01aa91b87", "addresses": ["3Lvrdggj28kLkB2GcE8eFXuvcMkjBcbfMo"], "asm": "OP_HASH160 d3087538d06288d188568fad34fc8961c01aa91b OP_EQUAL", "type": "scripthash"}, "value": 0.878084, "n": 0}, {"scriptPubKey": {"reqSigs": 1, "hex": "76a9144ecc25c15e16b09cef2d83adf48e993f8a7e289f88ac", "addresses": ["18BeGNxCbvZnbthoCa9vsZsTwdP5higCUj"], "asm": "OP_DUP OP_HASH160 4ecc25c15e16b09cef2d83adf48e993f8a7e289f OP_EQUALVERIFY OP_CHECKSIG", "type": "pubkeyhash"}, "value": 13.06080174, "n": 1}], "hex": "0100000001a899e4949db16ed2fab7916c2421e6dc81f116c04d2e5ed2d8d97fdfac92b024010000008b483045022100e4e1b14bfb84350ed84719f1d7f59ac6b354338c1d2ef9f66a5e38f7e5685c8f0220015f5114e92ad691845c65326fd875d7746500050d77f53602f64bb00edca6a1014104e87d0e85219475b690b3c1cd8c2c49ef6679a847eb9234316f6101fe02d99654c7ae6637150d70a9357ecf5a28fbf528868a995a97e8bfe86c653a3bcb470d90fdffffff0290d93b050000000017a914d3087538d06288d188568fad34fc8961c01aa91b87ae33d94d000000001976a9144ecc25c15e16b09cef2d83adf48e993f8a7e289f88ac15490800", "vin": [{"sequence": 4294967293, "scriptSig": {"hex": "483045022100e4e1b14bfb84350ed84719f1d7f59ac6b354338c1d2ef9f66a5e38f7e5685c8f0220015f5114e92ad691845c65326fd875d7746500050d77f53602f64bb00edca6a1014104e87d0e85219475b690b3c1cd8c2c49ef6679a847eb9234316f6101fe02d99654c7ae6637150d70a9357ecf5a28fbf528868a995a97e8bfe86c653a3bcb470d90", "asm": "3045022100e4e1b14bfb84350ed84719f1d7f59ac6b354338c1d2ef9f66a5e38f7e5685c8f0220015f5114e92ad691845c65326fd875d7746500050d77f53602f64bb00edca6a1[ALL] 04e87d0e85219475b690b3c1cd8c2c49ef6679a847eb9234316f6101fe02d99654c7ae6637150d70a9357ecf5a28fbf528868a995a97e8bfe86c653a3bcb470d90"}, "vout": 1, "txid": "24b092acdf7fd9d8d25e2e4dc016f181dce621246c91b7fad26eb19d94e499a8"}], "txid": "6a2bda3e527ac51cc43a0fa325111f81c7a9f05b44b9785c8c8a9e3718988a96", "blocktime": 1537874412, "version": 1, "confirmations": 11467, "time": 1537874412, "locktime": 542997, "vsize": 256, "size": 256}