{"hash": "6a2d7fd5108b16d39f12efe609ac81679ad6ef6c0e8c89df7fc1976dbd33dd60", "blockhash": "0000000000000000001e0dab787dd257d1dbfcb92a98c2207d5e1078be1f4165", "vout": [{"scriptPubKey": {"reqSigs": 1, "hex": "76a9147e8cf497ea20e3bd691aa7defbd6d47a7312a66b88ac", "addresses": ["1CY8zvjnP87EsEiJFtAr7ahgQU2Gfosv25"], "asm": "OP_DUP OP_HASH160 7e8cf497ea20e3bd691aa7defbd6d47a7312a66b OP_EQUALVERIFY OP_CHECKSIG", "type": "pubkeyhash"}, "value": 1.855e-05, "n": 0}, {"scriptPubKey": {"reqSigs": 1, "hex": "a914f0316a3cd23c2da02026324b7ef81a80fed9d0fc87", "addresses": ["3Pb3HzmTQYedp7JrJ2t2e1imJo3yxTxmhE"], "asm": "OP_HASH160 f0316a3cd23c2da02026324b7ef81a80fed9d0fc OP_EQUAL", "type": "scripthash"}, "value": 0.00793195, "n": 1}], "hex": "01000000023f0f63aff628d421d9fcc6ae755802906122426f8a2f4073d19721e72c6e131b000000006b483045022100fdae8ded3c15a197bb3d957c7afb464fa84936bd0e318978821f4db09984a26602202c076e3f87f4556191c40cd0c3544d51add9141c31fa637b3c2c04ea8d0114bb0121039ca0346e0ea69c7a139e07f853b1ece311521ac034621d5036951d425facb657ffffffff445c01691c575a38cfa8e2d5a8e11b034b6a33c74d31d69a4d683487417c6b381b0000006b48304502210081c3948c220e8eee8b0fd3ee7d53663cc650f879860985e055b97bf90003e2cb022016eb7f2af22355abb071f3aa3011ae4bbbdbeee519bf54c14a3f935a0d1475e70121035602620b22064e5be9a21efba80eec386d0bfa2ee192dee3efb85057d0b26ef1ffffffff023f070000000000001976a9147e8cf497ea20e3bd691aa7defbd6d47a7312a66b88ac6b1a0c000000000017a914f0316a3cd23c2da02026324b7ef81a80fed9d0fc8700000000", "vin": [{"sequence": 4294967295, "scriptSig": {"hex": "483045022100fdae8ded3c15a197bb3d957c7afb464fa84936bd0e318978821f4db09984a26602202c076e3f87f4556191c40cd0c3544d51add9141c31fa637b3c2c04ea8d0114bb0121039ca0346e0ea69c7a139e07f853b1ece311521ac034621d5036951d425facb657", "asm": "3045022100fdae8ded3c15a197bb3d957c7afb464fa84936bd0e318978821f4db09984a26602202c076e3f87f4556191c40cd0c3544d51add9141c31fa637b3c2c04ea8d0114bb[ALL] 039ca0346e0ea69c7a139e07f853b1ece311521ac034621d5036951d425facb657"}, "vout": 0, "txid": "1b136e2ce72197d173402f8a6f42226190025875aec6fcd921d428f6af630f3f"}, {"sequence": 4294967295, "scriptSig": {"hex": "48304502210081c3948c220e8eee8b0fd3ee7d53663cc650f879860985e055b97bf90003e2cb022016eb7f2af22355abb071f3aa3011ae4bbbdbeee519bf54c14a3f935a0d1475e70121035602620b22064e5be9a21efba80eec386d0bfa2ee192dee3efb85057d0b26ef1", "asm": "304502210081c3948c220e8eee8b0fd3ee7d53663cc650f879860985e055b97bf90003e2cb022016eb7f2af22355abb071f3aa3011ae4bbbdbeee519bf54c14a3f935a0d1475e7[ALL] 035602620b22064e5be9a21efba80eec386d0bfa2ee192dee3efb85057d0b26ef1"}, "vout": 27, "txid": "386b7c418734684d9ad6314dc7336a4b031be1a8d5e2a8cf385a571c69015c44"}], "txid": "6a2d7fd5108b16d39f12efe609ac81679ad6ef6c0e8c89df7fc1976dbd33dd60", "blocktime": 1537872475, "version": 1, "confirmations": 11487, "time": 1537872475, "locktime": 0, "vsize": 372, "size": 372}