{"hash": "f01ceda27bb7a0ad0b43594a9321ab68c98cfb59382693307755edea690e723c", "blockhash": "0000000000000000001cda96e906b7601b7a6fb1a3b62bca570a9e5d8f4b3de1", "vout": [{"scriptPubKey": {"reqSigs": 1, "hex": "76a9143afd59cc8f6d08c96a4c31d65229e74e790caf1f88ac", "addresses": ["16NuhFKDdyDkQLV7UkMxcyqcoygscjHHEN"], "asm": "OP_DUP OP_HASH160 3afd59cc8f6d08c96a4c31d65229e74e790caf1f OP_EQUALVERIFY OP_CHECKSIG", "type": "pubkeyhash"}, "value": 0.0003111, "n": 0}, {"scriptPubKey": {"reqSigs": 1, "hex": "001415a07bdb270ccfd4b0f4acfaaeebce79baa18733", "addresses": ["bc1qzks8hke8pn8afv854na2a67w0xa2rpenxurypl"], "asm": "0 15a07bdb270ccfd4b0f4acfaaeebce79baa18733", "type": "witness_v0_keyhash"}, "value": 1.579e-05, "n": 1}], "hex": "01000000000101d8fea9931d054905613b0c67961abe6db383114ee5d320e9404ea264e30b90e50100000000ffffffff0286790000000000001976a9143afd59cc8f6d08c96a4c31d65229e74e790caf1f88ac2b0600000000000016001415a07bdb270ccfd4b0f4acfaaeebce79baa18733024730440220279c00374df636735071820412d8d8463a89f6955489473b4ae796de2bcfa8e1022079e5ee4032b8df0fccb6e891faeaec6c4f942820d384af1d38f5b55e2f899fdc012103e1e79336384d24f614f7f4d32d022cf7e45acccb0b4ee904816c250e10a4464700000000", "vin": [{"txinwitness": ["30440220279c00374df636735071820412d8d8463a89f6955489473b4ae796de2bcfa8e1022079e5ee4032b8df0fccb6e891faeaec6c4f942820d384af1d38f5b55e2f899fdc01", "03e1e79336384d24f614f7f4d32d022cf7e45acccb0b4ee904816c250e10a44647"], "sequence": 4294967295, "scriptSig": {"hex": "", "asm": ""}, "vout": 1, "txid": "e5900be364a24e40e920d3e54e1183b36dbe1a96670c3b610549051d93a9fed8"}], "txid": "6a3165f4228d647837fc413a0b63a13f77b1698a914ebc086a32aefafa410fc9", "blocktime": 1537873282, "version": 1, "confirmations": 11484, "time": 1537873282, "locktime": 0, "vsize": 144, "size": 225}