{"hash": "6a33f0dc49f88151e192e01f12117f47922961cbda4b75bea1437455454d3407", "blockhash": "0000000000000000001e0dab787dd257d1dbfcb92a98c2207d5e1078be1f4165", "vout": [{"scriptPubKey": {"reqSigs": 1, "hex": "a91432f1d70a37343602582defae57650a37512792c887", "addresses": ["36LPRUPXjWUZ5GPXiDxicepCXzWcTUiFvG"], "asm": "OP_HASH160 32f1d70a37343602582defae57650a37512792c8 OP_EQUAL", "type": "scripthash"}, "value": 0.00253297, "n": 0}, {"scriptPubKey": {"reqSigs": 1, "hex": "a914c37a0dad6316127ca51159d5a431c42765003af987", "addresses": ["3KWbuNVr1aruJjLsWkefjLKELqABDNw9mj"], "asm": "OP_HASH160 c37a0dad6316127ca51159d5a431c42765003af9 OP_EQUAL", "type": "scripthash"}, "value": 0.22931418, "n": 1}, {"scriptPubKey": {"reqSigs": 1, "hex": "a914b26b3a17633d23d54e628734c5118e73c5be69f287", "addresses": ["3HxQewrQZfheu7ECvkkFk2GDye3c87zp9b"], "asm": "OP_HASH160 b26b3a17633d23d54e628734c5118e73c5be69f2 OP_EQUAL", "type": "scripthash"}, "value": 0.26674885, "n": 2}], "hex": "0100000001e1eb799617a8ac8d6164ce59383d0bffffda72f9d5c1b8053d67a9853d90663201000000fc0047304402201466cad5df476f7cd0bac263f96f68078238a9addd804c7538816b3854065348022063997afffd1e8ac8a02c82fa076a137b4d9168f51cee141b7bb427c9c53ad9a30147304402204da15edb0bf797b0ead2cc32098df3d26f6bd881dbbaeec3ed92e3e1861ff70202200235006dd33848c2d6fdf01bb6529574b3c42fded762943bbec47d2beae26413014c69522103fbb7adaf2a7a31b215ce08bdcaa4b7bf9911c65cebc1eb8b7bd84b052ef268202103e5d94dc885561291c906db10d595750cf5d4261d4addc6c224cd289e75ffd5a721034566ea02fd399c382dc22341920c6e58074e98ab78c505dcdd6dcf99cdc6579d53aeffffffff0371dd03000000000017a91432f1d70a37343602582defae57650a37512792c887dae75d010000000017a914c37a0dad6316127ca51159d5a431c42765003af987c50697010000000017a914b26b3a17633d23d54e628734c5118e73c5be69f28700000000", "vin": [{"sequence": 4294967295, "scriptSig": {"hex": "0047304402201466cad5df476f7cd0bac263f96f68078238a9addd804c7538816b3854065348022063997afffd1e8ac8a02c82fa076a137b4d9168f51cee141b7bb427c9c53ad9a30147304402204da15edb0bf797b0ead2cc32098df3d26f6bd881dbbaeec3ed92e3e1861ff70202200235006dd33848c2d6fdf01bb6529574b3c42fded762943bbec47d2beae26413014c69522103fbb7adaf2a7a31b215ce08bdcaa4b7bf9911c65cebc1eb8b7bd84b052ef268202103e5d94dc885561291c906db10d595750cf5d4261d4addc6c224cd289e75ffd5a721034566ea02fd399c382dc22341920c6e58074e98ab78c505dcdd6dcf99cdc6579d53ae", "asm": "0 304402201466cad5df476f7cd0bac263f96f68078238a9addd804c7538816b3854065348022063997afffd1e8ac8a02c82fa076a137b4d9168f51cee141b7bb427c9c53ad9a3[ALL] 304402204da15edb0bf797b0ead2cc32098df3d26f6bd881dbbaeec3ed92e3e1861ff70202200235006dd33848c2d6fdf01bb6529574b3c42fded762943bbec47d2beae26413[ALL] 522103fbb7adaf2a7a31b215ce08bdcaa4b7bf9911c65cebc1eb8b7bd84b052ef268202103e5d94dc885561291c906db10d595750cf5d4261d4addc6c224cd289e75ffd5a721034566ea02fd399c382dc22341920c6e58074e98ab78c505dcdd6dcf99cdc6579d53ae"}, "vout": 1, "txid": "3266903d85a9673d05b8c1d5f972daffff0b3d3859ce64618daca8179679ebe1"}], "txid": "6a33f0dc49f88151e192e01f12117f47922961cbda4b75bea1437455454d3407", "blocktime": 1537872475, "version": 1, "confirmations": 11486, "time": 1537872475, "locktime": 0, "vsize": 399, "size": 399}