{"hash": "6a33d11bc5d12bc803f84f193d02be81be43871680032a3948b512cd2b898f3e", "blockhash": "000000000000000000022b45ed06c6f4ccd3cf7fb5ba4856ebd2e58215665228", "vout": [{"scriptPubKey": {"reqSigs": 1, "hex": "76a914ea1f2d50d205f138602cb01a7080df03a86ad99488ac", "addresses": ["1NLvU776VTJXoYdhn8eXXJ2fyRDtxvf7G8"], "asm": "OP_DUP OP_HASH160 ea1f2d50d205f138602cb01a7080df03a86ad994 OP_EQUALVERIFY OP_CHECKSIG", "type": "pubkeyhash"}, "value": 0.00316953, "n": 0}, {"scriptPubKey": {"reqSigs": 1, "hex": "76a914885068103bc79f17f0af1972686fa9efbe9f3b6088ac", "addresses": ["1DRmDqAGEishcigTGA7KYhUR86QiibsVPf"], "asm": "OP_DUP OP_HASH160 885068103bc79f17f0af1972686fa9efbe9f3b60 OP_EQUALVERIFY OP_CHECKSIG", "type": "pubkeyhash"}, "value": 0.00042247, "n": 1}], "hex": "0100000002d361d1b862d589696e809db1c578b54cf1052eb6e1e4ae78451ae22956892270010000006a4730440220626fb695a6a8fca3db1d8c89baf7b2d09ef6e04f5c42cf13bec43fa232466551022022382672ade3029afa467a2cb9173208429f22aaa92010da20eaeb9d7ff050c90121035fb4524abd68c215ac19659d0461d7c8522321f6efc7e8a16d5b89f197de4ed0fffffffff104d04da63e960b46798249dbe80036e3fb26fdf6d9cc61d1b239756eaf9466000000006b483045022100f058d34618a9d2e3fd7127ee9796002bf2a6995d0a6bfe637eb0db7d2f09e639022005d0d10b62222979e1c05bd2f99e10fca6455e341fd80bd6952a48639be600a201210342535c682e65ceacc23b148c507723ebd555cb7d0cae3cd331bb476333b1e58cffffffff0219d60400000000001976a914ea1f2d50d205f138602cb01a7080df03a86ad99488ac07a50000000000001976a914885068103bc79f17f0af1972686fa9efbe9f3b6088ac00000000", "vin": [{"sequence": 4294967295, "scriptSig": {"hex": "4730440220626fb695a6a8fca3db1d8c89baf7b2d09ef6e04f5c42cf13bec43fa232466551022022382672ade3029afa467a2cb9173208429f22aaa92010da20eaeb9d7ff050c90121035fb4524abd68c215ac19659d0461d7c8522321f6efc7e8a16d5b89f197de4ed0", "asm": "30440220626fb695a6a8fca3db1d8c89baf7b2d09ef6e04f5c42cf13bec43fa232466551022022382672ade3029afa467a2cb9173208429f22aaa92010da20eaeb9d7ff050c9[ALL] 035fb4524abd68c215ac19659d0461d7c8522321f6efc7e8a16d5b89f197de4ed0"}, "vout": 1, "txid": "7022895629e21a4578aee4e1b62e05f14cb578c5b19d806e6989d562b8d161d3"}, {"sequence": 4294967295, "scriptSig": {"hex": "483045022100f058d34618a9d2e3fd7127ee9796002bf2a6995d0a6bfe637eb0db7d2f09e639022005d0d10b62222979e1c05bd2f99e10fca6455e341fd80bd6952a48639be600a201210342535c682e65ceacc23b148c507723ebd555cb7d0cae3cd331bb476333b1e58c", "asm": "3045022100f058d34618a9d2e3fd7127ee9796002bf2a6995d0a6bfe637eb0db7d2f09e639022005d0d10b62222979e1c05bd2f99e10fca6455e341fd80bd6952a48639be600a2[ALL] 0342535c682e65ceacc23b148c507723ebd555cb7d0cae3cd331bb476333b1e58c"}, "vout": 0, "txid": "6694af6e7539b2d161ccd9f6fd26fbe33600e8db498279460b963ea64dd004f1"}], "txid": "6a33d11bc5d12bc803f84f193d02be81be43871680032a3948b512cd2b898f3e", "blocktime": 1537869901, "version": 1, "confirmations": 11522, "time": 1537869901, "locktime": 0, "vsize": 373, "size": 373}