{"hash": "6a3a00de5753ffd1a96b33889ad4711c07e1f92449da7d00e94fb68ac1c92c25", "blockhash": "000000000000000000022b45ed06c6f4ccd3cf7fb5ba4856ebd2e58215665228", "vout": [{"scriptPubKey": {"type": "nulldata", "hex": "6a4c500000776500018bffff623cfe112441cdc70386aeaeacb577c031fc3a016b46dc7dc7d0968359b37dcedfd75b87abd0b05dc9b8465baa07fa0612c6675664fc4c4bbf23acfcfaac8058b692fe6808c31d", "asm": "OP_RETURN 0000776500018bffff623cfe112441cdc70386aeaeacb577c031fc3a016b46dc7dc7d0968359b37dcedfd75b87abd0b05dc9b8465baa07fa0612c6675664fc4c4bbf23acfcfaac8058b692fe6808c31d"}, "value": 0.0, "n": 0}, {"scriptPubKey": {"reqSigs": 1, "hex": "76a9148df2d7ec1359dc27691c077c9c70a14a236b1d0388ac", "addresses": ["1DwZC7BLPK1e4M9bfmpMeeRpq7Tpq1jzoQ"], "asm": "OP_DUP OP_HASH160 8df2d7ec1359dc27691c077c9c70a14a236b1d03 OP_EQUALVERIFY OP_CHECKSIG", "type": "pubkeyhash"}, "value": 0.00038169, "n": 1}], "hex": "010000000124c66f7057a1c7867cdb0256641fc0934e8a3ef0e9a25b2ba8ab33d44578b404010000006a473044022014d9531e16f16787a666c25c33b60b84e784bc2c983f53ed9cd793aef2ea574d02202efbcdeebe01aa659ee5227e272937415e3a2d58319f5cdf77e7455eb5eb25b3012103d6cd8edcc20f0cdec3a11da7bb1299dd94c171332b762b9423332849b9cc4391ffffffff020000000000000000536a4c500000776500018bffff623cfe112441cdc70386aeaeacb577c031fc3a016b46dc7dc7d0968359b37dcedfd75b87abd0b05dc9b8465baa07fa0612c6675664fc4c4bbf23acfcfaac8058b692fe6808c31d19950000000000001976a9148df2d7ec1359dc27691c077c9c70a14a236b1d0388ac00000000", "vin": [{"sequence": 4294967295, "scriptSig": {"hex": "473044022014d9531e16f16787a666c25c33b60b84e784bc2c983f53ed9cd793aef2ea574d02202efbcdeebe01aa659ee5227e272937415e3a2d58319f5cdf77e7455eb5eb25b3012103d6cd8edcc20f0cdec3a11da7bb1299dd94c171332b762b9423332849b9cc4391", "asm": "3044022014d9531e16f16787a666c25c33b60b84e784bc2c983f53ed9cd793aef2ea574d02202efbcdeebe01aa659ee5227e272937415e3a2d58319f5cdf77e7455eb5eb25b3[ALL] 03d6cd8edcc20f0cdec3a11da7bb1299dd94c171332b762b9423332849b9cc4391"}, "vout": 1, "txid": "04b47845d433aba82b5ba2e9f03e8a4e93c01f645602db7c86c7a157706fc624"}], "txid": "6a3a00de5753ffd1a96b33889ad4711c07e1f92449da7d00e94fb68ac1c92c25", "blocktime": 1537869901, "version": 1, "confirmations": 11523, "time": 1537869901, "locktime": 0, "vsize": 283, "size": 283}