{"hash": "f38f8945a549d3153d46a7d0c5f4c3c1cb9cfdf9f60eff115485837eb748205d", "blockhash": "0000000000000000001f76057863aec43deb6fa401d9628bb513d65a8098bfab", "vout": [{"scriptPubKey": {"reqSigs": 1, "hex": "a9147341c5f4c6bf218df4568d805cac74b30469335287", "addresses": ["3CCSRcPM9s2WYK2gxkxi5uRnrDuo5Y6c3R"], "asm": "OP_HASH160 7341c5f4c6bf218df4568d805cac74b304693352 OP_EQUAL", "type": "scripthash"}, "value": 0.81317513, "n": 0}], "hex": "01000000000102ca20a15e886e1e77810a7a524ebabdda2afd9e354f33385f65995c4dbd8833370000000000ffffffffd2df113bc05eec0c79e5f40175ebf61f1d00ea326ca55cf80ab9b86bee8f7f3300000000171600148719c184445acef6c6a2f71cafbdb670c621ee51ffffffff0189ced8040000000017a9147341c5f4c6bf218df4568d805cac74b304693352870247304402207682d27a816f2e1f188a09a484aa9b77a13e26eaa0b8781746d5a202aebff981022049c5a2c9f11f717fa68543437a68c1d40232be8b5da05e57cddc27b25be485b10121029561d97ca7d3bb5fa177b10f44b664206e96ac2177ed4ee46a23be5504c2c33102483045022100bef6c47b6f7105ea813bb4c290ee3b5748d255bd989697158972743e88180625022037053a80bbb760420a9bf4875c3b910a82ef8442d48d23b546ac4ca7f004a0d8012102219ab35ea6c069776462f21ac2d63f0a59df56bab96af3227c4673d553c47b2000000000", "vin": [{"txinwitness": ["304402207682d27a816f2e1f188a09a484aa9b77a13e26eaa0b8781746d5a202aebff981022049c5a2c9f11f717fa68543437a68c1d40232be8b5da05e57cddc27b25be485b101", "029561d97ca7d3bb5fa177b10f44b664206e96ac2177ed4ee46a23be5504c2c331"], "sequence": 4294967295, "scriptSig": {"hex": "", "asm": ""}, "vout": 0, "txid": "373388bd4d5c99655f38334f359efd2adabdba4e527a0a81771e6e885ea120ca"}, {"txinwitness": ["3045022100bef6c47b6f7105ea813bb4c290ee3b5748d255bd989697158972743e88180625022037053a80bbb760420a9bf4875c3b910a82ef8442d48d23b546ac4ca7f004a0d801", "02219ab35ea6c069776462f21ac2d63f0a59df56bab96af3227c4673d553c47b20"], "sequence": 4294967295, "scriptSig": {"hex": "1600148719c184445acef6c6a2f71cafbdb670c621ee51", "asm": "00148719c184445acef6c6a2f71cafbdb670c621ee51"}, "vout": 0, "txid": "337f8fee6bb8b90af85ca56c32ea001d1ff6eb7501f4e5790cec5ec03b11dfd2"}], "txid": "6a3a0a0ca165c5f1bd52b785a2cbb23c3590bb078cd729d7834b22b706f3a48c", "blocktime": 1537873891, "version": 1, "confirmations": 11478, "time": 1537873891, "locktime": 0, "vsize": 202, "size": 364}