{"hash": "6a3d86cd985f3ed4f19983ae918dfb5af23632b07cd3d09555ae86c0535bafd2", "blockhash": "0000000000000000001cda96e906b7601b7a6fb1a3b62bca570a9e5d8f4b3de1", "vout": [{"scriptPubKey": {"reqSigs": 1, "hex": "76a9140b69f9084ebe74435718b3523790a9e5c934048888ac", "addresses": ["123MPEEc9smWwU8JVBQcAWPCGUNduwE6gE"], "asm": "OP_DUP OP_HASH160 0b69f9084ebe74435718b3523790a9e5c9340488 OP_EQUALVERIFY OP_CHECKSIG", "type": "pubkeyhash"}, "value": 6.748e-05, "n": 0}, {"scriptPubKey": {"reqSigs": 1, "hex": "76a91456e5c6b59ecf5a6e79843df7e24d2f3d98bf1ae088ac", "addresses": ["18vUNdSaDTgRuotU1UmBqquCemboDU8Lq7"], "asm": "OP_DUP OP_HASH160 56e5c6b59ecf5a6e79843df7e24d2f3d98bf1ae0 OP_EQUALVERIFY OP_CHECKSIG", "type": "pubkeyhash"}, "value": 0.0029, "n": 1}], "hex": "0100000002c94e8c74799a572d24733441d7acd5866318465b896cb2281c09bcbeded89f054e0000006a47304402201843f622df332ad2a0bfddcbe96f12e06ebe80ec6e24ea6454b206039f2ee07d0220362efaa1a7305f7390037c8775561743d2098c8e96051c32280f2a6a5603be5f0121036bca0b0a7f59aee3d76977518360a433b693b3f993ffccd32219cd5d26bd3908ffffffff77339756944b6f938f6ffbc506cb0dfc44e70f689105169e36d5bc7b89b7007b000000006a473044022044780a8feb5a9bc78c5d23ed969407fc4f237bbd79783f37036ea7cbe7fbc3b00220505735baef1f635d77193745ca722cfdc0ebf0e1f08a1118c01f9a800ed687bc0121031744912f65fb70ae9447b82e40b5ccb3e1386f8bfb345f05926ac428ba957089ffffffff025c1a0000000000001976a9140b69f9084ebe74435718b3523790a9e5c934048888acd06c0400000000001976a91456e5c6b59ecf5a6e79843df7e24d2f3d98bf1ae088ac00000000", "vin": [{"sequence": 4294967295, "scriptSig": {"hex": "47304402201843f622df332ad2a0bfddcbe96f12e06ebe80ec6e24ea6454b206039f2ee07d0220362efaa1a7305f7390037c8775561743d2098c8e96051c32280f2a6a5603be5f0121036bca0b0a7f59aee3d76977518360a433b693b3f993ffccd32219cd5d26bd3908", "asm": "304402201843f622df332ad2a0bfddcbe96f12e06ebe80ec6e24ea6454b206039f2ee07d0220362efaa1a7305f7390037c8775561743d2098c8e96051c32280f2a6a5603be5f[ALL] 036bca0b0a7f59aee3d76977518360a433b693b3f993ffccd32219cd5d26bd3908"}, "vout": 78, "txid": "059fd8debebc091c28b26c895b46186386d5acd7413473242d579a79748c4ec9"}, {"sequence": 4294967295, "scriptSig": {"hex": "473044022044780a8feb5a9bc78c5d23ed969407fc4f237bbd79783f37036ea7cbe7fbc3b00220505735baef1f635d77193745ca722cfdc0ebf0e1f08a1118c01f9a800ed687bc0121031744912f65fb70ae9447b82e40b5ccb3e1386f8bfb345f05926ac428ba957089", "asm": "3044022044780a8feb5a9bc78c5d23ed969407fc4f237bbd79783f37036ea7cbe7fbc3b00220505735baef1f635d77193745ca722cfdc0ebf0e1f08a1118c01f9a800ed687bc[ALL] 031744912f65fb70ae9447b82e40b5ccb3e1386f8bfb345f05926ac428ba957089"}, "vout": 0, "txid": "7b00b7897bbcd5369e160591680fe744fc0dcb06c5fb6f8f936f4b9456973377"}], "txid": "6a3d86cd985f3ed4f19983ae918dfb5af23632b07cd3d09555ae86c0535bafd2", "blocktime": 1537873282, "version": 1, "confirmations": 11481, "time": 1537873282, "locktime": 0, "vsize": 372, "size": 372}