{"hash": "6a40bf81cca64995c0505cee809ec542baa7aa6e105bedfc46ae729d000e5b7d", "blockhash": "0000000000000000000e13cef7c366c0283d82e591d1acd082e914b08063cdf1", "vout": [{"scriptPubKey": {"reqSigs": 1, "hex": "76a914001308a43235584fff886034dc5502bdba0edea588ac", "addresses": ["11PoVLMcwF66SrzZMytCeXfiHYPXQy79V"], "asm": "OP_DUP OP_HASH160 001308a43235584fff886034dc5502bdba0edea5 OP_EQUALVERIFY OP_CHECKSIG", "type": "pubkeyhash"}, "value": 0.01563961, "n": 0}, {"scriptPubKey": {"reqSigs": 1, "hex": "76a91487f6fa7ac5c0e3c8805e975039acd0f820f916b788ac", "addresses": ["1DPv6G4Y2hqCp4kq8preh5aXa4gY9Tmyb9"], "asm": "OP_DUP OP_HASH160 87f6fa7ac5c0e3c8805e975039acd0f820f916b7 OP_EQUALVERIFY OP_CHECKSIG", "type": "pubkeyhash"}, "value": 0.01870382, "n": 1}], "hex": "01000000013488e1937a65e495e680373aee934281cc7ae659af9c59b640604dde8b4f11a9010000006b48304502210093f8849827769199417cb9e113a883a53da73562ab21cbcc34eb45abfc719e5802205ee3797b34210dc574b5f34dbed7373942c5d3533012432c9ab85590abc1f8c501210375944df44877a59e972a75a77b332b9c701e866850fe5a68fac7fa1908daf51fffffffff0239dd1700000000001976a914001308a43235584fff886034dc5502bdba0edea588ac2e8a1c00000000001976a91487f6fa7ac5c0e3c8805e975039acd0f820f916b788ac00000000", "vin": [{"sequence": 4294967295, "scriptSig": {"hex": "48304502210093f8849827769199417cb9e113a883a53da73562ab21cbcc34eb45abfc719e5802205ee3797b34210dc574b5f34dbed7373942c5d3533012432c9ab85590abc1f8c501210375944df44877a59e972a75a77b332b9c701e866850fe5a68fac7fa1908daf51f", "asm": "304502210093f8849827769199417cb9e113a883a53da73562ab21cbcc34eb45abfc719e5802205ee3797b34210dc574b5f34dbed7373942c5d3533012432c9ab85590abc1f8c5[ALL] 0375944df44877a59e972a75a77b332b9c701e866850fe5a68fac7fa1908daf51f"}, "vout": 1, "txid": "a9114f8bde4d6040b6599caf59e67acc814293ee3a3780e695e4657a93e18834"}], "txid": "6a40bf81cca64995c0505cee809ec542baa7aa6e105bedfc46ae729d000e5b7d", "blocktime": 1537871767, "version": 1, "confirmations": 11495, "time": 1537871767, "locktime": 0, "vsize": 226, "size": 226}