{"hash": "6a404cfb3b0a7e40e8779a16b5d44a26a60c78bda63f12a28b4812df0a7d6f5e", "blockhash": "00000000000000000024a2167bbff67b0be802c0b01cdd79e6331c2be6459f87", "vout": [{"scriptPubKey": {"reqSigs": 1, "hex": "a91487f9be3daae02eceb9bfffc65148318438cbf2d287", "addresses": ["3E5zKu1u9B6vFRU8z6zmm4FrUpRADv5ahn"], "asm": "OP_HASH160 87f9be3daae02eceb9bfffc65148318438cbf2d2 OP_EQUAL", "type": "scripthash"}, "value": 1.34695038, "n": 0}], "hex": "010000000695377dbccd20f0669cb1b375c23f92d88beb28219bb72cf623b344093ebdb21b000000006b483045022100d42f931548e876d74045dca4567e9b357f18d44b820b7dbbda205dcab9cd8d860220296a733d304a3f0d5d873b5df51fc22d6da0cd6887669d1dab80ec1836ca9678012103edac33d4d6442514e444bcd7b7d15b2adc9dac5cd86d3aa619a5436bdd713d99ffffffffd2adcfbc8ba98264084dc2fea309d37127fcd27e657b39ac6a3bf1c454bd942c030000006a47304402206e530b7111471004c1768fd13004d15fd8bcce3419e1705a2472a42fba5b192c0220225cd97555db078305eaf06707360946190c1c2bf95153402fc4083c60a8240a012103edac33d4d6442514e444bcd7b7d15b2adc9dac5cd86d3aa619a5436bdd713d99ffffffff4dd8efaf1455c8379f094f6a83a5d684b93a213983d5f7c10eb9fb96c5e6b762000000006a4730440220508321fe981601e099b59ba19d23da0537a57753c8e6b2d1847676a1ecf21edb02206bcbc222ce38010f1fc867948ee054a3ee29f3222a7902b305652947cce1ae56012103edac33d4d6442514e444bcd7b7d15b2adc9dac5cd86d3aa619a5436bdd713d99ffffffff822ea0edde46a08253655f94a5a515641d1eddf57d9cf24cee75e5b8c56cd0b2000000006a47304402203e0b850901674f0d69e274277acefb50e3f9bcca1e47b6ff1a8080a54f2ebe7502202b04cbcc313b63ee21af7413b55eff73e2288aa8ced108fe8cd52eaaa5dd0b3e012103edac33d4d6442514e444bcd7b7d15b2adc9dac5cd86d3aa619a5436bdd713d99ffffffff4d77b0af639924289add3ff80f8f6a64091f25320f405a0e22bd1bd5831919d8010000006a4730440220136ea147d9c91c3b93ebca0c5f928d07f367fd939abab24baa0e01c6339f63a502200ce6ece38ad20cb707beae7333d1c9c9326a1278d627c4c48f730d6a1f152db5012103edac33d4d6442514e444bcd7b7d15b2adc9dac5cd86d3aa619a5436bdd713d99ffffffff85f9c185ed265a50349446052fd3552c9c1b144954efcb8ee8ff19604072e6ea010000006a47304402205bef1cccacf915b21bb890a88fd5237165a8ad03391622b4b2cdf1e566cc1a6b02200b763ddbb61b1e774a6e0bef12aae2029bf95d25fff85fd22bc6ef82ac3ad461012103edac33d4d6442514e444bcd7b7d15b2adc9dac5cd86d3aa619a5436bdd713d99ffffffff017e4807080000000017a91487f9be3daae02eceb9bfffc65148318438cbf2d28700000000", "vin": [{"sequence": 4294967295, "scriptSig": {"hex": "483045022100d42f931548e876d74045dca4567e9b357f18d44b820b7dbbda205dcab9cd8d860220296a733d304a3f0d5d873b5df51fc22d6da0cd6887669d1dab80ec1836ca9678012103edac33d4d6442514e444bcd7b7d15b2adc9dac5cd86d3aa619a5436bdd713d99", "asm": "3045022100d42f931548e876d74045dca4567e9b357f18d44b820b7dbbda205dcab9cd8d860220296a733d304a3f0d5d873b5df51fc22d6da0cd6887669d1dab80ec1836ca9678[ALL] 03edac33d4d6442514e444bcd7b7d15b2adc9dac5cd86d3aa619a5436bdd713d99"}, "vout": 0, "txid": "1bb2bd3e0944b323f62cb79b2128eb8bd8923fc275b3b19c66f020cdbc7d3795"}, {"sequence": 4294967295, "scriptSig": {"hex": "47304402206e530b7111471004c1768fd13004d15fd8bcce3419e1705a2472a42fba5b192c0220225cd97555db078305eaf06707360946190c1c2bf95153402fc4083c60a8240a012103edac33d4d6442514e444bcd7b7d15b2adc9dac5cd86d3aa619a5436bdd713d99", "asm": "304402206e530b7111471004c1768fd13004d15fd8bcce3419e1705a2472a42fba5b192c0220225cd97555db078305eaf06707360946190c1c2bf95153402fc4083c60a8240a[ALL] 03edac33d4d6442514e444bcd7b7d15b2adc9dac5cd86d3aa619a5436bdd713d99"}, "vout": 3, "txid": "2c94bd54c4f13b6aac397b657ed2fc2771d309a3fec24d086482a98bbccfadd2"}, {"sequence": 4294967295, "scriptSig": {"hex": "4730440220508321fe981601e099b59ba19d23da0537a57753c8e6b2d1847676a1ecf21edb02206bcbc222ce38010f1fc867948ee054a3ee29f3222a7902b305652947cce1ae56012103edac33d4d6442514e444bcd7b7d15b2adc9dac5cd86d3aa619a5436bdd713d99", "asm": "30440220508321fe981601e099b59ba19d23da0537a57753c8e6b2d1847676a1ecf21edb02206bcbc222ce38010f1fc867948ee054a3ee29f3222a7902b305652947cce1ae56[ALL] 03edac33d4d6442514e444bcd7b7d15b2adc9dac5cd86d3aa619a5436bdd713d99"}, "vout": 0, "txid": "62b7e6c596fbb90ec1f7d58339213ab984d6a5836a4f099f37c85514afefd84d"}, {"sequence": 4294967295, "scriptSig": {"hex": "47304402203e0b850901674f0d69e274277acefb50e3f9bcca1e47b6ff1a8080a54f2ebe7502202b04cbcc313b63ee21af7413b55eff73e2288aa8ced108fe8cd52eaaa5dd0b3e012103edac33d4d6442514e444bcd7b7d15b2adc9dac5cd86d3aa619a5436bdd713d99", "asm": "304402203e0b850901674f0d69e274277acefb50e3f9bcca1e47b6ff1a8080a54f2ebe7502202b04cbcc313b63ee21af7413b55eff73e2288aa8ced108fe8cd52eaaa5dd0b3e[ALL] 03edac33d4d6442514e444bcd7b7d15b2adc9dac5cd86d3aa619a5436bdd713d99"}, "vout": 0, "txid": "b2d06cc5b8e575ee4cf29c7df5dd1e1d6415a5a5945f655382a046deeda02e82"}, {"sequence": 4294967295, "scriptSig": {"hex": "4730440220136ea147d9c91c3b93ebca0c5f928d07f367fd939abab24baa0e01c6339f63a502200ce6ece38ad20cb707beae7333d1c9c9326a1278d627c4c48f730d6a1f152db5012103edac33d4d6442514e444bcd7b7d15b2adc9dac5cd86d3aa619a5436bdd713d99", "asm": "30440220136ea147d9c91c3b93ebca0c5f928d07f367fd939abab24baa0e01c6339f63a502200ce6ece38ad20cb707beae7333d1c9c9326a1278d627c4c48f730d6a1f152db5[ALL] 03edac33d4d6442514e444bcd7b7d15b2adc9dac5cd86d3aa619a5436bdd713d99"}, "vout": 1, "txid": "d8191983d51bbd220e5a400f32251f09646a8f0ff83fdd9a28249963afb0774d"}, {"sequence": 4294967295, "scriptSig": {"hex": "47304402205bef1cccacf915b21bb890a88fd5237165a8ad03391622b4b2cdf1e566cc1a6b02200b763ddbb61b1e774a6e0bef12aae2029bf95d25fff85fd22bc6ef82ac3ad461012103edac33d4d6442514e444bcd7b7d15b2adc9dac5cd86d3aa619a5436bdd713d99", "asm": "304402205bef1cccacf915b21bb890a88fd5237165a8ad03391622b4b2cdf1e566cc1a6b02200b763ddbb61b1e774a6e0bef12aae2029bf95d25fff85fd22bc6ef82ac3ad461[ALL] 03edac33d4d6442514e444bcd7b7d15b2adc9dac5cd86d3aa619a5436bdd713d99"}, "vout": 1, "txid": "eae672406019ffe88ecbef5449141b9c2c55d32f05469434505a26ed85c1f985"}], "txid": "6a404cfb3b0a7e40e8779a16b5d44a26a60c78bda63f12a28b4812df0a7d6f5e", "blocktime": 1537870564, "version": 1, "confirmations": 11515, "time": 1537870564, "locktime": 0, "vsize": 925, "size": 925}