{"hash": "6a456a84f5258c5f902ec7f1d04c980bef1cf0d3ae181ec0d895e94574fcee51", "blockhash": "0000000000000000000dcc0f55137456b1a82d3642486a52398922ac4d620174", "vout": [{"scriptPubKey": {"reqSigs": 1, "hex": "76a914a27bf4a020c10506e945fa2a1208f159264401cc88ac", "addresses": ["1Fp8xfJcBv57JqjzJMKtbLVoSEWNct5K8z"], "asm": "OP_DUP OP_HASH160 a27bf4a020c10506e945fa2a1208f159264401cc OP_EQUALVERIFY OP_CHECKSIG", "type": "pubkeyhash"}, "value": 0.01052058, "n": 0}], "hex": "0100000008cb66dd25d57f887ae666169007820717607f9a08dfed54a03f46b10929ecace4c20000006a4730440220130937adae4a5702b28c91957619a68c826f7d3bad4cbe4a445524679dbbc16c02207771b94395c9df902681fede72587e1259ae76f5b7b2544b2c2fbdd1fe9280d90121032da05ee0f6fc48d5d28e295f021403c9a3ebda084088c3b8d51ee691b11408f9ffffffffc1b91f50b7a2fc0983396e54d028cf0d2d4eca7bee5ec4f2f5f0b9a8f37c3f10bf0000006a47304402204947d3161696c179384cb6e588803208ea372d83888b5ba4312e0e41e64fd63202206550ea42758e1ade4e5a8ea8e0340e66e7bd2a56f380ec78426beb3f0b00797d0121032da05ee0f6fc48d5d28e295f021403c9a3ebda084088c3b8d51ee691b11408f9ffffffff09d6cd82ae85b961c8cd518a96db84385fc03f6fda42dca6bd5da01f564b127ac20000006a4730440220608c1be55ca41230d89fd0d866c81d06719f71a2b309b40d188c7a5c468d917b02207a9829c6280a91a9f66bbbfe5d5730e032415bb998cbdea040cec8eb64dc2dec0121032da05ee0f6fc48d5d28e295f021403c9a3ebda084088c3b8d51ee691b11408f9ffffffffc658eeaf4d6c9e6b68966a5f8756c41a5686f6ac56f1806316fd1fad833f21cbc30000006a473044022006309258807667f6e81cb5e4035c204235bc80a2c966f9cb666d2a4a4a20b4e1022041b5e2bd856ffb1e5e636a61f420101bf8ff57248d96b5e006d3d1c81d3204020121032da05ee0f6fc48d5d28e295f021403c9a3ebda084088c3b8d51ee691b11408f9ffffffffde3abaed7b50b221802d9bbe47ff08b41c58c34d76ad661e44ccd5971c7de464c20000006a4730440220323b87603050e3dbf3e20991697fd06ff57fa74a5382c94f38752e77436c864b0220150ba8840c50aa378b9356f527073f5e608d60565f95ff8eac4a7ab6d1f304e80121032da05ee0f6fc48d5d28e295f021403c9a3ebda084088c3b8d51ee691b11408f9ffffffffd387e0c5b7c7e408fe6d84d687f6e7b708bf8d874bdf5910820f278521d1aa55c00000006b483045022100cdcc7465cd71f7f64054ed2a59a15669c439f46d3175ddcc192feaf2536a1f3f02201b9fe5f271a106dff6cf002c11a23920b1a7094b48f03b7a9f7fa4b3fec6c3100121032da05ee0f6fc48d5d28e295f021403c9a3ebda084088c3b8d51ee691b11408f9fffffffffcf5e2efbe4d8e8910a2d3ae7486485b108311ff1280a76fbbe917e02c45fedfc10000006b483045022100800550d8ddbebfbcfc8e7e49ba96f22c70563be5b5387fd33b81ce17cd7df096022037940ba00d775abeffea5a60cd27b5a73a6648044e40263ad4a6cebacf2ffd8b0121032da05ee0f6fc48d5d28e295f021403c9a3ebda084088c3b8d51ee691b11408f9ffffffff9f0bce0041e35aeab5069e4a276d07da69d8f87b9aa8fdde31ed5abd0776ee3bc00000006a473044022073a1c0ebd971123876ef605d5deca9d8102045eafaf086327810fbda59c928bb022014199f74c40182143e981902ece367cf22cf2b92f18f917e66feae8bf15bd51f0121032da05ee0f6fc48d5d28e295f021403c9a3ebda084088c3b8d51ee691b11408f9ffffffff019a0d1000000000001976a914a27bf4a020c10506e945fa2a1208f159264401cc88ac00000000", "vin": [{"sequence": 4294967295, "scriptSig": {"hex": "4730440220130937adae4a5702b28c91957619a68c826f7d3bad4cbe4a445524679dbbc16c02207771b94395c9df902681fede72587e1259ae76f5b7b2544b2c2fbdd1fe9280d90121032da05ee0f6fc48d5d28e295f021403c9a3ebda084088c3b8d51ee691b11408f9", "asm": "30440220130937adae4a5702b28c91957619a68c826f7d3bad4cbe4a445524679dbbc16c02207771b94395c9df902681fede72587e1259ae76f5b7b2544b2c2fbdd1fe9280d9[ALL] 032da05ee0f6fc48d5d28e295f021403c9a3ebda084088c3b8d51ee691b11408f9"}, "vout": 194, "txid": "e4acec2909b1463fa054eddf089a7f6017078207901666e67a887fd525dd66cb"}, {"sequence": 4294967295, "scriptSig": {"hex": "47304402204947d3161696c179384cb6e588803208ea372d83888b5ba4312e0e41e64fd63202206550ea42758e1ade4e5a8ea8e0340e66e7bd2a56f380ec78426beb3f0b00797d0121032da05ee0f6fc48d5d28e295f021403c9a3ebda084088c3b8d51ee691b11408f9", "asm": "304402204947d3161696c179384cb6e588803208ea372d83888b5ba4312e0e41e64fd63202206550ea42758e1ade4e5a8ea8e0340e66e7bd2a56f380ec78426beb3f0b00797d[ALL] 032da05ee0f6fc48d5d28e295f021403c9a3ebda084088c3b8d51ee691b11408f9"}, "vout": 191, "txid": "103f7cf3a8b9f0f5f2c45eee7bca4e2d0dcf28d0546e398309fca2b7501fb9c1"}, {"sequence": 4294967295, "scriptSig": {"hex": "4730440220608c1be55ca41230d89fd0d866c81d06719f71a2b309b40d188c7a5c468d917b02207a9829c6280a91a9f66bbbfe5d5730e032415bb998cbdea040cec8eb64dc2dec0121032da05ee0f6fc48d5d28e295f021403c9a3ebda084088c3b8d51ee691b11408f9", "asm": "30440220608c1be55ca41230d89fd0d866c81d06719f71a2b309b40d188c7a5c468d917b02207a9829c6280a91a9f66bbbfe5d5730e032415bb998cbdea040cec8eb64dc2dec[ALL] 032da05ee0f6fc48d5d28e295f021403c9a3ebda084088c3b8d51ee691b11408f9"}, "vout": 194, "txid": "7a124b561fa05dbda6dc42da6f3fc05f3884db968a51cdc861b985ae82cdd609"}, {"sequence": 4294967295, "scriptSig": {"hex": "473044022006309258807667f6e81cb5e4035c204235bc80a2c966f9cb666d2a4a4a20b4e1022041b5e2bd856ffb1e5e636a61f420101bf8ff57248d96b5e006d3d1c81d3204020121032da05ee0f6fc48d5d28e295f021403c9a3ebda084088c3b8d51ee691b11408f9", "asm": "3044022006309258807667f6e81cb5e4035c204235bc80a2c966f9cb666d2a4a4a20b4e1022041b5e2bd856ffb1e5e636a61f420101bf8ff57248d96b5e006d3d1c81d320402[ALL] 032da05ee0f6fc48d5d28e295f021403c9a3ebda084088c3b8d51ee691b11408f9"}, "vout": 195, "txid": "cb213f83ad1ffd166380f156acf686561ac456875f6a96686b9e6c4dafee58c6"}, {"sequence": 4294967295, "scriptSig": {"hex": "4730440220323b87603050e3dbf3e20991697fd06ff57fa74a5382c94f38752e77436c864b0220150ba8840c50aa378b9356f527073f5e608d60565f95ff8eac4a7ab6d1f304e80121032da05ee0f6fc48d5d28e295f021403c9a3ebda084088c3b8d51ee691b11408f9", "asm": "30440220323b87603050e3dbf3e20991697fd06ff57fa74a5382c94f38752e77436c864b0220150ba8840c50aa378b9356f527073f5e608d60565f95ff8eac4a7ab6d1f304e8[ALL] 032da05ee0f6fc48d5d28e295f021403c9a3ebda084088c3b8d51ee691b11408f9"}, "vout": 194, "txid": "64e47d1c97d5cc441e66ad764dc3581cb408ff47be9b2d8021b2507bedba3ade"}, {"sequence": 4294967295, "scriptSig": {"hex": "483045022100cdcc7465cd71f7f64054ed2a59a15669c439f46d3175ddcc192feaf2536a1f3f02201b9fe5f271a106dff6cf002c11a23920b1a7094b48f03b7a9f7fa4b3fec6c3100121032da05ee0f6fc48d5d28e295f021403c9a3ebda084088c3b8d51ee691b11408f9", "asm": "3045022100cdcc7465cd71f7f64054ed2a59a15669c439f46d3175ddcc192feaf2536a1f3f02201b9fe5f271a106dff6cf002c11a23920b1a7094b48f03b7a9f7fa4b3fec6c310[ALL] 032da05ee0f6fc48d5d28e295f021403c9a3ebda084088c3b8d51ee691b11408f9"}, "vout": 192, "txid": "55aad12185270f821059df4b878dbf08b7e7f687d6846dfe08e4c7b7c5e087d3"}, {"sequence": 4294967295, "scriptSig": {"hex": "483045022100800550d8ddbebfbcfc8e7e49ba96f22c70563be5b5387fd33b81ce17cd7df096022037940ba00d775abeffea5a60cd27b5a73a6648044e40263ad4a6cebacf2ffd8b0121032da05ee0f6fc48d5d28e295f021403c9a3ebda084088c3b8d51ee691b11408f9", "asm": "3045022100800550d8ddbebfbcfc8e7e49ba96f22c70563be5b5387fd33b81ce17cd7df096022037940ba00d775abeffea5a60cd27b5a73a6648044e40263ad4a6cebacf2ffd8b[ALL] 032da05ee0f6fc48d5d28e295f021403c9a3ebda084088c3b8d51ee691b11408f9"}, "vout": 193, "txid": "dffe452ce017e9bb6fa78012ff1183105b488674aed3a210898e4dbeefe2f5fc"}, {"sequence": 4294967295, "scriptSig": {"hex": "473044022073a1c0ebd971123876ef605d5deca9d8102045eafaf086327810fbda59c928bb022014199f74c40182143e981902ece367cf22cf2b92f18f917e66feae8bf15bd51f0121032da05ee0f6fc48d5d28e295f021403c9a3ebda084088c3b8d51ee691b11408f9", "asm": "3044022073a1c0ebd971123876ef605d5deca9d8102045eafaf086327810fbda59c928bb022014199f74c40182143e981902ece367cf22cf2b92f18f917e66feae8bf15bd51f[ALL] 032da05ee0f6fc48d5d28e295f021403c9a3ebda084088c3b8d51ee691b11408f9"}, "vout": 192, "txid": "3bee7607bd5aed31defda89a7bf8d869da076d274a9e06b5ea5ae34100ce0b9f"}], "txid": "6a456a84f5258c5f902ec7f1d04c980bef1cf0d3ae181ec0d895e94574fcee51", "blocktime": 1537870268, "version": 1, "confirmations": 11516, "time": 1537870268, "locktime": 0, "vsize": 1222, "size": 1222}