{"hash": "6a451f6b206cd6cccb86f27ab6c763d7ad46d125103cace6fd3fde7ddad1233d", "blockhash": "0000000000000000000e13cef7c366c0283d82e591d1acd082e914b08063cdf1", "vout": [{"scriptPubKey": {"reqSigs": 1, "hex": "76a91488301537ab5540d46c685bd862602f89f7b2e93d88ac", "addresses": ["1DR6VwsY4qnM4zPWSbznbgFq6df2BgSX1y"], "asm": "OP_DUP OP_HASH160 88301537ab5540d46c685bd862602f89f7b2e93d OP_EQUALVERIFY OP_CHECKSIG", "type": "pubkeyhash"}, "value": 0.45077217, "n": 0}, {"scriptPubKey": {"reqSigs": 1, "hex": "76a9145e4a1d104f961f9a988686efc130d6465941400f88ac", "addresses": ["19bZJXmJM5kfctFkcskAo9d3LhV6FR5RDc"], "asm": "OP_DUP OP_HASH160 5e4a1d104f961f9a988686efc130d6465941400f OP_EQUALVERIFY OP_CHECKSIG", "type": "pubkeyhash"}, "value": 0.96680027, "n": 1}], "hex": "0100000001e7c2e2c3ea1f963ada4d2c3a51157ea3c26fca753937f1914d6d7623adf609b9010000006a4730440220119a854ff9f2d9b53e78fca182a3daa862390bf44958a17bbac1bf5ade20af3402200138aaf3dbda22af8881400460fe46bc5f9059d1a3887867af97592d44bf750c012102aa102dc38f6b3e975eb30dde30c28b77f5202225c9d26f3a461213290150dcc9ffffffff02e1d2af02000000001976a91488301537ab5540d46c685bd862602f89f7b2e93d88ac5b38c305000000001976a9145e4a1d104f961f9a988686efc130d6465941400f88ac00000000", "vin": [{"sequence": 4294967295, "scriptSig": {"hex": "4730440220119a854ff9f2d9b53e78fca182a3daa862390bf44958a17bbac1bf5ade20af3402200138aaf3dbda22af8881400460fe46bc5f9059d1a3887867af97592d44bf750c012102aa102dc38f6b3e975eb30dde30c28b77f5202225c9d26f3a461213290150dcc9", "asm": "30440220119a854ff9f2d9b53e78fca182a3daa862390bf44958a17bbac1bf5ade20af3402200138aaf3dbda22af8881400460fe46bc5f9059d1a3887867af97592d44bf750c[ALL] 02aa102dc38f6b3e975eb30dde30c28b77f5202225c9d26f3a461213290150dcc9"}, "vout": 1, "txid": "b909f6ad23766d4d91f1373975ca6fc2a37e15513a2c4dda3a961feac3e2c2e7"}], "txid": "6a451f6b206cd6cccb86f27ab6c763d7ad46d125103cace6fd3fde7ddad1233d", "blocktime": 1537871767, "version": 1, "confirmations": 11490, "time": 1537871767, "locktime": 0, "vsize": 225, "size": 225}