{"hash": "6a4f79ef2f538562b6a0b975e7d6feda2e5ba023f0d7a229320d6fc4ae8afdeb", "blockhash": "00000000000000000018f53835495a110e01622372bf6ae95dc86f2b0ab887b0", "vout": [{"scriptPubKey": {"reqSigs": 1, "hex": "76a91480ecc5e30ed17cf5f6aa7af4e56924e5f695503288ac", "addresses": ["1Ckh8qAfExPXcwpvPV4keXh8ZWYnKdk6o6"], "asm": "OP_DUP OP_HASH160 80ecc5e30ed17cf5f6aa7af4e56924e5f6955032 OP_EQUALVERIFY OP_CHECKSIG", "type": "pubkeyhash"}, "value": 0.00010529, "n": 0}, {"scriptPubKey": {"reqSigs": 1, "hex": "76a9140cf6c14c71a041e34ae1535d0046d5e755d3c79f88ac", "addresses": ["12BYi9QjHg3FyynePETfudsPoYGQSvrdKv"], "asm": "OP_DUP OP_HASH160 0cf6c14c71a041e34ae1535d0046d5e755d3c79f OP_EQUALVERIFY OP_CHECKSIG", "type": "pubkeyhash"}, "value": 0.00406018, "n": 1}], "hex": "0100000002ac7f8de4db3f887ab22c60b85c3bb7a4667b951ff961fa9da5e86a05b21f408e000000006a47304402207db1102f5bc71c355fb4d35f4ea21d96655d6ed7378df5edc35d08f81e7739da022041d636312732f3f07140e82fd67ec03b7b35908fec59fb6d5e6624214f29eef601210373a5576659960da15243b5512767f2b99e51c5ba9fd83d669545a6f78fb190bcfffffffffe599621e91d9c677b1b31b4ebda2807746583ca69b2103a754bf45171ead0ab000000006b483045022100edd5f2868a9646111b3d9c5733d7d2f328e0e061f5ecda81e4dc4adabe409611022020b7b02b84c3bc50d4e4542dbdba1727d2111a47517de66c0c42cfe07ccbb13b012102e6403368740f9f4c5fff0a98127f729a601a0cf212db29c066373352b40ea214ffffffff0221290000000000001976a91480ecc5e30ed17cf5f6aa7af4e56924e5f695503288ac02320600000000001976a9140cf6c14c71a041e34ae1535d0046d5e755d3c79f88ac00000000", "vin": [{"sequence": 4294967295, "scriptSig": {"hex": "47304402207db1102f5bc71c355fb4d35f4ea21d96655d6ed7378df5edc35d08f81e7739da022041d636312732f3f07140e82fd67ec03b7b35908fec59fb6d5e6624214f29eef601210373a5576659960da15243b5512767f2b99e51c5ba9fd83d669545a6f78fb190bc", "asm": "304402207db1102f5bc71c355fb4d35f4ea21d96655d6ed7378df5edc35d08f81e7739da022041d636312732f3f07140e82fd67ec03b7b35908fec59fb6d5e6624214f29eef6[ALL] 0373a5576659960da15243b5512767f2b99e51c5ba9fd83d669545a6f78fb190bc"}, "vout": 0, "txid": "8e401fb2056ae8a59dfa61f91f957b66a4b73b5cb8602cb27a883fdbe48d7fac"}, {"sequence": 4294967295, "scriptSig": {"hex": "483045022100edd5f2868a9646111b3d9c5733d7d2f328e0e061f5ecda81e4dc4adabe409611022020b7b02b84c3bc50d4e4542dbdba1727d2111a47517de66c0c42cfe07ccbb13b012102e6403368740f9f4c5fff0a98127f729a601a0cf212db29c066373352b40ea214", "asm": "3045022100edd5f2868a9646111b3d9c5733d7d2f328e0e061f5ecda81e4dc4adabe409611022020b7b02b84c3bc50d4e4542dbdba1727d2111a47517de66c0c42cfe07ccbb13b[ALL] 02e6403368740f9f4c5fff0a98127f729a601a0cf212db29c066373352b40ea214"}, "vout": 0, "txid": "abd0ea7151f44b753a10b269ca8365740728daebb4311b7b679c1de9219659fe"}], "txid": "6a4f79ef2f538562b6a0b975e7d6feda2e5ba023f0d7a229320d6fc4ae8afdeb", "blocktime": 1537870928, "version": 1, "confirmations": 11514, "time": 1537870928, "locktime": 0, "vsize": 373, "size": 373}