{"hash": "6a5080d4c294e5a8d2c92625c50211e71f4e05c31deb39450cb970cb6d5886b2", "blockhash": "00000000000000000024a2167bbff67b0be802c0b01cdd79e6331c2be6459f87", "vout": [{"scriptPubKey": {"reqSigs": 1, "hex": "a914557d8ac728d08c875c638133a360daf28357fc4187", "addresses": ["39V3kffcifeb9AurEoRkBnAyG1EdY9b6aj"], "asm": "OP_HASH160 557d8ac728d08c875c638133a360daf28357fc41 OP_EQUAL", "type": "scripthash"}, "value": 0.0045, "n": 0}], "hex": "01000000010d942bb45f05a430a7eb3a980b4d364cadb2b850f35faa658ccb25bd38697ffd010000006a47304402203f2b9cbbdee32f829c2e6bde562d34eb76fc39dcf96da676c07e9a5449253e270220707b45a220ac1d05987b5c1279d4e1b6efdaf61e99d2c6168526705dfb1aa5e40121035a123227468d9b195f1430170e9c93bc53e5c651dd8ae4bb494bce50df23d6a5ffffffff01d0dd06000000000017a914557d8ac728d08c875c638133a360daf28357fc418700000000", "vin": [{"sequence": 4294967295, "scriptSig": {"hex": "47304402203f2b9cbbdee32f829c2e6bde562d34eb76fc39dcf96da676c07e9a5449253e270220707b45a220ac1d05987b5c1279d4e1b6efdaf61e99d2c6168526705dfb1aa5e40121035a123227468d9b195f1430170e9c93bc53e5c651dd8ae4bb494bce50df23d6a5", "asm": "304402203f2b9cbbdee32f829c2e6bde562d34eb76fc39dcf96da676c07e9a5449253e270220707b45a220ac1d05987b5c1279d4e1b6efdaf61e99d2c6168526705dfb1aa5e4[ALL] 035a123227468d9b195f1430170e9c93bc53e5c651dd8ae4bb494bce50df23d6a5"}, "vout": 1, "txid": "fd7f6938bd25cb8c65aa5ff350b8b2ad4c364d0b983aeba730a4055fb42b940d"}], "txid": "6a5080d4c294e5a8d2c92625c50211e71f4e05c31deb39450cb970cb6d5886b2", "blocktime": 1537870564, "version": 1, "confirmations": 11515, "time": 1537870564, "locktime": 0, "vsize": 189, "size": 189}