{"hash": "6a523c024f67c603913fb57aedc1a5d827588507534ddb2dbb2b72f2789fdd38", "blockhash": "00000000000000000004ffacab907a6b429b9a5745fa0b75af4234bf69dd7176", "vout": [{"scriptPubKey": {"reqSigs": 1, "hex": "76a914f2410c1186236fed84535d4965b0a0519669f0fe88ac", "addresses": ["1P5vSyhouX7nXWdQKYK1GqsmzgFyBRWSzR"], "asm": "OP_DUP OP_HASH160 f2410c1186236fed84535d4965b0a0519669f0fe OP_EQUALVERIFY OP_CHECKSIG", "type": "pubkeyhash"}, "value": 0.00156222, "n": 0}, {"scriptPubKey": {"reqSigs": 1, "hex": "76a91454046f13abbeab563930a2176d5c50666a4d9cb688ac", "addresses": ["18fF5Bo4ETJz8eYD3vdTQ19GNN4tEZUhpP"], "asm": "OP_DUP OP_HASH160 54046f13abbeab563930a2176d5c50666a4d9cb6 OP_EQUALVERIFY OP_CHECKSIG", "type": "pubkeyhash"}, "value": 0.00584757, "n": 1}], "hex": "010000000107b83c3af9bddda489ef85e69a2a730d729beeaf346391e3e0bceb27421f04cb000000006a473044022027459c2e4141cfb804ede792975441afaa81842c3e346d4d8fe31733b898b6ed022010156d0e3bb8747ff6152b2394c7c085e4669c9020cf630b96a09ba7b4ee4a5c012102a6828810eacf101830a894512de54012a33c423c573cae63aa404563d0c5fcceffffffff023e620200000000001976a914f2410c1186236fed84535d4965b0a0519669f0fe88ac35ec0800000000001976a91454046f13abbeab563930a2176d5c50666a4d9cb688ac00000000", "vin": [{"sequence": 4294967295, "scriptSig": {"hex": "473044022027459c2e4141cfb804ede792975441afaa81842c3e346d4d8fe31733b898b6ed022010156d0e3bb8747ff6152b2394c7c085e4669c9020cf630b96a09ba7b4ee4a5c012102a6828810eacf101830a894512de54012a33c423c573cae63aa404563d0c5fcce", "asm": "3044022027459c2e4141cfb804ede792975441afaa81842c3e346d4d8fe31733b898b6ed022010156d0e3bb8747ff6152b2394c7c085e4669c9020cf630b96a09ba7b4ee4a5c[ALL] 02a6828810eacf101830a894512de54012a33c423c573cae63aa404563d0c5fcce"}, "vout": 0, "txid": "cb041f4227ebbce0e3916334afee9b720d732a9ae685ef89a4ddbdf93a3cb807"}], "txid": "6a523c024f67c603913fb57aedc1a5d827588507534ddb2dbb2b72f2789fdd38", "blocktime": 1537875543, "version": 1, "confirmations": 11464, "time": 1537875543, "locktime": 0, "vsize": 225, "size": 225}