{"hash": "6a525212ce2c215c6e3f8cd4454c06218e84ea8333da15313595e900b654553c", "blockhash": "00000000000000000024a2167bbff67b0be802c0b01cdd79e6331c2be6459f87", "vout": [{"scriptPubKey": {"reqSigs": 1, "hex": "a9143a5dc44269867c2a5190c0c6f48462c6d53df63787", "addresses": ["371dSgyyjEiiaCMBA4RnnnrEExxZvQwY6p"], "asm": "OP_HASH160 3a5dc44269867c2a5190c0c6f48462c6d53df637 OP_EQUAL", "type": "scripthash"}, "value": 0.06, "n": 0}, {"scriptPubKey": {"reqSigs": 1, "hex": "76a914bae025140c454518b8cba0c25d45a6dc87f4b9ce88ac", "addresses": ["1J37CY8hcdUXQ1KfBhMCsUVafa8XjDsdCn"], "asm": "OP_DUP OP_HASH160 bae025140c454518b8cba0c25d45a6dc87f4b9ce OP_EQUALVERIFY OP_CHECKSIG", "type": "pubkeyhash"}, "value": 0.03125478, "n": 1}], "hex": "0100000007a589824e10c351385203f1af1b54fd5e1d8d5d3daa6c7f18ab075f581b9a0023da0000006b483045022100c13559007400ce5da916250f54e2ccb154b61b9590a6b823da4e0609583e5c62022042d018fdea737434f6068c184d60ddae170f3ca0c383165c86df6427b4b605a701210310b4213390232772be1ccf0e347c208a8c2141f3632a99e5b187234140798a77ffffffff8e19d6f8b8677a67caaf992f2329e7e80e9c8ada6c739aafab3f34083a323cf4010000008a4730440220550c7ee8dce0d2fffee65e32811a8b871ec7fdbc198549ccf496a255ada006d102200fa7d959e3dbfd0cae3aec2504b95e7a32f06abc95684a92d741346e0d2b9485014104025a1cffe502a80dfa1f543ae14c082aff24d5ecadab160ca904d288eed8e3d8cacef0985f690868df4f416c3890909b4c0c843da153d41382ac20c80170240affffffff9002c52e22dd25d76ec00b3a3ef0ebc1caa66eb3b200991c6cb3fa9a1b8175d4010000008b483045022100e51456e8beedb25c31cc65d08363fa2a55df618aedfc90fafb183e8274de8e3d022003fdb66503ad4455ed6d519dcacde0a4358c81bfe88ee6232640ad6242c9b9bc014104025a1cffe502a80dfa1f543ae14c082aff24d5ecadab160ca904d288eed8e3d8cacef0985f690868df4f416c3890909b4c0c843da153d41382ac20c80170240affffffffd078ccc3147e1b198e94c6d524a851000d4f88b0629dc64ef284a50d64af5b55010000008b483045022100fd17e2a28b86a13898b3295d6968a5359d9173579f6aafda09de354308db0370022044cdb3d2f1fa5ceca3972e5a9d9b508721c45721024b8944cb39657f694e9efe014104025a1cffe502a80dfa1f543ae14c082aff24d5ecadab160ca904d288eed8e3d8cacef0985f690868df4f416c3890909b4c0c843da153d41382ac20c80170240affffffffe23279b5e12c48cc0b0c831593a9c67ec198b870819aa145838a46a3db8bdf17010000008a47304402201184d2e871919dcd9e4c7d0842a8b19811d09a890c814176aabb8aa71d3a8aa802206cde453aa457c2e94ad4daf47adbedf30fad5ae86b7e899ef89360d4149ed482014104025a1cffe502a80dfa1f543ae14c082aff24d5ecadab160ca904d288eed8e3d8cacef0985f690868df4f416c3890909b4c0c843da153d41382ac20c80170240affffffffe24b07599334421a664dd6e3ded39f99ebf349b14eabfb3f2252f6adf6f611fc010000008a473044022004feb2676b2882f235b6ee9e921e2c5d0f9635dc609c30e49038563918a04550022021b41de09fccfc371184280b99b16369f1df5f039e6641f5eee4bfa2cf6e41f2014104025a1cffe502a80dfa1f543ae14c082aff24d5ecadab160ca904d288eed8e3d8cacef0985f690868df4f416c3890909b4c0c843da153d41382ac20c80170240affffffff17f9c489a8fa1b95bf6842876ca47f81a8978c8090b08db37e32038f94a7d8d9010000006b4830450221009f33bd8baf620e5622a84158533015b00966157bf93fa794b6cfdd9043acfd28022032ddff23a016093124b9a663f639b4b90fabacec452c91aca905c841a789c79501210325da144da5899a2c466e1416348360fb669c3b553e4a9f76ad1899e6875640c1ffffffff02808d5b000000000017a9143a5dc44269867c2a5190c0c6f48462c6d53df63787e6b02f00000000001976a914bae025140c454518b8cba0c25d45a6dc87f4b9ce88ac00000000", "vin": [{"sequence": 4294967295, "scriptSig": {"hex": "483045022100c13559007400ce5da916250f54e2ccb154b61b9590a6b823da4e0609583e5c62022042d018fdea737434f6068c184d60ddae170f3ca0c383165c86df6427b4b605a701210310b4213390232772be1ccf0e347c208a8c2141f3632a99e5b187234140798a77", "asm": "3045022100c13559007400ce5da916250f54e2ccb154b61b9590a6b823da4e0609583e5c62022042d018fdea737434f6068c184d60ddae170f3ca0c383165c86df6427b4b605a7[ALL] 0310b4213390232772be1ccf0e347c208a8c2141f3632a99e5b187234140798a77"}, "vout": 218, "txid": "23009a1b585f07ab187f6caa3d5d8d1d5efd541baff103523851c3104e8289a5"}, {"sequence": 4294967295, "scriptSig": {"hex": "4730440220550c7ee8dce0d2fffee65e32811a8b871ec7fdbc198549ccf496a255ada006d102200fa7d959e3dbfd0cae3aec2504b95e7a32f06abc95684a92d741346e0d2b9485014104025a1cffe502a80dfa1f543ae14c082aff24d5ecadab160ca904d288eed8e3d8cacef0985f690868df4f416c3890909b4c0c843da153d41382ac20c80170240a", "asm": "30440220550c7ee8dce0d2fffee65e32811a8b871ec7fdbc198549ccf496a255ada006d102200fa7d959e3dbfd0cae3aec2504b95e7a32f06abc95684a92d741346e0d2b9485[ALL] 04025a1cffe502a80dfa1f543ae14c082aff24d5ecadab160ca904d288eed8e3d8cacef0985f690868df4f416c3890909b4c0c843da153d41382ac20c80170240a"}, "vout": 1, "txid": "f43c323a08343fabaf9a736cda8a9c0ee8e729232f99afca677a67b8f8d6198e"}, {"sequence": 4294967295, "scriptSig": {"hex": "483045022100e51456e8beedb25c31cc65d08363fa2a55df618aedfc90fafb183e8274de8e3d022003fdb66503ad4455ed6d519dcacde0a4358c81bfe88ee6232640ad6242c9b9bc014104025a1cffe502a80dfa1f543ae14c082aff24d5ecadab160ca904d288eed8e3d8cacef0985f690868df4f416c3890909b4c0c843da153d41382ac20c80170240a", "asm": "3045022100e51456e8beedb25c31cc65d08363fa2a55df618aedfc90fafb183e8274de8e3d022003fdb66503ad4455ed6d519dcacde0a4358c81bfe88ee6232640ad6242c9b9bc[ALL] 04025a1cffe502a80dfa1f543ae14c082aff24d5ecadab160ca904d288eed8e3d8cacef0985f690868df4f416c3890909b4c0c843da153d41382ac20c80170240a"}, "vout": 1, "txid": "d475811b9afab36c1c9900b2b36ea6cac1ebf03e3a0bc06ed725dd222ec50290"}, {"sequence": 4294967295, "scriptSig": {"hex": "483045022100fd17e2a28b86a13898b3295d6968a5359d9173579f6aafda09de354308db0370022044cdb3d2f1fa5ceca3972e5a9d9b508721c45721024b8944cb39657f694e9efe014104025a1cffe502a80dfa1f543ae14c082aff24d5ecadab160ca904d288eed8e3d8cacef0985f690868df4f416c3890909b4c0c843da153d41382ac20c80170240a", "asm": "3045022100fd17e2a28b86a13898b3295d6968a5359d9173579f6aafda09de354308db0370022044cdb3d2f1fa5ceca3972e5a9d9b508721c45721024b8944cb39657f694e9efe[ALL] 04025a1cffe502a80dfa1f543ae14c082aff24d5ecadab160ca904d288eed8e3d8cacef0985f690868df4f416c3890909b4c0c843da153d41382ac20c80170240a"}, "vout": 1, "txid": "555baf640da584f24ec69d62b0884f0d0051a824d5c6948e191b7e14c3cc78d0"}, {"sequence": 4294967295, "scriptSig": {"hex": "47304402201184d2e871919dcd9e4c7d0842a8b19811d09a890c814176aabb8aa71d3a8aa802206cde453aa457c2e94ad4daf47adbedf30fad5ae86b7e899ef89360d4149ed482014104025a1cffe502a80dfa1f543ae14c082aff24d5ecadab160ca904d288eed8e3d8cacef0985f690868df4f416c3890909b4c0c843da153d41382ac20c80170240a", "asm": "304402201184d2e871919dcd9e4c7d0842a8b19811d09a890c814176aabb8aa71d3a8aa802206cde453aa457c2e94ad4daf47adbedf30fad5ae86b7e899ef89360d4149ed482[ALL] 04025a1cffe502a80dfa1f543ae14c082aff24d5ecadab160ca904d288eed8e3d8cacef0985f690868df4f416c3890909b4c0c843da153d41382ac20c80170240a"}, "vout": 1, "txid": "17df8bdba3468a8345a19a8170b898c17ec6a99315830c0bcc482ce1b57932e2"}, {"sequence": 4294967295, "scriptSig": {"hex": "473044022004feb2676b2882f235b6ee9e921e2c5d0f9635dc609c30e49038563918a04550022021b41de09fccfc371184280b99b16369f1df5f039e6641f5eee4bfa2cf6e41f2014104025a1cffe502a80dfa1f543ae14c082aff24d5ecadab160ca904d288eed8e3d8cacef0985f690868df4f416c3890909b4c0c843da153d41382ac20c80170240a", "asm": "3044022004feb2676b2882f235b6ee9e921e2c5d0f9635dc609c30e49038563918a04550022021b41de09fccfc371184280b99b16369f1df5f039e6641f5eee4bfa2cf6e41f2[ALL] 04025a1cffe502a80dfa1f543ae14c082aff24d5ecadab160ca904d288eed8e3d8cacef0985f690868df4f416c3890909b4c0c843da153d41382ac20c80170240a"}, "vout": 1, "txid": "fc11f6f6adf652223ffbab4eb149f3eb999fd3dee3d64d661a42349359074be2"}, {"sequence": 4294967295, "scriptSig": {"hex": "4830450221009f33bd8baf620e5622a84158533015b00966157bf93fa794b6cfdd9043acfd28022032ddff23a016093124b9a663f639b4b90fabacec452c91aca905c841a789c79501210325da144da5899a2c466e1416348360fb669c3b553e4a9f76ad1899e6875640c1", "asm": "30450221009f33bd8baf620e5622a84158533015b00966157bf93fa794b6cfdd9043acfd28022032ddff23a016093124b9a663f639b4b90fabacec452c91aca905c841a789c795[ALL] 0325da144da5899a2c466e1416348360fb669c3b553e4a9f76ad1899e6875640c1"}, "vout": 1, "txid": "d9d8a7948f03327eb38db090808c97a8817fa46c874268bf951bfaa889c4f917"}], "txid": "6a525212ce2c215c6e3f8cd4454c06218e84ea8333da15313595e900b654553c", "blocktime": 1537870564, "version": 1, "confirmations": 11515, "time": 1537870564, "locktime": 0, "vsize": 1269, "size": 1269}