{"hash": "b5dc7ef1b3df571e49b22f95c8f303ee9f4031eb23ae97bac95d5518b2d81afb", "blockhash": "0000000000000000001cda96e906b7601b7a6fb1a3b62bca570a9e5d8f4b3de1", "vout": [{"scriptPubKey": {"reqSigs": 1, "hex": "a9149a75fbd007ca4eae1858a7c52457d92b69e3676f87", "addresses": ["3FmjKjTdfjjG8Rsymd61nFH9BoMM2jQk9C"], "asm": "OP_HASH160 9a75fbd007ca4eae1858a7c52457d92b69e3676f OP_EQUAL", "type": "scripthash"}, "value": 0.31568133, "n": 0}, {"scriptPubKey": {"reqSigs": 1, "hex": "a91495cdc690daa8e002b24f90fa54d7a6c395aed69d87", "addresses": ["3FM77fmGVVMaZWQqqAUWCEJhamhDUpLS2J"], "asm": "OP_HASH160 95cdc690daa8e002b24f90fa54d7a6c395aed69d OP_EQUAL", "type": "scripthash"}, "value": 0.2853, "n": 1}, {"scriptPubKey": {"reqSigs": 1, "hex": "76a914e77caaaa4cf5e22e41c96f7760348bd2a356280f88ac", "addresses": ["1N6zSJeeNL5GRyK7gUNUd8FwfnE195Bb1g"], "asm": "OP_DUP OP_HASH160 e77caaaa4cf5e22e41c96f7760348bd2a356280f OP_EQUALVERIFY OP_CHECKSIG", "type": "pubkeyhash"}, "value": 0.0156118, "n": 2}, {"scriptPubKey": {"reqSigs": 1, "hex": "a91450f9abbcafa81208bb2c9f2b45417757ea0afc1e87", "addresses": ["395B5KnweQUDf9q5Gj9iuBdkYnA1iNyqHp"], "asm": "OP_HASH160 50f9abbcafa81208bb2c9f2b45417757ea0afc1e OP_EQUAL", "type": "scripthash"}, "value": 0.2797, "n": 3}], "hex": "010000000001011dd5bf73dd003753b3082d98cac309098d62eadde03e772e770625aed5f7f4ab0700000023220020d5d45ff87172dfaf85ea324aad0a9e8c313b673eb6112320b4a44a6e921d06e5ffffffff0405b1e1010000000017a9149a75fbd007ca4eae1858a7c52457d92b69e3676f875055b3010000000017a91495cdc690daa8e002b24f90fa54d7a6c395aed69d875cd21700000000001976a914e77caaaa4cf5e22e41c96f7760348bd2a356280f88acd0c9aa010000000017a91450f9abbcafa81208bb2c9f2b45417757ea0afc1e870400483045022100b1e88d31f693018d5690de159817309ff1d6fc7cc0966f099c129a9234fd2eaa02202c4682dec661744c9368b4df5b6e061a2178ae4d772ba74c22698f6ead8f3481014730440220045d6b34eaa041a52dbd98ce90171289ff7874fb9dc643df8154e594c07b39e802203608192aa9ff83b6b7f1ffa6d6ed5ccd5462e563fd4e652c9fbfb9b45193c4900169522103eb2109e43f03706e3b5776124fb997ffd145f0e18a7f63349887be286060b90c21025a395cb594a7d37aaa3e58b384d7a2ce64e96939b50ea9bf1c0b8823b485e4fe2103ddaabe217b1243c19550df75b274ce8fdc227e60fb554fe551c48f5b74d0c1b253ae00000000", "vin": [{"txinwitness": ["", "3045022100b1e88d31f693018d5690de159817309ff1d6fc7cc0966f099c129a9234fd2eaa02202c4682dec661744c9368b4df5b6e061a2178ae4d772ba74c22698f6ead8f348101", "30440220045d6b34eaa041a52dbd98ce90171289ff7874fb9dc643df8154e594c07b39e802203608192aa9ff83b6b7f1ffa6d6ed5ccd5462e563fd4e652c9fbfb9b45193c49001", "522103eb2109e43f03706e3b5776124fb997ffd145f0e18a7f63349887be286060b90c21025a395cb594a7d37aaa3e58b384d7a2ce64e96939b50ea9bf1c0b8823b485e4fe2103ddaabe217b1243c19550df75b274ce8fdc227e60fb554fe551c48f5b74d0c1b253ae"], "sequence": 4294967295, "scriptSig": {"hex": "220020d5d45ff87172dfaf85ea324aad0a9e8c313b673eb6112320b4a44a6e921d06e5", "asm": "0020d5d45ff87172dfaf85ea324aad0a9e8c313b673eb6112320b4a44a6e921d06e5"}, "vout": 7, "txid": "abf4f7d5ae2506772e773ee0ddea628d0909c3ca982d08b3533700dd73bfd51d"}], "txid": "6a58bae39bb3f896ad27b2ba229f2c9456c9ee039775feeb2c1c1fd5b975aac1", "blocktime": 1537873282, "version": 1, "confirmations": 11485, "time": 1537873282, "locktime": 0, "vsize": 280, "size": 471}