{"hash": "6a5cccc83a2f3aa11c5620a14991ef32af25926c097b42e3d7ad310624c125ac", "blockhash": "00000000000000000004ffacab907a6b429b9a5745fa0b75af4234bf69dd7176", "vout": [{"scriptPubKey": {"reqSigs": 1, "hex": "a9145e151e4ab4e57c095e60886409310c8718c3ac8887", "addresses": ["3AGUjuKhbgxXZC9FaFFzMCUP9Kht8z3o4j"], "asm": "OP_HASH160 5e151e4ab4e57c095e60886409310c8718c3ac88 OP_EQUAL", "type": "scripthash"}, "value": 0.13954413, "n": 0}, {"scriptPubKey": {"reqSigs": 1, "hex": "76a914cbbed48f2dfcdc58ff1afa41ae15681459252ada88ac", "addresses": ["1KaJn4i7Lh1a786VF8HARcubCoBUxF4bNf"], "asm": "OP_DUP OP_HASH160 cbbed48f2dfcdc58ff1afa41ae15681459252ada OP_EQUALVERIFY OP_CHECKSIG", "type": "pubkeyhash"}, "value": 0.0003105, "n": 1}], "hex": "01000000028960c0aac10745260f15627c10b037395a8f949c4dcaf11aab99bae6b882cc55000000006a473044022019c216af736f344a39a4544d008496b689ff2c99a68bc45e1803cdb065a3be1e0220204ebaae9dc7e8ac0bdf456a10b9f2c7439639e0950e27ef84756a119bc81796012102df49647e61d1a128dd9f599bac98289288ccbb94aa98e1879202f1778cee488effffffff2a1228c5e36dff65cd0de425a88933a6652832caa259e9c93c45c4094996ca38000000006a4730440220385753f41931cb86c4d63de8708ba8313c89dad134e0ed95306210f35ca8959f022046d4f728b23b7d5cc33eb205a3d18d5547892c985c54cc7ae098b94266a980f4012102ad3ec4e0dccfa502bbce9fe0ac70349245db32685a1505e7e78e2d16804f4cf4ffffffff026dedd4000000000017a9145e151e4ab4e57c095e60886409310c8718c3ac88874a790000000000001976a914cbbed48f2dfcdc58ff1afa41ae15681459252ada88ac00000000", "vin": [{"sequence": 4294967295, "scriptSig": {"hex": "473044022019c216af736f344a39a4544d008496b689ff2c99a68bc45e1803cdb065a3be1e0220204ebaae9dc7e8ac0bdf456a10b9f2c7439639e0950e27ef84756a119bc81796012102df49647e61d1a128dd9f599bac98289288ccbb94aa98e1879202f1778cee488e", "asm": "3044022019c216af736f344a39a4544d008496b689ff2c99a68bc45e1803cdb065a3be1e0220204ebaae9dc7e8ac0bdf456a10b9f2c7439639e0950e27ef84756a119bc81796[ALL] 02df49647e61d1a128dd9f599bac98289288ccbb94aa98e1879202f1778cee488e"}, "vout": 0, "txid": "55cc82b8e6ba99ab1af1ca4d9c948f5a3937b0107c62150f264507c1aac06089"}, {"sequence": 4294967295, "scriptSig": {"hex": "4730440220385753f41931cb86c4d63de8708ba8313c89dad134e0ed95306210f35ca8959f022046d4f728b23b7d5cc33eb205a3d18d5547892c985c54cc7ae098b94266a980f4012102ad3ec4e0dccfa502bbce9fe0ac70349245db32685a1505e7e78e2d16804f4cf4", "asm": "30440220385753f41931cb86c4d63de8708ba8313c89dad134e0ed95306210f35ca8959f022046d4f728b23b7d5cc33eb205a3d18d5547892c985c54cc7ae098b94266a980f4[ALL] 02ad3ec4e0dccfa502bbce9fe0ac70349245db32685a1505e7e78e2d16804f4cf4"}, "vout": 0, "txid": "38ca964909c4453cc9e959a2ca322865a63389a825e40dcd65ff6de3c528122a"}], "txid": "6a5cccc83a2f3aa11c5620a14991ef32af25926c097b42e3d7ad310624c125ac", "blocktime": 1537875543, "version": 1, "confirmations": 11464, "time": 1537875543, "locktime": 0, "vsize": 370, "size": 370}