{"hash": "0469e55443e5ab77c55cfea3d9a4e0e11dab49443776484578ea5f38f019fae6", "blockhash": "0000000000000000001e0dab787dd257d1dbfcb92a98c2207d5e1078be1f4165", "vout": [{"scriptPubKey": {"reqSigs": 1, "hex": "a91404a6c0e59be459a74cd63236ea8c6201dacb9c4187", "addresses": ["327cPYiTSg4ybzVfa46uLPXqpPS5RLppDz"], "asm": "OP_HASH160 04a6c0e59be459a74cd63236ea8c6201dacb9c41 OP_EQUAL", "type": "scripthash"}, "value": 0.01494669, "n": 0}, {"scriptPubKey": {"reqSigs": 1, "hex": "a914361684ace0764dc7fe06b58a75484f3d6b85ce0e87", "addresses": ["36d1PVtf9WzYKCZ1SyJmwy9PHfw5LSt6Xv"], "asm": "OP_HASH160 361684ace0764dc7fe06b58a75484f3d6b85ce0e OP_EQUAL", "type": "scripthash"}, "value": 0.05, "n": 1}], "hex": "0200000000010211ec794c9222c80bd3d1f3248bf2516d116a4fe9f35057fd4c9e456fd1e6b5420000000017160014c90e40f41556a0d2e1e7705bbebfbaced825622bfdffffffe6226fa148b460a8899d782540d61ca5510d477b40f9e4d58e0be682b920a9b0000000001716001459d439182514e0350fa902ef8959654e9c9af145fdffffff028dce16000000000017a91404a6c0e59be459a74cd63236ea8c6201dacb9c4187404b4c000000000017a914361684ace0764dc7fe06b58a75484f3d6b85ce0e8702483045022100e32b82d36dcd0b9db6f8ff86962185d95ff642e5175f4c4f11162ff26353d501022056a86b031b3dc4a746cd0733ab98f8b0caa94ee60fcef60bd6461164454cce0a0121034b01ce3791d7a963d1ab258d14fa588675195576c93b27e4ce76db21320f4a3e02483045022100e3c17cc5380ee430bf5240d06be8bd5ca59a7bcd4b4592bd174d824bd432108702203aa2b631f9bc84c2bea8f4c5204ff1642ff959406ceba73e9e3168be457165460121028e7d4c7e985a170398229cb928f384923ba2895035e34ec45ef8594d7bbbd10912490800", "vin": [{"txinwitness": ["3045022100e32b82d36dcd0b9db6f8ff86962185d95ff642e5175f4c4f11162ff26353d501022056a86b031b3dc4a746cd0733ab98f8b0caa94ee60fcef60bd6461164454cce0a01", "034b01ce3791d7a963d1ab258d14fa588675195576c93b27e4ce76db21320f4a3e"], "sequence": 4294967293, "scriptSig": {"hex": "160014c90e40f41556a0d2e1e7705bbebfbaced825622b", "asm": "0014c90e40f41556a0d2e1e7705bbebfbaced825622b"}, "vout": 0, "txid": "42b5e6d16f459e4cfd5750f3e94f6a116d51f28b24f3d1d30bc822924c79ec11"}, {"txinwitness": ["3045022100e3c17cc5380ee430bf5240d06be8bd5ca59a7bcd4b4592bd174d824bd432108702203aa2b631f9bc84c2bea8f4c5204ff1642ff959406ceba73e9e3168be4571654601", "028e7d4c7e985a170398229cb928f384923ba2895035e34ec45ef8594d7bbbd109"], "sequence": 4294967293, "scriptSig": {"hex": "16001459d439182514e0350fa902ef8959654e9c9af145", "asm": "001459d439182514e0350fa902ef8959654e9c9af145"}, "vout": 0, "txid": "b0a920b982e60b8ed5e4f9407b470d51a51cd64025789d89a860b448a16f22e6"}], "txid": "6a6cf360a394109094f92c5cca5d0ac8b82149893263f8a3941643772ba4bb1e", "blocktime": 1537872475, "version": 2, "confirmations": 11486, "time": 1537872475, "locktime": 542994, "vsize": 257, "size": 420}