{"hash": "6a6c327993e917a221007c37e26a964c3cef46a4f47311af75a5b314b00af1c3", "blockhash": "0000000000000000000baef3f32e3676a92c3b2e5da21b426e4f302fc371ce76", "vout": [{"scriptPubKey": {"reqSigs": 1, "hex": "a9146bb8990543c1e73c7729ce87553d05190b7f3b8587", "addresses": ["3BWbN9NiSdgnaqwDjXUyx9a9ZSogCCKP7e"], "asm": "OP_HASH160 6bb8990543c1e73c7729ce87553d05190b7f3b85 OP_EQUAL", "type": "scripthash"}, "value": 0.003, "n": 0}, {"scriptPubKey": {"reqSigs": 1, "hex": "76a91482f148a21345ce4dfb969540fff3d8d17f27679a88ac", "addresses": ["1CwMtdFHyEEfGyrA6baWiRhC8NKmaVFicy"], "asm": "OP_DUP OP_HASH160 82f148a21345ce4dfb969540fff3d8d17f27679a OP_EQUALVERIFY OP_CHECKSIG", "type": "pubkeyhash"}, "value": 0.00484881, "n": 1}], "hex": "0100000001cb23378c604054924bbd9bd97025bd845fbb718b404cc2c7c4b1aad8453d20f3000000006a47304402204d9ab4901c63d9c15605eadfa90e48ea9266d13d58527a0212146eb043976cff022007299b8767e0a98d6284791087219599f1cdd633614592f6114ea8a035e962e40121023822ad950ca43c35439ba27d3528853538d9da43d45deb598885130f3042d4eeffffffff02e09304000000000017a9146bb8990543c1e73c7729ce87553d05190b7f3b858711660700000000001976a91482f148a21345ce4dfb969540fff3d8d17f27679a88ac00000000", "vin": [{"sequence": 4294967295, "scriptSig": {"hex": "47304402204d9ab4901c63d9c15605eadfa90e48ea9266d13d58527a0212146eb043976cff022007299b8767e0a98d6284791087219599f1cdd633614592f6114ea8a035e962e40121023822ad950ca43c35439ba27d3528853538d9da43d45deb598885130f3042d4ee", "asm": "304402204d9ab4901c63d9c15605eadfa90e48ea9266d13d58527a0212146eb043976cff022007299b8767e0a98d6284791087219599f1cdd633614592f6114ea8a035e962e4[ALL] 023822ad950ca43c35439ba27d3528853538d9da43d45deb598885130f3042d4ee"}, "vout": 0, "txid": "f3203d45d8aab1c4c7c24c408b71bb5f84bd2570d99bbd4b925440608c3723cb"}], "txid": "6a6c327993e917a221007c37e26a964c3cef46a4f47311af75a5b314b00af1c3", "blocktime": 1537876114, "version": 1, "confirmations": 11460, "time": 1537876114, "locktime": 0, "vsize": 223, "size": 223}