{"hash": "410c5528cf45eaf3852914362497056f9a7e83abd4de090c6db23fca56fd0f01", "blockhash": "0000000000000000001cda96e906b7601b7a6fb1a3b62bca570a9e5d8f4b3de1", "vout": [{"scriptPubKey": {"reqSigs": 1, "hex": "0014d33ecd13821d88a2b35fe9fbb07aeb730ca5a82b", "addresses": ["bc1q6vlv6yuzrky29v6la8amq7htwvx2t2ptlqzmrl"], "asm": "0 d33ecd13821d88a2b35fe9fbb07aeb730ca5a82b", "type": "witness_v0_keyhash"}, "value": 0.00778229, "n": 0}], "hex": "020000000001016622bab66acc067bccb98976cba74551ea8b060848369c27b27eb56e5dd352e60100000000f9e3b98001f5df0b0000000000160014d33ecd13821d88a2b35fe9fbb07aeb730ca5a82b040047304402206c97450a7a33c2d1e1f24d4a95d4f011999d41b7ae9f1c99c2fa482b000e0326022034bce87ae0540e479a8dd85e96a0b79bfaf53a48d0485b80979a2ff127d5f7db014730440220497a104e8e75f918e65959e38509c974a7353154be0212ad6327190596394f3502207af947f24d9b885d278b036ef5004989bdbfc1167955d9eb00ad0f57913a942b0147522102097c04a6de696427c0faba37ca22d50f18264b5361ef882ced8f0d69e7b80cc02102af0991bcce4d81c4e6d2d7b69e77b516c38e41490cf1b2181a7ca4434e3e733f52ae256c3420", "vin": [{"txinwitness": ["", "304402206c97450a7a33c2d1e1f24d4a95d4f011999d41b7ae9f1c99c2fa482b000e0326022034bce87ae0540e479a8dd85e96a0b79bfaf53a48d0485b80979a2ff127d5f7db01", "30440220497a104e8e75f918e65959e38509c974a7353154be0212ad6327190596394f3502207af947f24d9b885d278b036ef5004989bdbfc1167955d9eb00ad0f57913a942b01", "522102097c04a6de696427c0faba37ca22d50f18264b5361ef882ced8f0d69e7b80cc02102af0991bcce4d81c4e6d2d7b69e77b516c38e41490cf1b2181a7ca4434e3e733f52ae"], "sequence": 2159666169, "scriptSig": {"hex": "", "asm": ""}, "vout": 1, "txid": "e652d35d6eb57eb2279c364808068bea5145a7cb7689b9cc7b06cc6ab6ba2266"}], "txid": "6a6c78b0ec6222748f1e9d0928b4df922fe0622b9d8cbe91bb3625f431ac32a8", "blocktime": 1537873282, "version": 2, "confirmations": 11484, "time": 1537873282, "locktime": 540306469, "vsize": 137, "size": 302}