{"hash": "6a6dfe68e1da07e1730b7f39c3c882e6c2dafd69fdfb3324605cd5adf32e3b89", "blockhash": "0000000000000000000e13cef7c366c0283d82e591d1acd082e914b08063cdf1", "vout": [{"scriptPubKey": {"reqSigs": 1, "hex": "a9144f690799162ec3d0006d587ed62ea98b60d4840487", "addresses": ["38vu8HgYu2Gj992JgaZQXTVktSnAqkxmqV"], "asm": "OP_HASH160 4f690799162ec3d0006d587ed62ea98b60d48404 OP_EQUAL", "type": "scripthash"}, "value": 0.00156372, "n": 0}, {"scriptPubKey": {"reqSigs": 1, "hex": "76a9141359dd6cacfa1b5722d1e8a6e6fb3f3126d8e32188ac", "addresses": ["12mKVa5HND252kjxp9iTbmRzjTP4X35ghs"], "asm": "OP_DUP OP_HASH160 1359dd6cacfa1b5722d1e8a6e6fb3f3126d8e321 OP_EQUALVERIFY OP_CHECKSIG", "type": "pubkeyhash"}, "value": 0.41073554, "n": 1}], "hex": "02000000011b049f032f87ea02fbfce65a9dfb32aa05bb1bbb39e930d87f6c63aea6cb6366010000006b483045022100f9c7d5e567d48c07373bc564eff9c83e97a32e291f78df94792f6bc4ea981eba022012478d5fbd1038d1fe3bf9b8edd2f3ec364fa66d7c36368622c2e920bf28e3530121030e70f3b899985b7ed801d1559199f9752750803710b2d7208d6f5cbebc82122afeffffff02d46202000000000017a9144f690799162ec3d0006d587ed62ea98b60d484048792bb7202000000001976a9141359dd6cacfa1b5722d1e8a6e6fb3f3126d8e32188acc0480800", "vin": [{"sequence": 4294967294, "scriptSig": {"hex": "483045022100f9c7d5e567d48c07373bc564eff9c83e97a32e291f78df94792f6bc4ea981eba022012478d5fbd1038d1fe3bf9b8edd2f3ec364fa66d7c36368622c2e920bf28e3530121030e70f3b899985b7ed801d1559199f9752750803710b2d7208d6f5cbebc82122a", "asm": "3045022100f9c7d5e567d48c07373bc564eff9c83e97a32e291f78df94792f6bc4ea981eba022012478d5fbd1038d1fe3bf9b8edd2f3ec364fa66d7c36368622c2e920bf28e353[ALL] 030e70f3b899985b7ed801d1559199f9752750803710b2d7208d6f5cbebc82122a"}, "vout": 1, "txid": "6663cba6ae636c7fd830e939bb1bbb05aa32fb9d5ae6fcfb02ea872f039f041b"}], "txid": "6a6dfe68e1da07e1730b7f39c3c882e6c2dafd69fdfb3324605cd5adf32e3b89", "blocktime": 1537871767, "version": 2, "confirmations": 11490, "time": 1537871767, "locktime": 542912, "vsize": 224, "size": 224}