{"hash": "6a6ebec3a84c4d1f8d2011d76d7f68809db795a6f5b83a878ff0322c569a61fc", "blockhash": "0000000000000000000baef3f32e3676a92c3b2e5da21b426e4f302fc371ce76", "vout": [{"scriptPubKey": {"reqSigs": 1, "hex": "76a914f425998e439e1d9f0d3b268fd8c655835642571b88ac", "addresses": ["1PFvvHjC82cgMguMRAXaqmNh91zaTbmNbf"], "asm": "OP_DUP OP_HASH160 f425998e439e1d9f0d3b268fd8c655835642571b OP_EQUALVERIFY OP_CHECKSIG", "type": "pubkeyhash"}, "value": 0.0146694, "n": 0}, {"scriptPubKey": {"type": "nulldata", "hex": "6a4c50000078000001f88600651fb77b8e6189ffbad19ed074892d00f8e87af8e8e963c7cfd5b9f991beae7f275407d7b31575f78965d75baa19f9061349277ae2cc7bbc9a9526289ac0f6612cd74e33776ee4", "asm": "OP_RETURN 000078000001f88600651fb77b8e6189ffbad19ed074892d00f8e87af8e8e963c7cfd5b9f991beae7f275407d7b31575f78965d75baa19f9061349277ae2cc7bbc9a9526289ac0f6612cd74e33776ee4"}, "value": 0.0, "n": 1}], "hex": "0100000001ddcf81c7cc9ccb26f5866e17bc0bf4191a49c3167c1d6fd294f78e5e7a7cc789010000006a4730440220084f9ecdf4ae7b5813fde63ea011e499a2aebd28c9f24a2491745366395714f7022071106e418d7c96782e17a0ac02e98b23877e70352e061b8cfff6096f33baed570121025aec21ac9d6020edac37f1dc174102ba498686304eb5c77b6e6da6ff8967bec0ffffffff023c621600000000001976a914f425998e439e1d9f0d3b268fd8c655835642571b88ac0000000000000000536a4c50000078000001f88600651fb77b8e6189ffbad19ed074892d00f8e87af8e8e963c7cfd5b9f991beae7f275407d7b31575f78965d75baa19f9061349277ae2cc7bbc9a9526289ac0f6612cd74e33776ee400000000", "vin": [{"sequence": 4294967295, "scriptSig": {"hex": "4730440220084f9ecdf4ae7b5813fde63ea011e499a2aebd28c9f24a2491745366395714f7022071106e418d7c96782e17a0ac02e98b23877e70352e061b8cfff6096f33baed570121025aec21ac9d6020edac37f1dc174102ba498686304eb5c77b6e6da6ff8967bec0", "asm": "30440220084f9ecdf4ae7b5813fde63ea011e499a2aebd28c9f24a2491745366395714f7022071106e418d7c96782e17a0ac02e98b23877e70352e061b8cfff6096f33baed57[ALL] 025aec21ac9d6020edac37f1dc174102ba498686304eb5c77b6e6da6ff8967bec0"}, "vout": 1, "txid": "89c77c7a5e8ef794d26f1d7c16c3491a19f40bbc176e86f526cb9cccc781cfdd"}], "txid": "6a6ebec3a84c4d1f8d2011d76d7f68809db795a6f5b83a878ff0322c569a61fc", "blocktime": 1537876114, "version": 1, "confirmations": 11460, "time": 1537876114, "locktime": 0, "vsize": 283, "size": 283}