{"hash": "6a6ee88d5d1e7b686b7676dca780b81f2299c8356ed6987708653d61a5988dd1", "blockhash": "0000000000000000001f76057863aec43deb6fa401d9628bb513d65a8098bfab", "vout": [{"scriptPubKey": {"reqSigs": 1, "hex": "76a9148dbf4ad0962655678928471743ce464bde377acd88ac", "addresses": ["1DvVSGSqfxgqxojym97228uGUqk3Uo1FzU"], "asm": "OP_DUP OP_HASH160 8dbf4ad0962655678928471743ce464bde377acd OP_EQUALVERIFY OP_CHECKSIG", "type": "pubkeyhash"}, "value": 0.00160896, "n": 0}, {"scriptPubKey": {"reqSigs": 1, "hex": "76a91434031d82089cc225a05227a52ea94a3419652b1688ac", "addresses": ["15k1sRoWBpsVxFhLFXV4gSbXEx67msGsYH"], "asm": "OP_DUP OP_HASH160 34031d82089cc225a05227a52ea94a3419652b16 OP_EQUALVERIFY OP_CHECKSIG", "type": "pubkeyhash"}, "value": 0.00550649, "n": 1}], "hex": "010000000250882f1d226fa8982666ee52b591ed60e79e8a3cea636c2a49746b4342764643010000006b483045022100d504617553a6b62e096691a7b74e16001e121e773ef29d3aecb54af24a54ccce02201da1acf837b6ef8e902bb882ddf2e71982ed430276b1b7d2b1be8544e83873ce0121036ae0654c836269ceac1341c4911adeedf05bf439d988b1008f36b6bcd38c6913ffffffff10bb57b6b1dccd62dd812c174cb231adc8b41e92406afb758fd1fe70b012ed91020000006a4730440220551928d666692551b008685d29425cdc14a2f61f084064681478c98595ab278e022021cc55c7f5366589beba8b61c406e86e299e2fa7b087079cfd48e6d0c43131900121023e5e0f7e4766e4dee808963b827b3da9ebe2b6b3f26aa921881e3fb416d4d66bffffffff0280740200000000001976a9148dbf4ad0962655678928471743ce464bde377acd88acf9660800000000001976a91434031d82089cc225a05227a52ea94a3419652b1688ac00000000", "vin": [{"sequence": 4294967295, "scriptSig": {"hex": "483045022100d504617553a6b62e096691a7b74e16001e121e773ef29d3aecb54af24a54ccce02201da1acf837b6ef8e902bb882ddf2e71982ed430276b1b7d2b1be8544e83873ce0121036ae0654c836269ceac1341c4911adeedf05bf439d988b1008f36b6bcd38c6913", "asm": "3045022100d504617553a6b62e096691a7b74e16001e121e773ef29d3aecb54af24a54ccce02201da1acf837b6ef8e902bb882ddf2e71982ed430276b1b7d2b1be8544e83873ce[ALL] 036ae0654c836269ceac1341c4911adeedf05bf439d988b1008f36b6bcd38c6913"}, "vout": 1, "txid": "43467642436b74492a6c63ea3c8a9ee760ed91b552ee662698a86f221d2f8850"}, {"sequence": 4294967295, "scriptSig": {"hex": "4730440220551928d666692551b008685d29425cdc14a2f61f084064681478c98595ab278e022021cc55c7f5366589beba8b61c406e86e299e2fa7b087079cfd48e6d0c43131900121023e5e0f7e4766e4dee808963b827b3da9ebe2b6b3f26aa921881e3fb416d4d66b", "asm": "30440220551928d666692551b008685d29425cdc14a2f61f084064681478c98595ab278e022021cc55c7f5366589beba8b61c406e86e299e2fa7b087079cfd48e6d0c4313190[ALL] 023e5e0f7e4766e4dee808963b827b3da9ebe2b6b3f26aa921881e3fb416d4d66b"}, "vout": 2, "txid": "91ed12b070fed18f75fb6a40921eb4c8ad31b24c172c81dd62cddcb1b657bb10"}], "txid": "6a6ee88d5d1e7b686b7676dca780b81f2299c8356ed6987708653d61a5988dd1", "blocktime": 1537873891, "version": 1, "confirmations": 11478, "time": 1537873891, "locktime": 0, "vsize": 373, "size": 373}