{"hash": "6a6f401198f9e0345937762fdf1824577f1225f4d5f316039bb314b56991244f", "blockhash": "0000000000000000000dcc0f55137456b1a82d3642486a52398922ac4d620174", "vout": [{"scriptPubKey": {"reqSigs": 1, "hex": "a914ca1814a1c9cb61a0d131e313554d3f0e0d6638b787", "addresses": ["3L7bGSckwQ8nTjpk4EAWCpsLrPJuU9mN9K"], "asm": "OP_HASH160 ca1814a1c9cb61a0d131e313554d3f0e0d6638b7 OP_EQUAL", "type": "scripthash"}, "value": 0.04268, "n": 0}, {"scriptPubKey": {"reqSigs": 1, "hex": "76a914ef2ab5217a2bbb55b2828660733e4f78ac68bffa88ac", "addresses": ["1NobfDjT1QWZ5LY55hhE4EBtueA8gBaYRq"], "asm": "OP_DUP OP_HASH160 ef2ab5217a2bbb55b2828660733e4f78ac68bffa OP_EQUALVERIFY OP_CHECKSIG", "type": "pubkeyhash"}, "value": 0.00155014, "n": 1}], "hex": "01000000022a8aa9794c939eced456cd80df4fccac3f8483b17a0936a436dcaaa91ad2d012000000006a47304402206f3688dc0a50eb5da0cdbbe0093a8ca90a1ca0714eeb635203c2aec29738b79402200575d7ec743f26349f66caf78b2c3f86a76fdb4209f2d9d80fa5d7274141d1bd012102d80f300259639c64409d24cfd1df4f8499cf91e75465fb97600c9198db9a1994ffffffff2957886a0fea3c533fd648599db8b4940145de8c534e5335bea95a07e689c091000000006a4730440220411bfb889047aa398bae0578d64dc31b3628f51946d49547178e6674679a83bc0220053c7230aaa683d7bbcdb6a7915e5e50486a0bcf74a0398d33c6cbf459031f9e0121026ec1df8a1d37f0ee55e4d6b21ba5a324d4b9ca2969ee9f7bee00bcf31e8aca7bffffffff02e01f41000000000017a914ca1814a1c9cb61a0d131e313554d3f0e0d6638b787865d0200000000001976a914ef2ab5217a2bbb55b2828660733e4f78ac68bffa88ac00000000", "vin": [{"sequence": 4294967295, "scriptSig": {"hex": "47304402206f3688dc0a50eb5da0cdbbe0093a8ca90a1ca0714eeb635203c2aec29738b79402200575d7ec743f26349f66caf78b2c3f86a76fdb4209f2d9d80fa5d7274141d1bd012102d80f300259639c64409d24cfd1df4f8499cf91e75465fb97600c9198db9a1994", "asm": "304402206f3688dc0a50eb5da0cdbbe0093a8ca90a1ca0714eeb635203c2aec29738b79402200575d7ec743f26349f66caf78b2c3f86a76fdb4209f2d9d80fa5d7274141d1bd[ALL] 02d80f300259639c64409d24cfd1df4f8499cf91e75465fb97600c9198db9a1994"}, "vout": 0, "txid": "12d0d21aa9aadc36a436097ab183843faccc4fdf80cd56d4ce9e934c79a98a2a"}, {"sequence": 4294967295, "scriptSig": {"hex": "4730440220411bfb889047aa398bae0578d64dc31b3628f51946d49547178e6674679a83bc0220053c7230aaa683d7bbcdb6a7915e5e50486a0bcf74a0398d33c6cbf459031f9e0121026ec1df8a1d37f0ee55e4d6b21ba5a324d4b9ca2969ee9f7bee00bcf31e8aca7b", "asm": "30440220411bfb889047aa398bae0578d64dc31b3628f51946d49547178e6674679a83bc0220053c7230aaa683d7bbcdb6a7915e5e50486a0bcf74a0398d33c6cbf459031f9e[ALL] 026ec1df8a1d37f0ee55e4d6b21ba5a324d4b9ca2969ee9f7bee00bcf31e8aca7b"}, "vout": 0, "txid": "91c089e6075aa9be35534e538cde450194b4b89d5948d63f533cea0f6a885729"}], "txid": "6a6f401198f9e0345937762fdf1824577f1225f4d5f316039bb314b56991244f", "blocktime": 1537870268, "version": 1, "confirmations": 11518, "time": 1537870268, "locktime": 0, "vsize": 370, "size": 370}