{"hash": "6a7c14dd009cf81a868533acfc0669a25144ddd875cabbae69a5a3c2fea89031", "blockhash": "00000000000000000018f53835495a110e01622372bf6ae95dc86f2b0ab887b0", "vout": [{"scriptPubKey": {"reqSigs": 1, "hex": "76a914c43866119710e9d56169ab48a5e6222a18efcc9888ac", "addresses": ["1JtX1FUUcbhtEZ13QCka5m1QkWSu6dh8XH"], "asm": "OP_DUP OP_HASH160 c43866119710e9d56169ab48a5e6222a18efcc98 OP_EQUALVERIFY OP_CHECKSIG", "type": "pubkeyhash"}, "value": 0.00092192, "n": 0}, {"scriptPubKey": {"reqSigs": 1, "hex": "76a914dd2929c7f878931f5d0359f7785ed11de526ad6088ac", "addresses": ["1MAPeTvzFU8u3w9MgybHY8BPPLgdixyrAg"], "asm": "OP_DUP OP_HASH160 dd2929c7f878931f5d0359f7785ed11de526ad60 OP_EQUALVERIFY OP_CHECKSIG", "type": "pubkeyhash"}, "value": 0.00468583, "n": 1}], "hex": "010000000178f36111c8d29e33d438f53307af5a88b1405a8ce6f72919f81cb8f196fb211f000000006b483045022100ab6e8604f82aba5c6f19ebf6c7c5ca58cb99001aa1b40ff26970035a345cd35e022016fc60b4b94ebddbc9c1161c3bea996c82ec4a3901145bbab2dab1a8d17304e4012103f4e886b227860a567e8385699f6e2dbac9e9017b6be6fb4ee31ce2c1d1f394e0ffffffff0220680100000000001976a914c43866119710e9d56169ab48a5e6222a18efcc9888ac67260700000000001976a914dd2929c7f878931f5d0359f7785ed11de526ad6088ac00000000", "vin": [{"sequence": 4294967295, "scriptSig": {"hex": "483045022100ab6e8604f82aba5c6f19ebf6c7c5ca58cb99001aa1b40ff26970035a345cd35e022016fc60b4b94ebddbc9c1161c3bea996c82ec4a3901145bbab2dab1a8d17304e4012103f4e886b227860a567e8385699f6e2dbac9e9017b6be6fb4ee31ce2c1d1f394e0", "asm": "3045022100ab6e8604f82aba5c6f19ebf6c7c5ca58cb99001aa1b40ff26970035a345cd35e022016fc60b4b94ebddbc9c1161c3bea996c82ec4a3901145bbab2dab1a8d17304e4[ALL] 03f4e886b227860a567e8385699f6e2dbac9e9017b6be6fb4ee31ce2c1d1f394e0"}, "vout": 0, "txid": "1f21fb96f1b81cf81929f7e68c5a40b1885aaf0733f538d4339ed2c81161f378"}], "txid": "6a7c14dd009cf81a868533acfc0669a25144ddd875cabbae69a5a3c2fea89031", "blocktime": 1537870928, "version": 1, "confirmations": 11514, "time": 1537870928, "locktime": 0, "vsize": 226, "size": 226}