{"hash": "6a7d43376c59fc418c7b610572b968b4df01008d9067c0bfdbde94e81e780c5a", "blockhash": "000000000000000000022b45ed06c6f4ccd3cf7fb5ba4856ebd2e58215665228", "vout": [{"scriptPubKey": {"reqSigs": 1, "hex": "76a914d243e6abb9a60fbff430b421d2df4b7d59ec186088ac", "addresses": ["1LAnF8h3qMGx3TSwNUHVneBZUEpwE4gu3D"], "asm": "OP_DUP OP_HASH160 d243e6abb9a60fbff430b421d2df4b7d59ec1860 OP_EQUALVERIFY OP_CHECKSIG", "type": "pubkeyhash"}, "value": 0.00076972, "n": 0}, {"scriptPubKey": {"reqSigs": 1, "hex": "76a9143851f34d13937b673a7d24a1950bb5b21ce94af388ac", "addresses": ["168o1kqNquEJeR9vosUB5fw4eAwcVAgh8P"], "asm": "OP_DUP OP_HASH160 3851f34d13937b673a7d24a1950bb5b21ce94af3 OP_EQUALVERIFY OP_CHECKSIG", "type": "pubkeyhash"}, "value": 5.46e-06, "n": 1}, {"scriptPubKey": {"type": "nulldata", "hex": "6a146f6d6e69000000000000001f0000000cdadbb79a", "asm": "OP_RETURN 6f6d6e69000000000000001f0000000cdadbb79a"}, "value": 0.0, "n": 2}], "hex": "0100000002b4b56bace9b418b85342373fc899dcdbef91fa9d9e881acf547828b85155c372020000006a4730440220390c4f08b213aebd9f6b43e6b719871a9756c8bebff2cffe0e89f4a5082d320c0220553bee7a11cc0f49ec637f765a95c35cb935e9e0e2b2f2ba5e979ab039968ea4012102e71da6eb3f2d7b2e0ae812da6024a86dc058b116dc9a8b602131750bd1b4f8e1ffffffff9aad22f5d2a629862c2a676a39b474700891752d5bcd6a3fb0aada9951433cec000000006a473044022013b28e92cd74714fc90e2f11117d22818b5796d918c1200a02577393b6c2be750220348156c5d8a63e042dddf3b1898ae0b54beb755ddad505cdee215a22a141bbd801210271977291b74f1f5f5c42157e8aae804664eaaeccfd097918450d37f28fb94d77ffffffff03ac2c0100000000001976a914d243e6abb9a60fbff430b421d2df4b7d59ec186088ac22020000000000001976a9143851f34d13937b673a7d24a1950bb5b21ce94af388ac0000000000000000166a146f6d6e69000000000000001f0000000cdadbb79a00000000", "vin": [{"sequence": 4294967295, "scriptSig": {"hex": "4730440220390c4f08b213aebd9f6b43e6b719871a9756c8bebff2cffe0e89f4a5082d320c0220553bee7a11cc0f49ec637f765a95c35cb935e9e0e2b2f2ba5e979ab039968ea4012102e71da6eb3f2d7b2e0ae812da6024a86dc058b116dc9a8b602131750bd1b4f8e1", "asm": "30440220390c4f08b213aebd9f6b43e6b719871a9756c8bebff2cffe0e89f4a5082d320c0220553bee7a11cc0f49ec637f765a95c35cb935e9e0e2b2f2ba5e979ab039968ea4[ALL] 02e71da6eb3f2d7b2e0ae812da6024a86dc058b116dc9a8b602131750bd1b4f8e1"}, "vout": 2, "txid": "72c35551b8287854cf1a889e9dfa91efdbdc99c83f374253b818b4e9ac6bb5b4"}, {"sequence": 4294967295, "scriptSig": {"hex": "473044022013b28e92cd74714fc90e2f11117d22818b5796d918c1200a02577393b6c2be750220348156c5d8a63e042dddf3b1898ae0b54beb755ddad505cdee215a22a141bbd801210271977291b74f1f5f5c42157e8aae804664eaaeccfd097918450d37f28fb94d77", "asm": "3044022013b28e92cd74714fc90e2f11117d22818b5796d918c1200a02577393b6c2be750220348156c5d8a63e042dddf3b1898ae0b54beb755ddad505cdee215a22a141bbd8[ALL] 0271977291b74f1f5f5c42157e8aae804664eaaeccfd097918450d37f28fb94d77"}, "vout": 0, "txid": "ec3c435199daaab03f6acd5b2d7591087074b4396a672a2c8629a6d2f522ad9a"}], "txid": "6a7d43376c59fc418c7b610572b968b4df01008d9067c0bfdbde94e81e780c5a", "blocktime": 1537869901, "version": 1, "confirmations": 11522, "time": 1537869901, "locktime": 0, "vsize": 403, "size": 403}