{"hash": "6a7e7c3c482f087d4161e3a0c76ae9be1328d2886bad2a47e1dabd70a860a44b", "blockhash": "00000000000000000004ffacab907a6b429b9a5745fa0b75af4234bf69dd7176", "vout": [{"scriptPubKey": {"reqSigs": 1, "hex": "a914102c98e7797914e632acd6d70766d33a34d6e8ff87", "addresses": ["33AYAHa6tx7nxhCADhvYEA4CWyWUQq8RdX"], "asm": "OP_HASH160 102c98e7797914e632acd6d70766d33a34d6e8ff OP_EQUAL", "type": "scripthash"}, "value": 0.03777089, "n": 0}, {"scriptPubKey": {"reqSigs": 1, "hex": "76a9146586ced214191eaee684bf8787713d2671eff5aa88ac", "addresses": ["1AFpjzWNNtmMamjbbSSNLiVdktzrYMspCQ"], "asm": "OP_DUP OP_HASH160 6586ced214191eaee684bf8787713d2671eff5aa OP_EQUALVERIFY OP_CHECKSIG", "type": "pubkeyhash"}, "value": 0.15852144, "n": 1}], "hex": "0200000001a330b94b9aa52cbf8a791948897366416cd70ab28d333306c007104f21967f38010000006b483045022100ea73d37e274771a22769ff1002105ea179cf4ab3c6f4c53e86b59b1bd4698b5002207b5016d3391f5729c954d1c7608bdc98c8b940ab3068d7e4df3e3ebe6b7c64f801210210dac65f236a05432a1dbd2f909aa1c6e1870304203e734e8d07db9b57443d46ffffffff0241a239000000000017a914102c98e7797914e632acd6d70766d33a34d6e8ff8770e2f100000000001976a9146586ced214191eaee684bf8787713d2671eff5aa88ac00000000", "vin": [{"sequence": 4294967295, "scriptSig": {"hex": "483045022100ea73d37e274771a22769ff1002105ea179cf4ab3c6f4c53e86b59b1bd4698b5002207b5016d3391f5729c954d1c7608bdc98c8b940ab3068d7e4df3e3ebe6b7c64f801210210dac65f236a05432a1dbd2f909aa1c6e1870304203e734e8d07db9b57443d46", "asm": "3045022100ea73d37e274771a22769ff1002105ea179cf4ab3c6f4c53e86b59b1bd4698b5002207b5016d3391f5729c954d1c7608bdc98c8b940ab3068d7e4df3e3ebe6b7c64f8[ALL] 0210dac65f236a05432a1dbd2f909aa1c6e1870304203e734e8d07db9b57443d46"}, "vout": 1, "txid": "387f96214f1007c00633338db20ad76c416673894819798abf2ca59a4bb930a3"}], "txid": "6a7e7c3c482f087d4161e3a0c76ae9be1328d2886bad2a47e1dabd70a860a44b", "blocktime": 1537875543, "version": 2, "confirmations": 11464, "time": 1537875543, "locktime": 0, "vsize": 224, "size": 224}