{"hash": "0fb56d7f8558cd9b4229738e1140bb68eca5a2eee47f824b27c2fa86758588c8", "blockhash": "0000000000000000000e13cef7c366c0283d82e591d1acd082e914b08063cdf1", "vout": [{"scriptPubKey": {"reqSigs": 1, "hex": "a914f2799ff5c4f3113e92c5994268295284a3a6f14e87", "addresses": ["3Po79cGzWyx2VM4n6woo9CGNCNNj8uhWHh"], "asm": "OP_HASH160 f2799ff5c4f3113e92c5994268295284a3a6f14e OP_EQUAL", "type": "scripthash"}, "value": 0.01081159, "n": 0}, {"scriptPubKey": {"reqSigs": 1, "hex": "a914fe751c1744ef949ddda5b92a010c85202fba47a087", "addresses": ["3QtTrCHVetGH8SexKEwth9XrSbGcMjUKVc"], "asm": "OP_HASH160 fe751c1744ef949ddda5b92a010c85202fba47a0 OP_EQUAL", "type": "scripthash"}, "value": 0.00571, "n": 1}], "hex": "02000000000101a8f0b9c1f4a48ab810e18ecc0eb6dad2b556adc88c75c08c95bb59376ad985bd0100000017160014f7994af8d2879ee57762d9506d80de34831907a7feffffff02477f10000000000017a914f2799ff5c4f3113e92c5994268295284a3a6f14e8778b608000000000017a914fe751c1744ef949ddda5b92a010c85202fba47a0870247304402205cd8d06f2671fbe165898873b9e5b740f54b98569c6dbb8fa128a8d89823611502207893b735e17515869fd2467dda635c6b441cbb14fcc96df89d4d3fdc206cad410121029dcce03e3ae5c84684e2e4961845069b50205afdc553fb74117169af6e1e699810490800", "vin": [{"txinwitness": ["304402205cd8d06f2671fbe165898873b9e5b740f54b98569c6dbb8fa128a8d89823611502207893b735e17515869fd2467dda635c6b441cbb14fcc96df89d4d3fdc206cad4101", "029dcce03e3ae5c84684e2e4961845069b50205afdc553fb74117169af6e1e6998"], "sequence": 4294967294, "scriptSig": {"hex": "160014f7994af8d2879ee57762d9506d80de34831907a7", "asm": "0014f7994af8d2879ee57762d9506d80de34831907a7"}, "vout": 1, "txid": "bd85d96a3759bb958cc0758cc8ad56b5d2dab60ecc8ee110b88aa4f4c1b9f0a8"}], "txid": "6a80fefd8d940f04154fcb92d520b0b9c985c3a874b3868cd4daddfe1cc3da91", "blocktime": 1537871767, "version": 2, "confirmations": 11491, "time": 1537871767, "locktime": 542992, "vsize": 166, "size": 247}