{"hash": "f844057d6959d348453e690c7273d6816fa3540839b69ea8f1f810d50a8069dc", "blockhash": "000000000000000000022b45ed06c6f4ccd3cf7fb5ba4856ebd2e58215665228", "vout": [{"scriptPubKey": {"reqSigs": 1, "hex": "0014236c017de7871fb41fdf2d7c5569be4a3fde194b", "addresses": ["bc1qydkqzl08su0mg87l947926d7fglaux2tspkdk9"], "asm": "0 236c017de7871fb41fdf2d7c5569be4a3fde194b", "type": "witness_v0_keyhash"}, "value": 0.00319817, "n": 0}, {"scriptPubKey": {"reqSigs": 1, "hex": "a914b5f6fe377a6ce9cf670304de8f15779953a842d587", "addresses": ["3JHA7eBgc83TTTgwgb2Z1mtdqkrF5vZUae"], "asm": "OP_HASH160 b5f6fe377a6ce9cf670304de8f15779953a842d5 OP_EQUAL", "type": "scripthash"}, "value": 0.00839258, "n": 1}], "hex": "010000000001018f15bd4ea0ac018cbb76402a48c649eae4d0437119e231f83528f1a21efb915a0000000000ffffffff0249e1040000000000160014236c017de7871fb41fdf2d7c5569be4a3fde194b5ace0c000000000017a914b5f6fe377a6ce9cf670304de8f15779953a842d58702483045022100cf4d5cda5f171996e2ae5955e0066de840e3f9985ab6602f6ae62fe25b4fc001022057c5dfc3716e0622556c32a82ca7f8c0e7b7ee739ef8bdbbe229fd7280e3213e0121039544cc095785c7c2d8f005a47775bd2c00864238bccf37008bb0f3ef33b5f64f00000000", "vin": [{"txinwitness": ["3045022100cf4d5cda5f171996e2ae5955e0066de840e3f9985ab6602f6ae62fe25b4fc001022057c5dfc3716e0622556c32a82ca7f8c0e7b7ee739ef8bdbbe229fd7280e3213e01", "039544cc095785c7c2d8f005a47775bd2c00864238bccf37008bb0f3ef33b5f64f"], "sequence": 4294967295, "scriptSig": {"hex": "", "asm": ""}, "vout": 0, "txid": "5a91fb1ea2f12835f831e2197143d0e4ea49c6482a4076bb8c01aca04ebd158f"}], "txid": "6a85ff462ada4ff1242158b29803e20759c4cd47536010d6fcee84dff30e9a23", "blocktime": 1537869901, "version": 1, "confirmations": 11523, "time": 1537869901, "locktime": 0, "vsize": 142, "size": 224}