{"hash": "6a9cdef6be82281ecb55a181d5817fbff2317d67233c19e300d033b8181ccc72", "blockhash": "00000000000000000017f5eb5941039fbcee6240d03bc1f2f8e35350df66a1d8", "vout": [{"scriptPubKey": {"reqSigs": 1, "hex": "76a914d243e6abb9a60fbff430b421d2df4b7d59ec186088ac", "addresses": ["1LAnF8h3qMGx3TSwNUHVneBZUEpwE4gu3D"], "asm": "OP_DUP OP_HASH160 d243e6abb9a60fbff430b421d2df4b7d59ec1860 OP_EQUALVERIFY OP_CHECKSIG", "type": "pubkeyhash"}, "value": 0.00077314, "n": 0}, {"scriptPubKey": {"reqSigs": 1, "hex": "76a9143916d05f6ea0800eb759008234085eb8b92be0b788ac", "addresses": ["16Crr5PzDoNb3aN8DPh2V8fBNYFddzZq9q"], "asm": "OP_DUP OP_HASH160 3916d05f6ea0800eb759008234085eb8b92be0b7 OP_EQUALVERIFY OP_CHECKSIG", "type": "pubkeyhash"}, "value": 5.46e-06, "n": 1}, {"scriptPubKey": {"type": "nulldata", "hex": "6a146f6d6e69000000000000001f0000001438b0b250", "asm": "OP_RETURN 6f6d6e69000000000000001f0000001438b0b250"}, "value": 0.0, "n": 2}], "hex": "0100000001dcf7376e4729344efc6813de1b3bef665613031a30d49245307545fa8616f33d000000006b483045022100e9521573a2919b93531a2dc5b0448d63cf8ab3eff3293d1bf3113207b18b4637022051b817b3d9ca83b7dc407402da022824803010c3450c3a232a302fd4bf00c6bf01210271977291b74f1f5f5c42157e8aae804664eaaeccfd097918450d37f28fb94d77ffffffff03022e0100000000001976a914d243e6abb9a60fbff430b421d2df4b7d59ec186088ac22020000000000001976a9143916d05f6ea0800eb759008234085eb8b92be0b788ac0000000000000000166a146f6d6e69000000000000001f0000001438b0b25000000000", "vin": [{"sequence": 4294967295, "scriptSig": {"hex": "483045022100e9521573a2919b93531a2dc5b0448d63cf8ab3eff3293d1bf3113207b18b4637022051b817b3d9ca83b7dc407402da022824803010c3450c3a232a302fd4bf00c6bf01210271977291b74f1f5f5c42157e8aae804664eaaeccfd097918450d37f28fb94d77", "asm": "3045022100e9521573a2919b93531a2dc5b0448d63cf8ab3eff3293d1bf3113207b18b4637022051b817b3d9ca83b7dc407402da022824803010c3450c3a232a302fd4bf00c6bf[ALL] 0271977291b74f1f5f5c42157e8aae804664eaaeccfd097918450d37f28fb94d77"}, "vout": 0, "txid": "3df31686fa4575304592d4301a03135666ef3b1bde1368fc4e3429476e37f7dc"}], "txid": "6a9cdef6be82281ecb55a181d5817fbff2317d67233c19e300d033b8181ccc72", "blocktime": 1537874412, "version": 1, "confirmations": 11467, "time": 1537874412, "locktime": 0, "vsize": 257, "size": 257}