{"hash": "be225699d351a1a156174965a6e8bc1a2a62e045d2dbae876e93d42d5d6c905f", "blockhash": "00000000000000000024a2167bbff67b0be802c0b01cdd79e6331c2be6459f87", "vout": [{"scriptPubKey": {"reqSigs": 1, "hex": "76a9140f9ea01611bd1016cf8f7b6ec25c6cdebcdf87dd88ac", "addresses": ["12RbAMpvWN3XsBgCckgcT5nh6oYuDHP5Z9"], "asm": "OP_DUP OP_HASH160 0f9ea01611bd1016cf8f7b6ec25c6cdebcdf87dd OP_EQUALVERIFY OP_CHECKSIG", "type": "pubkeyhash"}, "value": 0.00741972, "n": 0}, {"scriptPubKey": {"reqSigs": 1, "hex": "a91430df94ceef07be9fcfdffe58e58048c08ce4975787", "addresses": ["369SCT8zR16FPb7FuU4dyUpf5czbj3myv5"], "asm": "OP_HASH160 30df94ceef07be9fcfdffe58e58048c08ce49757 OP_EQUAL", "type": "scripthash"}, "value": 0.51516863, "n": 1}], "hex": "020000000001012cc2378ba8bd25ae2284cfa52face6d0baa58ccdac15544210685fa42286605c01000000171600140feeeee4fced8a8cfc6f9db1c9dcdc76845b8f65fdffffff0254520b00000000001976a9140f9ea01611bd1016cf8f7b6ec25c6cdebcdf87dd88acbf1512030000000017a91430df94ceef07be9fcfdffe58e58048c08ce497578702483045022100ad716bb6ae40078f83d6e5fcc851bfdeb877e48e79194a1b5cb3449c167da141022061ff7affa432502abbf9266c9342f5d32390361bde60303e6d233d238f6c1dfb012103544180e8e66363257b24450d3b1d2d83fbb874763ab3c6a0e0cea977a3f294c10c490800", "vin": [{"txinwitness": ["3045022100ad716bb6ae40078f83d6e5fcc851bfdeb877e48e79194a1b5cb3449c167da141022061ff7affa432502abbf9266c9342f5d32390361bde60303e6d233d238f6c1dfb01", "03544180e8e66363257b24450d3b1d2d83fbb874763ab3c6a0e0cea977a3f294c1"], "sequence": 4294967293, "scriptSig": {"hex": "1600140feeeee4fced8a8cfc6f9db1c9dcdc76845b8f65", "asm": "00140feeeee4fced8a8cfc6f9db1c9dcdc76845b8f65"}, "vout": 1, "txid": "5c608622a45f6810425415accd8ca5bad0e6ac2fa5cf8422ae25bda88b37c22c"}], "txid": "6a9c7c13acbb792e5f1031782180d9e0a821d0a06f76656303838e7fb1922fe2", "blocktime": 1537870564, "version": 2, "confirmations": 11515, "time": 1537870564, "locktime": 542988, "vsize": 168, "size": 250}