{"hash": "6a9e77206d3b1a00644558ff2d82030c5090674f7d0f35016f01ee7e19c47e10", "blockhash": "0000000000000000001f76057863aec43deb6fa401d9628bb513d65a8098bfab", "vout": [{"scriptPubKey": {"reqSigs": 1, "hex": "76a914fe3e43b3d4de37689b73b5f6ccb6d41915c01bca88ac", "addresses": ["1QBKDwGW92QdQzXtNeP3vWiTy2zAJk2BVQ"], "asm": "OP_DUP OP_HASH160 fe3e43b3d4de37689b73b5f6ccb6d41915c01bca OP_EQUALVERIFY OP_CHECKSIG", "type": "pubkeyhash"}, "value": 0.00427573, "n": 0}, {"scriptPubKey": {"type": "nulldata", "hex": "6a146f6d6e69000000000000001f00000003781bf500", "asm": "OP_RETURN 6f6d6e69000000000000001f00000003781bf500"}, "value": 0.0, "n": 1}, {"scriptPubKey": {"reqSigs": 1, "hex": "76a914a25dec4d0011064ef106a983c39c7a540699f22088ac", "addresses": ["1FoWyxwPXuj4C6abqwhjDWdz6D4PZgYRjA"], "asm": "OP_DUP OP_HASH160 a25dec4d0011064ef106a983c39c7a540699f220 OP_EQUALVERIFY OP_CHECKSIG", "type": "pubkeyhash"}, "value": 5.46e-06, "n": 2}], "hex": "010000000120fca3c0cb7ebac42238e203a0e75a373616463c29bd2c2bb01359419dfc8321000000006a473044022024715abd362b29be7185f2ebc0255f07749e64757608c48e7254a0773cf49c66022034806778533447d75a402997f7ef6aa5f6ce4b57fd4d8b96a7366b77ee8c740401210212e4fa5d6258914eea5ce78fd3b3e23cac687df7791b2093eb5368cf37b9e976feffffff0335860600000000001976a914fe3e43b3d4de37689b73b5f6ccb6d41915c01bca88ac0000000000000000166a146f6d6e69000000000000001f00000003781bf50022020000000000001976a914a25dec4d0011064ef106a983c39c7a540699f22088ac13490800", "vin": [{"sequence": 4294967294, "scriptSig": {"hex": "473044022024715abd362b29be7185f2ebc0255f07749e64757608c48e7254a0773cf49c66022034806778533447d75a402997f7ef6aa5f6ce4b57fd4d8b96a7366b77ee8c740401210212e4fa5d6258914eea5ce78fd3b3e23cac687df7791b2093eb5368cf37b9e976", "asm": "3044022024715abd362b29be7185f2ebc0255f07749e64757608c48e7254a0773cf49c66022034806778533447d75a402997f7ef6aa5f6ce4b57fd4d8b96a7366b77ee8c7404[ALL] 0212e4fa5d6258914eea5ce78fd3b3e23cac687df7791b2093eb5368cf37b9e976"}, "vout": 0, "txid": "2183fc9d415913b02b2cbd293c461636375ae7a003e23822c4ba7ecbc0a3fc20"}], "txid": "6a9e77206d3b1a00644558ff2d82030c5090674f7d0f35016f01ee7e19c47e10", "blocktime": 1537873891, "version": 1, "confirmations": 11478, "time": 1537873891, "locktime": 542995, "vsize": 256, "size": 256}