{"hash": "6aa31296e7b49e5bbd8445ab0b2ea99b1e291eb4d54fbe84ec9999e40498618a", "blockhash": "00000000000000000024a2167bbff67b0be802c0b01cdd79e6331c2be6459f87", "vout": [{"scriptPubKey": {"reqSigs": 1, "hex": "76a914ca6403bf1afa4d85bd6da313affa8a5cafb7fd5588ac", "addresses": ["1KT9JtXZnXcMmZ9UGZCVZVdDw6qMsqLLkY"], "asm": "OP_DUP OP_HASH160 ca6403bf1afa4d85bd6da313affa8a5cafb7fd55 OP_EQUALVERIFY OP_CHECKSIG", "type": "pubkeyhash"}, "value": 0.0002, "n": 0}, {"scriptPubKey": {"reqSigs": 1, "hex": "76a914d67906e26dba637db385041200ff82e16a3f0aa088ac", "addresses": ["1LZ2b9ZcCMEX6y9iQ3JZSXT2wUpxFxayav"], "asm": "OP_DUP OP_HASH160 d67906e26dba637db385041200ff82e16a3f0aa0 OP_EQUALVERIFY OP_CHECKSIG", "type": "pubkeyhash"}, "value": 0.01008647, "n": 1}], "hex": "01000000027ad9413e65c51ea69edd8bc147ddc7c018340b1f1630cdf1eb1bf4fe099af459000000006a473044022046feab0b50f84b3802e2f0c8c571aa87723023d8620e664239a46b2eb1a1f85002201bb96eb46be8689731d8de29ec56742ba5c0dfb7598d4f71dac5b275b7375bc801210324f35cf245806dacda6ab2b296e2bfa4a1a486dfa30b607f2db7a117be9a03bcfeffffff7ad9413e65c51ea69edd8bc147ddc7c018340b1f1630cdf1eb1bf4fe099af459010000006b483045022100f77b07fab91482c451b39447395df0afbc3096775f5af2d5d33000e5e5c5217202204259fb2a5992b5cb8c453af16bc09e345f62c28f89051bab09a1cacf462e8ba40121022554dc0ca9a1d2461f3374a25b200c7d618cb3f3a9c72e5497997063f2d74eecfeffffff02204e0000000000001976a914ca6403bf1afa4d85bd6da313affa8a5cafb7fd5588ac07640f00000000001976a914d67906e26dba637db385041200ff82e16a3f0aa088ac0d490800", "vin": [{"sequence": 4294967294, "scriptSig": {"hex": "473044022046feab0b50f84b3802e2f0c8c571aa87723023d8620e664239a46b2eb1a1f85002201bb96eb46be8689731d8de29ec56742ba5c0dfb7598d4f71dac5b275b7375bc801210324f35cf245806dacda6ab2b296e2bfa4a1a486dfa30b607f2db7a117be9a03bc", "asm": "3044022046feab0b50f84b3802e2f0c8c571aa87723023d8620e664239a46b2eb1a1f85002201bb96eb46be8689731d8de29ec56742ba5c0dfb7598d4f71dac5b275b7375bc8[ALL] 0324f35cf245806dacda6ab2b296e2bfa4a1a486dfa30b607f2db7a117be9a03bc"}, "vout": 0, "txid": "59f49a09fef41bebf1cd30161f0b3418c0c7dd47c18bdd9ea61ec5653e41d97a"}, {"sequence": 4294967294, "scriptSig": {"hex": "483045022100f77b07fab91482c451b39447395df0afbc3096775f5af2d5d33000e5e5c5217202204259fb2a5992b5cb8c453af16bc09e345f62c28f89051bab09a1cacf462e8ba40121022554dc0ca9a1d2461f3374a25b200c7d618cb3f3a9c72e5497997063f2d74eec", "asm": "3045022100f77b07fab91482c451b39447395df0afbc3096775f5af2d5d33000e5e5c5217202204259fb2a5992b5cb8c453af16bc09e345f62c28f89051bab09a1cacf462e8ba4[ALL] 022554dc0ca9a1d2461f3374a25b200c7d618cb3f3a9c72e5497997063f2d74eec"}, "vout": 1, "txid": "59f49a09fef41bebf1cd30161f0b3418c0c7dd47c18bdd9ea61ec5653e41d97a"}], "txid": "6aa31296e7b49e5bbd8445ab0b2ea99b1e291eb4d54fbe84ec9999e40498618a", "blocktime": 1537870564, "version": 1, "confirmations": 11515, "time": 1537870564, "locktime": 542989, "vsize": 373, "size": 373}