{"hash": "6aa8ec986175e66cedc9dcca195e81cd7040b13d2bcc8aebe9aaeb75c918d159", "blockhash": "0000000000000000001cda96e906b7601b7a6fb1a3b62bca570a9e5d8f4b3de1", "vout": [{"scriptPubKey": {"reqSigs": 1, "hex": "76a9147286652db5815c2b8725fdd4cd8a7a400e862b2788ac", "addresses": ["1BSZ2p9UXmuiHAC2z2wY12UXi8JgjYuVbK"], "asm": "OP_DUP OP_HASH160 7286652db5815c2b8725fdd4cd8a7a400e862b27 OP_EQUALVERIFY OP_CHECKSIG", "type": "pubkeyhash"}, "value": 0.00110095, "n": 0}, {"scriptPubKey": {"reqSigs": 1, "hex": "76a9146c804cf3ce984618be7b724fc197785e10cad21888ac", "addresses": ["1AthgCZWx7mAhMwxZLEQ2iieD2ZuwiPCRs"], "asm": "OP_DUP OP_HASH160 6c804cf3ce984618be7b724fc197785e10cad218 OP_EQUALVERIFY OP_CHECKSIG", "type": "pubkeyhash"}, "value": 0.00747463, "n": 1}], "hex": "0100000001bde855de029bb2be2241284a4df4159c393ea0fc4c57f43ea353016f480e7f9d010000006a4730440220460deafd4ac74325bae7308537df7d7ba0a3253139f81a0b8f37c04039281ba602202029ea0f389cc0081774025429effd331915f5e5adba399d9dd4c2b8baf53e9a012102aa7d4af097f6b0ea75e9dd138e49fc9e7bc076289f3098cb8ee6285318b31998ffffffff020fae0100000000001976a9147286652db5815c2b8725fdd4cd8a7a400e862b2788acc7670b00000000001976a9146c804cf3ce984618be7b724fc197785e10cad21888ac00000000", "vin": [{"sequence": 4294967295, "scriptSig": {"hex": "4730440220460deafd4ac74325bae7308537df7d7ba0a3253139f81a0b8f37c04039281ba602202029ea0f389cc0081774025429effd331915f5e5adba399d9dd4c2b8baf53e9a012102aa7d4af097f6b0ea75e9dd138e49fc9e7bc076289f3098cb8ee6285318b31998", "asm": "30440220460deafd4ac74325bae7308537df7d7ba0a3253139f81a0b8f37c04039281ba602202029ea0f389cc0081774025429effd331915f5e5adba399d9dd4c2b8baf53e9a[ALL] 02aa7d4af097f6b0ea75e9dd138e49fc9e7bc076289f3098cb8ee6285318b31998"}, "vout": 1, "txid": "9d7f0e486f0153a33ef4574cfca03e399c15f44d4a284122beb29b02de55e8bd"}], "txid": "6aa8ec986175e66cedc9dcca195e81cd7040b13d2bcc8aebe9aaeb75c918d159", "blocktime": 1537873282, "version": 1, "confirmations": 11484, "time": 1537873282, "locktime": 0, "vsize": 225, "size": 225}