{"hash": "6ab026155091d421b7f68ae046dd8b2a91479a10ff91eb65081273de888607e0", "blockhash": "00000000000000000017f5eb5941039fbcee6240d03bc1f2f8e35350df66a1d8", "vout": [{"scriptPubKey": {"reqSigs": 1, "hex": "a9143eeafbe4cbdbbc7571ad97b7d130414d0e9011ce87", "addresses": ["37RhKQg9TAbyQgzrfRwSvmePZUwL6ggYuW"], "asm": "OP_HASH160 3eeafbe4cbdbbc7571ad97b7d130414d0e9011ce OP_EQUAL", "type": "scripthash"}, "value": 0.00205327, "n": 0}, {"scriptPubKey": {"reqSigs": 1, "hex": "76a914671b6ddff6c671482eb4bebe6c5655b5e745b3a588ac", "addresses": ["1AQBTaDTP3nnyz41PVr1PxQGp4rvxhXFFK"], "asm": "OP_DUP OP_HASH160 671b6ddff6c671482eb4bebe6c5655b5e745b3a5 OP_EQUALVERIFY OP_CHECKSIG", "type": "pubkeyhash"}, "value": 0.02480551, "n": 1}], "hex": "0100000001c5dcd502aec17a1847b834d72e1e8ede8a872bf2d669699e60790b8cc58b9659010000006b483045022100a8a79b92f87b334724e147d445c1ab4d7a070603dc074bcf7b1a081f54ef45de0220379f5e02ebad180702c22a6fe0dd5ffcd9ece59c29e41e060128a67cbe2cbd0c012102c6ec7e514864a654aa7cd3fd8163cd321ed116d681dad0bb6bf8b8dba930218dffffffff020f2203000000000017a9143eeafbe4cbdbbc7571ad97b7d130414d0e9011ce87a7d92500000000001976a914671b6ddff6c671482eb4bebe6c5655b5e745b3a588ac00000000", "vin": [{"sequence": 4294967295, "scriptSig": {"hex": "483045022100a8a79b92f87b334724e147d445c1ab4d7a070603dc074bcf7b1a081f54ef45de0220379f5e02ebad180702c22a6fe0dd5ffcd9ece59c29e41e060128a67cbe2cbd0c012102c6ec7e514864a654aa7cd3fd8163cd321ed116d681dad0bb6bf8b8dba930218d", "asm": "3045022100a8a79b92f87b334724e147d445c1ab4d7a070603dc074bcf7b1a081f54ef45de0220379f5e02ebad180702c22a6fe0dd5ffcd9ece59c29e41e060128a67cbe2cbd0c[ALL] 02c6ec7e514864a654aa7cd3fd8163cd321ed116d681dad0bb6bf8b8dba930218d"}, "vout": 1, "txid": "59968bc58c0b79609e6969d6f22b878ade8e1e2ed734b847187ac1ae02d5dcc5"}], "txid": "6ab026155091d421b7f68ae046dd8b2a91479a10ff91eb65081273de888607e0", "blocktime": 1537874412, "version": 1, "confirmations": 11468, "time": 1537874412, "locktime": 0, "vsize": 224, "size": 224}