{"hash": "6ab63c57cc979e7520856130b91e7fe52073a22faba1f0e73b5b7e70a80ea05a", "blockhash": "0000000000000000001cda96e906b7601b7a6fb1a3b62bca570a9e5d8f4b3de1", "vout": [{"scriptPubKey": {"reqSigs": 1, "hex": "a914ce42790711428ffb5d3303bb68d4c077fdeb1e3187", "addresses": ["3LVckfnFDgu9VBF7EDnQQSDgQu9aaTzrv5"], "asm": "OP_HASH160 ce42790711428ffb5d3303bb68d4c077fdeb1e31 OP_EQUAL", "type": "scripthash"}, "value": 0.00384694, "n": 0}, {"scriptPubKey": {"reqSigs": 1, "hex": "76a914ef0d1aefa2623a34121a8e89e9ee5f90b10465be88ac", "addresses": ["1NnzCR1sU6U7pTDjuwNjkoEFG181YtRBue"], "asm": "OP_DUP OP_HASH160 ef0d1aefa2623a34121a8e89e9ee5f90b10465be OP_EQUALVERIFY OP_CHECKSIG", "type": "pubkeyhash"}, "value": 8.595e-05, "n": 1}], "hex": "01000000026e22202725c6af313077e1969f77d4be273f07d51a735166cbf1414c4153df3000000000da004830450221008db13e068e398c0df4dfb867d68b1586949ba74b663022397f99aa5ded42e21d0220064aebb169be5d92faf9dc75ae208d1fe5a6f3debb878f206b1ea8a061fa407f0147304402205e5355d9db48a0c5b9f7bc1d6bfd50fb32d58a1c1b7ca9e6ed80d2fb81f8e8120220201b20f281de119f360584e7dbc76d684a11e6c6417e0933129450690aae33bd0147522102907a54bed8ad74b3f35638c60114ca240a308cb986f3f2f306178869a8880b61210304d2531e8e486ba6c557f80551c1bfb4cf12c96c25772f9791419e9bf234e86952aeffffffff2740e29ae3ae022a81caa8f2746d55d6eca130329edd909899897e97005f4929010000006b483045022100f19c092878ee53bc26cfbe39c0bafd5cb8decf1cacbf1c5912d22d24e7f8cbb902205f58590de9a7e883d2334334a3f565a1caf873d8dad74dc7846806f1d04c7ab90121035a24a83995e5a68b943ed15e6c4c00a450c2998ff1520e68722dd7da74324a09ffffffff02b6de05000000000017a914ce42790711428ffb5d3303bb68d4c077fdeb1e318793210000000000001976a914ef0d1aefa2623a34121a8e89e9ee5f90b10465be88ac00000000", "vin": [{"sequence": 4294967295, "scriptSig": {"hex": "004830450221008db13e068e398c0df4dfb867d68b1586949ba74b663022397f99aa5ded42e21d0220064aebb169be5d92faf9dc75ae208d1fe5a6f3debb878f206b1ea8a061fa407f0147304402205e5355d9db48a0c5b9f7bc1d6bfd50fb32d58a1c1b7ca9e6ed80d2fb81f8e8120220201b20f281de119f360584e7dbc76d684a11e6c6417e0933129450690aae33bd0147522102907a54bed8ad74b3f35638c60114ca240a308cb986f3f2f306178869a8880b61210304d2531e8e486ba6c557f80551c1bfb4cf12c96c25772f9791419e9bf234e86952ae", "asm": "0 30450221008db13e068e398c0df4dfb867d68b1586949ba74b663022397f99aa5ded42e21d0220064aebb169be5d92faf9dc75ae208d1fe5a6f3debb878f206b1ea8a061fa407f[ALL] 304402205e5355d9db48a0c5b9f7bc1d6bfd50fb32d58a1c1b7ca9e6ed80d2fb81f8e8120220201b20f281de119f360584e7dbc76d684a11e6c6417e0933129450690aae33bd[ALL] 522102907a54bed8ad74b3f35638c60114ca240a308cb986f3f2f306178869a8880b61210304d2531e8e486ba6c557f80551c1bfb4cf12c96c25772f9791419e9bf234e86952ae"}, "vout": 0, "txid": "30df53414c41f1cb6651731ad5073f27bed4779f96e1773031afc6252720226e"}, {"sequence": 4294967295, "scriptSig": {"hex": "483045022100f19c092878ee53bc26cfbe39c0bafd5cb8decf1cacbf1c5912d22d24e7f8cbb902205f58590de9a7e883d2334334a3f565a1caf873d8dad74dc7846806f1d04c7ab90121035a24a83995e5a68b943ed15e6c4c00a450c2998ff1520e68722dd7da74324a09", "asm": "3045022100f19c092878ee53bc26cfbe39c0bafd5cb8decf1cacbf1c5912d22d24e7f8cbb902205f58590de9a7e883d2334334a3f565a1caf873d8dad74dc7846806f1d04c7ab9[ALL] 035a24a83995e5a68b943ed15e6c4c00a450c2998ff1520e68722dd7da74324a09"}, "vout": 1, "txid": "29495f00977e89999890dd9e3230a1ecd6556d74f2a8ca812a02aee39ae24027"}], "txid": "6ab63c57cc979e7520856130b91e7fe52073a22faba1f0e73b5b7e70a80ea05a", "blocktime": 1537873282, "version": 1, "confirmations": 11484, "time": 1537873282, "locktime": 0, "vsize": 483, "size": 483}