{"hash": "6ab9199ec53dbd3df9f6861f105c0f5de243916e6b27244a7fb30f44a31e955f", "blockhash": "00000000000000000017f5eb5941039fbcee6240d03bc1f2f8e35350df66a1d8", "vout": [{"scriptPubKey": {"reqSigs": 1, "hex": "a91491bf33be57f498ce9ce9d9f2f2235cd35aaac71f87", "addresses": ["3EyexKFsfuLXiodcCKbNCi5AX8sTCNkcrZ"], "asm": "OP_HASH160 91bf33be57f498ce9ce9d9f2f2235cd35aaac71f OP_EQUAL", "type": "scripthash"}, "value": 0.000342, "n": 0}, {"scriptPubKey": {"reqSigs": 1, "hex": "76a9144997ad4c16c62e812d97ff2d8bd3519ef4b3acdd88ac", "addresses": ["17i82hjdBJ3wG1CQevjnesuwRJX8QptnfZ"], "asm": "OP_DUP OP_HASH160 4997ad4c16c62e812d97ff2d8bd3519ef4b3acdd OP_EQUALVERIFY OP_CHECKSIG", "type": "pubkeyhash"}, "value": 0.01770191, "n": 1}], "hex": "010000000154ae04f58e297fb16d81e86f0e95293f9b3c84cd24443c28882209de60561a580d0000006a47304402201e32cd21a2b2d022e51cb3b8d599d4a7c34e261bf150e626fb89af243ff9d035022043a3d4cb5c69f4e0fc052505d7421b9ece73ef8ce380122916de1e51bc7402e1012103d93b0f105bc8a3ee6733e1bd0fbc3f204816087d1bba995e668d8e21f22638c9ffffffff02988500000000000017a91491bf33be57f498ce9ce9d9f2f2235cd35aaac71f87cf021b00000000001976a9144997ad4c16c62e812d97ff2d8bd3519ef4b3acdd88ac00000000", "vin": [{"sequence": 4294967295, "scriptSig": {"hex": "47304402201e32cd21a2b2d022e51cb3b8d599d4a7c34e261bf150e626fb89af243ff9d035022043a3d4cb5c69f4e0fc052505d7421b9ece73ef8ce380122916de1e51bc7402e1012103d93b0f105bc8a3ee6733e1bd0fbc3f204816087d1bba995e668d8e21f22638c9", "asm": "304402201e32cd21a2b2d022e51cb3b8d599d4a7c34e261bf150e626fb89af243ff9d035022043a3d4cb5c69f4e0fc052505d7421b9ece73ef8ce380122916de1e51bc7402e1[ALL] 03d93b0f105bc8a3ee6733e1bd0fbc3f204816087d1bba995e668d8e21f22638c9"}, "vout": 13, "txid": "581a5660de092288283c4424cd843c9b3f29950e6fe8816db17f298ef504ae54"}], "txid": "6ab9199ec53dbd3df9f6861f105c0f5de243916e6b27244a7fb30f44a31e955f", "blocktime": 1537874412, "version": 1, "confirmations": 11467, "time": 1537874412, "locktime": 0, "vsize": 223, "size": 223}