{"hash": "979236e9d728ac9e28b038ded5f6e42934aec547bd8fcb3ba2a73f7c12b91f72", "blockhash": "0000000000000000001cda96e906b7601b7a6fb1a3b62bca570a9e5d8f4b3de1", "vout": [{"scriptPubKey": {"reqSigs": 1, "hex": "a9145507f131db6e247d646ec6a0fc9f4bcf61b59bc487", "addresses": ["39ScsgSPXjQenJsuA8Sp5bS6iVyhqCkYiC"], "asm": "OP_HASH160 5507f131db6e247d646ec6a0fc9f4bcf61b59bc4 OP_EQUAL", "type": "scripthash"}, "value": 0.01000065, "n": 0}, {"scriptPubKey": {"reqSigs": 1, "hex": "76a91498aa9f0db83323ca5c2d59ac9620c114c6cd32ca88ac", "addresses": ["1EvE78nRwSy3zKTMBem5Cth6bVMW77GhaA"], "asm": "OP_DUP OP_HASH160 98aa9f0db83323ca5c2d59ac9620c114c6cd32ca OP_EQUALVERIFY OP_CHECKSIG", "type": "pubkeyhash"}, "value": 0.0028726, "n": 1}], "hex": "02000000000102a5e24d3e70f4f9dbd734450f47b5584e099ab21ea00a9ff496a4feca81eb45750000000017160014189b63c1805b30e0e1d8aa52475db7cc9a1896d3feffffffb403a6841c7fee65d89995b55e836048b729a00b4caa033ed7c98fb269fc1afd010000001716001456646600aa13a87c936b984814063b1034cf381afeffffff0281420f000000000017a9145507f131db6e247d646ec6a0fc9f4bcf61b59bc4871c620400000000001976a91498aa9f0db83323ca5c2d59ac9620c114c6cd32ca88ac024730440220237ee14c2e3a6fbf6ebdfcc0267fac7d8053b37a3e820fabb0de9c27a612317002202844b8886143c93c8632f328facef2a99f9593dabf0c18745af9ab9c21e3b510012102cf523f22eb8989f137623d66de3de300eb323b09e1adc5dbb28a0d042943c53a02483045022100c8462e0cbe029e2de4bbe886a7f0d11a8e9e9dfbcb2a5a41cb0a6ffd20f48c310220361168a3351fa1f8bbdde0e1f37041674875be39b771967be5f94f2e17e6ff6b01210365710da37fd5202c8ac5bf8b1ab4679014d9afb76e90930af5da60e3f1379edc07490800", "vin": [{"txinwitness": ["30440220237ee14c2e3a6fbf6ebdfcc0267fac7d8053b37a3e820fabb0de9c27a612317002202844b8886143c93c8632f328facef2a99f9593dabf0c18745af9ab9c21e3b51001", "02cf523f22eb8989f137623d66de3de300eb323b09e1adc5dbb28a0d042943c53a"], "sequence": 4294967294, "scriptSig": {"hex": "160014189b63c1805b30e0e1d8aa52475db7cc9a1896d3", "asm": "0014189b63c1805b30e0e1d8aa52475db7cc9a1896d3"}, "vout": 0, "txid": "7545eb81cafea496f49f0aa01eb29a094e58b5470f4534d7dbf9f4703e4de2a5"}, {"txinwitness": ["3045022100c8462e0cbe029e2de4bbe886a7f0d11a8e9e9dfbcb2a5a41cb0a6ffd20f48c310220361168a3351fa1f8bbdde0e1f37041674875be39b771967be5f94f2e17e6ff6b01", "0365710da37fd5202c8ac5bf8b1ab4679014d9afb76e90930af5da60e3f1379edc"], "sequence": 4294967294, "scriptSig": {"hex": "16001456646600aa13a87c936b984814063b1034cf381a", "asm": "001456646600aa13a87c936b984814063b1034cf381a"}, "vout": 1, "txid": "fd1afc69b28fc9d73e03aa4c0ba029b74860835eb59599d865ee7f1c84a603b4"}], "txid": "6aba7356639ae0597c12050548af6a74bacfaf0a35ab1651d96ab3cf1eddbb5e", "blocktime": 1537873282, "version": 2, "confirmations": 11485, "time": 1537873282, "locktime": 542983, "vsize": 259, "size": 421}