{"hash": "6ac03430096dead8ac01d0f49bb62f6f1a6c499486bb39dec2ed7fc85028cf49", "blockhash": "0000000000000000000dcc0f55137456b1a82d3642486a52398922ac4d620174", "vout": [{"scriptPubKey": {"reqSigs": 1, "hex": "a9140360dd2b3b0c79b39f3d3df1b3f98a3abf2ec90587", "addresses": ["31zszLtxQi8Kq86qiuoLJ72pNioMGWdGpb"], "asm": "OP_HASH160 0360dd2b3b0c79b39f3d3df1b3f98a3abf2ec905 OP_EQUAL", "type": "scripthash"}, "value": 0.0023, "n": 0}, {"scriptPubKey": {"reqSigs": 1, "hex": "76a914e33a16375636c3b430ccd3819a0564491211facf88ac", "addresses": ["1MiTyVBSzv4kQy9s5JAjxP5P4wMpjsRxAV"], "asm": "OP_DUP OP_HASH160 e33a16375636c3b430ccd3819a0564491211facf OP_EQUALVERIFY OP_CHECKSIG", "type": "pubkeyhash"}, "value": 0.00759322, "n": 1}], "hex": "0100000001f85b4746dd80c559dee4343d8e0a3e3b61b0ce9c54a171e1ee30433aef747bee000000006a47304402204899dd5e3ecd0cf0c0aeb3655b793b40b94cb081ee239c17af59e0f580829a680220788b175d5a839b2a0da94a3d804b1998da326efc2106f5543a537ef7579ace1601210230d9b28f3b6d3e1165152a261155439552c244256fce9cb18adea831980439c3ffffffff02708203000000000017a9140360dd2b3b0c79b39f3d3df1b3f98a3abf2ec905871a960b00000000001976a914e33a16375636c3b430ccd3819a0564491211facf88ac00000000", "vin": [{"sequence": 4294967295, "scriptSig": {"hex": "47304402204899dd5e3ecd0cf0c0aeb3655b793b40b94cb081ee239c17af59e0f580829a680220788b175d5a839b2a0da94a3d804b1998da326efc2106f5543a537ef7579ace1601210230d9b28f3b6d3e1165152a261155439552c244256fce9cb18adea831980439c3", "asm": "304402204899dd5e3ecd0cf0c0aeb3655b793b40b94cb081ee239c17af59e0f580829a680220788b175d5a839b2a0da94a3d804b1998da326efc2106f5543a537ef7579ace16[ALL] 0230d9b28f3b6d3e1165152a261155439552c244256fce9cb18adea831980439c3"}, "vout": 0, "txid": "ee7b74ef3a4330eee171a1549cceb0613b3e0a8e3d34e4de59c580dd46475bf8"}], "txid": "6ac03430096dead8ac01d0f49bb62f6f1a6c499486bb39dec2ed7fc85028cf49", "blocktime": 1537870268, "version": 1, "confirmations": 11518, "time": 1537870268, "locktime": 0, "vsize": 223, "size": 223}