{"hash": "6ac19068405b7ae2a20e731798ff6ec3741b227de5c90d942961272708e41afb", "blockhash": "00000000000000000017f5eb5941039fbcee6240d03bc1f2f8e35350df66a1d8", "vout": [{"scriptPubKey": {"reqSigs": 1, "hex": "76a9145c9718ca79d279a7c666ca71d177c9a856391b7c88ac", "addresses": ["19SaB3NT3L7M2A53WhbKadayrzCmfwK6Sy"], "asm": "OP_DUP OP_HASH160 5c9718ca79d279a7c666ca71d177c9a856391b7c OP_EQUALVERIFY OP_CHECKSIG", "type": "pubkeyhash"}, "value": 0.15675351, "n": 0}], "hex": "01000000018cad43f6d6cee5f251afb5141fea5abc80ee732c88853151e46892a74faa37fb340000006a4730440220261958b5d01b5577f4735016ec3855f16d908de558095c3a7d2cb70c58ec409402207b01a3d7ab0b1175488a50f943841e99dc1c40223fad56d981b54de2493a7ae9012102622020106c16c364a355105469062b2728aae3250316a637558f98cbda7fbda5ffffffff01d72fef00000000001976a9145c9718ca79d279a7c666ca71d177c9a856391b7c88ac00000000", "vin": [{"sequence": 4294967295, "scriptSig": {"hex": "4730440220261958b5d01b5577f4735016ec3855f16d908de558095c3a7d2cb70c58ec409402207b01a3d7ab0b1175488a50f943841e99dc1c40223fad56d981b54de2493a7ae9012102622020106c16c364a355105469062b2728aae3250316a637558f98cbda7fbda5", "asm": "30440220261958b5d01b5577f4735016ec3855f16d908de558095c3a7d2cb70c58ec409402207b01a3d7ab0b1175488a50f943841e99dc1c40223fad56d981b54de2493a7ae9[ALL] 02622020106c16c364a355105469062b2728aae3250316a637558f98cbda7fbda5"}, "vout": 52, "txid": "fb37aa4fa79268e4513185882c73ee80bc5aea1f14b5af51f2e5ced6f643ad8c"}], "txid": "6ac19068405b7ae2a20e731798ff6ec3741b227de5c90d942961272708e41afb", "blocktime": 1537874412, "version": 1, "confirmations": 11467, "time": 1537874412, "locktime": 0, "vsize": 191, "size": 191}