{"hash": "70076f7f21fbb338b483d271c8a15ebb4331240971a26e80f12f9720c7ea5c3d", "blockhash": "0000000000000000001f76057863aec43deb6fa401d9628bb513d65a8098bfab", "vout": [{"scriptPubKey": {"reqSigs": 1, "hex": "76a9148e832d80d4382a3560bf133d23d5fc173571947b88ac", "addresses": ["1DzY6dWsS1b8nGY4VgbgUcHzTuBJCCC7MG"], "asm": "OP_DUP OP_HASH160 8e832d80d4382a3560bf133d23d5fc173571947b OP_EQUALVERIFY OP_CHECKSIG", "type": "pubkeyhash"}, "value": 0.00012862, "n": 0}, {"scriptPubKey": {"reqSigs": 1, "hex": "a914b15c00239094a3d4bd406a5abf3c83ad60ed27c287", "addresses": ["3Hrojoni8pEob8yHaUNbFgJCQKbYcK3pju"], "asm": "OP_HASH160 b15c00239094a3d4bd406a5abf3c83ad60ed27c2 OP_EQUAL", "type": "scripthash"}, "value": 0.01005851, "n": 1}], "hex": "02000000000101057a54ea39f29e9340b14d8fa172dce31bd09bd99a1b89e13b8535b6abf96d0301000000171600145bb02f2ef1fd2aedec054f862192f7a34ee00cc4feffffff023e320000000000001976a9148e832d80d4382a3560bf133d23d5fc173571947b88ac1b590f000000000017a914b15c00239094a3d4bd406a5abf3c83ad60ed27c28702483045022100c096c472ab5d4d83d2e4080cda65a973c82e364198a1a7505ffc0213b649f84102202f01f64fd87b60ad46f5ef0f305cc388600243d44bf62667bc480dc82bfece88012103237158239acceff0f16af1d41eb65cbef22861cfbc7afb77edfd29003acee08914490800", "vin": [{"txinwitness": ["3045022100c096c472ab5d4d83d2e4080cda65a973c82e364198a1a7505ffc0213b649f84102202f01f64fd87b60ad46f5ef0f305cc388600243d44bf62667bc480dc82bfece8801", "03237158239acceff0f16af1d41eb65cbef22861cfbc7afb77edfd29003acee089"], "sequence": 4294967294, "scriptSig": {"hex": "1600145bb02f2ef1fd2aedec054f862192f7a34ee00cc4", "asm": "00145bb02f2ef1fd2aedec054f862192f7a34ee00cc4"}, "vout": 1, "txid": "036df9abb635853be1891b9ad99bd01be3dc72a18f4db140939ef239ea547a05"}], "txid": "6ac4853399e1afe004a4ee07e556b4776a36aa851f7ef7980aa48b4dea1458d4", "blocktime": 1537873891, "version": 2, "confirmations": 11479, "time": 1537873891, "locktime": 542996, "vsize": 168, "size": 250}