{"hash": "6ac5f28ebe1f8de7b8b8a97435ea3158c2f914d3056d7f673d4453e3d77e242e", "blockhash": "0000000000000000001f76057863aec43deb6fa401d9628bb513d65a8098bfab", "vout": [{"scriptPubKey": {"reqSigs": 1, "hex": "a914cec7d74473a6430000ef559468b2c6fa27e7a95c87", "addresses": ["3LYNXFQRZBzGa2VZNiVMFbgGmgnKKdWzim"], "asm": "OP_HASH160 cec7d74473a6430000ef559468b2c6fa27e7a95c OP_EQUAL", "type": "scripthash"}, "value": 1.115646, "n": 0}, {"scriptPubKey": {"reqSigs": 1, "hex": "76a9146bff8764321ce6c051d944de2d45eaecda344d1488ac", "addresses": ["1Ar3Qz2RNZ6j3HD59BnSyLVEfJiWASfqf7"], "asm": "OP_DUP OP_HASH160 6bff8764321ce6c051d944de2d45eaecda344d14 OP_EQUALVERIFY OP_CHECKSIG", "type": "pubkeyhash"}, "value": 15.37526197, "n": 1}], "hex": "01000000014549809e7aa87ab041054764b986b497bfea90009e089d8d1660d205b2effde8010000008a473044022027ff28ac7b23a0fa82fa355747aab0d1b4ecf7ccda28c450907e3f8235cf6ca9022013765c1586c3325defedf488f25a105c7a2e931321e48b1b23ab478000cf5a97014104a30e2037100d8fdde70cf95150c21c17317e3d41bda9506b9ec5a7fe4c0de829a612a568acc590b0c7d8b6eb840f9d599f7c7eb7c2a20d2e207fbe5751d9986dfdffffff023857a6060000000017a914cec7d74473a6430000ef559468b2c6fa27e7a95c87b5c9a45b000000001976a9146bff8764321ce6c051d944de2d45eaecda344d1488ac14490800", "vin": [{"sequence": 4294967293, "scriptSig": {"hex": "473044022027ff28ac7b23a0fa82fa355747aab0d1b4ecf7ccda28c450907e3f8235cf6ca9022013765c1586c3325defedf488f25a105c7a2e931321e48b1b23ab478000cf5a97014104a30e2037100d8fdde70cf95150c21c17317e3d41bda9506b9ec5a7fe4c0de829a612a568acc590b0c7d8b6eb840f9d599f7c7eb7c2a20d2e207fbe5751d9986d", "asm": "3044022027ff28ac7b23a0fa82fa355747aab0d1b4ecf7ccda28c450907e3f8235cf6ca9022013765c1586c3325defedf488f25a105c7a2e931321e48b1b23ab478000cf5a97[ALL] 04a30e2037100d8fdde70cf95150c21c17317e3d41bda9506b9ec5a7fe4c0de829a612a568acc590b0c7d8b6eb840f9d599f7c7eb7c2a20d2e207fbe5751d9986d"}, "vout": 1, "txid": "e8fdefb205d260168d9d089e0090eabf97b486b964470541b07aa87a9e804945"}], "txid": "6ac5f28ebe1f8de7b8b8a97435ea3158c2f914d3056d7f673d4453e3d77e242e", "blocktime": 1537873891, "version": 1, "confirmations": 11477, "time": 1537873891, "locktime": 542996, "vsize": 255, "size": 255}