{"hash": "6acbb04e7ee62444bb4d04fe6c096d509cadc37e523fde2654b1d84eb5dfb70c", "blockhash": "0000000000000000000baef3f32e3676a92c3b2e5da21b426e4f302fc371ce76", "vout": [{"scriptPubKey": {"reqSigs": 1, "hex": "76a9149c07f5fca33089d76632b801c52e908dfb4b7a6888ac", "addresses": ["1FE1x4LpQGRpd56W2fJEvGVT4R6D2QAmau"], "asm": "OP_DUP OP_HASH160 9c07f5fca33089d76632b801c52e908dfb4b7a68 OP_EQUALVERIFY OP_CHECKSIG", "type": "pubkeyhash"}, "value": 0.0005, "n": 0}, {"scriptPubKey": {"reqSigs": 1, "hex": "76a914e349bc52d6b8100b58d3fce45135a91c5c128a1d88ac", "addresses": ["1MiningDkXkhKaXBTMKXfLemnk1YY5rbkT"], "asm": "OP_DUP OP_HASH160 e349bc52d6b8100b58d3fce45135a91c5c128a1d OP_EQUALVERIFY OP_CHECKSIG", "type": "pubkeyhash"}, "value": 0.02577079, "n": 1}], "hex": "0200000001bee478985478e252e140a6f466aae0f1c934e9728c09d116dfcc6859b462e7d3010000008b483045022100df535b422d75de6bc846d71d059b5e84a6828d601695c3ee4df8ba4d8702d11402202a52e7e4ca912a48e9e2b86c0c9da06395262903f5e2950e9d27670751ff0a59014104ae414abde7876c34e01694b38b2341d10b9b4c8db18a66262bd8df26bcb57893885c9fe8b79aa25330d5f05bb5aa9ab636a908a72e27956572b44190b22809beffffffff0250c30000000000001976a9149c07f5fca33089d76632b801c52e908dfb4b7a6888acb7522700000000001976a914e349bc52d6b8100b58d3fce45135a91c5c128a1d88ac00000000", "vin": [{"sequence": 4294967295, "scriptSig": {"hex": "483045022100df535b422d75de6bc846d71d059b5e84a6828d601695c3ee4df8ba4d8702d11402202a52e7e4ca912a48e9e2b86c0c9da06395262903f5e2950e9d27670751ff0a59014104ae414abde7876c34e01694b38b2341d10b9b4c8db18a66262bd8df26bcb57893885c9fe8b79aa25330d5f05bb5aa9ab636a908a72e27956572b44190b22809be", "asm": "3045022100df535b422d75de6bc846d71d059b5e84a6828d601695c3ee4df8ba4d8702d11402202a52e7e4ca912a48e9e2b86c0c9da06395262903f5e2950e9d27670751ff0a59[ALL] 04ae414abde7876c34e01694b38b2341d10b9b4c8db18a66262bd8df26bcb57893885c9fe8b79aa25330d5f05bb5aa9ab636a908a72e27956572b44190b22809be"}, "vout": 1, "txid": "d3e762b45968ccdf16d1098c72e934c9f1e0aa66f4a640e152e278549878e4be"}], "txid": "6acbb04e7ee62444bb4d04fe6c096d509cadc37e523fde2654b1d84eb5dfb70c", "blocktime": 1537876114, "version": 2, "confirmations": 11460, "time": 1537876114, "locktime": 0, "vsize": 258, "size": 258}