{"hash": "5497656574989b44bd13dab38a8608377ff36619cc01f4edef49edfd8b7f4ae5", "blockhash": "0000000000000000001f0ddff1eddb255c1121bcd4da4f1bc9a0da00cae72433", "vout": [{"scriptPubKey": {"reqSigs": 1, "hex": "76a9140a3195c50a139c1268b517078c4818eb7c3cee7288ac", "addresses": ["1vuA9XxA95fff3zonS6wemPTWBvQ16vN9"], "asm": "OP_DUP OP_HASH160 0a3195c50a139c1268b517078c4818eb7c3cee72 OP_EQUALVERIFY OP_CHECKSIG", "type": "pubkeyhash"}, "value": 0.00618752, "n": 0}, {"scriptPubKey": {"reqSigs": 1, "hex": "a914f4dbeb3c7d54e435aa82a4eb36dad1452682f22587", "addresses": ["3Q1iFakyimFnaKAt6mWGy5jP98KqMai98u"], "asm": "OP_HASH160 f4dbeb3c7d54e435aa82a4eb36dad1452682f225 OP_EQUAL", "type": "scripthash"}, "value": 0.01596698, "n": 1}], "hex": "020000000001027e4adbbc901149463483bc6feed88e5afc144129e0fa63e73c4d0871091bab670100000017160014025a0a4802b934dc917f5b45aae5232207e49ebdfeffffffc86d238b7586747862c6485a6e8ce420feb68332b05a2acb5a66e7dc90817a2201000000171600146ac066dcea5bca2382cc995ca8aea8807fee60e2feffffff0200710900000000001976a9140a3195c50a139c1268b517078c4818eb7c3cee7288ac1a5d18000000000017a914f4dbeb3c7d54e435aa82a4eb36dad1452682f2258702483045022100ae9fbb83ae3aeb13c63eebb7fcac88c1ba70ae066795a7ba549a8260010223eb0220029ef92a8a521f086bef4bc695db7c500a4d08cf335d624466e90b4cf5d6dd280121038883d9041710e2fecea85d9ba47a32591dc20c692cdc058f84cff5c82615484202483045022100aa42d1328851d03572e5bb131aa372784d8e3090799005aede5a8f254b17403502204afb30d2085e1622bbb57a919f13eccbd089fe2e46f58994f49c6a2bdc4cc7dd0121033903195f57e44e3758dbb7dc73b7533941527570a26f8ebde0fed0c7e7f85ecd11490800", "vin": [{"txinwitness": ["3045022100ae9fbb83ae3aeb13c63eebb7fcac88c1ba70ae066795a7ba549a8260010223eb0220029ef92a8a521f086bef4bc695db7c500a4d08cf335d624466e90b4cf5d6dd2801", "038883d9041710e2fecea85d9ba47a32591dc20c692cdc058f84cff5c826154842"], "sequence": 4294967294, "scriptSig": {"hex": "160014025a0a4802b934dc917f5b45aae5232207e49ebd", "asm": "0014025a0a4802b934dc917f5b45aae5232207e49ebd"}, "vout": 1, "txid": "67ab1b0971084d3ce763fae0294114fc5a8ed8ee6fbc833446491190bcdb4a7e"}, {"txinwitness": ["3045022100aa42d1328851d03572e5bb131aa372784d8e3090799005aede5a8f254b17403502204afb30d2085e1622bbb57a919f13eccbd089fe2e46f58994f49c6a2bdc4cc7dd01", "033903195f57e44e3758dbb7dc73b7533941527570a26f8ebde0fed0c7e7f85ecd"], "sequence": 4294967294, "scriptSig": {"hex": "1600146ac066dcea5bca2382cc995ca8aea8807fee60e2", "asm": "00146ac066dcea5bca2382cc995ca8aea8807fee60e2"}, "vout": 1, "txid": "227a8190dce7665acb2a5ab03283b6fe20e48c6e5a48c662787486758b236dc8"}], "txid": "6acebdb9792d49292d4fb2106bd466a0588872eea0d17692f64a9224be9f6446", "blocktime": 1537872018, "version": 2, "confirmations": 11489, "time": 1537872018, "locktime": 542993, "vsize": 259, "size": 422}