{"hash": "6acfad2165bab7ac4a68d3607e25752ffa463844b07eaa3038180c84ecaa861e", "blockhash": "0000000000000000001f0ddff1eddb255c1121bcd4da4f1bc9a0da00cae72433", "vout": [{"scriptPubKey": {"reqSigs": 1, "hex": "a914f5aa94780266b630f84bc707dabe745d22f97c6787", "addresses": ["3Q5ypePC8LJzBK3YPJTWf4zYV19MpxPU8P"], "asm": "OP_HASH160 f5aa94780266b630f84bc707dabe745d22f97c67 OP_EQUAL", "type": "scripthash"}, "value": 0.1464981, "n": 0}], "hex": "0100000001a78599c9f4fd79285466a52352cf2e49123fa1f53652eccdff9136ee25a6419c030000006b483045022100bca525cfc7582a8fc7d04a24db5b01a0ebf4cb8c520f8d3592015e330eb9109102200a7721ee5cc32a8494742fe712247f3993f4c7e678dfebbcf1bcb49347b38506012103c99bdfeb2eee0661d20b938dea74d26940eadf57d4ba21fd43eb7944f04f505afdffffff01d289df000000000017a914f5aa94780266b630f84bc707dabe745d22f97c678710490800", "vin": [{"sequence": 4294967293, "scriptSig": {"hex": "483045022100bca525cfc7582a8fc7d04a24db5b01a0ebf4cb8c520f8d3592015e330eb9109102200a7721ee5cc32a8494742fe712247f3993f4c7e678dfebbcf1bcb49347b38506012103c99bdfeb2eee0661d20b938dea74d26940eadf57d4ba21fd43eb7944f04f505a", "asm": "3045022100bca525cfc7582a8fc7d04a24db5b01a0ebf4cb8c520f8d3592015e330eb9109102200a7721ee5cc32a8494742fe712247f3993f4c7e678dfebbcf1bcb49347b38506[ALL] 03c99bdfeb2eee0661d20b938dea74d26940eadf57d4ba21fd43eb7944f04f505a"}, "vout": 3, "txid": "9c41a625ee3691ffcdec5236f5a13f12492ecf5223a566542879fdf4c99985a7"}], "txid": "6acfad2165bab7ac4a68d3607e25752ffa463844b07eaa3038180c84ecaa861e", "blocktime": 1537872018, "version": 1, "confirmations": 11489, "time": 1537872018, "locktime": 542992, "vsize": 190, "size": 190}