{"hash": "6ad1c0364ba0aad7622995c89bd27af37757744fbec3d3c41e9553d5231bb799", "blockhash": "00000000000000000004ffacab907a6b429b9a5745fa0b75af4234bf69dd7176", "vout": [{"scriptPubKey": {"reqSigs": 1, "hex": "a914ecfca476d229f8f256b754d0a77fdcfdba86c08987", "addresses": ["3PJ63iiZyuBnuUBtdAf6qg8fi246UrxJgo"], "asm": "OP_HASH160 ecfca476d229f8f256b754d0a77fdcfdba86c089 OP_EQUAL", "type": "scripthash"}, "value": 0.00015621, "n": 0}, {"scriptPubKey": {"reqSigs": 1, "hex": "76a9148ca54ed6eb1404c233ec05f351b77723883cc67588ac", "addresses": ["1DpfdezxCD6gCExR9TtTyDEKDpbEKhFi1g"], "asm": "OP_DUP OP_HASH160 8ca54ed6eb1404c233ec05f351b77723883cc675 OP_EQUALVERIFY OP_CHECKSIG", "type": "pubkeyhash"}, "value": 0.00239792, "n": 1}], "hex": "01000000016829191d3fc177c8cbec089fb61109d54557f641272b95dd209e89c70763826e000000006b483045022100defd6e2996dcbf9374dae3c116236705f2bb5ad34f321959d81c7baa9b0c384502206547f5471b035af42af540098f3acbf9ae801514e51f24efb661b72c4472d774012102e289af065aea395a978293422b946c20067e7ddbd865b47a2ada1e541cb38600ffffffff02053d00000000000017a914ecfca476d229f8f256b754d0a77fdcfdba86c08987b0a80300000000001976a9148ca54ed6eb1404c233ec05f351b77723883cc67588ac00000000", "vin": [{"sequence": 4294967295, "scriptSig": {"hex": "483045022100defd6e2996dcbf9374dae3c116236705f2bb5ad34f321959d81c7baa9b0c384502206547f5471b035af42af540098f3acbf9ae801514e51f24efb661b72c4472d774012102e289af065aea395a978293422b946c20067e7ddbd865b47a2ada1e541cb38600", "asm": "3045022100defd6e2996dcbf9374dae3c116236705f2bb5ad34f321959d81c7baa9b0c384502206547f5471b035af42af540098f3acbf9ae801514e51f24efb661b72c4472d774[ALL] 02e289af065aea395a978293422b946c20067e7ddbd865b47a2ada1e541cb38600"}, "vout": 0, "txid": "6e826307c7899e20dd952b2741f65745d50911b69f08eccbc877c13f1d192968"}], "txid": "6ad1c0364ba0aad7622995c89bd27af37757744fbec3d3c41e9553d5231bb799", "blocktime": 1537875543, "version": 1, "confirmations": 11464, "time": 1537875543, "locktime": 0, "vsize": 224, "size": 224}