{"hash": "3841508f829f5fda165fdd8d1fb92ab57cf828c375dea6ecddac74c2beb560fb", "blockhash": "0000000000000000000baef3f32e3676a92c3b2e5da21b426e4f302fc371ce76", "vout": [{"scriptPubKey": {"reqSigs": 1, "hex": "a91490e99e8d26d05ead3c05430c292a887bbff695f587", "addresses": ["3EuF6KjJawxTiUsea3Sc8hsLUGmVEf7Xg5"], "asm": "OP_HASH160 90e99e8d26d05ead3c05430c292a887bbff695f5 OP_EQUAL", "type": "scripthash"}, "value": 0.00100214, "n": 0}, {"scriptPubKey": {"type": "nulldata", "hex": "6a146f6d6e69000000000000001f0000000005f5e100", "asm": "OP_RETURN 6f6d6e69000000000000001f0000000005f5e100"}, "value": 0.0, "n": 1}, {"scriptPubKey": {"reqSigs": 1, "hex": "a91490e99e8d26d05ead3c05430c292a887bbff695f587", "addresses": ["3EuF6KjJawxTiUsea3Sc8hsLUGmVEf7Xg5"], "asm": "OP_HASH160 90e99e8d26d05ead3c05430c292a887bbff695f5 OP_EQUAL", "type": "scripthash"}, "value": 5.4e-06, "n": 2}], "hex": "0100000000010273995234691594d1a88e8a81baf372b7a2211002e001a08e984f413ef40d49eb0000000017160014f6e1792e7852ebd5ae795c2a25d579acdfadec2dffffffff73995234691594d1a88e8a81baf372b7a2211002e001a08e984f413ef40d49eb0200000017160014f6e1792e7852ebd5ae795c2a25d579acdfadec2dffffffff03768701000000000017a91490e99e8d26d05ead3c05430c292a887bbff695f5870000000000000000166a146f6d6e69000000000000001f0000000005f5e1001c0200000000000017a91490e99e8d26d05ead3c05430c292a887bbff695f58702483045022100b6bea96c4bd7331ae8d56b7a1a8ba8fc24bdfbf09dc0c349aa7c19f81977574002202829dd2e14bb5f05205e312db65ce97e405df582bc294c9e16a3896ca092f6fb012103f1cf988013a33e053d1e9bd54c4798c1a6dc362a5b2798b5344049fca40e2db002483045022100a7e05c8f610200f9e44184425fa612137184dbc5960c7434212e3383e8194da4022013176927cda43a87034445a229f1bec1324f9d7c71da3ecbd71a79da2bd21e9c012103f1cf988013a33e053d1e9bd54c4798c1a6dc362a5b2798b5344049fca40e2db000000000", "vin": [{"txinwitness": ["3045022100b6bea96c4bd7331ae8d56b7a1a8ba8fc24bdfbf09dc0c349aa7c19f81977574002202829dd2e14bb5f05205e312db65ce97e405df582bc294c9e16a3896ca092f6fb01", "03f1cf988013a33e053d1e9bd54c4798c1a6dc362a5b2798b5344049fca40e2db0"], "sequence": 4294967295, "scriptSig": {"hex": "160014f6e1792e7852ebd5ae795c2a25d579acdfadec2d", "asm": "0014f6e1792e7852ebd5ae795c2a25d579acdfadec2d"}, "vout": 0, "txid": "eb490df43e414f988ea001e0021021a2b772f3ba818a8ea8d194156934529973"}, {"txinwitness": ["3045022100a7e05c8f610200f9e44184425fa612137184dbc5960c7434212e3383e8194da4022013176927cda43a87034445a229f1bec1324f9d7c71da3ecbd71a79da2bd21e9c01", "03f1cf988013a33e053d1e9bd54c4798c1a6dc362a5b2798b5344049fca40e2db0"], "sequence": 4294967295, "scriptSig": {"hex": "160014f6e1792e7852ebd5ae795c2a25d579acdfadec2d", "asm": "0014f6e1792e7852ebd5ae795c2a25d579acdfadec2d"}, "vout": 2, "txid": "eb490df43e414f988ea001e0021021a2b772f3ba818a8ea8d194156934529973"}], "txid": "6ad420719fdc692cb84246cc1bd3a27cad351b6493a37cf36c737782e93ec2ce", "blocktime": 1537876114, "version": 1, "confirmations": 11460, "time": 1537876114, "locktime": 0, "vsize": 288, "size": 451}