{"hash": "2f5293420f252bbcafd33394dff72cd41f4a88fd6e8ff5642a507b4023dd6fd0", "blockhash": "0000000000000000000baef3f32e3676a92c3b2e5da21b426e4f302fc371ce76", "vout": [{"scriptPubKey": {"reqSigs": 1, "hex": "76a91485db7cab769f93a69785c13cc1e0df51be1f9d8b88ac", "addresses": ["1DCmojk8DoVM3CmvYCzyJbGfcHzZstF2vU"], "asm": "OP_DUP OP_HASH160 85db7cab769f93a69785c13cc1e0df51be1f9d8b OP_EQUALVERIFY OP_CHECKSIG", "type": "pubkeyhash"}, "value": 2.612e-05, "n": 0}, {"scriptPubKey": {"reqSigs": 1, "hex": "a914e8db75c900cf08f06518e96d167331f2a4abfb3387", "addresses": ["3NvFbQMAkkqEFj4i1sYPPLkSWzxTFUchjA"], "asm": "OP_HASH160 e8db75c900cf08f06518e96d167331f2a4abfb33 OP_EQUAL", "type": "scripthash"}, "value": 0.00032552, "n": 1}], "hex": "01000000000101c955172287686f4374454bdf5821c8993c44d8eb66d2b8be909313ad712211400100000023220020941cfaff8837763dc1f69ff82b6d6553fdea17a41cfc29a04403293eedd8ccc7ffffffff02340a0000000000001976a91485db7cab769f93a69785c13cc1e0df51be1f9d8b88ac287f00000000000017a914e8db75c900cf08f06518e96d167331f2a4abfb338704004830450221009d0a03969bbe4badb107f7cb414e3afb12b3c49eaa1e8598642a29a7d1ee9c04022039e6ebc8bb0570589d480dc9dea2bc188b746ab0a4a46f7344ea97d00504e5c90147304402200b16ef56d4b76b2fcedf3de935d4e57f0e11a5dc43a671b42b0df42ea1c5d7760220377d29e26cfeb2c866e4926a2d8260fb4756b9c3f011a58d8681dfaadc3813350147522102531db3a5883f29bab4241dd0cd726936667bcda445d89bdd22244e828b6993342103148c80a5bdfddb05ff5bcffc397c8ca748d8b435ec6a175bc9d7bfc7fc6f853752ae00000000", "vin": [{"txinwitness": ["", "30450221009d0a03969bbe4badb107f7cb414e3afb12b3c49eaa1e8598642a29a7d1ee9c04022039e6ebc8bb0570589d480dc9dea2bc188b746ab0a4a46f7344ea97d00504e5c901", "304402200b16ef56d4b76b2fcedf3de935d4e57f0e11a5dc43a671b42b0df42ea1c5d7760220377d29e26cfeb2c866e4926a2d8260fb4756b9c3f011a58d8681dfaadc38133501", "522102531db3a5883f29bab4241dd0cd726936667bcda445d89bdd22244e828b6993342103148c80a5bdfddb05ff5bcffc397c8ca748d8b435ec6a175bc9d7bfc7fc6f853752ae"], "sequence": 4294967295, "scriptSig": {"hex": "220020941cfaff8837763dc1f69ff82b6d6553fdea17a41cfc29a04403293eedd8ccc7", "asm": "0020941cfaff8837763dc1f69ff82b6d6553fdea17a41cfc29a04403293eedd8ccc7"}, "vout": 1, "txid": "40112271ad139390beb8d266ebd8443c99c82158df4b4574436f6887221755c9"}], "txid": "6adc9999c61c9ce6487d3914e7b1b5b3abadd16d9c1a6033a114d28a3e732526", "blocktime": 1537876114, "version": 1, "confirmations": 11460, "time": 1537876114, "locktime": 0, "vsize": 208, "size": 373}