{"hash": "6ade192b88c8b4cc7b0e38abb4c7dd2ddaa3c93320cfa047969dfadbd09dc3dc", "blockhash": "0000000000000000000baef3f32e3676a92c3b2e5da21b426e4f302fc371ce76", "vout": [{"scriptPubKey": {"type": "nulldata", "hex": "6a4c5000007836000117989f271aab8578733a9c7527b7256b4774d339f6019d6ddc0f1b8ff117a46ff18130cc1e9e8068fb46910456855baa20610613bb751e1183cf1d100759d4ba30d2c37bb011d97e02cf", "asm": "OP_RETURN 00007836000117989f271aab8578733a9c7527b7256b4774d339f6019d6ddc0f1b8ff117a46ff18130cc1e9e8068fb46910456855baa20610613bb751e1183cf1d100759d4ba30d2c37bb011d97e02cf"}, "value": 0.0, "n": 0}, {"scriptPubKey": {"reqSigs": 1, "hex": "76a914d698b83977891ca4e920935fac42152d52054bd688ac", "addresses": ["1LZgZCT6FynKiBmaWzr9KdWWCNsUvapiPH"], "asm": "OP_DUP OP_HASH160 d698b83977891ca4e920935fac42152d52054bd6 OP_EQUALVERIFY OP_CHECKSIG", "type": "pubkeyhash"}, "value": 0.00630535, "n": 1}], "hex": "0100000001b0b0f08c73280b6853fedc2f77b002d0c4a92e02466632ffee206f6cbbce8713010000006b483045022100809162e3cce61e8908a0668972557de746e9af52218f5514a2eb74c7d4d6c12902203174a26aef6207c38ff0258f856bd018a90eb16607d1dc7b0f7f17d73d5a9d630121028a19bbeecfda29359af8e0337e0676c03c2d36e8bd152393b9bb3fab8e5c189affffffff020000000000000000536a4c5000007836000117989f271aab8578733a9c7527b7256b4774d339f6019d6ddc0f1b8ff117a46ff18130cc1e9e8068fb46910456855baa20610613bb751e1183cf1d100759d4ba30d2c37bb011d97e02cf079f0900000000001976a914d698b83977891ca4e920935fac42152d52054bd688ac00000000", "vin": [{"sequence": 4294967295, "scriptSig": {"hex": "483045022100809162e3cce61e8908a0668972557de746e9af52218f5514a2eb74c7d4d6c12902203174a26aef6207c38ff0258f856bd018a90eb16607d1dc7b0f7f17d73d5a9d630121028a19bbeecfda29359af8e0337e0676c03c2d36e8bd152393b9bb3fab8e5c189a", "asm": "3045022100809162e3cce61e8908a0668972557de746e9af52218f5514a2eb74c7d4d6c12902203174a26aef6207c38ff0258f856bd018a90eb16607d1dc7b0f7f17d73d5a9d63[ALL] 028a19bbeecfda29359af8e0337e0676c03c2d36e8bd152393b9bb3fab8e5c189a"}, "vout": 1, "txid": "1387cebb6c6f20eeff326646022ea9c4d002b0772fdcfe53680b28738cf0b0b0"}], "txid": "6ade192b88c8b4cc7b0e38abb4c7dd2ddaa3c93320cfa047969dfadbd09dc3dc", "blocktime": 1537876114, "version": 1, "confirmations": 11460, "time": 1537876114, "locktime": 0, "vsize": 284, "size": 284}