{"hash": "6ae5755a1762c964fb868a78eb62f4ddd1288aff17094ce022928e1a97d5470f", "blockhash": "00000000000000000004ffacab907a6b429b9a5745fa0b75af4234bf69dd7176", "vout": [{"scriptPubKey": {"reqSigs": 1, "hex": "76a9142c3c0a5729620f5cbc93994bffec17bf4ecd14a388ac", "addresses": ["152tf7yAFLM3wQ8m4oijiqNuzKiBu7AhRw"], "asm": "OP_DUP OP_HASH160 2c3c0a5729620f5cbc93994bffec17bf4ecd14a3 OP_EQUALVERIFY OP_CHECKSIG", "type": "pubkeyhash"}, "value": 0.00205188, "n": 0}, {"scriptPubKey": {"reqSigs": 1, "hex": "76a9149b8cfe671bbcfffe25e49a187c818556a3e3eb7088ac", "addresses": ["1FBUe9pByrcoDXhJGQa7FtN5GvKMwfK6Wk"], "asm": "OP_DUP OP_HASH160 9b8cfe671bbcfffe25e49a187c818556a3e3eb70 OP_EQUALVERIFY OP_CHECKSIG", "type": "pubkeyhash"}, "value": 0.00105431, "n": 1}], "hex": "0200000001222cbf723f121fd794bf94445d449a240e95b47b2849ef6ac501203a17f02fed000000006b483045022100bf34725a496313fabe48293e0f8ea8f008451139eac88db0d9a0f7e69c1671be02207ab4d3fdc6d12bcff5eef409581c9a581959ab593fa3521515408e33a38f83bb012103c1008f602f4cb086b6741bf9b06246be5fa53b1eb66f6700ddc878f4c31fc449ffffffff0284210300000000001976a9142c3c0a5729620f5cbc93994bffec17bf4ecd14a388acd79b0100000000001976a9149b8cfe671bbcfffe25e49a187c818556a3e3eb7088ac00000000", "vin": [{"sequence": 4294967295, "scriptSig": {"hex": "483045022100bf34725a496313fabe48293e0f8ea8f008451139eac88db0d9a0f7e69c1671be02207ab4d3fdc6d12bcff5eef409581c9a581959ab593fa3521515408e33a38f83bb012103c1008f602f4cb086b6741bf9b06246be5fa53b1eb66f6700ddc878f4c31fc449", "asm": "3045022100bf34725a496313fabe48293e0f8ea8f008451139eac88db0d9a0f7e69c1671be02207ab4d3fdc6d12bcff5eef409581c9a581959ab593fa3521515408e33a38f83bb[ALL] 03c1008f602f4cb086b6741bf9b06246be5fa53b1eb66f6700ddc878f4c31fc449"}, "vout": 0, "txid": "ed2ff0173a2001c56aef49287bb4950e249a445d4494bf94d71f123f72bf2c22"}], "txid": "6ae5755a1762c964fb868a78eb62f4ddd1288aff17094ce022928e1a97d5470f", "blocktime": 1537875543, "version": 2, "confirmations": 11464, "time": 1537875543, "locktime": 0, "vsize": 226, "size": 226}