{"hash": "6ae5687716687ecc9f7f1f2b0376611285bf83be6eaa75267b34e66d199cd51f", "blockhash": "0000000000000000001cda96e906b7601b7a6fb1a3b62bca570a9e5d8f4b3de1", "vout": [{"scriptPubKey": {"reqSigs": 1, "hex": "76a914ad033176ec8379c6dbc8b1793af8cd12dbdf4c0f88ac", "addresses": ["1Gmoj4DqNv5X4Y8SxfYE5q4hsK5YQPpAUX"], "asm": "OP_DUP OP_HASH160 ad033176ec8379c6dbc8b1793af8cd12dbdf4c0f OP_EQUALVERIFY OP_CHECKSIG", "type": "pubkeyhash"}, "value": 0.00499466, "n": 0}], "hex": "0100000001daac449f9b487ecb62f9c1fa9061e0b293952a97ec27fe031cebcb4d8fa224b8000000006b483045022100cc249d2ad7b3b31945fc9adaf9610c40f9ed8e020be4e61c9312d5229007a61702200a232d5e82a5021a20d810fb67f86647ee8eb64d0527691fceb57472823ff667012102a0f160e4da6328a18b3d1759caee10010e155f00e5c854ef2d8ebbabaa928afcffffffff010a9f0700000000001976a914ad033176ec8379c6dbc8b1793af8cd12dbdf4c0f88ac00000000", "vin": [{"sequence": 4294967295, "scriptSig": {"hex": "483045022100cc249d2ad7b3b31945fc9adaf9610c40f9ed8e020be4e61c9312d5229007a61702200a232d5e82a5021a20d810fb67f86647ee8eb64d0527691fceb57472823ff667012102a0f160e4da6328a18b3d1759caee10010e155f00e5c854ef2d8ebbabaa928afc", "asm": "3045022100cc249d2ad7b3b31945fc9adaf9610c40f9ed8e020be4e61c9312d5229007a61702200a232d5e82a5021a20d810fb67f86647ee8eb64d0527691fceb57472823ff667[ALL] 02a0f160e4da6328a18b3d1759caee10010e155f00e5c854ef2d8ebbabaa928afc"}, "vout": 0, "txid": "b824a28f4dcbeb1c03fe27ec972a9593b2e06190fac1f962cb7e489b9f44acda"}], "txid": "6ae5687716687ecc9f7f1f2b0376611285bf83be6eaa75267b34e66d199cd51f", "blocktime": 1537873282, "version": 1, "confirmations": 11484, "time": 1537873282, "locktime": 0, "vsize": 192, "size": 192}