{"hash": "0d155de223e9143578854819a024e9b3d6bc9aaae7bd29553ea91a394b12fcb6", "blockhash": "0000000000000000001cda96e906b7601b7a6fb1a3b62bca570a9e5d8f4b3de1", "vout": [{"scriptPubKey": {"reqSigs": 1, "hex": "a91403af3d7876bd63dcc8529ff7420f1c5175e3f9e987", "addresses": ["322Vt1tjzcidG4HkY3PV5aatBWwvGcsUrJ"], "asm": "OP_HASH160 03af3d7876bd63dcc8529ff7420f1c5175e3f9e9 OP_EQUAL", "type": "scripthash"}, "value": 0.02234124, "n": 0}, {"scriptPubKey": {"reqSigs": 1, "hex": "0014e7522de7a94c2d4ed150b40f3fdc28b746c137e0", "addresses": ["bc1quafzmeaffsk5a52sks8nlhpgkarvzdlq8ned3x"], "asm": "0 e7522de7a94c2d4ed150b40f3fdc28b746c137e0", "type": "witness_v0_keyhash"}, "value": 1.09188186, "n": 1}], "hex": "02000000000101b7204a8c347409955dea6fb74a554d4019c9458aa63f9e54139e106d9c1e3bf90100000000ffffffff020c1722000000000017a91403af3d7876bd63dcc8529ff7420f1c5175e3f9e9875a14820600000000160014e7522de7a94c2d4ed150b40f3fdc28b746c137e0024730440220099a31ba9ff5bb29d6cc6c28c61df67c4942e771dbd0f08f46f9599bc02bc4e802205386afa9b8a3ed2ab5711f010bc9630e98cea4b19fd6bf8f1bfabd6dcac9f8960121031bd955f3708f17dc03e5edcec55e48da0f989b7dd5f8a7a863b0ae418b2df06300000000", "vin": [{"txinwitness": ["30440220099a31ba9ff5bb29d6cc6c28c61df67c4942e771dbd0f08f46f9599bc02bc4e802205386afa9b8a3ed2ab5711f010bc9630e98cea4b19fd6bf8f1bfabd6dcac9f89601", "031bd955f3708f17dc03e5edcec55e48da0f989b7dd5f8a7a863b0ae418b2df063"], "sequence": 4294967295, "scriptSig": {"hex": "", "asm": ""}, "vout": 1, "txid": "f93b1e9c6d109e13549e3fa68a45c919404d554ab76fea5d950974348c4a20b7"}], "txid": "6ae9458042a7a5f83645f71f2a6ff2560d2764c335967dcabe9571d76cce7a1f", "blocktime": 1537873282, "version": 2, "confirmations": 11482, "time": 1537873282, "locktime": 0, "vsize": 142, "size": 223}