{"hash": "6aeda7931416edc352820eda371522d6a83d2c661dabce43a3a7d0d7d1204db0", "blockhash": "00000000000000000017f5eb5941039fbcee6240d03bc1f2f8e35350df66a1d8", "vout": [{"scriptPubKey": {"reqSigs": 1, "hex": "76a9145a0471dce9177f866e395f30f4730f41197a1e4388ac", "addresses": ["19Cy96QjmeLXByxR8mWFJHCQWhV3uo81HZ"], "asm": "OP_DUP OP_HASH160 5a0471dce9177f866e395f30f4730f41197a1e43 OP_EQUALVERIFY OP_CHECKSIG", "type": "pubkeyhash"}, "value": 0.24993412, "n": 0}, {"scriptPubKey": {"reqSigs": 1, "hex": "76a9146114d94d0a254ee664b76a09dbc54f6effd4c81f88ac", "addresses": ["19rKXDAhKXTSeDwLRrsLvXXd8ohYnanAKD"], "asm": "OP_DUP OP_HASH160 6114d94d0a254ee664b76a09dbc54f6effd4c81f OP_EQUALVERIFY OP_CHECKSIG", "type": "pubkeyhash"}, "value": 0.03124101, "n": 1}, {"scriptPubKey": {"reqSigs": 1, "hex": "a91425aed9fe4b23380ed6d694afdb4ba6d8c0e91bdf87", "addresses": ["358GPYEBPa5oWFoN28V79YcsRMBiBJSAMY"], "asm": "OP_HASH160 25aed9fe4b23380ed6d694afdb4ba6d8c0e91bdf OP_EQUAL", "type": "scripthash"}, "value": 0.03124101, "n": 2}], "hex": "0200000001033c7e0174ebb18dd6fb45f37240b1333b4832c19ab36f96f8330631b867de01000000006a47304402203fbf48fa836e1aecda98135a1107f7f1f6c9dc92ac55410808d9fe73d3ceaf6402205f3efcaa15cfb91672de47e8b776883fe9ced6ac1a9a414fe52fd80e3072bbbf0121033b45af0752b0fdb6d1820226cf67282525a4e024ca4921fa00297530a88311ccfdffffff03845e7d01000000001976a9145a0471dce9177f866e395f30f4730f41197a1e4388ac85ab2f00000000001976a9146114d94d0a254ee664b76a09dbc54f6effd4c81f88ac85ab2f000000000017a91425aed9fe4b23380ed6d694afdb4ba6d8c0e91bdf8715490800", "vin": [{"sequence": 4294967293, "scriptSig": {"hex": "47304402203fbf48fa836e1aecda98135a1107f7f1f6c9dc92ac55410808d9fe73d3ceaf6402205f3efcaa15cfb91672de47e8b776883fe9ced6ac1a9a414fe52fd80e3072bbbf0121033b45af0752b0fdb6d1820226cf67282525a4e024ca4921fa00297530a88311cc", "asm": "304402203fbf48fa836e1aecda98135a1107f7f1f6c9dc92ac55410808d9fe73d3ceaf6402205f3efcaa15cfb91672de47e8b776883fe9ced6ac1a9a414fe52fd80e3072bbbf[ALL] 033b45af0752b0fdb6d1820226cf67282525a4e024ca4921fa00297530a88311cc"}, "vout": 0, "txid": "01de67b8310633f8966fb39ac132483b33b14072f345fbd68db1eb74017e3c03"}], "txid": "6aeda7931416edc352820eda371522d6a83d2c661dabce43a3a7d0d7d1204db0", "blocktime": 1537874412, "version": 2, "confirmations": 11468, "time": 1537874412, "locktime": 542997, "vsize": 257, "size": 257}