{"hash": "4b711360543bbe586897f3dac1a294b615c0bebf6c092ce1cd42efc941692832", "blockhash": "0000000000000000001f0ddff1eddb255c1121bcd4da4f1bc9a0da00cae72433", "vout": [{"scriptPubKey": {"reqSigs": 1, "hex": "0014f9903af0826b28eaf617d3426736a986525ff2e5", "addresses": ["bc1qlxgr4uyzdv5w4ash6dpxwd4fsef9luh9lh2su6"], "asm": "0 f9903af0826b28eaf617d3426736a986525ff2e5", "type": "witness_v0_keyhash"}, "value": 7.419e-05, "n": 0}, {"scriptPubKey": {"reqSigs": 1, "hex": "a914e6dc96f3cb3b0fb8b5793be120f0548b3f1c699b87", "addresses": ["3NjhbW7quDuNqWWqkRS7TLb95HxQWeoVoD"], "asm": "OP_HASH160 e6dc96f3cb3b0fb8b5793be120f0548b3f1c699b OP_EQUAL", "type": "scripthash"}, "value": 0.00312, "n": 1}], "hex": "0100000000010197b3aa1f4c0fd0de2fc288db306218932889e111c45e28cd4d256d1c49d849800200000017160014143918f9728a3fe2ff6199593fd5f916428884a3ffffffff02fb1c000000000000160014f9903af0826b28eaf617d3426736a986525ff2e5c0c204000000000017a914e6dc96f3cb3b0fb8b5793be120f0548b3f1c699b87024830450221008676c5f9c4f59cc10e8919de1dea8ca5e95e3438a38edd35f8187cc1cad2b2b4022078f338bdd41e33fc9cd2c29bdc5898b98bb3ec0ad0fbe2bc54ab5e0e487c9dcc0121035da4f55e93419bfb464c34f8cbf8d6cacda081b39d8cd35efa53715a99a1620900000000", "vin": [{"txinwitness": ["30450221008676c5f9c4f59cc10e8919de1dea8ca5e95e3438a38edd35f8187cc1cad2b2b4022078f338bdd41e33fc9cd2c29bdc5898b98bb3ec0ad0fbe2bc54ab5e0e487c9dcc01", "035da4f55e93419bfb464c34f8cbf8d6cacda081b39d8cd35efa53715a99a16209"], "sequence": 4294967295, "scriptSig": {"hex": "160014143918f9728a3fe2ff6199593fd5f916428884a3", "asm": "0014143918f9728a3fe2ff6199593fd5f916428884a3"}, "vout": 2, "txid": "8049d8491c6d254dcd285ec411e1892893186230db88c22fded00f4c1faab397"}], "txid": "6afdd1ed449e21bc01979bd4606560a929370e2f4422f6f6083ca0bd633de91c", "blocktime": 1537872018, "version": 1, "confirmations": 11489, "time": 1537872018, "locktime": 0, "vsize": 165, "size": 247}