{"hash": "6b0600a8f8e06c4973e71b9afcf711548c8e648cdcf872b0a5b72ccea50c7758", "blockhash": "0000000000000000000baef3f32e3676a92c3b2e5da21b426e4f302fc371ce76", "vout": [{"scriptPubKey": {"reqSigs": 1, "hex": "a91469f3740b7eabf36ea9a44c14480c77d72a16eb6187", "addresses": ["3BMEX7nZCGyuyYcSJqiCUDJPnv5DW1qe6L"], "asm": "OP_HASH160 69f3740b7eabf36ea9a44c14480c77d72a16eb61 OP_EQUAL", "type": "scripthash"}, "value": 0.01548812, "n": 0}, {"scriptPubKey": {"reqSigs": 1, "hex": "76a914af3c57a17c092abac2c69c2eac00d369c2d8e8d988ac", "addresses": ["1GyZYEBt3AMfuCTiPdgQrCB8XsrePFUfWf"], "asm": "OP_DUP OP_HASH160 af3c57a17c092abac2c69c2eac00d369c2d8e8d9 OP_EQUALVERIFY OP_CHECKSIG", "type": "pubkeyhash"}, "value": 3.1508753, "n": 1}], "hex": "01000000010d6e26faf161fef7040707ba62989b07890a355c3ee9d6f54ac7be85a2285c8e010000006b483045022100fa13267275700f6996cd3900f3c57ab4d097b73db53e1b294870e506d823086402200c162858baafb376d282d21ef5655b866a35b28910313efa56098498f2eac86a012103dfee430caeaa4c0a4b199b247c55fc5ff77323a6070e607873c6e46b5ea3f82dffffffff020ca217000000000017a91469f3740b7eabf36ea9a44c14480c77d72a16eb6187aadac712000000001976a914af3c57a17c092abac2c69c2eac00d369c2d8e8d988ac00000000", "vin": [{"sequence": 4294967295, "scriptSig": {"hex": "483045022100fa13267275700f6996cd3900f3c57ab4d097b73db53e1b294870e506d823086402200c162858baafb376d282d21ef5655b866a35b28910313efa56098498f2eac86a012103dfee430caeaa4c0a4b199b247c55fc5ff77323a6070e607873c6e46b5ea3f82d", "asm": "3045022100fa13267275700f6996cd3900f3c57ab4d097b73db53e1b294870e506d823086402200c162858baafb376d282d21ef5655b866a35b28910313efa56098498f2eac86a[ALL] 03dfee430caeaa4c0a4b199b247c55fc5ff77323a6070e607873c6e46b5ea3f82d"}, "vout": 1, "txid": "8e5c28a285bec74af5d6e93e5c350a89079b9862ba070704f7fe61f1fa266e0d"}], "txid": "6b0600a8f8e06c4973e71b9afcf711548c8e648cdcf872b0a5b72ccea50c7758", "blocktime": 1537876114, "version": 1, "confirmations": 11459, "time": 1537876114, "locktime": 0, "vsize": 224, "size": 224}