{"hash": "7a5279282ab2b61990d52973eee3219c37db6aa9dfcca7389cd7d054c3f6fde0", "blockhash": "0000000000000000001cda96e906b7601b7a6fb1a3b62bca570a9e5d8f4b3de1", "vout": [{"scriptPubKey": {"reqSigs": 1, "hex": "a9140c73fc7251b145cf14067bc1251172516aa6269387", "addresses": ["32pryhhiH38tUPE3fe79jmjuSB4DVBv4SN"], "asm": "OP_HASH160 0c73fc7251b145cf14067bc1251172516aa62693 OP_EQUAL", "type": "scripthash"}, "value": 0.00154665, "n": 0}, {"scriptPubKey": {"reqSigs": 1, "hex": "a914743c8eda3941ec3f89b6b26cf62d6f5a87a9253787", "addresses": ["3CHcrSXQsZwRnmAZP6deHrNASeU7xnZo3o"], "asm": "OP_HASH160 743c8eda3941ec3f89b6b26cf62d6f5a87a92537 OP_EQUAL", "type": "scripthash"}, "value": 0.00998613, "n": 1}], "hex": "02000000000101f96b8937949d297a8150fa63db3d812e0993fcd77a6e1194ae75eedc829ccc0f1100000017160014750365099f6513e3e0ef61bfa0fb5fab785c965cfeffffff02295c02000000000017a9140c73fc7251b145cf14067bc1251172516aa6269387d53c0f000000000017a914743c8eda3941ec3f89b6b26cf62d6f5a87a925378702483045022100d1cd86d7abc03fb4e3d1f2e8427be06bbf223ca974a33b341175a7d559bad51c02200450e0545ebd1b31dd20fdb817ffeb6ca91b329d9699bc53f2417a3fc6aba42f0121032982105f249ea25adb66c48d70b8282b18368576c4626347aa1328d6d5f2d7d613490800", "vin": [{"txinwitness": ["3045022100d1cd86d7abc03fb4e3d1f2e8427be06bbf223ca974a33b341175a7d559bad51c02200450e0545ebd1b31dd20fdb817ffeb6ca91b329d9699bc53f2417a3fc6aba42f01", "032982105f249ea25adb66c48d70b8282b18368576c4626347aa1328d6d5f2d7d6"], "sequence": 4294967294, "scriptSig": {"hex": "160014750365099f6513e3e0ef61bfa0fb5fab785c965c", "asm": "0014750365099f6513e3e0ef61bfa0fb5fab785c965c"}, "vout": 17, "txid": "0fcc9c82dcee75ae94116e7ad7fc93092e813ddb63fa50817a299d9437896bf9"}], "txid": "6b0e4e156368f17441a8aeafab1dcfa4296160f7cd185060d69a3878b3067660", "blocktime": 1537873282, "version": 2, "confirmations": 11481, "time": 1537873282, "locktime": 542995, "vsize": 166, "size": 248}