{"hash": "6b122349da670e5c63a9af9aa6abd2603babc5b525d63c8e7cfbaa24239e048e", "blockhash": "000000000000000000022b45ed06c6f4ccd3cf7fb5ba4856ebd2e58215665228", "vout": [{"scriptPubKey": {"reqSigs": 1, "hex": "76a914d192880977f111629ab3fc485a21db40f6b6225b88ac", "addresses": ["1L77mGo8eyHN97kgtXirWA6b9jGuskMpuq"], "asm": "OP_DUP OP_HASH160 d192880977f111629ab3fc485a21db40f6b6225b OP_EQUALVERIFY OP_CHECKSIG", "type": "pubkeyhash"}, "value": 0.00091092, "n": 0}, {"scriptPubKey": {"reqSigs": 1, "hex": "a9140189ac3d2bcd4e6fdf03415f9057120d0df3b23687", "addresses": ["31q9XQjXNQHj6vr555LcCrHEm6TZs2ch7d"], "asm": "OP_HASH160 0189ac3d2bcd4e6fdf03415f9057120d0df3b236 OP_EQUAL", "type": "scripthash"}, "value": 0.33038741, "n": 1}], "hex": "0100000001fda05b2abb5dcb0b11714efc4be60ef174bc75fd64396ac4397e267472925646000000006b483045022100c85a784d15f5d93fd767264e549e01315dc45da45f5c039e62a7d8ee179a6cbd02206780dbd3465ef8c7095efab687ef70b2a74a4fea1839d1eb90c30d6fbb256f5f012103080733509c85f2a9d12f02b25ffd9bd9b2ad8e5092361c675cea5c1e6bfdbac3ffffffff02d4630100000000001976a914d192880977f111629ab3fc485a21db40f6b6225b88ac9521f8010000000017a9140189ac3d2bcd4e6fdf03415f9057120d0df3b2368700000000", "vin": [{"sequence": 4294967295, "scriptSig": {"hex": "483045022100c85a784d15f5d93fd767264e549e01315dc45da45f5c039e62a7d8ee179a6cbd02206780dbd3465ef8c7095efab687ef70b2a74a4fea1839d1eb90c30d6fbb256f5f012103080733509c85f2a9d12f02b25ffd9bd9b2ad8e5092361c675cea5c1e6bfdbac3", "asm": "3045022100c85a784d15f5d93fd767264e549e01315dc45da45f5c039e62a7d8ee179a6cbd02206780dbd3465ef8c7095efab687ef70b2a74a4fea1839d1eb90c30d6fbb256f5f[ALL] 03080733509c85f2a9d12f02b25ffd9bd9b2ad8e5092361c675cea5c1e6bfdbac3"}, "vout": 0, "txid": "4656927274267e39c46a3964fd75bc74f10ee64bfc4e71110bcb5dbb2a5ba0fd"}], "txid": "6b122349da670e5c63a9af9aa6abd2603babc5b525d63c8e7cfbaa24239e048e", "blocktime": 1537869901, "version": 1, "confirmations": 11524, "time": 1537869901, "locktime": 0, "vsize": 224, "size": 224}