{"hash": "80694e402fe77fb718fd8d619c4cc5dd98fb21dcab893c7548f3ae6b9b54e143", "blockhash": "0000000000000000001e0dab787dd257d1dbfcb92a98c2207d5e1078be1f4165", "vout": [{"scriptPubKey": {"reqSigs": 1, "hex": "a914b9e6c5bfe5aae4d44c712ab01f27938adc5d301787", "addresses": ["3JdyPPDtk3F5dYWdrJasRpN9VkYZ3innee"], "asm": "OP_HASH160 b9e6c5bfe5aae4d44c712ab01f27938adc5d3017 OP_EQUAL", "type": "scripthash"}, "value": 1.70554608, "n": 0}, {"scriptPubKey": {"reqSigs": 1, "hex": "a91400422e8875d5c0a718f826ab2faae58a5000330987", "addresses": ["31iPCw7KQKYpHs9usPgC1gGXFvsfnuFnP4"], "asm": "OP_HASH160 00422e8875d5c0a718f826ab2faae58a50003309 OP_EQUAL", "type": "scripthash"}, "value": 0.0022, "n": 1}, {"scriptPubKey": {"reqSigs": 1, "hex": "76a9145112b6e6faaba32064351fec1794cfcb51c677ec88ac", "addresses": ["18Pg9qq5JmniNDHMfiU5PHiWSJBf81swH7"], "asm": "OP_DUP OP_HASH160 5112b6e6faaba32064351fec1794cfcb51c677ec OP_EQUALVERIFY OP_CHECKSIG", "type": "pubkeyhash"}, "value": 0.00287018, "n": 2}, {"scriptPubKey": {"reqSigs": 1, "hex": "a9146d28dfb4417025220a9d0380f0440af6005fb03f87", "addresses": ["3BeCYRBacxX1eaFC5KmxR26vQ5ToTygZTx"], "asm": "OP_HASH160 6d28dfb4417025220a9d0380f0440af6005fb03f OP_EQUAL", "type": "scripthash"}, "value": 0.0025686, "n": 3}, {"scriptPubKey": {"reqSigs": 1, "hex": "a914e79b30379d3ab2c1e4bc68eb222cf2ef07951f2687", "addresses": ["3NodvXp9qfR7jKJwLN4VkNHx2rjXQNuRKa"], "asm": "OP_HASH160 e79b30379d3ab2c1e4bc68eb222cf2ef07951f26 OP_EQUAL", "type": "scripthash"}, "value": 0.00203584, "n": 4}, {"scriptPubKey": {"reqSigs": 1, "hex": "a91460f40920a18ccf3b448da72c6440d40866ffc93687", "addresses": ["3AXf8rV3nVEcTDtxFH28hifuU583cvxTvU"], "asm": "OP_HASH160 60f40920a18ccf3b448da72c6440d40866ffc936 OP_EQUAL", "type": "scripthash"}, "value": 0.00287362, "n": 5}, {"scriptPubKey": {"reqSigs": 1, "hex": "a91449657fd8ec2ec42787ffd15430412ac3c72eb6bc87", "addresses": ["38P6qrEF1Jg2GFVDVNy4dfRgJYjwU8MBHC"], "asm": "OP_HASH160 49657fd8ec2ec42787ffd15430412ac3c72eb6bc OP_EQUAL", "type": "scripthash"}, "value": 0.0071286, "n": 6}, {"scriptPubKey": {"reqSigs": 1, "hex": "a9146ed773c4b344874d10ffb05b92b34dc6a9b5658f87", "addresses": ["3Bo6MXZm2nJrmYdZ8hGPpPmhNV8KCRpKKC"], "asm": "OP_HASH160 6ed773c4b344874d10ffb05b92b34dc6a9b5658f OP_EQUAL", "type": "scripthash"}, "value": 0.0032106, "n": 7}, {"scriptPubKey": {"reqSigs": 1, "hex": "76a914c50a304633a14f01fa0460dcd6a8d8301f12911488ac", "addresses": ["1JxrKhtPFBEtKQHXhVYvPS6EdjqDUxmsbJ"], "asm": "OP_DUP OP_HASH160 c50a304633a14f01fa0460dcd6a8d8301f129114 OP_EQUALVERIFY OP_CHECKSIG", "type": "pubkeyhash"}, "value": 0.00128494, "n": 8}, {"scriptPubKey": {"reqSigs": 1, "hex": "a9148ae04b63366b475e7ad7ae99f2156dcb20b9182f87", "addresses": ["3EMKsGdFfFdBkcZr71MD1u392zMyXrixX6"], "asm": "OP_HASH160 8ae04b63366b475e7ad7ae99f2156dcb20b9182f OP_EQUAL", "type": "scripthash"}, "value": 0.00474744, "n": 9}, {"scriptPubKey": {"reqSigs": 1, "hex": "a9140c4f1e4f9e6ceb98890b0e4156dbcdcf86912cc387", "addresses": ["32p6p66c7TXPEbm3zEns5KtYKovvDd5jBy"], "asm": "OP_HASH160 0c4f1e4f9e6ceb98890b0e4156dbcdcf86912cc3 OP_EQUAL", "type": "scripthash"}, "value": 0.0026146, "n": 10}, {"scriptPubKey": {"reqSigs": 1, "hex": "a914dcdeefc01d8754a399529be24fa530357bb23b4187", "addresses": ["3MpseeXMxQcSjPWixdM434m2fgsjhqCrnN"], "asm": "OP_HASH160 dcdeefc01d8754a399529be24fa530357bb23b41 OP_EQUAL", "type": "scripthash"}, "value": 0.0032106, "n": 11}, {"scriptPubKey": {"reqSigs": 1, "hex": "a9141f7a97fe89365976a0735b0018d7b0a5dba8a59887", "addresses": ["34ZTjTAs5cb7rcbdx8Lb6SWsUbusfYWdGp"], "asm": "OP_HASH160 1f7a97fe89365976a0735b0018d7b0a5dba8a598 OP_EQUAL", "type": "scripthash"}, "value": 0.0043346, "n": 12}, {"scriptPubKey": {"reqSigs": 1, "hex": "a9147fe696d74d116338318fbfa9ef718eca8a11113587", "addresses": ["3DMHyXUhFB2cZGSWMPoyTLYoJ6sS2bM4tZ"], "asm": "OP_HASH160 7fe696d74d116338318fbfa9ef718eca8a111135 OP_EQUAL", "type": "scripthash"}, "value": 0.0036626, "n": 13}, {"scriptPubKey": {"reqSigs": 1, "hex": "a9140f8dd9375dd0e9748e0f15d734f90c64a75144b687", "addresses": ["337FzEAjg7mAARdPT4LBuovQ6VRJ99kc6G"], "asm": "OP_HASH160 0f8dd9375dd0e9748e0f15d734f90c64a75144b6 OP_EQUAL", "type": "scripthash"}, "value": 0.0039131, "n": 14}, {"scriptPubKey": {"reqSigs": 1, "hex": "a9146cedcc9623257940de68ee06d153103b8cb4f80d87", "addresses": ["3BcymqWR5gY6pWRPDkXY6FvEoAGA9QiGkS"], "asm": "OP_HASH160 6cedcc9623257940de68ee06d153103b8cb4f80d OP_EQUAL", "type": "scripthash"}, "value": 0.0028196, "n": 15}, {"scriptPubKey": {"reqSigs": 1, "hex": "a914710968e3daae31b5c6ad21f81d690b5f2a38a5e087", "addresses": ["3BzhZ276UuceNTZB4XW7MPqqTcNJ89X21g"], "asm": "OP_HASH160 710968e3daae31b5c6ad21f81d690b5f2a38a5e0 OP_EQUAL", "type": "scripthash"}, "value": 0.0032106, "n": 16}, {"scriptPubKey": {"reqSigs": 1, "hex": "a9142537e12adf481a96e5d902e7f1d937a0b78a523287", "addresses": ["355osDo4FCaTxT9cruAr4wb2DoWzT8qBMS"], "asm": "OP_HASH160 2537e12adf481a96e5d902e7f1d937a0b78a5232 OP_EQUAL", "type": "scripthash"}, "value": 0.0031966, "n": 17}, {"scriptPubKey": {"reqSigs": 1, "hex": "a914d8e5de9bfef0b0e7fd0d6adefacc3ef4deec673587", "addresses": ["3MTsFbZYQRSPPLwEWBcr3MPr7AigQhkp2K"], "asm": "OP_HASH160 d8e5de9bfef0b0e7fd0d6adefacc3ef4deec6735 OP_EQUAL", "type": "scripthash"}, "value": 3.773e-05, "n": 18}], "hex": "0200000000010158768af8d3eb15ee063c58ae546da42e741da0f6d25ae9a65f26bc96e348e0c30100000017160014dc789d49a18e1bcf1d1cc2ec40c6d691cea08833feffffff13f0742a0a0000000017a914b9e6c5bfe5aae4d44c712ab01f27938adc5d301787605b03000000000017a91400422e8875d5c0a718f826ab2faae58a50003309872a610400000000001976a9145112b6e6faaba32064351fec1794cfcb51c677ec88ac5ceb03000000000017a9146d28dfb4417025220a9d0380f0440af6005fb03f87401b03000000000017a914e79b30379d3ab2c1e4bc68eb222cf2ef07951f2687826204000000000017a91460f40920a18ccf3b448da72c6440d40866ffc936879ce00a000000000017a91449657fd8ec2ec42787ffd15430412ac3c72eb6bc8724e604000000000017a9146ed773c4b344874d10ffb05b92b34dc6a9b5658f87eef50100000000001976a914c50a304633a14f01fa0460dcd6a8d8301f12911488ac783e07000000000017a9148ae04b63366b475e7ad7ae99f2156dcb20b9182f8754fd03000000000017a9140c4f1e4f9e6ceb98890b0e4156dbcdcf86912cc38724e604000000000017a914dcdeefc01d8754a399529be24fa530357bb23b4187349d06000000000017a9141f7a97fe89365976a0735b0018d7b0a5dba8a59887b49605000000000017a9147fe696d74d116338318fbfa9ef718eca8a111135878ef805000000000017a9140f8dd9375dd0e9748e0f15d734f90c64a75144b687684d04000000000017a9146cedcc9623257940de68ee06d153103b8cb4f80d8724e604000000000017a914710968e3daae31b5c6ad21f81d690b5f2a38a5e087ace004000000000017a9142537e12adf481a96e5d902e7f1d937a0b78a523287bd0e00000000000017a914d8e5de9bfef0b0e7fd0d6adefacc3ef4deec67358702473044022065cd1a813fb321eb09617bfb52a86cc5d2716a0eae1a2a45646801e3fbe5a48c02207882b6831924c93a6f047f51bdbf86d067c3c9e06312035f262c1025fc00bf0c0121023f7cf71053f22b100458464b3a1d916f8c4149ae8927dfcdbaf3dfb28a18673c11490800", "vin": [{"txinwitness": ["3044022065cd1a813fb321eb09617bfb52a86cc5d2716a0eae1a2a45646801e3fbe5a48c02207882b6831924c93a6f047f51bdbf86d067c3c9e06312035f262c1025fc00bf0c01", "023f7cf71053f22b100458464b3a1d916f8c4149ae8927dfcdbaf3dfb28a18673c"], "sequence": 4294967294, "scriptSig": {"hex": "160014dc789d49a18e1bcf1d1cc2ec40c6d691cea08833", "asm": "0014dc789d49a18e1bcf1d1cc2ec40c6d691cea08833"}, "vout": 1, "txid": "c3e048e396bc265fa6e95ad2f6a01d742ea46d54ae583c06ee15ebd3f88a7658"}], "txid": "6b1ed80a6a58ffb9357a08e227caac552224fb3163549362356ade131e7b7021", "blocktime": 1537872475, "version": 2, "confirmations": 11486, "time": 1537872475, "locktime": 542993, "vsize": 714, "size": 795}