{"hash": "e931ce4c6a870868074ba674012b804fd86f7ffcd26fdddf1e9273f87da486a7", "blockhash": "0000000000000000000e13cef7c366c0283d82e591d1acd082e914b08063cdf1", "vout": [{"scriptPubKey": {"reqSigs": 1, "hex": "76a91417526c68e7e91e57b8a196958f8a88d7342b34aa88ac", "addresses": ["138KHJ9NiYWKfk2i7bKNyHRpYg6ykv4H6E"], "asm": "OP_DUP OP_HASH160 17526c68e7e91e57b8a196958f8a88d7342b34aa OP_EQUALVERIFY OP_CHECKSIG", "type": "pubkeyhash"}, "value": 0.0469, "n": 0}, {"scriptPubKey": {"reqSigs": 1, "hex": "0014c22bf48a1e9c90f8dfa3aca1f329c12bf774d538", "addresses": ["bc1qcg4lfzs7njg03har4jslx2wp90mhf4fcqs59jr"], "asm": "0 c22bf48a1e9c90f8dfa3aca1f329c12bf774d538", "type": "witness_v0_keyhash"}, "value": 0.47803812, "n": 1}], "hex": "010000000001018f2dc237f83978b717930038d70e4baefc1f48d5c5b668e6b9722c8c05bd7bb20000000000ffffffff0250904700000000001976a91417526c68e7e91e57b8a196958f8a88d7342b34aa88aca46dd90200000000160014c22bf48a1e9c90f8dfa3aca1f329c12bf774d53802483045022100fd2fcfdc2d052861011c970d7b61502fedfe85d843f5e9ac5c179f0141b6332f0220239813fc280fe59c96f326e8b25a9c037b43b64447402601032ceb7520478984012102bff115e9ae8b4c9a77ae8b0a3c3d7b1fa0137e055698f2b1a42b8c783d7a0acd00000000", "vin": [{"txinwitness": ["3045022100fd2fcfdc2d052861011c970d7b61502fedfe85d843f5e9ac5c179f0141b6332f0220239813fc280fe59c96f326e8b25a9c037b43b64447402601032ceb752047898401", "02bff115e9ae8b4c9a77ae8b0a3c3d7b1fa0137e055698f2b1a42b8c783d7a0acd"], "sequence": 4294967295, "scriptSig": {"hex": "", "asm": ""}, "vout": 0, "txid": "b27bbd058c2c72b9e668b6c5d5481ffcae4b0ed738009317b77839f837c22d8f"}], "txid": "6b1e0c5c9723fb3cecf998d36597ab8928766d306ae55adb5c6a84730c717a79", "blocktime": 1537871767, "version": 1, "confirmations": 11495, "time": 1537871767, "locktime": 0, "vsize": 144, "size": 226}