{"hash": "6b1fa4a55833b4c9713478ef308b2eb3d991ae736926fddf57c1c3e4859b9a35", "blockhash": "0000000000000000001e0dab787dd257d1dbfcb92a98c2207d5e1078be1f4165", "vout": [{"scriptPubKey": {"reqSigs": 1, "hex": "76a914056d036859e66645650ece5cff7c6bd9e173a30988ac", "addresses": ["1VgyLXxiKmh62ingSd7Y8347f7fEKefvC"], "asm": "OP_DUP OP_HASH160 056d036859e66645650ece5cff7c6bd9e173a309 OP_EQUALVERIFY OP_CHECKSIG", "type": "pubkeyhash"}, "value": 0.01378, "n": 0}, {"scriptPubKey": {"reqSigs": 1, "hex": "a914e370231feecbfc25e2e2423a5a79bf79bfdca59887", "addresses": ["3NRbeX3vD5VaVE4TDU9ivCDsEf7NPPte6J"], "asm": "OP_HASH160 e370231feecbfc25e2e2423a5a79bf79bfdca598 OP_EQUAL", "type": "scripthash"}, "value": 0.53109824, "n": 1}], "hex": "01000000018cf9b065fbf89367d29f2b3adb7849413b600d1cc7405b0f0aa436a5ac54088f01000000da00483045022100d717027d6520ab94337d5e45fc88ae75d7fc14b81b632c37a54778217fffecf402207c3dfba8150a305043584f4d273693d41ee76c4499943588e35a540736a936c601473044022062e427c21df0b308dd9c3a0293e254f6a79752eec685643b16e41b3c5121e3220220478db9064ebc0fa17dc7b2dfcd788d1e164f1eabe39a021fc9e259d8ae3f1e8c014752210327881b6abce6535553a3ce21fad12a7d74fd237ce7c4cd270a267162344e3082210256141f8eb687f5a68c5cc65054652dc25116fa285e44d72b44368827ffe77d9a52aeffffffff02d0061500000000001976a914056d036859e66645650ece5cff7c6bd9e173a30988ac40642a030000000017a914e370231feecbfc25e2e2423a5a79bf79bfdca5988700000000", "vin": [{"sequence": 4294967295, "scriptSig": {"hex": "00483045022100d717027d6520ab94337d5e45fc88ae75d7fc14b81b632c37a54778217fffecf402207c3dfba8150a305043584f4d273693d41ee76c4499943588e35a540736a936c601473044022062e427c21df0b308dd9c3a0293e254f6a79752eec685643b16e41b3c5121e3220220478db9064ebc0fa17dc7b2dfcd788d1e164f1eabe39a021fc9e259d8ae3f1e8c014752210327881b6abce6535553a3ce21fad12a7d74fd237ce7c4cd270a267162344e3082210256141f8eb687f5a68c5cc65054652dc25116fa285e44d72b44368827ffe77d9a52ae", "asm": "0 3045022100d717027d6520ab94337d5e45fc88ae75d7fc14b81b632c37a54778217fffecf402207c3dfba8150a305043584f4d273693d41ee76c4499943588e35a540736a936c6[ALL] 3044022062e427c21df0b308dd9c3a0293e254f6a79752eec685643b16e41b3c5121e3220220478db9064ebc0fa17dc7b2dfcd788d1e164f1eabe39a021fc9e259d8ae3f1e8c[ALL] 52210327881b6abce6535553a3ce21fad12a7d74fd237ce7c4cd270a267162344e3082210256141f8eb687f5a68c5cc65054652dc25116fa285e44d72b44368827ffe77d9a52ae"}, "vout": 1, "txid": "8f0854aca536a40a0f5b40c71c0d603b414978db3a2b9fd26793f8fb65b0f98c"}], "txid": "6b1fa4a55833b4c9713478ef308b2eb3d991ae736926fddf57c1c3e4859b9a35", "blocktime": 1537872475, "version": 1, "confirmations": 11487, "time": 1537872475, "locktime": 0, "vsize": 335, "size": 335}