{"hash": "6b1f2666234df137823fff32a4ddf0737a1642ed0e6e3770daecf51b83b93e8a", "blockhash": "0000000000000000001f76057863aec43deb6fa401d9628bb513d65a8098bfab", "vout": [{"scriptPubKey": {"reqSigs": 1, "hex": "a9142f89dfe0b6284bf322b4eec95dfd0538195c62b887", "addresses": ["362NrFRkuRJFiscgExZKnfyEyyqUJ6mjny"], "asm": "OP_HASH160 2f89dfe0b6284bf322b4eec95dfd0538195c62b8 OP_EQUAL", "type": "scripthash"}, "value": 0.0024, "n": 0}], "hex": "0100000002b4e014ac9a0ac73ba66395e67c4b69ba0a1b0128d7ff5349b11d4feafb3ead45010000006a47304402207bc69974cec165a13cfaa9c65006a22bf307e11bbb431444460ac72085dee1020220784fef5427ba987437d0f3592b128f6884687a0dc7f2a8bab1bea99c209faa3c0121020c328e1b59e884dc79e3b57b875eb7595a84f00aa45f734c66553c40216d5b69ffffffff81864d25734d1a3490467043ebdf4958190aff1dc3dcba67d16168bd8fc13de4010000006a47304402206006cf9254a71f693fd5192b675565f7b7e7af574af1593b8f934d689f46973a02202dc82907ad006151cb5addedd005d92d664fb7b56121521e8853d677466f63ef012102821fb0aec5d0974916d34ad15df83840573a99e420a7761e8c44909c018edb09ffffffff0180a903000000000017a9142f89dfe0b6284bf322b4eec95dfd0538195c62b88700000000", "vin": [{"sequence": 4294967295, "scriptSig": {"hex": "47304402207bc69974cec165a13cfaa9c65006a22bf307e11bbb431444460ac72085dee1020220784fef5427ba987437d0f3592b128f6884687a0dc7f2a8bab1bea99c209faa3c0121020c328e1b59e884dc79e3b57b875eb7595a84f00aa45f734c66553c40216d5b69", "asm": "304402207bc69974cec165a13cfaa9c65006a22bf307e11bbb431444460ac72085dee1020220784fef5427ba987437d0f3592b128f6884687a0dc7f2a8bab1bea99c209faa3c[ALL] 020c328e1b59e884dc79e3b57b875eb7595a84f00aa45f734c66553c40216d5b69"}, "vout": 1, "txid": "45ad3efbea4f1db14953ffd728011b0aba694b7ce69563a63bc70a9aac14e0b4"}, {"sequence": 4294967295, "scriptSig": {"hex": "47304402206006cf9254a71f693fd5192b675565f7b7e7af574af1593b8f934d689f46973a02202dc82907ad006151cb5addedd005d92d664fb7b56121521e8853d677466f63ef012102821fb0aec5d0974916d34ad15df83840573a99e420a7761e8c44909c018edb09", "asm": "304402206006cf9254a71f693fd5192b675565f7b7e7af574af1593b8f934d689f46973a02202dc82907ad006151cb5addedd005d92d664fb7b56121521e8853d677466f63ef[ALL] 02821fb0aec5d0974916d34ad15df83840573a99e420a7761e8c44909c018edb09"}, "vout": 1, "txid": "e43dc18fbd6861d167badcc31dff0a195849dfeb43704690341a4d73254d8681"}], "txid": "6b1f2666234df137823fff32a4ddf0737a1642ed0e6e3770daecf51b83b93e8a", "blocktime": 1537873891, "version": 1, "confirmations": 11474, "time": 1537873891, "locktime": 0, "vsize": 336, "size": 336}