{"hash": "6b1f4ab262a0bba42111a7158fa54d1a2b903a8fd64e00447a7c5f90e41d3d7e", "blockhash": "0000000000000000001cda96e906b7601b7a6fb1a3b62bca570a9e5d8f4b3de1", "vout": [{"scriptPubKey": {"reqSigs": 1, "hex": "a914c006d4921628847f8557faa23d61229e4896606487", "addresses": ["3KCMqxRyhT58UHEPuUbRwuRrLQrf7583pN"], "asm": "OP_HASH160 c006d4921628847f8557faa23d61229e48966064 OP_EQUAL", "type": "scripthash"}, "value": 0.05, "n": 0}, {"scriptPubKey": {"reqSigs": 1, "hex": "76a91439150f1cf405f2f81258b3cba0f959d850fc041288ac", "addresses": ["16Cpk9Dw1t58NYLZh8EQp9u9HkQgD7Kk3y"], "asm": "OP_DUP OP_HASH160 39150f1cf405f2f81258b3cba0f959d850fc0412 OP_EQUALVERIFY OP_CHECKSIG", "type": "pubkeyhash"}, "value": 0.25700852, "n": 1}], "hex": "0200000001ed2fcac4a7897d36f103c37baf2033e588a44380381638031a6ac76e6807bd6f010000006b4830450221008c2107e9afc8fb196829518f879a1660ba74e280b1b73bbc878baee2cdd1d4ba0220107b105f3a515ebe8a8c30687ae01c5f45e2a3cde01755a0bc342808b5cb8c7f0121020c5b01a17d444499b91b42cdf311f7c17fcf3e8249cae1ffe694e45ab282d5c2ffffffff02404b4c000000000017a914c006d4921628847f8557faa23d61229e4896606487f4298801000000001976a91439150f1cf405f2f81258b3cba0f959d850fc041288ac00000000", "vin": [{"sequence": 4294967295, "scriptSig": {"hex": "4830450221008c2107e9afc8fb196829518f879a1660ba74e280b1b73bbc878baee2cdd1d4ba0220107b105f3a515ebe8a8c30687ae01c5f45e2a3cde01755a0bc342808b5cb8c7f0121020c5b01a17d444499b91b42cdf311f7c17fcf3e8249cae1ffe694e45ab282d5c2", "asm": "30450221008c2107e9afc8fb196829518f879a1660ba74e280b1b73bbc878baee2cdd1d4ba0220107b105f3a515ebe8a8c30687ae01c5f45e2a3cde01755a0bc342808b5cb8c7f[ALL] 020c5b01a17d444499b91b42cdf311f7c17fcf3e8249cae1ffe694e45ab282d5c2"}, "vout": 1, "txid": "6fbd07686ec76a1a033816388043a488e53320af7bc303f1367d89a7c4ca2fed"}], "txid": "6b1f4ab262a0bba42111a7158fa54d1a2b903a8fd64e00447a7c5f90e41d3d7e", "blocktime": 1537873282, "version": 2, "confirmations": 11483, "time": 1537873282, "locktime": 0, "vsize": 224, "size": 224}