{"hash": "6b218c2b42c372283c3d97593c388153c36844a062a4dcd62c997f4da7be3d1c", "blockhash": "000000000000000000022b45ed06c6f4ccd3cf7fb5ba4856ebd2e58215665228", "vout": [{"scriptPubKey": {"reqSigs": 1, "hex": "76a914de79cb58c582d50ebffceb2ad0dc29a201b5b95f88ac", "addresses": ["1MHLv1FSQUe1nnNiQFC7dfB3tu53YYWTxk"], "asm": "OP_DUP OP_HASH160 de79cb58c582d50ebffceb2ad0dc29a201b5b95f OP_EQUALVERIFY OP_CHECKSIG", "type": "pubkeyhash"}, "value": 60.7269902, "n": 0}, {"scriptPubKey": {"reqSigs": 1, "hex": "76a914000d2245979a4304afba07efc502a7a3918a976688ac", "addresses": ["11GjZLjhTAtr2pkdduZ7DoiqqiKZpMZPF"], "asm": "OP_DUP OP_HASH160 000d2245979a4304afba07efc502a7a3918a9766 OP_EQUALVERIFY OP_CHECKSIG", "type": "pubkeyhash"}, "value": 0.0038952, "n": 1}], "hex": "0100000001b1788a830c673172c7f0adcce768919060ed8ea66de2c0d6cb2078008ff402a2000000006a47304402206d8214f7d0029a10e8e4375d969433b6e9e3bdcfe225740adbca1a5b126615c90220129de23d14fbf79f30bfd4d22d2a9db7d3b98f625fcdc934361572fa25260e59012103c45e0ea353c706b33e760627a81f9aeef472193ded0257421c659f13cca17e00ffffffff028c08f669010000001976a914de79cb58c582d50ebffceb2ad0dc29a201b5b95f88ac90f10500000000001976a914000d2245979a4304afba07efc502a7a3918a976688ac00000000", "vin": [{"sequence": 4294967295, "scriptSig": {"hex": "47304402206d8214f7d0029a10e8e4375d969433b6e9e3bdcfe225740adbca1a5b126615c90220129de23d14fbf79f30bfd4d22d2a9db7d3b98f625fcdc934361572fa25260e59012103c45e0ea353c706b33e760627a81f9aeef472193ded0257421c659f13cca17e00", "asm": "304402206d8214f7d0029a10e8e4375d969433b6e9e3bdcfe225740adbca1a5b126615c90220129de23d14fbf79f30bfd4d22d2a9db7d3b98f625fcdc934361572fa25260e59[ALL] 03c45e0ea353c706b33e760627a81f9aeef472193ded0257421c659f13cca17e00"}, "vout": 0, "txid": "a202f48f007820cbd6c0e26da68eed60909168e7ccadf0c77231670c838a78b1"}], "txid": "6b218c2b42c372283c3d97593c388153c36844a062a4dcd62c997f4da7be3d1c", "blocktime": 1537869901, "version": 1, "confirmations": 11522, "time": 1537869901, "locktime": 0, "vsize": 225, "size": 225}