{"hash": "68ef9108afba57b59424307639473cae1628cdefef8aed0424be71c697b26bfa", "blockhash": "0000000000000000000e13cef7c366c0283d82e591d1acd082e914b08063cdf1", "vout": [{"scriptPubKey": {"reqSigs": 1, "hex": "a9140c5ac08c085a556c8083c068b5fe6c2e1321080487", "addresses": ["32pLkR1P3n5Pu224KzRGUXkqQSeXRbGRhs"], "asm": "OP_HASH160 0c5ac08c085a556c8083c068b5fe6c2e13210804 OP_EQUAL", "type": "scripthash"}, "value": 0.007, "n": 0}, {"scriptPubKey": {"reqSigs": 1, "hex": "a914efeed126c769619c38f621c135e63ac2737f21fe87", "addresses": ["3PZfWgooWr17sa4gFVePgkLfgY7spAQRya"], "asm": "OP_HASH160 efeed126c769619c38f621c135e63ac2737f21fe OP_EQUAL", "type": "scripthash"}, "value": 0.3354, "n": 1}, {"scriptPubKey": {"reqSigs": 1, "hex": "a9142fc508551e1f3efd6ce9c3e593e2d49cd22f85f187", "addresses": ["363biczEAWHZYCYVf38GdCv6pBmDHN2VG9"], "asm": "OP_HASH160 2fc508551e1f3efd6ce9c3e593e2d49cd22f85f1 OP_EQUAL", "type": "scripthash"}, "value": 0.35179395, "n": 2}], "hex": "010000000001011dd5bf73dd003753b3082d98cac309098d62eadde03e772e770625aed5f7f4ab05000000232200209f8759699a225e0f170b3a57e770157e9b40efbee0758ea1ee9d51a2fd7501eaffffffff0360ae0a000000000017a9140c5ac08c085a556c8083c068b5fe6c2e1321080487a0c7ff010000000017a914efeed126c769619c38f621c135e63ac2737f21fe8783cb18020000000017a9142fc508551e1f3efd6ce9c3e593e2d49cd22f85f187040047304402201e4d5f5a9f211efc9b2a681b4281a94ab7bfe43cc7ef3a8566c8a8a2d183cf1102204d2d3bc4550ee2ca605e676bd8473a7de1def755d321f4654fbc022b55966e2f01483045022100a0737b4dc631b2afb054d7498803a4af275059f4ac3e8186d2da36df5520e5e1022031921c081961b3c139e91095194f9c86406db8c5055442c15aaede3ab4221b54016952210390f776b5af229a8ae3e19c7d89a1030d8673292888a295910d2a5767a644d24c21021d70e9140c3b7ea544469ff8760a50b6a4fbbb1aa1e04c0127da39ca406fb5ce2102fba7c0bc20248b4c7953b95c7f76531860738b63be5847015abd2e905b1758c053ae00000000", "vin": [{"txinwitness": ["", "304402201e4d5f5a9f211efc9b2a681b4281a94ab7bfe43cc7ef3a8566c8a8a2d183cf1102204d2d3bc4550ee2ca605e676bd8473a7de1def755d321f4654fbc022b55966e2f01", "3045022100a0737b4dc631b2afb054d7498803a4af275059f4ac3e8186d2da36df5520e5e1022031921c081961b3c139e91095194f9c86406db8c5055442c15aaede3ab4221b5401", "52210390f776b5af229a8ae3e19c7d89a1030d8673292888a295910d2a5767a644d24c21021d70e9140c3b7ea544469ff8760a50b6a4fbbb1aa1e04c0127da39ca406fb5ce2102fba7c0bc20248b4c7953b95c7f76531860738b63be5847015abd2e905b1758c053ae"], "sequence": 4294967295, "scriptSig": {"hex": "2200209f8759699a225e0f170b3a57e770157e9b40efbee0758ea1ee9d51a2fd7501ea", "asm": "00209f8759699a225e0f170b3a57e770157e9b40efbee0758ea1ee9d51a2fd7501ea"}, "vout": 5, "txid": "abf4f7d5ae2506772e773ee0ddea628d0909c3ca982d08b3533700dd73bfd51d"}], "txid": "6b24364d0ef30f550924162a049430b9a1b91b575ae4a8f2665210a6fb03bf47", "blocktime": 1537871767, "version": 1, "confirmations": 11495, "time": 1537871767, "locktime": 0, "vsize": 246, "size": 437}