{"hash": "6b2db6072bd6774f67d2c8624f41a4381d0e0d00db6614a8a89b899d0e3a7df3", "blockhash": "000000000000000000022b45ed06c6f4ccd3cf7fb5ba4856ebd2e58215665228", "vout": [{"scriptPubKey": {"reqSigs": 1, "hex": "76a9145b250adec16b1c556a3144b0e7544a8069d9acd888ac", "addresses": ["19JvsDHsiyB9RLsUZFXYyVzxswpKpaVjPD"], "asm": "OP_DUP OP_HASH160 5b250adec16b1c556a3144b0e7544a8069d9acd8 OP_EQUALVERIFY OP_CHECKSIG", "type": "pubkeyhash"}, "value": 0.005, "n": 0}, {"scriptPubKey": {"reqSigs": 1, "hex": "76a91488d924f51033b74a895863a5fb57fd545529df7d88ac", "addresses": ["1DUb2YYbQA1jjaNYzVXLZ7ZioEhLXtbUru"], "asm": "OP_DUP OP_HASH160 88d924f51033b74a895863a5fb57fd545529df7d OP_EQUALVERIFY OP_CHECKSIG", "type": "pubkeyhash"}, "value": 0.8375912, "n": 1}], "hex": "0100000001e8d6d479acf4a609da15af988b30484864c2d13a2568656cdcd483e36a0b6cc2010000006a4730440220505ea7d4f886d5802b3fe039e337f543a023194170d490057e4837c818f5764702202f4b1b3787270eeac62c027f393cde974e09dae9687ee13ec7ec49703775cce80121030888863fcb4cdf5b7d33b40e613af35df8f39d576e7972238b0d396cd3fcc3f2ffffffff0220a10700000000001976a9145b250adec16b1c556a3144b0e7544a8069d9acd888ac1010fe04000000001976a91488d924f51033b74a895863a5fb57fd545529df7d88ac00000000", "vin": [{"sequence": 4294967295, "scriptSig": {"hex": "4730440220505ea7d4f886d5802b3fe039e337f543a023194170d490057e4837c818f5764702202f4b1b3787270eeac62c027f393cde974e09dae9687ee13ec7ec49703775cce80121030888863fcb4cdf5b7d33b40e613af35df8f39d576e7972238b0d396cd3fcc3f2", "asm": "30440220505ea7d4f886d5802b3fe039e337f543a023194170d490057e4837c818f5764702202f4b1b3787270eeac62c027f393cde974e09dae9687ee13ec7ec49703775cce8[ALL] 030888863fcb4cdf5b7d33b40e613af35df8f39d576e7972238b0d396cd3fcc3f2"}, "vout": 1, "txid": "c26c0b6ae383d4dc6c6568253ad1c2644848308b98af15da09a6f4ac79d4d6e8"}], "txid": "6b2db6072bd6774f67d2c8624f41a4381d0e0d00db6614a8a89b899d0e3a7df3", "blocktime": 1537869901, "version": 1, "confirmations": 11522, "time": 1537869901, "locktime": 0, "vsize": 225, "size": 225}