{"hash": "f6be52df81a3897a483b233855d86a34d27ed1d784cb55412e1c75880be73a04", "blockhash": "0000000000000000001cda96e906b7601b7a6fb1a3b62bca570a9e5d8f4b3de1", "vout": [{"scriptPubKey": {"reqSigs": 1, "hex": "a9143c33eeed58325b3d807af37d2c456c04ec5c27dc87", "addresses": ["37BLgSf2J9gy17zhoE4ui1rv6DGQWweh9p"], "asm": "OP_HASH160 3c33eeed58325b3d807af37d2c456c04ec5c27dc OP_EQUAL", "type": "scripthash"}, "value": 0.00248094, "n": 0}, {"scriptPubKey": {"reqSigs": 1, "hex": "a914412a5a9d44d5834123b7756088f409b7b3a36da687", "addresses": ["37daapNiiDgPEaARWMQCfhGXJo4yF1nTaW"], "asm": "OP_HASH160 412a5a9d44d5834123b7756088f409b7b3a36da6 OP_EQUAL", "type": "scripthash"}, "value": 0.01389721, "n": 1}], "hex": "0100000000010151ca6d33e4843468bad9ace610f26119a038d3b5eea96c657ca79cbbf2be0e5f010000002322002083f5850b1b9ae687f7cf8d5c77fefcbd87cde420155cd43c20d50f5f293b7ed6ffffffff021ec903000000000017a9143c33eeed58325b3d807af37d2c456c04ec5c27dc87993415000000000017a914412a5a9d44d5834123b7756088f409b7b3a36da6870400483045022100a4291cd8ec115371d7414cddd13eedfc54b797e8a237d07fa8cd6e7c073f3f850220470d25d2130aa3c97630bc9655639cb50401eb78e10516bb071c5aeb0780cc650147304402205dcdd33b235626cd10117d1fef29ac3d28dc73ca901c8f1cfd6dc8069e9b3f1f0220246b130661b203be8e1a85b6524217ba8023c6eb8a32c2a9799754a58c876af201475221020511070566b8412d1941b8dc0ded10caa6a6915b609dfa65bb8111255071d3a22103871fc2ca08e6950b38867e8e6a0e94ee625223d3aa0df5c65f414c6d784467e252ae00000000", "vin": [{"txinwitness": ["", "3045022100a4291cd8ec115371d7414cddd13eedfc54b797e8a237d07fa8cd6e7c073f3f850220470d25d2130aa3c97630bc9655639cb50401eb78e10516bb071c5aeb0780cc6501", "304402205dcdd33b235626cd10117d1fef29ac3d28dc73ca901c8f1cfd6dc8069e9b3f1f0220246b130661b203be8e1a85b6524217ba8023c6eb8a32c2a9799754a58c876af201", "5221020511070566b8412d1941b8dc0ded10caa6a6915b609dfa65bb8111255071d3a22103871fc2ca08e6950b38867e8e6a0e94ee625223d3aa0df5c65f414c6d784467e252ae"], "sequence": 4294967295, "scriptSig": {"hex": "22002083f5850b1b9ae687f7cf8d5c77fefcbd87cde420155cd43c20d50f5f293b7ed6", "asm": "002083f5850b1b9ae687f7cf8d5c77fefcbd87cde420155cd43c20d50f5f293b7ed6"}, "vout": 1, "txid": "5f0ebef2bb9ca77c656ca9eeb5d338a01961f210e6acd9ba683484e4336dca51"}], "txid": "6b318c48fc4cedc3a0956589918fc5801155fdf9655523c6c18b6980286a655e", "blocktime": 1537873282, "version": 1, "confirmations": 11484, "time": 1537873282, "locktime": 0, "vsize": 206, "size": 371}