{"hash": "6b34845e725ab935c415aa186c89cd24635c82e24a3769508547394cb4e29ea8", "blockhash": "0000000000000000000e13cef7c366c0283d82e591d1acd082e914b08063cdf1", "vout": [{"scriptPubKey": {"reqSigs": 1, "hex": "76a914cdf447537923bd4a9e16a289bfe259644637c5d688ac", "addresses": ["1KmzA6sCXB4oHgiNeeHdpafUZNbU7x4iux"], "asm": "OP_DUP OP_HASH160 cdf447537923bd4a9e16a289bfe259644637c5d6 OP_EQUALVERIFY OP_CHECKSIG", "type": "pubkeyhash"}, "value": 0.12507641, "n": 0}, {"scriptPubKey": {"reqSigs": 1, "hex": "76a914b388f297799896087645c23a2a29d6417477144988ac", "addresses": ["1HNJ1dGim5nfPFyL8P8iY1dMogXQz3aje3"], "asm": "OP_DUP OP_HASH160 b388f297799896087645c23a2a29d64174771449 OP_EQUALVERIFY OP_CHECKSIG", "type": "pubkeyhash"}, "value": 1.37380176, "n": 1}], "hex": "0100000001d336bcacfe7e44557f45b4df92bf3332857c9a4275e4df258a672beb2add41e8010000006a47304402204b05255cbd258297908a65392ef63dff210d86df8e81b1b35e6c2955661586dc02203397255a1c2040d44c3dbe70c23274a99b95e26fe421317e1e7bd4729998a44a01210278500e2b44407b827441cd770c03fa31f3f381bcfe015a17cd4ce5b4429f3127ffffffff02f9d9be00000000001976a914cdf447537923bd4a9e16a289bfe259644637c5d688ac50413008000000001976a914b388f297799896087645c23a2a29d6417477144988ac00000000", "vin": [{"sequence": 4294967295, "scriptSig": {"hex": "47304402204b05255cbd258297908a65392ef63dff210d86df8e81b1b35e6c2955661586dc02203397255a1c2040d44c3dbe70c23274a99b95e26fe421317e1e7bd4729998a44a01210278500e2b44407b827441cd770c03fa31f3f381bcfe015a17cd4ce5b4429f3127", "asm": "304402204b05255cbd258297908a65392ef63dff210d86df8e81b1b35e6c2955661586dc02203397255a1c2040d44c3dbe70c23274a99b95e26fe421317e1e7bd4729998a44a[ALL] 0278500e2b44407b827441cd770c03fa31f3f381bcfe015a17cd4ce5b4429f3127"}, "vout": 1, "txid": "e841dd2aeb2b678a25dfe475429a7c853233bf92dfb4457f55447efeacbc36d3"}], "txid": "6b34845e725ab935c415aa186c89cd24635c82e24a3769508547394cb4e29ea8", "blocktime": 1537871767, "version": 1, "confirmations": 11491, "time": 1537871767, "locktime": 0, "vsize": 225, "size": 225}