{"hash": "6b34976bc353bb7628f06b22aecb5a71fd3afd8ed827488a962cfbf2a1556aff", "blockhash": "00000000000000000024a2167bbff67b0be802c0b01cdd79e6331c2be6459f87", "vout": [{"scriptPubKey": {"reqSigs": 1, "hex": "76a9149170123f67d66951974b506e4a6ba81e0fd5205688ac", "addresses": ["1EG1EfYEcNz84qzCioBTahnFfBxhkZcc61"], "asm": "OP_DUP OP_HASH160 9170123f67d66951974b506e4a6ba81e0fd52056 OP_EQUALVERIFY OP_CHECKSIG", "type": "pubkeyhash"}, "value": 0.00021048, "n": 0}, {"scriptPubKey": {"reqSigs": 1, "hex": "76a9143d23d3a8409602e4b9cbf10934c6aa29f138365688ac", "addresses": ["16aH8zSgRtanZMTn9nZ7wzrJ4nmexsGgCK"], "asm": "OP_DUP OP_HASH160 3d23d3a8409602e4b9cbf10934c6aa29f1383656 OP_EQUALVERIFY OP_CHECKSIG", "type": "pubkeyhash"}, "value": 0.01887475, "n": 1}], "hex": "0100000003dae94560ed8f6d06d7295e6ebdaa5f88536027989553893518160ca819e6d713000000006b48304502210091ff7b411f0697ebdbf269e56a15243377ab3c51a0da2f1a554ee86147d6499f02203d21921c4da71f08d7834b89cf028f1d6509bed726a83471028817314634e88b012103671b0805111d62a7d8ce124dc61190cfb032118fa80ccf77c6e862c4631d6c5bffffffff87e4723a3e62506c02bea4e17cca7ed74030bd112f227e42823ec2fca8b7d61d000000006b483045022100bdc396ba080b138da15b2c1d8ab046d18c06859920542bd659ab9baedf9dea5602205b0490e34d3f3cc346e697f50f57c9389174d51b01eba8ffe1240b90363d893901210271ccc2734271db97d658963db093cf6a8eb03fab948a88fc55bf0db47926bbbdffffffffd8c49598e2dc48e74575faf71480e0015454a4ec04b1e80f51ff01118a183bff010000006a47304402203059674b639ed4578b547c02d4854c9322718afe44ccda5c68ce9b088a7c1b540220691aa487c8fd1e5098c678356260f139f76a232b9ea57af1561b89c9f19c684a0121037fd7839e87ca35de860b7c4874817bd3adf6ec3e2f8ce78cfb8c0d322f256323ffffffff0238520000000000001976a9149170123f67d66951974b506e4a6ba81e0fd5205688acf3cc1c00000000001976a9143d23d3a8409602e4b9cbf10934c6aa29f138365688ac00000000", "vin": [{"sequence": 4294967295, "scriptSig": {"hex": "48304502210091ff7b411f0697ebdbf269e56a15243377ab3c51a0da2f1a554ee86147d6499f02203d21921c4da71f08d7834b89cf028f1d6509bed726a83471028817314634e88b012103671b0805111d62a7d8ce124dc61190cfb032118fa80ccf77c6e862c4631d6c5b", "asm": "304502210091ff7b411f0697ebdbf269e56a15243377ab3c51a0da2f1a554ee86147d6499f02203d21921c4da71f08d7834b89cf028f1d6509bed726a83471028817314634e88b[ALL] 03671b0805111d62a7d8ce124dc61190cfb032118fa80ccf77c6e862c4631d6c5b"}, "vout": 0, "txid": "13d7e619a80c16183589539598276053885faabd6e5e29d7066d8fed6045e9da"}, {"sequence": 4294967295, "scriptSig": {"hex": "483045022100bdc396ba080b138da15b2c1d8ab046d18c06859920542bd659ab9baedf9dea5602205b0490e34d3f3cc346e697f50f57c9389174d51b01eba8ffe1240b90363d893901210271ccc2734271db97d658963db093cf6a8eb03fab948a88fc55bf0db47926bbbd", "asm": "3045022100bdc396ba080b138da15b2c1d8ab046d18c06859920542bd659ab9baedf9dea5602205b0490e34d3f3cc346e697f50f57c9389174d51b01eba8ffe1240b90363d8939[ALL] 0271ccc2734271db97d658963db093cf6a8eb03fab948a88fc55bf0db47926bbbd"}, "vout": 0, "txid": "1dd6b7a8fcc23e82427e222f11bd3040d77eca7ce1a4be026c50623e3a72e487"}, {"sequence": 4294967295, "scriptSig": {"hex": "47304402203059674b639ed4578b547c02d4854c9322718afe44ccda5c68ce9b088a7c1b540220691aa487c8fd1e5098c678356260f139f76a232b9ea57af1561b89c9f19c684a0121037fd7839e87ca35de860b7c4874817bd3adf6ec3e2f8ce78cfb8c0d322f256323", "asm": "304402203059674b639ed4578b547c02d4854c9322718afe44ccda5c68ce9b088a7c1b540220691aa487c8fd1e5098c678356260f139f76a232b9ea57af1561b89c9f19c684a[ALL] 037fd7839e87ca35de860b7c4874817bd3adf6ec3e2f8ce78cfb8c0d322f256323"}, "vout": 1, "txid": "ff3b188a1101ff510fe8b104eca4545401e08014f7fa7545e748dce29895c4d8"}], "txid": "6b34976bc353bb7628f06b22aecb5a71fd3afd8ed827488a962cfbf2a1556aff", "blocktime": 1537870564, "version": 1, "confirmations": 11515, "time": 1537870564, "locktime": 0, "vsize": 521, "size": 521}