{"hash": "ff44a96286d1ad28e2ee955b475a94ee784a3001020db95e736cad6ce3d8e6f9", "blockhash": "0000000000000000000e13cef7c366c0283d82e591d1acd082e914b08063cdf1", "vout": [{"scriptPubKey": {"reqSigs": 1, "hex": "a914bfecd87a146bba7eb0c2903dcefb5c047a19be1f87", "addresses": ["3KBpiWFCsxXEYt8GXqWKmYGpVns79ho75B"], "asm": "OP_HASH160 bfecd87a146bba7eb0c2903dcefb5c047a19be1f OP_EQUAL", "type": "scripthash"}, "value": 0.01000002, "n": 0}, {"scriptPubKey": {"reqSigs": 1, "hex": "76a914a6f6c5cc48350a5851caaa0e70e8f8aaac32e4b188ac", "addresses": ["1GDpnuffxriES2FfbrmuQQRi2jxTtAbvqZ"], "asm": "OP_DUP OP_HASH160 a6f6c5cc48350a5851caaa0e70e8f8aaac32e4b1 OP_EQUALVERIFY OP_CHECKSIG", "type": "pubkeyhash"}, "value": 0.04312135, "n": 1}], "hex": "0200000000010f23f7e94c2f41ebb492835e5597493c2302dd4cf0527f305d5f942801bb7f11660100000017160014307ac19523f9c6ac135aff11618ff5c1c691804afeffffff2ee2a0f431500c9a339fb565adee54823861a99066ef8e7e3212323fccf70c4e09000000171600148339664ddcc807adc9a72fe50408f7cea28c6734feffffff34dbb10601eb3609c1161c8c66f95c8f9706148c2248a9312a5a4bfbddd4f6cf0000000017160014d4e43612b9500be318a013aca1b1a6021d3e47e9feffffff436544842c8b3df26f4e93370b69ddd0342a44102c2cfbb346623e110d65efc304000000171600147e4ca4955ff59f0ca2aeed9e44fa5fa5df4766bcfeffffff4a97a7c6affd47e39088b88db533efcd7b7905dcdaa6fce1835cf01010f222330c00000017160014f9f5189d123ca41f3ab29cbab61cfbde6f0b3a83feffffff7bb6560ae667b26be2e1515bbeda9817530e846f245beee4189da2391c51c8470000000017160014042c7ac85c65355cb08fadef2a225db24febb60cfeffffff92e11fccb332821cfff77db00a2a30e1d343b57bf4f904f58c3f2d98f2f64b9c0c00000017160014307ac19523f9c6ac135aff11618ff5c1c691804afeffffff9f4879f287804fd9c96a4d6ae033d1a0a39af65414f8399ca41a155136e6c775010000001716001405c4656c7667254d279ef44083bb44e8dd4093c3feffffffaaf48e569296de01b26ad177b7b6840718644d1a5d2101e9026e86496a4bc2f600000000171600141a1944fea7da761dbbff4437a1dafbd30cacbcd4feffffffada39af716cf95b405a830cc8dd6a08a9dacd7394ccd25a024bb4f4a4c732d4f040000001716001407d8c4dd24cf585fd2d6fa8adc5ac7bb28f3a66cfeffffffc0156f64d5f637a9ff72568d51e84f41ef3aa92fe328742caa93d8d071288e9c0200000017160014758593aedcce1896f24864cc59d572a31008543ffeffffffc157a7b3423e054de7f5b104b69bb04788fe0ffb2a31e47425c44a1074363089070000001716001478250571a475773d993e3dec7d0fe7dc77eae471feffffffc157a7b3423e054de7f5b104b69bb04788fe0ffb2a31e47425c44a10743630890e00000017160014ccc2ef5b02721271bf2b2d64f41aac3178174702feffffffc65b38fc7a90f227695123b083d3c1bf28f571c78f4b3cb2f11e3dacb9297e5c0000000017160014c6ff1e85067c192670ff6d61ae5783d19c7cf75cfeffffffe28558038a780eb552b36cfec0146a4d64348cbc4654083cf7121a4cd64cec870000000017160014dcebef418358045124e2a0328ec1f4a170762480feffffff0242420f000000000017a914bfecd87a146bba7eb0c2903dcefb5c047a19be1f8747cc4100000000001976a914a6f6c5cc48350a5851caaa0e70e8f8aaac32e4b188ac02483045022100afe830b90f9fae3d439d68245fdf133ad4ac911da9e9f56ef64a5dada1c9efcf02207637cd940b1861ecba4e604763985aab6bbf9e04aa47c57bb65afeeaf0a3ee82012102931d32917a8cd3237485471c2f446cd86da95c70871998976eb77ade53b1e8cb02483045022100e43372ffde2b34e134c30309f3c8b2521b44821e71b7ef8116d759f7d9df7065022024d44b6f2830c7055ae6f0e81844c27d3ad3420025e1b2acd95cf13e2a2c22b101210245471f681cd3cc4d3eb284348f6f6760cc9c4e3cba2e2afe42d91e4c73d0633902483045022100cd13c4b6263064824b3802210b28ef95c41aa100be4ac06420166999171077e1022049df274ecac5ec6bb3434289d5aff3d9ed76a860cc2019cc593d3cf867407dda01210392553abf5ec9c1f3127b2ff4c7cfe7c6838ddef9345c995b9289704f4b71dab502483045022100868a7398cf6b1849d3c2358ee083b770c7ffb7ca034266d1503835f69c77620802201d29443600156d48b2d1a4b3f844a78503cd475f4200ebe8d018fd0ade119b83012102a5f3d3be47f0b1286ecfb7b06393072ed1d3840dc3e9c962485895dca662a48002473044022056d696492e2082ea8fb05ab4063a90c0a6d5a26109a93ddfa656772e03de32e302201dae79a94fb7eb6db44bc9731beb071bc29dc1bc338d1e389c2236b8db31f60401210280591015f0301cd90829777f223dd64bb4c8536f1578e2bd47b5da941842ce0f02483045022100ed5513ef2317ec2f12758a24ff4abefb69a6296d37ede5b3d3dc14d7ca37deaf02206913b62405e8144e2710389eb8e7edf7ad198595e71da216d7523ce795cc8750012102c0e61a13a2c1d8fc333694b50aa9858dba2f0ae9107d815d33947b17d86eedc102483045022100a3df54f3a8ee6366150f5b25650d2e550b8c25a1e2e995c1ad906c26e5bf81e802202b6aec9c3f52ce22ff7fbc6cb61b584f00ab700c770f4e347cbdcdb1e67ca0ed012102931d32917a8cd3237485471c2f446cd86da95c70871998976eb77ade53b1e8cb02483045022100be8c07b22811d58b551c9c49231de829704cf5c54183856885110033fef659b002200e23d1ea75f66472a126d04ba0c18d2774139a745a78ce0653e830cc2d387acd0121039b4b51acc6ce472b6c08687955ccbe84231aee1962404fc73133efe814c14dd802473044022036e039f8b8c8442134815504e06490c281532100451bc22f7750dc5c4558f9eb022010e26a91e2cfe40105f45b27782e065dded1a1ef19c7afc4d8f8f0dd97e9abdf0121021eafd97b124f8ca0ef4778abe594089b259e6ec6d31f1843beccb872ab883d640247304402206536147afa4eee29542b7206b776e24722c44751ea26bba573f367ece59efd3f022013a2c28f6514e253bebb53f5d2112f41646f9e9e2cf0a6d781862040ebd61903012102683d985341ba9a0072b24b3cc9be7d070951c793f0f3e93b6e1b10fe25c4ed9f02483045022100d54fa9ada2208e0751eb498b0fa3e9f777e7f9b7c5a2a37025cc9d7689bef05602203ac80a3e190c7e871942f8e27ffd1f7fffae4f0a0b9a9d39e43cae6d61de6e2c0121022609e76303b30b46c258505386ef72bda74dfbf6fdc8be7b6997e664fa660b6402473044022061fac39f2a60a86f5d620f5254aa31289183bd52e2efac83cd9a04d8611d4433022042a63f9df09845852f70c5efc285beb5a01f0969f5a3275d812aba00fb4cd7df012102220e0ca39e3b7a0a3b7c2389df6f7e52940ed3fb67eb993ae9ac75c8b554d1d002483045022100cdd501288e565227e0dcc71e06bd702708857981de2f0611210c1d6f4c7c3a0c02205ea5f5403e469506c830772eaccfd2d6b331a9001525de2d00104406eccc45f9012103bd7b6165fd2ba8315199521b26ff38ab572f78d8e902a4e7fd7f3bde7277ed2402483045022100f94b87aed0adb5b5a4ac201f03e87dd8375250a0f864b81101291ac0a70f49770220438c2aa20ec0bc3342f67531ec319f27ca2ba7cc580a835e8b880511bbd58aa70121025d2cb05b4859662f9b9ad7f2964497b0f377c4c43096a364c3960864e8a4496f02483045022100b79c0375f89fde91b4dacd7a63fffb274dcb941eeecf8da4d2b54075819c28c602203fa70b01a1b2478b0dca99fba5a433acc468b85060265737efedd88f1be50eaf01210388dfcb1c18818dbe6969a9a1f141acd75027c4b07a7a109f77f586e550354375fc480800", "vin": [{"txinwitness": ["3045022100afe830b90f9fae3d439d68245fdf133ad4ac911da9e9f56ef64a5dada1c9efcf02207637cd940b1861ecba4e604763985aab6bbf9e04aa47c57bb65afeeaf0a3ee8201", "02931d32917a8cd3237485471c2f446cd86da95c70871998976eb77ade53b1e8cb"], "sequence": 4294967294, "scriptSig": {"hex": "160014307ac19523f9c6ac135aff11618ff5c1c691804a", "asm": "0014307ac19523f9c6ac135aff11618ff5c1c691804a"}, "vout": 1, "txid": "66117fbb0128945f5d307f52f04cdd02233c4997555e8392b4eb412f4ce9f723"}, {"txinwitness": ["3045022100e43372ffde2b34e134c30309f3c8b2521b44821e71b7ef8116d759f7d9df7065022024d44b6f2830c7055ae6f0e81844c27d3ad3420025e1b2acd95cf13e2a2c22b101", "0245471f681cd3cc4d3eb284348f6f6760cc9c4e3cba2e2afe42d91e4c73d06339"], "sequence": 4294967294, "scriptSig": {"hex": "1600148339664ddcc807adc9a72fe50408f7cea28c6734", "asm": "00148339664ddcc807adc9a72fe50408f7cea28c6734"}, "vout": 9, "txid": "4e0cf7cc3f3212327e8eef6690a961388254eead65b59f339a0c5031f4a0e22e"}, {"txinwitness": ["3045022100cd13c4b6263064824b3802210b28ef95c41aa100be4ac06420166999171077e1022049df274ecac5ec6bb3434289d5aff3d9ed76a860cc2019cc593d3cf867407dda01", "0392553abf5ec9c1f3127b2ff4c7cfe7c6838ddef9345c995b9289704f4b71dab5"], "sequence": 4294967294, "scriptSig": {"hex": "160014d4e43612b9500be318a013aca1b1a6021d3e47e9", "asm": "0014d4e43612b9500be318a013aca1b1a6021d3e47e9"}, "vout": 0, "txid": "cff6d4ddfb4b5a2a31a948228c1406978f5cf9668c1c16c10936eb0106b1db34"}, {"txinwitness": ["3045022100868a7398cf6b1849d3c2358ee083b770c7ffb7ca034266d1503835f69c77620802201d29443600156d48b2d1a4b3f844a78503cd475f4200ebe8d018fd0ade119b8301", "02a5f3d3be47f0b1286ecfb7b06393072ed1d3840dc3e9c962485895dca662a480"], "sequence": 4294967294, "scriptSig": {"hex": "1600147e4ca4955ff59f0ca2aeed9e44fa5fa5df4766bc", "asm": "00147e4ca4955ff59f0ca2aeed9e44fa5fa5df4766bc"}, "vout": 4, "txid": "c3ef650d113e6246b3fb2c2c10442a34d0dd690b37934e6ff23d8b2c84446543"}, {"txinwitness": ["3044022056d696492e2082ea8fb05ab4063a90c0a6d5a26109a93ddfa656772e03de32e302201dae79a94fb7eb6db44bc9731beb071bc29dc1bc338d1e389c2236b8db31f60401", "0280591015f0301cd90829777f223dd64bb4c8536f1578e2bd47b5da941842ce0f"], "sequence": 4294967294, "scriptSig": {"hex": "160014f9f5189d123ca41f3ab29cbab61cfbde6f0b3a83", "asm": "0014f9f5189d123ca41f3ab29cbab61cfbde6f0b3a83"}, "vout": 12, "txid": "3322f21010f05c83e1fca6dadc05797bcdef33b58db88890e347fdafc6a7974a"}, {"txinwitness": ["3045022100ed5513ef2317ec2f12758a24ff4abefb69a6296d37ede5b3d3dc14d7ca37deaf02206913b62405e8144e2710389eb8e7edf7ad198595e71da216d7523ce795cc875001", "02c0e61a13a2c1d8fc333694b50aa9858dba2f0ae9107d815d33947b17d86eedc1"], "sequence": 4294967294, "scriptSig": {"hex": "160014042c7ac85c65355cb08fadef2a225db24febb60c", "asm": "0014042c7ac85c65355cb08fadef2a225db24febb60c"}, "vout": 0, "txid": "47c8511c39a29d18e4ee5b246f840e531798dabe5b51e1e26bb267e60a56b67b"}, {"txinwitness": ["3045022100a3df54f3a8ee6366150f5b25650d2e550b8c25a1e2e995c1ad906c26e5bf81e802202b6aec9c3f52ce22ff7fbc6cb61b584f00ab700c770f4e347cbdcdb1e67ca0ed01", "02931d32917a8cd3237485471c2f446cd86da95c70871998976eb77ade53b1e8cb"], "sequence": 4294967294, "scriptSig": {"hex": "160014307ac19523f9c6ac135aff11618ff5c1c691804a", "asm": "0014307ac19523f9c6ac135aff11618ff5c1c691804a"}, "vout": 12, "txid": "9c4bf6f2982d3f8cf504f9f47bb543d3e1302a0ab07df7ff1c8232b3cc1fe192"}, {"txinwitness": ["3045022100be8c07b22811d58b551c9c49231de829704cf5c54183856885110033fef659b002200e23d1ea75f66472a126d04ba0c18d2774139a745a78ce0653e830cc2d387acd01", "039b4b51acc6ce472b6c08687955ccbe84231aee1962404fc73133efe814c14dd8"], "sequence": 4294967294, "scriptSig": {"hex": "16001405c4656c7667254d279ef44083bb44e8dd4093c3", "asm": "001405c4656c7667254d279ef44083bb44e8dd4093c3"}, "vout": 1, "txid": "75c7e63651151aa49c39f81454f69aa3a0d133e06a4d6ac9d94f8087f279489f"}, {"txinwitness": ["3044022036e039f8b8c8442134815504e06490c281532100451bc22f7750dc5c4558f9eb022010e26a91e2cfe40105f45b27782e065dded1a1ef19c7afc4d8f8f0dd97e9abdf01", "021eafd97b124f8ca0ef4778abe594089b259e6ec6d31f1843beccb872ab883d64"], "sequence": 4294967294, "scriptSig": {"hex": "1600141a1944fea7da761dbbff4437a1dafbd30cacbcd4", "asm": "00141a1944fea7da761dbbff4437a1dafbd30cacbcd4"}, "vout": 0, "txid": "f6c24b6a49866e02e901215d1a4d64180784b6b777d16ab201de9692568ef4aa"}, {"txinwitness": ["304402206536147afa4eee29542b7206b776e24722c44751ea26bba573f367ece59efd3f022013a2c28f6514e253bebb53f5d2112f41646f9e9e2cf0a6d781862040ebd6190301", "02683d985341ba9a0072b24b3cc9be7d070951c793f0f3e93b6e1b10fe25c4ed9f"], "sequence": 4294967294, "scriptSig": {"hex": "16001407d8c4dd24cf585fd2d6fa8adc5ac7bb28f3a66c", "asm": "001407d8c4dd24cf585fd2d6fa8adc5ac7bb28f3a66c"}, "vout": 4, "txid": "4f2d734c4a4fbb24a025cd4c39d7ac9d8aa0d68dcc30a805b495cf16f79aa3ad"}, {"txinwitness": ["3045022100d54fa9ada2208e0751eb498b0fa3e9f777e7f9b7c5a2a37025cc9d7689bef05602203ac80a3e190c7e871942f8e27ffd1f7fffae4f0a0b9a9d39e43cae6d61de6e2c01", "022609e76303b30b46c258505386ef72bda74dfbf6fdc8be7b6997e664fa660b64"], "sequence": 4294967294, "scriptSig": {"hex": "160014758593aedcce1896f24864cc59d572a31008543f", "asm": "0014758593aedcce1896f24864cc59d572a31008543f"}, "vout": 2, "txid": "9c8e2871d0d893aa2c7428e32fa93aef414fe8518d5672ffa937f6d5646f15c0"}, {"txinwitness": ["3044022061fac39f2a60a86f5d620f5254aa31289183bd52e2efac83cd9a04d8611d4433022042a63f9df09845852f70c5efc285beb5a01f0969f5a3275d812aba00fb4cd7df01", "02220e0ca39e3b7a0a3b7c2389df6f7e52940ed3fb67eb993ae9ac75c8b554d1d0"], "sequence": 4294967294, "scriptSig": {"hex": "16001478250571a475773d993e3dec7d0fe7dc77eae471", "asm": "001478250571a475773d993e3dec7d0fe7dc77eae471"}, "vout": 7, "txid": "89303674104ac42574e4312afb0ffe8847b09bb604b1f5e74d053e42b3a757c1"}, {"txinwitness": ["3045022100cdd501288e565227e0dcc71e06bd702708857981de2f0611210c1d6f4c7c3a0c02205ea5f5403e469506c830772eaccfd2d6b331a9001525de2d00104406eccc45f901", "03bd7b6165fd2ba8315199521b26ff38ab572f78d8e902a4e7fd7f3bde7277ed24"], "sequence": 4294967294, "scriptSig": {"hex": "160014ccc2ef5b02721271bf2b2d64f41aac3178174702", "asm": "0014ccc2ef5b02721271bf2b2d64f41aac3178174702"}, "vout": 14, "txid": "89303674104ac42574e4312afb0ffe8847b09bb604b1f5e74d053e42b3a757c1"}, {"txinwitness": ["3045022100f94b87aed0adb5b5a4ac201f03e87dd8375250a0f864b81101291ac0a70f49770220438c2aa20ec0bc3342f67531ec319f27ca2ba7cc580a835e8b880511bbd58aa701", "025d2cb05b4859662f9b9ad7f2964497b0f377c4c43096a364c3960864e8a4496f"], "sequence": 4294967294, "scriptSig": {"hex": "160014c6ff1e85067c192670ff6d61ae5783d19c7cf75c", "asm": "0014c6ff1e85067c192670ff6d61ae5783d19c7cf75c"}, "vout": 0, "txid": "5c7e29b9ac3d1ef1b23c4b8fc771f528bfc1d383b023516927f2907afc385bc6"}, {"txinwitness": ["3045022100b79c0375f89fde91b4dacd7a63fffb274dcb941eeecf8da4d2b54075819c28c602203fa70b01a1b2478b0dca99fba5a433acc468b85060265737efedd88f1be50eaf01", "0388dfcb1c18818dbe6969a9a1f141acd75027c4b07a7a109f77f586e550354375"], "sequence": 4294967294, "scriptSig": {"hex": "160014dcebef418358045124e2a0328ec1f4a170762480", "asm": "0014dcebef418358045124e2a0328ec1f4a170762480"}, "vout": 0, "txid": "87ec4cd64c1a12f73c085446bc8c34644d6a14c0fe6cb352b50e788a035885e2"}], "txid": "6b34298a1ff230d42bf3377bbcb7f3b26bc810036ae7b4ed21e078baf31ac526", "blocktime": 1537871767, "version": 2, "confirmations": 11491, "time": 1537871767, "locktime": 542972, "vsize": 1441, "size": 2654}