{"hash": "6b352dce6c92f62aab7da49682c2fc35212f9a140d2e36559608130c3427939f", "blockhash": "00000000000000000018f53835495a110e01622372bf6ae95dc86f2b0ab887b0", "vout": [{"scriptPubKey": {"reqSigs": 1, "hex": "a9148edfd07c5b4b4d445ae424973c3bc065f36f271187", "addresses": ["3EiTzgRvaKukxNfxPeLVseiw5fp2fG3ZJo"], "asm": "OP_HASH160 8edfd07c5b4b4d445ae424973c3bc065f36f2711 OP_EQUAL", "type": "scripthash"}, "value": 0.002663, "n": 0}], "hex": "01000000026d9016ea2a72cb40b4321bd4b4cc61f3193161714e98b1d9f750e45ca5688c3f230000006a473044022015a9cbae1a259b17b9885d9b837ed094bc6e3d077fc88b95dfc73165c0af8ccb022028de44a43741ee6d9553c02e27f2d7d079e2867ee47cc9a5081311632a16f58a012102b609f8a01e0856c71c1e7bfcc9b94e78a9735f9a51213ae43b085058f0910714fdffffff6a782c37d5621511882b27ef90fc59416a30231504b6bebdefce3d9a7caeb2ed1a0000006a47304402200aa1ffb01269f910b87cdc78ec92e7ee977c63c2cef1ba55acb7d457a63e66ce02200c41bfe859f400360af63f8ddd0a8c80ef87bfb713d4fee32b8757c42afa917b012102b609f8a01e0856c71c1e7bfcc9b94e78a9735f9a51213ae43b085058f0910714fdffffff013c1004000000000017a9148edfd07c5b4b4d445ae424973c3bc065f36f2711870e490800", "vin": [{"sequence": 4294967293, "scriptSig": {"hex": "473044022015a9cbae1a259b17b9885d9b837ed094bc6e3d077fc88b95dfc73165c0af8ccb022028de44a43741ee6d9553c02e27f2d7d079e2867ee47cc9a5081311632a16f58a012102b609f8a01e0856c71c1e7bfcc9b94e78a9735f9a51213ae43b085058f0910714", "asm": "3044022015a9cbae1a259b17b9885d9b837ed094bc6e3d077fc88b95dfc73165c0af8ccb022028de44a43741ee6d9553c02e27f2d7d079e2867ee47cc9a5081311632a16f58a[ALL] 02b609f8a01e0856c71c1e7bfcc9b94e78a9735f9a51213ae43b085058f0910714"}, "vout": 35, "txid": "3f8c68a55ce450f7d9b1984e71613119f361ccb4d41b32b440cb722aea16906d"}, {"sequence": 4294967293, "scriptSig": {"hex": "47304402200aa1ffb01269f910b87cdc78ec92e7ee977c63c2cef1ba55acb7d457a63e66ce02200c41bfe859f400360af63f8ddd0a8c80ef87bfb713d4fee32b8757c42afa917b012102b609f8a01e0856c71c1e7bfcc9b94e78a9735f9a51213ae43b085058f0910714", "asm": "304402200aa1ffb01269f910b87cdc78ec92e7ee977c63c2cef1ba55acb7d457a63e66ce02200c41bfe859f400360af63f8ddd0a8c80ef87bfb713d4fee32b8757c42afa917b[ALL] 02b609f8a01e0856c71c1e7bfcc9b94e78a9735f9a51213ae43b085058f0910714"}, "vout": 26, "txid": "edb2ae7c9a3dceefbdbeb6041523306a4159fc90ef272b88111562d5372c786a"}], "txid": "6b352dce6c92f62aab7da49682c2fc35212f9a140d2e36559608130c3427939f", "blocktime": 1537870928, "version": 1, "confirmations": 11512, "time": 1537870928, "locktime": 542990, "vsize": 336, "size": 336}