{"hash": "1dddfa8fa56143da8ddbf418a211587aaf7b73257c0b8aee83f6ba5d66173af3", "blockhash": "0000000000000000000baef3f32e3676a92c3b2e5da21b426e4f302fc371ce76", "vout": [{"scriptPubKey": {"reqSigs": 1, "hex": "a91489f9622575b6c21eddd5f900b9fc601b3c254d9d87", "addresses": ["3EGZFHXkL9vCpMbrG5fCKtZjX4vE9cj89s"], "asm": "OP_HASH160 89f9622575b6c21eddd5f900b9fc601b3c254d9d OP_EQUAL", "type": "scripthash"}, "value": 0.01792775, "n": 0}, {"scriptPubKey": {"reqSigs": 1, "hex": "a9149fc5a078184843fb9649630e103f120d8a9b702587", "addresses": ["3GFp7Q2avuFjmLBTkUxigFk6QSjxVgdubA"], "asm": "OP_HASH160 9fc5a078184843fb9649630e103f120d8a9b7025 OP_EQUAL", "type": "scripthash"}, "value": 0.83636954, "n": 1}], "hex": "02000000000101e0450df9652dbccd26f8c4fa7a45c4cc109313e9da4b8e5edbbe54667885daaf0100000017160014e90acd9c809b85626f4e1e1faccdd15fae54236dffffffff02075b1b000000000017a91489f9622575b6c21eddd5f900b9fc601b3c254d9d87da32fc040000000017a9149fc5a078184843fb9649630e103f120d8a9b7025870247304402207e7f330816d1f49eec35b947281b6d0cc30e2cda37d1d28e46d88fc617876f55022002a0e0cd7c45e58e5921009c8531e1b88d9b30bdd3cfd82199d685ae30f1b8b201210250224884d324abf700737d1e1130145b54a920b7bfb6332b643f4b90bfc853ea00000000", "vin": [{"txinwitness": ["304402207e7f330816d1f49eec35b947281b6d0cc30e2cda37d1d28e46d88fc617876f55022002a0e0cd7c45e58e5921009c8531e1b88d9b30bdd3cfd82199d685ae30f1b8b201", "0250224884d324abf700737d1e1130145b54a920b7bfb6332b643f4b90bfc853ea"], "sequence": 4294967295, "scriptSig": {"hex": "160014e90acd9c809b85626f4e1e1faccdd15fae54236d", "asm": "0014e90acd9c809b85626f4e1e1faccdd15fae54236d"}, "vout": 1, "txid": "afda85786654bedb5e8e4bdae9139310ccc4457afac4f826cdbc2d65f90d45e0"}], "txid": "6b3991d80605c2ca5ac96f049f2a35ec7dafc035dd7706aced8a16fd7a8f41fd", "blocktime": 1537876114, "version": 2, "confirmations": 11460, "time": 1537876114, "locktime": 0, "vsize": 166, "size": 247}