{"hash": "e8e45d7da6f69437a183168fb6aa7938f95662ffc2b72329f314784102ba09a6", "blockhash": "000000000000000000022b45ed06c6f4ccd3cf7fb5ba4856ebd2e58215665228", "vout": [{"scriptPubKey": {"reqSigs": 1, "hex": "0014512e108709941a7e7428ed71ce90a68b05b4accc", "addresses": ["bc1q2yhpppcfjsd8uapga4cuay9x3vzmftxvjdhryd"], "asm": "0 512e108709941a7e7428ed71ce90a68b05b4accc", "type": "witness_v0_keyhash"}, "value": 0.1330957, "n": 0}, {"scriptPubKey": {"reqSigs": 1, "hex": "76a9143cf81723da5ab272a6c2bc68eda9286da403e63688ac", "addresses": ["16ZNk8gK28yZuU4fT5wdDQSbLiVu4JBQD5"], "asm": "OP_DUP OP_HASH160 3cf81723da5ab272a6c2bc68eda9286da403e636 OP_EQUALVERIFY OP_CHECKSIG", "type": "pubkeyhash"}, "value": 2.0, "n": 1}], "hex": "01000000000101f390a01711bfd6b99f45634f08681451358f081f1724b1759857562e25615a730000000000ffffffff028216cb0000000000160014512e108709941a7e7428ed71ce90a68b05b4accc00c2eb0b000000001976a9143cf81723da5ab272a6c2bc68eda9286da403e63688ac0248304502210096fb9956a3719b13ed118e76cd2a43e282ba924cbc1b832913b21f8b1a492eea02203d3937d7960cb736732ec63ccf48faa9ede5489ac44210ad92f027c8065ba971012103bed76a61cbbf611fcef47b3b2f7f6e515c4def0ff7b29b6b4f2c3d1cbc8ce5a200000000", "vin": [{"txinwitness": ["304502210096fb9956a3719b13ed118e76cd2a43e282ba924cbc1b832913b21f8b1a492eea02203d3937d7960cb736732ec63ccf48faa9ede5489ac44210ad92f027c8065ba97101", "03bed76a61cbbf611fcef47b3b2f7f6e515c4def0ff7b29b6b4f2c3d1cbc8ce5a2"], "sequence": 4294967295, "scriptSig": {"hex": "", "asm": ""}, "vout": 0, "txid": "735a61252e56579875b124171f088f35511468084f63459fb9d6bf1117a090f3"}], "txid": "6b3e64bbe9711bfc917ca868da5ab661dcfff72a7d8a1004255e3156e89f6c80", "blocktime": 1537869901, "version": 1, "confirmations": 11523, "time": 1537869901, "locktime": 0, "vsize": 144, "size": 226}