{"hash": "6b4135002c7968d19777316563b0475f69dac4641d109590e70c61974537f286", "blockhash": "0000000000000000000e13cef7c366c0283d82e591d1acd082e914b08063cdf1", "vout": [{"scriptPubKey": {"reqSigs": 1, "hex": "76a914d929d2c3bda8d3f00d8ee1431e36dd4d9990c10788ac", "addresses": ["1LoFjZY8fvcRBG6BZioH13ZFyrN8XGHiH6"], "asm": "OP_DUP OP_HASH160 d929d2c3bda8d3f00d8ee1431e36dd4d9990c107 OP_EQUALVERIFY OP_CHECKSIG", "type": "pubkeyhash"}, "value": 0.24867, "n": 0}, {"scriptPubKey": {"reqSigs": 1, "hex": "76a91479cb28b67949abfd0f9c2345c4967257a5e20f3a88ac", "addresses": ["1C6z8x2GHHfWFNvNBZKVfHZb26FovoMm2e"], "asm": "OP_DUP OP_HASH160 79cb28b67949abfd0f9c2345c4967257a5e20f3a OP_EQUALVERIFY OP_CHECKSIG", "type": "pubkeyhash"}, "value": 0.5974, "n": 1}], "hex": "0100000002bfbb43f7f936b99c7123ba87e6e9f3527c5ac7c46a22ca4170108af9fdf1a25b000000006b483045022100b9ee99e4cdfcd80ad5befa372002154ba7cfd8da7209e39878df5db72639e27202206bbc725ea5b0d3f57f6d62e0ef94689a59e6228f7564b8cd5c95fea26b087f7901210387d9dba9c0ddfc552a9963ef47adf8e0682a419e6426dd01634b9b74391684eaffffffffe024d6e19c79e7ef725b631634f7146ced89437112d71696ab4825a06fcac0aa000000006b483045022100e44b3804768817662da92ba8cc8ce580b6d51c0d24d23e11af759d442c50a360022045bb4cf18c72998c2cc8f458235d64b5bfdf72e28cb2253a491e5c13a353377f0121036f098dc68a1288723843b69bc2351cbe5112e4f8623bc900a0a23f1d18ca42f3ffffffff02b8707b01000000001976a914d929d2c3bda8d3f00d8ee1431e36dd4d9990c10788ac608f8f03000000001976a91479cb28b67949abfd0f9c2345c4967257a5e20f3a88ac00000000", "vin": [{"sequence": 4294967295, "scriptSig": {"hex": "483045022100b9ee99e4cdfcd80ad5befa372002154ba7cfd8da7209e39878df5db72639e27202206bbc725ea5b0d3f57f6d62e0ef94689a59e6228f7564b8cd5c95fea26b087f7901210387d9dba9c0ddfc552a9963ef47adf8e0682a419e6426dd01634b9b74391684ea", "asm": "3045022100b9ee99e4cdfcd80ad5befa372002154ba7cfd8da7209e39878df5db72639e27202206bbc725ea5b0d3f57f6d62e0ef94689a59e6228f7564b8cd5c95fea26b087f79[ALL] 0387d9dba9c0ddfc552a9963ef47adf8e0682a419e6426dd01634b9b74391684ea"}, "vout": 0, "txid": "5ba2f1fdf98a107041ca226ac4c75a7c52f3e9e687ba23719cb936f9f743bbbf"}, {"sequence": 4294967295, "scriptSig": {"hex": "483045022100e44b3804768817662da92ba8cc8ce580b6d51c0d24d23e11af759d442c50a360022045bb4cf18c72998c2cc8f458235d64b5bfdf72e28cb2253a491e5c13a353377f0121036f098dc68a1288723843b69bc2351cbe5112e4f8623bc900a0a23f1d18ca42f3", "asm": "3045022100e44b3804768817662da92ba8cc8ce580b6d51c0d24d23e11af759d442c50a360022045bb4cf18c72998c2cc8f458235d64b5bfdf72e28cb2253a491e5c13a353377f[ALL] 036f098dc68a1288723843b69bc2351cbe5112e4f8623bc900a0a23f1d18ca42f3"}, "vout": 0, "txid": "aac0ca6fa02548ab9616d712714389ed6c14f73416635b72efe7799ce1d624e0"}], "txid": "6b4135002c7968d19777316563b0475f69dac4641d109590e70c61974537f286", "blocktime": 1537871767, "version": 1, "confirmations": 11491, "time": 1537871767, "locktime": 0, "vsize": 374, "size": 374}