{"hash": "84d4b3922ffd376cde12380a698c904949df22e4e801ae552e5edde923c6be26", "blockhash": "0000000000000000001f76057863aec43deb6fa401d9628bb513d65a8098bfab", "vout": [{"scriptPubKey": {"reqSigs": 1, "hex": "a91469f3749cd26075c4818f18e1994ec618ccaad8b287", "addresses": ["3BMEXGisBbgH3sLr1LNzKXrAVKuoViRpEz"], "asm": "OP_HASH160 69f3749cd26075c4818f18e1994ec618ccaad8b2 OP_EQUAL", "type": "scripthash"}, "value": 0.009053, "n": 0}, {"scriptPubKey": {"reqSigs": 1, "hex": "a914f62bd21d4a6e8762420fa2991074807b49cee16987", "addresses": ["3Q8eeTGmgrQfW7pesuxqhwLUF8uxZYjNAE"], "asm": "OP_HASH160 f62bd21d4a6e8762420fa2991074807b49cee169 OP_EQUAL", "type": "scripthash"}, "value": 0.001818, "n": 1}], "hex": "02000000000101e2cf9a0475a0fe360123ce3e43bd003a9f921f01f038bfbc24ad20f308dca61b010000001716001429f265d7cc5e78b23e9a087c06d128ab56d9cafbfdffffff0254d00d000000000017a91469f3749cd26075c4818f18e1994ec618ccaad8b28728c602000000000017a914f62bd21d4a6e8762420fa2991074807b49cee169870248304502210097e4914b2b6fd3dd5505ae149c3f7ce0ec7aa2f8847b72d279f20ddcc81e6698022023d10d7077806872abfc529943ef382d24642b4dba73444376a265ef921cb3bd0121032a6cf848d2081c460403433d0d2eaf8cea73074f227993d8d9bc899a8c033d4c14490800", "vin": [{"txinwitness": ["304502210097e4914b2b6fd3dd5505ae149c3f7ce0ec7aa2f8847b72d279f20ddcc81e6698022023d10d7077806872abfc529943ef382d24642b4dba73444376a265ef921cb3bd01", "032a6cf848d2081c460403433d0d2eaf8cea73074f227993d8d9bc899a8c033d4c"], "sequence": 4294967293, "scriptSig": {"hex": "16001429f265d7cc5e78b23e9a087c06d128ab56d9cafb", "asm": "001429f265d7cc5e78b23e9a087c06d128ab56d9cafb"}, "vout": 1, "txid": "1ba6dc08f320ad24bcbf38f0011f929f3a00bd433ece230136fea075049acfe2"}], "txid": "6b4136305904c370f284b4b9f17bbebce71e9837125e16e90ea486f69df31b9a", "blocktime": 1537873891, "version": 2, "confirmations": 11474, "time": 1537873891, "locktime": 542996, "vsize": 166, "size": 248}