{"hash": "6b4157343d0f49ac232f35ed23750bfec646b430fcb83101bc2171c582b1e080", "blockhash": "0000000000000000000baef3f32e3676a92c3b2e5da21b426e4f302fc371ce76", "vout": [{"scriptPubKey": {"reqSigs": 1, "hex": "76a914dfb74bcc7eedbc5aa916877656a9f2af8e01a2cc88ac", "addresses": ["1MPuGQzmpGbPyYr8Yr8GHX2TqV8h84AJ7e"], "asm": "OP_DUP OP_HASH160 dfb74bcc7eedbc5aa916877656a9f2af8e01a2cc OP_EQUALVERIFY OP_CHECKSIG", "type": "pubkeyhash"}, "value": 0.00993644, "n": 0}], "hex": "0100000001afc47a35122b53969d3b3b9b956866e74341db0450454bf5926c08485e4af926420000006a47304402200ffd5c02467948c66691dab07f7cb93284305e848b30f5660e47b02048b962f90220757cd68728c23d1ab94fd9fe1a5f3437026903c358cda0a3ba1bace7b8395d69012102690e07bcdf5dcb7d0bcc2298dca6a019dd29c3eae5da17e06acce156ca9c2f1bffffffff016c290f00000000001976a914dfb74bcc7eedbc5aa916877656a9f2af8e01a2cc88ac00000000", "vin": [{"sequence": 4294967295, "scriptSig": {"hex": "47304402200ffd5c02467948c66691dab07f7cb93284305e848b30f5660e47b02048b962f90220757cd68728c23d1ab94fd9fe1a5f3437026903c358cda0a3ba1bace7b8395d69012102690e07bcdf5dcb7d0bcc2298dca6a019dd29c3eae5da17e06acce156ca9c2f1b", "asm": "304402200ffd5c02467948c66691dab07f7cb93284305e848b30f5660e47b02048b962f90220757cd68728c23d1ab94fd9fe1a5f3437026903c358cda0a3ba1bace7b8395d69[ALL] 02690e07bcdf5dcb7d0bcc2298dca6a019dd29c3eae5da17e06acce156ca9c2f1b"}, "vout": 66, "txid": "26f94a5e48086c92f54b455004db4143e76668959b3b3b9d96532b12357ac4af"}], "txid": "6b4157343d0f49ac232f35ed23750bfec646b430fcb83101bc2171c582b1e080", "blocktime": 1537876114, "version": 1, "confirmations": 11459, "time": 1537876114, "locktime": 0, "vsize": 191, "size": 191}