{"hash": "b5633356cb45cff139176a174f06221edbf9428f4948605f5e93043837adc227", "blockhash": "0000000000000000000e13cef7c366c0283d82e591d1acd082e914b08063cdf1", "vout": [{"scriptPubKey": {"reqSigs": 1, "hex": "a914edf606539a72575d71b71a97db3674d17927f4d487", "addresses": ["3PPEo71AmbTH3tu1AMWTTNk7aoij8sxTcq"], "asm": "OP_HASH160 edf606539a72575d71b71a97db3674d17927f4d4 OP_EQUAL", "type": "scripthash"}, "value": 0.01123898, "n": 0}, {"scriptPubKey": {"reqSigs": 1, "hex": "76a9140a3195c50a139c1268b517078c4818eb7c3cee7288ac", "addresses": ["1vuA9XxA95fff3zonS6wemPTWBvQ16vN9"], "asm": "OP_DUP OP_HASH160 0a3195c50a139c1268b517078c4818eb7c3cee72 OP_EQUALVERIFY OP_CHECKSIG", "type": "pubkeyhash"}, "value": 0.00260239, "n": 1}], "hex": "0200000000010286a9264b47055b215867d2ad23abb06a8152673748349413b2cd08393d9b547e1e00000017160014073a676f2bec57e33a13dd818c7ee1ae53364ea4feffffffa2f5a82fe9a8068cedf91c9b7bd09f14acf4087623b505e7fcf8065b9246daa712000000171600143c6f38de61105b502ec20a650249b5a4c79069a9feffffff023a2611000000000017a914edf606539a72575d71b71a97db3674d17927f4d4878ff80300000000001976a9140a3195c50a139c1268b517078c4818eb7c3cee7288ac02483045022100f120dfd2fecfb0ab3d1deec887192ff5b90e8d87ddb43279be399963e64505630220749356e12836134c6b2815c4140761625fad36d5bb47654969964a9e974bba5701210277fc72d28bc409d3b5143f1206fa313a31aa707c4113302d285377297df3e2030247304402204cce3cdb55a9e39f9031962a086134b382826ded63a7b45f25598dff40d480da022039aa23855ac971549611265d1376de13e871ca449c3062a69e93b7c0cf9580cd012103641a20c334d595205d714e90d0a7bb59f062613f13b176c81c2befde1471c7ae05490800", "vin": [{"txinwitness": ["3045022100f120dfd2fecfb0ab3d1deec887192ff5b90e8d87ddb43279be399963e64505630220749356e12836134c6b2815c4140761625fad36d5bb47654969964a9e974bba5701", "0277fc72d28bc409d3b5143f1206fa313a31aa707c4113302d285377297df3e203"], "sequence": 4294967294, "scriptSig": {"hex": "160014073a676f2bec57e33a13dd818c7ee1ae53364ea4", "asm": "0014073a676f2bec57e33a13dd818c7ee1ae53364ea4"}, "vout": 30, "txid": "7e549b3d3908cdb213943448376752816ab0ab23add26758215b05474b26a986"}, {"txinwitness": ["304402204cce3cdb55a9e39f9031962a086134b382826ded63a7b45f25598dff40d480da022039aa23855ac971549611265d1376de13e871ca449c3062a69e93b7c0cf9580cd01", "03641a20c334d595205d714e90d0a7bb59f062613f13b176c81c2befde1471c7ae"], "sequence": 4294967294, "scriptSig": {"hex": "1600143c6f38de61105b502ec20a650249b5a4c79069a9", "asm": "00143c6f38de61105b502ec20a650249b5a4c79069a9"}, "vout": 18, "txid": "a7da46925b06f8fce705b5237608f4ac149fd07b9b1cf9ed8c06a8e92fa8f5a2"}], "txid": "6b44de058523303d8441055c6c72c3e5d027433729b3ef23be7bbd567948e5e4", "blocktime": 1537871767, "version": 2, "confirmations": 11495, "time": 1537871767, "locktime": 542981, "vsize": 259, "size": 421}