{"hash": "6b442de09cde313a6bbaa6546dbd2a7034dff0eddc70336a8e4fd44a234a28f5", "blockhash": "0000000000000000000e13cef7c366c0283d82e591d1acd082e914b08063cdf1", "vout": [{"scriptPubKey": {"type": "nulldata", "hex": "6a146f6d6e69000000000000001f000060680c58a000", "asm": "OP_RETURN 6f6d6e69000000000000001f000060680c58a000"}, "value": 0.0, "n": 0}, {"scriptPubKey": {"reqSigs": 1, "hex": "76a914a25dec4d0011064ef106a983c39c7a540699f22088ac", "addresses": ["1FoWyxwPXuj4C6abqwhjDWdz6D4PZgYRjA"], "asm": "OP_DUP OP_HASH160 a25dec4d0011064ef106a983c39c7a540699f220 OP_EQUALVERIFY OP_CHECKSIG", "type": "pubkeyhash"}, "value": 5.46e-06, "n": 1}, {"scriptPubKey": {"reqSigs": 1, "hex": "76a9146ec899c0bbdb7921092346e047a8cf4e4874ad6d88ac", "addresses": ["1B6me5MvLP7Mu1yYXB8mbEVtsRsQkeYr6X"], "asm": "OP_DUP OP_HASH160 6ec899c0bbdb7921092346e047a8cf4e4874ad6d OP_EQUALVERIFY OP_CHECKSIG", "type": "pubkeyhash"}, "value": 0.00206921, "n": 2}], "hex": "010000000172ebc0fb7f0176c29e955623b0f49620e63d02a87bd25593004262db68ec1e6d010000006a473044022023c634446edb42e322ce9884c455dc39a7156c92ea8ac03cd0d374ab8b8a06ad02202ae7b92bf898c0aaf5e9e3cbdd896290ce7ab72862ef3e169ce1e7c1638391d001210384490bbaad5393ddf7e613ecca8d813315b414261596ee151afdec343514c043feffffff030000000000000000166a146f6d6e69000000000000001f000060680c58a00022020000000000001976a914a25dec4d0011064ef106a983c39c7a540699f22088ac49280300000000001976a9146ec899c0bbdb7921092346e047a8cf4e4874ad6d88ac10490800", "vin": [{"sequence": 4294967294, "scriptSig": {"hex": "473044022023c634446edb42e322ce9884c455dc39a7156c92ea8ac03cd0d374ab8b8a06ad02202ae7b92bf898c0aaf5e9e3cbdd896290ce7ab72862ef3e169ce1e7c1638391d001210384490bbaad5393ddf7e613ecca8d813315b414261596ee151afdec343514c043", "asm": "3044022023c634446edb42e322ce9884c455dc39a7156c92ea8ac03cd0d374ab8b8a06ad02202ae7b92bf898c0aaf5e9e3cbdd896290ce7ab72862ef3e169ce1e7c1638391d0[ALL] 0384490bbaad5393ddf7e613ecca8d813315b414261596ee151afdec343514c043"}, "vout": 1, "txid": "6d1eec68db6242009355d27ba8023de62096f4b02356959ec276017ffbc0eb72"}], "txid": "6b442de09cde313a6bbaa6546dbd2a7034dff0eddc70336a8e4fd44a234a28f5", "blocktime": 1537871767, "version": 1, "confirmations": 11495, "time": 1537871767, "locktime": 542992, "vsize": 256, "size": 256}