{"hash": "6b45ffd1c6a83e84ceeec4f9e61808b0a56addaf52645c1bd5edcc8ecff9361c", "blockhash": "0000000000000000001f76057863aec43deb6fa401d9628bb513d65a8098bfab", "vout": [{"scriptPubKey": {"reqSigs": 1, "hex": "76a914664cb50fcc46adb18f711c28ffebd921333e054788ac", "addresses": ["1AKupHKhD1FDa4Rci4o5jkqCUTa1ofuctZ"], "asm": "OP_DUP OP_HASH160 664cb50fcc46adb18f711c28ffebd921333e0547 OP_EQUALVERIFY OP_CHECKSIG", "type": "pubkeyhash"}, "value": 1.314e-05, "n": 0}, {"scriptPubKey": {"reqSigs": 1, "hex": "a914c74bdb45f3684938c07da1569161717f01fe268887", "addresses": ["3KroGKfGPjgxbQpW4hzTYGPDtoizyTPVAr"], "asm": "OP_HASH160 c74bdb45f3684938c07da1569161717f01fe2688 OP_EQUAL", "type": "scripthash"}, "value": 0.03491505, "n": 1}], "hex": "01000000024702e0d3c56ffc9ec412a1f377c3ce4009d3a032a2929c4cd2d0aabfcf6af51e010000006a4730440220632ae238c31a7ee23c890131ccdbc4404f9b62fd77b4985ce609ea5c01ee6ee4022064af26d5aa3fa2f76171cdc1b117fdf26de0323674ca433225fe0239c1b5235801210258c29a13a79b2e737ee15fd71a7548747b6a9ed1c937d2881a29ec78d642526affffffffd8a4bce2a4f7fa38bb7ed96a78d3281824f9eca081033f1798213bbbd34257c5000000006a47304402202bf14ea6f31ba415b9e0bbba21ef5b42b2da92c2e8d9e584cd0a83518ed6057c022043fb34b8acfbe59e407b4f1f1eabe7250885d89c677b4d8dc3f71436c06296ac012103907c4fee30e6327b4a04efb9555504788da59c2e2a0d404a2c6a496629f29704ffffffff0222050000000000001976a914664cb50fcc46adb18f711c28ffebd921333e054788acb14635000000000017a914c74bdb45f3684938c07da1569161717f01fe26888700000000", "vin": [{"sequence": 4294967295, "scriptSig": {"hex": "4730440220632ae238c31a7ee23c890131ccdbc4404f9b62fd77b4985ce609ea5c01ee6ee4022064af26d5aa3fa2f76171cdc1b117fdf26de0323674ca433225fe0239c1b5235801210258c29a13a79b2e737ee15fd71a7548747b6a9ed1c937d2881a29ec78d642526a", "asm": "30440220632ae238c31a7ee23c890131ccdbc4404f9b62fd77b4985ce609ea5c01ee6ee4022064af26d5aa3fa2f76171cdc1b117fdf26de0323674ca433225fe0239c1b52358[ALL] 0258c29a13a79b2e737ee15fd71a7548747b6a9ed1c937d2881a29ec78d642526a"}, "vout": 1, "txid": "1ef56acfbfaad0d24c9c92a232a0d30940cec377f3a112c49efc6fc5d3e00247"}, {"sequence": 4294967295, "scriptSig": {"hex": "47304402202bf14ea6f31ba415b9e0bbba21ef5b42b2da92c2e8d9e584cd0a83518ed6057c022043fb34b8acfbe59e407b4f1f1eabe7250885d89c677b4d8dc3f71436c06296ac012103907c4fee30e6327b4a04efb9555504788da59c2e2a0d404a2c6a496629f29704", "asm": "304402202bf14ea6f31ba415b9e0bbba21ef5b42b2da92c2e8d9e584cd0a83518ed6057c022043fb34b8acfbe59e407b4f1f1eabe7250885d89c677b4d8dc3f71436c06296ac[ALL] 03907c4fee30e6327b4a04efb9555504788da59c2e2a0d404a2c6a496629f29704"}, "vout": 0, "txid": "c55742d3bb3b2198173f0381a0ecf9241828d3786ad97ebb38faf7a4e2bca4d8"}], "txid": "6b45ffd1c6a83e84ceeec4f9e61808b0a56addaf52645c1bd5edcc8ecff9361c", "blocktime": 1537873891, "version": 1, "confirmations": 11478, "time": 1537873891, "locktime": 0, "vsize": 370, "size": 370}