{"hash": "6b4937deaefd83ce91b3bfa707177c16b6d0fd56a1b6bfadd1043a5cee3baa0f", "blockhash": "0000000000000000001f76057863aec43deb6fa401d9628bb513d65a8098bfab", "vout": [{"scriptPubKey": {"reqSigs": 1, "hex": "a914f4d549fcb1f802cfc83b5a2b1bde91e0d0d7c47a87", "addresses": ["3Q1aJvwG9CcZNtZ1VcumpFH5mNJ2f7niLs"], "asm": "OP_HASH160 f4d549fcb1f802cfc83b5a2b1bde91e0d0d7c47a OP_EQUAL", "type": "scripthash"}, "value": 0.00643697, "n": 0}], "hex": "0100000002e792e9089ca2ec3388d6526b400b4d515b9d07141bddd5a3aba35dbd471c1c6d1d0000006b4830450221009761052442d5c6a7b6a5c143b8d61c2d3c7abf711622ed450cceb5de29de2c98022023286a359f60e41dd384b1172106d9638ecfe7a9bf160d1740e1858d5378872c0121022612a597a7f21ce9598d90612c2d7c80ef050598e423440f05c2b69375c8fc83fdfffffff1cbbd3f034939441cf43be42a71cb6ac7265625cb58d58c6b39e801358f1fe3220000006b4830450221009af755d07149ca2947d10f6cc0d330c1ba9648ec9105aa6a60c324910b22836402206041f3e61fbfe5565107ba9e524eab3574b1fb1f99121e2c3b38783c1a9aa19a0121022612a597a7f21ce9598d90612c2d7c80ef050598e423440f05c2b69375c8fc83fdffffff0171d209000000000017a914f4d549fcb1f802cfc83b5a2b1bde91e0d0d7c47a8714490800", "vin": [{"sequence": 4294967293, "scriptSig": {"hex": "4830450221009761052442d5c6a7b6a5c143b8d61c2d3c7abf711622ed450cceb5de29de2c98022023286a359f60e41dd384b1172106d9638ecfe7a9bf160d1740e1858d5378872c0121022612a597a7f21ce9598d90612c2d7c80ef050598e423440f05c2b69375c8fc83", "asm": "30450221009761052442d5c6a7b6a5c143b8d61c2d3c7abf711622ed450cceb5de29de2c98022023286a359f60e41dd384b1172106d9638ecfe7a9bf160d1740e1858d5378872c[ALL] 022612a597a7f21ce9598d90612c2d7c80ef050598e423440f05c2b69375c8fc83"}, "vout": 29, "txid": "6d1c1c47bd5da3aba3d5dd1b14079d5b514d0b406b52d68833eca29c08e992e7"}, {"sequence": 4294967293, "scriptSig": {"hex": "4830450221009af755d07149ca2947d10f6cc0d330c1ba9648ec9105aa6a60c324910b22836402206041f3e61fbfe5565107ba9e524eab3574b1fb1f99121e2c3b38783c1a9aa19a0121022612a597a7f21ce9598d90612c2d7c80ef050598e423440f05c2b69375c8fc83", "asm": "30450221009af755d07149ca2947d10f6cc0d330c1ba9648ec9105aa6a60c324910b22836402206041f3e61fbfe5565107ba9e524eab3574b1fb1f99121e2c3b38783c1a9aa19a[ALL] 022612a597a7f21ce9598d90612c2d7c80ef050598e423440f05c2b69375c8fc83"}, "vout": 34, "txid": "e31f8f3501e8396b8cd558cb255626c76acb712ae43bf41c443949033fbdcbf1"}], "txid": "6b4937deaefd83ce91b3bfa707177c16b6d0fd56a1b6bfadd1043a5cee3baa0f", "blocktime": 1537873891, "version": 1, "confirmations": 11479, "time": 1537873891, "locktime": 542996, "vsize": 338, "size": 338}