{"hash": "3dc40cfc36c1da1f5ec88569a48aed7ac367d88229f9aacacebb64df9f5a8b1a", "blockhash": "0000000000000000000baef3f32e3676a92c3b2e5da21b426e4f302fc371ce76", "vout": [{"scriptPubKey": {"reqSigs": 1, "hex": "a91490e99e8d26d05ead3c05430c292a887bbff695f587", "addresses": ["3EuF6KjJawxTiUsea3Sc8hsLUGmVEf7Xg5"], "asm": "OP_HASH160 90e99e8d26d05ead3c05430c292a887bbff695f5 OP_EQUAL", "type": "scripthash"}, "value": 0.00116347, "n": 0}, {"scriptPubKey": {"type": "nulldata", "hex": "6a146f6d6e69000000000000001f0000000005f5e100", "asm": "OP_RETURN 6f6d6e69000000000000001f0000000005f5e100"}, "value": 0.0, "n": 1}, {"scriptPubKey": {"reqSigs": 1, "hex": "a91490e99e8d26d05ead3c05430c292a887bbff695f587", "addresses": ["3EuF6KjJawxTiUsea3Sc8hsLUGmVEf7Xg5"], "asm": "OP_HASH160 90e99e8d26d05ead3c05430c292a887bbff695f5 OP_EQUAL", "type": "scripthash"}, "value": 5.4e-06, "n": 2}], "hex": "01000000000102e15b3641bd4794167ffb810b1f0f2011ea9908abbeb2373292aa7369d3ada27b0000000017160014f6e1792e7852ebd5ae795c2a25d579acdfadec2dffffffffe15b3641bd4794167ffb810b1f0f2011ea9908abbeb2373292aa7369d3ada27b0200000017160014f6e1792e7852ebd5ae795c2a25d579acdfadec2dffffffff037bc601000000000017a91490e99e8d26d05ead3c05430c292a887bbff695f5870000000000000000166a146f6d6e69000000000000001f0000000005f5e1001c0200000000000017a91490e99e8d26d05ead3c05430c292a887bbff695f5870247304402200b50d26aeb9f2802dfac27b6bb53b12157ee96cef1ed1e73a1ba54e70960f16302207844cb767a7940e8c473857ecbc587bb5afe2b949bb30cce242925aead336a58012103f1cf988013a33e053d1e9bd54c4798c1a6dc362a5b2798b5344049fca40e2db002483045022100ad8fedf9d4876b0fbb5e6c7d69e58bdbce2c3386720e2d4aaef23b3d924d4dd0022018c12fb5ffcb0537d1430b73f5a242cd809523eee484c8500d39f8a109c9e27a012103f1cf988013a33e053d1e9bd54c4798c1a6dc362a5b2798b5344049fca40e2db000000000", "vin": [{"txinwitness": ["304402200b50d26aeb9f2802dfac27b6bb53b12157ee96cef1ed1e73a1ba54e70960f16302207844cb767a7940e8c473857ecbc587bb5afe2b949bb30cce242925aead336a5801", "03f1cf988013a33e053d1e9bd54c4798c1a6dc362a5b2798b5344049fca40e2db0"], "sequence": 4294967295, "scriptSig": {"hex": "160014f6e1792e7852ebd5ae795c2a25d579acdfadec2d", "asm": "0014f6e1792e7852ebd5ae795c2a25d579acdfadec2d"}, "vout": 0, "txid": "7ba2add36973aa923237b2beab0899ea11200f1f0b81fb7f169447bd41365be1"}, {"txinwitness": ["3045022100ad8fedf9d4876b0fbb5e6c7d69e58bdbce2c3386720e2d4aaef23b3d924d4dd0022018c12fb5ffcb0537d1430b73f5a242cd809523eee484c8500d39f8a109c9e27a01", "03f1cf988013a33e053d1e9bd54c4798c1a6dc362a5b2798b5344049fca40e2db0"], "sequence": 4294967295, "scriptSig": {"hex": "160014f6e1792e7852ebd5ae795c2a25d579acdfadec2d", "asm": "0014f6e1792e7852ebd5ae795c2a25d579acdfadec2d"}, "vout": 2, "txid": "7ba2add36973aa923237b2beab0899ea11200f1f0b81fb7f169447bd41365be1"}], "txid": "6b4c057078d55db2a42c094ee192141172ae83c2290cee20a5e684300d7eb446", "blocktime": 1537876114, "version": 1, "confirmations": 11460, "time": 1537876114, "locktime": 0, "vsize": 288, "size": 450}