{"hash": "6b4eb086253c3ab8bc6bb96c31d8cbe451327b82ad595abb9be7c5182b129906", "blockhash": "000000000000000000205f8b0775d31398ef75b89a5e8ec8d2c57b4dc0ac4c20", "vout": [{"scriptPubKey": {"reqSigs": 1, "hex": "76a914e8b62cd12269a1adf12c0c8dd221b142c5d119c488ac", "addresses": ["1NDU1FWXntkLsPb4HnpkHvwYVkFcuRf84y"], "asm": "OP_DUP OP_HASH160 e8b62cd12269a1adf12c0c8dd221b142c5d119c4 OP_EQUALVERIFY OP_CHECKSIG", "type": "pubkeyhash"}, "value": 0.00468626, "n": 0}, {"scriptPubKey": {"reqSigs": 1, "hex": "76a91463f104c01725c0f760fdc150e435e12e5267693388ac", "addresses": ["1A7SdFjgsaXWBoojNzyPiN2u3WAtzz4vKB"], "asm": "OP_DUP OP_HASH160 63f104c01725c0f760fdc150e435e12e52676933 OP_EQUALVERIFY OP_CHECKSIG", "type": "pubkeyhash"}, "value": 0.09757532, "n": 1}], "hex": "0100000001ba76e952fe9ef9572e8920cebd435e3f0320862cf67a22cb6c245fa0e04b4df9010000006a4730440220492dc808dfa8ab00bb54b48c7925463803d8c8b5b79d1ac664236caf9babc930022007d7df7a9f57c22f4b655efa0e415421644969618d32f9cf2d8739ffda9904b50121031914ee1c09605606f48e68868bdce926c9dd676826c266ac4f8e2519451360a5ffffff000292260700000000001976a914e8b62cd12269a1adf12c0c8dd221b142c5d119c488ac5ce39400000000001976a91463f104c01725c0f760fdc150e435e12e5267693388ac00000000", "vin": [{"sequence": 16777215, "scriptSig": {"hex": "4730440220492dc808dfa8ab00bb54b48c7925463803d8c8b5b79d1ac664236caf9babc930022007d7df7a9f57c22f4b655efa0e415421644969618d32f9cf2d8739ffda9904b50121031914ee1c09605606f48e68868bdce926c9dd676826c266ac4f8e2519451360a5", "asm": "30440220492dc808dfa8ab00bb54b48c7925463803d8c8b5b79d1ac664236caf9babc930022007d7df7a9f57c22f4b655efa0e415421644969618d32f9cf2d8739ffda9904b5[ALL] 031914ee1c09605606f48e68868bdce926c9dd676826c266ac4f8e2519451360a5"}, "vout": 1, "txid": "f94d4be0a05f246ccb227af62c8620033f5e43bdce20892e57f99efe52e976ba"}], "txid": "6b4eb086253c3ab8bc6bb96c31d8cbe451327b82ad595abb9be7c5182b129906", "blocktime": 1537871175, "version": 1, "confirmations": 11511, "time": 1537871175, "locktime": 0, "vsize": 225, "size": 225}