{"hash": "6b5cc0527fba1d545a0c905cab6cf5f589ba5b37409c75a4b899cf740c30d2f6", "blockhash": "0000000000000000001f76057863aec43deb6fa401d9628bb513d65a8098bfab", "vout": [{"scriptPubKey": {"reqSigs": 1, "hex": "76a9141714be155986337bcbe8dde0ca4034bd728a8caa88ac", "addresses": ["1373PdNrtHBmKykviynXA3FGtnmEj1xreQ"], "asm": "OP_DUP OP_HASH160 1714be155986337bcbe8dde0ca4034bd728a8caa OP_EQUALVERIFY OP_CHECKSIG", "type": "pubkeyhash"}, "value": 0.00630375, "n": 0}, {"scriptPubKey": {"reqSigs": 1, "hex": "76a9149bd1a89eb8e2721bee1877f66074d8c3efb5c81188ac", "addresses": ["1FCtu5GfWiJZDSaEQLrvae2tMgajMa8wWs"], "asm": "OP_DUP OP_HASH160 9bd1a89eb8e2721bee1877f66074d8c3efb5c811 OP_EQUALVERIFY OP_CHECKSIG", "type": "pubkeyhash"}, "value": 0.35241829, "n": 1}], "hex": "0100000006e00393d82cf88b62dec7c5e20998436b805b2cd49d28c563827482c31b20a63be40000006b483045022100c7a23590001805a51d9c5dcab023ae714ac1ef3eb6088482ff34f0004510758d0220250a5f9516f5499d20d958440fc2a43162f127cec666eada8c010e7aa1caefb70121030f5f3d408c9a1560292380016ba05485eeb00240aea40504da34e02ad489686bffffffffc39d53902136bf0ee9269a75b2a90053a2feb8c14567efadab703ef897dc2c55000000006a473044022030611faff93bb7882706e5c8ec63d7ba22bc0d9211d86a25342fa7b30270d1f90220317d78b65a91c30059d9ae152396e8487dd208c2dba09971c9f2b75e79cf9d33012103f5c65aed01a021fd08737d4f67dede8a70e45ad67379802c46d8d7e5e12f751effffffff01668d6a8304c12cd14471eb1ab52399d9ad27afa0d8484efec4cb34e6c78edfca0000006b483045022100ccf78423f54e35499a6d5d6cf09be728d40902b7d0a4aaacacee65f1d274be8e02200ff4e786c4cd5dfc74f1b5f008284197c3ae632e6b063838975b783f2783b3750121026b394f1b2f5adb62155e914c1fcdefeae585224cf2ef9a69b81427403389f79affffffff62903ba268e36db4b5250fa96a31c0ed1b3dd2ea3d39aa6320797bb22d6fa0eb010000006b483045022100865d8abdbde7a9f46132a56c46b797a51e67f2a06ef69d906d3808be7075f370022047dd517a7821f7d13683fb2503d8ba8a9695349a29ac37c1111ef6c1751f159b012103916b3a06725cc39f88c3e17ba939925582b34600851893d113d6bcc64b803f2afffffffff9de4b5b38653e7e14f12cd18661ea09ad33674d8a977bc1dd2bf32e2fe1f722010000006b483045022100da1c429deb40f15071b8574997f251e079fb9c4a38ad7621586f9c7f0d6a9a2b02202243386aed1bd4e88e3092612b1e0b6d389bfec87a22b7a248729d5ee9e1234e01210242c80d4981f3113a2c23aa14745fa56b1f974f6804c6b7975189f74379574208ffffffff89c269db020ca76df01297b8e02f93e802876566f55c2bb0396132152cca5b8e610000006a47304402205b1f467b498d4ce90446b8880d9a948a5823d123615776186d55bc7f7c80fc5b02207471b5384c7899eb1b4194ca5b0f9650be088353c28a064cc865396b7341e8ad012103314da10d132739a7a1956e753b6f41e9180b1791a161f5816f2aade2e06406d2ffffffff02679e0900000000001976a9141714be155986337bcbe8dde0ca4034bd728a8caa88ac65bf1902000000001976a9149bd1a89eb8e2721bee1877f66074d8c3efb5c81188ac00000000", "vin": [{"sequence": 4294967295, "scriptSig": {"hex": "483045022100c7a23590001805a51d9c5dcab023ae714ac1ef3eb6088482ff34f0004510758d0220250a5f9516f5499d20d958440fc2a43162f127cec666eada8c010e7aa1caefb70121030f5f3d408c9a1560292380016ba05485eeb00240aea40504da34e02ad489686b", "asm": "3045022100c7a23590001805a51d9c5dcab023ae714ac1ef3eb6088482ff34f0004510758d0220250a5f9516f5499d20d958440fc2a43162f127cec666eada8c010e7aa1caefb7[ALL] 030f5f3d408c9a1560292380016ba05485eeb00240aea40504da34e02ad489686b"}, "vout": 228, "txid": "3ba6201bc382748263c5289dd42c5b806b439809e2c5c7de628bf82cd89303e0"}, {"sequence": 4294967295, "scriptSig": {"hex": "473044022030611faff93bb7882706e5c8ec63d7ba22bc0d9211d86a25342fa7b30270d1f90220317d78b65a91c30059d9ae152396e8487dd208c2dba09971c9f2b75e79cf9d33012103f5c65aed01a021fd08737d4f67dede8a70e45ad67379802c46d8d7e5e12f751e", "asm": "3044022030611faff93bb7882706e5c8ec63d7ba22bc0d9211d86a25342fa7b30270d1f90220317d78b65a91c30059d9ae152396e8487dd208c2dba09971c9f2b75e79cf9d33[ALL] 03f5c65aed01a021fd08737d4f67dede8a70e45ad67379802c46d8d7e5e12f751e"}, "vout": 0, "txid": "552cdc97f83e70abadef6745c1b8fea25300a9b2759a26e90ebf362190539dc3"}, {"sequence": 4294967295, "scriptSig": {"hex": "483045022100ccf78423f54e35499a6d5d6cf09be728d40902b7d0a4aaacacee65f1d274be8e02200ff4e786c4cd5dfc74f1b5f008284197c3ae632e6b063838975b783f2783b3750121026b394f1b2f5adb62155e914c1fcdefeae585224cf2ef9a69b81427403389f79a", "asm": "3045022100ccf78423f54e35499a6d5d6cf09be728d40902b7d0a4aaacacee65f1d274be8e02200ff4e786c4cd5dfc74f1b5f008284197c3ae632e6b063838975b783f2783b375[ALL] 026b394f1b2f5adb62155e914c1fcdefeae585224cf2ef9a69b81427403389f79a"}, "vout": 202, "txid": "df8ec7e634cbc4fe4e48d8a0af27add99923b51aeb7144d12cc104836a8d6601"}, {"sequence": 4294967295, "scriptSig": {"hex": "483045022100865d8abdbde7a9f46132a56c46b797a51e67f2a06ef69d906d3808be7075f370022047dd517a7821f7d13683fb2503d8ba8a9695349a29ac37c1111ef6c1751f159b012103916b3a06725cc39f88c3e17ba939925582b34600851893d113d6bcc64b803f2a", "asm": "3045022100865d8abdbde7a9f46132a56c46b797a51e67f2a06ef69d906d3808be7075f370022047dd517a7821f7d13683fb2503d8ba8a9695349a29ac37c1111ef6c1751f159b[ALL] 03916b3a06725cc39f88c3e17ba939925582b34600851893d113d6bcc64b803f2a"}, "vout": 1, "txid": "eba06f2db27b792063aa393dead23d1bedc0316aa90f25b5b46de368a23b9062"}, {"sequence": 4294967295, "scriptSig": {"hex": "483045022100da1c429deb40f15071b8574997f251e079fb9c4a38ad7621586f9c7f0d6a9a2b02202243386aed1bd4e88e3092612b1e0b6d389bfec87a22b7a248729d5ee9e1234e01210242c80d4981f3113a2c23aa14745fa56b1f974f6804c6b7975189f74379574208", "asm": "3045022100da1c429deb40f15071b8574997f251e079fb9c4a38ad7621586f9c7f0d6a9a2b02202243386aed1bd4e88e3092612b1e0b6d389bfec87a22b7a248729d5ee9e1234e[ALL] 0242c80d4981f3113a2c23aa14745fa56b1f974f6804c6b7975189f74379574208"}, "vout": 1, "txid": "22f7e12f2ef32bddc17b978a4d6733ad09ea6186d12cf1147e3e65385b4bdef9"}, {"sequence": 4294967295, "scriptSig": {"hex": "47304402205b1f467b498d4ce90446b8880d9a948a5823d123615776186d55bc7f7c80fc5b02207471b5384c7899eb1b4194ca5b0f9650be088353c28a064cc865396b7341e8ad012103314da10d132739a7a1956e753b6f41e9180b1791a161f5816f2aade2e06406d2", "asm": "304402205b1f467b498d4ce90446b8880d9a948a5823d123615776186d55bc7f7c80fc5b02207471b5384c7899eb1b4194ca5b0f9650be088353c28a064cc865396b7341e8ad[ALL] 03314da10d132739a7a1956e753b6f41e9180b1791a161f5816f2aade2e06406d2"}, "vout": 97, "txid": "8e5bca2c15326139b02b5cf566658702e8932fe0b89712f06da70c02db69c289"}], "txid": "6b5cc0527fba1d545a0c905cab6cf5f589ba5b37409c75a4b899cf740c30d2f6", "blocktime": 1537873891, "version": 1, "confirmations": 11474, "time": 1537873891, "locktime": 0, "vsize": 964, "size": 964}