{"hash": "6b5d711714b598d13c6b0337462678876e4769c004e6011686dbf5928095b831", "blockhash": "0000000000000000001e0dab787dd257d1dbfcb92a98c2207d5e1078be1f4165", "vout": [{"scriptPubKey": {"reqSigs": 1, "hex": "a91440973dce6052b6ef6b32e405ce7ad05e245ce6e787", "addresses": ["37aYMG1ttyEx84K56qfK3t6hgBfLr76tBN"], "asm": "OP_HASH160 40973dce6052b6ef6b32e405ce7ad05e245ce6e7 OP_EQUAL", "type": "scripthash"}, "value": 0.008, "n": 0}, {"scriptPubKey": {"reqSigs": 1, "hex": "76a914caa5b730fa43bb741e7333116e67aec11084fc2288ac", "addresses": ["1KUW1sWc8hQejA9HyNmxojSDSPc7syKG1m"], "asm": "OP_DUP OP_HASH160 caa5b730fa43bb741e7333116e67aec11084fc22 OP_EQUALVERIFY OP_CHECKSIG", "type": "pubkeyhash"}, "value": 0.7043892, "n": 1}], "hex": "01000000016cc3b3ab4fddf42117bade7088eaaf67de4eb5042eeb16dfd97187e5672e950e010000006a473044022054c27648d8ee9193fb177273a5818b7a1602b8ba91716957718f5ac0575fc2ab02202de5083dc6d6b3ad04669bd8296e9e0e02b77719f8acad1dd6c3a53a69eb122e0121023797cba2dfbd773685653468b7c1bbb0b445b6b08e4ad608cb764e90e9939141ffffffff0200350c000000000017a91440973dce6052b6ef6b32e405ce7ad05e245ce6e78708d03204000000001976a914caa5b730fa43bb741e7333116e67aec11084fc2288ac00000000", "vin": [{"sequence": 4294967295, "scriptSig": {"hex": "473044022054c27648d8ee9193fb177273a5818b7a1602b8ba91716957718f5ac0575fc2ab02202de5083dc6d6b3ad04669bd8296e9e0e02b77719f8acad1dd6c3a53a69eb122e0121023797cba2dfbd773685653468b7c1bbb0b445b6b08e4ad608cb764e90e9939141", "asm": "3044022054c27648d8ee9193fb177273a5818b7a1602b8ba91716957718f5ac0575fc2ab02202de5083dc6d6b3ad04669bd8296e9e0e02b77719f8acad1dd6c3a53a69eb122e[ALL] 023797cba2dfbd773685653468b7c1bbb0b445b6b08e4ad608cb764e90e9939141"}, "vout": 1, "txid": "0e952e67e58771d9df16eb2e04b54ede67afea8870deba1721f4dd4fabb3c36c"}], "txid": "6b5d711714b598d13c6b0337462678876e4769c004e6011686dbf5928095b831", "blocktime": 1537872475, "version": 1, "confirmations": 11487, "time": 1537872475, "locktime": 0, "vsize": 223, "size": 223}