{"hash": "6b5e88be3e06a00131edbe152c618bf0b086ebcb3fcd1c020eb69b3a5521f4d8", "blockhash": "0000000000000000001e0dab787dd257d1dbfcb92a98c2207d5e1078be1f4165", "vout": [{"scriptPubKey": {"reqSigs": 1, "hex": "a914c02f11a2bda116f3583c3360089a32444f18355087", "addresses": ["3KDC3n8huRmcJ6C6XxjXuCneEjdp92Z8FU"], "asm": "OP_HASH160 c02f11a2bda116f3583c3360089a32444f183550 OP_EQUAL", "type": "scripthash"}, "value": 0.00890511, "n": 0}, {"scriptPubKey": {"reqSigs": 1, "hex": "76a914196b85049d275d307a7b275ee2be0aaa4662f77b88ac", "addresses": ["13KQhPYRb47rMBdGhrFezyF2ni5wAQeDMJ"], "asm": "OP_DUP OP_HASH160 196b85049d275d307a7b275ee2be0aaa4662f77b OP_EQUALVERIFY OP_CHECKSIG", "type": "pubkeyhash"}, "value": 0.03098977, "n": 1}], "hex": "0100000001286c0d459b81e8c62ecd184a55b43cc476dd2741155cf6192a3693a20a192d7f0e0000006b483045022100ffb7de855b2405437f7bf3669740bf47b3eb99bf6c486746d2345350ceb76e61022053838022889bdc14c2e2b1fcb863c8abb1cc6ee28e94219f89dd43b3a9184440012102de5b430041c824518d71e830aa8482f7d4b946a08ebad28f2c5177103393e154ffffffff028f960d000000000017a914c02f11a2bda116f3583c3360089a32444f1835508761492f00000000001976a914196b85049d275d307a7b275ee2be0aaa4662f77b88ac00000000", "vin": [{"sequence": 4294967295, "scriptSig": {"hex": "483045022100ffb7de855b2405437f7bf3669740bf47b3eb99bf6c486746d2345350ceb76e61022053838022889bdc14c2e2b1fcb863c8abb1cc6ee28e94219f89dd43b3a9184440012102de5b430041c824518d71e830aa8482f7d4b946a08ebad28f2c5177103393e154", "asm": "3045022100ffb7de855b2405437f7bf3669740bf47b3eb99bf6c486746d2345350ceb76e61022053838022889bdc14c2e2b1fcb863c8abb1cc6ee28e94219f89dd43b3a9184440[ALL] 02de5b430041c824518d71e830aa8482f7d4b946a08ebad28f2c5177103393e154"}, "vout": 14, "txid": "7f2d190aa293362a19f65c154127dd76c43cb4554a18cd2ec6e8819b450d6c28"}], "txid": "6b5e88be3e06a00131edbe152c618bf0b086ebcb3fcd1c020eb69b3a5521f4d8", "blocktime": 1537872475, "version": 1, "confirmations": 11486, "time": 1537872475, "locktime": 0, "vsize": 224, "size": 224}