{"hash": "6b5eb86ab9942036ef9879be24dfae8b1f31b594b45cfcb3d15212704fc9a543", "blockhash": "0000000000000000000e13cef7c366c0283d82e591d1acd082e914b08063cdf1", "vout": [{"scriptPubKey": {"reqSigs": 1, "hex": "76a914b1c36cdbc8488828fdf7c51a01ffdc5fad795f3f88ac", "addresses": ["1HCviLYNqHAyeZxGTj9Mtgvj1NJgQuSo91"], "asm": "OP_DUP OP_HASH160 b1c36cdbc8488828fdf7c51a01ffdc5fad795f3f OP_EQUALVERIFY OP_CHECKSIG", "type": "pubkeyhash"}, "value": 0.03949956, "n": 0}, {"scriptPubKey": {"type": "nulldata", "hex": "6a146f6d6e69000000000000001f00000574c0439600", "asm": "OP_RETURN 6f6d6e69000000000000001f00000574c0439600"}, "value": 0.0, "n": 1}, {"scriptPubKey": {"reqSigs": 1, "hex": "a9149cfcd76257e662e389b155780a94ca4b194eb4a887", "addresses": ["3G16ECCVTvFBpfczuFYA8DZHxJVimNAF5S"], "asm": "OP_HASH160 9cfcd76257e662e389b155780a94ca4b194eb4a8 OP_EQUAL", "type": "scripthash"}, "value": 5.4e-06, "n": 2}], "hex": "01000000012ffd8baba1ab93f6f1fa330e5d38f6e91af85fdb09332fe45a5d9a1f2c64484c020000006a47304402207720688fef75c232eecea4154909491ac8a28122b03600215f7fd5dbb443f9ba02202c689050db745241028344d614039476262d3d7c4d43c7637621d632c0e5a97d012102bc94fc0fec87accd4903e80d06afb112a46f743e997af2c7680035cba6d4b38cfeffffff0384453c00000000001976a914b1c36cdbc8488828fdf7c51a01ffdc5fad795f3f88ac0000000000000000166a146f6d6e69000000000000001f00000574c04396001c0200000000000017a9149cfcd76257e662e389b155780a94ca4b194eb4a88710490800", "vin": [{"sequence": 4294967294, "scriptSig": {"hex": "47304402207720688fef75c232eecea4154909491ac8a28122b03600215f7fd5dbb443f9ba02202c689050db745241028344d614039476262d3d7c4d43c7637621d632c0e5a97d012102bc94fc0fec87accd4903e80d06afb112a46f743e997af2c7680035cba6d4b38c", "asm": "304402207720688fef75c232eecea4154909491ac8a28122b03600215f7fd5dbb443f9ba02202c689050db745241028344d614039476262d3d7c4d43c7637621d632c0e5a97d[ALL] 02bc94fc0fec87accd4903e80d06afb112a46f743e997af2c7680035cba6d4b38c"}, "vout": 2, "txid": "4c48642c1f9a5d5ae42f3309db5ff81ae9f6385d0e33faf1f693aba1ab8bfd2f"}], "txid": "6b5eb86ab9942036ef9879be24dfae8b1f31b594b45cfcb3d15212704fc9a543", "blocktime": 1537871767, "version": 1, "confirmations": 11495, "time": 1537871767, "locktime": 542992, "vsize": 254, "size": 254}