{"hash": "c98b63b8b3592fa023dbf31367f08fd0028ad8cfdf8b7d6431d542828815c2c2", "blockhash": "0000000000000000000e13cef7c366c0283d82e591d1acd082e914b08063cdf1", "vout": [{"scriptPubKey": {"reqSigs": 1, "hex": "00148d2caee9d29b0aae13e30e3110bdf0383447a22e", "addresses": ["bc1q35k2a6wjnv92uylrpcc3p00s8q6y0g3wk74mw6"], "asm": "0 8d2caee9d29b0aae13e30e3110bdf0383447a22e", "type": "witness_v0_keyhash"}, "value": 0.00113598, "n": 0}, {"scriptPubKey": {"reqSigs": 1, "hex": "a9148d1b866f7d57ca58b1fb49c4a296ec9eec66d26487", "addresses": ["3EZ8B58VDMMaYdUx9ycWXhZFDWHk1KyYiu"], "asm": "OP_HASH160 8d1b866f7d57ca58b1fb49c4a296ec9eec66d264 OP_EQUAL", "type": "scripthash"}, "value": 0.0159326, "n": 1}], "hex": "010000000001015f36f2fa35c190e072cab14b3fcbb2012f5eb8dd6d0982f566b5dbc6f39a69370000000017160014ff952e5231915f4572842a35c0bfc3f96037681dffffffff02bebb0100000000001600148d2caee9d29b0aae13e30e3110bdf0383447a22eac4f18000000000017a9148d1b866f7d57ca58b1fb49c4a296ec9eec66d2648702483045022100f0efa35ee7cd1f6cce93bee57a2a8a83f9ade37d75d0aeb537a1fa9d89b36403022002cc5e0052dfc5a9bcc5026fa56adaa998b1adcf416a6d4e4df49888a066f50301210392444872c3a4aae37b749376d7e0ef00a546c677bb901206e44842a170d5ddc200000000", "vin": [{"txinwitness": ["3045022100f0efa35ee7cd1f6cce93bee57a2a8a83f9ade37d75d0aeb537a1fa9d89b36403022002cc5e0052dfc5a9bcc5026fa56adaa998b1adcf416a6d4e4df49888a066f50301", "0392444872c3a4aae37b749376d7e0ef00a546c677bb901206e44842a170d5ddc2"], "sequence": 4294967295, "scriptSig": {"hex": "160014ff952e5231915f4572842a35c0bfc3f96037681d", "asm": "0014ff952e5231915f4572842a35c0bfc3f96037681d"}, "vout": 0, "txid": "37699af3c6dbb566f582096dddb85e2f01b2cb3f4bb1ca72e090c135faf2365f"}], "txid": "6b64c8458cfe2e2f79403a1b6a8a0ecd8c21ce9d3809c26c42bb0a6cebfd7ecf", "blocktime": 1537871767, "version": 1, "confirmations": 11495, "time": 1537871767, "locktime": 0, "vsize": 165, "size": 247}