{"hash": "6b6609aed925d61ecc6ef8b7e240bc41b63464a73e879f20932cd1d18dc9ba5d", "blockhash": "0000000000000000000dcc0f55137456b1a82d3642486a52398922ac4d620174", "vout": [{"scriptPubKey": {"reqSigs": 1, "hex": "76a91492b55bac8e069fc757a5b11a101844dc722d076c88ac", "addresses": ["1ENiuzNCLpCEF6ciPssEoEGSxdSuPtedRK"], "asm": "OP_DUP OP_HASH160 92b55bac8e069fc757a5b11a101844dc722d076c OP_EQUALVERIFY OP_CHECKSIG", "type": "pubkeyhash"}, "value": 0.00648784, "n": 0}, {"scriptPubKey": {"type": "nulldata", "hex": "6a4c500000776f000112f8452c5b38a7364635eee886aeaeacb577c031fc3a016b46dc7dc7d09625fb35ad359642ae4a8f9103999f387a5baa08e406135f52030704d01d100759d4ba30d2c37bb011d97e02cf", "asm": "OP_RETURN 0000776f000112f8452c5b38a7364635eee886aeaeacb577c031fc3a016b46dc7dc7d09625fb35ad359642ae4a8f9103999f387a5baa08e406135f52030704d01d100759d4ba30d2c37bb011d97e02cf"}, "value": 0.0, "n": 1}], "hex": "0100000001b079dd1283b82b3fcdf7ec1ff9ab95a1a1abfa7f3a7a7f7e62f4bad0d5299357000000006a473044022079b3e5c04302334bdb7a17a2f3ee121843361c4685b8d29b0a8c0fdd9dd098e5022023bb133ff26335ce3b50070325e1f8cbb87dd910bc8b27248db309f35ea5363801210222e8c75ad456322d7eeeaf865e569e177cf9d8a0c483ca1aa26582a4d8f06e10ffffffff0250e60900000000001976a91492b55bac8e069fc757a5b11a101844dc722d076c88ac0000000000000000536a4c500000776f000112f8452c5b38a7364635eee886aeaeacb577c031fc3a016b46dc7dc7d09625fb35ad359642ae4a8f9103999f387a5baa08e406135f52030704d01d100759d4ba30d2c37bb011d97e02cf00000000", "vin": [{"sequence": 4294967295, "scriptSig": {"hex": "473044022079b3e5c04302334bdb7a17a2f3ee121843361c4685b8d29b0a8c0fdd9dd098e5022023bb133ff26335ce3b50070325e1f8cbb87dd910bc8b27248db309f35ea5363801210222e8c75ad456322d7eeeaf865e569e177cf9d8a0c483ca1aa26582a4d8f06e10", "asm": "3044022079b3e5c04302334bdb7a17a2f3ee121843361c4685b8d29b0a8c0fdd9dd098e5022023bb133ff26335ce3b50070325e1f8cbb87dd910bc8b27248db309f35ea53638[ALL] 0222e8c75ad456322d7eeeaf865e569e177cf9d8a0c483ca1aa26582a4d8f06e10"}, "vout": 0, "txid": "579329d5d0baf4627e7f7a3a7ffaaba1a195abf91fecf7cd3f2bb88312dd79b0"}], "txid": "6b6609aed925d61ecc6ef8b7e240bc41b63464a73e879f20932cd1d18dc9ba5d", "blocktime": 1537870268, "version": 1, "confirmations": 11518, "time": 1537870268, "locktime": 0, "vsize": 283, "size": 283}