{"hash": "d5b09c5abb8fd5ffc09c245fe9d84fb893711643c95b8afc6ade2f428eff2a9c", "blockhash": "0000000000000000001e0dab787dd257d1dbfcb92a98c2207d5e1078be1f4165", "vout": [{"scriptPubKey": {"reqSigs": 1, "hex": "a914e45ed9ca5b09eb4f7f15f5928c2f00efce4c6e6387", "addresses": ["3NWXcdHBNwaqsLZjDCHt8CxozVfBEwXU1X"], "asm": "OP_HASH160 e45ed9ca5b09eb4f7f15f5928c2f00efce4c6e63 OP_EQUAL", "type": "scripthash"}, "value": 0.0141318, "n": 0}, {"scriptPubKey": {"reqSigs": 1, "hex": "76a9148d3ea1a917d300e0b527fa1e7ad4fc2222d9f33288ac", "addresses": ["1DsqJm5puCeVDWDfNDptpGHkVQrtG5a3aQ"], "asm": "OP_DUP OP_HASH160 8d3ea1a917d300e0b527fa1e7ad4fc2222d9f332 OP_EQUALVERIFY OP_CHECKSIG", "type": "pubkeyhash"}, "value": 0.00368451, "n": 1}], "hex": "020000000001018b6eb23d6dcb98b3194f7379cfb2e85535a962ed12c9277e96e2db1b3e66398a010000001716001470f158416a1d3c2127e7af383b2d42cb3fb94299feffffff023c9015000000000017a914e45ed9ca5b09eb4f7f15f5928c2f00efce4c6e6387439f0500000000001976a9148d3ea1a917d300e0b527fa1e7ad4fc2222d9f33288ac024730440220725d4491a648d4eb427e51e8aa0e6fd15ec644f13dc0d7827e270b2d4643530b02205fb3a4c0a6b2c713508eb2ce096520970add185281379e97577c9a1227fb44680121031804afb8e7fe3d0593446e76581662c2feefae2658b6e57d9426843e79cce2e512490800", "vin": [{"txinwitness": ["30440220725d4491a648d4eb427e51e8aa0e6fd15ec644f13dc0d7827e270b2d4643530b02205fb3a4c0a6b2c713508eb2ce096520970add185281379e97577c9a1227fb446801", "031804afb8e7fe3d0593446e76581662c2feefae2658b6e57d9426843e79cce2e5"], "sequence": 4294967294, "scriptSig": {"hex": "16001470f158416a1d3c2127e7af383b2d42cb3fb94299", "asm": "001470f158416a1d3c2127e7af383b2d42cb3fb94299"}, "vout": 1, "txid": "8a39663e1bdbe2967e27c912ed62a93555e8b2cf79734f19b398cb6d3db26e8b"}], "txid": "6b666514d3c66e036431b0cbcb73186548358eb5484ec7a4d069beaff559405c", "blocktime": 1537872475, "version": 2, "confirmations": 11487, "time": 1537872475, "locktime": 542994, "vsize": 168, "size": 249}