{"hash": "6b6b133f3f14e2448c196f3d02d499c798953938b9923c5e34f389425f30130e", "blockhash": "0000000000000000000e13cef7c366c0283d82e591d1acd082e914b08063cdf1", "vout": [{"scriptPubKey": {"reqSigs": 1, "hex": "a9142bd8e8dd126c321f910df6394696f17154b8cc0587", "addresses": ["35grpwKLiewsVWdmLyvEE4AvDZ2g4ou9Gw"], "asm": "OP_HASH160 2bd8e8dd126c321f910df6394696f17154b8cc05 OP_EQUAL", "type": "scripthash"}, "value": 0.95, "n": 0}, {"scriptPubKey": {"reqSigs": 1, "hex": "76a914eee226d3db4ba27cf7d87df22619a70b55dc898688ac", "addresses": ["1Nn6jx3xmSCTT25X4PDfKJnYo6D258ehfT"], "asm": "OP_DUP OP_HASH160 eee226d3db4ba27cf7d87df22619a70b55dc8986 OP_EQUALVERIFY OP_CHECKSIG", "type": "pubkeyhash"}, "value": 0.00552851, "n": 1}], "hex": "010000000268381dc998952eba00b244e7da79c33a15947c740115d2b856ba694799b24b08010000006a473044022038f6591b3c10631c37e03c39365d25cb00cbf58f5b381f14e3952df4fb9dad6202201aab8f894c12f5a12007e7a313b1864f4c6b15bc0581832d84dff595014b13fc0121036da6fe7afa6bc321c59a2a832d1d1260ddce228ca577434f6334929f6b74b0e8ffffffffd1f04eaf5dbfc959284f951d1bde498e09cd1b21ceffc42b665834b552975b3b000000006a473044022070677cd6a2cd13a7d65edf8f157f25ac94cb7286a508e50846a7f99ce7c0767c0220237f6ed917e23b9db5aa5a3f87fb397f061c234f7c629229f4c2f24fda7652b3012102f290bf30c5db70e44f76ad4896eaa9213a2047e9811d51e18b3ce1289c56d621ffffffff02c095a9050000000017a9142bd8e8dd126c321f910df6394696f17154b8cc0587936f0800000000001976a914eee226d3db4ba27cf7d87df22619a70b55dc898688ac00000000", "vin": [{"sequence": 4294967295, "scriptSig": {"hex": "473044022038f6591b3c10631c37e03c39365d25cb00cbf58f5b381f14e3952df4fb9dad6202201aab8f894c12f5a12007e7a313b1864f4c6b15bc0581832d84dff595014b13fc0121036da6fe7afa6bc321c59a2a832d1d1260ddce228ca577434f6334929f6b74b0e8", "asm": "3044022038f6591b3c10631c37e03c39365d25cb00cbf58f5b381f14e3952df4fb9dad6202201aab8f894c12f5a12007e7a313b1864f4c6b15bc0581832d84dff595014b13fc[ALL] 036da6fe7afa6bc321c59a2a832d1d1260ddce228ca577434f6334929f6b74b0e8"}, "vout": 1, "txid": "084bb2994769ba56b8d21501747c94153ac379dae744b200ba2e9598c91d3868"}, {"sequence": 4294967295, "scriptSig": {"hex": "473044022070677cd6a2cd13a7d65edf8f157f25ac94cb7286a508e50846a7f99ce7c0767c0220237f6ed917e23b9db5aa5a3f87fb397f061c234f7c629229f4c2f24fda7652b3012102f290bf30c5db70e44f76ad4896eaa9213a2047e9811d51e18b3ce1289c56d621", "asm": "3044022070677cd6a2cd13a7d65edf8f157f25ac94cb7286a508e50846a7f99ce7c0767c0220237f6ed917e23b9db5aa5a3f87fb397f061c234f7c629229f4c2f24fda7652b3[ALL] 02f290bf30c5db70e44f76ad4896eaa9213a2047e9811d51e18b3ce1289c56d621"}, "vout": 0, "txid": "3b5b9752b53458662bc4ffce211bcd098e49de1b1d954f2859c9bf5daf4ef0d1"}], "txid": "6b6b133f3f14e2448c196f3d02d499c798953938b9923c5e34f389425f30130e", "blocktime": 1537871767, "version": 1, "confirmations": 11491, "time": 1537871767, "locktime": 0, "vsize": 370, "size": 370}