{"hash": "639830077b1fec448a8855bd0d1799e4a368b96be6a9cbe82ac1e884b5ced45e", "blockhash": "0000000000000000000baef3f32e3676a92c3b2e5da21b426e4f302fc371ce76", "vout": [{"scriptPubKey": {"reqSigs": 1, "hex": "a914c8186b7c813a733f9a68533d378512ac98fc1c2887", "addresses": ["3Kw2KdcU7v5mejhCvXJS8PCmVXPypntDoq"], "asm": "OP_HASH160 c8186b7c813a733f9a68533d378512ac98fc1c28 OP_EQUAL", "type": "scripthash"}, "value": 0.02044749, "n": 0}, {"scriptPubKey": {"reqSigs": 1, "hex": "a914086b87b354b3889797e336d5fb920b08aa82c3cf87", "addresses": ["32TY9Q7egAUQx419VmYV3wk7T2X6HEDky1"], "asm": "OP_HASH160 086b87b354b3889797e336d5fb920b08aa82c3cf OP_EQUAL", "type": "scripthash"}, "value": 0.67385927, "n": 1}], "hex": "01000000000101394baa56901f28f1899e56325f93b87d95ad31523914e721ebc9d4153e0194d20100000017160014a110a15a3ce1114f4ccbf6b83317eda8fcc4b8f2ffffffff024d331f000000000017a914c8186b7c813a733f9a68533d378512ac98fc1c2887473a04040000000017a914086b87b354b3889797e336d5fb920b08aa82c3cf870247304402207655a2cc1e48fe825c477fb763cea708f03d379906a6b6afb5a2ed9d204b86f4022014425ee6ffdc9037179efca07ce022f1451a37698f00e1f9d2d9db2f9559d3460121030b7555307392e8fef6b89994ebd0d2352ebfe2b2351f15f11fbeb7ae326daf8a00000000", "vin": [{"txinwitness": ["304402207655a2cc1e48fe825c477fb763cea708f03d379906a6b6afb5a2ed9d204b86f4022014425ee6ffdc9037179efca07ce022f1451a37698f00e1f9d2d9db2f9559d34601", "030b7555307392e8fef6b89994ebd0d2352ebfe2b2351f15f11fbeb7ae326daf8a"], "sequence": 4294967295, "scriptSig": {"hex": "160014a110a15a3ce1114f4ccbf6b83317eda8fcc4b8f2", "asm": "0014a110a15a3ce1114f4ccbf6b83317eda8fcc4b8f2"}, "vout": 1, "txid": "d294013e15d4c9eb21e714395231ad957db8935f32569e89f1281f9056aa4b39"}], "txid": "6b6c43e5d39916fa27af127ebef7c41856124ffaeb6d43bb7d2f780e16920294", "blocktime": 1537876114, "version": 1, "confirmations": 11459, "time": 1537876114, "locktime": 0, "vsize": 166, "size": 247}