{"hash": "6b76f74cdc92aa2b2dbe3f98ec312e7fdd7f7d7dec0921968e675ac26e8df9f4", "blockhash": "0000000000000000001f76057863aec43deb6fa401d9628bb513d65a8098bfab", "vout": [{"scriptPubKey": {"reqSigs": 1, "hex": "76a914a53c8e5137a7fa2e6a54c7f8fecbac916e11bcbc88ac", "addresses": ["1G4h39ntxohxhEfuv2iXzKeyNwgHxpq2Th"], "asm": "OP_DUP OP_HASH160 a53c8e5137a7fa2e6a54c7f8fecbac916e11bcbc OP_EQUALVERIFY OP_CHECKSIG", "type": "pubkeyhash"}, "value": 0.00074336, "n": 0}, {"scriptPubKey": {"reqSigs": 1, "hex": "76a914ddd4369ffff57951502e05c64bef01d36575356288ac", "addresses": ["1MDvZEqbVj2Ks4nWpL8uhG5rHJMsEB8g5Y"], "asm": "OP_DUP OP_HASH160 ddd4369ffff57951502e05c64bef01d365753562 OP_EQUALVERIFY OP_CHECKSIG", "type": "pubkeyhash"}, "value": 0.00312159, "n": 1}], "hex": "01000000045013d9f400b594ebd7ee7515070d83ea338ed22d7a379670edb2179a6eb00578000000006b483045022100d6918460fdad69d233b6263874026fda73cb84da9a4941c14230546b7c99c187022055db7e44c1b913ecd1b3529eff351e03e57b7064b764d4c700122bb01d388ccb012103e35a3ef7c40b10cc33003b07bacc6a756165854e93e00c7d6fd54bea69b81f79ffffffff67873c70df10bf0ff697d8d18a78f369c7205cc19705337db33206f0a42617aa000000006a47304402206e7f0dc3fe2a11b9a6dc242f34abd50ede949bfbf96459cfe65b254e24b066810220753ce6b089bee2d7eb4b0d0b5aa468ca9008cb0eb0ea993584c46920ab055cb0012103aeb723957111163646f06b3ccdee269f4a4c1288e3f02d5fa357bfe7de8b043affffffff49445aed3c367fcf4d1b09f5b19efcdda890af4d4d90970bae78167bd1c9a0be000000006b483045022100a75e02951b48907099ac4809002a191b9c8ccf68db2a1918d8adb3f507609c3d02204151f85d75daf66b8691c7bd6438ada070ce2a27dbbfeb39fd4d8b134b67640101210345755e7dee62abd12a515284e0a0e2d95b26c6dcf341c7274dfe63443e45cb76ffffffffe6d60a5ef1986d5c9eaeae86212ff1f0dce0e1fac4f0d04edb0963bdd83c50ea000000006a47304402206c846ee3fdf25a048ddad908c34aa84f43b084555ec70f878ae48eb5f853247f02206281366a8fb865423d6122170b10cf81a47135e8a01ac0451e1280ad9edf4ef4012103aeb723957111163646f06b3ccdee269f4a4c1288e3f02d5fa357bfe7de8b043affffffff0260220100000000001976a914a53c8e5137a7fa2e6a54c7f8fecbac916e11bcbc88ac5fc30400000000001976a914ddd4369ffff57951502e05c64bef01d36575356288ac00000000", "vin": [{"sequence": 4294967295, "scriptSig": {"hex": "483045022100d6918460fdad69d233b6263874026fda73cb84da9a4941c14230546b7c99c187022055db7e44c1b913ecd1b3529eff351e03e57b7064b764d4c700122bb01d388ccb012103e35a3ef7c40b10cc33003b07bacc6a756165854e93e00c7d6fd54bea69b81f79", "asm": "3045022100d6918460fdad69d233b6263874026fda73cb84da9a4941c14230546b7c99c187022055db7e44c1b913ecd1b3529eff351e03e57b7064b764d4c700122bb01d388ccb[ALL] 03e35a3ef7c40b10cc33003b07bacc6a756165854e93e00c7d6fd54bea69b81f79"}, "vout": 0, "txid": "7805b06e9a17b2ed7096377a2dd28e33ea830d071575eed7eb94b500f4d91350"}, {"sequence": 4294967295, "scriptSig": {"hex": "47304402206e7f0dc3fe2a11b9a6dc242f34abd50ede949bfbf96459cfe65b254e24b066810220753ce6b089bee2d7eb4b0d0b5aa468ca9008cb0eb0ea993584c46920ab055cb0012103aeb723957111163646f06b3ccdee269f4a4c1288e3f02d5fa357bfe7de8b043a", "asm": "304402206e7f0dc3fe2a11b9a6dc242f34abd50ede949bfbf96459cfe65b254e24b066810220753ce6b089bee2d7eb4b0d0b5aa468ca9008cb0eb0ea993584c46920ab055cb0[ALL] 03aeb723957111163646f06b3ccdee269f4a4c1288e3f02d5fa357bfe7de8b043a"}, "vout": 0, "txid": "aa1726a4f00632b37d330597c15c20c769f3788ad1d897f60fbf10df703c8767"}, {"sequence": 4294967295, "scriptSig": {"hex": "483045022100a75e02951b48907099ac4809002a191b9c8ccf68db2a1918d8adb3f507609c3d02204151f85d75daf66b8691c7bd6438ada070ce2a27dbbfeb39fd4d8b134b67640101210345755e7dee62abd12a515284e0a0e2d95b26c6dcf341c7274dfe63443e45cb76", "asm": "3045022100a75e02951b48907099ac4809002a191b9c8ccf68db2a1918d8adb3f507609c3d02204151f85d75daf66b8691c7bd6438ada070ce2a27dbbfeb39fd4d8b134b676401[ALL] 0345755e7dee62abd12a515284e0a0e2d95b26c6dcf341c7274dfe63443e45cb76"}, "vout": 0, "txid": "bea0c9d17b1678ae0b97904d4daf90a8ddfc9eb1f5091b4dcf7f363ced5a4449"}, {"sequence": 4294967295, "scriptSig": {"hex": "47304402206c846ee3fdf25a048ddad908c34aa84f43b084555ec70f878ae48eb5f853247f02206281366a8fb865423d6122170b10cf81a47135e8a01ac0451e1280ad9edf4ef4012103aeb723957111163646f06b3ccdee269f4a4c1288e3f02d5fa357bfe7de8b043a", "asm": "304402206c846ee3fdf25a048ddad908c34aa84f43b084555ec70f878ae48eb5f853247f02206281366a8fb865423d6122170b10cf81a47135e8a01ac0451e1280ad9edf4ef4[ALL] 03aeb723957111163646f06b3ccdee269f4a4c1288e3f02d5fa357bfe7de8b043a"}, "vout": 0, "txid": "ea503cd8bd6309db4ed0f0c4fae1e0dcf0f12f2186aeae9e5c6d98f15e0ad6e6"}], "txid": "6b76f74cdc92aa2b2dbe3f98ec312e7fdd7f7d7dec0921968e675ac26e8df9f4", "blocktime": 1537873891, "version": 1, "confirmations": 11478, "time": 1537873891, "locktime": 0, "vsize": 668, "size": 668}