{"hash": "b2c751773adb2bde7ab32ac21638e04fcac9aa86b210cbdfdcde1935041b57c0", "blockhash": "0000000000000000000e13cef7c366c0283d82e591d1acd082e914b08063cdf1", "vout": [{"scriptPubKey": {"reqSigs": 1, "hex": "76a91469abd61d8629ed1ed37f442adc4d0a9f90e082b388ac", "addresses": ["1AdjoYYA1vDDPrNFSJafDnqbPfzaNpJCtS"], "asm": "OP_DUP OP_HASH160 69abd61d8629ed1ed37f442adc4d0a9f90e082b3 OP_EQUALVERIFY OP_CHECKSIG", "type": "pubkeyhash"}, "value": 0.0106608, "n": 0}, {"scriptPubKey": {"reqSigs": 1, "hex": "a91416c4343a445dcd178edc463a517b3ef8200afa4787", "addresses": ["33mPqFut2nANabyo828eVcJTJnunHyJ3cZ"], "asm": "OP_HASH160 16c4343a445dcd178edc463a517b3ef8200afa47 OP_EQUAL", "type": "scripthash"}, "value": 0.23012434, "n": 1}], "hex": "01000000000101c5c010308d2ca1756f852ecf37808c0bc0dbe77ba505477087df125a7c0e76810000000023220020ce351c93a2c7d5570402928237280d9ebd98cfae9743835933c4c21a640c8fd5ffffffff0260441000000000001976a91469abd61d8629ed1ed37f442adc4d0a9f90e082b388ac52245f010000000017a91416c4343a445dcd178edc463a517b3ef8200afa478704004730440220180ea4633770a4f1bb9ba3fb8c2f47f7c03d42242fb2c8f55e0625681663c2d80220423f38db69f8ed9724fedef00b82a442e96a7b65d86cf1b78ed21731a1d259f1014830450221009adc62840a2fdcd8f9b388c2be738e5f4f497368f09a01871b53f8055c632b3f022015c8209db15d0197e852c9e92e2c3947e43e1d378184be544b241b3776db2d9a01695221023b6e2ff10d7e908830ab4ad29faf6a0c685cbc3cd132a526e0a5b6135bb184422103d18424c01b3c9374339553e9e097a096982cc911f62718016a09a19fb0e414b72103d6ef618d9687a6b2a46b470e3ae522e982d10ec39a6be989acf4c0de090b4e9b53ae00000000", "vin": [{"txinwitness": ["", "30440220180ea4633770a4f1bb9ba3fb8c2f47f7c03d42242fb2c8f55e0625681663c2d80220423f38db69f8ed9724fedef00b82a442e96a7b65d86cf1b78ed21731a1d259f101", "30450221009adc62840a2fdcd8f9b388c2be738e5f4f497368f09a01871b53f8055c632b3f022015c8209db15d0197e852c9e92e2c3947e43e1d378184be544b241b3776db2d9a01", "5221023b6e2ff10d7e908830ab4ad29faf6a0c685cbc3cd132a526e0a5b6135bb184422103d18424c01b3c9374339553e9e097a096982cc911f62718016a09a19fb0e414b72103d6ef618d9687a6b2a46b470e3ae522e982d10ec39a6be989acf4c0de090b4e9b53ae"], "sequence": 4294967295, "scriptSig": {"hex": "220020ce351c93a2c7d5570402928237280d9ebd98cfae9743835933c4c21a640c8fd5", "asm": "0020ce351c93a2c7d5570402928237280d9ebd98cfae9743835933c4c21a640c8fd5"}, "vout": 0, "txid": "81760e7c5a12df87704705a57be7dbc00b8c8037cf2e856f75a12c8d3010c0c5"}], "txid": "6b8082833780769b43431182ca8ae4d9f8ebb2ea049d39ff2bd2196653d34039", "blocktime": 1537871767, "version": 1, "confirmations": 11493, "time": 1537871767, "locktime": 0, "vsize": 216, "size": 407}