{"hash": "6b854c1c978147c2f91186857077b034b363747febec3661a7d15f826e90e9dc", "blockhash": "00000000000000000017f5eb5941039fbcee6240d03bc1f2f8e35350df66a1d8", "vout": [{"scriptPubKey": {"reqSigs": 1, "hex": "76a9149cc9bfc9136fd2674e3a7c0de88379977c8af6db88ac", "addresses": ["1FJ26hn7FrRT5fDtAR76dSWXNnUDnf53r5"], "asm": "OP_DUP OP_HASH160 9cc9bfc9136fd2674e3a7c0de88379977c8af6db OP_EQUALVERIFY OP_CHECKSIG", "type": "pubkeyhash"}, "value": 0.00470112, "n": 0}, {"scriptPubKey": {"reqSigs": 1, "hex": "76a914b5e61cb2173da82e296d81baffd4ea593517615d88ac", "addresses": ["1HanyC1SXyiuVLd42qCtbhp4Gizax3iWQ9"], "asm": "OP_DUP OP_HASH160 b5e61cb2173da82e296d81baffd4ea593517615d OP_EQUALVERIFY OP_CHECKSIG", "type": "pubkeyhash"}, "value": 0.0061686, "n": 1}], "hex": "0100000001d5503bf609ff77820a81c264a779218353d2617174e152faf3b3d4caf2697499010000006a47304402203815a19b94b84cf691a5ca4b210be324779596274d0bbf084eb22e67fadf9b6c022027249589fbd00ea0df97ccb5b039dc33913c9833b1416b891e52333ed96de1410121039eb183c75c08ff13822b33a26c09f511ed27be093c5b81cb98bcc105906a213dffffffff02602c0700000000001976a9149cc9bfc9136fd2674e3a7c0de88379977c8af6db88ac9c690900000000001976a914b5e61cb2173da82e296d81baffd4ea593517615d88ac00000000", "vin": [{"sequence": 4294967295, "scriptSig": {"hex": "47304402203815a19b94b84cf691a5ca4b210be324779596274d0bbf084eb22e67fadf9b6c022027249589fbd00ea0df97ccb5b039dc33913c9833b1416b891e52333ed96de1410121039eb183c75c08ff13822b33a26c09f511ed27be093c5b81cb98bcc105906a213d", "asm": "304402203815a19b94b84cf691a5ca4b210be324779596274d0bbf084eb22e67fadf9b6c022027249589fbd00ea0df97ccb5b039dc33913c9833b1416b891e52333ed96de141[ALL] 039eb183c75c08ff13822b33a26c09f511ed27be093c5b81cb98bcc105906a213d"}, "vout": 1, "txid": "997469f2cad4b3f3fa52e1747161d253832179a764c2810a8277ff09f63b50d5"}], "txid": "6b854c1c978147c2f91186857077b034b363747febec3661a7d15f826e90e9dc", "blocktime": 1537874412, "version": 1, "confirmations": 11467, "time": 1537874412, "locktime": 0, "vsize": 225, "size": 225}