{"hash": "6b87da507894f73289aaa996c3a72fa402d1bf3d7ee64de5e0466095518c31c4", "blockhash": "000000000000000000022b45ed06c6f4ccd3cf7fb5ba4856ebd2e58215665228", "vout": [{"scriptPubKey": {"reqSigs": 1, "hex": "76a9148e60e5052e2e10e261e638e7b5c39fa34d1ec0d988ac", "addresses": ["1Dyq2bYAAnscmUh2fsFm8KCtjNqmCPuT76"], "asm": "OP_DUP OP_HASH160 8e60e5052e2e10e261e638e7b5c39fa34d1ec0d9 OP_EQUALVERIFY OP_CHECKSIG", "type": "pubkeyhash"}, "value": 0.0313135, "n": 0}, {"scriptPubKey": {"reqSigs": 1, "hex": "76a9142c5c45e21187c6165d8e25929b04360c7eecbe4188ac", "addresses": ["153ZGgRJs7Wg7dinTSC94NzZtULm1aJWMi"], "asm": "OP_DUP OP_HASH160 2c5c45e21187c6165d8e25929b04360c7eecbe41 OP_EQUALVERIFY OP_CHECKSIG", "type": "pubkeyhash"}, "value": 0.0625906, "n": 1}, {"scriptPubKey": {"reqSigs": 1, "hex": "76a914e5ace88a4e47147161c0e152fba97abedd22083888ac", "addresses": ["1MwQsp8oFWLfojGqJaQCvAy5G7FHN1JUtE"], "asm": "OP_DUP OP_HASH160 e5ace88a4e47147161c0e152fba97abedd220838 OP_EQUALVERIFY OP_CHECKSIG", "type": "pubkeyhash"}, "value": 0.09264692, "n": 2}, {"scriptPubKey": {"reqSigs": 1, "hex": "76a9147b1d2196b179ca77e5753f2349bcdda16bc74c1c88ac", "addresses": ["1CDy1fg6a9Q7TsZvvGchZftsiYUFD2KUur"], "asm": "OP_DUP OP_HASH160 7b1d2196b179ca77e5753f2349bcdda16bc74c1c OP_EQUALVERIFY OP_CHECKSIG", "type": "pubkeyhash"}, "value": 0.11293865, "n": 3}], "hex": "0100000001be1a4a27cec7d729a87b096f85c3c9832db2de845a7bf1cd2886404c968fa8253f0000006a47304402205ad950039c2c20de3dffd02f602efbd28bac3a3e79d137ef44650d6dbc904ebb02205e47331e24c9ff8e4a0e4a0b5fb99ad383b06e2be085912136be0180cb5d4e8e0121035b404f0bfdea3ce40113c20d00538e1279182dac0d6cfbc8b24cd303396b7af3feffffff04d6c72f00000000001976a9148e60e5052e2e10e261e638e7b5c39fa34d1ec0d988ac74815f00000000001976a9142c5c45e21187c6165d8e25929b04360c7eecbe4188ac345e8d00000000001976a914e5ace88a4e47147161c0e152fba97abedd22083888aca954ac00000000001976a9147b1d2196b179ca77e5753f2349bcdda16bc74c1c88ac0b490800", "vin": [{"sequence": 4294967294, "scriptSig": {"hex": "47304402205ad950039c2c20de3dffd02f602efbd28bac3a3e79d137ef44650d6dbc904ebb02205e47331e24c9ff8e4a0e4a0b5fb99ad383b06e2be085912136be0180cb5d4e8e0121035b404f0bfdea3ce40113c20d00538e1279182dac0d6cfbc8b24cd303396b7af3", "asm": "304402205ad950039c2c20de3dffd02f602efbd28bac3a3e79d137ef44650d6dbc904ebb02205e47331e24c9ff8e4a0e4a0b5fb99ad383b06e2be085912136be0180cb5d4e8e[ALL] 035b404f0bfdea3ce40113c20d00538e1279182dac0d6cfbc8b24cd303396b7af3"}, "vout": 63, "txid": "25a88f964c408628cdf17b5a84deb22d83c9c3856f097ba829d7c7ce274a1abe"}], "txid": "6b87da507894f73289aaa996c3a72fa402d1bf3d7ee64de5e0466095518c31c4", "blocktime": 1537869901, "version": 1, "confirmations": 11523, "time": 1537869901, "locktime": 542987, "vsize": 293, "size": 293}