{"hash": "6b89f71275cf6960478c052f57d95dfd5c9182830a296f413812ddd39197bf2e", "blockhash": "0000000000000000000e13cef7c366c0283d82e591d1acd082e914b08063cdf1", "vout": [{"scriptPubKey": {"reqSigs": 1, "hex": "a9142e6b8136f6ed47bc33f599df2ff94e716ae2b15987", "addresses": ["35vTnvp18fKBTzttQKmCdH12drRPdENeCF"], "asm": "OP_HASH160 2e6b8136f6ed47bc33f599df2ff94e716ae2b159 OP_EQUAL", "type": "scripthash"}, "value": 0.003749, "n": 0}, {"scriptPubKey": {"reqSigs": 1, "hex": "76a914cb148f4e2ad966fbbf8d2bcc772b64f6a1b5668388ac", "addresses": ["1KWnoTiQV93E6Ur9XqgQu1GW3FA9oK1MQd"], "asm": "OP_DUP OP_HASH160 cb148f4e2ad966fbbf8d2bcc772b64f6a1b56683 OP_EQUALVERIFY OP_CHECKSIG", "type": "pubkeyhash"}, "value": 0.00083048, "n": 1}], "hex": "020000000272c3cf44e86c5cac1fac24d35f850c13608455e555762376a3b98afcd9f7761c010000006a4730440220272ba55ef3c7a9ea136b56100d6b607cefeeb8f1fe18a44db0272023d00c82d902201b6bb063c74bee3ba9373c331692dfecf0e8a64ca659ea743af3e4165262940001210275b5a291cb593e67ba06eca06954d91b9ff5bb630c40e90f683f9a336837851fffffffff2838446ebbcbc1868eb7cc20b0f232cc1a1dd6fa5129f2da9564e674a975af20000000006b483045022100876fc311c0208b5ff8843c128312ec41bdc8a562bd451429718b4d7111fe80b7022003176fc7362f12cd19798116b905957bfde03de4ac3ae3ba13182748fafa7ce401210275b5a291cb593e67ba06eca06954d91b9ff5bb630c40e90f683f9a336837851fffffffff0274b805000000000017a9142e6b8136f6ed47bc33f599df2ff94e716ae2b1598768440100000000001976a914cb148f4e2ad966fbbf8d2bcc772b64f6a1b5668388ac00000000", "vin": [{"sequence": 4294967295, "scriptSig": {"hex": "4730440220272ba55ef3c7a9ea136b56100d6b607cefeeb8f1fe18a44db0272023d00c82d902201b6bb063c74bee3ba9373c331692dfecf0e8a64ca659ea743af3e4165262940001210275b5a291cb593e67ba06eca06954d91b9ff5bb630c40e90f683f9a336837851f", "asm": "30440220272ba55ef3c7a9ea136b56100d6b607cefeeb8f1fe18a44db0272023d00c82d902201b6bb063c74bee3ba9373c331692dfecf0e8a64ca659ea743af3e41652629400[ALL] 0275b5a291cb593e67ba06eca06954d91b9ff5bb630c40e90f683f9a336837851f"}, "vout": 1, "txid": "1c76f7d9fc8ab9a376237655e5558460130c855fd324ac1fac5c6ce844cfc372"}, {"sequence": 4294967295, "scriptSig": {"hex": "483045022100876fc311c0208b5ff8843c128312ec41bdc8a562bd451429718b4d7111fe80b7022003176fc7362f12cd19798116b905957bfde03de4ac3ae3ba13182748fafa7ce401210275b5a291cb593e67ba06eca06954d91b9ff5bb630c40e90f683f9a336837851f", "asm": "3045022100876fc311c0208b5ff8843c128312ec41bdc8a562bd451429718b4d7111fe80b7022003176fc7362f12cd19798116b905957bfde03de4ac3ae3ba13182748fafa7ce4[ALL] 0275b5a291cb593e67ba06eca06954d91b9ff5bb630c40e90f683f9a336837851f"}, "vout": 0, "txid": "20af75a974e66495daf22951fad61d1acc32f2b020ccb78e86c1cbbb6e443828"}], "txid": "6b89f71275cf6960478c052f57d95dfd5c9182830a296f413812ddd39197bf2e", "blocktime": 1537871767, "version": 2, "confirmations": 11493, "time": 1537871767, "locktime": 0, "vsize": 371, "size": 371}