{"hash": "76e8d31ac8195eef3548f170e82a2ffcdebce79024fc6ea371ff1a79cfe9efef", "blockhash": "000000000000000000022b45ed06c6f4ccd3cf7fb5ba4856ebd2e58215665228", "vout": [{"scriptPubKey": {"reqSigs": 1, "hex": "76a9147f4dd6c9442e31e0b16bc669ffb3691425c4afb788ac", "addresses": ["1Cc84iGoZrXC1JmagmKPLgRswx3UQzCWaE"], "asm": "OP_DUP OP_HASH160 7f4dd6c9442e31e0b16bc669ffb3691425c4afb7 OP_EQUALVERIFY OP_CHECKSIG", "type": "pubkeyhash"}, "value": 0.11578966, "n": 0}, {"scriptPubKey": {"reqSigs": 1, "hex": "76a9149545d110b1d22edd129179c834c9be1697b1b44f88ac", "addresses": ["1EcHKXhqZidN3xBVA8NSvt19YyspEsRJGD"], "asm": "OP_DUP OP_HASH160 9545d110b1d22edd129179c834c9be1697b1b44f OP_EQUALVERIFY OP_CHECKSIG", "type": "pubkeyhash"}, "value": 0.00992685, "n": 1}], "hex": "020000000001027adc71d573d358f369fe607c730f6a01d0258f348e974197206de1cf36a96e9d0100000017160014170df5abca5e56849bb41b5b8a188b3271f12bd9feffffff8a51a0b1b42c46cd35951854058ff2155e7b258fb0f69d3a2c4a056f80bec8c50000000017160014f056a7c32b12d13c085f7a01226b7af78c1f6bcefeffffff0256aeb000000000001976a9147f4dd6c9442e31e0b16bc669ffb3691425c4afb788acad250f00000000001976a9149545d110b1d22edd129179c834c9be1697b1b44f88ac0247304402203394de8f3e6f01c0090fe5a72eb5be61cf935e72237ef5372c0b929b505aca8b02203d3fdcfd1bba80922b4efe593fa926a0de0fefdf8fbed271f89e082cb66dc227012103e716306a80680b9d29c738454f8c269aa7304e0d61b163a989fad48bcd6e989002483045022100a9ef556d8de28382d5fd34a2aa00bcaabafff9cb7b7dc815d8621a33e66053b602206da923b2c490599ea2a1be059715ec26a734c2b8a812dbcc33452b6d1cd5ec620121030438394e71ffe43fe192306bf82935eda5a94be9a7ac2cc6ec3ab82cc30fd0c20b490800", "vin": [{"txinwitness": ["304402203394de8f3e6f01c0090fe5a72eb5be61cf935e72237ef5372c0b929b505aca8b02203d3fdcfd1bba80922b4efe593fa926a0de0fefdf8fbed271f89e082cb66dc22701", "03e716306a80680b9d29c738454f8c269aa7304e0d61b163a989fad48bcd6e9890"], "sequence": 4294967294, "scriptSig": {"hex": "160014170df5abca5e56849bb41b5b8a188b3271f12bd9", "asm": "0014170df5abca5e56849bb41b5b8a188b3271f12bd9"}, "vout": 1, "txid": "9d6ea936cfe16d209741978e348f25d0016a0f737c60fe69f358d373d571dc7a"}, {"txinwitness": ["3045022100a9ef556d8de28382d5fd34a2aa00bcaabafff9cb7b7dc815d8621a33e66053b602206da923b2c490599ea2a1be059715ec26a734c2b8a812dbcc33452b6d1cd5ec6201", "030438394e71ffe43fe192306bf82935eda5a94be9a7ac2cc6ec3ab82cc30fd0c2"], "sequence": 4294967294, "scriptSig": {"hex": "160014f056a7c32b12d13c085f7a01226b7af78c1f6bce", "asm": "0014f056a7c32b12d13c085f7a01226b7af78c1f6bce"}, "vout": 0, "txid": "c5c8be806f054a2c3a9df6b08f257b5e15f28f0554189535cd462cb4b1a0518a"}], "txid": "6b8be35b3ff048c451ec608845fa532f7b8bc9b0d4f47f500ea164cdec7d941b", "blocktime": 1537869901, "version": 2, "confirmations": 11522, "time": 1537869901, "locktime": 542987, "vsize": 261, "size": 423}