{"hash": "6b9778ed976f5a420561fe701375a3fc16df5fcfe99cfcfe729e64603453b7ea", "blockhash": "0000000000000000001f76057863aec43deb6fa401d9628bb513d65a8098bfab", "vout": [{"scriptPubKey": {"reqSigs": 1, "hex": "76a914dd46e072bb4dbe592a7f3101599fba21dab637dc88ac", "addresses": ["1MB1EzrZsoYpdkfwHvbfFtNuqv9N1jtLyS"], "asm": "OP_DUP OP_HASH160 dd46e072bb4dbe592a7f3101599fba21dab637dc OP_EQUALVERIFY OP_CHECKSIG", "type": "pubkeyhash"}, "value": 0.00187295, "n": 0}, {"scriptPubKey": {"reqSigs": 1, "hex": "76a914dd2929c7f878931f5d0359f7785ed11de526ad6088ac", "addresses": ["1MAPeTvzFU8u3w9MgybHY8BPPLgdixyrAg"], "asm": "OP_DUP OP_HASH160 dd2929c7f878931f5d0359f7785ed11de526ad60 OP_EQUALVERIFY OP_CHECKSIG", "type": "pubkeyhash"}, "value": 0.00088934, "n": 1}], "hex": "0200000003d80e0c48c31d7c8b171ac4f4b07c1a32e0b471cb4f0e6d8e663306b3f9ef85f3010000006a473044022040fbcb149a2b0107e2273a822e8d97ab54408ffe80beea180713145a583a856402207692280a31848a7f62ff8b98d2e8fea011e294f51247b227c145a92b7260bb8e0121036bd207b4647593e0d23713bf7790d96ef94e67b67100db2c35e1e064789a49f6ffffffffbe9950ed499ce546a54973b2adfa59cc9c127d57846f73f6ee8065dd1e552159000000006a47304402200471847c97fc0431c4292590583469c3fd05c6d202a5f06eebd6ab83be594be002203503687a3a7432b08a9f9e1937b066951b5723648748995b7292a19bad025dd60121036bd207b4647593e0d23713bf7790d96ef94e67b67100db2c35e1e064789a49f6ffffffff0b0e78a67052689d604dc14b62a71a9bea0de3a92661d43ce36543ec7288c5e0000000006b483045022100a63eddc96cd21e21d1d74418a14bd8d8f78bac3d3ba45ba0ba91ab772eefaedc02201a816081ca0195913de2f8dea15296b3ccdce940ccd9bdbed422d5f625e5f7b10121036bd207b4647593e0d23713bf7790d96ef94e67b67100db2c35e1e064789a49f6ffffffff029fdb0200000000001976a914dd46e072bb4dbe592a7f3101599fba21dab637dc88ac665b0100000000001976a914dd2929c7f878931f5d0359f7785ed11de526ad6088ac00000000", "vin": [{"sequence": 4294967295, "scriptSig": {"hex": "473044022040fbcb149a2b0107e2273a822e8d97ab54408ffe80beea180713145a583a856402207692280a31848a7f62ff8b98d2e8fea011e294f51247b227c145a92b7260bb8e0121036bd207b4647593e0d23713bf7790d96ef94e67b67100db2c35e1e064789a49f6", "asm": "3044022040fbcb149a2b0107e2273a822e8d97ab54408ffe80beea180713145a583a856402207692280a31848a7f62ff8b98d2e8fea011e294f51247b227c145a92b7260bb8e[ALL] 036bd207b4647593e0d23713bf7790d96ef94e67b67100db2c35e1e064789a49f6"}, "vout": 1, "txid": "f385eff9b30633668e6d0e4fcb71b4e0321a7cb0f4c41a178b7c1dc3480c0ed8"}, {"sequence": 4294967295, "scriptSig": {"hex": "47304402200471847c97fc0431c4292590583469c3fd05c6d202a5f06eebd6ab83be594be002203503687a3a7432b08a9f9e1937b066951b5723648748995b7292a19bad025dd60121036bd207b4647593e0d23713bf7790d96ef94e67b67100db2c35e1e064789a49f6", "asm": "304402200471847c97fc0431c4292590583469c3fd05c6d202a5f06eebd6ab83be594be002203503687a3a7432b08a9f9e1937b066951b5723648748995b7292a19bad025dd6[ALL] 036bd207b4647593e0d23713bf7790d96ef94e67b67100db2c35e1e064789a49f6"}, "vout": 0, "txid": "5921551edd6580eef6736f84577d129ccc59faadb27349a546e59c49ed5099be"}, {"sequence": 4294967295, "scriptSig": {"hex": "483045022100a63eddc96cd21e21d1d74418a14bd8d8f78bac3d3ba45ba0ba91ab772eefaedc02201a816081ca0195913de2f8dea15296b3ccdce940ccd9bdbed422d5f625e5f7b10121036bd207b4647593e0d23713bf7790d96ef94e67b67100db2c35e1e064789a49f6", "asm": "3045022100a63eddc96cd21e21d1d74418a14bd8d8f78bac3d3ba45ba0ba91ab772eefaedc02201a816081ca0195913de2f8dea15296b3ccdce940ccd9bdbed422d5f625e5f7b1[ALL] 036bd207b4647593e0d23713bf7790d96ef94e67b67100db2c35e1e064789a49f6"}, "vout": 0, "txid": "e0c58872ec4365e33cd46126a9e30dea9b1aa7624bc14d609d685270a6780e0b"}], "txid": "6b9778ed976f5a420561fe701375a3fc16df5fcfe99cfcfe729e64603453b7ea", "blocktime": 1537873891, "version": 2, "confirmations": 11475, "time": 1537873891, "locktime": 0, "vsize": 520, "size": 520}