{"hash": "6b9c3231665bb64e8e3ebab55952dcc044e41c4a17cfbdc0c21a58a7036605ae", "blockhash": "0000000000000000001e0dab787dd257d1dbfcb92a98c2207d5e1078be1f4165", "vout": [{"scriptPubKey": {"reqSigs": 1, "hex": "a914ec19fdb4adb9e6989f3cb6d9d817317b31b5e21387", "addresses": ["3PDQXhpx3cm2ELkTgN87bbZyreNBZZkifm"], "asm": "OP_HASH160 ec19fdb4adb9e6989f3cb6d9d817317b31b5e213 OP_EQUAL", "type": "scripthash"}, "value": 0.00109347, "n": 0}, {"scriptPubKey": {"reqSigs": 1, "hex": "76a91453e3960a4537f5434f9dc0cfa7fe9c3f3cd5a35988ac", "addresses": ["18eZit6aw8V7HJSVy8JbJPkaAy6CitGp2a"], "asm": "OP_DUP OP_HASH160 53e3960a4537f5434f9dc0cfa7fe9c3f3cd5a359 OP_EQUALVERIFY OP_CHECKSIG", "type": "pubkeyhash"}, "value": 0.0030839, "n": 1}], "hex": "0100000001b8db95662703e9186d586f6884b5c71a8e6b6d4f554a30e10e7da674925dba3a000000006b483045022100f38873bf64d40fffff3470865adaf4142bae3e9c5cd99ebfd9a55c8ef3c30b0d02201b90a622cd78ceb7b3f3c86dcdc3bf5d96da4089521f6dd61d9337c319393edc0121029b2ca1a36f032be11b9567cce56054cccad2b04fd21ec3f24859699019ba6d40ffffffff0223ab01000000000017a914ec19fdb4adb9e6989f3cb6d9d817317b31b5e21387a6b40400000000001976a91453e3960a4537f5434f9dc0cfa7fe9c3f3cd5a35988ac00000000", "vin": [{"sequence": 4294967295, "scriptSig": {"hex": "483045022100f38873bf64d40fffff3470865adaf4142bae3e9c5cd99ebfd9a55c8ef3c30b0d02201b90a622cd78ceb7b3f3c86dcdc3bf5d96da4089521f6dd61d9337c319393edc0121029b2ca1a36f032be11b9567cce56054cccad2b04fd21ec3f24859699019ba6d40", "asm": "3045022100f38873bf64d40fffff3470865adaf4142bae3e9c5cd99ebfd9a55c8ef3c30b0d02201b90a622cd78ceb7b3f3c86dcdc3bf5d96da4089521f6dd61d9337c319393edc[ALL] 029b2ca1a36f032be11b9567cce56054cccad2b04fd21ec3f24859699019ba6d40"}, "vout": 0, "txid": "3aba5d9274a67d0ee1304a554f6d6b8e1ac7b584686f586d18e903276695dbb8"}], "txid": "6b9c3231665bb64e8e3ebab55952dcc044e41c4a17cfbdc0c21a58a7036605ae", "blocktime": 1537872475, "version": 1, "confirmations": 11486, "time": 1537872475, "locktime": 0, "vsize": 224, "size": 224}