{"hash": "6b9d13f1ec136a289a50be8e781b08d27c080f79aadb8e27d4b8216a8214bb3d", "blockhash": "000000000000000000022b45ed06c6f4ccd3cf7fb5ba4856ebd2e58215665228", "vout": [{"scriptPubKey": {"reqSigs": 1, "hex": "76a91405b3b01229ae28cb530d012bdc515770246c3c0288ac", "addresses": ["1X9dtKQrw6HaNhPJbM616cwMaDydzsDM1"], "asm": "OP_DUP OP_HASH160 05b3b01229ae28cb530d012bdc515770246c3c02 OP_EQUALVERIFY OP_CHECKSIG", "type": "pubkeyhash"}, "value": 0.00019915, "n": 0}, {"scriptPubKey": {"type": "nulldata", "hex": "6a4c5000007760000172dac894e56a771115d2ceea3a016b46dc7dc7d0968d120d670c1906f999943905847529ed097dd8ea8c866b9ee15baa07ad06126b00aec6aa310117e706f8a4c9d02528a348b20ac714", "asm": "OP_RETURN 00007760000172dac894e56a771115d2ceea3a016b46dc7dc7d0968d120d670c1906f999943905847529ed097dd8ea8c866b9ee15baa07ad06126b00aec6aa310117e706f8a4c9d02528a348b20ac714"}, "value": 0.0, "n": 1}], "hex": "01000000019b99554a0046a93316006ecb8bad066ab17944627559841babbb7352a68747c6010000006b483045022100c33bb1a04bd08b3649d65468b44c637c4d92e01fb1d74de4ed3c4933203b303f022053ea76919049e3dfe0d817a2a08983bad50721a7c7d04175b2c19cb73f8f7152012102dfbfdead907573499a6da6309ae0a665683237df2a70c1032891194421ce1282ffffffff02cb4d0000000000001976a91405b3b01229ae28cb530d012bdc515770246c3c0288ac0000000000000000536a4c5000007760000172dac894e56a771115d2ceea3a016b46dc7dc7d0968d120d670c1906f999943905847529ed097dd8ea8c866b9ee15baa07ad06126b00aec6aa310117e706f8a4c9d02528a348b20ac71400000000", "vin": [{"sequence": 4294967295, "scriptSig": {"hex": "483045022100c33bb1a04bd08b3649d65468b44c637c4d92e01fb1d74de4ed3c4933203b303f022053ea76919049e3dfe0d817a2a08983bad50721a7c7d04175b2c19cb73f8f7152012102dfbfdead907573499a6da6309ae0a665683237df2a70c1032891194421ce1282", "asm": "3045022100c33bb1a04bd08b3649d65468b44c637c4d92e01fb1d74de4ed3c4933203b303f022053ea76919049e3dfe0d817a2a08983bad50721a7c7d04175b2c19cb73f8f7152[ALL] 02dfbfdead907573499a6da6309ae0a665683237df2a70c1032891194421ce1282"}, "vout": 1, "txid": "c64787a65273bbab1b845975624479b16a06ad8bcb6e001633a946004a55999b"}], "txid": "6b9d13f1ec136a289a50be8e781b08d27c080f79aadb8e27d4b8216a8214bb3d", "blocktime": 1537869901, "version": 1, "confirmations": 11522, "time": 1537869901, "locktime": 0, "vsize": 284, "size": 284}