{"hash": "6b9e0e0865d088ee5f0e3cf1723a038f3ac9294159d5c58891aee0905fb65098", "blockhash": "0000000000000000001f0ddff1eddb255c1121bcd4da4f1bc9a0da00cae72433", "vout": [{"scriptPubKey": {"reqSigs": 1, "hex": "76a91422ce0f07a9c81edf9646d2d0cd3e39a53ba9d4d288ac", "addresses": ["14B2pjUxn3WrNQHUNjTUM1ozy3XG7KsmBp"], "asm": "OP_DUP OP_HASH160 22ce0f07a9c81edf9646d2d0cd3e39a53ba9d4d2 OP_EQUALVERIFY OP_CHECKSIG", "type": "pubkeyhash"}, "value": 0.00061926, "n": 0}, {"scriptPubKey": {"reqSigs": 1, "hex": "76a9149868f191ae6ec8e3b019e39cff6577ce511ccb0788ac", "addresses": ["1EtsRmdHxX4n6Q1ARFF2mhGAV8AT54B2qi"], "asm": "OP_DUP OP_HASH160 9868f191ae6ec8e3b019e39cff6577ce511ccb07 OP_EQUALVERIFY OP_CHECKSIG", "type": "pubkeyhash"}, "value": 0.00165469, "n": 1}], "hex": "0100000001a378ad6fff42f0adc8c6b96148f15f950f85e0c32dd7b6ccaca3513bd0bc1b65000000006b483045022100ca0c9c571ebd1f58b9ff2236f2eb78f53cc314953c0c40adb74727950fdf6d7d022006059dce7c1c3b910b75476522fd25a84d3e7674b434e1c98a6948ba9329f3220121034bfe5bec25bfccd82e7d60fad208b01301f353fe021bfdbb46c755897a801aaeffffffff02e6f10000000000001976a91422ce0f07a9c81edf9646d2d0cd3e39a53ba9d4d288ac5d860200000000001976a9149868f191ae6ec8e3b019e39cff6577ce511ccb0788ac00000000", "vin": [{"sequence": 4294967295, "scriptSig": {"hex": "483045022100ca0c9c571ebd1f58b9ff2236f2eb78f53cc314953c0c40adb74727950fdf6d7d022006059dce7c1c3b910b75476522fd25a84d3e7674b434e1c98a6948ba9329f3220121034bfe5bec25bfccd82e7d60fad208b01301f353fe021bfdbb46c755897a801aae", "asm": "3045022100ca0c9c571ebd1f58b9ff2236f2eb78f53cc314953c0c40adb74727950fdf6d7d022006059dce7c1c3b910b75476522fd25a84d3e7674b434e1c98a6948ba9329f322[ALL] 034bfe5bec25bfccd82e7d60fad208b01301f353fe021bfdbb46c755897a801aae"}, "vout": 0, "txid": "651bbcd03b51a3acccb6d72dc3e0850f955ff14861b9c6c8adf042ff6fad78a3"}], "txid": "6b9e0e0865d088ee5f0e3cf1723a038f3ac9294159d5c58891aee0905fb65098", "blocktime": 1537872018, "version": 1, "confirmations": 11489, "time": 1537872018, "locktime": 0, "vsize": 226, "size": 226}