{"hash": "6ba5746f7d8c99c9b4314c398232e93804d89b8668566a2766739d6a15ec9cc2", "blockhash": "0000000000000000000e13cef7c366c0283d82e591d1acd082e914b08063cdf1", "vout": [{"scriptPubKey": {"reqSigs": 1, "hex": "76a914504050d7d2567bf5bd97210da95de5e740e26dc788ac", "addresses": ["18KL75zbNAjEUoD34mskkkLPMLTXhWcNij"], "asm": "OP_DUP OP_HASH160 504050d7d2567bf5bd97210da95de5e740e26dc7 OP_EQUALVERIFY OP_CHECKSIG", "type": "pubkeyhash"}, "value": 0.0007558, "n": 0}, {"scriptPubKey": {"type": "nulldata", "hex": "6a4c50000077a000016cc4a30cf5adfb3104be776caf6c953dd567cf27e7e3ef3236678a625097ed41c24f633076f6d60fb134714faf375baa0e4706150276c1383d2fbc9a9526289ac0f6612cd74e33776ee4", "asm": "OP_RETURN 000077a000016cc4a30cf5adfb3104be776caf6c953dd567cf27e7e3ef3236678a625097ed41c24f633076f6d60fb134714faf375baa0e4706150276c1383d2fbc9a9526289ac0f6612cd74e33776ee4"}, "value": 0.0, "n": 1}], "hex": "010000000151a2bc3f15fb820ee633a3db734cf1d4bfc4d3a61b2bffb03f8f63bfa32647e5010000006b4830450221009605568bb7f48e3968732dba4db3961ca5b25f1fc345a954bb8fa6222eb5e8a80220658854172c5b280a4fa4ccd7aea74252098b7748162d9684a82f2809e8b970a6012102c3c8ec49dfdee92c93aab6a4299e58dcab6ece7bf264d3efcd35ddf8daca0088ffffffff023c270100000000001976a914504050d7d2567bf5bd97210da95de5e740e26dc788ac0000000000000000536a4c50000077a000016cc4a30cf5adfb3104be776caf6c953dd567cf27e7e3ef3236678a625097ed41c24f633076f6d60fb134714faf375baa0e4706150276c1383d2fbc9a9526289ac0f6612cd74e33776ee400000000", "vin": [{"sequence": 4294967295, "scriptSig": {"hex": "4830450221009605568bb7f48e3968732dba4db3961ca5b25f1fc345a954bb8fa6222eb5e8a80220658854172c5b280a4fa4ccd7aea74252098b7748162d9684a82f2809e8b970a6012102c3c8ec49dfdee92c93aab6a4299e58dcab6ece7bf264d3efcd35ddf8daca0088", "asm": "30450221009605568bb7f48e3968732dba4db3961ca5b25f1fc345a954bb8fa6222eb5e8a80220658854172c5b280a4fa4ccd7aea74252098b7748162d9684a82f2809e8b970a6[ALL] 02c3c8ec49dfdee92c93aab6a4299e58dcab6ece7bf264d3efcd35ddf8daca0088"}, "vout": 1, "txid": "e54726a3bf638f3fb0ff2b1ba6d3c4bfd4f14c73dba333e60e82fb153fbca251"}], "txid": "6ba5746f7d8c99c9b4314c398232e93804d89b8668566a2766739d6a15ec9cc2", "blocktime": 1537871767, "version": 1, "confirmations": 11493, "time": 1537871767, "locktime": 0, "vsize": 284, "size": 284}