{"hash": "c5aff5f76ad8137662f59cf00ff103161a777a0876a09a8632e1c8a2a3f8607f", "blockhash": "0000000000000000000dcc0f55137456b1a82d3642486a52398922ac4d620174", "vout": [{"scriptPubKey": {"reqSigs": 1, "hex": "76a914a05a63f048addabdc35f815727c1865ff5654ec788ac", "addresses": ["1FcsQ8N1H5jGgkvet9HqvfBnAKcfz4VXWG"], "asm": "OP_DUP OP_HASH160 a05a63f048addabdc35f815727c1865ff5654ec7 OP_EQUALVERIFY OP_CHECKSIG", "type": "pubkeyhash"}, "value": 0.00462, "n": 0}, {"scriptPubKey": {"reqSigs": 1, "hex": "a914627aa52932456d89054bd84f86246af3b71b93a887", "addresses": ["3Afj4stdiLG9EktGrMbm252ySonnhYaz8v"], "asm": "OP_HASH160 627aa52932456d89054bd84f86246af3b71b93a8 OP_EQUAL", "type": "scripthash"}, "value": 0.60634252, "n": 1}], "hex": "01000000000101fbf9aae7421488699e5317c44ec8c878315ca6f317f011279721b0387e5b613901000000232200205fdd641234b13964b223bd85ad2a4a667ca2099df3d42a1d3b45706a8d81abf0ffffffff02b00c0700000000001976a914a05a63f048addabdc35f815727c1865ff5654ec788ac8c349d030000000017a914627aa52932456d89054bd84f86246af3b71b93a887040047304402200869457903e67cbdff25f624c320b2fa60bcbe625872d01e2e56739155316081022014240d3bcb235f3b53501794531d89c0f5276208d7201798570f3372b6e8bc6f0147304402203fe7d31d8ec3e89488039f799b5f550ad26329ac077d79d5e47aad4e806b848b02203a13ad42bb05729fb4e79f564d17a830673ea72b6ae7e817cd82be9e01bd76110147522103dcde3832fa56def7b4e783faad1b8af85c3cdd74a5ff4f3c7c216b1075c18da12103c70ae8ded79be1afda73b9ce5ea14a3878908ee160d66a9a717e792bb6db276952ae00000000", "vin": [{"txinwitness": ["", "304402200869457903e67cbdff25f624c320b2fa60bcbe625872d01e2e56739155316081022014240d3bcb235f3b53501794531d89c0f5276208d7201798570f3372b6e8bc6f01", "304402203fe7d31d8ec3e89488039f799b5f550ad26329ac077d79d5e47aad4e806b848b02203a13ad42bb05729fb4e79f564d17a830673ea72b6ae7e817cd82be9e01bd761101", "522103dcde3832fa56def7b4e783faad1b8af85c3cdd74a5ff4f3c7c216b1075c18da12103c70ae8ded79be1afda73b9ce5ea14a3878908ee160d66a9a717e792bb6db276952ae"], "sequence": 4294967295, "scriptSig": {"hex": "2200205fdd641234b13964b223bd85ad2a4a667ca2099df3d42a1d3b45706a8d81abf0", "asm": "00205fdd641234b13964b223bd85ad2a4a667ca2099df3d42a1d3b45706a8d81abf0"}, "vout": 1, "txid": "39615b7e38b021972711f017f3a65c3178c8c84ec417539e69881442e7aaf9fb"}], "txid": "6bb08bc7ac226eae2127d787ef047afb30595b10c68644f5ce72bcb890dec267", "blocktime": 1537870268, "version": 1, "confirmations": 11518, "time": 1537870268, "locktime": 0, "vsize": 207, "size": 372}