{"hash": "6bb69ab7145bc964770495298ba8b0c5ba4583cdb58de5e8adfee7524ca7b778", "blockhash": "00000000000000000017f5eb5941039fbcee6240d03bc1f2f8e35350df66a1d8", "vout": [{"scriptPubKey": {"reqSigs": 1, "hex": "a9147ab76514cb5156ffbd807926dfa8e057f362526887", "addresses": ["3Cst4SjfMSDSa5PUjngXmxbbt2oxBnFQax"], "asm": "OP_HASH160 7ab76514cb5156ffbd807926dfa8e057f3625268 OP_EQUAL", "type": "scripthash"}, "value": 0.01846353, "n": 0}, {"scriptPubKey": {"reqSigs": 1, "hex": "76a9148b9c468397f9fc254a2bd2f033e52fa1b37899b388ac", "addresses": ["1DjC8sctH8ePz6PMnfHAxHzZHgyKXCmS4P"], "asm": "OP_DUP OP_HASH160 8b9c468397f9fc254a2bd2f033e52fa1b37899b3 OP_EQUALVERIFY OP_CHECKSIG", "type": "pubkeyhash"}, "value": 0.01053704, "n": 1}], "hex": "0100000001fe4ece9f818e16bc664394047790ffed46bb472ed60010c5ede5f92e0f3272e3010000006b48304502210096798d512beaa6abe09748428c24e749cdf0c72cf34e10f546c4b0857f990eb002200fcd7c28c0a2375c90addecc0af217532b75021331d997d053d5e516574aac140121025e7b072d50c6ab3937e91b7a2b3d1cb08cc42de16d508c60136a74d72fc73572ffffffff02512c1c000000000017a9147ab76514cb5156ffbd807926dfa8e057f36252688708141000000000001976a9148b9c468397f9fc254a2bd2f033e52fa1b37899b388ac00000000", "vin": [{"sequence": 4294967295, "scriptSig": {"hex": "48304502210096798d512beaa6abe09748428c24e749cdf0c72cf34e10f546c4b0857f990eb002200fcd7c28c0a2375c90addecc0af217532b75021331d997d053d5e516574aac140121025e7b072d50c6ab3937e91b7a2b3d1cb08cc42de16d508c60136a74d72fc73572", "asm": "304502210096798d512beaa6abe09748428c24e749cdf0c72cf34e10f546c4b0857f990eb002200fcd7c28c0a2375c90addecc0af217532b75021331d997d053d5e516574aac14[ALL] 025e7b072d50c6ab3937e91b7a2b3d1cb08cc42de16d508c60136a74d72fc73572"}, "vout": 1, "txid": "e372320f2ef9e5edc51000d62e47bb46edff907704944366bc168e819fce4efe"}], "txid": "6bb69ab7145bc964770495298ba8b0c5ba4583cdb58de5e8adfee7524ca7b778", "blocktime": 1537874412, "version": 1, "confirmations": 11467, "time": 1537874412, "locktime": 0, "vsize": 224, "size": 224}