{"hash": "0b31cc57d6b2dc686833403e04d683ee30e0f8cea4008eb406846cdd402654fe", "blockhash": "0000000000000000000baef3f32e3676a92c3b2e5da21b426e4f302fc371ce76", "vout": [{"scriptPubKey": {"reqSigs": 1, "hex": "76a9146a8067cb2bbc5c1d7986ebe18f17576175eeb9b988ac", "addresses": ["1Ai8T6qfvSXTVDHEcNxei5h6e6LyUm5MkH"], "asm": "OP_DUP OP_HASH160 6a8067cb2bbc5c1d7986ebe18f17576175eeb9b9 OP_EQUALVERIFY OP_CHECKSIG", "type": "pubkeyhash"}, "value": 7.0, "n": 0}, {"scriptPubKey": {"reqSigs": 1, "hex": "a9149ab65cdbd31f76a18289d395614b3b2c96ebfd5587", "addresses": ["3Fo4SsRcLQAqFYYeXcd9eyAaUsUQegiqq6"], "asm": "OP_HASH160 9ab65cdbd31f76a18289d395614b3b2c96ebfd55 OP_EQUAL", "type": "scripthash"}, "value": 0.59051948, "n": 1}], "hex": "01000000000103103273db2739efa3462f3f04c385111c9db2e0ce4c5680d2e164e1407cdbab2b020000001716001437a28b37d702b11ed8da2b6777449c65bda5bd95ffffffffd7ded0d5be81bb428ebfc763af51968685b06fef08e9064a636b408c21adc2c901000000171600142aba003802d3495a5a249dd416bcae199e99e027ffffffffa1bf9ebca49273d18c49e819a407fc88d912efa02e1897c863ac443bf20c78430100000017160014e4df374cf13277c46f6db4a079838d7aae2fe916ffffffff020027b929000000001976a9146a8067cb2bbc5c1d7986ebe18f17576175eeb9b988acac0f85030000000017a9149ab65cdbd31f76a18289d395614b3b2c96ebfd5587024730440220377158d37493976ae8fbfe56751161a3fba442f5a8f965e9bbfc287a9b3f7fb0022042c0e109f0fc4ddd1c6c9d05a734a46af40242f6a39dc7ca8cbbaeaa2e8b837e0121039baeff2fd1544c0f2e6ab431448b2d0b3b60cfc4af9379cf3da5359cde9662440247304402202cb88e8375e288e974b19119bf197e341753e41945327d91ca4bf62b81d50dfd022025325987902598b6343991c10953b93050f6c7036af1f7a65d9ed74101dc9b0901210320c9cedde4b160d8ef3b182f45b35567a8ec36e45243b1f7938741934ce9764202483045022100e4b394d543d97b712e585cf8b6b77b4eba1da7cd756026c9a0bc9582fb88dbc802205e4184a36083f46a2b9b5e6d7d39f194b18770b58f7f375f88b92efc9069918d01210378bbbe9bb5ecc41f0d97b6dcddb8f493d48b8f18c1af3559833b5d180f01625e00000000", "vin": [{"txinwitness": ["30440220377158d37493976ae8fbfe56751161a3fba442f5a8f965e9bbfc287a9b3f7fb0022042c0e109f0fc4ddd1c6c9d05a734a46af40242f6a39dc7ca8cbbaeaa2e8b837e01", "039baeff2fd1544c0f2e6ab431448b2d0b3b60cfc4af9379cf3da5359cde966244"], "sequence": 4294967295, "scriptSig": {"hex": "16001437a28b37d702b11ed8da2b6777449c65bda5bd95", "asm": "001437a28b37d702b11ed8da2b6777449c65bda5bd95"}, "vout": 2, "txid": "2babdb7c40e164e1d280564ccee0b29d1c1185c3043f2f46a3ef3927db733210"}, {"txinwitness": ["304402202cb88e8375e288e974b19119bf197e341753e41945327d91ca4bf62b81d50dfd022025325987902598b6343991c10953b93050f6c7036af1f7a65d9ed74101dc9b0901", "0320c9cedde4b160d8ef3b182f45b35567a8ec36e45243b1f7938741934ce97642"], "sequence": 4294967295, "scriptSig": {"hex": "1600142aba003802d3495a5a249dd416bcae199e99e027", "asm": "00142aba003802d3495a5a249dd416bcae199e99e027"}, "vout": 1, "txid": "c9c2ad218c406b634a06e908ef6fb085869651af63c7bf8e42bb81bed5d0ded7"}, {"txinwitness": ["3045022100e4b394d543d97b712e585cf8b6b77b4eba1da7cd756026c9a0bc9582fb88dbc802205e4184a36083f46a2b9b5e6d7d39f194b18770b58f7f375f88b92efc9069918d01", "0378bbbe9bb5ecc41f0d97b6dcddb8f493d48b8f18c1af3559833b5d180f01625e"], "sequence": 4294967295, "scriptSig": {"hex": "160014e4df374cf13277c46f6db4a079838d7aae2fe916", "asm": "0014e4df374cf13277c46f6db4a079838d7aae2fe916"}, "vout": 1, "txid": "43780cf23b44ac63c897182ea0ef12d988fc07a419e8498cd17392a4bc9ebfa1"}], "txid": "6bc19603e266c93534d8679e3a8b6d06a1004a309ab7ae26c249a97a5b38be3c", "blocktime": 1537876114, "version": 1, "confirmations": 11459, "time": 1537876114, "locktime": 0, "vsize": 349, "size": 592}