{"hash": "6bc814f2980f0b1979a9cd4c4f4c6a8ae3fe633c2f1fb55deb14915ebbe4e3ed", "blockhash": "0000000000000000001cda96e906b7601b7a6fb1a3b62bca570a9e5d8f4b3de1", "vout": [{"scriptPubKey": {"reqSigs": 1, "hex": "76a9142a4fc9eed520f7cdc18e0d0f8cd8ef51583a513188ac", "addresses": ["14rixt35kugWKgKe3hUgUBTsQ1j74Xke5b"], "asm": "OP_DUP OP_HASH160 2a4fc9eed520f7cdc18e0d0f8cd8ef51583a5131 OP_EQUALVERIFY OP_CHECKSIG", "type": "pubkeyhash"}, "value": 0.00011483, "n": 0}, {"scriptPubKey": {"reqSigs": 1, "hex": "76a9146790b379a557461d9f5ac9306edfc2613993a6ad88ac", "addresses": ["1ASbwmQ4n4UqagfnukZ9pp9SvPvEGrcC28"], "asm": "OP_DUP OP_HASH160 6790b379a557461d9f5ac9306edfc2613993a6ad OP_EQUALVERIFY OP_CHECKSIG", "type": "pubkeyhash"}, "value": 0.00031223, "n": 1}], "hex": "0100000002291d3e3fcf99f275a7fba6bb24652b28128dbd8693ebc8845018e5d993adb2a0030000006b4830450221008d5728b34d22563947cef0793345412451f6da546bce17a521f5fb5c6dc1683702202b410a37c9f8a7359a3f9f9a1f734ea72e3e8f1ee569b0bb6a7e560cbfbddee3012102f2e21e836e72b8933d2b3c262b0f759de56dc29461c5088bec9691fab77d71cdffffffffe2d7185099e82c97a55543841fb9df6d68b82dc74737b0aa2485c537da0329f7000000006a4730440220651019b8d50bac625f1e9cba0dc79c3fcd8a227bd3434e220e787cb1678919cb02202081df1d474e1253e3910bbdfb18561650a9cac2fd970a2c8f827c1a13a7f75e012103a8e64cfd0cdd78d0f30dc8ee12b08a1807be4e7a02d412295c22f0df8f5709e1ffffffff02db2c0000000000001976a9142a4fc9eed520f7cdc18e0d0f8cd8ef51583a513188acf7790000000000001976a9146790b379a557461d9f5ac9306edfc2613993a6ad88ac00000000", "vin": [{"sequence": 4294967295, "scriptSig": {"hex": "4830450221008d5728b34d22563947cef0793345412451f6da546bce17a521f5fb5c6dc1683702202b410a37c9f8a7359a3f9f9a1f734ea72e3e8f1ee569b0bb6a7e560cbfbddee3012102f2e21e836e72b8933d2b3c262b0f759de56dc29461c5088bec9691fab77d71cd", "asm": "30450221008d5728b34d22563947cef0793345412451f6da546bce17a521f5fb5c6dc1683702202b410a37c9f8a7359a3f9f9a1f734ea72e3e8f1ee569b0bb6a7e560cbfbddee3[ALL] 02f2e21e836e72b8933d2b3c262b0f759de56dc29461c5088bec9691fab77d71cd"}, "vout": 3, "txid": "a0b2ad93d9e5185084c8eb9386bd8d12282b6524bba6fba775f299cf3f3e1d29"}, {"sequence": 4294967295, "scriptSig": {"hex": "4730440220651019b8d50bac625f1e9cba0dc79c3fcd8a227bd3434e220e787cb1678919cb02202081df1d474e1253e3910bbdfb18561650a9cac2fd970a2c8f827c1a13a7f75e012103a8e64cfd0cdd78d0f30dc8ee12b08a1807be4e7a02d412295c22f0df8f5709e1", "asm": "30440220651019b8d50bac625f1e9cba0dc79c3fcd8a227bd3434e220e787cb1678919cb02202081df1d474e1253e3910bbdfb18561650a9cac2fd970a2c8f827c1a13a7f75e[ALL] 03a8e64cfd0cdd78d0f30dc8ee12b08a1807be4e7a02d412295c22f0df8f5709e1"}, "vout": 0, "txid": "f72903da37c58524aab03747c72db8686ddfb91f844355a5972ce8995018d7e2"}], "txid": "6bc814f2980f0b1979a9cd4c4f4c6a8ae3fe633c2f1fb55deb14915ebbe4e3ed", "blocktime": 1537873282, "version": 1, "confirmations": 11485, "time": 1537873282, "locktime": 0, "vsize": 373, "size": 373}