{"hash": "463df7ec241ea5f256adc3d6fc9db82597e6fe195279999fe047b843ca01de98", "blockhash": "0000000000000000000e13cef7c366c0283d82e591d1acd082e914b08063cdf1", "vout": [{"scriptPubKey": {"reqSigs": 1, "hex": "76a914fbf09d5b19cdc1055574742e77a6e586cb8d2e8988ac", "addresses": ["1Py8rMJ2fWuWNyxM9172RU1k8FB21pfX7N"], "asm": "OP_DUP OP_HASH160 fbf09d5b19cdc1055574742e77a6e586cb8d2e89 OP_EQUALVERIFY OP_CHECKSIG", "type": "pubkeyhash"}, "value": 0.00171612, "n": 0}, {"scriptPubKey": {"reqSigs": 1, "hex": "a914412a5a9d44d5834123b7756088f409b7b3a36da687", "addresses": ["37daapNiiDgPEaARWMQCfhGXJo4yF1nTaW"], "asm": "OP_HASH160 412a5a9d44d5834123b7756088f409b7b3a36da6 OP_EQUAL", "type": "scripthash"}, "value": 0.02122078, "n": 1}], "hex": "01000000000101d3252a8c389064ee46961fac9be898ec09e4d98f5cc7c084892f2b16ade92d68010000002322002083f5850b1b9ae687f7cf8d5c77fefcbd87cde420155cd43c20d50f5f293b7ed6ffffffff025c9e0200000000001976a914fbf09d5b19cdc1055574742e77a6e586cb8d2e8988ac5e6120000000000017a914412a5a9d44d5834123b7756088f409b7b3a36da6870400483045022100f947ea23beb8cc2ffd7b85337d928bfce19ffe3a4b0855cf2b7f512bfd498ae902207825f11d627d6cd2f8383ba931dd58b47dd1319355f59329cb9735b29aa7da830147304402203aac56bfaad39d61758bf86167fc9a8f9b1d3e4ffa7b3186d4ef05b6c5321da902204e14eb5297489517467233f488e015ee6c0dbf061a87e46337afec54ccf69ce701475221020511070566b8412d1941b8dc0ded10caa6a6915b609dfa65bb8111255071d3a22103871fc2ca08e6950b38867e8e6a0e94ee625223d3aa0df5c65f414c6d784467e252ae00000000", "vin": [{"txinwitness": ["", "3045022100f947ea23beb8cc2ffd7b85337d928bfce19ffe3a4b0855cf2b7f512bfd498ae902207825f11d627d6cd2f8383ba931dd58b47dd1319355f59329cb9735b29aa7da8301", "304402203aac56bfaad39d61758bf86167fc9a8f9b1d3e4ffa7b3186d4ef05b6c5321da902204e14eb5297489517467233f488e015ee6c0dbf061a87e46337afec54ccf69ce701", "5221020511070566b8412d1941b8dc0ded10caa6a6915b609dfa65bb8111255071d3a22103871fc2ca08e6950b38867e8e6a0e94ee625223d3aa0df5c65f414c6d784467e252ae"], "sequence": 4294967295, "scriptSig": {"hex": "22002083f5850b1b9ae687f7cf8d5c77fefcbd87cde420155cd43c20d50f5f293b7ed6", "asm": "002083f5850b1b9ae687f7cf8d5c77fefcbd87cde420155cd43c20d50f5f293b7ed6"}, "vout": 1, "txid": "682de9ad162b2f8984c0c75c8fd9e409ec98e89bac1f9646ee6490388c2a25d3"}], "txid": "6bca2739bb215422c5b0faec989599df12e516068c34f07d8590dba583a7c5bc", "blocktime": 1537871767, "version": 1, "confirmations": 11495, "time": 1537871767, "locktime": 0, "vsize": 208, "size": 373}