{"hash": "6bd259a0f702e76cb31660ee122afe5f6e26111fc446e77818e51c166a7d7545", "blockhash": "0000000000000000001f76057863aec43deb6fa401d9628bb513d65a8098bfab", "vout": [{"scriptPubKey": {"reqSigs": 1, "hex": "a914a0a18d82e49bd2da25a01533a4fdea7c73e2084787", "addresses": ["3GLMa7wUS2m8cPTKpYRrUgRQp7XQ2owmtD"], "asm": "OP_HASH160 a0a18d82e49bd2da25a01533a4fdea7c73e20847 OP_EQUAL", "type": "scripthash"}, "value": 0.00225735, "n": 0}, {"scriptPubKey": {"reqSigs": 1, "hex": "76a9140fcd0157c524a3f64d0ec2798088d3ce8b8f5dbe88ac", "addresses": ["12SYitiSXTtvQZmgMBPkAGnaZsUUF6GwmP"], "asm": "OP_DUP OP_HASH160 0fcd0157c524a3f64d0ec2798088d3ce8b8f5dbe OP_EQUALVERIFY OP_CHECKSIG", "type": "pubkeyhash"}, "value": 0.03381733, "n": 1}], "hex": "0100000001e39a8f0222039ad2eb2ed936b8bb82b8a5fd84554302d5075bc6b67706c52a6d010000006a473044022009c4b801f08f22b5832d08be9aa65bd32cf85513820e6287aedcbcdd2162912602205c668414142d55941f814d7f95dd046ba0185f3f7a078851a9c85046bbfe31ba01210333d241fade38cac9a69882e2dd8f75de0daea8583df04e2fe44bcc4334cac523ffffffff02c77103000000000017a914a0a18d82e49bd2da25a01533a4fdea7c73e2084787e5993300000000001976a9140fcd0157c524a3f64d0ec2798088d3ce8b8f5dbe88ac00000000", "vin": [{"sequence": 4294967295, "scriptSig": {"hex": "473044022009c4b801f08f22b5832d08be9aa65bd32cf85513820e6287aedcbcdd2162912602205c668414142d55941f814d7f95dd046ba0185f3f7a078851a9c85046bbfe31ba01210333d241fade38cac9a69882e2dd8f75de0daea8583df04e2fe44bcc4334cac523", "asm": "3044022009c4b801f08f22b5832d08be9aa65bd32cf85513820e6287aedcbcdd2162912602205c668414142d55941f814d7f95dd046ba0185f3f7a078851a9c85046bbfe31ba[ALL] 0333d241fade38cac9a69882e2dd8f75de0daea8583df04e2fe44bcc4334cac523"}, "vout": 1, "txid": "6d2ac50677b6c65b07d502435584fda5b882bbb836d92eebd29a0322028f9ae3"}], "txid": "6bd259a0f702e76cb31660ee122afe5f6e26111fc446e77818e51c166a7d7545", "blocktime": 1537873891, "version": 1, "confirmations": 11478, "time": 1537873891, "locktime": 0, "vsize": 223, "size": 223}