{"hash": "7814d0bbb0b11c5c762c3404f57c4b1958a57c922676b439710f7e36d753eedc", "blockhash": "0000000000000000000baef3f32e3676a92c3b2e5da21b426e4f302fc371ce76", "vout": [{"scriptPubKey": {"reqSigs": 1, "hex": "76a91496ba66aa02e546cae7fb8c5351822aae889ed19088ac", "addresses": ["1Ejyf9Rmypbz9TCJWe1GsUVYyLuQdQSF7m"], "asm": "OP_DUP OP_HASH160 96ba66aa02e546cae7fb8c5351822aae889ed190 OP_EQUALVERIFY OP_CHECKSIG", "type": "pubkeyhash"}, "value": 0.221865, "n": 0}, {"scriptPubKey": {"reqSigs": 1, "hex": "a9149fedd0435a5346d19e10dbf067501f04f6a02d3687", "addresses": ["3GGeFcpTvbKcU9so2Fz4C8o4V2C9Du9Ngp"], "asm": "OP_HASH160 9fedd0435a5346d19e10dbf067501f04f6a02d36 OP_EQUAL", "type": "scripthash"}, "value": 4.38357362, "n": 1}], "hex": "010000000001017771a1fe931a4e04c5c9673ed52a3182b52a532bd3d9439e4274e8d97f1fbfb00100000023220020bdce0b87be1099509aee666bf280d91936d77265b9626a3811efa68c794ec6d9ffffffff02048a5201000000001976a91496ba66aa02e546cae7fb8c5351822aae889ed19088ac72cd201a0000000017a9149fedd0435a5346d19e10dbf067501f04f6a02d36870400473044022004a63fcef4d25fa29cc3ed1e299bb537600f70a61d72a71313d36ae420e9145602201f7c9b7823db922a680ba4fa2d4632cd0da4d7da06421b353389e1fa203d1e9e01483045022100818a1cb6f9b424b7587947766361e84fe1bbfbd39d9c24c96e8b9d180b16dc64022023b38112c46a2c0d6f7712d2fc7f912f672d5032ec2eb69f15e2227aac5aa2b70147522103eb143395e1f431f678a743f1647f1b19b73b3255e6eb16378dc614c75af6729821022a8a912ad76544ca20f666a2071879d22db3f19b68028bfb6e15e148dbbe91a252ae00000000", "vin": [{"txinwitness": ["", "3044022004a63fcef4d25fa29cc3ed1e299bb537600f70a61d72a71313d36ae420e9145602201f7c9b7823db922a680ba4fa2d4632cd0da4d7da06421b353389e1fa203d1e9e01", "3045022100818a1cb6f9b424b7587947766361e84fe1bbfbd39d9c24c96e8b9d180b16dc64022023b38112c46a2c0d6f7712d2fc7f912f672d5032ec2eb69f15e2227aac5aa2b701", "522103eb143395e1f431f678a743f1647f1b19b73b3255e6eb16378dc614c75af6729821022a8a912ad76544ca20f666a2071879d22db3f19b68028bfb6e15e148dbbe91a252ae"], "sequence": 4294967295, "scriptSig": {"hex": "220020bdce0b87be1099509aee666bf280d91936d77265b9626a3811efa68c794ec6d9", "asm": "0020bdce0b87be1099509aee666bf280d91936d77265b9626a3811efa68c794ec6d9"}, "vout": 1, "txid": "b0bf1f7fd9e874429e43d9d32b532ab582312ad53e67c9c5044e1a93fea17177"}], "txid": "6be729cb5924163b09f88c69f1000b208222513d6bfdbfb0f2aeeaa5c518aed4", "blocktime": 1537876114, "version": 1, "confirmations": 11462, "time": 1537876114, "locktime": 0, "vsize": 208, "size": 373}