{"hash": "6bedce371fd0e7590ca13609183bab75ed173dd8bd1907f1ea3d82d55914f66e", "blockhash": "00000000000000000004ffacab907a6b429b9a5745fa0b75af4234bf69dd7176", "vout": [{"scriptPubKey": {"reqSigs": 1, "hex": "76a914a5b13e40b71643d942da2f892cc377e1adfc077588ac", "addresses": ["1G76piyaLFdSKdLYyqpm25Vv6e5J7K6W5Y"], "asm": "OP_DUP OP_HASH160 a5b13e40b71643d942da2f892cc377e1adfc0775 OP_EQUALVERIFY OP_CHECKSIG", "type": "pubkeyhash"}, "value": 0.00026191, "n": 0}, {"scriptPubKey": {"reqSigs": 1, "hex": "a914ae5a01305a330db3fcfd2678e76530f00e257bb387", "addresses": ["3HauKZ7knjfditq1BeCD4JrvUaJBBaWqpk"], "asm": "OP_HASH160 ae5a01305a330db3fcfd2678e76530f00e257bb3 OP_EQUAL", "type": "scripthash"}, "value": 0.00987007, "n": 1}], "hex": "01000000014765eada942dc49b7a724f30cfac34bb840dc8af7b81a73a4445b7aefed2092c010000006a473044022048d10a3f39cf8dd22cb281765f759b36850ee8805cb6f3ea2a771c5c260eed870220367f0051a0a3049dff35275c9b405a9182dc3e4eb847e2c4aafea4b433a84e4a01210272b40a039d9181380ed47a18bf6374cd9faddc12134deb3cbee71816b1e970ebffffffff024f660000000000001976a914a5b13e40b71643d942da2f892cc377e1adfc077588ac7f0f0f000000000017a914ae5a01305a330db3fcfd2678e76530f00e257bb38700000000", "vin": [{"sequence": 4294967295, "scriptSig": {"hex": "473044022048d10a3f39cf8dd22cb281765f759b36850ee8805cb6f3ea2a771c5c260eed870220367f0051a0a3049dff35275c9b405a9182dc3e4eb847e2c4aafea4b433a84e4a01210272b40a039d9181380ed47a18bf6374cd9faddc12134deb3cbee71816b1e970eb", "asm": "3044022048d10a3f39cf8dd22cb281765f759b36850ee8805cb6f3ea2a771c5c260eed870220367f0051a0a3049dff35275c9b405a9182dc3e4eb847e2c4aafea4b433a84e4a[ALL] 0272b40a039d9181380ed47a18bf6374cd9faddc12134deb3cbee71816b1e970eb"}, "vout": 1, "txid": "2c09d2feaeb745443aa7817bafc80d84bb34accf304f727a9bc42d94daea6547"}], "txid": "6bedce371fd0e7590ca13609183bab75ed173dd8bd1907f1ea3d82d55914f66e", "blocktime": 1537875543, "version": 1, "confirmations": 11464, "time": 1537875543, "locktime": 0, "vsize": 223, "size": 223}