{"hash": "2587a812a416002f25d9b182253f6dd4f19f2b85c03d198145a28376211e1f83", "blockhash": "0000000000000000001cda96e906b7601b7a6fb1a3b62bca570a9e5d8f4b3de1", "vout": [{"scriptPubKey": {"reqSigs": 1, "hex": "a914a8a72a55588b0f2bc37140af8162141d66086e6387", "addresses": ["3H4mhdAqcwJfVYhJU3X5zsMoDS45FwR63T"], "asm": "OP_HASH160 a8a72a55588b0f2bc37140af8162141d66086e63 OP_EQUAL", "type": "scripthash"}, "value": 0.27, "n": 0}, {"scriptPubKey": {"reqSigs": 1, "hex": "a9142f33b7268193de414233b1f25be5aac7d1e096a787", "addresses": ["35zbdozGhVrahEh4tEqbrGyjiA9N2js93d"], "asm": "OP_HASH160 2f33b7268193de414233b1f25be5aac7d1e096a7 OP_EQUAL", "type": "scripthash"}, "value": 0.00314528, "n": 1}], "hex": "0100000000010eb29db610a1d6b696fc92a42589e42c273005692cc576c2370e1b170429c1fcf7010000002322002028226475d48b5636a8c5b77bad2fcad76c7eae9e2cb229445d42bb89cb8db80bffffffffc6063bd788ae97191ea6a30cc679a535e19a254708191d087e2e49028119029d0100000023220020b73293087391da8539c1f6ae76ce415e6f820c5e779877942de974d88e1df935ffffffffc872289e037992305dc523ec3f7d41ee9e550a17be6ea1bf1e4db0d864fe97ae0b000000232200201fab263adb3271161667ec6940a07c10bf3e096a01f2d49e38c33caa4ece7c8bffffffffa6759603f6f4b6fad2c0480df8223b0c136466a9718a5b7f5944b4921b944eb700000000232200208bf7037727bd21697c22d31a49f48e957dd2ceecdebeec7b53cce4327f5d01dbffffffffa4a88b55b409ae474428aece2465907825d0a43d97a09db2ec6a8cc05969912c0600000023220020d332695c35b28f0b7b34e313c86461c9b6f3a87c35735d4d71ddb7d06fdbf92cffffffff2f3390c64dc6decf498b15b9947719a6ad0516706950d50684c95651fec246d900000000232200208bf7037727bd21697c22d31a49f48e957dd2ceecdebeec7b53cce4327f5d01dbffffffff25520f9a7d08c8809244975d35dc109ce4c375159411fc07d08e06de4c64d5c40100000023220020cd8eee5aa1086b74ddb5986129347a737949fe0354e077fbd5a044ef1d1a939effffffffdd64257f2bce48eb60ade847b72b0f06cbdc2a4a32b14b570ca4c17477c8f8d10600000023220020bd3d8e9f029bc72e34319bcd6b2e08892e7eb772bcf1c75dfb309f7291a72654ffffffffcdfc3492a9c3d10ea2f19659fb3c85839f340d99b8a2c31674442bec9890362400000000232200201eeb18224409cd0bc7610b6bea91b98fece86a1f26c7159cbd3d44ec9828b385ffffffff7b02fe17ecef0498fd869a61fdf5f9ed7bb68467743d6f173260be68645d386900000000232200208bf7037727bd21697c22d31a49f48e957dd2ceecdebeec7b53cce4327f5d01dbffffffff3d69e17221564a8b63ea5998a973b4bc8dcc8666f4dff7fd63f816920c95e33601000000232200201298cf908812e7c3becdf73cc0fa497d8abc256d656048d10bf71df379132170ffffffff3771492b24c6c633dada04f8d638047ea1388f36b5a22ac1985c8da428db8ed70100000023220020acf589854faf6056d131d82143b879c61bcb2af7adb69d87bf32bee4fdf16ba4fffffffff1e0e54e10ce999d8c9b69d93913d686f857cbaad769ee97ce814afe7b66f95a0000000023220020acf589854faf6056d131d82143b879c61bcb2af7adb69d87bf32bee4fdf16ba4ffffffff36e0f42ec36037a668be37b46224decf997fec964dc7cc761d57609efcbb439201000000232200207df75825ccb18ca44e6edd40cd23e0ea12c74ff5f79d467e2153a3ac245595a5ffffffff02c0fc9b010000000017a914a8a72a55588b0f2bc37140af8162141d66086e6387a0cc04000000000017a9142f33b7268193de414233b1f25be5aac7d1e096a7870400483045022100aa74f6fb51bca8e3109f01ccd41f24290543cd62346a12ae60b5dda276c191e0022063094ef5f3e6e04499a9405dcd36afa2bfd6f368f7979d4b8cf2d3189fbe417a0147304402204707e7d60cc7079b215e052801e133634ee67ca74d929d0738e0d7b586e8f931022064ea5cf689dc21df3b91b484db3062c6165c79bf3c73422dc39de2aa7e787b2c01475221031224f72d516bed3ac116865c2992a05c32f3be8fab92c6235c0f78de65b07d7f210277ef6dd2cb54d3f10b800dfdb27ddeb01971c50be66800e894981b7792c0967c52ae04004830450221008b29a62a05e4532aefb0374d48683b76f679fdee363e09c61bc04b7876936f5002200e32823c00449d47021ebfe6ae0cb33b4fd78d00ce5b5a73aef08ec06396fd0401483045022100beaab672d547c0fe01823d8e9cd9aeb0ec060bbf241a00d93ad4ec94db0f68da02204121561f8785789d1128be437a0509ade366f0c1677a23e6521bf1db89c701d701475221033544a59e999109810e8f5112c3758e6d6ba701b9371f26a3a17a97e05f7b39fd210277ef6dd2cb54d3f10b800dfdb27ddeb01971c50be66800e894981b7792c0967c52ae0400473044022045fe93509f1813132ddac86c6d4750d403645ec4c2887c1f90a79eeecf88fa89022013263837b296feddd7a9368a558213b5a782a6ae18ec6b51c2db60d0d9066fba01473044022028bb03683c95103b982605856fc120db7b07cfe4aac919e1b05867fd7163be4902201ffede5964e9586abbc349e702fdf5d2cbbf9efcebe8dff7c77292be542591bf0147522103f43e4514463d7e478c67350bbef7255bf5be2d17cd79613a415fd2dffaf6cec8210277ef6dd2cb54d3f10b800dfdb27ddeb01971c50be66800e894981b7792c0967c52ae040048304502210087013c7b31d4205d71fd63ef778330221d65810e6133714a197cbd7f5227adeb022063c7d8b9d9ec2d2cf00d7ef6c9087a9ffcf45986bca8b6a2a566c6fe35e70bfd01483045022100beee795db587256062552e398c9e644b1696a575f7b6a905f6db5528d9f2ba7002207138a0f2bd2bda252211bbb6b0c89cc367306f28ed157ea262e66e34a30ff51f0147522102fc2827936d1d380492585b120716453714cccc424ea5e019dcd1f544e313826d210277ef6dd2cb54d3f10b800dfdb27ddeb01971c50be66800e894981b7792c0967c52ae040047304402201c1b5a2763b12c54930c587d489830bdf88c6fc5cec14623d4c7db555d3fbdde02201010b5cedbb731fbe117e9ad73b1ca49afeec7e9fe6997116383e6de34f38efb0147304402202d3436540b4a6176541a2617aed940fd64635919d864c8364d4e64a261383c8e022020c15a22f2fbac973eabc76c12e088813f52461d3d3d6a52b4b30b78eedad43c0147522103b3a8547ffa10411e00cd460e7ca725cbdeac62066282119e33b5ab7045f245a1210277ef6dd2cb54d3f10b800dfdb27ddeb01971c50be66800e894981b7792c0967c52ae040047304402205fd3614ccf050c94014d95577c8e20c0c363eddb385d18c072f04a8a7b635ecf02204a156f8f7d90956fda22acde3ec908f403782b74b303f5241769ff53677c69e201483045022100b3ec86f2e51d05b4450717e6b55ddc17adc7ed06494a94752b8b09293a67da9002206462b65773402c1b2413d6b09029892efd462b1c9e2846b74c3c9e6ef19ea5e00147522102fc2827936d1d380492585b120716453714cccc424ea5e019dcd1f544e313826d210277ef6dd2cb54d3f10b800dfdb27ddeb01971c50be66800e894981b7792c0967c52ae040047304402206372c29f5b742cc5a6a2d2c49e3c8382fbae69ffe1aa51bcbb9a60246ff3f864022041866be741b806adda91d0bea52a50211985c2f9ac38b7b3f2205119847fd925014730440220480433395fb4c82f06d28f1fb84f69dbee8b0a9d2edb463b89d3f400c388045c022004045aabf71ddb769f2348dba64559274d56044c2cbaee16f15dc91fa8a3db8b0147522102f3c4b1f6b34648a98262576ee98275e65989031d36b1efc6d82d6bcd2099c696210277ef6dd2cb54d3f10b800dfdb27ddeb01971c50be66800e894981b7792c0967c52ae040047304402200eed32b4ae4fd726fe32e3ef7ce9383be3e71d5023822f2e1ab05ceea61974b40220053a37de1304d53b3f222f6f3c859e9ebda29af783cf77f3c11aff57c1d6b94901473044022004cfab0f6a7ff74c0f88af3380828a6e53ff4eb661787990aa10b4c2a580a54002204a35eb2c2707622e44c6ea54ad1e0cb54861fe69002c2602cbacb0e94995ba7701475221033d3c0c305312e12d56ecd35cc91b0117178ebda62fc2794f04252c7d05f7a1f2210277ef6dd2cb54d3f10b800dfdb27ddeb01971c50be66800e894981b7792c0967c52ae0400473044022026a103cb83e4369e3fb2ca8fc4038fc4a157b21de74c533d031ee9f4fba8ea8102205e44cfb014940ce4718daf509f4c26fd3b36db9beb6596b6fa26f2934777cf9d0147304402200158c074aee5bc8f4395dac056bcc056e72ec566dd231f902b67e87ee3c6f39a0220634fb6ce4333f402c8653d0bcbd920d7fee0ac38cdac1ff022a70bfe86adb4fd014752210337c9ee4f856e27339a970441889b8c2a7f1b5f3c4b45a18d72e25a5ccef8c4c7210277ef6dd2cb54d3f10b800dfdb27ddeb01971c50be66800e894981b7792c0967c52ae0400483045022100e14c9ee04957db85e2ae62f21690ee4380ab4bdb23e4641dd46005a99cf418c402206aa2811806b9ceffaac24d4e72b6fa303cb6f4957f1b51d7f14ecb2f20d1c94801473044022024ad3988d06d9431f82965706cb4522e7cee197efe1783a700339b99de888af502203935952e577e46169295c950e90e69a7410910a579e141a306a1a65d53c1b62e0147522102fc2827936d1d380492585b120716453714cccc424ea5e019dcd1f544e313826d210277ef6dd2cb54d3f10b800dfdb27ddeb01971c50be66800e894981b7792c0967c52ae0400483045022100d36918cac6e3c1588020994e8f1ceb68746540550a211a9c9ccdb0fe77da0ffe02201ec7c1b672db37964e8fb429d463edc892f93b882fc84cbe0af74fdfc0e43dd101473044022100fc6cc299baf0a6735992a26a09cf6dd81466607d3466a587c9a3969d1aab6a14021f659b6d1cb90cb64e4248f3a1f403ed78ccb92cf82edd4960b4b4edfd122d1c01475221038f82d9b3b1b81951c35669dfa6dca29b6302c7c722b97b71e753b5ba7d9c5655210277ef6dd2cb54d3f10b800dfdb27ddeb01971c50be66800e894981b7792c0967c52ae0400483045022100fbb261fa4ffeb6d4b402f73c58f94c0bd33d9559aac25a451d9bd4b8255ee4e5022002b901ff4b574777c4c842bd0f0b7fbc3a24c15da054681835f77ace4f89c81e014730440220087927901591e914f4ec33e53bc1db3da1c5487b30f11b63aa59513afd72c214022060d3c21fd89e0ad4c6386d782a14bae1d8433140769394471706d40f228029790147522103e494b3157e23061b5663efb0b7747f36d3a31cb754d00739772b4bad3a9678a9210277ef6dd2cb54d3f10b800dfdb27ddeb01971c50be66800e894981b7792c0967c52ae04004730440220282ac2b320eaff4e709878a8e15a0fefb5084b7dd9b177d1bb9d1352e19a5e0b0220363392ee011bfa2e8d5210037186b464a0da8f06a5af2ef5020411901c8889ad0147304402200445fe18507a9f1a0fe963f546d840310b594efb3a67d601e901cc7eab2acb83022041b1e79cdaefa930668596635bc29c2255b9a90f52ea4fbfa7942547865bf7dd0147522103e494b3157e23061b5663efb0b7747f36d3a31cb754d00739772b4bad3a9678a9210277ef6dd2cb54d3f10b800dfdb27ddeb01971c50be66800e894981b7792c0967c52ae0400473044022001d9683405660438e2fe3a9500dbd487f56fb4876a56bd62d1596fb8799e53ad0220061c79d1f9222937f369f99113e65edb1a0ab90b8fcfd9bd37229ca272c3b51c01483045022100b49e5f7f70d7f5a55b255de80afe98f9b1eea8d0eeaeb4e8806fd86663fd2349022028ad8faca309575f5f42d94341545807c16b59e506f0e0664b8eeecdbdb21da10147522103b40d664f8715da04de69cd6b497a700c70b1e8c2eb4e82fb12c796c4740ee2ce210277ef6dd2cb54d3f10b800dfdb27ddeb01971c50be66800e894981b7792c0967c52ae00000000", "vin": [{"txinwitness": ["", "3045022100aa74f6fb51bca8e3109f01ccd41f24290543cd62346a12ae60b5dda276c191e0022063094ef5f3e6e04499a9405dcd36afa2bfd6f368f7979d4b8cf2d3189fbe417a01", "304402204707e7d60cc7079b215e052801e133634ee67ca74d929d0738e0d7b586e8f931022064ea5cf689dc21df3b91b484db3062c6165c79bf3c73422dc39de2aa7e787b2c01", "5221031224f72d516bed3ac116865c2992a05c32f3be8fab92c6235c0f78de65b07d7f210277ef6dd2cb54d3f10b800dfdb27ddeb01971c50be66800e894981b7792c0967c52ae"], "sequence": 4294967295, "scriptSig": {"hex": "22002028226475d48b5636a8c5b77bad2fcad76c7eae9e2cb229445d42bb89cb8db80b", "asm": "002028226475d48b5636a8c5b77bad2fcad76c7eae9e2cb229445d42bb89cb8db80b"}, "vout": 1, "txid": "f7fcc12904171b0e37c276c52c690530272ce48925a492fc96b6d6a110b69db2"}, {"txinwitness": ["", "30450221008b29a62a05e4532aefb0374d48683b76f679fdee363e09c61bc04b7876936f5002200e32823c00449d47021ebfe6ae0cb33b4fd78d00ce5b5a73aef08ec06396fd0401", "3045022100beaab672d547c0fe01823d8e9cd9aeb0ec060bbf241a00d93ad4ec94db0f68da02204121561f8785789d1128be437a0509ade366f0c1677a23e6521bf1db89c701d701", "5221033544a59e999109810e8f5112c3758e6d6ba701b9371f26a3a17a97e05f7b39fd210277ef6dd2cb54d3f10b800dfdb27ddeb01971c50be66800e894981b7792c0967c52ae"], "sequence": 4294967295, "scriptSig": {"hex": "220020b73293087391da8539c1f6ae76ce415e6f820c5e779877942de974d88e1df935", "asm": "0020b73293087391da8539c1f6ae76ce415e6f820c5e779877942de974d88e1df935"}, "vout": 1, "txid": "9d02198102492e7e081d190847259ae135a579c60ca3a61e1997ae88d73b06c6"}, {"txinwitness": ["", "3044022045fe93509f1813132ddac86c6d4750d403645ec4c2887c1f90a79eeecf88fa89022013263837b296feddd7a9368a558213b5a782a6ae18ec6b51c2db60d0d9066fba01", "3044022028bb03683c95103b982605856fc120db7b07cfe4aac919e1b05867fd7163be4902201ffede5964e9586abbc349e702fdf5d2cbbf9efcebe8dff7c77292be542591bf01", "522103f43e4514463d7e478c67350bbef7255bf5be2d17cd79613a415fd2dffaf6cec8210277ef6dd2cb54d3f10b800dfdb27ddeb01971c50be66800e894981b7792c0967c52ae"], "sequence": 4294967295, "scriptSig": {"hex": "2200201fab263adb3271161667ec6940a07c10bf3e096a01f2d49e38c33caa4ece7c8b", "asm": "00201fab263adb3271161667ec6940a07c10bf3e096a01f2d49e38c33caa4ece7c8b"}, "vout": 11, "txid": "ae97fe64d8b04d1ebfa16ebe170a559eee417d3fec23c55d309279039e2872c8"}, {"txinwitness": ["", "304502210087013c7b31d4205d71fd63ef778330221d65810e6133714a197cbd7f5227adeb022063c7d8b9d9ec2d2cf00d7ef6c9087a9ffcf45986bca8b6a2a566c6fe35e70bfd01", "3045022100beee795db587256062552e398c9e644b1696a575f7b6a905f6db5528d9f2ba7002207138a0f2bd2bda252211bbb6b0c89cc367306f28ed157ea262e66e34a30ff51f01", "522102fc2827936d1d380492585b120716453714cccc424ea5e019dcd1f544e313826d210277ef6dd2cb54d3f10b800dfdb27ddeb01971c50be66800e894981b7792c0967c52ae"], "sequence": 4294967295, "scriptSig": {"hex": "2200208bf7037727bd21697c22d31a49f48e957dd2ceecdebeec7b53cce4327f5d01db", "asm": "00208bf7037727bd21697c22d31a49f48e957dd2ceecdebeec7b53cce4327f5d01db"}, "vout": 0, "txid": "b74e941b92b444597f5b8a71a96664130c3b22f80d48c0d2fab6f4f6039675a6"}, {"txinwitness": ["", "304402201c1b5a2763b12c54930c587d489830bdf88c6fc5cec14623d4c7db555d3fbdde02201010b5cedbb731fbe117e9ad73b1ca49afeec7e9fe6997116383e6de34f38efb01", "304402202d3436540b4a6176541a2617aed940fd64635919d864c8364d4e64a261383c8e022020c15a22f2fbac973eabc76c12e088813f52461d3d3d6a52b4b30b78eedad43c01", "522103b3a8547ffa10411e00cd460e7ca725cbdeac62066282119e33b5ab7045f245a1210277ef6dd2cb54d3f10b800dfdb27ddeb01971c50be66800e894981b7792c0967c52ae"], "sequence": 4294967295, "scriptSig": {"hex": "220020d332695c35b28f0b7b34e313c86461c9b6f3a87c35735d4d71ddb7d06fdbf92c", "asm": "0020d332695c35b28f0b7b34e313c86461c9b6f3a87c35735d4d71ddb7d06fdbf92c"}, "vout": 6, "txid": "2c916959c08c6aecb29da0973da4d02578906524ceae284447ae09b4558ba8a4"}, {"txinwitness": ["", "304402205fd3614ccf050c94014d95577c8e20c0c363eddb385d18c072f04a8a7b635ecf02204a156f8f7d90956fda22acde3ec908f403782b74b303f5241769ff53677c69e201", "3045022100b3ec86f2e51d05b4450717e6b55ddc17adc7ed06494a94752b8b09293a67da9002206462b65773402c1b2413d6b09029892efd462b1c9e2846b74c3c9e6ef19ea5e001", "522102fc2827936d1d380492585b120716453714cccc424ea5e019dcd1f544e313826d210277ef6dd2cb54d3f10b800dfdb27ddeb01971c50be66800e894981b7792c0967c52ae"], "sequence": 4294967295, "scriptSig": {"hex": "2200208bf7037727bd21697c22d31a49f48e957dd2ceecdebeec7b53cce4327f5d01db", "asm": "00208bf7037727bd21697c22d31a49f48e957dd2ceecdebeec7b53cce4327f5d01db"}, "vout": 0, "txid": "d946c2fe5156c98406d55069701605ada6197794b9158b49cfdec64dc690332f"}, {"txinwitness": ["", "304402206372c29f5b742cc5a6a2d2c49e3c8382fbae69ffe1aa51bcbb9a60246ff3f864022041866be741b806adda91d0bea52a50211985c2f9ac38b7b3f2205119847fd92501", "30440220480433395fb4c82f06d28f1fb84f69dbee8b0a9d2edb463b89d3f400c388045c022004045aabf71ddb769f2348dba64559274d56044c2cbaee16f15dc91fa8a3db8b01", "522102f3c4b1f6b34648a98262576ee98275e65989031d36b1efc6d82d6bcd2099c696210277ef6dd2cb54d3f10b800dfdb27ddeb01971c50be66800e894981b7792c0967c52ae"], "sequence": 4294967295, "scriptSig": {"hex": "220020cd8eee5aa1086b74ddb5986129347a737949fe0354e077fbd5a044ef1d1a939e", "asm": "0020cd8eee5aa1086b74ddb5986129347a737949fe0354e077fbd5a044ef1d1a939e"}, "vout": 1, "txid": "c4d5644cde068ed007fc11941575c3e49c10dc355d97449280c8087d9a0f5225"}, {"txinwitness": ["", "304402200eed32b4ae4fd726fe32e3ef7ce9383be3e71d5023822f2e1ab05ceea61974b40220053a37de1304d53b3f222f6f3c859e9ebda29af783cf77f3c11aff57c1d6b94901", "3044022004cfab0f6a7ff74c0f88af3380828a6e53ff4eb661787990aa10b4c2a580a54002204a35eb2c2707622e44c6ea54ad1e0cb54861fe69002c2602cbacb0e94995ba7701", "5221033d3c0c305312e12d56ecd35cc91b0117178ebda62fc2794f04252c7d05f7a1f2210277ef6dd2cb54d3f10b800dfdb27ddeb01971c50be66800e894981b7792c0967c52ae"], "sequence": 4294967295, "scriptSig": {"hex": "220020bd3d8e9f029bc72e34319bcd6b2e08892e7eb772bcf1c75dfb309f7291a72654", "asm": "0020bd3d8e9f029bc72e34319bcd6b2e08892e7eb772bcf1c75dfb309f7291a72654"}, "vout": 6, "txid": "d1f8c87774c1a40c574bb1324a2adccb060f2bb747e8ad60eb48ce2b7f2564dd"}, {"txinwitness": ["", "3044022026a103cb83e4369e3fb2ca8fc4038fc4a157b21de74c533d031ee9f4fba8ea8102205e44cfb014940ce4718daf509f4c26fd3b36db9beb6596b6fa26f2934777cf9d01", "304402200158c074aee5bc8f4395dac056bcc056e72ec566dd231f902b67e87ee3c6f39a0220634fb6ce4333f402c8653d0bcbd920d7fee0ac38cdac1ff022a70bfe86adb4fd01", "52210337c9ee4f856e27339a970441889b8c2a7f1b5f3c4b45a18d72e25a5ccef8c4c7210277ef6dd2cb54d3f10b800dfdb27ddeb01971c50be66800e894981b7792c0967c52ae"], "sequence": 4294967295, "scriptSig": {"hex": "2200201eeb18224409cd0bc7610b6bea91b98fece86a1f26c7159cbd3d44ec9828b385", "asm": "00201eeb18224409cd0bc7610b6bea91b98fece86a1f26c7159cbd3d44ec9828b385"}, "vout": 0, "txid": "24369098ec2b447416c3a2b8990d349f83853cfb5996f1a20ed1c3a99234fccd"}, {"txinwitness": ["", "3045022100e14c9ee04957db85e2ae62f21690ee4380ab4bdb23e4641dd46005a99cf418c402206aa2811806b9ceffaac24d4e72b6fa303cb6f4957f1b51d7f14ecb2f20d1c94801", "3044022024ad3988d06d9431f82965706cb4522e7cee197efe1783a700339b99de888af502203935952e577e46169295c950e90e69a7410910a579e141a306a1a65d53c1b62e01", "522102fc2827936d1d380492585b120716453714cccc424ea5e019dcd1f544e313826d210277ef6dd2cb54d3f10b800dfdb27ddeb01971c50be66800e894981b7792c0967c52ae"], "sequence": 4294967295, "scriptSig": {"hex": "2200208bf7037727bd21697c22d31a49f48e957dd2ceecdebeec7b53cce4327f5d01db", "asm": "00208bf7037727bd21697c22d31a49f48e957dd2ceecdebeec7b53cce4327f5d01db"}, "vout": 0, "txid": "69385d6468be6032176f3d746784b67bedf9f5fd619a86fd9804efec17fe027b"}, {"txinwitness": ["", "3045022100d36918cac6e3c1588020994e8f1ceb68746540550a211a9c9ccdb0fe77da0ffe02201ec7c1b672db37964e8fb429d463edc892f93b882fc84cbe0af74fdfc0e43dd101", "3044022100fc6cc299baf0a6735992a26a09cf6dd81466607d3466a587c9a3969d1aab6a14021f659b6d1cb90cb64e4248f3a1f403ed78ccb92cf82edd4960b4b4edfd122d1c01", "5221038f82d9b3b1b81951c35669dfa6dca29b6302c7c722b97b71e753b5ba7d9c5655210277ef6dd2cb54d3f10b800dfdb27ddeb01971c50be66800e894981b7792c0967c52ae"], "sequence": 4294967295, "scriptSig": {"hex": "2200201298cf908812e7c3becdf73cc0fa497d8abc256d656048d10bf71df379132170", "asm": "00201298cf908812e7c3becdf73cc0fa497d8abc256d656048d10bf71df379132170"}, "vout": 1, "txid": "36e3950c9216f863fdf7dff46686cc8dbcb473a99859ea638b4a562172e1693d"}, {"txinwitness": ["", "3045022100fbb261fa4ffeb6d4b402f73c58f94c0bd33d9559aac25a451d9bd4b8255ee4e5022002b901ff4b574777c4c842bd0f0b7fbc3a24c15da054681835f77ace4f89c81e01", "30440220087927901591e914f4ec33e53bc1db3da1c5487b30f11b63aa59513afd72c214022060d3c21fd89e0ad4c6386d782a14bae1d8433140769394471706d40f2280297901", "522103e494b3157e23061b5663efb0b7747f36d3a31cb754d00739772b4bad3a9678a9210277ef6dd2cb54d3f10b800dfdb27ddeb01971c50be66800e894981b7792c0967c52ae"], "sequence": 4294967295, "scriptSig": {"hex": "220020acf589854faf6056d131d82143b879c61bcb2af7adb69d87bf32bee4fdf16ba4", "asm": "0020acf589854faf6056d131d82143b879c61bcb2af7adb69d87bf32bee4fdf16ba4"}, "vout": 1, "txid": "d78edb28a48d5c98c12aa2b5368f38a17e0438d6f804dada33c6c6242b497137"}, {"txinwitness": ["", "30440220282ac2b320eaff4e709878a8e15a0fefb5084b7dd9b177d1bb9d1352e19a5e0b0220363392ee011bfa2e8d5210037186b464a0da8f06a5af2ef5020411901c8889ad01", "304402200445fe18507a9f1a0fe963f546d840310b594efb3a67d601e901cc7eab2acb83022041b1e79cdaefa930668596635bc29c2255b9a90f52ea4fbfa7942547865bf7dd01", "522103e494b3157e23061b5663efb0b7747f36d3a31cb754d00739772b4bad3a9678a9210277ef6dd2cb54d3f10b800dfdb27ddeb01971c50be66800e894981b7792c0967c52ae"], "sequence": 4294967295, "scriptSig": {"hex": "220020acf589854faf6056d131d82143b879c61bcb2af7adb69d87bf32bee4fdf16ba4", "asm": "0020acf589854faf6056d131d82143b879c61bcb2af7adb69d87bf32bee4fdf16ba4"}, "vout": 0, "txid": "5af9667bfe4a81ce97ee69d7aacb57f886d61339d9699b8c9d99ce104ee5e0f1"}, {"txinwitness": ["", "3044022001d9683405660438e2fe3a9500dbd487f56fb4876a56bd62d1596fb8799e53ad0220061c79d1f9222937f369f99113e65edb1a0ab90b8fcfd9bd37229ca272c3b51c01", "3045022100b49e5f7f70d7f5a55b255de80afe98f9b1eea8d0eeaeb4e8806fd86663fd2349022028ad8faca309575f5f42d94341545807c16b59e506f0e0664b8eeecdbdb21da101", "522103b40d664f8715da04de69cd6b497a700c70b1e8c2eb4e82fb12c796c4740ee2ce210277ef6dd2cb54d3f10b800dfdb27ddeb01971c50be66800e894981b7792c0967c52ae"], "sequence": 4294967295, "scriptSig": {"hex": "2200207df75825ccb18ca44e6edd40cd23e0ea12c74ff5f79d467e2153a3ac245595a5", "asm": "00207df75825ccb18ca44e6edd40cd23e0ea12c74ff5f79d467e2153a3ac245595a5"}, "vout": 1, "txid": "9243bbfc9e60571d76ccc74d96ec7f99cfde2462b437be68a63760c32ef4e036"}], "txid": "6bf067f171d4b4cf544399ef639621b3511aa5e765778cf3fff65372b11ef891", "blocktime": 1537873282, "version": 1, "confirmations": 11484, "time": 1537873282, "locktime": 0, "vsize": 1904, "size": 4202}