{"hash": "6bf15e267ca2192d3a5d20232cc4497a87108b7439400311621e0e393bbe77af", "blockhash": "0000000000000000000e13cef7c366c0283d82e591d1acd082e914b08063cdf1", "vout": [{"scriptPubKey": {"reqSigs": 1, "hex": "76a914d0aa0cc8695cff8896933c49021d3e226bb95e9188ac", "addresses": ["1L2KGBH8tbhNyPEJwZbaPoKGRog49E1UtF"], "asm": "OP_DUP OP_HASH160 d0aa0cc8695cff8896933c49021d3e226bb95e91 OP_EQUALVERIFY OP_CHECKSIG", "type": "pubkeyhash"}, "value": 0.00356688, "n": 0}, {"scriptPubKey": {"reqSigs": 1, "hex": "a9146836e1f465811a646284837b24ea5a8cb699163987", "addresses": ["3BC3wojFapXsmeQ8Sr5yxYbL8XVAGy5y9K"], "asm": "OP_HASH160 6836e1f465811a646284837b24ea5a8cb6991639 OP_EQUAL", "type": "scripthash"}, "value": 0.02655544, "n": 1}], "hex": "0100000006e91b911808a097703abd9e888a4fff3146ce018cbf83ee3d61f13b98b24c2f24010000006b483045022100eabf1ff033ddda25eb31f297a52b8b92fae1f8a85c6c43f209e3c1898cf13b2902207669f17987755bce6bb673d34a4a58b99674989903eb42c69292dbeade4a9fba01210387b329fb9c6eebeddba5a7b74c72cd5abca93ea5aab84d999929c6d8dc3b6535ffffffff0afeecbf4eb0715d4020f7e71c88be51068facca965e5169ae85e567158da13a000000006b48304502210087add8a454ea29985e8dcda13a795b5c536b464b64df8538fa8b225707ac15de022006b83dc0c9871b844511d7f31c1c118e9b01ef190f1182934fa62f11f801c0ce012103442359ce7589b826c748743b6c35ba09b06c7235c7dbb65999bf4e7cbf648cc1ffffffff211322a675188a1d146d4e27d0d6194282c215e88731882badb2bc8ef938424d000000006a47304402203f4e0caf79bd21fbebd869d629bbfc13cf25e2d614753b2fdfdfbfead39c04cd02200db4fedfaced7d051d05ff875118825515f6d1293f9e741af91698bf1eb266920121029f8efb3cd616312e954f3ebdddb8d729b3a45efee3c0e7d3c6a49d13a88c7d80ffffffff77f3bb351a1604cfeb6cf5b54be805f31f680938a0a6f09fa76094900bd6075c000000006b483045022100a8d5242fefcf30cf740d846d57991b5ccff34a2925ba668af63a9750036e1ef7022069cda8d5dce392385a94f4f300593e888d50ad3d37a14b581e382780057aa5aa01210387b329fb9c6eebeddba5a7b74c72cd5abca93ea5aab84d999929c6d8dc3b6535ffffffff791459e092a78caeccd31d90f3d8ad9eb0d830150544665ee24f0e5d6c0e7d62010000006b483045022100e30a10a915c927a70a62214110c16326ba1c0d2081eacacfba013bc2cec6974e022021973ddacfcc1e3c08a2d2b10ce17d49dd23b5a65f8e19ac9322ae9c3c6f39b801210387b329fb9c6eebeddba5a7b74c72cd5abca93ea5aab84d999929c6d8dc3b6535ffffffff44069f96fb3dbf4a77d12fe9e77cbac80adeddda59db7d02ed812ad3c6d287d2000000006b483045022100f7dbdcdbd01d74c5e7d927faec94472656e67605def6323c832bcaf5cdc1031e022052a184a2a7d39ef5cfe485ba9954e5f93697767cdb9b2920fac4b8885bb894a70121022bcd0cf86da3e19129b393050b9eab33283a38893113dba2f53ff542067e509affffffff0250710500000000001976a914d0aa0cc8695cff8896933c49021d3e226bb95e9188ac388528000000000017a9146836e1f465811a646284837b24ea5a8cb69916398700000000", "vin": [{"sequence": 4294967295, "scriptSig": {"hex": "483045022100eabf1ff033ddda25eb31f297a52b8b92fae1f8a85c6c43f209e3c1898cf13b2902207669f17987755bce6bb673d34a4a58b99674989903eb42c69292dbeade4a9fba01210387b329fb9c6eebeddba5a7b74c72cd5abca93ea5aab84d999929c6d8dc3b6535", "asm": "3045022100eabf1ff033ddda25eb31f297a52b8b92fae1f8a85c6c43f209e3c1898cf13b2902207669f17987755bce6bb673d34a4a58b99674989903eb42c69292dbeade4a9fba[ALL] 0387b329fb9c6eebeddba5a7b74c72cd5abca93ea5aab84d999929c6d8dc3b6535"}, "vout": 1, "txid": "242f4cb2983bf1613dee83bf8c01ce4631ff4f8a889ebd3a7097a00818911be9"}, {"sequence": 4294967295, "scriptSig": {"hex": "48304502210087add8a454ea29985e8dcda13a795b5c536b464b64df8538fa8b225707ac15de022006b83dc0c9871b844511d7f31c1c118e9b01ef190f1182934fa62f11f801c0ce012103442359ce7589b826c748743b6c35ba09b06c7235c7dbb65999bf4e7cbf648cc1", "asm": "304502210087add8a454ea29985e8dcda13a795b5c536b464b64df8538fa8b225707ac15de022006b83dc0c9871b844511d7f31c1c118e9b01ef190f1182934fa62f11f801c0ce[ALL] 03442359ce7589b826c748743b6c35ba09b06c7235c7dbb65999bf4e7cbf648cc1"}, "vout": 0, "txid": "3aa18d1567e585ae69515e96caac8f0651be881ce7f720405d71b04ebfecfe0a"}, {"sequence": 4294967295, "scriptSig": {"hex": "47304402203f4e0caf79bd21fbebd869d629bbfc13cf25e2d614753b2fdfdfbfead39c04cd02200db4fedfaced7d051d05ff875118825515f6d1293f9e741af91698bf1eb266920121029f8efb3cd616312e954f3ebdddb8d729b3a45efee3c0e7d3c6a49d13a88c7d80", "asm": "304402203f4e0caf79bd21fbebd869d629bbfc13cf25e2d614753b2fdfdfbfead39c04cd02200db4fedfaced7d051d05ff875118825515f6d1293f9e741af91698bf1eb26692[ALL] 029f8efb3cd616312e954f3ebdddb8d729b3a45efee3c0e7d3c6a49d13a88c7d80"}, "vout": 0, "txid": "4d4238f98ebcb2ad2b883187e815c2824219d6d0274e6d141d8a1875a6221321"}, {"sequence": 4294967295, "scriptSig": {"hex": "483045022100a8d5242fefcf30cf740d846d57991b5ccff34a2925ba668af63a9750036e1ef7022069cda8d5dce392385a94f4f300593e888d50ad3d37a14b581e382780057aa5aa01210387b329fb9c6eebeddba5a7b74c72cd5abca93ea5aab84d999929c6d8dc3b6535", "asm": "3045022100a8d5242fefcf30cf740d846d57991b5ccff34a2925ba668af63a9750036e1ef7022069cda8d5dce392385a94f4f300593e888d50ad3d37a14b581e382780057aa5aa[ALL] 0387b329fb9c6eebeddba5a7b74c72cd5abca93ea5aab84d999929c6d8dc3b6535"}, "vout": 0, "txid": "5c07d60b909460a79ff0a6a03809681ff305e84bb5f56cebcf04161a35bbf377"}, {"sequence": 4294967295, "scriptSig": {"hex": "483045022100e30a10a915c927a70a62214110c16326ba1c0d2081eacacfba013bc2cec6974e022021973ddacfcc1e3c08a2d2b10ce17d49dd23b5a65f8e19ac9322ae9c3c6f39b801210387b329fb9c6eebeddba5a7b74c72cd5abca93ea5aab84d999929c6d8dc3b6535", "asm": "3045022100e30a10a915c927a70a62214110c16326ba1c0d2081eacacfba013bc2cec6974e022021973ddacfcc1e3c08a2d2b10ce17d49dd23b5a65f8e19ac9322ae9c3c6f39b8[ALL] 0387b329fb9c6eebeddba5a7b74c72cd5abca93ea5aab84d999929c6d8dc3b6535"}, "vout": 1, "txid": "627d0e6c5d0e4fe25e6644051530d8b09eadd8f3901dd3ccae8ca792e0591479"}, {"sequence": 4294967295, "scriptSig": {"hex": "483045022100f7dbdcdbd01d74c5e7d927faec94472656e67605def6323c832bcaf5cdc1031e022052a184a2a7d39ef5cfe485ba9954e5f93697767cdb9b2920fac4b8885bb894a70121022bcd0cf86da3e19129b393050b9eab33283a38893113dba2f53ff542067e509a", "asm": "3045022100f7dbdcdbd01d74c5e7d927faec94472656e67605def6323c832bcaf5cdc1031e022052a184a2a7d39ef5cfe485ba9954e5f93697767cdb9b2920fac4b8885bb894a7[ALL] 022bcd0cf86da3e19129b393050b9eab33283a38893113dba2f53ff542067e509a"}, "vout": 0, "txid": "d287d2c6d32a81ed027ddb59daddde0ac8ba7ce7e92fd1774abf3dfb969f0644"}], "txid": "6bf15e267ca2192d3a5d20232cc4497a87108b7439400311621e0e393bbe77af", "blocktime": 1537871767, "version": 1, "confirmations": 11493, "time": 1537871767, "locktime": 0, "vsize": 963, "size": 963}