{"hash": "6bf3fd83348cbbdb571037b10d382d558a5b401b3d7ce0d5e539f252f6fe09bf", "blockhash": "000000000000000000022b45ed06c6f4ccd3cf7fb5ba4856ebd2e58215665228", "vout": [{"scriptPubKey": {"reqSigs": 1, "hex": "76a914a0ad0291b7bde0798ccb7c7b09e238b45aa8c0aa88ac", "addresses": ["1FeaNeB1sW2iUPucjPPgWosAoBf9x4SGfH"], "asm": "OP_DUP OP_HASH160 a0ad0291b7bde0798ccb7c7b09e238b45aa8c0aa OP_EQUALVERIFY OP_CHECKSIG", "type": "pubkeyhash"}, "value": 25.47271925, "n": 0}, {"scriptPubKey": {"reqSigs": 1, "hex": "76a9143f60b607e7591b143c83a45f6d59f0f3086127f488ac", "addresses": ["16n7RgsXyouiS6Zb9c4iaLvg3jMvHqGDqb"], "asm": "OP_DUP OP_HASH160 3f60b607e7591b143c83a45f6d59f0f3086127f4 OP_EQUALVERIFY OP_CHECKSIG", "type": "pubkeyhash"}, "value": 101.72727502, "n": 1}], "hex": "01000000014cebde9e857138ae72e5f7079b08b1b5cae8e6bbb3af388bf6b7fb2dafe4c45b010000006b48304502210091051b41acf09c92a95c12ca5e1ef44ff9b5de33ed1484146e1d715bc3b1b2d702202c2e209bb280fa35d4c3835bde2d7b18357936477545a9db49b45877a052a5c30121025d2771dd26423cdecefa489a25103920b2262f9e6d177571699384049beadb0effffffff02f548d497000000001976a914a0ad0291b7bde0798ccb7c7b09e238b45aa8c0aa88acce80575e020000001976a9143f60b607e7591b143c83a45f6d59f0f3086127f488ac00000000", "vin": [{"sequence": 4294967295, "scriptSig": {"hex": "48304502210091051b41acf09c92a95c12ca5e1ef44ff9b5de33ed1484146e1d715bc3b1b2d702202c2e209bb280fa35d4c3835bde2d7b18357936477545a9db49b45877a052a5c30121025d2771dd26423cdecefa489a25103920b2262f9e6d177571699384049beadb0e", "asm": "304502210091051b41acf09c92a95c12ca5e1ef44ff9b5de33ed1484146e1d715bc3b1b2d702202c2e209bb280fa35d4c3835bde2d7b18357936477545a9db49b45877a052a5c3[ALL] 025d2771dd26423cdecefa489a25103920b2262f9e6d177571699384049beadb0e"}, "vout": 1, "txid": "5bc4e4af2dfbb7f68b38afb3bbe6e8cab5b1089b07f7e572ae3871859edeeb4c"}], "txid": "6bf3fd83348cbbdb571037b10d382d558a5b401b3d7ce0d5e539f252f6fe09bf", "blocktime": 1537869901, "version": 1, "confirmations": 11524, "time": 1537869901, "locktime": 0, "vsize": 226, "size": 226}