{"hash": "6bf5b25668d39d9e49f08d4718fd9e3f702992c79d37b43da55c14131ef27b4b", "blockhash": "0000000000000000000dcc0f55137456b1a82d3642486a52398922ac4d620174", "vout": [{"scriptPubKey": {"reqSigs": 1, "hex": "76a91486b5b42c7cd7558008df9091f6ade45e4de3b63c88ac", "addresses": ["1DHHDi119s69xTUAc7xBv4LetMGTxALaP4"], "asm": "OP_DUP OP_HASH160 86b5b42c7cd7558008df9091f6ade45e4de3b63c OP_EQUALVERIFY OP_CHECKSIG", "type": "pubkeyhash"}, "value": 0.00603281, "n": 0}, {"scriptPubKey": {"reqSigs": 1, "hex": "76a9146586ced214191eaee684bf8787713d2671eff5aa88ac", "addresses": ["1AFpjzWNNtmMamjbbSSNLiVdktzrYMspCQ"], "asm": "OP_DUP OP_HASH160 6586ced214191eaee684bf8787713d2671eff5aa OP_EQUALVERIFY OP_CHECKSIG", "type": "pubkeyhash"}, "value": 0.30556497, "n": 1}], "hex": "0200000001e3f830759e078d26b52331c8d319a6452d1753b88040e928178b64246ece49f3010000006a47304402200ef720379acbfb751b68b68aef78fa0a520f57db38fd180a97c1b479d755fdfa0220594517cd8d8e6ed90d5d784b8b34629ceb6c41f7a2794e82a09aed6b377c10c201210210dac65f236a05432a1dbd2f909aa1c6e1870304203e734e8d07db9b57443d46ffffffff0291340900000000001976a91486b5b42c7cd7558008df9091f6ade45e4de3b63c88ac5141d201000000001976a9146586ced214191eaee684bf8787713d2671eff5aa88ac00000000", "vin": [{"sequence": 4294967295, "scriptSig": {"hex": "47304402200ef720379acbfb751b68b68aef78fa0a520f57db38fd180a97c1b479d755fdfa0220594517cd8d8e6ed90d5d784b8b34629ceb6c41f7a2794e82a09aed6b377c10c201210210dac65f236a05432a1dbd2f909aa1c6e1870304203e734e8d07db9b57443d46", "asm": "304402200ef720379acbfb751b68b68aef78fa0a520f57db38fd180a97c1b479d755fdfa0220594517cd8d8e6ed90d5d784b8b34629ceb6c41f7a2794e82a09aed6b377c10c2[ALL] 0210dac65f236a05432a1dbd2f909aa1c6e1870304203e734e8d07db9b57443d46"}, "vout": 1, "txid": "f349ce6e24648b1728e94080b853172d45a619d3c83123b5268d079e7530f8e3"}], "txid": "6bf5b25668d39d9e49f08d4718fd9e3f702992c79d37b43da55c14131ef27b4b", "blocktime": 1537870268, "version": 2, "confirmations": 11516, "time": 1537870268, "locktime": 0, "vsize": 225, "size": 225}