{"hash": "6bf9c16151f1f5cfc06c9cb537546975a9ba4ad4fc109012f78fb19579296a7e", "blockhash": "00000000000000000017f5eb5941039fbcee6240d03bc1f2f8e35350df66a1d8", "vout": [{"scriptPubKey": {"reqSigs": 1, "hex": "76a9147ff09884ac7fcbbb45f550a0418d04597f1e8fea88ac", "addresses": ["1CfV3FVnx7PQTo2qbCrLq2KQM7zZuuD8ZL"], "asm": "OP_DUP OP_HASH160 7ff09884ac7fcbbb45f550a0418d04597f1e8fea OP_EQUALVERIFY OP_CHECKSIG", "type": "pubkeyhash"}, "value": 0.06797004, "n": 0}, {"scriptPubKey": {"reqSigs": 1, "hex": "76a914ca5e3087488bf184546ae8986636059f586458fc88ac", "addresses": ["1KT2LA1mYnQM7LDU8iezzUcgdxQqae8bEH"], "asm": "OP_DUP OP_HASH160 ca5e3087488bf184546ae8986636059f586458fc OP_EQUALVERIFY OP_CHECKSIG", "type": "pubkeyhash"}, "value": 0.000186, "n": 1}], "hex": "01000000021f2d7660a469e07d88bcf851a71447a31870ad959c2ff64983de7a2d3a9a9d37010000006a47304402203ba894f2312a548f3163b5b25c33e5e817b3748a0d2cc2802910bab4b88a841902203c44ad9f3b1d0b6e715ab2566121fa23d4f8243a97bf2a3434103f4eaaa10982012102901fe40aee06d1c4437f0778f9ce5c691e3d42e41058d7eae2974676d882d0dfffffffff71d1be7a79acd9b56263c26515e69aed060c2f0b24754f51d1cb6daab72b9321000000006b483045022100e856cce1d6352f71276e1c1c7f893ff377d730b58df5a1255b37759e019400d002205d3d24ad40badd358e27003bac8ef350fd8f69e34273234bfe15965bf8d3474b01210366ca3f4abcc7eaf859c1e26ed11c1def0f7b696d384c268ffa1ae946daceac92ffffffff02ccb66700000000001976a9147ff09884ac7fcbbb45f550a0418d04597f1e8fea88aca8480000000000001976a914ca5e3087488bf184546ae8986636059f586458fc88ac00000000", "vin": [{"sequence": 4294967295, "scriptSig": {"hex": "47304402203ba894f2312a548f3163b5b25c33e5e817b3748a0d2cc2802910bab4b88a841902203c44ad9f3b1d0b6e715ab2566121fa23d4f8243a97bf2a3434103f4eaaa10982012102901fe40aee06d1c4437f0778f9ce5c691e3d42e41058d7eae2974676d882d0df", "asm": "304402203ba894f2312a548f3163b5b25c33e5e817b3748a0d2cc2802910bab4b88a841902203c44ad9f3b1d0b6e715ab2566121fa23d4f8243a97bf2a3434103f4eaaa10982[ALL] 02901fe40aee06d1c4437f0778f9ce5c691e3d42e41058d7eae2974676d882d0df"}, "vout": 1, "txid": "379d9a3a2d7ade8349f62f9c95ad7018a34714a751f8bc887de069a460762d1f"}, {"sequence": 4294967295, "scriptSig": {"hex": "483045022100e856cce1d6352f71276e1c1c7f893ff377d730b58df5a1255b37759e019400d002205d3d24ad40badd358e27003bac8ef350fd8f69e34273234bfe15965bf8d3474b01210366ca3f4abcc7eaf859c1e26ed11c1def0f7b696d384c268ffa1ae946daceac92", "asm": "3045022100e856cce1d6352f71276e1c1c7f893ff377d730b58df5a1255b37759e019400d002205d3d24ad40badd358e27003bac8ef350fd8f69e34273234bfe15965bf8d3474b[ALL] 0366ca3f4abcc7eaf859c1e26ed11c1def0f7b696d384c268ffa1ae946daceac92"}, "vout": 0, "txid": "21932bb7aa6dcbd1514f75240b2f0c06ed9ae61565c26362b5d9ac797abed171"}], "txid": "6bf9c16151f1f5cfc06c9cb537546975a9ba4ad4fc109012f78fb19579296a7e", "blocktime": 1537874412, "version": 1, "confirmations": 11468, "time": 1537874412, "locktime": 0, "vsize": 373, "size": 373}