{"hash": "e45940891c43f330ff7c58b260b453948643821b6affc1d1b057011472d32f33", "blockhash": "00000000000000000017f5eb5941039fbcee6240d03bc1f2f8e35350df66a1d8", "vout": [{"scriptPubKey": {"reqSigs": 1, "hex": "0014c0807341f945752d39037d14f8ccfac66e18abab", "addresses": ["bc1qczq8xs0eg46j6wgr05203n86cehp32atxsyx7r"], "asm": "0 c0807341f945752d39037d14f8ccfac66e18abab", "type": "witness_v0_keyhash"}, "value": 0.02369845, "n": 0}, {"scriptPubKey": {"reqSigs": 1, "hex": "a9142367c0f649fe98e8ad986f7408c923dd61bb33e387", "addresses": ["34vDsCHH62stF3bwjTn1DLpEnZ6kikzNCq"], "asm": "OP_HASH160 2367c0f649fe98e8ad986f7408c923dd61bb33e3 OP_EQUAL", "type": "scripthash"}, "value": 0.106848, "n": 1}], "hex": "01000000000101a5778b405cac89a4de010b74d4787d218b806640596e0e97da2a20dfaf2ea24f0100000000ffffffff023529240000000000160014c0807341f945752d39037d14f8ccfac66e18abab8009a3000000000017a9142367c0f649fe98e8ad986f7408c923dd61bb33e38702483045022100aea5a8ea00cee99af6933db7ca7d2b941c1070ffa6fe39a9739802642a36ed0702203f67dcd34c0a81df6c6d6fd11ddace9185446024202270dc5d5fb271e82ad6c7012102ab1abe0862678ee6d3532cc8ea12378e1b5f99a011cd5443b9897209e7ea578000000000", "vin": [{"txinwitness": ["3045022100aea5a8ea00cee99af6933db7ca7d2b941c1070ffa6fe39a9739802642a36ed0702203f67dcd34c0a81df6c6d6fd11ddace9185446024202270dc5d5fb271e82ad6c701", "02ab1abe0862678ee6d3532cc8ea12378e1b5f99a011cd5443b9897209e7ea5780"], "sequence": 4294967295, "scriptSig": {"hex": "", "asm": ""}, "vout": 1, "txid": "4fa22eafdf202ada970e6e594066808b217d78d4740b01dea489ac5c408b77a5"}], "txid": "6bfb8e3e9752f13afef3a401c7a9527333edf667756bb5583f5be055f39e635a", "blocktime": 1537874412, "version": 1, "confirmations": 11467, "time": 1537874412, "locktime": 0, "vsize": 142, "size": 224}