{"hash": "33167524ba3800e590772884de8a51e837c85d387dfea98770d565e5cf81b2f2", "blockhash": "0000000000000000001cda96e906b7601b7a6fb1a3b62bca570a9e5d8f4b3de1", "vout": [{"scriptPubKey": {"reqSigs": 1, "hex": "76a914a3a79a3a4da95ceb07bb709aed2c130b6d46a71788ac", "addresses": ["1FvKvVUM33kY2tZ2iBGQrAxJn9sZrNZtvP"], "asm": "OP_DUP OP_HASH160 a3a79a3a4da95ceb07bb709aed2c130b6d46a717 OP_EQUALVERIFY OP_CHECKSIG", "type": "pubkeyhash"}, "value": 0.03703416, "n": 0}, {"scriptPubKey": {"reqSigs": 1, "hex": "a91443f62a3d4933e05622cd51c77017b970eed9a05b87", "addresses": ["37tN6EtYzsorm6zBcpfWz8w5xRNy3mab33"], "asm": "OP_HASH160 43f62a3d4933e05622cd51c77017b970eed9a05b OP_EQUAL", "type": "scripthash"}, "value": 0.36507682, "n": 1}], "hex": "010000000001014ddad7bd5251b91421bbfac3210d8157c4058094d5079e050cf4cfbd5da34e7501000000232200201dd6ce43abdc84f34fdcc73ab17bc29ae9c934e26a45e54e686de9b71cb3af4affffffff0278823800000000001976a914a3a79a3a4da95ceb07bb709aed2c130b6d46a71788ac22102d020000000017a91443f62a3d4933e05622cd51c77017b970eed9a05b870400483045022100d11e7e9ad72e673c34fede647c48241c60103310b5825a88a0b156954ef1045d022000b544aa4132fbcb9a9474b3abbe4b1bac971c783977cec5293937d1e1d1fba201473044022057c841ec7800dc464cfed149a4acc880ffacae10668d714a10c7e83c70372a0302202376599cf0bfec2c4766cb9a0536ad6890b72161bf3b301a7ad64b9c93fb7a0501475221023d094ce44231935102dd1c672bc70808e5831d5d55d4082df3b1d9c342a4f7b92103c86ff487c5c7bef620008af5c952420bf509584280226750bb54cc3b293fd7ec52ae00000000", "vin": [{"txinwitness": ["", "3045022100d11e7e9ad72e673c34fede647c48241c60103310b5825a88a0b156954ef1045d022000b544aa4132fbcb9a9474b3abbe4b1bac971c783977cec5293937d1e1d1fba201", "3044022057c841ec7800dc464cfed149a4acc880ffacae10668d714a10c7e83c70372a0302202376599cf0bfec2c4766cb9a0536ad6890b72161bf3b301a7ad64b9c93fb7a0501", "5221023d094ce44231935102dd1c672bc70808e5831d5d55d4082df3b1d9c342a4f7b92103c86ff487c5c7bef620008af5c952420bf509584280226750bb54cc3b293fd7ec52ae"], "sequence": 4294967295, "scriptSig": {"hex": "2200201dd6ce43abdc84f34fdcc73ab17bc29ae9c934e26a45e54e686de9b71cb3af4a", "asm": "00201dd6ce43abdc84f34fdcc73ab17bc29ae9c934e26a45e54e686de9b71cb3af4a"}, "vout": 1, "txid": "754ea35dbdcff40c059e07d5948005c457810d21c3fabb2114b95152bdd7da4d"}], "txid": "6bfde3cc30be0e8486651fde175366af062edf0b371c0d8c9983c480edf1702d", "blocktime": 1537873282, "version": 1, "confirmations": 11484, "time": 1537873282, "locktime": 0, "vsize": 208, "size": 373}