{"hash": "6c024d4e623bf19304b8f17c29af75bc1c8d8cdb4bcaeba35a03feac534b580b", "blockhash": "0000000000000000000baef3f32e3676a92c3b2e5da21b426e4f302fc371ce76", "vout": [{"scriptPubKey": {"reqSigs": 1, "hex": "76a914a58cf56068c086f63db946d35b0b5ad506fe929c88ac", "addresses": ["1G6MMczEUV5nYrZK4ZNiWr4hSfHjokVk7A"], "asm": "OP_DUP OP_HASH160 a58cf56068c086f63db946d35b0b5ad506fe929c OP_EQUALVERIFY OP_CHECKSIG", "type": "pubkeyhash"}, "value": 0.01130322, "n": 0}, {"scriptPubKey": {"reqSigs": 1, "hex": "76a91416447bd8f25feed9cb52089ff9c5dcbcffa1f22e88ac", "addresses": ["132juZHc3fQWVJJzsCUdccga4HSQJrqDNh"], "asm": "OP_DUP OP_HASH160 16447bd8f25feed9cb52089ff9c5dcbcffa1f22e OP_EQUALVERIFY OP_CHECKSIG", "type": "pubkeyhash"}, "value": 0.02, "n": 1}], "hex": "01000000018843e0ece871a4eb64e206ce0b7188d64172382eb14bedf6029f0d1f8ae3c1e40a0000006b483045022100b35c0d5c2e30c57948b1bc38e50e12e30e73eaa1d22eff7f1ed273bc644a943702203a22aa4f560b11924b6fc19046d731cd8eb8cc7dd54215347b87591e3bea5772012102d79529b5bc8addd8a1b6a65ff1a64eb5fe32d8ba177efbbfe99063016fc97992ffffffff02523f1100000000001976a914a58cf56068c086f63db946d35b0b5ad506fe929c88ac80841e00000000001976a91416447bd8f25feed9cb52089ff9c5dcbcffa1f22e88ac00000000", "vin": [{"sequence": 4294967295, "scriptSig": {"hex": "483045022100b35c0d5c2e30c57948b1bc38e50e12e30e73eaa1d22eff7f1ed273bc644a943702203a22aa4f560b11924b6fc19046d731cd8eb8cc7dd54215347b87591e3bea5772012102d79529b5bc8addd8a1b6a65ff1a64eb5fe32d8ba177efbbfe99063016fc97992", "asm": "3045022100b35c0d5c2e30c57948b1bc38e50e12e30e73eaa1d22eff7f1ed273bc644a943702203a22aa4f560b11924b6fc19046d731cd8eb8cc7dd54215347b87591e3bea5772[ALL] 02d79529b5bc8addd8a1b6a65ff1a64eb5fe32d8ba177efbbfe99063016fc97992"}, "vout": 10, "txid": "e4c1e38a1f0d9f02f6ed4bb12e387241d688710bce06e264eba471e8ece04388"}], "txid": "6c024d4e623bf19304b8f17c29af75bc1c8d8cdb4bcaeba35a03feac534b580b", "blocktime": 1537876114, "version": 1, "confirmations": 11460, "time": 1537876114, "locktime": 0, "vsize": 226, "size": 226}