{"hash": "6c1c0b6a0fa2c258d1244e14925612eb340d6223d25cbd4e5f6d374f9467a158", "blockhash": "0000000000000000000baef3f32e3676a92c3b2e5da21b426e4f302fc371ce76", "vout": [{"scriptPubKey": {"reqSigs": 1, "hex": "76a914eb8d61400699892bac9a63c14aae3d476e1a911388ac", "addresses": ["1NUVAKwqidr46BU6pPusY9ANYB4MaHtZot"], "asm": "OP_DUP OP_HASH160 eb8d61400699892bac9a63c14aae3d476e1a9113 OP_EQUALVERIFY OP_CHECKSIG", "type": "pubkeyhash"}, "value": 5.949e-05, "n": 0}, {"scriptPubKey": {"reqSigs": 1, "hex": "76a91430085ed78778315038d006ed562a4f661ba8413c88ac", "addresses": ["15NyToKySRZYRTgDAJP7S4CXfeA1KqQSD1"], "asm": "OP_DUP OP_HASH160 30085ed78778315038d006ed562a4f661ba8413c OP_EQUALVERIFY OP_CHECKSIG", "type": "pubkeyhash"}, "value": 0.07015542, "n": 1}], "hex": "0100000002dfab823e1cf8af8495bedb0d29bba4ecfd0cf04260ff3eb76604e80efaf7ce27000000006a473044022077a92325befb385b1d8778e19916b0948b91803d9768b1459cb2987d7d38f42902206b1796b20325a7768cff833566242ad224eafb5b6dc36ac450a5575b082e2f7201210296160ff99a264cde123d50a1269d8800653e8540a7aa1955c597fc97d48e8978ffffffff52c56689c3663db4c032af53a3686ae376ca0c082a71e42e1990a377c90ad934000000006b483045022100ee424355f742e52b44892f28e07dd5fa3efa0c51bb2f28a94eec0db0fc191a6a02201e5d6854af624f8f16dc96437e257d279b6d0e50db1ef0d2b639878b82a51821012102e781280aaed6850cbe87e12d61d1f9752cdb4d0791f43be8c2aefb6fd9f16aa1ffffffff023d170000000000001976a914eb8d61400699892bac9a63c14aae3d476e1a911388ac760c6b00000000001976a91430085ed78778315038d006ed562a4f661ba8413c88ac00000000", "vin": [{"sequence": 4294967295, "scriptSig": {"hex": "473044022077a92325befb385b1d8778e19916b0948b91803d9768b1459cb2987d7d38f42902206b1796b20325a7768cff833566242ad224eafb5b6dc36ac450a5575b082e2f7201210296160ff99a264cde123d50a1269d8800653e8540a7aa1955c597fc97d48e8978", "asm": "3044022077a92325befb385b1d8778e19916b0948b91803d9768b1459cb2987d7d38f42902206b1796b20325a7768cff833566242ad224eafb5b6dc36ac450a5575b082e2f72[ALL] 0296160ff99a264cde123d50a1269d8800653e8540a7aa1955c597fc97d48e8978"}, "vout": 0, "txid": "27cef7fa0ee80466b73eff6042f00cfdeca4bb290ddbbe9584aff81c3e82abdf"}, {"sequence": 4294967295, "scriptSig": {"hex": "483045022100ee424355f742e52b44892f28e07dd5fa3efa0c51bb2f28a94eec0db0fc191a6a02201e5d6854af624f8f16dc96437e257d279b6d0e50db1ef0d2b639878b82a51821012102e781280aaed6850cbe87e12d61d1f9752cdb4d0791f43be8c2aefb6fd9f16aa1", "asm": "3045022100ee424355f742e52b44892f28e07dd5fa3efa0c51bb2f28a94eec0db0fc191a6a02201e5d6854af624f8f16dc96437e257d279b6d0e50db1ef0d2b639878b82a51821[ALL] 02e781280aaed6850cbe87e12d61d1f9752cdb4d0791f43be8c2aefb6fd9f16aa1"}, "vout": 0, "txid": "34d90ac977a390192ee4712a080cca76e36a68a353af32c0b43d66c38966c552"}], "txid": "6c1c0b6a0fa2c258d1244e14925612eb340d6223d25cbd4e5f6d374f9467a158", "blocktime": 1537876114, "version": 1, "confirmations": 11460, "time": 1537876114, "locktime": 0, "vsize": 373, "size": 373}