{"hash": "0228592b82d5c8e4392c155c6b5c224b95f344903550746e2bafe28ad2b5cae1", "blockhash": "00000000000000000018f53835495a110e01622372bf6ae95dc86f2b0ab887b0", "vout": [{"scriptPubKey": {"reqSigs": 1, "hex": "76a914e3c9c9f5c5c94658b94c8c7ce1c5daeec1779be888ac", "addresses": ["1MmS85uL9QUHKYxGke3M7XPHLvnfiS6Jrc"], "asm": "OP_DUP OP_HASH160 e3c9c9f5c5c94658b94c8c7ce1c5daeec1779be8 OP_EQUALVERIFY OP_CHECKSIG", "type": "pubkeyhash"}, "value": 0.032172, "n": 0}, {"scriptPubKey": {"reqSigs": 1, "hex": "a914fec37293f73cc540a971ea4d2fdd15cdc3e9e57d87", "addresses": ["3Qv5hCnHwXzsNm6fDb2kpgUQ74twMk8QLm"], "asm": "OP_HASH160 fec37293f73cc540a971ea4d2fdd15cdc3e9e57d OP_EQUAL", "type": "scripthash"}, "value": 0.00059092, "n": 1}], "hex": "020000000001016c6b0018d1af4f4cbe2c24b2f3b3dc5e0853f92228eb2d8722f084f7a78701ff01000000171600149749079a9c040fee0d0a0e3b209195d18cc5dd12ffffffff0230173100000000001976a914e3c9c9f5c5c94658b94c8c7ce1c5daeec1779be888acd4e600000000000017a914fec37293f73cc540a971ea4d2fdd15cdc3e9e57d870247304402201f1b564ba38ae81fcd79021fb2e6e93a18e461be08897121ef2339b7c01db15c022078a5025595bb9ac49a976b1f9e4d9ad48237110d3bd7fd0c8f9aaa993e4b93b601210328f960405f1448804c2899b754664a69c1664511ce3bd84f5c30a4e653ae850400000000", "vin": [{"txinwitness": ["304402201f1b564ba38ae81fcd79021fb2e6e93a18e461be08897121ef2339b7c01db15c022078a5025595bb9ac49a976b1f9e4d9ad48237110d3bd7fd0c8f9aaa993e4b93b601", "0328f960405f1448804c2899b754664a69c1664511ce3bd84f5c30a4e653ae8504"], "sequence": 4294967295, "scriptSig": {"hex": "1600149749079a9c040fee0d0a0e3b209195d18cc5dd12", "asm": "00149749079a9c040fee0d0a0e3b209195d18cc5dd12"}, "vout": 1, "txid": "ff0187a7f784f022872deb2822f953085edcb3f3b2242cbe4c4fafd118006b6c"}], "txid": "6c21a0358f78cbe6ac36384a24e9be499619ea4898bc98d965ef456e7c5396a6", "blocktime": 1537870928, "version": 2, "confirmations": 11512, "time": 1537870928, "locktime": 0, "vsize": 168, "size": 249}