{"hash": "d5825dd33c03ea42e600f59b6114c77aea66a33e37d6c4ed88ad4b0f8ff27478", "blockhash": "0000000000000000001f76057863aec43deb6fa401d9628bb513d65a8098bfab", "vout": [{"scriptPubKey": {"reqSigs": 1, "hex": "a9140d860b05260b932ea6b4852e1c18c10ad8e4da9087", "addresses": ["32vXHWdnjsSuMtXVuiuVvEt3ugmqqNTTw2"], "asm": "OP_HASH160 0d860b05260b932ea6b4852e1c18c10ad8e4da90 OP_EQUAL", "type": "scripthash"}, "value": 0.00902495, "n": 0}, {"scriptPubKey": {"reqSigs": 1, "hex": "a91414b52c59873f805f43efb280cf288c35e50b0ab987", "addresses": ["33aWUWzG7icA4zNWaYPTe773aDFNTmnmz4"], "asm": "OP_HASH160 14b52c59873f805f43efb280cf288c35e50b0ab9 OP_EQUAL", "type": "scripthash"}, "value": 0.13681025, "n": 1}], "hex": "02000000000101bb7519311b7a118fe181fa1efa71df1b9c44d94abd8c24a627a7b177ce49caa70000000017160014b4634165c0ce2609d2962dadf1d7db59c1f66973feffffff025fc50d000000000017a9140d860b05260b932ea6b4852e1c18c10ad8e4da908781c1d0000000000017a91414b52c59873f805f43efb280cf288c35e50b0ab98702483045022100c3b2f1f9ca1632526608eb0e2ea06b17d3fd576de97cbd2c077b927e6fd1c91202204e0908c4a4a1c119587a96f13bff079be868dd3fe2839df3b05a6786305d77cb01210340f1995a2f1ac6480ed6fecf2891e17641c74f71b5114f1d0a3eb3d86a66228d14490800", "vin": [{"txinwitness": ["3045022100c3b2f1f9ca1632526608eb0e2ea06b17d3fd576de97cbd2c077b927e6fd1c91202204e0908c4a4a1c119587a96f13bff079be868dd3fe2839df3b05a6786305d77cb01", "0340f1995a2f1ac6480ed6fecf2891e17641c74f71b5114f1d0a3eb3d86a66228d"], "sequence": 4294967294, "scriptSig": {"hex": "160014b4634165c0ce2609d2962dadf1d7db59c1f66973", "asm": "0014b4634165c0ce2609d2962dadf1d7db59c1f66973"}, "vout": 0, "txid": "a7ca49ce77b1a727a6248cbd4ad9449c1bdf71fa1efa81e18f117a1b311975bb"}], "txid": "6c2145f45e5a2ee2f04512890d86e79ee3e2e182b4e6716a1b031fcf140d11db", "blocktime": 1537873891, "version": 2, "confirmations": 11476, "time": 1537873891, "locktime": 542996, "vsize": 166, "size": 248}