{"hash": "ca2b73d9cd0a480080685ee13d7f9bec8b383572cdba1bd2d88a6c19fe31f0e8", "blockhash": "0000000000000000000baef3f32e3676a92c3b2e5da21b426e4f302fc371ce76", "vout": [{"scriptPubKey": {"reqSigs": 1, "hex": "76a914623b37c37b09d8822b8481e7ffb4cf469c34ceb788ac", "addresses": ["19xQAKv1SdK9YmCaKey3zkhQKqMFRGdhLZ"], "asm": "OP_DUP OP_HASH160 623b37c37b09d8822b8481e7ffb4cf469c34ceb7 OP_EQUALVERIFY OP_CHECKSIG", "type": "pubkeyhash"}, "value": 9.9e-05, "n": 0}, {"scriptPubKey": {"reqSigs": 1, "hex": "a914b2e6a8e553bd7e11c1392f8d61e19b5888e139c087", "addresses": ["3HzxXD8PhqJETjkWrQYD4nYc6yKx3mGLXi"], "asm": "OP_HASH160 b2e6a8e553bd7e11c1392f8d61e19b5888e139c0 OP_EQUAL", "type": "scripthash"}, "value": 0.00556476, "n": 1}], "hex": "010000000001018a3f670cca738690499c8ca754cdff18a0f8c92b28365af58febd1a901f6907c0b0000002322002045dc4a8e7a7ed593d2ea538a381c31e2607ee08f052e914f99311fee2a8f4d56ffffffff02ac260000000000001976a914623b37c37b09d8822b8481e7ffb4cf469c34ceb788acbc7d08000000000017a914b2e6a8e553bd7e11c1392f8d61e19b5888e139c0870400483045022100bcf1d2ee829359e34872fc62fbfd990f94fecff630438a99ab45b6093f2f251b02205282eda33e8a7b418015de2dbbd9b6c0035d71b0c513056889807615be5e339c014730440220755df5bcfa5977427bd4390fd45469de3f45768d2990243319abcd5445eff3c3022032a50a5196773149584de732d81f87c787db0cf6e983c00e5a31d9cc40499672014752210333a2cce5556afb7a9431cdacaea04e945b9daa974227ab5f4aca265bc268c7952103871fc2ca08e6950b38867e8e6a0e94ee625223d3aa0df5c65f414c6d784467e252ae00000000", "vin": [{"txinwitness": ["", "3045022100bcf1d2ee829359e34872fc62fbfd990f94fecff630438a99ab45b6093f2f251b02205282eda33e8a7b418015de2dbbd9b6c0035d71b0c513056889807615be5e339c01", "30440220755df5bcfa5977427bd4390fd45469de3f45768d2990243319abcd5445eff3c3022032a50a5196773149584de732d81f87c787db0cf6e983c00e5a31d9cc4049967201", "52210333a2cce5556afb7a9431cdacaea04e945b9daa974227ab5f4aca265bc268c7952103871fc2ca08e6950b38867e8e6a0e94ee625223d3aa0df5c65f414c6d784467e252ae"], "sequence": 4294967295, "scriptSig": {"hex": "22002045dc4a8e7a7ed593d2ea538a381c31e2607ee08f052e914f99311fee2a8f4d56", "asm": "002045dc4a8e7a7ed593d2ea538a381c31e2607ee08f052e914f99311fee2a8f4d56"}, "vout": 11, "txid": "7c90f601a9d1eb8ff55a36282bc9f8a018ffcd54a78c9c49908673ca0c673f8a"}], "txid": "6c26121dcaa7a2168b6f6266a5e6349ed0bd81814872219bd16684fc3364ac3b", "blocktime": 1537876114, "version": 1, "confirmations": 11460, "time": 1537876114, "locktime": 0, "vsize": 208, "size": 373}