{"hash": "6c2c487d441f0b6ed508168d9090cdd6bf127370cf5e70221cfb856f5e95732b", "blockhash": "00000000000000000004ffacab907a6b429b9a5745fa0b75af4234bf69dd7176", "vout": [{"scriptPubKey": {"reqSigs": 1, "hex": "76a914b0c3077babfcaa586149aa097b28dcf89620a01d88ac", "addresses": ["1H7dZdabDTrouCmTZN9AUXjzmk2SbJJjNG"], "asm": "OP_DUP OP_HASH160 b0c3077babfcaa586149aa097b28dcf89620a01d OP_EQUALVERIFY OP_CHECKSIG", "type": "pubkeyhash"}, "value": 0.0010574, "n": 0}, {"scriptPubKey": {"reqSigs": 1, "hex": "76a9148b15e5c97ca2a5e6f42b51d48a327af4a37d012488ac", "addresses": ["1DgRA8w1e5eHAiFcQcoZAT35TotMpLrUem"], "asm": "OP_DUP OP_HASH160 8b15e5c97ca2a5e6f42b51d48a327af4a37d0124 OP_EQUALVERIFY OP_CHECKSIG", "type": "pubkeyhash"}, "value": 0.00347433, "n": 1}], "hex": "01000000019747653f9804e625fefbf34409ce1125e9efb52ceedbb339573e3edad2bb4eb2010000006a473044022017dab367efc3f46a1d58a70d7ae1cb656c32c297d2aa548948c2d34b02a0185b02207c10468183c1dcc82e56f539c03c1ca483d6d84990482474b3baef0d25dbc48701210306026c3b601f2e7d8db67cf834f6e22ddf003e2afca5604bcbbbd4b904b4fdb4ffffffff020c9d0100000000001976a914b0c3077babfcaa586149aa097b28dcf89620a01d88ac294d0500000000001976a9148b15e5c97ca2a5e6f42b51d48a327af4a37d012488ac00000000", "vin": [{"sequence": 4294967295, "scriptSig": {"hex": "473044022017dab367efc3f46a1d58a70d7ae1cb656c32c297d2aa548948c2d34b02a0185b02207c10468183c1dcc82e56f539c03c1ca483d6d84990482474b3baef0d25dbc48701210306026c3b601f2e7d8db67cf834f6e22ddf003e2afca5604bcbbbd4b904b4fdb4", "asm": "3044022017dab367efc3f46a1d58a70d7ae1cb656c32c297d2aa548948c2d34b02a0185b02207c10468183c1dcc82e56f539c03c1ca483d6d84990482474b3baef0d25dbc487[ALL] 0306026c3b601f2e7d8db67cf834f6e22ddf003e2afca5604bcbbbd4b904b4fdb4"}, "vout": 1, "txid": "b24ebbd2da3e3e5739b3dbee2cb5efe92511ce0944f3fbfe25e604983f654797"}], "txid": "6c2c487d441f0b6ed508168d9090cdd6bf127370cf5e70221cfb856f5e95732b", "blocktime": 1537875543, "version": 1, "confirmations": 11464, "time": 1537875543, "locktime": 0, "vsize": 225, "size": 225}