{"hash": "647acf18dd460e374556750a002772e74b8e2bd327cd2768adaf297dad0b50b6", "blockhash": "00000000000000000017f5eb5941039fbcee6240d03bc1f2f8e35350df66a1d8", "vout": [{"scriptPubKey": {"reqSigs": 1, "hex": "a914ccc4842c2340f2a7ba7923003ae88d434b45141c87", "addresses": ["3LMjBsMQhiXme12cZU4TSdpmi8BsF6f4ac"], "asm": "OP_HASH160 ccc4842c2340f2a7ba7923003ae88d434b45141c OP_EQUAL", "type": "scripthash"}, "value": 19.29003159, "n": 0}, {"scriptPubKey": {"reqSigs": 1, "hex": "a9143d81b521fa77c12b140a2ccb3a71818a3aa76c6287", "addresses": ["37JEXV2HsgLRXitBWMfsmRLvF6YThYvJYi"], "asm": "OP_HASH160 3d81b521fa77c12b140a2ccb3a71818a3aa76c62 OP_EQUAL", "type": "scripthash"}, "value": 0.13500001, "n": 1}], "hex": "02000000000101549e45ebb4577f5489039bd2e19df8a36f762ced426cd091109967ff4492c57800000000171600142730d577898b90927d97f888b05d79ee059f5781feffffff029740fa720000000017a914ccc4842c2340f2a7ba7923003ae88d434b45141c8761fecd000000000017a9143d81b521fa77c12b140a2ccb3a71818a3aa76c6287024830450221009ab5db6f75b9ce048955effb9a0342f634a8c94952f946ce29cb39e1a58fc49a022015de0c99e3fed5c9ac3251a56df98a585b4ce2baa4e2ea072519efa360ca4d8701210330f295950c361bac4853c0e7c1cd642fe9386f06adf78f586faa00b3400bd28f15490800", "vin": [{"txinwitness": ["30450221009ab5db6f75b9ce048955effb9a0342f634a8c94952f946ce29cb39e1a58fc49a022015de0c99e3fed5c9ac3251a56df98a585b4ce2baa4e2ea072519efa360ca4d8701", "0330f295950c361bac4853c0e7c1cd642fe9386f06adf78f586faa00b3400bd28f"], "sequence": 4294967294, "scriptSig": {"hex": "1600142730d577898b90927d97f888b05d79ee059f5781", "asm": "00142730d577898b90927d97f888b05d79ee059f5781"}, "vout": 0, "txid": "78c59244ff67991091d06c42ed2c766fa3f89de1d29b0389547f57b4eb459e54"}], "txid": "6c2d64f8432815089fc38813176720139210fedab0e63e1285b261e8118c132e", "blocktime": 1537874412, "version": 2, "confirmations": 11468, "time": 1537874412, "locktime": 542997, "vsize": 166, "size": 248}