{"hash": "6c2ec47b128fe5b2fbf1ba7665f906fe81a0f1d6c8c9c601bf348bd3df491034", "blockhash": "0000000000000000001f76057863aec43deb6fa401d9628bb513d65a8098bfab", "vout": [{"scriptPubKey": {"reqSigs": 1, "hex": "76a91422ea7d8c227b0c040e04768c0dbb5f7635e7da1088ac", "addresses": ["14BctCjFGxkkeVz5JrPeoYT6xikhbGHpp4"], "asm": "OP_DUP OP_HASH160 22ea7d8c227b0c040e04768c0dbb5f7635e7da10 OP_EQUALVERIFY OP_CHECKSIG", "type": "pubkeyhash"}, "value": 0.0025, "n": 0}, {"scriptPubKey": {"reqSigs": 1, "hex": "76a9142de110db356afbf31b089f33af3ded7a39b92aba88ac", "addresses": ["15Bb2UvVjkTmkHP2YvpH2eyveL9LjAeCba"], "asm": "OP_DUP OP_HASH160 2de110db356afbf31b089f33af3ded7a39b92aba OP_EQUALVERIFY OP_CHECKSIG", "type": "pubkeyhash"}, "value": 0.07015022, "n": 1}], "hex": "0100000001986240a1b556e019278ba3ce6826863c98478bc85a94efe32772be1e5eaa3eaf030000006b4830450221009bd85f861fdf7454258449dd09d82e55da1420998524ec2dd60633ac428b28f102200613a094f1eac87d0d36e6a53b8b2fae1e7443963aa2427b8a5fca6334e4ab0801210226e77267b7465e51c1278dce89d7ffd7b256fa13ec4caff5fa949af8a6e886daffffffff0290d00300000000001976a91422ea7d8c227b0c040e04768c0dbb5f7635e7da1088ac6e0a6b00000000001976a9142de110db356afbf31b089f33af3ded7a39b92aba88ac00000000", "vin": [{"sequence": 4294967295, "scriptSig": {"hex": "4830450221009bd85f861fdf7454258449dd09d82e55da1420998524ec2dd60633ac428b28f102200613a094f1eac87d0d36e6a53b8b2fae1e7443963aa2427b8a5fca6334e4ab0801210226e77267b7465e51c1278dce89d7ffd7b256fa13ec4caff5fa949af8a6e886da", "asm": "30450221009bd85f861fdf7454258449dd09d82e55da1420998524ec2dd60633ac428b28f102200613a094f1eac87d0d36e6a53b8b2fae1e7443963aa2427b8a5fca6334e4ab08[ALL] 0226e77267b7465e51c1278dce89d7ffd7b256fa13ec4caff5fa949af8a6e886da"}, "vout": 3, "txid": "af3eaa5e1ebe7227e3ef945ac88b47983c862668cea38b2719e056b5a1406298"}], "txid": "6c2ec47b128fe5b2fbf1ba7665f906fe81a0f1d6c8c9c601bf348bd3df491034", "blocktime": 1537873891, "version": 1, "confirmations": 11478, "time": 1537873891, "locktime": 0, "vsize": 226, "size": 226}