{"hash": "6c3172a1a3fe127eb592b853336b0b07e104651eddd684dc21dfec6a6b274e77", "blockhash": "0000000000000000001cda96e906b7601b7a6fb1a3b62bca570a9e5d8f4b3de1", "vout": [{"scriptPubKey": {"reqSigs": 1, "hex": "76a914cc92ab6134ee0b580728798461758aad54027cd488ac", "addresses": ["1KegYuXPxFspKCi2AkuZJ7ssJNWqd4tb7h"], "asm": "OP_DUP OP_HASH160 cc92ab6134ee0b580728798461758aad54027cd4 OP_EQUALVERIFY OP_CHECKSIG", "type": "pubkeyhash"}, "value": 0.0005894, "n": 0}, {"scriptPubKey": {"reqSigs": 1, "hex": "a91423759936d8db17a3a8720b760de23910f7c0cb9687", "addresses": ["34vWT9KuZ9njwg8RPkRLG9BpLdsjkJ54cv"], "asm": "OP_HASH160 23759936d8db17a3a8720b760de23910f7c0cb96 OP_EQUAL", "type": "scripthash"}, "value": 0.0212, "n": 1}], "hex": "0100000002062c09f9e6ee67e518b73807742f25ea955f71ea0b4baa80d5dd585b2a84fc0f090000006b483045022100d6e8f0d26bf0e2aaebb8b0dac0fc3eb6bdf0a2f2562428075bc6703cd33fafa602204f0f9898617008932a8d7647f78533dcffd1e81303382e39bce4821a7f86914901210363f643465a0d5574e11cef9106c09562a9567e5f31f77b35962cdede07944e02fffffffffd7f7600f9f118a5ab4423d749f402986ca389b58cea3ce0651121413b1e33c6000000006b483045022100e41587c0430b553da2e45aef00e045992ed0e941afd264063a18565fcfb1ce2202202e374a7bd9fb5c00953b12a3a7edb8755c464ee7dcd711679ce9abf19ae9bb4c0121036af5c5ccdef7c9446a2851cb1104bf89561cf08d7eeaf1d3e7d9625caa0428aaffffffff023ce60000000000001976a914cc92ab6134ee0b580728798461758aad54027cd488ac405920000000000017a91423759936d8db17a3a8720b760de23910f7c0cb968700000000", "vin": [{"sequence": 4294967295, "scriptSig": {"hex": "483045022100d6e8f0d26bf0e2aaebb8b0dac0fc3eb6bdf0a2f2562428075bc6703cd33fafa602204f0f9898617008932a8d7647f78533dcffd1e81303382e39bce4821a7f86914901210363f643465a0d5574e11cef9106c09562a9567e5f31f77b35962cdede07944e02", "asm": "3045022100d6e8f0d26bf0e2aaebb8b0dac0fc3eb6bdf0a2f2562428075bc6703cd33fafa602204f0f9898617008932a8d7647f78533dcffd1e81303382e39bce4821a7f869149[ALL] 0363f643465a0d5574e11cef9106c09562a9567e5f31f77b35962cdede07944e02"}, "vout": 9, "txid": "0ffc842a5b58ddd580aa4b0bea715f95ea252f740738b718e567eee6f9092c06"}, {"sequence": 4294967295, "scriptSig": {"hex": "483045022100e41587c0430b553da2e45aef00e045992ed0e941afd264063a18565fcfb1ce2202202e374a7bd9fb5c00953b12a3a7edb8755c464ee7dcd711679ce9abf19ae9bb4c0121036af5c5ccdef7c9446a2851cb1104bf89561cf08d7eeaf1d3e7d9625caa0428aa", "asm": "3045022100e41587c0430b553da2e45aef00e045992ed0e941afd264063a18565fcfb1ce2202202e374a7bd9fb5c00953b12a3a7edb8755c464ee7dcd711679ce9abf19ae9bb4c[ALL] 036af5c5ccdef7c9446a2851cb1104bf89561cf08d7eeaf1d3e7d9625caa0428aa"}, "vout": 0, "txid": "c6331e3b41211165e03cea8cb589a36c9802f449d72344aba518f1f900767ffd"}], "txid": "6c3172a1a3fe127eb592b853336b0b07e104651eddd684dc21dfec6a6b274e77", "blocktime": 1537873282, "version": 1, "confirmations": 11485, "time": 1537873282, "locktime": 0, "vsize": 372, "size": 372}