{"hash": "7bdd34d6be0a1812854d21535328dfb1b7f5e3b22955b662ddf39329c5ffa6da", "blockhash": "00000000000000000004ffacab907a6b429b9a5745fa0b75af4234bf69dd7176", "vout": [{"scriptPubKey": {"reqSigs": 1, "hex": "a9147224e4801409489ece35f9f8cf5551d80787bd4487", "addresses": ["3C6Z9kfwTD741hc5qA9SgLyBkM2C6GNM8N"], "asm": "OP_HASH160 7224e4801409489ece35f9f8cf5551d80787bd44 OP_EQUAL", "type": "scripthash"}, "value": 0.00999693, "n": 0}, {"scriptPubKey": {"reqSigs": 1, "hex": "a91478bf5133742dabace51a7f474d3ad2444fe8a80887", "addresses": ["3ChUCWpPBtvqSwr6ehe3JTj3QzenZj7JMW"], "asm": "OP_HASH160 78bf5133742dabace51a7f474d3ad2444fe8a808 OP_EQUAL", "type": "scripthash"}, "value": 0.08, "n": 1}], "hex": "020000000001023c69e241d05e44136d5438cb453ed1e76007ea22488f1c1f2c0f51e92c0fc8c000000000171600143e755d6aef128cbf717118142105ed02bf290551feffffff9a3480f8f9a87963a68e716cea8057d84f97935ca721a21359f10063b9fe13e305000000171600147848a797538980159de8f2a48f21c6eee2feceeefeffffff020d410f000000000017a9147224e4801409489ece35f9f8cf5551d80787bd448700127a000000000017a91478bf5133742dabace51a7f474d3ad2444fe8a808870247304402202aa01503f8b3d4d0114a967569cb9fbad672cc1e8933777b59ce4cd55cde2ebe022055aa6f1ff0eb20e98321d06eb2a3b42ed0d49d4506bb8b42d0e9f2bf7c5c6417012102f4ebfa43d9b496120eeecb3ee9c4071aadf29899b7a51997f2179c1b4ba71618024830450221008f3c124a28031d8894d46039d075902efc6a47f4f639e73a5cc5a1cbc90a33d70220086f8b62d9ec992ad6f1b3c3eec3195a44513d6080f3f3920fd030ae3518a6510121032437ac05e3d119115be57995ea685e0e1672364d0f2828fc9122c1b7fc991b1b16490800", "vin": [{"txinwitness": ["304402202aa01503f8b3d4d0114a967569cb9fbad672cc1e8933777b59ce4cd55cde2ebe022055aa6f1ff0eb20e98321d06eb2a3b42ed0d49d4506bb8b42d0e9f2bf7c5c641701", "02f4ebfa43d9b496120eeecb3ee9c4071aadf29899b7a51997f2179c1b4ba71618"], "sequence": 4294967294, "scriptSig": {"hex": "1600143e755d6aef128cbf717118142105ed02bf290551", "asm": "00143e755d6aef128cbf717118142105ed02bf290551"}, "vout": 0, "txid": "c0c80f2ce9510f2c1f1c8f4822ea0760e7d13e45cb38546d13445ed041e2693c"}, {"txinwitness": ["30450221008f3c124a28031d8894d46039d075902efc6a47f4f639e73a5cc5a1cbc90a33d70220086f8b62d9ec992ad6f1b3c3eec3195a44513d6080f3f3920fd030ae3518a65101", "032437ac05e3d119115be57995ea685e0e1672364d0f2828fc9122c1b7fc991b1b"], "sequence": 4294967294, "scriptSig": {"hex": "1600147848a797538980159de8f2a48f21c6eee2feceee", "asm": "00147848a797538980159de8f2a48f21c6eee2feceee"}, "vout": 5, "txid": "e313feb96300f15913a221a75c93974fd85780ea6c718ea66379a8f9f880349a"}], "txid": "6c32f9f6559524f53e68f7ef6eb6c0a92a12fa1519630760155fe9068774bbb0", "blocktime": 1537875543, "version": 2, "confirmations": 11464, "time": 1537875543, "locktime": 542998, "vsize": 257, "size": 419}