{"hash": "5324e7fdc86218f2e34e2a9f28a38c714a11c4c33cdd35ed4a6fe53e6a675e0c", "blockhash": "0000000000000000001cda96e906b7601b7a6fb1a3b62bca570a9e5d8f4b3de1", "vout": [{"scriptPubKey": {"reqSigs": 1, "hex": "76a914b7b359c4d6940912f022120a73a3db703f299f2388ac", "addresses": ["1HkKWcDs34vtaV7WGsJsvCxAF1aB98DADT"], "asm": "OP_DUP OP_HASH160 b7b359c4d6940912f022120a73a3db703f299f23 OP_EQUALVERIFY OP_CHECKSIG", "type": "pubkeyhash"}, "value": 1.5012, "n": 0}, {"scriptPubKey": {"reqSigs": 1, "hex": "76a914c6cec9cb41d9e9d5ae86a2a30b9addc93887035a88ac", "addresses": ["1K8CWtBaYi91FnvyUfUzJwGN4o6PZ8Dfz4"], "asm": "OP_DUP OP_HASH160 c6cec9cb41d9e9d5ae86a2a30b9addc93887035a OP_EQUALVERIFY OP_CHECKSIG", "type": "pubkeyhash"}, "value": 0.0265, "n": 1}, {"scriptPubKey": {"reqSigs": 1, "hex": "76a914df1270a74b65f3a19960619882f255a21971efb388ac", "addresses": ["1MLVn1uAifpQTreRpwaPaAp6KMhvFrxUF1"], "asm": "OP_DUP OP_HASH160 df1270a74b65f3a19960619882f255a21971efb3 OP_EQUALVERIFY OP_CHECKSIG", "type": "pubkeyhash"}, "value": 0.16677, "n": 2}, {"scriptPubKey": {"reqSigs": 1, "hex": "a914f36a4085790a6c9b294bff1854bec7da8caab1e487", "addresses": ["3Pt5QgN1TLggsqhJV3r9En4xTVwLA9wUD8"], "asm": "OP_HASH160 f36a4085790a6c9b294bff1854bec7da8caab1e4 OP_EQUAL", "type": "scripthash"}, "value": 0.19233, "n": 3}, {"scriptPubKey": {"reqSigs": 1, "hex": "76a914ae687df26e1c18e59fd7b1d718f6c0d2ac6e74ac88ac", "addresses": ["1GuBkcJFASYZt92ctWEo8PW89CVjYLQiJC"], "asm": "OP_DUP OP_HASH160 ae687df26e1c18e59fd7b1d718f6c0d2ac6e74ac OP_EQUALVERIFY OP_CHECKSIG", "type": "pubkeyhash"}, "value": 2.7, "n": 4}, {"scriptPubKey": {"reqSigs": 1, "hex": "76a914d3df327188609b5ea2a4e26d791ebb75eadd698d88ac", "addresses": ["1LKGxUmajQeJDbcSA7Ht7FG6rcSbJjjNHo"], "asm": "OP_DUP OP_HASH160 d3df327188609b5ea2a4e26d791ebb75eadd698d OP_EQUALVERIFY OP_CHECKSIG", "type": "pubkeyhash"}, "value": 0.48644, "n": 5}, {"scriptPubKey": {"reqSigs": 1, "hex": "76a9146c7e28f4bb36d9674246340fab0dc1e873fca76388ac", "addresses": ["1Atf7U6DhGN9CHgbLWhxgRB85yJMth6Hsc"], "asm": "OP_DUP OP_HASH160 6c7e28f4bb36d9674246340fab0dc1e873fca763 OP_EQUALVERIFY OP_CHECKSIG", "type": "pubkeyhash"}, "value": 0.090108, "n": 6}, {"scriptPubKey": {"reqSigs": 1, "hex": "76a91433b68c9a1bf3fb8342da63758f9fc1b396b1cf8e88ac", "addresses": ["15iS9XWNEwfKpRRonPoc2eZHvh5kxsmGww"], "asm": "OP_DUP OP_HASH160 33b68c9a1bf3fb8342da63758f9fc1b396b1cf8e OP_EQUALVERIFY OP_CHECKSIG", "type": "pubkeyhash"}, "value": 0.33767, "n": 7}, {"scriptPubKey": {"reqSigs": 1, "hex": "a914fc4ab990d3a843af7a72abc4e1db930aa197c4dc87", "addresses": ["3Qh1irpRD4xq7hX7vyQJ5RzrRuGt57o9rq"], "asm": "OP_HASH160 fc4ab990d3a843af7a72abc4e1db930aa197c4dc OP_EQUAL", "type": "scripthash"}, "value": 3.63077, "n": 8}, {"scriptPubKey": {"reqSigs": 1, "hex": "a914e4ded73bc618371f935f949db912899aff62261c87", "addresses": ["3NZAwXbGNFPoBJAmQHeEmZw26f4weEVoe5"], "asm": "OP_HASH160 e4ded73bc618371f935f949db912899aff62261c OP_EQUAL", "type": "scripthash"}, "value": 1.11607, "n": 9}, {"scriptPubKey": {"reqSigs": 1, "hex": "a91408a6b90033476afdc30aaf648c1f5cde29090a4387", "addresses": ["32Um4AvMNrn1MfRgwR7P2CXcramXLtcaQj"], "asm": "OP_HASH160 08a6b90033476afdc30aaf648c1f5cde29090a43 OP_EQUAL", "type": "scripthash"}, "value": 4.62362013, "n": 10}], "hex": "0100000000010a4ff13b8048aff9534259a8f788914ffa9566a098375cfceb36f2ac7711b87e360e00000023220020d99ff2dc9107ba77bb9e7f56ffcf1798eb8d4f3ecae6c1d7032ba04415140cd6ffffffff3a659286163928bf0ce8120a56a771544d0b0749b19bac0fd18892f809b35c1e000000002322002097b008509e38e950acec514d34dbc6fa93bfad2ca8265ed5330994dc6ac7d962ffffffffe90072ddeb41f8c5854ea258f17560dffbf0cd3962d7e0d7c7a26a67d4e818e8010000002322002097b008509e38e950acec514d34dbc6fa93bfad2ca8265ed5330994dc6ac7d962ffffffffb5797a666a065b2f121ae9881b7b66c3a813ca6e099d7a0a7154f1c80b0cf209010000002322002097b008509e38e950acec514d34dbc6fa93bfad2ca8265ed5330994dc6ac7d962ffffffff5e9b7be67f068a3f14f4e1c3addb199884bc18c6d8a82159f723780be80c79c6010000002322002097b008509e38e950acec514d34dbc6fa93bfad2ca8265ed5330994dc6ac7d962ffffffff4ff13b8048aff9534259a8f788914ffa9566a098375cfceb36f2ac7711b87e360100000023220020b62178d92703d683827ad56d4f1bc022a0ebf0d8545b09c50688d5e421618a9fffffffff4ff13b8048aff9534259a8f788914ffa9566a098375cfceb36f2ac7711b87e360c00000023220020dab24a02c531c0ac0b1c961c1e3f86066d8add275c0986a3e25035d94c0ca853ffffffff2308409608780fdf385627e9b4b05840db02cfbd68f38c5a44dca4af154e0c190000000023220020bd455019b3d37eaea0c0b3df865b8e52fd589263774ee25fcf4f0640e310c766fffffffff5550d9af0d18c46b63d0681793c9efba27e2447bb54442ae4de3f516ae10a140000000023220020bd455019b3d37eaea0c0b3df865b8e52fd589263774ee25fcf4f0640e310c766ffffffff72a2dc1aae5aba23ab7bb042e79ef385668a52f9533065dee4d8c4da70e8a3c600000000232200208ecbe14e6430426f9bcfcfa4d6227c65ccd68338b310c77266340bd545ce147effffffff0b40a6f208000000001976a914b7b359c4d6940912f022120a73a3db703f299f2388ac906f2800000000001976a914c6cec9cb41d9e9d5ae86a2a30b9addc93887035a88ac8878fe00000000001976a914df1270a74b65f3a19960619882f255a21971efb388ace87825010000000017a914f36a4085790a6c9b294bff1854bec7da8caab1e48780df1710000000001976a914ae687df26e1c18e59fd7b1d718f6c0d2ac6e74ac88aca03fe602000000001976a914d3df327188609b5ea2a4e26d791ebb75eadd698d88ac707e8900000000001976a9146c7e28f4bb36d9674246340fab0dc1e873fca76388ac583e0302000000001976a91433b68c9a1bf3fb8342da63758f9fc1b396b1cf8e88ac881da4150000000017a914fc4ab990d3a843af7a72abc4e1db930aa197c4dc87d8fca6060000000017a914e4ded73bc618371f935f949db912899aff62261c879d158f1b0000000017a91408a6b90033476afdc30aaf648c1f5cde29090a43870400483045022100fca462456908ad05b6169b0ec0e4b6d85a59251adb50e6295b8d2511d7c55f1a0220267397a612845e9c87949b564e77da95f386a4729e6f99ea1b57073247adc8fa01473044022049d51cbc70afdf77b7c4a5dc39263a957e5e2120f5fe1c8fc93aa70057368f54022019406545bf1aca181383331b100b05b1d4406835c2809ce96b4883296868c06801695221021c1f7046c13d39731894129de76601d2b9a0fd011497d7e4228add6a330d96872102b5c799ed23469707975f43f8d2b826b66117de177acbabfe5f95a951822ca15d2103695ebda6d1643a6b4bdd30e96989741f4640dbb2500b804e22869e67b3fa994553ae0400483045022100e8582ed2a6f88a2c55e267e33a80884559d2decc61538e4f20e58d9d51d06da402201ad38c092a4eba468bd4a52af1bd533beb1f2265cdc37b580fd027616e2647d10147304402204a359ad6dc55d6f97c58183b44decc4459cfe81fd304716a8f2e4cf809e02dda02201dfefefab7ca80edf4ce3f59f93843bf9dc48795e3ac84acc911903153d1994a01695221036772dc6eeeeefaad8da9359d4c4dba481e71746c188e0956310354c51554f33521033eb24388b509e3b481d630b1c666430fae2dd477f29f7f989c6e733a6a6a2759210316fa477b2a4e81ef1b02670d4a37f785c672016988a646ebea108d618067cd8853ae0400483045022100c82c1d590192b96266323e259a8263b8f90bc6e5b7f776196c95d1d96dd3004e02204a04cbf4963df30199e3f9c37ed0674d08ae6666839662aafab779e4f5bb1b8801483045022100be01e8f4948c9748b79e4bcf93c5be6fe835b1c4a4b20eb14975a19419567e8c02207450f17cb3bfd51e6add37fd07619c31808da608da1e0c48902a287d757bcf0801695221036772dc6eeeeefaad8da9359d4c4dba481e71746c188e0956310354c51554f33521033eb24388b509e3b481d630b1c666430fae2dd477f29f7f989c6e733a6a6a2759210316fa477b2a4e81ef1b02670d4a37f785c672016988a646ebea108d618067cd8853ae04004730440220291d3799a00656693c6aa174ef501098b6f0cf195ad3ede303d19294f49a30b002203c241c1d99eaa5e4fc2ce26369ee5ee915558540b399e8c4bd88ce768136acc2014730440220629993410ab884ea2c2107da1eb4bed3add9994ddf4e553f373f5cf11057938602203267dd2803081dbfc6c88fee11330b67841c17e2181e9dab54a347cce4a8d39301695221036772dc6eeeeefaad8da9359d4c4dba481e71746c188e0956310354c51554f33521033eb24388b509e3b481d630b1c666430fae2dd477f29f7f989c6e733a6a6a2759210316fa477b2a4e81ef1b02670d4a37f785c672016988a646ebea108d618067cd8853ae040048304502210099ffc674aca6d642edb541057b304a17719abdf0b24a464b9bdfa25fb03bb63e0220433c33b5f0d21dbee3932ebdddf9d4ee5f62f8ca0f510e1ed229f0bf67e5f7460147304402204227604114fc0170e17e37124b54b198babf697eddf86879aabe4914e19067490220331294c3727fbc5e6b97b0a1f3d391cc25c88743216b82e12f5344fe1b29e02201695221036772dc6eeeeefaad8da9359d4c4dba481e71746c188e0956310354c51554f33521033eb24388b509e3b481d630b1c666430fae2dd477f29f7f989c6e733a6a6a2759210316fa477b2a4e81ef1b02670d4a37f785c672016988a646ebea108d618067cd8853ae040047304402203a0cf5386b836e156a198d6a3c87fe9de793cf1bbe05e6bb66232e3630b25089022003ba46fa711b995a160eebbeb27b34d518bf308c0ad536cb59b983ee3165ab6c014730440220195a72f99c6c09c59fcbaebb037e578303a16b82995640f4ff08910548388e4002201a2ceed95941b8eca0383d73964097c233a884ac2879cd01362911929d4b2463016952210348b97b01b74d60d9925b2c033d16d9efd12a8c6cf56486db3e6c1d4fbd61c382210263f48956d06ba1e8398729b6f797a8c06dcb675488ee8b0f324edb831bae5737210380cce238b71d3e781e5acf68625b699bcf59689006a362b4e28af904f560867853ae04004730440220521764f580c2617539686bcbb9e522d606c22f590b34296b03249ea8c746ee9602200fae675ffa2e0350da1c6b493c6f1fd6bada9c59068738c148a70459094b19f901473044022051c6924b276103363052aee043fae89d1a0af21fb29ce097dacfed16877f2968022078f3b7d7e3896f33a15e3e485b87162e63ae81d624528e7507e012c90ec53c9301695221021adf01159e3d0bd6f6abe4e3eada9b0da42e0d55aba822fa6632deaaf16bd7f82103847992cbf981a28a4af0c808dd5afbb85d2d7d23ecd8a056a183f94bdda6ba7d210250456783542cc561b2450619302b51c09ed8809da12b465d1627bb9407079fd953ae04004730440220716a0896bc9ffb3257b0e9d57b31cceeef5a18616ee5bdebda67acbea6ce311402200bbd83fb09ae0e78be123b8a0235da7b8d733e65872c4084acc0c0c9fd5c62a80147304402202491a5b4431914280309c28dc1e4f6a0e74ceb2562032cc63d27f3dca59b1cb502200b9cebf137667c18c4956f155d37010cbefca373a8f1b88a883b50d98150683601695221022974296b7118443f1c2bff09cc3d0eb15a0253fd66478d108821330dab585d342102e65d34bd9fc0d3a2e6bc8b4d18069efe7750c6cdc0fb2ab0ed5ae0e4dd43aca5210342ec8dc87ced697be3770be4d2984b0bae5b8ffaddc4e72f0d046e77c673e49053ae04004830450221008b5056c62bed28b2175d5f869660768369e6cca1beb88ff943e7139eac7251af02206e8d9021caccd4e6581e58afe87304e08ef885c3cdaa096dbd417c1645aefaaf01483045022100f71f7b4623fd6611c5370b88a303a0aa114261d51d4401e1db06c4d0468591c302200b9f032aec60813a33ec78cc318033a05b5c0235a43a3be2852273079f73aacd01695221022974296b7118443f1c2bff09cc3d0eb15a0253fd66478d108821330dab585d342102e65d34bd9fc0d3a2e6bc8b4d18069efe7750c6cdc0fb2ab0ed5ae0e4dd43aca5210342ec8dc87ced697be3770be4d2984b0bae5b8ffaddc4e72f0d046e77c673e49053ae0400483045022100e9818cd47569a55194a3bd5c0e5fe74a83d5642ece6c5a7eafe41526126a2652022069dde7a29def979a5e6a7f616622ce05a2e75ddf8bdc0b0772e5f82a3813f52e0147304402201b790bc86ee885acf2a6811fc633ba7976a151d0f384220fe98f6fde8ed0b5c902205cd5b122d9b0d8dc2425f478981c50156a84f1e76df81d528e37a8b3cfa27df40169522102dda3554cb95e13748b2f812393683ea7678838255f538b3b9b2a3ee5d4634d4321021a5d7ff3381cf58d038b62f516474351ca9fab6a7a3ed797418c9562cd169f0d21039b4962f14657689ce9da881074cdc4864d707e0817cc21dd8fb9eb79725eee9153ae00000000", "vin": [{"txinwitness": ["", "3045022100fca462456908ad05b6169b0ec0e4b6d85a59251adb50e6295b8d2511d7c55f1a0220267397a612845e9c87949b564e77da95f386a4729e6f99ea1b57073247adc8fa01", "3044022049d51cbc70afdf77b7c4a5dc39263a957e5e2120f5fe1c8fc93aa70057368f54022019406545bf1aca181383331b100b05b1d4406835c2809ce96b4883296868c06801", "5221021c1f7046c13d39731894129de76601d2b9a0fd011497d7e4228add6a330d96872102b5c799ed23469707975f43f8d2b826b66117de177acbabfe5f95a951822ca15d2103695ebda6d1643a6b4bdd30e96989741f4640dbb2500b804e22869e67b3fa994553ae"], "sequence": 4294967295, "scriptSig": {"hex": "220020d99ff2dc9107ba77bb9e7f56ffcf1798eb8d4f3ecae6c1d7032ba04415140cd6", "asm": "0020d99ff2dc9107ba77bb9e7f56ffcf1798eb8d4f3ecae6c1d7032ba04415140cd6"}, "vout": 14, "txid": "367eb81177acf236ebfc5c3798a06695fa4f9188f7a8594253f9af48803bf14f"}, {"txinwitness": ["", "3045022100e8582ed2a6f88a2c55e267e33a80884559d2decc61538e4f20e58d9d51d06da402201ad38c092a4eba468bd4a52af1bd533beb1f2265cdc37b580fd027616e2647d101", "304402204a359ad6dc55d6f97c58183b44decc4459cfe81fd304716a8f2e4cf809e02dda02201dfefefab7ca80edf4ce3f59f93843bf9dc48795e3ac84acc911903153d1994a01", "5221036772dc6eeeeefaad8da9359d4c4dba481e71746c188e0956310354c51554f33521033eb24388b509e3b481d630b1c666430fae2dd477f29f7f989c6e733a6a6a2759210316fa477b2a4e81ef1b02670d4a37f785c672016988a646ebea108d618067cd8853ae"], "sequence": 4294967295, "scriptSig": {"hex": "22002097b008509e38e950acec514d34dbc6fa93bfad2ca8265ed5330994dc6ac7d962", "asm": "002097b008509e38e950acec514d34dbc6fa93bfad2ca8265ed5330994dc6ac7d962"}, "vout": 0, "txid": "1e5cb309f89288d10fac9bb149070b4d5471a7560a12e80cbf2839168692653a"}, {"txinwitness": ["", "3045022100c82c1d590192b96266323e259a8263b8f90bc6e5b7f776196c95d1d96dd3004e02204a04cbf4963df30199e3f9c37ed0674d08ae6666839662aafab779e4f5bb1b8801", "3045022100be01e8f4948c9748b79e4bcf93c5be6fe835b1c4a4b20eb14975a19419567e8c02207450f17cb3bfd51e6add37fd07619c31808da608da1e0c48902a287d757bcf0801", "5221036772dc6eeeeefaad8da9359d4c4dba481e71746c188e0956310354c51554f33521033eb24388b509e3b481d630b1c666430fae2dd477f29f7f989c6e733a6a6a2759210316fa477b2a4e81ef1b02670d4a37f785c672016988a646ebea108d618067cd8853ae"], "sequence": 4294967295, "scriptSig": {"hex": "22002097b008509e38e950acec514d34dbc6fa93bfad2ca8265ed5330994dc6ac7d962", "asm": "002097b008509e38e950acec514d34dbc6fa93bfad2ca8265ed5330994dc6ac7d962"}, "vout": 1, "txid": "e818e8d4676aa2c7d7e0d76239cdf0fbdf6075f158a24e85c5f841ebdd7200e9"}, {"txinwitness": ["", "30440220291d3799a00656693c6aa174ef501098b6f0cf195ad3ede303d19294f49a30b002203c241c1d99eaa5e4fc2ce26369ee5ee915558540b399e8c4bd88ce768136acc201", "30440220629993410ab884ea2c2107da1eb4bed3add9994ddf4e553f373f5cf11057938602203267dd2803081dbfc6c88fee11330b67841c17e2181e9dab54a347cce4a8d39301", "5221036772dc6eeeeefaad8da9359d4c4dba481e71746c188e0956310354c51554f33521033eb24388b509e3b481d630b1c666430fae2dd477f29f7f989c6e733a6a6a2759210316fa477b2a4e81ef1b02670d4a37f785c672016988a646ebea108d618067cd8853ae"], "sequence": 4294967295, "scriptSig": {"hex": "22002097b008509e38e950acec514d34dbc6fa93bfad2ca8265ed5330994dc6ac7d962", "asm": "002097b008509e38e950acec514d34dbc6fa93bfad2ca8265ed5330994dc6ac7d962"}, "vout": 1, "txid": "09f20c0bc8f154710a7a9d096eca13a8c3667b1b88e91a122f5b066a667a79b5"}, {"txinwitness": ["", "304502210099ffc674aca6d642edb541057b304a17719abdf0b24a464b9bdfa25fb03bb63e0220433c33b5f0d21dbee3932ebdddf9d4ee5f62f8ca0f510e1ed229f0bf67e5f74601", "304402204227604114fc0170e17e37124b54b198babf697eddf86879aabe4914e19067490220331294c3727fbc5e6b97b0a1f3d391cc25c88743216b82e12f5344fe1b29e02201", "5221036772dc6eeeeefaad8da9359d4c4dba481e71746c188e0956310354c51554f33521033eb24388b509e3b481d630b1c666430fae2dd477f29f7f989c6e733a6a6a2759210316fa477b2a4e81ef1b02670d4a37f785c672016988a646ebea108d618067cd8853ae"], "sequence": 4294967295, "scriptSig": {"hex": "22002097b008509e38e950acec514d34dbc6fa93bfad2ca8265ed5330994dc6ac7d962", "asm": "002097b008509e38e950acec514d34dbc6fa93bfad2ca8265ed5330994dc6ac7d962"}, "vout": 1, "txid": "c6790ce80b7823f75921a8d8c618bc849819dbadc3e1f4143f8a067fe67b9b5e"}, {"txinwitness": ["", "304402203a0cf5386b836e156a198d6a3c87fe9de793cf1bbe05e6bb66232e3630b25089022003ba46fa711b995a160eebbeb27b34d518bf308c0ad536cb59b983ee3165ab6c01", "30440220195a72f99c6c09c59fcbaebb037e578303a16b82995640f4ff08910548388e4002201a2ceed95941b8eca0383d73964097c233a884ac2879cd01362911929d4b246301", "52210348b97b01b74d60d9925b2c033d16d9efd12a8c6cf56486db3e6c1d4fbd61c382210263f48956d06ba1e8398729b6f797a8c06dcb675488ee8b0f324edb831bae5737210380cce238b71d3e781e5acf68625b699bcf59689006a362b4e28af904f560867853ae"], "sequence": 4294967295, "scriptSig": {"hex": "220020b62178d92703d683827ad56d4f1bc022a0ebf0d8545b09c50688d5e421618a9f", "asm": "0020b62178d92703d683827ad56d4f1bc022a0ebf0d8545b09c50688d5e421618a9f"}, "vout": 1, "txid": "367eb81177acf236ebfc5c3798a06695fa4f9188f7a8594253f9af48803bf14f"}, {"txinwitness": ["", "30440220521764f580c2617539686bcbb9e522d606c22f590b34296b03249ea8c746ee9602200fae675ffa2e0350da1c6b493c6f1fd6bada9c59068738c148a70459094b19f901", "3044022051c6924b276103363052aee043fae89d1a0af21fb29ce097dacfed16877f2968022078f3b7d7e3896f33a15e3e485b87162e63ae81d624528e7507e012c90ec53c9301", "5221021adf01159e3d0bd6f6abe4e3eada9b0da42e0d55aba822fa6632deaaf16bd7f82103847992cbf981a28a4af0c808dd5afbb85d2d7d23ecd8a056a183f94bdda6ba7d210250456783542cc561b2450619302b51c09ed8809da12b465d1627bb9407079fd953ae"], "sequence": 4294967295, "scriptSig": {"hex": "220020dab24a02c531c0ac0b1c961c1e3f86066d8add275c0986a3e25035d94c0ca853", "asm": "0020dab24a02c531c0ac0b1c961c1e3f86066d8add275c0986a3e25035d94c0ca853"}, "vout": 12, "txid": "367eb81177acf236ebfc5c3798a06695fa4f9188f7a8594253f9af48803bf14f"}, {"txinwitness": ["", "30440220716a0896bc9ffb3257b0e9d57b31cceeef5a18616ee5bdebda67acbea6ce311402200bbd83fb09ae0e78be123b8a0235da7b8d733e65872c4084acc0c0c9fd5c62a801", "304402202491a5b4431914280309c28dc1e4f6a0e74ceb2562032cc63d27f3dca59b1cb502200b9cebf137667c18c4956f155d37010cbefca373a8f1b88a883b50d98150683601", "5221022974296b7118443f1c2bff09cc3d0eb15a0253fd66478d108821330dab585d342102e65d34bd9fc0d3a2e6bc8b4d18069efe7750c6cdc0fb2ab0ed5ae0e4dd43aca5210342ec8dc87ced697be3770be4d2984b0bae5b8ffaddc4e72f0d046e77c673e49053ae"], "sequence": 4294967295, "scriptSig": {"hex": "220020bd455019b3d37eaea0c0b3df865b8e52fd589263774ee25fcf4f0640e310c766", "asm": "0020bd455019b3d37eaea0c0b3df865b8e52fd589263774ee25fcf4f0640e310c766"}, "vout": 0, "txid": "190c4e15afa4dc445a8cf368bdcf02db4058b0b4e9275638df0f780896400823"}, {"txinwitness": ["", "30450221008b5056c62bed28b2175d5f869660768369e6cca1beb88ff943e7139eac7251af02206e8d9021caccd4e6581e58afe87304e08ef885c3cdaa096dbd417c1645aefaaf01", "3045022100f71f7b4623fd6611c5370b88a303a0aa114261d51d4401e1db06c4d0468591c302200b9f032aec60813a33ec78cc318033a05b5c0235a43a3be2852273079f73aacd01", "5221022974296b7118443f1c2bff09cc3d0eb15a0253fd66478d108821330dab585d342102e65d34bd9fc0d3a2e6bc8b4d18069efe7750c6cdc0fb2ab0ed5ae0e4dd43aca5210342ec8dc87ced697be3770be4d2984b0bae5b8ffaddc4e72f0d046e77c673e49053ae"], "sequence": 4294967295, "scriptSig": {"hex": "220020bd455019b3d37eaea0c0b3df865b8e52fd589263774ee25fcf4f0640e310c766", "asm": "0020bd455019b3d37eaea0c0b3df865b8e52fd589263774ee25fcf4f0640e310c766"}, "vout": 0, "txid": "140ae16a513fdee42a4454bb47247ea2fb9e3c7981063db6468cd1f09a0d55f5"}, {"txinwitness": ["", "3045022100e9818cd47569a55194a3bd5c0e5fe74a83d5642ece6c5a7eafe41526126a2652022069dde7a29def979a5e6a7f616622ce05a2e75ddf8bdc0b0772e5f82a3813f52e01", "304402201b790bc86ee885acf2a6811fc633ba7976a151d0f384220fe98f6fde8ed0b5c902205cd5b122d9b0d8dc2425f478981c50156a84f1e76df81d528e37a8b3cfa27df401", "522102dda3554cb95e13748b2f812393683ea7678838255f538b3b9b2a3ee5d4634d4321021a5d7ff3381cf58d038b62f516474351ca9fab6a7a3ed797418c9562cd169f0d21039b4962f14657689ce9da881074cdc4864d707e0817cc21dd8fb9eb79725eee9153ae"], "sequence": 4294967295, "scriptSig": {"hex": "2200208ecbe14e6430426f9bcfcfa4d6227c65ccd68338b310c77266340bd545ce147e", "asm": "00208ecbe14e6430426f9bcfcfa4d6227c65ccd68338b310c77266340bd545ce147e"}, "vout": 0, "txid": "c6a3e870dac4d8e4de653053f9528a6685f39ee742b07bab23ba5aae1adca272"}], "txid": "6c33cd4e9273f937c7e6d43572fac2008113061e1089e509becede3a4dcb2ea7", "blocktime": 1537873282, "version": 1, "confirmations": 11480, "time": 1537873282, "locktime": 0, "vsize": 1769, "size": 3666}