{"hash": "6c41414c096ab8e6fa12b037d356c254076ef968449990cac6444f257afff338", "blockhash": "0000000000000000001cda96e906b7601b7a6fb1a3b62bca570a9e5d8f4b3de1", "vout": [{"scriptPubKey": {"reqSigs": 1, "hex": "76a914d031c0e2bd5e09b8b6233a3eb998156be94a260488ac", "addresses": ["1Kyq9qEtrXDryVk3jPZtk2q7shdh8nF2zA"], "asm": "OP_DUP OP_HASH160 d031c0e2bd5e09b8b6233a3eb998156be94a2604 OP_EQUALVERIFY OP_CHECKSIG", "type": "pubkeyhash"}, "value": 0.00443532, "n": 0}, {"scriptPubKey": {"reqSigs": 1, "hex": "a914488f91e7891f0278b20e5808887071c9a3de8be187", "addresses": ["38JgZmbrzqori38SMNLtS9g7Bi8QqJWJBY"], "asm": "OP_HASH160 488f91e7891f0278b20e5808887071c9a3de8be1 OP_EQUAL", "type": "scripthash"}, "value": 0.010321, "n": 1}], "hex": "0100000002ca6c8ec366a2918cfb0a422cba08e7866383b2221dae1f3d962cd91dd2c01315000000006b483045022100a30934420013beb4fc0608fef75a98b0c1b805431b669e5ee6fb7fb40a146ac502206d75983e79f1e8b6771708cbf3ef2357681c362734bd5427f013ce519fa8aa850121039a4463df5c29d367ab2ae2747efd3d577fac6c6860d9de8aba6f5fb122ea06c6ffffffff5acc328ccbfe5e86a864a7cb844d246bb30f20af3111118361d5548c36024fd5540000006a4730440220525cafbae29472f4de3c5f76dd7c2be9f61d8af18475d1e4b8fa2707412163c602206a2c743c83b37f651ff9843cec18e6e0a5623084f3f70b85fec719164f166b2e0121021ca4f3c7036a648f19304703670de30e582eca2e792957967c3fe31918abcfc2ffffffff028cc40600000000001976a914d031c0e2bd5e09b8b6233a3eb998156be94a260488aca4bf0f000000000017a914488f91e7891f0278b20e5808887071c9a3de8be18700000000", "vin": [{"sequence": 4294967295, "scriptSig": {"hex": "483045022100a30934420013beb4fc0608fef75a98b0c1b805431b669e5ee6fb7fb40a146ac502206d75983e79f1e8b6771708cbf3ef2357681c362734bd5427f013ce519fa8aa850121039a4463df5c29d367ab2ae2747efd3d577fac6c6860d9de8aba6f5fb122ea06c6", "asm": "3045022100a30934420013beb4fc0608fef75a98b0c1b805431b669e5ee6fb7fb40a146ac502206d75983e79f1e8b6771708cbf3ef2357681c362734bd5427f013ce519fa8aa85[ALL] 039a4463df5c29d367ab2ae2747efd3d577fac6c6860d9de8aba6f5fb122ea06c6"}, "vout": 0, "txid": "1513c0d21dd92c963d1fae1d22b2836386e708ba2c420afb8c91a266c38e6cca"}, {"sequence": 4294967295, "scriptSig": {"hex": "4730440220525cafbae29472f4de3c5f76dd7c2be9f61d8af18475d1e4b8fa2707412163c602206a2c743c83b37f651ff9843cec18e6e0a5623084f3f70b85fec719164f166b2e0121021ca4f3c7036a648f19304703670de30e582eca2e792957967c3fe31918abcfc2", "asm": "30440220525cafbae29472f4de3c5f76dd7c2be9f61d8af18475d1e4b8fa2707412163c602206a2c743c83b37f651ff9843cec18e6e0a5623084f3f70b85fec719164f166b2e[ALL] 021ca4f3c7036a648f19304703670de30e582eca2e792957967c3fe31918abcfc2"}, "vout": 84, "txid": "d54f02368c54d56183111131af200fb36b244d84cba764a8865efecb8c32cc5a"}], "txid": "6c41414c096ab8e6fa12b037d356c254076ef968449990cac6444f257afff338", "blocktime": 1537873282, "version": 1, "confirmations": 11485, "time": 1537873282, "locktime": 0, "vsize": 371, "size": 371}