{"hash": "6c426180545593831456bf72b322069b619f3b35300f27e24827cc945e059fce", "blockhash": "00000000000000000017f5eb5941039fbcee6240d03bc1f2f8e35350df66a1d8", "vout": [{"scriptPubKey": {"reqSigs": 1, "hex": "76a91454215c9da02132937412d4ec5320b8bd7c681b6888ac", "addresses": ["18fqj8bH8TPQwnYBMTMwYicWXkcP5ky9d1"], "asm": "OP_DUP OP_HASH160 54215c9da02132937412d4ec5320b8bd7c681b68 OP_EQUALVERIFY OP_CHECKSIG", "type": "pubkeyhash"}, "value": 0.0001907, "n": 0}, {"scriptPubKey": {"reqSigs": 1, "hex": "76a914368626755f5a8d2732c4b1ea0b85e26aa20f89e488ac", "addresses": ["15yJCHFLLrnjJELfBCVEqUQtsEZLEGjPSm"], "asm": "OP_DUP OP_HASH160 368626755f5a8d2732c4b1ea0b85e26aa20f89e4 OP_EQUALVERIFY OP_CHECKSIG", "type": "pubkeyhash"}, "value": 0.00054857, "n": 1}], "hex": "0100000001d03d2c5ac10c6b01af36099862ba1b5237a9331148aec6ad3b35469f41d6762a010000006b483045022100c4eb2c4361b010779bd72b0f14767c27ba587ef4fc44b046c13f60fd99d3c4e0022010acadb86c7a40ecf64fd20f01fab18f7d27dd8dd070ea537802a1f12c5011df012102166a3337005e3f8a1869041feacd4c612f4eee47a8c354d3eae93a38d346317effffffff027e4a0000000000001976a91454215c9da02132937412d4ec5320b8bd7c681b6888ac49d60000000000001976a914368626755f5a8d2732c4b1ea0b85e26aa20f89e488ac00000000", "vin": [{"sequence": 4294967295, "scriptSig": {"hex": "483045022100c4eb2c4361b010779bd72b0f14767c27ba587ef4fc44b046c13f60fd99d3c4e0022010acadb86c7a40ecf64fd20f01fab18f7d27dd8dd070ea537802a1f12c5011df012102166a3337005e3f8a1869041feacd4c612f4eee47a8c354d3eae93a38d346317e", "asm": "3045022100c4eb2c4361b010779bd72b0f14767c27ba587ef4fc44b046c13f60fd99d3c4e0022010acadb86c7a40ecf64fd20f01fab18f7d27dd8dd070ea537802a1f12c5011df[ALL] 02166a3337005e3f8a1869041feacd4c612f4eee47a8c354d3eae93a38d346317e"}, "vout": 1, "txid": "2a76d6419f46353badc6ae481133a937521bba62980936af016b0cc15a2c3dd0"}], "txid": "6c426180545593831456bf72b322069b619f3b35300f27e24827cc945e059fce", "blocktime": 1537874412, "version": 1, "confirmations": 11468, "time": 1537874412, "locktime": 0, "vsize": 226, "size": 226}