{"hash": "6c45936ffb9769dd9ab00c04f6d4ac30ac7145c137c6b7e0c0f7117bc1c7b33f", "blockhash": "0000000000000000000e13cef7c366c0283d82e591d1acd082e914b08063cdf1", "vout": [{"scriptPubKey": {"reqSigs": 1, "hex": "76a9143daa624e0bf4850da5999ad6681f51e0102d4d5e88ac", "addresses": ["16d4LC1LMCmLNoegdDFc3hoQVU2ERe5uiM"], "asm": "OP_DUP OP_HASH160 3daa624e0bf4850da5999ad6681f51e0102d4d5e OP_EQUALVERIFY OP_CHECKSIG", "type": "pubkeyhash"}, "value": 0.00778984, "n": 0}], "hex": "0100000002e5b266d928bef7b0b3285903c44e5adddf2a5379d739d1ac1e8d5e3ec01c2f957e0100006a4730440220038747a2e9963c07717dcdca4b9be01bc94d003b10a6aeb4398ce9002131e8640220130b552b71a76f32fb29e138526f3fbcda0c5bac6bdb3359b13dcc0e80faf9ea012103037219682de0a0b7cbfbdd81cdcff4108e529eb0f36352adedb15c641662fc76ffffffffed24bf93b3a1fa87bd0a915faf7bd6d898c4cd9634f8c96ab41bf327cc33f0f6780100006b483045022100a09dd1fc5619fb02bf649ed84759d9c3331889870cd1cc879e4e904d42d9eaf802205440429912c2f9a93dc869ae8d508fb3a628d3f64f8ca00ad515038c52c314e2012103037219682de0a0b7cbfbdd81cdcff4108e529eb0f36352adedb15c641662fc76ffffffff01e8e20b00000000001976a9143daa624e0bf4850da5999ad6681f51e0102d4d5e88ac00000000", "vin": [{"sequence": 4294967295, "scriptSig": {"hex": "4730440220038747a2e9963c07717dcdca4b9be01bc94d003b10a6aeb4398ce9002131e8640220130b552b71a76f32fb29e138526f3fbcda0c5bac6bdb3359b13dcc0e80faf9ea012103037219682de0a0b7cbfbdd81cdcff4108e529eb0f36352adedb15c641662fc76", "asm": "30440220038747a2e9963c07717dcdca4b9be01bc94d003b10a6aeb4398ce9002131e8640220130b552b71a76f32fb29e138526f3fbcda0c5bac6bdb3359b13dcc0e80faf9ea[ALL] 03037219682de0a0b7cbfbdd81cdcff4108e529eb0f36352adedb15c641662fc76"}, "vout": 382, "txid": "952f1cc03e5e8d1eacd139d779532adfdd5a4ec4035928b3b0f7be28d966b2e5"}, {"sequence": 4294967295, "scriptSig": {"hex": "483045022100a09dd1fc5619fb02bf649ed84759d9c3331889870cd1cc879e4e904d42d9eaf802205440429912c2f9a93dc869ae8d508fb3a628d3f64f8ca00ad515038c52c314e2012103037219682de0a0b7cbfbdd81cdcff4108e529eb0f36352adedb15c641662fc76", "asm": "3045022100a09dd1fc5619fb02bf649ed84759d9c3331889870cd1cc879e4e904d42d9eaf802205440429912c2f9a93dc869ae8d508fb3a628d3f64f8ca00ad515038c52c314e2[ALL] 03037219682de0a0b7cbfbdd81cdcff4108e529eb0f36352adedb15c641662fc76"}, "vout": 376, "txid": "f6f033cc27f31bb46ac9f83496cdc498d8d67baf5f910abd87faa1b393bf24ed"}], "txid": "6c45936ffb9769dd9ab00c04f6d4ac30ac7145c137c6b7e0c0f7117bc1c7b33f", "blocktime": 1537871767, "version": 1, "confirmations": 11495, "time": 1537871767, "locktime": 0, "vsize": 339, "size": 339}