{"hash": "6c464950339ec7f73f985f02ff46406e0baead6ac7dfb22d9db0940c5f3a2878", "blockhash": "0000000000000000000baef3f32e3676a92c3b2e5da21b426e4f302fc371ce76", "vout": [{"scriptPubKey": {"reqSigs": 1, "hex": "76a914ff49915ce0c64cf13728e7a1d0358682781f754188ac", "addresses": ["1QGqSVvmhreaQ3imSigU3mTLEvwaiypaKR"], "asm": "OP_DUP OP_HASH160 ff49915ce0c64cf13728e7a1d0358682781f7541 OP_EQUALVERIFY OP_CHECKSIG", "type": "pubkeyhash"}, "value": 0.003128, "n": 0}, {"scriptPubKey": {"reqSigs": 1, "hex": "76a914325c860f5f8917d57d04921d25900ccd8904233a88ac", "addresses": ["15bHdFSVqwaye54JsktRRjPbpQQTPWKb4t"], "asm": "OP_DUP OP_HASH160 325c860f5f8917d57d04921d25900ccd8904233a OP_EQUALVERIFY OP_CHECKSIG", "type": "pubkeyhash"}, "value": 0.59061997, "n": 1}], "hex": "01000000014079f1a6c06883bc0793add93be041b175bd10d0e1c98ffc03a0f3050382d1aa010000006a473044022034be9459e4c3cee1aea581891f0c478b357588fab6d3a6753aa4d5f48001adba02205f9f0ab4e086aecd1a6d470e29ec83f60e2f4f9d22ffe486a029e4612189c6fe01210372edca70fd61a42e873acd001ef41b0e2e595a2fa7acf26715b94c1891cacb4cffffffff02e0c50400000000001976a914ff49915ce0c64cf13728e7a1d0358682781f754188aced368503000000001976a914325c860f5f8917d57d04921d25900ccd8904233a88ac00000000", "vin": [{"sequence": 4294967295, "scriptSig": {"hex": "473044022034be9459e4c3cee1aea581891f0c478b357588fab6d3a6753aa4d5f48001adba02205f9f0ab4e086aecd1a6d470e29ec83f60e2f4f9d22ffe486a029e4612189c6fe01210372edca70fd61a42e873acd001ef41b0e2e595a2fa7acf26715b94c1891cacb4c", "asm": "3044022034be9459e4c3cee1aea581891f0c478b357588fab6d3a6753aa4d5f48001adba02205f9f0ab4e086aecd1a6d470e29ec83f60e2f4f9d22ffe486a029e4612189c6fe[ALL] 0372edca70fd61a42e873acd001ef41b0e2e595a2fa7acf26715b94c1891cacb4c"}, "vout": 1, "txid": "aad1820305f3a003fc8fc9e1d010bd75b141e03bd9ad9307bc8368c0a6f17940"}], "txid": "6c464950339ec7f73f985f02ff46406e0baead6ac7dfb22d9db0940c5f3a2878", "blocktime": 1537876114, "version": 1, "confirmations": 11460, "time": 1537876114, "locktime": 0, "vsize": 225, "size": 225}