{"hash": "6c48d4d87595c4cbcbb5b9ca664c45c6cd353f554d64430882c582c9db506c12", "blockhash": "0000000000000000001f76057863aec43deb6fa401d9628bb513d65a8098bfab", "vout": [{"scriptPubKey": {"reqSigs": 1, "hex": "76a914664c01f76c08b89154a27b67ed072f933aef38ff88ac", "addresses": ["1AKtyg2zNTb2ZyCiL9zkoNvy9qpdZWZwVK"], "asm": "OP_DUP OP_HASH160 664c01f76c08b89154a27b67ed072f933aef38ff OP_EQUALVERIFY OP_CHECKSIG", "type": "pubkeyhash"}, "value": 0.97718487, "n": 0}, {"scriptPubKey": {"reqSigs": 1, "hex": "76a91459ea69716b9b3a4dbeb13743b6d7c72f7bca5aaa88ac", "addresses": ["19CRxJBuF2qiC8X2uy8X8ESr9dFCAxwG5a"], "asm": "OP_DUP OP_HASH160 59ea69716b9b3a4dbeb13743b6d7c72f7bca5aaa OP_EQUALVERIFY OP_CHECKSIG", "type": "pubkeyhash"}, "value": 0.00261831, "n": 1}], "hex": "0200000001c84e826acd131fa5e3b687d566e891238869eb7a53bdc8b2d7fbc8b3a2e0102f000000006a47304402205c6e6849ef74953ee4224a4c82a2212faa775ff34197b2d6bd4773c476821fc8022015fe9e9d3215738d9dab5e14c03e925a92fee60ba6d32c4032c2d9d30009b7f60121026dc07d688441d45609e7e3f2fd516a4b55523856568a8c12cb1095e0e6f023a9ffffffff02d710d305000000001976a914664c01f76c08b89154a27b67ed072f933aef38ff88acc7fe0300000000001976a91459ea69716b9b3a4dbeb13743b6d7c72f7bca5aaa88ac00000000", "vin": [{"sequence": 4294967295, "scriptSig": {"hex": "47304402205c6e6849ef74953ee4224a4c82a2212faa775ff34197b2d6bd4773c476821fc8022015fe9e9d3215738d9dab5e14c03e925a92fee60ba6d32c4032c2d9d30009b7f60121026dc07d688441d45609e7e3f2fd516a4b55523856568a8c12cb1095e0e6f023a9", "asm": "304402205c6e6849ef74953ee4224a4c82a2212faa775ff34197b2d6bd4773c476821fc8022015fe9e9d3215738d9dab5e14c03e925a92fee60ba6d32c4032c2d9d30009b7f6[ALL] 026dc07d688441d45609e7e3f2fd516a4b55523856568a8c12cb1095e0e6f023a9"}, "vout": 0, "txid": "2f10e0a2b3c8fbd7b2c8bd537aeb69882391e866d587b6e3a51f13cd6a824ec8"}], "txid": "6c48d4d87595c4cbcbb5b9ca664c45c6cd353f554d64430882c582c9db506c12", "blocktime": 1537873891, "version": 2, "confirmations": 11475, "time": 1537873891, "locktime": 0, "vsize": 225, "size": 225}