{"hash": "6c4baac337c61072b72ebf0d3a823cdf4582a38e70664d15eb14e6c49dd356aa", "blockhash": "0000000000000000001cda96e906b7601b7a6fb1a3b62bca570a9e5d8f4b3de1", "vout": [{"scriptPubKey": {"reqSigs": 1, "hex": "a9143606fe83a8059e1b908a57a4202d82c02b6a4b1d87", "addresses": ["36cgnsHp3m4vqdqcJxvAEaLgUPiibfowdV"], "asm": "OP_HASH160 3606fe83a8059e1b908a57a4202d82c02b6a4b1d OP_EQUAL", "type": "scripthash"}, "value": 0.0003, "n": 0}, {"scriptPubKey": {"reqSigs": 1, "hex": "76a914abc94119e933f37edc1eca5ea1d402d8171cabf488ac", "addresses": ["1GfKeCRngTGXRm5vLDhysextc87WPcX6qc"], "asm": "OP_DUP OP_HASH160 abc94119e933f37edc1eca5ea1d402d8171cabf4 OP_EQUALVERIFY OP_CHECKSIG", "type": "pubkeyhash"}, "value": 0.00058904, "n": 1}], "hex": "010000000151eae34030305f91ff22effaef03845ae94b8a288bccab3b35dd302be8310a2d010000006b48304502210090872019752366f28505e74b2a3c9f895413f737140342cdfd37f4128b9132df02205f1395056625d496006d2816014184329306852d52fef6eb685213d07886dbdc0121038ae0f48599b3fe4f0e5ad8485d55b1ea9534d0e754f45cadb1e51932a842bda4fdffffff02307500000000000017a9143606fe83a8059e1b908a57a4202d82c02b6a4b1d8718e60000000000001976a914abc94119e933f37edc1eca5ea1d402d8171cabf488ac13490800", "vin": [{"sequence": 4294967293, "scriptSig": {"hex": "48304502210090872019752366f28505e74b2a3c9f895413f737140342cdfd37f4128b9132df02205f1395056625d496006d2816014184329306852d52fef6eb685213d07886dbdc0121038ae0f48599b3fe4f0e5ad8485d55b1ea9534d0e754f45cadb1e51932a842bda4", "asm": "304502210090872019752366f28505e74b2a3c9f895413f737140342cdfd37f4128b9132df02205f1395056625d496006d2816014184329306852d52fef6eb685213d07886dbdc[ALL] 038ae0f48599b3fe4f0e5ad8485d55b1ea9534d0e754f45cadb1e51932a842bda4"}, "vout": 1, "txid": "2d0a31e82b30dd353babcc8b288a4be95a8403effaef22ff915f303040e3ea51"}], "txid": "6c4baac337c61072b72ebf0d3a823cdf4582a38e70664d15eb14e6c49dd356aa", "blocktime": 1537873282, "version": 1, "confirmations": 11481, "time": 1537873282, "locktime": 542995, "vsize": 224, "size": 224}