{"hash": "6c4faaaf04b8325108486f64a5d9a3b61b710e9e8da1b2fd2d337d167850579f", "blockhash": "0000000000000000000dcc0f55137456b1a82d3642486a52398922ac4d620174", "vout": [{"scriptPubKey": {"reqSigs": 1, "hex": "76a914ceae00b698669b5eeaee61b096223f632cf4a1a988ac", "addresses": ["1KqpeSfunabR8A94SEEDwykXWwVeakrg8S"], "asm": "OP_DUP OP_HASH160 ceae00b698669b5eeaee61b096223f632cf4a1a9 OP_EQUALVERIFY OP_CHECKSIG", "type": "pubkeyhash"}, "value": 3.432e-05, "n": 0}, {"scriptPubKey": {"reqSigs": 1, "hex": "76a914591a605a24bc4b3c8cc5c11d2df655ff33dbf81788ac", "addresses": ["1988jjfaG7n9PePP2SCmSvKYe1vvLP7QmE"], "asm": "OP_DUP OP_HASH160 591a605a24bc4b3c8cc5c11d2df655ff33dbf817 OP_EQUALVERIFY OP_CHECKSIG", "type": "pubkeyhash"}, "value": 0.0244, "n": 1}], "hex": "01000000013caa1bd92bfb776a56b0caf094844d653cb157cafd091bcaa786a5b4876a0134070000006a47304402205c61c601279ce5618f2725a18756b76e156975cd72fa246fae5fb204f1871abb02201d0bf510f2c75efc3f6d2744cf7a6eae438c737f41bb777886bd6a5f22954a53012102a4643e8f11c591ac138771555f0028b0d152ad4ffc7bc07f605b806db0c07be1ffffffff02680d0000000000001976a914ceae00b698669b5eeaee61b096223f632cf4a1a988ac403b2500000000001976a914591a605a24bc4b3c8cc5c11d2df655ff33dbf81788ac00000000", "vin": [{"sequence": 4294967295, "scriptSig": {"hex": "47304402205c61c601279ce5618f2725a18756b76e156975cd72fa246fae5fb204f1871abb02201d0bf510f2c75efc3f6d2744cf7a6eae438c737f41bb777886bd6a5f22954a53012102a4643e8f11c591ac138771555f0028b0d152ad4ffc7bc07f605b806db0c07be1", "asm": "304402205c61c601279ce5618f2725a18756b76e156975cd72fa246fae5fb204f1871abb02201d0bf510f2c75efc3f6d2744cf7a6eae438c737f41bb777886bd6a5f22954a53[ALL] 02a4643e8f11c591ac138771555f0028b0d152ad4ffc7bc07f605b806db0c07be1"}, "vout": 7, "txid": "34016a87b4a586a7ca1b09fdca57b13c654d8494f0cab0566a77fb2bd91baa3c"}], "txid": "6c4faaaf04b8325108486f64a5d9a3b61b710e9e8da1b2fd2d337d167850579f", "blocktime": 1537870268, "version": 1, "confirmations": 11516, "time": 1537870268, "locktime": 0, "vsize": 225, "size": 225}