{"hash": "de507abfec7c19f662b01242c2d5095352b791c13f2411214a7c024e149ce4cc", "blockhash": "00000000000000000024a2167bbff67b0be802c0b01cdd79e6331c2be6459f87", "vout": [{"scriptPubKey": {"reqSigs": 1, "hex": "a914b44337f216fcdcf0a5895a72e8c4169a68ef293e87", "addresses": ["3J8A5VuG2KUQmCweiwHBDfv67VqWTciCM2"], "asm": "OP_HASH160 b44337f216fcdcf0a5895a72e8c4169a68ef293e OP_EQUAL", "type": "scripthash"}, "value": 0.01543571, "n": 0}], "hex": "01000000000101ce0d2813cd6fc3108b9b31b5c9cc101bf74632435bb5dcf82311ab5f328b797e00000000171600148ff495cc529d72f366e1d2fe5b6b3b1c2d17ff5fffffffff01938d17000000000017a914b44337f216fcdcf0a5895a72e8c4169a68ef293e870247304402206f5439a2f464455f897ef20fdd7a0116794f7bd402b664197dfeb60bc6931e050220578cabf8c1487e51160051b2683ace1f2bd104c258daa9d6f665d80eb26d171f012103d0571a70f2c241dea79337d448826a3b3efc918e00308685d3493967f8ef464200000000", "vin": [{"txinwitness": ["304402206f5439a2f464455f897ef20fdd7a0116794f7bd402b664197dfeb60bc6931e050220578cabf8c1487e51160051b2683ace1f2bd104c258daa9d6f665d80eb26d171f01", "03d0571a70f2c241dea79337d448826a3b3efc918e00308685d3493967f8ef4642"], "sequence": 4294967295, "scriptSig": {"hex": "1600148ff495cc529d72f366e1d2fe5b6b3b1c2d17ff5f", "asm": "00148ff495cc529d72f366e1d2fe5b6b3b1c2d17ff5f"}, "vout": 0, "txid": "7e798b325fab1123f8dcb55b433246f71b10ccc9b5319b8b10c36fcd13280dce"}], "txid": "6c55d3897596e74e5984351bcf76bea23b61f3e01deee944e7a37d5a5939555f", "blocktime": 1537870564, "version": 1, "confirmations": 11515, "time": 1537870564, "locktime": 0, "vsize": 134, "size": 215}