{"hash": "6c56ba617a95125699d346d602b2bac27ca2e1dfdad507be4a2a59f9d09e8143", "blockhash": "0000000000000000001f0ddff1eddb255c1121bcd4da4f1bc9a0da00cae72433", "vout": [{"scriptPubKey": {"reqSigs": 1, "hex": "a914b1e0b508fa54cef1a9dcb19c25e7985ffdce7a7287", "addresses": ["3HuYiRdduk1EuUAoGWXdr9MYj6h1ANSjPa"], "asm": "OP_HASH160 b1e0b508fa54cef1a9dcb19c25e7985ffdce7a72 OP_EQUAL", "type": "scripthash"}, "value": 0.02290059, "n": 0}], "hex": "0100000002164b23cc81136d62248c748d47711aefa69faf0e3c8df980e8001236908fe204010000006b483045022100f0c7f92967bd73e3d676b871d86aea53485182aa1e194c4de6f91955cb11a8f202204d0352b51dac786ab9d49cdd9a793a19a7d5ce63c8f91a5b8c5da1bfbfe2c9b5012103b630b2997d6118923a639657ab699b594966fd82fb71a619ad6c7f1534af31f7ffffffff470730eb1d1560c07113a2b35e6a99f4c27c1d08b6606800ea3357b1b376bd97010000006b483045022100d21e31c1897d995171cee44542979d5228ed3351732a065ad6d7173c7f0acd0c02203c6dc0162aae90505f84f7f7dda88cca10f5391308564642923eaaf499ec582d012103b630b2997d6118923a639657ab699b594966fd82fb71a619ad6c7f1534af31f7ffffffff018bf122000000000017a914b1e0b508fa54cef1a9dcb19c25e7985ffdce7a728700000000", "vin": [{"sequence": 4294967295, "scriptSig": {"hex": "483045022100f0c7f92967bd73e3d676b871d86aea53485182aa1e194c4de6f91955cb11a8f202204d0352b51dac786ab9d49cdd9a793a19a7d5ce63c8f91a5b8c5da1bfbfe2c9b5012103b630b2997d6118923a639657ab699b594966fd82fb71a619ad6c7f1534af31f7", "asm": "3045022100f0c7f92967bd73e3d676b871d86aea53485182aa1e194c4de6f91955cb11a8f202204d0352b51dac786ab9d49cdd9a793a19a7d5ce63c8f91a5b8c5da1bfbfe2c9b5[ALL] 03b630b2997d6118923a639657ab699b594966fd82fb71a619ad6c7f1534af31f7"}, "vout": 1, "txid": "04e28f90361200e880f98d3c0eaf9fa6ef1a71478d748c24626d1381cc234b16"}, {"sequence": 4294967295, "scriptSig": {"hex": "483045022100d21e31c1897d995171cee44542979d5228ed3351732a065ad6d7173c7f0acd0c02203c6dc0162aae90505f84f7f7dda88cca10f5391308564642923eaaf499ec582d012103b630b2997d6118923a639657ab699b594966fd82fb71a619ad6c7f1534af31f7", "asm": "3045022100d21e31c1897d995171cee44542979d5228ed3351732a065ad6d7173c7f0acd0c02203c6dc0162aae90505f84f7f7dda88cca10f5391308564642923eaaf499ec582d[ALL] 03b630b2997d6118923a639657ab699b594966fd82fb71a619ad6c7f1534af31f7"}, "vout": 1, "txid": "97bd76b3b15733ea006860b6081d7cc2f4996a5eb3a21371c060151deb300747"}], "txid": "6c56ba617a95125699d346d602b2bac27ca2e1dfdad507be4a2a59f9d09e8143", "blocktime": 1537872018, "version": 1, "confirmations": 11489, "time": 1537872018, "locktime": 0, "vsize": 338, "size": 338}