{"hash": "6c58254ab31c790dcbd95d61e48e9749b7f464e404160873ac00cf93ed5cd4a7", "blockhash": "0000000000000000000dcc0f55137456b1a82d3642486a52398922ac4d620174", "vout": [{"scriptPubKey": {"reqSigs": 1, "hex": "76a914ba9305a14305c1ba201e9b968acddb68b4fd08af88ac", "addresses": ["1J1WowxXjsr24YqBWjgmYjNjbjqCbdBUig"], "asm": "OP_DUP OP_HASH160 ba9305a14305c1ba201e9b968acddb68b4fd08af OP_EQUALVERIFY OP_CHECKSIG", "type": "pubkeyhash"}, "value": 0.0034373, "n": 0}, {"scriptPubKey": {"reqSigs": 1, "hex": "a91472a83fa3bbe6b2b4c2ad7e1fe6a325c2c25cf09887", "addresses": ["3C9GWXfe9cYohFBjzmuWx3GKccco6vjAhh"], "asm": "OP_HASH160 72a83fa3bbe6b2b4c2ad7e1fe6a325c2c25cf098 OP_EQUAL", "type": "scripthash"}, "value": 0.00592192, "n": 1}], "hex": "010000000115a22ddc0c0d2a63e1e4f74197cbd4619a2fa3ed306e7c34aee90adeb3412be1000000006a47304402207da3f555f11e9bd01b6321d4a47a46ba4d421c4592a8e1f34336a09766cfe9d6022050ad07d826688dc52bb28d8dbd914cf33ef3a3787e626213d739c5c378345079012102ce1ddb9b7f4fb63cd95e5ea2176fdd0baf1e9024ba6fbcf33e801c3876f42627ffffffff02b23e0500000000001976a914ba9305a14305c1ba201e9b968acddb68b4fd08af88ac400909000000000017a91472a83fa3bbe6b2b4c2ad7e1fe6a325c2c25cf0988700000000", "vin": [{"sequence": 4294967295, "scriptSig": {"hex": "47304402207da3f555f11e9bd01b6321d4a47a46ba4d421c4592a8e1f34336a09766cfe9d6022050ad07d826688dc52bb28d8dbd914cf33ef3a3787e626213d739c5c378345079012102ce1ddb9b7f4fb63cd95e5ea2176fdd0baf1e9024ba6fbcf33e801c3876f42627", "asm": "304402207da3f555f11e9bd01b6321d4a47a46ba4d421c4592a8e1f34336a09766cfe9d6022050ad07d826688dc52bb28d8dbd914cf33ef3a3787e626213d739c5c378345079[ALL] 02ce1ddb9b7f4fb63cd95e5ea2176fdd0baf1e9024ba6fbcf33e801c3876f42627"}, "vout": 0, "txid": "e12b41b3de0ae9ae347c6e30eda32f9a61d4cb9741f7e4e1632a0d0cdc2da215"}], "txid": "6c58254ab31c790dcbd95d61e48e9749b7f464e404160873ac00cf93ed5cd4a7", "blocktime": 1537870268, "version": 1, "confirmations": 11518, "time": 1537870268, "locktime": 0, "vsize": 223, "size": 223}