{"hash": "6c5d2717c6563fd03ce0df984818396e6b33501f027c10eb951425e9942585bf", "blockhash": "0000000000000000001cda96e906b7601b7a6fb1a3b62bca570a9e5d8f4b3de1", "vout": [{"scriptPubKey": {"reqSigs": 1, "hex": "76a914fa6f2065aa03568e075ec44cfd5b9e9bdebee2d088ac", "addresses": ["1PqB4Acae7g623qQrP32Q7f4oAqNVY8t53"], "asm": "OP_DUP OP_HASH160 fa6f2065aa03568e075ec44cfd5b9e9bdebee2d0 OP_EQUALVERIFY OP_CHECKSIG", "type": "pubkeyhash"}, "value": 3.003e-05, "n": 0}, {"scriptPubKey": {"reqSigs": 1, "hex": "76a9141b34f183f8a19785e3116bf11aebfd700086b3ed88ac", "addresses": ["13UrfkfBnCi76UbLVr8akKA4SUk8fwmdRQ"], "asm": "OP_DUP OP_HASH160 1b34f183f8a19785e3116bf11aebfd700086b3ed OP_EQUALVERIFY OP_CHECKSIG", "type": "pubkeyhash"}, "value": 0.0002429, "n": 1}, {"scriptPubKey": {"reqSigs": 1, "hex": "76a9146b789c744be8484cc7e74713d8dd0f97ee287f9188ac", "addresses": ["1AoFnjf2CcQp2cqLZ164iZWmDKMPtKf6g5"], "asm": "OP_DUP OP_HASH160 6b789c744be8484cc7e74713d8dd0f97ee287f91 OP_EQUALVERIFY OP_CHECKSIG", "type": "pubkeyhash"}, "value": 0.031515, "n": 2}, {"scriptPubKey": {"reqSigs": 1, "hex": "76a914d9564aaa636a225690f8f1dccbf71e61cd34f52988ac", "addresses": ["1LpB1H4tJLMFDfHVgXLnBrWEbZGDFd5k6D"], "asm": "OP_DUP OP_HASH160 d9564aaa636a225690f8f1dccbf71e61cd34f529 OP_EQUALVERIFY OP_CHECKSIG", "type": "pubkeyhash"}, "value": 0.001, "n": 3}, {"scriptPubKey": {"reqSigs": 1, "hex": "a9143ee0793fd0829ec0301a09a10c9c3f7646becfd387", "addresses": ["37RUj8z6fu1Gu4Dxj6tUHwLP3PtHBQfkj8"], "asm": "OP_HASH160 3ee0793fd0829ec0301a09a10c9c3f7646becfd3 OP_EQUAL", "type": "scripthash"}, "value": 0.011788, "n": 4}, {"scriptPubKey": {"reqSigs": 1, "hex": "76a914be28faf5c902a0bb036189dbe8159cbef79f6eb988ac", "addresses": ["1JLUUoyHq7rPEDBeqGtWyCeXrXFjLaseA6"], "asm": "OP_DUP OP_HASH160 be28faf5c902a0bb036189dbe8159cbef79f6eb9 OP_EQUALVERIFY OP_CHECKSIG", "type": "pubkeyhash"}, "value": 0.03868506, "n": 5}], "hex": "0200000003106b4e02d7c7d1dbe881f89e38361f4d41f7846039ece787fa4310a2ee54902e020000006b48304502210084e63a4bfc2868621ff9bd7da749761a2b0b57588265ea17427ff5e7527ae4e902203f43c53f77e11b1a20376c3eb08ddbd79680bbe8458ede48ec75bfa738df4753012103d1f0ea11f9340724ba1ad3b0897145af257fc9bb5c004a0df857ceb7f620835dfeffffff15c52b13d6d20ab3ebbfa22ec4fecb7bff0e1aa1a6ae07e69d9f0fe72f339ae8cb1000006a47304402207725d595a2ec59b34e1cd50f159e9c57e549849a3923b8133e3bb8c3d2b112f6022055336a04e8418765197905a4d5373f0feab98399d66725dbfb9aa9b29a1487fa0121024123ce13d5434b40b988e80f9f1dc269537be07e3f2fdef6bfaf72d3c033b6c1feffffff9edab477633091f9fe4c40bb4613d399948ff7ff55a2ceb71be819946be6f6dd050000006b483045022100bf5c20d9eb0fad81472b071a013743b1d420eaa06c0419cea4cdffb3a31680fe022031fca4e630562a34089bb002210fc3bdf548cc39de51c7de4a7c92f60cb14e8c0121024366c742e78e61757c4809a121138a479dd7a65e5fa8844c5f845a912d822186feffffff06bb0b0000000000001976a914fa6f2065aa03568e075ec44cfd5b9e9bdebee2d088ace25e0000000000001976a9141b34f183f8a19785e3116bf11aebfd700086b3ed88ac8c163000000000001976a9146b789c744be8484cc7e74713d8dd0f97ee287f9188aca0860100000000001976a914d9564aaa636a225690f8f1dccbf71e61cd34f52988acb0fc11000000000017a9143ee0793fd0829ec0301a09a10c9c3f7646becfd3875a073b00000000001976a914be28faf5c902a0bb036189dbe8159cbef79f6eb988ac13490800", "vin": [{"sequence": 4294967294, "scriptSig": {"hex": "48304502210084e63a4bfc2868621ff9bd7da749761a2b0b57588265ea17427ff5e7527ae4e902203f43c53f77e11b1a20376c3eb08ddbd79680bbe8458ede48ec75bfa738df4753012103d1f0ea11f9340724ba1ad3b0897145af257fc9bb5c004a0df857ceb7f620835d", "asm": "304502210084e63a4bfc2868621ff9bd7da749761a2b0b57588265ea17427ff5e7527ae4e902203f43c53f77e11b1a20376c3eb08ddbd79680bbe8458ede48ec75bfa738df4753[ALL] 03d1f0ea11f9340724ba1ad3b0897145af257fc9bb5c004a0df857ceb7f620835d"}, "vout": 2, "txid": "2e9054eea21043fa87e7ec396084f7414d1f36389ef881e8dbd1c7d7024e6b10"}, {"sequence": 4294967294, "scriptSig": {"hex": "47304402207725d595a2ec59b34e1cd50f159e9c57e549849a3923b8133e3bb8c3d2b112f6022055336a04e8418765197905a4d5373f0feab98399d66725dbfb9aa9b29a1487fa0121024123ce13d5434b40b988e80f9f1dc269537be07e3f2fdef6bfaf72d3c033b6c1", "asm": "304402207725d595a2ec59b34e1cd50f159e9c57e549849a3923b8133e3bb8c3d2b112f6022055336a04e8418765197905a4d5373f0feab98399d66725dbfb9aa9b29a1487fa[ALL] 024123ce13d5434b40b988e80f9f1dc269537be07e3f2fdef6bfaf72d3c033b6c1"}, "vout": 4299, "txid": "e89a332fe70f9f9de607aea6a11a0eff7bcbfec42ea2bfebb30ad2d6132bc515"}, {"sequence": 4294967294, "scriptSig": {"hex": "483045022100bf5c20d9eb0fad81472b071a013743b1d420eaa06c0419cea4cdffb3a31680fe022031fca4e630562a34089bb002210fc3bdf548cc39de51c7de4a7c92f60cb14e8c0121024366c742e78e61757c4809a121138a479dd7a65e5fa8844c5f845a912d822186", "asm": "3045022100bf5c20d9eb0fad81472b071a013743b1d420eaa06c0419cea4cdffb3a31680fe022031fca4e630562a34089bb002210fc3bdf548cc39de51c7de4a7c92f60cb14e8c[ALL] 024366c742e78e61757c4809a121138a479dd7a65e5fa8844c5f845a912d822186"}, "vout": 5, "txid": "ddf6e66b9419e81bb7cea255fff78f9499d31346bb404cfef991306377b4da9e"}], "txid": "6c5d2717c6563fd03ce0df984818396e6b33501f027c10eb951425e9942585bf", "blocktime": 1537873282, "version": 2, "confirmations": 11484, "time": 1537873282, "locktime": 542995, "vsize": 655, "size": 655}