{"hash": "6c5dbd48e32b74eafadd376657ab32ea2348ac654ed6bceedfc93adbb1a7aadb", "blockhash": "0000000000000000001e0dab787dd257d1dbfcb92a98c2207d5e1078be1f4165", "vout": [{"scriptPubKey": {"reqSigs": 1, "hex": "76a914455b9d49dfed70bda5ac2b9975949aa26b5d5ded88ac", "addresses": ["17KjNiayMTGTMJBjLyCJuN93tffXpXcN3W"], "asm": "OP_DUP OP_HASH160 455b9d49dfed70bda5ac2b9975949aa26b5d5ded OP_EQUALVERIFY OP_CHECKSIG", "type": "pubkeyhash"}, "value": 0.01608794, "n": 0}, {"scriptPubKey": {"reqSigs": 1, "hex": "76a9148a09910ef9de7efd900375525850643c37bab65b88ac", "addresses": ["1DasiB6TDUwYi9JbBqG4Vn8nk14AyQd7xh"], "asm": "OP_DUP OP_HASH160 8a09910ef9de7efd900375525850643c37bab65b OP_EQUALVERIFY OP_CHECKSIG", "type": "pubkeyhash"}, "value": 0.49816712, "n": 1}], "hex": "01000000018875d67b97b7aac9312c6fff1d98012e8ecc7b7ec4f684654effe62e8a260f9c010000006b483045022100d0338438d70d30cce11e08fa9f26a2469cc8801f88106d3fe385203c69533cd6022017817ddf356d810c11ebb34f8adbaf8e36799856b2f0aeb87ae2c46d4a4d63fc012102f79a29c1c2a5168cd4107c384299c2b56ac7e4c48b38e70ac6b41772a70879f7ffffffff025a8c1800000000001976a914455b9d49dfed70bda5ac2b9975949aa26b5d5ded88ac8824f802000000001976a9148a09910ef9de7efd900375525850643c37bab65b88ac00000000", "vin": [{"sequence": 4294967295, "scriptSig": {"hex": "483045022100d0338438d70d30cce11e08fa9f26a2469cc8801f88106d3fe385203c69533cd6022017817ddf356d810c11ebb34f8adbaf8e36799856b2f0aeb87ae2c46d4a4d63fc012102f79a29c1c2a5168cd4107c384299c2b56ac7e4c48b38e70ac6b41772a70879f7", "asm": "3045022100d0338438d70d30cce11e08fa9f26a2469cc8801f88106d3fe385203c69533cd6022017817ddf356d810c11ebb34f8adbaf8e36799856b2f0aeb87ae2c46d4a4d63fc[ALL] 02f79a29c1c2a5168cd4107c384299c2b56ac7e4c48b38e70ac6b41772a70879f7"}, "vout": 1, "txid": "9c0f268a2ee6ff4e6584f6c47e7bcc8e2e01981dff6f2c31c9aab7977bd67588"}], "txid": "6c5dbd48e32b74eafadd376657ab32ea2348ac654ed6bceedfc93adbb1a7aadb", "blocktime": 1537872475, "version": 1, "confirmations": 11486, "time": 1537872475, "locktime": 0, "vsize": 226, "size": 226}