{"hash": "5b8c05e1f677754436ad4155e832bf09bbb699f08223e904c3d48e2d5f0e1766", "blockhash": "0000000000000000000baef3f32e3676a92c3b2e5da21b426e4f302fc371ce76", "vout": [{"scriptPubKey": {"reqSigs": 1, "hex": "76a914192463ed4507ac4dcd67394355460a78b691c1ce88ac", "addresses": ["13HwVEyEcbpumbkWk7acgSzTM3Bj2SDJBt"], "asm": "OP_DUP OP_HASH160 192463ed4507ac4dcd67394355460a78b691c1ce OP_EQUALVERIFY OP_CHECKSIG", "type": "pubkeyhash"}, "value": 0.00077864, "n": 0}, {"scriptPubKey": {"reqSigs": 1, "hex": "a914b2e6a8e553bd7e11c1392f8d61e19b5888e139c087", "addresses": ["3HzxXD8PhqJETjkWrQYD4nYc6yKx3mGLXi"], "asm": "OP_HASH160 b2e6a8e553bd7e11c1392f8d61e19b5888e139c0 OP_EQUAL", "type": "scripthash"}, "value": 0.00154857, "n": 1}], "hex": "0100000000010148a5aa937085894f60e0caf26dd5ce04999dd13e4fdecbf21360df23a77a2896010000002322002045dc4a8e7a7ed593d2ea538a381c31e2607ee08f052e914f99311fee2a8f4d56ffffffff0228300100000000001976a914192463ed4507ac4dcd67394355460a78b691c1ce88ace95c02000000000017a914b2e6a8e553bd7e11c1392f8d61e19b5888e139c08704004730440220209a778f84adba8040297189ed5b9db6f14e5c5fbcfac7f71fc013b613b411cb022031f626b1c500d67ec2c1ee807b713a46184a1f5a0d01501023d3465fc3a4938601483045022100b086d24ce979c827c9fefe1690869b79c4426f2b65eb05c3b16be51867be3a1602205d9a4a4b77a6dc14ffd58da23df8aeb06a1236176ff2f768f667b6f0d2605928014752210333a2cce5556afb7a9431cdacaea04e945b9daa974227ab5f4aca265bc268c7952103871fc2ca08e6950b38867e8e6a0e94ee625223d3aa0df5c65f414c6d784467e252ae00000000", "vin": [{"txinwitness": ["", "30440220209a778f84adba8040297189ed5b9db6f14e5c5fbcfac7f71fc013b613b411cb022031f626b1c500d67ec2c1ee807b713a46184a1f5a0d01501023d3465fc3a4938601", "3045022100b086d24ce979c827c9fefe1690869b79c4426f2b65eb05c3b16be51867be3a1602205d9a4a4b77a6dc14ffd58da23df8aeb06a1236176ff2f768f667b6f0d260592801", "52210333a2cce5556afb7a9431cdacaea04e945b9daa974227ab5f4aca265bc268c7952103871fc2ca08e6950b38867e8e6a0e94ee625223d3aa0df5c65f414c6d784467e252ae"], "sequence": 4294967295, "scriptSig": {"hex": "22002045dc4a8e7a7ed593d2ea538a381c31e2607ee08f052e914f99311fee2a8f4d56", "asm": "002045dc4a8e7a7ed593d2ea538a381c31e2607ee08f052e914f99311fee2a8f4d56"}, "vout": 1, "txid": "96287aa723df6013f2cbde4f3ed19d9904ced56df2cae0604f89857093aaa548"}], "txid": "6c62ad1dd8902dae6362e136106b03cc3299557a07322861d3fe3e573d1b28ef", "blocktime": 1537876114, "version": 1, "confirmations": 11463, "time": 1537876114, "locktime": 0, "vsize": 208, "size": 373}