{"hash": "6c66b01c34a70b64525dbc474b90ca71486bf0145966dd02f69c31f8f484c5df", "blockhash": "0000000000000000001cda96e906b7601b7a6fb1a3b62bca570a9e5d8f4b3de1", "vout": [{"scriptPubKey": {"reqSigs": 1, "hex": "76a914961e6f947637554469951447b6f2b18fb876375a88ac", "addresses": ["1EgkpVic8bZcsqEU6SYgTxy1r5JEJnJC7w"], "asm": "OP_DUP OP_HASH160 961e6f947637554469951447b6f2b18fb876375a OP_EQUALVERIFY OP_CHECKSIG", "type": "pubkeyhash"}, "value": 0.00096984, "n": 0}, {"scriptPubKey": {"reqSigs": 1, "hex": "76a91485b66af946c339d52d2ea1be064c5680ea4ccf9f88ac", "addresses": ["1DC1Q8Uuy6LzWbE3ge3JKLSMMBqCEwVUBH"], "asm": "OP_DUP OP_HASH160 85b66af946c339d52d2ea1be064c5680ea4ccf9f OP_EQUALVERIFY OP_CHECKSIG", "type": "pubkeyhash"}, "value": 0.07807097, "n": 1}], "hex": "0100000006c20800024d10b8c0e676f1a7974d71868ebb01f7b2b7ec4647a2a1a81762dd15000000006a47304402203076154ebe19db551f2b5484da8cafa2abd1f1240eaed31b4beeafa6b5f238c002205a51ac4ee199ca144336c8ffb31d7d706f08fa06e9ee129c42f2e4c9ee63a8c0012103bb41e12393a4a5a6b11aaa2c2c9fa6c24fd7773a42f2776fa14fbf8899251cf5fdffffff2fd1fff59cfca8ddf0562a35b84aea2b9a74d37d2671287e3d81cb9404a6ee1d000000006a4730440220545c0d283252deb1e345ea393a8be17214e2e5f518e4105165c3287522c9671802202eb4acade20d1db48fe05699c88ff93808e502b8e1b90fab8cc35e78c2576b9a0121021f7c3b3ae5a536490f3098ee6b5208ea0d9bbb42252af78a402ea01e327329cbfdfffffff6b9000f85143b7fdb0d7e724e7e5b27640afd2fb038f2e7d1018a1f6fffb936010000006a4730440220016d47d98df7adace786b567a06b50035da88cd22df8f38e5e21692f3818b6d2022020c7c328725293826b6662f250af32a9afed33c817b465960cd40073c3497066012103107350af60a922b81d3343b68f881d7b6b93ca5f534bd5f45bc590390678c4befdfffffffb63f6ba6937e612c4ae1650b4ea963e18a2ab4e14c56e6807ade6d9fc3a525f000000006a473044022007af12aa546d886db46f5e42cd1fc99a2a25bd821f968f6775a2d6f52223e35b0220236eecffad9b76f82c397ee549b69392e33480cf09fbbc5a008e295bb09a6d65012102c81c51fb9645dcff7751ebb170e7d28d53e09afb916cd5b96878a753373c4741fdffffff9a3e9914e81fb0fa9481d50be4e85a36223074f8e722d03fad981b9dc19c8d67010000006b4830450221009ff0f080f7f8008b0f55d61c20cebd7dfa4b1001a1822624219597e03335accc02200f049ac21b645c0706c7a2a1c6eb305a29b9b3c0d0d5041e4802a6025fa542100121024a074faade7c90c658da70b060b684d7ccead181ab296dff56042a9a6e2e92a4fdffffff296203ca4790c3afb4eae4494b10ac1fd475de1e7454bbfbc7d5e9edd58a109d000000006a473044022037585a635f6105fa8d89cfabe98628ce9adcd2f13384e67b65bea3da63df378e02201d5c5db452578c42926e1641e4b19fd372d8dbbff85a7a6370c7219464669d8b012103d0418d1e6f9c0430e18b8ddf1db89c3af40f09340aaf996851dade2034c169b1fdffffff02d87a0100000000001976a914961e6f947637554469951447b6f2b18fb876375a88ac79207700000000001976a91485b66af946c339d52d2ea1be064c5680ea4ccf9f88ac13490800", "vin": [{"sequence": 4294967293, "scriptSig": {"hex": "47304402203076154ebe19db551f2b5484da8cafa2abd1f1240eaed31b4beeafa6b5f238c002205a51ac4ee199ca144336c8ffb31d7d706f08fa06e9ee129c42f2e4c9ee63a8c0012103bb41e12393a4a5a6b11aaa2c2c9fa6c24fd7773a42f2776fa14fbf8899251cf5", "asm": "304402203076154ebe19db551f2b5484da8cafa2abd1f1240eaed31b4beeafa6b5f238c002205a51ac4ee199ca144336c8ffb31d7d706f08fa06e9ee129c42f2e4c9ee63a8c0[ALL] 03bb41e12393a4a5a6b11aaa2c2c9fa6c24fd7773a42f2776fa14fbf8899251cf5"}, "vout": 0, "txid": "15dd6217a8a1a24746ecb7b2f701bb8e86714d97a7f176e6c0b8104d020008c2"}, {"sequence": 4294967293, "scriptSig": {"hex": "4730440220545c0d283252deb1e345ea393a8be17214e2e5f518e4105165c3287522c9671802202eb4acade20d1db48fe05699c88ff93808e502b8e1b90fab8cc35e78c2576b9a0121021f7c3b3ae5a536490f3098ee6b5208ea0d9bbb42252af78a402ea01e327329cb", "asm": "30440220545c0d283252deb1e345ea393a8be17214e2e5f518e4105165c3287522c9671802202eb4acade20d1db48fe05699c88ff93808e502b8e1b90fab8cc35e78c2576b9a[ALL] 021f7c3b3ae5a536490f3098ee6b5208ea0d9bbb42252af78a402ea01e327329cb"}, "vout": 0, "txid": "1deea60494cb813d7e2871267dd3749a2bea4ab8352a56f0dda8fc9cf5ffd12f"}, {"sequence": 4294967293, "scriptSig": {"hex": "4730440220016d47d98df7adace786b567a06b50035da88cd22df8f38e5e21692f3818b6d2022020c7c328725293826b6662f250af32a9afed33c817b465960cd40073c3497066012103107350af60a922b81d3343b68f881d7b6b93ca5f534bd5f45bc590390678c4be", "asm": "30440220016d47d98df7adace786b567a06b50035da88cd22df8f38e5e21692f3818b6d2022020c7c328725293826b6662f250af32a9afed33c817b465960cd40073c3497066[ALL] 03107350af60a922b81d3343b68f881d7b6b93ca5f534bd5f45bc590390678c4be"}, "vout": 1, "txid": "36b9ff6f1f8a01d1e7f238b02ffd0a64275b7e4e727e0ddb7f3b14850f00b9f6"}, {"sequence": 4294967293, "scriptSig": {"hex": "473044022007af12aa546d886db46f5e42cd1fc99a2a25bd821f968f6775a2d6f52223e35b0220236eecffad9b76f82c397ee549b69392e33480cf09fbbc5a008e295bb09a6d65012102c81c51fb9645dcff7751ebb170e7d28d53e09afb916cd5b96878a753373c4741", "asm": "3044022007af12aa546d886db46f5e42cd1fc99a2a25bd821f968f6775a2d6f52223e35b0220236eecffad9b76f82c397ee549b69392e33480cf09fbbc5a008e295bb09a6d65[ALL] 02c81c51fb9645dcff7751ebb170e7d28d53e09afb916cd5b96878a753373c4741"}, "vout": 0, "txid": "5f523afcd9e6ad07686ec5144eaba2183e96eab45016aec412e63769baf663fb"}, {"sequence": 4294967293, "scriptSig": {"hex": "4830450221009ff0f080f7f8008b0f55d61c20cebd7dfa4b1001a1822624219597e03335accc02200f049ac21b645c0706c7a2a1c6eb305a29b9b3c0d0d5041e4802a6025fa542100121024a074faade7c90c658da70b060b684d7ccead181ab296dff56042a9a6e2e92a4", "asm": "30450221009ff0f080f7f8008b0f55d61c20cebd7dfa4b1001a1822624219597e03335accc02200f049ac21b645c0706c7a2a1c6eb305a29b9b3c0d0d5041e4802a6025fa54210[ALL] 024a074faade7c90c658da70b060b684d7ccead181ab296dff56042a9a6e2e92a4"}, "vout": 1, "txid": "678d9cc19d1b98ad3fd022e7f8743022365ae8e40bd58194fab01fe814993e9a"}, {"sequence": 4294967293, "scriptSig": {"hex": "473044022037585a635f6105fa8d89cfabe98628ce9adcd2f13384e67b65bea3da63df378e02201d5c5db452578c42926e1641e4b19fd372d8dbbff85a7a6370c7219464669d8b012103d0418d1e6f9c0430e18b8ddf1db89c3af40f09340aaf996851dade2034c169b1", "asm": "3044022037585a635f6105fa8d89cfabe98628ce9adcd2f13384e67b65bea3da63df378e02201d5c5db452578c42926e1641e4b19fd372d8dbbff85a7a6370c7219464669d8b[ALL] 03d0418d1e6f9c0430e18b8ddf1db89c3af40f09340aaf996851dade2034c169b1"}, "vout": 0, "txid": "9d108ad5ede9d5c7fbbb54741ede75d41fac104b49e4eab4afc39047ca036229"}], "txid": "6c66b01c34a70b64525dbc474b90ca71486bf0145966dd02f69c31f8f484c5df", "blocktime": 1537873282, "version": 1, "confirmations": 11484, "time": 1537873282, "locktime": 542995, "vsize": 961, "size": 961}