{"hash": "af6ce6ffa8ba4a627d1beb6ec8ccf585973cd93b67bac86b46038cc893c5ee91", "blockhash": "0000000000000000000baef3f32e3676a92c3b2e5da21b426e4f302fc371ce76", "vout": [{"scriptPubKey": {"reqSigs": 1, "hex": "76a9144e37caf5e0268841efb4d313a22350244218ff1888ac", "addresses": ["188aYWu344iK3iLrq6aqLMLjarAvyTZFqM"], "asm": "OP_DUP OP_HASH160 4e37caf5e0268841efb4d313a22350244218ff18 OP_EQUALVERIFY OP_CHECKSIG", "type": "pubkeyhash"}, "value": 0.0142, "n": 0}, {"scriptPubKey": {"reqSigs": 1, "hex": "a914eeedac5040023ecaa40b2207d5ba0b9ff55af36587", "addresses": ["3PUMU1sb8dkiaxXsRYtzjqaAzrSfSZguZ6"], "asm": "OP_HASH160 eeedac5040023ecaa40b2207d5ba0b9ff55af365 OP_EQUAL", "type": "scripthash"}, "value": 0.29628243, "n": 1}], "hex": "020000000001016ec607cda0a4203339bcc1eedb149c091e6232e44da89997dc4c0c98860d159601000000171600148a69dbbe7e5863a74de65f28f0bfca9f4eef0278fdffffff02e0aa1500000000001976a9144e37caf5e0268841efb4d313a22350244218ff1888ac5317c4010000000017a914eeedac5040023ecaa40b2207d5ba0b9ff55af365870247304402207db9ee7c378457912a0befd4efbc5ebe962869130a0fae2fcc2c7dbca943877302203c8cee5cd494fd1e2489c28b8d5761f4623bb598e932c485146ae05187ec0401012102c3c9d81e90b946da8c71797ce3db8f6ae27d007685dc3971ac019be9b01e57a416490800", "vin": [{"txinwitness": ["304402207db9ee7c378457912a0befd4efbc5ebe962869130a0fae2fcc2c7dbca943877302203c8cee5cd494fd1e2489c28b8d5761f4623bb598e932c485146ae05187ec040101", "02c3c9d81e90b946da8c71797ce3db8f6ae27d007685dc3971ac019be9b01e57a4"], "sequence": 4294967293, "scriptSig": {"hex": "1600148a69dbbe7e5863a74de65f28f0bfca9f4eef0278", "asm": "00148a69dbbe7e5863a74de65f28f0bfca9f4eef0278"}, "vout": 1, "txid": "96150d86980c4cdc9799a84de432621e099c14dbeec1bc393320a4a0cd07c66e"}], "txid": "6c6b21f8b0a395091ae33fffbadbd00984fa4e0d74f806761f17cc23189c924b", "blocktime": 1537876114, "version": 2, "confirmations": 11460, "time": 1537876114, "locktime": 542998, "vsize": 168, "size": 249}