{"hash": "11f23e7869041f9cbf56b5276547075df570fb0a6b866892ab54bd3779d482c6", "blockhash": "0000000000000000000dcc0f55137456b1a82d3642486a52398922ac4d620174", "vout": [{"scriptPubKey": {"reqSigs": 1, "hex": "a91489ba6dfa5b4c9fdbb0d617d284f75792547e37fd87", "addresses": ["3EFFqBQpxwES1G8vcH54Kdz5dBnd8hZofa"], "asm": "OP_HASH160 89ba6dfa5b4c9fdbb0d617d284f75792547e37fd OP_EQUAL", "type": "scripthash"}, "value": 0.01075783, "n": 0}, {"scriptPubKey": {"reqSigs": 1, "hex": "76a9143f83822f87c75732190633ff87562ded6e4ec10f88ac", "addresses": ["16nq7Tc6Zb8fJHhouMvyAHgmxGrECFyHuP"], "asm": "OP_DUP OP_HASH160 3f83822f87c75732190633ff87562ded6e4ec10f OP_EQUALVERIFY OP_CHECKSIG", "type": "pubkeyhash"}, "value": 0.0018029, "n": 1}], "hex": "02000000000102b0b49b75f604ffcbf17842c6ce3eeca103b59549e19735e6651094ba971fc27b0000000017160014bafa3cd98a2835dc3bc8e9c5f56f623b587ea3c9feffffffb182f7b26e57f1c003d374bb66ba6db385f76ade7c856905c3705f4b206c9d660000000017160014c649d9681f93eebd27c7914a07f57a865419d890feffffff02476a10000000000017a91489ba6dfa5b4c9fdbb0d617d284f75792547e37fd8742c00200000000001976a9143f83822f87c75732190633ff87562ded6e4ec10f88ac02483045022100a17fd4571b426b82ea6e4c896538baa13a2d548ca00f475978e652609cd3142d02203fb8eb7e5d703ef0aee0f8e4548e381d1d6ff7db6cc3e015acfb0ff2b306a4ed01210390070bf68bf97a1160687dc8bfa922b0d995f6b2c4fe60b3ae718461c86db41d02483045022100b37712cb8a9aed52ef00c5819ec87c76aef99ddc02b3c83ade14a8fd363c9ffc0220288ef81f731a8ea4a5a0557ff0ee06829d2c55c58593eb3da0c52c277f1f098c012103e7f880246e56fc7e3158c3921e734165055e4c2773a9e37f6d6e0880b2b6fa1f0b490800", "vin": [{"txinwitness": ["3045022100a17fd4571b426b82ea6e4c896538baa13a2d548ca00f475978e652609cd3142d02203fb8eb7e5d703ef0aee0f8e4548e381d1d6ff7db6cc3e015acfb0ff2b306a4ed01", "0390070bf68bf97a1160687dc8bfa922b0d995f6b2c4fe60b3ae718461c86db41d"], "sequence": 4294967294, "scriptSig": {"hex": "160014bafa3cd98a2835dc3bc8e9c5f56f623b587ea3c9", "asm": "0014bafa3cd98a2835dc3bc8e9c5f56f623b587ea3c9"}, "vout": 0, "txid": "7bc21f97ba941065e63597e14995b503a1ec3ecec64278f1cbff04f6759bb4b0"}, {"txinwitness": ["3045022100b37712cb8a9aed52ef00c5819ec87c76aef99ddc02b3c83ade14a8fd363c9ffc0220288ef81f731a8ea4a5a0557ff0ee06829d2c55c58593eb3da0c52c277f1f098c01", "03e7f880246e56fc7e3158c3921e734165055e4c2773a9e37f6d6e0880b2b6fa1f"], "sequence": 4294967294, "scriptSig": {"hex": "160014c649d9681f93eebd27c7914a07f57a865419d890", "asm": "0014c649d9681f93eebd27c7914a07f57a865419d890"}, "vout": 0, "txid": "669d6c204b5f70c30569857cde6af785b36dba66bb74d303c0f1576eb2f782b1"}], "txid": "6c7167fb3b249ad9b4f60b2d753aff45fcbfb8848e2c02474ad8f1debf750d63", "blocktime": 1537870268, "version": 2, "confirmations": 11520, "time": 1537870268, "locktime": 542987, "vsize": 259, "size": 422}