{"hash": "a9250a8bd98d5f69b622a27011336c6ee3a967e02a49930f37e363fb71cecb43", "blockhash": "00000000000000000018f53835495a110e01622372bf6ae95dc86f2b0ab887b0", "vout": [{"scriptPubKey": {"reqSigs": 1, "hex": "76a9143d8ff5c4257915fe108bbd4002f38b6af5d9d73d88ac", "addresses": ["16cWgDjNnmM4CHR4YutX2f1nokcszgaXzT"], "asm": "OP_DUP OP_HASH160 3d8ff5c4257915fe108bbd4002f38b6af5d9d73d OP_EQUALVERIFY OP_CHECKSIG", "type": "pubkeyhash"}, "value": 0.0160863, "n": 0}, {"scriptPubKey": {"reqSigs": 1, "hex": "a9142b8bc01d9ec196b2403ebd7afda8cb5a6684fcdf87", "addresses": ["35fGPpkW4UE34JdnUaWbaPcVB4ivNrGyqv"], "asm": "OP_HASH160 2b8bc01d9ec196b2403ebd7afda8cb5a6684fcdf OP_EQUAL", "type": "scripthash"}, "value": 0.01148982, "n": 1}, {"scriptPubKey": {"reqSigs": 1, "hex": "a914dd9dc6a441b75c3a3cf7d52601fba93d55728ce687", "addresses": ["3MtpGQL5k6tYHku7eJBRa35C5DZGaJGvFy"], "asm": "OP_HASH160 dd9dc6a441b75c3a3cf7d52601fba93d55728ce6 OP_EQUAL", "type": "scripthash"}, "value": 0.21601052, "n": 2}, {"scriptPubKey": {"reqSigs": 1, "hex": "a91487c13152c3a23c1ca5e821ca711921d137054dc987", "addresses": ["3E4pahibeaHGrxQw93G54qHodFdDDmZhNV"], "asm": "OP_HASH160 87c13152c3a23c1ca5e821ca711921d137054dc9 OP_EQUAL", "type": "scripthash"}, "value": 0.04862227, "n": 3}], "hex": "01000000000108f8bdb8d4078a40f6dc6354537083d45fcdc18ff790caf706a086cba896535b82010000002322002033561ad0de05c143886976a2751406c0398fe3fc0ebfbc5d7b307b6dfd3bab53ffffffff8c4280dedf2dbff72fb87beda12562a4e06e9794b81309440206ef0911f6fa4c010000002322002007a292b6b3c496e8d27872378d3af81d7f726c263c32f8885a1b6177d8592ca3ffffffffe57a54877a77d0251b7ae2ab5e37a2906dae02fe4fb516982c2f99687ab58683010000002322002000f99491b1b3346e455669db4492e5c1d537ccca84eaceaa77199a263eb6620bffffffff796a85344603a7c197bb8e0add81ef6d9109e62dcb64df3c076041907f8d9277010000002322002013af09c58838dd22f9365ea3d84f1bb076e79e4b6d5211da5bca2ce0d9a73514ffffffff6fbd88f5c42d06d69cc2fbe84671e34872d154fe22f28795aa28ffdbfafb9fa2010000002322002062670652b89cdd624a919fcbf366a635a434a1bc07af61f835d9b974061cdc6dffffffff9e47979a8adfd7247956afac702639e4f2fe8e692b40458e240d16eaf4f8240a0100000023220020f8099505acb665fe3a53651dd10bbd330103e0f1ac5fc59607282eb1ab6b2882ffffffff701fb4b270faaa734353f7288f13b14c424322df61fb86b79e1c66c2d413bb7c010000002322002080492a94a54b2b9c2777437143c4aea360b606da42e238a5ca5e2aef5c201116ffffffffdb697e1337525fddbc8f5400c0f469bf51cbb388625d8f3273223a5e57c4fb9203000000232200200a9147b78ade7f45d25d84fc646d8336930dfe55c99eecc96b1370790de41e8dffffffff04b68b1800000000001976a9143d8ff5c4257915fe108bbd4002f38b6af5d9d73d88ac368811000000000017a9142b8bc01d9ec196b2403ebd7afda8cb5a6684fcdf871c9b49010000000017a914dd9dc6a441b75c3a3cf7d52601fba93d55728ce68713314a000000000017a91487c13152c3a23c1ca5e821ca711921d137054dc9870400483045022100de00c00825c52ef78c67c553f9b70f31f2f65e40eafe1cc1e4757f732747462702200fa0dfd848e21b149502c841656cb1554788e9a690f44d693f6bf781a407eb860147304402206edf51916dd369bfe5f7d3f460fa1402df3db40f2a3a20d3cdb00584e6c75c1702201e76486548a4dd19f152b119b4ef0f77dfc3a2b574ab2c38a99f0142410038a70147522102c7315aaa89e347877dbab452615e4d004d4e40f622ea7f2d836b43ad7fa2ab0c21038407424ead2b88063db2d589e50c34e1572f6b82eb9e266dec536939ee0db9eb52ae0400473044022050299bb69efe474accbfda03eb16249e3a8491824f1e9d15873c49daaad12815022069e51ccc2fcc0ffdb98df079acfae718e4e45dd1007cea9cd1e6ec975424af6601473044022000975588d10fb67dc3b537b9ad007536f9bb2bdc2f002d0fd90b596e1feb9381022042972572faffcda8c9751b1e1244f3d166717fb60a7317f305de10113c1d23840147522102f64fd2e8b9321df22f11555276be1dc272214727fadc58855bce43bb80a6bd7721038407424ead2b88063db2d589e50c34e1572f6b82eb9e266dec536939ee0db9eb52ae0400483045022100d8d5b0681b357c11fe230f3ee623983dc0c7c906a3177497c7f4571b27db024f02203706fc5ad0391d5c644df782bbe16e726e080abd9c9e0abd53387a5d30221faf01483045022100b7f19de632b9569e4d579c2466ddfe337f08ceeb04dd42590e275c99da584ef50220573dcc55ae6a7b9afac501a60c7011cc60e6a5c968a96879e9e2170467231a3701475221032beb5c59be871dc27c8358c619fe838b12144d57c6c53b6bc76c0d41f29c8c5d21038407424ead2b88063db2d589e50c34e1572f6b82eb9e266dec536939ee0db9eb52ae040048304502210087c2419d2caf4401ef466c7628524b3e4269af379a689a739946a983a3f69c740220185253fdc632d622cd6bb65c580825b271dc14b285a5bf0ce7f589c97732bfd50147304402204ab3a8b245c22bbad2e8a8bcf7d77a4ac385500211742af9500f4e059bf9cd150220212df2e8678dbe9635bda60607ac683636a5169482965f354163ff7cf92155940147522103d69a288b69b51891cfb4b255ca5b8ae229dba98aee1e9ccf6c94be6da5eab24121038407424ead2b88063db2d589e50c34e1572f6b82eb9e266dec536939ee0db9eb52ae0400473044022045c59a456ea2776b6c3234b761c1bc226f0a5a64d4e3b79cb3f00f16a69a7e0f0220695eaf9ad58564289e792d48ef0ad06ca7556d70031fbe1da51f8d816b706cb20147304402200c9f0b4e831c4501876094bce68e3dfc091f11c5223d395551871e175160a59c022031e6c48817b50ffbd1374899783bf03ec7fcccfc192d3f4e0bb12e28d9e973780147522102cec499e51bda0828200519544dfc84efb8672f87f4b05104447ab650e1a60e7b21038407424ead2b88063db2d589e50c34e1572f6b82eb9e266dec536939ee0db9eb52ae0400483045022100dfc4b5145e466abd4bd0f83c58021c4cd28b00e56a25b53ecebed42f80cb8a8e02207763d2bd47decd0a307cd1d5c52e1e10353085f9156ca7b850911f565f6d5e070147304402207adbb8c6f4da2b68f4829c6ac32396291c2359323bc6354477dd25a6c5e4071b02206e996f3e5c92c19cdc61888b7ed4c7646351cef724fc616a7f5b8b7ed570a1ff014752210366a8beb95689828319baf8124ee3d4ee7f8a27588d939016d207af56e429e08221038407424ead2b88063db2d589e50c34e1572f6b82eb9e266dec536939ee0db9eb52ae0400473044022029ef51b831830bfaa4ef00c17ef058066aaa4020b4f20e7793f70bc88d4ee30d022065c67bd6d8a604324da38df795becfaf9a56201576f91fa7caf6a65027de031801483045022100cca97938aeb08f3493078b8053dc79135dda16217d887b6ad60ecb862db78aba022029df12388f9ef324464df6dc1979162f1629b1c81828c251f900b1db377fc7cb0147522102b156787a0399b5530b9fc4434c06c86bf3acc890a2ba6e92338ef2690be6358621038407424ead2b88063db2d589e50c34e1572f6b82eb9e266dec536939ee0db9eb52ae0400483045022100a2f72b4e35a66432a3412d1ca2d721d3e2a2c5a1a42798571591448c3651af6102205d40399d57978cfaf9a2f3ecf26fa0d04411eb873c3b857e215e654f05dc485401483045022100838e590fd2598d3a6e99c70c6b22ae926a583724b27965c8f7510d750619a7910220407b2c38713af67152a20962bae5e9a31700b3409a84093b0f47057d4c54c6800147522103edd98150fef00e3ff0b2505ea297b1559a118599a5890beba17368cb722d680921038407424ead2b88063db2d589e50c34e1572f6b82eb9e266dec536939ee0db9eb52ae00000000", "vin": [{"txinwitness": ["", "3045022100de00c00825c52ef78c67c553f9b70f31f2f65e40eafe1cc1e4757f732747462702200fa0dfd848e21b149502c841656cb1554788e9a690f44d693f6bf781a407eb8601", "304402206edf51916dd369bfe5f7d3f460fa1402df3db40f2a3a20d3cdb00584e6c75c1702201e76486548a4dd19f152b119b4ef0f77dfc3a2b574ab2c38a99f0142410038a701", "522102c7315aaa89e347877dbab452615e4d004d4e40f622ea7f2d836b43ad7fa2ab0c21038407424ead2b88063db2d589e50c34e1572f6b82eb9e266dec536939ee0db9eb52ae"], "sequence": 4294967295, "scriptSig": {"hex": "22002033561ad0de05c143886976a2751406c0398fe3fc0ebfbc5d7b307b6dfd3bab53", "asm": "002033561ad0de05c143886976a2751406c0398fe3fc0ebfbc5d7b307b6dfd3bab53"}, "vout": 1, "txid": "825b5396a8cb86a006f7ca90f78fc1cd5fd48370535463dcf6408a07d4b8bdf8"}, {"txinwitness": ["", "3044022050299bb69efe474accbfda03eb16249e3a8491824f1e9d15873c49daaad12815022069e51ccc2fcc0ffdb98df079acfae718e4e45dd1007cea9cd1e6ec975424af6601", "3044022000975588d10fb67dc3b537b9ad007536f9bb2bdc2f002d0fd90b596e1feb9381022042972572faffcda8c9751b1e1244f3d166717fb60a7317f305de10113c1d238401", "522102f64fd2e8b9321df22f11555276be1dc272214727fadc58855bce43bb80a6bd7721038407424ead2b88063db2d589e50c34e1572f6b82eb9e266dec536939ee0db9eb52ae"], "sequence": 4294967295, "scriptSig": {"hex": "22002007a292b6b3c496e8d27872378d3af81d7f726c263c32f8885a1b6177d8592ca3", "asm": "002007a292b6b3c496e8d27872378d3af81d7f726c263c32f8885a1b6177d8592ca3"}, "vout": 1, "txid": "4cfaf61109ef0602440913b894976ee0a46225a1ed7bb82ff7bf2ddfde80428c"}, {"txinwitness": ["", "3045022100d8d5b0681b357c11fe230f3ee623983dc0c7c906a3177497c7f4571b27db024f02203706fc5ad0391d5c644df782bbe16e726e080abd9c9e0abd53387a5d30221faf01", "3045022100b7f19de632b9569e4d579c2466ddfe337f08ceeb04dd42590e275c99da584ef50220573dcc55ae6a7b9afac501a60c7011cc60e6a5c968a96879e9e2170467231a3701", "5221032beb5c59be871dc27c8358c619fe838b12144d57c6c53b6bc76c0d41f29c8c5d21038407424ead2b88063db2d589e50c34e1572f6b82eb9e266dec536939ee0db9eb52ae"], "sequence": 4294967295, "scriptSig": {"hex": "22002000f99491b1b3346e455669db4492e5c1d537ccca84eaceaa77199a263eb6620b", "asm": "002000f99491b1b3346e455669db4492e5c1d537ccca84eaceaa77199a263eb6620b"}, "vout": 1, "txid": "8386b57a68992f2c9816b54ffe02ae6d90a2375eabe27a1b25d0777a87547ae5"}, {"txinwitness": ["", "304502210087c2419d2caf4401ef466c7628524b3e4269af379a689a739946a983a3f69c740220185253fdc632d622cd6bb65c580825b271dc14b285a5bf0ce7f589c97732bfd501", "304402204ab3a8b245c22bbad2e8a8bcf7d77a4ac385500211742af9500f4e059bf9cd150220212df2e8678dbe9635bda60607ac683636a5169482965f354163ff7cf921559401", "522103d69a288b69b51891cfb4b255ca5b8ae229dba98aee1e9ccf6c94be6da5eab24121038407424ead2b88063db2d589e50c34e1572f6b82eb9e266dec536939ee0db9eb52ae"], "sequence": 4294967295, "scriptSig": {"hex": "22002013af09c58838dd22f9365ea3d84f1bb076e79e4b6d5211da5bca2ce0d9a73514", "asm": "002013af09c58838dd22f9365ea3d84f1bb076e79e4b6d5211da5bca2ce0d9a73514"}, "vout": 1, "txid": "77928d7f904160073cdf64cb2de609916def81dd0a8ebb97c1a7034634856a79"}, {"txinwitness": ["", "3044022045c59a456ea2776b6c3234b761c1bc226f0a5a64d4e3b79cb3f00f16a69a7e0f0220695eaf9ad58564289e792d48ef0ad06ca7556d70031fbe1da51f8d816b706cb201", "304402200c9f0b4e831c4501876094bce68e3dfc091f11c5223d395551871e175160a59c022031e6c48817b50ffbd1374899783bf03ec7fcccfc192d3f4e0bb12e28d9e9737801", "522102cec499e51bda0828200519544dfc84efb8672f87f4b05104447ab650e1a60e7b21038407424ead2b88063db2d589e50c34e1572f6b82eb9e266dec536939ee0db9eb52ae"], "sequence": 4294967295, "scriptSig": {"hex": "22002062670652b89cdd624a919fcbf366a635a434a1bc07af61f835d9b974061cdc6d", "asm": "002062670652b89cdd624a919fcbf366a635a434a1bc07af61f835d9b974061cdc6d"}, "vout": 1, "txid": "a29ffbfadbff28aa9587f222fe54d17248e37146e8fbc29cd6062dc4f588bd6f"}, {"txinwitness": ["", "3045022100dfc4b5145e466abd4bd0f83c58021c4cd28b00e56a25b53ecebed42f80cb8a8e02207763d2bd47decd0a307cd1d5c52e1e10353085f9156ca7b850911f565f6d5e0701", "304402207adbb8c6f4da2b68f4829c6ac32396291c2359323bc6354477dd25a6c5e4071b02206e996f3e5c92c19cdc61888b7ed4c7646351cef724fc616a7f5b8b7ed570a1ff01", "52210366a8beb95689828319baf8124ee3d4ee7f8a27588d939016d207af56e429e08221038407424ead2b88063db2d589e50c34e1572f6b82eb9e266dec536939ee0db9eb52ae"], "sequence": 4294967295, "scriptSig": {"hex": "220020f8099505acb665fe3a53651dd10bbd330103e0f1ac5fc59607282eb1ab6b2882", "asm": "0020f8099505acb665fe3a53651dd10bbd330103e0f1ac5fc59607282eb1ab6b2882"}, "vout": 1, "txid": "0a24f8f4ea160d248e45402b698efef2e4392670acaf567924d7df8a9a97479e"}, {"txinwitness": ["", "3044022029ef51b831830bfaa4ef00c17ef058066aaa4020b4f20e7793f70bc88d4ee30d022065c67bd6d8a604324da38df795becfaf9a56201576f91fa7caf6a65027de031801", "3045022100cca97938aeb08f3493078b8053dc79135dda16217d887b6ad60ecb862db78aba022029df12388f9ef324464df6dc1979162f1629b1c81828c251f900b1db377fc7cb01", "522102b156787a0399b5530b9fc4434c06c86bf3acc890a2ba6e92338ef2690be6358621038407424ead2b88063db2d589e50c34e1572f6b82eb9e266dec536939ee0db9eb52ae"], "sequence": 4294967295, "scriptSig": {"hex": "22002080492a94a54b2b9c2777437143c4aea360b606da42e238a5ca5e2aef5c201116", "asm": "002080492a94a54b2b9c2777437143c4aea360b606da42e238a5ca5e2aef5c201116"}, "vout": 1, "txid": "7cbb13d4c2661c9eb786fb61df2243424cb1138f28f7534373aafa70b2b41f70"}, {"txinwitness": ["", "3045022100a2f72b4e35a66432a3412d1ca2d721d3e2a2c5a1a42798571591448c3651af6102205d40399d57978cfaf9a2f3ecf26fa0d04411eb873c3b857e215e654f05dc485401", "3045022100838e590fd2598d3a6e99c70c6b22ae926a583724b27965c8f7510d750619a7910220407b2c38713af67152a20962bae5e9a31700b3409a84093b0f47057d4c54c68001", "522103edd98150fef00e3ff0b2505ea297b1559a118599a5890beba17368cb722d680921038407424ead2b88063db2d589e50c34e1572f6b82eb9e266dec536939ee0db9eb52ae"], "sequence": 4294967295, "scriptSig": {"hex": "2200200a9147b78ade7f45d25d84fc646d8336930dfe55c99eecc96b1370790de41e8d", "asm": "00200a9147b78ade7f45d25d84fc646d8336930dfe55c99eecc96b1370790de41e8d"}, "vout": 3, "txid": "92fbc4575e3a2273328f5d6288b3cb51bf69f4c000548fbcdd5f5237137e69db"}], "txid": "6c75acb52942c058005236d63a9b84bc3cc97d89680b837080572036fd13e12e", "blocktime": 1537870928, "version": 1, "confirmations": 11512, "time": 1537870928, "locktime": 0, "vsize": 1187, "size": 2502}