{"hash": "b46366ea207d126794a710d6c9cba98f84632ab32d084658a838c3f51142e1fe", "blockhash": "000000000000000000205f8b0775d31398ef75b89a5e8ec8d2c57b4dc0ac4c20", "vout": [{"scriptPubKey": {"reqSigs": 1, "hex": "a914e8d0dd8380712684076f9a9f63142e04b0d9f1b887", "addresses": ["3Nv2uGD4qa1kaf5HfY6iyFo6fwkrWgxTyG"], "asm": "OP_HASH160 e8d0dd8380712684076f9a9f63142e04b0d9f1b8 OP_EQUAL", "type": "scripthash"}, "value": 8.0, "n": 0}, {"scriptPubKey": {"reqSigs": 1, "hex": "0020701a8d401c84fb13e6baf169d59684e17abd9fa216c8cc5b9fc63d622ff8c58d", "addresses": ["bc1qwqdg6squsna38e46795at95yu9atm8azzmyvckulcc7kytlcckxswvvzej"], "asm": "0 701a8d401c84fb13e6baf169d59684e17abd9fa216c8cc5b9fc63d622ff8c58d", "type": "witness_v0_scripthash"}, "value": 1.795685, "n": 1}], "hex": "0100000000010176ffcd83f61ced826d7e7242cc233d4e2c830aa4a43f10167a9ce88bbf115d370200000000ffffffff020008af2f0000000017a914e8d0dd8380712684076f9a9f63142e04b0d9f1b88774ffb30a00000000220020701a8d401c84fb13e6baf169d59684e17abd9fa216c8cc5b9fc63d622ff8c58d0400483045022100fc380c380f99d7d384a8ca926d5f7c0e23401e818e0af0bb696b28f56475b1e202200fa28fc3154649f48e30c4348f2f5bc9acf199a7251a648e3a7e8f5eaa038a4801473044022078b493fd783c75b56cfede557c4afc76f68c86cee643ad053344b4640343e3520220508ecce36a2bbb992c25708192c98a23000c5607df3892a60cb9854a5c02146d016952210375e00eb72e29da82b89367947f29ef34afb75e8654f6ea368e0acdfd92976b7c2103a1b26313f430c4b15bb1fdce663207659d8cac749a0e53d70eff01874496feff2103c96d495bfdd5ba4145e3e046fee45e84a8a48ad05bd8dbb395c011a32cf9f88053ae00000000", "vin": [{"txinwitness": ["", "3045022100fc380c380f99d7d384a8ca926d5f7c0e23401e818e0af0bb696b28f56475b1e202200fa28fc3154649f48e30c4348f2f5bc9acf199a7251a648e3a7e8f5eaa038a4801", "3044022078b493fd783c75b56cfede557c4afc76f68c86cee643ad053344b4640343e3520220508ecce36a2bbb992c25708192c98a23000c5607df3892a60cb9854a5c02146d01", "52210375e00eb72e29da82b89367947f29ef34afb75e8654f6ea368e0acdfd92976b7c2103a1b26313f430c4b15bb1fdce663207659d8cac749a0e53d70eff01874496feff2103c96d495bfdd5ba4145e3e046fee45e84a8a48ad05bd8dbb395c011a32cf9f88053ae"], "sequence": 4294967295, "scriptSig": {"hex": "", "asm": ""}, "vout": 2, "txid": "375d11bf8be89c7a16103fa4a40a832c4e3d23cc42727e6d82ed1cf683cdff76"}], "txid": "6c7fc0a9a00512eecb4ca6a9f08be9c1265f99797e905561c39e0567fa532630", "blocktime": 1537871175, "version": 1, "confirmations": 11510, "time": 1537871175, "locktime": 0, "vsize": 190, "size": 381}