{"hash": "6c86238b6cb4066053c70540c6a51fd8af8849611a5a003f8b86ee966a078bf2", "blockhash": "00000000000000000024a2167bbff67b0be802c0b01cdd79e6331c2be6459f87", "vout": [{"scriptPubKey": {"reqSigs": 1, "hex": "76a914908a4660d6a5a7aaca3b727800bb99f201dfdf6e88ac", "addresses": ["1EBFx8ioN64EcUvcSSfZuxsm29W36P6eMZ"], "asm": "OP_DUP OP_HASH160 908a4660d6a5a7aaca3b727800bb99f201dfdf6e OP_EQUALVERIFY OP_CHECKSIG", "type": "pubkeyhash"}, "value": 0.07798, "n": 0}, {"scriptPubKey": {"reqSigs": 1, "hex": "76a914d5ba2eb2d52670fbe9522748bf642da754eb0d6f88ac", "addresses": ["1LV5y3NkVkmdWnF6xRCEXrAnUkRgge4KSq"], "asm": "OP_DUP OP_HASH160 d5ba2eb2d52670fbe9522748bf642da754eb0d6f OP_EQUALVERIFY OP_CHECKSIG", "type": "pubkeyhash"}, "value": 11.81923906, "n": 1}], "hex": "0100000001a036ae665f677e507a17faa415d51466523cedd1e57c5512e4c4d6365bad63bd010000006b483045022100b9c937ad48ff561d80625ef9e3802b444ebb38bfe7cc22258353e1efc2ea2edb02201bbd039583afbed68e59a8ce14ccc7cc0683bbfb78cae06cd24a774e22108bf6012102c19ebc0e7fe714e24c55adaeebc7dbab2dc9a208b511bd1b6e83db85506d4d19ffffffff02f0fc7600000000001976a914908a4660d6a5a7aaca3b727800bb99f201dfdf6e88ac42ba7246000000001976a914d5ba2eb2d52670fbe9522748bf642da754eb0d6f88ac00000000", "vin": [{"sequence": 4294967295, "scriptSig": {"hex": "483045022100b9c937ad48ff561d80625ef9e3802b444ebb38bfe7cc22258353e1efc2ea2edb02201bbd039583afbed68e59a8ce14ccc7cc0683bbfb78cae06cd24a774e22108bf6012102c19ebc0e7fe714e24c55adaeebc7dbab2dc9a208b511bd1b6e83db85506d4d19", "asm": "3045022100b9c937ad48ff561d80625ef9e3802b444ebb38bfe7cc22258353e1efc2ea2edb02201bbd039583afbed68e59a8ce14ccc7cc0683bbfb78cae06cd24a774e22108bf6[ALL] 02c19ebc0e7fe714e24c55adaeebc7dbab2dc9a208b511bd1b6e83db85506d4d19"}, "vout": 1, "txid": "bd63ad5b36d6c4e412557ce5d1ed3c526614d515a4fa177a507e675f66ae36a0"}], "txid": "6c86238b6cb4066053c70540c6a51fd8af8849611a5a003f8b86ee966a078bf2", "blocktime": 1537870564, "version": 1, "confirmations": 11515, "time": 1537870564, "locktime": 0, "vsize": 226, "size": 226}