{"hash": "6c873eed1331689f279a4b4ef92e30cf33921814c7dd0163e3aad854f3386572", "blockhash": "00000000000000000017f5eb5941039fbcee6240d03bc1f2f8e35350df66a1d8", "vout": [{"scriptPubKey": {"reqSigs": 1, "hex": "a914e0ff1ca6ac30c198ee020db400916760d439251087", "addresses": ["3NCgtzzFfMsdB1oQJQogyYyz2yWdxfrSY2"], "asm": "OP_HASH160 e0ff1ca6ac30c198ee020db400916760d4392510 OP_EQUAL", "type": "scripthash"}, "value": 0.00486335, "n": 0}, {"scriptPubKey": {"reqSigs": 1, "hex": "76a9143453359b93ebb4ca9fbc05ad38b96b2c4b59b74488ac", "addresses": ["15mfpU2f9MyD5fuSZEZrwMYK1DNAhB7z2N"], "asm": "OP_DUP OP_HASH160 3453359b93ebb4ca9fbc05ad38b96b2c4b59b744 OP_EQUALVERIFY OP_CHECKSIG", "type": "pubkeyhash"}, "value": 9.271e-05, "n": 1}], "hex": "0100000002751aab9574c85a220217c37a22264c6dd47889059bd53bad0ca38f771efcdf8a010000006b483045022100a8cc84c7435ea0020e617deefe2c323cbc7e69ee7907614fef2be5b6a03518de022030ffadabd32469d1e6848530a0eb512ec164a918a7b091b2ca82b90db1d18ffe01210229ce38ec3b05b63dcf6e62287157c8504988f3d8fa775da6f2125798de0597b6ffffffffcea1e495b3986f916785f5f9b9643363b31afb0cfb84242a891d6d2109b1f783010000006a47304402203a87e788bf992c8ef3b1a7712467afd272cdda278b889bde50703f3b0e025d380220652fd162b986c1d09263110603c9d0b838d25e99fb94076b410098949aa78bf301210280148dd23ba7921050554458b31d1b751e8b0618858baacdf64f1b701c72ed93ffffffff02bf6b07000000000017a914e0ff1ca6ac30c198ee020db400916760d43925108737240000000000001976a9143453359b93ebb4ca9fbc05ad38b96b2c4b59b74488ac00000000", "vin": [{"sequence": 4294967295, "scriptSig": {"hex": "483045022100a8cc84c7435ea0020e617deefe2c323cbc7e69ee7907614fef2be5b6a03518de022030ffadabd32469d1e6848530a0eb512ec164a918a7b091b2ca82b90db1d18ffe01210229ce38ec3b05b63dcf6e62287157c8504988f3d8fa775da6f2125798de0597b6", "asm": "3045022100a8cc84c7435ea0020e617deefe2c323cbc7e69ee7907614fef2be5b6a03518de022030ffadabd32469d1e6848530a0eb512ec164a918a7b091b2ca82b90db1d18ffe[ALL] 0229ce38ec3b05b63dcf6e62287157c8504988f3d8fa775da6f2125798de0597b6"}, "vout": 1, "txid": "8adffc1e778fa30cad3bd59b058978d46d4c26227ac31702225ac87495ab1a75"}, {"sequence": 4294967295, "scriptSig": {"hex": "47304402203a87e788bf992c8ef3b1a7712467afd272cdda278b889bde50703f3b0e025d380220652fd162b986c1d09263110603c9d0b838d25e99fb94076b410098949aa78bf301210280148dd23ba7921050554458b31d1b751e8b0618858baacdf64f1b701c72ed93", "asm": "304402203a87e788bf992c8ef3b1a7712467afd272cdda278b889bde50703f3b0e025d380220652fd162b986c1d09263110603c9d0b838d25e99fb94076b410098949aa78bf3[ALL] 0280148dd23ba7921050554458b31d1b751e8b0618858baacdf64f1b701c72ed93"}, "vout": 1, "txid": "83f7b109216d1d892a2484fb0cfb1ab3633364b9f9f58567916f98b395e4a1ce"}], "txid": "6c873eed1331689f279a4b4ef92e30cf33921814c7dd0163e3aad854f3386572", "blocktime": 1537874412, "version": 1, "confirmations": 11467, "time": 1537874412, "locktime": 0, "vsize": 371, "size": 371}