{"hash": "6c89e077c2f4efb8eb4eda277bae69b1257cecfaafa31a865912b6ad72f7298f", "blockhash": "0000000000000000001cda96e906b7601b7a6fb1a3b62bca570a9e5d8f4b3de1", "vout": [{"scriptPubKey": {"reqSigs": 1, "hex": "76a91425a5b584d530336cd1cef84d6e63545932b4855f88ac", "addresses": ["14S4WmNELz7m2ksq5ayskhkqVnCrK3BPp4"], "asm": "OP_DUP OP_HASH160 25a5b584d530336cd1cef84d6e63545932b4855f OP_EQUALVERIFY OP_CHECKSIG", "type": "pubkeyhash"}, "value": 0.0027, "n": 0}, {"scriptPubKey": {"reqSigs": 1, "hex": "76a91417812472b6097c72348729da79ff68f7df1a097588ac", "addresses": ["139HFP8rgh1fArrwAGcsRQP1cciduKyQmn"], "asm": "OP_DUP OP_HASH160 17812472b6097c72348729da79ff68f7df1a0975 OP_EQUALVERIFY OP_CHECKSIG", "type": "pubkeyhash"}, "value": 0.06908152, "n": 1}], "hex": "0100000001036ee3a2d8b006e434c0642da20b6645c2e863d29f9ae4726510c956a55d8c7f010000006a47304402205d0053d9a2074f7766e5cbe11d700154f08e48359d3a83f0e052bee795de469b02201f7a8b6be9ca337f4e580413059fd9497bda89d7b5404b0b3f1289609492c59e01210288dde00afafee254470eac820b5452db3043c950ff2e16aba1b0292f8cc063a4ffffffff02b01e0400000000001976a91425a5b584d530336cd1cef84d6e63545932b4855f88acf8686900000000001976a91417812472b6097c72348729da79ff68f7df1a097588ac00000000", "vin": [{"sequence": 4294967295, "scriptSig": {"hex": "47304402205d0053d9a2074f7766e5cbe11d700154f08e48359d3a83f0e052bee795de469b02201f7a8b6be9ca337f4e580413059fd9497bda89d7b5404b0b3f1289609492c59e01210288dde00afafee254470eac820b5452db3043c950ff2e16aba1b0292f8cc063a4", "asm": "304402205d0053d9a2074f7766e5cbe11d700154f08e48359d3a83f0e052bee795de469b02201f7a8b6be9ca337f4e580413059fd9497bda89d7b5404b0b3f1289609492c59e[ALL] 0288dde00afafee254470eac820b5452db3043c950ff2e16aba1b0292f8cc063a4"}, "vout": 1, "txid": "7f8c5da556c9106572e49a9fd263e8c245660ba22d64c034e406b0d8a2e36e03"}], "txid": "6c89e077c2f4efb8eb4eda277bae69b1257cecfaafa31a865912b6ad72f7298f", "blocktime": 1537873282, "version": 1, "confirmations": 11484, "time": 1537873282, "locktime": 0, "vsize": 225, "size": 225}