{"hash": "87f69a76f5c5d6bffef9800e3ce1f487f3d06f593fcf3f3f53dff4c12ac4e8df", "blockhash": "00000000000000000017f5eb5941039fbcee6240d03bc1f2f8e35350df66a1d8", "vout": [{"scriptPubKey": {"reqSigs": 1, "hex": "76a9143312a6d65a0b77859918f4feaa07b6f51c29901888ac", "addresses": ["15f3oj9paJrLe6z5MBAXwymzoewpK2Tp7B"], "asm": "OP_DUP OP_HASH160 3312a6d65a0b77859918f4feaa07b6f51c299018 OP_EQUALVERIFY OP_CHECKSIG", "type": "pubkeyhash"}, "value": 0.00344198, "n": 0}, {"scriptPubKey": {"reqSigs": 1, "hex": "a914cfaabfe8c271f99a4364b5197ba50c6cddb7adb987", "addresses": ["3Ld4M9RPwEG3VeQbHcC1PsKUndQL7VYLZP"], "asm": "OP_HASH160 cfaabfe8c271f99a4364b5197ba50c6cddb7adb9 OP_EQUAL", "type": "scripthash"}, "value": 0.25046813, "n": 1}], "hex": "01000000000102ad1673940c49f9106648f889fc85f9af3005f65b6807674916ad181d7e0b2f7e01000000232200202f7b4024602241b47d3306a6733d9889e4b6761d9f1cb82a18aa8b9ac4506e51ffffffff87d84f0f9dd89721578f4d4894a9663bb926dc9a062aa06dbb6e171c66a29d4301000000232200202f7b4024602241b47d3306a6733d9889e4b6761d9f1cb82a18aa8b9ac4506e51ffffffff0286400500000000001976a9143312a6d65a0b77859918f4feaa07b6f51c29901888ac1d2f7e010000000017a914cfaabfe8c271f99a4364b5197ba50c6cddb7adb987040048304502210081aec949ec28b242186aa2114ddc009912346e2d8461b8103be6df9552cd6f9902207b934a8a03cc62a763338e49317426d9e7e7e92e021697210891c40219f995d801483045022100c14afb6d0ce2b09d8f0b980de27b0e1d52b068053f5dbd73773fa45b7b576d42022049718bd088574909cf60f401926267f9ae32bca0e30844570917f781f6ca08780147522102973cd851fecff3a20f08377b072729f303801eee1b7678668338adcaec770ec221033e4af03ed09dbd8a417ba042650d5bd1db7f14f271a8f660974e3abf1fdfa4da52ae040047304402205a7f1fe32d46878af94644cc188ea513658e1ecc947c209249d49459932153100220458f8b218ace9d96bb0645e8e8e67d725c401a41d175c5f91e34f8437622bda7014730440220455b42b828c49ab390ab985724db2de3d321f2955615d7c28d4ebc81c3048c830220684c881fbc179d49f7d22d1600afc12464f9707d67c15e1aba2d2c4da6916dc90147522102973cd851fecff3a20f08377b072729f303801eee1b7678668338adcaec770ec221033e4af03ed09dbd8a417ba042650d5bd1db7f14f271a8f660974e3abf1fdfa4da52ae00000000", "vin": [{"txinwitness": ["", "304502210081aec949ec28b242186aa2114ddc009912346e2d8461b8103be6df9552cd6f9902207b934a8a03cc62a763338e49317426d9e7e7e92e021697210891c40219f995d801", "3045022100c14afb6d0ce2b09d8f0b980de27b0e1d52b068053f5dbd73773fa45b7b576d42022049718bd088574909cf60f401926267f9ae32bca0e30844570917f781f6ca087801", "522102973cd851fecff3a20f08377b072729f303801eee1b7678668338adcaec770ec221033e4af03ed09dbd8a417ba042650d5bd1db7f14f271a8f660974e3abf1fdfa4da52ae"], "sequence": 4294967295, "scriptSig": {"hex": "2200202f7b4024602241b47d3306a6733d9889e4b6761d9f1cb82a18aa8b9ac4506e51", "asm": "00202f7b4024602241b47d3306a6733d9889e4b6761d9f1cb82a18aa8b9ac4506e51"}, "vout": 1, "txid": "7e2f0b7e1d18ad16496707685bf60530aff985fc89f8486610f9490c947316ad"}, {"txinwitness": ["", "304402205a7f1fe32d46878af94644cc188ea513658e1ecc947c209249d49459932153100220458f8b218ace9d96bb0645e8e8e67d725c401a41d175c5f91e34f8437622bda701", "30440220455b42b828c49ab390ab985724db2de3d321f2955615d7c28d4ebc81c3048c830220684c881fbc179d49f7d22d1600afc12464f9707d67c15e1aba2d2c4da6916dc901", "522102973cd851fecff3a20f08377b072729f303801eee1b7678668338adcaec770ec221033e4af03ed09dbd8a417ba042650d5bd1db7f14f271a8f660974e3abf1fdfa4da52ae"], "sequence": 4294967295, "scriptSig": {"hex": "2200202f7b4024602241b47d3306a6733d9889e4b6761d9f1cb82a18aa8b9ac4506e51", "asm": "00202f7b4024602241b47d3306a6733d9889e4b6761d9f1cb82a18aa8b9ac4506e51"}, "vout": 1, "txid": "439da2661c176ebb6da02a069adc26b93b66a994484d8f572197d89d0f4fd887"}], "txid": "6c9093660c334900f88c8142dd8166218e5c0db3ee3f264c95ba3a77ae82174e", "blocktime": 1537874412, "version": 1, "confirmations": 11468, "time": 1537874412, "locktime": 0, "vsize": 338, "size": 668}