{"hash": "86e9112c6d9bd9465e6b563bfe56e0e5717d715c8f90693be66c48f91c3eb5ac", "blockhash": "0000000000000000001cda96e906b7601b7a6fb1a3b62bca570a9e5d8f4b3de1", "vout": [{"scriptPubKey": {"reqSigs": 1, "hex": "0014808155a326d5881803174c7166a7255ee0427d42", "addresses": ["bc1qszq4tgex6kypsqchf3ckdfe9tmsyyl2zef78gc"], "asm": "0 808155a326d5881803174c7166a7255ee0427d42", "type": "witness_v0_keyhash"}, "value": 0.00548607, "n": 0}, {"scriptPubKey": {"reqSigs": 1, "hex": "76a9149008419d0badf3ae772eb783668144291fa8efb888ac", "addresses": ["1E8aCHL6tnymFKT4uzPhY3W4Hos5seHufx"], "asm": "OP_DUP OP_HASH160 9008419d0badf3ae772eb783668144291fa8efb8 OP_EQUALVERIFY OP_CHECKSIG", "type": "pubkeyhash"}, "value": 0.01763388, "n": 1}], "hex": "0100000000010123c3ad982d7940921e7b2e83d6098c9a60e5a3efa7b9c1a0d46d614286c7494600000000171600148d0eabcea91abb2ae163bae1424b978d3791d955ffffffff02ff5e080000000000160014808155a326d5881803174c7166a7255ee0427d423ce81a00000000001976a9149008419d0badf3ae772eb783668144291fa8efb888ac0247304402205ba851f4e3b9b1b9d35f79df49096676cc26fcf0eba39a8c4a28b57e014be7ab022054d352e9f41345aa38e50bd60f53600306361f7fcb284ef235a439a0106182a901210319ebc1b6d30af3471ca0e5e4c51ccdde8c29f0683894356cfe8f7c75d4760b4800000000", "vin": [{"txinwitness": ["304402205ba851f4e3b9b1b9d35f79df49096676cc26fcf0eba39a8c4a28b57e014be7ab022054d352e9f41345aa38e50bd60f53600306361f7fcb284ef235a439a0106182a901", "0319ebc1b6d30af3471ca0e5e4c51ccdde8c29f0683894356cfe8f7c75d4760b48"], "sequence": 4294967295, "scriptSig": {"hex": "1600148d0eabcea91abb2ae163bae1424b978d3791d955", "asm": "00148d0eabcea91abb2ae163bae1424b978d3791d955"}, "vout": 0, "txid": "4649c78642616dd4a0c1b9a7efa3e5609a8c09d6832e7b1e9240792d98adc323"}], "txid": "6ca236dbfbfce17dd9af880c5f765855924ae962256d5f2341815f055e8faf85", "blocktime": 1537873282, "version": 1, "confirmations": 11484, "time": 1537873282, "locktime": 0, "vsize": 167, "size": 248}