{"hash": "6ca4786930c930414d9d215ac647fb0a6d22d654ab0306e2a48956785fc2a60d", "blockhash": "0000000000000000000baef3f32e3676a92c3b2e5da21b426e4f302fc371ce76", "vout": [{"scriptPubKey": {"reqSigs": 1, "hex": "a914e5e1682a7cc2a2fa0a7d6e3a9860412406c163ee87", "addresses": ["3NeWh23RmLvHVMfo6QZuTKtz2954qhCd7t"], "asm": "OP_HASH160 e5e1682a7cc2a2fa0a7d6e3a9860412406c163ee OP_EQUAL", "type": "scripthash"}, "value": 0.01608, "n": 0}, {"scriptPubKey": {"reqSigs": 1, "hex": "a914e370231feecbfc25e2e2423a5a79bf79bfdca59887", "addresses": ["3NRbeX3vD5VaVE4TDU9ivCDsEf7NPPte6J"], "asm": "OP_HASH160 e370231feecbfc25e2e2423a5a79bf79bfdca598 OP_EQUAL", "type": "scripthash"}, "value": 0.31368082, "n": 1}], "hex": "01000000019b849d6b753d44db3af86d62f06bf8d9d72f18dfc7e0809afbeed6789b4e6cb101000000da00483045022100bcd87d31fa28dc6eba58ae590252cdfe7b14c26f1bb033c92cf47c962035f5ff02204789c92737f2cd35ffa6dc19fa3658cbef722bbb2a608adbf9165ce29134940d0147304402205a2e4476c004438c1aff2d0d3e8b51e8074d8b832666f875eef0f1e8e54b474b0220553d3163dfcbb3f36ddd60f51c8fbbb645a351719d0189d62d98ffdbb390fd4d014752210327881b6abce6535553a3ce21fad12a7d74fd237ce7c4cd270a267162344e3082210256141f8eb687f5a68c5cc65054652dc25116fa285e44d72b44368827ffe77d9a52aeffffffff02408918000000000017a914e5e1682a7cc2a2fa0a7d6e3a9860412406c163ee8792a3de010000000017a914e370231feecbfc25e2e2423a5a79bf79bfdca5988700000000", "vin": [{"sequence": 4294967295, "scriptSig": {"hex": "00483045022100bcd87d31fa28dc6eba58ae590252cdfe7b14c26f1bb033c92cf47c962035f5ff02204789c92737f2cd35ffa6dc19fa3658cbef722bbb2a608adbf9165ce29134940d0147304402205a2e4476c004438c1aff2d0d3e8b51e8074d8b832666f875eef0f1e8e54b474b0220553d3163dfcbb3f36ddd60f51c8fbbb645a351719d0189d62d98ffdbb390fd4d014752210327881b6abce6535553a3ce21fad12a7d74fd237ce7c4cd270a267162344e3082210256141f8eb687f5a68c5cc65054652dc25116fa285e44d72b44368827ffe77d9a52ae", "asm": "0 3045022100bcd87d31fa28dc6eba58ae590252cdfe7b14c26f1bb033c92cf47c962035f5ff02204789c92737f2cd35ffa6dc19fa3658cbef722bbb2a608adbf9165ce29134940d[ALL] 304402205a2e4476c004438c1aff2d0d3e8b51e8074d8b832666f875eef0f1e8e54b474b0220553d3163dfcbb3f36ddd60f51c8fbbb645a351719d0189d62d98ffdbb390fd4d[ALL] 52210327881b6abce6535553a3ce21fad12a7d74fd237ce7c4cd270a267162344e3082210256141f8eb687f5a68c5cc65054652dc25116fa285e44d72b44368827ffe77d9a52ae"}, "vout": 1, "txid": "b16c4e9b78d6eefb9a80e0c7df182fd7d9f86bf0626df83adb443d756b9d849b"}], "txid": "6ca4786930c930414d9d215ac647fb0a6d22d654ab0306e2a48956785fc2a60d", "blocktime": 1537876114, "version": 1, "confirmations": 11460, "time": 1537876114, "locktime": 0, "vsize": 333, "size": 333}