{"hash": "5ed5ec23f5f6699c64ed0bd3a1ab8978b71359c86e8f3955a4a062dac9976103", "blockhash": "0000000000000000000e13cef7c366c0283d82e591d1acd082e914b08063cdf1", "vout": [{"scriptPubKey": {"reqSigs": 1, "hex": "a9141f7ced1d3f2b76af326b35dfcf1070b79f2b94cb87", "addresses": ["34ZWXWwHybnoLaZQ7qdx5xeDBYa6cZGBby"], "asm": "OP_HASH160 1f7ced1d3f2b76af326b35dfcf1070b79f2b94cb OP_EQUAL", "type": "scripthash"}, "value": 0.0090934, "n": 0}], "hex": "010000000001027319c1d1239b5cfdf0bd3267128bf52ca4c95bd4c9f7fa5f88eb3f7de783aad20000000023220020d380996421fccdcf9bc0f8b7511f23d4dfb2790300948c8d48814147c51c53c2fdffffff29509a9d15fca94c82dc998ac8243d9f3bd44f293f5dd391846454c8779ff44f0400000023220020a3e2a372c85976f0c5f05a33bb9de6574de8c2e4bd5ba14d8532ef0019a729a4fdffffff011ce00d000000000017a9141f7ced1d3f2b76af326b35dfcf1070b79f2b94cb87040047304402204b740e3e0d00f1a019a67b67f31f9d08e0299c24e258916853816ed59b6bc1f602206312ed7952804de328781f69e5ee3460be05112eacc21e551936caf6e324fbd601483045022100c2bf2fc1705f1c5433fe4e56d58c29e5ab2e975d7f6203cd5e12c8259a6347d7022051a74b51bbe55ea7ee3cd1742ad853bae425b502f64375e1af1ab2cd6a89ba93014752210358fa3c17650ab8352d39df83d69c02fb95199d8f18754caa0d4c190a032793982103ab240994f1cb1158ee75dbb126e33b79efcede7653112daf7bfececd8eebfe9e52ae040047304402200dd82a4b004c92ff0044800b9b7cb715e0b0aa067a4b2271f5eec6afe9f82316022010264b40b21d2ba7c720a6ea7816dc6487687830e3c03e13f64b4c163117f80e0147304402206c1120035d5f097478dacaad81f4c938c6e88f4642c56639e99cf33f0d98d54402200b7d051f46e8729e8f2e0bb26c0c7d639acdb5379713392ef475b0f70ff9dee101475221021a542dc092c30167ff0f4475f09f1aeff1c16caf6d8f838fa63ccece142b30fe21031bf0c84b03091a35d4467f409cf65de4d14acfdeb55c600539b353bc9c0df1c552ae10490800", "vin": [{"txinwitness": ["", "304402204b740e3e0d00f1a019a67b67f31f9d08e0299c24e258916853816ed59b6bc1f602206312ed7952804de328781f69e5ee3460be05112eacc21e551936caf6e324fbd601", "3045022100c2bf2fc1705f1c5433fe4e56d58c29e5ab2e975d7f6203cd5e12c8259a6347d7022051a74b51bbe55ea7ee3cd1742ad853bae425b502f64375e1af1ab2cd6a89ba9301", "52210358fa3c17650ab8352d39df83d69c02fb95199d8f18754caa0d4c190a032793982103ab240994f1cb1158ee75dbb126e33b79efcede7653112daf7bfececd8eebfe9e52ae"], "sequence": 4294967293, "scriptSig": {"hex": "220020d380996421fccdcf9bc0f8b7511f23d4dfb2790300948c8d48814147c51c53c2", "asm": "0020d380996421fccdcf9bc0f8b7511f23d4dfb2790300948c8d48814147c51c53c2"}, "vout": 0, "txid": "d2aa83e77d3feb885ffaf7c9d45bc9a42cf58b126732bdf0fd5c9b23d1c11973"}, {"txinwitness": ["", "304402200dd82a4b004c92ff0044800b9b7cb715e0b0aa067a4b2271f5eec6afe9f82316022010264b40b21d2ba7c720a6ea7816dc6487687830e3c03e13f64b4c163117f80e01", "304402206c1120035d5f097478dacaad81f4c938c6e88f4642c56639e99cf33f0d98d54402200b7d051f46e8729e8f2e0bb26c0c7d639acdb5379713392ef475b0f70ff9dee101", "5221021a542dc092c30167ff0f4475f09f1aeff1c16caf6d8f838fa63ccece142b30fe21031bf0c84b03091a35d4467f409cf65de4d14acfdeb55c600539b353bc9c0df1c552ae"], "sequence": 4294967293, "scriptSig": {"hex": "220020a3e2a372c85976f0c5f05a33bb9de6574de8c2e4bd5ba14d8532ef0019a729a4", "asm": "0020a3e2a372c85976f0c5f05a33bb9de6574de8c2e4bd5ba14d8532ef0019a729a4"}, "vout": 4, "txid": "4ff49f77c854648491d35d3f294fd43b9f3d24c88a99dc824ca9fc159d9a5029"}], "txid": "6ca6bd2b818bc03dc7a241fdd1ce97c3db3cef178402ba22b003d17afe93dd1c", "blocktime": 1537871767, "version": 1, "confirmations": 11494, "time": 1537871767, "locktime": 542992, "vsize": 304, "size": 633}