{"hash": "679f90a45f2719314ad2d785f17035a567b003db5465ede69762ea4a3a08d7e1", "blockhash": "0000000000000000001cda96e906b7601b7a6fb1a3b62bca570a9e5d8f4b3de1", "vout": [{"scriptPubKey": {"reqSigs": 1, "hex": "76a9146b65022373d002a5078276c5450be0d8da827b0f88ac", "addresses": ["1AnrJi944Z6RjZfj6wDGFnwrUPEksGYyBx"], "asm": "OP_DUP OP_HASH160 6b65022373d002a5078276c5450be0d8da827b0f OP_EQUALVERIFY OP_CHECKSIG", "type": "pubkeyhash"}, "value": 0.02197586, "n": 0}, {"scriptPubKey": {"reqSigs": 1, "hex": "a914edca132c87ac9615c0f2930259bcce7d29dc567a87", "addresses": ["3PNL9RBBbnPYqB8ouyCs76RMDZp7HkQGFP"], "asm": "OP_HASH160 edca132c87ac9615c0f2930259bcce7d29dc567a OP_EQUAL", "type": "scripthash"}, "value": 0.86441813, "n": 1}], "hex": "0100000000010152435039f6b9090ffcf30b7d9e11a6bcffedd79b051a32520db856af09e6b38f0100000017160014281657e4b7decbd4a58f5de4128bda0708482185ffffffff0252882100000000001976a9146b65022373d002a5078276c5450be0d8da827b0f88ac55ff26050000000017a914edca132c87ac9615c0f2930259bcce7d29dc567a8702483045022100dbf7ea5dc834c8947d4d03447b1a582ff7005d0dbb133b14438ae3d2bd6018af02202899113eafa8cb6daf917096b3f4bd41f0c701f9aa596275e2b70a87b6cd6e2d0121039351495db6123e7f569a7d4eb6e9f77fb077bcfa5607e0c833e738c82704fc5f00000000", "vin": [{"txinwitness": ["3045022100dbf7ea5dc834c8947d4d03447b1a582ff7005d0dbb133b14438ae3d2bd6018af02202899113eafa8cb6daf917096b3f4bd41f0c701f9aa596275e2b70a87b6cd6e2d01", "039351495db6123e7f569a7d4eb6e9f77fb077bcfa5607e0c833e738c82704fc5f"], "sequence": 4294967295, "scriptSig": {"hex": "160014281657e4b7decbd4a58f5de4128bda0708482185", "asm": "0014281657e4b7decbd4a58f5de4128bda0708482185"}, "vout": 1, "txid": "8fb3e609af56b80d52321a059bd7edffbca6119e7d0bf3fc0f09b9f639504352"}], "txid": "6cade39b2f6249074dc07e7318670877013558097add75d4655fbe7541b6c384", "blocktime": 1537873282, "version": 1, "confirmations": 11484, "time": 1537873282, "locktime": 0, "vsize": 168, "size": 250}