{"hash": "6cb08cb54948e78a672e24e94a1d380572584a9723e18906a77f362fd6d06302", "blockhash": "00000000000000000024a2167bbff67b0be802c0b01cdd79e6331c2be6459f87", "vout": [{"scriptPubKey": {"reqSigs": 1, "hex": "a9146f5a262150da27983615b5057475fb1e0c8bd79387", "addresses": ["3BqnvVh7GCYakuEGZmFSFMRF7ZDaFYpwwY"], "asm": "OP_HASH160 6f5a262150da27983615b5057475fb1e0c8bd793 OP_EQUAL", "type": "scripthash"}, "value": 0.01540054, "n": 0}, {"scriptPubKey": {"reqSigs": 1, "hex": "76a914de5b3a89cd0794185ddd3297784f89d95ab7fc6988ac", "addresses": ["1MGiJGNupxMpnQJdnifMA9RVQwoMCMrWVf"], "asm": "OP_DUP OP_HASH160 de5b3a89cd0794185ddd3297784f89d95ab7fc69 OP_EQUALVERIFY OP_CHECKSIG", "type": "pubkeyhash"}, "value": 0.0001458, "n": 1}], "hex": "010000000128ddcb2152769ecd0a38ca1428ba81e4ccff3f73acc9bb5bfbc2aeb81b32ebbf00000000db00483045022100bfbd787e979635b0240d1b70a0e2481faafe788fea9f1b4424871643314a435d022077204738d6304b2841144765d409c425cd4283fd554733110f6a3f5cb9f4d15f01483045022100faedaf9ccb594eb397495409fac36c63f61913bad7a3cce5579e6b155205adfb02205fa91d7b3ad78c85797300d4a5ca85524103ca6a5c201c14a03bfb49e78480170147522102907a54bed8ad74b3f35638c60114ca240a308cb986f3f2f306178869a8880b61210310c7c7dc0908496cef4ee9775a42974cf5b02c1b8ecc9071f4a688ba0dee1dec52aeffffffff02d67f17000000000017a9146f5a262150da27983615b5057475fb1e0c8bd79387f4380000000000001976a914de5b3a89cd0794185ddd3297784f89d95ab7fc6988ac00000000", "vin": [{"sequence": 4294967295, "scriptSig": {"hex": "00483045022100bfbd787e979635b0240d1b70a0e2481faafe788fea9f1b4424871643314a435d022077204738d6304b2841144765d409c425cd4283fd554733110f6a3f5cb9f4d15f01483045022100faedaf9ccb594eb397495409fac36c63f61913bad7a3cce5579e6b155205adfb02205fa91d7b3ad78c85797300d4a5ca85524103ca6a5c201c14a03bfb49e78480170147522102907a54bed8ad74b3f35638c60114ca240a308cb986f3f2f306178869a8880b61210310c7c7dc0908496cef4ee9775a42974cf5b02c1b8ecc9071f4a688ba0dee1dec52ae", "asm": "0 3045022100bfbd787e979635b0240d1b70a0e2481faafe788fea9f1b4424871643314a435d022077204738d6304b2841144765d409c425cd4283fd554733110f6a3f5cb9f4d15f[ALL] 3045022100faedaf9ccb594eb397495409fac36c63f61913bad7a3cce5579e6b155205adfb02205fa91d7b3ad78c85797300d4a5ca85524103ca6a5c201c14a03bfb49e7848017[ALL] 522102907a54bed8ad74b3f35638c60114ca240a308cb986f3f2f306178869a8880b61210310c7c7dc0908496cef4ee9775a42974cf5b02c1b8ecc9071f4a688ba0dee1dec52ae"}, "vout": 0, "txid": "bfeb321bb8aec2fb5bbbc9ac733fffcce481ba2814ca380acd9e765221cbdd28"}], "txid": "6cb08cb54948e78a672e24e94a1d380572584a9723e18906a77f362fd6d06302", "blocktime": 1537870564, "version": 1, "confirmations": 11515, "time": 1537870564, "locktime": 0, "vsize": 336, "size": 336}