{"hash": "6cb1b41c43869fde7d204224337d0ba349593185c74e286ded4ba10c3785e7bd", "blockhash": "00000000000000000017f5eb5941039fbcee6240d03bc1f2f8e35350df66a1d8", "vout": [{"scriptPubKey": {"reqSigs": 1, "hex": "76a914e8cea30989bd15530f819b766684b00dc7ba7cfa88ac", "addresses": ["1NDyJtNTjmwk5xPNhjgAMu4HDHigtobu1s"], "asm": "OP_DUP OP_HASH160 e8cea30989bd15530f819b766684b00dc7ba7cfa OP_EQUALVERIFY OP_CHECKSIG", "type": "pubkeyhash"}, "value": 1.80738163, "n": 0}, {"scriptPubKey": {"reqSigs": 1, "hex": "76a914ab377c625c0be3c55d3e84cd3ada40b4f7cc94c888ac", "addresses": ["1GcK22hNXXSwgAxSbMWwRyXpP8z4R4dDrh"], "asm": "OP_DUP OP_HASH160 ab377c625c0be3c55d3e84cd3ada40b4f7cc94c8 OP_EQUALVERIFY OP_CHECKSIG", "type": "pubkeyhash"}, "value": 0.00844882, "n": 1}], "hex": "020000000a263bf17959514569386654e90c0279a88c4df5bd4ecf013ffdd38a994edbc4c0010000006b483045022100e5a4d59237188eaa6b782a3021bd10a96b8e6a16f90f7b2ceb056980aad14a2202201727dff7a05504e47c5bfb0fff03c9a9f8385e0ed00767f9c33ac5be44d6b959012102c056cbf80b201c3bf937536b0cc33fe7f58f514d5ec8b741674c5dda3bf0eb71feffffff2bcfc3b492e36b96581e5be253694aa53c63f8e9ca8c6eed1ef156b223001183000000006a4730440220656f03eb56122cf186f1710c403fe2491618a3b0c1aed91bb910494a0131e6b7022011164cd1f69c8f14e4350cd1ca8a9c4b5a04a380a07d4535268e7971fbd9382c012102da43d5d3c3795351f5d8a6a42a6a3480f051204c287e20a0ae33fa26b964a88afeffffff33d18dae45ba15754f20c24f4f56b46fb195f21643bea577d51096a265b9fe48010000006a47304402207f27d3d784e0d58f27882c834f7741ccf4d5adb28b2fb60b425a3bb5a3d4460a02205704141ed5663a362d328fd8f52f6d38eece3db52ac0b4d7c2bdea6fbc0f363b012102e6ddc6fa854c8ff8c23de93b2b787102cf90c50c5d89c115ba48a7af09c60234feffffff37074e06f8c9e382fb1f2e64caed2a9cc51bef027ff01fae5cca40fec7e96c85060000006a473044022039856fd2b65a56a2168af7daa83b329fea8492d64418a92fd91fbcf6978032ff022048eb1f6e18f7120a19f12aa541f639d1af046fcc31fdb2f9f05a7f4fa0b6bc62012102e806b98e918154740a296392281c1ec19312c2554eec25d06dc894106098cfc1feffffff427604b524391e285a31485567941ddd07f4e12214f620abbd0ef701ce4888bf020000006b483045022100e78e2c2d37efc745d0e626888e8566dc2eeb1da621ecfb16775ca47d8a4df9ae02204201767556ee77bb97830cdd94bf7cd5ad34b9d1d95e765066d540d9feb4543e0121036019e04ebde610cc4e51409b6c7ce0ba2d9d4b780051f5205903a262a328cb30feffffff7926219531e04ab7348604942790ddecdeaeea1051111a049555522582770e20010000006a47304402206d8a4b1187f61230295664e548e81f4a321c5032789f4233eaac4040a7a59437022079152616e5a14a1e7b132213f65e9c46116911535ad7b2a1723857e71ff9a83e0121030d73ca89e7af0f6784e6251977ccc51a7d0fc72ff44e568c17281c5c8202d3b3feffffff945616684d94551d82f7530f30a4b0e5791675912c7f61ac08a1526a438464a2010000006b483045022100b093ad440ae14656657da17ad0a7f1691d0eaa6aca8b7c93aec54b6977c54c8102207981478653ce300491d9ebc1084939bc5316b382fe7e067505d7cb0c41558b190121028eddd136da2b148220a3baf09e838a9896e72785f344551549399752095dbd80feffffffcbff91a5ee9ef2126b1f8b61c0ed2ce050c1a1b34bd62b85ba39af03570477f1000000006b483045022100e246a381dc6d7890f6c1352ca4d1abc72f5980e1067361a927a4e0b8b9ada9d40220712c3e00ea6eb6f9744c2f98fca50bea9447757ccfe73e3479db7f481573b18c0121035928247b6e1a7755c8a6661524cc1daef7d4ff94472b2daaaf28d44c49ea06d2feffffffed24bf93b3a1fa87bd0a915faf7bd6d898c4cd9634f8c96ab41bf327cc33f0f6520000006b483045022100b5a91f830eee11ce6373e2726b087efcd18641ccd678a6afe83d3a37e65dbbbc0220027fa56ea9a243fcbabfc611b588c83ce78adad2bc04a4db9c46b66f77c64d6c012103d2f9f773be9adcc30a2da087de6457e53ea9a337cdf96d6a064460bff72ac46dfeffffffff1152e96de16f9f1020b453053cba7153f4affe21f2432ad8c7274524bc2f05080000006a47304402202fa67bd73b7dcaf7353e88bab66e47acb68d7798d2e40018c15e97be6465334c0220281c500ea937c9bf7b1b9eec3f49e82e30a3ec247d646a253cf940da8e3957fb01210202ed2cfc77dc97bb07ad2612f3c0193812cd652c342727c7a0be2cf406e8f0b9feffffff0273d8c50a000000001976a914e8cea30989bd15530f819b766684b00dc7ba7cfa88ac52e40c00000000001976a914ab377c625c0be3c55d3e84cd3ada40b4f7cc94c888ac15490800", "vin": [{"sequence": 4294967294, "scriptSig": {"hex": "483045022100e5a4d59237188eaa6b782a3021bd10a96b8e6a16f90f7b2ceb056980aad14a2202201727dff7a05504e47c5bfb0fff03c9a9f8385e0ed00767f9c33ac5be44d6b959012102c056cbf80b201c3bf937536b0cc33fe7f58f514d5ec8b741674c5dda3bf0eb71", "asm": "3045022100e5a4d59237188eaa6b782a3021bd10a96b8e6a16f90f7b2ceb056980aad14a2202201727dff7a05504e47c5bfb0fff03c9a9f8385e0ed00767f9c33ac5be44d6b959[ALL] 02c056cbf80b201c3bf937536b0cc33fe7f58f514d5ec8b741674c5dda3bf0eb71"}, "vout": 1, "txid": "c0c4db4e998ad3fd3f01cf4ebdf54d8ca879020ce95466386945515979f13b26"}, {"sequence": 4294967294, "scriptSig": {"hex": "4730440220656f03eb56122cf186f1710c403fe2491618a3b0c1aed91bb910494a0131e6b7022011164cd1f69c8f14e4350cd1ca8a9c4b5a04a380a07d4535268e7971fbd9382c012102da43d5d3c3795351f5d8a6a42a6a3480f051204c287e20a0ae33fa26b964a88a", "asm": "30440220656f03eb56122cf186f1710c403fe2491618a3b0c1aed91bb910494a0131e6b7022011164cd1f69c8f14e4350cd1ca8a9c4b5a04a380a07d4535268e7971fbd9382c[ALL] 02da43d5d3c3795351f5d8a6a42a6a3480f051204c287e20a0ae33fa26b964a88a"}, "vout": 0, "txid": "83110023b256f11eed6e8ccae9f8633ca54a6953e25b1e58966be392b4c3cf2b"}, {"sequence": 4294967294, "scriptSig": {"hex": "47304402207f27d3d784e0d58f27882c834f7741ccf4d5adb28b2fb60b425a3bb5a3d4460a02205704141ed5663a362d328fd8f52f6d38eece3db52ac0b4d7c2bdea6fbc0f363b012102e6ddc6fa854c8ff8c23de93b2b787102cf90c50c5d89c115ba48a7af09c60234", "asm": "304402207f27d3d784e0d58f27882c834f7741ccf4d5adb28b2fb60b425a3bb5a3d4460a02205704141ed5663a362d328fd8f52f6d38eece3db52ac0b4d7c2bdea6fbc0f363b[ALL] 02e6ddc6fa854c8ff8c23de93b2b787102cf90c50c5d89c115ba48a7af09c60234"}, "vout": 1, "txid": "48feb965a29610d577a5be4316f295b16fb4564f4fc2204f7515ba45ae8dd133"}, {"sequence": 4294967294, "scriptSig": {"hex": "473044022039856fd2b65a56a2168af7daa83b329fea8492d64418a92fd91fbcf6978032ff022048eb1f6e18f7120a19f12aa541f639d1af046fcc31fdb2f9f05a7f4fa0b6bc62012102e806b98e918154740a296392281c1ec19312c2554eec25d06dc894106098cfc1", "asm": "3044022039856fd2b65a56a2168af7daa83b329fea8492d64418a92fd91fbcf6978032ff022048eb1f6e18f7120a19f12aa541f639d1af046fcc31fdb2f9f05a7f4fa0b6bc62[ALL] 02e806b98e918154740a296392281c1ec19312c2554eec25d06dc894106098cfc1"}, "vout": 6, "txid": "856ce9c7fe40ca5cae1ff07f02ef1bc59c2aedca642e1ffb82e3c9f8064e0737"}, {"sequence": 4294967294, "scriptSig": {"hex": "483045022100e78e2c2d37efc745d0e626888e8566dc2eeb1da621ecfb16775ca47d8a4df9ae02204201767556ee77bb97830cdd94bf7cd5ad34b9d1d95e765066d540d9feb4543e0121036019e04ebde610cc4e51409b6c7ce0ba2d9d4b780051f5205903a262a328cb30", "asm": "3045022100e78e2c2d37efc745d0e626888e8566dc2eeb1da621ecfb16775ca47d8a4df9ae02204201767556ee77bb97830cdd94bf7cd5ad34b9d1d95e765066d540d9feb4543e[ALL] 036019e04ebde610cc4e51409b6c7ce0ba2d9d4b780051f5205903a262a328cb30"}, "vout": 2, "txid": "bf8848ce01f70ebdab20f61422e1f407dd1d94675548315a281e3924b5047642"}, {"sequence": 4294967294, "scriptSig": {"hex": "47304402206d8a4b1187f61230295664e548e81f4a321c5032789f4233eaac4040a7a59437022079152616e5a14a1e7b132213f65e9c46116911535ad7b2a1723857e71ff9a83e0121030d73ca89e7af0f6784e6251977ccc51a7d0fc72ff44e568c17281c5c8202d3b3", "asm": "304402206d8a4b1187f61230295664e548e81f4a321c5032789f4233eaac4040a7a59437022079152616e5a14a1e7b132213f65e9c46116911535ad7b2a1723857e71ff9a83e[ALL] 030d73ca89e7af0f6784e6251977ccc51a7d0fc72ff44e568c17281c5c8202d3b3"}, "vout": 1, "txid": "200e778225525595041a115110eaaedeecdd902794048634b74ae03195212679"}, {"sequence": 4294967294, "scriptSig": {"hex": "483045022100b093ad440ae14656657da17ad0a7f1691d0eaa6aca8b7c93aec54b6977c54c8102207981478653ce300491d9ebc1084939bc5316b382fe7e067505d7cb0c41558b190121028eddd136da2b148220a3baf09e838a9896e72785f344551549399752095dbd80", "asm": "3045022100b093ad440ae14656657da17ad0a7f1691d0eaa6aca8b7c93aec54b6977c54c8102207981478653ce300491d9ebc1084939bc5316b382fe7e067505d7cb0c41558b19[ALL] 028eddd136da2b148220a3baf09e838a9896e72785f344551549399752095dbd80"}, "vout": 1, "txid": "a26484436a52a108ac617f2c91751679e5b0a4300f53f7821d55944d68165694"}, {"sequence": 4294967294, "scriptSig": {"hex": "483045022100e246a381dc6d7890f6c1352ca4d1abc72f5980e1067361a927a4e0b8b9ada9d40220712c3e00ea6eb6f9744c2f98fca50bea9447757ccfe73e3479db7f481573b18c0121035928247b6e1a7755c8a6661524cc1daef7d4ff94472b2daaaf28d44c49ea06d2", "asm": "3045022100e246a381dc6d7890f6c1352ca4d1abc72f5980e1067361a927a4e0b8b9ada9d40220712c3e00ea6eb6f9744c2f98fca50bea9447757ccfe73e3479db7f481573b18c[ALL] 035928247b6e1a7755c8a6661524cc1daef7d4ff94472b2daaaf28d44c49ea06d2"}, "vout": 0, "txid": "f177045703af39ba852bd64bb3a1c150e02cedc0618b1f6b12f29eeea591ffcb"}, {"sequence": 4294967294, "scriptSig": {"hex": "483045022100b5a91f830eee11ce6373e2726b087efcd18641ccd678a6afe83d3a37e65dbbbc0220027fa56ea9a243fcbabfc611b588c83ce78adad2bc04a4db9c46b66f77c64d6c012103d2f9f773be9adcc30a2da087de6457e53ea9a337cdf96d6a064460bff72ac46d", "asm": "3045022100b5a91f830eee11ce6373e2726b087efcd18641ccd678a6afe83d3a37e65dbbbc0220027fa56ea9a243fcbabfc611b588c83ce78adad2bc04a4db9c46b66f77c64d6c[ALL] 03d2f9f773be9adcc30a2da087de6457e53ea9a337cdf96d6a064460bff72ac46d"}, "vout": 82, "txid": "f6f033cc27f31bb46ac9f83496cdc498d8d67baf5f910abd87faa1b393bf24ed"}, {"sequence": 4294967294, "scriptSig": {"hex": "47304402202fa67bd73b7dcaf7353e88bab66e47acb68d7798d2e40018c15e97be6465334c0220281c500ea937c9bf7b1b9eec3f49e82e30a3ec247d646a253cf940da8e3957fb01210202ed2cfc77dc97bb07ad2612f3c0193812cd652c342727c7a0be2cf406e8f0b9", "asm": "304402202fa67bd73b7dcaf7353e88bab66e47acb68d7798d2e40018c15e97be6465334c0220281c500ea937c9bf7b1b9eec3f49e82e30a3ec247d646a253cf940da8e3957fb[ALL] 0202ed2cfc77dc97bb07ad2612f3c0193812cd652c342727c7a0be2cf406e8f0b9"}, "vout": 8, "txid": "052fbc244527c7d82a43f221feaff45371ba3c0553b420109f6fe16de95211ff"}], "txid": "6cb1b41c43869fde7d204224337d0ba349593185c74e286ded4ba10c3785e7bd", "blocktime": 1537874412, "version": 2, "confirmations": 11466, "time": 1537874412, "locktime": 542997, "vsize": 1553, "size": 1553}