{"hash": "6cb37be7b4ce7ca22df781a41fb86cd9b0376c5395b621a73c60b67d53e00181", "blockhash": "00000000000000000018f53835495a110e01622372bf6ae95dc86f2b0ab887b0", "vout": [{"scriptPubKey": {"type": "nulldata", "hex": "6a146f6d6e69000000000000001f00000028ab24af80", "asm": "OP_RETURN 6f6d6e69000000000000001f00000028ab24af80"}, "value": 0.0, "n": 0}, {"scriptPubKey": {"reqSigs": 1, "hex": "76a914a25dec4d0011064ef106a983c39c7a540699f22088ac", "addresses": ["1FoWyxwPXuj4C6abqwhjDWdz6D4PZgYRjA"], "asm": "OP_DUP OP_HASH160 a25dec4d0011064ef106a983c39c7a540699f220 OP_EQUALVERIFY OP_CHECKSIG", "type": "pubkeyhash"}, "value": 0.01995188, "n": 1}, {"scriptPubKey": {"reqSigs": 1, "hex": "76a91437c26ded204ed9c81065cf120d2ac0fa1f1feb1088ac", "addresses": ["165q5k3hok4bBDBFx8dh8848JyCXgwQBJD"], "asm": "OP_DUP OP_HASH160 37c26ded204ed9c81065cf120d2ac0fa1f1feb10 OP_EQUALVERIFY OP_CHECKSIG", "type": "pubkeyhash"}, "value": 5.46e-06, "n": 2}], "hex": "0100000001a44813c76173a4fe9689194c29809e35be05f1741d9b5e1e9e8bd44070ac1fea6a0000006b483045022100b650b37849cc58e647d15ecd50f92c2aae0e97fb4d5c38f2d7b58cd70924957402206ceb914d44192b324cdf63f5b2d2b47be75a122a0448a2bc08d3ead9121676c5012103da5bac7b36d5aa38f531c6b9601e21bb598a4b6716ebed38b009a55dabde9440feffffff030000000000000000166a146f6d6e69000000000000001f00000028ab24af80b4711e00000000001976a914a25dec4d0011064ef106a983c39c7a540699f22088ac22020000000000001976a91437c26ded204ed9c81065cf120d2ac0fa1f1feb1088ac0e490800", "vin": [{"sequence": 4294967294, "scriptSig": {"hex": "483045022100b650b37849cc58e647d15ecd50f92c2aae0e97fb4d5c38f2d7b58cd70924957402206ceb914d44192b324cdf63f5b2d2b47be75a122a0448a2bc08d3ead9121676c5012103da5bac7b36d5aa38f531c6b9601e21bb598a4b6716ebed38b009a55dabde9440", "asm": "3045022100b650b37849cc58e647d15ecd50f92c2aae0e97fb4d5c38f2d7b58cd70924957402206ceb914d44192b324cdf63f5b2d2b47be75a122a0448a2bc08d3ead9121676c5[ALL] 03da5bac7b36d5aa38f531c6b9601e21bb598a4b6716ebed38b009a55dabde9440"}, "vout": 106, "txid": "ea1fac7040d48b9e1e5e9b1d74f105be359e80294c198996fea47361c71348a4"}], "txid": "6cb37be7b4ce7ca22df781a41fb86cd9b0376c5395b621a73c60b67d53e00181", "blocktime": 1537870928, "version": 1, "confirmations": 11512, "time": 1537870928, "locktime": 542990, "vsize": 257, "size": 257}