{"hash": "6cbb2f09a5ad5f2fbef2b0468bbdf30b9353939e174e8a7e5f435c7eaf6ac6c3", "blockhash": "0000000000000000001e0dab787dd257d1dbfcb92a98c2207d5e1078be1f4165", "vout": [{"scriptPubKey": {"reqSigs": 1, "hex": "76a91437b9dea5c713ecc8d3ab7c36dbd4e524f31a8da588ac", "addresses": ["165eq1HtYgA1cV3uvmEdDC6G2fQbXQCj6C"], "asm": "OP_DUP OP_HASH160 37b9dea5c713ecc8d3ab7c36dbd4e524f31a8da5 OP_EQUALVERIFY OP_CHECKSIG", "type": "pubkeyhash"}, "value": 0.04047966, "n": 0}], "hex": "0100000001c60270b9099799582b600537a00c2df3004ce889caa86a3e7f4e8e6be3239e73000000006b483045022100b9fd4a5320f65b19ae249d7b0c15400a85b0d759ef0c3a42a3e69946254a61520220265a70a5444da1d860b40c44f107b304ff0b30f88f8c0774551c7052b25d5c7a0121027bbc1d3aca54ddc057d670ab5957fb7b12cf2402e3565a54fada3c92c6a33692ffffffff015ec43d00000000001976a91437b9dea5c713ecc8d3ab7c36dbd4e524f31a8da588ac00000000", "vin": [{"sequence": 4294967295, "scriptSig": {"hex": "483045022100b9fd4a5320f65b19ae249d7b0c15400a85b0d759ef0c3a42a3e69946254a61520220265a70a5444da1d860b40c44f107b304ff0b30f88f8c0774551c7052b25d5c7a0121027bbc1d3aca54ddc057d670ab5957fb7b12cf2402e3565a54fada3c92c6a33692", "asm": "3045022100b9fd4a5320f65b19ae249d7b0c15400a85b0d759ef0c3a42a3e69946254a61520220265a70a5444da1d860b40c44f107b304ff0b30f88f8c0774551c7052b25d5c7a[ALL] 027bbc1d3aca54ddc057d670ab5957fb7b12cf2402e3565a54fada3c92c6a33692"}, "vout": 0, "txid": "739e23e36b8e4e7f3e6aa8ca89e84c00f32d0ca03705602b58999709b97002c6"}], "txid": "6cbb2f09a5ad5f2fbef2b0468bbdf30b9353939e174e8a7e5f435c7eaf6ac6c3", "blocktime": 1537872475, "version": 1, "confirmations": 11486, "time": 1537872475, "locktime": 0, "vsize": 192, "size": 192}