{"hash": "6cbd62b9fda1321fdbcdb0abc98a4b92893e15f9ed15f00fd209bcbf882308aa", "blockhash": "0000000000000000001e0dab787dd257d1dbfcb92a98c2207d5e1078be1f4165", "vout": [{"scriptPubKey": {"reqSigs": 1, "hex": "76a914e740c65fdf275ef446683c95d906f3f47356408a88ac", "addresses": ["1N5kgxCt1z23oJfQCofB38mVP3vFqff6oZ"], "asm": "OP_DUP OP_HASH160 e740c65fdf275ef446683c95d906f3f47356408a OP_EQUALVERIFY OP_CHECKSIG", "type": "pubkeyhash"}, "value": 0.00109361, "n": 0}, {"scriptPubKey": {"reqSigs": 1, "hex": "76a9143e85016fce54def55be031e39a6100fc4c03d3ca88ac", "addresses": ["16haEHZDdcGCLL7zjKEB7bDe8hqi5ck6ps"], "asm": "OP_DUP OP_HASH160 3e85016fce54def55be031e39a6100fc4c03d3ca OP_EQUALVERIFY OP_CHECKSIG", "type": "pubkeyhash"}, "value": 0.00109961, "n": 1}], "hex": "01000000017f803f7e022f5381cb54a48f56fb174bb943e9639b68b1fe02838007b741ee9eb10300006b4830450221009cc295c64f1cc863064750dc317f5b01bf5f02b6527928921435d9bc80b348040220563a4e56219bc9e2e687e71873f540338430076de12bf2cfd10121c4ba97c6910121020dead022ff3fb60a0cc988fd0297d13d38f8c3b4be364dca1637adfc368642f1ffffffff0231ab0100000000001976a914e740c65fdf275ef446683c95d906f3f47356408a88ac89ad0100000000001976a9143e85016fce54def55be031e39a6100fc4c03d3ca88ac00000000", "vin": [{"sequence": 4294967295, "scriptSig": {"hex": "4830450221009cc295c64f1cc863064750dc317f5b01bf5f02b6527928921435d9bc80b348040220563a4e56219bc9e2e687e71873f540338430076de12bf2cfd10121c4ba97c6910121020dead022ff3fb60a0cc988fd0297d13d38f8c3b4be364dca1637adfc368642f1", "asm": "30450221009cc295c64f1cc863064750dc317f5b01bf5f02b6527928921435d9bc80b348040220563a4e56219bc9e2e687e71873f540338430076de12bf2cfd10121c4ba97c691[ALL] 020dead022ff3fb60a0cc988fd0297d13d38f8c3b4be364dca1637adfc368642f1"}, "vout": 945, "txid": "9eee41b707808302feb1689b63e943b94b17fb568fa454cb81532f027e3f807f"}], "txid": "6cbd62b9fda1321fdbcdb0abc98a4b92893e15f9ed15f00fd209bcbf882308aa", "blocktime": 1537872475, "version": 1, "confirmations": 11487, "time": 1537872475, "locktime": 0, "vsize": 226, "size": 226}