{"hash": "6cc3a7d713a5d2ee9e6e07fa351b3adced557ae603f64935c050fda4b7c8d982", "blockhash": "0000000000000000001e0dab787dd257d1dbfcb92a98c2207d5e1078be1f4165", "vout": [{"scriptPubKey": {"reqSigs": 1, "hex": "76a914ff461a91157a1969e490ff31aa48211f4333a65588ac", "addresses": ["1QGmHp8LoeRGskGw5p38xD861cNURA997v"], "asm": "OP_DUP OP_HASH160 ff461a91157a1969e490ff31aa48211f4333a655 OP_EQUALVERIFY OP_CHECKSIG", "type": "pubkeyhash"}, "value": 0.00133498, "n": 0}, {"scriptPubKey": {"reqSigs": 1, "hex": "a914f2d9daa917328bc5a4725ec353eb8ca2955c755e87", "addresses": ["3Pq6RjkajNWzLEMEyohoCkR3M6nEFynSzE"], "asm": "OP_HASH160 f2d9daa917328bc5a4725ec353eb8ca2955c755e OP_EQUAL", "type": "scripthash"}, "value": 0.07827856, "n": 1}], "hex": "0100000002737f91100086b2afc9a2f051d08fb9b90f2466fb84ea125fcca693d644b77235010000006b483045022100a5ce21d7d9aa876054ec825be7eaa9c2b927ef00c2904d3a2ac553b121db690a022070424bef4798132970ee3643889763bd7126141d76d4926a9fa7c867c85afb66012102289131d178ea0dd678bdbd0e71b12b0fa6019888774bc1d0d3b71e69e4db80c6ffffffffae81149025d30437f7c32977864500318d3b598062758a558ed0d3ad2d027698010000006a473044022055f177c5b1537ec1ad94ec03ce6424544699a58a3829c9f5dd2a76c97fc505f402201b6addccf328da4ea53fb6924ade9054405f787d644d35c308f4cd2162ae9fdc0121027c09f4fa463919b2fdd2133a875b4d74143d10c2fb682fdd6255e9ff78b43601ffffffff027a090200000000001976a914ff461a91157a1969e490ff31aa48211f4333a65588ac907177000000000017a914f2d9daa917328bc5a4725ec353eb8ca2955c755e8700000000", "vin": [{"sequence": 4294967295, "scriptSig": {"hex": "483045022100a5ce21d7d9aa876054ec825be7eaa9c2b927ef00c2904d3a2ac553b121db690a022070424bef4798132970ee3643889763bd7126141d76d4926a9fa7c867c85afb66012102289131d178ea0dd678bdbd0e71b12b0fa6019888774bc1d0d3b71e69e4db80c6", "asm": "3045022100a5ce21d7d9aa876054ec825be7eaa9c2b927ef00c2904d3a2ac553b121db690a022070424bef4798132970ee3643889763bd7126141d76d4926a9fa7c867c85afb66[ALL] 02289131d178ea0dd678bdbd0e71b12b0fa6019888774bc1d0d3b71e69e4db80c6"}, "vout": 1, "txid": "3572b744d693a6cc5f12ea84fb66240fb9b98fd051f0a2c9afb2860010917f73"}, {"sequence": 4294967295, "scriptSig": {"hex": "473044022055f177c5b1537ec1ad94ec03ce6424544699a58a3829c9f5dd2a76c97fc505f402201b6addccf328da4ea53fb6924ade9054405f787d644d35c308f4cd2162ae9fdc0121027c09f4fa463919b2fdd2133a875b4d74143d10c2fb682fdd6255e9ff78b43601", "asm": "3044022055f177c5b1537ec1ad94ec03ce6424544699a58a3829c9f5dd2a76c97fc505f402201b6addccf328da4ea53fb6924ade9054405f787d644d35c308f4cd2162ae9fdc[ALL] 027c09f4fa463919b2fdd2133a875b4d74143d10c2fb682fdd6255e9ff78b43601"}, "vout": 1, "txid": "9876022dadd3d08e558a756280593b8d310045867729c3f73704d325901481ae"}], "txid": "6cc3a7d713a5d2ee9e6e07fa351b3adced557ae603f64935c050fda4b7c8d982", "blocktime": 1537872475, "version": 1, "confirmations": 11486, "time": 1537872475, "locktime": 0, "vsize": 371, "size": 371}