{"hash": "6cc69474140bd57527131b2c0a6a550ca3b71db14d0633b620b6c0dc8e83453c", "blockhash": "0000000000000000000dcc0f55137456b1a82d3642486a52398922ac4d620174", "vout": [{"scriptPubKey": {"reqSigs": 1, "hex": "a9148d378acc0fa3097c1686d9d56690fbaa74f4b4dc87", "addresses": ["3EZhjjHeMqtdcyo74PG8wuB5vJAVnXN1LU"], "asm": "OP_HASH160 8d378acc0fa3097c1686d9d56690fbaa74f4b4dc OP_EQUAL", "type": "scripthash"}, "value": 0.00562891, "n": 0}], "hex": "0100000002e5267f112a1c0d2bd81256a30fcc603e4df95e2cd9bfe696f4f7428612261271000000006b483045022100f0bbc43dd73bf03e86b08a97f80e778e9df8970324e14d978b906998de2911850220475ecd7f6982af1aea10c6d748b0111fe3e785a1333ee34f9f095c1f9ddafe00012102900ebd97325c2d112f4a2a86c37ef1e6a3fd09fe0c7d5dcb7ff3db6a3c652a31fffffffff5094b3e6b52c30f4c7ef974b98d776c2fae5d3601699485360ed16f50d1b499000000006a473044022066f77447b3340f7fd99d806345df014240a606a170827a5013810a893706454f02202ec6974538b004e4f7d9b3f9d7f107eb36a0bf438edc0ebe3ced1443d15c05bb012102a012a0ef874b155c1fcdf9404ef53fbaddaee9660558ff5d059a84f3d58e19daffffffff01cb9608000000000017a9148d378acc0fa3097c1686d9d56690fbaa74f4b4dc8700000000", "vin": [{"sequence": 4294967295, "scriptSig": {"hex": "483045022100f0bbc43dd73bf03e86b08a97f80e778e9df8970324e14d978b906998de2911850220475ecd7f6982af1aea10c6d748b0111fe3e785a1333ee34f9f095c1f9ddafe00012102900ebd97325c2d112f4a2a86c37ef1e6a3fd09fe0c7d5dcb7ff3db6a3c652a31", "asm": "3045022100f0bbc43dd73bf03e86b08a97f80e778e9df8970324e14d978b906998de2911850220475ecd7f6982af1aea10c6d748b0111fe3e785a1333ee34f9f095c1f9ddafe00[ALL] 02900ebd97325c2d112f4a2a86c37ef1e6a3fd09fe0c7d5dcb7ff3db6a3c652a31"}, "vout": 0, "txid": "711226128642f7f496e6bfd92c5ef94d3e60cc0fa35612d82b0d1c2a117f26e5"}, {"sequence": 4294967295, "scriptSig": {"hex": "473044022066f77447b3340f7fd99d806345df014240a606a170827a5013810a893706454f02202ec6974538b004e4f7d9b3f9d7f107eb36a0bf438edc0ebe3ced1443d15c05bb012102a012a0ef874b155c1fcdf9404ef53fbaddaee9660558ff5d059a84f3d58e19da", "asm": "3044022066f77447b3340f7fd99d806345df014240a606a170827a5013810a893706454f02202ec6974538b004e4f7d9b3f9d7f107eb36a0bf438edc0ebe3ced1443d15c05bb[ALL] 02a012a0ef874b155c1fcdf9404ef53fbaddaee9660558ff5d059a84f3d58e19da"}, "vout": 0, "txid": "99b4d1506fd10e3685946901365dae2f6c778db974f97e4c0fc3526b3e4b09f5"}], "txid": "6cc69474140bd57527131b2c0a6a550ca3b71db14d0633b620b6c0dc8e83453c", "blocktime": 1537870268, "version": 1, "confirmations": 11518, "time": 1537870268, "locktime": 0, "vsize": 337, "size": 337}