{"hash": "6cd7df45ca5ee2a22ece48f7761bcb8d046e3cae9bd421baed265d1a4dfb1193", "blockhash": "0000000000000000000baef3f32e3676a92c3b2e5da21b426e4f302fc371ce76", "vout": [{"scriptPubKey": {"type": "nulldata", "hex": "6a4c500000783400010a53450cfc10e8d6c32ccfec27b7256b4774d339f6019d6ddc0f1b8ff11780309731b4121d73dcd1c4c53523ba425baa1f680614324c36cb570ebc9a9526289ac0f6612cd74e33776ee4", "asm": "OP_RETURN 0000783400010a53450cfc10e8d6c32ccfec27b7256b4774d339f6019d6ddc0f1b8ff11780309731b4121d73dcd1c4c53523ba425baa1f680614324c36cb570ebc9a9526289ac0f6612cd74e33776ee4"}, "value": 0.0, "n": 0}, {"scriptPubKey": {"reqSigs": 1, "hex": "76a91407b8d35e30ba7bd4395330042c4df7ceca0c9ceb88ac", "addresses": ["1hq9FmDkHomayf9B7BgdkRKaHHsABdNoi"], "asm": "OP_DUP OP_HASH160 07b8d35e30ba7bd4395330042c4df7ceca0c9ceb OP_EQUALVERIFY OP_CHECKSIG", "type": "pubkeyhash"}, "value": 0.000391, "n": 1}], "hex": "0100000001a996e35611ca363b14e9c107d9e5d07c58de72024672978ea407c65d1f89891b010000006b483045022100a359ef1b4291a1b3ffcce9bb88b7787fffc66a8631cabafa0b817d36074550f302201e63ca9ec347b3f06bb853778cd86935e7f320be066ab86f51f9d128a1a8b68a012103f31df6d9f72181b02e2022a2270f2b8210f195fe47a198900cd68bc9daff1232ffffffff020000000000000000536a4c500000783400010a53450cfc10e8d6c32ccfec27b7256b4774d339f6019d6ddc0f1b8ff11780309731b4121d73dcd1c4c53523ba425baa1f680614324c36cb570ebc9a9526289ac0f6612cd74e33776ee4bc980000000000001976a91407b8d35e30ba7bd4395330042c4df7ceca0c9ceb88ac00000000", "vin": [{"sequence": 4294967295, "scriptSig": {"hex": "483045022100a359ef1b4291a1b3ffcce9bb88b7787fffc66a8631cabafa0b817d36074550f302201e63ca9ec347b3f06bb853778cd86935e7f320be066ab86f51f9d128a1a8b68a012103f31df6d9f72181b02e2022a2270f2b8210f195fe47a198900cd68bc9daff1232", "asm": "3045022100a359ef1b4291a1b3ffcce9bb88b7787fffc66a8631cabafa0b817d36074550f302201e63ca9ec347b3f06bb853778cd86935e7f320be066ab86f51f9d128a1a8b68a[ALL] 03f31df6d9f72181b02e2022a2270f2b8210f195fe47a198900cd68bc9daff1232"}, "vout": 1, "txid": "1b89891f5dc607a48e9772460272de587cd0e5d907c1e9143b36ca1156e396a9"}], "txid": "6cd7df45ca5ee2a22ece48f7761bcb8d046e3cae9bd421baed265d1a4dfb1193", "blocktime": 1537876114, "version": 1, "confirmations": 11462, "time": 1537876114, "locktime": 0, "vsize": 284, "size": 284}