{"hash": "6cda55f1f4f43337d3e99b6cd82d3fed40b959ee70ca6beaea08f1288411434c", "blockhash": "00000000000000000018f53835495a110e01622372bf6ae95dc86f2b0ab887b0", "vout": [{"scriptPubKey": {"reqSigs": 1, "hex": "a9146d89538d0412a5a9b52759a3ef5c19400997044987", "addresses": ["3BgC64FDRQrsKrDL71rothNxWzP8qh7Vwp"], "asm": "OP_HASH160 6d89538d0412a5a9b52759a3ef5c194009970449 OP_EQUAL", "type": "scripthash"}, "value": 0.0198005, "n": 0}], "hex": "01000000013f57b18a2da4b5bd9151d9d420984ce8c38691b55126d2b2a572bdd46be50c84000000006a473044022034b06f7e9fbe7720cdad8a968983aa0bf6e5ec1d72bf2bc0769b1f11c6d2e7b80220505d677429e6b671f7a17771a1cd0242682364105679ad09731776369cee6f29012103f333ea208a4d8023bf4361402e6fbb29ba1656c830b3334d1d8b652450d9a8c1ffffffff0192361e000000000017a9146d89538d0412a5a9b52759a3ef5c1940099704498700000000", "vin": [{"sequence": 4294967295, "scriptSig": {"hex": "473044022034b06f7e9fbe7720cdad8a968983aa0bf6e5ec1d72bf2bc0769b1f11c6d2e7b80220505d677429e6b671f7a17771a1cd0242682364105679ad09731776369cee6f29012103f333ea208a4d8023bf4361402e6fbb29ba1656c830b3334d1d8b652450d9a8c1", "asm": "3044022034b06f7e9fbe7720cdad8a968983aa0bf6e5ec1d72bf2bc0769b1f11c6d2e7b80220505d677429e6b671f7a17771a1cd0242682364105679ad09731776369cee6f29[ALL] 03f333ea208a4d8023bf4361402e6fbb29ba1656c830b3334d1d8b652450d9a8c1"}, "vout": 0, "txid": "840ce56bd4bd72a5b2d22651b59186c3e84c9820d4d95191bdb5a42d8ab1573f"}], "txid": "6cda55f1f4f43337d3e99b6cd82d3fed40b959ee70ca6beaea08f1288411434c", "blocktime": 1537870928, "version": 1, "confirmations": 11512, "time": 1537870928, "locktime": 0, "vsize": 189, "size": 189}