{"hash": "6cdbf2b39fb767ec2f9c566b42c3e51831cf8c34d90c312a5313cfef508e4ac7", "blockhash": "00000000000000000017f5eb5941039fbcee6240d03bc1f2f8e35350df66a1d8", "vout": [{"scriptPubKey": {"reqSigs": 1, "hex": "76a914eb258e9379aec060b60cdb1ce6e3ace57bbe114788ac", "addresses": ["1NSLnakdMVXN8Zmw1QJFS7yQstDs4VG8sq"], "asm": "OP_DUP OP_HASH160 eb258e9379aec060b60cdb1ce6e3ace57bbe1147 OP_EQUALVERIFY OP_CHECKSIG", "type": "pubkeyhash"}, "value": 6.999996, "n": 0}, {"scriptPubKey": {"reqSigs": 1, "hex": "76a9143c70cdee3e96a73cef3bf7b08a53bd91fdf0c4cf88ac", "addresses": ["16WagJHnmmy9TUawD4ySjgqS2qHzCC1XhX"], "asm": "OP_DUP OP_HASH160 3c70cdee3e96a73cef3bf7b08a53bd91fdf0c4cf OP_EQUALVERIFY OP_CHECKSIG", "type": "pubkeyhash"}, "value": 45.0, "n": 1}], "hex": "0100000002b673eab4febc9ed3c0e1ae9fdb4bd39e874a2000b4b9725a2d764aa53c93e44c000000006a47304402207b0e227ca8c29429fadd6055635be28c71dc0490e2db56bb513c9277bfb15b780220011f16956aa3e03ba50cee78601d0c9dc348e1bbec2d7b023790cc71a484a1f40121028e09adcbc6f37c60300a61f6a6ad4348d56cf0f10c6ece9a3ecc64c1e6410c6afeffffffa8f88d30dc20720439d2fd5494f008e87a5a4efa7d3a0d6606b8bbefb75c11c2010000006b483045022100a696ba58beaafddca5bfd8f8ff9f659b616eef8f96a297e7bfae9a7e3f332f2f0220419a7c484087a90f177cfce8a4596d85be2fc1ad280cdce47b3951403cabc67c0121028e09adcbc6f37c60300a61f6a6ad4348d56cf0f10c6ece9a3ecc64c1e6410c6afeffffff027025b929000000001976a914eb258e9379aec060b60cdb1ce6e3ace57bbe114788ac008d380c010000001976a9143c70cdee3e96a73cef3bf7b08a53bd91fdf0c4cf88ac15490800", "vin": [{"sequence": 4294967294, "scriptSig": {"hex": "47304402207b0e227ca8c29429fadd6055635be28c71dc0490e2db56bb513c9277bfb15b780220011f16956aa3e03ba50cee78601d0c9dc348e1bbec2d7b023790cc71a484a1f40121028e09adcbc6f37c60300a61f6a6ad4348d56cf0f10c6ece9a3ecc64c1e6410c6a", "asm": "304402207b0e227ca8c29429fadd6055635be28c71dc0490e2db56bb513c9277bfb15b780220011f16956aa3e03ba50cee78601d0c9dc348e1bbec2d7b023790cc71a484a1f4[ALL] 028e09adcbc6f37c60300a61f6a6ad4348d56cf0f10c6ece9a3ecc64c1e6410c6a"}, "vout": 0, "txid": "4ce4933ca54a762d5a72b9b400204a879ed34bdb9faee1c0d39ebcfeb4ea73b6"}, {"sequence": 4294967294, "scriptSig": {"hex": "483045022100a696ba58beaafddca5bfd8f8ff9f659b616eef8f96a297e7bfae9a7e3f332f2f0220419a7c484087a90f177cfce8a4596d85be2fc1ad280cdce47b3951403cabc67c0121028e09adcbc6f37c60300a61f6a6ad4348d56cf0f10c6ece9a3ecc64c1e6410c6a", "asm": "3045022100a696ba58beaafddca5bfd8f8ff9f659b616eef8f96a297e7bfae9a7e3f332f2f0220419a7c484087a90f177cfce8a4596d85be2fc1ad280cdce47b3951403cabc67c[ALL] 028e09adcbc6f37c60300a61f6a6ad4348d56cf0f10c6ece9a3ecc64c1e6410c6a"}, "vout": 1, "txid": "c2115cb7efbbb806660d3a7dfa4e5a7ae808f09454fdd239047220dc308df8a8"}], "txid": "6cdbf2b39fb767ec2f9c566b42c3e51831cf8c34d90c312a5313cfef508e4ac7", "blocktime": 1537874412, "version": 1, "confirmations": 11467, "time": 1537874412, "locktime": 542997, "vsize": 373, "size": 373}