{"hash": "6cdbd8e377c533300d0259ce5c6dd09570611fd394b8cf6dc2ef9aeef7a4c7db", "blockhash": "0000000000000000001f76057863aec43deb6fa401d9628bb513d65a8098bfab", "vout": [{"scriptPubKey": {"reqSigs": 1, "hex": "76a91415ac3392e86c940bbae9d6016909f374f308defb88ac", "addresses": ["12ybUo9cPXQTQDEuUzuEMt2773diTPzkFo"], "asm": "OP_DUP OP_HASH160 15ac3392e86c940bbae9d6016909f374f308defb OP_EQUALVERIFY OP_CHECKSIG", "type": "pubkeyhash"}, "value": 0.0078035, "n": 0}, {"scriptPubKey": {"reqSigs": 1, "hex": "76a914fdb7d39877016612c5cae0d47eca597747c598ce88ac", "addresses": ["1Q8YB2UMPiCdUtiURZG7ihK7EZeYGSYMUp"], "asm": "OP_DUP OP_HASH160 fdb7d39877016612c5cae0d47eca597747c598ce OP_EQUALVERIFY OP_CHECKSIG", "type": "pubkeyhash"}, "value": 0.02233957, "n": 1}], "hex": "01000000019a37ea0aadd5525925a73a5314dae77df94c0ab20155e3f66f86a83f87fa76f7010000006a4730440220337aad30da89f39c628d5f32e794d8edbda26b244161a754c3f9ad5ae0de125202205b290874f30929fbb0c86d3570ddb71c0ba3e632384a3414576a224ccdacc24a0121039f675dae66e8ec5279bbf1ed69429489ac2f89c5fea1cf92c3480b9578394b12ffffffff023ee80b00000000001976a91415ac3392e86c940bbae9d6016909f374f308defb88ac65162200000000001976a914fdb7d39877016612c5cae0d47eca597747c598ce88ac00000000", "vin": [{"sequence": 4294967295, "scriptSig": {"hex": "4730440220337aad30da89f39c628d5f32e794d8edbda26b244161a754c3f9ad5ae0de125202205b290874f30929fbb0c86d3570ddb71c0ba3e632384a3414576a224ccdacc24a0121039f675dae66e8ec5279bbf1ed69429489ac2f89c5fea1cf92c3480b9578394b12", "asm": "30440220337aad30da89f39c628d5f32e794d8edbda26b244161a754c3f9ad5ae0de125202205b290874f30929fbb0c86d3570ddb71c0ba3e632384a3414576a224ccdacc24a[ALL] 039f675dae66e8ec5279bbf1ed69429489ac2f89c5fea1cf92c3480b9578394b12"}, "vout": 1, "txid": "f776fa873fa8866ff6e35501b20a4cf97de7da14533aa7255952d5ad0aea379a"}], "txid": "6cdbd8e377c533300d0259ce5c6dd09570611fd394b8cf6dc2ef9aeef7a4c7db", "blocktime": 1537873891, "version": 1, "confirmations": 11478, "time": 1537873891, "locktime": 0, "vsize": 225, "size": 225}