{"hash": "6ce184c346cdb7dedb3829a20fe9c76a729f84411f2c38f49f1df33b8395e451", "blockhash": "0000000000000000000baef3f32e3676a92c3b2e5da21b426e4f302fc371ce76", "vout": [{"scriptPubKey": {"reqSigs": 1, "hex": "a914283728b99db6e04f32f760507507655fba6d53ee87", "addresses": ["35Mf2jiBPwQjZHuhJhR1wjyM6xx3YMFR3d"], "asm": "OP_HASH160 283728b99db6e04f32f760507507655fba6d53ee OP_EQUAL", "type": "scripthash"}, "value": 0.05, "n": 0}, {"scriptPubKey": {"reqSigs": 1, "hex": "76a9148edcbe591ccf444c2caddfda814c20d88d4acd8888ac", "addresses": ["1E2PPmgrSpRkdp8MuG8zx57wyEHgno8pZJ"], "asm": "OP_DUP OP_HASH160 8edcbe591ccf444c2caddfda814c20d88d4acd88 OP_EQUALVERIFY OP_CHECKSIG", "type": "pubkeyhash"}, "value": 0.0734872, "n": 1}], "hex": "010000000136becf4accae41ccfff901b070c54be790356907fd2f153adb10dc84a6a359df110000008a4730440220161b9a9801789a4df62ede93a62c35fab9a5652f770f4656c01a6cd507eff1d702203863e68d8cd2a6eaf8b4e38dc208ee8f9ab9f38ff1b59f02cdf9bb8f29ee59ca01410471482cdd93f0abfbe549a8f834fa24fa96606d460f24f547d744896e931955291ddb14ac11abb6c80d42618a0775658faf76a4f656359505c942a9b11e97a250fdffffff02404b4c000000000017a914283728b99db6e04f32f760507507655fba6d53ee87f0217000000000001976a9148edcbe591ccf444c2caddfda814c20d88d4acd8888ac16490800", "vin": [{"sequence": 4294967293, "scriptSig": {"hex": "4730440220161b9a9801789a4df62ede93a62c35fab9a5652f770f4656c01a6cd507eff1d702203863e68d8cd2a6eaf8b4e38dc208ee8f9ab9f38ff1b59f02cdf9bb8f29ee59ca01410471482cdd93f0abfbe549a8f834fa24fa96606d460f24f547d744896e931955291ddb14ac11abb6c80d42618a0775658faf76a4f656359505c942a9b11e97a250", "asm": "30440220161b9a9801789a4df62ede93a62c35fab9a5652f770f4656c01a6cd507eff1d702203863e68d8cd2a6eaf8b4e38dc208ee8f9ab9f38ff1b59f02cdf9bb8f29ee59ca[ALL] 0471482cdd93f0abfbe549a8f834fa24fa96606d460f24f547d744896e931955291ddb14ac11abb6c80d42618a0775658faf76a4f656359505c942a9b11e97a250"}, "vout": 17, "txid": "df59a3a684dc10db3a152ffd07693590e74bc570b001f9ffcc41aecc4acfbe36"}], "txid": "6ce184c346cdb7dedb3829a20fe9c76a729f84411f2c38f49f1df33b8395e451", "blocktime": 1537876114, "version": 1, "confirmations": 11460, "time": 1537876114, "locktime": 542998, "vsize": 255, "size": 255}