{"hash": "6ce203099ec382acda02c035614c70fbd56f796662957f4c9702bdbb34d0bf27", "blockhash": "0000000000000000000e13cef7c366c0283d82e591d1acd082e914b08063cdf1", "vout": [{"scriptPubKey": {"reqSigs": 1, "hex": "76a9145e5745f11feb295e50359e54e35e102476fd43a188ac", "addresses": ["19bq4t6o5YwmffgHHhPoTmtUCHyaYDmF7D"], "asm": "OP_DUP OP_HASH160 5e5745f11feb295e50359e54e35e102476fd43a1 OP_EQUALVERIFY OP_CHECKSIG", "type": "pubkeyhash"}, "value": 6.913e-05, "n": 0}, {"scriptPubKey": {"reqSigs": 1, "hex": "76a914b7ea8d4197284e2d671a96dca034b372b9eaf94c88ac", "addresses": ["1HmTe3p84KX4y3rybUZWmJreQ9SgcY1v5X"], "asm": "OP_DUP OP_HASH160 b7ea8d4197284e2d671a96dca034b372b9eaf94c OP_EQUALVERIFY OP_CHECKSIG", "type": "pubkeyhash"}, "value": 0.04065454, "n": 1}], "hex": "01000000027ce74f5aa10a73fbaf7951dac1045cb71d95170d49f25df8f9178888566a9409000000006b483045022100943734b97904732b6f2c6b0bc9adedc532cfc3bc5f088c3cfb7a799cd51bb286022068e5b29421e1b6cd5ab16715808d3c8c575ff5f2a8af2a8c6263533e6d5454a1012102c9790d0a64c399a21b8fe06c64c886c7b4b8ec53c9dbd5554d8bff49bd891d8cffffffffee70be8e10d12d0742b4e40aa42296643a338c62b7e1e01e128b05d9183f6984230000006a4730440220338cc513f4a33c631f501129e2de2498a63c0549868e7f38dc9b317542ae0a340220708d5782ac426c55744d9f34a42449a0607b8abe1fae4e46c67310b9b9cd377e012102da6205a9bd25bb27581d36bce1ceb510d37b3efdcff0e278d58d9f1a6d99c0a8ffffffff02011b0000000000001976a9145e5745f11feb295e50359e54e35e102476fd43a188acae083e00000000001976a914b7ea8d4197284e2d671a96dca034b372b9eaf94c88ac00000000", "vin": [{"sequence": 4294967295, "scriptSig": {"hex": "483045022100943734b97904732b6f2c6b0bc9adedc532cfc3bc5f088c3cfb7a799cd51bb286022068e5b29421e1b6cd5ab16715808d3c8c575ff5f2a8af2a8c6263533e6d5454a1012102c9790d0a64c399a21b8fe06c64c886c7b4b8ec53c9dbd5554d8bff49bd891d8c", "asm": "3045022100943734b97904732b6f2c6b0bc9adedc532cfc3bc5f088c3cfb7a799cd51bb286022068e5b29421e1b6cd5ab16715808d3c8c575ff5f2a8af2a8c6263533e6d5454a1[ALL] 02c9790d0a64c399a21b8fe06c64c886c7b4b8ec53c9dbd5554d8bff49bd891d8c"}, "vout": 0, "txid": "09946a56888817f9f85df2490d17951db75c04c1da5179affb730aa15a4fe77c"}, {"sequence": 4294967295, "scriptSig": {"hex": "4730440220338cc513f4a33c631f501129e2de2498a63c0549868e7f38dc9b317542ae0a340220708d5782ac426c55744d9f34a42449a0607b8abe1fae4e46c67310b9b9cd377e012102da6205a9bd25bb27581d36bce1ceb510d37b3efdcff0e278d58d9f1a6d99c0a8", "asm": "30440220338cc513f4a33c631f501129e2de2498a63c0549868e7f38dc9b317542ae0a340220708d5782ac426c55744d9f34a42449a0607b8abe1fae4e46c67310b9b9cd377e[ALL] 02da6205a9bd25bb27581d36bce1ceb510d37b3efdcff0e278d58d9f1a6d99c0a8"}, "vout": 35, "txid": "84693f18d9058b121ee0e1b7628c333a649622a40ae4b442072dd1108ebe70ee"}], "txid": "6ce203099ec382acda02c035614c70fbd56f796662957f4c9702bdbb34d0bf27", "blocktime": 1537871767, "version": 1, "confirmations": 11495, "time": 1537871767, "locktime": 0, "vsize": 373, "size": 373}