{"hash": "6ce377b84e59beead6fde992a576c54d38afaeaf18ad4782761bd897141a1046", "blockhash": "0000000000000000001e0dab787dd257d1dbfcb92a98c2207d5e1078be1f4165", "vout": [{"scriptPubKey": {"reqSigs": 1, "hex": "76a914a422d3a1b9cc6c3cb081a4a396032e83254d08fe88ac", "addresses": ["1FxsYG8Ht68PeMC8ZfRhz1sN1zu4ubqH4Q"], "asm": "OP_DUP OP_HASH160 a422d3a1b9cc6c3cb081a4a396032e83254d08fe OP_EQUALVERIFY OP_CHECKSIG", "type": "pubkeyhash"}, "value": 0.04523521, "n": 0}, {"scriptPubKey": {"reqSigs": 1, "hex": "76a91489a5f06573eee22c4893b0b90230322e1af5438488ac", "addresses": ["1DYpMvpdzQ8yns6Cyz7SCVgUNvrxZHssqb"], "asm": "OP_DUP OP_HASH160 89a5f06573eee22c4893b0b90230322e1af54384 OP_EQUALVERIFY OP_CHECKSIG", "type": "pubkeyhash"}, "value": 0.001562, "n": 1}], "hex": "010000000199a2b18fd60dc1eefdcfe81da6df70fc088025a96e6348c0b0d13a10ccde9920010000006a473044022070ec569b376a70007f7ed4727c06ebab1860ec2ca4415e16a6168da6ff094d8b022050dafe0e3be90fe4385caa1359dc43975eb7cd2ea00b38dcb441638b67b41422012102f960449010233ecebb1f599c5a0946833eeb85c36871dcafc52501f959cefb7cffffffff0201064500000000001976a914a422d3a1b9cc6c3cb081a4a396032e83254d08fe88ac28620200000000001976a91489a5f06573eee22c4893b0b90230322e1af5438488ac00000000", "vin": [{"sequence": 4294967295, "scriptSig": {"hex": "473044022070ec569b376a70007f7ed4727c06ebab1860ec2ca4415e16a6168da6ff094d8b022050dafe0e3be90fe4385caa1359dc43975eb7cd2ea00b38dcb441638b67b41422012102f960449010233ecebb1f599c5a0946833eeb85c36871dcafc52501f959cefb7c", "asm": "3044022070ec569b376a70007f7ed4727c06ebab1860ec2ca4415e16a6168da6ff094d8b022050dafe0e3be90fe4385caa1359dc43975eb7cd2ea00b38dcb441638b67b41422[ALL] 02f960449010233ecebb1f599c5a0946833eeb85c36871dcafc52501f959cefb7c"}, "vout": 1, "txid": "2099decc103ad1b0c048636ea9258008fc70dfa61de8cffdeec10dd68fb1a299"}], "txid": "6ce377b84e59beead6fde992a576c54d38afaeaf18ad4782761bd897141a1046", "blocktime": 1537872475, "version": 1, "confirmations": 11487, "time": 1537872475, "locktime": 0, "vsize": 225, "size": 225}