{"hash": "6cee591a8d887e870ac844ad6bafbd6858930e04a8c2ba715e43a24bcb7fb855", "blockhash": "0000000000000000001cda96e906b7601b7a6fb1a3b62bca570a9e5d8f4b3de1", "vout": [{"scriptPubKey": {"reqSigs": 1, "hex": "a914a1aa7dcdf2ae3e0c21cfb2487e5d45564bd61e1687", "addresses": ["3GRpxP1QducZprWvyUCGks57TZUzEnm1p4"], "asm": "OP_HASH160 a1aa7dcdf2ae3e0c21cfb2487e5d45564bd61e16 OP_EQUAL", "type": "scripthash"}, "value": 0.036042, "n": 0}], "hex": "0100000001cfa3b36565ea3adf662b71124b1514611cc7e247e9c365b55a76423494a186db010000006b483045022100ae86206c5690ecddd69d6bedef8d6378d9200dbd5d0911f776d6af041205b11b022076fbd7fc597885faf4e9f71bab4634fd227445ad6be3381ce8a165d80971041d0121033fc7cbb0c4c93d71f640e7fea921be3c96d3c8756fde36a7e633e1672451d500ffffffff01e8fe36000000000017a914a1aa7dcdf2ae3e0c21cfb2487e5d45564bd61e168700000000", "vin": [{"sequence": 4294967295, "scriptSig": {"hex": "483045022100ae86206c5690ecddd69d6bedef8d6378d9200dbd5d0911f776d6af041205b11b022076fbd7fc597885faf4e9f71bab4634fd227445ad6be3381ce8a165d80971041d0121033fc7cbb0c4c93d71f640e7fea921be3c96d3c8756fde36a7e633e1672451d500", "asm": "3045022100ae86206c5690ecddd69d6bedef8d6378d9200dbd5d0911f776d6af041205b11b022076fbd7fc597885faf4e9f71bab4634fd227445ad6be3381ce8a165d80971041d[ALL] 033fc7cbb0c4c93d71f640e7fea921be3c96d3c8756fde36a7e633e1672451d500"}, "vout": 1, "txid": "db86a1943442765ab565c3e947e2c71c6114154b12712b66df3aea6565b3a3cf"}], "txid": "6cee591a8d887e870ac844ad6bafbd6858930e04a8c2ba715e43a24bcb7fb855", "blocktime": 1537873282, "version": 1, "confirmations": 11480, "time": 1537873282, "locktime": 0, "vsize": 190, "size": 190}