{"hash": "6cf28a1863b9513b2daa4766bdc52162dfed602c59f11c7075366658232083c3", "blockhash": "0000000000000000001e0dab787dd257d1dbfcb92a98c2207d5e1078be1f4165", "vout": [{"scriptPubKey": {"reqSigs": 1, "hex": "76a914e90c24ec690a887d5ad040e00aaad646242465e688ac", "addresses": ["1NFEzVZv5hvgUzbn7nHwVv9JhMedEA8N9D"], "asm": "OP_DUP OP_HASH160 e90c24ec690a887d5ad040e00aaad646242465e6 OP_EQUALVERIFY OP_CHECKSIG", "type": "pubkeyhash"}, "value": 1.557e-05, "n": 0}, {"scriptPubKey": {"reqSigs": 1, "hex": "a914c55ffd31f85a74b5259705e97c318c489b961f9d87", "addresses": ["3Kge2mcdPdbNYd4XvErQ9tfeUYBVGhhtux"], "asm": "OP_HASH160 c55ffd31f85a74b5259705e97c318c489b961f9d OP_EQUAL", "type": "scripthash"}, "value": 0.00062433, "n": 1}], "hex": "0100000002355700e0fc01d7cc1160b87a358c4443ac42a1b2876e9b59f1cc12c03e301229000000006b483045022100e0a360ecaa45dc4345f52eee7c2dc644e532473f014f66370540d1eb6b5ba0100220254931d397b3013a3cbd5f009712e7c6c9ed648e7b5a034906a0be8f8d55fde9012102e6f8ec875f1d3cc636f3a14369a3ed35a6272cf89541970597f15bd33ce9d623fffffffff320574ac769d75f382cbd6e570f271d2aabeea6d3471a3ebb8581392d0ba630000000006a47304402207352d3288f6f32b1296d43255ffe3390bcee3eb690e43728eaf27b04eb6c175e02202318f5bbee9445fa548425475c48b9a8c83e8a6949246f915a9e0ba31657e56a012102e6f8ec875f1d3cc636f3a14369a3ed35a6272cf89541970597f15bd33ce9d623ffffffff0215060000000000001976a914e90c24ec690a887d5ad040e00aaad646242465e688ace1f300000000000017a914c55ffd31f85a74b5259705e97c318c489b961f9d8700000000", "vin": [{"sequence": 4294967295, "scriptSig": {"hex": "483045022100e0a360ecaa45dc4345f52eee7c2dc644e532473f014f66370540d1eb6b5ba0100220254931d397b3013a3cbd5f009712e7c6c9ed648e7b5a034906a0be8f8d55fde9012102e6f8ec875f1d3cc636f3a14369a3ed35a6272cf89541970597f15bd33ce9d623", "asm": "3045022100e0a360ecaa45dc4345f52eee7c2dc644e532473f014f66370540d1eb6b5ba0100220254931d397b3013a3cbd5f009712e7c6c9ed648e7b5a034906a0be8f8d55fde9[ALL] 02e6f8ec875f1d3cc636f3a14369a3ed35a6272cf89541970597f15bd33ce9d623"}, "vout": 0, "txid": "2912303ec012ccf1599b6e87b2a142ac43448c357ab86011ccd701fce0005735"}, {"sequence": 4294967295, "scriptSig": {"hex": "47304402207352d3288f6f32b1296d43255ffe3390bcee3eb690e43728eaf27b04eb6c175e02202318f5bbee9445fa548425475c48b9a8c83e8a6949246f915a9e0ba31657e56a012102e6f8ec875f1d3cc636f3a14369a3ed35a6272cf89541970597f15bd33ce9d623", "asm": "304402207352d3288f6f32b1296d43255ffe3390bcee3eb690e43728eaf27b04eb6c175e02202318f5bbee9445fa548425475c48b9a8c83e8a6949246f915a9e0ba31657e56a[ALL] 02e6f8ec875f1d3cc636f3a14369a3ed35a6272cf89541970597f15bd33ce9d623"}, "vout": 0, "txid": "30a60b2d398185bb3e1a47d3a6eeab2a1d270f576ebd2c385fd769c74a5720f3"}], "txid": "6cf28a1863b9513b2daa4766bdc52162dfed602c59f11c7075366658232083c3", "blocktime": 1537872475, "version": 1, "confirmations": 11487, "time": 1537872475, "locktime": 0, "vsize": 371, "size": 371}