{"hash": "6cf3f2238313061b260929310746e6f82e719c53802559d4a0ce94e6d4e28038", "blockhash": "0000000000000000000e13cef7c366c0283d82e591d1acd082e914b08063cdf1", "vout": [{"scriptPubKey": {"reqSigs": 1, "hex": "76a914ca8b1e8d242eef411d48cffedd81a7c0b45072ca88ac", "addresses": ["1KTx9vzyZmtBEczG8u6WrsncHikRhyKw8z"], "asm": "OP_DUP OP_HASH160 ca8b1e8d242eef411d48cffedd81a7c0b45072ca OP_EQUALVERIFY OP_CHECKSIG", "type": "pubkeyhash"}, "value": 0.0058428, "n": 0}, {"scriptPubKey": {"reqSigs": 1, "hex": "76a9149ae83d3ade28a4924926908a075f4166793c0eeb88ac", "addresses": ["1F85GoaAvQCJJ9yDNwcofSxTUzDxUQGMhU"], "asm": "OP_DUP OP_HASH160 9ae83d3ade28a4924926908a075f4166793c0eeb OP_EQUALVERIFY OP_CHECKSIG", "type": "pubkeyhash"}, "value": 0.01971757, "n": 1}], "hex": "01000000015d990b2eb69f2a4e070b8a8e90586e2ada547ec504e5d2a62c9d286b503ae344010000006a4730440220426f9383b418e3dfaded827a783907da7a1041e374f5e31552a4140c705f0945022073c4c5626f5b6ed078975fba30f87399d030eed23cb4f6dfbca17bb038b0c6b401210234bd70361dc2d8965bca83c4abc2a1fe2738545b68cb9efb27e3f4f4fe2a7d77ffffffff0258ea0800000000001976a914ca8b1e8d242eef411d48cffedd81a7c0b45072ca88ac2d161e00000000001976a9149ae83d3ade28a4924926908a075f4166793c0eeb88ac00000000", "vin": [{"sequence": 4294967295, "scriptSig": {"hex": "4730440220426f9383b418e3dfaded827a783907da7a1041e374f5e31552a4140c705f0945022073c4c5626f5b6ed078975fba30f87399d030eed23cb4f6dfbca17bb038b0c6b401210234bd70361dc2d8965bca83c4abc2a1fe2738545b68cb9efb27e3f4f4fe2a7d77", "asm": "30440220426f9383b418e3dfaded827a783907da7a1041e374f5e31552a4140c705f0945022073c4c5626f5b6ed078975fba30f87399d030eed23cb4f6dfbca17bb038b0c6b4[ALL] 0234bd70361dc2d8965bca83c4abc2a1fe2738545b68cb9efb27e3f4f4fe2a7d77"}, "vout": 1, "txid": "44e33a506b289d2ca6d2e504c57e54da2a6e58908e8a0b074e2a9fb62e0b995d"}], "txid": "6cf3f2238313061b260929310746e6f82e719c53802559d4a0ce94e6d4e28038", "blocktime": 1537871767, "version": 1, "confirmations": 11493, "time": 1537871767, "locktime": 0, "vsize": 225, "size": 225}