{"hash": "6a10dd61416a9b5b81cb4f9cff0db83ebed25417e9ea7fc9bcc83c0df8c7ca1e", "blockhash": "00000000000000000024a2167bbff67b0be802c0b01cdd79e6331c2be6459f87", "vout": [{"scriptPubKey": {"reqSigs": 1, "hex": "76a914a0b6f8dd7cafb17b603aa10d17f98b724e02d1df88ac", "addresses": ["1FenJpXA7qP2ZeHfVSAQeUsBcqFziz45iP"], "asm": "OP_DUP OP_HASH160 a0b6f8dd7cafb17b603aa10d17f98b724e02d1df OP_EQUALVERIFY OP_CHECKSIG", "type": "pubkeyhash"}, "value": 0.03563, "n": 0}, {"scriptPubKey": {"reqSigs": 1, "hex": "a914627aa52932456d89054bd84f86246af3b71b93a887", "addresses": ["3Afj4stdiLG9EktGrMbm252ySonnhYaz8v"], "asm": "OP_HASH160 627aa52932456d89054bd84f86246af3b71b93a8 OP_EQUAL", "type": "scripthash"}, "value": 0.46550543, "n": 1}], "hex": "010000000001013abdd52859f00b81089fac3a3497ec4e568c038535471eb0d239ae8b13ee6a6001000000232200205fdd641234b13964b223bd85ad2a4a667ca2099df3d42a1d3b45706a8d81abf0ffffffff02f85d3600000000001976a914a0b6f8dd7cafb17b603aa10d17f98b724e02d1df88ac0f4ec6020000000017a914627aa52932456d89054bd84f86246af3b71b93a887040047304402202a40a8450cbce5e63a66dd5754576aa835cf14c09bdd30cb2a3787a946bf647a02207b1be3c6a9252f117c7c030541380a4faef43b63604b62d3be6c43b5690629dd01483045022100e7b3676bb919024b83dea24d87588288a8bdb3a9c5b709e3f79ecf7dfc7d6d9e02200739941f6d2d921523a1bb8b18a3b8a538162f79ea76d1141e78557ece82c9160147522103dcde3832fa56def7b4e783faad1b8af85c3cdd74a5ff4f3c7c216b1075c18da12103c70ae8ded79be1afda73b9ce5ea14a3878908ee160d66a9a717e792bb6db276952ae00000000", "vin": [{"txinwitness": ["", "304402202a40a8450cbce5e63a66dd5754576aa835cf14c09bdd30cb2a3787a946bf647a02207b1be3c6a9252f117c7c030541380a4faef43b63604b62d3be6c43b5690629dd01", "3045022100e7b3676bb919024b83dea24d87588288a8bdb3a9c5b709e3f79ecf7dfc7d6d9e02200739941f6d2d921523a1bb8b18a3b8a538162f79ea76d1141e78557ece82c91601", "522103dcde3832fa56def7b4e783faad1b8af85c3cdd74a5ff4f3c7c216b1075c18da12103c70ae8ded79be1afda73b9ce5ea14a3878908ee160d66a9a717e792bb6db276952ae"], "sequence": 4294967295, "scriptSig": {"hex": "2200205fdd641234b13964b223bd85ad2a4a667ca2099df3d42a1d3b45706a8d81abf0", "asm": "00205fdd641234b13964b223bd85ad2a4a667ca2099df3d42a1d3b45706a8d81abf0"}, "vout": 1, "txid": "606aee138bae39d2b01e473585038c564eec97343aac9f08810bf05928d5bd3a"}], "txid": "6d00dbfdce1688a5085e63f72946aeb621c9d45b32cf6f8e77060cd1356a9bb0", "blocktime": 1537870564, "version": 1, "confirmations": 11515, "time": 1537870564, "locktime": 0, "vsize": 208, "size": 373}