{"hash": "6d02dbea9f390afc952e14606506a5f81d73278d3af9f5e5e84e663e97d235f9", "blockhash": "0000000000000000001cda96e906b7601b7a6fb1a3b62bca570a9e5d8f4b3de1", "vout": [{"scriptPubKey": {"reqSigs": 1, "hex": "76a9148ed8a7d06050a870cd7df388a908e670a97df25188ac", "addresses": ["1E2JVjKKptWWrFbzxhKweRdaTUafS3Ugu5"], "asm": "OP_DUP OP_HASH160 8ed8a7d06050a870cd7df388a908e670a97df251 OP_EQUALVERIFY OP_CHECKSIG", "type": "pubkeyhash"}, "value": 0.01, "n": 0}, {"scriptPubKey": {"reqSigs": 1, "hex": "76a9141f6e9fa257bd7bf5067544d8b1b27396bf5d219b88ac", "addresses": ["13sCUD21vxS1Ks9d41L6Saxe2ER5r5jdU9"], "asm": "OP_DUP OP_HASH160 1f6e9fa257bd7bf5067544d8b1b27396bf5d219b OP_EQUALVERIFY OP_CHECKSIG", "type": "pubkeyhash"}, "value": 0.03998418, "n": 1}], "hex": "010000000145bd211036349158b9be62c12600b2bfec92c993938ae9c7de42075bea9faec9000000006a473044022021cefd31a6312530af6850ff031d8f804c5744c1d62176c03a65f08a4aa5b66202204507c38a29ac59c5b81b9aed2dc9fb0e61d275eeb5d0d7bc5483bb3df3b48a930121031dc1c64633932915e04d46834b751379fdd86beb63c04f74657d736e739f8263ffffffff0240420f00000000001976a9148ed8a7d06050a870cd7df388a908e670a97df25188acd2023d00000000001976a9141f6e9fa257bd7bf5067544d8b1b27396bf5d219b88ac00000000", "vin": [{"sequence": 4294967295, "scriptSig": {"hex": "473044022021cefd31a6312530af6850ff031d8f804c5744c1d62176c03a65f08a4aa5b66202204507c38a29ac59c5b81b9aed2dc9fb0e61d275eeb5d0d7bc5483bb3df3b48a930121031dc1c64633932915e04d46834b751379fdd86beb63c04f74657d736e739f8263", "asm": "3044022021cefd31a6312530af6850ff031d8f804c5744c1d62176c03a65f08a4aa5b66202204507c38a29ac59c5b81b9aed2dc9fb0e61d275eeb5d0d7bc5483bb3df3b48a93[ALL] 031dc1c64633932915e04d46834b751379fdd86beb63c04f74657d736e739f8263"}, "vout": 0, "txid": "c9ae9fea5b0742dec7e98a9393c992ecbfb20026c162beb9589134361021bd45"}], "txid": "6d02dbea9f390afc952e14606506a5f81d73278d3af9f5e5e84e663e97d235f9", "blocktime": 1537873282, "version": 1, "confirmations": 11482, "time": 1537873282, "locktime": 0, "vsize": 225, "size": 225}