{"hash": "6d02d3abbee0d2156e0f5090bbec9f965788f1dffb9968247d9a5b7fffa524f7", "blockhash": "0000000000000000001cda96e906b7601b7a6fb1a3b62bca570a9e5d8f4b3de1", "vout": [{"scriptPubKey": {"reqSigs": 1, "hex": "76a914dab47e251e9ce021ef994c9b8ae547e29cf8e85c88ac", "addresses": ["1LwQXgB9C4ScvBNk1xh6Cuqzyiia8ZrXL1"], "asm": "OP_DUP OP_HASH160 dab47e251e9ce021ef994c9b8ae547e29cf8e85c OP_EQUALVERIFY OP_CHECKSIG", "type": "pubkeyhash"}, "value": 0.00500822, "n": 0}], "hex": "010000000145eee7ccf5bbcf2c8b32c7c03a44b3fbb677e1590e7cb53cb04365b8e45724f9010000006b483045022100d250252440a61e676385bfe9c2acbddb49d59f69724d6c1772f2fdf57dcd4166022053516b98473877cb405ff76cbd51b6301d0fe04c24f3e62dd16c841a7a27c2b1012102a0f160e4da6328a18b3d1759caee10010e155f00e5c854ef2d8ebbabaa928afcffffffff0156a40700000000001976a914dab47e251e9ce021ef994c9b8ae547e29cf8e85c88ac00000000", "vin": [{"sequence": 4294967295, "scriptSig": {"hex": "483045022100d250252440a61e676385bfe9c2acbddb49d59f69724d6c1772f2fdf57dcd4166022053516b98473877cb405ff76cbd51b6301d0fe04c24f3e62dd16c841a7a27c2b1012102a0f160e4da6328a18b3d1759caee10010e155f00e5c854ef2d8ebbabaa928afc", "asm": "3045022100d250252440a61e676385bfe9c2acbddb49d59f69724d6c1772f2fdf57dcd4166022053516b98473877cb405ff76cbd51b6301d0fe04c24f3e62dd16c841a7a27c2b1[ALL] 02a0f160e4da6328a18b3d1759caee10010e155f00e5c854ef2d8ebbabaa928afc"}, "vout": 1, "txid": "f92457e4b86543b03cb57c0e59e177b6fbb3443ac0c7328b2ccfbbf5cce7ee45"}], "txid": "6d02d3abbee0d2156e0f5090bbec9f965788f1dffb9968247d9a5b7fffa524f7", "blocktime": 1537873282, "version": 1, "confirmations": 11484, "time": 1537873282, "locktime": 0, "vsize": 192, "size": 192}