{"hash": "6d0497d0a436eb46a1f68eceb3fcc8f22834259e5244f42b5f21d1437d8747ff", "blockhash": "0000000000000000001cda96e906b7601b7a6fb1a3b62bca570a9e5d8f4b3de1", "vout": [{"scriptPubKey": {"reqSigs": 1, "hex": "76a9141e43616ed6e30d4e4a10beee094aa4467289ab7088ac", "addresses": ["13m1zSaCgUDDoqGzRq7MDSH8rmGDCAm4V1"], "asm": "OP_DUP OP_HASH160 1e43616ed6e30d4e4a10beee094aa4467289ab70 OP_EQUALVERIFY OP_CHECKSIG", "type": "pubkeyhash"}, "value": 0.01249841, "n": 0}, {"scriptPubKey": {"reqSigs": 1, "hex": "76a9142c9621fb77551ab791bda6f19815d85e7e72bb3f88ac", "addresses": ["154kar6MXCAMEJWjAqjwd7yRmUioPj3PTc"], "asm": "OP_DUP OP_HASH160 2c9621fb77551ab791bda6f19815d85e7e72bb3f OP_EQUALVERIFY OP_CHECKSIG", "type": "pubkeyhash"}, "value": 0.1384858, "n": 1}], "hex": "0100000002ee204ca986bad27056ebeef958f9a15382489ab7cf411babf2069c1fc7fa3306000000008b48304502210091b683d68d8784c774c47f366faad45afe9d48e25e7d80bf8e291d3825b37f4802205b09998b4a59c7e427db192c1bb7300c94fcaaa95c3af74356dd60ff2f3c2f030141040ae368130b13dbf9c293f7cbe5304a99e317cbf7336f7ceb5afad2bd7d391674adbeac404301799b5495fe55cc753134cdd64024e15a7d30928c316c6d45fdc6ffffffff9f47310626ba6f0327e8e97d0ce0e2380df824f12d3461552a28d136f03b9210010000008a473044022025e5254a458fe9704ab6dea94d50105070c7889b9b87362b70b9f44b4590431a02203c6f8b192888dcc6a1d888db1ce36564586c3eff0491ec10d9356d4a0f9706580141040ae368130b13dbf9c293f7cbe5304a99e317cbf7336f7ceb5afad2bd7d391674adbeac404301799b5495fe55cc753134cdd64024e15a7d30928c316c6d45fdc6ffffffff0231121300000000001976a9141e43616ed6e30d4e4a10beee094aa4467289ab7088ac0450d300000000001976a9142c9621fb77551ab791bda6f19815d85e7e72bb3f88ac00000000", "vin": [{"sequence": 4294967295, "scriptSig": {"hex": "48304502210091b683d68d8784c774c47f366faad45afe9d48e25e7d80bf8e291d3825b37f4802205b09998b4a59c7e427db192c1bb7300c94fcaaa95c3af74356dd60ff2f3c2f030141040ae368130b13dbf9c293f7cbe5304a99e317cbf7336f7ceb5afad2bd7d391674adbeac404301799b5495fe55cc753134cdd64024e15a7d30928c316c6d45fdc6", "asm": "304502210091b683d68d8784c774c47f366faad45afe9d48e25e7d80bf8e291d3825b37f4802205b09998b4a59c7e427db192c1bb7300c94fcaaa95c3af74356dd60ff2f3c2f03[ALL] 040ae368130b13dbf9c293f7cbe5304a99e317cbf7336f7ceb5afad2bd7d391674adbeac404301799b5495fe55cc753134cdd64024e15a7d30928c316c6d45fdc6"}, "vout": 0, "txid": "0633fac71f9c06f2ab1b41cfb79a488253a1f958f9eeeb5670d2ba86a94c20ee"}, {"sequence": 4294967295, "scriptSig": {"hex": "473044022025e5254a458fe9704ab6dea94d50105070c7889b9b87362b70b9f44b4590431a02203c6f8b192888dcc6a1d888db1ce36564586c3eff0491ec10d9356d4a0f9706580141040ae368130b13dbf9c293f7cbe5304a99e317cbf7336f7ceb5afad2bd7d391674adbeac404301799b5495fe55cc753134cdd64024e15a7d30928c316c6d45fdc6", "asm": "3044022025e5254a458fe9704ab6dea94d50105070c7889b9b87362b70b9f44b4590431a02203c6f8b192888dcc6a1d888db1ce36564586c3eff0491ec10d9356d4a0f970658[ALL] 040ae368130b13dbf9c293f7cbe5304a99e317cbf7336f7ceb5afad2bd7d391674adbeac404301799b5495fe55cc753134cdd64024e15a7d30928c316c6d45fdc6"}, "vout": 1, "txid": "10923bf036d1282a5561342df124f80d38e2e00c7de9e827036fba260631479f"}], "txid": "6d0497d0a436eb46a1f68eceb3fcc8f22834259e5244f42b5f21d1437d8747ff", "blocktime": 1537873282, "version": 1, "confirmations": 11484, "time": 1537873282, "locktime": 0, "vsize": 437, "size": 437}