{"hash": "6d0739ccd6299eb886d950b790789146e41df505d3f9cd945e6345bf9d32bacc", "blockhash": "0000000000000000000baef3f32e3676a92c3b2e5da21b426e4f302fc371ce76", "vout": [{"scriptPubKey": {"reqSigs": 1, "hex": "76a914bf4bc4925c9dbee2fa4ae8713374eb4161f5445c88ac", "addresses": ["1JSUq5oCAv271XUbEEpRHkwszQTY8UXn3k"], "asm": "OP_DUP OP_HASH160 bf4bc4925c9dbee2fa4ae8713374eb4161f5445c OP_EQUALVERIFY OP_CHECKSIG", "type": "pubkeyhash"}, "value": 0.00245377, "n": 0}, {"scriptPubKey": {"reqSigs": 1, "hex": "76a914766827d20db4da6e12989942202e86b80ac3bfdb88ac", "addresses": ["1Bo5WVSheE4TXpkKBccqEEtiAwgFD9PeSb"], "asm": "OP_DUP OP_HASH160 766827d20db4da6e12989942202e86b80ac3bfdb OP_EQUALVERIFY OP_CHECKSIG", "type": "pubkeyhash"}, "value": 0.00553839, "n": 1}], "hex": "01000000012dd8c71c40541b9b10e07a95f3bda059c9462a8c35fd2abbb6ed294b907f2b3a010000006a473044022017f222c1a6d45b7158753881c640f015acbe0dd8e132b8671a5653c9a6a8e2d2022065075cca1470ba10fc723feb730f4e10135de6bd92eaa27a03a9fe69e9adf846012102a7a2a42e5972bebcd131b6ea64c72b6e2fcb3fe8b5d63f68d51626021007789afdffffff0281be0300000000001976a914bf4bc4925c9dbee2fa4ae8713374eb4161f5445c88ac6f730800000000001976a914766827d20db4da6e12989942202e86b80ac3bfdb88ac17490800", "vin": [{"sequence": 4294967293, "scriptSig": {"hex": "473044022017f222c1a6d45b7158753881c640f015acbe0dd8e132b8671a5653c9a6a8e2d2022065075cca1470ba10fc723feb730f4e10135de6bd92eaa27a03a9fe69e9adf846012102a7a2a42e5972bebcd131b6ea64c72b6e2fcb3fe8b5d63f68d51626021007789a", "asm": "3044022017f222c1a6d45b7158753881c640f015acbe0dd8e132b8671a5653c9a6a8e2d2022065075cca1470ba10fc723feb730f4e10135de6bd92eaa27a03a9fe69e9adf846[ALL] 02a7a2a42e5972bebcd131b6ea64c72b6e2fcb3fe8b5d63f68d51626021007789a"}, "vout": 1, "txid": "3a2b7f904b29edb6bb2afd358c2a46c959a0bdf3957ae0109b1b54401cc7d82d"}], "txid": "6d0739ccd6299eb886d950b790789146e41df505d3f9cd945e6345bf9d32bacc", "blocktime": 1537876114, "version": 1, "confirmations": 11460, "time": 1537876114, "locktime": 542999, "vsize": 225, "size": 225}