{"hash": "6d092b6bad88597c89404767fbd8c101e1eab929ba022285dadd418004e5990f", "blockhash": "0000000000000000001cda96e906b7601b7a6fb1a3b62bca570a9e5d8f4b3de1", "vout": [{"scriptPubKey": {"reqSigs": 1, "hex": "a91433f0e2371d6e319bb130114daa7f75b18b70cbbb87", "addresses": ["36RexDXTV1fdE9xvLj4bcJS6CcMPbeyGji"], "asm": "OP_HASH160 33f0e2371d6e319bb130114daa7f75b18b70cbbb OP_EQUAL", "type": "scripthash"}, "value": 0.01259962, "n": 0}, {"scriptPubKey": {"reqSigs": 1, "hex": "a914c153ea5a581e89c9e13f0162d7ddee41d8d2f86b87", "addresses": ["3KKEs7a2yoL2Ji2TFsRHCSc23CRd8MXvUH"], "asm": "OP_HASH160 c153ea5a581e89c9e13f0162d7ddee41d8d2f86b OP_EQUAL", "type": "scripthash"}, "value": 0.015189, "n": 1}], "hex": "0200000001ed9b50514fcf2131bd6331f0e342c06747d959f2cdeace9fde478278ecf209b7010000006a47304402205453b08cc7503a82bca3e98a459e85e39e3f2043cf53412e7b28da6e66ef1632022024a64d66be75f2be1c9489b4d3001632b43093256370591e2c61fbe0948ac19b012103fc1613c44e817cbdc1bb2def174dfc31b1c92830872616fd6afbf8b00db1ffdffdffffff02ba3913000000000017a91433f0e2371d6e319bb130114daa7f75b18b70cbbb87342d17000000000017a914c153ea5a581e89c9e13f0162d7ddee41d8d2f86b8700000000", "vin": [{"sequence": 4294967293, "scriptSig": {"hex": "47304402205453b08cc7503a82bca3e98a459e85e39e3f2043cf53412e7b28da6e66ef1632022024a64d66be75f2be1c9489b4d3001632b43093256370591e2c61fbe0948ac19b012103fc1613c44e817cbdc1bb2def174dfc31b1c92830872616fd6afbf8b00db1ffdf", "asm": "304402205453b08cc7503a82bca3e98a459e85e39e3f2043cf53412e7b28da6e66ef1632022024a64d66be75f2be1c9489b4d3001632b43093256370591e2c61fbe0948ac19b[ALL] 03fc1613c44e817cbdc1bb2def174dfc31b1c92830872616fd6afbf8b00db1ffdf"}, "vout": 1, "txid": "b709f2ec788247de9fceeacdf259d94767c042e3f03163bd3121cf4f51509bed"}], "txid": "6d092b6bad88597c89404767fbd8c101e1eab929ba022285dadd418004e5990f", "blocktime": 1537873282, "version": 2, "confirmations": 11484, "time": 1537873282, "locktime": 0, "vsize": 221, "size": 221}