{"hash": "6d0cb3e117f32d294baae73e3d09efdf4e8c58250c21a5dfc8a20bd1c007a7bf", "blockhash": "0000000000000000000e13cef7c366c0283d82e591d1acd082e914b08063cdf1", "vout": [{"scriptPubKey": {"reqSigs": 1, "hex": "76a91488381e2e1bb3e833534b0e555fce3c5169a252b388ac", "addresses": ["1DRG8EFDaaHbUyxkMX5P6vEL29FvsisiME"], "asm": "OP_DUP OP_HASH160 88381e2e1bb3e833534b0e555fce3c5169a252b3 OP_EQUALVERIFY OP_CHECKSIG", "type": "pubkeyhash"}, "value": 0.00110453, "n": 0}, {"scriptPubKey": {"reqSigs": 1, "hex": "76a9144dea03bc898238f690ba580341c140632e46744788ac", "addresses": ["186yNPdHAsjh327UAcSChaHi982v5WugJs"], "asm": "OP_DUP OP_HASH160 4dea03bc898238f690ba580341c140632e467447 OP_EQUALVERIFY OP_CHECKSIG", "type": "pubkeyhash"}, "value": 0.01561609, "n": 1}], "hex": "010000000159e82596cc4bfa5f869baa9b71e6808dcc6a71355c08cdb18dc66f0d04a9b31c000000006a47304402202978694d866468b96bf355992a7dd8824f275e54d3cbe0de47b772e213d29ebc02207eb2a0f804e70f810f9c5b86394ff7e0a9f4dc2c406c73538054295ee4a5d27b012103d9fa19d46e0ebd6830ebc13fb3342dde5d98b90b387cc4b366ab03a1415ccdc4ffffffff0275af0100000000001976a91488381e2e1bb3e833534b0e555fce3c5169a252b388ac09d41700000000001976a9144dea03bc898238f690ba580341c140632e46744788ac00000000", "vin": [{"sequence": 4294967295, "scriptSig": {"hex": "47304402202978694d866468b96bf355992a7dd8824f275e54d3cbe0de47b772e213d29ebc02207eb2a0f804e70f810f9c5b86394ff7e0a9f4dc2c406c73538054295ee4a5d27b012103d9fa19d46e0ebd6830ebc13fb3342dde5d98b90b387cc4b366ab03a1415ccdc4", "asm": "304402202978694d866468b96bf355992a7dd8824f275e54d3cbe0de47b772e213d29ebc02207eb2a0f804e70f810f9c5b86394ff7e0a9f4dc2c406c73538054295ee4a5d27b[ALL] 03d9fa19d46e0ebd6830ebc13fb3342dde5d98b90b387cc4b366ab03a1415ccdc4"}, "vout": 0, "txid": "1cb3a9040d6fc68db1cd085c35716acc8d80e6719baa9b865ffa4bcc9625e859"}], "txid": "6d0cb3e117f32d294baae73e3d09efdf4e8c58250c21a5dfc8a20bd1c007a7bf", "blocktime": 1537871767, "version": 1, "confirmations": 11495, "time": 1537871767, "locktime": 0, "vsize": 225, "size": 225}