{"hash": "6d1b0e4e6aed7bf4730f3b12171ac88d7ffdecb5ea185e5cf7f84be6f1a09448", "blockhash": "0000000000000000000baef3f32e3676a92c3b2e5da21b426e4f302fc371ce76", "vout": [{"scriptPubKey": {"reqSigs": 1, "hex": "76a914de4a851df605f50519f3bc879d7ebc974ca3d0c288ac", "addresses": ["1MGNHKuPyj1nR2Xq7vwj6QtrjtZCtgEAhc"], "asm": "OP_DUP OP_HASH160 de4a851df605f50519f3bc879d7ebc974ca3d0c2 OP_EQUALVERIFY OP_CHECKSIG", "type": "pubkeyhash"}, "value": 0.008011, "n": 0}, {"scriptPubKey": {"reqSigs": 1, "hex": "76a914b3661bfb098a9953e8dd72778eebc0b61b62febf88ac", "addresses": ["1HMaH1wHUyGzaDTLguC88FVRXQaisZ22hN"], "asm": "OP_DUP OP_HASH160 b3661bfb098a9953e8dd72778eebc0b61b62febf OP_EQUALVERIFY OP_CHECKSIG", "type": "pubkeyhash"}, "value": 0.00926838, "n": 1}], "hex": "01000000014d6f22e32c9ba3229c188e6689052d09b0e8ee97c9624d862f6a62f5e207bb55000000006b4830450221009f46f6fe83b9dd90d7984e9d3d895f02f75b88b3025aa162d269f33d2eab55a9022008a6627d04f8610a178bb2d842e95b0921adcc1fa0fa12734cbc29e9a9894a93012102f0a72d1c2b72a3093110657b16288528edf04b18e2f8ee157af66d23f5a5202afdffffff024c390c00000000001976a914de4a851df605f50519f3bc879d7ebc974ca3d0c288ac76240e00000000001976a914b3661bfb098a9953e8dd72778eebc0b61b62febf88ac17490800", "vin": [{"sequence": 4294967293, "scriptSig": {"hex": "4830450221009f46f6fe83b9dd90d7984e9d3d895f02f75b88b3025aa162d269f33d2eab55a9022008a6627d04f8610a178bb2d842e95b0921adcc1fa0fa12734cbc29e9a9894a93012102f0a72d1c2b72a3093110657b16288528edf04b18e2f8ee157af66d23f5a5202a", "asm": "30450221009f46f6fe83b9dd90d7984e9d3d895f02f75b88b3025aa162d269f33d2eab55a9022008a6627d04f8610a178bb2d842e95b0921adcc1fa0fa12734cbc29e9a9894a93[ALL] 02f0a72d1c2b72a3093110657b16288528edf04b18e2f8ee157af66d23f5a5202a"}, "vout": 0, "txid": "55bb07e2f5626a2f864d62c997eee8b0092d0589668e189c22a39b2ce3226f4d"}], "txid": "6d1b0e4e6aed7bf4730f3b12171ac88d7ffdecb5ea185e5cf7f84be6f1a09448", "blocktime": 1537876114, "version": 1, "confirmations": 11460, "time": 1537876114, "locktime": 542999, "vsize": 226, "size": 226}