{"hash": "6d1c65074bb3f28caf1680ed731a8fc25a9ef2eee63a4f026baba515114f20f3", "blockhash": "0000000000000000000baef3f32e3676a92c3b2e5da21b426e4f302fc371ce76", "vout": [{"scriptPubKey": {"reqSigs": 1, "hex": "76a914f906fd429daafc1f6e0e96af78f37f46ed66c21388ac", "addresses": ["1PhjdPfJ8Hz2KEMc3h8iEfxaSrx9Z4MuMH"], "asm": "OP_DUP OP_HASH160 f906fd429daafc1f6e0e96af78f37f46ed66c213 OP_EQUALVERIFY OP_CHECKSIG", "type": "pubkeyhash"}, "value": 0.00047765, "n": 0}, {"scriptPubKey": {"reqSigs": 1, "hex": "76a914cc924f30dc2a94692ad7050c06ccb469ffc0c18888ac", "addresses": ["1Keg7tJWxbPKzdHVRRaihvdpW7n2ySB2F5"], "asm": "OP_DUP OP_HASH160 cc924f30dc2a94692ad7050c06ccb469ffc0c188 OP_EQUALVERIFY OP_CHECKSIG", "type": "pubkeyhash"}, "value": 0.00027347, "n": 1}], "hex": "0100000001583223b7a39054f3415be3c06d406348a5c02d442eec647752016284dac99088000000006a47304402202c24741530c850aba55a836f1d64e6381c537212e326e3c26e86c7664f61a9a2022042fb381efd0c43d80c38b285de02fd84ed88db30587fa329bc91017fb32e10a1012103187f3071521176108383b4a0ba720d6496f4d14b2b23638b0ce8c01dc2646b45ffffffff0295ba0000000000001976a914f906fd429daafc1f6e0e96af78f37f46ed66c21388acd36a0000000000001976a914cc924f30dc2a94692ad7050c06ccb469ffc0c18888ac00000000", "vin": [{"sequence": 4294967295, "scriptSig": {"hex": "47304402202c24741530c850aba55a836f1d64e6381c537212e326e3c26e86c7664f61a9a2022042fb381efd0c43d80c38b285de02fd84ed88db30587fa329bc91017fb32e10a1012103187f3071521176108383b4a0ba720d6496f4d14b2b23638b0ce8c01dc2646b45", "asm": "304402202c24741530c850aba55a836f1d64e6381c537212e326e3c26e86c7664f61a9a2022042fb381efd0c43d80c38b285de02fd84ed88db30587fa329bc91017fb32e10a1[ALL] 03187f3071521176108383b4a0ba720d6496f4d14b2b23638b0ce8c01dc2646b45"}, "vout": 0, "txid": "8890c9da846201527764ec2e442dc0a54863406dc0e35b41f35490a3b7233258"}], "txid": "6d1c65074bb3f28caf1680ed731a8fc25a9ef2eee63a4f026baba515114f20f3", "blocktime": 1537876114, "version": 1, "confirmations": 11462, "time": 1537876114, "locktime": 0, "vsize": 225, "size": 225}