{"hash": "2f798c21436e03524a1d798cbf8e9010ecc30ee79d5beb4583fe12920e98a711", "blockhash": "0000000000000000000e13cef7c366c0283d82e591d1acd082e914b08063cdf1", "vout": [{"scriptPubKey": {"reqSigs": 1, "hex": "a9142dc4e9c20f34d949e1ac0a5dbf65815a50b7539287", "addresses": ["35s2DwSJsc6ArEvGw8S2yJSR9dCqsHdU3W"], "asm": "OP_HASH160 2dc4e9c20f34d949e1ac0a5dbf65815a50b75392 OP_EQUAL", "type": "scripthash"}, "value": 1e-05, "n": 0}, {"scriptPubKey": {"reqSigs": 1, "hex": "a914318d19baa9fa6dae09256036db921f719103df7687", "addresses": ["36D24n6hAe8fvnZLyCrrhcYmN6grurfwhj"], "asm": "OP_HASH160 318d19baa9fa6dae09256036db921f719103df76 OP_EQUAL", "type": "scripthash"}, "value": 1e-05, "n": 1}, {"scriptPubKey": {"reqSigs": 1, "hex": "a91433709955bbbc7b813879fd06146ab1b6d19aa8a487", "addresses": ["36P1Gqh4APsxsvBuenxd1aN5BV5KnsxB6M"], "asm": "OP_HASH160 33709955bbbc7b813879fd06146ab1b6d19aa8a4 OP_EQUAL", "type": "scripthash"}, "value": 1e-05, "n": 2}, {"scriptPubKey": {"reqSigs": 1, "hex": "a9145348af5674ab4485eda1826b345c54825ff5d7dc87", "addresses": ["39HP5hffyYZWr27Sr1kXnRz1DCnF1zrnJa"], "asm": "OP_HASH160 5348af5674ab4485eda1826b345c54825ff5d7dc OP_EQUAL", "type": "scripthash"}, "value": 1e-05, "n": 3}, {"scriptPubKey": {"reqSigs": 1, "hex": "a914548ab7eda3d8c8cc1e3337329510f3625a5e70ac87", "addresses": ["39Q2rz8NKU4ayNcfUBDWmgR6WPRTtLhnVY"], "asm": "OP_HASH160 548ab7eda3d8c8cc1e3337329510f3625a5e70ac OP_EQUAL", "type": "scripthash"}, "value": 1e-05, "n": 4}, {"scriptPubKey": {"reqSigs": 1, "hex": "a91454c6dd2b51ad5ea5dba75d585dcf444baa70621387", "addresses": ["39RGuy1PexigxsG5UvBHoZXH1w54uwh5yD"], "asm": "OP_HASH160 54c6dd2b51ad5ea5dba75d585dcf444baa706213 OP_EQUAL", "type": "scripthash"}, "value": 1e-05, "n": 5}, {"scriptPubKey": {"reqSigs": 1, "hex": "a9145b2d3b90dbf09743850ea808aa974112e93f460f87", "addresses": ["3A17bpdLtPRLDxsXxqqFdVu7hbVyzw2iDM"], "asm": "OP_HASH160 5b2d3b90dbf09743850ea808aa974112e93f460f OP_EQUAL", "type": "scripthash"}, "value": 1e-05, "n": 6}, {"scriptPubKey": {"reqSigs": 1, "hex": "a9145f7896c038dbc823f8e03eab84d62edfaabcbbf287", "addresses": ["3APpaRrHGQSEqpGWFsR4Scv6ci9wJWYGjq"], "asm": "OP_HASH160 5f7896c038dbc823f8e03eab84d62edfaabcbbf2 OP_EQUAL", "type": "scripthash"}, "value": 1e-05, "n": 7}, {"scriptPubKey": {"reqSigs": 1, "hex": "a914635455500af8559f1d59a2d503d159b9cf27292587", "addresses": ["3AkDr7TJA3azjujfiZvr5mwntotJjUzKQm"], "asm": "OP_HASH160 635455500af8559f1d59a2d503d159b9cf272925 OP_EQUAL", "type": "scripthash"}, "value": 1e-05, "n": 8}, {"scriptPubKey": {"reqSigs": 1, "hex": "a91470b9b8a0d9f6f8b72d58aefb8668dc08e028cb1f87", "addresses": ["3By46AUr8k1K9yuaZBJ3spbaF1ZUWqpoqs"], "asm": "OP_HASH160 70b9b8a0d9f6f8b72d58aefb8668dc08e028cb1f OP_EQUAL", "type": "scripthash"}, "value": 1e-05, "n": 9}, {"scriptPubKey": {"reqSigs": 1, "hex": "a914715532f9d4a0556abacf488bbb34cc3878eaea1f87", "addresses": ["3C2GLxcBEWV5L5XR1zkcJCi1TReNpMALF1"], "asm": "OP_HASH160 715532f9d4a0556abacf488bbb34cc3878eaea1f OP_EQUAL", "type": "scripthash"}, "value": 1e-05, "n": 10}, {"scriptPubKey": {"reqSigs": 1, "hex": "a91474d0c214c3e152f519cf333d19cb08105740885487", "addresses": ["3CLgPZja5ammtyAvRSNaV86BSUiiKx2dEr"], "asm": "OP_HASH160 74d0c214c3e152f519cf333d19cb081057408854 OP_EQUAL", "type": "scripthash"}, "value": 1e-05, "n": 11}, {"scriptPubKey": {"reqSigs": 1, "hex": "a9147d2d9a7e44e5b928d2cda470642f6af0ba08e38a87", "addresses": ["3D6u27FNK9aSfuCwDCvNCy9AoBvFY6AgMm"], "asm": "OP_HASH160 7d2d9a7e44e5b928d2cda470642f6af0ba08e38a OP_EQUAL", "type": "scripthash"}, "value": 1e-05, "n": 12}, {"scriptPubKey": {"reqSigs": 1, "hex": "a9149a9c1b1bf42d73f6a3943846b3c771728e5fecfa87", "addresses": ["3FnWzWjJyUvFBHwDxK8ib4Hv8ALK9fYLaS"], "asm": "OP_HASH160 9a9c1b1bf42d73f6a3943846b3c771728e5fecfa OP_EQUAL", "type": "scripthash"}, "value": 1e-05, "n": 13}, {"scriptPubKey": {"reqSigs": 1, "hex": "a914a5d57f19964d73ebe2f0d71356425ac3800ad7cc87", "addresses": ["3GosBC4dbJ7CppkT6kdK7zLeMkyhbbNNYX"], "asm": "OP_HASH160 a5d57f19964d73ebe2f0d71356425ac3800ad7cc OP_EQUAL", "type": "scripthash"}, "value": 1e-05, "n": 14}, {"scriptPubKey": {"reqSigs": 1, "hex": "a914f34c6956547acc6757c4338c2e51ed31eb663e1e87", "addresses": ["3PsTfKZSEGuG53PaYT1uYBWiNumapa5J44"], "asm": "OP_HASH160 f34c6956547acc6757c4338c2e51ed31eb663e1e OP_EQUAL", "type": "scripthash"}, "value": 1e-05, "n": 15}, {"scriptPubKey": {"reqSigs": 1, "hex": "a914fbb5a81abc909c1ff79910dadd7e0fbd99094d2d87", "addresses": ["3Qdw9RFxzWp9teBGY4bPRndnYyCAzAnoNH"], "asm": "OP_HASH160 fbb5a81abc909c1ff79910dadd7e0fbd99094d2d OP_EQUAL", "type": "scripthash"}, "value": 1e-05, "n": 16}, {"scriptPubKey": {"reqSigs": 1, "hex": "a91420c5d3aba7ed2d1c9806655ba73d8b0c7a2748d687", "addresses": ["34gJXw1WaJh1unT3JRj8nFeMyVWhCXiKfW"], "asm": "OP_HASH160 20c5d3aba7ed2d1c9806655ba73d8b0c7a2748d6 OP_EQUAL", "type": "scripthash"}, "value": 0.00023888, "n": 17}], "hex": "010000000001015be232b1dcd6b053b70a29dfae5fad4e303e4674c52686a399ff2ed7b16ab6a20300000017160014616638621392722c6a33ee9050f5160117ded398fdffffff12e80300000000000017a9142dc4e9c20f34d949e1ac0a5dbf65815a50b7539287e80300000000000017a914318d19baa9fa6dae09256036db921f719103df7687e80300000000000017a91433709955bbbc7b813879fd06146ab1b6d19aa8a487e80300000000000017a9145348af5674ab4485eda1826b345c54825ff5d7dc87e80300000000000017a914548ab7eda3d8c8cc1e3337329510f3625a5e70ac87e80300000000000017a91454c6dd2b51ad5ea5dba75d585dcf444baa70621387e80300000000000017a9145b2d3b90dbf09743850ea808aa974112e93f460f87e80300000000000017a9145f7896c038dbc823f8e03eab84d62edfaabcbbf287e80300000000000017a914635455500af8559f1d59a2d503d159b9cf27292587e80300000000000017a91470b9b8a0d9f6f8b72d58aefb8668dc08e028cb1f87e80300000000000017a914715532f9d4a0556abacf488bbb34cc3878eaea1f87e80300000000000017a91474d0c214c3e152f519cf333d19cb08105740885487e80300000000000017a9147d2d9a7e44e5b928d2cda470642f6af0ba08e38a87e80300000000000017a9149a9c1b1bf42d73f6a3943846b3c771728e5fecfa87e80300000000000017a914a5d57f19964d73ebe2f0d71356425ac3800ad7cc87e80300000000000017a914f34c6956547acc6757c4338c2e51ed31eb663e1e87e80300000000000017a914fbb5a81abc909c1ff79910dadd7e0fbd99094d2d87505d00000000000017a91420c5d3aba7ed2d1c9806655ba73d8b0c7a2748d68702483045022100842f05029dcd00766d0a51c80856de89cd512fefd37d85e0af71118a0c75aedf022008b84bf5c504e4302f3cb3e120edf865e6d10870cb1cd817acd02e4d86f85bac012102cb131915a50c7a2b21c3b329e40369bedd279cf6c7f2ee8f4490f967d7246e600f490800", "vin": [{"txinwitness": ["3045022100842f05029dcd00766d0a51c80856de89cd512fefd37d85e0af71118a0c75aedf022008b84bf5c504e4302f3cb3e120edf865e6d10870cb1cd817acd02e4d86f85bac01", "02cb131915a50c7a2b21c3b329e40369bedd279cf6c7f2ee8f4490f967d7246e60"], "sequence": 4294967293, "scriptSig": {"hex": "160014616638621392722c6a33ee9050f5160117ded398", "asm": "0014616638621392722c6a33ee9050f5160117ded398"}, "vout": 3, "txid": "a2b66ab1d72eff99a38626c574463e304ead5faedf290ab753b0d6dcb132e25b"}], "txid": "6d1d1a17e3cce89856068e26bfc5dc3192a6df71f9a77615c97ba3274027efed", "blocktime": 1537871767, "version": 1, "confirmations": 11493, "time": 1537871767, "locktime": 542991, "vsize": 678, "size": 760}