{"hash": "6d1eec68db6242009355d27ba8023de62096f4b02356959ec276017ffbc0eb72", "blockhash": "00000000000000000018f53835495a110e01622372bf6ae95dc86f2b0ab887b0", "vout": [{"scriptPubKey": {"type": "nulldata", "hex": "6a146f6d6e69000000000000001f000060680c58a000", "asm": "OP_RETURN 6f6d6e69000000000000001f000060680c58a000"}, "value": 0.0, "n": 0}, {"scriptPubKey": {"reqSigs": 1, "hex": "76a9146ec899c0bbdb7921092346e047a8cf4e4874ad6d88ac", "addresses": ["1B6me5MvLP7Mu1yYXB8mbEVtsRsQkeYr6X"], "asm": "OP_DUP OP_HASH160 6ec899c0bbdb7921092346e047a8cf4e4874ad6d OP_EQUALVERIFY OP_CHECKSIG", "type": "pubkeyhash"}, "value": 0.00207857, "n": 1}, {"scriptPubKey": {"reqSigs": 1, "hex": "76a914a25dec4d0011064ef106a983c39c7a540699f22088ac", "addresses": ["1FoWyxwPXuj4C6abqwhjDWdz6D4PZgYRjA"], "asm": "OP_DUP OP_HASH160 a25dec4d0011064ef106a983c39c7a540699f220 OP_EQUALVERIFY OP_CHECKSIG", "type": "pubkeyhash"}, "value": 5.46e-06, "n": 2}], "hex": "01000000018a0bdf654407f99e7cb9cc993e94642bea056029e30d7d4a6594ee9bdc4e2d77020000006b48304502210084299df467ce4e5aafdf63bdfb4988ec0625cbcac4a7975b852f5e4a41fdee74022036d7e897d31c68576d01f89073ac9fdaa2d4c0a6ad2dd9c76ef41007f01107af01210384490bbaad5393ddf7e613ecca8d813315b414261596ee151afdec343514c043feffffff030000000000000000166a146f6d6e69000000000000001f000060680c58a000f12b0300000000001976a9146ec899c0bbdb7921092346e047a8cf4e4874ad6d88ac22020000000000001976a914a25dec4d0011064ef106a983c39c7a540699f22088ac0d490800", "vin": [{"sequence": 4294967294, "scriptSig": {"hex": "48304502210084299df467ce4e5aafdf63bdfb4988ec0625cbcac4a7975b852f5e4a41fdee74022036d7e897d31c68576d01f89073ac9fdaa2d4c0a6ad2dd9c76ef41007f01107af01210384490bbaad5393ddf7e613ecca8d813315b414261596ee151afdec343514c043", "asm": "304502210084299df467ce4e5aafdf63bdfb4988ec0625cbcac4a7975b852f5e4a41fdee74022036d7e897d31c68576d01f89073ac9fdaa2d4c0a6ad2dd9c76ef41007f01107af[ALL] 0384490bbaad5393ddf7e613ecca8d813315b414261596ee151afdec343514c043"}, "vout": 2, "txid": "772d4edc9bee94654a7d0de3296005ea2b64943e99ccb97c9ef9074465df0b8a"}], "txid": "6d1eec68db6242009355d27ba8023de62096f4b02356959ec276017ffbc0eb72", "blocktime": 1537870928, "version": 1, "confirmations": 11514, "time": 1537870928, "locktime": 542989, "vsize": 257, "size": 257}