{"hash": "04662e8eeca93373b850adaea8b6c6acc7c16126a4e8e2b0ca43823d6106195a", "blockhash": "0000000000000000001f76057863aec43deb6fa401d9628bb513d65a8098bfab", "vout": [{"scriptPubKey": {"reqSigs": 1, "hex": "76a914e98f7f9f3e729e0af77b8258d2c61f947197236988ac", "addresses": ["1NHxM9dEfnk8j3pxn5KVjveVTkZ8A6hDcN"], "asm": "OP_DUP OP_HASH160 e98f7f9f3e729e0af77b8258d2c61f9471972369 OP_EQUALVERIFY OP_CHECKSIG", "type": "pubkeyhash"}, "value": 0.002703, "n": 0}, {"scriptPubKey": {"reqSigs": 1, "hex": "a914c26e83ece7f65beff0e252ecd2fd5403e10ca99587", "addresses": ["3KR5QVtQB6sCqdUacdb3vb8QTkauyqsbut"], "asm": "OP_HASH160 c26e83ece7f65beff0e252ecd2fd5403e10ca995 OP_EQUAL", "type": "scripthash"}, "value": 0.07358506, "n": 1}], "hex": "010000000001015860d62778f66ff56717619aec9952cc685526475b2b13bd689728ffaf4ef3d4010000002322002061b7e0679c39feb972a76917fed8b59a2af28b216dde6dcf6b3205156948ce58ffffffff02dc1f0400000000001976a914e98f7f9f3e729e0af77b8258d2c61f947197236988ac2a4870000000000017a914c26e83ece7f65beff0e252ecd2fd5403e10ca9958704004730440220650b335c247e2937a5dc670c1d471f0ebe7ac3db1dd9676dffa6ef34772a753f0220584ef4b8ed413cc64d3522f92c661792cc50ff75d6d921c569ec34907050778b0147304402204504a9fca814d7e0474ac5512bfcd89dd6646d4284065cdc173554faf12e73420220313b367674fd3153d9ca50167bd5a2ea3f9c1d9013f0750435500dffbd26d660014752210334016f8ee34d545e41a39e49929d1d9d91db6b3d60e6e69635ba210692b768a42102dd2332c0512dee4ea813748993f8056f254166d97719c8c2e4e8f542e54e1af152ae00000000", "vin": [{"txinwitness": ["", "30440220650b335c247e2937a5dc670c1d471f0ebe7ac3db1dd9676dffa6ef34772a753f0220584ef4b8ed413cc64d3522f92c661792cc50ff75d6d921c569ec34907050778b01", "304402204504a9fca814d7e0474ac5512bfcd89dd6646d4284065cdc173554faf12e73420220313b367674fd3153d9ca50167bd5a2ea3f9c1d9013f0750435500dffbd26d66001", "52210334016f8ee34d545e41a39e49929d1d9d91db6b3d60e6e69635ba210692b768a42102dd2332c0512dee4ea813748993f8056f254166d97719c8c2e4e8f542e54e1af152ae"], "sequence": 4294967295, "scriptSig": {"hex": "22002061b7e0679c39feb972a76917fed8b59a2af28b216dde6dcf6b3205156948ce58", "asm": "002061b7e0679c39feb972a76917fed8b59a2af28b216dde6dcf6b3205156948ce58"}, "vout": 1, "txid": "d4f34eafff289768bd132b5b47265568cc5299ec9a611767f56ff67827d66058"}], "txid": "6d1e4116668040d1eb14c7623c038f8bfc4f5d3ec0c6bc0cc8b85422e98b5ffa", "blocktime": 1537873891, "version": 1, "confirmations": 11478, "time": 1537873891, "locktime": 0, "vsize": 207, "size": 372}