{"hash": "6d1f8d2d13584f42e66c505db182cf94e85a90cf174e7477f3d60d03babad653", "blockhash": "0000000000000000000e13cef7c366c0283d82e591d1acd082e914b08063cdf1", "vout": [{"scriptPubKey": {"reqSigs": 1, "hex": "76a9141537261dd4c84fbc175475b9734abda584ebad9988ac", "addresses": ["12wBFqm3YorK16r93ypbx8tCzZ59KuQdNp"], "asm": "OP_DUP OP_HASH160 1537261dd4c84fbc175475b9734abda584ebad99 OP_EQUALVERIFY OP_CHECKSIG", "type": "pubkeyhash"}, "value": 1.508e-05, "n": 0}, {"scriptPubKey": {"reqSigs": 1, "hex": "a914cc1281e3e2cc379886b101b006b7ebda6c1cb4b487", "addresses": ["3LJ3wbL8QAasgGLuCiRh6mdKJcafMxmf4D"], "asm": "OP_HASH160 cc1281e3e2cc379886b101b006b7ebda6c1cb4b4 OP_EQUAL", "type": "scripthash"}, "value": 7.814e-05, "n": 1}], "hex": "010000000187b7027c7d3572e3b1c9c920252d25ad7977aa4bb91cfd539946a179c9fbcdf3040000006a47304402205f32598f62c2ddf61138d1faac6e70dfdaf7f161d9342ae710175628f32e51d0022034ae0e072de570cf69181680499f666f580e24e8e6b6088984f323409d8fb07d0121025bc87c8617df981d3e73714f91c26ce560fe39d11cbc3b5bedb8f02c45d8ecc6ffffffff02e4050000000000001976a9141537261dd4c84fbc175475b9734abda584ebad9988ac861e00000000000017a914cc1281e3e2cc379886b101b006b7ebda6c1cb4b48700000000", "vin": [{"sequence": 4294967295, "scriptSig": {"hex": "47304402205f32598f62c2ddf61138d1faac6e70dfdaf7f161d9342ae710175628f32e51d0022034ae0e072de570cf69181680499f666f580e24e8e6b6088984f323409d8fb07d0121025bc87c8617df981d3e73714f91c26ce560fe39d11cbc3b5bedb8f02c45d8ecc6", "asm": "304402205f32598f62c2ddf61138d1faac6e70dfdaf7f161d9342ae710175628f32e51d0022034ae0e072de570cf69181680499f666f580e24e8e6b6088984f323409d8fb07d[ALL] 025bc87c8617df981d3e73714f91c26ce560fe39d11cbc3b5bedb8f02c45d8ecc6"}, "vout": 4, "txid": "f3cdfbc979a1469953fd1cb94baa7779ad252d2520c9c9b1e372357d7c02b787"}], "txid": "6d1f8d2d13584f42e66c505db182cf94e85a90cf174e7477f3d60d03babad653", "blocktime": 1537871767, "version": 1, "confirmations": 11495, "time": 1537871767, "locktime": 0, "vsize": 223, "size": 223}