{"hash": "c6f36744d8a48d15dc104148a16aa557522b4ac2784adf0c8113013d7450ec86", "blockhash": "0000000000000000000e13cef7c366c0283d82e591d1acd082e914b08063cdf1", "vout": [{"scriptPubKey": {"reqSigs": 1, "hex": "a9145d8c2b0aeee83d7572d7946574a47ad59a0fbd6587", "addresses": ["3ADegSHaeXMLbngWssLXftqJZx1zcCWwhY"], "asm": "OP_HASH160 5d8c2b0aeee83d7572d7946574a47ad59a0fbd65 OP_EQUAL", "type": "scripthash"}, "value": 0.00311597, "n": 0}, {"scriptPubKey": {"reqSigs": 1, "hex": "a914c3aac73b19a6df3a3a68ef69a8e9f79c8dff9a9c87", "addresses": ["3KXcGqASXznMituPhPnV7BkSc6CHZRLykC"], "asm": "OP_HASH160 c3aac73b19a6df3a3a68ef69a8e9f79c8dff9a9c OP_EQUAL", "type": "scripthash"}, "value": 0.01612543, "n": 1}], "hex": "01000000000101e09ea88cd7f3d768ec867f872e8a3466f0a71757461b4f5bc18e9598a948813b01000000232200200b5c15b2a266c1fd9e615145cf3cd379109fe761c2844ebebbc12b381bddc9faffffffff022dc104000000000017a9145d8c2b0aeee83d7572d7946574a47ad59a0fbd6587ff9a18000000000017a914c3aac73b19a6df3a3a68ef69a8e9f79c8dff9a9c87040047304402207c56a6f451f895755c7585bd42d7e15733c40d44ca7f6e144a0955da463052220220587468f04c6ef49c5d6d5e3e6b65484619396ff9480d095b7c1544c049a21e6e0147304402204bd485b166e9574a447ef82ff217a7fa636e37333706ddcbcd9f24fe2ace73cb022034bb01739d24c88e9554e8d37f8e8210b7807664cd83397d9b4095c281f77dc30147522102b590b6826675da568b914aa494372424b69f5fe06067fd7fa568cc41070c8e6b21024c55499905a522129124e75484b7ddea868aee9a7f01d75add901db6cf9b589f52ae00000000", "vin": [{"txinwitness": ["", "304402207c56a6f451f895755c7585bd42d7e15733c40d44ca7f6e144a0955da463052220220587468f04c6ef49c5d6d5e3e6b65484619396ff9480d095b7c1544c049a21e6e01", "304402204bd485b166e9574a447ef82ff217a7fa636e37333706ddcbcd9f24fe2ace73cb022034bb01739d24c88e9554e8d37f8e8210b7807664cd83397d9b4095c281f77dc301", "522102b590b6826675da568b914aa494372424b69f5fe06067fd7fa568cc41070c8e6b21024c55499905a522129124e75484b7ddea868aee9a7f01d75add901db6cf9b589f52ae"], "sequence": 4294967295, "scriptSig": {"hex": "2200200b5c15b2a266c1fd9e615145cf3cd379109fe761c2844ebebbc12b381bddc9fa", "asm": "00200b5c15b2a266c1fd9e615145cf3cd379109fe761c2844ebebbc12b381bddc9fa"}, "vout": 1, "txid": "3b8148a998958ec15b4f1b465717a7f066348a2e877f86ec68d7f3d78ca89ee0"}], "txid": "6d25ae0ae6c43cedfb2d9d33c363c6fdd4abf9a7077ce67e2e6f4ab92a491aeb", "blocktime": 1537871767, "version": 1, "confirmations": 11491, "time": 1537871767, "locktime": 0, "vsize": 205, "size": 370}