{"hash": "6d298946d89d5844a8e1f3f21399abe540dab8dc0c83fff816be3063303daa9f", "blockhash": "0000000000000000001f0ddff1eddb255c1121bcd4da4f1bc9a0da00cae72433", "vout": [{"scriptPubKey": {"reqSigs": 1, "hex": "a914e8ad7bdf13f2c6efe9b98a3c1fe2bcbeceb33ddf87", "addresses": ["3NuJWvGSsfvzqzjYnukV7JUFzBw4YTdXbg"], "asm": "OP_HASH160 e8ad7bdf13f2c6efe9b98a3c1fe2bcbeceb33ddf OP_EQUAL", "type": "scripthash"}, "value": 0.01936714, "n": 0}], "hex": "0100000001c6bc18d0d3eb90503a89d0560ee3296200b594434d99b7096b14116f11902d03000000006b483045022100b94c8d167c05c09d6baff6adfc5c519356c3ecae3eb874167c598c2e682575690220713710846a3d0b2637b9811e5c8ff597181492b4d75c07cf0e71e7d865159042012102a967ea9fb9ea9ad0784065bf0acde313ba270ff56575d90561cb61a2e64d9cc3fdffffff014a8d1d000000000017a914e8ad7bdf13f2c6efe9b98a3c1fe2bcbeceb33ddf8710490800", "vin": [{"sequence": 4294967293, "scriptSig": {"hex": "483045022100b94c8d167c05c09d6baff6adfc5c519356c3ecae3eb874167c598c2e682575690220713710846a3d0b2637b9811e5c8ff597181492b4d75c07cf0e71e7d865159042012102a967ea9fb9ea9ad0784065bf0acde313ba270ff56575d90561cb61a2e64d9cc3", "asm": "3045022100b94c8d167c05c09d6baff6adfc5c519356c3ecae3eb874167c598c2e682575690220713710846a3d0b2637b9811e5c8ff597181492b4d75c07cf0e71e7d865159042[ALL] 02a967ea9fb9ea9ad0784065bf0acde313ba270ff56575d90561cb61a2e64d9cc3"}, "vout": 0, "txid": "032d90116f11146b09b7994d4394b5006229e30e56d0893a5090ebd3d018bcc6"}], "txid": "6d298946d89d5844a8e1f3f21399abe540dab8dc0c83fff816be3063303daa9f", "blocktime": 1537872018, "version": 1, "confirmations": 11489, "time": 1537872018, "locktime": 542992, "vsize": 190, "size": 190}