{"hash": "6d2ac50677b6c65b07d502435584fda5b882bbb836d92eebd29a0322028f9ae3", "blockhash": "0000000000000000001e0dab787dd257d1dbfcb92a98c2207d5e1078be1f4165", "vout": [{"scriptPubKey": {"reqSigs": 1, "hex": "a914a0a18d82e49bd2da25a01533a4fdea7c73e2084787", "addresses": ["3GLMa7wUS2m8cPTKpYRrUgRQp7XQ2owmtD"], "asm": "OP_HASH160 a0a18d82e49bd2da25a01533a4fdea7c73e20847 OP_EQUAL", "type": "scripthash"}, "value": 0.00308065, "n": 0}, {"scriptPubKey": {"reqSigs": 1, "hex": "76a914540980e204ec9659d4f7132257637d335e3068a888ac", "addresses": ["18fM9ReYLKj89SY4pmM2UposwpKUwbfh3X"], "asm": "OP_DUP OP_HASH160 540980e204ec9659d4f7132257637d335e3068a8 OP_EQUALVERIFY OP_CHECKSIG", "type": "pubkeyhash"}, "value": 0.03608035, "n": 1}], "hex": "0100000001b3c2e4e7f90416b500a90d94564e258f9e6e84fe4dd82126737a5e11d378a982010000006b483045022100debaebbb0195ae16f7d1e9c62a0cf3727cfe805a26c46e0f99aac4125c5f6a5c022013aa7f2b930a550ba59b324c0b55deffc6ac8de65b6043ae3431c3fe52f4d9370121030ba03d164d8fd475b8a42ecfaaa6712e41adfeae52696877844d4c175de0860effffffff0261b304000000000017a914a0a18d82e49bd2da25a01533a4fdea7c73e2084787e30d3700000000001976a914540980e204ec9659d4f7132257637d335e3068a888ac00000000", "vin": [{"sequence": 4294967295, "scriptSig": {"hex": "483045022100debaebbb0195ae16f7d1e9c62a0cf3727cfe805a26c46e0f99aac4125c5f6a5c022013aa7f2b930a550ba59b324c0b55deffc6ac8de65b6043ae3431c3fe52f4d9370121030ba03d164d8fd475b8a42ecfaaa6712e41adfeae52696877844d4c175de0860e", "asm": "3045022100debaebbb0195ae16f7d1e9c62a0cf3727cfe805a26c46e0f99aac4125c5f6a5c022013aa7f2b930a550ba59b324c0b55deffc6ac8de65b6043ae3431c3fe52f4d937[ALL] 030ba03d164d8fd475b8a42ecfaaa6712e41adfeae52696877844d4c175de0860e"}, "vout": 1, "txid": "82a978d3115e7a732621d84dfe846e9e8f254e56940da900b51604f9e7e4c2b3"}], "txid": "6d2ac50677b6c65b07d502435584fda5b882bbb836d92eebd29a0322028f9ae3", "blocktime": 1537872475, "version": 1, "confirmations": 11486, "time": 1537872475, "locktime": 0, "vsize": 224, "size": 224}