{"hash": "6d2b1ef1d7d725634bfe3435723d801db8746366ed501e49473c183bc8ace7a6", "blockhash": "0000000000000000001cda96e906b7601b7a6fb1a3b62bca570a9e5d8f4b3de1", "vout": [{"scriptPubKey": {"reqSigs": 1, "hex": "76a914b6ab54a135c770fffe427cb07ec18c869577e80688ac", "addresses": ["1HesEAuoZUwTi1edN9CbT8CdmkuYWvYtkU"], "asm": "OP_DUP OP_HASH160 b6ab54a135c770fffe427cb07ec18c869577e806 OP_EQUALVERIFY OP_CHECKSIG", "type": "pubkeyhash"}, "value": 0.00700243, "n": 0}], "hex": "01000000026a55fed2bf7250d8a408a1556196bc73e9fee396da2e686b4f4ad47a3671f185000000006a473044022022e9d123f6ef7d6a9dc4f1905af1ca33ca18eb4d4dd52869b2d9a0eb7826746202200811ca41e319277cd529def853519e88862e87a0912546794b09a218442f9e5f012103c7e0d5d3dead6125012f9a8ae4c584e987943c96c6c4208af5e26b709af469b8ffffffffdaee5a9a631528c534dd1f0d5d4c053ee066df492bcc4f55cc04e898d05c5b9a060000006a47304402206d0bdf7e890223ae848bdea225818a0a270f0ed6ca8734483dd02cdabd64112c02202d3b46c676a9348202ffdb53ec8afe5fe563181039376d1f6672f95ab26a81d60121024442aa239cbd1cd962c97ea44183a181c9b6d3dace75d0c94fb07b81456325f7ffffffff0153af0a00000000001976a914b6ab54a135c770fffe427cb07ec18c869577e80688ac00000000", "vin": [{"sequence": 4294967295, "scriptSig": {"hex": "473044022022e9d123f6ef7d6a9dc4f1905af1ca33ca18eb4d4dd52869b2d9a0eb7826746202200811ca41e319277cd529def853519e88862e87a0912546794b09a218442f9e5f012103c7e0d5d3dead6125012f9a8ae4c584e987943c96c6c4208af5e26b709af469b8", "asm": "3044022022e9d123f6ef7d6a9dc4f1905af1ca33ca18eb4d4dd52869b2d9a0eb7826746202200811ca41e319277cd529def853519e88862e87a0912546794b09a218442f9e5f[ALL] 03c7e0d5d3dead6125012f9a8ae4c584e987943c96c6c4208af5e26b709af469b8"}, "vout": 0, "txid": "85f171367ad44a4f6b682eda96e3fee973bc966155a108a4d85072bfd2fe556a"}, {"sequence": 4294967295, "scriptSig": {"hex": "47304402206d0bdf7e890223ae848bdea225818a0a270f0ed6ca8734483dd02cdabd64112c02202d3b46c676a9348202ffdb53ec8afe5fe563181039376d1f6672f95ab26a81d60121024442aa239cbd1cd962c97ea44183a181c9b6d3dace75d0c94fb07b81456325f7", "asm": "304402206d0bdf7e890223ae848bdea225818a0a270f0ed6ca8734483dd02cdabd64112c02202d3b46c676a9348202ffdb53ec8afe5fe563181039376d1f6672f95ab26a81d6[ALL] 024442aa239cbd1cd962c97ea44183a181c9b6d3dace75d0c94fb07b81456325f7"}, "vout": 6, "txid": "9a5b5cd098e804cc554fcc2b49df66e03e054c5d0d1fdd34c52815639a5aeeda"}], "txid": "6d2b1ef1d7d725634bfe3435723d801db8746366ed501e49473c183bc8ace7a6", "blocktime": 1537873282, "version": 1, "confirmations": 11484, "time": 1537873282, "locktime": 0, "vsize": 338, "size": 338}