{"hash": "6d34ab0f430b493e6d554260ae79aca92f77d5e8db2500b0829c1bf5366a567b", "blockhash": "00000000000000000017f5eb5941039fbcee6240d03bc1f2f8e35350df66a1d8", "vout": [{"scriptPubKey": {"reqSigs": 1, "hex": "a914cf964031a34ca1a124f21cf00b097dbc0fc6ebfd87", "addresses": ["3LcdnrjZC4LYNqX26J4XDgDSe7FMUeqkHG"], "asm": "OP_HASH160 cf964031a34ca1a124f21cf00b097dbc0fc6ebfd OP_EQUAL", "type": "scripthash"}, "value": 0.00183012, "n": 0}], "hex": "0100000001b443d34ffa98b0ba5e70fbebe4326c0574bd2c87b31a9cb6201b61e90cd329e1150000006b483045022100e8ae6b89bfb9dc01dbbf8ecc8aaf39c70dc2ff1d35adfee85b46eb725fc525d402204b7fd12d5e51c7ad88647d3c2652ea7af0de90b65178fd05a0ff47691f4f2e7e012103669856850d4457fa3db855878189e10ae13062b6dc9071bb50db7bed677e5839ffffffff01e4ca02000000000017a914cf964031a34ca1a124f21cf00b097dbc0fc6ebfd8700000000", "vin": [{"sequence": 4294967295, "scriptSig": {"hex": "483045022100e8ae6b89bfb9dc01dbbf8ecc8aaf39c70dc2ff1d35adfee85b46eb725fc525d402204b7fd12d5e51c7ad88647d3c2652ea7af0de90b65178fd05a0ff47691f4f2e7e012103669856850d4457fa3db855878189e10ae13062b6dc9071bb50db7bed677e5839", "asm": "3045022100e8ae6b89bfb9dc01dbbf8ecc8aaf39c70dc2ff1d35adfee85b46eb725fc525d402204b7fd12d5e51c7ad88647d3c2652ea7af0de90b65178fd05a0ff47691f4f2e7e[ALL] 03669856850d4457fa3db855878189e10ae13062b6dc9071bb50db7bed677e5839"}, "vout": 21, "txid": "e129d30ce9611b20b69c1ab3872cbd74056c32e4ebfb705ebab098fa4fd343b4"}], "txid": "6d34ab0f430b493e6d554260ae79aca92f77d5e8db2500b0829c1bf5366a567b", "blocktime": 1537874412, "version": 1, "confirmations": 11467, "time": 1537874412, "locktime": 0, "vsize": 190, "size": 190}