{"hash": "6d35e8a2137e90cf4bf60c8038bd5c3dcaa5cfbcedf4315ded399cf1f992ad04", "blockhash": "0000000000000000001cda96e906b7601b7a6fb1a3b62bca570a9e5d8f4b3de1", "vout": [{"scriptPubKey": {"reqSigs": 1, "hex": "76a9143560c25329f205e64e13da30523b2777b8c06fbb88ac", "addresses": ["15sEj796UopKz8k2CQdnJk2AntYiHnzvtN"], "asm": "OP_DUP OP_HASH160 3560c25329f205e64e13da30523b2777b8c06fbb OP_EQUALVERIFY OP_CHECKSIG", "type": "pubkeyhash"}, "value": 0.00014845, "n": 0}, {"scriptPubKey": {"reqSigs": 1, "hex": "76a914136bba125a55a28760cdb784046b8fe7a0c4bbf188ac", "addresses": ["12mgtdwvxyLqxmXF2XeRdpuy6EbUskjmos"], "asm": "OP_DUP OP_HASH160 136bba125a55a28760cdb784046b8fe7a0c4bbf1 OP_EQUALVERIFY OP_CHECKSIG", "type": "pubkeyhash"}, "value": 0.00015618, "n": 1}], "hex": "0100000001caecac8f410895f77e149c6e1e58ad08fe82ac9861fece37259cde1942129e2f000000006b483045022100dca4999d6eb656633691311b7cc77c50befd3064d3c27b7e4d8e6808af78ff35022057d15f8f293adb09fc1eda63d7e6245d53f7246e2490d07538b203753c5f4833012102d92cbea33e95cc4d4536885036e5648ac81286fc7f049a843e7071c8d1d11f8affffffff02fd390000000000001976a9143560c25329f205e64e13da30523b2777b8c06fbb88ac023d0000000000001976a914136bba125a55a28760cdb784046b8fe7a0c4bbf188ac00000000", "vin": [{"sequence": 4294967295, "scriptSig": {"hex": "483045022100dca4999d6eb656633691311b7cc77c50befd3064d3c27b7e4d8e6808af78ff35022057d15f8f293adb09fc1eda63d7e6245d53f7246e2490d07538b203753c5f4833012102d92cbea33e95cc4d4536885036e5648ac81286fc7f049a843e7071c8d1d11f8a", "asm": "3045022100dca4999d6eb656633691311b7cc77c50befd3064d3c27b7e4d8e6808af78ff35022057d15f8f293adb09fc1eda63d7e6245d53f7246e2490d07538b203753c5f4833[ALL] 02d92cbea33e95cc4d4536885036e5648ac81286fc7f049a843e7071c8d1d11f8a"}, "vout": 0, "txid": "2f9e124219de9c2537cefe6198ac82fe08ad581e6e9c147ef79508418facecca"}], "txid": "6d35e8a2137e90cf4bf60c8038bd5c3dcaa5cfbcedf4315ded399cf1f992ad04", "blocktime": 1537873282, "version": 1, "confirmations": 11485, "time": 1537873282, "locktime": 0, "vsize": 226, "size": 226}