{"hash": "6d378415ab4dfb154aa7d654b3e84b902b489e195b425349b1b4d07dddc725de", "blockhash": "0000000000000000000e13cef7c366c0283d82e591d1acd082e914b08063cdf1", "vout": [{"scriptPubKey": {"reqSigs": 1, "hex": "76a91496fe2eee95782f775f8c39530e9a3ef102d0345b88ac", "addresses": ["1EmNrk2T2u42zKinY7gwU1CUu5BpdCvKEW"], "asm": "OP_DUP OP_HASH160 96fe2eee95782f775f8c39530e9a3ef102d0345b OP_EQUALVERIFY OP_CHECKSIG", "type": "pubkeyhash"}, "value": 0.0015624, "n": 0}, {"scriptPubKey": {"reqSigs": 1, "hex": "76a914f33d3223d5f6de60f6df069875159488fe31572688ac", "addresses": ["1PB8WaWBGFvigKMyBm41NoxcpwSgmjM7BH"], "asm": "OP_DUP OP_HASH160 f33d3223d5f6de60f6df069875159488fe315726 OP_EQUALVERIFY OP_CHECKSIG", "type": "pubkeyhash"}, "value": 0.00410188, "n": 1}], "hex": "01000000016d86a54d9159794864d50fa6fb584f66da774cdc4bcb7ebc08aff25506123bf2010000006a47304402207a461de11f668b8ee39fb2bbcd6bfd5794cecbdec26c236693a3e7a7325ea3cc02202a1a94a59b42553e142a717dad50ab3b162219ceb32187dcf1f262e57d1fdf1a012102d1496b86c4846b857c85d4c4f3e3d4e3eb08130f128cb4ea5a924d206a7fd392ffffffff0250620200000000001976a91496fe2eee95782f775f8c39530e9a3ef102d0345b88ac4c420600000000001976a914f33d3223d5f6de60f6df069875159488fe31572688ac00000000", "vin": [{"sequence": 4294967295, "scriptSig": {"hex": "47304402207a461de11f668b8ee39fb2bbcd6bfd5794cecbdec26c236693a3e7a7325ea3cc02202a1a94a59b42553e142a717dad50ab3b162219ceb32187dcf1f262e57d1fdf1a012102d1496b86c4846b857c85d4c4f3e3d4e3eb08130f128cb4ea5a924d206a7fd392", "asm": "304402207a461de11f668b8ee39fb2bbcd6bfd5794cecbdec26c236693a3e7a7325ea3cc02202a1a94a59b42553e142a717dad50ab3b162219ceb32187dcf1f262e57d1fdf1a[ALL] 02d1496b86c4846b857c85d4c4f3e3d4e3eb08130f128cb4ea5a924d206a7fd392"}, "vout": 1, "txid": "f23b120655f2af08bc7ecb4bdc4c77da664f58fba60fd564487959914da5866d"}], "txid": "6d378415ab4dfb154aa7d654b3e84b902b489e195b425349b1b4d07dddc725de", "blocktime": 1537871767, "version": 1, "confirmations": 11495, "time": 1537871767, "locktime": 0, "vsize": 225, "size": 225}