{"hash": "6d45b1ff81cd1a2f3328a04daf45653e18e6126103ede923af5a4228e61d0905", "blockhash": "0000000000000000001f76057863aec43deb6fa401d9628bb513d65a8098bfab", "vout": [{"scriptPubKey": {"reqSigs": 1, "hex": "76a91476c0f5ed16f851df6a74f86018c0570622679ac788ac", "addresses": ["1Bputn4Zk5uJUKGT7zyhxLCYZGrMXmCZGA"], "asm": "OP_DUP OP_HASH160 76c0f5ed16f851df6a74f86018c0570622679ac7 OP_EQUALVERIFY OP_CHECKSIG", "type": "pubkeyhash"}, "value": 0.00231992, "n": 0}, {"scriptPubKey": {"reqSigs": 1, "hex": "76a914444ef461197359293cbc5ee9e54360b74e8fef1c88ac", "addresses": ["17EBXubB23UsDJ7oknryQHHWT7NejttQZy"], "asm": "OP_DUP OP_HASH160 444ef461197359293cbc5ee9e54360b74e8fef1c OP_EQUALVERIFY OP_CHECKSIG", "type": "pubkeyhash"}, "value": 0.00693834, "n": 1}], "hex": "01000000010ff03f5674bc88b714b3a3b8d159eaed540e3803c292ba0696d3c26a87265ff4000000006b483045022100939207efbfb6a03293e9c8582d90a4c8351ccd88f27ca9daf97d3779f661ecfe02201b8634a9be1b81941611c831dfa1f609c699d9da3b1e0f7b9956b1825a9ebdfc01210242c90844e5587ba19447eef8b2ea84c4d4140f31364c7b27680262469572274cffffffff02388a0300000000001976a91476c0f5ed16f851df6a74f86018c0570622679ac788ac4a960a00000000001976a914444ef461197359293cbc5ee9e54360b74e8fef1c88ac00000000", "vin": [{"sequence": 4294967295, "scriptSig": {"hex": "483045022100939207efbfb6a03293e9c8582d90a4c8351ccd88f27ca9daf97d3779f661ecfe02201b8634a9be1b81941611c831dfa1f609c699d9da3b1e0f7b9956b1825a9ebdfc01210242c90844e5587ba19447eef8b2ea84c4d4140f31364c7b27680262469572274c", "asm": "3045022100939207efbfb6a03293e9c8582d90a4c8351ccd88f27ca9daf97d3779f661ecfe02201b8634a9be1b81941611c831dfa1f609c699d9da3b1e0f7b9956b1825a9ebdfc[ALL] 0242c90844e5587ba19447eef8b2ea84c4d4140f31364c7b27680262469572274c"}, "vout": 0, "txid": "f45f26876ac2d39606ba92c203380e54edea59d1b8a3b314b788bc74563ff00f"}], "txid": "6d45b1ff81cd1a2f3328a04daf45653e18e6126103ede923af5a4228e61d0905", "blocktime": 1537873891, "version": 1, "confirmations": 11478, "time": 1537873891, "locktime": 0, "vsize": 226, "size": 226}