{"hash": "6d4b8e1e0bee31e59d2cb17cbbede7aab9983037514420a0fab40d723c4665e7", "blockhash": "00000000000000000024a2167bbff67b0be802c0b01cdd79e6331c2be6459f87", "vout": [{"scriptPubKey": {"reqSigs": 1, "hex": "76a914d062358932e8555f582bc50c50bbc69072a4f64f88ac", "addresses": ["1KzqCbEuhNiaeUSA1Zziuhj5NVobuaLBGq"], "asm": "OP_DUP OP_HASH160 d062358932e8555f582bc50c50bbc69072a4f64f OP_EQUALVERIFY OP_CHECKSIG", "type": "pubkeyhash"}, "value": 0.00054249, "n": 0}], "hex": "0100000001cb922e4ffee4c7b3a41e685b93fdcd595328c30230c18e4d095153a107b0fd9d000000006a4730440220327686e037f903d7d2b139ef9777a33d1fd8bbf55ab3d2e98bb5e8fc670db4a202207dee6743e3cbc7933061ad028329569741bab6adf0766e593c94a457cc45f4b90121034cae8900c1e7c20368eeab4a1f1071ad0ff001d7b2e2758c303fcdc69a4b9b57ffffffff01e9d30000000000001976a914d062358932e8555f582bc50c50bbc69072a4f64f88ac00000000", "vin": [{"sequence": 4294967295, "scriptSig": {"hex": "4730440220327686e037f903d7d2b139ef9777a33d1fd8bbf55ab3d2e98bb5e8fc670db4a202207dee6743e3cbc7933061ad028329569741bab6adf0766e593c94a457cc45f4b90121034cae8900c1e7c20368eeab4a1f1071ad0ff001d7b2e2758c303fcdc69a4b9b57", "asm": "30440220327686e037f903d7d2b139ef9777a33d1fd8bbf55ab3d2e98bb5e8fc670db4a202207dee6743e3cbc7933061ad028329569741bab6adf0766e593c94a457cc45f4b9[ALL] 034cae8900c1e7c20368eeab4a1f1071ad0ff001d7b2e2758c303fcdc69a4b9b57"}, "vout": 0, "txid": "9dfdb007a15351094d8ec13002c3285359cdfd935b681ea4b3c7e4fe4f2e92cb"}], "txid": "6d4b8e1e0bee31e59d2cb17cbbede7aab9983037514420a0fab40d723c4665e7", "blocktime": 1537870564, "version": 1, "confirmations": 11515, "time": 1537870564, "locktime": 0, "vsize": 191, "size": 191}