{"hash": "6d4c51a2b2756ee110d0871dfba773f0106bcb6d36c99003beba76a520b0f1bd", "blockhash": "0000000000000000001cda96e906b7601b7a6fb1a3b62bca570a9e5d8f4b3de1", "vout": [{"scriptPubKey": {"reqSigs": 1, "hex": "76a914f7869268e4e223bda9b93c3b8b083e8d3a3c413388ac", "addresses": ["1PZo7bwzMqRphQoLHempoMNXVxVkkTPd1i"], "asm": "OP_DUP OP_HASH160 f7869268e4e223bda9b93c3b8b083e8d3a3c4133 OP_EQUALVERIFY OP_CHECKSIG", "type": "pubkeyhash"}, "value": 0.02, "n": 0}, {"scriptPubKey": {"reqSigs": 1, "hex": "76a914cb2a21454c47cfaf5f897d218f54194723f0812688ac", "addresses": ["1KXEeBbqBxxnyPzjZ3U1TXqSb8Eok9XaSP"], "asm": "OP_DUP OP_HASH160 cb2a21454c47cfaf5f897d218f54194723f08126 OP_EQUALVERIFY OP_CHECKSIG", "type": "pubkeyhash"}, "value": 0.03107058, "n": 1}], "hex": "0100000001321d52895ca6e21af40bfa0d7d1fd5cb576efbb59a8173604b1739e3d49797b4010000006b483045022100e4f4ccfc3df907276ceca9f051724269b6adf82f53b71f57637036013d25288002200eec52350d56879e5ff113f2794a14fdf467c81288e5d35ba0d5728bcef790a80121039e3738750f440f5443e804ff20ad8307d20c01f2c51111412658969c81ea5a99fdffffff0280841e00000000001976a914f7869268e4e223bda9b93c3b8b083e8d3a3c413388acf2682f00000000001976a914cb2a21454c47cfaf5f897d218f54194723f0812688ac13490800", "vin": [{"sequence": 4294967293, "scriptSig": {"hex": "483045022100e4f4ccfc3df907276ceca9f051724269b6adf82f53b71f57637036013d25288002200eec52350d56879e5ff113f2794a14fdf467c81288e5d35ba0d5728bcef790a80121039e3738750f440f5443e804ff20ad8307d20c01f2c51111412658969c81ea5a99", "asm": "3045022100e4f4ccfc3df907276ceca9f051724269b6adf82f53b71f57637036013d25288002200eec52350d56879e5ff113f2794a14fdf467c81288e5d35ba0d5728bcef790a8[ALL] 039e3738750f440f5443e804ff20ad8307d20c01f2c51111412658969c81ea5a99"}, "vout": 1, "txid": "b49797d4e339174b6073819ab5fb6e57cbd51f7d0dfa0bf41ae2a65c89521d32"}], "txid": "6d4c51a2b2756ee110d0871dfba773f0106bcb6d36c99003beba76a520b0f1bd", "blocktime": 1537873282, "version": 1, "confirmations": 11485, "time": 1537873282, "locktime": 542995, "vsize": 226, "size": 226}