{"hash": "6d5ab68de288b1779d62f153bba840d720e6727f81a2399b0567bc9456119a4b", "blockhash": "0000000000000000001cda96e906b7601b7a6fb1a3b62bca570a9e5d8f4b3de1", "vout": [{"scriptPubKey": {"reqSigs": 1, "hex": "76a9140d9484d61d95705166dcd6bda28fdae6616559f188ac", "addresses": ["12EohmWJREzehceFaAt2xv2YUVikqphgEG"], "asm": "OP_DUP OP_HASH160 0d9484d61d95705166dcd6bda28fdae6616559f1 OP_EQUALVERIFY OP_CHECKSIG", "type": "pubkeyhash"}, "value": 0.3480004, "n": 0}, {"scriptPubKey": {"reqSigs": 1, "hex": "a91492afc081020e255820e33657679e417ea65867d187", "addresses": ["3F4d81e7P1MqyqcuoExLEP79YrtrRU3mw5"], "asm": "OP_HASH160 92afc081020e255820e33657679e417ea65867d1 OP_EQUAL", "type": "scripthash"}, "value": 0.48308801, "n": 1}], "hex": "0200000001b5b1ba262c939b21e7b81b91c578bedf262b08f9d6ea514749b3d4bcb415c5884a0000006b483045022100e17791300b93c044368003deb5f418658df2cd12e8c4b1e960e6ecc5109a3f0702206e8bcf5634e1e308b9048d0ed14948a631cabb1ef7c0a09ef110a3cb0ea6c2360121030168722350c07162c63a1ea4952ff4ae48f4a66fe156aa92ae49554dab687eb3feffffff02a8011302000000001976a9140d9484d61d95705166dcd6bda28fdae6616559f188ac4122e1020000000017a91492afc081020e255820e33657679e417ea65867d18713490800", "vin": [{"sequence": 4294967294, "scriptSig": {"hex": "483045022100e17791300b93c044368003deb5f418658df2cd12e8c4b1e960e6ecc5109a3f0702206e8bcf5634e1e308b9048d0ed14948a631cabb1ef7c0a09ef110a3cb0ea6c2360121030168722350c07162c63a1ea4952ff4ae48f4a66fe156aa92ae49554dab687eb3", "asm": "3045022100e17791300b93c044368003deb5f418658df2cd12e8c4b1e960e6ecc5109a3f0702206e8bcf5634e1e308b9048d0ed14948a631cabb1ef7c0a09ef110a3cb0ea6c236[ALL] 030168722350c07162c63a1ea4952ff4ae48f4a66fe156aa92ae49554dab687eb3"}, "vout": 74, "txid": "88c515b4bcd4b3494751ead6f9082b26dfbe78c5911bb8e7219b932c26bab1b5"}], "txid": "6d5ab68de288b1779d62f153bba840d720e6727f81a2399b0567bc9456119a4b", "blocktime": 1537873282, "version": 2, "confirmations": 11480, "time": 1537873282, "locktime": 542995, "vsize": 224, "size": 224}