{"hash": "0580ad11e4ef68469e4e79d7fcf37ff464462617d231d20848044038c8603048", "blockhash": "0000000000000000001cda96e906b7601b7a6fb1a3b62bca570a9e5d8f4b3de1", "vout": [{"scriptPubKey": {"reqSigs": 1, "hex": "76a914cfb5300e719a9bd0f4323f57030ae4919f8e3ccd88ac", "addresses": ["1KwFvrSWtFY3wdP6tbWb6ni3nYUQ9k7aPX"], "asm": "OP_DUP OP_HASH160 cfb5300e719a9bd0f4323f57030ae4919f8e3ccd OP_EQUALVERIFY OP_CHECKSIG", "type": "pubkeyhash"}, "value": 0.00206693, "n": 0}, {"scriptPubKey": {"reqSigs": 1, "hex": "a91408c364340a91e77e4376b26fdad3b5aedc5661f787", "addresses": ["32VMQ7Th4qGhbDYY68FZrfSF9hTbsPivgt"], "asm": "OP_HASH160 08c364340a91e77e4376b26fdad3b5aedc5661f7 OP_EQUAL", "type": "scripthash"}, "value": 0.0302008, "n": 1}], "hex": "0100000000010188fb577286fd3479090859fb8cc8ed883093575ad36e916a25e112516ef971ad010000002322002027561ef61439ff4994ea3793249bbb358319edb59fff63c1eeada48f299e81b5ffffffff0265270300000000001976a914cfb5300e719a9bd0f4323f57030ae4919f8e3ccd88ac30152e000000000017a91408c364340a91e77e4376b26fdad3b5aedc5661f787040047304402204513df7b0e8f2013ed0c7338b0f6e5b1b91fefebc2373fefb1e701383997ac8a02203b05297295fdbec3770fe2a614cc1460baa11726f38c3180798b4a6e002b61f3014730440220799089b90053f30ec2f167ce53b8ea533277b5f17caa08e3dd493d276c39a9ef022062eb1d5e617e57b426b0414d91a64c15176f117100ba5f4dc0a3ae9d5a01c8d40147522102f484437eae67e7d1f9cf7235bd52510c99f379408a1f6fe737011d4bc259358a2103871fc2ca08e6950b38867e8e6a0e94ee625223d3aa0df5c65f414c6d784467e252ae00000000", "vin": [{"txinwitness": ["", "304402204513df7b0e8f2013ed0c7338b0f6e5b1b91fefebc2373fefb1e701383997ac8a02203b05297295fdbec3770fe2a614cc1460baa11726f38c3180798b4a6e002b61f301", "30440220799089b90053f30ec2f167ce53b8ea533277b5f17caa08e3dd493d276c39a9ef022062eb1d5e617e57b426b0414d91a64c15176f117100ba5f4dc0a3ae9d5a01c8d401", "522102f484437eae67e7d1f9cf7235bd52510c99f379408a1f6fe737011d4bc259358a2103871fc2ca08e6950b38867e8e6a0e94ee625223d3aa0df5c65f414c6d784467e252ae"], "sequence": 4294967295, "scriptSig": {"hex": "22002027561ef61439ff4994ea3793249bbb358319edb59fff63c1eeada48f299e81b5", "asm": "002027561ef61439ff4994ea3793249bbb358319edb59fff63c1eeada48f299e81b5"}, "vout": 1, "txid": "ad71f96e5112e1256a916ed35a57933088edc88cfb5908097934fd867257fb88"}], "txid": "6d5b2b01d2349cbb521b5c4819ab52edd2acff3f6d4651f021f7644a62fa2ec6", "blocktime": 1537873282, "version": 1, "confirmations": 11484, "time": 1537873282, "locktime": 0, "vsize": 207, "size": 372}