{"hash": "bf8a8ca667e6eca2a23b2685a8984fc43b0adf8e74ace0ad11e8eb491aeae031", "blockhash": "0000000000000000001cda96e906b7601b7a6fb1a3b62bca570a9e5d8f4b3de1", "vout": [{"scriptPubKey": {"reqSigs": 1, "hex": "0014a8dcc1328111de2c93780670ceb02d40ff2e130c", "addresses": ["bc1q4rwvzv5pz80zeymcqecvavpdgrljuycv52ssmc"], "asm": "0 a8dcc1328111de2c93780670ceb02d40ff2e130c", "type": "witness_v0_keyhash"}, "value": 1.132e-05, "n": 0}, {"scriptPubKey": {"reqSigs": 1, "hex": "76a914b164ab90f97a1da15e431fe498914834b8e1570988ac", "addresses": ["1HAyCeAaLoh1LYfB5VZkixPsH3VJ9A7Usb"], "asm": "OP_DUP OP_HASH160 b164ab90f97a1da15e431fe498914834b8e15709 OP_EQUALVERIFY OP_CHECKSIG", "type": "pubkeyhash"}, "value": 0.00067937, "n": 1}], "hex": "010000000001014e4bea016c329b51047cf841f768555731a7e9eec60a7c1937956bafcff6c7220100000000ffffffff026c04000000000000160014a8dcc1328111de2c93780670ceb02d40ff2e130c61090100000000001976a914b164ab90f97a1da15e431fe498914834b8e1570988ac02483045022100b9c323c06cc73a9e59f655a5609a59163d04e6354f34e26d7cd71858e54b8fcd02201cd6e2c23539ec305dd7d5a78e21c2d755bd53225bb44b3636215e856ecfeda1012103b73cafdf7aacc78676b7bfe859bda706716dc1be6466cce8c29a7fa8a7b6958f00000000", "vin": [{"txinwitness": ["3045022100b9c323c06cc73a9e59f655a5609a59163d04e6354f34e26d7cd71858e54b8fcd02201cd6e2c23539ec305dd7d5a78e21c2d755bd53225bb44b3636215e856ecfeda101", "03b73cafdf7aacc78676b7bfe859bda706716dc1be6466cce8c29a7fa8a7b6958f"], "sequence": 4294967295, "scriptSig": {"hex": "", "asm": ""}, "vout": 1, "txid": "22c7f6cfaf6b9537197c0ac6eee9a731575568f741f87c04519b326c01ea4b4e"}], "txid": "6d63b225b934fbc72a7e71c3287c149351a505820d519e847ceb4fa02a1e0f96", "blocktime": 1537873282, "version": 1, "confirmations": 11484, "time": 1537873282, "locktime": 0, "vsize": 144, "size": 226}