{"hash": "56832212a57824878bf68033627af71b3582bd147ace8992588cd934a1b44b66", "blockhash": "00000000000000000004ffacab907a6b429b9a5745fa0b75af4234bf69dd7176", "vout": [{"scriptPubKey": {"reqSigs": 1, "hex": "a914e7f6008f3f326e93da7121860fd7c9fb06a1b1c687", "addresses": ["3NqWiPTpivKDN1AwKpV9EhjzZZwTDwSwLv"], "asm": "OP_HASH160 e7f6008f3f326e93da7121860fd7c9fb06a1b1c6 OP_EQUAL", "type": "scripthash"}, "value": 1.025e-05, "n": 0}, {"scriptPubKey": {"reqSigs": 1, "hex": "a9141d7370ccde4590204155e4074f69743a8e4fac0287", "addresses": ["34Njp4ZKtmCDfqqps26wHBYQQGUo2pGkLi"], "asm": "OP_HASH160 1d7370ccde4590204155e4074f69743a8e4fac02 OP_EQUAL", "type": "scripthash"}, "value": 0.01158016, "n": 1}], "hex": "010000000001011f08c4411d1327589cc8ce7e0e5cbe748120be040cc2d17bbf08abdaa5f412cd0100000023220020f63dfc12340f6360d0251c22746d6b56093e3243e96ca012a65484a5d9cf0ec0ffffffff02010400000000000017a914e7f6008f3f326e93da7121860fd7c9fb06a1b1c68780ab11000000000017a9141d7370ccde4590204155e4074f69743a8e4fac02870400473044022004e18b6d65a10ffedea3849f3a1df5529d6b77a959e1d6f5dba926d961b42f530220024b58c35d6a7e218571e0dbf4a85a3e24c99ce356f64536c2c6821696889109014730440220086f66d0d331998cb6633486294406384a91a65ae5ca07c1b24b63e93d87fed1022076e20a8961c4f008c1bbb72fda643c456995bc0fa6df7f96372c6e685c0056790147522102097067a6a0cc130a9a6f6577b47bf369b840a79de31cd7457187994266b1bb7c2103338f346cab6ba87fe940591a03ac234be06520c5ab386d4b6632e8eef0d0db7652ae00000000", "vin": [{"txinwitness": ["", "3044022004e18b6d65a10ffedea3849f3a1df5529d6b77a959e1d6f5dba926d961b42f530220024b58c35d6a7e218571e0dbf4a85a3e24c99ce356f64536c2c682169688910901", "30440220086f66d0d331998cb6633486294406384a91a65ae5ca07c1b24b63e93d87fed1022076e20a8961c4f008c1bbb72fda643c456995bc0fa6df7f96372c6e685c00567901", "522102097067a6a0cc130a9a6f6577b47bf369b840a79de31cd7457187994266b1bb7c2103338f346cab6ba87fe940591a03ac234be06520c5ab386d4b6632e8eef0d0db7652ae"], "sequence": 4294967295, "scriptSig": {"hex": "220020f63dfc12340f6360d0251c22746d6b56093e3243e96ca012a65484a5d9cf0ec0", "asm": "0020f63dfc12340f6360d0251c22746d6b56093e3243e96ca012a65484a5d9cf0ec0"}, "vout": 1, "txid": "cd12f4a5daab08bf7bd1c20c04be208174be5c0e7ecec89c5827131d41c4081f"}], "txid": "6d6b453ce0b489dee1397813759ccc4cb0818bf4b87375e54dd4b73e49f407c1", "blocktime": 1537875543, "version": 1, "confirmations": 11464, "time": 1537875543, "locktime": 0, "vsize": 205, "size": 370}