{"hash": "6d6e56594d7914b18c3295e6f3091ba29c3dac3905dc1f7235b5d3107cc42c49", "blockhash": "00000000000000000024a2167bbff67b0be802c0b01cdd79e6331c2be6459f87", "vout": [{"scriptPubKey": {"reqSigs": 1, "hex": "76a9148d6647077e89421af81c5804a2140c7782a0489888ac", "addresses": ["1DteoQontYBStprrdBEjdRoZJH8v3ni1ud"], "asm": "OP_DUP OP_HASH160 8d6647077e89421af81c5804a2140c7782a04898 OP_EQUALVERIFY OP_CHECKSIG", "type": "pubkeyhash"}, "value": 7.756e-05, "n": 0}, {"scriptPubKey": {"reqSigs": 1, "hex": "76a91428bb82cee12c59252788cf0f97f86bf1370c5b2488ac", "addresses": ["14iNfAVuHQFudBXdNu8sKsS24jpQCpz64N"], "asm": "OP_DUP OP_HASH160 28bb82cee12c59252788cf0f97f86bf1370c5b24 OP_EQUALVERIFY OP_CHECKSIG", "type": "pubkeyhash"}, "value": 0.0004, "n": 1}], "hex": "010000000164b938ab99604f02a6dee8943107fe96fe3016da76b40ddc4bdd77d9dc2d06e4000000006a4730440220360ba10df04e17a1a659313e7e993016b0e13a63019d33b6a01c90f7a0b75d8602202c6c1ee5afdc3f5fe3c0b4ab7761be41c5e951f778996182fa946ac5f7dcccf601210244125f7bfaf4595180238c8beeca339f666474bac76a2d9658f5e24a4691d680ffffffff024c1e0000000000001976a9148d6647077e89421af81c5804a2140c7782a0489888ac409c0000000000001976a91428bb82cee12c59252788cf0f97f86bf1370c5b2488ac00000000", "vin": [{"sequence": 4294967295, "scriptSig": {"hex": "4730440220360ba10df04e17a1a659313e7e993016b0e13a63019d33b6a01c90f7a0b75d8602202c6c1ee5afdc3f5fe3c0b4ab7761be41c5e951f778996182fa946ac5f7dcccf601210244125f7bfaf4595180238c8beeca339f666474bac76a2d9658f5e24a4691d680", "asm": "30440220360ba10df04e17a1a659313e7e993016b0e13a63019d33b6a01c90f7a0b75d8602202c6c1ee5afdc3f5fe3c0b4ab7761be41c5e951f778996182fa946ac5f7dcccf6[ALL] 0244125f7bfaf4595180238c8beeca339f666474bac76a2d9658f5e24a4691d680"}, "vout": 0, "txid": "e4062ddcd977dd4bdc0db476da1630fe96fe073194e8dea6024f6099ab38b964"}], "txid": "6d6e56594d7914b18c3295e6f3091ba29c3dac3905dc1f7235b5d3107cc42c49", "blocktime": 1537870564, "version": 1, "confirmations": 11515, "time": 1537870564, "locktime": 0, "vsize": 225, "size": 225}