{"hash": "bc6573d9aac6c34aa36898479037216f0aea286f68c21ac7286c0102ea8e2e05", "blockhash": "00000000000000000024a2167bbff67b0be802c0b01cdd79e6331c2be6459f87", "vout": [{"scriptPubKey": {"reqSigs": 1, "hex": "a914ec8961bbed94bc4063ecb860413a490b94c65c8987", "addresses": ["3PFhyGYE7m4GBsGTjwic7J37M498beBwBj"], "asm": "OP_HASH160 ec8961bbed94bc4063ecb860413a490b94c65c89 OP_EQUAL", "type": "scripthash"}, "value": 13.05478775, "n": 0}, {"scriptPubKey": {"reqSigs": 1, "hex": "76a914b887f2247943a9b699a1bcbefdf43f7d9cd6f42e88ac", "addresses": ["1HpiByvLXgvMH1pYRbj9XHQDZ9DuaZLn56"], "asm": "OP_DUP OP_HASH160 b887f2247943a9b699a1bcbefdf43f7d9cd6f42e OP_EQUALVERIFY OP_CHECKSIG", "type": "pubkeyhash"}, "value": 0.1, "n": 1}], "hex": "02000000000101a8f9c890190b6e40befb0576aa3c50b1b0f3ff3462ecba10df338699a97d22090000000017160014330fcbc8812ae5a8d12404ba0d3b230524dcdc4efeffffff027706d04d0000000017a914ec8961bbed94bc4063ecb860413a490b94c65c898780969800000000001976a914b887f2247943a9b699a1bcbefdf43f7d9cd6f42e88ac0247304402203367b1fabfb4028d3b386c937cfa201af6149792694ca3d3d57f5ba1c1178c97022003c22416f95b7593103808bd619c8fef979c90a7a4cc19d4f7f1396bc9aae69c012103cb41a3f373d3603024a03746b00c164c2e040c2218b44a48fb29bff974a5ce210d490800", "vin": [{"txinwitness": ["304402203367b1fabfb4028d3b386c937cfa201af6149792694ca3d3d57f5ba1c1178c97022003c22416f95b7593103808bd619c8fef979c90a7a4cc19d4f7f1396bc9aae69c01", "03cb41a3f373d3603024a03746b00c164c2e040c2218b44a48fb29bff974a5ce21"], "sequence": 4294967294, "scriptSig": {"hex": "160014330fcbc8812ae5a8d12404ba0d3b230524dcdc4e", "asm": "0014330fcbc8812ae5a8d12404ba0d3b230524dcdc4e"}, "vout": 0, "txid": "09227da9998633df10baec6234fff3b0b1503caa7605fbbe406e0b1990c8f9a8"}], "txid": "6d6f2dd62a6f705f00e0925c37f6cf0f094f86c3644b546dd2a30618dac0444a", "blocktime": 1537870564, "version": 2, "confirmations": 11515, "time": 1537870564, "locktime": 542989, "vsize": 168, "size": 249}