{"hash": "d1c6760e46ec48330a12ae85a9314802ff77422cc7bda554ab9a01217604f932", "blockhash": "0000000000000000001f0ddff1eddb255c1121bcd4da4f1bc9a0da00cae72433", "vout": [{"scriptPubKey": {"reqSigs": 1, "hex": "76a914f75ca7873bf058fe4d3ec1b6194bb645f24084a988ac", "addresses": ["1PYvu89R5i2yKKVx6pwbYom31ujcBT7bVe"], "asm": "OP_DUP OP_HASH160 f75ca7873bf058fe4d3ec1b6194bb645f24084a9 OP_EQUALVERIFY OP_CHECKSIG", "type": "pubkeyhash"}, "value": 1.0, "n": 0}, {"scriptPubKey": {"reqSigs": 1, "hex": "a9140408d5548c566605246f8ca4fd2c1367740222a487", "addresses": ["324MD4VU3gFmCMJuA1ThtUkmPX189kCi3J"], "asm": "OP_HASH160 0408d5548c566605246f8ca4fd2c1367740222a4 OP_EQUAL", "type": "scripthash"}, "value": 0.00989575, "n": 1}], "hex": "02000000000105068be64e19fdb1b08332ec327a4105eaadfb192771e6e80cc1af9b2eed2f178800000000171600144b4d93a2a460ca22e1c73bb716d107123966c62dfeffffff24550b6a7ed68311650c66c535a33bd2a93153bdd9589df9a67f734edffe21780100000017160014de185e45fa258be23e5cbbfa820dbc79867b7a67feffffff2f2dbcd928f0387e6eff239d9ba274d497b4b4cb9ec035079e4c29bb8c6d9671080000001716001439373fe0cfcc40a52d0e5b4057d19b29e1d0c67afeffffffd5d50e77983a580192ebcd17c0e4fb01b7ebd8f217cf73975a3fcb9730e17fe62600000017160014ecc011d4208b93a70e953fb4b72caf2192e3ac76feffffffe80b0e6011fb0ea22d2a81f8efdbab907d6ad55cf9d1fe2e26c558ff1eaa8b584e000000171600147c769096f1c9d3d6f4250b9628531a05be3f9a1efeffffff0200e1f505000000001976a914f75ca7873bf058fe4d3ec1b6194bb645f24084a988ac87190f000000000017a9140408d5548c566605246f8ca4fd2c1367740222a48702483045022100c53b4a2663f2608239aa7bab45fe2b4ace270ae22a212e30227dc33e695f152a022048c551840bdda7b2044602994756aff36f55c2f8e840b31c9b38a63b27d499a4012102a8673a9169c84cd41023a5ba6863aa58b24b3e00deb23148fcaf91a6f8b46cae024730440220482ea944a8289ffa245faeb04358803f7f53112a4d869a9576cc7af22637f56802203884692988efb2bdea4b4b63c201a35b71b553dc31b59ec3a83442d8385e17bb01210260dd88ebb58a1080218e20c9d3899a27f1b4f604a8e082a6451db0b31624a36302483045022100911986de52082cc1a3d084dc6d5281f87d59d58f4eea14b786818c076addd74402205f90e2a79d01a6699ccb0a9429169cd08aaa3976c08c5512ec975d4b9a36435b0121024f3f3e3d4ff355a5a8e2fb5c3043169ba9e4d860e9670854f82f600eddb821d602483045022100fe74f274705b5047a3d2780727a066360ce9d69f32871464e0f0225c8f4db7970220218229350e78e0ab9328d8f2f8df85add3957cab98664cd91a4b247d1d31da66012102a104c1cc0dbe4bd79e809838292ed37c4735ca0dbef01c7ac452241108633158024730440220338eb8e6f97c627438f301fdf1ab831a0d4f3f82a47728beed05cbf0818fc1f1022001093dc3ec8fa87be9ca9285b2594e3f25b293ccbd71548295f13aeeaf5d0268012103143fd3b8216058cfed37906671d6257d5b00dcf6df0a39410a89c6a0822375b411490800", "vin": [{"txinwitness": ["3045022100c53b4a2663f2608239aa7bab45fe2b4ace270ae22a212e30227dc33e695f152a022048c551840bdda7b2044602994756aff36f55c2f8e840b31c9b38a63b27d499a401", "02a8673a9169c84cd41023a5ba6863aa58b24b3e00deb23148fcaf91a6f8b46cae"], "sequence": 4294967294, "scriptSig": {"hex": "1600144b4d93a2a460ca22e1c73bb716d107123966c62d", "asm": "00144b4d93a2a460ca22e1c73bb716d107123966c62d"}, "vout": 0, "txid": "88172fed2e9bafc10ce8e6712719fbadea05417a32ec3283b0b1fd194ee68b06"}, {"txinwitness": ["30440220482ea944a8289ffa245faeb04358803f7f53112a4d869a9576cc7af22637f56802203884692988efb2bdea4b4b63c201a35b71b553dc31b59ec3a83442d8385e17bb01", "0260dd88ebb58a1080218e20c9d3899a27f1b4f604a8e082a6451db0b31624a363"], "sequence": 4294967294, "scriptSig": {"hex": "160014de185e45fa258be23e5cbbfa820dbc79867b7a67", "asm": "0014de185e45fa258be23e5cbbfa820dbc79867b7a67"}, "vout": 1, "txid": "7821fedf4e737fa6f99d58d9bd5331a9d23ba335c5660c651183d67e6a0b5524"}, {"txinwitness": ["3045022100911986de52082cc1a3d084dc6d5281f87d59d58f4eea14b786818c076addd74402205f90e2a79d01a6699ccb0a9429169cd08aaa3976c08c5512ec975d4b9a36435b01", "024f3f3e3d4ff355a5a8e2fb5c3043169ba9e4d860e9670854f82f600eddb821d6"], "sequence": 4294967294, "scriptSig": {"hex": "16001439373fe0cfcc40a52d0e5b4057d19b29e1d0c67a", "asm": "001439373fe0cfcc40a52d0e5b4057d19b29e1d0c67a"}, "vout": 8, "txid": "71966d8cbb294c9e0735c09ecbb4b497d474a29b9d23ff6e7e38f028d9bc2d2f"}, {"txinwitness": ["3045022100fe74f274705b5047a3d2780727a066360ce9d69f32871464e0f0225c8f4db7970220218229350e78e0ab9328d8f2f8df85add3957cab98664cd91a4b247d1d31da6601", "02a104c1cc0dbe4bd79e809838292ed37c4735ca0dbef01c7ac452241108633158"], "sequence": 4294967294, "scriptSig": {"hex": "160014ecc011d4208b93a70e953fb4b72caf2192e3ac76", "asm": "0014ecc011d4208b93a70e953fb4b72caf2192e3ac76"}, "vout": 38, "txid": "e67fe13097cb3f5a9773cf17f2d8ebb701fbe4c017cdeb9201583a98770ed5d5"}, {"txinwitness": ["30440220338eb8e6f97c627438f301fdf1ab831a0d4f3f82a47728beed05cbf0818fc1f1022001093dc3ec8fa87be9ca9285b2594e3f25b293ccbd71548295f13aeeaf5d026801", "03143fd3b8216058cfed37906671d6257d5b00dcf6df0a39410a89c6a0822375b4"], "sequence": 4294967294, "scriptSig": {"hex": "1600147c769096f1c9d3d6f4250b9628531a05be3f9a1e", "asm": "00147c769096f1c9d3d6f4250b9628531a05be3f9a1e"}, "vout": 78, "txid": "588baa1eff58c5262efed1f95cd56a7d90abdbeff8812a2da20efb11600e0be8"}], "txid": "6d6f1a3d61c6cec424e53e3562a4afbe37360feb6ef9ea2b966e1567e0e785bf", "blocktime": 1537872018, "version": 2, "confirmations": 11489, "time": 1537872018, "locktime": 542993, "vsize": 531, "size": 936}