{"hash": "6d70926b085cf8f0132c253b9fc3f7b3f6adf3bb2441f93f05df2d2480ab43d1", "blockhash": "0000000000000000000e13cef7c366c0283d82e591d1acd082e914b08063cdf1", "vout": [{"scriptPubKey": {"reqSigs": 1, "hex": "76a914d243e6abb9a60fbff430b421d2df4b7d59ec186088ac", "addresses": ["1LAnF8h3qMGx3TSwNUHVneBZUEpwE4gu3D"], "asm": "OP_DUP OP_HASH160 d243e6abb9a60fbff430b421d2df4b7d59ec1860 OP_EQUALVERIFY OP_CHECKSIG", "type": "pubkeyhash"}, "value": 0.00076972, "n": 0}, {"scriptPubKey": {"reqSigs": 1, "hex": "76a9143851f34d13937b673a7d24a1950bb5b21ce94af388ac", "addresses": ["168o1kqNquEJeR9vosUB5fw4eAwcVAgh8P"], "asm": "OP_DUP OP_HASH160 3851f34d13937b673a7d24a1950bb5b21ce94af3 OP_EQUALVERIFY OP_CHECKSIG", "type": "pubkeyhash"}, "value": 5.46e-06, "n": 1}, {"scriptPubKey": {"type": "nulldata", "hex": "6a146f6d6e69000000000000001f000000e8d4a51000", "asm": "OP_RETURN 6f6d6e69000000000000001f000000e8d4a51000"}, "value": 0.0, "n": 2}], "hex": "010000000205bf1c27756a7fd7041ed49f31a2792dc68df3d74215681229a12096b9d88c5a010000006b483045022100d6459aa66588038cc4de7a06d14fcb1ea83635b4f5d1e31c2503417defc205d00220633ce7429b41af2b63e0559d77c13c0a637faeffe987cbd4a51e3623ca28bbc90121034df4fcd1e28b325b48e1e04af8faba0c402c7c18c5bf677cb76abda87974171effffffff25bf6f806184c9ae0805c8c583eaf414649feaffd4a188206010906a56aa9b1a000000006a4730440220031319e7657a291f59cf285f4fab3f5b0b4ac9acee43b7369323bff5e6fa057302205df9fc15ef7bbe321f6d2c1ebc3bbd28ff5a8df1b52fe0b20e3a77248cbc72f001210271977291b74f1f5f5c42157e8aae804664eaaeccfd097918450d37f28fb94d77ffffffff03ac2c0100000000001976a914d243e6abb9a60fbff430b421d2df4b7d59ec186088ac22020000000000001976a9143851f34d13937b673a7d24a1950bb5b21ce94af388ac0000000000000000166a146f6d6e69000000000000001f000000e8d4a5100000000000", "vin": [{"sequence": 4294967295, "scriptSig": {"hex": "483045022100d6459aa66588038cc4de7a06d14fcb1ea83635b4f5d1e31c2503417defc205d00220633ce7429b41af2b63e0559d77c13c0a637faeffe987cbd4a51e3623ca28bbc90121034df4fcd1e28b325b48e1e04af8faba0c402c7c18c5bf677cb76abda87974171e", "asm": "3045022100d6459aa66588038cc4de7a06d14fcb1ea83635b4f5d1e31c2503417defc205d00220633ce7429b41af2b63e0559d77c13c0a637faeffe987cbd4a51e3623ca28bbc9[ALL] 034df4fcd1e28b325b48e1e04af8faba0c402c7c18c5bf677cb76abda87974171e"}, "vout": 1, "txid": "5a8cd8b99620a12912681542d7f38dc62d79a2319fd41e04d77f6a75271cbf05"}, {"sequence": 4294967295, "scriptSig": {"hex": "4730440220031319e7657a291f59cf285f4fab3f5b0b4ac9acee43b7369323bff5e6fa057302205df9fc15ef7bbe321f6d2c1ebc3bbd28ff5a8df1b52fe0b20e3a77248cbc72f001210271977291b74f1f5f5c42157e8aae804664eaaeccfd097918450d37f28fb94d77", "asm": "30440220031319e7657a291f59cf285f4fab3f5b0b4ac9acee43b7369323bff5e6fa057302205df9fc15ef7bbe321f6d2c1ebc3bbd28ff5a8df1b52fe0b20e3a77248cbc72f0[ALL] 0271977291b74f1f5f5c42157e8aae804664eaaeccfd097918450d37f28fb94d77"}, "vout": 0, "txid": "1a9baa566a9010602088a1d4ffea9f6414f4ea83c5c80508aec98461806fbf25"}], "txid": "6d70926b085cf8f0132c253b9fc3f7b3f6adf3bb2441f93f05df2d2480ab43d1", "blocktime": 1537871767, "version": 1, "confirmations": 11491, "time": 1537871767, "locktime": 0, "vsize": 404, "size": 404}