{"hash": "58664f6aade06fc7d200a6adf9228e94560dbdb35ebb7af2d01e83ea838d30f3", "blockhash": "0000000000000000000dcc0f55137456b1a82d3642486a52398922ac4d620174", "vout": [{"scriptPubKey": {"reqSigs": 1, "hex": "a9144609e044949faef9b98d90c56bc7800ef90059ff87", "addresses": ["385M4AuawrY5LjrCq2WvifGFgweVTyJUSq"], "asm": "OP_HASH160 4609e044949faef9b98d90c56bc7800ef90059ff OP_EQUAL", "type": "scripthash"}, "value": 0.00303069, "n": 0}, {"scriptPubKey": {"reqSigs": 1, "hex": "a91408c364340a91e77e4376b26fdad3b5aedc5661f787", "addresses": ["32VMQ7Th4qGhbDYY68FZrfSF9hTbsPivgt"], "asm": "OP_HASH160 08c364340a91e77e4376b26fdad3b5aedc5661f7 OP_EQUAL", "type": "scripthash"}, "value": 0.07900948, "n": 1}], "hex": "0100000000010121c79c25d9f4a6a43c74801b67ff4e153d739fa9c0b8787c17562c550691f95c010000002322002027561ef61439ff4994ea3793249bbb358319edb59fff63c1eeada48f299e81b5ffffffff02dd9f04000000000017a9144609e044949faef9b98d90c56bc7800ef90059ff87148f78000000000017a91408c364340a91e77e4376b26fdad3b5aedc5661f78704004730440220793f93cb02463d9679d51d57aa9732a80cec6088d06e0fe2e47f871d9dd49231022059a0777099c29e0e7cd710c7ac101b50e2e7e3f31100319030b153473daf95c9014830450221008034c6a503c6283a059f3583d490281a27e851aa62373d3dc8b61e8b1ba8a0690220433f8ae19ab48a093b75e8b76247ed28cafeb5154b8d2b93f0e4d4fd1da27adc0147522102f484437eae67e7d1f9cf7235bd52510c99f379408a1f6fe737011d4bc259358a2103871fc2ca08e6950b38867e8e6a0e94ee625223d3aa0df5c65f414c6d784467e252ae00000000", "vin": [{"txinwitness": ["", "30440220793f93cb02463d9679d51d57aa9732a80cec6088d06e0fe2e47f871d9dd49231022059a0777099c29e0e7cd710c7ac101b50e2e7e3f31100319030b153473daf95c901", "30450221008034c6a503c6283a059f3583d490281a27e851aa62373d3dc8b61e8b1ba8a0690220433f8ae19ab48a093b75e8b76247ed28cafeb5154b8d2b93f0e4d4fd1da27adc01", "522102f484437eae67e7d1f9cf7235bd52510c99f379408a1f6fe737011d4bc259358a2103871fc2ca08e6950b38867e8e6a0e94ee625223d3aa0df5c65f414c6d784467e252ae"], "sequence": 4294967295, "scriptSig": {"hex": "22002027561ef61439ff4994ea3793249bbb358319edb59fff63c1eeada48f299e81b5", "asm": "002027561ef61439ff4994ea3793249bbb358319edb59fff63c1eeada48f299e81b5"}, "vout": 1, "txid": "5cf99106552c56177c78b8c0a99f733d154eff671b80743ca4a6f4d9259cc721"}], "txid": "6d746693d78834cc76a8e912eeb56b01cbc372435b041f27700855cc17fdc694", "blocktime": 1537870268, "version": 1, "confirmations": 11518, "time": 1537870268, "locktime": 0, "vsize": 206, "size": 371}