{"hash": "9f2979057fe7b1e3731d1f14fb3335ee3d89e34181fae92a1cb41709d40fdac9", "blockhash": "00000000000000000024a2167bbff67b0be802c0b01cdd79e6331c2be6459f87", "vout": [{"scriptPubKey": {"reqSigs": 1, "hex": "76a9147bf679f074e3e567187cbedbe48f84827f2784fc88ac", "addresses": ["1CJTP561dMVJYPrp8tc4fxDDzr2sANsaGD"], "asm": "OP_DUP OP_HASH160 7bf679f074e3e567187cbedbe48f84827f2784fc OP_EQUALVERIFY OP_CHECKSIG", "type": "pubkeyhash"}, "value": 0.005, "n": 0}, {"scriptPubKey": {"reqSigs": 1, "hex": "a9147604eb090749fd51820913bbc565d4dcc8c5664b87", "addresses": ["3CT3Ytue2U3EUYiUCcCgzPTJ44UX8WBM6J"], "asm": "OP_HASH160 7604eb090749fd51820913bbc565d4dcc8c5664b OP_EQUAL", "type": "scripthash"}, "value": 0.10933924, "n": 1}], "hex": "0100000000010196787fd54cad178562e1a5a0ed6c2ad0dce65ec5cb7391fe9f1ddd6d2ca266a5010000001716001416687ff59a4a232b50f927d1cbe887cf88553184ffffffff0220a10700000000001976a9147bf679f074e3e567187cbedbe48f84827f2784fc88aca4d6a6000000000017a9147604eb090749fd51820913bbc565d4dcc8c5664b8702473044022032a5446a4091db373d0a5ab00f17f4cc307cc6c57c9c1894ab3876121caf65fc022048bff736b4109cd28c308849139914868511293672ded5d3d7dc5233aa24e1050121039b3ebcaf99080d1af5a47ccfe3ebae6802f2bd5de7ed8d3a3836d86cc875570b00000000", "vin": [{"txinwitness": ["3044022032a5446a4091db373d0a5ab00f17f4cc307cc6c57c9c1894ab3876121caf65fc022048bff736b4109cd28c308849139914868511293672ded5d3d7dc5233aa24e10501", "039b3ebcaf99080d1af5a47ccfe3ebae6802f2bd5de7ed8d3a3836d86cc875570b"], "sequence": 4294967295, "scriptSig": {"hex": "16001416687ff59a4a232b50f927d1cbe887cf88553184", "asm": "001416687ff59a4a232b50f927d1cbe887cf88553184"}, "vout": 1, "txid": "a566a22c6ddd1d9ffe9173cbc55ee6dcd02a6ceda0a5e1628517ad4cd57f7896"}], "txid": "6d7b2716619fe0057ffaa7b7a382e08370249f00667be92e847396c72294abfb", "blocktime": 1537870564, "version": 1, "confirmations": 11515, "time": 1537870564, "locktime": 0, "vsize": 168, "size": 249}