{"hash": "54e85d352c8311d77ef1f9302b3ef9fb904c05d24ed6e26c5c4fe10e854c7376", "blockhash": "0000000000000000000baef3f32e3676a92c3b2e5da21b426e4f302fc371ce76", "vout": [{"scriptPubKey": {"reqSigs": 1, "hex": "76a91474987b9fd09e0d80994eb6a51a6b0e2137e5612e88ac", "addresses": ["1BdW3x8NeGcUZ1vnTBkNvQyGjWD33BJe48"], "asm": "OP_DUP OP_HASH160 74987b9fd09e0d80994eb6a51a6b0e2137e5612e OP_EQUALVERIFY OP_CHECKSIG", "type": "pubkeyhash"}, "value": 0.120524, "n": 0}, {"scriptPubKey": {"reqSigs": 1, "hex": "a914a6403b1491340c64da75e3a589b803589d04c13187", "addresses": ["3Gr53DkQTswaRaPXdxhDTzrAWMHwe7RRWL"], "asm": "OP_HASH160 a6403b1491340c64da75e3a589b803589d04c131 OP_EQUAL", "type": "scripthash"}, "value": 72.83351296, "n": 1}], "hex": "020000000001018752858500efbea4e2b16af8e9c8d504742e2f4b07c7bbec8cc9fa5e95b8e74a0100000017160014546fe3008052c80ba0daf28a92447f4cbc66339afeffffff02b0e7b700000000001976a91474987b9fd09e0d80994eb6a51a6b0e2137e5612e88ac001f1fb20100000017a914a6403b1491340c64da75e3a589b803589d04c131870247304402204224852421f4b8134deeceaa1417cacd874b6f1d5cf04461cceef8e8704e798002203bae7790f35169ddf8c05146a951763a56cf0d364c05e2e3ffadc688c24afdfb0121024b5b710c9d594e7da79a800cfb46570db706fe4d45ae893b6f09d3ae5d0f608cbb480800", "vin": [{"txinwitness": ["304402204224852421f4b8134deeceaa1417cacd874b6f1d5cf04461cceef8e8704e798002203bae7790f35169ddf8c05146a951763a56cf0d364c05e2e3ffadc688c24afdfb01", "024b5b710c9d594e7da79a800cfb46570db706fe4d45ae893b6f09d3ae5d0f608c"], "sequence": 4294967294, "scriptSig": {"hex": "160014546fe3008052c80ba0daf28a92447f4cbc66339a", "asm": "0014546fe3008052c80ba0daf28a92447f4cbc66339a"}, "vout": 1, "txid": "4ae7b8955efac98cecbbc7074b2f2e7404d5c8e9f86ab1e2a4beef0085855287"}], "txid": "6d8245bb34dcb17c3511a1be21c9241993951d2d844433b61827077ed11f6b4a", "blocktime": 1537876114, "version": 2, "confirmations": 11459, "time": 1537876114, "locktime": 542907, "vsize": 168, "size": 249}