{"hash": "6d86f4462b44b0bcc6e11bb2d2a4d4145accc0c28543d9996feeb72592e663b0", "blockhash": "00000000000000000018f53835495a110e01622372bf6ae95dc86f2b0ab887b0", "vout": [{"scriptPubKey": {"reqSigs": 1, "hex": "a9146e6743c1b8e9944d260d7c5d2931d23644ce088187", "addresses": ["3BkmxbnHSoKAyMgyHHpdoGfHHYWXk4t3VB"], "asm": "OP_HASH160 6e6743c1b8e9944d260d7c5d2931d23644ce0881 OP_EQUAL", "type": "scripthash"}, "value": 0.0027396, "n": 0}, {"scriptPubKey": {"reqSigs": 1, "hex": "76a9145b41e0836d2c587b23c6d677530318c11e0d0b5688ac", "addresses": ["19KXQfvk1xY45CdRxZUiKF4reQRSeuXvGH"], "asm": "OP_DUP OP_HASH160 5b41e0836d2c587b23c6d677530318c11e0d0b56 OP_EQUALVERIFY OP_CHECKSIG", "type": "pubkeyhash"}, "value": 0.11202851, "n": 1}], "hex": "0100000001837ad33e4c91786e57df3df4afd954cc2d98c6077d9b65996888421a623d75f0010000006a4730440220606ac7f7db97f55de3e69e320cd5ff9ac087492e0baa902557e790411a19ba6d02205c6bb8774a6e91c493523e5fff633b5925ce4b2854edc6f0570a536a3af043280121025757c7e75424725df8bf51569366303dc5e8a4753c1de332513e1b212acc27c0ffffffff02282e04000000000017a9146e6743c1b8e9944d260d7c5d2931d23644ce08818723f1aa00000000001976a9145b41e0836d2c587b23c6d677530318c11e0d0b5688ac00000000", "vin": [{"sequence": 4294967295, "scriptSig": {"hex": "4730440220606ac7f7db97f55de3e69e320cd5ff9ac087492e0baa902557e790411a19ba6d02205c6bb8774a6e91c493523e5fff633b5925ce4b2854edc6f0570a536a3af043280121025757c7e75424725df8bf51569366303dc5e8a4753c1de332513e1b212acc27c0", "asm": "30440220606ac7f7db97f55de3e69e320cd5ff9ac087492e0baa902557e790411a19ba6d02205c6bb8774a6e91c493523e5fff633b5925ce4b2854edc6f0570a536a3af04328[ALL] 025757c7e75424725df8bf51569366303dc5e8a4753c1de332513e1b212acc27c0"}, "vout": 1, "txid": "f0753d621a42886899659b7d07c6982dcc54d9aff43ddf576e78914c3ed37a83"}], "txid": "6d86f4462b44b0bcc6e11bb2d2a4d4145accc0c28543d9996feeb72592e663b0", "blocktime": 1537870928, "version": 1, "confirmations": 11512, "time": 1537870928, "locktime": 0, "vsize": 223, "size": 223}