{"hash": "53223d39758cb1ef58396260ec1ce4b8aff8825b6c7363dc7db3dd06e1f3afba", "blockhash": "0000000000000000000dcc0f55137456b1a82d3642486a52398922ac4d620174", "vout": [{"scriptPubKey": {"reqSigs": 1, "hex": "76a9145c799159a73151b3ed419990ae71b61d971219da88ac", "addresses": ["19RxoKskzFjbxxSs6J6CNPvSmXzsNcwtFd"], "asm": "OP_DUP OP_HASH160 5c799159a73151b3ed419990ae71b61d971219da OP_EQUALVERIFY OP_CHECKSIG", "type": "pubkeyhash"}, "value": 0.00875485, "n": 0}, {"scriptPubKey": {"reqSigs": 1, "hex": "76a91458a6bafd3c8a3f44a9211f6ae0ec5698c8c6225b88ac", "addresses": ["195kCWpoB4Thmpj8T4bWJhNasExfNBk6xA"], "asm": "OP_DUP OP_HASH160 58a6bafd3c8a3f44a9211f6ae0ec5698c8c6225b OP_EQUALVERIFY OP_CHECKSIG", "type": "pubkeyhash"}, "value": 0.02, "n": 1}, {"scriptPubKey": {"reqSigs": 1, "hex": "a914e216e7095cd447cec91d383fde49cdc512d9959e87", "addresses": ["3NJU5ByjcFhQTksQCtnvHoCnUDVJHPAdj3"], "asm": "OP_HASH160 e216e7095cd447cec91d383fde49cdc512d9959e OP_EQUAL", "type": "scripthash"}, "value": 5.42919346, "n": 2}], "hex": "0200000000010279efc030aef66baa43420d5a6b4c96a211ddacd4f4f762e91a339df6ec19ba2b010000001716001477cda8bd7346253aa606996439d33b255b648030ffffffff68616114378346e97733053c9c6be6f2b17691d593c6a9f8c5063046dc5bd3f30100000017160014e9fe52c17e0bebfa0cad107e5b557e85f6b0c0c1ffffffff03dd5b0d00000000001976a9145c799159a73151b3ed419990ae71b61d971219da88ac80841e00000000001976a91458a6bafd3c8a3f44a9211f6ae0ec5698c8c6225b88acb24a5c200000000017a914e216e7095cd447cec91d383fde49cdc512d9959e8702483045022100cd760765e98f5bb888d013709312dff3fce0217cec4ec4c59b9b0e73f7cf9ef4022003dbabd992b380089c6f45d041030e082af72bc70134fd5aecb11025efea15c1012103ba9d48be0ccded2d3d1505e1012e25066bb79e0c7b1730d5b1e3e610d7fe2b5e02483045022100d19b49f8601ca80a792390c10064c60cde2a427c2390e7cd06548bc92fe7054c022041fba5605a03bd9c49e6c4d6820f1cbd1817598b6140f07f87323978f0fe5282012103de46953ffdca3e6d916b2c2747907b8619820caed671f28dad937cdbccd8aade00000000", "vin": [{"txinwitness": ["3045022100cd760765e98f5bb888d013709312dff3fce0217cec4ec4c59b9b0e73f7cf9ef4022003dbabd992b380089c6f45d041030e082af72bc70134fd5aecb11025efea15c101", "03ba9d48be0ccded2d3d1505e1012e25066bb79e0c7b1730d5b1e3e610d7fe2b5e"], "sequence": 4294967295, "scriptSig": {"hex": "16001477cda8bd7346253aa606996439d33b255b648030", "asm": "001477cda8bd7346253aa606996439d33b255b648030"}, "vout": 1, "txid": "2bba19ecf69d331ae962f7f4d4acdd11a2964c6b5a0d4243aa6bf6ae30c0ef79"}, {"txinwitness": ["3045022100d19b49f8601ca80a792390c10064c60cde2a427c2390e7cd06548bc92fe7054c022041fba5605a03bd9c49e6c4d6820f1cbd1817598b6140f07f87323978f0fe528201", "03de46953ffdca3e6d916b2c2747907b8619820caed671f28dad937cdbccd8aade"], "sequence": 4294967295, "scriptSig": {"hex": "160014e9fe52c17e0bebfa0cad107e5b557e85f6b0c0c1", "asm": "0014e9fe52c17e0bebfa0cad107e5b557e85f6b0c0c1"}, "vout": 1, "txid": "f3d35bdc463006c5f8a9c693d59176b1f2e66b9c3c053377e946833714616168"}], "txid": "6d876c92874d6f12600c2c49b41bba38e6fba291c1057c4d36d8c02ff3fbb36b", "blocktime": 1537870268, "version": 2, "confirmations": 11517, "time": 1537870268, "locktime": 0, "vsize": 293, "size": 456}