{"hash": "6d8d150ba80a08b40a2005703f3b573d8a50484de82a31ac77692819676135b9", "blockhash": "00000000000000000024a2167bbff67b0be802c0b01cdd79e6331c2be6459f87", "vout": [{"scriptPubKey": {"reqSigs": 1, "hex": "a91446dcacd81c84b368f64da3d6ffd886e4f5243f2887", "addresses": ["389hakYtrq5MWPps6JRXkHRWEoh7VHUpM9"], "asm": "OP_HASH160 46dcacd81c84b368f64da3d6ffd886e4f5243f28 OP_EQUAL", "type": "scripthash"}, "value": 0.00159894, "n": 0}, {"scriptPubKey": {"reqSigs": 1, "hex": "76a914945046b8648aec10dc3da6569bd128cc2713734588ac", "addresses": ["1EXDB5nujfMFzFS8PTjXhacZBhY5H65aNc"], "asm": "OP_DUP OP_HASH160 945046b8648aec10dc3da6569bd128cc27137345 OP_EQUALVERIFY OP_CHECKSIG", "type": "pubkeyhash"}, "value": 0.00235979, "n": 1}], "hex": "01000000012dabdaf44425f31b50e3056f392793dabf96a338fd3c44e996419b46a050a089000000006b483045022100978fdb0a26d3a53ad9ee5e4f6e431c951b330821473a461d0ef7a4f685abafce02200e83cb9ef5501dcf5d1bd2a95c7be778bb81543695daca2f4ef29ee2c39015b8012102b61e6e49e4e687acff932e016b37a6bf7479cdb7e77a4dacd351d36f1c133467ffffffff02967002000000000017a91446dcacd81c84b368f64da3d6ffd886e4f5243f2887cb990300000000001976a914945046b8648aec10dc3da6569bd128cc2713734588ac00000000", "vin": [{"sequence": 4294967295, "scriptSig": {"hex": "483045022100978fdb0a26d3a53ad9ee5e4f6e431c951b330821473a461d0ef7a4f685abafce02200e83cb9ef5501dcf5d1bd2a95c7be778bb81543695daca2f4ef29ee2c39015b8012102b61e6e49e4e687acff932e016b37a6bf7479cdb7e77a4dacd351d36f1c133467", "asm": "3045022100978fdb0a26d3a53ad9ee5e4f6e431c951b330821473a461d0ef7a4f685abafce02200e83cb9ef5501dcf5d1bd2a95c7be778bb81543695daca2f4ef29ee2c39015b8[ALL] 02b61e6e49e4e687acff932e016b37a6bf7479cdb7e77a4dacd351d36f1c133467"}, "vout": 0, "txid": "89a050a0469b4196e9443cfd38a396bfda9327396f05e3501bf32544f4daab2d"}], "txid": "6d8d150ba80a08b40a2005703f3b573d8a50484de82a31ac77692819676135b9", "blocktime": 1537870564, "version": 1, "confirmations": 11515, "time": 1537870564, "locktime": 0, "vsize": 224, "size": 224}