{"hash": "58824106fc0e9a495b1ea9a4e80d804369ff8cf1a8d9d77e2e2ab9fa8f960436", "blockhash": "0000000000000000001e0dab787dd257d1dbfcb92a98c2207d5e1078be1f4165", "vout": [{"scriptPubKey": {"reqSigs": 1, "hex": "76a914191b292e5f96962f617f3587ba4b30fc15f957e488ac", "addresses": ["13HkRy1Vset4Qmr55zmirBDpE3HVkcDysY"], "asm": "OP_DUP OP_HASH160 191b292e5f96962f617f3587ba4b30fc15f957e4 OP_EQUALVERIFY OP_CHECKSIG", "type": "pubkeyhash"}, "value": 0.05632999, "n": 0}, {"scriptPubKey": {"reqSigs": 1, "hex": "a91409e49af18b9340f3d3e1f4f0bf9bdee3f222d21287", "addresses": ["32bKs3MJCJmMRwSsz4D7pHVE1efTNasEEL"], "asm": "OP_HASH160 09e49af18b9340f3d3e1f4f0bf9bdee3f222d212 OP_EQUAL", "type": "scripthash"}, "value": 0.00055973, "n": 1}], "hex": "02000000000101e13da113236683d87804e33399c6fb7dcc74f7d6da1c4657709b9eb43c09d025010000001716001443eeeaa48456aeee5df8e08a8df59869c002881fffffffff02e7f35500000000001976a914191b292e5f96962f617f3587ba4b30fc15f957e488aca5da00000000000017a91409e49af18b9340f3d3e1f4f0bf9bdee3f222d212870247304402200652748e67a2df5e963bce2e8c12d7380e954fd54ce88fc2bc4bc7776ccdaf72022033a6c84fe07f6b6af7948df10c5ae58fd2439490890f020f666459943e9c8d91012103567bc626642b64f7c7ed62a480ce02b42a912bfdbe80d6555ac40b715185ae0f00000000", "vin": [{"txinwitness": ["304402200652748e67a2df5e963bce2e8c12d7380e954fd54ce88fc2bc4bc7776ccdaf72022033a6c84fe07f6b6af7948df10c5ae58fd2439490890f020f666459943e9c8d9101", "03567bc626642b64f7c7ed62a480ce02b42a912bfdbe80d6555ac40b715185ae0f"], "sequence": 4294967295, "scriptSig": {"hex": "16001443eeeaa48456aeee5df8e08a8df59869c002881f", "asm": "001443eeeaa48456aeee5df8e08a8df59869c002881f"}, "vout": 1, "txid": "25d0093cb49e9b7057461cdad6f774cc7dfbc69933e30478d883662313a13de1"}], "txid": "6d938fdcd5d93c96e99de45256bd202d49407ffac76b2b6e47a260104ccf7895", "blocktime": 1537872475, "version": 2, "confirmations": 11486, "time": 1537872475, "locktime": 0, "vsize": 168, "size": 249}