{"hash": "66361a29045926ade343c79af3742bc71594d19a84e55c862a32914b37a59426", "blockhash": "0000000000000000001f76057863aec43deb6fa401d9628bb513d65a8098bfab", "vout": [{"scriptPubKey": {"reqSigs": 1, "hex": "76a914db221eb1825c702e5f69d5e3a08bbf147381655b88ac", "addresses": ["1LyfrhmEA3wtytvoryHyF5mV1y43JK4vyC"], "asm": "OP_DUP OP_HASH160 db221eb1825c702e5f69d5e3a08bbf147381655b OP_EQUALVERIFY OP_CHECKSIG", "type": "pubkeyhash"}, "value": 0.01069, "n": 0}, {"scriptPubKey": {"reqSigs": 1, "hex": "a914ad9b912a94e1083b381b85245b9c3a3eea87e46287", "addresses": ["3HWyBieqbWC8bTSuhEDS3JS2tqZCBJUZki"], "asm": "OP_HASH160 ad9b912a94e1083b381b85245b9c3a3eea87e462 OP_EQUAL", "type": "scripthash"}, "value": 0.01157466, "n": 1}], "hex": "0200000000010369aa0c9718d0839b101a2b8bf0cb80f397fff27dd5252026335a7f7725c4215700000000171600148a0fffe3b15577cb980bfa5a5e46ec78115432b1feffffff9ef32be16b608b9d302d67db5ca6ba711ba3446420e038a8475255f925416bf50900000017160014b4ab0978f5aa39dfde8f68c2f1ee973f56a14627feffffffb27d4a07752ecc383cab9dee5569f091926bfa8c443897526f15d8ab336b2c470100000017160014490e1186ea1efd0bc3a7f32c1b65847478e5331dfeffffff02c84f1000000000001976a914db221eb1825c702e5f69d5e3a08bbf147381655b88ac5aa911000000000017a914ad9b912a94e1083b381b85245b9c3a3eea87e46287024730440220711af19b34dc87327f4493c342a1b37ac9025f23a4f0fbe8f43b22ae801d8cbd02207f0f1cf7481f9b3e2e3f2dd41476af97028eb52e6e4c431a3742d1640473079701210226ea4c0f2f54999eb00c9b2506c320737efceb7ca36a9b083aae3ecdd5dc0ce60247304402202f2735b233addd84046a0e0da82827d669d3aa15257648e6b38408ec0b8f3d0d02206c1c28e8729f1aa8781e03ca4a5c337053253bc0984e3c732e1c063ae5850d7a012103272712728fa8d84053df0278f3dda8af489e69493debd9c2afda57bb5032d950024730440220511ad7d302e66eebfb8b66757b58f6014f2535b729482628692434f85ad0e7fe022041d293e76c793df3476c75a471383590a1c566df3097d4925ffc2bcb3f0579a90121029774f2aaa004e14a80c633c31517767af0a0199c3e389f8d6a9063b99cc7e17c14490800", "vin": [{"txinwitness": ["30440220711af19b34dc87327f4493c342a1b37ac9025f23a4f0fbe8f43b22ae801d8cbd02207f0f1cf7481f9b3e2e3f2dd41476af97028eb52e6e4c431a3742d1640473079701", "0226ea4c0f2f54999eb00c9b2506c320737efceb7ca36a9b083aae3ecdd5dc0ce6"], "sequence": 4294967294, "scriptSig": {"hex": "1600148a0fffe3b15577cb980bfa5a5e46ec78115432b1", "asm": "00148a0fffe3b15577cb980bfa5a5e46ec78115432b1"}, "vout": 0, "txid": "5721c425777f5a33262025d57df2ff97f380cbf08b2b1a109b83d018970caa69"}, {"txinwitness": ["304402202f2735b233addd84046a0e0da82827d669d3aa15257648e6b38408ec0b8f3d0d02206c1c28e8729f1aa8781e03ca4a5c337053253bc0984e3c732e1c063ae5850d7a01", "03272712728fa8d84053df0278f3dda8af489e69493debd9c2afda57bb5032d950"], "sequence": 4294967294, "scriptSig": {"hex": "160014b4ab0978f5aa39dfde8f68c2f1ee973f56a14627", "asm": "0014b4ab0978f5aa39dfde8f68c2f1ee973f56a14627"}, "vout": 9, "txid": "f56b4125f9555247a838e0206444a31b71baa65cdb672d309d8b606be12bf39e"}, {"txinwitness": ["30440220511ad7d302e66eebfb8b66757b58f6014f2535b729482628692434f85ad0e7fe022041d293e76c793df3476c75a471383590a1c566df3097d4925ffc2bcb3f0579a901", "029774f2aaa004e14a80c633c31517767af0a0199c3e389f8d6a9063b99cc7e17c"], "sequence": 4294967294, "scriptSig": {"hex": "160014490e1186ea1efd0bc3a7f32c1b65847478e5331d", "asm": "0014490e1186ea1efd0bc3a7f32c1b65847478e5331d"}, "vout": 1, "txid": "472c6b33abd8156f529738448cfa6b9291f06955ee9dab3c38cc2e75074a7db2"}], "txid": "6d96056e6baff4d6e111f4711f3eec47173002ab70a6664c395dd056b5df1805", "blocktime": 1537873891, "version": 2, "confirmations": 11478, "time": 1537873891, "locktime": 542996, "vsize": 349, "size": 591}