{"hash": "6d9c77f6f1fddee941c1088767c252571012c2294b47f764a72a74183bec773f", "blockhash": "0000000000000000000baef3f32e3676a92c3b2e5da21b426e4f302fc371ce76", "vout": [{"scriptPubKey": {"type": "nulldata", "hex": "6a4c50000077ff00012533861044c31a0a135228d8d19ed074892d00f8e87af8e8e963c7cfd5b97e925cd52729aae585e0367d49bae3dd5baa19f10613be5d6e0b7f461d100759d4ba30d2c37bb011d97e02cf", "asm": "OP_RETURN 000077ff00012533861044c31a0a135228d8d19ed074892d00f8e87af8e8e963c7cfd5b97e925cd52729aae585e0367d49bae3dd5baa19f10613be5d6e0b7f461d100759d4ba30d2c37bb011d97e02cf"}, "value": 0.0, "n": 0}, {"scriptPubKey": {"reqSigs": 1, "hex": "76a914f0aa3d8a4823b5780014c5c3e70c1e7d5439b84988ac", "addresses": ["1NwX7Yr1u5TZRZ9MCHdH2Jii3M9tvHrDzU"], "asm": "OP_DUP OP_HASH160 f0aa3d8a4823b5780014c5c3e70c1e7d5439b849 OP_EQUALVERIFY OP_CHECKSIG", "type": "pubkeyhash"}, "value": 0.00632654, "n": 1}], "hex": "0100000001be42a3438fdfd631b93efec0ddff809a0676d76d18f355ff2771f449d30e06f0010000006b48304502210081deff3183bafbe0cf0d1879374a18538a282db37127ec8bd9b3d12ecf801a4402205f5ac21b8e7542a1b125376efe13dd2d49c5a82195887928a3c8e827d2176df0012102ddab8b91acbcb53a9d648df0f69913dc59ef3028078fc74cce87b584aa8f9568ffffffff020000000000000000536a4c50000077ff00012533861044c31a0a135228d8d19ed074892d00f8e87af8e8e963c7cfd5b97e925cd52729aae585e0367d49bae3dd5baa19f10613be5d6e0b7f461d100759d4ba30d2c37bb011d97e02cf4ea70900000000001976a914f0aa3d8a4823b5780014c5c3e70c1e7d5439b84988ac00000000", "vin": [{"sequence": 4294967295, "scriptSig": {"hex": "48304502210081deff3183bafbe0cf0d1879374a18538a282db37127ec8bd9b3d12ecf801a4402205f5ac21b8e7542a1b125376efe13dd2d49c5a82195887928a3c8e827d2176df0012102ddab8b91acbcb53a9d648df0f69913dc59ef3028078fc74cce87b584aa8f9568", "asm": "304502210081deff3183bafbe0cf0d1879374a18538a282db37127ec8bd9b3d12ecf801a4402205f5ac21b8e7542a1b125376efe13dd2d49c5a82195887928a3c8e827d2176df0[ALL] 02ddab8b91acbcb53a9d648df0f69913dc59ef3028078fc74cce87b584aa8f9568"}, "vout": 1, "txid": "f0060ed349f47127ff55f3186dd776069a80ffddc0fe3eb931d6df8f43a342be"}], "txid": "6d9c77f6f1fddee941c1088767c252571012c2294b47f764a72a74183bec773f", "blocktime": 1537876114, "version": 1, "confirmations": 11460, "time": 1537876114, "locktime": 0, "vsize": 284, "size": 284}