{"hash": "ba5df989e93695b0d2042b48b045778678dee18998e2ccf32d0dd58094475397", "blockhash": "0000000000000000000e13cef7c366c0283d82e591d1acd082e914b08063cdf1", "vout": [{"scriptPubKey": {"reqSigs": 1, "hex": "76a914e24f4ad1d1bcfdd9a90370cb24c63bc716b32a8f88ac", "addresses": ["1MdchgFegJzRfWd3XvPY1FZMdN8hc5DpW5"], "asm": "OP_DUP OP_HASH160 e24f4ad1d1bcfdd9a90370cb24c63bc716b32a8f OP_EQUALVERIFY OP_CHECKSIG", "type": "pubkeyhash"}, "value": 0.005772, "n": 0}, {"scriptPubKey": {"reqSigs": 1, "hex": "0014981788c65e53d72a360e7350c3a2644e826c6e4b", "addresses": ["bc1qnqtc33j720tj5dswwdgv8gnyf6pxcmjt9ctszf"], "asm": "0 981788c65e53d72a360e7350c3a2644e826c6e4b", "type": "witness_v0_keyhash"}, "value": 6.408e-05, "n": 1}], "hex": "010000000001019140ea8ca2413925ee787cc0cd03f390076f31247f145a86dd7a9578a0e68b670100000000ffffffff02b0ce0800000000001976a914e24f4ad1d1bcfdd9a90370cb24c63bc716b32a8f88ac0819000000000000160014981788c65e53d72a360e7350c3a2644e826c6e4b02483045022100a9c517ffe2315280f7b0f2ba5d99e8494fb07dd6eceb05c644041b1773f9640f02201c63586dc9696a7011ad5442fea249987ea896fb1c4f7eb18dba1c8eb51f880f012102a2bb9abfd2cef59c648536aa2fc76a4ee876bb0e84e468a92ab73432c9cd36c400000000", "vin": [{"txinwitness": ["3045022100a9c517ffe2315280f7b0f2ba5d99e8494fb07dd6eceb05c644041b1773f9640f02201c63586dc9696a7011ad5442fea249987ea896fb1c4f7eb18dba1c8eb51f880f01", "02a2bb9abfd2cef59c648536aa2fc76a4ee876bb0e84e468a92ab73432c9cd36c4"], "sequence": 4294967295, "scriptSig": {"hex": "", "asm": ""}, "vout": 1, "txid": "678be6a078957add865a147f24316f0790f303cdc07c78ee253941a28cea4091"}], "txid": "6da23073ec3edab7c560fec3126225ad124c88fb3fd29a94cd42acaa945359ac", "blocktime": 1537871767, "version": 1, "confirmations": 11495, "time": 1537871767, "locktime": 0, "vsize": 144, "size": 226}