{"hash": "6da2490a0f73d0444015c3d72cf20e524acf573dcaf749aa6e67f482897f9f2b", "blockhash": "0000000000000000001cda96e906b7601b7a6fb1a3b62bca570a9e5d8f4b3de1", "vout": [{"scriptPubKey": {"reqSigs": 1, "hex": "76a914607dbbe6043e94580dd06bfd66bbd1a6487b676988ac", "addresses": ["19oCVZp2UaV485mAV9eLdAkohPAXoQhMGH"], "asm": "OP_DUP OP_HASH160 607dbbe6043e94580dd06bfd66bbd1a6487b6769 OP_EQUALVERIFY OP_CHECKSIG", "type": "pubkeyhash"}, "value": 0.07806, "n": 0}, {"scriptPubKey": {"reqSigs": 1, "hex": "76a9143594a6fe6266c9a62d4156037e993d987ad3f9b088ac", "addresses": ["15tJtiFXX9UTozYmLYKiPKkc4X73AV69AG"], "asm": "OP_DUP OP_HASH160 3594a6fe6266c9a62d4156037e993d987ad3f9b0 OP_EQUALVERIFY OP_CHECKSIG", "type": "pubkeyhash"}, "value": 0.41232582, "n": 1}], "hex": "0100000001c03db3fc917509e08434a2182408a308674453e40c157478a0f8d618e510c292010000006a473044022079e523c5d8e4d8bcbe2768d01fe0fc0ddbdda7ea8171ea6505c58e2b4ceae88d02206a46564462727aa3e07a275d19293c57ae407f7a7a06b417d6206ffe004fe96a01210353d426c20019d3e132c741b2ea39e824a0b368d582169e87b8005645a73a1273ffffffff02301c7700000000001976a914607dbbe6043e94580dd06bfd66bbd1a6487b676988acc6287502000000001976a9143594a6fe6266c9a62d4156037e993d987ad3f9b088ac00000000", "vin": [{"sequence": 4294967295, "scriptSig": {"hex": "473044022079e523c5d8e4d8bcbe2768d01fe0fc0ddbdda7ea8171ea6505c58e2b4ceae88d02206a46564462727aa3e07a275d19293c57ae407f7a7a06b417d6206ffe004fe96a01210353d426c20019d3e132c741b2ea39e824a0b368d582169e87b8005645a73a1273", "asm": "3044022079e523c5d8e4d8bcbe2768d01fe0fc0ddbdda7ea8171ea6505c58e2b4ceae88d02206a46564462727aa3e07a275d19293c57ae407f7a7a06b417d6206ffe004fe96a[ALL] 0353d426c20019d3e132c741b2ea39e824a0b368d582169e87b8005645a73a1273"}, "vout": 1, "txid": "92c210e518d6f8a07874150ce453446708a3082418a23484e0097591fcb33dc0"}], "txid": "6da2490a0f73d0444015c3d72cf20e524acf573dcaf749aa6e67f482897f9f2b", "blocktime": 1537873282, "version": 1, "confirmations": 11484, "time": 1537873282, "locktime": 0, "vsize": 225, "size": 225}