{"hash": "6da45d9fb5f0e3a2ac503b04caf5d1dbd5ca63019d205b3b692978067781eecc", "blockhash": "0000000000000000001f76057863aec43deb6fa401d9628bb513d65a8098bfab", "vout": [{"scriptPubKey": {"reqSigs": 1, "hex": "a9147f74266f6d7ba9ebba7518e931715ae43e6e23b187", "addresses": ["3DJvtAC2yFaetVCoHfod8feuaPpz8V4evA"], "asm": "OP_HASH160 7f74266f6d7ba9ebba7518e931715ae43e6e23b1 OP_EQUAL", "type": "scripthash"}, "value": 0.03197941, "n": 0}], "hex": "01000000012154a4e829f3306c094ccf72e25ef5d3993d6a42e0f3770be596f50e342b7d92030000006a47304402204c025c67a65b6b37539b1240ecf1eeb4a11789f4368ed050d2ceca3fc1c00d3c02203340e1e2ea5fa88967bb16d1d5730f8282b830ea03461ddea2b8209d89fe322301210206149dfa85fe5c06346a5aae56b2e03f74bbfd1294892a91cdcb40f2e4f27f2bfdffffff01f5cb30000000000017a9147f74266f6d7ba9ebba7518e931715ae43e6e23b18714490800", "vin": [{"sequence": 4294967293, "scriptSig": {"hex": "47304402204c025c67a65b6b37539b1240ecf1eeb4a11789f4368ed050d2ceca3fc1c00d3c02203340e1e2ea5fa88967bb16d1d5730f8282b830ea03461ddea2b8209d89fe322301210206149dfa85fe5c06346a5aae56b2e03f74bbfd1294892a91cdcb40f2e4f27f2b", "asm": "304402204c025c67a65b6b37539b1240ecf1eeb4a11789f4368ed050d2ceca3fc1c00d3c02203340e1e2ea5fa88967bb16d1d5730f8282b830ea03461ddea2b8209d89fe3223[ALL] 0206149dfa85fe5c06346a5aae56b2e03f74bbfd1294892a91cdcb40f2e4f27f2b"}, "vout": 3, "txid": "927d2b340ef596e50b77f3e0426a3d99d3f55ee272cf4c096c30f329e8a45421"}], "txid": "6da45d9fb5f0e3a2ac503b04caf5d1dbd5ca63019d205b3b692978067781eecc", "blocktime": 1537873891, "version": 1, "confirmations": 11477, "time": 1537873891, "locktime": 542996, "vsize": 189, "size": 189}