{"hash": "6da42771eaeb58016320e9a897e00c10909b426d3e37054d1aadead5d3c75bf8", "blockhash": "000000000000000000022b45ed06c6f4ccd3cf7fb5ba4856ebd2e58215665228", "vout": [{"scriptPubKey": {"reqSigs": 1, "hex": "76a914e1995b27624fcddfcd1e4d32cd67eafae15f850088ac", "addresses": ["1MZrkXeS2my5kHidY7J8BFzHws6JyRriMt"], "asm": "OP_DUP OP_HASH160 e1995b27624fcddfcd1e4d32cd67eafae15f8500 OP_EQUALVERIFY OP_CHECKSIG", "type": "pubkeyhash"}, "value": 0.002, "n": 0}, {"scriptPubKey": {"reqSigs": 1, "hex": "76a9146bb96ababf47361cb057beb5b2519bebeb7066ba88ac", "addresses": ["1ApbRX66ke8kM81ir838uChydweUHAD9h7"], "asm": "OP_DUP OP_HASH160 6bb96ababf47361cb057beb5b2519bebeb7066ba OP_EQUALVERIFY OP_CHECKSIG", "type": "pubkeyhash"}, "value": 0.006761, "n": 1}], "hex": "01000000011a1173eb49b4c5d56caad6f7f0494187d25f6317bbb4eee33bd5769acaf7d15d000000006a473044022059029106b84442febd343897ae726aea25f63f4cadd8c3370932dc719c83f72502203f62cbbb9db50f5c1463280ae6fda597b658b35825a89b9b5de1fd211edcf133012102162be198045e10a593827a0bb63e4dd7b4449d040a2847b223b49b8c8de1addffeffffff02400d0300000000001976a914e1995b27624fcddfcd1e4d32cd67eafae15f850088ac04510a00000000001976a9146bb96ababf47361cb057beb5b2519bebeb7066ba88ac0b490800", "vin": [{"sequence": 4294967294, "scriptSig": {"hex": "473044022059029106b84442febd343897ae726aea25f63f4cadd8c3370932dc719c83f72502203f62cbbb9db50f5c1463280ae6fda597b658b35825a89b9b5de1fd211edcf133012102162be198045e10a593827a0bb63e4dd7b4449d040a2847b223b49b8c8de1addf", "asm": "3044022059029106b84442febd343897ae726aea25f63f4cadd8c3370932dc719c83f72502203f62cbbb9db50f5c1463280ae6fda597b658b35825a89b9b5de1fd211edcf133[ALL] 02162be198045e10a593827a0bb63e4dd7b4449d040a2847b223b49b8c8de1addf"}, "vout": 0, "txid": "5dd1f7ca9a76d53be3eeb4bb17635fd2874149f0f7d6aa6cd5c5b449eb73111a"}], "txid": "6da42771eaeb58016320e9a897e00c10909b426d3e37054d1aadead5d3c75bf8", "blocktime": 1537869901, "version": 1, "confirmations": 11522, "time": 1537869901, "locktime": 542987, "vsize": 225, "size": 225}