{"hash": "6da84dd2497b271976f0368f83124d9bc9a9c8b2a490ebe7c6aa02dbf072d2be", "blockhash": "0000000000000000000baef3f32e3676a92c3b2e5da21b426e4f302fc371ce76", "vout": [{"scriptPubKey": {"type": "nulldata", "hex": "6a4c4e8309398f4b62509900b265d97769b30941aa018e65f3a4fa87c70d521d7573ad6f66289efa5db01531915867f67bf2b86d14b4a2469367ee6a323ac6f09bd0ded598c0a85b07a34a31471f8c18d0", "asm": "OP_RETURN 8309398f4b62509900b265d97769b30941aa018e65f3a4fa87c70d521d7573ad6f66289efa5db01531915867f67bf2b86d14b4a2469367ee6a323ac6f09bd0ded598c0a85b07a34a31471f8c18d0"}, "value": 0.0, "n": 0}, {"scriptPubKey": {"reqSigs": 1, "hex": "76a914499010a96f29b1b6c6db4e0487a98f738fb96a9e88ac", "addresses": ["17hxupddtL5z3RusNNgUUmK1EQiCXUhe6z"], "asm": "OP_DUP OP_HASH160 499010a96f29b1b6c6db4e0487a98f738fb96a9e OP_EQUALVERIFY OP_CHECKSIG", "type": "pubkeyhash"}, "value": 0.0436335, "n": 1}], "hex": "0100000001bb233f4f4e1de06b5788986870b23e390c5feebfc78a0b15ae5d681166f558a9010000006a47304402206fb576fed91a07771f8dc19bbc6d9621a6c4433aa23115618cc15a5a2aa1d3e302205159d7c8900d65c73013b9b20fbd140ab734126eb5bc141c815a7df3687459740121034633db872615859d5a59020288d4eb58f53d7006fd14289695bfa44608b55fb1ffffffff020000000000000000516a4c4e8309398f4b62509900b265d97769b30941aa018e65f3a4fa87c70d521d7573ad6f66289efa5db01531915867f67bf2b86d14b4a2469367ee6a323ac6f09bd0ded598c0a85b07a34a31471f8c18d056944200000000001976a914499010a96f29b1b6c6db4e0487a98f738fb96a9e88ac00000000", "vin": [{"sequence": 4294967295, "scriptSig": {"hex": "47304402206fb576fed91a07771f8dc19bbc6d9621a6c4433aa23115618cc15a5a2aa1d3e302205159d7c8900d65c73013b9b20fbd140ab734126eb5bc141c815a7df3687459740121034633db872615859d5a59020288d4eb58f53d7006fd14289695bfa44608b55fb1", "asm": "304402206fb576fed91a07771f8dc19bbc6d9621a6c4433aa23115618cc15a5a2aa1d3e302205159d7c8900d65c73013b9b20fbd140ab734126eb5bc141c815a7df368745974[ALL] 034633db872615859d5a59020288d4eb58f53d7006fd14289695bfa44608b55fb1"}, "vout": 1, "txid": "a958f56611685dae150b8ac7bfee5f0c393eb270689888576be01d4e4f3f23bb"}], "txid": "6da84dd2497b271976f0368f83124d9bc9a9c8b2a490ebe7c6aa02dbf072d2be", "blocktime": 1537876114, "version": 1, "confirmations": 11462, "time": 1537876114, "locktime": 0, "vsize": 281, "size": 281}