{"hash": "6da951e554c5a3162977df96e7f068862631c018a494c217e8a4b6e18034bf72", "blockhash": "00000000000000000004ffacab907a6b429b9a5745fa0b75af4234bf69dd7176", "vout": [{"scriptPubKey": {"type": "nulldata", "hex": "6a146f6d6e69000000000000001f000000174876e800", "asm": "OP_RETURN 6f6d6e69000000000000001f000000174876e800"}, "value": 0.0, "n": 0}, {"scriptPubKey": {"reqSigs": 1, "hex": "76a914313fab27753d12c4f2759c30f1728c983a30982188ac", "addresses": ["15VQPAqMR79PsKJdnEz3MJSnSu2uJxNqXk"], "asm": "OP_DUP OP_HASH160 313fab27753d12c4f2759c30f1728c983a309821 OP_EQUALVERIFY OP_CHECKSIG", "type": "pubkeyhash"}, "value": 5.46e-06, "n": 1}, {"scriptPubKey": {"reqSigs": 1, "hex": "76a914a25dec4d0011064ef106a983c39c7a540699f22088ac", "addresses": ["1FoWyxwPXuj4C6abqwhjDWdz6D4PZgYRjA"], "asm": "OP_DUP OP_HASH160 a25dec4d0011064ef106a983c39c7a540699f220 OP_EQUALVERIFY OP_CHECKSIG", "type": "pubkeyhash"}, "value": 0.01995188, "n": 2}], "hex": "0100000001a44813c76173a4fe9689194c29809e35be05f1741d9b5e1e9e8bd44070ac1fea8d0000006b483045022100cf715a634cf489f40cea49f0f0d54e5bcdf7c8170cddece86bac6161ff04b6000220404e108b01fa167f636d546c026ff41cbfa83a172c56c286ffa0df4ab3ca39bb012103da5bac7b36d5aa38f531c6b9601e21bb598a4b6716ebed38b009a55dabde9440feffffff030000000000000000166a146f6d6e69000000000000001f000000174876e80022020000000000001976a914313fab27753d12c4f2759c30f1728c983a30982188acb4711e00000000001976a914a25dec4d0011064ef106a983c39c7a540699f22088ac16490800", "vin": [{"sequence": 4294967294, "scriptSig": {"hex": "483045022100cf715a634cf489f40cea49f0f0d54e5bcdf7c8170cddece86bac6161ff04b6000220404e108b01fa167f636d546c026ff41cbfa83a172c56c286ffa0df4ab3ca39bb012103da5bac7b36d5aa38f531c6b9601e21bb598a4b6716ebed38b009a55dabde9440", "asm": "3045022100cf715a634cf489f40cea49f0f0d54e5bcdf7c8170cddece86bac6161ff04b6000220404e108b01fa167f636d546c026ff41cbfa83a172c56c286ffa0df4ab3ca39bb[ALL] 03da5bac7b36d5aa38f531c6b9601e21bb598a4b6716ebed38b009a55dabde9440"}, "vout": 141, "txid": "ea1fac7040d48b9e1e5e9b1d74f105be359e80294c198996fea47361c71348a4"}], "txid": "6da951e554c5a3162977df96e7f068862631c018a494c217e8a4b6e18034bf72", "blocktime": 1537875543, "version": 1, "confirmations": 11464, "time": 1537875543, "locktime": 542998, "vsize": 257, "size": 257}