{"hash": "6daceea60d8980d0251a14920dc96ee2749764a707d1b5b7fabd9878dd7654a4", "blockhash": "00000000000000000018f53835495a110e01622372bf6ae95dc86f2b0ab887b0", "vout": [{"scriptPubKey": {"reqSigs": 1, "hex": "76a914c1e4e4d502981d09e9c38e721bed112af05bbf6188ac", "addresses": ["1JgDcrDUwtUTScVxKFDjB8By3XVLXGfC2J"], "asm": "OP_DUP OP_HASH160 c1e4e4d502981d09e9c38e721bed112af05bbf61 OP_EQUALVERIFY OP_CHECKSIG", "type": "pubkeyhash"}, "value": 0.0004, "n": 0}, {"scriptPubKey": {"reqSigs": 1, "hex": "00147aa7738d6d61e59f7b7cdf0815e344e1e4f56f05", "addresses": ["bc1q02nh8rtdv8je77mumuyptc6yu8j02mc9ngftgj"], "asm": "0 7aa7738d6d61e59f7b7cdf0815e344e1e4f56f05", "type": "witness_v0_keyhash"}, "value": 1.215e-05, "n": 1}], "hex": "0100000001b5df2565b61b7b89a6596fb731bcc8f0288bda3a922dbdfb9b7d8a0cbb9d9dc06e0000006a4730440220726a3926b8d015025f8bf2f1994fa695626767fd298c92613486cd50dab5ab98022072029e46ff5262dead11b4bb7e61f5fffef731081d886de472de8da09941229d01210266ab5fa414d688181a8d27fd3ffc631a0b183821719181e9a99d5588a69a9061ffffffff02409c0000000000001976a914c1e4e4d502981d09e9c38e721bed112af05bbf6188acbf040000000000001600147aa7738d6d61e59f7b7cdf0815e344e1e4f56f0500000000", "vin": [{"sequence": 4294967295, "scriptSig": {"hex": "4730440220726a3926b8d015025f8bf2f1994fa695626767fd298c92613486cd50dab5ab98022072029e46ff5262dead11b4bb7e61f5fffef731081d886de472de8da09941229d01210266ab5fa414d688181a8d27fd3ffc631a0b183821719181e9a99d5588a69a9061", "asm": "30440220726a3926b8d015025f8bf2f1994fa695626767fd298c92613486cd50dab5ab98022072029e46ff5262dead11b4bb7e61f5fffef731081d886de472de8da09941229d[ALL] 0266ab5fa414d688181a8d27fd3ffc631a0b183821719181e9a99d5588a69a9061"}, "vout": 110, "txid": "c09d9dbb0c8a7d9bfbbd2d923ada8b28f0c8bc31b76f59a6897b1bb66525dfb5"}], "txid": "6daceea60d8980d0251a14920dc96ee2749764a707d1b5b7fabd9878dd7654a4", "blocktime": 1537870928, "version": 1, "confirmations": 11512, "time": 1537870928, "locktime": 0, "vsize": 222, "size": 222}