{"hash": "6db40fb6564e9d7dedd30690fba0e457def979f6b83aad4d25edd661fdf2166c", "blockhash": "00000000000000000018f53835495a110e01622372bf6ae95dc86f2b0ab887b0", "vout": [{"scriptPubKey": {"reqSigs": 1, "hex": "76a914cb9e6c7092cbeb1767b16cf7191474a14996f93588ac", "addresses": ["1KZdxQY224u17dWuTwTeWMWTE9cRvcyH23"], "asm": "OP_DUP OP_HASH160 cb9e6c7092cbeb1767b16cf7191474a14996f935 OP_EQUALVERIFY OP_CHECKSIG", "type": "pubkeyhash"}, "value": 0.000781, "n": 0}, {"scriptPubKey": {"reqSigs": 1, "hex": "76a9149be687da1ba8687c9d5f21045170bb687470b85788ac", "addresses": ["1FDKuHZkqx9xSnMjZAxg66Tghrcp5vQj6N"], "asm": "OP_DUP OP_HASH160 9be687da1ba8687c9d5f21045170bb687470b857 OP_EQUALVERIFY OP_CHECKSIG", "type": "pubkeyhash"}, "value": 0.68753899, "n": 1}], "hex": "01000000014c4ec07ea9f793af20ec4429d3cf01e5a7c895292166e3ab5347ea7d653f4a91010000006a473044022061dcfb0ecce463619f107675b01c688cfab7000083fbc7d68bee1a1496a588b3022039f3230ca5809289395338ac67497056741241dc13d16570092b0d5a0da2e1c8012103bad54772cfb9674bff20d16afd9d21cc1f2e9056efbb309ce1c3f9d34fa743daffffffff0214310100000000001976a914cb9e6c7092cbeb1767b16cf7191474a14996f93588aceb191904000000001976a9149be687da1ba8687c9d5f21045170bb687470b85788ac00000000", "vin": [{"sequence": 4294967295, "scriptSig": {"hex": "473044022061dcfb0ecce463619f107675b01c688cfab7000083fbc7d68bee1a1496a588b3022039f3230ca5809289395338ac67497056741241dc13d16570092b0d5a0da2e1c8012103bad54772cfb9674bff20d16afd9d21cc1f2e9056efbb309ce1c3f9d34fa743da", "asm": "3044022061dcfb0ecce463619f107675b01c688cfab7000083fbc7d68bee1a1496a588b3022039f3230ca5809289395338ac67497056741241dc13d16570092b0d5a0da2e1c8[ALL] 03bad54772cfb9674bff20d16afd9d21cc1f2e9056efbb309ce1c3f9d34fa743da"}, "vout": 1, "txid": "914a3f657dea4753abe366212995c8a7e501cfd32944ec20af93f7a97ec04e4c"}], "txid": "6db40fb6564e9d7dedd30690fba0e457def979f6b83aad4d25edd661fdf2166c", "blocktime": 1537870928, "version": 1, "confirmations": 11514, "time": 1537870928, "locktime": 0, "vsize": 225, "size": 225}