{"hash": "6db89591dab8d2e6d3631a56d5b8e17368bf8bd32fb36b0384269d1795eb9e40", "blockhash": "00000000000000000018f53835495a110e01622372bf6ae95dc86f2b0ab887b0", "vout": [{"scriptPubKey": {"reqSigs": 1, "hex": "76a914b0207e516c2d7e2238284326776618bebc247cba88ac", "addresses": ["1H4GrSpoR3xW6Hz2jzHxsNJ2N7edSWm3tJ"], "asm": "OP_DUP OP_HASH160 b0207e516c2d7e2238284326776618bebc247cba OP_EQUALVERIFY OP_CHECKSIG", "type": "pubkeyhash"}, "value": 0.00644794, "n": 0}, {"scriptPubKey": {"type": "nulldata", "hex": "6a4c500000778c0001f70b36bf1d3054d80ba3060ce3ef3236678a625097bcbefa6b8351586b4e0397d38bd4ef329276b2018db169cec95baa0c4006144be3021c8cbf1d100759d4ba30d2c37bb011d97e02cf", "asm": "OP_RETURN 0000778c0001f70b36bf1d3054d80ba3060ce3ef3236678a625097bcbefa6b8351586b4e0397d38bd4ef329276b2018db169cec95baa0c4006144be3021c8cbf1d100759d4ba30d2c37bb011d97e02cf"}, "value": 0.0, "n": 1}], "hex": "01000000011e0b95baf6ae56338ba672231da8896f534a9f434f974bbd9f9f3c8d2cfe6961000000006a4730440220135da075fd6becd1235aad81fa4801e2ad9e3b44ca9c24b0d3ad20a410de88fd02203d3f0d07efeb42e0c52f6a62fefd47582a02f3ec665d0de1682f7d3754ecd96801210228fbbee094bb810628aa32e2e8fd4e1dc2e4b45b7297818817620c53f33e59d3ffffffff02bad60900000000001976a914b0207e516c2d7e2238284326776618bebc247cba88ac0000000000000000536a4c500000778c0001f70b36bf1d3054d80ba3060ce3ef3236678a625097bcbefa6b8351586b4e0397d38bd4ef329276b2018db169cec95baa0c4006144be3021c8cbf1d100759d4ba30d2c37bb011d97e02cf00000000", "vin": [{"sequence": 4294967295, "scriptSig": {"hex": "4730440220135da075fd6becd1235aad81fa4801e2ad9e3b44ca9c24b0d3ad20a410de88fd02203d3f0d07efeb42e0c52f6a62fefd47582a02f3ec665d0de1682f7d3754ecd96801210228fbbee094bb810628aa32e2e8fd4e1dc2e4b45b7297818817620c53f33e59d3", "asm": "30440220135da075fd6becd1235aad81fa4801e2ad9e3b44ca9c24b0d3ad20a410de88fd02203d3f0d07efeb42e0c52f6a62fefd47582a02f3ec665d0de1682f7d3754ecd968[ALL] 0228fbbee094bb810628aa32e2e8fd4e1dc2e4b45b7297818817620c53f33e59d3"}, "vout": 0, "txid": "6169fe2c8d3c9f9fbd4b974f439f4a536f89a81d2372a68b3356aef6ba950b1e"}], "txid": "6db89591dab8d2e6d3631a56d5b8e17368bf8bd32fb36b0384269d1795eb9e40", "blocktime": 1537870928, "version": 1, "confirmations": 11512, "time": 1537870928, "locktime": 0, "vsize": 283, "size": 283}