{"hash": "6db86ca1e3d92c73952e2faa610ef95a513966ef1a44cf631de75c5601f54b83", "blockhash": "0000000000000000000baef3f32e3676a92c3b2e5da21b426e4f302fc371ce76", "vout": [{"scriptPubKey": {"reqSigs": 1, "hex": "76a91493ea0bbe39fe260c69c15e42ad12bece1a2dae2988ac", "addresses": ["1EV6hzVkAotPQ3DiPwcjh1JqEZMeLomKp3"], "asm": "OP_DUP OP_HASH160 93ea0bbe39fe260c69c15e42ad12bece1a2dae29 OP_EQUALVERIFY OP_CHECKSIG", "type": "pubkeyhash"}, "value": 0.00056658, "n": 0}, {"scriptPubKey": {"reqSigs": 1, "hex": "a914f9183eff72da2ab182a24ba80f100d169f4a7b7d87", "addresses": ["3QQ7DxTqmMrNJr7ad7M6aFACGviPfrVzrm"], "asm": "OP_HASH160 f9183eff72da2ab182a24ba80f100d169f4a7b7d OP_EQUAL", "type": "scripthash"}, "value": 0.077, "n": 1}], "hex": "01000000016f0ba3c1401d7db0f87549f4d0d6bd78fc3ec019751d4316550cbf605f48293e030000006a473044022063fe603d27894a202ac5d28ecd08f357fbf0afe1127546453138df3d52679f9902200b1d3de07f9fda5c8830ab8b74499e34bae751c52a0c7c91b4439b80bd68c2a7012102635f607d047abd32e698bf26d60e515eb6116060f306129d70f6d0feecf0e6ccffffffff0252dd0000000000001976a91493ea0bbe39fe260c69c15e42ad12bece1a2dae2988ac207e75000000000017a914f9183eff72da2ab182a24ba80f100d169f4a7b7d8700000000", "vin": [{"sequence": 4294967295, "scriptSig": {"hex": "473044022063fe603d27894a202ac5d28ecd08f357fbf0afe1127546453138df3d52679f9902200b1d3de07f9fda5c8830ab8b74499e34bae751c52a0c7c91b4439b80bd68c2a7012102635f607d047abd32e698bf26d60e515eb6116060f306129d70f6d0feecf0e6cc", "asm": "3044022063fe603d27894a202ac5d28ecd08f357fbf0afe1127546453138df3d52679f9902200b1d3de07f9fda5c8830ab8b74499e34bae751c52a0c7c91b4439b80bd68c2a7[ALL] 02635f607d047abd32e698bf26d60e515eb6116060f306129d70f6d0feecf0e6cc"}, "vout": 3, "txid": "3e29485f60bf0c5516431d7519c03efc78bdd6d0f44975f8b07d1d40c1a30b6f"}], "txid": "6db86ca1e3d92c73952e2faa610ef95a513966ef1a44cf631de75c5601f54b83", "blocktime": 1537876114, "version": 1, "confirmations": 11459, "time": 1537876114, "locktime": 0, "vsize": 223, "size": 223}