{"hash": "1faf5ac918e83d7bc08e24ca646db3192ade0075a5d7adec73cd80ff649a9d24", "blockhash": "0000000000000000001f76057863aec43deb6fa401d9628bb513d65a8098bfab", "vout": [{"scriptPubKey": {"reqSigs": 1, "hex": "a91430f302bb1834a39728703157218a8a55ae9398e487", "addresses": ["369qURphVKRma6pT83v9SRgvb2cvznyb6h"], "asm": "OP_HASH160 30f302bb1834a39728703157218a8a55ae9398e4 OP_EQUAL", "type": "scripthash"}, "value": 0.01032039, "n": 0}, {"scriptPubKey": {"reqSigs": 1, "hex": "76a91447871885f421527d67230e4be821bcc3baf2709588ac", "addresses": ["17XCpEwKAcyCYLDLecXJsTS69TFwF4LQJk"], "asm": "OP_DUP OP_HASH160 47871885f421527d67230e4be821bcc3baf27095 OP_EQUALVERIFY OP_CHECKSIG", "type": "pubkeyhash"}, "value": 0.0014, "n": 1}], "hex": "02000000000101c79da0ee87e78dd65aa191641dc312015e1c65588788c744634f6407b444d5660100000017160014bc869820261476fcbbc602fcb2f5ceaeb1bab3e7feffffff0267bf0f000000000017a91430f302bb1834a39728703157218a8a55ae9398e487e0220200000000001976a91447871885f421527d67230e4be821bcc3baf2709588ac0247304402207fc6c0a5f0b1f62b60c0acfae977f8cef7c8ea9f5e8c17d788e8a41f1264129c022009aff7267e7d8845dd945cffac731dd95bf00326a56ded0bc07a792b7a05b78b012102ac41aca9484042785a2af7d108fc898236bc5990d3b242dcbd14dd03f8341c3bd7480800", "vin": [{"txinwitness": ["304402207fc6c0a5f0b1f62b60c0acfae977f8cef7c8ea9f5e8c17d788e8a41f1264129c022009aff7267e7d8845dd945cffac731dd95bf00326a56ded0bc07a792b7a05b78b01", "02ac41aca9484042785a2af7d108fc898236bc5990d3b242dcbd14dd03f8341c3b"], "sequence": 4294967294, "scriptSig": {"hex": "160014bc869820261476fcbbc602fcb2f5ceaeb1bab3e7", "asm": "0014bc869820261476fcbbc602fcb2f5ceaeb1bab3e7"}, "vout": 1, "txid": "66d544b407644f6344c7888758651c5e0112c31d6491a15ad68de787eea09dc7"}], "txid": "6db98404103ec548331ba0ba2d0eb99f731611a89020495fdd97245343e261c0", "blocktime": 1537873891, "version": 2, "confirmations": 11479, "time": 1537873891, "locktime": 542935, "vsize": 168, "size": 249}