{"hash": "6dc0e1de3b63157d37303ef82dd70628a0db136300d77a55bf8e35268a313514", "blockhash": "0000000000000000001e0dab787dd257d1dbfcb92a98c2207d5e1078be1f4165", "vout": [{"scriptPubKey": {"reqSigs": 1, "hex": "a9149af39bdd8a1e2920df37a4edf310d430ecd33bd787", "addresses": ["3FpKpKpHCpUuAtbeJeKtTQzRJdkKNbi4bu"], "asm": "OP_HASH160 9af39bdd8a1e2920df37a4edf310d430ecd33bd7 OP_EQUAL", "type": "scripthash"}, "value": 0.00075935, "n": 0}, {"scriptPubKey": {"reqSigs": 1, "hex": "76a914bd46f0c98eec49be31b54a6cee1cbefb4281f12e88ac", "addresses": ["1JFohJ2W13UNhd38Qcmn4Xz7UqiEvJ3XKT"], "asm": "OP_DUP OP_HASH160 bd46f0c98eec49be31b54a6cee1cbefb4281f12e OP_EQUALVERIFY OP_CHECKSIG", "type": "pubkeyhash"}, "value": 8.499e-05, "n": 1}], "hex": "0100000003e6e2ab726c1b3a5dac3c704a26d9efe8e338cf8cb4a8836f84b30925e21cce49000000006b48304502210097b7284520f50e294910da987ec256f6be29938ce64e1424a83a8e8fa16fd320022039ddaf7728d315f5a5578ef31a0d46483523323f893965e8dd80b5b9aacbcf81012103c85054ce89aeca101ce86ebb958c8e221bff6f55af2fc1e4037cde6dd987d39fffffffff27e898908722537a1172598af3d72e839e1640cab2a0279bd46e89bb549bf2a3000000006b483045022100885a36300fd6132075b4f4dbdc641f417505565f8f7c60e1bf016d3d53d6b188022048168cf9c11e6399972ac297abeb278308f601987ccc79949aa2855bd6e456ac012102e5cdc519d871b37392cae623d9e4e6e233cc97c1aa40d54502115a3a2d887fbcffffffffa655ba6b845bd8cc03dd252537bc4c2ebcfde29b56b63c6b8c0e69faefe57e76020000006a47304402201322c61139dc13410308d1a57d3d7712674dbd3cfa4976df180c52830eb86c26022007c74bd5c813ae1352e4e7b62eca2021cb669bf8b0e85dfa150e57defd1aaa8a012103a388b326db1add667c9a4e6e80cae3c7109942792febea5890f05841d879f301ffffffff029f2801000000000017a9149af39bdd8a1e2920df37a4edf310d430ecd33bd78733210000000000001976a914bd46f0c98eec49be31b54a6cee1cbefb4281f12e88ac00000000", "vin": [{"sequence": 4294967295, "scriptSig": {"hex": "48304502210097b7284520f50e294910da987ec256f6be29938ce64e1424a83a8e8fa16fd320022039ddaf7728d315f5a5578ef31a0d46483523323f893965e8dd80b5b9aacbcf81012103c85054ce89aeca101ce86ebb958c8e221bff6f55af2fc1e4037cde6dd987d39f", "asm": "304502210097b7284520f50e294910da987ec256f6be29938ce64e1424a83a8e8fa16fd320022039ddaf7728d315f5a5578ef31a0d46483523323f893965e8dd80b5b9aacbcf81[ALL] 03c85054ce89aeca101ce86ebb958c8e221bff6f55af2fc1e4037cde6dd987d39f"}, "vout": 0, "txid": "49ce1ce22509b3846f83a8b48ccf38e3e8efd9264a703cac5d3a1b6c72abe2e6"}, {"sequence": 4294967295, "scriptSig": {"hex": "483045022100885a36300fd6132075b4f4dbdc641f417505565f8f7c60e1bf016d3d53d6b188022048168cf9c11e6399972ac297abeb278308f601987ccc79949aa2855bd6e456ac012102e5cdc519d871b37392cae623d9e4e6e233cc97c1aa40d54502115a3a2d887fbc", "asm": "3045022100885a36300fd6132075b4f4dbdc641f417505565f8f7c60e1bf016d3d53d6b188022048168cf9c11e6399972ac297abeb278308f601987ccc79949aa2855bd6e456ac[ALL] 02e5cdc519d871b37392cae623d9e4e6e233cc97c1aa40d54502115a3a2d887fbc"}, "vout": 0, "txid": "a3f29b54bb896ed49b27a0b2ca40169e832ed7f38a5972117a5322879098e827"}, {"sequence": 4294967295, "scriptSig": {"hex": "47304402201322c61139dc13410308d1a57d3d7712674dbd3cfa4976df180c52830eb86c26022007c74bd5c813ae1352e4e7b62eca2021cb669bf8b0e85dfa150e57defd1aaa8a012103a388b326db1add667c9a4e6e80cae3c7109942792febea5890f05841d879f301", "asm": "304402201322c61139dc13410308d1a57d3d7712674dbd3cfa4976df180c52830eb86c26022007c74bd5c813ae1352e4e7b62eca2021cb669bf8b0e85dfa150e57defd1aaa8a[ALL] 03a388b326db1add667c9a4e6e80cae3c7109942792febea5890f05841d879f301"}, "vout": 2, "txid": "767ee5effa690e8c6b3cb6569be2fdbc2e4cbc372525dd03ccd85b846bba55a6"}], "txid": "6dc0e1de3b63157d37303ef82dd70628a0db136300d77a55bf8e35268a313514", "blocktime": 1537872475, "version": 1, "confirmations": 11486, "time": 1537872475, "locktime": 0, "vsize": 519, "size": 519}