{"hash": "6dc35e71f956deff0840faa76ba5e44ed2b88eaf516576038cfac50386d08d7d", "blockhash": "0000000000000000000dcc0f55137456b1a82d3642486a52398922ac4d620174", "vout": [{"scriptPubKey": {"reqSigs": 1, "hex": "a9144db8f91cd9cf9fdd0b796fafc5a87a0d6ed3ad2287", "addresses": ["38myYUFsCGh2CXXRBLgQQCTWcJRU78f7cK"], "asm": "OP_HASH160 4db8f91cd9cf9fdd0b796fafc5a87a0d6ed3ad22 OP_EQUAL", "type": "scripthash"}, "value": 0.01068, "n": 0}, {"scriptPubKey": {"reqSigs": 1, "hex": "a914e370231feecbfc25e2e2423a5a79bf79bfdca59887", "addresses": ["3NRbeX3vD5VaVE4TDU9ivCDsEf7NPPte6J"], "asm": "OP_HASH160 e370231feecbfc25e2e2423a5a79bf79bfdca598 OP_EQUAL", "type": "scripthash"}, "value": 0.76764874, "n": 1}], "hex": "010000000157235571144e04c7104c36358bc19f7cdaebd71c0c36f89a8b2d05b05178f68d01000000d90047304402200a49a106771a1316b77dcd9c649caeedf57cac4c10481fe9991367b71dd90eea022008955105378b4ca5bf98ba97dd71848c8754ca86ed69f5ca726aff418596a7df0147304402206cbb5d69a2ae3130f1fb3aa6a63a67582eff53d5b244aa525e7533b4b6935b8c02207462c3ed9528f34869df543ddb972062b9f89bc12bf7ad99c0973448ea093f7f014752210327881b6abce6535553a3ce21fad12a7d74fd237ce7c4cd270a267162344e3082210256141f8eb687f5a68c5cc65054652dc25116fa285e44d72b44368827ffe77d9a52aeffffffff02e04b10000000000017a9144db8f91cd9cf9fdd0b796fafc5a87a0d6ed3ad2287ca5693040000000017a914e370231feecbfc25e2e2423a5a79bf79bfdca5988700000000", "vin": [{"sequence": 4294967295, "scriptSig": {"hex": "0047304402200a49a106771a1316b77dcd9c649caeedf57cac4c10481fe9991367b71dd90eea022008955105378b4ca5bf98ba97dd71848c8754ca86ed69f5ca726aff418596a7df0147304402206cbb5d69a2ae3130f1fb3aa6a63a67582eff53d5b244aa525e7533b4b6935b8c02207462c3ed9528f34869df543ddb972062b9f89bc12bf7ad99c0973448ea093f7f014752210327881b6abce6535553a3ce21fad12a7d74fd237ce7c4cd270a267162344e3082210256141f8eb687f5a68c5cc65054652dc25116fa285e44d72b44368827ffe77d9a52ae", "asm": "0 304402200a49a106771a1316b77dcd9c649caeedf57cac4c10481fe9991367b71dd90eea022008955105378b4ca5bf98ba97dd71848c8754ca86ed69f5ca726aff418596a7df[ALL] 304402206cbb5d69a2ae3130f1fb3aa6a63a67582eff53d5b244aa525e7533b4b6935b8c02207462c3ed9528f34869df543ddb972062b9f89bc12bf7ad99c0973448ea093f7f[ALL] 52210327881b6abce6535553a3ce21fad12a7d74fd237ce7c4cd270a267162344e3082210256141f8eb687f5a68c5cc65054652dc25116fa285e44d72b44368827ffe77d9a52ae"}, "vout": 1, "txid": "8df67851b0052d8b9af8360c1cd7ebda7c9fc18b35364c10c7044e1471552357"}], "txid": "6dc35e71f956deff0840faa76ba5e44ed2b88eaf516576038cfac50386d08d7d", "blocktime": 1537870268, "version": 1, "confirmations": 11518, "time": 1537870268, "locktime": 0, "vsize": 332, "size": 332}