{"hash": "6dc5e751c43b90c84fdec999fe3f3abc5e9527f7a205db04897a790d87e1d16a", "blockhash": "000000000000000000022b45ed06c6f4ccd3cf7fb5ba4856ebd2e58215665228", "vout": [{"scriptPubKey": {"reqSigs": 1, "hex": "a9149984e7c90c3bf0aa7fb2a22c950122ce4e53776f87", "addresses": ["3FgkXKj9JL58aXPPrPY6MyKRrxR9RtQdEb"], "asm": "OP_HASH160 9984e7c90c3bf0aa7fb2a22c950122ce4e53776f OP_EQUAL", "type": "scripthash"}, "value": 0.2397667, "n": 0}, {"scriptPubKey": {"reqSigs": 1, "hex": "76a9142f52951a3c689bd3e4e670fce95ddfe2e5e570b388ac", "addresses": ["15KDgwkWaV96J7eauufgJasVTNgg2SQrNy"], "asm": "OP_DUP OP_HASH160 2f52951a3c689bd3e4e670fce95ddfe2e5e570b3 OP_EQUALVERIFY OP_CHECKSIG", "type": "pubkeyhash"}, "value": 0.00865829, "n": 1}], "hex": "0200000004c94e8c74799a572d24733441d7acd5866318465b896cb2281c09bcbeded89f051a0000006a47304402207553a98d556b15a13dbb02282e8aba03933e4247632db8dad2bacb36f73972920220393537d15848a7e568f1385967017c3ffffd588e3c8a3d020d62965b56a47ceb01210327c571b312b766710ee2f69b1de6fea6a04363b64c19684b16f700ea32421333feffffff5d500b81072d828b3e8679e89099ca64f4286111edd7f47f90bb2e06f9fd459c980000006b4830450221008fb387916bc26bef5a24e8c133ea22bbd913b5b017d5e7b78f7761d93620377302204abffbad3d0a361c82063d3c37e175ea883dbd876b41ce9bea3aea11c728ce2e0121029c05cc69379a6fb21ffa95871b948077b1941bc47494106019c0173a419fa393feffffff3a72cdfab639833adf156c0d1a5a51abf67ba4ddfa773d38e9edabf573aec1071b0000006a4730440220192b315483005018e0bb41d78b14d4ee8def03a49539bfce7790901699ca481002203c1101b9d8bd947bbc16ae1f753d8f2d5a3565f4430c67b7f67313258e229e7e012103b552e921e79192cdd9ca57f676f56d0c1d0d1a1595201fc94b2528c24c90f478feffffffcfeb49957f559470a71f493168f2efdff9a4704fc4a646a312a622fb091e312c010000006b483045022100a4c3d10c9c6551ea61c44bd690e8fbd9df9896e5187811d6d9c5ec6097ed35550220648fc417492e758c09ab7a455a8d97272451e3bea28aa4e59e99995a84f15f3d012103069613ced837d476b4fe3df41e4a8ffb17bc6886bc5a485814a8625a3270f084feffffff02deda6d010000000017a9149984e7c90c3bf0aa7fb2a22c950122ce4e53776f8725360d00000000001976a9142f52951a3c689bd3e4e670fce95ddfe2e5e570b388acb4480800", "vin": [{"sequence": 4294967294, "scriptSig": {"hex": "47304402207553a98d556b15a13dbb02282e8aba03933e4247632db8dad2bacb36f73972920220393537d15848a7e568f1385967017c3ffffd588e3c8a3d020d62965b56a47ceb01210327c571b312b766710ee2f69b1de6fea6a04363b64c19684b16f700ea32421333", "asm": "304402207553a98d556b15a13dbb02282e8aba03933e4247632db8dad2bacb36f73972920220393537d15848a7e568f1385967017c3ffffd588e3c8a3d020d62965b56a47ceb[ALL] 0327c571b312b766710ee2f69b1de6fea6a04363b64c19684b16f700ea32421333"}, "vout": 26, "txid": "059fd8debebc091c28b26c895b46186386d5acd7413473242d579a79748c4ec9"}, {"sequence": 4294967294, "scriptSig": {"hex": "4830450221008fb387916bc26bef5a24e8c133ea22bbd913b5b017d5e7b78f7761d93620377302204abffbad3d0a361c82063d3c37e175ea883dbd876b41ce9bea3aea11c728ce2e0121029c05cc69379a6fb21ffa95871b948077b1941bc47494106019c0173a419fa393", "asm": "30450221008fb387916bc26bef5a24e8c133ea22bbd913b5b017d5e7b78f7761d93620377302204abffbad3d0a361c82063d3c37e175ea883dbd876b41ce9bea3aea11c728ce2e[ALL] 029c05cc69379a6fb21ffa95871b948077b1941bc47494106019c0173a419fa393"}, "vout": 152, "txid": "9c45fdf9062ebb907ff4d7ed116128f464ca9990e879863e8b822d07810b505d"}, {"sequence": 4294967294, "scriptSig": {"hex": "4730440220192b315483005018e0bb41d78b14d4ee8def03a49539bfce7790901699ca481002203c1101b9d8bd947bbc16ae1f753d8f2d5a3565f4430c67b7f67313258e229e7e012103b552e921e79192cdd9ca57f676f56d0c1d0d1a1595201fc94b2528c24c90f478", "asm": "30440220192b315483005018e0bb41d78b14d4ee8def03a49539bfce7790901699ca481002203c1101b9d8bd947bbc16ae1f753d8f2d5a3565f4430c67b7f67313258e229e7e[ALL] 03b552e921e79192cdd9ca57f676f56d0c1d0d1a1595201fc94b2528c24c90f478"}, "vout": 27, "txid": "07c1ae73f5abede9383d77fadda47bf6ab515a1a0d6c15df3a8339b6facd723a"}, {"sequence": 4294967294, "scriptSig": {"hex": "483045022100a4c3d10c9c6551ea61c44bd690e8fbd9df9896e5187811d6d9c5ec6097ed35550220648fc417492e758c09ab7a455a8d97272451e3bea28aa4e59e99995a84f15f3d012103069613ced837d476b4fe3df41e4a8ffb17bc6886bc5a485814a8625a3270f084", "asm": "3045022100a4c3d10c9c6551ea61c44bd690e8fbd9df9896e5187811d6d9c5ec6097ed35550220648fc417492e758c09ab7a455a8d97272451e3bea28aa4e59e99995a84f15f3d[ALL] 03069613ced837d476b4fe3df41e4a8ffb17bc6886bc5a485814a8625a3270f084"}, "vout": 1, "txid": "2c311e09fb22a612a346a6c44f70a4f9dfeff26831491fa77094557f9549ebcf"}], "txid": "6dc5e751c43b90c84fdec999fe3f3abc5e9527f7a205db04897a790d87e1d16a", "blocktime": 1537869901, "version": 2, "confirmations": 11522, "time": 1537869901, "locktime": 542900, "vsize": 666, "size": 666}