{"hash": "6dc6fac7422f61055b12ccce0134a04ad3f21cab01707aa392ef969c38a2e906", "blockhash": "0000000000000000001cda96e906b7601b7a6fb1a3b62bca570a9e5d8f4b3de1", "vout": [{"scriptPubKey": {"reqSigs": 1, "hex": "76a914021aa4526ef550bc382ea15d428042dfb46261ad88ac", "addresses": ["1C8GVfG9NJAvNFZEEMqHNAfATpfRrenyJ"], "asm": "OP_DUP OP_HASH160 021aa4526ef550bc382ea15d428042dfb46261ad OP_EQUALVERIFY OP_CHECKSIG", "type": "pubkeyhash"}, "value": 0.01558168, "n": 0}], "hex": "0100000001bb968b8bb83b114114cbf021e51b9668d1b2ce18aab5b086e71e13f7a1dc7233010000006a473044022022c9014aa8188cd483b89ca75cad387722fd5cc002d16f2ad97964ae7d89111d02205a05fadf25e3bbccea8c716552d5e2c1cafcde160472ff8b90b70bcd125688ad01210385cddab62ef7cb66c68d5fe67158ef90437354141254a0166adc5d6c03c1c6faffffffff0198c61700000000001976a914021aa4526ef550bc382ea15d428042dfb46261ad88ac00000000", "vin": [{"sequence": 4294967295, "scriptSig": {"hex": "473044022022c9014aa8188cd483b89ca75cad387722fd5cc002d16f2ad97964ae7d89111d02205a05fadf25e3bbccea8c716552d5e2c1cafcde160472ff8b90b70bcd125688ad01210385cddab62ef7cb66c68d5fe67158ef90437354141254a0166adc5d6c03c1c6fa", "asm": "3044022022c9014aa8188cd483b89ca75cad387722fd5cc002d16f2ad97964ae7d89111d02205a05fadf25e3bbccea8c716552d5e2c1cafcde160472ff8b90b70bcd125688ad[ALL] 0385cddab62ef7cb66c68d5fe67158ef90437354141254a0166adc5d6c03c1c6fa"}, "vout": 1, "txid": "3372dca1f7131ee786b0b5aa18ceb2d168961be521f0cb1441113bb88b8b96bb"}], "txid": "6dc6fac7422f61055b12ccce0134a04ad3f21cab01707aa392ef969c38a2e906", "blocktime": 1537873282, "version": 1, "confirmations": 11480, "time": 1537873282, "locktime": 0, "vsize": 191, "size": 191}