{"hash": "6dc835236376cb5cd8caaf804f9d02f356f13eed6a5f59fe535ef5c443e29246", "blockhash": "0000000000000000000baef3f32e3676a92c3b2e5da21b426e4f302fc371ce76", "vout": [{"scriptPubKey": {"reqSigs": 1, "hex": "76a914beda22d3afdc9e671073178fe0b8d5bd4b29783188ac", "addresses": ["1JQ8hojU6Y5J94VpQarfeeGvZ825QNPimz"], "asm": "OP_DUP OP_HASH160 beda22d3afdc9e671073178fe0b8d5bd4b297831 OP_EQUALVERIFY OP_CHECKSIG", "type": "pubkeyhash"}, "value": 0.06413532, "n": 0}, {"scriptPubKey": {"reqSigs": 1, "hex": "76a9141444f7e0fd483c23632624ebef278039330a015d88ac", "addresses": ["12rB8qWxRMSHdo1kFvrXeJwBfXwsMMHxiF"], "asm": "OP_DUP OP_HASH160 1444f7e0fd483c23632624ebef278039330a015d OP_EQUALVERIFY OP_CHECKSIG", "type": "pubkeyhash"}, "value": 0.05738872, "n": 1}], "hex": "01000000023c442d409fad97cc95671a6f6378c5147a107a38bcb160b9738c2aea338631db000000006b483045022100a60ca5406e91a8ad93f3f59d15f2f71026cc3d93648a7f3a4ddb277eebb64fc1022000b6610e64c68c6e09c2409f5448c5bd0a08b8bf3bf63617b6f9340d9f8e7e9201210299d7c8197ec2ce39742ec25a2003abc77df7b56f5d1e4c6e304cea1e78ab4692ffffffffb864698fefc075522b96f73389e1605424cb2b40e6dc90b94cab60f59eeff666000000006b4830450221008bb7c9c86526b66a4a28fae658b3b891a9451932900d78c6a3cd19524f239fab022034bb3ce2f470437024b6986d3d5075fa699accdf28291d3169763c88b277fffb01210299d7c8197ec2ce39742ec25a2003abc77df7b56f5d1e4c6e304cea1e78ab4692ffffffff02dcdc6100000000001976a914beda22d3afdc9e671073178fe0b8d5bd4b29783188ac78915700000000001976a9141444f7e0fd483c23632624ebef278039330a015d88ac00000000", "vin": [{"sequence": 4294967295, "scriptSig": {"hex": "483045022100a60ca5406e91a8ad93f3f59d15f2f71026cc3d93648a7f3a4ddb277eebb64fc1022000b6610e64c68c6e09c2409f5448c5bd0a08b8bf3bf63617b6f9340d9f8e7e9201210299d7c8197ec2ce39742ec25a2003abc77df7b56f5d1e4c6e304cea1e78ab4692", "asm": "3045022100a60ca5406e91a8ad93f3f59d15f2f71026cc3d93648a7f3a4ddb277eebb64fc1022000b6610e64c68c6e09c2409f5448c5bd0a08b8bf3bf63617b6f9340d9f8e7e92[ALL] 0299d7c8197ec2ce39742ec25a2003abc77df7b56f5d1e4c6e304cea1e78ab4692"}, "vout": 0, "txid": "db318633ea2a8c73b960b1bc387a107a14c578636f1a6795cc97ad9f402d443c"}, {"sequence": 4294967295, "scriptSig": {"hex": "4830450221008bb7c9c86526b66a4a28fae658b3b891a9451932900d78c6a3cd19524f239fab022034bb3ce2f470437024b6986d3d5075fa699accdf28291d3169763c88b277fffb01210299d7c8197ec2ce39742ec25a2003abc77df7b56f5d1e4c6e304cea1e78ab4692", "asm": "30450221008bb7c9c86526b66a4a28fae658b3b891a9451932900d78c6a3cd19524f239fab022034bb3ce2f470437024b6986d3d5075fa699accdf28291d3169763c88b277fffb[ALL] 0299d7c8197ec2ce39742ec25a2003abc77df7b56f5d1e4c6e304cea1e78ab4692"}, "vout": 0, "txid": "66f6ef9ef560ab4cb990dce6402bcb245460e18933f7962b5275c0ef8f6964b8"}], "txid": "6dc835236376cb5cd8caaf804f9d02f356f13eed6a5f59fe535ef5c443e29246", "blocktime": 1537876114, "version": 1, "confirmations": 11460, "time": 1537876114, "locktime": 0, "vsize": 374, "size": 374}