{"hash": "81af06b89c87fed609213152b8b6c5637522f540eb09bfb28b0fa437b49637e1", "blockhash": "0000000000000000001f76057863aec43deb6fa401d9628bb513d65a8098bfab", "vout": [{"scriptPubKey": {"reqSigs": 1, "hex": "76a91436fb5c6dc6e76a482a425a8c4273698d614b6cce88ac", "addresses": ["161icEPM7bF3qQY3oSJ2WZyZzmQzwARCKG"], "asm": "OP_DUP OP_HASH160 36fb5c6dc6e76a482a425a8c4273698d614b6cce OP_EQUALVERIFY OP_CHECKSIG", "type": "pubkeyhash"}, "value": 0.07891692, "n": 0}, {"scriptPubKey": {"reqSigs": 1, "hex": "0014abc169a8ada8ebf4baac94a2d9ed5a750a470a11", "addresses": ["bc1q40qkn29d4r4lfw4vjj3dnm26w59ywzs3uv53ul"], "asm": "0 abc169a8ada8ebf4baac94a2d9ed5a750a470a11", "type": "witness_v0_keyhash"}, "value": 0.00244508, "n": 1}], "hex": "01000000000101b93d0f4dccdf12f122490f6a48d4c119e1d3cd58d8b7ac82a9fd625dcfc8302b0100000017160014abd7222300b29151b171c6e246f9efaf0136989bffffffff02ec6a7800000000001976a91436fb5c6dc6e76a482a425a8c4273698d614b6cce88ac1cbb030000000000160014abc169a8ada8ebf4baac94a2d9ed5a750a470a1102483045022100ab06096aa9b75d5c0333e947a48023983d0c11db43c10e0a8984b239645a3fb2022038a01805187a82f280e585a3416eef7e87e82fa30c49e0c2e5ba34860ae77cfa012102615e935070620d2fb290ce4f378685f07cc9f1cfe5673f0f786ec2a770bd990600000000", "vin": [{"txinwitness": ["3045022100ab06096aa9b75d5c0333e947a48023983d0c11db43c10e0a8984b239645a3fb2022038a01805187a82f280e585a3416eef7e87e82fa30c49e0c2e5ba34860ae77cfa01", "02615e935070620d2fb290ce4f378685f07cc9f1cfe5673f0f786ec2a770bd9906"], "sequence": 4294967295, "scriptSig": {"hex": "160014abd7222300b29151b171c6e246f9efaf0136989b", "asm": "0014abd7222300b29151b171c6e246f9efaf0136989b"}, "vout": 1, "txid": "2b30c8cf5d62fda982acb7d858cdd3e119c1d4486a0f4922f112dfcc4d0f3db9"}], "txid": "6dd1d4edcc02290c661d66e511adff98ad05b284f0a3fc682cd01f3550bd9c61", "blocktime": 1537873891, "version": 1, "confirmations": 11478, "time": 1537873891, "locktime": 0, "vsize": 167, "size": 249}