{"hash": "6dd3fb7aa7967f507cf61a03a918f721b068603e424c365508a5284bccd3ecbc", "blockhash": "0000000000000000000e13cef7c366c0283d82e591d1acd082e914b08063cdf1", "vout": [{"scriptPubKey": {"reqSigs": 1, "hex": "a914fecfd33dc89e719a8e0b2a70d1c6df4c994cf17587", "addresses": ["3QvLXDNKRpkNnTvfqPxFy9482VPYC1Qgin"], "asm": "OP_HASH160 fecfd33dc89e719a8e0b2a70d1c6df4c994cf175 OP_EQUAL", "type": "scripthash"}, "value": 0.00039452, "n": 0}, {"scriptPubKey": {"reqSigs": 1, "hex": "76a91451881b523d98d6a0228b94fd9248d3406bd8f3b288ac", "addresses": ["18S6nQ9xAKAXpBvw4Auf9y4G1mmS2Etzrj"], "asm": "OP_DUP OP_HASH160 51881b523d98d6a0228b94fd9248d3406bd8f3b2 OP_EQUALVERIFY OP_CHECKSIG", "type": "pubkeyhash"}, "value": 0.01545197, "n": 1}], "hex": "0100000001c80ff68114469275115d854776e7a59bdf96f4b8f1ec817d695b84a056d4ff73010000006b4830450221009e131374ce59371c054b9e35be2ca548afa40a52fd130ac6ef87e038209fda970220149ee9be18a1e846ead2f1d0fd62065ad0a4b9b3deaecd485527970d323a3b70012103fe2042a3c241435367d3253a2f17b17333c6a841ada7d68befe16dad0f59a2eaffffffff021c9a00000000000017a914fecfd33dc89e719a8e0b2a70d1c6df4c994cf17587ed931700000000001976a91451881b523d98d6a0228b94fd9248d3406bd8f3b288ac00000000", "vin": [{"sequence": 4294967295, "scriptSig": {"hex": "4830450221009e131374ce59371c054b9e35be2ca548afa40a52fd130ac6ef87e038209fda970220149ee9be18a1e846ead2f1d0fd62065ad0a4b9b3deaecd485527970d323a3b70012103fe2042a3c241435367d3253a2f17b17333c6a841ada7d68befe16dad0f59a2ea", "asm": "30450221009e131374ce59371c054b9e35be2ca548afa40a52fd130ac6ef87e038209fda970220149ee9be18a1e846ead2f1d0fd62065ad0a4b9b3deaecd485527970d323a3b70[ALL] 03fe2042a3c241435367d3253a2f17b17333c6a841ada7d68befe16dad0f59a2ea"}, "vout": 1, "txid": "73ffd456a0845b697d81ecf1b8f496df9ba5e77647855d117592461481f60fc8"}], "txid": "6dd3fb7aa7967f507cf61a03a918f721b068603e424c365508a5284bccd3ecbc", "blocktime": 1537871767, "version": 1, "confirmations": 11495, "time": 1537871767, "locktime": 0, "vsize": 224, "size": 224}