{"hash": "6dd6b5337c0ed2cf96fdaf83d298e0e89950295362980d1dcc1e52bbf63174d6", "blockhash": "00000000000000000017f5eb5941039fbcee6240d03bc1f2f8e35350df66a1d8", "vout": [{"scriptPubKey": {"reqSigs": 1, "hex": "76a914b1461c5ec671fdaa981f633d9959244684a557f188ac", "addresses": ["1HALbLgCe7duAuXdHfVBLdGsdsmm1VKw4f"], "asm": "OP_DUP OP_HASH160 b1461c5ec671fdaa981f633d9959244684a557f1 OP_EQUALVERIFY OP_CHECKSIG", "type": "pubkeyhash"}, "value": 0.0005, "n": 0}, {"scriptPubKey": {"reqSigs": 1, "hex": "76a914892ece473bf90dc9a74cd0c70cd02444a5b4ec4488ac", "addresses": ["1DWMeQNf8XFKuE4sZpW1dz2xwRW5mRNgfG"], "asm": "OP_DUP OP_HASH160 892ece473bf90dc9a74cd0c70cd02444a5b4ec44 OP_EQUALVERIFY OP_CHECKSIG", "type": "pubkeyhash"}, "value": 0.00049, "n": 1}], "hex": "020000000167ad860ef53f947b1dd1cbe30ad049a2e927d7e90be163ab437149b803e00b4c010000006a473044022003bf2604502aee0ca2f0a87a2a3c6fb1b60e5294b3dbeaca7469c93fd0b761c502205e334e34a4bdc1bc7d6ee722de2f820b28e19f01354beb5f2121d13f953ed4b701210385ce12e50283171941dc656521f71e8fc2a8dd0b6bdac7a3f9a1b434f8e9e702ffffffff0250c30000000000001976a914b1461c5ec671fdaa981f633d9959244684a557f188ac68bf0000000000001976a914892ece473bf90dc9a74cd0c70cd02444a5b4ec4488ac00000000", "vin": [{"sequence": 4294967295, "scriptSig": {"hex": "473044022003bf2604502aee0ca2f0a87a2a3c6fb1b60e5294b3dbeaca7469c93fd0b761c502205e334e34a4bdc1bc7d6ee722de2f820b28e19f01354beb5f2121d13f953ed4b701210385ce12e50283171941dc656521f71e8fc2a8dd0b6bdac7a3f9a1b434f8e9e702", "asm": "3044022003bf2604502aee0ca2f0a87a2a3c6fb1b60e5294b3dbeaca7469c93fd0b761c502205e334e34a4bdc1bc7d6ee722de2f820b28e19f01354beb5f2121d13f953ed4b7[ALL] 0385ce12e50283171941dc656521f71e8fc2a8dd0b6bdac7a3f9a1b434f8e9e702"}, "vout": 1, "txid": "4c0be003b8497143ab63e10be9d727e9a249d00ae3cbd11d7b943ff50e86ad67"}], "txid": "6dd6b5337c0ed2cf96fdaf83d298e0e89950295362980d1dcc1e52bbf63174d6", "blocktime": 1537874412, "version": 2, "confirmations": 11467, "time": 1537874412, "locktime": 0, "vsize": 225, "size": 225}