{"hash": "6dd681cd3c0b548e1ccc140c7122e49963880a9dbb480c943c17363f1f02e26b", "blockhash": "000000000000000000022b45ed06c6f4ccd3cf7fb5ba4856ebd2e58215665228", "vout": [{"scriptPubKey": {"type": "nulldata", "hex": "6a146f6d6e69000000000000001f00000013d650d400", "asm": "OP_RETURN 6f6d6e69000000000000001f00000013d650d400"}, "value": 0.0, "n": 0}, {"scriptPubKey": {"reqSigs": 1, "hex": "76a91454a9a645b71a6e9babce76d962c339f9c55de57488ac", "addresses": ["18iezZvv85qWM2fQCSkwnq8ZF5GjYQGmVY"], "asm": "OP_DUP OP_HASH160 54a9a645b71a6e9babce76d962c339f9c55de574 OP_EQUALVERIFY OP_CHECKSIG", "type": "pubkeyhash"}, "value": 0.00499064, "n": 1}, {"scriptPubKey": {"reqSigs": 1, "hex": "76a914a25dec4d0011064ef106a983c39c7a540699f22088ac", "addresses": ["1FoWyxwPXuj4C6abqwhjDWdz6D4PZgYRjA"], "asm": "OP_DUP OP_HASH160 a25dec4d0011064ef106a983c39c7a540699f220 OP_EQUALVERIFY OP_CHECKSIG", "type": "pubkeyhash"}, "value": 5.46e-06, "n": 2}], "hex": "0100000001912557e17582ceb1e81d6f8ffb4f018df417ac78d3254cd8c0dfa44a279b8e73040000006a473044022030974fbca0ac524f9a969bdcfb3f125fae53406017f3ce50f9977390c13955290220467d710b5166bc1b7f11c83a97e9a61da36b98b1133757ed653b9dfa198cc28f0121025bca54319f5a57f595a4ba45b130bfb45da0303926fb882e9c685201ab6391a2feffffff030000000000000000166a146f6d6e69000000000000001f00000013d650d400789d0700000000001976a91454a9a645b71a6e9babce76d962c339f9c55de57488ac22020000000000001976a914a25dec4d0011064ef106a983c39c7a540699f22088ac0b490800", "vin": [{"sequence": 4294967294, "scriptSig": {"hex": "473044022030974fbca0ac524f9a969bdcfb3f125fae53406017f3ce50f9977390c13955290220467d710b5166bc1b7f11c83a97e9a61da36b98b1133757ed653b9dfa198cc28f0121025bca54319f5a57f595a4ba45b130bfb45da0303926fb882e9c685201ab6391a2", "asm": "3044022030974fbca0ac524f9a969bdcfb3f125fae53406017f3ce50f9977390c13955290220467d710b5166bc1b7f11c83a97e9a61da36b98b1133757ed653b9dfa198cc28f[ALL] 025bca54319f5a57f595a4ba45b130bfb45da0303926fb882e9c685201ab6391a2"}, "vout": 4, "txid": "738e9b274aa4dfc0d84c25d378ac17f48d014ffb8f6f1de8b1ce8275e1572591"}], "txid": "6dd681cd3c0b548e1ccc140c7122e49963880a9dbb480c943c17363f1f02e26b", "blocktime": 1537869901, "version": 1, "confirmations": 11524, "time": 1537869901, "locktime": 542987, "vsize": 256, "size": 256}