{"hash": "6ae885e6484607c378a0b013e9748884224e3f0a95b017d4a226376a297a1eb0", "blockhash": "0000000000000000001cda96e906b7601b7a6fb1a3b62bca570a9e5d8f4b3de1", "vout": [{"scriptPubKey": {"reqSigs": 1, "hex": "a914568cf17f450cd01957f5bcbaca24b31e88d03b4987", "addresses": ["39aesxSYeqHwvkGcvHSD62ogimYDJYtche"], "asm": "OP_HASH160 568cf17f450cd01957f5bcbaca24b31e88d03b49 OP_EQUAL", "type": "scripthash"}, "value": 0.0023, "n": 0}, {"scriptPubKey": {"reqSigs": 1, "hex": "a9143b88b7b4b57196040a236b1eb33bd2f9d9b49eea87", "addresses": ["377oaAekPQzHFJyucA5bfJdvqQcHBqae3F"], "asm": "OP_HASH160 3b88b7b4b57196040a236b1eb33bd2f9d9b49eea OP_EQUAL", "type": "scripthash"}, "value": 0.00177369, "n": 1}], "hex": "01000000000101be18fdf7a470e668c49bb80c0d5f8826c5387df2d6adb683360b845b837f0ef90100000017160014d24527cf8f228407f566d4f08c300170f349db89ffffffff02708203000000000017a914568cf17f450cd01957f5bcbaca24b31e88d03b4987d9b402000000000017a9143b88b7b4b57196040a236b1eb33bd2f9d9b49eea8702483045022100b0ea51a2db9f1350495e0aa974b7a3e02c53b45ae88d176aa0e4ca6259f12f980220652618c94b9a6a4c36c105d94ce20a041847189445dee6690575e4295550fcfd0121023efe227a7fa2298a7d6e32c098c1839ab174a4e1136b7cd1130f9452cbb975e400000000", "vin": [{"txinwitness": ["3045022100b0ea51a2db9f1350495e0aa974b7a3e02c53b45ae88d176aa0e4ca6259f12f980220652618c94b9a6a4c36c105d94ce20a041847189445dee6690575e4295550fcfd01", "023efe227a7fa2298a7d6e32c098c1839ab174a4e1136b7cd1130f9452cbb975e4"], "sequence": 4294967295, "scriptSig": {"hex": "160014d24527cf8f228407f566d4f08c300170f349db89", "asm": "0014d24527cf8f228407f566d4f08c300170f349db89"}, "vout": 1, "txid": "f90e7f835b840b3683b6add6f27d38c526885f0d0cb89bc468e670a4f7fd18be"}], "txid": "6dd996a343eb5f9738c5d3b264e51f224da1479c4cc58314c4f595da5c717600", "blocktime": 1537873282, "version": 1, "confirmations": 11480, "time": 1537873282, "locktime": 0, "vsize": 166, "size": 248}