{"hash": "548c52fc6201396523e378615f17949ecbcfb7181c77f267e646760949f948f2", "blockhash": "000000000000000000022b45ed06c6f4ccd3cf7fb5ba4856ebd2e58215665228", "vout": [{"scriptPubKey": {"reqSigs": 1, "hex": "00148a9593b08b3d78f25ceeeda53d8d906c45febb6c", "addresses": ["bc1q322e8vyt84u0yh8wakjnmrvsd3zlawmv5r0hty"], "asm": "0 8a9593b08b3d78f25ceeeda53d8d906c45febb6c", "type": "witness_v0_keyhash"}, "value": 0.00983598, "n": 0}, {"scriptPubKey": {"reqSigs": 1, "hex": "a9149c2919082f40aa01ac4abe06d7fbb429f68abf4e87", "addresses": ["3FviZzZMbhf2LhNdnQHNi4pFFhteGsmjgc"], "asm": "OP_HASH160 9c2919082f40aa01ac4abe06d7fbb429f68abf4e OP_EQUAL", "type": "scripthash"}, "value": 0.02138523, "n": 1}], "hex": "01000000000101f755fe894f21560752cae9819297f35840845f5bda6f3d094e451c99c1053ddf0000000017160014143a139eb7eb4dbd047eb6fb4b11af542128cf55ffffffff022e020f00000000001600148a9593b08b3d78f25ceeeda53d8d906c45febb6c9ba120000000000017a9149c2919082f40aa01ac4abe06d7fbb429f68abf4e870247304402203a82437194ffff02bb9b7ac2ce07b8a5b20fa0d7cbf8b6269fd5de1c337892ad02201ad58596b4d65dd670359a0878eafa20b0e164334144724548cd7c58cbbab4de012103e8f47f640a0c27ef7d6635643ecdf134df0851f5c30e4acfc5a30c6f09b51db400000000", "vin": [{"txinwitness": ["304402203a82437194ffff02bb9b7ac2ce07b8a5b20fa0d7cbf8b6269fd5de1c337892ad02201ad58596b4d65dd670359a0878eafa20b0e164334144724548cd7c58cbbab4de01", "03e8f47f640a0c27ef7d6635643ecdf134df0851f5c30e4acfc5a30c6f09b51db4"], "sequence": 4294967295, "scriptSig": {"hex": "160014143a139eb7eb4dbd047eb6fb4b11af542128cf55", "asm": "0014143a139eb7eb4dbd047eb6fb4b11af542128cf55"}, "vout": 0, "txid": "df3d05c1991c454e093d6fda5b5f844058f3979281e9ca520756214f89fe55f7"}], "txid": "6ddd3ce949ff3ffc0ae7246e51a1856667c188af8abe0ddd6b0097446dd25ba6", "blocktime": 1537869901, "version": 1, "confirmations": 11523, "time": 1537869901, "locktime": 0, "vsize": 165, "size": 246}