{"hash": "5057269b484762254a8948ab5dd2b7ca311c69060ee3b8ff4d0ac04b51384be5", "blockhash": "00000000000000000018f53835495a110e01622372bf6ae95dc86f2b0ab887b0", "vout": [{"scriptPubKey": {"reqSigs": 1, "hex": "76a914ff0a31c5d809b8e52c4a9d66592d20634943e95488ac", "addresses": ["1QFXXEo4jDssKGQ3UpHskCQpwqwQHNULzk"], "asm": "OP_DUP OP_HASH160 ff0a31c5d809b8e52c4a9d66592d20634943e954 OP_EQUALVERIFY OP_CHECKSIG", "type": "pubkeyhash"}, "value": 0.07, "n": 0}, {"scriptPubKey": {"reqSigs": 1, "hex": "a91428dc4e6887264e27af27345591e584be9aa569d487", "addresses": ["35R4sNAuGhqfJizt8AWuhrJBv6aiNpawFf"], "asm": "OP_HASH160 28dc4e6887264e27af27345591e584be9aa569d4 OP_EQUAL", "type": "scripthash"}, "value": 1.70269515, "n": 1}], "hex": "020000000001011d3e7e75fd39c531eae9c38e16bb13678d4ce3fac3973bda3e300e9cff3c4fd80100000017160014c0bc9d371d920fbbad35f4052c6976c22a7fd4b8ffffffff02c0cf6a00000000001976a914ff0a31c5d809b8e52c4a9d66592d20634943e95488ac4b1b260a0000000017a91428dc4e6887264e27af27345591e584be9aa569d48702483045022100fa27e075f72cce6bb554f5f7b4c555d79b59be5516a9d2da7ea1483956000a1902200e1f5c1b6d5b12e21b667a4c03795923400f898244869a596278b04277144fce012103154004e9b8abbbef0c2dfe9f526239c503270ed69e89d2a09245498f80fa48c400000000", "vin": [{"txinwitness": ["3045022100fa27e075f72cce6bb554f5f7b4c555d79b59be5516a9d2da7ea1483956000a1902200e1f5c1b6d5b12e21b667a4c03795923400f898244869a596278b04277144fce01", "03154004e9b8abbbef0c2dfe9f526239c503270ed69e89d2a09245498f80fa48c4"], "sequence": 4294967295, "scriptSig": {"hex": "160014c0bc9d371d920fbbad35f4052c6976c22a7fd4b8", "asm": "0014c0bc9d371d920fbbad35f4052c6976c22a7fd4b8"}, "vout": 1, "txid": "d84f3cff9c0e303eda3b97c3fae34c8d6713bb168ec3e9ea31c539fd757e3e1d"}], "txid": "6de1eac743df6406eb2f1292539964082694b50559fb422b59d80a33d4ba68d6", "blocktime": 1537870928, "version": 2, "confirmations": 11512, "time": 1537870928, "locktime": 0, "vsize": 168, "size": 250}