{"hash": "6de282e73ed7466d7b065bbb13e26923dd7f45a594caa584723f569c596fede9", "blockhash": "0000000000000000001cda96e906b7601b7a6fb1a3b62bca570a9e5d8f4b3de1", "vout": [{"scriptPubKey": {"reqSigs": 1, "hex": "76a9145dabbc2730ad0fbc9c053966c1f1c58831dc76a188ac", "addresses": ["19YHaCL8MRw8buE3ey74JysV35t9JDALeU"], "asm": "OP_DUP OP_HASH160 5dabbc2730ad0fbc9c053966c1f1c58831dc76a1 OP_EQUALVERIFY OP_CHECKSIG", "type": "pubkeyhash"}, "value": 200.0, "n": 0}, {"scriptPubKey": {"reqSigs": 1, "hex": "76a9148a743b886935b66999a10e3710bea920077e9a6188ac", "addresses": ["1Dd5VTCkRtMG8bpuHZrjkLf1TeZ8cwZGDe"], "asm": "OP_DUP OP_HASH160 8a743b886935b66999a10e3710bea920077e9a61 OP_EQUALVERIFY OP_CHECKSIG", "type": "pubkeyhash"}, "value": 0.54566622, "n": 1}], "hex": "010000000927f3c9ec5f4ef3080416bb9d5f7d30896e3d7044ad9220e84ceba26a0d4e5081010000008a47304402202f9dcfa8f7f9f23fa251eb00e7cabf71f22a4acddee73f9d2dc48624c9b55cd802201b4faca54a9c4918d0714eee64e67f2bc084b9db6822119decf5e2eb9994138801410474927507c8af63e4e522cdd6d518a808e97cf3d4155592647da5b924437a30241bce49cce389b339b70d9d8394b94460e23b45c0199fb483a895b14c2546cb65ffffffff87750e2bb2cc1fc18f3b2f94e06a7147028a7813f9b420b6c7a87317f72ed0c8000000008a4730440220356681800d4c3d03f6fc479475a2718678538fc2b6e6ad581cf87b241809b3ef022046d207109b84f01862e350cae05a832da5cc67a12f9c5e35972fb5cc5081261e014104aa3e54aab369973e9e36945fadd1e677f2c3198973c2691cf8f2f694b963cae44b4feee6cee0a058e8d9145656793d6d224d292b33332f01bc0fb64a29cf1f82ffffffffa589824e10c351385203f1af1b54fd5e1d8d5d3daa6c7f18ab075f581b9a00230f0000008b4830450221008b1f11850cb377715e9d616041f62b9d88da0995576208e13b7cb1ad3c33d3720220089a20864f7609fc2d8a5ff4c8348be2f3598e4a2ce164fc9751ea369b03a4c40141040deeac3795632cc55991cf6b263dea44654633827b6e744ee2d9f2d66cb410d819c8d3811203f17384253761e21d767b131e36618b7f385ac6ebf6c8e08e82a9ffffffff2eab5752e12e8b45b8740674cc31587d01b5fbb9dbdfe4d9236b7a20c4e1117a050000006a473044022070cfef4c80f07dbd756fb77a894d87e6f99a512f3c4979467f50710ad4c1f29a022024f8d18507e67d5ffe4ecb1cc602aedd5480adca5029947ee1bc9f24872fb014012103ec6bded61856bc1f39ceb5b2524c908f583bf09d4f471553c91b9a216fdc7925ffffffff9a0657339c6dd24da7993bc7a1f337cd42ac8e819dd90d47a2307c56ef305b89010000006b483045022100fe7fafe7a7a463c2ee043cef1e58b0d90d93122fab6337b8cefedc63755432050220177ca7e315aa4eeebb735cbc9594045157a09177f3c76304a093346dc18e8b44012102fd8f6d16ef70f4834bf848aeb907b89acf0c40e54bf72c1c0a3ca243f1536859ffffffff9a0657339c6dd24da7993bc7a1f337cd42ac8e819dd90d47a2307c56ef305b89020000006b483045022100ebcf81539042dcfe4647682b6945c87149eff2bddf142d440b381555dc85536a02206ecdc83b23d72ff9691f206085af71fb117f48985cc60be6f57d75d5eb3a3faa012102ebde8e5af75aaa700b8de728dbe75ecf82f93aa3361d2531dfc48228fecd8bf2ffffffff7a898b7926756dc56562f14a5a0cc6724180a0e340ba7e8e58343f7d1924dcdf010000006b48304502210083ed680d7f07ebbaccfdf64f55fd7d8e7bed1816402a9f6518b29d9281726b780220222259993c19b69d332e18cd4dbcc8806f565b4c2c19e034deebadfd7fe36c4a0121027b233e4fcbc15d6e362ca8ffcb7b7900b09466be7162e94f706c7b0511347e16ffffffff93f9cb302efe4e81693bf64f92e4972bb0622f7ee6f15aba47c73f352187f159010000006b4830450221009a228999b708911984d683b44ad9d16017b22315df1faa354dbe293d63c6fa48022031b48877e3ed99e34a928249a248298bbb5e1cdac30f874f9b4f0ef61b939d08012103f87d1e945a8ef35f06fc756b90bf6587ebe1d05baf5e725d6327d99e154a7624ffffffff93f9cb302efe4e81693bf64f92e4972bb0622f7ee6f15aba47c73f352187f159020000006a473044022063bc2994c721f0c5de7655b61032994855247ef52b7e6c1d7648ba14619f40b70220335d8016de2f09fdcaff9f4aab52fee021afde2eca5de1ed3fe635b8b341cd54012103ec6bded61856bc1f39ceb5b2524c908f583bf09d4f471553c91b9a216fdc7925ffffffff0200c817a8040000001976a9145dabbc2730ad0fbc9c053966c1f1c58831dc76a188acde9e4003000000001976a9148a743b886935b66999a10e3710bea920077e9a6188ac00000000", "vin": [{"sequence": 4294967295, "scriptSig": {"hex": "47304402202f9dcfa8f7f9f23fa251eb00e7cabf71f22a4acddee73f9d2dc48624c9b55cd802201b4faca54a9c4918d0714eee64e67f2bc084b9db6822119decf5e2eb9994138801410474927507c8af63e4e522cdd6d518a808e97cf3d4155592647da5b924437a30241bce49cce389b339b70d9d8394b94460e23b45c0199fb483a895b14c2546cb65", "asm": "304402202f9dcfa8f7f9f23fa251eb00e7cabf71f22a4acddee73f9d2dc48624c9b55cd802201b4faca54a9c4918d0714eee64e67f2bc084b9db6822119decf5e2eb99941388[ALL] 0474927507c8af63e4e522cdd6d518a808e97cf3d4155592647da5b924437a30241bce49cce389b339b70d9d8394b94460e23b45c0199fb483a895b14c2546cb65"}, "vout": 1, "txid": "81504e0d6aa2eb4ce82092ad44703d6e89307d5f9dbb160408f34e5fecc9f327"}, {"sequence": 4294967295, "scriptSig": {"hex": "4730440220356681800d4c3d03f6fc479475a2718678538fc2b6e6ad581cf87b241809b3ef022046d207109b84f01862e350cae05a832da5cc67a12f9c5e35972fb5cc5081261e014104aa3e54aab369973e9e36945fadd1e677f2c3198973c2691cf8f2f694b963cae44b4feee6cee0a058e8d9145656793d6d224d292b33332f01bc0fb64a29cf1f82", "asm": "30440220356681800d4c3d03f6fc479475a2718678538fc2b6e6ad581cf87b241809b3ef022046d207109b84f01862e350cae05a832da5cc67a12f9c5e35972fb5cc5081261e[ALL] 04aa3e54aab369973e9e36945fadd1e677f2c3198973c2691cf8f2f694b963cae44b4feee6cee0a058e8d9145656793d6d224d292b33332f01bc0fb64a29cf1f82"}, "vout": 0, "txid": "c8d02ef71773a8c7b620b4f913788a0247716ae0942f3b8fc11fccb22b0e7587"}, {"sequence": 4294967295, "scriptSig": {"hex": "4830450221008b1f11850cb377715e9d616041f62b9d88da0995576208e13b7cb1ad3c33d3720220089a20864f7609fc2d8a5ff4c8348be2f3598e4a2ce164fc9751ea369b03a4c40141040deeac3795632cc55991cf6b263dea44654633827b6e744ee2d9f2d66cb410d819c8d3811203f17384253761e21d767b131e36618b7f385ac6ebf6c8e08e82a9", "asm": "30450221008b1f11850cb377715e9d616041f62b9d88da0995576208e13b7cb1ad3c33d3720220089a20864f7609fc2d8a5ff4c8348be2f3598e4a2ce164fc9751ea369b03a4c4[ALL] 040deeac3795632cc55991cf6b263dea44654633827b6e744ee2d9f2d66cb410d819c8d3811203f17384253761e21d767b131e36618b7f385ac6ebf6c8e08e82a9"}, "vout": 15, "txid": "23009a1b585f07ab187f6caa3d5d8d1d5efd541baff103523851c3104e8289a5"}, {"sequence": 4294967295, "scriptSig": {"hex": "473044022070cfef4c80f07dbd756fb77a894d87e6f99a512f3c4979467f50710ad4c1f29a022024f8d18507e67d5ffe4ecb1cc602aedd5480adca5029947ee1bc9f24872fb014012103ec6bded61856bc1f39ceb5b2524c908f583bf09d4f471553c91b9a216fdc7925", "asm": "3044022070cfef4c80f07dbd756fb77a894d87e6f99a512f3c4979467f50710ad4c1f29a022024f8d18507e67d5ffe4ecb1cc602aedd5480adca5029947ee1bc9f24872fb014[ALL] 03ec6bded61856bc1f39ceb5b2524c908f583bf09d4f471553c91b9a216fdc7925"}, "vout": 5, "txid": "7a11e1c4207a6b23d9e4dfdbb9fbb5017d5831cc740674b8458b2ee15257ab2e"}, {"sequence": 4294967295, "scriptSig": {"hex": "483045022100fe7fafe7a7a463c2ee043cef1e58b0d90d93122fab6337b8cefedc63755432050220177ca7e315aa4eeebb735cbc9594045157a09177f3c76304a093346dc18e8b44012102fd8f6d16ef70f4834bf848aeb907b89acf0c40e54bf72c1c0a3ca243f1536859", "asm": "3045022100fe7fafe7a7a463c2ee043cef1e58b0d90d93122fab6337b8cefedc63755432050220177ca7e315aa4eeebb735cbc9594045157a09177f3c76304a093346dc18e8b44[ALL] 02fd8f6d16ef70f4834bf848aeb907b89acf0c40e54bf72c1c0a3ca243f1536859"}, "vout": 1, "txid": "895b30ef567c30a2470dd99d818eac42cd37f3a1c73b99a74dd26d9c3357069a"}, {"sequence": 4294967295, "scriptSig": {"hex": "483045022100ebcf81539042dcfe4647682b6945c87149eff2bddf142d440b381555dc85536a02206ecdc83b23d72ff9691f206085af71fb117f48985cc60be6f57d75d5eb3a3faa012102ebde8e5af75aaa700b8de728dbe75ecf82f93aa3361d2531dfc48228fecd8bf2", "asm": "3045022100ebcf81539042dcfe4647682b6945c87149eff2bddf142d440b381555dc85536a02206ecdc83b23d72ff9691f206085af71fb117f48985cc60be6f57d75d5eb3a3faa[ALL] 02ebde8e5af75aaa700b8de728dbe75ecf82f93aa3361d2531dfc48228fecd8bf2"}, "vout": 2, "txid": "895b30ef567c30a2470dd99d818eac42cd37f3a1c73b99a74dd26d9c3357069a"}, {"sequence": 4294967295, "scriptSig": {"hex": "48304502210083ed680d7f07ebbaccfdf64f55fd7d8e7bed1816402a9f6518b29d9281726b780220222259993c19b69d332e18cd4dbcc8806f565b4c2c19e034deebadfd7fe36c4a0121027b233e4fcbc15d6e362ca8ffcb7b7900b09466be7162e94f706c7b0511347e16", "asm": "304502210083ed680d7f07ebbaccfdf64f55fd7d8e7bed1816402a9f6518b29d9281726b780220222259993c19b69d332e18cd4dbcc8806f565b4c2c19e034deebadfd7fe36c4a[ALL] 027b233e4fcbc15d6e362ca8ffcb7b7900b09466be7162e94f706c7b0511347e16"}, "vout": 1, "txid": "dfdc24197d3f34588e7eba40e3a0804172c60c5a4af16265c56d7526798b897a"}, {"sequence": 4294967295, "scriptSig": {"hex": "4830450221009a228999b708911984d683b44ad9d16017b22315df1faa354dbe293d63c6fa48022031b48877e3ed99e34a928249a248298bbb5e1cdac30f874f9b4f0ef61b939d08012103f87d1e945a8ef35f06fc756b90bf6587ebe1d05baf5e725d6327d99e154a7624", "asm": "30450221009a228999b708911984d683b44ad9d16017b22315df1faa354dbe293d63c6fa48022031b48877e3ed99e34a928249a248298bbb5e1cdac30f874f9b4f0ef61b939d08[ALL] 03f87d1e945a8ef35f06fc756b90bf6587ebe1d05baf5e725d6327d99e154a7624"}, "vout": 1, "txid": "59f18721353fc747ba5af1e67e2f62b02b97e4924ff63b69814efe2e30cbf993"}, {"sequence": 4294967295, "scriptSig": {"hex": "473044022063bc2994c721f0c5de7655b61032994855247ef52b7e6c1d7648ba14619f40b70220335d8016de2f09fdcaff9f4aab52fee021afde2eca5de1ed3fe635b8b341cd54012103ec6bded61856bc1f39ceb5b2524c908f583bf09d4f471553c91b9a216fdc7925", "asm": "3044022063bc2994c721f0c5de7655b61032994855247ef52b7e6c1d7648ba14619f40b70220335d8016de2f09fdcaff9f4aab52fee021afde2eca5de1ed3fe635b8b341cd54[ALL] 03ec6bded61856bc1f39ceb5b2524c908f583bf09d4f471553c91b9a216fdc7925"}, "vout": 2, "txid": "59f18721353fc747ba5af1e67e2f62b02b97e4924ff63b69814efe2e30cbf993"}], "txid": "6de282e73ed7466d7b065bbb13e26923dd7f45a594caa584723f569c596fede9", "blocktime": 1537873282, "version": 1, "confirmations": 11482, "time": 1537873282, "locktime": 0, "vsize": 1502, "size": 1502}