{"hash": "6de2b3108d6df3401be02e573496c3b3a46a9e34dc4fda8fb67e973d90a8ac8d", "blockhash": "000000000000000000022b45ed06c6f4ccd3cf7fb5ba4856ebd2e58215665228", "vout": [{"scriptPubKey": {"reqSigs": 1, "hex": "a9146d89538d0412a5a9b52759a3ef5c19400997044987", "addresses": ["3BgC64FDRQrsKrDL71rothNxWzP8qh7Vwp"], "asm": "OP_HASH160 6d89538d0412a5a9b52759a3ef5c194009970449 OP_EQUAL", "type": "scripthash"}, "value": 0.0058005, "n": 0}], "hex": "010000000134af5ccee0dccde840de1d4d42156e1bf31588055b0a206fc51df7ed82d8864d020000006b483045022100df80dbda2f5cda2e8bf95ceab6f503836ab7ac7a9f1088afee7117e2f1ff78c002200953121c103729b2fce4fba685610fee5e381cf173709348a7140d9bea89c0750121036fb34306d194ff492829e27f5d4a1deac7e65b5bb38f96ac3197922758146c89ffffffff01d2d908000000000017a9146d89538d0412a5a9b52759a3ef5c1940099704498700000000", "vin": [{"sequence": 4294967295, "scriptSig": {"hex": "483045022100df80dbda2f5cda2e8bf95ceab6f503836ab7ac7a9f1088afee7117e2f1ff78c002200953121c103729b2fce4fba685610fee5e381cf173709348a7140d9bea89c0750121036fb34306d194ff492829e27f5d4a1deac7e65b5bb38f96ac3197922758146c89", "asm": "3045022100df80dbda2f5cda2e8bf95ceab6f503836ab7ac7a9f1088afee7117e2f1ff78c002200953121c103729b2fce4fba685610fee5e381cf173709348a7140d9bea89c075[ALL] 036fb34306d194ff492829e27f5d4a1deac7e65b5bb38f96ac3197922758146c89"}, "vout": 2, "txid": "4d86d882edf71dc56f200a5b058815f31b6e15424d1dde40e8cddce0ce5caf34"}], "txid": "6de2b3108d6df3401be02e573496c3b3a46a9e34dc4fda8fb67e973d90a8ac8d", "blocktime": 1537869901, "version": 1, "confirmations": 11522, "time": 1537869901, "locktime": 0, "vsize": 190, "size": 190}