{"hash": "6de44d102de8703c998ddd444a6a0a478948017877a09303882041e4d4729c78", "blockhash": "0000000000000000000baef3f32e3676a92c3b2e5da21b426e4f302fc371ce76", "vout": [{"scriptPubKey": {"type": "nulldata", "hex": "6a4c5000007819000197fd862dc4bf3f27685f40b7019d6ddc0f1b8ff117702940d64fa54d8eb25f00d07763ba5ec78371f0f691f762325baa1c94061498864af1cf56bc9a9526289ac0f6612cd74e33776ee4", "asm": "OP_RETURN 00007819000197fd862dc4bf3f27685f40b7019d6ddc0f1b8ff117702940d64fa54d8eb25f00d07763ba5ec78371f0f691f762325baa1c94061498864af1cf56bc9a9526289ac0f6612cd74e33776ee4"}, "value": 0.0, "n": 0}, {"scriptPubKey": {"reqSigs": 1, "hex": "76a9149680a1333a6f5a4e6608dffed647ed271aff78e088ac", "addresses": ["1EinT85HNeNZ57kwUHbYh6sq5VtyAFpo22"], "asm": "OP_DUP OP_HASH160 9680a1333a6f5a4e6608dffed647ed271aff78e0 OP_EQUALVERIFY OP_CHECKSIG", "type": "pubkeyhash"}, "value": 0.0007786, "n": 1}], "hex": "0100000001e020ee565af48abd4f7d94cc8ca840e5a4423ea285e7ffc862b825748652591e010000006b483045022100935f333761fa160809b5993c87f068a7f6676f0e40255c793254cadef6b46e890220562c3f6604fe2b59085fcfe86c5ba478851d503133342bc512c8c877ac75e50a01210309f2d93c7f7b9102f4a9e915ae3fa4877ee606aaf81ed5158bf87acdf4d81ddcffffffff020000000000000000536a4c5000007819000197fd862dc4bf3f27685f40b7019d6ddc0f1b8ff117702940d64fa54d8eb25f00d07763ba5ec78371f0f691f762325baa1c94061498864af1cf56bc9a9526289ac0f6612cd74e33776ee424300100000000001976a9149680a1333a6f5a4e6608dffed647ed271aff78e088ac00000000", "vin": [{"sequence": 4294967295, "scriptSig": {"hex": "483045022100935f333761fa160809b5993c87f068a7f6676f0e40255c793254cadef6b46e890220562c3f6604fe2b59085fcfe86c5ba478851d503133342bc512c8c877ac75e50a01210309f2d93c7f7b9102f4a9e915ae3fa4877ee606aaf81ed5158bf87acdf4d81ddc", "asm": "3045022100935f333761fa160809b5993c87f068a7f6676f0e40255c793254cadef6b46e890220562c3f6604fe2b59085fcfe86c5ba478851d503133342bc512c8c877ac75e50a[ALL] 0309f2d93c7f7b9102f4a9e915ae3fa4877ee606aaf81ed5158bf87acdf4d81ddc"}, "vout": 1, "txid": "1e5952867425b862c8ffe785a23e42a4e540a88ccc947d4fbd8af45a56ee20e0"}], "txid": "6de44d102de8703c998ddd444a6a0a478948017877a09303882041e4d4729c78", "blocktime": 1537876114, "version": 1, "confirmations": 11461, "time": 1537876114, "locktime": 0, "vsize": 284, "size": 284}