{"hash": "2da836ac220e8876ee66c452b10afd6959237defb82343cf8fa3455a0c8b4d91", "blockhash": "0000000000000000001f0ddff1eddb255c1121bcd4da4f1bc9a0da00cae72433", "vout": [{"scriptPubKey": {"reqSigs": 1, "hex": "a914e2d8314b73c0a8982989ee01ad9b172b44f6d8a287", "addresses": ["3NNTdDhDmgPWwMpm1tDaYXCPeDTwUWFpbZ"], "asm": "OP_HASH160 e2d8314b73c0a8982989ee01ad9b172b44f6d8a2 OP_EQUAL", "type": "scripthash"}, "value": 0.01, "n": 0}, {"scriptPubKey": {"reqSigs": 1, "hex": "a9140150607692a82e7aa5e0db77108309f9359cbea787", "addresses": ["31oxtQycqEZEehe3iTyKM5dDUeVF1icCXT"], "asm": "OP_HASH160 0150607692a82e7aa5e0db77108309f9359cbea7 OP_EQUAL", "type": "scripthash"}, "value": 5.65498655, "n": 1}], "hex": "02000000000101fb38d3cddf547991cb8e0382346ff543964637ee32148318931e8b6a551b74a501000000171600147aed4e18f5add7b88e595640263b0d6e03794e65feffffff0240420f000000000017a914e2d8314b73c0a8982989ee01ad9b172b44f6d8a2871fd3b4210000000017a9140150607692a82e7aa5e0db77108309f9359cbea78702473044022018f13f6e8f3c70f65e6a7c8aff2e6cd363c4c0c058db94b6d3c7852f537c0732022069c17cf6cc91e1e77ad0264afea9eac9d6d797ac72348971d39cec6140cea2a501210267619ab0ba42bfb8409cdf5e79789b394a5c7737e141d213e139f613d7a161ec0f490800", "vin": [{"txinwitness": ["3044022018f13f6e8f3c70f65e6a7c8aff2e6cd363c4c0c058db94b6d3c7852f537c0732022069c17cf6cc91e1e77ad0264afea9eac9d6d797ac72348971d39cec6140cea2a501", "0267619ab0ba42bfb8409cdf5e79789b394a5c7737e141d213e139f613d7a161ec"], "sequence": 4294967294, "scriptSig": {"hex": "1600147aed4e18f5add7b88e595640263b0d6e03794e65", "asm": "00147aed4e18f5add7b88e595640263b0d6e03794e65"}, "vout": 1, "txid": "a5741b556a8b1e9318831432ee37469643f56f3482038ecb917954dfcdd338fb"}], "txid": "6de958276ece4cf0f8dd8e76234b00c71146f6f9e8befb3d56116be51d609b29", "blocktime": 1537872018, "version": 2, "confirmations": 11489, "time": 1537872018, "locktime": 542991, "vsize": 166, "size": 247}