{"hash": "6debd8bd89811784dd09144eabdf23374d035397a7c32800b15a4fab17e26441", "blockhash": "0000000000000000000e13cef7c366c0283d82e591d1acd082e914b08063cdf1", "vout": [{"scriptPubKey": {"reqSigs": 1, "hex": "a914fa8a34b1d7613aea75baf2ad5e635b024a36cb8e87", "addresses": ["3QXkRDDKMSKxGJRj57bKBHv8NGGLYgyF2U"], "asm": "OP_HASH160 fa8a34b1d7613aea75baf2ad5e635b024a36cb8e OP_EQUAL", "type": "scripthash"}, "value": 0.00552, "n": 0}, {"scriptPubKey": {"reqSigs": 1, "hex": "76a914cb939165c084984785bd318ee41b09fb11c67cd188ac", "addresses": ["1KZQx9JR2GsHagJYrbRPnKT4CLB9ncug7Y"], "asm": "OP_DUP OP_HASH160 cb939165c084984785bd318ee41b09fb11c67cd1 OP_EQUALVERIFY OP_CHECKSIG", "type": "pubkeyhash"}, "value": 0.380988, "n": 1}], "hex": "0100000001465483dc3e79764954903751dad2497bbc31c7335df0a95ea69986dc3910d6cb000000006a473044022000c03c051ce3aef5ec90d070f6b93fe8b54dec05f927b7bab2ed47279a4725d602205384861e679077bf3557fa944d6cb7e4daf38b76843023600cab34fe6fb25d900121032f26c0aba22cc18f96933b1546b24de12c1f22502782d414f4753807198f1e80feffffff02406c08000000000017a914fa8a34b1d7613aea75baf2ad5e635b024a36cb8e8770574502000000001976a914cb939165c084984785bd318ee41b09fb11c67cd188ac10490800", "vin": [{"sequence": 4294967294, "scriptSig": {"hex": "473044022000c03c051ce3aef5ec90d070f6b93fe8b54dec05f927b7bab2ed47279a4725d602205384861e679077bf3557fa944d6cb7e4daf38b76843023600cab34fe6fb25d900121032f26c0aba22cc18f96933b1546b24de12c1f22502782d414f4753807198f1e80", "asm": "3044022000c03c051ce3aef5ec90d070f6b93fe8b54dec05f927b7bab2ed47279a4725d602205384861e679077bf3557fa944d6cb7e4daf38b76843023600cab34fe6fb25d90[ALL] 032f26c0aba22cc18f96933b1546b24de12c1f22502782d414f4753807198f1e80"}, "vout": 0, "txid": "cbd61039dc8699a65ea9f05d33c731bc7b49d2da513790544976793edc835446"}], "txid": "6debd8bd89811784dd09144eabdf23374d035397a7c32800b15a4fab17e26441", "blocktime": 1537871767, "version": 1, "confirmations": 11493, "time": 1537871767, "locktime": 542992, "vsize": 223, "size": 223}