{"hash": "7a712045a5ac62d9ee9c56169d0e645b7ea393e0230732dce89cdbde700bda77", "blockhash": "00000000000000000017f5eb5941039fbcee6240d03bc1f2f8e35350df66a1d8", "vout": [{"scriptPubKey": {"reqSigs": 1, "hex": "a91490e99e8d26d05ead3c05430c292a887bbff695f587", "addresses": ["3EuF6KjJawxTiUsea3Sc8hsLUGmVEf7Xg5"], "asm": "OP_HASH160 90e99e8d26d05ead3c05430c292a887bbff695f5 OP_EQUAL", "type": "scripthash"}, "value": 0.00128757, "n": 0}, {"scriptPubKey": {"type": "nulldata", "hex": "6a146f6d6e69000000000000001f0000000005f5e100", "asm": "OP_RETURN 6f6d6e69000000000000001f0000000005f5e100"}, "value": 0.0, "n": 1}, {"scriptPubKey": {"reqSigs": 1, "hex": "a91490e99e8d26d05ead3c05430c292a887bbff695f587", "addresses": ["3EuF6KjJawxTiUsea3Sc8hsLUGmVEf7Xg5"], "asm": "OP_HASH160 90e99e8d26d05ead3c05430c292a887bbff695f5 OP_EQUAL", "type": "scripthash"}, "value": 5.4e-06, "n": 2}], "hex": "010000000001021e1a0472fd20af6ab3b5a91e955757532e2988c1d3d599dc8e854058c6be93c40000000017160014f6e1792e7852ebd5ae795c2a25d579acdfadec2dffffffff1e1a0472fd20af6ab3b5a91e955757532e2988c1d3d599dc8e854058c6be93c40200000017160014f6e1792e7852ebd5ae795c2a25d579acdfadec2dffffffff03f5f601000000000017a91490e99e8d26d05ead3c05430c292a887bbff695f5870000000000000000166a146f6d6e69000000000000001f0000000005f5e1001c0200000000000017a91490e99e8d26d05ead3c05430c292a887bbff695f58702483045022100f321f8ff7a137f66766446ed0bfa6cd791cb0da22f36ad80335b6622bf53c808022028ccec6a74c47d14ba6aee1330f01960c2499578faaee250b706ee396658325f012103f1cf988013a33e053d1e9bd54c4798c1a6dc362a5b2798b5344049fca40e2db002483045022100b5d3915ca5872cef7028f2e2cafbb686a13008c2dfa7596c57ef80af25e357b3022043648885476fcf6d012c04491cdd4389e24b34542dffe5e4fd83f0e165e0b66c012103f1cf988013a33e053d1e9bd54c4798c1a6dc362a5b2798b5344049fca40e2db000000000", "vin": [{"txinwitness": ["3045022100f321f8ff7a137f66766446ed0bfa6cd791cb0da22f36ad80335b6622bf53c808022028ccec6a74c47d14ba6aee1330f01960c2499578faaee250b706ee396658325f01", "03f1cf988013a33e053d1e9bd54c4798c1a6dc362a5b2798b5344049fca40e2db0"], "sequence": 4294967295, "scriptSig": {"hex": "160014f6e1792e7852ebd5ae795c2a25d579acdfadec2d", "asm": "0014f6e1792e7852ebd5ae795c2a25d579acdfadec2d"}, "vout": 0, "txid": "c493bec65840858edc99d5d3c188292e535757951ea9b5b36aaf20fd72041a1e"}, {"txinwitness": ["3045022100b5d3915ca5872cef7028f2e2cafbb686a13008c2dfa7596c57ef80af25e357b3022043648885476fcf6d012c04491cdd4389e24b34542dffe5e4fd83f0e165e0b66c01", "03f1cf988013a33e053d1e9bd54c4798c1a6dc362a5b2798b5344049fca40e2db0"], "sequence": 4294967295, "scriptSig": {"hex": "160014f6e1792e7852ebd5ae795c2a25d579acdfadec2d", "asm": "0014f6e1792e7852ebd5ae795c2a25d579acdfadec2d"}, "vout": 2, "txid": "c493bec65840858edc99d5d3c188292e535757951ea9b5b36aaf20fd72041a1e"}], "txid": "6df08b12134f73ee4ea1024665dbda4be0a7e762c634fc8c496bd2bb1d61e55b", "blocktime": 1537874412, "version": 1, "confirmations": 11467, "time": 1537874412, "locktime": 0, "vsize": 288, "size": 451}