{"hash": "6dfb1269192aa18bd5af014b9a8b1431838d621b8f48f7a14acfee84e739da52", "blockhash": "0000000000000000000baef3f32e3676a92c3b2e5da21b426e4f302fc371ce76", "vout": [{"scriptPubKey": {"type": "nulldata", "hex": "6a4c500000783400010a53450cfc10e8d6c32ccfec27b7256b4774d339f6019d6ddc0f1b8ff11780309731b4121d73dcd1c4c53523ba425baa1f680614324c36cb570ebc9a9526289ac0f6612cd74e33776ee4", "asm": "OP_RETURN 0000783400010a53450cfc10e8d6c32ccfec27b7256b4774d339f6019d6ddc0f1b8ff11780309731b4121d73dcd1c4c53523ba425baa1f680614324c36cb570ebc9a9526289ac0f6612cd74e33776ee4"}, "value": 0.0, "n": 0}, {"scriptPubKey": {"reqSigs": 1, "hex": "76a914826f6447e6b73875f24546a0a3e7b2d6ba56c16488ac", "addresses": ["1CtgHa68ycdzuTSjifoNoWpgKLiAAr3eo1"], "asm": "OP_DUP OP_HASH160 826f6447e6b73875f24546a0a3e7b2d6ba56c164 OP_EQUALVERIFY OP_CHECKSIG", "type": "pubkeyhash"}, "value": 0.0010816, "n": 1}], "hex": "0100000001571fc88d0646932f7b53ed732fd8449aa831d26a869d2651ec59c286e4d74dcf000000006b483045022100a8618307148b046656c614b99020b5d170ffb30cda0103edeb89d6402852e551022004efc7bb9b71097045a4c7a62c5565423439714ea046fe917700c6968f931c42012103f8bf844f4db6faa1941436eaf90f45d7f5210c049c9f4c3eaef09380734eb7e0ffffffff020000000000000000536a4c500000783400010a53450cfc10e8d6c32ccfec27b7256b4774d339f6019d6ddc0f1b8ff11780309731b4121d73dcd1c4c53523ba425baa1f680614324c36cb570ebc9a9526289ac0f6612cd74e33776ee480a60100000000001976a914826f6447e6b73875f24546a0a3e7b2d6ba56c16488ac00000000", "vin": [{"sequence": 4294967295, "scriptSig": {"hex": "483045022100a8618307148b046656c614b99020b5d170ffb30cda0103edeb89d6402852e551022004efc7bb9b71097045a4c7a62c5565423439714ea046fe917700c6968f931c42012103f8bf844f4db6faa1941436eaf90f45d7f5210c049c9f4c3eaef09380734eb7e0", "asm": "3045022100a8618307148b046656c614b99020b5d170ffb30cda0103edeb89d6402852e551022004efc7bb9b71097045a4c7a62c5565423439714ea046fe917700c6968f931c42[ALL] 03f8bf844f4db6faa1941436eaf90f45d7f5210c049c9f4c3eaef09380734eb7e0"}, "vout": 0, "txid": "cf4dd7e486c259ec51269d866ad231a89a44d82f73ed537b2f9346068dc81f57"}], "txid": "6dfb1269192aa18bd5af014b9a8b1431838d621b8f48f7a14acfee84e739da52", "blocktime": 1537876114, "version": 1, "confirmations": 11462, "time": 1537876114, "locktime": 0, "vsize": 284, "size": 284}