{"hash": "6dfb5eeed4effff1e7abd3fd9b359ecd65d51fcfb8e8a96254b0618321fd3a0a", "blockhash": "0000000000000000001f76057863aec43deb6fa401d9628bb513d65a8098bfab", "vout": [{"scriptPubKey": {"reqSigs": 1, "hex": "76a914b462f98039fec2b850ccc1539944b6a658089eb988ac", "addresses": ["1HSoCQZEnDGbrBB7dBh6Y2DYe72jrCCu3m"], "asm": "OP_DUP OP_HASH160 b462f98039fec2b850ccc1539944b6a658089eb9 OP_EQUALVERIFY OP_CHECKSIG", "type": "pubkeyhash"}, "value": 0.00020678, "n": 0}, {"scriptPubKey": {"reqSigs": 1, "hex": "76a9148ba3e7912e4ff46042e706e7f722eeb75a46855888ac", "addresses": ["1DjMGxGMZ4Gv37dQKL8osr38MRSDzkh9hY"], "asm": "OP_DUP OP_HASH160 8ba3e7912e4ff46042e706e7f722eeb75a468558 OP_EQUALVERIFY OP_CHECKSIG", "type": "pubkeyhash"}, "value": 0.07678644, "n": 1}], "hex": "01000000018a08e9e13e54ec0e323a2e2cc21cda15c4d758763835d664e0328b47a13a67e9000000006b483045022100de9a2e1a5f91700054422651942bd7fc2aefcdb9aab92632782c83c43b85db060220752e0d799fc9c69042216e3767539730ffbf0978409ef3695f28165eb5cbd9f90121020a4ed26dfb4743d59d9ef9eceecfe9fee902481cda3f8d3b0127c0765894379bffffffff02c6500000000000001976a914b462f98039fec2b850ccc1539944b6a658089eb988acb42a7500000000001976a9148ba3e7912e4ff46042e706e7f722eeb75a46855888ac00000000", "vin": [{"sequence": 4294967295, "scriptSig": {"hex": "483045022100de9a2e1a5f91700054422651942bd7fc2aefcdb9aab92632782c83c43b85db060220752e0d799fc9c69042216e3767539730ffbf0978409ef3695f28165eb5cbd9f90121020a4ed26dfb4743d59d9ef9eceecfe9fee902481cda3f8d3b0127c0765894379b", "asm": "3045022100de9a2e1a5f91700054422651942bd7fc2aefcdb9aab92632782c83c43b85db060220752e0d799fc9c69042216e3767539730ffbf0978409ef3695f28165eb5cbd9f9[ALL] 020a4ed26dfb4743d59d9ef9eceecfe9fee902481cda3f8d3b0127c0765894379b"}, "vout": 0, "txid": "e9673aa1478b32e064d635387658d7c415da1cc22c2e3a320eec543ee1e9088a"}], "txid": "6dfb5eeed4effff1e7abd3fd9b359ecd65d51fcfb8e8a96254b0618321fd3a0a", "blocktime": 1537873891, "version": 1, "confirmations": 11478, "time": 1537873891, "locktime": 0, "vsize": 226, "size": 226}