{"hash": "6dfb1d6b5d0e452ed950ae9449ba6b58096cf3c8ffa3ef44fd9fa594226a48bf", "blockhash": "00000000000000000004ffacab907a6b429b9a5745fa0b75af4234bf69dd7176", "vout": [{"scriptPubKey": {"reqSigs": 1, "hex": "a9141525cb339e96c3dab23e114d334c4c6736d1148387", "addresses": ["33cqPXbsR4hr35FRU4fEBNBKRWBfMZcdX9"], "asm": "OP_HASH160 1525cb339e96c3dab23e114d334c4c6736d11483 OP_EQUAL", "type": "scripthash"}, "value": 0.000783, "n": 0}, {"scriptPubKey": {"reqSigs": 1, "hex": "76a914abe08a334ae5222759619affb5a36061bd4db83788ac", "addresses": ["1GfoY764ZK1m92r3WoZQFNAPGfGPU9RDf9"], "asm": "OP_DUP OP_HASH160 abe08a334ae5222759619affb5a36061bd4db837 OP_EQUALVERIFY OP_CHECKSIG", "type": "pubkeyhash"}, "value": 0.00730692, "n": 1}], "hex": "0100000001199d30716daf5cb47b8b3f3ec03477b2240cbb4e5d0522df6365cf9ea3382ffb010000006b483045022100b9e8bb4c1a6ba2a96b096f607c8a129fc07f250607f641553ad1b92f6099843602201e4488fed5737f86c17f09da68a20e43f4db11e3caacf7056a65a6855c90e17b0121030bd8151f023b23c0d15e7ac802770d34b1e012921186127b10d3388b7d66965effffffff02dc3101000000000017a9141525cb339e96c3dab23e114d334c4c6736d114838744260b00000000001976a914abe08a334ae5222759619affb5a36061bd4db83788ac00000000", "vin": [{"sequence": 4294967295, "scriptSig": {"hex": "483045022100b9e8bb4c1a6ba2a96b096f607c8a129fc07f250607f641553ad1b92f6099843602201e4488fed5737f86c17f09da68a20e43f4db11e3caacf7056a65a6855c90e17b0121030bd8151f023b23c0d15e7ac802770d34b1e012921186127b10d3388b7d66965e", "asm": "3045022100b9e8bb4c1a6ba2a96b096f607c8a129fc07f250607f641553ad1b92f6099843602201e4488fed5737f86c17f09da68a20e43f4db11e3caacf7056a65a6855c90e17b[ALL] 030bd8151f023b23c0d15e7ac802770d34b1e012921186127b10d3388b7d66965e"}, "vout": 1, "txid": "fb2f38a39ecf6563df22055d4ebb0c24b27734c03e3f8b7bb45caf6d71309d19"}], "txid": "6dfb1d6b5d0e452ed950ae9449ba6b58096cf3c8ffa3ef44fd9fa594226a48bf", "blocktime": 1537875543, "version": 1, "confirmations": 11464, "time": 1537875543, "locktime": 0, "vsize": 224, "size": 224}