{"hash": "6dff1f8d4ead4140baef8d90e6847eb8c5766387be05fd191dfaf6f0d37a58a8", "blockhash": "0000000000000000000dcc0f55137456b1a82d3642486a52398922ac4d620174", "vout": [{"scriptPubKey": {"reqSigs": 1, "hex": "76a91415b885f25661f5f453b6bdec8b552a19c67c646e88ac", "addresses": ["12yrEvmxTCcD7M6XQFRCyUMaYFASz7mKVp"], "asm": "OP_DUP OP_HASH160 15b885f25661f5f453b6bdec8b552a19c67c646e OP_EQUALVERIFY OP_CHECKSIG", "type": "pubkeyhash"}, "value": 0.00725787, "n": 0}, {"scriptPubKey": {"reqSigs": 1, "hex": "a914c6bd74112f829c4e60f1dc725896cf2e5fa9a40a87", "addresses": ["3KorfyhEGizYpKcLdgPafz6PoxV2MPHjJW"], "asm": "OP_HASH160 c6bd74112f829c4e60f1dc725896cf2e5fa9a40a OP_EQUAL", "type": "scripthash"}, "value": 0.0335056, "n": 1}], "hex": "010000000210c2591472d38390b84231e08c169e67a94951672f1d4abd37e2f13c6fd15a3a000000006b483045022100c899878e190138b0466d4518f15bed09fe665889700c33844d2b801cff0de89f022054fbc980cd7df05f57e4b2ec6ac267e443951ef1c326c2d871794a74dca4670d0121037000cec0bca237965f6ccff5c7651582fc6ebc8b802e9aeba3f4dc5da5336ff5ffffffff4e91293819b884a8dc383954f85d06b262018242c9590e46080e49f5cbea5353000000006a4730440220032468ceae67f2f917d2140b1312a0ccf3bee68b6b4442d8b4eb2a46dd2786ed0220121e45cd2083d920c80869f27e4eea3d1330c671084ef330beeaf2b699fb8a4a012102e5b12523c7b0f62ef2c638f90e1b746e9d505161c41aa617c58cb3384854dcf0ffffffff021b130b00000000001976a91415b885f25661f5f453b6bdec8b552a19c67c646e88ac202033000000000017a914c6bd74112f829c4e60f1dc725896cf2e5fa9a40a8700000000", "vin": [{"sequence": 4294967295, "scriptSig": {"hex": "483045022100c899878e190138b0466d4518f15bed09fe665889700c33844d2b801cff0de89f022054fbc980cd7df05f57e4b2ec6ac267e443951ef1c326c2d871794a74dca4670d0121037000cec0bca237965f6ccff5c7651582fc6ebc8b802e9aeba3f4dc5da5336ff5", "asm": "3045022100c899878e190138b0466d4518f15bed09fe665889700c33844d2b801cff0de89f022054fbc980cd7df05f57e4b2ec6ac267e443951ef1c326c2d871794a74dca4670d[ALL] 037000cec0bca237965f6ccff5c7651582fc6ebc8b802e9aeba3f4dc5da5336ff5"}, "vout": 0, "txid": "3a5ad16f3cf1e237bd4a1d2f675149a9679e168ce03142b89083d3721459c210"}, {"sequence": 4294967295, "scriptSig": {"hex": "4730440220032468ceae67f2f917d2140b1312a0ccf3bee68b6b4442d8b4eb2a46dd2786ed0220121e45cd2083d920c80869f27e4eea3d1330c671084ef330beeaf2b699fb8a4a012102e5b12523c7b0f62ef2c638f90e1b746e9d505161c41aa617c58cb3384854dcf0", "asm": "30440220032468ceae67f2f917d2140b1312a0ccf3bee68b6b4442d8b4eb2a46dd2786ed0220121e45cd2083d920c80869f27e4eea3d1330c671084ef330beeaf2b699fb8a4a[ALL] 02e5b12523c7b0f62ef2c638f90e1b746e9d505161c41aa617c58cb3384854dcf0"}, "vout": 0, "txid": "5353eacbf5490e08460e59c942820162b2065df8543938dca884b8193829914e"}], "txid": "6dff1f8d4ead4140baef8d90e6847eb8c5766387be05fd191dfaf6f0d37a58a8", "blocktime": 1537870268, "version": 1, "confirmations": 11518, "time": 1537870268, "locktime": 0, "vsize": 371, "size": 371}