{"hash": "6e012aa79070f2900809b0556dafb5f1b69f92ab1aeb126b9281007369374715", "blockhash": "0000000000000000001f76057863aec43deb6fa401d9628bb513d65a8098bfab", "vout": [{"scriptPubKey": {"reqSigs": 1, "hex": "a91460c29652ba16cd892ad9a081f45302f1a6eca3f387", "addresses": ["3AWdu7db7LPy2vpqrv2mDASYjmcsCsTQvs"], "asm": "OP_HASH160 60c29652ba16cd892ad9a081f45302f1a6eca3f3 OP_EQUAL", "type": "scripthash"}, "value": 0.02, "n": 0}, {"scriptPubKey": {"reqSigs": 1, "hex": "76a914f702a73dab7425edd52a2c71e932b0e05455ec1b88ac", "addresses": ["1PX55jfTcVXQnuCG3K4ToaKgmMEPAvqMEc"], "asm": "OP_DUP OP_HASH160 f702a73dab7425edd52a2c71e932b0e05455ec1b OP_EQUALVERIFY OP_CHECKSIG", "type": "pubkeyhash"}, "value": 0.16835353, "n": 1}], "hex": "01000000011252c434571dd689387e5245c93b07d475db7503119ac0b06ce2e6bcdb0b8a2a010000006a47304402205dafa95ba8c9fd671c5e8cc10f37085d05af1cd041fbae4f21e55bf99974bc48022042d85207a3ae5a2c856d8ceaf96525157557cf24fc39c2ad206bf986db95a1b5012103c78fdd8954a8f79e05627d976fc6a7dd63c1ffc8036e5b0b47a636516d9f4bc5ffffffff0280841e000000000017a91460c29652ba16cd892ad9a081f45302f1a6eca3f38719e30001000000001976a914f702a73dab7425edd52a2c71e932b0e05455ec1b88ac00000000", "vin": [{"sequence": 4294967295, "scriptSig": {"hex": "47304402205dafa95ba8c9fd671c5e8cc10f37085d05af1cd041fbae4f21e55bf99974bc48022042d85207a3ae5a2c856d8ceaf96525157557cf24fc39c2ad206bf986db95a1b5012103c78fdd8954a8f79e05627d976fc6a7dd63c1ffc8036e5b0b47a636516d9f4bc5", "asm": "304402205dafa95ba8c9fd671c5e8cc10f37085d05af1cd041fbae4f21e55bf99974bc48022042d85207a3ae5a2c856d8ceaf96525157557cf24fc39c2ad206bf986db95a1b5[ALL] 03c78fdd8954a8f79e05627d976fc6a7dd63c1ffc8036e5b0b47a636516d9f4bc5"}, "vout": 1, "txid": "2a8a0bdbbce6e26cb0c09a110375db75d4073bc945527e3889d61d5734c45212"}], "txid": "6e012aa79070f2900809b0556dafb5f1b69f92ab1aeb126b9281007369374715", "blocktime": 1537873891, "version": 1, "confirmations": 11476, "time": 1537873891, "locktime": 0, "vsize": 223, "size": 223}