{"hash": "a8c9d3d322ef28c974c56aca0c987a31749252832dd39e347ff5a5f9ae3c14ab", "blockhash": "0000000000000000001cda96e906b7601b7a6fb1a3b62bca570a9e5d8f4b3de1", "vout": [{"scriptPubKey": {"reqSigs": 1, "hex": "76a9140d0c4d32486aa6cc14bc725b6e4ca977f79b96b488ac", "addresses": ["12BzXDnKqFw4imxy2mXGn7dUTuguBqGnut"], "asm": "OP_DUP OP_HASH160 0d0c4d32486aa6cc14bc725b6e4ca977f79b96b4 OP_EQUALVERIFY OP_CHECKSIG", "type": "pubkeyhash"}, "value": 0.02056008, "n": 0}, {"scriptPubKey": {"reqSigs": 1, "hex": "a914a50dc83e1fb27db75fe932c1e8e0e70261d0c0ef87", "addresses": ["3GjjvoLMYR4wmyjNWj1QTMy1fQFkgJNemb"], "asm": "OP_HASH160 a50dc83e1fb27db75fe932c1e8e0e70261d0c0ef OP_EQUAL", "type": "scripthash"}, "value": 0.31700463, "n": 1}], "hex": "010000000001013aaa55346f4cb1a1d7c5565dd1314fdbc5cfd536e2d0880220aa0493477abc690000000023220020a418ac5bb6a9b4b70b15a1ec19ef9b7a162f9418a840fcde3462b444a07815feffffffff02485f1f00000000001976a9140d0c4d32486aa6cc14bc725b6e4ca977f79b96b488acefb5e3010000000017a914a50dc83e1fb27db75fe932c1e8e0e70261d0c0ef870400483045022100bb4615441d467ab0dd68f978afdf2a341a1b198b64189a4b04edc77feba78f5b022011e7f39890aad5be6e0b725c4029fea8f7bdaaaed1500d5642b6b89c418d3e2f0147304402204ac2a5f791d281b6e704519f75e59880db5897e153c52c4fb04cb509922c59ea02201fd73861956c1f106602b45d581bcb5f6787a6fa06a330f16d3cccbd05df1adb0169522103535968be824ac63945678eb1637286fcdc40dcc177341bfbaafbba4d7700af5a2102d98f0e9430864574ebfac993a61558e334ec3e843020e5ed18d6ffbf76b062bf2102e2025bc8a3ecb7e8ac69e73d35b6b90476a124ec518328b84ba6ed5aa53aef8853ae00000000", "vin": [{"txinwitness": ["", "3045022100bb4615441d467ab0dd68f978afdf2a341a1b198b64189a4b04edc77feba78f5b022011e7f39890aad5be6e0b725c4029fea8f7bdaaaed1500d5642b6b89c418d3e2f01", "304402204ac2a5f791d281b6e704519f75e59880db5897e153c52c4fb04cb509922c59ea02201fd73861956c1f106602b45d581bcb5f6787a6fa06a330f16d3cccbd05df1adb01", "522103535968be824ac63945678eb1637286fcdc40dcc177341bfbaafbba4d7700af5a2102d98f0e9430864574ebfac993a61558e334ec3e843020e5ed18d6ffbf76b062bf2102e2025bc8a3ecb7e8ac69e73d35b6b90476a124ec518328b84ba6ed5aa53aef8853ae"], "sequence": 4294967295, "scriptSig": {"hex": "220020a418ac5bb6a9b4b70b15a1ec19ef9b7a162f9418a840fcde3462b444a07815fe", "asm": "0020a418ac5bb6a9b4b70b15a1ec19ef9b7a162f9418a840fcde3462b444a07815fe"}, "vout": 0, "txid": "69bc7a479304aa200288d0e236d5cfc5db4f31d15d56c5d7a1b14c6f3455aa3a"}], "txid": "6e03fee7b5f3471df2dae92b233c373c839b50c3c0585120a11a12e094d84d53", "blocktime": 1537873282, "version": 1, "confirmations": 11485, "time": 1537873282, "locktime": 0, "vsize": 216, "size": 407}