{"hash": "eef2a8498469faa2fcfc559a46d1c4be32c44a9584bc07bd0c76976a3d6c7232", "blockhash": "0000000000000000001f76057863aec43deb6fa401d9628bb513d65a8098bfab", "vout": [{"scriptPubKey": {"reqSigs": 1, "hex": "a91461edba6b45c637d7d50eb604cd5e42ec3a8a322687", "addresses": ["3AcpFo8ZoBpVQH3H8S36BvtpdxiAXrjqzd"], "asm": "OP_HASH160 61edba6b45c637d7d50eb604cd5e42ec3a8a3226 OP_EQUAL", "type": "scripthash"}, "value": 0.04607345, "n": 0}, {"scriptPubKey": {"reqSigs": 1, "hex": "a91478e02907cd31aa009856f86c8680edd1a3ebf81e87", "addresses": ["3Ci9YVWcaC2oM15Fv1UJT16g5cfBccjX34"], "asm": "OP_HASH160 78e02907cd31aa009856f86c8680edd1a3ebf81e OP_EQUAL", "type": "scripthash"}, "value": 0.00392488, "n": 1}], "hex": "020000000001011f66e0c0205099627c026c7c511ad5a950728381333cdc7ea6fea983aa78aae30100000017160014bbde87407864b5b8aa0c21f5d0d07be8ced94f95feffffff02714d46000000000017a91461edba6b45c637d7d50eb604cd5e42ec3a8a32268728fd05000000000017a91478e02907cd31aa009856f86c8680edd1a3ebf81e8702483045022100b9890a499b2508a822a095316402ea764d0e785c1cfdeda5b5874a65179127e702202b967ed9ab7a1f94077ef57dc865a6b55630d106b42776ec9afd16abcd831c110121026bb8d511af487c12076cf980be96836dfa595130fc975cd9cf42aecfe30a3d6014490800", "vin": [{"txinwitness": ["3045022100b9890a499b2508a822a095316402ea764d0e785c1cfdeda5b5874a65179127e702202b967ed9ab7a1f94077ef57dc865a6b55630d106b42776ec9afd16abcd831c1101", "026bb8d511af487c12076cf980be96836dfa595130fc975cd9cf42aecfe30a3d60"], "sequence": 4294967294, "scriptSig": {"hex": "160014bbde87407864b5b8aa0c21f5d0d07be8ced94f95", "asm": "0014bbde87407864b5b8aa0c21f5d0d07be8ced94f95"}, "vout": 1, "txid": "e3aa78aa83a9fea67edc3c3381837250a9d51a517c6c027c62995020c0e0661f"}], "txid": "6e04efcc4a320a6486eaa81c9edc7dba5b1fda15febdef91eb6754fef195846e", "blocktime": 1537873891, "version": 2, "confirmations": 11479, "time": 1537873891, "locktime": 542996, "vsize": 166, "size": 248}