{"hash": "25a428aa61e3794fc92e5b3e24080364f5eb0d02483d0a09dec6818876ac3918", "blockhash": "00000000000000000017f5eb5941039fbcee6240d03bc1f2f8e35350df66a1d8", "vout": [{"scriptPubKey": {"reqSigs": 1, "hex": "0014f73d7f6df81a38a20ea1277b896d5e613daf8a72", "addresses": ["bc1q7u7h7m0crgu2yr4pyaacjm27vy76lznjzrdyzv"], "asm": "0 f73d7f6df81a38a20ea1277b896d5e613daf8a72", "type": "witness_v0_keyhash"}, "value": 9.65e-06, "n": 0}, {"scriptPubKey": {"reqSigs": 1, "hex": "a91477184f30266d552a768f9b0b6214c8ca0f27f85687", "addresses": ["3CYjTQvgZMxMksZCuxC1rmCMzHftWs8Qwu"], "asm": "OP_HASH160 77184f30266d552a768f9b0b6214c8ca0f27f856 OP_EQUAL", "type": "scripthash"}, "value": 0.00039445, "n": 1}], "hex": "01000000000101fcf49d076d5ab01f129b8e9e0558e29f90fd7a0bbd6f7b0de64ebbc8b6949f8d0100000000ffffffff02c503000000000000160014f73d7f6df81a38a20ea1277b896d5e613daf8a72159a00000000000017a91477184f30266d552a768f9b0b6214c8ca0f27f85687024730440220535f65adb690a6e7005d4e2479e4791a6ce38ec954e2d5401fbb11a8550b0fa802200fd212aeb3371aebf97181ecec1b27fca1a1c2a33220d9929af86d16b569a5a30121027c8f96a33c7a3a3f5e5fb8bcba41c453602f0954ac9425bae80ba59fe12bbad900000000", "vin": [{"txinwitness": ["30440220535f65adb690a6e7005d4e2479e4791a6ce38ec954e2d5401fbb11a8550b0fa802200fd212aeb3371aebf97181ecec1b27fca1a1c2a33220d9929af86d16b569a5a301", "027c8f96a33c7a3a3f5e5fb8bcba41c453602f0954ac9425bae80ba59fe12bbad9"], "sequence": 4294967295, "scriptSig": {"hex": "", "asm": ""}, "vout": 1, "txid": "8d9f94b6c8bb4ee60d7b6fbd0b7afd909fe258059e8e9b121fb05a6d079df4fc"}], "txid": "6e0aa944815a79c51c3d6b8b7e445cc41127ef665af1a16e05f88bf2fad305a4", "blocktime": 1537874412, "version": 1, "confirmations": 11467, "time": 1537874412, "locktime": 0, "vsize": 142, "size": 223}