{"hash": "6e0cc716907a550d563c84171b15a4348ec6951b609c58e08244529eefce5616", "blockhash": "00000000000000000018f53835495a110e01622372bf6ae95dc86f2b0ab887b0", "vout": [{"scriptPubKey": {"reqSigs": 1, "hex": "a91469f37706a41435b62f81c85deebf236eeae92fc987", "addresses": ["3BMEXviKmUPkv6FVa2Z8GqQ1f9dMpq9Aco"], "asm": "OP_HASH160 69f37706a41435b62f81c85deebf236eeae92fc9 OP_EQUAL", "type": "scripthash"}, "value": 0.02398451, "n": 0}, {"scriptPubKey": {"reqSigs": 1, "hex": "76a9146f71c7ad7aca896276a6e830402a3bb99e2dd21688ac", "addresses": ["1BAGJsCf69DU4GQKFrWsU5g7Jb82Kc1W9N"], "asm": "OP_DUP OP_HASH160 6f71c7ad7aca896276a6e830402a3bb99e2dd216 OP_EQUALVERIFY OP_CHECKSIG", "type": "pubkeyhash"}, "value": 0.01001862, "n": 1}], "hex": "020000000581bd2c431cdf4f3025ec7ae1a99716a11f6a34f8ab738d8209a37252b43f40a0000000006a47304402204ec33d000896e84bcbe3f54f83f4368e395930bd898d6fcca6939e07da0173ed02203e4b1458646951c8b6a63fcb44c9d881973e84a6c9def6bab01bf86a87b6cfea012103284dc4e5a417ba43d1f1a7d3178aea2031cef4c09d9a6170d16f70170f3eba78feffffff9ebbfbb6b462a13de8ac5e8568f5d966aa6363bc7755ff19a85da0e9393c5d77010000006b483045022100c794586b3e4adbb1931767e75a4a136dfc09578f9f1977870d940b5ce4d6fb63022054a42de85267ead40a5fd32318d03c5a66479fca215d061c7ad998b6d0f8ad5b012102123a87f923f150590825a65c638d815eddf6a1e3ccb4c0cf59d9210918e13743feffffffcbec0dc4fb8becadfcbece0e9d28ae789ea48cc122247dca275592fe87ef7c18000000006a473044022016e5e857dc69772abf4a75921a89479260abb36bf9d51d066696d17a137cd1d80220309c524514d3c55f25c3b6c1ea14a106ab599b50cc598723220280cc93ac73150121033861293ffd5bb3a1dcd238a413d8444f9194d4a3c5dc3c9f89146e27b292baf2feffffffd765d1bc98f9be49eb11dd0da16ecc2d915ef05ec1df06a3d424fd3ad2ff378d000000006b483045022100caea1d71afc990ca0dcb9c4fdaf8259b13158698bc2d8193bed1a993c51c258b02204bf4793a82a9d89f19a373a935f632f3922beb21a243ab4048b75a101b749e73012103bde51224e5c89f8a28bdbd9275991b9c1e105cc214490969177cf6ce4406c8c6feffffffed24bf93b3a1fa87bd0a915faf7bd6d898c4cd9634f8c96ab41bf327cc33f0f6660000006a473044022003a054feb32c629fc6983176770f3fc4348f4d57a7813721d143d8a0a44d58840220044eac92dad92d03952ac76737eb461ab35601e59e4889e81e57bae246a92dbe0121025ec31aef53687bb02b5bde80065a9679da1606d5bfc4ea6f5a2925bb2f4193dafeffffff02f39824000000000017a91469f37706a41435b62f81c85deebf236eeae92fc98786490f00000000001976a9146f71c7ad7aca896276a6e830402a3bb99e2dd21688ac0e490800", "vin": [{"sequence": 4294967294, "scriptSig": {"hex": "47304402204ec33d000896e84bcbe3f54f83f4368e395930bd898d6fcca6939e07da0173ed02203e4b1458646951c8b6a63fcb44c9d881973e84a6c9def6bab01bf86a87b6cfea012103284dc4e5a417ba43d1f1a7d3178aea2031cef4c09d9a6170d16f70170f3eba78", "asm": "304402204ec33d000896e84bcbe3f54f83f4368e395930bd898d6fcca6939e07da0173ed02203e4b1458646951c8b6a63fcb44c9d881973e84a6c9def6bab01bf86a87b6cfea[ALL] 03284dc4e5a417ba43d1f1a7d3178aea2031cef4c09d9a6170d16f70170f3eba78"}, "vout": 0, "txid": "a0403fb45272a309828d73abf8346a1fa11697a9e17aec25304fdf1c432cbd81"}, {"sequence": 4294967294, "scriptSig": {"hex": "483045022100c794586b3e4adbb1931767e75a4a136dfc09578f9f1977870d940b5ce4d6fb63022054a42de85267ead40a5fd32318d03c5a66479fca215d061c7ad998b6d0f8ad5b012102123a87f923f150590825a65c638d815eddf6a1e3ccb4c0cf59d9210918e13743", "asm": "3045022100c794586b3e4adbb1931767e75a4a136dfc09578f9f1977870d940b5ce4d6fb63022054a42de85267ead40a5fd32318d03c5a66479fca215d061c7ad998b6d0f8ad5b[ALL] 02123a87f923f150590825a65c638d815eddf6a1e3ccb4c0cf59d9210918e13743"}, "vout": 1, "txid": "775d3c39e9a05da819ff5577bc6363aa66d9f568855eace83da162b4b6fbbb9e"}, {"sequence": 4294967294, "scriptSig": {"hex": "473044022016e5e857dc69772abf4a75921a89479260abb36bf9d51d066696d17a137cd1d80220309c524514d3c55f25c3b6c1ea14a106ab599b50cc598723220280cc93ac73150121033861293ffd5bb3a1dcd238a413d8444f9194d4a3c5dc3c9f89146e27b292baf2", "asm": "3044022016e5e857dc69772abf4a75921a89479260abb36bf9d51d066696d17a137cd1d80220309c524514d3c55f25c3b6c1ea14a106ab599b50cc598723220280cc93ac7315[ALL] 033861293ffd5bb3a1dcd238a413d8444f9194d4a3c5dc3c9f89146e27b292baf2"}, "vout": 0, "txid": "187cef87fe925527ca7d2422c18ca49e78ae289d0ecebefcadec8bfbc40deccb"}, {"sequence": 4294967294, "scriptSig": {"hex": "483045022100caea1d71afc990ca0dcb9c4fdaf8259b13158698bc2d8193bed1a993c51c258b02204bf4793a82a9d89f19a373a935f632f3922beb21a243ab4048b75a101b749e73012103bde51224e5c89f8a28bdbd9275991b9c1e105cc214490969177cf6ce4406c8c6", "asm": "3045022100caea1d71afc990ca0dcb9c4fdaf8259b13158698bc2d8193bed1a993c51c258b02204bf4793a82a9d89f19a373a935f632f3922beb21a243ab4048b75a101b749e73[ALL] 03bde51224e5c89f8a28bdbd9275991b9c1e105cc214490969177cf6ce4406c8c6"}, "vout": 0, "txid": "8d37ffd23afd24d4a306dfc15ef05e912dcc6ea10ddd11eb49bef998bcd165d7"}, {"sequence": 4294967294, "scriptSig": {"hex": "473044022003a054feb32c629fc6983176770f3fc4348f4d57a7813721d143d8a0a44d58840220044eac92dad92d03952ac76737eb461ab35601e59e4889e81e57bae246a92dbe0121025ec31aef53687bb02b5bde80065a9679da1606d5bfc4ea6f5a2925bb2f4193da", "asm": "3044022003a054feb32c629fc6983176770f3fc4348f4d57a7813721d143d8a0a44d58840220044eac92dad92d03952ac76737eb461ab35601e59e4889e81e57bae246a92dbe[ALL] 025ec31aef53687bb02b5bde80065a9679da1606d5bfc4ea6f5a2925bb2f4193da"}, "vout": 102, "txid": "f6f033cc27f31bb46ac9f83496cdc498d8d67baf5f910abd87faa1b393bf24ed"}], "txid": "6e0cc716907a550d563c84171b15a4348ec6951b609c58e08244529eefce5616", "blocktime": 1537870928, "version": 2, "confirmations": 11514, "time": 1537870928, "locktime": 542990, "vsize": 813, "size": 813}