{"hash": "6e0cf957f96164bbe7b26eee2430cec6901bf749a13d274996671c3b36109b4d", "blockhash": "0000000000000000001e0dab787dd257d1dbfcb92a98c2207d5e1078be1f4165", "vout": [{"scriptPubKey": {"reqSigs": 1, "hex": "76a9148f14d2613843c311a4c961b3f13efcb6c26fc19388ac", "addresses": ["1E3YaA266kvVfcWGvzLL6G88jsNPAN5qfE"], "asm": "OP_DUP OP_HASH160 8f14d2613843c311a4c961b3f13efcb6c26fc193 OP_EQUALVERIFY OP_CHECKSIG", "type": "pubkeyhash"}, "value": 0.00059535, "n": 0}, {"scriptPubKey": {"reqSigs": 1, "hex": "a914fb0b6ea142b36cde71810120ba12fab5cd9b381d87", "addresses": ["3QaRE1hCiLdRMjhWXXd9i7oQkG1m9Yh5Dp"], "asm": "OP_HASH160 fb0b6ea142b36cde71810120ba12fab5cd9b381d OP_EQUAL", "type": "scripthash"}, "value": 0.033597, "n": 1}], "hex": "01000000048b2e7c225937439be1772fdb3a85a69a93de24f0130c70ac5f621fe37efbbd10000000006b483045022100a1bc4fee2f04632920fb353f8e1bb7816b7e0e68d5cfa4df464fbacf5e9afee6022078e38eb19acbd377c685a18f76ea79e58b4c9b5149a6663529d113b00f60525701210301888df0226bf0d62a13c09501776212d41cb2a26cdeb92857f362f2ad3feb7bffffffffbc89c4f4839bd632426937470b0a6f0c1ba9f351b4ecb935de35fcc99306de48000000006b483045022100fc152b1f77eb9497e2f3ca4f9d46f0a7f2ee6f2dfe6e49a1fb89fb51c1b858470220493bdb4f97dedd538c5de89104266793a6c1f9f9d58870d6a1699f93dac1e7100121033e49a59bbd8a62c447275494be1e2af344da880e71049471afa07595d05333e7ffffffff6efa5708c4773d5000ac95435a16178287a78778380a011aa3eb7261e3b4d780000000006b483045022100cd0563efbd1948db169dbae113c02ca2b0847d07bae85bdae475303596fcb3310220400c5ba7b3537110c5c3ef8e4058e6febc97a0afe8203263b4894bdb7dc1c933012103ec4e16a3b9a11b2f0c65bc93dba0be636535173966c5da84e8eb30a1411340ebffffffff9fc36c4019b3d3459cafff920c68baac7b0a44272a8b03fe07f0007fad054cad000000006b483045022100f800037a538308442c28248f72dc00d71c3c55cdf0375ccfeac588d7cebac3cd022009dba963b1947885cd922738da2cd96864832dbd19a680a0cc7081026e4b79870121031f38761447cc3e945881fafde3b6ec5f39ada594160653e2a04d3ad191d88c8effffffff028fe80000000000001976a9148f14d2613843c311a4c961b3f13efcb6c26fc19388acd44333000000000017a914fb0b6ea142b36cde71810120ba12fab5cd9b381d8700000000", "vin": [{"sequence": 4294967295, "scriptSig": {"hex": "483045022100a1bc4fee2f04632920fb353f8e1bb7816b7e0e68d5cfa4df464fbacf5e9afee6022078e38eb19acbd377c685a18f76ea79e58b4c9b5149a6663529d113b00f60525701210301888df0226bf0d62a13c09501776212d41cb2a26cdeb92857f362f2ad3feb7b", "asm": "3045022100a1bc4fee2f04632920fb353f8e1bb7816b7e0e68d5cfa4df464fbacf5e9afee6022078e38eb19acbd377c685a18f76ea79e58b4c9b5149a6663529d113b00f605257[ALL] 0301888df0226bf0d62a13c09501776212d41cb2a26cdeb92857f362f2ad3feb7b"}, "vout": 0, "txid": "10bdfb7ee31f625fac700c13f024de939aa6853adb2f77e19b433759227c2e8b"}, {"sequence": 4294967295, "scriptSig": {"hex": "483045022100fc152b1f77eb9497e2f3ca4f9d46f0a7f2ee6f2dfe6e49a1fb89fb51c1b858470220493bdb4f97dedd538c5de89104266793a6c1f9f9d58870d6a1699f93dac1e7100121033e49a59bbd8a62c447275494be1e2af344da880e71049471afa07595d05333e7", "asm": "3045022100fc152b1f77eb9497e2f3ca4f9d46f0a7f2ee6f2dfe6e49a1fb89fb51c1b858470220493bdb4f97dedd538c5de89104266793a6c1f9f9d58870d6a1699f93dac1e710[ALL] 033e49a59bbd8a62c447275494be1e2af344da880e71049471afa07595d05333e7"}, "vout": 0, "txid": "48de0693c9fc35de35b9ecb451f3a91b0c6f0a0b4737694232d69b83f4c489bc"}, {"sequence": 4294967295, "scriptSig": {"hex": "483045022100cd0563efbd1948db169dbae113c02ca2b0847d07bae85bdae475303596fcb3310220400c5ba7b3537110c5c3ef8e4058e6febc97a0afe8203263b4894bdb7dc1c933012103ec4e16a3b9a11b2f0c65bc93dba0be636535173966c5da84e8eb30a1411340eb", "asm": "3045022100cd0563efbd1948db169dbae113c02ca2b0847d07bae85bdae475303596fcb3310220400c5ba7b3537110c5c3ef8e4058e6febc97a0afe8203263b4894bdb7dc1c933[ALL] 03ec4e16a3b9a11b2f0c65bc93dba0be636535173966c5da84e8eb30a1411340eb"}, "vout": 0, "txid": "80d7b4e36172eba31a010a387887a7878217165a4395ac00503d77c40857fa6e"}, {"sequence": 4294967295, "scriptSig": {"hex": "483045022100f800037a538308442c28248f72dc00d71c3c55cdf0375ccfeac588d7cebac3cd022009dba963b1947885cd922738da2cd96864832dbd19a680a0cc7081026e4b79870121031f38761447cc3e945881fafde3b6ec5f39ada594160653e2a04d3ad191d88c8e", "asm": "3045022100f800037a538308442c28248f72dc00d71c3c55cdf0375ccfeac588d7cebac3cd022009dba963b1947885cd922738da2cd96864832dbd19a680a0cc7081026e4b7987[ALL] 031f38761447cc3e945881fafde3b6ec5f39ada594160653e2a04d3ad191d88c8e"}, "vout": 0, "txid": "ad4c05ad7f00f007fe038b2a27440a7bacba680c92ffaf9c45d3b319406cc39f"}], "txid": "6e0cf957f96164bbe7b26eee2430cec6901bf749a13d274996671c3b36109b4d", "blocktime": 1537872475, "version": 1, "confirmations": 11487, "time": 1537872475, "locktime": 0, "vsize": 668, "size": 668}