{"hash": "6e0d7661811ab4e9a3fc59f736eee68c15d23d452173e144b9a526e994e11c5b", "blockhash": "0000000000000000000e13cef7c366c0283d82e591d1acd082e914b08063cdf1", "vout": [{"scriptPubKey": {"reqSigs": 1, "hex": "a914b5a39945a6236b0630f2abc3f3b3ab37c708e03187", "addresses": ["3JFSDJYfmzz6HjUnck9hSD1ekAYd7w3rWf"], "asm": "OP_HASH160 b5a39945a6236b0630f2abc3f3b3ab37c708e031 OP_EQUAL", "type": "scripthash"}, "value": 0.0052316, "n": 0}, {"scriptPubKey": {"reqSigs": 1, "hex": "76a91405a1d6bb97325c31c5acb0ddac43e95a1676404388ac", "addresses": ["1WnFiXyMvCsjY8hJ6i1tNAgx6ALYzU8gT"], "asm": "OP_DUP OP_HASH160 05a1d6bb97325c31c5acb0ddac43e95a16764043 OP_EQUALVERIFY OP_CHECKSIG", "type": "pubkeyhash"}, "value": 0.10188801, "n": 1}], "hex": "01000000013c71d59b3e86c8eb7e3dceb0691618afadcfcc280284e3fee2c5deaa8566c58a010000006b48304502210092eeff821894fa17ad32951c2adc333991d213d63a791117593aa9e6dc4e69ef02206c4ab837d50da762f41c076a9a22456d5fc0db25cbda97093e0853d33742a6040121034754cb9ab5fc89f40c5a7cc237d8c109308d33b2ed40c49c88de7c08634c2c24ffffffff0298fb07000000000017a914b5a39945a6236b0630f2abc3f3b3ab37c708e0318701789b00000000001976a91405a1d6bb97325c31c5acb0ddac43e95a1676404388ac00000000", "vin": [{"sequence": 4294967295, "scriptSig": {"hex": "48304502210092eeff821894fa17ad32951c2adc333991d213d63a791117593aa9e6dc4e69ef02206c4ab837d50da762f41c076a9a22456d5fc0db25cbda97093e0853d33742a6040121034754cb9ab5fc89f40c5a7cc237d8c109308d33b2ed40c49c88de7c08634c2c24", "asm": "304502210092eeff821894fa17ad32951c2adc333991d213d63a791117593aa9e6dc4e69ef02206c4ab837d50da762f41c076a9a22456d5fc0db25cbda97093e0853d33742a604[ALL] 034754cb9ab5fc89f40c5a7cc237d8c109308d33b2ed40c49c88de7c08634c2c24"}, "vout": 1, "txid": "8ac56685aadec5e2fee3840228cccfadaf181669b0ce3d7eebc8863e9bd5713c"}], "txid": "6e0d7661811ab4e9a3fc59f736eee68c15d23d452173e144b9a526e994e11c5b", "blocktime": 1537871767, "version": 1, "confirmations": 11493, "time": 1537871767, "locktime": 0, "vsize": 224, "size": 224}