{"hash": "442b68efe66ca3b5112d01bb06bce2dbd1d3d345556c6e5721b4f713f77c608a", "blockhash": "0000000000000000001e0dab787dd257d1dbfcb92a98c2207d5e1078be1f4165", "vout": [{"scriptPubKey": {"reqSigs": 1, "hex": "a914d410634224fd6acf8c147c615e97b352aa37dd9787", "addresses": ["3M2JorKP71SAUApWhsvpM7QDXnPRdqjSBW"], "asm": "OP_HASH160 d410634224fd6acf8c147c615e97b352aa37dd97 OP_EQUAL", "type": "scripthash"}, "value": 0.0052784, "n": 0}, {"scriptPubKey": {"reqSigs": 1, "hex": "76a9145140b41499b8baea2c0ba6e06ef7201b6d8b45e088ac", "addresses": ["18QdFDJKGMqFcwYbxJyMgtGtgA2uzeQtbj"], "asm": "OP_DUP OP_HASH160 5140b41499b8baea2c0ba6e06ef7201b6d8b45e0 OP_EQUALVERIFY OP_CHECKSIG", "type": "pubkeyhash"}, "value": 0.03, "n": 1}, {"scriptPubKey": {"reqSigs": 1, "hex": "76a9144a09c9fe0b46e77d448db177333f15ca3ea3d80e88ac", "addresses": ["17kUjMGG4xfSPS2MNm8cjzhu5WfwP67EJD"], "asm": "OP_DUP OP_HASH160 4a09c9fe0b46e77d448db177333f15ca3ea3d80e OP_EQUALVERIFY OP_CHECKSIG", "type": "pubkeyhash"}, "value": 0.00709414, "n": 2}, {"scriptPubKey": {"reqSigs": 1, "hex": "a91434b1fbd8ea964e8d6dfeeca86472f140a886d92e87", "addresses": ["36VeH3mzgZ4s7d1ubZ4CoWMX6wkfjaRD46"], "asm": "OP_HASH160 34b1fbd8ea964e8d6dfeeca86472f140a886d92e OP_EQUAL", "type": "scripthash"}, "value": 0.036, "n": 3}, {"scriptPubKey": {"reqSigs": 1, "hex": "a9142b12991fcba5a8c7f47b1a8e611659874bed1e2987", "addresses": ["35cmG1mHZjTdFBXYebqDFh6Qn28S1D88xH"], "asm": "OP_HASH160 2b12991fcba5a8c7f47b1a8e611659874bed1e29 OP_EQUAL", "type": "scripthash"}, "value": 0.395, "n": 4}, {"scriptPubKey": {"reqSigs": 1, "hex": "a914ea645e5e20987adfaa9d5fa4a915d008965f102387", "addresses": ["3P4NHAbib3uvj6QNYmPWqEJMZnx4HzszTp"], "asm": "OP_HASH160 ea645e5e20987adfaa9d5fa4a915d008965f1023 OP_EQUAL", "type": "scripthash"}, "value": 0.01095515, "n": 5}], "hex": "0200000000012865d712a76815f022f1dc516a7d9c2b531797902432987260c9f3259cb48f0f840d000000171600148d49f2767cd5e56a4752196bff0e654a2dc2176cfffffffffb143f4c53dbb6c13b2bbf8d86e8d0928685ab218331602b3538249a367858390a00000017160014a6565a15826c57c57d7bb5119b1f888f7bb2e127ffffffff98f0bad9d121236bb07bf61408c6661e59c747b5bdc92a7ca83a44cd32fb07040100000017160014438ea348f861ed77175702fea9227dd9ad880c87ffffffff2a5cbb2a38a0a056ed4f68817e525c2b99237ee34c27156790aa1515fa695aa81500000017160014955bdd2684e7a9af2c9a33164f16f3357beb1e64ffffffffde8bffb451e86709867ebbd5077e8c89f078f1c0eeb3f18afb88bb80de122c5700000000171600140cdf371230ef243e1583bec7c14140cf7ed32df2ffffffff193aaab734fab521cb4568c459811ef84d8400d7e5585169217f679aa2a052af1600000017160014681e7c621c5cc1d5c5636e4d92c2a3eaa25553fbffffffff5e8de6414fd19cdbd5947a2de15446af0ec63cfd15e9c265c05808f61723a20a08000000171600142e52269ef9d2b2b1ec6ca3d6219dc2c52b10554dffffffff9aeac5e89c1dfe0a4fd0ad091f9d5e17fecbd90f69b33532ed39e5b49ef6168b00000000171600149baf91f39f1452fab38b9768b5a02fafcb0c574dffffffffd0d721752b9600148def7756731ba529d3d5be46a0494b05abd0b014031bab3f0100000017160014d562d3484cf2512ef5cc8709fbae2bb67845b96bffffffff62427f0ba53ec60b32f2fdfb2d8fcff9ea05486d9e0a8d9399ed51ad6faa8e71070000001716001426b373ca4ba3b7fd5c39df2c99c85679261d2091fffffffff4a01f5390dfa96666325f00d1ce5aa6b689c20e157050ae9b3abde4dd3c394804000000171600145918c8208e2bdeda4fcb85706e065e7d06353badffffffff70b4cfc09d251129d9e5c3a6aa9a108adb149369a4c43a3e1030634a0db8a3b12000000017160014cffc953963713159ca3a720cd223371af85f4924ffffffff65d712a76815f022f1dc516a7d9c2b531797902432987260c9f3259cb48f0f842400000017160014b2ec529c2391ec1ae16d291b6524b1800c495b40ffffffff70b4cfc09d251129d9e5c3a6aa9a108adb149369a4c43a3e1030634a0db8a3b10e00000017160014adc0516ce67af579727a98f6a8956ba7a897bbd3ffffffff70b4cfc09d251129d9e5c3a6aa9a108adb149369a4c43a3e1030634a0db8a3b11400000017160014999fea13345bf42bd1a6734dfbc249f9b0b37752ffffffff62427f0ba53ec60b32f2fdfb2d8fcff9ea05486d9e0a8d9399ed51ad6faa8e711e000000171600141fd0ad04fb6c783120e729d4c4de8075335dd3a5ffffffff8f7872766cb08fbb2637c3998c1198a50cf409acabd15cf085467f90d743f4e20000000017160014354ff5f19030e6ff9c9ab9cf70c9ea56d9fdbf2affffffff7cc8db84896a9735e22b03a1f327094fd4f5f3e1ab8253bb59c098e56aeb46c300000000171600148fc5a68a31d5b02c52d55a060478e685f01e1a24ffffffff1ad5c0ec68991524705fc7d33e2b645cd16819d87434a51fb616d66a3f96d19f0000000017160014240d2a36528d2e9aada3860813f4a7b4a89de768ffffffff193aaab734fab521cb4568c459811ef84d8400d7e5585169217f679aa2a052af1b000000171600141623c54fe65dd2c102f33d9e382ec03e9aea522dffffffffb0136f9ac88557f8a532d59682af6f0cb34d106d4d49a5a7632e0a05189632330000000017160014fd2f23412ecfef31ea91b3ff6eb5de84d523aebfffffffffbf55787e151993d1fdfc8073a7d89647b3b344cdd9dda2d910e1529cf5e234f80000000017160014e88f347dc27febf5949b756452f3429f2e4e4809ffffffffe6a30a1402b18ea1e8f11e0a0cb3076a18919250d489439c02d5ee5e8947656900000000171600142a3796909567ea431b4bfdcb89135850f0df64fefffffffffb143f4c53dbb6c13b2bbf8d86e8d0928685ab218331602b3538249a367858391a0000001716001499459a32374a15416f96306f1319ad0d7e15aef6ffffffff58768af8d3eb15ee063c58ae546da42e741da0f6d25ae9a65f26bc96e348e0c304000000171600141ca1cf2d4577d84b316b8a16b025532f86b882daffffffff65d712a76815f022f1dc516a7d9c2b531797902432987260c9f3259cb48f0f8415000000171600143f1c859f3d523ef80912f1768770213b9e69755cffffffff795d394f09ea541e9dbc76b74b9781e33a99c89f25c83a64ec1f85326a2ee1c50000000017160014653bd16efe5403ce61fa6a4a92db2bc9ddcfaf2cffffffff412b8bb002a50be8dd9f94fabfb8a7f2295dfa86b6fb86ae0c31e650447c184c0b0000001716001453a22bb706ba5bb58909888c90e164484d33d489ffffffff65d712a76815f022f1dc516a7d9c2b531797902432987260c9f3259cb48f0f840300000017160014f768ceedaad520a3faad86baf318cef1e17dd00bffffffff954e4134cd73541cf9d2e931d24dbf66f1b777fdb7f74f26db152ea9f4b977c30b000000171600142cb2116244eca9bf1371d056edb10b8cb8bf7fb6ffffffff2a3e2e15fe75724ae724232d90ac4c579fbba157861290a7acea01d99041a4fe12000000171600140e4eb9b66c4b3b17aa12a9ddc05a81f6b760f27fffffffff65d712a76815f022f1dc516a7d9c2b531797902432987260c9f3259cb48f0f8405000000171600141e2b679842d9e197fda1547d17f7d06099a0122fffffffffae579e4128bf4ee257c4ad7f6d37c3c8ec6561ce4f68b34a9f84e19332145b3e00000000171600140d70ceb2655a99236d917a645fd4ddec4ecf85c2fffffffff4a01f5390dfa96666325f00d1ce5aa6b689c20e157050ae9b3abde4dd3c39480700000017160014400547ba0676b85683e6e76451238eca0d6ac338ffffffff62427f0ba53ec60b32f2fdfb2d8fcff9ea05486d9e0a8d9399ed51ad6faa8e710500000017160014f6c852547c6d69d48ce8eb96b46aeeda7d3ba555ffffffff2a5cbb2a38a0a056ed4f68817e525c2b99237ee34c27156790aa1515fa695aa80a0000001716001416ca290d3372583ac4b2660b5e8f97923b5343adffffffff412b8bb002a50be8dd9f94fabfb8a7f2295dfa86b6fb86ae0c31e650447c184c110000001716001423d7e1c23f4995a439ad2874c1bbdc59d3248e7cffffffff41bd8302c6d84989925a8fd54e3ccbe5ff68f72d86ef9e5b32822af5d6a57e5a00000000171600147c77c4c75d1ebf90324e77a8f024ea9d4fe55ecbffffffff87fe0aa817e0ab862d01eec401ca10161dae134a152c94a180dd7bcf561733b500000000171600149bcda801340314893684e5fccdd796e389711e05ffffffff2a5cbb2a38a0a056ed4f68817e525c2b99237ee34c27156790aa1515fa695aa80d000000171600147a34e1170e015de2cb055e9f37cd5c587f84204dffffffff06e00d08000000000017a914d410634224fd6acf8c147c615e97b352aa37dd9787c0c62d00000000001976a9145140b41499b8baea2c0ba6e06ef7201b6d8b45e088ac26d30a00000000001976a9144a09c9fe0b46e77d448db177333f15ca3ea3d80e88ac80ee36000000000017a91434b1fbd8ea964e8d6dfeeca86472f140a886d92e87e0b85a020000000017a9142b12991fcba5a8c7f47b1a8e611659874bed1e29875bb710000000000017a914ea645e5e20987adfaa9d5fa4a915d008965f10238702483045022100d15862ddbc32f4fb4a0317e2ccb8361177ff543e70b1356b72031ac323cd43c3022073cf5b39e81e66a9dd766ccf09ced0884f92aae99488a7930945beb0e8a5e1e101210267ea233287791154760b5e0ea06e399b288a77cf4477eb65f3d2f629209f09fc024730440220079048b670a9aed542d5e81978892160b428599a6a38fa18b9ccbf136308a8de022014c0b9d24386305c82e993ed06681911d499b1ffb50ee57471f67b13b758ccc4012103a2af0827fa12ab7729208ff1229142571c2760787d6794247a24948d5a312c5702483045022100ab7336a5f7c2018821a57e2b83a24dd43e80b4913acc0934353d5960d6f03a0102203f67f7404ec4512aee3338d54b3065012788060bbb28caec3dbda97393fe87ae012103afa69ceb734a1e90e8d1fac25d3a281c29f596f16297cf90ab2c28eae763998c0248304502210081586c1e6b645fe307ce1fcd6112ad99544266090eb3df8ce54072f3956ea98d02200aceca378cdc514bcda81c0bd52685ab7389378658a921ad456b8fa01c3fdbbe012103bb5031ace2c14284fc55672e06abd06f372c36773bcbd5736f02c94adbb687c30247304402207669f9b3cd50b1c87ef96343b6acdc67365995ebf8f722952a9cf5faf87119c20220585e88bb4ae671b9100d52de3c11f4a741ab4f75d3e5f07c7bab098c16c19efa012102e342adfc0aa60d5161f3075221ec739d1233601e145a4cabc06144f4e77a79da0247304402206d0ebbb0e41cddc873e3ccef8880864becc3b80f1640ce17f80651bd660a661a02202f62334536f24ffab30a44dd4c9d9084cd965491f758a14983833d812370c59901210351f08f2c666eac17b5431bf892a7caf36d9e521b308b13a0cc0c3e9244b1fce80247304402205cf60830007663a6863fa016cb74d57b262386b6ca2ac2dcb63df5ec32c2f06e022039ed9b41a840e11b0a981071483b42de935dd62481c975c58bc9f994f72a82e1012103acafecc25339df634bf76122fbb23064807d48e8f259938879f03aeef0b23c330247304402203ee002463ddfe2148b56ea59b6654fde4000977d9378a90d4f84d666579f052f02203394a3b10d40f31d357ae6034cc7d139ecc00011e081f8b463ec26944fefc0bc012103d5a50d5ccf123c654eee7306761ba32d2fb5d4144d6e254925c02d2c13ae66d302473044022064f1f401a875bce41517344bd99e1eeb15cd07fffc4585689c2e6ba24b080ccc02200fd6852053bc78ca5783707836de6a4db415938651d2b0cdb66ac2f60ee83fd8012103152eb3a83a2862ca98058bf7e089fc84ccc392560167f6ad41ff8d119eae64c2024730440220187e6ee8c934028212f154cff416295632dc053bcf912780890e7c839ab355340220064ade48b9d74f0d0c948d8ee38c30f6da7a66bc1c7ec26d30549b275b070607012103d94ee2edafae6cef0f2a5aab00ae1ec31b70d6ec5cf1e0e2f8f8e5351b84623c02483045022100f73228ee029dd39e5b059ce000de32c7f52282384e9814f07be475ba0b014f86022012d6acdded44c112c5b7346a5d6c5e6758fbaf663d1bb0e76ddeb574c34dbb860121038280670d434d6ad417927f0db2463060f57b3f9de2dd88eadd502a1a725998c602473044022049df0b96e4d46a51313e5370d741d5a41600b795464903fbb0fcb0f967e224500220144ce4567e7636a0e327f1c8b4fa4c79255afcae59b5c9809dc7397e022b9287012103ff747ade4bca671e57ac534fdad4723b9e2e19b8ac19320f912ec057e6376371024830450221009824af69b09c6f2a238ab15a6c699eb26a0558fa252705e82d0212e5dcdda9c902201ea3fcb315312dee60058630a6f1b2905a138e48d37055756b50081cb2eb07760121028495ca5a8ddb6da458b0719303c8df5eab909558333c2def56aeda4d021a216f024730440220116c669efac35e74f94bce9d0b09d9024ca957760d5095260a0453c335ffe79b02206ee053dd05678c1f8e4f7904682ebaaa1988e8ed2c73e8dd505d78550ca8dec00121028d3c959d678de4ed83ee88b1375aeb9e8a08c45584ef16ad8b25adba421f0e0f0247304402204957437b2e36e1f6a406f82b54bfc69a92ea48988d7c84820205de8f136005ec022018670803aa963ae13e93739a2bbcd33b6f2568c97c509006fc16321ad5973731012102ee0fd04f6803a0c0d7b8ab50ba3da67405a9d0c2c9969519a40f2185ccbec79302483045022100a9408f3fc68a376392894092d02f91083cc83c5dae21a1a828b20623ec7f01cd02203c42cfe30740f72d15f17b41618b2566b2aa076a5e0bfb6abd76f2d1fb51c16801210370dd67c1a9098eaf37b682ff5a94ce88c4adc1740dfe3499f9f44cb2b4bbe8fc0247304402201f7a9ad041e6dc90bc29483b9e05961b6a8e244b3ff52bfc9eaf954fc61c00df022003c0df81a32f72dab6a73b5f045bcef77dc795d5dd1ef2620c0b311263a397f6012103721e593469ac2a9d9df252701b5df216bd80be42ac1d343e53e906eeb58d305b02483045022100c47c87711c52a84cd448df35700fd2b13c2a619c663ba5d67d2bc20981a83cae02203ce5016cd032ed7cb85973f8b3e21747f403680ea6f1b1fd0927a0bf794d6f5f012103edc08b6fd9fe389c3d766a8c5c6d8781f3cb3d86d129690e618d02fcfdceda8602483045022100d65e21411951ff34941c78f5656f6247a6e130dca55d4d25d5181cf66181c0b502205c782a5d46f35e82fe5edf2159d7a4a54cf245decebcfbc753fce0567af1e9b90121024bf1557c02c432e0db699d1719349b10c46abe075a19a4e06efcf56db21537fd024730440220100faa887a34d23e71843dd13279c4f52969dad9d9b36d76752a2e96bef91aa002200baef19ecf2a22ec0dfbb342807e149ef2125c2441cf7559e67de283dcc65e670121032b459361625bc7c8f443232e15f53a8956d54238782e63be242fc6d4345abc6a02483045022100877c6f7892e5ba95fa2b79b04f61b445eea41e7f9f4f523510e1bca243b2d60b0220595d22efe8da11c90185163446c4c13d7b7b408d3adefddd6ee78bc0c8547b9c012102bc146140c92b030e47f273d9a95ec37304be6f9827279da891ceedaa1b7a825002473044022053c162a170270533acbe33e909f2ad158a10591adec472768846489597038977022042f168d8f0cf9773665b9c46707795b7b72391e870842f6f7e1e72093e68fc200121034caffe6c60202afaacb1eb4c26372a49f22d7b8bcfe3aff41abec7672974435502483045022100fc09fd8709aac3bf35a4dfdc1e7cbc8c21f1e6eeed9e5a9855601949f95dc413022055a8db52be061ad63e70a1926afe8db95bfff61f3b0424a745efd5ef8d09cfca01210390873a7801f33b7c4e2ca450b0d760773799c63b07f2188364a47b8f94cd9ec902483045022100c3b825309cd237a210fb8371d5a002e84fe162985ceabcef752be469d5f6877202202e636c58b30bb459556a8cfa8ab831802386888779173c10035909257aa0cbb4012102b14f1dd8fd478d3e6fc7d97c804c35bcd458e46f691a84e5c1d7e232ad531f3302473044022009a2a5c35028fb1ae574703d15aa8ea8147491277a2621bee555de49c147c0df02201b914c4f5beb0f0d0df1dad666c95cb8fa7d91b991fd5c2a05ee4982db09e3820121033442a2b4cb9c1758934f4dd9d0b6ff44247a9971769ff7492bf7d27b138da8eb0247304402207679de361ecbde9aab68330cd9851d2aa5195010ca9ea9a6d00b40943e04077e02205c952e8ead1ed00b639da4cf2cff186217234c2f5da381ea8f925aab4ddf20e9012103e8825b9abf292b0e700acb4797ac1316d5e17de5f8bf819ee9e57bcc54c0141502473044022032b606fa3531cca386a40d980159ae98f26c981a28b59ca7bb565912baa2de69022008162829d2d1e73f3decf98e49c174c7e1ddf0a5a0d3f6e9719ce9e2f560f08b01210377c5cb9986b592c76e89735a0d2f2745e61bc2b48636cc685c66799a52805a0602473044022032dd1fe6a86b743ebd74207af6be7bed19cdbdd31b6945ceef628dc22ec0ae7c0220504f7965c94d60a446cd4e269aecfb708562281902ebec3fe4faa622b3cb4254012103964ca797be6c8ee5e2d6a2b69a36fa5e736ebc9c0bce68ab8efd0db3cf21eb3302483045022100cab5653e47d37a50716994daf5573a18e4246139a3e837478b76e98d9c0844e60220024fdbb344ec3fe37e86eb13f8dd6f9b515377a7cf6ade815b4265e2b15bc7bd01210372246b41696b80f204b6d539327a9bd6d76ac64845fbf68e292869f2a51fc29c02473044022045ace888363c824e3c971e99060258068e88f9de827267e0a76d8263bf32c3a302200ba1e46fd27fc4b268dffbf62f542d6acf5dd8dca8e4e1e6915512cd276a2c2301210259a64ed6b473ca2d7de99b74058fb4dcfd0a3d6b1a4ec2b2b84165281700568d0248304502210082bade86d186a900fc97ee91bea090fde5e137139ec7be51ab9b55222b1a8e13022005779b4237458609b1fc732adbab5f9d297b76443e249d7801f76dd5cd6e66da012102396dec18b86754d640c11eb2ab902b7eaaa0bb1004f758529c28ab5f6885f53a02483045022100bee4c6af2fdfeccb595096e293bf6a138191ffe80de7084ca8d5fe479afb95f0022070ff24c8c69ccd6a7e1751512f8584454c211fa4d4e43dfcef6647e803822282012102ef50d11303f4c2a23ab01c4fa878789c6e952a263dac2050b5d988b622b1425e0247304402204576fcc19c2b51456608c263dd9fddda8f052b6f879f0e90263f0ad37938d1bc02203250259cbcdc28357f3f76165767215621de7ac8cf66449323e8f895ed21be3601210274e84a6b2028890cf5dd0d9059b7f8d509f13ec56d0a71c50c48660932619e7802483045022100b35c52cc335a8b1c743aa2562f45978e8090a3b5457c1ce7bb7e3266b84b347502200d69c28a1ee1127a652027f83452112abcaefe8b9ed86191f4e9de33c942ff8301210291dc2f9b2823091f5d59dcec499e186d4d29f702b18817cc8cf450989966091302483045022100db11d260d33cbaf8f4a1a7f3e6a0e41a61a7084cefd9e35d2f62446dba8f040102200ffa75ba19afad7e52da799b6e127e11a4f055ad9517597d018821d6d5fa63ae01210237bd8ba1914876fd6d3f59e5baf2c0e48690714769ec6ca68bd81488d3706af902483045022100d2784c5d7f336c7e1e1423875f1aac38e5043575eff73189720205df971aff4102200565fcb22b3037facea558d8f9c31f07c582afdffdba939e0ac16d9aeafd4b640121021c4f21e25e62ade4672e5c72ec15b328ae7424f431860d38f8be61d931b3bf88024730440220417ed6d0fe94ce7c37e1d13bb63a6e0d951369c12d479f7d7d55feb0f76f113302206b71f71918e2df04596e0e70ea7141839305841fe8fa98f5370c9c7b5e788f7c012103c1233bef6ca2531c25ea97bff30d1dc61efab6ade099d95c876bed6ceb395c85024730440220720564905939d564304f701935eb2b9d69bca43f70371a70165c39ea9c4905b802207b6c3b30d044fb1ee3a0f89ebffa53ef41c71ab1c29f8eda3ae07a331c1abbc7012103d18e8205bc7117a25e674b1ac07ab12caf1d2f8a78b153c976d8fc868c2a971d0248304502210083fee71567e815ccfa58e7b911827c63b708c1a6a2ff5e4864d3a28bb559b6c602202d9cf430845d7d2ad496208e652853e8a705ca87d0a0905f4dc2e2a16afd3b05012103582d6659484547485dddbc5b17851724c005a1e5d04c917d5c2c66188414f353024830450221008d12874ae2a81d881612701376f0be3033ce3a0535b47cf7d2b98bb53a79248b02203b164878210edcd21b8a919dad6dc7a79eb0406b7ff672ae9b4e5e36b0a4423c012102feef3c4b7a9ac449345fa12ad8ed07524cbadbf189a9e417827368abd45d3f4600000000", "vin": [{"txinwitness": ["3045022100d15862ddbc32f4fb4a0317e2ccb8361177ff543e70b1356b72031ac323cd43c3022073cf5b39e81e66a9dd766ccf09ced0884f92aae99488a7930945beb0e8a5e1e101", "0267ea233287791154760b5e0ea06e399b288a77cf4477eb65f3d2f629209f09fc"], "sequence": 4294967295, "scriptSig": {"hex": "1600148d49f2767cd5e56a4752196bff0e654a2dc2176c", "asm": "00148d49f2767cd5e56a4752196bff0e654a2dc2176c"}, "vout": 13, "txid": "840f8fb49c25f3c96072983224909717532b9c7d6a51dcf122f01568a712d765"}, {"txinwitness": ["30440220079048b670a9aed542d5e81978892160b428599a6a38fa18b9ccbf136308a8de022014c0b9d24386305c82e993ed06681911d499b1ffb50ee57471f67b13b758ccc401", "03a2af0827fa12ab7729208ff1229142571c2760787d6794247a24948d5a312c57"], "sequence": 4294967295, "scriptSig": {"hex": "160014a6565a15826c57c57d7bb5119b1f888f7bb2e127", "asm": "0014a6565a15826c57c57d7bb5119b1f888f7bb2e127"}, "vout": 10, "txid": "395878369a2438352b60318321ab858692d0e8868dbf2b3bc1b6db534c3f14fb"}, {"txinwitness": ["3045022100ab7336a5f7c2018821a57e2b83a24dd43e80b4913acc0934353d5960d6f03a0102203f67f7404ec4512aee3338d54b3065012788060bbb28caec3dbda97393fe87ae01", "03afa69ceb734a1e90e8d1fac25d3a281c29f596f16297cf90ab2c28eae763998c"], "sequence": 4294967295, "scriptSig": {"hex": "160014438ea348f861ed77175702fea9227dd9ad880c87", "asm": "0014438ea348f861ed77175702fea9227dd9ad880c87"}, "vout": 1, "txid": "0407fb32cd443aa87c2ac9bdb547c7591e66c60814f67bb06b2321d1d9baf098"}, {"txinwitness": ["304502210081586c1e6b645fe307ce1fcd6112ad99544266090eb3df8ce54072f3956ea98d02200aceca378cdc514bcda81c0bd52685ab7389378658a921ad456b8fa01c3fdbbe01", "03bb5031ace2c14284fc55672e06abd06f372c36773bcbd5736f02c94adbb687c3"], "sequence": 4294967295, "scriptSig": {"hex": "160014955bdd2684e7a9af2c9a33164f16f3357beb1e64", "asm": "0014955bdd2684e7a9af2c9a33164f16f3357beb1e64"}, "vout": 21, "txid": "a85a69fa1515aa906715274ce37e23992b5c527e81684fed56a0a0382abb5c2a"}, {"txinwitness": ["304402207669f9b3cd50b1c87ef96343b6acdc67365995ebf8f722952a9cf5faf87119c20220585e88bb4ae671b9100d52de3c11f4a741ab4f75d3e5f07c7bab098c16c19efa01", "02e342adfc0aa60d5161f3075221ec739d1233601e145a4cabc06144f4e77a79da"], "sequence": 4294967295, "scriptSig": {"hex": "1600140cdf371230ef243e1583bec7c14140cf7ed32df2", "asm": "00140cdf371230ef243e1583bec7c14140cf7ed32df2"}, "vout": 0, "txid": "572c12de80bb88fb8af1b3eec0f178f0898c7e07d5bb7e860967e851b4ff8bde"}, {"txinwitness": ["304402206d0ebbb0e41cddc873e3ccef8880864becc3b80f1640ce17f80651bd660a661a02202f62334536f24ffab30a44dd4c9d9084cd965491f758a14983833d812370c59901", "0351f08f2c666eac17b5431bf892a7caf36d9e521b308b13a0cc0c3e9244b1fce8"], "sequence": 4294967295, "scriptSig": {"hex": "160014681e7c621c5cc1d5c5636e4d92c2a3eaa25553fb", "asm": "0014681e7c621c5cc1d5c5636e4d92c2a3eaa25553fb"}, "vout": 22, "txid": "af52a0a29a677f21695158e5d700844df81e8159c46845cb21b5fa34b7aa3a19"}, {"txinwitness": ["304402205cf60830007663a6863fa016cb74d57b262386b6ca2ac2dcb63df5ec32c2f06e022039ed9b41a840e11b0a981071483b42de935dd62481c975c58bc9f994f72a82e101", "03acafecc25339df634bf76122fbb23064807d48e8f259938879f03aeef0b23c33"], "sequence": 4294967295, "scriptSig": {"hex": "1600142e52269ef9d2b2b1ec6ca3d6219dc2c52b10554d", "asm": "00142e52269ef9d2b2b1ec6ca3d6219dc2c52b10554d"}, "vout": 8, "txid": "0aa22317f60858c065c2e915fd3cc60eaf4654e12d7a94d5db9cd14f41e68d5e"}, {"txinwitness": ["304402203ee002463ddfe2148b56ea59b6654fde4000977d9378a90d4f84d666579f052f02203394a3b10d40f31d357ae6034cc7d139ecc00011e081f8b463ec26944fefc0bc01", "03d5a50d5ccf123c654eee7306761ba32d2fb5d4144d6e254925c02d2c13ae66d3"], "sequence": 4294967295, "scriptSig": {"hex": "1600149baf91f39f1452fab38b9768b5a02fafcb0c574d", "asm": "00149baf91f39f1452fab38b9768b5a02fafcb0c574d"}, "vout": 0, "txid": "8b16f69eb4e539ed3235b3690fd9cbfe175e9d1f09add04f0afe1d9ce8c5ea9a"}, {"txinwitness": ["3044022064f1f401a875bce41517344bd99e1eeb15cd07fffc4585689c2e6ba24b080ccc02200fd6852053bc78ca5783707836de6a4db415938651d2b0cdb66ac2f60ee83fd801", "03152eb3a83a2862ca98058bf7e089fc84ccc392560167f6ad41ff8d119eae64c2"], "sequence": 4294967295, "scriptSig": {"hex": "160014d562d3484cf2512ef5cc8709fbae2bb67845b96b", "asm": "0014d562d3484cf2512ef5cc8709fbae2bb67845b96b"}, "vout": 1, "txid": "3fab1b0314b0d0ab054b49a046bed5d329a51b735677ef8d1400962b7521d7d0"}, {"txinwitness": ["30440220187e6ee8c934028212f154cff416295632dc053bcf912780890e7c839ab355340220064ade48b9d74f0d0c948d8ee38c30f6da7a66bc1c7ec26d30549b275b07060701", "03d94ee2edafae6cef0f2a5aab00ae1ec31b70d6ec5cf1e0e2f8f8e5351b84623c"], "sequence": 4294967295, "scriptSig": {"hex": "16001426b373ca4ba3b7fd5c39df2c99c85679261d2091", "asm": "001426b373ca4ba3b7fd5c39df2c99c85679261d2091"}, "vout": 7, "txid": "718eaa6fad51ed99938d0a9e6d4805eaf9cf8f2dfbfdf2320bc63ea50b7f4262"}, {"txinwitness": ["3045022100f73228ee029dd39e5b059ce000de32c7f52282384e9814f07be475ba0b014f86022012d6acdded44c112c5b7346a5d6c5e6758fbaf663d1bb0e76ddeb574c34dbb8601", "038280670d434d6ad417927f0db2463060f57b3f9de2dd88eadd502a1a725998c6"], "sequence": 4294967295, "scriptSig": {"hex": "1600145918c8208e2bdeda4fcb85706e065e7d06353bad", "asm": "00145918c8208e2bdeda4fcb85706e065e7d06353bad"}, "vout": 4, "txid": "48393cdde4bd3a9bae5070150ec289b6a65aced1005f326666a9df90531fa0f4"}, {"txinwitness": ["3044022049df0b96e4d46a51313e5370d741d5a41600b795464903fbb0fcb0f967e224500220144ce4567e7636a0e327f1c8b4fa4c79255afcae59b5c9809dc7397e022b928701", "03ff747ade4bca671e57ac534fdad4723b9e2e19b8ac19320f912ec057e6376371"], "sequence": 4294967295, "scriptSig": {"hex": "160014cffc953963713159ca3a720cd223371af85f4924", "asm": "0014cffc953963713159ca3a720cd223371af85f4924"}, "vout": 32, "txid": "b1a3b80d4a6330103e3ac4a4699314db8a109aaaa6c3e5d92911259dc0cfb470"}, {"txinwitness": ["30450221009824af69b09c6f2a238ab15a6c699eb26a0558fa252705e82d0212e5dcdda9c902201ea3fcb315312dee60058630a6f1b2905a138e48d37055756b50081cb2eb077601", "028495ca5a8ddb6da458b0719303c8df5eab909558333c2def56aeda4d021a216f"], "sequence": 4294967295, "scriptSig": {"hex": "160014b2ec529c2391ec1ae16d291b6524b1800c495b40", "asm": "0014b2ec529c2391ec1ae16d291b6524b1800c495b40"}, "vout": 36, "txid": "840f8fb49c25f3c96072983224909717532b9c7d6a51dcf122f01568a712d765"}, {"txinwitness": ["30440220116c669efac35e74f94bce9d0b09d9024ca957760d5095260a0453c335ffe79b02206ee053dd05678c1f8e4f7904682ebaaa1988e8ed2c73e8dd505d78550ca8dec001", "028d3c959d678de4ed83ee88b1375aeb9e8a08c45584ef16ad8b25adba421f0e0f"], "sequence": 4294967295, "scriptSig": {"hex": "160014adc0516ce67af579727a98f6a8956ba7a897bbd3", "asm": "0014adc0516ce67af579727a98f6a8956ba7a897bbd3"}, "vout": 14, "txid": "b1a3b80d4a6330103e3ac4a4699314db8a109aaaa6c3e5d92911259dc0cfb470"}, {"txinwitness": ["304402204957437b2e36e1f6a406f82b54bfc69a92ea48988d7c84820205de8f136005ec022018670803aa963ae13e93739a2bbcd33b6f2568c97c509006fc16321ad597373101", "02ee0fd04f6803a0c0d7b8ab50ba3da67405a9d0c2c9969519a40f2185ccbec793"], "sequence": 4294967295, "scriptSig": {"hex": "160014999fea13345bf42bd1a6734dfbc249f9b0b37752", "asm": "0014999fea13345bf42bd1a6734dfbc249f9b0b37752"}, "vout": 20, "txid": "b1a3b80d4a6330103e3ac4a4699314db8a109aaaa6c3e5d92911259dc0cfb470"}, {"txinwitness": ["3045022100a9408f3fc68a376392894092d02f91083cc83c5dae21a1a828b20623ec7f01cd02203c42cfe30740f72d15f17b41618b2566b2aa076a5e0bfb6abd76f2d1fb51c16801", "0370dd67c1a9098eaf37b682ff5a94ce88c4adc1740dfe3499f9f44cb2b4bbe8fc"], "sequence": 4294967295, "scriptSig": {"hex": "1600141fd0ad04fb6c783120e729d4c4de8075335dd3a5", "asm": "00141fd0ad04fb6c783120e729d4c4de8075335dd3a5"}, "vout": 30, "txid": "718eaa6fad51ed99938d0a9e6d4805eaf9cf8f2dfbfdf2320bc63ea50b7f4262"}, {"txinwitness": ["304402201f7a9ad041e6dc90bc29483b9e05961b6a8e244b3ff52bfc9eaf954fc61c00df022003c0df81a32f72dab6a73b5f045bcef77dc795d5dd1ef2620c0b311263a397f601", "03721e593469ac2a9d9df252701b5df216bd80be42ac1d343e53e906eeb58d305b"], "sequence": 4294967295, "scriptSig": {"hex": "160014354ff5f19030e6ff9c9ab9cf70c9ea56d9fdbf2a", "asm": "0014354ff5f19030e6ff9c9ab9cf70c9ea56d9fdbf2a"}, "vout": 0, "txid": "e2f443d7907f4685f05cd1abac09f40ca598118c99c33726bb8fb06c7672788f"}, {"txinwitness": ["3045022100c47c87711c52a84cd448df35700fd2b13c2a619c663ba5d67d2bc20981a83cae02203ce5016cd032ed7cb85973f8b3e21747f403680ea6f1b1fd0927a0bf794d6f5f01", "03edc08b6fd9fe389c3d766a8c5c6d8781f3cb3d86d129690e618d02fcfdceda86"], "sequence": 4294967295, "scriptSig": {"hex": "1600148fc5a68a31d5b02c52d55a060478e685f01e1a24", "asm": "00148fc5a68a31d5b02c52d55a060478e685f01e1a24"}, "vout": 0, "txid": "c346eb6ae598c059bb5382abe1f3f5d44f0927f3a1032be235976a8984dbc87c"}, {"txinwitness": ["3045022100d65e21411951ff34941c78f5656f6247a6e130dca55d4d25d5181cf66181c0b502205c782a5d46f35e82fe5edf2159d7a4a54cf245decebcfbc753fce0567af1e9b901", "024bf1557c02c432e0db699d1719349b10c46abe075a19a4e06efcf56db21537fd"], "sequence": 4294967295, "scriptSig": {"hex": "160014240d2a36528d2e9aada3860813f4a7b4a89de768", "asm": "0014240d2a36528d2e9aada3860813f4a7b4a89de768"}, "vout": 0, "txid": "9fd1963f6ad616b61fa53474d81968d15c642b3ed3c75f7024159968ecc0d51a"}, {"txinwitness": ["30440220100faa887a34d23e71843dd13279c4f52969dad9d9b36d76752a2e96bef91aa002200baef19ecf2a22ec0dfbb342807e149ef2125c2441cf7559e67de283dcc65e6701", "032b459361625bc7c8f443232e15f53a8956d54238782e63be242fc6d4345abc6a"], "sequence": 4294967295, "scriptSig": {"hex": "1600141623c54fe65dd2c102f33d9e382ec03e9aea522d", "asm": "00141623c54fe65dd2c102f33d9e382ec03e9aea522d"}, "vout": 27, "txid": "af52a0a29a677f21695158e5d700844df81e8159c46845cb21b5fa34b7aa3a19"}, {"txinwitness": ["3045022100877c6f7892e5ba95fa2b79b04f61b445eea41e7f9f4f523510e1bca243b2d60b0220595d22efe8da11c90185163446c4c13d7b7b408d3adefddd6ee78bc0c8547b9c01", "02bc146140c92b030e47f273d9a95ec37304be6f9827279da891ceedaa1b7a8250"], "sequence": 4294967295, "scriptSig": {"hex": "160014fd2f23412ecfef31ea91b3ff6eb5de84d523aebf", "asm": "0014fd2f23412ecfef31ea91b3ff6eb5de84d523aebf"}, "vout": 0, "txid": "33329618050a2e63a7a5494d6d104db30c6faf8296d532a5f85785c89a6f13b0"}, {"txinwitness": ["3044022053c162a170270533acbe33e909f2ad158a10591adec472768846489597038977022042f168d8f0cf9773665b9c46707795b7b72391e870842f6f7e1e72093e68fc2001", "034caffe6c60202afaacb1eb4c26372a49f22d7b8bcfe3aff41abec76729744355"], "sequence": 4294967295, "scriptSig": {"hex": "160014e88f347dc27febf5949b756452f3429f2e4e4809", "asm": "0014e88f347dc27febf5949b756452f3429f2e4e4809"}, "vout": 0, "txid": "f834e2f59c52e110d9a2ddd9cd44b3b34796d8a77380fcfdd19319157e7855bf"}, {"txinwitness": ["3045022100fc09fd8709aac3bf35a4dfdc1e7cbc8c21f1e6eeed9e5a9855601949f95dc413022055a8db52be061ad63e70a1926afe8db95bfff61f3b0424a745efd5ef8d09cfca01", "0390873a7801f33b7c4e2ca450b0d760773799c63b07f2188364a47b8f94cd9ec9"], "sequence": 4294967295, "scriptSig": {"hex": "1600142a3796909567ea431b4bfdcb89135850f0df64fe", "asm": "00142a3796909567ea431b4bfdcb89135850f0df64fe"}, "vout": 0, "txid": "696547895eeed5029c4389d4509291186a07b30c0a1ef1e8a18eb102140aa3e6"}, {"txinwitness": ["3045022100c3b825309cd237a210fb8371d5a002e84fe162985ceabcef752be469d5f6877202202e636c58b30bb459556a8cfa8ab831802386888779173c10035909257aa0cbb401", "02b14f1dd8fd478d3e6fc7d97c804c35bcd458e46f691a84e5c1d7e232ad531f33"], "sequence": 4294967295, "scriptSig": {"hex": "16001499459a32374a15416f96306f1319ad0d7e15aef6", "asm": "001499459a32374a15416f96306f1319ad0d7e15aef6"}, "vout": 26, "txid": "395878369a2438352b60318321ab858692d0e8868dbf2b3bc1b6db534c3f14fb"}, {"txinwitness": ["3044022009a2a5c35028fb1ae574703d15aa8ea8147491277a2621bee555de49c147c0df02201b914c4f5beb0f0d0df1dad666c95cb8fa7d91b991fd5c2a05ee4982db09e38201", "033442a2b4cb9c1758934f4dd9d0b6ff44247a9971769ff7492bf7d27b138da8eb"], "sequence": 4294967295, "scriptSig": {"hex": "1600141ca1cf2d4577d84b316b8a16b025532f86b882da", "asm": "00141ca1cf2d4577d84b316b8a16b025532f86b882da"}, "vout": 4, "txid": "c3e048e396bc265fa6e95ad2f6a01d742ea46d54ae583c06ee15ebd3f88a7658"}, {"txinwitness": ["304402207679de361ecbde9aab68330cd9851d2aa5195010ca9ea9a6d00b40943e04077e02205c952e8ead1ed00b639da4cf2cff186217234c2f5da381ea8f925aab4ddf20e901", "03e8825b9abf292b0e700acb4797ac1316d5e17de5f8bf819ee9e57bcc54c01415"], "sequence": 4294967295, "scriptSig": {"hex": "1600143f1c859f3d523ef80912f1768770213b9e69755c", "asm": "00143f1c859f3d523ef80912f1768770213b9e69755c"}, "vout": 21, "txid": "840f8fb49c25f3c96072983224909717532b9c7d6a51dcf122f01568a712d765"}, {"txinwitness": ["3044022032b606fa3531cca386a40d980159ae98f26c981a28b59ca7bb565912baa2de69022008162829d2d1e73f3decf98e49c174c7e1ddf0a5a0d3f6e9719ce9e2f560f08b01", "0377c5cb9986b592c76e89735a0d2f2745e61bc2b48636cc685c66799a52805a06"], "sequence": 4294967295, "scriptSig": {"hex": "160014653bd16efe5403ce61fa6a4a92db2bc9ddcfaf2c", "asm": "0014653bd16efe5403ce61fa6a4a92db2bc9ddcfaf2c"}, "vout": 0, "txid": "c5e12e6a32851fec643ac8259fc8993ae381974bb776bc9d1e54ea094f395d79"}, {"txinwitness": ["3044022032dd1fe6a86b743ebd74207af6be7bed19cdbdd31b6945ceef628dc22ec0ae7c0220504f7965c94d60a446cd4e269aecfb708562281902ebec3fe4faa622b3cb425401", "03964ca797be6c8ee5e2d6a2b69a36fa5e736ebc9c0bce68ab8efd0db3cf21eb33"], "sequence": 4294967295, "scriptSig": {"hex": "16001453a22bb706ba5bb58909888c90e164484d33d489", "asm": "001453a22bb706ba5bb58909888c90e164484d33d489"}, "vout": 11, "txid": "4c187c4450e6310cae86fbb686fa5d29f2a7b8bffa949fdde80ba502b08b2b41"}, {"txinwitness": ["3045022100cab5653e47d37a50716994daf5573a18e4246139a3e837478b76e98d9c0844e60220024fdbb344ec3fe37e86eb13f8dd6f9b515377a7cf6ade815b4265e2b15bc7bd01", "0372246b41696b80f204b6d539327a9bd6d76ac64845fbf68e292869f2a51fc29c"], "sequence": 4294967295, "scriptSig": {"hex": "160014f768ceedaad520a3faad86baf318cef1e17dd00b", "asm": "0014f768ceedaad520a3faad86baf318cef1e17dd00b"}, "vout": 3, "txid": "840f8fb49c25f3c96072983224909717532b9c7d6a51dcf122f01568a712d765"}, {"txinwitness": ["3044022045ace888363c824e3c971e99060258068e88f9de827267e0a76d8263bf32c3a302200ba1e46fd27fc4b268dffbf62f542d6acf5dd8dca8e4e1e6915512cd276a2c2301", "0259a64ed6b473ca2d7de99b74058fb4dcfd0a3d6b1a4ec2b2b84165281700568d"], "sequence": 4294967295, "scriptSig": {"hex": "1600142cb2116244eca9bf1371d056edb10b8cb8bf7fb6", "asm": "00142cb2116244eca9bf1371d056edb10b8cb8bf7fb6"}, "vout": 11, "txid": "c377b9f4a92e15db264ff7b7fd77b7f166bf4dd231e9d2f91c5473cd34414e95"}, {"txinwitness": ["304502210082bade86d186a900fc97ee91bea090fde5e137139ec7be51ab9b55222b1a8e13022005779b4237458609b1fc732adbab5f9d297b76443e249d7801f76dd5cd6e66da01", "02396dec18b86754d640c11eb2ab902b7eaaa0bb1004f758529c28ab5f6885f53a"], "sequence": 4294967295, "scriptSig": {"hex": "1600140e4eb9b66c4b3b17aa12a9ddc05a81f6b760f27f", "asm": "00140e4eb9b66c4b3b17aa12a9ddc05a81f6b760f27f"}, "vout": 18, "txid": "fea44190d901eaaca790128657a1bb9f574cac902d2324e74a7275fe152e3e2a"}, {"txinwitness": ["3045022100bee4c6af2fdfeccb595096e293bf6a138191ffe80de7084ca8d5fe479afb95f0022070ff24c8c69ccd6a7e1751512f8584454c211fa4d4e43dfcef6647e80382228201", "02ef50d11303f4c2a23ab01c4fa878789c6e952a263dac2050b5d988b622b1425e"], "sequence": 4294967295, "scriptSig": {"hex": "1600141e2b679842d9e197fda1547d17f7d06099a0122f", "asm": "00141e2b679842d9e197fda1547d17f7d06099a0122f"}, "vout": 5, "txid": "840f8fb49c25f3c96072983224909717532b9c7d6a51dcf122f01568a712d765"}, {"txinwitness": ["304402204576fcc19c2b51456608c263dd9fddda8f052b6f879f0e90263f0ad37938d1bc02203250259cbcdc28357f3f76165767215621de7ac8cf66449323e8f895ed21be3601", "0274e84a6b2028890cf5dd0d9059b7f8d509f13ec56d0a71c50c48660932619e78"], "sequence": 4294967295, "scriptSig": {"hex": "1600140d70ceb2655a99236d917a645fd4ddec4ecf85c2", "asm": "00140d70ceb2655a99236d917a645fd4ddec4ecf85c2"}, "vout": 0, "txid": "3e5b143293e1849f4ab3684fce6165ecc8c3376d7fadc457e24ebf28419e57ae"}, {"txinwitness": ["3045022100b35c52cc335a8b1c743aa2562f45978e8090a3b5457c1ce7bb7e3266b84b347502200d69c28a1ee1127a652027f83452112abcaefe8b9ed86191f4e9de33c942ff8301", "0291dc2f9b2823091f5d59dcec499e186d4d29f702b18817cc8cf4509899660913"], "sequence": 4294967295, "scriptSig": {"hex": "160014400547ba0676b85683e6e76451238eca0d6ac338", "asm": "0014400547ba0676b85683e6e76451238eca0d6ac338"}, "vout": 7, "txid": "48393cdde4bd3a9bae5070150ec289b6a65aced1005f326666a9df90531fa0f4"}, {"txinwitness": ["3045022100db11d260d33cbaf8f4a1a7f3e6a0e41a61a7084cefd9e35d2f62446dba8f040102200ffa75ba19afad7e52da799b6e127e11a4f055ad9517597d018821d6d5fa63ae01", "0237bd8ba1914876fd6d3f59e5baf2c0e48690714769ec6ca68bd81488d3706af9"], "sequence": 4294967295, "scriptSig": {"hex": "160014f6c852547c6d69d48ce8eb96b46aeeda7d3ba555", "asm": "0014f6c852547c6d69d48ce8eb96b46aeeda7d3ba555"}, "vout": 5, "txid": "718eaa6fad51ed99938d0a9e6d4805eaf9cf8f2dfbfdf2320bc63ea50b7f4262"}, {"txinwitness": ["3045022100d2784c5d7f336c7e1e1423875f1aac38e5043575eff73189720205df971aff4102200565fcb22b3037facea558d8f9c31f07c582afdffdba939e0ac16d9aeafd4b6401", "021c4f21e25e62ade4672e5c72ec15b328ae7424f431860d38f8be61d931b3bf88"], "sequence": 4294967295, "scriptSig": {"hex": "16001416ca290d3372583ac4b2660b5e8f97923b5343ad", "asm": "001416ca290d3372583ac4b2660b5e8f97923b5343ad"}, "vout": 10, "txid": "a85a69fa1515aa906715274ce37e23992b5c527e81684fed56a0a0382abb5c2a"}, {"txinwitness": ["30440220417ed6d0fe94ce7c37e1d13bb63a6e0d951369c12d479f7d7d55feb0f76f113302206b71f71918e2df04596e0e70ea7141839305841fe8fa98f5370c9c7b5e788f7c01", "03c1233bef6ca2531c25ea97bff30d1dc61efab6ade099d95c876bed6ceb395c85"], "sequence": 4294967295, "scriptSig": {"hex": "16001423d7e1c23f4995a439ad2874c1bbdc59d3248e7c", "asm": "001423d7e1c23f4995a439ad2874c1bbdc59d3248e7c"}, "vout": 17, "txid": "4c187c4450e6310cae86fbb686fa5d29f2a7b8bffa949fdde80ba502b08b2b41"}, {"txinwitness": ["30440220720564905939d564304f701935eb2b9d69bca43f70371a70165c39ea9c4905b802207b6c3b30d044fb1ee3a0f89ebffa53ef41c71ab1c29f8eda3ae07a331c1abbc701", "03d18e8205bc7117a25e674b1ac07ab12caf1d2f8a78b153c976d8fc868c2a971d"], "sequence": 4294967295, "scriptSig": {"hex": "1600147c77c4c75d1ebf90324e77a8f024ea9d4fe55ecb", "asm": "00147c77c4c75d1ebf90324e77a8f024ea9d4fe55ecb"}, "vout": 0, "txid": "5a7ea5d6f52a82325b9eef862df768ffe5cb3c4ed58f5a928949d8c60283bd41"}, {"txinwitness": ["304502210083fee71567e815ccfa58e7b911827c63b708c1a6a2ff5e4864d3a28bb559b6c602202d9cf430845d7d2ad496208e652853e8a705ca87d0a0905f4dc2e2a16afd3b0501", "03582d6659484547485dddbc5b17851724c005a1e5d04c917d5c2c66188414f353"], "sequence": 4294967295, "scriptSig": {"hex": "1600149bcda801340314893684e5fccdd796e389711e05", "asm": "00149bcda801340314893684e5fccdd796e389711e05"}, "vout": 0, "txid": "b5331756cf7bdd80a1942c154a13ae1d1610ca01c4ee012d86abe017a80afe87"}, {"txinwitness": ["30450221008d12874ae2a81d881612701376f0be3033ce3a0535b47cf7d2b98bb53a79248b02203b164878210edcd21b8a919dad6dc7a79eb0406b7ff672ae9b4e5e36b0a4423c01", "02feef3c4b7a9ac449345fa12ad8ed07524cbadbf189a9e417827368abd45d3f46"], "sequence": 4294967295, "scriptSig": {"hex": "1600147a34e1170e015de2cb055e9f37cd5c587f84204d", "asm": "00147a34e1170e015de2cb055e9f37cd5c587f84204d"}, "vout": 13, "txid": "a85a69fa1515aa906715274ce37e23992b5c527e81684fed56a0a0382abb5c2a"}], "txid": "6e0e353f04b05d1862f36229ac739aabcbb188c9b2d50a8861ce9c6f9f7e2775", "blocktime": 1537872475, "version": 2, "confirmations": 11486, "time": 1537872475, "locktime": 0, "vsize": 3842, "size": 7067}