{"hash": "6e14974b6e52530449b1089ed144c1bfb57aad35216bf3a9050fa6549036b64f", "blockhash": "0000000000000000001f76057863aec43deb6fa401d9628bb513d65a8098bfab", "vout": [{"scriptPubKey": {"reqSigs": 1, "hex": "a914246be3b30af578e941f412424b00fec37d3e8f0087", "addresses": ["351bVjsxsBuyEWVka7Swc6diWdZcMqEfPg"], "asm": "OP_HASH160 246be3b30af578e941f412424b00fec37d3e8f00 OP_EQUAL", "type": "scripthash"}, "value": 0.01874495, "n": 0}, {"scriptPubKey": {"reqSigs": 1, "hex": "76a914852ea35f071813ecf9751abe65049de61cbf8c5788ac", "addresses": ["1D9CjzS6u5ArSoEGqkqUEz4j55iA3rsFCL"], "asm": "OP_DUP OP_HASH160 852ea35f071813ecf9751abe65049de61cbf8c57 OP_EQUALVERIFY OP_CHECKSIG", "type": "pubkeyhash"}, "value": 0.0518459, "n": 1}], "hex": "0200000001de1394e0006a3eac86f51bec559657ae797702ea5cb7eb4836a41a78498dc277010000006b483045022100d2f882063de4276c6b7ab259966b30646b6dff3913989a58293c5b153530bf0e02206832d596dc813548d9f14085b4da23c0fe55f1442b7172d9120f8b792f533c7f012103ad9345c23921567f0abf3339bb67fe7dde30c759d2837f65e6d4230853bddca5ffffffff023f9a1c000000000017a914246be3b30af578e941f412424b00fec37d3e8f00874e1c4f00000000001976a914852ea35f071813ecf9751abe65049de61cbf8c5788ac00000000", "vin": [{"sequence": 4294967295, "scriptSig": {"hex": "483045022100d2f882063de4276c6b7ab259966b30646b6dff3913989a58293c5b153530bf0e02206832d596dc813548d9f14085b4da23c0fe55f1442b7172d9120f8b792f533c7f012103ad9345c23921567f0abf3339bb67fe7dde30c759d2837f65e6d4230853bddca5", "asm": "3045022100d2f882063de4276c6b7ab259966b30646b6dff3913989a58293c5b153530bf0e02206832d596dc813548d9f14085b4da23c0fe55f1442b7172d9120f8b792f533c7f[ALL] 03ad9345c23921567f0abf3339bb67fe7dde30c759d2837f65e6d4230853bddca5"}, "vout": 1, "txid": "77c28d49781aa43648ebb75cea027779ae579655ec1bf586ac3e6a00e09413de"}], "txid": "6e14974b6e52530449b1089ed144c1bfb57aad35216bf3a9050fa6549036b64f", "blocktime": 1537873891, "version": 2, "confirmations": 11478, "time": 1537873891, "locktime": 0, "vsize": 224, "size": 224}