{"hash": "8a52c41424e0e7c828424694a229b314358c84a85017cb24cefd0881280a9083", "blockhash": "0000000000000000000dcc0f55137456b1a82d3642486a52398922ac4d620174", "vout": [{"scriptPubKey": {"reqSigs": 1, "hex": "76a914d1e367f73fd4c380adf090713dd9a162b3aed1b688ac", "addresses": ["1L8neYhXkkXbRXLjx9P1xzNd4wqeBNcMXU"], "asm": "OP_DUP OP_HASH160 d1e367f73fd4c380adf090713dd9a162b3aed1b6 OP_EQUALVERIFY OP_CHECKSIG", "type": "pubkeyhash"}, "value": 0.005, "n": 0}, {"scriptPubKey": {"reqSigs": 1, "hex": "0014345d183cfc4cdc5150b686dd20c83f8e9fddb320", "addresses": ["bc1qx3w3s08ufnw9z59ksmwjpjpl360amveq83gqt8"], "asm": "0 345d183cfc4cdc5150b686dd20c83f8e9fddb320", "type": "witness_v0_keyhash"}, "value": 0.00163394, "n": 1}], "hex": "010000000001014b8eda740f5d581b7066ee7824352d6be5480e69658d06be7012f83b4414036f0100000000ffffffff0220a10700000000001976a914d1e367f73fd4c380adf090713dd9a162b3aed1b688ac427e020000000000160014345d183cfc4cdc5150b686dd20c83f8e9fddb32002483045022100d2987c7b5803517483403f7e00941177536b5c5ab6ab6521fcd91e310c8ff65c0220608ee8367a12de1b15862e472f342f953266535346ade4267acc12409c5c8c610121030a22b62e548fa31fdaf1113521ae39e36056a4e02f6319c1f280d4a558a2b57c00000000", "vin": [{"txinwitness": ["3045022100d2987c7b5803517483403f7e00941177536b5c5ab6ab6521fcd91e310c8ff65c0220608ee8367a12de1b15862e472f342f953266535346ade4267acc12409c5c8c6101", "030a22b62e548fa31fdaf1113521ae39e36056a4e02f6319c1f280d4a558a2b57c"], "sequence": 4294967295, "scriptSig": {"hex": "", "asm": ""}, "vout": 1, "txid": "6f0314443bf81270be068d65690e48e56b2d352478ee66701b585d0f74da8e4b"}], "txid": "6e1790a9594c1e05334c074cd658cb275d86a300e1b8c43a14f5ce24ba5e2b20", "blocktime": 1537870268, "version": 1, "confirmations": 11518, "time": 1537870268, "locktime": 0, "vsize": 144, "size": 226}