{"hash": "6e171aca831572ff84c1d7b476d67244efb3fd9121e25a3e3cb8e5751768ae2d", "blockhash": "000000000000000000022b45ed06c6f4ccd3cf7fb5ba4856ebd2e58215665228", "vout": [{"scriptPubKey": {"reqSigs": 1, "hex": "76a91489e34c361efdc396afbca5abc50cab6f5de667db88ac", "addresses": ["1Da5sCi9z9x8GeorpSC7JN3jdPTnvQwp4o"], "asm": "OP_DUP OP_HASH160 89e34c361efdc396afbca5abc50cab6f5de667db OP_EQUALVERIFY OP_CHECKSIG", "type": "pubkeyhash"}, "value": 0.003416, "n": 0}, {"scriptPubKey": {"reqSigs": 1, "hex": "76a914f18d79c1e3c0901cb87ee7e7b8915ece80a52dd588ac", "addresses": ["1P2DL8VYcuyWbvneHXza41g5DnYuiG11Y8"], "asm": "OP_DUP OP_HASH160 f18d79c1e3c0901cb87ee7e7b8915ece80a52dd5 OP_EQUALVERIFY OP_CHECKSIG", "type": "pubkeyhash"}, "value": 0.01219444, "n": 1}], "hex": "0100000001a6444a0e47b03d2f4656c844c3bc0701fdb3ac77c66a6362c25141b25fcfa5b5010000006b483045022100a71b3c0d86baeda679077446251f13165aa765ce77e383b8e940855ccdc8c5a502200132d15578e34625f53a7cb3a529bcffd62654a236d33ec446c0562d7382d3ac012103af04679d7f74c634e3012e4246e410f3ea532abed466af641a39ca1c02eed7aeffffffff0260360500000000001976a91489e34c361efdc396afbca5abc50cab6f5de667db88ac749b1200000000001976a914f18d79c1e3c0901cb87ee7e7b8915ece80a52dd588ac00000000", "vin": [{"sequence": 4294967295, "scriptSig": {"hex": "483045022100a71b3c0d86baeda679077446251f13165aa765ce77e383b8e940855ccdc8c5a502200132d15578e34625f53a7cb3a529bcffd62654a236d33ec446c0562d7382d3ac012103af04679d7f74c634e3012e4246e410f3ea532abed466af641a39ca1c02eed7ae", "asm": "3045022100a71b3c0d86baeda679077446251f13165aa765ce77e383b8e940855ccdc8c5a502200132d15578e34625f53a7cb3a529bcffd62654a236d33ec446c0562d7382d3ac[ALL] 03af04679d7f74c634e3012e4246e410f3ea532abed466af641a39ca1c02eed7ae"}, "vout": 1, "txid": "b5a5cf5fb24151c262636ac677acb3fd0107bcc344c856462f3db0470e4a44a6"}], "txid": "6e171aca831572ff84c1d7b476d67244efb3fd9121e25a3e3cb8e5751768ae2d", "blocktime": 1537869901, "version": 1, "confirmations": 11524, "time": 1537869901, "locktime": 0, "vsize": 226, "size": 226}