{"hash": "6e1877ee1360d33643dd97bc83ec7bfb45f287812afea6b7ddf4752adf3de092", "blockhash": "000000000000000000022b45ed06c6f4ccd3cf7fb5ba4856ebd2e58215665228", "vout": [{"scriptPubKey": {"reqSigs": 1, "hex": "76a9144a0f1e2f2b0d7daeec5265f10bbbbe08ed725e8988ac", "addresses": ["17kb7c9ndg7ioSuzMWEHWECdEVUegNkcGc"], "asm": "OP_DUP OP_HASH160 4a0f1e2f2b0d7daeec5265f10bbbbe08ed725e89 OP_EQUALVERIFY OP_CHECKSIG", "type": "pubkeyhash"}, "value": 0.20798656, "n": 0}], "hex": "0100000001170f94975c1d1865c4af5f12d7fcbf4239046fdd138455c9c00d3907617d7ec7010000006a473044022063db24e84eb404a7eed851834277c5362bfaf3a58f403611416531b8a238f9a70220087b08f2df298c0512cf1262b55fd63fd145bc728ee023029f898a483e3b613f01210390d0366e955b82f25c96e9563d326ce5e902d94d10d714ee4c145d256720fbd1ffffffff01c05c3d01000000001976a9144a0f1e2f2b0d7daeec5265f10bbbbe08ed725e8988ac00000000", "vin": [{"sequence": 4294967295, "scriptSig": {"hex": "473044022063db24e84eb404a7eed851834277c5362bfaf3a58f403611416531b8a238f9a70220087b08f2df298c0512cf1262b55fd63fd145bc728ee023029f898a483e3b613f01210390d0366e955b82f25c96e9563d326ce5e902d94d10d714ee4c145d256720fbd1", "asm": "3044022063db24e84eb404a7eed851834277c5362bfaf3a58f403611416531b8a238f9a70220087b08f2df298c0512cf1262b55fd63fd145bc728ee023029f898a483e3b613f[ALL] 0390d0366e955b82f25c96e9563d326ce5e902d94d10d714ee4c145d256720fbd1"}, "vout": 1, "txid": "c77e7d6107390dc0c9558413dd6f043942bffcd7125fafc465181d5c97940f17"}], "txid": "6e1877ee1360d33643dd97bc83ec7bfb45f287812afea6b7ddf4752adf3de092", "blocktime": 1537869901, "version": 1, "confirmations": 11522, "time": 1537869901, "locktime": 0, "vsize": 191, "size": 191}