{"hash": "e845741d2c7d55df08fe5b063c08a013a60dfbad3bd920e0fdc2188411537072", "blockhash": "0000000000000000000baef3f32e3676a92c3b2e5da21b426e4f302fc371ce76", "vout": [{"scriptPubKey": {"reqSigs": 1, "hex": "76a914dd7f94ace3abe69ca1fdd55c4840ede6dddca4a888ac", "addresses": ["1MCBArxZz3YhbzveqHMJVfcnrz1HQLc886"], "asm": "OP_DUP OP_HASH160 dd7f94ace3abe69ca1fdd55c4840ede6dddca4a8 OP_EQUALVERIFY OP_CHECKSIG", "type": "pubkeyhash"}, "value": 0.00136442, "n": 0}, {"scriptPubKey": {"reqSigs": 1, "hex": "a914414cec0fc72a9410f6836edaf08de1aa3b2a321c87", "addresses": ["37eHzewnAFRR2SVZu8rZM3nBsmuE2XBU7D"], "asm": "OP_HASH160 414cec0fc72a9410f6836edaf08de1aa3b2a321c OP_EQUAL", "type": "scripthash"}, "value": 0.22793342, "n": 1}], "hex": "0100000000010100d721b9fc759a6819e1b04358528d66bd4096a4d82e5219249f57861ccabbcc0100000023220020ce74cde37cfb8dd71d0179287e12fc721ee236ce3c89c2745bcd365b39807eb3ffffffff02fa140200000000001976a914dd7f94ace3abe69ca1fdd55c4840ede6dddca4a888ac7ecc5b010000000017a914414cec0fc72a9410f6836edaf08de1aa3b2a321c870400473044022025c6154bdc20539bd25aaa15c652589a21b1b2a825eb420c0bdcc73eb955e27c0220579c9eb6e1b67c9e74d1a96a8cf22ba57fa782e0d3a751d7a2946e79394804de01483045022100f02556098a1e70f4fe459d9a65163456d90247fa5f205e78b7e3589c7d8430d902203498b180237c34059288cd8f1f4a3080a28db4d52dabf5c092cfde1637a6f5460147522103ada901d90d5a76319a60f228e0b1bbc84b1d9a87238550bae5d5d190067b66712103871fc2ca08e6950b38867e8e6a0e94ee625223d3aa0df5c65f414c6d784467e252ae00000000", "vin": [{"txinwitness": ["", "3044022025c6154bdc20539bd25aaa15c652589a21b1b2a825eb420c0bdcc73eb955e27c0220579c9eb6e1b67c9e74d1a96a8cf22ba57fa782e0d3a751d7a2946e79394804de01", "3045022100f02556098a1e70f4fe459d9a65163456d90247fa5f205e78b7e3589c7d8430d902203498b180237c34059288cd8f1f4a3080a28db4d52dabf5c092cfde1637a6f54601", "522103ada901d90d5a76319a60f228e0b1bbc84b1d9a87238550bae5d5d190067b66712103871fc2ca08e6950b38867e8e6a0e94ee625223d3aa0df5c65f414c6d784467e252ae"], "sequence": 4294967295, "scriptSig": {"hex": "220020ce74cde37cfb8dd71d0179287e12fc721ee236ce3c89c2745bcd365b39807eb3", "asm": "0020ce74cde37cfb8dd71d0179287e12fc721ee236ce3c89c2745bcd365b39807eb3"}, "vout": 1, "txid": "ccbbca1c86579f2419522ed8a49640bd668d525843b0e119689a75fcb921d700"}], "txid": "6e24a59db3617a83aa42f4ea84c2ceb2e3c15c4ee2a0003ccc44c65f2fe41bef", "blocktime": 1537876114, "version": 1, "confirmations": 11462, "time": 1537876114, "locktime": 0, "vsize": 208, "size": 373}