{"hash": "6e2663b0154de70da8f227635b874535ad26e1a3c63013dd9a0b3bbaf782f863", "blockhash": "00000000000000000004ffacab907a6b429b9a5745fa0b75af4234bf69dd7176", "vout": [{"scriptPubKey": {"reqSigs": 1, "hex": "76a914669f1b7c6d23412ac884d656c30441cdc4cac28288ac", "addresses": ["1AMcXYLt68Nx5uAtosQ4XevAaLN6sGekW8"], "asm": "OP_DUP OP_HASH160 669f1b7c6d23412ac884d656c30441cdc4cac282 OP_EQUALVERIFY OP_CHECKSIG", "type": "pubkeyhash"}, "value": 0.03445553, "n": 0}, {"scriptPubKey": {"reqSigs": 1, "hex": "76a91404804e0773fa686554b392f4e01180294d07601f88ac", "addresses": ["1QoQYPb5JiKyeK2jj47Rv9YTRGn6FVFCX"], "asm": "OP_DUP OP_HASH160 04804e0773fa686554b392f4e01180294d07601f OP_EQUALVERIFY OP_CHECKSIG", "type": "pubkeyhash"}, "value": 1.84701848, "n": 1}], "hex": "01000000014c5282c235ea6b626690f62f7cca1710275483a51af39a7377eda09679b59239010000006a4730440220791fb9c4b6278730483b44e148416551ae9debafa80f9319d63a0b897d4e67ed022063ef13292cfa8bac736ef585d3c873b4880e70b9ee5f9160bbf381306e07e201012102355ec030075ff36cd91b814894ce05a2ca712f97366a0713ffb58ca01059bb88ffffffff0231933400000000001976a914669f1b7c6d23412ac884d656c30441cdc4cac28288ac9853020b000000001976a91404804e0773fa686554b392f4e01180294d07601f88ac00000000", "vin": [{"sequence": 4294967295, "scriptSig": {"hex": "4730440220791fb9c4b6278730483b44e148416551ae9debafa80f9319d63a0b897d4e67ed022063ef13292cfa8bac736ef585d3c873b4880e70b9ee5f9160bbf381306e07e201012102355ec030075ff36cd91b814894ce05a2ca712f97366a0713ffb58ca01059bb88", "asm": "30440220791fb9c4b6278730483b44e148416551ae9debafa80f9319d63a0b897d4e67ed022063ef13292cfa8bac736ef585d3c873b4880e70b9ee5f9160bbf381306e07e201[ALL] 02355ec030075ff36cd91b814894ce05a2ca712f97366a0713ffb58ca01059bb88"}, "vout": 1, "txid": "3992b57996a0ed77739af31aa58354271017ca7c2ff69066626bea35c282524c"}], "txid": "6e2663b0154de70da8f227635b874535ad26e1a3c63013dd9a0b3bbaf782f863", "blocktime": 1537875543, "version": 1, "confirmations": 11464, "time": 1537875543, "locktime": 0, "vsize": 225, "size": 225}