{"hash": "6e263854a624e7f2626be0a71bf61308226d1baaa94ce5f74f7c799aa1029435", "blockhash": "00000000000000000017f5eb5941039fbcee6240d03bc1f2f8e35350df66a1d8", "vout": [{"scriptPubKey": {"reqSigs": 1, "hex": "a914763e87bc64eb8fc7c1f4cb6e0859c47a4856652f87", "addresses": ["3CUEZra7J1qKPcdnqQ7eSUXPKSAdWYENsz"], "asm": "OP_HASH160 763e87bc64eb8fc7c1f4cb6e0859c47a4856652f OP_EQUAL", "type": "scripthash"}, "value": 0.0101, "n": 0}, {"scriptPubKey": {"reqSigs": 1, "hex": "a914e370231feecbfc25e2e2423a5a79bf79bfdca59887", "addresses": ["3NRbeX3vD5VaVE4TDU9ivCDsEf7NPPte6J"], "asm": "OP_HASH160 e370231feecbfc25e2e2423a5a79bf79bfdca598 OP_EQUAL", "type": "scripthash"}, "value": 3.06286325, "n": 1}], "hex": "0100000001e897fbdbc002c6e92b84f4e02d1a00f3c21dd0849033f2fdadf5cce0ee2c479101000000db00483045022100d0bb2432240527e173567a9a4c8fbf792e06419ec202e86442713c8438590e0902203c23d3608d793dba78f689c75f405bd1d1a5d3dcfb80007652d83974251ef22701483045022100a3b184271c79aa687fddffa218fdb98111c0ff74ee802ed29e058ec4469711660220551a8073ed62b9da1c23cce3878404d5a517459f5d41b2d239666be6ecd352fb014752210327881b6abce6535553a3ce21fad12a7d74fd237ce7c4cd270a267162344e3082210256141f8eb687f5a68c5cc65054652dc25116fa285e44d72b44368827ffe77d9a52aeffffffff0250690f000000000017a914763e87bc64eb8fc7c1f4cb6e0859c47a4856652f87f58e41120000000017a914e370231feecbfc25e2e2423a5a79bf79bfdca5988700000000", "vin": [{"sequence": 4294967295, "scriptSig": {"hex": "00483045022100d0bb2432240527e173567a9a4c8fbf792e06419ec202e86442713c8438590e0902203c23d3608d793dba78f689c75f405bd1d1a5d3dcfb80007652d83974251ef22701483045022100a3b184271c79aa687fddffa218fdb98111c0ff74ee802ed29e058ec4469711660220551a8073ed62b9da1c23cce3878404d5a517459f5d41b2d239666be6ecd352fb014752210327881b6abce6535553a3ce21fad12a7d74fd237ce7c4cd270a267162344e3082210256141f8eb687f5a68c5cc65054652dc25116fa285e44d72b44368827ffe77d9a52ae", "asm": "0 3045022100d0bb2432240527e173567a9a4c8fbf792e06419ec202e86442713c8438590e0902203c23d3608d793dba78f689c75f405bd1d1a5d3dcfb80007652d83974251ef227[ALL] 3045022100a3b184271c79aa687fddffa218fdb98111c0ff74ee802ed29e058ec4469711660220551a8073ed62b9da1c23cce3878404d5a517459f5d41b2d239666be6ecd352fb[ALL] 52210327881b6abce6535553a3ce21fad12a7d74fd237ce7c4cd270a267162344e3082210256141f8eb687f5a68c5cc65054652dc25116fa285e44d72b44368827ffe77d9a52ae"}, "vout": 1, "txid": "91472ceee0ccf5adfdf2339084d01dc2f3001a2de0f4842be9c602c0dbfb97e8"}], "txid": "6e263854a624e7f2626be0a71bf61308226d1baaa94ce5f74f7c799aa1029435", "blocktime": 1537874412, "version": 1, "confirmations": 11468, "time": 1537874412, "locktime": 0, "vsize": 334, "size": 334}