{"hash": "6e27cfe86009ded9af89cd23601c43e78f3555d41669d164e941636be0836a38", "blockhash": "00000000000000000017f5eb5941039fbcee6240d03bc1f2f8e35350df66a1d8", "vout": [{"scriptPubKey": {"reqSigs": 1, "hex": "76a914128a10afe6fb8f8cf6d70ed3eba80c4b9835220888ac", "addresses": ["12h2ZPdLPBYq7sL1ojonF89u8MK2247f5V"], "asm": "OP_DUP OP_HASH160 128a10afe6fb8f8cf6d70ed3eba80c4b98352208 OP_EQUALVERIFY OP_CHECKSIG", "type": "pubkeyhash"}, "value": 0.00462973, "n": 0}, {"scriptPubKey": {"reqSigs": 1, "hex": "76a914da2133f3206c1b120e99617c7f7f7fc45a9a332088ac", "addresses": ["1LtN5oLgDXMkhyhAhRMwA5UkqjnV17PLYx"], "asm": "OP_DUP OP_HASH160 da2133f3206c1b120e99617c7f7f7fc45a9a3320 OP_EQUALVERIFY OP_CHECKSIG", "type": "pubkeyhash"}, "value": 0.06446403, "n": 1}], "hex": "01000000019020d3adbc56872f54a6b73eab260824c59ebbe30958ed6e8af99a5df2797854010000006b4830450221008ffa5c600223304c088efa177fe71d10053c2c30326dcb8d573174ad298187760220709c302074dd3b81288f508937ce796093dd726c9d9733af031fb2ca2a1d7160012102c9c0838568957e31fb3fcd65260ac22de8867124616d122938d0de3398bd11caffffffff027d100700000000001976a914128a10afe6fb8f8cf6d70ed3eba80c4b9835220888ac435d6200000000001976a914da2133f3206c1b120e99617c7f7f7fc45a9a332088ac00000000", "vin": [{"sequence": 4294967295, "scriptSig": {"hex": "4830450221008ffa5c600223304c088efa177fe71d10053c2c30326dcb8d573174ad298187760220709c302074dd3b81288f508937ce796093dd726c9d9733af031fb2ca2a1d7160012102c9c0838568957e31fb3fcd65260ac22de8867124616d122938d0de3398bd11ca", "asm": "30450221008ffa5c600223304c088efa177fe71d10053c2c30326dcb8d573174ad298187760220709c302074dd3b81288f508937ce796093dd726c9d9733af031fb2ca2a1d7160[ALL] 02c9c0838568957e31fb3fcd65260ac22de8867124616d122938d0de3398bd11ca"}, "vout": 1, "txid": "547879f25d9af98a6eed5809e3bb9ec5240826ab3eb7a6542f8756bcadd32090"}], "txid": "6e27cfe86009ded9af89cd23601c43e78f3555d41669d164e941636be0836a38", "blocktime": 1537874412, "version": 1, "confirmations": 11467, "time": 1537874412, "locktime": 0, "vsize": 226, "size": 226}