{"hash": "6e2873045866854ddf0e18341b9292bc84edf914a8ccb666abb1c32d3d2ded47", "blockhash": "0000000000000000000dcc0f55137456b1a82d3642486a52398922ac4d620174", "vout": [{"scriptPubKey": {"reqSigs": 1, "hex": "76a914307fc00addaf13cbb88f7fc121455216d871336488ac", "addresses": ["15RSUSox4oSHw8ktopD1k692iMr4cgzpxo"], "asm": "OP_DUP OP_HASH160 307fc00addaf13cbb88f7fc121455216d8713364 OP_EQUALVERIFY OP_CHECKSIG", "type": "pubkeyhash"}, "value": 0.0015034, "n": 0}, {"scriptPubKey": {"type": "nulldata", "hex": "6a4c50000077700001f1e0f3fd498128f625bc77ac86aeaeacb577c031fc3a016b46dc7dc7d096a94c0b9d4a75be2925b3093b19e1bfd95baa08d806139b5fe1722838bc9a9526289ac0f6612cd74e33776ee4", "asm": "OP_RETURN 000077700001f1e0f3fd498128f625bc77ac86aeaeacb577c031fc3a016b46dc7dc7d096a94c0b9d4a75be2925b3093b19e1bfd95baa08d806139b5fe1722838bc9a9526289ac0f6612cd74e33776ee4"}, "value": 0.0, "n": 1}], "hex": "0100000001f957b819a3c1d263545f9dad32bddc43b3a2aaaf5448c265d054b6884f31f57d010000006a47304402204bbed91eed2ce8edc359ae9936dfc0bc5b9cd2f9b0f7da2d798fe4bfbc7325df02203c2ac082219d4de0adc57e6f8ed1ed5d6a230c4a0a52585ebea1fd955aa9d2d301210249d3f7c8550ec6bd33fcee27485a29449acee8988b1b62d4d9e0c2612115d3bbffffffff02444b0200000000001976a914307fc00addaf13cbb88f7fc121455216d871336488ac0000000000000000536a4c50000077700001f1e0f3fd498128f625bc77ac86aeaeacb577c031fc3a016b46dc7dc7d096a94c0b9d4a75be2925b3093b19e1bfd95baa08d806139b5fe1722838bc9a9526289ac0f6612cd74e33776ee400000000", "vin": [{"sequence": 4294967295, "scriptSig": {"hex": "47304402204bbed91eed2ce8edc359ae9936dfc0bc5b9cd2f9b0f7da2d798fe4bfbc7325df02203c2ac082219d4de0adc57e6f8ed1ed5d6a230c4a0a52585ebea1fd955aa9d2d301210249d3f7c8550ec6bd33fcee27485a29449acee8988b1b62d4d9e0c2612115d3bb", "asm": "304402204bbed91eed2ce8edc359ae9936dfc0bc5b9cd2f9b0f7da2d798fe4bfbc7325df02203c2ac082219d4de0adc57e6f8ed1ed5d6a230c4a0a52585ebea1fd955aa9d2d3[ALL] 0249d3f7c8550ec6bd33fcee27485a29449acee8988b1b62d4d9e0c2612115d3bb"}, "vout": 1, "txid": "7df5314f88b654d065c24854afaaa2b343dcbd32ad9d5f5463d2c1a319b857f9"}], "txid": "6e2873045866854ddf0e18341b9292bc84edf914a8ccb666abb1c32d3d2ded47", "blocktime": 1537870268, "version": 1, "confirmations": 11518, "time": 1537870268, "locktime": 0, "vsize": 283, "size": 283}