{"hash": "6e298e99142384762bcb77a59aedb625a581e43b9930bb5a16ca61f351e8d88a", "blockhash": "0000000000000000000baef3f32e3676a92c3b2e5da21b426e4f302fc371ce76", "vout": [{"scriptPubKey": {"type": "nulldata", "hex": "6a4c500000782c0001fcfeadaa728f5215ef12a2dc27b7256b4774d339f6019d6ddc0f1b8ff1172c36cb050dad65be226da76cb408f2565baa1f120614ffc1f48162dd1d100759d4ba30d2c37bb011d97e02cf", "asm": "OP_RETURN 0000782c0001fcfeadaa728f5215ef12a2dc27b7256b4774d339f6019d6ddc0f1b8ff1172c36cb050dad65be226da76cb408f2565baa1f120614ffc1f48162dd1d100759d4ba30d2c37bb011d97e02cf"}, "value": 0.0, "n": 0}, {"scriptPubKey": {"reqSigs": 1, "hex": "76a91433b6e7a6dc03c0e7e6be8c750ff80fb5f5a19f0888ac", "addresses": ["15iSaEoGHYU6nK8kt3rDP7VqbC9SmTjcss"], "asm": "OP_DUP OP_HASH160 33b6e7a6dc03c0e7e6be8c750ff80fb5f5a19f08 OP_EQUALVERIFY OP_CHECKSIG", "type": "pubkeyhash"}, "value": 0.00630482, "n": 1}], "hex": "01000000017faa986bf5b8ae4e192ad71cdb4be15f301134f766b323d98edac64cbc32a939010000006a47304402207f9acb48386d2f3123c83fb4f09fde11d3bed258ef69254b0c62f05c8fbff04702205a14514d0f93c23d9affce13e33b954c6b8676cc1e75bf28db5166ad9df79cb00121032050eac9c206c7ed8f141086325f65e359133d143e058d64bc462e4439cf7710ffffffff020000000000000000536a4c500000782c0001fcfeadaa728f5215ef12a2dc27b7256b4774d339f6019d6ddc0f1b8ff1172c36cb050dad65be226da76cb408f2565baa1f120614ffc1f48162dd1d100759d4ba30d2c37bb011d97e02cfd29e0900000000001976a91433b6e7a6dc03c0e7e6be8c750ff80fb5f5a19f0888ac00000000", "vin": [{"sequence": 4294967295, "scriptSig": {"hex": "47304402207f9acb48386d2f3123c83fb4f09fde11d3bed258ef69254b0c62f05c8fbff04702205a14514d0f93c23d9affce13e33b954c6b8676cc1e75bf28db5166ad9df79cb00121032050eac9c206c7ed8f141086325f65e359133d143e058d64bc462e4439cf7710", "asm": "304402207f9acb48386d2f3123c83fb4f09fde11d3bed258ef69254b0c62f05c8fbff04702205a14514d0f93c23d9affce13e33b954c6b8676cc1e75bf28db5166ad9df79cb0[ALL] 032050eac9c206c7ed8f141086325f65e359133d143e058d64bc462e4439cf7710"}, "vout": 1, "txid": "39a932bc4cc6da8ed923b366f73411305fe14bdb1cd72a194eaeb8f56b98aa7f"}], "txid": "6e298e99142384762bcb77a59aedb625a581e43b9930bb5a16ca61f351e8d88a", "blocktime": 1537876114, "version": 1, "confirmations": 11460, "time": 1537876114, "locktime": 0, "vsize": 283, "size": 283}