{"hash": "6e2b0a63687141a8e20a7ad3ce32db21ece69b47a1a9e92068f86c3182d282a5", "blockhash": "0000000000000000000e13cef7c366c0283d82e591d1acd082e914b08063cdf1", "vout": [{"scriptPubKey": {"reqSigs": 1, "hex": "76a914d343fdc284b80dc9d40a70b0cf20a917791ee25388ac", "addresses": ["1LG52bHGjUSkRZ7FNqS76mVqdAP2j6zUQP"], "asm": "OP_DUP OP_HASH160 d343fdc284b80dc9d40a70b0cf20a917791ee253 OP_EQUALVERIFY OP_CHECKSIG", "type": "pubkeyhash"}, "value": 0.99998878, "n": 0}, {"scriptPubKey": {"reqSigs": 1, "hex": "76a914225b3a6ec961151df3a8b3392b3013fd2f631c7088ac", "addresses": ["148fGAzsMhd3v8ndTvatuYey1X2DNF2EM4"], "asm": "OP_DUP OP_HASH160 225b3a6ec961151df3a8b3392b3013fd2f631c70 OP_EQUALVERIFY OP_CHECKSIG", "type": "pubkeyhash"}, "value": 1.0, "n": 1}], "hex": "010000000279690879e5df49b60159f45ca7c9c690a3d4edd414663328db0a7b82f4fb0a34000000006a473044022068801b777441166983452c0fb7f7e0c4ff713f925a20fea202b71935894823870220275a9e1a293069bc781e1a15112142090e9bfede3f2d323ccd50ce4cad42e64c012103d8797b56d460fa01b3cc8148475434094f5780d889f50d392f5045a2da520746ffffffff93cd474658225f8786b33dbf20afdd77040bc61454a4b8b1ae14b7dac5a702f7000000006b483045022100a4bdf1d35c4339337841fe151df44046e40b20a5be59d5bfdfca57db6939b953022038858a63ce22482b7ff3201303533f8a44609abae3399a4bc727cd96c2d8cc28012103d8797b56d460fa01b3cc8148475434094f5780d889f50d392f5045a2da520746ffffffff029edcf505000000001976a914d343fdc284b80dc9d40a70b0cf20a917791ee25388ac00e1f505000000001976a914225b3a6ec961151df3a8b3392b3013fd2f631c7088ac00000000", "vin": [{"sequence": 4294967295, "scriptSig": {"hex": "473044022068801b777441166983452c0fb7f7e0c4ff713f925a20fea202b71935894823870220275a9e1a293069bc781e1a15112142090e9bfede3f2d323ccd50ce4cad42e64c012103d8797b56d460fa01b3cc8148475434094f5780d889f50d392f5045a2da520746", "asm": "3044022068801b777441166983452c0fb7f7e0c4ff713f925a20fea202b71935894823870220275a9e1a293069bc781e1a15112142090e9bfede3f2d323ccd50ce4cad42e64c[ALL] 03d8797b56d460fa01b3cc8148475434094f5780d889f50d392f5045a2da520746"}, "vout": 0, "txid": "340afbf4827b0adb28336614d4edd4a390c6c9a75cf45901b649dfe579086979"}, {"sequence": 4294967295, "scriptSig": {"hex": "483045022100a4bdf1d35c4339337841fe151df44046e40b20a5be59d5bfdfca57db6939b953022038858a63ce22482b7ff3201303533f8a44609abae3399a4bc727cd96c2d8cc28012103d8797b56d460fa01b3cc8148475434094f5780d889f50d392f5045a2da520746", "asm": "3045022100a4bdf1d35c4339337841fe151df44046e40b20a5be59d5bfdfca57db6939b953022038858a63ce22482b7ff3201303533f8a44609abae3399a4bc727cd96c2d8cc28[ALL] 03d8797b56d460fa01b3cc8148475434094f5780d889f50d392f5045a2da520746"}, "vout": 0, "txid": "f702a7c5dab714aeb1b8a45414c60b0477ddaf20bf3db386875f22584647cd93"}], "txid": "6e2b0a63687141a8e20a7ad3ce32db21ece69b47a1a9e92068f86c3182d282a5", "blocktime": 1537871767, "version": 1, "confirmations": 11495, "time": 1537871767, "locktime": 0, "vsize": 373, "size": 373}