{"hash": "e86d34215d787ffa481f75ce739bfe3cb1283dcef9e64b6f992c32f3daacb66c", "blockhash": "00000000000000000024a2167bbff67b0be802c0b01cdd79e6331c2be6459f87", "vout": [{"scriptPubKey": {"reqSigs": 1, "hex": "a9144075a7cbc79d41987da8f8033017b1c3ca37e9f287", "addresses": ["37Zr7fXf7of2bSNCJ8Ps9hsKNKF5fre6aF"], "asm": "OP_HASH160 4075a7cbc79d41987da8f8033017b1c3ca37e9f2 OP_EQUAL", "type": "scripthash"}, "value": 0.000312, "n": 0}, {"scriptPubKey": {"reqSigs": 1, "hex": "001474209013062bebb5449e5608cf01636ad6ad7790", "addresses": ["bc1qwssfqycx904m23y72cyv7qtrdtt26aus7u63ng"], "asm": "0 74209013062bebb5449e5608cf01636ad6ad7790", "type": "witness_v0_keyhash"}, "value": 1.457e-05, "n": 1}], "hex": "01000000000101d839fb3e9d0f6737112bc6dde3ee63f2fd3ca9cd313663d28039f42849c8509d0000000000ffffffff02e07900000000000017a9144075a7cbc79d41987da8f8033017b1c3ca37e9f287b10500000000000016001474209013062bebb5449e5608cf01636ad6ad779002483045022100a6ce243f75bd33c01d44bb76e3c1de827005f826f5c4d1fe29ca60f35d36cc2202200d764fc4ad014468a53d92738f7c3cf9747f8e53523533f0b7d66cf42e6585da012102ca0bad368e332d24235a8bdf2a93a9abe29659818b72c0269c52fa0c0dd9eecd00000000", "vin": [{"txinwitness": ["3045022100a6ce243f75bd33c01d44bb76e3c1de827005f826f5c4d1fe29ca60f35d36cc2202200d764fc4ad014468a53d92738f7c3cf9747f8e53523533f0b7d66cf42e6585da01", "02ca0bad368e332d24235a8bdf2a93a9abe29659818b72c0269c52fa0c0dd9eecd"], "sequence": 4294967295, "scriptSig": {"hex": "", "asm": ""}, "vout": 0, "txid": "9d50c84928f43980d2633631cda93cfdf263eee3ddc62b1137670f9d3efb39d8"}], "txid": "6e32a0a68923e2772ad0c1d6af056fdc1a7cd01e29cc5330e7fea7fadd70725b", "blocktime": 1537870564, "version": 1, "confirmations": 11515, "time": 1537870564, "locktime": 0, "vsize": 142, "size": 224}