{"hash": "fad41c30aaf2c8192fc70516d4866ddaadc5b83290eb6b2e0c08896859500277", "blockhash": "0000000000000000000baef3f32e3676a92c3b2e5da21b426e4f302fc371ce76", "vout": [{"scriptPubKey": {"reqSigs": 1, "hex": "a914c091346e5e826aa2eac1877126f6cd3b128f5ec187", "addresses": ["3KFDcP7z1nxm1E4oQeG9WHdEdzpFDfc5Xo"], "asm": "OP_HASH160 c091346e5e826aa2eac1877126f6cd3b128f5ec1 OP_EQUAL", "type": "scripthash"}, "value": 0.38438239, "n": 0}, {"scriptPubKey": {"reqSigs": 1, "hex": "76a914f73b4126d8e7cf63c11ad188163f3609a9629d6388ac", "addresses": ["1PYEtTVxCiuKY13BE1RppJtJkJnuKrfC4a"], "asm": "OP_DUP OP_HASH160 f73b4126d8e7cf63c11ad188163f3609a9629d63 OP_EQUALVERIFY OP_CHECKSIG", "type": "pubkeyhash"}, "value": 68.0, "n": 1}], "hex": "0100000000010125fa6121e72fee8ac8cf9aefc4b837e3ff6df11bbafd2be86b11f6eb0c5e0b2401000000171600140e6a58c13518c6bdfdc8a265a9dea02a71f75045ffffffff025f854a020000000017a914c091346e5e826aa2eac1877126f6cd3b128f5ec18700c44f95010000001976a914f73b4126d8e7cf63c11ad188163f3609a9629d6388ac02473044022067888704aad33ebe3aadbd937516988b4a9b93a43c213cebeae82a8d5da2906902206c7fa770c3156e33f8a5b869a78954e656d9af28ecf40e4fbd3d01eeab1e9ef6012103ea1a937cb9cb40b86820d5b571aed8801793e564bb2c61531e4fa9fc915561ad00000000", "vin": [{"txinwitness": ["3044022067888704aad33ebe3aadbd937516988b4a9b93a43c213cebeae82a8d5da2906902206c7fa770c3156e33f8a5b869a78954e656d9af28ecf40e4fbd3d01eeab1e9ef601", "03ea1a937cb9cb40b86820d5b571aed8801793e564bb2c61531e4fa9fc915561ad"], "sequence": 4294967295, "scriptSig": {"hex": "1600140e6a58c13518c6bdfdc8a265a9dea02a71f75045", "asm": "00140e6a58c13518c6bdfdc8a265a9dea02a71f75045"}, "vout": 1, "txid": "240b5e0cebf6116be82bfdba1bf16dffe337b8c4ef9acfc88aee2fe72161fa25"}], "txid": "6e333bbca3c2f02eaf4eebeb9a40e7a9658021575e79df34c5884eaf7297e58d", "blocktime": 1537876114, "version": 1, "confirmations": 11460, "time": 1537876114, "locktime": 0, "vsize": 168, "size": 249}