{"hash": "0d5a1c97dffeac9c3697b6b401019688b1cccdf3bf964db4f9349ecbb65693c7", "blockhash": "0000000000000000000e13cef7c366c0283d82e591d1acd082e914b08063cdf1", "vout": [{"scriptPubKey": {"reqSigs": 1, "hex": "00142d4c60ec28a883e51c56454822338a377945dff2", "addresses": ["bc1q94xxpmpg4zp728zkg4yzyvu2xau5thljy7wey3"], "asm": "0 2d4c60ec28a883e51c56454822338a377945dff2", "type": "witness_v0_keyhash"}, "value": 0.02218338, "n": 0}, {"scriptPubKey": {"reqSigs": 1, "hex": "a9141bc834fd0ff9ff14d7ecf6a093c289714838713a87", "addresses": ["34Dv1MAUi1pzyx1CGnXTkoWq8g9UVNznQL"], "asm": "OP_HASH160 1bc834fd0ff9ff14d7ecf6a093c289714838713a OP_EQUAL", "type": "scripthash"}, "value": 0.01084208, "n": 1}], "hex": "01000000000101a0e927e28104011581cfd8c45f018046cf347aaf037289b7ba247b99b4884ca70000000000ffffffff0262d92100000000001600142d4c60ec28a883e51c56454822338a377945dff2308b10000000000017a9141bc834fd0ff9ff14d7ecf6a093c289714838713a8702483045022100dcd954ef3fd9f8e541f303cf24d124b477f0729eed5ec12abea83dda0dd246f4022014d0e2e674e20c236fb99a0ec08938e033c8aed5d322320c3fa63342d6dd1e1c01210238dbe397bb5ac4f1f5dd7da0b6e9246ed415bdf0c811cd9f720cc6dd6b44f9b200000000", "vin": [{"txinwitness": ["3045022100dcd954ef3fd9f8e541f303cf24d124b477f0729eed5ec12abea83dda0dd246f4022014d0e2e674e20c236fb99a0ec08938e033c8aed5d322320c3fa63342d6dd1e1c01", "0238dbe397bb5ac4f1f5dd7da0b6e9246ed415bdf0c811cd9f720cc6dd6b44f9b2"], "sequence": 4294967295, "scriptSig": {"hex": "", "asm": ""}, "vout": 0, "txid": "a74c88b4997b24bab7897203af7a34cf4680015fc4d8cf8115010481e227e9a0"}], "txid": "6e3692381d8a84810dac0c6327a3c703705cb0a4c6aa70547337062ffa806a57", "blocktime": 1537871767, "version": 1, "confirmations": 11495, "time": 1537871767, "locktime": 0, "vsize": 142, "size": 224}