{"hash": "6e3a6c8f05867a5498e5234aaa2bd14ce41146992bfdf5a3b91421bb5a07bc6e", "blockhash": "0000000000000000001f76057863aec43deb6fa401d9628bb513d65a8098bfab", "vout": [{"scriptPubKey": {"reqSigs": 1, "hex": "76a91427d51d1aecba602dea991d6cff202e50703ee88188ac", "addresses": ["14dcet4Lqh3XUBWSU5GhVQREgfmMG9mAA5"], "asm": "OP_DUP OP_HASH160 27d51d1aecba602dea991d6cff202e50703ee881 OP_EQUALVERIFY OP_CHECKSIG", "type": "pubkeyhash"}, "value": 0.14613924, "n": 0}, {"scriptPubKey": {"type": "nulldata", "hex": "6a146f6d6e69000000000000001f000000067a1bc41c", "asm": "OP_RETURN 6f6d6e69000000000000001f000000067a1bc41c"}, "value": 0.0, "n": 1}, {"scriptPubKey": {"reqSigs": 1, "hex": "76a914632eb94b7b4a28ffd9333d936ff6b4d011a44e4288ac", "addresses": ["1A3RsRGBSqw1mppuV5cjnrBVEHbXLQWajF"], "asm": "OP_DUP OP_HASH160 632eb94b7b4a28ffd9333d936ff6b4d011a44e42 OP_EQUALVERIFY OP_CHECKSIG", "type": "pubkeyhash"}, "value": 5.46e-06, "n": 2}], "hex": "01000000024a3bf054649a1bb11d1b75a8fc3e4a061de3244742a9ca5f57436a1b64a162d0020000006a47304402205994c248ad3703b3bd5dbb13d452dd228778c07670894c84c189bc8974d0d9d402202009deed081914fb344990a6d7d5423a50ca59e7c4e4bacc5fef0ff0b91bc0dc012103cf77b72e149fc7bd3a7e1d9afc1344f047f2d4174f26e51e656461d4650fdb80ffffffffcaaadc7522813cd5796344f4f17c98a5dcbf86fad9e4357415c9732477d8c6e6000000006a473044022015c59f19a2ed1b46a8a5da5164c2be1f049d2a8d250d70a371b76d427d78b750022020ea171de77c4a242926eda1497a4c12347006c96eaee3a93d97f06789dc3dee0121039d6badaa44b1756460faa2d4bf0daa40e46c5206ec9ef5963decb350076e7f6affffffff03a4fdde00000000001976a91427d51d1aecba602dea991d6cff202e50703ee88188ac0000000000000000166a146f6d6e69000000000000001f000000067a1bc41c22020000000000001976a914632eb94b7b4a28ffd9333d936ff6b4d011a44e4288ac00000000", "vin": [{"sequence": 4294967295, "scriptSig": {"hex": "47304402205994c248ad3703b3bd5dbb13d452dd228778c07670894c84c189bc8974d0d9d402202009deed081914fb344990a6d7d5423a50ca59e7c4e4bacc5fef0ff0b91bc0dc012103cf77b72e149fc7bd3a7e1d9afc1344f047f2d4174f26e51e656461d4650fdb80", "asm": "304402205994c248ad3703b3bd5dbb13d452dd228778c07670894c84c189bc8974d0d9d402202009deed081914fb344990a6d7d5423a50ca59e7c4e4bacc5fef0ff0b91bc0dc[ALL] 03cf77b72e149fc7bd3a7e1d9afc1344f047f2d4174f26e51e656461d4650fdb80"}, "vout": 2, "txid": "d062a1641b6a43575fcaa9424724e31d064a3efca8751b1db11b9a6454f03b4a"}, {"sequence": 4294967295, "scriptSig": {"hex": "473044022015c59f19a2ed1b46a8a5da5164c2be1f049d2a8d250d70a371b76d427d78b750022020ea171de77c4a242926eda1497a4c12347006c96eaee3a93d97f06789dc3dee0121039d6badaa44b1756460faa2d4bf0daa40e46c5206ec9ef5963decb350076e7f6a", "asm": "3044022015c59f19a2ed1b46a8a5da5164c2be1f049d2a8d250d70a371b76d427d78b750022020ea171de77c4a242926eda1497a4c12347006c96eaee3a93d97f06789dc3dee[ALL] 039d6badaa44b1756460faa2d4bf0daa40e46c5206ec9ef5963decb350076e7f6a"}, "vout": 0, "txid": "e6c6d8772473c9157435e4d9fa86bfdca5987cf1f4446379d53c812275dcaaca"}], "txid": "6e3a6c8f05867a5498e5234aaa2bd14ce41146992bfdf5a3b91421bb5a07bc6e", "blocktime": 1537873891, "version": 1, "confirmations": 11474, "time": 1537873891, "locktime": 0, "vsize": 403, "size": 403}