{"hash": "27a484aff6f8de5f6570006b71ba273afacb1662f520b8bdc4cbccaa52ab4b2c", "blockhash": "00000000000000000024a2167bbff67b0be802c0b01cdd79e6331c2be6459f87", "vout": [{"scriptPubKey": {"reqSigs": 1, "hex": "a9147862e483c4254cb3084637e5ba168f5e37e161bc87", "addresses": ["3CfZUk7h5yzcMhRhxUA9cXDbWuGsoy9Gsq"], "asm": "OP_HASH160 7862e483c4254cb3084637e5ba168f5e37e161bc OP_EQUAL", "type": "scripthash"}, "value": 0.00301117, "n": 0}, {"scriptPubKey": {"reqSigs": 1, "hex": "a9144dec1c0896efefa0ddf89a511306cc7c8b74184887", "addresses": ["38o2oVREfeb5SttmSDsKEmK9UhyujeszVb"], "asm": "OP_HASH160 4dec1c0896efefa0ddf89a511306cc7c8b741848 OP_EQUAL", "type": "scripthash"}, "value": 0.01390278, "n": 1}], "hex": "02000000000101d2e3643246d9400128a481c231b8e30924300410dae8d03701376dab110926ad0000000017160014b5c6f0a5823c6a6617d4c23f47336dc5409d806ffeffffff023d9804000000000017a9147862e483c4254cb3084637e5ba168f5e37e161bc87c63615000000000017a9144dec1c0896efefa0ddf89a511306cc7c8b7418488702483045022100cce1840c5c6b30bc2c51272e038edb7ad237ba098726216c48fa98a4f2d694f1022037264a943191f313b9a87074f80e902f0a3ed02354bd694d6dcc53982c362d12012102af30e5b68766826e019996ac2e5578326975f5fa6a09a844b8d0af3abd3abd9f0d490800", "vin": [{"txinwitness": ["3045022100cce1840c5c6b30bc2c51272e038edb7ad237ba098726216c48fa98a4f2d694f1022037264a943191f313b9a87074f80e902f0a3ed02354bd694d6dcc53982c362d1201", "02af30e5b68766826e019996ac2e5578326975f5fa6a09a844b8d0af3abd3abd9f"], "sequence": 4294967294, "scriptSig": {"hex": "160014b5c6f0a5823c6a6617d4c23f47336dc5409d806f", "asm": "0014b5c6f0a5823c6a6617d4c23f47336dc5409d806f"}, "vout": 0, "txid": "ad260911ab6d370137d0e8da1004302409e3b831c281a4280140d9463264e3d2"}], "txid": "6e3e05deb999649b40aa1d9829129b151263e0082291e0fd5a61a2a6e1e9e047", "blocktime": 1537870564, "version": 2, "confirmations": 11515, "time": 1537870564, "locktime": 542989, "vsize": 166, "size": 248}