{"hash": "6e4178d88e46bf038decfdee96eca2e95af996951e4b00e0029a4c23380a7d60", "blockhash": "0000000000000000001f76057863aec43deb6fa401d9628bb513d65a8098bfab", "vout": [{"scriptPubKey": {"reqSigs": 1, "hex": "a91430897cc6c9d69f6a2c2f1c651d51f22219f1a4f687", "addresses": ["367f4YWz1VCFaqBqwbTrzwi2b1h2U3w1AF"], "asm": "OP_HASH160 30897cc6c9d69f6a2c2f1c651d51f22219f1a4f6 OP_EQUAL", "type": "scripthash"}, "value": 0.01714872, "n": 0}, {"scriptPubKey": {"reqSigs": 1, "hex": "76a9142ed2f359d021befb385ac379a3b117df5475b23d88ac", "addresses": ["15Ganvq6xZS3TZ4iA36xUzHTWQ16dnT756"], "asm": "OP_DUP OP_HASH160 2ed2f359d021befb385ac379a3b117df5475b23d OP_EQUALVERIFY OP_CHECKSIG", "type": "pubkeyhash"}, "value": 0.0708412, "n": 1}], "hex": "0100000001b83d40e030ce1ae19b063630b9a7803ce1ba3da22c827affb7650e7dbbe58e96000000006a473044022023b77c359fbe6296a62d7eac7238a16e4149bb2f1d1f63ff0aa4f0344f0e2e5902201d2a74b76461a183adf262c9aa515ac6ecbbf2e4de1611af1d38064de5eeee34012102bd9716e08160b44c4fe81141197596a7fe473e3f959007bd067855a4ad2be283ffffffff02b82a1a000000000017a91430897cc6c9d69f6a2c2f1c651d51f22219f1a4f68758186c00000000001976a9142ed2f359d021befb385ac379a3b117df5475b23d88ac00000000", "vin": [{"sequence": 4294967295, "scriptSig": {"hex": "473044022023b77c359fbe6296a62d7eac7238a16e4149bb2f1d1f63ff0aa4f0344f0e2e5902201d2a74b76461a183adf262c9aa515ac6ecbbf2e4de1611af1d38064de5eeee34012102bd9716e08160b44c4fe81141197596a7fe473e3f959007bd067855a4ad2be283", "asm": "3044022023b77c359fbe6296a62d7eac7238a16e4149bb2f1d1f63ff0aa4f0344f0e2e5902201d2a74b76461a183adf262c9aa515ac6ecbbf2e4de1611af1d38064de5eeee34[ALL] 02bd9716e08160b44c4fe81141197596a7fe473e3f959007bd067855a4ad2be283"}, "vout": 0, "txid": "968ee5bb7d0e65b7ff7a822ca23dbae13c80a7b93036069be11ace30e0403db8"}], "txid": "6e4178d88e46bf038decfdee96eca2e95af996951e4b00e0029a4c23380a7d60", "blocktime": 1537873891, "version": 1, "confirmations": 11478, "time": 1537873891, "locktime": 0, "vsize": 223, "size": 223}