{"hash": "216076af7fdf2e7b589d2e08f8ca0956bd02ca6c54542c0b122cb1eacb993ea3", "blockhash": "0000000000000000001f0ddff1eddb255c1121bcd4da4f1bc9a0da00cae72433", "vout": [{"scriptPubKey": {"reqSigs": 1, "hex": "76a914da80f59b248d1ab7f6235050f5d187f43c64623288ac", "addresses": ["1LvLo5MiyTgE1Li5KGYVfRvCmiJvbjPxsx"], "asm": "OP_DUP OP_HASH160 da80f59b248d1ab7f6235050f5d187f43c646232 OP_EQUALVERIFY OP_CHECKSIG", "type": "pubkeyhash"}, "value": 0.05844, "n": 0}, {"scriptPubKey": {"reqSigs": 1, "hex": "a9145190839c6c4aba52a6578782c25e0cfcfd32bb6a87", "addresses": ["398Hn6eGw6pBd9Z3Mu7AyRMixCzz9bH75q"], "asm": "OP_HASH160 5190839c6c4aba52a6578782c25e0cfcfd32bb6a OP_EQUAL", "type": "scripthash"}, "value": 0.33948861, "n": 1}], "hex": "020000000001018526dbc754ced398681a6776c892262dacd82294102fa293c4ba79a1fd30d927020000001716001419c983f12ab30b45c3ee10aa67657a67ab13f2ebfeffffff02202c5900000000001976a914da80f59b248d1ab7f6235050f5d187f43c64623288acbd0406020000000017a9145190839c6c4aba52a6578782c25e0cfcfd32bb6a87024730440220161a43704be5b9ec34ec8e58d7cdee881f1d3bfe5f2efef8be54a44b55b297ea0220020fa5482ce577663717ee1626f3203b15a942434521c7361623785acbd12bfa0121036b6164a306e37a13a45cd6d3315faee1fcf869207f3514216d61e1b0af9dfc780f490800", "vin": [{"txinwitness": ["30440220161a43704be5b9ec34ec8e58d7cdee881f1d3bfe5f2efef8be54a44b55b297ea0220020fa5482ce577663717ee1626f3203b15a942434521c7361623785acbd12bfa01", "036b6164a306e37a13a45cd6d3315faee1fcf869207f3514216d61e1b0af9dfc78"], "sequence": 4294967294, "scriptSig": {"hex": "16001419c983f12ab30b45c3ee10aa67657a67ab13f2eb", "asm": "001419c983f12ab30b45c3ee10aa67657a67ab13f2eb"}, "vout": 2, "txid": "27d930fda179bac493a22f109422d8ac2d2692c876671a6898d3ce54c7db2685"}], "txid": "6e462596a0fc70d8a264bd9af8f256a7ad8a37d1eedb17f6c3e22fbfbaf53391", "blocktime": 1537872018, "version": 2, "confirmations": 11489, "time": 1537872018, "locktime": 542991, "vsize": 168, "size": 249}