{"hash": "6e4753cd80f1aa7d35901011f73e0ef241f9ebfbb1126d4ac2b9ebbe76c4f972", "blockhash": "0000000000000000000e13cef7c366c0283d82e591d1acd082e914b08063cdf1", "vout": [{"scriptPubKey": {"reqSigs": 1, "hex": "76a914a879e0efaeaf37c96d91c069d6c159c86d0f84f688ac", "addresses": ["1GMpXWJ5PL3HVwTM1MLAFm9A29Hdhpo9KX"], "asm": "OP_DUP OP_HASH160 a879e0efaeaf37c96d91c069d6c159c86d0f84f6 OP_EQUALVERIFY OP_CHECKSIG", "type": "pubkeyhash"}, "value": 0.02602817, "n": 0}], "hex": "0100000001e29c2a211735290439df4b5da1a9c9cfbcc81a196ec2568b7140a53af7c04c2a080000006b483045022100da283552e06db1363f01e415ab1c20a45acce15d76e1aeffc978b7ff6791dc2e0220410b712cef127e40ae3f52ee13247ef5806e07c6efd4a6040aff708625bb5a620121037af937863b3d87601733ebe599bd6e4d7f5c3fd1cddc6b80f25547e17bf2ddebffffffff0141b72700000000001976a914a879e0efaeaf37c96d91c069d6c159c86d0f84f688ac00000000", "vin": [{"sequence": 4294967295, "scriptSig": {"hex": "483045022100da283552e06db1363f01e415ab1c20a45acce15d76e1aeffc978b7ff6791dc2e0220410b712cef127e40ae3f52ee13247ef5806e07c6efd4a6040aff708625bb5a620121037af937863b3d87601733ebe599bd6e4d7f5c3fd1cddc6b80f25547e17bf2ddeb", "asm": "3045022100da283552e06db1363f01e415ab1c20a45acce15d76e1aeffc978b7ff6791dc2e0220410b712cef127e40ae3f52ee13247ef5806e07c6efd4a6040aff708625bb5a62[ALL] 037af937863b3d87601733ebe599bd6e4d7f5c3fd1cddc6b80f25547e17bf2ddeb"}, "vout": 8, "txid": "2a4cc0f73aa540718b56c26e191ac8bccfc9a9a15d4bdf3904293517212a9ce2"}], "txid": "6e4753cd80f1aa7d35901011f73e0ef241f9ebfbb1126d4ac2b9ebbe76c4f972", "blocktime": 1537871767, "version": 1, "confirmations": 11495, "time": 1537871767, "locktime": 0, "vsize": 192, "size": 192}