{"hash": "da4ebbb1186622ec1a29b64359b1c9f4ce2c3bc28377fdad9f3efe6243f5e823", "blockhash": "00000000000000000018f53835495a110e01622372bf6ae95dc86f2b0ab887b0", "vout": [{"scriptPubKey": {"reqSigs": 1, "hex": "001423bab4659bc8c071c8b50c265327aa121ba72b08", "addresses": ["bc1qywatgevmerq8rj94psn9xfa2zgd6w2cgcu7nhs"], "asm": "0 23bab4659bc8c071c8b50c265327aa121ba72b08", "type": "witness_v0_keyhash"}, "value": 1.133e-05, "n": 0}, {"scriptPubKey": {"reqSigs": 1, "hex": "a914f0aed6cca9cd2288118ec7f724e0476d61ec07b187", "addresses": ["3PddYcZYz8aohJW7icfEqq9ZgeBEz33mpT"], "asm": "OP_HASH160 f0aed6cca9cd2288118ec7f724e0476d61ec07b1 OP_EQUAL", "type": "scripthash"}, "value": 0.00073807, "n": 1}], "hex": "010000000001019ce9bd0187b0c083719ae3dee8c31d73b832ac7c330ec46d6a79a56cf43920170100000000ffffffff026d0400000000000016001423bab4659bc8c071c8b50c265327aa121ba72b084f2001000000000017a914f0aed6cca9cd2288118ec7f724e0476d61ec07b18702483045022100f6c9e71e86d6135cd102f3d1d2c1d2aab074f9cdc1ceed116e547dc3b11c86f3022029c8d008accccd1b7325e428ebfb144992660f382d117bad40dbefa299bdeeb3012103db25fd69d8e90f96155d980cb531464abd38827e53efc622525ec2fa92842bdb00000000", "vin": [{"txinwitness": ["3045022100f6c9e71e86d6135cd102f3d1d2c1d2aab074f9cdc1ceed116e547dc3b11c86f3022029c8d008accccd1b7325e428ebfb144992660f382d117bad40dbefa299bdeeb301", "03db25fd69d8e90f96155d980cb531464abd38827e53efc622525ec2fa92842bdb"], "sequence": 4294967295, "scriptSig": {"hex": "", "asm": ""}, "vout": 1, "txid": "172039f46ca5796a6dc40e337cac32b8731dc3e8dee39a7183c0b08701bde99c"}], "txid": "6e4f2d780a4e3f4cd2445a929290234e77d9b1e87299c51c464d3bd629509d0d", "blocktime": 1537870928, "version": 1, "confirmations": 11512, "time": 1537870928, "locktime": 0, "vsize": 142, "size": 224}