{"hash": "6e53acc6f6de7cd74c36064a45ed65512899cec2cc158b2412c1e3a562c72884", "blockhash": "00000000000000000017f5eb5941039fbcee6240d03bc1f2f8e35350df66a1d8", "vout": [{"scriptPubKey": {"reqSigs": 1, "hex": "76a9142f7d1677134cad27c39cd94bb392e01faa311b8f88ac", "addresses": ["15L6cGQQAFqx5U7hFVQUyVsYFSYf2rZ9Xc"], "asm": "OP_DUP OP_HASH160 2f7d1677134cad27c39cd94bb392e01faa311b8f OP_EQUALVERIFY OP_CHECKSIG", "type": "pubkeyhash"}, "value": 0.00790263, "n": 0}, {"scriptPubKey": {"reqSigs": 1, "hex": "76a914682b550a6a5a8a9d89888ce88bcfe6198a57908688ac", "addresses": ["1AVoBiybNMq7BHuv9YaUnmC1AMe7QyccTi"], "asm": "OP_DUP OP_HASH160 682b550a6a5a8a9d89888ce88bcfe6198a579086 OP_EQUALVERIFY OP_CHECKSIG", "type": "pubkeyhash"}, "value": 0.02174991, "n": 1}], "hex": "01000000014236b3c7572da0c4eae0883078e647ecd20b6b403e525d6d62f209e859b18f12010000006b483045022100b0b083ef6bd6b76e9f4017a0bfd12ac3ba61a484aac05533237ac854218db19e02206c37498ff3d430a6cfb1b7a6faf051f28dfc603e134818265f504ae996e4b506012103b824a0f819b6f87ee3654fac9391ca59a27d2688e4f27e48d0ea3cbba018806dfeffffff02f70e0c00000000001976a9142f7d1677134cad27c39cd94bb392e01faa311b8f88ac0f302100000000001976a914682b550a6a5a8a9d89888ce88bcfe6198a57908688ac15490800", "vin": [{"sequence": 4294967294, "scriptSig": {"hex": "483045022100b0b083ef6bd6b76e9f4017a0bfd12ac3ba61a484aac05533237ac854218db19e02206c37498ff3d430a6cfb1b7a6faf051f28dfc603e134818265f504ae996e4b506012103b824a0f819b6f87ee3654fac9391ca59a27d2688e4f27e48d0ea3cbba018806d", "asm": "3045022100b0b083ef6bd6b76e9f4017a0bfd12ac3ba61a484aac05533237ac854218db19e02206c37498ff3d430a6cfb1b7a6faf051f28dfc603e134818265f504ae996e4b506[ALL] 03b824a0f819b6f87ee3654fac9391ca59a27d2688e4f27e48d0ea3cbba018806d"}, "vout": 1, "txid": "128fb159e809f2626d5d523e406b0bd2ec47e6783088e0eac4a02d57c7b33642"}], "txid": "6e53acc6f6de7cd74c36064a45ed65512899cec2cc158b2412c1e3a562c72884", "blocktime": 1537874412, "version": 1, "confirmations": 11468, "time": 1537874412, "locktime": 542997, "vsize": 226, "size": 226}