{"hash": "6e562f49557273aa66beb4ace5a6970c3bac16e4c65f13b08040f44085d7ee7c", "blockhash": "0000000000000000001e0dab787dd257d1dbfcb92a98c2207d5e1078be1f4165", "vout": [{"scriptPubKey": {"type": "nulldata", "hex": "6a4c50000077ae0001adaf350a813e09068a8e8f00af6c953dd567cf27e7e3ef3236678a6250975d38637e5e7ea8a59895ad68641c2c5b5baa10f20611f279415e8296bc9a9526289ac0f6612cd74e33776ee4", "asm": "OP_RETURN 000077ae0001adaf350a813e09068a8e8f00af6c953dd567cf27e7e3ef3236678a6250975d38637e5e7ea8a59895ad68641c2c5b5baa10f20611f279415e8296bc9a9526289ac0f6612cd74e33776ee4"}, "value": 0.0, "n": 0}, {"scriptPubKey": {"reqSigs": 1, "hex": "76a914a0f0084397f405c3c62a7c6a1ebe0f13c759618c88ac", "addresses": ["1FfxfRqKwCBdrcXYuTtGZp4CZhe1CsUBr5"], "asm": "OP_DUP OP_HASH160 a0f0084397f405c3c62a7c6a1ebe0f13c759618c OP_EQUALVERIFY OP_CHECKSIG", "type": "pubkeyhash"}, "value": 0.014772, "n": 1}], "hex": "0100000001e686453e3f5ebb36d9c27b338d19d7fc0a2921c16ac8ab3f193da91b081dc665000000006b483045022100eb30137129fa5774107ae9108dbbda309bf38da0e0be4446d32002e02e0d495302207b6551ea6c07fea88a71002bc3dbd648be946c516f052864b3c510cd47be9ee4012103297c88f54dcfdff76aed77c2916a78a689802aa690878e7c78000529a11200dfffffffff020000000000000000536a4c50000077ae0001adaf350a813e09068a8e8f00af6c953dd567cf27e7e3ef3236678a6250975d38637e5e7ea8a59895ad68641c2c5b5baa10f20611f279415e8296bc9a9526289ac0f6612cd74e33776ee4508a1600000000001976a914a0f0084397f405c3c62a7c6a1ebe0f13c759618c88ac00000000", "vin": [{"sequence": 4294967295, "scriptSig": {"hex": "483045022100eb30137129fa5774107ae9108dbbda309bf38da0e0be4446d32002e02e0d495302207b6551ea6c07fea88a71002bc3dbd648be946c516f052864b3c510cd47be9ee4012103297c88f54dcfdff76aed77c2916a78a689802aa690878e7c78000529a11200df", "asm": "3045022100eb30137129fa5774107ae9108dbbda309bf38da0e0be4446d32002e02e0d495302207b6551ea6c07fea88a71002bc3dbd648be946c516f052864b3c510cd47be9ee4[ALL] 03297c88f54dcfdff76aed77c2916a78a689802aa690878e7c78000529a11200df"}, "vout": 0, "txid": "65c61d081ba93d193fabc86ac121290afcd7198d337bc2d936bb5e3f3e4586e6"}], "txid": "6e562f49557273aa66beb4ace5a6970c3bac16e4c65f13b08040f44085d7ee7c", "blocktime": 1537872475, "version": 1, "confirmations": 11486, "time": 1537872475, "locktime": 0, "vsize": 284, "size": 284}