{"hash": "6e58fb7ea60b00ffe61c84a3803553bed4cd249fa110f340335f66ee6f7b0722", "blockhash": "0000000000000000001cda96e906b7601b7a6fb1a3b62bca570a9e5d8f4b3de1", "vout": [{"scriptPubKey": {"reqSigs": 1, "hex": "76a91446effe34e8c497cbd4a41a25f8a725b95133e94b88ac", "addresses": ["17U5oSA7QoBGF4Aa9YsqgebsCHmEQgPexT"], "asm": "OP_DUP OP_HASH160 46effe34e8c497cbd4a41a25f8a725b95133e94b OP_EQUALVERIFY OP_CHECKSIG", "type": "pubkeyhash"}, "value": 0.00350046, "n": 0}, {"scriptPubKey": {"reqSigs": 1, "hex": "a914b757a1add84bbae6c31290bcb424d3118f67f14987", "addresses": ["3JQSZPvzVxvkz9whnoEA7WAF6rVwhTkBHS"], "asm": "OP_HASH160 b757a1add84bbae6c31290bcb424d3118f67f149 OP_EQUAL", "type": "scripthash"}, "value": 0.59, "n": 1}], "hex": "0100000001a4ff2e490e06680048b998a045f394b50776a35364ebe2e4c2b4c151e87549301d0000006a4730440220263640b6ab414c6de5c739ade8ffefe2786d65da8353a5f650c7af80aa07eb7b0220786f3f46f42ce0891a7ca6e3d8a96d75abf745432c150bad96132f38bb1a1380012102ff6ebd6ed5465a723c9f7530140549c504ef6cc3492598b1af45d7c0449654eeffffffff025e570500000000001976a91446effe34e8c497cbd4a41a25f8a725b95133e94b88acc04484030000000017a914b757a1add84bbae6c31290bcb424d3118f67f1498700000000", "vin": [{"sequence": 4294967295, "scriptSig": {"hex": "4730440220263640b6ab414c6de5c739ade8ffefe2786d65da8353a5f650c7af80aa07eb7b0220786f3f46f42ce0891a7ca6e3d8a96d75abf745432c150bad96132f38bb1a1380012102ff6ebd6ed5465a723c9f7530140549c504ef6cc3492598b1af45d7c0449654ee", "asm": "30440220263640b6ab414c6de5c739ade8ffefe2786d65da8353a5f650c7af80aa07eb7b0220786f3f46f42ce0891a7ca6e3d8a96d75abf745432c150bad96132f38bb1a1380[ALL] 02ff6ebd6ed5465a723c9f7530140549c504ef6cc3492598b1af45d7c0449654ee"}, "vout": 29, "txid": "304975e851c1b4c2e4e2eb6453a37607b594f345a098b9480068060e492effa4"}], "txid": "6e58fb7ea60b00ffe61c84a3803553bed4cd249fa110f340335f66ee6f7b0722", "blocktime": 1537873282, "version": 1, "confirmations": 11485, "time": 1537873282, "locktime": 0, "vsize": 223, "size": 223}