{"hash": "cd75cdeeae0afebfcb0b880ab823351b980686f542f39c1b061a902346ce442c", "blockhash": "0000000000000000001e0dab787dd257d1dbfcb92a98c2207d5e1078be1f4165", "vout": [{"scriptPubKey": {"reqSigs": 1, "hex": "76a914826c351d9c46b248de9bef7d1f047ab467d9760288ac", "addresses": ["1CtcUKtbwUvBE43kkrrR1bp1dUBVzwLYBy"], "asm": "OP_DUP OP_HASH160 826c351d9c46b248de9bef7d1f047ab467d97602 OP_EQUALVERIFY OP_CHECKSIG", "type": "pubkeyhash"}, "value": 0.70299, "n": 0}, {"scriptPubKey": {"reqSigs": 1, "hex": "a914a9d739e10a12ad9b6d2dc7a401e71c55d87edfbc87", "addresses": ["3HB3x8j2C3r4Dr94XeXgmAc4gBSVhUeyMj"], "asm": "OP_HASH160 a9d739e10a12ad9b6d2dc7a401e71c55d87edfbc OP_EQUAL", "type": "scripthash"}, "value": 3.386, "n": 1}, {"scriptPubKey": {"reqSigs": 1, "hex": "a9144e1ed769da03f3f7af5d3143137863bf8c911b5187", "addresses": ["38p5aQez5KmSbBn288zXpdhjURSfEyaRtz"], "asm": "OP_HASH160 4e1ed769da03f3f7af5d3143137863bf8c911b51 OP_EQUAL", "type": "scripthash"}, "value": 0.00161, "n": 2}, {"scriptPubKey": {"reqSigs": 1, "hex": "a914c7e96d82b716f77e3b0823c3c259502955fd84e187", "addresses": ["3Kv42ZgEyLs5vNVp3fRTh3QWHa7UXxUNMf"], "asm": "OP_HASH160 c7e96d82b716f77e3b0823c3c259502955fd84e1 OP_EQUAL", "type": "scripthash"}, "value": 0.065, "n": 3}, {"scriptPubKey": {"reqSigs": 1, "hex": "0020701a8d401c84fb13e6baf169d59684e17abd9fa216c8cc5b9fc63d622ff8c58d", "addresses": ["bc1qwqdg6squsna38e46795at95yu9atm8azzmyvckulcc7kytlcckxswvvzej"], "asm": "0 701a8d401c84fb13e6baf169d59684e17abd9fa216c8cc5b9fc63d622ff8c58d", "type": "witness_v0_scripthash"}, "value": 3.0049, "n": 4}], "hex": "01000000000101f87a44dcf2a4b8435630de89aa08e379824f32108f6f5da51286bd5ba0858ef40400000000ffffffff0578ad3004000000001976a914826c351d9c46b248de9bef7d1f047ab467d9760288ac40a02e140000000017a914a9d739e10a12ad9b6d2dc7a401e71c55d87edfbc87e87402000000000017a9144e1ed769da03f3f7af5d3143137863bf8c911b5187a02e63000000000017a914c7e96d82b716f77e3b0823c3c259502955fd84e187101de91100000000220020701a8d401c84fb13e6baf169d59684e17abd9fa216c8cc5b9fc63d622ff8c58d0400483045022100dff6e57c33d5088dd7f1b482433848b9622145be80edeb2744aabdaa4d1c1dda02202a968b5670a2c986299bf46789940fc3e666d947b8b51b44687cf52a01364b9201483045022100a82f908790c786dacc9f786463faa63ef447429c5cc7bec9725a045c67384df402200eb908535856c8f4903bfaf38e3f8512e4d004cbc0ed9a82158bf90614b5dd84016952210375e00eb72e29da82b89367947f29ef34afb75e8654f6ea368e0acdfd92976b7c2103a1b26313f430c4b15bb1fdce663207659d8cac749a0e53d70eff01874496feff2103c96d495bfdd5ba4145e3e046fee45e84a8a48ad05bd8dbb395c011a32cf9f88053ae00000000", "vin": [{"txinwitness": ["", "3045022100dff6e57c33d5088dd7f1b482433848b9622145be80edeb2744aabdaa4d1c1dda02202a968b5670a2c986299bf46789940fc3e666d947b8b51b44687cf52a01364b9201", "3045022100a82f908790c786dacc9f786463faa63ef447429c5cc7bec9725a045c67384df402200eb908535856c8f4903bfaf38e3f8512e4d004cbc0ed9a82158bf90614b5dd8401", "52210375e00eb72e29da82b89367947f29ef34afb75e8654f6ea368e0acdfd92976b7c2103a1b26313f430c4b15bb1fdce663207659d8cac749a0e53d70eff01874496feff2103c96d495bfdd5ba4145e3e046fee45e84a8a48ad05bd8dbb395c011a32cf9f88053ae"], "sequence": 4294967295, "scriptSig": {"hex": "", "asm": ""}, "vout": 4, "txid": "f48e85a05bbd8612a55d6f8f10324f8279e308aa89de305643b8a4f2dc447af8"}], "txid": "6e5f79282659bd06154cf5efb634bd1e1f1be94b88398719caa5b23c5852de35", "blocktime": 1537872475, "version": 1, "confirmations": 11486, "time": 1537872475, "locktime": 0, "vsize": 288, "size": 480}