{"hash": "6e64987bd5dfe136cba6056f3f166b43abaf551368fdd24ba5b6ba268b8ea469", "blockhash": "0000000000000000001f76057863aec43deb6fa401d9628bb513d65a8098bfab", "vout": [{"scriptPubKey": {"type": "nulldata", "hex": "6a4c50000077db0001a7a87563874182cc956141857af8e8e963c7cfd5b95b23cc0f42c2fc38c55223f8946ef7c6e26582f8f0d13053bd5baa15c906130cdae951bca8bc9a9526289ac0f6612cd74e33776ee4", "asm": "OP_RETURN 000077db0001a7a87563874182cc956141857af8e8e963c7cfd5b95b23cc0f42c2fc38c55223f8946ef7c6e26582f8f0d13053bd5baa15c906130cdae951bca8bc9a9526289ac0f6612cd74e33776ee4"}, "value": 0.0, "n": 0}, {"scriptPubKey": {"reqSigs": 1, "hex": "76a9147b53144b139494085b5613b0bd06cbc44a56893b88ac", "addresses": ["1CF5e3ZDTR9VXmB7ExaUSBSR3X9ueJbo1K"], "asm": "OP_DUP OP_HASH160 7b53144b139494085b5613b0bd06cbc44a56893b OP_EQUALVERIFY OP_CHECKSIG", "type": "pubkeyhash"}, "value": 0.014772, "n": 1}], "hex": "0100000001e517f68635493b5c8bf94629781cbac16a3a58544dc72b118f7a76fac371f621010000006a47304402206e76a88690b7e63f41164b385234881bd9c52a918ec5f1f87116948cfb201f39022043e4a91cccd8692b5c78fc5c47c4836eac237d1fbf3d35041a76fc5f39769a800121021011fb996222d8544b15a9650caf6ea38689ac8618f7bcba15f48a9270731bebffffffff020000000000000000536a4c50000077db0001a7a87563874182cc956141857af8e8e963c7cfd5b95b23cc0f42c2fc38c55223f8946ef7c6e26582f8f0d13053bd5baa15c906130cdae951bca8bc9a9526289ac0f6612cd74e33776ee4508a1600000000001976a9147b53144b139494085b5613b0bd06cbc44a56893b88ac00000000", "vin": [{"sequence": 4294967295, "scriptSig": {"hex": "47304402206e76a88690b7e63f41164b385234881bd9c52a918ec5f1f87116948cfb201f39022043e4a91cccd8692b5c78fc5c47c4836eac237d1fbf3d35041a76fc5f39769a800121021011fb996222d8544b15a9650caf6ea38689ac8618f7bcba15f48a9270731beb", "asm": "304402206e76a88690b7e63f41164b385234881bd9c52a918ec5f1f87116948cfb201f39022043e4a91cccd8692b5c78fc5c47c4836eac237d1fbf3d35041a76fc5f39769a80[ALL] 021011fb996222d8544b15a9650caf6ea38689ac8618f7bcba15f48a9270731beb"}, "vout": 1, "txid": "21f671c3fa767a8f112bc74d54583a6ac1ba1c782946f98b5c3b493586f617e5"}], "txid": "6e64987bd5dfe136cba6056f3f166b43abaf551368fdd24ba5b6ba268b8ea469", "blocktime": 1537873891, "version": 1, "confirmations": 11478, "time": 1537873891, "locktime": 0, "vsize": 283, "size": 283}