{"hash": "6e6679c5c60f55cb71b0be6c5abcf9ae455d3f0f7e2be5eb4f6a7d60e05dcba7", "blockhash": "00000000000000000018f53835495a110e01622372bf6ae95dc86f2b0ab887b0", "vout": [{"scriptPubKey": {"reqSigs": 1, "hex": "76a914407cb56eedd1430a31f758da719a526a9ac7864088ac", "addresses": ["16syeC6AGe8XVExZHPcYhCk22KSdF7tPEV"], "asm": "OP_DUP OP_HASH160 407cb56eedd1430a31f758da719a526a9ac78640 OP_EQUALVERIFY OP_CHECKSIG", "type": "pubkeyhash"}, "value": 0.03122243, "n": 0}, {"scriptPubKey": {"reqSigs": 1, "hex": "76a914eae3cbf51a6aa7349cee25b385025a528236c80188ac", "addresses": ["1NQz1UuUh2DfgznvPDMPN6SnqWGBRrSUdf"], "asm": "OP_DUP OP_HASH160 eae3cbf51a6aa7349cee25b385025a528236c801 OP_EQUALVERIFY OP_CHECKSIG", "type": "pubkeyhash"}, "value": 0.06005897, "n": 1}], "hex": "0100000001ccdc921bd15daee976f366600842ecc7709392b6cfd1101793e353dcab0df98b010000006b483045022100cc3ec17d6ae848f1a6facdeeced450189c4cf3c8363b2ef8e740dd7033af152f02204db75136af7223a14b002399e9f85876d24ac12efc524ee8ea12b575416fa4d1012102523745246180b23f88ebe97fbf86be8ecd65ccfdb2d863c3268587e07cc04d03ffffffff0243a42f00000000001976a914407cb56eedd1430a31f758da719a526a9ac7864088ac89a45b00000000001976a914eae3cbf51a6aa7349cee25b385025a528236c80188ac00000000", "vin": [{"sequence": 4294967295, "scriptSig": {"hex": "483045022100cc3ec17d6ae848f1a6facdeeced450189c4cf3c8363b2ef8e740dd7033af152f02204db75136af7223a14b002399e9f85876d24ac12efc524ee8ea12b575416fa4d1012102523745246180b23f88ebe97fbf86be8ecd65ccfdb2d863c3268587e07cc04d03", "asm": "3045022100cc3ec17d6ae848f1a6facdeeced450189c4cf3c8363b2ef8e740dd7033af152f02204db75136af7223a14b002399e9f85876d24ac12efc524ee8ea12b575416fa4d1[ALL] 02523745246180b23f88ebe97fbf86be8ecd65ccfdb2d863c3268587e07cc04d03"}, "vout": 1, "txid": "8bf90dabdc53e3931710d1cfb6929370c7ec42086066f376e9ae5dd11b92dccc"}], "txid": "6e6679c5c60f55cb71b0be6c5abcf9ae455d3f0f7e2be5eb4f6a7d60e05dcba7", "blocktime": 1537870928, "version": 1, "confirmations": 11514, "time": 1537870928, "locktime": 0, "vsize": 226, "size": 226}