{"hash": "6e6f29a205766f6e6c0c2bcb074f37a1049323874c0bb90c22bdc050da60e409", "blockhash": "0000000000000000000dcc0f55137456b1a82d3642486a52398922ac4d620174", "vout": [{"scriptPubKey": {"reqSigs": 1, "hex": "76a914d00fc71e812ed3125cfeeac90d90b330bb8ff6c988ac", "addresses": ["1Ky8TAQQYitq6zC6qZp4zzxDcQVtTGW5wB"], "asm": "OP_DUP OP_HASH160 d00fc71e812ed3125cfeeac90d90b330bb8ff6c9 OP_EQUALVERIFY OP_CHECKSIG", "type": "pubkeyhash"}, "value": 0.01792174, "n": 0}, {"scriptPubKey": {"reqSigs": 1, "hex": "76a9140a9b25519e7bd10d1cf82318f72c88233f73be7e88ac", "addresses": ["1y5cdszVL8qcpkA22ihTDxmrCZhBqaJLu"], "asm": "OP_DUP OP_HASH160 0a9b25519e7bd10d1cf82318f72c88233f73be7e OP_EQUALVERIFY OP_CHECKSIG", "type": "pubkeyhash"}, "value": 0.022, "n": 1}], "hex": "0100000001b80226bd2092f937a5963574456a8631e694fc78a2e2a57d18950f638c666d7b000000006b483045022100dfc5d93e5bad1718c8b0c1e1e60efbc1882aa33b2b99f245e1606908ee5a6fc302202378b00672360f27163d0648b2b4dc617702bd9fb70e1b2a6b4c92901abd55e8012103dd5285ac44f88d359191a5b3f6581d4e398b62cab4956cec0fb3746428d124abfdffffff02ae581b00000000001976a914d00fc71e812ed3125cfeeac90d90b330bb8ff6c988acc0912100000000001976a9140a9b25519e7bd10d1cf82318f72c88233f73be7e88ac0c490800", "vin": [{"sequence": 4294967293, "scriptSig": {"hex": "483045022100dfc5d93e5bad1718c8b0c1e1e60efbc1882aa33b2b99f245e1606908ee5a6fc302202378b00672360f27163d0648b2b4dc617702bd9fb70e1b2a6b4c92901abd55e8012103dd5285ac44f88d359191a5b3f6581d4e398b62cab4956cec0fb3746428d124ab", "asm": "3045022100dfc5d93e5bad1718c8b0c1e1e60efbc1882aa33b2b99f245e1606908ee5a6fc302202378b00672360f27163d0648b2b4dc617702bd9fb70e1b2a6b4c92901abd55e8[ALL] 03dd5285ac44f88d359191a5b3f6581d4e398b62cab4956cec0fb3746428d124ab"}, "vout": 0, "txid": "7b6d668c630f95187da5e2a278fc94e631866a45743596a537f99220bd2602b8"}], "txid": "6e6f29a205766f6e6c0c2bcb074f37a1049323874c0bb90c22bdc050da60e409", "blocktime": 1537870268, "version": 1, "confirmations": 11519, "time": 1537870268, "locktime": 542988, "vsize": 226, "size": 226}