{"hash": "6e72fc531604245a35b04e57da44ff96008c86482ebe117b9f3c06652f2fbb28", "blockhash": "00000000000000000024a2167bbff67b0be802c0b01cdd79e6331c2be6459f87", "vout": [{"scriptPubKey": {"reqSigs": 1, "hex": "76a9147a68e219f281647786a3e097986aef5919064b6588ac", "addresses": ["1CAF5pMLNqeFgwU1rEHdGvJzX2douMaSwJ"], "asm": "OP_DUP OP_HASH160 7a68e219f281647786a3e097986aef5919064b65 OP_EQUALVERIFY OP_CHECKSIG", "type": "pubkeyhash"}, "value": 0.021, "n": 0}, {"scriptPubKey": {"reqSigs": 1, "hex": "a914eb2dfbd324ebd1d79aa8ac713685a700e2c74fb187", "addresses": ["3P8XodJb3xatrB74YxPS1fhmp9FGeCAfGB"], "asm": "OP_HASH160 eb2dfbd324ebd1d79aa8ac713685a700e2c74fb1 OP_EQUAL", "type": "scripthash"}, "value": 0.00017192, "n": 1}], "hex": "0100000001ef451b693760a82cecf2959fe79099edb392b884368934009256995d0c49661500000000fdfd000047304402204f4f9c026830f09fd353f528ea1955cb4005391d0bba5d47e1b4645a3d4cab660220374850ae76dfda09130f76ca8a4702b7b1d59feb7f49b196b3c3544fa89ebae101483045022100d36fd59910993bd3799cc76ed6f20d28942b250a4c20190d7da27ed9a7564f7c022048894d9f85873a9d2372b177c6a58e29f5eef7d97def7df80987bc380b3631ed014c69522103320ed5c29c6ffaf0845e78c8b4c83881d9ea9311914d20cdce04d58f77ba8f112103a54b2ba750ecf9efe5389e18f6b271ab5b69f9b352f90bda3f134a2f9c6a27052103b5325022a6ce3dd79717a8459e2041bd84f40329405c8f0f0a7bb975e948e78c53aeffffffff02200b2000000000001976a9147a68e219f281647786a3e097986aef5919064b6588ac284300000000000017a914eb2dfbd324ebd1d79aa8ac713685a700e2c74fb18700000000", "vin": [{"sequence": 4294967295, "scriptSig": {"hex": "0047304402204f4f9c026830f09fd353f528ea1955cb4005391d0bba5d47e1b4645a3d4cab660220374850ae76dfda09130f76ca8a4702b7b1d59feb7f49b196b3c3544fa89ebae101483045022100d36fd59910993bd3799cc76ed6f20d28942b250a4c20190d7da27ed9a7564f7c022048894d9f85873a9d2372b177c6a58e29f5eef7d97def7df80987bc380b3631ed014c69522103320ed5c29c6ffaf0845e78c8b4c83881d9ea9311914d20cdce04d58f77ba8f112103a54b2ba750ecf9efe5389e18f6b271ab5b69f9b352f90bda3f134a2f9c6a27052103b5325022a6ce3dd79717a8459e2041bd84f40329405c8f0f0a7bb975e948e78c53ae", "asm": "0 304402204f4f9c026830f09fd353f528ea1955cb4005391d0bba5d47e1b4645a3d4cab660220374850ae76dfda09130f76ca8a4702b7b1d59feb7f49b196b3c3544fa89ebae1[ALL] 3045022100d36fd59910993bd3799cc76ed6f20d28942b250a4c20190d7da27ed9a7564f7c022048894d9f85873a9d2372b177c6a58e29f5eef7d97def7df80987bc380b3631ed[ALL] 522103320ed5c29c6ffaf0845e78c8b4c83881d9ea9311914d20cdce04d58f77ba8f112103a54b2ba750ecf9efe5389e18f6b271ab5b69f9b352f90bda3f134a2f9c6a27052103b5325022a6ce3dd79717a8459e2041bd84f40329405c8f0f0a7bb975e948e78c53ae"}, "vout": 0, "txid": "1566490c5d9956920034893684b892b3ed9990e79f95f2ec2ca86037691b45ef"}], "txid": "6e72fc531604245a35b04e57da44ff96008c86482ebe117b9f3c06652f2fbb28", "blocktime": 1537870564, "version": 1, "confirmations": 11515, "time": 1537870564, "locktime": 0, "vsize": 372, "size": 372}