{"hash": "a3959f5025fbd59b3f4f52efff92d69e382e00ee7fec82a1b0f001d9366c26f4", "blockhash": "00000000000000000004ffacab907a6b429b9a5745fa0b75af4234bf69dd7176", "vout": [{"scriptPubKey": {"reqSigs": 1, "hex": "76a914da65b4e5c59104871be9d814f6cee2c09662062288ac", "addresses": ["1Lun9X95hztonVB398BwHyXU3eux6vGLe2"], "asm": "OP_DUP OP_HASH160 da65b4e5c59104871be9d814f6cee2c096620622 OP_EQUALVERIFY OP_CHECKSIG", "type": "pubkeyhash"}, "value": 0.07833486, "n": 0}, {"scriptPubKey": {"reqSigs": 1, "hex": "0020701a8d401c84fb13e6baf169d59684e17abd9fa216c8cc5b9fc63d622ff8c58d", "addresses": ["bc1qwqdg6squsna38e46795at95yu9atm8azzmyvckulcc7kytlcckxswvvzej"], "asm": "0 701a8d401c84fb13e6baf169d59684e17abd9fa216c8cc5b9fc63d622ff8c58d", "type": "witness_v0_scripthash"}, "value": 0.01748147, "n": 1}], "hex": "010000000001015f9b5fe7ce370c8e2592b25f4a24e21d9574191c7f8e5e35fbe5be70006f64e40100000000ffffffff028e877700000000001976a914da65b4e5c59104871be9d814f6cee2c09662062288acb3ac1a0000000000220020701a8d401c84fb13e6baf169d59684e17abd9fa216c8cc5b9fc63d622ff8c58d040048304502210098f9b316d870a8414a7056300da24562902c1132e555155db30671d46823905002207d4571d6029bd59b68d6cde1a79b81530209e9a82aa92bddbab9c0833e8b3d2c01473044022035d78d66756f1f93a187b6b9b7fb58f597ed5e2b189044ef62953223f7a958ef02206341ca99f3b69ccd7d92364dbcf793daff6471abb48329d9de42545078e2e089016952210375e00eb72e29da82b89367947f29ef34afb75e8654f6ea368e0acdfd92976b7c2103a1b26313f430c4b15bb1fdce663207659d8cac749a0e53d70eff01874496feff2103c96d495bfdd5ba4145e3e046fee45e84a8a48ad05bd8dbb395c011a32cf9f88053ae00000000", "vin": [{"txinwitness": ["", "304502210098f9b316d870a8414a7056300da24562902c1132e555155db30671d46823905002207d4571d6029bd59b68d6cde1a79b81530209e9a82aa92bddbab9c0833e8b3d2c01", "3044022035d78d66756f1f93a187b6b9b7fb58f597ed5e2b189044ef62953223f7a958ef02206341ca99f3b69ccd7d92364dbcf793daff6471abb48329d9de42545078e2e08901", "52210375e00eb72e29da82b89367947f29ef34afb75e8654f6ea368e0acdfd92976b7c2103a1b26313f430c4b15bb1fdce663207659d8cac749a0e53d70eff01874496feff2103c96d495bfdd5ba4145e3e046fee45e84a8a48ad05bd8dbb395c011a32cf9f88053ae"], "sequence": 4294967295, "scriptSig": {"hex": "", "asm": ""}, "vout": 1, "txid": "e4646f0070bee5fb355e8e7f1c1974951de2244a5fb292258e0c37cee75f9b5f"}], "txid": "6e75b5c49d2c1f960eb285525dc19190c2c0594754d6b6fb9c694f300b0c158b", "blocktime": 1537875543, "version": 1, "confirmations": 11464, "time": 1537875543, "locktime": 0, "vsize": 192, "size": 383}