{"hash": "f3d5a26e15eca4d4ba128e6efadb0c0717c47e5c97ae0e519270b88beeaccb60", "blockhash": "0000000000000000001f0ddff1eddb255c1121bcd4da4f1bc9a0da00cae72433", "vout": [{"scriptPubKey": {"reqSigs": 1, "hex": "001465253a6a0c307571c2370e55d3360d7bc5253f37", "addresses": ["bc1qv5jn56svxp6hrs3hpe2axdsd00zj20eh7mjxql"], "asm": "0 65253a6a0c307571c2370e55d3360d7bc5253f37", "type": "witness_v0_keyhash"}, "value": 0.01069372, "n": 0}, {"scriptPubKey": {"reqSigs": 1, "hex": "76a9146d8d5a36715b8e17822dc73a9fa3c0e0c3bed36d88ac", "addresses": ["1AzFzFGU5D8DqTnNti4z1bMkACfCSBoQ6H"], "asm": "OP_DUP OP_HASH160 6d8d5a36715b8e17822dc73a9fa3c0e0c3bed36d OP_EQUALVERIFY OP_CHECKSIG", "type": "pubkeyhash"}, "value": 0.013, "n": 1}], "hex": "010000000001032a2280739d4a2f6bd4a1dd7b7935d8a120b39bd1b234159a8ad96106cb7db6680100000000ffffffff608beba28f597d09fe089adf38fc80c446ba95da68f3e41b3ce3500c4b5c12c30100000000ffffffffa64152c3ac00b5809f6882745657d600c0a459d16fa8dcb11fea3f019b2e66c10100000000ffffffff023c5110000000000016001465253a6a0c307571c2370e55d3360d7bc5253f3720d61300000000001976a9146d8d5a36715b8e17822dc73a9fa3c0e0c3bed36d88ac0247304402204bb4c721fc127a6f8903569962f53db55e6164f05f01d651c4a9b5436b81128802206e0e5b7648f3fa96b89ab58402d0bde4706faddc862cf640cc9bb0c71f96a0e90121029e584b3e66337ea1fd352948a9c98a122efbd0fcc8a7a8b6f7fb0e22630c3d4f02473044022028dac9664a0899136db57e2480557f23723b5454159bbfc0c968d4dce258f7ad022076da3e512267aff3a9960267cf110f0d028fcadeca54c34fa938b816403166370121036fe91f3c64f674b8e1b0c13a8099782a7c6f8108593ce3eff9b57a107915abd102473044022011a0fbb3bc1bec8646e8c31263743666e28854889247455cdffe0e0171d4298d02207085c4daa4087d840a90f6e24fa6c0206ebe9919937e3dca8f8c7e020d5d62330121021e44e0076d44b9f4948ab897982381f573c31f6cad996a8bd25fb7ed0d567d9800000000", "vin": [{"txinwitness": ["304402204bb4c721fc127a6f8903569962f53db55e6164f05f01d651c4a9b5436b81128802206e0e5b7648f3fa96b89ab58402d0bde4706faddc862cf640cc9bb0c71f96a0e901", "029e584b3e66337ea1fd352948a9c98a122efbd0fcc8a7a8b6f7fb0e22630c3d4f"], "sequence": 4294967295, "scriptSig": {"hex": "", "asm": ""}, "vout": 1, "txid": "68b67dcb0661d98a9a1534b2d19bb320a1d835797bdda1d46b2f4a9d7380222a"}, {"txinwitness": ["3044022028dac9664a0899136db57e2480557f23723b5454159bbfc0c968d4dce258f7ad022076da3e512267aff3a9960267cf110f0d028fcadeca54c34fa938b8164031663701", "036fe91f3c64f674b8e1b0c13a8099782a7c6f8108593ce3eff9b57a107915abd1"], "sequence": 4294967295, "scriptSig": {"hex": "", "asm": ""}, "vout": 1, "txid": "c3125c4b0c50e33c1be4f368da95ba46c480fc38df9a08fe097d598fa2eb8b60"}, {"txinwitness": ["3044022011a0fbb3bc1bec8646e8c31263743666e28854889247455cdffe0e0171d4298d02207085c4daa4087d840a90f6e24fa6c0206ebe9919937e3dca8f8c7e020d5d623301", "021e44e0076d44b9f4948ab897982381f573c31f6cad996a8bd25fb7ed0d567d98"], "sequence": 4294967295, "scriptSig": {"hex": "", "asm": ""}, "vout": 1, "txid": "c1662e9b013fea1fb1dca86fd159a4c000d657567482689f80b500acc35241a6"}], "txid": "6e79704dc9e2cbb4971f6366bc13ee4d28c589b924c10b88725504849323eb76", "blocktime": 1537872018, "version": 1, "confirmations": 11489, "time": 1537872018, "locktime": 0, "vsize": 279, "size": 521}