{"hash": "b85a8f2f5259ad2d3ef0e4918e0cfd8d9301a277c748a24fb4009ecada7cc61a", "blockhash": "00000000000000000004ffacab907a6b429b9a5745fa0b75af4234bf69dd7176", "vout": [{"scriptPubKey": {"reqSigs": 1, "hex": "a91470b97e9ea641fde40bdae667fd2ab3efa792492287", "addresses": ["3By3pRKT3qoBDsgrN1XGhGQE1moaQNMccJ"], "asm": "OP_HASH160 70b97e9ea641fde40bdae667fd2ab3efa7924922 OP_EQUAL", "type": "scripthash"}, "value": 0.00988503, "n": 0}, {"scriptPubKey": {"reqSigs": 1, "hex": "a914e69980cba35045d2afdd4fce9b381f8661b4504387", "addresses": ["3NiKEFKFzASjF3iiRyrKV8vxBQZjLZ9AYz"], "asm": "OP_HASH160 e69980cba35045d2afdd4fce9b381f8661b45043 OP_EQUAL", "type": "scripthash"}, "value": 0.004, "n": 1}], "hex": "020000000001040212d7dc0956843e2653210d3abc53aee5efb23a35301f14d4f589bd877d9cca010000001716001421323002a8080714cd17fedb3222c4a227eb36bafeffffff328bcff311540b427d4ee3c39d21edba1646962e78af63eb2f3d99a773b2e5a51c0000001716001423252c2dde4fa383a00c338385f865eb5ff83242feffffff7f803f7e022f5381cb54a48f56fb174bb943e9639b68b1fe02838007b741ee9e48010000171600149b49e0437b8cb31e1d09144302b17af34a08c30cfeffffff81582885d74ae9b0d1ffe4622e76f02eb878aaeadf826f5a7cb54b297f36cbad60000000171600148dd56a2115ae27461b9a44bdfe9a437975b04e23feffffff0257150f000000000017a91470b97e9ea641fde40bdae667fd2ab3efa792492287801a06000000000017a914e69980cba35045d2afdd4fce9b381f8661b450438702483045022100c7776d9108cb4fa36f4ca7374ce7109d5b05cdbadadac57d78f6590e51110be7022063cc67459c606fa6b17b73f4ba1c4af8a65df80d9d3f3f85ac2bf29544732c0901210216b7fec137337680b585c55f8066fbd93aae898899a356913aeaec642ff5135c02483045022100f7a704d4f60ea465b976743b41e1f649789aeba5af79788dae7048773b7bef110220148d6ac8f8b1d405d0195e7e7d28d65e34c10d2bfcf9df38f927b9acb46403940121020f0b7ed79fa3f44dcd72c35b33ee19dee630f0e68a9152afc01ab6fd56826beb024730440220383e928bbc0b226eec2d8009235a52433b402a3909692da27021bf2aa2706707022052906b0aa52b31e0fcc0b97c6345798f8a233b2b94dda735066643a9f0c62aaa012103c915dfaae366f7970114abab3aed14fe28cda2e35c72af41eefeb35e96a730a80247304402207866dcee4f0e1c2d35683bc54323df679cce72329011803e343f1e3c1ed45560022061975073d4a10c9448709d56dc4c8eaa58b6fbdfecfd2827f6dd3d3b6017f52401210201e24c5bd74189d78d70e2dba167d1aea4be0687f308468b3e138b2a0f3090f116490800", "vin": [{"txinwitness": ["3045022100c7776d9108cb4fa36f4ca7374ce7109d5b05cdbadadac57d78f6590e51110be7022063cc67459c606fa6b17b73f4ba1c4af8a65df80d9d3f3f85ac2bf29544732c0901", "0216b7fec137337680b585c55f8066fbd93aae898899a356913aeaec642ff5135c"], "sequence": 4294967294, "scriptSig": {"hex": "16001421323002a8080714cd17fedb3222c4a227eb36ba", "asm": "001421323002a8080714cd17fedb3222c4a227eb36ba"}, "vout": 1, "txid": "ca9c7d87bd89f5d4141f30353ab2efe5ae53bc3a0d2153263e845609dcd71202"}, {"txinwitness": ["3045022100f7a704d4f60ea465b976743b41e1f649789aeba5af79788dae7048773b7bef110220148d6ac8f8b1d405d0195e7e7d28d65e34c10d2bfcf9df38f927b9acb464039401", "020f0b7ed79fa3f44dcd72c35b33ee19dee630f0e68a9152afc01ab6fd56826beb"], "sequence": 4294967294, "scriptSig": {"hex": "16001423252c2dde4fa383a00c338385f865eb5ff83242", "asm": "001423252c2dde4fa383a00c338385f865eb5ff83242"}, "vout": 28, "txid": "a5e5b273a7993d2feb63af782e964616baed219dc3e34e7d420b5411f3cf8b32"}, {"txinwitness": ["30440220383e928bbc0b226eec2d8009235a52433b402a3909692da27021bf2aa2706707022052906b0aa52b31e0fcc0b97c6345798f8a233b2b94dda735066643a9f0c62aaa01", "03c915dfaae366f7970114abab3aed14fe28cda2e35c72af41eefeb35e96a730a8"], "sequence": 4294967294, "scriptSig": {"hex": "1600149b49e0437b8cb31e1d09144302b17af34a08c30c", "asm": "00149b49e0437b8cb31e1d09144302b17af34a08c30c"}, "vout": 328, "txid": "9eee41b707808302feb1689b63e943b94b17fb568fa454cb81532f027e3f807f"}, {"txinwitness": ["304402207866dcee4f0e1c2d35683bc54323df679cce72329011803e343f1e3c1ed45560022061975073d4a10c9448709d56dc4c8eaa58b6fbdfecfd2827f6dd3d3b6017f52401", "0201e24c5bd74189d78d70e2dba167d1aea4be0687f308468b3e138b2a0f3090f1"], "sequence": 4294967294, "scriptSig": {"hex": "1600148dd56a2115ae27461b9a44bdfe9a437975b04e23", "asm": "00148dd56a2115ae27461b9a44bdfe9a437975b04e23"}, "vout": 96, "txid": "adcb367f294bb57c5a6f82dfeaaa78b82ef0762e62e4ffd1b0e94ad785285881"}], "txid": "6e7cac64a97c88bd24eab5f677fe7a7b7946faffdc6953910943717e91b40fd9", "blocktime": 1537875543, "version": 2, "confirmations": 11464, "time": 1537875543, "locktime": 542998, "vsize": 438, "size": 762}