{"hash": "6e7d22389ffc1c8ec6fdf6303f149996008aa63a234ba169aa446ef7ec9c0fbb", "blockhash": "0000000000000000000e13cef7c366c0283d82e591d1acd082e914b08063cdf1", "vout": [{"scriptPubKey": {"reqSigs": 1, "hex": "76a9141a8b0a1c6728c0ae2ae522fcf6b33679a94691a588ac", "addresses": ["13RM8d2UXAdmogXt6YAkxWnZZn1utuiq64"], "asm": "OP_DUP OP_HASH160 1a8b0a1c6728c0ae2ae522fcf6b33679a94691a5 OP_EQUALVERIFY OP_CHECKSIG", "type": "pubkeyhash"}, "value": 0.09713064, "n": 0}, {"scriptPubKey": {"reqSigs": 1, "hex": "76a914a65c7fc30cb199dad19ec9156893caed6eb219e388ac", "addresses": ["1GAdynvxp8CNJNFRwZaMajk1QgCbv82HkY"], "asm": "OP_DUP OP_HASH160 a65c7fc30cb199dad19ec9156893caed6eb219e3 OP_EQUALVERIFY OP_CHECKSIG", "type": "pubkeyhash"}, "value": 0.15616363, "n": 1}], "hex": "010000000184b6083086f1ec4c196c4e9de653578f20fbb5e00a4c5a82d1e7dc58ba13b95b080000006b483045022100852a7f1ad62d614efea8c3f0a05d8a2fcbce24a1bb83edbb85e6f606ad6023b9022055146592f4ac16395d784ad7eec81a79d5ad5d88109c566506bf5f4a876ca899012103718b4f6a764c08dde37299518c86616046de802346cf390104538761cbee0634ffffffff02a8359400000000001976a9141a8b0a1c6728c0ae2ae522fcf6b33679a94691a588ac6b49ee00000000001976a914a65c7fc30cb199dad19ec9156893caed6eb219e388ac00000000", "vin": [{"sequence": 4294967295, "scriptSig": {"hex": "483045022100852a7f1ad62d614efea8c3f0a05d8a2fcbce24a1bb83edbb85e6f606ad6023b9022055146592f4ac16395d784ad7eec81a79d5ad5d88109c566506bf5f4a876ca899012103718b4f6a764c08dde37299518c86616046de802346cf390104538761cbee0634", "asm": "3045022100852a7f1ad62d614efea8c3f0a05d8a2fcbce24a1bb83edbb85e6f606ad6023b9022055146592f4ac16395d784ad7eec81a79d5ad5d88109c566506bf5f4a876ca899[ALL] 03718b4f6a764c08dde37299518c86616046de802346cf390104538761cbee0634"}, "vout": 8, "txid": "5bb913ba58dce7d1825a4c0ae0b5fb208f5753e69d4e6c194cecf1863008b684"}], "txid": "6e7d22389ffc1c8ec6fdf6303f149996008aa63a234ba169aa446ef7ec9c0fbb", "blocktime": 1537871767, "version": 1, "confirmations": 11495, "time": 1537871767, "locktime": 0, "vsize": 226, "size": 226}