{"hash": "6e7d088d17ef5943a646d02f19212403ceda62c257c881455c507dcc06e90060", "blockhash": "0000000000000000001f76057863aec43deb6fa401d9628bb513d65a8098bfab", "vout": [{"scriptPubKey": {"reqSigs": 1, "hex": "a9142435b0c9e64a80db760723289b673f50fd0606da87", "addresses": ["34zUZwGyKLHYhcXSPQPQJDZQEvaPk4ogkj"], "asm": "OP_HASH160 2435b0c9e64a80db760723289b673f50fd0606da OP_EQUAL", "type": "scripthash"}, "value": 0.00366563, "n": 0}, {"scriptPubKey": {"reqSigs": 1, "hex": "a914720c6da9ab6d731f6e2aa0cbdf9f2453e09a45b187", "addresses": ["3C63qx6UyCSji9GDTPFu3JFTSnLKtZo91r"], "asm": "OP_HASH160 720c6da9ab6d731f6e2aa0cbdf9f2453e09a45b1 OP_EQUAL", "type": "scripthash"}, "value": 0.33295688, "n": 1}], "hex": "01000000010cd55b1f77bbebfae18f78f111d44addb4cd03e9bf36f5e707bb82002e6eef3801000000da004730440220068abb3a932db1b66ca908849bdbd5a79c79b18ac9a56785f4eb817396c9f21902201053326548531fbd4673a73bdf4aa7aba75b5b308aa6de0919f71f5f084d087301483045022100f6eb667808ed7e4ee0f47897e96d65f272e6636efc75c4b32a542785f6ea73c202202cbf9349f29a7a5b307bf49a57a732b4f5902193951fc73d70cae050fb3e4d1a0147522103f2d250ed5140d655fe49f9b9f857ff223c9290b9bbe8b68a50d522cf45e633702102045f2de7b3abee8ca375163a8879a6719ef3e6d7ffc88aa3008e11b5b89eb7ee52aeffffffff02e39705000000000017a9142435b0c9e64a80db760723289b673f50fd0606da87480dfc010000000017a914720c6da9ab6d731f6e2aa0cbdf9f2453e09a45b18700000000", "vin": [{"sequence": 4294967295, "scriptSig": {"hex": "004730440220068abb3a932db1b66ca908849bdbd5a79c79b18ac9a56785f4eb817396c9f21902201053326548531fbd4673a73bdf4aa7aba75b5b308aa6de0919f71f5f084d087301483045022100f6eb667808ed7e4ee0f47897e96d65f272e6636efc75c4b32a542785f6ea73c202202cbf9349f29a7a5b307bf49a57a732b4f5902193951fc73d70cae050fb3e4d1a0147522103f2d250ed5140d655fe49f9b9f857ff223c9290b9bbe8b68a50d522cf45e633702102045f2de7b3abee8ca375163a8879a6719ef3e6d7ffc88aa3008e11b5b89eb7ee52ae", "asm": "0 30440220068abb3a932db1b66ca908849bdbd5a79c79b18ac9a56785f4eb817396c9f21902201053326548531fbd4673a73bdf4aa7aba75b5b308aa6de0919f71f5f084d0873[ALL] 3045022100f6eb667808ed7e4ee0f47897e96d65f272e6636efc75c4b32a542785f6ea73c202202cbf9349f29a7a5b307bf49a57a732b4f5902193951fc73d70cae050fb3e4d1a[ALL] 522103f2d250ed5140d655fe49f9b9f857ff223c9290b9bbe8b68a50d522cf45e633702102045f2de7b3abee8ca375163a8879a6719ef3e6d7ffc88aa3008e11b5b89eb7ee52ae"}, "vout": 1, "txid": "38ef6e2e0082bb07e7f536bfe903cdb4dd4ad411f1788fe1faebbb771f5bd50c"}], "txid": "6e7d088d17ef5943a646d02f19212403ceda62c257c881455c507dcc06e90060", "blocktime": 1537873891, "version": 1, "confirmations": 11475, "time": 1537873891, "locktime": 0, "vsize": 333, "size": 333}