{"hash": "6e826307c7899e20dd952b2741f65745d50911b69f08eccbc877c13f1d192968", "blockhash": "00000000000000000004ffacab907a6b429b9a5745fa0b75af4234bf69dd7176", "vout": [{"scriptPubKey": {"reqSigs": 1, "hex": "76a9145bb0d3f64f76782efaa91910b66f2c0219a59e5288ac", "addresses": ["19MpKgRtZaTzcrBZtJWAwmcEQnH7GbQgfF"], "asm": "OP_DUP OP_HASH160 5bb0d3f64f76782efaa91910b66f2c0219a59e52 OP_EQUALVERIFY OP_CHECKSIG", "type": "pubkeyhash"}, "value": 0.00257221, "n": 0}, {"scriptPubKey": {"reqSigs": 1, "hex": "a914ecfca476d229f8f256b754d0a77fdcfdba86c08987", "addresses": ["3PJ63iiZyuBnuUBtdAf6qg8fi246UrxJgo"], "asm": "OP_HASH160 ecfca476d229f8f256b754d0a77fdcfdba86c089 OP_EQUAL", "type": "scripthash"}, "value": 0.00350971, "n": 1}], "hex": "0100000001e988312f899a67247e3a2478152e22bc2c99caabe29bfedbac1b793238271bdc040000006b483045022100a120be2f4317d2b54122ed6407970a6cb311e1a59469cf51426fe7a7299ad4c702207fafa72c9553ad9ffc21d4e9739c81703acfe5fdb035543a9309796465c373af012103834c752be3542d94e0051be14a2a20ad280e5d3d99624a3d8ba5c14a523c7bcbffffffff02c5ec0300000000001976a9145bb0d3f64f76782efaa91910b66f2c0219a59e5288acfb5a05000000000017a914ecfca476d229f8f256b754d0a77fdcfdba86c0898700000000", "vin": [{"sequence": 4294967295, "scriptSig": {"hex": "483045022100a120be2f4317d2b54122ed6407970a6cb311e1a59469cf51426fe7a7299ad4c702207fafa72c9553ad9ffc21d4e9739c81703acfe5fdb035543a9309796465c373af012103834c752be3542d94e0051be14a2a20ad280e5d3d99624a3d8ba5c14a523c7bcb", "asm": "3045022100a120be2f4317d2b54122ed6407970a6cb311e1a59469cf51426fe7a7299ad4c702207fafa72c9553ad9ffc21d4e9739c81703acfe5fdb035543a9309796465c373af[ALL] 03834c752be3542d94e0051be14a2a20ad280e5d3d99624a3d8ba5c14a523c7bcb"}, "vout": 4, "txid": "dc1b273832791bacdbfe9be2abca992cbc222e1578243a7e24679a892f3188e9"}], "txid": "6e826307c7899e20dd952b2741f65745d50911b69f08eccbc877c13f1d192968", "blocktime": 1537875543, "version": 1, "confirmations": 11464, "time": 1537875543, "locktime": 0, "vsize": 224, "size": 224}