{"hash": "6e88114b063191113cb2ea7bc92185623097a0bdb85c76311c2ee651ddd59d2a", "blockhash": "00000000000000000018f53835495a110e01622372bf6ae95dc86f2b0ab887b0", "vout": [{"scriptPubKey": {"reqSigs": 1, "hex": "76a9146c5293ad0efb11cfc6b38d9631c1ef3a540ea1f388ac", "addresses": ["1AskuFzUGugbfASmfdABQ9zw1brpb2mLr3"], "asm": "OP_DUP OP_HASH160 6c5293ad0efb11cfc6b38d9631c1ef3a540ea1f3 OP_EQUALVERIFY OP_CHECKSIG", "type": "pubkeyhash"}, "value": 0.00170907, "n": 0}, {"scriptPubKey": {"reqSigs": 1, "hex": "76a9147f61bcd1af2fa20b7f91d4556fcffc8c5f4d4b3b88ac", "addresses": ["1CcXuHiVChHWMvkCp7Keevimrnm3dYLUjr"], "asm": "OP_DUP OP_HASH160 7f61bcd1af2fa20b7f91d4556fcffc8c5f4d4b3b OP_EQUALVERIFY OP_CHECKSIG", "type": "pubkeyhash"}, "value": 0.0115, "n": 1}], "hex": "0100000002ca2d345f7c1543de8da668ebabb88c6c31bab0e1c034541ea8be0515053cef10010000006b48304502210094ba6e72d30aaa0bc25b0c732663fec224ba94a86ae1fa2a61df55901819100f022029e8a88dfba91dc737ea1623189a494d144b00915f8d38f0ac0530ed92ca53150121034765fd435e0128311ae1ddb6ee834e7d8c6377f3c7959ecd7226531afa2248f0ffffffff13e3b3597a8119709f43459d9ed2ec0265a2f941921d7c70c71fabfcd4b1ade3000000006a473044022067fee0cadc5c69968ee189310080cf57cadf498d73a6efbdc4911015ea50df3a022060b754d2dfe50ce004e060e846e6cda779bd463c6415f78b433611759460001c012103e587bccc4a7a0b4b16dbfaebfb284a52bfe523e7012a13bde5353fb5ca31d602ffffffff029b9b0200000000001976a9146c5293ad0efb11cfc6b38d9631c1ef3a540ea1f388ac308c1100000000001976a9147f61bcd1af2fa20b7f91d4556fcffc8c5f4d4b3b88ac00000000", "vin": [{"sequence": 4294967295, "scriptSig": {"hex": "48304502210094ba6e72d30aaa0bc25b0c732663fec224ba94a86ae1fa2a61df55901819100f022029e8a88dfba91dc737ea1623189a494d144b00915f8d38f0ac0530ed92ca53150121034765fd435e0128311ae1ddb6ee834e7d8c6377f3c7959ecd7226531afa2248f0", "asm": "304502210094ba6e72d30aaa0bc25b0c732663fec224ba94a86ae1fa2a61df55901819100f022029e8a88dfba91dc737ea1623189a494d144b00915f8d38f0ac0530ed92ca5315[ALL] 034765fd435e0128311ae1ddb6ee834e7d8c6377f3c7959ecd7226531afa2248f0"}, "vout": 1, "txid": "10ef3c051505bea81e5434c0e1b0ba316c8cb8abeb68a68dde43157c5f342dca"}, {"sequence": 4294967295, "scriptSig": {"hex": "473044022067fee0cadc5c69968ee189310080cf57cadf498d73a6efbdc4911015ea50df3a022060b754d2dfe50ce004e060e846e6cda779bd463c6415f78b433611759460001c012103e587bccc4a7a0b4b16dbfaebfb284a52bfe523e7012a13bde5353fb5ca31d602", "asm": "3044022067fee0cadc5c69968ee189310080cf57cadf498d73a6efbdc4911015ea50df3a022060b754d2dfe50ce004e060e846e6cda779bd463c6415f78b433611759460001c[ALL] 03e587bccc4a7a0b4b16dbfaebfb284a52bfe523e7012a13bde5353fb5ca31d602"}, "vout": 0, "txid": "e3adb1d4fcab1fc7707c1d9241f9a26502ecd29e9d45439f7019817a59b3e313"}], "txid": "6e88114b063191113cb2ea7bc92185623097a0bdb85c76311c2ee651ddd59d2a", "blocktime": 1537870928, "version": 1, "confirmations": 11514, "time": 1537870928, "locktime": 0, "vsize": 373, "size": 373}