{"hash": "77e6efc41189e658298a43b5b6d33b4a4cdef7abea44183ebf16fb09f6148a5e", "blockhash": "0000000000000000001f76057863aec43deb6fa401d9628bb513d65a8098bfab", "vout": [{"scriptPubKey": {"reqSigs": 1, "hex": "76a914d9ceaba2839a5aaa1e220bda2c6d8bb252493ab988ac", "addresses": ["1LrfDLpW6b1JVCMxJ6YDSH2naSsfk5PkiV"], "asm": "OP_DUP OP_HASH160 d9ceaba2839a5aaa1e220bda2c6d8bb252493ab9 OP_EQUALVERIFY OP_CHECKSIG", "type": "pubkeyhash"}, "value": 0.01026534, "n": 0}, {"scriptPubKey": {"reqSigs": 1, "hex": "001478527466a78258f8b15177a1ee64541c674b3ba5", "addresses": ["bc1q0pf8ge48sfv03v23w7s7uez5r3n5kwa9nz5lhv"], "asm": "0 78527466a78258f8b15177a1ee64541c674b3ba5", "type": "witness_v0_keyhash"}, "value": 0.00143393, "n": 1}], "hex": "01000000000101ad3053cfc9c30e155446c5e59c4d0c94ab63ae560f57fc2027f10b55923514ec0000000000ffffffff02e6a90f00000000001976a914d9ceaba2839a5aaa1e220bda2c6d8bb252493ab988ac213002000000000016001478527466a78258f8b15177a1ee64541c674b3ba502483045022100fd8ed8539e83765b8b1830ee79f16eb1744f7fcc74b2c86dee80bc71d08e26dc02202b8a31a3e4e1913d820013aa86d592ca1c762595165b1731b3c7409bb476f28401210368efb0b0aff75a08405faf048893a0fd6086d5fadff9e678fcfd91ca6794ecf100000000", "vin": [{"txinwitness": ["3045022100fd8ed8539e83765b8b1830ee79f16eb1744f7fcc74b2c86dee80bc71d08e26dc02202b8a31a3e4e1913d820013aa86d592ca1c762595165b1731b3c7409bb476f28401", "0368efb0b0aff75a08405faf048893a0fd6086d5fadff9e678fcfd91ca6794ecf1"], "sequence": 4294967295, "scriptSig": {"hex": "", "asm": ""}, "vout": 0, "txid": "ec143592550bf12720fc570f56ae63ab940c4d9ce5c54654150ec3c9cf5330ad"}], "txid": "6e8b24ac4760a1049e3a5c0467fc599ee5dc70f3c39df38f12eb324eb37b604b", "blocktime": 1537873891, "version": 1, "confirmations": 11478, "time": 1537873891, "locktime": 0, "vsize": 144, "size": 226}