{"hash": "6e8ca74b5c851d9d9f62ce0aa85590ed2cc103d7864d3cf03f05184ea1fb41d6", "blockhash": "0000000000000000000dcc0f55137456b1a82d3642486a52398922ac4d620174", "vout": [{"scriptPubKey": {"reqSigs": 1, "hex": "76a914284b1f894ca72430de8f19952125b6016a9dc7c688ac", "addresses": ["14g42KnXkRFfR8cUtS5tReprjeNvGQKW9v"], "asm": "OP_DUP OP_HASH160 284b1f894ca72430de8f19952125b6016a9dc7c6 OP_EQUALVERIFY OP_CHECKSIG", "type": "pubkeyhash"}, "value": 0.14448258, "n": 0}, {"scriptPubKey": {"type": "nulldata", "hex": "6a146f6d6e69000000000000001f0000000702198d00", "asm": "OP_RETURN 6f6d6e69000000000000001f0000000702198d00"}, "value": 0.0, "n": 1}, {"scriptPubKey": {"reqSigs": 1, "hex": "76a9147de21f9c158ceed9bcbf8ea7aff1e8ebc25f671388ac", "addresses": ["1CUcMKAyu6UqnNarBB5s92DoCAiCZ692oR"], "asm": "OP_DUP OP_HASH160 7de21f9c158ceed9bcbf8ea7aff1e8ebc25f6713 OP_EQUALVERIFY OP_CHECKSIG", "type": "pubkeyhash"}, "value": 5.46e-06, "n": 2}], "hex": "0100000001196d837b3d4392584912224fbf100d25110be8f05b094f9e701e51c25b4e7b12000000006a47304402207fb106694dd50bb7e597452446f1fd7319de435ae597e3748a1923debe519eaf022040d8ff63a5beed5f07c9f6709fbbf2b322f7793dcf12f4215227f900bb2e1da101210392260b2475e9dec1855e89404d00787579055270f3f1619ec29bd64ed6a6dd7dfeffffff038276dc00000000001976a914284b1f894ca72430de8f19952125b6016a9dc7c688ac0000000000000000166a146f6d6e69000000000000001f0000000702198d0022020000000000001976a9147de21f9c158ceed9bcbf8ea7aff1e8ebc25f671388ac0c490800", "vin": [{"sequence": 4294967294, "scriptSig": {"hex": "47304402207fb106694dd50bb7e597452446f1fd7319de435ae597e3748a1923debe519eaf022040d8ff63a5beed5f07c9f6709fbbf2b322f7793dcf12f4215227f900bb2e1da101210392260b2475e9dec1855e89404d00787579055270f3f1619ec29bd64ed6a6dd7d", "asm": "304402207fb106694dd50bb7e597452446f1fd7319de435ae597e3748a1923debe519eaf022040d8ff63a5beed5f07c9f6709fbbf2b322f7793dcf12f4215227f900bb2e1da1[ALL] 0392260b2475e9dec1855e89404d00787579055270f3f1619ec29bd64ed6a6dd7d"}, "vout": 0, "txid": "127b4e5bc2511e709e4f095bf0e80b11250d10bf4f2212495892433d7b836d19"}], "txid": "6e8ca74b5c851d9d9f62ce0aa85590ed2cc103d7864d3cf03f05184ea1fb41d6", "blocktime": 1537870268, "version": 1, "confirmations": 11516, "time": 1537870268, "locktime": 542988, "vsize": 256, "size": 256}