{"hash": "6e8dc328171d551b854c796355eefe8f3bbed6afc9acd7b87060e94efb692e31", "blockhash": "0000000000000000001e0dab787dd257d1dbfcb92a98c2207d5e1078be1f4165", "vout": [{"scriptPubKey": {"reqSigs": 1, "hex": "76a9140ef09454bd18a8cc0e8c69ae0032a9ca1b13488988ac", "addresses": ["12MzfSKqv7QqvcQUhTEY5NNCNNBNpPH3s6"], "asm": "OP_DUP OP_HASH160 0ef09454bd18a8cc0e8c69ae0032a9ca1b134889 OP_EQUALVERIFY OP_CHECKSIG", "type": "pubkeyhash"}, "value": 0.01563641, "n": 0}, {"scriptPubKey": {"reqSigs": 1, "hex": "76a91421a419218eb3b3db81c625a2635af9933c2ddb0e88ac", "addresses": ["144st57vSE2qgvLWQUe5ERw1TjLsW5TNQV"], "asm": "OP_DUP OP_HASH160 21a419218eb3b3db81c625a2635af9933c2ddb0e OP_EQUALVERIFY OP_CHECKSIG", "type": "pubkeyhash"}, "value": 0.01406135, "n": 1}], "hex": "01000000015a461491441c81d17236fb45a883b63e0ad83d3c3c662404cae1e64061241e5e000000006b483045022100c11cfcd5046ce303f47051cb31301f8435551f4f6288bd3c05cfe82536ed83ea02201e80651b8c9e52437ec3ca0b68c7568e8381e8ba1e6d1f2f95ea80e9efd787fb012103b9fe72b8cf1f98168f0804a7b2dc452e17a31d7f193cf16a803e1ac105b1af76ffffffff02f9db1700000000001976a9140ef09454bd18a8cc0e8c69ae0032a9ca1b13488988acb7741500000000001976a91421a419218eb3b3db81c625a2635af9933c2ddb0e88ac00000000", "vin": [{"sequence": 4294967295, "scriptSig": {"hex": "483045022100c11cfcd5046ce303f47051cb31301f8435551f4f6288bd3c05cfe82536ed83ea02201e80651b8c9e52437ec3ca0b68c7568e8381e8ba1e6d1f2f95ea80e9efd787fb012103b9fe72b8cf1f98168f0804a7b2dc452e17a31d7f193cf16a803e1ac105b1af76", "asm": "3045022100c11cfcd5046ce303f47051cb31301f8435551f4f6288bd3c05cfe82536ed83ea02201e80651b8c9e52437ec3ca0b68c7568e8381e8ba1e6d1f2f95ea80e9efd787fb[ALL] 03b9fe72b8cf1f98168f0804a7b2dc452e17a31d7f193cf16a803e1ac105b1af76"}, "vout": 0, "txid": "5e1e246140e6e1ca0424663c3c3dd80a3eb683a845fb3672d1811c449114465a"}], "txid": "6e8dc328171d551b854c796355eefe8f3bbed6afc9acd7b87060e94efb692e31", "blocktime": 1537872475, "version": 1, "confirmations": 11487, "time": 1537872475, "locktime": 0, "vsize": 226, "size": 226}