{"hash": "8cec108bdd3a46ac82a0347203b3868c446c48bf9e4e8a4a8c517d341a1b21e8", "blockhash": "0000000000000000000e13cef7c366c0283d82e591d1acd082e914b08063cdf1", "vout": [{"scriptPubKey": {"reqSigs": 1, "hex": "76a9148dce5fc1e415529841e6909824fe9dd3e626a72788ac", "addresses": ["1DvoWAnFa6f76tfTdUcuDP1yttsDhg2XCw"], "asm": "OP_DUP OP_HASH160 8dce5fc1e415529841e6909824fe9dd3e626a727 OP_EQUALVERIFY OP_CHECKSIG", "type": "pubkeyhash"}, "value": 0.0020356, "n": 0}, {"scriptPubKey": {"reqSigs": 1, "hex": "a914d2789e3a9e7514ac0fd05317356bebb1a7deed2d87", "addresses": ["3LstKX5WjiWY4CP1L3gnFEKzpfRBCrQWsv"], "asm": "OP_HASH160 d2789e3a9e7514ac0fd05317356bebb1a7deed2d OP_EQUAL", "type": "scripthash"}, "value": 0.00999566, "n": 1}], "hex": "0200000000010202b3c41e277f3d80b0271523a0d85c7cdb6b1009e94a14fabdac79c05d9f13980000000017160014b41b7dfd4ab2eba40e3c68437aa23a8ffe6eada1feffffff1e68e9364bc3ee7025ddcec8d3314297186a8f8de0ae05fb1295e059c6d8e0b20a000000171600147a01169959cf595f48a43f3ce6415067bd5a8210feffffff02281b0300000000001976a9148dce5fc1e415529841e6909824fe9dd3e626a72788ac8e400f000000000017a914d2789e3a9e7514ac0fd05317356bebb1a7deed2d8702483045022100a5697d9bcadf334835087b33380f0ed40880aa36d06058fb2197338af2f0011e02207645f394e22c48bd0ff7cf1488e6674c1f8e0f56f332997bb27820ea672977fd012102e260de8ea4e487ef441c8ddc31560f6368ae2f06ef7261eaa22640e38dbdb7c902483045022100b95bb8eeea7d9854efa1f57384bdac34daaec4ce6c4dc7d7db3efb140e15b7eb0220068edf0f316c09e6c95b8e7be5c77f644cb8aac524ff34cde8b5e36362c0a33d0121030b98196460b8b91b7eca7886fa1bb957bd3b4ddd641e8b9da3622f7f51b461b5e3480800", "vin": [{"txinwitness": ["3045022100a5697d9bcadf334835087b33380f0ed40880aa36d06058fb2197338af2f0011e02207645f394e22c48bd0ff7cf1488e6674c1f8e0f56f332997bb27820ea672977fd01", "02e260de8ea4e487ef441c8ddc31560f6368ae2f06ef7261eaa22640e38dbdb7c9"], "sequence": 4294967294, "scriptSig": {"hex": "160014b41b7dfd4ab2eba40e3c68437aa23a8ffe6eada1", "asm": "0014b41b7dfd4ab2eba40e3c68437aa23a8ffe6eada1"}, "vout": 0, "txid": "98139f5dc079acbdfa144ae909106bdb7c5cd8a0231527b0803d7f271ec4b302"}, {"txinwitness": ["3045022100b95bb8eeea7d9854efa1f57384bdac34daaec4ce6c4dc7d7db3efb140e15b7eb0220068edf0f316c09e6c95b8e7be5c77f644cb8aac524ff34cde8b5e36362c0a33d01", "030b98196460b8b91b7eca7886fa1bb957bd3b4ddd641e8b9da3622f7f51b461b5"], "sequence": 4294967294, "scriptSig": {"hex": "1600147a01169959cf595f48a43f3ce6415067bd5a8210", "asm": "00147a01169959cf595f48a43f3ce6415067bd5a8210"}, "vout": 10, "txid": "b2e0d8c659e09512fb05aee08d8f6a18974231d3c8cedd2570eec34b36e9681e"}], "txid": "6e94e724dbbd1b08e44cbbb734b66a9a28d64102c856a470c44262663343d482", "blocktime": 1537871767, "version": 2, "confirmations": 11495, "time": 1537871767, "locktime": 542947, "vsize": 259, "size": 422}