{"hash": "b7ed003219e06f06856fce9ab1b78b5a28940eeb2044dd28b5322f4aff0600bf", "blockhash": "0000000000000000001f0ddff1eddb255c1121bcd4da4f1bc9a0da00cae72433", "vout": [{"scriptPubKey": {"reqSigs": 1, "hex": "002092f79fba759ed7d1428723c5c11d026167a26b81748d2944ad3a30bd5048dd00", "addresses": ["bc1qjtmelwn4nmtazs58y0zuz8gzv9n6y6upwjxjj39d8gct65zgm5qqmsw364"], "asm": "0 92f79fba759ed7d1428723c5c11d026167a26b81748d2944ad3a30bd5048dd00", "type": "witness_v0_scripthash"}, "value": 0.39946061, "n": 0}], "hex": "01000000000121d243fad9b35f686c410d4a4b8b80ec7481b5980b64539b48b26342fc27377cb40000000000ffffffffff4640ea8796503a54a6867a29e2742d715468ff21c76d0d465902d6eced15950000000000ffffffff19888aa2b2f2a62a62fbb431d567463cb73e079ae472dadcf0cccbb49002817e0000000000ffffffffb3a5695605ffeaa36dbfe437c57384fa13d7b988d01b95ca5b2ff2b6237a50c10000000000ffffffff3ab3ad12fb7b2692f3e29e40f90e668bda9bba5f194c44e5ed7b1c83123e6e830000000000ffffffff8b3b6090387ec499ad70b89d5f0c59254ed563a729ed83c2b30bcce473bb70a80000000000ffffffff89cf77b2c60c923eaf1b5b06a4c34af40922d55e5d24bcb9a1312d01b06a029d0000000000ffffffffec0fdd50d29d6f7b2320e2d9d5f176026be6d1d1a9ceb0e1365d1310eb8baa930000000000ffffffffa1e1b18e2f6c709fdae78017c6c3434c99090cfd965f82a47923e5558f346ef50000000000ffffffffdfb5c594f351ab0c091e6fe2ad21b39ca8104d5850f4fd95dfe2f7b718b8766f0000000000ffffffff3bf2332e66811db27cea3666715e27a788a9a9425c0b00025970afc25ac7125c0000000000ffffffff0d452a4fc4448fc30747da13ff9489df3aea12d1daf4c5c8d95dec15e4550bee0000000000ffffffff432e60c3843b8b3ff7ce64a31101bae19bf279f8574b78facedcfbd99b2979bd0000000000ffffffff891330a145c104a90b709eb2ab4f71f1d9fabc4254c9856d59d680647a7a797f0000000000ffffffffea2b1957dd505195c8378c70533dc9a54074126880c2a861f2074193db78d4d40000000000ffffffff32f78e71f2a9f0b35650290b6da1b2bfd9c054f981cc16a191d12dc763ee3ba40000000000ffffffff6b4a9040fdd6a500322105a502bf0e98a6689ee0988e5582bf6bc5950b85ed160000000000ffffffff0215ee61fd80496d03bf67403afcff2e9d88f678179682ab4cec3fb1a99382e30000000000ffffffffb4be6e9f48006a275e0cb47e1554d5856c67b2dacf9ab62f5428f385b63ee0120000000000ffffffff09be090bbd845e02d3e0bae01f7c106661c3bb06315f60477a53cdc6b96151950000000000ffffffff5b6cf519306f79cca0dbf56a4bef9d8fd0989200e6a8c98b9af284efa4e318350000000000ffffffff1246a72ad3c2dbe774b150ffd8223d18eb410c8797600e849a9bb769932185550000000000ffffffff0ae46481ef175e5cd965a7b0b6ccaebc13f239d86e8afa3fec0a07dbe158bca00000000000ffffffff98f6b4b55fbb34f1165971d73d54f2a8af40ded03e263fd6f9fb3e8d132efd0c0000000000ffffffffdf42f7a800de39cbbfee8c8d4f1b376b53276b9afa1c09217059990b1a0e82450000000000ffffffff227c3d3342d79012c3b02e4311f57dbbb9ec956d7d596ecfec6e426fdf64deb70000000000ffffffff348454659523daf026782ede65c9d47bc1be0ddad5efcaca7d437205fd8683640000000000ffffffff6d6020f525f35edd323bbc280106d6c3433d6d8024a086cd0a79980429e480f80000000000ffffffffb52eb9459772ff45c75d7ba080e5f0386ad8e10ad66deda92958c6525aa71ac00000000000ffffffff5b8674438aa5bca169eb092f166c629b2695be4af16e385f50fffa4618aa04d80000000000ffffffff77883c2668971361600d2503981a8bf1d0c1445909496afaea7349654f2188b00000000000ffffffff35f1ac30d9b7e58bfbc8189a7ec9fd97e693b8a473dd0cbd005fc29518e090f00000000000ffffffffb3d98db98615be9e6fbfd3eb380fa3e50a8ecd0c11cc6c35333f33f8ae58fe570000000000ffffffff014d8761020000000022002092f79fba759ed7d1428723c5c11d026167a26b81748d2944ad3a30bd5048dd000400483045022100ebb5ba2144bdbe6ef93c131ca35e12127acaee69e8850dc58036d7f1d938bdaf02206f11523a7a86c26fb047d955a543ba94c7c49e4797f6cbe1ecd2f95b8e27750401483045022100c2303022a0831349e28320962d1c11c120a5227657f47c7a496be3e9202d0aa00220538e8b5319ba87314d4b2bfbbe38c6d48be0ed3d5d14d7297609b088a0f4132601475221039222ec187bdbf4d2a7b539f6b072e0ef01415149dd7816aeb99307256e81f1762102feb2538477491cdc4444e23b87d6dd3aa4c5bee60460a51c45380f14080f3f5952ae04004830450221008678214683770627f31adf818a36bf90303e3c91ed1237bbd5f4cff43b4aba4c02201729c34679651b0b1265a89002252f23f9a267ef55d356df9b0df36beb8cb25d0146304302206e6300adbb80ff96ef34c68a961f17ca7699f17aa237446518134a3dc269c68d021f07cfb054b99636b99d9859614383ab8695f05c97a0d918df4d5f98f3c1707701475221039222ec187bdbf4d2a7b539f6b072e0ef01415149dd7816aeb99307256e81f1762102feb2538477491cdc4444e23b87d6dd3aa4c5bee60460a51c45380f14080f3f5952ae0400473044022055f4a2d3bcb5d5aff084ac6853703ba1e51ab1e1fb080612d2b684c8ccece6d202203b14d282aec0f0b5a55ccede8f99130c1b5ed08a51d54b335dae19d9ba6e009101483045022100b5bee2c50cb7f36df1d9b76336db51253c6ef13014a8acbcc4c53f33dccad91e0220353fb95ef34cd0370b758b2ab47b1e293f203ad79d837e40603b05b48d5ad8d601475221039222ec187bdbf4d2a7b539f6b072e0ef01415149dd7816aeb99307256e81f1762102feb2538477491cdc4444e23b87d6dd3aa4c5bee60460a51c45380f14080f3f5952ae0400483045022100974b0a67ac02b42be93bdb6055529ae74273f7bee6358f2cc071ba30590995aa02203573028446c2cce86de9805010a66c1eceeb6d8ad83c3f53a8adcde66bec61ca01483045022100ba129460f8e071052445848f8f02ca00873f7900a19367908349d77c3b60652202203db7471c827496bae165ba3d0a863fc3f0ede772c455704e81762518dd79d1cf01475221039222ec187bdbf4d2a7b539f6b072e0ef01415149dd7816aeb99307256e81f1762102feb2538477491cdc4444e23b87d6dd3aa4c5bee60460a51c45380f14080f3f5952ae040047304402207bd9539a0a90f069d25aa93d6a7fa5a6b4a6478944d48bf391e6221f4580253402203e83d62f80bbb976c8e82bb26112085cb5c6a5e558dd6d7fd21cdb848a0496d30148304502210089659ac7850ea5e593a4e4649326c328063eed2a598fcf5d806a599cb709533802207de8a991c4517a594ec411511d243ce9e9ae88d9aa4a7aed465e16376ae289b501475221039222ec187bdbf4d2a7b539f6b072e0ef01415149dd7816aeb99307256e81f1762102feb2538477491cdc4444e23b87d6dd3aa4c5bee60460a51c45380f14080f3f5952ae0400483045022100d86551fcff28e18cfdf4ae0fdc5a56e64665690d5b6357a934089547df8d3a16022077b51d9348511baf41da15ebc069489db8854e97f16d141399eeb4cbc5d96fbb0148304502210084d592b99149ca1aae2e7efb40b61ccaa70cc83dd6b46fea46e618d56c64a52402204dffae181ba516da2206b9ae79f17ca838089f62c3fc369d6d6b4db9800f629b01475221039222ec187bdbf4d2a7b539f6b072e0ef01415149dd7816aeb99307256e81f1762102feb2538477491cdc4444e23b87d6dd3aa4c5bee60460a51c45380f14080f3f5952ae0400483045022100d365aad793d9752ecca3208c1c5765eef2f9cc16ca18d6aaf8841addbdf2d53402206882571259d4c18406db680914b28278d10ae07496f118c83c1af6b0c41d6e050147304402201c5a26446d2746f3414d6e57e1466b4279c5ac98b34b2abc52826c1c137e933a02201b5e271da5cf5f962a2ba576a2ade6d41f768e13d0239374f7f52dcb65084d3a01475221039222ec187bdbf4d2a7b539f6b072e0ef01415149dd7816aeb99307256e81f1762102feb2538477491cdc4444e23b87d6dd3aa4c5bee60460a51c45380f14080f3f5952ae0400483045022100b1197e5f320c7ff778ab452fdab112ae5fe5b018164254be776b8dcaed91e45502207c429e83c2b68ebf4c90ff6c722ea4dfba52d37fb34fd2d8ed9bccb0285c89fc0147304402205d13d5e0860836067aa6e1b4c5024f42e6e18b5dd2b4fd18766cc52c7b49876802202c964531a4b4c3e39a973b934607db2a5846cc05df77133a55bc4e7d15a947fa01475221039222ec187bdbf4d2a7b539f6b072e0ef01415149dd7816aeb99307256e81f1762102feb2538477491cdc4444e23b87d6dd3aa4c5bee60460a51c45380f14080f3f5952ae0400483045022100bec401e6f0fa9d6e8d1bcbd06843a7f20a0acb7086f61d34cbe429708fce0741022051cced9207d4110ff12b2eab59a76d04339835cd24a2848e8b4f19c91695096d014830450221009850159263e4f2e95ffddde1ddfcde10b0ae6379fe380ad063d3673f855873bf022077fcdb7e6889120e67ad1da0fcea9c6257ee97a91e52ceb1d7e13ff1b5d3afb801475221039222ec187bdbf4d2a7b539f6b072e0ef01415149dd7816aeb99307256e81f1762102feb2538477491cdc4444e23b87d6dd3aa4c5bee60460a51c45380f14080f3f5952ae0400483045022100c03581823dd15628cfdfb50ff01feee3a3b7ed6ece4a3b659f63f0f694d056ba02206f25bcdfa642879f80ea7bcbff5495c1815ee164a474dbbb7e978bf612a05d5701483045022100fb10766a51be08b2dbeaf109360fda4d9b6c92cebf3e384ddcaf8001d27662bd022001b349f76476074a12088fae628289175076eeeb7d9d87ae001816cfcb9eaf6a01475221039222ec187bdbf4d2a7b539f6b072e0ef01415149dd7816aeb99307256e81f1762102feb2538477491cdc4444e23b87d6dd3aa4c5bee60460a51c45380f14080f3f5952ae040047304402203cb974c5b3f6b82bf46c366744e8e75184c809a4ecbfa4d913ea34f94fd89e9302200f6c6227bfd45ecc6054d0d1410b06657425cc77633abf8f55719133f0ba5ba20148304502210091c704420f2a7bd4640f906cae6a9dde5b2abdaaa35befdc6a4808c090c8b194022005e53fdee29fc3222e4ced080a9fd009dc8288a908d89e253d584605fac764d201475221039222ec187bdbf4d2a7b539f6b072e0ef01415149dd7816aeb99307256e81f1762102feb2538477491cdc4444e23b87d6dd3aa4c5bee60460a51c45380f14080f3f5952ae0400483045022100933a38086341475540db38ca5e969c9016125cd4063b0b87c724b8422c3a8d10022012fabb9aafea8c45a508950519d1469c476aff368f8d8c6a8c79a95a3427892a01483045022100d5105d27e754ccbc45ddf9e312da391958e6bff8c070a9ae86766c230e6b23b002200c10f9f9bff849afd89b419a7fd304b5b51e54ea1ea4f97adfd13d66491e445001475221039222ec187bdbf4d2a7b539f6b072e0ef01415149dd7816aeb99307256e81f1762102feb2538477491cdc4444e23b87d6dd3aa4c5bee60460a51c45380f14080f3f5952ae0400473044022010fb501fe5c9ae39f856f1886cb9cfac24fbc63c6cddea2d89feeee7b8c1b2bd0220248379d371071238e664b67db24e5ce56824c884bb8da78c2aef42ee117cf4bd01473044022005695ed8c692761a7af9f6935135513f48698964c516d0566fc9e66aee6e694b022020d35d91cea4bc148044380e6fb6f73ee59367a2346c488ca841aad41df3318301475221039222ec187bdbf4d2a7b539f6b072e0ef01415149dd7816aeb99307256e81f1762102feb2538477491cdc4444e23b87d6dd3aa4c5bee60460a51c45380f14080f3f5952ae0400483045022100fd16c59b1f3c1ffae3dc0bffc3990bee6def2b9c364894a1eddb492e258a95cf02201cfea6f62eed970f03e39ae88d391335e4625dd243bb3930adda68313271ab1b01483045022100b55abd5481656444db8e56f3420ca7022173b965af2046ca25172d5aa70b6a8502207a397993af5a34411b61ebae22d649812edbff1f91ecdd58f1ba87b32481dd3f01475221039222ec187bdbf4d2a7b539f6b072e0ef01415149dd7816aeb99307256e81f1762102feb2538477491cdc4444e23b87d6dd3aa4c5bee60460a51c45380f14080f3f5952ae0400473044022040b8b74c4e3f37f0de4ea01063d19e0168b29bc5e54b5d76b64c7d541cc8667002201c04a8b91ed5c4179fa1862ab92d0ee7a37eee22e78d2f678c829933dd5021e60147304402207ea35c1e437825643da4a27f010bb53928c23f10cef0e4aac3426602718e0d9002200a909e00e522cd15bf013b9a0085fe4304c27341b26e327c5e771ae428b3d97a01475221039222ec187bdbf4d2a7b539f6b072e0ef01415149dd7816aeb99307256e81f1762102feb2538477491cdc4444e23b87d6dd3aa4c5bee60460a51c45380f14080f3f5952ae0400483045022100d6b0641bad68693d718ec2ae04896dd580222b37b5e17a635a4b9ab4503f68480220140ad3c93b6cf9c6a0caaf3b00671a67f6a3fddad8780625fb4412edad02a9b90147304402200b75e1d89b9a5089d10d7dc668976be045ea63ca273944478b53d820a0e3cffb02203d0432271a9347d2e6f7599308916fee9a0383a3cc084ad1df7e10d800029c6001475221039222ec187bdbf4d2a7b539f6b072e0ef01415149dd7816aeb99307256e81f1762102feb2538477491cdc4444e23b87d6dd3aa4c5bee60460a51c45380f14080f3f5952ae0400483045022100caaea632df1bce44e9974275507756e2d3f22070f7dcf3f3d7f679f9c75d80900220552d459cf9899d3012a72798ac52a53b914a4d5ea9a8d20c502d78cbe8425434014730440220048bb9d42339cf050bbb00e5e822e9d657a22516b14713d32fce7fd5c4bcbe8902203b5475299b3c113f59d41ba61c9bcf6cb15e884e8e3b1f651ec178ca4079c76b01475221039222ec187bdbf4d2a7b539f6b072e0ef01415149dd7816aeb99307256e81f1762102feb2538477491cdc4444e23b87d6dd3aa4c5bee60460a51c45380f14080f3f5952ae0400483045022100b12a4757edab7830245cac0cf0210fd02c534c2cc19458a1fbf5b8eb2ab7270b022057d79e87668b3207d3b419c684fdb6d7b626fd38125782bfa46470ac0c1f3d2a0148304502210086c15146403dc825c89ea8025016bda0572b87ca11dfcbb5ffd08aecb3b7041d02207866bb0c1ab3231616cdfac80b0a0c7dff35e5619fcfbf2ea0dcb6a52c7478e801475221039222ec187bdbf4d2a7b539f6b072e0ef01415149dd7816aeb99307256e81f1762102feb2538477491cdc4444e23b87d6dd3aa4c5bee60460a51c45380f14080f3f5952ae0400483045022100af5a738334a2cc514f508ff20d362d86fb90acd800d455a27725f4c4272e177a0220224c07712f5ca94759d9feb59e0153ac0bc83979f4f87b4d6c3883b13d57957201483045022100acca76081995dbf37e3ba98c15ef389ae6dc8e15a9fca2c082339a15158cf34102204ce271c009a104ff5504a54769d8343e32e1a40ad9d37285cafb5138b0c0067301475221039222ec187bdbf4d2a7b539f6b072e0ef01415149dd7816aeb99307256e81f1762102feb2538477491cdc4444e23b87d6dd3aa4c5bee60460a51c45380f14080f3f5952ae040047304402207eb7bc2a68b4a133752d4f3a31ba952e23a54bfbf2c17223cc6c8f2d52b21b5e022000997b7cc08c082f73d8657b3da35b8c8fc4b3c006863e0c0dffa706d112fc80014730440220285eeb0f84fa112297d1df254803a8024321360535f71bbc1087cf5e64c1ddad02205e45a6cb79d470014ec63c5770f06f94f5fff3c07f1d987c364be3abb245242401475221039222ec187bdbf4d2a7b539f6b072e0ef01415149dd7816aeb99307256e81f1762102feb2538477491cdc4444e23b87d6dd3aa4c5bee60460a51c45380f14080f3f5952ae040047304402204735f22b101cefd4e9c1085f0fe3aeb9b788819688202c12f0613f3e33fd5278022001c92f9b59896ca9f6f71d54908e318b3460aa8057b7be1831876b75d4f6f3470147304402201cc18ac46cf4492a6d473dd4d30b0ba3dd5bc02573e87f588d93051dc9a91a17022035a372284c97994781564bb77ca61e3dfaef42e05caf3b8eefc4254652e6030e01475221039222ec187bdbf4d2a7b539f6b072e0ef01415149dd7816aeb99307256e81f1762102feb2538477491cdc4444e23b87d6dd3aa4c5bee60460a51c45380f14080f3f5952ae0400483045022100ae48bedbe9646d6939d7a4e7d5d475570ae0e7ee083aef5d1bbc2bd59ca8fe6902200ef38db89ee3fcad1a9de8cdc49076c252e8af50d1010f519dffa84de5151dd201483045022100c8556398fb585371a1fceb16ade4e088c1745ea0f1e47f37885dcd1318d7f00d02203158fca9c5a5f95f9da21f323a14cb15efa043dde3aa7de01a74a96e01b7663a01475221039222ec187bdbf4d2a7b539f6b072e0ef01415149dd7816aeb99307256e81f1762102feb2538477491cdc4444e23b87d6dd3aa4c5bee60460a51c45380f14080f3f5952ae0400483045022100eabbd94c6f258c5865dd37a80a2e7b3707771206f3b6faa06e85160381a04c9502207baab181f5162e9a5214bc9f06751a38d94382dd30631e6fac8c044c60bf6e8701483045022100b9cbd144f25afd11377fbf6263000bad4f5b03cfa50b0d6f3110afc7b1d8f44202207aa1cde8d2c31b5662e8ecd6f4e4f150f8c71363ba4a98095711a7b0583ab04d01475221039222ec187bdbf4d2a7b539f6b072e0ef01415149dd7816aeb99307256e81f1762102feb2538477491cdc4444e23b87d6dd3aa4c5bee60460a51c45380f14080f3f5952ae040047304402204eff5d161df534a924db47ec922b926e00d5c36bdef9f49a448906e663fa3b2102205d835fa493306bfbe6e0d829910335b73e0e022dc9f4504019b9bbc6a49786f8014830450221009b86591cccb9a4b1456ca5ebd10454f30666e8fe95a79c94a1c195d74ac1222502207c5eaac06469ebce2cdc2429f8f6de1bc117bb09259d5ec85c7bf64bb074b4b801475221039222ec187bdbf4d2a7b539f6b072e0ef01415149dd7816aeb99307256e81f1762102feb2538477491cdc4444e23b87d6dd3aa4c5bee60460a51c45380f14080f3f5952ae0400483045022100f4236a193315990e7ddc3dd7e67c1afc3101fec0b7a480779ad8587713d319860220617e0d5ddf05479973a28df7b48e55d0ca4493c63747d26748a97df5ca52242a01483045022100984b2243ba6dc9949ae490772e318f0ecabe9d5c32747a82c01d6a0055763bd002207a9ef149f855bfd8e07d30fd2adc314335c7ce9d230a24ed2ec564434748675601475221039222ec187bdbf4d2a7b539f6b072e0ef01415149dd7816aeb99307256e81f1762102feb2538477491cdc4444e23b87d6dd3aa4c5bee60460a51c45380f14080f3f5952ae0400483045022100c9d76e533436c7aea9ff53ce3d35b315d19b8c7980996ee1d9903d0dc7ddc5b00220497d6c84c3e9d7304ea8e600eea2d7951f619866d88a9615c78858b2e1deb25201483045022100f630c83023c1c7c0b16643146b65afd9e350ba290a5a08b4c40a52678ea821d0022024184bece5bfc89900b028ebedb921a1dd2c13d144846fd9bef25e66d44d8ffd01475221039222ec187bdbf4d2a7b539f6b072e0ef01415149dd7816aeb99307256e81f1762102feb2538477491cdc4444e23b87d6dd3aa4c5bee60460a51c45380f14080f3f5952ae04004730440220136922d3b40a4199373413580fa5ddc2cce19dd301516a0cf997245a35d40a8a02207bddab3f49d15670c6c9c4ce829837e7d62be024bf2af06903fe27676ab9d97401483045022100b42d91e30b802053835eaf3a6668b799eabed8e3f6842ec192728d1652f09d4b02203339dfd1721bb7d14aa7ef700883bcc38ef5468420eec14f79c76c335ac094f601475221039222ec187bdbf4d2a7b539f6b072e0ef01415149dd7816aeb99307256e81f1762102feb2538477491cdc4444e23b87d6dd3aa4c5bee60460a51c45380f14080f3f5952ae040047304402205de5efcae39bcbe5dcb7c32c881b6a27028075928b6f2c066622985b20b8571902206bb1668f91a920a0026f0aa692c30fb83c74aa0ca14d84d05d890e11e5baf642014730440220643b4e6c58d09d15cf9bd37c25240e9aaa3700ac14011b8dd80fcb30764231d70220064300e8c7f9b336c48c7bddc3b2d4db2be67cc49342b82a6065a5596b57ca1e01475221039222ec187bdbf4d2a7b539f6b072e0ef01415149dd7816aeb99307256e81f1762102feb2538477491cdc4444e23b87d6dd3aa4c5bee60460a51c45380f14080f3f5952ae04004730440220321751b00b857f4942c3e66304bde400e68656112c6fdc08205614f5bd66981502201ef4f25d2eeffa9e25a5deb64fd2b7fa86484f161fdd1991851a547dbd411bfd01473044022060f2349132496e70f3d5d2eff11c7e1ac13bc91b16331b91d2b262bce8747b3d02206115123573fba48c10865b9b136d4b0e190671be9bf792c85fa195e6e8c25d7301475221039222ec187bdbf4d2a7b539f6b072e0ef01415149dd7816aeb99307256e81f1762102feb2538477491cdc4444e23b87d6dd3aa4c5bee60460a51c45380f14080f3f5952ae04004730440220495099b0f14550c5c13d105bb254692de12c822a4e42934aba2130943f191104022016fe0ff0247cf57f1f17fa963bbbdd8222e43dcbb4fd2d203f7920ba55fb457b0147304402207c6fc278686530e96dfb961e514263da89a5fd1200fe730efab52ac46c61035002201a03b8437b4ca105a37ae87b61fe9d026992c18b7a7af9e3f0333b844a3e25f901475221039222ec187bdbf4d2a7b539f6b072e0ef01415149dd7816aeb99307256e81f1762102feb2538477491cdc4444e23b87d6dd3aa4c5bee60460a51c45380f14080f3f5952ae0400473044022013e4ab5d1beb9588ea3fd4e9e365b7657ad0ead113a5c330cceb3e4e3be36ec5022033877f0ecc6503fc1e5ba884bd9c109f842095f6e064d6d61dc29f421c8bac44014730440220517430e4ec2a135e53d22893e276eae05e4a3af6f11fd56967630d9da62b949502200e890ce28fa59c5153bf481eb4374c3acf2b9faeceabc5113d8a8c382a98bf6401475221039222ec187bdbf4d2a7b539f6b072e0ef01415149dd7816aeb99307256e81f1762102feb2538477491cdc4444e23b87d6dd3aa4c5bee60460a51c45380f14080f3f5952ae0400483045022100e848171ab346fde80dfa84e133e948e13a1866d9b8e9d9c9d040988d37db976c02200fe39a77e51b9c25f72e391756a863e06266a2aa566f7b79b5db389292e6e94101473044022067316750e2e45d785b603354b1317ee9f2cda86768b4b49b614775098d3e09750220182b530ebeab241d0b4f1fa3da135e61035bfff523443091120a654d42664dac01475221039222ec187bdbf4d2a7b539f6b072e0ef01415149dd7816aeb99307256e81f1762102feb2538477491cdc4444e23b87d6dd3aa4c5bee60460a51c45380f14080f3f5952ae040047304402204f8337e1acb1329190352f76fa973380873f07c3e4ede826f73de929d3ce53960220027b68287a77eba8a2a2803a85e19a17cdadff91dfaa824627de329a4dab24bb01483045022100f7c2c024e856d0a4afc067a2565917de3caab19b9d122371255beaa9627cac4802202a1027d1395e1b1052a41dfb49dc649f7d72725ecd5d6725e6dd3499486cb5d401475221039222ec187bdbf4d2a7b539f6b072e0ef01415149dd7816aeb99307256e81f1762102feb2538477491cdc4444e23b87d6dd3aa4c5bee60460a51c45380f14080f3f5952ae00000000", "vin": [{"txinwitness": ["", "3045022100ebb5ba2144bdbe6ef93c131ca35e12127acaee69e8850dc58036d7f1d938bdaf02206f11523a7a86c26fb047d955a543ba94c7c49e4797f6cbe1ecd2f95b8e27750401", "3045022100c2303022a0831349e28320962d1c11c120a5227657f47c7a496be3e9202d0aa00220538e8b5319ba87314d4b2bfbbe38c6d48be0ed3d5d14d7297609b088a0f4132601", "5221039222ec187bdbf4d2a7b539f6b072e0ef01415149dd7816aeb99307256e81f1762102feb2538477491cdc4444e23b87d6dd3aa4c5bee60460a51c45380f14080f3f5952ae"], "sequence": 4294967295, "scriptSig": {"hex": "", "asm": ""}, "vout": 0, "txid": "b47c3727fc4263b2489b53640b98b58174ec808b4b4a0d416c685fb3d9fa43d2"}, {"txinwitness": ["", "30450221008678214683770627f31adf818a36bf90303e3c91ed1237bbd5f4cff43b4aba4c02201729c34679651b0b1265a89002252f23f9a267ef55d356df9b0df36beb8cb25d01", "304302206e6300adbb80ff96ef34c68a961f17ca7699f17aa237446518134a3dc269c68d021f07cfb054b99636b99d9859614383ab8695f05c97a0d918df4d5f98f3c1707701", "5221039222ec187bdbf4d2a7b539f6b072e0ef01415149dd7816aeb99307256e81f1762102feb2538477491cdc4444e23b87d6dd3aa4c5bee60460a51c45380f14080f3f5952ae"], "sequence": 4294967295, "scriptSig": {"hex": "", "asm": ""}, "vout": 0, "txid": "9515edecd60259460d6dc721ff6854712d74e2297a86a6543a509687ea4046ff"}, {"txinwitness": ["", "3044022055f4a2d3bcb5d5aff084ac6853703ba1e51ab1e1fb080612d2b684c8ccece6d202203b14d282aec0f0b5a55ccede8f99130c1b5ed08a51d54b335dae19d9ba6e009101", "3045022100b5bee2c50cb7f36df1d9b76336db51253c6ef13014a8acbcc4c53f33dccad91e0220353fb95ef34cd0370b758b2ab47b1e293f203ad79d837e40603b05b48d5ad8d601", "5221039222ec187bdbf4d2a7b539f6b072e0ef01415149dd7816aeb99307256e81f1762102feb2538477491cdc4444e23b87d6dd3aa4c5bee60460a51c45380f14080f3f5952ae"], "sequence": 4294967295, "scriptSig": {"hex": "", "asm": ""}, "vout": 0, "txid": "7e810290b4cbccf0dcda72e49a073eb73c4667d531b4fb622aa6f2b2a28a8819"}, {"txinwitness": ["", "3045022100974b0a67ac02b42be93bdb6055529ae74273f7bee6358f2cc071ba30590995aa02203573028446c2cce86de9805010a66c1eceeb6d8ad83c3f53a8adcde66bec61ca01", "3045022100ba129460f8e071052445848f8f02ca00873f7900a19367908349d77c3b60652202203db7471c827496bae165ba3d0a863fc3f0ede772c455704e81762518dd79d1cf01", "5221039222ec187bdbf4d2a7b539f6b072e0ef01415149dd7816aeb99307256e81f1762102feb2538477491cdc4444e23b87d6dd3aa4c5bee60460a51c45380f14080f3f5952ae"], "sequence": 4294967295, "scriptSig": {"hex": "", "asm": ""}, "vout": 0, "txid": "c1507a23b6f22f5bca951bd088b9d713fa8473c537e4bf6da3eaff055669a5b3"}, {"txinwitness": ["", "304402207bd9539a0a90f069d25aa93d6a7fa5a6b4a6478944d48bf391e6221f4580253402203e83d62f80bbb976c8e82bb26112085cb5c6a5e558dd6d7fd21cdb848a0496d301", "304502210089659ac7850ea5e593a4e4649326c328063eed2a598fcf5d806a599cb709533802207de8a991c4517a594ec411511d243ce9e9ae88d9aa4a7aed465e16376ae289b501", "5221039222ec187bdbf4d2a7b539f6b072e0ef01415149dd7816aeb99307256e81f1762102feb2538477491cdc4444e23b87d6dd3aa4c5bee60460a51c45380f14080f3f5952ae"], "sequence": 4294967295, "scriptSig": {"hex": "", "asm": ""}, "vout": 0, "txid": "836e3e12831c7bede5444c195fba9bda8b660ef9409ee2f392267bfb12adb33a"}, {"txinwitness": ["", "3045022100d86551fcff28e18cfdf4ae0fdc5a56e64665690d5b6357a934089547df8d3a16022077b51d9348511baf41da15ebc069489db8854e97f16d141399eeb4cbc5d96fbb01", "304502210084d592b99149ca1aae2e7efb40b61ccaa70cc83dd6b46fea46e618d56c64a52402204dffae181ba516da2206b9ae79f17ca838089f62c3fc369d6d6b4db9800f629b01", "5221039222ec187bdbf4d2a7b539f6b072e0ef01415149dd7816aeb99307256e81f1762102feb2538477491cdc4444e23b87d6dd3aa4c5bee60460a51c45380f14080f3f5952ae"], "sequence": 4294967295, "scriptSig": {"hex": "", "asm": ""}, "vout": 0, "txid": "a870bb73e4cc0bb3c283ed29a763d54e25590c5f9db870ad99c47e3890603b8b"}, {"txinwitness": ["", "3045022100d365aad793d9752ecca3208c1c5765eef2f9cc16ca18d6aaf8841addbdf2d53402206882571259d4c18406db680914b28278d10ae07496f118c83c1af6b0c41d6e0501", "304402201c5a26446d2746f3414d6e57e1466b4279c5ac98b34b2abc52826c1c137e933a02201b5e271da5cf5f962a2ba576a2ade6d41f768e13d0239374f7f52dcb65084d3a01", "5221039222ec187bdbf4d2a7b539f6b072e0ef01415149dd7816aeb99307256e81f1762102feb2538477491cdc4444e23b87d6dd3aa4c5bee60460a51c45380f14080f3f5952ae"], "sequence": 4294967295, "scriptSig": {"hex": "", "asm": ""}, "vout": 0, "txid": "9d026ab0012d31a1b9bc245d5ed52209f44ac3a4065b1baf3e920cc6b277cf89"}, {"txinwitness": ["", "3045022100b1197e5f320c7ff778ab452fdab112ae5fe5b018164254be776b8dcaed91e45502207c429e83c2b68ebf4c90ff6c722ea4dfba52d37fb34fd2d8ed9bccb0285c89fc01", "304402205d13d5e0860836067aa6e1b4c5024f42e6e18b5dd2b4fd18766cc52c7b49876802202c964531a4b4c3e39a973b934607db2a5846cc05df77133a55bc4e7d15a947fa01", "5221039222ec187bdbf4d2a7b539f6b072e0ef01415149dd7816aeb99307256e81f1762102feb2538477491cdc4444e23b87d6dd3aa4c5bee60460a51c45380f14080f3f5952ae"], "sequence": 4294967295, "scriptSig": {"hex": "", "asm": ""}, "vout": 0, "txid": "93aa8beb10135d36e1b0cea9d1d1e66b0276f1d5d9e220237b6f9dd250dd0fec"}, {"txinwitness": ["", "3045022100bec401e6f0fa9d6e8d1bcbd06843a7f20a0acb7086f61d34cbe429708fce0741022051cced9207d4110ff12b2eab59a76d04339835cd24a2848e8b4f19c91695096d01", "30450221009850159263e4f2e95ffddde1ddfcde10b0ae6379fe380ad063d3673f855873bf022077fcdb7e6889120e67ad1da0fcea9c6257ee97a91e52ceb1d7e13ff1b5d3afb801", "5221039222ec187bdbf4d2a7b539f6b072e0ef01415149dd7816aeb99307256e81f1762102feb2538477491cdc4444e23b87d6dd3aa4c5bee60460a51c45380f14080f3f5952ae"], "sequence": 4294967295, "scriptSig": {"hex": "", "asm": ""}, "vout": 0, "txid": "f56e348f55e52379a4825f96fd0c09994c43c3c61780e7da9f706c2f8eb1e1a1"}, {"txinwitness": ["", "3045022100c03581823dd15628cfdfb50ff01feee3a3b7ed6ece4a3b659f63f0f694d056ba02206f25bcdfa642879f80ea7bcbff5495c1815ee164a474dbbb7e978bf612a05d5701", "3045022100fb10766a51be08b2dbeaf109360fda4d9b6c92cebf3e384ddcaf8001d27662bd022001b349f76476074a12088fae628289175076eeeb7d9d87ae001816cfcb9eaf6a01", "5221039222ec187bdbf4d2a7b539f6b072e0ef01415149dd7816aeb99307256e81f1762102feb2538477491cdc4444e23b87d6dd3aa4c5bee60460a51c45380f14080f3f5952ae"], "sequence": 4294967295, "scriptSig": {"hex": "", "asm": ""}, "vout": 0, "txid": "6f76b818b7f7e2df95fdf450584d10a89cb321ade26f1e090cab51f394c5b5df"}, {"txinwitness": ["", "304402203cb974c5b3f6b82bf46c366744e8e75184c809a4ecbfa4d913ea34f94fd89e9302200f6c6227bfd45ecc6054d0d1410b06657425cc77633abf8f55719133f0ba5ba201", "304502210091c704420f2a7bd4640f906cae6a9dde5b2abdaaa35befdc6a4808c090c8b194022005e53fdee29fc3222e4ced080a9fd009dc8288a908d89e253d584605fac764d201", "5221039222ec187bdbf4d2a7b539f6b072e0ef01415149dd7816aeb99307256e81f1762102feb2538477491cdc4444e23b87d6dd3aa4c5bee60460a51c45380f14080f3f5952ae"], "sequence": 4294967295, "scriptSig": {"hex": "", "asm": ""}, "vout": 0, "txid": "5c12c75ac2af705902000b5c42a9a988a7275e716636ea7cb21d81662e33f23b"}, {"txinwitness": ["", "3045022100933a38086341475540db38ca5e969c9016125cd4063b0b87c724b8422c3a8d10022012fabb9aafea8c45a508950519d1469c476aff368f8d8c6a8c79a95a3427892a01", "3045022100d5105d27e754ccbc45ddf9e312da391958e6bff8c070a9ae86766c230e6b23b002200c10f9f9bff849afd89b419a7fd304b5b51e54ea1ea4f97adfd13d66491e445001", "5221039222ec187bdbf4d2a7b539f6b072e0ef01415149dd7816aeb99307256e81f1762102feb2538477491cdc4444e23b87d6dd3aa4c5bee60460a51c45380f14080f3f5952ae"], "sequence": 4294967295, "scriptSig": {"hex": "", "asm": ""}, "vout": 0, "txid": "ee0b55e415ec5dd9c8c5f4dad112ea3adf8994ff13da4707c38f44c44f2a450d"}, {"txinwitness": ["", "3044022010fb501fe5c9ae39f856f1886cb9cfac24fbc63c6cddea2d89feeee7b8c1b2bd0220248379d371071238e664b67db24e5ce56824c884bb8da78c2aef42ee117cf4bd01", "3044022005695ed8c692761a7af9f6935135513f48698964c516d0566fc9e66aee6e694b022020d35d91cea4bc148044380e6fb6f73ee59367a2346c488ca841aad41df3318301", "5221039222ec187bdbf4d2a7b539f6b072e0ef01415149dd7816aeb99307256e81f1762102feb2538477491cdc4444e23b87d6dd3aa4c5bee60460a51c45380f14080f3f5952ae"], "sequence": 4294967295, "scriptSig": {"hex": "", "asm": ""}, "vout": 0, "txid": "bd79299bd9fbdccefa784b57f879f29be1ba0111a364cef73f8b3b84c3602e43"}, {"txinwitness": ["", "3045022100fd16c59b1f3c1ffae3dc0bffc3990bee6def2b9c364894a1eddb492e258a95cf02201cfea6f62eed970f03e39ae88d391335e4625dd243bb3930adda68313271ab1b01", "3045022100b55abd5481656444db8e56f3420ca7022173b965af2046ca25172d5aa70b6a8502207a397993af5a34411b61ebae22d649812edbff1f91ecdd58f1ba87b32481dd3f01", "5221039222ec187bdbf4d2a7b539f6b072e0ef01415149dd7816aeb99307256e81f1762102feb2538477491cdc4444e23b87d6dd3aa4c5bee60460a51c45380f14080f3f5952ae"], "sequence": 4294967295, "scriptSig": {"hex": "", "asm": ""}, "vout": 0, "txid": "7f797a7a6480d6596d85c95442bcfad9f1714fabb29e700ba904c145a1301389"}, {"txinwitness": ["", "3044022040b8b74c4e3f37f0de4ea01063d19e0168b29bc5e54b5d76b64c7d541cc8667002201c04a8b91ed5c4179fa1862ab92d0ee7a37eee22e78d2f678c829933dd5021e601", "304402207ea35c1e437825643da4a27f010bb53928c23f10cef0e4aac3426602718e0d9002200a909e00e522cd15bf013b9a0085fe4304c27341b26e327c5e771ae428b3d97a01", "5221039222ec187bdbf4d2a7b539f6b072e0ef01415149dd7816aeb99307256e81f1762102feb2538477491cdc4444e23b87d6dd3aa4c5bee60460a51c45380f14080f3f5952ae"], "sequence": 4294967295, "scriptSig": {"hex": "", "asm": ""}, "vout": 0, "txid": "d4d478db934107f261a8c28068127440a5c93d53708c37c8955150dd57192bea"}, {"txinwitness": ["", "3045022100d6b0641bad68693d718ec2ae04896dd580222b37b5e17a635a4b9ab4503f68480220140ad3c93b6cf9c6a0caaf3b00671a67f6a3fddad8780625fb4412edad02a9b901", "304402200b75e1d89b9a5089d10d7dc668976be045ea63ca273944478b53d820a0e3cffb02203d0432271a9347d2e6f7599308916fee9a0383a3cc084ad1df7e10d800029c6001", "5221039222ec187bdbf4d2a7b539f6b072e0ef01415149dd7816aeb99307256e81f1762102feb2538477491cdc4444e23b87d6dd3aa4c5bee60460a51c45380f14080f3f5952ae"], "sequence": 4294967295, "scriptSig": {"hex": "", "asm": ""}, "vout": 0, "txid": "a43bee63c72dd191a116cc81f954c0d9bfb2a16d0b295056b3f0a9f2718ef732"}, {"txinwitness": ["", "3045022100caaea632df1bce44e9974275507756e2d3f22070f7dcf3f3d7f679f9c75d80900220552d459cf9899d3012a72798ac52a53b914a4d5ea9a8d20c502d78cbe842543401", "30440220048bb9d42339cf050bbb00e5e822e9d657a22516b14713d32fce7fd5c4bcbe8902203b5475299b3c113f59d41ba61c9bcf6cb15e884e8e3b1f651ec178ca4079c76b01", "5221039222ec187bdbf4d2a7b539f6b072e0ef01415149dd7816aeb99307256e81f1762102feb2538477491cdc4444e23b87d6dd3aa4c5bee60460a51c45380f14080f3f5952ae"], "sequence": 4294967295, "scriptSig": {"hex": "", "asm": ""}, "vout": 0, "txid": "16ed850b95c56bbf82558e98e09e68a6980ebf02a505213200a5d6fd40904a6b"}, {"txinwitness": ["", "3045022100b12a4757edab7830245cac0cf0210fd02c534c2cc19458a1fbf5b8eb2ab7270b022057d79e87668b3207d3b419c684fdb6d7b626fd38125782bfa46470ac0c1f3d2a01", "304502210086c15146403dc825c89ea8025016bda0572b87ca11dfcbb5ffd08aecb3b7041d02207866bb0c1ab3231616cdfac80b0a0c7dff35e5619fcfbf2ea0dcb6a52c7478e801", "5221039222ec187bdbf4d2a7b539f6b072e0ef01415149dd7816aeb99307256e81f1762102feb2538477491cdc4444e23b87d6dd3aa4c5bee60460a51c45380f14080f3f5952ae"], "sequence": 4294967295, "scriptSig": {"hex": "", "asm": ""}, "vout": 0, "txid": "e38293a9b13fec4cab82961778f6889d2efffc3a4067bf036d4980fd61ee1502"}, {"txinwitness": ["", "3045022100af5a738334a2cc514f508ff20d362d86fb90acd800d455a27725f4c4272e177a0220224c07712f5ca94759d9feb59e0153ac0bc83979f4f87b4d6c3883b13d57957201", "3045022100acca76081995dbf37e3ba98c15ef389ae6dc8e15a9fca2c082339a15158cf34102204ce271c009a104ff5504a54769d8343e32e1a40ad9d37285cafb5138b0c0067301", "5221039222ec187bdbf4d2a7b539f6b072e0ef01415149dd7816aeb99307256e81f1762102feb2538477491cdc4444e23b87d6dd3aa4c5bee60460a51c45380f14080f3f5952ae"], "sequence": 4294967295, "scriptSig": {"hex": "", "asm": ""}, "vout": 0, "txid": "12e03eb685f328542fb69acfdab2676c85d554157eb40c5e276a00489f6ebeb4"}, {"txinwitness": ["", "304402207eb7bc2a68b4a133752d4f3a31ba952e23a54bfbf2c17223cc6c8f2d52b21b5e022000997b7cc08c082f73d8657b3da35b8c8fc4b3c006863e0c0dffa706d112fc8001", "30440220285eeb0f84fa112297d1df254803a8024321360535f71bbc1087cf5e64c1ddad02205e45a6cb79d470014ec63c5770f06f94f5fff3c07f1d987c364be3abb245242401", "5221039222ec187bdbf4d2a7b539f6b072e0ef01415149dd7816aeb99307256e81f1762102feb2538477491cdc4444e23b87d6dd3aa4c5bee60460a51c45380f14080f3f5952ae"], "sequence": 4294967295, "scriptSig": {"hex": "", "asm": ""}, "vout": 0, "txid": "955161b9c6cd537a47605f3106bbc36166107c1fe0bae0d3025e84bd0b09be09"}, {"txinwitness": ["", "304402204735f22b101cefd4e9c1085f0fe3aeb9b788819688202c12f0613f3e33fd5278022001c92f9b59896ca9f6f71d54908e318b3460aa8057b7be1831876b75d4f6f34701", "304402201cc18ac46cf4492a6d473dd4d30b0ba3dd5bc02573e87f588d93051dc9a91a17022035a372284c97994781564bb77ca61e3dfaef42e05caf3b8eefc4254652e6030e01", "5221039222ec187bdbf4d2a7b539f6b072e0ef01415149dd7816aeb99307256e81f1762102feb2538477491cdc4444e23b87d6dd3aa4c5bee60460a51c45380f14080f3f5952ae"], "sequence": 4294967295, "scriptSig": {"hex": "", "asm": ""}, "vout": 0, "txid": "3518e3a4ef84f29a8bc9a8e6009298d08f9def4b6af5dba0cc796f3019f56c5b"}, {"txinwitness": ["", "3045022100ae48bedbe9646d6939d7a4e7d5d475570ae0e7ee083aef5d1bbc2bd59ca8fe6902200ef38db89ee3fcad1a9de8cdc49076c252e8af50d1010f519dffa84de5151dd201", "3045022100c8556398fb585371a1fceb16ade4e088c1745ea0f1e47f37885dcd1318d7f00d02203158fca9c5a5f95f9da21f323a14cb15efa043dde3aa7de01a74a96e01b7663a01", "5221039222ec187bdbf4d2a7b539f6b072e0ef01415149dd7816aeb99307256e81f1762102feb2538477491cdc4444e23b87d6dd3aa4c5bee60460a51c45380f14080f3f5952ae"], "sequence": 4294967295, "scriptSig": {"hex": "", "asm": ""}, "vout": 0, "txid": "5585219369b79b9a840e6097870c41eb183d22d8ff50b174e7dbc2d32aa74612"}, {"txinwitness": ["", "3045022100eabbd94c6f258c5865dd37a80a2e7b3707771206f3b6faa06e85160381a04c9502207baab181f5162e9a5214bc9f06751a38d94382dd30631e6fac8c044c60bf6e8701", "3045022100b9cbd144f25afd11377fbf6263000bad4f5b03cfa50b0d6f3110afc7b1d8f44202207aa1cde8d2c31b5662e8ecd6f4e4f150f8c71363ba4a98095711a7b0583ab04d01", "5221039222ec187bdbf4d2a7b539f6b072e0ef01415149dd7816aeb99307256e81f1762102feb2538477491cdc4444e23b87d6dd3aa4c5bee60460a51c45380f14080f3f5952ae"], "sequence": 4294967295, "scriptSig": {"hex": "", "asm": ""}, "vout": 0, "txid": "a0bc58e1db070aec3ffa8a6ed839f213bcaeccb6b0a765d95c5e17ef8164e40a"}, {"txinwitness": ["", "304402204eff5d161df534a924db47ec922b926e00d5c36bdef9f49a448906e663fa3b2102205d835fa493306bfbe6e0d829910335b73e0e022dc9f4504019b9bbc6a49786f801", "30450221009b86591cccb9a4b1456ca5ebd10454f30666e8fe95a79c94a1c195d74ac1222502207c5eaac06469ebce2cdc2429f8f6de1bc117bb09259d5ec85c7bf64bb074b4b801", "5221039222ec187bdbf4d2a7b539f6b072e0ef01415149dd7816aeb99307256e81f1762102feb2538477491cdc4444e23b87d6dd3aa4c5bee60460a51c45380f14080f3f5952ae"], "sequence": 4294967295, "scriptSig": {"hex": "", "asm": ""}, "vout": 0, "txid": "0cfd2e138d3efbf9d63f263ed0de40afa8f2543dd7715916f134bb5fb5b4f698"}, {"txinwitness": ["", "3045022100f4236a193315990e7ddc3dd7e67c1afc3101fec0b7a480779ad8587713d319860220617e0d5ddf05479973a28df7b48e55d0ca4493c63747d26748a97df5ca52242a01", "3045022100984b2243ba6dc9949ae490772e318f0ecabe9d5c32747a82c01d6a0055763bd002207a9ef149f855bfd8e07d30fd2adc314335c7ce9d230a24ed2ec564434748675601", "5221039222ec187bdbf4d2a7b539f6b072e0ef01415149dd7816aeb99307256e81f1762102feb2538477491cdc4444e23b87d6dd3aa4c5bee60460a51c45380f14080f3f5952ae"], "sequence": 4294967295, "scriptSig": {"hex": "", "asm": ""}, "vout": 0, "txid": "45820e1a0b99597021091cfa9a6b27536b371b4f8d8ceebfcb39de00a8f742df"}, {"txinwitness": ["", "3045022100c9d76e533436c7aea9ff53ce3d35b315d19b8c7980996ee1d9903d0dc7ddc5b00220497d6c84c3e9d7304ea8e600eea2d7951f619866d88a9615c78858b2e1deb25201", "3045022100f630c83023c1c7c0b16643146b65afd9e350ba290a5a08b4c40a52678ea821d0022024184bece5bfc89900b028ebedb921a1dd2c13d144846fd9bef25e66d44d8ffd01", "5221039222ec187bdbf4d2a7b539f6b072e0ef01415149dd7816aeb99307256e81f1762102feb2538477491cdc4444e23b87d6dd3aa4c5bee60460a51c45380f14080f3f5952ae"], "sequence": 4294967295, "scriptSig": {"hex": "", "asm": ""}, "vout": 0, "txid": "b7de64df6f426eeccf6e597d6d95ecb9bb7df511432eb0c31290d742333d7c22"}, {"txinwitness": ["", "30440220136922d3b40a4199373413580fa5ddc2cce19dd301516a0cf997245a35d40a8a02207bddab3f49d15670c6c9c4ce829837e7d62be024bf2af06903fe27676ab9d97401", "3045022100b42d91e30b802053835eaf3a6668b799eabed8e3f6842ec192728d1652f09d4b02203339dfd1721bb7d14aa7ef700883bcc38ef5468420eec14f79c76c335ac094f601", "5221039222ec187bdbf4d2a7b539f6b072e0ef01415149dd7816aeb99307256e81f1762102feb2538477491cdc4444e23b87d6dd3aa4c5bee60460a51c45380f14080f3f5952ae"], "sequence": 4294967295, "scriptSig": {"hex": "", "asm": ""}, "vout": 0, "txid": "648386fd0572437dcacaefd5da0dbec17bd4c965de2e7826f0da239565548434"}, {"txinwitness": ["", "304402205de5efcae39bcbe5dcb7c32c881b6a27028075928b6f2c066622985b20b8571902206bb1668f91a920a0026f0aa692c30fb83c74aa0ca14d84d05d890e11e5baf64201", "30440220643b4e6c58d09d15cf9bd37c25240e9aaa3700ac14011b8dd80fcb30764231d70220064300e8c7f9b336c48c7bddc3b2d4db2be67cc49342b82a6065a5596b57ca1e01", "5221039222ec187bdbf4d2a7b539f6b072e0ef01415149dd7816aeb99307256e81f1762102feb2538477491cdc4444e23b87d6dd3aa4c5bee60460a51c45380f14080f3f5952ae"], "sequence": 4294967295, "scriptSig": {"hex": "", "asm": ""}, "vout": 0, "txid": "f880e4290498790acd86a024806d3d43c3d6060128bc3b32dd5ef325f520606d"}, {"txinwitness": ["", "30440220321751b00b857f4942c3e66304bde400e68656112c6fdc08205614f5bd66981502201ef4f25d2eeffa9e25a5deb64fd2b7fa86484f161fdd1991851a547dbd411bfd01", "3044022060f2349132496e70f3d5d2eff11c7e1ac13bc91b16331b91d2b262bce8747b3d02206115123573fba48c10865b9b136d4b0e190671be9bf792c85fa195e6e8c25d7301", "5221039222ec187bdbf4d2a7b539f6b072e0ef01415149dd7816aeb99307256e81f1762102feb2538477491cdc4444e23b87d6dd3aa4c5bee60460a51c45380f14080f3f5952ae"], "sequence": 4294967295, "scriptSig": {"hex": "", "asm": ""}, "vout": 0, "txid": "c01aa75a52c65829a9ed6dd60ae1d86a38f0e580a07b5dc745ff729745b92eb5"}, {"txinwitness": ["", "30440220495099b0f14550c5c13d105bb254692de12c822a4e42934aba2130943f191104022016fe0ff0247cf57f1f17fa963bbbdd8222e43dcbb4fd2d203f7920ba55fb457b01", "304402207c6fc278686530e96dfb961e514263da89a5fd1200fe730efab52ac46c61035002201a03b8437b4ca105a37ae87b61fe9d026992c18b7a7af9e3f0333b844a3e25f901", "5221039222ec187bdbf4d2a7b539f6b072e0ef01415149dd7816aeb99307256e81f1762102feb2538477491cdc4444e23b87d6dd3aa4c5bee60460a51c45380f14080f3f5952ae"], "sequence": 4294967295, "scriptSig": {"hex": "", "asm": ""}, "vout": 0, "txid": "d804aa1846faff505f386ef14abe95269b626c162f09eb69a1bca58a4374865b"}, {"txinwitness": ["", "3044022013e4ab5d1beb9588ea3fd4e9e365b7657ad0ead113a5c330cceb3e4e3be36ec5022033877f0ecc6503fc1e5ba884bd9c109f842095f6e064d6d61dc29f421c8bac4401", "30440220517430e4ec2a135e53d22893e276eae05e4a3af6f11fd56967630d9da62b949502200e890ce28fa59c5153bf481eb4374c3acf2b9faeceabc5113d8a8c382a98bf6401", "5221039222ec187bdbf4d2a7b539f6b072e0ef01415149dd7816aeb99307256e81f1762102feb2538477491cdc4444e23b87d6dd3aa4c5bee60460a51c45380f14080f3f5952ae"], "sequence": 4294967295, "scriptSig": {"hex": "", "asm": ""}, "vout": 0, "txid": "b088214f654973eafa6a49095944c1d0f18b1a9803250d6061139768263c8877"}, {"txinwitness": ["", "3045022100e848171ab346fde80dfa84e133e948e13a1866d9b8e9d9c9d040988d37db976c02200fe39a77e51b9c25f72e391756a863e06266a2aa566f7b79b5db389292e6e94101", "3044022067316750e2e45d785b603354b1317ee9f2cda86768b4b49b614775098d3e09750220182b530ebeab241d0b4f1fa3da135e61035bfff523443091120a654d42664dac01", "5221039222ec187bdbf4d2a7b539f6b072e0ef01415149dd7816aeb99307256e81f1762102feb2538477491cdc4444e23b87d6dd3aa4c5bee60460a51c45380f14080f3f5952ae"], "sequence": 4294967295, "scriptSig": {"hex": "", "asm": ""}, "vout": 0, "txid": "f090e01895c25f00bd0cdd73a4b893e697fdc97e9a18c8fb8be5b7d930acf135"}, {"txinwitness": ["", "304402204f8337e1acb1329190352f76fa973380873f07c3e4ede826f73de929d3ce53960220027b68287a77eba8a2a2803a85e19a17cdadff91dfaa824627de329a4dab24bb01", "3045022100f7c2c024e856d0a4afc067a2565917de3caab19b9d122371255beaa9627cac4802202a1027d1395e1b1052a41dfb49dc649f7d72725ecd5d6725e6dd3499486cb5d401", "5221039222ec187bdbf4d2a7b539f6b072e0ef01415149dd7816aeb99307256e81f1762102feb2538477491cdc4444e23b87d6dd3aa4c5bee60460a51c45380f14080f3f5952ae"], "sequence": 4294967295, "scriptSig": {"hex": "", "asm": ""}, "vout": 0, "txid": "57fe58aef8333f33356ccc110ccd8e0ae5a30f38ebd3bf6f9ebe1586b98dd9b3"}], "txid": "6e980018b568e795a96a4e45bd26b40ed19cad81e280e017cbf3bcfc75a42663", "blocktime": 1537872018, "version": 1, "confirmations": 11489, "time": 1537872018, "locktime": 0, "vsize": 3215, "size": 8639}