{"hash": "6e9aeb51de3c241f3777cc5ed77db2eb49fe1f925bdac6c45769efee23509fdb", "blockhash": "0000000000000000001f76057863aec43deb6fa401d9628bb513d65a8098bfab", "vout": [{"scriptPubKey": {"reqSigs": 1, "hex": "76a914623b5823031c3acd162b12387acb13d5c3022ee788ac", "addresses": ["19xQK7XaHy51BP3jF5sPmi3Ng9Nd4KRqDV"], "asm": "OP_DUP OP_HASH160 623b5823031c3acd162b12387acb13d5c3022ee7 OP_EQUALVERIFY OP_CHECKSIG", "type": "pubkeyhash"}, "value": 0.00107691, "n": 0}], "hex": "0100000001f74ac95055c51d9b0e66b9557e617f1ae519fd0e24b17bf5c66c2c5bad80d3d6000000006a47304402205e6adcfa55a6c6e2ac41c5c62448f9b1c3578fdf25dde0a695b66cbe16954e9c022023562d0b5f0215178fb420129ced3bed94bfa4ab87073ff13b06f693ef9a229201210314a704d238a0b28fd1d4c9f4e80ffae268a1387bb9b9f89ccefbe063fab2fff2ffffffff01aba40100000000001976a914623b5823031c3acd162b12387acb13d5c3022ee788ac00000000", "vin": [{"sequence": 4294967295, "scriptSig": {"hex": "47304402205e6adcfa55a6c6e2ac41c5c62448f9b1c3578fdf25dde0a695b66cbe16954e9c022023562d0b5f0215178fb420129ced3bed94bfa4ab87073ff13b06f693ef9a229201210314a704d238a0b28fd1d4c9f4e80ffae268a1387bb9b9f89ccefbe063fab2fff2", "asm": "304402205e6adcfa55a6c6e2ac41c5c62448f9b1c3578fdf25dde0a695b66cbe16954e9c022023562d0b5f0215178fb420129ced3bed94bfa4ab87073ff13b06f693ef9a2292[ALL] 0314a704d238a0b28fd1d4c9f4e80ffae268a1387bb9b9f89ccefbe063fab2fff2"}, "vout": 0, "txid": "d6d380ad5b2c6cc6f57bb1240efd19e51a7f617e55b9660e9b1dc55550c94af7"}], "txid": "6e9aeb51de3c241f3777cc5ed77db2eb49fe1f925bdac6c45769efee23509fdb", "blocktime": 1537873891, "version": 1, "confirmations": 11478, "time": 1537873891, "locktime": 0, "vsize": 191, "size": 191}