{"hash": "6e9bcaf99f98b93bd078dc0bb126e82b8e1883665083b958c4e05adc1de388d4", "blockhash": "0000000000000000001f76057863aec43deb6fa401d9628bb513d65a8098bfab", "vout": [{"scriptPubKey": {"reqSigs": 1, "hex": "76a91468bc267a32cc1b7d72086bb11140e181abad485d88ac", "addresses": ["1AYnfs2aLcK3t1gKg3vtLhL8P3dcgaPJPz"], "asm": "OP_DUP OP_HASH160 68bc267a32cc1b7d72086bb11140e181abad485d OP_EQUALVERIFY OP_CHECKSIG", "type": "pubkeyhash"}, "value": 0.00232383, "n": 0}, {"scriptPubKey": {"reqSigs": 1, "hex": "76a9145964cf6c546b1763da86f40e7dfd95c696b679d488ac", "addresses": ["199fuVWu27ntVAosdG2ekR2RMkNChB6VLh"], "asm": "OP_DUP OP_HASH160 5964cf6c546b1763da86f40e7dfd95c696b679d4 OP_EQUALVERIFY OP_CHECKSIG", "type": "pubkeyhash"}, "value": 0.2, "n": 1}], "hex": "0100000004f9fae032f5bd88c5a50010daf130706ade34919c498c794b4a5dbee80c380e3f100000006a473044022034eedd31d8d2cfd7a4237a3c02581d7ce42f770cc3de292141c73268b27b7cf00220753c1d2e9f77a5739c4d24d4b12ae79c0953e0b32bee88fccc98a3df318e13520121030852cc66e1983c1617ecd003139f13d79d76b6d97d132d04b8a65c5f0559190bffffffff7a32a01442ebfab400190bf17461675358733268f0da1f06b1ce8aec300d4f76010000006b48304502210098243d26b6cc609542bb4192d1335a244b4ee9a0c3b8087989a28731339485a402203cd55ba6082594f37a43726367e785422afe21eb200d84dab6d10c1977ae8f610121038bd0188363c2047163142b95722452b90f11558e094b8c937bd131b42e88b284ffffffffad5ce24036e089cac76ecd0da3b35738d68c28d570a367846ba63e3972197883010000006b483045022100912d8162d0e0cfdeea19b2bb67e49f41fdedcf21c577f876ad2ef7d9b000d68802204f83f26402cbbdbb2eb7d368570bff2f97a80a7ad000b25570cabee757acb248012102975a153ba0ef6d1855c23fd2394656f8c3604012d420f0a620835f4c07a57a17ffffffffd5c7b7aa7bfab45d7abcbca621b3acaae18edc8f99165ae7326ba6c500cd6de3010000006b48304502210096e6c2f172b6012ea71ac597d93f649fe527821d09e23b8a3ddd8c31e9894856022026ac0e3d392d611fc168f2b55e34e31408d16f8e7b06804b711dd786c6bbdc0b012103a6e20f4bd7a081a37557b022b1967318725f67cf9e33f0ef4f3dc96c1a4c0112ffffffff02bf8b0300000000001976a91468bc267a32cc1b7d72086bb11140e181abad485d88ac002d3101000000001976a9145964cf6c546b1763da86f40e7dfd95c696b679d488ac00000000", "vin": [{"sequence": 4294967295, "scriptSig": {"hex": "473044022034eedd31d8d2cfd7a4237a3c02581d7ce42f770cc3de292141c73268b27b7cf00220753c1d2e9f77a5739c4d24d4b12ae79c0953e0b32bee88fccc98a3df318e13520121030852cc66e1983c1617ecd003139f13d79d76b6d97d132d04b8a65c5f0559190b", "asm": "3044022034eedd31d8d2cfd7a4237a3c02581d7ce42f770cc3de292141c73268b27b7cf00220753c1d2e9f77a5739c4d24d4b12ae79c0953e0b32bee88fccc98a3df318e1352[ALL] 030852cc66e1983c1617ecd003139f13d79d76b6d97d132d04b8a65c5f0559190b"}, "vout": 16, "txid": "3f0e380ce8be5d4a4b798c499c9134de6a7030f1da1000a5c588bdf532e0faf9"}, {"sequence": 4294967295, "scriptSig": {"hex": "48304502210098243d26b6cc609542bb4192d1335a244b4ee9a0c3b8087989a28731339485a402203cd55ba6082594f37a43726367e785422afe21eb200d84dab6d10c1977ae8f610121038bd0188363c2047163142b95722452b90f11558e094b8c937bd131b42e88b284", "asm": "304502210098243d26b6cc609542bb4192d1335a244b4ee9a0c3b8087989a28731339485a402203cd55ba6082594f37a43726367e785422afe21eb200d84dab6d10c1977ae8f61[ALL] 038bd0188363c2047163142b95722452b90f11558e094b8c937bd131b42e88b284"}, "vout": 1, "txid": "764f0d30ec8aceb1061fdaf06832735853676174f10b1900b4faeb4214a0327a"}, {"sequence": 4294967295, "scriptSig": {"hex": "483045022100912d8162d0e0cfdeea19b2bb67e49f41fdedcf21c577f876ad2ef7d9b000d68802204f83f26402cbbdbb2eb7d368570bff2f97a80a7ad000b25570cabee757acb248012102975a153ba0ef6d1855c23fd2394656f8c3604012d420f0a620835f4c07a57a17", "asm": "3045022100912d8162d0e0cfdeea19b2bb67e49f41fdedcf21c577f876ad2ef7d9b000d68802204f83f26402cbbdbb2eb7d368570bff2f97a80a7ad000b25570cabee757acb248[ALL] 02975a153ba0ef6d1855c23fd2394656f8c3604012d420f0a620835f4c07a57a17"}, "vout": 1, "txid": "83781972393ea66b8467a370d5288cd63857b3a30dcd6ec7ca89e03640e25cad"}, {"sequence": 4294967295, "scriptSig": {"hex": "48304502210096e6c2f172b6012ea71ac597d93f649fe527821d09e23b8a3ddd8c31e9894856022026ac0e3d392d611fc168f2b55e34e31408d16f8e7b06804b711dd786c6bbdc0b012103a6e20f4bd7a081a37557b022b1967318725f67cf9e33f0ef4f3dc96c1a4c0112", "asm": "304502210096e6c2f172b6012ea71ac597d93f649fe527821d09e23b8a3ddd8c31e9894856022026ac0e3d392d611fc168f2b55e34e31408d16f8e7b06804b711dd786c6bbdc0b[ALL] 03a6e20f4bd7a081a37557b022b1967318725f67cf9e33f0ef4f3dc96c1a4c0112"}, "vout": 1, "txid": "e36dcd00c5a66b32e75a16998fdc8ee1aaacb321a6bcbc7a5db4fa7baab7c7d5"}], "txid": "6e9bcaf99f98b93bd078dc0bb126e82b8e1883665083b958c4e05adc1de388d4", "blocktime": 1537873891, "version": 1, "confirmations": 11478, "time": 1537873891, "locktime": 0, "vsize": 669, "size": 669}