{"hash": "2f1131affb4bb0c279955c67b4d1f7c009e3230928a9a559ffa8b9443cd01f4c", "blockhash": "00000000000000000004ffacab907a6b429b9a5745fa0b75af4234bf69dd7176", "vout": [{"scriptPubKey": {"reqSigs": 1, "hex": "a91445687eeb56b8d23d9873e3c46b75ccb305a55abc87", "addresses": ["3821jGr5b7u6c6VXbf18gXjtJPvD22bPJT"], "asm": "OP_HASH160 45687eeb56b8d23d9873e3c46b75ccb305a55abc OP_EQUAL", "type": "scripthash"}, "value": 0.017742, "n": 0}, {"scriptPubKey": {"reqSigs": 1, "hex": "a9144d293bcdc8b44f39bc0c92eb41ca5b5ef1480d4687", "addresses": ["38j1MGxv8M2EzE5QVWzavCTicpwByECqCv"], "asm": "OP_HASH160 4d293bcdc8b44f39bc0c92eb41ca5b5ef1480d46 OP_EQUAL", "type": "scripthash"}, "value": 8.9008115, "n": 1}], "hex": "02000000000101327c427e0a25d3a5f06186a6c98e10330b399d793b422f24a533541efb8d739401000000171600143ff816c3a02e013cd7ea4b2c204674768da8a76dffffffff0278121b000000000017a91445687eeb56b8d23d9873e3c46b75ccb305a55abc877e8f0d350000000017a9144d293bcdc8b44f39bc0c92eb41ca5b5ef1480d468702473044022054571f36b4e7068a8942bb9df877cb99c70fc00ac2dc0826c477bbd843ccf320022058c3a6f340276fdbd94370e74fb303dec5785390da26e296a72191bc42bd2c8501210306f6e5c3dfeb94059c2c436c189768eff8f584c499fad5bb8e2f7ab65449bdeb00000000", "vin": [{"txinwitness": ["3044022054571f36b4e7068a8942bb9df877cb99c70fc00ac2dc0826c477bbd843ccf320022058c3a6f340276fdbd94370e74fb303dec5785390da26e296a72191bc42bd2c8501", "0306f6e5c3dfeb94059c2c436c189768eff8f584c499fad5bb8e2f7ab65449bdeb"], "sequence": 4294967295, "scriptSig": {"hex": "1600143ff816c3a02e013cd7ea4b2c204674768da8a76d", "asm": "00143ff816c3a02e013cd7ea4b2c204674768da8a76d"}, "vout": 1, "txid": "94738dfb1e5433a5242f423b799d390b33108ec9a68661f0a5d3250a7e427c32"}], "txid": "6e9cade61c54aa3e5a5a81f61abb6697768d167b9fef74d325c68532598c7309", "blocktime": 1537875543, "version": 2, "confirmations": 11464, "time": 1537875543, "locktime": 0, "vsize": 166, "size": 247}