{"hash": "6ea6805a58be286d3341921360c5887849607166379f6962fc944d4e4a806573", "blockhash": "00000000000000000017f5eb5941039fbcee6240d03bc1f2f8e35350df66a1d8", "vout": [{"scriptPubKey": {"reqSigs": 1, "hex": "a91404cd837ba6b51afea6606b1f8d47fc06f449a95b87", "addresses": ["328QpeTpa94hHVNn9bcYet9j782UtruiQq"], "asm": "OP_HASH160 04cd837ba6b51afea6606b1f8d47fc06f449a95b OP_EQUAL", "type": "scripthash"}, "value": 0.00363838, "n": 0}, {"scriptPubKey": {"reqSigs": 1, "hex": "76a91449bcd2d3e8743c7ad986c52383602e9ad91e447488ac", "addresses": ["17itXhEGCmRbAqhkeL9XpifvtoWsKRJ1EW"], "asm": "OP_DUP OP_HASH160 49bcd2d3e8743c7ad986c52383602e9ad91e4474 OP_EQUALVERIFY OP_CHECKSIG", "type": "pubkeyhash"}, "value": 0.00417271, "n": 1}], "hex": "0100000002244581631c86cbcbc4565e5464001a26c7922d40d91ce2ea003ac7333c8a0e9e010000006b483045022100940ac3a56b338be181f909b73acdd58694f722bc3cdf82893148dcba2369da2e0220632d4fdd6074cc7c42a5657bb1d4011d3f4f95f9c5152a23e5bb999d7eda1845012103d2ecdde45699507a384a7eb41aebe50a16403b57b17aaaf9ff0a5ef541a332adffffffffd287d69a0ef5b131e42d4dff5e564dcc87ff1cd053d755d659e12d664d91dceb010000006b483045022100e4b41a334f6dbefa850f6fbf586ac9724853e6eae2011a2ac2b76a761b64f9f30220367a79792249f38fef82370080b70f8771ac246b896542aa81cf3f82480ca07d012102318f579c43bf665801139b303bda8042e88891768c1a20f19f0be31778e0bcb6ffffffff023e8d05000000000017a91404cd837ba6b51afea6606b1f8d47fc06f449a95b87f75d0600000000001976a91449bcd2d3e8743c7ad986c52383602e9ad91e447488ac00000000", "vin": [{"sequence": 4294967295, "scriptSig": {"hex": "483045022100940ac3a56b338be181f909b73acdd58694f722bc3cdf82893148dcba2369da2e0220632d4fdd6074cc7c42a5657bb1d4011d3f4f95f9c5152a23e5bb999d7eda1845012103d2ecdde45699507a384a7eb41aebe50a16403b57b17aaaf9ff0a5ef541a332ad", "asm": "3045022100940ac3a56b338be181f909b73acdd58694f722bc3cdf82893148dcba2369da2e0220632d4fdd6074cc7c42a5657bb1d4011d3f4f95f9c5152a23e5bb999d7eda1845[ALL] 03d2ecdde45699507a384a7eb41aebe50a16403b57b17aaaf9ff0a5ef541a332ad"}, "vout": 1, "txid": "9e0e8a3c33c73a00eae21cd9402d92c7261a0064545e56c4cbcb861c63814524"}, {"sequence": 4294967295, "scriptSig": {"hex": "483045022100e4b41a334f6dbefa850f6fbf586ac9724853e6eae2011a2ac2b76a761b64f9f30220367a79792249f38fef82370080b70f8771ac246b896542aa81cf3f82480ca07d012102318f579c43bf665801139b303bda8042e88891768c1a20f19f0be31778e0bcb6", "asm": "3045022100e4b41a334f6dbefa850f6fbf586ac9724853e6eae2011a2ac2b76a761b64f9f30220367a79792249f38fef82370080b70f8771ac246b896542aa81cf3f82480ca07d[ALL] 02318f579c43bf665801139b303bda8042e88891768c1a20f19f0be31778e0bcb6"}, "vout": 1, "txid": "ebdc914d662de159d655d753d01cff87cc4d565eff4d2de431b1f50e9ad687d2"}], "txid": "6ea6805a58be286d3341921360c5887849607166379f6962fc944d4e4a806573", "blocktime": 1537874412, "version": 1, "confirmations": 11467, "time": 1537874412, "locktime": 0, "vsize": 372, "size": 372}