{"hash": "6ea8800d3c62ea370425ab351d623557973e9e7ca231479cfc99581dceaf6422", "blockhash": "0000000000000000000baef3f32e3676a92c3b2e5da21b426e4f302fc371ce76", "vout": [{"scriptPubKey": {"reqSigs": 1, "hex": "76a914d243e6abb9a60fbff430b421d2df4b7d59ec186088ac", "addresses": ["1LAnF8h3qMGx3TSwNUHVneBZUEpwE4gu3D"], "asm": "OP_DUP OP_HASH160 d243e6abb9a60fbff430b421d2df4b7d59ec1860 OP_EQUALVERIFY OP_CHECKSIG", "type": "pubkeyhash"}, "value": 0.00076972, "n": 0}, {"scriptPubKey": {"reqSigs": 1, "hex": "76a9143851f34d13937b673a7d24a1950bb5b21ce94af388ac", "addresses": ["168o1kqNquEJeR9vosUB5fw4eAwcVAgh8P"], "asm": "OP_DUP OP_HASH160 3851f34d13937b673a7d24a1950bb5b21ce94af3 OP_EQUALVERIFY OP_CHECKSIG", "type": "pubkeyhash"}, "value": 5.46e-06, "n": 1}, {"scriptPubKey": {"type": "nulldata", "hex": "6a146f6d6e69000000000000001f000000145d9e4780", "asm": "OP_RETURN 6f6d6e69000000000000001f000000145d9e4780"}, "value": 0.0, "n": 2}], "hex": "010000000298a10aacaee1f6f3fc806b5b4a6feb2af8424339dfd406ebbb403d3b7e65243d020000006a47304402205bf42cf8fe6cf781f7c8f9746d8ce7dc6f89c0c2c1167dc5717c7d5da8d42e240220690c8e56ce26764a438acb0e24a0ad537b3649483ea20211ef8d4f1ff9449cd5012103fefdf87d7a4a4d611a0ff48bbfeed5a171b5e6e9c17aa970fafd3e30bf54be74ffffffff7ee276cb3ff281be731be744c369075b01b7bac2a1d5e6f83518ba5476b5aeed000000006b48304502210097cc51e7c9e34d8c0ab1f8b59ddd6d16bd7edb94b6b1fd6ac012db3fc3264bfa02201aac99ca6cd62e59849c39389abd4251eb385f5542fa855b2cc0df21efe2712b01210271977291b74f1f5f5c42157e8aae804664eaaeccfd097918450d37f28fb94d77ffffffff03ac2c0100000000001976a914d243e6abb9a60fbff430b421d2df4b7d59ec186088ac22020000000000001976a9143851f34d13937b673a7d24a1950bb5b21ce94af388ac0000000000000000166a146f6d6e69000000000000001f000000145d9e478000000000", "vin": [{"sequence": 4294967295, "scriptSig": {"hex": "47304402205bf42cf8fe6cf781f7c8f9746d8ce7dc6f89c0c2c1167dc5717c7d5da8d42e240220690c8e56ce26764a438acb0e24a0ad537b3649483ea20211ef8d4f1ff9449cd5012103fefdf87d7a4a4d611a0ff48bbfeed5a171b5e6e9c17aa970fafd3e30bf54be74", "asm": "304402205bf42cf8fe6cf781f7c8f9746d8ce7dc6f89c0c2c1167dc5717c7d5da8d42e240220690c8e56ce26764a438acb0e24a0ad537b3649483ea20211ef8d4f1ff9449cd5[ALL] 03fefdf87d7a4a4d611a0ff48bbfeed5a171b5e6e9c17aa970fafd3e30bf54be74"}, "vout": 2, "txid": "3d24657e3b3d40bbeb06d4df394342f82aeb6f4a5b6b80fcf3f6e1aeac0aa198"}, {"sequence": 4294967295, "scriptSig": {"hex": "48304502210097cc51e7c9e34d8c0ab1f8b59ddd6d16bd7edb94b6b1fd6ac012db3fc3264bfa02201aac99ca6cd62e59849c39389abd4251eb385f5542fa855b2cc0df21efe2712b01210271977291b74f1f5f5c42157e8aae804664eaaeccfd097918450d37f28fb94d77", "asm": "304502210097cc51e7c9e34d8c0ab1f8b59ddd6d16bd7edb94b6b1fd6ac012db3fc3264bfa02201aac99ca6cd62e59849c39389abd4251eb385f5542fa855b2cc0df21efe2712b[ALL] 0271977291b74f1f5f5c42157e8aae804664eaaeccfd097918450d37f28fb94d77"}, "vout": 0, "txid": "edaeb57654ba1835f8e6d5a1c2bab7015b0769c344e71b73be81f23fcb76e27e"}], "txid": "6ea8800d3c62ea370425ab351d623557973e9e7ca231479cfc99581dceaf6422", "blocktime": 1537876114, "version": 1, "confirmations": 11460, "time": 1537876114, "locktime": 0, "vsize": 404, "size": 404}