{"hash": "6eb2a2d30a6c9d718146dd00ed22aa34273f3153291b848d12c55b949d466d26", "blockhash": "0000000000000000001cda96e906b7601b7a6fb1a3b62bca570a9e5d8f4b3de1", "vout": [{"scriptPubKey": {"reqSigs": 1, "hex": "76a9149bb0461787bdd40d7e33ba347364230b20b0b48688ac", "addresses": ["1FCCuTCugNBPVVnrjJXwaq5QCZ92B9HCzc"], "asm": "OP_DUP OP_HASH160 9bb0461787bdd40d7e33ba347364230b20b0b486 OP_EQUALVERIFY OP_CHECKSIG", "type": "pubkeyhash"}, "value": 0.00024904, "n": 0}, {"scriptPubKey": {"reqSigs": 1, "hex": "a91418d8328c8ac10f9f46d71c935326f025e10b43bf87", "addresses": ["33xP8oxFSkXGnMHrJaBKyzszxvrbuDcZaQ"], "asm": "OP_HASH160 18d8328c8ac10f9f46d71c935326f025e10b43bf OP_EQUAL", "type": "scripthash"}, "value": 0.0085867, "n": 1}], "hex": "01000000055ac5ec7135a6a5164c570f67c018920873097524c809dc1d7976632a06e71548000000006a47304402207f42f59319f0d19da46502cfe0c30ff3900e69330068ce544f1c8da622b22e7802206e010d3f3e207b57dfe8e8b867c2d9d32fa0660db488bd55e8f8e00a434b81bd012102c7ce192f6013f820127985be2ae3bfde053bdc5ba97c2078596255646176b3c4ffffffff58503e92b38c7c1f331418b0d240edcbd6db18e10ef811fde6194038bbcd116d0c0000006b4830450221009c89a43c5e8d6440128cf9f153c425fa7263b89196f786ce6b734353879c729102204e05de389d9b4ab10d00c62dfd4e86ecc52153244ba760203f6c3f3ef086a925012102658feb81681a7687bdf9d88fba6cb8c73659c31a5c999110fba66ea890ebe75affffffff32609db0b8d8447800478a76025879d0e082ddab9cde5748d1b688e5774f9b6f000000006b48304502210095e93113d45517d331b024338c6ec7bdd47011e3f59cf5f1da5d92e2411e89ab0220322b79881d9c1c1a4b66a64092786dc98a81b94480bdf7fc5584f672aecd15e0012102786ef3bd82fcc12916eaf78ddba91e9dcf2c16124915d9404339815c0863aae3ffffffff1f96d95179338a0cdb377d13dad63132100197bc8844f1027c5b029e0353527d000000006b483045022100969a253d187ece5e5650e0206e75fd0f81981db5423dddeaab5bc5003fdd168a02205d7eacf5e975745f00a2f9acc4fb503e2bcfa9a3996f686ffb7a5efff4fdbb8b012103fb66a06e85efd70135eb0d4c0d498840cc7d19f1adbd4a0e87f5b6084e87ff25ffffffffb249d16cebc02bd6646016d1a31f2f9f4291af457a438aa47f6b4a44d7626abe000000006b4830450221008cc7111bb35ee2657c0f4b9b3316878af3f6cc78b5b207cce373c411f18ab06f02206127922a09af9da23411955ac5b0b18fc778d39dc1e73df274da8e10b151859d012102be4b9df31081f757bd9edab1789c6945f8a3a1da0bf182ab4ededb2ab3e78fe6ffffffff0248610000000000001976a9149bb0461787bdd40d7e33ba347364230b20b0b48688ac2e1a0d000000000017a91418d8328c8ac10f9f46d71c935326f025e10b43bf8700000000", "vin": [{"sequence": 4294967295, "scriptSig": {"hex": "47304402207f42f59319f0d19da46502cfe0c30ff3900e69330068ce544f1c8da622b22e7802206e010d3f3e207b57dfe8e8b867c2d9d32fa0660db488bd55e8f8e00a434b81bd012102c7ce192f6013f820127985be2ae3bfde053bdc5ba97c2078596255646176b3c4", "asm": "304402207f42f59319f0d19da46502cfe0c30ff3900e69330068ce544f1c8da622b22e7802206e010d3f3e207b57dfe8e8b867c2d9d32fa0660db488bd55e8f8e00a434b81bd[ALL] 02c7ce192f6013f820127985be2ae3bfde053bdc5ba97c2078596255646176b3c4"}, "vout": 0, "txid": "4815e7062a6376791ddc09c824750973089218c0670f574c16a5a63571ecc55a"}, {"sequence": 4294967295, "scriptSig": {"hex": "4830450221009c89a43c5e8d6440128cf9f153c425fa7263b89196f786ce6b734353879c729102204e05de389d9b4ab10d00c62dfd4e86ecc52153244ba760203f6c3f3ef086a925012102658feb81681a7687bdf9d88fba6cb8c73659c31a5c999110fba66ea890ebe75a", "asm": "30450221009c89a43c5e8d6440128cf9f153c425fa7263b89196f786ce6b734353879c729102204e05de389d9b4ab10d00c62dfd4e86ecc52153244ba760203f6c3f3ef086a925[ALL] 02658feb81681a7687bdf9d88fba6cb8c73659c31a5c999110fba66ea890ebe75a"}, "vout": 12, "txid": "6d11cdbb384019e6fd11f80ee118dbd6cbed40d2b01814331f7c8cb3923e5058"}, {"sequence": 4294967295, "scriptSig": {"hex": "48304502210095e93113d45517d331b024338c6ec7bdd47011e3f59cf5f1da5d92e2411e89ab0220322b79881d9c1c1a4b66a64092786dc98a81b94480bdf7fc5584f672aecd15e0012102786ef3bd82fcc12916eaf78ddba91e9dcf2c16124915d9404339815c0863aae3", "asm": "304502210095e93113d45517d331b024338c6ec7bdd47011e3f59cf5f1da5d92e2411e89ab0220322b79881d9c1c1a4b66a64092786dc98a81b94480bdf7fc5584f672aecd15e0[ALL] 02786ef3bd82fcc12916eaf78ddba91e9dcf2c16124915d9404339815c0863aae3"}, "vout": 0, "txid": "6f9b4f77e588b6d14857de9cabdd82e0d0795802768a47007844d8b8b09d6032"}, {"sequence": 4294967295, "scriptSig": {"hex": "483045022100969a253d187ece5e5650e0206e75fd0f81981db5423dddeaab5bc5003fdd168a02205d7eacf5e975745f00a2f9acc4fb503e2bcfa9a3996f686ffb7a5efff4fdbb8b012103fb66a06e85efd70135eb0d4c0d498840cc7d19f1adbd4a0e87f5b6084e87ff25", "asm": "3045022100969a253d187ece5e5650e0206e75fd0f81981db5423dddeaab5bc5003fdd168a02205d7eacf5e975745f00a2f9acc4fb503e2bcfa9a3996f686ffb7a5efff4fdbb8b[ALL] 03fb66a06e85efd70135eb0d4c0d498840cc7d19f1adbd4a0e87f5b6084e87ff25"}, "vout": 0, "txid": "7d5253039e025b7c02f14488bc9701103231d6da137d37db0c8a337951d9961f"}, {"sequence": 4294967295, "scriptSig": {"hex": "4830450221008cc7111bb35ee2657c0f4b9b3316878af3f6cc78b5b207cce373c411f18ab06f02206127922a09af9da23411955ac5b0b18fc778d39dc1e73df274da8e10b151859d012102be4b9df31081f757bd9edab1789c6945f8a3a1da0bf182ab4ededb2ab3e78fe6", "asm": "30450221008cc7111bb35ee2657c0f4b9b3316878af3f6cc78b5b207cce373c411f18ab06f02206127922a09af9da23411955ac5b0b18fc778d39dc1e73df274da8e10b151859d[ALL] 02be4b9df31081f757bd9edab1789c6945f8a3a1da0bf182ab4ededb2ab3e78fe6"}, "vout": 0, "txid": "be6a62d7444a6b7fa48a437a45af91429f2f1fa3d1166064d62bc0eb6cd149b2"}], "txid": "6eb2a2d30a6c9d718146dd00ed22aa34273f3153291b848d12c55b949d466d26", "blocktime": 1537873282, "version": 1, "confirmations": 11485, "time": 1537873282, "locktime": 0, "vsize": 815, "size": 815}