{"hash": "6eb29cf668ab08c5ac78785d7800a9b4afcdceb394a405510f058dcb1706f2dd", "blockhash": "00000000000000000018f53835495a110e01622372bf6ae95dc86f2b0ab887b0", "vout": [{"scriptPubKey": {"reqSigs": 1, "hex": "76a914600d024a309c23b7d4193a5a66711b4e8c35383288ac", "addresses": ["19ksTHzmMQSgR8nw3ifG3cbRLgEZEux15r"], "asm": "OP_DUP OP_HASH160 600d024a309c23b7d4193a5a66711b4e8c353832 OP_EQUALVERIFY OP_CHECKSIG", "type": "pubkeyhash"}, "value": 0.00154645, "n": 0}, {"scriptPubKey": {"reqSigs": 1, "hex": "76a914b2c9f15683478bb36d1ccb60de302f111927aa8088ac", "addresses": ["1HJMCNbqQcZrmMGHpGDWXMjTgmWAkc7Tb7"], "asm": "OP_DUP OP_HASH160 b2c9f15683478bb36d1ccb60de302f111927aa80 OP_EQUALVERIFY OP_CHECKSIG", "type": "pubkeyhash"}, "value": 0.04485113, "n": 1}], "hex": "010000000452dd4bdcbddf482691257f7f43d85627b2313dd245e9d10a15a3d196165f2d02000000006a4730440220613b231b24fb61fb8cfd1619bb19e32620e1951b8db03752428c28f5ac9322f402203268fc8288712bd0131744d3248e33f800d605cc9e65905314cb366a3f7f16b8012102f773107a94ab8f82b09621adc814cc965bee97e1ee34850745768618d3d8e054feffffff52dd4bdcbddf482691257f7f43d85627b2313dd245e9d10a15a3d196165f2d02020000006b483045022100ec1a7935f82efaa8830c00904cf849177665882cbade56843e64700562960f610220344c2d284cecec8e6b5b53def35d7f505a6edfc367972c103382b728a546a838012102dd100dc2f44665d7c0760511bbe9977b545283123061a80215c7fec8645941e0feffffffd7ab263ad35344ec06097184bbcd9cc50e26f0f346abe5ba79f62ec53f24c519000000006a4730440220561190a9f2ddfab56b1482fa2aaddf5a934264c1280ed109ab981e1c8b62f999022066008773b8516d330b5f0c83fee861927d77167e5fe07f5d1c61619e9b0f2ad7012103534337444e5ed1b6e20268d316ebcc75b0f0275ebfb28c470e9f4ebd256c9a77feffffff472741d0b18d7b7672bff2d30029d1732cc525c24950523af4bf3e6a1bd2a1e8010000006a47304402207d4cae48435de984ac67ef9e57df3f26f0b1d89fde70c5802514337c4c5e424d02207ad74595a26c59030ed09a4a0f820681898ec909459686ad820901c3f5bd9ee201210259d4b3f4973739381967470de51f9ad52010024bffdb39ba726f6a63bb09be1dfeffffff02155c0200000000001976a914600d024a309c23b7d4193a5a66711b4e8c35383288acf96f4400000000001976a914b2c9f15683478bb36d1ccb60de302f111927aa8088ac0e490800", "vin": [{"sequence": 4294967294, "scriptSig": {"hex": "4730440220613b231b24fb61fb8cfd1619bb19e32620e1951b8db03752428c28f5ac9322f402203268fc8288712bd0131744d3248e33f800d605cc9e65905314cb366a3f7f16b8012102f773107a94ab8f82b09621adc814cc965bee97e1ee34850745768618d3d8e054", "asm": "30440220613b231b24fb61fb8cfd1619bb19e32620e1951b8db03752428c28f5ac9322f402203268fc8288712bd0131744d3248e33f800d605cc9e65905314cb366a3f7f16b8[ALL] 02f773107a94ab8f82b09621adc814cc965bee97e1ee34850745768618d3d8e054"}, "vout": 0, "txid": "022d5f1696d1a3150ad1e945d23d31b22756d8437f7f25912648dfbddc4bdd52"}, {"sequence": 4294967294, "scriptSig": {"hex": "483045022100ec1a7935f82efaa8830c00904cf849177665882cbade56843e64700562960f610220344c2d284cecec8e6b5b53def35d7f505a6edfc367972c103382b728a546a838012102dd100dc2f44665d7c0760511bbe9977b545283123061a80215c7fec8645941e0", "asm": "3045022100ec1a7935f82efaa8830c00904cf849177665882cbade56843e64700562960f610220344c2d284cecec8e6b5b53def35d7f505a6edfc367972c103382b728a546a838[ALL] 02dd100dc2f44665d7c0760511bbe9977b545283123061a80215c7fec8645941e0"}, "vout": 2, "txid": "022d5f1696d1a3150ad1e945d23d31b22756d8437f7f25912648dfbddc4bdd52"}, {"sequence": 4294967294, "scriptSig": {"hex": "4730440220561190a9f2ddfab56b1482fa2aaddf5a934264c1280ed109ab981e1c8b62f999022066008773b8516d330b5f0c83fee861927d77167e5fe07f5d1c61619e9b0f2ad7012103534337444e5ed1b6e20268d316ebcc75b0f0275ebfb28c470e9f4ebd256c9a77", "asm": "30440220561190a9f2ddfab56b1482fa2aaddf5a934264c1280ed109ab981e1c8b62f999022066008773b8516d330b5f0c83fee861927d77167e5fe07f5d1c61619e9b0f2ad7[ALL] 03534337444e5ed1b6e20268d316ebcc75b0f0275ebfb28c470e9f4ebd256c9a77"}, "vout": 0, "txid": "19c5243fc52ef679bae5ab46f3f0260ec59ccdbb84710906ec4453d33a26abd7"}, {"sequence": 4294967294, "scriptSig": {"hex": "47304402207d4cae48435de984ac67ef9e57df3f26f0b1d89fde70c5802514337c4c5e424d02207ad74595a26c59030ed09a4a0f820681898ec909459686ad820901c3f5bd9ee201210259d4b3f4973739381967470de51f9ad52010024bffdb39ba726f6a63bb09be1d", "asm": "304402207d4cae48435de984ac67ef9e57df3f26f0b1d89fde70c5802514337c4c5e424d02207ad74595a26c59030ed09a4a0f820681898ec909459686ad820901c3f5bd9ee2[ALL] 0259d4b3f4973739381967470de51f9ad52010024bffdb39ba726f6a63bb09be1d"}, "vout": 1, "txid": "e8a1d21b6a3ebff43a525049c225c52c73d12900d3f2bf72767b8db1d0412747"}], "txid": "6eb29cf668ab08c5ac78785d7800a9b4afcdceb394a405510f058dcb1706f2dd", "blocktime": 1537870928, "version": 1, "confirmations": 11512, "time": 1537870928, "locktime": 542990, "vsize": 667, "size": 667}