{"hash": "6eb8469c90571c762e2c004507e8035a11042ced30248b120eabf3e9ca518d40", "blockhash": "0000000000000000001f0ddff1eddb255c1121bcd4da4f1bc9a0da00cae72433", "vout": [{"scriptPubKey": {"reqSigs": 1, "hex": "76a914a25dec4d0011064ef106a983c39c7a540699f22088ac", "addresses": ["1FoWyxwPXuj4C6abqwhjDWdz6D4PZgYRjA"], "asm": "OP_DUP OP_HASH160 a25dec4d0011064ef106a983c39c7a540699f220 OP_EQUALVERIFY OP_CHECKSIG", "type": "pubkeyhash"}, "value": 0.01990376, "n": 0}, {"scriptPubKey": {"type": "nulldata", "hex": "6a146f6d6e69000000000000001f00000001165a8b80", "asm": "OP_RETURN 6f6d6e69000000000000001f00000001165a8b80"}, "value": 0.0, "n": 1}, {"scriptPubKey": {"reqSigs": 1, "hex": "76a9143340e9bcea2cc71d443bc7d7233ef9bddf2a784388ac", "addresses": ["15g1E2BViC8qGjpdeb3CY5hzudWCi2KknR"], "asm": "OP_DUP OP_HASH160 3340e9bcea2cc71d443bc7d7233ef9bddf2a7843 OP_EQUALVERIFY OP_CHECKSIG", "type": "pubkeyhash"}, "value": 5.46e-06, "n": 2}], "hex": "01000000017eaab83083b602b1bdc64be663e6373d62a0ce91853d375a2760d054f4a25585020000006a4730440220252114ae2414be6c6bb74d2f0d572b8878b09ab1c421fd20511ceefa1696004b02200f03291befffb471965bbdf3fd22c5e802f39b205a8a32830e0a0f19de807e0f012103da5bac7b36d5aa38f531c6b9601e21bb598a4b6716ebed38b009a55dabde9440feffffff03e85e1e00000000001976a914a25dec4d0011064ef106a983c39c7a540699f22088ac0000000000000000166a146f6d6e69000000000000001f00000001165a8b8022020000000000001976a9143340e9bcea2cc71d443bc7d7233ef9bddf2a784388ac11490800", "vin": [{"sequence": 4294967294, "scriptSig": {"hex": "4730440220252114ae2414be6c6bb74d2f0d572b8878b09ab1c421fd20511ceefa1696004b02200f03291befffb471965bbdf3fd22c5e802f39b205a8a32830e0a0f19de807e0f012103da5bac7b36d5aa38f531c6b9601e21bb598a4b6716ebed38b009a55dabde9440", "asm": "30440220252114ae2414be6c6bb74d2f0d572b8878b09ab1c421fd20511ceefa1696004b02200f03291befffb471965bbdf3fd22c5e802f39b205a8a32830e0a0f19de807e0f[ALL] 03da5bac7b36d5aa38f531c6b9601e21bb598a4b6716ebed38b009a55dabde9440"}, "vout": 2, "txid": "8555a2f454d060275a373d8591cea0623d37e663e64bc6bdb102b68330b8aa7e"}], "txid": "6eb8469c90571c762e2c004507e8035a11042ced30248b120eabf3e9ca518d40", "blocktime": 1537872018, "version": 1, "confirmations": 11489, "time": 1537872018, "locktime": 542993, "vsize": 256, "size": 256}