{"hash": "6eb8647705bcdcbfc349856704fdab9a4c8273f66908d34f783f762eddf58ea3", "blockhash": "0000000000000000000e13cef7c366c0283d82e591d1acd082e914b08063cdf1", "vout": [{"scriptPubKey": {"reqSigs": 1, "hex": "a91462c4845e3b1baad489ce62caa6e668e6741b9d9c87", "addresses": ["3AhFZb4Qg13Cjk7Dgh5P1LNLUwPaYBZ81M"], "asm": "OP_HASH160 62c4845e3b1baad489ce62caa6e668e6741b9d9c OP_EQUAL", "type": "scripthash"}, "value": 0.00205699, "n": 0}], "hex": "010000000281eafa06cca11e46eee44234013bc850d0f77e94208d1f0fb5e9b4bd829fa57e010000006b483045022100943bc47976cda9dd241c0f551dbd2963ae585f3b2f80139bd58cd4ebf186e099022025512c1e988bf09b1fe290e4662090a7d80706b9058205dbc2a828bd34365a3c012103f5d4de64370f5ca567844596b73e3dfc04dd4c4a51f908748822138b6f0d6a8dfeffffffb0dfa758c1f0b799dd906aa09111fa57d4e9bc0124fd83556662f9f1c29348e5000000006a47304402203d91a521df70237ebb149ed4284c20a7909498e49af534870d68f1ade10c4ec102204be674c36fb96829c5dc54df0592479228fa98b5a66e34d4545f17fcb5f1d21901210239194f12e68b088caf5bec9924bde492cdb67c7c2d05645b104e0164b24156c2feffffff01832303000000000017a91462c4845e3b1baad489ce62caa6e668e6741b9d9c870f490800", "vin": [{"sequence": 4294967294, "scriptSig": {"hex": "483045022100943bc47976cda9dd241c0f551dbd2963ae585f3b2f80139bd58cd4ebf186e099022025512c1e988bf09b1fe290e4662090a7d80706b9058205dbc2a828bd34365a3c012103f5d4de64370f5ca567844596b73e3dfc04dd4c4a51f908748822138b6f0d6a8d", "asm": "3045022100943bc47976cda9dd241c0f551dbd2963ae585f3b2f80139bd58cd4ebf186e099022025512c1e988bf09b1fe290e4662090a7d80706b9058205dbc2a828bd34365a3c[ALL] 03f5d4de64370f5ca567844596b73e3dfc04dd4c4a51f908748822138b6f0d6a8d"}, "vout": 1, "txid": "7ea59f82bdb4e9b50f1f8d20947ef7d050c83b013442e4ee461ea1cc06faea81"}, {"sequence": 4294967294, "scriptSig": {"hex": "47304402203d91a521df70237ebb149ed4284c20a7909498e49af534870d68f1ade10c4ec102204be674c36fb96829c5dc54df0592479228fa98b5a66e34d4545f17fcb5f1d21901210239194f12e68b088caf5bec9924bde492cdb67c7c2d05645b104e0164b24156c2", "asm": "304402203d91a521df70237ebb149ed4284c20a7909498e49af534870d68f1ade10c4ec102204be674c36fb96829c5dc54df0592479228fa98b5a66e34d4545f17fcb5f1d219[ALL] 0239194f12e68b088caf5bec9924bde492cdb67c7c2d05645b104e0164b24156c2"}, "vout": 0, "txid": "e54893c2f1f962665583fd2401bce9d457fa1191a06a90dd99b7f0c158a7dfb0"}], "txid": "6eb8647705bcdcbfc349856704fdab9a4c8273f66908d34f783f762eddf58ea3", "blocktime": 1537871767, "version": 1, "confirmations": 11495, "time": 1537871767, "locktime": 542991, "vsize": 337, "size": 337}