{"hash": "3d20c535972334cfc4adbd4ea0cd8533a66da7a69ed6ee2500eb8343082b7491", "blockhash": "0000000000000000001e0dab787dd257d1dbfcb92a98c2207d5e1078be1f4165", "vout": [{"scriptPubKey": {"reqSigs": 1, "hex": "76a91408a635f936e27594b6953ba7cb25b3c89bf9cb9f88ac", "addresses": ["1njX4pWPi5VabJJwjmrjEArXTkY1RmWGn"], "asm": "OP_DUP OP_HASH160 08a635f936e27594b6953ba7cb25b3c89bf9cb9f OP_EQUALVERIFY OP_CHECKSIG", "type": "pubkeyhash"}, "value": 0.017582, "n": 0}, {"scriptPubKey": {"reqSigs": 1, "hex": "a914dee0a1cc9f055700143e0f4ecee53180ab3530dc87", "addresses": ["3N1V2qWA5hpScEmS72pMooYRmXUiLmwPQQ"], "asm": "OP_HASH160 dee0a1cc9f055700143e0f4ecee53180ab3530dc OP_EQUAL", "type": "scripthash"}, "value": 0.46159611, "n": 1}], "hex": "020000000001014a0b35163dd2390e05d2cf38feac6aaba3ab784087ea782db3337a137f37bcb30100000017160014cb5dbe423de4d42b6425c6921084c6197a5d2937ffffffff02f8d31a00000000001976a91408a635f936e27594b6953ba7cb25b3c89bf9cb9f88acfb56c0020000000017a914dee0a1cc9f055700143e0f4ecee53180ab3530dc870247304402207bb4ef09667f263726ff24ba7243ddb8eda2fe72578605119aba2e631500167202203726687367e6010a5d7f96f86efbbd03e149b53367e8c6f43e000d448d8e1f33012102acecad485eda786cbe0422823b7594aea6854abb5ec85e267f1c4b87f3f758f700000000", "vin": [{"txinwitness": ["304402207bb4ef09667f263726ff24ba7243ddb8eda2fe72578605119aba2e631500167202203726687367e6010a5d7f96f86efbbd03e149b53367e8c6f43e000d448d8e1f3301", "02acecad485eda786cbe0422823b7594aea6854abb5ec85e267f1c4b87f3f758f7"], "sequence": 4294967295, "scriptSig": {"hex": "160014cb5dbe423de4d42b6425c6921084c6197a5d2937", "asm": "0014cb5dbe423de4d42b6425c6921084c6197a5d2937"}, "vout": 1, "txid": "b3bc377f137a33b32d78ea874078aba3ab6aacfe38cfd2050e39d23d16350b4a"}], "txid": "6ec32bbb49b141c4501f7c89404502f50730c98636f9d692ae5ce6d624320ffd", "blocktime": 1537872475, "version": 2, "confirmations": 11486, "time": 1537872475, "locktime": 0, "vsize": 168, "size": 249}