{"hash": "6ec4261730b12fc38fc6472df45d78d07b0a78ed9aa9366bfd25cd4dd22a510a", "blockhash": "000000000000000000022b45ed06c6f4ccd3cf7fb5ba4856ebd2e58215665228", "vout": [{"scriptPubKey": {"reqSigs": 1, "hex": "76a9144bb8b817f4812ab8e7ef048803e016d74b50d14788ac", "addresses": ["17uNxtzbh7DGgRfJH8ivoewzLsASqSASoi"], "asm": "OP_DUP OP_HASH160 4bb8b817f4812ab8e7ef048803e016d74b50d147 OP_EQUALVERIFY OP_CHECKSIG", "type": "pubkeyhash"}, "value": 1.99, "n": 0}, {"scriptPubKey": {"reqSigs": 1, "hex": "76a9148cec58bdedc94b4bbe990083582f9dc304b6ef4f88ac", "addresses": ["1Dr8jWY9TUsfsNH1NyvokUWS9jRomK5gV5"], "asm": "OP_DUP OP_HASH160 8cec58bdedc94b4bbe990083582f9dc304b6ef4f OP_EQUALVERIFY OP_CHECKSIG", "type": "pubkeyhash"}, "value": 0.49178, "n": 1}], "hex": "01000000022a81edc3c219722e57328c4d9ac9912b27db0bd1c1609181a1817a0f6cd23d7a010000006b483045022100f0526e715facf188dfd0645839867c4cb647658b8ba5c7c869deb0e05835418502205df9cb426900449752e99ddd16cc8b96e07f5c980b8031f902c41addbdfa38f4012102dd907029711d99019dd3b6d8b042f3f659f9dbc02b6efa8ba0ad0babe44b37d2ffffffff484ff63fbc0d46178b2fe779e6469a93d04990525b3ba712bec8e00bcff55a6d000000006b483045022100cc690db2c89e33ed3f0e36bdf73fd099d95d66f735baf091037accbe3a791dd402204dec55996138fde5156eff5076b8969cbe847484ff6a158e4314fa74c8cd2f3f012103237a6a8147c979a6bd7d54503862a88fa8e915eee5cad992d8ee9ccbd551cc0fffffffff02c07fdc0b000000001976a9144bb8b817f4812ab8e7ef048803e016d74b50d14788ac9065ee02000000001976a9148cec58bdedc94b4bbe990083582f9dc304b6ef4f88ac00000000", "vin": [{"sequence": 4294967295, "scriptSig": {"hex": "483045022100f0526e715facf188dfd0645839867c4cb647658b8ba5c7c869deb0e05835418502205df9cb426900449752e99ddd16cc8b96e07f5c980b8031f902c41addbdfa38f4012102dd907029711d99019dd3b6d8b042f3f659f9dbc02b6efa8ba0ad0babe44b37d2", "asm": "3045022100f0526e715facf188dfd0645839867c4cb647658b8ba5c7c869deb0e05835418502205df9cb426900449752e99ddd16cc8b96e07f5c980b8031f902c41addbdfa38f4[ALL] 02dd907029711d99019dd3b6d8b042f3f659f9dbc02b6efa8ba0ad0babe44b37d2"}, "vout": 1, "txid": "7a3dd26c0f7a81a1819160c1d10bdb272b91c99a4d8c32572e7219c2c3ed812a"}, {"sequence": 4294967295, "scriptSig": {"hex": "483045022100cc690db2c89e33ed3f0e36bdf73fd099d95d66f735baf091037accbe3a791dd402204dec55996138fde5156eff5076b8969cbe847484ff6a158e4314fa74c8cd2f3f012103237a6a8147c979a6bd7d54503862a88fa8e915eee5cad992d8ee9ccbd551cc0f", "asm": "3045022100cc690db2c89e33ed3f0e36bdf73fd099d95d66f735baf091037accbe3a791dd402204dec55996138fde5156eff5076b8969cbe847484ff6a158e4314fa74c8cd2f3f[ALL] 03237a6a8147c979a6bd7d54503862a88fa8e915eee5cad992d8ee9ccbd551cc0f"}, "vout": 0, "txid": "6d5af5cf0be0c8be12a73b5b529049d0939a46e679e72f8b17460dbc3ff64f48"}], "txid": "6ec4261730b12fc38fc6472df45d78d07b0a78ed9aa9366bfd25cd4dd22a510a", "blocktime": 1537869901, "version": 1, "confirmations": 11522, "time": 1537869901, "locktime": 0, "vsize": 374, "size": 374}