{"hash": "6ec839c445b41a0ddefcd391fde0384f7696ab69f8e9df3b49de13cd3d36379a", "blockhash": "00000000000000000024a2167bbff67b0be802c0b01cdd79e6331c2be6459f87", "vout": [{"scriptPubKey": {"reqSigs": 1, "hex": "76a9144a052865644d6586f8956054f32bba6a503fdfe988ac", "addresses": ["17kPBZoGQzD2jrciKYd3k2V5sD8NZPAzCP"], "asm": "OP_DUP OP_HASH160 4a052865644d6586f8956054f32bba6a503fdfe9 OP_EQUALVERIFY OP_CHECKSIG", "type": "pubkeyhash"}, "value": 0.00263, "n": 0}, {"scriptPubKey": {"reqSigs": 1, "hex": "76a914bbaf01624bdb555e097631833c4d285ffdba12c588ac", "addresses": ["1J7P1Tk4wqsEbmy3BMrenfsX5xswuBrz8B"], "asm": "OP_DUP OP_HASH160 bbaf01624bdb555e097631833c4d285ffdba12c5 OP_EQUALVERIFY OP_CHECKSIG", "type": "pubkeyhash"}, "value": 0.02720701, "n": 1}], "hex": "01000000012e02b3df3dc2d005bf3de7d8b45fbc52bdbceac9174b56a03b302882c3dfe571000000006a4730440220763cc7a675df99319018ba84c558df393a7364854a24c134bc1e0f31952b42b8022052705c76ea97b9602f74b0974bad2816929b1ceb80e789d556802ff0e43049d1012103a3e9a95b8d5d235a5543a46d61c76ebf0067b3a85320cd5805661d99656c3a9cfeffffff0258030400000000001976a9144a052865644d6586f8956054f32bba6a503fdfe988acbd832900000000001976a914bbaf01624bdb555e097631833c4d285ffdba12c588ac0d490800", "vin": [{"sequence": 4294967294, "scriptSig": {"hex": "4730440220763cc7a675df99319018ba84c558df393a7364854a24c134bc1e0f31952b42b8022052705c76ea97b9602f74b0974bad2816929b1ceb80e789d556802ff0e43049d1012103a3e9a95b8d5d235a5543a46d61c76ebf0067b3a85320cd5805661d99656c3a9c", "asm": "30440220763cc7a675df99319018ba84c558df393a7364854a24c134bc1e0f31952b42b8022052705c76ea97b9602f74b0974bad2816929b1ceb80e789d556802ff0e43049d1[ALL] 03a3e9a95b8d5d235a5543a46d61c76ebf0067b3a85320cd5805661d99656c3a9c"}, "vout": 0, "txid": "71e5dfc38228303ba0564b17c9eabcbd52bc5fb4d8e73dbf05d0c23ddfb3022e"}], "txid": "6ec839c445b41a0ddefcd391fde0384f7696ab69f8e9df3b49de13cd3d36379a", "blocktime": 1537870564, "version": 1, "confirmations": 11515, "time": 1537870564, "locktime": 542989, "vsize": 225, "size": 225}