{"hash": "b6b61a8316d1e035b15c61c5d4b9c3e1586b1943fef2c811c635512b80636d46", "blockhash": "0000000000000000000e13cef7c366c0283d82e591d1acd082e914b08063cdf1", "vout": [{"scriptPubKey": {"reqSigs": 1, "hex": "76a9145765d151ed725076ca70edb9a867a436b6c7233a88ac", "addresses": ["18y7m72yCMavcJEG7DPQstZkUSUV5vt2hB"], "asm": "OP_DUP OP_HASH160 5765d151ed725076ca70edb9a867a436b6c7233a OP_EQUALVERIFY OP_CHECKSIG", "type": "pubkeyhash"}, "value": 0.0024616, "n": 0}, {"scriptPubKey": {"reqSigs": 1, "hex": "a914fe92a502aaa8ad9cbf5cca64cef3ffbd79d681b187", "addresses": ["3Qu5EK4NjcJQCbQQsyvBeBPDTBCK8sjWtR"], "asm": "OP_HASH160 fe92a502aaa8ad9cbf5cca64cef3ffbd79d681b1 OP_EQUAL", "type": "scripthash"}, "value": 0.01036293, "n": 1}], "hex": "02000000000102622d9da05f6fbee28d26285dd9138e11c2d9b4b7610a0fe7bd48787beb18a6fd060000001716001446268fb110ac3002f31ecd1cc080c8fc8cbdab87fefffffffd5f5146305f2615b54ab26cfbebfe3bfa28a09dd9f5c1d685bdb968228d2112000000001716001419509d98324d01ccf02741300f1799047095c69cfeffffff0290c10300000000001976a9145765d151ed725076ca70edb9a867a436b6c7233a88ac05d00f000000000017a914fe92a502aaa8ad9cbf5cca64cef3ffbd79d681b187024830450221008a614fd2f0724db028ec250b69d05ebeb04a318637e8c6233a187584afc8a85102204ae2ed03ea95d6f03d8a66378c2d41e527203f5080ec2bc2c1d4078cb5aaaeee01210254039cfea3aa4e1313146dcf99811cd12b46faaa679bb532e44037cbecb9c1d002483045022100807acd63377b07c0684d3118ed7fc71f5d0bf5504e3b2da4688d781b52ab98c402204a55387ca8fce687b4370fdae259af950c94a4e20500bfd3690dfa062425078501210255ac601650dcc6f89c536a40eb0050166a510fbc33934cc23e631b90c6ad73b010490800", "vin": [{"txinwitness": ["30450221008a614fd2f0724db028ec250b69d05ebeb04a318637e8c6233a187584afc8a85102204ae2ed03ea95d6f03d8a66378c2d41e527203f5080ec2bc2c1d4078cb5aaaeee01", "0254039cfea3aa4e1313146dcf99811cd12b46faaa679bb532e44037cbecb9c1d0"], "sequence": 4294967294, "scriptSig": {"hex": "16001446268fb110ac3002f31ecd1cc080c8fc8cbdab87", "asm": "001446268fb110ac3002f31ecd1cc080c8fc8cbdab87"}, "vout": 6, "txid": "fda618eb7b7848bde70f0a61b7b4d9c2118e13d95d28268de2be6f5fa09d2d62"}, {"txinwitness": ["3045022100807acd63377b07c0684d3118ed7fc71f5d0bf5504e3b2da4688d781b52ab98c402204a55387ca8fce687b4370fdae259af950c94a4e20500bfd3690dfa062425078501", "0255ac601650dcc6f89c536a40eb0050166a510fbc33934cc23e631b90c6ad73b0"], "sequence": 4294967294, "scriptSig": {"hex": "16001419509d98324d01ccf02741300f1799047095c69c", "asm": "001419509d98324d01ccf02741300f1799047095c69c"}, "vout": 0, "txid": "12218d2268b9bd85d6c1f5d99da028fa3bfeebfb6cb24ab515265f3046515ffd"}], "txid": "6ec838a7909924d625733fb63bce2a6636a78f31a1bed1b98837d5aca2e33b90", "blocktime": 1537871767, "version": 2, "confirmations": 11495, "time": 1537871767, "locktime": 542992, "vsize": 259, "size": 422}