{"hash": "b4099e9bd53d0789b5da58952ba92d53d9b5b04bf5fb7d5191014378f2245cc8", "blockhash": "00000000000000000004ffacab907a6b429b9a5745fa0b75af4234bf69dd7176", "vout": [{"scriptPubKey": {"reqSigs": 1, "hex": "a9147c40183d2eddbfdf032ecec2498035076411d31787", "addresses": ["3D1zVhyzbZXsvKosnMHtBmMwqfTSiMRMvh"], "asm": "OP_HASH160 7c40183d2eddbfdf032ecec2498035076411d317 OP_EQUAL", "type": "scripthash"}, "value": 0.01057455, "n": 0}, {"scriptPubKey": {"reqSigs": 1, "hex": "76a91485d837530c5b678358282550ee549e45123118ee88ac", "addresses": ["1DChtUPW34kfh3aqA9xsM1XrmHx928j3kb"], "asm": "OP_DUP OP_HASH160 85d837530c5b678358282550ee549e45123118ee OP_EQUALVERIFY OP_CHECKSIG", "type": "pubkeyhash"}, "value": 0.0013, "n": 1}], "hex": "02000000000102a3a4440152e322fd6a2e00ef3d34303963c1b7613c57c3919da2625bdcb6fa6f010000001716001421ecd9bc024e82595081b3fb59902f53ff4d512efeffffffaf979a80b66cce42c06780bfc9bc4daaa4f28af93f9f24f73d4881afab01c5570300000017160014b02c75a6ce05158a0ef49df562a70ee59aa2ac32feffffff02af2210000000000017a9147c40183d2eddbfdf032ecec2498035076411d31787d0fb0100000000001976a91485d837530c5b678358282550ee549e45123118ee88ac024830450221008d05c6388023fbbd1d1efe6caee64d3ab634b234c2ded493d55f9358e534a13d02204a33c008abcfcad40db1a981e7b1b63b20ddd837df6957ab0da93fcfce65d8aa0121037b14e021e43223ef3486e89eb49a19fb4edc2a748fdf7f5a44b3210b5da2cc2d02483045022100857d4a782e3578823c422c3e9ec4f10f1e7bb8c542cd404c2dec3638a2473b58022017f9d5d4bd601bf8c46b5c1757af4a93f7d47a7be76a0dfc424d187db537c95701210379bff60efba57104e040e86cd809c17cbb3d8951eb68c87c788e44f1146c4eac16490800", "vin": [{"txinwitness": ["30450221008d05c6388023fbbd1d1efe6caee64d3ab634b234c2ded493d55f9358e534a13d02204a33c008abcfcad40db1a981e7b1b63b20ddd837df6957ab0da93fcfce65d8aa01", "037b14e021e43223ef3486e89eb49a19fb4edc2a748fdf7f5a44b3210b5da2cc2d"], "sequence": 4294967294, "scriptSig": {"hex": "16001421ecd9bc024e82595081b3fb59902f53ff4d512e", "asm": "001421ecd9bc024e82595081b3fb59902f53ff4d512e"}, "vout": 1, "txid": "6ffab6dc5b62a29d91c3573c61b7c1633930343def002e6afd22e3520144a4a3"}, {"txinwitness": ["3045022100857d4a782e3578823c422c3e9ec4f10f1e7bb8c542cd404c2dec3638a2473b58022017f9d5d4bd601bf8c46b5c1757af4a93f7d47a7be76a0dfc424d187db537c95701", "0379bff60efba57104e040e86cd809c17cbb3d8951eb68c87c788e44f1146c4eac"], "sequence": 4294967294, "scriptSig": {"hex": "160014b02c75a6ce05158a0ef49df562a70ee59aa2ac32", "asm": "0014b02c75a6ce05158a0ef49df562a70ee59aa2ac32"}, "vout": 3, "txid": "57c501abaf81483df7249f3ff98af2a4aa4dbcc9bf8067c042ce6cb6809a97af"}], "txid": "6edb702cdc9aac8e4a6b42c4fe7879e5965fd856238def1eaf5659276c415538", "blocktime": 1537875543, "version": 2, "confirmations": 11464, "time": 1537875543, "locktime": 542998, "vsize": 259, "size": 422}