{"hash": "6edc9226d95ae3ba2c94f9eade6f891c8c68299dd1c5431b07a04c365e2b1e5c", "blockhash": "0000000000000000000dcc0f55137456b1a82d3642486a52398922ac4d620174", "vout": [{"scriptPubKey": {"reqSigs": 1, "hex": "a91469f373b748975f77ab6028e57548c78634b1139187", "addresses": ["3BMEX2cDTXXTaAeqL9kGroyH4HgaqULeW7"], "asm": "OP_HASH160 69f373b748975f77ab6028e57548c78634b11391 OP_EQUAL", "type": "scripthash"}, "value": 0.02798, "n": 0}, {"scriptPubKey": {"reqSigs": 1, "hex": "76a914f423dfee34e4833104508103d89e316b4a49314088ac", "addresses": ["1PFtrRjbq4aLfM7k4tyLZ3ZAuTsgLr6Q8Q"], "asm": "OP_DUP OP_HASH160 f423dfee34e4833104508103d89e316b4a493140 OP_EQUALVERIFY OP_CHECKSIG", "type": "pubkeyhash"}, "value": 0.001415, "n": 1}], "hex": "0100000001c35c0cf243efeb6e1965e95d5573894916b18fb4776034c6b8f8b5a9ed10c237000000006a4730440220145239e8f7a3b04e07b69ed0f623c53fb33db3a269415c1f538bf5cd40f53afd02206c72db7a344ea51a6e64743e5dc35cbb2904db48cb51ad0c567aa6d5fc5602bf012102330f045e29bd7179463393d2c5820709bd88268958bd1c527b486423cea242eaffffffff02b0b12a000000000017a91469f373b748975f77ab6028e57548c78634b1139187bc280200000000001976a914f423dfee34e4833104508103d89e316b4a49314088ac00000000", "vin": [{"sequence": 4294967295, "scriptSig": {"hex": "4730440220145239e8f7a3b04e07b69ed0f623c53fb33db3a269415c1f538bf5cd40f53afd02206c72db7a344ea51a6e64743e5dc35cbb2904db48cb51ad0c567aa6d5fc5602bf012102330f045e29bd7179463393d2c5820709bd88268958bd1c527b486423cea242ea", "asm": "30440220145239e8f7a3b04e07b69ed0f623c53fb33db3a269415c1f538bf5cd40f53afd02206c72db7a344ea51a6e64743e5dc35cbb2904db48cb51ad0c567aa6d5fc5602bf[ALL] 02330f045e29bd7179463393d2c5820709bd88268958bd1c527b486423cea242ea"}, "vout": 0, "txid": "37c210eda9b5f8b8c6346077b48fb116498973555de965196eebef43f20c5cc3"}], "txid": "6edc9226d95ae3ba2c94f9eade6f891c8c68299dd1c5431b07a04c365e2b1e5c", "blocktime": 1537870268, "version": 1, "confirmations": 11516, "time": 1537870268, "locktime": 0, "vsize": 223, "size": 223}