{"hash": "955ea3d17abc927025c86a6510c6c2b852ae3a561bc1fac35fabeed1e96ea8aa", "blockhash": "0000000000000000001cda96e906b7601b7a6fb1a3b62bca570a9e5d8f4b3de1", "vout": [{"scriptPubKey": {"reqSigs": 1, "hex": "a9145a37ff32f572344e77acab2c23670c25ae12c79f87", "addresses": ["39v3pYEXStMCaDc1gSasykr4Zd2ww3dKCs"], "asm": "OP_HASH160 5a37ff32f572344e77acab2c23670c25ae12c79f OP_EQUAL", "type": "scripthash"}, "value": 12.3658596, "n": 0}, {"scriptPubKey": {"reqSigs": 1, "hex": "76a914d99d2036c3fb25d7df7136d11f2330e3668c0ea788ac", "addresses": ["1LqdrvTT3Qsryf8H1xMTdDByQqHJ1TsKCV"], "asm": "OP_DUP OP_HASH160 d99d2036c3fb25d7df7136d11f2330e3668c0ea7 OP_EQUALVERIFY OP_CHECKSIG", "type": "pubkeyhash"}, "value": 0.25, "n": 1}], "hex": "0200000000010136411539dd0c7e2ca36922654b8da4af1483c464f2e0dd28e6fce341675d45960100000017160014b5243b06e9530b410b7c8a02113cc226da971271feffffff02e8cdb4490000000017a9145a37ff32f572344e77acab2c23670c25ae12c79f8740787d01000000001976a914d99d2036c3fb25d7df7136d11f2330e3668c0ea788ac0247304402205b348a4d867fa2ca34ecfec0095c333cd66c3a2792083925c395fc6803bb61c802201149efcec04d0c7618115bfeb293feb3196a2b265b0b0da5f9c252073b8e1a27012102858642a48cdc851c3bdd2b48379b1bd67691d9a0348e4f97a9e0f2d561675a2313490800", "vin": [{"txinwitness": ["304402205b348a4d867fa2ca34ecfec0095c333cd66c3a2792083925c395fc6803bb61c802201149efcec04d0c7618115bfeb293feb3196a2b265b0b0da5f9c252073b8e1a2701", "02858642a48cdc851c3bdd2b48379b1bd67691d9a0348e4f97a9e0f2d561675a23"], "sequence": 4294967294, "scriptSig": {"hex": "160014b5243b06e9530b410b7c8a02113cc226da971271", "asm": "0014b5243b06e9530b410b7c8a02113cc226da971271"}, "vout": 1, "txid": "96455d6741e3fce628dde0f264c48314afa48d4b652269a32c7e0cdd39154136"}], "txid": "6ee6a7ae50963e537864af07fdc3f2ce15c387cf5306c54d624a5b47958899b2", "blocktime": 1537873282, "version": 2, "confirmations": 11480, "time": 1537873282, "locktime": 542995, "vsize": 168, "size": 249}