{"hash": "e647d9f46c7e911c6401566e7d31076b834e69d34cf2f4ce25df1b243a2f6ebc", "blockhash": "000000000000000000022b45ed06c6f4ccd3cf7fb5ba4856ebd2e58215665228", "vout": [{"scriptPubKey": {"reqSigs": 1, "hex": "a914b2b3441bc2ab9485cc2b2699255132bbf7e8d8cf87", "addresses": ["3HytxK793ZoR6FcdDXTGnwSBmKRTj1RXUP"], "asm": "OP_HASH160 b2b3441bc2ab9485cc2b2699255132bbf7e8d8cf OP_EQUAL", "type": "scripthash"}, "value": 0.0100028, "n": 0}, {"scriptPubKey": {"reqSigs": 1, "hex": "76a9145765d151ed725076ca70edb9a867a436b6c7233a88ac", "addresses": ["18y7m72yCMavcJEG7DPQstZkUSUV5vt2hB"], "asm": "OP_DUP OP_HASH160 5765d151ed725076ca70edb9a867a436b6c7233a OP_EQUALVERIFY OP_CHECKSIG", "type": "pubkeyhash"}, "value": 0.00267238, "n": 1}], "hex": "0200000000010295642b6e5d97e4157f3812b6394f615a2896a4c0b304578809715460716e74c90a00000017160014f41784cc3c4a41f1602427a7e9bf9f18824e3bbafeffffffc99430d092f703b9da8ce6a481c950bfc20d07b96bfa86494dd05b1260bdf0720000000017160014eb168f4a46515698e56af20b42aaf73ec1546a8bfeffffff0258430f000000000017a914b2b3441bc2ab9485cc2b2699255132bbf7e8d8cf87e6130400000000001976a9145765d151ed725076ca70edb9a867a436b6c7233a88ac024730440220768599f188240ce0af1d20c6eba36f9edbc5c3eced3bc7abab9aefbcb35df19c0220183cbe463fceae52e50a8489a6ca0bfaef888568ea474cca63586c6447d4f239012102f2df8e97f7911f9b0a1aa5441d26a5b440ea96dc1c1e6b4fc6c5101bf660fc7b0247304402205c5248d79851f207dece81a6c4c7c4a78e893f3e5e6b8ff1226b1f54f5a336ea0220393ac26f850cde7887f435c6a4e3f0b390f2a3405a3faa0f9c7197b99908ac4c0121021346636f6a88ce72cbf4cca4f3276c944b3a9d0a72eb311a2dd90984f1364d3f0b490800", "vin": [{"txinwitness": ["30440220768599f188240ce0af1d20c6eba36f9edbc5c3eced3bc7abab9aefbcb35df19c0220183cbe463fceae52e50a8489a6ca0bfaef888568ea474cca63586c6447d4f23901", "02f2df8e97f7911f9b0a1aa5441d26a5b440ea96dc1c1e6b4fc6c5101bf660fc7b"], "sequence": 4294967294, "scriptSig": {"hex": "160014f41784cc3c4a41f1602427a7e9bf9f18824e3bba", "asm": "0014f41784cc3c4a41f1602427a7e9bf9f18824e3bba"}, "vout": 10, "txid": "c9746e7160547109885704b3c0a496285a614f39b612387f15e4975d6e2b6495"}, {"txinwitness": ["304402205c5248d79851f207dece81a6c4c7c4a78e893f3e5e6b8ff1226b1f54f5a336ea0220393ac26f850cde7887f435c6a4e3f0b390f2a3405a3faa0f9c7197b99908ac4c01", "021346636f6a88ce72cbf4cca4f3276c944b3a9d0a72eb311a2dd90984f1364d3f"], "sequence": 4294967294, "scriptSig": {"hex": "160014eb168f4a46515698e56af20b42aaf73ec1546a8b", "asm": "0014eb168f4a46515698e56af20b42aaf73ec1546a8b"}, "vout": 0, "txid": "72f0bd60125bd04d4986fa6bb9070dc2bf50c981a4e68cdab903f792d03094c9"}], "txid": "6ee77dcaf4c2d84761499daad98d08a72a049052f67d49a943183568cad10a38", "blocktime": 1537869901, "version": 2, "confirmations": 11524, "time": 1537869901, "locktime": 542987, "vsize": 258, "size": 420}