{"hash": "b567fffa017ec8c8a7a7dd64aedcb3993a20e85714e48c2bee86448e7c8ef699", "blockhash": "00000000000000000004ffacab907a6b429b9a5745fa0b75af4234bf69dd7176", "vout": [{"scriptPubKey": {"reqSigs": 1, "hex": "a91432f70882be417de3c0014752de61651cd9c385fc87", "addresses": ["36LVeJhnaNsit8SyuTwRv6xbaMJYDZuNwZ"], "asm": "OP_HASH160 32f70882be417de3c0014752de61651cd9c385fc OP_EQUAL", "type": "scripthash"}, "value": 0.00999621, "n": 0}, {"scriptPubKey": {"reqSigs": 1, "hex": "76a91478221db32740c883c75ad2f8b4db0e24e2365f4b88ac", "addresses": ["1BxCxSddSb3q14AGdFaDcPvXQf69pQEio4"], "asm": "OP_DUP OP_HASH160 78221db32740c883c75ad2f8b4db0e24e2365f4b OP_EQUALVERIFY OP_CHECKSIG", "type": "pubkeyhash"}, "value": 0.0098, "n": 1}], "hex": "02000000000101083e967e17a258af38066518df9fe844409a02e40aec7904086309d5968aef1200000000171600143a00427094491419a76d116324fdbf02a8da5460feffffff02c5400f000000000017a91432f70882be417de3c0014752de61651cd9c385fc8720f40e00000000001976a91478221db32740c883c75ad2f8b4db0e24e2365f4b88ac0247304402204bec8427d965fbc3ec4fb342aeb74c798396631b9c6b308bdf98b07958249d6f0220726238099f82c759cf4d37caf2a4924acc543203d19d9644fa0dd9f556bb16a0012103ea4966951dfafb720ade91a3e6e554bd83b21afb4ddcb02c9346a95198e0483e16490800", "vin": [{"txinwitness": ["304402204bec8427d965fbc3ec4fb342aeb74c798396631b9c6b308bdf98b07958249d6f0220726238099f82c759cf4d37caf2a4924acc543203d19d9644fa0dd9f556bb16a001", "03ea4966951dfafb720ade91a3e6e554bd83b21afb4ddcb02c9346a95198e0483e"], "sequence": 4294967294, "scriptSig": {"hex": "1600143a00427094491419a76d116324fdbf02a8da5460", "asm": "00143a00427094491419a76d116324fdbf02a8da5460"}, "vout": 0, "txid": "12ef8a96d50963080479ec0ae4029a4044e89fdf18650638af58a2177e963e08"}], "txid": "6ee8629b524ad6bdf08b21e07d9804d9153bb4d122caa81a8bfc1c6c395e64c0", "blocktime": 1537875543, "version": 2, "confirmations": 11464, "time": 1537875543, "locktime": 542998, "vsize": 168, "size": 249}