{"hash": "942f582bc9b30679525dbbcc8d2ca1c310bb92fbbff63be7f6df34670125e00f", "blockhash": "00000000000000000017f5eb5941039fbcee6240d03bc1f2f8e35350df66a1d8", "vout": [{"scriptPubKey": {"reqSigs": 1, "hex": "76a9147dda121435f371f99b4f6d1c534f50a1c16e07e988ac", "addresses": ["1CUShntVyi8JMrUtWRpfkvAQDGpNXSpmqg"], "asm": "OP_DUP OP_HASH160 7dda121435f371f99b4f6d1c534f50a1c16e07e9 OP_EQUALVERIFY OP_CHECKSIG", "type": "pubkeyhash"}, "value": 0.00119097, "n": 0}, {"scriptPubKey": {"reqSigs": 1, "hex": "a914a2799c9e3cbad8166e97f381e2fe407c9c6b6de787", "addresses": ["3GW75MaKraPh2Dd5C8ECDjkv7eJXJE2H27"], "asm": "OP_HASH160 a2799c9e3cbad8166e97f381e2fe407c9c6b6de7 OP_EQUAL", "type": "scripthash"}, "value": 0.01878358, "n": 1}], "hex": "0200000000010252de4cb9d0f906b6ef8c65f462dcf10792b7b7af2ea352bdc94c76ec3a579bc20000000017160014aac930ea0756179e01c50b98aebbca0da0fda379feffffff962f2dc40d1bdfdeca03357fc4671146b3d9875199d6e5819e71fcd8a2431b7e0100000017160014183ba5e50c5c71ce48b7b8fa8331c0c42b087b15feffffff0239d10100000000001976a9147dda121435f371f99b4f6d1c534f50a1c16e07e988ac56a91c000000000017a914a2799c9e3cbad8166e97f381e2fe407c9c6b6de787024730440220249a91598b90151b34fb07f0b871ccb4698c1371c67024335a2336d3598910860220464386d35d3533668832b2727aa51276298fc994573138e8edb7703d826d1149012103ae6fc1e71a5725798e267a9224e0a434f3c923880f5e84bab62c05a8251b6c8802483045022100fdfdc8beaebc5b8367dff5cbeea58dc9318db46e1c3b085b2fb2766e365001240220329afe4f095d9518c94e86aa7c1a960f3fdf068c28f87b9eec1c09afca81b481012102082e0081527265fb3cd6c276f9cc71be2da1b73fb706c8e90944d088f9bf69aa15490800", "vin": [{"txinwitness": ["30440220249a91598b90151b34fb07f0b871ccb4698c1371c67024335a2336d3598910860220464386d35d3533668832b2727aa51276298fc994573138e8edb7703d826d114901", "03ae6fc1e71a5725798e267a9224e0a434f3c923880f5e84bab62c05a8251b6c88"], "sequence": 4294967294, "scriptSig": {"hex": "160014aac930ea0756179e01c50b98aebbca0da0fda379", "asm": "0014aac930ea0756179e01c50b98aebbca0da0fda379"}, "vout": 0, "txid": "c29b573aec764cc9bd52a32eafb7b79207f1dc62f4658cefb606f9d0b94cde52"}, {"txinwitness": ["3045022100fdfdc8beaebc5b8367dff5cbeea58dc9318db46e1c3b085b2fb2766e365001240220329afe4f095d9518c94e86aa7c1a960f3fdf068c28f87b9eec1c09afca81b48101", "02082e0081527265fb3cd6c276f9cc71be2da1b73fb706c8e90944d088f9bf69aa"], "sequence": 4294967294, "scriptSig": {"hex": "160014183ba5e50c5c71ce48b7b8fa8331c0c42b087b15", "asm": "0014183ba5e50c5c71ce48b7b8fa8331c0c42b087b15"}, "vout": 1, "txid": "7e1b43a2d8fc719e81e5d6995187d9b3461167c47f3503cadedf1b0dc42d2f96"}], "txid": "6eed644ce6f8314be66e4d8f525e09474a587b561b47eabb177268ec89be6826", "blocktime": 1537874412, "version": 2, "confirmations": 11468, "time": 1537874412, "locktime": 542997, "vsize": 259, "size": 421}