{"hash": "d1e7886133069e684921211fd6cf3475388819cf6f679b10ae6a11061230e166", "blockhash": "0000000000000000001e0dab787dd257d1dbfcb92a98c2207d5e1078be1f4165", "vout": [{"scriptPubKey": {"reqSigs": 1, "hex": "a9141988a27e3c2df4ddee7fad5a2303d086179b2a3087", "addresses": ["3422VtS7UtCvXYxoXMVp6eZupR252z85oC"], "asm": "OP_HASH160 1988a27e3c2df4ddee7fad5a2303d086179b2a30 OP_EQUAL", "type": "scripthash"}, "value": 0.15548183, "n": 0}, {"scriptPubKey": {"reqSigs": 1, "hex": "76a914756d00ec80cc0173d0533b742269c2523792b30f88ac", "addresses": ["1Bhte9ZmQ2ns8VV6qqQcyirYvp3M2EAG84"], "asm": "OP_DUP OP_HASH160 756d00ec80cc0173d0533b742269c2523792b30f OP_EQUALVERIFY OP_CHECKSIG", "type": "pubkeyhash"}, "value": 0.0073, "n": 1}, {"scriptPubKey": {"reqSigs": 1, "hex": "76a91434691b267ac5fbe9a3f1e4d738e2d0c6ccaf78e788ac", "addresses": ["15n83saKeFdX3uw64bMha2sdx3h5ZK9i1K"], "asm": "OP_DUP OP_HASH160 34691b267ac5fbe9a3f1e4d738e2d0c6ccaf78e7 OP_EQUALVERIFY OP_CHECKSIG", "type": "pubkeyhash"}, "value": 0.001721, "n": 2}], "hex": "01000000000102b8b2bc598d67606c8f708c6f500fe7aaec2c57e55034d5e7c88b9038da116ac3010000002322002065d416c48a8072e0ac51c2d111eb194f009caef0332446c1bf2097316cf07fa9ffffffff31065d17d0f52330d8b345ffbded20907fae4140cbb968090888ac549b06d5ed010000002322002065d416c48a8072e0ac51c2d111eb194f009caef0332446c1bf2097316cf07fa9ffffffff03173fed000000000017a9141988a27e3c2df4ddee7fad5a2303d086179b2a308790230b00000000001976a914756d00ec80cc0173d0533b742269c2523792b30f88ac44a00200000000001976a91434691b267ac5fbe9a3f1e4d738e2d0c6ccaf78e788ac0400483045022100e4ea675ca5e98f4d0be151d959cf0723ddc9c9694c00552fff647a5f5c9b1d7d022056ae3c827b91db4d5682e25bda0e8dae9cd1e67e175ecd2ac511ddd908dc97f90147304402202389606292d0dc8cf6399d0f7eec3ef226177a3aa89e99939bd416f2131f1bc8022044481c8b7c7165e6f247691a71f9fceecdfeb6550d3995c1d50639ade24af6b90169522102f44abcf9e23c9a460da309ccca56c619c04eed3bde2c2cff5e7d78fbcd980b9c2103c9443cf3047bb6c2c82f1b0c44c36109cdc3d0d601d16d1189a1602bf8d1a0a02103bfe867059274412412e088af5572b92168c2ef495cfe6c9b7a753a009eb37c4853ae04004830450221008bd18b23716e823320e677d278feea65791b681643a2342341313e30c77e9416022016b06071d3b5e59be7a28748b69d535e71733637fd208f54ba391c279671ea0a0147304402206e9985991e2ffe5bac013509152ac60434ae3b0690961d8704d50fd07c829e340220698e68f6336fd5564af53f3b52d7da266545265d74d9c37dcc8168f525392dba0169522102f44abcf9e23c9a460da309ccca56c619c04eed3bde2c2cff5e7d78fbcd980b9c2103c9443cf3047bb6c2c82f1b0c44c36109cdc3d0d601d16d1189a1602bf8d1a0a02103bfe867059274412412e088af5572b92168c2ef495cfe6c9b7a753a009eb37c4853ae00000000", "vin": [{"txinwitness": ["", "3045022100e4ea675ca5e98f4d0be151d959cf0723ddc9c9694c00552fff647a5f5c9b1d7d022056ae3c827b91db4d5682e25bda0e8dae9cd1e67e175ecd2ac511ddd908dc97f901", "304402202389606292d0dc8cf6399d0f7eec3ef226177a3aa89e99939bd416f2131f1bc8022044481c8b7c7165e6f247691a71f9fceecdfeb6550d3995c1d50639ade24af6b901", "522102f44abcf9e23c9a460da309ccca56c619c04eed3bde2c2cff5e7d78fbcd980b9c2103c9443cf3047bb6c2c82f1b0c44c36109cdc3d0d601d16d1189a1602bf8d1a0a02103bfe867059274412412e088af5572b92168c2ef495cfe6c9b7a753a009eb37c4853ae"], "sequence": 4294967295, "scriptSig": {"hex": "22002065d416c48a8072e0ac51c2d111eb194f009caef0332446c1bf2097316cf07fa9", "asm": "002065d416c48a8072e0ac51c2d111eb194f009caef0332446c1bf2097316cf07fa9"}, "vout": 1, "txid": "c36a11da38908bc8e7d53450e5572cecaae70f506f8c708f6c60678d59bcb2b8"}, {"txinwitness": ["", "30450221008bd18b23716e823320e677d278feea65791b681643a2342341313e30c77e9416022016b06071d3b5e59be7a28748b69d535e71733637fd208f54ba391c279671ea0a01", "304402206e9985991e2ffe5bac013509152ac60434ae3b0690961d8704d50fd07c829e340220698e68f6336fd5564af53f3b52d7da266545265d74d9c37dcc8168f525392dba01", "522102f44abcf9e23c9a460da309ccca56c619c04eed3bde2c2cff5e7d78fbcd980b9c2103c9443cf3047bb6c2c82f1b0c44c36109cdc3d0d601d16d1189a1602bf8d1a0a02103bfe867059274412412e088af5572b92168c2ef495cfe6c9b7a753a009eb37c4853ae"], "sequence": 4294967295, "scriptSig": {"hex": "22002065d416c48a8072e0ac51c2d111eb194f009caef0332446c1bf2097316cf07fa9", "asm": "002065d416c48a8072e0ac51c2d111eb194f009caef0332446c1bf2097316cf07fa9"}, "vout": 1, "txid": "edd5069b54ac88080968b9cb4041ae7f9020edbdff45b3d83023f5d0175d0631"}], "txid": "6eee7a1a02ba7083a9d1b88a0d3bae386c00ad35022d5959ad84ada5d6215755", "blocktime": 1537872475, "version": 1, "confirmations": 11486, "time": 1537872475, "locktime": 0, "vsize": 389, "size": 770}