{"hash": "6ef0f46d970e3f052ee3a449cf87d2b2573d0c9273c6150b03c835dbf008588d", "blockhash": "0000000000000000000e13cef7c366c0283d82e591d1acd082e914b08063cdf1", "vout": [{"scriptPubKey": {"reqSigs": 1, "hex": "a9148198de6723338fe67756313100b1c81906ec43ce87", "addresses": ["3DWGDoDSNsmH7dwhFSy3SXXfYHYk6Vqgv4"], "asm": "OP_HASH160 8198de6723338fe67756313100b1c81906ec43ce OP_EQUAL", "type": "scripthash"}, "value": 0.00304637, "n": 0}, {"scriptPubKey": {"reqSigs": 1, "hex": "76a9143153075f3cb07f5b650997b505bf28d2fa6b641e88ac", "addresses": ["15VoaLpGu9Vn2Jf4NA1iZ8Mk1LquNm3W69"], "asm": "OP_DUP OP_HASH160 3153075f3cb07f5b650997b505bf28d2fa6b641e OP_EQUALVERIFY OP_CHECKSIG", "type": "pubkeyhash"}, "value": 0.00312791, "n": 1}], "hex": "0100000001f8e7afc44dd04d5df6b0fb8df9edabc7e73a06040dc153d1246a282dcb9da38c00000000fdfd0000473044022009962bc36a884713d0d1efbc911fa486c297017d22a1757bf1ee4798466480f9022078c125f5821d4242b98c63ef0ad8e8420bfcc3adf0f2931d1fda1fd06b98bfa501483045022100abf5519299e872fc7f0a0540cfdedbb3c997e15917fc1a0df6d76bd87faef162022032e656ba4881f1de15213d90b1f6cb67f7a40accbd0cb32dde3798c4e4501c73014c695221029b8ed867257be7d49b5e72aa2190c40ed2e0c28dbf52e1fbc28b5af1837da7b22102d76898d48bd6c0f35a73e3f48154ae1df968951e8f8794b60234e2254d22d0182103d7fe3eda413391874ed610aec24ec20f06b9f548215032cc620fa1bd507d9d9e53aeffffffff02fda504000000000017a9148198de6723338fe67756313100b1c81906ec43ce87d7c50400000000001976a9143153075f3cb07f5b650997b505bf28d2fa6b641e88ac00000000", "vin": [{"sequence": 4294967295, "scriptSig": {"hex": "00473044022009962bc36a884713d0d1efbc911fa486c297017d22a1757bf1ee4798466480f9022078c125f5821d4242b98c63ef0ad8e8420bfcc3adf0f2931d1fda1fd06b98bfa501483045022100abf5519299e872fc7f0a0540cfdedbb3c997e15917fc1a0df6d76bd87faef162022032e656ba4881f1de15213d90b1f6cb67f7a40accbd0cb32dde3798c4e4501c73014c695221029b8ed867257be7d49b5e72aa2190c40ed2e0c28dbf52e1fbc28b5af1837da7b22102d76898d48bd6c0f35a73e3f48154ae1df968951e8f8794b60234e2254d22d0182103d7fe3eda413391874ed610aec24ec20f06b9f548215032cc620fa1bd507d9d9e53ae", "asm": "0 3044022009962bc36a884713d0d1efbc911fa486c297017d22a1757bf1ee4798466480f9022078c125f5821d4242b98c63ef0ad8e8420bfcc3adf0f2931d1fda1fd06b98bfa5[ALL] 3045022100abf5519299e872fc7f0a0540cfdedbb3c997e15917fc1a0df6d76bd87faef162022032e656ba4881f1de15213d90b1f6cb67f7a40accbd0cb32dde3798c4e4501c73[ALL] 5221029b8ed867257be7d49b5e72aa2190c40ed2e0c28dbf52e1fbc28b5af1837da7b22102d76898d48bd6c0f35a73e3f48154ae1df968951e8f8794b60234e2254d22d0182103d7fe3eda413391874ed610aec24ec20f06b9f548215032cc620fa1bd507d9d9e53ae"}, "vout": 0, "txid": "8ca39dcb2d286a24d153c10d04063ae7c7abedf98dfbb0f65d4dd04dc4afe7f8"}], "txid": "6ef0f46d970e3f052ee3a449cf87d2b2573d0c9273c6150b03c835dbf008588d", "blocktime": 1537871767, "version": 1, "confirmations": 11493, "time": 1537871767, "locktime": 0, "vsize": 372, "size": 372}