{"hash": "6ef7b501ca7f5d2e836abcb4b5039fb32f3d834f0dd3da790e4bdf9e3d84dbad", "blockhash": "0000000000000000001f0ddff1eddb255c1121bcd4da4f1bc9a0da00cae72433", "vout": [{"scriptPubKey": {"reqSigs": 1, "hex": "76a91476a119c03a4353bba67bf95f6e66afbc9970709188ac", "addresses": ["1BpFj6sMixWiiUYV44hEtzrAcahyMi3L33"], "asm": "OP_DUP OP_HASH160 76a119c03a4353bba67bf95f6e66afbc99707091 OP_EQUALVERIFY OP_CHECKSIG", "type": "pubkeyhash"}, "value": 0.01000062, "n": 0}, {"scriptPubKey": {"reqSigs": 1, "hex": "76a914933e0fd081b4d1283352b97068337ab9a924878588ac", "addresses": ["1ERYgKxQtZcy3CKJRcUGPx6VisS8x5nXDG"], "asm": "OP_DUP OP_HASH160 933e0fd081b4d1283352b97068337ab9a9248785 OP_EQUALVERIFY OP_CHECKSIG", "type": "pubkeyhash"}, "value": 3e-05, "n": 1}], "hex": "0100000002172dbeb77a78430a811362382f56d73f8217f4776e0fca9fbbe6427f65661652010000006a47304402200317bbbded82413ea757c87030978af9d811b1a550155345bc5005c06bf5d3f1022028858b0f34310c3480a628de704d20652688fa84589993b3bd820d25b66a51d2012103bc89c554074329205b4bf24f890aec8b63eadd439bbf30966db90ef52c4884a7feffffff7d02d2704885124d00732827b3dff0c96e1f3340ab9781b1a52979b06ec000a3000000006b483045022100b3df27feaa0fed3347dc82f1ed1e08df82221a1f94751595df0abaa534a9d75d022026091d31c9535cf4680622d0cd034218e728f5f0b08cc92d3b2827cd0867a88101210217e1d2bc380736582b40c8cbb735ae75b2aa299ecf8a6d188f2f6bb8aa0a6d9efeffffff027e420f00000000001976a91476a119c03a4353bba67bf95f6e66afbc9970709188acb80b0000000000001976a914933e0fd081b4d1283352b97068337ab9a924878588ac10490800", "vin": [{"sequence": 4294967294, "scriptSig": {"hex": "47304402200317bbbded82413ea757c87030978af9d811b1a550155345bc5005c06bf5d3f1022028858b0f34310c3480a628de704d20652688fa84589993b3bd820d25b66a51d2012103bc89c554074329205b4bf24f890aec8b63eadd439bbf30966db90ef52c4884a7", "asm": "304402200317bbbded82413ea757c87030978af9d811b1a550155345bc5005c06bf5d3f1022028858b0f34310c3480a628de704d20652688fa84589993b3bd820d25b66a51d2[ALL] 03bc89c554074329205b4bf24f890aec8b63eadd439bbf30966db90ef52c4884a7"}, "vout": 1, "txid": "521666657f42e6bb9fca0f6e77f417823fd7562f386213810a43787ab7be2d17"}, {"sequence": 4294967294, "scriptSig": {"hex": "483045022100b3df27feaa0fed3347dc82f1ed1e08df82221a1f94751595df0abaa534a9d75d022026091d31c9535cf4680622d0cd034218e728f5f0b08cc92d3b2827cd0867a88101210217e1d2bc380736582b40c8cbb735ae75b2aa299ecf8a6d188f2f6bb8aa0a6d9e", "asm": "3045022100b3df27feaa0fed3347dc82f1ed1e08df82221a1f94751595df0abaa534a9d75d022026091d31c9535cf4680622d0cd034218e728f5f0b08cc92d3b2827cd0867a881[ALL] 0217e1d2bc380736582b40c8cbb735ae75b2aa299ecf8a6d188f2f6bb8aa0a6d9e"}, "vout": 0, "txid": "a300c06eb07929a5b18197ab40331f6ec9f0dfb3272873004d12854870d2027d"}], "txid": "6ef7b501ca7f5d2e836abcb4b5039fb32f3d834f0dd3da790e4bdf9e3d84dbad", "blocktime": 1537872018, "version": 1, "confirmations": 11489, "time": 1537872018, "locktime": 542992, "vsize": 373, "size": 373}