{"hash": "6efa9b9f39634c97b15662d1e7f2357e747fe9e8d0ecd133cf76e71f0fc605fe", "blockhash": "00000000000000000024a2167bbff67b0be802c0b01cdd79e6331c2be6459f87", "vout": [{"scriptPubKey": {"reqSigs": 1, "hex": "76a914d243e6abb9a60fbff430b421d2df4b7d59ec186088ac", "addresses": ["1LAnF8h3qMGx3TSwNUHVneBZUEpwE4gu3D"], "asm": "OP_DUP OP_HASH160 d243e6abb9a60fbff430b421d2df4b7d59ec1860 OP_EQUALVERIFY OP_CHECKSIG", "type": "pubkeyhash"}, "value": 0.00076972, "n": 0}, {"scriptPubKey": {"reqSigs": 1, "hex": "76a9143851f34d13937b673a7d24a1950bb5b21ce94af388ac", "addresses": ["168o1kqNquEJeR9vosUB5fw4eAwcVAgh8P"], "asm": "OP_DUP OP_HASH160 3851f34d13937b673a7d24a1950bb5b21ce94af3 OP_EQUALVERIFY OP_CHECKSIG", "type": "pubkeyhash"}, "value": 5.46e-06, "n": 1}, {"scriptPubKey": {"type": "nulldata", "hex": "6a146f6d6e69000000000000001f0000091812d7d600", "asm": "OP_RETURN 6f6d6e69000000000000001f0000091812d7d600"}, "value": 0.0, "n": 2}], "hex": "0100000002bfe013736206bc0cd9374f74b3616f479a9a8ca5165eead4ceb06d3102cce919000000006b48304502210088fb954e646d5d994556c470e10632bfca49a29962a0e4e29f035d8736bd3b54022008c51741ae62982a52c3cd7a57dd9d84c67d6e8eae167fb9c91195ed62de813d012102a358ca2587243485f461a393b5644e3565258adfd3f7795d7c6ccc6a3f2a722effffffffd0d4bed7f5b97740bb7e976b321a656c49384a8c192145488d24b8d522c66018000000006a47304402207b6c7751eeded5fa63e8455ac25d97a7b71c3b265c030fe11b748e7c6a9a0e5e0220790892de77c97b94e27eeb567254737e1a380852d32b0cb735408847407832d001210271977291b74f1f5f5c42157e8aae804664eaaeccfd097918450d37f28fb94d77ffffffff03ac2c0100000000001976a914d243e6abb9a60fbff430b421d2df4b7d59ec186088ac22020000000000001976a9143851f34d13937b673a7d24a1950bb5b21ce94af388ac0000000000000000166a146f6d6e69000000000000001f0000091812d7d60000000000", "vin": [{"sequence": 4294967295, "scriptSig": {"hex": "48304502210088fb954e646d5d994556c470e10632bfca49a29962a0e4e29f035d8736bd3b54022008c51741ae62982a52c3cd7a57dd9d84c67d6e8eae167fb9c91195ed62de813d012102a358ca2587243485f461a393b5644e3565258adfd3f7795d7c6ccc6a3f2a722e", "asm": "304502210088fb954e646d5d994556c470e10632bfca49a29962a0e4e29f035d8736bd3b54022008c51741ae62982a52c3cd7a57dd9d84c67d6e8eae167fb9c91195ed62de813d[ALL] 02a358ca2587243485f461a393b5644e3565258adfd3f7795d7c6ccc6a3f2a722e"}, "vout": 0, "txid": "19e9cc02316db0ced4ea5e16a58c9a9a476f61b3744f37d90cbc06627313e0bf"}, {"sequence": 4294967295, "scriptSig": {"hex": "47304402207b6c7751eeded5fa63e8455ac25d97a7b71c3b265c030fe11b748e7c6a9a0e5e0220790892de77c97b94e27eeb567254737e1a380852d32b0cb735408847407832d001210271977291b74f1f5f5c42157e8aae804664eaaeccfd097918450d37f28fb94d77", "asm": "304402207b6c7751eeded5fa63e8455ac25d97a7b71c3b265c030fe11b748e7c6a9a0e5e0220790892de77c97b94e27eeb567254737e1a380852d32b0cb735408847407832d0[ALL] 0271977291b74f1f5f5c42157e8aae804664eaaeccfd097918450d37f28fb94d77"}, "vout": 0, "txid": "1860c622d5b8248d484521198c4a38496c651a326b977ebb4077b9f5d7bed4d0"}], "txid": "6efa9b9f39634c97b15662d1e7f2357e747fe9e8d0ecd133cf76e71f0fc605fe", "blocktime": 1537870564, "version": 1, "confirmations": 11515, "time": 1537870564, "locktime": 0, "vsize": 404, "size": 404}