{"hash": "6efae704889895bae08fff6e9c41e7c91f48a368286118e9efae7b5e1ba33052", "blockhash": "0000000000000000001f76057863aec43deb6fa401d9628bb513d65a8098bfab", "vout": [{"scriptPubKey": {"reqSigs": 1, "hex": "a91469f374082e11a3e6ba44b8e095b1e8da9e0740bf87", "addresses": ["3BMEX7ajVWarpEddXVk6fTiBy1U6jsocy5"], "asm": "OP_HASH160 69f374082e11a3e6ba44b8e095b1e8da9e0740bf OP_EQUAL", "type": "scripthash"}, "value": 1.09999425, "n": 0}], "hex": "0100000001bf58d75ec93aefa35ea3073623eaf7b84d2d41b54e7d0214d864fefefea6658a010000006a4730440220331acb59b937f56f36811c3be974cf218579596140293e10e6bded26716f8e44022053935db647ffe1967e56737d89001c951851eb61065abe0865afb1328324c6630121032415b6130c10f7dc6cdd8df1b62f6a4e5c4e87bdca3b9b1bd3256e4ec3dfa065ffffffff0141758e060000000017a91469f374082e11a3e6ba44b8e095b1e8da9e0740bf8700000000", "vin": [{"sequence": 4294967295, "scriptSig": {"hex": "4730440220331acb59b937f56f36811c3be974cf218579596140293e10e6bded26716f8e44022053935db647ffe1967e56737d89001c951851eb61065abe0865afb1328324c6630121032415b6130c10f7dc6cdd8df1b62f6a4e5c4e87bdca3b9b1bd3256e4ec3dfa065", "asm": "30440220331acb59b937f56f36811c3be974cf218579596140293e10e6bded26716f8e44022053935db647ffe1967e56737d89001c951851eb61065abe0865afb1328324c663[ALL] 032415b6130c10f7dc6cdd8df1b62f6a4e5c4e87bdca3b9b1bd3256e4ec3dfa065"}, "vout": 1, "txid": "8a65a6fefefe64d814027d4eb5412d4db8f7ea233607a35ea3ef3ac95ed758bf"}], "txid": "6efae704889895bae08fff6e9c41e7c91f48a368286118e9efae7b5e1ba33052", "blocktime": 1537873891, "version": 1, "confirmations": 11478, "time": 1537873891, "locktime": 0, "vsize": 189, "size": 189}