{"hash": "6efa9a0669d939391a99b2bb30f70c0477b8031afc2ea7562f8151d4d486065e", "blockhash": "0000000000000000001f0ddff1eddb255c1121bcd4da4f1bc9a0da00cae72433", "vout": [{"scriptPubKey": {"reqSigs": 1, "hex": "a914234482e558c4d9c62eacd5709df765ec7a38ef2587", "addresses": ["34uVeWNargrwbZ9qgvLnvxnS4h2V46Q9yA"], "asm": "OP_HASH160 234482e558c4d9c62eacd5709df765ec7a38ef25 OP_EQUAL", "type": "scripthash"}, "value": 0.0014427, "n": 0}, {"scriptPubKey": {"reqSigs": 1, "hex": "a91437e19e980ea657005c7b5316f24ed1c16e201a3a87", "addresses": ["36nVNQtQ1Q7Te86wdwSbxcQTunFfzonvHo"], "asm": "OP_HASH160 37e19e980ea657005c7b5316f24ed1c16e201a3a OP_EQUAL", "type": "scripthash"}, "value": 0.0036683, "n": 1}, {"scriptPubKey": {"reqSigs": 1, "hex": "a9147a36898e727562740a766d91402882eacc86c87587", "addresses": ["3CqDhGT29pLLqGRUHkgQZZ9zC881jWk1SU"], "asm": "OP_HASH160 7a36898e727562740a766d91402882eacc86c875 OP_EQUAL", "type": "scripthash"}, "value": 0.0009203, "n": 2}, {"scriptPubKey": {"reqSigs": 1, "hex": "a914468543bed98d5b2956f4827cd5cdaaa0e462291387", "addresses": ["387tsMssH7aNAcf8LaKkXKqg6j5rzpZJTi"], "asm": "OP_HASH160 468543bed98d5b2956f4827cd5cdaaa0e4622913 OP_EQUAL", "type": "scripthash"}, "value": 0.0065967, "n": 3}, {"scriptPubKey": {"reqSigs": 1, "hex": "76a914f1c868a67d41ff7de0fe27f9161f82e81668c9e988ac", "addresses": ["1P3RvsvcNdPhJsQDmxiC6RtrgjkMjfZuwk"], "asm": "OP_DUP OP_HASH160 f1c868a67d41ff7de0fe27f9161f82e81668c9e9 OP_EQUALVERIFY OP_CHECKSIG", "type": "pubkeyhash"}, "value": 0.0037854, "n": 4}, {"scriptPubKey": {"reqSigs": 1, "hex": "76a914d5727f30c2e05e6301d381ff0a8b09421b7a07b988ac", "addresses": ["1LTc6Eu8s9fy2zpsJRUjRHBF12th43N9je"], "asm": "OP_DUP OP_HASH160 d5727f30c2e05e6301d381ff0a8b09421b7a07b9 OP_EQUALVERIFY OP_CHECKSIG", "type": "pubkeyhash"}, "value": 0.0203946, "n": 5}], "hex": "0100000001ce6dfcb4f09f6d638ffa1329e3906a2c811375dfbaff8f9f06653eac3d345931030000006b483045022100dac70b6f085ed89a7ff9f6daf72e35c3e22a220c22970c16dc440c9c02df35a402205e2caaf24939e594de2ee1756ad77b5c7af5c491050e61e3c4f0e603c238e0f5012102a54b6c425a974cba19782ff7ae9d2f63c388b8d4e48e0f78cadae72bc48cb5f1ffffffff068e3302000000000017a914234482e558c4d9c62eacd5709df765ec7a38ef2587ee9805000000000017a91437e19e980ea657005c7b5316f24ed1c16e201a3a877e6701000000000017a9147a36898e727562740a766d91402882eacc86c87587d6100a000000000017a914468543bed98d5b2956f4827cd5cdaaa0e462291387acc60500000000001976a914f1c868a67d41ff7de0fe27f9161f82e81668c9e988aca41e1f00000000001976a914d5727f30c2e05e6301d381ff0a8b09421b7a07b988ac00000000", "vin": [{"sequence": 4294967295, "scriptSig": {"hex": "483045022100dac70b6f085ed89a7ff9f6daf72e35c3e22a220c22970c16dc440c9c02df35a402205e2caaf24939e594de2ee1756ad77b5c7af5c491050e61e3c4f0e603c238e0f5012102a54b6c425a974cba19782ff7ae9d2f63c388b8d4e48e0f78cadae72bc48cb5f1", "asm": "3045022100dac70b6f085ed89a7ff9f6daf72e35c3e22a220c22970c16dc440c9c02df35a402205e2caaf24939e594de2ee1756ad77b5c7af5c491050e61e3c4f0e603c238e0f5[ALL] 02a54b6c425a974cba19782ff7ae9d2f63c388b8d4e48e0f78cadae72bc48cb5f1"}, "vout": 3, "txid": "3159343dac3e65069f8fffbadf7513812c6a90e32913fa8f636d9ff0b4fc6dce"}], "txid": "6efa9a0669d939391a99b2bb30f70c0477b8031afc2ea7562f8151d4d486065e", "blocktime": 1537872018, "version": 1, "confirmations": 11489, "time": 1537872018, "locktime": 0, "vsize": 354, "size": 354}