{"hash": "6efd26463938b95a1efd537424b59b7e0b5e86f54b62426d36643838af9b12c7", "blockhash": "0000000000000000001cda96e906b7601b7a6fb1a3b62bca570a9e5d8f4b3de1", "vout": [{"scriptPubKey": {"reqSigs": 1, "hex": "76a91414580e4aa8f247339a2552b84f6c57e88a0109c188ac", "addresses": ["12ra14dxCzuuF9MRKocLNAc2teCxMVqRQo"], "asm": "OP_DUP OP_HASH160 14580e4aa8f247339a2552b84f6c57e88a0109c1 OP_EQUALVERIFY OP_CHECKSIG", "type": "pubkeyhash"}, "value": 55.45076222, "n": 0}, {"scriptPubKey": {"reqSigs": 1, "hex": "76a914a01dd594f7e08b4ed646bf0a55ef0d9df521d0f188ac", "addresses": ["1FbcrcmVCW6itfDfnhZ7chGhAEvGe39LNs"], "asm": "OP_DUP OP_HASH160 a01dd594f7e08b4ed646bf0a55ef0d9df521d0f1 OP_EQUALVERIFY OP_CHECKSIG", "type": "pubkeyhash"}, "value": 0.02, "n": 1}], "hex": "0100000001effb1217c1aa58a551d64a334017944180a2a50014dd50e4037a1bcf7ca4d675000000006a473044022006300892b8f841d37b478edb0b165965b1397f93b2483573124e01cb602b2041022064f6a7be43f1a5646811f64d0779d69517c18cc6757b35145b162350018e717d012103fd4172eb5b9cb29b8e7981ec520aeb0c3ce23e51aafbf6b4c7c1c45971b35a0dffffffff02fe25834a010000001976a91414580e4aa8f247339a2552b84f6c57e88a0109c188ac80841e00000000001976a914a01dd594f7e08b4ed646bf0a55ef0d9df521d0f188ac00000000", "vin": [{"sequence": 4294967295, "scriptSig": {"hex": "473044022006300892b8f841d37b478edb0b165965b1397f93b2483573124e01cb602b2041022064f6a7be43f1a5646811f64d0779d69517c18cc6757b35145b162350018e717d012103fd4172eb5b9cb29b8e7981ec520aeb0c3ce23e51aafbf6b4c7c1c45971b35a0d", "asm": "3044022006300892b8f841d37b478edb0b165965b1397f93b2483573124e01cb602b2041022064f6a7be43f1a5646811f64d0779d69517c18cc6757b35145b162350018e717d[ALL] 03fd4172eb5b9cb29b8e7981ec520aeb0c3ce23e51aafbf6b4c7c1c45971b35a0d"}, "vout": 0, "txid": "75d6a47ccf1b7a03e450dd1400a5a28041941740334ad651a558aac11712fbef"}], "txid": "6efd26463938b95a1efd537424b59b7e0b5e86f54b62426d36643838af9b12c7", "blocktime": 1537873282, "version": 1, "confirmations": 11480, "time": 1537873282, "locktime": 0, "vsize": 225, "size": 225}