{"hash": "7763d5900e5f88a40f69252ada7d787e55aa1c0712eba9fdaf5de922303e0ac8", "blockhash": "000000000000000000022b45ed06c6f4ccd3cf7fb5ba4856ebd2e58215665228", "vout": [{"scriptPubKey": {"reqSigs": 1, "hex": "76a914bb56682bc4d10ab583c13a2c805e8bf9d5476a9288ac", "addresses": ["1J5YsXkZvVJWtFjfhpghk4r34c9Ays2pp5"], "asm": "OP_DUP OP_HASH160 bb56682bc4d10ab583c13a2c805e8bf9d5476a92 OP_EQUALVERIFY OP_CHECKSIG", "type": "pubkeyhash"}, "value": 0.14922834, "n": 0}, {"scriptPubKey": {"reqSigs": 1, "hex": "0014c96a2719a4e52a2659067e5a4b545a21ad099087", "addresses": ["bc1qe94zwxdyu54zvkgx0edyk4z6yxksnyy8s879vv"], "asm": "0 c96a2719a4e52a2659067e5a4b545a21ad099087", "type": "witness_v0_keyhash"}, "value": 0.00663901, "n": 1}], "hex": "010000000001012e0d34b6671d159a4e2338c811937dfc88ed0ccf27a59fc95225dc1f1265d59600000000171600140a8be52019fc5ede5f046516a0c4c1800226c570ffffffff0252b4e300000000001976a914bb56682bc4d10ab583c13a2c805e8bf9d5476a9288ac5d210a0000000000160014c96a2719a4e52a2659067e5a4b545a21ad09908702483045022100d0def8049a78b96381828383c69105419869e9d5f56b1e4e5253c71ba8963ca50220738d77f117ca300f03c4c364dfcb17c9368e4f31638858e2b257d3557f7aa1a60121020e7cac44be7c2e8f206883bee327f328bc43d164d89fc24bd6a4c553dedc38c900000000", "vin": [{"txinwitness": ["3045022100d0def8049a78b96381828383c69105419869e9d5f56b1e4e5253c71ba8963ca50220738d77f117ca300f03c4c364dfcb17c9368e4f31638858e2b257d3557f7aa1a601", "020e7cac44be7c2e8f206883bee327f328bc43d164d89fc24bd6a4c553dedc38c9"], "sequence": 4294967295, "scriptSig": {"hex": "1600140a8be52019fc5ede5f046516a0c4c1800226c570", "asm": "00140a8be52019fc5ede5f046516a0c4c1800226c570"}, "vout": 0, "txid": "96d565121fdc2552c99fa527cf0ced88fc7d9311c838234e9a151d67b6340d2e"}], "txid": "6f0314443bf81270be068d65690e48e56b2d352478ee66701b585d0f74da8e4b", "blocktime": 1537869901, "version": 1, "confirmations": 11523, "time": 1537869901, "locktime": 0, "vsize": 167, "size": 249}