{"hash": "2ff2732da60fc943281b82decca77408e03197c6ea2f437ad3eab00c9a4eb465", "blockhash": "0000000000000000001cda96e906b7601b7a6fb1a3b62bca570a9e5d8f4b3de1", "vout": [{"scriptPubKey": {"reqSigs": 1, "hex": "76a91494f05a158810f67aadc0bf71c4715f057bddeea588ac", "addresses": ["1EaWwLKRJg9diXgNCHqRa4rzxN4a9912sR"], "asm": "OP_DUP OP_HASH160 94f05a158810f67aadc0bf71c4715f057bddeea5 OP_EQUALVERIFY OP_CHECKSIG", "type": "pubkeyhash"}, "value": 0.00679757, "n": 0}, {"scriptPubKey": {"reqSigs": 1, "hex": "a91443f62a3d4933e05622cd51c77017b970eed9a05b87", "addresses": ["37tN6EtYzsorm6zBcpfWz8w5xRNy3mab33"], "asm": "OP_HASH160 43f62a3d4933e05622cd51c77017b970eed9a05b OP_EQUAL", "type": "scripthash"}, "value": 0.33782717, "n": 1}], "hex": "01000000000101da7689986de18a9395fdab0e2f679aaafdbeafbfa26d315ad42d36f02db3a6d201000000232200201dd6ce43abdc84f34fdcc73ab17bc29ae9c934e26a45e54e686de9b71cb3af4affffffff024d5f0a00000000001976a91494f05a158810f67aadc0bf71c4715f057bddeea588acbd7b03020000000017a91443f62a3d4933e05622cd51c77017b970eed9a05b870400473044022048ac517b296a5885e19de81e9eafb5db2a885b1ca1965820a5b5609574bc4bee022078c4066f8c9bb23001ce9a5a2172839c796031716138025f76472bfcd7a3b190014730440220561e3c52cb54b60ce630ac42fb4386d2cdaca8ed39a40d09aa280bc48752479e02205d0ebfed44c5bdf6dc264924c65660754ca3880906da1352c081cdb550ef0f9901475221023d094ce44231935102dd1c672bc70808e5831d5d55d4082df3b1d9c342a4f7b92103c86ff487c5c7bef620008af5c952420bf509584280226750bb54cc3b293fd7ec52ae00000000", "vin": [{"txinwitness": ["", "3044022048ac517b296a5885e19de81e9eafb5db2a885b1ca1965820a5b5609574bc4bee022078c4066f8c9bb23001ce9a5a2172839c796031716138025f76472bfcd7a3b19001", "30440220561e3c52cb54b60ce630ac42fb4386d2cdaca8ed39a40d09aa280bc48752479e02205d0ebfed44c5bdf6dc264924c65660754ca3880906da1352c081cdb550ef0f9901", "5221023d094ce44231935102dd1c672bc70808e5831d5d55d4082df3b1d9c342a4f7b92103c86ff487c5c7bef620008af5c952420bf509584280226750bb54cc3b293fd7ec52ae"], "sequence": 4294967295, "scriptSig": {"hex": "2200201dd6ce43abdc84f34fdcc73ab17bc29ae9c934e26a45e54e686de9b71cb3af4a", "asm": "00201dd6ce43abdc84f34fdcc73ab17bc29ae9c934e26a45e54e686de9b71cb3af4a"}, "vout": 1, "txid": "d2a6b32df0362dd45a316da2bfafbefdaa9a672f0eabfd95938ae16d988976da"}], "txid": "6f04dfee75c286831232b4dcf3e9f991526bb80d193104e3a2b7e3d10978cc83", "blocktime": 1537873282, "version": 1, "confirmations": 11484, "time": 1537873282, "locktime": 0, "vsize": 207, "size": 372}