{"hash": "6f0a6fbc5008ccef139658b3d5b2b5a4bae74feeedec3ec1932accc8a8a39c16", "blockhash": "0000000000000000001cda96e906b7601b7a6fb1a3b62bca570a9e5d8f4b3de1", "vout": [{"scriptPubKey": {"reqSigs": 1, "hex": "76a91481102086260d1135432287ea9b1cf4679323d28b88ac", "addresses": ["1CmRVGqLe9GP5TkXtJEv7CWjPXfd5QTtAH"], "asm": "OP_DUP OP_HASH160 81102086260d1135432287ea9b1cf4679323d28b OP_EQUALVERIFY OP_CHECKSIG", "type": "pubkeyhash"}, "value": 0.05436968, "n": 0}, {"scriptPubKey": {"reqSigs": 1, "hex": "76a914d5ba2eb2d52670fbe9522748bf642da754eb0d6f88ac", "addresses": ["1LV5y3NkVkmdWnF6xRCEXrAnUkRgge4KSq"], "asm": "OP_DUP OP_HASH160 d5ba2eb2d52670fbe9522748bf642da754eb0d6f OP_EQUALVERIFY OP_CHECKSIG", "type": "pubkeyhash"}, "value": 6.12046318, "n": 1}], "hex": "01000000016452d77c1ddfdb33560ab2a7fd2ed8497c0b4c910db0f9476f50059ae51662c5010000006b483045022100af2df3dd45807d3444d4a0cfeef3910b01a20621688db363dfbad06a1d3dec0302206453b0373f02e03a2b73b814fe1eace4dc1e9638f6f45ae13e918afc8335fe9a012102c19ebc0e7fe714e24c55adaeebc7dbab2dc9a208b511bd1b6e83db85506d4d19ffffffff0228f65200000000001976a91481102086260d1135432287ea9b1cf4679323d28b88acee157b24000000001976a914d5ba2eb2d52670fbe9522748bf642da754eb0d6f88ac00000000", "vin": [{"sequence": 4294967295, "scriptSig": {"hex": "483045022100af2df3dd45807d3444d4a0cfeef3910b01a20621688db363dfbad06a1d3dec0302206453b0373f02e03a2b73b814fe1eace4dc1e9638f6f45ae13e918afc8335fe9a012102c19ebc0e7fe714e24c55adaeebc7dbab2dc9a208b511bd1b6e83db85506d4d19", "asm": "3045022100af2df3dd45807d3444d4a0cfeef3910b01a20621688db363dfbad06a1d3dec0302206453b0373f02e03a2b73b814fe1eace4dc1e9638f6f45ae13e918afc8335fe9a[ALL] 02c19ebc0e7fe714e24c55adaeebc7dbab2dc9a208b511bd1b6e83db85506d4d19"}, "vout": 1, "txid": "c56216e59a05506f47f9b00d914c0b7c49d82efda7b20a5633dbdf1d7cd75264"}], "txid": "6f0a6fbc5008ccef139658b3d5b2b5a4bae74feeedec3ec1932accc8a8a39c16", "blocktime": 1537873282, "version": 1, "confirmations": 11484, "time": 1537873282, "locktime": 0, "vsize": 226, "size": 226}