{"hash": "fffb87ccfb052725a2d64b8d03b9315a0855a59fe072e467e07994e5429e695e", "blockhash": "00000000000000000017f5eb5941039fbcee6240d03bc1f2f8e35350df66a1d8", "vout": [{"scriptPubKey": {"reqSigs": 1, "hex": "a91469f375d43cbddbd4ccc36de40eda9e38e1c7413a87", "addresses": ["3BMEXbsXqqC8ZpKcBQiwUz37a6F3QmoFzx"], "asm": "OP_HASH160 69f375d43cbddbd4ccc36de40eda9e38e1c7413a OP_EQUAL", "type": "scripthash"}, "value": 0.01349878, "n": 0}, {"scriptPubKey": {"reqSigs": 1, "hex": "a91436178de3f229ebf07db97cd9d517a6affd5190b587", "addresses": ["36d2dUs7wiMxnr2td9iQwKxJp7xjNtuRgz"], "asm": "OP_HASH160 36178de3f229ebf07db97cd9d517a6affd5190b5 OP_EQUAL", "type": "scripthash"}, "value": 10.0, "n": 1}, {"scriptPubKey": {"reqSigs": 1, "hex": "a9145c3995a3348b1f89deab774eb598c05cc5c9ab8a87", "addresses": ["3A6f5EaJS6fzkB7a2ozWvies7RAER12Eik"], "asm": "OP_HASH160 5c3995a3348b1f89deab774eb598c05cc5c9ab8a OP_EQUAL", "type": "scripthash"}, "value": 0.0607, "n": 2}, {"scriptPubKey": {"reqSigs": 1, "hex": "76a914c727fccfcc526859ad21f6bd8dfd956f2e51f60788ac", "addresses": ["1KA3NZLuLP8JZy5XGrEP65E8N7vsNKcoBd"], "asm": "OP_DUP OP_HASH160 c727fccfcc526859ad21f6bd8dfd956f2e51f607 OP_EQUALVERIFY OP_CHECKSIG", "type": "pubkeyhash"}, "value": 1.09, "n": 3}, {"scriptPubKey": {"reqSigs": 1, "hex": "0020701a8d401c84fb13e6baf169d59684e17abd9fa216c8cc5b9fc63d622ff8c58d", "addresses": ["bc1qwqdg6squsna38e46795at95yu9atm8azzmyvckulcc7kytlcckxswvvzej"], "asm": "0 701a8d401c84fb13e6baf169d59684e17abd9fa216c8cc5b9fc63d622ff8c58d", "type": "witness_v0_scripthash"}, "value": 8.84540122, "n": 4}], "hex": "010000000001015530ed7937ea0b7fbcb5fa970faae8d233f6b2634925a314354f6c9a9654ebaa0800000000ffffffff05f69814000000000017a91469f375d43cbddbd4ccc36de40eda9e38e1c7413a8700ca9a3b0000000017a91436178de3f229ebf07db97cd9d517a6affd5190b587f09e5c000000000017a9145c3995a3348b1f89deab774eb598c05cc5c9ab8a8740357f06000000001976a914c727fccfcc526859ad21f6bd8dfd956f2e51f60788acda02b93400000000220020701a8d401c84fb13e6baf169d59684e17abd9fa216c8cc5b9fc63d622ff8c58d0400473044022035038012889a2cf87aedfa4c79a21ede8980f14fdcb3ad61663d509d2ebc6eef022075196f4a1d03b9931beb72cd150bd3d42e332756f9a62423ad7de7118d5da76701473044022072e5576afd798632c0fbbd4c2cb96ac58843638eab0d483436868cb06068c0ca022027a7008f401cd8e73523ed9377fc8b2db23a96184874e7c0a0fc835a28c9786b01695221022b003d276bce58bef509bdcd9cf7e156f0eae18e1175815282e65e7da788bb5b21035c58f2f60ecf38c9c8b9d1316b662627ec672f5fd912b1a2cc28d0b9b00575fd2103c96d495bfdd5ba4145e3e046fee45e84a8a48ad05bd8dbb395c011a32cf9f88053ae00000000", "vin": [{"txinwitness": ["", "3044022035038012889a2cf87aedfa4c79a21ede8980f14fdcb3ad61663d509d2ebc6eef022075196f4a1d03b9931beb72cd150bd3d42e332756f9a62423ad7de7118d5da76701", "3044022072e5576afd798632c0fbbd4c2cb96ac58843638eab0d483436868cb06068c0ca022027a7008f401cd8e73523ed9377fc8b2db23a96184874e7c0a0fc835a28c9786b01", "5221022b003d276bce58bef509bdcd9cf7e156f0eae18e1175815282e65e7da788bb5b21035c58f2f60ecf38c9c8b9d1316b662627ec672f5fd912b1a2cc28d0b9b00575fd2103c96d495bfdd5ba4145e3e046fee45e84a8a48ad05bd8dbb395c011a32cf9f88053ae"], "sequence": 4294967295, "scriptSig": {"hex": "", "asm": ""}, "vout": 8, "txid": "aaeb54969a6c4f3514a3254963b2f633d2e8aa0f97fab5bc7f0bea3779ed3055"}], "txid": "6f0a6c73edd4f8fd33740a1b666b5535e3051fe700a5e5ce9e91131e1606e315", "blocktime": 1537874412, "version": 1, "confirmations": 11466, "time": 1537874412, "locktime": 0, "vsize": 288, "size": 478}