{"hash": "6f0b5f4db6dd5753600aac8f3a91b456d0d993c4ec407a4bb5b482097db89c61", "blockhash": "0000000000000000001e0dab787dd257d1dbfcb92a98c2207d5e1078be1f4165", "vout": [{"scriptPubKey": {"type": "nulldata", "hex": "6a4c50000077ad00013516eda676666044e9c03069af6c953dd567cf27e7e3ef3236678a62509738932df316c04dc51f4e0885f1ba0b515baa10dd06122d089d1cee0d1d100759d4ba30d2c37bb011d97e02cf", "asm": "OP_RETURN 000077ad00013516eda676666044e9c03069af6c953dd567cf27e7e3ef3236678a62509738932df316c04dc51f4e0885f1ba0b515baa10dd06122d089d1cee0d1d100759d4ba30d2c37bb011d97e02cf"}, "value": 0.0, "n": 0}, {"scriptPubKey": {"reqSigs": 1, "hex": "76a91427fab4fd1f952add3f13e3a33b7ed48328d06b6a88ac", "addresses": ["14ePgugMf586ZKVycEM36u1HfwfxovcvcL"], "asm": "OP_DUP OP_HASH160 27fab4fd1f952add3f13e3a33b7ed48328d06b6a OP_EQUALVERIFY OP_CHECKSIG", "type": "pubkeyhash"}, "value": 0.0064152, "n": 1}], "hex": "0100000001721225d6297c6b55b411b54d6cfb6e48f75e274c8ef05df20627e312eb1e3c93000000006b483045022100979742bbedd2ac040e3d9de753e538f83178275ec6dbb1200197097f6b3cd4450220526fbb80e0d62085bdeda9b7d35c96d9d6a0bc047dfb60c9685862a86f95774e012103b3dec01b6911361027064a1aa9c31fbf2ffe579edc1f8d0b00676d7dc280dc16ffffffff020000000000000000536a4c50000077ad00013516eda676666044e9c03069af6c953dd567cf27e7e3ef3236678a62509738932df316c04dc51f4e0885f1ba0b515baa10dd06122d089d1cee0d1d100759d4ba30d2c37bb011d97e02cff0c90900000000001976a91427fab4fd1f952add3f13e3a33b7ed48328d06b6a88ac00000000", "vin": [{"sequence": 4294967295, "scriptSig": {"hex": "483045022100979742bbedd2ac040e3d9de753e538f83178275ec6dbb1200197097f6b3cd4450220526fbb80e0d62085bdeda9b7d35c96d9d6a0bc047dfb60c9685862a86f95774e012103b3dec01b6911361027064a1aa9c31fbf2ffe579edc1f8d0b00676d7dc280dc16", "asm": "3045022100979742bbedd2ac040e3d9de753e538f83178275ec6dbb1200197097f6b3cd4450220526fbb80e0d62085bdeda9b7d35c96d9d6a0bc047dfb60c9685862a86f95774e[ALL] 03b3dec01b6911361027064a1aa9c31fbf2ffe579edc1f8d0b00676d7dc280dc16"}, "vout": 0, "txid": "933c1eeb12e32706f25df08e4c275ef7486efb6c4db511b4556b7c29d6251272"}], "txid": "6f0b5f4db6dd5753600aac8f3a91b456d0d993c4ec407a4bb5b482097db89c61", "blocktime": 1537872475, "version": 1, "confirmations": 11486, "time": 1537872475, "locktime": 0, "vsize": 284, "size": 284}