{"hash": "e500ab858a00b29b22808262fd886f839759bb5646bba136d44d6ed1c84d0707", "blockhash": "0000000000000000001cda96e906b7601b7a6fb1a3b62bca570a9e5d8f4b3de1", "vout": [{"scriptPubKey": {"reqSigs": 1, "hex": "a91470721f3c65e766af3bc2e752b6c54a16f717c56d87", "addresses": ["3BwaKN9TCPMbeyK75sjQeE98fjzhPVbSxP"], "asm": "OP_HASH160 70721f3c65e766af3bc2e752b6c54a16f717c56d OP_EQUAL", "type": "scripthash"}, "value": 0.00783519, "n": 0}, {"scriptPubKey": {"reqSigs": 1, "hex": "0014a780fdb532a703cdd67fad5cc34f8eb49ad8a003", "addresses": ["bc1q57q0mdfj5upum4nl44wvxnuwkjdd3gqryu5dg7"], "asm": "0 a780fdb532a703cdd67fad5cc34f8eb49ad8a003", "type": "witness_v0_keyhash"}, "value": 0.00256763, "n": 1}], "hex": "01000000000101a2d178cb625e17e1140758ec09b7a126b5f81aafbb49f8dc0bb93818b68848fb0e0000001716001415a6727885d6a6c50d9cc129b7bab35966843205ffffffff029ff40b000000000017a91470721f3c65e766af3bc2e752b6c54a16f717c56d87fbea030000000000160014a780fdb532a703cdd67fad5cc34f8eb49ad8a0030247304402207a5a463ee0476bb5227ffe337df65a8329ff439ec968b3864c7dc1bb0a911a8b02205a9b5b7f56d09c6663c8c777852c7d6efccf55d4fb907c97bdfcc8716e5460ec012103d64578f614c4c43dc5f59a12c0b601a7799f7d621359484cf0bf52c0dda4a90300000000", "vin": [{"txinwitness": ["304402207a5a463ee0476bb5227ffe337df65a8329ff439ec968b3864c7dc1bb0a911a8b02205a9b5b7f56d09c6663c8c777852c7d6efccf55d4fb907c97bdfcc8716e5460ec01", "03d64578f614c4c43dc5f59a12c0b601a7799f7d621359484cf0bf52c0dda4a903"], "sequence": 4294967295, "scriptSig": {"hex": "16001415a6727885d6a6c50d9cc129b7bab35966843205", "asm": "001415a6727885d6a6c50d9cc129b7bab35966843205"}, "vout": 14, "txid": "fb4888b61838b90bdcf849bbaf1af8b526a1b709ec580714e1175e62cb78d1a2"}], "txid": "6f0d48f884fdf56550c8ab32f253a55ff53ab698a965f3a6c788dcb2d705d441", "blocktime": 1537873282, "version": 1, "confirmations": 11484, "time": 1537873282, "locktime": 0, "vsize": 165, "size": 246}