{"hash": "6f1735be9b78a651926513febe7aa39e158dfe67aa5153ca5168751d9f36a769", "blockhash": "0000000000000000001e0dab787dd257d1dbfcb92a98c2207d5e1078be1f4165", "vout": [{"scriptPubKey": {"reqSigs": 1, "hex": "76a9149788b28e9ab5fd5676af6eb346e72b5f34aa72b088ac", "addresses": ["1EpEnsiVGoVcKYFpeCzxK4SPocY2Em5vej"], "asm": "OP_DUP OP_HASH160 9788b28e9ab5fd5676af6eb346e72b5f34aa72b0 OP_EQUALVERIFY OP_CHECKSIG", "type": "pubkeyhash"}, "value": 0.01743124, "n": 0}, {"scriptPubKey": {"reqSigs": 1, "hex": "76a91425304f5ff529b745781d57cf49c0da177b8378f288ac", "addresses": ["14PdsjtLMENXpXwFMBgcKVvJfLZBkLwkrL"], "asm": "OP_DUP OP_HASH160 25304f5ff529b745781d57cf49c0da177b8378f2 OP_EQUALVERIFY OP_CHECKSIG", "type": "pubkeyhash"}, "value": 0.00596505, "n": 1}], "hex": "02000000014fe9348935222b9f07b71da894e7cd0a23b71b3c91f69434ccbdd01cc21be5cf000000006b483045022100bfac876f36e72fb3bd8d3525e3313d372694e2e01d5265476b0c1888972fd84c02201012d6bfa7901a132b84a8bedcef395bb1e7b589c0b3b408d96198c62c901da5012103a2270d7f3e5a7d8afe2c67baef3b46d7adea52e3fe94f6db28cb080c1cc731d3feffffff0214991a00000000001976a9149788b28e9ab5fd5676af6eb346e72b5f34aa72b088ac191a0900000000001976a91425304f5ff529b745781d57cf49c0da177b8378f288ac12490800", "vin": [{"sequence": 4294967294, "scriptSig": {"hex": "483045022100bfac876f36e72fb3bd8d3525e3313d372694e2e01d5265476b0c1888972fd84c02201012d6bfa7901a132b84a8bedcef395bb1e7b589c0b3b408d96198c62c901da5012103a2270d7f3e5a7d8afe2c67baef3b46d7adea52e3fe94f6db28cb080c1cc731d3", "asm": "3045022100bfac876f36e72fb3bd8d3525e3313d372694e2e01d5265476b0c1888972fd84c02201012d6bfa7901a132b84a8bedcef395bb1e7b589c0b3b408d96198c62c901da5[ALL] 03a2270d7f3e5a7d8afe2c67baef3b46d7adea52e3fe94f6db28cb080c1cc731d3"}, "vout": 0, "txid": "cfe51bc21cd0bdcc3494f6913c1bb7230acde794a81db7079f2b22358934e94f"}], "txid": "6f1735be9b78a651926513febe7aa39e158dfe67aa5153ca5168751d9f36a769", "blocktime": 1537872475, "version": 2, "confirmations": 11487, "time": 1537872475, "locktime": 542994, "vsize": 226, "size": 226}