{"hash": "61f62dbc88bcbd9f553790a8bbc4b4aaee434fa8fa39f95a7f6ee5d13ac1ddb3", "blockhash": "0000000000000000001e0dab787dd257d1dbfcb92a98c2207d5e1078be1f4165", "vout": [{"scriptPubKey": {"reqSigs": 1, "hex": "76a9149a1b8f9b1fa2d2297863adb1cb11c71df455684888ac", "addresses": ["1F3r5We2zwNiSzG6GQUTTWnnPMCz2HJbJu"], "asm": "OP_DUP OP_HASH160 9a1b8f9b1fa2d2297863adb1cb11c71df4556848 OP_EQUALVERIFY OP_CHECKSIG", "type": "pubkeyhash"}, "value": 2.718e-05, "n": 0}, {"scriptPubKey": {"reqSigs": 1, "hex": "a914e8db75c900cf08f06518e96d167331f2a4abfb3387", "addresses": ["3NvFbQMAkkqEFj4i1sYPPLkSWzxTFUchjA"], "asm": "OP_HASH160 e8db75c900cf08f06518e96d167331f2a4abfb33 OP_EQUAL", "type": "scripthash"}, "value": 0.00155101, "n": 1}], "hex": "0100000000010153b97abfd8f21875f79348d1b1f4fe44ee5e2ff7b2b205cfdafc8bfa1e31f56f0100000023220020941cfaff8837763dc1f69ff82b6d6553fdea17a41cfc29a04403293eedd8ccc7ffffffff029e0a0000000000001976a9149a1b8f9b1fa2d2297863adb1cb11c71df455684888acdd5d02000000000017a914e8db75c900cf08f06518e96d167331f2a4abfb33870400483045022100c57842245d6cca2e09cc8cc7d08eb86b61e317ad5127264664fd2d2ed6bfa78702206e33229a826ccef71ef4aa16a649ea5698fea31574775709aebcca7eb30f81e3014730440220718cc438fb65791818eb6c766387bef711d428cb5e27a9aa6a9b3b6d0626c6a90220466b6b1f1da6ce0b6a68acfae9b6d7357bae3909c3cec7dbbcef083966a44f330147522102531db3a5883f29bab4241dd0cd726936667bcda445d89bdd22244e828b6993342103148c80a5bdfddb05ff5bcffc397c8ca748d8b435ec6a175bc9d7bfc7fc6f853752ae00000000", "vin": [{"txinwitness": ["", "3045022100c57842245d6cca2e09cc8cc7d08eb86b61e317ad5127264664fd2d2ed6bfa78702206e33229a826ccef71ef4aa16a649ea5698fea31574775709aebcca7eb30f81e301", "30440220718cc438fb65791818eb6c766387bef711d428cb5e27a9aa6a9b3b6d0626c6a90220466b6b1f1da6ce0b6a68acfae9b6d7357bae3909c3cec7dbbcef083966a44f3301", "522102531db3a5883f29bab4241dd0cd726936667bcda445d89bdd22244e828b6993342103148c80a5bdfddb05ff5bcffc397c8ca748d8b435ec6a175bc9d7bfc7fc6f853752ae"], "sequence": 4294967295, "scriptSig": {"hex": "220020941cfaff8837763dc1f69ff82b6d6553fdea17a41cfc29a04403293eedd8ccc7", "asm": "0020941cfaff8837763dc1f69ff82b6d6553fdea17a41cfc29a04403293eedd8ccc7"}, "vout": 1, "txid": "6ff5311efa8bfcdacf05b2b2f72f5eee44fef4b1d14893f77518f2d8bf7ab953"}], "txid": "6f1ed9c9dec277db72ce5bb57ab0b62006b25e1b2d9d15817859109450209d21", "blocktime": 1537872475, "version": 1, "confirmations": 11487, "time": 1537872475, "locktime": 0, "vsize": 208, "size": 373}