{"hash": "6f1f035f1021b19be2545424e7324ddd34e0934bb6f40e67ca11bb31e2985c9f", "blockhash": "0000000000000000000e13cef7c366c0283d82e591d1acd082e914b08063cdf1", "vout": [{"scriptPubKey": {"reqSigs": 1, "hex": "76a91465ed915e450d666ed081658b1076cb2028d16cd488ac", "addresses": ["1AHwqsvvrR3KqYtQRZ6w7Y7uwRUUCkQGLT"], "asm": "OP_DUP OP_HASH160 65ed915e450d666ed081658b1076cb2028d16cd4 OP_EQUALVERIFY OP_CHECKSIG", "type": "pubkeyhash"}, "value": 0.0154698, "n": 0}, {"scriptPubKey": {"reqSigs": 1, "hex": "76a914c2d3f9105ba4cff8c9fc1d450c6b9b185bbd769d88ac", "addresses": ["1JmA2MM6cMwCBi4XTdDmKzoG6hzs7BLKRv"], "asm": "OP_DUP OP_HASH160 c2d3f9105ba4cff8c9fc1d450c6b9b185bbd769d OP_EQUALVERIFY OP_CHECKSIG", "type": "pubkeyhash"}, "value": 1.05415178, "n": 1}], "hex": "0100000001c15949bbeb0155d3bc6ab5be378e846ee6441550cde68dea88bbf7418fa73a33020000006b483045022100e32e3c9aff04fea001f711f780a3b3e6f8fb33cecf6d0ea1a1f4ddda1471681302205b6c4e5846cf4053bc760153d55dfe45ba672a354bfab8a28233df11b223ae84012103e96f102a24c2369f8cad7b8a1d01322b0ba94a3ab803876bf4bc7ce63be06045ffffffff02e49a1700000000001976a91465ed915e450d666ed081658b1076cb2028d16cd488ac0a824806000000001976a914c2d3f9105ba4cff8c9fc1d450c6b9b185bbd769d88ac00000000", "vin": [{"sequence": 4294967295, "scriptSig": {"hex": "483045022100e32e3c9aff04fea001f711f780a3b3e6f8fb33cecf6d0ea1a1f4ddda1471681302205b6c4e5846cf4053bc760153d55dfe45ba672a354bfab8a28233df11b223ae84012103e96f102a24c2369f8cad7b8a1d01322b0ba94a3ab803876bf4bc7ce63be06045", "asm": "3045022100e32e3c9aff04fea001f711f780a3b3e6f8fb33cecf6d0ea1a1f4ddda1471681302205b6c4e5846cf4053bc760153d55dfe45ba672a354bfab8a28233df11b223ae84[ALL] 03e96f102a24c2369f8cad7b8a1d01322b0ba94a3ab803876bf4bc7ce63be06045"}, "vout": 2, "txid": "333aa78f41f7bb88ea8de6cd501544e66e848e37beb56abcd35501ebbb4959c1"}], "txid": "6f1f035f1021b19be2545424e7324ddd34e0934bb6f40e67ca11bb31e2985c9f", "blocktime": 1537871767, "version": 1, "confirmations": 11490, "time": 1537871767, "locktime": 0, "vsize": 226, "size": 226}