{"hash": "6f218ff4806bdb296a51ba107c3f73cb8965dc681d6e541931f1486be543a45d", "blockhash": "0000000000000000001e0dab787dd257d1dbfcb92a98c2207d5e1078be1f4165", "vout": [{"scriptPubKey": {"reqSigs": 1, "hex": "a9144b1e13934f6e4d7b951cd40fec631523e900635987", "addresses": ["38YCdgRg7hJHiSs85b46UhRvJuzCTEVziH"], "asm": "OP_HASH160 4b1e13934f6e4d7b951cd40fec631523e9006359 OP_EQUAL", "type": "scripthash"}, "value": 0.01562302, "n": 0}, {"scriptPubKey": {"reqSigs": 1, "hex": "76a914189d0600aa7f8f165bf3ca237b60afe8f997544288ac", "addresses": ["13F9KnVXXnf2iTikJPFJ8e7aRt3pa1kJSe"], "asm": "OP_DUP OP_HASH160 189d0600aa7f8f165bf3ca237b60afe8f9975442 OP_EQUALVERIFY OP_CHECKSIG", "type": "pubkeyhash"}, "value": 0.02171369, "n": 1}], "hex": "01000000011e38ff276cfb48ebf4fe80061119b7ca56c26b7daf33b937f7aab2428b33c681010000006b483045022100d75c51f9c6bf075ab123416cc1d6379d633c2c05a5364b322a70f4dbd20f1e5d0220321d63a1bde37700428557f507771cdb9507fac75a800d5b28db3b078dba97f2012102055766d829bb7595ebcaa47dcd07611cacc1d2315a0021b929efce703f77a2feffffffff02bed617000000000017a9144b1e13934f6e4d7b951cd40fec631523e900635987e9212100000000001976a914189d0600aa7f8f165bf3ca237b60afe8f997544288ac00000000", "vin": [{"sequence": 4294967295, "scriptSig": {"hex": "483045022100d75c51f9c6bf075ab123416cc1d6379d633c2c05a5364b322a70f4dbd20f1e5d0220321d63a1bde37700428557f507771cdb9507fac75a800d5b28db3b078dba97f2012102055766d829bb7595ebcaa47dcd07611cacc1d2315a0021b929efce703f77a2fe", "asm": "3045022100d75c51f9c6bf075ab123416cc1d6379d633c2c05a5364b322a70f4dbd20f1e5d0220321d63a1bde37700428557f507771cdb9507fac75a800d5b28db3b078dba97f2[ALL] 02055766d829bb7595ebcaa47dcd07611cacc1d2315a0021b929efce703f77a2fe"}, "vout": 1, "txid": "81c6338b42b2aaf737b933af7d6bc256cab719110680fef4eb48fb6c27ff381e"}], "txid": "6f218ff4806bdb296a51ba107c3f73cb8965dc681d6e541931f1486be543a45d", "blocktime": 1537872475, "version": 1, "confirmations": 11487, "time": 1537872475, "locktime": 0, "vsize": 224, "size": 224}