{"hash": "6f2281df518f9b4e788ae45ef11e8629e0d6abe275472b8faa741b520ab4710f", "blockhash": "0000000000000000000e13cef7c366c0283d82e591d1acd082e914b08063cdf1", "vout": [{"scriptPubKey": {"reqSigs": 1, "hex": "76a914f4dae8b235bbbcf75c728cc321c68cbe128dedd288ac", "addresses": ["1PKg7sNVTPMTUbUJqTcYVdskeDrxcKyXLd"], "asm": "OP_DUP OP_HASH160 f4dae8b235bbbcf75c728cc321c68cbe128dedd2 OP_EQUALVERIFY OP_CHECKSIG", "type": "pubkeyhash"}, "value": 0.00166785, "n": 0}, {"scriptPubKey": {"reqSigs": 1, "hex": "76a914a47ac6c197f516924ef3dd1754a55ff9806a33c288ac", "addresses": ["1Fzgu7aZAhQ8MCEfLeCykVM3nJT9C4zUHJ"], "asm": "OP_DUP OP_HASH160 a47ac6c197f516924ef3dd1754a55ff9806a33c2 OP_EQUALVERIFY OP_CHECKSIG", "type": "pubkeyhash"}, "value": 0.00420412, "n": 1}], "hex": "0100000001e09fff1b7bf0434d1a1ca87d8c70902f3427cdbef57a4353159cf9128f04d61d010000006b483045022100d6861fe2be33e578c7f765b24c2ec036627cfac5e0710c8efe08b44547fb973c02206151853de1f1c33fac364d9aa047b841fa6ec442c680ff3da85818623c2fb8d0012103faba19e4ee54ffbec402377caaa2b21c375e19e7e7ade9851803aa8b5c5b332bffffffff02818b0200000000001976a914f4dae8b235bbbcf75c728cc321c68cbe128dedd288ac3c6a0600000000001976a914a47ac6c197f516924ef3dd1754a55ff9806a33c288ac00000000", "vin": [{"sequence": 4294967295, "scriptSig": {"hex": "483045022100d6861fe2be33e578c7f765b24c2ec036627cfac5e0710c8efe08b44547fb973c02206151853de1f1c33fac364d9aa047b841fa6ec442c680ff3da85818623c2fb8d0012103faba19e4ee54ffbec402377caaa2b21c375e19e7e7ade9851803aa8b5c5b332b", "asm": "3045022100d6861fe2be33e578c7f765b24c2ec036627cfac5e0710c8efe08b44547fb973c02206151853de1f1c33fac364d9aa047b841fa6ec442c680ff3da85818623c2fb8d0[ALL] 03faba19e4ee54ffbec402377caaa2b21c375e19e7e7ade9851803aa8b5c5b332b"}, "vout": 1, "txid": "1dd6048f12f99c1553437af5becd27342f90708c7da81c1a4d43f07b1bff9fe0"}], "txid": "6f2281df518f9b4e788ae45ef11e8629e0d6abe275472b8faa741b520ab4710f", "blocktime": 1537871767, "version": 1, "confirmations": 11495, "time": 1537871767, "locktime": 0, "vsize": 226, "size": 226}