{"hash": "6f239b53a72885757441aab9f12e6d2b652db2c5a71ac88d693726d8b332134e", "blockhash": "00000000000000000018f53835495a110e01622372bf6ae95dc86f2b0ab887b0", "vout": [{"scriptPubKey": {"reqSigs": 1, "hex": "a91460aa73aa6ac4b438b1cf58c961437b7ed8985a9387", "addresses": ["3AW8zACnFwtM5vmBdUsi3RWqPEWZfV2NaC"], "asm": "OP_HASH160 60aa73aa6ac4b438b1cf58c961437b7ed8985a93 OP_EQUAL", "type": "scripthash"}, "value": 0.069301, "n": 0}, {"scriptPubKey": {"reqSigs": 1, "hex": "76a9148c3d2557d64b5e2b9e2e66f8ca8775fa4ddd83ce88ac", "addresses": ["1DnWrM4b7QxACivcesP4RvusDrZNzpafQ2"], "asm": "OP_DUP OP_HASH160 8c3d2557d64b5e2b9e2e66f8ca8775fa4ddd83ce OP_EQUALVERIFY OP_CHECKSIG", "type": "pubkeyhash"}, "value": 0.01268876, "n": 1}], "hex": "0200000001e6bef13f2e6e0e4ec3b8b98f71301186c3b6ba2540e26f9e0621a3a80b90b495000000006b483045022100f479e010cd08c7b668fd8b1c2312fbac9c4b3664f9a843807bec867154bdc4fa02203f93c900554a15e5c5b42dcf215ace256cf88586300c270567c6d191b4f823be012102077c2ab2e9fa75b6fe7e4e57b2405745c5cfb777280c3790a5ea3c3d20bc9c82ffffffff02b4be69000000000017a91460aa73aa6ac4b438b1cf58c961437b7ed8985a93878c5c1300000000001976a9148c3d2557d64b5e2b9e2e66f8ca8775fa4ddd83ce88ac00000000", "vin": [{"sequence": 4294967295, "scriptSig": {"hex": "483045022100f479e010cd08c7b668fd8b1c2312fbac9c4b3664f9a843807bec867154bdc4fa02203f93c900554a15e5c5b42dcf215ace256cf88586300c270567c6d191b4f823be012102077c2ab2e9fa75b6fe7e4e57b2405745c5cfb777280c3790a5ea3c3d20bc9c82", "asm": "3045022100f479e010cd08c7b668fd8b1c2312fbac9c4b3664f9a843807bec867154bdc4fa02203f93c900554a15e5c5b42dcf215ace256cf88586300c270567c6d191b4f823be[ALL] 02077c2ab2e9fa75b6fe7e4e57b2405745c5cfb777280c3790a5ea3c3d20bc9c82"}, "vout": 0, "txid": "95b4900ba8a321069e6fe24025bab6c3861130718fb9b8c34e0e6e2e3ff1bee6"}], "txid": "6f239b53a72885757441aab9f12e6d2b652db2c5a71ac88d693726d8b332134e", "blocktime": 1537870928, "version": 2, "confirmations": 11512, "time": 1537870928, "locktime": 0, "vsize": 224, "size": 224}