{"hash": "6f366fcd039c7dc34b971193f81b9a2087f7ab43038c4b74e737661cb3307472", "blockhash": "0000000000000000000e13cef7c366c0283d82e591d1acd082e914b08063cdf1", "vout": [{"scriptPubKey": {"reqSigs": 1, "hex": "a91469f37744534c5895b14dd4bf995d708aa7d5a3bc87", "addresses": ["3BMEXzWKfWHiNcc9egacUHRbd6yo45ham8"], "asm": "OP_HASH160 69f37744534c5895b14dd4bf995d708aa7d5a3bc OP_EQUAL", "type": "scripthash"}, "value": 1.9975221, "n": 0}, {"scriptPubKey": {"reqSigs": 1, "hex": "76a914eaafb914778edb7b47a8dc2fb1808fba53f8ad5a88ac", "addresses": ["1NPudLPKAhdtAvV55N26Ux4Bp8kvEYYeYB"], "asm": "OP_DUP OP_HASH160 eaafb914778edb7b47a8dc2fb1808fba53f8ad5a OP_EQUALVERIFY OP_CHECKSIG", "type": "pubkeyhash"}, "value": 0.57105141, "n": 1}, {"scriptPubKey": {"reqSigs": 1, "hex": "a914754d14e09dfb31543cc73c3156ca674e05ba190d87", "addresses": ["3CPFKi2BaYZtaoeAZz8uzkyxC8wqpMtznQ"], "asm": "OP_HASH160 754d14e09dfb31543cc73c3156ca674e05ba190d OP_EQUAL", "type": "scripthash"}, "value": 0.0725, "n": 2}, {"scriptPubKey": {"reqSigs": 1, "hex": "a9149bdf91ac4831016d19d1832b7cfb248e1659208687", "addresses": ["3FuCV8HJQqxTTBzXTbuYf8p5Hn9XfwTRFf"], "asm": "OP_HASH160 9bdf91ac4831016d19d1832b7cfb248e16592086 OP_EQUAL", "type": "scripthash"}, "value": 12.79212307, "n": 3}, {"scriptPubKey": {"reqSigs": 1, "hex": "a9149b182e06d6cba6d93c636a3d0685d297d125887487", "addresses": ["3Fq5dKSu5v7KbGzf5pSUgiR9NEfVw3ERvw"], "asm": "OP_HASH160 9b182e06d6cba6d93c636a3d0685d297d1258874 OP_EQUAL", "type": "scripthash"}, "value": 0.15525307, "n": 4}, {"scriptPubKey": {"reqSigs": 1, "hex": "a9145e251a2cc66ca965b81d382c56185864f81f570587", "addresses": ["3AGotV5vdbvCzQd8miwdmaG54QKLDChDka"], "asm": "OP_HASH160 5e251a2cc66ca965b81d382c56185864f81f5705 OP_EQUAL", "type": "scripthash"}, "value": 0.02286961, "n": 5}, {"scriptPubKey": {"reqSigs": 1, "hex": "a914d4972e9486a73287e78300d26ee6fe0f6fbf7b7587", "addresses": ["3M56HX1AehJjaFzBUsvwnmoMfFyqk6GJgz"], "asm": "OP_HASH160 d4972e9486a73287e78300d26ee6fe0f6fbf7b75 OP_EQUAL", "type": "scripthash"}, "value": 0.2, "n": 6}, {"scriptPubKey": {"reqSigs": 1, "hex": "a9148f2b75a1b62ecf4ceb36742220195219bf5f9ae087", "addresses": ["3Ek2cbRsNcgCcKGEMoCVQtRxvBuktQkADW"], "asm": "OP_HASH160 8f2b75a1b62ecf4ceb36742220195219bf5f9ae0 OP_EQUAL", "type": "scripthash"}, "value": 0.43378429, "n": 7}, {"scriptPubKey": {"reqSigs": 1, "hex": "76a914b0b90dffe7c15410e4673b57e6a0b7990393725688ac", "addresses": ["1H7Rcb4BkDzPU9tf3hFzAxmocsnzdpusrF"], "asm": "OP_DUP OP_HASH160 b0b90dffe7c15410e4673b57e6a0b79903937256 OP_EQUALVERIFY OP_CHECKSIG", "type": "pubkeyhash"}, "value": 0.00240735, "n": 8}, {"scriptPubKey": {"reqSigs": 1, "hex": "76a914d27c2a262f06a3fdb97e5181dbcbd88ec9e5df6d88ac", "addresses": ["1LBwePvNWfhQ2t4LXirKiDN5B1NpnTSaZV"], "asm": "OP_DUP OP_HASH160 d27c2a262f06a3fdb97e5181dbcbd88ec9e5df6d OP_EQUALVERIFY OP_CHECKSIG", "type": "pubkeyhash"}, "value": 0.02752691, "n": 9}, {"scriptPubKey": {"reqSigs": 1, "hex": "a9141103f6fe9077ffe0cee5ce6a00931cc5709c23e187", "addresses": ["33EzAHWkT5XtWjjxRzFbXHegnpakeyPGGi"], "asm": "OP_HASH160 1103f6fe9077ffe0cee5ce6a00931cc5709c23e1 OP_EQUAL", "type": "scripthash"}, "value": 0.07013305, "n": 10}, {"scriptPubKey": {"reqSigs": 1, "hex": "a9148346f8967d1e4c29ec30bbcaae5a040ea06f15c087", "addresses": ["3Df9TpzbcD5LQDXLb3RGmL3uUafSzhTNw8"], "asm": "OP_HASH160 8346f8967d1e4c29ec30bbcaae5a040ea06f15c0 OP_EQUAL", "type": "scripthash"}, "value": 1.9995, "n": 11}, {"scriptPubKey": {"reqSigs": 1, "hex": "a914878712e0d1916a26577c5646aac54908a325180187", "addresses": ["3E3cxXdzEtP6u2siqxpeBLrjFDNQ7HzBEt"], "asm": "OP_HASH160 878712e0d1916a26577c5646aac54908a3251801 OP_EQUAL", "type": "scripthash"}, "value": 3.838, "n": 12}, {"scriptPubKey": {"reqSigs": 1, "hex": "76a914d376c0d61b520041c2eece79a42ba661387fe3e288ac", "addresses": ["1LH7qbgD6VzPGVNwv74r5YYpUse3dvDfE8"], "asm": "OP_DUP OP_HASH160 d376c0d61b520041c2eece79a42ba661387fe3e2 OP_EQUALVERIFY OP_CHECKSIG", "type": "pubkeyhash"}, "value": 0.02728259, "n": 13}, {"scriptPubKey": {"reqSigs": 1, "hex": "a91419a7e1d214e7ac434797ae325b83a3ba3175739487", "addresses": ["342fvzZBDxQfpmNvuFcfMXxjp5rwCzJ8xf"], "asm": "OP_HASH160 19a7e1d214e7ac434797ae325b83a3ba31757394 OP_EQUAL", "type": "scripthash"}, "value": 0.00224843, "n": 14}, {"scriptPubKey": {"reqSigs": 1, "hex": "a914fa473fa83783c867c5f1987fb90f18a68de216e787", "addresses": ["3QWNCwmW5FDEnDURPn3VsVbjHBBCFeJ7RP"], "asm": "OP_HASH160 fa473fa83783c867c5f1987fb90f18a68de216e7 OP_EQUAL", "type": "scripthash"}, "value": 0.00603228, "n": 15}, {"scriptPubKey": {"reqSigs": 1, "hex": "a91483345a0110ff0c973b6df09bde96e4d7d8d5324287", "addresses": ["3DemA8CknXpX5T8UeG41YNgBraBj6D9nyH"], "asm": "OP_HASH160 83345a0110ff0c973b6df09bde96e4d7d8d53242 OP_EQUAL", "type": "scripthash"}, "value": 0.0435, "n": 16}, {"scriptPubKey": {"reqSigs": 1, "hex": "76a914f0967afe251b1670754f4a5c5518a68e6c7644f688ac", "addresses": ["1Nw7Sc1WphjBYxjVnWquU7NjEAgrBsEyqX"], "asm": "OP_DUP OP_HASH160 f0967afe251b1670754f4a5c5518a68e6c7644f6 OP_EQUALVERIFY OP_CHECKSIG", "type": "pubkeyhash"}, "value": 1.61553322, "n": 17}, {"scriptPubKey": {"reqSigs": 1, "hex": "a9144effa383483747aead3ffef885f986fd70d0ca7e87", "addresses": ["38tisbYGXebK5VBXsAbmhyroH1sFNNW5Gj"], "asm": "OP_HASH160 4effa383483747aead3ffef885f986fd70d0ca7e OP_EQUAL", "type": "scripthash"}, "value": 0.013, "n": 18}, {"scriptPubKey": {"reqSigs": 1, "hex": "a914e8f62d3a5781e866a4e1bc7a510b20bd3df63fee87", "addresses": ["3NvobhkXPx8pDWXvtTgDLQZd3zJFAjMwyW"], "asm": "OP_HASH160 e8f62d3a5781e866a4e1bc7a510b20bd3df63fee OP_EQUAL", "type": "scripthash"}, "value": 0.06483143, "n": 19}, {"scriptPubKey": {"reqSigs": 1, "hex": "a914a75e00bdcd7c3b3f24a2d09c79ca90a6a09e9e7d87", "addresses": ["3GwyP1qG6bQZF5DZhGFJ9YLqumNQygay3C"], "asm": "OP_HASH160 a75e00bdcd7c3b3f24a2d09c79ca90a6a09e9e7d OP_EQUAL", "type": "scripthash"}, "value": 0.05, "n": 20}, {"scriptPubKey": {"reqSigs": 1, "hex": "76a9141f74f03b7ca4293fa661ccca7d0ca81f440b0e8888ac", "addresses": ["13sL2yFF57CcJR2yuHxZEcPvJeDn27NopQ"], "asm": "OP_DUP OP_HASH160 1f74f03b7ca4293fa661ccca7d0ca81f440b0e88 OP_EQUALVERIFY OP_CHECKSIG", "type": "pubkeyhash"}, "value": 0.015, "n": 21}, {"scriptPubKey": {"reqSigs": 1, "hex": "a914dbd6f349d8334aefe3a68f5836ea5a34c0b235f887", "addresses": ["3MjRQZoo7YEJeRZJLAukhuRuuJ5b8o8XNX"], "asm": "OP_HASH160 dbd6f349d8334aefe3a68f5836ea5a34c0b235f8 OP_EQUAL", "type": "scripthash"}, "value": 0.10022043, "n": 22}, {"scriptPubKey": {"reqSigs": 1, "hex": "a91469f373a9b564b018e146209036c511e62a73d28487", "addresses": ["3BMEX1moNHx1Y7KnLPzpa6aeAtYkzXDV2S"], "asm": "OP_HASH160 69f373a9b564b018e146209036c511e62a73d284 OP_EQUAL", "type": "scripthash"}, "value": 0.09406, "n": 23}, {"scriptPubKey": {"reqSigs": 1, "hex": "a914fd35b32002c582a0ccbf2a67173a31a814e3995a87", "addresses": ["3QmsDCS3dGY7gLbucUzF8UxxxnSL6Z2VTt"], "asm": "OP_HASH160 fd35b32002c582a0ccbf2a67173a31a814e3995a OP_EQUAL", "type": "scripthash"}, "value": 0.21910463, "n": 24}, {"scriptPubKey": {"reqSigs": 1, "hex": "a914f8bad9283e2928b27fbc3380e2a99137ffc16a2d87", "addresses": ["3QNBLZcaQup5EX6GUUFsSDuhLifDejS2vY"], "asm": "OP_HASH160 f8bad9283e2928b27fbc3380e2a99137ffc16a2d OP_EQUAL", "type": "scripthash"}, "value": 0.12781697, "n": 25}, {"scriptPubKey": {"reqSigs": 1, "hex": "76a91409bb7dbbe9870594fcaa92657fce10f44819397988ac", "addresses": ["1tTgqiH6SwpwFhWYLjQFw1y6tL6fUbLUs"], "asm": "OP_DUP OP_HASH160 09bb7dbbe9870594fcaa92657fce10f448193979 OP_EQUALVERIFY OP_CHECKSIG", "type": "pubkeyhash"}, "value": 0.03370395, "n": 26}, {"scriptPubKey": {"reqSigs": 1, "hex": "a914e513646d91bbc130b1f30ecdbaa8939a413d4a2887", "addresses": ["3NaFtsc8kXJLpKNjkXFJQSB4oEY7QP9neb"], "asm": "OP_HASH160 e513646d91bbc130b1f30ecdbaa8939a413d4a28 OP_EQUAL", "type": "scripthash"}, "value": 2.73, "n": 27}, {"scriptPubKey": {"reqSigs": 1, "hex": "a914364cfa3403229c5a3bf18cfa5bb75a33837aa5a287", "addresses": ["36e8dPAtXiQQNbjXK1Lh2xKN5WVghc7jx5"], "asm": "OP_HASH160 364cfa3403229c5a3bf18cfa5bb75a33837aa5a2 OP_EQUAL", "type": "scripthash"}, "value": 0.1495, "n": 28}, {"scriptPubKey": {"reqSigs": 1, "hex": "76a914fa654f9b494d5a4243bfdfe7e1056dc37bb74bcf88ac", "addresses": ["1PpyJAfuAeaWfXFsqJMc6F57xh2CVimMFL"], "asm": "OP_DUP OP_HASH160 fa654f9b494d5a4243bfdfe7e1056dc37bb74bcf OP_EQUALVERIFY OP_CHECKSIG", "type": "pubkeyhash"}, "value": 0.03572898, "n": 29}, {"scriptPubKey": {"reqSigs": 1, "hex": "a91497c53b2c5f07382c4d1a871e17c159fa767859a087", "addresses": ["3FXWENSHaPph4FeRynPu4JfUVxaoRVF3ow"], "asm": "OP_HASH160 97c53b2c5f07382c4d1a871e17c159fa767859a0 OP_EQUAL", "type": "scripthash"}, "value": 0.0282166, "n": 30}, {"scriptPubKey": {"reqSigs": 1, "hex": "a91469f374075601fb65b943318b3235df084d00655587", "addresses": ["3BMEX7XiuYtpQE4Jv1YELeiM2AwQPEUoz2"], "asm": "OP_HASH160 69f374075601fb65b943318b3235df084d006555 OP_EQUAL", "type": "scripthash"}, "value": 0.05193578, "n": 31}, {"scriptPubKey": {"reqSigs": 1, "hex": "76a914f64b5921d023cf863be357fe3ad09b78b8f5688288ac", "addresses": ["1PTHVUSQGAB9QA96jyw55E6m9r8ps98eZ3"], "asm": "OP_DUP OP_HASH160 f64b5921d023cf863be357fe3ad09b78b8f56882 OP_EQUALVERIFY OP_CHECKSIG", "type": "pubkeyhash"}, "value": 0.01981847, "n": 32}, {"scriptPubKey": {"reqSigs": 1, "hex": "a914c08457c29cad3edcd3d53ab832e85dc0d0064e2587", "addresses": ["3KExCiRjqorudZQoDwA2MDVJu6p7zfJ2nc"], "asm": "OP_HASH160 c08457c29cad3edcd3d53ab832e85dc0d0064e25 OP_EQUAL", "type": "scripthash"}, "value": 0.01289969, "n": 33}, {"scriptPubKey": {"reqSigs": 1, "hex": "a9144f8843cb7b88d44ec8a44fe962ce387cdfe05d1487", "addresses": ["38wYYYXEUmeQnb63hnjqnxscLoiX7jYrox"], "asm": "OP_HASH160 4f8843cb7b88d44ec8a44fe962ce387cdfe05d14 OP_EQUAL", "type": "scripthash"}, "value": 0.006, "n": 34}, {"scriptPubKey": {"reqSigs": 1, "hex": "a914c1ee2b19bb5e260cc8d483892a035efeea9b473c87", "addresses": ["3KNReo4F422ZTi5QiK59Xdqua3py4XD62L"], "asm": "OP_HASH160 c1ee2b19bb5e260cc8d483892a035efeea9b473c OP_EQUAL", "type": "scripthash"}, "value": 0.02680275, "n": 35}, {"scriptPubKey": {"reqSigs": 1, "hex": "a914d367f4f4ae700d784b3fcc62c189e95a01179f7987", "addresses": ["3Lxq34xpDarVAuBqzWkCZYFif6FF6FVaTz"], "asm": "OP_HASH160 d367f4f4ae700d784b3fcc62c189e95a01179f79 OP_EQUAL", "type": "scripthash"}, "value": 0.15013992, "n": 36}, {"scriptPubKey": {"reqSigs": 1, "hex": "a91469f373abd94107cab3fea8e092c581d3a219a21287", "addresses": ["3BMEX1uS4Rp7MYsWMBDvYuELU72nXK8pdK"], "asm": "OP_HASH160 69f373abd94107cab3fea8e092c581d3a219a212 OP_EQUAL", "type": "scripthash"}, "value": 0.52933005, "n": 37}, {"scriptPubKey": {"reqSigs": 1, "hex": "a914a4c36d8272f43a504a47491306dfd7a8c35677bc87", "addresses": ["3GiCrZe7EWGuWutAhQDLhVmTJmUFghhyEG"], "asm": "OP_HASH160 a4c36d8272f43a504a47491306dfd7a8c35677bc OP_EQUAL", "type": "scripthash"}, "value": 0.00349667, "n": 38}, {"scriptPubKey": {"reqSigs": 1, "hex": "a9143c77fbeb49356740f238dc41c6f3902c8620b3ce87", "addresses": ["37CkCh6dMBEndw7soVJbvQbEgZRBTYmzyL"], "asm": "OP_HASH160 3c77fbeb49356740f238dc41c6f3902c8620b3ce OP_EQUAL", "type": "scripthash"}, "value": 0.0022145, "n": 39}, {"scriptPubKey": {"reqSigs": 1, "hex": "a91478c9e2736df9567308da87cea909011a42bd62aa87", "addresses": ["3ChgrkRbGRjiMZ3VK276joaA7Ybt8cCGkW"], "asm": "OP_HASH160 78c9e2736df9567308da87cea909011a42bd62aa OP_EQUAL", "type": "scripthash"}, "value": 1.69494517, "n": 40}, {"scriptPubKey": {"reqSigs": 1, "hex": "a91469f375ecd1a9aa685c3fc02990781b6dae66b09187", "addresses": ["3BMEXdPCky9Edwb8wpJccTnZeKWrBWCLf4"], "asm": "OP_HASH160 69f375ecd1a9aa685c3fc02990781b6dae66b091 OP_EQUAL", "type": "scripthash"}, "value": 0.00901064, "n": 41}, {"scriptPubKey": {"reqSigs": 1, "hex": "76a914b113f8820f19f786c371b182f02a4201214b452088ac", "addresses": ["1H9JXYcCapTrA7eQDr6kDbnd6rXVCBWan3"], "asm": "OP_DUP OP_HASH160 b113f8820f19f786c371b182f02a4201214b4520 OP_EQUALVERIFY OP_CHECKSIG", "type": "pubkeyhash"}, "value": 0.1475, "n": 42}, {"scriptPubKey": {"reqSigs": 1, "hex": "a914722191590ce9f8b79c17913da604e0860dd3754687", "addresses": ["3C6VAjy5n2V5zXwBFrCKdEbpUP9rVeyin5"], "asm": "OP_HASH160 722191590ce9f8b79c17913da604e0860dd37546 OP_EQUAL", "type": "scripthash"}, "value": 0.35376795, "n": 43}, {"scriptPubKey": {"reqSigs": 1, "hex": "a9148e9f3bed585a971366f99990c0f7f4b0e9ef73ae87", "addresses": ["3Eh8dZZbrY3CxYcZ3XZRgsajiaWYF5muSZ"], "asm": "OP_HASH160 8e9f3bed585a971366f99990c0f7f4b0e9ef73ae OP_EQUAL", "type": "scripthash"}, "value": 0.16583661, "n": 44}, {"scriptPubKey": {"reqSigs": 1, "hex": "a91469f37701fb4b1e442f4f7a37b9a88666d433056187", "addresses": ["3BMEXvRhxBN52N1R1jyQnMCzUeoJVZTZG6"], "asm": "OP_HASH160 69f37701fb4b1e442f4f7a37b9a88666d4330561 OP_EQUAL", "type": "scripthash"}, "value": 0.13, "n": 45}, {"scriptPubKey": {"reqSigs": 1, "hex": "a91483426593aa654a7c2ab34fa4b4c1c72d3908d21387", "addresses": ["3Df3z18LsFdGfRnaQ9Ms855w29ftAv6sfR"], "asm": "OP_HASH160 83426593aa654a7c2ab34fa4b4c1c72d3908d213 OP_EQUAL", "type": "scripthash"}, "value": 0.0993999, "n": 46}, {"scriptPubKey": {"reqSigs": 1, "hex": "76a91473a79493993fd4d848216581729ebe8280e5773c88ac", "addresses": ["1BYXTkTRAUABQzfeTSQC4L7gnw9of21RZ6"], "asm": "OP_DUP OP_HASH160 73a79493993fd4d848216581729ebe8280e5773c OP_EQUALVERIFY OP_CHECKSIG", "type": "pubkeyhash"}, "value": 0.04492484, "n": 47}, {"scriptPubKey": {"reqSigs": 1, "hex": "a914a0b9633284902fa742847d74d891b84ca355ad8887", "addresses": ["3GLr8BhKWKJo6a5T4uwsrhcyzaQ9WrHg1T"], "asm": "OP_HASH160 a0b9633284902fa742847d74d891b84ca355ad88 OP_EQUAL", "type": "scripthash"}, "value": 0.00929002, "n": 48}, {"scriptPubKey": {"reqSigs": 1, "hex": "76a914622e9dc4e5a074d9777352bdbddca9e498d9d07e88ac", "addresses": ["19x94kq9URV3vSvLGaz8UNiMwoYh12zi1p"], "asm": "OP_DUP OP_HASH160 622e9dc4e5a074d9777352bdbddca9e498d9d07e OP_EQUALVERIFY OP_CHECKSIG", "type": "pubkeyhash"}, "value": 0.00554847, "n": 49}, {"scriptPubKey": {"reqSigs": 1, "hex": "76a91413bbbeddc3923c769c324b3163efc2f0fa2123ac88ac", "addresses": ["12oLkSGv9m2zM7oqxAxpaH7u73xzrcf4qT"], "asm": "OP_DUP OP_HASH160 13bbbeddc3923c769c324b3163efc2f0fa2123ac OP_EQUALVERIFY OP_CHECKSIG", "type": "pubkeyhash"}, "value": 0.225, "n": 50}, {"scriptPubKey": {"reqSigs": 1, "hex": "76a914382f705b6ed13ee04a4b93e330d677fdf69f5c1288ac", "addresses": ["1685fraHqCnK7NqEuaqf4LM7pcnygxcUR3"], "asm": "OP_DUP OP_HASH160 382f705b6ed13ee04a4b93e330d677fdf69f5c12 OP_EQUALVERIFY OP_CHECKSIG", "type": "pubkeyhash"}, "value": 0.00977206, "n": 51}, {"scriptPubKey": {"reqSigs": 1, "hex": "a9144f0d7b043f4d7369fbd0679cb343838d6a45a50b87", "addresses": ["38u1TLoaZDbCPPYK2YfHrvvXw4p43dzdED"], "asm": "OP_HASH160 4f0d7b043f4d7369fbd0679cb343838d6a45a50b OP_EQUAL", "type": "scripthash"}, "value": 0.04925281, "n": 52}, {"scriptPubKey": {"reqSigs": 1, "hex": "a914a4aac7ac66da57e4acc2615c1b2ea07a0b03a4fc87", "addresses": ["3GhhL1DguL5NaCu4xaEuUTQwUCKrpRKiUA"], "asm": "OP_HASH160 a4aac7ac66da57e4acc2615c1b2ea07a0b03a4fc OP_EQUAL", "type": "scripthash"}, "value": 0.00598231, "n": 53}, {"scriptPubKey": {"reqSigs": 1, "hex": "a91469f3772f199ba91606302c94d3318ab7e9edf16487", "addresses": ["3BMEXyCd3EdBUBBLqHAnoCjm4cLz5F5eKc"], "asm": "OP_HASH160 69f3772f199ba91606302c94d3318ab7e9edf164 OP_EQUAL", "type": "scripthash"}, "value": 1.37446965, "n": 54}, {"scriptPubKey": {"reqSigs": 1, "hex": "76a914731075d321ffe8bdf73d74dab1c09748554a296f88ac", "addresses": ["1BVQRjrirpEax73Giv4n7DjWKGsFyWGQ9T"], "asm": "OP_DUP OP_HASH160 731075d321ffe8bdf73d74dab1c09748554a296f OP_EQUALVERIFY OP_CHECKSIG", "type": "pubkeyhash"}, "value": 0.0186, "n": 55}, {"scriptPubKey": {"reqSigs": 1, "hex": "a9144c6d7880474e5a0ca28f922126797c0b68635bb487", "addresses": ["38f8RHFQ8v6avZqCmaYTga5bTYiuhoM6fh"], "asm": "OP_HASH160 4c6d7880474e5a0ca28f922126797c0b68635bb4 OP_EQUAL", "type": "scripthash"}, "value": 3.59502018, "n": 56}, {"scriptPubKey": {"reqSigs": 1, "hex": "a914bdc812d7b46dc4271d76a76fce8893ff44a5048087", "addresses": ["3JzVKA5n1iMUM4wZy5dSr53bDMmVKGeXye"], "asm": "OP_HASH160 bdc812d7b46dc4271d76a76fce8893ff44a50480 OP_EQUAL", "type": "scripthash"}, "value": 0.02523849, "n": 57}, {"scriptPubKey": {"reqSigs": 1, "hex": "a91469f376696b5c09a6b9ad1029dd41d95ed197d22487", "addresses": ["3BMEXm3bHynj1QXiACZ5RBjsSRFxFaU5kC"], "asm": "OP_HASH160 69f376696b5c09a6b9ad1029dd41d95ed197d224 OP_EQUAL", "type": "scripthash"}, "value": 1.49954738, "n": 58}, {"scriptPubKey": {"reqSigs": 1, "hex": "a914b5f5ba8d207543df7a91e8897315e75a65a1eb4e87", "addresses": ["3JH8bo6XCq2DvK2BEtHBgh7p2mwgDeJcdH"], "asm": "OP_HASH160 b5f5ba8d207543df7a91e8897315e75a65a1eb4e OP_EQUAL", "type": "scripthash"}, "value": 0.05, "n": 59}, {"scriptPubKey": {"reqSigs": 1, "hex": "76a914f7f58f7949c9aba437816a7d9ab831a63a0089c088ac", "addresses": ["1Pc65Dp8zSPsQsegLdnXBGCEezYtzSdwqH"], "asm": "OP_DUP OP_HASH160 f7f58f7949c9aba437816a7d9ab831a63a0089c0 OP_EQUALVERIFY OP_CHECKSIG", "type": "pubkeyhash"}, "value": 0.00387, "n": 60}, {"scriptPubKey": {"reqSigs": 1, "hex": "a9146952d46a0fe7bd08a131ed09f53c297e88152d9f87", "addresses": ["3BHv6oCkGDfAzFhrCAfHB4MJoiTs3Pezya"], "asm": "OP_HASH160 6952d46a0fe7bd08a131ed09f53c297e88152d9f OP_EQUAL", "type": "scripthash"}, "value": 0.0498545, "n": 61}, {"scriptPubKey": {"reqSigs": 1, "hex": "a914e9d9a671cff7f04ba9361e6e470784e9ab53d89787", "addresses": ["3P1W6qeBwEvG2RMsiDUgEc5MQUAFq25SjY"], "asm": "OP_HASH160 e9d9a671cff7f04ba9361e6e470784e9ab53d897 OP_EQUAL", "type": "scripthash"}, "value": 0.04686424, "n": 62}, {"scriptPubKey": {"reqSigs": 1, "hex": "a9147d0fc5f2550b740e1ef7dcce67dffcd23f14720187", "addresses": ["3D6HHTxvZDVF2Rm8HTDietuEzkdZ511Soe"], "asm": "OP_HASH160 7d0fc5f2550b740e1ef7dcce67dffcd23f147201 OP_EQUAL", "type": "scripthash"}, "value": 0.0454, "n": 63}, {"scriptPubKey": {"reqSigs": 1, "hex": "76a914d2881ce3d286371c50b5a41a026525b252b4225688ac", "addresses": ["1LCBxa8AAhkE9DfznKuN7AVWzvezfajwHB"], "asm": "OP_DUP OP_HASH160 d2881ce3d286371c50b5a41a026525b252b42256 OP_EQUALVERIFY OP_CHECKSIG", "type": "pubkeyhash"}, "value": 0.70744426, "n": 64}, {"scriptPubKey": {"reqSigs": 1, "hex": "a914f5f085c7f875ea32d6bcffd7344df060f77455af87", "addresses": ["3Q7RcLvDBJWiVH6phKNYK3HhAkL9ZP5eyt"], "asm": "OP_HASH160 f5f085c7f875ea32d6bcffd7344df060f77455af OP_EQUAL", "type": "scripthash"}, "value": 0.01301091, "n": 65}, {"scriptPubKey": {"reqSigs": 1, "hex": "76a914c13bd02dc7c40a91dc10367e286483496b826d4788ac", "addresses": ["1Jcj4vCLjCzQao2N56Xb2DSEocvbs9qmTv"], "asm": "OP_DUP OP_HASH160 c13bd02dc7c40a91dc10367e286483496b826d47 OP_EQUALVERIFY OP_CHECKSIG", "type": "pubkeyhash"}, "value": 2.0, "n": 66}, {"scriptPubKey": {"reqSigs": 1, "hex": "a914994ef90c4a5d7f6b8d628b5d941ec290eec535bf87", "addresses": ["3Ffdv2JGMP33q7eX1qUctioXQoHyeF4hUw"], "asm": "OP_HASH160 994ef90c4a5d7f6b8d628b5d941ec290eec535bf OP_EQUAL", "type": "scripthash"}, "value": 0.02612593, "n": 67}, {"scriptPubKey": {"reqSigs": 1, "hex": "76a914e29c051d5abb2a728d83c589a6146fa5122d95b088ac", "addresses": ["1MfCcp69BP7AQq631YNZFKt1uXHXu7ShWS"], "asm": "OP_DUP OP_HASH160 e29c051d5abb2a728d83c589a6146fa5122d95b0 OP_EQUALVERIFY OP_CHECKSIG", "type": "pubkeyhash"}, "value": 0.32, "n": 68}, {"scriptPubKey": {"reqSigs": 1, "hex": "76a914a5674913aca51e8749977ffe8f521c52ff48afb088ac", "addresses": ["1G5aE3yixLxwZSaqrrbyqCXsPkHMbtzTxV"], "asm": "OP_DUP OP_HASH160 a5674913aca51e8749977ffe8f521c52ff48afb0 OP_EQUALVERIFY OP_CHECKSIG", "type": "pubkeyhash"}, "value": 0.0071865, "n": 69}, {"scriptPubKey": {"reqSigs": 1, "hex": "76a914b3b6b46776dbcdf7b181b2068daad51a45caffa988ac", "addresses": ["1HPEptDT6ggcADUBe8ipNm8U44E3Mh1TFH"], "asm": "OP_DUP OP_HASH160 b3b6b46776dbcdf7b181b2068daad51a45caffa9 OP_EQUALVERIFY OP_CHECKSIG", "type": "pubkeyhash"}, "value": 0.03581605, "n": 70}, {"scriptPubKey": {"reqSigs": 1, "hex": "76a9145501ecd536f6c524a0f97f4ef777a3876ffeb88488ac", "addresses": ["18kUk4pXU4NF7Zvf7MPxRzKR636Zz1FamZ"], "asm": "OP_DUP OP_HASH160 5501ecd536f6c524a0f97f4ef777a3876ffeb884 OP_EQUALVERIFY OP_CHECKSIG", "type": "pubkeyhash"}, "value": 0.0154, "n": 71}, {"scriptPubKey": {"reqSigs": 1, "hex": "76a9143c0da69bfd2e8f35c1acd7578775f75a7a92e6c588ac", "addresses": ["16UXtz9SRzpTBkGxvTbqeZtyiPrQTP4YEE"], "asm": "OP_DUP OP_HASH160 3c0da69bfd2e8f35c1acd7578775f75a7a92e6c5 OP_EQUALVERIFY OP_CHECKSIG", "type": "pubkeyhash"}, "value": 0.04945, "n": 72}, {"scriptPubKey": {"reqSigs": 1, "hex": "a91469f3772e488d3aff7d05e850df0dbd067b52c67e87", "addresses": ["3BMEXy9i7ZeBsWd3GnxtDcouEUM2VFoh6d"], "asm": "OP_HASH160 69f3772e488d3aff7d05e850df0dbd067b52c67e OP_EQUAL", "type": "scripthash"}, "value": 0.00928701, "n": 73}, {"scriptPubKey": {"reqSigs": 1, "hex": "76a9142c4a47867ca63b0e8fd18184a8113030c8a5467c88ac", "addresses": ["153BiTt1zGummVas9FjkpdhmNWdmdsaH1d"], "asm": "OP_DUP OP_HASH160 2c4a47867ca63b0e8fd18184a8113030c8a5467c OP_EQUALVERIFY OP_CHECKSIG", "type": "pubkeyhash"}, "value": 0.01857936, "n": 74}, {"scriptPubKey": {"reqSigs": 1, "hex": "76a91435467cca30db9bae0c7497dec2f5143892e6eb5788ac", "addresses": ["15rhFirUz5pq8XDbbJBGC8qL8FfeLQfvVQ"], "asm": "OP_DUP OP_HASH160 35467cca30db9bae0c7497dec2f5143892e6eb57 OP_EQUALVERIFY OP_CHECKSIG", "type": "pubkeyhash"}, "value": 0.02937203, "n": 75}, {"scriptPubKey": {"reqSigs": 1, "hex": "a91469f373edab954e2523221ed762582eea5ea5c6cc87", "addresses": ["3BMEX5xBktdp4Qa3bVqMLaHHrzi5DoacSf"], "asm": "OP_HASH160 69f373edab954e2523221ed762582eea5ea5c6cc OP_EQUAL", "type": "scripthash"}, "value": 0.01745031, "n": 76}], "hex": "020000000259370f7b6022253eab59f13b68e5cc7d7b803e8c64a759dfd9813a85154049f0010000006a47304402206726753b901cb0bd136e0d475556a095a40cf4a4d3913ef8b47bdf9ed6a60add0220151361e34db62be0da6e8c015d8863c87b7070f8554e2b5b95c80e1f943dc373012102679a681d9b5bf5c672e0413997762664a17009038674b806bf27dd6b368d9b67feffffff64346e52371f67d714c0667f1c5df6e6ad3ccaf4e6b3605fc79a1ce43e87e157000000006a4730440220441b6486d576f37a2d139b0664fcdfc3a002b6b470cc73488635d9d13ec4657d02202c4d29e36db3c97baaa250f6be3077ce674c254cf6274e90972580f477a51eec012102679a681d9b5bf5c672e0413997762664a17009038674b806bf27dd6b368d9b67feffffff4d12fae70b0000000017a91469f37744534c5895b14dd4bf995d708aa7d5a3bc87f55a6703000000001976a914eaafb914778edb7b47a8dc2fb1808fba53f8ad5a88ac50a06e000000000017a914754d14e09dfb31543cc73c3156ca674e05ba190d87133b3f4c0000000017a9149bdf91ac4831016d19d1832b7cfb248e1659208687bbe5ec000000000017a9149b182e06d6cba6d93c636a3d0685d297d12588748771e522000000000017a9145e251a2cc66ca965b81d382c56185864f81f570587002d31010000000017a914d4972e9486a73287e78300d26ee6fe0f6fbf7b7587fde695020000000017a9148f2b75a1b62ecf4ceb36742220195219bf5f9ae0875fac0300000000001976a914b0b90dffe7c15410e4673b57e6a0b7990393725688acb3002a00000000001976a914d27c2a262f06a3fdb97e5181dbcbd88ec9e5df6d88acb9036b000000000017a9141103f6fe9077ffe0cee5ce6a00931cc5709c23e187b0feea0b0000000017a9148346f8967d1e4c29ec30bbcaae5a040ea06f15c087c052e0160000000017a914878712e0d1916a26577c5646aac54908a32518018743a12900000000001976a914d376c0d61b520041c2eece79a42ba661387fe3e288ac4b6e03000000000017a91419a7e1d214e7ac434797ae325b83a3ba31757394875c3409000000000017a914fa473fa83783c867c5f1987fb90f18a68de216e787306042000000000017a91483345a0110ff0c973b6df09bde96e4d7d8d5324287aa1ba109000000001976a914f0967afe251b1670754f4a5c5518a68e6c7644f688ac20d613000000000017a9144effa383483747aead3ffef885f986fd70d0ca7e87c7ec62000000000017a914e8f62d3a5781e866a4e1bc7a510b20bd3df63fee87404b4c000000000017a914a75e00bdcd7c3b3f24a2d09c79ca90a6a09e9e7d8760e31600000000001976a9141f74f03b7ca4293fa661ccca7d0ca81f440b0e8888ac9bec98000000000017a914dbd6f349d8334aefe3a68f5836ea5a34c0b235f88730868f000000000017a91469f373a9b564b018e146209036c511e62a73d28487bf534e010000000017a914fd35b32002c582a0ccbf2a67173a31a814e3995a878108c3000000000017a914f8bad9283e2928b27fbc3380e2a99137ffc16a2d879b6d3300000000001976a91409bb7dbbe9870594fcaa92657fce10f44819397988ac40a645100000000017a914e513646d91bbc130b1f30ecdbaa8939a413d4a2887701ee4000000000017a914364cfa3403229c5a3bf18cfa5bb75a33837aa5a287a2843600000000001976a914fa654f9b494d5a4243bfdfe7e1056dc37bb74bcf88ac1c0e2b000000000017a91497c53b2c5f07382c4d1a871e17c159fa767859a0876a3f4f000000000017a91469f374075601fb65b943318b3235df084d00655587973d1e00000000001976a914f64b5921d023cf863be357fe3ad09b78b8f5688288acf1ae13000000000017a914c08457c29cad3edcd3d53ab832e85dc0d0064e2587c02709000000000017a9144f8843cb7b88d44ec8a44fe962ce387cdfe05d1487d3e528000000000017a914c1ee2b19bb5e260cc8d483892a035efeea9b473c876818e5000000000017a914d367f4f4ae700d784b3fcc62c189e95a01179f79878db127030000000017a91469f373abd94107cab3fea8e092c581d3a219a21287e35505000000000017a914a4c36d8272f43a504a47491306dfd7a8c35677bc870a6103000000000017a9143c77fbeb49356740f238dc41c6f3902c8620b3ce87f5471a0a0000000017a91478c9e2736df9567308da87cea909011a42bd62aa87c8bf0d000000000017a91469f375ecd1a9aa685c3fc02990781b6dae66b091873011e100000000001976a914b113f8820f19f786c371b182f02a4201214b452088ac9bce1b020000000017a914722191590ce9f8b79c17913da604e0860dd3754687ed0bfd000000000017a9148e9f3bed585a971366f99990c0f7f4b0e9ef73ae87405dc6000000000017a91469f37701fb4b1e442f4f7a37b9a88666d43305618716ac97000000000017a91483426593aa654a7c2ab34fa4b4c1c72d3908d21387c48c4400000000001976a91473a79493993fd4d848216581729ebe8280e5773c88acea2c0e000000000017a914a0b9633284902fa742847d74d891b84ca355ad88875f770800000000001976a914622e9dc4e5a074d9777352bdbddca9e498d9d07e88aca0525701000000001976a91413bbbeddc3923c769c324b3163efc2f0fa2123ac88ac36e90e00000000001976a914382f705b6ed13ee04a4b93e330d677fdf69f5c1288ac61274b000000000017a9144f0d7b043f4d7369fbd0679cb343838d6a45a50b87d72009000000000017a914a4aac7ac66da57e4acc2615c1b2ea07a0b03a4fc87354631080000000017a91469f3772f199ba91606302c94d3318ab7e9edf16487a0611c00000000001976a914731075d321ffe8bdf73d74dab1c09748554a296f88acc2906d150000000017a9144c6d7880474e5a0ca28f922126797c0b68635bb487c98226000000000017a914bdc812d7b46dc4271d76a76fce8893ff44a5048087b220f0080000000017a91469f376696b5c09a6b9ad1029dd41d95ed197d22487404b4c000000000017a914b5f5ba8d207543df7a91e8897315e75a65a1eb4e87b8e70500000000001976a914f7f58f7949c9aba437816a7d9ab831a63a0089c088ac6a124c000000000017a9146952d46a0fe7bd08a131ed09f53c297e88152d9f87588247000000000017a914e9d9a671cff7f04ba9361e6e470784e9ab53d89787604645000000000017a9147d0fc5f2550b740e1ef7dcce67dffcd23f147201876a793704000000001976a914d2881ce3d286371c50b5a41a026525b252b4225688ac63da13000000000017a914f5f085c7f875ea32d6bcffd7344df060f77455af8700c2eb0b000000001976a914c13bd02dc7c40a91dc10367e286483496b826d4788ac71dd27000000000017a914994ef90c4a5d7f6b8d628b5d941ec290eec535bf870048e801000000001976a914e29c051d5abb2a728d83c589a6146fa5122d95b088ac3af70a00000000001976a914a5674913aca51e8749977ffe8f521c52ff48afb088aca5a63600000000001976a914b3b6b46776dbcdf7b181b2068daad51a45caffa988aca07f1700000000001976a9145501ecd536f6c524a0f97f4ef777a3876ffeb88488ac68744b00000000001976a9143c0da69bfd2e8f35c1acd7578775f75a7a92e6c588acbd2b0e000000000017a91469f3772e488d3aff7d05e850df0dbd067b52c67e8790591c00000000001976a9142c4a47867ca63b0e8fd18184a8113030c8a5467c88ac73d12c00000000001976a91435467cca30db9bae0c7497dec2f5143892e6eb5788ac87a01a000000000017a91469f373edab954e2523221ed762582eea5ea5c6cc8710490800", "vin": [{"sequence": 4294967294, "scriptSig": {"hex": "47304402206726753b901cb0bd136e0d475556a095a40cf4a4d3913ef8b47bdf9ed6a60add0220151361e34db62be0da6e8c015d8863c87b7070f8554e2b5b95c80e1f943dc373012102679a681d9b5bf5c672e0413997762664a17009038674b806bf27dd6b368d9b67", "asm": "304402206726753b901cb0bd136e0d475556a095a40cf4a4d3913ef8b47bdf9ed6a60add0220151361e34db62be0da6e8c015d8863c87b7070f8554e2b5b95c80e1f943dc373[ALL] 02679a681d9b5bf5c672e0413997762664a17009038674b806bf27dd6b368d9b67"}, "vout": 1, "txid": "f0494015853a81d9df59a7648c3e807b7dcce5683bf159ab3e2522607b0f3759"}, {"sequence": 4294967294, "scriptSig": {"hex": "4730440220441b6486d576f37a2d139b0664fcdfc3a002b6b470cc73488635d9d13ec4657d02202c4d29e36db3c97baaa250f6be3077ce674c254cf6274e90972580f477a51eec012102679a681d9b5bf5c672e0413997762664a17009038674b806bf27dd6b368d9b67", "asm": "30440220441b6486d576f37a2d139b0664fcdfc3a002b6b470cc73488635d9d13ec4657d02202c4d29e36db3c97baaa250f6be3077ce674c254cf6274e90972580f477a51eec[ALL] 02679a681d9b5bf5c672e0413997762664a17009038674b806bf27dd6b368d9b67"}, "vout": 0, "txid": "57e1873ee41c9ac75f60b3e6f4ca3cade6f65d1c7f66c014d7671f37526e3464"}], "txid": "6f366fcd039c7dc34b971193f81b9a2087f7ab43038c4b74e737661cb3307472", "blocktime": 1537871767, "version": 2, "confirmations": 11490, "time": 1537871767, "locktime": 542992, "vsize": 2818, "size": 2818}