{"hash": "6f39cfe6858a8d6baca7905e7f6c576cc383c75b2aa66162acc3870c01507f85", "blockhash": "0000000000000000000e13cef7c366c0283d82e591d1acd082e914b08063cdf1", "vout": [{"scriptPubKey": {"reqSigs": 1, "hex": "76a91405b808a28737f183e00fef37ef5fc1567149b10d88ac", "addresses": ["1XEqr7uZN4xvQsQiUiW36j2Liyq1dteoo"], "asm": "OP_DUP OP_HASH160 05b808a28737f183e00fef37ef5fc1567149b10d OP_EQUALVERIFY OP_CHECKSIG", "type": "pubkeyhash"}, "value": 0.04291568, "n": 0}, {"scriptPubKey": {"reqSigs": 1, "hex": "76a914651084848f8d960f802fcb7f4f7350c1ddbc9b6088ac", "addresses": ["1ADP33PSy1aBCLUhkFivawujxmzaT9SQ7g"], "asm": "OP_DUP OP_HASH160 651084848f8d960f802fcb7f4f7350c1ddbc9b60 OP_EQUALVERIFY OP_CHECKSIG", "type": "pubkeyhash"}, "value": 0.04877078, "n": 1}], "hex": "0100000002b5b5c7e4a763289d6d32982208d3755980edb905082c38dfa42e155ad43ee91c000000006b48304502210081a411dd8567ddbe0a791860c37dba5a9092eaedabc644859359496310cd439402204048d6794b2fc61d4e59af3dd0a94bdaf390cd2b23eb73fa604328b90b570a370121025c2e9446470cd70633adb663d3c589eeba642e2d37bc4bd74661ff93e49aef2dffffffffe04e39aa64d4f600566c3a0f5f323bb41a6e0aee8d4a841831964802428b121d000000006a473044022049f72b14d3ef79addd86430afbf3f9992b75bdaed03fc7447f054f23eb22ffe7022038d9649c0fb9de1d18b3c6878bd0648026643b35cdc3ff494e8081647303fc82012103da02253774fccd1ff1a9eaea8daa370839bd8572d75a36e8e2501e5bd2b3f126ffffffff02f07b4100000000001976a91405b808a28737f183e00fef37ef5fc1567149b10d88ac166b4a00000000001976a914651084848f8d960f802fcb7f4f7350c1ddbc9b6088ac00000000", "vin": [{"sequence": 4294967295, "scriptSig": {"hex": "48304502210081a411dd8567ddbe0a791860c37dba5a9092eaedabc644859359496310cd439402204048d6794b2fc61d4e59af3dd0a94bdaf390cd2b23eb73fa604328b90b570a370121025c2e9446470cd70633adb663d3c589eeba642e2d37bc4bd74661ff93e49aef2d", "asm": "304502210081a411dd8567ddbe0a791860c37dba5a9092eaedabc644859359496310cd439402204048d6794b2fc61d4e59af3dd0a94bdaf390cd2b23eb73fa604328b90b570a37[ALL] 025c2e9446470cd70633adb663d3c589eeba642e2d37bc4bd74661ff93e49aef2d"}, "vout": 0, "txid": "1ce93ed45a152ea4df382c0805b9ed805975d3082298326d9d2863a7e4c7b5b5"}, {"sequence": 4294967295, "scriptSig": {"hex": "473044022049f72b14d3ef79addd86430afbf3f9992b75bdaed03fc7447f054f23eb22ffe7022038d9649c0fb9de1d18b3c6878bd0648026643b35cdc3ff494e8081647303fc82012103da02253774fccd1ff1a9eaea8daa370839bd8572d75a36e8e2501e5bd2b3f126", "asm": "3044022049f72b14d3ef79addd86430afbf3f9992b75bdaed03fc7447f054f23eb22ffe7022038d9649c0fb9de1d18b3c6878bd0648026643b35cdc3ff494e8081647303fc82[ALL] 03da02253774fccd1ff1a9eaea8daa370839bd8572d75a36e8e2501e5bd2b3f126"}, "vout": 0, "txid": "1d128b420248963118844a8dee0a6e1ab43b325f0f3a6c5600f6d464aa394ee0"}], "txid": "6f39cfe6858a8d6baca7905e7f6c576cc383c75b2aa66162acc3870c01507f85", "blocktime": 1537871767, "version": 1, "confirmations": 11493, "time": 1537871767, "locktime": 0, "vsize": 373, "size": 373}