{"hash": "6f3bcff8fb77f7430742b6a4a30fdd358f76d752356b78f86d4dd86bba4ac0aa", "blockhash": "0000000000000000000baef3f32e3676a92c3b2e5da21b426e4f302fc371ce76", "vout": [{"scriptPubKey": {"reqSigs": 1, "hex": "76a9143fa80cf495a0f07217c2001e7501fddc8b8d26ab88ac", "addresses": ["16oatSt171xc7Qz3CtB77jut6JSrzPMvqw"], "asm": "OP_DUP OP_HASH160 3fa80cf495a0f07217c2001e7501fddc8b8d26ab OP_EQUALVERIFY OP_CHECKSIG", "type": "pubkeyhash"}, "value": 0.0033, "n": 0}, {"scriptPubKey": {"reqSigs": 1, "hex": "a914a8b63a43689cec22d07feb541ec0a3bd2e59f02e87", "addresses": ["3H55kAbZEbPahnyLeuPzv6sCvVBY9DiNhX"], "asm": "OP_HASH160 a8b63a43689cec22d07feb541ec0a3bd2e59f02e OP_EQUAL", "type": "scripthash"}, "value": 0.00444152, "n": 1}], "hex": "010000000168722a8df3d9d9ca038c1fabefaadf108a791d3ceb54b597c1a50b9e142f239a00000000fdfe0000483045022100c7f4cd9778bcfb3524df833acd9b866714a2aed017d0364b5093ebb421e21c4c022030337471423f5eeb3735f65c8a74190c0229da1fadec4f61aa69e4238a43168f01483045022100b39ea62b364b8395154fafb6f7878676e77d44cd3cbf48cafb96a8b2c75d50a3022014fca614c985359153599fec0abbb199528b67369489a4d0ef114f8237d96b40014c695221027799d1316f85674d43e601ac4a74613cf9648e97a8b38dc2e46302dda13ae8522102abc20c8050f3b47de24ed2a56df10cd0074326c892d3ab6efec20df36abea2152102d698625652c2a5aae371be51dd2fad6635bc2430f89f9d50378267f4e0dfe28153aefeffffff0210090500000000001976a9143fa80cf495a0f07217c2001e7501fddc8b8d26ab88acf8c606000000000017a914a8b63a43689cec22d07feb541ec0a3bd2e59f02e8717490800", "vin": [{"sequence": 4294967294, "scriptSig": {"hex": "00483045022100c7f4cd9778bcfb3524df833acd9b866714a2aed017d0364b5093ebb421e21c4c022030337471423f5eeb3735f65c8a74190c0229da1fadec4f61aa69e4238a43168f01483045022100b39ea62b364b8395154fafb6f7878676e77d44cd3cbf48cafb96a8b2c75d50a3022014fca614c985359153599fec0abbb199528b67369489a4d0ef114f8237d96b40014c695221027799d1316f85674d43e601ac4a74613cf9648e97a8b38dc2e46302dda13ae8522102abc20c8050f3b47de24ed2a56df10cd0074326c892d3ab6efec20df36abea2152102d698625652c2a5aae371be51dd2fad6635bc2430f89f9d50378267f4e0dfe28153ae", "asm": "0 3045022100c7f4cd9778bcfb3524df833acd9b866714a2aed017d0364b5093ebb421e21c4c022030337471423f5eeb3735f65c8a74190c0229da1fadec4f61aa69e4238a43168f[ALL] 3045022100b39ea62b364b8395154fafb6f7878676e77d44cd3cbf48cafb96a8b2c75d50a3022014fca614c985359153599fec0abbb199528b67369489a4d0ef114f8237d96b40[ALL] 5221027799d1316f85674d43e601ac4a74613cf9648e97a8b38dc2e46302dda13ae8522102abc20c8050f3b47de24ed2a56df10cd0074326c892d3ab6efec20df36abea2152102d698625652c2a5aae371be51dd2fad6635bc2430f89f9d50378267f4e0dfe28153ae"}, "vout": 0, "txid": "9a232f149e0ba5c197b554eb3c1d798a10dfaaefab1f8c03cad9d9f38d2a7268"}], "txid": "6f3bcff8fb77f7430742b6a4a30fdd358f76d752356b78f86d4dd86bba4ac0aa", "blocktime": 1537876114, "version": 1, "confirmations": 11460, "time": 1537876114, "locktime": 542999, "vsize": 373, "size": 373}