{"hash": "6f3c699085ad163012768b8cbf65044b8db02e4e2efefee78e3ae731372c5524", "blockhash": "0000000000000000001e0dab787dd257d1dbfcb92a98c2207d5e1078be1f4165", "vout": [{"scriptPubKey": {"reqSigs": 1, "hex": "76a914695237a3ff768bba33a41f76507967498c677dd888ac", "addresses": ["1AbtShokfMNErK67zEt1wf4c92N6gtgSKB"], "asm": "OP_DUP OP_HASH160 695237a3ff768bba33a41f76507967498c677dd8 OP_EQUALVERIFY OP_CHECKSIG", "type": "pubkeyhash"}, "value": 0.0013438, "n": 0}, {"scriptPubKey": {"type": "nulldata", "hex": "6a4c50000077b700016c4a6e389b27c0f7b2c81bf3e5bf9ae76da98a211aaf6c953dd567cf27e746aadbe921a799d6b34dd41139cf4efb5baa11e40612621fe311414ebc9a9526289ac0f6612cd74e33776ee4", "asm": "OP_RETURN 000077b700016c4a6e389b27c0f7b2c81bf3e5bf9ae76da98a211aaf6c953dd567cf27e746aadbe921a799d6b34dd41139cf4efb5baa11e40612621fe311414ebc9a9526289ac0f6612cd74e33776ee4"}, "value": 0.0, "n": 1}], "hex": "010000000119417810c4d87a347823b2182419819f30d994445543d8148bfc60e7a0e18682010000006b483045022100a20000d59ca767b981fc74f9a2a5ad1627287fb1a9a5d68908a1b463ad7b00e90220347cf2dfcd8be24b538703ad7fe9ba08b81c25ef8cf332bb4d98f567a539218d012102cea8714e4c088380fd30419027b3d3943aefda8696f2b7ff4192af8ccaaca453ffffffff02ec0c0200000000001976a914695237a3ff768bba33a41f76507967498c677dd888ac0000000000000000536a4c50000077b700016c4a6e389b27c0f7b2c81bf3e5bf9ae76da98a211aaf6c953dd567cf27e746aadbe921a799d6b34dd41139cf4efb5baa11e40612621fe311414ebc9a9526289ac0f6612cd74e33776ee400000000", "vin": [{"sequence": 4294967295, "scriptSig": {"hex": "483045022100a20000d59ca767b981fc74f9a2a5ad1627287fb1a9a5d68908a1b463ad7b00e90220347cf2dfcd8be24b538703ad7fe9ba08b81c25ef8cf332bb4d98f567a539218d012102cea8714e4c088380fd30419027b3d3943aefda8696f2b7ff4192af8ccaaca453", "asm": "3045022100a20000d59ca767b981fc74f9a2a5ad1627287fb1a9a5d68908a1b463ad7b00e90220347cf2dfcd8be24b538703ad7fe9ba08b81c25ef8cf332bb4d98f567a539218d[ALL] 02cea8714e4c088380fd30419027b3d3943aefda8696f2b7ff4192af8ccaaca453"}, "vout": 1, "txid": "8286e1a0e760fc8b14d843554494d9309f81192418b22378347ad8c410784119"}], "txid": "6f3c699085ad163012768b8cbf65044b8db02e4e2efefee78e3ae731372c5524", "blocktime": 1537872475, "version": 1, "confirmations": 11486, "time": 1537872475, "locktime": 0, "vsize": 284, "size": 284}