{"hash": "6f404819e882f494e004730918d19582aa51730317bb6e8da9b6ac41d2a68c32", "blockhash": "0000000000000000001f76057863aec43deb6fa401d9628bb513d65a8098bfab", "vout": [{"scriptPubKey": {"reqSigs": 1, "hex": "76a914ca32cf3798ccc6b2ce659e1da8dd95f09e6de1ea88ac", "addresses": ["1KS8N3zpkS7U3DGcxgg63tvc6GjqsSVc1c"], "asm": "OP_DUP OP_HASH160 ca32cf3798ccc6b2ce659e1da8dd95f09e6de1ea OP_EQUALVERIFY OP_CHECKSIG", "type": "pubkeyhash"}, "value": 0.01354164, "n": 0}, {"scriptPubKey": {"reqSigs": 1, "hex": "a9148ec5e45d3d42f4e0a5ce888df879bbc6513bd64887", "addresses": ["3EhvwZgDbyYcEADtm84JzV23xSm4B6i9Nt"], "asm": "OP_HASH160 8ec5e45d3d42f4e0a5ce888df879bbc6513bd648 OP_EQUAL", "type": "scripthash"}, "value": 0.01059688, "n": 1}], "hex": "020000000158c6f9415b2e497d21d5fdc3d38fca428c0c6caa26902adca26820b1d4181d87010000006b483045022100806a3c903a8fb663ecc1997dc4bba12fca83b854295b458192d557ce7ab39cfe022077809f743d6699ebc05639389c599cd94eb6fb6df3e21999c7e49c982dba9333012103db685e145bcf7af2c6081888debbbd07dfcb02621626a0e04535b40304236623feffffff02b4a91400000000001976a914ca32cf3798ccc6b2ce659e1da8dd95f09e6de1ea88ac682b10000000000017a9148ec5e45d3d42f4e0a5ce888df879bbc6513bd6488713490800", "vin": [{"sequence": 4294967294, "scriptSig": {"hex": "483045022100806a3c903a8fb663ecc1997dc4bba12fca83b854295b458192d557ce7ab39cfe022077809f743d6699ebc05639389c599cd94eb6fb6df3e21999c7e49c982dba9333012103db685e145bcf7af2c6081888debbbd07dfcb02621626a0e04535b40304236623", "asm": "3045022100806a3c903a8fb663ecc1997dc4bba12fca83b854295b458192d557ce7ab39cfe022077809f743d6699ebc05639389c599cd94eb6fb6df3e21999c7e49c982dba9333[ALL] 03db685e145bcf7af2c6081888debbbd07dfcb02621626a0e04535b40304236623"}, "vout": 1, "txid": "871d18d4b12068a2dc2a9026aa6c0c8c42ca8fd3c3fdd5217d492e5b41f9c658"}], "txid": "6f404819e882f494e004730918d19582aa51730317bb6e8da9b6ac41d2a68c32", "blocktime": 1537873891, "version": 2, "confirmations": 11478, "time": 1537873891, "locktime": 542995, "vsize": 224, "size": 224}