{"hash": "6f4322df237f46ea91fe502f353918d88efee41cb4ef22bc9380aa3735b0cecf", "blockhash": "00000000000000000018f53835495a110e01622372bf6ae95dc86f2b0ab887b0", "vout": [{"scriptPubKey": {"reqSigs": 1, "hex": "76a9143ced1ffe3173c0023ba37886dc316899a25e36b288ac", "addresses": ["16Z9cF2F43AT7mHpTYCVtjjb5zKNWY3D77"], "asm": "OP_DUP OP_HASH160 3ced1ffe3173c0023ba37886dc316899a25e36b2 OP_EQUALVERIFY OP_CHECKSIG", "type": "pubkeyhash"}, "value": 0.09173032, "n": 0}, {"scriptPubKey": {"reqSigs": 1, "hex": "76a9142b09d51cc81fb070f78b3d9a3087bcb2c07f8f6988ac", "addresses": ["14vZqRQLThnrcM7zvHCZe9RWya5wMvNbRX"], "asm": "OP_DUP OP_HASH160 2b09d51cc81fb070f78b3d9a3087bcb2c07f8f69 OP_EQUALVERIFY OP_CHECKSIG", "type": "pubkeyhash"}, "value": 0.7341438, "n": 1}], "hex": "0100000001a0cb1b38318a7385af1905dce111ed790261037d577f8e3d0208c9c94fc4f81d010000006a473044022045637e09bd1c35f04249d024c7312bc054358c81456d60a19e627e2aedbfe98a022064a73c4c085e536b401cb6f1e4fe520a486aa1c7a30f567ec9270d9af66832e9012103061a932df5c760997968a6aa67e97afeed7df500de4ea138b6799de9d031adf4ffffffff0228f88b00000000001976a9143ced1ffe3173c0023ba37886dc316899a25e36b288acec366004000000001976a9142b09d51cc81fb070f78b3d9a3087bcb2c07f8f6988ac00000000", "vin": [{"sequence": 4294967295, "scriptSig": {"hex": "473044022045637e09bd1c35f04249d024c7312bc054358c81456d60a19e627e2aedbfe98a022064a73c4c085e536b401cb6f1e4fe520a486aa1c7a30f567ec9270d9af66832e9012103061a932df5c760997968a6aa67e97afeed7df500de4ea138b6799de9d031adf4", "asm": "3044022045637e09bd1c35f04249d024c7312bc054358c81456d60a19e627e2aedbfe98a022064a73c4c085e536b401cb6f1e4fe520a486aa1c7a30f567ec9270d9af66832e9[ALL] 03061a932df5c760997968a6aa67e97afeed7df500de4ea138b6799de9d031adf4"}, "vout": 1, "txid": "1df8c44fc9c908023d8e7f577d03610279ed11e1dc0519af85738a31381bcba0"}], "txid": "6f4322df237f46ea91fe502f353918d88efee41cb4ef22bc9380aa3735b0cecf", "blocktime": 1537870928, "version": 1, "confirmations": 11512, "time": 1537870928, "locktime": 0, "vsize": 225, "size": 225}