{"hash": "6f50cc8ef9e92e733d2dd69c81315d94890bb6e6bc1a72bbb5b6cbaac5a6d6a4", "blockhash": "0000000000000000000e13cef7c366c0283d82e591d1acd082e914b08063cdf1", "vout": [{"scriptPubKey": {"reqSigs": 1, "hex": "a914ef4d30464a2766e148d8619c30ff7c5092cff8d587", "addresses": ["3PWKtYhFsq5zvM8BHBcB2VfwEN5i4Md8kX"], "asm": "OP_HASH160 ef4d30464a2766e148d8619c30ff7c5092cff8d5 OP_EQUAL", "type": "scripthash"}, "value": 0.02166992, "n": 0}], "hex": "0100000001e5a83e4f64141cdc8e4b9cb8925c96a1ad872b23dc294abed137d1268cd91514010000006b483045022100b9914f983d748831294048d55b841727a1fdff2ac2a33f216c8d4c1785acac2c022071914fed4732309121754e5b2e92c22748a29bdda40d0d02aca1f5b62092f4690121028600292511b8ec54e965606d49321b8e2b0146d9e8faa70dbfee3fddcd74c3c8ffffffff01d01021000000000017a914ef4d30464a2766e148d8619c30ff7c5092cff8d58700000000", "vin": [{"sequence": 4294967295, "scriptSig": {"hex": "483045022100b9914f983d748831294048d55b841727a1fdff2ac2a33f216c8d4c1785acac2c022071914fed4732309121754e5b2e92c22748a29bdda40d0d02aca1f5b62092f4690121028600292511b8ec54e965606d49321b8e2b0146d9e8faa70dbfee3fddcd74c3c8", "asm": "3045022100b9914f983d748831294048d55b841727a1fdff2ac2a33f216c8d4c1785acac2c022071914fed4732309121754e5b2e92c22748a29bdda40d0d02aca1f5b62092f469[ALL] 028600292511b8ec54e965606d49321b8e2b0146d9e8faa70dbfee3fddcd74c3c8"}, "vout": 1, "txid": "1415d98c26d137d1be4a29dc232b87ada1965c92b89c4b8edc1c14644f3ea8e5"}], "txid": "6f50cc8ef9e92e733d2dd69c81315d94890bb6e6bc1a72bbb5b6cbaac5a6d6a4", "blocktime": 1537871767, "version": 1, "confirmations": 11490, "time": 1537871767, "locktime": 0, "vsize": 190, "size": 190}