{"hash": "6f5e8a5712cd43c66e32dff29b76b6b0ab73780d7fd7637a027bfb961cd5a7dc", "blockhash": "0000000000000000001cda96e906b7601b7a6fb1a3b62bca570a9e5d8f4b3de1", "vout": [{"scriptPubKey": {"reqSigs": 1, "hex": "a914babab1d11da8e4b7fa2101e0efa895366caf8cea87", "addresses": ["3JiMFzW7TQHSc1ajX4v7RiVZKZHXP6AfeA"], "asm": "OP_HASH160 babab1d11da8e4b7fa2101e0efa895366caf8cea OP_EQUAL", "type": "scripthash"}, "value": 0.0005, "n": 0}, {"scriptPubKey": {"reqSigs": 1, "hex": "a9141db4ae46ac7b8ba90006a4c992ba0d9409ae9f7e87", "addresses": ["34Q5y2VX3AsVRu6CsyRWkmfc9EyMUVe4dF"], "asm": "OP_HASH160 1db4ae46ac7b8ba90006a4c992ba0d9409ae9f7e OP_EQUAL", "type": "scripthash"}, "value": 0.00708733, "n": 1}, {"scriptPubKey": {"reqSigs": 1, "hex": "a91479af30a91b34220f4eda21a8fba62366dfd4b76887", "addresses": ["3CnRZB8MA8n7yq55C5aPKQpwXZzTsiNp6w"], "asm": "OP_HASH160 79af30a91b34220f4eda21a8fba62366dfd4b768 OP_EQUAL", "type": "scripthash"}, "value": 0.00737398, "n": 2}, {"scriptPubKey": {"reqSigs": 1, "hex": "a914ae3906ffe357fea922cfeae77235f0dc010abe5c87", "addresses": ["3HaDpFY5spY2f88PSmfANfv3magS27b4xY"], "asm": "OP_HASH160 ae3906ffe357fea922cfeae77235f0dc010abe5c OP_EQUAL", "type": "scripthash"}, "value": 0.00225, "n": 3}, {"scriptPubKey": {"reqSigs": 1, "hex": "a9145767c267e4271c901465bec31f639cd073f0101087", "addresses": ["39fB1ZZynHspLkcKoaYdHRjGMSsUQfgDoU"], "asm": "OP_HASH160 5767c267e4271c901465bec31f639cd073f01010 OP_EQUAL", "type": "scripthash"}, "value": 0.01, "n": 4}, {"scriptPubKey": {"reqSigs": 1, "hex": "76a91432bc3d3ea0409ae781d0aae7b6e2c9c5094dea8f88ac", "addresses": ["15dGHgcaLurmij981eCUgrhdr6qRBS1dGs"], "asm": "OP_DUP OP_HASH160 32bc3d3ea0409ae781d0aae7b6e2c9c5094dea8f OP_EQUALVERIFY OP_CHECKSIG", "type": "pubkeyhash"}, "value": 0.00289, "n": 5}, {"scriptPubKey": {"reqSigs": 1, "hex": "a91435a60583b429462b6073f8d0aebaf3728b015c7c87", "addresses": ["36agd69rbAoyqAJN3b9JXTXbd6bqnGteis"], "asm": "OP_HASH160 35a60583b429462b6073f8d0aebaf3728b015c7c OP_EQUAL", "type": "scripthash"}, "value": 0.0022, "n": 6}, {"scriptPubKey": {"reqSigs": 1, "hex": "a91439d7b298702f33c911701bd7f92430dd9fde80c487", "addresses": ["36xrqQtkJxVSyAkW1d8FD4bZRzJN8Z1wV5"], "asm": "OP_HASH160 39d7b298702f33c911701bd7f92430dd9fde80c4 OP_EQUAL", "type": "scripthash"}, "value": 0.00011332, "n": 7}, {"scriptPubKey": {"reqSigs": 1, "hex": "a9146276c56fde6c4a2cc141b2115a116898b5f1995487", "addresses": ["3AfeRiLGaqXYwMmHy4ybSv7SVX98L2hqWU"], "asm": "OP_HASH160 6276c56fde6c4a2cc141b2115a116898b5f19954 OP_EQUAL", "type": "scripthash"}, "value": 0.0001, "n": 8}, {"scriptPubKey": {"reqSigs": 1, "hex": "76a914899fb80cae32f7b8519072f5b1cbd6722e6522f688ac", "addresses": ["1DYgukMdhskFKNK1e4mcrwhhRzJbo56m1r"], "asm": "OP_DUP OP_HASH160 899fb80cae32f7b8519072f5b1cbd6722e6522f6 OP_EQUALVERIFY OP_CHECKSIG", "type": "pubkeyhash"}, "value": 0.001567, "n": 9}, {"scriptPubKey": {"reqSigs": 1, "hex": "a914fb45db3ffdf971e3fe17200e69476681c15960a087", "addresses": ["3QbdDQPcvKxLmU14gFsZTQgVHPy23WjToz"], "asm": "OP_HASH160 fb45db3ffdf971e3fe17200e69476681c15960a0 OP_EQUAL", "type": "scripthash"}, "value": 0.0005, "n": 10}, {"scriptPubKey": {"reqSigs": 1, "hex": "a914925a3fd5c507340cfa4e953eee656edfa4e2bb7287", "addresses": ["3F2rhBkUi7Cn62zC8aLqCh4iJVvRg1MDQX"], "asm": "OP_HASH160 925a3fd5c507340cfa4e953eee656edfa4e2bb72 OP_EQUAL", "type": "scripthash"}, "value": 0.001, "n": 11}], "hex": "01000000028a0c3be24d3fa199ef472927b631c1e91a80b7b0cd8b76879277ad8234ffdc1e01000000fdfe0000483045022100d24354dbf8acd70eaf75bc4483da6b10285ed02c769356dcb31f4fea53c142860220343d8bf0b1667d6a5b3613ca08ab5717d5a1f682464ffc09da7e217b4f4e5ecc01483045022100ccd9e982402926384abd329c2f8e8cc0115ace00100fbf23f8def2a349f396d602202953b729aea0b296c7949a5aae35539ee3c4189ee9e7dc61e1ed2eed1c4bc096014c6952210315d4f9039ae1418ac2264aa50f878be4130007fadc6f453ea661a46c5c069e022102de9d48cc2287d9aea266d91b2a5e960524539a5b4aea4650fb89614888390aed2103fa311cf1d21f1407e430a8520e27aec2685dc0f0bdd2de9774c8b261a6e29a0853aeffffffffd3946bd9b8e0415a1c517d41a7baf4810ea48139884bb0bcd63fdd0498a16fd200000000fdfe0000483045022100e2e331e46165617b9eba1e1d68feaeca6aecab7939a953af5690fb882a61f3a6022007dee796305d23a7a6e7893a5b349beaf3f7cc60e181305b8a4098fa84344f4f0148304502210080222f0c5cd41bb00277196ab1f71e15d6fcb37bac5a87748a38e401b918f8ae02203aba8c11c979b81db03afaf1e43e586d8a4aa19c7128dbeda80816c7a7ac518c014c6952210250821e37a7a25a47ed710d46d836b1234a4c366ded814c7276f2ddc71d72fad821023765e5ed95a6b466afcfcfcc7f7e6b8cd3a81c03312fe4d6a953498d5e70945921027ebb9250fdf486441dd4ed130310445903303e8a1de9bfb7bd62aec92bf8081653aeffffffff0c50c300000000000017a914babab1d11da8e4b7fa2101e0efa895366caf8cea877dd00a000000000017a9141db4ae46ac7b8ba90006a4c992ba0d9409ae9f7e8776400b000000000017a91479af30a91b34220f4eda21a8fba62366dfd4b76887e86e03000000000017a914ae3906ffe357fea922cfeae77235f0dc010abe5c8740420f000000000017a9145767c267e4271c901465bec31f639cd073f0101087e8680400000000001976a91432bc3d3ea0409ae781d0aae7b6e2c9c5094dea8f88ac605b03000000000017a91435a60583b429462b6073f8d0aebaf3728b015c7c87442c00000000000017a91439d7b298702f33c911701bd7f92430dd9fde80c487102700000000000017a9146276c56fde6c4a2cc141b2115a116898b5f19954871c640200000000001976a914899fb80cae32f7b8519072f5b1cbd6722e6522f688ac50c300000000000017a914fb45db3ffdf971e3fe17200e69476681c15960a087a08601000000000017a914925a3fd5c507340cfa4e953eee656edfa4e2bb728700000000", "vin": [{"sequence": 4294967295, "scriptSig": {"hex": "00483045022100d24354dbf8acd70eaf75bc4483da6b10285ed02c769356dcb31f4fea53c142860220343d8bf0b1667d6a5b3613ca08ab5717d5a1f682464ffc09da7e217b4f4e5ecc01483045022100ccd9e982402926384abd329c2f8e8cc0115ace00100fbf23f8def2a349f396d602202953b729aea0b296c7949a5aae35539ee3c4189ee9e7dc61e1ed2eed1c4bc096014c6952210315d4f9039ae1418ac2264aa50f878be4130007fadc6f453ea661a46c5c069e022102de9d48cc2287d9aea266d91b2a5e960524539a5b4aea4650fb89614888390aed2103fa311cf1d21f1407e430a8520e27aec2685dc0f0bdd2de9774c8b261a6e29a0853ae", "asm": "0 3045022100d24354dbf8acd70eaf75bc4483da6b10285ed02c769356dcb31f4fea53c142860220343d8bf0b1667d6a5b3613ca08ab5717d5a1f682464ffc09da7e217b4f4e5ecc[ALL] 3045022100ccd9e982402926384abd329c2f8e8cc0115ace00100fbf23f8def2a349f396d602202953b729aea0b296c7949a5aae35539ee3c4189ee9e7dc61e1ed2eed1c4bc096[ALL] 52210315d4f9039ae1418ac2264aa50f878be4130007fadc6f453ea661a46c5c069e022102de9d48cc2287d9aea266d91b2a5e960524539a5b4aea4650fb89614888390aed2103fa311cf1d21f1407e430a8520e27aec2685dc0f0bdd2de9774c8b261a6e29a0853ae"}, "vout": 1, "txid": "1edcff3482ad779287768bcdb0b7801ae9c131b6272947ef99a13f4de23b0c8a"}, {"sequence": 4294967295, "scriptSig": {"hex": "00483045022100e2e331e46165617b9eba1e1d68feaeca6aecab7939a953af5690fb882a61f3a6022007dee796305d23a7a6e7893a5b349beaf3f7cc60e181305b8a4098fa84344f4f0148304502210080222f0c5cd41bb00277196ab1f71e15d6fcb37bac5a87748a38e401b918f8ae02203aba8c11c979b81db03afaf1e43e586d8a4aa19c7128dbeda80816c7a7ac518c014c6952210250821e37a7a25a47ed710d46d836b1234a4c366ded814c7276f2ddc71d72fad821023765e5ed95a6b466afcfcfcc7f7e6b8cd3a81c03312fe4d6a953498d5e70945921027ebb9250fdf486441dd4ed130310445903303e8a1de9bfb7bd62aec92bf8081653ae", "asm": "0 3045022100e2e331e46165617b9eba1e1d68feaeca6aecab7939a953af5690fb882a61f3a6022007dee796305d23a7a6e7893a5b349beaf3f7cc60e181305b8a4098fa84344f4f[ALL] 304502210080222f0c5cd41bb00277196ab1f71e15d6fcb37bac5a87748a38e401b918f8ae02203aba8c11c979b81db03afaf1e43e586d8a4aa19c7128dbeda80816c7a7ac518c[ALL] 52210250821e37a7a25a47ed710d46d836b1234a4c366ded814c7276f2ddc71d72fad821023765e5ed95a6b466afcfcfcc7f7e6b8cd3a81c03312fe4d6a953498d5e70945921027ebb9250fdf486441dd4ed130310445903303e8a1de9bfb7bd62aec92bf8081653ae"}, "vout": 0, "txid": "d26fa19804dd3fd6bcb04b883981a40e81f4baa7417d511c5a41e0b8d96b94d3"}], "txid": "6f5e8a5712cd43c66e32dff29b76b6b0ab73780d7fd7637a027bfb961cd5a7dc", "blocktime": 1537873282, "version": 1, "confirmations": 11485, "time": 1537873282, "locktime": 0, "vsize": 992, "size": 992}