{"hash": "6f623250103eb72351b832cdd1e3b203b94b5dac6f2ee67b767a180745f7aba3", "blockhash": "0000000000000000001e0dab787dd257d1dbfcb92a98c2207d5e1078be1f4165", "vout": [{"scriptPubKey": {"reqSigs": 1, "hex": "76a914270d0a81cdbf8910f4a85f4d0758259c6d50032388ac", "addresses": ["14ZUybAE6FYQ28n9Xjm32boDX6Lst9DDMF"], "asm": "OP_DUP OP_HASH160 270d0a81cdbf8910f4a85f4d0758259c6d500323 OP_EQUALVERIFY OP_CHECKSIG", "type": "pubkeyhash"}, "value": 8.644e-05, "n": 0}, {"scriptPubKey": {"reqSigs": 1, "hex": "a914632d96ec8d81b3075861466af19d32770e9ffd8d87", "addresses": ["3AjRS9nLJbCJzJQQXJCPM6FkDsSBsFsRgQ"], "asm": "OP_HASH160 632d96ec8d81b3075861466af19d32770e9ffd8d OP_EQUAL", "type": "scripthash"}, "value": 0.0309, "n": 1}], "hex": "0100000001445c01691c575a38cfa8e2d5a8e11b034b6a33c74d31d69a4d683487417c6b38090000006a47304402200897ef0e94044a7ee64150a4a421c23d3b3f84b0a872af315f0d47f3238d902f0220260ca4e4415bea78c8e9b7cce00eef1e41cd6f1322aee5034a2dd637437b9ba301210211d311e10ef32e4b75fcc575c670ab265b0dd7f1d97a0c8d43585da199438757ffffffff02c4210000000000001976a914270d0a81cdbf8910f4a85f4d0758259c6d50032388ac50262f000000000017a914632d96ec8d81b3075861466af19d32770e9ffd8d8700000000", "vin": [{"sequence": 4294967295, "scriptSig": {"hex": "47304402200897ef0e94044a7ee64150a4a421c23d3b3f84b0a872af315f0d47f3238d902f0220260ca4e4415bea78c8e9b7cce00eef1e41cd6f1322aee5034a2dd637437b9ba301210211d311e10ef32e4b75fcc575c670ab265b0dd7f1d97a0c8d43585da199438757", "asm": "304402200897ef0e94044a7ee64150a4a421c23d3b3f84b0a872af315f0d47f3238d902f0220260ca4e4415bea78c8e9b7cce00eef1e41cd6f1322aee5034a2dd637437b9ba3[ALL] 0211d311e10ef32e4b75fcc575c670ab265b0dd7f1d97a0c8d43585da199438757"}, "vout": 9, "txid": "386b7c418734684d9ad6314dc7336a4b031be1a8d5e2a8cf385a571c69015c44"}], "txid": "6f623250103eb72351b832cdd1e3b203b94b5dac6f2ee67b767a180745f7aba3", "blocktime": 1537872475, "version": 1, "confirmations": 11486, "time": 1537872475, "locktime": 0, "vsize": 223, "size": 223}