{"hash": "7bf828ceea23aa442a9c39b383858360dc0222368cd3c67707b499aa59773118", "blockhash": "0000000000000000001f76057863aec43deb6fa401d9628bb513d65a8098bfab", "vout": [{"scriptPubKey": {"reqSigs": 1, "hex": "00149b8a7db0ec17d1bcac2321abbcafc90bdc226eb6", "addresses": ["bc1qnw98mv8vzlgmetpryx4met7fp0wzym4kgw038m"], "asm": "0 9b8a7db0ec17d1bcac2321abbcafc90bdc226eb6", "type": "witness_v0_keyhash"}, "value": 0.00072515, "n": 0}, {"scriptPubKey": {"reqSigs": 1, "hex": "76a9145da0eb02bc1631db84ddd4fe71ff9a38b517303d88ac", "addresses": ["19Y4ccwND81k76JC95AeARNueviwk2pafs"], "asm": "OP_DUP OP_HASH160 5da0eb02bc1631db84ddd4fe71ff9a38b517303d OP_EQUALVERIFY OP_CHECKSIG", "type": "pubkeyhash"}, "value": 0.0312647, "n": 1}], "hex": "01000000000101a658575bc585947118b8f61f99f11777cd41a5425fb1a1e9f72d39156bb6f7ae0100000000ffffffff02431b0100000000001600149b8a7db0ec17d1bcac2321abbcafc90bdc226eb6c6b42f00000000001976a9145da0eb02bc1631db84ddd4fe71ff9a38b517303d88ac02483045022100c17ffab523127272821de1c9631aa759bc99b89575603288cbda2d27469ccf5102206a816b32f05c001683847b16bbb5ee267de069ae824a544e7c4b431f2115eec8012103a4ccbfaada6f7ce71c3be6c524747d0266b34770139ceac9967a363d28b8880d00000000", "vin": [{"txinwitness": ["3045022100c17ffab523127272821de1c9631aa759bc99b89575603288cbda2d27469ccf5102206a816b32f05c001683847b16bbb5ee267de069ae824a544e7c4b431f2115eec801", "03a4ccbfaada6f7ce71c3be6c524747d0266b34770139ceac9967a363d28b8880d"], "sequence": 4294967295, "scriptSig": {"hex": "", "asm": ""}, "vout": 1, "txid": "aef7b66b15392df7e9a1b15f42a541cd7717f1991ff6b818719485c55b5758a6"}], "txid": "6f63c650abb90f4ccd9835ab99e152e71ee084e6890c8331fccf54b381c141a4", "blocktime": 1537873891, "version": 1, "confirmations": 11478, "time": 1537873891, "locktime": 0, "vsize": 144, "size": 226}