{"hash": "6f64ee0da844771878e91ead1d08559d7e40729412d9a0f954b834233ddf5656", "blockhash": "0000000000000000001f76057863aec43deb6fa401d9628bb513d65a8098bfab", "vout": [{"scriptPubKey": {"reqSigs": 1, "hex": "76a9143a1c310d273a073a0e12c581a8259af96a1964ed88ac", "addresses": ["16JFxuyXZrdzNjXyFEUvHCVoUSbopRshXN"], "asm": "OP_DUP OP_HASH160 3a1c310d273a073a0e12c581a8259af96a1964ed OP_EQUALVERIFY OP_CHECKSIG", "type": "pubkeyhash"}, "value": 0.00025, "n": 0}, {"scriptPubKey": {"reqSigs": 1, "hex": "76a914ea2572ec20c75db940697fa4137129c502a21f6e88ac", "addresses": ["1NM3ytJkBBByuezEEbPZmPvNg5SFpX72T4"], "asm": "OP_DUP OP_HASH160 ea2572ec20c75db940697fa4137129c502a21f6e OP_EQUALVERIFY OP_CHECKSIG", "type": "pubkeyhash"}, "value": 0.00027564, "n": 1}], "hex": "01000000011bf2672cf77d57f47a93d891bfbbd4d06145c60228489e24d3eb30ef94e6dc62190000006a473044022043a778275d1842339fabe327c13498abb38c033d6d4a1b57d8de65a785a74cdd02202cbd13714aeaf2a5454fa9e5fd3ac36daeddd454f142e563f19dcfe8f998807e012102995a0124b6207467b255566cd7751e5727f35f3d57cc6004a00700fbae895cccffffffff02a8610000000000001976a9143a1c310d273a073a0e12c581a8259af96a1964ed88acac6b0000000000001976a914ea2572ec20c75db940697fa4137129c502a21f6e88ac00000000", "vin": [{"sequence": 4294967295, "scriptSig": {"hex": "473044022043a778275d1842339fabe327c13498abb38c033d6d4a1b57d8de65a785a74cdd02202cbd13714aeaf2a5454fa9e5fd3ac36daeddd454f142e563f19dcfe8f998807e012102995a0124b6207467b255566cd7751e5727f35f3d57cc6004a00700fbae895ccc", "asm": "3044022043a778275d1842339fabe327c13498abb38c033d6d4a1b57d8de65a785a74cdd02202cbd13714aeaf2a5454fa9e5fd3ac36daeddd454f142e563f19dcfe8f998807e[ALL] 02995a0124b6207467b255566cd7751e5727f35f3d57cc6004a00700fbae895ccc"}, "vout": 25, "txid": "62dce694ef30ebd3249e482802c64561d0d4bbbf91d8937af4577df72c67f21b"}], "txid": "6f64ee0da844771878e91ead1d08559d7e40729412d9a0f954b834233ddf5656", "blocktime": 1537873891, "version": 1, "confirmations": 11478, "time": 1537873891, "locktime": 0, "vsize": 225, "size": 225}