{"hash": "6f6cde352e8a82a7552d9e0fb9686be267627252e726a29a782f09098afb7132", "blockhash": "00000000000000000017f5eb5941039fbcee6240d03bc1f2f8e35350df66a1d8", "vout": [{"scriptPubKey": {"reqSigs": 1, "hex": "76a9141652c09ce4a944d020c9360690b646a7a032262288ac", "addresses": ["1332zxXi1zamF7Jr4hPu1V6whwLnBaybRb"], "asm": "OP_DUP OP_HASH160 1652c09ce4a944d020c9360690b646a7a0322622 OP_EQUALVERIFY OP_CHECKSIG", "type": "pubkeyhash"}, "value": 0.00455586, "n": 0}, {"scriptPubKey": {"type": "nulldata", "hex": "6a146f6d6e69000000000000001f0000092b158ff680", "asm": "OP_RETURN 6f6d6e69000000000000001f0000092b158ff680"}, "value": 0.0, "n": 1}, {"scriptPubKey": {"reqSigs": 1, "hex": "76a914a25dec4d0011064ef106a983c39c7a540699f22088ac", "addresses": ["1FoWyxwPXuj4C6abqwhjDWdz6D4PZgYRjA"], "asm": "OP_DUP OP_HASH160 a25dec4d0011064ef106a983c39c7a540699f220 OP_EQUALVERIFY OP_CHECKSIG", "type": "pubkeyhash"}, "value": 5.46e-06, "n": 2}], "hex": "0100000006bed5db959ee79dff5ee8ddf243645616e4bb845b2d65b9f19600529397dce7de010000006a47304402207a22e89c89b9b7e200fdd518bd97b67719fc8e583cf188b61fde5fd83433563b022048823e4bb3be89308cb31dc5853e57bd0fa49e07174eb841b66a114fdf2c83ff012103d9024ab1cd2603714378ffe4f3898d9eb3298370d9ab6ed7201b5a7adfa3ac9dfeffffffc08667b31d7cc9c4005a167cffd40f7883ca858ffbcca58efe770875c6421829020000006a47304402200ec1809645c958b5b6847182d848baef634d32e5a0c440e4240755058c66043f02204aa2636f0fbe389d479293298c4f796b1c7d3963356eeb8a71277935872568bc012103d9024ab1cd2603714378ffe4f3898d9eb3298370d9ab6ed7201b5a7adfa3ac9dfeffffffcac059d71e01078adf1ad9c45ad53406426113f91826a10c9c952101c9207a2e010000006a47304402206b50483ea31222efd45b234cee6edcd5a15358409aa56dbbf15d6519dce9055702200777ea7540fb27719b41af1e6e806c737b0c05f67463190267e4e738308bfe0c012103d9024ab1cd2603714378ffe4f3898d9eb3298370d9ab6ed7201b5a7adfa3ac9dfefffffffd56950f0b717912db48a700104dddb6bd82ac78cdb5a7de857fbeca246d65ad010000006a47304402203963d7be5810210411238e05c1d8b7315419cb6b1c0fae093485ebf41fb4c4160220633a368a739eeca649885cea8decbfa85a3a4d471b2ebeb94b59f10e8a30679d012103d9024ab1cd2603714378ffe4f3898d9eb3298370d9ab6ed7201b5a7adfa3ac9dfefffffff2f1c64d61679b8c7c2f6a7695bdc7205befbb9fadc175476a2d5102ce0ad634020000006b483045022100bd2e26ae69f7041ddce306afb3fcf66ac69615847e54cfac649307557404fee70220500568dd58a6b4d9ef28e0297c6b8c98359616d57283b2349f03ea5507ef66a9012103d9024ab1cd2603714378ffe4f3898d9eb3298370d9ab6ed7201b5a7adfa3ac9dfeffffffff1350c03df41998dcd1a44b4e49ed045107542a9172f5dd0f92d9bbd812664e010000006a4730440220349fbefae7f9b53d05f08c5da7a85d3de4434e3afcd6a0270739227a3b88921f02203155ca551c4974ba985b1f8e881cff605e4190d75c76836429e9d9bccee644b4012103d9024ab1cd2603714378ffe4f3898d9eb3298370d9ab6ed7201b5a7adfa3ac9dfeffffff03a2f30600000000001976a9141652c09ce4a944d020c9360690b646a7a032262288ac0000000000000000166a146f6d6e69000000000000001f0000092b158ff68022020000000000001976a914a25dec4d0011064ef106a983c39c7a540699f22088ac15490800", "vin": [{"sequence": 4294967294, "scriptSig": {"hex": "47304402207a22e89c89b9b7e200fdd518bd97b67719fc8e583cf188b61fde5fd83433563b022048823e4bb3be89308cb31dc5853e57bd0fa49e07174eb841b66a114fdf2c83ff012103d9024ab1cd2603714378ffe4f3898d9eb3298370d9ab6ed7201b5a7adfa3ac9d", "asm": "304402207a22e89c89b9b7e200fdd518bd97b67719fc8e583cf188b61fde5fd83433563b022048823e4bb3be89308cb31dc5853e57bd0fa49e07174eb841b66a114fdf2c83ff[ALL] 03d9024ab1cd2603714378ffe4f3898d9eb3298370d9ab6ed7201b5a7adfa3ac9d"}, "vout": 1, "txid": "dee7dc9793520096f1b9652d5b84bbe416566443f2dde85eff9de79e95dbd5be"}, {"sequence": 4294967294, "scriptSig": {"hex": "47304402200ec1809645c958b5b6847182d848baef634d32e5a0c440e4240755058c66043f02204aa2636f0fbe389d479293298c4f796b1c7d3963356eeb8a71277935872568bc012103d9024ab1cd2603714378ffe4f3898d9eb3298370d9ab6ed7201b5a7adfa3ac9d", "asm": "304402200ec1809645c958b5b6847182d848baef634d32e5a0c440e4240755058c66043f02204aa2636f0fbe389d479293298c4f796b1c7d3963356eeb8a71277935872568bc[ALL] 03d9024ab1cd2603714378ffe4f3898d9eb3298370d9ab6ed7201b5a7adfa3ac9d"}, "vout": 2, "txid": "291842c6750877fe8ea5ccfb8f85ca83780fd4ff7c165a00c4c97c1db36786c0"}, {"sequence": 4294967294, "scriptSig": {"hex": "47304402206b50483ea31222efd45b234cee6edcd5a15358409aa56dbbf15d6519dce9055702200777ea7540fb27719b41af1e6e806c737b0c05f67463190267e4e738308bfe0c012103d9024ab1cd2603714378ffe4f3898d9eb3298370d9ab6ed7201b5a7adfa3ac9d", "asm": "304402206b50483ea31222efd45b234cee6edcd5a15358409aa56dbbf15d6519dce9055702200777ea7540fb27719b41af1e6e806c737b0c05f67463190267e4e738308bfe0c[ALL] 03d9024ab1cd2603714378ffe4f3898d9eb3298370d9ab6ed7201b5a7adfa3ac9d"}, "vout": 1, "txid": "2e7a20c90121959c0ca12618f91361420634d55ac4d91adf8a07011ed759c0ca"}, {"sequence": 4294967294, "scriptSig": {"hex": "47304402203963d7be5810210411238e05c1d8b7315419cb6b1c0fae093485ebf41fb4c4160220633a368a739eeca649885cea8decbfa85a3a4d471b2ebeb94b59f10e8a30679d012103d9024ab1cd2603714378ffe4f3898d9eb3298370d9ab6ed7201b5a7adfa3ac9d", "asm": "304402203963d7be5810210411238e05c1d8b7315419cb6b1c0fae093485ebf41fb4c4160220633a368a739eeca649885cea8decbfa85a3a4d471b2ebeb94b59f10e8a30679d[ALL] 03d9024ab1cd2603714378ffe4f3898d9eb3298370d9ab6ed7201b5a7adfa3ac9d"}, "vout": 1, "txid": "ad656d24cabe7f85dea7b5cd78ac82bdb6dd4d1000a748db1279710b0f9556fd"}, {"sequence": 4294967294, "scriptSig": {"hex": "483045022100bd2e26ae69f7041ddce306afb3fcf66ac69615847e54cfac649307557404fee70220500568dd58a6b4d9ef28e0297c6b8c98359616d57283b2349f03ea5507ef66a9012103d9024ab1cd2603714378ffe4f3898d9eb3298370d9ab6ed7201b5a7adfa3ac9d", "asm": "3045022100bd2e26ae69f7041ddce306afb3fcf66ac69615847e54cfac649307557404fee70220500568dd58a6b4d9ef28e0297c6b8c98359616d57283b2349f03ea5507ef66a9[ALL] 03d9024ab1cd2603714378ffe4f3898d9eb3298370d9ab6ed7201b5a7adfa3ac9d"}, "vout": 2, "txid": "34d60ace02512d6a4775c1ad9fbbef5b20c7bd95766a2f7c8c9b67614dc6f1f2"}, {"sequence": 4294967294, "scriptSig": {"hex": "4730440220349fbefae7f9b53d05f08c5da7a85d3de4434e3afcd6a0270739227a3b88921f02203155ca551c4974ba985b1f8e881cff605e4190d75c76836429e9d9bccee644b4012103d9024ab1cd2603714378ffe4f3898d9eb3298370d9ab6ed7201b5a7adfa3ac9d", "asm": "30440220349fbefae7f9b53d05f08c5da7a85d3de4434e3afcd6a0270739227a3b88921f02203155ca551c4974ba985b1f8e881cff605e4190d75c76836429e9d9bccee644b4[ALL] 03d9024ab1cd2603714378ffe4f3898d9eb3298370d9ab6ed7201b5a7adfa3ac9d"}, "vout": 1, "txid": "4e6612d8bbd9920fddf572912a54075104ed494e4ba4d1dc9819f43dc05013ff"}], "txid": "6f6cde352e8a82a7552d9e0fb9686be267627252e726a29a782f09098afb7132", "blocktime": 1537874412, "version": 1, "confirmations": 11468, "time": 1537874412, "locktime": 542997, "vsize": 992, "size": 992}