{"hash": "ff9dec939ddf1aa5a6d56e18b1faa582580e377025e63c4288aa263c4537d3af", "blockhash": "000000000000000000205f8b0775d31398ef75b89a5e8ec8d2c57b4dc0ac4c20", "vout": [{"scriptPubKey": {"reqSigs": 1, "hex": "76a914dd5160482efd3a6bb53c73764ef26903517196ac88ac", "addresses": ["1MBDpWJQRcE7KgRTbi34R3jcVQzckQeQf4"], "asm": "OP_DUP OP_HASH160 dd5160482efd3a6bb53c73764ef26903517196ac OP_EQUALVERIFY OP_CHECKSIG", "type": "pubkeyhash"}, "value": 0.01, "n": 0}, {"scriptPubKey": {"reqSigs": 1, "hex": "0020701a8d401c84fb13e6baf169d59684e17abd9fa216c8cc5b9fc63d622ff8c58d", "addresses": ["bc1qwqdg6squsna38e46795at95yu9atm8azzmyvckulcc7kytlcckxswvvzej"], "asm": "0 701a8d401c84fb13e6baf169d59684e17abd9fa216c8cc5b9fc63d622ff8c58d", "type": "witness_v0_scripthash"}, "value": 0.00255814, "n": 1}], "hex": "01000000000101b791a647cf63217d90b23bff31d2b19e1b7d2b03ceff7754c50aa6fc1e18ce420100000000ffffffff0240420f00000000001976a914dd5160482efd3a6bb53c73764ef26903517196ac88ac46e7030000000000220020701a8d401c84fb13e6baf169d59684e17abd9fa216c8cc5b9fc63d622ff8c58d0400473044022028b4a7b0ce5143548836fbe92f8407d8a406bc10ad24acb494abd7fc6c809b7202202ddc102bd95822d7d87c159734e34c00137051a685d661ea84e0e85dd852d88901483045022100dbb89b47c1bac69181fd7f6e816a7a088e3c9fc3696a185472751ec9e9584b2f02201f7080039dc24371417cccc738ef6d49c152b7dde58b6226e38d8fdb2bfe7fbc016952210375e00eb72e29da82b89367947f29ef34afb75e8654f6ea368e0acdfd92976b7c2103a1b26313f430c4b15bb1fdce663207659d8cac749a0e53d70eff01874496feff2103c96d495bfdd5ba4145e3e046fee45e84a8a48ad05bd8dbb395c011a32cf9f88053ae00000000", "vin": [{"txinwitness": ["", "3044022028b4a7b0ce5143548836fbe92f8407d8a406bc10ad24acb494abd7fc6c809b7202202ddc102bd95822d7d87c159734e34c00137051a685d661ea84e0e85dd852d88901", "3045022100dbb89b47c1bac69181fd7f6e816a7a088e3c9fc3696a185472751ec9e9584b2f02201f7080039dc24371417cccc738ef6d49c152b7dde58b6226e38d8fdb2bfe7fbc01", "52210375e00eb72e29da82b89367947f29ef34afb75e8654f6ea368e0acdfd92976b7c2103a1b26313f430c4b15bb1fdce663207659d8cac749a0e53d70eff01874496feff2103c96d495bfdd5ba4145e3e046fee45e84a8a48ad05bd8dbb395c011a32cf9f88053ae"], "sequence": 4294967295, "scriptSig": {"hex": "", "asm": ""}, "vout": 1, "txid": "42ce181efca60ac55477ffce032b7d1b9eb1d231ff3bb2907d2163cf47a691b7"}], "txid": "6f72fa507a707219ec6afa41019a804a72b60217cbfc0ba3b7215e2944a956b1", "blocktime": 1537871175, "version": 1, "confirmations": 11510, "time": 1537871175, "locktime": 0, "vsize": 192, "size": 383}