{"hash": "583e96c1a564c97e09e5b05ff3819b84711e30c7f8b3619eff5588b1207826d6", "blockhash": "0000000000000000000dcc0f55137456b1a82d3642486a52398922ac4d620174", "vout": [{"scriptPubKey": {"reqSigs": 1, "hex": "a9143971ab96149d969eeaf08d6d2dc567467c821d9687", "addresses": ["36vkcRfkbSABDK9HrUDu6a5PUD9yZUgD9j"], "asm": "OP_HASH160 3971ab96149d969eeaf08d6d2dc567467c821d96 OP_EQUAL", "type": "scripthash"}, "value": 1.71957131, "n": 0}, {"scriptPubKey": {"reqSigs": 1, "hex": "76a91474b5e90cac587b866d5ec32af89351a9bda25def88ac", "addresses": ["1Be7Jc6ETWmG7JNCAc1dwA2zGRPdg7P6vW"], "asm": "OP_DUP OP_HASH160 74b5e90cac587b866d5ec32af89351a9bda25def OP_EQUALVERIFY OP_CHECKSIG", "type": "pubkeyhash"}, "value": 0.015, "n": 1}], "hex": "01000000000101da45004459edd9998cae6de660ef94cae4e7ba49f1b7769618558ff24933aacf01000000232200205f02a60ec354d694806d45ff89b69859c242f399821ed88ac970a5f23bc3f24affffffff028bdb3f0a0000000017a9143971ab96149d969eeaf08d6d2dc567467c821d968760e31600000000001976a91474b5e90cac587b866d5ec32af89351a9bda25def88ac040047304402202a3222c11576a0d4e8fe0e159cba669d2969bf776a197033407c01834c0ae0860220338d17828d70581b26d6ed4c410503d24c0dadce6a703c485650ab8e134357f501483045022100c11e1f52d04e85819b729806d23c09e4d6b9682fad9a35dbfadb8a163cd8865c022018c3dcfdc42a6c92728684b5d5bfe762b8943ca85da78e2b309b181d551886b801695221022c37c3e21b7df65067907f4d34a05b946508eed584fb4fbbe52480b143a592892102dbb4bdd419be7e24f2d0104fc42cae8649393dbf6e6ea57d7a5cd6df11f94cad210375d74baf2b81475de9d785784d278ab8bff47caeabe42d0b0a244a4891dd62e853ae00000000", "vin": [{"txinwitness": ["", "304402202a3222c11576a0d4e8fe0e159cba669d2969bf776a197033407c01834c0ae0860220338d17828d70581b26d6ed4c410503d24c0dadce6a703c485650ab8e134357f501", "3045022100c11e1f52d04e85819b729806d23c09e4d6b9682fad9a35dbfadb8a163cd8865c022018c3dcfdc42a6c92728684b5d5bfe762b8943ca85da78e2b309b181d551886b801", "5221022c37c3e21b7df65067907f4d34a05b946508eed584fb4fbbe52480b143a592892102dbb4bdd419be7e24f2d0104fc42cae8649393dbf6e6ea57d7a5cd6df11f94cad210375d74baf2b81475de9d785784d278ab8bff47caeabe42d0b0a244a4891dd62e853ae"], "sequence": 4294967295, "scriptSig": {"hex": "2200205f02a60ec354d694806d45ff89b69859c242f399821ed88ac970a5f23bc3f24a", "asm": "00205f02a60ec354d694806d45ff89b69859c242f399821ed88ac970a5f23bc3f24a"}, "vout": 1, "txid": "cfaa3349f28f55189676b7f149bae7e4ca94ef60e66dae8c99d9ed59440045da"}], "txid": "6f78bc0d5e0548c5bab5b5e45371724108f4facff2952446d603d9a9f4942f75", "blocktime": 1537870268, "version": 1, "confirmations": 11518, "time": 1537870268, "locktime": 0, "vsize": 216, "size": 407}