{"hash": "6f7d26e317c30eb641c2b136dc79b189b6e9a2c5db1645ea3b4cb236637a5080", "blockhash": "0000000000000000000baef3f32e3676a92c3b2e5da21b426e4f302fc371ce76", "vout": [{"scriptPubKey": {"reqSigs": 1, "hex": "a91449595d507b02b08b477c0bd12004aa917ddf329787", "addresses": ["38NrJhguKtHZgiyQptCcanj53W9bosxkqY"], "asm": "OP_HASH160 49595d507b02b08b477c0bd12004aa917ddf3297 OP_EQUAL", "type": "scripthash"}, "value": 0.04376236, "n": 0}], "hex": "01000000017ce2968413a2055bde61a53ccf53df6495af121a157100b9b05887b14dbeefcb000000006b483045022100cd23101f3bf40ba120eba5173340424ad24f115dfc86ee1bbc71d61cc7dfd0bd0220614160a4ce3a668797f8fa5500f4356eeb974d0021b428c124873c6a5bd416ab0121031b7bb028b721a1c9387f15185992fdc2f07079bea3088d87a5c4df5c72bd7828ffffffff01acc642000000000017a91449595d507b02b08b477c0bd12004aa917ddf32978700000000", "vin": [{"sequence": 4294967295, "scriptSig": {"hex": "483045022100cd23101f3bf40ba120eba5173340424ad24f115dfc86ee1bbc71d61cc7dfd0bd0220614160a4ce3a668797f8fa5500f4356eeb974d0021b428c124873c6a5bd416ab0121031b7bb028b721a1c9387f15185992fdc2f07079bea3088d87a5c4df5c72bd7828", "asm": "3045022100cd23101f3bf40ba120eba5173340424ad24f115dfc86ee1bbc71d61cc7dfd0bd0220614160a4ce3a668797f8fa5500f4356eeb974d0021b428c124873c6a5bd416ab[ALL] 031b7bb028b721a1c9387f15185992fdc2f07079bea3088d87a5c4df5c72bd7828"}, "vout": 0, "txid": "cbefbe4db18758b0b90071151a12af9564df53cf3ca561de5b05a2138496e27c"}], "txid": "6f7d26e317c30eb641c2b136dc79b189b6e9a2c5db1645ea3b4cb236637a5080", "blocktime": 1537876114, "version": 1, "confirmations": 11460, "time": 1537876114, "locktime": 0, "vsize": 190, "size": 190}