{"hash": "6f7f7004ced09a913d17691c5b8649efc6afe0a9c66f2e416fd52f4b75ec139a", "blockhash": "00000000000000000017f5eb5941039fbcee6240d03bc1f2f8e35350df66a1d8", "vout": [{"scriptPubKey": {"reqSigs": 1, "hex": "76a91409af304fa25b71cc5471771bfa49b739b95f1ee888ac", "addresses": ["1tCx41EwwkDNSATfoc444CzReCdJvEbfs"], "asm": "OP_DUP OP_HASH160 09af304fa25b71cc5471771bfa49b739b95f1ee8 OP_EQUALVERIFY OP_CHECKSIG", "type": "pubkeyhash"}, "value": 1.4, "n": 0}, {"scriptPubKey": {"reqSigs": 1, "hex": "76a9141040fd45022ed44a5cb550b9ad2d560f0925b26288ac", "addresses": ["12UwfcEGW5BJfbN4tEfjAb3hnyymaT6zxy"], "asm": "OP_DUP OP_HASH160 1040fd45022ed44a5cb550b9ad2d560f0925b262 OP_EQUALVERIFY OP_CHECKSIG", "type": "pubkeyhash"}, "value": 1.3344, "n": 1}], "hex": "0100000003a85f71f1f15e48ae3b47c6ce47e3a4ca9b290226b13dc0bf53508a1a93df4373010000006b483045022100daad48a03b8013991d36ebacddc2e2a4b45d60fa60aff5506ab76cd514700a060220450c6db24867a3b7726573fdae2a6243cd289f27acf6dc5dbd7e508077d20e8701210385115472ac45562a0f4d4f66f795cc38a99bd8c9907c3ad739fa6e8a2132dd2bffffffffa85f71f1f15e48ae3b47c6ce47e3a4ca9b290226b13dc0bf53508a1a93df4373000000006a47304402200323ea9d7fc1841f714c26e66e2ae84447d507ef3ee21bc7ffa16ec60da142d302206e12cb60ea43e79af1bad4152017152fdad14679ecb7233aeb3525fecf7695670121038cfc665969221bba2ba178da23d76e09b11f1987f7b3f95af6e46e5fade4967effffffff8274e406fb70ac3402e54be837e7fb3ba03dd32e1f3dcfe9d13e4fcb46229ad7000000006a473044022043659fe2fd16e1c6fa921dc9779e568c8fb9073809b0c3f9301c3e720181ddb1022037000ee7adee069d1097073fa2d268f01a38c4dc65aaa18adfeafb658a45606e012103ba739e6bc4d200649c393671a5923cad771788acb75ad854fce582364be7416affffffff02003b5808000000001976a91409af304fa25b71cc5471771bfa49b739b95f1ee888ac0022f407000000001976a9141040fd45022ed44a5cb550b9ad2d560f0925b26288ac00000000", "vin": [{"sequence": 4294967295, "scriptSig": {"hex": "483045022100daad48a03b8013991d36ebacddc2e2a4b45d60fa60aff5506ab76cd514700a060220450c6db24867a3b7726573fdae2a6243cd289f27acf6dc5dbd7e508077d20e8701210385115472ac45562a0f4d4f66f795cc38a99bd8c9907c3ad739fa6e8a2132dd2b", "asm": "3045022100daad48a03b8013991d36ebacddc2e2a4b45d60fa60aff5506ab76cd514700a060220450c6db24867a3b7726573fdae2a6243cd289f27acf6dc5dbd7e508077d20e87[ALL] 0385115472ac45562a0f4d4f66f795cc38a99bd8c9907c3ad739fa6e8a2132dd2b"}, "vout": 1, "txid": "7343df931a8a5053bfc03db12602299bcaa4e347cec6473bae485ef1f1715fa8"}, {"sequence": 4294967295, "scriptSig": {"hex": "47304402200323ea9d7fc1841f714c26e66e2ae84447d507ef3ee21bc7ffa16ec60da142d302206e12cb60ea43e79af1bad4152017152fdad14679ecb7233aeb3525fecf7695670121038cfc665969221bba2ba178da23d76e09b11f1987f7b3f95af6e46e5fade4967e", "asm": "304402200323ea9d7fc1841f714c26e66e2ae84447d507ef3ee21bc7ffa16ec60da142d302206e12cb60ea43e79af1bad4152017152fdad14679ecb7233aeb3525fecf769567[ALL] 038cfc665969221bba2ba178da23d76e09b11f1987f7b3f95af6e46e5fade4967e"}, "vout": 0, "txid": "7343df931a8a5053bfc03db12602299bcaa4e347cec6473bae485ef1f1715fa8"}, {"sequence": 4294967295, "scriptSig": {"hex": "473044022043659fe2fd16e1c6fa921dc9779e568c8fb9073809b0c3f9301c3e720181ddb1022037000ee7adee069d1097073fa2d268f01a38c4dc65aaa18adfeafb658a45606e012103ba739e6bc4d200649c393671a5923cad771788acb75ad854fce582364be7416a", "asm": "3044022043659fe2fd16e1c6fa921dc9779e568c8fb9073809b0c3f9301c3e720181ddb1022037000ee7adee069d1097073fa2d268f01a38c4dc65aaa18adfeafb658a45606e[ALL] 03ba739e6bc4d200649c393671a5923cad771788acb75ad854fce582364be7416a"}, "vout": 0, "txid": "d79a2246cb4f3ed1e9cf3d1f2ed33da03bfbe737e84be50234ac70fb06e47482"}], "txid": "6f7f7004ced09a913d17691c5b8649efc6afe0a9c66f2e416fd52f4b75ec139a", "blocktime": 1537874412, "version": 1, "confirmations": 11467, "time": 1537874412, "locktime": 0, "vsize": 520, "size": 520}