{"hash": "19cce965c736e55e662a925c54f773c8a66ad5a198e51622e0f378ece9a53a5b", "blockhash": "0000000000000000001f0ddff1eddb255c1121bcd4da4f1bc9a0da00cae72433", "vout": [{"scriptPubKey": {"reqSigs": 1, "hex": "a9145a3494f50ccac2b139ea10eccdcf62a724c9d60f87", "addresses": ["39uyjG4T9597424T4FYUVUk2RWVT7571fh"], "asm": "OP_HASH160 5a3494f50ccac2b139ea10eccdcf62a724c9d60f OP_EQUAL", "type": "scripthash"}, "value": 0.0001089, "n": 0}, {"scriptPubKey": {"reqSigs": 1, "hex": "a914c0a7d1d05c43b05cf161e0415720765bbcb6daa587", "addresses": ["3KFghgee4t6UBpPJFP5oxKXff7Mkzpd8FY"], "asm": "OP_HASH160 c0a7d1d05c43b05cf161e0415720765bbcb6daa5 OP_EQUAL", "type": "scripthash"}, "value": 0.00752492, "n": 1}], "hex": "01000000000101411f1c8b4db26abe0a8ea26184305fe933296eb7e2339cb28082548f1550a1840000000023220020435cdd2982c7fdc175dcd9dd08b52697e466b6ff50d77cf5ec1d69eabb499f17ffffffff028a2a00000000000017a9145a3494f50ccac2b139ea10eccdcf62a724c9d60f876c7b0b000000000017a914c0a7d1d05c43b05cf161e0415720765bbcb6daa5870400483045022100b3d5d056c83843cc43320c9b4aceadf72de671a271545c0c1d7279be531f982502205da6331675aa64ecbd97b17d8d4c2a5d5f5939934ee4391ae4da81684963a64a01483045022100e66961e7864ec877366e9f67fac9601de634d1e988f018b2486cb14ebcb25ed902205897b6b7379ced6acb71f7dc0d25ba1033ada0ea6f0659dc159274797b9e4fe901475221029271f31e4d0b877d72a3b8a6695acde7fde20518556a031e7f50e2674c6e3f0b2103871fc2ca08e6950b38867e8e6a0e94ee625223d3aa0df5c65f414c6d784467e252ae00000000", "vin": [{"txinwitness": ["", "3045022100b3d5d056c83843cc43320c9b4aceadf72de671a271545c0c1d7279be531f982502205da6331675aa64ecbd97b17d8d4c2a5d5f5939934ee4391ae4da81684963a64a01", "3045022100e66961e7864ec877366e9f67fac9601de634d1e988f018b2486cb14ebcb25ed902205897b6b7379ced6acb71f7dc0d25ba1033ada0ea6f0659dc159274797b9e4fe901", "5221029271f31e4d0b877d72a3b8a6695acde7fde20518556a031e7f50e2674c6e3f0b2103871fc2ca08e6950b38867e8e6a0e94ee625223d3aa0df5c65f414c6d784467e252ae"], "sequence": 4294967295, "scriptSig": {"hex": "220020435cdd2982c7fdc175dcd9dd08b52697e466b6ff50d77cf5ec1d69eabb499f17", "asm": "0020435cdd2982c7fdc175dcd9dd08b52697e466b6ff50d77cf5ec1d69eabb499f17"}, "vout": 0, "txid": "84a150158f548280b29c33e2b76e2933e95f308461a28e0abe6ab24d8b1c1f41"}], "txid": "6f881c4f569eeac6aa51779968ee7d3212f750e3c5870a36e0c1b08453b6161d", "blocktime": 1537872018, "version": 1, "confirmations": 11489, "time": 1537872018, "locktime": 0, "vsize": 206, "size": 372}