{"hash": "6f8b3a5ad09e4acebbee20a956586d88be2b306450e6bd22df5398f8ef1e57c6", "blockhash": "00000000000000000018f53835495a110e01622372bf6ae95dc86f2b0ab887b0", "vout": [{"scriptPubKey": {"reqSigs": 1, "hex": "76a914491084987d014e44297e92c7b46a643b9149397288ac", "addresses": ["17fL7h5dTcELgpuNajjBuaBBk8SS7cWTCH"], "asm": "OP_DUP OP_HASH160 491084987d014e44297e92c7b46a643b91493972 OP_EQUALVERIFY OP_CHECKSIG", "type": "pubkeyhash"}, "value": 0.001484, "n": 0}, {"scriptPubKey": {"reqSigs": 1, "hex": "76a914bdbe870b5f7c792338be66da0af552fb93a88f2988ac", "addresses": ["1JJGxLiXMytAUx7x8DJtbP5iQM47kdRJ2P"], "asm": "OP_DUP OP_HASH160 bdbe870b5f7c792338be66da0af552fb93a88f29 OP_EQUALVERIFY OP_CHECKSIG", "type": "pubkeyhash"}, "value": 1.0, "n": 1}], "hex": "010000000d289a694ca9b2b62a97b40799f84dfd72b9f2f18db336a97b775f0112ecae8c0a010000006a47304402205cab8d2863be8053792fdcd6ae3cd993781cbb70172b2daef506f500062d1c1402202f37e4d654d9fcb7b267024bde606230ae21a58871cb98dd72aaf13a8310f14101210254e19606e5c1e0307ed56c7e3a2b1d6592fa2d0f9f4cbbf5b96d0c50dd7269abfeffffff14f9120ad11cb7dda7c55382977d3325ebc324734c23f99c5c4e89cf0af7ea52010000006a47304402205f1727c8e61e2c9b144dbefab144506d8890ff44623cc72f7ba82249e508068b02205d33123aa42765f6fb114b4d9353a59fa5fcb14f022f1266e88f6f99483569a101210361180f535f1c38d8f935c4902bbb3b33a5ed39f658969f2cde29970624ef6e10feffffff4db6bcd847098e5176ad5ff4f52b88ed7325669bd202df4952e42e6adb59e684000000006a473044022040fbb124efb7cb08474c7e3c4b4a61af030968db7465c1f059731454004d855e0220537f63654709dae202e5ae4e8d86f38331c46d674fe3e18213ff5ed074ee9ad3012103615fa1a9d8190d32cd9800bb1a9a0536fab78b126ba0134f33db3dfc2e43bf4ffeffffffb3c5d7411f1cafc52350e1b5579d44d230a4b49b698b040efbc8b78ccb6fe18b000000006a47304402205150a201a585724eb534d6dd0c21ec9fe68069689b04ff2673802d952f01c3530220178a933b116aa5979390dd7b4db07bbdfdbf59b5f142defbe725ddd0e82cfb2701210202d0bedc836214f4e8c034f77dd4af1c0c2e21161f99308dd3776495129d613efeffffff76e67a975e0dc1af3a4ab235851a45ee1a72eb8fb27fc334528140816b241395000000006b483045022100dbc7ccc230b379845c6a758b4b014cc7b6587d3731eda0d2c24f5d438bc3a5cc02206d9137cbfadb3851ee38d32b42298654ec1682c46b90a8b8a8d681489a396db7012102338959f0e30457345626d75ba10ce3fb49f30801c82c22bf9bad9973a7359c73feffffff99623a1298b292a74e02c5f113fdb1c0e803f861c3aaa2096d7ffc1c4d00fca6010000006b483045022100cf5c744f6a6f377e815f6ad3a5ca845b161decc01d9659b7c6d6066e307d3183022079e4ab51247113f0e624721c24b70f0b9a4a36336be42c82aca028d35c4de4f1012102c01f52749547b09a2e963f4bd9812b7c904e54cd2380b191bd507fc4c449265efeffffff832b4650895c697314fdf920414f24dd66bef9917e4ddae3875676b8187e42aa010000006a47304402206ffd2ab07e2e3830fd4c1709294411229aa9bf0dfadc6c339b860594c1ca3a0402200d1fad00da6ff1bdd4ebd443d4e643548deadd2e4b1c2af08f9f98bd176651b6012102df947f8c7094aff087893d3b308f9ee598039d913e19a3d9e5edc15df970e236feffffff88e59b30b2e0b216161f8e9dd1e0421d45445fd8f31d1cf0e87ef95be0bd86ac000000006b48304502210093209b79ea87331ad712a50c93d9d52fa4ebc6aff9cf558bb0b290824794babe02205b015dd80d69ea3f734dc2067dd34dec3e383aafced616cc57e41d7cb99250f001210209ca471f80ff6d4eb25c31c220bc29759a1bee90a9ced042aa41005b4795df76feffffffa55beebe9725c7c1352d1728111960eb2dad88b00830b308449ded8268a0f3c7010000006a47304402200a477a8eb76b6413512b9775fb54ad4db8b5e36aa35a48294ed36075ae08a7a902206720d811969c49c9259bf717f13f86ec7fd637752de65ec2d2f2f76df33d72a901210244ff68cda3c0f416a426bfd4d9df26e565518cc4bf0adaf1fe199c19195a21c6feffffff1fa0218fa3118c28800f4e8a313ff338b282e3f106cc2a0c9735a5924e1b20d1030000006a4730440220747e5ec8d84fd217f8a11e6564ea175076ae2eda6ec8eb24106fa6357d6c40c3022030c944d2898e3b0e506da2369af029004118c483e4ecad7bcd65527458354baa012103d154bde47945054fc8c4278fb47c87a1109e0b22b3e6e5eceffd6587dc7a02a7feffffff97037f6806d18252f9b0bc5eb99802d07571a8562293b3140963ccd756e697ef000000006a473044022012d7a87eb434876114d7f98444e7be81ca680bb5480657c2c2ee2a0f5fcf640f0220084b889d7e326ebcb096090d71023aa9ea371f9097737451f86bb9496a1087a401210274b4d1aa087bcd516083fec0f091987cbf03316254e5b194a155fb54086b418dfefffffffda67bb0380e719e19e590350eb7f80fcbf287a48e0e9c54fccc2246042604f8000000006b483045022100f5017c344808dffdf9711fdc1a6ec50cbc32d9ca717fda4e28c80ba4cc64396902207ab0c86ddb269e1956a5a8c1a69fa31d97ba47bf6780a1347a9882b6b89905cf012103475bd3fa2fcef6d67a37b0d5022d4e4a448137d6f0ca95cb0f628f74b21da6d6feffffff2c1ba67ec274de129a26d4208181f17c9ae8f9a2b95581a08ad2607b3f35cff8010000006a473044022049d5e70966cbac8699de1f5ebf12691d3f29caad90e1c0cb214eed35e53aad4f022069a0efcd7b05e7de9d8cd2e39d39f612e5c063ebf0a4e3dd2dbdec96b6da9442012102369476a9d5fd7299d90b5e309239d9858cca8ee09a46003dd106974f7a039848feffffff02b0430200000000001976a914491084987d014e44297e92c7b46a643b9149397288ac00e1f505000000001976a914bdbe870b5f7c792338be66da0af552fb93a88f2988ac0d490800", "vin": [{"sequence": 4294967294, "scriptSig": {"hex": "47304402205cab8d2863be8053792fdcd6ae3cd993781cbb70172b2daef506f500062d1c1402202f37e4d654d9fcb7b267024bde606230ae21a58871cb98dd72aaf13a8310f14101210254e19606e5c1e0307ed56c7e3a2b1d6592fa2d0f9f4cbbf5b96d0c50dd7269ab", "asm": "304402205cab8d2863be8053792fdcd6ae3cd993781cbb70172b2daef506f500062d1c1402202f37e4d654d9fcb7b267024bde606230ae21a58871cb98dd72aaf13a8310f141[ALL] 0254e19606e5c1e0307ed56c7e3a2b1d6592fa2d0f9f4cbbf5b96d0c50dd7269ab"}, "vout": 1, "txid": "0a8caeec12015f777ba936b38df1f2b972fd4df89907b4972ab6b2a94c699a28"}, {"sequence": 4294967294, "scriptSig": {"hex": "47304402205f1727c8e61e2c9b144dbefab144506d8890ff44623cc72f7ba82249e508068b02205d33123aa42765f6fb114b4d9353a59fa5fcb14f022f1266e88f6f99483569a101210361180f535f1c38d8f935c4902bbb3b33a5ed39f658969f2cde29970624ef6e10", "asm": "304402205f1727c8e61e2c9b144dbefab144506d8890ff44623cc72f7ba82249e508068b02205d33123aa42765f6fb114b4d9353a59fa5fcb14f022f1266e88f6f99483569a1[ALL] 0361180f535f1c38d8f935c4902bbb3b33a5ed39f658969f2cde29970624ef6e10"}, "vout": 1, "txid": "52eaf70acf894e5c9cf9234c7324c3eb25337d978253c5a7ddb71cd10a12f914"}, {"sequence": 4294967294, "scriptSig": {"hex": "473044022040fbb124efb7cb08474c7e3c4b4a61af030968db7465c1f059731454004d855e0220537f63654709dae202e5ae4e8d86f38331c46d674fe3e18213ff5ed074ee9ad3012103615fa1a9d8190d32cd9800bb1a9a0536fab78b126ba0134f33db3dfc2e43bf4f", "asm": "3044022040fbb124efb7cb08474c7e3c4b4a61af030968db7465c1f059731454004d855e0220537f63654709dae202e5ae4e8d86f38331c46d674fe3e18213ff5ed074ee9ad3[ALL] 03615fa1a9d8190d32cd9800bb1a9a0536fab78b126ba0134f33db3dfc2e43bf4f"}, "vout": 0, "txid": "84e659db6a2ee45249df02d29b662573ed882bf5f45fad76518e0947d8bcb64d"}, {"sequence": 4294967294, "scriptSig": {"hex": "47304402205150a201a585724eb534d6dd0c21ec9fe68069689b04ff2673802d952f01c3530220178a933b116aa5979390dd7b4db07bbdfdbf59b5f142defbe725ddd0e82cfb2701210202d0bedc836214f4e8c034f77dd4af1c0c2e21161f99308dd3776495129d613e", "asm": "304402205150a201a585724eb534d6dd0c21ec9fe68069689b04ff2673802d952f01c3530220178a933b116aa5979390dd7b4db07bbdfdbf59b5f142defbe725ddd0e82cfb27[ALL] 0202d0bedc836214f4e8c034f77dd4af1c0c2e21161f99308dd3776495129d613e"}, "vout": 0, "txid": "8be16fcb8cb7c8fb0e048b699bb4a430d2449d57b5e15023c5af1c1f41d7c5b3"}, {"sequence": 4294967294, "scriptSig": {"hex": "483045022100dbc7ccc230b379845c6a758b4b014cc7b6587d3731eda0d2c24f5d438bc3a5cc02206d9137cbfadb3851ee38d32b42298654ec1682c46b90a8b8a8d681489a396db7012102338959f0e30457345626d75ba10ce3fb49f30801c82c22bf9bad9973a7359c73", "asm": "3045022100dbc7ccc230b379845c6a758b4b014cc7b6587d3731eda0d2c24f5d438bc3a5cc02206d9137cbfadb3851ee38d32b42298654ec1682c46b90a8b8a8d681489a396db7[ALL] 02338959f0e30457345626d75ba10ce3fb49f30801c82c22bf9bad9973a7359c73"}, "vout": 0, "txid": "9513246b8140815234c37fb28feb721aee451a8535b24a3aafc10d5e977ae676"}, {"sequence": 4294967294, "scriptSig": {"hex": "483045022100cf5c744f6a6f377e815f6ad3a5ca845b161decc01d9659b7c6d6066e307d3183022079e4ab51247113f0e624721c24b70f0b9a4a36336be42c82aca028d35c4de4f1012102c01f52749547b09a2e963f4bd9812b7c904e54cd2380b191bd507fc4c449265e", "asm": "3045022100cf5c744f6a6f377e815f6ad3a5ca845b161decc01d9659b7c6d6066e307d3183022079e4ab51247113f0e624721c24b70f0b9a4a36336be42c82aca028d35c4de4f1[ALL] 02c01f52749547b09a2e963f4bd9812b7c904e54cd2380b191bd507fc4c449265e"}, "vout": 1, "txid": "a6fc004d1cfc7f6d09a2aac361f803e8c0b1fd13f1c5024ea792b298123a6299"}, {"sequence": 4294967294, "scriptSig": {"hex": "47304402206ffd2ab07e2e3830fd4c1709294411229aa9bf0dfadc6c339b860594c1ca3a0402200d1fad00da6ff1bdd4ebd443d4e643548deadd2e4b1c2af08f9f98bd176651b6012102df947f8c7094aff087893d3b308f9ee598039d913e19a3d9e5edc15df970e236", "asm": "304402206ffd2ab07e2e3830fd4c1709294411229aa9bf0dfadc6c339b860594c1ca3a0402200d1fad00da6ff1bdd4ebd443d4e643548deadd2e4b1c2af08f9f98bd176651b6[ALL] 02df947f8c7094aff087893d3b308f9ee598039d913e19a3d9e5edc15df970e236"}, "vout": 1, "txid": "aa427e18b8765687e3da4d7e91f9be66dd244f4120f9fd1473695c8950462b83"}, {"sequence": 4294967294, "scriptSig": {"hex": "48304502210093209b79ea87331ad712a50c93d9d52fa4ebc6aff9cf558bb0b290824794babe02205b015dd80d69ea3f734dc2067dd34dec3e383aafced616cc57e41d7cb99250f001210209ca471f80ff6d4eb25c31c220bc29759a1bee90a9ced042aa41005b4795df76", "asm": "304502210093209b79ea87331ad712a50c93d9d52fa4ebc6aff9cf558bb0b290824794babe02205b015dd80d69ea3f734dc2067dd34dec3e383aafced616cc57e41d7cb99250f0[ALL] 0209ca471f80ff6d4eb25c31c220bc29759a1bee90a9ced042aa41005b4795df76"}, "vout": 0, "txid": "ac86bde05bf97ee8f01c1df3d85f44451d42e0d19d8e1f1616b2e0b2309be588"}, {"sequence": 4294967294, "scriptSig": {"hex": "47304402200a477a8eb76b6413512b9775fb54ad4db8b5e36aa35a48294ed36075ae08a7a902206720d811969c49c9259bf717f13f86ec7fd637752de65ec2d2f2f76df33d72a901210244ff68cda3c0f416a426bfd4d9df26e565518cc4bf0adaf1fe199c19195a21c6", "asm": "304402200a477a8eb76b6413512b9775fb54ad4db8b5e36aa35a48294ed36075ae08a7a902206720d811969c49c9259bf717f13f86ec7fd637752de65ec2d2f2f76df33d72a9[ALL] 0244ff68cda3c0f416a426bfd4d9df26e565518cc4bf0adaf1fe199c19195a21c6"}, "vout": 1, "txid": "c7f3a06882ed9d4408b33008b088ad2deb60191128172d35c1c72597beee5ba5"}, {"sequence": 4294967294, "scriptSig": {"hex": "4730440220747e5ec8d84fd217f8a11e6564ea175076ae2eda6ec8eb24106fa6357d6c40c3022030c944d2898e3b0e506da2369af029004118c483e4ecad7bcd65527458354baa012103d154bde47945054fc8c4278fb47c87a1109e0b22b3e6e5eceffd6587dc7a02a7", "asm": "30440220747e5ec8d84fd217f8a11e6564ea175076ae2eda6ec8eb24106fa6357d6c40c3022030c944d2898e3b0e506da2369af029004118c483e4ecad7bcd65527458354baa[ALL] 03d154bde47945054fc8c4278fb47c87a1109e0b22b3e6e5eceffd6587dc7a02a7"}, "vout": 3, "txid": "d1201b4e92a535970c2acc06f1e382b238f33f318a4e0f80288c11a38f21a01f"}, {"sequence": 4294967294, "scriptSig": {"hex": "473044022012d7a87eb434876114d7f98444e7be81ca680bb5480657c2c2ee2a0f5fcf640f0220084b889d7e326ebcb096090d71023aa9ea371f9097737451f86bb9496a1087a401210274b4d1aa087bcd516083fec0f091987cbf03316254e5b194a155fb54086b418d", "asm": "3044022012d7a87eb434876114d7f98444e7be81ca680bb5480657c2c2ee2a0f5fcf640f0220084b889d7e326ebcb096090d71023aa9ea371f9097737451f86bb9496a1087a4[ALL] 0274b4d1aa087bcd516083fec0f091987cbf03316254e5b194a155fb54086b418d"}, "vout": 0, "txid": "ef97e656d7cc630914b3932256a87175d00298b95ebcb0f95282d106687f0397"}, {"sequence": 4294967294, "scriptSig": {"hex": "483045022100f5017c344808dffdf9711fdc1a6ec50cbc32d9ca717fda4e28c80ba4cc64396902207ab0c86ddb269e1956a5a8c1a69fa31d97ba47bf6780a1347a9882b6b89905cf012103475bd3fa2fcef6d67a37b0d5022d4e4a448137d6f0ca95cb0f628f74b21da6d6", "asm": "3045022100f5017c344808dffdf9711fdc1a6ec50cbc32d9ca717fda4e28c80ba4cc64396902207ab0c86ddb269e1956a5a8c1a69fa31d97ba47bf6780a1347a9882b6b89905cf[ALL] 03475bd3fa2fcef6d67a37b0d5022d4e4a448137d6f0ca95cb0f628f74b21da6d6"}, "vout": 0, "txid": "f80426044622ccfc549c0e8ea487f2cb0ff8b70e3590e5199e710e38b07ba6fd"}, {"sequence": 4294967294, "scriptSig": {"hex": "473044022049d5e70966cbac8699de1f5ebf12691d3f29caad90e1c0cb214eed35e53aad4f022069a0efcd7b05e7de9d8cd2e39d39f612e5c063ebf0a4e3dd2dbdec96b6da9442012102369476a9d5fd7299d90b5e309239d9858cca8ee09a46003dd106974f7a039848", "asm": "3044022049d5e70966cbac8699de1f5ebf12691d3f29caad90e1c0cb214eed35e53aad4f022069a0efcd7b05e7de9d8cd2e39d39f612e5c063ebf0a4e3dd2dbdec96b6da9442[ALL] 02369476a9d5fd7299d90b5e309239d9858cca8ee09a46003dd106974f7a039848"}, "vout": 1, "txid": "f8cf353f7b60d28aa08155b9a2f9e89a7cf1818120d4269a12de74c27ea61b2c"}], "txid": "6f8b3a5ad09e4acebbee20a956586d88be2b306450e6bd22df5398f8ef1e57c6", "blocktime": 1537870928, "version": 1, "confirmations": 11514, "time": 1537870928, "locktime": 542989, "vsize": 1993, "size": 1993}