{"hash": "6f8ce0c8549c24b9f0c7fbc24b382709cc958c613e7e917f28b5ba4e8e3ceb35", "blockhash": "0000000000000000000e13cef7c366c0283d82e591d1acd082e914b08063cdf1", "vout": [{"scriptPubKey": {"type": "nulldata", "hex": "6a4c500000779c000114a898f23fe1bc665f662dbfe3ef3236678a625097bcbefa6b8351586b4eba21a813ee8def98f42073a9709d8c795baa0d99061567b421566cf64bbf23acfcfaac8058b692fe6808c31d", "asm": "OP_RETURN 0000779c000114a898f23fe1bc665f662dbfe3ef3236678a625097bcbefa6b8351586b4eba21a813ee8def98f42073a9709d8c795baa0d99061567b421566cf64bbf23acfcfaac8058b692fe6808c31d"}, "value": 0.0, "n": 0}, {"scriptPubKey": {"reqSigs": 1, "hex": "76a914230f10a72305ab71ad263af81c66cf05e223643688ac", "addresses": ["14CNhTDuB4p9HPt5dGLjmyhPPKVuUSV5VB"], "asm": "OP_DUP OP_HASH160 230f10a72305ab71ad263af81c66cf05e2236436 OP_EQUALVERIFY OP_CHECKSIG", "type": "pubkeyhash"}, "value": 0.00026169, "n": 1}], "hex": "01000000010714855cfe976eca29bc317027ff60273cf5b2c27c936f9b27b9ad2a55700c42010000006a473044022069d9c7aeaca9894023dcdf733dbd397680fda26ac557ee692369f46f1a078ad3022001fa9e25758204b23e498be2fb194aa2868e215f9f346f51c772e6699fdd3cd30121022f194d728351d1d95548f16049accef3689849c895054c397451911d4505f158ffffffff020000000000000000536a4c500000779c000114a898f23fe1bc665f662dbfe3ef3236678a625097bcbefa6b8351586b4eba21a813ee8def98f42073a9709d8c795baa0d99061567b421566cf64bbf23acfcfaac8058b692fe6808c31d39660000000000001976a914230f10a72305ab71ad263af81c66cf05e223643688ac00000000", "vin": [{"sequence": 4294967295, "scriptSig": {"hex": "473044022069d9c7aeaca9894023dcdf733dbd397680fda26ac557ee692369f46f1a078ad3022001fa9e25758204b23e498be2fb194aa2868e215f9f346f51c772e6699fdd3cd30121022f194d728351d1d95548f16049accef3689849c895054c397451911d4505f158", "asm": "3044022069d9c7aeaca9894023dcdf733dbd397680fda26ac557ee692369f46f1a078ad3022001fa9e25758204b23e498be2fb194aa2868e215f9f346f51c772e6699fdd3cd3[ALL] 022f194d728351d1d95548f16049accef3689849c895054c397451911d4505f158"}, "vout": 1, "txid": "420c70552aadb9279b6f937cc2b2f53c2760ff277031bc29ca6e97fe5c851407"}], "txid": "6f8ce0c8549c24b9f0c7fbc24b382709cc958c613e7e917f28b5ba4e8e3ceb35", "blocktime": 1537871767, "version": 1, "confirmations": 11495, "time": 1537871767, "locktime": 0, "vsize": 283, "size": 283}