{"hash": "6f91998af66b82ef042baac2b9487cb03b2479593bfcc9e4dc9c3a1b23fca986", "blockhash": "0000000000000000001cda96e906b7601b7a6fb1a3b62bca570a9e5d8f4b3de1", "vout": [{"scriptPubKey": {"reqSigs": 1, "hex": "a91426d817a93a9598a26facae1fe3cb08504aa7fd7287", "addresses": ["35EQUCTHfZtz56s5eGvDjcZwi1AfrDk4RF"], "asm": "OP_HASH160 26d817a93a9598a26facae1fe3cb08504aa7fd72 OP_EQUAL", "type": "scripthash"}, "value": 0.00124486, "n": 0}, {"scriptPubKey": {"reqSigs": 1, "hex": "0014a7445fa09c380105855b197a6d848587add85d72", "addresses": ["bc1q5az9lgyu8qqstp2mr9axmpy9s7kashtjjfpmht"], "asm": "0 a7445fa09c380105855b197a6d848587add85d72", "type": "witness_v0_keyhash"}, "value": 1.414e-05, "n": 1}], "hex": "01000000011019d053a43bdfe605b1bdac104da3baf04fb25926446ac034e81e15434a2825600000006b483045022100a2f54754328b2b7134d3acb9d5649d6a7d36e4a0cdb17681aa5261d7bf1115c9022015d24814d3b1fb5c6b2ede270723422eace97df7557860889645f701b01d080e01210274af758752724e659b7fed28bd46a606c2dd9249054450b95d3ec3198d6e5cc6ffffffff0246e601000000000017a91426d817a93a9598a26facae1fe3cb08504aa7fd72878605000000000000160014a7445fa09c380105855b197a6d848587add85d7200000000", "vin": [{"sequence": 4294967295, "scriptSig": {"hex": "483045022100a2f54754328b2b7134d3acb9d5649d6a7d36e4a0cdb17681aa5261d7bf1115c9022015d24814d3b1fb5c6b2ede270723422eace97df7557860889645f701b01d080e01210274af758752724e659b7fed28bd46a606c2dd9249054450b95d3ec3198d6e5cc6", "asm": "3045022100a2f54754328b2b7134d3acb9d5649d6a7d36e4a0cdb17681aa5261d7bf1115c9022015d24814d3b1fb5c6b2ede270723422eace97df7557860889645f701b01d080e[ALL] 0274af758752724e659b7fed28bd46a606c2dd9249054450b95d3ec3198d6e5cc6"}, "vout": 96, "txid": "25284a43151ee834c06a442659b24ff0baa34d10acbdb105e6df3ba453d01910"}], "txid": "6f91998af66b82ef042baac2b9487cb03b2479593bfcc9e4dc9c3a1b23fca986", "blocktime": 1537873282, "version": 1, "confirmations": 11484, "time": 1537873282, "locktime": 0, "vsize": 221, "size": 221}