{"hash": "6f93bc81b7391d0d160f459a24a08216790db40a77d342da8338ac67952ffe50", "blockhash": "000000000000000000022b45ed06c6f4ccd3cf7fb5ba4856ebd2e58215665228", "vout": [{"scriptPubKey": {"reqSigs": 1, "hex": "76a914e13511d686b0d1afc67a226827807dd0010f08d388ac", "addresses": ["1MXncWTLrUk6RZy7zhBNxUdvCt9f2Xu6Ln"], "asm": "OP_DUP OP_HASH160 e13511d686b0d1afc67a226827807dd0010f08d3 OP_EQUALVERIFY OP_CHECKSIG", "type": "pubkeyhash"}, "value": 0.10750135, "n": 0}, {"scriptPubKey": {"reqSigs": 1, "hex": "a914c32b28e4bba4e65047079f7c6045d96e0d60d45687", "addresses": ["3KUyPjzMz5JpKH7Gx2WWrwDW1Sq5r3aHQz"], "asm": "OP_HASH160 c32b28e4bba4e65047079f7c6045d96e0d60d456 OP_EQUAL", "type": "scripthash"}, "value": 0.15793878, "n": 1}], "hex": "010000000335d466bbaa6d7f1c91b55567c5963065ef15fcfd726312a1fde245aaf460a234010000006b48304502210086f7807281c53faa53a45943100f14a55d701bf4a72b3bb45087d522118d52a30220507f56099e34e110ba606d878cbd1de081f1614bc60b87f3bbc0c1aab56b458a012102c05a58a64001a25c762e4c07386f420b13c57098fb873ab54f6328be9435cbbdffffffffbe042f0a6ee65c4245abfdf7f0c40d3954948cdb1a451457b7b27bbf151b5a4f010000006a473044022002b7dd40b2ea5b0a36e2721322f17e8669ce725b45c521b64bebbb617350a34a022064b7c1e264bf1ff5908c9291ac845a8411415701eed6009d7ebe73f6a2420b74012103a7a6199c3a7685bee231b12b33c1c95d3f11a736432816108232defe8108c156ffffffff7168491d76b6a194263eee4719a6fe2ad1fa26c8004d247ccfca6057c60c95d9000000006b483045022100d404c6616a8b530ddb0b9dc19bea144f2852a632f6ccd203e6c466f938431af20220021bfe9984665be67e560b70908e188db703ac9480f2aac777f9d2610b63ffe7012102b842b7524038e4900f1962f1be34448af305fe461489ca778a53d004882ee933ffffffff02b708a400000000001976a914e13511d686b0d1afc67a226827807dd0010f08d388acd6fef0000000000017a914c32b28e4bba4e65047079f7c6045d96e0d60d4568700000000", "vin": [{"sequence": 4294967295, "scriptSig": {"hex": "48304502210086f7807281c53faa53a45943100f14a55d701bf4a72b3bb45087d522118d52a30220507f56099e34e110ba606d878cbd1de081f1614bc60b87f3bbc0c1aab56b458a012102c05a58a64001a25c762e4c07386f420b13c57098fb873ab54f6328be9435cbbd", "asm": "304502210086f7807281c53faa53a45943100f14a55d701bf4a72b3bb45087d522118d52a30220507f56099e34e110ba606d878cbd1de081f1614bc60b87f3bbc0c1aab56b458a[ALL] 02c05a58a64001a25c762e4c07386f420b13c57098fb873ab54f6328be9435cbbd"}, "vout": 1, "txid": "34a260f4aa45e2fda1126372fdfc15ef653096c56755b5911c7f6daabb66d435"}, {"sequence": 4294967295, "scriptSig": {"hex": "473044022002b7dd40b2ea5b0a36e2721322f17e8669ce725b45c521b64bebbb617350a34a022064b7c1e264bf1ff5908c9291ac845a8411415701eed6009d7ebe73f6a2420b74012103a7a6199c3a7685bee231b12b33c1c95d3f11a736432816108232defe8108c156", "asm": "3044022002b7dd40b2ea5b0a36e2721322f17e8669ce725b45c521b64bebbb617350a34a022064b7c1e264bf1ff5908c9291ac845a8411415701eed6009d7ebe73f6a2420b74[ALL] 03a7a6199c3a7685bee231b12b33c1c95d3f11a736432816108232defe8108c156"}, "vout": 1, "txid": "4f5a1b15bf7bb2b75714451adb8c9454390dc4f0f7fdab45425ce66e0a2f04be"}, {"sequence": 4294967295, "scriptSig": {"hex": "483045022100d404c6616a8b530ddb0b9dc19bea144f2852a632f6ccd203e6c466f938431af20220021bfe9984665be67e560b70908e188db703ac9480f2aac777f9d2610b63ffe7012102b842b7524038e4900f1962f1be34448af305fe461489ca778a53d004882ee933", "asm": "3045022100d404c6616a8b530ddb0b9dc19bea144f2852a632f6ccd203e6c466f938431af20220021bfe9984665be67e560b70908e188db703ac9480f2aac777f9d2610b63ffe7[ALL] 02b842b7524038e4900f1962f1be34448af305fe461489ca778a53d004882ee933"}, "vout": 0, "txid": "d9950cc65760cacf7c244d00c826fad12afea61947ee3e2694a1b6761d496871"}], "txid": "6f93bc81b7391d0d160f459a24a08216790db40a77d342da8338ac67952ffe50", "blocktime": 1537869901, "version": 1, "confirmations": 11522, "time": 1537869901, "locktime": 0, "vsize": 519, "size": 519}