{"hash": "6f94cf4cef833aa23777ba20de24d6f2e4b58b61aefcf7324abe40305791b451", "blockhash": "0000000000000000001cda96e906b7601b7a6fb1a3b62bca570a9e5d8f4b3de1", "vout": [{"scriptPubKey": {"reqSigs": 1, "hex": "76a91425f0fcd3f730a2ed1d4775b73e91f9690cd57cc488ac", "addresses": ["14TchDCg11zYCe86JhKfpz2GHjr3brVmnd"], "asm": "OP_DUP OP_HASH160 25f0fcd3f730a2ed1d4775b73e91f9690cd57cc4 OP_EQUALVERIFY OP_CHECKSIG", "type": "pubkeyhash"}, "value": 0.00458277, "n": 0}, {"scriptPubKey": {"reqSigs": 1, "hex": "76a9141ff69204abe42179ba81f40f36d257a3f3dc875388ac", "addresses": ["13v1KxXXwj756rx7pmPLkSZCeLb4M1aoTZ"], "asm": "OP_DUP OP_HASH160 1ff69204abe42179ba81f40f36d257a3f3dc8753 OP_EQUALVERIFY OP_CHECKSIG", "type": "pubkeyhash"}, "value": 0.0054014, "n": 1}], "hex": "01000000018819fc458eb43cf5b06e24f83738bc771135c14359d3850d5379d66c882db742010000006a47304402203e7b6ab6feacad9f04f4de3845677fc39bc5453df905e3cca5c9536709734d1702203e55db51f5a1bf1dbfee8cc4cff3634df47da918a00ff213766686d88068b9f401210390ce7c191306f5185e8b373f2b38e7529c56f535fa6ba90ad39c72ef1d61f559ffffffff0225fe0600000000001976a91425f0fcd3f730a2ed1d4775b73e91f9690cd57cc488acec3d0800000000001976a9141ff69204abe42179ba81f40f36d257a3f3dc875388ac00000000", "vin": [{"sequence": 4294967295, "scriptSig": {"hex": "47304402203e7b6ab6feacad9f04f4de3845677fc39bc5453df905e3cca5c9536709734d1702203e55db51f5a1bf1dbfee8cc4cff3634df47da918a00ff213766686d88068b9f401210390ce7c191306f5185e8b373f2b38e7529c56f535fa6ba90ad39c72ef1d61f559", "asm": "304402203e7b6ab6feacad9f04f4de3845677fc39bc5453df905e3cca5c9536709734d1702203e55db51f5a1bf1dbfee8cc4cff3634df47da918a00ff213766686d88068b9f4[ALL] 0390ce7c191306f5185e8b373f2b38e7529c56f535fa6ba90ad39c72ef1d61f559"}, "vout": 1, "txid": "42b72d886cd679530d85d35943c1351177bc3837f8246eb0f53cb48e45fc1988"}], "txid": "6f94cf4cef833aa23777ba20de24d6f2e4b58b61aefcf7324abe40305791b451", "blocktime": 1537873282, "version": 1, "confirmations": 11485, "time": 1537873282, "locktime": 0, "vsize": 225, "size": 225}