{"hash": "b0b8efc44b21083fdf97fde488ee63fe9fcc19a6b2e617b8778f9bb06b4ee963", "blockhash": "0000000000000000000e13cef7c366c0283d82e591d1acd082e914b08063cdf1", "vout": [{"scriptPubKey": {"reqSigs": 1, "hex": "a9147554f7c90639248152c4e834a732898ba4affa5287", "addresses": ["3CPQmfLopeJsADuDjCagyphYz4n335T65j"], "asm": "OP_HASH160 7554f7c90639248152c4e834a732898ba4affa52 OP_EQUAL", "type": "scripthash"}, "value": 0.17161714, "n": 0}, {"scriptPubKey": {"reqSigs": 1, "hex": "00145c07ff898f5e6001232c3396b4ba010d6e825385", "addresses": ["bc1qtsrllzv0tesqzgevxwttfwspp4hgy5u9vw7ljw"], "asm": "0 5c07ff898f5e6001232c3396b4ba010d6e825385", "type": "witness_v0_keyhash"}, "value": 0.68734483, "n": 1}], "hex": "010000000001012586e6d9fde0f4eae4bb4b68a787233c21fef826cd88cc6a46964bc8f8d0ea5a0100000000ffffffff02f2dd05010000000017a9147554f7c90639248152c4e834a732898ba4affa528713ce1804000000001600145c07ff898f5e6001232c3396b4ba010d6e82538502483045022100e869beb009f45566fb96692d00dfe65dfe0a4fd66dbaf844ac34208e686fab76022063b9a741ec67a42251ca9600fbf37109d5fd4e9bc202517c5e6c3237fcd74c9a0121024bbebedb34b1fafcfb6bc7c5a330cad150d582cb65a02b7ed15f7cd6f1061d5600000000", "vin": [{"txinwitness": ["3045022100e869beb009f45566fb96692d00dfe65dfe0a4fd66dbaf844ac34208e686fab76022063b9a741ec67a42251ca9600fbf37109d5fd4e9bc202517c5e6c3237fcd74c9a01", "024bbebedb34b1fafcfb6bc7c5a330cad150d582cb65a02b7ed15f7cd6f1061d56"], "sequence": 4294967295, "scriptSig": {"hex": "", "asm": ""}, "vout": 1, "txid": "5aead0f8c84b96466acc88cd26f8fe213c2387a7684bbbe4eaf4e0fdd9e68625"}], "txid": "6f97480df07e68856cccfc7720050463f60d853de62a26873fe69f7e5cd423ac", "blocktime": 1537871767, "version": 1, "confirmations": 11495, "time": 1537871767, "locktime": 0, "vsize": 142, "size": 224}