{"hash": "6f9dfdd63c5de4181cf54f5d0b7e6081d6092d6f19f9932051db491c643f4370", "blockhash": "0000000000000000000baef3f32e3676a92c3b2e5da21b426e4f302fc371ce76", "vout": [{"scriptPubKey": {"reqSigs": 1, "hex": "76a9149b75be3c91876e06306ba3ecea3508cb98294b0c88ac", "addresses": ["1FAznfmxgpSC1taNmwKpS6Ld1oo8XUyCeL"], "asm": "OP_DUP OP_HASH160 9b75be3c91876e06306ba3ecea3508cb98294b0c OP_EQUALVERIFY OP_CHECKSIG", "type": "pubkeyhash"}, "value": 0.00631776, "n": 0}, {"scriptPubKey": {"type": "nulldata", "hex": "6a4c50000078170001531c8e40a2822957b3f09510019d6ddc0f1b8ff117702940d64fa54d8eb2031b266e538dfbecd6ca0bb3b5322d665baa1c1b0615bbafbaed871f1d100759d4ba30d2c37bb011d97e02cf", "asm": "OP_RETURN 000078170001531c8e40a2822957b3f09510019d6ddc0f1b8ff117702940d64fa54d8eb2031b266e538dfbecd6ca0bb3b5322d665baa1c1b0615bbafbaed871f1d100759d4ba30d2c37bb011d97e02cf"}, "value": 0.0, "n": 1}], "hex": "0100000001fc0a5b8b3954f763aa60b6e8d0d6f2bf0fa99372e9a8f82145c4adaaab877667000000006a47304402202ca57c7634728ed049d369048db4c1e7a17dc7de35c41fbcef86ed4b9f02ec9602201c513a92ecae829198da76310d6bf1f1fee3a0214653992b4047070c1f71f2280121033651a99912109817cf29fae2a78b4fcfeeb595c9a239981d927a5aa0a0c4c558ffffffff02e0a30900000000001976a9149b75be3c91876e06306ba3ecea3508cb98294b0c88ac0000000000000000536a4c50000078170001531c8e40a2822957b3f09510019d6ddc0f1b8ff117702940d64fa54d8eb2031b266e538dfbecd6ca0bb3b5322d665baa1c1b0615bbafbaed871f1d100759d4ba30d2c37bb011d97e02cf00000000", "vin": [{"sequence": 4294967295, "scriptSig": {"hex": "47304402202ca57c7634728ed049d369048db4c1e7a17dc7de35c41fbcef86ed4b9f02ec9602201c513a92ecae829198da76310d6bf1f1fee3a0214653992b4047070c1f71f2280121033651a99912109817cf29fae2a78b4fcfeeb595c9a239981d927a5aa0a0c4c558", "asm": "304402202ca57c7634728ed049d369048db4c1e7a17dc7de35c41fbcef86ed4b9f02ec9602201c513a92ecae829198da76310d6bf1f1fee3a0214653992b4047070c1f71f228[ALL] 033651a99912109817cf29fae2a78b4fcfeeb595c9a239981d927a5aa0a0c4c558"}, "vout": 0, "txid": "677687abaaadc44521f8a8e97293a90fbff2d6d0e8b660aa63f754398b5b0afc"}], "txid": "6f9dfdd63c5de4181cf54f5d0b7e6081d6092d6f19f9932051db491c643f4370", "blocktime": 1537876114, "version": 1, "confirmations": 11462, "time": 1537876114, "locktime": 0, "vsize": 283, "size": 283}