{"hash": "13a78afeb936f15998c320677705a329a3eab49a41f213467727f8be569508e6", "blockhash": "000000000000000000022b45ed06c6f4ccd3cf7fb5ba4856ebd2e58215665228", "vout": [{"scriptPubKey": {"reqSigs": 1, "hex": "a91451da16f080c835863c0affb151a2950021ab784987", "addresses": ["399ovDLkWB46Uuf21TLq94wQ9bD4sBxHGr"], "asm": "OP_HASH160 51da16f080c835863c0affb151a2950021ab7849 OP_EQUAL", "type": "scripthash"}, "value": 5.0, "n": 0}, {"scriptPubKey": {"reqSigs": 1, "hex": "a9148b4a8573a2642364d5b5581e3b0b4af452dbdd6387", "addresses": ["3EPX83C379m452dTdWWaaNVHtzRES3rUp2"], "asm": "OP_HASH160 8b4a8573a2642364d5b5581e3b0b4af452dbdd63 OP_EQUAL", "type": "scripthash"}, "value": 6.91e-06, "n": 1}], "hex": "02000000000111093432534fe8c0cc8890d6447f00921e97f7ac71f0a3bc2faebc78c8a26f2f99000000001716001414ac529a36a1f16188c1edd83a8da75db6fcd210feffffff1088beac6a6a502087e399e88b777c160d6acb80419c4f9254f0619ee0e2bf8e010000006b483045022100e7f0782ef93bbb46eb39a2a5cf8a14ab87e00988649f7d924a61eeee194ae47802207732dd0a0ea4265b1b987e95eb08759af5071e61765b6492bdf0c7c8faec07770121033422754e54a3b12bbf82ac99d44a7d46406b1b1dcff7052810e0a6d1f12b286afeffffff168a5d884803435b473b3d7af0213614dcf07ec661eb452974e9ad51840fe4cc000000006b483045022100cd18e6361e8aa89331657a2d874172d2803188f79539e7eb209adc405f8147d30220232539fca21ddf488c2042816954a6cbb5f3b848ac1ed5b47250a7aa6380a169012103071a21320cfdbd5d3797d74c072bc6f3d837fc0604bf0fa221000125f4027668feffffff2aa4f8d4810aad9516d72b00c7835251822778a71c3cccbd6f29c8f34632e1f8010000006a47304402201ef1b8eaa24f53d8382eddb20d35e960916c575f0c9a6c5536d472505676c9b3022078caaf575f6be87cc880751db2d47667280e5cd510e50c33581c5c4b171f457b0121023c3cb2b2bdf1531e8db6677c34e04c583e607e0531406dc6f3c846442551f636feffffff3112c7c9622ddf2cdc9dcbad7698daea4039ef3f67842a23c6a85d030c18b027010000006a473044022022c657f653dab54cdd1f0ccd2b5356076f1b8916b5040b353eea892cc9c394f7022078972af8a1b3cb31ddc7b5f970d2ee1fa2af748dfed26d6227b7d695065cf120012102920ad11faa9817206c9ab8a7787796896b701b93a880c94689de5319aa168f4efeffffff311a4ecc48e53ad696dddf1095bbe39ddecabfcc8e038d81569fdc42226c7f341a0000006a47304402200772246e050f64e34fc6a8fd774189b4d731f5f10770125036d12a479a677b4e02203682f9ae2835886344073535996d91e253e67285ef85ada467eefa3a6bf8b20d012103f5900344122296f2a10fb242efb7a09aeba17f588459e7cc550a0070c5c64d9dfeffffff3acf4d95e550ef48f00fe1b80070ddef107a0c88dae8a869d95c8fd36ea6edb75a0000006b483045022100995faf2d30da2193102eecc77958d76215ed571c34933d28e9bdceeaa168e90a022061a162b93f2323b0e73e800895a8870b0d1ac5d1c218fda1189f18ca0b5e97bd0121039364a0a444f4e205120852b3b195b553fe696424ee9d673cd944c7e1a4a81c12feffffff3acf4d95e550ef48f00fe1b80070ddef107a0c88dae8a869d95c8fd36ea6edb75b0000006b483045022100e66139ef84b2e89d00c5f27a1b3a4268da7bc628b7c388bf3438b7b4e7437381022039cf72eff8e74d2dc9b5dc57e80eaeb2b626ce7688161f05f6845c074b8d9abb0121023ab1c53b1c9e67e20476b76805512baf46e6935cb8624cef5161977e5580f5e2feffffff521f79534de23f13ca5f51bf59f12cfa6eb3ed1c710549019776cff9521c535d0000000017160014a1e73dbe1464c34b8528fb2dedb01c2546ce410ffeffffff6eee17ebd7562cb72ba6b434e4ab5a813dbc0d84880f51556efc1a497fbe5328040000006b483045022100dacfd220168e14bd6bbb2dba835bd521ad0429367acf2c19105b189d52d2573b02200c1d77df6fab52a4370f867c8157cbb96fdd12894ecf868c43729895d4309a1e0121021f4465adf6e77cdbef79a9c60fe3863944323d0afc6103f6c3006fc7c699033ffeffffff748ca989fc2bc2b4758bab47cdd29ffec49ff525dd4a32de81c87b2aa601078d130000006a473044022012e1a161a067e8b46afc68e715de1e26e4b7129c869a855fe7ac29927ad7b62402206752d954de161140690aecb9c9d985164abc34c6907ef216d6762097985083050121021990b41f56fd6ebbee591c80b142924100429b75e3278ca152d5258ad03e8cccfeffffff818d83f20a0a60f2360b64ce465bfa1f194e57464f85c1830d0e19926adbf518140000006b483045022100d467fc4930fbba9741bdd99ed9f053bec9feabb43555a2ea0e3ed2a201d5c1da0220287aadf3b2da7df1665875733a0f5c0f26310348e921d4d08e5c7b82bf70418a0121021990b41f56fd6ebbee591c80b142924100429b75e3278ca152d5258ad03e8cccfeffffffc39669d329fa74870f11b4f06c3ae3bd90182c34991b13d7a829028774e25613000000006b4830450221009334123ee2d3211f30f35810545cded9672ad65652b387884947a9ef9efa781702205cd439c0511bbf95bc2abf848d2cbccaa7029918dc645b8d1897620fcbbc69c70121028832e762aa734e61024e7be78628b449fb9b7f1e917c53e2f8902a82b4387498feffffffc3c23bda1417010eeca8aa1e454be0924034c6b2b976d961ed7731b530b7434c000000006b483045022100a1295fd784ef2d0c3dbb9845f382c4e5d722b43d50ce59aa3c816186c604eea702207722abe25789458101cf2c4149a6e6245071e097beca2a138d4098397468e11a012103f926823bb8406555a5c7749fd8cc59cd64dfd8a82ce9ecbae6e6fc6d7874222efeffffffc426afba495032927d6231684349d702a003de355f40894de4be05d099b09e8c010000006a47304402200113e2483e0d6acfcc3a6c1f0429c5644116f0beb89819823c3fb745cd829ffc02201a4c5d502396e3db1c5dff2736355f196f522b496fee94476130d7217e933dc20121035c98a3ecb2aa3637f5e0e720688f9e7213ef32562c441122c60b831d95f14f33feffffffc5538ad7da03923faeffda292aa626bbe98370e66dfa4b70530cd6ce95aa9cd3000000006a47304402207cb89ae20fcc5bd051c5267001c481bc25bdd0a92b90515f529e69a06d14bd7f02207fe40f96d7b85f0f894e1016a941c4f603c4a4bbebcbdba197c2abe25f5e9e2d0121033422754e54a3b12bbf82ac99d44a7d46406b1b1dcff7052810e0a6d1f12b286afeffffffc5dbeb5701a24075a08ce4bce16c47424eca7dc5784db010d02eb63c47f6380d000000006b483045022100b49d27be72bfa82420e1d7e700a849fe8e3dfe6f83a6124e5cec1fe8ece6bd7802200e676ea0be5b3fafe8d0313272c996c85581672529976adf991302dfa3e250f9012103953693d18de91dfb7a04391cefbb1483892dbe50be3e48f1b2fac83301e3dd78feffffff020065cd1d0000000017a91451da16f080c835863c0affb151a2950021ab784987b30200000000000017a9148b4a8573a2642364d5b5581e3b0b4af452dbdd63870247304402201db9712f24d652795de59cdcbac1f62d2218ba836979e838f86f02b389bc555c0220167ec6b5b89a97945043bb4e9a85549e05123477476c165315d188a364ff1f70012103bbfc1b8af1bbf165f754cf03e71e9f8e18834e124a1544cc475e40f42539b08f000000000000000247304402204c3fac724490a8d81cd32d8e68bddb84c3bb90fa8a891617a9b5f188d712d5120220422501d9f2b33b8de5989c80bd760d2dce4d08e01247a1cdcf5ad639e67e3b0901210221bceec8f16249e8f69cb42718761459307cd6cddf75e736547697d4ed2dc29800000000000000000b490800", "vin": [{"txinwitness": ["304402201db9712f24d652795de59cdcbac1f62d2218ba836979e838f86f02b389bc555c0220167ec6b5b89a97945043bb4e9a85549e05123477476c165315d188a364ff1f7001", "03bbfc1b8af1bbf165f754cf03e71e9f8e18834e124a1544cc475e40f42539b08f"], "sequence": 4294967294, "scriptSig": {"hex": "16001414ac529a36a1f16188c1edd83a8da75db6fcd210", "asm": "001414ac529a36a1f16188c1edd83a8da75db6fcd210"}, "vout": 0, "txid": "992f6fa2c878bcae2fbca3f071acf7971e92007f44d69088ccc0e84f53323409"}, {"sequence": 4294967294, "scriptSig": {"hex": "483045022100e7f0782ef93bbb46eb39a2a5cf8a14ab87e00988649f7d924a61eeee194ae47802207732dd0a0ea4265b1b987e95eb08759af5071e61765b6492bdf0c7c8faec07770121033422754e54a3b12bbf82ac99d44a7d46406b1b1dcff7052810e0a6d1f12b286a", "asm": "3045022100e7f0782ef93bbb46eb39a2a5cf8a14ab87e00988649f7d924a61eeee194ae47802207732dd0a0ea4265b1b987e95eb08759af5071e61765b6492bdf0c7c8faec0777[ALL] 033422754e54a3b12bbf82ac99d44a7d46406b1b1dcff7052810e0a6d1f12b286a"}, "vout": 1, "txid": "8ebfe2e09e61f054924f9c4180cb6a0d167c778be899e38720506a6aacbe8810"}, {"sequence": 4294967294, "scriptSig": {"hex": "483045022100cd18e6361e8aa89331657a2d874172d2803188f79539e7eb209adc405f8147d30220232539fca21ddf488c2042816954a6cbb5f3b848ac1ed5b47250a7aa6380a169012103071a21320cfdbd5d3797d74c072bc6f3d837fc0604bf0fa221000125f4027668", "asm": "3045022100cd18e6361e8aa89331657a2d874172d2803188f79539e7eb209adc405f8147d30220232539fca21ddf488c2042816954a6cbb5f3b848ac1ed5b47250a7aa6380a169[ALL] 03071a21320cfdbd5d3797d74c072bc6f3d837fc0604bf0fa221000125f4027668"}, "vout": 0, "txid": "cce40f8451ade9742945eb61c67ef0dc143621f07a3d3b475b430348885d8a16"}, {"sequence": 4294967294, "scriptSig": {"hex": "47304402201ef1b8eaa24f53d8382eddb20d35e960916c575f0c9a6c5536d472505676c9b3022078caaf575f6be87cc880751db2d47667280e5cd510e50c33581c5c4b171f457b0121023c3cb2b2bdf1531e8db6677c34e04c583e607e0531406dc6f3c846442551f636", "asm": "304402201ef1b8eaa24f53d8382eddb20d35e960916c575f0c9a6c5536d472505676c9b3022078caaf575f6be87cc880751db2d47667280e5cd510e50c33581c5c4b171f457b[ALL] 023c3cb2b2bdf1531e8db6677c34e04c583e607e0531406dc6f3c846442551f636"}, "vout": 1, "txid": "f8e13246f3c8296fbdcc3c1ca7782782515283c7002bd71695ad0a81d4f8a42a"}, {"sequence": 4294967294, "scriptSig": {"hex": "473044022022c657f653dab54cdd1f0ccd2b5356076f1b8916b5040b353eea892cc9c394f7022078972af8a1b3cb31ddc7b5f970d2ee1fa2af748dfed26d6227b7d695065cf120012102920ad11faa9817206c9ab8a7787796896b701b93a880c94689de5319aa168f4e", "asm": "3044022022c657f653dab54cdd1f0ccd2b5356076f1b8916b5040b353eea892cc9c394f7022078972af8a1b3cb31ddc7b5f970d2ee1fa2af748dfed26d6227b7d695065cf120[ALL] 02920ad11faa9817206c9ab8a7787796896b701b93a880c94689de5319aa168f4e"}, "vout": 1, "txid": "27b0180c035da8c6232a84673fef3940eada9876adcb9ddc2cdf2d62c9c71231"}, {"sequence": 4294967294, "scriptSig": {"hex": "47304402200772246e050f64e34fc6a8fd774189b4d731f5f10770125036d12a479a677b4e02203682f9ae2835886344073535996d91e253e67285ef85ada467eefa3a6bf8b20d012103f5900344122296f2a10fb242efb7a09aeba17f588459e7cc550a0070c5c64d9d", "asm": "304402200772246e050f64e34fc6a8fd774189b4d731f5f10770125036d12a479a677b4e02203682f9ae2835886344073535996d91e253e67285ef85ada467eefa3a6bf8b20d[ALL] 03f5900344122296f2a10fb242efb7a09aeba17f588459e7cc550a0070c5c64d9d"}, "vout": 26, "txid": "347f6c2242dc9f56818d038eccbfcade9de3bb9510dfdd96d63ae548cc4e1a31"}, {"sequence": 4294967294, "scriptSig": {"hex": "483045022100995faf2d30da2193102eecc77958d76215ed571c34933d28e9bdceeaa168e90a022061a162b93f2323b0e73e800895a8870b0d1ac5d1c218fda1189f18ca0b5e97bd0121039364a0a444f4e205120852b3b195b553fe696424ee9d673cd944c7e1a4a81c12", "asm": "3045022100995faf2d30da2193102eecc77958d76215ed571c34933d28e9bdceeaa168e90a022061a162b93f2323b0e73e800895a8870b0d1ac5d1c218fda1189f18ca0b5e97bd[ALL] 039364a0a444f4e205120852b3b195b553fe696424ee9d673cd944c7e1a4a81c12"}, "vout": 90, "txid": "b7eda66ed38f5cd969a8e8da880c7a10efdd7000b8e10ff048ef50e5954dcf3a"}, {"sequence": 4294967294, "scriptSig": {"hex": "483045022100e66139ef84b2e89d00c5f27a1b3a4268da7bc628b7c388bf3438b7b4e7437381022039cf72eff8e74d2dc9b5dc57e80eaeb2b626ce7688161f05f6845c074b8d9abb0121023ab1c53b1c9e67e20476b76805512baf46e6935cb8624cef5161977e5580f5e2", "asm": "3045022100e66139ef84b2e89d00c5f27a1b3a4268da7bc628b7c388bf3438b7b4e7437381022039cf72eff8e74d2dc9b5dc57e80eaeb2b626ce7688161f05f6845c074b8d9abb[ALL] 023ab1c53b1c9e67e20476b76805512baf46e6935cb8624cef5161977e5580f5e2"}, "vout": 91, "txid": "b7eda66ed38f5cd969a8e8da880c7a10efdd7000b8e10ff048ef50e5954dcf3a"}, {"txinwitness": ["304402204c3fac724490a8d81cd32d8e68bddb84c3bb90fa8a891617a9b5f188d712d5120220422501d9f2b33b8de5989c80bd760d2dce4d08e01247a1cdcf5ad639e67e3b0901", "0221bceec8f16249e8f69cb42718761459307cd6cddf75e736547697d4ed2dc298"], "sequence": 4294967294, "scriptSig": {"hex": "160014a1e73dbe1464c34b8528fb2dedb01c2546ce410f", "asm": "0014a1e73dbe1464c34b8528fb2dedb01c2546ce410f"}, "vout": 0, "txid": "5d531c52f9cf7697014905711cedb36efa2cf159bf515fca133fe24d53791f52"}, {"sequence": 4294967294, "scriptSig": {"hex": "483045022100dacfd220168e14bd6bbb2dba835bd521ad0429367acf2c19105b189d52d2573b02200c1d77df6fab52a4370f867c8157cbb96fdd12894ecf868c43729895d4309a1e0121021f4465adf6e77cdbef79a9c60fe3863944323d0afc6103f6c3006fc7c699033f", "asm": "3045022100dacfd220168e14bd6bbb2dba835bd521ad0429367acf2c19105b189d52d2573b02200c1d77df6fab52a4370f867c8157cbb96fdd12894ecf868c43729895d4309a1e[ALL] 021f4465adf6e77cdbef79a9c60fe3863944323d0afc6103f6c3006fc7c699033f"}, "vout": 4, "txid": "2853be7f491afc6e55510f88840dbc3d815aabe434b4a62bb72c56d7eb17ee6e"}, {"sequence": 4294967294, "scriptSig": {"hex": "473044022012e1a161a067e8b46afc68e715de1e26e4b7129c869a855fe7ac29927ad7b62402206752d954de161140690aecb9c9d985164abc34c6907ef216d6762097985083050121021990b41f56fd6ebbee591c80b142924100429b75e3278ca152d5258ad03e8ccc", "asm": "3044022012e1a161a067e8b46afc68e715de1e26e4b7129c869a855fe7ac29927ad7b62402206752d954de161140690aecb9c9d985164abc34c6907ef216d676209798508305[ALL] 021990b41f56fd6ebbee591c80b142924100429b75e3278ca152d5258ad03e8ccc"}, "vout": 19, "txid": "8d0701a62a7bc881de324add25f59fc4fe9fd2cd47ab8b75b4c22bfc89a98c74"}, {"sequence": 4294967294, "scriptSig": {"hex": "483045022100d467fc4930fbba9741bdd99ed9f053bec9feabb43555a2ea0e3ed2a201d5c1da0220287aadf3b2da7df1665875733a0f5c0f26310348e921d4d08e5c7b82bf70418a0121021990b41f56fd6ebbee591c80b142924100429b75e3278ca152d5258ad03e8ccc", "asm": "3045022100d467fc4930fbba9741bdd99ed9f053bec9feabb43555a2ea0e3ed2a201d5c1da0220287aadf3b2da7df1665875733a0f5c0f26310348e921d4d08e5c7b82bf70418a[ALL] 021990b41f56fd6ebbee591c80b142924100429b75e3278ca152d5258ad03e8ccc"}, "vout": 20, "txid": "18f5db6a92190e0d83c1854f46574e191ffa5b46ce640b36f2600a0af2838d81"}, {"sequence": 4294967294, "scriptSig": {"hex": "4830450221009334123ee2d3211f30f35810545cded9672ad65652b387884947a9ef9efa781702205cd439c0511bbf95bc2abf848d2cbccaa7029918dc645b8d1897620fcbbc69c70121028832e762aa734e61024e7be78628b449fb9b7f1e917c53e2f8902a82b4387498", "asm": "30450221009334123ee2d3211f30f35810545cded9672ad65652b387884947a9ef9efa781702205cd439c0511bbf95bc2abf848d2cbccaa7029918dc645b8d1897620fcbbc69c7[ALL] 028832e762aa734e61024e7be78628b449fb9b7f1e917c53e2f8902a82b4387498"}, "vout": 0, "txid": "1356e274870229a8d7131b99342c1890bde33a6cf0b4110f8774fa29d36996c3"}, {"sequence": 4294967294, "scriptSig": {"hex": "483045022100a1295fd784ef2d0c3dbb9845f382c4e5d722b43d50ce59aa3c816186c604eea702207722abe25789458101cf2c4149a6e6245071e097beca2a138d4098397468e11a012103f926823bb8406555a5c7749fd8cc59cd64dfd8a82ce9ecbae6e6fc6d7874222e", "asm": "3045022100a1295fd784ef2d0c3dbb9845f382c4e5d722b43d50ce59aa3c816186c604eea702207722abe25789458101cf2c4149a6e6245071e097beca2a138d4098397468e11a[ALL] 03f926823bb8406555a5c7749fd8cc59cd64dfd8a82ce9ecbae6e6fc6d7874222e"}, "vout": 0, "txid": "4c43b730b53177ed61d976b9b2c6344092e04b451eaaa8ec0e011714da3bc2c3"}, {"sequence": 4294967294, "scriptSig": {"hex": "47304402200113e2483e0d6acfcc3a6c1f0429c5644116f0beb89819823c3fb745cd829ffc02201a4c5d502396e3db1c5dff2736355f196f522b496fee94476130d7217e933dc20121035c98a3ecb2aa3637f5e0e720688f9e7213ef32562c441122c60b831d95f14f33", "asm": "304402200113e2483e0d6acfcc3a6c1f0429c5644116f0beb89819823c3fb745cd829ffc02201a4c5d502396e3db1c5dff2736355f196f522b496fee94476130d7217e933dc2[ALL] 035c98a3ecb2aa3637f5e0e720688f9e7213ef32562c441122c60b831d95f14f33"}, "vout": 1, "txid": "8c9eb099d005bee44d89405f35de03a002d749436831627d92325049baaf26c4"}, {"sequence": 4294967294, "scriptSig": {"hex": "47304402207cb89ae20fcc5bd051c5267001c481bc25bdd0a92b90515f529e69a06d14bd7f02207fe40f96d7b85f0f894e1016a941c4f603c4a4bbebcbdba197c2abe25f5e9e2d0121033422754e54a3b12bbf82ac99d44a7d46406b1b1dcff7052810e0a6d1f12b286a", "asm": "304402207cb89ae20fcc5bd051c5267001c481bc25bdd0a92b90515f529e69a06d14bd7f02207fe40f96d7b85f0f894e1016a941c4f603c4a4bbebcbdba197c2abe25f5e9e2d[ALL] 033422754e54a3b12bbf82ac99d44a7d46406b1b1dcff7052810e0a6d1f12b286a"}, "vout": 0, "txid": "d39caa95ced60c53704bfa6de67083e9bb26a62a29daffae3f9203dad78a53c5"}, {"sequence": 4294967294, "scriptSig": {"hex": "483045022100b49d27be72bfa82420e1d7e700a849fe8e3dfe6f83a6124e5cec1fe8ece6bd7802200e676ea0be5b3fafe8d0313272c996c85581672529976adf991302dfa3e250f9012103953693d18de91dfb7a04391cefbb1483892dbe50be3e48f1b2fac83301e3dd78", "asm": "3045022100b49d27be72bfa82420e1d7e700a849fe8e3dfe6f83a6124e5cec1fe8ece6bd7802200e676ea0be5b3fafe8d0313272c996c85581672529976adf991302dfa3e250f9[ALL] 03953693d18de91dfb7a04391cefbb1483892dbe50be3e48f1b2fac83301e3dd78"}, "vout": 0, "txid": "0d38f6473cb62ed010b04d78c57dca4e42476ce1bce48ca07540a20157ebdbc5"}], "txid": "6f9f2311fadaa1cd250a1c67af9ebfce0037039cb54dbebdd5fafb72b48f78be", "blocktime": 1537869901, "version": 2, "confirmations": 11524, "time": 1537869901, "locktime": 542987, "vsize": 2474, "size": 2647}