{"hash": "6fa5a6f6286625b3e0e391011cbe7aebc6e9490ca652396ea8f2b9d73c6ca002", "blockhash": "0000000000000000001e0dab787dd257d1dbfcb92a98c2207d5e1078be1f4165", "vout": [{"scriptPubKey": {"reqSigs": 1, "hex": "a914dcc70fdad6ef7feb246756a688e9a3e8f272779c87", "addresses": ["3MpP3p3uLH9zSDewDzS5Lserpo141ZFbhS"], "asm": "OP_HASH160 dcc70fdad6ef7feb246756a688e9a3e8f272779c OP_EQUAL", "type": "scripthash"}, "value": 0.00039056, "n": 0}, {"scriptPubKey": {"reqSigs": 1, "hex": "76a9148ae6d899a46f6a6485ce22cc69b28c13b08571ac88ac", "addresses": ["1DfSnwYbeghE12xRV9DF5hui3omb8PsDkZ"], "asm": "OP_DUP OP_HASH160 8ae6d899a46f6a6485ce22cc69b28c13b08571ac OP_EQUALVERIFY OP_CHECKSIG", "type": "pubkeyhash"}, "value": 0.00346379, "n": 1}], "hex": "0200000001a7145a0e351940a6623c454ce9ef205093c44f791830fa9aaea7b2118aa60940030000006b483045022100996ed24ed726cda1c88ba9071a76ce833ccb0e3b0aabd5047fa85138c9aebaa002202a0d78b1f00bf60b2cd28f5a04ed38cdee477b5c20d9b41ae2f6600d4212a8cc0121026326f8c3793ad2898952a2a8f115735e37e2889ae737cfbab1251cb14f04771affffffff02909800000000000017a914dcc70fdad6ef7feb246756a688e9a3e8f272779c870b490500000000001976a9148ae6d899a46f6a6485ce22cc69b28c13b08571ac88ac00000000", "vin": [{"sequence": 4294967295, "scriptSig": {"hex": "483045022100996ed24ed726cda1c88ba9071a76ce833ccb0e3b0aabd5047fa85138c9aebaa002202a0d78b1f00bf60b2cd28f5a04ed38cdee477b5c20d9b41ae2f6600d4212a8cc0121026326f8c3793ad2898952a2a8f115735e37e2889ae737cfbab1251cb14f04771a", "asm": "3045022100996ed24ed726cda1c88ba9071a76ce833ccb0e3b0aabd5047fa85138c9aebaa002202a0d78b1f00bf60b2cd28f5a04ed38cdee477b5c20d9b41ae2f6600d4212a8cc[ALL] 026326f8c3793ad2898952a2a8f115735e37e2889ae737cfbab1251cb14f04771a"}, "vout": 3, "txid": "4009a68a11b2a7ae9afa3018794fc4935020efe94c453c62a64019350e5a14a7"}], "txid": "6fa5a6f6286625b3e0e391011cbe7aebc6e9490ca652396ea8f2b9d73c6ca002", "blocktime": 1537872475, "version": 2, "confirmations": 11486, "time": 1537872475, "locktime": 0, "vsize": 224, "size": 224}