{"hash": "6fa8b476299f24e823228bf54058766c2bd411e47b98aa33958a3319e6faaeb0", "blockhash": "0000000000000000001cda96e906b7601b7a6fb1a3b62bca570a9e5d8f4b3de1", "vout": [{"scriptPubKey": {"reqSigs": 1, "hex": "76a914187b63a44037ed4878c07780db6360c8a6c89f4d88ac", "addresses": ["13ET2qadYs1TBPgRft9uL7MNtXSvLTmgLw"], "asm": "OP_DUP OP_HASH160 187b63a44037ed4878c07780db6360c8a6c89f4d OP_EQUALVERIFY OP_CHECKSIG", "type": "pubkeyhash"}, "value": 0.00467317, "n": 0}, {"scriptPubKey": {"reqSigs": 1, "hex": "76a914d8f1996d039c45a02d6524dcd2dd2beb295bab9288ac", "addresses": ["1Ln6P3vWpmNosqkwcYBBcfvhUsnQMcrFi9"], "asm": "OP_DUP OP_HASH160 d8f1996d039c45a02d6524dcd2dd2beb295bab92 OP_EQUALVERIFY OP_CHECKSIG", "type": "pubkeyhash"}, "value": 0.0089909, "n": 1}], "hex": "0100000001bec262841694ec08e2202231084cb59178cea574713a1e17fae28a6b1e79971d010000006a473044022100acf7fb6cac1b2304810227924ee5345693e3f766ea091fc1205cf9c166f6260f021f20ce00bd038966f2864bb92bc9f6909a317436c0768f6b994a700536180af601210233880323d1604c1fba19e5c24299628b98e83b56ba6fe4501d80f2b4a0f453e7ffffffff0275210700000000001976a914187b63a44037ed4878c07780db6360c8a6c89f4d88ac12b80d00000000001976a914d8f1996d039c45a02d6524dcd2dd2beb295bab9288ac00000000", "vin": [{"sequence": 4294967295, "scriptSig": {"hex": "473044022100acf7fb6cac1b2304810227924ee5345693e3f766ea091fc1205cf9c166f6260f021f20ce00bd038966f2864bb92bc9f6909a317436c0768f6b994a700536180af601210233880323d1604c1fba19e5c24299628b98e83b56ba6fe4501d80f2b4a0f453e7", "asm": "3044022100acf7fb6cac1b2304810227924ee5345693e3f766ea091fc1205cf9c166f6260f021f20ce00bd038966f2864bb92bc9f6909a317436c0768f6b994a700536180af6[ALL] 0233880323d1604c1fba19e5c24299628b98e83b56ba6fe4501d80f2b4a0f453e7"}, "vout": 1, "txid": "1d97791e6b8ae2fa171e3a7174a5ce7891b54c08312220e208ec94168462c2be"}], "txid": "6fa8b476299f24e823228bf54058766c2bd411e47b98aa33958a3319e6faaeb0", "blocktime": 1537873282, "version": 1, "confirmations": 11484, "time": 1537873282, "locktime": 0, "vsize": 225, "size": 225}