{"hash": "a4c0440982dff26970eedc4d58a942b2e10ceff1704e9c62c55291619723f4b7", "blockhash": "0000000000000000001f76057863aec43deb6fa401d9628bb513d65a8098bfab", "vout": [{"scriptPubKey": {"reqSigs": 1, "hex": "001425988cc27183c360f2b93bd277a9d1dd51efe6d9", "addresses": ["bc1qykvgesn3s0pkpu4e80f802w3m4g7lekea3z0zs"], "asm": "0 25988cc27183c360f2b93bd277a9d1dd51efe6d9", "type": "witness_v0_keyhash"}, "value": 0.02999671, "n": 0}, {"scriptPubKey": {"reqSigs": 1, "hex": "a914e7c669057046659d902d892bb4da8b348930ab4c87", "addresses": ["3NpXheAstYDdauUyAV58jtfErxa2Mg4aYU"], "asm": "OP_HASH160 e7c669057046659d902d892bb4da8b348930ab4c OP_EQUAL", "type": "scripthash"}, "value": 0.001, "n": 1}], "hex": "01000000000101c28faca293c9628ceee9992d0d59823589f3489b8ca60111804647fd839efdd50000000000ffffffff0277c52d000000000016001425988cc27183c360f2b93bd277a9d1dd51efe6d9a08601000000000017a914e7c669057046659d902d892bb4da8b348930ab4c87024830450221008c4bb04e7f03487b34f148db1a7d818b2a32fb575251005b7da918dd9fb8880802203860788ed6be0b95d7c2339f4bf99075cb284266073bbeaa29c31967deefb1b8012103f5df451f5a1d20f757aa76140612e6336b26b3afd5df456d0b92661e3d71eaa600000000", "vin": [{"txinwitness": ["30450221008c4bb04e7f03487b34f148db1a7d818b2a32fb575251005b7da918dd9fb8880802203860788ed6be0b95d7c2339f4bf99075cb284266073bbeaa29c31967deefb1b801", "03f5df451f5a1d20f757aa76140612e6336b26b3afd5df456d0b92661e3d71eaa6"], "sequence": 4294967295, "scriptSig": {"hex": "", "asm": ""}, "vout": 0, "txid": "d5fd9e83fd4746801101a68c9b48f3893582590d2d99e9ee8c62c993a2ac8fc2"}], "txid": "6faaebfb7b2f33f97b7801c8bb244bba8881721abe10eea55ff176808e764043", "blocktime": 1537873891, "version": 1, "confirmations": 11479, "time": 1537873891, "locktime": 0, "vsize": 142, "size": 224}