{"hash": "6fae3e52c58933a27a6931c89fd70648f1d2f08ca02c18d9003e7ff2d40c48fd", "blockhash": "00000000000000000024a2167bbff67b0be802c0b01cdd79e6331c2be6459f87", "vout": [{"scriptPubKey": {"reqSigs": 1, "hex": "76a9145fe256baa8df6963b811bec23d44722d940d8c6388ac", "addresses": ["19jzLX4y7nvsA43N6Qjw8wnHkUnDhj6Hsz"], "asm": "OP_DUP OP_HASH160 5fe256baa8df6963b811bec23d44722d940d8c63 OP_EQUALVERIFY OP_CHECKSIG", "type": "pubkeyhash"}, "value": 0.00527829, "n": 0}, {"scriptPubKey": {"reqSigs": 1, "hex": "a91447bad95c675a53343283d1f15446c03a71b7d1b087", "addresses": ["38EHjfVQWhQVPdHYydnfLNCduvhfY994y8"], "asm": "OP_HASH160 47bad95c675a53343283d1f15446c03a71b7d1b0 OP_EQUAL", "type": "scripthash"}, "value": 0.009819, "n": 1}], "hex": "01000000028c861349427022a9ec28975ce8706e687ad76d5f33cf83b302d90804f435109d020000006a47304402200196572d77bef9b33530105f8ed6d9029c21860595bbc077346c2d9576a16ff90220623a6c724b78751ad7d7bd8419f4d26936014b65b0d9edd7dc8f0ea72265d93c012103a1a2856444a626f7f0dc8e3240b8e178c34423e0a290791b3b8c5ed471ea8fc4ffffffffe8202c34762e215be255dcf632fa28e61f73857d3435e5eba58b6dadccb4b2b4090000006a47304402200889f3b775ea3780da2e46f3fe5279d0cd966369f79fe46d16d473174113fb230220044f9faf727e8e1f4aec97cadc66b618c9332bfb3bbf2b073effa3edf78e2aaa012103fb0c9ecc0767bfd94277b8052f7d983a5535f4fb7dfc73cfe9b6cb7df0abdbd8ffffffff02d50d0800000000001976a9145fe256baa8df6963b811bec23d44722d940d8c6388ac8cfb0e000000000017a91447bad95c675a53343283d1f15446c03a71b7d1b08700000000", "vin": [{"sequence": 4294967295, "scriptSig": {"hex": "47304402200196572d77bef9b33530105f8ed6d9029c21860595bbc077346c2d9576a16ff90220623a6c724b78751ad7d7bd8419f4d26936014b65b0d9edd7dc8f0ea72265d93c012103a1a2856444a626f7f0dc8e3240b8e178c34423e0a290791b3b8c5ed471ea8fc4", "asm": "304402200196572d77bef9b33530105f8ed6d9029c21860595bbc077346c2d9576a16ff90220623a6c724b78751ad7d7bd8419f4d26936014b65b0d9edd7dc8f0ea72265d93c[ALL] 03a1a2856444a626f7f0dc8e3240b8e178c34423e0a290791b3b8c5ed471ea8fc4"}, "vout": 2, "txid": "9d1035f40408d902b383cf335f6dd77a686e70e85c9728eca92270424913868c"}, {"sequence": 4294967295, "scriptSig": {"hex": "47304402200889f3b775ea3780da2e46f3fe5279d0cd966369f79fe46d16d473174113fb230220044f9faf727e8e1f4aec97cadc66b618c9332bfb3bbf2b073effa3edf78e2aaa012103fb0c9ecc0767bfd94277b8052f7d983a5535f4fb7dfc73cfe9b6cb7df0abdbd8", "asm": "304402200889f3b775ea3780da2e46f3fe5279d0cd966369f79fe46d16d473174113fb230220044f9faf727e8e1f4aec97cadc66b618c9332bfb3bbf2b073effa3edf78e2aaa[ALL] 03fb0c9ecc0767bfd94277b8052f7d983a5535f4fb7dfc73cfe9b6cb7df0abdbd8"}, "vout": 9, "txid": "b4b2b4ccad6d8ba5ebe535347d85731fe628fa32f6dc55e25b212e76342c20e8"}], "txid": "6fae3e52c58933a27a6931c89fd70648f1d2f08ca02c18d9003e7ff2d40c48fd", "blocktime": 1537870564, "version": 1, "confirmations": 11515, "time": 1537870564, "locktime": 0, "vsize": 370, "size": 370}