{"hash": "6fae8416bef3e806557d50c062f4753c26dfc3308d3dc4b6a05d2af9c33e382e", "blockhash": "0000000000000000000dcc0f55137456b1a82d3642486a52398922ac4d620174", "vout": [{"scriptPubKey": {"reqSigs": 1, "hex": "a914d1e0cbee24a712ca04d94ee968f02689e409466187", "addresses": ["3LpkSn5hpMtgdVyTPLuHZKitMEnUcvCsCg"], "asm": "OP_HASH160 d1e0cbee24a712ca04d94ee968f02689e4094661 OP_EQUAL", "type": "scripthash"}, "value": 0.0054, "n": 0}, {"scriptPubKey": {"reqSigs": 1, "hex": "76a914994fc7ccc0ecd0f0da468435e4ab679cb054b39188ac", "addresses": ["1EydxbTjTGjirY21trmiXJWgPVGEovuWte"], "asm": "OP_DUP OP_HASH160 994fc7ccc0ecd0f0da468435e4ab679cb054b391 OP_EQUALVERIFY OP_CHECKSIG", "type": "pubkeyhash"}, "value": 0.00125428, "n": 1}], "hex": "0100000001b6c85eca69b1b0b2b9a03e18f7dcd5be16d896c07f694bdc6fdde7d1b6beb0b8010000006b483045022100c5053f1fd75b2e91f15af76bc742796bbc8121afdedd4541cc382e7a3949ae20022068ed7cb27570414082ea3b3852c0a35ab6c398f3793e8280f94e33e2aa12178f01210256d483ddd316e0e82c8f38051c56ac197bf7b7ff7ae4b03ead2d54a517bff91dffffffff02603d08000000000017a914d1e0cbee24a712ca04d94ee968f02689e409466187f4e90100000000001976a914994fc7ccc0ecd0f0da468435e4ab679cb054b39188ac00000000", "vin": [{"sequence": 4294967295, "scriptSig": {"hex": "483045022100c5053f1fd75b2e91f15af76bc742796bbc8121afdedd4541cc382e7a3949ae20022068ed7cb27570414082ea3b3852c0a35ab6c398f3793e8280f94e33e2aa12178f01210256d483ddd316e0e82c8f38051c56ac197bf7b7ff7ae4b03ead2d54a517bff91d", "asm": "3045022100c5053f1fd75b2e91f15af76bc742796bbc8121afdedd4541cc382e7a3949ae20022068ed7cb27570414082ea3b3852c0a35ab6c398f3793e8280f94e33e2aa12178f[ALL] 0256d483ddd316e0e82c8f38051c56ac197bf7b7ff7ae4b03ead2d54a517bff91d"}, "vout": 1, "txid": "b8b0beb6d1e7dd6fdc4b697fc096d816bed5dcf7183ea0b9b2b0b169ca5ec8b6"}], "txid": "6fae8416bef3e806557d50c062f4753c26dfc3308d3dc4b6a05d2af9c33e382e", "blocktime": 1537870268, "version": 1, "confirmations": 11516, "time": 1537870268, "locktime": 0, "vsize": 224, "size": 224}