{"hash": "6fb2df9f7ce9f3c80c97c5ccc7bc81b617c2344e56c9eceab465bf6e1ad6851a", "blockhash": "0000000000000000001cda96e906b7601b7a6fb1a3b62bca570a9e5d8f4b3de1", "vout": [{"scriptPubKey": {"reqSigs": 1, "hex": "76a9143d5d896021734204e05378a29c393251fca8fdd788ac", "addresses": ["16bUGjvunVp7LqygLHrTvHyvbvfeuRCWAh"], "asm": "OP_DUP OP_HASH160 3d5d896021734204e05378a29c393251fca8fdd7 OP_EQUALVERIFY OP_CHECKSIG", "type": "pubkeyhash"}, "value": 0.00548222, "n": 0}, {"scriptPubKey": {"reqSigs": 1, "hex": "76a91489586d13d7d3b6a9b6bd5d0522415d67f118f75a88ac", "addresses": ["1DXDWEW8RuPajCenvrzCQKEvNDqtboTZiv"], "asm": "OP_DUP OP_HASH160 89586d13d7d3b6a9b6bd5d0522415d67f118f75a OP_EQUALVERIFY OP_CHECKSIG", "type": "pubkeyhash"}, "value": 5.46e-06, "n": 1}, {"scriptPubKey": {"type": "nulldata", "hex": "6a146f6d6e69000000000000001f000003b540230200", "asm": "OP_RETURN 6f6d6e69000000000000001f000003b540230200"}, "value": 0.0, "n": 2}], "hex": "010000000119308b782719e35187d9a2fb841d49d36b0dfba8ce545233ffe17dd30eac70db000000006b483045022100ae67ab2ba05e435fa9e3fa5072ba3062d6948c31c9767cc86e2b1ace6762052702207bb4ebfd38c177ab36d8e33918ab33d221817bf15dcd651924d4436780a687b1012103486fea7a6ac64066aad0880cdef75a12efb8ef02a17201aa5e09388afaa6c3bbffffffff037e5d0800000000001976a9143d5d896021734204e05378a29c393251fca8fdd788ac22020000000000001976a91489586d13d7d3b6a9b6bd5d0522415d67f118f75a88ac0000000000000000166a146f6d6e69000000000000001f000003b54023020000000000", "vin": [{"sequence": 4294967295, "scriptSig": {"hex": "483045022100ae67ab2ba05e435fa9e3fa5072ba3062d6948c31c9767cc86e2b1ace6762052702207bb4ebfd38c177ab36d8e33918ab33d221817bf15dcd651924d4436780a687b1012103486fea7a6ac64066aad0880cdef75a12efb8ef02a17201aa5e09388afaa6c3bb", "asm": "3045022100ae67ab2ba05e435fa9e3fa5072ba3062d6948c31c9767cc86e2b1ace6762052702207bb4ebfd38c177ab36d8e33918ab33d221817bf15dcd651924d4436780a687b1[ALL] 03486fea7a6ac64066aad0880cdef75a12efb8ef02a17201aa5e09388afaa6c3bb"}, "vout": 0, "txid": "db70ac0ed37de1ff335254cea8fb0d6bd3491d84fba2d98751e31927788b3019"}], "txid": "6fb2df9f7ce9f3c80c97c5ccc7bc81b617c2344e56c9eceab465bf6e1ad6851a", "blocktime": 1537873282, "version": 1, "confirmations": 11481, "time": 1537873282, "locktime": 0, "vsize": 257, "size": 257}