{"hash": "6fbac0458e938e516f19a2cedbbf867f0d6dfd1f7d22c6d22ac82edc884ee968", "blockhash": "00000000000000000017f5eb5941039fbcee6240d03bc1f2f8e35350df66a1d8", "vout": [{"scriptPubKey": {"reqSigs": 1, "hex": "76a914c807028fc366576c100fb18b10a25b111f1df55188ac", "addresses": ["1KEeYRw1wxaZvq2VZfMCN6CfdYbMMVzYe4"], "asm": "OP_DUP OP_HASH160 c807028fc366576c100fb18b10a25b111f1df551 OP_EQUALVERIFY OP_CHECKSIG", "type": "pubkeyhash"}, "value": 0.006254, "n": 0}, {"scriptPubKey": {"reqSigs": 1, "hex": "76a9141f5eef2375b876cc70c3f8896475473e83d6e2e188ac", "addresses": ["13rsg5zY31V9DTmmPpUmTmr7iz85awyCHA"], "asm": "OP_DUP OP_HASH160 1f5eef2375b876cc70c3f8896475473e83d6e2e1 OP_EQUALVERIFY OP_CHECKSIG", "type": "pubkeyhash"}, "value": 0.44493229, "n": 1}], "hex": "0100000001112c29109adcd88b328119ef98afe0b72ff71630b80eefadb0c1265cd19a60bb010000006b483045022100c6810214b9139adf497568c8e017790ce5e1da66351102cd4cec4a14bd97575c022036768e6215643ef0ff43d092cabf3b66449a2d49ee84cdf8e770ccacc8656d530121022baf0bdb3dbfe38de6fcca527ed85479b63bc24185ddebbdb54f64dbf6762a4effffffff02f88a0900000000001976a914c807028fc366576c100fb18b10a25b111f1df55188acade9a602000000001976a9141f5eef2375b876cc70c3f8896475473e83d6e2e188ac00000000", "vin": [{"sequence": 4294967295, "scriptSig": {"hex": "483045022100c6810214b9139adf497568c8e017790ce5e1da66351102cd4cec4a14bd97575c022036768e6215643ef0ff43d092cabf3b66449a2d49ee84cdf8e770ccacc8656d530121022baf0bdb3dbfe38de6fcca527ed85479b63bc24185ddebbdb54f64dbf6762a4e", "asm": "3045022100c6810214b9139adf497568c8e017790ce5e1da66351102cd4cec4a14bd97575c022036768e6215643ef0ff43d092cabf3b66449a2d49ee84cdf8e770ccacc8656d53[ALL] 022baf0bdb3dbfe38de6fcca527ed85479b63bc24185ddebbdb54f64dbf6762a4e"}, "vout": 1, "txid": "bb609ad15c26c1b0adef0eb83016f72fb7e0af98ef1981328bd8dc9a10292c11"}], "txid": "6fbac0458e938e516f19a2cedbbf867f0d6dfd1f7d22c6d22ac82edc884ee968", "blocktime": 1537874412, "version": 1, "confirmations": 11467, "time": 1537874412, "locktime": 0, "vsize": 226, "size": 226}