{"hash": "6fc0089e65979ae7e51054c8a60e6e8a42b161169ac56fa2f95b9ec7cbf71c82", "blockhash": "0000000000000000000e13cef7c366c0283d82e591d1acd082e914b08063cdf1", "vout": [{"scriptPubKey": {"reqSigs": 1, "hex": "76a91454e992a09002040bcf0e8b96d9b12dff9fe2109788ac", "addresses": ["18jya2xinWPbFhA1hW8ed19t11KKco68j8"], "asm": "OP_DUP OP_HASH160 54e992a09002040bcf0e8b96d9b12dff9fe21097 OP_EQUALVERIFY OP_CHECKSIG", "type": "pubkeyhash"}, "value": 0.078135, "n": 0}, {"scriptPubKey": {"reqSigs": 1, "hex": "76a9144fff33b98c4639e0bbcba351e1c3c7ef1645922188ac", "addresses": ["18Hz6uRhhgMS4k5soDM27mFPUj6dCx2sdu"], "asm": "OP_DUP OP_HASH160 4fff33b98c4639e0bbcba351e1c3c7ef16459221 OP_EQUALVERIFY OP_CHECKSIG", "type": "pubkeyhash"}, "value": 0.88019982, "n": 1}], "hex": "010000000157a426f91768df2ad96e019e1b6f22ff5614697628deaafe9fb32a1a898be8cc010000006b483045022100e4ceee5f61fa1e1f2febcda82c0e74dd6f4f80a001d7a02668194bc1d41e9f5802201cb6ee6716df5baa2858c7187f7022ad5a87b3fd1b07d4ea14ebc3cf6e425efb0121022b23f50740ac196c3210b49771898285a22f41d3bb10b6731e11395696300147ffffffff027c397700000000001976a91454e992a09002040bcf0e8b96d9b12dff9fe2109788ac0e143f05000000001976a9144fff33b98c4639e0bbcba351e1c3c7ef1645922188ac00000000", "vin": [{"sequence": 4294967295, "scriptSig": {"hex": "483045022100e4ceee5f61fa1e1f2febcda82c0e74dd6f4f80a001d7a02668194bc1d41e9f5802201cb6ee6716df5baa2858c7187f7022ad5a87b3fd1b07d4ea14ebc3cf6e425efb0121022b23f50740ac196c3210b49771898285a22f41d3bb10b6731e11395696300147", "asm": "3045022100e4ceee5f61fa1e1f2febcda82c0e74dd6f4f80a001d7a02668194bc1d41e9f5802201cb6ee6716df5baa2858c7187f7022ad5a87b3fd1b07d4ea14ebc3cf6e425efb[ALL] 022b23f50740ac196c3210b49771898285a22f41d3bb10b6731e11395696300147"}, "vout": 1, "txid": "cce88b891a2ab39ffeaade2876691456ff226f1b9e016ed92adf6817f926a457"}], "txid": "6fc0089e65979ae7e51054c8a60e6e8a42b161169ac56fa2f95b9ec7cbf71c82", "blocktime": 1537871767, "version": 1, "confirmations": 11495, "time": 1537871767, "locktime": 0, "vsize": 226, "size": 226}