{"hash": "7fb5d2046add9a4840850c2442b1cff195e4d345b19639180efc17731db7bae3", "blockhash": "0000000000000000001f0ddff1eddb255c1121bcd4da4f1bc9a0da00cae72433", "vout": [{"scriptPubKey": {"reqSigs": 1, "hex": "76a9149a1b8f9b1fa2d2297863adb1cb11c71df455684888ac", "addresses": ["1F3r5We2zwNiSzG6GQUTTWnnPMCz2HJbJu"], "asm": "OP_DUP OP_HASH160 9a1b8f9b1fa2d2297863adb1cb11c71df4556848 OP_EQUALVERIFY OP_CHECKSIG", "type": "pubkeyhash"}, "value": 2.735e-05, "n": 0}, {"scriptPubKey": {"reqSigs": 1, "hex": "a914e8db75c900cf08f06518e96d167331f2a4abfb3387", "addresses": ["3NvFbQMAkkqEFj4i1sYPPLkSWzxTFUchjA"], "asm": "OP_HASH160 e8db75c900cf08f06518e96d167331f2a4abfb33 OP_EQUAL", "type": "scripthash"}, "value": 0.00046073, "n": 1}], "hex": "01000000000101d123ebc776c230c15191f4e080b49e6c58b386208cca9b6a8319d28c048827b40000000023220020941cfaff8837763dc1f69ff82b6d6553fdea17a41cfc29a04403293eedd8ccc7ffffffff02af0a0000000000001976a9149a1b8f9b1fa2d2297863adb1cb11c71df455684888acf9b300000000000017a914e8db75c900cf08f06518e96d167331f2a4abfb33870400473044022007c8d26f85d35fbb7fade7d215a8c215bbbf37f1e01ecd8140a3e0a1e27746c002204152b798a208b71402b36e0d79ba7117ec188745b3be5bb1b26fbdae7750f967014830450221009c89b78f243d92eabc95168f4a77fcefac0b7eb34490e7bf9af0ba8d77296ec502204c550b19351cbfcb3265aad0e6b9c172c2ce4fc63a457e104bd0faa9cb1e3f3c0147522102531db3a5883f29bab4241dd0cd726936667bcda445d89bdd22244e828b6993342103148c80a5bdfddb05ff5bcffc397c8ca748d8b435ec6a175bc9d7bfc7fc6f853752ae00000000", "vin": [{"txinwitness": ["", "3044022007c8d26f85d35fbb7fade7d215a8c215bbbf37f1e01ecd8140a3e0a1e27746c002204152b798a208b71402b36e0d79ba7117ec188745b3be5bb1b26fbdae7750f96701", "30450221009c89b78f243d92eabc95168f4a77fcefac0b7eb34490e7bf9af0ba8d77296ec502204c550b19351cbfcb3265aad0e6b9c172c2ce4fc63a457e104bd0faa9cb1e3f3c01", "522102531db3a5883f29bab4241dd0cd726936667bcda445d89bdd22244e828b6993342103148c80a5bdfddb05ff5bcffc397c8ca748d8b435ec6a175bc9d7bfc7fc6f853752ae"], "sequence": 4294967295, "scriptSig": {"hex": "220020941cfaff8837763dc1f69ff82b6d6553fdea17a41cfc29a04403293eedd8ccc7", "asm": "0020941cfaff8837763dc1f69ff82b6d6553fdea17a41cfc29a04403293eedd8ccc7"}, "vout": 0, "txid": "b42788048cd219836a9bca8c2086b3586c9eb480e0f49151c130c276c7eb23d1"}], "txid": "6fc21649c31a3a138f8f84064707ce9947aa2d812912e6ea61b30553e431406f", "blocktime": 1537872018, "version": 1, "confirmations": 11489, "time": 1537872018, "locktime": 0, "vsize": 208, "size": 373}