{"hash": "6fcd1a015fd7662f3b657ae2e7c254f67bf815b173d34e3d80d81dbec5afac3a", "blockhash": "0000000000000000001f0ddff1eddb255c1121bcd4da4f1bc9a0da00cae72433", "vout": [{"scriptPubKey": {"reqSigs": 1, "hex": "76a9146ed0613bfc600f8239a60168fd4b8953a99f528c88ac", "addresses": ["1B6vxawXJAQLyDu3GVcpsMWF8eH5WMLJKb"], "asm": "OP_DUP OP_HASH160 6ed0613bfc600f8239a60168fd4b8953a99f528c OP_EQUALVERIFY OP_CHECKSIG", "type": "pubkeyhash"}, "value": 0.01640356, "n": 0}, {"scriptPubKey": {"reqSigs": 1, "hex": "00141ecf1c64917d8d02cd8d4ecd8a52383f2cdaf73f", "addresses": ["bc1qrm83cey30kxs9nvdfmxc553c8ukd4aelk3q9fh"], "asm": "0 1ecf1c64917d8d02cd8d4ecd8a52383f2cdaf73f", "type": "witness_v0_keyhash"}, "value": 0.0018459, "n": 1}], "hex": "01000000017cb217c6c365006d74932651ebe727e725a82e0079a821fe3a67032f72bfaf9d5b0000006a473044022100c160c299555a6f621229b7fcb346d99aa7ba32b7c7578093bd77b2ed33a2605d021f73844b13d683e4049d4c857fb828d79613112a5776dd4a32c333755631687501210291a882355f8b0050fefe6866f19c610083ac876f2074815419796c07382d319affffffff02a4071900000000001976a9146ed0613bfc600f8239a60168fd4b8953a99f528c88ac0ed10200000000001600141ecf1c64917d8d02cd8d4ecd8a52383f2cdaf73f00000000", "vin": [{"sequence": 4294967295, "scriptSig": {"hex": "473044022100c160c299555a6f621229b7fcb346d99aa7ba32b7c7578093bd77b2ed33a2605d021f73844b13d683e4049d4c857fb828d79613112a5776dd4a32c333755631687501210291a882355f8b0050fefe6866f19c610083ac876f2074815419796c07382d319a", "asm": "3044022100c160c299555a6f621229b7fcb346d99aa7ba32b7c7578093bd77b2ed33a2605d021f73844b13d683e4049d4c857fb828d79613112a5776dd4a32c3337556316875[ALL] 0291a882355f8b0050fefe6866f19c610083ac876f2074815419796c07382d319a"}, "vout": 91, "txid": "9dafbf722f03673afe21a879002ea825e727e7eb512693746d0065c3c617b27c"}], "txid": "6fcd1a015fd7662f3b657ae2e7c254f67bf815b173d34e3d80d81dbec5afac3a", "blocktime": 1537872018, "version": 1, "confirmations": 11489, "time": 1537872018, "locktime": 0, "vsize": 222, "size": 222}