{"hash": "6fd1ccffeb28c12cdae0da9fd289e23b91793a48fffab41df70495b1bf1fd9ec", "blockhash": "00000000000000000018f53835495a110e01622372bf6ae95dc86f2b0ab887b0", "vout": [{"scriptPubKey": {"reqSigs": 1, "hex": "76a914a5684da7dfc2f6469691ac1cbe870f51640054e388ac", "addresses": ["1G5bSmyCnWDrfdD9an5nnZpUYr9c5MSyRB"], "asm": "OP_DUP OP_HASH160 a5684da7dfc2f6469691ac1cbe870f51640054e3 OP_EQUALVERIFY OP_CHECKSIG", "type": "pubkeyhash"}, "value": 0.01336044, "n": 0}, {"scriptPubKey": {"reqSigs": 1, "hex": "76a914adbdce8b9cab351d1cefced1b8e8947096d6b9f688ac", "addresses": ["1GqfHCLt9YCWTofY1zAWSw4DV6cWy7BDom"], "asm": "OP_DUP OP_HASH160 adbdce8b9cab351d1cefced1b8e8947096d6b9f6 OP_EQUALVERIFY OP_CHECKSIG", "type": "pubkeyhash"}, "value": 0.0272, "n": 1}], "hex": "0100000002465d9e4fd55cafc8c3aae200f60868b51ae5e329d77f6a13f7430e802ea77d38000000006a47304402207de7136901c88658968930cc153ce8f8f5924b0a8c676145560d9c892d8c0cbf022049482356d8ebb83540b31f0ba1898a67fb276973da5abb4664feee1a90493dec012102e05a1d3f3668b2f2be4edac5f7ee518286ab8977f99f462efd6eb6b5fd08ff8cfdffffffcc2ec4927d52aa44f621eaa03e6dedacb2cd7aca8321d80d6707ce36e1c49888010000006b483045022100ca77c5c960bbb6f5ca3bbee5d3d839f1b121b49d8900525b586750842689f5d70220173c48206a74f2e012e4213700ff796ae5ee2128ad6aca472fbead1b78407fa0012103d481cd0218ed75cd58d6c9a9e920021283a4806e9fec39f47a771353167ff4e3fdffffff02ec621400000000001976a914a5684da7dfc2f6469691ac1cbe870f51640054e388ac00812900000000001976a914adbdce8b9cab351d1cefced1b8e8947096d6b9f688ac0e490800", "vin": [{"sequence": 4294967293, "scriptSig": {"hex": "47304402207de7136901c88658968930cc153ce8f8f5924b0a8c676145560d9c892d8c0cbf022049482356d8ebb83540b31f0ba1898a67fb276973da5abb4664feee1a90493dec012102e05a1d3f3668b2f2be4edac5f7ee518286ab8977f99f462efd6eb6b5fd08ff8c", "asm": "304402207de7136901c88658968930cc153ce8f8f5924b0a8c676145560d9c892d8c0cbf022049482356d8ebb83540b31f0ba1898a67fb276973da5abb4664feee1a90493dec[ALL] 02e05a1d3f3668b2f2be4edac5f7ee518286ab8977f99f462efd6eb6b5fd08ff8c"}, "vout": 0, "txid": "387da72e800e43f7136a7fd729e3e51ab56808f600e2aac3c8af5cd54f9e5d46"}, {"sequence": 4294967293, "scriptSig": {"hex": "483045022100ca77c5c960bbb6f5ca3bbee5d3d839f1b121b49d8900525b586750842689f5d70220173c48206a74f2e012e4213700ff796ae5ee2128ad6aca472fbead1b78407fa0012103d481cd0218ed75cd58d6c9a9e920021283a4806e9fec39f47a771353167ff4e3", "asm": "3045022100ca77c5c960bbb6f5ca3bbee5d3d839f1b121b49d8900525b586750842689f5d70220173c48206a74f2e012e4213700ff796ae5ee2128ad6aca472fbead1b78407fa0[ALL] 03d481cd0218ed75cd58d6c9a9e920021283a4806e9fec39f47a771353167ff4e3"}, "vout": 1, "txid": "8898c4e136ce07670dd82183ca7acdb2aced6d3ea0ea21f644aa527d92c42ecc"}], "txid": "6fd1ccffeb28c12cdae0da9fd289e23b91793a48fffab41df70495b1bf1fd9ec", "blocktime": 1537870928, "version": 1, "confirmations": 11512, "time": 1537870928, "locktime": 542990, "vsize": 373, "size": 373}