{"hash": "6fd8a75c6db750e0d4cf1b03be9471502b544d072b5fea39c6278103625f6b8a", "blockhash": "0000000000000000000dcc0f55137456b1a82d3642486a52398922ac4d620174", "vout": [{"scriptPubKey": {"reqSigs": 1, "hex": "a9140d11dc225b9922f8eefc1e135f247511f706d78b87", "addresses": ["32t86xvsACSLLkF85aJ46q38BB2n8799xz"], "asm": "OP_HASH160 0d11dc225b9922f8eefc1e135f247511f706d78b OP_EQUAL", "type": "scripthash"}, "value": 0.00816, "n": 0}, {"scriptPubKey": {"reqSigs": 1, "hex": "76a914f36c2a476ec7fa563f56b4a7b80876a02a711aff88ac", "addresses": ["1PC6n4ZMJtCQtbMStVcFfsAwKdooTHcgcG"], "asm": "OP_DUP OP_HASH160 f36c2a476ec7fa563f56b4a7b80876a02a711aff OP_EQUALVERIFY OP_CHECKSIG", "type": "pubkeyhash"}, "value": 0.08303433, "n": 1}], "hex": "01000000010ebc21134450f334ddc21155f39e141f711d9668cfabab3f7d8c042b0e89ba91070000006a47304402203a16f95d3bd30087f0e1b7ac36bc3ddc01397718763afd658e9b124928832b2702200e5063b24748ebd755e302281233c58c58c2dfb4122a712e91d51aa5e1c2fec3012102b8d31672063bb53316ffb8c411acbcee145b97ac23f53674ae59094c94d759b0ffffffff0280730c000000000017a9140d11dc225b9922f8eefc1e135f247511f706d78b8749b37e00000000001976a914f36c2a476ec7fa563f56b4a7b80876a02a711aff88ac00000000", "vin": [{"sequence": 4294967295, "scriptSig": {"hex": "47304402203a16f95d3bd30087f0e1b7ac36bc3ddc01397718763afd658e9b124928832b2702200e5063b24748ebd755e302281233c58c58c2dfb4122a712e91d51aa5e1c2fec3012102b8d31672063bb53316ffb8c411acbcee145b97ac23f53674ae59094c94d759b0", "asm": "304402203a16f95d3bd30087f0e1b7ac36bc3ddc01397718763afd658e9b124928832b2702200e5063b24748ebd755e302281233c58c58c2dfb4122a712e91d51aa5e1c2fec3[ALL] 02b8d31672063bb53316ffb8c411acbcee145b97ac23f53674ae59094c94d759b0"}, "vout": 7, "txid": "91ba890e2b048c7d3fababcf68961d711f149ef35511c2dd34f350441321bc0e"}], "txid": "6fd8a75c6db750e0d4cf1b03be9471502b544d072b5fea39c6278103625f6b8a", "blocktime": 1537870268, "version": 1, "confirmations": 11518, "time": 1537870268, "locktime": 0, "vsize": 223, "size": 223}