{"hash": "6fd922af87f6c3101367f49454c3383f88b4b6e89073c3d0cd675f1120edb03a", "blockhash": "00000000000000000018f53835495a110e01622372bf6ae95dc86f2b0ab887b0", "vout": [{"scriptPubKey": {"reqSigs": 1, "hex": "76a914c994c7b01dfdba04c7670418282e237ebe1f878c88ac", "addresses": ["1KNs3ybG1n1Ghr1E7K6FC6LeDn74V5uXwZ"], "asm": "OP_DUP OP_HASH160 c994c7b01dfdba04c7670418282e237ebe1f878c OP_EQUALVERIFY OP_CHECKSIG", "type": "pubkeyhash"}, "value": 0.08988433, "n": 0}, {"scriptPubKey": {"reqSigs": 1, "hex": "a9147143df3c8bee94366b8c09c5a1e5eaf1eb2ef58787", "addresses": ["3C1ub3uz1F6jAL7KAZiQTjFbLb1MLeqbmw"], "asm": "OP_HASH160 7143df3c8bee94366b8c09c5a1e5eaf1eb2ef587 OP_EQUAL", "type": "scripthash"}, "value": 0.24832336, "n": 1}], "hex": "02000000012df71fbbd13a033414de1faad0c6ab1e000066304df49533e1ded30abad0419d020000006a4730440220306573f21faa18bf5df998e100101c343fede8d7a551f914d2fe12bf31472b92022002513c6c1fb40a078ccb08948d8a4f0ff6456a17594e240aff42b0c33fd039080121026cc2ac1e1c366e8cbf0504ef94d5a019d111f9a304e48495a5e4644f669a9751feffffff0211278900000000001976a914c994c7b01dfdba04c7670418282e237ebe1f878c88ac50e97a010000000017a9147143df3c8bee94366b8c09c5a1e5eaf1eb2ef587870e490800", "vin": [{"sequence": 4294967294, "scriptSig": {"hex": "4730440220306573f21faa18bf5df998e100101c343fede8d7a551f914d2fe12bf31472b92022002513c6c1fb40a078ccb08948d8a4f0ff6456a17594e240aff42b0c33fd039080121026cc2ac1e1c366e8cbf0504ef94d5a019d111f9a304e48495a5e4644f669a9751", "asm": "30440220306573f21faa18bf5df998e100101c343fede8d7a551f914d2fe12bf31472b92022002513c6c1fb40a078ccb08948d8a4f0ff6456a17594e240aff42b0c33fd03908[ALL] 026cc2ac1e1c366e8cbf0504ef94d5a019d111f9a304e48495a5e4644f669a9751"}, "vout": 2, "txid": "9d41d0ba0ad3dee13395f44d306600001eabc6d0aa1fde1434033ad1bb1ff72d"}], "txid": "6fd922af87f6c3101367f49454c3383f88b4b6e89073c3d0cd675f1120edb03a", "blocktime": 1537870928, "version": 2, "confirmations": 11514, "time": 1537870928, "locktime": 542990, "vsize": 223, "size": 223}