{"hash": "6fdbbccb04d2ccde527edb7fe689e81cf03167a43f95af6f3ce39fd29669621e", "blockhash": "0000000000000000001e0dab787dd257d1dbfcb92a98c2207d5e1078be1f4165", "vout": [{"scriptPubKey": {"reqSigs": 1, "hex": "76a914c0144a122117007b25e039413fef69b05f92115388ac", "addresses": ["1JWd3ZSwyoC6V9m7jMT6NgyHQB7wQr7swq"], "asm": "OP_DUP OP_HASH160 c0144a122117007b25e039413fef69b05f921153 OP_EQUALVERIFY OP_CHECKSIG", "type": "pubkeyhash"}, "value": 0.00488731, "n": 0}, {"scriptPubKey": {"type": "nulldata", "hex": "6a146f6d6e69000000000000001f00000016ce7ed8a0", "asm": "OP_RETURN 6f6d6e69000000000000001f00000016ce7ed8a0"}, "value": 0.0, "n": 1}, {"scriptPubKey": {"reqSigs": 1, "hex": "76a914a25dec4d0011064ef106a983c39c7a540699f22088ac", "addresses": ["1FoWyxwPXuj4C6abqwhjDWdz6D4PZgYRjA"], "asm": "OP_DUP OP_HASH160 a25dec4d0011064ef106a983c39c7a540699f220 OP_EQUALVERIFY OP_CHECKSIG", "type": "pubkeyhash"}, "value": 5.46e-06, "n": 2}], "hex": "01000000027b8c9a1aabfdcdb7963cf1091c5615fb11d4b5efad030681df165adb7da1ea13020000006a473044022070cf7ac0559bbe470f65451882b6aa7f15f45d6ffac6a6b0cb3d30ce13432d05022026d18361e8747693a2f8ed64d380b84dd79f25f9bf7a86326e828a1850e3cc4b012103dad387b2e397fdf389d213370d4b85bdb4b579756a0653453b2c5ab5898115fefeffffff5efe48737e49c6a956cb401b40f1b5358658d19cba5d0befff25f1b010bf47f7010000006b483045022100fb115cf27ca070f98fcc80362ce20fa93504d2fd9404cd924b33f9c86290fd9502203f15aca08fc38d07e68af73d9cbb89d83ebadad9acae916070496ee4442951f1012103dad387b2e397fdf389d213370d4b85bdb4b579756a0653453b2c5ab5898115fefeffffff031b750700000000001976a914c0144a122117007b25e039413fef69b05f92115388ac0000000000000000166a146f6d6e69000000000000001f00000016ce7ed8a022020000000000001976a914a25dec4d0011064ef106a983c39c7a540699f22088ac12490800", "vin": [{"sequence": 4294967294, "scriptSig": {"hex": "473044022070cf7ac0559bbe470f65451882b6aa7f15f45d6ffac6a6b0cb3d30ce13432d05022026d18361e8747693a2f8ed64d380b84dd79f25f9bf7a86326e828a1850e3cc4b012103dad387b2e397fdf389d213370d4b85bdb4b579756a0653453b2c5ab5898115fe", "asm": "3044022070cf7ac0559bbe470f65451882b6aa7f15f45d6ffac6a6b0cb3d30ce13432d05022026d18361e8747693a2f8ed64d380b84dd79f25f9bf7a86326e828a1850e3cc4b[ALL] 03dad387b2e397fdf389d213370d4b85bdb4b579756a0653453b2c5ab5898115fe"}, "vout": 2, "txid": "13eaa17ddb5a16df810603adefb5d411fb15561c09f13c96b7cdfdab1a9a8c7b"}, {"sequence": 4294967294, "scriptSig": {"hex": "483045022100fb115cf27ca070f98fcc80362ce20fa93504d2fd9404cd924b33f9c86290fd9502203f15aca08fc38d07e68af73d9cbb89d83ebadad9acae916070496ee4442951f1012103dad387b2e397fdf389d213370d4b85bdb4b579756a0653453b2c5ab5898115fe", "asm": "3045022100fb115cf27ca070f98fcc80362ce20fa93504d2fd9404cd924b33f9c86290fd9502203f15aca08fc38d07e68af73d9cbb89d83ebadad9acae916070496ee4442951f1[ALL] 03dad387b2e397fdf389d213370d4b85bdb4b579756a0653453b2c5ab5898115fe"}, "vout": 1, "txid": "f747bf10b0f125ffef0b5dba9cd1588635b5f1401b40cb56a9c6497e7348fe5e"}], "txid": "6fdbbccb04d2ccde527edb7fe689e81cf03167a43f95af6f3ce39fd29669621e", "blocktime": 1537872475, "version": 1, "confirmations": 11487, "time": 1537872475, "locktime": 542994, "vsize": 404, "size": 404}