{"hash": "6fe17f49c5d5fd237dba6698af1ddd981c56810b1f43803ffe197ec5d7f38c17", "blockhash": "0000000000000000000baef3f32e3676a92c3b2e5da21b426e4f302fc371ce76", "vout": [{"scriptPubKey": {"reqSigs": 1, "hex": "76a914b1413b7c561eb4c439fa77f96d073c489d89afa488ac", "addresses": ["1HAEkNwNNVPtiNW48ipCiSnKNBQ2zn85iU"], "asm": "OP_DUP OP_HASH160 b1413b7c561eb4c439fa77f96d073c489d89afa4 OP_EQUALVERIFY OP_CHECKSIG", "type": "pubkeyhash"}, "value": 0.00100766, "n": 0}, {"scriptPubKey": {"reqSigs": 1, "hex": "76a914e163d073e054266d0f5e025eebd6100b0c946b5b88ac", "addresses": ["1MYkcNyCtPmxivKoMy5v5VBkv6LuBrgrAy"], "asm": "OP_DUP OP_HASH160 e163d073e054266d0f5e025eebd6100b0c946b5b OP_EQUALVERIFY OP_CHECKSIG", "type": "pubkeyhash"}, "value": 0.05919138, "n": 1}], "hex": "010000000194be120bb63c46d045047dacbb661f7b03c40e47b92ef4be4e8248bdb8e94a5c010000006a473044022013c730ff6ff0a30ef3ed692a5714bf10c1dd4ceec1808e11732b02d94058b70d02200d07df820b624c18b955ade991fa42eec35e5b8c25bd2adac232670d66ec4e300121033387315522fd785dc6a3184e4f2acbd937f90409a105c06583c94e6554220085ffffffff029e890100000000001976a914b1413b7c561eb4c439fa77f96d073c489d89afa488aca2515a00000000001976a914e163d073e054266d0f5e025eebd6100b0c946b5b88ac00000000", "vin": [{"sequence": 4294967295, "scriptSig": {"hex": "473044022013c730ff6ff0a30ef3ed692a5714bf10c1dd4ceec1808e11732b02d94058b70d02200d07df820b624c18b955ade991fa42eec35e5b8c25bd2adac232670d66ec4e300121033387315522fd785dc6a3184e4f2acbd937f90409a105c06583c94e6554220085", "asm": "3044022013c730ff6ff0a30ef3ed692a5714bf10c1dd4ceec1808e11732b02d94058b70d02200d07df820b624c18b955ade991fa42eec35e5b8c25bd2adac232670d66ec4e30[ALL] 033387315522fd785dc6a3184e4f2acbd937f90409a105c06583c94e6554220085"}, "vout": 1, "txid": "5c4ae9b8bd48824ebef42eb9470ec4037b1f66bbac7d0445d0463cb60b12be94"}], "txid": "6fe17f49c5d5fd237dba6698af1ddd981c56810b1f43803ffe197ec5d7f38c17", "blocktime": 1537876114, "version": 1, "confirmations": 11459, "time": 1537876114, "locktime": 0, "vsize": 225, "size": 225}