{"hash": "6fe2167e16bfdbe06ff8359c85ba0372d323b4906ddff6c0818c788d7eae2a65", "blockhash": "0000000000000000000dcc0f55137456b1a82d3642486a52398922ac4d620174", "vout": [{"scriptPubKey": {"reqSigs": 1, "hex": "76a9148a412debe85f79cfbc8b02158601c02a5fd1119f88ac", "addresses": ["1Dc2LDVXrtxTi6yPoJK495fBTStpVZLYdJ"], "asm": "OP_DUP OP_HASH160 8a412debe85f79cfbc8b02158601c02a5fd1119f OP_EQUALVERIFY OP_CHECKSIG", "type": "pubkeyhash"}, "value": 0.00093196, "n": 0}, {"scriptPubKey": {"reqSigs": 1, "hex": "a914fcd7272cd73fd2cdc9808c08ebd7bbfc5c1b417d87", "addresses": ["3QjuwymDYu1RxGeKL4JeVikYZLLcVrueNt"], "asm": "OP_HASH160 fcd7272cd73fd2cdc9808c08ebd7bbfc5c1b417d OP_EQUAL", "type": "scripthash"}, "value": 4.66, "n": 1}], "hex": "010000000154160147b3e77b6f56287ba571d78870ab9bd7bbdc31e7c25138b5501f647a91000000006b483045022100c5c187be081348df0ff4158b4d4c79538b61a37a0154133650a877c90a7fc1a7022008057c56368acb432956b2c5dc326fd44072d1f9dd4ff3c25548ca4f68648384012102b601fa0c7ffc30e74f666b701e2064c630c0e2edbee3adbccbd1941af76348ddffffffff020c6c0100000000001976a9148a412debe85f79cfbc8b02158601c02a5fd1119f88ac8098c61b0000000017a914fcd7272cd73fd2cdc9808c08ebd7bbfc5c1b417d8700000000", "vin": [{"sequence": 4294967295, "scriptSig": {"hex": "483045022100c5c187be081348df0ff4158b4d4c79538b61a37a0154133650a877c90a7fc1a7022008057c56368acb432956b2c5dc326fd44072d1f9dd4ff3c25548ca4f68648384012102b601fa0c7ffc30e74f666b701e2064c630c0e2edbee3adbccbd1941af76348dd", "asm": "3045022100c5c187be081348df0ff4158b4d4c79538b61a37a0154133650a877c90a7fc1a7022008057c56368acb432956b2c5dc326fd44072d1f9dd4ff3c25548ca4f68648384[ALL] 02b601fa0c7ffc30e74f666b701e2064c630c0e2edbee3adbccbd1941af76348dd"}, "vout": 0, "txid": "917a641f50b53851c2e731dcbbd79bab7088d771a57b28566f7be7b347011654"}], "txid": "6fe2167e16bfdbe06ff8359c85ba0372d323b4906ddff6c0818c788d7eae2a65", "blocktime": 1537870268, "version": 1, "confirmations": 11518, "time": 1537870268, "locktime": 0, "vsize": 224, "size": 224}