{"hash": "6fe5bc02592b88c052338aee863b875ddfb1775853fc9c73c59d59ec0c44edc3", "blockhash": "0000000000000000000dcc0f55137456b1a82d3642486a52398922ac4d620174", "vout": [{"scriptPubKey": {"reqSigs": 1, "hex": "a91477baa03889cc3e51b8e5ecbb2d081319bf71142f87", "addresses": ["3Cc5uN4DSHj6SiT2TPFVUHa1BTyxV69XD6"], "asm": "OP_HASH160 77baa03889cc3e51b8e5ecbb2d081319bf71142f OP_EQUAL", "type": "scripthash"}, "value": 0.00739192, "n": 0}, {"scriptPubKey": {"reqSigs": 1, "hex": "76a91440b7c740424798ae51e3a6627e0560a3e963558c88ac", "addresses": ["16uCQRJS15436dQmV9VrmC17Njw7hEnTBd"], "asm": "OP_DUP OP_HASH160 40b7c740424798ae51e3a6627e0560a3e963558c OP_EQUALVERIFY OP_CHECKSIG", "type": "pubkeyhash"}, "value": 0.15724797, "n": 1}], "hex": "0100000001f445ac27fe8921d4369a0616018341b432e743b5c162f72828a3a4fa6fc7adba010000006a473044022014de5c7d59118b96fdeb2317e18afd64ed7ad7cef2cb1c002bbba6e7d266c3e7022030d390b15be8565e51e3e78cf3761c91a046d14731685bcb55dfd684b6856d4401210309d85221f4e84c5c5284853b6ce565a3afcaff98d9459e63e0ab54999f6f3cc3ffffffff0278470b000000000017a91477baa03889cc3e51b8e5ecbb2d081319bf71142f87fdf0ef00000000001976a91440b7c740424798ae51e3a6627e0560a3e963558c88ac00000000", "vin": [{"sequence": 4294967295, "scriptSig": {"hex": "473044022014de5c7d59118b96fdeb2317e18afd64ed7ad7cef2cb1c002bbba6e7d266c3e7022030d390b15be8565e51e3e78cf3761c91a046d14731685bcb55dfd684b6856d4401210309d85221f4e84c5c5284853b6ce565a3afcaff98d9459e63e0ab54999f6f3cc3", "asm": "3044022014de5c7d59118b96fdeb2317e18afd64ed7ad7cef2cb1c002bbba6e7d266c3e7022030d390b15be8565e51e3e78cf3761c91a046d14731685bcb55dfd684b6856d44[ALL] 0309d85221f4e84c5c5284853b6ce565a3afcaff98d9459e63e0ab54999f6f3cc3"}, "vout": 1, "txid": "baadc76ffaa4a32828f762c1b543e732b441830116069a36d42189fe27ac45f4"}], "txid": "6fe5bc02592b88c052338aee863b875ddfb1775853fc9c73c59d59ec0c44edc3", "blocktime": 1537870268, "version": 1, "confirmations": 11516, "time": 1537870268, "locktime": 0, "vsize": 223, "size": 223}