{"hash": "30a641d0162334d82df2e45b6728c421694e3a17d62aa1e47cebe846a1ded926", "blockhash": "00000000000000000017f5eb5941039fbcee6240d03bc1f2f8e35350df66a1d8", "vout": [{"scriptPubKey": {"reqSigs": 1, "hex": "76a91448e7177d967105cd2cda2afd6a4cbf3678787fe288ac", "addresses": ["17eUVMEG8XC3f1X6n9nUjEvdq4QjHdBq1m"], "asm": "OP_DUP OP_HASH160 48e7177d967105cd2cda2afd6a4cbf3678787fe2 OP_EQUALVERIFY OP_CHECKSIG", "type": "pubkeyhash"}, "value": 0.001887, "n": 0}, {"scriptPubKey": {"reqSigs": 1, "hex": "a9149649ad6d2730bb28020a268d9d80df10a9f74ad487", "addresses": ["3FPfYWwfMfKMGY7fuPHvz2b73RhTNGzsm3"], "asm": "OP_HASH160 9649ad6d2730bb28020a268d9d80df10a9f74ad4 OP_EQUAL", "type": "scripthash"}, "value": 13.81184876, "n": 1}], "hex": "010000000001017ab2d4209ebcfcfad646257ff98635501333e0be1ea481b83ee10e8c3421d3c501000000232200207768efcc1e5eb3d28410fac3f45831004c860cc24cddd940a616b34324823fceffffffff021ce10200000000001976a91448e7177d967105cd2cda2afd6a4cbf3678787fe288ac6c3553520000000017a9149649ad6d2730bb28020a268d9d80df10a9f74ad4870400483045022100dbcbcb5fece8c1edba2753989467ce959f1b5beaabb3e656eb4674e55a0efa9d0220663bf320f1c55952f3ebddb8855219a1ddbf3d298da42f1343f7366648124acd014730440220223d8521cf92ab4f4cae099dd8acb53e1714ff3054768bb2dabb9542518b607002203485a8f57181ac2461c7c6cf3a4c9f8841def56087c1fd1d37cd1d52f2be888d0147522102529d5d1f6733ab45d9d50e07db42c7f6b967ae321c38b726c2247f149959b8262103d0c936a5988dd8421c63240496b723b0ec42400c38b9350e32c2eb4f47d8796952ae00000000", "vin": [{"txinwitness": ["", "3045022100dbcbcb5fece8c1edba2753989467ce959f1b5beaabb3e656eb4674e55a0efa9d0220663bf320f1c55952f3ebddb8855219a1ddbf3d298da42f1343f7366648124acd01", "30440220223d8521cf92ab4f4cae099dd8acb53e1714ff3054768bb2dabb9542518b607002203485a8f57181ac2461c7c6cf3a4c9f8841def56087c1fd1d37cd1d52f2be888d01", "522102529d5d1f6733ab45d9d50e07db42c7f6b967ae321c38b726c2247f149959b8262103d0c936a5988dd8421c63240496b723b0ec42400c38b9350e32c2eb4f47d8796952ae"], "sequence": 4294967295, "scriptSig": {"hex": "2200207768efcc1e5eb3d28410fac3f45831004c860cc24cddd940a616b34324823fce", "asm": "00207768efcc1e5eb3d28410fac3f45831004c860cc24cddd940a616b34324823fce"}, "vout": 1, "txid": "c5d321348c0ee13eb881a41ebee03313503586f97f2546d6fafcbc9e20d4b27a"}], "txid": "6ff90649f6086b85cf455668f20fcc118a52ab041feae96d5b6ce6a0eb8b05c5", "blocktime": 1537874412, "version": 1, "confirmations": 11468, "time": 1537874412, "locktime": 0, "vsize": 208, "size": 373}