{"hash": "70035bb82567a8fd1804d8a6df38397e3a42837839d3e9200bb20562aa7e7679", "blockhash": "0000000000000000000baef3f32e3676a92c3b2e5da21b426e4f302fc371ce76", "vout": [{"scriptPubKey": {"reqSigs": 1, "hex": "76a914062478c1f7edf31c7ace324ec81eaf9533b7c24c88ac", "addresses": ["1ZUkFVKxMDhLe69gtkAF5cMEWdEu3oyfe"], "asm": "OP_DUP OP_HASH160 062478c1f7edf31c7ace324ec81eaf9533b7c24c OP_EQUALVERIFY OP_CHECKSIG", "type": "pubkeyhash"}, "value": 0.00314409, "n": 0}, {"scriptPubKey": {"reqSigs": 1, "hex": "76a91402730d2cbddd6fe6ea63c4060a41f7bcb087039c88ac", "addresses": ["1DxBJNambc3kHYzCFxTFWVGhbvKfaetHE"], "asm": "OP_DUP OP_HASH160 02730d2cbddd6fe6ea63c4060a41f7bcb087039c OP_EQUALVERIFY OP_CHECKSIG", "type": "pubkeyhash"}, "value": 0.022, "n": 1}], "hex": "0100000002a231463a2282f1ec517d72c6556383469a2acd83ff6167b021ee1d8886c12f7e000000006b483045022100868e135459fd922a9c9d04f980bf8445c10340e13bf1e952530e976fe195f7f302207fc376a7d5463c08032e5a923ce77d64e425c62a2e10674e8b104dd50c567b160121020521f168414f01f0cdc958e0e0ef866e2a985b32ed3a020e1d7e8a6627fc56b3ffffffffd26b16b998eae5a9ee05660257da7baca000325489e8c5b376a140f85e210e8d010000006a473044022015690dd68871b1d6c67ba5bc488fa5969a97d00a7309fe9be0ea61ad6198b96302206f348cde28a6c80335a3fe9be89051f017d49595976ce8180e2355532586b7f80121033c918b48faf9b2373578eec763d9a0bc408f44f09caf641f37579c85f5548715ffffffff0229cc0400000000001976a914062478c1f7edf31c7ace324ec81eaf9533b7c24c88acc0912100000000001976a91402730d2cbddd6fe6ea63c4060a41f7bcb087039c88ac00000000", "vin": [{"sequence": 4294967295, "scriptSig": {"hex": "483045022100868e135459fd922a9c9d04f980bf8445c10340e13bf1e952530e976fe195f7f302207fc376a7d5463c08032e5a923ce77d64e425c62a2e10674e8b104dd50c567b160121020521f168414f01f0cdc958e0e0ef866e2a985b32ed3a020e1d7e8a6627fc56b3", "asm": "3045022100868e135459fd922a9c9d04f980bf8445c10340e13bf1e952530e976fe195f7f302207fc376a7d5463c08032e5a923ce77d64e425c62a2e10674e8b104dd50c567b16[ALL] 020521f168414f01f0cdc958e0e0ef866e2a985b32ed3a020e1d7e8a6627fc56b3"}, "vout": 0, "txid": "7e2fc186881dee21b06761ff83cd2a9a46836355c6727d51ecf182223a4631a2"}, {"sequence": 4294967295, "scriptSig": {"hex": "473044022015690dd68871b1d6c67ba5bc488fa5969a97d00a7309fe9be0ea61ad6198b96302206f348cde28a6c80335a3fe9be89051f017d49595976ce8180e2355532586b7f80121033c918b48faf9b2373578eec763d9a0bc408f44f09caf641f37579c85f5548715", "asm": "3044022015690dd68871b1d6c67ba5bc488fa5969a97d00a7309fe9be0ea61ad6198b96302206f348cde28a6c80335a3fe9be89051f017d49595976ce8180e2355532586b7f8[ALL] 033c918b48faf9b2373578eec763d9a0bc408f44f09caf641f37579c85f5548715"}, "vout": 1, "txid": "8d0e215ef840a176b3c5e889543200a0ac7bda57026605eea9e5ea98b9166bd2"}], "txid": "70035bb82567a8fd1804d8a6df38397e3a42837839d3e9200bb20562aa7e7679", "blocktime": 1537876114, "version": 1, "confirmations": 11460, "time": 1537876114, "locktime": 0, "vsize": 373, "size": 373}