{"hash": "5c595cf67c4392cd7b8e4703cc811a119f8580689ab186d06ee64722784d968b", "blockhash": "00000000000000000018f53835495a110e01622372bf6ae95dc86f2b0ab887b0", "vout": [{"scriptPubKey": {"reqSigs": 1, "hex": "a91419a7e1d214e7ac434797ae325b83a3ba3175739487", "addresses": ["342fvzZBDxQfpmNvuFcfMXxjp5rwCzJ8xf"], "asm": "OP_HASH160 19a7e1d214e7ac434797ae325b83a3ba31757394 OP_EQUAL", "type": "scripthash"}, "value": 0.004343, "n": 0}, {"scriptPubKey": {"reqSigs": 1, "hex": "a914e88c882de8309d85d18237f466df8c1cdf224fde87", "addresses": ["3Ntd3Nxvprns1msBPbc1gUvAGxM8cFsc6m"], "asm": "OP_HASH160 e88c882de8309d85d18237f466df8c1cdf224fde OP_EQUAL", "type": "scripthash"}, "value": 0.250271, "n": 1}], "hex": "01000000000101a13b0f6c08a9ddeb890ef2d8802fd766d750eaad71db8ae8d3d4a2ddb97a2e4a0100000023220020aea7c69bbb1a3c0e708365c09954b81b75faf9f76efc493519b1ca14d1ea400effffffff027ca006000000000017a91419a7e1d214e7ac434797ae325b83a3ba31757394871ce27d010000000017a914e88c882de8309d85d18237f466df8c1cdf224fde870400473044022059689e9f124b72cb87965adee7bf6395d9f83a59e42645c61b4c8e179180c6e10220562339796dca5f2bdc52955c4df19f05cb5236dbf1377254ec9ae4e9d3a7bcc80147304402202942aa98aff840708e02f9f6651eefee80045fbd7614cd5c220a9f7f9470e87c02207a9e7efd590f92f46783022b5560d75e96932eaf71d85bd96a8728f1d41be2fa0169522102fb964677a998a24ed4d5f74b0072e5fa67a14c8c8ce9b9f39296f897cf887ade2102c811b0c81be729fcc594e347df290e3a90ce5735a2bd6ed42b17a2c936d7e3492103a6bc261992815654ddc0dae45eed1cce59e73498691625332ab33ff1f7b202cf53ae00000000", "vin": [{"txinwitness": ["", "3044022059689e9f124b72cb87965adee7bf6395d9f83a59e42645c61b4c8e179180c6e10220562339796dca5f2bdc52955c4df19f05cb5236dbf1377254ec9ae4e9d3a7bcc801", "304402202942aa98aff840708e02f9f6651eefee80045fbd7614cd5c220a9f7f9470e87c02207a9e7efd590f92f46783022b5560d75e96932eaf71d85bd96a8728f1d41be2fa01", "522102fb964677a998a24ed4d5f74b0072e5fa67a14c8c8ce9b9f39296f897cf887ade2102c811b0c81be729fcc594e347df290e3a90ce5735a2bd6ed42b17a2c936d7e3492103a6bc261992815654ddc0dae45eed1cce59e73498691625332ab33ff1f7b202cf53ae"], "sequence": 4294967295, "scriptSig": {"hex": "220020aea7c69bbb1a3c0e708365c09954b81b75faf9f76efc493519b1ca14d1ea400e", "asm": "0020aea7c69bbb1a3c0e708365c09954b81b75faf9f76efc493519b1ca14d1ea400e"}, "vout": 1, "txid": "4a2e7ab9dda2d4d3e88adb71adea50d766d72f80d8f20e89ebdda9086c0f3ba1"}], "txid": "700404fbbd5ac4cdf5c895479d315df66711f6322d39ef55f6f75ee8af4bdc57", "blocktime": 1537870928, "version": 1, "confirmations": 11514, "time": 1537870928, "locktime": 0, "vsize": 214, "size": 404}