{"hash": "7bcfc3726f84f66fe05a78a5f769b4e874ddc88773599b0cdda1065ee4b78303", "blockhash": "0000000000000000001f0ddff1eddb255c1121bcd4da4f1bc9a0da00cae72433", "vout": [{"scriptPubKey": {"reqSigs": 1, "hex": "a9141351ee133c86182b2752489265282016bcf0212087", "addresses": ["33TAunPebSYzVC7AV8w3Z8AmU62g3wQHXt"], "asm": "OP_HASH160 1351ee133c86182b2752489265282016bcf02120 OP_EQUAL", "type": "scripthash"}, "value": 1.41004077, "n": 0}, {"scriptPubKey": {"reqSigs": 1, "hex": "a914c1a92f569566bb1582ac35c8b815ce83a279644787", "addresses": ["3KM11jvxeLqXqGrtfqmYcFqYKtWw5dX7d4"], "asm": "OP_HASH160 c1a92f569566bb1582ac35c8b815ce83a2796447 OP_EQUAL", "type": "scripthash"}, "value": 0.06788489, "n": 1}], "hex": "02000000000101fa0688d26e76191b3ea619b56327407dd6284f0f16559bd9ee0146c7b7d01b2a01000000171600144a6caedb8137baa615d0f1f95466afb606c94450ffffffff022d8d67080000000017a9141351ee133c86182b2752489265282016bcf0212087899567000000000017a914c1a92f569566bb1582ac35c8b815ce83a27964478702473044022032b847dfd20b5a8910da127251d7fa7d79a0c7ad2be0bbdfd945fe50d2d12c3d0220749e0d169b0e4518719e1cf3549a06f6948e3267d4d228476b6a08bf8fdacd2f0121036c1208e919a3ee754367493c82f8c2783386df6048b880f216deda9e288b97bf00000000", "vin": [{"txinwitness": ["3044022032b847dfd20b5a8910da127251d7fa7d79a0c7ad2be0bbdfd945fe50d2d12c3d0220749e0d169b0e4518719e1cf3549a06f6948e3267d4d228476b6a08bf8fdacd2f01", "036c1208e919a3ee754367493c82f8c2783386df6048b880f216deda9e288b97bf"], "sequence": 4294967295, "scriptSig": {"hex": "1600144a6caedb8137baa615d0f1f95466afb606c94450", "asm": "00144a6caedb8137baa615d0f1f95466afb606c94450"}, "vout": 1, "txid": "2a1bd0b7c74601eed99b55160f4f28d67d402763b519a63e1b19766ed28806fa"}], "txid": "70066795bacc80d7c669ada3dcdaec1d8685281528bdfa87785bfb381c3c53f5", "blocktime": 1537872018, "version": 2, "confirmations": 11489, "time": 1537872018, "locktime": 0, "vsize": 166, "size": 247}