{"hash": "70097a7ac1a898a5384ad9c4b13f7fb832eb9b32407a34b35fc0565aceda6b30", "blockhash": "0000000000000000000e13cef7c366c0283d82e591d1acd082e914b08063cdf1", "vout": [{"scriptPubKey": {"reqSigs": 1, "hex": "76a9142165d396196da12c0c786765fbd790341b1e105b88ac", "addresses": ["143bHMu1dcdZmMCnt8UkP7yXRa1P8AfFGK"], "asm": "OP_DUP OP_HASH160 2165d396196da12c0c786765fbd790341b1e105b OP_EQUALVERIFY OP_CHECKSIG", "type": "pubkeyhash"}, "value": 0.00795984, "n": 0}, {"scriptPubKey": {"reqSigs": 1, "hex": "76a914686d31b826fc69901091115e91c426162fb5c6f088ac", "addresses": ["1AXA5u4EVxBUb8Yz3dDbrxNToivDF2Z866"], "asm": "OP_DUP OP_HASH160 686d31b826fc69901091115e91c426162fb5c6f0 OP_EQUALVERIFY OP_CHECKSIG", "type": "pubkeyhash"}, "value": 0.0085507, "n": 1}], "hex": "010000000161c926a978ac368d135891024480824ed0364b4365196c2297656f5e0b463fbe010000006b483045022100f48c8d33131e43817439b4a2febcd255a1e8aed32d22c4ee291b7cc03bc8ed7c02205c5551c3dabdfd9d38517439a4c261cddf931c90446a9fd4b0bb24cab405f0f2012102e45f1108064e0ba93b35912931608d40b90cd9cf098a811372454153c78cdc44ffffffff0250250c00000000001976a9142165d396196da12c0c786765fbd790341b1e105b88ac1e0c0d00000000001976a914686d31b826fc69901091115e91c426162fb5c6f088ac00000000", "vin": [{"sequence": 4294967295, "scriptSig": {"hex": "483045022100f48c8d33131e43817439b4a2febcd255a1e8aed32d22c4ee291b7cc03bc8ed7c02205c5551c3dabdfd9d38517439a4c261cddf931c90446a9fd4b0bb24cab405f0f2012102e45f1108064e0ba93b35912931608d40b90cd9cf098a811372454153c78cdc44", "asm": "3045022100f48c8d33131e43817439b4a2febcd255a1e8aed32d22c4ee291b7cc03bc8ed7c02205c5551c3dabdfd9d38517439a4c261cddf931c90446a9fd4b0bb24cab405f0f2[ALL] 02e45f1108064e0ba93b35912931608d40b90cd9cf098a811372454153c78cdc44"}, "vout": 1, "txid": "be3f460b5e6f6597226c1965434b36d04e828044029158138d36ac78a926c961"}], "txid": "70097a7ac1a898a5384ad9c4b13f7fb832eb9b32407a34b35fc0565aceda6b30", "blocktime": 1537871767, "version": 1, "confirmations": 11493, "time": 1537871767, "locktime": 0, "vsize": 226, "size": 226}