{"hash": "700ac8130ee93b797acd09f83ed3de7d73d0f072e6653d430f81c0da2c51595a", "blockhash": "0000000000000000001e0dab787dd257d1dbfcb92a98c2207d5e1078be1f4165", "vout": [{"scriptPubKey": {"reqSigs": 1, "hex": "76a9143d42d67556a495618a2ae8d775bb3e29673d04a988ac", "addresses": ["16avHfmXH4sQHr1zygF46QzFe2WF77Qe9A"], "asm": "OP_DUP OP_HASH160 3d42d67556a495618a2ae8d775bb3e29673d04a9 OP_EQUALVERIFY OP_CHECKSIG", "type": "pubkeyhash"}, "value": 0.00156178, "n": 0}, {"scriptPubKey": {"reqSigs": 1, "hex": "76a914aa9cdcdc6a59c2cdd6d17be4e5a5ddbfa1d54ce888ac", "addresses": ["1GZ7ndGWMRdzVMfxBeXNbygamtfi7vygAU"], "asm": "OP_DUP OP_HASH160 aa9cdcdc6a59c2cdd6d17be4e5a5ddbfa1d54ce8 OP_EQUALVERIFY OP_CHECKSIG", "type": "pubkeyhash"}, "value": 0.00361692, "n": 1}], "hex": "0100000001233b0cfdaed870d09167c1ad5b29f07c5e23e022b955e3def7d5a206e8c639f4010000006a473044022042bafeb33370e077383c4552119d2b06f6091fdefecf20125eb8cbd974e95311022010aa2bf80b7586b8bfaeefb7bdccb4418dd9bbba0721225013852452b0dd8d8d012103ab41f4d8dd4f39c6131032f228b4a1283886be560dbf499c592647b0b3987628ffffffff0212620200000000001976a9143d42d67556a495618a2ae8d775bb3e29673d04a988acdc840500000000001976a914aa9cdcdc6a59c2cdd6d17be4e5a5ddbfa1d54ce888ac00000000", "vin": [{"sequence": 4294967295, "scriptSig": {"hex": "473044022042bafeb33370e077383c4552119d2b06f6091fdefecf20125eb8cbd974e95311022010aa2bf80b7586b8bfaeefb7bdccb4418dd9bbba0721225013852452b0dd8d8d012103ab41f4d8dd4f39c6131032f228b4a1283886be560dbf499c592647b0b3987628", "asm": "3044022042bafeb33370e077383c4552119d2b06f6091fdefecf20125eb8cbd974e95311022010aa2bf80b7586b8bfaeefb7bdccb4418dd9bbba0721225013852452b0dd8d8d[ALL] 03ab41f4d8dd4f39c6131032f228b4a1283886be560dbf499c592647b0b3987628"}, "vout": 1, "txid": "f439c6e806a2d5f7dee355b922e0235e7cf0295badc16791d070d8aefd0c3b23"}], "txid": "700ac8130ee93b797acd09f83ed3de7d73d0f072e6653d430f81c0da2c51595a", "blocktime": 1537872475, "version": 1, "confirmations": 11486, "time": 1537872475, "locktime": 0, "vsize": 225, "size": 225}