{"hash": "700d9fa6ccd81122661f40dc3b845d54e473381c970bc2d693211ce35e2e4a54", "blockhash": "0000000000000000000e13cef7c366c0283d82e591d1acd082e914b08063cdf1", "vout": [{"scriptPubKey": {"reqSigs": 1, "hex": "76a914da7a21365dfed848faf1fe8ce06225920eac9fcd88ac", "addresses": ["1LvCcYRkmnvMuZkxAmW96pyDid95boGYcq"], "asm": "OP_DUP OP_HASH160 da7a21365dfed848faf1fe8ce06225920eac9fcd OP_EQUALVERIFY OP_CHECKSIG", "type": "pubkeyhash"}, "value": 0.01663601, "n": 0}, {"scriptPubKey": {"reqSigs": 1, "hex": "a9141c16faf82e0ef5d7f211c1c8d06dd1a44c83f29087", "addresses": ["34FYNcn7bWqh2kVrHrz6QExdBUEqdWJA8L"], "asm": "OP_HASH160 1c16faf82e0ef5d7f211c1c8d06dd1a44c83f290 OP_EQUAL", "type": "scripthash"}, "value": 0.00418518, "n": 1}], "hex": "0200000002179e6e62441a6e8ebe5a05f6077185c2f0e879568522b72eac2c7d023d6a446f870000006a473044022073a111fb879e94ac708377ddab66a0a7163962a7fa3a5cc2e56e6bc689725bdc022062f8d4be1061d35817ff9ae24504eedabf0d3f6bb66b79871e8ddfc585d762c801210383e7867d9102b792249d884ec6388eeefcd217a7a7bb2aed525a77eff8521196feffffff5c80581e06be9dd3358513208d0ee8b261e96997665138a0172e0633c8475270000000006b483045022100edbf1e7e52dfc017435e6d4a0006c8353e50b4b4eb8ad6e71121162d078f818b022058d0ccbb13a72d3c6b10a705004ef65758c0195d5f705c8b97beecc7c988d8b90121037c9a6ea42bf79be134fdee66ccce509564e2b1b145aac0db7bbe2a2d84d5ce0bfeffffff0271621900000000001976a914da7a21365dfed848faf1fe8ce06225920eac9fcd88acd66206000000000017a9141c16faf82e0ef5d7f211c1c8d06dd1a44c83f2908710490800", "vin": [{"sequence": 4294967294, "scriptSig": {"hex": "473044022073a111fb879e94ac708377ddab66a0a7163962a7fa3a5cc2e56e6bc689725bdc022062f8d4be1061d35817ff9ae24504eedabf0d3f6bb66b79871e8ddfc585d762c801210383e7867d9102b792249d884ec6388eeefcd217a7a7bb2aed525a77eff8521196", "asm": "3044022073a111fb879e94ac708377ddab66a0a7163962a7fa3a5cc2e56e6bc689725bdc022062f8d4be1061d35817ff9ae24504eedabf0d3f6bb66b79871e8ddfc585d762c8[ALL] 0383e7867d9102b792249d884ec6388eeefcd217a7a7bb2aed525a77eff8521196"}, "vout": 135, "txid": "6f446a3d027d2cac2eb722855679e8f0c2857107f6055abe8e6e1a44626e9e17"}, {"sequence": 4294967294, "scriptSig": {"hex": "483045022100edbf1e7e52dfc017435e6d4a0006c8353e50b4b4eb8ad6e71121162d078f818b022058d0ccbb13a72d3c6b10a705004ef65758c0195d5f705c8b97beecc7c988d8b90121037c9a6ea42bf79be134fdee66ccce509564e2b1b145aac0db7bbe2a2d84d5ce0b", "asm": "3045022100edbf1e7e52dfc017435e6d4a0006c8353e50b4b4eb8ad6e71121162d078f818b022058d0ccbb13a72d3c6b10a705004ef65758c0195d5f705c8b97beecc7c988d8b9[ALL] 037c9a6ea42bf79be134fdee66ccce509564e2b1b145aac0db7bbe2a2d84d5ce0b"}, "vout": 0, "txid": "705247c833062e17a03851669769e961b2e80e8d20138535d39dbe061e58805c"}], "txid": "700d9fa6ccd81122661f40dc3b845d54e473381c970bc2d693211ce35e2e4a54", "blocktime": 1537871767, "version": 2, "confirmations": 11490, "time": 1537871767, "locktime": 542992, "vsize": 371, "size": 371}