{"hash": "7018ca90c72067afb2dfeafead43a37386bdc6eac734a2a4d79d61f781f2dff9", "blockhash": "0000000000000000000e13cef7c366c0283d82e591d1acd082e914b08063cdf1", "vout": [{"scriptPubKey": {"reqSigs": 1, "hex": "76a91439b646fc27acd26cbca9dba69a6ed6fa00caf2ef88ac", "addresses": ["16G9snN68mxRUjgqwFx3nQebaSTBu62DnR"], "asm": "OP_DUP OP_HASH160 39b646fc27acd26cbca9dba69a6ed6fa00caf2ef OP_EQUALVERIFY OP_CHECKSIG", "type": "pubkeyhash"}, "value": 0.07668195, "n": 0}], "hex": "02000000138fb4268c9aeda7cd5d30c579cc251559403fca32955780dcd1c91899da70523b010000006b48304502210090c7d6826d9ea094bfb849eeb6b0098ff899424ba0afe725698756dc5d9d3c9002202c3f26333ceae4e089a6fc57a53ad01f7194a611c2585f8d4b442b85058f4032012102dd9989c65ed524629b0c811b1fff110b15a862121445c26a6f96386021701adaffffffff756e468a604eed68ff368a8a71ff08b1c67ad2df8d433c0b5a6aca8c4645d1f3000000006b483045022100ff7d4890ef681cbdc4792db603bb5f40c0b3bbdbdcf49df05a6f1a8671c1a80702204a576e076a948624097fdfbfa19b8aa085a0b6c5a1b01ba13dfc15852bb9040701210246b2b3a4c5d0d19b835daed13e89f601b569c5504af1d250ff7de80618747e9affffffff83f48c8f4136c4323a14a896593748e5c69e806ad3edae9e5cef4593e7f3c2b2000000006b483045022100dabe1b369d963e53be979cc54dc61855af5d3c0806fef9d0a5352ae202c586070220193f2fc84e09535c44cbf0e02fa13656e041c06ea64c0250b4927e034fb9aa150121037d0ec795978a9a180e31e55e9c3c7a8579222a80ffbd63ce71b34581d3f502e2ffffffffa7a16305c4218e924dc6e4fb595f1bdb05fbf9f5de91567171c2a361a995b392010000006b483045022100ddcceb941e253f2a6ac7d854497df5fbf875aca3e4bd0f766c31e56608cea1ae022059ffe9cd64ab125984f4d40c75e9372cc695167e9a2ca1b5278232b4f331246001210303929f44d5219b7cb7c4d302d99a68192e6bf44cb9fec9d8fd36039811f9ca12ffffffffa6650a9f67d2916df21f2552fe1ab8902867b2a84527854adb13e5b440daacb9010000006a47304402204e9e852d9969bc3191702990b5dccc3bd0e391aad43c0a2e567c50dd4a8b053302204e7ce2e4fa90861d665bbb568e6e53de9ae9055711a7fd88a57033b4a8f63b53012102ad361b662f03c982e976a1c7494eadc23f8fe55df6047e1a76a7bc2abaff4d1affffffffd09f3328c5dfdb300f49935211ccc51870faf168ac771bcc944d332b76067550010000006a4730440220059bae0f89df8707809c9d9ef760628843007a750c54533409da3ee32c9dcd6d02201cebaf8310392606e7dc1ecbc9e2bb4a7456c65641e406c266597f747d1b749a01210366472731dc3cd0b944282b40c212399db1b5042fb9e7204c8bf392a59936988cffffffffc80350280efa52a458c1ec414ecf0dae61524ccdd92698e58ddd55b0b9e331b0000000006a47304402204fd6f95452ec6e0df782df4f23329ff76b14f965a2f38353dacafb4e4b91d84e022028f16b1fda1c5f44958d067c4951ee917d72d3998759167b5dd242d9311deecc012103446b6d02881f60c8f5603d393c8d16aa7900750a389c0c4246a53b0026854292ffffffffd10b25478852e87e8bfd358cfc7c8ace9791e74c35837849dba2302eb9d6462a000000006b483045022100847b83cee904fbf73d294d55adfed5f49eb0ca7f70741d1aedaffb7b9bd3bd21022039420b72b5afd66f499e760b789fcdaca50bdb3291d78f05dcaa53008041b727012102b81cbecc8c973ac6655720c230542bd3b28f5061fc65c6b6c1d3cc2134d53ef2ffffffff52a5e96b5bf0e435917465b3612d1d83767131801e133e798151cfcb56c3e9db000000006b483045022100e090e2bcbd7e8d5b2f91cae66108bec35bdd28e439d1132db97bc8ea1ac3bf2a02207f352d8fafa2c9a333f4b3efe31b7d4446c08c029e859c1ec0f4675c7f14946f012102a75f22d104fedd6ca5fff3316ac25a7d243ada914f2d3f804224cdba5cca0201ffffffff19b4f59f0a41f8479a49d2700c89383235bb8bdc3ede3e5f767a3e122f7f0286000000006b48304502210095197062d77ceac3d2fa0b4506ff1da439fae193128bcee049e9776ebae77ec60220147eb0d85671c3f078a8c67ea2eb8d1b679746ad693c40132cc4ab3df1c5ea760121036c8e10f933ff469ad2cf9f242a174e74f7c9dc9283debf3dc28afa7023623ef3ffffffff6196dd996c91372f776746ab888676e9793b20bc3c2dface844f3650c16418aa040000006a4730440220259463223ca0bb039b239b5aafa374d48e8e6530f7e325a0799b6e168c7049780220096c2fa8fa1b8112143770a34d2aa76473329837d33399baab31225250a97f8c012103351d6a7cf49161430763b6462376c9945edcb18d37824e609f8f9f0da17723abffffffff8b06a22f1406656ca1ce898fcfbf601340ae9b234aece1ed0b4f657492a04c22040000006b483045022100c793047a62f6381bb2c0e96f269e07fa13dde236b615254942e8d26171e8e36b0220172482f70af9c10de529f2c9e19ef4c23a01c48b90fec690cee4bc99ac916bae012102aadb2c04162aaa2d918a30fd1a8dbb84818f50739d6928c1dd73063fe2f6c207ffffffffd89abfb08f22c20e527af161e69e07df45900a5e1af6d89f52918c639a6b1299080000006a4730440220314523febf9844e773ffb689600e0e1147ad6d0498cd818b5f076296bfc9b6af02201ea4528a722087fefd30af82a7e0cae41e46fe4ac27c93389d61443b61543d0c0121029cb4a08ee155ef659ee37909b1c8665f0901aa159a68e1d4f8b022691ab27f1effffffff4f1c91335824c7a1f44671bb6cd4e12205b4aa1fef7d7af324857e698fac80be000000006b483045022100da0163929e8d28c3bd2fcef28af092792091cf59e512a21ccf8caf75eff2b8c40220466dd84107071ec452c0abc97c7f7b853d08a62ec96daa226c8d2f983d88e93701210291caf3ba53aade3052fd32309310b47f6d8bba38d555d78225776d3478269765ffffffff878a8040ec0b2664def5703f036c3428dec0875718e0d924cb4aecd49473e066010000006b483045022100c5339d377ecca2e92bdd57f66f2d96626e704922282755432363301199c04d4d02200b84e7787c0fefc31fa46144eff9ed5ea651575183a466687cbb66e4c9a9e72a012103ea46f1caa209731cfcc478e7ba14e98c4c0343070b6879277ff6b7212fd6e8c1ffffffff85deaacf1f4c1b534b1e3af7b3b206435cf4e1853afb17b92fa6e75a990bb14a000000006a4730440220795dd99d31e60c81acaeb1deeb4d8497a1f243049417675a8f6ffaebcc9bf78e02204b2fac983284dcf5f8fbc46020a9a7b3c0dedc122cc143805b6f173704ffa8880121038beb438a736811e4e5dea84804a7327ef9af65493ba03a4ceb56a51d6530743fffffffffc7ea7ef25612bab8582da867e815f9344e184da3288a49f7dbc8d3fb419b691b000000006b483045022100de16bf84973824f71d7971186997155518722422346b8f5e74ea4602a4e76f02022031f5deff6a26c9cbfc4d0266d618aa4b21332271ee37486bcffae8f7f7336b330121033a13183566a37b76a40ba983379852d005a2dde7325b04ca44d0b865ac4ac044ffffffffa1659f142d053c9e86552d56e401df2d2f3e590b7c9205c81813dee20b0b75be000000006a47304402207fbf4f8adb2dadb870e076639eb4b69f657cb94908854983a97c60bca4b66be502207c2462112edf09ddb3e37b2c2a85dde3bce4e0dbab1f1728b019600eccd3df4c012103446b6d02881f60c8f5603d393c8d16aa7900750a389c0c4246a53b0026854292ffffffff8d00da94cb7fb2fe8eca4f00fccc29c162f6edb5e29e79a60011849e54965bea010000006a47304402202cf28db4910b33c26ac99e2aaaf55425ef78ee7a5e5232f2fa2ddcc73bbc916802201a657b4bf83285042d6da5a69ac507757b5a2c6176dc19837df4dd255fb78d8601210228a362006c26b22170afdc7ded2dc253d23cae8e83012622b593599d4865a9e0ffffffff01e3017500000000001976a91439b646fc27acd26cbca9dba69a6ed6fa00caf2ef88ac00000000", "vin": [{"sequence": 4294967295, "scriptSig": {"hex": "48304502210090c7d6826d9ea094bfb849eeb6b0098ff899424ba0afe725698756dc5d9d3c9002202c3f26333ceae4e089a6fc57a53ad01f7194a611c2585f8d4b442b85058f4032012102dd9989c65ed524629b0c811b1fff110b15a862121445c26a6f96386021701ada", "asm": "304502210090c7d6826d9ea094bfb849eeb6b0098ff899424ba0afe725698756dc5d9d3c9002202c3f26333ceae4e089a6fc57a53ad01f7194a611c2585f8d4b442b85058f4032[ALL] 02dd9989c65ed524629b0c811b1fff110b15a862121445c26a6f96386021701ada"}, "vout": 1, "txid": "3b5270da9918c9d1dc80579532ca3f40591525cc79c5305dcda7ed9a8c26b48f"}, {"sequence": 4294967295, "scriptSig": {"hex": "483045022100ff7d4890ef681cbdc4792db603bb5f40c0b3bbdbdcf49df05a6f1a8671c1a80702204a576e076a948624097fdfbfa19b8aa085a0b6c5a1b01ba13dfc15852bb9040701210246b2b3a4c5d0d19b835daed13e89f601b569c5504af1d250ff7de80618747e9a", "asm": "3045022100ff7d4890ef681cbdc4792db603bb5f40c0b3bbdbdcf49df05a6f1a8671c1a80702204a576e076a948624097fdfbfa19b8aa085a0b6c5a1b01ba13dfc15852bb90407[ALL] 0246b2b3a4c5d0d19b835daed13e89f601b569c5504af1d250ff7de80618747e9a"}, "vout": 0, "txid": "f3d145468cca6a5a0b3c438ddfd27ac6b108ff718a8a36ff68ed4e608a466e75"}, {"sequence": 4294967295, "scriptSig": {"hex": "483045022100dabe1b369d963e53be979cc54dc61855af5d3c0806fef9d0a5352ae202c586070220193f2fc84e09535c44cbf0e02fa13656e041c06ea64c0250b4927e034fb9aa150121037d0ec795978a9a180e31e55e9c3c7a8579222a80ffbd63ce71b34581d3f502e2", "asm": "3045022100dabe1b369d963e53be979cc54dc61855af5d3c0806fef9d0a5352ae202c586070220193f2fc84e09535c44cbf0e02fa13656e041c06ea64c0250b4927e034fb9aa15[ALL] 037d0ec795978a9a180e31e55e9c3c7a8579222a80ffbd63ce71b34581d3f502e2"}, "vout": 0, "txid": "b2c2f3e79345ef5c9eaeedd36a809ec6e548375996a8143a32c436418f8cf483"}, {"sequence": 4294967295, "scriptSig": {"hex": "483045022100ddcceb941e253f2a6ac7d854497df5fbf875aca3e4bd0f766c31e56608cea1ae022059ffe9cd64ab125984f4d40c75e9372cc695167e9a2ca1b5278232b4f331246001210303929f44d5219b7cb7c4d302d99a68192e6bf44cb9fec9d8fd36039811f9ca12", "asm": "3045022100ddcceb941e253f2a6ac7d854497df5fbf875aca3e4bd0f766c31e56608cea1ae022059ffe9cd64ab125984f4d40c75e9372cc695167e9a2ca1b5278232b4f3312460[ALL] 0303929f44d5219b7cb7c4d302d99a68192e6bf44cb9fec9d8fd36039811f9ca12"}, "vout": 1, "txid": "92b395a961a3c271715691def5f9fb05db1b5f59fbe4c64d928e21c40563a1a7"}, {"sequence": 4294967295, "scriptSig": {"hex": "47304402204e9e852d9969bc3191702990b5dccc3bd0e391aad43c0a2e567c50dd4a8b053302204e7ce2e4fa90861d665bbb568e6e53de9ae9055711a7fd88a57033b4a8f63b53012102ad361b662f03c982e976a1c7494eadc23f8fe55df6047e1a76a7bc2abaff4d1a", "asm": "304402204e9e852d9969bc3191702990b5dccc3bd0e391aad43c0a2e567c50dd4a8b053302204e7ce2e4fa90861d665bbb568e6e53de9ae9055711a7fd88a57033b4a8f63b53[ALL] 02ad361b662f03c982e976a1c7494eadc23f8fe55df6047e1a76a7bc2abaff4d1a"}, "vout": 1, "txid": "b9acda40b4e513db4a852745a8b2672890b81afe52251ff26d91d2679f0a65a6"}, {"sequence": 4294967295, "scriptSig": {"hex": "4730440220059bae0f89df8707809c9d9ef760628843007a750c54533409da3ee32c9dcd6d02201cebaf8310392606e7dc1ecbc9e2bb4a7456c65641e406c266597f747d1b749a01210366472731dc3cd0b944282b40c212399db1b5042fb9e7204c8bf392a59936988c", "asm": "30440220059bae0f89df8707809c9d9ef760628843007a750c54533409da3ee32c9dcd6d02201cebaf8310392606e7dc1ecbc9e2bb4a7456c65641e406c266597f747d1b749a[ALL] 0366472731dc3cd0b944282b40c212399db1b5042fb9e7204c8bf392a59936988c"}, "vout": 1, "txid": "507506762b334d94cc1b77ac68f1fa7018c5cc115293490f30dbdfc528339fd0"}, {"sequence": 4294967295, "scriptSig": {"hex": "47304402204fd6f95452ec6e0df782df4f23329ff76b14f965a2f38353dacafb4e4b91d84e022028f16b1fda1c5f44958d067c4951ee917d72d3998759167b5dd242d9311deecc012103446b6d02881f60c8f5603d393c8d16aa7900750a389c0c4246a53b0026854292", "asm": "304402204fd6f95452ec6e0df782df4f23329ff76b14f965a2f38353dacafb4e4b91d84e022028f16b1fda1c5f44958d067c4951ee917d72d3998759167b5dd242d9311deecc[ALL] 03446b6d02881f60c8f5603d393c8d16aa7900750a389c0c4246a53b0026854292"}, "vout": 0, "txid": "b031e3b9b055dd8de59826d9cd4c5261ae0dcf4e41ecc158a452fa0e285003c8"}, {"sequence": 4294967295, "scriptSig": {"hex": "483045022100847b83cee904fbf73d294d55adfed5f49eb0ca7f70741d1aedaffb7b9bd3bd21022039420b72b5afd66f499e760b789fcdaca50bdb3291d78f05dcaa53008041b727012102b81cbecc8c973ac6655720c230542bd3b28f5061fc65c6b6c1d3cc2134d53ef2", "asm": "3045022100847b83cee904fbf73d294d55adfed5f49eb0ca7f70741d1aedaffb7b9bd3bd21022039420b72b5afd66f499e760b789fcdaca50bdb3291d78f05dcaa53008041b727[ALL] 02b81cbecc8c973ac6655720c230542bd3b28f5061fc65c6b6c1d3cc2134d53ef2"}, "vout": 0, "txid": "2a46d6b92e30a2db497883354ce79197ce8a7cfc8c35fd8b7ee8528847250bd1"}, {"sequence": 4294967295, "scriptSig": {"hex": "483045022100e090e2bcbd7e8d5b2f91cae66108bec35bdd28e439d1132db97bc8ea1ac3bf2a02207f352d8fafa2c9a333f4b3efe31b7d4446c08c029e859c1ec0f4675c7f14946f012102a75f22d104fedd6ca5fff3316ac25a7d243ada914f2d3f804224cdba5cca0201", "asm": "3045022100e090e2bcbd7e8d5b2f91cae66108bec35bdd28e439d1132db97bc8ea1ac3bf2a02207f352d8fafa2c9a333f4b3efe31b7d4446c08c029e859c1ec0f4675c7f14946f[ALL] 02a75f22d104fedd6ca5fff3316ac25a7d243ada914f2d3f804224cdba5cca0201"}, "vout": 0, "txid": "dbe9c356cbcf5181793e131e80317176831d2d61b365749135e4f05b6be9a552"}, {"sequence": 4294967295, "scriptSig": {"hex": "48304502210095197062d77ceac3d2fa0b4506ff1da439fae193128bcee049e9776ebae77ec60220147eb0d85671c3f078a8c67ea2eb8d1b679746ad693c40132cc4ab3df1c5ea760121036c8e10f933ff469ad2cf9f242a174e74f7c9dc9283debf3dc28afa7023623ef3", "asm": "304502210095197062d77ceac3d2fa0b4506ff1da439fae193128bcee049e9776ebae77ec60220147eb0d85671c3f078a8c67ea2eb8d1b679746ad693c40132cc4ab3df1c5ea76[ALL] 036c8e10f933ff469ad2cf9f242a174e74f7c9dc9283debf3dc28afa7023623ef3"}, "vout": 0, "txid": "86027f2f123e7a765f3ede3edc8bbb353238890c70d2499a47f8410a9ff5b419"}, {"sequence": 4294967295, "scriptSig": {"hex": "4730440220259463223ca0bb039b239b5aafa374d48e8e6530f7e325a0799b6e168c7049780220096c2fa8fa1b8112143770a34d2aa76473329837d33399baab31225250a97f8c012103351d6a7cf49161430763b6462376c9945edcb18d37824e609f8f9f0da17723ab", "asm": "30440220259463223ca0bb039b239b5aafa374d48e8e6530f7e325a0799b6e168c7049780220096c2fa8fa1b8112143770a34d2aa76473329837d33399baab31225250a97f8c[ALL] 03351d6a7cf49161430763b6462376c9945edcb18d37824e609f8f9f0da17723ab"}, "vout": 4, "txid": "aa1864c150364f84cefa2d3cbc203b79e9768688ab4667772f37916c99dd9661"}, {"sequence": 4294967295, "scriptSig": {"hex": "483045022100c793047a62f6381bb2c0e96f269e07fa13dde236b615254942e8d26171e8e36b0220172482f70af9c10de529f2c9e19ef4c23a01c48b90fec690cee4bc99ac916bae012102aadb2c04162aaa2d918a30fd1a8dbb84818f50739d6928c1dd73063fe2f6c207", "asm": "3045022100c793047a62f6381bb2c0e96f269e07fa13dde236b615254942e8d26171e8e36b0220172482f70af9c10de529f2c9e19ef4c23a01c48b90fec690cee4bc99ac916bae[ALL] 02aadb2c04162aaa2d918a30fd1a8dbb84818f50739d6928c1dd73063fe2f6c207"}, "vout": 4, "txid": "224ca09274654f0bede1ec4a239bae401360bfcf8f89cea16c6506142fa2068b"}, {"sequence": 4294967295, "scriptSig": {"hex": "4730440220314523febf9844e773ffb689600e0e1147ad6d0498cd818b5f076296bfc9b6af02201ea4528a722087fefd30af82a7e0cae41e46fe4ac27c93389d61443b61543d0c0121029cb4a08ee155ef659ee37909b1c8665f0901aa159a68e1d4f8b022691ab27f1e", "asm": "30440220314523febf9844e773ffb689600e0e1147ad6d0498cd818b5f076296bfc9b6af02201ea4528a722087fefd30af82a7e0cae41e46fe4ac27c93389d61443b61543d0c[ALL] 029cb4a08ee155ef659ee37909b1c8665f0901aa159a68e1d4f8b022691ab27f1e"}, "vout": 8, "txid": "99126b9a638c91529fd8f61a5e0a9045df079ee661f17a520ec2228fb0bf9ad8"}, {"sequence": 4294967295, "scriptSig": {"hex": "483045022100da0163929e8d28c3bd2fcef28af092792091cf59e512a21ccf8caf75eff2b8c40220466dd84107071ec452c0abc97c7f7b853d08a62ec96daa226c8d2f983d88e93701210291caf3ba53aade3052fd32309310b47f6d8bba38d555d78225776d3478269765", "asm": "3045022100da0163929e8d28c3bd2fcef28af092792091cf59e512a21ccf8caf75eff2b8c40220466dd84107071ec452c0abc97c7f7b853d08a62ec96daa226c8d2f983d88e937[ALL] 0291caf3ba53aade3052fd32309310b47f6d8bba38d555d78225776d3478269765"}, "vout": 0, "txid": "be80ac8f697e8524f37a7def1faab40522e1d46cbb7146f4a1c7245833911c4f"}, {"sequence": 4294967295, "scriptSig": {"hex": "483045022100c5339d377ecca2e92bdd57f66f2d96626e704922282755432363301199c04d4d02200b84e7787c0fefc31fa46144eff9ed5ea651575183a466687cbb66e4c9a9e72a012103ea46f1caa209731cfcc478e7ba14e98c4c0343070b6879277ff6b7212fd6e8c1", "asm": "3045022100c5339d377ecca2e92bdd57f66f2d96626e704922282755432363301199c04d4d02200b84e7787c0fefc31fa46144eff9ed5ea651575183a466687cbb66e4c9a9e72a[ALL] 03ea46f1caa209731cfcc478e7ba14e98c4c0343070b6879277ff6b7212fd6e8c1"}, "vout": 1, "txid": "66e07394d4ec4acb24d9e0185787c0de28346c033f70f5de64260bec40808a87"}, {"sequence": 4294967295, "scriptSig": {"hex": "4730440220795dd99d31e60c81acaeb1deeb4d8497a1f243049417675a8f6ffaebcc9bf78e02204b2fac983284dcf5f8fbc46020a9a7b3c0dedc122cc143805b6f173704ffa8880121038beb438a736811e4e5dea84804a7327ef9af65493ba03a4ceb56a51d6530743f", "asm": "30440220795dd99d31e60c81acaeb1deeb4d8497a1f243049417675a8f6ffaebcc9bf78e02204b2fac983284dcf5f8fbc46020a9a7b3c0dedc122cc143805b6f173704ffa888[ALL] 038beb438a736811e4e5dea84804a7327ef9af65493ba03a4ceb56a51d6530743f"}, "vout": 0, "txid": "4ab10b995ae7a62fb917fb3a85e1f45c4306b2b3f73a1e4b531b4c1fcfaade85"}, {"sequence": 4294967295, "scriptSig": {"hex": "483045022100de16bf84973824f71d7971186997155518722422346b8f5e74ea4602a4e76f02022031f5deff6a26c9cbfc4d0266d618aa4b21332271ee37486bcffae8f7f7336b330121033a13183566a37b76a40ba983379852d005a2dde7325b04ca44d0b865ac4ac044", "asm": "3045022100de16bf84973824f71d7971186997155518722422346b8f5e74ea4602a4e76f02022031f5deff6a26c9cbfc4d0266d618aa4b21332271ee37486bcffae8f7f7336b33[ALL] 033a13183566a37b76a40ba983379852d005a2dde7325b04ca44d0b865ac4ac044"}, "vout": 0, "txid": "1b699b41fbd3c8dbf7498a28a34d184e34f915e867a82d58b8ba1256f27eeac7"}, {"sequence": 4294967295, "scriptSig": {"hex": "47304402207fbf4f8adb2dadb870e076639eb4b69f657cb94908854983a97c60bca4b66be502207c2462112edf09ddb3e37b2c2a85dde3bce4e0dbab1f1728b019600eccd3df4c012103446b6d02881f60c8f5603d393c8d16aa7900750a389c0c4246a53b0026854292", "asm": "304402207fbf4f8adb2dadb870e076639eb4b69f657cb94908854983a97c60bca4b66be502207c2462112edf09ddb3e37b2c2a85dde3bce4e0dbab1f1728b019600eccd3df4c[ALL] 03446b6d02881f60c8f5603d393c8d16aa7900750a389c0c4246a53b0026854292"}, "vout": 0, "txid": "be750b0be2de1318c805927c0b593e2f2ddf01e4562d55869e3c052d149f65a1"}, {"sequence": 4294967295, "scriptSig": {"hex": "47304402202cf28db4910b33c26ac99e2aaaf55425ef78ee7a5e5232f2fa2ddcc73bbc916802201a657b4bf83285042d6da5a69ac507757b5a2c6176dc19837df4dd255fb78d8601210228a362006c26b22170afdc7ded2dc253d23cae8e83012622b593599d4865a9e0", "asm": "304402202cf28db4910b33c26ac99e2aaaf55425ef78ee7a5e5232f2fa2ddcc73bbc916802201a657b4bf83285042d6da5a69ac507757b5a2c6176dc19837df4dd255fb78d86[ALL] 0228a362006c26b22170afdc7ded2dc253d23cae8e83012622b593599d4865a9e0"}, "vout": 1, "txid": "ea5b96549e841100a6799ee2b5edf662c129ccfc004fca8efeb27fcb94da008d"}], "txid": "7018ca90c72067afb2dfeafead43a37386bdc6eac734a2a4d79d61f781f2dff9", "blocktime": 1537871767, "version": 2, "confirmations": 11491, "time": 1537871767, "locktime": 0, "vsize": 2848, "size": 2848}