{"hash": "de156dadbad6b930e759dcc13abe24dbc493c92ff9c771b8a52f792ff0fffaef", "blockhash": "00000000000000000017f5eb5941039fbcee6240d03bc1f2f8e35350df66a1d8", "vout": [{"scriptPubKey": {"reqSigs": 1, "hex": "76a91417a36fe9f93d1e11f917e24bc6e7a831338a0dba88ac", "addresses": ["139zLE51HZg3FR2SrDGndk7TnkgZhgx4aB"], "asm": "OP_DUP OP_HASH160 17a36fe9f93d1e11f917e24bc6e7a831338a0dba OP_EQUALVERIFY OP_CHECKSIG", "type": "pubkeyhash"}, "value": 0.00610573, "n": 0}, {"scriptPubKey": {"reqSigs": 1, "hex": "0014171e000f4665ff00c8e97311b0d5142e4d985a68", "addresses": ["bc1qzu0qqr6xvhlspj8fwvgmp4g59exesknghqtscc"], "asm": "0 171e000f4665ff00c8e97311b0d5142e4d985a68", "type": "witness_v0_keyhash"}, "value": 2.41e-05, "n": 1}], "hex": "010000000001017928245ee1226aa90dea5590b469e31b4666b70d5ba385dffbf099e7ec3842bd0000000000ffffffff020d510900000000001976a91417a36fe9f93d1e11f917e24bc6e7a831338a0dba88ac6a09000000000000160014171e000f4665ff00c8e97311b0d5142e4d985a680248304502210088038f6f6bcba60a672591a043fdf20593d64fe9ef491488dee7c1032280a960022003586e1d53a3813808ad21c5bb20f156664bc86a0aec1b06d959bff61271c29e0121034fb58e6f6bba6cf64e166feff9b004f5078619d62fe01175ebeae5c8777f26ef00000000", "vin": [{"txinwitness": ["304502210088038f6f6bcba60a672591a043fdf20593d64fe9ef491488dee7c1032280a960022003586e1d53a3813808ad21c5bb20f156664bc86a0aec1b06d959bff61271c29e01", "034fb58e6f6bba6cf64e166feff9b004f5078619d62fe01175ebeae5c8777f26ef"], "sequence": 4294967295, "scriptSig": {"hex": "", "asm": ""}, "vout": 0, "txid": "bd4238ece799f0fbdf85a35b0db766461be369b49055ea0da96a22e15e242879"}], "txid": "7018af2b6e095a708f5f90cbbffbc7992678e9e3f397884d72ab9ea01cf294f2", "blocktime": 1537874412, "version": 1, "confirmations": 11467, "time": 1537874412, "locktime": 0, "vsize": 144, "size": 226}