{"hash": "70267d87e9f6840b34f7b59702a435c59d0ccb7cdfb2bd2ebd8158fb8ca27c79", "blockhash": "0000000000000000001f0ddff1eddb255c1121bcd4da4f1bc9a0da00cae72433", "vout": [{"scriptPubKey": {"reqSigs": 1, "hex": "76a914382ce655e1cdd01af2d9e46573e9fbd0bb749d3688ac", "addresses": ["1682dS3BbTDCgAgnRYMNhDwEGYjRpaS3h3"], "asm": "OP_DUP OP_HASH160 382ce655e1cdd01af2d9e46573e9fbd0bb749d36 OP_EQUALVERIFY OP_CHECKSIG", "type": "pubkeyhash"}, "value": 0.00331116, "n": 0}, {"scriptPubKey": {"type": "nulldata", "hex": "6a146f6d6e69000000000000001f00000016e91814b0", "asm": "OP_RETURN 6f6d6e69000000000000001f00000016e91814b0"}, "value": 0.0, "n": 1}, {"scriptPubKey": {"reqSigs": 1, "hex": "76a91477d67e9ce65ae268d35f1d4061a75d57df9666f488ac", "addresses": ["1BveNB1hn24ZjnL6Xc7CWxuQGUv2HNqza9"], "asm": "OP_DUP OP_HASH160 77d67e9ce65ae268d35f1d4061a75d57df9666f4 OP_EQUALVERIFY OP_CHECKSIG", "type": "pubkeyhash"}, "value": 5.46e-06, "n": 2}], "hex": "01000000031664f54be3e709cd55ff500649534cf8a97b046baf5e290562036b6ecedbc8c4020000006b483045022100aaeadbc03caf8c5bee6cf8a99831f38aa0758c79e30abe80a5ebf5b4af9f8c9c022073aef84c099c5224dab32f58cdf8ae98dcaec6251d83750eba593357fe7fb73401210317282a71c082969af5633611ab4aca74ab7481bb20ffe59421fafd62807998f7ffffffff4a1f32a01a2263259e50c622ffac9c9ef671ee521938801d31821b6535f27968010000006b483045022100eb40dd71a9efa37e308ef4d45a0b09cb7c91d920a101a4dcf9684b10373368fb02205ee5daba7331c1f7c3bbff720952da488bf164c04bfa977c760e2af1cf88d3dd01210317282a71c082969af5633611ab4aca74ab7481bb20ffe59421fafd62807998f7ffffffff1664f54be3e709cd55ff500649534cf8a97b046baf5e290562036b6ecedbc8c4000000006b483045022100ed4227aecf1aa755b42c1a6cfc8caf44d293d6b463ddac515aca63e3c0d71e7f022067980b32300ef4143fd4471ad62f78c670fd6edb6649da16c868768d6437a2c60121039000d0616967dd25f800d8a8f45648c89fb366c2caeefd348010ea3a8f9a69ffffffffff036c0d0500000000001976a914382ce655e1cdd01af2d9e46573e9fbd0bb749d3688ac0000000000000000166a146f6d6e69000000000000001f00000016e91814b022020000000000001976a91477d67e9ce65ae268d35f1d4061a75d57df9666f488ac00000000", "vin": [{"sequence": 4294967295, "scriptSig": {"hex": "483045022100aaeadbc03caf8c5bee6cf8a99831f38aa0758c79e30abe80a5ebf5b4af9f8c9c022073aef84c099c5224dab32f58cdf8ae98dcaec6251d83750eba593357fe7fb73401210317282a71c082969af5633611ab4aca74ab7481bb20ffe59421fafd62807998f7", "asm": "3045022100aaeadbc03caf8c5bee6cf8a99831f38aa0758c79e30abe80a5ebf5b4af9f8c9c022073aef84c099c5224dab32f58cdf8ae98dcaec6251d83750eba593357fe7fb734[ALL] 0317282a71c082969af5633611ab4aca74ab7481bb20ffe59421fafd62807998f7"}, "vout": 2, "txid": "c4c8dbce6e6b036205295eaf6b047ba9f84c53490650ff55cd09e7e34bf56416"}, {"sequence": 4294967295, "scriptSig": {"hex": "483045022100eb40dd71a9efa37e308ef4d45a0b09cb7c91d920a101a4dcf9684b10373368fb02205ee5daba7331c1f7c3bbff720952da488bf164c04bfa977c760e2af1cf88d3dd01210317282a71c082969af5633611ab4aca74ab7481bb20ffe59421fafd62807998f7", "asm": "3045022100eb40dd71a9efa37e308ef4d45a0b09cb7c91d920a101a4dcf9684b10373368fb02205ee5daba7331c1f7c3bbff720952da488bf164c04bfa977c760e2af1cf88d3dd[ALL] 0317282a71c082969af5633611ab4aca74ab7481bb20ffe59421fafd62807998f7"}, "vout": 1, "txid": "6879f235651b82311d80381952ee71f69e9cacff22c6509e2563221aa0321f4a"}, {"sequence": 4294967295, "scriptSig": {"hex": "483045022100ed4227aecf1aa755b42c1a6cfc8caf44d293d6b463ddac515aca63e3c0d71e7f022067980b32300ef4143fd4471ad62f78c670fd6edb6649da16c868768d6437a2c60121039000d0616967dd25f800d8a8f45648c89fb366c2caeefd348010ea3a8f9a69ff", "asm": "3045022100ed4227aecf1aa755b42c1a6cfc8caf44d293d6b463ddac515aca63e3c0d71e7f022067980b32300ef4143fd4471ad62f78c670fd6edb6649da16c868768d6437a2c6[ALL] 039000d0616967dd25f800d8a8f45648c89fb366c2caeefd348010ea3a8f9a69ff"}, "vout": 0, "txid": "c4c8dbce6e6b036205295eaf6b047ba9f84c53490650ff55cd09e7e34bf56416"}], "txid": "70267d87e9f6840b34f7b59702a435c59d0ccb7cdfb2bd2ebd8158fb8ca27c79", "blocktime": 1537872018, "version": 1, "confirmations": 11489, "time": 1537872018, "locktime": 0, "vsize": 553, "size": 553}