{"hash": "7028078603a0041542149d7d11bfc0297cba951cdbec76365e456909aac73511", "blockhash": "000000000000000000022b45ed06c6f4ccd3cf7fb5ba4856ebd2e58215665228", "vout": [{"scriptPubKey": {"reqSigs": 1, "hex": "76a9148635023a6b42a8bb1680ffeccfd4830842d65bc488ac", "addresses": ["1DEd3pFHoWhHCnD7nGwKEhdy9HeZ782T9r"], "asm": "OP_DUP OP_HASH160 8635023a6b42a8bb1680ffeccfd4830842d65bc4 OP_EQUALVERIFY OP_CHECKSIG", "type": "pubkeyhash"}, "value": 0.00630649, "n": 0}, {"scriptPubKey": {"reqSigs": 1, "hex": "76a914eae0f24e941b06a97381902187492e43bd9b191688ac", "addresses": ["1NQvbSs9mguQJDPMDaAbkZcV2qufRg4ZCn"], "asm": "OP_DUP OP_HASH160 eae0f24e941b06a97381902187492e43bd9b1916 OP_EQUALVERIFY OP_CHECKSIG", "type": "pubkeyhash"}, "value": 0.0828, "n": 1}], "hex": "0100000003c3a212fa905b196cc593fb1a6a34ab55cc487528527d4464fd29ef93f740795a000000006b48304502210097573dd5b1534e75b3a825f00de17ba9303619e4a0c92b223608f1c6badf82ac0220745e60deec7773ba3ef1843b11f4bb4711b5be0c893c2fecfc24758b885964da01210375e6460df955dd8d5e94aae70f7bcc0dc9a7bc4ff0e5fafc082632ea5c15ad97ffffffffc243462331ca320bb969fb899ea49bb4e379149329aef993112952230a6d2aa6000000006a47304402207dfc4e7ffdd62a7d636b18601ca53c7b1b9318ce328661779f644c21d1d1ef3002202c44a57c33ba9d497c8caccb58e3c4f943275b695c707ee8391dcb372d1f0d97012103d243173258ae96bb47b3446917bd52d6086547700ea113a8c62020a3f7e0df89ffffffffe83b81088396a5feb3a099038a1c4280550a2f24edd64ccf6328b3b56ba4f1d4010000006b483045022100dead67329fe31898066ac36e2fbd1ece845e457ea27ff12a8edf716e985e97de02207fcf43b5ec96bb1a1777bbbf274e6d45ae44a527c757bb335d32457316c3c4c30121023151d9d6a04863b983d538e586256aa79a07ca4898a174a3948a4b6a10253ed7ffffffff02799f0900000000001976a9148635023a6b42a8bb1680ffeccfd4830842d65bc488acc0577e00000000001976a914eae0f24e941b06a97381902187492e43bd9b191688ac00000000", "vin": [{"sequence": 4294967295, "scriptSig": {"hex": "48304502210097573dd5b1534e75b3a825f00de17ba9303619e4a0c92b223608f1c6badf82ac0220745e60deec7773ba3ef1843b11f4bb4711b5be0c893c2fecfc24758b885964da01210375e6460df955dd8d5e94aae70f7bcc0dc9a7bc4ff0e5fafc082632ea5c15ad97", "asm": "304502210097573dd5b1534e75b3a825f00de17ba9303619e4a0c92b223608f1c6badf82ac0220745e60deec7773ba3ef1843b11f4bb4711b5be0c893c2fecfc24758b885964da[ALL] 0375e6460df955dd8d5e94aae70f7bcc0dc9a7bc4ff0e5fafc082632ea5c15ad97"}, "vout": 0, "txid": "5a7940f793ef29fd64447d52287548cc55ab346a1afb93c56c195b90fa12a2c3"}, {"sequence": 4294967295, "scriptSig": {"hex": "47304402207dfc4e7ffdd62a7d636b18601ca53c7b1b9318ce328661779f644c21d1d1ef3002202c44a57c33ba9d497c8caccb58e3c4f943275b695c707ee8391dcb372d1f0d97012103d243173258ae96bb47b3446917bd52d6086547700ea113a8c62020a3f7e0df89", "asm": "304402207dfc4e7ffdd62a7d636b18601ca53c7b1b9318ce328661779f644c21d1d1ef3002202c44a57c33ba9d497c8caccb58e3c4f943275b695c707ee8391dcb372d1f0d97[ALL] 03d243173258ae96bb47b3446917bd52d6086547700ea113a8c62020a3f7e0df89"}, "vout": 0, "txid": "a62a6d0a2352291193f9ae29931479e3b49ba49e89fb69b90b32ca31234643c2"}, {"sequence": 4294967295, "scriptSig": {"hex": "483045022100dead67329fe31898066ac36e2fbd1ece845e457ea27ff12a8edf716e985e97de02207fcf43b5ec96bb1a1777bbbf274e6d45ae44a527c757bb335d32457316c3c4c30121023151d9d6a04863b983d538e586256aa79a07ca4898a174a3948a4b6a10253ed7", "asm": "3045022100dead67329fe31898066ac36e2fbd1ece845e457ea27ff12a8edf716e985e97de02207fcf43b5ec96bb1a1777bbbf274e6d45ae44a527c757bb335d32457316c3c4c3[ALL] 023151d9d6a04863b983d538e586256aa79a07ca4898a174a3948a4b6a10253ed7"}, "vout": 1, "txid": "d4f1a46bb5b32863cf4cd6ed242f0a5580421c8a0399a0b3fea5968308813be8"}], "txid": "7028078603a0041542149d7d11bfc0297cba951cdbec76365e456909aac73511", "blocktime": 1537869901, "version": 1, "confirmations": 11524, "time": 1537869901, "locktime": 0, "vsize": 521, "size": 521}