{"hash": "703603168e4ef224791b533a1be1459a72a40f6cc63ad214e8a969ae9939bd4a", "blockhash": "00000000000000000024a2167bbff67b0be802c0b01cdd79e6331c2be6459f87", "vout": [{"scriptPubKey": {"reqSigs": 1, "hex": "76a9147854dc394c571f7b3ec508b8335587f9121a65be88ac", "addresses": ["1ByFkDMzysNCkF7X7HNn7quFtQcCx9PnUV"], "asm": "OP_DUP OP_HASH160 7854dc394c571f7b3ec508b8335587f9121a65be OP_EQUALVERIFY OP_CHECKSIG", "type": "pubkeyhash"}, "value": 0.00156586, "n": 0}, {"scriptPubKey": {"reqSigs": 1, "hex": "76a9146aab1103c4a4f1b2118c0f7720cf384639e3577e88ac", "addresses": ["1Aj1ZEwNLCaQXXdQSMATKVk3XeacCtZ9gC"], "asm": "OP_DUP OP_HASH160 6aab1103c4a4f1b2118c0f7720cf384639e3577e OP_EQUALVERIFY OP_CHECKSIG", "type": "pubkeyhash"}, "value": 0.0031246, "n": 1}], "hex": "0100000001e45751dca10eb91c55517ab111b6a00aee4f1d197677ea67ec69fc913bbb69ff0b0000006b483045022100a85620cde426e3abd3428da1d33b091ea54ff0cf8b09caab30426106baaf33f8022066cf28fac54e7dd6ebf64daa39a09e4c3190e869f8342facc7ac2588617302970121033bc75b63415b5de62fcbff6de9bb8a78ea5077127372450d4d73ef5a0b7dc67effffffff02aa630200000000001976a9147854dc394c571f7b3ec508b8335587f9121a65be88ac8cc40400000000001976a9146aab1103c4a4f1b2118c0f7720cf384639e3577e88ac00000000", "vin": [{"sequence": 4294967295, "scriptSig": {"hex": "483045022100a85620cde426e3abd3428da1d33b091ea54ff0cf8b09caab30426106baaf33f8022066cf28fac54e7dd6ebf64daa39a09e4c3190e869f8342facc7ac2588617302970121033bc75b63415b5de62fcbff6de9bb8a78ea5077127372450d4d73ef5a0b7dc67e", "asm": "3045022100a85620cde426e3abd3428da1d33b091ea54ff0cf8b09caab30426106baaf33f8022066cf28fac54e7dd6ebf64daa39a09e4c3190e869f8342facc7ac258861730297[ALL] 033bc75b63415b5de62fcbff6de9bb8a78ea5077127372450d4d73ef5a0b7dc67e"}, "vout": 11, "txid": "ff69bb3b91fc69ec67ea7776191d4fee0aa0b611b17a51551cb90ea1dc5157e4"}], "txid": "703603168e4ef224791b533a1be1459a72a40f6cc63ad214e8a969ae9939bd4a", "blocktime": 1537870564, "version": 1, "confirmations": 11515, "time": 1537870564, "locktime": 0, "vsize": 226, "size": 226}