{"hash": "38ed0e752a8ea5eed4f014c3308dc3a1daaac11698cb2a202a66339906c78747", "blockhash": "0000000000000000001cda96e906b7601b7a6fb1a3b62bca570a9e5d8f4b3de1", "vout": [{"scriptPubKey": {"reqSigs": 1, "hex": "a91477aa312ac2c79f939bf7e4ad76573b1dd9cf536f87", "addresses": ["3CbkDXJ3F9pgvWkeJw4E48fBh6zTdJeS4J"], "asm": "OP_HASH160 77aa312ac2c79f939bf7e4ad76573b1dd9cf536f OP_EQUAL", "type": "scripthash"}, "value": 0.00015611, "n": 0}, {"scriptPubKey": {"reqSigs": 1, "hex": "a9146c399fe86727c52e8c42f9e4ac228b10879cb58d87", "addresses": ["3BZFw6GSctZycrEAuwhP2orPBsTbsMGtgc"], "asm": "OP_HASH160 6c399fe86727c52e8c42f9e4ac228b10879cb58d OP_EQUAL", "type": "scripthash"}, "value": 0.01724361, "n": 1}], "hex": "020000000001018b394d9b4af314d63be43fbb82eba026e3b3b38733e25715194874071309b18e000000001716001466d2ce91dcea1693cac510db54d91c08604a266efeffffff02fb3c00000000000017a91477aa312ac2c79f939bf7e4ad76573b1dd9cf536f87c94f1a000000000017a9146c399fe86727c52e8c42f9e4ac228b10879cb58d8702473044022009a2abb2670fb15035c19d3a2b64b6ee3ecbe0a95c83766d200986c88b15c067022066abe558ab62f57857289e271d480882cede2cd20989cc3acad1c6d9d0812540012103e32aecd37c77dd210e880d08c68a383ae866373e37cd49cac9540ce10855135f13490800", "vin": [{"txinwitness": ["3044022009a2abb2670fb15035c19d3a2b64b6ee3ecbe0a95c83766d200986c88b15c067022066abe558ab62f57857289e271d480882cede2cd20989cc3acad1c6d9d081254001", "03e32aecd37c77dd210e880d08c68a383ae866373e37cd49cac9540ce10855135f"], "sequence": 4294967294, "scriptSig": {"hex": "16001466d2ce91dcea1693cac510db54d91c08604a266e", "asm": "001466d2ce91dcea1693cac510db54d91c08604a266e"}, "vout": 0, "txid": "8eb10913077448191557e23387b3b3e326a0eb82bb3fe43bd614f34a9b4d398b"}], "txid": "7037e7fe600328ecd003387b397a169b98e6492f51b59b4b5c1ee114faddadb2", "blocktime": 1537873282, "version": 2, "confirmations": 11485, "time": 1537873282, "locktime": 542995, "vsize": 166, "size": 247}