{"hash": "7045299ffd0b28e40ebdf5e4b5b63e4fcdbe21df71bac7dddcb81dc5e3652e77", "blockhash": "0000000000000000001f76057863aec43deb6fa401d9628bb513d65a8098bfab", "vout": [{"scriptPubKey": {"reqSigs": 1, "hex": "a914904654dfd42d863a6b85d5381a7ae16bf7aa225d87", "addresses": ["3EqsUtUvfFnciMqrhozpUJzMW8LBq58eA3"], "asm": "OP_HASH160 904654dfd42d863a6b85d5381a7ae16bf7aa225d OP_EQUAL", "type": "scripthash"}, "value": 0.009, "n": 0}, {"scriptPubKey": {"reqSigs": 1, "hex": "76a9145eb165bb0158cc2764195382fed141dfbe2a7dc688ac", "addresses": ["19dh2pUDcHdVyJQ9DbFMUa5gNUEvfbCkEW"], "asm": "OP_DUP OP_HASH160 5eb165bb0158cc2764195382fed141dfbe2a7dc6 OP_EQUALVERIFY OP_CHECKSIG", "type": "pubkeyhash"}, "value": 0.08558565, "n": 1}], "hex": "0100000001a221ef27318378fcb7b2d6b6d063633e3248a2aaece467901e510293b0d27f39010000006a47304402201c0c966b3477662117d8425ceb88e19b093124fa153343f2c1c81706c24ec32502204354d37cc8e567d7d812dd74bce180a17ff41a549efd0acb9597b6b9c782db1a01210349a260b6d768a54542570b37fd9e55b0cb47aace358c950af4341bcd81fdb2bffdffffff02a0bb0d000000000017a914904654dfd42d863a6b85d5381a7ae16bf7aa225d87e5978200000000001976a9145eb165bb0158cc2764195382fed141dfbe2a7dc688ac14490800", "vin": [{"sequence": 4294967293, "scriptSig": {"hex": "47304402201c0c966b3477662117d8425ceb88e19b093124fa153343f2c1c81706c24ec32502204354d37cc8e567d7d812dd74bce180a17ff41a549efd0acb9597b6b9c782db1a01210349a260b6d768a54542570b37fd9e55b0cb47aace358c950af4341bcd81fdb2bf", "asm": "304402201c0c966b3477662117d8425ceb88e19b093124fa153343f2c1c81706c24ec32502204354d37cc8e567d7d812dd74bce180a17ff41a549efd0acb9597b6b9c782db1a[ALL] 0349a260b6d768a54542570b37fd9e55b0cb47aace358c950af4341bcd81fdb2bf"}, "vout": 1, "txid": "397fd2b09302511e9067e4ecaaa248323e6363d0b6d6b2b7fc78833127ef21a2"}], "txid": "7045299ffd0b28e40ebdf5e4b5b63e4fcdbe21df71bac7dddcb81dc5e3652e77", "blocktime": 1537873891, "version": 1, "confirmations": 11475, "time": 1537873891, "locktime": 542996, "vsize": 223, "size": 223}