{"hash": "70466d167cfd6a575e7ea5968dab18cbf37a275c22e0503c0816491b204365e8", "blockhash": "000000000000000000022b45ed06c6f4ccd3cf7fb5ba4856ebd2e58215665228", "vout": [{"scriptPubKey": {"reqSigs": 1, "hex": "a914129dfc9254625cd9212b7b3c3ded05ad0bef88aa87", "addresses": ["33PTM6g8BbqSDes7VCujZHkNdSJFfTDCP4"], "asm": "OP_HASH160 129dfc9254625cd9212b7b3c3ded05ad0bef88aa OP_EQUAL", "type": "scripthash"}, "value": 1.465, "n": 0}, {"scriptPubKey": {"reqSigs": 1, "hex": "a914a3e4383945c3f5ee6cb729e414cc1c4ab3dfbe0887", "addresses": ["3GdbTnkNosDck7tcqPjwQTvDqMuKFGb68N"], "asm": "OP_HASH160 a3e4383945c3f5ee6cb729e414cc1c4ab3dfbe08 OP_EQUAL", "type": "scripthash"}, "value": 42.92959924, "n": 1}], "hex": "02000000014224786bd023b21bbcef941094128206fd17dbde05f3bc9d8962c058e8e8a95601000000da00483045022100f7f4387cdc12cedad98b5252f24927a65108e32460a62decd02a52a1c333c429022063d2bd6718ab03a6dd91b816333595be5eac308103b1d25117d6c9df679f5340014730440220792435f50c4644bd6803a9e878571b09bc8c3dae933d3c5ae5e28321c4d34c4b0220069ca041e9bac211ea69e8438cdc24af204a2936cef4d19b187b6b3a07e0402f0147522103071ea2f6e7e5af0b01e482b84f8e14124e37f119897713bdedd4a86d85aa8406210319ac7f304828d720179de7c08f935623d176cc0a8984affc988e640f5eb069b552aeffffffff02a069bb080000000017a914129dfc9254625cd9212b7b3c3ded05ad0bef88aa87b45ee1ff0000000017a914a3e4383945c3f5ee6cb729e414cc1c4ab3dfbe088700000000", "vin": [{"sequence": 4294967295, "scriptSig": {"hex": "00483045022100f7f4387cdc12cedad98b5252f24927a65108e32460a62decd02a52a1c333c429022063d2bd6718ab03a6dd91b816333595be5eac308103b1d25117d6c9df679f5340014730440220792435f50c4644bd6803a9e878571b09bc8c3dae933d3c5ae5e28321c4d34c4b0220069ca041e9bac211ea69e8438cdc24af204a2936cef4d19b187b6b3a07e0402f0147522103071ea2f6e7e5af0b01e482b84f8e14124e37f119897713bdedd4a86d85aa8406210319ac7f304828d720179de7c08f935623d176cc0a8984affc988e640f5eb069b552ae", "asm": "0 3045022100f7f4387cdc12cedad98b5252f24927a65108e32460a62decd02a52a1c333c429022063d2bd6718ab03a6dd91b816333595be5eac308103b1d25117d6c9df679f5340[ALL] 30440220792435f50c4644bd6803a9e878571b09bc8c3dae933d3c5ae5e28321c4d34c4b0220069ca041e9bac211ea69e8438cdc24af204a2936cef4d19b187b6b3a07e0402f[ALL] 522103071ea2f6e7e5af0b01e482b84f8e14124e37f119897713bdedd4a86d85aa8406210319ac7f304828d720179de7c08f935623d176cc0a8984affc988e640f5eb069b552ae"}, "vout": 1, "txid": "56a9e8e858c062899dbcf305dedb17fd068212941094efbc1bb223d06b782442"}], "txid": "70466d167cfd6a575e7ea5968dab18cbf37a275c22e0503c0816491b204365e8", "blocktime": 1537869901, "version": 2, "confirmations": 11522, "time": 1537869901, "locktime": 0, "vsize": 333, "size": 333}