{"hash": "6fe64e5b79c919a7da2d9cb7b6a195375de804ba5fdb59bc82121ba30426f7a5", "blockhash": "000000000000000000022b45ed06c6f4ccd3cf7fb5ba4856ebd2e58215665228", "vout": [{"scriptPubKey": {"reqSigs": 1, "hex": "76a9141d9ed3c11528e59c62db0464f1f2c530bd24f9c988ac", "addresses": ["13hcs4weXoq6FrVqVr84JNTMxLxU1fp5D2"], "asm": "OP_DUP OP_HASH160 1d9ed3c11528e59c62db0464f1f2c530bd24f9c9 OP_EQUALVERIFY OP_CHECKSIG", "type": "pubkeyhash"}, "value": 0.02485592, "n": 0}, {"scriptPubKey": {"reqSigs": 1, "hex": "a91482c44772fb1f933f9053f37da49a40b57bcc777a87", "addresses": ["3DcSuC7x6c3guzhAp8vPnJ1NasH5Jc3GGh"], "asm": "OP_HASH160 82c44772fb1f933f9053f37da49a40b57bcc777a OP_EQUAL", "type": "scripthash"}, "value": 0.00374439, "n": 1}], "hex": "02000000000102a40c1eefa688669239a6294122da2e66891cd298f3a774e5206481f6d053a53801000000171600148634dd24552d25cf35b8d05d1a2fd7e9a1458185ffffffffbe1f47939855628f2d09bb249ec122a4e5b2ac12c5e334d70e79f34b12f310c2010000001716001436a1c867aea142a3a219e79fe3c1f94c8992e2b4ffffffff0258ed2500000000001976a9141d9ed3c11528e59c62db0464f1f2c530bd24f9c988aca7b605000000000017a91482c44772fb1f933f9053f37da49a40b57bcc777a870247304402200de8a7ea98898194762af84b8d395352ad977f6086da78fa47c850cb1a7d3e8b02206131aaf94015113fb4d14e831a7067b519799970416d33935e0704033dc59906012102c9bc967c89f8c008887d98c72763eb041b68bb1d5bc45439f49354f5d3fb93370247304402204afc316d2c294fde235ef936ec3775e15b0036d66087ab6719479ed32062862602205acdc6ee9914e8be5d073b23aff89b5ee993a5dc8bac4ef1520043fbc2676851012103bfc9db14565b810354f94263018f728bcf60ee36816a4924e328209d7f7ba2a100000000", "vin": [{"txinwitness": ["304402200de8a7ea98898194762af84b8d395352ad977f6086da78fa47c850cb1a7d3e8b02206131aaf94015113fb4d14e831a7067b519799970416d33935e0704033dc5990601", "02c9bc967c89f8c008887d98c72763eb041b68bb1d5bc45439f49354f5d3fb9337"], "sequence": 4294967295, "scriptSig": {"hex": "1600148634dd24552d25cf35b8d05d1a2fd7e9a1458185", "asm": "00148634dd24552d25cf35b8d05d1a2fd7e9a1458185"}, "vout": 1, "txid": "38a553d0f6816420e574a7f398d21c89662eda224129a639926688a6ef1e0ca4"}, {"txinwitness": ["304402204afc316d2c294fde235ef936ec3775e15b0036d66087ab6719479ed32062862602205acdc6ee9914e8be5d073b23aff89b5ee993a5dc8bac4ef1520043fbc267685101", "03bfc9db14565b810354f94263018f728bcf60ee36816a4924e328209d7f7ba2a1"], "sequence": 4294967295, "scriptSig": {"hex": "16001436a1c867aea142a3a219e79fe3c1f94c8992e2b4", "asm": "001436a1c867aea142a3a219e79fe3c1f94c8992e2b4"}, "vout": 1, "txid": "c210f3124bf3790ed734e3c512acb2e5a422c19e24bb092d8f62559893471fbe"}], "txid": "704dc14d5cf5859f1de8c009b4c4066bb8b9729dd605c0d48b9e7557afbe852b", "blocktime": 1537869901, "version": 2, "confirmations": 11522, "time": 1537869901, "locktime": 0, "vsize": 258, "size": 420}