{"hash": "704e7947dd2a577af23479290e3b07add5c0406fb2684ec5fa8a260a613abb16", "blockhash": "0000000000000000001e0dab787dd257d1dbfcb92a98c2207d5e1078be1f4165", "vout": [{"scriptPubKey": {"reqSigs": 1, "hex": "76a9147a5fe51c4bad13c00a4627a09f53909e594c473a88ac", "addresses": ["1CA4KJXRy6wZL22GL2HyaVMjJxUsgrG2ny"], "asm": "OP_DUP OP_HASH160 7a5fe51c4bad13c00a4627a09f53909e594c473a OP_EQUALVERIFY OP_CHECKSIG", "type": "pubkeyhash"}, "value": 1.51007257, "n": 0}, {"scriptPubKey": {"type": "nulldata", "hex": "6a146f6d6e69000000000000001f0000002e90edd000", "asm": "OP_RETURN 6f6d6e69000000000000001f0000002e90edd000"}, "value": 0.0, "n": 1}, {"scriptPubKey": {"reqSigs": 1, "hex": "76a914a25dec4d0011064ef106a983c39c7a540699f22088ac", "addresses": ["1FoWyxwPXuj4C6abqwhjDWdz6D4PZgYRjA"], "asm": "OP_DUP OP_HASH160 a25dec4d0011064ef106a983c39c7a540699f220 OP_EQUALVERIFY OP_CHECKSIG", "type": "pubkeyhash"}, "value": 5.46e-06, "n": 2}], "hex": "0100000003671390e561a43989ff7f59ec4166ca6e5a2edbaec25400a5d0822ac6a157da42010000006b483045022100eb33e36b60cca93b545cc49049ad90f4f13c7406359f93cffd1d7eae204aee9e022032fa0ec95b61f7ce6a31c95e55de2f56d8d3484b95f57f05875f8d49757e1bb1012102bd11d3e1218f65003caa432f8eb8b4394e0360d1b26a46276d9ac66892dfa949feffffffa0187ca9efb8d4ef2c5f5bd9a10f6ecddab95eb9da45d78fff6255fd777fd8ce010000006a47304402204788398bb265476900265a8292dc6c19fac9150855e3cf15c92c217fb70ef87e02205d93d0deaf9574519e12c889489096f20056991972c0562d65668a2595e35257012102bd11d3e1218f65003caa432f8eb8b4394e0360d1b26a46276d9ac66892dfa949feffffffc340f364672d603efa911aab6f6f6f2b8dd4e63e5bab4c09d003226991ecf073000000006a47304402206dfb041f497ffe9932f8716c58089591514568874822caa18b4f68ca6e3257a10220169b23ab27b566800747f0461cc6891726a3f4c207e5b8d7bbf5aeda89a8a233012102bd11d3e1218f65003caa432f8eb8b4394e0360d1b26a46276d9ac66892dfa949feffffff0319300009000000001976a9147a5fe51c4bad13c00a4627a09f53909e594c473a88ac0000000000000000166a146f6d6e69000000000000001f0000002e90edd00022020000000000001976a914a25dec4d0011064ef106a983c39c7a540699f22088ac12490800", "vin": [{"sequence": 4294967294, "scriptSig": {"hex": "483045022100eb33e36b60cca93b545cc49049ad90f4f13c7406359f93cffd1d7eae204aee9e022032fa0ec95b61f7ce6a31c95e55de2f56d8d3484b95f57f05875f8d49757e1bb1012102bd11d3e1218f65003caa432f8eb8b4394e0360d1b26a46276d9ac66892dfa949", "asm": "3045022100eb33e36b60cca93b545cc49049ad90f4f13c7406359f93cffd1d7eae204aee9e022032fa0ec95b61f7ce6a31c95e55de2f56d8d3484b95f57f05875f8d49757e1bb1[ALL] 02bd11d3e1218f65003caa432f8eb8b4394e0360d1b26a46276d9ac66892dfa949"}, "vout": 1, "txid": "42da57a1c62a82d0a50054c2aedb2e5a6eca6641ec597fff8939a461e5901367"}, {"sequence": 4294967294, "scriptSig": {"hex": "47304402204788398bb265476900265a8292dc6c19fac9150855e3cf15c92c217fb70ef87e02205d93d0deaf9574519e12c889489096f20056991972c0562d65668a2595e35257012102bd11d3e1218f65003caa432f8eb8b4394e0360d1b26a46276d9ac66892dfa949", "asm": "304402204788398bb265476900265a8292dc6c19fac9150855e3cf15c92c217fb70ef87e02205d93d0deaf9574519e12c889489096f20056991972c0562d65668a2595e35257[ALL] 02bd11d3e1218f65003caa432f8eb8b4394e0360d1b26a46276d9ac66892dfa949"}, "vout": 1, "txid": "ced87f77fd5562ff8fd745dab95eb9dacd6e0fa1d95b5f2cefd4b8efa97c18a0"}, {"sequence": 4294967294, "scriptSig": {"hex": "47304402206dfb041f497ffe9932f8716c58089591514568874822caa18b4f68ca6e3257a10220169b23ab27b566800747f0461cc6891726a3f4c207e5b8d7bbf5aeda89a8a233012102bd11d3e1218f65003caa432f8eb8b4394e0360d1b26a46276d9ac66892dfa949", "asm": "304402206dfb041f497ffe9932f8716c58089591514568874822caa18b4f68ca6e3257a10220169b23ab27b566800747f0461cc6891726a3f4c207e5b8d7bbf5aeda89a8a233[ALL] 02bd11d3e1218f65003caa432f8eb8b4394e0360d1b26a46276d9ac66892dfa949"}, "vout": 0, "txid": "73f0ec91692203d0094cab5b3ee6d48d2b6f6f6fab1a91fa3e602d6764f340c3"}], "txid": "704e7947dd2a577af23479290e3b07add5c0406fb2684ec5fa8a260a613abb16", "blocktime": 1537872475, "version": 1, "confirmations": 11487, "time": 1537872475, "locktime": 542994, "vsize": 551, "size": 551}