{"hash": "705215cddb3d07118bcc107175f3eceb9d074d37dce3c53100846d6909659a95", "blockhash": "00000000000000000004ffacab907a6b429b9a5745fa0b75af4234bf69dd7176", "vout": [{"scriptPubKey": {"reqSigs": 1, "hex": "76a914d243e6abb9a60fbff430b421d2df4b7d59ec186088ac", "addresses": ["1LAnF8h3qMGx3TSwNUHVneBZUEpwE4gu3D"], "asm": "OP_DUP OP_HASH160 d243e6abb9a60fbff430b421d2df4b7d59ec1860 OP_EQUALVERIFY OP_CHECKSIG", "type": "pubkeyhash"}, "value": 0.00076972, "n": 0}, {"scriptPubKey": {"reqSigs": 1, "hex": "76a9143851f34d13937b673a7d24a1950bb5b21ce94af388ac", "addresses": ["168o1kqNquEJeR9vosUB5fw4eAwcVAgh8P"], "asm": "OP_DUP OP_HASH160 3851f34d13937b673a7d24a1950bb5b21ce94af3 OP_EQUALVERIFY OP_CHECKSIG", "type": "pubkeyhash"}, "value": 5.46e-06, "n": 1}, {"scriptPubKey": {"type": "nulldata", "hex": "6a146f6d6e69000000000000001f000000a2dd72f300", "asm": "OP_RETURN 6f6d6e69000000000000001f000000a2dd72f300"}, "value": 0.0, "n": 2}], "hex": "0100000002424f1aeddae7053d7cd670ecd9162b73d392b8321ea9bfb9a60849d212bf5257010000006b483045022100ab1a3bd92885bb15e71781892e493296699302406f201d6c66ebe5a2a513511102205db32f84d94c05b904c821d362c7cd3883182bfdf2f0f7a36287a41ca407236d0121025843e14f1784b7b77279216d49274421a2db255207768503d6d603eb663a0c5cffffffff469f63345efe3824e2b45faa25c471eda081a0f14c5e23eb458a8aa407b7b754000000006a47304402207d5988d8ecdbbaf9da0b0f4604105bba3efc21546caea459b398e671298e9780022001fb4b0bf4a324c3308258f7cc381888b038974b7cbe022cef20af0f22a4f29901210271977291b74f1f5f5c42157e8aae804664eaaeccfd097918450d37f28fb94d77ffffffff03ac2c0100000000001976a914d243e6abb9a60fbff430b421d2df4b7d59ec186088ac22020000000000001976a9143851f34d13937b673a7d24a1950bb5b21ce94af388ac0000000000000000166a146f6d6e69000000000000001f000000a2dd72f30000000000", "vin": [{"sequence": 4294967295, "scriptSig": {"hex": "483045022100ab1a3bd92885bb15e71781892e493296699302406f201d6c66ebe5a2a513511102205db32f84d94c05b904c821d362c7cd3883182bfdf2f0f7a36287a41ca407236d0121025843e14f1784b7b77279216d49274421a2db255207768503d6d603eb663a0c5c", "asm": "3045022100ab1a3bd92885bb15e71781892e493296699302406f201d6c66ebe5a2a513511102205db32f84d94c05b904c821d362c7cd3883182bfdf2f0f7a36287a41ca407236d[ALL] 025843e14f1784b7b77279216d49274421a2db255207768503d6d603eb663a0c5c"}, "vout": 1, "txid": "5752bf12d24908a6b9bfa91e32b892d3732b16d9ec70d67c3d05e7daed1a4f42"}, {"sequence": 4294967295, "scriptSig": {"hex": "47304402207d5988d8ecdbbaf9da0b0f4604105bba3efc21546caea459b398e671298e9780022001fb4b0bf4a324c3308258f7cc381888b038974b7cbe022cef20af0f22a4f29901210271977291b74f1f5f5c42157e8aae804664eaaeccfd097918450d37f28fb94d77", "asm": "304402207d5988d8ecdbbaf9da0b0f4604105bba3efc21546caea459b398e671298e9780022001fb4b0bf4a324c3308258f7cc381888b038974b7cbe022cef20af0f22a4f299[ALL] 0271977291b74f1f5f5c42157e8aae804664eaaeccfd097918450d37f28fb94d77"}, "vout": 0, "txid": "54b7b707a48a8a45eb235e4cf1a081a0ed71c425aa5fb4e22438fe5e34639f46"}], "txid": "705215cddb3d07118bcc107175f3eceb9d074d37dce3c53100846d6909659a95", "blocktime": 1537875543, "version": 1, "confirmations": 11464, "time": 1537875543, "locktime": 0, "vsize": 404, "size": 404}