{"hash": "b9aa65c927b64f4e028a2512f3f7bf9cae78f00491b571484f386b2010ffeb75", "blockhash": "0000000000000000001f76057863aec43deb6fa401d9628bb513d65a8098bfab", "vout": [{"scriptPubKey": {"reqSigs": 1, "hex": "0014a775ae2f2473f5700b462b4030e6413a9024dbe7", "addresses": ["bc1q5a66uteyw06hqz6x9dqrpejp82gzfkl8p5cgxv"], "asm": "0 a775ae2f2473f5700b462b4030e6413a9024dbe7", "type": "witness_v0_keyhash"}, "value": 0.01397554, "n": 0}], "hex": "020000000001019ef7dca7622ef96977cdc73b81aeef25c3746760ec7de4d2b3e1a08a34775d8601000000003d621c80013253150000000000160014a775ae2f2473f5700b462b4030e6413a9024dbe704004730440220597fc1420d12a2d5337c61584e9ab9c2edb31017991da049e025a16c4ba760c102206d56dc97dad0e0f4863d36747d41ad8a89f2fe2c9196986167bbcd3f833138b8014830450221008d8051a8c30abb488147ac500e70743e5bc13e7e4e5688e5c523d4e8d06eca27022074cbacf99cdf15d5c97ebbda3c8b9a3559e5368535c2feca98bd8d564bd719e401475221029f80761ddedd0ecfb15c81ced1f9fbfca73438c7bec480410f68a73ffa897d0a2102fc29039cc3e89d73a6393096d9c937fe6dd230a37ff2b34df5da561558ce0b5a52aeeffeba20", "vin": [{"txinwitness": ["", "30440220597fc1420d12a2d5337c61584e9ab9c2edb31017991da049e025a16c4ba760c102206d56dc97dad0e0f4863d36747d41ad8a89f2fe2c9196986167bbcd3f833138b801", "30450221008d8051a8c30abb488147ac500e70743e5bc13e7e4e5688e5c523d4e8d06eca27022074cbacf99cdf15d5c97ebbda3c8b9a3559e5368535c2feca98bd8d564bd719e401", "5221029f80761ddedd0ecfb15c81ced1f9fbfca73438c7bec480410f68a73ffa897d0a2102fc29039cc3e89d73a6393096d9c937fe6dd230a37ff2b34df5da561558ce0b5a52ae"], "sequence": 2149343805, "scriptSig": {"hex": "", "asm": ""}, "vout": 1, "txid": "865d77348aa0e1b3d2e47dec606774c325efae813bc7cd7769f92e62a7dcf79e"}], "txid": "70550276e09c4b007c4bda7b155bf47427922af11fe78fe6efffde5b0d27f132", "blocktime": 1537873891, "version": 2, "confirmations": 11478, "time": 1537873891, "locktime": 549125871, "vsize": 138, "size": 303}