{"hash": "c70d3aadaff973f2d9ee3219ab661f54e94270947e382ab3ce67bfb6e6e213d4", "blockhash": "00000000000000000017f5eb5941039fbcee6240d03bc1f2f8e35350df66a1d8", "vout": [{"scriptPubKey": {"reqSigs": 1, "hex": "00142ad69741652ab12a9f7749c2e9c2e929a1e0db04", "addresses": ["bc1q9ttfwst992cj48mhf8pwnshf9xs7pkcy8qen2h"], "asm": "0 2ad69741652ab12a9f7749c2e9c2e929a1e0db04", "type": "witness_v0_keyhash"}, "value": 4.077e-05, "n": 0}, {"scriptPubKey": {"reqSigs": 1, "hex": "76a9146afed692aefc92b2eac317cdceebd5b732c5a7f688ac", "addresses": ["1AkjuoTBuhQR6yCdQHrAR3rb4hB7vpygn7"], "asm": "OP_DUP OP_HASH160 6afed692aefc92b2eac317cdceebd5b732c5a7f6 OP_EQUALVERIFY OP_CHECKSIG", "type": "pubkeyhash"}, "value": 0.00202019, "n": 1}], "hex": "01000000000101e8b902c96c4e67cd70044ee07eaf574f4f1032a7048d7513aa4a21c8a3fef71300000000171600140564e6f420cdd09ec68cd1514391626918c9ab65ffffffff02ed0f0000000000001600142ad69741652ab12a9f7749c2e9c2e929a1e0db0423150300000000001976a9146afed692aefc92b2eac317cdceebd5b732c5a7f688ac02483045022100ef873bc66a33e53c8e4d26624c2ddb16cb6f504e622812e01b78b57abbf143850220679f9b4e861469a0628fb59bb103b2557158ee95795b12df4da3f216f64a049b012103a8eb5dd41385eda1d49abf5c1f89bf8c4965e2a4f7e17c54af1da92ee92895c200000000", "vin": [{"txinwitness": ["3045022100ef873bc66a33e53c8e4d26624c2ddb16cb6f504e622812e01b78b57abbf143850220679f9b4e861469a0628fb59bb103b2557158ee95795b12df4da3f216f64a049b01", "03a8eb5dd41385eda1d49abf5c1f89bf8c4965e2a4f7e17c54af1da92ee92895c2"], "sequence": 4294967295, "scriptSig": {"hex": "1600140564e6f420cdd09ec68cd1514391626918c9ab65", "asm": "00140564e6f420cdd09ec68cd1514391626918c9ab65"}, "vout": 0, "txid": "13f7fea3c8214aaa13758d04a732104f4f57af7ee04e0470cd674e6cc902b9e8"}], "txid": "705ccb5841d0344212d31d52adbeb527032ba8ac98b53f3583c3d12f417c5a06", "blocktime": 1537874412, "version": 1, "confirmations": 11468, "time": 1537874412, "locktime": 0, "vsize": 167, "size": 249}