{"hash": "7063bc55b672c64fcb5491f8e2615ad525685512d856151b69e8700e1cecd918", "blockhash": "00000000000000000004ffacab907a6b429b9a5745fa0b75af4234bf69dd7176", "vout": [{"scriptPubKey": {"reqSigs": 1, "hex": "a914540065bb9724514f93ae20b162373c9d884411cf87", "addresses": ["39MBAGYr54Ms2vgU5t4fHgvcP4LRTmHpgB"], "asm": "OP_HASH160 540065bb9724514f93ae20b162373c9d884411cf OP_EQUAL", "type": "scripthash"}, "value": 0.0199184, "n": 0}], "hex": "0100000002daeadf8089b595369336ce9ad2492afa530140195fb7856c7620fe37a228d238000000006b483045022100e070fc5301ffe4c3c41bd0a57a10e93571155f67cd160a603602010036f807fa02202bf9cce245179bcb78617a93cb82e8f91b94a6cbb30a8a51fef45f5632a6a5c4012103986a813dd3a0cbf6cb7b7699ef5c3945ac51df6550d9d95e038ee18424080e46ffffffff8f9e15d37b891e7df92efe346e4148e7d2d79233a3e958a3308bb54f3adb0258010000006a4730440220400204ba42ef7893893807972356a4e39d6261dfc9e4e68cd7c514022de1bd1702203293f9e713ccb7239afbceea2ba21be710800d9573c8013ccc681de0a58665b8012103986a813dd3a0cbf6cb7b7699ef5c3945ac51df6550d9d95e038ee18424080e46ffffffff01a0641e000000000017a914540065bb9724514f93ae20b162373c9d884411cf8700000000", "vin": [{"sequence": 4294967295, "scriptSig": {"hex": "483045022100e070fc5301ffe4c3c41bd0a57a10e93571155f67cd160a603602010036f807fa02202bf9cce245179bcb78617a93cb82e8f91b94a6cbb30a8a51fef45f5632a6a5c4012103986a813dd3a0cbf6cb7b7699ef5c3945ac51df6550d9d95e038ee18424080e46", "asm": "3045022100e070fc5301ffe4c3c41bd0a57a10e93571155f67cd160a603602010036f807fa02202bf9cce245179bcb78617a93cb82e8f91b94a6cbb30a8a51fef45f5632a6a5c4[ALL] 03986a813dd3a0cbf6cb7b7699ef5c3945ac51df6550d9d95e038ee18424080e46"}, "vout": 0, "txid": "38d228a237fe20766c85b75f19400153fa2a49d29ace36933695b58980dfeada"}, {"sequence": 4294967295, "scriptSig": {"hex": "4730440220400204ba42ef7893893807972356a4e39d6261dfc9e4e68cd7c514022de1bd1702203293f9e713ccb7239afbceea2ba21be710800d9573c8013ccc681de0a58665b8012103986a813dd3a0cbf6cb7b7699ef5c3945ac51df6550d9d95e038ee18424080e46", "asm": "30440220400204ba42ef7893893807972356a4e39d6261dfc9e4e68cd7c514022de1bd1702203293f9e713ccb7239afbceea2ba21be710800d9573c8013ccc681de0a58665b8[ALL] 03986a813dd3a0cbf6cb7b7699ef5c3945ac51df6550d9d95e038ee18424080e46"}, "vout": 1, "txid": "5802db3a4fb58b30a358e9a33392d7d2e748416e34fe2ef97d1e897bd3159e8f"}], "txid": "7063bc55b672c64fcb5491f8e2615ad525685512d856151b69e8700e1cecd918", "blocktime": 1537875543, "version": 1, "confirmations": 11464, "time": 1537875543, "locktime": 0, "vsize": 337, "size": 337}