{"hash": "0adfb8ab55ba8a701aed5d2f69681d0400a71196ea7ca561c1d4b1c419a68eeb", "blockhash": "00000000000000000018f53835495a110e01622372bf6ae95dc86f2b0ab887b0", "vout": [{"scriptPubKey": {"reqSigs": 1, "hex": "a9143f4ad2bf1ae2a1abec7031d838b22c58b982db3b87", "addresses": ["37Tg8SN83feBB9pta68TWYGMfZu4TzoEN4"], "asm": "OP_HASH160 3f4ad2bf1ae2a1abec7031d838b22c58b982db3b OP_EQUAL", "type": "scripthash"}, "value": 0.01794747, "n": 0}, {"scriptPubKey": {"reqSigs": 1, "hex": "a91469f3769a5d4dbd75dd7fe0e1e34b1198a56de00a87", "addresses": ["3BMEXp49xXNDC1TqSMzNDtwwBTW8S9SF2o"], "asm": "OP_HASH160 69f3769a5d4dbd75dd7fe0e1e34b1198a56de00a OP_EQUAL", "type": "scripthash"}, "value": 0.021477, "n": 1}], "hex": "02000000000101de567b50b6a4993e3fdbb5beb283e6a6d04c66dd4cad978c017a936ee51437b50100000017160014afe8abce0ca739fed2178fb7fed841ad2eb599f7feffffff02bb621b000000000017a9143f4ad2bf1ae2a1abec7031d838b22c58b982db3b8774c520000000000017a91469f3769a5d4dbd75dd7fe0e1e34b1198a56de00a87024730440220468b5494ddc05fab3ea258cc43be8e53484e2f0431871d7cf5da56f55e4f062202200d3cf25e021ebeb165a75b9926f8e0aad70c21da01b53a86b04c3af195335eb8012103216fe159f01a0eb846e072b23eeaf50235e0a47277d6c507dfd433ef3604d8150e490800", "vin": [{"txinwitness": ["30440220468b5494ddc05fab3ea258cc43be8e53484e2f0431871d7cf5da56f55e4f062202200d3cf25e021ebeb165a75b9926f8e0aad70c21da01b53a86b04c3af195335eb801", "03216fe159f01a0eb846e072b23eeaf50235e0a47277d6c507dfd433ef3604d815"], "sequence": 4294967294, "scriptSig": {"hex": "160014afe8abce0ca739fed2178fb7fed841ad2eb599f7", "asm": "0014afe8abce0ca739fed2178fb7fed841ad2eb599f7"}, "vout": 1, "txid": "b53714e56e937a018c97ad4cdd664cd0a6e683b2beb5db3f3e99a4b6507b56de"}], "txid": "7069c7be7f073599a981213e6c3b31f92cc4d66e6a5cff1d988291edd373a6dd", "blocktime": 1537870928, "version": 2, "confirmations": 11512, "time": 1537870928, "locktime": 542990, "vsize": 166, "size": 247}