{"hash": "706aa7a874c918926c1bde8f27139b8b5af6369c0c70d01464589194f944417a", "blockhash": "0000000000000000001f0ddff1eddb255c1121bcd4da4f1bc9a0da00cae72433", "vout": [{"scriptPubKey": {"reqSigs": 1, "hex": "76a91404f6c024d0f476d8fa49e2a6a195bc41c30b2a4588ac", "addresses": ["1TFJJDq8kdiHHftCmdjGzCfhQk1ET9VZt"], "asm": "OP_DUP OP_HASH160 04f6c024d0f476d8fa49e2a6a195bc41c30b2a45 OP_EQUALVERIFY OP_CHECKSIG", "type": "pubkeyhash"}, "value": 0.00021169, "n": 0}, {"scriptPubKey": {"type": "nulldata", "hex": "6a4c50000077a800019ced688062614485db9295a9af6c953dd567cf27e7e3ef3236678a62509742e86036d52a6e8682b50b2283a1b8c35baa0fd8061357a0a40943224bbf23acfcfaac8058b692fe6808c31d", "asm": "OP_RETURN 000077a800019ced688062614485db9295a9af6c953dd567cf27e7e3ef3236678a62509742e86036d52a6e8682b50b2283a1b8c35baa0fd8061357a0a40943224bbf23acfcfaac8058b692fe6808c31d"}, "value": 0.0, "n": 1}], "hex": "0100000001d2e9d26815480a24450ea2e3efae38923153705efb14a6f1cd845edc126e7f7b010000006b483045022100b30476b960cb6280308102cc333da12d268a0c300066fd04a89f3d1394ccb82702205c7654f5ed6797e1950ceb5bde9ee11abad2c7263a28c44d5293548ffaa57c4b012102c3a3199ced7ad1f9c1721883c0b93ed29c1f948f491e22abf88e54d31ed39560ffffffff02b1520000000000001976a91404f6c024d0f476d8fa49e2a6a195bc41c30b2a4588ac0000000000000000536a4c50000077a800019ced688062614485db9295a9af6c953dd567cf27e7e3ef3236678a62509742e86036d52a6e8682b50b2283a1b8c35baa0fd8061357a0a40943224bbf23acfcfaac8058b692fe6808c31d00000000", "vin": [{"sequence": 4294967295, "scriptSig": {"hex": "483045022100b30476b960cb6280308102cc333da12d268a0c300066fd04a89f3d1394ccb82702205c7654f5ed6797e1950ceb5bde9ee11abad2c7263a28c44d5293548ffaa57c4b012102c3a3199ced7ad1f9c1721883c0b93ed29c1f948f491e22abf88e54d31ed39560", "asm": "3045022100b30476b960cb6280308102cc333da12d268a0c300066fd04a89f3d1394ccb82702205c7654f5ed6797e1950ceb5bde9ee11abad2c7263a28c44d5293548ffaa57c4b[ALL] 02c3a3199ced7ad1f9c1721883c0b93ed29c1f948f491e22abf88e54d31ed39560"}, "vout": 1, "txid": "7b7f6e12dc5e84cdf1a614fb5e7053319238aeefe3a20e45240a481568d2e9d2"}], "txid": "706aa7a874c918926c1bde8f27139b8b5af6369c0c70d01464589194f944417a", "blocktime": 1537872018, "version": 1, "confirmations": 11489, "time": 1537872018, "locktime": 0, "vsize": 284, "size": 284}