{"hash": "02d1b2e9c1bb682318c831653deeeaf56dd0704ae2df0b53e2fe5bc45237fb80", "blockhash": "0000000000000000001f0ddff1eddb255c1121bcd4da4f1bc9a0da00cae72433", "vout": [{"scriptPubKey": {"reqSigs": 1, "hex": "76a9149a1b8f9b1fa2d2297863adb1cb11c71df455684888ac", "addresses": ["1F3r5We2zwNiSzG6GQUTTWnnPMCz2HJbJu"], "asm": "OP_DUP OP_HASH160 9a1b8f9b1fa2d2297863adb1cb11c71df4556848 OP_EQUALVERIFY OP_CHECKSIG", "type": "pubkeyhash"}, "value": 2.742e-05, "n": 0}, {"scriptPubKey": {"reqSigs": 1, "hex": "a914e8db75c900cf08f06518e96d167331f2a4abfb3387", "addresses": ["3NvFbQMAkkqEFj4i1sYPPLkSWzxTFUchjA"], "asm": "OP_HASH160 e8db75c900cf08f06518e96d167331f2a4abfb33 OP_EQUAL", "type": "scripthash"}, "value": 9.694e-05, "n": 1}], "hex": "0100000000010122ac00ebadae5a4ac38207ff92c18b8bb9360244d28dc41dc71e5ecf7013efaa0000000023220020941cfaff8837763dc1f69ff82b6d6553fdea17a41cfc29a04403293eedd8ccc7ffffffff02b60a0000000000001976a9149a1b8f9b1fa2d2297863adb1cb11c71df455684888acde2500000000000017a914e8db75c900cf08f06518e96d167331f2a4abfb33870400483045022100f5dc3f69b28026b02af5c61497e9575b96ee6b43d8d8eb7ede9b91ed6352bc2002207fe641d3c651e7a0fcd53ea47b26182716b5641e1e52b1214c878bd7deda721201483045022100ac24dd8c5a9831df217fd4f03f9476e18c27781288939ed72b46d77d92f4898302207904cefd2c140c011958cb751801e8e7d3b481351cf1efea92ee3cf56d2bf5480147522102531db3a5883f29bab4241dd0cd726936667bcda445d89bdd22244e828b6993342103148c80a5bdfddb05ff5bcffc397c8ca748d8b435ec6a175bc9d7bfc7fc6f853752ae00000000", "vin": [{"txinwitness": ["", "3045022100f5dc3f69b28026b02af5c61497e9575b96ee6b43d8d8eb7ede9b91ed6352bc2002207fe641d3c651e7a0fcd53ea47b26182716b5641e1e52b1214c878bd7deda721201", "3045022100ac24dd8c5a9831df217fd4f03f9476e18c27781288939ed72b46d77d92f4898302207904cefd2c140c011958cb751801e8e7d3b481351cf1efea92ee3cf56d2bf54801", "522102531db3a5883f29bab4241dd0cd726936667bcda445d89bdd22244e828b6993342103148c80a5bdfddb05ff5bcffc397c8ca748d8b435ec6a175bc9d7bfc7fc6f853752ae"], "sequence": 4294967295, "scriptSig": {"hex": "220020941cfaff8837763dc1f69ff82b6d6553fdea17a41cfc29a04403293eedd8ccc7", "asm": "0020941cfaff8837763dc1f69ff82b6d6553fdea17a41cfc29a04403293eedd8ccc7"}, "vout": 0, "txid": "aaef1370cf5e1ec71dc48dd2440236b98b8bc192ff0782c34a5aaeadeb00ac22"}], "txid": "706b0dd96d2531ff6b3fb945dcbd0bf5b26b14ef30630c8f1e2103358bd9f841", "blocktime": 1537872018, "version": 1, "confirmations": 11489, "time": 1537872018, "locktime": 0, "vsize": 208, "size": 374}