{"hash": "08a6f432e99b47bbba0fdcd7a1bf6383dbd4adfcf481e2a06f76924bd1b689a1", "blockhash": "0000000000000000000baef3f32e3676a92c3b2e5da21b426e4f302fc371ce76", "vout": [{"scriptPubKey": {"reqSigs": 1, "hex": "76a9140b9deea494c9009e754583417e5431e8bf4c0af888ac", "addresses": ["124RdS3BZnYMDS81pVDsFxQgfP4sqBHVka"], "asm": "OP_DUP OP_HASH160 0b9deea494c9009e754583417e5431e8bf4c0af8 OP_EQUALVERIFY OP_CHECKSIG", "type": "pubkeyhash"}, "value": 0.02, "n": 0}, {"scriptPubKey": {"reqSigs": 1, "hex": "a914f119aa36265a84dca3630b9cbe4c00f60a57b0a887", "addresses": ["3PfqX174UyaaaPe7DNkqvihK5gPXgbVaW2"], "asm": "OP_HASH160 f119aa36265a84dca3630b9cbe4c00f60a57b0a8 OP_EQUAL", "type": "scripthash"}, "value": 0.01006651, "n": 1}], "hex": "02000000000101ee6444dd614f6a45a605cbf3ee736192e1b851d0421d99c9c904f0b6db7314312c0000001716001445d0199f63f5d3bf3c57af15b680b9df3bc3f778feffffff0280841e00000000001976a9140b9deea494c9009e754583417e5431e8bf4c0af888ac3b5c0f000000000017a914f119aa36265a84dca3630b9cbe4c00f60a57b0a8870247304402206eb94c01acd63684b01e0f2e67c64a6150b425343dd88b10e1c3cb36785e576c02201057492571376fbac5d6fa19719f2a867f1d32a0803ebf94188a696efad594a0012102f61e781038de719a3b1693013de768ffd8a7cc4427142efb3bf8f867e41c96fb16490800", "vin": [{"txinwitness": ["304402206eb94c01acd63684b01e0f2e67c64a6150b425343dd88b10e1c3cb36785e576c02201057492571376fbac5d6fa19719f2a867f1d32a0803ebf94188a696efad594a001", "02f61e781038de719a3b1693013de768ffd8a7cc4427142efb3bf8f867e41c96fb"], "sequence": 4294967294, "scriptSig": {"hex": "16001445d0199f63f5d3bf3c57af15b680b9df3bc3f778", "asm": "001445d0199f63f5d3bf3c57af15b680b9df3bc3f778"}, "vout": 44, "txid": "311473dbb6f004c9c9991d42d051b8e1926173eef3cb05a6456a4f61dd4464ee"}], "txid": "706c2ac265a6a7d31039ee24e95c6cc478b31e4b6ef481d583b94c8fa5170d65", "blocktime": 1537876114, "version": 2, "confirmations": 11460, "time": 1537876114, "locktime": 542998, "vsize": 168, "size": 249}