{"hash": "9a670e12d0e92a167941ea9a82831d91b0400a71152b2f0c64e8c78b57a81f3a", "blockhash": "0000000000000000000baef3f32e3676a92c3b2e5da21b426e4f302fc371ce76", "vout": [{"scriptPubKey": {"reqSigs": 1, "hex": "76a914babdffe3aaffdf39a3e62251bceae5b66e94e8a488ac", "addresses": ["1J2QJ5kNJSyqaSoS2Hvby9e3MoAQspEzs9"], "asm": "OP_DUP OP_HASH160 babdffe3aaffdf39a3e62251bceae5b66e94e8a4 OP_EQUALVERIFY OP_CHECKSIG", "type": "pubkeyhash"}, "value": 0.01605455, "n": 0}, {"scriptPubKey": {"reqSigs": 1, "hex": "a9146642d0896f73f4d2a90e99da5b3db7f7906818ab87", "addresses": ["3B1itUDVrEtkeN25CNmi1UTa2ruCzkcBYG"], "asm": "OP_HASH160 6642d0896f73f4d2a90e99da5b3db7f7906818ab OP_EQUAL", "type": "scripthash"}, "value": 3.8081297, "n": 1}], "hex": "020000000001014f9971f1b23794b3e49b3cedf27a164e9c456a6275b7293188223d0323778b99010000001716001486ac89ac9151350bda6c72c21d150cb651bfbd64fdffffff024f7f1800000000001976a914babdffe3aaffdf39a3e62251bceae5b66e94e8a488acaabeb2160000000017a9146642d0896f73f4d2a90e99da5b3db7f7906818ab870247304402206e3347ab3138c8503fdb09a4bc995893a8fd86ad20d479beb956b28b89614e0a0220074f4dbd034a98cabba4fffb9e2bd2e59a8a9fa4f78048fe63c396d7d955952301210355828ad7b9a7a1228a6d81fc016f12a99c876cc8bd792f27a44f0ccf4b1fab6c16490800", "vin": [{"txinwitness": ["304402206e3347ab3138c8503fdb09a4bc995893a8fd86ad20d479beb956b28b89614e0a0220074f4dbd034a98cabba4fffb9e2bd2e59a8a9fa4f78048fe63c396d7d955952301", "0355828ad7b9a7a1228a6d81fc016f12a99c876cc8bd792f27a44f0ccf4b1fab6c"], "sequence": 4294967293, "scriptSig": {"hex": "16001486ac89ac9151350bda6c72c21d150cb651bfbd64", "asm": "001486ac89ac9151350bda6c72c21d150cb651bfbd64"}, "vout": 1, "txid": "998b7723033d22883129b775626a459c4e167af2ed3c9be4b39437b2f171994f"}], "txid": "707a76630285337ca82c05514b24787fa81a0d46101c7c22821da0bb8af2064e", "blocktime": 1537876114, "version": 2, "confirmations": 11460, "time": 1537876114, "locktime": 542998, "vsize": 168, "size": 249}