{"hash": "708159b5b297282b27d01220267b6984cc1e22db14e54e7a4d256bb32710735e", "blockhash": "00000000000000000004ffacab907a6b429b9a5745fa0b75af4234bf69dd7176", "vout": [{"scriptPubKey": {"reqSigs": 1, "hex": "76a914fbf9d6ce48f867f8d81390c830e361d6f9439df888ac", "addresses": ["1PyKuGriFo1ViDFgzSH7MKmsXgU1EDupK2"], "asm": "OP_DUP OP_HASH160 fbf9d6ce48f867f8d81390c830e361d6f9439df8 OP_EQUALVERIFY OP_CHECKSIG", "type": "pubkeyhash"}, "value": 0.008, "n": 0}, {"scriptPubKey": {"reqSigs": 1, "hex": "76a914feaafa4e0707f29926056063d5935944190973a888ac", "addresses": ["1QDZTU7bbtTzAcLpkGcTRdPCRTLJqH34HY"], "asm": "OP_DUP OP_HASH160 feaafa4e0707f29926056063d5935944190973a8 OP_EQUALVERIFY OP_CHECKSIG", "type": "pubkeyhash"}, "value": 0.09977566, "n": 1}], "hex": "01000000012a11d093839f847cf0bc2b831a677b9ae0393f579b7d45de1c1389d56d85b54d010000006b483045022100db551ed8423d3ace109d6464e843c1d87910690cf24f9c528d5302c5efd083180220064987d3ba3ff6586e73ef816b0c135c3b6fa5744a9ba5e979834951720a1c0901210366db5408c9d59e7edab77e3e8679193938ffdfcb3e7e85c8404d3531e776261cffffffff0200350c00000000001976a914fbf9d6ce48f867f8d81390c830e361d6f9439df888acde3e9800000000001976a914feaafa4e0707f29926056063d5935944190973a888ac00000000", "vin": [{"sequence": 4294967295, "scriptSig": {"hex": "483045022100db551ed8423d3ace109d6464e843c1d87910690cf24f9c528d5302c5efd083180220064987d3ba3ff6586e73ef816b0c135c3b6fa5744a9ba5e979834951720a1c0901210366db5408c9d59e7edab77e3e8679193938ffdfcb3e7e85c8404d3531e776261c", "asm": "3045022100db551ed8423d3ace109d6464e843c1d87910690cf24f9c528d5302c5efd083180220064987d3ba3ff6586e73ef816b0c135c3b6fa5744a9ba5e979834951720a1c09[ALL] 0366db5408c9d59e7edab77e3e8679193938ffdfcb3e7e85c8404d3531e776261c"}, "vout": 1, "txid": "4db5856dd589131cde457d9b573f39e09a7b671a832bbcf07c849f8393d0112a"}], "txid": "708159b5b297282b27d01220267b6984cc1e22db14e54e7a4d256bb32710735e", "blocktime": 1537875543, "version": 1, "confirmations": 11464, "time": 1537875543, "locktime": 0, "vsize": 226, "size": 226}