{"hash": "2c68bc4f2ac51a59ea45927907e2938b7bcabb32c6fae65ac0efecdb323e1e1f", "blockhash": "000000000000000000022b45ed06c6f4ccd3cf7fb5ba4856ebd2e58215665228", "vout": [{"scriptPubKey": {"reqSigs": 1, "hex": "0014f5671f64ec39db78aa5c71cee40cab02a5665ead", "addresses": ["bc1q74n37e8v88dh32juw88wgr9tq2jkvh4dm30lpl"], "asm": "0 f5671f64ec39db78aa5c71cee40cab02a5665ead", "type": "witness_v0_keyhash"}, "value": 0.00191891, "n": 0}, {"scriptPubKey": {"reqSigs": 1, "hex": "76a914afd38a4970e5574f2bc27dd7fe92dd7fb600266288ac", "addresses": ["1H2gfe7hHwYYsMHj8waBQ1a8x6uzKuY6NM"], "asm": "OP_DUP OP_HASH160 afd38a4970e5574f2bc27dd7fe92dd7fb6002662 OP_EQUALVERIFY OP_CHECKSIG", "type": "pubkeyhash"}, "value": 0.00808115, "n": 1}], "hex": "010000000001017ed575207e2096d47070245e9849b53f18f7fc0d103b0a5006f0510adaf1b57001000000171600140f45fab8720d60ef16a235b3368758b30ddf7604ffffffff0293ed020000000000160014f5671f64ec39db78aa5c71cee40cab02a5665eadb3540c00000000001976a914afd38a4970e5574f2bc27dd7fe92dd7fb600266288ac02483045022100fc0aaba04f38891fe151c88be2e333ba20d3f298363b011f544881ffa8c8b13b02207fe55865e87a8846f9b93e8e10b323aa95c4631d80c347f60c5363005bb673d3012103bbee72d756c90bd45cd800098757be080ab0a743c12c0c4e2e59f87cceb6067900000000", "vin": [{"txinwitness": ["3045022100fc0aaba04f38891fe151c88be2e333ba20d3f298363b011f544881ffa8c8b13b02207fe55865e87a8846f9b93e8e10b323aa95c4631d80c347f60c5363005bb673d301", "03bbee72d756c90bd45cd800098757be080ab0a743c12c0c4e2e59f87cceb60679"], "sequence": 4294967295, "scriptSig": {"hex": "1600140f45fab8720d60ef16a235b3368758b30ddf7604", "asm": "00140f45fab8720d60ef16a235b3368758b30ddf7604"}, "vout": 1, "txid": "70b5f1da0a51f006500a3b100dfcf7183fb549985e247070d496207e2075d57e"}], "txid": "708221d1b6621839bd5b2cd61bbbbbb63cbaef156d662769c2e8188152f0096b", "blocktime": 1537869901, "version": 1, "confirmations": 11523, "time": 1537869901, "locktime": 0, "vsize": 167, "size": 249}