{"hash": "34d7fc23ca0b48ace80735bcc5f1cb8bcec7b5def1427b6a33026aef0e057563", "blockhash": "00000000000000000017f5eb5941039fbcee6240d03bc1f2f8e35350df66a1d8", "vout": [{"scriptPubKey": {"reqSigs": 1, "hex": "a91474ed9bbc227e05ff668a9c271ad9b071cdaa977c87", "addresses": ["3CMGx7WAnmAmBgE4j4SU2e4tdGT77acNjp"], "asm": "OP_HASH160 74ed9bbc227e05ff668a9c271ad9b071cdaa977c OP_EQUAL", "type": "scripthash"}, "value": 0.004732, "n": 0}, {"scriptPubKey": {"reqSigs": 1, "hex": "76a914e201a502f62fff0d75575f8848df6cdf30aae7d788ac", "addresses": ["1Mc1gd1Y8qdShadG2eRFSQMnnM5NVZQadQ"], "asm": "OP_DUP OP_HASH160 e201a502f62fff0d75575f8848df6cdf30aae7d7 OP_EQUALVERIFY OP_CHECKSIG", "type": "pubkeyhash"}, "value": 0.713645, "n": 1}, {"scriptPubKey": {"reqSigs": 1, "hex": "a9148c446f98e0cd00ab76a18d90f2a8e1244c30385087", "addresses": ["3EUgWQphAK3pAX3YJHYGcJJTcGFU5zv1kX"], "asm": "OP_HASH160 8c446f98e0cd00ab76a18d90f2a8e1244c303850 OP_EQUAL", "type": "scripthash"}, "value": 1.25011492, "n": 2}], "hex": "0200000000010179d3deb10c9a728c26072c095c95431deda40072e8f28c6d0c0c7164ef12ae870000000017160014b198a80257258fbd3b96c7537f7a8d5b1cc335defeffffff03703807000000000017a91474ed9bbc227e05ff668a9c271ad9b071cdaa977c8794ef4004000000001976a914e201a502f62fff0d75575f8848df6cdf30aae7d788ac248673070000000017a9148c446f98e0cd00ab76a18d90f2a8e1244c3038508702473044022071d146ff7c3ada57c9d5d60cbdf06d3ec3e158300777b9c749d8d054ecc5802b0220116acb1a31fb76c4ab8d2d729f3406492980a22ea052917f4255108151aeddb1012103438ca17a3185faae0359ee4183343830497e821b4a9e24770ff75b4a6d795841d6480800", "vin": [{"txinwitness": ["3044022071d146ff7c3ada57c9d5d60cbdf06d3ec3e158300777b9c749d8d054ecc5802b0220116acb1a31fb76c4ab8d2d729f3406492980a22ea052917f4255108151aeddb101", "03438ca17a3185faae0359ee4183343830497e821b4a9e24770ff75b4a6d795841"], "sequence": 4294967294, "scriptSig": {"hex": "160014b198a80257258fbd3b96c7537f7a8d5b1cc335de", "asm": "0014b198a80257258fbd3b96c7537f7a8d5b1cc335de"}, "vout": 0, "txid": "87ae12ef64710c0c6d8cf2e87200a4ed1d43955c092c07268c729a0cb1ded379"}], "txid": "708379e0ddd1eb601a6f340de8d53fe79616436221ca6cf49c73ce1469d613d0", "blocktime": 1537874412, "version": 2, "confirmations": 11467, "time": 1537874412, "locktime": 542934, "vsize": 200, "size": 281}