{"hash": "7084391864a7903cf040588388e46ed07e230f43d7d29f789a90d236c6785cb6", "blockhash": "0000000000000000000baef3f32e3676a92c3b2e5da21b426e4f302fc371ce76", "vout": [{"scriptPubKey": {"type": "nulldata", "hex": "6a4c500000780d0001c78d17027948b65dd7fe9479702940d64fa54d8eb2d19ed074892d00f8e8f7d41f3189e6396d7460ecffa621c2e45baa1b3506145033477435ec1d100759d4ba30d2c37bb011d97e02cf", "asm": "OP_RETURN 0000780d0001c78d17027948b65dd7fe9479702940d64fa54d8eb2d19ed074892d00f8e8f7d41f3189e6396d7460ecffa621c2e45baa1b3506145033477435ec1d100759d4ba30d2c37bb011d97e02cf"}, "value": 0.0, "n": 0}, {"scriptPubKey": {"reqSigs": 1, "hex": "76a9148269f45b8fb3c5a5e82ece6ea9f16f5cd7fb9ae088ac", "addresses": ["1CtZmnfBhkWhvx2gRvwXiurTSEZ7Evmdz5"], "asm": "OP_DUP OP_HASH160 8269f45b8fb3c5a5e82ece6ea9f16f5cd7fb9ae0 OP_EQUALVERIFY OP_CHECKSIG", "type": "pubkeyhash"}, "value": 0.00631375, "n": 1}], "hex": "0100000001365c8a4acc44a7792378dcefc2e169aed976d9ad7eca909c9c8c75e5e747e225010000006b483045022100f21c725152c91fb2c83f1ed60bacd1627464d0a90ed2ffdb1387cb27b821253802202bc6321797a63f76958cf42c38a786079c617dc7edc91bbd3c84717e4cd1e91a012103f9263978e4b6e792b33e0cb875f91109e1b8b7a76b2582ccc99ae0bee10b647dffffffff020000000000000000536a4c500000780d0001c78d17027948b65dd7fe9479702940d64fa54d8eb2d19ed074892d00f8e8f7d41f3189e6396d7460ecffa621c2e45baa1b3506145033477435ec1d100759d4ba30d2c37bb011d97e02cf4fa20900000000001976a9148269f45b8fb3c5a5e82ece6ea9f16f5cd7fb9ae088ac00000000", "vin": [{"sequence": 4294967295, "scriptSig": {"hex": "483045022100f21c725152c91fb2c83f1ed60bacd1627464d0a90ed2ffdb1387cb27b821253802202bc6321797a63f76958cf42c38a786079c617dc7edc91bbd3c84717e4cd1e91a012103f9263978e4b6e792b33e0cb875f91109e1b8b7a76b2582ccc99ae0bee10b647d", "asm": "3045022100f21c725152c91fb2c83f1ed60bacd1627464d0a90ed2ffdb1387cb27b821253802202bc6321797a63f76958cf42c38a786079c617dc7edc91bbd3c84717e4cd1e91a[ALL] 03f9263978e4b6e792b33e0cb875f91109e1b8b7a76b2582ccc99ae0bee10b647d"}, "vout": 1, "txid": "25e247e7e5758c9c9c90ca7eadd976d9ae69e1c2efdc782379a744cc4a8a5c36"}], "txid": "7084391864a7903cf040588388e46ed07e230f43d7d29f789a90d236c6785cb6", "blocktime": 1537876114, "version": 1, "confirmations": 11463, "time": 1537876114, "locktime": 0, "vsize": 284, "size": 284}