{"hash": "70859ab494fc43ba706807f5211cf9b31232cc70b76a6eef7c1ace2e9ef13f69", "blockhash": "00000000000000000017f5eb5941039fbcee6240d03bc1f2f8e35350df66a1d8", "vout": [{"scriptPubKey": {"reqSigs": 1, "hex": "a914a6b064c88f42e9235c0d47fde218b9abf8a4257d87", "addresses": ["3GtPQSE22Mz7R2KcJqnKcDLhdsgkRoRHkj"], "asm": "OP_HASH160 a6b064c88f42e9235c0d47fde218b9abf8a4257d OP_EQUAL", "type": "scripthash"}, "value": 0.1, "n": 0}, {"scriptPubKey": {"reqSigs": 1, "hex": "76a914d734ea5a4750c8645c74c490249c7a21beffb47088ac", "addresses": ["1Lcufsczto3kPvuYgnbQDHkuyPSVKadJHW"], "asm": "OP_DUP OP_HASH160 d734ea5a4750c8645c74c490249c7a21beffb470 OP_EQUALVERIFY OP_CHECKSIG", "type": "pubkeyhash"}, "value": 0.24398813, "n": 1}], "hex": "0100000001e703efd6166fc6734f60c1b1b0c495229cd29ac259e3613ddf2d7025870e9ad71c0000006a473044022002d52e25ae44bf1f5bdbd9e87e48eee8f5bd5c43a09e05d2d51c301b3f7e1b9a022079d14a52a63045b09152e91b7d632b2393a2705bf7b3b0a38d817f011c37b0100121037090339cb59ec1724a9addf9b31e2842f4c420cddd3482f1da645224b6229d85fdffffff02809698000000000017a914a6b064c88f42e9235c0d47fde218b9abf8a4257d87dd4b7401000000001976a914d734ea5a4750c8645c74c490249c7a21beffb47088ac15490800", "vin": [{"sequence": 4294967293, "scriptSig": {"hex": "473044022002d52e25ae44bf1f5bdbd9e87e48eee8f5bd5c43a09e05d2d51c301b3f7e1b9a022079d14a52a63045b09152e91b7d632b2393a2705bf7b3b0a38d817f011c37b0100121037090339cb59ec1724a9addf9b31e2842f4c420cddd3482f1da645224b6229d85", "asm": "3044022002d52e25ae44bf1f5bdbd9e87e48eee8f5bd5c43a09e05d2d51c301b3f7e1b9a022079d14a52a63045b09152e91b7d632b2393a2705bf7b3b0a38d817f011c37b010[ALL] 037090339cb59ec1724a9addf9b31e2842f4c420cddd3482f1da645224b6229d85"}, "vout": 28, "txid": "d79a0e8725702ddf3d61e359c29ad29c2295c4b0b1c1604f73c66f16d6ef03e7"}], "txid": "70859ab494fc43ba706807f5211cf9b31232cc70b76a6eef7c1ace2e9ef13f69", "blocktime": 1537874412, "version": 1, "confirmations": 11467, "time": 1537874412, "locktime": 542997, "vsize": 223, "size": 223}