{"hash": "7086131c227fe812ec8cc5d1f554bd958a146d12bcd9b921c4cc362bbbeec267", "blockhash": "0000000000000000001f0ddff1eddb255c1121bcd4da4f1bc9a0da00cae72433", "vout": [{"scriptPubKey": {"reqSigs": 1, "hex": "a9148e32f754a04a920f423f9f07810cd2bddd515e0587", "addresses": ["3EetvyNozqkqED753rgzmeBkrLcshfzV59"], "asm": "OP_HASH160 8e32f754a04a920f423f9f07810cd2bddd515e05 OP_EQUAL", "type": "scripthash"}, "value": 0.02383, "n": 0}, {"scriptPubKey": {"reqSigs": 1, "hex": "76a914e037b6255a3cb3354f14fe1bb1c1f3d21933a65988ac", "addresses": ["1MSZ6sfAS26CAiusY5nkKhmjZ3vpWbWKdt"], "asm": "OP_DUP OP_HASH160 e037b6255a3cb3354f14fe1bb1c1f3d21933a659 OP_EQUALVERIFY OP_CHECKSIG", "type": "pubkeyhash"}, "value": 0.0118346, "n": 1}], "hex": "020000000209eccb4c4fa335a983efa567f68998e4d5d1fc88c1cb53c09cefa329c5581b87000000006b4830450221008f432cdda2fb15b6b5963c2c5568499469e2783e5e3ad4631b0d1c51f03f8fc102204db06f24d6b0f0b96946d323df4ef66b216a98b5c8b82d5db8887345907fc086012103010ef1c5cbc1fee2b7de55e33bf716cf255dfa732ae5ff40fdbfd5cc438b4940feffffff1e74d3ac4add5fc2e93dc086713109f40373bf3642fd22ddf89ef5e28efa4b48010000006a47304402204fe7d8ca1b954d8a38c8bbb266c2d681df32810788e8c32aca54ee440762026f02203f2e845a9137a9d4e803c5608e5ee2de5803ab2d4eeb6b32164691f82cef82c001210258020f8ff2c34d6ed069e797d54c853a7e1eac259ba6c1eb3e62535c562ae547feffffff02985c24000000000017a9148e32f754a04a920f423f9f07810cd2bddd515e0587e40e1200000000001976a914e037b6255a3cb3354f14fe1bb1c1f3d21933a65988ac11490800", "vin": [{"sequence": 4294967294, "scriptSig": {"hex": "4830450221008f432cdda2fb15b6b5963c2c5568499469e2783e5e3ad4631b0d1c51f03f8fc102204db06f24d6b0f0b96946d323df4ef66b216a98b5c8b82d5db8887345907fc086012103010ef1c5cbc1fee2b7de55e33bf716cf255dfa732ae5ff40fdbfd5cc438b4940", "asm": "30450221008f432cdda2fb15b6b5963c2c5568499469e2783e5e3ad4631b0d1c51f03f8fc102204db06f24d6b0f0b96946d323df4ef66b216a98b5c8b82d5db8887345907fc086[ALL] 03010ef1c5cbc1fee2b7de55e33bf716cf255dfa732ae5ff40fdbfd5cc438b4940"}, "vout": 0, "txid": "871b58c529a3ef9cc053cbc188fcd1d5e49889f667a5ef83a935a34f4ccbec09"}, {"sequence": 4294967294, "scriptSig": {"hex": "47304402204fe7d8ca1b954d8a38c8bbb266c2d681df32810788e8c32aca54ee440762026f02203f2e845a9137a9d4e803c5608e5ee2de5803ab2d4eeb6b32164691f82cef82c001210258020f8ff2c34d6ed069e797d54c853a7e1eac259ba6c1eb3e62535c562ae547", "asm": "304402204fe7d8ca1b954d8a38c8bbb266c2d681df32810788e8c32aca54ee440762026f02203f2e845a9137a9d4e803c5608e5ee2de5803ab2d4eeb6b32164691f82cef82c0[ALL] 0258020f8ff2c34d6ed069e797d54c853a7e1eac259ba6c1eb3e62535c562ae547"}, "vout": 1, "txid": "484bfa8ee2f59ef8dd22fd4236bf7303f409317186c03de9c25fdd4aacd3741e"}], "txid": "7086131c227fe812ec8cc5d1f554bd958a146d12bcd9b921c4cc362bbbeec267", "blocktime": 1537872018, "version": 2, "confirmations": 11489, "time": 1537872018, "locktime": 542993, "vsize": 371, "size": 371}