{"hash": "708733c18c24c49383a62b0f3d67a36e3b2cd75e58bfcfad7b4c872b1dd3352f", "blockhash": "0000000000000000000dcc0f55137456b1a82d3642486a52398922ac4d620174", "vout": [{"scriptPubKey": {"reqSigs": 1, "hex": "76a914fe5c4fa73ceaf6d916da9276ceca65f13ed17cab88ac", "addresses": ["1QBwDciSJmRckWEXGZrZVpQmGxZukbKKMt"], "asm": "OP_DUP OP_HASH160 fe5c4fa73ceaf6d916da9276ceca65f13ed17cab OP_EQUALVERIFY OP_CHECKSIG", "type": "pubkeyhash"}, "value": 0.00243809, "n": 0}, {"scriptPubKey": {"reqSigs": 1, "hex": "76a91419fc62488c3da2a03009913fbe85439ed14303d388ac", "addresses": ["13NQEjoLaqtuzEuEkAhMNWretsYWJXKB51"], "asm": "OP_DUP OP_HASH160 19fc62488c3da2a03009913fbe85439ed14303d3 OP_EQUALVERIFY OP_CHECKSIG", "type": "pubkeyhash"}, "value": 0.01834599, "n": 1}], "hex": "0200000001f757d7b37433f8c2dcad7d87af4e48d8e8ee640313aa1035f0bb9d002e3e9729000000006a47304402207f600de01415faeb6545a73a7f079ae199a52be20e26d3323daef47082d69d2b022006cd9f993c4df7838fc01dd26bcd9ebda60d1d970a5805d71443763415a821110121025e10d1c69d1f23578538f4527063fbeb0cb5dc791c4728006b7b680fac909fdffdffffff0261b80300000000001976a914fe5c4fa73ceaf6d916da9276ceca65f13ed17cab88ac67fe1b00000000001976a91419fc62488c3da2a03009913fbe85439ed14303d388ac0c490800", "vin": [{"sequence": 4294967293, "scriptSig": {"hex": "47304402207f600de01415faeb6545a73a7f079ae199a52be20e26d3323daef47082d69d2b022006cd9f993c4df7838fc01dd26bcd9ebda60d1d970a5805d71443763415a821110121025e10d1c69d1f23578538f4527063fbeb0cb5dc791c4728006b7b680fac909fdf", "asm": "304402207f600de01415faeb6545a73a7f079ae199a52be20e26d3323daef47082d69d2b022006cd9f993c4df7838fc01dd26bcd9ebda60d1d970a5805d71443763415a82111[ALL] 025e10d1c69d1f23578538f4527063fbeb0cb5dc791c4728006b7b680fac909fdf"}, "vout": 0, "txid": "29973e2e009dbbf03510aa130364eee8d8484eaf877daddcc2f83374b3d757f7"}], "txid": "708733c18c24c49383a62b0f3d67a36e3b2cd75e58bfcfad7b4c872b1dd3352f", "blocktime": 1537870268, "version": 2, "confirmations": 11516, "time": 1537870268, "locktime": 542988, "vsize": 225, "size": 225}