{"hash": "708eb95c9c027763b3c335ba7fbe00d84347463aad314eb346d57085ff6c31d5", "blockhash": "00000000000000000018f53835495a110e01622372bf6ae95dc86f2b0ab887b0", "vout": [{"scriptPubKey": {"reqSigs": 1, "hex": "76a91436eac753a19fcd3241bf658c90004809f3e6e96f88ac", "addresses": ["161Nk4g3mXv3AXoTCoWZdrJFCtviD86C7M"], "asm": "OP_DUP OP_HASH160 36eac753a19fcd3241bf658c90004809f3e6e96f OP_EQUALVERIFY OP_CHECKSIG", "type": "pubkeyhash"}, "value": 0.26457312, "n": 0}, {"scriptPubKey": {"reqSigs": 1, "hex": "76a914b63dad99b4d8f79e4f8f6eb7389765edf4d1b6b888ac", "addresses": ["1HcbsPJUGATZTxVDK1KF8mSZrAnFVoCELu"], "asm": "OP_DUP OP_HASH160 b63dad99b4d8f79e4f8f6eb7389765edf4d1b6b8 OP_EQUALVERIFY OP_CHECKSIG", "type": "pubkeyhash"}, "value": 1.515, "n": 1}], "hex": "0100000003b145945afdf2ad92aca9684cbce7e4fa91e73661772d55a1bd39b3356c827750000000006b483045022100cf34aea9bf6f5e6f05f9d732e99cbc8d031bdeaa1c906463fd3567d2d41e038c02201ce7cd56a2e4125261d2c744b0752c30426f6b493574435cd4ae2034d98ea212012103c4a210ea8d13764c661c99306a45a25af15b74165aaf67a74c740bd41ed92c89ffffffff95eb466f2e359ed6610fbdfe650e1eb3b7557c7db0d9e37224d64a3099cad9a9030000006a473044022018c42cf8c444d1c87ca3aa9bf370f3b14e7969a044843c2f7c6ae6351c10f72d02204b0bf9e91346c0477e3cfddb520490721cfa3247fc4ecade9a6e40ddfe69b6fd012103726c13c5f977a91d87bddecd96f9375de74967de65a05c506c0dd19813f8989cffffffff2487bdf89a63edd1b9960eb8167488f52ea9edb4882824e5081cf714ff54a9b1000000006a473044022012fab1bc5822e286195778dadbe0eae282d6ce44e693da1f631cf0c852a231b302206cbca16f6184386a94baa563c08d47d902004e4b3fad39224546313aeb8195e801210319cd39c1723d1719dda127df2b74e7d2f6429190c26551790fcd9bfee88b8769ffffffff02e0b49301000000001976a91436eac753a19fcd3241bf658c90004809f3e6e96f88ace0b40709000000001976a914b63dad99b4d8f79e4f8f6eb7389765edf4d1b6b888ac00000000", "vin": [{"sequence": 4294967295, "scriptSig": {"hex": "483045022100cf34aea9bf6f5e6f05f9d732e99cbc8d031bdeaa1c906463fd3567d2d41e038c02201ce7cd56a2e4125261d2c744b0752c30426f6b493574435cd4ae2034d98ea212012103c4a210ea8d13764c661c99306a45a25af15b74165aaf67a74c740bd41ed92c89", "asm": "3045022100cf34aea9bf6f5e6f05f9d732e99cbc8d031bdeaa1c906463fd3567d2d41e038c02201ce7cd56a2e4125261d2c744b0752c30426f6b493574435cd4ae2034d98ea212[ALL] 03c4a210ea8d13764c661c99306a45a25af15b74165aaf67a74c740bd41ed92c89"}, "vout": 0, "txid": "5077826c35b339bda1552d776136e791fae4e7bc4c68a9ac92adf2fd5a9445b1"}, {"sequence": 4294967295, "scriptSig": {"hex": "473044022018c42cf8c444d1c87ca3aa9bf370f3b14e7969a044843c2f7c6ae6351c10f72d02204b0bf9e91346c0477e3cfddb520490721cfa3247fc4ecade9a6e40ddfe69b6fd012103726c13c5f977a91d87bddecd96f9375de74967de65a05c506c0dd19813f8989c", "asm": "3044022018c42cf8c444d1c87ca3aa9bf370f3b14e7969a044843c2f7c6ae6351c10f72d02204b0bf9e91346c0477e3cfddb520490721cfa3247fc4ecade9a6e40ddfe69b6fd[ALL] 03726c13c5f977a91d87bddecd96f9375de74967de65a05c506c0dd19813f8989c"}, "vout": 3, "txid": "a9d9ca99304ad62472e3d9b07d7c55b7b31e0e65febd0f61d69e352e6f46eb95"}, {"sequence": 4294967295, "scriptSig": {"hex": "473044022012fab1bc5822e286195778dadbe0eae282d6ce44e693da1f631cf0c852a231b302206cbca16f6184386a94baa563c08d47d902004e4b3fad39224546313aeb8195e801210319cd39c1723d1719dda127df2b74e7d2f6429190c26551790fcd9bfee88b8769", "asm": "3044022012fab1bc5822e286195778dadbe0eae282d6ce44e693da1f631cf0c852a231b302206cbca16f6184386a94baa563c08d47d902004e4b3fad39224546313aeb8195e8[ALL] 0319cd39c1723d1719dda127df2b74e7d2f6429190c26551790fcd9bfee88b8769"}, "vout": 0, "txid": "b1a954ff14f71c08e5242888b4eda92ef5887416b80e96b9d1ed639af8bd8724"}], "txid": "708eb95c9c027763b3c335ba7fbe00d84347463aad314eb346d57085ff6c31d5", "blocktime": 1537870928, "version": 1, "confirmations": 11514, "time": 1537870928, "locktime": 0, "vsize": 520, "size": 520}