{"hash": "93e434f4482888a3ea0e9ff99cb01b834c9859594e5b676259d94c9809348d8d", "blockhash": "00000000000000000018f53835495a110e01622372bf6ae95dc86f2b0ab887b0", "vout": [{"scriptPubKey": {"reqSigs": 1, "hex": "76a9140987fb9d3a1d1b45b71c5ebb52fed8d4ec6bd4b188ac", "addresses": ["1sPyywgE5acGEY357vBarwB8y3jYQNzV2"], "asm": "OP_DUP OP_HASH160 0987fb9d3a1d1b45b71c5ebb52fed8d4ec6bd4b1 OP_EQUALVERIFY OP_CHECKSIG", "type": "pubkeyhash"}, "value": 0.00031314, "n": 0}, {"scriptPubKey": {"reqSigs": 1, "hex": "a914c44c5e7f858aa32a646f259e10d460b3eaa4aa5187", "addresses": ["3KawrN18TDWe7e3LCX41QofPgDpNrgcGjR"], "asm": "OP_HASH160 c44c5e7f858aa32a646f259e10d460b3eaa4aa51 OP_EQUAL", "type": "scripthash"}, "value": 0.00101127, "n": 1}], "hex": "01000000000101c64d224ce59ece373eabdcafcc55b4c15af82e71b3208b705d4393d8dc0f45ea0100000017160014b7461b127447899f07c25bf3a566ec6cd59aadbffdffffff02527a0000000000001976a9140987fb9d3a1d1b45b71c5ebb52fed8d4ec6bd4b188ac078b01000000000017a914c44c5e7f858aa32a646f259e10d460b3eaa4aa51870247304402202429ab670664e12f28c98b949d0b0da21ddb70b265311c1d0804f3a02a68c166022052e2a31feaf4e155308d8705cbb412db9342e394202ca78cc710626a75d0375601210355cd4134a47b34eb1fbcb3082e843dcc5c8e8ca1bc919de52fcd6be8f686bf620e490800", "vin": [{"txinwitness": ["304402202429ab670664e12f28c98b949d0b0da21ddb70b265311c1d0804f3a02a68c166022052e2a31feaf4e155308d8705cbb412db9342e394202ca78cc710626a75d0375601", "0355cd4134a47b34eb1fbcb3082e843dcc5c8e8ca1bc919de52fcd6be8f686bf62"], "sequence": 4294967293, "scriptSig": {"hex": "160014b7461b127447899f07c25bf3a566ec6cd59aadbf", "asm": "0014b7461b127447899f07c25bf3a566ec6cd59aadbf"}, "vout": 1, "txid": "ea450fdcd893435d708b20b3712ef85ac1b455ccafdcab3e37ce9ee54c224dc6"}], "txid": "7091a11b6b7aaa40c44f94b531b93505e7d51bc02ed7c69c6b90fcb8dd3fa0d9", "blocktime": 1537870928, "version": 1, "confirmations": 11514, "time": 1537870928, "locktime": 542990, "vsize": 168, "size": 249}