{"hash": "70955ebffe4995f604b5f9464c3ec77deb8402084bb24770158fa142efcf4b09", "blockhash": "00000000000000000004ffacab907a6b429b9a5745fa0b75af4234bf69dd7176", "vout": [{"scriptPubKey": {"reqSigs": 1, "hex": "a9143506296cc5f0fff6d2f77edc1299ba3dafc0f44187", "addresses": ["36XP7qkD5VGhrsACLWzSJBNcfo2rH7DV6R"], "asm": "OP_HASH160 3506296cc5f0fff6d2f77edc1299ba3dafc0f441 OP_EQUAL", "type": "scripthash"}, "value": 0.10010871, "n": 0}, {"scriptPubKey": {"reqSigs": 1, "hex": "76a9146fbcb5056f13c1082c66a593a963712d1f2e3cac88ac", "addresses": ["1BBp4tpAWPT16BLFhMSLjdHhXKkSgacAYF"], "asm": "OP_DUP OP_HASH160 6fbcb5056f13c1082c66a593a963712d1f2e3cac OP_EQUALVERIFY OP_CHECKSIG", "type": "pubkeyhash"}, "value": 0.24876621, "n": 1}], "hex": "0100000001f8decf8edce8b745d88ff897033dec7eb0c3752a95ea1bfc0ec1b4a38d1fd0ba010000006b483045022100deef7f50ca7db0a3774d78b7f12a7a794d8a203e40af9ddf4792020d519204740220591e97166eb334e2ecfc837c9b60de91f97dc65c733fd72ffb4d2d5018541e7001210201d7c8e0c49cc23678e034389b39fe6c1d72fc2f2b732b2761ed0889da0d3d03ffffffff02f7c098000000000017a9143506296cc5f0fff6d2f77edc1299ba3dafc0f441874d967b01000000001976a9146fbcb5056f13c1082c66a593a963712d1f2e3cac88ac00000000", "vin": [{"sequence": 4294967295, "scriptSig": {"hex": "483045022100deef7f50ca7db0a3774d78b7f12a7a794d8a203e40af9ddf4792020d519204740220591e97166eb334e2ecfc837c9b60de91f97dc65c733fd72ffb4d2d5018541e7001210201d7c8e0c49cc23678e034389b39fe6c1d72fc2f2b732b2761ed0889da0d3d03", "asm": "3045022100deef7f50ca7db0a3774d78b7f12a7a794d8a203e40af9ddf4792020d519204740220591e97166eb334e2ecfc837c9b60de91f97dc65c733fd72ffb4d2d5018541e70[ALL] 0201d7c8e0c49cc23678e034389b39fe6c1d72fc2f2b732b2761ed0889da0d3d03"}, "vout": 1, "txid": "bad01f8da3b4c10efc1bea952a75c3b07eec3d0397f88fd845b7e8dc8ecfdef8"}], "txid": "70955ebffe4995f604b5f9464c3ec77deb8402084bb24770158fa142efcf4b09", "blocktime": 1537875543, "version": 1, "confirmations": 11464, "time": 1537875543, "locktime": 0, "vsize": 224, "size": 224}