{"hash": "b765ee3e409f868d3454d3c02e941555b94d6230c9fe980d467d1031023f9ead", "blockhash": "0000000000000000000e13cef7c366c0283d82e591d1acd082e914b08063cdf1", "vout": [{"scriptPubKey": {"reqSigs": 1, "hex": "a914a18e462d5b8546b653e6b98b3c567c4c8f43e13e87", "addresses": ["3GRF9oqJU1L4YepMqVdr6LJiSb1VgGknNw"], "asm": "OP_HASH160 a18e462d5b8546b653e6b98b3c567c4c8f43e13e OP_EQUAL", "type": "scripthash"}, "value": 8.49488969, "n": 0}, {"scriptPubKey": {"reqSigs": 1, "hex": "76a91435ddb4ef16e9dd4cafa4784e796f9c3101047d6788ac", "addresses": ["15upQdB3CYyWztaykuHo6dw3A8vnUzEv92"], "asm": "OP_DUP OP_HASH160 35ddb4ef16e9dd4cafa4784e796f9c3101047d67 OP_EQUALVERIFY OP_CHECKSIG", "type": "pubkeyhash"}, "value": 0.0179, "n": 1}], "hex": "020000000001012f1f716db2dda24bcdac6e42d64ff27174b8c8d38ae1673502d15364c6a22e830000000017160014e7ce382057d47487451c674448fc0418087fa529feffffff02492ca2320000000017a914a18e462d5b8546b653e6b98b3c567c4c8f43e13e8730501b00000000001976a91435ddb4ef16e9dd4cafa4784e796f9c3101047d6788ac024730440220202be449fd8a889aac3e0dcc7cf01576749f7a7590b16954e6d4b328babbbda1022020996c6c9f50fb16c84e450494bb9527971e12360410042b0a81fbd92f75ee90012103957d71ab0d0792f9c5fbbf143a19f8fd4eab0b5333840f42274791c81004c4d20f490800", "vin": [{"txinwitness": ["30440220202be449fd8a889aac3e0dcc7cf01576749f7a7590b16954e6d4b328babbbda1022020996c6c9f50fb16c84e450494bb9527971e12360410042b0a81fbd92f75ee9001", "03957d71ab0d0792f9c5fbbf143a19f8fd4eab0b5333840f42274791c81004c4d2"], "sequence": 4294967294, "scriptSig": {"hex": "160014e7ce382057d47487451c674448fc0418087fa529", "asm": "0014e7ce382057d47487451c674448fc0418087fa529"}, "vout": 0, "txid": "832ea2c66453d1023567e18ad3c8b87471f24fd6426eaccd4ba2ddb26d711f2f"}], "txid": "7096719659d61d2a449bd5abb71388908cfcefec0bb6f8414cec1ddb80c0532b", "blocktime": 1537871767, "version": 2, "confirmations": 11490, "time": 1537871767, "locktime": 542991, "vsize": 168, "size": 249}