{"hash": "55b32cff42a4fd2992eac813efc31e31f1ed2ce40a04aa33d6568a5dee0e98f1", "blockhash": "000000000000000000022b45ed06c6f4ccd3cf7fb5ba4856ebd2e58215665228", "vout": [{"scriptPubKey": {"reqSigs": 1, "hex": "76a91401ad77d06f9de1aa83786118d018810eb9c2281988ac", "addresses": ["19sUxmL4gn7bkQsphHrG5JNY3kTPr6oyu"], "asm": "OP_DUP OP_HASH160 01ad77d06f9de1aa83786118d018810eb9c22819 OP_EQUALVERIFY OP_CHECKSIG", "type": "pubkeyhash"}, "value": 0.013786, "n": 0}, {"scriptPubKey": {"reqSigs": 1, "hex": "a9147007052becaa97d6378ea7da406af237c7ceefd587", "addresses": ["3BuN1oQX33ZJKiwtNA8WqfLG42KMEGjFK8"], "asm": "OP_HASH160 7007052becaa97d6378ea7da406af237c7ceefd5 OP_EQUAL", "type": "scripthash"}, "value": 0.04997644, "n": 1}], "hex": "0200000000010116e6af1cb788a0c7bfa34c2a1c78f312e470665f9a47f9bb7c9a574ce4b5a6f7010000001716001465f04809933a78cf257c1079676548f680de2595ffffffff0228091500000000001976a91401ad77d06f9de1aa83786118d018810eb9c2281988ac0c424c000000000017a9147007052becaa97d6378ea7da406af237c7ceefd587024830450221009dccc314292a143fd3d2f391bdf335d78947c541f40dc3639f24191bc5403727022019e43edd6e4548055461aa361893d683206ba5c100035a6c6429c42e2ac6286801210224018ea9f1fc213adc8176fdcdf0c866f0e0369b10101bfe86f2d8b5502a805f00000000", "vin": [{"txinwitness": ["30450221009dccc314292a143fd3d2f391bdf335d78947c541f40dc3639f24191bc5403727022019e43edd6e4548055461aa361893d683206ba5c100035a6c6429c42e2ac6286801", "0224018ea9f1fc213adc8176fdcdf0c866f0e0369b10101bfe86f2d8b5502a805f"], "sequence": 4294967295, "scriptSig": {"hex": "16001465f04809933a78cf257c1079676548f680de2595", "asm": "001465f04809933a78cf257c1079676548f680de2595"}, "vout": 1, "txid": "f7a6b5e44c579a7cbbf9479a5f6670e412f3781c2a4ca3bfc7a088b71cafe616"}], "txid": "7098284e7dfb3ec7b45504cd7f31c0befdf8ddb7f1ced3836312e8caf79ed63d", "blocktime": 1537869901, "version": 2, "confirmations": 11522, "time": 1537869901, "locktime": 0, "vsize": 168, "size": 250}