{"hash": "538941c34b20aed1ba1b6420484c5d6803fa80f42ad073a0406275bdc9718246", "blockhash": "000000000000000000205f8b0775d31398ef75b89a5e8ec8d2c57b4dc0ac4c20", "vout": [{"scriptPubKey": {"reqSigs": 1, "hex": "a91491f20cc2bfe1106a611eaa42043acf8437763d6687", "addresses": ["3EzhsH3FSA4SXcKC6g1ph7eeqmG8Emdsym"], "asm": "OP_HASH160 91f20cc2bfe1106a611eaa42043acf8437763d66 OP_EQUAL", "type": "scripthash"}, "value": 0.0095, "n": 0}, {"scriptPubKey": {"reqSigs": 1, "hex": "a91441b78d2d5e52a95e613b2f386e96edb2984a53d387", "addresses": ["37gVjPjGkF9nxskqtzuMrKUFENMPqcGPPv"], "asm": "OP_HASH160 41b78d2d5e52a95e613b2f386e96edb2984a53d3 OP_EQUAL", "type": "scripthash"}, "value": 0.312558, "n": 1}, {"scriptPubKey": {"reqSigs": 1, "hex": "a9140a1175749bef7733657acdbea68f92a86443336187", "addresses": ["32cFbXCX84H5YFkQt2N6or3BkvPuXvXrEW"], "asm": "OP_HASH160 0a1175749bef7733657acdbea68f92a864433361 OP_EQUAL", "type": "scripthash"}, "value": 0.0057, "n": 2}], "hex": "020000000001011e80bc04d3174f558b69e2d0ad4491c815808bcf14e6a8d53685ffb8eb9ad768010000001716001497e4f6e78e137cb8a799cd8ccb65725ca370619afeffffff03f07e0e000000000017a91491f20cc2bfe1106a611eaa42043acf8437763d6687f8ecdc010000000017a91441b78d2d5e52a95e613b2f386e96edb2984a53d38790b208000000000017a9140a1175749bef7733657acdbea68f92a8644333618702483045022100aeddc3f221633765563abaad9a0c3b84aab32d3d9d02fef0758f654d952bdb8f02204c05672a87c83a701851a8f6b086193a9b6f825d90c138a1a0fe555ef5ccb0640121035fd18e368abb1051a37590e68cdf35f2dd1ed371d8cab8d98706f092d8e6afa00f490800", "vin": [{"txinwitness": ["3045022100aeddc3f221633765563abaad9a0c3b84aab32d3d9d02fef0758f654d952bdb8f02204c05672a87c83a701851a8f6b086193a9b6f825d90c138a1a0fe555ef5ccb06401", "035fd18e368abb1051a37590e68cdf35f2dd1ed371d8cab8d98706f092d8e6afa0"], "sequence": 4294967294, "scriptSig": {"hex": "16001497e4f6e78e137cb8a799cd8ccb65725ca370619a", "asm": "001497e4f6e78e137cb8a799cd8ccb65725ca370619a"}, "vout": 1, "txid": "68d79aebb8ff8536d5a8e614cf8b8015c89144add0e2698b554f17d304bc801e"}], "txid": "709e33dbb8d42c4ca91da7de0122ab90643ee106639b6e91b7804726f2d762e6", "blocktime": 1537871175, "version": 2, "confirmations": 11511, "time": 1537871175, "locktime": 542991, "vsize": 198, "size": 280}