{"hash": "17006de0dcfc936358d9a4c4c88174e0c937e6ca066c739efecb08ba6e47bfd2", "blockhash": "0000000000000000001cda96e906b7601b7a6fb1a3b62bca570a9e5d8f4b3de1", "vout": [{"scriptPubKey": {"reqSigs": 1, "hex": "76a9140ec7be4ae2734e31dbdda891a364cba5cc4cb6a388ac", "addresses": ["12M9k6YJ2xcdsrSAVhxpgomN5URVnSHPFy"], "asm": "OP_DUP OP_HASH160 0ec7be4ae2734e31dbdda891a364cba5cc4cb6a3 OP_EQUALVERIFY OP_CHECKSIG", "type": "pubkeyhash"}, "value": 0.01561405, "n": 0}, {"scriptPubKey": {"reqSigs": 1, "hex": "0014ebc8017404c4013979478d2080433495815f31a3", "addresses": ["bc1qa0yqzaqycsqnj72835sgqse5jkq47vdrqyfkrt"], "asm": "0 ebc8017404c4013979478d2080433495815f31a3", "type": "witness_v0_keyhash"}, "value": 0.00096319, "n": 1}], "hex": "0100000000010179eabcab5aed8689d6195d98110cee7f095de2d4e2e8ecb7cb33b4bf22c852500000000000ffffffff023dd31700000000001976a9140ec7be4ae2734e31dbdda891a364cba5cc4cb6a388ac3f78010000000000160014ebc8017404c4013979478d2080433495815f31a302483045022100c4860955ad052fb2f92857ca741f0e8642290a4cdb03814d69663e4b6f5a542b02206a9aecef40fcef7adea92460a8181a5fe264a8f96bbddb2570a6cae15a9ab39e012102d076e4e95a677b3ab3a88acbf8a7b839114c12caef33e0b4feca13a2a024588500000000", "vin": [{"txinwitness": ["3045022100c4860955ad052fb2f92857ca741f0e8642290a4cdb03814d69663e4b6f5a542b02206a9aecef40fcef7adea92460a8181a5fe264a8f96bbddb2570a6cae15a9ab39e01", "02d076e4e95a677b3ab3a88acbf8a7b839114c12caef33e0b4feca13a2a0245885"], "sequence": 4294967295, "scriptSig": {"hex": "", "asm": ""}, "vout": 0, "txid": "5052c822bfb433cbb7ece8e2d4e25d097fee0c11985d19d68986ed5aabbcea79"}], "txid": "70a0dfaeed516e78fa153bd0ce8e7a8d151684d13a2a9c6f78af5e23d449dc21", "blocktime": 1537873282, "version": 1, "confirmations": 11484, "time": 1537873282, "locktime": 0, "vsize": 144, "size": 226}