{"hash": "70a493837d030629c5caac1bd8bb3d35130f5d8c94951561abc3e4fe085a26a0", "blockhash": "0000000000000000000e13cef7c366c0283d82e591d1acd082e914b08063cdf1", "vout": [{"scriptPubKey": {"reqSigs": 1, "hex": "76a914ebb6844bfb382112d98459aa9a4dc76cf5d5149288ac", "addresses": ["1NVLSZywEqaWgYKyVd1e4PYpL8mUZnfVx4"], "asm": "OP_DUP OP_HASH160 ebb6844bfb382112d98459aa9a4dc76cf5d51492 OP_EQUALVERIFY OP_CHECKSIG", "type": "pubkeyhash"}, "value": 0.0223382, "n": 0}, {"scriptPubKey": {"type": "nulldata", "hex": "6a4c50000077a30001f966f4bb5ab751de6692046aaf6c953dd567cf27e7e3ef3236678a625097de5e4155ec6ff010c8342a2a715108165baa0ecc0614967b449222e6bc9a9526289ac0f6612cd74e33776ee4", "asm": "OP_RETURN 000077a30001f966f4bb5ab751de6692046aaf6c953dd567cf27e7e3ef3236678a625097de5e4155ec6ff010c8342a2a715108165baa0ecc0614967b449222e6bc9a9526289ac0f6612cd74e33776ee4"}, "value": 0.0, "n": 1}], "hex": "01000000019b50851fb0ee45a28bf19c2a018651644259565e61ce5618424e8f22ae866b5e010000006b483045022100eda498d807cec89eb127fc0f2f9983e3c42550db4b6c7fe3debbd133b8b53ef402201bd6c29af16198d66aa121c227540da64001caf1a33ee75de13771dcca7e0f0b012102da19d01ff378c959cd904e7f6f8386cccac6b3d62e1d5c25e4b1675723e3c4f6ffffffff02dc152200000000001976a914ebb6844bfb382112d98459aa9a4dc76cf5d5149288ac0000000000000000536a4c50000077a30001f966f4bb5ab751de6692046aaf6c953dd567cf27e7e3ef3236678a625097de5e4155ec6ff010c8342a2a715108165baa0ecc0614967b449222e6bc9a9526289ac0f6612cd74e33776ee400000000", "vin": [{"sequence": 4294967295, "scriptSig": {"hex": "483045022100eda498d807cec89eb127fc0f2f9983e3c42550db4b6c7fe3debbd133b8b53ef402201bd6c29af16198d66aa121c227540da64001caf1a33ee75de13771dcca7e0f0b012102da19d01ff378c959cd904e7f6f8386cccac6b3d62e1d5c25e4b1675723e3c4f6", "asm": "3045022100eda498d807cec89eb127fc0f2f9983e3c42550db4b6c7fe3debbd133b8b53ef402201bd6c29af16198d66aa121c227540da64001caf1a33ee75de13771dcca7e0f0b[ALL] 02da19d01ff378c959cd904e7f6f8386cccac6b3d62e1d5c25e4b1675723e3c4f6"}, "vout": 1, "txid": "5e6b86ae228f4e421856ce615e565942645186012a9cf18ba245eeb01f85509b"}], "txid": "70a493837d030629c5caac1bd8bb3d35130f5d8c94951561abc3e4fe085a26a0", "blocktime": 1537871767, "version": 1, "confirmations": 11493, "time": 1537871767, "locktime": 0, "vsize": 284, "size": 284}