{"hash": "70a83e8d2ab06b20cde82f440dccd8ab6a6386330e3545412dcecaae1f361100", "blockhash": "0000000000000000001e0dab787dd257d1dbfcb92a98c2207d5e1078be1f4165", "vout": [{"scriptPubKey": {"reqSigs": 1, "hex": "a9147676db43fea61814cf0e2317b5e9b336054f8a2e87", "addresses": ["3CVQ3UUjD29fVRNRCSRd1jmJ4aSvm24CuY"], "asm": "OP_HASH160 7676db43fea61814cf0e2317b5e9b336054f8a2e OP_EQUAL", "type": "scripthash"}, "value": 0.00098628, "n": 0}], "hex": "01000000017f803f7e022f5381cb54a48f56fb174bb943e9639b68b1fe02838007b741ee9e88030000fdfd0000483045022100fa2afb58f9bcd4f2e98c8a821c0722d63248ff7d0a06047557f0f37a9d3d02d0022052ae5139c4d3d7093c7696ab7b9137dc22df10e47b2694eeb24d77a37f9cca5f0147304402204c88d5925219a60c5b0be0c91caa98b1ab07b1974c9da4071efd006935231a1302205d7f45a5c54afa884cf834f427af56258b114df047194c444b6e8af11d3b505b014c69522102903bdca378ce762c66c16f32ee0b8a2b62e3a6e80d43ba02186b5e369fdc179d210302bbce9b0a482d79c8580584a251d38c1d01cf3f8fa6c39125173c19d4df374b2103d7bdda13f06743e420382da88321e16ddfbdf50e219a97e118f7824e6505af5b53aeffffffff01448101000000000017a9147676db43fea61814cf0e2317b5e9b336054f8a2e8713490800", "vin": [{"sequence": 4294967295, "scriptSig": {"hex": "00483045022100fa2afb58f9bcd4f2e98c8a821c0722d63248ff7d0a06047557f0f37a9d3d02d0022052ae5139c4d3d7093c7696ab7b9137dc22df10e47b2694eeb24d77a37f9cca5f0147304402204c88d5925219a60c5b0be0c91caa98b1ab07b1974c9da4071efd006935231a1302205d7f45a5c54afa884cf834f427af56258b114df047194c444b6e8af11d3b505b014c69522102903bdca378ce762c66c16f32ee0b8a2b62e3a6e80d43ba02186b5e369fdc179d210302bbce9b0a482d79c8580584a251d38c1d01cf3f8fa6c39125173c19d4df374b2103d7bdda13f06743e420382da88321e16ddfbdf50e219a97e118f7824e6505af5b53ae", "asm": "0 3045022100fa2afb58f9bcd4f2e98c8a821c0722d63248ff7d0a06047557f0f37a9d3d02d0022052ae5139c4d3d7093c7696ab7b9137dc22df10e47b2694eeb24d77a37f9cca5f[ALL] 304402204c88d5925219a60c5b0be0c91caa98b1ab07b1974c9da4071efd006935231a1302205d7f45a5c54afa884cf834f427af56258b114df047194c444b6e8af11d3b505b[ALL] 522102903bdca378ce762c66c16f32ee0b8a2b62e3a6e80d43ba02186b5e369fdc179d210302bbce9b0a482d79c8580584a251d38c1d01cf3f8fa6c39125173c19d4df374b2103d7bdda13f06743e420382da88321e16ddfbdf50e219a97e118f7824e6505af5b53ae"}, "vout": 904, "txid": "9eee41b707808302feb1689b63e943b94b17fb568fa454cb81532f027e3f807f"}], "txid": "70a83e8d2ab06b20cde82f440dccd8ab6a6386330e3545412dcecaae1f361100", "blocktime": 1537872475, "version": 1, "confirmations": 11486, "time": 1537872475, "locktime": 542995, "vsize": 338, "size": 338}