{"hash": "70b1870a075d340366dd9de90742ed877c4c8a72bca23f21a170a4db0ec93e48", "blockhash": "00000000000000000017f5eb5941039fbcee6240d03bc1f2f8e35350df66a1d8", "vout": [{"scriptPubKey": {"type": "nulldata", "hex": "6a4c50000077fa00011ede7bec60b6a9f8268e2f66d19ed074892d00f8e87af8e8e963c7cfd5b9a3fe099cd607c60ff15a5b8727423a8b5baa191406142de11b147babbc9a9526289ac0f6612cd74e33776ee4", "asm": "OP_RETURN 000077fa00011ede7bec60b6a9f8268e2f66d19ed074892d00f8e87af8e8e963c7cfd5b9a3fe099cd607c60ff15a5b8727423a8b5baa191406142de11b147babbc9a9526289ac0f6612cd74e33776ee4"}, "value": 0.0, "n": 0}, {"scriptPubKey": {"reqSigs": 1, "hex": "76a91455e4c8e39de03c202f2835b82a84bce2071c914388ac", "addresses": ["18qAWYiYABt1CBAxagyyHEarPmfjGnwBLH"], "asm": "OP_DUP OP_HASH160 55e4c8e39de03c202f2835b82a84bce2071c9143 OP_EQUALVERIFY OP_CHECKSIG", "type": "pubkeyhash"}, "value": 0.0005506, "n": 1}], "hex": "0100000001f4301bc50cd0d6c9990b44b20bff35d10c429c0f88bea7e4a03e1f8aecab067f000000006b48304502210093398d813de1240636e3463c896fb573ef2870173901d2e3072a9c722c2feb9a022043964d184a54203055b65e04be3c807632f25e4a54d9b6893d1a35154abfc8ce0121020484c165b035757ad319ffd27aeef543718c0076a797ad7aa2124e1cda65e177ffffffff020000000000000000536a4c50000077fa00011ede7bec60b6a9f8268e2f66d19ed074892d00f8e87af8e8e963c7cfd5b9a3fe099cd607c60ff15a5b8727423a8b5baa191406142de11b147babbc9a9526289ac0f6612cd74e33776ee414d70000000000001976a91455e4c8e39de03c202f2835b82a84bce2071c914388ac00000000", "vin": [{"sequence": 4294967295, "scriptSig": {"hex": "48304502210093398d813de1240636e3463c896fb573ef2870173901d2e3072a9c722c2feb9a022043964d184a54203055b65e04be3c807632f25e4a54d9b6893d1a35154abfc8ce0121020484c165b035757ad319ffd27aeef543718c0076a797ad7aa2124e1cda65e177", "asm": "304502210093398d813de1240636e3463c896fb573ef2870173901d2e3072a9c722c2feb9a022043964d184a54203055b65e04be3c807632f25e4a54d9b6893d1a35154abfc8ce[ALL] 020484c165b035757ad319ffd27aeef543718c0076a797ad7aa2124e1cda65e177"}, "vout": 0, "txid": "7f06abec8a1f3ea0e4a7be880f9c420cd135ff0bb2440b99c9d6d00cc51b30f4"}], "txid": "70b1870a075d340366dd9de90742ed877c4c8a72bca23f21a170a4db0ec93e48", "blocktime": 1537874412, "version": 1, "confirmations": 11467, "time": 1537874412, "locktime": 0, "vsize": 284, "size": 284}