{"hash": "70b675e74df44287f5cce197ae5ca6e1109e7295a5d24b28528b35a3d5731658", "blockhash": "0000000000000000000e13cef7c366c0283d82e591d1acd082e914b08063cdf1", "vout": [{"scriptPubKey": {"reqSigs": 1, "hex": "76a914a6565dedc5e3663719283d083436c5dea6a828dd88ac", "addresses": ["1GAWdisXRDG9Rp69QwxfKAoxJE4CDorny5"], "asm": "OP_DUP OP_HASH160 a6565dedc5e3663719283d083436c5dea6a828dd OP_EQUALVERIFY OP_CHECKSIG", "type": "pubkeyhash"}, "value": 0.00256496, "n": 0}, {"scriptPubKey": {"reqSigs": 1, "hex": "76a9144a0f1e2f2b0d7daeec5265f10bbbbe08ed725e8988ac", "addresses": ["17kb7c9ndg7ioSuzMWEHWECdEVUegNkcGc"], "asm": "OP_DUP OP_HASH160 4a0f1e2f2b0d7daeec5265f10bbbbe08ed725e89 OP_EQUALVERIFY OP_CHECKSIG", "type": "pubkeyhash"}, "value": 0.00050656, "n": 1}], "hex": "0100000001fba0ba76f914b7f42ce85d696f9afd61243676227f4ede4a3ec899d6cc979daf000000006b483045022100d4eab2602ad9b479927f0a3751326e59e184302e9c995686d9854b48a34c0b550220777bb4e5d9842acc78e2a94f12cb1c634ea54343c27b82b8ccba4f05e83571cf01210363e1776495149c5a4e92acf453a3caa19000fc804e4ba2024b600ba25e09c943ffffffff02f0e90300000000001976a914a6565dedc5e3663719283d083436c5dea6a828dd88ace0c50000000000001976a9144a0f1e2f2b0d7daeec5265f10bbbbe08ed725e8988ac00000000", "vin": [{"sequence": 4294967295, "scriptSig": {"hex": "483045022100d4eab2602ad9b479927f0a3751326e59e184302e9c995686d9854b48a34c0b550220777bb4e5d9842acc78e2a94f12cb1c634ea54343c27b82b8ccba4f05e83571cf01210363e1776495149c5a4e92acf453a3caa19000fc804e4ba2024b600ba25e09c943", "asm": "3045022100d4eab2602ad9b479927f0a3751326e59e184302e9c995686d9854b48a34c0b550220777bb4e5d9842acc78e2a94f12cb1c634ea54343c27b82b8ccba4f05e83571cf[ALL] 0363e1776495149c5a4e92acf453a3caa19000fc804e4ba2024b600ba25e09c943"}, "vout": 0, "txid": "af9d97ccd699c83e4ade4e7f2276362461fd9a6f695de82cf4b714f976baa0fb"}], "txid": "70b675e74df44287f5cce197ae5ca6e1109e7295a5d24b28528b35a3d5731658", "blocktime": 1537871767, "version": 1, "confirmations": 11490, "time": 1537871767, "locktime": 0, "vsize": 226, "size": 226}