{"hash": "34fb3f75054587064c73222809e7b7ad58b402bb382ba7cc608b9b0ba682030f", "blockhash": "0000000000000000000dcc0f55137456b1a82d3642486a52398922ac4d620174", "vout": [{"scriptPubKey": {"reqSigs": 1, "hex": "76a914f4419a08a65bedf27b2f9ca97aaadf6a1e5724a788ac", "addresses": ["1PGWTtkaPnNMFMcGe1fgcVppeDfkNseXX7"], "asm": "OP_DUP OP_HASH160 f4419a08a65bedf27b2f9ca97aaadf6a1e5724a7 OP_EQUALVERIFY OP_CHECKSIG", "type": "pubkeyhash"}, "value": 0.00357484, "n": 0}, {"scriptPubKey": {"reqSigs": 1, "hex": "a9140be7846be16b05bea00dbec2fcd7e045a793cb1787", "addresses": ["32mxhko5mJHfkbkDPpz7SfdJwEJi21P1WK"], "asm": "OP_HASH160 0be7846be16b05bea00dbec2fcd7e045a793cb17 OP_EQUAL", "type": "scripthash"}, "value": 0.20472063, "n": 1}], "hex": "010000000001016b2ca9c0c66957c5d9cd7534f936d16fbfc80bfe7952ce86c34e00db9a66cdc501000000232200202c66ece6da72bcbfeadf83a91236f4891c13e14d8ecebdcaa81666fc1aa73a31ffffffff026c740500000000001976a914f4419a08a65bedf27b2f9ca97aaadf6a1e5724a788acff6038010000000017a9140be7846be16b05bea00dbec2fcd7e045a793cb17870400483045022100e341235edde361a180eacdf088c3069839a43470099275969605d4300912343f022067892a587f84e46830db9e25df8ab54484524c7d6f93971256d1346157a863eb01473044022028509de208e27c25dfa5251c33b787f24c4b69a6a5bd84341e4f21c5430e9124022074d1622c63a6fcfb9ffd4ea054c95a9f9d1cf13eb19f3a5fe3833519286c1fdf01475221029e6fbb942d34a473faaa5557c1bfe08d72102f0b9754ad140fd369d7a3ba3cdc2103871fc2ca08e6950b38867e8e6a0e94ee625223d3aa0df5c65f414c6d784467e252ae00000000", "vin": [{"txinwitness": ["", "3045022100e341235edde361a180eacdf088c3069839a43470099275969605d4300912343f022067892a587f84e46830db9e25df8ab54484524c7d6f93971256d1346157a863eb01", "3044022028509de208e27c25dfa5251c33b787f24c4b69a6a5bd84341e4f21c5430e9124022074d1622c63a6fcfb9ffd4ea054c95a9f9d1cf13eb19f3a5fe3833519286c1fdf01", "5221029e6fbb942d34a473faaa5557c1bfe08d72102f0b9754ad140fd369d7a3ba3cdc2103871fc2ca08e6950b38867e8e6a0e94ee625223d3aa0df5c65f414c6d784467e252ae"], "sequence": 4294967295, "scriptSig": {"hex": "2200202c66ece6da72bcbfeadf83a91236f4891c13e14d8ecebdcaa81666fc1aa73a31", "asm": "00202c66ece6da72bcbfeadf83a91236f4891c13e14d8ecebdcaa81666fc1aa73a31"}, "vout": 1, "txid": "c5cd669adb004ec386ce5279fe0bc8bf6fd136f93475cdd9c55769c6c0a92c6b"}], "txid": "70b7f1c75f4e61ada06855f9e63e153d1e9d262a47b6aa7edd13092ebae04548", "blocktime": 1537870268, "version": 1, "confirmations": 11518, "time": 1537870268, "locktime": 0, "vsize": 208, "size": 373}