{"hash": "2e26390cf8ed3fe607bc7053d739cdcfaa16b4ce301d1f059d4dac650e207bc5", "blockhash": "00000000000000000017f5eb5941039fbcee6240d03bc1f2f8e35350df66a1d8", "vout": [{"scriptPubKey": {"reqSigs": 1, "hex": "76a914e340f2a407404cf5a2935fdbefe6422d3aa7d82288ac", "addresses": ["1MicCCXs2j5EMyHAPfMEhSuzUBSC53Sszj"], "asm": "OP_DUP OP_HASH160 e340f2a407404cf5a2935fdbefe6422d3aa7d822 OP_EQUALVERIFY OP_CHECKSIG", "type": "pubkeyhash"}, "value": 0.0027496, "n": 0}, {"scriptPubKey": {"reqSigs": 1, "hex": "a914132b7ac8e025fbf6512c12ebb4070534420e9ea487", "addresses": ["33SNrCuJmKRnNbEcTAhDzDtgU31L5wbrih"], "asm": "OP_HASH160 132b7ac8e025fbf6512c12ebb4070534420e9ea4 OP_EQUAL", "type": "scripthash"}, "value": 0.01019922, "n": 1}], "hex": "0200000000010263a59247bf448697908e8e400ab2611c02668bc25d1853e0fbc8d12952864eca13000000171600142f53a5cf87541b6238f4ebcec4f5ff0a4df19fcafeffffffea5c46cb4bbe1024d0b0b05ae2dccd6aaeb73057b06ee9075acda1aa91bde05900000000171600149061c3f1c9bce67521ff61b3205ae507eda5929cfeffffff0210320400000000001976a914e340f2a407404cf5a2935fdbefe6422d3aa7d82288ac12900f000000000017a914132b7ac8e025fbf6512c12ebb4070534420e9ea48702483045022100bfb4bba4ec43d74a2bf1ad305a46c7d58117136419d6205c2fc86f247a668fea02201299c0e45522bf88ab3c5d11cfdd50199dc388439ac15d4767ef3dbeee987c760121022c120dc3d4d6671b3c9377d22d693b48b3a27b97a94ae06ebe018d2a9aa5cc4d0247304402200455b68ae1396d1e969603a9cb3fee1771b72d226f2001156a296ca680d09649022041541214bfc89fbd2c2277c475901a2810299b46a297a44bb510c8ccd2d20b8c012103ff3dee280423923524e1d7422653bae91636a99638836b2aad990f60376af34915490800", "vin": [{"txinwitness": ["3045022100bfb4bba4ec43d74a2bf1ad305a46c7d58117136419d6205c2fc86f247a668fea02201299c0e45522bf88ab3c5d11cfdd50199dc388439ac15d4767ef3dbeee987c7601", "022c120dc3d4d6671b3c9377d22d693b48b3a27b97a94ae06ebe018d2a9aa5cc4d"], "sequence": 4294967294, "scriptSig": {"hex": "1600142f53a5cf87541b6238f4ebcec4f5ff0a4df19fca", "asm": "00142f53a5cf87541b6238f4ebcec4f5ff0a4df19fca"}, "vout": 19, "txid": "ca4e865229d1c8fbe053185dc28b66021c61b20a408e8e90978644bf4792a563"}, {"txinwitness": ["304402200455b68ae1396d1e969603a9cb3fee1771b72d226f2001156a296ca680d09649022041541214bfc89fbd2c2277c475901a2810299b46a297a44bb510c8ccd2d20b8c01", "03ff3dee280423923524e1d7422653bae91636a99638836b2aad990f60376af349"], "sequence": 4294967294, "scriptSig": {"hex": "1600149061c3f1c9bce67521ff61b3205ae507eda5929c", "asm": "00149061c3f1c9bce67521ff61b3205ae507eda5929c"}, "vout": 0, "txid": "59e0bd91aaa1cd5a07e96eb05730b7ae6acddce25ab0b0d02410be4bcb465cea"}], "txid": "70b855ddf86cf5a8e336858a49c8ec47d76c755b0bb2e91c75b1c9eab53f3a97", "blocktime": 1537874412, "version": 2, "confirmations": 11468, "time": 1537874412, "locktime": 542997, "vsize": 259, "size": 421}