{"hash": "70b9168a2818dd3c7e63ea983db5aa202d20465303f2cd4c951c4eccc50e689c", "blockhash": "00000000000000000004ffacab907a6b429b9a5745fa0b75af4234bf69dd7176", "vout": [{"scriptPubKey": {"reqSigs": 1, "hex": "76a91488aae952ea3802fc3f0fc8bb8371f0bce241e74988ac", "addresses": ["1DTdeDv7ASuSY8WYTw7oh92odLo474Fomz"], "asm": "OP_DUP OP_HASH160 88aae952ea3802fc3f0fc8bb8371f0bce241e749 OP_EQUALVERIFY OP_CHECKSIG", "type": "pubkeyhash"}, "value": 0.0079342, "n": 0}, {"scriptPubKey": {"reqSigs": 1, "hex": "76a914ada4b66996eeb0dfaeccec0948d880c610fa4f1688ac", "addresses": ["1Gq9DcgThKaru5ua5EjHsJXo2ea7x4JFaW"], "asm": "OP_DUP OP_HASH160 ada4b66996eeb0dfaeccec0948d880c610fa4f16 OP_EQUALVERIFY OP_CHECKSIG", "type": "pubkeyhash"}, "value": 0.14302954, "n": 1}], "hex": "01000000013fa54e1cf641cc0e9e7e163a1da37ee653ba8d1f7dbd2ccad16a4e1fc345eb50010000006a47304402204c15d2a4087ef060b9e723a15f04a8562a4711e05f6df4a57cd699e4fdcd32d002202c4096dacba721fd144fd7ddfbc93e5aaafa1a7ba476ac9f388f228c2471005e01210257620d2362ceebef56cf2978cddc2f39fb9b116c3cee2589e935d1f4de7ad0f0ffffffff024c1b0c00000000001976a91488aae952ea3802fc3f0fc8bb8371f0bce241e74988acea3eda00000000001976a914ada4b66996eeb0dfaeccec0948d880c610fa4f1688ac00000000", "vin": [{"sequence": 4294967295, "scriptSig": {"hex": "47304402204c15d2a4087ef060b9e723a15f04a8562a4711e05f6df4a57cd699e4fdcd32d002202c4096dacba721fd144fd7ddfbc93e5aaafa1a7ba476ac9f388f228c2471005e01210257620d2362ceebef56cf2978cddc2f39fb9b116c3cee2589e935d1f4de7ad0f0", "asm": "304402204c15d2a4087ef060b9e723a15f04a8562a4711e05f6df4a57cd699e4fdcd32d002202c4096dacba721fd144fd7ddfbc93e5aaafa1a7ba476ac9f388f228c2471005e[ALL] 0257620d2362ceebef56cf2978cddc2f39fb9b116c3cee2589e935d1f4de7ad0f0"}, "vout": 1, "txid": "50eb45c31f4e6ad1ca2cbd7d1f8dba53e67ea31d3a167e9e0ecc41f61c4ea53f"}], "txid": "70b9168a2818dd3c7e63ea983db5aa202d20465303f2cd4c951c4eccc50e689c", "blocktime": 1537875543, "version": 1, "confirmations": 11464, "time": 1537875543, "locktime": 0, "vsize": 225, "size": 225}