{"hash": "7ac9d95f2db3285b4fd4c7588d1e73d375f077840f0d62fd3be2ed749fae8309", "blockhash": "000000000000000000022b45ed06c6f4ccd3cf7fb5ba4856ebd2e58215665228", "vout": [{"scriptPubKey": {"reqSigs": 1, "hex": "a9144ec92ec04f27ea1d6ad2dd01c024f0436d48e23487", "addresses": ["38sbdvKerrGFWjEVqvFhoaRtt1ANqDWAPu"], "asm": "OP_HASH160 4ec92ec04f27ea1d6ad2dd01c024f0436d48e234 OP_EQUAL", "type": "scripthash"}, "value": 0.00324, "n": 0}, {"scriptPubKey": {"reqSigs": 1, "hex": "a914c95b3f9b737321282799ec98c9e0f98c2a5c470b87", "addresses": ["3L3h4A1mQA12XcrwNe2tHVLgnYZwyduHpk"], "asm": "OP_HASH160 c95b3f9b737321282799ec98c9e0f98c2a5c470b OP_EQUAL", "type": "scripthash"}, "value": 0.100793, "n": 1}], "hex": "01000000000102888901f37b0b378c41de5e982cc36b3248ea6677558fbc5ae4193de47fdbb11e00000000232200209980b4af65cf23625da0cccc801be4de1185d8517b9b8454add59f64c9864921ffffffffc98f041cd798cb4a35887ea0f91870adf24e1257448f70e9672c16264599f05d0000000023220020f45afd40d86c595d06b8de35c26dee89b5c26ab41dbffdbd448d7e1062badb80ffffffff02a0f104000000000017a9144ec92ec04f27ea1d6ad2dd01c024f0436d48e2348744cc99000000000017a914c95b3f9b737321282799ec98c9e0f98c2a5c470b870400483045022100b34fc1ee72d1855f81ca5da2d6d50bc3387d272f1b8ead9d133fc3e20aeb6621022059d9f5302c8cd0eac228c9bc7d04509e3709518e9af2953922257fb44d173a60014730440220785880e90882345fdc0c9c07e76d1fd65cba5f06fe875111e0e8dd250a9d64c4022073f8d9311ace80577097a49e150d371e9da0fe188d7c2c6207376404ad898c1b01695221030302bd3420ba47fb1b14fbd01e8dcc956cae67f607fcd05f6f9955c78425741421036e28bdd6c761d079f491a3b40dd8593feec8550bffaacf36b8c1dfedb557699b2103ca644af0bf13ecad84fa9bd7207e2b637d42dd2002bbc5969365f1401542756453ae0400483045022100dc489893ae31b6d574611765a964aa506809b7177dbc2c4aee3aca29eb0ac46202203dc2292d9de2f0d8ec02a035656f0cdae249c49911589314da937db79c2af6a0014730440220662f73f4fbe59d285c0381250a03d42a497bac0bf803cb4ddc4efbe4d664cf4a022044b16832abf25a4a845fb0b1d3096465ed5abc55a81d3802e7a75b212bccc34d01695221035419b7c67dc42acbb7c0ac5b326533f46378e78bb95ceda4929efd2410fc751f2102ea800254555de597da53173c7e37f13e1845c7b2287137c7634584c08a95853d2103978764972eb4867d8021789578fc769ec27faa056ca9a76b6c7ca99ba489506153ae00000000", "vin": [{"txinwitness": ["", "3045022100b34fc1ee72d1855f81ca5da2d6d50bc3387d272f1b8ead9d133fc3e20aeb6621022059d9f5302c8cd0eac228c9bc7d04509e3709518e9af2953922257fb44d173a6001", "30440220785880e90882345fdc0c9c07e76d1fd65cba5f06fe875111e0e8dd250a9d64c4022073f8d9311ace80577097a49e150d371e9da0fe188d7c2c6207376404ad898c1b01", "5221030302bd3420ba47fb1b14fbd01e8dcc956cae67f607fcd05f6f9955c78425741421036e28bdd6c761d079f491a3b40dd8593feec8550bffaacf36b8c1dfedb557699b2103ca644af0bf13ecad84fa9bd7207e2b637d42dd2002bbc5969365f1401542756453ae"], "sequence": 4294967295, "scriptSig": {"hex": "2200209980b4af65cf23625da0cccc801be4de1185d8517b9b8454add59f64c9864921", "asm": "00209980b4af65cf23625da0cccc801be4de1185d8517b9b8454add59f64c9864921"}, "vout": 0, "txid": "1eb1db7fe43d19e45abc8f557766ea48326bc32c985ede418c370b7bf3018988"}, {"txinwitness": ["", "3045022100dc489893ae31b6d574611765a964aa506809b7177dbc2c4aee3aca29eb0ac46202203dc2292d9de2f0d8ec02a035656f0cdae249c49911589314da937db79c2af6a001", "30440220662f73f4fbe59d285c0381250a03d42a497bac0bf803cb4ddc4efbe4d664cf4a022044b16832abf25a4a845fb0b1d3096465ed5abc55a81d3802e7a75b212bccc34d01", "5221035419b7c67dc42acbb7c0ac5b326533f46378e78bb95ceda4929efd2410fc751f2102ea800254555de597da53173c7e37f13e1845c7b2287137c7634584c08a95853d2103978764972eb4867d8021789578fc769ec27faa056ca9a76b6c7ca99ba489506153ae"], "sequence": 4294967295, "scriptSig": {"hex": "220020f45afd40d86c595d06b8de35c26dee89b5c26ab41dbffdbd448d7e1062badb80", "asm": "0020f45afd40d86c595d06b8de35c26dee89b5c26ab41dbffdbd448d7e1062badb80"}, "vout": 0, "txid": "5df0994526162c67e9708f4457124ef2ad7018f9a07e88354acb98d71c048fc9"}], "txid": "70bb750c8a6e9d070e7d589ae2c19f3eb7b792af813ecd0caf7e12eccc5cbc77", "blocktime": 1537869901, "version": 1, "confirmations": 11524, "time": 1537869901, "locktime": 0, "vsize": 353, "size": 734}