{"hash": "70bd895bbfe18dccbeea10c0054436cd355153ec241ab7a25026e1c995bda450", "blockhash": "000000000000000000205f8b0775d31398ef75b89a5e8ec8d2c57b4dc0ac4c20", "vout": [{"scriptPubKey": {"reqSigs": 1, "hex": "76a914b96bb1552e89c080acdb1521cbfc4966b76a3ffb88ac", "addresses": ["1HuR27KkL2LeWhtW7kgeuRJePRwPY2AYe9"], "asm": "OP_DUP OP_HASH160 b96bb1552e89c080acdb1521cbfc4966b76a3ffb OP_EQUALVERIFY OP_CHECKSIG", "type": "pubkeyhash"}, "value": 0.020001, "n": 0}, {"scriptPubKey": {"reqSigs": 1, "hex": "76a9144aa9fa75af6ad44d17bba0d1bed013ef35b2fe3488ac", "addresses": ["17ondVw4f4QzdjruhggN4JbjBtxFQr3qS2"], "asm": "OP_DUP OP_HASH160 4aa9fa75af6ad44d17bba0d1bed013ef35b2fe34 OP_EQUALVERIFY OP_CHECKSIG", "type": "pubkeyhash"}, "value": 0.00015393, "n": 1}], "hex": "0100000001bf26cd3a4f0d9fbc9a4e1acbb92c43d254b886d6850498fbcb8421e8dd356944040000006a473044022065ae565a383d968c1dd59e31377e62fabd4a31b7e06bea8d849e398a3367d84e02202226db8fe2823fbec2c2f82c904033c01ca2188875e5c1f138409eabff33820a0121021ca8124e4fbce7ba2b7b3ab58c0b6ac678ae216cc1179ba56db55958d5904944ffffffff02e4841e00000000001976a914b96bb1552e89c080acdb1521cbfc4966b76a3ffb88ac213c0000000000001976a9144aa9fa75af6ad44d17bba0d1bed013ef35b2fe3488ac00000000", "vin": [{"sequence": 4294967295, "scriptSig": {"hex": "473044022065ae565a383d968c1dd59e31377e62fabd4a31b7e06bea8d849e398a3367d84e02202226db8fe2823fbec2c2f82c904033c01ca2188875e5c1f138409eabff33820a0121021ca8124e4fbce7ba2b7b3ab58c0b6ac678ae216cc1179ba56db55958d5904944", "asm": "3044022065ae565a383d968c1dd59e31377e62fabd4a31b7e06bea8d849e398a3367d84e02202226db8fe2823fbec2c2f82c904033c01ca2188875e5c1f138409eabff33820a[ALL] 021ca8124e4fbce7ba2b7b3ab58c0b6ac678ae216cc1179ba56db55958d5904944"}, "vout": 4, "txid": "446935dde82184cbfb980485d686b854d2432cb9cb1a4e9abc9f0d4f3acd26bf"}], "txid": "70bd895bbfe18dccbeea10c0054436cd355153ec241ab7a25026e1c995bda450", "blocktime": 1537871175, "version": 1, "confirmations": 11511, "time": 1537871175, "locktime": 0, "vsize": 225, "size": 225}