{"hash": "e038873a468d7476339786c574219f1b30a2623ac987c2b770510bcaa99c3ced", "blockhash": "0000000000000000000dcc0f55137456b1a82d3642486a52398922ac4d620174", "vout": [{"scriptPubKey": {"reqSigs": 1, "hex": "76a9146fd7c41e8e35c129548f4004dcdff22233a9db8788ac", "addresses": ["1BCNUz5Ei1Knz1ztnzN71Y85Hd6vDq6bQP"], "asm": "OP_DUP OP_HASH160 6fd7c41e8e35c129548f4004dcdff22233a9db87 OP_EQUALVERIFY OP_CHECKSIG", "type": "pubkeyhash"}, "value": 0.013, "n": 0}, {"scriptPubKey": {"reqSigs": 1, "hex": "a914a08364a5cdd57f1ab56a3954ad6e3b104beb5cf487", "addresses": ["3GKjSbMN1aVmiQec5SH4zGruaRrafS7CqB"], "asm": "OP_HASH160 a08364a5cdd57f1ab56a3954ad6e3b104beb5cf4 OP_EQUAL", "type": "scripthash"}, "value": 0.0498, "n": 1}, {"scriptPubKey": {"reqSigs": 1, "hex": "a914e7ba3c7e074392127637a2ef4da500b96b0a15bd87", "addresses": ["3NpH7nGxDTa2D7LH8oxYfizXVP7vSJvGiv"], "asm": "OP_HASH160 e7ba3c7e074392127637a2ef4da500b96b0a15bd OP_EQUAL", "type": "scripthash"}, "value": 0.0148, "n": 2}, {"scriptPubKey": {"reqSigs": 1, "hex": "76a914a59c447260e0b2db9d49c100b728112e80a31a5588ac", "addresses": ["1G6fhJMgvgmFKrvAtyUMZJToTeN1ri7qhj"], "asm": "OP_DUP OP_HASH160 a59c447260e0b2db9d49c100b728112e80a31a55 OP_EQUALVERIFY OP_CHECKSIG", "type": "pubkeyhash"}, "value": 0.0195, "n": 3}, {"scriptPubKey": {"reqSigs": 1, "hex": "a9147a13717f330a3e923162c962dc6d54d73f9d238a87", "addresses": ["3CpVetqP9hSakEo4CmA73MWNrZX5gFSc6U"], "asm": "OP_HASH160 7a13717f330a3e923162c962dc6d54d73f9d238a OP_EQUAL", "type": "scripthash"}, "value": 0.0064409, "n": 4}, {"scriptPubKey": {"reqSigs": 1, "hex": "76a91403695a204311cc0b33d2752b0001c2701e6b153c88ac", "addresses": ["1K3EZkGNb3kF6JCdTC3Eerbha8iUauGTL"], "asm": "OP_DUP OP_HASH160 03695a204311cc0b33d2752b0001c2701e6b153c OP_EQUALVERIFY OP_CHECKSIG", "type": "pubkeyhash"}, "value": 1.3, "n": 5}, {"scriptPubKey": {"reqSigs": 1, "hex": "76a914331f4b74708a43ff254c1712dca035c22b83f87488ac", "addresses": ["15fJxBTpeoTcdhMtkmuoa6E9VabbLwSuoo"], "asm": "OP_DUP OP_HASH160 331f4b74708a43ff254c1712dca035c22b83f874 OP_EQUALVERIFY OP_CHECKSIG", "type": "pubkeyhash"}, "value": 0.0198, "n": 6}, {"scriptPubKey": {"reqSigs": 1, "hex": "a91421193971a1da0ae9b9a6afac9f38a7b39c1d4dff87", "addresses": ["34i2SVh9dPQc5yRyu9i3QzxGBjYCVRNQQM"], "asm": "OP_HASH160 21193971a1da0ae9b9a6afac9f38a7b39c1d4dff OP_EQUAL", "type": "scripthash"}, "value": 0.001, "n": 7}, {"scriptPubKey": {"reqSigs": 1, "hex": "a914cadacee3d90938404f4873a741da5d6189edb68c87", "addresses": ["3LBcYMKwKF5kc2JdWpkHBAk7G89ardRCbF"], "asm": "OP_HASH160 cadacee3d90938404f4873a741da5d6189edb68c OP_EQUAL", "type": "scripthash"}, "value": 48.875083, "n": 8}], "hex": "010000000001063b1f38ba78a1671d61ee478012a1951a3b82f1c320365f9260a3099200b220ff01000000171600147c86d6052d2d8b01ae72b0fdb88932066caaebefffffffff168d8c12f8e21b37d83552be0124a31a399989739c36d0e6e5aec75652ba90ca00000000171600143def7093ff3bb14b7f581a57cc1fff36a79aa35dffffffffab52a843ea307d502bcfff20f973c96d5cd436e6acce36a687ffcb8051743ba50000000017160014abd35d887376b75423f79ef15bd61d8807f16d56ffffffffabe59f662458a78b461f693f1365fff378c06c36fca6dce8c642acdd74355d90000000001716001438af6ba8cb82f11127b15a447bfd0a4ee7a1eba1ffffffff56b64ac7140bb463f297c589f2a7e66f4b17a582864dfc84e26a8308459a9d8b000000001716001443a5a0c52df925563bb2ab1cdffe232c1da5faf2ffffffff7e167c7b9bbceeeadf0b4f3dad0e7328e49276851006fb16136d3949b0d0552802000000171600147b5939465f3c42d4087326098cadabfcf5877c0effffffff0920d61300000000001976a9146fd7c41e8e35c129548f4004dcdff22233a9db8788ac20fd4b000000000017a914a08364a5cdd57f1ab56a3954ad6e3b104beb5cf487409516000000000017a914e7ba3c7e074392127637a2ef4da500b96b0a15bd8730c11d00000000001976a914a59c447260e0b2db9d49c100b728112e80a31a5588acfad309000000000017a9147a13717f330a3e923162c962dc6d54d73f9d238a8780a4bf07000000001976a91403695a204311cc0b33d2752b0001c2701e6b153c88ac60361e00000000001976a914331f4b74708a43ff254c1712dca035c22b83f87488aca08601000000000017a91421193971a1da0ae9b9a6afac9f38a7b39c1d4dff874c7551230100000017a914cadacee3d90938404f4873a741da5d6189edb68c8702483045022100ab40695d56aa4e0e63155dbafb4c9d286f64703f741d417d79d60be9be504b46022044583f8a141cc4e8d23f4d542dcefec07cd993605d143f6d70e0761beb1222540121039ba8c76334b2137b6fa1188ef03d5b8ba0165cb67505b2df2c7144c0f44be691024830450221009c6db0da234783ab664871de2300f2161bd2fa8d41be88f7431f3ae3be22cc1802207407cc91c0a0a5d43a3a4b864025f3f659a863d570cf2e00fc0698624ee7499101210302efb933dcf977745b043b094e896126cab9fc7831cf25eeb1a754ebdf939d020247304402206888c673691e3d770dcf0676f7e4952be1290a957b9d7d0c2a5ff49458dc8b6602204f42f0b214b929a9bc8a673c2245ad0e8b8826904368030fae57dd38b4a135090121026e589dab0fce722baabc9b336630cc0f1a36d39186b799266edb81bf0718ba8002483045022100ca14f024276c7b89bdf7e6354a9c364681e19d25863353491606de6ff029ae04022074e80ceb5a729246f87a0429c33ff3246f7a22a74185675a1bdf9a17e8b76f800121023109ade04edfdcb1bf39234cc69fe24a83d162f7d04d4d795a65b09d94f421c6024730440220615eb023ddbda86158c7b83051ad1f29def139478961452456408f98eb9db9b902204d0b5d0863f7e5fc2e0d4e98ae7c52b5b139d951f13fac2fb6ebf843446f169201210270ea3ea2ff020868b63c84e4766425c65b4078327e2233cacf7d333e66756f7d024730440220115049f561bc8ffacf7b58df431f2cc57675351e03d8a773a7713b462272cea802204505c9db112e2939406d5d9784f15a8c18634de1c6c29420323c9e28a384460c012103acc765727d0f320166ee530e98a4712d72a1480442b8456540407f550b4c252200000000", "vin": [{"txinwitness": ["3045022100ab40695d56aa4e0e63155dbafb4c9d286f64703f741d417d79d60be9be504b46022044583f8a141cc4e8d23f4d542dcefec07cd993605d143f6d70e0761beb12225401", "039ba8c76334b2137b6fa1188ef03d5b8ba0165cb67505b2df2c7144c0f44be691"], "sequence": 4294967295, "scriptSig": {"hex": "1600147c86d6052d2d8b01ae72b0fdb88932066caaebef", "asm": "00147c86d6052d2d8b01ae72b0fdb88932066caaebef"}, "vout": 1, "txid": "ff20b2009209a360925f3620c3f1823b1a95a1128047ee611d67a178ba381f3b"}, {"txinwitness": ["30450221009c6db0da234783ab664871de2300f2161bd2fa8d41be88f7431f3ae3be22cc1802207407cc91c0a0a5d43a3a4b864025f3f659a863d570cf2e00fc0698624ee7499101", "0302efb933dcf977745b043b094e896126cab9fc7831cf25eeb1a754ebdf939d02"], "sequence": 4294967295, "scriptSig": {"hex": "1600143def7093ff3bb14b7f581a57cc1fff36a79aa35d", "asm": "00143def7093ff3bb14b7f581a57cc1fff36a79aa35d"}, "vout": 0, "txid": "ca90ba5256c7aee5e6d0369c738999391aa32401be5235d8371be2f8128c8d16"}, {"txinwitness": ["304402206888c673691e3d770dcf0676f7e4952be1290a957b9d7d0c2a5ff49458dc8b6602204f42f0b214b929a9bc8a673c2245ad0e8b8826904368030fae57dd38b4a1350901", "026e589dab0fce722baabc9b336630cc0f1a36d39186b799266edb81bf0718ba80"], "sequence": 4294967295, "scriptSig": {"hex": "160014abd35d887376b75423f79ef15bd61d8807f16d56", "asm": "0014abd35d887376b75423f79ef15bd61d8807f16d56"}, "vout": 0, "txid": "a53b745180cbff87a636ceace636d45c6dc973f920ffcf2b507d30ea43a852ab"}, {"txinwitness": ["3045022100ca14f024276c7b89bdf7e6354a9c364681e19d25863353491606de6ff029ae04022074e80ceb5a729246f87a0429c33ff3246f7a22a74185675a1bdf9a17e8b76f8001", "023109ade04edfdcb1bf39234cc69fe24a83d162f7d04d4d795a65b09d94f421c6"], "sequence": 4294967295, "scriptSig": {"hex": "16001438af6ba8cb82f11127b15a447bfd0a4ee7a1eba1", "asm": "001438af6ba8cb82f11127b15a447bfd0a4ee7a1eba1"}, "vout": 0, "txid": "905d3574ddac42c6e8dca6fc366cc078f3ff65133f691f468ba75824669fe5ab"}, {"txinwitness": ["30440220615eb023ddbda86158c7b83051ad1f29def139478961452456408f98eb9db9b902204d0b5d0863f7e5fc2e0d4e98ae7c52b5b139d951f13fac2fb6ebf843446f169201", "0270ea3ea2ff020868b63c84e4766425c65b4078327e2233cacf7d333e66756f7d"], "sequence": 4294967295, "scriptSig": {"hex": "16001443a5a0c52df925563bb2ab1cdffe232c1da5faf2", "asm": "001443a5a0c52df925563bb2ab1cdffe232c1da5faf2"}, "vout": 0, "txid": "8b9d9a4508836ae284fc4d8682a5174b6fe6a7f289c597f263b40b14c74ab656"}, {"txinwitness": ["30440220115049f561bc8ffacf7b58df431f2cc57675351e03d8a773a7713b462272cea802204505c9db112e2939406d5d9784f15a8c18634de1c6c29420323c9e28a384460c01", "03acc765727d0f320166ee530e98a4712d72a1480442b8456540407f550b4c2522"], "sequence": 4294967295, "scriptSig": {"hex": "1600147b5939465f3c42d4087326098cadabfcf5877c0e", "asm": "00147b5939465f3c42d4087326098cadabfcf5877c0e"}, "vout": 2, "txid": "2855d0b049396d1316fb0610857692e428730ead3d4f0bdfeaeebc9b7b7c167e"}], "txid": "70c1cdec4527d21bb108a5c0ebce70729735e2cd7173cfe0c02f15d0817780d4", "blocktime": 1537870268, "version": 1, "confirmations": 11517, "time": 1537870268, "locktime": 0, "vsize": 852, "size": 1337}