{"hash": "d243839315395678e8885604b34fa1141134822244c075db8313ed4ef5aedaac", "blockhash": "0000000000000000000baef3f32e3676a92c3b2e5da21b426e4f302fc371ce76", "vout": [{"scriptPubKey": {"reqSigs": 1, "hex": "a91432b112dcd2a9d2b31a73244913e509221ec976e987", "addresses": ["36K3qRv63uq8RhJHf14fmSWNJNNiZYvD2o"], "asm": "OP_HASH160 32b112dcd2a9d2b31a73244913e509221ec976e9 OP_EQUAL", "type": "scripthash"}, "value": 96.73760733, "n": 0}, {"scriptPubKey": {"reqSigs": 1, "hex": "76a914367e684e396bbbab9e8d459dfc9c6e262c49b5b988ac", "addresses": ["15y8vJWvoX4SsbYMUmDA6jWsNrbVpy3nFs"], "asm": "OP_DUP OP_HASH160 367e684e396bbbab9e8d459dfc9c6e262c49b5b9 OP_EQUALVERIFY OP_CHECKSIG", "type": "pubkeyhash"}, "value": 0.00395, "n": 1}], "hex": "020000000001014ed1570c534c2b90b65e556981834065ee707f6d41ec12a2481841bfbe83d0160100000017160014eea57392cc69b047f3fb9ba4d757af002bc4adf9feffffff02dddf99400200000017a91432b112dcd2a9d2b31a73244913e509221ec976e987f8060600000000001976a914367e684e396bbbab9e8d459dfc9c6e262c49b5b988ac02473044022066342a3a479af6a4cefd5346c191e0793b3a80bfbcc92b74eb5815a4106580520220401cacad6dc2b8e6ebd711fc1844b4c82bf17fc0005d07f937e45470e7b13fa8012102165fd294cb05bf341022ba5c9fe0dea735830451882685d5bf36d8fb1ebc510bef480800", "vin": [{"txinwitness": ["3044022066342a3a479af6a4cefd5346c191e0793b3a80bfbcc92b74eb5815a4106580520220401cacad6dc2b8e6ebd711fc1844b4c82bf17fc0005d07f937e45470e7b13fa801", "02165fd294cb05bf341022ba5c9fe0dea735830451882685d5bf36d8fb1ebc510b"], "sequence": 4294967294, "scriptSig": {"hex": "160014eea57392cc69b047f3fb9ba4d757af002bc4adf9", "asm": "0014eea57392cc69b047f3fb9ba4d757af002bc4adf9"}, "vout": 1, "txid": "16d083bebf411848a212ec416d7f70ee6540838169555eb6902b4c530c57d14e"}], "txid": "70cbfb85bc549c6ffb318001d0e6adee28e3733e8aa522fe5a3dfb29192c5c93", "blocktime": 1537876114, "version": 2, "confirmations": 11460, "time": 1537876114, "locktime": 542959, "vsize": 168, "size": 249}