{"hash": "70ce540888678b418f218344e7a174357d7f4aeee9de38fcbe7a6dca3a16d3f3", "blockhash": "00000000000000000018f53835495a110e01622372bf6ae95dc86f2b0ab887b0", "vout": [{"scriptPubKey": {"reqSigs": 1, "hex": "76a914bf00135581157132d7ea20f81e8b36ecd832393888ac", "addresses": ["1JQv9tT7AVgZftrRbcE1eZUc4NHwt6ixEk"], "asm": "OP_DUP OP_HASH160 bf00135581157132d7ea20f81e8b36ecd8323938 OP_EQUALVERIFY OP_CHECKSIG", "type": "pubkeyhash"}, "value": 0.01561122, "n": 0}, {"scriptPubKey": {"reqSigs": 1, "hex": "76a91461580182a04dbfb6676e3a016fa13fe925eea59888ac", "addresses": ["19shyN9fGN9VZH5QHUU24WTZoXNzdJwPFe"], "asm": "OP_DUP OP_HASH160 61580182a04dbfb6676e3a016fa13fe925eea598 OP_EQUALVERIFY OP_CHECKSIG", "type": "pubkeyhash"}, "value": 0.08085977, "n": 1}], "hex": "01000000017d5f08c826eb01e4046d970db0a9a2a995a572e64bbc51d78e0e5bd68d80603a010000006b48304502210093cfa2b944a21c55300e14186994247f066aa80204b215373ad93e9c1f9f902a02203b1cd7d804a982c2821cbee670850cf84f394cfee694ad6f11c0224fef6770a0012103647fa67b95049af0ce39e422c869933bb7747877f0a422e9f48569cd7b313591ffffffff0222d21700000000001976a914bf00135581157132d7ea20f81e8b36ecd832393888acd9617b00000000001976a91461580182a04dbfb6676e3a016fa13fe925eea59888ac00000000", "vin": [{"sequence": 4294967295, "scriptSig": {"hex": "48304502210093cfa2b944a21c55300e14186994247f066aa80204b215373ad93e9c1f9f902a02203b1cd7d804a982c2821cbee670850cf84f394cfee694ad6f11c0224fef6770a0012103647fa67b95049af0ce39e422c869933bb7747877f0a422e9f48569cd7b313591", "asm": "304502210093cfa2b944a21c55300e14186994247f066aa80204b215373ad93e9c1f9f902a02203b1cd7d804a982c2821cbee670850cf84f394cfee694ad6f11c0224fef6770a0[ALL] 03647fa67b95049af0ce39e422c869933bb7747877f0a422e9f48569cd7b313591"}, "vout": 1, "txid": "3a60808dd65b0e8ed751bc4be672a595a9a2a9b00d976d04e401eb26c8085f7d"}], "txid": "70ce540888678b418f218344e7a174357d7f4aeee9de38fcbe7a6dca3a16d3f3", "blocktime": 1537870928, "version": 1, "confirmations": 11514, "time": 1537870928, "locktime": 0, "vsize": 226, "size": 226}