{"hash": "70d0fee75c6630798b0eff101cf6d35d4846b9071b607fc5d0565609aaeaf48f", "blockhash": "0000000000000000000dcc0f55137456b1a82d3642486a52398922ac4d620174", "vout": [{"scriptPubKey": {"reqSigs": 1, "hex": "76a9144738c407661aa85ee5f195a9aa04e7345e601e4d88ac", "addresses": ["17VaymowZkyJCVweTMFQkzEtYyjdhi9A7x"], "asm": "OP_DUP OP_HASH160 4738c407661aa85ee5f195a9aa04e7345e601e4d OP_EQUALVERIFY OP_CHECKSIG", "type": "pubkeyhash"}, "value": 0.5942126, "n": 0}], "hex": "010000000e3bbdff07451d98967934cca7145a27783ebf416215b0a17aba6b6439dd88501a010000006a473044022054b0c6a754e68946b89aa096e4facd7bf38c4ecdc353f46cde898c9d4e771f6502202e87b43e6c0bff0c69bee1e08c3fbbb59a2ad2b938cf5553afeb6d64b7d1cd07012102c0598f5003445b512804d5d97cc252da60792b5633dc5d363b19764e0f8a996effffffff97c207e8443505930eaa55c78392dd204647f7f048451375b2ffffe004d97322000000006b483045022100f64c598bf92f3231b74ef12df8e019df0377b5ab51015dd23dcc1fa33fed302d022035f08eddfad9465720ae8d6a501c7cc9b170cbc9694a1fc0cd6fa6694c98e3fe01210343281a8e528b7987417489913774e557adfd8e96b3245d15d8692e23f9e48cccffffffff3b33d61ebb81cb324f3071b4043efd48005b042a72d60682c74133addeed5539000000006a473044022006971cb58bedc3620a79b90f3fb67181ceb0cf41c885cded76fbbd9dac92054d0220546d481eb66993e60ac263d82f3c3c84c9c43ab5c92e129fdba634c6f4342afe01210343281a8e528b7987417489913774e557adfd8e96b3245d15d8692e23f9e48cccffffffffcf07c1f9864e2b9d3d6b9b5f87a93037cb351ffc62be5e5cbfbbcd490a4c1240010000006b483045022100f5f629940ff2bb72d2374f6d1c5da3d56da0558d97541d339cad084aa049d7e10220103c0797d1caf1ee17009f067c1c0fc1e38da79a9280bc7ca5c61f2f87e62b4a012103973ca4df236cf7c809dc5699538b6e1b446dc1eb99e3d0f916183a4c90d0ace0ffffffff54d79a24f1a9ca9a1702fda5fc507a983f0ccf87b14e8daa2959b24d1a009344000000006b483045022100b7bd67b12d11b37a5f98bbd1e6ab23fcc3bea31117b61827f64026c971fcb2010220119ec0388b8273d2f188a00d88f66d425bab83f23ded0939d96cde840c45e5b0012102cfbbc875fc1f6e77198a51bb8f5a9f734be208b45b7dd3cd64f595931395d8eeffffffffd1baf82264d1b6b3917e5f4d7766cfeecd6ac5aec69f609271522c43ccdbb846000000006a4730440220650cb416fc871745e2e2b0288b277cad007d1675cb5f16e05b6bf34a4ea39a2b022045ff28c7d81432ef4c156a53801827a25e80d17fef0310c2ff228cd7e0c9d90b012102cfbbc875fc1f6e77198a51bb8f5a9f734be208b45b7dd3cd64f595931395d8eeffffffff0d39c5623b2f985fd08e24273a67ca0e0eb1a63f6e71ded0ec0b846fe3ee2b53000000006a473044022044c7d4c1cf1fffa04810ea4e1defa16830bca8b99c2b0d973b325c3d64d258720220037c85879fe126eb2f654a2ad10c03bced69d9b796491fb9b9faff32013c99be012102cfbbc875fc1f6e77198a51bb8f5a9f734be208b45b7dd3cd64f595931395d8eeffffffffcdb2060fdc3d0ff47d9913c2695d5c789d98098aae7142b0ef5b269ff096c757000000006a47304402205a3775483e822e523ffc863562d851091729e1b6b094f6eafab5e2e77a15882602205202bf83837a09e929d7905d4a074eaf892fbd13ec65eba526173b70d9e9129801210343281a8e528b7987417489913774e557adfd8e96b3245d15d8692e23f9e48cccffffffffde52b0c5a8c318149d41bcc88543838d0780130840ad14fbeacba7a803a3715d000000006b483045022100d5dce85c26c39fde2c59d299617823533514519e8593a8e3d18362b8c285ddb7022062fa8a2148afdf5a825e4fb9e6009e41d435d66cdfe1814472737783f2bb8d4601210343281a8e528b7987417489913774e557adfd8e96b3245d15d8692e23f9e48cccffffffff5e843eeb3d681237991bfe1471d09ab87f969a3a9413f20600b8c1c46274fa89000000006b483045022100e0c9adb4797f6315361d05ffe7227420294c8fdd3e767268ced51dcbe2053d9902206b9abb30e3225447c057a7a04f18c8240eda3d4d2b88f65b45b9709b61c2a44001210343281a8e528b7987417489913774e557adfd8e96b3245d15d8692e23f9e48cccffffffff93a7f2eceb636b6a0f8e8f6c4dcfce908f34a947c27d35743c915ecd498b7693000000006a47304402203c5c3f40acf55d18a53f5ee993940e923b7ee63865a20a78e5d24faaa97ec42c0220741447efc8deddf5be00090c0239335da379d2c99014b2a9501ed67fb863da49012102cfbbc875fc1f6e77198a51bb8f5a9f734be208b45b7dd3cd64f595931395d8eeffffffffbfa4d399d4084845db3cf653ee8fd6227c3a3dfb39f460ef21767a960952d4cb000000006a473044022037d8314b6f55c19dee45136f065bb4cde06736c07e0754b0fcdf5048af593125022042b0f4077d0c902758952d5798554b7044f7e1a6462c5a8eb1d10361d259c4cc01210343281a8e528b7987417489913774e557adfd8e96b3245d15d8692e23f9e48cccfffffffff624e845c15dfb0ffbf0e0922661fdbcfc3b759f3b1aaa58b82c853faf1f6bcd000000006a473044022030cba3cf34063d841d9508a8f0c39d8aff3bc7623af473ae85db1a9947bdea9802205baf1590ffe7391ddeb570db522d64a74183e3671f288bfd977f4f046d536e8001210343281a8e528b7987417489913774e557adfd8e96b3245d15d8692e23f9e48cccffffffff35100ad5de88244f18fb3f2eb67c4a358ba17829741db73985587e98f9486ece000000006a473044022028617869962ff9e38480b90771ef53ab6996679db675fd7ce5369c4e4e4d1cbf0220124a9dfef744442485a0bc29ceced5808c47e37b9c5ee99fa708d6d52176d4160121033f014a9eb1cae8c818448d87833c6fe3b15bc74c0f21d0d4ac704283b83bc007ffffffff014cb28a03000000001976a9144738c407661aa85ee5f195a9aa04e7345e601e4d88ac00000000", "vin": [{"sequence": 4294967295, "scriptSig": {"hex": "473044022054b0c6a754e68946b89aa096e4facd7bf38c4ecdc353f46cde898c9d4e771f6502202e87b43e6c0bff0c69bee1e08c3fbbb59a2ad2b938cf5553afeb6d64b7d1cd07012102c0598f5003445b512804d5d97cc252da60792b5633dc5d363b19764e0f8a996e", "asm": "3044022054b0c6a754e68946b89aa096e4facd7bf38c4ecdc353f46cde898c9d4e771f6502202e87b43e6c0bff0c69bee1e08c3fbbb59a2ad2b938cf5553afeb6d64b7d1cd07[ALL] 02c0598f5003445b512804d5d97cc252da60792b5633dc5d363b19764e0f8a996e"}, "vout": 1, "txid": "1a5088dd39646bba7aa1b0156241bf3e78275a14a7cc347996981d4507ffbd3b"}, {"sequence": 4294967295, "scriptSig": {"hex": "483045022100f64c598bf92f3231b74ef12df8e019df0377b5ab51015dd23dcc1fa33fed302d022035f08eddfad9465720ae8d6a501c7cc9b170cbc9694a1fc0cd6fa6694c98e3fe01210343281a8e528b7987417489913774e557adfd8e96b3245d15d8692e23f9e48ccc", "asm": "3045022100f64c598bf92f3231b74ef12df8e019df0377b5ab51015dd23dcc1fa33fed302d022035f08eddfad9465720ae8d6a501c7cc9b170cbc9694a1fc0cd6fa6694c98e3fe[ALL] 0343281a8e528b7987417489913774e557adfd8e96b3245d15d8692e23f9e48ccc"}, "vout": 0, "txid": "2273d904e0ffffb275134548f0f7474620dd9283c755aa0e93053544e807c297"}, {"sequence": 4294967295, "scriptSig": {"hex": "473044022006971cb58bedc3620a79b90f3fb67181ceb0cf41c885cded76fbbd9dac92054d0220546d481eb66993e60ac263d82f3c3c84c9c43ab5c92e129fdba634c6f4342afe01210343281a8e528b7987417489913774e557adfd8e96b3245d15d8692e23f9e48ccc", "asm": "3044022006971cb58bedc3620a79b90f3fb67181ceb0cf41c885cded76fbbd9dac92054d0220546d481eb66993e60ac263d82f3c3c84c9c43ab5c92e129fdba634c6f4342afe[ALL] 0343281a8e528b7987417489913774e557adfd8e96b3245d15d8692e23f9e48ccc"}, "vout": 0, "txid": "3955eddead3341c78206d6722a045b0048fd3e04b471304f32cb81bb1ed6333b"}, {"sequence": 4294967295, "scriptSig": {"hex": "483045022100f5f629940ff2bb72d2374f6d1c5da3d56da0558d97541d339cad084aa049d7e10220103c0797d1caf1ee17009f067c1c0fc1e38da79a9280bc7ca5c61f2f87e62b4a012103973ca4df236cf7c809dc5699538b6e1b446dc1eb99e3d0f916183a4c90d0ace0", "asm": "3045022100f5f629940ff2bb72d2374f6d1c5da3d56da0558d97541d339cad084aa049d7e10220103c0797d1caf1ee17009f067c1c0fc1e38da79a9280bc7ca5c61f2f87e62b4a[ALL] 03973ca4df236cf7c809dc5699538b6e1b446dc1eb99e3d0f916183a4c90d0ace0"}, "vout": 1, "txid": "40124c0a49cdbbbf5c5ebe62fc1f35cb3730a9875f9b6b3d9d2b4e86f9c107cf"}, {"sequence": 4294967295, "scriptSig": {"hex": "483045022100b7bd67b12d11b37a5f98bbd1e6ab23fcc3bea31117b61827f64026c971fcb2010220119ec0388b8273d2f188a00d88f66d425bab83f23ded0939d96cde840c45e5b0012102cfbbc875fc1f6e77198a51bb8f5a9f734be208b45b7dd3cd64f595931395d8ee", "asm": "3045022100b7bd67b12d11b37a5f98bbd1e6ab23fcc3bea31117b61827f64026c971fcb2010220119ec0388b8273d2f188a00d88f66d425bab83f23ded0939d96cde840c45e5b0[ALL] 02cfbbc875fc1f6e77198a51bb8f5a9f734be208b45b7dd3cd64f595931395d8ee"}, "vout": 0, "txid": "4493001a4db25929aa8d4eb187cf0c3f987a50fca5fd02179acaa9f1249ad754"}, {"sequence": 4294967295, "scriptSig": {"hex": "4730440220650cb416fc871745e2e2b0288b277cad007d1675cb5f16e05b6bf34a4ea39a2b022045ff28c7d81432ef4c156a53801827a25e80d17fef0310c2ff228cd7e0c9d90b012102cfbbc875fc1f6e77198a51bb8f5a9f734be208b45b7dd3cd64f595931395d8ee", "asm": "30440220650cb416fc871745e2e2b0288b277cad007d1675cb5f16e05b6bf34a4ea39a2b022045ff28c7d81432ef4c156a53801827a25e80d17fef0310c2ff228cd7e0c9d90b[ALL] 02cfbbc875fc1f6e77198a51bb8f5a9f734be208b45b7dd3cd64f595931395d8ee"}, "vout": 0, "txid": "46b8dbcc432c527192609fc6aec56acdeecf66774d5f7e91b3b6d16422f8bad1"}, {"sequence": 4294967295, "scriptSig": {"hex": "473044022044c7d4c1cf1fffa04810ea4e1defa16830bca8b99c2b0d973b325c3d64d258720220037c85879fe126eb2f654a2ad10c03bced69d9b796491fb9b9faff32013c99be012102cfbbc875fc1f6e77198a51bb8f5a9f734be208b45b7dd3cd64f595931395d8ee", "asm": "3044022044c7d4c1cf1fffa04810ea4e1defa16830bca8b99c2b0d973b325c3d64d258720220037c85879fe126eb2f654a2ad10c03bced69d9b796491fb9b9faff32013c99be[ALL] 02cfbbc875fc1f6e77198a51bb8f5a9f734be208b45b7dd3cd64f595931395d8ee"}, "vout": 0, "txid": "532beee36f840becd0de716e3fa6b10e0eca673a27248ed05f982f3b62c5390d"}, {"sequence": 4294967295, "scriptSig": {"hex": "47304402205a3775483e822e523ffc863562d851091729e1b6b094f6eafab5e2e77a15882602205202bf83837a09e929d7905d4a074eaf892fbd13ec65eba526173b70d9e9129801210343281a8e528b7987417489913774e557adfd8e96b3245d15d8692e23f9e48ccc", "asm": "304402205a3775483e822e523ffc863562d851091729e1b6b094f6eafab5e2e77a15882602205202bf83837a09e929d7905d4a074eaf892fbd13ec65eba526173b70d9e91298[ALL] 0343281a8e528b7987417489913774e557adfd8e96b3245d15d8692e23f9e48ccc"}, "vout": 0, "txid": "57c796f09f265befb04271ae8a09989d785c5d69c213997df40f3ddc0f06b2cd"}, {"sequence": 4294967295, "scriptSig": {"hex": "483045022100d5dce85c26c39fde2c59d299617823533514519e8593a8e3d18362b8c285ddb7022062fa8a2148afdf5a825e4fb9e6009e41d435d66cdfe1814472737783f2bb8d4601210343281a8e528b7987417489913774e557adfd8e96b3245d15d8692e23f9e48ccc", "asm": "3045022100d5dce85c26c39fde2c59d299617823533514519e8593a8e3d18362b8c285ddb7022062fa8a2148afdf5a825e4fb9e6009e41d435d66cdfe1814472737783f2bb8d46[ALL] 0343281a8e528b7987417489913774e557adfd8e96b3245d15d8692e23f9e48ccc"}, "vout": 0, "txid": "5d71a303a8a7cbeafb14ad40081380078d834385c8bc419d1418c3a8c5b052de"}, {"sequence": 4294967295, "scriptSig": {"hex": "483045022100e0c9adb4797f6315361d05ffe7227420294c8fdd3e767268ced51dcbe2053d9902206b9abb30e3225447c057a7a04f18c8240eda3d4d2b88f65b45b9709b61c2a44001210343281a8e528b7987417489913774e557adfd8e96b3245d15d8692e23f9e48ccc", "asm": "3045022100e0c9adb4797f6315361d05ffe7227420294c8fdd3e767268ced51dcbe2053d9902206b9abb30e3225447c057a7a04f18c8240eda3d4d2b88f65b45b9709b61c2a440[ALL] 0343281a8e528b7987417489913774e557adfd8e96b3245d15d8692e23f9e48ccc"}, "vout": 0, "txid": "89fa7462c4c1b80006f213943a9a967fb89ad07114fe1b993712683deb3e845e"}, {"sequence": 4294967295, "scriptSig": {"hex": "47304402203c5c3f40acf55d18a53f5ee993940e923b7ee63865a20a78e5d24faaa97ec42c0220741447efc8deddf5be00090c0239335da379d2c99014b2a9501ed67fb863da49012102cfbbc875fc1f6e77198a51bb8f5a9f734be208b45b7dd3cd64f595931395d8ee", "asm": "304402203c5c3f40acf55d18a53f5ee993940e923b7ee63865a20a78e5d24faaa97ec42c0220741447efc8deddf5be00090c0239335da379d2c99014b2a9501ed67fb863da49[ALL] 02cfbbc875fc1f6e77198a51bb8f5a9f734be208b45b7dd3cd64f595931395d8ee"}, "vout": 0, "txid": "93768b49cd5e913c74357dc247a9348f90cecf4d6c8f8e0f6a6b63ebecf2a793"}, {"sequence": 4294967295, "scriptSig": {"hex": "473044022037d8314b6f55c19dee45136f065bb4cde06736c07e0754b0fcdf5048af593125022042b0f4077d0c902758952d5798554b7044f7e1a6462c5a8eb1d10361d259c4cc01210343281a8e528b7987417489913774e557adfd8e96b3245d15d8692e23f9e48ccc", "asm": "3044022037d8314b6f55c19dee45136f065bb4cde06736c07e0754b0fcdf5048af593125022042b0f4077d0c902758952d5798554b7044f7e1a6462c5a8eb1d10361d259c4cc[ALL] 0343281a8e528b7987417489913774e557adfd8e96b3245d15d8692e23f9e48ccc"}, "vout": 0, "txid": "cbd45209967a7621ef60f439fb3d3a7c22d68fee53f63cdb454808d499d3a4bf"}, {"sequence": 4294967295, "scriptSig": {"hex": "473044022030cba3cf34063d841d9508a8f0c39d8aff3bc7623af473ae85db1a9947bdea9802205baf1590ffe7391ddeb570db522d64a74183e3671f288bfd977f4f046d536e8001210343281a8e528b7987417489913774e557adfd8e96b3245d15d8692e23f9e48ccc", "asm": "3044022030cba3cf34063d841d9508a8f0c39d8aff3bc7623af473ae85db1a9947bdea9802205baf1590ffe7391ddeb570db522d64a74183e3671f288bfd977f4f046d536e80[ALL] 0343281a8e528b7987417489913774e557adfd8e96b3245d15d8692e23f9e48ccc"}, "vout": 0, "txid": "cd6b1faf3f852cb858aa1a3b9f753bfcbcfd612692e0f0fb0ffb5dc145e824f6"}, {"sequence": 4294967295, "scriptSig": {"hex": "473044022028617869962ff9e38480b90771ef53ab6996679db675fd7ce5369c4e4e4d1cbf0220124a9dfef744442485a0bc29ceced5808c47e37b9c5ee99fa708d6d52176d4160121033f014a9eb1cae8c818448d87833c6fe3b15bc74c0f21d0d4ac704283b83bc007", "asm": "3044022028617869962ff9e38480b90771ef53ab6996679db675fd7ce5369c4e4e4d1cbf0220124a9dfef744442485a0bc29ceced5808c47e37b9c5ee99fa708d6d52176d416[ALL] 033f014a9eb1cae8c818448d87833c6fe3b15bc74c0f21d0d4ac704283b83bc007"}, "vout": 0, "txid": "ce6e48f9987e588539b71d742978a18b354a7cb62e3ffb184f2488ded50a1035"}], "txid": "70d0fee75c6630798b0eff101cf6d35d4846b9071b607fc5d0565609aaeaf48f", "blocktime": 1537870268, "version": 1, "confirmations": 11516, "time": 1537870268, "locktime": 0, "vsize": 2107, "size": 2107}