{"hash": "06a3e04270d19fb36db017a29ba40186853cd5deb4cb2aeb5b728a805098f502", "blockhash": "0000000000000000000baef3f32e3676a92c3b2e5da21b426e4f302fc371ce76", "vout": [{"scriptPubKey": {"reqSigs": 1, "hex": "a91469e95f7fd29391f638ae3751060ee146a26b61ba87", "addresses": ["3BM2SjFhoViXehXMAeWW1pDfyy4r7pt2A8"], "asm": "OP_HASH160 69e95f7fd29391f638ae3751060ee146a26b61ba OP_EQUAL", "type": "scripthash"}, "value": 0.11374431, "n": 0}, {"scriptPubKey": {"reqSigs": 1, "hex": "76a9144c77b3d1bc585caa4a4bd8f80511cbb99b7fd57a88ac", "addresses": ["17yKkeeDzWRT1Pj84Pm9aYbUSFsYkkvPv1"], "asm": "OP_DUP OP_HASH160 4c77b3d1bc585caa4a4bd8f80511cbb99b7fd57a OP_EQUALVERIFY OP_CHECKSIG", "type": "pubkeyhash"}, "value": 0.046927, "n": 1}], "hex": "0100000000010349ea55b950fc11999c51e5c9c92dc2403946081b19132017735f2dd8a095b42f00000000232200203f5cd3b93a2a99bb65ceb0be861889179a9fb143c09a12023073e2aec9d952e1ffffffff83831fe5ec71879a39a894feeef6ed97115ddce8440f32dea8cd7bf072ac09e40000000023220020d5a205921bb5b255da6c14b01df10248bf3af33d4c6b686cb76a672bec251414ffffffff3a998cc4824cf230603a299066a0fa8513731dc3bd5152c5eb9f63945fc97215010000002322002088fd5b409b3dc5d185e01f4cbb378f2114642fadcb3f052e0059560a947398a2ffffffff025f8fad000000000017a91469e95f7fd29391f638ae3751060ee146a26b61ba87dc9a4700000000001976a9144c77b3d1bc585caa4a4bd8f80511cbb99b7fd57a88ac0400483045022100f729252893a9f80b5f2b27764ba3241687c530f4dc0657d6d38bef57b24c8c9502205e934a290829879509c13eaaf9a139e4c606d044a73b8d926b3076ef88c8e1220147304402203eb4013b7ef455fa0caaf9cdc0646133cc28a4d138176d5b503b9801f4a3422d02203f2dbe049c4ba0b3eed72144101c811c52f4f9361adcdc2f57b4b7bd829a7299016952210209aa871a83a91fb33d218b01af29f0f1c74c19380ea29724b2172569e935895c2102f86259ac1bf4113af7c8757f2ebaa8a1b08a269251a360639df9f0fafeed8c542103315fa49218d8717abb05d9f3eee1973b18ba7f7e1ce5e6e3922585eed4930dc653ae0400483045022100d50a229534aab1d6293c45a1e74078fbe9e79d04b2d15efcf5f88eebfa042385022032238fe4bd6c3b9ef7b311c2b00a607054a900809076433c928c6dfb6ef5c49b01483045022100b3363b8e5709c370aac2a471e38574c0163e3bd9b8444e043b2ffadf9950711602207fbd1158347289041d2a6262d08abe5aa5a7a7b41f60a128aea7540cca561e3101695221020425d0236f9a648ac96b94d5ddb65c9b2c378dca49d8f25053e116d14c344e9921025dee4437c22580cd544ec8366e118e925660c160dc6b4b420e915881c174b80e2102d9eb0b8d7e3dca0e1d57cd94fdc419224602d130ed2bb4dba9da2ea99ef5728353ae040048304502210087df8778fdd9bb2550562865c70c773e0ca23106833fda572dda5b91a35b360202201925b86b81f0bba496538f5de381c748eeb162cdf30b3760d793ca701d16585901483045022100a922ff9993d650730b4ba04eb0876e8fad4faca109a0d479c1e012c350e104d80220331c7726e3ab092ff7ee5bfb62bac12224da1f1067e2b541b2d483574a9d834c016952210297ba25e1e7c451a9431cdd54db6d217c378bf12ac00bc274ada88a2602c4a7a92102b3805fd53cdb42033b1900937840616b56591c58e5942f68041a7941413471b621033e9c907bdb3c93cb1f62b7faa7d2660b2336652feafac6985c81a6fc9439c80353ae00000000", "vin": [{"txinwitness": ["", "3045022100f729252893a9f80b5f2b27764ba3241687c530f4dc0657d6d38bef57b24c8c9502205e934a290829879509c13eaaf9a139e4c606d044a73b8d926b3076ef88c8e12201", "304402203eb4013b7ef455fa0caaf9cdc0646133cc28a4d138176d5b503b9801f4a3422d02203f2dbe049c4ba0b3eed72144101c811c52f4f9361adcdc2f57b4b7bd829a729901", "52210209aa871a83a91fb33d218b01af29f0f1c74c19380ea29724b2172569e935895c2102f86259ac1bf4113af7c8757f2ebaa8a1b08a269251a360639df9f0fafeed8c542103315fa49218d8717abb05d9f3eee1973b18ba7f7e1ce5e6e3922585eed4930dc653ae"], "sequence": 4294967295, "scriptSig": {"hex": "2200203f5cd3b93a2a99bb65ceb0be861889179a9fb143c09a12023073e2aec9d952e1", "asm": "00203f5cd3b93a2a99bb65ceb0be861889179a9fb143c09a12023073e2aec9d952e1"}, "vout": 0, "txid": "2fb495a0d82d5f73172013191b08463940c22dc9c9e5519c9911fc50b955ea49"}, {"txinwitness": ["", "3045022100d50a229534aab1d6293c45a1e74078fbe9e79d04b2d15efcf5f88eebfa042385022032238fe4bd6c3b9ef7b311c2b00a607054a900809076433c928c6dfb6ef5c49b01", "3045022100b3363b8e5709c370aac2a471e38574c0163e3bd9b8444e043b2ffadf9950711602207fbd1158347289041d2a6262d08abe5aa5a7a7b41f60a128aea7540cca561e3101", "5221020425d0236f9a648ac96b94d5ddb65c9b2c378dca49d8f25053e116d14c344e9921025dee4437c22580cd544ec8366e118e925660c160dc6b4b420e915881c174b80e2102d9eb0b8d7e3dca0e1d57cd94fdc419224602d130ed2bb4dba9da2ea99ef5728353ae"], "sequence": 4294967295, "scriptSig": {"hex": "220020d5a205921bb5b255da6c14b01df10248bf3af33d4c6b686cb76a672bec251414", "asm": "0020d5a205921bb5b255da6c14b01df10248bf3af33d4c6b686cb76a672bec251414"}, "vout": 0, "txid": "e409ac72f07bcda8de320f44e8dc5d1197edf6eefe94a8399a8771ece51f8383"}, {"txinwitness": ["", "304502210087df8778fdd9bb2550562865c70c773e0ca23106833fda572dda5b91a35b360202201925b86b81f0bba496538f5de381c748eeb162cdf30b3760d793ca701d16585901", "3045022100a922ff9993d650730b4ba04eb0876e8fad4faca109a0d479c1e012c350e104d80220331c7726e3ab092ff7ee5bfb62bac12224da1f1067e2b541b2d483574a9d834c01", "52210297ba25e1e7c451a9431cdd54db6d217c378bf12ac00bc274ada88a2602c4a7a92102b3805fd53cdb42033b1900937840616b56591c58e5942f68041a7941413471b621033e9c907bdb3c93cb1f62b7faa7d2660b2336652feafac6985c81a6fc9439c80353ae"], "sequence": 4294967295, "scriptSig": {"hex": "22002088fd5b409b3dc5d185e01f4cbb378f2114642fadcb3f052e0059560a947398a2", "asm": "002088fd5b409b3dc5d185e01f4cbb378f2114642fadcb3f052e0059560a947398a2"}, "vout": 1, "txid": "1572c95f94639febc55251bdc31d731385faa06690293a6030f24c82c48c993a"}], "txid": "70d408e77e29ad5082f8a260701f0625832be65d407aa42deb9d3feb5e7b1909", "blocktime": 1537876114, "version": 1, "confirmations": 11460, "time": 1537876114, "locktime": 0, "vsize": 495, "size": 1067}