{"hash": "4ce9d24ddac60e2df7d4875d8bddca02203a06efc004a294b5290bafa33b54eb", "blockhash": "0000000000000000001f76057863aec43deb6fa401d9628bb513d65a8098bfab", "vout": [{"scriptPubKey": {"reqSigs": 1, "hex": "a914c0927a3bd04704a39e77573745e9f1eae760bd8887", "addresses": ["3KFF8orMkdH3dpNvSHdq9gXtDcBEVwzYp8"], "asm": "OP_HASH160 c0927a3bd04704a39e77573745e9f1eae760bd88 OP_EQUAL", "type": "scripthash"}, "value": 0.00574859, "n": 0}, {"scriptPubKey": {"reqSigs": 1, "hex": "a91444ded36cf8d207396683db6534061c25ee94228087", "addresses": ["37yAooTpWGmZMjVhB1fDGxTFPfkSmAyCP5"], "asm": "OP_HASH160 44ded36cf8d207396683db6534061c25ee942280 OP_EQUAL", "type": "scripthash"}, "value": 0.00666139, "n": 1}, {"scriptPubKey": {"reqSigs": 1, "hex": "a9145e464d302536a85d79b4026603b508552701472b87", "addresses": ["3AHVfDBHYoddJCQvVCXZdFgMtDkvCRDDUg"], "asm": "OP_HASH160 5e464d302536a85d79b4026603b508552701472b OP_EQUAL", "type": "scripthash"}, "value": 0.00039, "n": 2}, {"scriptPubKey": {"reqSigs": 1, "hex": "76a914ae3f8a8fba93f627f7370f2fb796c7e123ad943e88ac", "addresses": ["1GtLhJY3mTANaQCZ7zprzcvZCkkadyqXGF"], "asm": "OP_DUP OP_HASH160 ae3f8a8fba93f627f7370f2fb796c7e123ad943e OP_EQUALVERIFY OP_CHECKSIG", "type": "pubkeyhash"}, "value": 0.17925323, "n": 3}, {"scriptPubKey": {"reqSigs": 1, "hex": "76a9141a4ecc0cd4a145a19ea34092ee5857642822473988ac", "addresses": ["13Q6xuSE5YBGTHuGW5R72GRtkVBi4GY3Lj"], "asm": "OP_DUP OP_HASH160 1a4ecc0cd4a145a19ea34092ee58576428224739 OP_EQUALVERIFY OP_CHECKSIG", "type": "pubkeyhash"}, "value": 0.01113957, "n": 4}, {"scriptPubKey": {"reqSigs": 1, "hex": "a914f04a86b549a76b3d557b24ccb7a7ec253754b2aa87", "addresses": ["3PbZNkiHefs8MJHBaJHVq2V1kDvMFHYKze"], "asm": "OP_HASH160 f04a86b549a76b3d557b24ccb7a7ec253754b2aa OP_EQUAL", "type": "scripthash"}, "value": 0.00862029, "n": 5}, {"scriptPubKey": {"reqSigs": 1, "hex": "a914cf26a21bbbc9ba0a99ebdce42ea618930fd73f5787", "addresses": ["3LaL5Y6U41r26RC42aG5jGKE8dZ6dtUyGN"], "asm": "OP_HASH160 cf26a21bbbc9ba0a99ebdce42ea618930fd73f57 OP_EQUAL", "type": "scripthash"}, "value": 0.00179823, "n": 6}, {"scriptPubKey": {"reqSigs": 1, "hex": "a9144d779b03f04c29c7fc67c7a73fca271a19c2d87687", "addresses": ["38kdEeoNCihzJcR8KNLByQMEzgJzoecT3D"], "asm": "OP_HASH160 4d779b03f04c29c7fc67c7a73fca271a19c2d876 OP_EQUAL", "type": "scripthash"}, "value": 0.00337, "n": 7}, {"scriptPubKey": {"reqSigs": 1, "hex": "a914af8e0e79f9bd4b284947e4727ffc40ef6bae78e087", "addresses": ["3HhGMNmWpwFkGPBtV4N9rn5sqk3vrbDmfm"], "asm": "OP_HASH160 af8e0e79f9bd4b284947e4727ffc40ef6bae78e0 OP_EQUAL", "type": "scripthash"}, "value": 36.77188352, "n": 8}, {"scriptPubKey": {"reqSigs": 1, "hex": "a914629997329fb4b0a2103af2fda44fdd6751549a2e87", "addresses": ["3AgN91KEN1EkHcdEdoF8eLennuDRWcGCkZ"], "asm": "OP_HASH160 629997329fb4b0a2103af2fda44fdd6751549a2e OP_EQUAL", "type": "scripthash"}, "value": 0.00440534, "n": 9}, {"scriptPubKey": {"reqSigs": 1, "hex": "a914a5462b93bac83c502a21decccdedabf1fa627cce87", "addresses": ["3GkuUi36PNEivDS8dFF1NWdy3kec8VMV5y"], "asm": "OP_HASH160 a5462b93bac83c502a21decccdedabf1fa627cce OP_EQUAL", "type": "scripthash"}, "value": 0.02426811, "n": 10}, {"scriptPubKey": {"reqSigs": 1, "hex": "76a914c7d794082c9249b63998167887615a3068cda9d188ac", "addresses": ["1KDfipC5V4xDTRa7dhFzWwXVUUHndj5xaB"], "asm": "OP_DUP OP_HASH160 c7d794082c9249b63998167887615a3068cda9d1 OP_EQUALVERIFY OP_CHECKSIG", "type": "pubkeyhash"}, "value": 0.03588, "n": 11}, {"scriptPubKey": {"reqSigs": 1, "hex": "76a91447640b6a124d9b5f29c7067dc4f78709b2e5a82088ac", "addresses": ["17WUpqhudcuKuLBDnrzj3Xtr1sGTqZitqn"], "asm": "OP_DUP OP_HASH160 47640b6a124d9b5f29c7067dc4f78709b2e5a820 OP_EQUALVERIFY OP_CHECKSIG", "type": "pubkeyhash"}, "value": 0.0066, "n": 12}, {"scriptPubKey": {"reqSigs": 1, "hex": "a914c4cb67fb0ec72a9683f64eb6b02bfb51fa4366c287", "addresses": ["3Kda33voWsardVWRAeFpTQvwH5Hh6miNU3"], "asm": "OP_HASH160 c4cb67fb0ec72a9683f64eb6b02bfb51fa4366c2 OP_EQUAL", "type": "scripthash"}, "value": 0.00594977, "n": 13}, {"scriptPubKey": {"reqSigs": 1, "hex": "a9143ff819d4190e2deaf68a7208f0788a8a6438c74b87", "addresses": ["37XFhysLWeaXiJwYf1muokL5fTV6Gd62Cz"], "asm": "OP_HASH160 3ff819d4190e2deaf68a7208f0788a8a6438c74b OP_EQUAL", "type": "scripthash"}, "value": 0.00781006, "n": 14}, {"scriptPubKey": {"reqSigs": 1, "hex": "a9144bb700c3686a1f5fea2326c13f2789c8110b056e87", "addresses": ["38bMqCcov8FcRFY6gNFCAsoE2yNAjwk2nE"], "asm": "OP_HASH160 4bb700c3686a1f5fea2326c13f2789c8110b056e OP_EQUAL", "type": "scripthash"}, "value": 0.0025646, "n": 15}, {"scriptPubKey": {"reqSigs": 1, "hex": "a914adb69060178b5ff9c040d83834a81c2c78541ab487", "addresses": ["3HXXXVnjXAFFUyEFx1hCZKLA5F2LaSuWn5"], "asm": "OP_HASH160 adb69060178b5ff9c040d83834a81c2c78541ab4 OP_EQUAL", "type": "scripthash"}, "value": 0.002212, "n": 16}, {"scriptPubKey": {"reqSigs": 1, "hex": "a914aa659deba9af39122830c8fa615dc7922f23c90987", "addresses": ["3HDzXcsgLd5NMjAsniw1itk2LiXA4bwUGh"], "asm": "OP_HASH160 aa659deba9af39122830c8fa615dc7922f23c909 OP_EQUAL", "type": "scripthash"}, "value": 0.00463348, "n": 17}, {"scriptPubKey": {"reqSigs": 1, "hex": "a9149fe5c9c3f5595ac484c9bb6934787d461f8a55df87", "addresses": ["3GGUe1FQm8iTYRMmr7cfkhPJw1ZsBS4ULW"], "asm": "OP_HASH160 9fe5c9c3f5595ac484c9bb6934787d461f8a55df OP_EQUAL", "type": "scripthash"}, "value": 0.011985, "n": 18}, {"scriptPubKey": {"reqSigs": 1, "hex": "a914747bd1fe722721948a377eba8e6ae2e46848c21387", "addresses": ["3CJvdypttakw3o3Vusd27AbGBusGCNhKin"], "asm": "OP_HASH160 747bd1fe722721948a377eba8e6ae2e46848c213 OP_EQUAL", "type": "scripthash"}, "value": 0.01358223, "n": 19}, {"scriptPubKey": {"reqSigs": 1, "hex": "76a9144e02fbfd0e61024f42afc2887da5f53c770c83d788ac", "addresses": ["187VHKRcemVja5BDvZqBUrPpGEYngREwmh"], "asm": "OP_DUP OP_HASH160 4e02fbfd0e61024f42afc2887da5f53c770c83d7 OP_EQUALVERIFY OP_CHECKSIG", "type": "pubkeyhash"}, "value": 0.00016, "n": 20}, {"scriptPubKey": {"reqSigs": 1, "hex": "a9142ca902ff68f55ee3a8ee8bea90b61dbbcb123eb587", "addresses": ["35mA888a3scRm5gvV1dkKYnjtQBz5R549w"], "asm": "OP_HASH160 2ca902ff68f55ee3a8ee8bea90b61dbbcb123eb5 OP_EQUAL", "type": "scripthash"}, "value": 0.01301233, "n": 21}, {"scriptPubKey": {"reqSigs": 1, "hex": "a9140f25b3bc3268493ac8ac9c281a0bb5b4fd8f25fc87", "addresses": ["3357E1SRvJ1CsShsrUzUd8Yns56FTgEntG"], "asm": "OP_HASH160 0f25b3bc3268493ac8ac9c281a0bb5b4fd8f25fc OP_EQUAL", "type": "scripthash"}, "value": 0.15820799, "n": 22}, {"scriptPubKey": {"reqSigs": 1, "hex": "a914d59e15b82915966fbdef5905804b702677dd083487", "addresses": ["3MAXEL9dgZUuSWF1ARruX52VmdkuDeQzk7"], "asm": "OP_HASH160 d59e15b82915966fbdef5905804b702677dd0834 OP_EQUAL", "type": "scripthash"}, "value": 0.00358476, "n": 23}, {"scriptPubKey": {"reqSigs": 1, "hex": "a9141a051f2b66002cd5f2e95c21cde68e11ce6860cb87", "addresses": ["344bdPzPgmQN64NzMqXmgrPbKz19MWKVfV"], "asm": "OP_HASH160 1a051f2b66002cd5f2e95c21cde68e11ce6860cb OP_EQUAL", "type": "scripthash"}, "value": 0.06919796, "n": 24}, {"scriptPubKey": {"reqSigs": 1, "hex": "a91495be880c8f62de475da007aba4d1cec41734c50987", "addresses": ["3FLnrUyXM3NTVHXHXU3EGEpxtTNYe8UM1T"], "asm": "OP_HASH160 95be880c8f62de475da007aba4d1cec41734c509 OP_EQUAL", "type": "scripthash"}, "value": 0.00353723, "n": 25}], "hex": "02000000000101c662454bb8b45df93be2a630bea928db2e64863e515acf10a1cdd485d35a03e20800000017160014b88127800c656a09abb9efbd8dc95acc153a7a3cfeffffff1a8bc508000000000017a914c0927a3bd04704a39e77573745e9f1eae760bd88871b2a0a000000000017a91444ded36cf8d207396683db6534061c25ee94228087589800000000000017a9145e464d302536a85d79b4026603b508552701472b87cb841101000000001976a914ae3f8a8fba93f627f7370f2fb796c7e123ad943e88ac65ff1000000000001976a9141a4ecc0cd4a145a19ea34092ee5857642822473988ac4d270d000000000017a914f04a86b549a76b3d557b24ccb7a7ec253754b2aa876fbe02000000000017a914cf26a21bbbc9ba0a99ebdce42ea618930fd73f5787682405000000000017a9144d779b03f04c29c7fc67c7a73fca271a19c2d8768700712ddb0000000017a914af8e0e79f9bd4b284947e4727ffc40ef6bae78e087d6b806000000000017a914629997329fb4b0a2103af2fda44fdd6751549a2e87bb0725000000000017a914a5462b93bac83c502a21decccdedabf1fa627cce87a0bf3600000000001976a914c7d794082c9249b63998167887615a3068cda9d188ac20120a00000000001976a91447640b6a124d9b5f29c7067dc4f78709b2e5a82088ac211409000000000017a914c4cb67fb0ec72a9683f64eb6b02bfb51fa4366c287ceea0b000000000017a9143ff819d4190e2deaf68a7208f0788a8a6438c74b87cce903000000000017a9144bb700c3686a1f5fea2326c13f2789c8110b056e87106003000000000017a914adb69060178b5ff9c040d83834a81c2c78541ab487f41107000000000017a914aa659deba9af39122830c8fa615dc7922f23c90987a44912000000000017a9149fe5c9c3f5595ac484c9bb6934787d461f8a55df878fb914000000000017a914747bd1fe722721948a377eba8e6ae2e46848c21387803e0000000000001976a9144e02fbfd0e61024f42afc2887da5f53c770c83d788acf1da13000000000017a9142ca902ff68f55ee3a8ee8bea90b61dbbcb123eb587ff67f1000000000017a9140f25b3bc3268493ac8ac9c281a0bb5b4fd8f25fc874c7805000000000017a914d59e15b82915966fbdef5905804b702677dd083487749669000000000017a9141a051f2b66002cd5f2e95c21cde68e11ce6860cb87bb6505000000000017a91495be880c8f62de475da007aba4d1cec41734c5098702483045022100a5c247ea8d8892806ec87bc22653e01dca034cd8829e8a8b45950798fe426fe10220785aaf78fb5ec1672ca1082d97d46a980e88a7b269ca5f5da61215a50e3d0cf30121033516f3718d97f226b4481df636bb6c0eb25b32f4413adaa0b850c87bd3fe27fc14490800", "vin": [{"txinwitness": ["3045022100a5c247ea8d8892806ec87bc22653e01dca034cd8829e8a8b45950798fe426fe10220785aaf78fb5ec1672ca1082d97d46a980e88a7b269ca5f5da61215a50e3d0cf301", "033516f3718d97f226b4481df636bb6c0eb25b32f4413adaa0b850c87bd3fe27fc"], "sequence": 4294967294, "scriptSig": {"hex": "160014b88127800c656a09abb9efbd8dc95acc153a7a3c", "asm": "0014b88127800c656a09abb9efbd8dc95acc153a7a3c"}, "vout": 8, "txid": "e2035ad385d4cda110cf5a513e86642edb28a9be30a6e23bf95db4b84b4562c6"}], "txid": "70d7a195d05b240be027d87186d794a5d990fdbe1452d5b1a63e1429451c761a", "blocktime": 1537873891, "version": 2, "confirmations": 11475, "time": 1537873891, "locktime": 542996, "vsize": 944, "size": 1026}