{"hash": "0979aa853a3b9de5ee330bcf66b5906b955963a0faa3e5bffcc2547b536fbd8c", "blockhash": "0000000000000000000dcc0f55137456b1a82d3642486a52398922ac4d620174", "vout": [{"scriptPubKey": {"reqSigs": 1, "hex": "76a914658bc2e4001cfacc64a3e041943e921b3086737588ac", "addresses": ["1AFvgAG4FN8fhtp3ZtSF8hsmKvPTDiB4RV"], "asm": "OP_DUP OP_HASH160 658bc2e4001cfacc64a3e041943e921b30867375 OP_EQUALVERIFY OP_CHECKSIG", "type": "pubkeyhash"}, "value": 3.426e-05, "n": 0}, {"scriptPubKey": {"reqSigs": 1, "hex": "a914e8db75c900cf08f06518e96d167331f2a4abfb3387", "addresses": ["3NvFbQMAkkqEFj4i1sYPPLkSWzxTFUchjA"], "asm": "OP_HASH160 e8db75c900cf08f06518e96d167331f2a4abfb33 OP_EQUAL", "type": "scripthash"}, "value": 0.00166464, "n": 1}], "hex": "01000000000101007207524db0943041095617cb1123fad9e083f38cc431f43c44bc87085cf5440100000023220020941cfaff8837763dc1f69ff82b6d6553fdea17a41cfc29a04403293eedd8ccc7ffffffff02620d0000000000001976a914658bc2e4001cfacc64a3e041943e921b3086737588ac408a02000000000017a914e8db75c900cf08f06518e96d167331f2a4abfb33870400473044022017cfc90d44c1ff675497bf9417d24af2d387d6f0d2d04c1c9077e072b9f6b5040220409f9e67fb14643614d06375a322d043ab95773f5ba62c9afeb8a024f314bc8401473044022006f1d33e862be12603499c6df80e1311126f88a14c5a9ff04b12aecea7a37fcb0220391042155a1213c99b826a42cb055a5e54917dc5896276e23f140c7b4f8a4f360147522102531db3a5883f29bab4241dd0cd726936667bcda445d89bdd22244e828b6993342103148c80a5bdfddb05ff5bcffc397c8ca748d8b435ec6a175bc9d7bfc7fc6f853752ae00000000", "vin": [{"txinwitness": ["", "3044022017cfc90d44c1ff675497bf9417d24af2d387d6f0d2d04c1c9077e072b9f6b5040220409f9e67fb14643614d06375a322d043ab95773f5ba62c9afeb8a024f314bc8401", "3044022006f1d33e862be12603499c6df80e1311126f88a14c5a9ff04b12aecea7a37fcb0220391042155a1213c99b826a42cb055a5e54917dc5896276e23f140c7b4f8a4f3601", "522102531db3a5883f29bab4241dd0cd726936667bcda445d89bdd22244e828b6993342103148c80a5bdfddb05ff5bcffc397c8ca748d8b435ec6a175bc9d7bfc7fc6f853752ae"], "sequence": 4294967295, "scriptSig": {"hex": "220020941cfaff8837763dc1f69ff82b6d6553fdea17a41cfc29a04403293eedd8ccc7", "asm": "0020941cfaff8837763dc1f69ff82b6d6553fdea17a41cfc29a04403293eedd8ccc7"}, "vout": 1, "txid": "44f55c0887bc443cf431c48cf383e0d9fa2311cb175609413094b04d52077200"}], "txid": "70d89bab0b13cb050a3dc2712cc52f7776fe7d24946dc30b4eb66c283c66f506", "blocktime": 1537870268, "version": 1, "confirmations": 11518, "time": 1537870268, "locktime": 0, "vsize": 207, "size": 372}