{"hash": "70d9a2d802d586aa9e1bb870529f65c8788b024e18b9132fbbe978363672983b", "blockhash": "0000000000000000000e13cef7c366c0283d82e591d1acd082e914b08063cdf1", "vout": [{"scriptPubKey": {"reqSigs": 1, "hex": "76a91402e0649649bc11487d0a7718f08df344a1183f2588ac", "addresses": ["1GDAUfTP4xxvJhCCxmdweeYw2hPeEWcGL"], "asm": "OP_DUP OP_HASH160 02e0649649bc11487d0a7718f08df344a1183f25 OP_EQUALVERIFY OP_CHECKSIG", "type": "pubkeyhash"}, "value": 0.00645999, "n": 0}, {"scriptPubKey": {"type": "nulldata", "hex": "6a4c50000077920001a0817281676d533cf647e040e3ef3236678a625097bcbefa6b8351586b4e2b5d7f7fe12a80b4161f8a251134e4055baa0c830614a9679223e8961d100759d4ba30d2c37bb011d97e02cf", "asm": "OP_RETURN 000077920001a0817281676d533cf647e040e3ef3236678a625097bcbefa6b8351586b4e2b5d7f7fe12a80b4161f8a251134e4055baa0c830614a9679223e8961d100759d4ba30d2c37bb011d97e02cf"}, "value": 0.0, "n": 1}], "hex": "010000000190a2dec60f3b7c0d7287afbe1d6b9ced13e60271912914ae65199042dd593dd9010000006b483045022100fe56425f23bd7d9bf9caf877697368f9d1ee84d6d02046ae54aedb282d9dfd88022072c8293373d26e91b732ecfc125e952b78bfa4ddade0ee4fbd3601d9cf95e0430121020a6c11a80f5651ec1d934971e1a72f890b16d2302daf60c6ccbee1b5f80d1906ffffffff026fdb0900000000001976a91402e0649649bc11487d0a7718f08df344a1183f2588ac0000000000000000536a4c50000077920001a0817281676d533cf647e040e3ef3236678a625097bcbefa6b8351586b4e2b5d7f7fe12a80b4161f8a251134e4055baa0c830614a9679223e8961d100759d4ba30d2c37bb011d97e02cf00000000", "vin": [{"sequence": 4294967295, "scriptSig": {"hex": "483045022100fe56425f23bd7d9bf9caf877697368f9d1ee84d6d02046ae54aedb282d9dfd88022072c8293373d26e91b732ecfc125e952b78bfa4ddade0ee4fbd3601d9cf95e0430121020a6c11a80f5651ec1d934971e1a72f890b16d2302daf60c6ccbee1b5f80d1906", "asm": "3045022100fe56425f23bd7d9bf9caf877697368f9d1ee84d6d02046ae54aedb282d9dfd88022072c8293373d26e91b732ecfc125e952b78bfa4ddade0ee4fbd3601d9cf95e043[ALL] 020a6c11a80f5651ec1d934971e1a72f890b16d2302daf60c6ccbee1b5f80d1906"}, "vout": 1, "txid": "d93d59dd42901965ae1429917102e613ed9c6b1dbeaf87720d7c3b0fc6dea290"}], "txid": "70d9a2d802d586aa9e1bb870529f65c8788b024e18b9132fbbe978363672983b", "blocktime": 1537871767, "version": 1, "confirmations": 11495, "time": 1537871767, "locktime": 0, "vsize": 284, "size": 284}