{"hash": "70da1b35f61c83b71ea663f0a13ce73213eca00834c3cbef7719b764d2ad8c5a", "blockhash": "0000000000000000000e13cef7c366c0283d82e591d1acd082e914b08063cdf1", "vout": [{"scriptPubKey": {"reqSigs": 1, "hex": "00145bbcedb120c885db62ee42fbe735adb016e9f5ec", "addresses": ["bc1qtw7wmvfqezzakchwgta7wdddkqtwna0vvpqjdg"], "asm": "0 5bbcedb120c885db62ee42fbe735adb016e9f5ec", "type": "witness_v0_keyhash"}, "value": 2.753e-05, "n": 0}, {"scriptPubKey": {"reqSigs": 1, "hex": "76a9146a371383ea15327a6c68b4feb9ce713575e98adf88ac", "addresses": ["1Agcc6fcKSSiqxcevcYaoPAU9msGjwUi4p"], "asm": "OP_DUP OP_HASH160 6a371383ea15327a6c68b4feb9ce713575e98adf OP_EQUALVERIFY OP_CHECKSIG", "type": "pubkeyhash"}, "value": 0.00100885, "n": 1}], "hex": "010000000101261764e88ff3b8c01895db91ab367c849d49912bf3d67c22059b5f2fce93d5000000006b48304502210099bfecade5ce43811f4379cce1b0b95c0a5b9b2ea09cb11e828c42dad2eed4f40220353691ccd01e0d1e8f848cf42950ad47e2bb21fdc211a14e9b98e27dc12240a30121033cde162e462074640a620dc8c7993787a9d36bc032893d88b034f2d31760819affffffff02c10a0000000000001600145bbcedb120c885db62ee42fbe735adb016e9f5ec158a0100000000001976a9146a371383ea15327a6c68b4feb9ce713575e98adf88ac00000000", "vin": [{"sequence": 4294967295, "scriptSig": {"hex": "48304502210099bfecade5ce43811f4379cce1b0b95c0a5b9b2ea09cb11e828c42dad2eed4f40220353691ccd01e0d1e8f848cf42950ad47e2bb21fdc211a14e9b98e27dc12240a30121033cde162e462074640a620dc8c7993787a9d36bc032893d88b034f2d31760819a", "asm": "304502210099bfecade5ce43811f4379cce1b0b95c0a5b9b2ea09cb11e828c42dad2eed4f40220353691ccd01e0d1e8f848cf42950ad47e2bb21fdc211a14e9b98e27dc12240a3[ALL] 033cde162e462074640a620dc8c7993787a9d36bc032893d88b034f2d31760819a"}, "vout": 0, "txid": "d593ce2f5f9b05227cd6f32b91499d847c36ab91db9518c0b8f38fe864172601"}], "txid": "70da1b35f61c83b71ea663f0a13ce73213eca00834c3cbef7719b764d2ad8c5a", "blocktime": 1537871767, "version": 1, "confirmations": 11495, "time": 1537871767, "locktime": 0, "vsize": 223, "size": 223}