{"hash": "764ba937ba99edab075d2646e2c0c1a840ac162e4c77fcddba7b69b6102fe31e", "blockhash": "0000000000000000001f0ddff1eddb255c1121bcd4da4f1bc9a0da00cae72433", "vout": [{"scriptPubKey": {"reqSigs": 1, "hex": "76a914dbbebaec46bc3c8f292dec7b8072ff23bd826b1e88ac", "addresses": ["1M2uUBAXbvKokKtQGWtE3k2WqeXmu9VzFn"], "asm": "OP_DUP OP_HASH160 dbbebaec46bc3c8f292dec7b8072ff23bd826b1e OP_EQUALVERIFY OP_CHECKSIG", "type": "pubkeyhash"}, "value": 0.00422594, "n": 0}, {"scriptPubKey": {"reqSigs": 1, "hex": "a9144ac158f5cf81941aa2cb22927b64fddd52862a0287", "addresses": ["38WHYkymqsnEShiojNq63UcRPrBDYyuNzj"], "asm": "OP_HASH160 4ac158f5cf81941aa2cb22927b64fddd52862a02 OP_EQUAL", "type": "scripthash"}, "value": 0.23064486, "n": 1}], "hex": "01000000000101bc627df2f7e10cf9207d86f35fd80307367de0714f47fab2daf7f539f1c8e2c401000000232200200cf38e6601ebde9f4650e1e51497c3ced5c8ec2cf12e867b6e3947798cb6af09ffffffff02c2720600000000001976a914dbbebaec46bc3c8f292dec7b8072ff23bd826b1e88aca6ef5f010000000017a9144ac158f5cf81941aa2cb22927b64fddd52862a0287040047304402203f13c12c29e9aba24d2b36f1e91ab5b304218216ed1d0b1eb4958e32a5e3ac6a022044047230cb5dcdb89e3fb82b2076823b893e54821642cb35f1aabe02cf62b9d301473044022028310f73701dd0255a7b94a1420213188b90ffa6127a99a4d0811cfd0e8bca2902207f173be7ca90a23a9663800adad721f7adae629aab143b9f16aafedb2223b3ba0147522103400b7f87734c393c28f42a27b5d66a6e7ca53c46882cc3ffeef004ed033f86b12103f62b1d27158b53be9caeae920614d9c61c0d4e3ab8a2b8afbc8e020933c6e68352ae00000000", "vin": [{"txinwitness": ["", "304402203f13c12c29e9aba24d2b36f1e91ab5b304218216ed1d0b1eb4958e32a5e3ac6a022044047230cb5dcdb89e3fb82b2076823b893e54821642cb35f1aabe02cf62b9d301", "3044022028310f73701dd0255a7b94a1420213188b90ffa6127a99a4d0811cfd0e8bca2902207f173be7ca90a23a9663800adad721f7adae629aab143b9f16aafedb2223b3ba01", "522103400b7f87734c393c28f42a27b5d66a6e7ca53c46882cc3ffeef004ed033f86b12103f62b1d27158b53be9caeae920614d9c61c0d4e3ab8a2b8afbc8e020933c6e68352ae"], "sequence": 4294967295, "scriptSig": {"hex": "2200200cf38e6601ebde9f4650e1e51497c3ced5c8ec2cf12e867b6e3947798cb6af09", "asm": "00200cf38e6601ebde9f4650e1e51497c3ced5c8ec2cf12e867b6e3947798cb6af09"}, "vout": 1, "txid": "c4e2c8f139f5f7dab2fa474f71e07d360703d85ff3867d20f90ce1f7f27d62bc"}], "txid": "70dc9ece3e3a15ce53fa4f551b9f4d900c500b4a0b4b1f788ea55a5211401706", "blocktime": 1537872018, "version": 1, "confirmations": 11489, "time": 1537872018, "locktime": 0, "vsize": 207, "size": 372}