{"hash": "70e1bf5755f4067b6b53db3eacc34fb2158f16ee31f90411240e54c20f9f113c", "blockhash": "0000000000000000001f0ddff1eddb255c1121bcd4da4f1bc9a0da00cae72433", "vout": [{"scriptPubKey": {"reqSigs": 1, "hex": "a914b8d4d4d1c4706573cff1abc01ebcd101ededb51c87", "addresses": ["3JYKDcvzTataLqYDqhQczPPAiyYTzzdL8W"], "asm": "OP_HASH160 b8d4d4d1c4706573cff1abc01ebcd101ededb51c OP_EQUAL", "type": "scripthash"}, "value": 0.001565, "n": 0}, {"scriptPubKey": {"reqSigs": 1, "hex": "76a914b884c53d4137874634138f989f01d8daf1a0f8b188ac", "addresses": ["1HpePML4uKYepjCusptFfAnr1VutVeCPSA"], "asm": "OP_DUP OP_HASH160 b884c53d4137874634138f989f01d8daf1a0f8b1 OP_EQUALVERIFY OP_CHECKSIG", "type": "pubkeyhash"}, "value": 0.67807565, "n": 1}], "hex": "01000000014c50172fa8ccb8fdcf3aa0d0f1aba4377b58e25133e2921002d98666a79e1ed3010000006b483045022100d9e7a5ef43e865f39f48d6f4b1d0837af4e2d6917ff44dc6267b7a2976b0280d0220104c42fa89da29ed3d7c0027a064e6dff614ac5cbcfe4738a787cff0f1a9f4df0121028b38b4f760640b4cc9ee32983b054b1a59e9f2ccb96059c3b10aabb94933a03cffffffff02546302000000000017a914b8d4d4d1c4706573cff1abc01ebcd101ededb51c874da90a04000000001976a914b884c53d4137874634138f989f01d8daf1a0f8b188ac00000000", "vin": [{"sequence": 4294967295, "scriptSig": {"hex": "483045022100d9e7a5ef43e865f39f48d6f4b1d0837af4e2d6917ff44dc6267b7a2976b0280d0220104c42fa89da29ed3d7c0027a064e6dff614ac5cbcfe4738a787cff0f1a9f4df0121028b38b4f760640b4cc9ee32983b054b1a59e9f2ccb96059c3b10aabb94933a03c", "asm": "3045022100d9e7a5ef43e865f39f48d6f4b1d0837af4e2d6917ff44dc6267b7a2976b0280d0220104c42fa89da29ed3d7c0027a064e6dff614ac5cbcfe4738a787cff0f1a9f4df[ALL] 028b38b4f760640b4cc9ee32983b054b1a59e9f2ccb96059c3b10aabb94933a03c"}, "vout": 1, "txid": "d31e9ea76686d9021092e23351e2587b37a4abf1d0a03acffdb8cca82f17504c"}], "txid": "70e1bf5755f4067b6b53db3eacc34fb2158f16ee31f90411240e54c20f9f113c", "blocktime": 1537872018, "version": 1, "confirmations": 11489, "time": 1537872018, "locktime": 0, "vsize": 224, "size": 224}