{"hash": "16ab30333a074ed7a0c728a24b1712236b0ce59998e65385a05bc8b115797af1", "blockhash": "0000000000000000001e0dab787dd257d1dbfcb92a98c2207d5e1078be1f4165", "vout": [{"scriptPubKey": {"reqSigs": 1, "hex": "a914b99f789f6839d36998e33ff1af9f0606d228c49687", "addresses": ["3JcVyHSuw6ZXQR1Ufrn9HXf4MunCuzWNJR"], "asm": "OP_HASH160 b99f789f6839d36998e33ff1af9f0606d228c496 OP_EQUAL", "type": "scripthash"}, "value": 0.23448611, "n": 0}, {"scriptPubKey": {"reqSigs": 1, "hex": "a914ada7861712a0339a38e96d4fe5958050e6d58da687", "addresses": ["3HXDWVDn9FVTUvU6qejSwK2r68GjviWhHs"], "asm": "OP_HASH160 ada7861712a0339a38e96d4fe5958050e6d58da6 OP_EQUAL", "type": "scripthash"}, "value": 0.0073402, "n": 1}], "hex": "01000000000101d5770f83c18f50c846e9f743ade82618bc1b8a3eaab8cc41f700496d6848c3a601000000232200201f807e747245f41018183ab55d2a751665fc4abc6b378d204b5c96d3c5b040e4ffffffff0223cc65010000000017a914b99f789f6839d36998e33ff1af9f0606d228c4968744330b000000000017a914ada7861712a0339a38e96d4fe5958050e6d58da687040047304402206b12a8f38f5c863d3fc7a4f3b891bec0ac56b225f8542c8ddca2eed863c98f5c02202c30977470486bbd6a105fae05ec161e649f53f0aff454b70073e44e61c4c16901483045022100a17541a8c99352c424a7a9dc62b48d50f275c6e1f43048d8446f5e3d80713da30220324ae921e300002bdf698f629e0d5a43463945a9f47728ce4b92fb8ec17e2833016952210399258a948465ff27338e933dc69086e79ee47b07880ef50f91c2f951736f16172102a922f620803bbd3ab31e6a22371cef72b0dbac999c26f4587654aeefcda5d980210297edbf18cf9f72a7d0819ff604669d168e5674abf505c0a15e011784fefc415953ae00000000", "vin": [{"txinwitness": ["", "304402206b12a8f38f5c863d3fc7a4f3b891bec0ac56b225f8542c8ddca2eed863c98f5c02202c30977470486bbd6a105fae05ec161e649f53f0aff454b70073e44e61c4c16901", "3045022100a17541a8c99352c424a7a9dc62b48d50f275c6e1f43048d8446f5e3d80713da30220324ae921e300002bdf698f629e0d5a43463945a9f47728ce4b92fb8ec17e283301", "52210399258a948465ff27338e933dc69086e79ee47b07880ef50f91c2f951736f16172102a922f620803bbd3ab31e6a22371cef72b0dbac999c26f4587654aeefcda5d980210297edbf18cf9f72a7d0819ff604669d168e5674abf505c0a15e011784fefc415953ae"], "sequence": 4294967295, "scriptSig": {"hex": "2200201f807e747245f41018183ab55d2a751665fc4abc6b378d204b5c96d3c5b040e4", "asm": "00201f807e747245f41018183ab55d2a751665fc4abc6b378d204b5c96d3c5b040e4"}, "vout": 1, "txid": "a6c348686d4900f741ccb8aa3e8a1bbc1826e8ad43f7e946c8508fc1830f77d5"}], "txid": "70e4d848acfe8488deaa719af90fe11c2eb01191eea07dcb6dc6312194c6da27", "blocktime": 1537872475, "version": 1, "confirmations": 11486, "time": 1537872475, "locktime": 0, "vsize": 214, "size": 405}