{"hash": "859e19bc8a6d02c49193e5d038239881511640e8fce132c52fac5082ae42d340", "blockhash": "00000000000000000024a2167bbff67b0be802c0b01cdd79e6331c2be6459f87", "vout": [{"scriptPubKey": {"reqSigs": 1, "hex": "a91479ff4cef33bc0a643fba2480cf0b1bc9ed427bd987", "addresses": ["3Cp5XM4W9AfAfbVJ7CXb5J1Dj8NNK69csm"], "asm": "OP_HASH160 79ff4cef33bc0a643fba2480cf0b1bc9ed427bd9 OP_EQUAL", "type": "scripthash"}, "value": 1.2204593, "n": 0}, {"scriptPubKey": {"reqSigs": 1, "hex": "76a914442d692edfce3a793734ee668c7198990043277f88ac", "addresses": ["17DVMFLMt5TfSZuqUWrar3y43FT9Qu3dyo"], "asm": "OP_DUP OP_HASH160 442d692edfce3a793734ee668c7198990043277f OP_EQUALVERIFY OP_CHECKSIG", "type": "pubkeyhash"}, "value": 0.0854071, "n": 1}], "hex": "0200000000010126a837bea9744252443951247425eed75765e8d9e9313d4e8f24b81fbb3682040000000017160014b3a529628aa05efaa53e8f0a1042e31093b43ae1feffffff02ea4546070000000017a91479ff4cef33bc0a643fba2480cf0b1bc9ed427bd98726528200000000001976a914442d692edfce3a793734ee668c7198990043277f88ac02483045022100fd97842b1850206175aa50e1017b38f84e821fcae2261a9643a85e1b3e3b21b00220144ce0ef52fbb529920dbe24926960ef80536df88e57fc8315e3220f90629920012102a54e82eeec010abd9c3ae3cca236f8d61513bfb025a5521c763a9f4a8c98b1ea0c490800", "vin": [{"txinwitness": ["3045022100fd97842b1850206175aa50e1017b38f84e821fcae2261a9643a85e1b3e3b21b00220144ce0ef52fbb529920dbe24926960ef80536df88e57fc8315e3220f9062992001", "02a54e82eeec010abd9c3ae3cca236f8d61513bfb025a5521c763a9f4a8c98b1ea"], "sequence": 4294967294, "scriptSig": {"hex": "160014b3a529628aa05efaa53e8f0a1042e31093b43ae1", "asm": "0014b3a529628aa05efaa53e8f0a1042e31093b43ae1"}, "vout": 0, "txid": "048236bb1fb8248f4e3d31e9d9e86557d7ee257424513944524274a9be37a826"}], "txid": "70e98a1c666c457669a5173734b9a7491e69ac8f8aa8d4b2f25a4e5d39d4ff2d", "blocktime": 1537870564, "version": 2, "confirmations": 11515, "time": 1537870564, "locktime": 542988, "vsize": 168, "size": 250}