{"hash": "19dd531795b30da5ffe127b28805c44fd122f8b791e10e13a8e6861e2b9cb53a", "blockhash": "0000000000000000001e0dab787dd257d1dbfcb92a98c2207d5e1078be1f4165", "vout": [{"scriptPubKey": {"reqSigs": 1, "hex": "a914d98a76a849d3575f424ac4008bff7312173a83f087", "addresses": ["3MXGRnRXSfBE5EgW9NcbaHhE5KEvJE1Aoi"], "asm": "OP_HASH160 d98a76a849d3575f424ac4008bff7312173a83f0 OP_EQUAL", "type": "scripthash"}, "value": 0.00013, "n": 0}, {"scriptPubKey": {"reqSigs": 1, "hex": "00142d4842c9efda3ac338f2d2c747d5ad2715ceeedb", "addresses": ["bc1q94yy9j00mgavxw8j6tr504ddyu2uamkmvayzlc"], "asm": "0 2d4842c9efda3ac338f2d2c747d5ad2715ceeedb", "type": "witness_v0_keyhash"}, "value": 1.047e-05, "n": 1}], "hex": "010000000001010ce8693e91966c476c2069f5490cf1d2f90537e0ce9dff3107d7b71f867e1c5c0100000000ffffffff02c83200000000000017a914d98a76a849d3575f424ac4008bff7312173a83f08717040000000000001600142d4842c9efda3ac338f2d2c747d5ad2715ceeedb02483045022100bdc4b180f12c6fbb5bbe8fb9915591588f326e507ff98d652da1b96bb7b8d4b50220346e6c48ad329115331659d2b958eef9d5c5cbe44712a298e4e454f85b4dfdde012103dbc8e9a350ce6a1712933a1470dd1bcea9c56a0f63c5af782f5419df03c7f48700000000", "vin": [{"txinwitness": ["3045022100bdc4b180f12c6fbb5bbe8fb9915591588f326e507ff98d652da1b96bb7b8d4b50220346e6c48ad329115331659d2b958eef9d5c5cbe44712a298e4e454f85b4dfdde01", "03dbc8e9a350ce6a1712933a1470dd1bcea9c56a0f63c5af782f5419df03c7f487"], "sequence": 4294967295, "scriptSig": {"hex": "", "asm": ""}, "vout": 1, "txid": "5c1c7e861fb7d70731ff9dcee03705f9d2f10c49f569206c476c96913e69e80c"}], "txid": "70ecd0b637e8335c7b7ca1a6dd573cc958d42fcb7f4071479f59cc31abe3912c", "blocktime": 1537872475, "version": 1, "confirmations": 11486, "time": 1537872475, "locktime": 0, "vsize": 142, "size": 224}