{"hash": "88abc40fd898eba171e9f87975b367c8330e9d5973b6b33103ef299e8e62d467", "blockhash": "00000000000000000004ffacab907a6b429b9a5745fa0b75af4234bf69dd7176", "vout": [{"scriptPubKey": {"reqSigs": 1, "hex": "a914fa868ed6b4ee51c7dc806f71aed452826242ec7387", "addresses": ["3QXg3kbva2o9UqUVFUBY3XzNukgeN6Tjip"], "asm": "OP_HASH160 fa868ed6b4ee51c7dc806f71aed452826242ec73 OP_EQUAL", "type": "scripthash"}, "value": 0.00470071, "n": 0}, {"scriptPubKey": {"reqSigs": 1, "hex": "a914c3aac73b19a6df3a3a68ef69a8e9f79c8dff9a9c87", "addresses": ["3KXcGqASXznMituPhPnV7BkSc6CHZRLykC"], "asm": "OP_HASH160 c3aac73b19a6df3a3a68ef69a8e9f79c8dff9a9c OP_EQUAL", "type": "scripthash"}, "value": 0.01831084, "n": 1}], "hex": "01000000000101e4fee29b6d8747f21877a3e22d11eba56fb8b31b646697a07668c03feb79793301000000232200200b5c15b2a266c1fd9e615145cf3cd379109fe761c2844ebebbc12b381bddc9faffffffff02372c07000000000017a914fa868ed6b4ee51c7dc806f71aed452826242ec7387acf01b000000000017a914c3aac73b19a6df3a3a68ef69a8e9f79c8dff9a9c870400483045022100bf78d65f896939c382a383af96b459870b941457ccc18adac566519821ae81bb022024bc7c92cdd317fecc6a6d5fcf9c5c8e1bdefa5fb1f56e2f755b5b73aeea215f014830450221008eff97edb0c7071e1a583abec465454d1fc15c7dd22cde3021bb15d9570d3ae0022021165194ec9be897690d4ed1b6f9fdea3c327129e7388f1180f4e24257bbd9340147522102b590b6826675da568b914aa494372424b69f5fe06067fd7fa568cc41070c8e6b21024c55499905a522129124e75484b7ddea868aee9a7f01d75add901db6cf9b589f52ae00000000", "vin": [{"txinwitness": ["", "3045022100bf78d65f896939c382a383af96b459870b941457ccc18adac566519821ae81bb022024bc7c92cdd317fecc6a6d5fcf9c5c8e1bdefa5fb1f56e2f755b5b73aeea215f01", "30450221008eff97edb0c7071e1a583abec465454d1fc15c7dd22cde3021bb15d9570d3ae0022021165194ec9be897690d4ed1b6f9fdea3c327129e7388f1180f4e24257bbd93401", "522102b590b6826675da568b914aa494372424b69f5fe06067fd7fa568cc41070c8e6b21024c55499905a522129124e75484b7ddea868aee9a7f01d75add901db6cf9b589f52ae"], "sequence": 4294967295, "scriptSig": {"hex": "2200200b5c15b2a266c1fd9e615145cf3cd379109fe761c2844ebebbc12b381bddc9fa", "asm": "00200b5c15b2a266c1fd9e615145cf3cd379109fe761c2844ebebbc12b381bddc9fa"}, "vout": 1, "txid": "337979eb3fc06876a09766641bb3b86fa5eb112de2a37718f247876d9be2fee4"}], "txid": "70ee28b356b39a4d9b5b7d792f430e24f390caf9f3a7929a577473ef5d59cc4f", "blocktime": 1537875543, "version": 1, "confirmations": 11464, "time": 1537875543, "locktime": 0, "vsize": 206, "size": 372}