{"hash": "70f4e4bda48f3bb66e36e5220d86f15461bdc5d982cc852440b7c3f288bab40d", "blockhash": "000000000000000000022b45ed06c6f4ccd3cf7fb5ba4856ebd2e58215665228", "vout": [{"scriptPubKey": {"reqSigs": 1, "hex": "a9144b5cc91985c10a76027340a4517641c6cbbdeb2c87", "addresses": ["38ZVknQrmDxGLssZHTzKYYPxyukgFuKqxg"], "asm": "OP_HASH160 4b5cc91985c10a76027340a4517641c6cbbdeb2c OP_EQUAL", "type": "scripthash"}, "value": 0.00031209, "n": 0}, {"scriptPubKey": {"reqSigs": 1, "hex": "76a914c0a639bfecf8da32a432f38ccda6f415ace911b088ac", "addresses": ["1JZdsPUifKnQU9TEWzKW9Dhik2sBJncxjf"], "asm": "OP_DUP OP_HASH160 c0a639bfecf8da32a432f38ccda6f415ace911b0 OP_EQUALVERIFY OP_CHECKSIG", "type": "pubkeyhash"}, "value": 0.00473406, "n": 1}], "hex": "0100000001b9d83e159e1a813212c6be3e27a84923e87be581766731b2b6ce529b643fa79e010000006b483045022100dbc74f7b748ac4d1a5fb87672a3b1a4d4426e6c974732c97866263d5bb23b525022008a5fff3a4823812309eff32813180ad2d2b40aeacd6bc019f826512e2f4054b012103a4063fba0c5943e4a1d037947b6c1944905e60168a17f531bfbc6d03f5232287ffffffff02e97900000000000017a9144b5cc91985c10a76027340a4517641c6cbbdeb2c873e390700000000001976a914c0a639bfecf8da32a432f38ccda6f415ace911b088ac00000000", "vin": [{"sequence": 4294967295, "scriptSig": {"hex": "483045022100dbc74f7b748ac4d1a5fb87672a3b1a4d4426e6c974732c97866263d5bb23b525022008a5fff3a4823812309eff32813180ad2d2b40aeacd6bc019f826512e2f4054b012103a4063fba0c5943e4a1d037947b6c1944905e60168a17f531bfbc6d03f5232287", "asm": "3045022100dbc74f7b748ac4d1a5fb87672a3b1a4d4426e6c974732c97866263d5bb23b525022008a5fff3a4823812309eff32813180ad2d2b40aeacd6bc019f826512e2f4054b[ALL] 03a4063fba0c5943e4a1d037947b6c1944905e60168a17f531bfbc6d03f5232287"}, "vout": 1, "txid": "9ea73f649b52ceb6b231677681e57be82349a8273ebec61232811a9e153ed8b9"}], "txid": "70f4e4bda48f3bb66e36e5220d86f15461bdc5d982cc852440b7c3f288bab40d", "blocktime": 1537869901, "version": 1, "confirmations": 11523, "time": 1537869901, "locktime": 0, "vsize": 224, "size": 224}