{"hash": "70f6d1dc03801cbea9b8442a7b26ec9967c0e9de3f4ef421f5f40477e32c63e1", "blockhash": "00000000000000000004ffacab907a6b429b9a5745fa0b75af4234bf69dd7176", "vout": [{"scriptPubKey": {"reqSigs": 1, "hex": "76a914e74a90faab3bd66a4b40994939a865b440dafda388ac", "addresses": ["1N5xRGmhpMMrmNWNxCkTLTrowAMq7H6aeQ"], "asm": "OP_DUP OP_HASH160 e74a90faab3bd66a4b40994939a865b440dafda3 OP_EQUALVERIFY OP_CHECKSIG", "type": "pubkeyhash"}, "value": 0.0016245, "n": 0}, {"scriptPubKey": {"reqSigs": 1, "hex": "76a914d9a1cd29fede2510bf4b6f4de44158e63b9eb6e088ac", "addresses": ["1LqjTnenPabvEwo8oppfoh58RiuHY2ZNQo"], "asm": "OP_DUP OP_HASH160 d9a1cd29fede2510bf4b6f4de44158e63b9eb6e0 OP_EQUALVERIFY OP_CHECKSIG", "type": "pubkeyhash"}, "value": 0.832, "n": 1}], "hex": "010000000103a71a521e28d0f6ffca48403e8695b62b7c306879dc2e2b6228e1c7d12762dc000000006a47304402200b4d13257d487987cff465a53c31461c0a10797d9bdd1d3a995042cddec0744102200f9525fb49e7e352f88f4aaa663a9310eeebd17644d3d11c39d7c7e0e5065595012103efc6a5ce12f99a5a500beff9e2f7b462d4ec5554e3ada935e81213cb4bfd8d3fffffffff02927a0200000000001976a914e74a90faab3bd66a4b40994939a865b440dafda388ac0088f504000000001976a914d9a1cd29fede2510bf4b6f4de44158e63b9eb6e088ac00000000", "vin": [{"sequence": 4294967295, "scriptSig": {"hex": "47304402200b4d13257d487987cff465a53c31461c0a10797d9bdd1d3a995042cddec0744102200f9525fb49e7e352f88f4aaa663a9310eeebd17644d3d11c39d7c7e0e5065595012103efc6a5ce12f99a5a500beff9e2f7b462d4ec5554e3ada935e81213cb4bfd8d3f", "asm": "304402200b4d13257d487987cff465a53c31461c0a10797d9bdd1d3a995042cddec0744102200f9525fb49e7e352f88f4aaa663a9310eeebd17644d3d11c39d7c7e0e5065595[ALL] 03efc6a5ce12f99a5a500beff9e2f7b462d4ec5554e3ada935e81213cb4bfd8d3f"}, "vout": 0, "txid": "dc6227d1c7e128622b2edc7968307c2bb695863e4048cafff6d0281e521aa703"}], "txid": "70f6d1dc03801cbea9b8442a7b26ec9967c0e9de3f4ef421f5f40477e32c63e1", "blocktime": 1537875543, "version": 1, "confirmations": 11464, "time": 1537875543, "locktime": 0, "vsize": 225, "size": 225}