{"hash": "5b32ed4d14999534601d99b00c4f2e1dafc756cc9023b786f1e3419e3bfdaab5", "blockhash": "0000000000000000001f0ddff1eddb255c1121bcd4da4f1bc9a0da00cae72433", "vout": [{"scriptPubKey": {"reqSigs": 1, "hex": "a91484bf065bcd8e23a69a3f6707e9aec3e50c1ed3ab87", "addresses": ["3DnuxWB6sH1mxX1q9fuCY5HRjc5KMvVVBd"], "asm": "OP_HASH160 84bf065bcd8e23a69a3f6707e9aec3e50c1ed3ab OP_EQUAL", "type": "scripthash"}, "value": 0.00290751, "n": 0}, {"scriptPubKey": {"reqSigs": 1, "hex": "a914aa688ebb483f4913d5fcfd8ae330b02b0664f48387", "addresses": ["3HE43wWBYRxcBqmrazhJAyXq6H2Qbsn9LJ"], "asm": "OP_HASH160 aa688ebb483f4913d5fcfd8ae330b02b0664f483 OP_EQUAL", "type": "scripthash"}, "value": 0.00627059, "n": 1}], "hex": "01000000000101d6e55350c411f523d6238d46f062183ee22120083b260210483b4633827aca860100000023220020988d37fd26c90acb24bbd534d889a25d0bbc87a958c51bc6e817cf0a8d23bca5ffffffff02bf6f04000000000017a91484bf065bcd8e23a69a3f6707e9aec3e50c1ed3ab87739109000000000017a914aa688ebb483f4913d5fcfd8ae330b02b0664f483870400483045022100da247b4f6946246d055d3958d32dbc0b1a7105d3a3de930484e1a9862ff7347d02203888cad417b895ac14a4d23872e8c2fb54d01c6f3f5825c5f5070e19749d935301483045022100ec127c8b097a2d7ab4a466415ce1efa80dc9aee0dde3afa7647c36f46862558c02203a9e9afa4722ec486383a33edbd562434f07ca70a3e35ac46cc8d9f3def7b43501475221036476fb4a87666bf067336c0aedb64247572bf1449726966a3dddd8f03868dd77210292d679353fa4a760eaad69284c09d063a1fd1a15ad8c70e83dbf86f7063f8c1852ae00000000", "vin": [{"txinwitness": ["", "3045022100da247b4f6946246d055d3958d32dbc0b1a7105d3a3de930484e1a9862ff7347d02203888cad417b895ac14a4d23872e8c2fb54d01c6f3f5825c5f5070e19749d935301", "3045022100ec127c8b097a2d7ab4a466415ce1efa80dc9aee0dde3afa7647c36f46862558c02203a9e9afa4722ec486383a33edbd562434f07ca70a3e35ac46cc8d9f3def7b43501", "5221036476fb4a87666bf067336c0aedb64247572bf1449726966a3dddd8f03868dd77210292d679353fa4a760eaad69284c09d063a1fd1a15ad8c70e83dbf86f7063f8c1852ae"], "sequence": 4294967295, "scriptSig": {"hex": "220020988d37fd26c90acb24bbd534d889a25d0bbc87a958c51bc6e817cf0a8d23bca5", "asm": "0020988d37fd26c90acb24bbd534d889a25d0bbc87a958c51bc6e817cf0a8d23bca5"}, "vout": 1, "txid": "86ca7a8233463b481002263b082021e23e1862f0468d23d623f511c45053e5d6"}], "txid": "70fc473756bb81822dad4d7c4edab5d088dce30246d28dd4c6b2299db5250b3d", "blocktime": 1537872018, "version": 1, "confirmations": 11489, "time": 1537872018, "locktime": 0, "vsize": 206, "size": 372}