{"hash": "7100de4ce580dbedf20e63387d329027ed8638b76f72abf087b2dcbd0103d175", "blockhash": "0000000000000000001e0dab787dd257d1dbfcb92a98c2207d5e1078be1f4165", "vout": [{"scriptPubKey": {"reqSigs": 1, "hex": "76a914e987f2d2723b43ddf037e9a5dd410246ed6a291388ac", "addresses": ["1NHoJZoNVbaTSFwqBWc4AMi5q3gGozCy8z"], "asm": "OP_DUP OP_HASH160 e987f2d2723b43ddf037e9a5dd410246ed6a2913 OP_EQUALVERIFY OP_CHECKSIG", "type": "pubkeyhash"}, "value": 0.000153, "n": 0}], "hex": "0100000001ce1d50f029c31ab4e54f9c5a39fb870fd432f8464543cf8f3de665f0bd243d5a000000006b483045022100c545bab3ae3c63be3a66f3a7d751b5bc37ebe9edc13e3ccbc4922afb26977f1c02200b4987ca3a5eece109d017c70ad0e0c37ce13a5d30ab91b3a7d7535a976bd9b6012102b2a4f12231988e1788a5f784dde5d0fcfe8d41b346782cc74224e2c5a5f0087affffffff01c43b0000000000001976a914e987f2d2723b43ddf037e9a5dd410246ed6a291388ac00000000", "vin": [{"sequence": 4294967295, "scriptSig": {"hex": "483045022100c545bab3ae3c63be3a66f3a7d751b5bc37ebe9edc13e3ccbc4922afb26977f1c02200b4987ca3a5eece109d017c70ad0e0c37ce13a5d30ab91b3a7d7535a976bd9b6012102b2a4f12231988e1788a5f784dde5d0fcfe8d41b346782cc74224e2c5a5f0087a", "asm": "3045022100c545bab3ae3c63be3a66f3a7d751b5bc37ebe9edc13e3ccbc4922afb26977f1c02200b4987ca3a5eece109d017c70ad0e0c37ce13a5d30ab91b3a7d7535a976bd9b6[ALL] 02b2a4f12231988e1788a5f784dde5d0fcfe8d41b346782cc74224e2c5a5f0087a"}, "vout": 0, "txid": "5a3d24bdf065e63d8fcf434546f832d40f87fb395a9c4fe5b41ac329f0501dce"}], "txid": "7100de4ce580dbedf20e63387d329027ed8638b76f72abf087b2dcbd0103d175", "blocktime": 1537872475, "version": 1, "confirmations": 11487, "time": 1537872475, "locktime": 0, "vsize": 192, "size": 192}