{"hash": "5db4afe760451dbc41ff694761a8a37391b58cb55d79b0b402fece900d6bff2a", "blockhash": "0000000000000000000e13cef7c366c0283d82e591d1acd082e914b08063cdf1", "vout": [{"scriptPubKey": {"reqSigs": 1, "hex": "76a91498e6dc739fd253ecc60dc47443f089c3a483a66288ac", "addresses": ["1EwUGfwZM9HTxTfRj41MR4DhCXtfR6TVoj"], "asm": "OP_DUP OP_HASH160 98e6dc739fd253ecc60dc47443f089c3a483a662 OP_EQUALVERIFY OP_CHECKSIG", "type": "pubkeyhash"}, "value": 0.059, "n": 0}, {"scriptPubKey": {"reqSigs": 1, "hex": "a914b73f3b34be73cb47df8597847f3d0348ca7d5b3587", "addresses": ["3JPwL2xk8fNx67631ZuiRfU42ZTx5jbRqC"], "asm": "OP_HASH160 b73f3b34be73cb47df8597847f3d0348ca7d5b35 OP_EQUAL", "type": "scripthash"}, "value": 0.3181464, "n": 1}], "hex": "010000000001011da94845d611e07ed3a38c1317d597ff663970d40e8596f827d5b3ac9575f79701000000232200207e2a26fca423d11498c0984b284eea124b9ba90b912b4b6defa94ec6b2d06831ffffffff02e0065a00000000001976a91498e6dc739fd253ecc60dc47443f089c3a483a66288acf073e5010000000017a914b73f3b34be73cb47df8597847f3d0348ca7d5b3587040047304402207a2962a818d19b808cafe13e6fad17d04758793f6a08908f0593b96cd9acfb4702202bd375740c31006b854824592789d6291eb6a6474aea8498efb039e28ca91a4501473044022013e29c712018958b15a8966771a20dfda145247e63f13ab44aed50ac1a9ee580022072968fe1a3197a063034b546116f4c8be0a8e8b7dafebd48d5e166563ff44df30147522102f4844214cdb38a4363093650bfb7b36f5c9ef122d83b73adc2dbbc1a73fe41d621038f2c7ecee34c843be9d886e50ce79e5dc40a1694c0417d60b35340f292ff73fc52ae00000000", "vin": [{"txinwitness": ["", "304402207a2962a818d19b808cafe13e6fad17d04758793f6a08908f0593b96cd9acfb4702202bd375740c31006b854824592789d6291eb6a6474aea8498efb039e28ca91a4501", "3044022013e29c712018958b15a8966771a20dfda145247e63f13ab44aed50ac1a9ee580022072968fe1a3197a063034b546116f4c8be0a8e8b7dafebd48d5e166563ff44df301", "522102f4844214cdb38a4363093650bfb7b36f5c9ef122d83b73adc2dbbc1a73fe41d621038f2c7ecee34c843be9d886e50ce79e5dc40a1694c0417d60b35340f292ff73fc52ae"], "sequence": 4294967295, "scriptSig": {"hex": "2200207e2a26fca423d11498c0984b284eea124b9ba90b912b4b6defa94ec6b2d06831", "asm": "00207e2a26fca423d11498c0984b284eea124b9ba90b912b4b6defa94ec6b2d06831"}, "vout": 1, "txid": "97f77595acb3d527f896850ed4703966ff97d517138ca3d37ee011d64548a91d"}], "txid": "7100c89f485065839c1e272f7ed2eb646276afe8186642882d745ba7eb0e7e01", "blocktime": 1537871767, "version": 1, "confirmations": 11495, "time": 1537871767, "locktime": 0, "vsize": 207, "size": 372}