{"hash": "e00484b7f9de8aa4e07f29816dac0e2be8e185a5bf4e3c2d3071054fbfc0c2c7", "blockhash": "0000000000000000000baef3f32e3676a92c3b2e5da21b426e4f302fc371ce76", "vout": [{"scriptPubKey": {"reqSigs": 1, "hex": "a91487ea110c8a2f69616c9da17306557e02695ddcc287", "addresses": ["3E5fYfzp8cSDueQtvYJjCmn2J9WBRAyfaV"], "asm": "OP_HASH160 87ea110c8a2f69616c9da17306557e02695ddcc2 OP_EQUAL", "type": "scripthash"}, "value": 0.01221119, "n": 0}, {"scriptPubKey": {"reqSigs": 1, "hex": "a914d20603a3a698f1211bc57c800a4c04afa6de2eb887", "addresses": ["3LqX2hjmfc9pW7LoGHa1A5QkxsN7A2uLyh"], "asm": "OP_HASH160 d20603a3a698f1211bc57c800a4c04afa6de2eb8 OP_EQUAL", "type": "scripthash"}, "value": 0.0025156, "n": 1}], "hex": "02000000000102467779af8418c9baa342c6bda26e9414a7f1eb0b33a91f7e8545c566f18402db010000001716001449b804c851a4c67de3f4d93d834f7fa4825fe9a3fefffffffb143f4c53dbb6c13b2bbf8d86e8d0928685ab218331602b3538249a367858390900000017160014439a7a77f427ed7fba3cb0dda8f7faee8ba790d3feffffff02ffa112000000000017a91487ea110c8a2f69616c9da17306557e02695ddcc287a8d603000000000017a914d20603a3a698f1211bc57c800a4c04afa6de2eb88702483045022100972b30abcb65cc4799202b3a3f5e40dd4ec1311734fd107ef29536782ab4572e02206e2ee48266265938313e685a106a82c71ea7789d81c8ad9a8d3a760c1b14936f012102d05058516a3e8e0173fedfbc2e3e15a6351438db740d5a07f6ba60875a36d51c0247304402204eed180de13a52e2ed3388d42aa27b792cb9af06beb84eff5e6232d99d8739340220678384edb6cf2440800d4be6d061df3bdf1624665fad09137f4848c2e5d2ee62012102ca447d495b20e63e9351515c645577dcc2a409df482faf5aefbc7d3e918c564c17490800", "vin": [{"txinwitness": ["3045022100972b30abcb65cc4799202b3a3f5e40dd4ec1311734fd107ef29536782ab4572e02206e2ee48266265938313e685a106a82c71ea7789d81c8ad9a8d3a760c1b14936f01", "02d05058516a3e8e0173fedfbc2e3e15a6351438db740d5a07f6ba60875a36d51c"], "sequence": 4294967294, "scriptSig": {"hex": "16001449b804c851a4c67de3f4d93d834f7fa4825fe9a3", "asm": "001449b804c851a4c67de3f4d93d834f7fa4825fe9a3"}, "vout": 1, "txid": "db0284f166c545857e1fa9330bebf1a714946ea2bdc642a3bac91884af797746"}, {"txinwitness": ["304402204eed180de13a52e2ed3388d42aa27b792cb9af06beb84eff5e6232d99d8739340220678384edb6cf2440800d4be6d061df3bdf1624665fad09137f4848c2e5d2ee6201", "02ca447d495b20e63e9351515c645577dcc2a409df482faf5aefbc7d3e918c564c"], "sequence": 4294967294, "scriptSig": {"hex": "160014439a7a77f427ed7fba3cb0dda8f7faee8ba790d3", "asm": "0014439a7a77f427ed7fba3cb0dda8f7faee8ba790d3"}, "vout": 9, "txid": "395878369a2438352b60318321ab858692d0e8868dbf2b3bc1b6db534c3f14fb"}], "txid": "7102384274368f068072580303565e918704cc5c0e1af12d73e7269b7f5f291c", "blocktime": 1537876114, "version": 2, "confirmations": 11462, "time": 1537876114, "locktime": 542999, "vsize": 257, "size": 419}