{"hash": "5222e6db91a4c8e3affbe55e4ff8d2c93fdaf71489dc63f56b70bf6efc9a4d63", "blockhash": "0000000000000000001f76057863aec43deb6fa401d9628bb513d65a8098bfab", "vout": [{"scriptPubKey": {"reqSigs": 1, "hex": "a914cbd6533e43209bb62045e5d5f9f836125022fcbe87", "addresses": ["3LGor4P9QzB8zBvhdVVauHxLAWCtKCTE4g"], "asm": "OP_HASH160 cbd6533e43209bb62045e5d5f9f836125022fcbe OP_EQUAL", "type": "scripthash"}, "value": 0.01076865, "n": 0}, {"scriptPubKey": {"reqSigs": 1, "hex": "76a914598955dcf6bfc9c4d98553fb413c317957a8239588ac", "addresses": ["19ARfJdcTyRkAZUwj6kru17fKQfPZhGNru"], "asm": "OP_DUP OP_HASH160 598955dcf6bfc9c4d98553fb413c317957a82395 OP_EQUALVERIFY OP_CHECKSIG", "type": "pubkeyhash"}, "value": 0.002532, "n": 1}], "hex": "020000000001013ff8d2f9c6dab2b6bae2ae2bb63123a5d7e71fe6b11cbeaeae83bcd3f1d07fc601000000171600148e325bcc290cc5eea741791b2ecd38de61a84de7fdffffff02816e10000000000017a914cbd6533e43209bb62045e5d5f9f836125022fcbe8710dd0300000000001976a914598955dcf6bfc9c4d98553fb413c317957a8239588ac02483045022100b87a872702b367642c92ae672e6b59874aad3db3f804c72be4c6d8cfb8f7a94502200e3494c7fbc51f68164f9be8e1479df218c5d5ed41dd7e3784be286f2b323f4c01210285442543507e51865d52d660b4912a818559dfefd6f766431e7152fb482033db14490800", "vin": [{"txinwitness": ["3045022100b87a872702b367642c92ae672e6b59874aad3db3f804c72be4c6d8cfb8f7a94502200e3494c7fbc51f68164f9be8e1479df218c5d5ed41dd7e3784be286f2b323f4c01", "0285442543507e51865d52d660b4912a818559dfefd6f766431e7152fb482033db"], "sequence": 4294967293, "scriptSig": {"hex": "1600148e325bcc290cc5eea741791b2ecd38de61a84de7", "asm": "00148e325bcc290cc5eea741791b2ecd38de61a84de7"}, "vout": 1, "txid": "c67fd0f1d3bc83aeaebe1cb1e61fe7d7a52331b62baee2bab6b2dac6f9d2f83f"}], "txid": "71061a78dceec2676867fec317fa7d26447659efc3595bf78e93de857ba8c503", "blocktime": 1537873891, "version": 2, "confirmations": 11479, "time": 1537873891, "locktime": 542996, "vsize": 168, "size": 250}