{"hash": "7107ef42edb7193842dc915148cecac0f74c16518c44adca74d5bec4ee4ef460", "blockhash": "0000000000000000001e0dab787dd257d1dbfcb92a98c2207d5e1078be1f4165", "vout": [{"scriptPubKey": {"type": "nulldata", "hex": "6a4c50000077b40001a3e117a7232cec5e973e64b5e5bf9ae76da98a211aaf6c953dd567cf27e7a4fafc486f64692741b78334a1540cc85baa11ab0611ce530feb721b1d100759d4ba30d2c37bb011d97e02cf", "asm": "OP_RETURN 000077b40001a3e117a7232cec5e973e64b5e5bf9ae76da98a211aaf6c953dd567cf27e7a4fafc486f64692741b78334a1540cc85baa11ab0611ce530feb721b1d100759d4ba30d2c37bb011d97e02cf"}, "value": 0.0, "n": 0}, {"scriptPubKey": {"reqSigs": 1, "hex": "76a91432b8e96818afef06c8725cb04975300bb5ebaa8688ac", "addresses": ["15dCJV7noWE6F4SrzWzY8sttMreP9v7r8L"], "asm": "OP_DUP OP_HASH160 32b8e96818afef06c8725cb04975300bb5ebaa86 OP_EQUALVERIFY OP_CHECKSIG", "type": "pubkeyhash"}, "value": 0.005959, "n": 1}], "hex": "01000000013f4e38147246568cebfdde30404d93b2b3a62728a53fa9247f92e46167e201ef000000006b483045022100bfd4d8d39007786cef11fdf8e8ea26a672d7c4f8f47a5130be4ff107fadf188c02205615ac783a342a094623d879df264e520630c9f4a734b097d5600770bc9010d5012102ae73fde8fe903b5ef52926353bd2c5e5d29545cc915a68fc43710390a5569780ffffffff020000000000000000536a4c50000077b40001a3e117a7232cec5e973e64b5e5bf9ae76da98a211aaf6c953dd567cf27e7a4fafc486f64692741b78334a1540cc85baa11ab0611ce530feb721b1d100759d4ba30d2c37bb011d97e02cfbc170900000000001976a91432b8e96818afef06c8725cb04975300bb5ebaa8688ac00000000", "vin": [{"sequence": 4294967295, "scriptSig": {"hex": "483045022100bfd4d8d39007786cef11fdf8e8ea26a672d7c4f8f47a5130be4ff107fadf188c02205615ac783a342a094623d879df264e520630c9f4a734b097d5600770bc9010d5012102ae73fde8fe903b5ef52926353bd2c5e5d29545cc915a68fc43710390a5569780", "asm": "3045022100bfd4d8d39007786cef11fdf8e8ea26a672d7c4f8f47a5130be4ff107fadf188c02205615ac783a342a094623d879df264e520630c9f4a734b097d5600770bc9010d5[ALL] 02ae73fde8fe903b5ef52926353bd2c5e5d29545cc915a68fc43710390a5569780"}, "vout": 0, "txid": "ef01e26761e4927f24a93fa52827a6b3b2934d4030defdeb8c56467214384e3f"}], "txid": "7107ef42edb7193842dc915148cecac0f74c16518c44adca74d5bec4ee4ef460", "blocktime": 1537872475, "version": 1, "confirmations": 11486, "time": 1537872475, "locktime": 0, "vsize": 284, "size": 284}