{"hash": "c4eaa7129ba6484d4eaf27670273036f425b0141667c5907be7289fe816b5d0e", "blockhash": "000000000000000000022b45ed06c6f4ccd3cf7fb5ba4856ebd2e58215665228", "vout": [{"scriptPubKey": {"reqSigs": 1, "hex": "a914cfaabfe8c271f99a4364b5197ba50c6cddb7adb987", "addresses": ["3Ld4M9RPwEG3VeQbHcC1PsKUndQL7VYLZP"], "asm": "OP_HASH160 cfaabfe8c271f99a4364b5197ba50c6cddb7adb9 OP_EQUAL", "type": "scripthash"}, "value": 0.15458316, "n": 0}, {"scriptPubKey": {"reqSigs": 1, "hex": "a9143b2418e13249043e8ffdb58989c0fe9b9cb87b9587", "addresses": ["375j2wNR41dm6AoDFH9rVHzV5YPiWiCUDs"], "asm": "OP_HASH160 3b2418e13249043e8ffdb58989c0fe9b9cb87b95 OP_EQUAL", "type": "scripthash"}, "value": 0.04642089, "n": 1}], "hex": "010000000001023f8bc088dfd546b08f5e8bea23ed7d91402ca08e65ba3bd0939b4e8058c61b0606000000232200202cb9deaf7f332289a84850ce4e3e2dbd2864c8886fc8e5c16cf32ad37e74de14ffffffff9ece6ea129a40fd265febfa81e3f108511c7d13fed2cd9e3074d1f020f7d99f70100000023220020f212e0c80105f30c9ef813cd86c9596aafcb46586661264da9fc505e09e23362ffffffff020ce0eb000000000017a914cfaabfe8c271f99a4364b5197ba50c6cddb7adb98729d546000000000017a9143b2418e13249043e8ffdb58989c0fe9b9cb87b95870400483045022100fb1ffdae5f20770ebe99bd4cc9b6c7aeb3d0051904797b91642dad067287a6dd02207b2805f471438b781c36c1533985059d84e537acaa6695c25d7acd525e196d2801483045022100e53a310f289e19dad358ca765fa0cbb434c8b881979f60976b7a7cb63bf33595022010172a8e4c058363e53ed0b501c622af2719f771747429b2435fd310ad63b0b1014752210287092b43eb593e01eb507df2395efa80607bfdbed249945a0e774c189850fbda21033e4af03ed09dbd8a417ba042650d5bd1db7f14f271a8f660974e3abf1fdfa4da52ae0400473044022072b3bba2ff8d00770f1d163bca47ab38f431d396c41f8b58bc9c3b07852a9725022025537ddab9f0d04508ab01b6c9ce17d38ef512a5a8f174c11c11b062d571fc57014730440220744f5dfd5db0ae6d14545bfed938ee59655f791469a0c840bb0d533402fff0e0022058712f0dfb5a4885b6783c21f481aadacdf7196d3fa0a7448173d65e91d76e2d0147522103289220731ccfff0094408674ce3484eb894dddecfab339961892535c0138cbe621033e4af03ed09dbd8a417ba042650d5bd1db7f14f271a8f660974e3abf1fdfa4da52ae00000000", "vin": [{"txinwitness": ["", "3045022100fb1ffdae5f20770ebe99bd4cc9b6c7aeb3d0051904797b91642dad067287a6dd02207b2805f471438b781c36c1533985059d84e537acaa6695c25d7acd525e196d2801", "3045022100e53a310f289e19dad358ca765fa0cbb434c8b881979f60976b7a7cb63bf33595022010172a8e4c058363e53ed0b501c622af2719f771747429b2435fd310ad63b0b101", "52210287092b43eb593e01eb507df2395efa80607bfdbed249945a0e774c189850fbda21033e4af03ed09dbd8a417ba042650d5bd1db7f14f271a8f660974e3abf1fdfa4da52ae"], "sequence": 4294967295, "scriptSig": {"hex": "2200202cb9deaf7f332289a84850ce4e3e2dbd2864c8886fc8e5c16cf32ad37e74de14", "asm": "00202cb9deaf7f332289a84850ce4e3e2dbd2864c8886fc8e5c16cf32ad37e74de14"}, "vout": 6, "txid": "061bc658804e9b93d03bba658ea02c40917ded23ea8b5e8fb046d5df88c08b3f"}, {"txinwitness": ["", "3044022072b3bba2ff8d00770f1d163bca47ab38f431d396c41f8b58bc9c3b07852a9725022025537ddab9f0d04508ab01b6c9ce17d38ef512a5a8f174c11c11b062d571fc5701", "30440220744f5dfd5db0ae6d14545bfed938ee59655f791469a0c840bb0d533402fff0e0022058712f0dfb5a4885b6783c21f481aadacdf7196d3fa0a7448173d65e91d76e2d01", "522103289220731ccfff0094408674ce3484eb894dddecfab339961892535c0138cbe621033e4af03ed09dbd8a417ba042650d5bd1db7f14f271a8f660974e3abf1fdfa4da52ae"], "sequence": 4294967295, "scriptSig": {"hex": "220020f212e0c80105f30c9ef813cd86c9596aafcb46586661264da9fc505e09e23362", "asm": "0020f212e0c80105f30c9ef813cd86c9596aafcb46586661264da9fc505e09e23362"}, "vout": 1, "txid": "f7997d0f021f4d07e3d92ced3fd1c71185103f1ea8bffe65d20fa429a16ece9e"}], "txid": "710edc842cfd03b6f80a2df93819adb04da26b99e8a0841f3cecee5eae9b8ed8", "blocktime": 1537869901, "version": 1, "confirmations": 11524, "time": 1537869901, "locktime": 0, "vsize": 336, "size": 666}