{"hash": "711a0ee9405c6f14e7f6a18d550bdceeebafd014ee8b7ce402e45231016b703a", "blockhash": "0000000000000000001f76057863aec43deb6fa401d9628bb513d65a8098bfab", "vout": [{"scriptPubKey": {"reqSigs": 1, "hex": "76a914eef21a477f9bdd16b7e55d4493711ad26dde8ca688ac", "addresses": ["1NnRrF68rhyEyKNJnzN3b6DMKsVVkQ3H4z"], "asm": "OP_DUP OP_HASH160 eef21a477f9bdd16b7e55d4493711ad26dde8ca6 OP_EQUALVERIFY OP_CHECKSIG", "type": "pubkeyhash"}, "value": 0.4126325, "n": 0}, {"scriptPubKey": {"reqSigs": 1, "hex": "76a914a309885128ade533aa264941f70d138b80ba0a0a88ac", "addresses": ["1Fs4ZbeCAHv4QcUM4ujQht5NrxLVCRjRey"], "asm": "OP_DUP OP_HASH160 a309885128ade533aa264941f70d138b80ba0a0a OP_EQUALVERIFY OP_CHECKSIG", "type": "pubkeyhash"}, "value": 15.52255316, "n": 1}], "hex": "020000000112e4f571d7f3480f5fd432178a88916a01965ab111d9e6cf2a6312df2a7da29d010000006b483045022100dda9161143a88cec97fd8c2fef7c3553f48fa9ce40c58d1bc038377d912bf4940220753750361c3fe1c7900c3a4f649a176947323668799454f226a65ff96169e53701210292d8db0c1ddcdc178a56cf51a9d5db82559c2d1b83000a8e3f849a8e49c81be0ffffffff0292a07502000000001976a914eef21a477f9bdd16b7e55d4493711ad26dde8ca688ac5489855c000000001976a914a309885128ade533aa264941f70d138b80ba0a0a88ac00000000", "vin": [{"sequence": 4294967295, "scriptSig": {"hex": "483045022100dda9161143a88cec97fd8c2fef7c3553f48fa9ce40c58d1bc038377d912bf4940220753750361c3fe1c7900c3a4f649a176947323668799454f226a65ff96169e53701210292d8db0c1ddcdc178a56cf51a9d5db82559c2d1b83000a8e3f849a8e49c81be0", "asm": "3045022100dda9161143a88cec97fd8c2fef7c3553f48fa9ce40c58d1bc038377d912bf4940220753750361c3fe1c7900c3a4f649a176947323668799454f226a65ff96169e537[ALL] 0292d8db0c1ddcdc178a56cf51a9d5db82559c2d1b83000a8e3f849a8e49c81be0"}, "vout": 1, "txid": "9da27d2adf12632acfe6d911b15a96016a91888a1732d45f0f48f3d771f5e412"}], "txid": "711a0ee9405c6f14e7f6a18d550bdceeebafd014ee8b7ce402e45231016b703a", "blocktime": 1537873891, "version": 2, "confirmations": 11478, "time": 1537873891, "locktime": 0, "vsize": 226, "size": 226}