{"hash": "711abe330a08fce081736dcb410db9d473acd279cdf37263900369f2e7047f52", "blockhash": "00000000000000000018f53835495a110e01622372bf6ae95dc86f2b0ab887b0", "vout": [{"scriptPubKey": {"reqSigs": 1, "hex": "76a914d218889524436b812efd99b2d98132be0838ccca88ac", "addresses": ["1L9tHuQqrSK6einGpZrmjvh8Vtrihf54yt"], "asm": "OP_DUP OP_HASH160 d218889524436b812efd99b2d98132be0838ccca OP_EQUALVERIFY OP_CHECKSIG", "type": "pubkeyhash"}, "value": 2.343e-05, "n": 0}], "hex": "0100000001554f0a3795121c1741715f936ccc7fb6292fa7e5391c12b1afcc2395e5aa100c000000006a4730440220750a0ce19c2b2e0be7a275d0928ebfe21dd891a580a9af4b303ae4799dc70507022064b6871030bf2094d09f9e0992a1af3b9535b0af9aa7e436e541ef4201e8c60301210296ee127d4b768c543b27fb0358ad3f929c65137ff3c3ec2d8fa363278499c622ffffffff0127090000000000001976a914d218889524436b812efd99b2d98132be0838ccca88ac00000000", "vin": [{"sequence": 4294967295, "scriptSig": {"hex": "4730440220750a0ce19c2b2e0be7a275d0928ebfe21dd891a580a9af4b303ae4799dc70507022064b6871030bf2094d09f9e0992a1af3b9535b0af9aa7e436e541ef4201e8c60301210296ee127d4b768c543b27fb0358ad3f929c65137ff3c3ec2d8fa363278499c622", "asm": "30440220750a0ce19c2b2e0be7a275d0928ebfe21dd891a580a9af4b303ae4799dc70507022064b6871030bf2094d09f9e0992a1af3b9535b0af9aa7e436e541ef4201e8c603[ALL] 0296ee127d4b768c543b27fb0358ad3f929c65137ff3c3ec2d8fa363278499c622"}, "vout": 0, "txid": "0c10aae59523ccafb1121c39e5a72f29b67fcc6c935f7141171c1295370a4f55"}], "txid": "711abe330a08fce081736dcb410db9d473acd279cdf37263900369f2e7047f52", "blocktime": 1537870928, "version": 1, "confirmations": 11512, "time": 1537870928, "locktime": 0, "vsize": 191, "size": 191}