{"hash": "711abd4634b0e23e922c05a553f83e17b66d713eb8457b57d860b72039911a41", "blockhash": "0000000000000000000baef3f32e3676a92c3b2e5da21b426e4f302fc371ce76", "vout": [{"scriptPubKey": {"reqSigs": 1, "hex": "a914d393e8ba980102d2196f877f4e60fb4e5868645687", "addresses": ["3LyjgvZJSyAwHshE6CpLeDxFD3LYRuDCZv"], "asm": "OP_HASH160 d393e8ba980102d2196f877f4e60fb4e58686456 OP_EQUAL", "type": "scripthash"}, "value": 0.002985, "n": 0}, {"scriptPubKey": {"reqSigs": 1, "hex": "76a914ea35181a9e584c1ca284e995e7e3caaf2f6e661e88ac", "addresses": ["1NMNiwEDJYARf3VbmvFjkpkNepCJfM2moy"], "asm": "OP_DUP OP_HASH160 ea35181a9e584c1ca284e995e7e3caaf2f6e661e OP_EQUALVERIFY OP_CHECKSIG", "type": "pubkeyhash"}, "value": 0.12337703, "n": 1}], "hex": "010000000177430d535d78d3ab7455a182d50dfe0ab3cef00c2ec4fda8549d46fc85815e0c010000006b48304502210098afa8738f7a219e08a735ee4dab16df047d5be1ea6a493f480bb5276d5d1c8c0220323f404d584a1750cb3226694b97ee8a8694001cacf5e190e1d98cd4b641ae37012103a9feaebef9e7644f4dd029c2f50b1112be0ac4919e4cf62c495214517ef8a96ffdffffff02048e04000000000017a914d393e8ba980102d2196f877f4e60fb4e58686456872742bc00000000001976a914ea35181a9e584c1ca284e995e7e3caaf2f6e661e88ac16490800", "vin": [{"sequence": 4294967293, "scriptSig": {"hex": "48304502210098afa8738f7a219e08a735ee4dab16df047d5be1ea6a493f480bb5276d5d1c8c0220323f404d584a1750cb3226694b97ee8a8694001cacf5e190e1d98cd4b641ae37012103a9feaebef9e7644f4dd029c2f50b1112be0ac4919e4cf62c495214517ef8a96f", "asm": "304502210098afa8738f7a219e08a735ee4dab16df047d5be1ea6a493f480bb5276d5d1c8c0220323f404d584a1750cb3226694b97ee8a8694001cacf5e190e1d98cd4b641ae37[ALL] 03a9feaebef9e7644f4dd029c2f50b1112be0ac4919e4cf62c495214517ef8a96f"}, "vout": 1, "txid": "0c5e8185fc469d54a8fdc42e0cf0ceb30afe0dd582a15574abd3785d530d4377"}], "txid": "711abd4634b0e23e922c05a553f83e17b66d713eb8457b57d860b72039911a41", "blocktime": 1537876114, "version": 1, "confirmations": 11460, "time": 1537876114, "locktime": 542998, "vsize": 224, "size": 224}