{"hash": "711b5b7892a70336279fb4433ef423e0e1a0d1e20d708bc64244ac45f47a5b9e", "blockhash": "00000000000000000018f53835495a110e01622372bf6ae95dc86f2b0ab887b0", "vout": [{"scriptPubKey": {"reqSigs": 1, "hex": "a9140c0fe51df98f8a1672ad74d713b8fe660f4fe8ca87", "addresses": ["32no5FPX9apuxJG6LmgZdq9ppNKzfePBTc"], "asm": "OP_HASH160 0c0fe51df98f8a1672ad74d713b8fe660f4fe8ca OP_EQUAL", "type": "scripthash"}, "value": 0.00598846, "n": 0}], "hex": "0100000001ec5c7a86f3f04a3375b1c342def5742802c615ffa2247f7a17fc4314e405dcf7000000006a47304402200cb2b04e3a616dbabd9848417fd07966776864c7314b9322f693e141bf54b72b022030171fc66e9ce51e9ded46a0ce5bd57b2f3426d2d807ea6cee1a5423f3926c7601210331b738cf7fb57bc52829b1f49e92647a4bde5f6ee416e544334c2a6592796bbfffffffff013e2309000000000017a9140c0fe51df98f8a1672ad74d713b8fe660f4fe8ca8700000000", "vin": [{"sequence": 4294967295, "scriptSig": {"hex": "47304402200cb2b04e3a616dbabd9848417fd07966776864c7314b9322f693e141bf54b72b022030171fc66e9ce51e9ded46a0ce5bd57b2f3426d2d807ea6cee1a5423f3926c7601210331b738cf7fb57bc52829b1f49e92647a4bde5f6ee416e544334c2a6592796bbf", "asm": "304402200cb2b04e3a616dbabd9848417fd07966776864c7314b9322f693e141bf54b72b022030171fc66e9ce51e9ded46a0ce5bd57b2f3426d2d807ea6cee1a5423f3926c76[ALL] 0331b738cf7fb57bc52829b1f49e92647a4bde5f6ee416e544334c2a6592796bbf"}, "vout": 0, "txid": "f7dc05e41443fc177a7f24a2ff15c6022874f5de42c3b175334af0f3867a5cec"}], "txid": "711b5b7892a70336279fb4433ef423e0e1a0d1e20d708bc64244ac45f47a5b9e", "blocktime": 1537870928, "version": 1, "confirmations": 11512, "time": 1537870928, "locktime": 0, "vsize": 189, "size": 189}