{"hash": "711e24898c1ad5ed0d56d2c2257f51d968b9e11edd58237ac2298a572193c9ce", "blockhash": "0000000000000000001f76057863aec43deb6fa401d9628bb513d65a8098bfab", "vout": [{"scriptPubKey": {"reqSigs": 1, "hex": "a914c2807c3ace89dbb1f8567f9d83b91903a84b219787", "addresses": ["3KRSw58jnnHmaB48qKmmWUQvNEGRo8xxru"], "asm": "OP_HASH160 c2807c3ace89dbb1f8567f9d83b91903a84b2197 OP_EQUAL", "type": "scripthash"}, "value": 0.03790691, "n": 0}, {"scriptPubKey": {"reqSigs": 1, "hex": "76a914657df242774636c041a4c1123e46dd94c3faec5a88ac", "addresses": ["1AFe8HBmpMtEZ4ZrYmbNe7Kn16w3WzS5KH"], "asm": "OP_DUP OP_HASH160 657df242774636c041a4c1123e46dd94c3faec5a OP_EQUALVERIFY OP_CHECKSIG", "type": "pubkeyhash"}, "value": 0.0099795, "n": 1}], "hex": "02000000040581df52282d1e39b64da4e6cb4c5339516e8b3410421ded7b3a9a87678856e6010000006a47304402203c16a0c97c405b3ed5db9093208d5f1dab12228078c7719454149235b78c82f7022071ae3d40ac0dc211cea391a86bcc4e58bac33c5042927e15268413cf59e4b90b0121030a1074b8644af20fb369570240847bfdf3c3cee17c17f0c3f3fd4d4b378c1e06feffffff4bc488f6c927e5a5d551faa7556a62647208495a1df87fc55a0966679b201b0a000000006b483045022100ba5aed996e5eef12610c4e28cdf5d6c393b882c3a51537f83b60c75a2f620b8702203d33fad173af25dd1e14019cd77bb3574fc75127a21ce6423930109319022f920121020838487e8a483e738f97dac4eaea8783331f8d4e31750d74765e7d903839ae5cfefffffff4c632cdaceab00f68986d5a53645cba777eb2aead704dd19e3f4c852806680f000000006b483045022100e1246dd535c8eff066dd13c94fd9560dc761d312934cf346ee947a6e7d3b86d1022059c3d51eefb8a1a81485747f59f87e01d04618ea9bfb8692fc36e170c813a158012102d943cd45d5c6175fbc4ae5c28cc4b5f9f3cde12a76a133483e05c95f553203abfeffffff65753b1530254baf59ce0f75c31af099c4c5167592eb603bd3ddfabc87cc7564000000006b483045022100931800ce57b2ee60fbd3c30bfff1f0e798341b11ed19bfed3c3219f53d93f14102203cb87414bf2667a421b1b79abce5a9e9053209dcb70ed2c9c44929fda07182620121032a562699f391e63c7797ac29c6e177545b2993832d483639ff423f268e3c4a8ffeffffff0263d739000000000017a914c2807c3ace89dbb1f8567f9d83b91903a84b2197873e3a0f00000000001976a914657df242774636c041a4c1123e46dd94c3faec5a88ac13490800", "vin": [{"sequence": 4294967294, "scriptSig": {"hex": "47304402203c16a0c97c405b3ed5db9093208d5f1dab12228078c7719454149235b78c82f7022071ae3d40ac0dc211cea391a86bcc4e58bac33c5042927e15268413cf59e4b90b0121030a1074b8644af20fb369570240847bfdf3c3cee17c17f0c3f3fd4d4b378c1e06", "asm": "304402203c16a0c97c405b3ed5db9093208d5f1dab12228078c7719454149235b78c82f7022071ae3d40ac0dc211cea391a86bcc4e58bac33c5042927e15268413cf59e4b90b[ALL] 030a1074b8644af20fb369570240847bfdf3c3cee17c17f0c3f3fd4d4b378c1e06"}, "vout": 1, "txid": "e6568867879a3a7bed1d4210348b6e5139534ccbe6a44db6391e2d2852df8105"}, {"sequence": 4294967294, "scriptSig": {"hex": "483045022100ba5aed996e5eef12610c4e28cdf5d6c393b882c3a51537f83b60c75a2f620b8702203d33fad173af25dd1e14019cd77bb3574fc75127a21ce6423930109319022f920121020838487e8a483e738f97dac4eaea8783331f8d4e31750d74765e7d903839ae5c", "asm": "3045022100ba5aed996e5eef12610c4e28cdf5d6c393b882c3a51537f83b60c75a2f620b8702203d33fad173af25dd1e14019cd77bb3574fc75127a21ce6423930109319022f92[ALL] 020838487e8a483e738f97dac4eaea8783331f8d4e31750d74765e7d903839ae5c"}, "vout": 0, "txid": "0a1b209b6766095ac57ff81d5a49087264626a55a7fa51d5a5e527c9f688c44b"}, {"sequence": 4294967294, "scriptSig": {"hex": "483045022100e1246dd535c8eff066dd13c94fd9560dc761d312934cf346ee947a6e7d3b86d1022059c3d51eefb8a1a81485747f59f87e01d04618ea9bfb8692fc36e170c813a158012102d943cd45d5c6175fbc4ae5c28cc4b5f9f3cde12a76a133483e05c95f553203ab", "asm": "3045022100e1246dd535c8eff066dd13c94fd9560dc761d312934cf346ee947a6e7d3b86d1022059c3d51eefb8a1a81485747f59f87e01d04618ea9bfb8692fc36e170c813a158[ALL] 02d943cd45d5c6175fbc4ae5c28cc4b5f9f3cde12a76a133483e05c95f553203ab"}, "vout": 0, "txid": "0f680628854c3f9ed14d70adaeb27e77ba5c64535a6d98680fb0eaaccd32c6f4"}, {"sequence": 4294967294, "scriptSig": {"hex": "483045022100931800ce57b2ee60fbd3c30bfff1f0e798341b11ed19bfed3c3219f53d93f14102203cb87414bf2667a421b1b79abce5a9e9053209dcb70ed2c9c44929fda07182620121032a562699f391e63c7797ac29c6e177545b2993832d483639ff423f268e3c4a8f", "asm": "3045022100931800ce57b2ee60fbd3c30bfff1f0e798341b11ed19bfed3c3219f53d93f14102203cb87414bf2667a421b1b79abce5a9e9053209dcb70ed2c9c44929fda0718262[ALL] 032a562699f391e63c7797ac29c6e177545b2993832d483639ff423f268e3c4a8f"}, "vout": 0, "txid": "6475cc87bcfaddd33b60eb927516c5c499f01ac3750fce59af4b2530153b7565"}], "txid": "711e24898c1ad5ed0d56d2c2257f51d968b9e11edd58237ac2298a572193c9ce", "blocktime": 1537873891, "version": 2, "confirmations": 11478, "time": 1537873891, "locktime": 542995, "vsize": 667, "size": 667}