{"hash": "5419a7f034f61551ed1c30eb890784e8bf495468176c33d41470db34956f2bdc", "blockhash": "0000000000000000001f76057863aec43deb6fa401d9628bb513d65a8098bfab", "vout": [{"scriptPubKey": {"reqSigs": 1, "hex": "a914819aff504e686f104058eb21df98d23098cc9da887", "addresses": ["3DWJmh7XPJVbmqYmPjsNmV26UB5ie4d5NY"], "asm": "OP_HASH160 819aff504e686f104058eb21df98d23098cc9da8 OP_EQUAL", "type": "scripthash"}, "value": 0.01019364, "n": 0}, {"scriptPubKey": {"reqSigs": 1, "hex": "76a914bb587ab3b795369d87ecf1e1b4ff383d979f893c88ac", "addresses": ["1J5bMXHYWhyJS9KdBW1uj82x3TjyPtXLQ6"], "asm": "OP_DUP OP_HASH160 bb587ab3b795369d87ecf1e1b4ff383d979f893c OP_EQUALVERIFY OP_CHECKSIG", "type": "pubkeyhash"}, "value": 0.00301186, "n": 1}], "hex": "02000000000102ef4d304aee86e6a9ac8a9c831b689c0cfdaeaab127394b069ff0a351dacc003a0100000017160014648120b02cd5929813d2f0bbeb634a0852df2578fefffffff82d7c3d9475eb1ee7b32dc16c967240fa4f8f89f004959c2d6de81ac2c806910300000017160014f5bd78adcc61e821e2b9c8610cb56324370ff421feffffff02e48d0f000000000017a914819aff504e686f104058eb21df98d23098cc9da88782980400000000001976a914bb587ab3b795369d87ecf1e1b4ff383d979f893c88ac0247304402206f91e4f3dd74e2671e428623b7b4240052f257daa5728b1d4af2bd6e95106b77022051816504ee781106861d9e7a42769983f55229f52c2f3474939e0377647bfbb70121020cd481f09ba9f523fffda8f2db5c8ce96ac47fc2445a8e167d436c8d9bacdffc02483045022100b29efb6f05d2de6b2e7cf38982a136bedd6408e4215686875196265d54350863022007bc330da4c4055622683014fc1ab4cf89bc6702b8a9ea38977f4b33d1d4ad66012102fad39d1fe82d28172d99442651d29e3744845d92c7291b482face8331166792a14490800", "vin": [{"txinwitness": ["304402206f91e4f3dd74e2671e428623b7b4240052f257daa5728b1d4af2bd6e95106b77022051816504ee781106861d9e7a42769983f55229f52c2f3474939e0377647bfbb701", "020cd481f09ba9f523fffda8f2db5c8ce96ac47fc2445a8e167d436c8d9bacdffc"], "sequence": 4294967294, "scriptSig": {"hex": "160014648120b02cd5929813d2f0bbeb634a0852df2578", "asm": "0014648120b02cd5929813d2f0bbeb634a0852df2578"}, "vout": 1, "txid": "3a00ccda51a3f09f064b3927b1aaaefd0c9c681b839c8aaca9e686ee4a304def"}, {"txinwitness": ["3045022100b29efb6f05d2de6b2e7cf38982a136bedd6408e4215686875196265d54350863022007bc330da4c4055622683014fc1ab4cf89bc6702b8a9ea38977f4b33d1d4ad6601", "02fad39d1fe82d28172d99442651d29e3744845d92c7291b482face8331166792a"], "sequence": 4294967294, "scriptSig": {"hex": "160014f5bd78adcc61e821e2b9c8610cb56324370ff421", "asm": "0014f5bd78adcc61e821e2b9c8610cb56324370ff421"}, "vout": 3, "txid": "9106c8c21ae86d2d9c9504f0898f4ffa4072966cc12db3e71eeb75943d7c2df8"}], "txid": "712184aa549267d9641b24f04dd1c9ebccdaf4dd137bd9527b6b11427e000ba0", "blocktime": 1537873891, "version": 2, "confirmations": 11478, "time": 1537873891, "locktime": 542996, "vsize": 259, "size": 421}