{"hash": "71296faf136731558a5c822143b878a51bf38c21d2fcba7e9b996d94d1f159b6", "blockhash": "0000000000000000001f76057863aec43deb6fa401d9628bb513d65a8098bfab", "vout": [{"scriptPubKey": {"reqSigs": 1, "hex": "76a914181d5d93ba1236e379cb626fd1db9bdcc04b1d0f88ac", "addresses": ["13CWPxWgMaEJpvwZyfkoXvW1x8vrsDBor2"], "asm": "OP_DUP OP_HASH160 181d5d93ba1236e379cb626fd1db9bdcc04b1d0f OP_EQUALVERIFY OP_CHECKSIG", "type": "pubkeyhash"}, "value": 0.00234182, "n": 0}, {"scriptPubKey": {"reqSigs": 1, "hex": "76a9142e5d7eaeff18f96ff951c735224c2000689030e588ac", "addresses": ["15EA5xj8XudhXWZBCBmMzSZX2CKse1FPgF"], "asm": "OP_DUP OP_HASH160 2e5d7eaeff18f96ff951c735224c2000689030e5 OP_EQUALVERIFY OP_CHECKSIG", "type": "pubkeyhash"}, "value": 0.00392445, "n": 1}], "hex": "01000000012f1865692c9eac66c7960f57f6c94308cf2ef6bfd64feb9b36d11a333fde007e000000006a47304402205626cf1bceb22cb3224e6af5093c473e954a7d16cab252dcec95e81ad0b18dc3022021a2bdeb52b5e32b90aa6bd4943e12aa02e9706e507c95ae8eacbd6c185a260e012102b9aa6b908ac09ba1aa3e90d4835753fb361fd3a1fa5f5e6fc560f5839734b157ffffffff02c6920300000000001976a914181d5d93ba1236e379cb626fd1db9bdcc04b1d0f88acfdfc0500000000001976a9142e5d7eaeff18f96ff951c735224c2000689030e588ac00000000", "vin": [{"sequence": 4294967295, "scriptSig": {"hex": "47304402205626cf1bceb22cb3224e6af5093c473e954a7d16cab252dcec95e81ad0b18dc3022021a2bdeb52b5e32b90aa6bd4943e12aa02e9706e507c95ae8eacbd6c185a260e012102b9aa6b908ac09ba1aa3e90d4835753fb361fd3a1fa5f5e6fc560f5839734b157", "asm": "304402205626cf1bceb22cb3224e6af5093c473e954a7d16cab252dcec95e81ad0b18dc3022021a2bdeb52b5e32b90aa6bd4943e12aa02e9706e507c95ae8eacbd6c185a260e[ALL] 02b9aa6b908ac09ba1aa3e90d4835753fb361fd3a1fa5f5e6fc560f5839734b157"}, "vout": 0, "txid": "7e00de3f331ad1369beb4fd6bff62ecf0843c9f6570f96c766ac9e2c6965182f"}], "txid": "71296faf136731558a5c822143b878a51bf38c21d2fcba7e9b996d94d1f159b6", "blocktime": 1537873891, "version": 1, "confirmations": 11478, "time": 1537873891, "locktime": 0, "vsize": 225, "size": 225}