{"hash": "712acff6973519ff0fc197533e664d28e3621f96e02bd0814ee7cfef928f0b25", "blockhash": "00000000000000000017f5eb5941039fbcee6240d03bc1f2f8e35350df66a1d8", "vout": [{"scriptPubKey": {"reqSigs": 1, "hex": "76a91412c5cf5e68969b86fbfc2ccc4601c5439d1d14c288ac", "addresses": ["12iG8Y31o8zrKJnKQB6XcxTgTjtrnyXiNR"], "asm": "OP_DUP OP_HASH160 12c5cf5e68969b86fbfc2ccc4601c5439d1d14c2 OP_EQUALVERIFY OP_CHECKSIG", "type": "pubkeyhash"}, "value": 0.0002909, "n": 0}, {"scriptPubKey": {"reqSigs": 1, "hex": "a914643e68c0f12913ffb1bbbb5c4a14b25fc9b03df087", "addresses": ["3Aq4Fzanf6Sz5WjcFEDmiH7eAyj2P5bF91"], "asm": "OP_HASH160 643e68c0f12913ffb1bbbb5c4a14b25fc9b03df0 OP_EQUAL", "type": "scripthash"}, "value": 0.00093, "n": 1}], "hex": "0100000002f6c48d96d145e30164035597ce127e843c3cdd4fe13fbbd3e2c3b167cc0cd669000000006a47304402204d3ce600650e9c7d856c0af31e2b0615cb13db78c48bc0554f3fb32c14afea0f022061456e420d50d3ff130e9f063211991ddfa4420ea8f45cbb9c8c7bf56ecfe5c201210275d7b7ea8b722a80d2683136113595bd492d777c8158ffe561b0c0b1fbfbd539ffffffff8ce4b404359d3173fcade951b98d078de7ee079c3599f2dfbbe82fa8842e1dae000000006a47304402203a79f266cf39a5b605d141b6c8559580b06765db4c7599bfab36ed970e50c36702200383b9c92e3a34f6c0dea2226cf17c57b01c706788c5c984bfeea822ada266ec012102a9ea4ad618143746fde8ee3ad0c893d155dd4ce57b6251351a82b7a92017b009ffffffff02a2710000000000001976a91412c5cf5e68969b86fbfc2ccc4601c5439d1d14c288ac486b01000000000017a914643e68c0f12913ffb1bbbb5c4a14b25fc9b03df08700000000", "vin": [{"sequence": 4294967295, "scriptSig": {"hex": "47304402204d3ce600650e9c7d856c0af31e2b0615cb13db78c48bc0554f3fb32c14afea0f022061456e420d50d3ff130e9f063211991ddfa4420ea8f45cbb9c8c7bf56ecfe5c201210275d7b7ea8b722a80d2683136113595bd492d777c8158ffe561b0c0b1fbfbd539", "asm": "304402204d3ce600650e9c7d856c0af31e2b0615cb13db78c48bc0554f3fb32c14afea0f022061456e420d50d3ff130e9f063211991ddfa4420ea8f45cbb9c8c7bf56ecfe5c2[ALL] 0275d7b7ea8b722a80d2683136113595bd492d777c8158ffe561b0c0b1fbfbd539"}, "vout": 0, "txid": "69d60ccc67b1c3e2d3bb3fe14fdd3c3c847e12ce9755036401e345d1968dc4f6"}, {"sequence": 4294967295, "scriptSig": {"hex": "47304402203a79f266cf39a5b605d141b6c8559580b06765db4c7599bfab36ed970e50c36702200383b9c92e3a34f6c0dea2226cf17c57b01c706788c5c984bfeea822ada266ec012102a9ea4ad618143746fde8ee3ad0c893d155dd4ce57b6251351a82b7a92017b009", "asm": "304402203a79f266cf39a5b605d141b6c8559580b06765db4c7599bfab36ed970e50c36702200383b9c92e3a34f6c0dea2226cf17c57b01c706788c5c984bfeea822ada266ec[ALL] 02a9ea4ad618143746fde8ee3ad0c893d155dd4ce57b6251351a82b7a92017b009"}, "vout": 0, "txid": "ae1d2e84a82fe8bbdff299359c07eee78d078db951e9adfc73319d3504b4e48c"}], "txid": "712acff6973519ff0fc197533e664d28e3621f96e02bd0814ee7cfef928f0b25", "blocktime": 1537874412, "version": 1, "confirmations": 11468, "time": 1537874412, "locktime": 0, "vsize": 370, "size": 370}