{"hash": "1a08642edcd712cca9183a7a6ad53458eca37a3008cc0f3af19e5fd297a2a4d9", "blockhash": "0000000000000000000e13cef7c366c0283d82e591d1acd082e914b08063cdf1", "vout": [{"scriptPubKey": {"reqSigs": 1, "hex": "76a91400fd11ab01513b5b979af09bb179a922b892175a88ac", "addresses": ["116EAYXD7ryMGGhKckgMkTSTqE8ZRwqTPv"], "asm": "OP_DUP OP_HASH160 00fd11ab01513b5b979af09bb179a922b892175a OP_EQUALVERIFY OP_CHECKSIG", "type": "pubkeyhash"}, "value": 0.00297247, "n": 0}, {"scriptPubKey": {"reqSigs": 1, "hex": "a914a70232c7c2bfd30e930111bc603101f821f6614c87", "addresses": ["3Gv5QKktGSTHVbYftQbW9ihC5mYwBEoN15"], "asm": "OP_HASH160 a70232c7c2bfd30e930111bc603101f821f6614c OP_EQUAL", "type": "scripthash"}, "value": 0.01460613, "n": 1}], "hex": "01000000000101cbd785a636b0ef8d4a6230cf5e8b71ea6d02d1fadf62e2579506a4de422cefa60100000023220020c53f8f3f573e075146f37843a0bf66eaee4426073690bab4a2273acf0cb0ca9bffffffff021f890400000000001976a91400fd11ab01513b5b979af09bb179a922b892175a88ac854916000000000017a914a70232c7c2bfd30e930111bc603101f821f6614c87040047304402202c7b4d682e4de479db4b2195840f3b9ba454f39b81850e056ba8c680aaf0a91802205c39315d341dfc0318b3df7fe255249991db00468ecc37b37f14cd5436aa41da0147304402204a1ed0ea6ea7be367772047e99e4b443e8f87cb7f7fe419e5324e4375ea78cd002200d4b018c89e1738fa4a5b2d798908f37de1e806d211f676932293b631e55dd9c01475221025832d8a933a48e5726d8efdded1f1d22a653e1c3776195e5a5addc1107f4a0452103bd2629ae6c1490ceb5e4aebd297130b1ac4dde611e8b5e25bf7fcbeefad8be7352ae00000000", "vin": [{"txinwitness": ["", "304402202c7b4d682e4de479db4b2195840f3b9ba454f39b81850e056ba8c680aaf0a91802205c39315d341dfc0318b3df7fe255249991db00468ecc37b37f14cd5436aa41da01", "304402204a1ed0ea6ea7be367772047e99e4b443e8f87cb7f7fe419e5324e4375ea78cd002200d4b018c89e1738fa4a5b2d798908f37de1e806d211f676932293b631e55dd9c01", "5221025832d8a933a48e5726d8efdded1f1d22a653e1c3776195e5a5addc1107f4a0452103bd2629ae6c1490ceb5e4aebd297130b1ac4dde611e8b5e25bf7fcbeefad8be7352ae"], "sequence": 4294967295, "scriptSig": {"hex": "220020c53f8f3f573e075146f37843a0bf66eaee4426073690bab4a2273acf0cb0ca9b", "asm": "0020c53f8f3f573e075146f37843a0bf66eaee4426073690bab4a2273acf0cb0ca9b"}, "vout": 1, "txid": "a6ef2c42dea4069557e262dffad1026dea718b5ecf30624a8defb036a685d7cb"}], "txid": "712d48b1998130a5153c4c30d50eb494f195301fc3e5af865e3c203efede3a3c", "blocktime": 1537871767, "version": 1, "confirmations": 11495, "time": 1537871767, "locktime": 0, "vsize": 207, "size": 372}