{"hash": "712eebb0901f6c40e21ab2122f9c62eccf0038665594bb8efe298a0181b8a19a", "blockhash": "0000000000000000001f0ddff1eddb255c1121bcd4da4f1bc9a0da00cae72433", "vout": [{"scriptPubKey": {"reqSigs": 1, "hex": "76a914cc73b1b17ece0e64c05d99ce1dc376311d8c288088ac", "addresses": ["1Ke3ShgZPpBhoLKWvGACC4b2RjY7Mc5uS3"], "asm": "OP_DUP OP_HASH160 cc73b1b17ece0e64c05d99ce1dc376311d8c2880 OP_EQUALVERIFY OP_CHECKSIG", "type": "pubkeyhash"}, "value": 0.010484, "n": 0}, {"scriptPubKey": {"reqSigs": 1, "hex": "76a914ec9899f13b335ab516b35ee1b5050f180eabcca988ac", "addresses": ["1Na1HCXebE6LDYuiinRaH5LuzjoQCDiPtE"], "asm": "OP_DUP OP_HASH160 ec9899f13b335ab516b35ee1b5050f180eabcca9 OP_EQUALVERIFY OP_CHECKSIG", "type": "pubkeyhash"}, "value": 0.03560232, "n": 1}], "hex": "0100000001a5c1b4d22badbdc02fc830d26a8bcd401ac58e5c4afdef32e401e33070afd706010000006b483045022100d26162d6c68b7e47be9fb4395928fa4642ed54b65096e00350f1d642f1b844dc022050569ea014e119ab997f767572e9eac317033fe866b0db51bf6a35488bf5357d01210373c15055a05cddac8b1feef700a308d6f5f7285f5975aafcf4874152414070e3feffffff0250ff0f00000000001976a914cc73b1b17ece0e64c05d99ce1dc376311d8c288088ac28533600000000001976a914ec9899f13b335ab516b35ee1b5050f180eabcca988ac11490800", "vin": [{"sequence": 4294967294, "scriptSig": {"hex": "483045022100d26162d6c68b7e47be9fb4395928fa4642ed54b65096e00350f1d642f1b844dc022050569ea014e119ab997f767572e9eac317033fe866b0db51bf6a35488bf5357d01210373c15055a05cddac8b1feef700a308d6f5f7285f5975aafcf4874152414070e3", "asm": "3045022100d26162d6c68b7e47be9fb4395928fa4642ed54b65096e00350f1d642f1b844dc022050569ea014e119ab997f767572e9eac317033fe866b0db51bf6a35488bf5357d[ALL] 0373c15055a05cddac8b1feef700a308d6f5f7285f5975aafcf4874152414070e3"}, "vout": 1, "txid": "06d7af7030e301e432effd4a5c8ec51a40cd8b6ad230c82fc0bdad2bd2b4c1a5"}], "txid": "712eebb0901f6c40e21ab2122f9c62eccf0038665594bb8efe298a0181b8a19a", "blocktime": 1537872018, "version": 1, "confirmations": 11489, "time": 1537872018, "locktime": 542993, "vsize": 226, "size": 226}