{"hash": "7130417873b2f77f91cfae540d0478aaa5dceafc4e06e434e8e74e5ffbfe7fed", "blockhash": "00000000000000000024a2167bbff67b0be802c0b01cdd79e6331c2be6459f87", "vout": [{"scriptPubKey": {"reqSigs": 1, "hex": "76a914625001fff25716ca34009753dc51f91aa65cf2bb88ac", "addresses": ["19xq4qhPnLxWGvzuwpwGufSBkZhYmLmbAz"], "asm": "OP_DUP OP_HASH160 625001fff25716ca34009753dc51f91aa65cf2bb OP_EQUALVERIFY OP_CHECKSIG", "type": "pubkeyhash"}, "value": 89.27101754, "n": 0}, {"scriptPubKey": {"reqSigs": 1, "hex": "76a91447c69315913e23a8ad99900835fd705e0eea6f2d88ac", "addresses": ["17YWrpeGt2FNV9qYeAXvu8ZgGjBFgi1sbi"], "asm": "OP_DUP OP_HASH160 47c69315913e23a8ad99900835fd705e0eea6f2d OP_EQUALVERIFY OP_CHECKSIG", "type": "pubkeyhash"}, "value": 0.01186554, "n": 1}], "hex": "01000000015290f368de1919e13deeb6f6c571b1f293a38bca2ed5a37928f64c508952325b000000006a473044022063066e7986d3710dfd1900f693fabc47e2380236304c7971b812a5973e2cf15e0220046214a8cab8ba2dbb583fcec9223b9cc7cbef6af3310da716b63e75fbfd193701210382da63fbda585d96df9f6b58f4e6f73f1b4d339e850672163ccb9167e32aa046ffffffff023ac31814020000001976a914625001fff25716ca34009753dc51f91aa65cf2bb88acfa1a1200000000001976a91447c69315913e23a8ad99900835fd705e0eea6f2d88ac00000000", "vin": [{"sequence": 4294967295, "scriptSig": {"hex": "473044022063066e7986d3710dfd1900f693fabc47e2380236304c7971b812a5973e2cf15e0220046214a8cab8ba2dbb583fcec9223b9cc7cbef6af3310da716b63e75fbfd193701210382da63fbda585d96df9f6b58f4e6f73f1b4d339e850672163ccb9167e32aa046", "asm": "3044022063066e7986d3710dfd1900f693fabc47e2380236304c7971b812a5973e2cf15e0220046214a8cab8ba2dbb583fcec9223b9cc7cbef6af3310da716b63e75fbfd1937[ALL] 0382da63fbda585d96df9f6b58f4e6f73f1b4d339e850672163ccb9167e32aa046"}, "vout": 0, "txid": "5b325289504cf62879a3d52eca8ba393f2b171c5f6b6ee3de11919de68f39052"}], "txid": "7130417873b2f77f91cfae540d0478aaa5dceafc4e06e434e8e74e5ffbfe7fed", "blocktime": 1537870564, "version": 1, "confirmations": 11515, "time": 1537870564, "locktime": 0, "vsize": 225, "size": 225}