{"hash": "3cb2561d69977356c2e4c64f4f9772841c13eaf9a4859e457d1872068238e39f", "blockhash": "0000000000000000001cda96e906b7601b7a6fb1a3b62bca570a9e5d8f4b3de1", "vout": [{"scriptPubKey": {"reqSigs": 1, "hex": "a91413971855727b14bf57fe0b083f5a270aec3410b487", "addresses": ["33UbmTTKtdzQPQ2W1zvVPggz5AHiPh1xE8"], "asm": "OP_HASH160 13971855727b14bf57fe0b083f5a270aec3410b4 OP_EQUAL", "type": "scripthash"}, "value": 0.10009921, "n": 0}, {"scriptPubKey": {"reqSigs": 1, "hex": "0014f5d08aea145a4169a67f61302fd0fe266f4dff9f", "addresses": ["bc1q7hgg46s5tfqknfnlvyczl587yeh5mlulxkxsy4"], "asm": "0 f5d08aea145a4169a67f61302fd0fe266f4dff9f", "type": "witness_v0_keyhash"}, "value": 0.00126608, "n": 1}], "hex": "010000000001017ece7d55e72b494ed9e84bd026122d12c61e16e0333817b7a585ef558f05f7d00100000000ffffffff0241bd98000000000017a91413971855727b14bf57fe0b083f5a270aec3410b48790ee010000000000160014f5d08aea145a4169a67f61302fd0fe266f4dff9f02483045022100c79903a8d4b533ea904c6c73d2c32b4eebc1f0e19cf42fd111aad43982fe283e0220605a6756937a1bf91faddbc240efa287d0446904f8decdf25e2b3d8b63af65af0121025d877d4f972444983df7b58d7f869f530309a4c4bb17e2f19806c87d3c8fad5500000000", "vin": [{"txinwitness": ["3045022100c79903a8d4b533ea904c6c73d2c32b4eebc1f0e19cf42fd111aad43982fe283e0220605a6756937a1bf91faddbc240efa287d0446904f8decdf25e2b3d8b63af65af01", "025d877d4f972444983df7b58d7f869f530309a4c4bb17e2f19806c87d3c8fad55"], "sequence": 4294967295, "scriptSig": {"hex": "", "asm": ""}, "vout": 1, "txid": "d0f7058f55ef85a5b7173833e0161ec6122d1226d04be8d94e492be7557dce7e"}], "txid": "7131979b86404733b4e5e7ae1cee7daebdd4a1afe771ce160325a550278f1450", "blocktime": 1537873282, "version": 1, "confirmations": 11484, "time": 1537873282, "locktime": 0, "vsize": 142, "size": 224}