{"hash": "713b38894f3d536028becd5892c7579d4509332d2d8ff9cf0d9e6d10caad6bd6", "blockhash": "0000000000000000001cda96e906b7601b7a6fb1a3b62bca570a9e5d8f4b3de1", "vout": [{"scriptPubKey": {"type": "nulldata", "hex": "6a4c50000077d200012ce9c442b200aff379bfb7e25b23cc0f42c2fc38c5e5bf9ae76da98a211a673ac5ea5c8ec9686083e0aacbeee2815baa14c20613fff26d9e18174bbf23acfcfaac8058b692fe6808c31d", "asm": "OP_RETURN 000077d200012ce9c442b200aff379bfb7e25b23cc0f42c2fc38c5e5bf9ae76da98a211a673ac5ea5c8ec9686083e0aacbeee2815baa14c20613fff26d9e18174bbf23acfcfaac8058b692fe6808c31d"}, "value": 0.0, "n": 0}, {"scriptPubKey": {"reqSigs": 1, "hex": "76a9145e41f0e60a358164adb2d87185640b574e5dd0c488ac", "addresses": ["19bPWhEpv98Kozgp5oJ4TggyJ3Ku9YkvhA"], "asm": "OP_DUP OP_HASH160 5e41f0e60a358164adb2d87185640b574e5dd0c4 OP_EQUALVERIFY OP_CHECKSIG", "type": "pubkeyhash"}, "value": 0.00011575, "n": 1}], "hex": "0100000001d28489a8dada228cdb134f702cbbab1decb2d84b307da606cf4f79a201a32fd7010000006b483045022100d77e06e0619f5d63d4002b4a07df50763861feba9b25dceb2f619feab7645873022078476e2ca075ae8628b4298ecfceee91fccefb8071e4e9163f1c78e8d941e997012102e5484a0431a30f702386c63291bbf5dce1ab5b552e472bfe4058a10511071546ffffffff020000000000000000536a4c50000077d200012ce9c442b200aff379bfb7e25b23cc0f42c2fc38c5e5bf9ae76da98a211a673ac5ea5c8ec9686083e0aacbeee2815baa14c20613fff26d9e18174bbf23acfcfaac8058b692fe6808c31d372d0000000000001976a9145e41f0e60a358164adb2d87185640b574e5dd0c488ac00000000", "vin": [{"sequence": 4294967295, "scriptSig": {"hex": "483045022100d77e06e0619f5d63d4002b4a07df50763861feba9b25dceb2f619feab7645873022078476e2ca075ae8628b4298ecfceee91fccefb8071e4e9163f1c78e8d941e997012102e5484a0431a30f702386c63291bbf5dce1ab5b552e472bfe4058a10511071546", "asm": "3045022100d77e06e0619f5d63d4002b4a07df50763861feba9b25dceb2f619feab7645873022078476e2ca075ae8628b4298ecfceee91fccefb8071e4e9163f1c78e8d941e997[ALL] 02e5484a0431a30f702386c63291bbf5dce1ab5b552e472bfe4058a10511071546"}, "vout": 1, "txid": "d72fa301a2794fcf06a67d304bd8b2ec1dabbb2c704f13db8c22dadaa88984d2"}], "txid": "713b38894f3d536028becd5892c7579d4509332d2d8ff9cf0d9e6d10caad6bd6", "blocktime": 1537873282, "version": 1, "confirmations": 11484, "time": 1537873282, "locktime": 0, "vsize": 284, "size": 284}