{"hash": "7142af0b4493241e8366999c52b616c0d1c6492f31e210d3119e7cb332e656ae", "blockhash": "0000000000000000001cda96e906b7601b7a6fb1a3b62bca570a9e5d8f4b3de1", "vout": [{"scriptPubKey": {"reqSigs": 1, "hex": "76a91486bb387e3bf32e45d80601d13f18497092baf1ec88ac", "addresses": ["1DHPq2WA3qbDyWgfnSA9AzUNoWbxHu5Fpk"], "asm": "OP_DUP OP_HASH160 86bb387e3bf32e45d80601d13f18497092baf1ec OP_EQUALVERIFY OP_CHECKSIG", "type": "pubkeyhash"}, "value": 0.0015009, "n": 0}, {"scriptPubKey": {"reqSigs": 1, "hex": "76a91478d018d422379f160f31d70b142d4746b298b64d88ac", "addresses": ["1C1oNrQPe5C8mEeqEpLPWxRZhfhqQBhSDY"], "asm": "OP_DUP OP_HASH160 78d018d422379f160f31d70b142d4746b298b64d OP_EQUALVERIFY OP_CHECKSIG", "type": "pubkeyhash"}, "value": 0.124448, "n": 1}], "hex": "010000000549a0eaba1a80986f2d343464ae57610a90787d9d24cf9fb1c89ffa34bfdd9c04010000006a47304402205d466835294e116ea1920d574a35b4c8d25a0bbeadece4dd359bec607b5d88df0220162b6714e71844a25d5d890b75fb288edb49926f19f6864ee606df548d3e9619012103a6f662e4c27ed1db4c01e43343471e5a95e8e87dc7befd6d1a1e792605db74f0ffffffffe7da08d33adaedaf403b9a6662ef39ec73ca53b38ac4a88de6cf9e4b16249083010000006a4730440220097dc8fa50b5048d66bac2274d8130e4a2b2b1f0bf2ebc8c0d3ef5731d78f34a02203e534a920895d211b24e44b38cf588cbdc48bdea3a66969b28eee2bf69bd2a56012102a9f8e30c7d23982a047a491fc600ea87f11b7f92fc8adfad0502d20d8ce3e32dffffffff953e1ccb274325daba4b87cb5a37f2fe2075c09877a4f7903c969dfd2f4fe195010000006a473044022040f42b37782571383903bc3f225b27997df8e44917ef5818e828435ac3c0129402205c68323c4bbb37a93a1b7c9a85f5a2403175966a2d2e29faf14785f132efe644012103beceda9b8149ba7268122966d940ce7d4e638744d724282808cddbc4e67e95fcffffffff22b4a6d995b95d6ab5fb718904eae2b7e08cf2d11a25f4d7411b73a014e976d1010000006b48304502210083833ed3f43fe2f3ce7dc34b1209f4c4a3e4e47129b0fece07eb1a17fc516257022074658cc9813c5cc9c1674e223a02bdf28a2c9f54b201a7f7fffe52b0cc529db8012102a3299f093cf021e008d67090bab98af5868cd167a3498a49caf3535ec644d663ffffffffe23f0c27e07cc33b501d1c9955c8c1d09f3d9a692a038fb2cb5499b014004ce5010000006a47304402204f5d762dd128e0f2bf035a87b1dce29d9b339e03bb52300437e46c6a15bd7dd002206cafce7e7e0fc1e4d2ba0ca15984b78a385a4218456253405a1720c18c5282c3012103410951e0a430732d5175600d5bc61dae9970e840622a94bb5b5683f71b907c70ffffffff024a4a0200000000001976a91486bb387e3bf32e45d80601d13f18497092baf1ec88ac80e4bd00000000001976a91478d018d422379f160f31d70b142d4746b298b64d88ac00000000", "vin": [{"sequence": 4294967295, "scriptSig": {"hex": "47304402205d466835294e116ea1920d574a35b4c8d25a0bbeadece4dd359bec607b5d88df0220162b6714e71844a25d5d890b75fb288edb49926f19f6864ee606df548d3e9619012103a6f662e4c27ed1db4c01e43343471e5a95e8e87dc7befd6d1a1e792605db74f0", "asm": "304402205d466835294e116ea1920d574a35b4c8d25a0bbeadece4dd359bec607b5d88df0220162b6714e71844a25d5d890b75fb288edb49926f19f6864ee606df548d3e9619[ALL] 03a6f662e4c27ed1db4c01e43343471e5a95e8e87dc7befd6d1a1e792605db74f0"}, "vout": 1, "txid": "049cddbf34fa9fc8b19fcf249d7d78900a6157ae6434342d6f98801abaeaa049"}, {"sequence": 4294967295, "scriptSig": {"hex": "4730440220097dc8fa50b5048d66bac2274d8130e4a2b2b1f0bf2ebc8c0d3ef5731d78f34a02203e534a920895d211b24e44b38cf588cbdc48bdea3a66969b28eee2bf69bd2a56012102a9f8e30c7d23982a047a491fc600ea87f11b7f92fc8adfad0502d20d8ce3e32d", "asm": "30440220097dc8fa50b5048d66bac2274d8130e4a2b2b1f0bf2ebc8c0d3ef5731d78f34a02203e534a920895d211b24e44b38cf588cbdc48bdea3a66969b28eee2bf69bd2a56[ALL] 02a9f8e30c7d23982a047a491fc600ea87f11b7f92fc8adfad0502d20d8ce3e32d"}, "vout": 1, "txid": "839024164b9ecfe68da8c48ab353ca73ec39ef62669a3b40afedda3ad308dae7"}, {"sequence": 4294967295, "scriptSig": {"hex": "473044022040f42b37782571383903bc3f225b27997df8e44917ef5818e828435ac3c0129402205c68323c4bbb37a93a1b7c9a85f5a2403175966a2d2e29faf14785f132efe644012103beceda9b8149ba7268122966d940ce7d4e638744d724282808cddbc4e67e95fc", "asm": "3044022040f42b37782571383903bc3f225b27997df8e44917ef5818e828435ac3c0129402205c68323c4bbb37a93a1b7c9a85f5a2403175966a2d2e29faf14785f132efe644[ALL] 03beceda9b8149ba7268122966d940ce7d4e638744d724282808cddbc4e67e95fc"}, "vout": 1, "txid": "95e14f2ffd9d963c90f7a47798c07520fef2375acb874bbada254327cb1c3e95"}, {"sequence": 4294967295, "scriptSig": {"hex": "48304502210083833ed3f43fe2f3ce7dc34b1209f4c4a3e4e47129b0fece07eb1a17fc516257022074658cc9813c5cc9c1674e223a02bdf28a2c9f54b201a7f7fffe52b0cc529db8012102a3299f093cf021e008d67090bab98af5868cd167a3498a49caf3535ec644d663", "asm": "304502210083833ed3f43fe2f3ce7dc34b1209f4c4a3e4e47129b0fece07eb1a17fc516257022074658cc9813c5cc9c1674e223a02bdf28a2c9f54b201a7f7fffe52b0cc529db8[ALL] 02a3299f093cf021e008d67090bab98af5868cd167a3498a49caf3535ec644d663"}, "vout": 1, "txid": "d176e914a0731b41d7f4251ad1f28ce0b7e2ea048971fbb56a5db995d9a6b422"}, {"sequence": 4294967295, "scriptSig": {"hex": "47304402204f5d762dd128e0f2bf035a87b1dce29d9b339e03bb52300437e46c6a15bd7dd002206cafce7e7e0fc1e4d2ba0ca15984b78a385a4218456253405a1720c18c5282c3012103410951e0a430732d5175600d5bc61dae9970e840622a94bb5b5683f71b907c70", "asm": "304402204f5d762dd128e0f2bf035a87b1dce29d9b339e03bb52300437e46c6a15bd7dd002206cafce7e7e0fc1e4d2ba0ca15984b78a385a4218456253405a1720c18c5282c3[ALL] 03410951e0a430732d5175600d5bc61dae9970e840622a94bb5b5683f71b907c70"}, "vout": 1, "txid": "e54c0014b09954cbb28f032a699a3d9fd0c1c855991c1d503bc37ce0270c3fe2"}], "txid": "7142af0b4493241e8366999c52b616c0d1c6492f31e210d3119e7cb332e656ae", "blocktime": 1537873282, "version": 1, "confirmations": 11485, "time": 1537873282, "locktime": 0, "vsize": 814, "size": 814}