{"hash": "4f68cc2ad6b69ad89974bb5fcd60b0c862ff5a0a3115b5f9e22680c6588338d6", "blockhash": "000000000000000000022b45ed06c6f4ccd3cf7fb5ba4856ebd2e58215665228", "vout": [{"scriptPubKey": {"reqSigs": 1, "hex": "a914a90a638393683aca52b911b071d4185b207e948887", "addresses": ["3H6pZnTBc1cE9YnaBBxWs9S45zGJC7RStj"], "asm": "OP_HASH160 a90a638393683aca52b911b071d4185b207e9488 OP_EQUAL", "type": "scripthash"}, "value": 0.001444, "n": 0}], "hex": "01000000000103aa8a7c790fe0e34392390cbc84bb1f4bf3d060bb5287a28db644a797db9ccf9801000000171600148225fb7ba5db3a716c8088bee656d7fc3e5ed381fdffffff7fb959b49547811fef855e1162419a1e1c95ca613a0baf135d282856f3599b17000000001716001472ec489fd98e2ac434a68b185e6659da819aa0affdffffff9876fd2313d51e919b4fcaf015a52232340c370c9d99f25b4ce20bab6e423cf60200000017160014c7af90e913b72daab614af0c4e47b0ee6981f083fdffffff01103402000000000017a914a90a638393683aca52b911b071d4185b207e9488870247304402207557c5d363366ce4f6ef2387834aa91e32e0efa9e3df7daa321cc4ff225acefd022050f271187f059de6c4d4d5ecd0794c30d3b21d15390987a11b70aebe3e5e59220121037df11802029fa7f03a9555579dc3e4bb7507819a6145ca418878e4c2cb585d360247304402206670d0cbcd9ea726a1efcc780f89f3102714bbbc6b93ba0fd58b3d7ec9d47e840220442bf532c000b0bc4180ea824c007a73092c31859c7cc2adc434251b79abf21e012102b40ca7798ca925a20a61ee18138976dff70572d4067b0ab1845b9da85c2db21e0248304502210085fb6a7fb455f49eaa30dd278dd40554129143e6a680218b32ba8f7b6fd926f8022023cd7b9ef5d8e956cf38eb5f5493989a8f45cd0ae5d5da077c1672c200d265d701210315e5d52925ec4962b6032070e44009431bd0e09b95637947d183ceb49a3d91860b490800", "vin": [{"txinwitness": ["304402207557c5d363366ce4f6ef2387834aa91e32e0efa9e3df7daa321cc4ff225acefd022050f271187f059de6c4d4d5ecd0794c30d3b21d15390987a11b70aebe3e5e592201", "037df11802029fa7f03a9555579dc3e4bb7507819a6145ca418878e4c2cb585d36"], "sequence": 4294967293, "scriptSig": {"hex": "1600148225fb7ba5db3a716c8088bee656d7fc3e5ed381", "asm": "00148225fb7ba5db3a716c8088bee656d7fc3e5ed381"}, "vout": 1, "txid": "98cf9cdb97a744b68da28752bb60d0f34b1fbb84bc0c399243e3e00f797c8aaa"}, {"txinwitness": ["304402206670d0cbcd9ea726a1efcc780f89f3102714bbbc6b93ba0fd58b3d7ec9d47e840220442bf532c000b0bc4180ea824c007a73092c31859c7cc2adc434251b79abf21e01", "02b40ca7798ca925a20a61ee18138976dff70572d4067b0ab1845b9da85c2db21e"], "sequence": 4294967293, "scriptSig": {"hex": "16001472ec489fd98e2ac434a68b185e6659da819aa0af", "asm": "001472ec489fd98e2ac434a68b185e6659da819aa0af"}, "vout": 0, "txid": "179b59f35628285d13af0b3a61ca951c1e9a4162115e85ef1f814795b459b97f"}, {"txinwitness": ["304502210085fb6a7fb455f49eaa30dd278dd40554129143e6a680218b32ba8f7b6fd926f8022023cd7b9ef5d8e956cf38eb5f5493989a8f45cd0ae5d5da077c1672c200d265d701", "0315e5d52925ec4962b6032070e44009431bd0e09b95637947d183ceb49a3d9186"], "sequence": 4294967293, "scriptSig": {"hex": "160014c7af90e913b72daab614af0c4e47b0ee6981f083", "asm": "0014c7af90e913b72daab614af0c4e47b0ee6981f083"}, "vout": 2, "txid": "f63c426eab0be24c5bf2999d0c370c343222a515f0ca4f9b911ed51323fd7698"}], "txid": "7143740bca1ed7ce6f3cc5a2c6142a18d6064d90d634cbb59a2415417d1302e5", "blocktime": 1537869901, "version": 1, "confirmations": 11524, "time": 1537869901, "locktime": 542987, "vsize": 315, "size": 558}