{"hash": "eb7fb095a2e8b6b233e6a4038184a5aafe478648702ab57478bee131953dbb8a", "blockhash": "0000000000000000001e0dab787dd257d1dbfcb92a98c2207d5e1078be1f4165", "vout": [{"scriptPubKey": {"reqSigs": 1, "hex": "76a914f25ea2ec6a7d1c6a5ae9cf7fe0e95af83ad1e3e388ac", "addresses": ["1P6XtsrCMRXbfVkji1fzjkTYL8S6ikZVoj"], "asm": "OP_DUP OP_HASH160 f25ea2ec6a7d1c6a5ae9cf7fe0e95af83ad1e3e3 OP_EQUALVERIFY OP_CHECKSIG", "type": "pubkeyhash"}, "value": 0.00021, "n": 0}, {"scriptPubKey": {"reqSigs": 1, "hex": "a914f56f3e5305b2d94e93b5c30b1a672c3b6da08b9587", "addresses": ["3Q4kjsakEfK7RrXXu34bBbyMWTaZr2773K"], "asm": "OP_HASH160 f56f3e5305b2d94e93b5c30b1a672c3b6da08b95 OP_EQUAL", "type": "scripthash"}, "value": 0.07254215, "n": 1}], "hex": "010000000001019c224ba22c568a270ce6586a3d17c8ab5765f582a1e2e30e0913763317a7a4030100000023220020e941818309f4d5b451f51480d8c5be28066711fb11316ae768c7f739b2438cf4ffffffff0208520000000000001976a914f25ea2ec6a7d1c6a5ae9cf7fe0e95af83ad1e3e388acc7b06e000000000017a914f56f3e5305b2d94e93b5c30b1a672c3b6da08b958704004730440220219577b5c0440725ffb80a00324c98a1573a799e6125652bd569dfed4b4339e602201baf53f7d3fe5e9ef2fc82574dbe7daf0d8d4d39ed96d664cba8260c4f7afb51014830450221009a6a75983a86380cc86ba301d44143d180ecc0164b47132897fcf7ea9fe9b7a90220254985a51271bf2d56921104a602d9c07d66e577e01a59249eddff1de4d69beb0147522103faa541d8d0a70781f6305efd2426b894ad12a66b1cd5e593deda1804412b28fa2103ed050e681225d930a5e8a238b0045afdb024630315a2e4899bec00b073a718c952ae00000000", "vin": [{"txinwitness": ["", "30440220219577b5c0440725ffb80a00324c98a1573a799e6125652bd569dfed4b4339e602201baf53f7d3fe5e9ef2fc82574dbe7daf0d8d4d39ed96d664cba8260c4f7afb5101", "30450221009a6a75983a86380cc86ba301d44143d180ecc0164b47132897fcf7ea9fe9b7a90220254985a51271bf2d56921104a602d9c07d66e577e01a59249eddff1de4d69beb01", "522103faa541d8d0a70781f6305efd2426b894ad12a66b1cd5e593deda1804412b28fa2103ed050e681225d930a5e8a238b0045afdb024630315a2e4899bec00b073a718c952ae"], "sequence": 4294967295, "scriptSig": {"hex": "220020e941818309f4d5b451f51480d8c5be28066711fb11316ae768c7f739b2438cf4", "asm": "0020e941818309f4d5b451f51480d8c5be28066711fb11316ae768c7f739b2438cf4"}, "vout": 1, "txid": "03a4a717337613090ee3e2a182f56557abc8173d6a58e60c278a562ca24b229c"}], "txid": "714a152b398caa1940ae9d3ad6552fe0a7bf2058784cfdc3cfc3caeeed63f069", "blocktime": 1537872475, "version": 1, "confirmations": 11487, "time": 1537872475, "locktime": 0, "vsize": 208, "size": 373}