{"hash": "715097aaa227705b2813bf8f76b32e0952754a41e5762fc20a2175767c1f7991", "blockhash": "0000000000000000000e13cef7c366c0283d82e591d1acd082e914b08063cdf1", "vout": [{"scriptPubKey": {"reqSigs": 1, "hex": "a914ca35e841a10fb0b4ac86d2ca82365d5c7e2dc84587", "addresses": ["3L8CzqPASKAZJivkbcZAE86wjVmfSNEdts"], "asm": "OP_HASH160 ca35e841a10fb0b4ac86d2ca82365d5c7e2dc845 OP_EQUAL", "type": "scripthash"}, "value": 1.74e-05, "n": 0}], "hex": "0100000001b7ad33cc3ba552348136d3154dd19d51a8c7bd3390da380e3cafd1fa797b7385250900006a473044022035bdf6fbfdca9f5420b43a919d45364a27af12722fdec440ffb1c51c04ca13f802201848c5264c10db971cbf322394244e7b5a1cc860daf65ac876ed4fa1353f12bf012102e36cec5e5b615d38724aa788650a4b2e4e176e6d5ceff9aa0a57b5760adc903cffffffff01cc0600000000000017a914ca35e841a10fb0b4ac86d2ca82365d5c7e2dc8458700000000", "vin": [{"sequence": 4294967295, "scriptSig": {"hex": "473044022035bdf6fbfdca9f5420b43a919d45364a27af12722fdec440ffb1c51c04ca13f802201848c5264c10db971cbf322394244e7b5a1cc860daf65ac876ed4fa1353f12bf012102e36cec5e5b615d38724aa788650a4b2e4e176e6d5ceff9aa0a57b5760adc903c", "asm": "3044022035bdf6fbfdca9f5420b43a919d45364a27af12722fdec440ffb1c51c04ca13f802201848c5264c10db971cbf322394244e7b5a1cc860daf65ac876ed4fa1353f12bf[ALL] 02e36cec5e5b615d38724aa788650a4b2e4e176e6d5ceff9aa0a57b5760adc903c"}, "vout": 2341, "txid": "85737b79fad1af3c0e38da9033bdc7a8519dd14d15d336813452a53bcc33adb7"}], "txid": "715097aaa227705b2813bf8f76b32e0952754a41e5762fc20a2175767c1f7991", "blocktime": 1537871767, "version": 1, "confirmations": 11495, "time": 1537871767, "locktime": 0, "vsize": 189, "size": 189}