{"hash": "715334dda29c2a0be3f839fa0e7a28aadff6fe7cbfa0caaf8c9532abac2dbb18", "blockhash": "000000000000000000022b45ed06c6f4ccd3cf7fb5ba4856ebd2e58215665228", "vout": [{"scriptPubKey": {"reqSigs": 1, "hex": "76a9142e1a008dc11b872284b4512d3724252db5ac432488ac", "addresses": ["15CmEVCS9PrXPVBJch7HiPRaLAmnpAkSWN"], "asm": "OP_DUP OP_HASH160 2e1a008dc11b872284b4512d3724252db5ac4324 OP_EQUALVERIFY OP_CHECKSIG", "type": "pubkeyhash"}, "value": 0.851, "n": 0}, {"scriptPubKey": {"reqSigs": 1, "hex": "76a9146a7d4cc9353f81e7915703b41ccd367ef567eabc88ac", "addresses": ["1Ai4jKxVvCHSbAidWqKNMgeFvRAcerRCe6"], "asm": "OP_DUP OP_HASH160 6a7d4cc9353f81e7915703b41ccd367ef567eabc OP_EQUALVERIFY OP_CHECKSIG", "type": "pubkeyhash"}, "value": 0.01014857, "n": 1}], "hex": "0100000003977de3efc34ef7e488bd4dbd7df0c29ca8f2f2d50cdbf66132eff1815392b73f010000006b48304502210080047596d5efba7b22ae1911c5d70538fad8e9aaea19239adfcf10d30a4dbeef02202c8669979c4532fa6259b62535e014e3f8958a6a334b06dad9eadcba372243cd01210251a98863b845c7e0519e6ef278cbc65f6f31a91a80f8fa2880d2102329fdcc9bfeffffff802366d138c93316d1d3f518cfe72628b1644be26bf69ca9c07195bfbdc01b7a000000006b483045022100da0a8125504ba2fcfe45a51399bcc3a6661316e74557152a10ec12e4f7864d1902204346f8ab68f7faac3ee084a10df4c68e355141ecdbf76d8cfdec561fe6c8e1e10121026018b0b837f53f1584b89651e1ab51d493182b60489d4d49f31f590753980cdffeffffff3871573bf46ee2fa17be6991a04ff13c23eb2459616cfe805f18b04e1b5baf96010000006a473044022059ed210a6f5ebdd49ac55f707857a8a3bfe49ec4471d0869fb38c709b9ecd8b302202c75bf15b7448188a92aac6fd12af96695c6585b88a3ca47b2cf45af658b025601210231c9dfed25a6ebe44bed05a01760c506de4f464e826ce5cbb6ffc0d5f2b79313feffffff02e0851205000000001976a9142e1a008dc11b872284b4512d3724252db5ac432488ac497c0f00000000001976a9146a7d4cc9353f81e7915703b41ccd367ef567eabc88ac0b490800", "vin": [{"sequence": 4294967294, "scriptSig": {"hex": "48304502210080047596d5efba7b22ae1911c5d70538fad8e9aaea19239adfcf10d30a4dbeef02202c8669979c4532fa6259b62535e014e3f8958a6a334b06dad9eadcba372243cd01210251a98863b845c7e0519e6ef278cbc65f6f31a91a80f8fa2880d2102329fdcc9b", "asm": "304502210080047596d5efba7b22ae1911c5d70538fad8e9aaea19239adfcf10d30a4dbeef02202c8669979c4532fa6259b62535e014e3f8958a6a334b06dad9eadcba372243cd[ALL] 0251a98863b845c7e0519e6ef278cbc65f6f31a91a80f8fa2880d2102329fdcc9b"}, "vout": 1, "txid": "3fb7925381f1ef3261f6db0cd5f2f2a89cc2f07dbd4dbd88e4f74ec3efe37d97"}, {"sequence": 4294967294, "scriptSig": {"hex": "483045022100da0a8125504ba2fcfe45a51399bcc3a6661316e74557152a10ec12e4f7864d1902204346f8ab68f7faac3ee084a10df4c68e355141ecdbf76d8cfdec561fe6c8e1e10121026018b0b837f53f1584b89651e1ab51d493182b60489d4d49f31f590753980cdf", "asm": "3045022100da0a8125504ba2fcfe45a51399bcc3a6661316e74557152a10ec12e4f7864d1902204346f8ab68f7faac3ee084a10df4c68e355141ecdbf76d8cfdec561fe6c8e1e1[ALL] 026018b0b837f53f1584b89651e1ab51d493182b60489d4d49f31f590753980cdf"}, "vout": 0, "txid": "7a1bc0bdbf9571c0a99cf66be24b64b12826e7cf18f5d3d11633c938d1662380"}, {"sequence": 4294967294, "scriptSig": {"hex": "473044022059ed210a6f5ebdd49ac55f707857a8a3bfe49ec4471d0869fb38c709b9ecd8b302202c75bf15b7448188a92aac6fd12af96695c6585b88a3ca47b2cf45af658b025601210231c9dfed25a6ebe44bed05a01760c506de4f464e826ce5cbb6ffc0d5f2b79313", "asm": "3044022059ed210a6f5ebdd49ac55f707857a8a3bfe49ec4471d0869fb38c709b9ecd8b302202c75bf15b7448188a92aac6fd12af96695c6585b88a3ca47b2cf45af658b0256[ALL] 0231c9dfed25a6ebe44bed05a01760c506de4f464e826ce5cbb6ffc0d5f2b79313"}, "vout": 1, "txid": "96af5b1b4eb0185f80fe6c615924eb233cf14fa09169be17fae26ef43b577138"}], "txid": "715334dda29c2a0be3f839fa0e7a28aadff6fe7cbfa0caaf8c9532abac2dbb18", "blocktime": 1537869901, "version": 1, "confirmations": 11522, "time": 1537869901, "locktime": 542987, "vsize": 521, "size": 521}