{"hash": "84acd7a585f68cd11b596463134b47691a85eff1587886e60444a6fc8287d918", "blockhash": "0000000000000000001cda96e906b7601b7a6fb1a3b62bca570a9e5d8f4b3de1", "vout": [{"scriptPubKey": {"reqSigs": 1, "hex": "a9147c57056862d2c7af09521aa75f46c6fbd568e10587", "addresses": ["3D2TxfVNrDcJbwRmJiv1DJA6Te67thvFbG"], "asm": "OP_HASH160 7c57056862d2c7af09521aa75f46c6fbd568e105 OP_EQUAL", "type": "scripthash"}, "value": 0.08458042, "n": 0}, {"scriptPubKey": {"reqSigs": 1, "hex": "00141b2798db77127cb2eb9efafc200f523daa4a1b2a", "addresses": ["bc1qrvne3kmhzf7t96u7lt7zqr6j8k4y5xe2wz9shp"], "asm": "0 1b2798db77127cb2eb9efafc200f523daa4a1b2a", "type": "witness_v0_keyhash"}, "value": 0.00314177, "n": 1}], "hex": "01000000000101028593080687be1b6d51ce1c165aed7545b9f9a793d52e5fa63afa43c361b9fb5b0000001716001486e670414dd01d539a8e12ebc68147e83d0deba1ffffffff023a0f81000000000017a9147c57056862d2c7af09521aa75f46c6fbd568e1058741cb0400000000001600141b2798db77127cb2eb9efafc200f523daa4a1b2a02483045022100dbf729b36179672f9a7452b70232812b569e0c60bb65c573c5911c38b71fe1de0220259debe94610b1ab2ada03d348d0d09a0b7f6bffbea40e50a1dc0fb11f53360901210228095e22c3bb02703f8be2bc0ea93a448ca14a910b0ab0357e0a4f50558fc48000000000", "vin": [{"txinwitness": ["3045022100dbf729b36179672f9a7452b70232812b569e0c60bb65c573c5911c38b71fe1de0220259debe94610b1ab2ada03d348d0d09a0b7f6bffbea40e50a1dc0fb11f53360901", "0228095e22c3bb02703f8be2bc0ea93a448ca14a910b0ab0357e0a4f50558fc480"], "sequence": 4294967295, "scriptSig": {"hex": "16001486e670414dd01d539a8e12ebc68147e83d0deba1", "asm": "001486e670414dd01d539a8e12ebc68147e83d0deba1"}, "vout": 91, "txid": "fbb961c343fa3aa65f2ed593a7f9b94575ed5a161cce516d1bbe870608938502"}], "txid": "71547d8ba499a80bc4dac4e0fc7fcaee7df93b68d8eff4f693721d67ce921672", "blocktime": 1537873282, "version": 1, "confirmations": 11484, "time": 1537873282, "locktime": 0, "vsize": 165, "size": 247}