{"hash": "9bf83c5358cfa38791f5cd38cc8c8a88e577ff1740d10f8845d00f79c1bb5c25", "blockhash": "0000000000000000001cda96e906b7601b7a6fb1a3b62bca570a9e5d8f4b3de1", "vout": [{"scriptPubKey": {"reqSigs": 1, "hex": "a914b6b8aefaa0ea4eb170eb610e377224ce3c2386c387", "addresses": ["3JMA9VWBXcXvTN8yJoVW1pyEJqNS3mfkan"], "asm": "OP_HASH160 b6b8aefaa0ea4eb170eb610e377224ce3c2386c3 OP_EQUAL", "type": "scripthash"}, "value": 0.28848783, "n": 0}, {"scriptPubKey": {"reqSigs": 1, "hex": "76a9149313937c915675fd705c0d9f396d71029b002f8888ac", "addresses": ["1EQfnNZQAMdfNm5YNBDAT2VH2FABM9Raha"], "asm": "OP_DUP OP_HASH160 9313937c915675fd705c0d9f396d71029b002f88 OP_EQUALVERIFY OP_CHECKSIG", "type": "pubkeyhash"}, "value": 0.02204369, "n": 1}], "hex": "02000000000101ba8af2da5dafb095cd36bfa04e87e1038f279f44f3274ae8b5cef56f8d345b3f0100000017160014214001719696e5b0b9a649c18f4ebc4f92f119b8feffffff028f32b8010000000017a914b6b8aefaa0ea4eb170eb610e377224ce3c2386c387d1a22100000000001976a9149313937c915675fd705c0d9f396d71029b002f8888ac02473044022021da1d72191d443a61a8cf716399801934d049dd4b957a8602452c6feb5b4bea02207816c3d989b640a3f16fc5f59b0a400bca8853229dd9bbb6f755aaebdac3a2290121025ba90385fda49fc434324db99dffa756606d037b10bb1c8cd08a9bc8ae020f3d13490800", "vin": [{"txinwitness": ["3044022021da1d72191d443a61a8cf716399801934d049dd4b957a8602452c6feb5b4bea02207816c3d989b640a3f16fc5f59b0a400bca8853229dd9bbb6f755aaebdac3a22901", "025ba90385fda49fc434324db99dffa756606d037b10bb1c8cd08a9bc8ae020f3d"], "sequence": 4294967294, "scriptSig": {"hex": "160014214001719696e5b0b9a649c18f4ebc4f92f119b8", "asm": "0014214001719696e5b0b9a649c18f4ebc4f92f119b8"}, "vout": 1, "txid": "3f5b348d6ff5ceb5e84a27f3449f278f03e1874ea0bf36cd95b0af5ddaf28aba"}], "txid": "715eb8995b4af9c1c74a891709aa564f17cfed4b52e08b5c1a857e94f0102b1d", "blocktime": 1537873282, "version": 2, "confirmations": 11480, "time": 1537873282, "locktime": 542995, "vsize": 168, "size": 249}