{"hash": "715e9f002448c04f810b545514ed5862731ef82a99b225d230d64d28b3f1ede0", "blockhash": "0000000000000000000e13cef7c366c0283d82e591d1acd082e914b08063cdf1", "vout": [{"scriptPubKey": {"reqSigs": 1, "hex": "76a9140e33e6989b0e3680a131f3c2758c910f71598fdc88ac", "addresses": ["12J6dpDYLtjg1q1Jf4zJD8osCAyuLG1V1x"], "asm": "OP_DUP OP_HASH160 0e33e6989b0e3680a131f3c2758c910f71598fdc OP_EQUALVERIFY OP_CHECKSIG", "type": "pubkeyhash"}, "value": 2.873e-05, "n": 0}, {"scriptPubKey": {"reqSigs": 1, "hex": "76a91401fec565de8bae7491c3bbc5ed20e2b8fa3c313d88ac", "addresses": ["1BYszqZikXM45dFX6MEvqFzBSbhY7MKoL"], "asm": "OP_DUP OP_HASH160 01fec565de8bae7491c3bbc5ed20e2b8fa3c313d OP_EQUALVERIFY OP_CHECKSIG", "type": "pubkeyhash"}, "value": 0.06265282, "n": 1}], "hex": "0100000001bc7875773c89f99a5e704e93d3fadb050f3826072e7b15050e0c6ef8fc77f8ac000000006a47304402200120695d3aa7bd7748434a8e17aab477e26a7775e84acfc09db1b8c792f3e4810220339c8e12876ef94ff3d82a2fc5a0bd5c5431d4926c4c49b0ac90ee86ec4b563601210245893e24bb48c3163642b7d69e45646bce891fe4e4b4ad0899d28788d9ad895affffffff02390b0000000000001976a9140e33e6989b0e3680a131f3c2758c910f71598fdc88acc2995f00000000001976a91401fec565de8bae7491c3bbc5ed20e2b8fa3c313d88ac00000000", "vin": [{"sequence": 4294967295, "scriptSig": {"hex": "47304402200120695d3aa7bd7748434a8e17aab477e26a7775e84acfc09db1b8c792f3e4810220339c8e12876ef94ff3d82a2fc5a0bd5c5431d4926c4c49b0ac90ee86ec4b563601210245893e24bb48c3163642b7d69e45646bce891fe4e4b4ad0899d28788d9ad895a", "asm": "304402200120695d3aa7bd7748434a8e17aab477e26a7775e84acfc09db1b8c792f3e4810220339c8e12876ef94ff3d82a2fc5a0bd5c5431d4926c4c49b0ac90ee86ec4b5636[ALL] 0245893e24bb48c3163642b7d69e45646bce891fe4e4b4ad0899d28788d9ad895a"}, "vout": 0, "txid": "acf877fcf86e0c0e05157b2e0726380f05dbfad3934e705e9af9893c777578bc"}], "txid": "715e9f002448c04f810b545514ed5862731ef82a99b225d230d64d28b3f1ede0", "blocktime": 1537871767, "version": 1, "confirmations": 11495, "time": 1537871767, "locktime": 0, "vsize": 225, "size": 225}