{"hash": "bb2d08958c49a2c75c1b11b1ecb41a5b4c0798db500bcc61876077865ae31fb3", "blockhash": "0000000000000000000e13cef7c366c0283d82e591d1acd082e914b08063cdf1", "vout": [{"scriptPubKey": {"reqSigs": 1, "hex": "a91430fe26c435cd605ebf50030e97b4f5909524583987", "addresses": ["36A4pW7APS3Y8vRYGt3Z3DHhqeRCKyv6fL"], "asm": "OP_HASH160 30fe26c435cd605ebf50030e97b4f59095245839 OP_EQUAL", "type": "scripthash"}, "value": 1.35312693, "n": 0}, {"scriptPubKey": {"reqSigs": 1, "hex": "76a9140a0b4c506723c8524c972489ea4e8ca7020dca0e88ac", "addresses": ["1v7HvbxAfwSuLbNFtHNErJHRTT6KmR4MK"], "asm": "OP_DUP OP_HASH160 0a0b4c506723c8524c972489ea4e8ca7020dca0e OP_EQUALVERIFY OP_CHECKSIG", "type": "pubkeyhash"}, "value": 0.056, "n": 1}], "hex": "02000000000101f362ecd71864f156917bb01bd7d4f45933db1a4dd2ae08e663ae69fb217114570100000017160014fc6521d56497abc66b18baafd0c5c5ef11002fcaffffffff0235b510080000000017a91430fe26c435cd605ebf50030e97b4f590952458398700735500000000001976a9140a0b4c506723c8524c972489ea4e8ca7020dca0e88ac02483045022100b98f2279928a8781b512899b6f3b37ee2d3abb8d65102139ff138662a9ee82a60220615bc05586914db43e1925943af91ec64984616fdc80659f4418115daf315c10012102d5a0da10a163341f5f1c30e4e6e6df75dca300a4f2390b67584464403d37fb0500000000", "vin": [{"txinwitness": ["3045022100b98f2279928a8781b512899b6f3b37ee2d3abb8d65102139ff138662a9ee82a60220615bc05586914db43e1925943af91ec64984616fdc80659f4418115daf315c1001", "02d5a0da10a163341f5f1c30e4e6e6df75dca300a4f2390b67584464403d37fb05"], "sequence": 4294967295, "scriptSig": {"hex": "160014fc6521d56497abc66b18baafd0c5c5ef11002fca", "asm": "0014fc6521d56497abc66b18baafd0c5c5ef11002fca"}, "vout": 1, "txid": "57147121fb69ae63e608aed24d1adb3359f4d4d71bb07b9156f16418d7ec62f3"}], "txid": "715eccd33dc08bdb493057bd75d16cbf4b8c66b11b306d4ab1b0d23d6a020f7c", "blocktime": 1537871767, "version": 2, "confirmations": 11493, "time": 1537871767, "locktime": 0, "vsize": 168, "size": 250}