{"hash": "941283cd090e6c25272ba78d6884fdefc94cf1ffa81cb9a2ed673721467b15fa", "blockhash": "0000000000000000000dcc0f55137456b1a82d3642486a52398922ac4d620174", "vout": [{"scriptPubKey": {"reqSigs": 1, "hex": "76a914be225b8312b8004ac98c918abbca90d7e0b1b7a288ac", "addresses": ["1JLLYeW2dVd6iSSEPV5a8vc3kFb9jYSSJn"], "asm": "OP_DUP OP_HASH160 be225b8312b8004ac98c918abbca90d7e0b1b7a2 OP_EQUALVERIFY OP_CHECKSIG", "type": "pubkeyhash"}, "value": 0.00033134, "n": 0}, {"scriptPubKey": {"reqSigs": 1, "hex": "a9141988a27e3c2df4ddee7fad5a2303d086179b2a3087", "addresses": ["3422VtS7UtCvXYxoXMVp6eZupR252z85oC"], "asm": "OP_HASH160 1988a27e3c2df4ddee7fad5a2303d086179b2a30 OP_EQUAL", "type": "scripthash"}, "value": 0.0897039, "n": 1}], "hex": "010000000001018012452963fff8e45fa6ff749a18ee79b0542bf9e8619f7e074cfc2321867f16010000002322002065d416c48a8072e0ac51c2d111eb194f009caef0332446c1bf2097316cf07fa9ffffffff026e810000000000001976a914be225b8312b8004ac98c918abbca90d7e0b1b7a288ac96e088000000000017a9141988a27e3c2df4ddee7fad5a2303d086179b2a30870400483045022100a5ee18deee215664fa02b704c2bf8f16740eaa4c153969481a429e4e578319e302201c24fff146b0f5a53e718f005fa40c7034ec452a81b17f073ce1c1ca5023fe0901483045022100ca62665139d0a4043352b1020fc327ba511e52b8307ac02d766608f7097c7be702202fcffe4a5a7d292408a720de0e5eee864c8842cf2e69d45be169bdcf51ae78a60169522102f44abcf9e23c9a460da309ccca56c619c04eed3bde2c2cff5e7d78fbcd980b9c2103c9443cf3047bb6c2c82f1b0c44c36109cdc3d0d601d16d1189a1602bf8d1a0a02103bfe867059274412412e088af5572b92168c2ef495cfe6c9b7a753a009eb37c4853ae00000000", "vin": [{"txinwitness": ["", "3045022100a5ee18deee215664fa02b704c2bf8f16740eaa4c153969481a429e4e578319e302201c24fff146b0f5a53e718f005fa40c7034ec452a81b17f073ce1c1ca5023fe0901", "3045022100ca62665139d0a4043352b1020fc327ba511e52b8307ac02d766608f7097c7be702202fcffe4a5a7d292408a720de0e5eee864c8842cf2e69d45be169bdcf51ae78a601", "522102f44abcf9e23c9a460da309ccca56c619c04eed3bde2c2cff5e7d78fbcd980b9c2103c9443cf3047bb6c2c82f1b0c44c36109cdc3d0d601d16d1189a1602bf8d1a0a02103bfe867059274412412e088af5572b92168c2ef495cfe6c9b7a753a009eb37c4853ae"], "sequence": 4294967295, "scriptSig": {"hex": "22002065d416c48a8072e0ac51c2d111eb194f009caef0332446c1bf2097316cf07fa9", "asm": "002065d416c48a8072e0ac51c2d111eb194f009caef0332446c1bf2097316cf07fa9"}, "vout": 1, "txid": "167f862123fc4c077e9f61e8f92b54b079ee189a74ffa65fe4f8ff6329451280"}], "txid": "71618e76cd98a61c7222063e3c9e9582055cce25da92e2b851af546f5fe86e40", "blocktime": 1537870268, "version": 1, "confirmations": 11516, "time": 1537870268, "locktime": 0, "vsize": 216, "size": 408}