{"hash": "7a1ba31437c26473c503c9ca6a37541873d18d37a17d3246cd26c44b1be4e269", "blockhash": "000000000000000000022b45ed06c6f4ccd3cf7fb5ba4856ebd2e58215665228", "vout": [{"scriptPubKey": {"reqSigs": 1, "hex": "a9148275b24dfc504c82207cd4b7189c100bdf184e0287", "addresses": ["3DapmBHG9RocBWASqerKYN4wTd3gBnUeS5"], "asm": "OP_HASH160 8275b24dfc504c82207cd4b7189c100bdf184e02 OP_EQUAL", "type": "scripthash"}, "value": 0.0342842, "n": 0}, {"scriptPubKey": {"reqSigs": 1, "hex": "a9146f05660753f9d3aa0f417bc4363f1234d1387b3587", "addresses": ["3Bp3PwAdM7Qd8bsFdNBt6kqM9vPiKNvTkV"], "asm": "OP_HASH160 6f05660753f9d3aa0f417bc4363f1234d1387b35 OP_EQUAL", "type": "scripthash"}, "value": 0.0023953, "n": 1}], "hex": "020000000001015472a8ee8ba23af4ea6125ef33aa65072daeb09df7d7655984508ea5c7ead015000000001716001423ef264ceb1568bbf63478fe9a501e1fc5730adcfdffffff02445034000000000017a9148275b24dfc504c82207cd4b7189c100bdf184e0287aaa703000000000017a9146f05660753f9d3aa0f417bc4363f1234d1387b358702483045022100eec8114bcf0d4bd91b34aac55e8469a21a9b75ac2e83070c56e8b229b8640ac8022004ab2b1318c5c741e19dc3cc52d68e0c10a81fe65f4eef3c8525ec36d971d545012103b444b30c61ad004e1a0d53b03bf3cd2d584f7206390ef050bec0379bb87ddce00b490800", "vin": [{"txinwitness": ["3045022100eec8114bcf0d4bd91b34aac55e8469a21a9b75ac2e83070c56e8b229b8640ac8022004ab2b1318c5c741e19dc3cc52d68e0c10a81fe65f4eef3c8525ec36d971d54501", "03b444b30c61ad004e1a0d53b03bf3cd2d584f7206390ef050bec0379bb87ddce0"], "sequence": 4294967293, "scriptSig": {"hex": "16001423ef264ceb1568bbf63478fe9a501e1fc5730adc", "asm": "001423ef264ceb1568bbf63478fe9a501e1fc5730adc"}, "vout": 0, "txid": "15d0eac7a58e50845965d7f79db0ae2d0765aa33ef2561eaf43aa28beea87254"}], "txid": "7164978ef1379cfe5aa84338dd8392dadc141f36cb9e502b5c5b4a1cd21fa494", "blocktime": 1537869901, "version": 2, "confirmations": 11524, "time": 1537869901, "locktime": 542987, "vsize": 166, "size": 248}