{"hash": "71653f95b751f43c110b6cdf6e8775b33a444739199ef6a2017584b51e15596f", "blockhash": "0000000000000000001f0ddff1eddb255c1121bcd4da4f1bc9a0da00cae72433", "vout": [{"scriptPubKey": {"reqSigs": 1, "hex": "76a914fa0692278afe508514b5ffee8fe5e97732ce066988ac", "addresses": ["1Po1oWkD2LmodfkBYiAktwh76vkF93LKnh"], "asm": "OP_DUP OP_HASH160 fa0692278afe508514b5ffee8fe5e97732ce0669 OP_EQUALVERIFY OP_CHECKSIG", "type": "pubkeyhash"}, "value": 2.184e-05, "n": 0}, {"scriptPubKey": {"type": "nulldata", "hex": "6a146f6d6e69000000000000001f0000003a1fcd3345", "asm": "OP_RETURN 6f6d6e69000000000000001f0000003a1fcd3345"}, "value": 0.0, "n": 1}, {"scriptPubKey": {"reqSigs": 1, "hex": "76a914b615d7e03d1835906a7287a2c206e24e6c37eb1688ac", "addresses": ["1Hbn9cNSKZCn4da3fr4uZLBX9FDM4bB1PA"], "asm": "OP_DUP OP_HASH160 b615d7e03d1835906a7287a2c206e24e6c37eb16 OP_EQUALVERIFY OP_CHECKSIG", "type": "pubkeyhash"}, "value": 5.46e-06, "n": 2}], "hex": "010000000160188ae2e89a6f7ee5925756b57031d2333bb4c3afeaabe85e936278213e6fa7e30000008b483045022100f01b090cac01a6de51a43a6963460ed099722f57c7d7f0aca93fd25572cf443e02204b1a68e9d7987d8720351b49e0d0e2e754e1f9e4f5380b8602a4f10a6fddafc7014104fcf07bb1222f7925f2b7cc15183a40443c578e62ea17100aa3b44ba66905c95d4980aec4cd2f6eb426d1b1ec45d76724f26901099416b9265b76ba67c8b0b73dffffffff0388080000000000001976a914fa0692278afe508514b5ffee8fe5e97732ce066988ac0000000000000000166a146f6d6e69000000000000001f0000003a1fcd334522020000000000001976a914b615d7e03d1835906a7287a2c206e24e6c37eb1688ac00000000", "vin": [{"sequence": 4294967295, "scriptSig": {"hex": "483045022100f01b090cac01a6de51a43a6963460ed099722f57c7d7f0aca93fd25572cf443e02204b1a68e9d7987d8720351b49e0d0e2e754e1f9e4f5380b8602a4f10a6fddafc7014104fcf07bb1222f7925f2b7cc15183a40443c578e62ea17100aa3b44ba66905c95d4980aec4cd2f6eb426d1b1ec45d76724f26901099416b9265b76ba67c8b0b73d", "asm": "3045022100f01b090cac01a6de51a43a6963460ed099722f57c7d7f0aca93fd25572cf443e02204b1a68e9d7987d8720351b49e0d0e2e754e1f9e4f5380b8602a4f10a6fddafc7[ALL] 04fcf07bb1222f7925f2b7cc15183a40443c578e62ea17100aa3b44ba66905c95d4980aec4cd2f6eb426d1b1ec45d76724f26901099416b9265b76ba67c8b0b73d"}, "vout": 227, "txid": "a76f3e217862935ee8abeaafc3b43b33d23170b5565792e57e6f9ae8e28a1860"}], "txid": "71653f95b751f43c110b6cdf6e8775b33a444739199ef6a2017584b51e15596f", "blocktime": 1537872018, "version": 1, "confirmations": 11489, "time": 1537872018, "locktime": 0, "vsize": 289, "size": 289}