{"hash": "716755b19531135a58a4274b67e31374a32170da0088ab53b521c98338a5e5da", "blockhash": "00000000000000000024a2167bbff67b0be802c0b01cdd79e6331c2be6459f87", "vout": [{"scriptPubKey": {"reqSigs": 1, "hex": "a914a8fb9a7d965e9c94cb639534a10c260c8eb5819187", "addresses": ["3H6WrVE2TJfDXscdqQj7PHwXw7bjanZCfH"], "asm": "OP_HASH160 a8fb9a7d965e9c94cb639534a10c260c8eb58191 OP_EQUAL", "type": "scripthash"}, "value": 0.00779234, "n": 0}, {"scriptPubKey": {"reqSigs": 1, "hex": "76a914ba0f3212ca8d83a2192cb46940692b97fd1c2cd088ac", "addresses": ["1HxntVNgDtNx8Zm2jpwzQP5QmYAyRLdMKR"], "asm": "OP_DUP OP_HASH160 ba0f3212ca8d83a2192cb46940692b97fd1c2cd0 OP_EQUALVERIFY OP_CHECKSIG", "type": "pubkeyhash"}, "value": 0.29347204, "n": 1}], "hex": "01000000019b99d3061ac37a7f72d3fbfa59285a1899353fdad78b323c98a64dcd89f95883010000006b483045022100cce9d77eefe372d4189eeeb46309dd9b4d9420b26e08a756356696c9998a3af602202575f6056fa7440e09fca4819d37cdc4cab0cc5c4d9b85b85e11455fcbdb7b080121032ddcca6c452cf342f2cea22365fca43b60835542ea44054b1bb3fadacc46a950fdffffff02e2e30b000000000017a914a8fb9a7d965e9c94cb639534a10c260c8eb581918784cdbf01000000001976a914ba0f3212ca8d83a2192cb46940692b97fd1c2cd088ac0d490800", "vin": [{"sequence": 4294967293, "scriptSig": {"hex": "483045022100cce9d77eefe372d4189eeeb46309dd9b4d9420b26e08a756356696c9998a3af602202575f6056fa7440e09fca4819d37cdc4cab0cc5c4d9b85b85e11455fcbdb7b080121032ddcca6c452cf342f2cea22365fca43b60835542ea44054b1bb3fadacc46a950", "asm": "3045022100cce9d77eefe372d4189eeeb46309dd9b4d9420b26e08a756356696c9998a3af602202575f6056fa7440e09fca4819d37cdc4cab0cc5c4d9b85b85e11455fcbdb7b08[ALL] 032ddcca6c452cf342f2cea22365fca43b60835542ea44054b1bb3fadacc46a950"}, "vout": 1, "txid": "8358f989cd4da6983c328bd7da3f3599185a2859fafbd3727f7ac31a06d3999b"}], "txid": "716755b19531135a58a4274b67e31374a32170da0088ab53b521c98338a5e5da", "blocktime": 1537870564, "version": 1, "confirmations": 11515, "time": 1537870564, "locktime": 542989, "vsize": 224, "size": 224}