{"hash": "785f112dedc6bffe562aed1efd383d1251cca59a3f7369bf38dba8f9caead256", "blockhash": "000000000000000000022b45ed06c6f4ccd3cf7fb5ba4856ebd2e58215665228", "vout": [{"scriptPubKey": {"reqSigs": 1, "hex": "76a9148b3af7e3ff722d33ba4c2eb0041a4ba2ab28430b88ac", "addresses": ["1DhBZrcJ7Ma64j6NL4xVkV8UYkdUrNZwNu"], "asm": "OP_DUP OP_HASH160 8b3af7e3ff722d33ba4c2eb0041a4ba2ab28430b OP_EQUALVERIFY OP_CHECKSIG", "type": "pubkeyhash"}, "value": 0.0021, "n": 0}, {"scriptPubKey": {"reqSigs": 1, "hex": "a914627aa52932456d89054bd84f86246af3b71b93a887", "addresses": ["3Afj4stdiLG9EktGrMbm252ySonnhYaz8v"], "asm": "OP_HASH160 627aa52932456d89054bd84f86246af3b71b93a8 OP_EQUAL", "type": "scripthash"}, "value": 0.7516374, "n": 1}], "hex": "01000000000101ba3df86e4f917fd43b84109af9f99699e78d9d898d2e31f4b5786cd825915a0001000000232200205fdd641234b13964b223bd85ad2a4a667ca2099df3d42a1d3b45706a8d81abf0ffffffff0250340300000000001976a9148b3af7e3ff722d33ba4c2eb0041a4ba2ab28430b88ac5ce87a040000000017a914627aa52932456d89054bd84f86246af3b71b93a8870400483045022100b01178f8a0c795737bdb3b085edd7679c4848e5fd4a8bb003c97107a6a180e2e022062859e3fd52efc22709371437ee0a765c69efe8411c7831f3aa136a7fca7445701483045022100c4956d16d1d23d0884ce8d3566d52c369161b1e95430e317c26e8b18d4a27f2802207e61111aa4c50ceaafb3bffe5ff3db89fc7fa78c040bd4f4779f4cce3e4cbd090147522103dcde3832fa56def7b4e783faad1b8af85c3cdd74a5ff4f3c7c216b1075c18da12103c70ae8ded79be1afda73b9ce5ea14a3878908ee160d66a9a717e792bb6db276952ae00000000", "vin": [{"txinwitness": ["", "3045022100b01178f8a0c795737bdb3b085edd7679c4848e5fd4a8bb003c97107a6a180e2e022062859e3fd52efc22709371437ee0a765c69efe8411c7831f3aa136a7fca7445701", "3045022100c4956d16d1d23d0884ce8d3566d52c369161b1e95430e317c26e8b18d4a27f2802207e61111aa4c50ceaafb3bffe5ff3db89fc7fa78c040bd4f4779f4cce3e4cbd0901", "522103dcde3832fa56def7b4e783faad1b8af85c3cdd74a5ff4f3c7c216b1075c18da12103c70ae8ded79be1afda73b9ce5ea14a3878908ee160d66a9a717e792bb6db276952ae"], "sequence": 4294967295, "scriptSig": {"hex": "2200205fdd641234b13964b223bd85ad2a4a667ca2099df3d42a1d3b45706a8d81abf0", "asm": "00205fdd641234b13964b223bd85ad2a4a667ca2099df3d42a1d3b45706a8d81abf0"}, "vout": 1, "txid": "005a9125d86c78b5f4312e8d899d8de79996f9f99a10843bd47f914f6ef83dba"}], "txid": "71676038f3a6c4e105ea1c99a5dcaa4afd9646e7e15ba4f7daa71021765a960f", "blocktime": 1537869901, "version": 1, "confirmations": 11523, "time": 1537869901, "locktime": 0, "vsize": 208, "size": 374}