{"hash": "0f92f26a7c1b2737747582085c6d14786445c8e1fbf9038ec23d3b1af9fc0752", "blockhash": "00000000000000000004ffacab907a6b429b9a5745fa0b75af4234bf69dd7176", "vout": [{"scriptPubKey": {"reqSigs": 1, "hex": "76a9147abe0f36d4e8d2eb7c256b5f5fd61f97fbaed10988ac", "addresses": ["1CC17xv3qbxpnnnjDBPnpgP99aUpkdFJ3c"], "asm": "OP_DUP OP_HASH160 7abe0f36d4e8d2eb7c256b5f5fd61f97fbaed109 OP_EQUALVERIFY OP_CHECKSIG", "type": "pubkeyhash"}, "value": 0.016, "n": 0}, {"scriptPubKey": {"reqSigs": 1, "hex": "a914a28d881b7ab0aa4f92d96c7c3ca666067689e74787", "addresses": ["3GWWwQuo9uDbNXV4F6tdk4cPy9kXiGA5JX"], "asm": "OP_HASH160 a28d881b7ab0aa4f92d96c7c3ca666067689e747 OP_EQUAL", "type": "scripthash"}, "value": 59.0925, "n": 1}], "hex": "020000000001013d09727fcb311365c894b054d3d0a46efa3e17524e0dc647bbd880a68f15b2390100000017160014b66fef19ce277be37822296f4e8b0522b0d14e0effffffff02006a1800000000001976a9147abe0f36d4e8d2eb7c256b5f5fd61f97fbaed10988acd0ff37600100000017a914a28d881b7ab0aa4f92d96c7c3ca666067689e7478702483045022100b221742a8b611065ac2f5bdfb0f1f3c5a3640e7151c0f7560e9830c410adddec022068aedca494746501a3c5f1e329811a2e83cea5609d7882d34e1e952675dfc7a20121035566dd6ab0fa55dfd1cc75823075ddafb2c968c3736dab50a9d61d7202ca5e1c00000000", "vin": [{"txinwitness": ["3045022100b221742a8b611065ac2f5bdfb0f1f3c5a3640e7151c0f7560e9830c410adddec022068aedca494746501a3c5f1e329811a2e83cea5609d7882d34e1e952675dfc7a201", "035566dd6ab0fa55dfd1cc75823075ddafb2c968c3736dab50a9d61d7202ca5e1c"], "sequence": 4294967295, "scriptSig": {"hex": "160014b66fef19ce277be37822296f4e8b0522b0d14e0e", "asm": "0014b66fef19ce277be37822296f4e8b0522b0d14e0e"}, "vout": 1, "txid": "39b2158fa680d8bb47c60d4e52173efa6ea4d0d354b094c8651331cb7f72093d"}], "txid": "7168fbf7b9b291858826576fb293c15e34145faa190258df86e99d209202efc2", "blocktime": 1537875543, "version": 2, "confirmations": 11464, "time": 1537875543, "locktime": 0, "vsize": 168, "size": 250}