{"hash": "716ef9b24f8d4758a57a2a107ef16f1fc51703ecd01fe74de30829eb8964546f", "blockhash": "0000000000000000000dcc0f55137456b1a82d3642486a52398922ac4d620174", "vout": [{"scriptPubKey": {"reqSigs": 1, "hex": "76a9143e744a4b091d6be2df2ee8c66028a6665886fb4588ac", "addresses": ["16hECsy7xX8RcVUhbWa96Jfuk6Aq8tEisb"], "asm": "OP_DUP OP_HASH160 3e744a4b091d6be2df2ee8c66028a6665886fb45 OP_EQUALVERIFY OP_CHECKSIG", "type": "pubkeyhash"}, "value": 0.00649332, "n": 0}, {"scriptPubKey": {"type": "nulldata", "hex": "6a4c50000077770001b9eeb876395a371197efb158bcbefa6b8351586b4e86aeaeacb577c031fce3ab24ba29a153279428b7dbd7ad5d895baa099906147acbb01cff741d100759d4ba30d2c37bb011d97e02cf", "asm": "OP_RETURN 000077770001b9eeb876395a371197efb158bcbefa6b8351586b4e86aeaeacb577c031fce3ab24ba29a153279428b7dbd7ad5d895baa099906147acbb01cff741d100759d4ba30d2c37bb011d97e02cf"}, "value": 0.0, "n": 1}], "hex": "010000000131bb204b0b6a2c8cb0af8a6c2d330645041ff941e85b02b8de9a4821c999b3a5010000006b48304502210083312892ac6c821a14268153deb371e3588ca0629e0d3f9464166b5b9cd2434902201b41b3f384eae598a6486779aa3997938620cc1e163ef5f55e091d223dac4e2101210323079b7c0863c924ee836ebdf129aa66b6666d2fd0ac8d946a2e774f005a95c8ffffffff0274e80900000000001976a9143e744a4b091d6be2df2ee8c66028a6665886fb4588ac0000000000000000536a4c50000077770001b9eeb876395a371197efb158bcbefa6b8351586b4e86aeaeacb577c031fce3ab24ba29a153279428b7dbd7ad5d895baa099906147acbb01cff741d100759d4ba30d2c37bb011d97e02cf00000000", "vin": [{"sequence": 4294967295, "scriptSig": {"hex": "48304502210083312892ac6c821a14268153deb371e3588ca0629e0d3f9464166b5b9cd2434902201b41b3f384eae598a6486779aa3997938620cc1e163ef5f55e091d223dac4e2101210323079b7c0863c924ee836ebdf129aa66b6666d2fd0ac8d946a2e774f005a95c8", "asm": "304502210083312892ac6c821a14268153deb371e3588ca0629e0d3f9464166b5b9cd2434902201b41b3f384eae598a6486779aa3997938620cc1e163ef5f55e091d223dac4e21[ALL] 0323079b7c0863c924ee836ebdf129aa66b6666d2fd0ac8d946a2e774f005a95c8"}, "vout": 1, "txid": "a5b399c921489adeb8025be841f91f044506332d6c8aafb08c2c6a0b4b20bb31"}], "txid": "716ef9b24f8d4758a57a2a107ef16f1fc51703ecd01fe74de30829eb8964546f", "blocktime": 1537870268, "version": 1, "confirmations": 11518, "time": 1537870268, "locktime": 0, "vsize": 284, "size": 284}