{"hash": "717a332c59a517f0717b39450140fe2a0afdb2dc04f6a543a46f52f60736b4a7", "blockhash": "00000000000000000018f53835495a110e01622372bf6ae95dc86f2b0ab887b0", "vout": [{"scriptPubKey": {"reqSigs": 1, "hex": "76a9141adc4cb1ce517ee1ac22f2535734affa3319ad9688ac", "addresses": ["13T2UfwJud7C8TsJicFeS8PU8xRKv7G4kQ"], "asm": "OP_DUP OP_HASH160 1adc4cb1ce517ee1ac22f2535734affa3319ad96 OP_EQUALVERIFY OP_CHECKSIG", "type": "pubkeyhash"}, "value": 7.49e-05, "n": 0}, {"scriptPubKey": {"reqSigs": 1, "hex": "76a9146552e25653cb1e6a364df3421affb8efacabbb8688ac", "addresses": ["1AEkYGP2NhCSnUxZezu4KFcW3MY37GLPaP"], "asm": "OP_DUP OP_HASH160 6552e25653cb1e6a364df3421affb8efacabbb86 OP_EQUALVERIFY OP_CHECKSIG", "type": "pubkeyhash"}, "value": 0.072272, "n": 1}], "hex": "01000000048711d264d8f1bec4160ba5f2a8cb34bce06ed79d496e7ea5532c867b15db2b4e000000006a47304402205898673465ecd9f682ef370c4008f02c2f3fbe1e17fd85af625c4881cd62baa502206824a205ce260b34b122f847baf239f8f5d96670cd282c241d1c6061570f361b012102fc8dfd589891443a6a8862fdbf3c2b985f344d496768645d37773c2ec84ca42affffffff4c42b49b37b1097d718a4f3b09451ca92a179a05ed9cdeff8747a81fa1391e76000000006b4830450221009a1c9e8f59f8bd5c6ab4e8bdea15cf47fd4fafc185bf1231e6b14d6b24f01adf022069eca7d4bff3106a2e5e8c3a29645bebf7918b52a821efc7ded13241d08b714c0121028d5b250189b8c019390ce3ab462eccaeef2e5f7a70102ba378c2fb4551fb1469ffffffffa4cf96111bac9bf29debd0ec4ff4e073cf0a974cddca646fd0db8966e9cfa3af000000006a4730440220213d38399c8ee50d2df6b1d33ff9d5770bab5e2babf0703c18816e79666ebbcb02200b8f0147adec27c5a6723552043e78e452e654ab27b73887465078d703f4c399012103b7cdb0875e7f8a8c41b1e8d2cc7c1ede53f3609d129eabab468220864b010fceffffffff566bfe11fcf5e9a9455bd04e412abb415e43301c71194fc75aede90ef84e46cd000000006a473044022057e99f0074e98dae507724bf198b8f0f1e28ce8967708f92fdc608d061781c1102201e2b46809f5d854b62ca83381f53423c5f5146eb945c6a47d3fdbf01856c5ead012102c2f77fd25a07c0dff8d3de06bb8dcf4bdb164de873272772db5601e976dbb23cffffffff02421d0000000000001976a9141adc4cb1ce517ee1ac22f2535734affa3319ad9688ac40476e00000000001976a9146552e25653cb1e6a364df3421affb8efacabbb8688ac00000000", "vin": [{"sequence": 4294967295, "scriptSig": {"hex": "47304402205898673465ecd9f682ef370c4008f02c2f3fbe1e17fd85af625c4881cd62baa502206824a205ce260b34b122f847baf239f8f5d96670cd282c241d1c6061570f361b012102fc8dfd589891443a6a8862fdbf3c2b985f344d496768645d37773c2ec84ca42a", "asm": "304402205898673465ecd9f682ef370c4008f02c2f3fbe1e17fd85af625c4881cd62baa502206824a205ce260b34b122f847baf239f8f5d96670cd282c241d1c6061570f361b[ALL] 02fc8dfd589891443a6a8862fdbf3c2b985f344d496768645d37773c2ec84ca42a"}, "vout": 0, "txid": "4e2bdb157b862c53a57e6e499dd76ee0bc34cba8f2a50b16c4bef1d864d21187"}, {"sequence": 4294967295, "scriptSig": {"hex": "4830450221009a1c9e8f59f8bd5c6ab4e8bdea15cf47fd4fafc185bf1231e6b14d6b24f01adf022069eca7d4bff3106a2e5e8c3a29645bebf7918b52a821efc7ded13241d08b714c0121028d5b250189b8c019390ce3ab462eccaeef2e5f7a70102ba378c2fb4551fb1469", "asm": "30450221009a1c9e8f59f8bd5c6ab4e8bdea15cf47fd4fafc185bf1231e6b14d6b24f01adf022069eca7d4bff3106a2e5e8c3a29645bebf7918b52a821efc7ded13241d08b714c[ALL] 028d5b250189b8c019390ce3ab462eccaeef2e5f7a70102ba378c2fb4551fb1469"}, "vout": 0, "txid": "761e39a11fa84787ffde9ced059a172aa91c45093b4f8a717d09b1379bb4424c"}, {"sequence": 4294967295, "scriptSig": {"hex": "4730440220213d38399c8ee50d2df6b1d33ff9d5770bab5e2babf0703c18816e79666ebbcb02200b8f0147adec27c5a6723552043e78e452e654ab27b73887465078d703f4c399012103b7cdb0875e7f8a8c41b1e8d2cc7c1ede53f3609d129eabab468220864b010fce", "asm": "30440220213d38399c8ee50d2df6b1d33ff9d5770bab5e2babf0703c18816e79666ebbcb02200b8f0147adec27c5a6723552043e78e452e654ab27b73887465078d703f4c399[ALL] 03b7cdb0875e7f8a8c41b1e8d2cc7c1ede53f3609d129eabab468220864b010fce"}, "vout": 0, "txid": "afa3cfe96689dbd06f64cadd4c970acf73e0f44fecd0eb9df29bac1b1196cfa4"}, {"sequence": 4294967295, "scriptSig": {"hex": "473044022057e99f0074e98dae507724bf198b8f0f1e28ce8967708f92fdc608d061781c1102201e2b46809f5d854b62ca83381f53423c5f5146eb945c6a47d3fdbf01856c5ead012102c2f77fd25a07c0dff8d3de06bb8dcf4bdb164de873272772db5601e976dbb23c", "asm": "3044022057e99f0074e98dae507724bf198b8f0f1e28ce8967708f92fdc608d061781c1102201e2b46809f5d854b62ca83381f53423c5f5146eb945c6a47d3fdbf01856c5ead[ALL] 02c2f77fd25a07c0dff8d3de06bb8dcf4bdb164de873272772db5601e976dbb23c"}, "vout": 0, "txid": "cd464ef80ee9ed5ac74f19711c30435e41bb2a414ed05b45a9e9f5fc11fe6b56"}], "txid": "717a332c59a517f0717b39450140fe2a0afdb2dc04f6a543a46f52f60736b4a7", "blocktime": 1537870928, "version": 1, "confirmations": 11512, "time": 1537870928, "locktime": 0, "vsize": 667, "size": 667}