{"hash": "717bdad6d29807430efdfb28fbf8ee8a0b5b169e49256a82dc5404cae72de8b5", "blockhash": "0000000000000000001f0ddff1eddb255c1121bcd4da4f1bc9a0da00cae72433", "vout": [{"scriptPubKey": {"reqSigs": 1, "hex": "a9141dafd6fe47536bb3e883ceb2bb160e7eb3f3fafa87", "addresses": ["34PzAfuKmKP91uYiEp7y8aaiCfnXnLuNPK"], "asm": "OP_HASH160 1dafd6fe47536bb3e883ceb2bb160e7eb3f3fafa OP_EQUAL", "type": "scripthash"}, "value": 0.0075, "n": 0}, {"scriptPubKey": {"reqSigs": 1, "hex": "76a9143d0f55a8fe3bec856e44ad8fa50211ccda48d34c88ac", "addresses": ["16ZrbAocabraG8xCbWyM3YHSDZZ3WnfR16"], "asm": "OP_DUP OP_HASH160 3d0f55a8fe3bec856e44ad8fa50211ccda48d34c OP_EQUALVERIFY OP_CHECKSIG", "type": "pubkeyhash"}, "value": 0.19912157, "n": 1}], "hex": "010000000100d474f342cfd3c1fbbf339ccf835b8c03ed448b949c049988d27cc98c386f5b010000006a47304402203827aa1945618e73343ded7c732ea498a462eed58ca49f7adf37317fd586323c02206b834d416ed15eed31c67d82e67d1416ad6fad2a6bca4d4d6cf5783f616919b50121023f157dffa5042bfb4e3bac7576e35ca52f4694e917d1fcbcf7a9a309e8195e92ffffffff02b0710b000000000017a9141dafd6fe47536bb3e883ceb2bb160e7eb3f3fafa87ddd52f01000000001976a9143d0f55a8fe3bec856e44ad8fa50211ccda48d34c88ac00000000", "vin": [{"sequence": 4294967295, "scriptSig": {"hex": "47304402203827aa1945618e73343ded7c732ea498a462eed58ca49f7adf37317fd586323c02206b834d416ed15eed31c67d82e67d1416ad6fad2a6bca4d4d6cf5783f616919b50121023f157dffa5042bfb4e3bac7576e35ca52f4694e917d1fcbcf7a9a309e8195e92", "asm": "304402203827aa1945618e73343ded7c732ea498a462eed58ca49f7adf37317fd586323c02206b834d416ed15eed31c67d82e67d1416ad6fad2a6bca4d4d6cf5783f616919b5[ALL] 023f157dffa5042bfb4e3bac7576e35ca52f4694e917d1fcbcf7a9a309e8195e92"}, "vout": 1, "txid": "5b6f388cc97cd28899049c948b44ed038c5b83cf9c33bffbc1d3cf42f374d400"}], "txid": "717bdad6d29807430efdfb28fbf8ee8a0b5b169e49256a82dc5404cae72de8b5", "blocktime": 1537872018, "version": 1, "confirmations": 11489, "time": 1537872018, "locktime": 0, "vsize": 223, "size": 223}