{"hash": "7184e9b277e360f6f96a3879419e3f1ea6a99192e0b8fb2ea45d45a15c5207c5", "blockhash": "00000000000000000024a2167bbff67b0be802c0b01cdd79e6331c2be6459f87", "vout": [{"scriptPubKey": {"reqSigs": 1, "hex": "76a9144f5421b0babc4e896beb0058deff054e82f45e2788ac", "addresses": ["18ETAioxJanoCqWJVm97uh6JaCEcKhhfvp"], "asm": "OP_DUP OP_HASH160 4f5421b0babc4e896beb0058deff054e82f45e27 OP_EQUALVERIFY OP_CHECKSIG", "type": "pubkeyhash"}, "value": 0.00059621, "n": 0}, {"scriptPubKey": {"reqSigs": 1, "hex": "76a914a6aa652e5686f150b5a922985b48eea71e3933fa88ac", "addresses": ["1GCFJ7XfZhjxdbpHDt4ZqNU4kYQzW4x7p6"], "asm": "OP_DUP OP_HASH160 a6aa652e5686f150b5a922985b48eea71e3933fa OP_EQUALVERIFY OP_CHECKSIG", "type": "pubkeyhash"}, "value": 0.378582, "n": 1}], "hex": "010000000172098efbe1b20a4dbbd82ddd2b12f0901ced45275a6b4729af488605005ead3f000000006b483045022100c6038f482d34fe9e086dd58e2b62dd20299d33b0cb2cf9182a540806bb2a974d02201935da558646c8783b7774d13c849101a0416a5d125e32898b9f871610421a52012103cb3d1aff916fd723acd84bbfc3a1ceac06586612afd09a716626f99f339de6f2ffffffff02e5e80000000000001976a9144f5421b0babc4e896beb0058deff054e82f45e2788ac98ab4102000000001976a914a6aa652e5686f150b5a922985b48eea71e3933fa88ac00000000", "vin": [{"sequence": 4294967295, "scriptSig": {"hex": "483045022100c6038f482d34fe9e086dd58e2b62dd20299d33b0cb2cf9182a540806bb2a974d02201935da558646c8783b7774d13c849101a0416a5d125e32898b9f871610421a52012103cb3d1aff916fd723acd84bbfc3a1ceac06586612afd09a716626f99f339de6f2", "asm": "3045022100c6038f482d34fe9e086dd58e2b62dd20299d33b0cb2cf9182a540806bb2a974d02201935da558646c8783b7774d13c849101a0416a5d125e32898b9f871610421a52[ALL] 03cb3d1aff916fd723acd84bbfc3a1ceac06586612afd09a716626f99f339de6f2"}, "vout": 0, "txid": "3fad5e00058648af29476b5a2745ed1c90f0122bdd2dd8bb4d0ab2e1fb8e0972"}], "txid": "7184e9b277e360f6f96a3879419e3f1ea6a99192e0b8fb2ea45d45a15c5207c5", "blocktime": 1537870564, "version": 1, "confirmations": 11515, "time": 1537870564, "locktime": 0, "vsize": 226, "size": 226}