{"hash": "0aeee68d23056c37cd1c55f7a268bb51dfaf9a7e662e2e274e616deb57754cc5", "blockhash": "0000000000000000000e13cef7c366c0283d82e591d1acd082e914b08063cdf1", "vout": [{"scriptPubKey": {"reqSigs": 1, "hex": "a9145950df70986072a3024fb22dfb9b0faa1a9a1ca187", "addresses": ["39qGwkvdA5bErZRDUjZytgfqBSWvYmUrH2"], "asm": "OP_HASH160 5950df70986072a3024fb22dfb9b0faa1a9a1ca1 OP_EQUAL", "type": "scripthash"}, "value": 0.00497092, "n": 0}, {"scriptPubKey": {"reqSigs": 1, "hex": "76a914c670ce4a8413b37a65f75af7d4404d3dd8e89c7b88ac", "addresses": ["1K6FvsNhLvVTKbtE4QCVzSgZGPzd5LDwUV"], "asm": "OP_DUP OP_HASH160 c670ce4a8413b37a65f75af7d4404d3dd8e89c7b OP_EQUALVERIFY OP_CHECKSIG", "type": "pubkeyhash"}, "value": 0.00156453, "n": 1}, {"scriptPubKey": {"reqSigs": 1, "hex": "76a914618f465ce79e419cc730196256fa935357a6dbc888ac", "addresses": ["19trBX6wB1xKEQAHhpob3siGnw92woaQeK"], "asm": "OP_DUP OP_HASH160 618f465ce79e419cc730196256fa935357a6dbc8 OP_EQUALVERIFY OP_CHECKSIG", "type": "pubkeyhash"}, "value": 0.00705164, "n": 2}, {"scriptPubKey": {"reqSigs": 1, "hex": "a9149916ba72551a2cb99f62960a9b217b622226ab8687", "addresses": ["3FeUY5qjUXnGguvqeqcM18cqqxPtqgVSov"], "asm": "OP_HASH160 9916ba72551a2cb99f62960a9b217b622226ab86 OP_EQUAL", "type": "scripthash"}, "value": 0.033598, "n": 3}, {"scriptPubKey": {"reqSigs": 1, "hex": "a9146ef601738da6d430b19b29525ad372d0d4463d7887", "addresses": ["3BoixREfDHdt4RUZmZJLdK9SjHFPbBAzM7"], "asm": "OP_HASH160 6ef601738da6d430b19b29525ad372d0d4463d78 OP_EQUAL", "type": "scripthash"}, "value": 0.0023716, "n": 4}, {"scriptPubKey": {"reqSigs": 1, "hex": "a9148ba497ee5c18798011f54119a59ae5fcb7c59e5587", "addresses": ["3ERP2N3oi2qggtNMmh5zoH4dum6Zhd4DvN"], "asm": "OP_HASH160 8ba497ee5c18798011f54119a59ae5fcb7c59e55 OP_EQUAL", "type": "scripthash"}, "value": 0.00872011, "n": 5}, {"scriptPubKey": {"reqSigs": 1, "hex": "a9145d74fc013cf11f837cf609e9c5a0d7fa0afbc1cf87", "addresses": ["3ADAubswni9jBmvN6qjBVrvLEiN4B5tYgN"], "asm": "OP_HASH160 5d74fc013cf11f837cf609e9c5a0d7fa0afbc1cf OP_EQUAL", "type": "scripthash"}, "value": 0.00315293, "n": 6}, {"scriptPubKey": {"reqSigs": 1, "hex": "a91457604f15039686f780e56515ccdaf6477dd84e1187", "addresses": ["39f25tncQVc3Uy1Ec6x7vNLTYhdH9vM7QB"], "asm": "OP_HASH160 57604f15039686f780e56515ccdaf6477dd84e11 OP_EQUAL", "type": "scripthash"}, "value": 0.0061712, "n": 7}, {"scriptPubKey": {"reqSigs": 1, "hex": "76a914859deff8b859423c83622c391e77556bf07d7e0588ac", "addresses": ["1DBW5CM2jqdZRFqYYSBgWwPuHnhExqgcM3"], "asm": "OP_DUP OP_HASH160 859deff8b859423c83622c391e77556bf07d7e05 OP_EQUALVERIFY OP_CHECKSIG", "type": "pubkeyhash"}, "value": 0.0030404, "n": 8}, {"scriptPubKey": {"reqSigs": 1, "hex": "76a914e86775bf23023ba76b580ffa345d96b8858fb1a788ac", "addresses": ["1NBqi2ch8wZh1CgLfKXNZZHVjYGaN1bgyg"], "asm": "OP_DUP OP_HASH160 e86775bf23023ba76b580ffa345d96b8858fb1a7 OP_EQUALVERIFY OP_CHECKSIG", "type": "pubkeyhash"}, "value": 0.2053, "n": 9}, {"scriptPubKey": {"reqSigs": 1, "hex": "a914ed99496e9a8fe5713467832fb27ee1077ba1559a87", "addresses": ["3PMKhZgD82gDW4jyLKqrCVaibGhVrHcVPA"], "asm": "OP_HASH160 ed99496e9a8fe5713467832fb27ee1077ba1559a OP_EQUAL", "type": "scripthash"}, "value": 0.0008331, "n": 10}, {"scriptPubKey": {"reqSigs": 1, "hex": "a9148c3c9cee737c837ad1f3121e5be5572b3f0ff7c287", "addresses": ["3EUX8sBYhpBP1S6LkxvSNQzYtQ2WEndVKE"], "asm": "OP_HASH160 8c3c9cee737c837ad1f3121e5be5572b3f0ff7c2 OP_EQUAL", "type": "scripthash"}, "value": 0.00185653, "n": 11}, {"scriptPubKey": {"reqSigs": 1, "hex": "76a91426a3b3011fdbb1669fdc86b58e30cd5104a5d17788ac", "addresses": ["14XJnK67xbUL1GorZZAJqtQ7B53bTF9hvs"], "asm": "OP_DUP OP_HASH160 26a3b3011fdbb1669fdc86b58e30cd5104a5d177 OP_EQUALVERIFY OP_CHECKSIG", "type": "pubkeyhash"}, "value": 0.00222127, "n": 12}, {"scriptPubKey": {"reqSigs": 1, "hex": "76a9143f44ce11b9258e53b2e096c30fd180530997c4d188ac", "addresses": ["16mXzjnJSHCU1YiW4xuYiq7BrpYGkHbquW"], "asm": "OP_DUP OP_HASH160 3f44ce11b9258e53b2e096c30fd180530997c4d1 OP_EQUALVERIFY OP_CHECKSIG", "type": "pubkeyhash"}, "value": 0.01967499, "n": 13}, {"scriptPubKey": {"reqSigs": 1, "hex": "a914b8c78b2ff80e4c2ee1ee60d3b4c7c2b13ab49fb387", "addresses": ["3JY3JNzMySMMNm9AasZGMkUGeRZv5Td1uH"], "asm": "OP_HASH160 b8c78b2ff80e4c2ee1ee60d3b4c7c2b13ab49fb3 OP_EQUAL", "type": "scripthash"}, "value": 0.00327447, "n": 14}, {"scriptPubKey": {"reqSigs": 1, "hex": "a9145e2ffa0d91cfd78662dd16a02c20ebfa5c71c89587", "addresses": ["3AH2v4SmmGaRQNYCS2NU2e1ZtmUSWqUn3i"], "asm": "OP_HASH160 5e2ffa0d91cfd78662dd16a02c20ebfa5c71c895 OP_EQUAL", "type": "scripthash"}, "value": 0.01943363, "n": 15}, {"scriptPubKey": {"reqSigs": 1, "hex": "a91409ca2f45370f5dd9879e2e0734957caaf632e56e87", "addresses": ["32anDJha7T66rSos3eYDcShrbEGj3bw4QG"], "asm": "OP_HASH160 09ca2f45370f5dd9879e2e0734957caaf632e56e OP_EQUAL", "type": "scripthash"}, "value": 0.004188, "n": 16}, {"scriptPubKey": {"reqSigs": 1, "hex": "a914097b7b704ce9992d36b98776833aa27d6d350ea287", "addresses": ["32Z9vxnfaeH72yp3rb3N4ieGWDChDt7PZs"], "asm": "OP_HASH160 097b7b704ce9992d36b98776833aa27d6d350ea2 OP_EQUAL", "type": "scripthash"}, "value": 0.01, "n": 17}, {"scriptPubKey": {"reqSigs": 1, "hex": "a914a13b41fb0c805790cc08bd230d75204b52c75be987", "addresses": ["3GPXhjBuQYoqADiJTGSRUvSFsuXtHeNDsE"], "asm": "OP_HASH160 a13b41fb0c805790cc08bd230d75204b52c75be9 OP_EQUAL", "type": "scripthash"}, "value": 0.00266327, "n": 18}, {"scriptPubKey": {"reqSigs": 1, "hex": "a914754e590d36ddb5133ad42ef307e965ae1e269b9b87", "addresses": ["3CPGqh7sJp9t4WSy2y8wcePKzuJVbm4HuV"], "asm": "OP_HASH160 754e590d36ddb5133ad42ef307e965ae1e269b9b OP_EQUAL", "type": "scripthash"}, "value": 0.00387339, "n": 19}, {"scriptPubKey": {"reqSigs": 1, "hex": "a914e10a813b0466a8ad71b55b019a84439d1fdec4fd87", "addresses": ["3NCvYbJyz4oxnXAZqWT9aom8Ykd9fBJqmn"], "asm": "OP_HASH160 e10a813b0466a8ad71b55b019a84439d1fdec4fd OP_EQUAL", "type": "scripthash"}, "value": 0.00224938, "n": 20}, {"scriptPubKey": {"reqSigs": 1, "hex": "a914e2389b6e474c5995892f9aca0e3c7bd060424c2387", "addresses": ["3NKAT2mRqRnCLBswoKi2kK1JadZ53nuTn1"], "asm": "OP_HASH160 e2389b6e474c5995892f9aca0e3c7bd060424c23 OP_EQUAL", "type": "scripthash"}, "value": 0.00314635, "n": 21}, {"scriptPubKey": {"reqSigs": 1, "hex": "a91494ab53e98ecbb0a1b82a3ae29eb412c8e486347f87", "addresses": ["3FF7AzpT4z5DeJWhR9NxfK47Uknc4j6BV3"], "asm": "OP_HASH160 94ab53e98ecbb0a1b82a3ae29eb412c8e486347f OP_EQUAL", "type": "scripthash"}, "value": 0.002, "n": 22}, {"scriptPubKey": {"reqSigs": 1, "hex": "76a914f33f93ea8d71b97c509be03a95a86c8d546694bf88ac", "addresses": ["1PBBN5W814zcgTx7cdHLhLnyR9wuupge17"], "asm": "OP_DUP OP_HASH160 f33f93ea8d71b97c509be03a95a86c8d546694bf OP_EQUALVERIFY OP_CHECKSIG", "type": "pubkeyhash"}, "value": 0.07221695, "n": 23}, {"scriptPubKey": {"reqSigs": 1, "hex": "a914eb2b8be2635fc27dc3c539b3d7399bd2a113d50687", "addresses": ["3P8UtHLLXzqxKhGeMKfg5ZuRvVcncrvC9Z"], "asm": "OP_HASH160 eb2b8be2635fc27dc3c539b3d7399bd2a113d506 OP_EQUAL", "type": "scripthash"}, "value": 0.00349767, "n": 24}, {"scriptPubKey": {"reqSigs": 1, "hex": "a914f60512c91fc08edb50ac6ffdad7a757e2ca6be4e87", "addresses": ["3Q7rEEoS3gQmkvkvnq25HfhULPc4HzvvSp"], "asm": "OP_HASH160 f60512c91fc08edb50ac6ffdad7a757e2ca6be4e OP_EQUAL", "type": "scripthash"}, "value": 0.00223519, "n": 25}, {"scriptPubKey": {"reqSigs": 1, "hex": "a9148c18b0259e0621d81c911d6fe98edc19b7167b5987", "addresses": ["3ETn6ktNM24hFdfHZpScrQNJgbWmXy99Rg"], "asm": "OP_HASH160 8c18b0259e0621d81c911d6fe98edc19b7167b59 OP_EQUAL", "type": "scripthash"}, "value": 0.00361095, "n": 26}, {"scriptPubKey": {"reqSigs": 1, "hex": "a914c7a117735453b6d989796b3cab8026e5b0751c0487", "addresses": ["3KtZNZNCyUWD7CkGSPAFVuSS5ftgRetFE1"], "asm": "OP_HASH160 c7a117735453b6d989796b3cab8026e5b0751c04 OP_EQUAL", "type": "scripthash"}, "value": 15.65290395, "n": 27}, {"scriptPubKey": {"reqSigs": 1, "hex": "a914ffda23d1c562f01440a164e0c0a3ca6aea7896e987", "addresses": ["3R1qZ63jxoAUgUaLWsuP9NaaEXMwL6Uqtc"], "asm": "OP_HASH160 ffda23d1c562f01440a164e0c0a3ca6aea7896e9 OP_EQUAL", "type": "scripthash"}, "value": 0.0004, "n": 28}, {"scriptPubKey": {"reqSigs": 1, "hex": "76a914b7372e9f6208a840e881e960b799e9901c52afd688ac", "addresses": ["1HhkmE6kCYpbUeky5gD8z3ET5TAydiwgDU"], "asm": "OP_DUP OP_HASH160 b7372e9f6208a840e881e960b799e9901c52afd6 OP_EQUALVERIFY OP_CHECKSIG", "type": "pubkeyhash"}, "value": 0.0129927, "n": 29}, {"scriptPubKey": {"reqSigs": 1, "hex": "a91464820dcc66f1341547e67de975922cd806611a6e87", "addresses": ["3ArTJ2hqVznAJpG5zuBLSC3JhMQ7uYu8up"], "asm": "OP_HASH160 64820dcc66f1341547e67de975922cd806611a6e OP_EQUAL", "type": "scripthash"}, "value": 0.00706127, "n": 30}, {"scriptPubKey": {"reqSigs": 1, "hex": "a91469f376a4c53f006b7535390e7bbb0917caf5e8c687", "addresses": ["3BMEXphGXKApEFor2UJ4TvYMBjxm6zhuxL"], "asm": "OP_HASH160 69f376a4c53f006b7535390e7bbb0917caf5e8c6 OP_EQUAL", "type": "scripthash"}, "value": 0.55, "n": 31}, {"scriptPubKey": {"reqSigs": 1, "hex": "a914c5aa73245013e6b0ac938c61f33d28b39c4c6c4a87", "addresses": ["3KiBEPhZseTbPDVRYZMuEnwmaqjyx3YuQG"], "asm": "OP_HASH160 c5aa73245013e6b0ac938c61f33d28b39c4c6c4a OP_EQUAL", "type": "scripthash"}, "value": 0.00250393, "n": 32}, {"scriptPubKey": {"reqSigs": 1, "hex": "76a914e882abc801b93a350cdd738e328d6f40e0434c4288ac", "addresses": ["1NCQJgoqod7CeQJjcsku1GuTLz343wWa3v"], "asm": "OP_DUP OP_HASH160 e882abc801b93a350cdd738e328d6f40e0434c42 OP_EQUALVERIFY OP_CHECKSIG", "type": "pubkeyhash"}, "value": 0.00625813, "n": 33}, {"scriptPubKey": {"reqSigs": 1, "hex": "a914a0f88c112fd79b5756037e6fadb50c0e005fa73687", "addresses": ["3GN9nbS3kvSSVxeAn9bTvqs6j2f1qdFqxF"], "asm": "OP_HASH160 a0f88c112fd79b5756037e6fadb50c0e005fa736 OP_EQUAL", "type": "scripthash"}, "value": 0.002, "n": 34}, {"scriptPubKey": {"reqSigs": 1, "hex": "a914949e902fcf4c3fd1be40f9718f01f3e2563ebd9f87", "addresses": ["3FEqt6oyPmC99RBTTD8bqEXPhxnVHYvQK8"], "asm": "OP_HASH160 949e902fcf4c3fd1be40f9718f01f3e2563ebd9f OP_EQUAL", "type": "scripthash"}, "value": 0.00225338, "n": 35}, {"scriptPubKey": {"reqSigs": 1, "hex": "76a914eab7a6a93d4c18c89aa5ee82c91a46e77a076b3988ac", "addresses": ["1NQ58BiwuvEEBVyJyarbj7RycUtWxAVvep"], "asm": "OP_DUP OP_HASH160 eab7a6a93d4c18c89aa5ee82c91a46e77a076b39 OP_EQUALVERIFY OP_CHECKSIG", "type": "pubkeyhash"}, "value": 0.281142, "n": 36}, {"scriptPubKey": {"reqSigs": 1, "hex": "76a91405f19052f84eb745011940aa966671491c5b8a5a88ac", "addresses": ["1YRm72PYFd57toHA1rZXWQd5y1wCkGY12"], "asm": "OP_DUP OP_HASH160 05f19052f84eb745011940aa966671491c5b8a5a OP_EQUALVERIFY OP_CHECKSIG", "type": "pubkeyhash"}, "value": 0.00236855, "n": 37}, {"scriptPubKey": {"reqSigs": 1, "hex": "a914f3c86054e290ad37f2cf90d15c229a07a727c59387", "addresses": ["3Pv2AYiRwLZTWbwERyGeQ8pFCwhjMAXMEV"], "asm": "OP_HASH160 f3c86054e290ad37f2cf90d15c229a07a727c593 OP_EQUAL", "type": "scripthash"}, "value": 0.00325, "n": 38}, {"scriptPubKey": {"reqSigs": 1, "hex": "a9142e65e9378970dc94a564c06a3e86ae06b462159487", "addresses": ["35vM6GXuczswkSWPvx4nbsQAFhyQZTdNcZ"], "asm": "OP_HASH160 2e65e9378970dc94a564c06a3e86ae06b4621594 OP_EQUAL", "type": "scripthash"}, "value": 0.00549324, "n": 39}], "hex": "020000000001015560089ebcbaedfbd2df8de2bb8ba6b1d2fc25bad91cc97e8d453e538149e1c81300000017160014fd892d610784424780ea441090aeb17b05f7bf01feffffff28c49507000000000017a9145950df70986072a3024fb22dfb9b0faa1a9a1ca18725630200000000001976a914c670ce4a8413b37a65f75af7d4404d3dd8e89c7b88ac8cc20a00000000001976a914618f465ce79e419cc730196256fa935357a6dbc888ac384433000000000017a9149916ba72551a2cb99f62960a9b217b622226ab8687689e03000000000017a9146ef601738da6d430b19b29525ad372d0d4463d78874b4e0d000000000017a9148ba497ee5c18798011f54119a59ae5fcb7c59e55879dcf04000000000017a9145d74fc013cf11f837cf609e9c5a0d7fa0afbc1cf87a06a09000000000017a91457604f15039686f780e56515ccdaf6477dd84e1187a8a30400000000001976a914859deff8b859423c83622c391e77556bf07d7e0588ac50433901000000001976a914e86775bf23023ba76b580ffa345d96b8858fb1a788ac6e4501000000000017a914ed99496e9a8fe5713467832fb27ee1077ba1559a8735d502000000000017a9148c3c9cee737c837ad1f3121e5be5572b3f0ff7c287af630300000000001976a91426a3b3011fdbb1669fdc86b58e30cd5104a5d17788ac8b051e00000000001976a9143f44ce11b9258e53b2e096c30fd180530997c4d188ac17ff04000000000017a914b8c78b2ff80e4c2ee1ee60d3b4c7c2b13ab49fb38743a71d000000000017a9145e2ffa0d91cfd78662dd16a02c20ebfa5c71c89587f06306000000000017a91409ca2f45370f5dd9879e2e0734957caaf632e56e8740420f000000000017a914097b7b704ce9992d36b98776833aa27d6d350ea287571004000000000017a914a13b41fb0c805790cc08bd230d75204b52c75be9870be905000000000017a914754e590d36ddb5133ad42ef307e965ae1e269b9b87aa6e03000000000017a914e10a813b0466a8ad71b55b019a84439d1fdec4fd870bcd04000000000017a914e2389b6e474c5995892f9aca0e3c7bd060424c2387400d03000000000017a91494ab53e98ecbb0a1b82a3ae29eb412c8e486347f87bf316e00000000001976a914f33f93ea8d71b97c509be03a95a86c8d546694bf88ac475605000000000017a914eb2b8be2635fc27dc3c539b3d7399bd2a113d506871f6903000000000017a914f60512c91fc08edb50ac6ffdad7a757e2ca6be4e87878205000000000017a9148c18b0259e0621d81c911d6fe98edc19b7167b59879b6f4c5d0000000017a914c7a117735453b6d989796b3cab8026e5b0751c0487409c00000000000017a914ffda23d1c562f01440a164e0c0a3ca6aea7896e98746d31300000000001976a914b7372e9f6208a840e881e960b799e9901c52afd688ac4fc60a000000000017a91464820dcc66f1341547e67de975922cd806611a6e87c03b47030000000017a91469f376a4c53f006b7535390e7bbb0917caf5e8c68719d203000000000017a914c5aa73245013e6b0ac938c61f33d28b39c4c6c4a87958c0900000000001976a914e882abc801b93a350cdd738e328d6f40e0434c4288ac400d03000000000017a914a0f88c112fd79b5756037e6fadb50c0e005fa736873a7003000000000017a914949e902fcf4c3fd1be40f9718f01f3e2563ebd9f8718fdac01000000001976a914eab7a6a93d4c18c89aa5ee82c91a46e77a076b3988ac379d0300000000001976a91405f19052f84eb745011940aa966671491c5b8a5a88ac88f504000000000017a914f3c86054e290ad37f2cf90d15c229a07a727c59387cc6108000000000017a9142e65e9378970dc94a564c06a3e86ae06b4621594870247304402203c047ca38fe3bd56a0088f81aa30ff35223c63d79a1842984ea07cb868f8364602202331c8b754f171a07e63bf11122a0524e8d83cb99b1231fcd63fa791e193b43b012103cabf0eca07019f3fb4fa9b4c85024bbf66cd74bace5182251c8bb02a45256335eb480800", "vin": [{"txinwitness": ["304402203c047ca38fe3bd56a0088f81aa30ff35223c63d79a1842984ea07cb868f8364602202331c8b754f171a07e63bf11122a0524e8d83cb99b1231fcd63fa791e193b43b01", "03cabf0eca07019f3fb4fa9b4c85024bbf66cd74bace5182251c8bb02a45256335"], "sequence": 4294967294, "scriptSig": {"hex": "160014fd892d610784424780ea441090aeb17b05f7bf01", "asm": "0014fd892d610784424780ea441090aeb17b05f7bf01"}, "vout": 19, "txid": "c8e14981533e458d7ec91cd9ba25fcd2b1a68bbbe28ddfd2fbedbabc9e086055"}], "txid": "718eaa6fad51ed99938d0a9e6d4805eaf9cf8f2dfbfdf2320bc63ea50b7f4262", "blocktime": 1537871767, "version": 2, "confirmations": 11490, "time": 1537871767, "locktime": 542955, "vsize": 1404, "size": 1485}