{"hash": "7192c5b03afa8e333bc946f49a65dbb6f78abd4362f4573672fc21e41aa80bb2", "blockhash": "0000000000000000001f0ddff1eddb255c1121bcd4da4f1bc9a0da00cae72433", "vout": [{"scriptPubKey": {"reqSigs": 1, "hex": "76a9142fcaebf0bdce54427518f3d9a5c84f5a14722cd988ac", "addresses": ["15MhrG1xKVRbrZz8pq7iFy3yvHRx2SiVaJ"], "asm": "OP_DUP OP_HASH160 2fcaebf0bdce54427518f3d9a5c84f5a14722cd9 OP_EQUALVERIFY OP_CHECKSIG", "type": "pubkeyhash"}, "value": 0.01718846, "n": 0}, {"scriptPubKey": {"reqSigs": 1, "hex": "76a914cfa20afe07e689ceee9514ca3d6d1a628470c1e488ac", "addresses": ["1KvrzegTZ2VYQLp4aYy7qVaEPKQ16iLyZw"], "asm": "OP_DUP OP_HASH160 cfa20afe07e689ceee9514ca3d6d1a628470c1e4 OP_EQUALVERIFY OP_CHECKSIG", "type": "pubkeyhash"}, "value": 0.09683194, "n": 1}], "hex": "0100000001befb1d57e930989d22ba4e2ffcdd31b310d4b1568e0927b13eaf9e798b5812a8000000006b483045022100b29687dca086b9f1c79d2f8451f83b0cd8c95ec6617ad2c4e5992e82f5e7f8110220333bb3e066fc66254aaa7d0ea597bce1e7c1021001ef42691cd08bedf76658a00121026a2821967c3234bc491589cfc7eeeb1ce7000a4e40b216d1ff1f68e284f0a6e8ffffffff023e3a1a00000000001976a9142fcaebf0bdce54427518f3d9a5c84f5a14722cd988acfac09300000000001976a914cfa20afe07e689ceee9514ca3d6d1a628470c1e488ac00000000", "vin": [{"sequence": 4294967295, "scriptSig": {"hex": "483045022100b29687dca086b9f1c79d2f8451f83b0cd8c95ec6617ad2c4e5992e82f5e7f8110220333bb3e066fc66254aaa7d0ea597bce1e7c1021001ef42691cd08bedf76658a00121026a2821967c3234bc491589cfc7eeeb1ce7000a4e40b216d1ff1f68e284f0a6e8", "asm": "3045022100b29687dca086b9f1c79d2f8451f83b0cd8c95ec6617ad2c4e5992e82f5e7f8110220333bb3e066fc66254aaa7d0ea597bce1e7c1021001ef42691cd08bedf76658a0[ALL] 026a2821967c3234bc491589cfc7eeeb1ce7000a4e40b216d1ff1f68e284f0a6e8"}, "vout": 0, "txid": "a812588b799eaf3eb127098e56b1d410b331ddfc2f4eba229d9830e9571dfbbe"}], "txid": "7192c5b03afa8e333bc946f49a65dbb6f78abd4362f4573672fc21e41aa80bb2", "blocktime": 1537872018, "version": 1, "confirmations": 11489, "time": 1537872018, "locktime": 0, "vsize": 226, "size": 226}