{"hash": "b52fb23d8436fd192d54928898de21403e23c2fce1ebc3e5dff03d719416b27e", "blockhash": "0000000000000000000baef3f32e3676a92c3b2e5da21b426e4f302fc371ce76", "vout": [{"scriptPubKey": {"reqSigs": 1, "hex": "a9141ad5d89085ad291700bf5aa0727b89fff5dc0d0687", "addresses": ["348ufos3k2uTowvWHcCNdSCDr7NdpFukBr"], "asm": "OP_HASH160 1ad5d89085ad291700bf5aa0727b89fff5dc0d06 OP_EQUAL", "type": "scripthash"}, "value": 0.01150283, "n": 0}, {"scriptPubKey": {"reqSigs": 1, "hex": "a914074a69634347a98ca117b3f155ddb47aca44314287", "addresses": ["32MZo6kzG3DCbVWeif9LCGBtM5tVBh12sJ"], "asm": "OP_HASH160 074a69634347a98ca117b3f155ddb47aca443142 OP_EQUAL", "type": "scripthash"}, "value": 0.16321034, "n": 1}], "hex": "01000000000101810621bdc211ec820bab9fc1c9b360f3b827bb33ad05cfc9002c817963cb2c490100000023220020a4c3e8b78551736a8a7307da130fe0371682874a7781bc6b021833795649a1e9ffffffff024b8d11000000000017a9141ad5d89085ad291700bf5aa0727b89fff5dc0d06870a0af9000000000017a914074a69634347a98ca117b3f155ddb47aca44314287040047304402207c3b18af029825e9c557bb460d1aa23cca4827a7370e142a58393a2ceeb1c5d602204188d305dddc6738a5a52bee1902f1ae8f07c9cb9bc70830c32880c7a2840be70147304402200f2bc088863621f36104ee88ba33dc223663eb16ea2e0d9403fcf60eaf6afda202205451c459f01079435af873ce470a241364467b1bc677d186fc2e7d2d0c185e1b0147522102bfdd608b68f9f41dac4ad1e97745c073ed2f0a71179a03fcb5caf640dac9c5672103f62b1d27158b53be9caeae920614d9c61c0d4e3ab8a2b8afbc8e020933c6e68352ae00000000", "vin": [{"txinwitness": ["", "304402207c3b18af029825e9c557bb460d1aa23cca4827a7370e142a58393a2ceeb1c5d602204188d305dddc6738a5a52bee1902f1ae8f07c9cb9bc70830c32880c7a2840be701", "304402200f2bc088863621f36104ee88ba33dc223663eb16ea2e0d9403fcf60eaf6afda202205451c459f01079435af873ce470a241364467b1bc677d186fc2e7d2d0c185e1b01", "522102bfdd608b68f9f41dac4ad1e97745c073ed2f0a71179a03fcb5caf640dac9c5672103f62b1d27158b53be9caeae920614d9c61c0d4e3ab8a2b8afbc8e020933c6e68352ae"], "sequence": 4294967295, "scriptSig": {"hex": "220020a4c3e8b78551736a8a7307da130fe0371682874a7781bc6b021833795649a1e9", "asm": "0020a4c3e8b78551736a8a7307da130fe0371682874a7781bc6b021833795649a1e9"}, "vout": 1, "txid": "492ccb6379812c00c9cf05ad33bb27b8f360b3c9c19fab0b82ec11c2bd210681"}], "txid": "719bec1851a05398192d7c1ed3206afbb0c05a7e8fea3789192938abb3c0dff7", "blocktime": 1537876114, "version": 1, "confirmations": 11460, "time": 1537876114, "locktime": 0, "vsize": 205, "size": 370}