{"hash": "719c46bbcac7e2b4ba8ad618cac3fa1f2193d2dad76d92f78b955f49588d360c", "blockhash": "00000000000000000024a2167bbff67b0be802c0b01cdd79e6331c2be6459f87", "vout": [{"scriptPubKey": {"reqSigs": 1, "hex": "a914dbd64cdad7f25c2bf0915e9ca87db0cda438e5d387", "addresses": ["3MjQdPqVJpLMaNNNWmSCBB6TPaEM542nxh"], "asm": "OP_HASH160 dbd64cdad7f25c2bf0915e9ca87db0cda438e5d3 OP_EQUAL", "type": "scripthash"}, "value": 0.00015613, "n": 0}, {"scriptPubKey": {"reqSigs": 1, "hex": "76a9140ac1477257a2f1e21702618c6bc41a6d1139214b88ac", "addresses": ["1ysJBig9qF4fpZmhDyFTRAm27RDPre58q"], "asm": "OP_DUP OP_HASH160 0ac1477257a2f1e21702618c6bc41a6d1139214b OP_EQUALVERIFY OP_CHECKSIG", "type": "pubkeyhash"}, "value": 0.00489374, "n": 1}], "hex": "010000000169b5fe18c272f7ae26dde78d340a29380549234ca29931737113777242323cdc000000006a47304402202dbaf21bc03021170a2746371907c4c8cfc966935d3664806630ea4bd9bf3efa022034a4a1e0f2dd9584e787a08d07b53be45c1d3751621f0f98ba225bdb8a4464850121035a5681554f667fd6328864052b85e9166448327993673e422295e7f924ded266ffffffff02fd3c00000000000017a914dbd64cdad7f25c2bf0915e9ca87db0cda438e5d3879e770700000000001976a9140ac1477257a2f1e21702618c6bc41a6d1139214b88ac00000000", "vin": [{"sequence": 4294967295, "scriptSig": {"hex": "47304402202dbaf21bc03021170a2746371907c4c8cfc966935d3664806630ea4bd9bf3efa022034a4a1e0f2dd9584e787a08d07b53be45c1d3751621f0f98ba225bdb8a4464850121035a5681554f667fd6328864052b85e9166448327993673e422295e7f924ded266", "asm": "304402202dbaf21bc03021170a2746371907c4c8cfc966935d3664806630ea4bd9bf3efa022034a4a1e0f2dd9584e787a08d07b53be45c1d3751621f0f98ba225bdb8a446485[ALL] 035a5681554f667fd6328864052b85e9166448327993673e422295e7f924ded266"}, "vout": 0, "txid": "dc3c324272771371733199a24c23490538290a348de7dd26aef772c218feb569"}], "txid": "719c46bbcac7e2b4ba8ad618cac3fa1f2193d2dad76d92f78b955f49588d360c", "blocktime": 1537870564, "version": 1, "confirmations": 11515, "time": 1537870564, "locktime": 0, "vsize": 223, "size": 223}