{"hash": "719f873296bfe23917c03bfb5b1871c110b4be3add8774075899f74a9ed9d208", "blockhash": "0000000000000000001cda96e906b7601b7a6fb1a3b62bca570a9e5d8f4b3de1", "vout": [{"scriptPubKey": {"reqSigs": 1, "hex": "a9144f74725227691b83c4ac52e50c558cae09e2fccd87", "addresses": ["38w8oYiQryQDVZqJpYC7fQVvQo8gjptZ8m"], "asm": "OP_HASH160 4f74725227691b83c4ac52e50c558cae09e2fccd OP_EQUAL", "type": "scripthash"}, "value": 0.01992203, "n": 0}, {"scriptPubKey": {"reqSigs": 1, "hex": "76a9148cc9ec416831ddd5fe8e0782d929c5ad399975bb88ac", "addresses": ["1DqRVhoMx4PQKy5UaopGLaMWSJPrswqzgr"], "asm": "OP_DUP OP_HASH160 8cc9ec416831ddd5fe8e0782d929c5ad399975bb OP_EQUALVERIFY OP_CHECKSIG", "type": "pubkeyhash"}, "value": 0.73159441, "n": 1}], "hex": "0100000001a61aa18a78bc71c78919bc50d7b77f676768ed74a6c12568e605d5c9835c3ac6000000006b483045022100f54b5abba6c84d4066330439faf232f7db58993c2954dbb4ffdd21e4adaaecc3022009e2dd394247909a395250c8d3c72d509d0282bd6774ea96c1f2ae454742a4e0012102896a10e981bf4802a4b588e52d896a46ea69509ecb4262d6c702a35b5ee19859ffffffff020b661e000000000017a9144f74725227691b83c4ac52e50c558cae09e2fccd8711535c04000000001976a9148cc9ec416831ddd5fe8e0782d929c5ad399975bb88ac00000000", "vin": [{"sequence": 4294967295, "scriptSig": {"hex": "483045022100f54b5abba6c84d4066330439faf232f7db58993c2954dbb4ffdd21e4adaaecc3022009e2dd394247909a395250c8d3c72d509d0282bd6774ea96c1f2ae454742a4e0012102896a10e981bf4802a4b588e52d896a46ea69509ecb4262d6c702a35b5ee19859", "asm": "3045022100f54b5abba6c84d4066330439faf232f7db58993c2954dbb4ffdd21e4adaaecc3022009e2dd394247909a395250c8d3c72d509d0282bd6774ea96c1f2ae454742a4e0[ALL] 02896a10e981bf4802a4b588e52d896a46ea69509ecb4262d6c702a35b5ee19859"}, "vout": 0, "txid": "c63a5c83c9d505e66825c1a674ed6867677fb7d750bc1989c771bc788aa11aa6"}], "txid": "719f873296bfe23917c03bfb5b1871c110b4be3add8774075899f74a9ed9d208", "blocktime": 1537873282, "version": 1, "confirmations": 11483, "time": 1537873282, "locktime": 0, "vsize": 224, "size": 224}