{"hash": "2ef91f3e4ced71866eed11e62c672362e7b96e3b5da01f2c0eb3a402060335d2", "blockhash": "00000000000000000024a2167bbff67b0be802c0b01cdd79e6331c2be6459f87", "vout": [{"scriptPubKey": {"reqSigs": 1, "hex": "76a914cddc0a243442c269c09286b471b1b53f09bedaa388ac", "addresses": ["1KmV7wrNAtQPasDvCDn5gyX6TqAkGtQ4xj"], "asm": "OP_DUP OP_HASH160 cddc0a243442c269c09286b471b1b53f09bedaa3 OP_EQUALVERIFY OP_CHECKSIG", "type": "pubkeyhash"}, "value": 0.0060396, "n": 0}, {"scriptPubKey": {"reqSigs": 1, "hex": "a91455784420b6f9298bc3cc656a618f51c000c8b2d487", "addresses": ["39UwS5x38SHgdEo1TdHF7PfXiBXSSqEDvU"], "asm": "OP_HASH160 55784420b6f9298bc3cc656a618f51c000c8b2d4 OP_EQUAL", "type": "scripthash"}, "value": 0.02218916, "n": 1}], "hex": "01000000000101219aa44cc6d0f198c8923eb6f36d36128ef9a3817874be9dc2d91efbb137a4030100000023220020538bd6ec0a46a1e586d0fb22359f72ec6dced5d77b49474797c6f91225da76ceffffffff0238370900000000001976a914cddc0a243442c269c09286b471b1b53f09bedaa388aca4db21000000000017a91455784420b6f9298bc3cc656a618f51c000c8b2d487040047304402203d37471123055f674315def52c96fe866d65e304f0044b19a215bf2140e7be330220411b75ab53444067e3b6dd06e7735f7ea760b5c45460cfdd76080bc13c9290a701483045022100c0e5ac8108dff29c00454b77f6f06a649d633ac67fca49ba158540331213a5c402204e14de3950c7ede1bdb123d3cf42593fbad2849be604e3947059042b2c1431100169522103f4eb42665be6e06ba1fa00ea25a0feae07cf205671aa88e66d256f68ada0f27a210235e1261d6ce2c29eb958651565a00e8f095e169cbb9fe4bb294179c813b60e4d21032713793d2dc5a5de2446e68198014f94c6b44e116a78b17a9dd027f2e0249f4f53ae00000000", "vin": [{"txinwitness": ["", "304402203d37471123055f674315def52c96fe866d65e304f0044b19a215bf2140e7be330220411b75ab53444067e3b6dd06e7735f7ea760b5c45460cfdd76080bc13c9290a701", "3045022100c0e5ac8108dff29c00454b77f6f06a649d633ac67fca49ba158540331213a5c402204e14de3950c7ede1bdb123d3cf42593fbad2849be604e3947059042b2c14311001", "522103f4eb42665be6e06ba1fa00ea25a0feae07cf205671aa88e66d256f68ada0f27a210235e1261d6ce2c29eb958651565a00e8f095e169cbb9fe4bb294179c813b60e4d21032713793d2dc5a5de2446e68198014f94c6b44e116a78b17a9dd027f2e0249f4f53ae"], "sequence": 4294967295, "scriptSig": {"hex": "220020538bd6ec0a46a1e586d0fb22359f72ec6dced5d77b49474797c6f91225da76ce", "asm": "0020538bd6ec0a46a1e586d0fb22359f72ec6dced5d77b49474797c6f91225da76ce"}, "vout": 1, "txid": "03a437b1fb1ed9c29dbe747881a3f98e12366df3b63e92c898f1d0c64ca49a21"}], "txid": "71a2299a540517e075eb817931bc26d4647a85e3705ee38ba3035952e0cfa27b", "blocktime": 1537870564, "version": 1, "confirmations": 11515, "time": 1537870564, "locktime": 0, "vsize": 216, "size": 407}