{"hash": "71a3d290e6b1acc7121365448c305ac7acf544dc7dcdc957d072a7cffb9d9ea2", "blockhash": "0000000000000000001cda96e906b7601b7a6fb1a3b62bca570a9e5d8f4b3de1", "vout": [{"scriptPubKey": {"reqSigs": 1, "hex": "76a914e5d853952ececca50fa58e0c6e79d66b7141166a88ac", "addresses": ["1MxJtZLbjvsVZKbhCmyMNsuhViQx3zaa1f"], "asm": "OP_DUP OP_HASH160 e5d853952ececca50fa58e0c6e79d66b7141166a OP_EQUALVERIFY OP_CHECKSIG", "type": "pubkeyhash"}, "value": 0.007493, "n": 0}, {"scriptPubKey": {"reqSigs": 1, "hex": "76a914300c2065bb429274ac33b2f7d65cd369891836ed88ac", "addresses": ["15P3xmyjT1c4uutqUvm4ai2FCDhRaiPhTC"], "asm": "OP_DUP OP_HASH160 300c2065bb429274ac33b2f7d65cd369891836ed OP_EQUALVERIFY OP_CHECKSIG", "type": "pubkeyhash"}, "value": 0.36027935, "n": 1}], "hex": "0100000001644b5f4a7856d792034fdc5415b24e1df06cfcc7610d5a97c96cd4bf269e6679000000006b483045022100f4e926a0fd748a05594985b3b5a66e8d50bef7ca885f99cea8a00e58c2227d14022014102eefb5a5fd22f8e28638b39cd304417696022be0476744166ae38778b6e1012102f6f231698ff8b077d7749c46d2b86f9d9597be4025441b37cd4bcd2b5ba4a076ffffffff02f46e0b00000000001976a914e5d853952ececca50fa58e0c6e79d66b7141166a88ac1fbe2502000000001976a914300c2065bb429274ac33b2f7d65cd369891836ed88ac00000000", "vin": [{"sequence": 4294967295, "scriptSig": {"hex": "483045022100f4e926a0fd748a05594985b3b5a66e8d50bef7ca885f99cea8a00e58c2227d14022014102eefb5a5fd22f8e28638b39cd304417696022be0476744166ae38778b6e1012102f6f231698ff8b077d7749c46d2b86f9d9597be4025441b37cd4bcd2b5ba4a076", "asm": "3045022100f4e926a0fd748a05594985b3b5a66e8d50bef7ca885f99cea8a00e58c2227d14022014102eefb5a5fd22f8e28638b39cd304417696022be0476744166ae38778b6e1[ALL] 02f6f231698ff8b077d7749c46d2b86f9d9597be4025441b37cd4bcd2b5ba4a076"}, "vout": 0, "txid": "79669e26bfd46cc9975a0d61c7fc6cf01d4eb21554dc4f0392d756784a5f4b64"}], "txid": "71a3d290e6b1acc7121365448c305ac7acf544dc7dcdc957d072a7cffb9d9ea2", "blocktime": 1537873282, "version": 1, "confirmations": 11480, "time": 1537873282, "locktime": 0, "vsize": 226, "size": 226}