{"hash": "924ea3ca10e4db65fe5840e87da77e560fb988aae8a01f1434b93d9a60ef359e", "blockhash": "0000000000000000001f0ddff1eddb255c1121bcd4da4f1bc9a0da00cae72433", "vout": [{"scriptPubKey": {"reqSigs": 1, "hex": "76a9148d3ea1a917d300e0b527fa1e7ad4fc2222d9f33288ac", "addresses": ["1DsqJm5puCeVDWDfNDptpGHkVQrtG5a3aQ"], "asm": "OP_DUP OP_HASH160 8d3ea1a917d300e0b527fa1e7ad4fc2222d9f332 OP_EQUALVERIFY OP_CHECKSIG", "type": "pubkeyhash"}, "value": 0.0029546, "n": 0}, {"scriptPubKey": {"reqSigs": 1, "hex": "a91429695ed07adf00f9f3c28efdd9c991fbb8ce9af787", "addresses": ["35TyrfqMy6cv7NS5UtbufCJ7Y5eetSonsy"], "asm": "OP_HASH160 29695ed07adf00f9f3c28efdd9c991fbb8ce9af7 OP_EQUAL", "type": "scripthash"}, "value": 0.00999776, "n": 1}], "hex": "020000000001020bfa6b4cf640c822838ea906d25d66d6adbd3dc72899491cd6acec5f65c240a10700000017160014576c49202e5c2a80fb28a6ec9f909f772931f0abfeffffffb3aaf15a03ff55d58398f39e1366f4f959530fe07927fb83c9985093c2a210040100000017160014421bac38d45c43503c13e5a30edbf73790245f32feffffff0224820400000000001976a9148d3ea1a917d300e0b527fa1e7ad4fc2222d9f33288ac60410f000000000017a91429695ed07adf00f9f3c28efdd9c991fbb8ce9af78702483045022100a8e2d4acf4a6643d3b5e2f0a51020832c571368ebeb04323c4d38318aef434050220312e49457c1829dda34b572272828803693349543231723a28f58dd88e7c5c6701210373309b27638e70e8740f23563db88939da67231db7d6fe0edbd9209062d8902f02483045022100a2b05faf215af92d4e75927960ccfed1f2e1ee5ca5b12f01a57617b863189d5702204a0db1ab0a922bb6f456c261ff010844f82fe2b0df20025d1fa73994c0f3e28101210205f9d56c01d131b3c1dfb7a22dd06a08ea47b4190bd02f32db8a29a49be5ca5fee480800", "vin": [{"txinwitness": ["3045022100a8e2d4acf4a6643d3b5e2f0a51020832c571368ebeb04323c4d38318aef434050220312e49457c1829dda34b572272828803693349543231723a28f58dd88e7c5c6701", "0373309b27638e70e8740f23563db88939da67231db7d6fe0edbd9209062d8902f"], "sequence": 4294967294, "scriptSig": {"hex": "160014576c49202e5c2a80fb28a6ec9f909f772931f0ab", "asm": "0014576c49202e5c2a80fb28a6ec9f909f772931f0ab"}, "vout": 7, "txid": "a140c2655fecacd61c499928c73dbdadd6665dd206a98e8322c840f64c6bfa0b"}, {"txinwitness": ["3045022100a2b05faf215af92d4e75927960ccfed1f2e1ee5ca5b12f01a57617b863189d5702204a0db1ab0a922bb6f456c261ff010844f82fe2b0df20025d1fa73994c0f3e28101", "0205f9d56c01d131b3c1dfb7a22dd06a08ea47b4190bd02f32db8a29a49be5ca5f"], "sequence": 4294967294, "scriptSig": {"hex": "160014421bac38d45c43503c13e5a30edbf73790245f32", "asm": "0014421bac38d45c43503c13e5a30edbf73790245f32"}, "vout": 1, "txid": "0410a2c2935098c983fb2779e00f5359f9f466139ef39883d555ff035af1aab3"}], "txid": "71a6beb89f8d8ff92fda7a3114f47b7ef8d1a7d5b6577708f3a5b36c23ae6b95", "blocktime": 1537872018, "version": 2, "confirmations": 11489, "time": 1537872018, "locktime": 542958, "vsize": 259, "size": 422}