{"hash": "71a7b74ba6410dde32fd4352742208064e05394662c4a591c6660d895085cec9", "blockhash": "0000000000000000000baef3f32e3676a92c3b2e5da21b426e4f302fc371ce76", "vout": [{"scriptPubKey": {"type": "nulldata", "hex": "6a146f6d6e69000000000000001f000009c3e4f815e3", "asm": "OP_RETURN 6f6d6e69000000000000001f000009c3e4f815e3"}, "value": 0.0, "n": 0}, {"scriptPubKey": {"reqSigs": 1, "hex": "76a914a25dec4d0011064ef106a983c39c7a540699f22088ac", "addresses": ["1FoWyxwPXuj4C6abqwhjDWdz6D4PZgYRjA"], "asm": "OP_DUP OP_HASH160 a25dec4d0011064ef106a983c39c7a540699f220 OP_EQUALVERIFY OP_CHECKSIG", "type": "pubkeyhash"}, "value": 0.01990376, "n": 1}, {"scriptPubKey": {"reqSigs": 1, "hex": "76a9145720ea25cb8eb4eedff5d02762e27252955abdda88ac", "addresses": ["18whDe2pUMvWUVWUoR7vya91NHw92A3sDR"], "asm": "OP_DUP OP_HASH160 5720ea25cb8eb4eedff5d02762e27252955abdda OP_EQUALVERIFY OP_CHECKSIG", "type": "pubkeyhash"}, "value": 5.46e-06, "n": 2}], "hex": "01000000011dc5ce86d2e99aa0f234d2faf92cd4c395e10716c1b126b47e62e543e9aed81c020000006a473044022018651b1f56aa9c8fbde20a63f15e24e38066c86190742005366424b00b52ed2202203a2a03e330a7d52f6cf4ffded72a3061da6d52af144d8c9be21c863b0b06ea64012103da5bac7b36d5aa38f531c6b9601e21bb598a4b6716ebed38b009a55dabde9440feffffff030000000000000000166a146f6d6e69000000000000001f000009c3e4f815e3e85e1e00000000001976a914a25dec4d0011064ef106a983c39c7a540699f22088ac22020000000000001976a9145720ea25cb8eb4eedff5d02762e27252955abdda88ac17490800", "vin": [{"sequence": 4294967294, "scriptSig": {"hex": "473044022018651b1f56aa9c8fbde20a63f15e24e38066c86190742005366424b00b52ed2202203a2a03e330a7d52f6cf4ffded72a3061da6d52af144d8c9be21c863b0b06ea64012103da5bac7b36d5aa38f531c6b9601e21bb598a4b6716ebed38b009a55dabde9440", "asm": "3044022018651b1f56aa9c8fbde20a63f15e24e38066c86190742005366424b00b52ed2202203a2a03e330a7d52f6cf4ffded72a3061da6d52af144d8c9be21c863b0b06ea64[ALL] 03da5bac7b36d5aa38f531c6b9601e21bb598a4b6716ebed38b009a55dabde9440"}, "vout": 2, "txid": "1cd8aee943e5627eb426b1c11607e195c3d42cf9fad234f2a09ae9d286cec51d"}], "txid": "71a7b74ba6410dde32fd4352742208064e05394662c4a591c6660d895085cec9", "blocktime": 1537876114, "version": 1, "confirmations": 11459, "time": 1537876114, "locktime": 542999, "vsize": 256, "size": 256}