{"hash": "2bb6a6769f447e286a51dd50a4077f7615a668d042c5426247df01ad24598ad8", "blockhash": "0000000000000000001f76057863aec43deb6fa401d9628bb513d65a8098bfab", "vout": [{"scriptPubKey": {"reqSigs": 1, "hex": "a914581a6e653b2e74f2c37e77880471afd234f4463a87", "addresses": ["39is3u6cbBMGwTvtrL4NW2yJg9Dz2YA6ey"], "asm": "OP_HASH160 581a6e653b2e74f2c37e77880471afd234f4463a OP_EQUAL", "type": "scripthash"}, "value": 0.00169572, "n": 0}, {"scriptPubKey": {"reqSigs": 1, "hex": "0014c3adccb8dc826ca4b29ec29437ef30d4a8e8e7fa", "addresses": ["bc1qcwkuewxusfk2fv57c22r0mes6j5w3el64hf2qe"], "asm": "0 c3adccb8dc826ca4b29ec29437ef30d4a8e8e7fa", "type": "witness_v0_keyhash"}, "value": 2.636e-05, "n": 1}], "hex": "01000000000101c0219b08461fe6e52f7134e88e5113497454c7590880868ae9fd841c225a9cf40300000017160014dc8bf614d1b443c5685f2d1c62db2dd9b42e42e1ffffffff02649602000000000017a914581a6e653b2e74f2c37e77880471afd234f4463a874c0a000000000000160014c3adccb8dc826ca4b29ec29437ef30d4a8e8e7fa02483045022100a40af87af16f195805da724523a5fc33ec3eefc451c7e82be0571f6cb2dbd37102205de807901f5c26a8a396b2dd931cf41325ff327137f9c8432e6d2f8a6c4b79390121029ac174ab5d28f9971e3bf8cbb5e12f9367aec98c16389ff8edc04f0f974c85ca00000000", "vin": [{"txinwitness": ["3045022100a40af87af16f195805da724523a5fc33ec3eefc451c7e82be0571f6cb2dbd37102205de807901f5c26a8a396b2dd931cf41325ff327137f9c8432e6d2f8a6c4b793901", "029ac174ab5d28f9971e3bf8cbb5e12f9367aec98c16389ff8edc04f0f974c85ca"], "sequence": 4294967295, "scriptSig": {"hex": "160014dc8bf614d1b443c5685f2d1c62db2dd9b42e42e1", "asm": "0014dc8bf614d1b443c5685f2d1c62db2dd9b42e42e1"}, "vout": 3, "txid": "f49c5a221c84fde98a86800859c754744913518ee834712fe5e61f46089b21c0"}], "txid": "71ad7b9862dec82f6bf23349be95d8febffda640baa26e92d5c288f7a71c35cf", "blocktime": 1537873891, "version": 1, "confirmations": 11478, "time": 1537873891, "locktime": 0, "vsize": 165, "size": 247}