{"hash": "4dae2cf86a94ebfca09d8ede960ceee5b84984947f9df9118d450fcbe567d76d", "blockhash": "0000000000000000000dcc0f55137456b1a82d3642486a52398922ac4d620174", "vout": [{"scriptPubKey": {"reqSigs": 1, "hex": "a914905c2f048071863c68fa302cb5bebc8f75d5711787", "addresses": ["3ErKfCahMPUYfcH3HGM7MFUFqBL62JjzxY"], "asm": "OP_HASH160 905c2f048071863c68fa302cb5bebc8f75d57117 OP_EQUAL", "type": "scripthash"}, "value": 0.01214268, "n": 0}, {"scriptPubKey": {"reqSigs": 1, "hex": "76a914ba800957f2aeee1bcb434c3387d097e1f433b4d588ac", "addresses": ["1J184p7dMH4mBVP2TsbxHbtp8aMBwMqQdU"], "asm": "OP_DUP OP_HASH160 ba800957f2aeee1bcb434c3387d097e1f433b4d5 OP_EQUALVERIFY OP_CHECKSIG", "type": "pubkeyhash"}, "value": 0.00402072, "n": 1}], "hex": "020000000001011918a2c920ec0a3e63d0b1c52bc1d13e3ddb9a0f61052140f4141ec9406f0d59000000001716001468edc83ee5b8d63346cd91f48e1b40690e75625bfdffffff023c8712000000000017a914905c2f048071863c68fa302cb5bebc8f75d571178798220600000000001976a914ba800957f2aeee1bcb434c3387d097e1f433b4d588ac0247304402201421b3e02a5bf904924a0013a92959b51994d7948f62c0d81d223d6065545f16022021c8b5dd64ab7583b18aec408bbf55838affe805121b4a1e11ebc9838a4658200121034d71128f18909cb3481aee514d62ebf128fb9bc1e84abce61b71eea609ccab180c490800", "vin": [{"txinwitness": ["304402201421b3e02a5bf904924a0013a92959b51994d7948f62c0d81d223d6065545f16022021c8b5dd64ab7583b18aec408bbf55838affe805121b4a1e11ebc9838a46582001", "034d71128f18909cb3481aee514d62ebf128fb9bc1e84abce61b71eea609ccab18"], "sequence": 4294967293, "scriptSig": {"hex": "16001468edc83ee5b8d63346cd91f48e1b40690e75625b", "asm": "001468edc83ee5b8d63346cd91f48e1b40690e75625b"}, "vout": 0, "txid": "590d6f40c91e14f4402105610f9adb3d3ed1c12bc5b1d0633e0aec20c9a21819"}], "txid": "71afc2dc4d374dab36d99b536e4d64582f189259d48c90d6b5536d001e6c6cdc", "blocktime": 1537870268, "version": 2, "confirmations": 11518, "time": 1537870268, "locktime": 542988, "vsize": 168, "size": 249}