{"hash": "71b1443b89780da1bad2f7b2bdd6f621095abfbd423a46afa8c05fe9d7f63537", "blockhash": "0000000000000000001f76057863aec43deb6fa401d9628bb513d65a8098bfab", "vout": [{"scriptPubKey": {"reqSigs": 1, "hex": "a914603cde566d0c42c72629de61498524ae929fccb987", "addresses": ["3ATsiBF8kYtro3dhA3wAiDN2ZsdECuPDeJ"], "asm": "OP_HASH160 603cde566d0c42c72629de61498524ae929fccb9 OP_EQUAL", "type": "scripthash"}, "value": 0.00203256, "n": 0}, {"scriptPubKey": {"reqSigs": 1, "hex": "76a9147cf1e86c23b10f8d088b1f1514efb8fb27eeb80d88ac", "addresses": ["1CPeaqsHZmtyKXcVkkem8iX2aro6c55t2e"], "asm": "OP_DUP OP_HASH160 7cf1e86c23b10f8d088b1f1514efb8fb27eeb80d OP_EQUALVERIFY OP_CHECKSIG", "type": "pubkeyhash"}, "value": 0.03522505, "n": 1}], "hex": "0100000001827241ad7ab9eb974a8a8367a7139555e15807d8f7cfd358a0a45b8ffe7b2d2e010000006a47304402203515fc550c946297e484fdc0ffbca2848c00a395b4ff2d17e0d7302389e2d70d02203cb0871ab659d2ba8515b15d39f390cab04b09ae1b014040ffb0d4d97488a8d80121031b6b42f3a21d63641e4fc7ae24596e4b1c2942e3e113ce976d1e0fecb19e9472ffffffff02f81903000000000017a914603cde566d0c42c72629de61498524ae929fccb987c9bf3500000000001976a9147cf1e86c23b10f8d088b1f1514efb8fb27eeb80d88ac00000000", "vin": [{"sequence": 4294967295, "scriptSig": {"hex": "47304402203515fc550c946297e484fdc0ffbca2848c00a395b4ff2d17e0d7302389e2d70d02203cb0871ab659d2ba8515b15d39f390cab04b09ae1b014040ffb0d4d97488a8d80121031b6b42f3a21d63641e4fc7ae24596e4b1c2942e3e113ce976d1e0fecb19e9472", "asm": "304402203515fc550c946297e484fdc0ffbca2848c00a395b4ff2d17e0d7302389e2d70d02203cb0871ab659d2ba8515b15d39f390cab04b09ae1b014040ffb0d4d97488a8d8[ALL] 031b6b42f3a21d63641e4fc7ae24596e4b1c2942e3e113ce976d1e0fecb19e9472"}, "vout": 1, "txid": "2e2d7bfe8f5ba4a058d3cff7d80758e1559513a767838a4a97ebb97aad417282"}], "txid": "71b1443b89780da1bad2f7b2bdd6f621095abfbd423a46afa8c05fe9d7f63537", "blocktime": 1537873891, "version": 1, "confirmations": 11475, "time": 1537873891, "locktime": 0, "vsize": 223, "size": 223}