{"hash": "71b7d858c6b82501622e9f28b4cff79fab04314eb866543015ff75f43ac8d6e2", "blockhash": "0000000000000000000e13cef7c366c0283d82e591d1acd082e914b08063cdf1", "vout": [{"scriptPubKey": {"reqSigs": 1, "hex": "76a914a594ca46cfc4319099cae6f06cd7e44a9b67814088ac", "addresses": ["1G6WjmoLPLFUwBUC4WUrcSDV7oix3QzjmH"], "asm": "OP_DUP OP_HASH160 a594ca46cfc4319099cae6f06cd7e44a9b678140 OP_EQUALVERIFY OP_CHECKSIG", "type": "pubkeyhash"}, "value": 0.00516242, "n": 0}, {"scriptPubKey": {"reqSigs": 1, "hex": "a9143b206e3d9ef04dbde5a1b639cd883f421d70d23a87", "addresses": ["375eeBU3M4D5BUHixZzp3cN2cRP1vEwJN6"], "asm": "OP_HASH160 3b206e3d9ef04dbde5a1b639cd883f421d70d23a OP_EQUAL", "type": "scripthash"}, "value": 0.01565551, "n": 1}], "hex": "0100000001b79dd5286af3eabff7c54f8ad0cdc053097e39e46ae01f8cb62b3850ac2e57ec00000000fdfd00004830450221009696d158488c76604009bcac896e596d07f1bbc754f6f0c710b15330c1807d81022057f1350ab23b7e27e1143067a09ff7a7103efdfd4c4a09d7a2ae6827e2a7949e0147304402202d00e608de34a93a087fea0cc8525cd735f9064b75ac7223fc068c35e1b005a602202e3b0aabc4539d03d85f4629e40abcb6329773d6a4f8015f2b59f7da845f0133014c69522102aa1d9d8d6bcc4b9de448a95f2b1ea53aa2d4d86b6d8f91289343d3f39a7c1f402102abd530c60b203540f4bb0119039fe5874667fcd2e63f42a9732184f07d984eeb2103c4413650af9ac9d2bbc292d8ff01d41f1b2eb7ff840df5c9a5c260bc15ac5a5b53aeffffffff0292e00700000000001976a914a594ca46cfc4319099cae6f06cd7e44a9b67814088ac6fe317000000000017a9143b206e3d9ef04dbde5a1b639cd883f421d70d23a8700000000", "vin": [{"sequence": 4294967295, "scriptSig": {"hex": "004830450221009696d158488c76604009bcac896e596d07f1bbc754f6f0c710b15330c1807d81022057f1350ab23b7e27e1143067a09ff7a7103efdfd4c4a09d7a2ae6827e2a7949e0147304402202d00e608de34a93a087fea0cc8525cd735f9064b75ac7223fc068c35e1b005a602202e3b0aabc4539d03d85f4629e40abcb6329773d6a4f8015f2b59f7da845f0133014c69522102aa1d9d8d6bcc4b9de448a95f2b1ea53aa2d4d86b6d8f91289343d3f39a7c1f402102abd530c60b203540f4bb0119039fe5874667fcd2e63f42a9732184f07d984eeb2103c4413650af9ac9d2bbc292d8ff01d41f1b2eb7ff840df5c9a5c260bc15ac5a5b53ae", "asm": "0 30450221009696d158488c76604009bcac896e596d07f1bbc754f6f0c710b15330c1807d81022057f1350ab23b7e27e1143067a09ff7a7103efdfd4c4a09d7a2ae6827e2a7949e[ALL] 304402202d00e608de34a93a087fea0cc8525cd735f9064b75ac7223fc068c35e1b005a602202e3b0aabc4539d03d85f4629e40abcb6329773d6a4f8015f2b59f7da845f0133[ALL] 522102aa1d9d8d6bcc4b9de448a95f2b1ea53aa2d4d86b6d8f91289343d3f39a7c1f402102abd530c60b203540f4bb0119039fe5874667fcd2e63f42a9732184f07d984eeb2103c4413650af9ac9d2bbc292d8ff01d41f1b2eb7ff840df5c9a5c260bc15ac5a5b53ae"}, "vout": 0, "txid": "ec572eac50382bb68c1fe06ae4397e0953c0cdd08a4fc5f7bfeaf36a28d59db7"}], "txid": "71b7d858c6b82501622e9f28b4cff79fab04314eb866543015ff75f43ac8d6e2", "blocktime": 1537871767, "version": 1, "confirmations": 11493, "time": 1537871767, "locktime": 0, "vsize": 372, "size": 372}