{"hash": "71b9fa78ee66921cbf40ba6c33629c0d25d1411bd52ee042deeda85a86eb74b1", "blockhash": "000000000000000000022b45ed06c6f4ccd3cf7fb5ba4856ebd2e58215665228", "vout": [{"scriptPubKey": {"reqSigs": 1, "hex": "76a914e8cea30989bd15530f819b766684b00dc7ba7cfa88ac", "addresses": ["1NDyJtNTjmwk5xPNhjgAMu4HDHigtobu1s"], "asm": "OP_DUP OP_HASH160 e8cea30989bd15530f819b766684b00dc7ba7cfa OP_EQUALVERIFY OP_CHECKSIG", "type": "pubkeyhash"}, "value": 1.44619381, "n": 0}, {"scriptPubKey": {"reqSigs": 1, "hex": "76a9149b892c6d6f9bfc563b37debc5ce861a951e103cb88ac", "addresses": ["1FBQ4igiFpHFhQsTfXbKGeCozix2gnzzR6"], "asm": "OP_DUP OP_HASH160 9b892c6d6f9bfc563b37debc5ce861a951e103cb OP_EQUALVERIFY OP_CHECKSIG", "type": "pubkeyhash"}, "value": 0.00918285, "n": 1}], "hex": "020000000502de6e2f07dacb59785df66d8281def5a19f56a33c26c6f662cca7a628a7ff81000000006a47304402201dfe1741e07efc13fbbcc0527bc843ebe093f4501f87c6f57ad1b3dbca7e80480220222231e6f1188797ec55a0bc86f521f2dae662ca5428e5db43e19465084546b401210255f3af55771d5ab782538ae97f11b518f96aa46d0cbf6011316e88918066fa11feffffff7a78ba788a9c7ecfba2d38179991d1d21d7cae01986422d4ce6da881d3c31a4a010000006b483045022100b0996bcd77aef40839d91cb20d97840af4936f66709b4d90ab8bc333a6e6f5ca02203aa4900825f5713a85318531fb82b0418e74a6598f11679d4bd2d608deffad590121031f77cc8ec5d9c20949471f15fe067b28640c0d2fcd93d6116fcb64bce797a0effeffffffb0591c8d7a452683519ef6c33e0761e22b34358b3a5da3e8f0dda31ef32968bb010000006a47304402206cdb17041f1b746684a2ee5f1b09aade96b155354a137490cabddfd3e3ab2d7a02201cb8f1ba94c6e09bb8bb39fea238a9143d2940aecb7717da3d1bf2b0527292b60121028d8d429721adf02c755fe4f60d323e9ac42bde0c795fc1dfbda9c30f326c0ceafeffffffda3eeb4874d31524241089c930418e8998a31d330dc4fe9e1fdbe275d5debe4a020000006a473044022015d6e2f436847a29d4c0e0581ec9b8a480ed58f35747fcddf1f2a4f3fb1b5e69022004a40b743b504113cbdb03d86dbb395f3e45f6cf17714257e7e8e1277e43dbdd0121026dc2ea9b38f51eae84ce5f953b1785b7fb9cd8a4c143c0548801d7bb9c5abfe6feffffffea2b2474561df65f3b3427677f4922695bf8ec899ffe23a4e06eaed2761c2f4c120000006b483045022100b1fb293dbea3a817749d2ea5270375e23cd73b996116aba62ef6f8b3dd9f353a02201e45624068349a2b6a9905b77447feac3b21589016cfeabbd1bc13e7b8c3af0e0121023510e75c635cb6e751588351134671bcbd156ec74c271131127786c5ecb3adbafeffffff0275b79e08000000001976a914e8cea30989bd15530f819b766684b00dc7ba7cfa88ac0d030e00000000001976a9149b892c6d6f9bfc563b37debc5ce861a951e103cb88ac0b490800", "vin": [{"sequence": 4294967294, "scriptSig": {"hex": "47304402201dfe1741e07efc13fbbcc0527bc843ebe093f4501f87c6f57ad1b3dbca7e80480220222231e6f1188797ec55a0bc86f521f2dae662ca5428e5db43e19465084546b401210255f3af55771d5ab782538ae97f11b518f96aa46d0cbf6011316e88918066fa11", "asm": "304402201dfe1741e07efc13fbbcc0527bc843ebe093f4501f87c6f57ad1b3dbca7e80480220222231e6f1188797ec55a0bc86f521f2dae662ca5428e5db43e19465084546b4[ALL] 0255f3af55771d5ab782538ae97f11b518f96aa46d0cbf6011316e88918066fa11"}, "vout": 0, "txid": "81ffa728a6a7cc62f6c6263ca3569fa1f5de81826df65d7859cbda072f6ede02"}, {"sequence": 4294967294, "scriptSig": {"hex": "483045022100b0996bcd77aef40839d91cb20d97840af4936f66709b4d90ab8bc333a6e6f5ca02203aa4900825f5713a85318531fb82b0418e74a6598f11679d4bd2d608deffad590121031f77cc8ec5d9c20949471f15fe067b28640c0d2fcd93d6116fcb64bce797a0ef", "asm": "3045022100b0996bcd77aef40839d91cb20d97840af4936f66709b4d90ab8bc333a6e6f5ca02203aa4900825f5713a85318531fb82b0418e74a6598f11679d4bd2d608deffad59[ALL] 031f77cc8ec5d9c20949471f15fe067b28640c0d2fcd93d6116fcb64bce797a0ef"}, "vout": 1, "txid": "4a1ac3d381a86dced422649801ae7c1dd2d1919917382dbacf7e9c8a78ba787a"}, {"sequence": 4294967294, "scriptSig": {"hex": "47304402206cdb17041f1b746684a2ee5f1b09aade96b155354a137490cabddfd3e3ab2d7a02201cb8f1ba94c6e09bb8bb39fea238a9143d2940aecb7717da3d1bf2b0527292b60121028d8d429721adf02c755fe4f60d323e9ac42bde0c795fc1dfbda9c30f326c0cea", "asm": "304402206cdb17041f1b746684a2ee5f1b09aade96b155354a137490cabddfd3e3ab2d7a02201cb8f1ba94c6e09bb8bb39fea238a9143d2940aecb7717da3d1bf2b0527292b6[ALL] 028d8d429721adf02c755fe4f60d323e9ac42bde0c795fc1dfbda9c30f326c0cea"}, "vout": 1, "txid": "bb6829f31ea3ddf0e8a35d3a8b35342be261073ec3f69e518326457a8d1c59b0"}, {"sequence": 4294967294, "scriptSig": {"hex": "473044022015d6e2f436847a29d4c0e0581ec9b8a480ed58f35747fcddf1f2a4f3fb1b5e69022004a40b743b504113cbdb03d86dbb395f3e45f6cf17714257e7e8e1277e43dbdd0121026dc2ea9b38f51eae84ce5f953b1785b7fb9cd8a4c143c0548801d7bb9c5abfe6", "asm": "3044022015d6e2f436847a29d4c0e0581ec9b8a480ed58f35747fcddf1f2a4f3fb1b5e69022004a40b743b504113cbdb03d86dbb395f3e45f6cf17714257e7e8e1277e43dbdd[ALL] 026dc2ea9b38f51eae84ce5f953b1785b7fb9cd8a4c143c0548801d7bb9c5abfe6"}, "vout": 2, "txid": "4abeded575e2db1f9efec40d331da398898e4130c98910242415d37448eb3eda"}, {"sequence": 4294967294, "scriptSig": {"hex": "483045022100b1fb293dbea3a817749d2ea5270375e23cd73b996116aba62ef6f8b3dd9f353a02201e45624068349a2b6a9905b77447feac3b21589016cfeabbd1bc13e7b8c3af0e0121023510e75c635cb6e751588351134671bcbd156ec74c271131127786c5ecb3adba", "asm": "3045022100b1fb293dbea3a817749d2ea5270375e23cd73b996116aba62ef6f8b3dd9f353a02201e45624068349a2b6a9905b77447feac3b21589016cfeabbd1bc13e7b8c3af0e[ALL] 023510e75c635cb6e751588351134671bcbd156ec74c271131127786c5ecb3adba"}, "vout": 18, "txid": "4c2f1c76d2ae6ee0a423fe9f89ecf85b6922497f6727343b5ff61d5674242bea"}], "txid": "71b9fa78ee66921cbf40ba6c33629c0d25d1411bd52ee042deeda85a86eb74b1", "blocktime": 1537869901, "version": 2, "confirmations": 11522, "time": 1537869901, "locktime": 542987, "vsize": 815, "size": 815}