{"hash": "71bab6e72158a440caf68e010d42ba207ce70ea4e7de604d417ad14479a3f72f", "blockhash": "00000000000000000017f5eb5941039fbcee6240d03bc1f2f8e35350df66a1d8", "vout": [{"scriptPubKey": {"reqSigs": 1, "hex": "76a91475b56eb3a62c0f5f1158473f7b697dd77310ec2c88ac", "addresses": ["1BjPQbEo7hMsmZMfaRywChJ7sG3WkuF5W9"], "asm": "OP_DUP OP_HASH160 75b56eb3a62c0f5f1158473f7b697dd77310ec2c OP_EQUALVERIFY OP_CHECKSIG", "type": "pubkeyhash"}, "value": 7.9e-05, "n": 0}, {"scriptPubKey": {"reqSigs": 1, "hex": "76a91497fddf84d40876f6535c24374922d223de8c35be88ac", "addresses": ["1ErfAP3V5E6tpUs3kPRbxXfvftwTnfztur"], "asm": "OP_DUP OP_HASH160 97fddf84d40876f6535c24374922d223de8c35be OP_EQUALVERIFY OP_CHECKSIG", "type": "pubkeyhash"}, "value": 0.0674, "n": 1}], "hex": "0100000001540cabd11dab6bfff0e02e1d8fe68f6c951a1fef1647c970c9b8cb4f34c4f321020000006a47304402205204cf52c9b6c58de29afaab7570427b5e907592220c5b2b236ab59b71cba0ad02207dea57a33a0d8466ac04515df9f4189159ed93d57298fc52571b3e48c562f9ff012102bc66ba7d27d66c30356d8413926167b947af73fbbeab7e8cde1b37d19dfffb18ffffffff02dc1e0000000000001976a91475b56eb3a62c0f5f1158473f7b697dd77310ec2c88ac20d86600000000001976a91497fddf84d40876f6535c24374922d223de8c35be88ac00000000", "vin": [{"sequence": 4294967295, "scriptSig": {"hex": "47304402205204cf52c9b6c58de29afaab7570427b5e907592220c5b2b236ab59b71cba0ad02207dea57a33a0d8466ac04515df9f4189159ed93d57298fc52571b3e48c562f9ff012102bc66ba7d27d66c30356d8413926167b947af73fbbeab7e8cde1b37d19dfffb18", "asm": "304402205204cf52c9b6c58de29afaab7570427b5e907592220c5b2b236ab59b71cba0ad02207dea57a33a0d8466ac04515df9f4189159ed93d57298fc52571b3e48c562f9ff[ALL] 02bc66ba7d27d66c30356d8413926167b947af73fbbeab7e8cde1b37d19dfffb18"}, "vout": 2, "txid": "21f3c4344fcbb8c970c94716ef1f1a956c8fe68f1d2ee0f0ff6bab1dd1ab0c54"}], "txid": "71bab6e72158a440caf68e010d42ba207ce70ea4e7de604d417ad14479a3f72f", "blocktime": 1537874412, "version": 1, "confirmations": 11468, "time": 1537874412, "locktime": 0, "vsize": 225, "size": 225}