{"hash": "71badc581912df7b9583f9d84612488b885f523b753be9eb0cf24f739e327029", "blockhash": "0000000000000000001cda96e906b7601b7a6fb1a3b62bca570a9e5d8f4b3de1", "vout": [{"scriptPubKey": {"reqSigs": 1, "hex": "76a914629dbe796357e6d5f24563086c903468ccb7069788ac", "addresses": ["19zSC3kUrv8Ngd3mpWxQtY7kPf3y5NYVay"], "asm": "OP_DUP OP_HASH160 629dbe796357e6d5f24563086c903468ccb70697 OP_EQUALVERIFY OP_CHECKSIG", "type": "pubkeyhash"}, "value": 0.02342821, "n": 0}, {"scriptPubKey": {"reqSigs": 1, "hex": "76a914c40d362f2d614f979e9fc4f1d16eea54b6a4564588ac", "addresses": ["1JsdGZXZbGmuMhHLRTda5QEeJdWsvHwB8W"], "asm": "OP_DUP OP_HASH160 c40d362f2d614f979e9fc4f1d16eea54b6a45645 OP_EQUALVERIFY OP_CHECKSIG", "type": "pubkeyhash"}, "value": 0.001569, "n": 1}], "hex": "0100000001c150342a38021ac1c4ac88e3788ce7b79d0199ce92bc2858d2c16c9d78d5c6d9000000006a4730440220523fbd6b3f89dc3be05336cfa008b53bc669ac4245b4b00f155c7587cd727a7d022022bdda45478ebde3e8517cdea6413e9c84916330ba59fee1fa2b9b263099ae9c01210313ba7e3f32015df972d0e5a04c3b4b40ae0399da2c3f9ec3bb462896283383efffffffff02a5bf2300000000001976a914629dbe796357e6d5f24563086c903468ccb7069788ace4640200000000001976a914c40d362f2d614f979e9fc4f1d16eea54b6a4564588ac00000000", "vin": [{"sequence": 4294967295, "scriptSig": {"hex": "4730440220523fbd6b3f89dc3be05336cfa008b53bc669ac4245b4b00f155c7587cd727a7d022022bdda45478ebde3e8517cdea6413e9c84916330ba59fee1fa2b9b263099ae9c01210313ba7e3f32015df972d0e5a04c3b4b40ae0399da2c3f9ec3bb462896283383ef", "asm": "30440220523fbd6b3f89dc3be05336cfa008b53bc669ac4245b4b00f155c7587cd727a7d022022bdda45478ebde3e8517cdea6413e9c84916330ba59fee1fa2b9b263099ae9c[ALL] 0313ba7e3f32015df972d0e5a04c3b4b40ae0399da2c3f9ec3bb462896283383ef"}, "vout": 0, "txid": "d9c6d5789d6cc1d25828bc92ce99019db7e78c78e388acc4c11a02382a3450c1"}], "txid": "71badc581912df7b9583f9d84612488b885f523b753be9eb0cf24f739e327029", "blocktime": 1537873282, "version": 1, "confirmations": 11485, "time": 1537873282, "locktime": 0, "vsize": 225, "size": 225}