{"hash": "71be6eef48f5126fb6a9d355f7f9149e26a5099a0f132bf97b4f4a7e91497a7c", "blockhash": "0000000000000000001e0dab787dd257d1dbfcb92a98c2207d5e1078be1f4165", "vout": [{"scriptPubKey": {"reqSigs": 1, "hex": "76a914087a2fec4c8ee4c36622bb8e8026233b763e20f188ac", "addresses": ["1mpnFWJrXgK8ejrXzzmDuCjiAhxchinWM"], "asm": "OP_DUP OP_HASH160 087a2fec4c8ee4c36622bb8e8026233b763e20f1 OP_EQUALVERIFY OP_CHECKSIG", "type": "pubkeyhash"}, "value": 0.00093719, "n": 0}, {"scriptPubKey": {"reqSigs": 1, "hex": "76a914852ea35f071813ecf9751abe65049de61cbf8c5788ac", "addresses": ["1D9CjzS6u5ArSoEGqkqUEz4j55iA3rsFCL"], "asm": "OP_DUP OP_HASH160 852ea35f071813ecf9751abe65049de61cbf8c57 OP_EQUALVERIFY OP_CHECKSIG", "type": "pubkeyhash"}, "value": 0.12920943, "n": 1}], "hex": "02000000014450c62b29628341ddebe60d3fc37855f1a1ed0266de71c26a96eb42107c185a010000006a47304402203edc50909eeebd8646fb5f3e61a59e1597ea48075486deab302ca696b1c24ed5022057d241fc90081f1f81d736ee3927425148d5922efcf3019bbaabd7b01c51041f012103ad9345c23921567f0abf3339bb67fe7dde30c759d2837f65e6d4230853bddca5ffffffff02176e0100000000001976a914087a2fec4c8ee4c36622bb8e8026233b763e20f188ac6f28c500000000001976a914852ea35f071813ecf9751abe65049de61cbf8c5788ac00000000", "vin": [{"sequence": 4294967295, "scriptSig": {"hex": "47304402203edc50909eeebd8646fb5f3e61a59e1597ea48075486deab302ca696b1c24ed5022057d241fc90081f1f81d736ee3927425148d5922efcf3019bbaabd7b01c51041f012103ad9345c23921567f0abf3339bb67fe7dde30c759d2837f65e6d4230853bddca5", "asm": "304402203edc50909eeebd8646fb5f3e61a59e1597ea48075486deab302ca696b1c24ed5022057d241fc90081f1f81d736ee3927425148d5922efcf3019bbaabd7b01c51041f[ALL] 03ad9345c23921567f0abf3339bb67fe7dde30c759d2837f65e6d4230853bddca5"}, "vout": 1, "txid": "5a187c1042eb966ac271de6602eda1f15578c33f0de6ebdd418362292bc65044"}], "txid": "71be6eef48f5126fb6a9d355f7f9149e26a5099a0f132bf97b4f4a7e91497a7c", "blocktime": 1537872475, "version": 2, "confirmations": 11486, "time": 1537872475, "locktime": 0, "vsize": 225, "size": 225}