{"hash": "bd811cb9989525a81da5c6ede56c4a63f0e051d0a17826ea9bf35d7ed5368ffd", "blockhash": "00000000000000000024a2167bbff67b0be802c0b01cdd79e6331c2be6459f87", "vout": [{"scriptPubKey": {"reqSigs": 1, "hex": "76a91426ca3c3e7f9577fbfb3d04ad659543a58d4afb7588ac", "addresses": ["14Y6wr6jL3TT7jUn7wdauo12qQfWUPZB5U"], "asm": "OP_DUP OP_HASH160 26ca3c3e7f9577fbfb3d04ad659543a58d4afb75 OP_EQUALVERIFY OP_CHECKSIG", "type": "pubkeyhash"}, "value": 0.00725244, "n": 0}, {"scriptPubKey": {"reqSigs": 1, "hex": "001427c41435931c6960a45905d104e98d6dd0879a30", "addresses": ["bc1qylzpgdvnr35kpfzeqhgsf6vddhgg0x3szyrx4s"], "asm": "0 27c41435931c6960a45905d104e98d6dd0879a30", "type": "witness_v0_keyhash"}, "value": 0.00029312, "n": 1}], "hex": "01000000000101cf841838acb9f4d9528b728f124084c6613aff3ff35011cec1969883055a597a2e000000171600148f46a1dd1fda39e90a9f4409edc24ece9f42d34bffffffff02fc100b00000000001976a91426ca3c3e7f9577fbfb3d04ad659543a58d4afb7588ac807200000000000016001427c41435931c6960a45905d104e98d6dd0879a3002483045022100c9fa8ef82a119130bfdee016d4b13d4ef429b8ffe15fd229f0c78b9a332417c702205d85d8de0eb435466cb68a82b00a7af0776ca94888b50bfedb83a657fe1fb81b0121029cbd51e213ff2a73ede3f15491f6296895d6fc4e6e1de27fdce74d5feca42cb500000000", "vin": [{"txinwitness": ["3045022100c9fa8ef82a119130bfdee016d4b13d4ef429b8ffe15fd229f0c78b9a332417c702205d85d8de0eb435466cb68a82b00a7af0776ca94888b50bfedb83a657fe1fb81b01", "029cbd51e213ff2a73ede3f15491f6296895d6fc4e6e1de27fdce74d5feca42cb5"], "sequence": 4294967295, "scriptSig": {"hex": "1600148f46a1dd1fda39e90a9f4409edc24ece9f42d34b", "asm": "00148f46a1dd1fda39e90a9f4409edc24ece9f42d34b"}, "vout": 46, "txid": "7a595a05839896c1ce1150f33fff3a61c68440128f728b52d9f4b9ac381884cf"}], "txid": "71cb588359311d14661982a6a2657bf5fa1cd030d04b9c1f7b13b1a6e88b33d6", "blocktime": 1537870564, "version": 1, "confirmations": 11515, "time": 1537870564, "locktime": 0, "vsize": 167, "size": 249}