{"hash": "71cdd9bd8f7f8e97a0c0201fefbd5ef089a3ac91dbb836ca7dc9eaaf2a87a64c", "blockhash": "00000000000000000024a2167bbff67b0be802c0b01cdd79e6331c2be6459f87", "vout": [{"scriptPubKey": {"reqSigs": 1, "hex": "76a914eaba1bdcfdcf2b05bba1036832eed5a1d5b795c388ac", "addresses": ["1NQ84xXGmvjfT1a2DKy3XhBEjoM8Y9SJok"], "asm": "OP_DUP OP_HASH160 eaba1bdcfdcf2b05bba1036832eed5a1d5b795c3 OP_EQUALVERIFY OP_CHECKSIG", "type": "pubkeyhash"}, "value": 37.43355596, "n": 0}, {"scriptPubKey": {"reqSigs": 1, "hex": "76a91477b95e92e2dfbaff0a2f07047277bf9eccfd3cd788ac", "addresses": ["1Bv3UXFRgKHH4UoLB6wKxRZ6XvxofxT1vz"], "asm": "OP_DUP OP_HASH160 77b95e92e2dfbaff0a2f07047277bf9eccfd3cd7 OP_EQUALVERIFY OP_CHECKSIG", "type": "pubkeyhash"}, "value": 0.01561692, "n": 1}], "hex": "0100000001bf1351f049ae11cc55d6353bac2cf9e42c3552cb247bc02893b1da65957b7e80010000006a473044022030b102b8e9f13ef40c9873ace77b5cf1b5cb4ec37e59ec431ecbd7f88055168a02201abd3ad6dd4b2b6f31abc9541fe501303864ba78294754ff2b4aa8bc4658478f012102cbd228b897a2a77a45632b11670299ad8c6b41c2b0d8861b70fd50343c31f5e7ffffffff02cc121fdf000000001976a914eaba1bdcfdcf2b05bba1036832eed5a1d5b795c388ac5cd41700000000001976a91477b95e92e2dfbaff0a2f07047277bf9eccfd3cd788ac00000000", "vin": [{"sequence": 4294967295, "scriptSig": {"hex": "473044022030b102b8e9f13ef40c9873ace77b5cf1b5cb4ec37e59ec431ecbd7f88055168a02201abd3ad6dd4b2b6f31abc9541fe501303864ba78294754ff2b4aa8bc4658478f012102cbd228b897a2a77a45632b11670299ad8c6b41c2b0d8861b70fd50343c31f5e7", "asm": "3044022030b102b8e9f13ef40c9873ace77b5cf1b5cb4ec37e59ec431ecbd7f88055168a02201abd3ad6dd4b2b6f31abc9541fe501303864ba78294754ff2b4aa8bc4658478f[ALL] 02cbd228b897a2a77a45632b11670299ad8c6b41c2b0d8861b70fd50343c31f5e7"}, "vout": 1, "txid": "807e7b9565dab19328c07b24cb52352ce4f92cac3b35d655cc11ae49f05113bf"}], "txid": "71cdd9bd8f7f8e97a0c0201fefbd5ef089a3ac91dbb836ca7dc9eaaf2a87a64c", "blocktime": 1537870564, "version": 1, "confirmations": 11515, "time": 1537870564, "locktime": 0, "vsize": 225, "size": 225}