{"hash": "71cf9184f67533cacd7d4c42b116bf2542473e766dc6c30b9730d8347ea4c948", "blockhash": "0000000000000000000e13cef7c366c0283d82e591d1acd082e914b08063cdf1", "vout": [{"scriptPubKey": {"reqSigs": 1, "hex": "76a914365a2bf58ccaacfb6e5be7bc99c3bee50e785b4688ac", "addresses": ["15xPWbmdvKQi88GX5SrndrVZgvLuQeFUwb"], "asm": "OP_DUP OP_HASH160 365a2bf58ccaacfb6e5be7bc99c3bee50e785b46 OP_EQUALVERIFY OP_CHECKSIG", "type": "pubkeyhash"}, "value": 6.5e-06, "n": 0}, {"scriptPubKey": {"reqSigs": 1, "hex": "a9143b1be030ccaa49ea2eb1a9b92bb36fedf9ad202e87", "addresses": ["375ZBhhG7gn6CmGcF4etsecL6tAsKt7MdP"], "asm": "OP_HASH160 3b1be030ccaa49ea2eb1a9b92bb36fedf9ad202e OP_EQUAL", "type": "scripthash"}, "value": 0.00155169, "n": 1}, {"scriptPubKey": {"reqSigs": 1, "hex": "76a9143a4543919c16c555a5990039c406266a2beb3efe88ac", "addresses": ["16K7AfowNBH9eJpbfxvACvgdS4qQD6TQiG"], "asm": "OP_DUP OP_HASH160 3a4543919c16c555a5990039c406266a2beb3efe OP_EQUALVERIFY OP_CHECKSIG", "type": "pubkeyhash"}, "value": 8.308e-05, "n": 2}], "hex": "0100000003077653bc93b2a490b4555ac2dff5ae22478ae6a0c4115d183191098c26aa2cdc000000006a47304402201afdb12964b4c2a8a6156fd7cdb649eb8da62d0dc39e23544331cbee9343af0702203d877a3b86fcc8dc9b48c490f92958b38ea63c936cacd94be87505480c27031f012102b1e436c2cfaffbed8d321742313bb1f177572bf7cb504a337c0383792a13e426ffffffff3400489eac6b4b46c7426ec9c5efa59a79d66a6ae7c593a784d3312fe954dbb4000000006b483045022100a619862c21d95d37f7abdc65932e89d71156b4bc5b79326222da29789f8d657d022002fb6e26c1d329e607b7835d14703bbc0d32068f5a6954a4c66f2cd6630095d7012102b1e436c2cfaffbed8d321742313bb1f177572bf7cb504a337c0383792a13e426fffffffffc0f368c23a5835d9f7ba7559fa3d6645e881c12874eb367bdbb7bd4bbc85a99020000006b483045022100e5a7c1932e79f384a9f43c19af0d1f6399f00e25accf78af2c956f9d792095b802205df2207a943ee535fb2250823bc7ddb65745d7b598861a372086c7a99e497d6601210326b26cb09800a0a984d16f57f8b760abba52cdf89143e30eb4031fde486694baffffffff038a020000000000001976a914365a2bf58ccaacfb6e5be7bc99c3bee50e785b4688ac215e02000000000017a9143b1be030ccaa49ea2eb1a9b92bb36fedf9ad202e8774200000000000001976a9143a4543919c16c555a5990039c406266a2beb3efe88ac00000000", "vin": [{"sequence": 4294967295, "scriptSig": {"hex": "47304402201afdb12964b4c2a8a6156fd7cdb649eb8da62d0dc39e23544331cbee9343af0702203d877a3b86fcc8dc9b48c490f92958b38ea63c936cacd94be87505480c27031f012102b1e436c2cfaffbed8d321742313bb1f177572bf7cb504a337c0383792a13e426", "asm": "304402201afdb12964b4c2a8a6156fd7cdb649eb8da62d0dc39e23544331cbee9343af0702203d877a3b86fcc8dc9b48c490f92958b38ea63c936cacd94be87505480c27031f[ALL] 02b1e436c2cfaffbed8d321742313bb1f177572bf7cb504a337c0383792a13e426"}, "vout": 0, "txid": "dc2caa268c099131185d11c4a0e68a4722aef5dfc25a55b490a4b293bc537607"}, {"sequence": 4294967295, "scriptSig": {"hex": "483045022100a619862c21d95d37f7abdc65932e89d71156b4bc5b79326222da29789f8d657d022002fb6e26c1d329e607b7835d14703bbc0d32068f5a6954a4c66f2cd6630095d7012102b1e436c2cfaffbed8d321742313bb1f177572bf7cb504a337c0383792a13e426", "asm": "3045022100a619862c21d95d37f7abdc65932e89d71156b4bc5b79326222da29789f8d657d022002fb6e26c1d329e607b7835d14703bbc0d32068f5a6954a4c66f2cd6630095d7[ALL] 02b1e436c2cfaffbed8d321742313bb1f177572bf7cb504a337c0383792a13e426"}, "vout": 0, "txid": "b4db54e92f31d384a793c5e76a6ad6799aa5efc5c96e42c7464b6bac9e480034"}, {"sequence": 4294967295, "scriptSig": {"hex": "483045022100e5a7c1932e79f384a9f43c19af0d1f6399f00e25accf78af2c956f9d792095b802205df2207a943ee535fb2250823bc7ddb65745d7b598861a372086c7a99e497d6601210326b26cb09800a0a984d16f57f8b760abba52cdf89143e30eb4031fde486694ba", "asm": "3045022100e5a7c1932e79f384a9f43c19af0d1f6399f00e25accf78af2c956f9d792095b802205df2207a943ee535fb2250823bc7ddb65745d7b598861a372086c7a99e497d66[ALL] 0326b26cb09800a0a984d16f57f8b760abba52cdf89143e30eb4031fde486694ba"}, "vout": 2, "txid": "995ac8bbd47bbbbd67b34e87121c885e64d6a39f55a77b9f5d83a5238c360ffc"}], "txid": "71cf9184f67533cacd7d4c42b116bf2542473e766dc6c30b9730d8347ea4c948", "blocktime": 1537871767, "version": 1, "confirmations": 11495, "time": 1537871767, "locktime": 0, "vsize": 553, "size": 553}