{"hash": "71d45469e4390c1dd048b7ed07b0012af287717ef964105d91b4a68651e18bb4", "blockhash": "0000000000000000001f76057863aec43deb6fa401d9628bb513d65a8098bfab", "vout": [{"scriptPubKey": {"reqSigs": 1, "hex": "76a914039a17ae789b15cfb031ead7e783ae7682e2483688ac", "addresses": ["1L3d7QjfytzMfvmsACK2sijos3kiF6rUe"], "asm": "OP_DUP OP_HASH160 039a17ae789b15cfb031ead7e783ae7682e24836 OP_EQUALVERIFY OP_CHECKSIG", "type": "pubkeyhash"}, "value": 3.08e-05, "n": 0}, {"scriptPubKey": {"reqSigs": 1, "hex": "76a9146aa32c129c6cf355fb8175dbf3eb7bf2a73be6a688ac", "addresses": ["1Air6jbV1nWi9FZLuQov1HTHmxG4dy6JMK"], "asm": "OP_DUP OP_HASH160 6aa32c129c6cf355fb8175dbf3eb7bf2a73be6a6 OP_EQUALVERIFY OP_CHECKSIG", "type": "pubkeyhash"}, "value": 0.00128672, "n": 1}], "hex": "01000000016514f5d7b382019209d022fb07bf57a792a8eccf75b1b68880f29d4ee72a6dbe000000006a4730440220400ebf5d68fab51b82818c4ba5db65b972d4f1214b6f7eea18cf6e0d4c72f404022041eecee4a703ad0bba101d48114f170d65c7ec28aa91915c728d6bae01f73a96012103e24c2849c8a0863b3fa4a706e75f12a28eaa251dbe6903f523b78410750d754fffffffff02080c0000000000001976a914039a17ae789b15cfb031ead7e783ae7682e2483688aca0f60100000000001976a9146aa32c129c6cf355fb8175dbf3eb7bf2a73be6a688ac00000000", "vin": [{"sequence": 4294967295, "scriptSig": {"hex": "4730440220400ebf5d68fab51b82818c4ba5db65b972d4f1214b6f7eea18cf6e0d4c72f404022041eecee4a703ad0bba101d48114f170d65c7ec28aa91915c728d6bae01f73a96012103e24c2849c8a0863b3fa4a706e75f12a28eaa251dbe6903f523b78410750d754f", "asm": "30440220400ebf5d68fab51b82818c4ba5db65b972d4f1214b6f7eea18cf6e0d4c72f404022041eecee4a703ad0bba101d48114f170d65c7ec28aa91915c728d6bae01f73a96[ALL] 03e24c2849c8a0863b3fa4a706e75f12a28eaa251dbe6903f523b78410750d754f"}, "vout": 0, "txid": "be6d2ae74e9df28088b6b175cfeca892a757bf07fb22d009920182b3d7f51465"}], "txid": "71d45469e4390c1dd048b7ed07b0012af287717ef964105d91b4a68651e18bb4", "blocktime": 1537873891, "version": 1, "confirmations": 11478, "time": 1537873891, "locktime": 0, "vsize": 225, "size": 225}