{"hash": "71dabd07edf2654e6ca63991fb2121fa1691e719a8b713ce4a44fb05b797a726", "blockhash": "00000000000000000024a2167bbff67b0be802c0b01cdd79e6331c2be6459f87", "vout": [{"scriptPubKey": {"reqSigs": 1, "hex": "76a914d89ce0bb9d431a53ee57423427b9a178491c8a3588ac", "addresses": ["1LkLtW2EYV3H12mdtXsSN9zYrv1TULJi4A"], "asm": "OP_DUP OP_HASH160 d89ce0bb9d431a53ee57423427b9a178491c8a35 OP_EQUALVERIFY OP_CHECKSIG", "type": "pubkeyhash"}, "value": 0.01304158, "n": 0}, {"scriptPubKey": {"reqSigs": 1, "hex": "76a914836a533195a32ff8916473c6df79249608946fd288ac", "addresses": ["1CyrtigKdrffjQLfmo8fdVHXmT18Pk6Z4V"], "asm": "OP_DUP OP_HASH160 836a533195a32ff8916473c6df79249608946fd2 OP_EQUALVERIFY OP_CHECKSIG", "type": "pubkeyhash"}, "value": 0.01642882, "n": 1}], "hex": "01000000012db9c26bd4353cc2bbbe3769cb0ce7c228e2f450d97e6864db0bba979aff78a7010000006a47304402200a6cbc7f77574f26642a8627b8efbae6c59d286c3ab70dd44ca0408eb4777be1022022c71576d7f6c30edacc3b7ec42d0946ebaf7f05a328454fd71fe5b79af5545e012103ad3e65adbc3dbf0249739ad86eaa16edcbec65ca7dd29f97b2af1f5e63086cf5ffffffff025ee61300000000001976a914d89ce0bb9d431a53ee57423427b9a178491c8a3588ac82111900000000001976a914836a533195a32ff8916473c6df79249608946fd288ac00000000", "vin": [{"sequence": 4294967295, "scriptSig": {"hex": "47304402200a6cbc7f77574f26642a8627b8efbae6c59d286c3ab70dd44ca0408eb4777be1022022c71576d7f6c30edacc3b7ec42d0946ebaf7f05a328454fd71fe5b79af5545e012103ad3e65adbc3dbf0249739ad86eaa16edcbec65ca7dd29f97b2af1f5e63086cf5", "asm": "304402200a6cbc7f77574f26642a8627b8efbae6c59d286c3ab70dd44ca0408eb4777be1022022c71576d7f6c30edacc3b7ec42d0946ebaf7f05a328454fd71fe5b79af5545e[ALL] 03ad3e65adbc3dbf0249739ad86eaa16edcbec65ca7dd29f97b2af1f5e63086cf5"}, "vout": 1, "txid": "a778ff9a97ba0bdb64687ed950f4e228c2e70ccb6937bebbc23c35d46bc2b92d"}], "txid": "71dabd07edf2654e6ca63991fb2121fa1691e719a8b713ce4a44fb05b797a726", "blocktime": 1537870564, "version": 1, "confirmations": 11515, "time": 1537870564, "locktime": 0, "vsize": 225, "size": 225}