{"hash": "71dbea5d4df3e0de5f77b6688d54c7a36e38f33f4b2388816bed5e079b3fb5f2", "blockhash": "0000000000000000001cda96e906b7601b7a6fb1a3b62bca570a9e5d8f4b3de1", "vout": [{"scriptPubKey": {"reqSigs": 1, "hex": "76a91494ff8146470015974581af110462952661b0d31788ac", "addresses": ["1Eaq6BuaLxXDnSkfmrseZSpsHNMKjkiTtX"], "asm": "OP_DUP OP_HASH160 94ff8146470015974581af110462952661b0d317 OP_EQUALVERIFY OP_CHECKSIG", "type": "pubkeyhash"}, "value": 0.15146846, "n": 0}], "hex": "01000000028a17b8d578507b667cb5843833768d3e9fd5d46ccaa4f3e58dbd809e4c4f93e5000000006b483045022100e283ced8516239dc1ae0576915f768c185995c87cb5b553d1e8c5ac46ec8c1cf0220696a9a1d49d6bf624dd19c457482c1980b5af459dc706ee20049d20b8a93281c01210273ffb53d027864dac429ff51527a3530738cbf9a95992fb10c2eb1859bfb18faffffffffeff55b21585f4b95878926fa12bebd8cfbe475c0941b07fd571de6e73aec4292000000006a473044022070b40bdad7eb0c69268dab9086e5f88e99f8c1e150ac31974ac08b379d24f57402204a279f273c411e52dd05d5c090a96f834cc5ed29f71ab15af8b36dc5194b245201210364167ad7b1ac50266b28e1d6f11097fe0da6ed2fca66f5595b07d091a7d226bcffffffff015e1fe700000000001976a91494ff8146470015974581af110462952661b0d31788ac00000000", "vin": [{"sequence": 4294967295, "scriptSig": {"hex": "483045022100e283ced8516239dc1ae0576915f768c185995c87cb5b553d1e8c5ac46ec8c1cf0220696a9a1d49d6bf624dd19c457482c1980b5af459dc706ee20049d20b8a93281c01210273ffb53d027864dac429ff51527a3530738cbf9a95992fb10c2eb1859bfb18fa", "asm": "3045022100e283ced8516239dc1ae0576915f768c185995c87cb5b553d1e8c5ac46ec8c1cf0220696a9a1d49d6bf624dd19c457482c1980b5af459dc706ee20049d20b8a93281c[ALL] 0273ffb53d027864dac429ff51527a3530738cbf9a95992fb10c2eb1859bfb18fa"}, "vout": 0, "txid": "e5934f4c9e80bd8de5f3a4ca6cd4d59f3e8d76333884b57c667b5078d5b8178a"}, {"sequence": 4294967295, "scriptSig": {"hex": "473044022070b40bdad7eb0c69268dab9086e5f88e99f8c1e150ac31974ac08b379d24f57402204a279f273c411e52dd05d5c090a96f834cc5ed29f71ab15af8b36dc5194b245201210364167ad7b1ac50266b28e1d6f11097fe0da6ed2fca66f5595b07d091a7d226bc", "asm": "3044022070b40bdad7eb0c69268dab9086e5f88e99f8c1e150ac31974ac08b379d24f57402204a279f273c411e52dd05d5c090a96f834cc5ed29f71ab15af8b36dc5194b2452[ALL] 0364167ad7b1ac50266b28e1d6f11097fe0da6ed2fca66f5595b07d091a7d226bc"}, "vout": 0, "txid": "9242ec3ae7e61d57fd071b94c075e4fb8cbdbe12fa268987954b5f58215bf5ef"}], "txid": "71dbea5d4df3e0de5f77b6688d54c7a36e38f33f4b2388816bed5e079b3fb5f2", "blocktime": 1537873282, "version": 1, "confirmations": 11480, "time": 1537873282, "locktime": 0, "vsize": 339, "size": 339}