{"hash": "71ddeefc28007847198efa2d8bf18e79da57f23d36a11aff8a8b2811a1006ae9", "blockhash": "0000000000000000001cda96e906b7601b7a6fb1a3b62bca570a9e5d8f4b3de1", "vout": [{"scriptPubKey": {"reqSigs": 1, "hex": "76a914869e65431b72d7e392dd5eb1947d6b29cad2685588ac", "addresses": ["1DGoJDqmR4mFN9oExgUNuGo4snm3S1D6pw"], "asm": "OP_DUP OP_HASH160 869e65431b72d7e392dd5eb1947d6b29cad26855 OP_EQUALVERIFY OP_CHECKSIG", "type": "pubkeyhash"}, "value": 0.00637794, "n": 0}, {"scriptPubKey": {"type": "nulldata", "hex": "6a4c50000077cf0001b1b02ff17b58618c774e48ff5b23cc0f42c2fc38c5e5bf9ae76da98a211ae7a78624fdbcdcbd42117f7e4e16711b5baa143b0613884ab21119dc1d100759d4ba30d2c37bb011d97e02cf", "asm": "OP_RETURN 000077cf0001b1b02ff17b58618c774e48ff5b23cc0f42c2fc38c5e5bf9ae76da98a211ae7a78624fdbcdcbd42117f7e4e16711b5baa143b0613884ab21119dc1d100759d4ba30d2c37bb011d97e02cf"}, "value": 0.0, "n": 1}], "hex": "01000000016e5c7df9d5b68d6ceae7866ca4357fb8da75b265b1e27a19f874990ca8d7f6bd010000006b48304502210087b473c7d59dc93f4fe1b4da8359a5ed3d8f7c8e538f51b58401dc9f4252812d02202f44f261d9c658902e510acb2040bb21dc6de40fb0204c11f15b43da968e4d1e0121021878dba8f4f5749ac4c0f63276957cb40dec12e4c20a92d3ff775c306dce403bffffffff0262bb0900000000001976a914869e65431b72d7e392dd5eb1947d6b29cad2685588ac0000000000000000536a4c50000077cf0001b1b02ff17b58618c774e48ff5b23cc0f42c2fc38c5e5bf9ae76da98a211ae7a78624fdbcdcbd42117f7e4e16711b5baa143b0613884ab21119dc1d100759d4ba30d2c37bb011d97e02cf00000000", "vin": [{"sequence": 4294967295, "scriptSig": {"hex": "48304502210087b473c7d59dc93f4fe1b4da8359a5ed3d8f7c8e538f51b58401dc9f4252812d02202f44f261d9c658902e510acb2040bb21dc6de40fb0204c11f15b43da968e4d1e0121021878dba8f4f5749ac4c0f63276957cb40dec12e4c20a92d3ff775c306dce403b", "asm": "304502210087b473c7d59dc93f4fe1b4da8359a5ed3d8f7c8e538f51b58401dc9f4252812d02202f44f261d9c658902e510acb2040bb21dc6de40fb0204c11f15b43da968e4d1e[ALL] 021878dba8f4f5749ac4c0f63276957cb40dec12e4c20a92d3ff775c306dce403b"}, "vout": 1, "txid": "bdf6d7a80c9974f8197ae2b165b275dab87f35a46c86e7ea6c8db6d5f97d5c6e"}], "txid": "71ddeefc28007847198efa2d8bf18e79da57f23d36a11aff8a8b2811a1006ae9", "blocktime": 1537873282, "version": 1, "confirmations": 11484, "time": 1537873282, "locktime": 0, "vsize": 284, "size": 284}