{"hash": "71decd3015baa2f16bfdc30ac31851145862db48df4b8bd1695117bae7a8823a", "blockhash": "00000000000000000004ffacab907a6b429b9a5745fa0b75af4234bf69dd7176", "vout": [{"scriptPubKey": {"reqSigs": 1, "hex": "76a91490d05967f45bafe1be639d6475c0a2bab4d34fff88ac", "addresses": ["1EChtyzvNK9i8devPLcpJmdHUnarCD7yxK"], "asm": "OP_DUP OP_HASH160 90d05967f45bafe1be639d6475c0a2bab4d34fff OP_EQUALVERIFY OP_CHECKSIG", "type": "pubkeyhash"}, "value": 0.29880011, "n": 0}, {"scriptPubKey": {"reqSigs": 1, "hex": "a91417afd9b3d02088c3973fe32d1a3b68d41d0ac4b087", "addresses": ["33rG8Fnv7q5trKr35XxhP1fZjdJHeNaeFs"], "asm": "OP_HASH160 17afd9b3d02088c3973fe32d1a3b68d41d0ac4b0 OP_EQUAL", "type": "scripthash"}, "value": 0.10243825, "n": 1}], "hex": "0200000001b7b49968ff7b457d6429b93758114db2bf832c0cf74f7bf7848b445a1bbf4692010000006a473044022078fa62cdb6e350e4da2addab3cc7faff98e52542a3359e39895cb1514a22ab3002207aeac061d587631248a6ccf27558e2481ba079b9c348b9b0e9648958bf520110012102ad2380edecac5b63c4db91daf53c7c527e46fadf5e366ddb9dab0bcbca835e86feffffff02cbeec701000000001976a91490d05967f45bafe1be639d6475c0a2bab4d34fff88acf14e9c000000000017a91417afd9b3d02088c3973fe32d1a3b68d41d0ac4b08716490800", "vin": [{"sequence": 4294967294, "scriptSig": {"hex": "473044022078fa62cdb6e350e4da2addab3cc7faff98e52542a3359e39895cb1514a22ab3002207aeac061d587631248a6ccf27558e2481ba079b9c348b9b0e9648958bf520110012102ad2380edecac5b63c4db91daf53c7c527e46fadf5e366ddb9dab0bcbca835e86", "asm": "3044022078fa62cdb6e350e4da2addab3cc7faff98e52542a3359e39895cb1514a22ab3002207aeac061d587631248a6ccf27558e2481ba079b9c348b9b0e9648958bf520110[ALL] 02ad2380edecac5b63c4db91daf53c7c527e46fadf5e366ddb9dab0bcbca835e86"}, "vout": 1, "txid": "9246bf1b5a448b84f77b4ff70c2c83bfb24d115837b929647d457bff6899b4b7"}], "txid": "71decd3015baa2f16bfdc30ac31851145862db48df4b8bd1695117bae7a8823a", "blocktime": 1537875543, "version": 2, "confirmations": 11464, "time": 1537875543, "locktime": 542998, "vsize": 223, "size": 223}