{"hash": "71e3acdf2770a81fc6a2735c3c0527e9feb33a0aa5090ecd6c61346a4d34650b", "blockhash": "0000000000000000001e0dab787dd257d1dbfcb92a98c2207d5e1078be1f4165", "vout": [{"scriptPubKey": {"reqSigs": 1, "hex": "a91438e22f480eb776ee410399ec87cdd134f519bd9e87", "addresses": ["36snisfFqk8bQbEL2v4nU2Uxzi3UWo8cLQ"], "asm": "OP_HASH160 38e22f480eb776ee410399ec87cdd134f519bd9e OP_EQUAL", "type": "scripthash"}, "value": 0.01375391, "n": 0}, {"scriptPubKey": {"reqSigs": 1, "hex": "76a914096b515c986d31820e37a9b47d390a7289c8d52288ac", "addresses": ["1roeJMkFGhNT2AP44AhKVcoDwHvrQpsj8"], "asm": "OP_DUP OP_HASH160 096b515c986d31820e37a9b47d390a7289c8d522 OP_EQUALVERIFY OP_CHECKSIG", "type": "pubkeyhash"}, "value": 2.07370209, "n": 1}], "hex": "0100000001737063a97fe9502018f1f4484e83817bdd2e2e4bd0ba074510b971d86455a1dc010000006a47304402203598f0f8ee104db90f96b987822bf9cc6dc9fdd0dd169ffa7d51a0550371214202200d77b946928373385bde96e672d1de2177f98a9fdea5f1391d1014c42a33db560121029faa8ca95643cb65380d3a5be9768cbf169cc62b1ef460c836009f905dc40f06ffffffff029ffc14000000000017a91438e22f480eb776ee410399ec87cdd134f519bd9e87e1375c0c000000001976a914096b515c986d31820e37a9b47d390a7289c8d52288ac00000000", "vin": [{"sequence": 4294967295, "scriptSig": {"hex": "47304402203598f0f8ee104db90f96b987822bf9cc6dc9fdd0dd169ffa7d51a0550371214202200d77b946928373385bde96e672d1de2177f98a9fdea5f1391d1014c42a33db560121029faa8ca95643cb65380d3a5be9768cbf169cc62b1ef460c836009f905dc40f06", "asm": "304402203598f0f8ee104db90f96b987822bf9cc6dc9fdd0dd169ffa7d51a0550371214202200d77b946928373385bde96e672d1de2177f98a9fdea5f1391d1014c42a33db56[ALL] 029faa8ca95643cb65380d3a5be9768cbf169cc62b1ef460c836009f905dc40f06"}, "vout": 1, "txid": "dca15564d871b9104507bad04b2e2edd7b81834e48f4f1182050e97fa9637073"}], "txid": "71e3acdf2770a81fc6a2735c3c0527e9feb33a0aa5090ecd6c61346a4d34650b", "blocktime": 1537872475, "version": 1, "confirmations": 11487, "time": 1537872475, "locktime": 0, "vsize": 223, "size": 223}