{"hash": "5728576bd93ccfb43e85b9af278b0095d6dee31b85aeedb7e5165bc37b94ce59", "blockhash": "000000000000000000022b45ed06c6f4ccd3cf7fb5ba4856ebd2e58215665228", "vout": [{"scriptPubKey": {"reqSigs": 1, "hex": "a91496c3a19018717cef5a82bfc068ebf3c5773515ff87", "addresses": ["3FSBe1Hib6W4DFGhNZrS1HXYXxZHKQb7gA"], "asm": "OP_HASH160 96c3a19018717cef5a82bfc068ebf3c5773515ff OP_EQUAL", "type": "scripthash"}, "value": 0.02453984, "n": 0}, {"scriptPubKey": {"reqSigs": 1, "hex": "76a91410dab8411a75b8c36fc414ba6230b3ad785a1bf488ac", "addresses": ["12Y7pz3RL2WEWWAyJ5UVKXs2FqTkVR8n9J"], "asm": "OP_DUP OP_HASH160 10dab8411a75b8c36fc414ba6230b3ad785a1bf4 OP_EQUALVERIFY OP_CHECKSIG", "type": "pubkeyhash"}, "value": 0.2504434, "n": 1}, {"scriptPubKey": {"reqSigs": 1, "hex": "76a9147f4c4e4aff38adb9db81b1a9f6a555d483d47e5a88ac", "addresses": ["1Cc6EBi2J9NKPxakBXQygC1G3ERiqPxjFa"], "asm": "OP_DUP OP_HASH160 7f4c4e4aff38adb9db81b1a9f6a555d483d47e5a OP_EQUALVERIFY OP_CHECKSIG", "type": "pubkeyhash"}, "value": 0.02516494, "n": 2}, {"scriptPubKey": {"reqSigs": 1, "hex": "76a9149043ae637d61b8d50d2c4dcd818bb53ac85223f088ac", "addresses": ["1E9oPCNyNxqXo4JLw9oCNggBfyZBkDuyFV"], "asm": "OP_DUP OP_HASH160 9043ae637d61b8d50d2c4dcd818bb53ac85223f0 OP_EQUALVERIFY OP_CHECKSIG", "type": "pubkeyhash"}, "value": 0.011896, "n": 3}, {"scriptPubKey": {"reqSigs": 1, "hex": "76a914021c9dfd8fec2f73c894345de8355761e736724688ac", "addresses": ["1CAdjp3TvpH98eVupy8SBcP7peaZTXgg6"], "asm": "OP_DUP OP_HASH160 021c9dfd8fec2f73c894345de8355761e7367246 OP_EQUALVERIFY OP_CHECKSIG", "type": "pubkeyhash"}, "value": 0.26741745, "n": 4}, {"scriptPubKey": {"reqSigs": 1, "hex": "76a91488f88653394ec1914a486ce005addc1cc23ce77288ac", "addresses": ["1DVEctXMBk14CUVVt6tFsndK8b4fyVo58x"], "asm": "OP_DUP OP_HASH160 88f88653394ec1914a486ce005addc1cc23ce772 OP_EQUALVERIFY OP_CHECKSIG", "type": "pubkeyhash"}, "value": 0.04606268, "n": 5}, {"scriptPubKey": {"reqSigs": 1, "hex": "76a914d9a46e762a1a6f8ba30bc170e06de5e73e6d6aff88ac", "addresses": ["1LqncXbN2xr1Dckn7h9HS4uEjNTekPUKo5"], "asm": "OP_DUP OP_HASH160 d9a46e762a1a6f8ba30bc170e06de5e73e6d6aff OP_EQUALVERIFY OP_CHECKSIG", "type": "pubkeyhash"}, "value": 0.45080429, "n": 6}, {"scriptPubKey": {"reqSigs": 1, "hex": "76a91435f9a084109b9537a3ae405960494e436d8e515488ac", "addresses": ["15vPrZFhJnh8RuCDTEntNRgmptwzZSwwGL"], "asm": "OP_DUP OP_HASH160 35f9a084109b9537a3ae405960494e436d8e5154 OP_EQUALVERIFY OP_CHECKSIG", "type": "pubkeyhash"}, "value": 0.00624654, "n": 7}, {"scriptPubKey": {"reqSigs": 1, "hex": "a9147ae1edf11717735d9dd94732fcdbcf94a9c78a8c87", "addresses": ["3Ctm1oRK7EaUj5o2sKJfgBcTCk5dpZE2PS"], "asm": "OP_HASH160 7ae1edf11717735d9dd94732fcdbcf94a9c78a8c OP_EQUAL", "type": "scripthash"}, "value": 0.02301975, "n": 8}], "hex": "020000000001017a625df3845e55aea26379c52bafba051d97a4ab9b28b610ec80629521501d8e06000000171600145a51ee28fb35b7b0ffe1a8a03e2267bc9974b545ffffffff09e07125000000000017a91496c3a19018717cef5a82bfc068ebf3c5773515ff8774257e01000000001976a91410dab8411a75b8c36fc414ba6230b3ad785a1bf488ac0e662600000000001976a9147f4c4e4aff38adb9db81b1a9f6a555d483d47e5a88ace0261200000000001976a9149043ae637d61b8d50d2c4dcd818bb53ac85223f088acf10b9801000000001976a914021c9dfd8fec2f73c894345de8355761e736724688ac3c494600000000001976a91488f88653394ec1914a486ce005addc1cc23ce77288ac6ddfaf02000000001976a914d9a46e762a1a6f8ba30bc170e06de5e73e6d6aff88ac0e880900000000001976a91435f9a084109b9537a3ae405960494e436d8e515488ac172023000000000017a9147ae1edf11717735d9dd94732fcdbcf94a9c78a8c8702483045022100c9725249547b13ba9ff3884488e2b4465bbbb625cde354297dd694284a54cea80220098e3e7fe4b8127952ded3d5c16b3930a8180e674d8f3395fde34703f356299c0121034eba605819e405200c0babf868fdf2253708dd0a7e0be2cf5beae9c2e43faea000000000", "vin": [{"txinwitness": ["3045022100c9725249547b13ba9ff3884488e2b4465bbbb625cde354297dd694284a54cea80220098e3e7fe4b8127952ded3d5c16b3930a8180e674d8f3395fde34703f356299c01", "034eba605819e405200c0babf868fdf2253708dd0a7e0be2cf5beae9c2e43faea0"], "sequence": 4294967295, "scriptSig": {"hex": "1600145a51ee28fb35b7b0ffe1a8a03e2267bc9974b545", "asm": "00145a51ee28fb35b7b0ffe1a8a03e2267bc9974b545"}, "vout": 6, "txid": "8e1d5021956280ec10b6289baba4971d05baaf2bc57963a2ae555e84f35d627a"}], "txid": "71e6818b742d4a8bb0727bc17a76389a85ba63a58546b6e962b04fa280e40f65", "blocktime": 1537869901, "version": 2, "confirmations": 11522, "time": 1537869901, "locktime": 0, "vsize": 404, "size": 486}