{"hash": "272a659b607fe60505a280a12b88e19023012b6c747e5887742dedbb303fee1d", "blockhash": "0000000000000000000e13cef7c366c0283d82e591d1acd082e914b08063cdf1", "vout": [{"scriptPubKey": {"reqSigs": 1, "hex": "a914fe89e7f6b7315173b75b235613c7b938320e074d87", "addresses": ["3Qttm9qBFU6JD1AVV6e6SStfwkvuib2VEu"], "asm": "OP_HASH160 fe89e7f6b7315173b75b235613c7b938320e074d OP_EQUAL", "type": "scripthash"}, "value": 0.0100077, "n": 0}, {"scriptPubKey": {"reqSigs": 1, "hex": "76a914ddf67c281db319052e647b31247ce0708e0f391c88ac", "addresses": ["1MEdcUMh91PyHoPj91bKN3HqbsaKEpwLDm"], "asm": "OP_DUP OP_HASH160 ddf67c281db319052e647b31247ce0708e0f391c OP_EQUALVERIFY OP_CHECKSIG", "type": "pubkeyhash"}, "value": 1.17471, "n": 1}], "hex": "02000000000103138e8b9d1e4c6621c822dae63bda6103cce3bce62c7cf2d1f5e97ff3dc8078423200000017160014cada53b1e57f4fa8111a03d386d1777c5fcf3215fdffffff17d13a53068daf61bf399aa3f9d6411f398bab6444731bca4d3b1317ac6afd130100000017160014e0974656bcc55d04b78830f59a05d037aa374f54fdfffffffabb1b9119cc9a279767d82a733967d20fab5318e8fca2709b0e1021e9b29f3501000000171600141153cce4674c99b5bf2d61491e074b9bf56966c4fdffffff0242450f000000000017a914fe89e7f6b7315173b75b235613c7b938320e074d8718770007000000001976a914ddf67c281db319052e647b31247ce0708e0f391c88ac02473044022007930839e6a5794cc1dbf15ec4bfc54efcb6e46eb7c86ae2faee20180d86b9ee02200e448a950a934d5dd4745795aeb50db4dcd57451092e0bc191f31ca70b8da5e70121026dd4934ac2c9a26aa5dc2cd649cdddae6e63f2f77f3161cc8f31f8de1dc895d902483045022100e5fc647e8062fc265cd08b180f8e401c10ab9a378f5dc27fff537298a5c5d62002204b0c17c8acb0feff0dca5516c00d1d54040b71b4e674ad893538415894da297b0121028fa5492c1072527e33eb495ae629b5e6062f1a792e31bcd0540b1fc761eb176b0247304402206e22ad3dfb23e43fbe40e82af69e051b69e829b48a76aa4bf7c8d414fee3211b02207f1d83d2418d8946f312a66cffed3d07be423fd337067c45b83ed03bd8d12e9a012102cedd73fe0abe6cc7fff2f74f99ba7f0691147ec4191ea0b9da28e1392ab64c4000000000", "vin": [{"txinwitness": ["3044022007930839e6a5794cc1dbf15ec4bfc54efcb6e46eb7c86ae2faee20180d86b9ee02200e448a950a934d5dd4745795aeb50db4dcd57451092e0bc191f31ca70b8da5e701", "026dd4934ac2c9a26aa5dc2cd649cdddae6e63f2f77f3161cc8f31f8de1dc895d9"], "sequence": 4294967293, "scriptSig": {"hex": "160014cada53b1e57f4fa8111a03d386d1777c5fcf3215", "asm": "0014cada53b1e57f4fa8111a03d386d1777c5fcf3215"}, "vout": 50, "txid": "427880dcf37fe9f5d1f27c2ce6bce3cc0361da3be6da22c821664c1e9d8b8e13"}, {"txinwitness": ["3045022100e5fc647e8062fc265cd08b180f8e401c10ab9a378f5dc27fff537298a5c5d62002204b0c17c8acb0feff0dca5516c00d1d54040b71b4e674ad893538415894da297b01", "028fa5492c1072527e33eb495ae629b5e6062f1a792e31bcd0540b1fc761eb176b"], "sequence": 4294967293, "scriptSig": {"hex": "160014e0974656bcc55d04b78830f59a05d037aa374f54", "asm": "0014e0974656bcc55d04b78830f59a05d037aa374f54"}, "vout": 1, "txid": "13fd6aac17133b4dca1b734464ab8b391f41d6f9a39a39bf61af8d06533ad117"}, {"txinwitness": ["304402206e22ad3dfb23e43fbe40e82af69e051b69e829b48a76aa4bf7c8d414fee3211b02207f1d83d2418d8946f312a66cffed3d07be423fd337067c45b83ed03bd8d12e9a01", "02cedd73fe0abe6cc7fff2f74f99ba7f0691147ec4191ea0b9da28e1392ab64c40"], "sequence": 4294967293, "scriptSig": {"hex": "1600141153cce4674c99b5bf2d61491e074b9bf56966c4", "asm": "00141153cce4674c99b5bf2d61491e074b9bf56966c4"}, "vout": 1, "txid": "359fb2e921100e9b70a2fce81853ab0fd26739732ad86797279acc19911bbbfa"}], "txid": "71ec8ef7f8529d2b1bd520714091310e6790f9a9f13844ac625159f74aa47853", "blocktime": 1537871767, "version": 2, "confirmations": 11495, "time": 1537871767, "locktime": 0, "vsize": 349, "size": 592}