{"hash": "11a335a30a3d3c8b5887c346cbf016c53cf55a6080d3241bd89add77557f052e", "blockhash": "0000000000000000001f76057863aec43deb6fa401d9628bb513d65a8098bfab", "vout": [{"scriptPubKey": {"reqSigs": 1, "hex": "76a914d46dda6af3dd973190431ecd7989e93747f94b7888ac", "addresses": ["1LNDrQJhDZmyzmVv18VaJ6LdfzYAUyKAHr"], "asm": "OP_DUP OP_HASH160 d46dda6af3dd973190431ecd7989e93747f94b78 OP_EQUALVERIFY OP_CHECKSIG", "type": "pubkeyhash"}, "value": 0.03168696, "n": 0}, {"scriptPubKey": {"reqSigs": 1, "hex": "76a9142999ea2e157a7cbd8f38bf3c164d2beb7ab6a79388ac", "addresses": ["14ny63vi8i5QuNARf22UkRz62SbvXtXx6j"], "asm": "OP_DUP OP_HASH160 2999ea2e157a7cbd8f38bf3c164d2beb7ab6a793 OP_EQUALVERIFY OP_CHECKSIG", "type": "pubkeyhash"}, "value": 0.04293627, "n": 1}, {"scriptPubKey": {"reqSigs": 1, "hex": "a914a28813d55d2227c277b79f23d7242508e209090287", "addresses": ["3GWQQSzYwp4ZzpwpDgZoKLzuGU3xb6KJ7X"], "asm": "OP_HASH160 a28813d55d2227c277b79f23d7242508e2090902 OP_EQUAL", "type": "scripthash"}, "value": 0.013, "n": 2}, {"scriptPubKey": {"reqSigs": 1, "hex": "a91447ac857c0cd244af5ae948685a458f8114036eb987", "addresses": ["38DzaANb8F7HPR7aot9jrjJQ6YygSYhuR5"], "asm": "OP_HASH160 47ac857c0cd244af5ae948685a458f8114036eb9 OP_EQUAL", "type": "scripthash"}, "value": 0.00996, "n": 3}, {"scriptPubKey": {"reqSigs": 1, "hex": "a9143743ddd70008adaa1c03c5136c6d0f47a391f47987", "addresses": ["36jEPYcNd8miZyrZ53osuAx5y5ZUMdwNaZ"], "asm": "OP_HASH160 3743ddd70008adaa1c03c5136c6d0f47a391f479 OP_EQUAL", "type": "scripthash"}, "value": 2.0, "n": 4}, {"scriptPubKey": {"reqSigs": 1, "hex": "a91493b31df08957eb9f4c894ff552366c3aea8ac9d287", "addresses": ["3F9yq1M8EDLgukUAgAohqxvCxHJbwgAvjp"], "asm": "OP_HASH160 93b31df08957eb9f4c894ff552366c3aea8ac9d2 OP_EQUAL", "type": "scripthash"}, "value": 0.64725996, "n": 5}, {"scriptPubKey": {"reqSigs": 1, "hex": "a914ecda93e87efd9bfe9ea82558e0006bc76582b84d87", "addresses": ["3PHPEs8jtAZjLk5BVX7A9pMEYsrf6AKnM5"], "asm": "OP_HASH160 ecda93e87efd9bfe9ea82558e0006bc76582b84d OP_EQUAL", "type": "scripthash"}, "value": 0.00221615, "n": 6}, {"scriptPubKey": {"reqSigs": 1, "hex": "a91474f985d7560250e3d3f0c1b21bb2748b06b9f6f987", "addresses": ["3CMXDwnQfyGmTkw5U58f2ffoVYroMBWrJe"], "asm": "OP_HASH160 74f985d7560250e3d3f0c1b21bb2748b06b9f6f9 OP_EQUAL", "type": "scripthash"}, "value": 0.0139, "n": 7}, {"scriptPubKey": {"reqSigs": 1, "hex": "a91413967a3d5045e9906cc979b2bcd0e05aef4bc68987", "addresses": ["33Ub2Ym3ckmRADP8b4Y5ReNtomDXb8YcRm"], "asm": "OP_HASH160 13967a3d5045e9906cc979b2bcd0e05aef4bc689 OP_EQUAL", "type": "scripthash"}, "value": 0.00198839, "n": 8}, {"scriptPubKey": {"reqSigs": 1, "hex": "76a9149ec5bcf45e3d21b4d10bf1b1d9801db1dad89ac588ac", "addresses": ["1FUWePpo5iXPf4rZt5kFq7NjZVvji9qQtF"], "asm": "OP_DUP OP_HASH160 9ec5bcf45e3d21b4d10bf1b1d9801db1dad89ac5 OP_EQUALVERIFY OP_CHECKSIG", "type": "pubkeyhash"}, "value": 0.07479231, "n": 9}, {"scriptPubKey": {"reqSigs": 1, "hex": "a914a267ed547e1969c06c0aead10e7b0276ee6d22c087", "addresses": ["3GVjtbjkhtYqUJTGSB7Gb7yEH5m1QacVfW"], "asm": "OP_HASH160 a267ed547e1969c06c0aead10e7b0276ee6d22c0 OP_EQUAL", "type": "scripthash"}, "value": 0.00218971, "n": 10}, {"scriptPubKey": {"reqSigs": 1, "hex": "a914f1bcf7ef405d78ad51b65caf9be808f27a06e8d687", "addresses": ["3PjD9Y3Z88YSKJBZs5W6FczEhBw1CG6fFR"], "asm": "OP_HASH160 f1bcf7ef405d78ad51b65caf9be808f27a06e8d6 OP_EQUAL", "type": "scripthash"}, "value": 0.00915894, "n": 11}], "hex": "0100000000010808eaa6230ffc3808888912a9a471778fcc6a4f3f36fe928ba9a38fa576f2f98200000000fdfd000047304402201295fe5965f84e284c49343808802c69c7577d753800d91cf1eb7e59ef95bf5702203cc482c217dfca71c5fa19ae7191518c31f6dabd62a532ba2164b1b249816e5701483045022100fb9458b8edd19260f5d7b0cf24f45e18ef7cda75b4c55705a6be3c7db59ae55b02203c7ccf5b2f7929542ca2e518d4faf825a1ef953d000cdedc876bad20f904f52d014c6952210230c17f7af502eb7e1f10bc07bc8c0c3055bb1b42f183d887945165a4eee46496210213b93baef34b4381b16d9f3089bd30b3ffd0072d8c70f728df6da64941da2c2d2103d35409772064072575a24981c2dcefe42c138a249ae93442fb6af7b68d9c56ef53aeffffffffc2b629d49f45ede631694248bd88bd8494e8b230e072a7bf7ef10966d2b57e8000000000232200205d683b8c7bb35b14f39fc75ba1876915e4226bca4ad766184d936f8e94992dd7ffffffff75c376578e87f75ae9f60951ebd03810edd03ae2e4ee57ee4e1e9f933daacc6a00000000fdfe000048304502210094bb93ac8bce535a6cb7be0896d62750f20a67d36cd73a6e5adc3a9a58c0b4d6022073f81ee55931e4cf1d8ae60e383b789bad14bbbd15732b78b18c5ba2bfee28e001483045022100972fa05387b6016a04acec54a87243f4426aaf894ba01fb1d3b4e6a681594f5502202b0d277ffa0946d3a0c58cc752a1c3626549b6fa14bba238eb47ce3efd2762b7014c69522103af2957caa672d8c7148f97141d970bb03244fc9212bed253b1d63317beb00ded21027c1aebe3090cebbb5db9cd1e6e13720d4d318722d1ba9b43f80fbcdffbd0126921021f0f9d3b661d93b808d4552d7dd41508066d7ce79bfc14a712ec332c74a4916053aeffffffffb4acf22ff365660d5826b337a993fe7ca2638795557dccbaf7926c109df0c4220a00000023220020091230e1426bcf37ef5867914e639de173d812f768b60ca0715c6f162db5a2f0ffffffffeaa5e84a7e81537bd030276f44c34f0b15a39466000457c1cdba5b55efb13c5e00000000232200209e401363a7d71724e725c62217b3ce12155a931d9dd4b6f53c8e49c0f79907f9ffffffff830d8e9cfd623357c761643e9b0a8dbe182b12d046fdc1b1b750471da1700fdc00000000fdfd0000483045022100cb3b6ec1962f282b5de7de251a6059ba5e1190edc4d56245c71ceee15668e1ca022057ee0404a58d235e35605422aacc338a39c09a1fa887417b0aed9f017ed1a6710147304402204434a19dc6fe93a8d1326c6078039a59ef847d70e5530e18cdcfafb04212ce3a02202ce0b7b5e75c0120e1c45879594cee8be1e2296525d06661e82f2e73367f9121014c6952210282e2b7412f8f3653bd70424dca9688135b385b4276201d4e05df5d3e189d0e7e210293ba2df68ac6d17c7b6104c33e1bd536c8158a3d38af6b07b00fab45434e055b210303df5ff669566fbb9c3bbc4a364c5f4999d689488d4c5a7631ec4361aaf029d453aeffffffff157126d5122d666eb88f0539bdb4941e1af79095bf7f087af17a23942efa779e21000000fc00473044022044e43a6e14af90daba248c60cd57f80b663af597453102a5786a0703ac86b9fc02207e6b82404b4879231d6c981c32251c7025d1096834dc61b711e44cd9381743040147304402203ba380c9556eb6ed1615b3ad4e9838d28e5d3d925377ec8aeca15aaa295dfa0902200a5c94ce377a449c4346364f732dd7f630196bc7de8e1a350e5d127ee73ac83f014c6952210282e2b7412f8f3653bd70424dca9688135b385b4276201d4e05df5d3e189d0e7e210293ba2df68ac6d17c7b6104c33e1bd536c8158a3d38af6b07b00fab45434e055b210303df5ff669566fbb9c3bbc4a364c5f4999d689488d4c5a7631ec4361aaf029d453aeffffffff2632bd099c2df71b56bc57c46587c1ffb4902701fab1fea835523a50e6068e6617000000232200209d510ae604b7c7994aa6078b690d2cbd5fa8039dc326a55817b6714eb251844affffffff0cb8593000000000001976a914d46dda6af3dd973190431ecd7989e93747f94b7888acfb834100000000001976a9142999ea2e157a7cbd8f38bf3c164d2beb7ab6a79388ac20d613000000000017a914a28813d55d2227c277b79f23d7242508e209090287a0320f000000000017a91447ac857c0cd244af5ae948685a458f8114036eb98700c2eb0b0000000017a9143743ddd70008adaa1c03c5136c6d0f47a391f47987eca3db030000000017a91493b31df08957eb9f4c894ff552366c3aea8ac9d287af6103000000000017a914ecda93e87efd9bfe9ea82558e0006bc76582b84d87b03515000000000017a91474f985d7560250e3d3f0c1b21bb2748b06b9f6f987b70803000000000017a91413967a3d5045e9906cc979b2bcd0e05aef4bc68987bf1f7200000000001976a9149ec5bcf45e3d21b4d10bf1b1d9801db1dad89ac588ac5b5703000000000017a914a267ed547e1969c06c0aead10e7b0276ee6d22c087b6f90d000000000017a914f1bcf7ef405d78ad51b65caf9be808f27a06e8d687000400473044022041f2419d5ca73b52482e6d0407608b1ca9a5b0238c28071d71632bad58ca590a0220048f046fdb3e532940a1b3aaeedee0f13f2e7c06a712d14b03c3e06b9933fc24014730440220700fbf0fe524e9a3dab889e34bec5c710d864dc1b1b28f6e4d4b63b6d3e382f6022025025459da5b486a7d2bb5ac6981514aeb8d6625db4255f964adc3e46cfd357d016952210328c21d2ae888037c3e649c9016038cfbcb4c5a888e5ba32d4d68bc532edde4592102c5344c2728d912ae2d906ef2cb887d9dd7e9d1e3c413d9b41969cfb2f2fa7eda21021353980aa90ee990f65bb7109aa5271df43130b2d3ff26a8390c3159c8a04c1053ae000400483045022100fcce7fbee42e0ab3bb145659772d816f479408711fe995d84931c7dbfd70270202206be035a44859467639059cdc0ce01d30d8d3a7208dac1173bbb048c904beea5901483045022100c4b7203f6176b89f89b1855764e51aed20af1b8042db14b0f3c22cd8c95e918302204359f80da25fafb01350108bbacaa3fd5bb5b8d0e5b659bd33f3793133083f370169522102bc9a04d2f521554311bb543c12b93af1ebf22915f87d53a488856be07c51b0f62102cf89a28a4b9735e6241a940a9dc5b98f13ff2ac45144c3052d51d74dad2983372102c7475a7e02ac1a8f107c3239d7c2050536521078eecc59613d9fde226b03d0e653ae040047304402207edfeec91e943f66723c319d726fa16c244d4ad8c1741a4ef93bf5b793ae8f9c022004c2c2d487a5e80193b9125889af6e2443ebf7eca438c974f105b1340151a23c014730440220692dcf661cb0c59039b070b47308d7279182f2e038e800fa1b36c7fc3ed6ca3802201ca174f0f78edf67c36365616bff85465a814c8eede900c68a5ce92eb4a22cf20169522102b0638cd23fa8b3372c47f711e7092091e28651e2cadc4cb1e5ff10cc65d4cf852103302ab1802ac79344234cda4b3e77377ce2817a8ea6c385d517647dd62005c1802102e3242d824d91091f8cadcbfae589f1050ef9a8c6da5c1338346727046efb569253ae0000040047304402204c4c8bd32c90388cbcaeecd179f89f95320e51b57f6a7e9ec1b2332284f5418b0220407c82ece8e2b3ab0d4dbeec88b0478f2d33bc1dd12f6c671dc705d2be62aece01483045022100dbcaa2024dcb81618463496ddb93cb6f7a0e3e09de335f4fb53b3da7d035c93c02203f6558e5aa89ffb07f5221a9caca453fdb018802945104468db5d08d775783ba016952210338ea169bb4254a45638a624677486459e469c09b935b9a120afa8e8c524b761321027cd41621f53ddb7efe3625f871b3378e49514f9eb014676d40a15360dbfd8bc6210392378cf3fe42a370d3b26b2057fa6e22d2c83fff0f18c1e83d2b4e2318e3e98353ae00000000", "vin": [{"sequence": 4294967295, "scriptSig": {"hex": "0047304402201295fe5965f84e284c49343808802c69c7577d753800d91cf1eb7e59ef95bf5702203cc482c217dfca71c5fa19ae7191518c31f6dabd62a532ba2164b1b249816e5701483045022100fb9458b8edd19260f5d7b0cf24f45e18ef7cda75b4c55705a6be3c7db59ae55b02203c7ccf5b2f7929542ca2e518d4faf825a1ef953d000cdedc876bad20f904f52d014c6952210230c17f7af502eb7e1f10bc07bc8c0c3055bb1b42f183d887945165a4eee46496210213b93baef34b4381b16d9f3089bd30b3ffd0072d8c70f728df6da64941da2c2d2103d35409772064072575a24981c2dcefe42c138a249ae93442fb6af7b68d9c56ef53ae", "asm": "0 304402201295fe5965f84e284c49343808802c69c7577d753800d91cf1eb7e59ef95bf5702203cc482c217dfca71c5fa19ae7191518c31f6dabd62a532ba2164b1b249816e57[ALL] 3045022100fb9458b8edd19260f5d7b0cf24f45e18ef7cda75b4c55705a6be3c7db59ae55b02203c7ccf5b2f7929542ca2e518d4faf825a1ef953d000cdedc876bad20f904f52d[ALL] 52210230c17f7af502eb7e1f10bc07bc8c0c3055bb1b42f183d887945165a4eee46496210213b93baef34b4381b16d9f3089bd30b3ffd0072d8c70f728df6da64941da2c2d2103d35409772064072575a24981c2dcefe42c138a249ae93442fb6af7b68d9c56ef53ae"}, "vout": 0, "txid": "82f9f276a58fa3a98b92fe363f4f6acc8f7771a4a91289880838fc0f23a6ea08"}, {"txinwitness": ["", "3044022041f2419d5ca73b52482e6d0407608b1ca9a5b0238c28071d71632bad58ca590a0220048f046fdb3e532940a1b3aaeedee0f13f2e7c06a712d14b03c3e06b9933fc2401", "30440220700fbf0fe524e9a3dab889e34bec5c710d864dc1b1b28f6e4d4b63b6d3e382f6022025025459da5b486a7d2bb5ac6981514aeb8d6625db4255f964adc3e46cfd357d01", "52210328c21d2ae888037c3e649c9016038cfbcb4c5a888e5ba32d4d68bc532edde4592102c5344c2728d912ae2d906ef2cb887d9dd7e9d1e3c413d9b41969cfb2f2fa7eda21021353980aa90ee990f65bb7109aa5271df43130b2d3ff26a8390c3159c8a04c1053ae"], "sequence": 4294967295, "scriptSig": {"hex": "2200205d683b8c7bb35b14f39fc75ba1876915e4226bca4ad766184d936f8e94992dd7", "asm": "00205d683b8c7bb35b14f39fc75ba1876915e4226bca4ad766184d936f8e94992dd7"}, "vout": 0, "txid": "807eb5d26609f17ebfa772e030b2e89484bd88bd48426931e6ed459fd429b6c2"}, {"sequence": 4294967295, "scriptSig": {"hex": "0048304502210094bb93ac8bce535a6cb7be0896d62750f20a67d36cd73a6e5adc3a9a58c0b4d6022073f81ee55931e4cf1d8ae60e383b789bad14bbbd15732b78b18c5ba2bfee28e001483045022100972fa05387b6016a04acec54a87243f4426aaf894ba01fb1d3b4e6a681594f5502202b0d277ffa0946d3a0c58cc752a1c3626549b6fa14bba238eb47ce3efd2762b7014c69522103af2957caa672d8c7148f97141d970bb03244fc9212bed253b1d63317beb00ded21027c1aebe3090cebbb5db9cd1e6e13720d4d318722d1ba9b43f80fbcdffbd0126921021f0f9d3b661d93b808d4552d7dd41508066d7ce79bfc14a712ec332c74a4916053ae", "asm": "0 304502210094bb93ac8bce535a6cb7be0896d62750f20a67d36cd73a6e5adc3a9a58c0b4d6022073f81ee55931e4cf1d8ae60e383b789bad14bbbd15732b78b18c5ba2bfee28e0[ALL] 3045022100972fa05387b6016a04acec54a87243f4426aaf894ba01fb1d3b4e6a681594f5502202b0d277ffa0946d3a0c58cc752a1c3626549b6fa14bba238eb47ce3efd2762b7[ALL] 522103af2957caa672d8c7148f97141d970bb03244fc9212bed253b1d63317beb00ded21027c1aebe3090cebbb5db9cd1e6e13720d4d318722d1ba9b43f80fbcdffbd0126921021f0f9d3b661d93b808d4552d7dd41508066d7ce79bfc14a712ec332c74a4916053ae"}, "vout": 0, "txid": "6accaa3d939f1e4eee57eee4e23ad0ed1038d0eb5109f6e95af7878e5776c375"}, {"txinwitness": ["", "3045022100fcce7fbee42e0ab3bb145659772d816f479408711fe995d84931c7dbfd70270202206be035a44859467639059cdc0ce01d30d8d3a7208dac1173bbb048c904beea5901", "3045022100c4b7203f6176b89f89b1855764e51aed20af1b8042db14b0f3c22cd8c95e918302204359f80da25fafb01350108bbacaa3fd5bb5b8d0e5b659bd33f3793133083f3701", "522102bc9a04d2f521554311bb543c12b93af1ebf22915f87d53a488856be07c51b0f62102cf89a28a4b9735e6241a940a9dc5b98f13ff2ac45144c3052d51d74dad2983372102c7475a7e02ac1a8f107c3239d7c2050536521078eecc59613d9fde226b03d0e653ae"], "sequence": 4294967295, "scriptSig": {"hex": "220020091230e1426bcf37ef5867914e639de173d812f768b60ca0715c6f162db5a2f0", "asm": "0020091230e1426bcf37ef5867914e639de173d812f768b60ca0715c6f162db5a2f0"}, "vout": 10, "txid": "22c4f09d106c92f7bacc7d55958763a27cfe93a937b326580d6665f32ff2acb4"}, {"txinwitness": ["", "304402207edfeec91e943f66723c319d726fa16c244d4ad8c1741a4ef93bf5b793ae8f9c022004c2c2d487a5e80193b9125889af6e2443ebf7eca438c974f105b1340151a23c01", "30440220692dcf661cb0c59039b070b47308d7279182f2e038e800fa1b36c7fc3ed6ca3802201ca174f0f78edf67c36365616bff85465a814c8eede900c68a5ce92eb4a22cf201", "522102b0638cd23fa8b3372c47f711e7092091e28651e2cadc4cb1e5ff10cc65d4cf852103302ab1802ac79344234cda4b3e77377ce2817a8ea6c385d517647dd62005c1802102e3242d824d91091f8cadcbfae589f1050ef9a8c6da5c1338346727046efb569253ae"], "sequence": 4294967295, "scriptSig": {"hex": "2200209e401363a7d71724e725c62217b3ce12155a931d9dd4b6f53c8e49c0f79907f9", "asm": "00209e401363a7d71724e725c62217b3ce12155a931d9dd4b6f53c8e49c0f79907f9"}, "vout": 0, "txid": "5e3cb1ef555bbacdc15704006694a3150b4fc3446f2730d07b53817e4ae8a5ea"}, {"sequence": 4294967295, "scriptSig": {"hex": "00483045022100cb3b6ec1962f282b5de7de251a6059ba5e1190edc4d56245c71ceee15668e1ca022057ee0404a58d235e35605422aacc338a39c09a1fa887417b0aed9f017ed1a6710147304402204434a19dc6fe93a8d1326c6078039a59ef847d70e5530e18cdcfafb04212ce3a02202ce0b7b5e75c0120e1c45879594cee8be1e2296525d06661e82f2e73367f9121014c6952210282e2b7412f8f3653bd70424dca9688135b385b4276201d4e05df5d3e189d0e7e210293ba2df68ac6d17c7b6104c33e1bd536c8158a3d38af6b07b00fab45434e055b210303df5ff669566fbb9c3bbc4a364c5f4999d689488d4c5a7631ec4361aaf029d453ae", "asm": "0 3045022100cb3b6ec1962f282b5de7de251a6059ba5e1190edc4d56245c71ceee15668e1ca022057ee0404a58d235e35605422aacc338a39c09a1fa887417b0aed9f017ed1a671[ALL] 304402204434a19dc6fe93a8d1326c6078039a59ef847d70e5530e18cdcfafb04212ce3a02202ce0b7b5e75c0120e1c45879594cee8be1e2296525d06661e82f2e73367f9121[ALL] 52210282e2b7412f8f3653bd70424dca9688135b385b4276201d4e05df5d3e189d0e7e210293ba2df68ac6d17c7b6104c33e1bd536c8158a3d38af6b07b00fab45434e055b210303df5ff669566fbb9c3bbc4a364c5f4999d689488d4c5a7631ec4361aaf029d453ae"}, "vout": 0, "txid": "dc0f70a11d4750b7b1c1fd46d0122b18be8d0a9b3e6461c7573362fd9c8e0d83"}, {"sequence": 4294967295, "scriptSig": {"hex": "00473044022044e43a6e14af90daba248c60cd57f80b663af597453102a5786a0703ac86b9fc02207e6b82404b4879231d6c981c32251c7025d1096834dc61b711e44cd9381743040147304402203ba380c9556eb6ed1615b3ad4e9838d28e5d3d925377ec8aeca15aaa295dfa0902200a5c94ce377a449c4346364f732dd7f630196bc7de8e1a350e5d127ee73ac83f014c6952210282e2b7412f8f3653bd70424dca9688135b385b4276201d4e05df5d3e189d0e7e210293ba2df68ac6d17c7b6104c33e1bd536c8158a3d38af6b07b00fab45434e055b210303df5ff669566fbb9c3bbc4a364c5f4999d689488d4c5a7631ec4361aaf029d453ae", "asm": "0 3044022044e43a6e14af90daba248c60cd57f80b663af597453102a5786a0703ac86b9fc02207e6b82404b4879231d6c981c32251c7025d1096834dc61b711e44cd938174304[ALL] 304402203ba380c9556eb6ed1615b3ad4e9838d28e5d3d925377ec8aeca15aaa295dfa0902200a5c94ce377a449c4346364f732dd7f630196bc7de8e1a350e5d127ee73ac83f[ALL] 52210282e2b7412f8f3653bd70424dca9688135b385b4276201d4e05df5d3e189d0e7e210293ba2df68ac6d17c7b6104c33e1bd536c8158a3d38af6b07b00fab45434e055b210303df5ff669566fbb9c3bbc4a364c5f4999d689488d4c5a7631ec4361aaf029d453ae"}, "vout": 33, "txid": "9e77fa2e94237af17a087fbf9590f71a1e94b4bd39058fb86e662d12d5267115"}, {"txinwitness": ["", "304402204c4c8bd32c90388cbcaeecd179f89f95320e51b57f6a7e9ec1b2332284f5418b0220407c82ece8e2b3ab0d4dbeec88b0478f2d33bc1dd12f6c671dc705d2be62aece01", "3045022100dbcaa2024dcb81618463496ddb93cb6f7a0e3e09de335f4fb53b3da7d035c93c02203f6558e5aa89ffb07f5221a9caca453fdb018802945104468db5d08d775783ba01", "52210338ea169bb4254a45638a624677486459e469c09b935b9a120afa8e8c524b761321027cd41621f53ddb7efe3625f871b3378e49514f9eb014676d40a15360dbfd8bc6210392378cf3fe42a370d3b26b2057fa6e22d2c83fff0f18c1e83d2b4e2318e3e98353ae"], "sequence": 4294967295, "scriptSig": {"hex": "2200209d510ae604b7c7994aa6078b690d2cbd5fa8039dc326a55817b6714eb251844a", "asm": "00209d510ae604b7c7994aa6078b690d2cbd5fa8039dc326a55817b6714eb251844a"}, "vout": 23, "txid": "668e06e6503a5235a8feb1fa012790b4ffc18765c457bc561bf72d9c09bd3226"}], "txid": "71ed7b42257a1a21282275fbb7ae10fdb8b54eb93c05c2409484b6e07f95e2ce", "blocktime": 1537873891, "version": 1, "confirmations": 11478, "time": 1537873891, "locktime": 0, "vsize": 2141, "size": 2903}