{"hash": "9b5babbe8a288f0253e25832d7abd9354721ea0eed772737f28ada34412029d8", "blockhash": "00000000000000000024a2167bbff67b0be802c0b01cdd79e6331c2be6459f87", "vout": [{"scriptPubKey": {"type": "nulldata", "hex": "6a146f6d6e69000000000000001f00000014d69d9f00", "asm": "OP_RETURN 6f6d6e69000000000000001f00000014d69d9f00"}, "value": 0.0, "n": 0}, {"scriptPubKey": {"reqSigs": 1, "hex": "a914e818e90b8e6b38dba66f74b35cb708bbc73e2ea787", "addresses": ["3NrEXrB9qAxXYfRt6jKtBD8QzoU2qtNWDR"], "asm": "OP_HASH160 e818e90b8e6b38dba66f74b35cb708bbc73e2ea7 OP_EQUAL", "type": "scripthash"}, "value": 2.73e-05, "n": 1}, {"scriptPubKey": {"reqSigs": 1, "hex": "a914e818e90b8e6b38dba66f74b35cb708bbc73e2ea787", "addresses": ["3NrEXrB9qAxXYfRt6jKtBD8QzoU2qtNWDR"], "asm": "OP_HASH160 e818e90b8e6b38dba66f74b35cb708bbc73e2ea7 OP_EQUAL", "type": "scripthash"}, "value": 0.01407867, "n": 2}], "hex": "0100000000010253e444761a8926a92812581cd7833c71f2422cb8006edec732526207c1066c44010000001716001497e4b1cb2eb6415e60724f87d112df467c55ea51ffffffff53ed48d88d6c1022fc39721335d7b8ebd72e416c74f826b29ff33379b41e80083c00000017160014a43ecc6a1d451a9b3722d7f3c68ef3c83367132affffffff030000000000000000166a146f6d6e69000000000000001f00000014d69d9f00aa0a00000000000017a914e818e90b8e6b38dba66f74b35cb708bbc73e2ea7877b7b15000000000017a914e818e90b8e6b38dba66f74b35cb708bbc73e2ea787024830450221009c861db0ae5a4e5ccc526a03e54bdbdfb8c3466cbaec82f03614c2c022535a67022015525545195d5c9e44e811656a87d1ff996b2baa43e6194b4c9c57754788d691012102f72ca415be322a231b9cce00a86b0f3f7af70ce40c0ba7805cf6bd20c993f9160247304402202c9283f49f22d88fc822c12cc3036d1fd555e4a1d2ae39a15f30f572bbf5d39202204c46dcbd70bc9a69cf0aca54ec46ec548102f50bb1fd5c8b148e741cc0b64828012103822bd4699d43170bbf87f708f2caa42b5e1058125711f38c3355e90dcbc3c58900000000", "vin": [{"txinwitness": ["30450221009c861db0ae5a4e5ccc526a03e54bdbdfb8c3466cbaec82f03614c2c022535a67022015525545195d5c9e44e811656a87d1ff996b2baa43e6194b4c9c57754788d69101", "02f72ca415be322a231b9cce00a86b0f3f7af70ce40c0ba7805cf6bd20c993f916"], "sequence": 4294967295, "scriptSig": {"hex": "16001497e4b1cb2eb6415e60724f87d112df467c55ea51", "asm": "001497e4b1cb2eb6415e60724f87d112df467c55ea51"}, "vout": 1, "txid": "446c06c107625232c7de6e00b82c42f2713c83d71c581228a926891a7644e453"}, {"txinwitness": ["304402202c9283f49f22d88fc822c12cc3036d1fd555e4a1d2ae39a15f30f572bbf5d39202204c46dcbd70bc9a69cf0aca54ec46ec548102f50bb1fd5c8b148e741cc0b6482801", "03822bd4699d43170bbf87f708f2caa42b5e1058125711f38c3355e90dcbc3c589"], "sequence": 4294967295, "scriptSig": {"hex": "160014a43ecc6a1d451a9b3722d7f3c68ef3c83367132a", "asm": "0014a43ecc6a1d451a9b3722d7f3c68ef3c83367132a"}, "vout": 60, "txid": "08801eb47933f39fb226f8746c412ed7ebb8d735137239fc22106c8dd848ed53"}], "txid": "71ee661fef91748af5abf6abd8138f04e731b0b4f20defa00e387d1827fe402a", "blocktime": 1537870564, "version": 1, "confirmations": 11515, "time": 1537870564, "locktime": 0, "vsize": 288, "size": 450}