{"hash": "71f1166be62815640bb2cc209cb068630c4422f1b3d6df5394cfb5719a7337e5", "blockhash": "0000000000000000000dcc0f55137456b1a82d3642486a52398922ac4d620174", "vout": [{"scriptPubKey": {"reqSigs": 1, "hex": "a9147669c3f5eb012c573a473b7f5f7afbef9b9271cc87", "addresses": ["3CV8Mtn2QkswiYCw6MMmJw8UmH2tD8BtQA"], "asm": "OP_HASH160 7669c3f5eb012c573a473b7f5f7afbef9b9271cc OP_EQUAL", "type": "scripthash"}, "value": 0.00037, "n": 0}], "hex": "01000000017dbe6804222bf7f2e6ff391d625923623c63125bf2b821bb351aae7b57f066c8010000008b4830450221008d3b1121bb3d811e7b090d948a2dd45e8263df7dcf69756bcbf1a12fc8ecf95602203a48726a1165ce0869e2e9a3aa31be821c8434d00d07696f87399e26a4364bf001410489502f1965e9feabf5cb3ff8e230845ecdcc493b962522e9be277f88ed65d69a52288c7b62a28855dbef1dabd155b077919be20bf4a92ecf6f3ed3aa33583d17ffffffff01889000000000000017a9147669c3f5eb012c573a473b7f5f7afbef9b9271cc8700000000", "vin": [{"sequence": 4294967295, "scriptSig": {"hex": "4830450221008d3b1121bb3d811e7b090d948a2dd45e8263df7dcf69756bcbf1a12fc8ecf95602203a48726a1165ce0869e2e9a3aa31be821c8434d00d07696f87399e26a4364bf001410489502f1965e9feabf5cb3ff8e230845ecdcc493b962522e9be277f88ed65d69a52288c7b62a28855dbef1dabd155b077919be20bf4a92ecf6f3ed3aa33583d17", "asm": "30450221008d3b1121bb3d811e7b090d948a2dd45e8263df7dcf69756bcbf1a12fc8ecf95602203a48726a1165ce0869e2e9a3aa31be821c8434d00d07696f87399e26a4364bf0[ALL] 0489502f1965e9feabf5cb3ff8e230845ecdcc493b962522e9be277f88ed65d69a52288c7b62a28855dbef1dabd155b077919be20bf4a92ecf6f3ed3aa33583d17"}, "vout": 1, "txid": "c866f0577bae1a35bb21b8f25b12633c622359621d39ffe6f2f72b220468be7d"}], "txid": "71f1166be62815640bb2cc209cb068630c4422f1b3d6df5394cfb5719a7337e5", "blocktime": 1537870268, "version": 1, "confirmations": 11516, "time": 1537870268, "locktime": 0, "vsize": 222, "size": 222}