{"hash": "71f1bd28efb4635796e38efcf82b127193d767c08473060d0e5c71e984a5c043", "blockhash": "0000000000000000001f0ddff1eddb255c1121bcd4da4f1bc9a0da00cae72433", "vout": [{"scriptPubKey": {"reqSigs": 1, "hex": "a9140f12cdfc2acbccb452f506477435153436f0a23e87", "addresses": ["334iazMjma3ub7ZrkrFREaNNa78Ht4n9t5"], "asm": "OP_HASH160 0f12cdfc2acbccb452f506477435153436f0a23e OP_EQUAL", "type": "scripthash"}, "value": 0.013279, "n": 0}, {"scriptPubKey": {"reqSigs": 1, "hex": "76a9148b1d2a83c3e16ca5411ed4da2ff244eb24487fd888ac", "addresses": ["1DgZsACuikkGfhMcijbZ3k9G6bUUmHPMF6"], "asm": "OP_DUP OP_HASH160 8b1d2a83c3e16ca5411ed4da2ff244eb24487fd8 OP_EQUALVERIFY OP_CHECKSIG", "type": "pubkeyhash"}, "value": 0.11066349, "n": 1}], "hex": "010000000182968822a7607994b93693b1f309446108800e8eb16624a5d2f4cba2897c964f020000006b483045022100b74d8eafb413fd29904bb75ac3cdcc00878ce2b9dffefb72941539e6382747890220477c8a9cad26cb3509e13916bd6c3c950de79eaa4bbf54163a1660eee83bc980012103f21b12a9eb73b033f627c1662b1a5bd34f648d985258d9cdad48b429db636220ffffffff021c4314000000000017a9140f12cdfc2acbccb452f506477435153436f0a23e87eddba800000000001976a9148b1d2a83c3e16ca5411ed4da2ff244eb24487fd888ac00000000", "vin": [{"sequence": 4294967295, "scriptSig": {"hex": "483045022100b74d8eafb413fd29904bb75ac3cdcc00878ce2b9dffefb72941539e6382747890220477c8a9cad26cb3509e13916bd6c3c950de79eaa4bbf54163a1660eee83bc980012103f21b12a9eb73b033f627c1662b1a5bd34f648d985258d9cdad48b429db636220", "asm": "3045022100b74d8eafb413fd29904bb75ac3cdcc00878ce2b9dffefb72941539e6382747890220477c8a9cad26cb3509e13916bd6c3c950de79eaa4bbf54163a1660eee83bc980[ALL] 03f21b12a9eb73b033f627c1662b1a5bd34f648d985258d9cdad48b429db636220"}, "vout": 2, "txid": "4f967c89a2cbf4d2a52466b18e0e8008614409f3b19336b9947960a722889682"}], "txid": "71f1bd28efb4635796e38efcf82b127193d767c08473060d0e5c71e984a5c043", "blocktime": 1537872018, "version": 1, "confirmations": 11489, "time": 1537872018, "locktime": 0, "vsize": 224, "size": 224}