{"hash": "71f69f77e4833a4304dee4ac209e3f7afcf89380b78ff69c32c6e5402e7a18ca", "blockhash": "0000000000000000000baef3f32e3676a92c3b2e5da21b426e4f302fc371ce76", "vout": [{"scriptPubKey": {"reqSigs": 1, "hex": "76a914107253b7f673753a11a49d32c002d2707520750a88ac", "addresses": ["12VxmeicEauGg8RtAEk7Z7QGcpxfw3DLTJ"], "asm": "OP_DUP OP_HASH160 107253b7f673753a11a49d32c002d2707520750a OP_EQUALVERIFY OP_CHECKSIG", "type": "pubkeyhash"}, "value": 0.01174899, "n": 0}, {"scriptPubKey": {"reqSigs": 1, "hex": "76a91483a43ba7549ae1f655eae80713d0c9bc0e802ea388ac", "addresses": ["1D14GEw3myQtS8jUYkBiYjYW6uirPWpepH"], "asm": "OP_DUP OP_HASH160 83a43ba7549ae1f655eae80713d0c9bc0e802ea3 OP_EQUALVERIFY OP_CHECKSIG", "type": "pubkeyhash"}, "value": 0.00213218, "n": 1}], "hex": "01000000017ee7002ee563cb202bb61b10e42bd5b88c4bb485b9ecea9374d3f17cc5e74f90010000006b483045022100d9e72cc93c82d9463835f4bda839af3ca3131355f907d3808f86306d0645a14902206c66ccc8ef61b9df184961b68738b64412f1c560348d3984503e0720a9e31705012103dbd9954c168af10e3f5471cc52eaefc391a41692a8c6e37b1320e6ea81213abaffffffff0273ed1100000000001976a914107253b7f673753a11a49d32c002d2707520750a88ace2400300000000001976a91483a43ba7549ae1f655eae80713d0c9bc0e802ea388ac00000000", "vin": [{"sequence": 4294967295, "scriptSig": {"hex": "483045022100d9e72cc93c82d9463835f4bda839af3ca3131355f907d3808f86306d0645a14902206c66ccc8ef61b9df184961b68738b64412f1c560348d3984503e0720a9e31705012103dbd9954c168af10e3f5471cc52eaefc391a41692a8c6e37b1320e6ea81213aba", "asm": "3045022100d9e72cc93c82d9463835f4bda839af3ca3131355f907d3808f86306d0645a14902206c66ccc8ef61b9df184961b68738b64412f1c560348d3984503e0720a9e31705[ALL] 03dbd9954c168af10e3f5471cc52eaefc391a41692a8c6e37b1320e6ea81213aba"}, "vout": 1, "txid": "904fe7c57cf1d37493eaecb985b44b8cb8d52be4101bb62b20cb63e52e00e77e"}], "txid": "71f69f77e4833a4304dee4ac209e3f7afcf89380b78ff69c32c6e5402e7a18ca", "blocktime": 1537876114, "version": 1, "confirmations": 11460, "time": 1537876114, "locktime": 0, "vsize": 226, "size": 226}