{"hash": "71f64980f48b7d7b22a5e7c7fe958f3031b9a337d8fc94bb9fbdc4c80a664cde", "blockhash": "0000000000000000001cda96e906b7601b7a6fb1a3b62bca570a9e5d8f4b3de1", "vout": [{"scriptPubKey": {"reqSigs": 1, "hex": "76a9148b15a0ef1a9afd4473e09731d58264365c4cbb5f88ac", "addresses": ["1DgQqT4LSMVpeTG6VL9kNuAetVmgPuCgUc"], "asm": "OP_DUP OP_HASH160 8b15a0ef1a9afd4473e09731d58264365c4cbb5f OP_EQUALVERIFY OP_CHECKSIG", "type": "pubkeyhash"}, "value": 0.0533071, "n": 0}, {"scriptPubKey": {"reqSigs": 1, "hex": "76a914e810b5551fcb88d95ba325911fb63315dafd1a8188ac", "addresses": ["1NA3nRMAeUHoDVEfi9aKuT3hE5FBFnwcrT"], "asm": "OP_DUP OP_HASH160 e810b5551fcb88d95ba325911fb63315dafd1a81 OP_EQUALVERIFY OP_CHECKSIG", "type": "pubkeyhash"}, "value": 0.01091406, "n": 1}], "hex": "0100000001d5d8ce2c990caffa3e140247f932bd87d6a54b6f1838b5485d1721774aa9a477020000006b4830450221009842ef8fd7e89708fce83a8a69213a89054f5ac29e623b6f1c8a92a609b5ac9b022039d346956a873183e86e3a414693ed53100fbb9e7947d60a335a33e35f0eab47012103ce355fe1cc07ef42ee344f421938bd892284aad09fe5b28b31a6925e76556316ffffffff0216575100000000001976a9148b15a0ef1a9afd4473e09731d58264365c4cbb5f88ac4ea71000000000001976a914e810b5551fcb88d95ba325911fb63315dafd1a8188ac00000000", "vin": [{"sequence": 4294967295, "scriptSig": {"hex": "4830450221009842ef8fd7e89708fce83a8a69213a89054f5ac29e623b6f1c8a92a609b5ac9b022039d346956a873183e86e3a414693ed53100fbb9e7947d60a335a33e35f0eab47012103ce355fe1cc07ef42ee344f421938bd892284aad09fe5b28b31a6925e76556316", "asm": "30450221009842ef8fd7e89708fce83a8a69213a89054f5ac29e623b6f1c8a92a609b5ac9b022039d346956a873183e86e3a414693ed53100fbb9e7947d60a335a33e35f0eab47[ALL] 03ce355fe1cc07ef42ee344f421938bd892284aad09fe5b28b31a6925e76556316"}, "vout": 2, "txid": "77a4a94a7721175d48b538186f4ba5d687bd32f94702143efaaf0c992cced8d5"}], "txid": "71f64980f48b7d7b22a5e7c7fe958f3031b9a337d8fc94bb9fbdc4c80a664cde", "blocktime": 1537873282, "version": 1, "confirmations": 11483, "time": 1537873282, "locktime": 0, "vsize": 226, "size": 226}