{"hash": "954d5c8bbede899500c7df19c10fdd2bbf43a4d557035f6cda30776d303cfc78", "blockhash": "000000000000000000022b45ed06c6f4ccd3cf7fb5ba4856ebd2e58215665228", "vout": [{"scriptPubKey": {"reqSigs": 1, "hex": "00145cc2db50073a050ef6e2e84ce2a89b91ab0f72a9", "addresses": ["bc1qtnpdk5q88gzsaahzapxw92ymjx4s7u4ftq9yry"], "asm": "0 5cc2db50073a050ef6e2e84ce2a89b91ab0f72a9", "type": "witness_v0_keyhash"}, "value": 0.18041568, "n": 0}, {"scriptPubKey": {"reqSigs": 1, "hex": "00149d36561b2e592c7f8586b648c0c683161d1184e0", "addresses": ["bc1qn5m9vxewtyk8lpvxkeyvp35rzcw3rp8qwutxdl"], "asm": "0 9d36561b2e592c7f8586b648c0c683161d1184e0", "type": "witness_v0_keyhash"}, "value": 0.05037754, "n": 1}], "hex": "02000000000101e4e61437e2e7ef252665e4cf5063aadf0112559875205a6336e1aa2f4d51b6fa0000000017160014e6b71ecb2135ba4676f10b7c49f46a3a15124134fdffffff02e04a1301000000001600145cc2db50073a050ef6e2e84ce2a89b91ab0f72a9bade4c00000000001600149d36561b2e592c7f8586b648c0c683161d1184e00247304402200dfc12623e0bccb73eb91b69cd4130f98edfc21670b7ec4566b21292d5e775e602203b55a5e1f159f09a5e9ace67d686a20e5624f3cace61db603e1709357e494e97012102f22657329e7ca30e09788b8a1a79446a7df0071c9e55316a18784e476fe7aa9e0b490800", "vin": [{"txinwitness": ["304402200dfc12623e0bccb73eb91b69cd4130f98edfc21670b7ec4566b21292d5e775e602203b55a5e1f159f09a5e9ace67d686a20e5624f3cace61db603e1709357e494e9701", "02f22657329e7ca30e09788b8a1a79446a7df0071c9e55316a18784e476fe7aa9e"], "sequence": 4294967293, "scriptSig": {"hex": "160014e6b71ecb2135ba4676f10b7c49f46a3a15124134", "asm": "0014e6b71ecb2135ba4676f10b7c49f46a3a15124134"}, "vout": 0, "txid": "fab6514d2faae136635a207598551201dfaa6350cfe4652625efe7e23714e6e4"}], "txid": "71f8fad6d977ff56562f524a16d10dc521838e7cdac278c66b76201664eae0aa", "blocktime": 1537869901, "version": 2, "confirmations": 11522, "time": 1537869901, "locktime": 542987, "vsize": 164, "size": 245}