{"hash": "4ddef0acc3f9a5e1a42fe78730945d6e6cb4c6b94b699047783252499c8ef1e1", "blockhash": "0000000000000000001f76057863aec43deb6fa401d9628bb513d65a8098bfab", "vout": [{"scriptPubKey": {"reqSigs": 1, "hex": "a9142cfbf44ef4a07dd29765ea2cbbcc78b6cb3a8cf687", "addresses": ["35nsV5Uje2XwRX3f9PAogLEvKvAH1kcJKQ"], "asm": "OP_HASH160 2cfbf44ef4a07dd29765ea2cbbcc78b6cb3a8cf6 OP_EQUAL", "type": "scripthash"}, "value": 0.01149962, "n": 0}, {"scriptPubKey": {"reqSigs": 1, "hex": "a914cf6e8c0822516420947c85bbfcb0a42e5998449187", "addresses": ["3LbpEC8rFzycm4RX1JPH6wozUNjCj9vWqE"], "asm": "OP_HASH160 cf6e8c0822516420947c85bbfcb0a42e59984491 OP_EQUAL", "type": "scripthash"}, "value": 0.0328798, "n": 1}], "hex": "010000000001014a6cfa764e7e1f3b37e0fc75301a7d661b250de76c8996454abccee832218d1a0100000023220020290e2f39711b709152d772ca0863cddf13aca8274dfdb1b02861411921161c42ffffffff020a8c11000000000017a9142cfbf44ef4a07dd29765ea2cbbcc78b6cb3a8cf687ac2b32000000000017a914cf6e8c0822516420947c85bbfcb0a42e599844918704004730440220714c2385b0bb8acfdbb65d462d65500d6b1519a6c2840de52657913fdc49a11402202281485faaba49ed1a0ec76ae474d4ceb26f50bdca6f9a744efef2037360ff4b01483045022100ce61545f2ab4709a8e707f9366bf1168a34d2ec63c19acc6d25ab0af544a9bc9022012f8d07eefd512bde8289986c699e1a73ef8f635d79f2026bcc6c078e563d3050147522103a6b9b8e38b2d1b23d043f2c973d11707a03fa06192b8329eaa5a6e2b925de11f21038407424ead2b88063db2d589e50c34e1572f6b82eb9e266dec536939ee0db9eb52ae00000000", "vin": [{"txinwitness": ["", "30440220714c2385b0bb8acfdbb65d462d65500d6b1519a6c2840de52657913fdc49a11402202281485faaba49ed1a0ec76ae474d4ceb26f50bdca6f9a744efef2037360ff4b01", "3045022100ce61545f2ab4709a8e707f9366bf1168a34d2ec63c19acc6d25ab0af544a9bc9022012f8d07eefd512bde8289986c699e1a73ef8f635d79f2026bcc6c078e563d30501", "522103a6b9b8e38b2d1b23d043f2c973d11707a03fa06192b8329eaa5a6e2b925de11f21038407424ead2b88063db2d589e50c34e1572f6b82eb9e266dec536939ee0db9eb52ae"], "sequence": 4294967295, "scriptSig": {"hex": "220020290e2f39711b709152d772ca0863cddf13aca8274dfdb1b02861411921161c42", "asm": "0020290e2f39711b709152d772ca0863cddf13aca8274dfdb1b02861411921161c42"}, "vout": 1, "txid": "1a8d2132e8cebc4a4596896ce70d251b667d1a3075fce0373b1f7e4e76fa6c4a"}], "txid": "71facc38f5e868ac17eda93934e6f2b1cda32f2ca9599ed3a96345d06705c993", "blocktime": 1537873891, "version": 1, "confirmations": 11475, "time": 1537873891, "locktime": 0, "vsize": 206, "size": 371}