{"hash": "de3070e2d58b638ffb0939c9648fdee6276011f469fa3d5fd5a458c47f0614b0", "blockhash": "0000000000000000000e13cef7c366c0283d82e591d1acd082e914b08063cdf1", "vout": [{"scriptPubKey": {"reqSigs": 1, "hex": "00143c102b7f5778a342b13e86f4df102d9bf66dec74", "addresses": ["bc1q8sgzkl6h0z359vf7sm6d7ypdn0mxmmr5t0wm4r"], "asm": "0 3c102b7f5778a342b13e86f4df102d9bf66dec74", "type": "witness_v0_keyhash"}, "value": 0.02472228, "n": 0}, {"scriptPubKey": {"reqSigs": 1, "hex": "a9145269d26482bdfbf58516a75ec7eaaba4182c56a587", "addresses": ["39Cn6uRPyTc8epwbWWyDP64MAJRg8vjLJz"], "asm": "OP_HASH160 5269d26482bdfbf58516a75ec7eaaba4182c56a5 OP_EQUAL", "type": "scripthash"}, "value": 0.033879, "n": 1}], "hex": "01000000000101c01465726cabc91e1038698f69eaa2231d8e5086e2914a8a3dc59e6ef271828f0000000017160014b692331f5e04ccfdf863211e53c1390309085cb0ffffffff0224b92500000000001600143c102b7f5778a342b13e86f4df102d9bf66dec74fcb133000000000017a9145269d26482bdfbf58516a75ec7eaaba4182c56a58702483045022100e7aee4f6515732bb0ef55187891ee686f9f9a8120d5b1fe9a5634e3fae83d8810220595a5c4d63fb6d3540c9d162d5e8f855cab3048ff212aecc4e138fd6b66e6a7b012102f6c1c85c23ca512ebfd1e934ed9734d2ca07c1786ecf42fd9f48aa25534a948b00000000", "vin": [{"txinwitness": ["3045022100e7aee4f6515732bb0ef55187891ee686f9f9a8120d5b1fe9a5634e3fae83d8810220595a5c4d63fb6d3540c9d162d5e8f855cab3048ff212aecc4e138fd6b66e6a7b01", "02f6c1c85c23ca512ebfd1e934ed9734d2ca07c1786ecf42fd9f48aa25534a948b"], "sequence": 4294967295, "scriptSig": {"hex": "160014b692331f5e04ccfdf863211e53c1390309085cb0", "asm": "0014b692331f5e04ccfdf863211e53c1390309085cb0"}, "vout": 0, "txid": "8f8271f26e9ec53d8a4a91e286508e1d23a2ea698f6938101ec9ab6c726514c0"}], "txid": "71fce6d41dadd1d9b4289a12217cf3eda2b9e2c651a2283b7cab62f46bfbb2b4", "blocktime": 1537871767, "version": 1, "confirmations": 11495, "time": 1537871767, "locktime": 0, "vsize": 165, "size": 247}