{"hash": "7204050e2b9554292ebf7ff2940107515d0145bd054fe6741fc18960291d844e", "blockhash": "00000000000000000024a2167bbff67b0be802c0b01cdd79e6331c2be6459f87", "vout": [{"scriptPubKey": {"reqSigs": 1, "hex": "76a9147e81bbdbd4ae12ea37efd06d764ba500afa398b988ac", "addresses": ["1CXuZEcVfZ8HX7G3ovuSoWnaiRYXYbVcjE"], "asm": "OP_DUP OP_HASH160 7e81bbdbd4ae12ea37efd06d764ba500afa398b9 OP_EQUALVERIFY OP_CHECKSIG", "type": "pubkeyhash"}, "value": 0.0031072, "n": 0}, {"scriptPubKey": {"reqSigs": 1, "hex": "76a9140c5f7d2c79c40b5a0f95f1aa40599fd8c83acc5388ac", "addresses": ["128RVzVSSRPoMuYdywFfmky8X6aMypzjv1"], "asm": "OP_DUP OP_HASH160 0c5f7d2c79c40b5a0f95f1aa40599fd8c83acc53 OP_EQUALVERIFY OP_CHECKSIG", "type": "pubkeyhash"}, "value": 0.00911811, "n": 1}], "hex": "01000000015de4670e563ec27e84ef2df2b2944af9e63a3736ded7f3732744e461e76f7c0c010000006b483045022100c35f1f92bb7556562e7237c65fb529fd3660eeae56a369ce24165d6db19df29b02202f947d4299786a4c7900b316122335d68f6882e3847e83320a4e5854f83571a0012103f4b7c914ceaef37a119b63f1b47125fbddad71d341b5aacf20da4f37f2eca648ffffffff02c0bd0400000000001976a9147e81bbdbd4ae12ea37efd06d764ba500afa398b988acc3e90d00000000001976a9140c5f7d2c79c40b5a0f95f1aa40599fd8c83acc5388ac00000000", "vin": [{"sequence": 4294967295, "scriptSig": {"hex": "483045022100c35f1f92bb7556562e7237c65fb529fd3660eeae56a369ce24165d6db19df29b02202f947d4299786a4c7900b316122335d68f6882e3847e83320a4e5854f83571a0012103f4b7c914ceaef37a119b63f1b47125fbddad71d341b5aacf20da4f37f2eca648", "asm": "3045022100c35f1f92bb7556562e7237c65fb529fd3660eeae56a369ce24165d6db19df29b02202f947d4299786a4c7900b316122335d68f6882e3847e83320a4e5854f83571a0[ALL] 03f4b7c914ceaef37a119b63f1b47125fbddad71d341b5aacf20da4f37f2eca648"}, "vout": 1, "txid": "0c7c6fe761e4442773f3d7de36373ae6f94a94b2f22def847ec23e560e67e45d"}], "txid": "7204050e2b9554292ebf7ff2940107515d0145bd054fe6741fc18960291d844e", "blocktime": 1537870564, "version": 1, "confirmations": 11515, "time": 1537870564, "locktime": 0, "vsize": 226, "size": 226}