{"hash": "7205840d3035b58fcd98c2a2bbabf732fdf183d3b8d2fa4848dbc73d04a7157b", "blockhash": "000000000000000000022b45ed06c6f4ccd3cf7fb5ba4856ebd2e58215665228", "vout": [{"scriptPubKey": {"reqSigs": 1, "hex": "76a9148cbd9cc1b83dcc09331a4dc27210c6418cc7286e88ac", "addresses": ["1DqAkMR3kXESUbM7zURJ5Juf5Nt9xPioyW"], "asm": "OP_DUP OP_HASH160 8cbd9cc1b83dcc09331a4dc27210c6418cc7286e OP_EQUALVERIFY OP_CHECKSIG", "type": "pubkeyhash"}, "value": 0.00358997, "n": 0}, {"scriptPubKey": {"reqSigs": 1, "hex": "76a914d4fdfd0eaddbdf72f9358097eba68ccd88271d1d88ac", "addresses": ["1LRCX6jGoApUDrpbHiuRVyG51sDVcgh2Sf"], "asm": "OP_DUP OP_HASH160 d4fdfd0eaddbdf72f9358097eba68ccd88271d1d OP_EQUALVERIFY OP_CHECKSIG", "type": "pubkeyhash"}, "value": 0.41, "n": 1}], "hex": "01000000088e0fc427d76a7a30d13500cfb288ea928c3f682f05390be54458e86a7e644733000000006b4830450221008fe75dd943eac3ac91c28970ff078d6fbe66e1a019500cc08fd0c0a3a56dd920022057157dc388a5ac1680c6cbf4dbd0618f6deb28d2c4572b13b752b771dff7cf7f012103aa1980a266bd6028659e2433b55e5b1ac1a36253f7271473648eb74414f67677fffffffffb30bf0a64eb73776c599f637e4500d24e3243ed3de85aadb0a93e1c95449b44000000006a4730440220028b7ec50f24c24e8d61bd8fd6d2f04255f0a74a828e3e3d60c9aabfc0ae0d360220050ca40bc899061dbe6fca9a174d09dffd960d2f1c63aaf3eab60d900bf660ad012102b5a9a8588026d08e9a7c52d90ba5ad1e31c2d780853e03ffdaec6bb0908d72eeffffffff5153f84991bede0cadd9c41db0bda5c286733649b8661f259237181ff3cf5863010000006b483045022100c0146f930ddafc10b2ae4960eafc5ef4d491e83e745d0cfb48d1213a912af5dc02206b974b5ef470882439d46994661c97d43bd78bd33179d9b1df2475309168e1a001210355fc3421056d28e38905078d2b2dc19c14e688ba2e04318d5dfea7cd04c234d7ffffffff65c50edafbb6baf626732bc1c91550b7c084decd7a3d51681ddb47ee1ca84f7b020000006a473044022025c547f867981945c9d3a5bc3eefadcfb174c232fbacbc3efa1a8db575ff14d702202666ecd72e8be8cccf522c4b0f73758ee2bdc33b3abe45cb762ec4d710d0b327012102b9706aacd1e2db23c9de1138d0d742095058ef8c2ee4a23f63caea68b2c44f6dffffffff42274dd6841bf23f8295725212cb00b104c27140ae40eab4aa3d07b779ea9a91000000006b483045022100eb73d07d24898c7f2ba8a8cbd7b98f2b1223a687d2dd79ee7dd54c2f74a1ae5c02200a0ebaf0bd6e9fdeac4ee0078d8f89c696b07945c668ab02c08d446b4126df3501210355fc3421056d28e38905078d2b2dc19c14e688ba2e04318d5dfea7cd04c234d7ffffffff83fe788227045f73921d649b742217fab7874eb7222084040b09208055df43c2000000006a47304402207c4aaf3dcb9784fdd358e73c167a54cd93fdd28f7bc5d8a92979af601540b38302203ef063ca42e09613fb7d8b11dd2d59c3ad57cff6c9520d93fe315d651a1611ff01210355fc3421056d28e38905078d2b2dc19c14e688ba2e04318d5dfea7cd04c234d7ffffffffd21cfb3ec310fd82cbd077c2c2991788e2dcd5192f6a462929bd0cbe2c3ba1c4000000006a473044022001631b9b5fce8f5dd1fe714011e79de1f874b2017042ac46b644ab9b0653587c02200b9c4c4c97bc378e06ca8183aabd38fbcd7061853b26d6c4e9b1e98e19fb013f01210355fc3421056d28e38905078d2b2dc19c14e688ba2e04318d5dfea7cd04c234d7ffffffff8aa0f65fee9bbb0e62cb6642c409ec72d8da5be25a4ac4b1811c77ed97139afd010000006a473044022067d4f75d4bbc31472f466dc892ba73e8c0cf0e05c0314d52d1defc81d1bb2283022041278cf3c1cf759597cf1545c38bf8a9ba373d5d5dddcaf6b4b4d3d36dd1a78701210355fc3421056d28e38905078d2b2dc19c14e688ba2e04318d5dfea7cd04c234d7ffffffff02557a0500000000001976a9148cbd9cc1b83dcc09331a4dc27210c6418cc7286e88ac409c7102000000001976a914d4fdfd0eaddbdf72f9358097eba68ccd88271d1d88ac00000000", "vin": [{"sequence": 4294967295, "scriptSig": {"hex": "4830450221008fe75dd943eac3ac91c28970ff078d6fbe66e1a019500cc08fd0c0a3a56dd920022057157dc388a5ac1680c6cbf4dbd0618f6deb28d2c4572b13b752b771dff7cf7f012103aa1980a266bd6028659e2433b55e5b1ac1a36253f7271473648eb74414f67677", "asm": "30450221008fe75dd943eac3ac91c28970ff078d6fbe66e1a019500cc08fd0c0a3a56dd920022057157dc388a5ac1680c6cbf4dbd0618f6deb28d2c4572b13b752b771dff7cf7f[ALL] 03aa1980a266bd6028659e2433b55e5b1ac1a36253f7271473648eb74414f67677"}, "vout": 0, "txid": "3347647e6ae85844e50b39052f683f8c92ea88b2cf0035d1307a6ad727c40f8e"}, {"sequence": 4294967295, "scriptSig": {"hex": "4730440220028b7ec50f24c24e8d61bd8fd6d2f04255f0a74a828e3e3d60c9aabfc0ae0d360220050ca40bc899061dbe6fca9a174d09dffd960d2f1c63aaf3eab60d900bf660ad012102b5a9a8588026d08e9a7c52d90ba5ad1e31c2d780853e03ffdaec6bb0908d72ee", "asm": "30440220028b7ec50f24c24e8d61bd8fd6d2f04255f0a74a828e3e3d60c9aabfc0ae0d360220050ca40bc899061dbe6fca9a174d09dffd960d2f1c63aaf3eab60d900bf660ad[ALL] 02b5a9a8588026d08e9a7c52d90ba5ad1e31c2d780853e03ffdaec6bb0908d72ee"}, "vout": 0, "txid": "449b44951c3ea9b0ad5ae83ded43324ed200457e639f596c7773eb640abf30fb"}, {"sequence": 4294967295, "scriptSig": {"hex": "483045022100c0146f930ddafc10b2ae4960eafc5ef4d491e83e745d0cfb48d1213a912af5dc02206b974b5ef470882439d46994661c97d43bd78bd33179d9b1df2475309168e1a001210355fc3421056d28e38905078d2b2dc19c14e688ba2e04318d5dfea7cd04c234d7", "asm": "3045022100c0146f930ddafc10b2ae4960eafc5ef4d491e83e745d0cfb48d1213a912af5dc02206b974b5ef470882439d46994661c97d43bd78bd33179d9b1df2475309168e1a0[ALL] 0355fc3421056d28e38905078d2b2dc19c14e688ba2e04318d5dfea7cd04c234d7"}, "vout": 1, "txid": "6358cff31f183792251f66b849367386c2a5bdb01dc4d9ad0cdebe9149f85351"}, {"sequence": 4294967295, "scriptSig": {"hex": "473044022025c547f867981945c9d3a5bc3eefadcfb174c232fbacbc3efa1a8db575ff14d702202666ecd72e8be8cccf522c4b0f73758ee2bdc33b3abe45cb762ec4d710d0b327012102b9706aacd1e2db23c9de1138d0d742095058ef8c2ee4a23f63caea68b2c44f6d", "asm": "3044022025c547f867981945c9d3a5bc3eefadcfb174c232fbacbc3efa1a8db575ff14d702202666ecd72e8be8cccf522c4b0f73758ee2bdc33b3abe45cb762ec4d710d0b327[ALL] 02b9706aacd1e2db23c9de1138d0d742095058ef8c2ee4a23f63caea68b2c44f6d"}, "vout": 2, "txid": "7b4fa81cee47db1d68513d7acdde84c0b75015c9c12b7326f6bab6fbda0ec565"}, {"sequence": 4294967295, "scriptSig": {"hex": "483045022100eb73d07d24898c7f2ba8a8cbd7b98f2b1223a687d2dd79ee7dd54c2f74a1ae5c02200a0ebaf0bd6e9fdeac4ee0078d8f89c696b07945c668ab02c08d446b4126df3501210355fc3421056d28e38905078d2b2dc19c14e688ba2e04318d5dfea7cd04c234d7", "asm": "3045022100eb73d07d24898c7f2ba8a8cbd7b98f2b1223a687d2dd79ee7dd54c2f74a1ae5c02200a0ebaf0bd6e9fdeac4ee0078d8f89c696b07945c668ab02c08d446b4126df35[ALL] 0355fc3421056d28e38905078d2b2dc19c14e688ba2e04318d5dfea7cd04c234d7"}, "vout": 0, "txid": "919aea79b7073daab4ea40ae4071c204b100cb12527295823ff21b84d64d2742"}, {"sequence": 4294967295, "scriptSig": {"hex": "47304402207c4aaf3dcb9784fdd358e73c167a54cd93fdd28f7bc5d8a92979af601540b38302203ef063ca42e09613fb7d8b11dd2d59c3ad57cff6c9520d93fe315d651a1611ff01210355fc3421056d28e38905078d2b2dc19c14e688ba2e04318d5dfea7cd04c234d7", "asm": "304402207c4aaf3dcb9784fdd358e73c167a54cd93fdd28f7bc5d8a92979af601540b38302203ef063ca42e09613fb7d8b11dd2d59c3ad57cff6c9520d93fe315d651a1611ff[ALL] 0355fc3421056d28e38905078d2b2dc19c14e688ba2e04318d5dfea7cd04c234d7"}, "vout": 0, "txid": "c243df558020090b04842022b74e87b7fa1722749b641d92735f04278278fe83"}, {"sequence": 4294967295, "scriptSig": {"hex": "473044022001631b9b5fce8f5dd1fe714011e79de1f874b2017042ac46b644ab9b0653587c02200b9c4c4c97bc378e06ca8183aabd38fbcd7061853b26d6c4e9b1e98e19fb013f01210355fc3421056d28e38905078d2b2dc19c14e688ba2e04318d5dfea7cd04c234d7", "asm": "3044022001631b9b5fce8f5dd1fe714011e79de1f874b2017042ac46b644ab9b0653587c02200b9c4c4c97bc378e06ca8183aabd38fbcd7061853b26d6c4e9b1e98e19fb013f[ALL] 0355fc3421056d28e38905078d2b2dc19c14e688ba2e04318d5dfea7cd04c234d7"}, "vout": 0, "txid": "c4a13b2cbe0cbd2929466a2f19d5dce2881799c2c277d0cb82fd10c33efb1cd2"}, {"sequence": 4294967295, "scriptSig": {"hex": "473044022067d4f75d4bbc31472f466dc892ba73e8c0cf0e05c0314d52d1defc81d1bb2283022041278cf3c1cf759597cf1545c38bf8a9ba373d5d5dddcaf6b4b4d3d36dd1a78701210355fc3421056d28e38905078d2b2dc19c14e688ba2e04318d5dfea7cd04c234d7", "asm": "3044022067d4f75d4bbc31472f466dc892ba73e8c0cf0e05c0314d52d1defc81d1bb2283022041278cf3c1cf759597cf1545c38bf8a9ba373d5d5dddcaf6b4b4d3d36dd1a787[ALL] 0355fc3421056d28e38905078d2b2dc19c14e688ba2e04318d5dfea7cd04c234d7"}, "vout": 1, "txid": "fd9a1397ed771c81b1c44a5ae25bdad872ec09c44266cb620ebb9bee5ff6a08a"}], "txid": "7205840d3035b58fcd98c2a2bbabf732fdf183d3b8d2fa4848dbc73d04a7157b", "blocktime": 1537869901, "version": 1, "confirmations": 11524, "time": 1537869901, "locktime": 0, "vsize": 1257, "size": 1257}