{"hash": "720ddf9d07a8fc15078101876a3db9350e032a03cd1a7032d167e075697a4ce4", "blockhash": "0000000000000000000e13cef7c366c0283d82e591d1acd082e914b08063cdf1", "vout": [{"scriptPubKey": {"reqSigs": 1, "hex": "76a91409099b79bd42eef754292dea9b55d40addbbbffb88ac", "addresses": ["1pnbFoXgPZDwHfduGXozBQZgwNe8JZ5uA"], "asm": "OP_DUP OP_HASH160 09099b79bd42eef754292dea9b55d40addbbbffb OP_EQUALVERIFY OP_CHECKSIG", "type": "pubkeyhash"}, "value": 0.00214989, "n": 0}, {"scriptPubKey": {"reqSigs": 1, "hex": "76a914fc393a512c1ed4b79d9060ada75bd8744f65c80f88ac", "addresses": ["1PzdqbiftRzv9DSSWKZVDpw2gt71iUAPFn"], "asm": "OP_DUP OP_HASH160 fc393a512c1ed4b79d9060ada75bd8744f65c80f OP_EQUALVERIFY OP_CHECKSIG", "type": "pubkeyhash"}, "value": 0.0058471, "n": 1}], "hex": "010000000121f832ac7ba5ba7e39d942e356e3a78e3de3e7c731554c0d39239130c38833de010000006b483045022100a817a28132f475b8f7cf649279dfa4da68c30b5004b646f06a8766a5b74c0dc702205e7d19cb77e7e9321548348b49b27308859f542011515bb2941566db0842d4db01210310faa27434493027944a84eb38c0379d53db07d48c1baf70af54b6030bf8d6dfffffffff02cd470300000000001976a91409099b79bd42eef754292dea9b55d40addbbbffb88ac06ec0800000000001976a914fc393a512c1ed4b79d9060ada75bd8744f65c80f88ac00000000", "vin": [{"sequence": 4294967295, "scriptSig": {"hex": "483045022100a817a28132f475b8f7cf649279dfa4da68c30b5004b646f06a8766a5b74c0dc702205e7d19cb77e7e9321548348b49b27308859f542011515bb2941566db0842d4db01210310faa27434493027944a84eb38c0379d53db07d48c1baf70af54b6030bf8d6df", "asm": "3045022100a817a28132f475b8f7cf649279dfa4da68c30b5004b646f06a8766a5b74c0dc702205e7d19cb77e7e9321548348b49b27308859f542011515bb2941566db0842d4db[ALL] 0310faa27434493027944a84eb38c0379d53db07d48c1baf70af54b6030bf8d6df"}, "vout": 1, "txid": "de3388c3309123390d4c5531c7e7e33d8ea7e356e342d9397ebaa57bac32f821"}], "txid": "720ddf9d07a8fc15078101876a3db9350e032a03cd1a7032d167e075697a4ce4", "blocktime": 1537871767, "version": 1, "confirmations": 11493, "time": 1537871767, "locktime": 0, "vsize": 226, "size": 226}