{"hash": "72122bc173448fadc2aa6678f465ea0c672aab5f46d45d3c2c0485680bc9ba43", "blockhash": "00000000000000000004ffacab907a6b429b9a5745fa0b75af4234bf69dd7176", "vout": [{"scriptPubKey": {"reqSigs": 1, "hex": "76a914ea57e28c7ffcbe8c8e11b0f8c6ac3a1e8059301d88ac", "addresses": ["1NN6QF3YxAqL8hWhz3qMxZrVhMBbJKqup9"], "asm": "OP_DUP OP_HASH160 ea57e28c7ffcbe8c8e11b0f8c6ac3a1e8059301d OP_EQUALVERIFY OP_CHECKSIG", "type": "pubkeyhash"}, "value": 0.07264815, "n": 0}, {"scriptPubKey": {"reqSigs": 1, "hex": "a914ce9e790c97ce5f0e13ac910617a96f390373ef0e87", "addresses": ["3LXWxwuBBsFxxfTq49LDg1PQ7FVKAWFmgp"], "asm": "OP_HASH160 ce9e790c97ce5f0e13ac910617a96f390373ef0e OP_EQUAL", "type": "scripthash"}, "value": 0.14, "n": 1}], "hex": "010000000283ef5f067a8029e337889b74130974236147860e09aecd8ecfea9cece85ee8c9000000006b4830450221009573f2114941aace271c6d5f970e3485c7cebc803621e1c2e4aa69099b2cf88b022017bbe34ad2b577dc7dde2ebe54eea4a1381cb24d6428d6e233148b80471517b30121021990487b058db312059df437d6a4345d749f3759186ec4a340b5c870d088e3eaffffffff37e2036f39a445403be4cfe492c47e713e8f6afe7fa38850be296976b3c9011c000000006a47304402200f5f71aa93e74ddf3bbabae7550c4d217b95bb41aa271cacfae9ac8a69ca22e502205f080f1a77e31786122abc1ac8c8e3201918537ec930e89b41bc1ad55294b93c01210243edbcc4c41360e6c81ad2b9fb4443506b9a16aa869cfdaf800f11294b14a05affffffff022fda6e00000000001976a914ea57e28c7ffcbe8c8e11b0f8c6ac3a1e8059301d88ac809fd5000000000017a914ce9e790c97ce5f0e13ac910617a96f390373ef0e8700000000", "vin": [{"sequence": 4294967295, "scriptSig": {"hex": "4830450221009573f2114941aace271c6d5f970e3485c7cebc803621e1c2e4aa69099b2cf88b022017bbe34ad2b577dc7dde2ebe54eea4a1381cb24d6428d6e233148b80471517b30121021990487b058db312059df437d6a4345d749f3759186ec4a340b5c870d088e3ea", "asm": "30450221009573f2114941aace271c6d5f970e3485c7cebc803621e1c2e4aa69099b2cf88b022017bbe34ad2b577dc7dde2ebe54eea4a1381cb24d6428d6e233148b80471517b3[ALL] 021990487b058db312059df437d6a4345d749f3759186ec4a340b5c870d088e3ea"}, "vout": 0, "txid": "c9e85ee8ec9ceacf8ecdae090e86476123740913749b8837e329807a065fef83"}, {"sequence": 4294967295, "scriptSig": {"hex": "47304402200f5f71aa93e74ddf3bbabae7550c4d217b95bb41aa271cacfae9ac8a69ca22e502205f080f1a77e31786122abc1ac8c8e3201918537ec930e89b41bc1ad55294b93c01210243edbcc4c41360e6c81ad2b9fb4443506b9a16aa869cfdaf800f11294b14a05a", "asm": "304402200f5f71aa93e74ddf3bbabae7550c4d217b95bb41aa271cacfae9ac8a69ca22e502205f080f1a77e31786122abc1ac8c8e3201918537ec930e89b41bc1ad55294b93c[ALL] 0243edbcc4c41360e6c81ad2b9fb4443506b9a16aa869cfdaf800f11294b14a05a"}, "vout": 0, "txid": "1c01c9b3766929be5088a37ffe6a8f3e717ec492e4cfe43b4045a4396f03e237"}], "txid": "72122bc173448fadc2aa6678f465ea0c672aab5f46d45d3c2c0485680bc9ba43", "blocktime": 1537875543, "version": 1, "confirmations": 11464, "time": 1537875543, "locktime": 0, "vsize": 371, "size": 371}