{"hash": "721cfef26b080800945fd9b3514895ad0483c8973281ce125e051adde8d3afb1", "blockhash": "00000000000000000004ffacab907a6b429b9a5745fa0b75af4234bf69dd7176", "vout": [{"scriptPubKey": {"reqSigs": 1, "hex": "76a9144992d17f30d7aaf102dabb2ed3faf655b345d31e88ac", "addresses": ["17i2D82kU9FQ6x5VTnQx8xsPzq6rP18bK5"], "asm": "OP_DUP OP_HASH160 4992d17f30d7aaf102dabb2ed3faf655b345d31e OP_EQUALVERIFY OP_CHECKSIG", "type": "pubkeyhash"}, "value": 0.00028549, "n": 0}, {"scriptPubKey": {"reqSigs": 1, "hex": "76a914e758e702611daa98945ccc63b73c1e142a696eb588ac", "addresses": ["1N6FbMnwZ7wwD5SKCUHgjei2bBTnCNPzfL"], "asm": "OP_DUP OP_HASH160 e758e702611daa98945ccc63b73c1e142a696eb5 OP_EQUALVERIFY OP_CHECKSIG", "type": "pubkeyhash"}, "value": 0.096, "n": 1}], "hex": "0100000005e6800590ed067d20b5995909d7aecbd6c32867bded45627d72b89688f9bc8318010000006b483045022100aed469c8d833b21077e3d74f9963757084f50dd028ab8b06afb25b19b232fa7402204acfe32c9230a69370906f8f207c65e6a910c7643082e6a544319ec19f52c82d0121027ec1321c6a1057a82aecbc5926edda227b63f4099823f3ef11a559878225c0ddffffffff60bac4ebb7ba4c5849fd4f05a7d3090fd70cb292414cf4d6d3e91b4cf171d71b010000006a47304402207a378cede77038074f1073da2e42801034e1a0f5a00b9f09c36283ab84426f3502202321d7fb86c4acf173921eeff5cb0c6edb40b14528846793efcd837797cbcbc40121028bb5d8364f212067686dd0e16030a0d893b6d7c87eef6149e54cd272b8d3de94ffffffff472f0eb5864f2f6e0385a1954f9746ea6f8e7b3b80a6dc48c6460c7dc4fd8850000000006a473044022020b53bf46b51917c4f33d3f3db8519aa942a1e86fcda6995d93dcd2bd4125651022051a91835a64e1fd8a2132bc22f0f84074ffff69cb008353ec37f10747e44d8bd0121028bb5d8364f212067686dd0e16030a0d893b6d7c87eef6149e54cd272b8d3de94ffffffff96fa14ea3fb64c2dfd035ae61337ac713cfb680cb537501395c73994385911cf000000006a47304402201d9fa7728c54ea073459f6cfd2711863658082eab2ebeb4207637d82de5cb64902204e263ec45b9b7c7b3c6347b27142728c606a29e89b8334dbaf9da1856e4d7e140121028bb5d8364f212067686dd0e16030a0d893b6d7c87eef6149e54cd272b8d3de94ffffffffb8b9a2a307d2aa752169c73eccda86ad77810fc164d46bc3de78bf09dcb601eb020000006b483045022100a3d1f0154f146d9f6d61443c8e440b46ef9a46e92d9424fffd889a9381411d9102206ef55613d441f2bb18d44307a096a21c541de019a76aa0cdde2d14a9d53840230121028bb5d8364f212067686dd0e16030a0d893b6d7c87eef6149e54cd272b8d3de94ffffffff02856f0000000000001976a9144992d17f30d7aaf102dabb2ed3faf655b345d31e88ac007c9200000000001976a914e758e702611daa98945ccc63b73c1e142a696eb588ac00000000", "vin": [{"sequence": 4294967295, "scriptSig": {"hex": "483045022100aed469c8d833b21077e3d74f9963757084f50dd028ab8b06afb25b19b232fa7402204acfe32c9230a69370906f8f207c65e6a910c7643082e6a544319ec19f52c82d0121027ec1321c6a1057a82aecbc5926edda227b63f4099823f3ef11a559878225c0dd", "asm": "3045022100aed469c8d833b21077e3d74f9963757084f50dd028ab8b06afb25b19b232fa7402204acfe32c9230a69370906f8f207c65e6a910c7643082e6a544319ec19f52c82d[ALL] 027ec1321c6a1057a82aecbc5926edda227b63f4099823f3ef11a559878225c0dd"}, "vout": 1, "txid": "1883bcf98896b8727d6245edbd6728c3d6cbaed7095999b5207d06ed900580e6"}, {"sequence": 4294967295, "scriptSig": {"hex": "47304402207a378cede77038074f1073da2e42801034e1a0f5a00b9f09c36283ab84426f3502202321d7fb86c4acf173921eeff5cb0c6edb40b14528846793efcd837797cbcbc40121028bb5d8364f212067686dd0e16030a0d893b6d7c87eef6149e54cd272b8d3de94", "asm": "304402207a378cede77038074f1073da2e42801034e1a0f5a00b9f09c36283ab84426f3502202321d7fb86c4acf173921eeff5cb0c6edb40b14528846793efcd837797cbcbc4[ALL] 028bb5d8364f212067686dd0e16030a0d893b6d7c87eef6149e54cd272b8d3de94"}, "vout": 1, "txid": "1bd771f14c1be9d3d6f44c4192b20cd70f09d3a7054ffd49584cbab7ebc4ba60"}, {"sequence": 4294967295, "scriptSig": {"hex": "473044022020b53bf46b51917c4f33d3f3db8519aa942a1e86fcda6995d93dcd2bd4125651022051a91835a64e1fd8a2132bc22f0f84074ffff69cb008353ec37f10747e44d8bd0121028bb5d8364f212067686dd0e16030a0d893b6d7c87eef6149e54cd272b8d3de94", "asm": "3044022020b53bf46b51917c4f33d3f3db8519aa942a1e86fcda6995d93dcd2bd4125651022051a91835a64e1fd8a2132bc22f0f84074ffff69cb008353ec37f10747e44d8bd[ALL] 028bb5d8364f212067686dd0e16030a0d893b6d7c87eef6149e54cd272b8d3de94"}, "vout": 0, "txid": "5088fdc47d0c46c648dca6803b7b8e6fea46974f95a185036e2f4f86b50e2f47"}, {"sequence": 4294967295, "scriptSig": {"hex": "47304402201d9fa7728c54ea073459f6cfd2711863658082eab2ebeb4207637d82de5cb64902204e263ec45b9b7c7b3c6347b27142728c606a29e89b8334dbaf9da1856e4d7e140121028bb5d8364f212067686dd0e16030a0d893b6d7c87eef6149e54cd272b8d3de94", "asm": "304402201d9fa7728c54ea073459f6cfd2711863658082eab2ebeb4207637d82de5cb64902204e263ec45b9b7c7b3c6347b27142728c606a29e89b8334dbaf9da1856e4d7e14[ALL] 028bb5d8364f212067686dd0e16030a0d893b6d7c87eef6149e54cd272b8d3de94"}, "vout": 0, "txid": "cf1159389439c795135037b50c68fb3c71ac3713e65a03fd2d4cb63fea14fa96"}, {"sequence": 4294967295, "scriptSig": {"hex": "483045022100a3d1f0154f146d9f6d61443c8e440b46ef9a46e92d9424fffd889a9381411d9102206ef55613d441f2bb18d44307a096a21c541de019a76aa0cdde2d14a9d53840230121028bb5d8364f212067686dd0e16030a0d893b6d7c87eef6149e54cd272b8d3de94", "asm": "3045022100a3d1f0154f146d9f6d61443c8e440b46ef9a46e92d9424fffd889a9381411d9102206ef55613d441f2bb18d44307a096a21c541de019a76aa0cdde2d14a9d5384023[ALL] 028bb5d8364f212067686dd0e16030a0d893b6d7c87eef6149e54cd272b8d3de94"}, "vout": 2, "txid": "eb01b6dc09bf78dec36bd464c10f8177ad86dacc3ec7692175aad207a3a2b9b8"}], "txid": "721cfef26b080800945fd9b3514895ad0483c8973281ce125e051adde8d3afb1", "blocktime": 1537875543, "version": 1, "confirmations": 11464, "time": 1537875543, "locktime": 0, "vsize": 815, "size": 815}