{"hash": "73ff25b20a98aeeca06bcfcbd9acf2872660dfab39b72aeb8b358995a9f22e12", "blockhash": "000000000000000000022b45ed06c6f4ccd3cf7fb5ba4856ebd2e58215665228", "vout": [{"scriptPubKey": {"reqSigs": 1, "hex": "76a9148cfbbfff9eb2d7efba45f1e7566442c1a3a4c37c88ac", "addresses": ["1DrTBkeSbr8AJN9pLWumQhHgkZgDbR98eM"], "asm": "OP_DUP OP_HASH160 8cfbbfff9eb2d7efba45f1e7566442c1a3a4c37c OP_EQUALVERIFY OP_CHECKSIG", "type": "pubkeyhash"}, "value": 0.0023506, "n": 0}, {"scriptPubKey": {"reqSigs": 1, "hex": "a91470226a3df9884c72559757b9d525ad1a0b0dfc4e87", "addresses": ["3BuvqE2fJxwMdeLA9H5jaAGtyh1n1N8Pep"], "asm": "OP_HASH160 70226a3df9884c72559757b9d525ad1a0b0dfc4e OP_EQUAL", "type": "scripthash"}, "value": 0.01020933, "n": 1}], "hex": "0200000000010237e0338d30027634bfb696b4049b6c6f684c9b0562a83cb9b7c33e4312bbd9db0400000017160014104b854bf34e4f5de27d1927ca03269ca6d3e2fbfeffffffaadf998bec93d0093832eecf5592912062db26e17e53ab4948e28609a34528c8010000001716001413ccd3d1530609f6efb2d08ae0f6f3d8888e3ea0feffffff0234960300000000001976a9148cfbbfff9eb2d7efba45f1e7566442c1a3a4c37c88ac05940f000000000017a91470226a3df9884c72559757b9d525ad1a0b0dfc4e870247304402205dae149a097b4d09bf8de14cbc891743f17ea46a4b0c998d03f6a7582cc5cde902201a9f2bd2426cde9d793730441bbc6ac46c0546d988550a65195a7eb6aa548f72012102d0552dabc230291474118dbc5bef2953a1c87dad40fc40a2398e0c981ebff5710247304402206af7177b9c4fcbf7b662ed09c43a26e90ea7c16a681f5aa157ffea273c884d94022006d0e18117c0497ab4974959c409fa272d00d96cdbc005570ee8172b6f694e09012102231afc6cd3e9b693661bd40e7b57913f42edcdf916fc1a6f2542bdacda354f940b490800", "vin": [{"txinwitness": ["304402205dae149a097b4d09bf8de14cbc891743f17ea46a4b0c998d03f6a7582cc5cde902201a9f2bd2426cde9d793730441bbc6ac46c0546d988550a65195a7eb6aa548f7201", "02d0552dabc230291474118dbc5bef2953a1c87dad40fc40a2398e0c981ebff571"], "sequence": 4294967294, "scriptSig": {"hex": "160014104b854bf34e4f5de27d1927ca03269ca6d3e2fb", "asm": "0014104b854bf34e4f5de27d1927ca03269ca6d3e2fb"}, "vout": 4, "txid": "dbd9bb12433ec3b7b93ca862059b4c686f6c9b04b496b6bf347602308d33e037"}, {"txinwitness": ["304402206af7177b9c4fcbf7b662ed09c43a26e90ea7c16a681f5aa157ffea273c884d94022006d0e18117c0497ab4974959c409fa272d00d96cdbc005570ee8172b6f694e0901", "02231afc6cd3e9b693661bd40e7b57913f42edcdf916fc1a6f2542bdacda354f94"], "sequence": 4294967294, "scriptSig": {"hex": "16001413ccd3d1530609f6efb2d08ae0f6f3d8888e3ea0", "asm": "001413ccd3d1530609f6efb2d08ae0f6f3d8888e3ea0"}, "vout": 1, "txid": "c82845a30986e24849ab537ee126db6220919255cfee323809d093ec8b99dfaa"}], "txid": "721ed07924f66df9e6c90ef8f7fcdf880d859dde4c075487747cd2af4c2fc88c", "blocktime": 1537869901, "version": 2, "confirmations": 11524, "time": 1537869901, "locktime": 542987, "vsize": 258, "size": 420}