{"hash": "fbf5e197a1870f76f106cf6f27b1ef1d236b8b8505324de65085e9209f1b9daa", "blockhash": "0000000000000000001e0dab787dd257d1dbfcb92a98c2207d5e1078be1f4165", "vout": [{"scriptPubKey": {"reqSigs": 1, "hex": "a9148e0e31ce692f41b32db3e295764f3f212df9997087", "addresses": ["3Ee8t3CT1ps2bRhrX8FhKz5VToULjHMKKx"], "asm": "OP_HASH160 8e0e31ce692f41b32db3e295764f3f212df99970 OP_EQUAL", "type": "scripthash"}, "value": 1.20528903, "n": 0}, {"scriptPubKey": {"reqSigs": 1, "hex": "76a9143e0cb54753c65e477308243acf185e6c9f12c1eb88ac", "addresses": ["16f67sQi5wetY8aN9YNjWp6z8vtSXNMxjt"], "asm": "OP_DUP OP_HASH160 3e0cb54753c65e477308243acf185e6c9f12c1eb OP_EQUALVERIFY OP_CHECKSIG", "type": "pubkeyhash"}, "value": 0.006, "n": 1}], "hex": "02000000000101318afcd33ae7e8bee1fb3a2aba96e86ce74333e696bc6ff1267de014643a634b00000000171600141578285b91b405cb269139c7955aefe4d0265792ffffffff0207202f070000000017a9148e0e31ce692f41b32db3e295764f3f212df9997087c0270900000000001976a9143e0cb54753c65e477308243acf185e6c9f12c1eb88ac0247304402207e79148935b0a9126ae135505774dc0266264a158e8d1f06ab09cf610d00033f02201db2480b31fc379a173892a4d9be1f1de50bedb6387ae2ddd90754365c941e5c012103111b3cceb5cc052cab16b9cf6697f82aaa403db5999cc3c935cd3b85915898d500000000", "vin": [{"txinwitness": ["304402207e79148935b0a9126ae135505774dc0266264a158e8d1f06ab09cf610d00033f02201db2480b31fc379a173892a4d9be1f1de50bedb6387ae2ddd90754365c941e5c01", "03111b3cceb5cc052cab16b9cf6697f82aaa403db5999cc3c935cd3b85915898d5"], "sequence": 4294967295, "scriptSig": {"hex": "1600141578285b91b405cb269139c7955aefe4d0265792", "asm": "00141578285b91b405cb269139c7955aefe4d0265792"}, "vout": 0, "txid": "4b633a6414e07d26f16fbc96e63343e76ce896ba2a3afbe1bee8e73ad3fc8a31"}], "txid": "722182123a1ec3c02806dab586ccbf88446a176eb646f9e10745289ee1664bca", "blocktime": 1537872475, "version": 2, "confirmations": 11486, "time": 1537872475, "locktime": 0, "vsize": 168, "size": 249}