{"hash": "7221fbc96508ec5da7d3c9ab49c8cab1973b764aa51e008beae5a27388258462", "blockhash": "0000000000000000000e13cef7c366c0283d82e591d1acd082e914b08063cdf1", "vout": [{"scriptPubKey": {"reqSigs": 1, "hex": "76a914f7f3e663d1700ae7db1ebc8551a2bc671dc407fc88ac", "addresses": ["1Pc45rDFGaXjPkb4onYr5krwu2rnv4FH63"], "asm": "OP_DUP OP_HASH160 f7f3e663d1700ae7db1ebc8551a2bc671dc407fc OP_EQUALVERIFY OP_CHECKSIG", "type": "pubkeyhash"}, "value": 9.97e-06, "n": 0}, {"scriptPubKey": {"reqSigs": 1, "hex": "76a9143aee3ab16c27f8021e2adf019998dfa9ed8bcc3b88ac", "addresses": ["16NbaazLkLMCCZxs77SJvK88hYtzMYWnEE"], "asm": "OP_DUP OP_HASH160 3aee3ab16c27f8021e2adf019998dfa9ed8bcc3b OP_EQUALVERIFY OP_CHECKSIG", "type": "pubkeyhash"}, "value": 0.00644641, "n": 1}], "hex": "01000000018729dee4c6a08b35f0720aa4686af77d4fcf00129ddbd4b00dc003bcdbaf9136010000006b4830450221008b54ce6cd0d458ee639bf796af6ade63fe88708ea5c842e5a81b4558f675645e02202282a6b54bd4dc5d7af68987a911c5bedbb2243316af18976dc58bafaada663101210388b5937fc00cd78c53ef2a2bb0bde1ef88f11f6d38a0697c22cf557a2aad99fcfdffffff02e5030000000000001976a914f7f3e663d1700ae7db1ebc8551a2bc671dc407fc88ac21d60900000000001976a9143aee3ab16c27f8021e2adf019998dfa9ed8bcc3b88ac10490800", "vin": [{"sequence": 4294967293, "scriptSig": {"hex": "4830450221008b54ce6cd0d458ee639bf796af6ade63fe88708ea5c842e5a81b4558f675645e02202282a6b54bd4dc5d7af68987a911c5bedbb2243316af18976dc58bafaada663101210388b5937fc00cd78c53ef2a2bb0bde1ef88f11f6d38a0697c22cf557a2aad99fc", "asm": "30450221008b54ce6cd0d458ee639bf796af6ade63fe88708ea5c842e5a81b4558f675645e02202282a6b54bd4dc5d7af68987a911c5bedbb2243316af18976dc58bafaada6631[ALL] 0388b5937fc00cd78c53ef2a2bb0bde1ef88f11f6d38a0697c22cf557a2aad99fc"}, "vout": 1, "txid": "3691afdbbc03c00db0d4db9d1200cf4f7df76a68a40a72f0358ba0c6e4de2987"}], "txid": "7221fbc96508ec5da7d3c9ab49c8cab1973b764aa51e008beae5a27388258462", "blocktime": 1537871767, "version": 1, "confirmations": 11493, "time": 1537871767, "locktime": 542992, "vsize": 226, "size": 226}