{"hash": "6d5a0d80aff06a9f19b3ff43cf95248bcb33fc00f8a777bfd214132b39de5b99", "blockhash": "0000000000000000001e0dab787dd257d1dbfcb92a98c2207d5e1078be1f4165", "vout": [{"scriptPubKey": {"reqSigs": 1, "hex": "00141c88625577510fa632923deb667e210a8b90ca3f", "addresses": ["bc1qrjyxy4th2y86vv5j8h4kvl3pp29epj3lwfd0kg"], "asm": "0 1c88625577510fa632923deb667e210a8b90ca3f", "type": "witness_v0_keyhash"}, "value": 0.0090696, "n": 0}, {"scriptPubKey": {"reqSigs": 1, "hex": "76a9147eaa9a7532dbc45d56663d08be23dec5c94fdff788ac", "addresses": ["1CYkWuA6pk31pxwMtUwQqTncAVWskeJtT3"], "asm": "OP_DUP OP_HASH160 7eaa9a7532dbc45d56663d08be23dec5c94fdff7 OP_EQUALVERIFY OP_CHECKSIG", "type": "pubkeyhash"}, "value": 0.041, "n": 1}], "hex": "01000000000101be795fa392319d181564ba6e6803334ccd9bf1eed929f709ce5f3f01311fcc404b00000017160014aa1f6c5b9db10d8e983d1878b73fbe1c613fb21affffffff02d0d60d00000000001600141c88625577510fa632923deb667e210a8b90ca3fa08f3e00000000001976a9147eaa9a7532dbc45d56663d08be23dec5c94fdff788ac02483045022100a615f0525d86289c2cb7d98f8dc3a2c5a1a8a3627f240de1ec48346647cc39b902204a9d674891f874bb78e394c4fa6f7fec8f2453fa4ee4eb7ed37aae4ef1fb466001210203c476fc7d764ece6e0d9f7631742cf4e6035a4a118ad6736c803b36e55bc66900000000", "vin": [{"txinwitness": ["3045022100a615f0525d86289c2cb7d98f8dc3a2c5a1a8a3627f240de1ec48346647cc39b902204a9d674891f874bb78e394c4fa6f7fec8f2453fa4ee4eb7ed37aae4ef1fb466001", "0203c476fc7d764ece6e0d9f7631742cf4e6035a4a118ad6736c803b36e55bc669"], "sequence": 4294967295, "scriptSig": {"hex": "160014aa1f6c5b9db10d8e983d1878b73fbe1c613fb21a", "asm": "0014aa1f6c5b9db10d8e983d1878b73fbe1c613fb21a"}, "vout": 75, "txid": "40cc1f31013f5fce09f729d9eef19bcd4c3303686eba6415189d3192a35f79be"}], "txid": "7225af7faff248b71d1d961c03694fa7e6c6698de45d8d9a3b765aace56000f4", "blocktime": 1537872475, "version": 1, "confirmations": 11487, "time": 1537872475, "locktime": 0, "vsize": 167, "size": 249}