{"hash": "58c289017bc82777913627007909c454d933c410b21d6ce8b5eca53de6ff78c7", "blockhash": "00000000000000000017f5eb5941039fbcee6240d03bc1f2f8e35350df66a1d8", "vout": [{"scriptPubKey": {"reqSigs": 1, "hex": "a9144d38a92c6b7cafd3f825377e586ce4610cf7107d87", "addresses": ["38jKqBJbzX3EcPU2iSKvppsEw9BWnn4s69"], "asm": "OP_HASH160 4d38a92c6b7cafd3f825377e586ce4610cf7107d OP_EQUAL", "type": "scripthash"}, "value": 0.03971169, "n": 0}, {"scriptPubKey": {"reqSigs": 1, "hex": "a914258919e8b73e2a4aaa1d394204eb767fd39fa6c687", "addresses": ["357VAbmrdzqPFzH6dZeqBvZu1Y9GwK3KpP"], "asm": "OP_HASH160 258919e8b73e2a4aaa1d394204eb767fd39fa6c6 OP_EQUAL", "type": "scripthash"}, "value": 0.79621311, "n": 1}], "hex": "0200000000010166854321c481c35deaecf33efe21788d603fd4d6984e6575483c3c07570f019a01000000171600147120a7266327cd5b43f089afe8b8f19e336154fffeffffff0261983c000000000017a9144d38a92c6b7cafd3f825377e586ce4610cf7107d87bfecbe040000000017a914258919e8b73e2a4aaa1d394204eb767fd39fa6c68702483045022100e0c5161cc08a93bcf65641fba2d8c8f4cb7cd74889d79e121adb1e4efe2e46d0022029ffe6791816502c3b567ffb2eda800e9b59018dcd990b5564b712a00285fd9c012103a217b559966148eec99201a19c51245b73f4b461d2de506ba51fe1ff73f4e57915490800", "vin": [{"txinwitness": ["3045022100e0c5161cc08a93bcf65641fba2d8c8f4cb7cd74889d79e121adb1e4efe2e46d0022029ffe6791816502c3b567ffb2eda800e9b59018dcd990b5564b712a00285fd9c01", "03a217b559966148eec99201a19c51245b73f4b461d2de506ba51fe1ff73f4e579"], "sequence": 4294967294, "scriptSig": {"hex": "1600147120a7266327cd5b43f089afe8b8f19e336154ff", "asm": "00147120a7266327cd5b43f089afe8b8f19e336154ff"}, "vout": 1, "txid": "9a010f57073c3c4875654e98d6d43f608d7821fe3ef3ecea5dc381c421438566"}], "txid": "7228865f3f1709e7f4c443e75a43e94899ea1d075ab5924a545075d0540d21e5", "blocktime": 1537874412, "version": 2, "confirmations": 11468, "time": 1537874412, "locktime": 542997, "vsize": 166, "size": 248}