{"hash": "722a0ce00570090d87b039bcade89208810ef386a03a586d470da2fe09e5d5b5", "blockhash": "00000000000000000004ffacab907a6b429b9a5745fa0b75af4234bf69dd7176", "vout": [{"scriptPubKey": {"reqSigs": 1, "hex": "76a914759025ef30bfc6d8e6834ca15925d5c95ca88a8788ac", "addresses": ["1Bick33xGCB28bsjJvDWAFmmSgiCAnSM5U"], "asm": "OP_DUP OP_HASH160 759025ef30bfc6d8e6834ca15925d5c95ca88a87 OP_EQUALVERIFY OP_CHECKSIG", "type": "pubkeyhash"}, "value": 0.0023491, "n": 0}, {"scriptPubKey": {"reqSigs": 1, "hex": "76a914b520984c1c6d9448650bbbfe4d5a55e40c4cf19a88ac", "addresses": ["1HWiMTR8vxiGdCQp3LH67w7A7cohumFa8u"], "asm": "OP_DUP OP_HASH160 b520984c1c6d9448650bbbfe4d5a55e40c4cf19a OP_EQUALVERIFY OP_CHECKSIG", "type": "pubkeyhash"}, "value": 0.08033514, "n": 1}], "hex": "0200000001666bed6ada5b423ea501b8d05a525b645df0be523f3398c955063275436ac211010000006b48304502210082c034fdaf97626c61772ed472da4a7db35bd9d269b2e80841a179f2588ccf7e022034dbf412e8b01e048138822a57f998a38b5a272f10ce0592f7b364042c333e4e012102db979748bb82aac24e3e82f688b9262d56fd7ae3c9442f309259e127f2db4a52ffffffff029e950300000000001976a914759025ef30bfc6d8e6834ca15925d5c95ca88a8788acea947a00000000001976a914b520984c1c6d9448650bbbfe4d5a55e40c4cf19a88ac00000000", "vin": [{"sequence": 4294967295, "scriptSig": {"hex": "48304502210082c034fdaf97626c61772ed472da4a7db35bd9d269b2e80841a179f2588ccf7e022034dbf412e8b01e048138822a57f998a38b5a272f10ce0592f7b364042c333e4e012102db979748bb82aac24e3e82f688b9262d56fd7ae3c9442f309259e127f2db4a52", "asm": "304502210082c034fdaf97626c61772ed472da4a7db35bd9d269b2e80841a179f2588ccf7e022034dbf412e8b01e048138822a57f998a38b5a272f10ce0592f7b364042c333e4e[ALL] 02db979748bb82aac24e3e82f688b9262d56fd7ae3c9442f309259e127f2db4a52"}, "vout": 1, "txid": "11c26a4375320655c998333f52bef05d645b525ad0b801a53e425bda6aed6b66"}], "txid": "722a0ce00570090d87b039bcade89208810ef386a03a586d470da2fe09e5d5b5", "blocktime": 1537875543, "version": 2, "confirmations": 11464, "time": 1537875543, "locktime": 0, "vsize": 226, "size": 226}