{"hash": "b1fb142af0bb04f21164125fd84155cffa519e730464ca07b3e4dea9eb35ad1a", "blockhash": "000000000000000000022b45ed06c6f4ccd3cf7fb5ba4856ebd2e58215665228", "vout": [{"scriptPubKey": {"reqSigs": 1, "hex": "a9141d7370ccde4590204155e4074f69743a8e4fac0287", "addresses": ["34Njp4ZKtmCDfqqps26wHBYQQGUo2pGkLi"], "asm": "OP_HASH160 1d7370ccde4590204155e4074f69743a8e4fac02 OP_EQUAL", "type": "scripthash"}, "value": 0.00099574, "n": 0}], "hex": "01000000000101c91a21cea51c6bb17d2bf29ed6dd6acdbf01b0329f1c6f468d94c50e63957d450100000017160014ac881d446dbcc193c2c0a6c4c18a90041ff25a61ffffffff01f68401000000000017a9141d7370ccde4590204155e4074f69743a8e4fac0287024730440220378a7374ef73c516e8560a87c7deb6b8a040c674ca0d739b58b83d4408b017db02201b8597d9c6bacc36637b15043a08ba197b8ecbdc23a07327f766a34d449b84e10121024e22aaee33a413d5a3b1b0bcdac42bae9a58e8d4710d8a2e5aefbdd5a2b58d5200000000", "vin": [{"txinwitness": ["30440220378a7374ef73c516e8560a87c7deb6b8a040c674ca0d739b58b83d4408b017db02201b8597d9c6bacc36637b15043a08ba197b8ecbdc23a07327f766a34d449b84e101", "024e22aaee33a413d5a3b1b0bcdac42bae9a58e8d4710d8a2e5aefbdd5a2b58d52"], "sequence": 4294967295, "scriptSig": {"hex": "160014ac881d446dbcc193c2c0a6c4c18a90041ff25a61", "asm": "0014ac881d446dbcc193c2c0a6c4c18a90041ff25a61"}, "vout": 1, "txid": "457d95630ec5948d466f1c9f32b001bfcd6addd69ef22b7db16b1ca5ce211ac9"}], "txid": "722b4f5d48e1eff51e09851103c1d35449c7821c49419b0918662e35814d9a60", "blocktime": 1537869901, "version": 1, "confirmations": 11523, "time": 1537869901, "locktime": 0, "vsize": 134, "size": 215}