{"hash": "7230a0c6f4ba132e17508b8eda435953cb180c231fc172e866aeda76b8710194", "blockhash": "0000000000000000000baef3f32e3676a92c3b2e5da21b426e4f302fc371ce76", "vout": [{"scriptPubKey": {"reqSigs": 1, "hex": "76a9142bae7f45c157cee09048c172bbc714e0c124c49a88ac", "addresses": ["14yy6XP6BdC1dSbExNPHuUZrLHb2XZ5SNi"], "asm": "OP_DUP OP_HASH160 2bae7f45c157cee09048c172bbc714e0c124c49a OP_EQUALVERIFY OP_CHECKSIG", "type": "pubkeyhash"}, "value": 0.00286827, "n": 0}, {"scriptPubKey": {"reqSigs": 1, "hex": "76a91466fc49ccec97a84f5d70740933a96d624ce6340288ac", "addresses": ["1APY9s7F87spS8w2NJxoo4LksEdkuHorET"], "asm": "OP_DUP OP_HASH160 66fc49ccec97a84f5d70740933a96d624ce63402 OP_EQUALVERIFY OP_CHECKSIG", "type": "pubkeyhash"}, "value": 0.06824766, "n": 1}], "hex": "01000000017e7ccde9a5170d0da36bcc134af4669ae2f289b2e1ae7de07ea5c1b615ff6656010000006b483045022100bac8361cfe3b4291901a7aeba79988338847ebac6f88f9ece24e623265c567810220471060933930664a0bb43b37b2376acb6e002b870a827b2bfa99ee08a66e0802012102d4c7737e6a29176cd4ac9b454597104ea1008ac5bd16eb90c45e6193611c8a7affffffff026b600400000000001976a9142bae7f45c157cee09048c172bbc714e0c124c49a88ac3e236800000000001976a91466fc49ccec97a84f5d70740933a96d624ce6340288ac00000000", "vin": [{"sequence": 4294967295, "scriptSig": {"hex": "483045022100bac8361cfe3b4291901a7aeba79988338847ebac6f88f9ece24e623265c567810220471060933930664a0bb43b37b2376acb6e002b870a827b2bfa99ee08a66e0802012102d4c7737e6a29176cd4ac9b454597104ea1008ac5bd16eb90c45e6193611c8a7a", "asm": "3045022100bac8361cfe3b4291901a7aeba79988338847ebac6f88f9ece24e623265c567810220471060933930664a0bb43b37b2376acb6e002b870a827b2bfa99ee08a66e0802[ALL] 02d4c7737e6a29176cd4ac9b454597104ea1008ac5bd16eb90c45e6193611c8a7a"}, "vout": 1, "txid": "5666ff15b6c1a57ee07daee1b289f2e29a66f44a13cc6ba30d0d17a5e9cd7c7e"}], "txid": "7230a0c6f4ba132e17508b8eda435953cb180c231fc172e866aeda76b8710194", "blocktime": 1537876114, "version": 1, "confirmations": 11460, "time": 1537876114, "locktime": 0, "vsize": 226, "size": 226}