{"hash": "723704d77b3106c107976ab6d20817206f460018110c8f37c040efa7111dc5a8", "blockhash": "00000000000000000017f5eb5941039fbcee6240d03bc1f2f8e35350df66a1d8", "vout": [{"scriptPubKey": {"reqSigs": 1, "hex": "76a914df28f89a5a24b82a4357c81121609244448a850c88ac", "addresses": ["1MLxmW2csUCy6VAnpxSLsBqzqiHom2QSeX"], "asm": "OP_DUP OP_HASH160 df28f89a5a24b82a4357c81121609244448a850c OP_EQUALVERIFY OP_CHECKSIG", "type": "pubkeyhash"}, "value": 0.10166225, "n": 0}, {"scriptPubKey": {"reqSigs": 1, "hex": "a91426880cb111b3baa5308b6466369db2112e02925587", "addresses": ["35CkaivYcyHcLXCsBJ3iUSYWYoiWhW94qr"], "asm": "OP_HASH160 26880cb111b3baa5308b6466369db2112e029255 OP_EQUAL", "type": "scripthash"}, "value": 0.296644, "n": 1}], "hex": "01000000016251e44df094208fc95fa4d69d67375b676f33f541add48358267d2e5a3e63cf1a0000006a473044022018c5512f7892d72bfb132068cbba82143eca88195063e25294058f34c3c555d802204b017a55af53336d6a009b53cd067f9367da5026595d6751f969865d898f4d35012103edc6f2e7953763b4a6cfbdde734df794454d6531e81c7b0f7efd2ebfc3d241d8ffffffff02d11f9b00000000001976a914df28f89a5a24b82a4357c81121609244448a850c88ac90a4c4010000000017a91426880cb111b3baa5308b6466369db2112e0292558700000000", "vin": [{"sequence": 4294967295, "scriptSig": {"hex": "473044022018c5512f7892d72bfb132068cbba82143eca88195063e25294058f34c3c555d802204b017a55af53336d6a009b53cd067f9367da5026595d6751f969865d898f4d35012103edc6f2e7953763b4a6cfbdde734df794454d6531e81c7b0f7efd2ebfc3d241d8", "asm": "3044022018c5512f7892d72bfb132068cbba82143eca88195063e25294058f34c3c555d802204b017a55af53336d6a009b53cd067f9367da5026595d6751f969865d898f4d35[ALL] 03edc6f2e7953763b4a6cfbdde734df794454d6531e81c7b0f7efd2ebfc3d241d8"}, "vout": 26, "txid": "cf633e5a2e7d265883d4ad41f5336f675b37679dd6a45fc98f2094f04de45162"}], "txid": "723704d77b3106c107976ab6d20817206f460018110c8f37c040efa7111dc5a8", "blocktime": 1537874412, "version": 1, "confirmations": 11467, "time": 1537874412, "locktime": 0, "vsize": 223, "size": 223}