{"hash": "723f402d6d0f25d4d9014f78b0afd1f18c446284962026821b7391b7b8ce0b1d", "blockhash": "0000000000000000001cda96e906b7601b7a6fb1a3b62bca570a9e5d8f4b3de1", "vout": [{"scriptPubKey": {"type": "nulldata", "hex": "6a146f6d6e69000000000000001f0000001c5720b89b", "asm": "OP_RETURN 6f6d6e69000000000000001f0000001c5720b89b"}, "value": 0.0, "n": 0}, {"scriptPubKey": {"reqSigs": 1, "hex": "76a914a25dec4d0011064ef106a983c39c7a540699f22088ac", "addresses": ["1FoWyxwPXuj4C6abqwhjDWdz6D4PZgYRjA"], "asm": "OP_DUP OP_HASH160 a25dec4d0011064ef106a983c39c7a540699f220 OP_EQUALVERIFY OP_CHECKSIG", "type": "pubkeyhash"}, "value": 0.01985651, "n": 1}, {"scriptPubKey": {"reqSigs": 1, "hex": "76a9147aaffcf8dcc37646ca1c82a27418ffc4b19f896988ac", "addresses": ["1CBiGH17HJi5NAJZ3JAeKTkW6tC3iAKm1c"], "asm": "OP_DUP OP_HASH160 7aaffcf8dcc37646ca1c82a27418ffc4b19f8969 OP_EQUALVERIFY OP_CHECKSIG", "type": "pubkeyhash"}, "value": 5.46e-06, "n": 2}], "hex": "01000000018e530076517debeb01c3f736e743af09578bac79a58f8bc902796d2a3fd5a2fa010000006a473044022024da4f4108af9c14c097418015104ba0acc661f28748c6d65e9ad342f4185672022062611afd52dc5d740cc6954c72dbccdae25e096695ee32376732871ad78762bc012103da5bac7b36d5aa38f531c6b9601e21bb598a4b6716ebed38b009a55dabde9440feffffff030000000000000000166a146f6d6e69000000000000001f0000001c5720b89b734c1e00000000001976a914a25dec4d0011064ef106a983c39c7a540699f22088ac22020000000000001976a9147aaffcf8dcc37646ca1c82a27418ffc4b19f896988ac13490800", "vin": [{"sequence": 4294967294, "scriptSig": {"hex": "473044022024da4f4108af9c14c097418015104ba0acc661f28748c6d65e9ad342f4185672022062611afd52dc5d740cc6954c72dbccdae25e096695ee32376732871ad78762bc012103da5bac7b36d5aa38f531c6b9601e21bb598a4b6716ebed38b009a55dabde9440", "asm": "3044022024da4f4108af9c14c097418015104ba0acc661f28748c6d65e9ad342f4185672022062611afd52dc5d740cc6954c72dbccdae25e096695ee32376732871ad78762bc[ALL] 03da5bac7b36d5aa38f531c6b9601e21bb598a4b6716ebed38b009a55dabde9440"}, "vout": 1, "txid": "faa2d53f2a6d7902c98b8fa579ac8b5709af43e736f7c301ebeb7d517600538e"}], "txid": "723f402d6d0f25d4d9014f78b0afd1f18c446284962026821b7391b7b8ce0b1d", "blocktime": 1537873282, "version": 1, "confirmations": 11481, "time": 1537873282, "locktime": 542995, "vsize": 256, "size": 256}