{"hash": "72419c35006918007558a8c3c1bb6fe564cfceb989f423a28dfa75fe0bc7b95c", "blockhash": "00000000000000000017f5eb5941039fbcee6240d03bc1f2f8e35350df66a1d8", "vout": [{"scriptPubKey": {"reqSigs": 1, "hex": "76a9140fe063419d70107a041e2c6ad34f3deebfc051e088ac", "addresses": ["12SwwcMZzfrupLMKoMEJpPKBY9w7kJLkzS"], "asm": "OP_DUP OP_HASH160 0fe063419d70107a041e2c6ad34f3deebfc051e0 OP_EQUALVERIFY OP_CHECKSIG", "type": "pubkeyhash"}, "value": 0.07817594, "n": 0}, {"scriptPubKey": {"reqSigs": 1, "hex": "76a914aa665dd3bdd06a6887473c80e11986fbf2f1db3288ac", "addresses": ["1GXzWAM33GaX2CaxKaCn21DeDzzueJxPaS"], "asm": "OP_DUP OP_HASH160 aa665dd3bdd06a6887473c80e11986fbf2f1db32 OP_EQUALVERIFY OP_CHECKSIG", "type": "pubkeyhash"}, "value": 0.59272429, "n": 1}], "hex": "0100000001b722feb06af67d30d331fad5f84c4411008a706525ba804d87ca5e1526ce099f010000006a473044022076d517139ab0d1dfaef36c108cde24d52fc11f897e53f17d3598fa4f2664485602201afeba22a296b52462b27175d075c23ab9a61b41f7fa506aebc60102053db09601210211e885d8edaad7da7b4274c5feeb5211b9c9bfa91c4f5b789939893f0d091d24ffffffff027a497700000000001976a9140fe063419d70107a041e2c6ad34f3deebfc051e088aced6c8803000000001976a914aa665dd3bdd06a6887473c80e11986fbf2f1db3288ac00000000", "vin": [{"sequence": 4294967295, "scriptSig": {"hex": "473044022076d517139ab0d1dfaef36c108cde24d52fc11f897e53f17d3598fa4f2664485602201afeba22a296b52462b27175d075c23ab9a61b41f7fa506aebc60102053db09601210211e885d8edaad7da7b4274c5feeb5211b9c9bfa91c4f5b789939893f0d091d24", "asm": "3044022076d517139ab0d1dfaef36c108cde24d52fc11f897e53f17d3598fa4f2664485602201afeba22a296b52462b27175d075c23ab9a61b41f7fa506aebc60102053db096[ALL] 0211e885d8edaad7da7b4274c5feeb5211b9c9bfa91c4f5b789939893f0d091d24"}, "vout": 1, "txid": "9f09ce26155eca874d80ba2565708a0011444cf8d5fa31d3307df66ab0fe22b7"}], "txid": "72419c35006918007558a8c3c1bb6fe564cfceb989f423a28dfa75fe0bc7b95c", "blocktime": 1537874412, "version": 1, "confirmations": 11468, "time": 1537874412, "locktime": 0, "vsize": 225, "size": 225}