{"hash": "7243ed913fdac6b12b1348d5a270f42536530f28eb59a6710124db96dea151af", "blockhash": "0000000000000000000baef3f32e3676a92c3b2e5da21b426e4f302fc371ce76", "vout": [{"scriptPubKey": {"reqSigs": 1, "hex": "76a914a948cc2a2556ad321ec14cef4fb273223355256788ac", "addresses": ["1GS6QUpHENqaz7ddzXEfEH3AdKJ2BCazgL"], "asm": "OP_DUP OP_HASH160 a948cc2a2556ad321ec14cef4fb2732233552567 OP_EQUALVERIFY OP_CHECKSIG", "type": "pubkeyhash"}, "value": 0.00219558, "n": 0}, {"scriptPubKey": {"reqSigs": 1, "hex": "a9148c3b76ae1e410000ba581e1a2bcba536f2de2c2a87", "addresses": ["3EUVm18Gpz55Zt2XvQQkAMLA27YH9y5Azi"], "asm": "OP_HASH160 8c3b76ae1e410000ba581e1a2bcba536f2de2c2a OP_EQUAL", "type": "scripthash"}, "value": 0.056271, "n": 1}], "hex": "0100000001e95f5e3f37e953d21a76a4619aeaa35a2604d17923ede6cceb960cad2f01db8e010000006b483045022100b4e3b561e9bbbbfd2971e53d6f77c9e93381cbabd47c9c9c079083be69c22b1302201cd2c56b90c11d70e65accdd965cc149121e4a697fe4a5190bf1ad565c411f3901210336c13b0ec40204b7bffe8e796553e767f161d1594f0cdfb19671504489f45827ffffffff02a6590300000000001976a914a948cc2a2556ad321ec14cef4fb273223355256788acdcdc55000000000017a9148c3b76ae1e410000ba581e1a2bcba536f2de2c2a8700000000", "vin": [{"sequence": 4294967295, "scriptSig": {"hex": "483045022100b4e3b561e9bbbbfd2971e53d6f77c9e93381cbabd47c9c9c079083be69c22b1302201cd2c56b90c11d70e65accdd965cc149121e4a697fe4a5190bf1ad565c411f3901210336c13b0ec40204b7bffe8e796553e767f161d1594f0cdfb19671504489f45827", "asm": "3045022100b4e3b561e9bbbbfd2971e53d6f77c9e93381cbabd47c9c9c079083be69c22b1302201cd2c56b90c11d70e65accdd965cc149121e4a697fe4a5190bf1ad565c411f39[ALL] 0336c13b0ec40204b7bffe8e796553e767f161d1594f0cdfb19671504489f45827"}, "vout": 1, "txid": "8edb012fad0c96ebcce6ed2379d104265aa3ea9a61a4761ad253e9373f5e5fe9"}], "txid": "7243ed913fdac6b12b1348d5a270f42536530f28eb59a6710124db96dea151af", "blocktime": 1537876114, "version": 1, "confirmations": 11459, "time": 1537876114, "locktime": 0, "vsize": 224, "size": 224}