{"hash": "72474b01334a0d90a64305f65b7ca9e51b159d7370bc75f852cafea2c5a5548b", "blockhash": "0000000000000000000dcc0f55137456b1a82d3642486a52398922ac4d620174", "vout": [{"scriptPubKey": {"reqSigs": 1, "hex": "76a914751fd94cd2a842b17fbd9911c749f8b5621a2f3e88ac", "addresses": ["1BgJDLhGUidRS82WxZnc2jCfNMwq3JCqMY"], "asm": "OP_DUP OP_HASH160 751fd94cd2a842b17fbd9911c749f8b5621a2f3e OP_EQUALVERIFY OP_CHECKSIG", "type": "pubkeyhash"}, "value": 0.01033422, "n": 0}], "hex": "0100000001bb6bca6c706244af0a636520ee3ec0cefa07a1896ef13ef638fc4db9957f58be000000006b483045022100e5b1853005848db76e2917b1ce3797434cf559a5eb1edcd7095315c8cdd2738d02201b1d408a1e0577e85ea50d36301f25fc84e6f150190af6943cc9d010ff17b520012102f03600e1c08c40ea3cac9f604634360384370c84cf80b39c4a2c1ba789575effffffffff01cec40f00000000001976a914751fd94cd2a842b17fbd9911c749f8b5621a2f3e88ac00000000", "vin": [{"sequence": 4294967295, "scriptSig": {"hex": "483045022100e5b1853005848db76e2917b1ce3797434cf559a5eb1edcd7095315c8cdd2738d02201b1d408a1e0577e85ea50d36301f25fc84e6f150190af6943cc9d010ff17b520012102f03600e1c08c40ea3cac9f604634360384370c84cf80b39c4a2c1ba789575eff", "asm": "3045022100e5b1853005848db76e2917b1ce3797434cf559a5eb1edcd7095315c8cdd2738d02201b1d408a1e0577e85ea50d36301f25fc84e6f150190af6943cc9d010ff17b520[ALL] 02f03600e1c08c40ea3cac9f604634360384370c84cf80b39c4a2c1ba789575eff"}, "vout": 0, "txid": "be587f95b94dfc38f63ef16e89a107facec03eee2065630aaf4462706cca6bbb"}], "txid": "72474b01334a0d90a64305f65b7ca9e51b159d7370bc75f852cafea2c5a5548b", "blocktime": 1537870268, "version": 1, "confirmations": 11518, "time": 1537870268, "locktime": 0, "vsize": 192, "size": 192}