{"hash": "72477733cb4567b0e682eb59396b8ff91297e39f9fcc571ade5b94cc87750ba6", "blockhash": "000000000000000000022b45ed06c6f4ccd3cf7fb5ba4856ebd2e58215665228", "vout": [{"scriptPubKey": {"reqSigs": 1, "hex": "76a914392d5fde28c39e763044c9da1ea9b0eebaceba0c88ac", "addresses": ["16DKscJkt9Lz8FK3ejYbJVC43C1414Bdiz"], "asm": "OP_DUP OP_HASH160 392d5fde28c39e763044c9da1ea9b0eebaceba0c OP_EQUALVERIFY OP_CHECKSIG", "type": "pubkeyhash"}, "value": 0.105717, "n": 0}, {"scriptPubKey": {"reqSigs": 1, "hex": "76a914aac6be32a0618ed77bfdf829ede1f1ee5634228988ac", "addresses": ["1GZyxWpVfjkUBPrzxrWPT4ZsDfHbxxzieF"], "asm": "OP_DUP OP_HASH160 aac6be32a0618ed77bfdf829ede1f1ee56342289 OP_EQUALVERIFY OP_CHECKSIG", "type": "pubkeyhash"}, "value": 0.90448071, "n": 1}], "hex": "0100000001256f096b8907bce1e3590c5e57d9b43e967d08641ca9404e7d51c8c4cd517c02010000006a47304402203467c34baa80694593a163d8984c57341481cbd4e81eb2446ee0dc963513878502205bffe677ce821d6478394a79007be7804464e75813813c07580a87704b6537e00121033539031a4bb34aca058322946a6459dc896b85ed1886940452062464addf2b08ffffffff02b44fa100000000001976a914392d5fde28c39e763044c9da1ea9b0eebaceba0c88acc7206405000000001976a914aac6be32a0618ed77bfdf829ede1f1ee5634228988ac00000000", "vin": [{"sequence": 4294967295, "scriptSig": {"hex": "47304402203467c34baa80694593a163d8984c57341481cbd4e81eb2446ee0dc963513878502205bffe677ce821d6478394a79007be7804464e75813813c07580a87704b6537e00121033539031a4bb34aca058322946a6459dc896b85ed1886940452062464addf2b08", "asm": "304402203467c34baa80694593a163d8984c57341481cbd4e81eb2446ee0dc963513878502205bffe677ce821d6478394a79007be7804464e75813813c07580a87704b6537e0[ALL] 033539031a4bb34aca058322946a6459dc896b85ed1886940452062464addf2b08"}, "vout": 1, "txid": "027c51cdc4c8517d4e40a91c64087d963eb4d9575e0c59e3e1bc07896b096f25"}], "txid": "72477733cb4567b0e682eb59396b8ff91297e39f9fcc571ade5b94cc87750ba6", "blocktime": 1537869901, "version": 1, "confirmations": 11522, "time": 1537869901, "locktime": 0, "vsize": 225, "size": 225}