{"hash": "59a434f19720eb5c8a33d1c5d8056812872bfdc1413aa0ae2bc6d257840b1920", "blockhash": "00000000000000000004ffacab907a6b429b9a5745fa0b75af4234bf69dd7176", "vout": [{"scriptPubKey": {"reqSigs": 1, "hex": "a9147c08cdfb586fc81327b68cbdbad2f4d16f74fd2387", "addresses": ["3CzrG5xEzS5uhiNKAk8XJPpbVV5v1CZRJs"], "asm": "OP_HASH160 7c08cdfb586fc81327b68cbdbad2f4d16f74fd23 OP_EQUAL", "type": "scripthash"}, "value": 0.17488, "n": 0}, {"scriptPubKey": {"reqSigs": 1, "hex": "76a91416d3b508d08c0f82da38efe04b1e07a13d9eb09c88ac", "addresses": ["135hUtjmUu7GVVLpnt72E3ymCyJaFFhFec"], "asm": "OP_DUP OP_HASH160 16d3b508d08c0f82da38efe04b1e07a13d9eb09c OP_EQUALVERIFY OP_CHECKSIG", "type": "pubkeyhash"}, "value": 0.160539, "n": 1}], "hex": "01000000000102c3f3cd2e7f3c454b26d0d4a4b7f0d62ee6475801a1b2f8e8def3672ae017b62800000000232200207c98bfc375aac770369692c76e273801ffa12851e26da2a7545e94baa7b28202ffffffff9998d79de22ef745805530e0c5ab0515515d668b7e0744cd6693475d44a5754a0100000023220020d32e6eb52ce3c2753fbd9f297c0a04ea4eec30ca0513c881a43a7856b8070cb2ffffffff0280d80a010000000017a9147c08cdfb586fc81327b68cbdbad2f4d16f74fd23878cf6f400000000001976a91416d3b508d08c0f82da38efe04b1e07a13d9eb09c88ac0400473044022028e7a150aad868a83b3a22e181576c562ecfcd267e4917a4129a3aea7792bc9a022033f4398b3089e187249dabcf0cfb43ccd617f6bf9331113fbf1489a721725473014830450221009edac1ba84668ca3a43325e87c13cafa9bbf9a97622be68e9d1c1fcc090a42e202203fe829e960bc72e4f543db1ded0c27f1907de44740b04713188be7e2ec6eae8f0169522102f12844ad526a0cf846e7eac3f196518dd01782bc29bbb26705791a928a583a6f21021d320328378b25ac6b013a7edf76d349c970c3d257b53bf411ff4156b77f514021021f0d342a7ca1c49b95b2e223e6fcef33a8c2b6043195d3f6ca61c6de28ca2a0e53ae0400483045022100b663662124be153e23b7fc240deeaba042d5be3091d5b422b2e6995e1ade156b0220396945530cd9c70cf0ffc2c755283659ada97cf4f0bc20f6fb5f56b2b24ec18101473044022047550804f970389e95c10d406b636dc31c6fca01981a5e8f9b096567ae93609c022066637c02b2a94f08023b515bb6057a2b4f20553fff23dbf47e2b6e0e3deecec701695221033b7605c9d36bdc0212580b19dd63b690ea3bc4f1c665e3d60b9cc078cbf53d9e2102f8a056818d044aeb7107c7257a1fe7bccfa4f1c5bbf97935820bd4c894475ea22102eb5f112f057303cade5e9d828c76103e928d19044d97ca0ecb46e224b90b8d0153ae00000000", "vin": [{"txinwitness": ["", "3044022028e7a150aad868a83b3a22e181576c562ecfcd267e4917a4129a3aea7792bc9a022033f4398b3089e187249dabcf0cfb43ccd617f6bf9331113fbf1489a72172547301", "30450221009edac1ba84668ca3a43325e87c13cafa9bbf9a97622be68e9d1c1fcc090a42e202203fe829e960bc72e4f543db1ded0c27f1907de44740b04713188be7e2ec6eae8f01", "522102f12844ad526a0cf846e7eac3f196518dd01782bc29bbb26705791a928a583a6f21021d320328378b25ac6b013a7edf76d349c970c3d257b53bf411ff4156b77f514021021f0d342a7ca1c49b95b2e223e6fcef33a8c2b6043195d3f6ca61c6de28ca2a0e53ae"], "sequence": 4294967295, "scriptSig": {"hex": "2200207c98bfc375aac770369692c76e273801ffa12851e26da2a7545e94baa7b28202", "asm": "00207c98bfc375aac770369692c76e273801ffa12851e26da2a7545e94baa7b28202"}, "vout": 0, "txid": "28b617e02a67f3dee8f8b2a1015847e62ed6f0b7a4d4d0264b453c7f2ecdf3c3"}, {"txinwitness": ["", "3045022100b663662124be153e23b7fc240deeaba042d5be3091d5b422b2e6995e1ade156b0220396945530cd9c70cf0ffc2c755283659ada97cf4f0bc20f6fb5f56b2b24ec18101", "3044022047550804f970389e95c10d406b636dc31c6fca01981a5e8f9b096567ae93609c022066637c02b2a94f08023b515bb6057a2b4f20553fff23dbf47e2b6e0e3deecec701", "5221033b7605c9d36bdc0212580b19dd63b690ea3bc4f1c665e3d60b9cc078cbf53d9e2102f8a056818d044aeb7107c7257a1fe7bccfa4f1c5bbf97935820bd4c894475ea22102eb5f112f057303cade5e9d828c76103e928d19044d97ca0ecb46e224b90b8d0153ae"], "sequence": 4294967295, "scriptSig": {"hex": "220020d32e6eb52ce3c2753fbd9f297c0a04ea4eec30ca0513c881a43a7856b8070cb2", "asm": "0020d32e6eb52ce3c2753fbd9f297c0a04ea4eec30ca0513c881a43a7856b8070cb2"}, "vout": 1, "txid": "4a75a5445d479366cd44077e8b665d511505abc5e030558045f72ee29dd79899"}], "txid": "724b78b696640b2e6accd2b53d9c0a44bd5692481e0d29f381efcb83d4c72e84", "blocktime": 1537875543, "version": 1, "confirmations": 11464, "time": 1537875543, "locktime": 0, "vsize": 355, "size": 736}