{"hash": "724dd077c776d836b7e8313719c956a3e78dca2d46e61cba8a1ab848c78fe662", "blockhash": "00000000000000000018f53835495a110e01622372bf6ae95dc86f2b0ab887b0", "vout": [{"scriptPubKey": {"reqSigs": 1, "hex": "76a914e4facf3af9ab3ab55ac3c87b3365c8184607206d88ac", "addresses": ["1MsjXHcf8m15r2Qnk6h9reCAaWafr3dkG2"], "asm": "OP_DUP OP_HASH160 e4facf3af9ab3ab55ac3c87b3365c8184607206d OP_EQUALVERIFY OP_CHECKSIG", "type": "pubkeyhash"}, "value": 0.00262121, "n": 0}, {"scriptPubKey": {"reqSigs": 1, "hex": "76a914f36b1113bd9149b7b382ac2725da9a1329df8c4a88ac", "addresses": ["1PC5TjvWLXFgTQYpVctdRDr1E2P3qsPqhJ"], "asm": "OP_DUP OP_HASH160 f36b1113bd9149b7b382ac2725da9a1329df8c4a OP_EQUALVERIFY OP_CHECKSIG", "type": "pubkeyhash"}, "value": 0.00714604, "n": 1}], "hex": "01000000013098bb09e17220e8d02544f7a50d5ce9d20a5fa4e22ffb2cc3dec1d56a61737c010000006a47304402205bed988a4bcd95c1e58dedf715c71ddb76fd2e3811a571a4d358142bd2600e9302204a00448938dcd7912099dfff52e4097db6489701ef823f35e5f4c7da4468ae8d01210352668c0bb2e5f9cddbdf9dd9ef9b13ef11bc458296f473ce4d97791289f886deffffffff02e9ff0300000000001976a914e4facf3af9ab3ab55ac3c87b3365c8184607206d88ac6ce70a00000000001976a914f36b1113bd9149b7b382ac2725da9a1329df8c4a88ac00000000", "vin": [{"sequence": 4294967295, "scriptSig": {"hex": "47304402205bed988a4bcd95c1e58dedf715c71ddb76fd2e3811a571a4d358142bd2600e9302204a00448938dcd7912099dfff52e4097db6489701ef823f35e5f4c7da4468ae8d01210352668c0bb2e5f9cddbdf9dd9ef9b13ef11bc458296f473ce4d97791289f886de", "asm": "304402205bed988a4bcd95c1e58dedf715c71ddb76fd2e3811a571a4d358142bd2600e9302204a00448938dcd7912099dfff52e4097db6489701ef823f35e5f4c7da4468ae8d[ALL] 0352668c0bb2e5f9cddbdf9dd9ef9b13ef11bc458296f473ce4d97791289f886de"}, "vout": 1, "txid": "7c73616ad5c1dec32cfb2fe2a45f0ad2e95c0da5f74425d0e82072e109bb9830"}], "txid": "724dd077c776d836b7e8313719c956a3e78dca2d46e61cba8a1ab848c78fe662", "blocktime": 1537870928, "version": 1, "confirmations": 11512, "time": 1537870928, "locktime": 0, "vsize": 225, "size": 225}