{"hash": "7256eae87d9a606b1fd9f6bc4f6d5c4bb22629906b0ae684f81f19a10dc4238a", "blockhash": "00000000000000000004ffacab907a6b429b9a5745fa0b75af4234bf69dd7176", "vout": [{"scriptPubKey": {"reqSigs": 1, "hex": "a91468834ecd2cd59f8989295f91be8da15abb13002687", "addresses": ["3BDdVvPQtwxgCceBNEosqPDaQ5GWr51xcX"], "asm": "OP_HASH160 68834ecd2cd59f8989295f91be8da15abb130026 OP_EQUAL", "type": "scripthash"}, "value": 0.00285, "n": 0}, {"scriptPubKey": {"reqSigs": 1, "hex": "76a9145bf63d85af7e29a01aa17d55c40dff1ccbfcf45688ac", "addresses": ["19PFUXyTCf1awpPtWjcWsLo4fYqr22QkwM"], "asm": "OP_DUP OP_HASH160 5bf63d85af7e29a01aa17d55c40dff1ccbfcf456 OP_EQUALVERIFY OP_CHECKSIG", "type": "pubkeyhash"}, "value": 0.07254938, "n": 1}], "hex": "0100000001114664539b426e6f80f2253c90095bb356e589493b4bd882fd360252d42f38a2010000006a473044022027754d5ebae088946c2a612edaf640c400ca76b822993a21ea57640b54e63c13022023aff44f47c5fd57f4a40e70e321c6263aed35470dca8fffe70b5468d4a986440121031d575183bd790ecd7d9c3ad4a8ef52355d45c46c577ca956ed54d92c94f55d09ffffffff02485904000000000017a91468834ecd2cd59f8989295f91be8da15abb130026879ab36e00000000001976a9145bf63d85af7e29a01aa17d55c40dff1ccbfcf45688ac00000000", "vin": [{"sequence": 4294967295, "scriptSig": {"hex": "473044022027754d5ebae088946c2a612edaf640c400ca76b822993a21ea57640b54e63c13022023aff44f47c5fd57f4a40e70e321c6263aed35470dca8fffe70b5468d4a986440121031d575183bd790ecd7d9c3ad4a8ef52355d45c46c577ca956ed54d92c94f55d09", "asm": "3044022027754d5ebae088946c2a612edaf640c400ca76b822993a21ea57640b54e63c13022023aff44f47c5fd57f4a40e70e321c6263aed35470dca8fffe70b5468d4a98644[ALL] 031d575183bd790ecd7d9c3ad4a8ef52355d45c46c577ca956ed54d92c94f55d09"}, "vout": 1, "txid": "a2382fd4520236fd82d84b3b4989e556b35b09903c25f2806f6e429b53644611"}], "txid": "7256eae87d9a606b1fd9f6bc4f6d5c4bb22629906b0ae684f81f19a10dc4238a", "blocktime": 1537875543, "version": 1, "confirmations": 11464, "time": 1537875543, "locktime": 0, "vsize": 223, "size": 223}