{"hash": "21bc0861e2edfde7cddc9478f1723c7fef59fb20df0e1e0bc4555ce1bef87ead", "blockhash": "0000000000000000000e13cef7c366c0283d82e591d1acd082e914b08063cdf1", "vout": [{"scriptPubKey": {"reqSigs": 1, "hex": "a914e123f481a60b0b46f65a92ac4c813fe703ff85a787", "addresses": ["3NDT2ujPrArcwJydoKZ5Zi4h1yHmiPQxjJ"], "asm": "OP_HASH160 e123f481a60b0b46f65a92ac4c813fe703ff85a7 OP_EQUAL", "type": "scripthash"}, "value": 0.13370565, "n": 0}, {"scriptPubKey": {"reqSigs": 1, "hex": "0014d2426dd14c66d648745085bae7fda8a67c17dfc0", "addresses": ["bc1q6fpxm52vvmtysazsskaw0ldg5e7p0h7q2h5hhf"], "asm": "0 d2426dd14c66d648745085bae7fda8a67c17dfc0", "type": "witness_v0_keyhash"}, "value": 0.86628854, "n": 1}], "hex": "01000000000101cd599a1010edb52e2bb600c40d9d033ddfacb795b4f2c1dbeeac0a5b2106510f0000000017160014930480c953c29fc435617e376ab943ff8cfc45bbffffffff02c504cc000000000017a914e123f481a60b0b46f65a92ac4c813fe703ff85a787f6d9290500000000160014d2426dd14c66d648745085bae7fda8a67c17dfc002483045022100bd695852924589896d43af2bbdf2c91654c00f5e0cc91764bc396a46244fcacc02206e3b7032ddba6b46bb37e253dcea74460e4e2d115dc84e51642d74bed78822540121020795513d8abfa5edd2490d95206153148ac55a11b25da74985da67765dd666e900000000", "vin": [{"txinwitness": ["3045022100bd695852924589896d43af2bbdf2c91654c00f5e0cc91764bc396a46244fcacc02206e3b7032ddba6b46bb37e253dcea74460e4e2d115dc84e51642d74bed788225401", "020795513d8abfa5edd2490d95206153148ac55a11b25da74985da67765dd666e9"], "sequence": 4294967295, "scriptSig": {"hex": "160014930480c953c29fc435617e376ab943ff8cfc45bb", "asm": "0014930480c953c29fc435617e376ab943ff8cfc45bb"}, "vout": 0, "txid": "0f5106215b0aaceedbc1f2b495b7acdf3d039d0dc400b62b2eb5ed10109a59cd"}], "txid": "72568b356f1162d0f6ea875d3efd2c66c1fbcd8e9a457bb2e2ce24ef656976b6", "blocktime": 1537871767, "version": 1, "confirmations": 11495, "time": 1537871767, "locktime": 0, "vsize": 165, "size": 247}