{"hash": "72586c81435f1db87b0a8514ef02267f3f5e446ab012b669d971ffceccc2ad2b", "blockhash": "000000000000000000022b45ed06c6f4ccd3cf7fb5ba4856ebd2e58215665228", "vout": [{"scriptPubKey": {"reqSigs": 1, "hex": "76a91406ed38112c8ad66aa0e612fddd2d59868fbe62eb88ac", "addresses": ["1ddERBRwbAqUdG2uFtguZx7CP5BrvK8iz"], "asm": "OP_DUP OP_HASH160 06ed38112c8ad66aa0e612fddd2d59868fbe62eb OP_EQUALVERIFY OP_CHECKSIG", "type": "pubkeyhash"}, "value": 5.614e-05, "n": 0}, {"scriptPubKey": {"reqSigs": 1, "hex": "76a914cbbdbbdeebc5cd93d72ad0467150250f24cec93988ac", "addresses": ["1KaHTtA2QRWQ4JH1WRKEiAx5ccmD5RwNdj"], "asm": "OP_DUP OP_HASH160 cbbdbbdeebc5cd93d72ad0467150250f24cec939 OP_EQUALVERIFY OP_CHECKSIG", "type": "pubkeyhash"}, "value": 0.03363381, "n": 1}], "hex": "01000000010067ed138c6f6a3f49d6e09e1658f1d429a3ea53de1ca309bfe3474e10c2c94f010000006a473044022004b2043a6e626bd0f149299d24b80b88ac1a9e8ff13b6461260dd2505db22660022023542f1e0367ebde82abf6baa52c627e95a4920c3c3a134c05b20b2c2274390b012103c972d884efdc773f3292487ff43781e02021809c102e03d039d1207e8d452a8bffffffff02ee150000000000001976a91406ed38112c8ad66aa0e612fddd2d59868fbe62eb88ac35523300000000001976a914cbbdbbdeebc5cd93d72ad0467150250f24cec93988ac00000000", "vin": [{"sequence": 4294967295, "scriptSig": {"hex": "473044022004b2043a6e626bd0f149299d24b80b88ac1a9e8ff13b6461260dd2505db22660022023542f1e0367ebde82abf6baa52c627e95a4920c3c3a134c05b20b2c2274390b012103c972d884efdc773f3292487ff43781e02021809c102e03d039d1207e8d452a8b", "asm": "3044022004b2043a6e626bd0f149299d24b80b88ac1a9e8ff13b6461260dd2505db22660022023542f1e0367ebde82abf6baa52c627e95a4920c3c3a134c05b20b2c2274390b[ALL] 03c972d884efdc773f3292487ff43781e02021809c102e03d039d1207e8d452a8b"}, "vout": 1, "txid": "4fc9c2104e47e3bf09a31cde53eaa329d4f158169ee0d6493f6a6f8c13ed6700"}], "txid": "72586c81435f1db87b0a8514ef02267f3f5e446ab012b669d971ffceccc2ad2b", "blocktime": 1537869901, "version": 1, "confirmations": 11524, "time": 1537869901, "locktime": 0, "vsize": 225, "size": 225}