{"hash": "725b2050b18bdd87fc7a86f16f2d63280904b02387d4195856b42d6610a29be2", "blockhash": "00000000000000000018f53835495a110e01622372bf6ae95dc86f2b0ab887b0", "vout": [{"scriptPubKey": {"reqSigs": 1, "hex": "76a9148c62720b9091c602f3959113c0adad64585537aa88ac", "addresses": ["1DoHXyBsCWcfRb2SF7JwnE2MeJfB9iGHxa"], "asm": "OP_DUP OP_HASH160 8c62720b9091c602f3959113c0adad64585537aa OP_EQUALVERIFY OP_CHECKSIG", "type": "pubkeyhash"}, "value": 0.02388468, "n": 0}, {"scriptPubKey": {"reqSigs": 1, "hex": "76a91438b79dfd6a773bac14336c4fe14209319b5d358988ac", "addresses": ["16AtogmQMJ27fPPM1pKdH4UGomqq32Sh5J"], "asm": "OP_DUP OP_HASH160 38b79dfd6a773bac14336c4fe14209319b5d3589 OP_EQUALVERIFY OP_CHECKSIG", "type": "pubkeyhash"}, "value": 0.03284158, "n": 1}, {"scriptPubKey": {"reqSigs": 1, "hex": "76a91406e32a80b4f0f324a0ec529fd2986e5102b7b3d388ac", "addresses": ["1dRBvYfVRRHC6P8sBfy54ednTqxoX9RRt"], "asm": "OP_DUP OP_HASH160 06e32a80b4f0f324a0ec529fd2986e5102b7b3d3 OP_EQUALVERIFY OP_CHECKSIG", "type": "pubkeyhash"}, "value": 0.0375812, "n": 2}, {"scriptPubKey": {"reqSigs": 1, "hex": "76a914d617ae62feee5c555064df91dae414aa43f8e8e288ac", "addresses": ["1LX1yT7TkHC13KzUHG6hfYRTcZf6fF2X5c"], "asm": "OP_DUP OP_HASH160 d617ae62feee5c555064df91dae414aa43f8e8e2 OP_EQUALVERIFY OP_CHECKSIG", "type": "pubkeyhash"}, "value": 0.0470727, "n": 3}], "hex": "0100000001863a8aab90a9181feae3b581c9ccdac6ea81e837ac5e2fe0de5f90277631f8a0010000006a4730440220618bdb2ddb3ba5534a432cdda0cb67dc75648d8d216243bce9d0c30cdd42e451022042a0314b5cf0da2e6e0a759ae1b348f467e98760ccf51e18343be5bff7e92b3e0121028da81091ca4557392119c52cfc060ff240b9f70a5be65af052e3947d9293924ffeffffff04f4712400000000001976a9148c62720b9091c602f3959113c0adad64585537aa88acbe1c3200000000001976a91438b79dfd6a773bac14336c4fe14209319b5d358988ac28583900000000001976a91406e32a80b4f0f324a0ec529fd2986e5102b7b3d388acc6d34700000000001976a914d617ae62feee5c555064df91dae414aa43f8e8e288ac0e490800", "vin": [{"sequence": 4294967294, "scriptSig": {"hex": "4730440220618bdb2ddb3ba5534a432cdda0cb67dc75648d8d216243bce9d0c30cdd42e451022042a0314b5cf0da2e6e0a759ae1b348f467e98760ccf51e18343be5bff7e92b3e0121028da81091ca4557392119c52cfc060ff240b9f70a5be65af052e3947d9293924f", "asm": "30440220618bdb2ddb3ba5534a432cdda0cb67dc75648d8d216243bce9d0c30cdd42e451022042a0314b5cf0da2e6e0a759ae1b348f467e98760ccf51e18343be5bff7e92b3e[ALL] 028da81091ca4557392119c52cfc060ff240b9f70a5be65af052e3947d9293924f"}, "vout": 1, "txid": "a0f8317627905fdee02f5eac37e881eac6daccc981b5e3ea1f18a990ab8a3a86"}], "txid": "725b2050b18bdd87fc7a86f16f2d63280904b02387d4195856b42d6610a29be2", "blocktime": 1537870928, "version": 1, "confirmations": 11512, "time": 1537870928, "locktime": 542990, "vsize": 293, "size": 293}