{"hash": "725cad84b7620b6e8f00709e3ff2abd335eac699404af6448ed50631229863e7", "blockhash": "00000000000000000017f5eb5941039fbcee6240d03bc1f2f8e35350df66a1d8", "vout": [{"scriptPubKey": {"type": "nulldata", "hex": "6a3386367abb1715054f2387be3ccc6869267f90b9e3cbcd32c9f86d9742ae6c222f7810b8563a5a92f5c7cbedb6a70321c19f3569", "asm": "OP_RETURN 86367abb1715054f2387be3ccc6869267f90b9e3cbcd32c9f86d9742ae6c222f7810b8563a5a92f5c7cbedb6a70321c19f3569"}, "value": 0.0, "n": 0}, {"scriptPubKey": {"reqSigs": 1, "hex": "76a914f728a8fc8c6fee117748328d7461a65566984e2a88ac", "addresses": ["1PXrcVkKzJsCz5U6inbbaagwVZXVecivBa"], "asm": "OP_DUP OP_HASH160 f728a8fc8c6fee117748328d7461a65566984e2a OP_EQUALVERIFY OP_CHECKSIG", "type": "pubkeyhash"}, "value": 0.00460608, "n": 1}], "hex": "0100000001f01563a34e560a6a4f7ab42d3626c60cfe4887b2ea886a5931cf87dc23525922010000006a4730440220146bedbbb1b5cdf882b6f5af769bd50d5dda2aeeecfd90c0eb8f58bb31b083090220618811c60f60dc9708fd32bb8c0bb99cc98564f346c2a1739c8648fd36c47c73012103bbf98112891a782ae686a4acdbb61342a6e999c063aa564e327fc6d195e355edffffffff020000000000000000356a3386367abb1715054f2387be3ccc6869267f90b9e3cbcd32c9f86d9742ae6c222f7810b8563a5a92f5c7cbedb6a70321c19f356940070700000000001976a914f728a8fc8c6fee117748328d7461a65566984e2a88ac00000000", "vin": [{"sequence": 4294967295, "scriptSig": {"hex": "4730440220146bedbbb1b5cdf882b6f5af769bd50d5dda2aeeecfd90c0eb8f58bb31b083090220618811c60f60dc9708fd32bb8c0bb99cc98564f346c2a1739c8648fd36c47c73012103bbf98112891a782ae686a4acdbb61342a6e999c063aa564e327fc6d195e355ed", "asm": "30440220146bedbbb1b5cdf882b6f5af769bd50d5dda2aeeecfd90c0eb8f58bb31b083090220618811c60f60dc9708fd32bb8c0bb99cc98564f346c2a1739c8648fd36c47c73[ALL] 03bbf98112891a782ae686a4acdbb61342a6e999c063aa564e327fc6d195e355ed"}, "vout": 1, "txid": "22595223dc87cf31596a88eab28748fe0cc626362db47a4f6a0a564ea36315f0"}], "txid": "725cad84b7620b6e8f00709e3ff2abd335eac699404af6448ed50631229863e7", "blocktime": 1537874412, "version": 1, "confirmations": 11467, "time": 1537874412, "locktime": 0, "vsize": 253, "size": 253}