{"hash": "725f8ce269212c62ff60af9ca30c81ac33003ffc66b2a8715d0244f4cd87c719", "blockhash": "0000000000000000000e13cef7c366c0283d82e591d1acd082e914b08063cdf1", "vout": [{"scriptPubKey": {"reqSigs": 1, "hex": "76a914b95e2f75bf5cbb17aa106eb6f2cb5baa6a399b1288ac", "addresses": ["1Hu8qc3oVJ8uSb9yY36mzoemGGYzZAaxSE"], "asm": "OP_DUP OP_HASH160 b95e2f75bf5cbb17aa106eb6f2cb5baa6a399b12 OP_EQUALVERIFY OP_CHECKSIG", "type": "pubkeyhash"}, "value": 0.00148014, "n": 0}, {"scriptPubKey": {"reqSigs": 1, "hex": "76a914803923c8174a6edd82d3febf0e9010696e8f283388ac", "addresses": ["1CgywhKotwaoGgrXBaqmedZorwi4WWwX9u"], "asm": "OP_DUP OP_HASH160 803923c8174a6edd82d3febf0e9010696e8f2833 OP_EQUALVERIFY OP_CHECKSIG", "type": "pubkeyhash"}, "value": 0.025296, "n": 1}], "hex": "010000000288d056e9cab749aeb710661b0f4bd66cbccc604e2b365da01446d3d144ec4ee5000000006b483045022100e03de7378bc93fb6ba3a984c2a6963bfd08cdac19a280e3977a5212399b01c47022024111ec57de8813c34d9e1412341b024200c8ed35a98d71002c1bc30aeebb6db012103d173e71f984ea3a4bcda07408dd5262c5839dbd8e4a18339b96cf4ea0a6d12d0ffffffff26a10b0fa70888131107f822c41b7872d8cb24ddceb6ea0e208b228de5d9d51a000000006b483045022100ad16ebdd672c3ab3f847fcb83da43ac6b1296127064439ff255a28e594602fa6022035afbc8fb0c189053eb74e037b1a5c8eea52a168281216a6052f4e1e5b4731270121030da91dad11a282bcbc7acbaf0473afe7cf7f6ba8f844621e46a391b585d7b03affffffff022e420200000000001976a914b95e2f75bf5cbb17aa106eb6f2cb5baa6a399b1288ac40992600000000001976a914803923c8174a6edd82d3febf0e9010696e8f283388ac00000000", "vin": [{"sequence": 4294967295, "scriptSig": {"hex": "483045022100e03de7378bc93fb6ba3a984c2a6963bfd08cdac19a280e3977a5212399b01c47022024111ec57de8813c34d9e1412341b024200c8ed35a98d71002c1bc30aeebb6db012103d173e71f984ea3a4bcda07408dd5262c5839dbd8e4a18339b96cf4ea0a6d12d0", "asm": "3045022100e03de7378bc93fb6ba3a984c2a6963bfd08cdac19a280e3977a5212399b01c47022024111ec57de8813c34d9e1412341b024200c8ed35a98d71002c1bc30aeebb6db[ALL] 03d173e71f984ea3a4bcda07408dd5262c5839dbd8e4a18339b96cf4ea0a6d12d0"}, "vout": 0, "txid": "e54eec44d1d34614a05d362b4e60ccbc6cd64b0f1b6610b7ae49b7cae956d088"}, {"sequence": 4294967295, "scriptSig": {"hex": "483045022100ad16ebdd672c3ab3f847fcb83da43ac6b1296127064439ff255a28e594602fa6022035afbc8fb0c189053eb74e037b1a5c8eea52a168281216a6052f4e1e5b4731270121030da91dad11a282bcbc7acbaf0473afe7cf7f6ba8f844621e46a391b585d7b03a", "asm": "3045022100ad16ebdd672c3ab3f847fcb83da43ac6b1296127064439ff255a28e594602fa6022035afbc8fb0c189053eb74e037b1a5c8eea52a168281216a6052f4e1e5b473127[ALL] 030da91dad11a282bcbc7acbaf0473afe7cf7f6ba8f844621e46a391b585d7b03a"}, "vout": 0, "txid": "1ad5d9e58d228b200eeab6cedd24cbd872781bc422f80711138808a70f0ba126"}], "txid": "725f8ce269212c62ff60af9ca30c81ac33003ffc66b2a8715d0244f4cd87c719", "blocktime": 1537871767, "version": 1, "confirmations": 11495, "time": 1537871767, "locktime": 0, "vsize": 374, "size": 374}