{"hash": "4798307a1a61617b84236bb41a92dd8b3f1d25f213e840033a7462935c31676c", "blockhash": "0000000000000000000dcc0f55137456b1a82d3642486a52398922ac4d620174", "vout": [{"scriptPubKey": {"reqSigs": 1, "hex": "76a914e1e26978aaadc4de261022c1e942f4a5b66e348388ac", "addresses": ["1MbNGYWPWgC183jqLqwohfHSxaE3G3qeBQ"], "asm": "OP_DUP OP_HASH160 e1e26978aaadc4de261022c1e942f4a5b66e3483 OP_EQUALVERIFY OP_CHECKSIG", "type": "pubkeyhash"}, "value": 0.60060781, "n": 0}, {"scriptPubKey": {"reqSigs": 1, "hex": "a914a6b9d51ae27500a6729bec507e6a48a82ee9961887", "addresses": ["3GtaiFZyP6M4o4V1iphZ9sR9PMAGojYoMB"], "asm": "OP_HASH160 a6b9d51ae27500a6729bec507e6a48a82ee99618 OP_EQUAL", "type": "scripthash"}, "value": 0.19788162, "n": 1}, {"scriptPubKey": {"reqSigs": 1, "hex": "a914490dde78f1aa80c216c61f07bee3b90a1fb6d2f987", "addresses": ["38MHsBfWaWHtZkjPvBEghccbUm1pHX4zA9"], "asm": "OP_HASH160 490dde78f1aa80c216c61f07bee3b90a1fb6d2f9 OP_EQUAL", "type": "scripthash"}, "value": 0.13911699, "n": 2}, {"scriptPubKey": {"reqSigs": 1, "hex": "76a91423e5f103739362c4ac1b336634dff1bb7b29e01d88ac", "addresses": ["14Gp7Kx5nhjfKUZ9phZMeTTwX42CUs9keG"], "asm": "OP_DUP OP_HASH160 23e5f103739362c4ac1b336634dff1bb7b29e01d OP_EQUALVERIFY OP_CHECKSIG", "type": "pubkeyhash"}, "value": 0.21954998, "n": 3}, {"scriptPubKey": {"reqSigs": 1, "hex": "76a914bc650e036566d807705e9cde518c4578100157fb88ac", "addresses": ["1JB96UHmGq3xH6DJuQ5yTTq6LapVfwAbuq"], "asm": "OP_DUP OP_HASH160 bc650e036566d807705e9cde518c4578100157fb OP_EQUALVERIFY OP_CHECKSIG", "type": "pubkeyhash"}, "value": 0.00828121, "n": 4}, {"scriptPubKey": {"reqSigs": 1, "hex": "76a91497460eab98de2563310f9c70095809ca533d007288ac", "addresses": ["1EnrxdjZPGoccoYKTLHXr8qVh2eBJceNYV"], "asm": "OP_DUP OP_HASH160 97460eab98de2563310f9c70095809ca533d0072 OP_EQUALVERIFY OP_CHECKSIG", "type": "pubkeyhash"}, "value": 0.07380941, "n": 5}], "hex": "01000000000107c5c599178ea1ebd52c93a821791e3e0e354946cfd911a8b2d114dcfb58a0e71c000000002322002097b22621c3137c502ae7583ca14d17d6249cf667ca48dbbe573c049e032f9144ffffffff14ad23a62e7f0aa9b2301d3ef5078e9b816aa397848c46b5f64fd8fc438459d300000000232200207f7302891b0b06b8626d5f4165de377c0b3737af2d7f28d8689b125393fa4c29ffffffff2663288d363e9b448d123acd0f539dcff69ad174acacd6d4e5473476d6fe34ad0000000023220020deb5811e5a5485b27e921e8b9227772c1e07c5f3ed6b59bbde046725928f8961ffffffffc017467c4ac7462b8415acf1fb7819c1f6d2b1f7611f41e6c600b78e41d5dd480300000023220020a8e25b8b2453da4e2e70df1ae7f789dd49276a5dd3fe085769c0891b6da49be2ffffffffc017467c4ac7462b8415acf1fb7819c1f6d2b1f7611f41e6c600b78e41d5dd48050000002322002093d861b4c18b05900c2e9400e4eba356c45c2727dae23320ad64c6b7be40e638ffffffff15669653df932432af6de911e4ee06b041825795a9454334097a5aa36657af82000000002322002072461ddb4663472c0e2194e4a82a6e93a24a314bf3be6062fe1949bec27d4af7ffffffff15669653df932432af6de911e4ee06b041825795a9454334097a5aa36657af82010000002322002083e14ae13162aff9696e3d19b555f4709de04045b488f57061f096899085ec02ffffffff066d749403000000001976a914e1e26978aaadc4de261022c1e942f4a5b66e348388ac82f12d010000000017a914a6b9d51ae27500a6729bec507e6a48a82ee99618879346d4000000000017a914490dde78f1aa80c216c61f07bee3b90a1fb6d2f987b6014f01000000001976a91423e5f103739362c4ac1b336634dff1bb7b29e01d88acd9a20c00000000001976a914bc650e036566d807705e9cde518c4578100157fb88accd9f7000000000001976a91497460eab98de2563310f9c70095809ca533d007288ac0400483045022100d675cd4c15b9cc09155cd2a3bfcfb427d77b9ff228164a2d8daed7ba616a564a02205c7d7c1d575eef523f69dcfe59f6e4cbe4cf4854a5971c8ca7cd7f9da35b90b901473044022061d121785486c8f37a799e21a106821b53b6f77d0757d027863524cd2341d6ce02206881dd63af005c791df85d7a0e3dfe48015e4b5cd0bcbd67219066386b16f9a501695221022902b7a77eaa437a2f4cf9b213def482c77e13ead9693f0b8168aad94284fc872103058cdd147bc331d1cc8c547a08ce1f16e6e3603ea64fa9b5c1c763e0230c09a22102d47e69b24d8015e3f8a2be40f60a28419da22e4cc33b896832048902c705fe6053ae0400483045022100a619c8724fa974f3d8ebe750524f916f467989bc0808261d2e86b0fe63d36c1e0220632f970041ca791bdde588ed8a3e92c2f53caed4203282c49019eea0d58bb40d0147304402204dbc5d7d98d60c4f3efffa277826cecba3350d07717b52adc76d8bcafb49a51d02204b4e14070c811fc0278e192eec2f6b5f899351840944ce007cab0fa2c3486bbd01695221033132302f21bdcf89c4dfad5e76a84373dd6737a1dd184cac7b8cccb244b07f4c210299ba91751db96443708ac0ed72abdfb70834f5675fab79afe994576c7df760802102298b1f6b780807b9a9471eb0edd4376b6801286873782c1877e803e9180148a953ae0400473044022074c4c0a05a9649821b327d7d179fe6b36d04f143d58514bb5a62db57e93b9e5802206d3e76b121bcc7c3bb6d7cf7d5571ae86c44f19d66985e54605e40ddafe5678b01473044022038051e5ddddea59bc9abe1fe37281c3a55e923432e942c955be989cf2ba79c9402206cea703edca991f9d3a97cdec0d6e88aa90a8530909c5d65a2b26ad5f167381701695221035ac1c0159d758ab00335bb1bec67ea51e999433ad7307c5ff1e2b051e0b1f84f210308f587399da41af50a22a2d2d633463344edd4d8237e23785e24e333b770d6622103d14699752f62aa4be1a723c1169bd769620ecec3dd0f6d34d440f74a1a69820953ae040048304502210080a53dfdc344fcd081200a33091a1a2c5d80d4d1c7dc0e04a87d72e75bd0b40a02203af055c39350a783aaa3dfe68cbfd1423c36827b2b5d15e8a0816e64e57b286601483045022100bf7f9b287734a44f287bb8bba4889d3348948aebb6cdbae64b6edb5567f946f202204bd30cb5fd5858216d38d9b8ff79477d2faf73ab1cd6b9ea97f28ffa01908183016952210258000da33191dedcf7cf8fb62611c93b3d6c5fb7ce21ae9655910e34bcb9b5b021023747158c36bf4556d0a89817a2094133fba19a2e3905ea886e6befbf02119ada2103ca32259fa6b6ca079749793d79de830984d1fa6ca88bee319f632c70aba00e4553ae040047304402202e16c533dd8a155574f876d49a956120531a99822a7962cf8e775eb89af364540220053277fa80ad6b89ed5570b5f7f6462107772e25d2c2fa87c022a5b68a1473fb01473044022006c2e3496e1c1ae969fc66f71ab527164e5f3bcf2ca59c59f44842b825bafe18022071d6a251e80bb24f3291cc35065bb69efa39a4b82a23da78f3903c6885f202db01695221027e2998a57e27d6d70a3fc37adeb403212e94cea5404390e36da0dfeaea7e92e02103fa4b036dc51efc27a074708050e0a444dc022da9507d8451faad44d5f9653b542102145fc272c3d028985dd42d3cf506f12bee55669550d036967eb237d53d42a70053ae040047304402201cd1fd5b604d75a718b16bd97977df85093ce1933b387dfb750066b16dadd5fa02201742effba6571ebad534dbb11cb0f70c8112779887c0e27117a56e03eb102bf401473044022034ec893f08a31cd16cad1626a5670382d8b47d330f1ac4edb39815c9891ab1e702200bb0dd07194c57e1da128742374e695137f3b5fcd917dc96d24f9b3aa8ddb6cc0169522102b0b97f05a1143d5d1cb75c6b49df8439477275dccd00d8938afcb257b1fe1303210351caa75fddd8ffc32e673d608f0ccb7609c407e52a5647e41c2c6a2c384df5c82103f562e802266250acc7ef1df9ac2405fdb5705ce4b3c463b6f4dd15d7fc20b4ee53ae0400473044022062326f059ee1da18e099e67671bef25cdc4d257a6cecbab65bfa1e55510218980220123d0084a6d4c2c9698eeec4aeff5c2ba84afe397eea14615c904fcbe647b6af0147304402204dede4698d04876ce9cb8f4fdf1755236cc2b9dc5e9fb7d9f6e59c140293e20902200f867cf71224bd88d2f4539f64401cfe50295a3016d250d30d3aad974faf5dda016952210283cb454a1273572f0506bdaeeb95243b23eda84b0470b6db6566a2eb68e652642103689d2c7fc9d968764126a6444718cb59d904058da1f5487aff59cf82484dd04d21036496d919b7259e8c78be1f9b34d695804f971d2f9cd8892892ce274f3be7a67e53ae00000000", "vin": [{"txinwitness": ["", "3045022100d675cd4c15b9cc09155cd2a3bfcfb427d77b9ff228164a2d8daed7ba616a564a02205c7d7c1d575eef523f69dcfe59f6e4cbe4cf4854a5971c8ca7cd7f9da35b90b901", "3044022061d121785486c8f37a799e21a106821b53b6f77d0757d027863524cd2341d6ce02206881dd63af005c791df85d7a0e3dfe48015e4b5cd0bcbd67219066386b16f9a501", "5221022902b7a77eaa437a2f4cf9b213def482c77e13ead9693f0b8168aad94284fc872103058cdd147bc331d1cc8c547a08ce1f16e6e3603ea64fa9b5c1c763e0230c09a22102d47e69b24d8015e3f8a2be40f60a28419da22e4cc33b896832048902c705fe6053ae"], "sequence": 4294967295, "scriptSig": {"hex": "22002097b22621c3137c502ae7583ca14d17d6249cf667ca48dbbe573c049e032f9144", "asm": "002097b22621c3137c502ae7583ca14d17d6249cf667ca48dbbe573c049e032f9144"}, "vout": 0, "txid": "1ce7a058fbdc14d1b2a811d9cf4649350e3e1e7921a8932cd5eba18e1799c5c5"}, {"txinwitness": ["", "3045022100a619c8724fa974f3d8ebe750524f916f467989bc0808261d2e86b0fe63d36c1e0220632f970041ca791bdde588ed8a3e92c2f53caed4203282c49019eea0d58bb40d01", "304402204dbc5d7d98d60c4f3efffa277826cecba3350d07717b52adc76d8bcafb49a51d02204b4e14070c811fc0278e192eec2f6b5f899351840944ce007cab0fa2c3486bbd01", "5221033132302f21bdcf89c4dfad5e76a84373dd6737a1dd184cac7b8cccb244b07f4c210299ba91751db96443708ac0ed72abdfb70834f5675fab79afe994576c7df760802102298b1f6b780807b9a9471eb0edd4376b6801286873782c1877e803e9180148a953ae"], "sequence": 4294967295, "scriptSig": {"hex": "2200207f7302891b0b06b8626d5f4165de377c0b3737af2d7f28d8689b125393fa4c29", "asm": "00207f7302891b0b06b8626d5f4165de377c0b3737af2d7f28d8689b125393fa4c29"}, "vout": 0, "txid": "d3598443fcd84ff6b5468c8497a36a819b8e07f53e1d30b2a90a7f2ea623ad14"}, {"txinwitness": ["", "3044022074c4c0a05a9649821b327d7d179fe6b36d04f143d58514bb5a62db57e93b9e5802206d3e76b121bcc7c3bb6d7cf7d5571ae86c44f19d66985e54605e40ddafe5678b01", "3044022038051e5ddddea59bc9abe1fe37281c3a55e923432e942c955be989cf2ba79c9402206cea703edca991f9d3a97cdec0d6e88aa90a8530909c5d65a2b26ad5f167381701", "5221035ac1c0159d758ab00335bb1bec67ea51e999433ad7307c5ff1e2b051e0b1f84f210308f587399da41af50a22a2d2d633463344edd4d8237e23785e24e333b770d6622103d14699752f62aa4be1a723c1169bd769620ecec3dd0f6d34d440f74a1a69820953ae"], "sequence": 4294967295, "scriptSig": {"hex": "220020deb5811e5a5485b27e921e8b9227772c1e07c5f3ed6b59bbde046725928f8961", "asm": "0020deb5811e5a5485b27e921e8b9227772c1e07c5f3ed6b59bbde046725928f8961"}, "vout": 0, "txid": "ad34fed6763447e5d4d6acac74d19af6cf9d530fcd3a128d449b3e368d286326"}, {"txinwitness": ["", "304502210080a53dfdc344fcd081200a33091a1a2c5d80d4d1c7dc0e04a87d72e75bd0b40a02203af055c39350a783aaa3dfe68cbfd1423c36827b2b5d15e8a0816e64e57b286601", "3045022100bf7f9b287734a44f287bb8bba4889d3348948aebb6cdbae64b6edb5567f946f202204bd30cb5fd5858216d38d9b8ff79477d2faf73ab1cd6b9ea97f28ffa0190818301", "52210258000da33191dedcf7cf8fb62611c93b3d6c5fb7ce21ae9655910e34bcb9b5b021023747158c36bf4556d0a89817a2094133fba19a2e3905ea886e6befbf02119ada2103ca32259fa6b6ca079749793d79de830984d1fa6ca88bee319f632c70aba00e4553ae"], "sequence": 4294967295, "scriptSig": {"hex": "220020a8e25b8b2453da4e2e70df1ae7f789dd49276a5dd3fe085769c0891b6da49be2", "asm": "0020a8e25b8b2453da4e2e70df1ae7f789dd49276a5dd3fe085769c0891b6da49be2"}, "vout": 3, "txid": "48ddd5418eb700c6e6411f61f7b1d2f6c11978fbf1ac15842b46c74a7c4617c0"}, {"txinwitness": ["", "304402202e16c533dd8a155574f876d49a956120531a99822a7962cf8e775eb89af364540220053277fa80ad6b89ed5570b5f7f6462107772e25d2c2fa87c022a5b68a1473fb01", "3044022006c2e3496e1c1ae969fc66f71ab527164e5f3bcf2ca59c59f44842b825bafe18022071d6a251e80bb24f3291cc35065bb69efa39a4b82a23da78f3903c6885f202db01", "5221027e2998a57e27d6d70a3fc37adeb403212e94cea5404390e36da0dfeaea7e92e02103fa4b036dc51efc27a074708050e0a444dc022da9507d8451faad44d5f9653b542102145fc272c3d028985dd42d3cf506f12bee55669550d036967eb237d53d42a70053ae"], "sequence": 4294967295, "scriptSig": {"hex": "22002093d861b4c18b05900c2e9400e4eba356c45c2727dae23320ad64c6b7be40e638", "asm": "002093d861b4c18b05900c2e9400e4eba356c45c2727dae23320ad64c6b7be40e638"}, "vout": 5, "txid": "48ddd5418eb700c6e6411f61f7b1d2f6c11978fbf1ac15842b46c74a7c4617c0"}, {"txinwitness": ["", "304402201cd1fd5b604d75a718b16bd97977df85093ce1933b387dfb750066b16dadd5fa02201742effba6571ebad534dbb11cb0f70c8112779887c0e27117a56e03eb102bf401", "3044022034ec893f08a31cd16cad1626a5670382d8b47d330f1ac4edb39815c9891ab1e702200bb0dd07194c57e1da128742374e695137f3b5fcd917dc96d24f9b3aa8ddb6cc01", "522102b0b97f05a1143d5d1cb75c6b49df8439477275dccd00d8938afcb257b1fe1303210351caa75fddd8ffc32e673d608f0ccb7609c407e52a5647e41c2c6a2c384df5c82103f562e802266250acc7ef1df9ac2405fdb5705ce4b3c463b6f4dd15d7fc20b4ee53ae"], "sequence": 4294967295, "scriptSig": {"hex": "22002072461ddb4663472c0e2194e4a82a6e93a24a314bf3be6062fe1949bec27d4af7", "asm": "002072461ddb4663472c0e2194e4a82a6e93a24a314bf3be6062fe1949bec27d4af7"}, "vout": 0, "txid": "82af5766a35a7a09344345a995578241b006eee411e96daf322493df53966615"}, {"txinwitness": ["", "3044022062326f059ee1da18e099e67671bef25cdc4d257a6cecbab65bfa1e55510218980220123d0084a6d4c2c9698eeec4aeff5c2ba84afe397eea14615c904fcbe647b6af01", "304402204dede4698d04876ce9cb8f4fdf1755236cc2b9dc5e9fb7d9f6e59c140293e20902200f867cf71224bd88d2f4539f64401cfe50295a3016d250d30d3aad974faf5dda01", "52210283cb454a1273572f0506bdaeeb95243b23eda84b0470b6db6566a2eb68e652642103689d2c7fc9d968764126a6444718cb59d904058da1f5487aff59cf82484dd04d21036496d919b7259e8c78be1f9b34d695804f971d2f9cd8892892ce274f3be7a67e53ae"], "sequence": 4294967295, "scriptSig": {"hex": "22002083e14ae13162aff9696e3d19b555f4709de04045b488f57061f096899085ec02", "asm": "002083e14ae13162aff9696e3d19b555f4709de04045b488f57061f096899085ec02"}, "vout": 1, "txid": "82af5766a35a7a09344345a995578241b006eee411e96daf322493df53966615"}], "txid": "7260a9bc88cf18e6a151654d5c73b63ac9666c68f3adc0a428e37a8985404a68", "blocktime": 1537870268, "version": 1, "confirmations": 11516, "time": 1537870268, "locktime": 0, "vsize": 1185, "size": 2512}