{"hash": "726642c3b69c3bce93698ba5c80675a8c20bdde153b14c62a11ad73fdfd2baab", "blockhash": "00000000000000000018f53835495a110e01622372bf6ae95dc86f2b0ab887b0", "vout": [{"scriptPubKey": {"reqSigs": 1, "hex": "76a914fc3dc382803778ec4823b45e5320d307281be52c88ac", "addresses": ["1PzjGm2XApNREgDydkHYhmcBWd6UYKXfub"], "asm": "OP_DUP OP_HASH160 fc3dc382803778ec4823b45e5320d307281be52c OP_EQUALVERIFY OP_CHECKSIG", "type": "pubkeyhash"}, "value": 0.06709997, "n": 0}, {"scriptPubKey": {"reqSigs": 1, "hex": "76a914d64c3792408375f00fce71f4c8780523dbb76fcd88ac", "addresses": ["1LY6ui1AgYZkEuZ9763uypG7c4C2LPEvvL"], "asm": "OP_DUP OP_HASH160 d64c3792408375f00fce71f4c8780523dbb76fcd OP_EQUALVERIFY OP_CHECKSIG", "type": "pubkeyhash"}, "value": 0.0780268, "n": 1}], "hex": "0100000001179ff6a88b6ba429c7d18ec2bb9ccb5d462002fe7b9488c6299af048b155e214010000006a473044022030690abd544cea8c0f4e1fa10e85579f8f204363c0a1581be80702c62a6d8863022031b89bbdf323b47b713a4b462537ff85738b8f6dfff86dd560fd6d864af5997d0121025541c0177ac448d2869462ce6307e855d36100c42b93f9d6512a31880935df05fdffffff02ed626600000000001976a914fc3dc382803778ec4823b45e5320d307281be52c88ac380f7700000000001976a914d64c3792408375f00fce71f4c8780523dbb76fcd88ac0d490800", "vin": [{"sequence": 4294967293, "scriptSig": {"hex": "473044022030690abd544cea8c0f4e1fa10e85579f8f204363c0a1581be80702c62a6d8863022031b89bbdf323b47b713a4b462537ff85738b8f6dfff86dd560fd6d864af5997d0121025541c0177ac448d2869462ce6307e855d36100c42b93f9d6512a31880935df05", "asm": "3044022030690abd544cea8c0f4e1fa10e85579f8f204363c0a1581be80702c62a6d8863022031b89bbdf323b47b713a4b462537ff85738b8f6dfff86dd560fd6d864af5997d[ALL] 025541c0177ac448d2869462ce6307e855d36100c42b93f9d6512a31880935df05"}, "vout": 1, "txid": "14e255b148f09a29c688947bfe0220465dcb9cbbc28ed1c729a46b8ba8f69f17"}], "txid": "726642c3b69c3bce93698ba5c80675a8c20bdde153b14c62a11ad73fdfd2baab", "blocktime": 1537870928, "version": 1, "confirmations": 11512, "time": 1537870928, "locktime": 542989, "vsize": 225, "size": 225}