{"hash": "72680ef2f97c0810fa3270058e952eb13877e64d10fae9cf27daa52f98b9f9c3", "blockhash": "0000000000000000001f0ddff1eddb255c1121bcd4da4f1bc9a0da00cae72433", "vout": [{"scriptPubKey": {"reqSigs": 1, "hex": "76a9140e34b493e6953963ea97ef8e542ec9337cc8c44988ac", "addresses": ["12J7bikFH2TXm4c1pkHBrXuohBAaU1fw3k"], "asm": "OP_DUP OP_HASH160 0e34b493e6953963ea97ef8e542ec9337cc8c449 OP_EQUALVERIFY OP_CHECKSIG", "type": "pubkeyhash"}, "value": 0.01562288, "n": 0}, {"scriptPubKey": {"reqSigs": 1, "hex": "76a91425a3d0401468be6182075c4085a23e2610fb0b4c88ac", "addresses": ["14S2F4M77ZPkw8hUjD6J1SmrwVQXqyxnKz"], "asm": "OP_DUP OP_HASH160 25a3d0401468be6182075c4085a23e2610fb0b4c OP_EQUALVERIFY OP_CHECKSIG", "type": "pubkeyhash"}, "value": 0.15897525, "n": 1}], "hex": "010000000142e46aba1c5ea6f0a7b697353ef38b45995fc67730bed355aa97cf0db6a2b523010000006a47304402200e992867e25e606abf0d4b6ff4e1761c1a1dbacd7377b141ce78f27a390405f7022059003a661dd0fbb8b9f196d8210ce63e11d5b4bcc110095982e15b21fc8fcf110121022379e7cd4d618ef443aefec4850eaba1da557d8410f4d873a39acf1aaf99de55ffffffff02b0d61700000000001976a9140e34b493e6953963ea97ef8e542ec9337cc8c44988acb593f200000000001976a91425a3d0401468be6182075c4085a23e2610fb0b4c88ac00000000", "vin": [{"sequence": 4294967295, "scriptSig": {"hex": "47304402200e992867e25e606abf0d4b6ff4e1761c1a1dbacd7377b141ce78f27a390405f7022059003a661dd0fbb8b9f196d8210ce63e11d5b4bcc110095982e15b21fc8fcf110121022379e7cd4d618ef443aefec4850eaba1da557d8410f4d873a39acf1aaf99de55", "asm": "304402200e992867e25e606abf0d4b6ff4e1761c1a1dbacd7377b141ce78f27a390405f7022059003a661dd0fbb8b9f196d8210ce63e11d5b4bcc110095982e15b21fc8fcf11[ALL] 022379e7cd4d618ef443aefec4850eaba1da557d8410f4d873a39acf1aaf99de55"}, "vout": 1, "txid": "23b5a2b60dcf97aa55d3be3077c65f99458bf33e3597b6a7f0a65e1cba6ae442"}], "txid": "72680ef2f97c0810fa3270058e952eb13877e64d10fae9cf27daa52f98b9f9c3", "blocktime": 1537872018, "version": 1, "confirmations": 11489, "time": 1537872018, "locktime": 0, "vsize": 225, "size": 225}