{"hash": "7275e5a2e53e49292cc72d7891afe4ca5955ae2585ee17267872a9491e5a566e", "blockhash": "0000000000000000001f76057863aec43deb6fa401d9628bb513d65a8098bfab", "vout": [{"scriptPubKey": {"reqSigs": 1, "hex": "76a914432c788165b87f3b1bed5dd18b6d0b1411a65d1e88ac", "addresses": ["178BYjVwjybA1G6zPVe9T61fqUfBdRaGNo"], "asm": "OP_DUP OP_HASH160 432c788165b87f3b1bed5dd18b6d0b1411a65d1e OP_EQUALVERIFY OP_CHECKSIG", "type": "pubkeyhash"}, "value": 0.00239748, "n": 0}, {"scriptPubKey": {"reqSigs": 1, "hex": "76a914e7ecd4ae58272e84d2aff98c7c088db9b573515b88ac", "addresses": ["1N9Joc3m9d9F6VK8ZzCesyUaeS5rB6EMMh"], "asm": "OP_DUP OP_HASH160 e7ecd4ae58272e84d2aff98c7c088db9b573515b OP_EQUALVERIFY OP_CHECKSIG", "type": "pubkeyhash"}, "value": 0.03844861, "n": 1}], "hex": "0100000001d75c869719c7d3c2d2fb39806c20d815c66b32b562f66659eb428cea8ee2df18010000006a473044022005303511b71df7ca65e2d814bc06ea520e604ea5324b203a854f6a9361c66b1c02204957ce358a953ea502f841cb98bda6bb9354f07289c0031015f5dec41d5fef1f012102e26ddb1f64b7071d07035999cdbd9b13195098622a7afbe59432941dd5ba1d2fffffffff0284a80300000000001976a914432c788165b87f3b1bed5dd18b6d0b1411a65d1e88acfdaa3a00000000001976a914e7ecd4ae58272e84d2aff98c7c088db9b573515b88ac00000000", "vin": [{"sequence": 4294967295, "scriptSig": {"hex": "473044022005303511b71df7ca65e2d814bc06ea520e604ea5324b203a854f6a9361c66b1c02204957ce358a953ea502f841cb98bda6bb9354f07289c0031015f5dec41d5fef1f012102e26ddb1f64b7071d07035999cdbd9b13195098622a7afbe59432941dd5ba1d2f", "asm": "3044022005303511b71df7ca65e2d814bc06ea520e604ea5324b203a854f6a9361c66b1c02204957ce358a953ea502f841cb98bda6bb9354f07289c0031015f5dec41d5fef1f[ALL] 02e26ddb1f64b7071d07035999cdbd9b13195098622a7afbe59432941dd5ba1d2f"}, "vout": 1, "txid": "18dfe28eea8c42eb5966f662b5326bc615d8206c8039fbd2c2d3c71997865cd7"}], "txid": "7275e5a2e53e49292cc72d7891afe4ca5955ae2585ee17267872a9491e5a566e", "blocktime": 1537873891, "version": 1, "confirmations": 11477, "time": 1537873891, "locktime": 0, "vsize": 225, "size": 225}