{"hash": "436b0e773bd1d8dc81df1b24cc9452786d19cba6730e2be0cea7ab4db308ec26", "blockhash": "0000000000000000001cda96e906b7601b7a6fb1a3b62bca570a9e5d8f4b3de1", "vout": [{"scriptPubKey": {"reqSigs": 1, "hex": "a9149fe8d6172c747d13c024602b499f19653347013287", "addresses": ["3GGYHnzyGxQbXHHpWh9MyBFs29GrYo66xU"], "asm": "OP_HASH160 9fe8d6172c747d13c024602b499f196533470132 OP_EQUAL", "type": "scripthash"}, "value": 0.00014484, "n": 0}, {"scriptPubKey": {"reqSigs": 1, "hex": "a914f5342287aaa57f5c05756dbd5ef14091cc70030f87", "addresses": ["3Q3XvwKWsx3ocmCXheK6pAo5ieooFx75hh"], "asm": "OP_HASH160 f5342287aaa57f5c05756dbd5ef14091cc70030f OP_EQUAL", "type": "scripthash"}, "value": 0.0892251, "n": 1}], "hex": "01000000000101881c9b0901aafed3ed4e18360dd84dafa5b3ac65f96409671ec371790bd6188901000000232200204fd7968ffe15cb453352a1e9ee2915eff8b6d6252d5a351f9092b82ca10eb12cffffffff02943800000000000017a9149fe8d6172c747d13c024602b499f196533470132878e2588000000000017a914f5342287aaa57f5c05756dbd5ef14091cc70030f870400483045022100c2009240a879d07572f70de9440113197bbcbefc2efcc36515d500e7826e13de0220605d363c121fe9fedfa3283104d1adc6b3e73183d8b5be7eaffb68448e6fbe2c01473044022079e37283aeb19138e5ef943caa4b0ed69c3f60acfb5d973001d2cab69be6ae0602201df8d46296332564f6671765833803e5cb3983706e52fd40224c395977354c230147522103b70e79262cbb7310fe069dea7c473b53276b75c67fb841ff66279f152a3fe0172103871fc2ca08e6950b38867e8e6a0e94ee625223d3aa0df5c65f414c6d784467e252ae00000000", "vin": [{"txinwitness": ["", "3045022100c2009240a879d07572f70de9440113197bbcbefc2efcc36515d500e7826e13de0220605d363c121fe9fedfa3283104d1adc6b3e73183d8b5be7eaffb68448e6fbe2c01", "3044022079e37283aeb19138e5ef943caa4b0ed69c3f60acfb5d973001d2cab69be6ae0602201df8d46296332564f6671765833803e5cb3983706e52fd40224c395977354c2301", "522103b70e79262cbb7310fe069dea7c473b53276b75c67fb841ff66279f152a3fe0172103871fc2ca08e6950b38867e8e6a0e94ee625223d3aa0df5c65f414c6d784467e252ae"], "sequence": 4294967295, "scriptSig": {"hex": "2200204fd7968ffe15cb453352a1e9ee2915eff8b6d6252d5a351f9092b82ca10eb12c", "asm": "00204fd7968ffe15cb453352a1e9ee2915eff8b6d6252d5a351f9092b82ca10eb12c"}, "vout": 1, "txid": "8918d60b7971c31e670964f965acb3a5af4dd80d36184eedd3feaa01099b1c88"}], "txid": "7284b1f75bbad5ac9beea1a7ba7a0e0ebff078f75eeb2cd3357ec7ecad3ada05", "blocktime": 1537873282, "version": 1, "confirmations": 11484, "time": 1537873282, "locktime": 0, "vsize": 206, "size": 371}