{"hash": "72930667d9604206056f309aa86fa9a6584e77fa5c120b70425ca007f755b3b6", "blockhash": "00000000000000000017f5eb5941039fbcee6240d03bc1f2f8e35350df66a1d8", "vout": [{"scriptPubKey": {"reqSigs": 1, "hex": "a9140216c1c5c882b816358f24a1f501ad43457ce81087", "addresses": ["31t4Y77bnDVYNAv6GF8i9fo2iFEVSwScjx"], "asm": "OP_HASH160 0216c1c5c882b816358f24a1f501ad43457ce810 OP_EQUAL", "type": "scripthash"}, "value": 0.101467, "n": 0}, {"scriptPubKey": {"reqSigs": 1, "hex": "76a91462911ec47b41920a4cfbc90a76cb0e5d413f89f888ac", "addresses": ["19zB4vkEHJMAQU8jXGF97rXMgWKE9w5pUH"], "asm": "OP_DUP OP_HASH160 62911ec47b41920a4cfbc90a76cb0e5d413f89f8 OP_EQUALVERIFY OP_CHECKSIG", "type": "pubkeyhash"}, "value": 6.05691196, "n": 1}], "hex": "0100000001d6ee9013e19ec7155dcd199085845d7f16e0ef7cf5f2394a4444c1ba1666a699000000006a473044022001e08bed243e8a14255f05cd14690dec31b1069adcf075be78bb69ac09e8b2f002204e82aa67e5d5ead17fcdc656d7830b5b6ee0da14a81a7db27a97a946341dd698012102d4beef471dace2fd3addc8dfa98939f316a45857ea7a55abb2e326dc6b0bb56fffffffff028cd39a000000000017a9140216c1c5c882b816358f24a1f501ad43457ce810873c1d1a24000000001976a91462911ec47b41920a4cfbc90a76cb0e5d413f89f888ac00000000", "vin": [{"sequence": 4294967295, "scriptSig": {"hex": "473044022001e08bed243e8a14255f05cd14690dec31b1069adcf075be78bb69ac09e8b2f002204e82aa67e5d5ead17fcdc656d7830b5b6ee0da14a81a7db27a97a946341dd698012102d4beef471dace2fd3addc8dfa98939f316a45857ea7a55abb2e326dc6b0bb56f", "asm": "3044022001e08bed243e8a14255f05cd14690dec31b1069adcf075be78bb69ac09e8b2f002204e82aa67e5d5ead17fcdc656d7830b5b6ee0da14a81a7db27a97a946341dd698[ALL] 02d4beef471dace2fd3addc8dfa98939f316a45857ea7a55abb2e326dc6b0bb56f"}, "vout": 0, "txid": "99a66616bac144444a39f2f57cefe0167f5d84859019cd5d15c79ee11390eed6"}], "txid": "72930667d9604206056f309aa86fa9a6584e77fa5c120b70425ca007f755b3b6", "blocktime": 1537874412, "version": 1, "confirmations": 11467, "time": 1537874412, "locktime": 0, "vsize": 223, "size": 223}