{"hash": "9d926adddd658a2a86b9fcc4df1a0db22183d961db93f5811e4dadb02c079e0f", "blockhash": "0000000000000000001f0ddff1eddb255c1121bcd4da4f1bc9a0da00cae72433", "vout": [{"scriptPubKey": {"reqSigs": 1, "hex": "0014485a98f06b90c4265dd7407dcb2da7a7a8fa1316", "addresses": ["bc1qfpdf3urtjrzzvhwhgp7uktd857505yck7mvyae"], "asm": "0 485a98f06b90c4265dd7407dcb2da7a7a8fa1316", "type": "witness_v0_keyhash"}, "value": 3.179e-05, "n": 0}, {"scriptPubKey": {"reqSigs": 1, "hex": "a91416f1e02b5f43e534cce764927e46cf62ea583f7c87", "addresses": ["33nLYaa8dpQBEP97THAMWkKCct5stSd1uw"], "asm": "OP_HASH160 16f1e02b5f43e534cce764927e46cf62ea583f7c OP_EQUAL", "type": "scripthash"}, "value": 0.00183, "n": 1}], "hex": "01000000000101e397eb438a8b44b333aebd431b6d54d655466dc8692898276ddd03b47b36473e000000001716001481a3848575ff147bab560f3ab8b840e59a513cf8ffffffff026b0c000000000000160014485a98f06b90c4265dd7407dcb2da7a7a8fa1316d8ca02000000000017a91416f1e02b5f43e534cce764927e46cf62ea583f7c870247304402200e7e7c55921f91458608d7a59c09785245446c84c433cfb7b7f3af1ffdba68d802206b4c03acc499891d789d5a9b40b5a97d91de90327da137a7eea81e5915209247012103bff1e8bb238a51532531ea60f87b4b6541e69f9a0cc46c78894b1192a3bb3d4c00000000", "vin": [{"txinwitness": ["304402200e7e7c55921f91458608d7a59c09785245446c84c433cfb7b7f3af1ffdba68d802206b4c03acc499891d789d5a9b40b5a97d91de90327da137a7eea81e591520924701", "03bff1e8bb238a51532531ea60f87b4b6541e69f9a0cc46c78894b1192a3bb3d4c"], "sequence": 4294967295, "scriptSig": {"hex": "16001481a3848575ff147bab560f3ab8b840e59a513cf8", "asm": "001481a3848575ff147bab560f3ab8b840e59a513cf8"}, "vout": 0, "txid": "3e47367bb403dd6d27982869c86d4655d6546d1b43bdae33b3448b8a43eb97e3"}], "txid": "72941b84aef0809d24526d7961033a908784a9427dda2e674598c7ce56c0b1b4", "blocktime": 1537872018, "version": 1, "confirmations": 11489, "time": 1537872018, "locktime": 0, "vsize": 165, "size": 246}