{"hash": "729502344870832e72dbba6702a3a8821aeaed1a6ea25ce2c94391d6b256bf3b", "blockhash": "0000000000000000000baef3f32e3676a92c3b2e5da21b426e4f302fc371ce76", "vout": [{"scriptPubKey": {"type": "nulldata", "hex": "6a4c500000782c0001fcfeadaa728f5215ef12a2dc27b7256b4774d339f6019d6ddc0f1b8ff1172c36cb050dad65be226da76cb408f2565baa1f120614ffc1f48162ddbc9a9526289ac0f6612cd74e33776ee4", "asm": "OP_RETURN 0000782c0001fcfeadaa728f5215ef12a2dc27b7256b4774d339f6019d6ddc0f1b8ff1172c36cb050dad65be226da76cb408f2565baa1f120614ffc1f48162ddbc9a9526289ac0f6612cd74e33776ee4"}, "value": 0.0, "n": 0}, {"scriptPubKey": {"reqSigs": 1, "hex": "76a914e55cbd3d36110f1efbbac1a75ed225597c0a6ae088ac", "addresses": ["1MukqZeHMTb63h7jyNgJGaYJpK9xo7oLBK"], "asm": "OP_DUP OP_HASH160 e55cbd3d36110f1efbbac1a75ed225597c0a6ae0 OP_EQUALVERIFY OP_CHECKSIG", "type": "pubkeyhash"}, "value": 0.0006418, "n": 1}], "hex": "0100000001b9f12379007cec340f985dfa300d23ed12e4c678f902772d77e972bedbf23ddb010000006b483045022100e7269ab1e0253f32dffdbe22766d7b57d34b953aef1e500aea3cc392c96dd98602204fade78c2014d0eb7018bf664bdfb67e1f6efbb7d1e11b5aeddb7d3b9bef9b2d012102a631f694bd2d8b88a1af336c5a77ab1c34c2ee39b3099152fff22c8776c4fb05ffffffff020000000000000000536a4c500000782c0001fcfeadaa728f5215ef12a2dc27b7256b4774d339f6019d6ddc0f1b8ff1172c36cb050dad65be226da76cb408f2565baa1f120614ffc1f48162ddbc9a9526289ac0f6612cd74e33776ee4b4fa0000000000001976a914e55cbd3d36110f1efbbac1a75ed225597c0a6ae088ac00000000", "vin": [{"sequence": 4294967295, "scriptSig": {"hex": "483045022100e7269ab1e0253f32dffdbe22766d7b57d34b953aef1e500aea3cc392c96dd98602204fade78c2014d0eb7018bf664bdfb67e1f6efbb7d1e11b5aeddb7d3b9bef9b2d012102a631f694bd2d8b88a1af336c5a77ab1c34c2ee39b3099152fff22c8776c4fb05", "asm": "3045022100e7269ab1e0253f32dffdbe22766d7b57d34b953aef1e500aea3cc392c96dd98602204fade78c2014d0eb7018bf664bdfb67e1f6efbb7d1e11b5aeddb7d3b9bef9b2d[ALL] 02a631f694bd2d8b88a1af336c5a77ab1c34c2ee39b3099152fff22c8776c4fb05"}, "vout": 1, "txid": "db3df2dbbe72e9772d7702f978c6e412ed230d30fa5d980f34ec7c007923f1b9"}], "txid": "729502344870832e72dbba6702a3a8821aeaed1a6ea25ce2c94391d6b256bf3b", "blocktime": 1537876114, "version": 1, "confirmations": 11460, "time": 1537876114, "locktime": 0, "vsize": 284, "size": 284}