{"hash": "7299a83dbbe84630722a408231406ef7e2213a2ea1c31e17ee0d7446bdfb3c6a", "blockhash": "0000000000000000000baef3f32e3676a92c3b2e5da21b426e4f302fc371ce76", "vout": [{"scriptPubKey": {"reqSigs": 1, "hex": "76a914ca6403bf1afa4d85bd6da313affa8a5cafb7fd5588ac", "addresses": ["1KT9JtXZnXcMmZ9UGZCVZVdDw6qMsqLLkY"], "asm": "OP_DUP OP_HASH160 ca6403bf1afa4d85bd6da313affa8a5cafb7fd55 OP_EQUALVERIFY OP_CHECKSIG", "type": "pubkeyhash"}, "value": 0.0003389, "n": 0}, {"scriptPubKey": {"type": "nulldata", "hex": "6a146f6d6e69000000000000001f00000017cefdfe40", "asm": "OP_RETURN 6f6d6e69000000000000001f00000017cefdfe40"}, "value": 0.0, "n": 1}, {"scriptPubKey": {"reqSigs": 1, "hex": "76a91419aae30c8c2873df05154c302f1d084a9577a87288ac", "addresses": ["13LicE8jbDgHRZigxQgUrGdkwCAtoh6EH7"], "asm": "OP_DUP OP_HASH160 19aae30c8c2873df05154c302f1d084a9577a872 OP_EQUALVERIFY OP_CHECKSIG", "type": "pubkeyhash"}, "value": 5.46e-06, "n": 2}], "hex": "010000000280767d805cc85c4be79f576ea977a868db6e224d8528a629e75b7452d5f1b027000000006a47304402207fbe9e118f61f52ba56a03aafdb0beefe13192d9d62dd3912265f5b967225cc202202f3ffa9b8ba1dbebc4ad9ae66173b90fbb5d76cda106663de3b68f1f5bc652bd01210324f35cf245806dacda6ab2b296e2bfa4a1a486dfa30b607f2db7a117be9a03bcfeffffffeb2455ada96db9333e1e6aed7802473485c0421942ba17aa04f104a49731cf29000000006b483045022100c8f155fb3541ad749a14a97f20b2449d2f1e413cc5d5dbc214d5837d15ea0fb0022046c36614a28c33b3d23708f3efc8dc8b7ef2cc5af68a83f86fdb6295a846802b01210324f35cf245806dacda6ab2b296e2bfa4a1a486dfa30b607f2db7a117be9a03bcfeffffff0362840000000000001976a914ca6403bf1afa4d85bd6da313affa8a5cafb7fd5588ac0000000000000000166a146f6d6e69000000000000001f00000017cefdfe4022020000000000001976a91419aae30c8c2873df05154c302f1d084a9577a87288ac17490800", "vin": [{"sequence": 4294967294, "scriptSig": {"hex": "47304402207fbe9e118f61f52ba56a03aafdb0beefe13192d9d62dd3912265f5b967225cc202202f3ffa9b8ba1dbebc4ad9ae66173b90fbb5d76cda106663de3b68f1f5bc652bd01210324f35cf245806dacda6ab2b296e2bfa4a1a486dfa30b607f2db7a117be9a03bc", "asm": "304402207fbe9e118f61f52ba56a03aafdb0beefe13192d9d62dd3912265f5b967225cc202202f3ffa9b8ba1dbebc4ad9ae66173b90fbb5d76cda106663de3b68f1f5bc652bd[ALL] 0324f35cf245806dacda6ab2b296e2bfa4a1a486dfa30b607f2db7a117be9a03bc"}, "vout": 0, "txid": "27b0f1d552745be729a628854d226edb68a877a96e579fe74b5cc85c807d7680"}, {"sequence": 4294967294, "scriptSig": {"hex": "483045022100c8f155fb3541ad749a14a97f20b2449d2f1e413cc5d5dbc214d5837d15ea0fb0022046c36614a28c33b3d23708f3efc8dc8b7ef2cc5af68a83f86fdb6295a846802b01210324f35cf245806dacda6ab2b296e2bfa4a1a486dfa30b607f2db7a117be9a03bc", "asm": "3045022100c8f155fb3541ad749a14a97f20b2449d2f1e413cc5d5dbc214d5837d15ea0fb0022046c36614a28c33b3d23708f3efc8dc8b7ef2cc5af68a83f86fdb6295a846802b[ALL] 0324f35cf245806dacda6ab2b296e2bfa4a1a486dfa30b607f2db7a117be9a03bc"}, "vout": 0, "txid": "29cf3197a404f104aa17ba421942c08534470278ed6a1e3e33b96da9ad5524eb"}], "txid": "7299a83dbbe84630722a408231406ef7e2213a2ea1c31e17ee0d7446bdfb3c6a", "blocktime": 1537876114, "version": 1, "confirmations": 11459, "time": 1537876114, "locktime": 542999, "vsize": 404, "size": 404}