{"hash": "c4e824a72a47bd6f66a0923739eda0a009ef02be1860315ea5e90969a74d02eb", "blockhash": "0000000000000000001cda96e906b7601b7a6fb1a3b62bca570a9e5d8f4b3de1", "vout": [{"scriptPubKey": {"reqSigs": 1, "hex": "a914f953117d723630c4b7eac9d62a164deaad081ab087", "addresses": ["3QRKgzpEEpxvDgakNUTxkxi8oef7ajChjN"], "asm": "OP_HASH160 f953117d723630c4b7eac9d62a164deaad081ab0 OP_EQUAL", "type": "scripthash"}, "value": 0.001, "n": 0}, {"scriptPubKey": {"reqSigs": 1, "hex": "a9149649ad6d2730bb28020a268d9d80df10a9f74ad487", "addresses": ["3FPfYWwfMfKMGY7fuPHvz2b73RhTNGzsm3"], "asm": "OP_HASH160 9649ad6d2730bb28020a268d9d80df10a9f74ad4 OP_EQUAL", "type": "scripthash"}, "value": 13.86647611, "n": 1}], "hex": "01000000000101fbe985159388b4e8a9024564c6ca3070b864312fabb9a8d2f8f1774fe0327c5b01000000232200207768efcc1e5eb3d28410fac3f45831004c860cc24cddd940a616b34324823fceffffffff02a08601000000000017a914f953117d723630c4b7eac9d62a164deaad081ab0873b90a6520000000017a9149649ad6d2730bb28020a268d9d80df10a9f74ad4870400473044022006706dc9bc50bc513b1eedc05eed9c9bdfcb553bcd5f30051cc86b1c0e0c3aa402200b6d9322f118189fdc8e234884a95b59d9e911a401272bdaae0b2fa72b6a79400147304402207702f6d77a1dab746aa92f1a9f2d32479d3bcd9d96587001365ea73180424d8a02203cc9e754325d131c61bc2c61ce3bb0d0f60a4f487194add1f18e6cc3dcea36720147522102529d5d1f6733ab45d9d50e07db42c7f6b967ae321c38b726c2247f149959b8262103d0c936a5988dd8421c63240496b723b0ec42400c38b9350e32c2eb4f47d8796952ae00000000", "vin": [{"txinwitness": ["", "3044022006706dc9bc50bc513b1eedc05eed9c9bdfcb553bcd5f30051cc86b1c0e0c3aa402200b6d9322f118189fdc8e234884a95b59d9e911a401272bdaae0b2fa72b6a794001", "304402207702f6d77a1dab746aa92f1a9f2d32479d3bcd9d96587001365ea73180424d8a02203cc9e754325d131c61bc2c61ce3bb0d0f60a4f487194add1f18e6cc3dcea367201", "522102529d5d1f6733ab45d9d50e07db42c7f6b967ae321c38b726c2247f149959b8262103d0c936a5988dd8421c63240496b723b0ec42400c38b9350e32c2eb4f47d8796952ae"], "sequence": 4294967295, "scriptSig": {"hex": "2200207768efcc1e5eb3d28410fac3f45831004c860cc24cddd940a616b34324823fce", "asm": "00207768efcc1e5eb3d28410fac3f45831004c860cc24cddd940a616b34324823fce"}, "vout": 1, "txid": "5b7c32e04f77f1f8d2a8b9ab2f3164b87030cac6644502a9e8b488931585e9fb"}], "txid": "729f6b9e96fd43e2d2998e9830147d7a0685b6a969db496b369d44816a2416eb", "blocktime": 1537873282, "version": 1, "confirmations": 11484, "time": 1537873282, "locktime": 0, "vsize": 205, "size": 370}