{"hash": "72a75567827f16ed43d9f6d9a8ad68f09e079d9028cf569a48804a7ceca741aa", "blockhash": "0000000000000000000baef3f32e3676a92c3b2e5da21b426e4f302fc371ce76", "vout": [{"scriptPubKey": {"reqSigs": 1, "hex": "76a9143d44a2c80504743dd15bc6c69cf0ad587e5c188f88ac", "addresses": ["16axSc6f2bxqJt7A37G9dSWq1w1cm5Jqfd"], "asm": "OP_DUP OP_HASH160 3d44a2c80504743dd15bc6c69cf0ad587e5c188f OP_EQUALVERIFY OP_CHECKSIG", "type": "pubkeyhash"}, "value": 0.029792, "n": 0}, {"scriptPubKey": {"reqSigs": 1, "hex": "76a91451aa3bddd84662b5fb15d064bd6a0ed67e81ed1e88ac", "addresses": ["18SofbSWBPKDqoJbvUPvufeNnnqxC8Tf7q"], "asm": "OP_DUP OP_HASH160 51aa3bddd84662b5fb15d064bd6a0ed67e81ed1e OP_EQUALVERIFY OP_CHECKSIG", "type": "pubkeyhash"}, "value": 0.00037294, "n": 1}], "hex": "0100000002a030f96f37c8861625d179b53f6520d5908394b8d4c743c123bea1593a93592c000000006b483045022100bcdc448c1cbb65d9d20e6e7f2071bc5e7e089c68928b44aed1ff8ae5e995785b022041dac89b3ee85e65a5af6503a1728ca66d5b752161512eba02f187fc23aae4fe012102f830c351b9deef68e0bfba6b29dd4c966605bfc736ef1efbaedd4234a45995d5ffffffff0e105eeb5460a6e276e67aaa5a5c98bef4f78b6d5d0e95238e0fd9884c0a7462010000006a473044022018f29c80fed09b387bef9901246e6be5bf42c065e51a4ad6c479d278d12879fa02204b5a831223a63333c05d7c00e7951fcc37c3d278f26968fec9bcf3935ba0dfcc0121038f0bd71282ba999af6ba8311db1302dad85feb7885e3f8af0b748fef42e9ff36ffffffff0280752d00000000001976a9143d44a2c80504743dd15bc6c69cf0ad587e5c188f88acae910000000000001976a91451aa3bddd84662b5fb15d064bd6a0ed67e81ed1e88ac00000000", "vin": [{"sequence": 4294967295, "scriptSig": {"hex": "483045022100bcdc448c1cbb65d9d20e6e7f2071bc5e7e089c68928b44aed1ff8ae5e995785b022041dac89b3ee85e65a5af6503a1728ca66d5b752161512eba02f187fc23aae4fe012102f830c351b9deef68e0bfba6b29dd4c966605bfc736ef1efbaedd4234a45995d5", "asm": "3045022100bcdc448c1cbb65d9d20e6e7f2071bc5e7e089c68928b44aed1ff8ae5e995785b022041dac89b3ee85e65a5af6503a1728ca66d5b752161512eba02f187fc23aae4fe[ALL] 02f830c351b9deef68e0bfba6b29dd4c966605bfc736ef1efbaedd4234a45995d5"}, "vout": 0, "txid": "2c59933a59a1be23c143c7d4b8948390d520653fb579d1251686c8376ff930a0"}, {"sequence": 4294967295, "scriptSig": {"hex": "473044022018f29c80fed09b387bef9901246e6be5bf42c065e51a4ad6c479d278d12879fa02204b5a831223a63333c05d7c00e7951fcc37c3d278f26968fec9bcf3935ba0dfcc0121038f0bd71282ba999af6ba8311db1302dad85feb7885e3f8af0b748fef42e9ff36", "asm": "3044022018f29c80fed09b387bef9901246e6be5bf42c065e51a4ad6c479d278d12879fa02204b5a831223a63333c05d7c00e7951fcc37c3d278f26968fec9bcf3935ba0dfcc[ALL] 038f0bd71282ba999af6ba8311db1302dad85feb7885e3f8af0b748fef42e9ff36"}, "vout": 1, "txid": "62740a4c88d90f8e23950e5d6d8bf7f4be985c5aaa7ae676e2a66054eb5e100e"}], "txid": "72a75567827f16ed43d9f6d9a8ad68f09e079d9028cf569a48804a7ceca741aa", "blocktime": 1537876114, "version": 1, "confirmations": 11460, "time": 1537876114, "locktime": 0, "vsize": 373, "size": 373}