{"hash": "72a84673f50d20622b8916e7c1a6fde161532810d473ab51e0b25df8b7cb9f0a", "blockhash": "0000000000000000000dcc0f55137456b1a82d3642486a52398922ac4d620174", "vout": [{"scriptPubKey": {"reqSigs": 1, "hex": "a9143e6f15908582f42917ec31e39bf8722fc9d5db3f87", "addresses": ["37P8thrtDXb6Di5E7f4FL3bpzum3fhUvT7"], "asm": "OP_HASH160 3e6f15908582f42917ec31e39bf8722fc9d5db3f OP_EQUAL", "type": "scripthash"}, "value": 0.0002, "n": 0}, {"scriptPubKey": {"reqSigs": 1, "hex": "76a9141bd99f87dbf5c1bab319ffaa366b9b32d05814b488ac", "addresses": ["13YFwuKnG9qDZAzyve8xztGAgPxwZYwb5X"], "asm": "OP_DUP OP_HASH160 1bd99f87dbf5c1bab319ffaa366b9b32d05814b4 OP_EQUALVERIFY OP_CHECKSIG", "type": "pubkeyhash"}, "value": 0.00907078, "n": 1}], "hex": "01000000015380f1be113625c1acdf22b8dc66150c4cb69a7b5daaa17070dc86a39a4fd8f8000000006b483045022100ffe6b416c20b9b4945df9cfb676d40c647763a0af9564fb534135ee2fabfe89702205776307d2f233a40eeea0e00bc793bba8319edc1c5ebb0d45bc232047d640d52012103f0390e909acd581ca6fcb6369e97b833cd66f0781474501089e7c14e7105c227ffffffff02204e00000000000017a9143e6f15908582f42917ec31e39bf8722fc9d5db3f8746d70d00000000001976a9141bd99f87dbf5c1bab319ffaa366b9b32d05814b488ac00000000", "vin": [{"sequence": 4294967295, "scriptSig": {"hex": "483045022100ffe6b416c20b9b4945df9cfb676d40c647763a0af9564fb534135ee2fabfe89702205776307d2f233a40eeea0e00bc793bba8319edc1c5ebb0d45bc232047d640d52012103f0390e909acd581ca6fcb6369e97b833cd66f0781474501089e7c14e7105c227", "asm": "3045022100ffe6b416c20b9b4945df9cfb676d40c647763a0af9564fb534135ee2fabfe89702205776307d2f233a40eeea0e00bc793bba8319edc1c5ebb0d45bc232047d640d52[ALL] 03f0390e909acd581ca6fcb6369e97b833cd66f0781474501089e7c14e7105c227"}, "vout": 0, "txid": "f8d84f9aa386dc7070a1aa5d7b9ab64c0c1566dcb822dfacc1253611bef18053"}], "txid": "72a84673f50d20622b8916e7c1a6fde161532810d473ab51e0b25df8b7cb9f0a", "blocktime": 1537870268, "version": 1, "confirmations": 11516, "time": 1537870268, "locktime": 0, "vsize": 224, "size": 224}