{"hash": "167ea307f9cefe075884e1dd0fe1a401a38d786f3e9e2cb27c88376e06a9b6e6", "blockhash": "0000000000000000001f0ddff1eddb255c1121bcd4da4f1bc9a0da00cae72433", "vout": [{"scriptPubKey": {"reqSigs": 1, "hex": "76a914bc540a77c9612d97397f9d0f79483216ecd15f8788ac", "addresses": ["1JAniKzsAPZaMLcT1PTj4wcKQJddKY23Lx"], "asm": "OP_DUP OP_HASH160 bc540a77c9612d97397f9d0f79483216ecd15f87 OP_EQUALVERIFY OP_CHECKSIG", "type": "pubkeyhash"}, "value": 6.9999, "n": 0}, {"scriptPubKey": {"reqSigs": 1, "hex": "a91446db739b3fbf38b7a744dd81f5c65e95b08b23e387", "addresses": ["389g7jcVYbaHQ6ARyoHS4drz2UDuGKVfUU"], "asm": "OP_HASH160 46db739b3fbf38b7a744dd81f5c65e95b08b23e3 OP_EQUAL", "type": "scripthash"}, "value": 0.14294878, "n": 1}], "hex": "02000000000102bcb99d130e22bbc02a3257c442f38b5835718e6b44d3d6f118d46d4ea329e19f01000000171600145f23c6ace3b40a9502567481035e9476b51976f1feffffffdaaf541151beee83d3c62c5e8409e5cdda0a757185a141c7981f6d8b6831e9cf0000000017160014ed327c5232b4d079e7d87c04b910058262b688b6feffffff02f0ffb829000000001976a914bc540a77c9612d97397f9d0f79483216ecd15f8788ac5e1fda000000000017a91446db739b3fbf38b7a744dd81f5c65e95b08b23e38702473044022051b1fc4c03cf1affc5be1aafee7e99be9bb9d11a0f63f273d4a3eb4a98b4aef402203ecd0a17cbfb3f5e0df6d1bc723a6bbe298276d0261b8792d805c8a1e539d0a80121025f2b243aa8d51417819621a68d22170a4508c7b8fb9dd29af5dc37172175a49302483045022100bb1cd7520a36f80d9d445adac4c9a82c3ac5a799e251e498e47338425c5189810220450c60f636d8c50c878d00f70644c3a0af883b5815a3b02a806043e646c050f9012102c918e818d9b1b0e33f1b1459bbeb9493e37b89ca3870fcc9d70889cb8a8c98ff11490800", "vin": [{"txinwitness": ["3044022051b1fc4c03cf1affc5be1aafee7e99be9bb9d11a0f63f273d4a3eb4a98b4aef402203ecd0a17cbfb3f5e0df6d1bc723a6bbe298276d0261b8792d805c8a1e539d0a801", "025f2b243aa8d51417819621a68d22170a4508c7b8fb9dd29af5dc37172175a493"], "sequence": 4294967294, "scriptSig": {"hex": "1600145f23c6ace3b40a9502567481035e9476b51976f1", "asm": "00145f23c6ace3b40a9502567481035e9476b51976f1"}, "vout": 1, "txid": "9fe129a34e6dd418f1d6d3446b8e7135588bf342c457322ac0bb220e139db9bc"}, {"txinwitness": ["3045022100bb1cd7520a36f80d9d445adac4c9a82c3ac5a799e251e498e47338425c5189810220450c60f636d8c50c878d00f70644c3a0af883b5815a3b02a806043e646c050f901", "02c918e818d9b1b0e33f1b1459bbeb9493e37b89ca3870fcc9d70889cb8a8c98ff"], "sequence": 4294967294, "scriptSig": {"hex": "160014ed327c5232b4d079e7d87c04b910058262b688b6", "asm": "0014ed327c5232b4d079e7d87c04b910058262b688b6"}, "vout": 0, "txid": "cfe931688b6d1f98c741a18571750adacde509845e2cc6d383eebe511154afda"}], "txid": "72ab0df877bbbf08b73de1cfe8a79e07d7b02557231e5dd04446ab9ac0a158a8", "blocktime": 1537872018, "version": 2, "confirmations": 11489, "time": 1537872018, "locktime": 542993, "vsize": 259, "size": 421}