{"hash": "45b261a6c03472de34ec5741c25eb5e37e35fa21c44b818f2aec9c4545471c5f", "blockhash": "0000000000000000000baef3f32e3676a92c3b2e5da21b426e4f302fc371ce76", "vout": [{"scriptPubKey": {"reqSigs": 1, "hex": "76a91436866ee841b76f9e35b28e0a4e5bac454fb7c14888ac", "addresses": ["15yJXwizEPdNPfuRCVot2db4v4j35d4trt"], "asm": "OP_DUP OP_HASH160 36866ee841b76f9e35b28e0a4e5bac454fb7c148 OP_EQUALVERIFY OP_CHECKSIG", "type": "pubkeyhash"}, "value": 0.002, "n": 0}, {"scriptPubKey": {"reqSigs": 1, "hex": "76a9148ebe46dcd9982fda76e203eb6b04fe80e907d98a88ac", "addresses": ["1E1ktuSyGz7bCbT4QuFpLhuxvhXFFgHkps"], "asm": "OP_DUP OP_HASH160 8ebe46dcd9982fda76e203eb6b04fe80e907d98a OP_EQUALVERIFY OP_CHECKSIG", "type": "pubkeyhash"}, "value": 0.0015, "n": 1}, {"scriptPubKey": {"reqSigs": 1, "hex": "76a9147617c470d143a67ee434cf323a88492855e8ea1b88ac", "addresses": ["1BmRD2ArpQza8PXS1xhuNfL62y7tHirTAZ"], "asm": "OP_DUP OP_HASH160 7617c470d143a67ee434cf323a88492855e8ea1b OP_EQUALVERIFY OP_CHECKSIG", "type": "pubkeyhash"}, "value": 0.01102, "n": 2}, {"scriptPubKey": {"reqSigs": 1, "hex": "76a91428cb29a36cd4bb5fec9b06dc1e30ee17c40755c688ac", "addresses": ["14ihQfNdhhzKuqYZFCDrbgr7u7AdKDZgRr"], "asm": "OP_DUP OP_HASH160 28cb29a36cd4bb5fec9b06dc1e30ee17c40755c6 OP_EQUALVERIFY OP_CHECKSIG", "type": "pubkeyhash"}, "value": 0.01, "n": 3}, {"scriptPubKey": {"reqSigs": 1, "hex": "a914fc60fe3f09ff6ccac264c676945f467747ccd25487", "addresses": ["3QhUQ61Yh3TxjXNQJ6fyyxsJ8TkwJwLjp4"], "asm": "OP_HASH160 fc60fe3f09ff6ccac264c676945f467747ccd254 OP_EQUAL", "type": "scripthash"}, "value": 0.01, "n": 4}, {"scriptPubKey": {"reqSigs": 1, "hex": "76a91460b3f3f369dcbce15b1b43aeba5535762ca9dd7d88ac", "addresses": ["19pKSmMT6zTCLr678v9oG3BEWp4P84puwi"], "asm": "OP_DUP OP_HASH160 60b3f3f369dcbce15b1b43aeba5535762ca9dd7d OP_EQUALVERIFY OP_CHECKSIG", "type": "pubkeyhash"}, "value": 0.00101671, "n": 5}, {"scriptPubKey": {"reqSigs": 1, "hex": "a914050e9b73041b548fc5c0102c08177fb3285ad59b87", "addresses": ["329koRvovTyNnd4ADrpR2uJHzXxfvKxta5"], "asm": "OP_HASH160 050e9b73041b548fc5c0102c08177fb3285ad59b OP_EQUAL", "type": "scripthash"}, "value": 47.94159533, "n": 6}], "hex": "02000000000101f9fd9335e9e182917ecbcb1da86fe41486fcda0a6f38d2454024fec82dd9e12e0b0000001716001437de5da24ea7c8a3122ff93038f95492bd3834e5feffffff07400d0300000000001976a91436866ee841b76f9e35b28e0a4e5bac454fb7c14888acf0490200000000001976a9148ebe46dcd9982fda76e203eb6b04fe80e907d98a88acb0d01000000000001976a9147617c470d143a67ee434cf323a88492855e8ea1b88ac40420f00000000001976a91428cb29a36cd4bb5fec9b06dc1e30ee17c40755c688ac40420f000000000017a914fc60fe3f09ff6ccac264c676945f467747ccd25487278d0100000000001976a91460b3f3f369dcbce15b1b43aeba5535762ca9dd7d88acad11c11d0100000017a914050e9b73041b548fc5c0102c08177fb3285ad59b87024730440220266129ed65a21ebf4d6eea4971a6e7bf2d64e98f1cb98af7af65c2330b9640b8022013384db83abc32e8a4a7e8edf3c2c852e049bd0b2df134cf79650de4846a30d20121036f4dd476664e417eab722cf99a991c471d38a6a7562275be1bc2dc9a606b468d16490800", "vin": [{"txinwitness": ["30440220266129ed65a21ebf4d6eea4971a6e7bf2d64e98f1cb98af7af65c2330b9640b8022013384db83abc32e8a4a7e8edf3c2c852e049bd0b2df134cf79650de4846a30d201", "036f4dd476664e417eab722cf99a991c471d38a6a7562275be1bc2dc9a606b468d"], "sequence": 4294967294, "scriptSig": {"hex": "16001437de5da24ea7c8a3122ff93038f95492bd3834e5", "asm": "001437de5da24ea7c8a3122ff93038f95492bd3834e5"}, "vout": 11, "txid": "2ee1d92dc8fe244045d2386f0adafc8614e46fa81dcbcb7e9182e1e93593fdf9"}], "txid": "72ac928a0ec2d16ecce48a2cbe2cdc57fc0e538b9d365811e443e7153f0821b0", "blocktime": 1537876114, "version": 2, "confirmations": 11462, "time": 1537876114, "locktime": 542998, "vsize": 336, "size": 417}