{"hash": "72b48daaa18d74fe6cf9877fac9c582606bb7191a34a90dc5603f0d7b3f7f6fb", "blockhash": "0000000000000000001f76057863aec43deb6fa401d9628bb513d65a8098bfab", "vout": [{"scriptPubKey": {"reqSigs": 1, "hex": "76a914a25dec4d0011064ef106a983c39c7a540699f22088ac", "addresses": ["1FoWyxwPXuj4C6abqwhjDWdz6D4PZgYRjA"], "asm": "OP_DUP OP_HASH160 a25dec4d0011064ef106a983c39c7a540699f220 OP_EQUALVERIFY OP_CHECKSIG", "type": "pubkeyhash"}, "value": 0.01990431, "n": 0}, {"scriptPubKey": {"type": "nulldata", "hex": "6a146f6d6e69000000000000001f00000001165a8b80", "asm": "OP_RETURN 6f6d6e69000000000000001f00000001165a8b80"}, "value": 0.0, "n": 1}, {"scriptPubKey": {"reqSigs": 1, "hex": "76a91411a08fa540e4eed1c91f7e7e67d8ed50902c840388ac", "addresses": ["12cCqF6QfkqZsUJEAvHGEUL7XPhcb1r8CR"], "asm": "OP_DUP OP_HASH160 11a08fa540e4eed1c91f7e7e67d8ed50902c8403 OP_EQUALVERIFY OP_CHECKSIG", "type": "pubkeyhash"}, "value": 5.46e-06, "n": 2}], "hex": "0100000001782c3e62f3de287552e8694027eb5c98ec0607c30d75f5673318fca7cc141e43020000006b483045022100b047380aa6498f2d21014bcf2774539fac95529028ca9175c176b96346f31efc02200bce1cdb84d06dde673b4866bae4a849afb75892dfb4a5060fa168639b5c62df012103da5bac7b36d5aa38f531c6b9601e21bb598a4b6716ebed38b009a55dabde9440feffffff031f5f1e00000000001976a914a25dec4d0011064ef106a983c39c7a540699f22088ac0000000000000000166a146f6d6e69000000000000001f00000001165a8b8022020000000000001976a91411a08fa540e4eed1c91f7e7e67d8ed50902c840388ac14490800", "vin": [{"sequence": 4294967294, "scriptSig": {"hex": "483045022100b047380aa6498f2d21014bcf2774539fac95529028ca9175c176b96346f31efc02200bce1cdb84d06dde673b4866bae4a849afb75892dfb4a5060fa168639b5c62df012103da5bac7b36d5aa38f531c6b9601e21bb598a4b6716ebed38b009a55dabde9440", "asm": "3045022100b047380aa6498f2d21014bcf2774539fac95529028ca9175c176b96346f31efc02200bce1cdb84d06dde673b4866bae4a849afb75892dfb4a5060fa168639b5c62df[ALL] 03da5bac7b36d5aa38f531c6b9601e21bb598a4b6716ebed38b009a55dabde9440"}, "vout": 2, "txid": "431e14cca7fc183367f5750dc30706ec985ceb274069e8527528def3623e2c78"}], "txid": "72b48daaa18d74fe6cf9877fac9c582606bb7191a34a90dc5603f0d7b3f7f6fb", "blocktime": 1537873891, "version": 1, "confirmations": 11475, "time": 1537873891, "locktime": 542996, "vsize": 257, "size": 257}