{"hash": "72b54e41eb4cf7665cf9468eb72c933826fe208d2bbde2a1e36aaf33298c2ced", "blockhash": "0000000000000000001f76057863aec43deb6fa401d9628bb513d65a8098bfab", "vout": [{"scriptPubKey": {"reqSigs": 1, "hex": "76a9141e7a5f9cd82623bf2c5e563612b138719bd74a3b88ac", "addresses": ["13n9sR1CMV1SU6KsZWMRWpAycU5XUwVQKm"], "asm": "OP_DUP OP_HASH160 1e7a5f9cd82623bf2c5e563612b138719bd74a3b OP_EQUALVERIFY OP_CHECKSIG", "type": "pubkeyhash"}, "value": 1.608e-05, "n": 0}, {"scriptPubKey": {"reqSigs": 1, "hex": "76a914dc5d49bf3b362aa49780c57f1cd292541319c2d188ac", "addresses": ["1M6BQyMsVcJcd3aahEroLaPh7KBadKJLG9"], "asm": "OP_DUP OP_HASH160 dc5d49bf3b362aa49780c57f1cd292541319c2d1 OP_EQUALVERIFY OP_CHECKSIG", "type": "pubkeyhash"}, "value": 0.00078036, "n": 1}], "hex": "0100000001533e2ad2087e25b30a3335cffb0756e5a4fe555d9a7f78fa5ddd0e631ce11182000000006a4730440220741fa1112565bbe6fd7a51dd7e87c433d7049469a2b3c29dda29d0aef9b958b5022015db35eec082eec551690628feb00c6909c9eb19601b2d52ac427ce87684fc6a01210346a4d8575c941687fe2253aae63f87854394097fbdd6963b578610b36da8df61ffffffff0248060000000000001976a9141e7a5f9cd82623bf2c5e563612b138719bd74a3b88acd4300100000000001976a914dc5d49bf3b362aa49780c57f1cd292541319c2d188ac00000000", "vin": [{"sequence": 4294967295, "scriptSig": {"hex": "4730440220741fa1112565bbe6fd7a51dd7e87c433d7049469a2b3c29dda29d0aef9b958b5022015db35eec082eec551690628feb00c6909c9eb19601b2d52ac427ce87684fc6a01210346a4d8575c941687fe2253aae63f87854394097fbdd6963b578610b36da8df61", "asm": "30440220741fa1112565bbe6fd7a51dd7e87c433d7049469a2b3c29dda29d0aef9b958b5022015db35eec082eec551690628feb00c6909c9eb19601b2d52ac427ce87684fc6a[ALL] 0346a4d8575c941687fe2253aae63f87854394097fbdd6963b578610b36da8df61"}, "vout": 0, "txid": "8211e11c630edd5dfa787f9a5d55fea4e55607fbcf35330ab3257e08d22a3e53"}], "txid": "72b54e41eb4cf7665cf9468eb72c933826fe208d2bbde2a1e36aaf33298c2ced", "blocktime": 1537873891, "version": 1, "confirmations": 11476, "time": 1537873891, "locktime": 0, "vsize": 225, "size": 225}