{"hash": "dafe93c1c7c371c6fb2ad69c69a01f9f03d4315268e6d6a6f0b7d5406f7dd012", "blockhash": "000000000000000000205f8b0775d31398ef75b89a5e8ec8d2c57b4dc0ac4c20", "vout": [{"scriptPubKey": {"reqSigs": 1, "hex": "a91496d8063396493640373be96ec44733f2de081fe487", "addresses": ["3FSc4wjpzempMYwiZEgCNSLZnoNRmoMpUy"], "asm": "OP_HASH160 96d8063396493640373be96ec44733f2de081fe4 OP_EQUAL", "type": "scripthash"}, "value": 0.05858971, "n": 0}, {"scriptPubKey": {"reqSigs": 1, "hex": "a914f88115cb82628527435d54567da38b109edf975887", "addresses": ["3QLz97M3Seegtii2h2ne7arQyqh3BG62jd"], "asm": "OP_HASH160 f88115cb82628527435d54567da38b109edf9758 OP_EQUAL", "type": "scripthash"}, "value": 0.05206343, "n": 1}], "hex": "01000000000102fed445f050902b76d566e23fb7cd448fedbd51a8823eb9db9fe701a74f64d5340100000023220020f7afd6f58ee7b1b67c0192a07f46e0b792384553781d3b00b5a3e9377e9d8f3effffffff26ec990f2b22942fcfead95ae38c035093385e38323b3d6d3d91d45828500ae301000000232200203325f66a3ff5001e891771cf483d0b04d0b6daaefc2bda7b7656d3fca4bc49a8ffffffff029b6659000000000017a91496d8063396493640373be96ec44733f2de081fe48747714f000000000017a914f88115cb82628527435d54567da38b109edf9758870400473044022024679e0fed4a46d10d874ed1f05e7055e3da835abff11ba07ee177f8e3e9311d02201a69af71e80d5b05f956c7915224bced2f141a82e6e47a52c7d6d34f75137f9601483045022100b336933a7b4cdc79557482baffdd1e00da2d2f5decccec855ffb21b7b3e80cf7022011f68c91c9188d4e6722a274103b79b346df45020cfe23b2ddf44e3b62c84a410147522103de2e211c74925555abfca43c24417f23fb92da363a484765d98b48c1b08593f421038407424ead2b88063db2d589e50c34e1572f6b82eb9e266dec536939ee0db9eb52ae040047304402207ba50f323ce693648f7e3af65abfd2c8b8fc90c71f6411c480ba706828b0ba4502205c261afa8f308438d590f59e81f3c241bbb29baa42feffcf9c925134d536cfe1014830450221008eac75e706458507a7b4aa2cd97ac82eaf9b0c53c47ed6ee170e4df3b076b9d102202ba5927ab47ae72d9c42ec30dce1288be1b07ddc208403539427541531469f1b01475221027216d704ad286861ac5631859444c00b20080bbfd411492742f1fd1e0ea1354921038407424ead2b88063db2d589e50c34e1572f6b82eb9e266dec536939ee0db9eb52ae00000000", "vin": [{"txinwitness": ["", "3044022024679e0fed4a46d10d874ed1f05e7055e3da835abff11ba07ee177f8e3e9311d02201a69af71e80d5b05f956c7915224bced2f141a82e6e47a52c7d6d34f75137f9601", "3045022100b336933a7b4cdc79557482baffdd1e00da2d2f5decccec855ffb21b7b3e80cf7022011f68c91c9188d4e6722a274103b79b346df45020cfe23b2ddf44e3b62c84a4101", "522103de2e211c74925555abfca43c24417f23fb92da363a484765d98b48c1b08593f421038407424ead2b88063db2d589e50c34e1572f6b82eb9e266dec536939ee0db9eb52ae"], "sequence": 4294967295, "scriptSig": {"hex": "220020f7afd6f58ee7b1b67c0192a07f46e0b792384553781d3b00b5a3e9377e9d8f3e", "asm": "0020f7afd6f58ee7b1b67c0192a07f46e0b792384553781d3b00b5a3e9377e9d8f3e"}, "vout": 1, "txid": "34d5644fa701e79fdbb93e82a851bded8f44cdb73fe266d5762b9050f045d4fe"}, {"txinwitness": ["", "304402207ba50f323ce693648f7e3af65abfd2c8b8fc90c71f6411c480ba706828b0ba4502205c261afa8f308438d590f59e81f3c241bbb29baa42feffcf9c925134d536cfe101", "30450221008eac75e706458507a7b4aa2cd97ac82eaf9b0c53c47ed6ee170e4df3b076b9d102202ba5927ab47ae72d9c42ec30dce1288be1b07ddc208403539427541531469f1b01", "5221027216d704ad286861ac5631859444c00b20080bbfd411492742f1fd1e0ea1354921038407424ead2b88063db2d589e50c34e1572f6b82eb9e266dec536939ee0db9eb52ae"], "sequence": 4294967295, "scriptSig": {"hex": "2200203325f66a3ff5001e891771cf483d0b04d0b6daaefc2bda7b7656d3fca4bc49a8", "asm": "00203325f66a3ff5001e891771cf483d0b04d0b6daaefc2bda7b7656d3fca4bc49a8"}, "vout": 1, "txid": "e30a502858d4913d6d3d3b32385e389350038ce35ad9eacf2f94222b0f99ec26"}], "txid": "72c5c9302e52758cc2434b6c5998317d0a7d7d73dc8d1f2aec167c48135e235e", "blocktime": 1537871175, "version": 1, "confirmations": 11511, "time": 1537871175, "locktime": 0, "vsize": 336, "size": 666}