{"hash": "72c5e558cceda42ef153e500fd32a27e38f31abd07ae2fdf7e032687a53da3a1", "blockhash": "0000000000000000000dcc0f55137456b1a82d3642486a52398922ac4d620174", "vout": [{"scriptPubKey": {"reqSigs": 1, "hex": "76a9149ba779ae4314206ca22ea8204d118446321e682588ac", "addresses": ["1FC2N87Vf9noNkNmuUyrQoAcjh2QCrLuKE"], "asm": "OP_DUP OP_HASH160 9ba779ae4314206ca22ea8204d118446321e6825 OP_EQUALVERIFY OP_CHECKSIG", "type": "pubkeyhash"}, "value": 0.1, "n": 0}, {"scriptPubKey": {"reqSigs": 1, "hex": "76a9141af9ca5a4a2fd03d2f3a48e0b0071935c1201c0288ac", "addresses": ["13TdojSFS8UDVYadc5w5wi8d9EjqsyvYhM"], "asm": "OP_DUP OP_HASH160 1af9ca5a4a2fd03d2f3a48e0b0071935c1201c02 OP_EQUALVERIFY OP_CHECKSIG", "type": "pubkeyhash"}, "value": 0.17697966, "n": 1}], "hex": "010000000165d4b97c289f93ef764720413a89fee34c2c99fc08471d90801e7159a4b696de010000006b483045022100d6d002183d2807be055a89d66a83d6e9150080c06e1ccb094a8c3c5ebe0dacc70220120509b4370d19bca8d6f4a5a139bab0d2f0d966b3ac3256b1274739ec462ed8012103825e3ab41bff9d17934c1bb3d731cddeafd6513167dad47812ff8cc4085d3b0fffffffff0280969800000000001976a9149ba779ae4314206ca22ea8204d118446321e682588acae0c0e01000000001976a9141af9ca5a4a2fd03d2f3a48e0b0071935c1201c0288ac00000000", "vin": [{"sequence": 4294967295, "scriptSig": {"hex": "483045022100d6d002183d2807be055a89d66a83d6e9150080c06e1ccb094a8c3c5ebe0dacc70220120509b4370d19bca8d6f4a5a139bab0d2f0d966b3ac3256b1274739ec462ed8012103825e3ab41bff9d17934c1bb3d731cddeafd6513167dad47812ff8cc4085d3b0f", "asm": "3045022100d6d002183d2807be055a89d66a83d6e9150080c06e1ccb094a8c3c5ebe0dacc70220120509b4370d19bca8d6f4a5a139bab0d2f0d966b3ac3256b1274739ec462ed8[ALL] 03825e3ab41bff9d17934c1bb3d731cddeafd6513167dad47812ff8cc4085d3b0f"}, "vout": 1, "txid": "de96b6a459711e80901d4708fc992c4ce3fe893a41204776ef939f287cb9d465"}], "txid": "72c5e558cceda42ef153e500fd32a27e38f31abd07ae2fdf7e032687a53da3a1", "blocktime": 1537870268, "version": 1, "confirmations": 11516, "time": 1537870268, "locktime": 0, "vsize": 226, "size": 226}