{"hash": "ee5e6a4dd143719ce886d87af267ca72ef6c552475fe038f61465ce2023d9200", "blockhash": "00000000000000000017f5eb5941039fbcee6240d03bc1f2f8e35350df66a1d8", "vout": [{"scriptPubKey": {"reqSigs": 1, "hex": "76a91411fda9a14f7325a06f06d5778bd7c37a9028838588ac", "addresses": ["12e8N3q5YdA8JdZHChyrwDguac9zp6dKqp"], "asm": "OP_DUP OP_HASH160 11fda9a14f7325a06f06d5778bd7c37a90288385 OP_EQUALVERIFY OP_CHECKSIG", "type": "pubkeyhash"}, "value": 0.0116546, "n": 0}, {"scriptPubKey": {"reqSigs": 1, "hex": "a914f581ae31a081a19fe39d351526d7779fe01d353387", "addresses": ["3Q58pu1LnjiBMTYdnQAGMqKfrYvaYahMnk"], "asm": "OP_HASH160 f581ae31a081a19fe39d351526d7779fe01d3533 OP_EQUAL", "type": "scripthash"}, "value": 0.01006483, "n": 1}], "hex": "020000000001020518dfb556d05d394c66a670ab02301747ec3e1f71f411e1d6f4af6b6e05966d0100000017160014694476004033f6ac6a8bf8e699fce1e2f3254820feffffff1da51f94dff5ed79dbffb9c6ea6a0a6fc4b78cfdf16f8150d9dd7047d149874600000000171600149947a2729b2b3c9cf65cba29c2bbeb9390a86e86feffffff0294c81100000000001976a91411fda9a14f7325a06f06d5778bd7c37a9028838588ac935b0f000000000017a914f581ae31a081a19fe39d351526d7779fe01d3533870247304402200fc73ba0575895a9460c8eb6e69111efb6db5e34b4340404a39983e326d17cb7022063703eac1f8cc610b20b20b9b2495250d86d3071b736b12e8d2db9e40423ca82012102536611c2e88818a6e444243c74842e02c0ba096f621e70488006a03ccfb0338602483045022100ad6ea872d958ec1632b40c579a03331709e5d5b2fbe0ae502c3fc99974f8742302203bda62ab7abceb1d183ac876d19dc8e5362a6e640a7d07b9a69c43fa8e819e700121037b6540e249787ea8a3d2b847abb2a960d1340cc5f3a1bbeb3668cbd96691220015490800", "vin": [{"txinwitness": ["304402200fc73ba0575895a9460c8eb6e69111efb6db5e34b4340404a39983e326d17cb7022063703eac1f8cc610b20b20b9b2495250d86d3071b736b12e8d2db9e40423ca8201", "02536611c2e88818a6e444243c74842e02c0ba096f621e70488006a03ccfb03386"], "sequence": 4294967294, "scriptSig": {"hex": "160014694476004033f6ac6a8bf8e699fce1e2f3254820", "asm": "0014694476004033f6ac6a8bf8e699fce1e2f3254820"}, "vout": 1, "txid": "6d96056e6baff4d6e111f4711f3eec47173002ab70a6664c395dd056b5df1805"}, {"txinwitness": ["3045022100ad6ea872d958ec1632b40c579a03331709e5d5b2fbe0ae502c3fc99974f8742302203bda62ab7abceb1d183ac876d19dc8e5362a6e640a7d07b9a69c43fa8e819e7001", "037b6540e249787ea8a3d2b847abb2a960d1340cc5f3a1bbeb3668cbd966912200"], "sequence": 4294967294, "scriptSig": {"hex": "1600149947a2729b2b3c9cf65cba29c2bbeb9390a86e86", "asm": "00149947a2729b2b3c9cf65cba29c2bbeb9390a86e86"}, "vout": 0, "txid": "468749d14770ddd950816ff1fd8cb7c46f0a6aeac6b9ffdb79edf5df941fa51d"}], "txid": "72c6d7d3e7aae85e07917fe6ed76343f05c5bbe8d7ea28343ff4d35ba5c08131", "blocktime": 1537874412, "version": 2, "confirmations": 11468, "time": 1537874412, "locktime": 542997, "vsize": 259, "size": 421}