{"hash": "72c6a15fb3fed4eb6e0a5319f68388fefa5b4101be5b15bb72316330f0100b97", "blockhash": "0000000000000000001e0dab787dd257d1dbfcb92a98c2207d5e1078be1f4165", "vout": [{"scriptPubKey": {"reqSigs": 1, "hex": "a9141e3aab047d6ea44d07021d0e365a1ceb668a2d6f87", "addresses": ["34SrUdDxXvWC4un8ZEA2QyeQCRCk3uJVNr"], "asm": "OP_HASH160 1e3aab047d6ea44d07021d0e365a1ceb668a2d6f OP_EQUAL", "type": "scripthash"}, "value": 0.019, "n": 0}, {"scriptPubKey": {"reqSigs": 1, "hex": "76a914b047f3132cd014182e8b1b9274ce9df555bcfe3d88ac", "addresses": ["1H567uJoHEzJ8ntPpD6WFYZq2NFUpHztyg"], "asm": "OP_DUP OP_HASH160 b047f3132cd014182e8b1b9274ce9df555bcfe3d OP_EQUALVERIFY OP_CHECKSIG", "type": "pubkeyhash"}, "value": 0.02912182, "n": 1}], "hex": "0100000001b4265401a5c47202cf9f1b1227f3983f07538b2af1a201c9e6e1fcf926173eb0010000006b483045022100a00f806be11945fb60718a3c2bfed5c72912285946dcddefdc174e9b6e32314702203070f8975e265935331858fa417604278928522bb51aea606261199edc824bcf0121026057a5ee7d9d82c4f73b2778a109e08fedec0ae8218d7875563b3de734a9cd79feffffff02e0fd1c000000000017a9141e3aab047d6ea44d07021d0e365a1ceb668a2d6f87b66f2c00000000001976a914b047f3132cd014182e8b1b9274ce9df555bcfe3d88ac12490800", "vin": [{"sequence": 4294967294, "scriptSig": {"hex": "483045022100a00f806be11945fb60718a3c2bfed5c72912285946dcddefdc174e9b6e32314702203070f8975e265935331858fa417604278928522bb51aea606261199edc824bcf0121026057a5ee7d9d82c4f73b2778a109e08fedec0ae8218d7875563b3de734a9cd79", "asm": "3045022100a00f806be11945fb60718a3c2bfed5c72912285946dcddefdc174e9b6e32314702203070f8975e265935331858fa417604278928522bb51aea606261199edc824bcf[ALL] 026057a5ee7d9d82c4f73b2778a109e08fedec0ae8218d7875563b3de734a9cd79"}, "vout": 1, "txid": "b03e1726f9fce1e6c901a2f12a8b53073f98f327121b9fcf0272c4a5015426b4"}], "txid": "72c6a15fb3fed4eb6e0a5319f68388fefa5b4101be5b15bb72316330f0100b97", "blocktime": 1537872475, "version": 1, "confirmations": 11487, "time": 1537872475, "locktime": 542994, "vsize": 224, "size": 224}