{"hash": "72c9259f57a610049ca1a6cce41123095c2e09bc85c5dcc0178f3d1da4f601d4", "blockhash": "0000000000000000000baef3f32e3676a92c3b2e5da21b426e4f302fc371ce76", "vout": [{"scriptPubKey": {"reqSigs": 1, "hex": "76a914891ad01b2a7f015310c1e4e821d6151da275ae1488ac", "addresses": ["1DVwhGwBtnEtjRWCTaMdtcTfZYoYGSDyAz"], "asm": "OP_DUP OP_HASH160 891ad01b2a7f015310c1e4e821d6151da275ae14 OP_EQUALVERIFY OP_CHECKSIG", "type": "pubkeyhash"}, "value": 0.00631859, "n": 0}, {"scriptPubKey": {"type": "nulldata", "hex": "6a4c50000078170001531c8e40a2822957b3f09510019d6ddc0f1b8ff117702940d64fa54d8eb2031b266e538dfbecd6ca0bb3b5322d665baa1c1b0615bbafbaed871f1d100759d4ba30d2c37bb011d97e02cf", "asm": "OP_RETURN 000078170001531c8e40a2822957b3f09510019d6ddc0f1b8ff117702940d64fa54d8eb2031b266e538dfbecd6ca0bb3b5322d665baa1c1b0615bbafbaed871f1d100759d4ba30d2c37bb011d97e02cf"}, "value": 0.0, "n": 1}], "hex": "010000000152344d1d22f883ee5d242ac90ddf36a1e55550968d802ee2476955c91173adbe000000006b4830450221009a089c02adb1643c174761b4351eb86c7d1c57d6a69f442a0342dbacb5b89f9b022023ca782af510d0e7ef730f677782113b54680557b6b89dd7022ab149db30085601210219149c66ecc642265803df168a8a6a2592dbab8a269b0eb5ee851cccb1c7ca1bffffffff0233a40900000000001976a914891ad01b2a7f015310c1e4e821d6151da275ae1488ac0000000000000000536a4c50000078170001531c8e40a2822957b3f09510019d6ddc0f1b8ff117702940d64fa54d8eb2031b266e538dfbecd6ca0bb3b5322d665baa1c1b0615bbafbaed871f1d100759d4ba30d2c37bb011d97e02cf00000000", "vin": [{"sequence": 4294967295, "scriptSig": {"hex": "4830450221009a089c02adb1643c174761b4351eb86c7d1c57d6a69f442a0342dbacb5b89f9b022023ca782af510d0e7ef730f677782113b54680557b6b89dd7022ab149db30085601210219149c66ecc642265803df168a8a6a2592dbab8a269b0eb5ee851cccb1c7ca1b", "asm": "30450221009a089c02adb1643c174761b4351eb86c7d1c57d6a69f442a0342dbacb5b89f9b022023ca782af510d0e7ef730f677782113b54680557b6b89dd7022ab149db300856[ALL] 0219149c66ecc642265803df168a8a6a2592dbab8a269b0eb5ee851cccb1c7ca1b"}, "vout": 0, "txid": "bead7311c9556947e22e808d965055e5a136df0dc92a245dee83f8221d4d3452"}], "txid": "72c9259f57a610049ca1a6cce41123095c2e09bc85c5dcc0178f3d1da4f601d4", "blocktime": 1537876114, "version": 1, "confirmations": 11462, "time": 1537876114, "locktime": 0, "vsize": 284, "size": 284}