{"hash": "72cea18d6ca5807eb9a8e9b6568d645b4131f34c610d9b774546e5791acaa5dc", "blockhash": "00000000000000000017f5eb5941039fbcee6240d03bc1f2f8e35350df66a1d8", "vout": [{"scriptPubKey": {"reqSigs": 1, "hex": "76a914ffc1239769144bc79b14aab18107e823099663e388ac", "addresses": ["1QKJgTCiVmyyF4JydHv5XeXNhmTTm5qpSM"], "asm": "OP_DUP OP_HASH160 ffc1239769144bc79b14aab18107e823099663e3 OP_EQUALVERIFY OP_CHECKSIG", "type": "pubkeyhash"}, "value": 0.00899966, "n": 0}, {"scriptPubKey": {"reqSigs": 1, "hex": "76a9144930040fc7065e684b27bc6673795fa4214e0c9f88ac", "addresses": ["17fyrCrocuvGcvju8w6UWxeHSY363midsJ"], "asm": "OP_DUP OP_HASH160 4930040fc7065e684b27bc6673795fa4214e0c9f OP_EQUALVERIFY OP_CHECKSIG", "type": "pubkeyhash"}, "value": 0.013226, "n": 1}], "hex": "010000000136a48b3077279085e04be46eacfc90410c1e30d854109122d21a9ba1d7930c151c0000006b483045022100968c856b77ee202ca3b24fde89882b335478a4ff5fc15afaa0492eb8d806d7d402207b55ea7d9d5f4427c49a2019598496bf69c2220c7793b53538955d0d16868304012103a2e0b7a869360f6e1d19712a59991df4787de1b9b819085e4f372f3810a5ff14fdffffff027ebb0d00000000001976a914ffc1239769144bc79b14aab18107e823099663e388ac682e1400000000001976a9144930040fc7065e684b27bc6673795fa4214e0c9f88ac15490800", "vin": [{"sequence": 4294967293, "scriptSig": {"hex": "483045022100968c856b77ee202ca3b24fde89882b335478a4ff5fc15afaa0492eb8d806d7d402207b55ea7d9d5f4427c49a2019598496bf69c2220c7793b53538955d0d16868304012103a2e0b7a869360f6e1d19712a59991df4787de1b9b819085e4f372f3810a5ff14", "asm": "3045022100968c856b77ee202ca3b24fde89882b335478a4ff5fc15afaa0492eb8d806d7d402207b55ea7d9d5f4427c49a2019598496bf69c2220c7793b53538955d0d16868304[ALL] 03a2e0b7a869360f6e1d19712a59991df4787de1b9b819085e4f372f3810a5ff14"}, "vout": 28, "txid": "150c93d7a19b1ad222911054d8301e0c4190fcac6ee44be085902777308ba436"}], "txid": "72cea18d6ca5807eb9a8e9b6568d645b4131f34c610d9b774546e5791acaa5dc", "blocktime": 1537874412, "version": 1, "confirmations": 11468, "time": 1537874412, "locktime": 542997, "vsize": 226, "size": 226}