{"hash": "51468c6ddaf2f28b0348b6cac34b5020c31e6c618dc3451638912bee75911ee8", "blockhash": "00000000000000000017f5eb5941039fbcee6240d03bc1f2f8e35350df66a1d8", "vout": [{"scriptPubKey": {"reqSigs": 1, "hex": "a9149179401d810aea1acd95d4bf29a891ba521331bd87", "addresses": ["3ExD9zGMEVTFHpsYwPKg4GMdNpS28f161f"], "asm": "OP_HASH160 9179401d810aea1acd95d4bf29a891ba521331bd OP_EQUAL", "type": "scripthash"}, "value": 0.006, "n": 0}, {"scriptPubKey": {"reqSigs": 1, "hex": "a914ea645e5e20987adfaa9d5fa4a915d008965f102387", "addresses": ["3P4NHAbib3uvj6QNYmPWqEJMZnx4HzszTp"], "asm": "OP_HASH160 ea645e5e20987adfaa9d5fa4a915d008965f1023 OP_EQUAL", "type": "scripthash"}, "value": 0.01597128, "n": 1}], "hex": "02000000000102a2f5a82fe9a8068cedf91c9b7bd09f14acf4087623b505e7fcf8065b9246daa70c000000171600141f79c4af93b0408dc64f43d748548a7a1d7d1191ffffffff8681b3719ddf5d12ea2a10688729bdaa7ca5feeb8ffb25a2e70caef2030d5d2404000000171600145cfe3d7eeb6bbc1efe48f40be1691bfd0a543990ffffffff02c02709000000000017a9149179401d810aea1acd95d4bf29a891ba521331bd87c85e18000000000017a914ea645e5e20987adfaa9d5fa4a915d008965f102387024730440220383d590c83b4093e19b2d15a375fe301be8cfa91327971c6b784737aa88bf1be022059b40c0649f7aab2d78b74898bf05d4513dc2b7d41f25928b00edb2f9ad077af012102e0e161c22ad941872bb453343189f9fd8f6e3eb2d2441e17cde16afef957911f024730440220509662531924d33a23e2599897700a0f6f5cdda5a08526e7222910151405e42902203a55d49cdd5ef036a7faef91ef227481f4cd712629475d8cdf4999841e55ae180121034a9e212a98779224a3a0e5d314fe923df55749ed6b705f2b3f3dbbbcfd5c8d7600000000", "vin": [{"txinwitness": ["30440220383d590c83b4093e19b2d15a375fe301be8cfa91327971c6b784737aa88bf1be022059b40c0649f7aab2d78b74898bf05d4513dc2b7d41f25928b00edb2f9ad077af01", "02e0e161c22ad941872bb453343189f9fd8f6e3eb2d2441e17cde16afef957911f"], "sequence": 4294967295, "scriptSig": {"hex": "1600141f79c4af93b0408dc64f43d748548a7a1d7d1191", "asm": "00141f79c4af93b0408dc64f43d748548a7a1d7d1191"}, "vout": 12, "txid": "a7da46925b06f8fce705b5237608f4ac149fd07b9b1cf9ed8c06a8e92fa8f5a2"}, {"txinwitness": ["30440220509662531924d33a23e2599897700a0f6f5cdda5a08526e7222910151405e42902203a55d49cdd5ef036a7faef91ef227481f4cd712629475d8cdf4999841e55ae1801", "034a9e212a98779224a3a0e5d314fe923df55749ed6b705f2b3f3dbbbcfd5c8d76"], "sequence": 4294967295, "scriptSig": {"hex": "1600145cfe3d7eeb6bbc1efe48f40be1691bfd0a543990", "asm": "00145cfe3d7eeb6bbc1efe48f40be1691bfd0a543990"}, "vout": 4, "txid": "245d0d03f2ae0ce7a225fb8febfea57caabd298768102aea125ddf9d71b38186"}], "txid": "72d00381e5622ddcc4081a9eedae27d03de3368403c633e3d43ba5a2981d4bd0", "blocktime": 1537874412, "version": 2, "confirmations": 11466, "time": 1537874412, "locktime": 0, "vsize": 256, "size": 418}