{"hash": "72d128b54971c9877cb6994dc7e1c8547f99c86599fa28ef480f374b83114df3", "blockhash": "00000000000000000024a2167bbff67b0be802c0b01cdd79e6331c2be6459f87", "vout": [{"scriptPubKey": {"reqSigs": 1, "hex": "a914fabd07b92a28c48e751a11302892c6dd6054e42d87", "addresses": ["3QYoJYiwLS7iBmnjVc64UmAnAJBwJs1tsT"], "asm": "OP_HASH160 fabd07b92a28c48e751a11302892c6dd6054e42d OP_EQUAL", "type": "scripthash"}, "value": 0.069373, "n": 0}, {"scriptPubKey": {"reqSigs": 1, "hex": "76a91487ad3c8a08f421f178e021038f3c06dd2c64e73688ac", "addresses": ["1DNPkaaDoNNW8P4FPJq4ePQJJ6BuZ2CYjg"], "asm": "OP_DUP OP_HASH160 87ad3c8a08f421f178e021038f3c06dd2c64e736 OP_EQUALVERIFY OP_CHECKSIG", "type": "pubkeyhash"}, "value": 0.46224721, "n": 1}], "hex": "0100000001795e4cef23ab8864f460b641d8987240f74b0adb523494b89454bfca412cbda4000000006a473044022078ec56bb737d06c77e8c38d845a777c2f3255815d578a5ea16473323ab86aad9022014bb6dcbbdae72b931931a0a5b5fb8109b887d6a646be83414b1fb0455a816b201210329c5a9478d47ab5e697d332dd2891540916da6a609b9447e42b771453be04ef7ffffffff02d4da69000000000017a914fabd07b92a28c48e751a11302892c6dd6054e42d875155c102000000001976a91487ad3c8a08f421f178e021038f3c06dd2c64e73688ac00000000", "vin": [{"sequence": 4294967295, "scriptSig": {"hex": "473044022078ec56bb737d06c77e8c38d845a777c2f3255815d578a5ea16473323ab86aad9022014bb6dcbbdae72b931931a0a5b5fb8109b887d6a646be83414b1fb0455a816b201210329c5a9478d47ab5e697d332dd2891540916da6a609b9447e42b771453be04ef7", "asm": "3044022078ec56bb737d06c77e8c38d845a777c2f3255815d578a5ea16473323ab86aad9022014bb6dcbbdae72b931931a0a5b5fb8109b887d6a646be83414b1fb0455a816b2[ALL] 0329c5a9478d47ab5e697d332dd2891540916da6a609b9447e42b771453be04ef7"}, "vout": 0, "txid": "a4bd2c41cabf5494b8943452db0a4bf7407298d841b660f46488ab23ef4c5e79"}], "txid": "72d128b54971c9877cb6994dc7e1c8547f99c86599fa28ef480f374b83114df3", "blocktime": 1537870564, "version": 1, "confirmations": 11515, "time": 1537870564, "locktime": 0, "vsize": 223, "size": 223}