{"hash": "72d55f3a215e439aa2986e620a65fcba2b8d157fc8bf1a198427c2203403022f", "blockhash": "00000000000000000018f53835495a110e01622372bf6ae95dc86f2b0ab887b0", "vout": [{"scriptPubKey": {"reqSigs": 1, "hex": "a91459a369a37285bad5ef73d82ad98add350b163a2787", "addresses": ["39rypj6iC72AonNjKz5V7qjARRLUvpMdq8"], "asm": "OP_HASH160 59a369a37285bad5ef73d82ad98add350b163a27 OP_EQUAL", "type": "scripthash"}, "value": 0.58217329, "n": 0}, {"scriptPubKey": {"reqSigs": 1, "hex": "76a9148cc1aeeae44ac62c76d7bfb7a9c10e632b0f023788ac", "addresses": ["1DqFdCwe1DGmyTYw7ccAJwSDpFNo6m7AYb"], "asm": "OP_DUP OP_HASH160 8cc1aeeae44ac62c76d7bfb7a9c10e632b0f0237 OP_EQUALVERIFY OP_CHECKSIG", "type": "pubkeyhash"}, "value": 0.01330307, "n": 1}], "hex": "02000000040cde924b5ffe1a58be63f3af17149db16d7383d97c19f943a54b1b35cad180e8000000006a47304402207fd91ae329e958c928d9194fe44480161818f8290b0c6dfa450a72819aa271dc022079122ab6b82e4f9555217821a6cc229204683a443f45fd75a7960aca7d04d25e0121020f203368c5049b935829edde51cecbf54a9f4ca9eb8c879f2c846dcbb34548f1feffffff76833c243b7ff754d5e4c592ef0f57afba42312d0fb40f0251e9158a57e64066000000006b483045022100e00fec171203d33acc244e31329e4ed8e831b167d366b1d608f1700bb02d1e4302200416aaeeb77c0ab911211890537de8a89666845907adac8ae52b51effc6d8748012103a579cd1f44fb74b83b6310fdd8af017efd7e300267c04e8d60e6deac0e4f0d05feffffffb5e74c222b4db701fd5d9e6dfa5f092c1ba239cc20f53c15eb10c3f30fac71dd000000006a47304402202eb743f10499615aca0ebd08929e40e49052b01a11da86e02aa86348676e59b802202a8a3ba68a19344824f1c462f87cdb9edde2b100a7fcba2120f5ce4ca63846ac01210349905a5bb45060b310c7e4db14c24a940855ad5bd65d4e64e1a9d8bb730a6380feffffffba21c9a9697aed8d54dcf26d44c71d4d5fc6dba89531f6331214bec3190f3a9a000000006a473044022047cfebf7884eca9c89e16eb5faf8149959edf0020942dd15e10bd01180759567022078564fd95c5136609f14ab88d75803766bf0a53dd8fc316c3c732fc9f40d0069012102e454c3b1fb9a06c6d843c1e57b322d0006c3618adafc2586deed81f385f752c9feffffff02715378030000000017a91459a369a37285bad5ef73d82ad98add350b163a2787834c1400000000001976a9148cc1aeeae44ac62c76d7bfb7a9c10e632b0f023788ac0e490800", "vin": [{"sequence": 4294967294, "scriptSig": {"hex": "47304402207fd91ae329e958c928d9194fe44480161818f8290b0c6dfa450a72819aa271dc022079122ab6b82e4f9555217821a6cc229204683a443f45fd75a7960aca7d04d25e0121020f203368c5049b935829edde51cecbf54a9f4ca9eb8c879f2c846dcbb34548f1", "asm": "304402207fd91ae329e958c928d9194fe44480161818f8290b0c6dfa450a72819aa271dc022079122ab6b82e4f9555217821a6cc229204683a443f45fd75a7960aca7d04d25e[ALL] 020f203368c5049b935829edde51cecbf54a9f4ca9eb8c879f2c846dcbb34548f1"}, "vout": 0, "txid": "e880d1ca351b4ba543f9197cd983736db19d1417aff363be581afe5f4b92de0c"}, {"sequence": 4294967294, "scriptSig": {"hex": "483045022100e00fec171203d33acc244e31329e4ed8e831b167d366b1d608f1700bb02d1e4302200416aaeeb77c0ab911211890537de8a89666845907adac8ae52b51effc6d8748012103a579cd1f44fb74b83b6310fdd8af017efd7e300267c04e8d60e6deac0e4f0d05", "asm": "3045022100e00fec171203d33acc244e31329e4ed8e831b167d366b1d608f1700bb02d1e4302200416aaeeb77c0ab911211890537de8a89666845907adac8ae52b51effc6d8748[ALL] 03a579cd1f44fb74b83b6310fdd8af017efd7e300267c04e8d60e6deac0e4f0d05"}, "vout": 0, "txid": "6640e6578a15e951020fb40f2d3142baaf570fef92c5e4d554f77f3b243c8376"}, {"sequence": 4294967294, "scriptSig": {"hex": "47304402202eb743f10499615aca0ebd08929e40e49052b01a11da86e02aa86348676e59b802202a8a3ba68a19344824f1c462f87cdb9edde2b100a7fcba2120f5ce4ca63846ac01210349905a5bb45060b310c7e4db14c24a940855ad5bd65d4e64e1a9d8bb730a6380", "asm": "304402202eb743f10499615aca0ebd08929e40e49052b01a11da86e02aa86348676e59b802202a8a3ba68a19344824f1c462f87cdb9edde2b100a7fcba2120f5ce4ca63846ac[ALL] 0349905a5bb45060b310c7e4db14c24a940855ad5bd65d4e64e1a9d8bb730a6380"}, "vout": 0, "txid": "dd71ac0ff3c310eb153cf520cc39a21b2c095ffa6d9e5dfd01b74d2b224ce7b5"}, {"sequence": 4294967294, "scriptSig": {"hex": "473044022047cfebf7884eca9c89e16eb5faf8149959edf0020942dd15e10bd01180759567022078564fd95c5136609f14ab88d75803766bf0a53dd8fc316c3c732fc9f40d0069012102e454c3b1fb9a06c6d843c1e57b322d0006c3618adafc2586deed81f385f752c9", "asm": "3044022047cfebf7884eca9c89e16eb5faf8149959edf0020942dd15e10bd01180759567022078564fd95c5136609f14ab88d75803766bf0a53dd8fc316c3c732fc9f40d0069[ALL] 02e454c3b1fb9a06c6d843c1e57b322d0006c3618adafc2586deed81f385f752c9"}, "vout": 0, "txid": "9a3a0f19c3be141233f63195a8dbc65f4d1dc7446df2dc548ded7a69a9c921ba"}], "txid": "72d55f3a215e439aa2986e620a65fcba2b8d157fc8bf1a198427c2203403022f", "blocktime": 1537870928, "version": 2, "confirmations": 11512, "time": 1537870928, "locktime": 542990, "vsize": 665, "size": 665}