{"hash": "72dcb8c0dc0be193b637975a275f467c0ed28a8a4652f3d4c4d2c70eb7821d0e", "blockhash": "00000000000000000017f5eb5941039fbcee6240d03bc1f2f8e35350df66a1d8", "vout": [{"scriptPubKey": {"reqSigs": 1, "hex": "76a9147e9250381b182ee6df342a3abf114eaee9274bc388ac", "addresses": ["1CYFRCecqoQyPUcg2fYSR14jQAZDJHYAeM"], "asm": "OP_DUP OP_HASH160 7e9250381b182ee6df342a3abf114eaee9274bc3 OP_EQUALVERIFY OP_CHECKSIG", "type": "pubkeyhash"}, "value": 0.05306617, "n": 0}], "hex": "0100000001596a116a58ab3d7e53a197e3ef10a7475c4be41084ca4bc9c78b6c9aaffdca1b000000006b483045022100e92befc3dde35cff5a4b9448ca622f8e6e7ec699f65509038590be58c616134e02205839100a01d564cfd220cdea4d2d99fdc0ea86622cb0dfc170716f0a985f05a00121030f3be544ead59e877f51a01f4c492fd7f5208a282cf59b01a2be8145191032dfffffffff01f9f85000000000001976a9147e9250381b182ee6df342a3abf114eaee9274bc388ac00000000", "vin": [{"sequence": 4294967295, "scriptSig": {"hex": "483045022100e92befc3dde35cff5a4b9448ca622f8e6e7ec699f65509038590be58c616134e02205839100a01d564cfd220cdea4d2d99fdc0ea86622cb0dfc170716f0a985f05a00121030f3be544ead59e877f51a01f4c492fd7f5208a282cf59b01a2be8145191032df", "asm": "3045022100e92befc3dde35cff5a4b9448ca622f8e6e7ec699f65509038590be58c616134e02205839100a01d564cfd220cdea4d2d99fdc0ea86622cb0dfc170716f0a985f05a0[ALL] 030f3be544ead59e877f51a01f4c492fd7f5208a282cf59b01a2be8145191032df"}, "vout": 0, "txid": "1bcafdaf9a6c8bc7c94bca8410e44b5c47a710efe397a1537e3dab586a116a59"}], "txid": "72dcb8c0dc0be193b637975a275f467c0ed28a8a4652f3d4c4d2c70eb7821d0e", "blocktime": 1537874412, "version": 1, "confirmations": 11467, "time": 1537874412, "locktime": 0, "vsize": 192, "size": 192}