{"hash": "72e08cb3f3c9b44ee59af72f773a49c26486d66da9dfd760486cb4b15905fdcd", "blockhash": "0000000000000000001f76057863aec43deb6fa401d9628bb513d65a8098bfab", "vout": [{"scriptPubKey": {"reqSigs": 1, "hex": "76a91464ac7904caec926d3aa4c16bd382a8672f0bf74b88ac", "addresses": ["1ABKBoJhpvQSXfkBgE76sxha2U4wU8x5JV"], "asm": "OP_DUP OP_HASH160 64ac7904caec926d3aa4c16bd382a8672f0bf74b OP_EQUALVERIFY OP_CHECKSIG", "type": "pubkeyhash"}, "value": 0.0002029, "n": 0}, {"scriptPubKey": {"reqSigs": 1, "hex": "76a9142aeff2f9db78c4d7f93f74e071f5a230c02d6a8988ac", "addresses": ["14v2q1qKQYsMEDaugGoZaYDM4yvaUXFtHN"], "asm": "OP_DUP OP_HASH160 2aeff2f9db78c4d7f93f74e071f5a230c02d6a89 OP_EQUALVERIFY OP_CHECKSIG", "type": "pubkeyhash"}, "value": 0.21930186, "n": 1}], "hex": "02000000011576e1d4b5e2150162882a9dbd687120e2995ae2b7a46492b9f57fd68505ff53010000006a473044022003d249c3cb9877f426d72cab49dca48333da4f0ebdcc26b22df7dc4e3213916a02205f630f695f1d73760c187cb76f5216a2964c4fc2b6df8012e71bf2fe0e29b081012102ed592c9ef2866ac2d46d10dc4f63592e863ac6e0b9b8001af504550cf5fe27f8ffffffff02424f0000000000001976a91464ac7904caec926d3aa4c16bd382a8672f0bf74b88accaa04e01000000001976a9142aeff2f9db78c4d7f93f74e071f5a230c02d6a8988ac00000000", "vin": [{"sequence": 4294967295, "scriptSig": {"hex": "473044022003d249c3cb9877f426d72cab49dca48333da4f0ebdcc26b22df7dc4e3213916a02205f630f695f1d73760c187cb76f5216a2964c4fc2b6df8012e71bf2fe0e29b081012102ed592c9ef2866ac2d46d10dc4f63592e863ac6e0b9b8001af504550cf5fe27f8", "asm": "3044022003d249c3cb9877f426d72cab49dca48333da4f0ebdcc26b22df7dc4e3213916a02205f630f695f1d73760c187cb76f5216a2964c4fc2b6df8012e71bf2fe0e29b081[ALL] 02ed592c9ef2866ac2d46d10dc4f63592e863ac6e0b9b8001af504550cf5fe27f8"}, "vout": 1, "txid": "53ff0585d67ff5b99264a4b7e25a99e2207168bd9d2a88620115e2b5d4e17615"}], "txid": "72e08cb3f3c9b44ee59af72f773a49c26486d66da9dfd760486cb4b15905fdcd", "blocktime": 1537873891, "version": 2, "confirmations": 11478, "time": 1537873891, "locktime": 0, "vsize": 225, "size": 225}