{"hash": "72e4a87f2058cc01988e60bf34f68c6a18ba5aae676b575c32ac0c9e717fa426", "blockhash": "00000000000000000017f5eb5941039fbcee6240d03bc1f2f8e35350df66a1d8", "vout": [{"scriptPubKey": {"reqSigs": 1, "hex": "a914f7a9abfb08240ba0ca05b27b93d1313cde39378b87", "addresses": ["3QGY5vqv3fAjs21xhzNEJHHYpsP1u7X4fp"], "asm": "OP_HASH160 f7a9abfb08240ba0ca05b27b93d1313cde39378b OP_EQUAL", "type": "scripthash"}, "value": 0.003458, "n": 0}, {"scriptPubKey": {"reqSigs": 1, "hex": "a914359613b351c383a190eca6dcadecc417595209ef87", "addresses": ["36aMXEty6RgE8Hqrnd2aDi5CxD1seK2Gsz"], "asm": "OP_HASH160 359613b351c383a190eca6dcadecc417595209ef OP_EQUAL", "type": "scripthash"}, "value": 0.0196591, "n": 1}], "hex": "01000000018d62c10578a0583501f5f679fa85b34ebf08788f9594c62ec558c5b77746921b01000000db00483045022100cb980fc740065e32440cfa8f435df0df1e4df9e27a668b221a7bf9a94f144d2502200f4c6bc8405050da3bd19ebd7fa14350ae8ce57b844c4aa192a33436553571ec01483045022100d6f983ef0f6ce448d4d78e36826683e17029b626400593964f6e882eadf3249d02202cc031170f0b8abe739565fe9ed6d6217d2eaa6f367d14c0624939bb6a34077e014752210296a95ef32d7485e523d928352d06e5145c00e933bf5a5aec4e5cdc8230b5b0a12103dd06b0f67ee8589bebcd5b1948003107c973f403efede6127ed16fbcd44fff1d52aeffffffff02c84605000000000017a914f7a9abfb08240ba0ca05b27b93d1313cde39378b8756ff1d000000000017a914359613b351c383a190eca6dcadecc417595209ef8700000000", "vin": [{"sequence": 4294967295, "scriptSig": {"hex": "00483045022100cb980fc740065e32440cfa8f435df0df1e4df9e27a668b221a7bf9a94f144d2502200f4c6bc8405050da3bd19ebd7fa14350ae8ce57b844c4aa192a33436553571ec01483045022100d6f983ef0f6ce448d4d78e36826683e17029b626400593964f6e882eadf3249d02202cc031170f0b8abe739565fe9ed6d6217d2eaa6f367d14c0624939bb6a34077e014752210296a95ef32d7485e523d928352d06e5145c00e933bf5a5aec4e5cdc8230b5b0a12103dd06b0f67ee8589bebcd5b1948003107c973f403efede6127ed16fbcd44fff1d52ae", "asm": "0 3045022100cb980fc740065e32440cfa8f435df0df1e4df9e27a668b221a7bf9a94f144d2502200f4c6bc8405050da3bd19ebd7fa14350ae8ce57b844c4aa192a33436553571ec[ALL] 3045022100d6f983ef0f6ce448d4d78e36826683e17029b626400593964f6e882eadf3249d02202cc031170f0b8abe739565fe9ed6d6217d2eaa6f367d14c0624939bb6a34077e[ALL] 52210296a95ef32d7485e523d928352d06e5145c00e933bf5a5aec4e5cdc8230b5b0a12103dd06b0f67ee8589bebcd5b1948003107c973f403efede6127ed16fbcd44fff1d52ae"}, "vout": 1, "txid": "1b924677b7c558c52ec694958f7808bf4eb385fa79f6f5013558a07805c1628d"}], "txid": "72e4a87f2058cc01988e60bf34f68c6a18ba5aae676b575c32ac0c9e717fa426", "blocktime": 1537874412, "version": 1, "confirmations": 11468, "time": 1537874412, "locktime": 0, "vsize": 334, "size": 334}