{"hash": "3b51c08b5c821c0a4debc3190c11adc73d68486c8bba850826cd3cc40a713dac", "blockhash": "00000000000000000004ffacab907a6b429b9a5745fa0b75af4234bf69dd7176", "vout": [{"scriptPubKey": {"reqSigs": 1, "hex": "a914a7f3070cc2aa99bc87bac05998a43694fc88c5da87", "addresses": ["3H13uRprUWE65EgydcTMAw223sojzg5ggd"], "asm": "OP_HASH160 a7f3070cc2aa99bc87bac05998a43694fc88c5da OP_EQUAL", "type": "scripthash"}, "value": 0.069002, "n": 0}, {"scriptPubKey": {"reqSigs": 1, "hex": "a9144d293bcdc8b44f39bc0c92eb41ca5b5ef1480d4687", "addresses": ["38j1MGxv8M2EzE5QVWzavCTicpwByECqCv"], "asm": "OP_HASH160 4d293bcdc8b44f39bc0c92eb41ca5b5ef1480d46 OP_EQUAL", "type": "scripthash"}, "value": 8.93865288, "n": 1}], "hex": "02000000000101129f46b2bfd4d3ad721e869270c7a8182f79bf917879264ed05095ac5ed4f5f201000000171600143ff816c3a02e013cd7ea4b2c204674768da8a76dffffffff02e84969000000000017a914a7f3070cc2aa99bc87bac05998a43694fc88c5da87484d47350000000017a9144d293bcdc8b44f39bc0c92eb41ca5b5ef1480d468702483045022100fb6dc7706823723e122cb30a3943f57921f9cb1b7c5896f3812a7faa6605f97c02204b2302ca46ba2d2910b7110580dafd8106f3eeb71e8c99c18a7d9f17f81fb64c01210306f6e5c3dfeb94059c2c436c189768eff8f584c499fad5bb8e2f7ab65449bdeb00000000", "vin": [{"txinwitness": ["3045022100fb6dc7706823723e122cb30a3943f57921f9cb1b7c5896f3812a7faa6605f97c02204b2302ca46ba2d2910b7110580dafd8106f3eeb71e8c99c18a7d9f17f81fb64c01", "0306f6e5c3dfeb94059c2c436c189768eff8f584c499fad5bb8e2f7ab65449bdeb"], "sequence": 4294967295, "scriptSig": {"hex": "1600143ff816c3a02e013cd7ea4b2c204674768da8a76d", "asm": "00143ff816c3a02e013cd7ea4b2c204674768da8a76d"}, "vout": 1, "txid": "f2f5d45eac9550d04e26797891bf792f18a8c77092861e72add3d4bfb2469f12"}], "txid": "72e50b5a26917fcef019d5d93af9e0aab7e6fbc9f956f335bf615978d57db9dc", "blocktime": 1537875543, "version": 2, "confirmations": 11464, "time": 1537875543, "locktime": 0, "vsize": 166, "size": 248}