{"hash": "dcd312a989be7acf491a180120b6d894d0753d65a95d58fb5c48d3f2053f193c", "blockhash": "0000000000000000000e13cef7c366c0283d82e591d1acd082e914b08063cdf1", "vout": [{"scriptPubKey": {"reqSigs": 1, "hex": "76a9147aaa01dc80137669f94c1164d6b3443e29ecf42588ac", "addresses": ["1CBb6iWBZDtdhaiMgzupWYvxqD8rkrWjJX"], "asm": "OP_DUP OP_HASH160 7aaa01dc80137669f94c1164d6b3443e29ecf425 OP_EQUALVERIFY OP_CHECKSIG", "type": "pubkeyhash"}, "value": 1.0084, "n": 0}, {"scriptPubKey": {"reqSigs": 1, "hex": "0020701a8d401c84fb13e6baf169d59684e17abd9fa216c8cc5b9fc63d622ff8c58d", "addresses": ["bc1qwqdg6squsna38e46795at95yu9atm8azzmyvckulcc7kytlcckxswvvzej"], "asm": "0 701a8d401c84fb13e6baf169d59684e17abd9fa216c8cc5b9fc63d622ff8c58d", "type": "witness_v0_scripthash"}, "value": 0.14324335, "n": 1}], "hex": "01000000000101060e4820e3528b440acb0ddeb67db962b11704193ea1c096dfccf93c8b97fafd0100000000ffffffff0240b20206000000001976a9147aaa01dc80137669f94c1164d6b3443e29ecf42588ac6f92da0000000000220020701a8d401c84fb13e6baf169d59684e17abd9fa216c8cc5b9fc63d622ff8c58d0400483045022100abbeaf73b183e423c5ef424dce703205de6bd82e0fd45cb4ccd1d1fa0dc8b0ec02200331b7fbf2e7b197b2973d5c6bd39d2be47280a9a2f68839b617b064e55dfcd701463043021f01a2cf3bf895e1727fce946abc01f9bf15c32bf2f81549413a86f217b8435702203d8e75d5dba1d6b848490459522cc6c1390f75be9ae758985561ae508c7bcb84016952210375e00eb72e29da82b89367947f29ef34afb75e8654f6ea368e0acdfd92976b7c2103a1b26313f430c4b15bb1fdce663207659d8cac749a0e53d70eff01874496feff2103c96d495bfdd5ba4145e3e046fee45e84a8a48ad05bd8dbb395c011a32cf9f88053ae00000000", "vin": [{"txinwitness": ["", "3045022100abbeaf73b183e423c5ef424dce703205de6bd82e0fd45cb4ccd1d1fa0dc8b0ec02200331b7fbf2e7b197b2973d5c6bd39d2be47280a9a2f68839b617b064e55dfcd701", "3043021f01a2cf3bf895e1727fce946abc01f9bf15c32bf2f81549413a86f217b8435702203d8e75d5dba1d6b848490459522cc6c1390f75be9ae758985561ae508c7bcb8401", "52210375e00eb72e29da82b89367947f29ef34afb75e8654f6ea368e0acdfd92976b7c2103a1b26313f430c4b15bb1fdce663207659d8cac749a0e53d70eff01874496feff2103c96d495bfdd5ba4145e3e046fee45e84a8a48ad05bd8dbb395c011a32cf9f88053ae"], "sequence": 4294967295, "scriptSig": {"hex": "", "asm": ""}, "vout": 1, "txid": "fdfa978b3cf9ccdf96c0a13e190417b162b97db6de0dcb0a448b52e320480e06"}], "txid": "72e5bb3a9ec036b057419548378ef4a68ad13c8843b67dc25581a782057ca55c", "blocktime": 1537871767, "version": 1, "confirmations": 11490, "time": 1537871767, "locktime": 0, "vsize": 192, "size": 382}