{"hash": "df6e77bec75dc46d7ce8bba34c5d4cb153b9d93fccd5b96f9c8edbb9bd0152b2", "blockhash": "0000000000000000000baef3f32e3676a92c3b2e5da21b426e4f302fc371ce76", "vout": [{"scriptPubKey": {"reqSigs": 1, "hex": "76a914cdbfe7e68b4aafeb289bb763698525afad6893e588ac", "addresses": ["1KkuRBLex1kQCitLGFa2bvnnfaVuoFrAxA"], "asm": "OP_DUP OP_HASH160 cdbfe7e68b4aafeb289bb763698525afad6893e5 OP_EQUALVERIFY OP_CHECKSIG", "type": "pubkeyhash"}, "value": 0.015, "n": 0}, {"scriptPubKey": {"reqSigs": 1, "hex": "a9140de60ed9d29ef7c8f20579fc970c7657ae4d3f0a87", "addresses": ["32xWJkMsHfmQ42yFJYDiXFS17C9RenqRoJ"], "asm": "OP_HASH160 0de60ed9d29ef7c8f20579fc970c7657ae4d3f0a OP_EQUAL", "type": "scripthash"}, "value": 0.04688529, "n": 1}], "hex": "01000000000101400359cee6b9d5a3be63651686099aec66dabf2d14018313e4730ba2e82ce5f60100000023220020d98f34b1e89c21024bec93b198e50e167e3383dc0bb71ba6f36707f6ab0f35f9ffffffff0260e31600000000001976a914cdbfe7e68b4aafeb289bb763698525afad6893e588ac918a47000000000017a9140de60ed9d29ef7c8f20579fc970c7657ae4d3f0a87040047304402205b928198eaa8c9d747fc3a7105262fc8e4a9b26c9089b24eecd78f23123d211202202a67c7dfcdcf8f9461622445688bbc29cf9429834e42f5ba0d6ab57698ed346a01473044022018a9327f513c3e88fc83c2cf1c5aeb62a1d7a77bbd8f4ee20fc496e02b04230102202b1d9e237c7f53944fbf5877dea94b14e7f339294b76f0db4432f6c358961abe0147522102dc23be3a45982c708852a35de0d2826583bc72c45d52fa4356a49d4d6283330421038f2c7ecee34c843be9d886e50ce79e5dc40a1694c0417d60b35340f292ff73fc52ae00000000", "vin": [{"txinwitness": ["", "304402205b928198eaa8c9d747fc3a7105262fc8e4a9b26c9089b24eecd78f23123d211202202a67c7dfcdcf8f9461622445688bbc29cf9429834e42f5ba0d6ab57698ed346a01", "3044022018a9327f513c3e88fc83c2cf1c5aeb62a1d7a77bbd8f4ee20fc496e02b04230102202b1d9e237c7f53944fbf5877dea94b14e7f339294b76f0db4432f6c358961abe01", "522102dc23be3a45982c708852a35de0d2826583bc72c45d52fa4356a49d4d6283330421038f2c7ecee34c843be9d886e50ce79e5dc40a1694c0417d60b35340f292ff73fc52ae"], "sequence": 4294967295, "scriptSig": {"hex": "220020d98f34b1e89c21024bec93b198e50e167e3383dc0bb71ba6f36707f6ab0f35f9", "asm": "0020d98f34b1e89c21024bec93b198e50e167e3383dc0bb71ba6f36707f6ab0f35f9"}, "vout": 1, "txid": "f6e52ce8a20b73e4138301142dbfda66ec9a0986166563bea3d5b9e6ce590340"}], "txid": "72e6141ce3ece5fdfa578c53018b2fe9a3039f0c9477d0f387517de924dd0a93", "blocktime": 1537876114, "version": 1, "confirmations": 11460, "time": 1537876114, "locktime": 0, "vsize": 207, "size": 372}