{"hash": "b1f4fe4cb5a43f411dd6f818e3343c8734ea46cbcfec098a71cb6d81e7865b58", "blockhash": "0000000000000000001e0dab787dd257d1dbfcb92a98c2207d5e1078be1f4165", "vout": [{"scriptPubKey": {"reqSigs": 1, "hex": "a9141988a27e3c2df4ddee7fad5a2303d086179b2a3087", "addresses": ["3422VtS7UtCvXYxoXMVp6eZupR252z85oC"], "asm": "OP_HASH160 1988a27e3c2df4ddee7fad5a2303d086179b2a30 OP_EQUAL", "type": "scripthash"}, "value": 0.33643252, "n": 0}, {"scriptPubKey": {"reqSigs": 1, "hex": "76a914723cf38caeca68335b9246b0ef228dbdd08d10ed88ac", "addresses": ["1BR33qwUaH9KC3uLDtinxJiYkwRf2SpPB5"], "asm": "OP_DUP OP_HASH160 723cf38caeca68335b9246b0ef228dbdd08d10ed OP_EQUALVERIFY OP_CHECKSIG", "type": "pubkeyhash"}, "value": 0.00187639, "n": 1}], "hex": "01000000000101e3f02c0b6c10ae41f0517f94a672fcbda94c0c465a21e0f667ef00d2eae91bc3030000002322002065d416c48a8072e0ac51c2d111eb194f009caef0332446c1bf2097316cf07fa9ffffffff02f45a01020000000017a9141988a27e3c2df4ddee7fad5a2303d086179b2a3087f7dc0200000000001976a914723cf38caeca68335b9246b0ef228dbdd08d10ed88ac0400473044022003b1f464aaa7c8ba7cb77c0fe8a2ba2232af444ce300fc3f9140e215a2be7210022007798dfea182277514a46a2d3cd5b4e197aa6b31610fc484173671895374d2d001483045022100dc1203a2ce5f06a915f5185ce0cd5232f2657bae611e6a646184fd9056173569022000f22492f38ddfdcea4fb15bdab3cfd1f0fda9c3adc5bc33c87bd817be40520e0169522102f44abcf9e23c9a460da309ccca56c619c04eed3bde2c2cff5e7d78fbcd980b9c2103c9443cf3047bb6c2c82f1b0c44c36109cdc3d0d601d16d1189a1602bf8d1a0a02103bfe867059274412412e088af5572b92168c2ef495cfe6c9b7a753a009eb37c4853ae00000000", "vin": [{"txinwitness": ["", "3044022003b1f464aaa7c8ba7cb77c0fe8a2ba2232af444ce300fc3f9140e215a2be7210022007798dfea182277514a46a2d3cd5b4e197aa6b31610fc484173671895374d2d001", "3045022100dc1203a2ce5f06a915f5185ce0cd5232f2657bae611e6a646184fd9056173569022000f22492f38ddfdcea4fb15bdab3cfd1f0fda9c3adc5bc33c87bd817be40520e01", "522102f44abcf9e23c9a460da309ccca56c619c04eed3bde2c2cff5e7d78fbcd980b9c2103c9443cf3047bb6c2c82f1b0c44c36109cdc3d0d601d16d1189a1602bf8d1a0a02103bfe867059274412412e088af5572b92168c2ef495cfe6c9b7a753a009eb37c4853ae"], "sequence": 4294967295, "scriptSig": {"hex": "22002065d416c48a8072e0ac51c2d111eb194f009caef0332446c1bf2097316cf07fa9", "asm": "002065d416c48a8072e0ac51c2d111eb194f009caef0332446c1bf2097316cf07fa9"}, "vout": 3, "txid": "c31be9ead200ef67f6e0215a460c4ca9bdfc72a6947f51f041ae106c0b2cf0e3"}], "txid": "72e96dc5ffd1a8a40c6aefc3d87eb634361fabeccfdab3ac59b32cbb5d5f6b43", "blocktime": 1537872475, "version": 1, "confirmations": 11486, "time": 1537872475, "locktime": 0, "vsize": 216, "size": 407}