{"hash": "8a964c2d932c47c71a5f105a96c9f2badccc21885bfc340f8be65fa8679f36fc", "blockhash": "0000000000000000000dcc0f55137456b1a82d3642486a52398922ac4d620174", "vout": [{"scriptPubKey": {"reqSigs": 1, "hex": "76a914cf6d31d962ddf7896b1bdda3cf14112ffa16cda088ac", "addresses": ["1Kumgh6U7xzKTL2M1FnwUesbLo5jrjC8L9"], "asm": "OP_DUP OP_HASH160 cf6d31d962ddf7896b1bdda3cf14112ffa16cda0 OP_EQUALVERIFY OP_CHECKSIG", "type": "pubkeyhash"}, "value": 0.00339105, "n": 0}, {"scriptPubKey": {"reqSigs": 1, "hex": "a914bddce1db77593a7ac8d67f0d488c4311d5103ffa87", "addresses": ["3JzvEy64J63pDv7KjyKsVzupMgKcwdgQU4"], "asm": "OP_HASH160 bddce1db77593a7ac8d67f0d488c4311d5103ffa OP_EQUAL", "type": "scripthash"}, "value": 1.50388743, "n": 1}], "hex": "02000000000101d4ef5546779004cb3ea59650defc770a81b5829eef146536541ff896c787370f0200000017160014394c1d55120fea8442873d75d93263e22518f914ffffffff02a12c0500000000001976a914cf6d31d962ddf7896b1bdda3cf14112ffa16cda088ac07c0f6080000000017a914bddce1db77593a7ac8d67f0d488c4311d5103ffa87024830450221008280f9e88e561f0e69d0c03b16bf9345ccde587a04fdb7ab74f9a131e863cd4f02207980f09938179ab0c639f79a07b79eb435fa5bf126ff6f6921b795ac4508c613012103e196163b6d30d0fef27eff5bae2754a7ccba75d466b78c87116b6535bacce31b00000000", "vin": [{"txinwitness": ["30450221008280f9e88e561f0e69d0c03b16bf9345ccde587a04fdb7ab74f9a131e863cd4f02207980f09938179ab0c639f79a07b79eb435fa5bf126ff6f6921b795ac4508c61301", "03e196163b6d30d0fef27eff5bae2754a7ccba75d466b78c87116b6535bacce31b"], "sequence": 4294967295, "scriptSig": {"hex": "160014394c1d55120fea8442873d75d93263e22518f914", "asm": "0014394c1d55120fea8442873d75d93263e22518f914"}, "vout": 2, "txid": "0f3787c796f81f54366514ef9e82b5810a77fcde5096a53ecb0490774655efd4"}], "txid": "72fc82d1f3dfbb942b0ad27f4e73da1d92c2c44b3419ba67c33c1c2c5a81487d", "blocktime": 1537870268, "version": 2, "confirmations": 11516, "time": 1537870268, "locktime": 0, "vsize": 168, "size": 250}