{"hash": "7300b30d16475c2569e9c127aa188e37b9ce0f8d989e1bc2c596a6e5660b1e96", "blockhash": "0000000000000000001e0dab787dd257d1dbfcb92a98c2207d5e1078be1f4165", "vout": [{"scriptPubKey": {"type": "nulldata", "hex": "6a4c50000077b00001f2289f724a7e0bbbfb737760af6c953dd567cf27e7e3ef3236678a6250979402b35ca0835fc3b2e4fcfe24b3cddc5baa11790611b99a0107d7ecbc9a9526289ac0f6612cd74e33776ee4", "asm": "OP_RETURN 000077b00001f2289f724a7e0bbbfb737760af6c953dd567cf27e7e3ef3236678a6250979402b35ca0835fc3b2e4fcfe24b3cddc5baa11790611b99a0107d7ecbc9a9526289ac0f6612cd74e33776ee4"}, "value": 0.0, "n": 0}, {"scriptPubKey": {"reqSigs": 1, "hex": "76a9140463491d58f84f04ded91af1fd8553f81ba7641788ac", "addresses": ["1QCeFcq7Z8UwKrWP2AZTAEmPeL3s2HtBn"], "asm": "OP_DUP OP_HASH160 0463491d58f84f04ded91af1fd8553f81ba76417 OP_EQUALVERIFY OP_CHECKSIG", "type": "pubkeyhash"}, "value": 0.01403164, "n": 1}], "hex": "01000000011345441539dcf7643faf8ce056d20ea984cb28fdb8390cf3c705d9747a44ba01010000006a47304402200fb052ac93fc8034b23aa31d3cb283c7d8e850fb64b8be6a70a821c39e2461e8022028163cc673442b08bfa3b996724717af47a7d918ff13dd9aa9ee5aa242cd23d90121025bb812cc54fcb4959db3a1d38b0c9629722fb0d01594737bbfe38cc86995f197ffffffff020000000000000000536a4c50000077b00001f2289f724a7e0bbbfb737760af6c953dd567cf27e7e3ef3236678a6250979402b35ca0835fc3b2e4fcfe24b3cddc5baa11790611b99a0107d7ecbc9a9526289ac0f6612cd74e33776ee41c691500000000001976a9140463491d58f84f04ded91af1fd8553f81ba7641788ac00000000", "vin": [{"sequence": 4294967295, "scriptSig": {"hex": "47304402200fb052ac93fc8034b23aa31d3cb283c7d8e850fb64b8be6a70a821c39e2461e8022028163cc673442b08bfa3b996724717af47a7d918ff13dd9aa9ee5aa242cd23d90121025bb812cc54fcb4959db3a1d38b0c9629722fb0d01594737bbfe38cc86995f197", "asm": "304402200fb052ac93fc8034b23aa31d3cb283c7d8e850fb64b8be6a70a821c39e2461e8022028163cc673442b08bfa3b996724717af47a7d918ff13dd9aa9ee5aa242cd23d9[ALL] 025bb812cc54fcb4959db3a1d38b0c9629722fb0d01594737bbfe38cc86995f197"}, "vout": 1, "txid": "01ba447a74d905c7f30c39b8fd28cb84a90ed256e08caf3f64f7dc3915444513"}], "txid": "7300b30d16475c2569e9c127aa188e37b9ce0f8d989e1bc2c596a6e5660b1e96", "blocktime": 1537872475, "version": 1, "confirmations": 11486, "time": 1537872475, "locktime": 0, "vsize": 283, "size": 283}