{"hash": "7303bb72b5e65cbb5f5aed95e0ec246a25b2fee8f55a0634a9c09ddc7f1d20a9", "blockhash": "00000000000000000004ffacab907a6b429b9a5745fa0b75af4234bf69dd7176", "vout": [{"scriptPubKey": {"reqSigs": 1, "hex": "76a914d243e6abb9a60fbff430b421d2df4b7d59ec186088ac", "addresses": ["1LAnF8h3qMGx3TSwNUHVneBZUEpwE4gu3D"], "asm": "OP_DUP OP_HASH160 d243e6abb9a60fbff430b421d2df4b7d59ec1860 OP_EQUALVERIFY OP_CHECKSIG", "type": "pubkeyhash"}, "value": 0.0008062, "n": 0}, {"scriptPubKey": {"reqSigs": 1, "hex": "76a9143851f34d13937b673a7d24a1950bb5b21ce94af388ac", "addresses": ["168o1kqNquEJeR9vosUB5fw4eAwcVAgh8P"], "asm": "OP_DUP OP_HASH160 3851f34d13937b673a7d24a1950bb5b21ce94af3 OP_EQUALVERIFY OP_CHECKSIG", "type": "pubkeyhash"}, "value": 5.46e-06, "n": 1}, {"scriptPubKey": {"type": "nulldata", "hex": "6a146f6d6e69000000000000001f0000001734cb8180", "asm": "OP_RETURN 6f6d6e69000000000000001f0000001734cb8180"}, "value": 0.0, "n": 2}], "hex": "0100000002a3384455404c7a4ef11986303ecc681f6817693db1be749fe5e1641a6e646717010000006a47304402205b10d9f231addab5349f9dc5e2db86896af46c58034faa22a9743cff406faf52022000c68d4bbc2bdd6f12871d9669422f027a4b9e3b63e8159bfc4da8cf5b1657a301210255b6349f227f1e18b78336d8c3f51c132150f3467581ac41129866fa7e2a435effffffff711344df25f24ef68fca804ddd2e03070229dafc56f797481346c2bb25669e31000000006a473044022031f5dad53cd5538e4d3d84bcd362929b28fc4ddba911b6df5da142c4925b7596022075f8e64c14780eb4574180dd4f3f8ad527b2dddab8115af55898bf5b33155a5701210271977291b74f1f5f5c42157e8aae804664eaaeccfd097918450d37f28fb94d77ffffffff03ec3a0100000000001976a914d243e6abb9a60fbff430b421d2df4b7d59ec186088ac22020000000000001976a9143851f34d13937b673a7d24a1950bb5b21ce94af388ac0000000000000000166a146f6d6e69000000000000001f0000001734cb818000000000", "vin": [{"sequence": 4294967295, "scriptSig": {"hex": "47304402205b10d9f231addab5349f9dc5e2db86896af46c58034faa22a9743cff406faf52022000c68d4bbc2bdd6f12871d9669422f027a4b9e3b63e8159bfc4da8cf5b1657a301210255b6349f227f1e18b78336d8c3f51c132150f3467581ac41129866fa7e2a435e", "asm": "304402205b10d9f231addab5349f9dc5e2db86896af46c58034faa22a9743cff406faf52022000c68d4bbc2bdd6f12871d9669422f027a4b9e3b63e8159bfc4da8cf5b1657a3[ALL] 0255b6349f227f1e18b78336d8c3f51c132150f3467581ac41129866fa7e2a435e"}, "vout": 1, "txid": "1767646e1a64e1e59f74beb13d6917681f68cc3e308619f14e7a4c40554438a3"}, {"sequence": 4294967295, "scriptSig": {"hex": "473044022031f5dad53cd5538e4d3d84bcd362929b28fc4ddba911b6df5da142c4925b7596022075f8e64c14780eb4574180dd4f3f8ad527b2dddab8115af55898bf5b33155a5701210271977291b74f1f5f5c42157e8aae804664eaaeccfd097918450d37f28fb94d77", "asm": "3044022031f5dad53cd5538e4d3d84bcd362929b28fc4ddba911b6df5da142c4925b7596022075f8e64c14780eb4574180dd4f3f8ad527b2dddab8115af55898bf5b33155a57[ALL] 0271977291b74f1f5f5c42157e8aae804664eaaeccfd097918450d37f28fb94d77"}, "vout": 0, "txid": "319e6625bbc246134897f756fcda290207032edd4d80ca8ff64ef225df441371"}], "txid": "7303bb72b5e65cbb5f5aed95e0ec246a25b2fee8f55a0634a9c09ddc7f1d20a9", "blocktime": 1537875543, "version": 1, "confirmations": 11464, "time": 1537875543, "locktime": 0, "vsize": 403, "size": 403}