{"hash": "730c18eab0526a72ec3dc59a6ff2035635936a186d6b3d0e6c3dccb4830426c0", "blockhash": "0000000000000000000baef3f32e3676a92c3b2e5da21b426e4f302fc371ce76", "vout": [{"scriptPubKey": {"type": "nulldata", "hex": "6a4c500000782b0001f8de358aaac6e591fc828faf27b7256b4774d339f6019d6ddc0f1b8ff117d5b2fd70ce66a4e00d796535c6e327c95baa1e850614486152c16ee6bc9a9526289ac0f6612cd74e33776ee4", "asm": "OP_RETURN 0000782b0001f8de358aaac6e591fc828faf27b7256b4774d339f6019d6ddc0f1b8ff117d5b2fd70ce66a4e00d796535c6e327c95baa1e850614486152c16ee6bc9a9526289ac0f6612cd74e33776ee4"}, "value": 0.0, "n": 0}, {"scriptPubKey": {"reqSigs": 1, "hex": "76a914a3d8088e45599fb091648079dce21a844616d6d888ac", "addresses": ["1FwKwXwzbTW5hyy9N8UZPfLqS28tAKMsLm"], "asm": "OP_DUP OP_HASH160 a3d8088e45599fb091648079dce21a844616d6d8 OP_EQUALVERIFY OP_CHECKSIG", "type": "pubkeyhash"}, "value": 0.0011044, "n": 1}], "hex": "010000000127decf3172d1d260149c55e05460d023cb4bac068a744421c30e1be9d0365391010000006b483045022100f65c6fb698460dcb1bbb9e9ff42d4ece46948b15c036917d6ea99170c08e532702202d62337131df1c6dd1d61f7ada810a7b4e72215ad79cdd32883b3978ebc9b7ba012102cfb32bd7c89e1eb20411ac29029e17362828bb9e1a8bf3e9a115d08baa73270effffffff020000000000000000536a4c500000782b0001f8de358aaac6e591fc828faf27b7256b4774d339f6019d6ddc0f1b8ff117d5b2fd70ce66a4e00d796535c6e327c95baa1e850614486152c16ee6bc9a9526289ac0f6612cd74e33776ee468af0100000000001976a914a3d8088e45599fb091648079dce21a844616d6d888ac00000000", "vin": [{"sequence": 4294967295, "scriptSig": {"hex": "483045022100f65c6fb698460dcb1bbb9e9ff42d4ece46948b15c036917d6ea99170c08e532702202d62337131df1c6dd1d61f7ada810a7b4e72215ad79cdd32883b3978ebc9b7ba012102cfb32bd7c89e1eb20411ac29029e17362828bb9e1a8bf3e9a115d08baa73270e", "asm": "3045022100f65c6fb698460dcb1bbb9e9ff42d4ece46948b15c036917d6ea99170c08e532702202d62337131df1c6dd1d61f7ada810a7b4e72215ad79cdd32883b3978ebc9b7ba[ALL] 02cfb32bd7c89e1eb20411ac29029e17362828bb9e1a8bf3e9a115d08baa73270e"}, "vout": 1, "txid": "915336d0e91b0ec32144748a06ac4bcb23d06054e0559c1460d2d17231cfde27"}], "txid": "730c18eab0526a72ec3dc59a6ff2035635936a186d6b3d0e6c3dccb4830426c0", "blocktime": 1537876114, "version": 1, "confirmations": 11461, "time": 1537876114, "locktime": 0, "vsize": 284, "size": 284}