{"hash": "730d6bb8fe5d45d5b52eac0a493cb935d6a3541fbfb69a996e6eea5f722636b1", "blockhash": "0000000000000000000e13cef7c366c0283d82e591d1acd082e914b08063cdf1", "vout": [{"scriptPubKey": {"reqSigs": 1, "hex": "76a9142c6be59650769da790e8fcef42f2c314422c5b1088ac", "addresses": ["153szF7f2okJML5AZL34J6RDnMMLyPXA13"], "asm": "OP_DUP OP_HASH160 2c6be59650769da790e8fcef42f2c314422c5b10 OP_EQUALVERIFY OP_CHECKSIG", "type": "pubkeyhash"}, "value": 0.0064482, "n": 0}, {"scriptPubKey": {"type": "nulldata", "hex": "6a4c50000077a6000180404a80dbc9af1eaeb491f9af6c953dd567cf27e7e3ef3236678a6250977f07dfeca2ad31ae70aa8be3759bed0d5baa0f6006145fadded470d61d100759d4ba30d2c37bb011d97e02cf", "asm": "OP_RETURN 000077a6000180404a80dbc9af1eaeb491f9af6c953dd567cf27e7e3ef3236678a6250977f07dfeca2ad31ae70aa8be3759bed0d5baa0f6006145fadded470d61d100759d4ba30d2c37bb011d97e02cf"}, "value": 0.0, "n": 1}], "hex": "0100000001f47df19fe8a7b0ec9a17cb90df57297bbb6ca56d1fbaec6a2575cf042882ecb8000000006b483045022100cc417bb39ecbddadb00a4742e5861885e53a56a79650ee8faac3482664ccf7cc02200ff08062734b5810b0578ec8f83c186c4822e1488732c8cc8039bb46b11d4519012103a53d43dc900ab81da5c6d496d84db19c596f9e713a6ca31d870dc6522536eed5ffffffff02d4d60900000000001976a9142c6be59650769da790e8fcef42f2c314422c5b1088ac0000000000000000536a4c50000077a6000180404a80dbc9af1eaeb491f9af6c953dd567cf27e7e3ef3236678a6250977f07dfeca2ad31ae70aa8be3759bed0d5baa0f6006145fadded470d61d100759d4ba30d2c37bb011d97e02cf00000000", "vin": [{"sequence": 4294967295, "scriptSig": {"hex": "483045022100cc417bb39ecbddadb00a4742e5861885e53a56a79650ee8faac3482664ccf7cc02200ff08062734b5810b0578ec8f83c186c4822e1488732c8cc8039bb46b11d4519012103a53d43dc900ab81da5c6d496d84db19c596f9e713a6ca31d870dc6522536eed5", "asm": "3045022100cc417bb39ecbddadb00a4742e5861885e53a56a79650ee8faac3482664ccf7cc02200ff08062734b5810b0578ec8f83c186c4822e1488732c8cc8039bb46b11d4519[ALL] 03a53d43dc900ab81da5c6d496d84db19c596f9e713a6ca31d870dc6522536eed5"}, "vout": 0, "txid": "b8ec822804cf75256aecba1f6da56cbb7b2957df90cb179aecb0a7e89ff17df4"}], "txid": "730d6bb8fe5d45d5b52eac0a493cb935d6a3541fbfb69a996e6eea5f722636b1", "blocktime": 1537871767, "version": 1, "confirmations": 11495, "time": 1537871767, "locktime": 0, "vsize": 284, "size": 284}