{"hash": "fdeb21a55e20512f6d8fbe0d31f78b7635eadcfacad56825b6328937b24bc601", "blockhash": "0000000000000000001cda96e906b7601b7a6fb1a3b62bca570a9e5d8f4b3de1", "vout": [{"scriptPubKey": {"reqSigs": 1, "hex": "76a91447f00f43e0a8e0c52e9eb12b3108a8653528c4fc88ac", "addresses": ["17ZNZFpGQ5SDWnvZHLXCjamm3VQAJqn3j9"], "asm": "OP_DUP OP_HASH160 47f00f43e0a8e0c52e9eb12b3108a8653528c4fc OP_EQUALVERIFY OP_CHECKSIG", "type": "pubkeyhash"}, "value": 0.01487, "n": 0}, {"scriptPubKey": {"reqSigs": 1, "hex": "a91426f2d7813cf69cdbd4f57b5ccc41a58c54f3dbd387", "addresses": ["35ExWn72s19kmpk82yJ4wCn6wtVLsqscYR"], "asm": "OP_HASH160 26f2d7813cf69cdbd4f57b5ccc41a58c54f3dbd3 OP_EQUAL", "type": "scripthash"}, "value": 0.01027513, "n": 1}], "hex": "0200000000010194dfed3b39b9fc63508545f57d54cc7a5a4681e6f2d7fac0028d2aaf84031e370600000017160014eef133c679a25fae319ac4b99846b7b2628e1ca6feffffff0298b01600000000001976a91447f00f43e0a8e0c52e9eb12b3108a8653528c4fc88acb9ad0f000000000017a91426f2d7813cf69cdbd4f57b5ccc41a58c54f3dbd38702473044022046bbaad4814816112db756596d4e16a13d8cc1758e59b89d43f96cb5081e018902204ade8fd9561d2aec086d42091853580bc496eee5b39c88472e6ba70e78e5adc201210393f871ae189b0ee37182d14dbe512f439444214b5c06727eacc5f918f786ec9512490800", "vin": [{"txinwitness": ["3044022046bbaad4814816112db756596d4e16a13d8cc1758e59b89d43f96cb5081e018902204ade8fd9561d2aec086d42091853580bc496eee5b39c88472e6ba70e78e5adc201", "0393f871ae189b0ee37182d14dbe512f439444214b5c06727eacc5f918f786ec95"], "sequence": 4294967294, "scriptSig": {"hex": "160014eef133c679a25fae319ac4b99846b7b2628e1ca6", "asm": "0014eef133c679a25fae319ac4b99846b7b2628e1ca6"}, "vout": 6, "txid": "371e0384af2a8d02c0fad7f2e681465a7acc547df545855063fcb9393beddf94"}], "txid": "7312d6c575a76129c5633c3f7220b97b63f74a213950e958680408dcd7dd9eaa", "blocktime": 1537873282, "version": 2, "confirmations": 11480, "time": 1537873282, "locktime": 542994, "vsize": 168, "size": 249}