{"hash": "77f5ff200d2aae1936e9166799321b525a7000f72b80d8630a254b41d5beac57", "blockhash": "0000000000000000000baef3f32e3676a92c3b2e5da21b426e4f302fc371ce76", "vout": [{"scriptPubKey": {"reqSigs": 1, "hex": "76a9142e9c3bfbd2e7c58d02167add0f32e5226f2c3b7388ac", "addresses": ["15FTFB7s3tXtwgLuFUWcSHh6HubmRnJPQ9"], "asm": "OP_DUP OP_HASH160 2e9c3bfbd2e7c58d02167add0f32e5226f2c3b73 OP_EQUALVERIFY OP_CHECKSIG", "type": "pubkeyhash"}, "value": 0.00400136, "n": 0}, {"scriptPubKey": {"reqSigs": 1, "hex": "a914b85fbf60a6ba90609a7169fe5507d39563c63dd587", "addresses": ["3JVtxVrLZFMtMtiugWpi3tF6Cg2wiNTtMX"], "asm": "OP_HASH160 b85fbf60a6ba90609a7169fe5507d39563c63dd5 OP_EQUAL", "type": "scripthash"}, "value": 0.10710008, "n": 1}], "hex": "0100000000010116da1405ffcf57f481c3bd14e1dc0dc940156acaad9c7a764183673767280208010000002322002073ce2809cc3eb88107c85ccecfc8905765b7c78a3dae54cc2017f905071e8b7bffffffff02081b0600000000001976a9142e9c3bfbd2e7c58d02167add0f32e5226f2c3b7388acf86ba3000000000017a914b85fbf60a6ba90609a7169fe5507d39563c63dd5870400483045022100ca9d4e5754bf666cbb5921af97cee497ef2a3b9ec8c5349352a3f15020e3fcee022028f63320aa535b25e51570c23a090b127091f69f5b3430fee5abd308cdd1c1da01473044022066e42a803371c65330bb38e6d41c014f68e5cfbbad5ec0e20f9dee1084f7fb890220668bbbdb78b6ece3b19d3699550c8a47c1926a4fa36d1bfa8c0cb9affe77dd5b01475221026a42a9fca583a4a65496c8ddf67116f6af889f3675cd483bf11a335e536a651b2103f62b1d27158b53be9caeae920614d9c61c0d4e3ab8a2b8afbc8e020933c6e68352ae00000000", "vin": [{"txinwitness": ["", "3045022100ca9d4e5754bf666cbb5921af97cee497ef2a3b9ec8c5349352a3f15020e3fcee022028f63320aa535b25e51570c23a090b127091f69f5b3430fee5abd308cdd1c1da01", "3044022066e42a803371c65330bb38e6d41c014f68e5cfbbad5ec0e20f9dee1084f7fb890220668bbbdb78b6ece3b19d3699550c8a47c1926a4fa36d1bfa8c0cb9affe77dd5b01", "5221026a42a9fca583a4a65496c8ddf67116f6af889f3675cd483bf11a335e536a651b2103f62b1d27158b53be9caeae920614d9c61c0d4e3ab8a2b8afbc8e020933c6e68352ae"], "sequence": 4294967295, "scriptSig": {"hex": "22002073ce2809cc3eb88107c85ccecfc8905765b7c78a3dae54cc2017f905071e8b7b", "asm": "002073ce2809cc3eb88107c85ccecfc8905765b7c78a3dae54cc2017f905071e8b7b"}, "vout": 1, "txid": "0802286737678341767a9cadca6a1540c90ddce114bdc381f457cfff0514da16"}], "txid": "731667f6ddd34f63c860831d81350239f1a5af7fdd4beac98f200f05dd43c562", "blocktime": 1537876114, "version": 1, "confirmations": 11460, "time": 1537876114, "locktime": 0, "vsize": 208, "size": 373}