{"hash": "731e93b1c22990bf00367f1b8cf3ec3af0550059a0a5453ca3fd8f442ffa874b", "blockhash": "0000000000000000000e13cef7c366c0283d82e591d1acd082e914b08063cdf1", "vout": [{"scriptPubKey": {"type": "nulldata", "hex": "6a4c500000779e0001211f1a0f5a4c29c70f58c182af6c953dd567cf27e7e3ef3236678a6250979e6c8ce39db01ef86f3b5aac1d9108cd5baa0d55061502558582aa311d100759d4ba30d2c37bb011d97e02cf", "asm": "OP_RETURN 0000779e0001211f1a0f5a4c29c70f58c182af6c953dd567cf27e7e3ef3236678a6250979e6c8ce39db01ef86f3b5aac1d9108cd5baa0d55061502558582aa311d100759d4ba30d2c37bb011d97e02cf"}, "value": 0.0, "n": 0}, {"scriptPubKey": {"reqSigs": 1, "hex": "76a91440859f743965d6687127c10cfd9c1c15aa1a13a188ac", "addresses": ["16tAKZHpTdsUk1KENfCjNpiUBnSrcpa34J"], "asm": "OP_DUP OP_HASH160 40859f743965d6687127c10cfd9c1c15aa1a13a1 OP_EQUALVERIFY OP_CHECKSIG", "type": "pubkeyhash"}, "value": 0.00643784, "n": 1}], "hex": "0100000001515c7119a31a29886c1501369598d9c308150d0da89b0df5599689ce97483278010000006b483045022100b55c0a6dc1e12c43ce9e100020f21981a6983c52cd919f073bebedd30f916c7802203fb03095e7f01a47552bf814bed1db20d2d2ec8e6c05872c64bad51443e92d5c012103ccf1cb00c957258e07441ebffe4d6e39e9191ed1f995f9812b2cf2198d457b06ffffffff020000000000000000536a4c500000779e0001211f1a0f5a4c29c70f58c182af6c953dd567cf27e7e3ef3236678a6250979e6c8ce39db01ef86f3b5aac1d9108cd5baa0d55061502558582aa311d100759d4ba30d2c37bb011d97e02cfc8d20900000000001976a91440859f743965d6687127c10cfd9c1c15aa1a13a188ac00000000", "vin": [{"sequence": 4294967295, "scriptSig": {"hex": "483045022100b55c0a6dc1e12c43ce9e100020f21981a6983c52cd919f073bebedd30f916c7802203fb03095e7f01a47552bf814bed1db20d2d2ec8e6c05872c64bad51443e92d5c012103ccf1cb00c957258e07441ebffe4d6e39e9191ed1f995f9812b2cf2198d457b06", "asm": "3045022100b55c0a6dc1e12c43ce9e100020f21981a6983c52cd919f073bebedd30f916c7802203fb03095e7f01a47552bf814bed1db20d2d2ec8e6c05872c64bad51443e92d5c[ALL] 03ccf1cb00c957258e07441ebffe4d6e39e9191ed1f995f9812b2cf2198d457b06"}, "vout": 1, "txid": "78324897ce899659f50d9ba80d0d1508c3d998953601156c88291aa319715c51"}], "txid": "731e93b1c22990bf00367f1b8cf3ec3af0550059a0a5453ca3fd8f442ffa874b", "blocktime": 1537871767, "version": 1, "confirmations": 11495, "time": 1537871767, "locktime": 0, "vsize": 284, "size": 284}