{"hash": "1cb2a069f756a38396d03ff8e868f725231f7ab9a73d27891b6ddd6c39d5cd72", "blockhash": "0000000000000000001cda96e906b7601b7a6fb1a3b62bca570a9e5d8f4b3de1", "vout": [{"scriptPubKey": {"reqSigs": 1, "hex": "a91477ba435339ac6786a999583bcd9c6cb3b79541b687", "addresses": ["3Cc5U9hvCTwWjcRwWeLy7XDT7eGTQkaHCm"], "asm": "OP_HASH160 77ba435339ac6786a999583bcd9c6cb3b79541b6 OP_EQUAL", "type": "scripthash"}, "value": 0.0024686, "n": 0}, {"scriptPubKey": {"reqSigs": 1, "hex": "a914d9b47656f3e5b79bb216dad82b18a55a85108a2787", "addresses": ["3MY8jufnLCWUhoczfYYsvkHvuQm7M7MS51"], "asm": "OP_HASH160 d9b47656f3e5b79bb216dad82b18a55a85108a27 OP_EQUAL", "type": "scripthash"}, "value": 0.01014329, "n": 1}], "hex": "02000000000102476713e49cb99c02dda451bda87fc481fc1402ed0ca32839f7d6efd197b73df71400000017160014388264dc70cb966e1c92e9b04b00cc5fef73807efefffffff8461fd20b21a771b606f918e33d0d6b0e0b5b62506b83e817ca7575f0021b3c0100000017160014129eb31c959bb92359b49ab8beadc8ecfd12b703feffffff024cc403000000000017a91477ba435339ac6786a999583bcd9c6cb3b79541b687397a0f000000000017a914d9b47656f3e5b79bb216dad82b18a55a85108a278702473044022074d660ab5016fe55f0f713444eb83277869a1df5f939448ac6f3a2e1b024be14022034f287c5fec0847245fb5c7aacb5a565c991bcfcbbcdecc712aac0661ae4bade01210389052b26813d0f5d339d629dea2c6a00f4650b9ff7a4a7ba24f6c05b705cfa530247304402200c2f1a1ef50c0e6f6b688aca532421b12733d31a6b4f872f7c8394b8fc63a9b502203c6cf993c68119a108126c22a31891eb730877252ca09e41ecf35cdba686b223012103372e94078c6432be1c7d88a104e79936977773614e118f6502d4a725e6e111f313490800", "vin": [{"txinwitness": ["3044022074d660ab5016fe55f0f713444eb83277869a1df5f939448ac6f3a2e1b024be14022034f287c5fec0847245fb5c7aacb5a565c991bcfcbbcdecc712aac0661ae4bade01", "0389052b26813d0f5d339d629dea2c6a00f4650b9ff7a4a7ba24f6c05b705cfa53"], "sequence": 4294967294, "scriptSig": {"hex": "160014388264dc70cb966e1c92e9b04b00cc5fef73807e", "asm": "0014388264dc70cb966e1c92e9b04b00cc5fef73807e"}, "vout": 20, "txid": "f73db797d1efd6f73928a30ced0214fc81c47fa8bd51a4dd029cb99ce4136747"}, {"txinwitness": ["304402200c2f1a1ef50c0e6f6b688aca532421b12733d31a6b4f872f7c8394b8fc63a9b502203c6cf993c68119a108126c22a31891eb730877252ca09e41ecf35cdba686b22301", "03372e94078c6432be1c7d88a104e79936977773614e118f6502d4a725e6e111f3"], "sequence": 4294967294, "scriptSig": {"hex": "160014129eb31c959bb92359b49ab8beadc8ecfd12b703", "asm": "0014129eb31c959bb92359b49ab8beadc8ecfd12b703"}, "vout": 1, "txid": "3c1b02f07575ca17e8836b50625b0b0e6b0d3de318f906b671a7210bd21f46f8"}], "txid": "7323e7af7ab638f8105a13c6ad74a20bb251a1e74b5873d355466128a305179f", "blocktime": 1537873282, "version": 2, "confirmations": 11484, "time": 1537873282, "locktime": 542995, "vsize": 256, "size": 418}