{"hash": "73275dcd78486bc1652b5fc765825947f31d264a5159011bbdb1115c358369db", "blockhash": "0000000000000000000e13cef7c366c0283d82e591d1acd082e914b08063cdf1", "vout": [{"scriptPubKey": {"reqSigs": 1, "hex": "76a914ae52bc5c0015d82763718c1ca14f257e6aaceb6788ac", "addresses": ["1GtjgxkRcbMGahNP2vt5MtZAY8iUXMCTsD"], "asm": "OP_DUP OP_HASH160 ae52bc5c0015d82763718c1ca14f257e6aaceb67 OP_EQUALVERIFY OP_CHECKSIG", "type": "pubkeyhash"}, "value": 0.00328067, "n": 0}, {"scriptPubKey": {"reqSigs": 1, "hex": "76a91443bb33590c5d17ae45a63f441af93bc2bc85ed5d88ac", "addresses": ["17B8Xn48DV5ZSfn5N5tck3h3t6LGZgCMoq"], "asm": "OP_DUP OP_HASH160 43bb33590c5d17ae45a63f441af93bc2bc85ed5d OP_EQUALVERIFY OP_CHECKSIG", "type": "pubkeyhash"}, "value": 0.01066786, "n": 1}], "hex": "0100000001d6986d46ce97bc67ab7a3e1863e7171a5afc70f154994e5dd851b00acd2bb7d2010000006a47304402200d036518876c753488c7f865c1e917da343cccda131999a654dccb3929ace6910220178f859f35b51d7d1d56b970f4f139782268c07d0b1d5704fbcd23a6045b48cc01210331f354e230e06a03cd689c18716942376fad56298b37ec672d5f61946a126957ffffffff0283010500000000001976a914ae52bc5c0015d82763718c1ca14f257e6aaceb6788ac22471000000000001976a91443bb33590c5d17ae45a63f441af93bc2bc85ed5d88ac00000000", "vin": [{"sequence": 4294967295, "scriptSig": {"hex": "47304402200d036518876c753488c7f865c1e917da343cccda131999a654dccb3929ace6910220178f859f35b51d7d1d56b970f4f139782268c07d0b1d5704fbcd23a6045b48cc01210331f354e230e06a03cd689c18716942376fad56298b37ec672d5f61946a126957", "asm": "304402200d036518876c753488c7f865c1e917da343cccda131999a654dccb3929ace6910220178f859f35b51d7d1d56b970f4f139782268c07d0b1d5704fbcd23a6045b48cc[ALL] 0331f354e230e06a03cd689c18716942376fad56298b37ec672d5f61946a126957"}, "vout": 1, "txid": "d2b72bcd0ab051d85d4e9954f170fc5a1a17e763183e7aab67bc97ce466d98d6"}], "txid": "73275dcd78486bc1652b5fc765825947f31d264a5159011bbdb1115c358369db", "blocktime": 1537871767, "version": 1, "confirmations": 11495, "time": 1537871767, "locktime": 0, "vsize": 225, "size": 225}