{"hash": "7327539b8618e706838b3772202d684305b08d4fe37805328fd221cf095bd3bb", "blockhash": "0000000000000000001cda96e906b7601b7a6fb1a3b62bca570a9e5d8f4b3de1", "vout": [{"scriptPubKey": {"reqSigs": 1, "hex": "76a914fec5fae2ffae42597e5f987b6e5e5b012b52719a88ac", "addresses": ["1QE7ocrysxWenHBGpS3VEfNsLzU7PufEyU"], "asm": "OP_DUP OP_HASH160 fec5fae2ffae42597e5f987b6e5e5b012b52719a OP_EQUALVERIFY OP_CHECKSIG", "type": "pubkeyhash"}, "value": 0.01395184, "n": 0}, {"scriptPubKey": {"type": "nulldata", "hex": "6a4c50000077d200012ce9c442b200aff379bfb7e25b23cc0f42c2fc38c5e5bf9ae76da98a211a673ac5ea5c8ec9686083e0aacbeee2815baa14c20613fff26d9e1817bc9a9526289ac0f6612cd74e33776ee4", "asm": "OP_RETURN 000077d200012ce9c442b200aff379bfb7e25b23cc0f42c2fc38c5e5bf9ae76da98a211a673ac5ea5c8ec9686083e0aacbeee2815baa14c20613fff26d9e1817bc9a9526289ac0f6612cd74e33776ee4"}, "value": 0.0, "n": 1}], "hex": "0100000001136cb48fb1eb0c9c4d518414e72405e1fd0668a5853132993891d00cf2673903000000006a47304402202981f98074732724aaa131e7bd30b67a9af07b54d8900bc6dca285855c28c27c02202eb3a6103927bf41b346df86c9352e1edcbc95bf71c54604286f2c2276c0411f0121021a00b342732364f3716c05ebd07e2c42f51e404d1a08df1e5d1b8da1e9c2e16bffffffff02f0491500000000001976a914fec5fae2ffae42597e5f987b6e5e5b012b52719a88ac0000000000000000536a4c50000077d200012ce9c442b200aff379bfb7e25b23cc0f42c2fc38c5e5bf9ae76da98a211a673ac5ea5c8ec9686083e0aacbeee2815baa14c20613fff26d9e1817bc9a9526289ac0f6612cd74e33776ee400000000", "vin": [{"sequence": 4294967295, "scriptSig": {"hex": "47304402202981f98074732724aaa131e7bd30b67a9af07b54d8900bc6dca285855c28c27c02202eb3a6103927bf41b346df86c9352e1edcbc95bf71c54604286f2c2276c0411f0121021a00b342732364f3716c05ebd07e2c42f51e404d1a08df1e5d1b8da1e9c2e16b", "asm": "304402202981f98074732724aaa131e7bd30b67a9af07b54d8900bc6dca285855c28c27c02202eb3a6103927bf41b346df86c9352e1edcbc95bf71c54604286f2c2276c0411f[ALL] 021a00b342732364f3716c05ebd07e2c42f51e404d1a08df1e5d1b8da1e9c2e16b"}, "vout": 0, "txid": "033967f20cd0913899323185a56806fde10524e71484514d9c0cebb18fb46c13"}], "txid": "7327539b8618e706838b3772202d684305b08d4fe37805328fd221cf095bd3bb", "blocktime": 1537873282, "version": 1, "confirmations": 11484, "time": 1537873282, "locktime": 0, "vsize": 283, "size": 283}