{"hash": "732b0b4da458ab4266c8f43450558dbee25dee731e482f9b66c53dfb82270358", "blockhash": "000000000000000000022b45ed06c6f4ccd3cf7fb5ba4856ebd2e58215665228", "vout": [{"scriptPubKey": {"reqSigs": 1, "hex": "a914b6b69215fb533fce9f2279e9337a179c149f8aa987", "addresses": ["3JM7cgrL6bR8aUhhhMpxqqPVqkNtGTNz4b"], "asm": "OP_HASH160 b6b69215fb533fce9f2279e9337a179c149f8aa9 OP_EQUAL", "type": "scripthash"}, "value": 0.0001388, "n": 0}, {"scriptPubKey": {"reqSigs": 1, "hex": "76a914867e07886ecf48532c4e126e8036ed623b37b01188ac", "addresses": ["1DG8XPEMCg3gxdpNJ6N124DB3XX4fnQpMj"], "asm": "OP_DUP OP_HASH160 867e07886ecf48532c4e126e8036ed623b37b011 OP_EQUALVERIFY OP_CHECKSIG", "type": "pubkeyhash"}, "value": 0.03409749, "n": 1}], "hex": "01000000015204cf206e52df8e80db8e08aaadb028e137e399fa391ff8424520d3d8a38fc6010000006a473044022045b766e366eb0625550bbe0d3c742aa8ffe2b79fa7911df991d54a21ea7e7e52022043ec8f4705c71c40efbb273fe9eaf016bc9d19b744c37b2fcda79527040e124e0121036d160d5b3fedca32da6955a09bad834aa32f5c473c674102d7fef25eb8c0502fffffffff02383600000000000017a914b6b69215fb533fce9f2279e9337a179c149f8aa98755073400000000001976a914867e07886ecf48532c4e126e8036ed623b37b01188ac00000000", "vin": [{"sequence": 4294967295, "scriptSig": {"hex": "473044022045b766e366eb0625550bbe0d3c742aa8ffe2b79fa7911df991d54a21ea7e7e52022043ec8f4705c71c40efbb273fe9eaf016bc9d19b744c37b2fcda79527040e124e0121036d160d5b3fedca32da6955a09bad834aa32f5c473c674102d7fef25eb8c0502f", "asm": "3044022045b766e366eb0625550bbe0d3c742aa8ffe2b79fa7911df991d54a21ea7e7e52022043ec8f4705c71c40efbb273fe9eaf016bc9d19b744c37b2fcda79527040e124e[ALL] 036d160d5b3fedca32da6955a09bad834aa32f5c473c674102d7fef25eb8c0502f"}, "vout": 1, "txid": "c68fa3d8d3204542f81f39fa99e337e128b0adaa088edb808edf526e20cf0452"}], "txid": "732b0b4da458ab4266c8f43450558dbee25dee731e482f9b66c53dfb82270358", "blocktime": 1537869901, "version": 1, "confirmations": 11524, "time": 1537869901, "locktime": 0, "vsize": 223, "size": 223}