{"hash": "733045c739e9a22ed9d96e40176661c8e7a9f5a93cd7797dd211eef5fecbb0fc", "blockhash": "00000000000000000017f5eb5941039fbcee6240d03bc1f2f8e35350df66a1d8", "vout": [{"scriptPubKey": {"reqSigs": 1, "hex": "a9149be4fb04766ec3645dfebb1dfc08605e6c1803df87", "addresses": ["3FuJy89gYjexyZgJ7WPWnj7RGrJkfB4BoN"], "asm": "OP_HASH160 9be4fb04766ec3645dfebb1dfc08605e6c1803df OP_EQUAL", "type": "scripthash"}, "value": 0.0344, "n": 0}, {"scriptPubKey": {"reqSigs": 1, "hex": "76a914822544d75fc84ed921af9068dacba5bc984b3e8b88ac", "addresses": ["1Cs9VRnUfxTDMrCrYTiVHG2m6T7tENuip5"], "asm": "OP_DUP OP_HASH160 822544d75fc84ed921af9068dacba5bc984b3e8b OP_EQUALVERIFY OP_CHECKSIG", "type": "pubkeyhash"}, "value": 0.31499981, "n": 1}], "hex": "0100000001d1b3852863d4f7465c2e1ead4ba26a9965d39219a8ec6e44ec2c0aaf432d9cc1010000006b483045022100f66ded6b57bc4613650d992d0bccc19772d477b8dfe071400ea3a4c810db9ca4022051160c36a3c94474de9dd1f836e036ad7cadcd99f2d2adc67bd2117eda9cd8900121020fec54ad29fa9bfa5fb54684354b8cb1de96e3d211cf47c2272e5e5acf34e983ffffffff02807d34000000000017a9149be4fb04766ec3645dfebb1dfc08605e6c1803df87cda6e001000000001976a914822544d75fc84ed921af9068dacba5bc984b3e8b88ac00000000", "vin": [{"sequence": 4294967295, "scriptSig": {"hex": "483045022100f66ded6b57bc4613650d992d0bccc19772d477b8dfe071400ea3a4c810db9ca4022051160c36a3c94474de9dd1f836e036ad7cadcd99f2d2adc67bd2117eda9cd8900121020fec54ad29fa9bfa5fb54684354b8cb1de96e3d211cf47c2272e5e5acf34e983", "asm": "3045022100f66ded6b57bc4613650d992d0bccc19772d477b8dfe071400ea3a4c810db9ca4022051160c36a3c94474de9dd1f836e036ad7cadcd99f2d2adc67bd2117eda9cd890[ALL] 020fec54ad29fa9bfa5fb54684354b8cb1de96e3d211cf47c2272e5e5acf34e983"}, "vout": 1, "txid": "c19c2d43af0a2cec446eeca81992d365996aa24bad1e2e5c46f7d4632885b3d1"}], "txid": "733045c739e9a22ed9d96e40176661c8e7a9f5a93cd7797dd211eef5fecbb0fc", "blocktime": 1537874412, "version": 1, "confirmations": 11467, "time": 1537874412, "locktime": 0, "vsize": 224, "size": 224}