{"hash": "73345efe69e0111380795f53662885b393ad74410ffa54adbe7cf9f50c3f3560", "blockhash": "0000000000000000000baef3f32e3676a92c3b2e5da21b426e4f302fc371ce76", "vout": [{"scriptPubKey": {"reqSigs": 1, "hex": "76a914e4facf3af9ab3ab55ac3c87b3365c8184607206d88ac", "addresses": ["1MsjXHcf8m15r2Qnk6h9reCAaWafr3dkG2"], "asm": "OP_DUP OP_HASH160 e4facf3af9ab3ab55ac3c87b3365c8184607206d OP_EQUALVERIFY OP_CHECKSIG", "type": "pubkeyhash"}, "value": 0.00259177, "n": 0}, {"scriptPubKey": {"reqSigs": 1, "hex": "76a9149944e136d8d58669c0477e009635070b594a81cd88ac", "addresses": ["1EyQuCWndohuDEpxQjWWH56oV5HZ3QxtBv"], "asm": "OP_DUP OP_HASH160 9944e136d8d58669c0477e009635070b594a81cd OP_EQUALVERIFY OP_CHECKSIG", "type": "pubkeyhash"}, "value": 0.00749913, "n": 1}], "hex": "0100000001dc32def7a28d182965a55263bd17e2d011121c3d202f7d732caf174dd06e8bf9010000006b483045022100bcb7d037e1981339fcafc395e06de5c892faf743cc669abf4590f3d3921635c70220070954e12e777b39d2e1a0eac5e38577d658044b8d63daa3e6deb1edbeb91edf01210205062a2a79a54a3b3bc30ae6d522a5363e592f1e3f17ac0f7be549b1e80ecf39ffffffff0269f40300000000001976a914e4facf3af9ab3ab55ac3c87b3365c8184607206d88ac59710b00000000001976a9149944e136d8d58669c0477e009635070b594a81cd88ac00000000", "vin": [{"sequence": 4294967295, "scriptSig": {"hex": "483045022100bcb7d037e1981339fcafc395e06de5c892faf743cc669abf4590f3d3921635c70220070954e12e777b39d2e1a0eac5e38577d658044b8d63daa3e6deb1edbeb91edf01210205062a2a79a54a3b3bc30ae6d522a5363e592f1e3f17ac0f7be549b1e80ecf39", "asm": "3045022100bcb7d037e1981339fcafc395e06de5c892faf743cc669abf4590f3d3921635c70220070954e12e777b39d2e1a0eac5e38577d658044b8d63daa3e6deb1edbeb91edf[ALL] 0205062a2a79a54a3b3bc30ae6d522a5363e592f1e3f17ac0f7be549b1e80ecf39"}, "vout": 1, "txid": "f98b6ed04d17af2c737d2f203d1c1211d0e217bd6352a56529188da2f7de32dc"}], "txid": "73345efe69e0111380795f53662885b393ad74410ffa54adbe7cf9f50c3f3560", "blocktime": 1537876114, "version": 1, "confirmations": 11460, "time": 1537876114, "locktime": 0, "vsize": 226, "size": 226}