{"hash": "7335753bb03d227320e34741b0eab77b3b8e2803f32e6e08a412b83873cc008f", "blockhash": "0000000000000000000baef3f32e3676a92c3b2e5da21b426e4f302fc371ce76", "vout": [{"scriptPubKey": {"reqSigs": 1, "hex": "76a914c3ae487eb17a752edb6b447263330ea1420ca5af88ac", "addresses": ["1JqfYpFxeoPYxNGvM3BNUjmtfDGTNRvSQG"], "asm": "OP_DUP OP_HASH160 c3ae487eb17a752edb6b447263330ea1420ca5af OP_EQUALVERIFY OP_CHECKSIG", "type": "pubkeyhash"}, "value": 0.96476, "n": 0}, {"scriptPubKey": {"reqSigs": 1, "hex": "76a9143e2b68bd503bb2a8aae771d3cb4a33a6ffff9dc888ac", "addresses": ["16fiu1mocX2wVVVn6Qpik8EZXy2CYv6ct1"], "asm": "OP_DUP OP_HASH160 3e2b68bd503bb2a8aae771d3cb4a33a6ffff9dc8 OP_EQUALVERIFY OP_CHECKSIG", "type": "pubkeyhash"}, "value": 0.18986801, "n": 1}], "hex": "0100000004bd082368420741f4533a5f390246bfb8a8becdc06eee1ae95954d03c298f75d2000000006a473044022032732e1cd69896354959fe52ee93fdfdade78690582adf86a8939bd1b11d1ce202204dd44fc7ef93b2dbf31dab001f2b68beb444b44c3d5ac4af72e0b260c018db75012103c2d450f2adbeb8616d87aa299fd9b8ea17a14fd2cb50700977f65a655e971313ffffffff1bd56fa77dd8bb9d80523cb9d20ab0d64255579d1bfbf7a30382d05f0b557760010000006b483045022100af877ea103fc5f5af2b8143d7a8390497a1dd7317516da12f9ae3dbfbd34480d02206e4d822064bdf32c39bed1105b752cff25665e6185b81e69b0202a94db82685e01210393bd94df9c989f6471caeae58b5c722ff48d55788120130bb3dec3453361420cffffffffcb58675633a02fefa0b24624f3a7159dfd71c02951d09d92ec30c3747a178c5c000000006b483045022100dd8b42c7444eaeae7395d1beba71ba6e91c45e620dd67e4fcaed9e4d575be9c40220538f53ca059bd8945f252616ce4e51d383d5e2839afee3b9f918fcfdc55df30e012102fba67079e36ff9eac8fb1ddbd254ecba8a0095ca7415a633d5b99638fbab80b1ffffffff257faf129c1bd296a2f60066096e70b7e3e2c7c58097cac1db8428b9bae0b0d3010000006b483045022100e442f19356bc0853865646586558deb7b913b9c3d21577dee796568ad032d4d402201ce6c66cf97e0e8e0066e380bdc0000911776a1a433c1b4a76e246249fc767e601210319ebeb5cfb8afd76586d0cf0481d881d8f2ea08981a42ff8a9dddaacb3705ef8ffffffff02601bc005000000001976a914c3ae487eb17a752edb6b447263330ea1420ca5af88ac31b72101000000001976a9143e2b68bd503bb2a8aae771d3cb4a33a6ffff9dc888ac00000000", "vin": [{"sequence": 4294967295, "scriptSig": {"hex": "473044022032732e1cd69896354959fe52ee93fdfdade78690582adf86a8939bd1b11d1ce202204dd44fc7ef93b2dbf31dab001f2b68beb444b44c3d5ac4af72e0b260c018db75012103c2d450f2adbeb8616d87aa299fd9b8ea17a14fd2cb50700977f65a655e971313", "asm": "3044022032732e1cd69896354959fe52ee93fdfdade78690582adf86a8939bd1b11d1ce202204dd44fc7ef93b2dbf31dab001f2b68beb444b44c3d5ac4af72e0b260c018db75[ALL] 03c2d450f2adbeb8616d87aa299fd9b8ea17a14fd2cb50700977f65a655e971313"}, "vout": 0, "txid": "d2758f293cd05459e91aee6ec0cdbea8b8bf4602395f3a53f4410742682308bd"}, {"sequence": 4294967295, "scriptSig": {"hex": "483045022100af877ea103fc5f5af2b8143d7a8390497a1dd7317516da12f9ae3dbfbd34480d02206e4d822064bdf32c39bed1105b752cff25665e6185b81e69b0202a94db82685e01210393bd94df9c989f6471caeae58b5c722ff48d55788120130bb3dec3453361420c", "asm": "3045022100af877ea103fc5f5af2b8143d7a8390497a1dd7317516da12f9ae3dbfbd34480d02206e4d822064bdf32c39bed1105b752cff25665e6185b81e69b0202a94db82685e[ALL] 0393bd94df9c989f6471caeae58b5c722ff48d55788120130bb3dec3453361420c"}, "vout": 1, "txid": "6077550b5fd08203a3f7fb1b9d575542d6b00ad2b93c52809dbbd87da76fd51b"}, {"sequence": 4294967295, "scriptSig": {"hex": "483045022100dd8b42c7444eaeae7395d1beba71ba6e91c45e620dd67e4fcaed9e4d575be9c40220538f53ca059bd8945f252616ce4e51d383d5e2839afee3b9f918fcfdc55df30e012102fba67079e36ff9eac8fb1ddbd254ecba8a0095ca7415a633d5b99638fbab80b1", "asm": "3045022100dd8b42c7444eaeae7395d1beba71ba6e91c45e620dd67e4fcaed9e4d575be9c40220538f53ca059bd8945f252616ce4e51d383d5e2839afee3b9f918fcfdc55df30e[ALL] 02fba67079e36ff9eac8fb1ddbd254ecba8a0095ca7415a633d5b99638fbab80b1"}, "vout": 0, "txid": "5c8c177a74c330ec929dd05129c071fd9d15a7f32446b2a0ef2fa033566758cb"}, {"sequence": 4294967295, "scriptSig": {"hex": "483045022100e442f19356bc0853865646586558deb7b913b9c3d21577dee796568ad032d4d402201ce6c66cf97e0e8e0066e380bdc0000911776a1a433c1b4a76e246249fc767e601210319ebeb5cfb8afd76586d0cf0481d881d8f2ea08981a42ff8a9dddaacb3705ef8", "asm": "3045022100e442f19356bc0853865646586558deb7b913b9c3d21577dee796568ad032d4d402201ce6c66cf97e0e8e0066e380bdc0000911776a1a433c1b4a76e246249fc767e6[ALL] 0319ebeb5cfb8afd76586d0cf0481d881d8f2ea08981a42ff8a9dddaacb3705ef8"}, "vout": 1, "txid": "d3b0e0bab92884dbc1ca9780c5c7e2e3b7706e096600f6a296d21b9c12af7f25"}], "txid": "7335753bb03d227320e34741b0eab77b3b8e2803f32e6e08a412b83873cc008f", "blocktime": 1537876114, "version": 1, "confirmations": 11459, "time": 1537876114, "locktime": 0, "vsize": 669, "size": 669}