{"hash": "7339223aff194a928c390b3959975aeea64ea1305eaf9e9df4f3d6f8ebb2c2ab", "blockhash": "00000000000000000018f53835495a110e01622372bf6ae95dc86f2b0ab887b0", "vout": [{"scriptPubKey": {"reqSigs": 1, "hex": "76a9140d1ec56e250f8afc392eb146b0e6a920c3ced20c88ac", "addresses": ["12CNeWsjhQpMxsReCVcjNrxqjcbeWEZfKN"], "asm": "OP_DUP OP_HASH160 0d1ec56e250f8afc392eb146b0e6a920c3ced20c OP_EQUALVERIFY OP_CHECKSIG", "type": "pubkeyhash"}, "value": 0.03701466, "n": 0}, {"scriptPubKey": {"reqSigs": 1, "hex": "76a9148fd96e3f00c0c61f35c903e71dcc52d112ec1b7888ac", "addresses": ["1E7c6n8U46N6bVZwPmbTWjgFAuzQKzffu8"], "asm": "OP_DUP OP_HASH160 8fd96e3f00c0c61f35c903e71dcc52d112ec1b78 OP_EQUALVERIFY OP_CHECKSIG", "type": "pubkeyhash"}, "value": 0.06764498, "n": 1}], "hex": "0100000001ee4266a5bfc6669814c40440a2d3b134042b82a407cb9b4dbc811b6d6ee31d14010000006b483045022100c57ebc9f690f593a551cc64017429bd831d75a2c758406518b8e844defd67c2c02203c38083d30dda0bc42fba17839c2774b4c5b83fc470e0e45a3dcc2ae25c2a965012103982df4f2b46c6c53ac77b2d6908027531dc79f40d5cd9e1e91fe061a7de06d24ffffffff02da7a3800000000001976a9140d1ec56e250f8afc392eb146b0e6a920c3ced20c88acd2376700000000001976a9148fd96e3f00c0c61f35c903e71dcc52d112ec1b7888ac00000000", "vin": [{"sequence": 4294967295, "scriptSig": {"hex": "483045022100c57ebc9f690f593a551cc64017429bd831d75a2c758406518b8e844defd67c2c02203c38083d30dda0bc42fba17839c2774b4c5b83fc470e0e45a3dcc2ae25c2a965012103982df4f2b46c6c53ac77b2d6908027531dc79f40d5cd9e1e91fe061a7de06d24", "asm": "3045022100c57ebc9f690f593a551cc64017429bd831d75a2c758406518b8e844defd67c2c02203c38083d30dda0bc42fba17839c2774b4c5b83fc470e0e45a3dcc2ae25c2a965[ALL] 03982df4f2b46c6c53ac77b2d6908027531dc79f40d5cd9e1e91fe061a7de06d24"}, "vout": 1, "txid": "141de36e6d1b81bc4d9bcb07a4822b0434b1d3a24004c4149866c6bfa56642ee"}], "txid": "7339223aff194a928c390b3959975aeea64ea1305eaf9e9df4f3d6f8ebb2c2ab", "blocktime": 1537870928, "version": 1, "confirmations": 11514, "time": 1537870928, "locktime": 0, "vsize": 226, "size": 226}