{"hash": "22ace3ad6ac14eaca76b745fc5d54c9b5cb90da4e2c521b4aab8e0ae8b9e8faf", "blockhash": "0000000000000000000e13cef7c366c0283d82e591d1acd082e914b08063cdf1", "vout": [{"scriptPubKey": {"reqSigs": 1, "hex": "a914983c51074ece8e648b5f0d04a4ae70fa2db3752487", "addresses": ["3FZxtZqz7ifuvTd5GSXFmQE1MXZqnGeHqZ"], "asm": "OP_HASH160 983c51074ece8e648b5f0d04a4ae70fa2db37524 OP_EQUAL", "type": "scripthash"}, "value": 3.9419195, "n": 0}], "hex": "02000000000102c9d3117831c3c2cf6dd7a47bbf6c56f3b046c8430865af76978b394940c7d3ed3c0000001716001435af7f3b8ab9fc37bd2ead884a6c40065acc91fbffffffffc9d3117831c3c2cf6dd7a47bbf6c56f3b046c8430865af76978b394940c7d3ed0d000000171600146bb4f2796c7f5d5c4b8f50f9b1f92b59201d6babffffffff014ee47e170000000017a914983c51074ece8e648b5f0d04a4ae70fa2db375248702483045022100a95481f7406dab9d31a8272be2a3152a853f3711dba062159c76ead9cfd7549502203ca95befb4845996e604add90e314bf64658a678501076996b45396608fa470d0121032c286cb68f93973bd9b70877ab21b43c61c723332595e4c93cc3b19b917feacd0247304402202e59d81b60a669ff90e31376b789787c3ba6276d927c2e91bfe91058ab489cd802205ff53c6784c14833c6da726098a42505e5dbaa489b92c6c35c095b6f82e82a9d012102c4846fb0419435c91468502c26a2b6d2b9f3babaa3d061056922b1936030d6e500000000", "vin": [{"txinwitness": ["3045022100a95481f7406dab9d31a8272be2a3152a853f3711dba062159c76ead9cfd7549502203ca95befb4845996e604add90e314bf64658a678501076996b45396608fa470d01", "032c286cb68f93973bd9b70877ab21b43c61c723332595e4c93cc3b19b917feacd"], "sequence": 4294967295, "scriptSig": {"hex": "16001435af7f3b8ab9fc37bd2ead884a6c40065acc91fb", "asm": "001435af7f3b8ab9fc37bd2ead884a6c40065acc91fb"}, "vout": 60, "txid": "edd3c74049398b9776af650843c846b0f3566cbf7ba4d76dcfc2c3317811d3c9"}, {"txinwitness": ["304402202e59d81b60a669ff90e31376b789787c3ba6276d927c2e91bfe91058ab489cd802205ff53c6784c14833c6da726098a42505e5dbaa489b92c6c35c095b6f82e82a9d01", "02c4846fb0419435c91468502c26a2b6d2b9f3babaa3d061056922b1936030d6e5"], "sequence": 4294967295, "scriptSig": {"hex": "1600146bb4f2796c7f5d5c4b8f50f9b1f92b59201d6bab", "asm": "00146bb4f2796c7f5d5c4b8f50f9b1f92b59201d6bab"}, "vout": 13, "txid": "edd3c74049398b9776af650843c846b0f3566cbf7ba4d76dcfc2c3317811d3c9"}], "txid": "733926496c6b24c2b1a7636bbc0e4ae180f12ea221a7bd433ee0abc32ed35847", "blocktime": 1537871767, "version": 2, "confirmations": 11491, "time": 1537871767, "locktime": 0, "vsize": 225, "size": 387}