{"hash": "733c7d80eb6ff7797208abdfb9bd8c143e2a924a1c3141d3f4514bc49e199e91", "blockhash": "0000000000000000000e13cef7c366c0283d82e591d1acd082e914b08063cdf1", "vout": [{"scriptPubKey": {"reqSigs": 1, "hex": "76a91478bf97ce6f98b45d3e35fdbb20effc1393e3fed588ac", "addresses": ["1C1Tc8nYzDZUrtZLJNpBi6oXXPXoBkp7d9"], "asm": "OP_DUP OP_HASH160 78bf97ce6f98b45d3e35fdbb20effc1393e3fed5 OP_EQUALVERIFY OP_CHECKSIG", "type": "pubkeyhash"}, "value": 0.0002393, "n": 0}, {"scriptPubKey": {"reqSigs": 1, "hex": "76a91464fd3afaafa0fc19074aaffc33c7d4a6cfc4e70788ac", "addresses": ["1ACyvwTEjSmWCBep7WwGeqGgr51NG4rwNb"], "asm": "OP_DUP OP_HASH160 64fd3afaafa0fc19074aaffc33c7d4a6cfc4e707 OP_EQUALVERIFY OP_CHECKSIG", "type": "pubkeyhash"}, "value": 0.00472338, "n": 1}], "hex": "01000000010c807f16090fc96f3f6ce986affab33a378f242a60397e4c7cfd4507c040c223010000006b483045022100b978a55c233052977644e806ac6b7365ecaf30642eb944e5e899c5116e0a05b402200115cf3629b80914cbfe3928d05489579d6edb11b7d42779f7073e5f1bcd4c95012103ac53e21a4dee7468d52c7739d0c382a38ffa2dcf2bc89a3d8b7df74603ab2072ffffffff027a5d0000000000001976a91478bf97ce6f98b45d3e35fdbb20effc1393e3fed588ac12350700000000001976a91464fd3afaafa0fc19074aaffc33c7d4a6cfc4e70788ac00000000", "vin": [{"sequence": 4294967295, "scriptSig": {"hex": "483045022100b978a55c233052977644e806ac6b7365ecaf30642eb944e5e899c5116e0a05b402200115cf3629b80914cbfe3928d05489579d6edb11b7d42779f7073e5f1bcd4c95012103ac53e21a4dee7468d52c7739d0c382a38ffa2dcf2bc89a3d8b7df74603ab2072", "asm": "3045022100b978a55c233052977644e806ac6b7365ecaf30642eb944e5e899c5116e0a05b402200115cf3629b80914cbfe3928d05489579d6edb11b7d42779f7073e5f1bcd4c95[ALL] 03ac53e21a4dee7468d52c7739d0c382a38ffa2dcf2bc89a3d8b7df74603ab2072"}, "vout": 1, "txid": "23c240c00745fd7c4c7e39602a248f373ab3faaf86e96c3f6fc90f09167f800c"}], "txid": "733c7d80eb6ff7797208abdfb9bd8c143e2a924a1c3141d3f4514bc49e199e91", "blocktime": 1537871767, "version": 1, "confirmations": 11495, "time": 1537871767, "locktime": 0, "vsize": 226, "size": 226}