{"hash": "7343df931a8a5053bfc03db12602299bcaa4e347cec6473bae485ef1f1715fa8", "blockhash": "00000000000000000017f5eb5941039fbcee6240d03bc1f2f8e35350df66a1d8", "vout": [{"scriptPubKey": {"reqSigs": 1, "hex": "76a91443986cfee679c477f7a5fbb0eb66e5599fe6c4b188ac", "addresses": ["17AQsafYBZuSZd4XepBn7DQ5Z8bRUJLH44"], "asm": "OP_DUP OP_HASH160 43986cfee679c477f7a5fbb0eb66e5599fe6c4b1 OP_EQUALVERIFY OP_CHECKSIG", "type": "pubkeyhash"}, "value": 1.23, "n": 0}, {"scriptPubKey": {"reqSigs": 1, "hex": "76a9144e62046aff4e9d3b673a99ec44c5c421708db57888ac", "addresses": ["189T8KdcQ5Zs9VZS33L7trT9T4xE4RLrBr"], "asm": "OP_DUP OP_HASH160 4e62046aff4e9d3b673a99ec44c5c421708db578 OP_EQUALVERIFY OP_CHECKSIG", "type": "pubkeyhash"}, "value": 0.14448, "n": 1}], "hex": "01000000029fd6b0e575031017bcf0965e2cbc19a9e1f8c9f1b74f395dc6b4b188cb4a80af010000006a47304402203988122a8640b5d3e144f09233de4a9b9b2a93199c1bc94fa345e2ee00ae14b202202d819e304fbb0f4fbd11d610d2a6425b3367327035da595f29713def2417b64201210324436e17505254f5054fd9e9ec7db26a0623f3d3f3636795c47ba49b58a65e81ffffffffaa48e3a7a8d75e2b7fc4df0b31cbab874fa1f94e908b07fb7a471b7a5c8789cc000000006a4730440220401f505e4822b2ba66cdcc6fe9ab2d3e36d38306a28c9f9cf34b06ece068bdbf0220470be33125dde2b82f3f1a21859dfbedbd3ef773d5f3f86894050fd75b88a88d012102f60605605c6276edeea6bb9ea752dd00eadbaa9a80e8d9dcf65073f7d208427affffffff02c0d45407000000001976a91443986cfee679c477f7a5fbb0eb66e5599fe6c4b188ac8075dc00000000001976a9144e62046aff4e9d3b673a99ec44c5c421708db57888ac00000000", "vin": [{"sequence": 4294967295, "scriptSig": {"hex": "47304402203988122a8640b5d3e144f09233de4a9b9b2a93199c1bc94fa345e2ee00ae14b202202d819e304fbb0f4fbd11d610d2a6425b3367327035da595f29713def2417b64201210324436e17505254f5054fd9e9ec7db26a0623f3d3f3636795c47ba49b58a65e81", "asm": "304402203988122a8640b5d3e144f09233de4a9b9b2a93199c1bc94fa345e2ee00ae14b202202d819e304fbb0f4fbd11d610d2a6425b3367327035da595f29713def2417b642[ALL] 0324436e17505254f5054fd9e9ec7db26a0623f3d3f3636795c47ba49b58a65e81"}, "vout": 1, "txid": "af804acb88b1b4c65d394fb7f1c9f8e1a919bc2c5e96f0bc17100375e5b0d69f"}, {"sequence": 4294967295, "scriptSig": {"hex": "4730440220401f505e4822b2ba66cdcc6fe9ab2d3e36d38306a28c9f9cf34b06ece068bdbf0220470be33125dde2b82f3f1a21859dfbedbd3ef773d5f3f86894050fd75b88a88d012102f60605605c6276edeea6bb9ea752dd00eadbaa9a80e8d9dcf65073f7d208427a", "asm": "30440220401f505e4822b2ba66cdcc6fe9ab2d3e36d38306a28c9f9cf34b06ece068bdbf0220470be33125dde2b82f3f1a21859dfbedbd3ef773d5f3f86894050fd75b88a88d[ALL] 02f60605605c6276edeea6bb9ea752dd00eadbaa9a80e8d9dcf65073f7d208427a"}, "vout": 0, "txid": "cc89875c7a1b477afb078b904ef9a14f87abcb310bdfc47f2b5ed7a8a7e348aa"}], "txid": "7343df931a8a5053bfc03db12602299bcaa4e347cec6473bae485ef1f1715fa8", "blocktime": 1537874412, "version": 1, "confirmations": 11467, "time": 1537874412, "locktime": 0, "vsize": 372, "size": 372}